0211725088547332010010100537+42584-070918FM-15+0033KBVY V0203405N00155007925MN0080475N5-00285-00335101885ADDAA101000095AU100001015AW1105GA1085+007925999GD14991+0079259GF108991999999999999999999MA1101905101505REMMET09912/31/09 19:53:01 METAR KBVY 010053Z 34003KT 5SM BR OVC026 M03/M03 A3009 RMK AO2 SLP188 T10281033 $
0221725088547332010010101437+42584-070918FM-16+0033KBVY V0203505N00315007325MN0096565N5-00305-00405999999ADDAU100001015AW1105GA1045+002135999GA2085+007325999GD12991+0021359GD24991+0073259GF108991999999999999999999MA1101865101465REMMET08912/31/09 20:43:01 SPECI KBVY 010143Z 35006KT 6SM BR SCT007 OVC024 M03/M04 A3008 RMK AO2 $
0249725088547332010010101537+42584-070918FM-15+0033KBVY V0203405N00265006715MN0096565N5-00285-00395101805ADDAA101000095AU100001015AW1105GA1025+002135999GA2085+006715999GD11991+0021359GD24991+0067159GF108991999999999999999999MA1101835101435REMMET10612/31/09 20:53:01 METAR KBVY 010153Z 34005KT 6SM BR FEW007 OVC022 M03/M04 A3007 RMK AO2 SLP180 T10281039 $
0221725088547332010010102297+42584-070918FM-16+0033KBVY V0203405N003152200059N0080475N5-00305-00405999999ADDAU100001015AW1105GA1045+001525999GA2045+006715999GD12991+0015259GD22991+0067159GF104991999999999999999999MA1101795101405REMMET08912/31/09 21:29:01 SPECI KBVY 010229Z 34006KT 5SM BR SCT005 SCT022 M03/M04 A3006 RMK AO2 $
0221725088547332010010102347+42584-070918FM-16+0033KBVY V0203305N00315000915MN0080475N5-00305-00405999999ADDAU100001015AW1105GA1075+000915999GA2075+002135999GD13991+0009159GD23991+0021359GF107991999999999999999999MA1101795101405REMMET08912/31/09 21:34:01 SPECI KBVY 010234Z 33006KT 5SM BR BKN003 BKN007 M03/M04 A3006 RMK AO2 $
0243725088547332010010102537+42584-070918FM-15+0033KBVY V0203205N00315000915MN0064375N5-00335-00395101765ADDAA101000095AU100001015AW1105GA1085+000915999GD14991+0009159GF108991999999999999999999MA1101795101405MD1740174+9999REMMET11712/31/09 21:53:01 METAR KBVY 010253Z 32006KT 4SM BR OVC003 M03/M04 A3006 RMK AO2 CIG 003V006 SLP176 T10331039 57017 $
0195725088547332010010103317+42584-070918FM-16+0033KBVY V0203405N00215001525MN0064375N5-00305-00405999999ADDAU100001015AW1105GA1085+001525999GD14991+0015259GF108991999999999999999999MA1101735101335REMMET09412/31/09 22:31:02 SPECI KBVY 010331Z 34004KT 4SM BR OVC005 M03/M04 A3004 RMK AO2 CIG 003V006 $
0211725088547332010010103537+42584-070918FM-15+0033KBVY V0203305N00265001525MN0080475N5-00335-00445101665ADDAA101000095AU100001015AW1105GA1085+001525999GD14991+0015259GF108991999999999999999999MA1101695101305REMMET09912/31/09 22:53:02 METAR KBVY 010353Z 33005KT 5SM BR OVC005 M03/M04 A3003 RMK AO2 SLP166 T10331044 $
0221725088547332010010104537+42584-070918FM-15+0033KBVY V0203105N00155002135MN0096565N5-00335-00445101585ADDAA101000095AU100001015AW1105GA1085+002135999GD14991+0021359GF108991999999999999999999MA1101635101235REMMET10912/31/09 23:53:02 METAR KBVY 010453Z 31003KT 6SM BR OVC007 M03/M04 A3001 RMK AO2 SLP158 T10331044 400111078 $
0955725088547332010010104596+42584-070918SOD  +0033KBVY V020999999999999999999999999999+99999+99999999999ADDAA124002895AX1016246AX2026246KA1240M+00115KA2240N-00775MG1101904101594OE11240071521018515OE22240053622011465OE33240015699999995REMSOD74924 HR PRECIPITATION (IN):0.11  WEATHER(CODE):1,2  24 HR MAX TEMP (F):34 24 HR MAX TEMP TIME (LST):1143 24 HR MIN TEMP (F):18 24 HR MIN TEMP TIME (LST):0545 AVERAGE STATION PRESSURE:30.090 MINIMUM SEA LEVEL PRESSURE:30.00 TIME OF OCCURRENCE:2359 PEAK WIND SPEED (MPH):16  PEAK WIND DIR (DEG):210 PEAK WIND TIME (LST):1851  FASTEST 2MIN SPEED (MPH):12 FASTEST 2MIN DIR (DEG):220 FASTEST 2MIN TIME (LST):1146 AVERAGE WIND SPEED (MPH):3.5  24 HR AVG TEMP (F):26 HEATING DEGREE DAYS:39  COOLING DEGREE DAYS:0   LATEST DAY MAX TEMP (0700-1900 LST):34  LATEST NIGHT MIN TEMP(1900-0800 LST):18 HOURLY INCREMENTAL PRECIPITATION VALUES (IN):.00 0.00 0.00 0.00 0.00 0.00 0.00 0.00 0.00 0.00 0.00 T    0.03 0.05 0.03 T    0.00 0.00 0.00 0.00 0.00 0.00 0.00 0.00EQDR01   1,27AXW090R02   1,27AXW090R03     N7GJS072R04     N7GKS075
1240725088547332010010104596+42584-070918SOM  +0033KBVY V020999999999999999999999999999+99999+99999999999ADDAB10111896AD10040690909999999995AE1125085035015AH1005001390307005AH2010002390306585AH3015003090307045AH4020003690307045AH5030004890307045AH6045005890307115AI1060007690307345AI2080010490307075AI3100012290307345AI4120014090307375AI5150015790307375AI6180017590307375KB1744N-04725KB2744M+03945KB3744A-00395KC1N9-01331899995KC2M9+02050399995KD1744H10365KD2744C00005KE1095005275005MH1101104101494MK1103221222435098750918455REMSOM792PCP MTOT:4.40 PCP GT 24HRS:1.60 DATE(S):9 DAYS W/PCP >=.01:12 DAYS W/PCP >=.10:8  DAYS W/ PCP >=.50:3 DAYS W/PCP >=1.00:1 MSDP AMTS W/DATE-TIME TAGS:MIN:5 0.05  03/0700 MIN:10 0.09  03/0658 MIN:15 0.12  03/0704 MIN:20 0.14  03/0704 MIN:30 0.19  03/0704 MIN:45 0.23  03/0711 MIN:60 0.30  03/0734 MIN:80 0.41  03/0707 MIN:100 0.48  03/0734 MIN:120 0.55  03/0737 MIN:150 0.62  03/0737 MIN:180 0.69  03/0737 AVG DLY MIN:23.5  AVG DLY MAX:39.1  AVG MLY TMP:31.3  MIN TMP:8  DATE(S):18 MAX TMP:69  DATE(S):03 DAYS MAX <=32:9 DAYS MAX >=90:0  DAYS MIN <=32:27 DAYS MIN  <=0:0  AVG STP:29.855 LWST SLP:29.16 DATE/TIME:091845 HGST SLP:30.48 DATE/TIME:122243 HDD MTH TOT:1036 DEP NORM:-2553 SEASON(JUL 1-JUN 30):2240 DEP NORM:+24384 CDD MTH TOT:0 DEP NORM:-2553 SEASON(JAN 1-DEC 31):428 DEP NORM:-20820EQDR01  4.407ABP070
0269725088547332010010105537+42584-070918FM-15+0033KBVY V0203305N00215002135MN0080475N5-00335-00445101505ADDAA101000095AU100001015AW1105GA1085+002135999GD14991+0021359GF108991999999999999999999KA1999M-00171KA2999N-00391MA1101525101135MD1640254+9999REMMET11701/01/10 00:53:02 METAR KBVY 010553Z 33004KT 5SM BR OVC007 M03/M04 A2998 RMK AO2 SLP150 T10331044 11017 21039 56025 $
0211725088547332010010106537+42584-070918FM-15+0033KBVY V0203305N00265002135MN0080475N5-00335-00445101475ADDAA101000095AU100001015AW1105GA1085+002135999GD14991+0021359GF108991999999999999999999MA1101495101095REMMET09901/01/10 01:53:02 METAR KBVY 010653Z 33005KT 5SM BR OVC007 M03/M04 A2997 RMK AO2 SLP147 T10331044 $
0282725088547332010010107537+42584-070918FM-15+0033KBVY V0203105N00265001525MN0064375N5-00335-00395101465ADDAA101000025AU110030015AU200001015AW1105AW2715GA1075+001525999GA2085+003665999GD13991+0015259GD24991+0036659GF108991999999999999999999MA1101495101095REMMET12201/01/10 02:53:02 METAR KBVY 010753Z 31005KT 4SM -SN BR BKN005 OVC012 M03/M04 A2997 RMK AO2 SNB52 SLP146 P0000 T10331039 $
0259725088547332010010108037+42584-070918FM-16+0033KBVY V0203105N00215003665MN0064375N5-00305-00405999999ADDAA101000021AU110030015AU200001015AW1105AW2715GA1045+001525999GA2085+003665999GD12991+0015259GD24991+0036659GF108991999999999999999999MA1101495101095REMMET09901/01/10 03:03:02 SPECI KBVY 010803Z 31004KT 4SM -SN BR SCT005 OVC012 M03/M04 A2997 RMK AO2 P0000 $
0259725088547332010010108167+42584-070918FM-16+0033KBVY V0203105N00215003665MN0032195N5-00305-00405999999ADDAA101000021AU110030015AU200001015AW1105AW2715GA1025+001525999GA2085+003665999GD11991+0015259GD24991+0036659GF108991999999999999999999MA1101465101065REMMET09901/01/10 03:16:02 SPECI KBVY 010816Z 31004KT 2SM -SN BR FEW005 OVC012 M03/M04 A2996 RMK AO2 P0000 $
0221725088547332010010108297+42584-070918FM-16+0033KBVY V0203005N00215003665MN0048285N5-00305-00405999999ADDAA101000021AU110030015AU200001015AW1105AW2715GA1085+003665999GD14991+0036659GF108991999999999999999999MA1101465101065REMMET09201/01/10 03:29:02 SPECI KBVY 010829Z 30004KT 3SM -SN BR OVC012 M03/M04 A2996 RMK AO2 P0000 $
0193725088547332010010108516+42584-070918FM-16+0033KBVY V0203105N00215003665MN0040235N5-00305-00405999999ADDAU110030015AU200001015AW1105AW2715GA1085+003665999GD14991+0036659MA1101425101035REMMET10101/01/10 03:51:02 SPECI KBVY 010851Z 31004KT 2 1/2SM -SN BR OVC012 M03/M04 A2995 RMK AO2 P0000 $ FIBI
0294725088547332010010108537+42584-070918FM-15+0033KBVY V0203005N00155003665MN0032195N5-00335-00395101405ADDAA101000025AA203000021AU110030015AU200001015AW1105AW2715GA1085+003665999GD14991+0036659GF108991999999999999999999MA1101425101035MD1840104+9999REMMET12101/01/10 03:53:02 METAR KBVY 010853Z 30003KT 2SM -SN BR OVC012 M03/M04 A2995 RMK AO2 SLP140 P0000 60000 T10331039 58010 $EQDQ01  00008PRCP03
0225725088547332010010109147+42584-070918FM-16+0033KBVY V0203105N00215003665MN0028165N5-00305-00405999999ADDAA101000021AU110030015AU200001015AW1105AW2715GA1085+003665999GD14991+0036659GF108991999999999999999999MA1101425101035REMMET09601/01/10 04:14:02 SPECI KBVY 010914Z 31004KT 1 3/4SM -SN BR OVC012 M03/M04 A2995 RMK AO2 P0000 $
0263725088547332010010109227+42584-070918FM-16+0033KBVY V0209999C00005006105MN0040235N5-00305-00405999999ADDAA101000021AU110030015AU200001015AW1105AW2715GA1045+003665999GA2085+006105999GD12991+0036659GD24991+0061059GF108991999999999999999999MA1101395100995REMMET10301/01/10 04:22:02 SPECI KBVY 010922Z 00000KT 2 1/2SM -SN BR SCT012 OVC020 M03/M04 A2994 RMK AO2 P0000 $
0297725088547332010010109297+42584-070918FM-16+0033KBVY V0202805N00155012195MN0048285N5-00305-00405999999ADDAA101000391AU110030015AU200001015AW1105AW2715GA1045+004275999GA2075+012195999GA3085+021345999GD12991+0042759GD23991+0121959GD34991+0213459GF108991999999999999999999MA1101395100995REMMET10601/01/10 04:29:02 SPECI KBVY 010929Z 28003KT 3SM -SN BR SCT014 BKN040 OVC070 M03/M04 A2994 RMK AO2 P0001 $
0259725088547332010010109397+42584-070918FM-16+0033KBVY V0202905N00215004275MN0064375N5-00305-00405999999ADDAA101000391AU110030015AU200001015AW1105AW2715GA1075+004275999GA2085+009455999GD13991+0042759GD24991+0094559GF108991999999999999999999MA1101425101035REMMET09901/01/10 04:39:02 SPECI KBVY 010939Z 29004KT 4SM -SN BR BKN014 OVC031 M03/M04 A2995 RMK AO2 P0001 $
0223725088547332010010109537+42584-070918FM-15+0033KBVY V0203105N00155004275MN0080475N5-00335-00445101355ADDAA101000395AU100001015AW1105GA1085+004275999GD14991+0042759GF108991999999999999999999MA1101395100995REMMET11101/01/10 04:53:02 METAR KBVY 010953Z 31003KT 5SM BR OVC014 M03/M04 A2994 RMK AO2 SNE42 SLP135 P0001 T10331044 $
0240725088547332010010110187+42584-070918FM-16+0033KBVY V0202605V00885004885MN0064375N5-00305-00405999999ADDAA101000021AU100001015AW1105GA1085+004885999GD14991+0048859GF108991999999999999999999MA1101395100995OC103355REMMET12001/01/10 05:18:02 SPECI KBVY 011018Z 26017G65KT 4SM BR OVC016 M03/M04 A2994 RMK AO2 PK WND 21065/1017 SNB0957E13 P0000 $
0228725088547332010010110537+42584-070918FM-15+0033KBVY V0203105N00155004885MN0096565N5-00335-00445101335ADDAA101000025AU100001015AW1105GA1085+004885999GD14991+0048859GF108991999999999999999999MA1101355100965REMMET11601/01/10 05:53:02 METAR KBVY 011053Z 31003KT 6SM BR OVC016 M03/M04 A2993 RMK AO2 SNB0957E13 SLP133 P0000 T10331044 $
0221725088547332010010111387+42584-070918FM-16+0033KBVY V0203005N001552200059N0096565N5-00305-00405999999ADDAU100001015AW1105GA1025+004885999GA2045+036585999GD11991+0048859GD22991+0365859GF104991999999999999999999MA1101355100965REMMET08901/01/10 06:38:02 SPECI KBVY 011138Z 30003KT 6SM BR FEW016 SCT120 M03/M04 A2993 RMK AO2 $
0409725088547332010010111537+42584-070918FM-15+0033KBVY V0203105N00155036585MN0096565N5-00335-00445101325ADDAA101000095AA206000391AA324003091AU100001015AW1105GA1025+004885999GA2045+025915999GA3075+036585999GD11991+0048859GD22991+0259159GD33991+0365859GF107991999999999999999999KA1999M-00281KA2999N-00331MA1101355100965MD1640084+9999MW1101REMMET14801/01/10 06:53:02 METAR KBVY 011153Z 31003KT 6SM BR FEW016 SCT085 BKN120 M03/M04 A2993 RMK AO2 SLP132 60001 70012 T10331044 11028 21033 56008 $ (AM)EQDQ01  00308PRCP24
0260725088547332010010112537+42584-070918FM-15+0033KBVY V0203105N00215024385MN0080475N5-00335-00445101325ADDAA101000095AU100001015AW1105GA1025+011285999GA2085+024385999GD11991+0112859GD24991+0243859GF108991999999999999999999MA1101355100965MW1101REMMET11101/01/10 07:53:02 METAR KBVY 011253Z 31004KT 5SM BR FEW037 OVC080 M03/M04 A2993 RMK AO2 SLP132 T10331044 $ (AM)
0260725088547332010010113537+42584-070918FM-15+0033KBVY V0203205N00215027435MN0096565N5-00225-00395101255ADDAA101000095AU100001015AW1105GA1045+019815999GA2085+027435999GD12991+0198159GD24991+0274359GF108991999999999999999999MA1101295100895MW1101REMMET11101/01/10 08:53:02 METAR KBVY 011353Z 32004KT 6SM BR SCT065 OVC090 M02/M04 A2991 RMK AO2 SLP125 T10221039 $ (AM)
0254725088547332010010114537+42584-070918FM-15+0033KBVY V0203105N00215027435MN0112655N5-00175-00335101245ADDAA101000095GA1025+016765999GA2085+027435999GD11991+0167659GD24991+0274359GF108991999999999999999999MA1101295100895MD1840084+9999REMMET11401/01/10 09:53:02 METAR KBVY 011453Z 31004KT 7SM FEW055 OVC090 M02/M03 A2991 RMK AO2 SLP124 T10171033 58008 $ (AM)
0272725088547332010010115537+42584-070918FM-15+0033KBVY V0203305N00265028965MN0144845N5-00065-00285101115ADDAA101000095GA1025+015245999GA2045+018295999GA3085+028965999GD11991+0152459GD22991+0182959GD34991+0289659GF108991999999999999999999MA1101155100765REMMET11501/01/10 10:53:02 METAR KBVY 011553Z 33005KT 9SM FEW050 SCT060 OVC095 M01/M03 A2987 RMK AO2 SLP111 T10061028 $ (AM)
0194725088547332010010116537+42584-070918FM-15+0033KBVY V0203305N00365025915MN0160935N5+00005-00225101025ADDAA101000095GA1085+025915999GD14991+0259159GF108991999999999999999999MA1101055100655REMMET09901/01/10 11:53:02 METAR KBVY 011653Z 33007KT 10SM OVC085 00/M02 A2984 RMK AO2 SLP102 T00001022 (AM)
0252725088547332010010117537+42584-070918FM-15+0033KBVY V0209999C00005025915MN0160935N5+00065-00225100995ADDAA101000095GA1085+025915999GD14991+0259159GF108991999999999999999999KA1999M+00111KA2999N-00331MA1101025100625MD1640254+9999REMMET11701/01/10 12:53:02 METAR KBVY 011753Z 00000KT 10SM OVC085 01/M02 A2983 RMK AO2 SLP099 T00061022 10011 21033 56025 (AM)
0194725088547332010010118537+42584-070918FM-15+0033KBVY V0209999C00005025915MN0160935N5+00175-00175100905ADDAA101000095GA1085+025915999GD14991+0259159GF108991999999999999999999MA1100955100555REMMET09901/01/10 13:53:02 METAR KBVY 011853Z 00000KT 10SM OVC085 02/M02 A2981 RMK AO2 SLP090 T00171017 (AM)
0194725088547332010010119537+42584-070918FM-15+0033KBVY V0203205N00215024385MN0160935N5+00115-00175100935ADDAA101000095GA1085+024385999GD14991+0243859GF108991999999999999999999MA1100955100555REMMET09901/01/10 14:53:02 METAR KBVY 011953Z 32004KT 10SM OVC080 01/M02 A2981 RMK AO2 SLP093 T00111017 (AM)
0204725088547332010010120277+42584-070918FM-16+0033KBVY V0203105N00265004575MN0160935N5+00105-00205999999ADDGA1075+004575999GA2085+024385999GD13991+0045759GD24991+0243859GF108991999999999999999999MA1100955100555REMMET08901/01/10 15:27:02 SPECI KBVY 012027Z 31005KT 10SM BKN015 OVC080 01/M02 A2981 RMK AO2 (AM)
0214725088547332010010120537+42584-070918FM-15+0033KBVY V0202805N00155004575MN0160935N5+00065-00225100905ADDAA101000095GA1085+004575999GD14991+0045759GF108991999999999999999999MA1100915100525MD1640094+9999REMMET10501/01/10 15:53:02 METAR KBVY 012053Z 28003KT 10SM OVC015 01/M02 A2980 RMK AO2 SLP090 T00061022 56009 TSNO
0166725088547332010010121197+42584-070918FM-16+0033KBVY V0203205N00315003965MN0160935N5+00105-00205999999ADDGA1085+003965999GD14991+0039659GF108991999999999999999999MA1100915100525REMMET08201/01/10 16:19:02 SPECI KBVY 012119Z 32006KT 10SM OVC013 01/M02 A2980 RMK AO2 TSNO
0206725088547332010010121537+42584-070918FM-15+0033KBVY V0203305N00265003355MN0160935N5+00065-00115100865ADDAA101000095GA1085+003355999GD14991+0033559GF108991999999999999999999MA1100885100495REMMET11101/01/10 16:53:02 METAR KBVY 012153Z 33005KT 10SM OVC011 01/M01 A2979 RMK AO2 CIG 006V012 SLP086 T00061011 TSNO
0178725088547332010010122007+42584-070918FM-16+0033KBVY V0203405N00365002745MN0160935N5+00105-00105999999ADDGA1085+002745999GD14991+0027459GF108991999999999999999999MA1100885100495REMMET09401/01/10 17:00:02 SPECI KBVY 012200Z 34007KT 10SM OVC009 01/M01 A2979 RMK AO2 CIG 006V011 TSNO
0195725088547332010010122537+42584-070918FM-15+0033KBVY V0209999999999002135MN0144845N5+00065-00065100815ADDAA101000095GA1085+002135999GD14991+0021359GF108991999999999999999999MA1100855100455REMMET10001/01/10 17:53:02 METAR KBVY 012253Z      KT 9SM OVC007 01/M01 A2978 RMK AO2 SLP081 T00061006 TSNO $
0254725088547332010010123537+42584-070918FM-15+0033KBVY V0203305N00415002135MN0160935N5+00065-00065100765ADDAA101000095GA1085+002135999GD14991+0021359GF108991999999999999999999KA1999M+00171KA2999N+00061MA1100785100385MD1840144+9999REMMET11901/01/10 18:53:02 METAR KBVY 012353Z 33008KT 10SM OVC007 01/M01 A2976 RMK AO2 SLP076 T00061006 10017 20006 58014 TSNO $
0237725088547332010010200516+42584-070918FM-16+0033KBVY V0203505N00415003355MN0064375N5+00105-00105999999ADDAU110030015AU200001015AW1105AW2715GA1045+001835999GA2085+003355999GD12991+0018359GD24991+0033559MA1100685100285REMMET11401/01/10 19:51:03 SPECI KBVY 020051Z 35008KT 4SM -SN BR SCT006 OVC011 01/M01 A2973 RMK AO2 SNB43 P0000 TSNO $ FIBI
0281725088547332010010200537+42584-070918FM-15+0033KBVY V0203605N00415003355MN0080475N5+00065-00065100665ADDAA101000025AU110030015AU200001015AW1105AW2715GA1045+001835999GA2085+003355999GD12991+0018359GD24991+0033559GF108991999999999999999999MA1100685100285REMMET12101/01/10 19:53:02 METAR KBVY 020053Z 36008KT 5SM -SN BR SCT006 OVC011 01/M01 A2973 RMK AO2 SNB43 SLP066 P0000 T00061006 $
0209725088547332010010201067+42584-070918FM-16+0033KBVY V0203605N00465002745MN0160935N5+00005-00105999999ADDGA1075+002745999GA2085+003965999GD13991+0027459GD24991+0039659GF108991999999999999999999MA1100685100285REMMET09401/01/10 20:06:02 SPECI KBVY 020106Z 36009KT 10SM BKN009 OVC013 00/M01 A2973 RMK AO2 SNE0054 $
0209725088547332010010201537+42584-070918FM-15+0033KBVY V0203605N00515002135MN0112655N5+00005-00115100585ADDAA101000025GA1085+002135999GD14991+0021359GF108991999999999999999999MA1100615100225OC100775REMMET10601/01/10 20:53:02 METAR KBVY 020153Z 36010G15KT 7SM OVC007 00/M01 A2971 RMK AO2 SNE0054 SLP058 T00001011 $
0317725088547332010010202537+42584-070918FM-15+0033KBVY V0203605N00415002135MN0040235N5-00065-00175100545ADDAA101000396AA203000022AU110030015AU200001015AW1105AW2715GA1085+002135999GD14991+0021359GF108991999999999999999999MA1100585100185MD1640234+9999OC100885REMMET13601/01/10 21:53:02 METAR KBVY 020253Z 36008G17KT 2 1/2SM -SN BR OVC007 M01/M02 A2970 RMK AO2 SNB0155 SLP054 P0000 60000 T10061017 56023 $EQDQ01  00008PRCP03
0237725088547332010010203267+42584-070918FM-16+0033KBVY V0203605N00415002135MN0024145N5-00105-00205999999ADDAA101000391AU110030015AU200001015AW1105AW2715GA1085+002135999GD14991+0021359GF108991999999999999999999MA1100545100155REMMET10801/01/10 22:26:02 SPECI KBVY 020326Z 36008KT 1 1/2SM -SN BR OVC007 M01/M02 A2969 RMK AO2 CIG 006V010 P0001 $
0276725088547332010010203537+42584-070918FM-15+0033KBVY V0203605N00465002745MN0012075N5-00115-00175100455ADDAA101000895AU110030015AU200001015AW1105AW2715GA1025+001225999GA2085+002745999GD11991+0012259GD24991+0027459GF108991999999999999999999MA1100475100085REMMET11601/01/10 22:53:01 METAR KBVY 020353Z 36009KT 3/4SM -SN BR FEW004 OVC009 M01/M02 A2967 RMK AO2 SLP045 P0003 T10111017
0257725088547332010010204127+42584-070918FM-16+0033KBVY V0203505N00575003355MN0016095N5-00105-00205999999ADDAA101000591AU110030015AU200001015AW1105AW2715GA1045+001835999GA2085+003355999GD12991+0018359GD24991+0033559GF108991999999999999999999MA1100475100085REMMET09701/01/10 23:12:02 SPECI KBVY 020412Z 35011KT 1SM -SN BR SCT006 OVC011 M01/M02 A2967 RMK AO2 P0002
0261725088547332010010204347+42584-070918FM-16+0033KBVY V0203605N00465002745MN0020125N5-00105-00205999999ADDAA101000891AU110030015AU200001015AW1105AW2715GA1025+001835999GA2085+002745999GD11991+0018359GD24991+0027459GF108991999999999999999999MA1100415100015REMMET10101/01/10 23:34:02 SPECI KBVY 020434Z 36009KT 1 1/4SM -SN BR FEW006 OVC009 M01/M02 A2965 RMK AO2 P0003
0262725088547332010010204537+42584-070918FM-15+0033KBVY V0203505N00465002745MN0020125N5-00175-00225100365ADDAA101000895AU110030015AU200001015AW1105AW2715GA1085+002745999GD14991+0027459GF108991999999999999999999MA1100415100015REMMET13301/01/10 23:53:01 METAR KBVY 020453Z 35009KT 1 1/4SM -SN BR OVC009 M02/M02 A2965 RMK AO2 CIG 006V011 SLP036 P0003 T10171022 400171033
0912725088547332010010204596+42584-070918SOD  +0033KBVY V020999999999999999999999999999+99999+99999999999ADDAA124002095AX1015245KA1240M+00175KA2240N-00325MG1100764100344OE11240344233017515OE22240102833017525OE33240025599999995REMSOD74724 HR PRECIPITATION (IN):0.08  WEATHER(CODE):1  24 HR MAX TEMP (F):35 24 HR MAX TEMP TIME (LST):1403 24 HR MIN TEMP (F):26 24 HR MIN TEMP TIME (LST):0813 AVERAGE STATION PRESSURE:29.755 MINIMUM SEA LEVEL PRESSURE:29.63 TIME OF OCCURRENCE:2359 PEAK WIND SPEED (MPH):77  PEAK WIND DIR (DEG):330 PEAK WIND TIME (LST):1751  FASTEST 2MIN SPEED (MPH):23 FASTEST 2MIN DIR (DEG):330 FASTEST 2MIN TIME (LST):1752 AVERAGE WIND SPEED (MPH):5.7  24 HR AVG TEMP (F):31 HEATING DEGREE DAYS:34  COOLING DEGREE DAYS:0   LATEST DAY MAX TEMP (0700-1900 LST):35  LATEST NIGHT MIN TEMP(1900-0800 LST):25 HOURLY INCREMENTAL PRECIPITATION VALUES (IN):.00 0.00 T    T    0.01 T    0.00 0.00 0.00 0.00 0.00 0.00 0.00 0.00 0.00 0.00 0.00 0.00 0.00 T    T    0.01 0.03 0.03EQDR01     N7GJS072R02     N7GKS075
0223725088547332010010205447+42584-070918FM-16+0033KBVY V0200105N00515003665MN0020125N5-00205-00305999999ADDAA101000391AU110030015AU200001015AW1105AW2715GA1085+003665999GD14991+0036659GF108991999999999999999999MA1100345099955REMMET09401/02/10 00:44:02 SPECI KBVY 020544Z 01010KT 1 1/4SM -SN BR OVC012 M02/M03 A2963 RMK AO2 P0001
0236725088547332010010205516+42584-070918FM-16+0033KBVY V0203605N00515003665MN0016095N5-00205-00305999999ADDAU110030015AU200001015AW1105AW2715GA1025+002135999GA2085+003665999GD11991+0021359GD24991+0036659MA1100305099915OC100825REMMET10501/02/10 00:51:02 SPECI KBVY 020551Z 36010G16KT 1SM -SN BR FEW007 OVC012 M02/M03 A2962 RMK AO2 P0002 FIBI
0368725088547332010010205537+42584-070918FM-15+0033KBVY V0203505N00575003665MN0016095N5-00225-00335100295ADDAA101000395AA206002091AU110030015AU200001015AW1105AW2715GA1025+002135999GA2085+003665999GD11991+0021359GD24991+0036659GF108991999999999999999999KA1999M+00061KA2999N-00221MA1100345099955MD1640154+9999REMMET13801/02/10 00:53:02 METAR KBVY 020553Z 35011KT 1SM -SN BR FEW007 OVC012 M02/M03 A2963 RMK AO2 SLP029 P0002 60008 T10221033 10006 21022 56015EQDQ01  00208PRCP06
0274725088547332010010206537+42584-070918FM-15+0033KBVY V0203605N00465003665MN0016095N5-00225-00395100315ADDAA101000395AU110030015AU200001015AW1105AW2715GA1025+002135999GA2085+003665999GD11991+0021359GD24991+0036659GF108991999999999999999999MA1100345099955REMMET11401/02/10 01:53:02 METAR KBVY 020653Z 36009KT 1SM -SN BR FEW007 OVC012 M02/M04 A2963 RMK AO2 SLP031 P0001 T10221039
0261725088547332010010207457+42584-070918FM-16+0033KBVY V0203605N00515001835MN0020125N5-00305-00405999999ADDAA101000391AU110030015AU200001015AW1105AW2715GA1075+001835999GA2085+004275999GD13991+0018359GD24991+0042759GF108991999999999999999999MA1100345099955REMMET10101/02/10 02:45:02 SPECI KBVY 020745Z 36010KT 1 1/4SM -SN BR BKN006 OVC014 M03/M04 A2963 RMK AO2 P0001
0278725088547332010010207537+42584-070918FM-15+0033KBVY V0203505N00465002445MN0020125N5-00285-00395100295ADDAA101000395AU110030015AU200001015AW1105AW2715GA1075+002445999GA2085+004275999GD13991+0024459GD24991+0042759GF108991999999999999999999MA1100305099915REMMET11801/02/10 02:53:02 METAR KBVY 020753Z 35009KT 1 1/4SM -SN BR BKN008 OVC014 M03/M04 A2962 RMK AO2 SLP029 P0001 T10281039
0257725088547332010010208357+42584-070918FM-16+0033KBVY V0203605N00515004275MN0032195N5-00305-00405999999ADDAA101000021AU110030015AU200001015AW1105AW2715GA1045+002445999GA2085+004275999GD12991+0024459GD24991+0042759GF108991999999999999999999MA1100275099885REMMET09701/02/10 03:35:02 SPECI KBVY 020835Z 36010KT 2SM -SN BR SCT008 OVC014 M03/M04 A2961 RMK AO2 P0000
0296725088547332010010208537+42584-070918FM-15+0033KBVY V0203605N00515003665MN0040235N5-00335-00445100225ADDAA101000025AA203000591AU110030015AU200001015AW1105AW2715GA1085+003665999GD14991+0036659GF108991999999999999999999MA1100245099845MD1840074+9999REMMET12301/02/10 03:53:02 METAR KBVY 020853Z 36010KT 2 1/2SM -SN BR OVC012 M03/M04 A2960 RMK AO2 SLP022 P0000 60002 T10331044 58007EQDQ01  00058PRCP03
0261725088547332010010209237+42584-070918FM-16+0033KBVY V0203505N00465004885MN0040235N5-00305-00505999999ADDAA101000021AU110030015AU200001015AW1105AW2715GA1025+003355999GA2085+004885999GD11991+0033559GD24991+0048859GF108991999999999999999999MA1100245099845REMMET10101/02/10 04:23:02 SPECI KBVY 020923Z 35009KT 2 1/2SM -SN BR FEW011 OVC016 M03/M05 A2960 RMK AO2 P0000
0186725088547332010010209466+42584-070918FM-16+0033KBVY V0203605N00625004275MN0040235N5-00405-00505999999ADDAU110030015AU200001015AW1105AW2715GA1085+004275999GD14991+0042759MA1100205099815REMMET09401/02/10 04:46:02 SPECI KBVY 020946Z 36012KT 2 1/2SM -SN BR OVC014 M04/M05 A2959 RMK AO2 P0000
0236725088547332010010209537+42584-070918FM-15+0033KBVY V0203505N00515004275MN0032195N5-00395-00505100175ADDAA101000025AU110030015AU200001015AW1105AW2715GA1085+004275999GD14991+0042759GF108991999999999999999999MA1100205099815REMMET10701/02/10 04:53:02 METAR KBVY 020953Z 35010KT 2SM -SN BR OVC014 M04/M05 A2959 RMK AO2 SLP017 P0000 T10391050
0223725088547332010010210027+42584-070918FM-16+0033KBVY V0203505N00515004275MN0028165N5-00405-00505999999ADDAA101000021AU110030015AU200001015AW1105AW2715GA1085+004275999GD14991+0042759GF108991999999999999999999MA1100205099815REMMET09401/02/10 05:02:02 SPECI KBVY 021002Z 35010KT 1 3/4SM -SN BR OVC014 M04/M05 A2959 RMK AO2 P0000
0196725088547332010010210516+42584-070918FM-16+0033KBVY V0203505N00575002445MN0020125N5-00405-00605999999ADDAU110030015AU200001015AW1105AW2715GA1085+002445999GD14991+0024459MA1100175099785REMMET10401/02/10 05:51:02 SPECI KBVY 021051Z 35011KT 1 1/4SM -SN BR OVC008 M04/M06 A2958 RMK AO2 P0000 TSNO FIBI
0245725088547332010010210537+42584-070918FM-15+0033KBVY V0203505N00575002445MN0020125N5-00395-00565100145ADDAA101000025AU110030015AU200001015AW1105AW2715GA1085+002445999GD14991+0024459GF108991999999999999999999MA1100175099785REMMET11601/02/10 05:53:02 METAR KBVY 021053Z 35011KT 1 1/4SM -SN BR OVC008 M04/M06 A2958 RMK AO2 SLP014 P0000 T10391056 TSNO
0219725088547332010010211187+42584-070918FM-16+0033KBVY V0203605N00515003665MN0032195N5-00405-00605999999ADDAA101000021AU110030015AU200001015AW1105AW2715GA1085+003665999GD14991+0036659GF108991999999999999999999MA1100145099745REMMET09001/02/10 06:18:02 SPECI KBVY 021118Z 36010KT 2SM -SN BR OVC012 M04/M06 A2957 RMK AO2 P0000
0261725088547332010010211307+42584-070918FM-16+0033KBVY V0203505N00515004885MN0040235N5-00405-00605999999ADDAA101000391AU110030015AU200001015AW1105AW2715GA1075+004885999GA2085+012805999GD13991+0048859GD24991+0128059GF108991999999999999999999MA1100145099745REMMET10101/02/10 06:30:02 SPECI KBVY 021130Z 35010KT 2 1/2SM -SN BR BKN016 OVC042 M04/M06 A2957 RMK AO2 P0001
0401725088547332010010211537+42584-070918FM-15+0033KBVY V0203605N00575007325MN0032195N5-00395-00565100085ADDAA101000395AA206000891AA324002891AU110030015AU200001015AW1105AW2715GA1075+007325999GA2085+012805999GD13991+0073259GD24991+0128059GF108991999999999999999999KA1999M-00221KA2999N-00391MA1100105099715MD1840144+9999REMMET14401/02/10 06:53:02 METAR KBVY 021153Z 36011KT 2SM -SN BR BKN024 OVC042 M04/M06 A2956 RMK AO2 SLP008 P0001 60003 70011 T10391056 11022 21039 58014EQDQ01  00088PRCP06Q02  00288PRCP24
0240725088547332010010212137+42584-070918FM-16+0033KBVY V0203505N00515004885MN0028165N5-00405-00605999999ADDAA101000021AU110030015AU200001015AW1105AW2715GA1085+004885999GD14991+0048859GF108991999999999999999999MA1100105099715MW1101MW2711REMMET09901/02/10 07:13:02 SPECI KBVY 021213Z 35010KT 1 3/4SM -SN BR OVC016 M04/M06 A2956 RMK AO2 P0000 (SS)
0278725088547332010010212267+42584-070918FM-16+0033KBVY V0203605N00415004275MN0028165N5-00405-00505999999ADDAA101000021AU110030015AU200001015AW1105AW2715GA1075+004275999GA2085+009145999GD13991+0042759GD24991+0091459GF108991999999999999999999MA1100075099685MW1101MW2711REMMET10601/02/10 07:26:02 SPECI KBVY 021226Z 36008KT 1 3/4SM -SN BR BKN014 OVC030 M04/M05 A2955 RMK AO2 P0000 (SS)
0278725088547332010010212437+42584-070918FM-16+0033KBVY V0203505N00465004885MN0020125N5-00405-00505999999ADDAA101000021AU110030015AU200001015AW1105AW2715GA1075+004885999GA2085+009145999GD13991+0048859GD24991+0091459GF108991999999999999999999MA1100075099685MW1101MW2711REMMET10601/02/10 07:43:02 SPECI KBVY 021243Z 35009KT 1 1/4SM -SN BR BKN016 OVC030 M04/M05 A2955 RMK AO2 P0000 (SS)
0257725088547332010010212537+42584-070918FM-15+0033KBVY V0203505N00415004885MN0024145N5-00395-00505100045ADDAA101000025AU110030015AU200001015AW1105AW2715GA1085+004885999GD14991+0048859GF108991999999999999999999MA1100075099685MW1101MW2711REMMET11601/02/10 07:53:02 METAR KBVY 021253Z 35008KT 1 1/2SM -SN BR OVC016 M04/M05 A2955 RMK AO2 SLP004 P0000 T10391050 (SS)
0278725088547332010010213397+42584-070918FM-16+0033KBVY V0203405N00465003965MN0020125N5-00305-00505999999ADDAA101000021AU110030015AU200001015AW1105AW2715GA1075+003965999GA2085+006715999GD13991+0039659GD24991+0067159GF108991999999999999999999MA1100035099645MW1101MW2711REMMET10601/02/10 08:39:02 SPECI KBVY 021339Z 34009KT 1 1/4SM -SN BR BKN013 OVC022 M03/M05 A2954 RMK AO2 P0000 (SS)
0291725088547332010010213537+42584-070918FM-15+0033KBVY V0203605N00515003965MN0016095N5-00335-00505100005ADDAA101000395AU110030015AU200001015AW1105AW2715GA1075+003965999GA2085+006105999GD13991+0039659GD24991+0061059GF108991999999999999999999MA1100035099645MW1101MW2711REMMET11901/02/10 08:53:02 METAR KBVY 021353Z 36010KT 1SM -SN BR BKN013 OVC020 M03/M05 A2954 RMK AO2 SLP000 P0000 T10331050 (SS)
0237725088547332010010214397+42584-070918FM-16+0033KBVY V0203505N00465002745WN0012075N5-00305-00505999999ADDAA101000391AU110030015AU200001015AW1105AW2715GA1095+002745999GD15991+0027459GF109991999999000251999999MA1100035099645MW1101MW2711REMMET09601/02/10 09:39:02 SPECI KBVY 021439Z 35009KT 3/4SM -SN BR VV009 M03/M05 A2954 RMK AO2 P0001 (SS)
0235725088547332010010214517+42584-070918FM-16+0033KBVY V0203505N00365003665WN0016095N5-00305-00405999999ADDAA101000591AU110030015AU200001015AW1105AW2715GA1095+003665999GD15991+0036659GF109991999999000251999999MA1100035099645MW1101MW2711REMMET09401/02/10 09:51:02 SPECI KBVY 021451Z 35007KT 1SM -SN BR VV012 M03/M04 A2954 RMK AO2 P0002 (SS)
0308725088547332010010214537+42584-070918FM-15+0033KBVY V0203505N00365003965WN0016095N5-00335-00445099995ADDAA101000395AA203000591AU110030015AU200001015AW1105AW2715GA1095+003965999GD15991+0039659GF109991999999000251999999MA1100035099645MD1540054+9999MW1101MW2711REMMET12301/02/10 09:53:02 METAR KBVY 021453Z 35007KT 1SM -SN BR VV013 M03/M04 A2954 RMK AO2 SLP999 P0002 60002 T10331044 55005 (SS)EQDQ01  00058PRCP03
0240725088547332010010215117+42584-070918FM-16+0033KBVY V0203505N00415004885MN0020125N5-00305-00405999999ADDAA101000021AU110030015AU200001015AW1105AW2715GA1085+004885999GD14991+0048859GF108991999999999999999999MA1100005099615MW1101MW2711REMMET09901/02/10 10:11:02 SPECI KBVY 021511Z 35008KT 1 1/4SM -SN BR OVC016 M03/M04 A2953 RMK AO2 P0000 (SS)
0278725088547332010010215237+42584-070918FM-16+0033KBVY V0203605N00415004885MN0024145N5-00305-00505999999ADDAA101000021AU110030015AU200001015AW1105AW2715GA1025+002745999GA2085+004885999GD11991+0027459GD24991+0048859GF108991999999999999999999MA1099975099575MW1101MW2711REMMET10601/02/10 10:23:02 SPECI KBVY 021523Z 36008KT 1 1/2SM -SN BR FEW009 OVC016 M03/M05 A2952 RMK AO2 P0000 (SS)
0274725088547332010010215367+42584-070918FM-16+0033KBVY V0203505N00465003665MN0016095N5-00305-00405999999ADDAA101000391AU110030015AU200001015AW1105AW2715GA1025+002745999GA2085+003665999GD11991+0027459GD24991+0036659GF108991999999999999999999MA1099975099575MW1101MW2711REMMET10201/02/10 10:36:02 SPECI KBVY 021536Z 35009KT 1SM -SN BR FEW009 OVC012 M03/M04 A2952 RMK AO2 P0001 (SS)
0237725088547332010010215437+42584-070918FM-16+0033KBVY V0203505N00465003055WN0012075N5-00305-00405999999ADDAA101000391AU110030015AU200001015AW1105AW2715GA1095+003055999GD15991+0030559GF109991999999000251999999MA1099935099545MW1101MW2711REMMET09601/02/10 10:43:02 SPECI KBVY 021543Z 35009KT 3/4SM -SN BR VV010 M03/M04 A2951 RMK AO2 P0001 (SS)
0237725088547332010010215507+42584-070918FM-16+0033KBVY V0203505N00465002445WN0012075N5-00305-00505999999ADDAA101000391AU110030015AU200001015AW1105AW2715GA1095+002445999GD15991+0024459GF109991999999000251999999MA1099935099545MW1101MW2711REMMET09601/02/10 10:50:02 SPECI KBVY 021550Z 35009KT 3/4SM -SN BR VV008 M03/M05 A2951 RMK AO2 P0001 (SS)
0254725088547332010010215537+42584-070918FM-15+0033KBVY V0203405N00575002445WN0012075N5-00335-00505099885ADDAA101000395AU110030015AU200001015AW1105AW2715GA1095+002445999GD15991+0024459GF109991999999000251999999MA1099905099515MW1101MW2711REMMET11301/02/10 10:53:02 METAR KBVY 021553Z 34011KT 3/4SM -SN BR VV008 M03/M05 A2950 RMK AO2 SLP988 P0001 T10331050 (SS)
0235725088547332010010216177+42584-070918FM-16+0033KBVY V0203505N00515002745WN0016095N5-00305-00505999999ADDAA101000391AU110030015AU200001015AW1105AW2715GA1095+002745999GD15991+0027459GF109991999999000251999999MA1099865099475MW1101MW2711REMMET09401/02/10 11:17:02 SPECI KBVY 021617Z 35010KT 1SM -SN BR VV009 M03/M05 A2949 RMK AO2 P0001 (SS)
0237725088547332010010216267+42584-070918FM-16+0033KBVY V0203505N00515003055WN0012075N5-00305-00405999999ADDAA101000391AU110030015AU200001015AW1105AW2715GA1095+003055999GD15991+0030559GF109991999999000251999999MA1099865099475MW1101MW2711REMMET09601/02/10 11:26:02 SPECI KBVY 021626Z 35010KT 3/4SM -SN BR VV010 M03/M04 A2949 RMK AO2 P0001 (SS)
0240725088547332010010216437+42584-070918FM-16+0033KBVY V0203505N00515004275MN0020125N5-00305-00405999999ADDAA101000391AU110030015AU200001015AW1105AW2715GA1085+004275999GD14991+0042759GF108991999999999999999999MA1099835099445MW1101MW2711REMMET09901/02/10 11:43:02 SPECI KBVY 021643Z 35010KT 1 1/4SM -SN BR OVC014 M03/M04 A2948 RMK AO2 P0001 (SS)
0234725088547332010010216516+42584-070918FM-16+0033KBVY V0203505N00625004885MN0020125N5-00305-00405999999ADDAU110030015AU200001015AW1105AW2715GA1025+003355999GA2085+004885999GD11991+0033559GD24991+0048859MA1099805099415REMMET11101/02/10 11:51:02 SPECI KBVY 021651Z 35012KT 1 1/4SM -SN BR FEW011 OVC016 M03/M04 A2947 RMK AO2 P0001 FIBI (SS)
0257725088547332010010216537+42584-070918FM-15+0033KBVY V0203505N00575004885MN0020125N5-00285-00445099765ADDAA101000395AU110030015AU200001015AW1105AW2715GA1085+004885999GD14991+0048859GF108991999999999999999999MA1099805099415MW1101MW2711REMMET11601/02/10 11:53:02 METAR KBVY 021653Z 35011KT 1 1/4SM -SN BR OVC016 M03/M04 A2947 RMK AO2 SLP976 P0001 T10281044 (SS)
0400725088547332010010217537+42584-070918FM-15+0033KBVY V0203405N00625006405MN0040235N5-00285-00505099675ADDAA101000025AA206001091AU110030015AU200001015AW1105AW2715GA1045+003965999GA2085+006405999GD12991+0039659GD24991+0064059GF108991999999999999999999KA1999M-00281KA2999N-00391MA1099705099305MD1840214+9999MW1101MW2711OC100935REMMET15001/02/10 12:53:02 METAR KBVY 021753Z 34012G18KT 2 1/2SM -SN BR SCT013 OVC021 M03/M05 A2944 RMK AO2 SLP967 P0000 60004 T10281050 11028 21039 58021 (SS)EQDQ01  00108PRCP06
0248725088547332010010218207+42584-070918FM-16+0033KBVY V0203405N00465008235MN0048285N5-00205-00505999999ADDAA101000021AU110030015AW1715GA1045+004575999GA2085+008235999GD12991+0045759GD24991+0082359GF108991999999999999999999MA1099705099305MW1711REMMET09901/02/10 13:20:02 SPECI KBVY 021820Z 34009KT 3SM -SN SCT015 OVC027 M02/M05 A2944 RMK AO2 P0000 (SS)
0252725088547332010010218277+42584-070918FM-16+0033KBVY V0203505N00515007625MN0040235N5-00205-00505999999ADDAA101000021AU110030015AW1715GA1045+004575999GA2085+007625999GD12991+0045759GD24991+0076259GF108991999999999999999999MA1099665099275MW1711REMMET10301/02/10 13:27:02 SPECI KBVY 021827Z 35010KT 2 1/2SM -SN SCT015 OVC025 M02/M05 A2943 RMK AO2 P0000 (SS)
0278725088547332010010218387+42584-070918FM-16+0033KBVY V0203405N00575004575MN0020125N5-00205-00405999999ADDAA101000021AU110030015AU200001015AW1105AW2715GA1075+004575999GA2085+007325999GD13991+0045759GD24991+0073259GF108991999999999999999999MA1099665099275MW1101MW2711REMMET10601/02/10 13:38:02 SPECI KBVY 021838Z 34011KT 1 1/4SM -SN BR BKN015 OVC024 M02/M04 A2943 RMK AO2 P0000 (SS)
0285725088547332010010218517+42584-070918FM-16+0033KBVY V0203605N00465003665MN0016095N5-00205-00405999999ADDAA101000021AU110030015AU200001015AW1105AW2715GA1075+003665999GA2085+005185999GD13991+0036659GD24991+0051859GF108991999999999999999999MA1099665099275MW1101MW2711OC100825REMMET10501/02/10 13:51:02 SPECI KBVY 021851Z 36009G16KT 1SM -SN BR BKN012 OVC017 M02/M04 A2943 RMK AO2 P0000 (SS)
0306725088547332010010218537+42584-070918FM-15+0033KBVY V0203505N00575003665MN0020125N5-00225-00445099625ADDAA101000025AU110030015AU200001015AW1105AW2715GA1075+003665999GA2085+005185999GD13991+0036659GD24991+0051859GF108991999999999999999999MA1099665099275MW1101MW2711OC100825REMMET12601/02/10 13:53:02 METAR KBVY 021853Z 35011G16KT 1 1/4SM -SN BR BKN012 OVC017 M02/M04 A2943 RMK AO2 SLP962 P0000 T10221044 (SS)
0278725088547332010010219117+42584-070918FM-16+0033KBVY V0203405N00365002745MN0020125N5-00205-00405999999ADDAA101000021AU110030015AU200001015AW1105AW2715GA1075+002745999GA2085+005185999GD13991+0027459GD24991+0051859GF108991999999999999999999MA1099635099245MW1101MW2711REMMET10601/02/10 14:11:02 SPECI KBVY 021911Z 34007KT 1 1/4SM -SN BR BKN009 OVC017 M02/M04 A2942 RMK AO2 P0000 (SS)
0278725088547332010010219227+42584-070918FM-16+0033KBVY V0203505N00575003055MN0024145N5-00205-00405999999ADDAA101000021AU110030015AU200001015AW1105AW2715GA1075+003055999GA2085+005185999GD13991+0030559GD24991+0051859GF108991999999999999999999MA1099635099245MW1101MW2711REMMET10601/02/10 14:22:02 SPECI KBVY 021922Z 35011KT 1 1/2SM -SN BR BKN010 OVC017 M02/M04 A2942 RMK AO2 P0000 (SS)
0268725088547332010010219537+42584-070918FM-15+0033KBVY V0203505N00415003665MN0024145N5-00225-00445099595ADDAA101000395AU110030015AU200001015AW1105AW2715GA1085+003665999GD14991+0036659GF108991999999999999999999MA1099635099245MW1101MW2711OC100775REMMET11901/02/10 14:53:02 METAR KBVY 021953Z 35008G15KT 1 1/2SM -SN BR OVC012 M02/M04 A2942 RMK AO2 SLP959 P0001 T10221044 (SS)
0347725088547332010010220537+42584-070918FM-15+0033KBVY V0203405N00415004275MN0016095N5-00285-00445099555ADDAA101000025AA203000391AU110030015AU200001015AW1105AW2715GA1075+004275999GA2085+010675999GD13991+0042759GD24991+0106759GF108991999999999999999999MA1099595099205MD1840074+9999MW1101MW2711REMMET13101/02/10 15:53:02 METAR KBVY 022053Z 34008KT 1SM -SN BR BKN014 OVC035 M03/M04 A2941 RMK AO2 SLP955 P0000 60001 T10281044 58007 (SS)EQDQ01  00038PRCP03
0266725088547332010010221117+42584-070918FM-16+0033KBVY V0203405N00365007015MN0024145N5-00305-00405999999ADDAA101000021AU110030015AU200001015AW1105AW2715GA1025+004275999GA2085+007015999GD11991+0042759GD24991+0070159GF108991999999999999999999MA1099565099175REMMET10601/02/10 16:11:02 SPECI KBVY 022111Z 34007KT 1 1/2SM -SN BR FEW014 OVC023 M03/M04 A2940 RMK AO2 P0000 TSNO
0192725088547332010010221516+42584-070918FM-16+0033KBVY V0203305N00265004885MN0032195N5-00305-00405999999ADDAU110030015AU200001015AW1105AW2715GA1085+004885999GD14991+0048859MA1099495099105REMMET10001/02/10 16:51:02 SPECI KBVY 022151Z 33005KT 2SM -SN BR OVC016 M03/M04 A2938 RMK AO2 P0001 TSNO FIBI
0241725088547332010010221537+42584-070918FM-15+0033KBVY V0203205N00265004885MN0032195N5-00285-00395099465ADDAA101000595AU110030015AU200001015AW1105AW2715GA1085+004885999GD14991+0048859GF108991999999999999999999MA1099495099105REMMET11201/02/10 16:53:02 METAR KBVY 022153Z 32005KT 2SM -SN BR OVC016 M03/M04 A2938 RMK AO2 SLP946 P0001 T10281039 TSNO
0228725088547332010010221597+42584-070918FM-16+0033KBVY V0203105N00315004275MN0024145N5-00305-00405999999ADDAA101000391AU110030015AU200001015AW1105AW2715GA1085+004275999GD14991+0042759GF108991999999999999999999MA1099495099105REMMET09901/02/10 16:59:02 SPECI KBVY 022159Z 31006KT 1 1/2SM -SN BR OVC014 M03/M04 A2938 RMK AO2 P0001 TSNO
0253725088547332010010222437+42584-070918FM-16+0033KBVY V0203105N00825004885MN0032195N5-00305-00505999999ADDAA101000391AU110030015AU200001015AW1105AW2715GA1085+004885999GD14991+0048859GF108991999999999999999999MA1099465099075OC101395REMMET11601/02/10 17:43:02 SPECI KBVY 022243Z 31016G27KT 2SM -SN BR OVC016 M03/M05 A2937 RMK AO2 PK WND 31027/2234 P0001 TSNO
0292725088547332010010222537+42584-070918FM-15+0033KBVY V0203205N00825005795MN0040235N5-00285-00565099415ADDAA101000025AU110030015AW1715GA1025+004275999GA2085+005795999GD11991+0042759GD24991+0057959GF108991999999999999999999MA1099425099035OC101445REMMET14101/02/10 17:53:02 METAR KBVY 022253Z 32016G28KT 2 1/2SM -SN FEW014 OVC019 M03/M06 A2936 RMK AO2 PK WND 33028/2244 SLP941 P0001 T10281056 TSNO
0257725088547332010010223317+42584-070918FM-16+0033KBVY V0203105N00985005795MN0028165N5-00405-00605999999ADDAA101000021AU110030015AU200001015AW1105AW2715GA1085+005795999GD14991+0057959GF108991999999999999999999MA1099425099035OC101445REMMET12001/02/10 18:31:02 SPECI KBVY 022331Z 31019G28KT 1 3/4SM -SN BR OVC019 M04/M06 A2936 RMK AO2 PK WND 32028/2331 P0000 TSNO
0344725088547332010010223537+42584-070918FM-15+0033KBVY V0203105N00935005795MN0032195N5-00395-00675099365ADDAA101000025AA206000891AU110030015AW1715GA1085+005795999GD14991+0057959GF108991999999999999999999KA1999M-00221KA2999N-00391MA1099395099005MD1640204+9999OC101295REMMET15401/02/10 18:53:02 METAR KBVY 022353Z 31018G25KT 2SM -SN OVC019 M04/M07 A2935 RMK AO2 PK WND 32028/2331 SLP936 P0000 60003 T10391067 11022 21039 56020 TSNOEQDQ01  00088PRCP06
0257725088547332010010300207+42584-070918FM-16+0033KBVY V0203105N00625005185MN0024145N5-00405-00705999999ADDAA101000021AU110030015AU200001015AW1105AW2715GA1085+005185999GD14991+0051859GF108991999999999999999999MA1099325098935OC101085REMMET12001/02/10 19:20:02 SPECI KBVY 030020Z 31012G21KT 1 1/2SM -SN BR OVC017 M04/M07 A2933 RMK AO2 PK WND 31028/2355 P0000 TSNO
0333725088547332010010300367+42584-070918FM-16+0033KBVY V0203105N00775003055MN0020125N5-00405-00705999999ADDAA101000021AU110030015AU200001015AW1105AW2715GA1075+003055999GA2075+004885999GA3085+006405999GD13991+0030559GD23991+0048859GD34991+0064059GF108991999999999999999999MA1099295098905OC101245REMMET13401/02/10 19:36:02 SPECI KBVY 030036Z 31015G24KT 1 1/4SM -SN BR BKN010 BKN016 OVC021 M04/M07 A2932 RMK AO2 PK WND 31028/2355 P0000 TSNO
0308725088547332010010300537+42584-070918FM-15+0033KBVY V0203105N01035003055MN0016095N5-00505-00725099245ADDAA101000025AU110030015AU200001015AW1105AW2715GA1075+003055999GA2085+005495999GD13991+0030559GD24991+0054959GF108991999999999999999999MA1099265098875OC101545REMMET14001/02/10 19:53:01 METAR KBVY 030053Z 31020G30KT 1SM -SN BR BKN010 OVC018 M05/M07 A2931 RMK AO2 PK WND 32030/0052 SLP924 P0000 T10501072 TSNO
0298725088547332010010301037+42584-070918FM-16+0033KBVY V0203105N00825002445MN0016095N5-00505-00705999999ADDAA101000021AU110030015AU200001015AW1105AW2715GA1075+002445999GA2085+005495999GD13991+0024459GD24991+0054959GF108991999999999999999999MA1099265098875MW1101MW2711OC101445REMMET11801/02/10 20:03:02 SPECI KBVY 030103Z 31016G28KT 1SM -SN BR BKN008 OVC018 M05/M07 A2931 RMK AO2 PK WND 31028/0055 P0000
0276725088547332010010301177+42584-070918FM-16+0033KBVY V0203105N00775003055MN0020125N5-00505-00805999999ADDAA101000021AU110030015AW1715GA1075+003055999GA2085+005495999GD13991+0030559GD24991+0054959GF108991999999999999999999MA1099225098835MW1711OC101655REMMET11901/02/10 20:17:02 SPECI KBVY 030117Z 31015G32KT 1 1/4SM -SN BKN010 OVC018 M05/M08 A2930 RMK AO2 PK WND 31032/0114 P0000
0250725088547332010010301537+42584-070918FM-15+0033KBVY V0203105N00825003055WN0016095N5-00505-00785099135ADDAA101000025AU110030015AW1715GA1095+003055999GD15991+0030559GF109991999999000251999999MA1099155098765MW1711OC101345REMMET12401/02/10 20:53:02 METAR KBVY 030153Z 31016G26KT 1SM -SN VV010 M05/M08 A2928 RMK AO2 PK WND 30035/0119 SLP913 P0000 T10501078
0259725088547332010010302017+42584-070918FM-16+0033KBVY V0203105N00885002445WN0016095N5-00605-00805999999ADDAA101000021AU110030015AU200001015AW1105AW2715GA1095+002445999GD15991+0024459GF109991999999000251999999MA1099125098735MW1101MW2711OC101495REMMET11001/02/10 21:01:02 SPECI KBVY 030201Z 31017G29KT 1SM -SN BR VV008 M06/M08 A2927 RMK AO2 PK WND 30029/0155 P0000
0261725088547332010010302247+42584-070918FM-16+0033KBVY V0203105N00935001835WN0012075N5-00605-00805999999ADDAA101000021AU110030015AU200001015AW1105AW2715GA1095+001835999GD15991+0018359GF109991999999000251999999MA1099055098665MW1101MW2711OC101705REMMET11201/02/10 21:24:02 SPECI KBVY 030224Z 31018G33KT 3/4SM -SN BR VV006 M06/M08 A2925 RMK AO2 PK WND 31033/0216 P0000
0298725088547332010010302517+42584-070918FM-16+0033KBVY V0203105N00885003055MN0016095N5-00605-00805999999ADDAA101000021AU110030015AU200001015AW1105AW2715GA1075+003055999GA2085+005795999GD13991+0030559GD24991+0057959GF108991999999999999999999MA1098985098605MW1101MW2711OC101605REMMET11801/02/10 21:51:02 SPECI KBVY 030251Z 31017G31KT 1SM -SN BR BKN010 OVC019 M06/M08 A2923 RMK AO2 PK WND 31033/0240 P0000
0375725088547332010010302537+42584-070918FM-15+0033KBVY V0203105N00885003055MN0020125N5-00565-00785098985ADDAA101000025AA203000021AU110030015AU200001015AW1105AW2715GA1075+003055999GA2085+005795999GD13991+0030559GD24991+0057959GF108991999999999999999999MA1098985098605MD1840384+9999MW1101MW2711OC101395REMMET15101/02/10 21:53:02 METAR KBVY 030253Z 31017G27KT 1 1/4SM -SN BR BKN010 OVC019 M06/M08 A2923 RMK AO2 PK WND 31033/0240 SLP898 P0000 60000 T10561078 58038EQDQ01  00008PRCP03
0234725088547332010010303047+42584-070918FM-16+0033KBVY V0203105N00935004885MN0032195N5-00505-00805999999ADDAA101000021AU110030015AW1715GA1085+004885999GD14991+0048859GF108991999999999999999999MA1098985098605MW1711OC101545REMMET10801/02/10 22:04:02 SPECI KBVY 030304Z 31018G30KT 2SM -SN OVC016 M05/M08 A2923 RMK AO2 PK WND 33030/0255 P0000
0238725088547332010010303157+42584-070918FM-16+0033KBVY V0203105N01135004885MN0024145N5-00505-00805999999ADDAA101000021AU110030015AW1715GA1085+004885999GD14991+0048859GF108991999999999999999999MA1098955098565MW1711OC101755REMMET11201/02/10 22:15:02 SPECI KBVY 030315Z 31022G34KT 1 1/2SM -SN OVC016 M05/M08 A2922 RMK AO2 PK WND 31034/0312 P0000
0238725088547332010010303327+42584-070918FM-16+0033KBVY V0203005N01085003665MN0020125N5-00505-00805999999ADDAA101000021AU110030015AW1715GA1085+003665999GD14991+0036659GF108991999999999999999999MA1098925098535MW1711OC101545REMMET11201/02/10 22:32:02 SPECI KBVY 030332Z 30021G30KT 1 1/4SM -SN OVC012 M05/M08 A2921 RMK AO2 PK WND 31034/0312 P0000
0233725088547332010010303457+42584-070918FM-16+0033KBVY V0203105N00885002445WN0016095N5-00505-00805999999ADDAA101000021AU110030015AW1715GA1095+002445999GD15991+0024459GF109991999999000251999999MA1098885098495MW1711OC101605REMMET10701/02/10 22:45:02 SPECI KBVY 030345Z 31017G31KT 1SM -SN VV008 M05/M08 A2920 RMK AO2 PK WND 31034/0312 P0000
0255725088547332010010303537+42584-070918FM-15+0033KBVY V0202905N00985002445MN0020125N5-00505-00785098835ADDAA101000025AU110030015AW1715GA1085+002445999GD14991+0024459GF108991999999999999999999MA1098855098465MW1711OC101395REMMET12901/02/10 22:53:02 METAR KBVY 030353Z 29019G27KT 1 1/4SM -SN OVC008 M05/M08 A2919 RMK AO2 PK WND 31034/0312 SLP883 P0000 T10501078
0261725088547332010010304137+42584-070918FM-16+0033KBVY V0202905N00935001525WN0012075N5-00605-00805999999ADDAA101000021AU110030015AU200001015AW1105AW2715GA1095+001525999GD15991+0015259GF109991999999000251999999MA1098815098435MW1101MW2711OC101545REMMET11201/02/10 23:13:02 SPECI KBVY 030413Z 29018G30KT 3/4SM -SN BR VV005 M06/M08 A2918 RMK AO2 PK WND 30030/0407 P0000
0301725088547332010010304537+42584-070918FM-15+0033KBVY V0203005N01085001525MN0012075N5-00565-00835098745ADDAA101000395AU110030015AW1715GA1075+001525999GA2085+004885999GD13991+0015259GD24991+0048859GF108991999999999999999999MA1098755098365MW1711OC101545REMMET14401/02/10 23:53:02 METAR KBVY 030453Z 30021G30KT 3/4SM -SN BKN005 OVC016 M06/M08 A2916 RMK AO2 PK WND 30030/0452 SLP874 P0001 T10561083 410171056
0912725088547332010010304596+42584-070918SOD  +0033KBVY V020999999999999999999999999999+99999+99999999999ADDAA124003095AX1015245KA1240M-00165KA2240N-00605MG1099484098714OE11240178830020195OE22240125231022205OE33240063999999995REMSOD74724 HR PRECIPITATION (IN):0.12  WEATHER(CODE):1  24 HR MAX TEMP (F):29 24 HR MAX TEMP TIME (LST):0046 24 HR MIN TEMP (F):21 24 HR MIN TEMP TIME (LST):2359 AVERAGE STATION PRESSURE:29.375 MINIMUM SEA LEVEL PRESSURE:29.15 TIME OF OCCURRENCE:2354 PEAK WIND SPEED (MPH):40  PEAK WIND DIR (DEG):300 PEAK WIND TIME (LST):2019  FASTEST 2MIN SPEED (MPH):28 FASTEST 2MIN DIR (DEG):310 FASTEST 2MIN TIME (LST):2220 AVERAGE WIND SPEED (MPH):14.3 24 HR AVG TEMP (F):25 HEATING DEGREE DAYS:40  COOLING DEGREE DAYS:0   LATEST DAY MAX TEMP (0700-1900 LST):28  LATEST NIGHT MIN TEMP(1900-0800 LST):25 HOURLY INCREMENTAL PRECIPITATION VALUES (IN):.01 0.01 0.01 T    T    T    0.01 T    0.01 0.01 0.01 0.01 T    T    0.01 T    0.02 T    T    T    T    T    T    0.01EQDR01     N7GJS072R02     N7GKS075
0318725088547332010010305047+42584-070918FM-16+0033KBVY V0202905N00885003965MN0016095N5-00605-00805999999ADDAA101000021AU110030015AU200001015AW1105AW2715GA1045+001525999GA2075+003965999GA3085+006105999GD12991+0015259GD23991+0039659GD34991+0061059GF108991999999999999999999MA1098755098365MW1101MW2711OC101185REMMET10701/03/10 00:04:02 SPECI KBVY 030504Z 29017G23KT 1SM -SN BR SCT005 BKN013 OVC020 M06/M08 A2916 RMK AO2 P0000
0320725088547332010010305187+42584-070918FM-16+0033KBVY V0202905N00725001525MN0012075N5-00705-00805999999ADDAA101000021AU110030015AU200001015AW1105AW2715GA1075+001525999GA2075+004885999GA3085+006715999GD13991+0015259GD23991+0048859GD34991+0067159GF108991999999999999999999MA1098755098365MW1101MW2711OC101185REMMET10901/03/10 00:18:02 SPECI KBVY 030518Z 29014G23KT 3/4SM -SN BR BKN005 BKN016 OVC022 M07/M08 A2916 RMK AO2 P0000
0262725088547332010010305387+42584-070918FM-16+0033KBVY V0202905N00725000915WN0008055N5-00705-00905999999ADDAA101000021AU120030015AU208002015AW1355AW2725GA1095+000915999GD15991+0009159GF109991999999000251999999MA1098685098295MW1491MW2731OC101395REMMET11301/03/10 00:38:02 SPECI KBVY 030538Z 29014G27KT 1/2SM SN FZFG VV003 M07/M09 A2914 RMK AO2 PK WND 29027/0529 P0000
0373725088547332010010305537+42584-070918FM-15+0033KBVY V0202905N00825000915WN0008055N5-00725-00895098665ADDAA101000025AA206000391AU120030015AU208002015AW1355AW2725GA1095+000915999GD15991+0009159GF109991999999000251999999KA1999M-00391KA2999N-00721MA1098685098295MD1640314+9999MW1491MW2731OC101295REMMET15401/03/10 00:53:02 METAR KBVY 030553Z 29016G25KT 1/2SM SN FZFG VV003 M07/M09 A2914 RMK AO2 PK WND 29027/0529 SLP866 P0000 60001 T10721089 11039 21072 56031EQDQ01  00038PRCP06
0259725088547332010010306457+42584-070918FM-16+0033KBVY V0202905N00825001525WN0016095N5-00805-01005999999ADDAA101000021AU110030015AU200001015AW1105AW2715GA1095+001525999GD15991+0015259GF109991999999000251999999MA1098655098265MW1101MW2711OC101445REMMET11001/03/10 01:45:02 SPECI KBVY 030645Z 29016G28KT 1SM -SN BR VV005 M08/M10 A2913 RMK AO2 PK WND 28028/0641 P0000
0276725088547332010010306537+42584-070918FM-15+0033KBVY V0202905N00825001835WN0016095N5-00785-01005098615ADDAA101000025AU110030015AU200001015AW1105AW2715GA1095+001835999GD15991+0018359GF109991999999000251999999MA1098655098265MW1101MW2711OC101445REMMET12701/03/10 01:53:02 METAR KBVY 030653Z 29016G28KT 1SM -SN BR VV006 M08/M10 A2913 RMK AO2 PK WND 28028/0649 SLP861 P0000 T10781100
0261725088547332010010307287+42584-070918FM-16+0033KBVY V0202905N00935001525WN0012075N5-00805-01005999999ADDAA101000021AU110030015AU200001015AW1105AW2715GA1095+001525999GD15991+0015259GF109991999999000251999999MA1098615098225MW1101MW2711OC101345REMMET11201/03/10 02:28:02 SPECI KBVY 030728Z 29018G26KT 3/4SM -SN BR VV005 M08/M10 A2912 RMK AO2 PK WND 28028/0713 P0000
0261725088547332010010307467+42584-070918FM-16+0033KBVY V0202905N00775001225WN0012075N5-00805-01005999999ADDAA101000021AU110030015AU200001015AW1105AW2715GA1095+001225999GD15991+0012259GF109991999999000251999999MA1098585098195MW1101MW2711OC101295REMMET11201/03/10 02:46:02 SPECI KBVY 030746Z 29015G25KT 3/4SM -SN BR VV004 M08/M10 A2911 RMK AO2 PK WND 28028/0713 P0000
0279725088547332010010307537+42584-070918FM-15+0033KBVY V0202905N00825000915WN0008055N5-00785-01005098565ADDAA101000025AU120030015AU208002015AW1355AW2725GA1095+000915999GD15991+0009159GF109991999999000251999999MA1098585098195MW1491MW2731OC101295REMMET13001/03/10 02:53:02 METAR KBVY 030753Z 29016G25KT 1/2SM SN FZFG VV003 M08/M10 A2911 RMK AO2 PK WND 28028/0713 SLP856 P0000 T10781100
0259725088547332010010308277+42584-070918FM-16+0033KBVY V0202905N00885001525WN0016095N5-00805-01005999999ADDAA101000021AU110030015AU200001015AW1105AW2715GA1095+001525999GD15991+0015259GF109991999999000251999999MA1098545098165MW1101MW2711OC101345REMMET11001/03/10 03:27:02 SPECI KBVY 030827Z 29017G26KT 1SM -SN BR VV005 M08/M10 A2910 RMK AO2 PK WND 29029/0809 P0000
0332725088547332010010308537+42584-070918FM-15+0033KBVY V0202805N00935002445WN0016095N5-00835-01065098475ADDAA101000025AA203000021AU110030015AU200001015AW1105AW2715GA1095+002445999GD15991+0024459GF109991999999000251999999MA1098485098095MD1840194+9999MW1101MW2711OC101345REMMET13901/03/10 03:53:02 METAR KBVY 030853Z 28018G26KT 1SM -SN BR VV008 M08/M11 A2908 RMK AO2 PK WND 29029/0809 SLP847 P0000 60000 T10831106 58019EQDQ01  00008PRCP03
0261725088547332010010309197+42584-070918FM-16+0033KBVY V0202905N00825001835WN0012075N5-00805-01105999999ADDAA101000021AU110030015AU200001015AW1105AW2715GA1095+001835999GD15991+0018359GF109991999999000251999999MA1098485098095MW1101MW2711OC101345REMMET11201/03/10 04:19:02 SPECI KBVY 030919Z 29016G26KT 3/4SM -SN BR VV006 M08/M11 A2908 RMK AO2 PK WND 28027/0859 P0000
0262725088547332010010309347+42584-070918FM-16+0033KBVY V0202905N00825001225WN0008055N5-00805-01105999999ADDAA101000021AU120030015AU208002015AW1355AW2725GA1095+001225999GD15991+0012259GF109991999999000251999999MA1098485098095MW1491MW2731OC101295REMMET11301/03/10 04:34:02 SPECI KBVY 030934Z 29016G25KT 1/2SM SN FZFG VV004 M08/M11 A2908 RMK AO2 PK WND 28027/0859 P0000
0279725088547332010010309537+42584-070918FM-15+0033KBVY V0202905N00725000915WN0008055N5-00835-01065098435ADDAA101000025AU120030015AU208002015AW1355AW2725GA1095+000915999GD15991+0009159GF109991999999000251999999MA1098445098065MW1491MW2731OC101345REMMET13001/03/10 04:53:02 METAR KBVY 030953Z 29014G26KT 1/2SM SN FZFG VV003 M08/M11 A2907 RMK AO2 PK WND 29028/0943 SLP843 P0000 T10831106
0259725088547332010010310367+42584-070918FM-16+0033KBVY V0202905N00885001525WN0016095N5-00805-01105999999ADDAA101000021AU110030015AU200001015AW1105AW2715GA1095+001525999GD15991+0015259GF109991999999000251999999MA1098445098065MW1101MW2711OC101185REMMET11001/03/10 05:36:02 SPECI KBVY 031036Z 29017G23KT 1SM -SN BR VV005 M08/M11 A2907 RMK AO2 PK WND 29028/0956 P0000
0276725088547332010010310537+42584-070918FM-15+0033KBVY V0202905N00675002445WN0016095N5-00835-01065098435ADDAA101000025AU110030015AU200001015AW1105AW2715GA1095+002445999GD15991+0024459GF109991999999000251999999MA1098445098065MW1101MW2711OC101085REMMET12701/03/10 05:53:02 METAR KBVY 031053Z 29013G21KT 1SM -SN BR VV008 M08/M11 A2907 RMK AO2 PK WND 29028/0956 SLP843 P0000 T10831106
0261725088547332010010311067+42584-070918FM-16+0033KBVY V0202905N00625002135WN0012075N5-00805-01105999999ADDAA101000021AU110030015AU200001015AW1105AW2715GA1095+002135999GD15991+0021359GF109991999999000251999999MA1098445098065MW1101MW2711OC101445REMMET11201/03/10 06:06:02 SPECI KBVY 031106Z 29012G28KT 3/4SM -SN BR VV007 M08/M11 A2907 RMK AO2 PK WND 29028/1058 P0000
0259725088547332010010311516+42584-070918FM-16+0033KBVY V0203005N00725002135MN0016095N5-00805-01105999999ADDAU110030015AU200001015AW1105AW2715GA1075+002135999GA2085+011895999GD13991+0021359GD24991+0118959MA1098485098095OC101085REMMET12801/03/10 06:51:02 SPECI KBVY 031151Z 30014G21KT 1SM -SN BR BKN007 OVC039 M08/M11 A2908 RMK AO2 PK WND 29028/1058 P0001 FIBI (DB)
0447725088547332010010311537+42584-070918FM-15+0033KBVY V0203005N00725002135MN0016095N5-00835-01065098465ADDAA101000395AA206000391AA324002391AU110030015AU200001015AW1105AW2715GA1075+002135999GA2085+011895999GD13991+0021359GD24991+0118959GF108991999999999999999999KA1999M-00721KA2999N-00891MA1098485098095MD1540014+9999MW1101MW2711OC101085REMMET17001/03/10 06:53:02 METAR KBVY 031153Z 30014G21KT 1SM -SN BR BKN007 OVC039 M08/M11 A2908 RMK AO2 PK WND 29028/1058 SLP846 P0001 60001 70009 T10831106 11072 21089 55001 (DB)EQDQ01  00038PRCP06Q02  00238PRCP24
0306725088547332010010312287+42584-070918FM-16+0033KBVY V0203005N00775002135MN0008055N5-00805-01105999999ADDAA101000021AU120030015AU208002015AW1355AW2725GA1075+002135999GA2085+005795999GD13991+0021359GD24991+0057959GF108991999999999999999999MA1098515098125MW1481MW2731OC101035REMMET12601/03/10 07:28:02 SPECI KBVY 031228Z 30015G20KT 1/2SM SN FZFG BKN007 OVC019 M08/M11 A2909 RMK AO2 PK WND 28026/1155 P0000 (DB)
0334725088547332010010312537+42584-070918FM-15+0033KBVY V0203105N00675010675MN0012075N5-00785-01065098515ADDAA101000025AU110030015AW1715GA1025+002745999GA2045+005495999GA3085+010675999GD11991+0027459GD22991+0054959GD34991+0106759GF108991999999999999999999MA1098545098165MW1711OC101245REMMET14601/03/10 07:53:02 METAR KBVY 031253Z 31013G24KT 3/4SM -SN FEW009 SCT018 OVC035 M08/M11 A2910 RMK AO2 PK WND 31027/1243 SLP851 P0000 T10781106 (DB)
0326725088547332010010313167+42584-070918FM-16+0033KBVY V0203005N00625005795MN0008055N5-00805-01005999999ADDAA101000021AU120030015AU208002015AW1355AW2725GA1045+002745999GA2075+005795999GA3085+009455999GD12991+0027459GD23991+0057959GD34991+0094559GF108991999999999999999999MA1098545098165MW1481MW2731OC101135REMMET11501/03/10 08:16:02 SPECI KBVY 031316Z 30012G22KT 1/2SM SN FZFG SCT009 BKN019 OVC031 M08/M10 A2910 RMK AO2 P0000 (DB)
0326725088547332010010313277+42584-070918FM-16+0033KBVY V0203005N00775002135MN0008055N5-00805-01005999999ADDAA101000021AU120030015AU208002015AW1355AW2725GA1075+002135999GA2075+005795999GA3085+010065999GD13991+0021359GD23991+0057959GD34991+0100659GF108991999999999999999999MA1098545098165MW1481MW2731OC101295REMMET11501/03/10 08:27:02 SPECI KBVY 031327Z 30015G25KT 1/2SM SN FZFG BKN007 BKN019 OVC033 M08/M10 A2910 RMK AO2 P0000 (DB)
0325725088547332010010313407+42584-070918FM-16+0033KBVY V0203005N00775009455MN0012075N5-00805-01005999999ADDAA101000021AU110030015AU200001015AW1105AW2715GA1045+002135999GA2045+005185999GA3085+009455999GD12991+0021359GD22991+0051859GD34991+0094559GF108991999999999999999999MA1098545098165MW1101MW2711OC101295REMMET11401/03/10 08:40:02 SPECI KBVY 031340Z 30015G25KT 3/4SM -SN BR SCT007 SCT017 OVC031 M08/M10 A2910 RMK AO2 P0000 (DB)
0323725088547332010010313437+42584-070918FM-16+0033KBVY V0203005N00675008845MN0016095N5-00805-01005999999ADDAA101000021AU110030015AU200001015AW1105AW2715GA1045+002135999GA2045+005185999GA3085+008845999GD12991+0021359GD22991+0051859GD34991+0088459GF108991999999999999999999MA1098545098165MW1101MW2711OC101135REMMET11201/03/10 08:43:02 SPECI KBVY 031343Z 30013G22KT 1SM -SN BR SCT007 SCT017 OVC029 M08/M10 A2910 RMK AO2 P0000 (DB)
0276725088547332010010313537+42584-070918FM-15+0033KBVY V0203005N00675008845MN0032195N5-00725-01005098535ADDAA101000025AU110030015AW1715GA1025+002135999GA2085+008845999GD11991+0021359GD24991+0088459GF108991999999999999999999MA1098545098165MW1711OC100935REMMET11901/03/10 08:53:02 METAR KBVY 031353Z 30013G18KT 2SM -SN FEW007 OVC029 M07/M10 A2910 RMK AO2 SLP853 P0000 T10721100 (DB)
0263725088547332010010314047+42584-070918FM-16+0033KBVY V0203105N00775008845MN0020125N5-00705-01005999999ADDAA101000021AU110030015AW1715GA1025+003355999GA2085+008845999GD11991+0033559GD24991+0088459GF108991999999999999999999MA1098545098165MW1711OC101245REMMET10601/03/10 09:04:02 SPECI KBVY 031404Z 31015G24KT 1 1/4SM -SN FEW011 OVC029 M07/M10 A2910 RMK AO2 P0000 (DB)
0261725088547332010010314147+42584-070918FM-16+0033KBVY V0203005N00725002745MN0012075N5-00705-01005999999ADDAA101000021AU110030015AW1715GA1075+002745999GA2085+008235999GD13991+0027459GD24991+0082359GF108991999999999999999999MA1098585098195MW1711OC101085REMMET10401/03/10 09:14:02 SPECI KBVY 031414Z 30014G21KT 3/4SM -SN BKN009 OVC027 M07/M10 A2911 RMK AO2 P0000 (DB)
0322725088547332010010314537+42584-070918FM-15+0033KBVY V0203105N00725001835WN0008055N5-00725-00945098595ADDAA101000025AA203000021AU120030015AU208002015AW1355AW2725GA1095+001835999GD15991+0018359GF109991999999000251999999MA1098615098225MD1340134+9999MW1491MW2731OC101035REMMET12901/03/10 09:53:02 METAR KBVY 031453Z 31014G20KT 1/2SM SN FZFG VV006 M07/M09 A2912 RMK AO2 SLP859 P0000 60000 T10721094 53013 (DB)EQDQ01  00008PRCP03
0285725088547332010010315287+42584-070918FM-16+0033KBVY V0203105N00725006715MN0016095N5-00705-00905999999ADDAA101000391AU110030015AU200001015AW1105AW2715GA1045+002745999GA2085+006715999GD12991+0027459GD24991+0067159GF108991999999999999999999MA1098615098225MW1101MW2711OC101185REMMET10501/03/10 10:28:02 SPECI KBVY 031528Z 31014G23KT 1SM -SN BR SCT009 OVC022 M07/M09 A2912 RMK AO2 P0001 (DB)
0225725088547332010010315516+42584-070918FM-16+0033KBVY V0203105N00625006715MN0040235N5-00605-00905999999ADDAU110030015AW1715GA1025+003665999GA2085+006715999GD11991+0036659GD24991+0067159MA1098585098195OC100985REMMET11101/03/10 10:51:02 SPECI KBVY 031551Z 31012G19KT 2 1/2SM -SN FEW012 OVC022 M06/M09 A2911 RMK AO2 P0001 FIBI (DB)
0268725088547332010010315537+42584-070918FM-15+0033KBVY V0203005N00825006715MN0040235N5-00615-00835098575ADDAA101000395AU110030015AU200001015AW1105AW2715GA1085+006715999GD14991+0067159GF108991999999999999999999MA1098585098195MW1101MW2711OC101085REMMET11901/03/10 10:53:02 METAR KBVY 031553Z 30016G21KT 2 1/2SM -SN BR OVC022 M06/M08 A2911 RMK AO2 SLP857 P0001 T10611083 (DB)
0221725088547332010010316087+42584-070918FM-16+0033KBVY V0203005N00675006105MN0064375N5-00605-00805999999ADDAA101000021AU110030015AW1715GA1085+006105999GD14991+0061059GF108991999999999999999999MA1098585098195MW1711OC100985REMMET09501/03/10 11:08:02 SPECI KBVY 031608Z 30013G19KT 4SM -SN OVC020 M06/M08 A2911 RMK AO2 P0000 (DB)
0226725088547332010010316537+42584-070918FM-15+0033KBVY V0203005N00725006715MN0160935N5-00395-00835098535ADDAA101000025GA1085+006715999GD14991+0067159GF108991999999999999999999MA1098545098165OC101085REMMET12301/03/10 11:53:02 METAR KBVY 031653Z 30014G21KT 10SM OVC022 M04/M08 A2910 RMK AO2 UPB23E28SNE23 SLP853 P0000 T10391083 (DB)
0281725088547332010010317537+42584-070918FM-15+0033KBVY V0203105N00675007925MN0160935N5-00175-00725098555ADDAA101000095AA206000391GA1085+007925999GD14991+0079259GF108991999999999999999999KA1999M-00171KA2999N-00831MA1098585098195MD1540054+9999OC100985REMMET12701/03/10 12:53:02 METAR KBVY 031753Z 31013G19KT 10SM OVC026 M02/M07 A2911 RMK AO2 SLP855 60001 T10171072 11017 21083 55005 (DB)
0233725088547332010010318247+42584-070918FM-16+0033KBVY V0203305N009852200059N0128755N5-00105-00705999999ADDGA1045+007925999GA2045+018295999GD12991+0079259GD22991+0182959GF104991999999999999999999MA1098615098225OC101495REMMET11001/03/10 13:24:02 SPECI KBVY 031824Z 33019G29KT 8SM SCT026 SCT060 M01/M07 A2912 RMK AO2 PK WND 32029/1821 (DB)
0190725088547332010010318537+42584-070918FM-15+0033KBVY V0203205N009852200059N0160935N5-00225-00725098675ADDAA101000095GF100991999999999999999999MA1098685098295OC101495REMMET11801/03/10 13:53:02 METAR KBVY 031853Z 32019G29KT 10SM CLR M02/M07 A2914 RMK AO2 PK WND 32029/1847 SLP867 T10221072 (DB)
0257725088547332010010319097+42584-070918FM-16+0033KBVY V0203205N00885007325MN0040235N5-00305-00705999999ADDAA101000021AU110030015AW1715GA1075+007325999GD13991+0073259GF107991999999999999999999MA1098715098335MW1711OC101495REMMET13101/03/10 14:09:02 SPECI KBVY 031909Z 32017G29KT 2 1/2SM -SN BKN024 M03/M07 A2915 RMK AO2 PK WND 33029/1903 UPB00E04SNB04 P0000 (DB)
0267725088547332010010319207+42584-070918FM-16+0033KBVY V0203305N00935007325MN0128755N5-00305-00705999999ADDAA101000021GA1075+007325999GA2085+008845999GD13991+0073259GD24991+0088459GF108991999999999999999999MA1098755098365OC101295REMMET13301/03/10 14:20:02 SPECI KBVY 031920Z 33018G25KT 8SM BKN024 OVC029 M03/M07 A2916 RMK AO2 PK WND 33029/1903 UPB00E04SNB04E20 P0000 (DB)
0247725088547332010010319537+42584-070918FM-15+0033KBVY V0203105N00675007325MN0160935N5-00335-00675098785ADDAA101000025GA1085+007325999GD14991+0073259GF108991999999999999999999MA1098815098435OC101085REMMET14401/03/10 14:53:02 METAR KBVY 031953Z 31013G21KT 10SM OVC024 M03/M07 A2918 RMK AO2 PK WND 33029/1903 UPB00E04SNB04E36 SLP878 P0000 T10331067 (DB)
0294725088547332010010320537+42584-070918FM-15+0033KBVY V0203105N00625007325MN0048285N5-00285-00675098885ADDAA101000025AA203000021AU110030015AW1715GA1085+007325999GD14991+0073259GF108991999999999999999999MA1098925098535MD1140334+9999OC100885REMMET13001/03/10 15:53:02 METAR KBVY 032053Z 31012G17KT 3SM -SN OVC024 M03/M07 A2921 RMK AO2 SNB32 SLP888 P0000 60000 T10281067 51033 TSNOEQDQ01  00008PRCP03
0217725088547332010010321537+42584-070918FM-15+0033KBVY V0203105N00675006405MN0144845N5-00225-00565098955ADDAA101000025GA1085+006405999GD14991+0064059GF108991999999999999999999MA1098985098605OC100935REMMET11401/03/10 16:53:02 METAR KBVY 032153Z 31013G18KT 9SM OVC021 M02/M06 A2923 RMK AO2 SNE14 SLP895 P0000 T10221056 TSNO
0283725088547332010010322537+42584-070918FM-15+0033KBVY V0203105N00575007015MN0160935N5-00225-00565099035ADDAA101000025AU110030015AW1715GA1075+007015999GA2085+008845999GD13991+0070159GD24991+0088459GF108991999999999999999999MA1099055098665OC100985REMMET13201/03/10 17:53:02 METAR KBVY 032253Z 31011G19KT 10SM -SN BKN023 OVC029 M02/M06 A2925 RMK AO2 SNB08E18B51 SLP903 P0000 T10221056 TSNO
0411725088547332010010323537+42584-070918FM-15+0033KBVY V0203105N00625006405MN0096565N5-00175-00565099085ADDAA101000025AA206000021AU110030015AW1715GA1075+006405999GA2075+008535999GA3085+010975999GD13991+0064059GD23991+0085359GD34991+0109759GF108991999999999999999999KA1999M-00111KA2999N-00331MA1099125098735MD1140204+9999OC101185REMMET15901/03/10 18:53:02 METAR KBVY 032353Z 31012G23KT 6SM -SN BKN021 BKN028 OVC036 M02/M06 A2927 RMK AO2 SNE19B36 SLP908 P0000 60000 T10171056 11011 21033 51020 TSNOEQDQ01  00008PRCP06
0291725088547332010010400177+42584-070918FM-16+0033KBVY V0203205N00675012195MN0144845N5-00205-00505999999ADDAA101000021AU110030015AW1715GA1025+006405999GA2075+012195999GA3085+014335999GD11991+0064059GD23991+0121959GD34991+0143359GF108991999999999999999999MA1099155098765OC101085REMMET10901/03/10 19:17:02 SPECI KBVY 040017Z 32013G21KT 9SM -SN FEW021 BKN040 OVC047 M02/M05 A2928 RMK AO2 P0000 TSNO
0297725088547332010010400537+42584-070918FM-15+0033KBVY V0203105N00575009145MN0096565N5-00175-00505099165ADDAA101000025AU110030015AW1715GA1045+006715999GA2075+009145999GA3085+011895999GD12991+0067159GD23991+0091459GD34991+0118959GF108991999999999999999999MA1099195098805REMMET12301/03/10 19:53:02 METAR KBVY 040053Z 31011KT 6SM -SN SCT022 BKN030 OVC039 M02/M05 A2929 RMK AO2 SLP916 P0000 T10171050 TSNO
0282725088547332010010401537+42584-070918FM-15+0033KBVY V0203105N00725011285MN0144845N5-00175-00615099215ADDAA101000025AU110030015AW1715GA1075+011285999GA2085+014635999GD13991+0112859GD24991+0146359GF108991999999999999999999MA1099225098835MW1711OC101085REMMET12501/03/10 20:53:02 METAR KBVY 040153Z 31014G21KT 9SM -SN BKN037 OVC048 M02/M06 A2930 RMK AO2 SNE0059B52 SLP921 P0000 T10171061
0258725088547332010010402067+42584-070918FM-16+0033KBVY V0203105N00725006715MN0040235N5-00205-00605999999ADDAA101000021AU110030015AW1715GA1075+006715999GA2085+011895999GD13991+0067159GD24991+0118959GF108991999999999999999999MA1099265098875MW1711OC101085REMMET10101/03/10 21:06:02 SPECI KBVY 040206Z 31014G21KT 2 1/2SM -SN BKN022 OVC039 M02/M06 A2931 RMK AO2 P0000
0205725088547332010010402187+42584-070918FM-16+0033KBVY V0203105N00575005495MN0048285N5-00205-00505999999ADDAA101000021AU110030015AW1715GA1085+005495999GD14991+0054959GF108991999999999999999999MA1099265098875MW1711REMMET08701/03/10 21:18:02 SPECI KBVY 040218Z 31011KT 3SM -SN OVC018 M02/M05 A2931 RMK AO2 P0000
0271725088547332010010402457+42584-070918FM-16+0033KBVY V0203105N00675011585MN0128755N5-00205-00505999999ADDAA101000021GA1075+011585999GA2075+018295999GA3085+024385999GD13991+0115859GD23991+0182959GD34991+0243859GF108991999999999999999999MA1099295098905OC100985REMMET10601/03/10 21:45:02 SPECI KBVY 040245Z 31013G19KT 8SM BKN038 BKN060 OVC080 M02/M05 A2932 RMK AO2 SNE41 P0000
0296725088547332010010402537+42584-070918FM-15+0033KBVY V0203105N00625010975MN0160935N5-00175-00565099265ADDAA101000025AA203000021GA1075+010975999GA2085+024385999GD13991+0109759GD24991+0243859GF108991999999999999999999MA1099295098905MD1140184+9999REMMET12601/03/10 21:53:02 METAR KBVY 040253Z 31012KT 10SM BKN036 OVC080 M02/M06 A2932 RMK AO2 SNE41 SLP926 P0000 60000 T10171056 51018EQDQ01  00008PRCP03
0211725088547332010010403177+42584-070918FM-16+0033KBVY V0203105N00625007625MN0080475N5-00205-00505999999ADDAA101000021AU110030015AW1715GA1085+007625999GD14991+0076259GF108991999999999999999999MA1099325098935MW1711REMMET09301/03/10 22:17:02 SPECI KBVY 040317Z 31012KT 5SM -SN OVC025 M02/M05 A2933 RMK AO2 SNB02 P0000
0199725088547332010010403387+42584-070918FM-16+0033KBVY V0203005N00625011895MN0160935N5-00205-00605999999ADDAA101000021GA1075+011895999GD13991+0118959GF107991999999999999999999MA1099325098935OC100985REMMET09601/03/10 22:38:02 SPECI KBVY 040338Z 30012G19KT 10SM BKN039 M02/M06 A2933 RMK AO2 SNB02E29 P0000
0292725088547332010010403537+42584-070918FM-15+0033KBVY V0203105N00675021345MN0160935N5-00175-00615099295ADDAA101000025GA1025+010975999GA2075+021345999GA3085+030485999GD11991+0109759GD23991+0213459GD34991+0304859GF108991999999999999999999MA1099325098935OC100985REMMET12701/03/10 22:53:01 METAR KBVY 040353Z 31013G19KT 10SM FEW036 BKN070 OVC100 M02/M06 A2933 RMK AO2 SNB02E29 SLP929 P0000 T10171061
0249725088547332010010404537+42584-070918FM-15+0033KBVY V0203105N00675013725MN0160935N5-00115-00615099325ADDAA101000095GA1075+013725999GA2085+024385999GD13991+0137259GD24991+0243859GF108991999999999999999999MA1099365098975OC101085REMMET11501/03/10 23:53:02 METAR KBVY 040453Z 31013G21KT 10SM BKN045 OVC080 M01/M06 A2934 RMK AO2 SLP932 T10111061 410111089
0955725088547332010010404596+42584-070918SOD  +0033KBVY V020999999999999999999999999999+99999+99999999999ADDAA124000595AX1016246AX2086246KA1240M-00105KA2240N-00885MG1098314098414OE11240147533014035OE22240116233013485OE33240070699999995REMSOD74924 HR PRECIPITATION (IN):0.02  WEATHER(CODE):1,8  24 HR MAX TEMP (F):30 24 HR MAX TEMP TIME (LST):2359 24 HR MIN TEMP (F):16 24 HR MIN TEMP TIME (LST):0635 AVERAGE STATION PRESSURE:29.030 MINIMUM SEA LEVEL PRESSURE:29.06 TIME OF OCCURRENCE:0550 PEAK WIND SPEED (MPH):33  PEAK WIND DIR (DEG):330 PEAK WIND TIME (LST):1403  FASTEST 2MIN SPEED (MPH):26 FASTEST 2MIN DIR (DEG):330 FASTEST 2MIN TIME (LST):1348 AVERAGE WIND SPEED (MPH):15.8 24 HR AVG TEMP (F):23 HEATING DEGREE DAYS:42  COOLING DEGREE DAYS:0   LATEST DAY MAX TEMP (0700-1900 LST):30  LATEST NIGHT MIN TEMP(1900-0800 LST):16 HOURLY INCREMENTAL PRECIPITATION VALUES (IN):    T    T    T    T    T    0.01 T    T    T    0.01 T    0.00 0.00 T    T    T    T    T    T    T    T    T    0.00EQDR01   1,87AXW093R02   1,87AXW093R03     N7GJS072R04     N7GKS075
0276725088547332010010405537+42584-070918FM-15+0033KBVY V0203105N00625016765MN0160935N5-00115-00565099375ADDAA101000095AA206000021GA1085+016765999GD14991+0167659GF108991999999999999999999KA1999M-00111KA2999N-00221MA1099395099005MD1340124+9999OC101085REMMET12201/04/10 00:53:02 METAR KBVY 040553Z 31012G21KT 10SM OVC055 M01/M06 A2935 RMK AO2 SLP937 60000 T10111056 11011 21022 53012
0201725088547332010010406537+42584-070918FM-15+0033KBVY V0203105N00675016765MN0160935N5-00065-00505099445ADDAA101000095GA1085+016765999GD14991+0167659GF108991999999999999999999MA1099465099075OC100985REMMET09801/04/10 01:53:02 METAR KBVY 040653Z 31013G19KT 10SM OVC055 M01/M05 A2937 RMK AO2 SLP944 T10061050
0190725088547332010010407537+42584-070918FM-15+0033KBVY V0203105N00575021345MN0160935N5-00065-00505099495ADDAA101000095GA1085+021345999GD14991+0213459GF108991999999999999999999MA1099535099145REMMET09501/04/10 02:53:02 METAR KBVY 040753Z 31011KT 10SM OVC070 M01/M05 A2939 RMK AO2 SLP949 T10061050
0178725088547332010010408537+42584-070918FM-15+0033KBVY V02099999999992200059N0160935N5-00115-00565099535ADDAA101000095GF100991999999999999999999MA1099565099175MD1140164+9999REMMET10001/04/10 03:53:02 METAR KBVY 040853Z      KT 10SM CLR M01/M06 A2940 RMK AO2 SLP953 T10111056 51016 $
0169725088547332010010409537+42584-070918FM-15+0033KBVY V0203005N004652200059N0160935N5-00115-00565099535ADDAA101000095GF100991999999999999999999MA1099565099175OC100885REMMET09701/04/10 04:53:02 METAR KBVY 040953Z 30009G17KT 10SM CLR M01/M06 A2940 RMK AO2 SLP953 T10111056 $
0158725088547332010010410537+42584-070918FM-15+0033KBVY V0203105N006752200059N0160935N5-00175-00615099615ADDAA101000095GF100991999999999999999999MA1099635099245REMMET09401/04/10 05:53:02 METAR KBVY 041053Z 31013KT 10SM CLR M02/M06 A2942 RMK AO2 SLP961 T10171061 $
0267725088547332010010411537+42584-070918FM-15+0033KBVY V0203005N006752200059N0160935N5-00175-00615099645ADDAA101000095AA224000391GF100991999999999999999999KA1999M-00061KA2999N-00171MA1099665099275MD1340114+9999OC101035REMMET14401/04/10 06:53:02 METAR KBVY 041153Z 30013G20KT 10SM CLR M02/M06 A2943 RMK AO2 PK WND 31027/1118 SLP964 70001 T10171061 11006 21017 53011 $ (SS)
0172725088547332010010412537+42584-070918FM-15+0033KBVY V0203005N005752200059N0160935N5-00225-00675099685ADDAA101000095GF100991999999999999999999MA1099735099345OC100885REMMET10001/04/10 07:53:02 METAR KBVY 041253Z 30011G17KT 10SM CLR M02/M07 A2945 RMK AO2 SLP968 T10221067 (SS)
0172725088547332010010413537+42584-070918FM-15+0033KBVY V0203105N007752200059N0160935N5-00175-00675099755ADDAA101000095GF100991999999999999999999MA1099805099415OC101085REMMET10001/04/10 08:53:02 METAR KBVY 041353Z 31015G21KT 10SM CLR M02/M07 A2947 RMK AO2 SLP975 T10171067 (SS)
0192725088547332010010414537+42584-070918FM-15+0033KBVY V0203105N006252200059N0160935N5-00065-00725099825ADDAA101000095GF100991999999999999999999MA1099865099475MD1340184+9999OC101085REMMET10601/04/10 09:53:02 METAR KBVY 041453Z 31012G21KT 10SM CLR M01/M07 A2949 RMK AO2 SLP982 T10061072 53018 (SS)
0211725088547332010010415537+42584-070918FM-15+0033KBVY V0203105N007252200059N0160935N5+00005-00725099835ADDAA101000395GA1025+015245999GD11991+0152459GF102991999999999999999999MA1099865099475OC100985REMMET10801/04/10 10:53:02 METAR KBVY 041553Z 31014G19KT 10SM FEW050 00/M07 A2949 RMK AO2 SLP983 P0001 T00001072 (SS)
0205725088547332010010416537+42584-070918FM-15+0033KBVY V0203005N006252200059N0160935N5+00065-00725099815ADDAA101000095GA1045+018295999GD12991+0182959GF104991999999999999999999MA1099835099445OC101085REMMET10201/04/10 11:53:02 METAR KBVY 041653Z 30012G21KT 10SM SCT060 01/M07 A2948 RMK AO2 SLP981 T00061072 (SS)
0307725088547332010010417537+42584-070918FM-15+0033KBVY V0203005N00515015245MN0160935N5+00115-00675099785ADDAA101000095AA206000391GA1075+015245999GA2085+021345999GD13991+0152459GD24991+0213459GF108991999999999999999999KA1999M+00111KA2999N-00221MA1099805099415MD1840044+9999REMMET13001/04/10 12:53:02 METAR KBVY 041753Z 30010KT 10SM BKN050 OVC070 01/M07 A2947 RMK AO2 SLP978 60001 T00111067 10011 21022 58004 (SS)
0205725088547332010010418537+42584-070918FM-15+0033KBVY V0203105N00675013725MN0160935N5+00115-00675099825ADDAA101000095GA1085+013725999GD14991+0137259GF108991999999999999999999MA1099865099475OC100935REMMET10201/04/10 13:53:02 METAR KBVY 041853Z 31013G18KT 10SM OVC045 01/M07 A2949 RMK AO2 SLP982 T00111067 (SS)
0194725088547332010010419537+42584-070918FM-15+0033KBVY V0203105N00575014945MN0160935N5+00065-00675099885ADDAA101000095GA1085+014945999GD14991+0149459GF108991999999999999999999MA1099905099515REMMET09901/04/10 14:53:02 METAR KBVY 041953Z 31011KT 10SM OVC049 01/M07 A2950 RMK AO2 SLP988 T00061067 (SS)
0226725088547332010010420537+42584-070918FM-15+0033KBVY V0203105N00675013725MN0160935N5-00065-00675099945ADDAA101000095GA1085+013725999GD14991+0137259GF108991999999999999999999MA1099975099575MD1340164+9999OC101035REMMET10901/04/10 15:53:02 METAR KBVY 042053Z 31013G20KT 10SM OVC045 M01/M07 A2952 RMK AO2 SLP994 T10061067 53016 TSNO
0195725088547332010010421537+42584-070918FM-15+0033KBVY V0203005N00415013725MN0160935N5-00065-00615100005ADDAA101000095GA1085+013725999GD14991+0137259GF108991999999999999999999MA1100035099645REMMET10001/04/10 16:53:02 METAR KBVY 042153Z 30008KT 10SM OVC045 M01/M06 A2954 RMK AO2 SLP000 T10061061 TSNO
0195725088547332010010422537+42584-070918FM-15+0033KBVY V0203205N00575021345MN0160935N5-00115-00675100015ADDAA101000095GA1085+021345999GD14991+0213459GF108991999999999999999999MA1100035099645REMMET10001/04/10 17:53:02 METAR KBVY 042253Z 32011KT 10SM OVC070 M01/M07 A2954 RMK AO2 SLP001 T10111067 TSNO
0253725088547332010010423537+42584-070918FM-15+0033KBVY V0203205N00415021345MN0160935N5-00115-00785100065ADDAA101000095GA1085+021345999GD14991+0213459GF108991999999999999999999KA1999M+00111KA2999N-00111MA1100105099715MD1340124+9999REMMET11801/04/10 18:53:02 METAR KBVY 042353Z 32008KT 10SM OVC070 M01/M08 A2956 RMK AO2 SLP006 T10111078 10011 21011 53012 TSNO
0190725088547332010010500537+42584-070918FM-15+0033KBVY V0203105N00415021345MN0160935N5-00175-00725100105ADDAA101000095GA1085+021345999GD14991+0213459GF108991999999999999999999MA1100145099745REMMET09501/04/10 19:53:02 METAR KBVY 050053Z 31008KT 10SM OVC070 M02/M07 A2957 RMK AO2 SLP010 T10171072
0266725088547332010010501537+42584-070918FM-15+0033KBVY V0203005N00365011285MN0160935N5-00175-00785100135ADDAA101000095GA1075+011285999GA2075+015245999GA3085+021345999GD13991+0112859GD23991+0152459GD34991+0213459GF108991999999999999999999MA1100175099785REMMET10901/04/10 20:53:02 METAR KBVY 050153Z 30007KT 10SM BKN037 BKN050 OVC070 M02/M08 A2958 RMK AO2 SLP013 T10171078
0286725088547332010010502537+42584-070918FM-15+0033KBVY V0203205N00415010675MN0160935N5-00225-00785100145ADDAA101000095GA1075+010675999GA2075+012805999GA3085+019815999GD13991+0106759GD23991+0128059GD34991+0198159GF108991999999999999999999MA1100175099785MD1140084+9999REMMET11501/04/10 21:53:01 METAR KBVY 050253Z 32008KT 10SM BKN035 BKN042 OVC065 M02/M08 A2958 RMK AO2 SLP014 T10221078 51008
0228725088547332010010503537+42584-070918FM-15+0033KBVY V0203105N00415009455MN0160935N5-00285-00785100155ADDAA101000095GA1045+007015999GA2085+009455999GD12991+0070159GD24991+0094559GF108991999999999999999999MA1100175099785REMMET10201/04/10 22:53:01 METAR KBVY 050353Z 31008KT 10SM SCT023 OVC031 M03/M08 A2958 RMK AO2 SLP015 T10281078
0200725088547332010010504007+42584-070918FM-16+0033KBVY V0203005N00515007015MN0160935N5-00305-00805999999ADDGA1075+007015999GA2085+009455999GD13991+0070159GD24991+0094559GF108991999999999999999999MA1100175099785REMMET08501/04/10 23:00:02 SPECI KBVY 050400Z 30010KT 10SM BKN023 OVC031 M03/M08 A2958 RMK AO2
0200725088547332010010504537+42584-070918FM-15+0033KBVY V0203105N00415008235MN0160935N5-00285-00785100125ADDAA101000095GA1085+008235999GD14991+0082359GF108991999999999999999999MA1100175099785REMMET10501/04/10 23:53:02 METAR KBVY 050453Z 31008KT 10SM OVC027 M03/M08 A2958 RMK AO2 SLP012 T10281078 400111028
0902725088547332010010504596+42584-070918SOD  +0033KBVY V020999999999999999999999999999+99999+99999999999ADDAA124000396KA1240M+00115KA2240N-00275MG1099344099324OE11240138631006185OE22240093931011335OE33240055499999995REMSOD73024 HR PRECIPITATION (IN):0.01  24 HR MAX TEMP (F):34 24 HR MAX TEMP TIME (LST):1356 24 HR MIN TEMP (F):27 24 HR MIN TEMP TIME (LST):2359 AVERAGE STATION PRESSURE:29.335 MINIMUM SEA LEVEL PRESSURE:29.33 TIME OF OCCURRENCE:0008 PEAK WIND SPEED (MPH):31  PEAK WIND DIR (DEG):310 PEAK WIND TIME (LST):0618  FASTEST 2MIN SPEED (MPH):21 FASTEST 2MIN DIR (DEG):310 FASTEST 2MIN TIME (LST):1133 AVERAGE WIND SPEED (MPH):12.4 24 HR AVG TEMP (F):31 HEATING DEGREE DAYS:34  COOLING DEGREE DAYS:0   LATEST DAY MAX TEMP (0700-1900 LST):34  LATEST NIGHT MIN TEMP(1900-0800 LST):28 HOURLY INCREMENTAL PRECIPITATION VALUES (IN):.00 0.00 0.00 0.00 0.00 0.00 0.00 0.00 0.00 0.00 0.01 0.00 0.00 0.00 0.00 0.00 0.00 0.00 0.00 0.00 0.00 0.00 0.00 0.00EQDR01  0.017AAP092R02     N7GJS072R03     N7GKS075
0248725088547332010010505537+42584-070918FM-15+0033KBVY V0203105N00465008235MN0160935N5-00285-00785100105ADDAA101000095GA1085+008235999GD14991+0082359GF108991999999999999999999KA1999M-00111KA2999N-00281MA1100145099745MD1840044+9999REMMET11301/05/10 00:53:02 METAR KBVY 050553Z 31009KT 10SM OVC027 M03/M08 A2957 RMK AO2 SLP010 T10281078 11011 21028 58004
0200725088547332010010506267+42584-070918FM-16+0033KBVY V0203105N00575018295MN0160935N5-00305-00805999999ADDGA1045+009455999GA2085+018295999GD12991+0094559GD24991+0182959GF108991999999999999999999MA1100145099745REMMET08501/05/10 01:26:02 SPECI KBVY 050626Z 31011KT 10SM SCT031 OVC060 M03/M08 A2957 RMK AO2
0190725088547332010010506537+42584-070918FM-15+0033KBVY V0203105N00575018295MN0160935N5-00335-00785100115ADDAA101000095GA1085+018295999GD14991+0182959GF108991999999999999999999MA1100145099745REMMET09501/05/10 01:53:02 METAR KBVY 050653Z 31011KT 10SM OVC060 M03/M08 A2957 RMK AO2 SLP011 T10331078
0190725088547332010010507537+42584-070918FM-15+0033KBVY V0202905N00265016765MN0160935N5-00335-00785100135ADDAA101000095GA1085+016765999GD14991+0167659GF108991999999999999999999MA1100175099785REMMET09501/05/10 02:53:02 METAR KBVY 050753Z 29005KT 10SM OVC055 M03/M08 A2958 RMK AO2 SLP013 T10331078
0228725088547332010010508537+42584-070918FM-15+0033KBVY V0202805N00315015245MN0160935N5-00335-00835100125ADDAA101000095GA1085+015245999GD14991+0152459GF108991999999999999999999MA1100145099745MD1040024+9999REMMET11901/05/10 03:53:02 METAR KBVY 050853Z 28006KT 10SM OVC050 M03/M08 A2957 RMK AO2 PK WND 33050/0835 SLP012 T10331083 50002
0190725088547332010010509537+42584-070918FM-15+0033KBVY V0202905N00265014635MN0160935N5-00335-00835100125ADDAA101000095GA1085+014635999GD14991+0146359GF108991999999999999999999MA1100145099745REMMET09501/05/10 04:53:02 METAR KBVY 050953Z 29005KT 10SM OVC048 M03/M08 A2957 RMK AO2 SLP012 T10331083
0190725088547332010010510537+42584-070918FM-15+0033KBVY V0202905N00265015245MN0160935N5-00335-00895100155ADDAA101000095GA1085+015245999GD14991+0152459GF108991999999999999999999MA1100175099785REMMET09501/05/10 05:53:02 METAR KBVY 051053Z 29005KT 10SM OVC050 M03/M09 A2958 RMK AO2 SLP015 T10331089
0270725088547332010010511537+42584-070918FM-15+0033KBVY V0203005N00315015245MN0160935N5-00335-00895100155ADDAA101000095AA224000391GA1085+015245999GD14991+0152459GF108991999999999999999999KA1999M-00281KA2999N-00331MA1100175099785MD1340034+9999REMMET12401/05/10 06:53:02 METAR KBVY 051153Z 30006KT 10SM OVC050 M03/M09 A2958 RMK AO2 SLP015 70001 T10331089 11028 21033 53003 (DB)
0195725088547332010010512537+42584-070918FM-15+0033KBVY V0203005N00365015245MN0160935N5-00335-00895100175ADDAA101000095GA1085+015245999GD14991+0152459GF108991999999999999999999MA1100205099815REMMET10001/05/10 07:53:02 METAR KBVY 051253Z 30007KT 10SM OVC050 M03/M09 A2959 RMK AO2 SLP017 T10331089 (DB)
0195725088547332010010513537+42584-070918FM-15+0033KBVY V0203205N00365015245MN0160935N5-00335-00895100215ADDAA101000095GA1085+015245999GD14991+0152459GF108991999999999999999999MA1100245099845REMMET10001/05/10 08:53:02 METAR KBVY 051353Z 32007KT 10SM OVC050 M03/M09 A2960 RMK AO2 SLP021 T10331089 (DB)
0215725088547332010010514537+42584-070918FM-15+0033KBVY V0203005N00465015245MN0160935N5-00285-00895100205ADDAA101000095GA1085+015245999GD14991+0152459GF108991999999999999999999MA1100245099845MD1040054+9999REMMET10601/05/10 09:53:02 METAR KBVY 051453Z 30009KT 10SM OVC050 M03/M09 A2960 RMK AO2 SLP020 T10281089 50005 (DB)
0195725088547332010010515537+42584-070918FM-15+0033KBVY V0202905N00365015245MN0160935N5-00225-00895100145ADDAA101000095GA1085+015245999GD14991+0152459GF108991999999999999999999MA1100175099785REMMET10001/05/10 10:53:02 METAR KBVY 051553Z 29007KT 10SM OVC050 M02/M09 A2958 RMK AO2 SLP014 T10221089 (DB)
0195725088547332010010516537+42584-070918FM-15+0033KBVY V0202905N00215015245MN0160935N5-00175-00835100065ADDAA101000095GA1085+015245999GD14991+0152459GF108991999999999999999999MA1100105099715REMMET10001/05/10 11:53:02 METAR KBVY 051653Z 29004KT 10SM OVC050 M02/M08 A2956 RMK AO2 SLP006 T10171083 (DB)
0253725088547332010010517537+42584-070918FM-15+0033KBVY V0202905N00415016765MN0160935N5-00065-00785100005ADDAA101000095GA1085+016765999GD14991+0167659GF108991999999999999999999KA1999M-00061KA2999N-00331MA1100035099645MD1840194+9999REMMET11801/05/10 12:53:02 METAR KBVY 051753Z 29008KT 10SM OVC055 M01/M08 A2954 RMK AO2 SLP000 T10061078 11006 21033 58019 (DB)
0194725088547332010010518537+42584-070918FM-15+0033KBVY V0202805N00315016765MN0160935N5+00005-00785099985ADDAA101000095GA1085+016765999GD14991+0167659GF108991999999999999999999MA1100005099615REMMET09901/05/10 13:53:02 METAR KBVY 051853Z 28006KT 10SM OVC055 00/M08 A2953 RMK AO2 SLP998 T00001078 (DB)
0194725088547332010010519537+42584-070918FM-15+0033KBVY V0203305N00265016765MN0160935N5+00065-00725099995ADDAA101000095GA1085+016765999GD14991+0167659GF108991999999999999999999MA1100035099645REMMET09901/05/10 14:53:02 METAR KBVY 051953Z 33005KT 10SM OVC055 01/M07 A2954 RMK AO2 SLP999 T00061072 (DB)
0214725088547332010010520537+42584-070918FM-15+0033KBVY V0203105N00265015245MN0160935N5+00065-00725100005ADDAA101000095GA1085+015245999GD14991+0152459GF108991999999999999999999MA1100035099645MD1540014+9999REMMET10501/05/10 15:53:02 METAR KBVY 052053Z 31005KT 10SM OVC050 01/M07 A2954 RMK AO2 SLP000 T00061072 55001 TSNO
0194725088547332010010521537+42584-070918FM-15+0033KBVY V0203205N00265015245MN0160935N5+00005-00725099985ADDAA101000095GA1085+015245999GD14991+0152459GF108991999999999999999999MA1100005099615REMMET09901/05/10 16:53:02 METAR KBVY 052153Z 32005KT 10SM OVC050 00/M07 A2953 RMK AO2 SLP998 T00001072 TSNO
0195725088547332010010522537+42584-070918FM-15+0033KBVY V0203005N00365013725MN0160935N5-00065-00675099985ADDAA101000095GA1085+013725999GD14991+0137259GF108991999999999999999999MA1100005099615REMMET10001/05/10 17:53:02 METAR KBVY 052253Z 30007KT 10SM OVC045 M01/M07 A2953 RMK AO2 SLP998 T10061067 TSNO
0253725088547332010010523537+42584-070918FM-15+0033KBVY V0203105N00415012505MN0160935N5-00065-00615100015ADDAA101000095GA1085+012505999GD14991+0125059GF108991999999999999999999KA1999M+00061KA2999N-00061MA1100035099645MD1340014+9999REMMET11801/05/10 18:53:02 METAR KBVY 052353Z 31008KT 10SM OVC041 M01/M06 A2954 RMK AO2 SLP001 T10061061 10006 21006 53001 TSNO
0248725088547332010010600537+42584-070918FM-15+0033KBVY V0203105N00415013115MN0160935N5-00175-00565100045ADDAA101000025GA1075+013115999GA2085+018295999GD13991+0131159GD24991+0182959GF108991999999999999999999MA1100075099685REMMET12201/05/10 19:53:02 METAR KBVY 060053Z 31008KT 10SM BKN043 OVC060 M02/M06 A2955 RMK AO2 SNB01E31 SLP004 P0000 T10171056 TSNO
0228725088547332010010601537+42584-070918FM-15+0033KBVY V0203205N00415014335MN0160935N5-00175-00615100035ADDAA101000095GA1075+014335999GA2085+018295999GD13991+0143359GD24991+0182959GF108991999999999999999999MA1100075099685REMMET10201/05/10 20:53:02 METAR KBVY 060153Z 32008KT 10SM BKN047 OVC060 M02/M06 A2955 RMK AO2 SLP003 T10171061
0200725088547332010010602287+42584-070918FM-16+0033KBVY V0203105N00465008535MN0160935N5-00205-00705999999ADDGA1075+008535999GA2085+013115999GD13991+0085359GD24991+0131159GF108991999999999999999999MA1100075099685REMMET08501/05/10 21:28:02 SPECI KBVY 060228Z 31009KT 10SM BKN028 OVC043 M02/M07 A2955 RMK AO2
0162725088547332010010602487+42584-070918FM-16+0033KBVY V0203105N00415009145MN0160935N5-00205-00705999999ADDGA1085+009145999GD14991+0091459GF108991999999999999999999MA1100075099685REMMET07801/05/10 21:48:02 SPECI KBVY 060248Z 31008KT 10SM OVC030 M02/M07 A2955 RMK AO2
0227725088547332010010602537+42584-070918FM-15+0033KBVY V0203105N00465009145MN0160935N5-00175-00675100055ADDAA101000095AA203000021GA1085+009145999GD14991+0091459GF108991999999999999999999MA1100105099715MD1340024+9999REMMET10701/05/10 21:53:02 METAR KBVY 060253Z 31009KT 10SM OVC030 M02/M07 A2956 RMK AO2 SLP005 60000 T10171067 53002
0173725088547332010010603257+42584-070918FM-16+0033KBVY V0203105N00675008535MN0160935N5-00205-00705999999ADDGA1085+008535999GD14991+0085359GF108991999999999999999999MA1100075099685OC100825REMMET08101/05/10 22:25:02 SPECI KBVY 060325Z 31013G16KT 10SM OVC028 M02/M07 A2955 RMK AO2
0201725088547332010010603537+42584-070918FM-15+0033KBVY V0203305N00625007015MN0160935N5-00225-00675100065ADDAA101000095GA1085+007015999GD14991+0070159GF108991999999999999999999MA1100105099715OC100935REMMET09801/05/10 22:53:01 METAR KBVY 060353Z 33012G18KT 10SM OVC023 M02/M07 A2956 RMK AO2 SLP006 T10221067
0200725088547332010010604537+42584-070918FM-15+0033KBVY V0203205N00465007625MN0160935N5-00225-00725100045ADDAA101000095GA1085+007625999GD14991+0076259GF108991999999999999999999MA1100075099685REMMET10501/05/10 23:53:02 METAR KBVY 060453Z 32009KT 10SM OVC025 M02/M07 A2955 RMK AO2 SLP004 T10221072 400061033
0902725088547332010010604596+42584-070918SOD  +0033KBVY V020999999999999999999999999999+99999+99999999999ADDAA124000025KA1240M+00065KA2240N-00325MG1099704099974OE11240259333003356OE22240076032001155OE33240036799999995REMSOD73024 HR PRECIPITATION (IN):T     24 HR MAX TEMP (F):33 24 HR MAX TEMP TIME (LST):1621 24 HR MIN TEMP (F):26 24 HR MIN TEMP TIME (LST):0943 AVERAGE STATION PRESSURE:29.440 MINIMUM SEA LEVEL PRESSURE:29.52 TIME OF OCCURRENCE:1758 PEAK WIND SPEED (MPH):58  PEAK WIND DIR (DEG):330 PEAK WIND TIME (LST):0335  FASTEST 2MIN SPEED (MPH):17 FASTEST 2MIN DIR (DEG):320 FASTEST 2MIN TIME (LST):0115 AVERAGE WIND SPEED (MPH):8.2  24 HR AVG TEMP (F):30 HEATING DEGREE DAYS:35  COOLING DEGREE DAYS:0   LATEST DAY MAX TEMP (0700-1900 LST):33  LATEST NIGHT MIN TEMP(1900-0800 LST):26 HOURLY INCREMENTAL PRECIPITATION VALUES (IN):.00 0.00 0.00 0.00 0.00 0.00 0.00 0.00 0.00 0.00 0.00 0.00 0.00 0.00 0.00 0.00 0.00 0.00 0.00 T    0.00 0.00 0.00 0.00EQDR01     N7GJS072R02     N7GKS075R03    587OES063
0265725088547332010010605537+42584-070918FM-15+0033KBVY V0203105N00415007625MN0160935N5-00285-00725100015ADDAA101000095AA206000021GA1085+007625999GD14991+0076259GF108991999999999999999999KA1999M-00061KA2999N-00281MA1100035099645MD1840044+9999REMMET11901/06/10 00:53:02 METAR KBVY 060553Z 31008KT 10SM OVC025 M03/M07 A2954 RMK AO2 SLP001 60000 T10281072 11006 21028 58004
0190725088547332010010606537+42584-070918FM-15+0033KBVY V0203105N00515008235MN0160935N5-00285-00785100055ADDAA101000095GA1085+008235999GD14991+0082359GF108991999999999999999999MA1100075099685REMMET09501/06/10 01:53:02 METAR KBVY 060653Z 31010KT 10SM OVC027 M03/M08 A2955 RMK AO2 SLP005 T10281078
0190725088547332010010607537+42584-070918FM-15+0033KBVY V0203105N00465008845MN0160935N5-00285-00785100065ADDAA101000095GA1085+008845999GD14991+0088459GF108991999999999999999999MA1100105099715REMMET09501/06/10 02:53:02 METAR KBVY 060753Z 31009KT 10SM OVC029 M03/M08 A2956 RMK AO2 SLP006 T10281078
0210725088547332010010608537+42584-070918FM-15+0033KBVY V0203105N00365008845MN0160935N5-00335-00835100055ADDAA101000095GA1075+008845999GD13991+0088459GF107991999999999999999999MA1100105099715MD1040044+9999REMMET10101/06/10 03:53:02 METAR KBVY 060853Z 31007KT 10SM BKN029 M03/M08 A2956 RMK AO2 SLP005 T10331083 50004
0162725088547332010010609067+42584-070918FM-16+0033KBVY V0203005N003652200059N0160935N5-00405-00905999999ADDGA1045+008845999GD12991+0088459GF104991999999999999999999MA1100075099685REMMET07801/06/10 04:06:02 SPECI KBVY 060906Z 30007KT 10SM SCT029 M04/M09 A2955 RMK AO2
0156725088547332010010609537+42584-070918FM-15+0033KBVY V0202805N002652200059N0160935N5-00505-00945100035ADDAA101000095GF100991999999999999999999MA1100075099685REMMET09201/06/10 04:53:02 METAR KBVY 060953Z 28005KT 10SM CLR M05/M09 A2955 RMK AO2 SLP003 T10501094
0156725088547332010010610537+42584-070918FM-15+0033KBVY V0202805N002652200059N0160935N5-00565-00945100045ADDAA101000095GF100991999999999999999999MA1100075099685REMMET09201/06/10 05:53:02 METAR KBVY 061053Z 28005KT 10SM CLR M06/M09 A2955 RMK AO2 SLP004 T10561094
0219725088547332010010611537+42584-070918FM-15+0033KBVY V0202805N002652200059N0160935N5-00615-00945100075ADDAA101000095GF100991999999999999999999KA1999M-00281KA2999N-00611MA1100105099715MD1340024+9999REMMET11501/06/10 06:53:02 METAR KBVY 061153Z 28005KT 10SM CLR M06/M09 A2956 RMK AO2 SLP007 T10611094 11028 21061 53002 (SS)
0161725088547332010010612537+42584-070918FM-15+0033KBVY V0202905N003652200059N0160935N5-00565-00945100095ADDAA101000095GF100991999999999999999999MA1100105099715REMMET09701/06/10 07:53:02 METAR KBVY 061253Z 29007KT 10SM CLR M06/M09 A2956 RMK AO2 SLP009 T10561094 (SS)
0161725088547332010010613537+42584-070918FM-15+0033KBVY V0203005N004652200059N0160935N5-00445-00945100115ADDAA101000095GF100991999999999999999999MA1100145099745REMMET09701/06/10 08:53:02 METAR KBVY 061353Z 30009KT 10SM CLR M04/M09 A2957 RMK AO2 SLP011 T10441094 (SS)
0181725088547332010010614537+42584-070918FM-15+0033KBVY V0203205N007252200059N0160935N5-00285-00945100125ADDAA101000095GF100991999999999999999999MA1100145099745MD1140054+9999REMMET10301/06/10 09:53:02 METAR KBVY 061453Z 32014KT 10SM CLR M03/M09 A2957 RMK AO2 SLP012 T10281094 51005 (SS)
0161725088547332010010615537+42584-070918FM-15+0033KBVY V0203005N006752200059N0160935N5-00175-00945100065ADDAA101000095GF100991999999999999999999MA1100105099715REMMET09701/06/10 10:53:02 METAR KBVY 061553Z 30013KT 10SM CLR M02/M09 A2956 RMK AO2 SLP006 T10171094 (SS)
0172725088547332010010616537+42584-070918FM-15+0033KBVY V0203205N005152200059N0160935N5-00115-00895100015ADDAA101000095GF100991999999999999999999MA1100035099645OC100985REMMET10001/06/10 11:53:02 METAR KBVY 061653Z 32010G19KT 10SM CLR M01/M09 A2954 RMK AO2 SLP001 T10111089 (SS)
0230725088547332010010617537+42584-070918FM-15+0033KBVY V0203005N007252200059N0160935N5-00065-00895099925ADDAA101000095GF100991999999999999999999KA1999M-00061KA2999N-00611MA1099975099575MD1840194+9999OC101085REMMET11801/06/10 12:53:02 METAR KBVY 061753Z 30014G21KT 10SM CLR M01/M09 A2952 RMK AO2 SLP992 T10061089 11006 21061 58019 (SS)
0171725088547332010010618537+42584-070918FM-15+0033KBVY V0203105N005752200059N0160935N5+00005-00895099945ADDAA101000095GF100991999999999999999999MA1099975099575OC100885REMMET09901/06/10 13:53:02 METAR KBVY 061853Z 31011G17KT 10SM CLR 00/M09 A2952 RMK AO2 SLP994 T00001089 (SS)
0161725088547332010010619537+42584-070918FM-15+0033KBVY V0202905N005752200059N0160935N5-00065-00945099965ADDAA101000095GF100991999999999999999999MA1100005099615REMMET09701/06/10 14:53:02 METAR KBVY 061953Z 29011KT 10SM CLR M01/M09 A2953 RMK AO2 SLP996 T10061094 (SS)
0192725088547332010010620537+42584-070918FM-15+0033KBVY V0202905N006752200059N0160935N5-00115-00945099975ADDAA101000095GF100991999999999999999999MA1100005099615MD1240044+9999OC100885REMMET10601/06/10 15:53:02 METAR KBVY 062053Z 29013G17KT 10SM CLR M01/M09 A2953 RMK AO2 SLP997 T10111094 52004 (DB)
0161725088547332010010621537+42584-070918FM-15+0033KBVY V0202905N005152200059N0160935N5-00225-00895100015ADDAA101000095GF100991999999999999999999MA1100035099645REMMET09701/06/10 16:53:02 METAR KBVY 062153Z 29010KT 10SM CLR M02/M09 A2954 RMK AO2 SLP001 T10221089 (DB)
0172725088547332010010622537+42584-070918FM-15+0033KBVY V0202905N004652200059N0160935N5-00285-00945100055ADDAA101000095GF100991999999999999999999MA1100075099685OC100885REMMET10001/06/10 17:53:02 METAR KBVY 062253Z 29009G17KT 10SM CLR M03/M09 A2955 RMK AO2 SLP005 T10281094 (DB)
0219725088547332010010623537+42584-070918FM-15+0033KBVY V0202905N004652200059N0160935N5-00335-00945100095ADDAA101000095GF100991999999999999999999KA1999M+00001KA2999N-00331MA1100105099715MD1140114+9999REMMET11501/06/10 18:53:02 METAR KBVY 062353Z 29009KT 10SM CLR M03/M09 A2956 RMK AO2 SLP009 T10331094 10000 21033 51011 (DB)
0190725088547332010010700537+42584-070918FM-15+0033KBVY V0203005N00415024385MN0160935N5-00335-00945100115ADDAA101000095GA1075+024385999GD13991+0243859GF107991999999999999999999MA1100145099745REMMET09501/06/10 19:53:02 METAR KBVY 070053Z 30008KT 10SM BKN080 M03/M09 A2957 RMK AO2 SLP011 T10331094
0190725088547332010010701537+42584-070918FM-15+0033KBVY V0203105N00365021345MN0160935N5-00285-00895100115ADDAA101000095GA1085+021345999GD14991+0213459GF108991999999999999999999MA1100145099745REMMET09501/06/10 20:53:02 METAR KBVY 070153Z 31007KT 10SM OVC070 M03/M09 A2957 RMK AO2 SLP011 T10281089
0248725088547332010010702537+42584-070918FM-15+0033KBVY V0203005N00365016765MN0160935N5-00285-00895100145ADDAA101000095GA1075+016765999GA2075+027435999GD13991+0167659GD23991+0274359GF107991999999999999999999MA1100175099785MD1340064+9999REMMET10801/06/10 21:53:02 METAR KBVY 070253Z 30007KT 10SM BKN055 BKN090 M03/M09 A2958 RMK AO2 SLP014 T10281089 53006
0239725088547332010010703537+42584-070918FM-15+0033KBVY V0203005N00575025915MN0160935N5-00225-00835100185ADDAA101000095GA1075+025915999GA2085+033535999GD13991+0259159GD24991+0335359GF108991999999999999999999MA1100205099815OC100885REMMET10501/06/10 22:53:02 METAR KBVY 070353Z 30011G17KT 10SM BKN085 OVC110 M02/M08 A2959 RMK AO2 SLP018 T10221083
0177725088547332010010704537+42584-070918FM-15+0033KBVY V0203105N006252200059N0160935N5-00285-00895100175ADDAA101000095GF100991999999999999999999MA1100205099815OC100935REMMET10501/06/10 23:53:01 METAR KBVY 070453Z 31012G18KT 10SM CLR M03/M09 A2959 RMK AO2 SLP017 T10281089 400001061
0886725088547332010010704596+42584-070918SOD  +0033KBVY V020999999999999999999999999999+99999+99999999999ADDAA124000095KA1240M+00005KA2240N-00605MG1099644099934OE11240116232011225OE22240093932011365OE33240047899999995REMSOD73024 HR PRECIPITATION (IN):0.00  24 HR MAX TEMP (F):32 24 HR MAX TEMP TIME (LST):1442 24 HR MIN TEMP (F):21 24 HR MIN TEMP TIME (LST):0740 AVERAGE STATION PRESSURE:29.425 MINIMUM SEA LEVEL PRESSURE:29.51 TIME OF OCCURRENCE:1504 PEAK WIND SPEED (MPH):26  PEAK WIND DIR (DEG):320 PEAK WIND TIME (LST):1122  FASTEST 2MIN SPEED (MPH):21 FASTEST 2MIN DIR (DEG):320 FASTEST 2MIN TIME (LST):1136 AVERAGE WIND SPEED (MPH):10.7 24 HR AVG TEMP (F):27 HEATING DEGREE DAYS:38  COOLING DEGREE DAYS:0   LATEST DAY MAX TEMP (0700-1900 LST):32  LATEST NIGHT MIN TEMP(1900-0800 LST):21 HOURLY INCREMENTAL PRECIPITATION VALUES (IN):.00 0.00 0.00 0.00 0.00 0.00 0.00 0.00 0.00 0.00 0.00 0.00 0.00 0.00 0.00 0.00 0.00 0.00 0.00 0.00 0.00 0.00 0.00 0.00EQDR01     N7GJS072R02     N7GKS075
0248725088547332010010705537+42584-070918FM-15+0033KBVY V0203105N00465030485MN0160935N5-00225-00835100185ADDAA101000095GA1085+030485999GD14991+0304859GF108991999999999999999999KA1999M-00221KA2999N-00391MA1100205099815MD1140034+9999REMMET11301/07/10 00:53:02 METAR KBVY 070553Z 31009KT 10SM OVC100 M02/M08 A2959 RMK AO2 SLP018 T10221083 11022 21039 51003
0169725088547332010010706537+42584-070918FM-15+0033KBVY V0203105N005152200059N0160935N5-00285-00895100215ADDAA101000095GF100991999999999999999999MA1100245099845OC100885REMMET09701/07/10 01:53:02 METAR KBVY 070653Z 31010G17KT 10SM CLR M03/M09 A2960 RMK AO2 SLP021 T10281089 $
0156725088547332010010707537+42584-070918FM-15+0033KBVY V0203005N004652200059N0160935N5-00285-00835100265ADDAA101000095GF100991999999999999999999MA1100305099915REMMET09201/07/10 02:53:02 METAR KBVY 070753Z 30009KT 10SM CLR M03/M08 A2962 RMK AO2 SLP026 T10281083
0176725088547332010010708537+42584-070918FM-15+0033KBVY V0203005N004652200059N0160935N5-00335-00895100295ADDAA101000095GF100991999999999999999999MA1100345099955MD1240124+9999REMMET09801/07/10 03:53:02 METAR KBVY 070853Z 30009KT 10SM CLR M03/M09 A2963 RMK AO2 SLP029 T10331089 52012
0156725088547332010010709537+42584-070918FM-15+0033KBVY V0203105N003152200059N0160935N5-00335-00895100345ADDAA101000095GF100991999999999999999999MA1100375099985REMMET09201/07/10 04:53:02 METAR KBVY 070953Z 31006KT 10SM CLR M03/M09 A2964 RMK AO2 SLP034 T10331089
0156725088547332010010710537+42584-070918FM-15+0033KBVY V0203105N004652200059N0160935N5-00335-00895100375ADDAA101000095GF100991999999999999999999MA1100415100015REMMET09201/07/10 05:53:02 METAR KBVY 071053Z 31009KT 10SM CLR M03/M09 A2965 RMK AO2 SLP037 T10331089
