0194725088547332012010100357+42584-070918FM-16+0033KBVY V0202905N00315000615MN0028165N5+00305+00205999999ADDAU100001015AW1105GA1085+000615999GD14991+0006159GF108991999999999999999999MA1101055100655MW1101REMMET08712/31/11 19:35:03 SPECI KBVY 010035Z 29006KT 1 3/4SM BR OVC002 03/02 A2984 RMK AO2 (MG)
0222725088547332012010100537+42584-070918FM-15+0033KBVY V0203005N00315000615MN0024145N5+00285+00225101055ADDAA101000095AU100001015AW1105GA1085+000615999GD14991+0006159GF108991999999999999999999MA1101085100695MW1101REMMET10412/31/11 19:53:03 METAR KBVY 010053Z 30006KT 1 1/2SM BR OVC002 03/02 A2985 RMK AO2 SLP105 T00280022 (MG)
0189725088547332012010101507+42584-070918FM-16+0033KBVY V0203105N00265000615MN0040235N5+00205+00205999999ADDAU100001015AW1105GA1085+000615999GD14991+0006159GF108991999999999999999999MA1101125100725MW1101REMMET08212/31/11 20:50:03 SPECI KBVY 010150Z 31005KT 2 1/2SM BR OVC002 02/02 A2986 RMK AO2
0217725088547332012010101537+42584-070918FM-15+0033KBVY V0203105N00315000615MN0040235N5+00225+00175101095ADDAA101000095AU100001015AW1105GA1085+000615999GD14991+0006159GF108991999999999999999999MA1101125100725MW1101REMMET09912/31/11 20:53:03 METAR KBVY 010153Z 31006KT 2 1/2SM BR OVC002 02/02 A2986 RMK AO2 SLP109 T00220017
0185725088547332012010102017+42584-070918FM-16+0033KBVY V0203105N00265000615MN0064375N5+00205+00205999999ADDAU100001015AW1105GA1075+000615999GD13991+0006159GF107991999999999999999999MA1101125100725MW1101REMMET07812/31/11 21:01:03 SPECI KBVY 010201Z 31005KT 4SM BR BKN002 02/02 A2986 RMK AO2
0185725088547332012010102267+42584-070918FM-16+0033KBVY V0203005N002652200059N0096565N5+00205+00105999999ADDAU100001015AW1105GA1045+000615999GD12991+0006159GF104991999999999999999999MA1101155100765MW1101REMMET07812/31/11 21:26:03 SPECI KBVY 010226Z 30005KT 6SM BR SCT002 02/01 A2987 RMK AO2
0173725088547332012010102537+42584-070918FM-15+0033KBVY V0202905N002652200059N0128755N5+00175+00115101125ADDAA101000095GF100991999999999999999999MA1101155100765MD1240074+9999REMMET09512/31/11 21:53:03 METAR KBVY 010253Z 29005KT 8SM CLR 02/01 A2987 RMK AO2 SLP112 T00170011 52007
0153725088547332012010103537+42584-070918FM-15+0033KBVY V0203005N002152200059N0128755N5+00175+00115101145ADDAA101000095GF100991999999999999999999MA1101195100795REMMET08912/31/11 22:53:03 METAR KBVY 010353Z 30004KT 8SM CLR 02/01 A2988 RMK AO2 SLP114 T00170011
0163725088547332012010104537+42584-070918FM-15+0033KBVY V0202905N003152200059N0144845N5+00225+00115101215ADDAA101000095GF100991999999999999999999MA1101255100865REMMET09912/31/11 23:53:03 METAR KBVY 010453Z 29006KT 9SM CLR 02/01 A2990 RMK AO2 SLP121 T00220011 400280000
0955725088547332012010104596+42584-070918SOD  +0033KBVY V020999999999999999999999999999+99999+99999999999ADDAA124000895AX1016246AX2026246KA1240M+00285KA2240N+00005MG1100904100884OE11240062603005035OE22240040232019085OE33240023299999995REMSOD74924 HR PRECIPITATION (IN):0.03  WEATHER(CODE):1,2  24 HR MAX TEMP (F):37 24 HR MAX TEMP TIME (LST):1956 24 HR MIN TEMP (F):32 24 HR MIN TEMP TIME (LST):0910 AVERAGE STATION PRESSURE:29.795 MINIMUM SEA LEVEL PRESSURE:29.79 TIME OF OCCURRENCE:1525 PEAK WIND SPEED (MPH):14  PEAK WIND DIR (DEG):30  PEAK WIND TIME (LST):0503  FASTEST 2MIN SPEED (MPH):9  FASTEST 2MIN DIR (DEG):320 FASTEST 2MIN TIME (LST):1908 AVERAGE WIND SPEED (MPH):5.2  24 HR AVG TEMP (F):35 HEATING DEGREE DAYS:30  COOLING DEGREE DAYS:0   LATEST DAY MAX TEMP (0700-1900 LST):37  LATEST NIGHT MIN TEMP(1900-0800 LST):32 HOURLY INCREMENTAL PRECIPITATION VALUES (IN):.00 0.00 0.00 0.00 0.00 0.00 0.00 T    0.02 0.01 0.00 0.00 0.00 0.00 0.00 0.00 0.00 0.00 0.00 0.00 0.00 0.00 0.00 0.00EQDR01   1,27AXW090R02   1,27AXW090R03     N7GJS072R04     N7GKS075
1255725088547332012010104596+42584-070918SOM  +0033KBVY V020999999999999999999999999999+99999+99999999999ADDAB10099196AD10054990708999999996AE1135075035015AH1005004192200115AH2010005392200125AH3015006392200135AH4020006992200195AH5030007492200135AH6045008492200235AI1060009492200425AI2080010292201015AI3100010992201185AI4120011792201185AI5150015090804325AI6180017590804565KB1744N-02505KB2744M+07945KB3744A+02725KC1N9-01111999995KC2M9+01720699995KD1744H08645KD2744C00005KE1035005245005MH1101544101934MK1103860320305098952804445REMSOM791PCP MTOT:3.90 PCP GT 24HRS:2.16 DATE(S):7-8 DAYS W/PCP >=.01:13 DAYS W/PCP >=.10:7  DAYS W/ PCP >=.50:3 DAYS W/PCP >=1.00:1 MSDP AMTS W/DATE-TIME TAGS:MIN:5 0.16  22/0011 MIN:10 0.21  22/0012 MIN:15 0.25  22/0013 MIN:20 0.27  22/0019 MIN:30 0.29  22/0013 MIN:45 0.33  22/0023 MIN:60 0.37  22/0042 MIN:80 0.40  22/0101 MIN:100 0.43  22/0118 MIN:120 0.46  22/0118 MIN:150 0.59  08/0432 MIN:180 0.69  08/0456 AVG DLY MIN:27.5  AVG DLY MAX:46.3  AVG MLY TMP:36.9  MIN TMP:12 DATE(S):19 MAX TMP:63  DATE(S):06 DAYS MAX <=32:3 DAYS MAX >=90:0  DAYS MIN <=32:24 DAYS MIN  <=0:0  AVG STP:29.985 LWST SLP:29.22 DATE/TIME:280444 HGST SLP:30.67 DATE/TIME:032030 HDD MTH TOT:864 DEP NORM:-2553 SEASON(JUL 1-JUN 30):1133 DEP NORM:+23277 CDD MTH TOT:0 DEP NORM:-2553 SEASON(JAN 1-DEC 31):0 DEP NORM:-21248EQDR01  3.907ABP070R02  2.167ADP081
0211725088547332012010105537+42584-070918FM-15+0033KBVY V0203105N004652200059N0144845N5+00285+00115101205ADDAA101000095GF100991999999999999999999KA1999M+00281KA2999N+00171MA1101225100825MD1040074+9999REMMET10701/01/12 00:53:02 METAR KBVY 010553Z 31009KT 9SM CLR 03/01 A2989 RMK AO2 SLP120 T00280011 10028 20017 50007
0153725088547332012010106537+42584-070918FM-15+0033KBVY V0202505N002152200059N0128755N5+00225+00115101245ADDAA101000095GF100991999999999999999999MA1101295100895REMMET08901/01/12 01:53:02 METAR KBVY 010653Z 25004KT 8SM CLR 02/01 A2991 RMK AO2 SLP124 T00220011
0153725088547332012010107537+42584-070918FM-15+0033KBVY V0202905N003152200059N0128755N5+00285+00115101365ADDAA101000095GF100991999999999999999999MA1101395100995REMMET08901/01/12 02:53:02 METAR KBVY 010753Z 29006KT 8SM CLR 03/01 A2994 RMK AO2 SLP136 T00280011
0173725088547332012010108537+42584-070918FM-15+0033KBVY V0202705N002652200059N0112655N5+00225+00115101435ADDAA101000095GF100991999999999999999999MA1101465101065MD1340234+9999REMMET09501/01/12 03:53:02 METAR KBVY 010853Z 27005KT 7SM CLR 02/01 A2996 RMK AO2 SLP143 T00220011 53023
0179725088547332012010109537+42584-070918FM-15+0033KBVY V0202605N001552200059N0080475N5+00115+00065101505ADDAA101000095AU100001015AW1105GF100991999999999999999999MA1101525101135MW1101REMMET09201/01/12 04:53:02 METAR KBVY 010953Z 26003KT 5SM BR CLR 01/01 A2998 RMK AO2 SLP150 T00110006
0179725088547332012010110537+42584-070918FM-15+0033KBVY V0203205N002152200059N0080475N5+00005+00005101555ADDAA101000095AU100001015AW1105GF100991999999999999999999MA1101595101195MW1101REMMET09201/01/12 05:53:02 METAR KBVY 011053Z 32004KT 5SM BR CLR 00/00 A3000 RMK AO2 SLP155 T00000000
0157725088547332012010111277+42584-070918FM-16+0033KBVY V0202605N002152200059N0028165N5-00105-00205999999ADDAU100001015AW1105GF100991999999999999999999MA1101635101235MW1101REMMET08101/01/12 06:27:02 SPECI KBVY 011127Z 26004KT 1 3/4SM BR CLR M01/M02 A3001 RMK AO2
0152725088547332012010111397+42584-070918FM-16+0033KBVY V0209999C000052200059N0032195N5+00005-00105999999ADDAU100001015AW1105GF100991999999999999999999MA1101635101235MW1101REMMET07601/01/12 06:39:02 SPECI KBVY 011139Z 00000KT 2SM BR CLR 00/M01 A3001 RMK AO2
0164725088547332012010111516+42584-070918FM-16+0033KBVY V0202505N001552200059N0112655N5-00105-00105999999ADDAU101002015GA1005+999999999GD10991+9999999MA1101665101265MW1125REMMET08901/01/12 06:51:02 SPECI KBVY 011151Z 25003KT 7SM MIFG CLR M01/M01 A3002 RMK AO2 FIBI (WS)
0257725088547332012010111537+42584-070918FM-15+0033KBVY V0209999C000052200059N0112655N5-00065-00175101625ADDAA101000095AA224000891AU101002015GF100991999999999999999999KA1999M+00331KA2999N-00111MA1101665101265MD1240194+9999MW1125REMMET12501/01/12 06:53:02 METAR KBVY 011153Z 00000KT 7SM MIFG CLR M01/M02 A3002 RMK AO2 SLP162 70003 T10061017 10033 21011 52019 (WS)
0155725088547332012010112007+42584-070918FM-16+0033KBVY V0209999C000052200059N0008055N5+00005-00105999999ADDAU101002015GF100991999999999999999999MA1101665101265MW1125REMMET08501/01/12 07:00:02 SPECI KBVY 011200Z 00000KT 1/2SM MIFG CLR 00/M01 A3002 RMK AO2 (WS)
0153725088547332012010112037+42584-070918FM-16+0033KBVY V0202505N001552200059N0112655N5+00005-00105999999ADDAU101002015GF100991999999999999999999MA1101665101265MW1125REMMET08301/01/12 07:03:02 SPECI KBVY 011203Z 25003KT 7SM MIFG CLR 00/M01 A3002 RMK AO2 (WS)
0159725088547332012010112537+42584-070918FM-15+0033KBVY V0202505N002652200059N0160935N5+00005+00005101675ADDAA101000095GF100991999999999999999999MA1101695101305REMMET09501/01/12 07:53:02 METAR KBVY 011253Z 25005KT 10SM CLR 00/00 A3003 RMK AO2 SLP167 T00000000 (WS)
0158725088547332012010113537+42584-070918FM-15+0033KBVY V0202805N001552200059N0144845N5+00335+00225101695ADDAA101000095GF100991999999999999999999MA1101735101335REMMET09401/01/12 08:53:02 METAR KBVY 011353Z 28003KT 9SM CLR 03/02 A3004 RMK AO2 SLP169 T00330022 (WS)
0179725088547332012010114537+42584-070918FM-15+0033KBVY V0202505N002152200059N0160935N5+00615+00335101715ADDAA101000095GF100991999999999999999999MA1101765101365MD1140104+9999REMMET10101/01/12 09:53:02 METAR KBVY 011453Z 25004KT 10SM CLR 06/03 A3005 RMK AO2 SLP171 T00610033 51010 (WS)
0159725088547332012010115537+42584-070918FM-15+0033KBVY V0202605N003652200059N0160935N5+00835+00395101675ADDAA101000095GF100991999999999999999999MA1101695101305REMMET09501/01/12 10:53:02 METAR KBVY 011553Z 26007KT 10SM CLR 08/04 A3003 RMK AO2 SLP167 T00830039 (WS)
0193725088547332012010116537+42584-070918FM-15+0033KBVY V0202505N003652200059N0160935N5+00945+00335101565ADDAA101000095GA1025+012195999GD11991+0121959GF102991999999999999999999MA1101595101195REMMET09801/01/12 11:53:02 METAR KBVY 011653Z 25007KT 10SM FEW040 09/03 A3000 RMK AO2 SLP156 T00940033 (WS)
0251725088547332012010117537+42584-070918FM-15+0033KBVY V0201905N003152200059N0160935N5+00945+00225101425ADDAA101000095GA1025+008535999GD11991+0085359GF102991999999999999999999KA1999M+01001KA2999N-00061MA1101465101065MD1840284+9999REMMET11601/01/12 12:53:02 METAR KBVY 011753Z 19006KT 10SM FEW028 09/02 A2996 RMK AO2 SLP142 T00940022 10100 21006 58028 (WS)
0193725088547332012010118537+42584-070918FM-15+0033KBVY V0201705N004152200059N0160935N5+01005+00335101325ADDAA101000095GA1025+009145999GD11991+0091459GF102991999999999999999999MA1101355100965REMMET09801/01/12 13:53:02 METAR KBVY 011853Z 17008KT 10SM FEW030 10/03 A2993 RMK AO2 SLP132 T01000033 (WS)
0159725088547332012010119537+42584-070918FM-15+0033KBVY V0201805N003152200059N0160935N5+01005+00285101305ADDAA101000095GF100991999999999999999999MA1101325100925REMMET09501/01/12 14:53:02 METAR KBVY 011953Z 18006KT 10SM CLR 10/03 A2992 RMK AO2 SLP130 T01000028 (WS)
0179725088547332012010120537+42584-070918FM-15+0033KBVY V0201305N004152200059N0160935N5+00725+00395101245ADDAA101000095GF100991999999999999999999MA1101295100895MD1640184+9999REMMET10101/01/12 15:53:02 METAR KBVY 012053Z 13008KT 10SM CLR 07/04 A2991 RMK AO2 SLP124 T00720039 56018 (JR)
0159725088547332012010121537+42584-070918FM-15+0033KBVY V0201605N003152200059N0160935N5+00725+00285101095ADDAA101000095GF100991999999999999999999MA1101125100725REMMET09501/01/12 16:53:02 METAR KBVY 012153Z 16006KT 10SM CLR 07/03 A2986 RMK AO2 SLP109 T00720028 (JR)
0170725088547332012010122537+42584-070918FM-15+0033KBVY V0201905N005752200059N0160935N5+00785+00395101005ADDAA101000095GF100991999999999999999999MA1101055100655OC100935REMMET09801/01/12 17:53:02 METAR KBVY 012253Z 19011G18KT 10SM CLR 08/04 A2984 RMK AO2 SLP100 T00780039 (JR)
0176725088547332012010123197+42584-070918FM-16+0033KBVY V0201905N00415007015MN0160935N5+00805+00405999999ADDGA1075+007015999GD13991+0070159GF107991999999999999999999MA1101055100655OC100885REMMET08401/01/12 18:19:02 SPECI KBVY 012319Z 19008G17KT 10SM BKN023 08/04 A2984 RMK AO2 (JR)
0225725088547332012010123314+42583-070917FM-16+0033KBVY V0202701N004110147019N0144841N1+00901+00601999999ADDAA101001391GD12991+0120019GD23991+0147019GD34991+0180019GF108991999999999999999999MA1100981999999MW1611OC100821REMMET102SPECI KBVY 012331Z 27008G16KT 9SM -RA SCT040 BKN049 OVC060 09/06 A2982 RMK AO2 WSHFT 2311 RAB05 P0005;
0251725088547332012010123537+42584-070918FM-15+0033KBVY V0201905N00415005185MN0160935N5+00835+00445100985ADDAA101000095GA1085+005185999GD14991+0051859GF108991999999999999999999KA1999M+01001KA2999N+00611MA1101025100625MD1640264+9999REMMET11601/01/12 18:53:02 METAR KBVY 012353Z 19008KT 10SM OVC017 08/04 A2983 RMK AO2 SLP098 T00830044 10100 20061 56026 (JR)
0144725088547332012010200516+42584-070918FM-16+0033KBVY V0201805N003652200059N0160935N5+00805+00505999999ADDGA1045+006405999GD12991+0064059MA1100885100495REMMET08601/01/12 19:51:03 SPECI KBVY 020051Z 18007KT 10SM SCT021 08/05 A2979 RMK AO2 FIBI (JR)
0188725088547332012010200537+42584-070918FM-15+0033KBVY V0201805V003652200059N0160935N5+00785+00505100855ADDAA101000095GA1025+006405999GD11991+0064059GF102991999999999999999999MA1100885100495REMMET09301/01/12 19:53:01 METAR KBVY 020053Z 18007KT 10SM FEW021 08/05 A2979 RMK AO2 SLP085 T00780050
0188725088547332012010201537+42584-070918FM-15+0033KBVY V0202005N003152200059N0160935N5+00835+00505100765ADDAA101000095GA1025+036585999GD11991+0365859GF102991999999999999999999MA1100815100425REMMET09301/01/12 20:53:01 METAR KBVY 020153Z 20006KT 10SM FEW120 08/05 A2977 RMK AO2 SLP076 T00830050
0230725088547332012010202516+42584-070918FM-16+0033KBVY V0201905N00265007325MN0160935N5+00805+00605999999ADDGA1045+005495999GA2075+007325999GA3085+033535999GD12991+0054959GD23991+0073259GD34991+0335359MA1100715100325REMMET11001/01/12 21:51:03 SPECI KBVY 020251Z 19005KT 10SM SCT018 BKN024 OVC110 08/06 A2974 RMK AO2 RAB36E45 P0000 FIBI
0335725088547332012010202537+42584-070918FM-15+0033KBVY V0201805N00315007325MN0160935N5+00835+00565100655ADDAA101000025AA203000021GA1045+006105999GA2075+007325999GA3085+033535999GD12991+0061059GD23991+0073259GD34991+0335359GF108991999999999999999999MA1100685100285MD1640334+9999REMMET13401/01/12 21:53:01 METAR KBVY 020253Z 18006KT 10SM SCT020 BKN024 OVC110 08/06 A2973 RMK AO2 RAB36E45 SLP065 P0000 60000 T00830056 56033EQDQ01  00008PRCP03
0262725088547332012010203397+42584-070918FM-16+0033KBVY V0201705N00315016765MN0160935N5+00805+00605999999ADDAA101000021GA1025+005795999GA2075+016765999GA3085+024385999GD11991+0057959GD23991+0167659GD34991+0243859GF108991999999999999999999MA1100615100225REMMET10501/01/12 22:39:01 SPECI KBVY 020339Z 17006KT 10SM FEW019 BKN055 OVC080 08/06 A2971 RMK AO2 RAB04E27 P0000
0241725088547332012010203537+42584-070918FM-15+0033KBVY V0201605N00365018295MN0160935N5+00835+00615100535ADDAA101000025GA1075+018295999GA2085+025915999GD13991+0182959GD24991+0259159GF108991999999999999999999MA1100585100185REMMET11501/01/12 22:53:01 METAR KBVY 020353Z 16007KT 10SM BKN060 OVC085 08/06 A2970 RMK AO2 RAB04E27 SLP053 P0000 T00830061
0297725088547332012010204537+42584-070918FM-15+0033KBVY V0201505N00265007015MN0160935N5+00785+00615100305ADDAA101000025GA1045+003965999GA2075+007015999GA3085+030485999GD12991+0039659GD23991+0070159GD34991+0304859GF108991999999999999999999MA1100345099955REMMET14001/01/12 23:53:01 METAR KBVY 020453Z 15005KT 10SM SCT013 BKN023 OVC100 08/06 A2963 RMK AO2 RAB0356E08B31E43 SLP030 P0000 T00780061 401001011
0952725088547332012010204596+42584-070918SOD  +0033KBVY V020999999999999999999999999999+99999+99999999999ADDAA124000025AX1016246AX2026246KA1240M+01005KA2240N-00105MG1100934100304OE11240107319017425OE22240067119017505OE33240030499999995REMSOD74624 HR PRECIPITATION (IN):T     WEATHER(CODE):1,2  24 HR MAX TEMP (F):50 24 HR MAX TEMP TIME (LST):1500 24 HR MIN TEMP (F):30 24 HR MIN TEMP TIME (LST):0636 AVERAGE STATION PRESSURE:29.805 MINIMUM SEA LEVEL PRESSURE:29.62 TIME OF OCCURRENCE:2359 PEAK WIND SPEED (MPH):24  PEAK WIND DIR (DEG):190 PEAK WIND TIME (LST):1742  FASTEST 2MIN SPEED (MPH):15 FASTEST 2MIN DIR (DEG):190 FASTEST 2MIN TIME (LST):1750 AVERAGE WIND SPEED (MPH):6.8  24 HR AVG TEMP (F):40 HEATING DEGREE DAYS:25  COOLING DEGREE DAYS:0   LATEST DAY MAX TEMP (0700-1900 LST):50  LATEST NIGHT MIN TEMP(1900-0800 LST):30 HOURLY INCREMENTAL PRECIPITATION VALUES (IN):.00 0.00 0.00 0.00 0.00 0.00 0.00 0.00 0.00 0.00 0.00 0.00 0.00 0.00 0.00 0.00 0.00 0.00 0.00 0.00 0.00 T    T    TEQDR01   1,27AXW090R02   1,27AXW090R03     N7GJS072R04     N7GKS075
0236725088547332012010205117+42584-070918FM-16+0033KBVY V0201505N00315003965MN0160935N5+00805+00605999999ADDGA1075+003965999GA2075+007625999GA3085+030485999GD13991+0039659GD23991+0076259GD34991+0304859GF108991999999999999999999MA1100305099915REMMET09001/02/12 00:11:02 SPECI KBVY 020511Z 15006KT 10SM BKN013 BKN025 OVC100 08/06 A2962 RMK AO2
0242725088547332012010205237+42584-070918FM-16+0033KBVY V0201505N00315004885MN0160935N5+00805+00705999999ADDAA101000021AU110020015AW1615GA1075+004885999GA2085+006715999GD13991+0048859GD24991+0067159GF108991999999999999999999MA1100275099885REMMET09901/02/12 00:23:02 SPECI KBVY 020523Z 15006KT 10SM -RA BKN016 OVC022 08/07 A2961 RMK AO2 RAB16 P0000
0390725088547332012010205537+42584-070918FM-15+0033KBVY V0201805N00155004885MN0144845N5+00835+00725100195ADDAA101000395AA206000391AU110020015AW1615GA1075+004885999GA2075+015245999GA3085+021345999GD13991+0048859GD23991+0152459GD34991+0213459GF108991999999999999999999KA1999M+00831KA2999N+00781MA1100245099845MD1640464+9999REMMET14601/02/12 00:53:02 METAR KBVY 020553Z 18003KT 9SM -RA BKN016 BKN050 OVC070 08/07 A2960 RMK AO2 RAB16 SLP019 P0001 60001 T00830072 10083 20078 56046EQDQ01  00038PRCP06
0258725088547332012010206097+42584-070918FM-16+0033KBVY V0202105N00155012195MN0144845N5+00805+00705999999ADDAA101000021GA1045+004885999GA2075+012195999GA3085+014945999GD12991+0048859GD23991+0121959GD34991+0149459GF108991999999999999999999MA1100205099815REMMET10101/02/12 01:09:02 SPECI KBVY 020609Z 21003KT 9SM SCT016 BKN040 OVC049 08/07 A2959 RMK AO2 RAE01 P0000
0299725088547332012010206537+42584-070918FM-15+0033KBVY V0202105N00265012505MN0128755N5+00945+00785100115ADDAA101000025AU110020015AW1615GA1025+010065999GA2075+012505999GA3085+015245999GD11991+0100659GD23991+0125059GD34991+0152459GF108991999999999999999999MA1100175099785REMMET12501/02/12 01:53:02 METAR KBVY 020653Z 21005KT 8SM -RA FEW033 BKN041 OVC050 09/08 A2958 RMK AO2 RAE01B45 SLP011 P0000 T00940078
0200725088547332012010207537+42584-070918FM-15+0033KBVY V0202105N00265030485MN0160935N5+00945+00785099985ADDAA101000025GA1075+030485999GD13991+0304859GF107991999999999999999999MA1100035099645REMMET10501/02/12 02:53:02 METAR KBVY 020753Z 21005KT 10SM BKN100 09/08 A2954 RMK AO2 RAE03 SLP998 P0000 T00940078
0263725088547332012010208537+42584-070918FM-15+0033KBVY V0202305N00415024385MN0160935N5+00945+00725099915ADDAA101000095AA203000021GA1075+024385999GA2085+027435999GD13991+0243859GD24991+0274359GF108991999999999999999999MA1099975099575MD1640274+9999REMMET11201/02/12 03:53:02 METAR KBVY 020853Z 23008KT 10SM BKN080 OVC090 09/07 A2952 RMK AO2 SLP991 60000 T00940072 56027
0226725088547332012010209516+42584-070918FM-16+0033KBVY V0202805N00725008235MN0160935N5+00705+00105999999ADDGA1025+005495999GA2075+008235999GA3085+013115999GD11991+0054959GD23991+0082359GD34991+0131159MA1100035099645OC101085REMMET09801/02/12 04:51:02 SPECI KBVY 020951Z 28014G21KT 10SM FEW018 BKN027 OVC043 07/01 A2954 RMK AO2 FIBI
0275725088547332012010209537+42584-070918FM-15+0033KBVY V0202905N00675008235MN0160935N5+00675+00065099995ADDAA101000095GA1025+005495999GA2075+008235999GA3085+013115999GD11991+0054959GD23991+0082359GD34991+0131159GF108991999999999999999999MA1100035099645OC101085REMMET11001/02/12 04:53:02 METAR KBVY 020953Z 29013G21KT 10SM FEW018 BKN027 OVC043 07/01 A2954 RMK AO2 SLP999 T00670006
0247725088547332012010210007+42584-070918FM-16+0033KBVY V0202805N00515009755MN0160935N5+00605+00105999999ADDGA1025+005495999GA2045+007925999GA3085+009755999GD11991+0054959GD22991+0079259GD34991+0097559GF108991999999999999999999MA1100035099645OC100985REMMET09301/02/12 05:00:02 SPECI KBVY 021000Z 28010G19KT 10SM FEW018 SCT026 OVC032 06/01 A2954 RMK AO2
0189725088547332012010210537+42584-070918FM-15+0033KBVY V0202805N00515014335MN0160935N5+00565-00065100035ADDAA101000095GA1085+014335999GD14991+0143359GF108991999999999999999999MA1100075099685REMMET09401/02/12 05:53:02 METAR KBVY 021053Z 28010KT 10SM OVC047 06/M01 A2955 RMK AO2 SLP003 T00561006
0305725088547332012010211537+42584-070918FM-15+0033KBVY V0202705N00415018295MN0160935N5+00505-00115100085ADDAA101000095AA206000021AA324000391GA1085+018295999GD14991+0182959GF108991999999999999999999KA1999M+01001KA2999N+00501MA1100145099745MD1140174+9999REMMET12901/02/12 06:53:02 METAR KBVY 021153Z 27008KT 10SM OVC060 05/M01 A2957 RMK AO2 SLP008 60000 70001 T00501011 10100 20050 51017 (DB)EQDQ01  00038PRCP24
0160725088547332012010212537+42584-070918FM-15+0033KBVY V0202605N003652200059N0160935N5+00395-00115100105ADDAA101000095GF100991999999999999999999MA1100145099745REMMET09601/02/12 07:53:02 METAR KBVY 021253Z 26007KT 10SM CLR 04/M01 A2957 RMK AO2 SLP010 T00391011 (DB)
0232725088547332012010213537+42584-070918FM-15+0033KBVY V0202705N00415012195MN0160935N5+00505-00115100155ADDAA101000095GA1075+012195999GA2075+015245999GD13991+0121959GD23991+0152459GF107991999999999999999999MA1100205099815REMMET10601/02/12 08:53:02 METAR KBVY 021353Z 27008KT 10SM BKN040 BKN050 05/M01 A2959 RMK AO2 SLP015 T00501011 (DB)
0263725088547332012010214537+42584-070918FM-15+0033KBVY V0202705N00675021345MN0160935N5+00565-00285100165ADDAA101000095GA1045+016765999GA2075+021345999GD12991+0167659GD23991+0213459GF107991999999999999999999MA1100205099815MD1140084+9999OC101035REMMET11501/02/12 09:53:02 METAR KBVY 021453Z 27013G20KT 10SM SCT055 BKN070 06/M03 A2959 RMK AO2 SLP016 T00561028 51008 (DB)
0243725088547332012010215537+42584-070918FM-15+0033KBVY V0203005N00885011285MN0160935N5+00445-00285100115ADDAA101000095GA1075+011285999GA2085+014945999GD13991+0112859GD24991+0149459GF108991999999999999999999MA1100175099785OC101085REMMET10901/02/12 10:53:02 METAR KBVY 021553Z 30017G21KT 10SM BKN037 OVC049 04/M03 A2958 RMK AO2 SLP011 T00441028 (DB)
0205725088547332012010216537+42584-070918FM-15+0033KBVY V0202605N00725022865MN0160935N5+00505-00445100075ADDAA101000095GA1075+022865999GD13991+0228659GF107991999999999999999999MA1100105099715OC101135REMMET10201/02/12 11:53:02 METAR KBVY 021653Z 26014G22KT 10SM BKN075 05/M04 A2956 RMK AO2 SLP007 T00501044 (DB)
0301725088547332012010217537+42584-070918FM-15+0033KBVY V0202705N00625021345MN0160935N5+00445-00675100045ADDAA101000095GA1045+016765999GA2075+021345999GD12991+0167659GD23991+0213459GF107991999999999999999999KA1999M+00611KA2999N+00331MA1100075099685MD1640124+9999OC100935REMMET12701/02/12 12:53:02 METAR KBVY 021753Z 27012G18KT 10SM SCT055 BKN070 04/M07 A2955 RMK AO2 SLP004 T00441067 10061 20033 56012 (DB)
0205725088547332012010218537+42584-070918FM-15+0033KBVY V0202905N007252200059N0160935N5+00505-00785100055ADDAA101000095GA1045+018295999GD12991+0182959GF104991999999999999999999MA1100105099715OC101135REMMET10201/02/12 13:53:02 METAR KBVY 021853Z 29014G22KT 10SM SCT060 05/M08 A2956 RMK AO2 SLP005 T00501078 (DB)
0205725088547332012010219537+42584-070918FM-15+0033KBVY V0202805N007252200059N0160935N5+00565-00835100135ADDAA101000095GA1045+018295999GD12991+0182959GF104991999999999999999999MA1100175099785OC101185REMMET10201/02/12 14:53:02 METAR KBVY 021953Z 28014G23KT 10SM SCT060 06/M08 A2958 RMK AO2 SLP013 T00561083 (DB)
0225725088547332012010220537+42584-070918FM-15+0033KBVY V0202705N005152200059N0160935N5+00395-00895100195ADDAA101000095GA1025+018295999GD11991+0182959GF102991999999999999999999MA1100245099845MD1340154+9999OC100935REMMET10801/02/12 15:53:02 METAR KBVY 022053Z 27010G18KT 10SM FEW060 04/M09 A2960 RMK AO2 SLP019 T00391089 53015 TSNO
0194725088547332012010221537+42584-070918FM-15+0033KBVY V0202705N00365018295MN0160935N5+00335-00895100315ADDAA101000095GA1075+018295999GD13991+0182959GF107991999999999999999999MA1100345099955REMMET09901/02/12 16:53:02 METAR KBVY 022153Z 27007KT 10SM BKN060 03/M09 A2963 RMK AO2 SLP031 T00331089 TSNO
0160725088547332012010222537+42584-070918FM-15+0033KBVY V0202605N003152200059N0160935N5+00225-00895100405ADDAA101000095GF100991999999999999999999MA1100445100055REMMET09601/02/12 17:53:02 METAR KBVY 022253Z 26006KT 10SM CLR 02/M09 A2966 RMK AO2 SLP040 T00221089 TSNO
0218725088547332012010223537+42584-070918FM-15+0033KBVY V0202505N004652200059N0160935N5+00225-00895100455ADDAA101000095GF100991999999999999999999KA1999M+00671KA2999N+00111MA1100475100085MD1140264+9999REMMET11401/02/12 18:53:02 METAR KBVY 022353Z 25009KT 10SM CLR 02/M09 A2967 RMK AO2 SLP045 T00221089 10067 20011 51026 TSNO
0155725088547332012010300537+42584-070918FM-15+0033KBVY V0202505N003652200059N0160935N5+00175-00895100495ADDAA101000095GF100991999999999999999999MA1100515100115REMMET09101/02/12 19:53:01 METAR KBVY 030053Z 25007KT 10SM CLR 02/M09 A2968 RMK AO2 SLP049 T00171089
0155725088547332012010301537+42584-070918FM-15+0033KBVY V0202505N004152200059N0160935N5+00115-00895100515ADDAA101000095GF100991999999999999999999MA1100545100155REMMET09101/02/12 20:53:01 METAR KBVY 030153Z 25008KT 10SM CLR 01/M09 A2969 RMK AO2 SLP051 T00111089
0175725088547332012010302537+42584-070918FM-15+0033KBVY V0202605N003152200059N0160935N5+00065-00835100545ADDAA101000095GF100991999999999999999999MA1100585100185MD1240084+9999REMMET09701/02/12 21:53:01 METAR KBVY 030253Z 26006KT 10SM CLR 01/M08 A2970 RMK AO2 SLP054 T00061083 52008
0155725088547332012010303537+42584-070918FM-15+0033KBVY V0202505N003152200059N0160935N5+00005-00835100545ADDAA101000095GF100991999999999999999999MA1100585100185REMMET09101/02/12 22:53:01 METAR KBVY 030353Z 25006KT 10SM CLR 00/M08 A2970 RMK AO2 SLP054 T00001083
0166725088547332012010304537+42584-070918FM-15+0033KBVY V0202505N003152200059N0160935N5-00065-00835100555ADDAA101000095GF100991999999999999999999MA1100585100185REMMET10201/02/12 23:53:01 METAR KBVY 030453Z 25006KT 10SM CLR M01/M08 A2970 RMK AO2 SLP055 T10061083 401001011
0886725088547332012010304596+42584-070918SOD  +0033KBVY V020999999999999999999999999999+99999+99999999999ADDAA124000395KA1240M+01005KA2240N-00105MG1099834099904OE11240129624013375OE22240098326013405OE33240048799999995REMSOD73024 HR PRECIPITATION (IN):0.01  24 HR MAX TEMP (F):50 24 HR MAX TEMP TIME (LST):0219 24 HR MIN TEMP (F):30 24 HR MIN TEMP TIME (LST):2347 AVERAGE STATION PRESSURE:29.480 MINIMUM SEA LEVEL PRESSURE:29.50 TIME OF OCCURRENCE:0432 PEAK WIND SPEED (MPH):29  PEAK WIND DIR (DEG):240 PEAK WIND TIME (LST):1337  FASTEST 2MIN SPEED (MPH):22 FASTEST 2MIN DIR (DEG):260 FASTEST 2MIN TIME (LST):1340 AVERAGE WIND SPEED (MPH):10.9 24 HR AVG TEMP (F):40 HEATING DEGREE DAYS:25  COOLING DEGREE DAYS:0   LATEST DAY MAX TEMP (0700-1900 LST):44  LATEST NIGHT MIN TEMP(1900-0800 LST):38 HOURLY INCREMENTAL PRECIPITATION VALUES (IN):.01 T    T    0.00 0.00 0.00 0.00 0.00 0.00 0.00 0.00 0.00 0.00 0.00 0.00 0.00 0.00 0.00 0.00 0.00 0.00 0.00 0.00 0.00EQDR01     N7GJS072R02     N7GKS075
0248725088547332012010305537+42584-070918FM-15+0033KBVY V0202705N002652200059N0160935N5-00065-00835100565ADDAA101000095GA1045+012505999GD12991+0125059GF104991999999999999999999KA1999M+00221KA2999N-00111MA1100585100185MD1340024+9999REMMET11301/03/12 00:53:02 METAR KBVY 030553Z 27005KT 10SM SCT041 M01/M08 A2970 RMK AO2 SLP056 T10061083 10022 21011 53002
0156725088547332012010306537+42584-070918FM-15+0033KBVY V0202605N001552200059N0160935N5-00225-00835100605ADDAA101000095GF100991999999999999999999MA1100645100255REMMET09201/03/12 01:53:02 METAR KBVY 030653Z 26003KT 10SM CLR M02/M08 A2972 RMK AO2 SLP060 T10221083
0156725088547332012010307537+42584-070918FM-15+0033KBVY V0202705N002152200059N0160935N5-00225-00895100615ADDAA101000095GF100991999999999999999999MA1100645100255REMMET09201/03/12 02:53:02 METAR KBVY 030753Z 27004KT 10SM CLR M02/M09 A2972 RMK AO2 SLP061 T10221089
0176725088547332012010308537+42584-070918FM-15+0033KBVY V0202505N002152200059N0160935N5-00395-00895100595ADDAA101000095GF100991999999999999999999MA1100615100225MD1040034+9999REMMET09801/03/12 03:53:02 METAR KBVY 030853Z 25004KT 10SM CLR M04/M09 A2971 RMK AO2 SLP059 T10391089 50003
0156725088547332012010309537+42584-070918FM-15+0033KBVY V0202605N002152200059N0160935N5-00335-00945100655ADDAA101000095GF100991999999999999999999MA1100685100285REMMET09201/03/12 04:53:02 METAR KBVY 030953Z 26004KT 10SM CLR M03/M09 A2973 RMK AO2 SLP065 T10331094
0156725088547332012010310537+42584-070918FM-15+0033KBVY V0202805N002652200059N0160935N5-00335-01175100735ADDAA101000095GF100991999999999999999999MA1100755100355REMMET09201/03/12 05:53:02 METAR KBVY 031053Z 28005KT 10SM CLR M03/M12 A2975 RMK AO2 SLP073 T10331117
0219725088547332012010311537+42584-070918FM-15+0033KBVY V0202805N002652200059N0160935N5-00335-01335100815ADDAA101000095GF100991999999999999999999KA1999M-00111KA2999N-00391MA1100855100455MD1340224+9999REMMET11501/03/12 06:53:02 METAR KBVY 031153Z 28005KT 10SM CLR M03/M13 A2978 RMK AO2 SLP081 T10331133 11011 21039 53022 (DB)
0161725088547332012010312537+42584-070918FM-15+0033KBVY V0203005N003152200059N0160935N5-00395-01175100875ADDAA101000095GF100991999999999999999999MA1100915100525REMMET09701/03/12 07:53:02 METAR KBVY 031253Z 30006KT 10SM CLR M04/M12 A2980 RMK AO2 SLP087 T10391117 (DB)
0161725088547332012010313537+42584-070918FM-15+0033KBVY V0203305N006752200059N0160935N5-00285-01285100955ADDAA101000095GF100991999999999999999999MA1100985100595REMMET09701/03/12 08:53:02 METAR KBVY 031353Z 33013KT 10SM CLR M03/M13 A2982 RMK AO2 SLP095 T10281128 (DB)
0192725088547332012010314537+42584-070918FM-15+0033KBVY V0203105N004652200059N0160935N5-00225-01285100895ADDAA101000095GF100991999999999999999999MA1100915100525MD1040094+9999OC100935REMMET10601/03/12 09:53:02 METAR KBVY 031453Z 31009G18KT 10SM CLR M02/M13 A2980 RMK AO2 SLP089 T10221128 50009 (DB)
0172725088547332012010315537+42584-070918FM-15+0033KBVY V0203105N007252200059N0160935N5-00285-01445100945ADDAA101000095GF100991999999999999999999MA1100985100595OC101085REMMET10001/03/12 10:53:02 METAR KBVY 031553Z 31014G21KT 10SM CLR M03/M14 A2982 RMK AO2 SLP094 T10281144 (DB)
0195725088547332012010316537+42584-070918FM-15+0033KBVY V0203405N00625012805MN0160935N5-00285-01225100915ADDAA101000095GA1085+012805999GD14991+0128059GF108991999999999999999999MA1100955100555REMMET10001/03/12 11:53:02 METAR KBVY 031653Z 34012KT 10SM OVC042 M03/M12 A2981 RMK AO2 SLP091 T10281122 (DB)
0253725088547332012010317537+42584-070918FM-15+0033KBVY V0203305N00625012805MN0160935N5-00445-01395100935ADDAA101000095GA1075+012805999GD13991+0128059GF107991999999999999999999KA1999M-00171KA2999N-00441MA1100955100555MD1140044+9999REMMET11801/03/12 12:53:02 METAR KBVY 031753Z 33012KT 10SM BKN042 M04/M14 A2981 RMK AO2 SLP093 T10441139 11017 21044 51004 (DB)
0172725088547332012010318537+42584-070918FM-15+0033KBVY V0203005N004652200059N0160935N5-00395-01565100965ADDAA101000095GF100991999999999999999999MA1100985100595OC100985REMMET10001/03/12 13:53:02 METAR KBVY 031853Z 30009G19KT 10SM CLR M04/M16 A2982 RMK AO2 SLP096 T10391156 (DB)
0172725088547332012010319537+42584-070918FM-15+0033KBVY V0203305N006252200059N0160935N5-00395-01675101015ADDAA101000095GF100991999999999999999999MA1101055100655OC100985REMMET10001/03/12 14:53:02 METAR KBVY 031953Z 33012G19KT 10SM CLR M04/M17 A2984 RMK AO2 SLP101 T10391167 (DB)
0192725088547332012010320537+42584-070918FM-15+0033KBVY V0203205N006252200059N0160935N5-00505-01675101115ADDAA101000095GF100991999999999999999999MA1101125100725MD1340174+9999OC100985REMMET10601/03/12 15:53:02 METAR KBVY 032053Z 32012G19KT 10SM CLR M05/M17 A2986 RMK AO2 SLP111 T10501167 53017 (WS)
0172725088547332012010321537+42584-070918FM-15+0033KBVY V0203205N006752200059N0160935N5-00675-01785101175ADDAA101000095GF100991999999999999999999MA1101195100795OC101135REMMET10001/03/12 16:53:02 METAR KBVY 032153Z 32013G22KT 10SM CLR M07/M18 A2988 RMK AO2 SLP117 T10671178 (WS)
0172725088547332012010322537+42584-070918FM-15+0033KBVY V0203105N007252200059N0160935N5-00725-01785101335ADDAA101000095GF100991999999999999999999MA1101355100965OC101135REMMET10001/03/12 17:53:02 METAR KBVY 032253Z 31014G22KT 10SM CLR M07/M18 A2993 RMK AO2 SLP133 T10721178 (WS)
0248725088547332012010323537+42584-070918FM-15+0033KBVY V0203305N006252200059N0160935N5-00835-01895101475ADDAA101000095GF100991999999999999999999KA1999M-00281KA2999N-00831MA1101495101095MD1340354+9999OC101345REMMET13601/03/12 18:53:02 METAR KBVY 032353Z 33012G26KT 10SM CLR M08/M19 A2997 RMK AO2 PK WND 32026/2344 SLP147 T10831189 11028 21083 53035 (WS)
0167725088547332012010400537+42584-070918FM-15+0033KBVY V0203205N006752200059N0160935N5-00945-02065101555ADDAA101000095GF100991999999999999999999MA1101565101165OC101035REMMET09501/03/12 19:53:01 METAR KBVY 040053Z 32013G20KT 10SM CLR M09/M21 A2999 RMK AO2 SLP155 T10941206
0167725088547332012010401537+42584-070918FM-15+0033KBVY V0203205N005752200059N0160935N5-01005-02065101585ADDAA101000095GF100991999999999999999999MA1101595101195OC101135REMMET09501/03/12 20:53:01 METAR KBVY 040153Z 32011G22KT 10SM CLR M10/M21 A3000 RMK AO2 SLP158 T11001206
0176725088547332012010402537+42584-070918FM-15+0033KBVY V0203205N005152200059N0160935N5-01065-01945101555ADDAA101000095GF100991999999999999999999MA1101565101165MD1040084+9999REMMET09801/03/12 21:53:01 METAR KBVY 040253Z 32010KT 10SM CLR M11/M19 A2999 RMK AO2 SLP155 T11061194 50008
0167725088547332012010403537+42584-070918FM-15+0033KBVY V0203205N006252200059N0160935N5-01115-01945101495ADDAA101000095GF100991999999999999999999MA1101525101135OC100935REMMET09501/03/12 22:53:01 METAR KBVY 040353Z 32012G18KT 10SM CLR M11/M19 A2998 RMK AO2 SLP149 T11111194
0177725088547332012010404537+42584-070918FM-15+0033KBVY V0203205N006752200059N0160935N5-01175-01945101545ADDAA101000095GF100991999999999999999999MA1101565101165OC100885REMMET10501/03/12 23:53:01 METAR KBVY 040453Z 32013G17KT 10SM CLR M12/M19 A2999 RMK AO2 SLP154 T11171194 400001117
0886725088547332012010404596+42584-070918SOD  +0033KBVY V020999999999999999999999999999+99999+99999999999ADDAA124000095KA1240M+00005KA2240N-01165MG1100564100544OE11240134132018445OE22240111833018445OE33240048799999995REMSOD73024 HR PRECIPITATION (IN):0.00  24 HR MAX TEMP (F):32 24 HR MAX TEMP TIME (LST):0014 24 HR MIN TEMP (F):11 24 HR MIN TEMP TIME (LST):2359 AVERAGE STATION PRESSURE:29.695 MINIMUM SEA LEVEL PRESSURE:29.69 TIME OF OCCURRENCE:0051 PEAK WIND SPEED (MPH):30  PEAK WIND DIR (DEG):320 PEAK WIND TIME (LST):1844  FASTEST 2MIN SPEED (MPH):25 FASTEST 2MIN DIR (DEG):330 FASTEST 2MIN TIME (LST):1844 AVERAGE WIND SPEED (MPH):10.9 24 HR AVG TEMP (F):22 HEATING DEGREE DAYS:43  COOLING DEGREE DAYS:0   LATEST DAY MAX TEMP (0700-1900 LST):29  LATEST NIGHT MIN TEMP(1900-0800 LST):24 HOURLY INCREMENTAL PRECIPITATION VALUES (IN):.00 0.00 0.00 0.00 0.00 0.00 0.00 0.00 0.00 0.00 0.00 0.00 0.00 0.00 0.00 0.00 0.00 0.00 0.00 0.00 0.00 0.00 0.00 0.00EQDR01     N7GJS072R02     N7GKS075
0214725088547332012010405537+42584-070918FM-15+0033KBVY V0203205N005752200059N0160935N5-01225-01945101635ADDAA101000095GF100991999999999999999999KA1999M-00831KA2999N-01221MA1101665101265MD1340094+9999REMMET11001/04/12 00:53:02 METAR KBVY 040553Z 32011KT 10SM CLR M12/M19 A3002 RMK AO2 SLP163 T11221194 11083 21122 53009
0156725088547332012010406537+42584-070918FM-15+0033KBVY V0203305N004652200059N0160935N5-01225-01895101715ADDAA101000095GF100991999999999999999999MA1101735101335REMMET09201/04/12 01:53:02 METAR KBVY 040653Z 33009KT 10SM CLR M12/M19 A3004 RMK AO2 SLP171 T11221189
0167725088547332012010407537+42584-070918FM-15+0033KBVY V0203105N005152200059N0160935N5-01285-01945101735ADDAA101000095GF100991999999999999999999MA1101765101365OC100885REMMET09501/04/12 02:53:02 METAR KBVY 040753Z 31010G17KT 10SM CLR M13/M19 A3005 RMK AO2 SLP173 T11281194
0176725088547332012010408537+42584-070918FM-15+0033KBVY V0203205N007752200059N0160935N5-01285-02005101755ADDAA101000095GF100991999999999999999999MA1101765101365MD1140114+9999REMMET09801/04/12 03:53:02 METAR KBVY 040853Z 32015KT 10SM CLR M13/M20 A3005 RMK AO2 SLP175 T11281200 51011
0156725088547332012010409537+42584-070918FM-15+0033KBVY V0203305N005152200059N0160935N5-01335-02005101745ADDAA101000095GF100991999999999999999999MA1101765101365REMMET09201/04/12 04:53:02 METAR KBVY 040953Z 33010KT 10SM CLR M13/M20 A3005 RMK AO2 SLP174 T11331200
0156725088547332012010410537+42584-070918FM-15+0033KBVY V0203205N004652200059N0160935N5-01335-02005101775ADDAA101000095GF100991999999999999999999MA1101795101405REMMET09201/04/12 05:53:02 METAR KBVY 041053Z 32009KT 10SM CLR M13/M20 A3006 RMK AO2 SLP177 T11331200
0219725088547332012010411537+42584-070918FM-15+0033KBVY V0203105N004652200059N0160935N5-01335-01945101775ADDAA101000095GF100991999999999999999999KA1999M-01221KA2999N-01331MA1101795101405MD1240024+9999REMMET11501/04/12 06:53:02 METAR KBVY 041153Z 31009KT 10SM CLR M13/M19 A3006 RMK AO2 SLP177 T11331194 11122 21133 52002 (SS)
0161725088547332012010412537+42584-070918FM-15+0033KBVY V0203205N006752200059N0160935N5-01285-01945101825ADDAA101000095GF100991999999999999999999MA1101835101435REMMET09701/04/12 07:53:02 METAR KBVY 041253Z 32013KT 10SM CLR M13/M19 A3007 RMK AO2 SLP182 T11281194 (SS)
0172725088547332012010413537+42584-070918FM-15+0033KBVY V0203005N002652200059N0160935N5-01115-01895101865ADDAA101000095GF100991999999999999999999MA1101865101465OC100725REMMET10001/04/12 08:53:02 METAR KBVY 041353Z 30005G14KT 10SM CLR M11/M19 A3008 RMK AO2 SLP186 T11111189 (SS)
0181725088547332012010414537+42584-070918FM-15+0033KBVY V0203005N005752200059N0160935N5-00945-01895101875ADDAA101000095GF100991999999999999999999MA1101905101505MD1140104+9999REMMET10301/04/12 09:53:02 METAR KBVY 041453Z 30011KT 10SM CLR M09/M19 A3009 RMK AO2 SLP187 T10941189 51010 (SS)
0161725088547332012010415537+42584-070918FM-15+0033KBVY V0202905N004652200059N0160935N5-00785-01945101785ADDAA101000095GF100991999999999999999999MA1101795101405REMMET09701/04/12 10:53:02 METAR KBVY 041553Z 29009KT 10SM CLR M08/M19 A3006 RMK AO2 SLP178 T10781194 (SS)
0161725088547332012010416537+42584-070918FM-15+0033KBVY V0202805N005152200059N0160935N5-00615-01945101665ADDAA101000095GF100991999999999999999999MA1101695101305REMMET09701/04/12 11:53:02 METAR KBVY 041653Z 28010KT 10SM CLR M06/M19 A3003 RMK AO2 SLP166 T10611194 (SS)
0219725088547332012010417537+42584-070918FM-15+0033KBVY V0203005N003652200059N0160935N5-00445-02005101575ADDAA101000095GF100991999999999999999999KA1999M-00441KA2999N-01331MA1101595101195MD1840304+9999REMMET11501/04/12 12:53:02 METAR KBVY 041753Z 30007KT 10SM CLR M04/M20 A3000 RMK AO2 SLP157 T10441200 11044 21133 58030 (SS)
0161725088547332012010418537+42584-070918FM-15+0033KBVY V0202505N003152200059N0160935N5-00335-02005101555ADDAA101000095GF100991999999999999999999MA1101565101165REMMET09701/04/12 13:53:02 METAR KBVY 041853Z 25006KT 10SM CLR M03/M20 A2999 RMK AO2 SLP155 T10331200 (SS)
0195725088547332012010419537+42584-070918FM-15+0033KBVY V0202305N004652200059N0160935N5-00335-01895101525ADDAA101000095GA1045+028965999GD12991+0289659GF104991999999999999999999MA1101525101135REMMET10001/04/12 14:53:02 METAR KBVY 041953Z 23009KT 10SM SCT095 M03/M19 A2998 RMK AO2 SLP152 T10331189 (WS)
0215725088547332012010420537+42584-070918FM-15+0033KBVY V0202605N00315030485MN0160935N5-00395-01895101535ADDAA101000095GA1075+030485999GD13991+0304859GF107991999999999999999999MA1101565101165MD1540034+9999REMMET10601/04/12 15:53:02 METAR KBVY 042053Z 26006KT 10SM BKN100 M04/M19 A2999 RMK AO2 SLP153 T10391189 55003 (WS)
0195725088547332012010421537+42584-070918FM-15+0033KBVY V0202505N00215030485MN0160935N5-00395-01835101525ADDAA101000095GA1085+030485999GD14991+0304859GF108991999999999999999999MA1101525101135REMMET10001/04/12 16:53:02 METAR KBVY 042153Z 25004KT 10SM OVC100 M04/M18 A2998 RMK AO2 SLP152 T10391183 (WS)
0195725088547332012010422537+42584-070918FM-15+0033KBVY V0202405N00215027435MN0160935N5-00395-01835101495ADDAA101000095GA1085+027435999GD14991+0274359GF108991999999999999999999MA1101525101135REMMET10001/04/12 17:53:02 METAR KBVY 042253Z 24004KT 10SM OVC090 M04/M18 A2998 RMK AO2 SLP149 T10391183 (WS)
0253725088547332012010423537+42584-070918FM-15+0033KBVY V0202305N00365024385MN0160935N5-00335-01785101515ADDAA101000095GA1085+024385999GD14991+0243859GF108991999999999999999999KA1999M-00281KA2999N-00441MA1101525101135MD1540024+9999REMMET11801/04/12 18:53:02 METAR KBVY 042353Z 23007KT 10SM OVC080 M03/M18 A2998 RMK AO2 SLP151 T10331178 11028 21044 55002 (WS)
0190725088547332012010500537+42584-070918FM-15+0033KBVY V0202405N00315025915MN0160935N5-00335-01785101465ADDAA101000095GA1085+025915999GD14991+0259159GF108991999999999999999999MA1101495101095REMMET09501/04/12 19:53:01 METAR KBVY 050053Z 24006KT 10SM OVC085 M03/M18 A2997 RMK AO2 SLP146 T10331178
0190725088547332012010501537+42584-070918FM-15+0033KBVY V0202305N00515024385MN0160935N5-00395-01725101385ADDAA101000095GA1085+024385999GD14991+0243859GF108991999999999999999999MA1101395100995REMMET09501/04/12 20:53:01 METAR KBVY 050153Z 23010KT 10SM OVC080 M04/M17 A2994 RMK AO2 SLP138 T10391172
0176725088547332012010502537+42584-070918FM-15+0033KBVY V0202305N005152200059N0160935N5-00395-01675101325ADDAA101000095GF100991999999999999999999MA1101355100965MD1840194+9999REMMET09801/04/12 21:53:01 METAR KBVY 050253Z 23010KT 10SM CLR M04/M17 A2993 RMK AO2 SLP132 T10391167 58019
0190725088547332012010503537+42584-070918FM-15+0033KBVY V0202405N00415025915MN0160935N5-00395-01615101285ADDAA101000095GA1085+025915999GD14991+0259159GF108991999999999999999999MA1101295100895REMMET09501/04/12 22:53:01 METAR KBVY 050353Z 24008KT 10SM OVC085 M04/M16 A2991 RMK AO2 SLP128 T10391161
0200725088547332012010504537+42584-070918FM-15+0033KBVY V0202505N00465024385MN0160935N5-00395-01565101235ADDAA101000095GA1085+024385999GD14991+0243859GF108991999999999999999999MA1101255100865REMMET10501/04/12 23:53:01 METAR KBVY 050453Z 25009KT 10SM OVC080 M04/M16 A2990 RMK AO2 SLP123 T10391156 410281133
0886725088547332012010504596+42584-070918SOD  +0033KBVY V020999999999999999999999999999+99999+99999999999ADDAA124000095KA1240M-00275KA2240N-01325MG1101244101224OE11240102832010135OE22240076033004595OE33240044399999995REMSOD73024 HR PRECIPITATION (IN):0.00  24 HR MAX TEMP (F):27 24 HR MAX TEMP TIME (LST):1451 24 HR MIN TEMP (F):8  24 HR MIN TEMP TIME (LST):0736 AVERAGE STATION PRESSURE:29.895 MINIMUM SEA LEVEL PRESSURE:29.89 TIME OF OCCURRENCE:2359 PEAK WIND SPEED (MPH):23  PEAK WIND DIR (DEG):320 PEAK WIND TIME (LST):1013  FASTEST 2MIN SPEED (MPH):17 FASTEST 2MIN DIR (DEG):330 FASTEST 2MIN TIME (LST):0459 AVERAGE WIND SPEED (MPH):9.9  24 HR AVG TEMP (F):18 HEATING DEGREE DAYS:47  COOLING DEGREE DAYS:0   LATEST DAY MAX TEMP (0700-1900 LST):27  LATEST NIGHT MIN TEMP(1900-0800 LST):8  HOURLY INCREMENTAL PRECIPITATION VALUES (IN):.00 0.00 0.00 0.00 0.00 0.00 0.00 0.00 0.00 0.00 0.00 0.00 0.00 0.00 0.00 0.00 0.00 0.00 0.00 0.00 0.00 0.00 0.00 0.00EQDR01     N7GJS072R02     N7GKS075
0248725088547332012010505537+42584-070918FM-15+0033KBVY V0202605N00365022865MN0160935N5-00445-01565101185ADDAA101000095GA1085+022865999GD14991+0228659GF108991999999999999999999KA1999M-00331KA2999N-00441MA1101195100795MD1840144+9999REMMET11301/05/12 00:53:02 METAR KBVY 050553Z 26007KT 10SM OVC075 M04/M16 A2988 RMK AO2 SLP118 T10441156 11033 21044 58014
0190725088547332012010506537+42584-070918FM-15+0033KBVY V0202405N00465021345MN0160935N5-00395-01505101125ADDAA101000095GA1085+021345999GD14991+0213459GF108991999999999999999999MA1101155100765REMMET09501/05/12 01:53:02 METAR KBVY 050653Z 24009KT 10SM OVC070 M04/M15 A2987 RMK AO2 SLP112 T10391150
0190725088547332012010507537+42584-070918FM-15+0033KBVY V0202505N00415021345MN0160935N5-00395-01505101095ADDAA101000095GA1085+021345999GD14991+0213459GF108991999999999999999999MA1101125100725REMMET09501/05/12 02:53:02 METAR KBVY 050753Z 25008KT 10SM OVC070 M04/M15 A2986 RMK AO2 SLP109 T10391150
0210725088547332012010508537+42584-070918FM-15+0033KBVY V0202305N00315019815MN0160935N5-00395-01505101065ADDAA101000095GA1085+019815999GD14991+0198159GF108991999999999999999999MA1101085100695MD1640124+9999REMMET10101/05/12 03:53:02 METAR KBVY 050853Z 23006KT 10SM OVC065 M04/M15 A2985 RMK AO2 SLP106 T10391150 56012
0190725088547332012010509537+42584-070918FM-15+0033KBVY V0202505N00365021345MN0160935N5-00395-01445101035ADDAA101000095GA1085+021345999GD14991+0213459GF108991999999999999999999MA1101055100655REMMET09501/05/12 04:53:02 METAR KBVY 050953Z 25007KT 10SM OVC070 M04/M14 A2984 RMK AO2 SLP103 T10391144
0190725088547332012010510537+42584-070918FM-15+0033KBVY V0202405N00215021345MN0160935N5-00395-01395100975ADDAA101000095GA1085+021345999GD14991+0213459GF108991999999999999999999MA1100985100595REMMET09501/05/12 05:53:02 METAR KBVY 051053Z 24004KT 10SM OVC070 M04/M14 A2982 RMK AO2 SLP097 T10391139
0253725088547332012010511537+42584-070918FM-15+0033KBVY V0202505N00265021345MN0160935N5-00395-01335100955ADDAA101000095GA1085+021345999GD14991+0213459GF108991999999999999999999KA1999M-00391KA2999N-00441MA1100985100595MD1640104+9999REMMET11801/05/12 06:53:02 METAR KBVY 051153Z 25005KT 10SM OVC070 M04/M13 A2982 RMK AO2 SLP095 T10391133 11039 21044 56010 (DB)
0195725088547332012010512537+42584-070918FM-15+0033KBVY V0202305N00315021345MN0160935N5-00335-01225100945ADDAA101000095GA1085+021345999GD14991+0213459GF108991999999999999999999MA1100985100595REMMET10001/05/12 07:53:02 METAR KBVY 051253Z 23006KT 10SM OVC070 M03/M12 A2982 RMK AO2 SLP094 T10331122 (DB)
0195725088547332012010513537+42584-070918FM-15+0033KBVY V0202405N00415019815MN0160935N5-00285-01175100995ADDAA101000095GA1085+019815999GD14991+0198159GF108991999999999999999999MA1101025100625REMMET10001/05/12 08:53:02 METAR KBVY 051353Z 24008KT 10SM OVC065 M03/M12 A2983 RMK AO2 SLP099 T10281117 (DB)
0215725088547332012010514537+42584-070918FM-15+0033KBVY V0202405N00415021345MN0160935N5-00175-01115100995ADDAA101000095GA1085+021345999GD14991+0213459GF108991999999999999999999MA1101025100625MD1340054+9999REMMET10601/05/12 09:53:02 METAR KBVY 051453Z 24008KT 10SM OVC070 M02/M11 A2983 RMK AO2 SLP099 T10171111 53005 (DB)
0195725088547332012010515537+42584-070918FM-15+0033KBVY V0202405N00365019815MN0160935N5-00065-01005100815ADDAA101000095GA1085+019815999GD14991+0198159GF108991999999999999999999MA1100855100455REMMET10001/05/12 10:53:02 METAR KBVY 051553Z 24007KT 10SM OVC065 M01/M10 A2978 RMK AO2 SLP081 T10061100 (DB)
0194725088547332012010516537+42584-070918FM-15+0033KBVY V0202705N004152200059N0160935N5+00225-00895100715ADDAA101000095GA1025+019815999GD11991+0198159GF102991999999999999999999MA1100755100355REMMET09901/05/12 11:53:02 METAR KBVY 051653Z 27008KT 10SM FEW065 02/M09 A2975 RMK AO2 SLP071 T00221089 (DB)
0252725088547332012010517537+42584-070918FM-15+0033KBVY V0209999V00315019815MN0160935N5+00225-00835100615ADDAA101000095GA1085+019815999GD14991+0198159GF108991999999999999999999KA1999M+00331KA2999N-00391MA1100645100255MD1640384+9999REMMET11701/05/12 12:53:02 METAR KBVY 051753Z VRB06KT 10SM OVC065 02/M08 A2972 RMK AO2 SLP061 T00221083 10033 21039 56038 (DB)
0194725088547332012010518537+42584-070918FM-15+0033KBVY V0202705N00315019815MN0160935N5+00285-00725100655ADDAA101000095GA1085+019815999GD14991+0198159GF108991999999999999999999MA1100685100285REMMET09901/05/12 13:53:02 METAR KBVY 051853Z 27006KT 10SM OVC065 03/M07 A2973 RMK AO2 SLP065 T00281072 (DB)
0205725088547332012010519537+42584-070918FM-15+0033KBVY V0202905N00415019815MN0160935N5+00285-00785100695ADDAA101000095GA1085+019815999GD14991+0198159GF108991999999999999999999MA1100715100325OC100825REMMET10201/05/12 14:53:02 METAR KBVY 051953Z 29008G16KT 10SM OVC065 03/M08 A2974 RMK AO2 SLP069 T00281078 (DB)
0252725088547332012010520537+42584-070918FM-15+0033KBVY V0202605N00365021345MN0160935N5+00175-00675100755ADDAA101000095GA1025+012805999GA2085+021345999GD11991+0128059GD24991+0213459GF108991999999999999999999MA1100785100385MD1340144+9999REMMET11201/05/12 15:53:02 METAR KBVY 052053Z 26007KT 10SM FEW042 OVC070 02/M07 A2976 RMK AO2 SLP075 T00171067 53014 (MG)
0194725088547332012010521537+42584-070918FM-15+0033KBVY V0202705N00415019815MN0160935N5+00115-00615100855ADDAA101000095GA1085+019815999GD14991+0198159GF108991999999999999999999MA1100885100495REMMET09901/05/12 16:53:02 METAR KBVY 052153Z 27008KT 10SM OVC065 01/M06 A2979 RMK AO2 SLP085 T00111061 (MG)
0270725088547332012010522537+42584-070918FM-15+0033KBVY V0202605N00315011285MN0160935N5+00115-00565100915ADDAA101000095GA1075+011285999GA2075+014025999GA3085+016765999GD13991+0112859GD23991+0140259GD34991+0167659GF108991999999999999999999MA1100955100555REMMET11301/05/12 17:53:02 METAR KBVY 052253Z 26006KT 10SM BKN037 BKN046 OVC055 01/M06 A2981 RMK AO2 SLP091 T00111056 (MG)
0328725088547332012010523537+42584-070918FM-15+0033KBVY V0202805N00465014635MN0160935N5+00115-00505101015ADDAA101000095GA1025+009145999GA2045+011895999GA3085+014635999GD11991+0091459GD22991+0118959GD34991+0146359GF108991999999999999999999KA1999M+00331KA2999N+00061MA1101055100655MD1340254+9999REMMET13101/05/12 18:53:02 METAR KBVY 052353Z 28009KT 10SM FEW030 SCT039 OVC048 01/M05 A2984 RMK AO2 SLP101 T00111050 10033 20006 53025 (MG)
0227725088547332012010600537+42584-070918FM-15+0033KBVY V0203205N00365011585MN0160935N5+00065-00615101075ADDAA101000095GA1075+011585999GA2085+014635999GD13991+0115859GD24991+0146359GF108991999999999999999999MA1101125100725REMMET10101/05/12 19:53:01 METAR KBVY 060053Z 32007KT 10SM BKN038 OVC048 01/M06 A2986 RMK AO2 SLP107 T00061061
0189725088547332012010601537+42584-070918FM-15+0033KBVY V0203305N00515010065MN0160935N5+00005-00785101175ADDAA101000095GA1085+010065999GD14991+0100659GF108991999999999999999999MA1101195100795REMMET09401/05/12 20:53:01 METAR KBVY 060153Z 33010KT 10SM OVC033 00/M08 A2988 RMK AO2 SLP117 T00001078
0176725088547332012010602537+42584-070918FM-15+0033KBVY V0202905N003152200059N0160935N5-00175-01065101215ADDAA101000095GF100991999999999999999999MA1101255100865MD1140204+9999REMMET09801/05/12 21:53:01 METAR KBVY 060253Z 29006KT 10SM CLR M02/M11 A2990 RMK AO2 SLP121 T10171106 51020
0156725088547332012010603537+42584-070918FM-15+0033KBVY V0202905N003152200059N0160935N5-00285-01115101235ADDAA101000095GF100991999999999999999999MA1101255100865REMMET09201/05/12 22:53:01 METAR KBVY 060353Z 29006KT 10SM CLR M03/M11 A2990 RMK AO2 SLP123 T10281111
0166725088547332012010604537+42584-070918FM-15+0033KBVY V0202805N003152200059N0160935N5-00395-01065101235ADDAA101000095GF100991999999999999999999MA1101255100865REMMET10201/05/12 23:53:01 METAR KBVY 060453Z 28006KT 10SM CLR M04/M11 A2990 RMK AO2 SLP123 T10391106 400331044
0886725088547332012010604596+42584-070918SOD  +0033KBVY V020999999999999999999999999999+99999+99999999999ADDAA124000095KA1240M+00335KA2240N-00435MG1100564100614OE11240107325014235OE22240076026014235OE33240036299999995REMSOD73024 HR PRECIPITATION (IN):0.00  24 HR MAX TEMP (F):38 24 HR MAX TEMP TIME (LST):1338 24 HR MIN TEMP (F):24 24 HR MIN TEMP TIME (LST):0148 AVERAGE STATION PRESSURE:29.695 MINIMUM SEA LEVEL PRESSURE:29.71 TIME OF OCCURRENCE:1329 PEAK WIND SPEED (MPH):24  PEAK WIND DIR (DEG):250 PEAK WIND TIME (LST):1423  FASTEST 2MIN SPEED (MPH):17 FASTEST 2MIN DIR (DEG):260 FASTEST 2MIN TIME (LST):1423 AVERAGE WIND SPEED (MPH):8.1  24 HR AVG TEMP (F):31 HEATING DEGREE DAYS:34  COOLING DEGREE DAYS:0   LATEST DAY MAX TEMP (0700-1900 LST):38  LATEST NIGHT MIN TEMP(1900-0800 LST):24 HOURLY INCREMENTAL PRECIPITATION VALUES (IN):.00 0.00 0.00 0.00 0.00 0.00 0.00 0.00 0.00 0.00 0.00 0.00 0.00 0.00 0.00 0.00 0.00 0.00 0.00 0.00 0.00 0.00 0.00 0.00EQDR01     N7GJS072R02     N7GKS075
0214725088547332012010605537+42584-070918FM-15+0033KBVY V0202805N002652200059N0160935N5-00395-01065101305ADDAA101000095GF100991999999999999999999KA1999M+00111KA2999N-00391MA1101325100925MD1340094+9999REMMET11001/06/12 00:53:02 METAR KBVY 060553Z 28005KT 10SM CLR M04/M11 A2992 RMK AO2 SLP130 T10391106 10011 21039 53009
0156725088547332012010606537+42584-070918FM-15+0033KBVY V0209999C000052200059N0160935N5-00395-01065101315ADDAA101000095GF100991999999999999999999MA1101355100965REMMET09201/06/12 01:53:02 METAR KBVY 060653Z 00000KT 10SM CLR M04/M11 A2993 RMK AO2 SLP131 T10391106
0228725088547332012010607537+42584-070918FM-15+0033KBVY V0202605N00155027435MN0160935N5-00335-01005101345ADDAA101000095GA1075+027435999GA2085+033535999GD13991+0274359GD24991+0335359GF108991999999999999999999MA1101355100965REMMET10201/06/12 02:53:02 METAR KBVY 060753Z 26003KT 10SM BKN090 OVC110 M03/M10 A2993 RMK AO2 SLP134 T10331100
0248725088547332012010608537+42584-070918FM-15+0033KBVY V0202505N00215015245MN0160935N5-00285-01065101325ADDAA101000095GA1075+015245999GA2085+022865999GD13991+0152459GD24991+0228659GF108991999999999999999999MA1101355100965MD1040024+9999REMMET10801/06/12 03:53:02 METAR KBVY 060853Z 25004KT 10SM BKN050 OVC075 M03/M11 A2993 RMK AO2 SLP132 T10281106 50002
0228725088547332012010609537+42584-070918FM-15+0033KBVY V0202105N00155015245MN0160935N5-00285-01065101295ADDAA101000025GA1075+015245999GA2085+021345999GD13991+0152459GD24991+0213459GF108991999999999999999999MA1101325100925REMMET10201/06/12 04:53:02 METAR KBVY 060953Z 21003KT 10SM BKN050 OVC070 M03/M11 A2992 RMK AO2 SLP129 T10281106
0245725088547332012010610537+42584-070918FM-15+0033KBVY V0201805N00155030485MN0160935N5-00285-00945101285ADDAA101000025GA1025+022865999GA2085+030485999GD11991+0228659GD24991+0304859GF108991999999999999999999MA1101325100925REMMET11901/06/12 05:53:02 METAR KBVY 061053Z 18003KT 10SM FEW075 OVC100 M03/M09 A2992 RMK AO2 SNB0958E12 SLP128 P0000 T10281094
0265725088547332012010611537+42584-070918FM-15+0033KBVY V0209999C00005021345MN0160935N5-00225-00835101245ADDAA101000095AA206000021GA1085+021345999GD14991+0213459GF108991999999999999999999KA1999M-00221KA2999N-00391MA1101255100865MD1840084+9999REMMET11901/06/12 06:53:02 METAR KBVY 061153Z 00000KT 10SM OVC070 M02/M08 A2990 RMK AO2 SLP124 60000 T10221083 11022 21039 58008
0233725088547332012010612537+42584-070918FM-15+0033KBVY V0209999C00005022865MN0160935N5-00115-00565101275ADDAA101000095GA1075+022865999GA2085+028965999GD13991+0228659GD24991+0289659GF108991999999999999999999MA1101295100895REMMET10701/06/12 07:53:02 METAR KBVY 061253Z 00000KT 10SM BKN075 OVC095 M01/M06 A2991 RMK AO2 SLP127 T10111056 (SS)
0270725088547332012010613537+42584-070918FM-15+0033KBVY V0201705N00215019815MN0160935N5+00005-00505101275ADDAA101000095GA1075+019815999GA2075+024385999GA3085+028965999GD13991+0198159GD23991+0243859GD34991+0289659GF108991999999999999999999MA1101295100895REMMET11301/06/12 08:53:02 METAR KBVY 061353Z 17004KT 10SM BKN065 BKN080 OVC095 00/M05 A2991 RMK AO2 SLP127 T00001050 (SS)
0214725088547332012010614537+42584-070918FM-15+0033KBVY V0201605N00365018295MN0160935N5+00065-00445101185ADDAA101000095GA1085+018295999GD14991+0182959GF108991999999999999999999MA1101225100825MD1840064+9999REMMET10501/06/12 09:53:02 METAR KBVY 061453Z 16007KT 10SM OVC060 01/M04 A2989 RMK AO2 SLP118 T00061044 58006 (SS)
0232725088547332012010615537+42584-070918FM-15+0033KBVY V0201705N00265022865MN0160935N5+00175-00335101065ADDAA101000095GA1045+018295999GA2085+022865999GD12991+0182959GD24991+0228659GF108991999999999999999999MA1101085100695REMMET10601/06/12 10:53:02 METAR KBVY 061553Z 17005KT 10SM SCT060 OVC075 02/M03 A2985 RMK AO2 SLP106 T00171033 (SS)
0160725088547332012010616537+42584-070918FM-15+0033KBVY V0201905N004152200059N0160935N5+00505-00225100885ADDAA101000095GF100991999999999999999999MA1100915100525REMMET09601/06/12 11:53:02 METAR KBVY 061653Z 19008KT 10SM CLR 05/M02 A2980 RMK AO2 SLP088 T00501022 (SS)
0218725088547332012010617537+42584-070918FM-15+0033KBVY V0201805N003152200059N0160935N5+00615-00175100775ADDAA101000095GF100991999999999999999999KA1999M+00611KA2999N-00221MA1100815100425MD1640414+9999REMMET11401/06/12 12:53:02 METAR KBVY 061753Z 18006KT 10SM CLR 06/M02 A2977 RMK AO2 SLP077 T00611017 10061 21022 56041 (SS)
0160725088547332012010618537+42584-070918FM-15+0033KBVY V0209999C000052200059N0160935N5+00725-00115100745ADDAA101000095GF100991999999999999999999MA1100785100385REMMET09601/06/12 13:53:02 METAR KBVY 061853Z 00000KT 10SM CLR 07/M01 A2976 RMK AO2 SLP074 T00721011 (SS)
0160725088547332012010619537+42584-070918FM-15+0033KBVY V0200605N001552200059N0160935N5+00565-00065100665ADDAA101000095GF100991999999999999999999MA1100715100325REMMET09601/06/12 14:53:02 METAR KBVY 061953Z 06003KT 10SM CLR 06/M01 A2974 RMK AO2 SLP066 T00561006 (SS)
0214725088547332012010620537+42584-070918FM-15+0033KBVY V0209999C00005045725MN0160935N5+00445-00065100655ADDAA101000095GA1075+045725999GD13991+0457259GF107991999999999999999999MA1100685100285MD1640124+9999REMMET10501/06/12 15:53:02 METAR KBVY 062053Z 00000KT 10SM BKN150 04/M01 A2973 RMK AO2 SLP065 T00441006 56012 (MG)
0160725088547332012010621537+42584-070918FM-15+0033KBVY V0209999C000052200059N0160935N5+00335-00065100645ADDAA101000095GF100991999999999999999999MA1100685100285REMMET09601/06/12 16:53:02 METAR KBVY 062153Z 00000KT 10SM CLR 03/M01 A2973 RMK AO2 SLP064 T00331006 (MG)
0160725088547332012010622537+42584-070918FM-15+0033KBVY V0209999C000052200059N0160935N5+00175-00115100665ADDAA101000095GF100991999999999999999999MA1100685100285REMMET09601/06/12 17:53:02 METAR KBVY 062253Z 00000KT 10SM CLR 02/M01 A2973 RMK AO2 SLP066 T00171011 (MG)
0217725088547332012010623537+42584-070918FM-15+0033KBVY V0209999C000052200059N0160935N5+00225+00005100695ADDAA101000095GF100991999999999999999999KA1999M+00721KA2999N+00111MA1100715100325MD1340044+9999REMMET11301/06/12 18:53:02 METAR KBVY 062353Z 00000KT 10SM CLR 02/00 A2974 RMK AO2 SLP069 T00220000 10072 20011 53004 (MG)
0155725088547332012010700537+42584-070918FM-15+0033KBVY V0209999C000052200059N0160935N5+00175-00065100735ADDAA101000095GF100991999999999999999999MA1100785100385REMMET09101/06/12 19:53:01 METAR KBVY 070053Z 00000KT 10SM CLR 02/M01 A2976 RMK AO2 SLP073 T00171006
0155725088547332012010701537+42584-070918FM-15+0033KBVY V0209999C000052200059N0160935N5+00065-00175100775ADDAA101000095GF100991999999999999999999MA1100815100425REMMET09101/06/12 20:53:01 METAR KBVY 070153Z 00000KT 10SM CLR 01/M02 A2977 RMK AO2 SLP077 T00061017
0176725088547332012010702537+42584-070918FM-15+0033KBVY V0203605N001552200059N0160935N5-00115-00285100745ADDAA101000095GF100991999999999999999999MA1100785100385MD1040054+9999REMMET09801/06/12 21:53:01 METAR KBVY 070253Z 36003KT 10SM CLR M01/M03 A2976 RMK AO2 SLP074 T10111028 50005
0158725088547332012010703537+42584-070918FM-15+0033KBVY V0209999C000052200019N9999997N5-00065-00285100725ADDAA101000095MA1100755100355REMMET08501/06/12 22:53:01 METAR KBVY 070353Z 00000KT M01/M03 A2975 RMK AO2 SLP072 T10061028 $EQDR01      7SKY009R02      7GAS009
0168725088547332012010704537+42584-070918FM-15+0033KBVY V0209999C000052200059N0160935N5-00175-00285100675ADDAA101000095GF100991999999999999999999MA1100715100325REMMET10401/06/12 23:53:01 METAR KBVY 070453Z 00000KT 10SM CLR M02/M03 A2974 RMK AO2 SLP067 T10171028 400721039 $
0886725088547332012010704596+42584-070918SOD  +0033KBVY V020999999999999999999999999999+99999+99999999999ADDAA124000025KA1240M+00725KA2240N-00385MG1100634100644OE11240067116012065OE22240053619011515OE33240011699999995REMSOD73024 HR PRECIPITATION (IN):T     24 HR MAX TEMP (F):45 24 HR MAX TEMP TIME (LST):1354 24 HR MIN TEMP (F):25 24 HR MIN TEMP TIME (LST):0216 AVERAGE STATION PRESSURE:29.715 MINIMUM SEA LEVEL PRESSURE:29.72 TIME OF OCCURRENCE:2359 PEAK WIND SPEED (MPH):15  PEAK WIND DIR (DEG):160 PEAK WIND TIME (LST):1206  FASTEST 2MIN SPEED (MPH):12 FASTEST 2MIN DIR (DEG):190 FASTEST 2MIN TIME (LST):1151 AVERAGE WIND SPEED (MPH):2.6  24 HR AVG TEMP (F):35 HEATING DEGREE DAYS:30  COOLING DEGREE DAYS:0   LATEST DAY MAX TEMP (0700-1900 LST):45  LATEST NIGHT MIN TEMP(1900-0800 LST):25 HOURLY INCREMENTAL PRECIPITATION VALUES (IN):.00 0.00 0.00 0.00 T    T    0.00 0.00 0.00 0.00 0.00 0.00 0.00 0.00 0.00 0.00 0.00 0.00 0.00 0.00 0.00 0.00 0.00 0.00EQDR01     N7GJS072R02     N7GKS075
0222725088547332012010705537+42584-070918FM-15+0033KBVY V0203505N002652200059N0160935N5-00225-00395100645ADDAA101000095GF100991999999999999999999KA1999M+00221KA2999N-00281MA1100685100285MD1640104+9999REMMET11801/07/12 00:53:02 METAR KBVY 070553Z 35005KT 10SM CLR M02/M04 A2973 RMK AO2 SLP064 6//// T10221039 10022 21028 56010 $
0158725088547332012010706537+42584-070918FM-15+0033KBVY V0209999C000052200059N0160935N5-00225-00445100675ADDAA101000095GF100991999999999999999999MA1100715100325REMMET09401/07/12 01:53:02 METAR KBVY 070653Z 00000KT 10SM CLR M02/M04 A2974 RMK AO2 SLP067 T10221044 $
0158725088547332012010707537+42584-070918FM-15+0033KBVY V0209999C000052200059N0160935N5-00285-00445100685ADDAA101000095GF100991999999999999999999MA1100715100325REMMET09401/07/12 02:53:02 METAR KBVY 070753Z 00000KT 10SM CLR M03/M04 A2974 RMK AO2 SLP068 T10281044 $
0178725088547332012010708537+42584-070918FM-15+0033KBVY V0209999C000052200059N0160935N5-00115-00395100655ADDAA101000095GF100991999999999999999999MA1100685100285MD1040004+9999REMMET10001/07/12 03:53:02 METAR KBVY 070853Z 00000KT 10SM CLR M01/M04 A2973 RMK AO2 SLP065 T10111039 50000 $
0158725088547332012010709537+42584-070918FM-15+0033KBVY V0209999C000052200059N0160935N5-00175-00395100655ADDAA101000095GF100991999999999999999999MA1100685100285REMMET09401/07/12 04:53:02 METAR KBVY 070953Z 00000KT 10SM CLR M02/M04 A2973 RMK AO2 SLP065 T10171039 $
0158725088547332012010710537+42584-070918FM-15+0033KBVY V0203605N001552200059N0160935N5-00175-00395100675ADDAA101000095GF100991999999999999999999MA1100715100325REMMET09401/07/12 05:53:02 METAR KBVY 071053Z 36003KT 10SM CLR M02/M04 A2974 RMK AO2 SLP067 T10171039 $
0227725088547332012010711537+42584-070918FM-15+0033KBVY V0209999C000052200059N0160935N5-00335-00505100675ADDAA101000095GF100991999999999999999999KA1999M-00111KA2999N-00391MA1100715100325MD1040024+9999REMMET12301/07/12 06:53:02 METAR KBVY 071153Z 00000KT 10SM CLR M03/M05 A2974 RMK AO2 SLP067 7//// T10331050 11011 21039 50002 $ (DB)
0162725088547332012010712537+42584-070918FM-15+0033KBVY V0203405N002152200059N0144845N5-00285-00445100735ADDAA101000095GF100991999999999999999999MA1100755100355REMMET09801/07/12 07:53:02 METAR KBVY 071253Z 34004KT 9SM CLR M03/M04 A2975 RMK AO2 SLP073 T10281044 $ (DB)
0160725088547332012010713537+42584-070918FM-15+0033KBVY V0209999C000052200059N0160935N5+00065-00225100725ADDAA101000095GF100991999999999999999999MA1100755100355REMMET09601/07/12 08:53:02 METAR KBVY 071353Z 00000KT 10SM CLR 01/M02 A2975 RMK AO2 SLP072 T00061022 (DB)
0180725088547332012010714537+42584-070918FM-15+0033KBVY V0209999C000052200059N0160935N5+00445-00065100705ADDAA101000095GF100991999999999999999999MA1100755100355MD1040034+9999REMMET10201/07/12 09:53:02 METAR KBVY 071453Z 00000KT 10SM CLR 04/M01 A2975 RMK AO2 SLP070 T00441006 50003 (DB)
0160725088547332012010715537+42584-070918FM-15+0033KBVY V0209999C000052200059N0160935N5+00615-00065100585ADDAA101000095GF100991999999999999999999MA1100615100225REMMET09601/07/12 10:53:02 METAR KBVY 071553Z 00000KT 10SM CLR 06/M01 A2971 RMK AO2 SLP058 T00611006 (DB)
0160725088547332012010716537+42584-070918FM-15+0033KBVY V0209999C000052200059N0160935N5+00895-00065100445ADDAA101000095GF100991999999999999999999MA1100475100085REMMET09601/07/12 11:53:02 METAR KBVY 071653Z 00000KT 10SM CLR 09/M01 A2967 RMK AO2 SLP044 T00891006 (DB)
0217725088547332012010717537+42584-070918FM-15+0033KBVY V0201805N001552200059N0160935N5+01065+00005100385ADDAA101000095GF100991999999999999999999KA1999M+01061KA2999N-00391MA1100445100055MD1640304+9999REMMET11301/07/12 12:53:02 METAR KBVY 071753Z 18003KT 10SM CLR 11/00 A2966 RMK AO2 SLP038 T01060000 10106 21039 56030 (DB)
0159725088547332012010718537+42584-070918FM-15+0033KBVY V0201305N001552200059N0160935N5+01285+00005100335ADDAA101000095GF100991999999999999999999MA1100375099985REMMET09501/07/12 13:53:02 METAR KBVY 071853Z 13003KT 10SM CLR 13/00 A2964 RMK AO2 SLP033 T01280000 (DB)
0160725088547332012010719537+42584-070918FM-15+0033KBVY V0202605N003152200059N0160935N5+01445-00065100375ADDAA101000095GF100991999999999999999999MA1100415100015REMMET09601/07/12 14:53:02 METAR KBVY 071953Z 26006KT 10SM CLR 14/M01 A2965 RMK AO2 SLP037 T01441006 (DB)
0214725088547332012010720537+42584-070918FM-15+0033KBVY V0202705N00315019815MN0160935N5+01335-00065100445ADDAA101000095GA1085+019815999GD14991+0198159GF108991999999999999999999MA1100475100085MD1340064+9999REMMET10501/07/12 15:53:02 METAR KBVY 072053Z 27006KT 10SM OVC065 13/M01 A2967 RMK AO2 SLP044 T01331006 53006 (WS)
0193725088547332012010721537+42584-070918FM-15+0033KBVY V0209999C00005019815MN0160935N5+00725+00175100555ADDAA101000095GA1085+019815999GD14991+0198159GF108991999999999999999999MA1100585100185REMMET09801/07/12 16:53:02 METAR KBVY 072153Z 00000KT 10SM OVC065 07/02 A2970 RMK AO2 SLP055 T00720017 (WS)
0159725088547332012010722537+42584-070918FM-15+0033KBVY V0203205N002652200059N0160935N5+00565+00115100675ADDAA101000095GF100991999999999999999999MA1100715100325REMMET09501/07/12 17:53:02 METAR KBVY 072253Z 32005KT 10SM CLR 06/01 A2974 RMK AO2 SLP067 T00560011 (WS)
0252725088547332012010723537+42584-070918FM-15+0033KBVY V0202905N003652200059N0160935N5+00895-00065100755ADDAA101000095GA1045+021345999GD12991+0213459GF104991999999999999999999KA1999M+01441KA2999N+00441MA1100785100385MD1140304+9999REMMET11701/07/12 18:53:02 METAR KBVY 072353Z 29007KT 10SM SCT070 09/M01 A2976 RMK AO2 SLP075 T00891006 10144 20044 51030 (WS)
0165725088547332012010800537+42584-070918FM-15+0033KBVY V0202805N004152200059N0160935N5+00945+00005100825ADDAA101000095GF100991999999999999999999MA1100855100455OC100935REMMET09301/07/12 19:53:01 METAR KBVY 080053Z 28008G18KT 10SM CLR 09/00 A2978 RMK AO2 SLP082 T00940000
0155725088547332012010801537+42584-070918FM-15+0033KBVY V0203005N003152200059N0160935N5+00835-00065100865ADDAA101000095GF100991999999999999999999MA1100915100525REMMET09101/07/12 20:53:01 METAR KBVY 080153Z 30006KT 10SM CLR 08/M01 A2980 RMK AO2 SLP086 T00831006
0175725088547332012010802537+42584-070918FM-15+0033KBVY V0202805N003152200059N0160935N5+00725-00065100965ADDAA101000095GF100991999999999999999999MA1101025100625MD1340224+9999REMMET09701/07/12 21:53:01 METAR KBVY 080253Z 28006KT 10SM CLR 07/M01 A2983 RMK AO2 SLP096 T00721006 53022
0155725088547332012010803537+42584-070918FM-15+0033KBVY V0202805N004152200059N0160935N5+00675-00175101025ADDAA101000095GF100991999999999999999999MA1101055100655REMMET09101/07/12 22:53:01 METAR KBVY 080353Z 28008KT 10SM CLR 07/M02 A2984 RMK AO2 SLP102 T00671017
0165725088547332012010804537+42584-070918FM-15+0033KBVY V0202505N004152200059N0160935N5+00615-00285101085ADDAA101000095GF100991999999999999999999MA1101125100725REMMET10101/07/12 23:53:01 METAR KBVY 080453Z 25008KT 10SM CLR 06/M03 A2986 RMK AO2 SLP108 T00611028 401441039
0886725088547332012010804596+42584-070918SOD  +0033KBVY V020999999999999999999999999999+99999+99999999999ADDAA124000095KA1240M+01445KA2240N-00385MG1100244100344OE11240093928019455OE22240067130020095OE33240016599999995REMSOD73024 HR PRECIPITATION (IN):0.00  24 HR MAX TEMP (F):58 24 HR MAX TEMP TIME (LST):1516 24 HR MIN TEMP (F):25 24 HR MIN TEMP TIME (LST):0738 AVERAGE STATION PRESSURE:29.600 MINIMUM SEA LEVEL PRESSURE:29.63 TIME OF OCCURRENCE:1421 PEAK WIND SPEED (MPH):21  PEAK WIND DIR (DEG):280 PEAK WIND TIME (LST):1945  FASTEST 2MIN SPEED (MPH):15 FASTEST 2MIN DIR (DEG):300 FASTEST 2MIN TIME (LST):2009 AVERAGE WIND SPEED (MPH):3.7  24 HR AVG TEMP (F):42 HEATING DEGREE DAYS:23  COOLING DEGREE DAYS:0   LATEST DAY MAX TEMP (0700-1900 LST):58  LATEST NIGHT MIN TEMP(1900-0800 LST):25 HOURLY INCREMENTAL PRECIPITATION VALUES (IN):.00 0.00 0.00 0.00 0.00 0.00 0.00 0.00 0.00 0.00 0.00 0.00 0.00 0.00 0.00 0.00 0.00 0.00 0.00 0.00 0.00 0.00 0.00 0.00EQDR01     N7GJS072R02     N7GKS075
0213725088547332012010805537+42584-070918FM-15+0033KBVY V0202505N002652200059N0160935N5+00505-00335101175ADDAA101000095GF100991999999999999999999KA1999M+01001KA2999N+00501MA1101225100825MD1340214+9999REMMET10901/08/12 00:53:02 METAR KBVY 080553Z 25005KT 10SM CLR 05/M03 A2989 RMK AO2 SLP117 T00501033 10100 20050 53021
0155725088547332012010806537+42584-070918FM-15+0033KBVY V0202705N003652200059N0160935N5+00505-00285101265ADDAA101000095GF100991999999999999999999MA1101295100895REMMET09101/08/12 01:53:02 METAR KBVY 080653Z 27007KT 10SM CLR 05/M03 A2991 RMK AO2 SLP126 T00501028
0155725088547332012010807537+42584-070918FM-15+0033KBVY V0202705N002152200059N0160935N5+00395-00335101335ADDAA101000095GF100991999999999999999999MA1101395100995REMMET09101/08/12 02:53:02 METAR KBVY 080753Z 27004KT 10SM CLR 04/M03 A2994 RMK AO2 SLP133 T00391033
0175725088547332012010808537+42584-070918FM-15+0033KBVY V0202705N003152200059N0160935N5+00335-00335101345ADDAA101000095GF100991999999999999999999MA1101395100995MD1140174+9999REMMET09701/08/12 03:53:02 METAR KBVY 080853Z 27006KT 10SM CLR 03/M03 A2994 RMK AO2 SLP134 T00331033 51017
0155725088547332012010809537+42584-070918FM-15+0033KBVY V0202605N003152200059N0160935N5+00285-00335101425ADDAA101000095GF100991999999999999999999MA1101465101065REMMET09101/08/12 04:53:02 METAR KBVY 080953Z 26006KT 10SM CLR 03/M03 A2996 RMK AO2 SLP142 T00281033
0155725088547332012010810537+42584-070918FM-15+0033KBVY V0202705N002152200059N0160935N5+00225-00335101525ADDAA101000095GF100991999999999999999999MA1101565101165REMMET09101/08/12 05:53:02 METAR KBVY 081053Z 27004KT 10SM CLR 02/M03 A2999 RMK AO2 SLP152 T00221033
0218725088547332012010811537+42584-070918FM-15+0033KBVY V0202605N002652200059N0160935N5+00225-00395101605ADDAA101000095GF100991999999999999999999KA1999M+00501KA2999N+00171MA1101665101265MD1340264+9999REMMET11401/08/12 06:53:02 METAR KBVY 081153Z 26005KT 10SM CLR 02/M04 A3002 RMK AO2 SLP160 T00221039 10050 20017 53026 (WS)
0194725088547332012010812537+42584-070918FM-15+0033KBVY V0203105N001552200059N0160935N5+00175-00395101745ADDAA101000095GA1025+076205999GD11991+0762059GF102991999999999999999999MA1101795101405REMMET09901/08/12 07:53:02 METAR KBVY 081253Z 31003KT 10SM FEW250 02/M04 A3006 RMK AO2 SLP174 T00171039 (WS)
0194725088547332012010813537+42584-070918FM-15+0033KBVY V0209999C00005013415MN0160935N5+00335-00335101855ADDAA101000095GA1075+013415999GD13991+0134159GF107991999999999999999999MA1101905101505REMMET09901/08/12 08:53:02 METAR KBVY 081353Z 00000KT 10SM BKN044 03/M03 A3009 RMK AO2 SLP185 T00331033 (WS)
0214725088547332012010814537+42584-070918FM-15+0033KBVY V0202805N00215013415MN0160935N5+00445-00395101895ADDAA101000095GA1075+013415999GD13991+0134159GF107991999999999999999999MA1101935101535MD1140284+9999REMMET10501/08/12 09:53:02 METAR KBVY 081453Z 28004KT 10SM BKN044 04/M04 A3010 RMK AO2 SLP189 T00441039 51028 (WS)
0205725088547332012010815537+42584-070918FM-15+0033KBVY V0203205N00515013415MN0160935N5+00505-00505101905ADDAA101000095GA1075+013415999GD13991+0134159GF107991999999999999999999MA1101935101535OC100885REMMET10201/08/12 10:53:02 METAR KBVY 081553Z 32010G17KT 10SM BKN044 05/M05 A3010 RMK AO2 SLP190 T00501050 (WS)
0194725088547332012010816537+42584-070918FM-15+0033KBVY V0203005N00365013415MN0160935N5+00565-00505101875ADDAA101000095GA1085+013415999GD14991+0134159GF108991999999999999999999MA1101905101505REMMET09901/08/12 11:53:02 METAR KBVY 081653Z 30007KT 10SM OVC044 06/M05 A3009 RMK AO2 SLP187 T00561050 (WS)
0252725088547332012010817537+42584-070918FM-15+0033KBVY V0202705N00415013415MN0160935N5+00565-00565101835ADDAA101000095GA1085+013415999GD14991+0134159GF108991999999999999999999KA1999M+00611KA2999N+00171MA1101865101465MD1840064+9999REMMET11701/08/12 12:53:02 METAR KBVY 081753Z 27008KT 10SM OVC044 06/M06 A3008 RMK AO2 SLP183 T00561056 10061 20017 58006 (WS)
0194725088547332012010818537+42584-070918FM-15+0033KBVY V0202605N00315014025MN0160935N5+00565-00565101855ADDAA101000095GA1085+014025999GD14991+0140259GF108991999999999999999999MA1101905101505REMMET09901/08/12 13:53:02 METAR KBVY 081853Z 26006KT 10SM OVC046 06/M06 A3009 RMK AO2 SLP185 T00561056 (WS)
0194725088547332012010819537+42584-070918FM-15+0033KBVY V0203005N00465014025MN0160935N5+00505-00565101935ADDAA101000095GA1085+014025999GD14991+0140259GF108991999999999999999999MA1101965101575REMMET09901/08/12 14:53:02 METAR KBVY 081953Z 30009KT 10SM OVC046 05/M06 A3011 RMK AO2 SLP193 T00501056 (WS)
0214725088547332012010820537+42584-070918FM-15+0033KBVY V0202805N00265015245MN0160935N5+00445-00675102005ADDAA101000095GA1085+015245999GD14991+0152459GF108991999999999999999999MA1102035101635MD1340164+9999REMMET10501/08/12 15:53:02 METAR KBVY 082053Z 28005KT 10SM OVC050 04/M07 A3013 RMK AO2 SLP200 T00441067 53016 TSNO
0194725088547332012010821537+42584-070918FM-15+0033KBVY V0203405N00315016765MN0160935N5+00335-00615102085ADDAA101000095GA1085+016765999GD14991+0167659GF108991999999999999999999MA1102105101705REMMET09901/08/12 16:53:02 METAR KBVY 082153Z 34006KT 10SM OVC055 03/M06 A3015 RMK AO2 SLP208 T00331061 (JR)
0194725088547332012010822537+42584-070918FM-15+0033KBVY V0203205N00215016765MN0160935N5+00285-00615102175ADDAA101000095GA1085+016765999GD14991+0167659GF108991999999999999999999MA1102205101805REMMET09901/08/12 17:53:02 METAR KBVY 082253Z 32004KT 10SM OVC055 03/M06 A3018 RMK AO2 SLP217 T00281061 (JR)
0252725088547332012010823537+42584-070918FM-15+0033KBVY V0203105N00215018295MN0160935N5+00175-00615102245ADDAA101000095GA1085+018295999GD14991+0182959GF108991999999999999999999KA1999M+00611KA2999N+00171MA1102275101875MD1240234+9999REMMET11701/08/12 18:53:02 METAR KBVY 082353Z 31004KT 10SM OVC060 02/M06 A3020 RMK AO2 SLP224 T00171061 10061 20017 52023 (JR)
0189725088547332012010900537+42584-070918FM-15+0033KBVY V0202905N00215018295MN0160935N5+00225-00785102305ADDAA101000095GA1085+018295999GD14991+0182959GF108991999999999999999999MA1102345101945REMMET09401/08/12 19:53:01 METAR KBVY 090053Z 29004KT 10SM OVC060 02/M08 A3022 RMK AO2 SLP230 T00221078
0189725088547332012010901537+42584-070918FM-15+0033KBVY V0203305N00515018295MN0160935N5+00065-00725102375ADDAA101000095GA1075+018295999GD13991+0182959GF107991999999999999999999MA1102405102005REMMET09401/08/12 20:53:01 METAR KBVY 090153Z 33010KT 10SM BKN060 01/M07 A3024 RMK AO2 SLP237 T00061072
0176725088547332012010902537+42584-070918FM-15+0033KBVY V0203405N003652200059N0160935N5-00115-00835102415ADDAA101000095GF100991999999999999999999MA1102445102045MD1140184+9999REMMET09801/08/12 21:53:01 METAR KBVY 090253Z 34007KT 10SM CLR M01/M08 A3025 RMK AO2 SLP241 T10111083 51018
0156725088547332012010903537+42584-070918FM-15+0033KBVY V0203205N005152200059N0160935N5-00175-00945102445ADDAA101000095GF100991999999999999999999MA1102475102075REMMET09201/08/12 22:53:01 METAR KBVY 090353Z 32010KT 10SM CLR M02/M09 A3026 RMK AO2 SLP244 T10171094
0166725088547332012010904537+42584-070918FM-15+0033KBVY V0203105N003652200059N0160935N5-00285-01065102455ADDAA101000095GF100991999999999999999999MA1102475102075REMMET10201/08/12 23:53:01 METAR KBVY 090453Z 31007KT 10SM CLR M03/M11 A3026 RMK AO2 SLP245 T10281106 400611028
0886725088547332012010904596+42584-070918SOD  +0033KBVY V020999999999999999999999999999+99999+99999999999ADDAA124000095KA1240M+00615KA2240N-00275MG1101344101084OE11240098332023125OE22240067133023135OE33240030499999995REMSOD73024 HR PRECIPITATION (IN):0.00  24 HR MAX TEMP (F):43 24 HR MAX TEMP TIME (LST):1343 24 HR MIN TEMP (F):27 24 HR MIN TEMP TIME (LST):2359 AVERAGE STATION PRESSURE:29.925 MINIMUM SEA LEVEL PRESSURE:29.85 TIME OF OCCURRENCE:0020 PEAK WIND SPEED (MPH):22  PEAK WIND DIR (DEG):320 PEAK WIND TIME (LST):2312  FASTEST 2MIN SPEED (MPH):15 FASTEST 2MIN DIR (DEG):330 FASTEST 2MIN TIME (LST):2313 AVERAGE WIND SPEED (MPH):6.8  24 HR AVG TEMP (F):35 HEATING DEGREE DAYS:30  COOLING DEGREE DAYS:0   LATEST DAY MAX TEMP (0700-1900 LST):43  LATEST NIGHT MIN TEMP(1900-0800 LST):35 HOURLY INCREMENTAL PRECIPITATION VALUES (IN):.00 0.00 0.00 0.00 0.00 0.00 0.00 0.00 0.00 0.00 0.00 0.00 0.00 0.00 0.00 0.00 0.00 0.00 0.00 0.00 0.00 0.00 0.00 0.00EQDR01     N7GJS072R02     N7GKS075
0214725088547332012010905537+42584-070918FM-15+0033KBVY V0203005N003652200059N0160935N5-00285-01065102465ADDAA101000095GF100991999999999999999999KA1999M+00281KA2999N-00331MA1102515102115MD1140054+9999REMMET11001/09/12 00:53:02 METAR KBVY 090553Z 30007KT 10SM CLR M03/M11 A3027 RMK AO2 SLP246 T10281106 10028 21033 51005
0156725088547332012010906537+42584-070918FM-15+0033KBVY V0203105N003652200059N0160935N5-00335-01115102515ADDAA101000095GF100991999999999999999999MA1102545102145REMMET09201/09/12 01:53:02 METAR KBVY 090653Z 31007KT 10SM CLR M03/M11 A3028 RMK AO2 SLP251 T10331111
0156725088547332012010907537+42584-070918FM-15+0033KBVY V0203205N004152200059N0160935N5-00395-01175102525ADDAA101000095GF100991999999999999999999MA1102545102145REMMET09201/09/12 02:53:02 METAR KBVY 090753Z 32008KT 10SM CLR M04/M12 A3028 RMK AO2 SLP252 T10391117
0176725088547332012010908537+42584-070918FM-15+0033KBVY V0203205N003152200059N0160935N5-00505-01115102525ADDAA101000095GF100991999999999999999999MA1102545102145MD1140064+9999REMMET09801/09/12 03:53:02 METAR KBVY 090853Z 32006KT 10SM CLR M05/M11 A3028 RMK AO2 SLP252 T10501111 51006
0156725088547332012010909537+42584-070918FM-15+0033KBVY V0203305N003152200059N0160935N5-00505-01115102545ADDAA101000095GF100991999999999999999999MA1102575102175REMMET09201/09/12 04:53:02 METAR KBVY 090953Z 33006KT 10SM CLR M05/M11 A3029 RMK AO2 SLP254 T10501111
0156725088547332012010910537+42584-070918FM-15+0033KBVY V0203305N002652200059N0160935N5-00615-01115102545ADDAA101000095GF100991999999999999999999MA1102575102175REMMET09201/09/12 05:53:02 METAR KBVY 091053Z 33005KT 10SM CLR M06/M11 A3029 RMK AO2 SLP254 T10611111
0253725088547332012010911537+42584-070918FM-15+0033KBVY V0203105N002152200059N0160935N5-00565-01175102535ADDAA101000095GA1025+028965999GD11991+0289659GF102991999999999999999999KA1999M-00281KA2999N-00611MA1102575102175MD1040014+9999REMMET11801/09/12 06:53:02 METAR KBVY 091153Z 31004KT 10SM FEW095 M06/M12 A3029 RMK AO2 SLP253 T10561117 11028 21061 50001 (DB)
0195725088547332012010912537+42584-070918FM-15+0033KBVY V0209999C00005028965MN0160935N5-00505-01065102555ADDAA101000095GA1085+028965999GD14991+0289659GF108991999999999999999999MA1102575102175REMMET10001/09/12 07:53:02 METAR KBVY 091253Z 00000KT 10SM OVC095 M05/M11 A3029 RMK AO2 SLP255 T10501106 (DB)
0195725088547332012010913537+42584-070918FM-15+0033KBVY V0209999C00005030485MN0160935N5-00335-01065102555ADDAA101000095GA1085+030485999GD14991+0304859GF108991999999999999999999MA1102575102175REMMET10001/09/12 08:53:02 METAR KBVY 091353Z 00000KT 10SM OVC100 M03/M11 A3029 RMK AO2 SLP255 T10331106 (DB)
0215725088547332012010914537+42584-070918FM-15+0033KBVY V0209999C00005030485MN0160935N5-00225-01065102535ADDAA101000095GA1085+030485999GD14991+0304859GF108991999999999999999999MA1102575102175MD1040014+9999REMMET10601/09/12 09:53:02 METAR KBVY 091453Z 00000KT 10SM OVC100 M02/M11 A3029 RMK AO2 SLP253 T10221106 50001 (DB)
0195725088547332012010915537+42584-070918FM-15+0033KBVY V0202305N00215030485MN0160935N5-00065-01005102455ADDAA101000095GA1085+030485999GD14991+0304859GF108991999999999999999999MA1102475102075REMMET10001/09/12 10:53:02 METAR KBVY 091553Z 23004KT 10SM OVC100 M01/M10 A3026 RMK AO2 SLP245 T10061100 (DB)
0194725088547332012010916537+42584-070918FM-15+0033KBVY V0209999V00215028965MN0160935N5+00005-01115102315ADDAA101000095GA1085+028965999GD14991+0289659GF108991999999999999999999MA1102345101945REMMET09901/09/12 11:53:02 METAR KBVY 091653Z VRB04KT 10SM OVC095 00/M11 A3022 RMK AO2 SLP231 T00001111 (DB)
0252725088547332012010917537+42584-070918FM-15+0033KBVY V0202505N001552200059N0160935N5+00115-01175102175ADDAA101000095GA1045+027435999GD12991+0274359GF104991999999999999999999KA1999M+00171KA2999N-00611MA1102205101805MD1840364+9999REMMET11701/09/12 12:53:02 METAR KBVY 091753Z 25003KT 10SM SCT090 01/M12 A3018 RMK AO2 SLP217 T00111117 10017 21061 58036 (DB)
0160725088547332012010918537+42584-070918FM-15+0033KBVY V0201805N002152200059N0160935N5+00285-01115102085ADDAA101000095GF100991999999999999999999MA1102105101705REMMET09601/09/12 13:53:02 METAR KBVY 091853Z 18004KT 10SM CLR 03/M11 A3015 RMK AO2 SLP208 T00281111 (DB)
0160725088547332012010919537+42584-070918FM-15+0033KBVY V0201805N003152200059N0160935N5+00335-01115102035ADDAA101000095GF100991999999999999999999MA1102075101675REMMET09601/09/12 14:53:02 METAR KBVY 091953Z 18006KT 10SM CLR 03/M11 A3014 RMK AO2 SLP203 T00331111 (DB)
0180725088547332012010920537+42584-070918FM-15+0033KBVY V0201405N002152200059N0160935N5+00225-00835101995ADDAA101000095GF100991999999999999999999MA1102035101635MD1640194+9999REMMET10201/09/12 15:53:02 METAR KBVY 092053Z 14004KT 10SM CLR 02/M08 A3013 RMK AO2 SLP199 T00221083 56019 TSNO
0160725088547332012010921537+42584-070918FM-15+0033KBVY V0201605N001552200059N0160935N5+00065-00725101945ADDAA101000095GF100991999999999999999999MA1101965101575REMMET09601/09/12 16:53:02 METAR KBVY 092153Z 16003KT 10SM CLR 01/M07 A3011 RMK AO2 SLP194 T00061072 TSNO
0160725088547332012010922537+42584-070918FM-15+0033KBVY V0201905N002152200059N0160935N5+00065-00895101935ADDAA101000095GF100991999999999999999999MA1101965101575REMMET09601/09/12 17:53:02 METAR KBVY 092253Z 19004KT 10SM CLR 01/M09 A3011 RMK AO2 SLP193 T00061089 TSNO
0218725088547332012010923537+42584-070918FM-15+0033KBVY V0202005N002152200059N0160935N5+00115-00835101915ADDAA101000095GF100991999999999999999999KA1999M+00331KA2999N+00001MA1101935101535MD1640074+9999REMMET11401/09/12 18:53:02 METAR KBVY 092353Z 20004KT 10SM CLR 01/M08 A3010 RMK AO2 SLP191 T00111083 10033 20000 56007 TSNO
0155725088547332012011000537+42584-070918FM-15+0033KBVY V0202105N003152200059N0160935N5+00115-01065101845ADDAA101000095GF100991999999999999999999MA1101865101465REMMET09101/09/12 19:53:01 METAR KBVY 100053Z 21006KT 10SM CLR 01/M11 A3008 RMK AO2 SLP184 T00111106
0155725088547332012011001537+42584-070918FM-15+0033KBVY V0202305N004652200059N0160935N5+00115-01065101805ADDAA101000095GF100991999999999999999999MA1101835101435REMMET09101/09/12 20:53:01 METAR KBVY 100153Z 23009KT 10SM CLR 01/M11 A3007 RMK AO2 SLP180 T00111106
0209725088547332012011002537+42584-070918FM-15+0033KBVY V0202105N002652200059N0160935N5+00065-00945101735ADDAA101000095GA1025+033535999GD11991+0335359GF102991999999999999999999MA1101765101365MD1840194+9999REMMET10001/09/12 21:53:01 METAR KBVY 100253Z 21005KT 10SM FEW110 01/M09 A3005 RMK AO2 SLP173 T00061094 58019
0189725088547332012011003537+42584-070918FM-15+0033KBVY V0202205N00315033535MN0160935N5+00115-00895101625ADDAA101000095GA1085+033535999GD14991+0335359GF108991999999999999999999MA1101665101265REMMET09401/09/12 22:53:01 METAR KBVY 100353Z 22006KT 10SM OVC110 01/M09 A3002 RMK AO2 SLP162 T00111089
0199725088547332012011004537+42584-070918FM-15+0033KBVY V0202105N00265030485MN0160935N5+00115-00785101505ADDAA101000095GA1085+030485999GD14991+0304859GF108991999999999999999999MA1101525101135REMMET10401/09/12 23:53:01 METAR KBVY 100453Z 21005KT 10SM OVC100 01/M08 A2998 RMK AO2 SLP150 T00111078 400331061
0886725088547332012011004596+42584-070918SOD  +0033KBVY V020999999999999999999999999999+99999+99999999999ADDAA124000095KA1240M+00335KA2240N-00605MG1101884101494OE11240071531001435OE22240058131000255OE33240023799999995REMSOD73024 HR PRECIPITATION (IN):0.00  24 HR MAX TEMP (F):38 24 HR MAX TEMP TIME (LST):1518 24 HR MIN TEMP (F):21 24 HR MIN TEMP TIME (LST):0721 AVERAGE STATION PRESSURE:30.085 MINIMUM SEA LEVEL PRESSURE:29.97 TIME OF OCCURRENCE:2359 PEAK WIND SPEED (MPH):16  PEAK WIND DIR (DEG):310 PEAK WIND TIME (LST):0143  FASTEST 2MIN SPEED (MPH):13 FASTEST 2MIN DIR (DEG):310 FASTEST 2MIN TIME (LST):0025 AVERAGE WIND SPEED (MPH):5.3  24 HR AVG TEMP (F):30 HEATING DEGREE DAYS:35  COOLING DEGREE DAYS:0   LATEST DAY MAX TEMP (0700-1900 LST):38  LATEST NIGHT MIN TEMP(1900-0800 LST):21 HOURLY INCREMENTAL PRECIPITATION VALUES (IN):.00 0.00 0.00 0.00 0.00 0.00 0.00 0.00 0.00 0.00 0.00 0.00 0.00 0.00 0.00 0.00 0.00 0.00 0.00 0.00 0.00 0.00 0.00 0.00EQDR01     N7GJS072R02     N7GKS075
0247725088547332012011005537+42584-070918FM-15+0033KBVY V0202205N00215030485MN0160935N5+00115-00675101395ADDAA101000095GA1085+030485999GD14991+0304859GF108991999999999999999999KA1999M+00171KA2999N+00061MA1101425101035MD1840344+9999REMMET11201/10/12 00:53:02 METAR KBVY 100553Z 22004KT 10SM OVC100 01/M07 A2995 RMK AO2 SLP139 T00111067 10017 20006 58034
0189725088547332012011006537+42584-070918FM-15+0033KBVY V0202205N00215022865MN0160935N5+00115-00615101355ADDAA101000095GA1085+022865999GD14991+0228659GF108991999999999999999999MA1101395100995REMMET09401/10/12 01:53:02 METAR KBVY 100653Z 22004KT 10SM OVC075 01/M06 A2994 RMK AO2 SLP135 T00111061
0227725088547332012011007537+42584-070918FM-15+0033KBVY V0201905N00155024385MN0160935N5+00115-00565101255ADDAA101000095GA1075+024385999GA2085+028965999GD13991+0243859GD24991+0289659GF108991999999999999999999MA1101295100895REMMET10101/10/12 02:53:02 METAR KBVY 100753Z 19003KT 10SM BKN080 OVC095 01/M06 A2991 RMK AO2 SLP125 T00111056
0282725088547332012011008487+42584-070918FM-16+0033KBVY V0202305N00265006105MN0032195N5+00005-00405999999ADDAA101000021AU110030015AW1715GA1075+006105999GA2075+008535999GA3085+010365999GD13991+0061059GD23991+0085359GD34991+0103659GF108991999999999999999999MA1101255100865REMMET10801/10/12 03:48:02 SPECI KBVY 100848Z 23005KT 2SM -SN BKN020 BKN028 OVC034 00/M04 A2990 RMK AO2 SNB34 P0000 $
0254725088547332012011008516+42584-070918FM-16+0033KBVY V0202205N00155005495MN0028165N5+00005-00305999999ADDAU110030015AW1715GA1075+005495999GA2075+008535999GA3085+010365999GD13991+0054959GD23991+0085359GD34991+0103659MA1101255100865REMMET11701/10/12 03:51:02 SPECI KBVY 100851Z 22003KT 1 3/4SM -SN BKN018 BKN028 OVC034 00/M03 A2990 RMK AO2 SNB34 P0000 $ FIBI
0321725088547332012011008537+42584-070918FM-15+0033KBVY V0202305N00215004885MN0020125N5+00005-00335101235ADDAA101000025AA203000021AU110030015AW1715GA1075+004885999GA2085+009145999GD13991+0048859GD24991+0091459GF108991999999999999999999MA1101255100865MD1640124+9999REMMET13401/10/12 03:53:02 METAR KBVY 100853Z 23004KT 1 1/4SM -SN BKN016 OVC030 00/M03 A2990 RMK AO2 SNB34 SLP123 P0000 60000 T00001033 56012 $EQDQ01  00008PRCP03
0263725088547332012011009047+42584-070918FM-16+0033KBVY V0202105N00215004275MN0020125N5-00105-00205999999ADDAA101000021AU110030015AU200001015AW1105AW2715GA1075+004275999GA2085+007325999GD13991+0042759GD24991+0073259GF108991999999999999999999MA1101225100825REMMET10301/10/12 04:04:02 SPECI KBVY 100904Z 21004KT 1 1/4SM -SN BR BKN014 OVC024 M01/M02 A2989 RMK AO2 P0000 $
0263725088547332012011009387+42584-070918FM-16+0033KBVY V0201905N00155006105MN0028165N5-00105-00205999999ADDAA101000391AU110030015AU200001015AW1105AW2715GA1025+002745999GA2085+006105999GD11991+0027459GD24991+0061059GF108991999999999999999999MA1101195100795REMMET10301/10/12 04:38:02 SPECI KBVY 100938Z 19003KT 1 3/4SM -SN BR FEW009 OVC020 M01/M02 A2988 RMK AO2 P0001 $
0259725088547332012011009437+42584-070918FM-16+0033KBVY V0201905N00155008845MN0048285N5-00105-00205999999ADDAA101000391AU110030015AU200001015AW1105AW2715GA1025+002745999GA2085+008845999GD11991+0027459GD24991+0088459GF108991999999999999999999MA1101155100765REMMET09901/10/12 04:43:02 SPECI KBVY 100943Z 19003KT 3SM -SN BR FEW009 OVC029 M01/M02 A2987 RMK AO2 P0001 $
0297725088547332012011009517+42584-070918FM-16+0033KBVY V0201905N00155010065MN0080475N5-00105-00205999999ADDAA101000391AU110030015AU200001015AW1105AW2715GA1025+007015999GA2075+010065999GA3085+024385999GD11991+0070159GD23991+0100659GD34991+0243859GF108991999999999999999999MA1101155100765REMMET10601/10/12 04:51:02 SPECI KBVY 100951Z 19003KT 5SM -SN BR FEW023 BKN033 OVC080 M01/M02 A2987 RMK AO2 P0001 $
0314725088547332012011009537+42584-070918FM-15+0033KBVY V0201805N00155010675MN0080475N5-00065-00175101125ADDAA101000395AU110030015AU200001015AW1105AW2715GA1025+007015999GA2075+010675999GA3085+022865999GD11991+0070159GD23991+0106759GD34991+0228659GF108991999999999999999999MA1101155100765REMMET12301/10/12 04:53:02 METAR KBVY 100953Z 18003KT 5SM -SN BR FEW023 BKN035 OVC075 M01/M02 A2987 RMK AO2 SLP112 P0001 T10061017 $
0243725088547332012011010537+42584-070918FM-15+0033KBVY V0201605N00155021345MN0160935N5+00005-00175101025ADDAA101000095GA1075+021345999GA2085+027435999GD13991+0213459GD24991+0274359GF108991999999999999999999MA1101055100655REMMET11701/10/12 05:53:02 METAR KBVY 101053Z 16003KT 10SM BKN070 OVC090 00/M02 A2984 RMK AO2 SNE0959 SLP102 P0000 T00001017 $
0268725088547332012011011537+42584-070918FM-15+0033KBVY V0201705N002152200059N0144845N5-00175-00285100925ADDAA101000095AA206000391AA324000391GF100991999999999999999999KA1999M+00111KA2999N-00221MA1100955100555MD1840204+9999REMMET12301/10/12 06:53:02 METAR KBVY 101153Z 17004KT 9SM CLR M02/M03 A2981 RMK AO2 SLP092 60001 70001 T10171028 10011 21022 58020 $EQDQ01  00038PRCP24
0220725088547332012011012537+42584-070918FM-15+0033KBVY V0202205N00155018295MN0048285N5-00175-00225100985ADDAA101000095AU100001015AW1105GA1075+018295999GD13991+0182959GF107991999999999999999999MA1101025100625MW1101REMMET10201/10/12 07:53:02 METAR KBVY 101253Z 22003KT 3SM BR BKN060 M02/M02 A2983 RMK AO2 SLP098 T10171022 (SS)
0231725088547332012011013537+42584-070918FM-15+0033KBVY V0202405N00215030485MN0128755N5+00065-00225101035ADDAA101000095GA1025+021345999GA2075+030485999GD11991+0213459GD23991+0304859GF107991999999999999999999MA1101055100655REMMET10501/10/12 08:53:02 METAR KBVY 101353Z 24004KT 8SM FEW070 BKN100 01/M02 A2984 RMK AO2 SLP103 T00061022 (SS)
0252725088547332012011014537+42584-070918FM-15+0033KBVY V0202205N00215030485MN0160935N5+00175-00225100995ADDAA101000095GA1025+019815999GA2085+030485999GD11991+0198159GD24991+0304859GF108991999999999999999999MA1101025100625MD1040074+9999REMMET11201/10/12 09:53:02 METAR KBVY 101453Z 22004KT 10SM FEW065 OVC100 02/M02 A2983 RMK AO2 SLP099 T00171022 50007 (SS)
0232725088547332012011015537+42584-070918FM-15+0033KBVY V0202405N00315016765MN0160935N5+00335-00225100905ADDAA101000095GA1075+016765999GA2085+030485999GD13991+0167659GD24991+0304859GF108991999999999999999999MA1100955100555REMMET10601/10/12 10:53:02 METAR KBVY 101553Z 24006KT 10SM BKN055 OVC100 03/M02 A2981 RMK AO2 SLP090 T00331022 (SS)
0243725088547332012011016537+42584-070918FM-15+0033KBVY V0202705N00575028965MN0160935N5+00445-00395100785ADDAA101000095GA1025+015245999GA2075+028965999GD11991+0152459GD23991+0289659GF107991999999999999999999MA1100815100425OC100885REMMET10901/10/12 11:53:02 METAR KBVY 101653Z 27011G17KT 10SM FEW050 BKN095 04/M04 A2977 RMK AO2 SLP078 T00441039 (SS)
0252725088547332012011017537+42584-070918FM-15+0033KBVY V0203005N00465027435MN0160935N5+00675-00335100695ADDAA101000095GA1085+027435999GD14991+0274359GF108991999999999999999999KA1999M+00721KA2999N-00221MA1100715100325MD1740294+9999REMMET11701/10/12 12:53:02 METAR KBVY 101753Z 30009KT 10SM OVC090 07/M03 A2974 RMK AO2 SLP069 T00671033 10072 21022 57029 (SS)
0171725088547332012011018537+42584-070918FM-15+0033KBVY V0202805N006752200059N0160935N5+00725-00395100685ADDAA101000095GF100991999999999999999999MA1100715100325OC100935REMMET09901/10/12 13:53:02 METAR KBVY 101853Z 28013G18KT 10SM CLR 07/M04 A2974 RMK AO2 SLP068 T00721039 (SS)
0194725088547332012011019537+42584-070918FM-15+0033KBVY V0202805N004152200059N0160935N5+00785-00335100685ADDAA101000095GA1045+014635999GD12991+0146359GF104991999999999999999999MA1100715100325REMMET09901/10/12 14:53:02 METAR KBVY 101953Z 28008KT 10SM SCT048 08/M03 A2974 RMK AO2 SLP068 T00781033 (WS)
0225725088547332012011020537+42584-070918FM-15+0033KBVY V0202905N00515015245MN0160935N5+00675-00395100765ADDAA101000095GA1075+015245999GD13991+0152459GF107991999999999999999999MA1100785100385MD1340074+9999OC101135REMMET10801/10/12 15:53:02 METAR KBVY 102053Z 29010G22KT 10SM BKN050 07/M04 A2976 RMK AO2 SLP076 T00671039 53007 (WS)
0205725088547332012011021537+42584-070918FM-15+0033KBVY V0202805N00415019815MN0160935N5+00565-00335100915ADDAA101000095GA1085+019815999GD14991+0198159GF108991999999999999999999MA1100955100555OC100935REMMET10201/10/12 16:53:02 METAR KBVY 102153Z 28008G18KT 10SM OVC065 06/M03 A2981 RMK AO2 SLP091 T00561033 (WS)
0194725088547332012011022537+42584-070918FM-15+0033KBVY V0202805N00365018295MN0160935N5+00505-00335101035ADDAA101000095GA1085+018295999GD14991+0182959GF108991999999999999999999MA1101055100655REMMET09901/10/12 17:53:02 METAR KBVY 102253Z 28007KT 10SM OVC060 05/M03 A2984 RMK AO2 SLP103 T00501033 (WS)
0252725088547332012011023537+42584-070918FM-15+0033KBVY V0202805N00365018295MN0160935N5+00505-00335101075ADDAA101000095GA1085+018295999GD14991+0182959GF108991999999999999999999KA1999M+00831KA2999N+00441MA1101085100695MD1140304+9999REMMET11701/10/12 18:53:02 METAR KBVY 102353Z 28007KT 10SM OVC060 05/M03 A2985 RMK AO2 SLP107 T00501033 10083 20044 51030 (WS)
0155725088547332012011100537+42584-070918FM-15+0033KBVY V0202705N002152200059N0160935N5+00395-00445101095ADDAA101000095GF100991999999999999999999MA1101125100725REMMET09101/10/12 19:53:01 METAR KBVY 110053Z 27004KT 10SM CLR 04/M04 A2986 RMK AO2 SLP109 T00391044
0155725088547332012011101537+42584-070918FM-15+0033KBVY V0202605N002652200059N0160935N5+00225-00445101155ADDAA101000095GF100991999999999999999999MA1101195100795REMMET09101/10/12 20:53:01 METAR KBVY 110153Z 26005KT 10SM CLR 02/M04 A2988 RMK AO2 SLP115 T00221044
0209725088547332012011102537+42584-070918FM-15+0033KBVY V0202605N00215015245MN0160935N5+00225-00445101235ADDAA101000095GA1085+015245999GD14991+0152459GF108991999999999999999999MA1101255100865MD1340174+9999REMMET10001/10/12 21:53:01 METAR KBVY 110253Z 26004KT 10SM OVC050 02/M04 A2990 RMK AO2 SLP123 T00221044 53017
0189725088547332012011103537+42584-070918FM-15+0033KBVY V0202905N002152200059N0160935N5+00115-00445101325ADDAA101000095GA1025+015245999GD11991+0152459GF102991999999999999999999MA1101355100965REMMET09401/10/12 22:53:01 METAR KBVY 110353Z 29004KT 10SM FEW050 01/M04 A2993 RMK AO2 SLP132 T00111044
0165725088547332012011104537+42584-070918FM-15+0033KBVY V0209999C000052200059N0160935N5+00005-00505101365ADDAA101000095GF100991999999999999999999MA1101395100995REMMET10101/10/12 23:53:01 METAR KBVY 110453Z 00000KT 10SM CLR 00/M05 A2994 RMK AO2 SLP136 T00001050 400831022
0912725088547332012011104596+42584-070918SOD  +0033KBVY V020999999999999999999999999999+99999+99999999999ADDAA124000395AX1015245KA1240M+00835KA2240N-00215MG1100644100644OE11240111829016085OE22240080530015475OE33240028299999995REMSOD74724 HR PRECIPITATION (IN):0.01  WEATHER(CODE):1  24 HR MAX TEMP (F):47 24 HR MAX TEMP TIME (LST):1503 24 HR MIN TEMP (F):28 24 HR MIN TEMP TIME (LST):0741 AVERAGE STATION PRESSURE:29.720 MINIMUM SEA LEVEL PRESSURE:29.72 TIME OF OCCURRENCE:1445 PEAK WIND SPEED (MPH):25  PEAK WIND DIR (DEG):290 PEAK WIND TIME (LST):1608  FASTEST 2MIN SPEED (MPH):18 FASTEST 2MIN DIR (DEG):300 FASTEST 2MIN TIME (LST):1547 AVERAGE WIND SPEED (MPH):6.3  24 HR AVG TEMP (F):38 HEATING DEGREE DAYS:27  COOLING DEGREE DAYS:0   LATEST DAY MAX TEMP (0700-1900 LST):47  LATEST NIGHT MIN TEMP(1900-0800 LST):28 HOURLY INCREMENTAL PRECIPITATION VALUES (IN):.00 0.00 0.00 T    0.01 0.00 0.00 0.00 0.00 0.00 0.00 0.00 0.00 0.00 0.00 0.00 0.00 0.00 0.00 0.00 0.00 0.00 0.00 0.00EQDR01     N7GJS072R02     N7GKS075
0214725088547332012011105537+42584-070918FM-15+0033KBVY V0203305N001552200059N0160935N5-00065-00505101415ADDAA101000095GF100991999999999999999999KA1999M+00501KA2999N-00221MA1101425101035MD1140174+9999REMMET11001/11/12 00:53:02 METAR KBVY 110553Z 33003KT 10SM CLR M01/M05 A2995 RMK AO2 SLP141 T10061050 10050 21022 51017
0156725088547332012011106537+42584-070918FM-15+0033KBVY V0209999C000052200059N0160935N5-00285-00565101455ADDAA101000095GF100991999999999999999999MA1101495101095REMMET09201/11/12 01:53:02 METAR KBVY 110653Z 00000KT 10SM CLR M03/M06 A2997 RMK AO2 SLP145 T10281056
0156725088547332012011107537+42584-070918FM-15+0033KBVY V0203505N001552200059N0160935N5-00395-00565101475ADDAA101000095GF100991999999999999999999MA1101495101095REMMET09201/11/12 02:53:02 METAR KBVY 110753Z 35003KT 10SM CLR M04/M06 A2997 RMK AO2 SLP147 T10391056
0176725088547332012011108537+42584-070918FM-15+0033KBVY V0203305N001552200059N0160935N5-00285-00675101545ADDAA101000095GF100991999999999999999999MA1101565101165MD1340134+9999REMMET09801/11/12 03:53:02 METAR KBVY 110853Z 33003KT 10SM CLR M03/M07 A2999 RMK AO2 SLP154 T10281067 53013
0156725088547332012011109537+42584-070918FM-15+0033KBVY V0203405N001552200059N0160935N5-00335-00725101655ADDAA101000095GF100991999999999999999999MA1101695101305REMMET09201/11/12 04:53:02 METAR KBVY 110953Z 34003KT 10SM CLR M03/M07 A3003 RMK AO2 SLP165 T10331072
0156725088547332012011110537+42584-070918FM-15+0033KBVY V0203305N002152200059N0160935N5-00395-00725101715ADDAA101000095GF100991999999999999999999MA1101765101365REMMET09201/11/12 05:53:02 METAR KBVY 111053Z 33004KT 10SM CLR M04/M07 A3005 RMK AO2 SLP171 T10391072
0253725088547332012011111537+42584-070918FM-15+0033KBVY V0203305N003152200059N0160935N5-00445-00835101785ADDAA101000095GA1025+060965999GD11991+0609659GF102991999999999999999999KA1999M-00061KA2999N-00501MA1101835101435MD1140244+9999REMMET11801/11/12 06:53:02 METAR KBVY 111153Z 33006KT 10SM FEW200 M04/M08 A3007 RMK AO2 SLP178 T10441083 11006 21050 51024 (WS)
0195725088547332012011112537+42584-070918FM-15+0033KBVY V0209999C000052200059N0160935N5-00225-00785101915ADDAA101000095GA1045+036585999GD12991+0365859GF104991999999999999999999MA1101935101535REMMET10001/11/12 07:53:02 METAR KBVY 111253Z 00000KT 10SM SCT120 M02/M08 A3010 RMK AO2 SLP191 T10221078 (WS)
0195725088547332012011113537+42584-070918FM-15+0033KBVY V0200105N004152200059N0160935N5-00115-00785101975ADDAA101000095GA1025+033535999GD11991+0335359GF102991999999999999999999MA1102005101605REMMET10001/11/12 08:53:02 METAR KBVY 111353Z 01008KT 10SM FEW110 M01/M08 A3012 RMK AO2 SLP197 T10111078 (WS)
0214725088547332012011114537+42584-070918FM-15+0033KBVY V0200105N003152200059N0160935N5+00065-00835102035ADDAA101000095GA1025+033535999GD11991+0335359GF102991999999999999999999MA1102075101675MD1140254+9999REMMET10501/11/12 09:53:02 METAR KBVY 111453Z 01006KT 10SM FEW110 01/M08 A3014 RMK AO2 SLP203 T00061083 51025 (WS)
0201725088547332012011115537+42584-070918FM-15+0033KBVY V0200705N00365033535MN0160935N5+00175-00835101955ADDAA101000095GA1075+033535999GD13991+0335359GF107991999999999999999999MA1101965101575REMMET10601/11/12 10:53:02 METAR KBVY 111553Z 07007KT 10SM BKN110 02/M08 A3011 RMK AO2 PRESFR SLP195 T00171083 (WS)
0194725088547332012011116537+42584-070918FM-15+0033KBVY V0209999C00005033535MN0160935N5+00225-00835101945ADDAA101000095GA1085+033535999GD14991+0335359GF108991999999999999999999MA1101965101575REMMET09901/11/12 11:53:02 METAR KBVY 111653Z 00000KT 10SM OVC110 02/M08 A3011 RMK AO2 SLP194 T00221083 (WS)
0252725088547332012011117537+42584-070918FM-15+0033KBVY V0209999V00155033535MN0160935N5+00285-00785101895ADDAA101000095GA1075+033535999GD13991+0335359GF107991999999999999999999KA1999M+00281KA2999N-00501MA1101935101535MD1640144+9999REMMET11701/11/12 12:53:02 METAR KBVY 111753Z VRB03KT 10SM BKN110 03/M08 A3010 RMK AO2 SLP189 T00281078 10028 21050 56014 (WS)
0194725088547332012011118537+42584-070918FM-15+0033KBVY V0201405N00365030485MN0160935N5+00285-00565101895ADDAA101000095GA1085+030485999GD14991+0304859GF108991999999999999999999MA1101935101535REMMET09901/11/12 13:53:02 METAR KBVY 111853Z 14007KT 10SM OVC100 03/M06 A3010 RMK AO2 SLP189 T00281056 (WS)
0194725088547332012011119537+42584-070918FM-15+0033KBVY V0201305N00265030485MN0160935N5+00225-00505101945ADDAA101000095GA1085+030485999GD14991+0304859GF108991999999999999999999MA1101965101575REMMET09901/11/12 14:53:02 METAR KBVY 111953Z 13005KT 10SM OVC100 02/M05 A3011 RMK AO2 SLP194 T00221050 (WS)
0214725088547332012011120537+42584-070918FM-15+0033KBVY V0201005N00365030485MN0160935N5+00225-00505101985ADDAA101000095GA1085+030485999GD14991+0304859GF108991999999999999999999MA1102005101605MD1340084+9999REMMET10501/11/12 15:53:02 METAR KBVY 112053Z 10007KT 10SM OVC100 02/M05 A3012 RMK AO2 SLP198 T00221050 53008 (DB)
0194725088547332012011121537+42584-070918FM-15+0033KBVY V0200705N00265033535MN0160935N5+00115-00565101985ADDAA101000095GA1085+033535999GD14991+0335359GF108991999999999999999999MA1102005101605REMMET09901/11/12 16:53:02 METAR KBVY 112153Z 07005KT 10SM OVC110 01/M06 A3012 RMK AO2 SLP198 T00111056 (DB)
