0234726055047432012010100004+43083-070817FM-15+0030KPSM V0209999C000010003019N0002011N1+00101+00101101041ADDED134U03059GD15991+0003019GF109991999999000251999999KA1999M+00221KA2999N+00121MA1101021999999MD1210101+9999MW1451REMMET109METAR KPSM 312355Z 00000KT 1/8SM R34/1000FT FG VV001 01/01 A2983 RMK AO2A SLP104 T00120011 10022 20012 52010;
0176726055047432012010101004+43083-070817FM-15+0030KPSM V0203001N002110006019N0004021N1+00001+00001101051ADDED134U03059GD15991+0006019GF109991999999000251999999MA1101021999999MW1451REMMET091METAR KPSM 010055Z 30004KT 1/4SM R34/1000FT FG VV002 00/00 A2983 RMK AO2A SLP105 T00040002;
0171726055047432012010101354+43083-070817FM-16+0030KPSM V0209999C000010003019N0002011N1+00101+00101101091ADDED134U01839GD15991+0003019GF109991999999000251999999MA1101081999999MW1451REMMET086SPECI KPSM 010135Z 00000KT 1/8SM R34/0600V0900FT FG VV001 01/01 A2985 RMK AO2A SLP109;
0176726055047432012010102004+43083-070817FM-15+0030KPSM V0209999C000010003019N0002011N1+00101+00001101101ADDED134U02139GD15991+0003019GF109991999999000251999999MA1101081999999MW1451REMMET091METAR KPSM 010155Z 00000KT 1/8SM R34/0700FT FG VV001 01/00 A2985 RMK AO2A SLP110 T00050004;
0205726055047432012010103004+43083-070817FM-15+0030KPSM V0209999C000010003019N0002011N1+00001-00101101141ADDED134U03059GD15991+0003019GF109991999999000251999999MA1101121999999MD1310111+9999MW1491REMMET106METAR KPSM 010255Z 00000KT 1/8SM R34/1000V1200FT FZFG VV001 M00/M01 A2986 RMK AO2A SLP114 T10041005 53011;
0176726055047432012010103194+43083-070817FM-16+0030KPSM V0209999C000010003019N0008051N1-00101-00101101161ADDED134U02749GD13991+0003019GF107991999999999999999999MA1101121999999MW1481REMMET091SPECI KPSM 010319Z 00000KT 1/2SM R34/0900V1000FT FZFG BKN001 M01/M01 A2986 RMK AO2A SLP116;
0167726055047432012010103354+43083-070817FM-16+0030KPSM V0209999C000012200019N0016091N1-00101-00201101161ADDED134U05499GD12991+0003019GF104991999999999999999999MA1101121999999MW1101REMMET082SPECI KPSM 010335Z 00000KT 1SM R34/1800FT BR SCT001 M01/M02 A2986 RMK AO2A SLP116;
0178726055047432012010104004+43083-070817FM-15+0030KPSM V0209999C000012200019N0048281N1-00101-00201101141ADDED134U18299GD11991+0003019GF102991999999999999999999MA1101121999999MW1101REMMET093METAR KPSM 010355Z 00000KT 3SM R34/P6000FT BR FEW001 M01/M02 A2986 RMK AO2A SLP114 T10141015;
0139726055047432012010105004+43083-070817FM-15+0030KPSM V0202701N003112200019N0160931N1+00001+00001101191ADDGF100991999999999999999999MA1101151999999REMMET086METAR KPSM 010455Z 27006KT 10SM CLR M00/M00 A2987 RMK AO2A SLP119 T10011002 400221016;
0202726055047432012010105557+43083-070817FM-15+0030KPSM V0202705N001552200059N0160935N5+00055+00045101245ADDGF100991999999999999999999KA1999M+00121KA2999N-00161MA1101225100865MD1340104+9999REMMET10901/01/12 00:55:01 METAR KPSM 010555Z 27003KT 10SM CLR 01/00 A2989 RMK AO2A SLP124 T00050004 10012 21016 53010
0146726055047432012010106557+43083-070817FM-15+0030KPSM V0202505N002152200059N0160935N5+00005-00025101225ADDGF100991999999999999999999MA1101195100835REMMET09301/01/12 01:55:01 METAR KPSM 010655Z 25004KT 10SM CLR M00/M00 A2988 RMK AO2A SLP122 T10001002
0144726055047432012010107557+43083-070817FM-15+0030KPSM V0202705N004152200059N0160935N5+00175+00155101365ADDGF100991999999999999999999MA1101325100965REMMET09101/01/12 02:55:01 METAR KPSM 010755Z 27008KT 10SM CLR 02/02 A2992 RMK AO2A SLP136 T00170015
0164726055047432012010108557+43083-070817FM-15+0030KPSM V0202605N002652200059N0160935N5+00195+00185101395ADDGF100991999999999999999999MA1101355100995MD1340144+9999REMMET09701/01/12 03:55:01 METAR KPSM 010855Z 26005KT 10SM CLR 02/02 A2993 RMK AO2A SLP139 T00190018 53014
0144726055047432012010109557+43083-070817FM-15+0030KPSM V0202705N003152200059N0160935N5+00215+00205101475ADDGF100991999999999999999999MA1101425101065REMMET09101/01/12 04:55:01 METAR KPSM 010955Z 27006KT 10SM CLR 02/02 A2995 RMK AO2A SLP147 T00210020
0144726055047432012010110557+43083-070817FM-15+0030KPSM V0202605N002652200059N0160935N5+00205+00185101565ADDGF100991999999999999999999MA1101525101165REMMET09101/01/12 05:55:01 METAR KPSM 011055Z 26005KT 10SM CLR 02/02 A2998 RMK AO2A SLP156 T00200018
0238726055047432012010111557+43083-070817FM-15+0030KPSM V0202605N002652200059N0160935N5+00155+00135101605ADDAA124002091GF100991999999999999999999KA1999M+00231KA2999N-00061MA1101565101205MD1140214+9999REMMET11501/01/12 06:55:01 METAR KPSM 011155Z 26005KT 10SM CLR 01/01 A2999 RMK AO2A SLP160 70008 T00150013 10023 21006 51021EQDQ01  00208PRCP24
0144726055047432012010112557+43083-070817FM-15+0030KPSM V0202705N002652200059N0160935N5+00115+00095101665ADDGF100991999999999999999999MA1101635101265REMMET09101/01/12 07:55:01 METAR KPSM 011255Z 27005KT 10SM CLR 01/01 A3001 RMK AO2A SLP166 T00110009
0144726055047432012010113557+43083-070817FM-15+0030KPSM V0202605N002152200059N0160935N5+00375+00365101695ADDGF100991999999999999999999MA1101665101305REMMET09101/01/12 08:55:01 METAR KPSM 011355Z 26004KT 10SM CLR 04/04 A3002 RMK AO2A SLP169 T00370036
0164726055047432012010114557+43083-070817FM-15+0030KPSM V0202605N002652200059N0160935N5+00555+00535101695ADDGF100991999999999999999999MA1101665101305MD1140104+9999REMMET09701/01/12 09:55:01 METAR KPSM 011455Z 26005KT 10SM CLR 05/05 A3002 RMK AO2A SLP169 T00550053 51010
0144726055047432012010115557+43083-070817FM-15+0030KPSM V0202605N002652200059N0160935N5+00755+00395101665ADDGF100991999999999999999999MA1101635101265REMMET09101/01/12 10:55:01 METAR KPSM 011555Z 26005KT 10SM CLR 08/04 A3001 RMK AO2A SLP166 T00750039
0216726055047432012010116557+43083-070817FM-15+0030KPSM V0202405N002152200059N0160935N5+00905+00385101555ADDGA1025+015245999GA2025+076205999GD11991+0152459GD21991+0762059GF102991999999999999999999MA1101525101165REMMET10101/01/12 11:55:01 METAR KPSM 011655Z 24004KT 10SM FEW050 FEW250 09/04 A2998 RMK AO2A SLP155 T00900038
0274726055047432012010117557+43083-070817FM-15+0030KPSM V0202505N00215076205MN0160935N5+00875+00265101415ADDGA1025+012195999GA2075+076205999GD11991+0121959GD23991+0762059GF107991999999999999999999KA1999M+00951KA2999N-00061MA1101395101035MD1840294+9999REMMET11901/01/12 12:55:01 METAR KPSM 011755Z 25004KT 10SM FEW040 BKN250 09/03 A2994 RMK AO2A SLP141 T00870026 10095 21006 58029
0216726055047432012010118557+43083-070817FM-15+0030KPSM V0201705N00215076205MN0160935N5+00915+00255101335ADDGA1025+012195999GA2075+076205999GD11991+0121959GD23991+0762059GF107991999999999999999999MA1101325100965REMMET10101/01/12 13:55:01 METAR KPSM 011855Z 17004KT 10SM FEW040 BKN250 09/02 A2992 RMK AO2A SLP133 T00910025
0216726055047432012010119557+43083-070817FM-15+0030KPSM V0201305N00365076205MN0160935N5+00865+00315101305ADDGA1025+012195999GA2075+076205999GD11991+0121959GD23991+0762059GF107991999999999999999999MA1101295100935REMMET10101/01/12 14:55:01 METAR KPSM 011955Z 13007KT 10SM FEW040 BKN250 09/03 A2991 RMK AO2A SLP130 T00860031
0236726055047432012010120557+43083-070817FM-15+0030KPSM V0201405N00315076205MN0160935N5+00675+00325101275ADDGA1025+010365999GA2075+076205999GD11991+0103659GD23991+0762059GF107991999999999999999999MA1101255100895MD1640144+9999REMMET10701/01/12 15:55:01 METAR KPSM 012055Z 14006KT 10SM FEW034 BKN250 07/03 A2990 RMK AO2A SLP127 T00670032 56014
0216726055047432012010121557+43083-070817FM-15+0030KPSM V0201405N00465076205MN0160935N5+00605+00355101145ADDGA1025+010365999GA2075+076205999GD11991+0103659GD23991+0762059GF107991999999999999999999MA1101125100765REMMET10101/01/12 16:55:01 METAR KPSM 012155Z 14009KT 10SM FEW034 BKN250 06/03 A2986 RMK AO2A SLP114 T00600035
0178726055047432012010122557+43083-070817FM-15+0030KPSM V0201505N005152200059N0160935N5+00605+00405101045ADDGA1045+076205999GD12991+0762059GF104991999999999999999999MA1101025100665REMMET09401/01/12 17:55:01 METAR KPSM 012255Z 15010KT 10SM SCT250 06/04 A2983 RMK AO2A SLP104 T00600040
0236726055047432012010123557+43083-070817FM-15+0030KPSM V0201705N00465076205MN0160935N5+00635+00355101015ADDGA1075+076205999GD13991+0762059GF107991999999999999999999KA1999M+01031KA2999N+00581MA1100985100625MD1640264+9999REMMET11201/01/12 18:55:02 METAR KPSM 012355Z 17009KT 10SM BKN250 06/03 A2982 RMK AO2A SLP101 T00630035 10103 20058 56026
0206726055047432012010200117+43083-070817FM-15+0030KPSM V0201805N00365006715MN0160935N5+00705+00405101015ADDGA1075+006715999GA2075+076205999GD13991+0067159GD23991+0762059GF107991999999999999999999MA1100985100625REMMET09101/01/12 19:11:01 METAR KPSM 020011Z 18007KT 10SM BKN022 BKN250 07/04 A2982 RMK AO2A SLP101
0178726055047432012010200557+43083-070817FM-15+0030KPSM V0201505N00365006715MN0160935N5+00685+00425100865ADDGA1085+006715999GD14991+0067159GF108991999999999999999999MA1100855100495REMMET09401/01/12 19:55:01 METAR KPSM 020055Z 15007KT 10SM OVC022 07/04 A2978 RMK AO2A SLP086 T00680042
0206726055047432012010201377+43083-070817FM-15+0030KPSM V0201605N00315036585MN0160935N5+00705+00505100755ADDGA1045+006715999GA2085+036585999GD12991+0067159GD24991+0365859GF108991999999999999999999MA1100715100355REMMET09101/01/12 20:37:01 METAR KPSM 020137Z 16006KT 10SM SCT022 OVC120 07/05 A2974 RMK AO2A SLP075
0216726055047432012010201557+43083-070817FM-15+0030KPSM V0201805N00315006405MN0160935N5+00695+00475100765ADDGA1075+006405999GA2085+036585999GD13991+0064059GD24991+0365859GF108991999999999999999999MA1100755100395REMMET10101/01/12 20:55:01 METAR KPSM 020155Z 18006KT 10SM BKN021 OVC120 07/05 A2975 RMK AO2A SLP076 T00690047
0236726055047432012010202557+43083-070817FM-15+0030KPSM V0201505N00315028965MN0160935N5+00655+00455100665ADDGA1025+006405999GA2085+028965999GD11991+0064059GD24991+0289659GF108991999999999999999999MA1100645100295MD1640344+9999REMMET10701/01/12 21:55:01 METAR KPSM 020255Z 15006KT 10SM FEW021 OVC095 07/05 A2972 RMK AO2A SLP066 T00650045 56034
0232726055047432012010203157+43083-070817FM-15+0030KPSM V0201605N00315016765MN0128755N5+00705+00505100645ADDAU110020015AW1615GA1045+006405999GA2085+016765999GD12991+0064059GD24991+0167659GF108991999999999999999999MA1100615100255MW1611REMMET09401/01/12 22:15:01 METAR KPSM 020315Z 16006KT 8SM -RA SCT021 OVC055 07/05 A2971 RMK AO2A SLP064
0258726055047432012010203557+43083-070817FM-15+0030KPSM V0201605N00415016765MN0112655N5+00675+00575100515ADDAA101001395AU120020015AW1625GA1025+006405999GA2085+016765999GD11991+0064059GD24991+0167659GF108991999999999999999999MA1100475100125MW1631REMMET10901/01/12 22:55:01 METAR KPSM 020355Z 16008KT 7SM RA FEW021 OVC055 07/06 A2967 RMK AO2A SLP051 P0005 T00670057
0307726055047432012010204557+43083-070817FM-15+0030KPSM V0201405N00315001835MN0112655N5+00675+00645100325ADDAA101001395AU110020015AW1615GA1075+001835999GA2075+003965999GA3085+016765999GD13991+0018359GD23991+0039659GD34991+0167659GF108991999999999999999999MA1100305099955MW1611REMMET12701/01/12 23:55:01 METAR KPSM 020455Z 14006KT 7SM -RA BKN006 BKN013 OVC055 07/06 A2962 RMK AO2A SLP032 P0005 T00670064 401031006
0353726055047432012010205557+43083-070817FM-15+0030KPSM V0201605N00265001835MN0112655N5+00715+00705100205ADDAA101001095AA206003691AU110020015AW1615GA1075+001835999GA2085+004575999GD13991+0018359GD24991+0045759GF108991999999999999999999KA1999M+00711KA2999N+00641MA1100175099815MD1640464+9999MW1611REMMET13401/02/12 00:55:01 METAR KPSM 020555Z 16005KT 7SM -RA BKN006 OVC015 07/07 A2958 RMK AO2A SLP020 P0004 60014 T00710070 10071 20064 56046EQDQ01  00368PRCP06
0205726055047432012010206227+43083-070817FM-15+0030KPSM V0201605N00265001835MN0128755N5+00705+00705100155ADDGA1075+001835999GA2085+004275999GD13991+0018359GD24991+0042759GF108991999999999999999999MA1100145099785REMMET09001/02/12 01:22:01 METAR KPSM 020622Z 16005KT 8SM BKN006 OVC014 07/07 A2957 RMK AO2A SLP015
0270726055047432012010206557+43083-070817FM-15+0030KPSM V0201705N00315013725MN0128755N5+00665+00645100085ADDAA101000021GA1025+001525999GA2045+004275999GA3075+013725999GD11991+0015259GD22991+0042759GD33991+0137259GF107991999999999999999999MA1100075099715REMMET11301/02/12 01:55:01 METAR KPSM 020655Z 17006KT 8SM FEW005 SCT014 BKN045 07/06 A2955 RMK AO2A SLP008 P0000 T00660064
0216726055047432012010207557+43083-070817FM-15+0030KPSM V0201805N00365022865MN0160935N5+00695+00675099945ADDGA1025+012195999GA2075+022865999GD11991+0121959GD23991+0228659GF107991999999999999999999MA1099935099585REMMET10101/02/12 02:55:01 METAR KPSM 020755Z 18007KT 10SM FEW040 BKN075 07/07 A2951 RMK AO2A SLP994 T00690067
0272726055047432012010208557+43083-070817FM-15+0030KPSM V0202405N00155024385MN0160935N5+00765+00755099895ADDAA103000021GA1025+008535999GA2085+024385999GD11991+0085359GD24991+0243859GF108991999999999999999999MA1099865099515MD1640314+9999REMMET11301/02/12 03:55:01 METAR KPSM 020855Z 24003KT 10SM FEW028 OVC080 08/07 A2949 RMK AO2A SLP989 60000 T00760075 56031EQDQ01  00008PRCP03
0216726055047432012010209557+43083-070817FM-15+0030KPSM V0202505N00415013115MN0160935N5+00665+00495099925ADDGA1025+002745999GA2085+013115999GD11991+0027459GD24991+0131159GF108991999999999999999999MA1099905099545REMMET10101/02/12 04:55:01 METAR KPSM 020955Z 25008KT 10SM FEW009 OVC043 07/05 A2950 RMK AO2A SLP992 T00660049
0178726055047432012010210557+43083-070817FM-15+0030KPSM V0202605N00415019815MN0160935N5+00465+00145099995ADDGA1075+019815999GD13991+0198159GF107991999999999999999999MA1099975099615REMMET09401/02/12 05:55:01 METAR KPSM 021055Z 26008KT 10SM BKN065 05/01 A2952 RMK AO2A SLP999 T00460014
0305726055047432012010211557+43083-070817FM-15+0030KPSM V0202405N00315019815MN0160935N5+00375+00015100015ADDAA106000021AA224003691GA1075+019815999GD13991+0198159GF107991999999999999999999KA1999M+00771KA2999N+00371MA1100005099645MD1140124+9999REMMET12401/02/12 06:55:01 METAR KPSM 021155Z 24006KT 10SM BKN065 04/00 A2953 RMK AO2A SLP001 60000 70014 T00370001 10077 20037 51012EQDQ01  00008PRCP06Q02  00368PRCP24
0179726055047432012010212557+43083-070817FM-15+0030KPSM V0202305N003652200059N0160935N5+00315-00085100075ADDGA1025+019815999GD11991+0198159GF102991999999999999999999MA1100035099685REMMET09501/02/12 07:55:01 METAR KPSM 021255Z 23007KT 10SM FEW065 03/M01 A2954 RMK AO2A SLP007 T00311008
0179726055047432012010213557+43083-070817FM-15+0030KPSM V0202405N004152200059N0160935N5+00445-00185100085ADDGA1025+018295999GD11991+0182959GF102991999999999999999999MA1100075099715REMMET09501/02/12 08:55:01 METAR KPSM 021355Z 24008KT 10SM FEW060 04/M02 A2955 RMK AO2A SLP008 T00441018
0210726055047432012010214557+43083-070817FM-15+0030KPSM V0202505N00515024385MN0160935N5+00455-00345100105ADDGA1075+024385999GD13991+0243859GF107991999999999999999999MA1100075099715MD1140094+9999OC100885REMMET10401/02/12 09:55:01 METAR KPSM 021455Z 25010G17KT 10SM BKN080 05/M03 A2955 RMK AO2A SLP010 T00451034 51009
0228726055047432012010215557+43083-070817FM-15+0030KPSM V0202505N00725024385MN0160935N5+00495-00355100055ADDGA1045+012195999GA2075+024385999GD12991+0121959GD23991+0243859GF107991999999999999999999MA1100035099685OC100935REMMET10501/02/12 10:55:01 METAR KPSM 021555Z 25014G18KT 10SM SCT040 BKN080 05/M03 A2954 RMK AO2A SLP005 T00491035
0208726055047432012010216557+43083-070817FM-15+0030KPSM V0202505N006752200059N0160935N5+00515-00605100005ADDGA1045+015245999GD12991+0152459GF104991999999999999999999MA1099975099615OC101135REMMET11601/02/12 11:55:01 METAR KPSM 021655Z 25013G22KT 10SM SCT050 05/M06 A2952 RMK AO2A PK WND 25026/1638 SLP000 T00511060
0248726055047432012010217557+43083-070817FM-15+0030KPSM V0202605N008852200059N0160935N5+00605-00655099975ADDGA1045+015245999GD12991+0152459GF104991999999999999999999KA1999M+00631KA2999N+00301MA1099935099585MD1740134+9999OC101245REMMET11601/02/12 12:55:01 METAR KPSM 021755Z 26017G24KT 10SM SCT050 06/M06 A2951 RMK AO2A SLP997 T00601065 10063 20030 57013
0190726055047432012010218557+43083-070817FM-15+0030KPSM V0202505N006752200059N0160935N5+00565-00785099995ADDGA1025+018295999GD11991+0182959GF102991999999999999999999MA1099975099615OC101245REMMET09801/02/12 13:55:01 METAR KPSM 021855Z 25013G24KT 10SM FEW060 06/M08 A2952 RMK AO2A SLP999 T00561078
0190726055047432012010219557+43083-070817FM-15+0030KPSM V0202605N008852200059N0160935N5+00495-00825100075ADDGA1025+018295999GD11991+0182959GF102991999999999999999999MA1100035099685OC101295REMMET09801/02/12 14:55:01 METAR KPSM 021955Z 26017G25KT 10SM FEW060 05/M08 A2954 RMK AO2A SLP007 T00491082
0210726055047432012010220557+43083-070817FM-15+0030KPSM V0202605N007252200059N0160935N5+00405-00805100135ADDGA1025+018295999GD11991+0182959GF102991999999999999999999MA1100105099755MD1340164+9999OC100985REMMET10401/02/12 15:55:01 METAR KPSM 022055Z 26014G19KT 10SM FEW060 04/M08 A2956 RMK AO2A SLP013 T00401080 53016
0179726055047432012010221557+43083-070817FM-15+0030KPSM V0202505N005152200059N0160935N5+00275-00815100245ADDGA1025+018295999GD11991+0182959GF102991999999999999999999MA1100205099855REMMET09501/02/12 16:55:01 METAR KPSM 022155Z 25010KT 10SM FEW060 03/M08 A2959 RMK AO2A SLP024 T00271081
0156726055047432012010222557+43083-070817FM-15+0030KPSM V0202305N004152200059N0160935N5+00235-00825100355ADDGF100991999999999999999999MA1100345099985OC100935REMMET09501/02/12 17:55:01 METAR KPSM 022255Z 23008G18KT 10SM CLR 02/M08 A2963 RMK AO2A SLP035 T00231082
0203726055047432012010223557+43083-070817FM-15+0030KPSM V0202305N004152200059N0160935N5+00155-00835100395ADDGF100991999999999999999999KA1999M+00651KA2999N+00141MA1100375100025MD1140264+9999REMMET11001/02/12 18:55:02 METAR KPSM 022355Z 23008KT 10SM CLR 01/M08 A2964 RMK AO2A SLP039 T00151083 10065 20014 51026
0145726055047432012010300557+43083-070817FM-15+0030KPSM V0202205N004652200059N0160935N5+00105-00825100415ADDGF100991999999999999999999MA1100375100025REMMET09201/02/12 19:55:01 METAR KPSM 030055Z 22009KT 10SM CLR 01/M08 A2964 RMK AO2A SLP041 T00101082
0145726055047432012010301557+43083-070817FM-15+0030KPSM V0202305N004652200059N0160935N5+00055-00865100455ADDGF100991999999999999999999MA1100445100085REMMET09201/02/12 20:55:01 METAR KPSM 030155Z 23009KT 10SM CLR 01/M09 A2966 RMK AO2A SLP045 T00051086
0166726055047432012010302557+43083-070817FM-15+0030KPSM V0202405N003152200059N0160935N5-00015-00905100485ADDGF100991999999999999999999MA1100445100085MD1340094+9999REMMET09901/02/12 21:55:01 METAR KPSM 030255Z 24006KT 10SM CLR M00/M09 A2966 RMK AO2A SLP048 T10011090 53009
0146726055047432012010303557+43083-070817FM-15+0030KPSM V0202205N003652200059N0160935N5-00085-00935100475ADDGF100991999999999999999999MA1100445100085REMMET09301/02/12 22:55:01 METAR KPSM 030355Z 22007KT 10SM CLR M01/M09 A2966 RMK AO2A SLP047 T10081093
0156726055047432012010304557+43083-070817FM-15+0030KPSM V0202305N004152200059N0160935N5-00085-00935100475ADDGF100991999999999999999999MA1100445100085REMMET10301/02/12 23:55:01 METAR KPSM 030455Z 23008KT 10SM CLR M01/M09 A2966 RMK AO2A SLP047 T10081093 400771011
0204726055047432012010305557+43083-070817FM-15+0030KPSM V0202305N004152200059N0160935N5-00145-00965100505ADDGF100991999999999999999999KA1999M+00151KA2999N-00141MA1100475100125MD1340024+9999REMMET11101/03/12 00:55:01 METAR KPSM 030555Z 23008KT 10SM CLR M01/M10 A2967 RMK AO2A SLP050 T10141096 10015 21014 53002
0180726055047432012010306557+43083-070817FM-15+0030KPSM V0202505N003152200059N0160935N5-00175-00995100565ADDGA1025+013725999GD11991+0137259GF102991999999999999999999MA1100545100185REMMET09601/03/12 01:55:01 METAR KPSM 030655Z 25006KT 10SM FEW045 M02/M10 A2969 RMK AO2A SLP056 T10171099
0180726055047432012010307557+43083-070817FM-15+0030KPSM V0202705N003652200059N0160935N5-00205-01105100585ADDGA1025+015245999GD11991+0152459GF102991999999999999999999MA1100545100185REMMET09601/03/12 02:55:01 METAR KPSM 030755Z 27007KT 10SM FEW050 M02/M11 A2969 RMK AO2A SLP058 T10201110
0166726055047432012010308557+43083-070817FM-15+0030KPSM V0202705N004152200059N0160935N5-00215-01285100575ADDGF100991999999999999999999MA1100545100185MD1040074+9999REMMET09901/03/12 03:55:01 METAR KPSM 030855Z 27008KT 10SM CLR M02/M13 A2969 RMK AO2A SLP057 T10211128 50007
0180726055047432012010309557+43083-070817FM-15+0030KPSM V0202605N004152200059N0160935N5-00275-01285100615ADDGA1025+013725999GD11991+0137259GF102991999999999999999999MA1100585100225REMMET09601/03/12 04:55:01 METAR KPSM 030955Z 26008KT 10SM FEW045 M03/M13 A2970 RMK AO2A SLP061 T10271128
0180726055047432012010310557+43083-070817FM-15+0030KPSM V0203005N005752200059N0160935N5-00355-01415100725ADDGA1025+012195999GD11991+0121959GF102991999999999999999999MA1100685100325REMMET09601/03/12 05:55:01 METAR KPSM 031055Z 30011KT 10SM FEW040 M04/M14 A2973 RMK AO2A SLP072 T10351141
0238726055047432012010311557+43083-070817FM-15+0030KPSM V0202905N004652200059N0160935N5-00435-01515100835ADDGA1025+012195999GD11991+0121959GF102991999999999999999999KA1999M-00141KA2999N-00431MA1100815100455MD1340254+9999REMMET11401/03/12 06:55:01 METAR KPSM 031155Z 29009KT 10SM FEW040 M04/M15 A2977 RMK AO2A SLP083 T10431151 11014 21043 53025
0180726055047432012010312557+43083-070817FM-15+0030KPSM V0202905N004652200059N0160935N5-00435-01315100935ADDGA1025+012195999GD11991+0121959GF102991999999999999999999MA1100915100565REMMET09601/03/12 07:55:01 METAR KPSM 031255Z 29009KT 10SM FEW040 M04/M13 A2980 RMK AO2A SLP093 T10431131
0180726055047432012010313557+43083-070817FM-15+0030KPSM V0203205N007252200059N0160935N5-00395-01285101015ADDGA1025+010675999GD11991+0106759GF102991999999999999999999MA1100985100625REMMET09601/03/12 08:55:01 METAR KPSM 031355Z 32014KT 10SM FEW035 M04/M13 A2982 RMK AO2A SLP101 T10391128
0200726055047432012010314557+43083-070817FM-15+0030KPSM V0203105N006752200059N0160935N5-00375-01495100985ADDGA1025+012195999GD11991+0121959GF102991999999999999999999MA1100955100595MD1040154+9999REMMET10201/03/12 09:55:01 METAR KPSM 031455Z 31013KT 10SM FEW040 M04/M15 A2981 RMK AO2A SLP098 T10371149 50015
0191726055047432012010315557+43083-070817FM-15+0030KPSM V0203205N007752200059N0160935N5-00365-01535100955ADDGA1025+015245999GD11991+0152459GF102991999999999999999999MA1100915100565OC101085REMMET09901/03/12 10:55:01 METAR KPSM 031555Z 32015G21KT 10SM FEW050 M04/M15 A2980 RMK AO2A SLP095 T10361153
0191726055047432012010316557+43083-070817FM-15+0030KPSM V0203105N007252200059N0160935N5-00405-01595100975ADDGA1025+015245999GD11991+0152459GF102991999999999999999999MA1100955100595OC101295REMMET09901/03/12 11:55:01 METAR KPSM 031655Z 31014G25KT 10SM FEW050 M04/M16 A2981 RMK AO2A SLP097 T10401159
0249726055047432012010317557+43083-070817FM-15+0030KPSM V0203205N009852200059N0160935N5-00405-01685100885ADDGA1025+015245999GD11991+0152459GF102991999999999999999999KA1999M-00331KA2999N-00471MA1100855100495MD1840094+9999OC101245REMMET11701/03/12 12:55:01 METAR KPSM 031755Z 32019G24KT 10SM FEW050 M04/M17 A2978 RMK AO2A SLP088 T10401168 11033 21047 58009
0180726055047432012010318557+43083-070817FM-15+0030KPSM V0203105N006252200059N0160935N5-00455-01715100995ADDGA1025+012195999GD11991+0121959GF102991999999999999999999MA1100955100595REMMET09601/03/12 13:55:01 METAR KPSM 031855Z 31012KT 10SM FEW040 M05/M17 A2981 RMK AO2A SLP099 T10451171
0180726055047432012010319557+43083-070817FM-15+0030KPSM V0202905N006752200059N0160935N5-00525-01775101085ADDGA1025+009145999GD11991+0091459GF102991999999999999999999MA1101055100695REMMET09601/03/12 14:55:01 METAR KPSM 031955Z 29013KT 10SM FEW030 M05/M18 A2984 RMK AO2A SLP108 T10521177
0200726055047432012010320557+43083-070817FM-15+0030KPSM V0203005N005752200059N0160935N5-00645-01795101215ADDGA1025+009145999GD11991+0091459GF102991999999999999999999MA1101195100835MD1340324+9999REMMET10201/03/12 15:55:01 METAR KPSM 032055Z 30011KT 10SM FEW030 M06/M18 A2988 RMK AO2A SLP121 T10641179 53032
0146726055047432012010321557+43083-070817FM-15+0030KPSM V0203005N006252200059N0160935N5-00775-01845101255ADDGF100991999999999999999999MA1101225100865REMMET09301/03/12 16:55:01 METAR KPSM 032155Z 30012KT 10SM CLR M08/M18 A2989 RMK AO2A SLP125 T10771184
0146726055047432012010322557+43083-070817FM-15+0030KPSM V0203005N007752200059N0160935N5-00865-01895101355ADDGF100991999999999999999999MA1101325100965REMMET09301/03/12 17:55:01 METAR KPSM 032255Z 30015KT 10SM CLR M09/M19 A2992 RMK AO2A SLP135 T10861189
0215726055047432012010323557+43083-070817FM-15+0030KPSM V0203005N007252200059N0160935N5-00965-02135101535ADDGF100991999999999999999999KA1999M-00411KA2999N-00961MA1101495101135MD1340314+9999OC101035REMMET11401/03/12 18:55:02 METAR KPSM 032355Z 30014G20KT 10SM CLR M10/M21 A2997 RMK AO2A SLP153 T10961213 11041 21096 53031
0146726055047432012010400557+43083-070817FM-15+0030KPSM V0203105N006252200059N0160935N5-01075-02125101605ADDGF100991999999999999999999MA1101565101205REMMET09301/03/12 19:55:01 METAR KPSM 040055Z 31012KT 10SM CLR M11/M21 A2999 RMK AO2A SLP160 T11071212
0146726055047432012010401557+43083-070817FM-15+0030KPSM V0203105N004652200059N0160935N5-01145-02005101605ADDGF100991999999999999999999MA1101565101205REMMET09301/03/12 20:55:01 METAR KPSM 040155Z 31009KT 10SM CLR M11/M20 A2999 RMK AO2A SLP160 T11141200
0177726055047432012010402557+43083-070817FM-15+0030KPSM V0203105N007252200059N0160935N5-01215-02005101605ADDGF100991999999999999999999MA1101565101205MD1140084+9999OC101035REMMET10201/03/12 21:55:01 METAR KPSM 040255Z 31014G20KT 10SM CLR M12/M20 A2999 RMK AO2A SLP160 T11211200 51008
0146726055047432012010403557+43083-070817FM-15+0030KPSM V0203005N005752200059N0160935N5-01265-01995101545ADDGF100991999999999999999999MA1101495101135REMMET09301/03/12 22:55:01 METAR KPSM 040355Z 30011KT 10SM CLR M13/M20 A2997 RMK AO2A SLP154 T11261199
0156726055047432012010404557+43083-070817FM-15+0030KPSM V0203105N006252200059N0160935N5-01305-02045101545ADDGF100991999999999999999999MA1101495101135REMMET10301/03/12 23:55:01 METAR KPSM 040455Z 31012KT 10SM CLR M13/M20 A2997 RMK AO2A SLP154 T11301204 410091130
0204726055047432012010405557+43083-070817FM-15+0030KPSM V0202805N003152200059N0160935N5-01355-02065101655ADDGF100991999999999999999999KA1999M-00971KA2999N-01351MA1101635101265MD1340054+9999REMMET11101/04/12 00:55:01 METAR KPSM 040555Z 28006KT 10SM CLR M13/M21 A3001 RMK AO2A SLP165 T11351206 11097 21135 53005
0146726055047432012010406557+43083-070817FM-15+0030KPSM V0203005N004652200059N0160935N5-01365-02095101735ADDGF100991999999999999999999MA1101695101335REMMET09301/04/12 01:55:01 METAR KPSM 040655Z 30009KT 10SM CLR M14/M21 A3003 RMK AO2A SLP173 T11361209
0146726055047432012010407557+43083-070817FM-15+0030KPSM V0202805N003652200059N0160935N5-01405-02045101755ADDGF100991999999999999999999MA1101735101375REMMET09301/04/12 02:55:01 METAR KPSM 040755Z 28007KT 10SM CLR M14/M20 A3004 RMK AO2A SLP175 T11401204
0166726055047432012010408557+43083-070817FM-15+0030KPSM V0203005N004152200059N0160935N5-01425-02065101755ADDGF100991999999999999999999MA1101735101375MD1140104+9999REMMET09901/04/12 03:55:01 METAR KPSM 040855Z 30008KT 10SM CLR M14/M21 A3004 RMK AO2A SLP175 T11421206 51010
0146726055047432012010409557+43083-070817FM-15+0030KPSM V0203005N003652200059N0160935N5-01435-02045101775ADDGF100991999999999999999999MA1101735101375REMMET09301/04/12 04:55:01 METAR KPSM 040955Z 30007KT 10SM CLR M14/M20 A3004 RMK AO2A SLP177 T11431204
0146726055047432012010410557+43083-070817FM-15+0030KPSM V0202905N003152200059N0160935N5-01465-02045101785ADDGF100991999999999999999999MA1101735101375REMMET09301/04/12 05:55:01 METAR KPSM 041055Z 29006KT 10SM CLR M15/M20 A3004 RMK AO2A SLP178 T11461204
0204726055047432012010411557+43083-070817FM-15+0030KPSM V0202905N004152200059N0160935N5-01485-02075101785ADDGF100991999999999999999999KA1999M-01351KA2999N-01481MA1101735101375MD1140024+9999REMMET11101/04/12 06:55:01 METAR KPSM 041155Z 29008KT 10SM CLR M15/M21 A3004 RMK AO2A SLP178 T11481207 11135 21148 51002
0146726055047432012010412557+43083-070817FM-15+0030KPSM V0202905N004652200059N0160935N5-01425-02075101835ADDGF100991999999999999999999MA1101795101435REMMET09301/04/12 07:55:01 METAR KPSM 041255Z 29009KT 10SM CLR M14/M21 A3006 RMK AO2A SLP183 T11421207
0180726055047432012010413557+43083-070817FM-15+0030KPSM V0202805N004652200059N0160935N5-01225-02025101865ADDGA1045+076205999GD12991+0762059GF104991999999999999999999MA1101835101475REMMET09601/04/12 08:55:01 METAR KPSM 041355Z 28009KT 10SM SCT250 M12/M20 A3007 RMK AO2A SLP186 T11221202
0200726055047432012010414557+43083-070817FM-15+0030KPSM V0202805N00625076205MN0160935N5-01035-02015101825ADDGA1075+076205999GD13991+0762059GF107991999999999999999999MA1101795101435MD1040054+9999REMMET10201/04/12 09:55:01 METAR KPSM 041455Z 28012KT 10SM BKN250 M10/M20 A3006 RMK AO2A SLP182 T11031201 50005
0180726055047432012010415557+43083-070817FM-15+0030KPSM V0202805N003652200059N0160935N5-00785-02015101765ADDGA1045+076205999GD12991+0762059GF104991999999999999999999MA1101735101375REMMET09601/04/12 10:55:01 METAR KPSM 041555Z 28007KT 10SM SCT250 M08/M20 A3004 RMK AO2A SLP176 T10781201
0180726055047432012010416557+43083-070817FM-15+0030KPSM V0202605V00415076205MN0160935N5-00675-02075101615ADDGA1075+076205999GD13991+0762059GF107991999999999999999999MA1101595101235REMMET09601/04/12 11:55:01 METAR KPSM 041655Z 26008KT 10SM BKN250 M07/M21 A3000 RMK AO2A SLP161 T10671207
0238726055047432012010417557+43083-070817FM-15+0030KPSM V0202705N00465076205MN0160935N5-00495-02165101535ADDGA1075+076205999GD13991+0762059GF107991999999999999999999KA1999M-00491KA2999N-01481MA1101495101135MD1840294+9999REMMET11401/04/12 12:55:01 METAR KPSM 041755Z 27009KT 10SM BKN250 M05/M22 A2997 RMK AO2A SLP153 T10491216 11049 21148 58029
0180726055047432012010418557+43083-070817FM-15+0030KPSM V0202605N004652200059N0160935N5-00465-02185101525ADDGA1045+076205999GD12991+0762059GF104991999999999999999999MA1101495101135REMMET09601/04/12 13:55:01 METAR KPSM 041855Z 26009KT 10SM SCT250 M05/M22 A2997 RMK AO2A SLP152 T10461218
0218726055047432012010419557+43083-070817FM-15+0030KPSM V0202505N00625076205MN0160935N5-00465-02055101525ADDGA1045+021345999GA2075+076205999GD12991+0213459GD23991+0762059GF107991999999999999999999MA1101495101135REMMET10301/04/12 14:55:01 METAR KPSM 041955Z 25012KT 10SM SCT070 BKN250 M05/M21 A2997 RMK AO2A SLP152 T10461205
0238726055047432012010420557+43083-070817FM-15+0030KPSM V0202705N003652200059N0160935N5-00565-02065101555ADDGA1045+024385999GA2045+076205999GD12991+0243859GD22991+0762059GF104991999999999999999999MA1101525101165MD1340024+9999REMMET10901/04/12 15:55:01 METAR KPSM 042055Z 27007KT 10SM SCT080 SCT250 M06/M21 A2998 RMK AO2A SLP155 T10561206 53002
0218726055047432012010421557+43083-070817FM-15+0030KPSM V0209999C00005051825MN0160935N5-00675-01895101525ADDGA1045+024385999GA2075+051825999GD12991+0243859GD23991+0518259GF107991999999999999999999MA1101495101135REMMET10301/04/12 16:55:01 METAR KPSM 042155Z 00000KT 10SM SCT080 BKN170 M07/M19 A2997 RMK AO2A SLP152 T10671189
0180726055047432012010422557+43083-070817FM-15+0030KPSM V0209999C00005025915MN0160935N5-00595-01755101495ADDGA1085+025915999GD14991+0259159GF108991999999999999999999MA1101465101105REMMET09601/04/12 17:55:01 METAR KPSM 042255Z 00000KT 10SM OVC085 M06/M18 A2996 RMK AO2A SLP149 T10591175
0238726055047432012010423557+43083-070817FM-15+0030KPSM V0209999C00005024385MN0160935N5-00585-01605101505ADDGA1085+024385999GD14991+0243859GF108991999999999999999999KA1999M-00401KA2999N-00671MA1101465101105MD1640064+9999REMMET11401/04/12 18:55:02 METAR KPSM 042355Z 00000KT 10SM OVC080 M06/M16 A2996 RMK AO2A SLP150 T10581160 11040 21067 56006
0180726055047432012010500557+43083-070817FM-15+0030KPSM V0201705N00155024385MN0160935N5-00565-01625101455ADDGA1085+024385999GD14991+0243859GF108991999999999999999999MA1101425101065REMMET09601/04/12 19:55:01 METAR KPSM 050055Z 17003KT 10SM OVC080 M06/M16 A2995 RMK AO2A SLP145 T10561162
0218726055047432012010501557+43083-070817FM-15+0030KPSM V0202005N00265045725MN0160935N5-00505-01665101355ADDGA1045+022865999GA2085+045725999GD12991+0228659GD24991+0457259GF108991999999999999999999MA1101325100965REMMET10301/04/12 20:55:01 METAR KPSM 050155Z 20005KT 10SM SCT075 OVC150 M05/M17 A2992 RMK AO2A SLP135 T10501166
0238726055047432012010502557+43083-070817FM-15+0030KPSM V0202205N00265024385MN0160935N5-00465-01685101285ADDGA1075+024385999GA2075+045725999GD13991+0243859GD23991+0457259GF107991999999999999999999MA1101255100895MD1840214+9999REMMET10901/04/12 21:55:01 METAR KPSM 050255Z 22005KT 10SM BKN080 BKN150 M05/M17 A2990 RMK AO2A SLP128 T10461168 58021
0180726055047432012010503557+43083-070817FM-15+0030KPSM V0202405N00315024385MN0160935N5-00435-01595101255ADDGA1085+024385999GD14991+0243859GF108991999999999999999999MA1101225100865REMMET09601/04/12 22:55:01 METAR KPSM 050355Z 24006KT 10SM OVC080 M04/M16 A2989 RMK AO2A SLP125 T10431159
0190726055047432012010504557+43083-070817FM-15+0030KPSM V0202505N00365024385MN0160935N5-00435-01545101205ADDGA1085+024385999GD14991+0243859GF108991999999999999999999MA1101155100795REMMET10601/04/12 23:55:01 METAR KPSM 050455Z 25007KT 10SM OVC080 M04/M15 A2987 RMK AO2A SLP120 T10431154 410401148
0238726055047432012010505557+43083-070817FM-15+0030KPSM V0202305N00315021345MN0160935N5-00435-01525101145ADDGA1085+021345999GD14991+0213459GF108991999999999999999999KA1999M-00431KA2999N-00571MA1101125100765MD1840144+9999REMMET11401/05/12 00:55:01 METAR KPSM 050555Z 23006KT 10SM OVC070 M04/M15 A2986 RMK AO2A SLP114 T10431152 11043 21057 58014
0180726055047432012010506557+43083-070817FM-15+0030KPSM V0202305N00265021345MN0160935N5-00445-01525101105ADDGA1085+021345999GD14991+0213459GF108991999999999999999999MA1101055100695REMMET09601/05/12 01:55:01 METAR KPSM 050655Z 23005KT 10SM OVC070 M04/M15 A2984 RMK AO2A SLP110 T10441152
0180726055047432012010507557+43083-070817FM-15+0030KPSM V0202305N00265021345MN0160935N5-00445-01535101065ADDGA1085+021345999GD14991+0213459GF108991999999999999999999MA1101025100665REMMET09601/05/12 02:55:01 METAR KPSM 050755Z 23005KT 10SM OVC070 M04/M15 A2983 RMK AO2A SLP106 T10441153
0200726055047432012010508557+43083-070817FM-15+0030KPSM V0202405N00265021345MN0160935N5-00435-01495101035ADDGA1085+021345999GD14991+0213459GF108991999999999999999999MA1100985100625MD1640114+9999REMMET10201/05/12 03:55:01 METAR KPSM 050855Z 24005KT 10SM OVC070 M04/M15 A2982 RMK AO2A SLP103 T10431149 56011
0180726055047432012010509557+43083-070817FM-15+0030KPSM V0202305N00215021345MN0160935N5-00465-01455101005ADDGA1085+021345999GD14991+0213459GF108991999999999999999999MA1100955100595REMMET09601/05/12 04:55:01 METAR KPSM 050955Z 23004KT 10SM OVC070 M05/M15 A2981 RMK AO2A SLP100 T10461145
0180726055047432012010510557+43083-070817FM-15+0030KPSM V0202405N00265019815MN0160935N5-00495-01415100965ADDGA1085+019815999GD14991+0198159GF108991999999999999999999MA1100915100565REMMET09601/05/12 05:55:01 METAR KPSM 051055Z 24005KT 10SM OVC065 M05/M14 A2980 RMK AO2A SLP096 T10491141
0238726055047432012010511557+43083-070817FM-15+0030KPSM V0202605N00315019815MN0160935N5-00475-01355100935ADDGA1085+019815999GD14991+0198159GF108991999999999999999999KA1999M-00431KA2999N-00511MA1100915100565MD1640094+9999REMMET11401/05/12 06:55:01 METAR KPSM 051155Z 26006KT 10SM OVC065 M05/M14 A2980 RMK AO2A SLP093 T10471135 11043 21051 56009
0180726055047432012010512557+43083-070817FM-15+0030KPSM V0202305N00315018295MN0160935N5-00445-01315100925ADDGA1085+018295999GD14991+0182959GF108991999999999999999999MA1100885100525REMMET09601/05/12 07:55:01 METAR KPSM 051255Z 23006KT 10SM OVC060 M04/M13 A2979 RMK AO2A SLP092 T10441131
0180726055047432012010513557+43083-070817FM-15+0030KPSM V0202405N00315016765MN0160935N5-00355-01225100955ADDGA1085+016765999GD14991+0167659GF108991999999999999999999MA1100915100565REMMET09601/05/12 08:55:01 METAR KPSM 051355Z 24006KT 10SM OVC055 M03/M12 A2980 RMK AO2A SLP095 T10351122
0200726055047432012010514557+43083-070817FM-15+0030KPSM V0202405N00365016765MN0160935N5-00265-01135100945ADDGA1085+016765999GD14991+0167659GF108991999999999999999999MA1100915100565MD1540004+9999REMMET10201/05/12 09:55:01 METAR KPSM 051455Z 24007KT 10SM OVC055 M03/M11 A2980 RMK AO2A SLP094 T10261113 55000
0180726055047432012010515557+43083-070817FM-15+0030KPSM V0202705N00415015245MN0160935N5-00075-01025100815ADDGA1085+015245999GD14991+0152459GF108991999999999999999999MA1100785100425REMMET09601/05/12 10:55:01 METAR KPSM 051555Z 27008KT 10SM OVC050 M01/M10 A2976 RMK AO2A SLP081 T10071102
0179726055047432012010516557+43083-070817FM-15+0030KPSM V0202505N00415018295MN0160935N5+00005-00915100685ADDGA1075+018295999GD13991+0182959GF107991999999999999999999MA1100645100295REMMET09501/05/12 11:55:01 METAR KPSM 051655Z 25008KT 10SM BKN060 00/M09 A2972 RMK AO2A SLP068 T00001091
0237726055047432012010517557+43083-070817FM-15+0030KPSM V0202605N00515018295MN0160935N5+00135-00815100615ADDGA1075+018295999GD13991+0182959GF107991999999999999999999KA1999M+00141KA2999N-00471MA1100585100225MD1640334+9999REMMET11301/05/12 12:55:01 METAR KPSM 051755Z 26010KT 10SM BKN060 01/M08 A2970 RMK AO2A SLP061 T00131081 10014 21047 56033
0179726055047432012010518557+43083-070817FM-15+0030KPSM V0202505N00415018295MN0160935N5+00135-00775100625ADDGA1075+018295999GD13991+0182959GF107991999999999999999999MA1100615100255REMMET09501/05/12 13:55:01 METAR KPSM 051855Z 25008KT 10SM BKN060 01/M08 A2971 RMK AO2A SLP062 T00131077
0190726055047432012010519557+43083-070817FM-15+0030KPSM V0202805N004152200059N0160935N5+00275-00825100685ADDGA1045+013725999GD12991+0137259GF104991999999999999999999MA1100645100295OC100985REMMET09801/05/12 14:55:01 METAR KPSM 051955Z 28008G19KT 10SM SCT045 03/M08 A2972 RMK AO2A SLP068 T00271082
0199726055047432012010520557+43083-070817FM-15+0030KPSM V0202705N00415018295MN0160935N5+00175-00775100735ADDGA1075+018295999GD13991+0182959GF107991999999999999999999MA1100715100355MD1340134+9999REMMET10101/05/12 15:55:01 METAR KPSM 052055Z 27008KT 10SM BKN060 02/M08 A2974 RMK AO2A SLP073 T00171077 53013
0274726055047432012010521217+43083-070817FM-15+0030KPSM V0202705N00515013725MN0160935N5+00105-00805100765ADDAU116030015AW1855GA1025+009145999GA2075+013725999GA3075+018295999GD11991+0091459GD23991+0137259GD33991+0182959GF107991999999999999999999MA1100755100395MW1851REMMET10501/05/12 16:21:01 METAR KPSM 052121Z 27010KT 10SM -SHSN FEW030 BKN045 BKN060 01/M08 A2975 RMK AO2A SLP076
0207726055047432012010521517+43083-070817FM-15+0030KPSM V0202805N00365018295MN0160935N5+00105-00705100825ADDGA1045+013725999GA2075+018295999GD12991+0137259GD23991+0182959GF107991999999999999999999MA1100785100425REMMET09201/05/12 16:51:01 METAR KPSM 052151Z 28007KT 10SM SCT045 BKN060 01/M07 A2976 RMK AO2A SLP082
0234726055047432012010521557+43083-070817FM-15+0030KPSM V0202805N00415018295MN0160935N5+00095-00715100825ADDAA101000021GA1045+013725999GA2075+018295999GD12991+0137259GD23991+0182959GF107991999999999999999999MA1100785100425REMMET10801/05/12 16:55:01 METAR KPSM 052155Z 28008KT 10SM SCT045 BKN060 01/M07 A2976 RMK AO2A SLP082 P0000 T00091071
0180726055047432012010522557+43083-070817FM-15+0030KPSM V0203005N005152200059N0160935N5-00065-00775100915ADDGA1045+016765999GD12991+0167659GF104991999999999999999999MA1100885100525REMMET09601/05/12 17:55:01 METAR KPSM 052255Z 30010KT 10SM SCT055 M01/M08 A2979 RMK AO2A SLP091 T10061077
0274726055047432012010523557+43083-070817FM-15+0030KPSM V0203205N00725015245MN0160935N5-00085-00955101065ADDAA106000021GA1075+015245999GD13991+0152459GF107991999999999999999999KA1999M+00311KA2999N-00091MA1101025100665MD1340324+9999REMMET12001/05/12 18:55:02 METAR KPSM 052355Z 32014KT 10SM BKN050 M01/M09 A2983 RMK AO2A SLP106 60000 T10081095 10031 21009 53032EQDQ01  00008PRCP06
0180726055047432012010600557+43083-070817FM-15+0030KPSM V0203105N005752200059N0160935N5-00245-01265101135ADDGA1025+015245999GD11991+0152459GF102991999999999999999999MA1101085100725REMMET09601/05/12 19:55:01 METAR KPSM 060055Z 31011KT 10SM FEW050 M02/M13 A2985 RMK AO2A SLP113 T10241126
0180726055047432012010601557+43083-070817FM-15+0030KPSM V0203205N005152200059N0160935N5-00315-01305101215ADDGA1025+015245999GD11991+0152459GF102991999999999999999999MA1101195100835REMMET09601/05/12 20:55:01 METAR KPSM 060155Z 32010KT 10SM FEW050 M03/M13 A2988 RMK AO2A SLP121 T10311130
0200726055047432012010602557+43083-070817FM-15+0030KPSM V0202905N006252200059N0160935N5-00355-01305101225ADDGA1025+015245999GD11991+0152459GF102991999999999999999999MA1101195100835MD1140164+9999REMMET10201/05/12 21:55:01 METAR KPSM 060255Z 29012KT 10SM FEW050 M03/M13 A2988 RMK AO2A SLP122 T10351130 51016
0146726055047432012010603557+43083-070817FM-15+0030KPSM V0202905N004152200059N0160935N5-00405-01335101245ADDGF100991999999999999999999MA1101225100865REMMET09301/05/12 22:55:01 METAR KPSM 060355Z 29008KT 10SM CLR M04/M13 A2989 RMK AO2A SLP124 T10401133
0156726055047432012010604557+43083-070817FM-15+0030KPSM V0202805N002152200059N0160935N5-00505-01335101255ADDGF100991999999999999999999MA1101225100865REMMET10301/05/12 23:55:01 METAR KPSM 060455Z 28004KT 10SM CLR M05/M13 A2989 RMK AO2A SLP125 T10501133 400311051
0238726055047432012010605557+43083-070817FM-15+0030KPSM V0202605N002152200059N0160935N5-00525-01315101285ADDGA1025+045725999GD11991+0457259GF102991999999999999999999KA1999M-00101KA2999N-00541MA1101255100895MD1240064+9999REMMET11401/06/12 00:55:01 METAR KPSM 060555Z 26004KT 10SM FEW150 M05/M13 A2990 RMK AO2A SLP128 T10521131 11010 21054 52006
0218726055047432012010606557+43083-070817FM-15+0030KPSM V0202805N00265060965MN0160935N5-00475-01265101335ADDGA1025+042675999GA2075+060965999GD11991+0426759GD23991+0609659GF107991999999999999999999MA1101295100935REMMET10301/06/12 01:55:01 METAR KPSM 060655Z 28005KT 10SM FEW140 BKN200 M05/M13 A2991 RMK AO2A SLP133 T10471126
0180726055047432012010607557+43083-070817FM-15+0030KPSM V0202405N00265024385MN0160935N5-00395-01195101335ADDGA1085+024385999GD14991+0243859GF108991999999999999999999MA1101295100935REMMET09601/06/12 02:55:01 METAR KPSM 060755Z 24005KT 10SM OVC080 M04/M12 A2991 RMK AO2A SLP133 T10391119
0200726055047432012010608557+43083-070817FM-15+0030KPSM V0202405N00215022865MN0160935N5-00385-01115101315ADDGA1085+022865999GD14991+0228659GF108991999999999999999999MA1101295100935MD1040034+9999REMMET10201/06/12 03:55:01 METAR KPSM 060855Z 24004KT 10SM OVC075 M04/M11 A2991 RMK AO2A SLP131 T10381111 50003
0218726055047432012010609557+43083-070817FM-15+0030KPSM V0202505N00215039625MN0160935N5-00385-01095101295ADDGA1045+027435999GA2085+039625999GD12991+0274359GD24991+0396259GF108991999999999999999999MA1101255100895REMMET10301/06/12 04:55:01 METAR KPSM 060955Z 25004KT 10SM SCT090 OVC130 M04/M11 A2990 RMK AO2A SLP129 T10381109
0262726055047432012010610557+43083-070817FM-15+0030KPSM V0209999C00005011585MN0160935N5-00395-01065101305ADDAA101000021AU110030015AW1715GA1075+011585999GA2085+016765999GD13991+0115859GD24991+0167659GF108991999999999999999999MA1101295100935MW1711REMMET11301/06/12 05:55:01 METAR KPSM 061055Z 00000KT 10SM -SN BKN038 OVC055 M04/M11 A2991 RMK AO2A SLP130 P0000 T10391106
0208726055047432012010611376+43083-070817FM-15+0030KPSM V0209999C00005006105MN0024145N5-00405-01005101315ADDAU116030015AW1855GA1075+006105999GA2085+010675999GD13991+0061059GD24991+0106759MA1101295100935REMMET10201/06/12 06:37:01 METAR KPSM 061137Z 00000KT 1 1/2SM -SHSN BKN020 OVC035 M04/M10 A2991 RMK AO2A SLP131
0236726055047432012010611447+43083-070817FM-15+0030KPSM V0209999C00005007625MN0048285N5-00405-01005101315ADDAU116030015AW1855GA1075+007625999GA2085+012195999GD13991+0076259GD24991+0121959GF108991999999999999999999MA1101295100935MW1851REMMET09801/06/12 06:44:01 METAR KPSM 061144Z 00000KT 3SM -SHSN BKN025 OVC040 M04/M10 A2991 RMK AO2A SLP131
0395726055047432012010611557+43083-070817FM-15+0030KPSM V0209999C00005012195MN0096565N5-00415-00945101315ADDAA101000021AA206000021AU116030015AW1855GA1045+007625999GA2075+012195999GA3085+019815999GD12991+0076259GD23991+0121959GD34991+0198159GF108991999999999999999999KA1999M-00371KA2999N-00511MA1101295100935MD1540004+9999MW1851REMMET14501/06/12 06:55:01 METAR KPSM 061155Z 00000KT 6SM -SHSN SCT025 BKN040 OVC065 M04/M09 A2991 RMK AO2A SLP131 P0000 60000 T10411094 11037 21051 55000EQDQ01  00008PRCP06
0327726055047432012010612557+43083-070817FM-15+0030KPSM V0209999C00005021345MN0096565N5-00405-00805101315ADDAA101000021AU116030015AU200001015AW1105AW2855GA1025+009455999GA2045+014945999GA3085+021345999GD11991+0094559GD22991+0149459GD34991+0213459GF108991999999999999999999MA1101295100935MW1101MW2851REMMET12401/06/12 07:55:01 METAR KPSM 061255Z 00000KT 6SM -SHSN BR FEW031 SCT049 OVC070 M04/M08 A2991 RMK AO2A SLP131 P0000 T10401080
0246726055047432012010613247+43083-070817FM-15+0030KPSM V0209999C00005030485MN0160935N5-00405-00805101325ADDGA1025+009145999GA2045+018295999GA3085+030485999GD11991+0091459GD22991+0182959GD34991+0304859GF108991999999999999999999MA1101295100935REMMET10001/06/12 08:24:01 METAR KPSM 061324Z 00000KT 10SM FEW030 SCT060 OVC100 M04/M08 A2991 RMK AO2A SLP132
0290726055047432012010613557+43083-070817FM-15+0030KPSM V0209999C00005021345MN0160935N5-00335-00745101325ADDAA101000021GA1025+010675999GA2075+021345999GA3085+030485999GD11991+0106759GD23991+0213459GD34991+0304859GF108991999999999999999999MA1101295100935MV1025MW1161REMMET12101/06/12 08:55:01 METAR KPSM 061355Z 00000KT 10SM VCSH FEW035 BKN070 OVC100 M03/M07 A2991 RMK AO2A SLP132 P0000 T10331074
0237726055047432012010614137+43083-070817FM-15+0030KPSM V0200705N00155021345MN0160935N5-00305-00705101285ADDAU116030015AW1855GA1025+010675999GA2085+021345999GD11991+0106759GD24991+0213459GF108991999999999999999999MA1101255100895MW1851REMMET09901/06/12 09:13:01 METAR KPSM 061413Z 07003KT 10SM -SHSN FEW035 OVC070 M03/M07 A2990 RMK AO2A SLP128
0291726055047432012010614557+43083-070817FM-15+0030KPSM V0209999C00005018295MN0160935N5-00165-00545101235ADDAA101000021AA203000021GA1075+018295999GA2085+027435999GD13991+0182959GD24991+0274359GF108991999999999999999999MA1101195100835MD1840084+9999REMMET12101/06/12 09:55:01 METAR KPSM 061455Z 00000KT 10SM BKN060 OVC090 M02/M05 A2988 RMK AO2A SLP123 P0000 60000 T10161054 58008EQDQ01  00008PRCP03
0218726055047432012010615557+43083-070817FM-15+0030KPSM V0203605N00155018295MN0160935N5-00075-00445101135ADDGA1075+018295999GA2085+027435999GD13991+0182959GD24991+0274359GF108991999999999999999999MA1101125100765REMMET10301/06/12 10:55:01 METAR KPSM 061555Z 36003KT 10SM BKN060 OVC090 M01/M04 A2986 RMK AO2A SLP113 T10071044
0180726055047432012010616557+43083-070817FM-15+0030KPSM V0203205N00215018295MN0160935N5-00035-00425100965ADDGA1085+018295999GD14991+0182959GF108991999999999999999999MA1100955100595REMMET09601/06/12 11:55:01 METAR KPSM 061655Z 32004KT 10SM OVC060 M00/M04 A2981 RMK AO2A SLP096 T10031042
0311726055047432012010617557+43083-070817FM-15+0030KPSM V0203605N00155076205MN0160935N5+00235-00335100875ADDAA106000021GA1045+018295999GA2075+076205999GD12991+0182959GD23991+0762059GF107991999999999999999999KA1999M+00241KA2999N-00421MA1100855100495MD1740364+9999REMMET12601/06/12 12:55:01 METAR KPSM 061755Z 36003KT 10SM SCT060 BKN250 02/M03 A2978 RMK AO2A SLP087 60000 T00231033 10024 21042 57036EQDQ01  00008PRCP06
0255726055047432012010618557+43083-070817FM-15+0030KPSM V0203405N00215076205MN0160935N5+00405-00325100845ADDGA1025+015245999GA2045+018295999GA3075+076205999GD11991+0152459GD22991+0182959GD33991+0762059GF107991999999999999999999MA1100815100455REMMET10901/06/12 13:55:01 METAR KPSM 061855Z 34004KT 10SM FEW050 SCT060 BKN250 04/M03 A2977 RMK AO2A SLP084 T00401032
0217726055047432012010619557+43083-070817FM-15+0030KPSM V0203405N00265076205MN0160935N5+00415-00275100795ADDGA1045+015245999GA2075+076205999GD12991+0152459GD23991+0762059GF107991999999999999999999MA1100785100425REMMET10201/06/12 14:55:01 METAR KPSM 061955Z 34005KT 10SM SCT050 BKN250 04/M03 A2976 RMK AO2A SLP079 T00411027
0237726055047432012010620557+43083-070817FM-15+0030KPSM V0203305N00315076205MN0160935N5+00175-00295100745ADDGA1045+014945999GA2075+076205999GD12991+0149459GD23991+0762059GF107991999999999999999999MA1100715100355MD1840124+9999REMMET10801/06/12 15:55:01 METAR KPSM 062055Z 33006KT 10SM SCT049 BKN250 02/M03 A2974 RMK AO2A SLP074 T00171029 58012
0218726055047432012010621557+43083-070817FM-15+0030KPSM V0203405N00315060965MN0160935N5-00085-00355100785ADDGA1025+013725999GA2075+060965999GD11991+0137259GD23991+0609659GF107991999999999999999999MA1100755100395REMMET10301/06/12 16:55:01 METAR KPSM 062155Z 34006KT 10SM FEW045 BKN200 M01/M03 A2975 RMK AO2A SLP078 T10081035
0256726055047432012010622557+43083-070817FM-15+0030KPSM V0209999C00005060965MN0160935N5-00095-00365100785ADDGA1025+013725999GA2045+045725999GA3075+060965999GD11991+0137259GD22991+0457259GD33991+0609659GF107991999999999999999999MA1100755100395REMMET11001/06/12 17:55:01 METAR KPSM 062255Z 00000KT 10SM FEW045 SCT150 BKN200 M01/M04 A2975 RMK AO2A SLP078 T10091036
0314726055047432012010623557+43083-070817FM-15+0030KPSM V0203405N00265042675MN0160935N5-00095-00375100775ADDGA1025+013725999GA2075+042675999GA3085+060965999GD11991+0137259GD23991+0426759GD34991+0609659GF108991999999999999999999KA1999M+00441KA2999N-00161MA1100755100395MD1040024+9999REMMET12801/06/12 18:55:02 METAR KPSM 062355Z 34005KT 10SM FEW045 BKN140 OVC200 M01/M04 A2975 RMK AO2A SLP077 T10091037 10044 21016 50002
0180726055047432012010700557+43083-070817FM-15+0030KPSM V0203605N00215042675MN0160935N5-00105-00425100795ADDGA1085+042675999GD14991+0426759GF108991999999999999999999MA1100785100425REMMET09601/06/12 19:55:01 METAR KPSM 070055Z 36004KT 10SM OVC140 M01/M04 A2976 RMK AO2A SLP079 T10101042
0180726055047432012010701557+43083-070817FM-15+0030KPSM V0209999C00005042675MN0160935N5-00145-00425100775ADDGA1085+042675999GD14991+0426759GF108991999999999999999999MA1100755100395REMMET09601/06/12 20:55:01 METAR KPSM 070155Z 00000KT 10SM OVC140 M01/M04 A2975 RMK AO2A SLP077 T10141042
0238726055047432012010702557+43083-070817FM-15+0030KPSM V0209999C00005045725MN0160935N5-00195-00455100795ADDGA1075+045725999GA2075+076205999GD13991+0457259GD23991+0762059GF107991999999999999999999MA1100785100425MD1140034+9999REMMET10901/06/12 21:55:01 METAR KPSM 070255Z 00000KT 10SM BKN150 BKN250 M02/M04 A2976 RMK AO2A SLP079 T10191045 51003
0256726055047432012010703557+43083-070817FM-15+0030KPSM V0209999C00005051825MN0160935N5-00215-00455100785ADDGA1025+042675999GA2075+051825999GA3075+076205999GD11991+0426759GD23991+0518259GD33991+0762059GF107991999999999999999999MA1100755100395REMMET11001/06/12 22:55:01 METAR KPSM 070355Z 00000KT 10SM FEW140 BKN170 BKN250 M02/M04 A2975 RMK AO2A SLP078 T10211045
0228726055047432012010704557+43083-070817FM-15+0030KPSM V0209999C00005076205MN0160935N5-00255-00455100745ADDGA1045+045725999GA2075+076205999GD12991+0457259GD23991+0762059GF107991999999999999999999MA1100715100355REMMET11301/06/12 23:55:01 METAR KPSM 070455Z 00000KT 10SM SCT150 BKN250 M02/M05 A2974 RMK AO2A SLP074 T10251045 400441054
0276726055047432012010705557+43083-070817FM-15+0030KPSM V0209999C00005045725MN0160935N5-00235-00455100735ADDGA1075+045725999GA2075+060965999GD13991+0457259GD23991+0609659GF107991999999999999999999KA1999M-00091KA2999N-00281MA1100715100355MD1640074+9999REMMET12101/07/12 00:55:01 METAR KPSM 070555Z 00000KT 10SM BKN150 BKN200 M02/M04 A2974 RMK AO2A SLP073 T10231045 11009 21028 56007
0180726055047432012010706557+43083-070817FM-15+0030KPSM V0209999C00005045725MN0160935N5-00265-00465100735ADDGA1075+045725999GD13991+0457259GF107991999999999999999999MA1100715100355REMMET09601/07/12 01:55:01 METAR KPSM 070655Z 00000KT 10SM BKN150 M03/M05 A2974 RMK AO2A SLP073 T10261046
0218726055047432012010707557+43083-070817FM-15+0030KPSM V0209999C00005042675MN0160935N5-00275-00465100745ADDGA1075+042675999GA2075+060965999GD13991+0426759GD23991+0609659GF107991999999999999999999MA1100715100355REMMET10301/07/12 02:55:01 METAR KPSM 070755Z 00000KT 10SM BKN140 BKN200 M03/M05 A2974 RMK AO2A SLP074 T10271046
0238726055047432012010708557+43083-070817FM-15+0030KPSM V0209999C00005042675MN0160935N5-00225-00435100695ADDGA1075+042675999GA2075+060965999GD13991+0426759GD23991+0609659GF107991999999999999999999MA1100685100325MD1840034+9999REMMET10901/07/12 03:55:01 METAR KPSM 070855Z 00000KT 10SM BKN140 BKN200 M02/M04 A2973 RMK AO2A SLP069 T10221043 58003
0180726055047432012010709557+43083-070817FM-15+0030KPSM V0209999C00005045725MN0160935N5-00185-00435100685ADDGA1085+045725999GD14991+0457259GF108991999999999999999999MA1100645100295REMMET09601/07/12 04:55:01 METAR KPSM 070955Z 00000KT 10SM OVC150 M02/M04 A2972 RMK AO2A SLP068 T10181043
0218726055047432012010710557+43083-070817FM-15+0030KPSM V0209999C000052200059N0160935N5-00345-00515100705ADDGA1025+045725999GA2045+076205999GD11991+0457259GD22991+0762059GF104991999999999999999999MA1100685100325REMMET10301/07/12 05:55:01 METAR KPSM 071055Z 00000KT 10SM FEW150 SCT250 M03/M05 A2973 RMK AO2A SLP070 T10341051
0301726055047432012010711557+43083-070817FM-15+0030KPSM V0209999C000052200059N0096565N5-00375-00525100745ADDAU100001015AW1105GA1025+045725999GA2045+076205999GD11991+0457259GD22991+0762059GF104991999999999999999999KA1999M-00181KA2999N-00401MA1100715100355MD1340044+9999MW1101REMMET12301/07/12 06:55:01 METAR KPSM 071155Z 00000KT 6SM BR FEW150 SCT250 M04/M05 A2974 RMK AO2A SLP074 T10371052 11018 21040 53004
0243726055047432012010712557+43083-070817FM-15+0030KPSM V0203105N00215064015MN0096565N5-00285-00415100795ADDAU100001015AW1105GA1025+036585999GA2075+064015999GD11991+0365859GD23991+0640159GF107991999999999999999999MA1100755100395MW1101REMMET10501/07/12 07:55:01 METAR KPSM 071255Z 31004KT 6SM BR FEW120 BKN210 M03/M04 A2975 RMK AO2A SLP079 T10281041
0217726055047432012010713557+43083-070817FM-15+0030KPSM V0203305N001552200059N0112655N5-00055-00355100765ADDGA1025+039625999GA2045+076205999GD11991+0396259GD22991+0762059GF104991999999999999999999MA1100755100395REMMET10201/07/12 08:55:01 METAR KPSM 071355Z 33003KT 7SM FEW130 SCT250 M01/M04 A2975 RMK AO2A SLP076 T10051035
0275726055047432012010714557+43083-070817FM-15+0030KPSM V0203405N00155076205MN0160935N5+00105-00285100765ADDGA1025+030485999GA2045+039625999GA3075+076205999GD11991+0304859GD22991+0396259GD33991+0762059GF107991999999999999999999MA1100715100355MD1040024+9999REMMET11501/07/12 09:55:01 METAR KPSM 071455Z 34003KT 10SM FEW100 SCT130 BKN250 01/M03 A2974 RMK AO2A SLP076 T00101028 50002
0217726055047432012010715557+43083-070817FM-15+0030KPSM V0209999C000052200059N0160935N5+00345-00185100645ADDGA1025+036585999GA2045+076205999GD11991+0365859GD22991+0762059GF104991999999999999999999MA1100615100255REMMET10201/07/12 10:55:01 METAR KPSM 071555Z 00000KT 10SM FEW120 SCT250 03/M02 A2971 RMK AO2A SLP064 T00341018
0179726055047432012010716557+43083-070817FM-15+0030KPSM V0209999C000052200059N0160935N5+00605-00115100495ADDGA1025+076205999GD11991+0762059GF102991999999999999999999MA1100475100125REMMET09501/07/12 11:55:01 METAR KPSM 071655Z 00000KT 10SM FEW250 06/M01 A2967 RMK AO2A SLP049 T00601011
0236726055047432012010717557+43083-070817FM-15+0030KPSM V0209999V002152200059N0160935N5+00755+00095100435ADDGA1025+076205999GD11991+0762059GF102991999999999999999999KA1999M+00751KA2999N-00481MA1100415100055MD1640324+9999REMMET11201/07/12 12:55:01 METAR KPSM 071755Z VRB04KT 10SM FEW250 08/01 A2965 RMK AO2A SLP043 T00750009 10075 21048 56032
0178726055047432012010718557+43083-070817FM-15+0030KPSM V0201105N001552200059N0160935N5+00715+00205100425ADDGA1045+076205999GD12991+0762059GF104991999999999999999999MA1100415100055REMMET09401/07/12 13:55:01 METAR KPSM 071855Z 11003KT 10SM SCT250 07/02 A2965 RMK AO2A SLP042 T00710020
0178726055047432012010719557+43083-070817FM-15+0030KPSM V0209999C00005018295MN0160935N5+00635+00205100455ADDGA1075+018295999GD13991+0182959GF107991999999999999999999MA1100445100085REMMET09401/07/12 14:55:01 METAR KPSM 071955Z 00000KT 10SM BKN060 06/02 A2966 RMK AO2A SLP045 T00630020
0198726055047432012010720557+43083-070817FM-15+0030KPSM V0209999C00005018295MN0160935N5+00535+00205100505ADDGA1085+018295999GD14991+0182959GF108991999999999999999999MA1100475100125MD1340074+9999REMMET10001/07/12 15:55:01 METAR KPSM 072055Z 00000KT 10SM OVC060 05/02 A2967 RMK AO2A SLP050 T00530020 53007
0178726055047432012010721557+43083-070817FM-15+0030KPSM V0209999C00005019815MN0160935N5+00485+00175100605ADDGA1085+019815999GD14991+0198159GF108991999999999999999999MA1100585100225REMMET09401/07/12 16:55:01 METAR KPSM 072155Z 00000KT 10SM OVC065 05/02 A2970 RMK AO2A SLP060 T00480017
0254726055047432012010722557+43083-070817FM-15+0030KPSM V0209999C00005076205MN0160935N5+00365+00155100685ADDGA1025+019815999GA2045+045725999GA3075+076205999GD11991+0198159GD22991+0457259GD33991+0762059GF107991999999999999999999MA1100645100295REMMET10801/07/12 17:55:01 METAR KPSM 072255Z 00000KT 10SM FEW065 SCT150 BKN250 04/02 A2972 RMK AO2A SLP068 T00360015
0312726055047432012010723557+43083-070817FM-15+0030KPSM V0209999C00005076205MN0160935N5+00275+00075100755ADDGA1025+018295999GA2045+054865999GA3075+076205999GD11991+0182959GD22991+0548659GD33991+0762059GF107991999999999999999999KA1999M+00751KA2999N+00111MA1100715100355MD1140254+9999REMMET12601/07/12 18:55:02 METAR KPSM 072355Z 00000KT 10SM FEW060 SCT180 BKN250 03/01 A2974 RMK AO2A SLP075 T00270007 10075 20011 51025
0217726055047432012010800557+43083-070817FM-15+0030KPSM V0202505N00155076205MN0160935N5+00365-00075100815ADDGA1025+054865999GA2075+076205999GD11991+0548659GD23991+0762059GF107991999999999999999999MA1100785100425REMMET10201/07/12 19:55:01 METAR KPSM 080055Z 25003KT 10SM FEW180 BKN250 04/M01 A2976 RMK AO2A SLP081 T00361007
0179726055047432012010801557+43083-070817FM-15+0030KPSM V0202605N00315076205MN0160935N5+00305-00135100875ADDGA1075+076205999GD13991+0762059GF107991999999999999999999MA1100855100495REMMET09501/07/12 20:55:01 METAR KPSM 080155Z 26006KT 10SM BKN250 03/M01 A2978 RMK AO2A SLP087 T00301013
0237726055047432012010802557+43083-070817FM-15+0030KPSM V0202605N00215076205MN0160935N5+00355-00115100955ADDGA1025+054865999GA2075+076205999GD11991+0548659GD23991+0762059GF107991999999999999999999MA1100915100565MD1340204+9999REMMET10801/07/12 21:55:01 METAR KPSM 080255Z 26004KT 10SM FEW180 BKN250 03/M01 A2980 RMK AO2A SLP095 T00351011 53020
0179726055047432012010803557+43083-070817FM-15+0030KPSM V0202705N00415076205MN0160935N5+00395-00145100995ADDGA1075+076205999GD13991+0762059GF107991999999999999999999MA1100955100595REMMET09501/07/12 22:55:01 METAR KPSM 080355Z 27008KT 10SM BKN250 04/M01 A2981 RMK AO2A SLP099 T00391014
0189726055047432012010804557+43083-070817FM-15+0030KPSM V0202705N002152200059N0160935N5+00365-00245101075ADDGA1045+076205999GD12991+0762059GF104991999999999999999999MA1101055100695REMMET10501/07/12 23:55:01 METAR KPSM 080455Z 27004KT 10SM SCT250 04/M02 A2984 RMK AO2A SLP107 T00361024 400761048
0237726055047432012010805557+43083-070817FM-15+0030KPSM V0202705N002652200059N0160935N5+00255-00275101145ADDGA1045+076205999GD12991+0762059GF104991999999999999999999KA1999M+00441KA2999N+00221MA1101125100765MD1340194+9999REMMET11301/08/12 00:55:01 METAR KPSM 080555Z 27005KT 10SM SCT250 03/M03 A2986 RMK AO2A SLP114 T00251027 10044 20022 53019
0217726055047432012010806557+43083-070817FM-15+0030KPSM V0202305N002652200059N0160935N5+00225-00295101255ADDGA1025+054865999GA2045+076205999GD11991+0548659GD22991+0762059GF104991999999999999999999MA1101225100865REMMET10201/08/12 01:55:01 METAR KPSM 080655Z 23005KT 10SM FEW180 SCT250 02/M03 A2989 RMK AO2A SLP125 T00221029
0217726055047432012010807557+43083-070817FM-15+0030KPSM V0202305N002652200059N0160935N5+00185-00325101325ADDGA1025+054865999GA2045+076205999GD11991+0548659GD22991+0762059GF104991999999999999999999MA1101295100935REMMET10201/08/12 02:55:01 METAR KPSM 080755Z 23005KT 10SM FEW180 SCT250 02/M03 A2991 RMK AO2A SLP132 T00181032
0237726055047432012010808557+43083-070817FM-15+0030KPSM V0202605N00265076205MN0160935N5+00135-00365101345ADDGA1025+054865999GA2075+076205999GD11991+0548659GD23991+0762059GF107991999999999999999999MA1101325100965MD1140194+9999REMMET10801/08/12 03:55:01 METAR KPSM 080855Z 26005KT 10SM FEW180 BKN250 01/M04 A2992 RMK AO2A SLP134 T00131036 51019
0217726055047432012010809557+43083-070817FM-15+0030KPSM V0202705N00315076205MN0160935N5+00025-00385101405ADDGA1025+054865999GA2075+076205999GD11991+0548659GD23991+0762059GF107991999999999999999999MA1101395101035REMMET10201/08/12 04:55:01 METAR KPSM 080955Z 27006KT 10SM FEW180 BKN250 00/M04 A2994 RMK AO2A SLP140 T00021038
0218726055047432012010810557+43083-070817FM-15+0030KPSM V0202605N003652200059N0160935N5-00025-00395101525ADDGA1025+054865999GA2045+076205999GD11991+0548659GD22991+0762059GF104991999999999999999999MA1101495101135REMMET10301/08/12 05:55:01 METAR KPSM 081055Z 26007KT 10SM FEW180 SCT250 M00/M04 A2997 RMK AO2A SLP152 T10021039
0276726055047432012010811557+43083-070817FM-15+0030KPSM V0202705N002652200059N0160935N5-00065-00425101615ADDGA1025+018295999GA2025+076205999GD11991+0182959GD21991+0762059GF102991999999999999999999KA1999M+00291KA2999N-00091MA1101595101235MD1340284+9999REMMET12101/08/12 06:55:01 METAR KPSM 081155Z 27005KT 10SM FEW060 FEW250 M01/M04 A3000 RMK AO2A SLP161 T10061042 10029 21009 53028
0217726055047432012010812557+43083-070817FM-15+0030KPSM V0202705N003152200059N0160935N5+00075-00455101745ADDGA1025+018295999GA2025+076205999GD11991+0182959GD21991+0762059GF102991999999999999999999MA1101735101375REMMET10201/08/12 07:55:01 METAR KPSM 081255Z 27006KT 10SM FEW060 FEW250 01/M05 A3004 RMK AO2A SLP174 T00071045
0217726055047432012010813557+43083-070817FM-15+0030KPSM V0202505N00155076205MN0160935N5+00355-00335101855ADDGA1045+013725999GA2075+076205999GD12991+0137259GD23991+0762059GF107991999999999999999999MA1101835101475REMMET10201/08/12 08:55:01 METAR KPSM 081355Z 25003KT 10SM SCT045 BKN250 04/M03 A3007 RMK AO2A SLP185 T00351033
0199726055047432012010814557+43083-070817FM-15+0030KPSM V0202705N00315013725MN0160935N5+00545-00395101895ADDGA1075+013725999GD13991+0137259GF107991999999999999999999MA1101865101505MD1140274+9999REMMET10101/08/12 09:55:01 METAR KPSM 081455Z 27006KT 10SM BKN045 05/M04 A3008 RMK AO2A SLP189 T00541039 51027
0179726055047432012010815557+43083-070817FM-15+0030KPSM V0202805N00415013725MN0160935N5+00505-00565101895ADDGA1075+013725999GD13991+0137259GF107991999999999999999999MA1101865101505REMMET09501/08/12 10:55:01 METAR KPSM 081555Z 28008KT 10SM BKN045 05/M06 A3008 RMK AO2A SLP189 T00501056
0179726055047432012010816557+43083-070817FM-15+0030KPSM V0202705N00465013725MN0160935N5+00535-00625101875ADDGA1075+013725999GD13991+0137259GF107991999999999999999999MA1101865101505REMMET09501/08/12 11:55:01 METAR KPSM 081655Z 27009KT 10SM BKN045 05/M06 A3008 RMK AO2A SLP187 T00531062
0237726055047432012010817557+43083-070817FM-15+0030KPSM V0203305N00465013725MN0160935N5+00485-00505101875ADDGA1075+013725999GD13991+0137259GF107991999999999999999999KA1999M+00561KA2999N-00101MA1101865101505MD1840014+9999REMMET11301/08/12 12:55:01 METAR KPSM 081755Z 33009KT 10SM BKN045 05/M05 A3008 RMK AO2A SLP187 T00481050 10056 21010 58001
0179726055047432012010818557+43083-070817FM-15+0030KPSM V0203005N00575014335MN0160935N5+00415-00585101905ADDGA1075+014335999GD13991+0143359GF107991999999999999999999MA1101865101505REMMET09501/08/12 13:55:01 METAR KPSM 081855Z 30011KT 10SM BKN047 04/M06 A3008 RMK AO2A SLP190 T00411058
0179726055047432012010819557+43083-070817FM-15+0030KPSM V0203005N00575013725MN0160935N5+00355-00615101985ADDGA1075+013725999GD13991+0137259GF107991999999999999999999MA1101965101605REMMET09501/08/12 14:55:01 METAR KPSM 081955Z 30011KT 10SM BKN045 03/M06 A3011 RMK AO2A SLP198 T00351061
0199726055047432012010820557+43083-070817FM-15+0030KPSM V0203105N00465014635MN0160935N5+00255-00645102055ADDGA1075+014635999GD13991+0146359GF107991999999999999999999MA1102035101675MD1340174+9999REMMET10101/08/12 15:55:01 METAR KPSM 082055Z 31009KT 10SM BKN048 03/M06 A3013 RMK AO2A SLP205 T00251064 53017
0179726055047432012010821557+43083-070817FM-15+0030KPSM V0203105N00265015245MN0160935N5+00185-00725102145ADDGA1075+015245999GD13991+0152459GF107991999999999999999999MA1102105101745REMMET09501/08/12 16:55:01 METAR KPSM 082155Z 31005KT 10SM BKN050 02/M07 A3015 RMK AO2A SLP214 T00181072
0179726055047432012010822557+43083-070817FM-15+0030KPSM V0203405N00465018295MN0160935N5+00095-00795102225ADDGA1075+018295999GD13991+0182959GF107991999999999999999999MA1102205101845REMMET09501/08/12 17:55:01 METAR KPSM 082255Z 34009KT 10SM BKN060 01/M08 A3018 RMK AO2A SLP222 T00091079
0238726055047432012010823557+43083-070817FM-15+0030KPSM V0203105N00215018295MN0160935N5-00035-00765102295ADDGA1075+018295999GD13991+0182959GF107991999999999999999999KA1999M+00541KA2999N-00031MA1102275101915MD1140244+9999REMMET11401/08/12 18:55:02 METAR KPSM 082355Z 31004KT 10SM BKN060 M00/M08 A3020 RMK AO2A SLP229 T10031076 10054 21003 51024
0180726055047432012010900557+43083-070817FM-15+0030KPSM V0202905N006252200059N0160935N5-00025-00875102375ADDGA1025+015245999GD11991+0152459GF102991999999999999999999MA1102345101975REMMET09601/08/12 19:55:01 METAR KPSM 090055Z 29012KT 10SM FEW050 M00/M09 A3022 RMK AO2A SLP237 T10021087
0146726055047432012010901557+43083-070817FM-15+0030KPSM V0202905N004152200059N0160935N5-00185-01025102415ADDGF100991999999999999999999MA1102375102015REMMET09301/08/12 20:55:01 METAR KPSM 090155Z 29008KT 10SM CLR M02/M10 A3023 RMK AO2A SLP241 T10181102
0166726055047432012010902557+43083-070817FM-15+0030KPSM V0202805N005152200059N0160935N5-00225-01095102435ADDGF100991999999999999999999MA1102405102045MD1140144+9999REMMET09901/08/12 21:55:01 METAR KPSM 090255Z 28010KT 10SM CLR M02/M11 A3024 RMK AO2A SLP243 T10221109 51014
0146726055047432012010903557+43083-070817FM-15+0030KPSM V0203005N004152200059N0160935N5-00325-01125102455ADDGF100991999999999999999999MA1102405102045REMMET09301/08/12 22:55:01 METAR KPSM 090355Z 30008KT 10SM CLR M03/M11 A3024 RMK AO2A SLP245 T10321112
0156726055047432012010904557+43083-070817FM-15+0030KPSM V0203205N004652200059N0160935N5-00425-01115102475ADDGF100991999999999999999999MA1102445102075REMMET10301/08/12 23:55:01 METAR KPSM 090455Z 32009KT 10SM CLR M04/M11 A3025 RMK AO2A SLP247 T10421111 400561044
0204726055047432012010905557+43083-070817FM-15+0030KPSM V0203005N001552200059N0160935N5-00475-01145102485ADDGF100991999999999999999999KA1999M+00031KA2999N-00501MA1102445102075MD1140054+9999REMMET11101/09/12 00:55:01 METAR KPSM 090555Z 30003KT 10SM CLR M05/M11 A3025 RMK AO2A SLP248 T10471114 10003 21050 51005
0180726055047432012010906557+43083-070817FM-15+0030KPSM V0202705N002652200059N0160935N5-00545-01125102525ADDGA1045+076205999GD12991+0762059GF104991999999999999999999MA1102515102145REMMET09601/09/12 01:55:01 METAR KPSM 090655Z 27005KT 10SM SCT250 M05/M11 A3027 RMK AO2A SLP252 T10541112
0180726055047432012010907557+43083-070817FM-15+0030KPSM V0202905N00265076205MN0160935N5-00575-01165102535ADDGA1075+076205999GD13991+0762059GF107991999999999999999999MA1102515102145REMMET09601/09/12 02:55:01 METAR KPSM 090755Z 29005KT 10SM BKN250 M06/M12 A3027 RMK AO2A SLP253 T10571116
0200726055047432012010908557+43083-070817FM-15+0030KPSM V0202805N00265076205MN0160935N5-00605-01175102535ADDGA1075+076205999GD13991+0762059GF107991999999999999999999MA1102515102145MD1140054+9999REMMET10201/09/12 03:55:01 METAR KPSM 090855Z 28005KT 10SM BKN250 M06/M12 A3027 RMK AO2A SLP253 T10601117 51005
0180726055047432012010909557+43083-070817FM-15+0030KPSM V0202405N00215076205MN0160935N5-00595-01205102555ADDGA1085+076205999GD14991+0762059GF108991999999999999999999MA1102515102145REMMET09601/09/12 04:55:01 METAR KPSM 090955Z 24004KT 10SM OVC250 M06/M12 A3027 RMK AO2A SLP255 T10591120
0218726055047432012010910557+43083-070817FM-15+0030KPSM V0202805N00215076205MN0160935N5-00605-01235102555ADDGA1045+030485999GA2075+076205999GD12991+0304859GD23991+0762059GF107991999999999999999999MA1102515102145REMMET10301/09/12 05:55:01 METAR KPSM 091055Z 28004KT 10SM SCT100 BKN250 M06/M12 A3027 RMK AO2A SLP255 T10601123
0276726055047432012010911557+43083-070817FM-15+0030KPSM V0209999C00005028965MN0160935N5-00535-01115102555ADDGA1075+028965999GA2085+076205999GD13991+0289659GD24991+0762059GF108991999999999999999999KA1999M-00461KA2999N-00621MA1102515102145MD1140024+9999REMMET12101/09/12 06:55:01 METAR KPSM 091155Z 00000KT 10SM BKN095 OVC250 M05/M11 A3027 RMK AO2A SLP255 T10531111 11046 21062 51002
0218726055047432012010912557+43083-070817FM-15+0030KPSM V0202605N00215076205MN0160935N5-00545-01125102555ADDGA1045+024385999GA2075+076205999GD12991+0243859GD23991+0762059GF107991999999999999999999MA1102515102145REMMET10301/09/12 07:55:01 METAR KPSM 091255Z 26004KT 10SM SCT080 BKN250 M05/M11 A3027 RMK AO2A SLP255 T10541112
0218726055047432012010913557+43083-070817FM-15+0030KPSM V0202505N00415030485MN0160935N5-00345-01105102575ADDGA1075+030485999GA2075+076205999GD13991+0304859GD23991+0762059GF107991999999999999999999MA1102545102185REMMET10301/09/12 08:55:01 METAR KPSM 091355Z 25008KT 10SM BKN100 BKN250 M03/M11 A3028 RMK AO2A SLP257 T10341110
0238726055047432012010914557+43083-070817FM-15+0030KPSM V0202605N00265030485MN0160935N5-00265-01125102555ADDGA1075+030485999GA2075+076205999GD13991+0304859GD23991+0762059GF107991999999999999999999MA1102545102185MD1040004+9999REMMET10901/09/12 09:55:01 METAR KPSM 091455Z 26005KT 10SM BKN100 BKN250 M03/M11 A3028 RMK AO2A SLP255 T10261112 50000
0180726055047432012010915557+43083-070817FM-15+0030KPSM V0209999C00005030485MN0160935N5-00215-01125102465ADDGA1075+030485999GD13991+0304859GF107991999999999999999999MA1102445102075REMMET09601/09/12 10:55:01 METAR KPSM 091555Z 00000KT 10SM BKN100 M02/M11 A3025 RMK AO2A SLP246 T10211112
0179726055047432012010916557+43083-070817FM-15+0030KPSM V0202805N00215030485MN0160935N5+00025-01105102315ADDGA1075+030485999GD13991+0304859GF107991999999999999999999MA1102275101915REMMET09501/09/12 11:55:01 METAR KPSM 091655Z 28004KT 10SM BKN100 00/M11 A3020 RMK AO2A SLP231 T00021110
0237726055047432012010917557+43083-070817FM-15+0030KPSM V0202505N002652200059N0160935N5+00045-01125102185ADDGA1045+030485999GD12991+0304859GF104991999999999999999999KA1999M+00111KA2999N-00561MA1102175101805MD1840374+9999REMMET11301/09/12 12:55:01 METAR KPSM 091755Z 25005KT 10SM SCT100 00/M11 A3017 RMK AO2A SLP218 T00041112 10011 21056 58037
0179726055047432012010918557+43083-070817FM-15+0030KPSM V0202305N001552200059N0160935N5+00165-01185102105ADDGA1045+027435999GD12991+0274359GF104991999999999999999999MA1102075101705REMMET09501/09/12 13:55:01 METAR KPSM 091855Z 23003KT 10SM SCT090 02/M12 A3014 RMK AO2A SLP210 T00161118
0179726055047432012010919557+43083-070817FM-15+0030KPSM V0202305N002652200059N0160935N5+00235-01255102025ADDGA1025+024385999GD11991+0243859GF102991999999999999999999MA1102005101645REMMET09501/09/12 14:55:01 METAR KPSM 091955Z 23005KT 10SM FEW080 02/M12 A3012 RMK AO2A SLP202 T00231125
0199726055047432012010920557+43083-070817FM-15+0030KPSM V0202205N00265076205MN0160935N5+00105-01235102015ADDGA1075+076205999GD13991+0762059GF107991999999999999999999MA1102005101645MD1640174+9999REMMET10101/09/12 15:55:01 METAR KPSM 092055Z 22005KT 10SM BKN250 01/M12 A3012 RMK AO2A SLP201 T00101123 56017
0180726055047432012010921557+43083-070817FM-15+0030KPSM V0201905N00215076205MN0160935N5-00035-01235101975ADDGA1075+076205999GD13991+0762059GF107991999999999999999999MA1101935101575REMMET09601/09/12 16:55:01 METAR KPSM 092155Z 19004KT 10SM BKN250 M00/M12 A3010 RMK AO2A SLP197 T10031123
0180726055047432012010922557+43083-070817FM-15+0030KPSM V0201705N00265076205MN0160935N5-00085-01215101945ADDGA1075+076205999GD13991+0762059GF107991999999999999999999MA1101905101535REMMET09601/09/12 17:55:01 METAR KPSM 092255Z 17005KT 10SM BKN250 M01/M12 A3009 RMK AO2A SLP194 T10081121
0238726055047432012010923557+43083-070817FM-15+0030KPSM V0201805N00215076205MN0160935N5-00165-00925101885ADDGA1075+076205999GD13991+0762059GF107991999999999999999999KA1999M+00251KA2999N-00201MA1101865101505MD1840134+9999REMMET11401/09/12 18:55:02 METAR KPSM 092355Z 18004KT 10SM BKN250 M02/M09 A3008 RMK AO2A SLP188 T10161092 10025 21020 58013
0180726055047432012011000557+43083-070817FM-15+0030KPSM V0201805N00215076205MN0160935N5-00185-00845101835ADDGA1085+076205999GD14991+0762059GF108991999999999999999999MA1101795101435REMMET09601/09/12 19:55:01 METAR KPSM 100055Z 18004KT 10SM OVC250 M02/M08 A3006 RMK AO2A SLP183 T10181084
0180726055047432012011001557+43083-070817FM-15+0030KPSM V0202005N00265076205MN0160935N5-00085-01025101775ADDGA1085+076205999GD14991+0762059GF108991999999999999999999MA1101735101375REMMET09601/09/12 20:55:01 METAR KPSM 100155Z 20005KT 10SM OVC250 M01/M10 A3004 RMK AO2A SLP177 T10081102
0238726055047432012011002557+43083-070817FM-15+0030KPSM V0202205N00265076205MN0160935N5-00065-01155101705ADDGA1045+045725999GA2075+076205999GD12991+0457259GD23991+0762059GF107991999999999999999999MA1101665101305MD1840174+9999REMMET10901/09/12 21:55:01 METAR KPSM 100255Z 22005KT 10SM SCT150 BKN250 M01/M11 A3002 RMK AO2A SLP170 T10061115 58017
0218726055047432012011003557+43083-070817FM-15+0030KPSM V0202005N00215076205MN0160935N5-00075-01135101605ADDGA1025+033535999GA2085+076205999GD11991+0335359GD24991+0762059GF108991999999999999999999MA1101565101205REMMET10301/09/12 22:55:01 METAR KPSM 100355Z 20004KT 10SM FEW110 OVC250 M01/M11 A2999 RMK AO2A SLP160 T10071113
0228726055047432012011004557+43083-070817FM-15+0030KPSM V0202005N00155033535MN0160935N5-00095-01115101485ADDGA1075+033535999GA2085+076205999GD13991+0335359GD24991+0762059GF108991999999999999999999MA1101465101105REMMET11301/09/12 23:55:01 METAR KPSM 100455Z 20003KT 10SM BKN110 OVC250 M01/M11 A2996 RMK AO2A SLP148 T10091111 400251062
0276726055047432012011005557+43083-070817FM-15+0030KPSM V0209999C00005076205MN0160935N5-00145-01025101385ADDGA1045+030485999GA2085+076205999GD12991+0304859GD24991+0762059GF108991999999999999999999KA1999M-00041KA2999N-00191MA1101355100995MD1740334+9999REMMET12101/10/12 00:55:01 METAR KPSM 100555Z 00000KT 10SM SCT100 OVC250 M01/M10 A2993 RMK AO2A SLP138 T10141102 11004 21019 57033
0179726055047432012011006557+43083-070817FM-15+0030KPSM V0209999C00005021345MN0160935N5+00025-00915101335ADDGA1085+021345999GD14991+0213459GF108991999999999999999999MA1101325100965REMMET09501/10/12 01:55:01 METAR KPSM 100655Z 00000KT 10SM OVC070 00/M09 A2992 RMK AO2A SLP133 T00021091
0179726055047432012011007557+43083-070817FM-15+0030KPSM V0202305N00215021345MN0160935N5+00055-00735101265ADDGA1085+021345999GD14991+0213459GF108991999999999999999999MA1101255100895REMMET09501/10/12 02:55:01 METAR KPSM 100755Z 23004KT 10SM OVC070 01/M07 A2990 RMK AO2A SLP126 T00051073
0237726055047432012011008557+43083-070817FM-15+0030KPSM V0202205N00365009455MN0160935N5+00075-00575101185ADDGA1075+009455999GA2085+021345999GD13991+0094559GD24991+0213459GF108991999999999999999999MA1101155100795MD1840194+9999REMMET10801/10/12 03:55:01 METAR KPSM 100855Z 22007KT 10SM BKN031 OVC070 01/M06 A2987 RMK AO2A SLP118 T00071057 58019
0217726055047432012011009557+43083-070817FM-15+0030KPSM V0202005N00215022865MN0160935N5+00015-00375101095ADDGA1025+009145999GA2085+022865999GD11991+0091459GD24991+0228659GF108991999999999999999999MA1101055100695REMMET10201/10/12 04:55:01 METAR KPSM 100955Z 20004KT 10SM FEW030 OVC075 00/M04 A2984 RMK AO2A SLP109 T00011037
0218726055047432012011010557+43083-070817FM-15+0030KPSM V0201805N00315076205MN0160935N5-00075-00395100995ADDGA1025+021345999GA2075+076205999GD11991+0213459GD23991+0762059GF107991999999999999999999MA1100955100595REMMET10301/10/12 05:55:01 METAR KPSM 101055Z 18006KT 10SM FEW070 BKN250 M01/M04 A2981 RMK AO2A SLP099 T10071039
0276726055047432012011011557+43083-070817FM-15+0030KPSM V0202005N002652200059N0160935N5-00205-00415100935ADDGA1025+021345999GA2025+076205999GD11991+0213459GD21991+0762059GF102991999999999999999999KA1999M+00081KA2999N-00201MA1100915100565MD1640254+9999REMMET12101/10/12 06:55:01 METAR KPSM 101155Z 20005KT 10SM FEW070 FEW250 M02/M04 A2980 RMK AO2A SLP093 T10201041 10008 21020 56025
0218726055047432012011012557+43083-070817FM-15+0030KPSM V0202305N00315018295MN0160935N5-00155-00345100965ADDGA1075+018295999GA2075+076205999GD13991+0182959GD23991+0762059GF107991999999999999999999MA1100955100595REMMET10301/10/12 07:55:01 METAR KPSM 101255Z 23006KT 10SM BKN060 BKN250 M02/M03 A2981 RMK AO2A SLP096 T10151034
0179726055047432012011013557+43083-070817FM-15+0030KPSM V0202305N00265018295MN0160935N5+00025-00395101005ADDGA1085+018295999GD14991+0182959GF108991999999999999999999MA1100985100625REMMET09501/10/12 08:55:01 METAR KPSM 101355Z 23005KT 10SM OVC060 00/M04 A2982 RMK AO2A SLP100 T00021039
0237726055047432012011014557+43083-070817FM-15+0030KPSM V0202505N00315018295MN0160935N5+00105-00435100955ADDGA1025+012195999GA2085+018295999GD11991+0121959GD24991+0182959GF108991999999999999999999MA1100915100565MD1040024+9999REMMET10801/10/12 09:55:01 METAR KPSM 101455Z 25006KT 10SM FEW040 OVC060 01/M04 A2980 RMK AO2A SLP095 T00101043 50002
0217726055047432012011015557+43083-070817FM-15+0030KPSM V0202105N00315030485MN0160935N5+00185-00445100865ADDGA1045+015245999GA2075+030485999GD12991+0152459GD23991+0304859GF107991999999999999999999MA1100855100495REMMET10201/10/12 10:55:01 METAR KPSM 101555Z 21006KT 10SM SCT050 BKN100 02/M04 A2978 RMK AO2A SLP086 T00181044
0179726055047432012011016557+43083-070817FM-15+0030KPSM V0202505N00315030485MN0160935N5+00375-00475100765ADDGA1075+030485999GD13991+0304859GF107991999999999999999999MA1100755100395REMMET09501/10/12 11:55:01 METAR KPSM 101655Z 25006KT 10SM BKN100 04/M05 A2975 RMK AO2A SLP076 T00371047
0248726055047432012011017557+43083-070817FM-15+0030KPSM V0202605N00465027435MN0160935N5+00645-00465100675ADDGA1075+027435999GD13991+0274359GF107991999999999999999999KA1999M+00651KA2999N-00191MA1100645100295MD1640284+9999OC100885REMMET11601/10/12 12:55:01 METAR KPSM 101755Z 26009G17KT 10SM BKN090 06/M05 A2972 RMK AO2A SLP067 T00641046 10065 21019 56028
0179726055047432012011018557+43083-070817FM-15+0030KPSM V0202605N003652200059N0160935N5+00715-00435100645ADDGA1025+027435999GD11991+0274359GF102991999999999999999999MA1100615100255REMMET09501/10/12 13:55:01 METAR KPSM 101855Z 26007KT 10SM FEW090 07/M04 A2971 RMK AO2A SLP064 T00711043
0190726055047432012011019557+43083-070817FM-15+0030KPSM V0202805N00675021345MN0160935N5+00675-00385100685ADDGA1075+021345999GD13991+0213459GF107991999999999999999999MA1100645100295OC100985REMMET09801/10/12 14:55:01 METAR KPSM 101955Z 28013G19KT 10SM BKN070 07/M04 A2972 RMK AO2A SLP068 T00671038
0199726055047432012011020557+43083-070817FM-15+0030KPSM V0202905N004152200059N0160935N5+00445-00355100775ADDGA1025+021345999GD11991+0213459GF102991999999999999999999MA1100755100395MD1340104+9999REMMET10101/10/12 15:55:01 METAR KPSM 102055Z 29008KT 10SM FEW070 04/M03 A2975 RMK AO2A SLP077 T00441035 53010
0179726055047432012011021557+43083-070817FM-15+0030KPSM V0203005N00415018295MN0160935N5+00405-00345100905ADDGA1075+018295999GD13991+0182959GF107991999999999999999999MA1100885100525REMMET09501/10/12 16:55:01 METAR KPSM 102155Z 30008KT 10SM BKN060 04/M03 A2979 RMK AO2A SLP090 T00401034
0179726055047432012011022557+43083-070817FM-15+0030KPSM V0202905N00515016765MN0160935N5+00455-00345101025ADDGA1085+016765999GD14991+0167659GF108991999999999999999999MA1100985100625REMMET09501/10/12 17:55:01 METAR KPSM 102255Z 29010KT 10SM OVC055 04/M03 A2982 RMK AO2A SLP102 T00451034
0237726055047432012011023557+43083-070817FM-15+0030KPSM V0202805N002152200059N0160935N5+00325-00365101065ADDGA1045+018295999GD12991+0182959GF104991999999999999999999KA1999M+00771KA2999N+00311MA1101025100665MD1140284+9999REMMET11301/10/12 18:55:01 METAR KPSM 102355Z 28004KT 10SM SCT060 03/M04 A2983 RMK AO2A SLP106 T00321036 10077 20031 51028
0179726055047432012011100557+43083-070817FM-15+0030KPSM V0202705N002652200059N0160935N5+00235-00405101095ADDGA1025+018295999GD11991+0182959GF102991999999999999999999MA1101055100695REMMET09501/10/12 19:55:01 METAR KPSM 110055Z 27005KT 10SM FEW060 02/M04 A2984 RMK AO2A SLP109 T00231040
0145726055047432012011101557+43083-070817FM-15+0030KPSM V0202805N003652200059N0160935N5+00185-00465101165ADDGF100991999999999999999999MA1101125100765REMMET09201/10/12 20:55:01 METAR KPSM 110155Z 28007KT 10SM CLR 02/M05 A2986 RMK AO2A SLP116 T00181046
0199726055047432012011102557+43083-070817FM-15+0030KPSM V0202905N004652200059N0160935N5+00135-00535101255ADDGA1025+018295999GD11991+0182959GF102991999999999999999999MA1101225100865MD1340194+9999REMMET10101/10/12 21:55:01 METAR KPSM 110255Z 29009KT 10SM FEW060 01/M05 A2989 RMK AO2A SLP125 T00131053 53019
0145726055047432012011103557+43083-070817FM-15+0030KPSM V0203005N003152200059N0160935N5+00065-00645101325ADDGF100991999999999999999999MA1101295100935REMMET09201/10/12 22:55:01 METAR KPSM 110355Z 30006KT 10SM CLR 01/M06 A2991 RMK AO2A SLP132 T00061064
0156726055047432012011104557+43083-070817FM-15+0030KPSM V0202905N002652200059N0160935N5-00095-00675101385ADDGF100991999999999999999999MA1101355100995REMMET10301/10/12 23:55:01 METAR KPSM 110455Z 29005KT 10SM CLR M01/M07 A2993 RMK AO2A SLP138 T10091067 400771020
0204726055047432012011105557+43083-070817FM-15+0030KPSM V0203205N001552200059N0160935N5-00185-00755101445ADDGF100991999999999999999999KA1999M+00301KA2999N-00181MA1101425101065MD1240204+9999REMMET11101/11/12 00:55:01 METAR KPSM 110555Z 32003KT 10SM CLR M02/M07 A2995 RMK AO2A SLP144 T10181075 10030 21018 52020
0146726055047432012011106557+43083-070817FM-15+0030KPSM V0203005N002652200059N0160935N5-00265-00815101525ADDGF100991999999999999999999MA1101495101135REMMET09301/11/12 01:55:01 METAR KPSM 110655Z 30005KT 10SM CLR M03/M08 A2997 RMK AO2A SLP152 T10261081
0146726055047432012011107557+43083-070817FM-15+0030KPSM V0203405N002652200059N0160935N5-00295-00855101535ADDGF100991999999999999999999MA1101495101135REMMET09301/11/12 02:55:01 METAR KPSM 110755Z 34005KT 10SM CLR M03/M09 A2997 RMK AO2A SLP153 T10291085
0166726055047432012011108557+43083-070817FM-15+0030KPSM V0203005N003652200059N0160935N5-00275-00835101595ADDGF100991999999999999999999MA1101565101205MD1140144+9999REMMET09901/11/12 03:55:01 METAR KPSM 110855Z 30007KT 10SM CLR M03/M08 A2999 RMK AO2A SLP159 T10271083 51014
0146726055047432012011109557+43083-070817FM-15+0030KPSM V0209999C000052200059N0160935N5-00335-00865101685ADDGF100991999999999999999999MA1101665101305REMMET09301/11/12 04:55:01 METAR KPSM 110955Z 00000KT 10SM CLR M03/M09 A3002 RMK AO2A SLP168 T10331086
0146726055047432012011110557+43083-070817FM-15+0030KPSM V0202905N003652200059N0160935N5-00355-00925101725ADDGF100991999999999999999999MA1101695101335REMMET09301/11/12 05:55:01 METAR KPSM 111055Z 29007KT 10SM CLR M03/M09 A3003 RMK AO2A SLP172 T10351092
0238726055047432012011111557+43083-070817FM-15+0030KPSM V0203505N002152200059N0160935N5-00465-00955101825ADDGA1025+036585999GD11991+0365859GF102991999999999999999999KA1999M-00081KA2999N-00491MA1101795101435MD1140234+9999REMMET11401/11/12 06:55:01 METAR KPSM 111155Z 35004KT 10SM FEW120 M05/M09 A3006 RMK AO2A SLP182 T10461095 11008 21049 51023
0180726055047432012011112557+43083-070817FM-15+0030KPSM V0200405N00155036585MN0160935N5-00325-01005101945ADDGA1075+036585999GD13991+0365859GF107991999999999999999999MA1101935101575REMMET09601/11/12 07:55:01 METAR KPSM 111255Z 04003KT 10SM BKN120 M03/M10 A3010 RMK AO2A SLP194 T10321100
0180726055047432012011113557+43083-070817FM-15+0030KPSM V0200205N002152200059N0160935N5-00205-01205102065ADDGA1045+036585999GD12991+0365859GF104991999999999999999999MA1102035101675REMMET09601/11/12 08:55:01 METAR KPSM 111355Z 02004KT 10SM SCT120 M02/M12 A3013 RMK AO2A SLP206 T10201120
0200726055047432012011114557+43083-070817FM-15+0030KPSM V0209999C000052200059N0160935N5-00065-01245102105ADDGA1045+036585999GD12991+0365859GF104991999999999999999999MA1102075101705MD1140284+9999REMMET10201/11/12 09:55:01 METAR KPSM 111455Z 00000KT 10SM SCT120 M01/M12 A3014 RMK AO2A SLP210 T10061124 51028
0179726055047432012011115557+43083-070817FM-15+0030KPSM V0209999C00005033535MN0160935N5+00025-01215102075ADDGA1075+033535999GD13991+0335359GF107991999999999999999999MA1102035101675REMMET09501/11/12 10:55:01 METAR KPSM 111555Z 00000KT 10SM BKN110 00/M12 A3013 RMK AO2A SLP207 T00021121
0179726055047432012011116557+43083-070817FM-15+0030KPSM V0201005N00315033535MN0160935N5+00055-00965102005ADDGA1075+033535999GD13991+0335359GF107991999999999999999999MA1101965101605REMMET09501/11/12 11:55:01 METAR KPSM 111655Z 10006KT 10SM BKN110 01/M10 A3011 RMK AO2A SLP200 T00051096
0237726055047432012011117557+43083-070817FM-15+0030KPSM V0201305N00365033535MN0160935N5+00075-00915101965ADDGA1075+033535999GD13991+0335359GF107991999999999999999999KA1999M+00091KA2999N-00511MA1101935101575MD1840144+9999REMMET11301/11/12 12:55:01 METAR KPSM 111755Z 13007KT 10SM BKN110 01/M09 A3010 RMK AO2A SLP196 T00071091 10009 21051 58014
0179726055047432012011118557+43083-070817FM-15+0030KPSM V0201105N00265033535MN0160935N5+00065-00895102005ADDGA1075+033535999GD13991+0335359GF107991999999999999999999MA1101965101605REMMET09501/11/12 13:55:01 METAR KPSM 111855Z 11005KT 10SM BKN110 01/M09 A3011 RMK AO2A SLP200 T00061089
0179726055047432012011119557+43083-070817FM-15+0030KPSM V0201105N00365027435MN0160935N5+00015-00865102025ADDGA1085+027435999GD14991+0274359GF108991999999999999999999MA1102005101645REMMET09501/11/12 14:55:01 METAR KPSM 111955Z 11007KT 10SM OVC090 00/M09 A3012 RMK AO2A SLP202 T00011086
0200726055047432012011120557+43083-070817FM-15+0030KPSM V0201105N00365030485MN0160935N5-00015-00745102095ADDGA1085+030485999GD14991+0304859GF108991999999999999999999MA1102075101705MD1340134+9999REMMET10201/11/12 15:55:01 METAR KPSM 112055Z 11007KT 10SM OVC100 M00/M07 A3014 RMK AO2A SLP209 T10011074 53013
0179726055047432012011121557+43083-070817FM-15+0030KPSM V0201105N00315030485MN0160935N5+00005-00645102075ADDGA1085+030485999GD14991+0304859GF108991999999999999999999MA1102035101675REMMET09501/11/12 16:55:01 METAR KPSM 112155Z 11006KT 10SM OVC100 00/M06 A3013 RMK AO2A SLP207 T00001064
0217726055047432012011122557+43083-070817FM-15+0030KPSM V0201005N00315030485MN0160935N5+00045-00545102065ADDGA1025+007625999GA2085+030485999GD11991+0076259GD24991+0304859GF108991999999999999999999MA1102035101675REMMET10201/11/12 17:55:01 METAR KPSM 112255Z 10006KT 10SM FEW025 OVC100 00/M05 A3013 RMK AO2A SLP206 T00041054
0275726055047432012011123557+43083-070817FM-15+0030KPSM V0201105N00515030485MN0160935N5+00065-00445102065ADDGA1045+007625999GA2085+030485999GD12991+0076259GD24991+0304859GF108991999999999999999999KA1999M+00101KA2999N-00011MA1102035101675MD1640034+9999REMMET12001/11/12 18:55:02 METAR KPSM 112355Z 11010KT 10SM SCT025 OVC100 01/M04 A3013 RMK AO2A SLP206 T00061044 10010 21001 56003
0207726055047432012011200367+43083-070817FM-15+0030KPSM V0201005N00365006715MN0160935N5+00105-00405102085ADDGA1075+006715999GA2085+030485999GD13991+0067159GD24991+0304859GF108991999999999999999999MA1102075101705REMMET09201/11/12 19:36:01 METAR KPSM 120036Z 10007KT 10SM BKN022 OVC100 01/M04 A3014 RMK AO2A SLP208
0217726055047432012011200557+43083-070817FM-15+0030KPSM V0201005N00415006715MN0160935N5+00075-00425102065ADDGA1075+006715999GA2085+030485999GD13991+0067159GD24991+0304859GF108991999999999999999999MA1102035101675REMMET10201/11/12 19:55:01 METAR KPSM 120055Z 10008KT 10SM BKN022 OVC100 01/M04 A3013 RMK AO2A SLP206 T00071042
0179726055047432012011201557+43083-070817FM-15+0030KPSM V0201105N00415006405MN0160935N5+00095-00395102065ADDGA1085+006405999GD14991+0064059GF108991999999999999999999MA1102035101675REMMET09501/11/12 20:55:01 METAR KPSM 120155Z 11008KT 10SM OVC021 01/M04 A3013 RMK AO2A SLP206 T00091039
0199726055047432012011202557+43083-070817FM-15+0030KPSM V0201105N00515006105MN0160935N5+00135-00345102035ADDGA1085+006105999GD14991+0061059GF108991999999999999999999MA1102005101645MD1840034+9999REMMET10101/11/12 21:55:01 METAR KPSM 120255Z 11010KT 10SM OVC020 01/M03 A3012 RMK AO2A SLP203 T00131034 58003
0179726055047432012011203557+43083-070817FM-15+0030KPSM V0201005N00415006405MN0160935N5+00175-00305101975ADDGA1085+006405999GD14991+0064059GF108991999999999999999999MA1101935101575REMMET09501/11/12 22:55:01 METAR KPSM 120355Z 10008KT 10SM OVC021 02/M03 A3010 RMK AO2A SLP197 T00171030
0227726055047432012011204557+43083-070817FM-15+0030KPSM V0201105N00365006715MN0160935N5+00205-00285101995ADDGA1075+006715999GA2085+008235999GD13991+0067159GD24991+0082359GF108991999999999999999999MA1101965101605REMMET11201/11/12 23:55:01 METAR KPSM 120455Z 11007KT 10SM BKN022 OVC027 02/M03 A3011 RMK AO2A SLP199 T00201028 400201051
0202726055047432012011205187+43083-070817FM-15+0030KPSM V0200905N00465007325MN0112655N5+00205-00305101885ADDAU110030015AW1715GA1085+007325999GD14991+0073259GF108991999999999999999999MA1101865101505MW1711REMMET09501/12/12 00:18:01 METAR KPSM 120518Z 09009KT 7SM -SN OVC024 02/M03 A3008 RMK AO2A PRESFR SLP188
0328726055047432012011205557+43083-070817FM-15+0030KPSM V0201105N00415006715MN0160935N5+00205-00245101885ADDAA101000021AA206000021GA1075+006715999GA2085+008845999GD13991+0067159GD24991+0088459GF108991999999999999999999KA1999M+00211KA2999N+00061MA1101865101505MD1840154+9999REMMET13201/12/12 00:55:01 METAR KPSM 120555Z 11008KT 10SM BKN022 OVC029 02/M02 A3008 RMK AO2A SLP188 P0000 60000 T00201024 10021 20006 58015EQDQ01  00008PRCP06
0217726055047432012011206557+43083-070817FM-15+0030KPSM V0201105N00465006715MN0160935N5+00245-00265101855ADDGA1075+006715999GA2085+008845999GD13991+0067159GD24991+0088459GF108991999999999999999999MA1101835101475REMMET10201/12/12 01:55:01 METAR KPSM 120655Z 11009KT 10SM BKN022 OVC029 02/M03 A3007 RMK AO2A SLP185 T00241026
0179726055047432012011207557+43083-070817FM-15+0030KPSM V0200805N00515006715MN0160935N5+00255-00295101765ADDGA1085+006715999GD14991+0067159GF108991999999999999999999MA1101735101375REMMET09501/12/12 02:55:01 METAR KPSM 120755Z 08010KT 10SM OVC022 03/M03 A3004 RMK AO2A SLP176 T00251029
0199726055047432012011208557+43083-070817FM-15+0030KPSM V0200805N00625007625MN0160935N5+00255-00325101705ADDGA1085+007625999GD14991+0076259GF108991999999999999999999MA1101665101305MD1840174+9999REMMET10101/12/12 03:55:01 METAR KPSM 120855Z 08012KT 10SM OVC025 03/M03 A3002 RMK AO2A SLP170 T00251032 58017
0234726055047432012011209557+43083-070817FM-15+0030KPSM V0200905N00625007625MN0160935N5+00255-00325101665ADDAA101000021AU110030015AW1715GA1085+007625999GD14991+0076259GF108991999999999999999999MA1101635101265MW1711OC101035REMMET10801/12/12 04:55:01 METAR KPSM 120955Z 09012G20KT 10SM -SN OVC025 03/M03 A3001 RMK AO2A SLP166 P0000 T00251032
0199726055047432012011210277+43083-070817FM-15+0030KPSM V0200805N00625007925MN0040235N5+00205-00305101605ADDAU110030015AW1715GA1085+007925999GD14991+0079259GF108991999999999999999999MA1101565101205MW1711REMMET09201/12/12 05:27:01 METAR KPSM 121027Z 08012KT 2 1/2SM -SN OVC026 02/M03 A2999 RMK AO2A SLP160
0275726055047432012011210397+43083-070817FM-15+0030KPSM V0200805N00625005495MN0024145N5+00205-00205101585ADDAU110030015AW1715ED116U12199GA1075+005495999GA2085+007625999GD13991+0054959GD24991+0076259GF108991999999999999999999MA1101565101205MW1711OC101135REMMET11801/12/12 05:39:01 METAR KPSM 121039Z 08012G22KT 1 1/2SM R16/4000V5000FT -SN BKN018 OVC025 02/M02 A2999 RMK AO2A SLP158
0326726055047432012011210557+43083-070817FM-15+0030KPSM V0200905N00625003355MN0012075N5+00125-00125101585ADDAA101000021AU110030015AU200001015AW1105AW2715ED116U08539GA1075+003355999GA2085+006105999GD13991+0033559GD24991+0061059GF108991999999999999999999MA1101565101205MW1101MW2711OC101035REMMET13501/12/12 05:55:01 METAR KPSM 121055Z 09012G20KT 3/4SM R16/2800V3500FT -SN BR BKN011 OVC020 01/M01 A2999 RMK AO2A SLP158 P0000 T00121012
0307726055047432012011211087+43083-070817FM-15+0030KPSM V0200805N00675002445MN0010067N5+00105-00105101565ADDAU110030015AU200001015AW1105AW2715ED116U07329GA1075+002445999GA2085+004575999GD13991+0024459GD24991+0045759GF108991999999999999999999MA1101525101165MW1101MW2711REMMET11601/12/12 06:08:01 METAR KPSM 121108Z 08013KT 5/8SM R16/2400V3000FT -SN BR BKN008 OVC015 01/M01 A2998 RMK AO2A SLP156EQDR01 5/8SM7VIS011
0318726055047432012011211257+43083-070817FM-15+0030KPSM V0200705N00515002135MN0010067N5+00105-00105101555ADDAU110030015AU200001015AW1105AW2715ED116U07929GA1025+000915999GA2085+002135999GD11991+0009159GD24991+0021359GF108991999999999999999999MA1101525101165MW1101MW2711OC100935REMMET11901/12/12 06:25:01 METAR KPSM 121125Z 07010G18KT 5/8SM R16/2600V3000FT -SN BR FEW003 OVC007 01/M01 A2998 RMK AO2A SLP155EQDR01 5/8SM7VIS011
0307726055047432012011211487+43083-070817FM-15+0030KPSM V0200705N00575000915MN0010067N5+00005+00005101485ADDAU110030015AU200001015AW1105AW2715ED116U07929GA1075+000915999GA2085+002745999GD13991+0009159GD24991+0027459GF108991999999999999999999MA1101465101105MW1101MW2711REMMET11601/12/12 06:48:01 METAR KPSM 121148Z 07011KT 5/8SM R16/2600V3000FT -SN BR BKN003 OVC009 00/M00 A2996 RMK AO2A SLP148EQDR01 5/8SM7VIS011
0481726055047432012011211557+43083-070817FM-15+0030KPSM V0200705N00625000915MN0010067N5+00055-00045101475ADDAA101001595AA206001591AA324001591AJ100039599999999AU110030015AU200001015AW1105AW2715ED116U07929GA1075+000915999GA2085+002445999GD13991+0009159GD24991+0024459GF108991999999999999999999KA1999M+00261KA2999N+00041MA1101465101105MD1840234+9999MW1101MW2711REMMET16801/12/12 06:55:01 METAR KPSM 121155Z 07012KT 5/8SM R16/2600V2800FT -SN BR BKN003 OVC008 00/M00 A2996 RMK AO2A SLP147 P0006 60006 70006 4/001 T00051004 10026 20004 58023EQDQ01  00158PRCP06Q02  00158PRCP24R01 5/8SM7VIS011
0283726055047432012011212557+43083-070817FM-15+0030KPSM V0200605N00625000915MN0012075N5+00055-00015101305ADDAA101002395AU110030015AU200001015AW1105AW2715ED116U12199GA1085+000915999GD14991+0009159GF108991999999999999999999MA1101295100935MW1101MW2711OC100985REMMET12301/12/12 07:55:01 METAR KPSM 121255Z 06012G19KT 3/4SM R16/4000FT -SN BR OVC003 01/M00 A2991 RMK AO2A SLP130 P0009 T00051001
0254726055047432012011213377+43083-070817FM-15+0030KPSM V0200605N00775001225MN0016095N5+00105+00005101255ADDAU110030015AU200001015AW1105AW2715ED116U18299GA1085+001225999GD14991+0012259GF108991999999999999999999MA1101225100865MW1101MW2711OC101085REMMET10501/12/12 08:37:01 METAR KPSM 121337Z 06015G21KT 1SM R16/P6000FT -SN BR OVC004 01/00 A2989 RMK AO2A SLP125
0251726055047432012011213557+43083-070817FM-15+0030KPSM V0200705N00575001225MN0020125N5+00085+00025101245ADDAA101001895AU110030015AU200001015AW1105AW2715GA1085+001225999GD14991+0012259GF108991999999999999999999MA1101225100865MW1101MW2711REMMET11001/12/12 08:55:01 METAR KPSM 121355Z 07011KT 1 1/4SM -SN BR OVC004 01/00 A2989 RMK AO2A SLP124 P0007 T00080002
0331726055047432012011214557+43083-070817FM-15+0030KPSM V0200605N00675000915MN0016095N5+00095+00025101065ADDAA101002595AA203006691AU110030015AU200001015AW1105AW2715ED116U12199GA1085+000915999GD14991+0009159GF108991999999999999999999MA1101055100695MD1740414+9999MW1101MW2711REMMET13501/12/12 09:55:01 METAR KPSM 121455Z 06013KT 1SM R16/4000VP6000FT -SN BR OVC003 01/00 A2984 RMK AO2A SLP106 P0010 60026 T00090002 57041EQDQ01  00668PRCP03
0287726055047432012011215557+43083-070817FM-15+0030KPSM V0200605N00575001225MN0020125N5+00125+00065100865ADDAA101002895AU110020025AU220030035AU300001015AW1105AW2615AW3715GA1085+001225999GD14991+0012259GF108991999999999999999999MA1100855100495MW1101MW2611MW3711OC100885REMMET11501/12/12 10:55:01 METAR KPSM 121555Z 06011G17KT 1 1/4SM -RASN BR OVC004 01/01 A2978 RMK AO2A SLP086 P0011 T00120006
0302726055047432012011216557+43083-070817FM-15+0030KPSM V0200505N00725001225MN0024145N5+00085+00015100615ADDAA101004895AU110060025AU220020025AU320030035AU400001015AW1105AW2615AW3715AW4745GA1085+001225999GD14991+0012259GF108991999999999999999999MA1100585100225MW1611MW2711MW3791REMMET12101/12/12 11:55:01 METAR KPSM 121655Z 05014KT 1 1/2SM -PLRASN BR OVC004 01/00 A2970 RMK AO2A PRESFR SLP061 P0019 T00080001
0256726055047432012011217237+43083-070817FM-15+0030KPSM V0200105N00365001225MN0032195N5+00105+00005100515ADDAU110020025AU220060035AU300001015AW1105AW2615AW3745GA1085+001225999GD14991+0012259GF108991999999999999999999MA1100475100125MW1101MW2611MW3791OC100935REMMET09501/12/12 12:23:01 METAR KPSM 121723Z 01007G18KT 2SM -RAPL BR OVC004 01/00 A2967 RMK AO2A SLP051
0400726055047432012011217557+43083-070817FM-15+0030KPSM V0200505N00675001525MN0032195N5+00115+00045100425ADDAA101002095AA206016391AJ100059599999999AU110060025AU220020035AU300001015AW1105AW2615AW3745GA1085+001525999GD14991+0015259GF108991999999999999999999KA1999M+00141KA2999N+00041MA1100415100055MD1640644+9999MW1101MW2611MW3791OC100985REMMET14101/12/12 12:55:01 METAR KPSM 121755Z 05013G19KT 2SM -PLRA BR OVC005 01/00 A2965 RMK AO2A SLP042 P0008 60064 4/002 T00110004 10014 20004 56064EQDQ01  01638PRCP06
0251726055047432012011218207+43083-070817FM-15+0030KPSM V0200105N00625001225MN0020125N5+00005-00105100355ADDAU110060025AU220030035AU300001015AW1105AW2715AW3745GA1085+001225999GD14991+0012259GF108991999999999999999999MA1100345099985MW1101MW2711MW3791REMMET09801/12/12 13:20:01 METAR KPSM 121820Z 01012KT 1 1/4SM -PLSN BR OVC004 M00/M01 A2963 RMK AO2A SLP035
0278726055047432012011218557+43083-070817FM-15+0030KPSM V0200105N00515000915MN0020125N5-00085-00155100335ADDAA101002395AU110030025AU220060035AU300001015AW1105AW2715AW3745GA1085+000915999GD14991+0009159GF108991999999999999999999MA1100305099955MW1101MW2711MW3791REMMET11401/12/12 13:55:01 METAR KPSM 121855Z 01010KT 1 1/4SM -SNPL BR OVC003 M01/M01 A2962 RMK AO2A SLP033 P0009 T10081015
0249726055047432012011219117+43083-070817FM-15+0030KPSM V0200105N00515001225MN0032195N5-00105-00205100315ADDAU118020025AU220060035AU300001015AW1105AW2645AW3745GA1085+001225999GD14991+0012259GF108991999999999999999999MA1100275099915MW1101MW2661MW3791REMMET09601/12/12 14:11:01 METAR KPSM 121911Z 01010KT 2SM -FZRAPL BR OVC004 M01/M02 A2961 RMK AO2A SLP031
0314726055047432012011219557+43083-070817FM-15+0030KPSM V0200205N00465001525MN0032195N5-00035-00105100195ADDAA101001895AU118020025AU220060035AU300001015AW1105AW2645AW3745GA1075+001525999GA2085+003055999GD13991+0015259GD24991+0030559GF108991999999999999999999MA1100175099815MW1101MW2661MW3791REMMET11901/12/12 14:55:01 METAR KPSM 121955Z 02009KT 2SM -FZRAPL BR BKN005 OVC010 M00/M01 A2958 RMK AO2A SLP019 P0007 T10031010
0302726055047432012011220237+43083-070817FM-15+0030KPSM V0200405N00675001525MN0048285N5+00105+00005100035ADDAU110020025AU220060035AU300001015AW1105AW2615AW3745GA1075+001525999GA2085+003055999GD13991+0015259GD24991+0030559GF108991999999999999999999MA1100005099645MW1101MW2611MW3791OC100885REMMET11001/12/12 15:23:01 METAR KPSM 122023Z 04013G17KT 3SM -RAPL BR BKN005 OVC010 01/M00 A2953 RMK AO2A PRESFR SLP003
0370726055047432012011220557+43083-070817FM-15+0030KPSM V0200305N00725001525MN0080475N5+00255+00185100095ADDAA101001095AA203005191AU110020015AU200001015AW1105AW2615GA1075+001525999GA2085+003055999GD13991+0015259GD24991+0030559GF108991999999999999999999MA1100075099715MD1840334+9999MW1101MW2611OC101395REMMET14601/12/12 15:55:01 METAR KPSM 122055Z 03014G27KT 5SM -RA BR BKN005 OVC010 03/02 A2955 RMK AO2A PK WND 05030/2032 SLP009 P0004 60020 T00250018 58033EQDQ01  00518PRCP03
0277726055047432012011221557+43083-070817FM-15+0030KPSM V0200105N00725001225MN0096565N5+00045-00045100015ADDAA101000021AU110010015AU200001015AW1105AW2515GA1085+001225999GD14991+0012259GF108991999999999999999999MA1100005099645MW1101MW2511OC101035REMMET12801/12/12 16:55:01 METAR KPSM 122155Z 01014G20KT 6SM -DZ BR OVC004 00/M00 A2953 RMK AO2A PK WND 06029/2056 SLP001 P0000 T00041004
0262726055047432012011222557+43083-070817FM-15+0030KPSM V0200105N00625001525MN0048285N5-00015-00105100005ADDAA101000021AU118010015AU200001015AW1105AW2545GA1085+001525999GD14991+0015259GF108991999999999999999999MA1099975099615MW1101MW2561OC100935REMMET11301/12/12 17:55:01 METAR KPSM 122255Z 01012G18KT 3SM -FZDZ BR OVC005 M00/M01 A2952 RMK AO2A SLP000 P0000 T10011010
0342726055047432012011223557+43083-070817FM-15+0030KPSM V0203505N00575001525MN0112655N5-00075-00175100035ADDAA101000021AA206005191AJ100089599999999AU118010015AW1545GA1085+001525999GD14991+0015259GF108991999999999999999999KA1999M+00261KA2999N-00091MA1100005099645MD1540064+9999MW1561REMMET13701/12/12 18:55:02 METAR KPSM 122355Z 35011KT 7SM -FZDZ OVC005 M01/M02 A2953 RMK AO2A SLP003 P0000 60020 4/003 T10071017 10026 21009 55006EQDQ01  00518PRCP06
0196726055047432012011300557+43083-070817FM-15+0030KPSM V0203505N00465002135MN0112655N5-00115-00245100075ADDAA101000021GA1085+002135999GD14991+0021359GF108991999999999999999999MA1100035099685REMMET10101/12/12 19:55:01 METAR KPSM 130055Z 35009KT 7SM OVC007 M01/M02 A2954 RMK AO2A SLP007 P0000 T10111024
