0286726055047432010010100004+43083-070817FM-15+0030KPSM V0209999C000010240019N0160931N1-00401-00501102001ADDAA106000891AJ100039199999999GD12991+0030019GD23991+0240019GF107991999999999999999999KA1999M-00231KA2999N-00521MA1101961999999MD1810041+9999REMMET116METAR KPSM 312355Z 00000KT 10SM SCT010 BKN080 M04/M05 A3011 RMK AO2A SLP200 60003 4/001 T10441054 11023 21052 58004;EQDQ01  00088PRCP06
0238726055047432010010100077+43078-070823FM-15+0030KPSM V0200505N00105005795MN0112655N5-00505-00605999999ADDGA1025+003055999GA2075+005795999GA3085+025915999GD11991+0030559GD23991+0057959GD34991+0259159GF108991999999999999999999MA1101935101575REMMET09212/31/09 19:07:01 METAR KPSM 010007Z 05002KT 7SM FEW010 BKN019 OVC085 M05/M06 A3010 RMK AO2A
0255726055047432010010100557+43078-070823FM-15+0030KPSM V0202905N00155003665MN0112655N5-00515-00625101985ADDGA1025+002135999GA2075+003665999GA3085+004885999GD11991+0021359GD23991+0036659GD34991+0048859GF108991999999999999999999MA1101935101575REMMET10912/31/09 19:55:01 METAR KPSM 010055Z 29003KT 7SM FEW007 BKN012 OVC016 M05/M06 A3010 RMK AO2A SLP198 T10511062
0188726055047432010010101367+43078-070823FM-15+0030KPSM V0203405N00215002745MN0064375N5-00405-00505999999ADDAU100001015AW1105GA1085+002745999GD14991+0027459GF108991999999999999999999MA1101865101505MW1101REMMET08112/31/09 20:36:01 METAR KPSM 010136Z 34004KT 4SM BR OVC009 M04/M05 A3008 RMK AO2A
0205726055047432010010101557+43078-070823FM-15+0030KPSM V0203505N00215002745MN0080475N5-00365-00505101895ADDAU100001015AW1105GA1085+002745999GD14991+0027459GF108991999999999999999999MA1101865101505MW1101REMMET09812/31/09 20:55:01 METAR KPSM 010155Z 35004KT 5SM BR OVC009 M04/M05 A3008 RMK AO2A SLP189 T10361050
0225726055047432010010102557+43078-070823FM-15+0030KPSM V0203305N00215002445MN0096565N5-00345-00495101805ADDAU100001015AW1105GA1085+002445999GD14991+0024459GF108991999999999999999999MA1101765101405MD1840204+9999MW1101REMMET10412/31/09 21:55:01 METAR KPSM 010255Z 33004KT 6SM BR OVC008 M03/M05 A3005 RMK AO2A SLP180 T10341049 58020
0243726055047432010010103557+43078-070823FM-15+0030KPSM V0203205N00215002745MN0080475N5-00345-00465101755ADDAU100001015AW1105GA1045+001835999GA2085+002745999GD12991+0018359GD24991+0027459GF108991999999999999999999MA1101735101375MW1101REMMET10512/31/09 22:55:01 METAR KPSM 010355Z 32004KT 5SM BR SCT006 OVC009 M03/M05 A3004 RMK AO2A SLP175 T10341046
0215726055047432010010104557+43078-070823FM-15+0030KPSM V0203305N00265002445MN0080475N5-00335-00495101655ADDAU100001015AW1105GA1085+002445999GD14991+0024459GF108991999999999999999999MA1101635101265MW1101REMMET10812/31/09 23:55:01 METAR KPSM 010455Z 33005KT 5SM BR OVC008 M03/M05 A3001 RMK AO2A SLP165 T10331049 410201078
0259726055047432010010105307+43078-070823FM-15+0030KPSM V0203105N00265007625MN0096565N5-00305-00505999999ADDAU100001015AW1105GA1045+002445999GA2075+007625999GA3085+016765999GD12991+0024459GD23991+0076259GD34991+0167659GF108991999999999999999999MA1101595101235MW1101REMMET09001/01/10 00:30:02 METAR KPSM 010530Z 31005KT 6SM BR SCT008 BKN025 OVC055 M03/M05 A3000 RMK
0362726055047432010010105557+43078-070823FM-15+0030KPSM V0203205N00315007325MN0096565N5-00335-00495101585ADDAJ100039599999999AU100001015AW1105GA1045+001835999GA2075+007325999GA3085+016765999GD12991+0018359GD23991+0073259GD34991+0167659GF108991999999999999999999KA1999M-00331KA2999N-00521MA1101565101205MD1840224+9999MW1101REMMET13601/01/10 00:55:01 METAR KPSM 010555Z 32006KT 6SM BR SCT006 BKN024 OVC055 M03/M05 A2999 RMK AO2A SLP158 4/001 T10331049 11033 21052 58022
0259726055047432010010106197+43078-070823FM-15+0030KPSM V0203305N00265001835MN0096565N5-00305-00505999999ADDAU100001015AW1105GA1075+001835999GA2075+007015999GA3085+016765999GD13991+0018359GD23991+0070159GD34991+0167659GF108991999999999999999999MA1101525101165MW1101REMMET09001/01/10 01:19:02 METAR KPSM 010619Z 33005KT 6SM BR BKN006 BKN023 OVC055 M03/M05 A2998 RMK
0243726055047432010010106557+43078-070823FM-15+0030KPSM V0203405N00365001525MN0096565N5-00325-00475101535ADDAU100001015AW1105GA1075+001525999GA2085+006105999GD13991+0015259GD24991+0061059GF108991999999999999999999MA1101495101135MW1101REMMET10501/01/10 01:55:01 METAR KPSM 010655Z 34007KT 6SM BR BKN005 OVC020 M03/M05 A2997 RMK AO2A SLP153 T10321047
0243726055047432010010107557+43078-070823FM-15+0030KPSM V0203105N00315001525MN0096565N5-00315-00455101505ADDAU100001015AW1105GA1075+001525999GA2085+005495999GD13991+0015259GD24991+0054959GF108991999999999999999999MA1101465101105MW1101REMMET10501/01/10 02:55:01 METAR KPSM 010755Z 31006KT 6SM BR BKN005 OVC018 M03/M04 A2996 RMK AO2A SLP150 T10311045
0221726055047432010010108137+43078-070823FM-15+0030KPSM V0203105N00265005495MN0096565N5-00305-00505999999ADDAU100001015AW1105GA1045+001835999GA2085+005495999GD12991+0018359GD24991+0054959GF108991999999999999999999MA1101465101105MW1101REMMET08301/01/10 03:13:02 METAR KPSM 010813Z 31005KT 6SM BR SCT006 OVC018 M03/M05 A2996 RMK
0248726055047432010010108227+43078-070823FM-15+0030KPSM V0203005N00215005495MN0080475N5-00305-00405999999ADDAU110030015AU200001015AW1105AW2715GA1045+001525999GA2085+005495999GD12991+0015259GD24991+0054959GF108991999999999999999999MA1101465101105MW1101MW2711REMMET08701/01/10 03:22:02 METAR KPSM 010822Z 30004KT 5SM -SN BR SCT005 OVC018 M03/M04 A2996 RMK
0343726055047432010010108557+43078-070823FM-15+0030KPSM V0203105N00265005185MN0080475N5-00305-00445101435ADDAA101000021AA203000021AU110030015AU200001015AW1105AW2715GA1045+001835999GA2085+005185999GD12991+0018359GD24991+0051859GF108991999999999999999999MA1101395101035MD1840144+9999MW1101MW2711REMMET12701/01/10 03:55:01 METAR KPSM 010855Z 31005KT 5SM -SN BR SCT006 OVC017 M03/M04 A2994 RMK AO2A SLP143 P0000 60000 T10301044 58014EQDQ01  00008PRCP03
0221726055047432010010109267+43078-070823FM-15+0030KPSM V0203105N00215004575MN0096565N5-00305-00405999999ADDAU100001015AW1105GA1045+002135999GA2085+004575999GD12991+0021359GD24991+0045759GF108991999999999999999999MA1101395101035MW1101REMMET08301/01/10 04:26:02 METAR KPSM 010926Z 31004KT 6SM BR SCT007 OVC015 M03/M04 A2994 RMK
0260726055047432010010109557+43078-070823FM-15+0030KPSM V0203005N00265004575MN0096565N5-00305-00465101405ADDAA101000021AU100001015AW1105GA1045+002135999GA2085+004575999GD12991+0021359GD24991+0045759GF108991999999999999999999MA1101355100995MW1101REMMET11101/01/10 04:55:01 METAR KPSM 010955Z 30005KT 6SM BR SCT007 OVC015 M03/M05 A2993 RMK AO2A SLP140 P0000 T10301046
0221726055047432010010110337+43078-070823FM-15+0030KPSM V0203005N00265004275MN0096565N5-00305-00505999999ADDAU100001015AW1105GA1045+002135999GA2085+004275999GD12991+0021359GD24991+0042759GF108991999999999999999999MA1101355100995MW1101REMMET08301/01/10 05:33:02 METAR KPSM 011033Z 30005KT 6SM BR SCT007 OVC014 M03/M05 A2993 RMK
0243726055047432010010110557+43078-070823FM-15+0030KPSM V0203105N00265003965MN0096565N5-00295-00455101385ADDAU100001015AW1105GA1045+002135999GA2085+003965999GD12991+0021359GD24991+0039659GF108991999999999999999999MA1101355100995MW1101REMMET10501/01/10 05:55:01 METAR KPSM 011055Z 31005KT 6SM BR SCT007 OVC013 M03/M04 A2993 RMK AO2A SLP138 T10291045
0367726055047432010010111557+43078-070823FM-15+0030KPSM V0203005N00215003665MN0112655N5-00315-00485101355ADDAA106000021AA224001091AJ100039599999999GA1025+002135999GA2085+003665999GD11991+0021359GD24991+0036659GF108991999999999999999999KA1999M-00291KA2999N-00331MA1101325100965MD1640094+9999REMMET13801/01/10 06:55:01 METAR KPSM 011155Z 30004KT 7SM FEW007 OVC012 M03/M05 A2992 RMK AO2A SLP135 60000 70004 4/001 T10311048 11029 21033 56009EQDQ01  00008PRCP06Q02  00108PRCP24
0217726055047432010010112557+43078-070823FM-15+0030KPSM V0202905N00155024385MN0112655N5-00305-00475101355ADDGA1045+004575999GA2085+024385999GD12991+0045759GD24991+0243859GF108991999999999999999999MA1101325100965REMMET10201/01/10 07:55:01 METAR KPSM 011255Z 29003KT 7SM SCT015 OVC080 M03/M05 A2992 RMK AO2A SLP135 T10301047
0180726055047432010010113557+43078-070823FM-15+0030KPSM V0203105N00215024385MN0160935N5-00225-00445101285ADDGA1085+024385999GD14991+0243859GF108991999999999999999999MA1101255100895REMMET09601/01/10 08:55:01 METAR KPSM 011355Z 31004KT 10SM OVC080 M02/M04 A2990 RMK AO2A SLP128 T10221044
0238726055047432010010114557+43078-070823FM-15+0030KPSM V0209999C00005018295MN0160935N5-00165-00425101285ADDGA1075+018295999GA2085+024385999GD13991+0182959GD24991+0243859GF108991999999999999999999MA1101255100895MD1740064+9999REMMET10901/01/10 09:55:01 METAR KPSM 011455Z 00000KT 10SM BKN060 OVC080 M02/M04 A2990 RMK AO2A SLP128 T10161042 57006
0218726055047432010010115557+43078-070823FM-15+0030KPSM V0203105N00265021345MN0160935N5-00095-00365101175ADDGA1025+010675999GA2085+021345999GD11991+0106759GD24991+0213459GF108991999999999999999999MA1101155100795REMMET10301/01/10 10:55:01 METAR KPSM 011555Z 31005KT 10SM FEW035 OVC070 M01/M04 A2987 RMK AO2A SLP117 T10091036
0180726055047432010010116557+43078-070823FM-15+0030KPSM V0203105N00415019815MN0160935N5-00015-00275101105ADDGA1085+019815999GD14991+0198159GF108991999999999999999999MA1101085100725REMMET09601/01/10 11:55:01 METAR KPSM 011655Z 31008KT 10SM OVC065 M00/M03 A2985 RMK AO2A SLP110 T10011027
0298726055047432010010117557+43078-070823FM-15+0030KPSM V0203405N00365003055MN0160935N5+00065-00185100975ADDAJ100039599999999GA1075+003055999GA2085+019815999GD13991+0030559GD24991+0198159GF108991999999999999999999KA1999M+00061KA2999N-00321MA1100955100595MD1740314+9999REMMET12601/01/10 12:55:01 METAR KPSM 011755Z 34007KT 10SM BKN010 OVC065 01/M02 A2981 RMK AO2A SLP097 4/001 T00061018 10006 21032 57031
0179726055047432010010118557+43078-070823FM-15+0030KPSM V0203205N00265002135MN0160935N5+00045-00125101005ADDGA1085+002135999GD14991+0021359GF108991999999999999999999MA1100985100625REMMET09501/01/10 13:55:01 METAR KPSM 011855Z 32005KT 10SM OVC007 00/M01 A2982 RMK AO2A SLP100 T00041012
0179726055047432010010119437+43078-070823FM-15+0030KPSM V0203105N00265002445MN0112655N5+00005-00105999999ADDAU116030015AW1855GA1085+002445999GD14991+0024459GF108991999999999999999999MA1100955100595REMMET07801/01/10 14:43:02 METAR KPSM 011943Z 31005KT 7SM -SHSN OVC008 00/M01 A2981 RMK
0218726055047432010010119557+43078-070823FM-15+0030KPSM V0203105N00265002745MN0112655N5+00065-00125100975ADDAA101000021AU116030015AW1855GA1085+002745999GD14991+0027459GF108991999999999999999999MA1100955100595REMMET10601/01/10 14:55:01 METAR KPSM 011955Z 31005KT 7SM -SHSN OVC009 01/M01 A2981 RMK AO2A SLP097 P0000 T00061012
0304726055047432010010120557+43078-070823FM-15+0030KPSM V0203205N00265001835MN0032195N5+00035-00085100975ADDAA101000021AA203000021AU110030015AU200001015AW1105AW2715GA1085+001835999GD14991+0018359GF108991999999999999999999MA1100955100595MD1040004+9999MW1101MW2711REMMET11901/01/10 15:55:01 METAR KPSM 012055Z 32005KT 2SM -SN BR OVC006 00/M01 A2981 RMK AO2A SLP097 P0000 60000 T00031008 50000EQDQ01  00008PRCP03
0231726055047432010010121297+43078-070823FM-15+0030KPSM V0203405N00265000915MN0016095N5+00005+00005999999ADDAU110030015AU200001015AW1105AW2715ED134U12199GA1085+000915999GD14991+0009159GF108991999999999999999999MA1100915100565MW1101MW2711REMMET09001/01/10 16:29:02 METAR KPSM 012129Z 34005KT 1SM R34/4000FT -SN BR OVC003 00/M00 A2980 RMK
0312726055047432010010121557+43078-070823FM-15+0030KPSM V0203505N00365001225MN0024145N5+00025-00085100925ADDAA101000595AU110030015AU200001015AW1105AW2715ED134U13729GA1075+001225999GA2085+004575999GD13991+0012259GD24991+0045759GF108991999999999999999999MA1100885100525MW1101MW2711REMMET12901/01/10 16:55:01 METAR KPSM 012155Z 35007KT 1 1/2SM R34/4500FT -SN BR BKN004 OVC015 00/M01 A2979 RMK AO2A SLP092 P0002 T00021008
0269726055047432010010122157+43078-070823FM-15+0030KPSM V0203605N00415001225MN0032195N5+00005+00005999999ADDAU110030015AU200001015AW1105AW2715ED134U13729GA1075+001225999GA2085+004575999GD13991+0012259GD24991+0045759GF108991999999999999999999MA1100885100525MW1101MW2711REMMET09701/01/10 17:15:02 METAR KPSM 012215Z 36008KT 2SM R34/4500FT -SN BR BKN004 OVC015 00/M00 A2979 RMK
0309726055047432010010122557+43078-070823FM-15+0030KPSM V0203605N00415001835MN0032195N5-00025-00135100915ADDAA101000021AU110030015AU200001015AW1105AW2715ED134U13729GA1075+001835999GA2085+005795999GD13991+0018359GD24991+0057959GF108991999999999999999999MA1100885100525MW1101MW2711REMMET12601/01/10 17:55:01 METAR KPSM 012255Z 36008KT 2SM R34/4500FT -SN BR BKN006 OVC019 M00/M01 A2979 RMK AO2A SLP091 P0000 T10021013
0233726055047432010010123336+43078-070823FM-15+0030KPSM V0200105N00415002135MN0048285N5+00005-00205999999ADDAU110030015AU200001015AW1105AW2715ED134U18299GA1075+002135999GA2085+005495999GD13991+0021359GD24991+0054959MA1100885100525REMMET09901/01/10 18:33:02 METAR KPSM 012333Z 01008KT 3SM R34/P6000FT -SN BR BKN007 OVC018 M00/M02 A2979 RMK
0404726055047432010010123557+43078-070823FM-15+0030KPSM V0200105N00515002445MN0048285N5-00055-00215100875ADDAA101000021AA206000591AJ100039599999999AU110030015AU200001015AW1105AW2715GA1075+002445999GA2085+004575999GD13991+0024459GD24991+0045759GF108991999999999999999999KA1999M+00061KA2999N-00051MA1100855100495MD1640114+9999MW1101MW2711REMMET14501/01/10 18:55:02 METAR KPSM 012355Z 01010KT 3SM -SN BR BKN008 OVC015 M01/M02 A2978 RMK AO2A SLP087 P0000 60002 4/001 T10051021 10006 21005 56011EQDQ01  00058PRCP06
0287726055047432010010200557+43078-070823FM-15+0030KPSM V0200205N00515002445MN0048285N5-00115-00305100805ADDAA101000021AU110030015AU200001015AW1105AW2715GA1075+002445999GA2085+003665999GD13991+0024459GD24991+0036659GF108991999999999999999999MA1100785100425MW1101MW2711REMMET11501/01/10 19:55:01 METAR KPSM 020055Z 02010KT 3SM -SN BR BKN008 OVC012 M01/M03 A2976 RMK AO2A SLP080 P0000 T10111030
0287726055047432010010201557+43078-070823FM-15+0030KPSM V0200105N00515002445MN0064375N5-00165-00355100735ADDAA101000021AU110030015AU200001015AW1105AW2715GA1075+002445999GA2085+003355999GD13991+0024459GD24991+0033559GF108991999999999999999999MA1100715100355MW1101MW2711REMMET11501/01/10 20:55:01 METAR KPSM 020155Z 01010KT 4SM -SN BR BKN008 OVC011 M02/M03 A2974 RMK AO2A SLP073 P0000 T10161035
0354726055047432010010202557+43078-070823FM-15+0030KPSM V0200205N00465002445MN0064375N5-00205-00395100665ADDAA101000021AA203000021AU110030015AU200001015AW1105AW2715GA1075+002445999GA2085+003355999GD13991+0024459GD24991+0033559GF108991999999999999999999MA1100645100295MD1840204+9999MW1101MW2711OC100775REMMET13001/01/10 21:55:01 METAR KPSM 020255Z 02009G15KT 4SM -SN BR BKN008 OVC011 M02/M04 A2972 RMK AO2A SLP066 P0000 60000 T10201039 58020EQDQ01  00008PRCP03
0287726055047432010010203557+43078-070823FM-15+0030KPSM V0200205N00575002745MN0064375N5-00255-00475100635ADDAA101000021AU110030015AU200001015AW1105AW2715GA1075+002745999GA2085+003665999GD13991+0027459GD24991+0036659GF108991999999999999999999MA1100615100255MW1101MW2711REMMET11501/01/10 22:55:01 METAR KPSM 020355Z 02011KT 4SM -SN BR BKN009 OVC012 M02/M05 A2971 RMK AO2A SLP063 P0000 T10251047
0335726055047432010010204557+43078-070823FM-15+0030KPSM V0200105N00465003055MN0048285N5-00285-00485100535ADDAA101000395AU110030015AU200001015AW1105AW2715GA1045+002135999GA2075+003055999GA3085+006105999GD12991+0021359GD23991+0030559GD34991+0061059GF108991999999999999999999MA1100515100155MW1101MW2711REMMET13201/01/10 23:55:01 METAR KPSM 020455Z 01009KT 3SM -SN BR SCT007 BKN010 OVC020 M03/M05 A2968 RMK AO2A SLP053 P0001 T10281048 400061033
0252726055047432010010205397+43078-070823FM-15+0030KPSM V0200105N00465003055MN0024145N5-00305-00505999999ADDAU110030015AU200001015AW1105AW2715GA1025+000915999GA2085+003055999GD11991+0009159GD24991+0030559GF108991999999999999999999MA1100445100085MW1101MW2711REMMET09101/02/10 00:39:02 METAR KPSM 020539Z 01009KT 1 1/2SM -SN BR FEW003 OVC010 M03/M05 A2966 RMK
0238726055047432010010205477+43078-070823FM-15+0030KPSM V0203605N00515000915WN0012075N5-00305-00505999999ADDAU110030015AU200001015AW1105AW2715ED134U09149GA1095+000915999GD15991+0009159GF109991999999000251999999MA1100445100085MW1101MW2711REMMET09701/02/10 00:47:02 METAR KPSM 020547Z 36010KT 3/4SM R34/3000V4500FT -SN BR VV003 M03/M05 A2966 RMK
0394726055047432010010205557+43078-070823FM-15+0030KPSM V0203605N00465000915WN0012075N5-00345-00515100475ADDAA101000395AA206000591AJ100039599999999AU110030015AU200001015AW1105AW2715ED134U07329GA1095+000915999GD15991+0009159GF109991999999000251999999KA1999M-00061KA2999N-00341MA1100445100085MD1840204+9999MW1101MW2711REMMET15501/02/10 00:55:01 METAR KPSM 020555Z 36009KT 3/4SM R34/2400V3500FT -SN BR VV003 M03/M05 A2966 RMK AO2A SLP047 P0001 60002 4/001 T10341051 11006 21034 58020EQDQ01  00058PRCP06
0241726055047432010010206147+43078-070823FM-15+0030KPSM V0200105N00415000915MN0024145N5-00405-00505999999ADDAU110030015AU200001015AW1105AW2715ED134U12199GA1085+000915999GD14991+0009159GF108991999999999999999999MA1100445100085MW1101MW2711REMMET10001/02/10 01:14:02 METAR KPSM 020614Z 01008KT 1 1/2SM R34/4000V4500FT -SN BR OVC003 M04/M05 A2966 RMK
0313726055047432010010206437+43078-070823FM-15+0030KPSM V0200105N00465002445MN0032195N5-00405-00605999999ADDAU110030015AU200001015AW1105AW2715ED134U13729GA1045+000915999GA2075+002445999GA3085+006105999GD12991+0009159GD23991+0024459GD34991+0061059GF108991999999999999999999MA1100415100055MW1101MW2711REMMET11001/02/10 01:43:02 METAR KPSM 020643Z 01009KT 2SM R34/4500V5000FT -SN BR SCT003 BKN008 OVC020 M04/M06 A2965 RMK
0352726055047432010010206557+43078-070823FM-15+0030KPSM V0200105N00515002745MN0032195N5-00385-00605100465ADDAA101000595AU110030015AU200001015AW1105AW2715ED134U13729GA1045+000915999GA2075+002745999GA3085+007625999GD12991+0009159GD23991+0027459GD34991+0076259GF108991999999999999999999MA1100445100085MW1101MW2711REMMET13801/02/10 01:55:01 METAR KPSM 020655Z 01010KT 2SM R34/4500V5000FT -SN BR SCT003 BKN009 OVC025 M04/M06 A2966 RMK AO2A SLP046 P0002 T10381060
0317726055047432010010207187+43078-070823FM-15+0030KPSM V0200205N00465000915MN0024145N5-00405-00605999999ADDAU110030015AU200001015AW1105AW2715ED134U10679GA1075+000915999GA2075+003355999GA3085+005495999GD13991+0009159GD23991+0033559GD34991+0054959GF108991999999999999999999MA1100445100085MW1101MW2711REMMET11401/02/10 02:18:02 METAR KPSM 020718Z 02009KT 1 1/2SM R34/3500V4500FT -SN BR BKN003 BKN011 OVC018 M04/M06 A2966 RMK
0313726055047432010010207437+43078-070823FM-15+0030KPSM V0200105N00465003055MN0032195N5-00405-00605999999ADDAU110030015AU200001015AW1105AW2715ED134U15249GA1045+000915999GA2075+003055999GA3085+005495999GD12991+0009159GD23991+0030559GD34991+0054959GF108991999999999999999999MA1100445100085MW1101MW2711REMMET11001/02/10 02:43:02 METAR KPSM 020743Z 01009KT 2SM R34/5000V5500FT -SN BR SCT003 BKN010 OVC018 M04/M06 A2966 RMK
0352726055047432010010207557+43078-070823FM-15+0030KPSM V0200205N00515003055MN0032195N5-00405-00635100455ADDAA101000595AU110030015AU200001015AW1105AW2715ED134U15249GA1045+000915999GA2075+003055999GA3085+006105999GD12991+0009159GD23991+0030559GD34991+0061059GF108991999999999999999999MA1100415100055MW1101MW2711REMMET13801/02/10 02:55:01 METAR KPSM 020755Z 02010KT 2SM R34/5000V5500FT -SN BR SCT003 BKN010 OVC020 M04/M06 A2965 RMK AO2A SLP045 P0002 T10401063
0309726055047432010010208097+43078-070823FM-15+0030KPSM V0200205N00315003055MN0048285N5-00405-00605999999ADDAU110030015AU200001015AW1105AW2715ED134U18299GA1045+000915999GA2075+003055999GA3085+006105999GD12991+0009159GD23991+0030559GD34991+0061059GF108991999999999999999999MA1100415100055MW1101MW2711REMMET10601/02/10 03:09:02 METAR KPSM 020809Z 02006KT 3SM R34/P6000FT -SN BR SCT003 BKN010 OVC020 M04/M06 A2965 RMK
0381726055047432010010208557+43078-070823FM-15+0030KPSM V0203605N00365003055MN0064375N5-00405-00635100385ADDAA101000395AA203001391AU110030015AU200001015AW1105AW2715GA1025+000915999GA2075+003055999GA3085+007625999GD11991+0009159GD23991+0030559GD34991+0076259GF108991999999999999999999MA1100375100025MD1840084+9999MW1101MW2711REMMET13401/02/10 03:55:01 METAR KPSM 020855Z 36007KT 4SM -SN BR FEW003 BKN010 OVC025 M04/M06 A2964 RMK AO2A SLP038 P0001 60005 T10401063 58008EQDQ01  00138PRCP03
0286726055047432010010209257+43078-070823FM-15+0030KPSM V0200105N00415009145MN0096565N5-00405-00605999999ADDAU110030015AU200001015AW1105AW2715GA1025+002135999GA2045+003665999GA3085+009145999GD11991+0021359GD22991+0036659GD34991+0091459GF108991999999999999999999MA1100305099955MW1101MW2711REMMET09401/02/10 04:25:02 METAR KPSM 020925Z 01008KT 6SM -SN BR FEW007 SCT012 OVC030 M04/M06 A2962 RMK
0287726055047432010010209557+43078-070823FM-15+0030KPSM V0203605N00465010065MN0096565N5-00405-00655100295ADDAA101000021AU110030015AU200001015AW1105AW2715GA1045+003665999GA2085+010065999GD12991+0036659GD24991+0100659GF108991999999999999999999MA1100275099915MW1101MW2711REMMET11501/02/10 04:55:01 METAR KPSM 020955Z 36009KT 6SM -SN BR SCT012 OVC033 M04/M06 A2961 RMK AO2A SLP029 P0000 T10401065
0248726055047432010010210277+43078-070823FM-15+0030KPSM V0203605N00415003055MN0032195N5-00405-00605999999ADDAU110030015AU200001015AW1105AW2715GA1075+003055999GA2085+010675999GD13991+0030559GD24991+0106759GF108991999999999999999999MA1100245099885MW1101MW2711REMMET08701/02/10 05:27:02 METAR KPSM 021027Z 36008KT 2SM -SN BR BKN010 OVC035 M04/M06 A2960 RMK
0279726055047432010010210337+43078-070823FM-15+0030KPSM V0203505N00465002445MN0020125N5-00405-00605999999ADDAU110030015AU200001015AW1105AW2715ED134U12199GA1075+002445999GA2085+006105999GD13991+0024459GD24991+0061059GF108991999999999999999999MA1100245099885MW1101MW2711REMMET10701/02/10 05:33:02 METAR KPSM 021033Z 35009KT 1 1/4SM R34/4000V5500FT -SN BR BKN008 OVC020 M04/M06 A2960 RMK
0282726055047432010010210477+43078-070823FM-15+0030KPSM V0203505N00515000915MN0012075N5-00405-00605999999ADDAU110030015AU200001015AW1105AW2715ED134U09149GA1075+000915999GA2085+002445999GD13991+0009159GD24991+0024459GF108991999999999999999999MA1100245099885MW1101MW2711REMMET11001/02/10 05:47:01 METAR KPSM 021047Z 35010KT 3/4SM R34/3000V3500FT -SN BR BKN003 OVC008 M04/M06 A2960 RMK AO2A
0311726055047432010010210557+43078-070823FM-15+0030KPSM V0203505N00415003055MN0012075N5-00415-00585100265ADDAA101000595AU110030015AU200001015AW1105AW2715ED134U09149GA1045+000915999GA2085+003055999GD12991+0009159GD24991+0030559GF108991999999999999999999MA1100245099885MW1101MW2711REMMET12801/02/10 05:55:01 METAR KPSM 021055Z 35008KT 3/4SM R34/3000FT -SN BR SCT003 OVC010 M04/M06 A2960 RMK AO2A SLP026 P0002 T10411058
0461726055047432010010211557+43078-070823FM-15+0030KPSM V0203505N00575004575MN0012075N5-00415-00605100195ADDAA101001395AA206003091AA324004191AJ100089599999999AU110030015AU200001015AW1105AW2715ED134U09149GA1045+000915999GA2085+004575999GD12991+0009159GD24991+0045759GF108991999999999999999999KA1999M-00351KA2999N-00421MA1100175099815MD1640194+9999MW1101MW2711REMMET16401/02/10 06:55:01 METAR KPSM 021155Z 35011KT 3/4SM R34/3000FT -SN BR SCT003 OVC015 M04/M06 A2958 RMK AO2A SLP019 P0005 60012 70016 4/003 T10411060 11035 21042 56019EQDQ01  00308PRCP06Q02  00418PRCP24
0271726055047432010010212307+43078-070823FM-15+0030KPSM V0203505N00515005185MN0032195N5-00405-00605999999ADDAU110030015AU200001015AW1105AW2715ED134U18299GA1045+000915999GA2085+005185999GD12991+0009159GD24991+0051859GF108991999999999999999999MA1100145099785MW1101MW2711REMMET09901/02/10 07:30:02 METAR KPSM 021230Z 35010KT 2SM R34/P6000FT -SN BR SCT003 OVC017 M04/M06 A2957 RMK
0287726055047432010010212557+43078-070823FM-15+0030KPSM V0203505N00725006105MN0032195N5-00405-00625100145ADDAA101000395AU110030015AU200001015AW1105AW2715GA1045+002445999GA2085+006105999GD12991+0024459GD24991+0061059GF108991999999999999999999MA1100105099755MW1101MW2711REMMET11501/02/10 07:55:01 METAR KPSM 021255Z 35014KT 2SM -SN BR SCT008 OVC020 M04/M06 A2956 RMK AO2A SLP014 P0001 T10401062
0287726055047432010010213557+43078-070823FM-15+0030KPSM V0203505N00575008845MN0032195N5-00385-00615100115ADDAA101000021AU110030015AU200001015AW1105AW2715GA1045+003055999GA2085+008845999GD12991+0030559GD24991+0088459GF108991999999999999999999MA1100075099715MW1101MW2711REMMET11501/02/10 08:55:01 METAR KPSM 021355Z 35011KT 2SM -SN BR SCT010 OVC029 M04/M06 A2955 RMK AO2A SLP011 P0000 T10381061
0347726055047432010010214557+43078-070823FM-15+0030KPSM V0203405N00575007625MN0020125N5-00395-00625100085ADDAA101000595AA203000891AU110030015AU200001015AW1105AW2715GA1045+002135999GA2085+007625999GD12991+0021359GD24991+0076259GF108991999999999999999999MA1100075099715MD1640114+9999MW1101MW2711REMMET13101/02/10 09:55:01 METAR KPSM 021455Z 34011KT 1 1/4SM -SN BR SCT007 OVC025 M04/M06 A2955 RMK AO2A SLP008 P0002 60003 T10391062 56011EQDQ01  00088PRCP03
0312726055047432010010215557+43078-070823FM-15+0030KPSM V0203405N00515005495MN0012075N5-00385-00595099985ADDAA101000595AU110030015AU200001015AW1105AW2715ED134U18299GA1045+002445999GA2085+005495999GD12991+0024459GD24991+0054959GF108991999999999999999999MA1099975099615MW1101MW2711REMMET12901/02/10 10:55:01 METAR KPSM 021555Z 34010KT 3/4SM R34/P6000FT -SN BR SCT008 OVC018 M04/M06 A2952 RMK AO2A SLP998 P0002 T10381059
0312726055047432010010216557+43078-070823FM-15+0030KPSM V0203305N00675006405MN0012075N5-00345-00565099865ADDAA101000895AU110030015AU200001015AW1105AW2715ED134U18299GA1045+003055999GA2085+006405999GD12991+0030559GD24991+0064059GF108991999999999999999999MA1099835099475MW1101MW2711REMMET12901/02/10 11:55:01 METAR KPSM 021655Z 33013KT 3/4SM R34/P6000FT -SN BR SCT010 OVC021 M03/M06 A2948 RMK AO2A SLP986 P0003 T10341056
0427726055047432010010217557+43078-070823FM-15+0030KPSM V0203305N00725004575MN0016095N5-00345-00575099775ADDAA101000895AA206002891AJ100139599999999AU110030015AU200001015AW1105AW2715ED134U18299GA1075+004575999GA2085+008845999GD13991+0045759GD24991+0088459GF108991999999999999999999KA1999M-00331KA2999N-00411MA1099735099375MD1640314+9999MW1101MW2711REMMET15701/02/10 12:55:01 METAR KPSM 021755Z 33014KT 1SM R34/P6000FT -SN BR BKN015 OVC029 M03/M06 A2945 RMK AO2A SLP977 P0003 60011 4/005 T10341057 11033 21041 56031EQDQ01  00288PRCP06
0310726055047432010010218557+43078-070823FM-15+0030KPSM V0203405N00625006715MN0016095N5-00325-00565099705ADDAA101000595AU110030015AU200001015AW1105AW2715ED134U18299GA1045+003055999GA2085+006715999GD12991+0030559GD24991+0067159GF108991999999999999999999MA1099665099315MW1101MW2711REMMET12701/02/10 13:55:01 METAR KPSM 021855Z 34012KT 1SM R34/P6000FT -SN BR SCT010 OVC022 M03/M06 A2943 RMK AO2A SLP970 P0002 T10321056
0252726055047432010010219247+43078-070823FM-15+0030KPSM V0203405N00575009145MN0040235N5-00305-00605999999ADDAU110030015AU200001015AW1105AW2715GA1025+003665999GA2085+009145999GD11991+0036659GD24991+0091459GF108991999999999999999999MA1099665099315MW1101MW2711REMMET09101/02/10 14:24:02 METAR KPSM 021924Z 34011KT 2 1/2SM -SN BR FEW012 OVC030 M03/M06 A2943 RMK
0291726055047432010010219557+43078-070823FM-15+0030KPSM V0203305N00515009145MN0024145N5-00285-00545099665ADDAA101000395AU110030015AU200001015AW1105AW2715GA1045+004275999GA2085+009145999GD12991+0042759GD24991+0091459GF108991999999999999999999MA1099635099275MW1101MW2711REMMET11901/02/10 14:55:01 METAR KPSM 021955Z 33010KT 1 1/2SM -SN BR SCT014 OVC030 M03/M05 A2942 RMK AO2A SLP966 P0001 T10281054
0347726055047432010010220557+43078-070823FM-15+0030KPSM V0203205N00465010675MN0024145N5-00265-00475099595ADDAA101000395AA203001091AU110030015AU200001015AW1105AW2715GA1025+004275999GA2085+010675999GD11991+0042759GD24991+0106759GF108991999999999999999999MA1099565099205MD1640184+9999MW1101MW2711REMMET13101/02/10 15:55:01 METAR KPSM 022055Z 32009KT 1 1/2SM -SN BR FEW014 OVC035 M03/M05 A2940 RMK AO2A SLP959 P0001 60004 T10261047 56018EQDQ01  00108PRCP03
0313726055047432010010221557+43078-070823FM-15+0030KPSM V0203005N00415006405MN0024145N5-00265-00405099495ADDAA101000395AU110030015AU200001015AW1105AW2715ED134U13729GA1025+000915999GA2085+006405999GD11991+0009159GD24991+0064059GF108991999999999999999999MA1099465099105MW1101MW2711REMMET13001/02/10 16:55:01 METAR KPSM 022155Z 30008KT 1 1/2SM R34/4500FT -SN BR FEW003 OVC021 M03/M04 A2937 RMK AO2A SLP949 P0001 T10261040
0302726055047432010010222557+43078-070823FM-15+0030KPSM V0203005N00725007625MN0024145N5-00325-00555099435ADDAA101000395AU110030015AU200001015AW1105AW2715GA1025+003355999GA2085+007625999GD11991+0033559GD24991+0076259GF108991999999999999999999MA1099395099045MW1101MW2711OC101035REMMET12201/02/10 17:55:01 METAR KPSM 022255Z 30014G20KT 1 1/2SM -SN BR FEW011 OVC025 M03/M05 A2935 RMK AO2A SLP943 P0001 T10321055
0441726055047432010010223557+43078-070823FM-15+0030KPSM V0203005N00935007015MN0024145N5-00425-00675099335ADDAA101000595AA206002091AJ100159599999999AU110030015AU200001015AW1105AW2715ED134U10679GA1075+007015999GA2085+010675999GD13991+0070159GD24991+0106759GF108991999999999999999999KA1999M-00251KA2999N-00421MA1099295098935MD1640264+9999MW1101MW2711OC101135REMMET16301/02/10 18:55:02 METAR KPSM 022355Z 30018G22KT 1 1/2SM R34/3500FT -SN BR BKN023 OVC035 M04/M07 A2932 RMK AO2A SLP933 P0002 60008 4/006 T10421067 11025 21042 56026EQDQ01  00208PRCP06
0223726055047432010010300427+43078-070823FM-15+0030KPSM V0202905N00825008235MN0112655N5-00505-00805999999ADDAU110030015AW1715ED134U18299GA1085+008235999GD14991+0082359GF108991999999999999999999MA1099195098835MW1711OC101185REMMET09701/02/10 19:42:01 METAR KPSM 030042Z 29016G23KT 7SM R34/P6000FT -SN OVC027 M05/M08 A2929 RMK AO2A
0234726055047432010010300557+43078-070823FM-15+0030KPSM V0202905N00825008845MN0112655N5-00495-00885099195ADDAA101000395AU110030015AW1715GA1085+008845999GD14991+0088459GF108991999999999999999999MA1099155098805MW1711OC101185REMMET10801/02/10 19:55:01 METAR KPSM 030055Z 29016G23KT 7SM -SN OVC029 M05/M09 A2928 RMK AO2A SLP919 P0001 T10491088
0189726055047432010010301187+43078-070823FM-15+0030KPSM V0202905N00885009755MN0112655N5-00505-00905999999ADDAU110030015AW1715GA1085+009755999GD14991+0097559GF108991999999999999999999MA1099095098735MW1711REMMET08201/02/10 20:18:01 METAR KPSM 030118Z 29017KT 7SM -SN OVC032 M05/M09 A2926 RMK AO2A
0260726055047432010010301557+43078-070823FM-15+0030KPSM V0203005N00935011895MN0080475N5-00505-00975099025ADDAA101000395AU110030015AU200001015AW1105AW2715GA1085+011895999GD14991+0118959GF108991999999999999999999MA1098985098635MW1101MW2711OC101245REMMET11101/02/10 20:55:01 METAR KPSM 030155Z 30018G24KT 5SM -SN BR OVC039 M05/M10 A2923 RMK AO2A SLP902 P0001 T10501097
0214726055047432010010302427+43078-070823FM-15+0030KPSM V0202905N00935009755MN0040235N5-00505-00905999999ADDAU110030015AU200001015AW1105AW2715GA1085+009755999GD14991+0097559GF108991999999999999999999MA1098885098535MW1101MW2711REMMET08401/02/10 21:42:02 METAR KPSM 030242Z 29018KT 2 1/2SM -SN BR OVC032 M05/M09 A2920 RMK
0360726055047432010010302557+43078-070823FM-15+0030KPSM V0202905N00885007925MN0040235N5-00575-00905098895ADDAA101000021AA203000391AU110030015AU200001015AW1105AW2715ED134U10679GA1085+007925999GD14991+0079259GF108991999999999999999999MA1098855098505MD1640444+9999MW1101MW2711OC101395REMMET15601/02/10 21:55:01 METAR KPSM 030255Z 29017G27KT 2 1/2SM R34/3500FT -SN BR OVC026 M06/M09 A2919 RMK AO2A PK WND 30029/0226 SLP889 P0000 60001 T10571090 56044EQDQ01  00038PRCP03
0210726055047432010010303417+43078-070823FM-15+0030KPSM V0202905N01085008235MN0064375N5-00605-01005999999ADDAU110030015AU200001015AW1105AW2715GA1085+008235999GD14991+0082359GF108991999999999999999999MA1098685098335MW1101MW2711REMMET08001/02/10 22:41:02 METAR KPSM 030341Z 29021KT 4SM -SN BR OVC027 M06/M10 A2914 RMK
0338726055047432010010303557+43078-070823FM-15+0030KPSM V0202905N01085006405MN0080475N5-00615-01035098705ADDAA101000021AU110030015AU200001015AW1105AW2715ED134U12199GA1075+006405999GA2085+018295999GD13991+0064059GD24991+0182959GF108991999999999999999999MA1098685098335MW1101MW2711OC102015REMMET14701/02/10 22:55:01 METAR KPSM 030355Z 29021G39KT 5SM R34/4000FT -SN BR BKN021 OVC060 M06/M10 A2914 RMK AO2A PK WND 28039/0351 SLP870 P0000 T10611103
0212726055047432010010304297+43078-070823FM-15+0030KPSM V0202905N01035013115MN0080475N5-00605-01105999999ADDAU110030015AU225030015AW1275AW2715GA1085+013115999GD14991+0131159GF108991999999999999999999MA1098615098265MW1381MW2711REMMET08201/02/10 23:29:02 METAR KPSM 030429Z 29020KT 5SM -SN BLSN OVC043 M06/M11 A2912 RMK
0238726055047432010010304477+43078-070823FM-15+0030KPSM V0202905N01295008845MN0020125N5-00605-01105999999ADDAU110030015AU225030015AW1275AW2715ED134U10679GA1085+008845999GD14991+0088459GF108991999999999999999999MA1098585098235MW1381MW2711REMMET09701/02/10 23:47:02 METAR KPSM 030447Z 29025KT 1 1/4SM R34/3500FT -SN BLSN OVC029 M06/M11 A2911 RMK
0312726055047432010010304557+43078-070823FM-15+0030KPSM V0202905N01135007625MN0032195N5-00645-01085098615ADDAA101000021AU110030015AU225030015AW1275AW2715ED134U09149GA1085+007625999GD14991+0076259GF108991999999999999999999MA1098585098235MW1381MW2711OC101755REMMET15201/02/10 23:55:01 METAR KPSM 030455Z 29022G34KT 2SM R34/3000FT -SN BLSN OVC025 M06/M11 A2911 RMK AO2A PK WND 29034/0446 SLP861 P0000 T10641108 410251064
0234726055047432010010305257+43078-070823FM-15+0030KPSM V0202905N01035006405MN0064375N5-00705-01105999999ADDAU110030015AU225030015AW1275AW2715ED134U15249GA1085+006405999GD14991+0064059GF108991999999999999999999MA1098515098165MW1381MW2711REMMET09301/03/10 00:25:02 METAR KPSM 030525Z 29020KT 4SM R34/5000FT -SN BLSN OVC021 M07/M11 A2909 RMK
0456726055047432010010305557+43078-070823FM-15+0030KPSM V0202805N00985007015MN0064375N5-00695-01145098495ADDAA101000021AA206000391AJ100159599999999AU110030015AU200001015AW1105AW2715ED134U18299GA1075+007015999GA2085+014635999GD13991+0070159GD24991+0146359GF108991999999999999999999KA1999M-00431KA2999N-00691MA1098445098095MD1640404+9999MW1101MW2711OC101705REMMET17801/03/10 00:55:01 METAR KPSM 030555Z 28019G33KT 4SM R34/P6000FT -SN BR BKN023 OVC048 M07/M11 A2907 RMK AO2A PK WND 28033/0547 SLP849 P0000 60001 4/006 T10691114 11043 21069 56040EQDQ01  00038PRCP06
0236726055047432010010306337+43078-070823FM-15+0030KPSM V0202905N01185008845MN0020125N5-00705-01105999999ADDAU110030015AU200001015AW1105AW2715ED134U09149GA1085+008845999GD14991+0088459GF108991999999999999999999MA1098415098065MW1101MW2711REMMET09501/03/10 01:33:02 METAR KPSM 030633Z 29023KT 1 1/4SM R34/3000FT -SN BR OVC029 M07/M11 A2906 RMK
0300726055047432010010306557+43078-070823FM-15+0030KPSM V0202905N01135006105MN0016095N5-00765-01085098425ADDAA101000021AU110030015AU200001015AW1105AW2715ED134U09149GA1085+006105999GD14991+0061059GF108991999999999999999999MA1098415098065MW1101MW2711OC101605REMMET14001/03/10 01:55:01 METAR KPSM 030655Z 29022G31KT 1SM R34/3000FT -SN BR OVC020 M08/M11 A2906 RMK AO2A PK WND 30036/0611 SLP842 P0000 T10761108
0236726055047432010010307297+43078-070823FM-15+0030KPSM V0202905N01085010365MN0024145N5-00705-01105999999ADDAU110030015AU200001015AW1105AW2715ED134U09149GA1085+010365999GD14991+0103659GF108991999999999999999999MA1098375098025MW1101MW2711REMMET09501/03/10 02:29:02 METAR KPSM 030729Z 29021KT 1 1/2SM R34/3000FT -SN BR OVC034 M07/M11 A2905 RMK
0300726055047432010010307557+43078-070823FM-15+0030KPSM V0202905N01185010675MN0064375N5-00755-01145098375ADDAA101000021AU110030015AU200001015AW1105AW2715ED134U12199GA1085+010675999GD14991+0106759GF108991999999999999999999MA1098345097995MW1101MW2711OC101605REMMET14001/03/10 02:55:01 METAR KPSM 030755Z 29023G31KT 4SM R34/4000FT -SN BR OVC035 M08/M11 A2904 RMK AO2A PK WND 29032/0734 SLP837 P0000 T10751114
0232726055047432010010308367+43078-070823FM-15+0030KPSM V0202805N01085007625MN0016095N5-00805-01205999999ADDAU110030015AU200001015AW1105AW2715ED134U09149GA1085+007625999GD14991+0076259GF108991999999999999999999MA1098315097965MW1101MW2711REMMET09101/03/10 03:36:02 METAR KPSM 030836Z 28021KT 1SM R34/3000FT -SN BR OVC025 M08/M12 A2903 RMK
0360726055047432010010308557+43078-070823FM-15+0030KPSM V0202905N00985006405MN0024145N5-00795-01145098335ADDAA101000021AA203000021AU110030015AU200001015AW1105AW2715ED134U09149GA1085+006405999GD14991+0064059GF108991999999999999999999MA1098315097965MD1640164+9999MW1101MW2711OC101395REMMET15601/03/10 03:55:01 METAR KPSM 030855Z 29019G27KT 1 1/2SM R34/3000FT -SN BR OVC021 M08/M11 A2903 RMK AO2A PK WND 30035/0807 SLP833 P0000 60000 T10791114 56016EQDQ01  00008PRCP03
0309726055047432010010309557+43078-070823FM-15+0030KPSM V0202905N00885007625MN0028165N5-00815-01155098305ADDAA101000395AU110030015AU200001015AW1105AW2715ED134U07929GA1085+007625999GD14991+0076259GF108991999999999999999999MA1098275097925MW1101MW2711OC101495REMMET14901/03/10 04:55:01 METAR KPSM 030955Z 29017G29KT 1 3/4SM R34/2600FT -SN BR OVC025 M08/M11 A2902 RMK AO2A PK WND 29030/0914 SLP830 P0001 T10811115 1000
0305726055047432010010310557+43078-070823FM-15+0030KPSM V0202905N00825004885MN0016095N5-00815-01115098315ADDAA101000595AU110030015AU200001015AW1105AW2715ED134U08539GA1085+004885999GD14991+0048859GF108991999999999999999999MA1098275097925MW1101MW2711OC101395REMMET14501/03/10 05:55:01 METAR KPSM 031055Z 29016G27KT 1SM R34/2800FT -SN BR OVC016 M08/M11 A2902 RMK AO2A PK WND 30031/1038 SLP831 P0002 T10811111 1058
0475726055047432010010311557+43078-070823FM-15+0030KPSM V0202905N00675004885MN0016095N5-00825-01075098395ADDAA101000595AA206001391AA324006491AJ100189599999999AU110030015AU200001015AW1105AW2715ED134U09149GA1045+003055999GA2085+004885999GD12991+0030559GD24991+0048859GF108991999999999999999999KA1999M-00701KA2999N-00821MA1098345097995MD1340064+9999MW1101MW2711OC100985REMMET17001/03/10 06:55:01 METAR KPSM 031155Z 29013G19KT 1SM R34/3000FT -SN BR SCT010 OVC016 M08/M11 A2904 RMK AO2A SLP839 P0002 60005 70025 4/007 T10821107 11070 21082 53006 1200EQDQ01  00138PRCP06Q02  00648PRCP24
0310726055047432010010312557+43078-070823FM-15+0030KPSM V0202905N00575006105MN0016095N5-00765-01065098415ADDAA101000395AU110030015AU200001015AW1105AW2715ED134U18299GA1025+000615999GA2085+006105999GD11991+0006159GD24991+0061059GF108991999999999999999999MA1098375098025MW1101MW2711REMMET12701/03/10 07:55:01 METAR KPSM 031255Z 29011KT 1SM R34/P6000FT -SN BR FEW002 OVC020 M08/M11 A2905 RMK AO2A SLP841 P0001 T10761106
0272726055047432010010313557+43078-070823FM-15+0030KPSM V0202805N00515005185MN0016095N5-00685-00995098475ADDAA101000395AU110030015AU200001015AW1105AW2715ED134U18299GA1085+005185999GD14991+0051859GF108991999999999999999999MA1098445098095MW1101MW2711REMMET12001/03/10 08:55:01 METAR KPSM 031355Z 28010KT 1SM R34/P6000FT -SN BR OVC017 M07/M10 A2907 RMK AO2A SLP847 P0001 T10681099
0309726055047432010010314557+43078-070823FM-15+0030KPSM V0202905N00575006105MN0020125N5-00515-00765098555ADDAA101000021AA203000591AU110030015AU200001015AW1105AW2715GA1085+006105999GD14991+0061059GF108991999999999999999999MA1098515098165MD1340164+9999MW1101MW2711REMMET12401/03/10 09:55:01 METAR KPSM 031455Z 29011KT 1 1/4SM -SN BR OVC020 M05/M08 A2909 RMK AO2A SLP855 P0000 60002 T10511076 53016EQDQ01  00058PRCP03
0157726055047432010010315257+43078-070823FM-15+0030KPSM V0203005N00575005185MN0112655N5-00405-00605999999ADDGA1085+005185999GD14991+0051859GF108991999999999999999999MA1098515098165REMMET07301/03/10 10:25:02 METAR KPSM 031525Z 30011KT 7SM OVC017 M04/M06 A2909 RMK
0273726055047432010010315557+43078-070823FM-15+0030KPSM V0203105N00675007925MN0160935N5-00145-00535098545ADDAA101000021GA1045+004885999GA2075+007925999GA3075+054865999GD12991+0048859GD23991+0079259GD33991+0548659GF107991999999999999999999MA1098515098165REMMET11601/03/10 10:55:01 METAR KPSM 031555Z 31013KT 10SM SCT016 BKN026 BKN180 M01/M05 A2909 RMK AO2A SLP854 P0000 T10141053
0218726055047432010010316557+43078-070823FM-15+0030KPSM V0203105N00725006105MN0160935N5-00045-00525098555ADDGA1075+006105999GA2075+060965999GD13991+0061059GD23991+0609659GF107991999999999999999999MA1098515098165REMMET10301/03/10 11:55:01 METAR KPSM 031655Z 31014KT 10SM BKN020 BKN200 M00/M05 A2909 RMK AO2A SLP855 T10041052
0180726055047432010010317277+43078-070823FM-15+0030KPSM V0203205N00885005795MN0112655N5+00005-00405999999ADDAU116030015AW1855GA1085+005795999GD14991+0057959GF108991999999999999999999MA1098545098195REMMET07901/03/10 12:27:02 METAR KPSM 031727Z 32017KT 7SM -SHSN OVC019 M00/M04 A2910 RMK
0466726055047432010010317557+43078-070823FM-15+0030KPSM V0203305N00825009455MN0160935N5-00055-00455098625ADDAA101000021AA206000591AJ100189599999999AU140030017GA1045+005795999GA2075+009455999GA3075+013725999GD12991+0057959GD23991+0094559GD33991+0137259GF107991999999999999999999KA1999M-00011KA2999N-00821MA1098585098235MD1340074+9999MV1027MW1731REMMET15101/03/10 12:55:01 METAR KPSM 031755Z 33016KT 10SM VCSN SCT019 BKN031 BKN045 M00/M05 A2911 RMK AO2A SLP862 P0000 60002 4/007 T10051045 11001 21082 53007EQDQ01  00058PRCP06R01  VCSN7AWW013R02SEERMK7MVW013R03  VCSN7MWW013
0180726055047432010010318317+43078-070823FM-15+0030KPSM V0203005N00575005495MN0048285N5-00105-00405999999ADDAU116030015AW1855GA1085+005495999GD14991+0054959GF108991999999999999999999MA1098655098295REMMET07901/03/10 13:31:02 METAR KPSM 031831Z 30011KT 3SM -SHSN OVC018 M01/M04 A2913 RMK
0249726055047432010010318557+43078-070823FM-15+0030KPSM V0202905N00575005795MN0032195N5-00155-00385098715ADDAA101000021AU110030015AU200001015AW1105AW2715GA1085+005795999GD14991+0057959GF108991999999999999999999MA1098685098335MW1101MW2711REMMET10801/03/10 13:55:01 METAR KPSM 031855Z 29011KT 2SM -SN BR OVC019 M02/M04 A2914 RMK AO2A SLP871 P0000 T10151038
0223726055047432010010319557+43078-070823FM-15+0030KPSM V0203005N00575005795MN0032195N5-00095-00485098805ADDAA101000021AU110030015AW1715GA1085+005795999GD14991+0057959GF108991999999999999999999MA1098785098435MW1711REMMET10501/03/10 14:55:01 METAR KPSM 031955Z 30011KT 2SM -SN OVC019 M01/M05 A2917 RMK AO2A SLP880 P0000 T10091048
0366726055047432010010320557+43078-070823FM-15+0030KPSM V0203105N00675006715MN0016095N5-00095-00305098905ADDAA101000021AA203000021AU110030015AU200001015AW1105AW2715ED134U18299GA1025+002445999GA2085+006715999GD11991+0024459GD24991+0067159GF108991999999999999999999MA1098885098535MD1340284+9999MW1101MW2711REMMET13901/03/10 15:55:01 METAR KPSM 032055Z 31013KT 1SM R34/P6000FT -SN BR FEW008 OVC022 M01/M03 A2920 RMK AO2A SLP890 P0000 60000 T10091030 53028EQDQ01  00008PRCP03
0249726055047432010010321557+43078-070823FM-15+0030KPSM V0203005N00675007015MN0048285N5-00135-00335098975ADDAA101000021AU110030015AU200001015AW1105AW2715GA1085+007015999GD14991+0070159GF108991999999999999999999MA1098955098605MW1101MW2711REMMET10801/03/10 16:55:01 METAR KPSM 032155Z 30013KT 3SM -SN BR OVC023 M01/M03 A2922 RMK AO2A SLP897 P0000 T10131033
0271726055047432010010322557+43078-070823FM-15+0030KPSM V0203105N00625007625MN0032195N5-00135-00335099075ADDAA101000395AU110030015AU200001015AW1105AW2715ED134U15249GA1085+007625999GD14991+0076259GF108991999999999999999999MA1099055098705MW1101MW2711REMMET11901/03/10 17:55:01 METAR KPSM 032255Z 31012KT 2SM R34/5000FT -SN BR OVC025 M01/M03 A2925 RMK AO2A SLP907 P0001 T10131033
0210726055047432010010323227+43078-070823FM-15+0030KPSM V0203105N00515007015MN0064375N5-00105-00305999999ADDAU110030015AU200001015AW1105AW2715GA1085+007015999GD14991+0070159GF108991999999999999999999MA1099095098735MW1101MW2711REMMET08001/03/10 18:22:02 METAR KPSM 032322Z 31010KT 4SM -SN BR OVC023 M01/M03 A2926 RMK
0388726055047432010010323557+43078-070823FM-15+0030KPSM V0203105N00575008535MN0032195N5-00095-00295099155ADDAA101000021AA206000391AJ100189599999999AU110030015AU200001015AW1105AW2715ED134U15249GA1085+008535999GD14991+0085359GF108991999999999999999999KA1999M-00051KA2999N-00211MA1099125098775MD1340254+9999MW1101MW2711REMMET14901/03/10 18:55:02 METAR KPSM 032355Z 31011KT 2SM R34/5000FT -SN BR OVC028 M01/M03 A2927 RMK AO2A SLP915 P0000 60001 4/007 T10091029 11005 21021 53025EQDQ01  00038PRCP06
0248726055047432010010400317+43078-070823FM-15+0030KPSM V0203005N00675018295MN0048285N5+00005-00305999999ADDAU110030015AU200001015AW1105AW2715GA1045+008535999GA2085+018295999GD12991+0085359GD24991+0182959GF108991999999999999999999MA1099155098805MW1101MW2711REMMET08701/03/10 19:31:02 METAR KPSM 040031Z 30013KT 3SM -SN BR SCT028 OVC060 M00/M03 A2928 RMK
0287726055047432010010400557+43078-070823FM-15+0030KPSM V0203005N00625006105MN0080475N5-00075-00325099185ADDAA101000021AU110030015AU200001015AW1105AW2715GA1075+006105999GA2085+013725999GD13991+0061059GD24991+0137259GF108991999999999999999999MA1099155098805MW1101MW2711REMMET11501/03/10 19:55:01 METAR KPSM 040055Z 30012KT 5SM -SN BR BKN020 OVC045 M01/M03 A2928 RMK AO2A SLP918 P0000 T10071032
0234726055047432010010401557+43078-070823FM-15+0030KPSM V0202905N00575013725MN0112655N5-00085-00425099235ADDAA101000021GA1045+006105999GA2085+013725999GD12991+0061059GD24991+0137259GF108991999999999999999999MA1099195098835REMMET10801/03/10 20:55:01 METAR KPSM 040155Z 29011KT 7SM SCT020 OVC045 M01/M04 A2929 RMK AO2A SLP923 P0000 T10081042
0222726055047432010010402267+43078-070823FM-15+0030KPSM V0203005N00675006105MN0112655N5+00005-00505999999ADDAU110030015AW1715GA1075+006105999GA2085+010675999GD13991+0061059GD24991+0106759GF108991999999999999999999MA1099225098875MW1711REMMET08401/03/10 21:26:02 METAR KPSM 040226Z 30013KT 7SM -SN BKN020 OVC035 M00/M05 A2930 RMK
0301726055047432010010402557+43078-070823FM-15+0030KPSM V0203005N00575013725MN0112655N5-00105-00435099285ADDAA101000021AA203000021GA1045+006105999GA2085+013725999GD12991+0061059GD24991+0137259GF108991999999999999999999MA1099265098905MD1340134+9999OC100985REMMET12301/03/10 21:55:01 METAR KPSM 040255Z 30011G19KT 7SM SCT020 OVC045 M01/M04 A2931 RMK AO2A SLP928 P0000 60000 T10101043 53013EQDQ01  00008PRCP03
0217726055047432010010403557+43078-070823FM-15+0030KPSM V0202905N00515011895MN0128755N5-00095-00565099295ADDGA1025+006105999GA2085+011895999GD11991+0061059GD24991+0118959GF108991999999999999999999MA1099265098905REMMET10201/03/10 22:55:01 METAR KPSM 040355Z 29010KT 8SM FEW020 OVC039 M01/M06 A2931 RMK AO2A SLP929 T10091056
0265726055047432010010404557+43078-070823FM-15+0030KPSM V0202905N00515036585MN0128755N5-00095-00635099325ADDGA1025+006105999GA2045+012195999GA3085+036585999GD11991+0061059GD22991+0121959GD34991+0365859GF108991999999999999999999MA1099295098935REMMET11901/03/10 23:55:01 METAR KPSM 040455Z 29010KT 8SM FEW020 SCT040 OVC120 M01/M06 A2932 RMK AO2A SLP932 T10091063 410011082
0334726055047432010010405557+43078-070823FM-15+0030KPSM V0202905N00575036585MN0128755N5-00105-00595099385ADDAA106000021AJ100189599999999GA1025+012195999GA2075+036585999GD11991+0121959GD23991+0365859GF107991999999999999999999KA1999M-00041KA2999N-00121MA1099365099005MD1340104+9999REMMET13201/04/10 00:55:01 METAR KPSM 040555Z 29011KT 8SM FEW040 BKN120 M01/M06 A2934 RMK AO2A SLP938 4/007 60000 T10101059 11004 21012 53010EQDQ01  00008PRCP06
0217726055047432010010406557+43078-070823FM-15+0030KPSM V0202805N00465036585MN0128755N5-00065-00535099445ADDGA1025+012195999GA2085+036585999GD11991+0121959GD24991+0365859GF108991999999999999999999MA1099425099075REMMET10201/04/10 01:55:01 METAR KPSM 040655Z 28009KT 8SM FEW040 OVC120 M01/M05 A2936 RMK AO2A SLP944 T10061053
0217726055047432010010407557+43078-070823FM-15+0030KPSM V0202905N00515036585MN0128755N5-00105-00575099475ADDGA1025+012195999GA2075+036585999GD11991+0121959GD23991+0365859GF107991999999999999999999MA1099465099105REMMET10201/04/10 02:55:01 METAR KPSM 040755Z 29010KT 8SM FEW040 BKN120 M01/M06 A2937 RMK AO2A SLP947 T10101057
0210726055047432010010408557+43078-070823FM-15+0030KPSM V0202805N005152200059N0128755N5-00145-00605099475ADDGA1025+036585999GD11991+0365859GF102991999999999999999999MA1099425099075MD1140094+9999OC100935REMMET10401/04/10 03:55:01 METAR KPSM 040855Z 28010G18KT 8SM FEW120 M01/M06 A2936 RMK AO2A SLP947 T10141060 51009
0180726055047432010010409557+43078-070823FM-15+0030KPSM V0202805N006252200059N0160935N5-00175-00645099505ADDGA1025+036585999GD11991+0365859GF102991999999999999999999MA1099465099105REMMET09601/04/10 04:55:01 METAR KPSM 040955Z 28012KT 10SM FEW120 M02/M06 A2937 RMK AO2A SLP950 T10171064
0157726055047432010010410557+43078-070823FM-15+0030KPSM V0202705N005752200059N0160935N5-00225-00685099575ADDGF100991999999999999999999MA1099535099175OC100985REMMET09601/04/10 05:55:01 METAR KPSM 041055Z 27011G19KT 10SM CLR M02/M07 A2939 RMK AO2A SLP957 T10221068
0268726055047432010010411557+43078-070823FM-15+0030KPSM V0202805N004152200059N0160935N5-00265-00745099625ADDAA124000891AJ100189599999999GF100991999999999999999999KA1999M-00061KA2999N-00261MA1099595099245MD1340154+9999REMMET12801/04/10 06:55:01 METAR KPSM 041155Z 28008KT 10SM CLR M03/M07 A2941 RMK AO2A SLP962 70003 4/007 T10261074 11006 21026 53015 1208EQDQ01  00088PRCP24
0146726055047432010010412557+43078-070823FM-15+0030KPSM V0202805N006752200059N0160935N5-00255-00765099665ADDGF100991999999999999999999MA1099635099275REMMET09301/04/10 07:55:01 METAR KPSM 041255Z 28013KT 10SM CLR M02/M08 A2942 RMK AO2A SLP966 T10251076
0191726055047432010010413557+43078-070823FM-15+0030KPSM V0202905N007752200059N0160935N5-00175-00755099735ADDGA1025+030485999GD11991+0304859GF102991999999999999999999MA1099705099345OC101185REMMET09901/04/10 08:55:01 METAR KPSM 041355Z 29015G23KT 10SM FEW100 M02/M08 A2944 RMK AO2A SLP973 T10171075
0211726055047432010010414557+43078-070823FM-15+0030KPSM V0202905N006752200059N0160935N5-00105-00765099815ADDGA1045+024385999GD12991+0243859GF104991999999999999999999MA1099805099445MD1340194+9999OC101085REMMET10501/04/10 09:55:01 METAR KPSM 041455Z 29013G21KT 10SM SCT080 M01/M08 A2947 RMK AO2A SLP981 T10101076 53019
0180726055047432010010415557+43078-070823FM-15+0030KPSM V0202905N00625022865MN0160935N5-00085-00765099815ADDGA1075+022865999GD13991+0228659GF107991999999999999999999MA1099805099445REMMET09601/04/10 10:55:01 METAR KPSM 041555Z 29012KT 10SM BKN075 M01/M08 A2947 RMK AO2A SLP981 T10081076
0191726055047432010010416557+43078-070823FM-15+0030KPSM V0203005N00515015245MN0160935N5-00025-00735099805ADDGA1075+015245999GD13991+0152459GF107991999999999999999999MA1099765099415OC100825REMMET09901/04/10 11:55:01 METAR KPSM 041655Z 30010G16KT 10SM BKN050 M00/M07 A2946 RMK AO2A SLP980 T10021073
0299726055047432010010417557+43078-070823FM-15+0030KPSM V0203005N00625015245MN0160935N5-00045-00795099815ADDAJ100159599999999GA1075+015245999GA2085+030485999GD13991+0152459GD24991+0304859GF108991999999999999999999KA1999M+00031KA2999N-00281MA1099805099445MD1540004+9999REMMET12701/04/10 12:55:01 METAR KPSM 041755Z 30012KT 10SM BKN050 OVC100 M00/M08 A2947 RMK AO2A SLP981 4/006 T10041079 10003 21028 55000
0218726055047432010010418557+43078-070823FM-15+0030KPSM V0202805N00465015245MN0160935N5-00045-00785099875ADDGA1025+007625999GA2075+015245999GD11991+0076259GD23991+0152459GF107991999999999999999999MA1099835099475REMMET10301/04/10 13:55:01 METAR KPSM 041855Z 28009KT 10SM FEW025 BKN050 M00/M08 A2948 RMK AO2A SLP987 T10041078
0180726055047432010010419557+43078-070823FM-15+0030KPSM V0202805N00625018295MN0160935N5-00115-00875099915ADDGA1075+018295999GD13991+0182959GF107991999999999999999999MA1099865099515REMMET09601/04/10 14:55:01 METAR KPSM 041955Z 28012KT 10SM BKN060 M01/M09 A2949 RMK AO2A SLP991 T10111087
0238726055047432010010420557+43078-070823FM-15+0030KPSM V0202905N00515013725MN0160935N5-00125-00815099955ADDGA1075+013725999GA2075+018295999GD13991+0137259GD23991+0182959GF107991999999999999999999MA1099935099585MD1140144+9999REMMET10901/04/10 15:55:01 METAR KPSM 042055Z 29010KT 10SM BKN045 BKN060 M01/M08 A2951 RMK AO2A SLP995 T10121081 51014
0218726055047432010010421557+43078-070823FM-15+0030KPSM V0202905N00515018295MN0160935N5-00165-00855100005ADDGA1025+013725999GA2075+018295999GD11991+0137259GD23991+0182959GF107991999999999999999999MA1099975099615REMMET10301/04/10 16:55:01 METAR KPSM 042155Z 29010KT 10SM FEW045 BKN060 M02/M08 A2952 RMK AO2A SLP000 T10161085
0180726055047432010010422557+43078-070823FM-15+0030KPSM V0202905N00515011895MN0160935N5-00225-00875100065ADDGA1085+011895999GD14991+0118959GF108991999999999999999999MA1100035099685REMMET09601/04/10 17:55:01 METAR KPSM 042255Z 29010KT 10SM OVC039 M02/M09 A2954 RMK AO2A SLP006 T10221087
0261726055047432010010423557+43078-070823FM-15+0030KPSM V0202805N00415011285MN0160935N5-00245-00885100105ADDAJ100159599999999GA1085+011285999GD14991+0112859GF108991999999999999999999KA1999M-00021KA2999N-00241MA1100075099715MD1140154+9999REMMET12001/04/10 18:55:02 METAR KPSM 042355Z 28008KT 10SM OVC037 M02/M09 A2955 RMK AO2A SLP010 4/006 T10241088 11002 21024 51015
0179726055047432010010500557+43078-070823FM-15+0030KPSM V0202805N00415009145MN0128755N5-00275-00905100135ADDGA1085+009145999GD14991+0091459GF108991999999999999999999MA1100105099755REMMET09501/04/10 19:55:01 METAR KPSM 050055Z 28008KT 8SM OVC030 M03/M09 A2956 RMK AO2A SLP013 T10271090
0179726055047432010010501557+43078-070823FM-15+0030KPSM V0202805N00365009145MN0128755N5-00295-00885100145ADDGA1085+009145999GD14991+0091459GF108991999999999999999999MA1100105099755REMMET09501/04/10 20:55:01 METAR KPSM 050155Z 28007KT 8SM OVC030 M03/M09 A2956 RMK AO2A SLP014 T10291088
0199726055047432010010502557+43078-070823FM-15+0030KPSM V0202805N00315010065MN0128755N5-00305-00875100165ADDGA1085+010065999GD14991+0100659GF108991999999999999999999MA1100145099785MD1140064+9999REMMET10101/04/10 21:55:01 METAR KPSM 050255Z 28006KT 8SM OVC033 M03/M09 A2957 RMK AO2A SLP016 T10301087 51006
0195726055047432010010503147+43078-070823FM-15+0030KPSM V0202705N00315006105MN0128755N5-00305-00905999999ADDGA1075+006105999GA2085+010675999GD13991+0061059GD24991+0106759GF108991999999999999999999MA1100145099785REMMET08001/04/10 22:14:02 METAR KPSM 050314Z 27006KT 8SM BKN020 OVC035 M03/M09 A2957 RMK
0195726055047432010010503317+43078-070823FM-15+0030KPSM V0202805N00415013725MN0128755N5-00305-00905999999ADDGA1045+006105999GA2085+013725999GD12991+0061059GD24991+0137259GF108991999999999999999999MA1100145099785REMMET08001/04/10 22:31:02 METAR KPSM 050331Z 28008KT 8SM SCT020 OVC045 M03/M09 A2957 RMK
0217726055047432010010503557+43078-070823FM-15+0030KPSM V0202705N00315013725MN0128755N5-00315-00875100165ADDGA1025+006105999GA2085+013725999GD11991+0061059GD24991+0137259GF108991999999999999999999MA1100145099785REMMET10201/04/10 22:55:01 METAR KPSM 050355Z 27006KT 8SM FEW020 OVC045 M03/M09 A2957 RMK AO2A SLP016 T10311087
0189726055047432010010504557+43078-070823FM-15+0030KPSM V0202805N00365014635MN0128755N5-00325-00885100145ADDGA1085+014635999GD14991+0146359GF108991999999999999999999MA1100105099755REMMET10501/04/10 23:55:01 METAR KPSM 050455Z 28007KT 8SM OVC048 M03/M09 A2956 RMK AO2A SLP014 T10321088 400031032
0265726055047432010010505557+43078-070823FM-15+0030KPSM V0202705N00315014025MN0128755N5-00345-00865100135ADDAJ100159599999999GA1085+014025999GD14991+0140259GF108991999999999999999999KA1999M-00241KA2999N-00341MA1100105099755MD1840034+9999REMMET12401/05/10 00:55:01 METAR KPSM 050555Z 27006KT 8SM OVC046 M03/M09 A2956 RMK AO2A SLP013 4/006 T10341086 11024 21034 58003 0609
0179726055047432010010506557+43078-070823FM-15+0030KPSM V0202805N00365014635MN0128755N5-00355-00905100155ADDGA1085+014635999GD14991+0146359GF108991999999999999999999MA1100105099755REMMET09501/05/10 01:55:01 METAR KPSM 050655Z 28007KT 8SM OVC048 M04/M09 A2956 RMK AO2A SLP015 T10351090
0179726055047432010010507557+43078-070823FM-15+0030KPSM V0202705N00315014635MN0128755N5-00365-00895100155ADDGA1085+014635999GD14991+0146359GF108991999999999999999999MA1100105099755REMMET09501/05/10 02:55:01 METAR KPSM 050755Z 27006KT 8SM OVC048 M04/M09 A2956 RMK AO2A SLP015 T10361089
0200726055047432010010508557+43078-070823FM-15+0030KPSM V0202705N00365014945MN0160935N5-00385-00895100125ADDGA1085+014945999GD14991+0149459GF108991999999999999999999MA1100105099755MD1840014+9999REMMET10201/05/10 03:55:01 METAR KPSM 050855Z 27007KT 10SM OVC049 M04/M09 A2956 RMK AO2A SLP012 T10381089 58001
0180726055047432010010509557+43078-070823FM-15+0030KPSM V0202705N00415015245MN0160935N5-00395-00925100135ADDGA1085+015245999GD14991+0152459GF108991999999999999999999MA1100105099755REMMET09601/05/10 04:55:01 METAR KPSM 050955Z 27008KT 10SM OVC050 M04/M09 A2956 RMK AO2A SLP013 T10391092
0180726055047432010010510557+43078-070823FM-15+0030KPSM V0202705N00415014945MN0160935N5-00415-00935100145ADDGA1085+014945999GD14991+0149459GF108991999999999999999999MA1100105099755REMMET09601/05/10 05:55:01 METAR KPSM 051055Z 27008KT 10SM OVC049 M04/M09 A2956 RMK AO2A SLP014 T10411093
0261726055047432010010511557+43078-070823FM-15+0030KPSM V0202805N00365014945MN0160935N5-00425-00935100155ADDAJ100159599999999GA1085+014945999GD14991+0149459GF108991999999999999999999KA1999M-00341KA2999N-00421MA1100105099755MD1140024+9999REMMET12001/05/10 06:55:01 METAR KPSM 051155Z 28007KT 10SM OVC049 M04/M09 A2956 RMK AO2A SLP015 4/006 T10421093 11034 21042 51002
0180726055047432010010512557+43078-070823FM-15+0030KPSM V0202805N00265015245MN0160935N5-00445-00955100205ADDGA1085+015245999GD14991+0152459GF108991999999999999999999MA1100175099815REMMET09601/05/10 07:55:01 METAR KPSM 051255Z 28005KT 10SM OVC050 M04/M09 A2958 RMK AO2A SLP020 T10441095
0180726055047432010010513557+43078-070823FM-15+0030KPSM V0202905N00365015245MN0160935N5-00395-00925100215ADDGA1085+015245999GD14991+0152459GF108991999999999999999999MA1100175099815REMMET09601/05/10 08:55:01 METAR KPSM 051355Z 29007KT 10SM OVC050 M04/M09 A2958 RMK AO2A SLP021 T10391092
0200726055047432010010514557+43078-070823FM-15+0030KPSM V0202705N00365014945MN0160935N5-00325-00935100205ADDGA1085+014945999GD14991+0149459GF108991999999999999999999MA1100175099815MD1040054+9999REMMET10201/05/10 09:55:01 METAR KPSM 051455Z 27007KT 10SM OVC049 M03/M09 A2958 RMK AO2A SLP020 T10321093 50005
0180726055047432010010515557+43078-070823FM-15+0030KPSM V0202705N00265014025MN0160935N5-00255-00905100145ADDGA1075+014025999GD13991+0140259GF107991999999999999999999MA1100105099755REMMET09601/05/10 10:55:01 METAR KPSM 051555Z 27005KT 10SM BKN046 M02/M09 A2956 RMK AO2A SLP014 T10251090
0180726055047432010010516557+43078-070823FM-15+0030KPSM V0202705N00315015245MN0160935N5-00095-00855100075ADDGA1075+015245999GD13991+0152459GF107991999999999999999999MA1100035099685REMMET09601/05/10 11:55:01 METAR KPSM 051655Z 27006KT 10SM BKN050 M01/M09 A2954 RMK AO2A SLP007 T10091085
0299726055047432010010517557+43078-070823FM-15+0030KPSM V0202605N00415013725MN0160935N5-00045-00815100005ADDAJ100139599999999GA1025+007625999GA2085+013725999GD11991+0076259GD24991+0137259GF108991999999999999999999KA1999M-00021KA2999N-00441MA1099975099615MD1840194+9999REMMET12701/05/10 12:55:01 METAR KPSM 051755Z 26008KT 10SM FEW025 OVC045 M00/M08 A2952 RMK AO2A SLP000 4/005 T10041081 11002 21044 58019
0179726055047432010010518557+43078-070823FM-15+0030KPSM V0202705N00365013415MN0160935N5+00035-00785099995ADDGA1085+013415999GD14991+0134159GF108991999999999999999999MA1099975099615REMMET09501/05/10 13:55:01 METAR KPSM 051855Z 27007KT 10SM OVC044 00/M08 A2952 RMK AO2A SLP999 T00031078
0179726055047432010010519557+43078-070823FM-15+0030KPSM V0202705N00155011585MN0160935N5+00055-00675100015ADDGA1085+011585999GD14991+0115859GF108991999999999999999999MA1100005099645REMMET09501/05/10 14:55:01 METAR KPSM 051955Z 27003KT 10SM OVC038 01/M07 A2953 RMK AO2A SLP001 T00051067
0275726055047432010010520557+43078-070823FM-15+0030KPSM V0203005N00265010975MN0160935N5+00035-00645100015ADDAA101000021AA203000021AU116030015AW1855GA1085+010975999GD14991+0109759GF108991999999999999999999MA1099975099615MD1340014+9999REMMET11901/05/10 15:55:01 METAR KPSM 052055Z 30005KT 10SM -SHSN OVC036 00/M06 A2952 RMK AO2A SLP001 P0000 60000 T00031064 53001EQDQ01  00008PRCP03
0220726055047432010010521557+43078-070823FM-15+0030KPSM V0202705N00265010675MN0160935N5-00035-00655099995ADDAA101000021AU116030015AW1855GA1085+010675999GD14991+0106759GF108991999999999999999999MA1099975099615REMMET10801/05/10 16:55:01 METAR KPSM 052155Z 27005KT 10SM -SHSN OVC035 M00/M06 A2952 RMK AO2A SLP999 P0000 T10031065
0258726055047432010010522557+43078-070823FM-15+0030KPSM V0202805N00315010365MN0160935N5-00175-00425100025ADDAA101000021AU116030015AW1855GA1025+003355999GA2085+010365999GD11991+0033559GD24991+0103659GF108991999999999999999999MA1100005099645REMMET11501/05/10 17:55:01 METAR KPSM 052255Z 28006KT 10SM -SHSN FEW011 OVC034 M02/M04 A2953 RMK AO2A SLP002 P0000 T10171042
0314726055047432010010523557+43078-070823FM-15+0030KPSM V0202705N00265010065MN0160935N5-00195-00465100035ADDAA101000021AA206000021AJ100139599999999GA1085+010065999GD14991+0100659GF108991999999999999999999KA1999M+00061KA2999N-00201MA1100005099645MD1340024+9999REMMET13201/05/10 18:55:02 METAR KPSM 052355Z 27005KT 10SM OVC033 M02/M05 A2953 RMK AO2A SLP003 P0000 60000 4/005 T10191046 10006 21020 53002EQDQ01  00008PRCP06
0180726055047432010010600557+43078-070823FM-15+0030KPSM V0202805N00315009755MN0160935N5-00195-00585100055ADDGA1085+009755999GD14991+0097559GF108991999999999999999999MA1100035099685REMMET09601/05/10 19:55:01 METAR KPSM 060055Z 28006KT 10SM OVC032 M02/M06 A2954 RMK AO2A SLP005 T10191058
0180726055047432010010601557+43078-070823FM-15+0030KPSM V0202905N00365007925MN0160935N5-00185-00675100055ADDGA1085+007925999GD14991+0079259GF108991999999999999999999MA1100035099685REMMET09601/05/10 20:55:01 METAR KPSM 060155Z 29007KT 10SM OVC026 M02/M07 A2954 RMK AO2A SLP005 T10181067
0200726055047432010010602557+43078-070823FM-15+0030KPSM V0203005N00465007925MN0160935N5-00225-00735100105ADDGA1085+007925999GD14991+0079259GF108991999999999999999999MA1100075099715MD1340074+9999REMMET10201/05/10 21:55:01 METAR KPSM 060255Z 30009KT 10SM OVC026 M02/M07 A2955 RMK AO2A SLP010 T10221073 53007
0180726055047432010010603557+43078-070823FM-15+0030KPSM V0202905N00415008535MN0160935N5-00275-00755100095ADDGA1085+008535999GD14991+0085359GF108991999999999999999999MA1100075099715REMMET09601/05/10 22:55:01 METAR KPSM 060355Z 29008KT 10SM OVC028 M03/M08 A2955 RMK AO2A SLP009 T10271075
0158726055047432010010604277+43078-070823FM-15+0030KPSM V0203005N00365009455MN0160935N5-00305-00805999999ADDGA1085+009455999GD14991+0094559GF108991999999999999999999MA1100075099715REMMET07401/05/10 23:27:02 METAR KPSM 060427Z 30007KT 10SM OVC031 M03/M08 A2955 RMK
0190726055047432010010604557+43078-070823FM-15+0030KPSM V0202905N00265010675MN0160935N5-00295-00785100075ADDGA1085+010675999GD14991+0106759GF108991999999999999999999MA1100035099685REMMET10601/05/10 23:55:01 METAR KPSM 060455Z 29005KT 10SM OVC035 M03/M08 A2954 RMK AO2A SLP007 T10291078 400061044
0261726055047432010010605557+43078-070823FM-15+0030KPSM V0202805N00365010675MN0160935N5-00335-00835100045ADDAJ100139599999999GA1085+010675999GD14991+0106759GF108991999999999999999999KA1999M-00181KA2999N-00331MA1100005099645MD1840074+9999REMMET12001/06/10 00:55:01 METAR KPSM 060555Z 28007KT 10SM OVC035 M03/M08 A2953 RMK AO2A SLP004 4/005 T10331083 11018 21033 58007
0180726055047432010010606557+43078-070823FM-15+0030KPSM V0202805N00415009145MN0160935N5-00345-00855100065ADDGA1085+009145999GD14991+0091459GF108991999999999999999999MA1100035099685REMMET09601/06/10 01:55:01 METAR KPSM 060655Z 28008KT 10SM OVC030 M03/M09 A2954 RMK AO2A SLP006 T10341085
0180726055047432010010607557+43078-070823FM-15+0030KPSM V0202905N00365009145MN0160935N5-00355-00865100075ADDGA1085+009145999GD14991+0091459GF108991999999999999999999MA1100035099685REMMET09601/06/10 02:55:01 METAR KPSM 060755Z 29007KT 10SM OVC030 M03/M09 A2954 RMK AO2A SLP007 T10351086
0200726055047432010010608557+43078-070823FM-15+0030KPSM V0202805N00315009145MN0160935N5-00415-00885100045ADDGA1085+009145999GD14991+0091459GF108991999999999999999999MA1100005099645MD1040014+9999REMMET10201/06/10 03:55:01 METAR KPSM 060855Z 28006KT 10SM OVC030 M04/M09 A2953 RMK AO2A SLP004 T10411088 50001
0180726055047432010010609557+43078-070823FM-15+0030KPSM V0202805N003152200059N0160935N5-00525-00935100035ADDGA1025+009145999GD11991+0091459GF102991999999999999999999MA1100005099645REMMET09601/06/10 04:55:01 METAR KPSM 060955Z 28006KT 10SM FEW030 M05/M09 A2953 RMK AO2A SLP003 T10521093
0180726055047432010010610557+43078-070823FM-15+0030KPSM V0202705N003152200059N0160935N5-00585-00945100035ADDGA1025+009145999GD11991+0091459GF102991999999999999999999MA1100005099645REMMET09601/06/10 05:55:01 METAR KPSM 061055Z 27006KT 10SM FEW030 M06/M09 A2953 RMK AO2A SLP003 T10581094
0261726055047432010010611557+43078-070823FM-15+0030KPSM V0202705N003152200059N0160935N5-00605-00945100055ADDAJ100139599999999GA1025+018295999GD11991+0182959GF102991999999999999999999KA1999M-00331KA2999N-00601MA1100035099685MD1540004+9999REMMET12001/06/10 06:55:01 METAR KPSM 061155Z 27006KT 10SM FEW060 M06/M09 A2954 RMK AO2A SLP005 4/005 T10601094 11033 21060 55000
0180726055047432010010612557+43078-070823FM-15+0030KPSM V0202705N003652200059N0160935N5-00545-00965100065ADDGA1025+018295999GD11991+0182959GF102991999999999999999999MA1100035099685REMMET09601/06/10 07:55:01 METAR KPSM 061255Z 27007KT 10SM FEW060 M05/M10 A2954 RMK AO2A SLP006 T10541096
0180726055047432010010613557+43078-070823FM-15+0030KPSM V0202905N005152200059N0160935N5-00395-00955100105ADDGA1025+018295999GD11991+0182959GF102991999999999999999999MA1100075099715REMMET09601/06/10 08:55:01 METAR KPSM 061355Z 29010KT 10SM FEW060 M04/M10 A2955 RMK AO2A SLP010 T10391095
0211726055047432010010614557+43078-070823FM-15+0030KPSM V0202905N005752200059N0160935N5-00265-00935100115ADDGA1025+018295999GD11991+0182959GF102991999999999999999999MA1100075099715MD1240074+9999OC100885REMMET10501/06/10 09:55:01 METAR KPSM 061455Z 29011G17KT 10SM FEW060 M03/M09 A2955 RMK AO2A SLP011 T10261093 52007
0180726055047432010010615557+43078-070823FM-15+0030KPSM V0202905N006252200059N0160935N5-00175-00945100065ADDGA1025+018295999GD11991+0182959GF102991999999999999999999MA1100035099685REMMET09601/06/10 10:55:01 METAR KPSM 061555Z 29012KT 10SM FEW060 M02/M09 A2954 RMK AO2A SLP006 T10171094
0180726055047432010010616557+43078-070823FM-15+0030KPSM V0202905N005752200059N0160935N5-00095-00935099965ADDGA1025+018295999GD11991+0182959GF102991999999999999999999MA1099935099585REMMET09601/06/10 11:55:01 METAR KPSM 061655Z 29011KT 10SM FEW060 M01/M09 A2951 RMK AO2A SLP996 T10091093
0261726055047432010010617557+43078-070823FM-15+0030KPSM V0203105N005752200059N0160935N5-00065-00895099925ADDAJ100109599999999GA1025+018295999GD11991+0182959GF102991999999999999999999KA1999M-00061KA2999N-00591MA1099905099545MD1640194+9999REMMET12001/06/10 12:55:01 METAR KPSM 061755Z 31011KT 10SM FEW060 M01/M09 A2950 RMK AO2A SLP992 4/004 T10061089 11006 21059 56019
0180726055047432010010618557+43078-070823FM-15+0030KPSM V0202805N007252200059N0160935N5+00005-00935099895ADDGA1025+076205999GD11991+0762059GF102991999999999999999999MA1099865099515REMMET09601/06/10 13:55:01 METAR KPSM 061855Z 28014KT 10SM FEW250 M00/M09 A2949 RMK AO2A SLP989 T10001093
0191726055047432010010619557+43078-070823FM-15+0030KPSM V0203005N009352200059N0160935N5-00055-00895099915ADDGA1045+076205999GD12991+0762059GF104991999999999999999999MA1099865099515OC101245REMMET09901/06/10 14:55:01 METAR KPSM 061955Z 30018G24KT 10SM SCT250 M01/M09 A2949 RMK AO2A SLP991 T10051089
0211726055047432010010620557+43078-070823FM-15+0030KPSM V0202905N00625076205MN0160935N5-00125-00945099935ADDGA1075+076205999GD13991+0762059GF107991999999999999999999MA1099905099545MD1340014+9999OC101135REMMET10501/06/10 15:55:01 METAR KPSM 062055Z 29012G22KT 10SM BKN250 M01/M09 A2950 RMK AO2A SLP993 T10121094 53001
0191726055047432010010621557+43078-070823FM-15+0030KPSM V0202905N006252200059N0160935N5-00225-00955099985ADDGA1045+076205999GD12991+0762059GF104991999999999999999999MA1099935099585OC100985REMMET09901/06/10 16:55:01 METAR KPSM 062155Z 29012G19KT 10SM SCT250 M02/M10 A2951 RMK AO2A SLP998 T10221095
0180726055047432010010622557+43078-070823FM-15+0030KPSM V0202805N005152200059N0160935N5-00295-00965100005ADDGA1025+076205999GD11991+0762059GF102991999999999999999999MA1099975099615REMMET09601/06/10 17:55:01 METAR KPSM 062255Z 28010KT 10SM FEW250 M03/M10 A2952 RMK AO2A SLP000 T10291096
0261726055047432010010623557+43078-070823FM-15+0030KPSM V0202805N00415024385MN0160935N5-00305-00935100055ADDAJ100109599999999GA1075+024385999GD13991+0243859GF107991999999999999999999KA1999M+00001KA2999N-00321MA1100035099685MD1340124+9999REMMET12001/06/10 18:55:02 METAR KPSM 062355Z 28008KT 10SM BKN080 M03/M09 A2954 RMK AO2A SLP005 4/004 T10301093 10000 21032 53012
0218726055047432010010700557+43078-070823FM-15+0030KPSM V0202905N00365021345MN0160935N5-00285-00915100085ADDGA1025+016765999GA2075+021345999GD11991+0167659GD23991+0213459GF107991999999999999999999MA1100035099685REMMET10301/06/10 19:55:01 METAR KPSM 070055Z 29007KT 10SM FEW055 BKN070 M03/M09 A2954 RMK AO2A SLP008 T10281091
0218726055047432010010701187+43078-070823FM-15+0030KPSM V0202905N00575006715MN0064375N5-00205-00905999999ADDAU116030015AW1855GA1075+006715999GA2085+016765999GD13991+0067159GD24991+0167659GF108991999999999999999999MA1100075099715REMMET08601/06/10 20:18:02 METAR KPSM 070118Z 29011KT 4SM -SHSN BKN022 OVC055 M02/M09 A2955 RMK
0306726055047432010010701557+43078-070823FM-15+0030KPSM V0202905N00415021345MN0096565N5-00245-00875100105ADDAA101000021AU116030015AW1855GA1025+006715999GA2045+013725999GA3085+021345999GD11991+0067159GD22991+0137259GD34991+0213459GF108991999999999999999999MA1100075099715OC100825REMMET12401/06/10 20:55:01 METAR KPSM 070155Z 29008G16KT 6SM -SHSN FEW022 SCT045 OVC070 M02/M09 A2955 RMK AO2A SLP010 P0000 T10241087
0234726055047432010010702017+43078-070823FM-15+0030KPSM V0202905N00675024385MN0160935N5-00205-00905999999ADDGA1025+012195999GA2045+016765999GA3085+024385999GD11991+0121959GD22991+0167659GD34991+0243859GF108991999999999999999999MA1100075099715REMMET08801/06/10 21:01:02 METAR KPSM 070201Z 29013KT 10SM FEW040 SCT055 OVC080 M02/M09 A2955 RMK
0302726055047432010010702557+43078-070823FM-15+0030KPSM V0202905N00465024385MN0160935N5-00275-00895100135ADDAA101000021AA203000021GA1045+011585999GA2085+024385999GD12991+0115859GD24991+0243859GF108991999999999999999999MA1100105099755MD1340084+9999OC100935REMMET12401/06/10 21:55:01 METAR KPSM 070255Z 29009G18KT 10SM SCT038 OVC080 M03/M09 A2956 RMK AO2A SLP013 P0000 60000 T10271089 53008EQDQ01  00008PRCP03
0218726055047432010010703557+43078-070823FM-15+0030KPSM V0202905N00675033535MN0160935N5-00345-00935100175ADDGA1025+011585999GA2075+033535999GD11991+0115859GD23991+0335359GF107991999999999999999999MA1100145099785REMMET10301/06/10 22:55:01 METAR KPSM 070355Z 29013KT 10SM FEW038 BKN110 M03/M09 A2957 RMK AO2A SLP017 T10341093
0228726055047432010010704557+43078-070823FM-15+0030KPSM V0202905N004652200059N0160935N5-00375-01035100155ADDGA1025+010675999GA2045+030485999GD11991+0106759GD22991+0304859GF104991999999999999999999MA1100145099785REMMET11301/06/10 23:55:01 METAR KPSM 070455Z 29009KT 10SM FEW035 SCT100 M04/M10 A2957 RMK AO2A SLP015 T10371103 400001060
0346726055047432010010705557+43078-070823FM-15+0030KPSM V0203005N00415027435MN0160935N5-00375-01015100175ADDAA106000021AJ100109599999999GA1025+010675999GA2075+027435999GD11991+0106759GD23991+0274359GF107991999999999999999999KA1999M-00241KA2999N-00391MA1100145099785MD1140044+9999OC100825REMMET13601/07/10 00:55:01 METAR KPSM 070555Z 30008G16KT 10SM FEW035 BKN090 M04/M10 A2957 RMK AO2A SLP017 60000 4/004 T10371101 11024 21039 51004EQDQ01  00008PRCP06
0218726055047432010010706557+43078-070823FM-15+0030KPSM V0202905N006752200059N0160935N5-00395-01045100205ADDGA1025+012195999GA2045+030485999GD11991+0121959GD22991+0304859GF104991999999999999999999MA1100175099815REMMET10301/07/10 01:55:01 METAR KPSM 070655Z 29013KT 10SM FEW040 SCT100 M04/M10 A2958 RMK AO2A SLP020 T10391104
0218726055047432010010707557+43078-070823FM-15+0030KPSM V0202905N005752200059N0160935N5-00415-01045100235ADDGA1045+024385999GA2045+033535999GD12991+0243859GD22991+0335359GF104991999999999999999999MA1100205099855REMMET10301/07/10 02:55:01 METAR KPSM 070755Z 29011KT 10SM SCT080 SCT110 M04/M10 A2959 RMK AO2A SLP023 T10411104
0238726055047432010010708557+43078-070823FM-15+0030KPSM V0203005N00575033535MN0160935N5-00375-00985100275ADDGA1025+024385999GA2075+033535999GD11991+0243859GD23991+0335359GF107991999999999999999999MA1100245099885MD1240094+9999REMMET10901/07/10 03:55:01 METAR KPSM 070855Z 30011KT 10SM FEW080 BKN110 M04/M10 A2960 RMK AO2A SLP027 T10371098 52009
0180726055047432010010709557+43078-070823FM-15+0030KPSM V0202905N007252200059N0160935N5-00365-00995100315ADDGA1025+030485999GD11991+0304859GF102991999999999999999999MA1100275099915REMMET09601/07/10 04:55:01 METAR KPSM 070955Z 29014KT 10SM FEW100 M04/M10 A2961 RMK AO2A SLP031 T10361099
0247726055047432010010710557+43078-070823FM-15+0030KPSM V0202905N00675060965MN0160935N5-00335-00925100345ADDGA1025+030485999GA2075+060965999GD11991+0304859GD23991+0609659GF107991999999999999999999MA1100305099955OC101035REMMET12401/07/10 05:55:01 METAR KPSM 071055Z 29013G20KT 10SM FEW100 BKN200 M03/M09 A2962 RMK AO2A PK WND 30026/1035 SLP034 T10331092
0310726055047432010010711557+43078-070823FM-15+0030KPSM V0202905N008252200059N0160935N5-00335-00935100405ADDAJ100109599999999GA1025+039625999GA2045+060965999GD11991+0396259GD22991+0609659GF104991999999999999999999KA1999M-00321KA2999N-00421MA1100375100025MD1340144+9999OC101085REMMET13001/07/10 06:55:01 METAR KPSM 071155Z 29016G21KT 10SM FEW130 SCT200 M03/M09 A2964 RMK AO2A SLP040 4/004 T10331093 11032 21042 53014
0180726055047432010010712557+43078-070823FM-15+0030KPSM V0202905N007252200059N0160935N5-00315-00915100475ADDGA1045+076205999GD12991+0762059GF104991999999999999999999MA1100445100085REMMET09601/07/10 07:55:01 METAR KPSM 071255Z 29014KT 10SM SCT250 M03/M09 A2966 RMK AO2A SLP047 T10311091
0191726055047432010010713557+43078-070823FM-15+0030KPSM V0202805N007752200059N0160935N5-00195-00855100515ADDGA1025+076205999GD11991+0762059GF102991999999999999999999MA1100475100125OC101085REMMET09901/07/10 08:55:01 METAR KPSM 071355Z 28015G21KT 10SM FEW250 M02/M08 A2967 RMK AO2A SLP051 T10191085
0211726055047432010010714557+43078-070823FM-15+0030KPSM V0202905N007752200059N0160935N5-00125-00825100575ADDGA1025+076205999GD11991+0762059GF102991999999999999999999MA1100545100185MD1140164+9999OC101295REMMET10501/07/10 09:55:01 METAR KPSM 071455Z 29015G25KT 10SM FEW250 M01/M08 A2969 RMK AO2A SLP057 T10121082 51016
0190726055047432010010715557+43078-070823FM-15+0030KPSM V0202805N007252200059N0160935N5+00005-00815100545ADDGA1025+076205999GD11991+0762059GF102991999999999999999999MA1100515100155OC101085REMMET09801/07/10 10:55:01 METAR KPSM 071555Z 28014G21KT 10SM FEW250 00/M08 A2968 RMK AO2A SLP054 T00001081
0156726055047432010010716557+43078-070823FM-15+0030KPSM V0202905N008252200059N0160935N5+00155-00785100475ADDGF100991999999999999999999MA1100445100085OC101085REMMET09501/07/10 11:55:01 METAR KPSM 071655Z 29016G21KT 10SM CLR 02/M08 A2966 RMK AO2A SLP047 T00151078
0255726055047432010010717557+43078-070823FM-15+0030KPSM V0202905N011352200059N0160935N5+00245-00815100425ADDAJ100109599999999GF100991999999999999999999KA1999M+00241KA2999N-00351MA1100415100055MD1840144+9999OC101545REMMET13701/07/10 12:55:01 METAR KPSM 071755Z 29022G30KT 10SM CLR 02/M08 A2965 RMK AO2A PK WND 31030/1745 SLP042 4/004 T00241081 10024 21035 58014
0174726055047432010010718557+43078-070823FM-15+0030KPSM V0203005N009352200059N0160935N5+00235-00815100445ADDGF100991999999999999999999MA1100415100055OC101395REMMET11301/07/10 13:55:01 METAR KPSM 071855Z 30018G27KT 10SM CLR 02/M08 A2965 RMK AO2A PK WND 29031/1755 SLP044 T00231081
0174726055047432010010719557+43078-070823FM-15+0030KPSM V0202805N006752200059N0160935N5+00245-00785100495ADDGF100991999999999999999999MA1100475100125OC101085REMMET11301/07/10 14:55:01 METAR KPSM 071955Z 28013G21KT 10SM CLR 02/M08 A2967 RMK AO2A PK WND 29027/1941 SLP049 T00241078
0165726055047432010010720557+43078-070823FM-15+0030KPSM V0202805N005152200059N0160935N5+00215-00795100535ADDGF100991999999999999999999MA1100515100155MD1340104+9999REMMET09801/07/10 15:55:01 METAR KPSM 072055Z 28010KT 10SM CLR 02/M08 A2968 RMK AO2A SLP053 T00211079 53010
0145726055047432010010721557+43078-070823FM-15+0030KPSM V0202805N003152200059N0160935N5+00095-00825100585ADDGF100991999999999999999999MA1100545100185REMMET09201/07/10 16:55:01 METAR KPSM 072155Z 28006KT 10SM CLR 01/M08 A2969 RMK AO2A SLP058 T00091082
0146726055047432010010722557+43078-070823FM-15+0030KPSM V0202805N002652200059N0160935N5-00015-00855100655ADDGF100991999999999999999999MA1100615100255REMMET09301/07/10 17:55:01 METAR KPSM 072255Z 28005KT 10SM CLR M00/M09 A2971 RMK AO2A SLP065 T10011085
0227726055047432010010723557+43078-070823FM-15+0030KPSM V0202605N003152200059N0160935N5-00125-00865100695ADDAJ100089599999999GF100991999999999999999999KA1999M+00251KA2999N-00121MA1100685100325MD1240174+9999REMMET11701/07/10 18:55:02 METAR KPSM 072355Z 26006KT 10SM CLR M01/M09 A2973 RMK AO2A SLP069 4/003 T10121086 10025 21012 52017
0146726055047432010010800557+43078-070823FM-15+0030KPSM V0202905N002152200059N0160935N5-00235-00915100735ADDGF100991999999999999999999MA1100715100355REMMET09301/07/10 19:55:01 METAR KPSM 080055Z 29004KT 10SM CLR M02/M09 A2974 RMK AO2A SLP073 T10231091
0146726055047432010010801557+43078-070823FM-15+0030KPSM V0202905N005152200059N0160935N5-00185-00845100755ADDGF100991999999999999999999MA1100715100355REMMET09301/07/10 20:55:01 METAR KPSM 080155Z 29010KT 10SM CLR M02/M08 A2974 RMK AO2A SLP075 T10181084
0166726055047432010010802557+43078-070823FM-15+0030KPSM V0202705N002652200059N0160935N5-00285-00875100765ADDGF100991999999999999999999MA1100755100395MD1140064+9999REMMET09901/07/10 21:55:01 METAR KPSM 080255Z 27005KT 10SM CLR M03/M09 A2975 RMK AO2A SLP076 T10281087 51006
0180726055047432010010803557+43078-070823FM-15+0030KPSM V0202805N004652200059N0160935N5-00395-00935100805ADDGA1025+076205999GD11991+0762059GF102991999999999999999999MA1100785100425REMMET09601/07/10 22:55:01 METAR KPSM 080355Z 28009KT 10SM FEW250 M04/M09 A2976 RMK AO2A SLP080 T10391093
0228726055047432010010804557+43078-070823FM-15+0030KPSM V0202805N004652200059N0160935N5-00415-00995100795ADDGA1025+009755999GA2025+076205999GD11991+0097559GD21991+0762059GF102991999999999999999999MA1100755100395REMMET11301/07/10 23:55:01 METAR KPSM 080455Z 28009KT 10SM FEW032 FEW250 M04/M10 A2975 RMK AO2A SLP079 T10411099 400251042
0299726055047432010010805557+43078-070823FM-15+0030KPSM V0202705N00365076205MN0160935N5-00475-01095100795ADDAJ100089599999999GA1025+009145999GA2075+076205999GD11991+0091459GD23991+0762059GF107991999999999999999999KA1999M-00111KA2999N-00471MA1100755100395MD1040034+9999REMMET12701/08/10 00:55:01 METAR KPSM 080555Z 27007KT 10SM FEW030 BKN250 M05/M11 A2975 RMK AO2A SLP079 4/003 T10471109 11011 21047 50003
0229726055047432010010806557+43078-070823FM-15+0030KPSM V0202905N00515060965MN0160935N5-00525-01205100805ADDGA1025+009145999GA2075+060965999GD11991+0091459GD23991+0609659GF107991999999999999999999MA1100785100425OC100775REMMET10601/08/10 01:55:01 METAR KPSM 080655Z 29010G15KT 10SM FEW030 BKN200 M05/M12 A2976 RMK AO2A SLP080 T10521120
0218726055047432010010807557+43078-070823FM-15+0030KPSM V0202705N00265060965MN0160935N5-00565-01235100815ADDGA1025+009145999GA2075+060965999GD11991+0091459GD23991+0609659GF107991999999999999999999MA1100785100425REMMET10301/08/10 02:55:01 METAR KPSM 080755Z 27005KT 10SM FEW030 BKN200 M06/M12 A2976 RMK AO2A SLP081 T10561123
0276726055047432010010808557+43078-070823FM-15+0030KPSM V0202905N00215060965MN0160935N5-00615-01235100715ADDGA1025+009145999GA2045+042675999GA3085+060965999GD11991+0091459GD22991+0426759GD34991+0609659GF108991999999999999999999MA1100685100325MD1840084+9999REMMET11601/08/10 03:55:01 METAR KPSM 080855Z 29004KT 10SM FEW030 SCT140 OVC200 M06/M12 A2973 RMK AO2A SLP071 T10611123 58008
0256726055047432010010809557+43078-070823FM-15+0030KPSM V0202805N00155060965MN0160935N5-00685-01295100675ADDGA1025+009145999GA2045+039625999GA3075+060965999GD11991+0091459GD22991+0396259GD33991+0609659GF107991999999999999999999MA1100645100295REMMET11001/08/10 04:55:01 METAR KPSM 080955Z 28003KT 10SM FEW030 SCT130 BKN200 M07/M13 A2972 RMK AO2A SLP067 T10681129
0256726055047432010010810557+43078-070823FM-15+0030KPSM V0202805N002152200059N0160935N5-00735-01295100705ADDGA1025+009145999GA2045+039625999GA3045+060965999GD11991+0091459GD22991+0396259GD32991+0609659GF104991999999999999999999MA1100685100325REMMET11001/08/10 05:55:01 METAR KPSM 081055Z 28004KT 10SM FEW030 SCT130 SCT200 M07/M13 A2973 RMK AO2A SLP070 T10731129
0337726055047432010010811557+43078-070823FM-15+0030KPSM V0202705N00265060965MN0160935N5-00715-01245100735ADDAJ100089599999999GA1025+009145999GA2045+036585999GA3085+060965999GD11991+0091459GD22991+0365859GD34991+0609659GF108991999999999999999999KA1999M-00481KA2999N-00751MA1100715100355MD1340024+9999REMMET13401/08/10 06:55:01 METAR KPSM 081155Z 27005KT 10SM FEW030 SCT120 OVC200 M07/M12 A2974 RMK AO2A SLP073 4/003 T10711124 11048 21075 53002
0218726055047432010010812557+43078-070823FM-15+0030KPSM V0202805N00215027435MN0160935N5-00685-01225100705ADDGA1075+027435999GA2085+060965999GD13991+0274359GD24991+0609659GF108991999999999999999999MA1100685100325REMMET10301/08/10 07:55:01 METAR KPSM 081255Z 28004KT 10SM BKN090 OVC200 M07/M12 A2973 RMK AO2A SLP070 T10681122
0256726055047432010010813557+43078-070823FM-15+0030KPSM V0203105N00155024385MN0160935N5-00665-01225100665ADDGA1025+009145999GA2075+024385999GA3085+060965999GD11991+0091459GD23991+0243859GD34991+0609659GF108991999999999999999999MA1100645100295REMMET11001/08/10 08:55:01 METAR KPSM 081355Z 31003KT 10SM FEW030 BKN080 OVC200 M07/M12 A2972 RMK AO2A SLP066 T10661122
0238726055047432010010814557+43078-070823FM-15+0030KPSM V0203205N00155022865MN0160935N5-00585-01175100675ADDGA1025+009145999GA2085+022865999GD11991+0091459GD24991+0228659GF108991999999999999999999MA1100645100295MD1640064+9999REMMET10901/08/10 09:55:01 METAR KPSM 081455Z 32003KT 10SM FEW030 OVC075 M06/M12 A2972 RMK AO2A SLP067 T10581117 56006
0223726055047432010010815167+43078-070823FM-15+0030KPSM V0203105N00105019815MN0160935N5-00605-01205999999ADDAU110030015AW1715GA1045+009145999GA2085+019815999GD12991+0091459GD24991+0198159GF108991999999999999999999MA1100615100255MW1711REMMET08501/08/10 10:16:02 METAR KPSM 081516Z 31002KT 10SM -SN SCT030 OVC065 M06/M12 A2971 RMK
0299726055047432010010815557+43078-070823FM-15+0030KPSM V0203305N00215008235MN0080475N5-00475-00985100565ADDAA101000021AU110030015AW1715GA1075+008235999GA2075+010675999GA3085+018295999GD13991+0082359GD23991+0106759GD34991+0182959GF108991999999999999999999MA1100545100185MW1711REMMET11901/08/10 10:55:01 METAR KPSM 081555Z 33004KT 5SM -SN BKN027 BKN035 OVC060 M05/M10 A2969 RMK AO2A SLP056 P0000 T10471098
0222726055047432010010816297+43078-070823FM-15+0030KPSM V0203305N00265004885MN0032195N5-00405-00905999999ADDAU110030015AW1715GA1075+004885999GA2085+010675999GD13991+0048859GD24991+0106759GF108991999999999999999999MA1100445100085MW1711REMMET08401/08/10 11:29:02 METAR KPSM 081629Z 33005KT 2SM -SN BKN016 OVC035 M04/M09 A2966 RMK
0261726055047432010010816557+43078-070823FM-15+0030KPSM V0209999V00265007925MN0032195N5-00435-00805100435ADDAA101000021AU110030015AW1715GA1075+007925999GA2085+010675999GD13991+0079259GD24991+0106759GF108991999999999999999999MA1100415100055MW1711REMMET11201/08/10 11:55:01 METAR KPSM 081655Z VRB05KT 2SM -SN BKN026 OVC035 M04/M08 A2965 RMK AO2A SLP043 P0000 T10431080
0214726055047432010010817177+43078-070823FM-15+0030KPSM V0203205N00215007325MN0020125N5-00505-00805999999ADDAU110030015AU200001015AW1105AW2715GA1085+007325999GD14991+0073259GF108991999999999999999999MA1100375100025MW1101MW2711REMMET08401/08/10 12:17:02 METAR KPSM 081717Z 32004KT 1 1/4SM -SN BR OVC024 M05/M08 A2964 RMK
0408726055047432010010817557+43078-070823FM-15+0030KPSM V0203205N00265005185MN0020125N5-00475-00775100385ADDAA101000021AA206000021AJ100089599999999AU110030015AU200001015AW1105AW2715GA1075+005185999GA2085+010675999GD13991+0051859GD24991+0106759GF108991999999999999999999KA1999M-00431KA2999N-00701MA1100345099985MD1640294+9999MW1101MW2711REMMET14901/08/10 12:55:01 METAR KPSM 081755Z 32005KT 1 1/4SM -SN BR BKN017 OVC035 M05/M08 A2963 RMK AO2A SLP038 P0000 60000 4/003 T10471077 11043 21070 56029EQDQ01  00008PRCP06
0291726055047432010010818557+43078-070823FM-15+0030KPSM V0203205N00265006405MN0024145N5-00475-00755100355ADDAA101000395AU110030015AU200001015AW1105AW2715GA1075+006405999GA2085+010675999GD13991+0064059GD24991+0106759GF108991999999999999999999MA1100345099985MW1101MW2711REMMET11901/08/10 13:55:01 METAR KPSM 081855Z 32005KT 1 1/2SM -SN BR BKN021 OVC035 M05/M08 A2963 RMK AO2A SLP035 P0001 T10471075
0272726055047432010010819557+43078-070823FM-15+0030KPSM V0203205N00215005185MN0016095N5-00455-00715100365ADDAA101000021AU110030015AU200001015AW1105AW2715ED134U18299GA1085+005185999GD14991+0051859GF108991999999999999999999MA1100345099985MW1101MW2711REMMET12001/08/10 14:55:01 METAR KPSM 081955Z 32004KT 1SM R34/P6000FT -SN BR OVC017 M05/M07 A2963 RMK AO2A SLP036 P0000 T10451071
0286726055047432010010820337+43078-070823FM-15+0030KPSM V0203205N00265003665MN0032195N5-00505-00705999999ADDAU110030015AU200001015AW1105AW2715GA1025+001225999GA2075+003665999GA3085+008845999GD11991+0012259GD23991+0036659GD34991+0088459GF108991999999999999999999MA1100345099985MW1101MW2711REMMET09401/08/10 15:33:02 METAR KPSM 082033Z 32005KT 2SM -SN BR FEW004 BKN012 OVC029 M05/M07 A2963 RMK
0381726055047432010010820557+43078-070823FM-15+0030KPSM V0203105N00265006105MN0096565N5-00495-00725100385ADDAA101000595AA203000891AU110030015AU200001015AW1105AW2715GA1025+002135999GA2075+006105999GA3085+076205999GD11991+0021359GD23991+0061059GD34991+0762059GF108991999999999999999999MA1100345099985MD1540004+9999MW1101MW2711REMMET13401/08/10 15:55:01 METAR KPSM 082055Z 31005KT 6SM -SN BR FEW007 BKN020 OVC250 M05/M07 A2963 RMK AO2A SLP038 P0002 60003 T10491072 55000EQDQ01  00088PRCP03
0309726055047432010010821557+43078-070823FM-15+0030KPSM V0202905N00315008235MN0032195N5-00495-00745100405ADDAA101000021AU110030015AU200001015AW1105AW2715ED134U15249GA1045+003055999GA2085+008235999GD12991+0030559GD24991+0082359GF108991999999999999999999MA1100375100025MW1101MW2711REMMET12601/08/10 16:55:01 METAR KPSM 082155Z 29006KT 2SM R34/5000FT -SN BR SCT010 OVC027 M05/M07 A2964 RMK AO2A SLP040 P0000 T10491074
0248726055047432010010822307+43078-070823FM-15+0030KPSM V0203005N00315002745MN0064375N5-00505-00705999999ADDAU110030015AU200001015AW1105AW2715GA1075+002745999GA2085+009145999GD13991+0027459GD24991+0091459GF108991999999999999999999MA1100415100055MW1101MW2711REMMET08701/08/10 17:30:02 METAR KPSM 082230Z 30006KT 4SM -SN BR BKN009 OVC030 M05/M07 A2965 RMK
0299726055047432010010822557+43078-070823FM-15+0030KPSM V0203105N00315006105MN0112655N5-00535-00745100455ADDAA101000021AU110030015AW1715GA1045+002445999GA2075+006105999GA3085+013725999GD12991+0024459GD23991+0061059GD34991+0137259GF108991999999999999999999MA1100415100055MW1711REMMET11901/08/10 17:55:01 METAR KPSM 082255Z 31006KT 7SM -SN SCT008 BKN020 OVC045 M05/M07 A2965 RMK AO2A SLP045 P0000 T10531074
0442726055047432010010823557+43078-070823FM-15+0030KPSM V0203205N00265006105MN0032195N5-00555-00735100515ADDAA101000595AA206001391AJ100109599999999AU110030015AU200001015AW1105AW2715GA1045+002445999GA2075+006105999GA3085+013725999GD12991+0024459GD23991+0061059GD34991+0137259GF108991999999999999999999KA1999M-00441KA2999N-00561MA1100475100125MD1340134+9999MW1101MW2711REMMET15201/08/10 18:55:02 METAR KPSM 082355Z 32005KT 2SM -SN BR SCT008 BKN020 OVC045 M05/M07 A2967 RMK AO2A SLP051 P0002 60005 4/004 T10551073 11044 21056 53013EQDQ01  00138PRCP06
0253726055047432010010900067+43078-070823FM-15+0030KPSM V0203105N00315002445MN0064375N5-00505-00705999999ADDAU110030015AU200001015AW1105AW2715GA1075+002445999GA2085+006105999GD13991+0024459GD24991+0061059GF108991999999999999999999MA1100475100125MW1101MW2711REMMET09201/08/10 19:06:01 METAR KPSM 090006Z 31006KT 4SM -SN BR BKN008 OVC020 M05/M07 A2967 RMK AO2A
0325726055047432010010900557+43078-070823FM-15+0030KPSM V0202805N00265006105MN0048285N5-00575-00765100555ADDAA101000021AU110030015AU200001015AW1105AW2715GA1045+002445999GA2075+006105999GA3085+013725999GD12991+0024459GD23991+0061059GD34991+0137259GF108991999999999999999999MA1100515100155MW1101MW2711REMMET12201/08/10 19:55:01 METAR KPSM 090055Z 28005KT 3SM -SN BR SCT008 BKN020 OVC045 M06/M08 A2968 RMK AO2A SLP055 P0000 T10571076
0290726055047432010010901247+43078-070823FM-15+0030KPSM V0202805N00265003055MN0028165N5-00605-00805999999ADDAU110030015AU200001015AW1105AW2715GA1045+001835999GA2075+003055999GA3085+006715999GD12991+0018359GD23991+0030559GD34991+0067159GF108991999999999999999999MA1100545100185MW1101MW2711REMMET09801/08/10 20:24:02 METAR KPSM 090124Z 28005KT 1 3/4SM -SN BR SCT006 BKN010 OVC022 M06/M08 A2969 RMK
0312726055047432010010901417+43078-070823FM-15+0030KPSM V0202905N00315003055MN0020125N5-00605-00805999999ADDAU110030015AU200001015AW1105AW2715ED134U13729GA1045+001225999GA2075+003055999GA3085+006105999GD12991+0012259GD23991+0030559GD34991+0061059GF108991999999999999999999MA1100545100185MW1101MW2711REMMET10901/08/10 20:41:02 METAR KPSM 090141Z 29006KT 1 1/4SM R34/4500FT -SN BR SCT004 BKN010 OVC020 M06/M08 A2969 RMK
0348726055047432010010901557+43078-070823FM-15+0030KPSM V0202905N00315004575MN0048285N5-00605-00795100605ADDAA101000395AU110030015AU200001015AW1105AW2715ED134U18299GA1025+001835999GA2075+004575999GA3085+010675999GD11991+0018359GD23991+0045759GD34991+0106759GF108991999999999999999999MA1100585100225MW1101MW2711REMMET13401/08/10 20:55:01 METAR KPSM 090155Z 29006KT 3SM R34/P6000FT -SN BR FEW006 BKN015 OVC035 M06/M08 A2970 RMK AO2A SLP060 P0001 T10601079
0263726055047432010010902067+43078-070823FM-15+0030KPSM V0203005N00265010675MN0112655N5-00605-00805999999ADDGA1025+001835999GA2045+004575999GA3075+010675999GD11991+0018359GD22991+0045759GD33991+0106759GD44991+0150019GF108991999999999999999999MA1100585100225MW1711REMMET09601/08/10 21:06:01 METAR KPSM 090206Z 30005KT 7SM -SN FEW006 SCT015 BKN035 M06/M08 A2970 RMK AO2A
0353726055047432010010902557+43078-070823FM-15+0030KPSM V0202905N00365012195MN0112655N5-00645-00915100655ADDAA101000021AA203000391GA1025+004575999GA2045+007625999GA3075+012195999GD11991+0045759GD22991+0076259GD33991+0121959GD44991+0270019GF108991999999999999999999MA1100615100255MD1340144+9999MW1711REMMET13101/08/10 21:55:01 METAR KPSM 090255Z 29007KT 7SM -SN FEW015 SCT025 BKN040 M06/M09 A2971 RMK AO2A SLP065 P0000 60001 T10641091 53014EQDQ01  00038PRCP03
0234726055047432010010903097+43078-070823FM-15+0030KPSM V0203005N00365013725MN0160935N5-00605-00905999999ADDGA1025+007625999GA2075+013725999GA3085+027435999GD11991+0076259GD23991+0137259GD34991+0274359GF108991999999999999999999MA1100645100295REMMET08801/08/10 22:09:02 METAR KPSM 090309Z 30007KT 10SM FEW025 BKN045 OVC090 M06/M09 A2972 RMK
0196726055047432010010903417+43078-070823FM-15+0030KPSM V0202905N00315008535MN0160935N5-00605-01005999999ADDGA1075+008535999GA2085+013725999GD13991+0085359GD24991+0137259GF108991999999999999999999MA1100685100325REMMET08101/08/10 22:41:02 METAR KPSM 090341Z 29006KT 10SM BKN028 OVC045 M06/M10 A2973 RMK
0235726055047432010010903557+43078-070823FM-15+0030KPSM V0202905N00315009145MN0160935N5-00645-01005100715ADDAA101000021GA1075+009145999GA2085+013725999GD13991+0091459GD24991+0137259GF108991999999999999999999MA1100685100325REMMET10901/08/10 22:55:01 METAR KPSM 090355Z 29006KT 10SM BKN030 OVC045 M06/M10 A2973 RMK AO2A SLP071 P0000 T10641100
0190726055047432010010904557+43078-070823FM-15+0030KPSM V0203005N00365009455MN0160935N5-00615-01025100735ADDGA1085+009455999GD14991+0094559GF108991999999999999999999MA1100685100325REMMET10601/08/10 23:55:01 METAR KPSM 090455Z 30007KT 10SM OVC031 M06/M10 A2973 RMK AO2A SLP073 T10611102 410421075
0373726055047432010010905557+43078-070823FM-15+0030KPSM V0202905N00465027435MN0160935N5-00635-01075100765ADDAA106000391AJ100109599999999GA1025+009755999GA2045+013725999GA3085+027435999GD11991+0097559GD22991+0137259GD34991+0274359GF108991999999999999999999KA1999M-00541KA2999N-00661MA1100755100395MD1140114+9999REMMET14001/09/10 00:55:01 METAR KPSM 090555Z 29009KT 10SM FEW032 SCT045 OVC090 M06/M11 A2975 RMK AO2A SLP076 60001 4/004 T10631107 11054 21066 51011EQDQ01  00038PRCP06
0218726055047432010010906557+43078-070823FM-15+0030KPSM V0202805N003152200059N0160935N5-00715-01165100835ADDGA1025+013725999GA2025+027435999GD11991+0137259GD21991+0274359GF102991999999999999999999MA1100815100455REMMET10301/09/10 01:55:01 METAR KPSM 090655Z 28006KT 10SM FEW045 FEW090 M07/M12 A2977 RMK AO2A SLP083 T10711116
0218726055047432010010907557+43078-070823FM-15+0030KPSM V0202805N003152200059N0160935N5-00765-01195100895ADDGA1025+013725999GA2025+036585999GD11991+0137259GD21991+0365859GF102991999999999999999999MA1100855100495REMMET10301/09/10 02:55:01 METAR KPSM 090755Z 28006KT 10SM FEW045 FEW120 M08/M12 A2978 RMK AO2A SLP089 T10761119
0200726055047432010010908557+43078-070823FM-15+0030KPSM V0202905N003652200059N0160935N5-00825-01285100925ADDGA1025+012195999GD11991+0121959GF102991999999999999999999MA1100885100525MD1140164+9999REMMET10201/09/10 03:55:01 METAR KPSM 090855Z 29007KT 10SM FEW040 M08/M13 A2979 RMK AO2A SLP092 T10821128 51016
0180726055047432010010909557+43078-070823FM-15+0030KPSM V0202905N003652200059N0160935N5-00815-01275100995ADDGA1025+012195999GD11991+0121959GF102991999999999999999999MA1100955100595REMMET09601/09/10 04:55:01 METAR KPSM 090955Z 29007KT 10SM FEW040 M08/M13 A2981 RMK AO2A SLP099 T10811127
0180726055047432010010910557+43078-070823FM-15+0030KPSM V0202905N003652200059N0160935N5-00825-01295101055ADDGA1025+012195999GD11991+0121959GF102991999999999999999999MA1101025100665REMMET09601/09/10 05:55:01 METAR KPSM 091055Z 29007KT 10SM FEW040 M08/M13 A2983 RMK AO2A SLP105 T10821129
0297726055047432010010911557+43078-070823FM-15+0030KPSM V0202905N004152200059N0160935N5-00825-01335101135ADDAA124001591AJ100109599999999GA1025+012195999GD11991+0121959GF102991999999999999999999KA1999M-00631KA2999N-00851MA1101085100725MD1340214+9999REMMET12601/09/10 06:55:01 METAR KPSM 091155Z 29008KT 10SM FEW040 M08/M13 A2985 RMK AO2A SLP113 70006 4/004 T10821133 11063 21085 53021EQDQ01  00158PRCP24
0180726055047432010010912557+43078-070823FM-15+0030KPSM V0203005N005152200059N0160935N5-00825-01395101225ADDGA1025+012195999GD11991+0121959GF102991999999999999999999MA1101195100835REMMET09601/09/10 07:55:01 METAR KPSM 091255Z 30010KT 10SM FEW040 M08/M14 A2988 RMK AO2A SLP122 T10821139
0180726055047432010010913557+43078-070823FM-15+0030KPSM V0203005N005152200059N0160935N5-00755-01435101315ADDGA1025+012195999GD11991+0121959GF102991999999999999999999MA1101295100935REMMET09601/09/10 08:55:01 METAR KPSM 091355Z 30010KT 10SM FEW040 M07/M14 A2991 RMK AO2A SLP131 T10751143
0166726055047432010010914557+43078-070823FM-15+0030KPSM V0203005N006252200059N0160935N5-00705-01485101385ADDGF100991999999999999999999MA1101355100995MD1140254+9999REMMET09901/09/10 09:55:01 METAR KPSM 091455Z 30012KT 10SM CLR M07/M15 A2993 RMK AO2A SLP138 T10701148 51025
0146726055047432010010915557+43078-070823FM-15+0030KPSM V0203205N006752200059N0160935N5-00635-01545101405ADDGF100991999999999999999999MA1101355100995REMMET09301/09/10 10:55:01 METAR KPSM 091555Z 32013KT 10SM CLR M06/M15 A2993 RMK AO2A SLP140 T10631154
0146726055047432010010916557+43078-070823FM-15+0030KPSM V0202805N005152200059N0160935N5-00505-01565101365ADDGF100991999999999999999999MA1101325100965REMMET09301/09/10 11:55:01 METAR KPSM 091655Z 28010KT 10SM CLR M05/M16 A2992 RMK AO2A SLP136 T10501156
0227726055047432010010917557+43078-070823FM-15+0030KPSM V0203005N005752200059N0160935N5-00515-01565101365ADDAJ100109599999999GF100991999999999999999999KA1999M-00471KA2999N-00871MA1101325100965MD1840024+9999REMMET11701/09/10 12:55:01 METAR KPSM 091755Z 30011KT 10SM CLR M05/M16 A2992 RMK AO2A SLP136 4/004 T10511156 11047 21087 58002
0146726055047432010010918557+43078-070823FM-15+0030KPSM V0202805N006252200059N0160935N5-00495-01615101365ADDGF100991999999999999999999MA1101325100965REMMET09301/09/10 13:55:01 METAR KPSM 091855Z 28012KT 10SM CLR M05/M16 A2992 RMK AO2A SLP136 T10491161
0157726055047432010010919557+43078-070823FM-15+0030KPSM V0203005N007752200059N0160935N5-00535-01675101425ADDGF100991999999999999999999MA1101395101035OC101035REMMET09601/09/10 14:55:01 METAR KPSM 091955Z 30015G20KT 10SM CLR M05/M17 A2994 RMK AO2A SLP142 T10531167
0166726055047432010010920557+43078-070823FM-15+0030KPSM V0202905N006252200059N0160935N5-00605-01705101495ADDGF100991999999999999999999MA1101465101105MD1340134+9999REMMET09901/09/10 15:55:01 METAR KPSM 092055Z 29012KT 10SM CLR M06/M17 A2996 RMK AO2A SLP149 T10601170 53013
0146726055047432010010921557+43078-070823FM-15+0030KPSM V0203005N006252200059N0160935N5-00715-01755101575ADDGF100991999999999999999999MA1101525101165REMMET09301/09/10 16:55:01 METAR KPSM 092155Z 30012KT 10SM CLR M07/M18 A2998 RMK AO2A SLP157 T10711175
0146726055047432010010922557+43078-070823FM-15+0030KPSM V0203105N006752200059N0160935N5-00825-01795101635ADDGF100991999999999999999999MA1101595101235REMMET09301/09/10 17:55:01 METAR KPSM 092255Z 31013KT 10SM CLR M08/M18 A3000 RMK AO2A SLP163 T10821179
0227726055047432010010923557+43078-070823FM-15+0030KPSM V0203005N003652200059N0160935N5-00915-01845101725ADDAJ100089599999999GF100991999999999999999999KA1999M-00481KA2999N-00911MA1101695101335MD1240224+9999REMMET11701/09/10 18:55:02 METAR KPSM 092355Z 30007KT 10SM CLR M09/M18 A3003 RMK AO2A SLP172 4/003 T10911184 11048 21091 52022
0146726055047432010011000557+43078-070823FM-15+0030KPSM V0203205N004652200059N0160935N5-01005-01865101795ADDGF100991999999999999999999MA1101765101405REMMET09301/09/10 19:55:01 METAR KPSM 100055Z 32009KT 10SM CLR M10/M19 A3005 RMK AO2A SLP179 T11001186
0146726055047432010011001557+43078-070823FM-15+0030KPSM V0203005N005152200059N0160935N5-01075-01865101865ADDGF100991999999999999999999MA1101835101475REMMET09301/09/10 20:55:01 METAR KPSM 100155Z 30010KT 10SM CLR M11/M19 A3007 RMK AO2A SLP186 T11071186
0166726055047432010011002557+43078-070823FM-15+0030KPSM V0203005N004152200059N0160935N5-01175-01925101945ADDGF100991999999999999999999MA1101905101535MD1240234+9999REMMET09901/09/10 21:55:01 METAR KPSM 100255Z 30008KT 10SM CLR M12/M19 A3009 RMK AO2A SLP194 T11171192 52023
0146726055047432010011003557+43078-070823FM-15+0030KPSM V0202905N003152200059N0160935N5-01255-02065101985ADDGF100991999999999999999999MA1101935101575REMMET09301/09/10 22:55:01 METAR KPSM 100355Z 29006KT 10SM CLR M12/M21 A3010 RMK AO2A SLP198 T11251206
0156726055047432010011004557+43078-070823FM-15+0030KPSM V0202705N002152200059N0160935N5-01295-02075102015ADDGF100991999999999999999999MA1101965101605REMMET10301/09/10 23:55:01 METAR KPSM 100455Z 27004KT 10SM CLR M13/M21 A3011 RMK AO2A SLP201 T11291207 410471130
0232726055047432010011005557+43078-070823FM-15+0030KPSM V0202905N002652200059N0160935N5-01355-02105102015ADDAJ100089599999999GF100991999999999999999999KA1999M-00921KA2999N-01351MA1101965101605MD1140064+9999REMMET12201/10/10 00:55:01 METAR KPSM 100555Z 29005KT 10SM CLR M13/M21 A3011 RMK AO2A SLP201 4/003 T11351210 11092 21135 51006 0559
0146726055047432010011006557+43078-070823FM-15+0030KPSM V0202805N002652200059N0160935N5-01395-02155102005ADDGF100991999999999999999999MA1101965101605REMMET09301/10/10 01:55:01 METAR KPSM 100655Z 28005KT 10SM CLR M14/M22 A3011 RMK AO2A SLP200 T11391215
0146726055047432010011007557+43078-070823FM-15+0030KPSM V0202905N004152200059N0160935N5-01425-02145101985ADDGF100991999999999999999999MA1101935101575REMMET09301/10/10 02:55:01 METAR KPSM 100755Z 29008KT 10SM CLR M14/M21 A3010 RMK AO2A SLP198 T11421214
0166726055047432010011008557+43078-070823FM-15+0030KPSM V0202605N002152200059N0160935N5-01465-02135101985ADDGF100991999999999999999999MA1101935101575MD1640034+9999REMMET09901/10/10 03:55:01 METAR KPSM 100855Z 26004KT 10SM CLR M15/M21 A3010 RMK AO2A SLP198 T11461213 56003
0146726055047432010011009557+43078-070823FM-15+0030KPSM V0202705N002652200059N0160935N5-01435-02095102005ADDGF100991999999999999999999MA1101965101605REMMET09301/10/10 04:55:01 METAR KPSM 100955Z 27005KT 10SM CLR M14/M21 A3011 RMK AO2A SLP200 T11431209
0146726055047432010011010557+43078-070823FM-15+0030KPSM V0202705N002652200059N0160935N5-01655-02125102055ADDGF100991999999999999999999MA1102005101645REMMET09301/10/10 05:55:01 METAR KPSM 101055Z 27005KT 10SM CLR M16/M21 A3012 RMK AO2A SLP205 T11651212
