0249726055047432011010100004+43083-070817FM-15+0030KPSM V0202101N002110750019N0160931N1+00501-00101101781ADDAJ100039199999999GD12991+0450019GD23991+0750019GF107991999999999999999999KA1999M+01081KA2999N+00461MA1101761999999MD1310031+9999REMMET109METAR KPSM 312355Z 21004KT 10SM SCT150 BKN250 05/M01 A3005 RMK AO2A SLP178 4/001 T00541007 10108 20046 53003;
0168726055047432011010101004+43083-070817FM-15+0030KPSM V0202401N002610600019N0160931N1+00401+00001101751ADDGD12991+0450019GD23991+0600019GF107991999999999999999999MA1101731999999REMMET085METAR KPSM 010055Z 24005KT 10SM SCT150 BKN200 04/M00 A3004 RMK AO2A SLP175 T00451004;
0146726055047432011010102004+43083-070817FM-15+0030KPSM V0202501N002612200019N0160931N1+00401-00101101741ADDGD11991+0600019GF102991999999999999999999MA1101731999999REMMET078METAR KPSM 010155Z 25005KT 10SM FEW200 04/M01 A3004 RMK AO2A SLP174 T00381007;
0166726055047432011010103004+43083-070817FM-15+0030KPSM V0209999C000012200019N0160931N1+00301-00101101701ADDGD11991+0600019GF102991999999999999999999MA1101691999999MD1710081+9999REMMET084METAR KPSM 010255Z 00000KT 10SM FEW200 03/M01 A3003 RMK AO2A SLP170 T00261010 57008;
0128726055047432011010104004+43083-070817FM-15+0030KPSM V0203501N001512200019N0160931N1+00201-00101101691ADDGF100991999999999999999999MA1101661999999REMMET075METAR KPSM 010355Z 35003KT 10SM CLR 02/M01 A3002 RMK AO2A SLP169 T00181010;
0138726055047432011010105004+43083-070817FM-15+0030KPSM V0202701N002612200019N0160931N1+00201-00101101681ADDGF100991999999999999999999MA1101661999999REMMET085METAR KPSM 010455Z 27005KT 10SM CLR 02/M01 A3002 RMK AO2A SLP168 T00181010 401081039;
0298726055047432011010105557+43078-070823FM-15+0030KPSM V0202305N001552200059N0160935N5+00225-00095101615ADDAJ100039599999999GA1025+030485999GA2025+076205999GD11991+0304859GD21991+0762059GF102991999999999999999999KA1999M+00631KA2999N+00071MA1101595101235MD1840094+9999REMMET12601/01/11 00:55:01 METAR KPSM 010555Z 23003KT 10SM FEW100 FEW250 02/M01 A3000 RMK AO2A SLP161 4/001 T00221009 10063 20007 58009
0217726055047432011010106557+43078-070823FM-15+0030KPSM V0202505N002152200059N0160935N5+00045-00195101655ADDGA1045+028965999GA2045+076205999GD12991+0289659GD22991+0762059GF104991999999999999999999MA1101635101265REMMET10201/01/11 01:55:01 METAR KPSM 010655Z 25004KT 10SM SCT095 SCT250 00/M02 A3001 RMK AO2A SLP165 T00041019
0255726055047432011010107557+43078-070823FM-15+0030KPSM V0202205N00265028965MN0160935N5+00145-00115101645ADDGA1025+022865999GA2075+028965999GA3075+076205999GD11991+0228659GD23991+0289659GD33991+0762059GF107991999999999999999999MA1101635101265REMMET10901/01/11 02:55:01 METAR KPSM 010755Z 22005KT 10SM FEW075 BKN095 BKN250 01/M01 A3001 RMK AO2A SLP164 T00141011
0237726055047432011010108557+43078-070823FM-15+0030KPSM V0209999C00005036585MN0160935N5+00295-00095101685ADDGA1025+027435999GA2085+036585999GD11991+0274359GD24991+0365859GF108991999999999999999999MA1101665101305MD1240074+9999REMMET10801/01/11 03:55:01 METAR KPSM 010855Z 00000KT 10SM FEW090 OVC120 03/M01 A3002 RMK AO2A SLP168 T00291009 52007
0217726055047432011010109557+43078-070823FM-15+0030KPSM V0201805N00155033535MN0160935N5+00215-00065101675ADDGA1025+022865999GA2075+033535999GD11991+0228659GD23991+0335359GF107991999999999999999999MA1101665101305REMMET10201/01/11 04:55:01 METAR KPSM 010955Z 18003KT 10SM FEW075 BKN110 02/M01 A3002 RMK AO2A SLP167 T00211006
0179726055047432011010110557+43078-070823FM-15+0030KPSM V0202605N00155033535MN0160935N5+00265-00065101725ADDGA1075+033535999GD13991+0335359GF107991999999999999999999MA1101695101335REMMET09501/01/11 05:55:01 METAR KPSM 011055Z 26003KT 10SM BKN110 03/M01 A3003 RMK AO2A SLP172 T00261006
0297726055047432011010111557+43078-070823FM-15+0030KPSM V0202105N00155014945MN0160935N5+00365+00045101705ADDAJ100039599999999GA1075+014945999GA2075+033535999GD13991+0149459GD23991+0335359GF107991999999999999999999KA1999M+00361KA2999N-00061MA1101665101305MD1040014+9999REMMET12501/01/11 06:55:01 METAR KPSM 011155Z 21003KT 10SM BKN049 BKN110 04/00 A3002 RMK AO2A SLP170 4/001 T00360004 10036 21006 50001
0255726055047432011010112557+43078-070823FM-15+0030KPSM V0209999C000052200059N0160935N5+00235-00015101745ADDGA1025+015245999GA2025+033535999GA3045+076205999GD11991+0152459GD21991+0335359GD32991+0762059GF104991999999999999999999MA1101735101375REMMET10901/01/11 07:55:01 METAR KPSM 011255Z 00000KT 10SM FEW050 FEW110 SCT250 02/M00 A3004 RMK AO2A SLP174 T00231001
0216726055047432011010113557+43078-070823FM-15+0030KPSM V0209999C000052200059N0160935N5+00535+00175101795ADDGA1025+033535999GA2025+076205999GD11991+0335359GD21991+0762059GF102991999999999999999999MA1101765101405REMMET10101/01/11 08:55:01 METAR KPSM 011355Z 00000KT 10SM FEW110 FEW250 05/02 A3005 RMK AO2A SLP179 T00530017
0236726055047432011010114557+43078-070823FM-15+0030KPSM V0202405N00155076205MN0160935N5+00815+00355101825ADDGA1025+030485999GA2075+076205999GD11991+0304859GD23991+0762059GF107991999999999999999999MA1101795101435MD1140134+9999REMMET10701/01/11 09:55:01 METAR KPSM 011455Z 24003KT 10SM FEW100 BKN250 08/04 A3006 RMK AO2A SLP182 T00810035 51013
0216726055047432011010115557+43078-070823FM-15+0030KPSM V0202405N00415076205MN0160935N5+01035+00525101805ADDGA1025+030485999GA2075+076205999GD11991+0304859GD23991+0762059GF107991999999999999999999MA1101765101405REMMET10101/01/11 10:55:01 METAR KPSM 011555Z 24008KT 10SM FEW100 BKN250 10/05 A3005 RMK AO2A SLP180 T01030052
0216726055047432011010116557+43078-070823FM-15+0030KPSM V0202905N00215076205MN0160935N5+01265+00645101695ADDGA1025+030485999GA2075+076205999GD11991+0304859GD23991+0762059GF107991999999999999999999MA1101665101305REMMET10101/01/11 11:55:01 METAR KPSM 011655Z 29004KT 10SM FEW100 BKN250 13/06 A3002 RMK AO2A SLP169 T01260064
0274726055047432011010117557+43078-070823FM-15+0030KPSM V0209999C00005076205MN0160935N5+01365+00695101675ADDGA1025+025915999GA2075+076205999GD11991+0259159GD23991+0762059GF107991999999999999999999KA1999M+01451KA2999N+00231MA1101665101305MD1740154+9999REMMET11901/01/11 12:55:01 METAR KPSM 011755Z 00000KT 10SM FEW085 BKN250 14/07 A3002 RMK AO2A SLP167 T01360069 10145 20023 57015
0216726055047432011010118557+43078-070823FM-15+0030KPSM V0209999C00005076205MN0160935N5+01315+00735101685ADDGA1025+024385999GA2085+076205999GD11991+0243859GD24991+0762059GF108991999999999999999999MA1101665101305REMMET10101/01/11 13:55:01 METAR KPSM 011855Z 00000KT 10SM FEW080 OVC250 13/07 A3002 RMK AO2A SLP168 T01310073
0216726055047432011010119557+43078-070823FM-15+0030KPSM V0201505N00265076205MN0160935N5+01085+00555101695ADDGA1025+027435999GA2085+076205999GD11991+0274359GD24991+0762059GF108991999999999999999999MA1101665101305REMMET10101/01/11 14:55:01 METAR KPSM 011955Z 15005KT 10SM FEW090 OVC250 11/06 A3002 RMK AO2A SLP169 T01080055
0236726055047432011010120557+43078-070823FM-15+0030KPSM V0200905N00155076205MN0160935N5+00855+00495101675ADDGA1025+045725999GA2085+076205999GD11991+0457259GD24991+0762059GF108991999999999999999999MA1101665101305MD1040004+9999REMMET10701/01/11 15:55:01 METAR KPSM 012055Z 09003KT 10SM FEW150 OVC250 09/05 A3002 RMK AO2A SLP167 T00850049 50000
0215726055047432011010121557+43078-070823FM-15+0030KPSM V0201105N00265076205MN0112655N5+00785+00495101635ADDGA1025+039625999GA2085+076205999GD11991+0396259GD24991+0762059GF108991999999999999999999MA1101595101235REMMET10001/01/11 16:55:01 METAR KPSM 012155Z 11005KT 7SM FEW130 OVC250 08/05 A3000 RMK AO2A SLP163 T00780049
0215726055047432011010122557+43078-070823FM-15+0030KPSM V0209999C00005060965MN0112655N5+00635+00435101655ADDGA1025+039625999GA2085+060965999GD11991+0396259GD24991+0609659GF108991999999999999999999MA1101635101265REMMET10001/01/11 17:55:01 METAR KPSM 012255Z 00000KT 7SM FEW130 OVC200 06/04 A3001 RMK AO2A SLP165 T00630043
0159726055047432011010123344+43083-070817FM-16+0030KPSM V0200101N003610054019N0020111N1+99999+99999999999ADDGD12991+0009019GD24991+0054019GF108991999999999999999999MW1101MW2711REMMET079SPECI KPSM 012334Z 01007KT 1 1/4SM -SN BR SCT003 OVC018 M08/M10 A3033 RMK AO2A;
0273726055047432011010123557+43078-070823FM-15+0030KPSM V0201105N00215039625MN0112655N5+00515+00355101555ADDGA1075+039625999GA2085+060965999GD13991+0396259GD24991+0609659GF108991999999999999999999KA1999M+01361KA2999N+00511MA1101525101165MD1840124+9999REMMET11801/01/11 18:55:02 METAR KPSM 012355Z 11004KT 7SM BKN130 OVC200 05/03 A2998 RMK AO2A SLP155 T00510035 10136 20051 58012
0254726055047432011010200557+43078-070823FM-15+0030KPSM V0200705N00215048775MN0160935N5+00545+00385101525ADDGA1045+039625999GA2075+048775999GA3085+060965999GD12991+0396259GD23991+0487759GD34991+0609659GF108991999999999999999999MA1101495101135REMMET10801/01/11 19:55:01 METAR KPSM 020055Z 07004KT 10SM SCT130 BKN160 OVC200 05/04 A2997 RMK AO2A SLP152 T00540038
0215726055047432011010201557+43078-070823FM-15+0030KPSM V0209999C00005042675MN0112655N5+00565+00405101515ADDGA1075+042675999GA2085+057915999GD13991+0426759GD24991+0579159GF108991999999999999999999MA1101495101135REMMET10001/01/11 20:55:01 METAR KPSM 020155Z 00000KT 7SM BKN140 OVC190 06/04 A2997 RMK AO2A SLP151 T00560040
0236726055047432011010202557+43078-070823FM-15+0030KPSM V0200305N00155039625MN0160935N5+00505+00365101455ADDGA1075+039625999GA2085+054865999GD13991+0396259GD24991+0548659GF108991999999999999999999MA1101425101065MD1840104+9999REMMET10701/01/11 21:55:01 METAR KPSM 020255Z 03003KT 10SM BKN130 OVC180 05/04 A2995 RMK AO2A SLP145 T00500036 58010
0177726055047432011010203557+43078-070823FM-15+0030KPSM V0209999C00005042675MN0112655N5+00485+00325101435ADDGA1085+042675999GD14991+0426759GF108991999999999999999999MA1101425101065REMMET09301/01/11 22:55:01 METAR KPSM 020355Z 00000KT 7SM OVC140 05/03 A2995 RMK AO2A SLP143 T00480032
0225726055047432011010204557+43078-070823FM-15+0030KPSM V0202805N00155042675MN0112655N5+00345+00235101415ADDGA1045+033535999GA2085+042675999GD12991+0335359GD24991+0426759GF108991999999999999999999MA1101395101035REMMET11001/01/11 23:55:01 METAR KPSM 020455Z 28003KT 7SM SCT110 OVC140 03/02 A2994 RMK AO2A SLP141 T00340023 401451006
0228726055047432011010205437+43078-070823FM-15+0030KPSM V0203205N00155036585MN0040235N5+00305+00205999999ADDAU100001015AW1105GA1075+036585999GA2085+042675999GD13991+0365859GD24991+0426759GF108991999999999999999999MA1101355100995MW1101REMMET09001/02/11 00:43:01 METAR KPSM 020543Z 32003KT 2 1/2SM BR BKN120 OVC140 03/02 A2993 RMK AO2A
0265726055047432011010205557+43078-070823FM-15+0030KPSM V0209999C00005036585MN0024145N5+00335+00255101335ADDAU100001015AW1105GA1085+036585999GD14991+0365859GF108991999999999999999999KA1999M+00641KA2999N+00271MA1101325100965MD1840124+9999MW1101REMMET11801/02/11 00:55:01 METAR KPSM 020555Z 00000KT 1 1/2SM BR OVC120 03/03 A2992 RMK AO2A SLP133 T00330025 10064 20027 58012
0292726055047432011010206177+43078-070823FM-15+0030KPSM V0202905N00105039625MN0008055N5+00405+00305999999ADDAU100002015AW1305ED134U06719GA1025+000305999GA2045+033535999GA3085+039625999GD11991+0003059GD22991+0335359GD34991+0396259GF108991999999999999999999MA1101325100965MW1441REMMET11201/02/11 01:17:01 METAR KPSM 020617Z 29002KT 1/2SM R34/2200VP6000FT FG FEW001 SCT110 OVC130 04/03 A2992 RMK AO2A
0248726055047432011010206407+43078-070823FM-15+0030KPSM V0202605N00105000305MN0004025N5+00305+00205999999ADDAU100002015AW1305ED134U04889GA1075+000305999GA2085+033535999GD13991+0003059GD24991+0335359GF108991999999999999999999MA1101325100965MW1441REMMET09901/02/11 01:40:01 METAR KPSM 020640Z 26002KT 1/4SM R34/1600FT FG BKN001 OVC110 03/02 A2992 RMK AO2A
0298726055047432011010206557+43078-070823FM-15+0030KPSM V0203305N00155000305WN0002016N5+00255+00205101335ADDAU100002016AW1306ED134U04279GA1095+000305999GD15991+0003059GF109991999999000251999999MA1101325100965MW1451REMMET11301/02/11 01:55:01 METAR KPSM 020655Z 33003KT 1/8SM R34/1400V4000FT FG VV001 03/02 A2992 RMK AO2A SLP133 T00250020EQDR01 1/8SM7VIS018R02    FG7AWW018R03SEERMK7MVW018R04    FG7MWW018
0298726055047432011010207557+43078-070823FM-15+0030KPSM V0209999C00005000305WN0002016N5+00305+00275101315ADDAU100002016AW1306ED134U06719GA1095+000305999GD15991+0003059GF109991999999000251999999MA1101295100935MW1451REMMET11301/02/11 02:55:01 METAR KPSM 020755Z 00000KT 1/8SM R34/2200V2400FT FG VV001 03/03 A2991 RMK AO2A SLP131 T00300027EQDR01 1/8SM7VIS018R02    FG7AWW018R03SEERMK7MVW018R04    FG7MWW018
0246726055047432011010208557+43078-070823FM-15+0030KPSM V0203505N00215000305WN0008055N5+00275+00255101255ADDAU100002015AW1305ED134U06719GA1095+000305999GD15991+0003059GF109991999999000251999999MA1101225100865MD1840084+9999MW1451REMMET11401/02/11 03:55:01 METAR KPSM 020855Z 35004KT 1/2SM R34/2200FT FG VV001 03/02 A2989 RMK AO2A SLP125 T00270025 58008
0265726055047432011010209557+43078-070823FM-15+0030KPSM V0209999C00005000615MN0004025N5+00295+00275101265ADDAU100002015AW1305ED134U09149GA1075+000615999GA2085+015245999GD13991+0006159GD24991+0152459GF108991999999999999999999MA1101225100865MW1441REMMET11601/02/11 04:55:01 METAR KPSM 020955Z 00000KT 1/4SM R34/3000FT FG BKN002 OVC050 03/03 A2989 RMK AO2A SLP126 T00290027
0275726055047432011010210327+43078-070823FM-15+0030KPSM V0202905N00105016765MN0012075N5+00305+00305999999ADDAU110010015AU200001015AW1105AW2515ED134U13729GA1025+000305999GA2085+016765999GD11991+0003059GD24991+0167659GF108991999999999999999999MA1101255100895MW1101MW2511REMMET10301/02/11 05:32:01 METAR KPSM 021032Z 29002KT 3/4SM R34/4500FT -DZ BR FEW001 OVC055 03/03 A2990 RMK AO2A
0345726055047432011010210557+43078-070823FM-15+0030KPSM V0209999C00005016765MN0016095N5+00325+00315101265ADDAA101000021AU110010015AU200001015AW1105AW2515ED134U12199GA1045+003355999GA2075+016765999GA3085+027435999GD12991+0033559GD23991+0167659GD34991+0274359GF108991999999999999999999MA1101225100865MW1101MW2511REMMET13101/02/11 05:55:01 METAR KPSM 021055Z 00000KT 1SM R34/4000FT -DZ BR SCT011 BKN055 OVC090 03/03 A2989 RMK AO2A SLP126 P0000 T00320031
0270726055047432011010211137+43078-070823FM-15+0030KPSM V0203305N00155018295MN0032195N5+00405+00405999999ADDGA1045+004275999GA2045+014635999GA3075+018295999GD12991+0042759GD22991+0146359GD33991+0182959GD44991+0270019GF108991999999999999999999MA1101225100865MW1101MW2611REMMET09701/02/11 06:13:01 METAR KPSM 021113Z 33003KT 2SM -RA BR SCT014 SCT048 BKN060 04/04 A2989 RMK AO2A
0228726055047432011010211287+43078-070823FM-15+0030KPSM V0203005N00155028965MN0024145N5+00305+00305999999ADDAU100001015AW1105GA1025+004275999GA2075+028965999GD11991+0042759GD23991+0289659GF107991999999999999999999MA1101225100865MW1101REMMET09001/02/11 06:28:01 METAR KPSM 021128Z 30003KT 1 1/2SM BR FEW014 BKN095 03/03 A2989 RMK AO2A
0376726055047432011010211557+43078-070823FM-15+0030KPSM V0209999C00005012195MN0004025N5+00215+00205101235ADDAA101000021AA206000021AU100002015AW1305ED134U06109GA1075+012195999GA2075+027435999GD13991+0121959GD23991+0274359GF107991999999999999999999KA1999M+00371KA2999N+00211MA1101225100865MD1840024+9999MW1441REMMET14601/02/11 06:55:01 METAR KPSM 021155Z 00000KT 1/4SM R34/2000FT FG BKN040 BKN090 02/02 A2989 RMK AO2A SLP123 P0000 60000 T00210020 10037 20021 58002EQDQ01  00008PRCP06
0265726055047432011010212557+43078-070823FM-15+0030KPSM V0209999C00005013725MN0012075N5+00315+00295101235ADDAU100001015AW1105ED134U13729GA1075+013725999GA2085+027435999GD13991+0137259GD24991+0274359GF108991999999999999999999MA1101225100865MW1101REMMET11601/02/11 07:55:01 METAR KPSM 021255Z 00000KT 3/4SM R34/4500FT BR BKN045 OVC090 03/03 A2989 RMK AO2A SLP123 T00310029
0227726055047432011010213557+43078-070823FM-15+0030KPSM V0209999C00005010675MN0012075N5+00415+00405101295ADDAU100001015AW1105ED134U12199GA1085+010675999GD14991+0106759GF108991999999999999999999MA1101255100895MW1101REMMET10901/02/11 08:55:01 METAR KPSM 021355Z 00000KT 3/4SM R34/4000FT BR OVC035 04/04 A2990 RMK AO2A SLP129 T00410040
0303726055047432011010214557+43078-070823FM-15+0030KPSM V0209999C00005011285MN0024145N5+00495+00485101345ADDAU100001015AW1105GA1025+007925999GA2075+011285999GA3085+027435999GD11991+0079259GD23991+0112859GD34991+0274359GF108991999999999999999999MA1101325100965MD1340114+9999MW1101REMMET12001/02/11 09:55:01 METAR KPSM 021455Z 00000KT 1 1/2SM BR FEW026 BKN037 OVC090 05/05 A2992 RMK AO2A SLP134 T00490048 53011
0203726055047432011010215557+43078-070823FM-15+0030KPSM V0209999C00005012805MN0032195N5+00575+00555101245ADDAU100001015AW1105GA1085+012805999GD14991+0128059GF108991999999999999999999MA1101225100865MW1101REMMET09601/02/11 10:55:01 METAR KPSM 021555Z 00000KT 2SM BR OVC042 06/06 A2989 RMK AO2A SLP124 T00570055
0253726055047432011010216147+43078-070823FM-15+0030KPSM V0202405N00105013725MN0032195N5+00605+00605999999ADDAU116020015AU200001015AW1105AW2815GA1075+013725999GA2085+018295999GD13991+0137259GD24991+0182959GF108991999999999999999999MA1101195100835MW1101MW2801REMMET09201/02/11 11:14:01 METAR KPSM 021614Z 24002KT 2SM -SHRA BR BKN045 OVC060 06/06 A2988 RMK AO2A
0224726055047432011010216347+43078-070823FM-15+0030KPSM V0202705N00105015245MN0032195N5+00605+00605999999ADDAU100001015AW1105GA1075+015245999GA2085+025915999GD13991+0152459GD24991+0259159GF108991999999999999999999MA1101125100765MW1101REMMET08601/02/11 11:34:01 METAR KPSM 021634Z 27002KT 2SM BR BKN050 OVC085 06/06 A2986 RMK AO2A
0258726055047432011010216557+43078-070823FM-15+0030KPSM V0202405N00215025915MN0048285N5+00685+00675101125ADDAA101000021AU100001015AW1105GA1045+018295999GA2085+025915999GD12991+0182959GD24991+0259159GF108991999999999999999999MA1101085100725MW1101REMMET10901/02/11 11:55:01 METAR KPSM 021655Z 24004KT 3SM BR SCT060 OVC085 07/07 A2985 RMK AO2A SLP112 P0000 T00680067
0335726055047432011010217557+43078-070823FM-15+0030KPSM V0203005N00215021345MN0048285N5+00735+00725101085ADDAA106000021AU100001015AW1105GA1025+018295999GA2085+021345999GD11991+0182959GD24991+0213459GF108991999999999999999999KA1999M+00731KA2999N+00221MA1101055100695MD1640264+9999MW1101REMMET12701/02/11 12:55:01 METAR KPSM 021755Z 30004KT 3SM BR FEW060 OVC070 07/07 A2984 RMK AO2A SLP108 60000 T00730072 10073 20022 56026EQDQ01  00008PRCP06
0203726055047432011010218557+43078-070823FM-15+0030KPSM V0209999C00005024385MN0080475N5+00735+00725101085ADDAU100001015AW1105GA1085+024385999GD14991+0243859GF108991999999999999999999MA1101055100695MW1101REMMET09601/02/11 13:55:01 METAR KPSM 021855Z 00000KT 5SM BR OVC080 07/07 A2984 RMK AO2A SLP108 T00730072
0253726055047432011010219477+43078-070823FM-15+0030KPSM V0200805N00215024385MN0096565N5+00705+00705999999ADDAU116020015AU200001015AW1105AW2815GA1075+024385999GA2085+030485999GD13991+0243859GD24991+0304859GF108991999999999999999999MA1100985100625MW1101MW2801REMMET09201/02/11 14:47:01 METAR KPSM 021947Z 08004KT 6SM -SHRA BR BKN080 OVC100 07/07 A2982 RMK AO2A
0258726055047432011010219557+43078-070823FM-15+0030KPSM V0209999C00005024385MN0080475N5+00695+00675101035ADDAA101000021AU100001015AW1105GA1075+024385999GA2075+030485999GD13991+0243859GD23991+0304859GF107991999999999999999999MA1101025100665MW1101REMMET10901/02/11 14:55:01 METAR KPSM 021955Z 00000KT 5SM BR BKN080 BKN100 07/07 A2983 RMK AO2A SLP103 P0000 T00690067
0297726055047432011010220557+43078-070823FM-15+0030KPSM V0201105N00155036585MN0096565N5+00585+00565100995ADDAA103000021AU100001015AW1105GA1025+025915999GA2075+036585999GD11991+0259159GD23991+0365859GF107991999999999999999999MA1100985100625MD1840094+9999MW1101REMMET11501/02/11 15:55:01 METAR KPSM 022055Z 11003KT 6SM BR FEW085 BKN120 06/06 A2982 RMK AO2A SLP099 60000 T00580056 58009EQDQ01  00008PRCP03
0241726055047432011010221557+43078-070823FM-15+0030KPSM V0200905N00155030485MN0048285N5+00495+00475100945ADDAU100001015AW1105GA1075+030485999GA2075+039625999GD13991+0304859GD23991+0396259GF107991999999999999999999MA1100915100565MW1101REMMET10301/02/11 16:55:01 METAR KPSM 022155Z 09003KT 3SM BR BKN100 BKN130 05/05 A2980 RMK AO2A SLP094 T00490047
0241726055047432011010222557+43078-070823FM-15+0030KPSM V0209999C00005039625MN0064375N5+00415+00405100935ADDAU100001015AW1105GA1025+030485999GA2075+039625999GD11991+0304859GD23991+0396259GF107991999999999999999999MA1100915100565MW1101REMMET10301/02/11 17:55:01 METAR KPSM 022255Z 00000KT 4SM BR FEW100 BKN130 04/04 A2980 RMK AO2A SLP093 T00410040
0357726055047432011010223557+43078-070823FM-15+0030KPSM V0209999C00005030485MN0048285N5+00325+00315100885ADDAA106000021AU100001015AW1105ED134U07929GA1075+030485999GA2075+042675999GD13991+0304859GD23991+0426759GF107991999999999999999999KA1999M+00751KA2999N+00301MA1100855100495MD1740114+9999MW1101REMMET13801/02/11 18:55:02 METAR KPSM 022355Z 00000KT 3SM R34/2600FT BR BKN100 BKN140 03/03 A2978 RMK AO2A SLP088 60000 T00320031 10075 20030 57011EQDQ01  00008PRCP06
0250726055047432011010300417+43078-070823FM-15+0030KPSM V0202505N00315025915MN0040235N5+00305+00205999999ADDAU100001015AW1105ED134U06719GA1045+000305999GA2075+025915999GD12991+0003059GD23991+0259159GF107991999999999999999999MA1100915100565MW1101REMMET10101/02/11 19:41:01 METAR KPSM 030041Z 25006KT 2 1/2SM R34/2200FT BR SCT001 BKN085 03/02 A2980 RMK AO2A
0227726055047432011010300557+43078-070823FM-15+0030KPSM V0202605N00215000305MN0008055N5+00245+00235100915ADDAU100002015AW1305ED134U06109GA1085+000305999GD14991+0003059GF108991999999999999999999MA1100885100525MW1441REMMET10901/02/11 19:55:01 METAR KPSM 030055Z 26004KT 1/2SM R34/2000FT FG OVC001 02/02 A2979 RMK AO2A SLP091 T00240023
0288726055047432011010301167+43078-070823FM-15+0030KPSM V0202905N00215060965MN0024145N5+00205+00205999999ADDAU100001015AW1105ED134U09149GA1045+000305999GA2045+010675999GA3085+060965999GD12991+0003059GD22991+0106759GD34991+0609659GF108991999999999999999999MA1100885100525MW1101REMMET10801/02/11 20:16:01 METAR KPSM 030116Z 29004KT 1 1/2SM R34/3000FT BR SCT001 SCT035 OVC200 02/02 A2979 RMK AO2A
0285726055047432011010301347+43078-070823FM-15+0030KPSM V0202505N00215060965MN0064375N5+00405+00305999999ADDAU100001015AW1105ED134U18299GA1025+000305999GA2045+010675999GA3085+060965999GD11991+0003059GD22991+0106759GD34991+0609659GF108991999999999999999999MA1100785100425MW1101REMMET10501/02/11 20:34:01 METAR KPSM 030134Z 25004KT 4SM R34/P6000FT BR FEW001 SCT035 OVC200 04/03 A2976 RMK AO2A
0241726055047432011010301557+43078-070823FM-15+0030KPSM V0202505N00265011285MN0080475N5+00375+00355100865ADDAU100001015AW1105GA1075+011285999GA2085+060965999GD13991+0112859GD24991+0609659GF108991999999999999999999MA1100855100495MW1101REMMET10301/02/11 20:55:01 METAR KPSM 030155Z 25005KT 5SM BR BKN037 OVC200 04/04 A2978 RMK AO2A SLP086 T00370035
0274726055047432011010302557+43078-070823FM-15+0030KPSM V0202505N00315015245MN0160935N5+00405+00215100845ADDGA1075+015245999GA2075+025915999GA3085+060965999GD13991+0152459GD23991+0259159GD34991+0609659GF108991999999999999999999MA1100815100455MD1840054+9999REMMET11401/02/11 21:55:01 METAR KPSM 030255Z 25006KT 10SM BKN050 BKN085 OVC200 04/02 A2977 RMK AO2A SLP084 T00400021 58005
0217726055047432011010303557+43078-070823FM-15+0030KPSM V0203005N00515033535MN0160935N5+00415-00105100695ADDGA1025+014635999GA2085+033535999GD11991+0146359GD24991+0335359GF108991999999999999999999MA1100685100325REMMET10201/02/11 22:55:01 METAR KPSM 030355Z 30010KT 10SM FEW048 OVC110 04/M01 A2973 RMK AO2A SLP069 T00411010
0238726055047432011010304557+43078-070823FM-15+0030KPSM V0202905N00725039625MN0160935N5+00315-00245100765ADDGA1025+015245999GA2075+039625999GD11991+0152459GD23991+0396259GF107991999999999999999999MA1100755100395OC100985REMMET11501/02/11 23:55:01 METAR KPSM 030455Z 29014G19KT 10SM FEW050 BKN130 03/M02 A2975 RMK AO2A SLP076 T00311024 400750021
0266726055047432011010305557+43078-070823FM-15+0030KPSM V0202905N006752200059N0160935N5+00185-00465100835ADDGA1025+039625999GD11991+0396259GF102991999999999999999999KA1999M+00441KA2999N+00181MA1100815100455MD1540004+9999OC101345REMMET13401/03/11 00:55:01 METAR KPSM 030555Z 29013G26KT 10SM FEW130 02/M05 A2977 RMK AO2A PK WND 29026/0548 SLP083 T00181046 10044 20018 55000
0190726055047432011010306557+43078-070823FM-15+0030KPSM V0203005N007752200059N0160935N5+00065-00605100885ADDGA1025+039625999GD11991+0396259GF102991999999999999999999MA1100855100495OC101085REMMET09801/03/11 01:55:01 METAR KPSM 030655Z 30015G21KT 10SM FEW130 01/M06 A2978 RMK AO2A SLP088 T00061060
0209726055047432011010307557+43078-070823FM-15+0030KPSM V0203005N008252200059N0160935N5-00015-00825101005ADDGA1025+039625999GD11991+0396259GF102991999999999999999999MA1100985100625OC101295REMMET11701/03/11 02:55:01 METAR KPSM 030755Z 30016G25KT 10SM FEW130 M00/M08 A2982 RMK AO2A PK WND 30027/0718 SLP100 T10011082
0195726055047432011010308557+43078-070823FM-15+0030KPSM V0203105N009352200059N0160935N5-00065-00965101025ADDGF100991999999999999999999MA1100985100625MD1140194+9999OC101295REMMET12001/03/11 03:55:01 METAR KPSM 030855Z 31018G25KT 10SM CLR M01/M10 A2982 RMK AO2A PK WND 30028/0826 SLP102 T10061096 51019
0175726055047432011010309557+43078-070823FM-15+0030KPSM V0202905N010852200059N0160935N5-00095-00935101105ADDGF100991999999999999999999MA1101085100725OC101445REMMET11401/03/11 04:55:01 METAR KPSM 030955Z 29021G28KT 10SM CLR M01/M09 A2985 RMK AO2A PK WND 29028/0954 SLP110 T10091093
0214726055047432011010310557+43078-070823FM-15+0030KPSM V0203005N007752200059N0160935N5-00165-01025101265ADDGA1025+012505999GD11991+0125059GF102991999999999999999999MA1101225100865OC101495REMMET12201/03/11 05:55:01 METAR KPSM 031055Z 30015G29KT 10SM FEW041 M02/M10 A2989 RMK AO2A PK WND 30029/1045 SLP126 T10161102 1107
0267726055047432011010311557+43078-070823FM-15+0030KPSM V0203105N009352200059N0160935N5-00225-01225101345ADDGA1025+015245999GD11991+0152459GF102991999999999999999999KA1999M+00161KA2999N-00221MA1101325100965MD1240324+9999OC101135REMMET13501/03/11 06:55:01 METAR KPSM 031155Z 31018G22KT 10SM FEW050 M02/M12 A2992 RMK AO2A PK WND 31028/1110 SLP134 T10221122 10016 21022 52032
0191726055047432011010312557+43078-070823FM-15+0030KPSM V0203005N007752200059N0160935N5-00175-01235101425ADDGA1025+015245999GD11991+0152459GF102991999999999999999999MA1101395101035OC101135REMMET09901/03/11 07:55:01 METAR KPSM 031255Z 30015G22KT 10SM FEW050 M02/M12 A2994 RMK AO2A SLP142 T10171123
0157726055047432011010313557+43078-070823FM-15+0030KPSM V0202805N008252200059N0160935N5-00085-01225101495ADDGF100991999999999999999999MA1101465101105OC101135REMMET09601/03/11 08:55:01 METAR KPSM 031355Z 28016G22KT 10SM CLR M01/M12 A2996 RMK AO2A SLP149 T10081122
0211726055047432011010314557+43078-070823FM-15+0030KPSM V0203005N007752200059N0160935N5-00035-01225101585ADDGA1025+015245999GD11991+0152459GF102991999999999999999999MA1101565101205MD1340244+9999OC101295REMMET10501/03/11 09:55:01 METAR KPSM 031455Z 30015G25KT 10SM FEW050 M00/M12 A2999 RMK AO2A SLP158 T10031122 53024
0190726055047432011010315557+43078-070823FM-15+0030KPSM V0202905N007252200059N0160935N5+00025-01355101545ADDGA1025+016765999GD11991+0167659GF102991999999999999999999MA1101525101165OC101245REMMET09801/03/11 10:55:01 METAR KPSM 031555Z 29014G24KT 10SM FEW055 00/M13 A2998 RMK AO2A SLP154 T00021135
0208726055047432011010316557+43078-070823FM-15+0030KPSM V0203105N010352200059N0160935N5+00075-01385101425ADDGA1025+015245999GD11991+0152459GF102991999999999999999999MA1101395101035OC101445REMMET11601/03/11 11:55:01 METAR KPSM 031655Z 31020G28KT 10SM FEW050 01/M14 A2994 RMK AO2A PK WND 32028/1654 SLP142 T00071138
0266726055047432011010317557+43078-070823FM-15+0030KPSM V0202905N008252200059N0160935N5+00125-01365101375ADDGA1025+015245999GD11991+0152459GF102991999999999999999999KA1999M+00131KA2999N-00241MA1101355100995MD1740214+9999OC101295REMMET13401/03/11 12:55:01 METAR KPSM 031755Z 29016G25KT 10SM FEW050 01/M14 A2993 RMK AO2A PK WND 31031/1735 SLP137 T00121136 10013 21024 57021
0208726055047432011010318557+43078-070823FM-15+0030KPSM V0202905N008852200059N0160935N5+00095-01415101365ADDGA1025+015245999GD11991+0152459GF102991999999999999999999MA1101325100965OC101545REMMET11601/03/11 13:55:01 METAR KPSM 031855Z 29017G30KT 10SM FEW050 01/M14 A2992 RMK AO2A PK WND 29030/1848 SLP136 T00091141
0208726055047432011010319557+43078-070823FM-15+0030KPSM V0203005N007252200059N0160935N5+00075-01415101425ADDGA1025+015245999GD11991+0152459GF102991999999999999999999MA1101395101035OC101345REMMET11601/03/11 14:55:01 METAR KPSM 031955Z 30014G26KT 10SM FEW050 01/M14 A2994 RMK AO2A PK WND 30030/1930 SLP142 T00071141
0218726055047432011010320557+43078-070823FM-15+0030KPSM V0203005N006252200059N0160935N5-00025-01405101495ADDGA1025+015245999GD11991+0152459GF102991999999999999999999MA1101465101105MD1340124+9999REMMET12001/03/11 15:55:01 METAR KPSM 032055Z 30012KT 10SM FEW050 M00/M14 A2996 RMK AO2A PK WND 32026/2005 SLP149 T10021140 53012
0180726055047432011010321557+43078-070823FM-15+0030KPSM V0202905N004652200059N0160935N5-00145-01445101595ADDGA1025+015245999GD11991+0152459GF102991999999999999999999MA1101565101205REMMET09601/03/11 16:55:01 METAR KPSM 032155Z 29009KT 10SM FEW050 M01/M14 A2999 RMK AO2A SLP159 T10141144
0180726055047432011010322557+43078-070823FM-15+0030KPSM V0203005N005752200059N0160935N5-00185-01395101695ADDGA1025+018295999GD11991+0182959GF102991999999999999999999MA1101665101305REMMET09601/03/11 17:55:01 METAR KPSM 032255Z 30011KT 10SM FEW060 M02/M14 A3002 RMK AO2A SLP169 T10181139
0204726055047432011010323557+43078-070823FM-15+0030KPSM V0202905N003152200059N0160935N5-00245-01385101705ADDGF100991999999999999999999KA1999M+00131KA2999N-00241MA1101665101305MD1140214+9999REMMET11101/03/11 18:55:02 METAR KPSM 032355Z 29006KT 10SM CLR M02/M14 A3002 RMK AO2A SLP170 T10241138 10013 21024 51021
0146726055047432011010400557+43078-070823FM-15+0030KPSM V0202905N003152200059N0160935N5-00285-01345101705ADDGF100991999999999999999999MA1101665101305REMMET09301/03/11 19:55:01 METAR KPSM 040055Z 29006KT 10SM CLR M03/M13 A3002 RMK AO2A SLP170 T10281134
0146726055047432011010401557+43078-070823FM-15+0030KPSM V0202805N004152200059N0160935N5-00325-01275101685ADDGF100991999999999999999999MA1101665101305REMMET09301/03/11 20:55:01 METAR KPSM 040155Z 28008KT 10SM CLR M03/M13 A3002 RMK AO2A SLP168 T10321127
0166726055047432011010402557+43078-070823FM-15+0030KPSM V0202705N003152200059N0160935N5-00345-01235101685ADDGF100991999999999999999999MA1101665101305MD1740034+9999REMMET09901/03/11 21:55:01 METAR KPSM 040255Z 27006KT 10SM CLR M03/M12 A3002 RMK AO2A SLP168 T10341123 57003
0146726055047432011010403557+43078-070823FM-15+0030KPSM V0202705N003152200059N0160935N5-00395-01185101665ADDGF100991999999999999999999MA1101635101265REMMET09301/03/11 22:55:01 METAR KPSM 040355Z 27006KT 10SM CLR M04/M12 A3001 RMK AO2A SLP166 T10391118
0156726055047432011010404557+43078-070823FM-15+0030KPSM V0202605N003652200059N0160935N5-00405-01245101645ADDGF100991999999999999999999MA1101595101235REMMET10301/03/11 23:55:01 METAR KPSM 040455Z 26007KT 10SM CLR M04/M12 A3000 RMK AO2A SLP164 T10401124 400291040
0204726055047432011010405557+43078-070823FM-15+0030KPSM V0202505N003152200059N0160935N5-00495-01275101645ADDGF100991999999999999999999KA1999M-00261KA2999N-00501MA1101595101235MD1640044+9999REMMET11101/04/11 00:55:01 METAR KPSM 040555Z 25006KT 10SM CLR M05/M13 A3000 RMK AO2A SLP164 T10491127 11026 21050 56004
0146726055047432011010406557+43078-070823FM-15+0030KPSM V0202505N003652200059N0160935N5-00525-01225101675ADDGF100991999999999999999999MA1101635101265REMMET09301/04/11 01:55:01 METAR KPSM 040655Z 25007KT 10SM CLR M05/M12 A3001 RMK AO2A SLP167 T10521122
0146726055047432011010407557+43078-070823FM-15+0030KPSM V0202505N004152200059N0160935N5-00535-01145101625ADDGF100991999999999999999999MA1101595101235REMMET09301/04/11 02:55:01 METAR KPSM 040755Z 25008KT 10SM CLR M05/M11 A3000 RMK AO2A SLP162 T10531114
0166726055047432011010408557+43078-070823FM-15+0030KPSM V0202605N003652200059N0160935N5-00535-01095101615ADDGF100991999999999999999999MA1101595101235MD1840034+9999REMMET09901/04/11 03:55:01 METAR KPSM 040855Z 26007KT 10SM CLR M05/M11 A3000 RMK AO2A SLP161 T10531109 58003
0146726055047432011010409557+43078-070823FM-15+0030KPSM V0202605N004152200059N0160935N5-00555-01095101595ADDGF100991999999999999999999MA1101565101205REMMET09301/04/11 04:55:01 METAR KPSM 040955Z 26008KT 10SM CLR M06/M11 A2999 RMK AO2A SLP159 T10551109
0180726055047432011010410557+43078-070823FM-15+0030KPSM V0202505N00365030485MN0160935N5-00515-01075101605ADDGA1075+030485999GD13991+0304859GF107991999999999999999999MA1101565101205REMMET09601/04/11 05:55:01 METAR KPSM 041055Z 25007KT 10SM BKN100 M05/M11 A2999 RMK AO2A SLP160 T10511107
0238726055047432011010411557+43078-070823FM-15+0030KPSM V0202305N003152200059N0160935N5-00605-01105101565ADDGA1025+030485999GD11991+0304859GF102991999999999999999999KA1999M-00481KA2999N-00641MA1101525101165MD1840054+9999REMMET11401/04/11 06:55:01 METAR KPSM 041155Z 23006KT 10SM FEW100 M06/M11 A2998 RMK AO2A SLP156 T10601110 11048 21064 58005
0180726055047432011010412557+43078-070823FM-15+0030KPSM V0202205N002152200059N0160935N5-00565-01065101555ADDGA1025+030485999GD11991+0304859GF102991999999999999999999MA1101525101165REMMET09601/04/11 07:55:01 METAR KPSM 041255Z 22004KT 10SM FEW100 M06/M11 A2998 RMK AO2A SLP155 T10561106
0180726055047432011010413557+43078-070823FM-15+0030KPSM V0202605N002652200059N0160935N5-00345-00975101495ADDGA1025+076205999GD11991+0762059GF102991999999999999999999MA1101465101105REMMET09601/04/11 08:55:01 METAR KPSM 041355Z 26005KT 10SM FEW250 M03/M10 A2996 RMK AO2A SLP149 T10341097
0200726055047432011010414557+43078-070823FM-15+0030KPSM V0202705N002652200059N0160935N5-00225-00985101445ADDGA1025+076205999GD11991+0762059GF102991999999999999999999MA1101395101035MD1840124+9999REMMET10201/04/11 09:55:01 METAR KPSM 041455Z 27005KT 10SM FEW250 M02/M10 A2994 RMK AO2A SLP144 T10221098 58012
0218726055047432011010415557+43078-070823FM-15+0030KPSM V0202505N00265076205MN0160935N5-00065-00955101305ADDGA1045+030485999GA2075+076205999GD12991+0304859GD23991+0762059GF107991999999999999999999MA1101255100895REMMET10301/04/11 10:55:01 METAR KPSM 041555Z 25005KT 10SM SCT100 BKN250 M01/M09 A2990 RMK AO2A SLP130 T10061095
0218726055047432011010416557+43078-070823FM-15+0030KPSM V0202605N00265015245MN0160935N5-00025-00945101195ADDGA1075+015245999GA2085+030485999GD13991+0152459GD24991+0304859GF108991999999999999999999MA1101155100795REMMET10301/04/11 11:55:01 METAR KPSM 041655Z 26005KT 10SM BKN050 OVC100 M00/M09 A2987 RMK AO2A SLP119 T10021094
0275726055047432011010417557+43078-070823FM-15+0030KPSM V0202705N00265076205MN0160935N5+00095-00895101065ADDGA1045+018295999GA2075+076205999GD12991+0182959GD23991+0762059GF107991999999999999999999KA1999M+00091KA2999N-00601MA1101025100665MD1640374+9999REMMET12001/04/11 12:55:01 METAR KPSM 041755Z 27005KT 10SM SCT060 BKN250 01/M09 A2983 RMK AO2A SLP106 T00091089 10009 21060 56037
0217726055047432011010418557+43078-070823FM-15+0030KPSM V0202805N00155076205MN0160935N5+00145-00865100935ADDGA1045+015245999GA2075+076205999GD12991+0152459GD23991+0762059GF107991999999999999999999MA1100915100565REMMET10201/04/11 13:55:01 METAR KPSM 041855Z 28003KT 10SM SCT050 BKN250 01/M09 A2980 RMK AO2A SLP093 T00141086
0217726055047432011010419557+43078-070823FM-15+0030KPSM V0209999C00005018295MN0160935N5+00115-00885100865ADDGA1075+018295999GA2085+076205999GD13991+0182959GD24991+0762059GF108991999999999999999999MA1100855100495REMMET10201/04/11 14:55:01 METAR KPSM 041955Z 00000KT 10SM BKN060 OVC250 01/M09 A2978 RMK AO2A SLP086 T00111088
0237726055047432011010420557+43078-070823FM-15+0030KPSM V0209999C00005076205MN0160935N5+00095-00895100825ADDGA1045+018295999GA2075+076205999GD12991+0182959GD23991+0762059GF107991999999999999999999MA1100785100425MD1640254+9999REMMET10801/04/11 15:55:01 METAR KPSM 042055Z 00000KT 10SM SCT060 BKN250 01/M09 A2976 RMK AO2A SLP082 T00091089 56025
0256726055047432011010421557+43078-070823FM-15+0030KPSM V0209999C000052200059N0160935N5-00125-00865100785ADDGA1025+018295999GA2045+030485999GA3045+076205999GD11991+0182959GD22991+0304859GD32991+0762059GF104991999999999999999999MA1100755100395REMMET11001/04/11 16:55:01 METAR KPSM 042155Z 00000KT 10SM FEW060 SCT100 SCT250 M01/M09 A2975 RMK AO2A SLP078 T10121086
0218726055047432011010422557+43078-070823FM-15+0030KPSM V0209999C00005033535MN0160935N5-00175-00865100785ADDGA1025+013725999GA2075+033535999GD11991+0137259GD23991+0335359GF107991999999999999999999MA1100755100395REMMET10301/04/11 17:55:01 METAR KPSM 042255Z 00000KT 10SM FEW045 BKN110 M02/M09 A2975 RMK AO2A SLP078 T10171086
0276726055047432011010423557+43078-070823FM-15+0030KPSM V0203405N002152200059N0160935N5-00435-00865100725ADDGA1025+033535999GA2025+060965999GD11991+0335359GD21991+0609659GF102991999999999999999999KA1999M+00191KA2999N-00431MA1100685100325MD1840104+9999REMMET12101/04/11 18:55:02 METAR KPSM 042355Z 34004KT 10SM FEW110 FEW200 M04/M09 A2973 RMK AO2A SLP072 T10431086 10019 21043 58010
0180726055047432011010500557+43078-070823FM-15+0030KPSM V0209999C000052200059N0160935N5-00365-00785100685ADDGA1025+033535999GD11991+0335359GF102991999999999999999999MA1100645100295REMMET09601/04/11 19:55:01 METAR KPSM 050055Z 00000KT 10SM FEW110 M04/M08 A2972 RMK AO2A SLP068 T10361078
0180726055047432011010501557+43078-070823FM-15+0030KPSM V0202505N001552200059N0160935N5-00535-00835100675ADDGA1025+015245999GD11991+0152459GF102991999999999999999999MA1100645100295REMMET09601/04/11 20:55:01 METAR KPSM 050155Z 25003KT 10SM FEW050 M05/M08 A2972 RMK AO2A SLP067 T10531083
0166726055047432011010502557+43078-070823FM-15+0030KPSM V0202305N001552200059N0160935N5-00465-00715100645ADDGF100991999999999999999999MA1100615100255MD1640074+9999REMMET09901/04/11 21:55:01 METAR KPSM 050255Z 23003KT 10SM CLR M05/M07 A2971 RMK AO2A SLP064 T10461071 56007
0146726055047432011010503557+43078-070823FM-15+0030KPSM V0202705N001552200059N0160935N5-00555-00775100595ADDGF100991999999999999999999MA1100585100225REMMET09301/04/11 22:55:01 METAR KPSM 050355Z 27003KT 10SM CLR M06/M08 A2970 RMK AO2A SLP059 T10551077
0156726055047432011010504557+43078-070823FM-15+0030KPSM V0202505N002652200059N0160935N5-00495-00795100535ADDGF100991999999999999999999MA1100515100155REMMET10301/04/11 23:55:01 METAR KPSM 050455Z 25005KT 10SM CLR M05/M08 A2968 RMK AO2A SLP053 T10491079 400191064
0276726055047432011010505557+43078-070823FM-15+0030KPSM V0202605N00155060965MN0160935N5-00635-00845100505ADDGA1045+036585999GA2075+060965999GD12991+0365859GD23991+0609659GF107991999999999999999999KA1999M-00291KA2999N-00631MA1100475100125MD1640144+9999REMMET12101/05/11 00:55:01 METAR KPSM 050555Z 26003KT 10SM SCT120 BKN200 M06/M08 A2967 RMK AO2A SLP050 T10631084 11029 21063 56014
0218726055047432011010506557+43078-070823FM-15+0030KPSM V0202505N00215060965MN0160935N5-00525-00765100535ADDGA1025+036585999GA2075+060965999GD11991+0365859GD23991+0609659GF107991999999999999999999MA1100515100155REMMET10301/05/11 01:55:01 METAR KPSM 050655Z 25004KT 10SM FEW120 BKN200 M05/M08 A2968 RMK AO2A SLP053 T10521076
0218726055047432011010507557+43078-070823FM-15+0030KPSM V0202605N00265060965MN0160935N5-00525-00745100545ADDGA1025+036585999GA2075+060965999GD11991+0365859GD23991+0609659GF107991999999999999999999MA1100515100155REMMET10301/05/11 02:55:01 METAR KPSM 050755Z 26005KT 10SM FEW120 BKN200 M05/M07 A2968 RMK AO2A SLP054 T10521074
0238726055047432011010508557+43078-070823FM-15+0030KPSM V0202605N00365060965MN0160935N5-00435-00695100535ADDGA1025+036585999GA2075+060965999GD11991+0365859GD23991+0609659GF107991999999999999999999MA1100515100155MD1140034+9999REMMET10901/05/11 03:55:01 METAR KPSM 050855Z 26007KT 10SM FEW120 BKN200 M04/M07 A2968 RMK AO2A SLP053 T10431069 51003
0180726055047432011010509557+43078-070823FM-15+0030KPSM V0202605N003152200059N0160935N5-00485-00725100555ADDGA1025+060965999GD11991+0609659GF102991999999999999999999MA1100515100155REMMET09601/05/11 04:55:01 METAR KPSM 050955Z 26006KT 10SM FEW200 M05/M07 A2968 RMK AO2A SLP055 T10481072
0146726055047432011010510557+43078-070823FM-15+0030KPSM V0202605N002152200059N0160935N5-00425-00695100595ADDGF100991999999999999999999MA1100545100185REMMET09301/05/11 05:55:01 METAR KPSM 051055Z 26004KT 10SM CLR M04/M07 A2969 RMK AO2A SLP059 T10421069
0204726055047432011010511557+43078-070823FM-15+0030KPSM V0202405N002152200059N0160935N5-00535-00765100645ADDGF100991999999999999999999KA1999M-00401KA2999N-00601MA1100615100255MD1340104+9999REMMET11101/05/11 06:55:01 METAR KPSM 051155Z 24004KT 10SM CLR M05/M08 A2971 RMK AO2A SLP064 T10531076 11040 21060 53010
0146726055047432011010512557+43078-070823FM-15+0030KPSM V0202405N002152200059N0160935N5-00515-00745100665ADDGF100991999999999999999999MA1100645100295REMMET09301/05/11 07:55:01 METAR KPSM 051255Z 24004KT 10SM CLR M05/M07 A2972 RMK AO2A SLP066 T10511074
0146726055047432011010513557+43078-070823FM-15+0030KPSM V0202305N002152200059N0160935N5-00275-00585100705ADDGF100991999999999999999999MA1100685100325REMMET09301/05/11 08:55:01 METAR KPSM 051355Z 23004KT 10SM CLR M03/M06 A2973 RMK AO2A SLP070 T10271058
0200726055047432011010514557+43078-070823FM-15+0030KPSM V0202505N003152200059N0160935N5-00065-00555100675ADDGA1025+012195999GD11991+0121959GF102991999999999999999999MA1100645100295MD1040044+9999REMMET10201/05/11 09:55:01 METAR KPSM 051455Z 25006KT 10SM FEW040 M01/M05 A2972 RMK AO2A SLP067 T10061055 50004
0190726055047432011010515557+43078-070823FM-15+0030KPSM V0202805N005752200059N0160935N5+00205-00715100625ADDGA1025+012195999GD11991+0121959GF102991999999999999999999MA1100585100225OC100885REMMET09801/05/11 10:55:01 METAR KPSM 051555Z 28011G17KT 10SM FEW040 02/M07 A2970 RMK AO2A SLP062 T00201071
0179726055047432011010516557+43078-070823FM-15+0030KPSM V0202605N005152200059N0160935N5+00285-00765100555ADDGA1045+013725999GD12991+0137259GF104991999999999999999999MA1100515100155REMMET09501/05/11 11:55:01 METAR KPSM 051655Z 26010KT 10SM SCT045 03/M08 A2968 RMK AO2A SLP055 T00281076
0237726055047432011010517557+43078-070823FM-15+0030KPSM V0202705N00365016765MN0160935N5+00155-00835100465ADDGA1075+016765999GD13991+0167659GF107991999999999999999999KA1999M+00291KA2999N-00561MA1100445100085MD1840214+9999REMMET11301/05/11 12:55:01 METAR KPSM 051755Z 27007KT 10SM BKN055 01/M08 A2966 RMK AO2A SLP046 T00151083 10029 21056 58021
0196726055047432011010518557+43078-070823FM-15+0030KPSM V0203205N00465015245MN0160935N5+00125-00695100455ADDGA1075+015245999GD13991+0152459GF107991999999999999999999MA1100445100085MV1025MW1161REMMET10001/05/11 13:55:01 METAR KPSM 051855Z 32009KT 10SM VCSH BKN050 01/M07 A2966 RMK AO2A SLP045 T00121069
0207726055047432011010519557+43078-070823FM-15+0030KPSM V0202805N00575015245MN0160935N5+00195-00825100485ADDGA1075+015245999GD13991+0152459GF107991999999999999999999MA1100445100085MV1025MW1161OC100985REMMET10301/05/11 14:55:01 METAR KPSM 051955Z 28011G19KT 10SM VCSH BKN050 02/M08 A2966 RMK AO2A SLP048 T00191082
0199726055047432011010520557+43078-070823FM-15+0030KPSM V0203005N005152200059N0160935N5+00055-00865100525ADDGA1045+021345999GD12991+0213459GF104991999999999999999999MA1100515100155MD1340064+9999REMMET10101/05/11 15:55:01 METAR KPSM 052055Z 30010KT 10SM SCT070 00/M09 A2968 RMK AO2A SLP052 T00051086 53006
0180726055047432011010521557+43078-070823FM-15+0030KPSM V0203005N003152200059N0160935N5-00085-00915100545ADDGA1025+021345999GD11991+0213459GF102991999999999999999999MA1100515100155REMMET09601/05/11 16:55:01 METAR KPSM 052155Z 30006KT 10SM FEW070 M01/M09 A2968 RMK AO2A SLP054 T10081091
0180726055047432011010522557+43078-070823FM-15+0030KPSM V0202805N002652200059N0160935N5-00195-00945100585ADDGA1025+018295999GD11991+0182959GF102991999999999999999999MA1100545100185REMMET09601/05/11 17:55:01 METAR KPSM 052255Z 28005KT 10SM FEW060 M02/M09 A2969 RMK AO2A SLP058 T10191094
0238726055047432011010523557+43078-070823FM-15+0030KPSM V0202705N004152200059N0160935N5-00155-01355100625ADDGA1025+060965999GD11991+0609659GF102991999999999999999999KA1999M+00361KA2999N-00211MA1100615100255MD1340104+9999REMMET11401/05/11 18:55:02 METAR KPSM 052355Z 27008KT 10SM FEW200 M01/M13 A2971 RMK AO2A SLP062 T10151135 10036 21021 53010
0180726055047432011010600557+43078-070823FM-15+0030KPSM V0202905N002652200059N0160935N5-00205-01445100635ADDGA1025+060965999GD11991+0609659GF102991999999999999999999MA1100615100255REMMET09601/05/11 19:55:01 METAR KPSM 060055Z 29005KT 10SM FEW200 M02/M14 A2971 RMK AO2A SLP063 T10201144
0180726055047432011010601557+43078-070823FM-15+0030KPSM V0209999V002152200059N0160935N5-00255-01445100665ADDGA1025+060965999GD11991+0609659GF102991999999999999999999MA1100645100295REMMET09601/05/11 20:55:01 METAR KPSM 060155Z VRB04KT 10SM FEW200 M03/M14 A2972 RMK AO2A SLP066 T10251144
0200726055047432011010602557+43078-070823FM-15+0030KPSM V0202905N002652200059N0160935N5-00405-01355100675ADDGA1025+060965999GD11991+0609659GF102991999999999999999999MA1100645100295MD1340044+9999REMMET10201/05/11 21:55:01 METAR KPSM 060255Z 29005KT 10SM FEW200 M04/M14 A2972 RMK AO2A SLP067 T10401135 53004
0146726055047432011010603557+43078-070823FM-15+0030KPSM V0203005N003152200059N0160935N5-00525-01255100715ADDGF100991999999999999999999MA1100685100325REMMET09301/05/11 22:55:01 METAR KPSM 060355Z 30006KT 10SM CLR M05/M12 A2973 RMK AO2A SLP071 T10521125
0156726055047432011010604557+43078-070823FM-15+0030KPSM V0203005N003652200059N0160935N5-00555-01275100645ADDGF100991999999999999999999MA1100615100255REMMET10301/05/11 23:55:01 METAR KPSM 060455Z 30007KT 10SM CLR M05/M13 A2971 RMK AO2A SLP064 T10551127 400361063
0238726055047432011010605557+43078-070823FM-15+0030KPSM V0202705N003652200059N0160935N5-00565-01285100635ADDGA1025+060965999GD11991+0609659GF102991999999999999999999KA1999M-00141KA2999N-00561MA1100615100255MD1840034+9999REMMET11401/06/11 00:55:01 METAR KPSM 060555Z 27007KT 10SM FEW200 M06/M13 A2971 RMK AO2A SLP063 T10561128 11014 21056 58003
0180726055047432011010606557+43078-070823FM-15+0030KPSM V0202805N003152200059N0160935N5-00555-01265100645ADDGA1025+045725999GD11991+0457259GF102991999999999999999999MA1100615100255REMMET09601/06/11 01:55:01 METAR KPSM 060655Z 28006KT 10SM FEW150 M05/M13 A2971 RMK AO2A SLP064 T10551126
0180726055047432011010607557+43078-070823FM-15+0030KPSM V0202705N002652200059N0160935N5-00635-01295100635ADDGA1025+045725999GD11991+0457259GF102991999999999999999999MA1100615100255REMMET09601/06/11 02:55:01 METAR KPSM 060755Z 27005KT 10SM FEW150 M06/M13 A2971 RMK AO2A SLP063 T10631129
0200726055047432011010608557+43078-070823FM-15+0030KPSM V0202505N003152200059N0160935N5-00685-01285100645ADDGA1025+045725999GD11991+0457259GF102991999999999999999999MA1100615100255MD1340014+9999REMMET10201/06/11 03:55:01 METAR KPSM 060855Z 25006KT 10SM FEW150 M07/M13 A2971 RMK AO2A SLP064 T10681128 53001
0185726055047432011010609557+43078-070823FM-15+0030KPSM V0202505N002152200059N0160935N5-00705-01285100645ADDGA1025+045725999GD11991+0457259GF102991999999999999999999MA1100615100255REMMET10101/06/11 04:55:01 METAR KPSM 060955Z 25004KT 10SM FEW150 M07/M13 A2971 RMK AO2A SLP064 T10701128 0957
0185726055047432011010610557+43078-070823FM-15+0030KPSM V0202605N002152200059N0160935N5-00705-01305100655ADDGA1025+045725999GD11991+0457259GF102991999999999999999999MA1100615100255REMMET10101/06/11 05:55:01 METAR KPSM 061055Z 26004KT 10SM FEW150 M07/M13 A2971 RMK AO2A SLP065 T10701130 1057
0314726055047432011010611557+43078-070823FM-15+0030KPSM V0202605N00265076205MN0160935N5-00735-01305100635ADDGA1025+012195999GA2045+045725999GA3075+076205999GD11991+0121959GD22991+0457259GD33991+0762059GF107991999999999999999999KA1999M-00521KA2999N-00771MA1100615100255MD1840024+9999REMMET12801/06/11 06:55:01 METAR KPSM 061155Z 26005KT 10SM FEW040 SCT150 BKN250 M07/M13 A2971 RMK AO2A SLP063 T10731130 11052 21077 58002
0218726055047432011010612557+43078-070823FM-15+0030KPSM V0202105N00215076205MN0160935N5-00715-01185100645ADDGA1025+010675999GA2075+076205999GD11991+0106759GD23991+0762059GF107991999999999999999999MA1100615100255REMMET10301/06/11 07:55:01 METAR KPSM 061255Z 21004KT 10SM FEW035 BKN250 M07/M12 A2971 RMK AO2A SLP064 T10711118
0218726055047432011010613557+43078-070823FM-15+0030KPSM V0202405N00215076205MN0160935N5-00625-01265100645ADDGA1025+010675999GA2075+076205999GD11991+0106759GD23991+0762059GF107991999999999999999999MA1100615100255REMMET10301/06/11 08:55:01 METAR KPSM 061355Z 24004KT 10SM FEW035 BKN250 M06/M13 A2971 RMK AO2A SLP064 T10621126
0238726055047432011010614557+43078-070823FM-15+0030KPSM V0202705N00365076205MN0160935N5-00475-01245100635ADDGA1025+010675999GA2075+076205999GD11991+0106759GD23991+0762059GF107991999999999999999999MA1100615100255MD1040004+9999REMMET10901/06/11 09:55:01 METAR KPSM 061455Z 27007KT 10SM FEW035 BKN250 M05/M12 A2971 RMK AO2A SLP063 T10471124 50000
0218726055047432011010615557+43078-070823FM-15+0030KPSM V0202505N00265076205MN0160935N5-00255-01215100545ADDGA1025+010675999GA2075+076205999GD11991+0106759GD23991+0762059GF107991999999999999999999MA1100515100155REMMET10301/06/11 10:55:01 METAR KPSM 061555Z 25005KT 10SM FEW035 BKN250 M02/M12 A2968 RMK AO2A SLP054 T10251121
0180726055047432011010616557+43078-070823FM-15+0030KPSM V0202405N00265076205MN0160935N5-00155-01295100435ADDGA1075+076205999GD13991+0762059GF107991999999999999999999MA1100415100055REMMET09601/06/11 11:55:01 METAR KPSM 061655Z 24005KT 10SM BKN250 M01/M13 A2965 RMK AO2A SLP043 T10151129
0238726055047432011010617557+43078-070823FM-15+0030KPSM V0202405N00215076205MN0160935N5-00175-01415100355ADDGA1075+076205999GD13991+0762059GF107991999999999999999999KA1999M-00121KA2999N-00751MA1100345099985MD1640274+9999REMMET11401/06/11 12:55:01 METAR KPSM 061755Z 24004KT 10SM BKN250 M02/M14 A2963 RMK AO2A SLP035 T10171141 11012 21075 56027
0180726055047432011010618557+43078-070823FM-15+0030KPSM V0203005N00215076205MN0160935N5-00075-01475100355ADDGA1075+076205999GD13991+0762059GF107991999999999999999999MA1100305099955REMMET09601/06/11 13:55:01 METAR KPSM 061855Z 30004KT 10SM BKN250 M01/M15 A2962 RMK AO2A SLP035 T10071147
0218726055047432011010619557+43078-070823FM-15+0030KPSM V0203305N00415076205MN0160935N5-00115-01475100395ADDGA1025+015245999GA2075+076205999GD11991+0152459GD23991+0762059GF107991999999999999999999MA1100375100025REMMET10301/06/11 14:55:01 METAR KPSM 061955Z 33008KT 10SM FEW050 BKN250 M01/M15 A2964 RMK AO2A SLP039 T10111147
0238726055047432011010620557+43078-070823FM-15+0030KPSM V0203505N00365076205MN0160935N5-00255-01505100395ADDGA1025+015245999GA2075+076205999GD11991+0152459GD23991+0762059GF107991999999999999999999MA1100375100025MD1240034+9999REMMET10901/06/11 15:55:01 METAR KPSM 062055Z 35007KT 10SM FEW050 BKN250 M03/M15 A2964 RMK AO2A SLP039 T10251150 52003
0218726055047432011010621557+43078-070823FM-15+0030KPSM V0203505N00265076205MN0160935N5-00365-01505100415ADDGA1025+015245999GA2075+076205999GD11991+0152459GD23991+0762059GF107991999999999999999999MA1100375100025REMMET10301/06/11 16:55:01 METAR KPSM 062155Z 35005KT 10SM FEW050 BKN250 M04/M15 A2964 RMK AO2A SLP041 T10361150
0180726055047432011010622557+43078-070823FM-15+0030KPSM V0209999C00005076205MN0160935N5-00425-01475100405ADDGA1075+076205999GD13991+0762059GF107991999999999999999999MA1100375100025REMMET09601/06/11 17:55:01 METAR KPSM 062255Z 00000KT 10SM BKN250 M04/M15 A2964 RMK AO2A SLP040 T10421147
0238726055047432011010623557+43078-070823FM-15+0030KPSM V0203305N00155076205MN0160935N5-00475-01435100415ADDGA1075+076205999GD13991+0762059GF107991999999999999999999KA1999M-00041KA2999N-00471MA1100375100025MD1140034+9999REMMET11401/06/11 18:55:02 METAR KPSM 062355Z 33003KT 10SM BKN250 M05/M14 A2964 RMK AO2A SLP041 T10471143 11004 21047 51003
0180726055047432011010700557+43078-070823FM-15+0030KPSM V0203305N001552200059N0160935N5-00695-01405100415ADDGA1025+076205999GD11991+0762059GF102991999999999999999999MA1100375100025REMMET09601/06/11 19:55:01 METAR KPSM 070055Z 33003KT 10SM FEW250 M07/M14 A2964 RMK AO2A SLP041 T10691140
0180726055047432011010701557+43078-070823FM-15+0030KPSM V0209999C000052200059N0160935N5-00765-01345100395ADDGA1025+076205999GD11991+0762059GF102991999999999999999999MA1100375100025REMMET09601/06/11 20:55:01 METAR KPSM 070155Z 00000KT 10SM FEW250 M08/M13 A2964 RMK AO2A SLP039 T10761134
0200726055047432011010702557+43078-070823FM-15+0030KPSM V0203205N002152200059N0160935N5-00725-01265100375ADDGA1025+076205999GD11991+0762059GF102991999999999999999999MA1100345099985MD1740044+9999REMMET10201/06/11 21:55:01 METAR KPSM 070255Z 32004KT 10SM FEW250 M07/M13 A2963 RMK AO2A SLP037 T10721126 57004
0180726055047432011010703557+43078-070823FM-15+0030KPSM V0203305N002152200059N0160935N5-00965-01345100335ADDGA1025+076205999GD11991+0762059GF102991999999999999999999MA1100305099955REMMET09601/06/11 22:55:01 METAR KPSM 070355Z 33004KT 10SM FEW250 M10/M13 A2962 RMK AO2A SLP033 T10961134
0190726055047432011010704557+43078-070823FM-15+0030KPSM V0209999C000052200059N0160935N5-00905-01365100305ADDGA1025+045725999GD11991+0457259GF102991999999999999999999MA1100275099915REMMET10601/06/11 23:55:01 METAR KPSM 070455Z 00000KT 10SM FEW150 M09/M14 A2961 RMK AO2A SLP030 T10901136 410041098
0238726055047432011010705557+43078-070823FM-15+0030KPSM V0203505N002152200059N0160935N5-01015-01365100305ADDGA1045+076205999GD12991+0762059GF104991999999999999999999KA1999M-00431KA2999N-01041MA1100275099915MD1640084+9999REMMET11401/07/11 00:55:01 METAR KPSM 070555Z 35004KT 10SM SCT250 M10/M14 A2961 RMK AO2A SLP030 T11011136 11043 21104 56008
0218726055047432011010706557+43078-070823FM-15+0030KPSM V0200105N00215076205MN0160935N5-01005-01375100295ADDGA1025+030485999GA2075+076205999GD11991+0304859GD23991+0762059GF107991999999999999999999MA1100275099915REMMET10301/07/11 01:55:01 METAR KPSM 070655Z 01004KT 10SM FEW100 BKN250 M10/M14 A2961 RMK AO2A SLP029 T11001137
0218726055047432011010707557+43078-070823FM-15+0030KPSM V0203505N00215076205MN0160935N5-00855-01315100305ADDGA1025+030485999GA2075+076205999GD11991+0304859GD23991+0762059GF107991999999999999999999MA1100275099915REMMET10301/07/11 02:55:01 METAR KPSM 070755Z 35004KT 10SM FEW100 BKN250 M09/M13 A2961 RMK AO2A SLP030 T10851131
0238726055047432011010708557+43078-070823FM-15+0030KPSM V0200205N00265028965MN0160935N5-00785-01285100215ADDGA1075+028965999GA2075+076205999GD13991+0289659GD23991+0762059GF107991999999999999999999MA1100175099815MD1840094+9999REMMET10901/07/11 03:55:01 METAR KPSM 070855Z 02005KT 10SM BKN095 BKN250 M08/M13 A2958 RMK AO2A SLP021 T10781128 58009
0218726055047432011010709557+43078-070823FM-15+0030KPSM V0203605N00365030485MN0160935N5-00755-01365100205ADDGA1075+030485999GA2075+076205999GD13991+0304859GD23991+0762059GF107991999999999999999999MA1100175099815REMMET10301/07/11 04:55:01 METAR KPSM 070955Z 36007KT 10SM BKN100 BKN250 M07/M14 A2958 RMK AO2A SLP020 T10751136
0218726055047432011010710557+43078-070823FM-15+0030KPSM V0203605N00265030485MN0160935N5-00715-01375100235ADDGA1025+013725999GA2085+030485999GD11991+0137259GD24991+0304859GF108991999999999999999999MA1100205099855REMMET10301/07/11 05:55:01 METAR KPSM 071055Z 36005KT 10SM FEW045 OVC100 M07/M14 A2959 RMK AO2A SLP023 T10711137
0314726055047432011010711557+43078-070823FM-15+0030KPSM V0200205N00365030485MN0160935N5-00735-01405100235ADDGA1025+015245999GA2075+030485999GA3085+076205999GD11991+0152459GD23991+0304859GD34991+0762059GF108991999999999999999999KA1999M-00701KA2999N-01041MA1100205099855MD1340034+9999REMMET12801/07/11 06:55:01 METAR KPSM 071155Z 02007KT 10SM FEW050 BKN100 OVC250 M07/M14 A2959 RMK AO2A SLP023 T10731140 11070 21104 53003
0256726055047432011010712557+43078-070823FM-15+0030KPSM V0203605N00315007625MN0160935N5-00715-01325100265ADDGA1045+004575999GA2075+007625999GA3085+030485999GD12991+0045759GD23991+0076259GD34991+0304859GF108991999999999999999999MA1100245099885REMMET11001/07/11 07:55:01 METAR KPSM 071255Z 36006KT 10SM SCT015 BKN025 OVC100 M07/M13 A2960 RMK AO2A SLP026 T10711132
0262726055047432011010713017+43078-070823FM-15+0030KPSM V0200205N00415007625MN0160935N5-00705-01305999999ADDAU116030015AW1855GA1045+004275999GA2075+007625999GA3085+030485999GD12991+0042759GD23991+0076259GD34991+0304859GF108991999999999999999999MA1100205099855REMMET09901/07/11 08:01:01 METAR KPSM 071301Z 02008KT 10SM -SHSN SCT014 BKN025 OVC100 M07/M13 A2959 RMK AO2A
0254726055047432011010713237+43078-070823FM-15+0030KPSM V0200105N00515030485MN0160935N5-00705-01305999999ADDGA1025+004575999GA2045+011285999GA3075+030485999GD11991+0045759GD22991+0112859GD33991+0304859GD44991+0750019GF108991999999999999999999MA1100205099855REMMET09301/07/11 08:23:01 METAR KPSM 071323Z 01010KT 10SM FEW015 SCT037 BKN100 M07/M13 A2959 RMK AO2A
0273726055047432011010713557+43078-070823FM-15+0030KPSM V0203605N00365076205MN0160935N5-00655-01325100215ADDAA101000021GA1025+009145999GA2045+024385999GA3085+076205999GD11991+0091459GD22991+0243859GD34991+0762059GF108991999999999999999999MA1100175099815REMMET11601/07/11 08:55:01 METAR KPSM 071355Z 36007KT 10SM FEW030 SCT080 OVC250 M06/M13 A2958 RMK AO2A SLP021 P0000 T10651132
0312726055047432011010714557+43078-070823FM-15+0030KPSM V0200305N00465076205MN0160935N5-00395-01245100155ADDAA103000021GA1025+008535999GA2045+024385999GA3075+076205999GD11991+0085359GD22991+0243859GD33991+0762059GF107991999999999999999999MA1100105099755MD1840094+9999REMMET12201/07/11 09:55:01 METAR KPSM 071455Z 03009KT 10SM FEW028 SCT080 BKN250 M04/M12 A2956 RMK AO2A SLP015 60000 T10391124 58009EQDQ01  00008PRCP03
0256726055047432011010715557+43078-070823FM-15+0030KPSM V0200205N00575076205MN0160935N5-00185-01005100065ADDGA1025+009145999GA2025+027435999GA3075+076205999GD11991+0091459GD21991+0274359GD33991+0762059GF107991999999999999999999MA1100035099685REMMET11001/07/11 10:55:01 METAR KPSM 071555Z 02011KT 10SM FEW030 FEW090 BKN250 M02/M10 A2954 RMK AO2A SLP006 T10181100
0256726055047432011010716557+43078-070823FM-15+0030KPSM V0200505N00515076205MN0160935N5-00165-01015100005ADDGA1025+007925999GA2045+015245999GA3075+076205999GD11991+0079259GD22991+0152459GD33991+0762059GF107991999999999999999999MA1099975099615REMMET11001/07/11 11:55:01 METAR KPSM 071655Z 05010KT 10SM FEW026 SCT050 BKN250 M02/M10 A2952 RMK AO2A SLP000 T10161101
0239726055047432011010717417+43078-070823FM-15+0030KPSM V0200305N00575008235MN0160935N5-00205-01005999999ADDGA1075+008235999GA2075+015245999GA3085+076205999GD13991+0082359GD23991+0152459GD34991+0762059GF108991999999999999999999MA1099935099585REMMET09301/07/11 12:41:01 METAR KPSM 071741Z 03011KT 10SM BKN027 BKN050 OVC250 M02/M10 A2951 RMK AO2A
0350726055047432011010717557+43078-070823FM-15+0030KPSM V0200305N00415006715MN0160935N5-00205-01025099965ADDAA106000021GA1075+006715999GA2075+010675999GA3085+076205999GD13991+0067159GD23991+0106759GD34991+0762059GF108991999999999999999999KA1999M-00141KA2999N-00741MA1099935099585MD1640184+9999REMMET13401/07/11 12:55:01 METAR KPSM 071755Z 03008KT 10SM BKN022 BKN035 OVC250 M02/M10 A2951 RMK AO2A SLP996 60000 T10201102 11014 21074 56018EQDQ01  00008PRCP06
0256726055047432011010718557+43078-070823FM-15+0030KPSM V0200605N00575009755MN0160935N5-00185-00915099915ADDGA1075+009755999GA2075+012195999GA3085+076205999GD13991+0097559GD23991+0121959GD34991+0762059GF108991999999999999999999MA1099905099545REMMET11001/07/11 13:55:01 METAR KPSM 071855Z 06011KT 10SM BKN032 BKN040 OVC250 M02/M09 A2950 RMK AO2A SLP991 T10181091
0256726055047432011010719557+43078-070823FM-15+0030KPSM V0200405N006252200059N0160935N5-00165-00845099895ADDGA1025+009755999GA2025+015245999GA3045+076205999GD11991+0097559GD21991+0152459GD32991+0762059GF104991999999999999999999MA1099865099515REMMET11001/07/11 14:55:01 METAR KPSM 071955Z 04012KT 10SM FEW032 FEW050 SCT250 M02/M08 A2949 RMK AO2A SLP989 T10161084
0276726055047432011010720557+43078-070823FM-15+0030KPSM V0200305N00575015245MN0160935N5-00215-00875099875ADDGA1045+007015999GA2075+015245999GA3075+076205999GD12991+0070159GD23991+0152459GD33991+0762059GF107991999999999999999999MA1099835099475MD1640104+9999REMMET11601/07/11 15:55:01 METAR KPSM 072055Z 03011KT 10SM SCT023 BKN050 BKN250 M02/M09 A2948 RMK AO2A SLP987 T10211087 56010
0218726055047432011010721557+43078-070823FM-15+0030KPSM V0200205N00365011585MN0160935N5-00285-00985099875ADDGA1075+011585999GA2075+076205999GD13991+0115859GD23991+0762059GF107991999999999999999999MA1099835099475REMMET10301/07/11 16:55:01 METAR KPSM 072155Z 02007KT 10SM BKN038 BKN250 M03/M10 A2948 RMK AO2A SLP987 T10281098
0218726055047432011010722557+43078-070823FM-15+0030KPSM V0200205N00415010675MN0160935N5-00315-01065099895ADDGA1075+010675999GA2075+076205999GD13991+0106759GD23991+0762059GF107991999999999999999999MA1099865099515REMMET10301/07/11 17:55:01 METAR KPSM 072255Z 02008KT 10SM BKN035 BKN250 M03/M11 A2949 RMK AO2A SLP989 T10311106
0276726055047432011010723557+43078-070823FM-15+0030KPSM V0200105N00365010065MN0160935N5-00345-01055099865ADDGA1075+010065999GA2085+076205999GD13991+0100659GD24991+0762059GF108991999999999999999999KA1999M-00151KA2999N-00341MA1099835099475MD1840014+9999REMMET12101/07/11 18:55:02 METAR KPSM 072355Z 01007KT 10SM BKN033 OVC250 M03/M10 A2948 RMK AO2A SLP986 T10341105 11015 21034 58001
0256726055047432011010800557+43078-070823FM-15+0030KPSM V0200105N00465011585MN0160935N5-00365-01195099855ADDGA1075+011585999GA2075+042675999GA3075+076205999GD13991+0115859GD23991+0426759GD33991+0762059GF107991999999999999999999MA1099835099475REMMET11001/07/11 19:55:01 METAR KPSM 080055Z 01009KT 10SM BKN038 BKN140 BKN250 M04/M12 A2948 RMK AO2A SLP985 T10361119
0218726055047432011010801557+43078-070823FM-15+0030KPSM V0200205N00415011585MN0160935N5-00375-01295099865ADDGA1045+008845999GA2085+011585999GD12991+0088459GD24991+0115859GF108991999999999999999999MA1099835099475REMMET10301/07/11 20:55:01 METAR KPSM 080155Z 02008KT 10SM SCT029 OVC038 M04/M13 A2948 RMK AO2A SLP986 T10371129
0238726055047432011010802557+43078-070823FM-15+0030KPSM V0200205N00215009755MN0160935N5-00385-01235099875ADDGA1075+009755999GA2085+012195999GD13991+0097559GD24991+0121959GF108991999999999999999999MA1099835099475MD1240014+9999REMMET10901/07/11 21:55:01 METAR KPSM 080255Z 02004KT 10SM BKN032 OVC040 M04/M12 A2948 RMK AO2A SLP987 T10381123 52001
0218726055047432011010803557+43078-070823FM-15+0030KPSM V0200205N00415010675MN0160935N5-00425-01195099855ADDGA1075+010675999GA2075+013415999GD13991+0106759GD23991+0134159GF107991999999999999999999MA1099835099475REMMET10301/07/11 22:55:01 METAR KPSM 080355Z 02008KT 10SM BKN035 BKN044 M04/M12 A2948 RMK AO2A SLP985 T10421119
0228726055047432011010804557+43078-070823FM-15+0030KPSM V0200205N004152200059N0160935N5-00495-01125099835ADDGA1045+011585999GA2045+027435999GD12991+0115859GD22991+0274359GF104991999999999999999999MA1099805099445REMMET11301/07/11 23:55:01 METAR KPSM 080455Z 02008KT 10SM SCT038 SCT090 M05/M11 A2947 RMK AO2A SLP983 T10491112 410141104
0276726055047432011010805557+43078-070823FM-15+0030KPSM V0200305N004152200059N0160935N5-00555-01025099815ADDGA1025+011585999GA2045+028965999GD11991+0115859GD22991+0289659GF104991999999999999999999KA1999M-00331KA2999N-00551MA1099765099415MD1840064+9999REMMET12101/08/11 00:55:01 METAR KPSM 080555Z 03008KT 10SM FEW038 SCT095 M06/M10 A2946 RMK AO2A SLP981 T10551102 11033 21055 58006
0290726055047432011010806557+43078-070823FM-15+0030KPSM V0200205N003150750059N0160935N5-00605-00965099825ADDGA1025+011585999GA2025+028965999GA3045+042675999GD11991+0115859GD21991+0289659GD32991+0426759GD43991+0750019GF107991999999999999999999MA1099805099445REMMET11001/08/11 01:55:01 METAR KPSM 080655Z 02006KT 10SM FEW038 FEW095 SCT140 M06/M10 A2947 RMK AO2A SLP982 T10601096EQDP01 220003SCOCIG
0256726055047432011010807557+43078-070823FM-15+0030KPSM V0200405N00315042675MN0160935N5-00625-00945099805ADDGA1025+011585999GA2045+033535999GA3085+042675999GD11991+0115859GD22991+0335359GD34991+0426759GF108991999999999999999999MA1099765099415REMMET11001/08/11 02:55:01 METAR KPSM 080755Z 04006KT 10SM FEW038 SCT110 OVC140 M06/M09 A2946 RMK AO2A SLP980 T10621094
0238726055047432011010808557+43078-070823FM-15+0030KPSM V0203605N00215028965MN0160935N5-00635-00935099845ADDGA1045+004275999GA2085+028965999GD12991+0042759GD24991+0289659GF108991999999999999999999MA1099805099445MD1340044+9999REMMET10901/08/11 03:55:01 METAR KPSM 080855Z 36004KT 10SM SCT014 OVC095 M06/M09 A2947 RMK AO2A SLP984 T10631093 53004
0201726055047432011010809027+43078-070823FM-15+0030KPSM V0200205N00265003665MN0160935N5-00605-00905999999ADDGA1075+003665999GA2085+028965999GD13991+0036659GD24991+0289659GF108991999999999999999999MA1099805099445REMMET08601/08/11 04:02:01 METAR KPSM 080902Z 02005KT 10SM BKN012 OVC095 M06/M09 A2947 RMK AO2A
0201726055047432011010809427+43078-070823FM-15+0030KPSM V0200305N00365025915MN0160935N5-00605-00905999999ADDGA1045+003665999GA2085+025915999GD12991+0036659GD24991+0259159GF108991999999999999999999MA1099765099415REMMET08601/08/11 04:42:01 METAR KPSM 080942Z 03007KT 10SM SCT012 OVC085 M06/M09 A2946 RMK AO2A
0256726055047432011010809557+43078-070823FM-15+0030KPSM V0200305N00315024385MN0160935N5-00595-00915099775ADDGA1025+003665999GA2075+024385999GA3085+028965999GD11991+0036659GD23991+0243859GD34991+0289659GF108991999999999999999999MA1099735099375REMMET11001/08/11 04:55:01 METAR KPSM 080955Z 03006KT 10SM FEW012 BKN080 OVC095 M06/M09 A2945 RMK AO2A SLP977 T10591091
0256726055047432011010810557+43078-070823FM-15+0030KPSM V0200105N00315021345MN0160935N5-00585-00915099795ADDGA1045+003665999GA2075+021345999GA3085+027435999GD12991+0036659GD23991+0213459GD34991+0274359GF108991999999999999999999MA1099765099415REMMET11001/08/11 05:55:01 METAR KPSM 081055Z 01006KT 10SM SCT012 BKN070 OVC090 M06/M09 A2946 RMK AO2A SLP979 T10581091
0201726055047432011010811077+43078-070823FM-15+0030KPSM V0200205N00315003665MN0160935N5-00505-00905999999ADDGA1075+003665999GA2085+021345999GD13991+0036659GD24991+0213459GF108991999999999999999999MA1099805099445REMMET08601/08/11 06:07:01 METAR KPSM 081107Z 02006KT 10SM BKN012 OVC070 M05/M09 A2947 RMK AO2A
0314726055047432011010811557+43078-070823FM-15+0030KPSM V0200205N00315003665MN0160935N5-00485-00775099835ADDAA101000021AA206000021AU116030015AW1855GA1085+003665999GD14991+0036659GF108991999999999999999999KA1999M-00481KA2999N-00631MA1099805099445MD1540024+9999REMMET13201/08/11 06:55:01 METAR KPSM 081155Z 02006KT 10SM -SHSN OVC012 M05/M08 A2947 RMK AO2A SLP983 P0000 60000 T10481077 11048 21063 55002EQDQ01  00008PRCP06
0291726055047432011010812417+43078-070823FM-15+0030KPSM V0200105N00465018295MN0048285N5-00505-00705999999ADDAU110030015AU200001015AW1105AW2715GA1045+003355999GA2075+018295999GA3075+076205999GD12991+0033559GD23991+0182959GD33991+0762059GF107991999999999999999999MA1099805099445MW1101MW2711REMMET09901/08/11 07:41:01 METAR KPSM 081241Z 01009KT 3SM -SN BR SCT011 BKN060 BKN250 M05/M07 A2947 RMK AO2A
0325726055047432011010812557+43078-070823FM-15+0030KPSM V0200105N00365019815MN0080475N5-00475-00755099855ADDAA101000021AU110030015AU200001015AW1105AW2715GA1045+003965999GA2075+019815999GA3075+076205999GD12991+0039659GD23991+0198159GD33991+0762059GF107991999999999999999999MA1099835099475MW1101MW2711REMMET12201/08/11 07:55:01 METAR KPSM 081255Z 01007KT 5SM -SN BR SCT013 BKN065 BKN250 M05/M07 A2948 RMK AO2A SLP985 P0000 T10471075
0239726055047432011010813137+43078-070823FM-15+0030KPSM V0200105N00465021345MN0160935N5-00405-00705999999ADDGA1025+003965999GA2075+021345999GA3075+076205999GD11991+0039659GD23991+0213459GD33991+0762059GF107991999999999999999999MA1099835099475REMMET09301/08/11 08:13:01 METAR KPSM 081313Z 01009KT 10SM FEW013 BKN070 BKN250 M04/M07 A2948 RMK AO2A
0273726055047432011010813557+43078-070823FM-15+0030KPSM V0200205N00465018295MN0160935N5-00355-00685099875ADDAA101000021GA1045+003665999GA2075+018295999GA3075+076205999GD12991+0036659GD23991+0182959GD33991+0762059GF107991999999999999999999MA1099835099475REMMET11601/08/11 08:55:01 METAR KPSM 081355Z 02009KT 10SM SCT012 BKN060 BKN250 M03/M07 A2948 RMK AO2A SLP987 P0000 T10351068
0312726055047432011010814557+43078-070823FM-15+0030KPSM V0200305N00415015245MN0160935N5-00255-00645099855ADDAA103000021GA1045+003355999GA2075+015245999GA3075+076205999GD12991+0033559GD23991+0152459GD33991+0762059GF107991999999999999999999MA1099835099475MD1040034+9999REMMET12201/08/11 09:55:01 METAR KPSM 081455Z 03008KT 10SM SCT011 BKN050 BKN250 M02/M06 A2948 RMK AO2A SLP985 60000 T10251064 50003EQDQ01  00008PRCP03
0335726055047432011010815557+43078-070823FM-15+0030KPSM V0200205N00365016765MN0160935N5-00135-00585099785ADDAU140030017GA1045+003965999GA2075+016765999GA3075+076205999GD12991+0039659GD23991+0167659GD33991+0762059GF107991999999999999999999MA1099765099415MV1027MW1731REMMET11501/08/11 10:55:01 METAR KPSM 081555Z 02007KT 10SM VCSN SCT013 BKN055 BKN250 M01/M06 A2946 RMK AO2A SLP978 T10131058EQDR01  VCSN7AWW013R02SEERMK7MVW013R03  VCSN7MWW013
0218726055047432011010816557+43078-070823FM-15+0030KPSM V0200105N00315016765MN0160935N5-00095-00575099725ADDGA1025+006715999GA2085+016765999GD11991+0067159GD24991+0167659GF108991999999999999999999MA1099705099345REMMET10301/08/11 11:55:01 METAR KPSM 081655Z 01006KT 10SM FEW022 OVC055 M01/M06 A2944 RMK AO2A SLP972 T10091057
0312726055047432011010817557+43078-070823FM-15+0030KPSM V0200405N00265015245MN0160935N5-00075-00575099725ADDAA106000021GA1045+007925999GA2085+015245999GD12991+0079259GD24991+0152459GF108991999999999999999999KA1999M-00021KA2999N-00471MA1099705099345MD1640134+9999REMMET12701/08/11 12:55:01 METAR KPSM 081755Z 04005KT 10SM SCT026 OVC050 M01/M06 A2944 RMK AO2A SLP972 60000 T10071057 11002 21047 56013EQDQ01  00008PRCP06
0297726055047432011010818557+43078-070823FM-15+0030KPSM V0200505N00365014025MN0160935N5-00055-00535099705ADDAU140030017GA1025+008235999GA2085+014025999GD11991+0082359GD24991+0140259GF108991999999999999999999MA1099665099315MV1027MW1731REMMET10801/08/11 13:55:01 METAR KPSM 081855Z 05007KT 10SM VCSN FEW027 OVC046 M01/M05 A2943 RMK AO2A SLP970 T10051053EQDR01  VCSN7AWW013R02SEERMK7MVW013R03  VCSN7MWW013
0218726055047432011010819557+43078-070823FM-15+0030KPSM V0200505N00415010065MN0160935N5-00045-00525099665ADDGA1025+007625999GA2075+010065999GD11991+0076259GD23991+0100659GF107991999999999999999999MA1099635099275REMMET10301/08/11 14:55:01 METAR KPSM 081955Z 05008KT 10SM FEW025 BKN033 M00/M05 A2942 RMK AO2A SLP966 T10041052
0200726055047432011010820557+43078-070823FM-15+0030KPSM V0200205N00465009755MN0160935N5-00035-00555099675ADDGA1075+009755999GD13991+0097559GF107991999999999999999999MA1099635099275MD1540054+9999REMMET10201/08/11 15:55:01 METAR KPSM 082055Z 02009KT 10SM BKN032 M00/M05 A2942 RMK AO2A SLP967 T10031055 55005
0223726055047432011010821367+43078-070823FM-15+0030KPSM V0200105N00415013725MN0112655N5+00005-00505999999ADDAU116030015AW1855GA1045+004885999GA2085+013725999GD12991+0048859GD24991+0137259GF108991999999999999999999MA1099595099245REMMET09101/08/11 16:36:01 METAR KPSM 082136Z 01008KT 7SM -SHSN SCT016 OVC045 M00/M05 A2941 RMK AO2A
0257726055047432011010821557+43078-070823FM-15+0030KPSM V0200205N00415013725MN0096565N5-00045-00525099585ADDAA101000021AU116030015AW1855GA1045+004885999GA2085+013725999GD12991+0048859GD24991+0137259GF108991999999999999999999MA1099565099205REMMET11401/08/11 16:55:01 METAR KPSM 082155Z 02008KT 6SM -SHSN SCT016 OVC045 M00/M05 A2940 RMK AO2A SLP958 P0000 T10041052
0219726055047432011010822557+43078-070823FM-15+0030KPSM V0200205N00365014025MN0112655N5-00045-00525099635ADDAA101000021AU116030015AW1855GA1085+014025999GD14991+0140259GF108991999999999999999999MA1099595099245REMMET10701/08/11 17:55:01 METAR KPSM 082255Z 02007KT 7SM -SHSN OVC046 M00/M05 A2941 RMK AO2A SLP963 P0000 T10041052
0352726055047432011010823557+43078-070823FM-15+0030KPSM V0200105N00625016765MN0160935N5-00055-00495099535ADDAA101000021AA206000021AU116030015AW1855GA1025+005795999GA2075+016765999GD11991+0057959GD23991+0167659GF107991999999999999999999KA1999M-00031KA2999N-00071MA1099495099145MD1840144+9999REMMET13901/08/11 18:55:02 METAR KPSM 082355Z 01012KT 10SM -SHSN FEW019 BKN055 M01/M05 A2938 RMK AO2A SLP953 P0000 60000 T10051049 11003 21007 58014EQDQ01  00008PRCP06
0201726055047432011010900407+43078-070823FM-15+0030KPSM V0200205N00415018295MN0160935N5+00005-00505999999ADDGA1025+006105999GA2075+018295999GD11991+0061059GD23991+0182959GF107991999999999999999999MA1099535099175REMMET08601/08/11 19:40:01 METAR KPSM 090040Z 02008KT 10SM FEW020 BKN060 M00/M05 A2939 RMK AO2A
0235726055047432011010900557+43078-070823FM-15+0030KPSM V0200105N00515018295MN0160935N5-00065-00525099565ADDAA101000021GA1025+006105999GA2075+018295999GD11991+0061059GD23991+0182959GF107991999999999999999999MA1099535099175REMMET10901/08/11 19:55:01 METAR KPSM 090055Z 01010KT 10SM FEW020 BKN060 M01/M05 A2939 RMK AO2A SLP956 P0000 T10061052
0180726055047432011010901557+43078-070823FM-15+0030KPSM V0203505N00775018295MN0160935N5-00105-00525099505ADDGA1075+018295999GD13991+0182959GF107991999999999999999999MA1099465099105REMMET09601/08/11 20:55:01 METAR KPSM 090155Z 35015KT 10SM BKN060 M01/M05 A2937 RMK AO2A SLP950 T10101052
0323726055047432011010902557+43078-070823FM-15+0030KPSM V0203505N00675060965MN0160935N5-00145-00545099495ADDAA103000021GA1025+005185999GA2045+018295999GA3075+060965999GD11991+0051859GD22991+0182959GD33991+0609659GF107991999999999999999999MA1099465099105MD1840044+9999OC100985REMMET12501/08/11 21:55:01 METAR KPSM 090255Z 35013G19KT 10SM FEW017 SCT060 BKN200 M01/M05 A2937 RMK AO2A SLP949 60000 T10141054 58004EQDQ01  00008PRCP03
0163726055047432011010903237+43078-070823FM-15+0030KPSM V0203405N00575003965MN0160935N5-00105-00505999999ADDGA1075+003965999GD13991+0039659GF107991999999999999999999MA1099425099075REMMET07901/08/11 22:23:01 METAR KPSM 090323Z 34011KT 10SM BKN013 M01/M05 A2936 RMK AO2A
0180726055047432011010903557+43078-070823FM-15+0030KPSM V0203305N00575003965MN0160935N5-00145-00515099375ADDGA1075+003965999GD13991+0039659GF107991999999999999999999MA1099365099005REMMET09601/08/11 22:55:01 METAR KPSM 090355Z 33011KT 10SM BKN013 M01/M05 A2934 RMK AO2A SLP937 T10141051
0201726055047432011010904297+43078-070823FM-15+0030KPSM V0203405N00675018295MN0160935N5-00105-00505999999ADDGA1045+006105999GA2075+018295999GD12991+0061059GD23991+0182959GF107991999999999999999999MA1099325098975REMMET08601/08/11 23:29:01 METAR KPSM 090429Z 34013KT 10SM SCT020 BKN060 M01/M05 A2933 RMK AO2A
0190726055047432011010904557+43078-070823FM-15+0030KPSM V0203405N00465005795MN0160935N5-00095-00495099415ADDGA1075+005795999GD13991+0057959GF107991999999999999999999MA1099395099045REMMET10601/08/11 23:55:01 METAR KPSM 090455Z 34009KT 10SM BKN019 M01/M05 A2935 RMK AO2A SLP941 T10091049 410021063
0276726055047432011010905557+43078-070823FM-15+0030KPSM V0203305N00575005795MN0160935N5-00075-00485099375ADDGA1075+005795999GA2085+007625999GD13991+0057959GD24991+0076259GF108991999999999999999999KA1999M-00061KA2999N-00161MA1099365099005MD1640124+9999REMMET12101/09/11 00:55:01 METAR KPSM 090555Z 33011KT 10SM BKN019 OVC025 M01/M05 A2934 RMK AO2A SLP937 T10071048 11006 21016 56012
0287726055047432011010906067+43078-070823FM-15+0030KPSM V0203305N00575005795MN0032195N5+00005-00505999999ADDAU116030015AU200001015AW1105AW2855GA1025+001835999GA2075+005795999GA3085+007325999GD11991+0018359GD23991+0057959GD34991+0073259GF108991999999999999999999MA1099365099005MW1101REMMET10101/09/11 01:06:01 METAR KPSM 090606Z 33011KT 2SM -SHSN BR FEW006 BKN019 OVC024 M00/M05 A2934 RMK AO2A
0295726055047432011010906167+43078-070823FM-15+0030KPSM V0203405N00575005495MN0020125N5+00005-00405999999ADDAU110030015AU200001015AW1105AW2715GA1025+000915999GA2075+005495999GA3085+007325999GD11991+0009159GD23991+0054959GD34991+0073259GF108991999999999999999999MA1099365099005MW1101MW2711REMMET10301/09/11 01:16:01 METAR KPSM 090616Z 34011KT 1 1/4SM -SN BR FEW003 BKN018 OVC024 M00/M04 A2934 RMK AO2A
0278726055047432011010906377+43078-070823FM-15+0030KPSM V0203205N00625003055MN0012075N5-00105-00305999999ADDAU110030015AU200001015AW1105AW2715ED134U18299GA1045+000915999GA2085+003055999GD12991+0009159GD24991+0030559GF108991999999999999999999MA1099365099005MW1101MW2711REMMET10601/09/11 01:37:01 METAR KPSM 090637Z 32012KT 3/4SM R34/P6000FT -SN BR SCT003 OVC010 M01/M03 A2934 RMK AO2A
0319726055047432011010906557+43078-070823FM-15+0030KPSM V0203205N00575002445MN0024145N5-00145-00285099405ADDAA101001395AU110030015AU200001015AW1105AW2715ED134U18299GA1045+000615999GA2085+002445999GD12991+0006159GD24991+0024459GF108991999999999999999999MA1099365099005MW1101MW2711REMMET13601/09/11 01:55:01 METAR KPSM 090655Z 32011KT 1 1/2SM R34/P6000FT -SN BR SCT002 OVC008 M01/M03 A2934 RMK AO2A SLP940 P0005 T10141028 0659
0253726055047432011010907097+43078-070823FM-15+0030KPSM V0203205N00625004575MN0048285N5-00105-00305999999ADDAU110030015AU200001015AW1105AW2715GA1025+000615999GA2085+004575999GD11991+0006159GD24991+0045759GF108991999999999999999999MA1099395099045MW1101MW2711REMMET09201/09/11 02:09:01 METAR KPSM 090709Z 32012KT 3SM -SN BR FEW002 OVC015 M01/M03 A2935 RMK AO2A
0228726055047432011010907557+43078-070823FM-15+0030KPSM V0203305N00725004885MN0112655N5-00095-00285099465ADDAA101000595AU110030015AW1715GA1085+004885999GD14991+0048859GF108991999999999999999999MA1099425099075MW1711REMMET11001/09/11 02:55:01 METAR KPSM 090755Z 33014KT 7SM -SN OVC016 M01/M03 A2936 RMK AO2A SLP946 P0002 T10091028 0800
0173726055047432011010908087+43078-070823FM-15+0030KPSM V0203305N00575004885MN0112655N5+00005-00305999999ADDGA1085+004885999GD14991+0048859GF108991999999999999999999MA1099465099105OC100985REMMET08101/09/11 03:08:01 METAR KPSM 090808Z 33011G19KT 7SM OVC016 M00/M03 A2937 RMK AO2A
0269726055047432011010908557+43078-070823FM-15+0030KPSM V0203405N00575006405MN0160935N5-00035-00405099585ADDAA101000021AA203001891GA1085+006405999GD14991+0064059GF108991999999999999999999MA1099565099205MD1340214+9999OC100885REMMET12201/09/11 03:55:01 METAR KPSM 090855Z 34011G17KT 10SM OVC021 M00/M04 A2940 RMK AO2A SLP958 P0000 60007 T10031040 53021 0901EQDQ01  00188PRCP03
0201726055047432011010909437+43078-070823FM-15+0030KPSM V0203105N00465010975MN0160935N5+00005-00405999999ADDGA1045+008235999GA2085+010975999GD12991+0082359GD24991+0109759GF108991999999999999999999MA1099595099245REMMET08601/09/11 04:43:01 METAR KPSM 090943Z 31009KT 10SM SCT027 OVC036 M00/M04 A2941 RMK AO2A
0218726055047432011010909557+43078-070823FM-15+0030KPSM V0203005N00365010065MN0160935N5-00065-00475099635ADDGA1025+008235999GA2085+010065999GD11991+0082359GD24991+0100659GF108991999999999999999999MA1099595099245REMMET10301/09/11 04:55:01 METAR KPSM 090955Z 30007KT 10SM FEW027 OVC033 M01/M05 A2941 RMK AO2A SLP963 T10061047
0180726055047432011010910557+43078-070823FM-15+0030KPSM V0203005N00675012195MN0160935N5-00165-00665099725ADDGA1075+012195999GD13991+0121959GF107991999999999999999999MA1099705099345REMMET09601/09/11 05:55:01 METAR KPSM 091055Z 30013KT 10SM BKN040 M02/M07 A2944 RMK AO2A SLP972 T10161066
0368726055047432011010911557+43078-070823FM-15+0030KPSM V0203005N00365012805MN0160935N5-00275-00715099825ADDAA106001891AA224001891AJ100039599999999GA1075+012805999GA2085+076205999GD13991+0128059GD24991+0762059GF108991999999999999999999KA1999M-00021KA2999N-00271MA1099805099445MD1340244+9999REMMET13901/09/11 06:55:01 METAR KPSM 091155Z 30007KT 10SM BKN042 OVC250 M03/M07 A2947 RMK AO2A SLP982 60007 70007 4/001 T10271071 11002 21027 53024EQDQ01  00188PRCP06Q02  00188PRCP24
0218726055047432011010912557+43078-070823FM-15+0030KPSM V0202905N00515076205MN0160935N5-00285-00735099915ADDGA1025+012195999GA2075+076205999GD11991+0121959GD23991+0762059GF107991999999999999999999MA1099865099515REMMET10301/09/11 07:55:01 METAR KPSM 091255Z 29010KT 10SM FEW040 BKN250 M03/M07 A2949 RMK AO2A SLP991 T10281073
0218726055047432011010913557+43078-070823FM-15+0030KPSM V0202905N00575076205MN0160935N5-00165-00705100005ADDGA1025+012195999GA2075+076205999GD11991+0121959GD23991+0762059GF107991999999999999999999MA1099975099615REMMET10301/09/11 08:55:01 METAR KPSM 091355Z 29011KT 10SM FEW040 BKN250 M02/M07 A2952 RMK AO2A SLP000 T10161070
0249726055047432011010914557+43078-070823FM-15+0030KPSM V0203005N00675076205MN0160935N5-00055-00685100075ADDGA1025+009145999GA2075+076205999GD11991+0091459GD23991+0762059GF107991999999999999999999MA1100035099685MD1140254+9999OC101035REMMET11201/09/11 09:55:01 METAR KPSM 091455Z 30013G20KT 10SM FEW030 BKN250 M00/M07 A2954 RMK AO2A SLP007 T10051068 51025
0228726055047432011010915557+43078-070823FM-15+0030KPSM V0202805N00625076205MN0160935N5+00025-00725100045ADDGA1025+009145999GA2075+076205999GD11991+0091459GD23991+0762059GF107991999999999999999999MA1100005099645OC101295REMMET10501/09/11 10:55:01 METAR KPSM 091555Z 28012G25KT 10SM FEW030 BKN250 00/M07 A2953 RMK AO2A SLP004 T00021072
0246726055047432011010916557+43078-070823FM-15+0030KPSM V0202905N00625076205MN0160935N5+00075-00735100035ADDGA1025+010675999GA2075+076205999GD11991+0106759GD23991+0762059GF107991999999999999999999MA1100005099645OC101245REMMET12301/09/11 11:55:01 METAR KPSM 091655Z 29012G24KT 10SM FEW035 BKN250 01/M07 A2953 RMK AO2A PK WND 31027/1620 SLP003 T00071073
0286726055047432011010917557+43078-070823FM-15+0030KPSM V0202805N00825076205MN0160935N5+00145-00745100065ADDGA1025+010675999GA2075+076205999GD11991+0106759GD23991+0762059GF107991999999999999999999KA1999M+00141KA2999N-00281MA1100035099685MD1540014+9999OC101245REMMET12301/09/11 12:55:01 METAR KPSM 091755Z 28016G24KT 10SM FEW035 BKN250 01/M07 A2954 RMK AO2A SLP006 T00141074 10014 21028 55001
0246726055047432011010918557+43078-070823FM-15+0030KPSM V0203005N00885076205MN0160935N5+00215-00745100155ADDGA1025+010675999GA2075+076205999GD11991+0106759GD23991+0762059GF107991999999999999999999MA1100145099785OC101135REMMET12301/09/11 13:55:01 METAR KPSM 091855Z 30017G22KT 10SM FEW035 BKN250 02/M07 A2957 RMK AO2A PK WND 31026/1825 SLP015 T00211074
0246726055047432011010919557+43078-070823FM-15+0030KPSM V0203105N00775076205MN0160935N5+00155-00755100305ADDGA1025+012195999GA2075+076205999GD11991+0121959GD23991+0762059GF107991999999999999999999MA1100275099915OC101345REMMET12301/09/11 14:55:01 METAR KPSM 091955Z 31015G26KT 10SM FEW040 BKN250 02/M08 A2961 RMK AO2A PK WND 29026/1944 SLP030 T00151075
0266726055047432011010920557+43078-070823FM-15+0030KPSM V0202905N00985076205MN0160935N5+00065-00835100405ADDGA1025+012195999GA2075+076205999GD11991+0121959GD23991+0762059GF107991999999999999999999MA1100375100025MD1340344+9999OC101395REMMET12901/09/11 15:55:01 METAR KPSM 092055Z 29019G27KT 10SM FEW040 BKN250 01/M08 A2964 RMK AO2A PK WND 30028/2029 SLP040 T00061083 53034
0252726055047432011010921557+43078-070823FM-15+0030KPSM V0203005N00885076205MN0160935N5-00025-00885100535ADDGA1025+012195999GA2075+076205999GD11991+0121959GD23991+0762059GF107991999999999999999999MA1100515100155OC101295REMMET12901/09/11 16:55:02 METAR KPSM 092155Z 30017G25KT 10SM FEW040 BKN250 M00/M09 A2968 RMK AO2A PK WND 31027/2128 SLP053 T10021088 2159
0247726055047432011010922557+43078-070823FM-15+0030KPSM V0202805N00725076205MN0160935N5-00065-00945100645ADDGA1025+012195999GA2075+076205999GD11991+0121959GD23991+0762059GF107991999999999999999999MA1100615100255OC100985REMMET12401/09/11 17:55:01 METAR KPSM 092255Z 28014G19KT 10SM FEW040 BKN250 M01/M09 A2971 RMK AO2A PK WND 30029/2209 SLP064 T10061094
0287726055047432011010923557+43078-070823FM-15+0030KPSM V0202705N006252200059N0160935N5-00115-00925100755ADDGA1025+013415999GA2045+076205999GD11991+0134159GD22991+0762059GF104991999999999999999999KA1999M+00211KA2999N-00111MA1100715100355MD1140354+9999OC101085REMMET12401/09/11 18:55:02 METAR KPSM 092355Z 27012G21KT 10SM FEW044 SCT250 M01/M09 A2974 RMK AO2A SLP075 T10111092 10021 21011 51035
0191726055047432011011000557+43078-070823FM-15+0030KPSM V0202705N00625011895MN0160935N5-00125-00965100845ADDGA1075+011895999GD13991+0118959GF107991999999999999999999MA1100815100455OC101135REMMET09901/09/11 19:55:01 METAR KPSM 100055Z 27012G22KT 10SM BKN039 M01/M10 A2977 RMK AO2A SLP084 T10121096
0191726055047432011011001557+43078-070823FM-15+0030KPSM V0202705N00675010675MN0160935N5-00165-00985100915ADDGA1085+010675999GD14991+0106759GF108991999999999999999999MA1100885100525OC101035REMMET09901/09/11 20:55:01 METAR KPSM 100155Z 27013G20KT 10SM OVC035 M02/M10 A2979 RMK AO2A SLP091 T10161098
0200726055047432011011002557+43078-070823FM-15+0030KPSM V0202905N00515009455MN0160935N5-00205-00955100955ADDGA1085+009455999GD14991+0094559GF108991999999999999999999MA1100915100565MD1140204+9999REMMET10201/09/11 21:55:01 METAR KPSM 100255Z 29010KT 10SM OVC031 M02/M10 A2980 RMK AO2A SLP095 T10201095 51020
0191726055047432011011003557+43078-070823FM-15+0030KPSM V0203105N006752200059N0160935N5-00335-01125101015ADDGA1045+010675999GD12991+0106759GF104991999999999999999999MA1100985100625OC100985REMMET09901/09/11 22:55:01 METAR KPSM 100355Z 31013G19KT 10SM SCT035 M03/M11 A2982 RMK AO2A SLP101 T10331112
0219726055047432011011004557+43078-070823FM-15+0030KPSM V0203005N008852200059N0160935N5-00385-01205101005ADDGA1025+010675999GD11991+0106759GF102991999999999999999999MA1100985100625OC101545REMMET12701/09/11 23:55:01 METAR KPSM 100455Z 30017G30KT 10SM FEW035 M04/M12 A2982 RMK AO2A PK WND 30030/0447 SLP100 T10381120 400211038
0267726055047432011011005557+43078-070823FM-15+0030KPSM V0203005N010852200059N0160935N5-00445-01345101065ADDGA1025+011895999GD11991+0118959GF102991999999999999999999KA1999M-00101KA2999N-00441MA1101025100665MD1340104+9999OC101605REMMET13501/10/11 00:55:01 METAR KPSM 100555Z 30021G31KT 10SM FEW039 M04/M13 A2983 RMK AO2A PK WND 30032/0533 SLP106 T10441134 11010 21044 53010
0175726055047432011011006557+43078-070823FM-15+0030KPSM V0202905N009352200059N0160935N5-00525-01395101155ADDGF100991999999999999999999MA1101125100765OC101185REMMET11401/10/11 01:55:01 METAR KPSM 100655Z 29018G23KT 10SM CLR M05/M14 A2986 RMK AO2A PK WND 30028/0616 SLP115 T10521139
0175726055047432011011007557+43078-070823FM-15+0030KPSM V0203005N006752200059N0160935N5-00585-01425101215ADDGF100991999999999999999999MA1101195100835OC101135REMMET11401/10/11 02:55:01 METAR KPSM 100755Z 30013G22KT 10SM CLR M06/M14 A2988 RMK AO2A PK WND 31027/0710 SLP121 T10581142
0195726055047432011011008557+43078-070823FM-15+0030KPSM V0202905N007752200059N0160935N5-00625-01435101205ADDGF100991999999999999999999MA1101195100835MD1040144+9999OC101185REMMET12001/10/11 03:55:01 METAR KPSM 100855Z 29015G23KT 10SM CLR M06/M14 A2988 RMK AO2A PK WND 28028/0756 SLP120 T10621143 50014
0157726055047432011011009557+43078-070823FM-15+0030KPSM V0202905N006752200059N0160935N5-00645-01455101215ADDGF100991999999999999999999MA1101195100835OC101035REMMET09601/10/11 04:55:01 METAR KPSM 100955Z 29013G20KT 10SM CLR M06/M14 A2988 RMK AO2A SLP121 T10641145
0191726055047432011011010557+43078-070823FM-15+0030KPSM V0202905N00775025915MN0160935N5-00625-01435101265ADDGA1075+025915999GD13991+0259159GF107991999999999999999999MA1101225100865OC101035REMMET09901/10/11 05:55:01 METAR KPSM 101055Z 29015G20KT 10SM BKN085 M06/M14 A2989 RMK AO2A SLP126 T10621143
0285726055047432011011011557+43078-070823FM-15+0030KPSM V0202805N00575025915MN0160935N5-00595-01405101335ADDAA124000391GA1075+025915999GD13991+0259159GF107991999999999999999999KA1999M-00441KA2999N-00651MA1101295100935MD1340134+9999OC100985REMMET12301/10/11 06:55:01 METAR KPSM 101155Z 28011G19KT 10SM BKN085 M06/M14 A2991 RMK AO2A SLP133 70001 T10591140 11044 21065 53013EQDQ01  00038PRCP24
0191726055047432011011012557+43078-070823FM-15+0030KPSM V0202905N00675025915MN0160935N5-00545-01375101405ADDGA1075+025915999GD13991+0259159GF107991999999999999999999MA1101355100995OC100885REMMET09901/10/11 07:55:01 METAR KPSM 101255Z 29013G17KT 10SM BKN085 M05/M14 A2993 RMK AO2A SLP140 T10541137
0180726055047432011011013557+43078-070823FM-15+0030KPSM V0202805N00465027435MN0160935N5-00515-01335101475ADDGA1075+027435999GD13991+0274359GF107991999999999999999999MA1101465101105REMMET09601/10/11 08:55:01 METAR KPSM 101355Z 28009KT 10SM BKN090 M05/M13 A2996 RMK AO2A SLP147 T10511133
0200726055047432011011014557+43078-070823FM-15+0030KPSM V0202905N006252200059N0160935N5-00265-01275101535ADDGA1045+030485999GD12991+0304859GF104991999999999999999999MA1101495101135MD1140204+9999REMMET10201/10/11 09:55:01 METAR KPSM 101455Z 29012KT 10SM SCT100 M03/M13 A2997 RMK AO2A SLP153 T10261127 51020
0191726055047432011011015557+43078-070823FM-15+0030KPSM V0202905N005752200059N0160935N5-00125-01225101515ADDGA1025+030485999GD11991+0304859GF102991999999999999999999MA1101495101135OC100985REMMET09901/10/11 10:55:01 METAR KPSM 101555Z 29011G19KT 10SM FEW100 M01/M12 A2997 RMK AO2A SLP151 T10121122
0191726055047432011011016557+43078-070823FM-15+0030KPSM V0202905N005752200059N0160935N5-00015-01155101495ADDGA1025+076205999GD11991+0762059GF102991999999999999999999MA1101465101105OC101085REMMET09901/10/11 11:55:01 METAR KPSM 101655Z 29011G21KT 10SM FEW250 M00/M11 A2996 RMK AO2A SLP149 T10011115
0249726055047432011011017557+43078-070823FM-15+0030KPSM V0202705N006752200059N0160935N5-00015-01115101465ADDGA1025+076205999GD11991+0762059GF102991999999999999999999KA1999M+00011KA2999N-00581MA1101425101065MD1840074+9999OC101085REMMET11701/10/11 12:55:01 METAR KPSM 101755Z 27013G21KT 10SM FEW250 M00/M11 A2995 RMK AO2A SLP146 T10011111 10001 21058 58007
0156726055047432011011018557+43078-070823FM-15+0030KPSM V0202905N007752200059N0160935N5+00035-01055101505ADDGF100991999999999999999999MA1101465101105OC101085REMMET09501/10/11 13:55:01 METAR KPSM 101855Z 29015G21KT 10SM CLR 00/M11 A2996 RMK AO2A SLP150 T00031105
0157726055047432011011019557+43078-070823FM-15+0030KPSM V0202905N007252200059N0160935N5-00025-01075101615ADDGF100991999999999999999999MA1101595101235OC101185REMMET09601/10/11 14:55:01 METAR KPSM 101955Z 29014G23KT 10SM CLR M00/M11 A3000 RMK AO2A SLP161 T10021107
0166726055047432011011020557+43078-070823FM-15+0030KPSM V0202805N005152200059N0160935N5-00085-01025101695ADDGF100991999999999999999999MA1101665101305MD1340234+9999REMMET09901/10/11 15:55:01 METAR KPSM 102055Z 28010KT 10SM CLR M01/M10 A3002 RMK AO2A SLP169 T10081102 53023
0146726055047432011011021557+43078-070823FM-15+0030KPSM V0202905N006252200059N0160935N5-00195-01025101745ADDGF100991999999999999999999MA1101695101335REMMET09301/10/11 16:55:01 METAR KPSM 102155Z 29012KT 10SM CLR M02/M10 A3003 RMK AO2A SLP174 T10191102
0146726055047432011011022557+43078-070823FM-15+0030KPSM V0202905N004652200059N0160935N5-00245-01005101815ADDGF100991999999999999999999MA1101795101435REMMET09301/10/11 17:55:01 METAR KPSM 102255Z 29009KT 10SM CLR M02/M10 A3006 RMK AO2A SLP181 T10241100
0204726055047432011011023557+43078-070823FM-15+0030KPSM V0202905N004652200059N0160935N5-00315-01045101885ADDGF100991999999999999999999KA1999M+00081KA2999N-00311MA1101835101475MD1340184+9999REMMET11101/10/11 18:55:02 METAR KPSM 102355Z 29009KT 10SM CLR M03/M10 A3007 RMK AO2A SLP188 T10311104 10008 21031 53018
0146726055047432011011100557+43078-070823FM-15+0030KPSM V0202805N003652200059N0160935N5-00375-01085101935ADDGF100991999999999999999999MA1101905101535REMMET09301/10/11 19:55:01 METAR KPSM 110055Z 28007KT 10SM CLR M04/M11 A3009 RMK AO2A SLP193 T10371108
0146726055047432011011101557+43078-070823FM-15+0030KPSM V0202805N004152200059N0160935N5-00435-01075101975ADDGF100991999999999999999999MA1101935101575REMMET09301/10/11 20:55:01 METAR KPSM 110155Z 28008KT 10SM CLR M04/M11 A3010 RMK AO2A SLP197 T10431107
0166726055047432011011102557+43078-070823FM-15+0030KPSM V0202905N004152200059N0160935N5-00545-01135102035ADDGF100991999999999999999999MA1102005101645MD1240164+9999REMMET09901/10/11 21:55:01 METAR KPSM 110255Z 29008KT 10SM CLR M05/M11 A3012 RMK AO2A SLP203 T10541113 52016
0146726055047432011011103557+43078-070823FM-15+0030KPSM V0202905N003152200059N0160935N5-00665-01175102045ADDGF100991999999999999999999MA1102005101645REMMET09301/10/11 22:55:01 METAR KPSM 110355Z 29006KT 10SM CLR M07/M12 A3012 RMK AO2A SLP204 T10661117
0156726055047432011011104557+43078-070823FM-15+0030KPSM V0202905N003152200059N0160935N5-00725-01185102035ADDGF100991999999999999999999MA1102005101645REMMET10301/10/11 23:55:01 METAR KPSM 110455Z 29006KT 10SM CLR M07/M12 A3012 RMK AO2A SLP203 T10721118 400081074
0204726055047432011011105557+43078-070823FM-15+0030KPSM V0202705N001552200059N0160935N5-00765-01215102125ADDGF100991999999999999999999KA1999M-00311KA2999N-00791MA1102105101745MD1340094+9999REMMET11101/11/11 00:55:01 METAR KPSM 110555Z 27003KT 10SM CLR M08/M12 A3015 RMK AO2A SLP212 T10761121 11031 21079 53009
0146726055047432011011106557+43078-070823FM-15+0030KPSM V0202705N002152200059N0160935N5-00795-01185102195ADDGF100991999999999999999999MA1102175101805REMMET09301/11/11 01:55:01 METAR KPSM 110655Z 27004KT 10SM CLR M08/M12 A3017 RMK AO2A SLP219 T10791118
0146726055047432011011107557+43078-070823FM-15+0030KPSM V0202705N002652200059N0160935N5-00905-01215102265ADDGF100991999999999999999999MA1102245101875REMMET09301/11/11 02:55:01 METAR KPSM 110755Z 27005KT 10SM CLR M09/M12 A3019 RMK AO2A SLP226 T10901121
0166726055047432011011108557+43078-070823FM-15+0030KPSM V0202705N002652200059N0160935N5-00885-01215102265ADDGF100991999999999999999999MA1102245101875MD1140144+9999REMMET09901/11/11 03:55:01 METAR KPSM 110855Z 27005KT 10SM CLR M09/M12 A3019 RMK AO2A SLP226 T10881121 51014
0146726055047432011011109557+43078-070823FM-15+0030KPSM V0209999C000052200059N0160935N5-00925-01225102275ADDGF100991999999999999999999MA1102245101875REMMET09301/11/11 04:55:01 METAR KPSM 110955Z 00000KT 10SM CLR M09/M12 A3019 RMK AO2A SLP227 T10921122
0146726055047432011011110557+43078-070823FM-15+0030KPSM V0203005N001552200059N0160935N5-00915-01215102315ADDGF100991999999999999999999MA1102275101915REMMET09301/11/11 05:55:01 METAR KPSM 111055Z 30003KT 10SM CLR M09/M12 A3020 RMK AO2A SLP231 T10911121
0238726055047432011011111557+43078-070823FM-15+0030KPSM V0203005N001552200059N0160935N5-00965-01235102365ADDGA1025+076205999GD11991+0762059GF102991999999999999999999KA1999M-00751KA2999N-01081MA1102345101975MD1340094+9999REMMET11401/11/11 06:55:01 METAR KPSM 111155Z 30003KT 10SM FEW250 M10/M12 A3022 RMK AO2A SLP236 T10961123 11075 21108 53009
0180726055047432011011112557+43078-070823FM-15+0030KPSM V0202805N00155076205MN0160935N5-00995-01235102425ADDGA1075+076205999GD13991+0762059GF107991999999999999999999MA1102405102045REMMET09601/11/11 07:55:01 METAR KPSM 111255Z 28003KT 10SM BKN250 M10/M12 A3024 RMK AO2A SLP242 T10991123
0180726055047432011011113557+43078-070823FM-15+0030KPSM V0203605N00215076205MN0160935N5-00685-01075102455ADDGA1075+076205999GD13991+0762059GF107991999999999999999999MA1102405102045REMMET09601/11/11 08:55:01 METAR KPSM 111355Z 36004KT 10SM BKN250 M07/M11 A3024 RMK AO2A SLP245 T10681107
0200726055047432011011114557+43078-070823FM-15+0030KPSM V0209999V00215076205MN0160935N5-00495-01095102465ADDGA1075+076205999GD13991+0762059GF107991999999999999999999MA1102445102075MD1140104+9999REMMET10201/11/11 09:55:01 METAR KPSM 111455Z VRB04KT 10SM BKN250 M05/M11 A3025 RMK AO2A SLP246 T10491109 51010
0180726055047432011011115557+43078-070823FM-15+0030KPSM V0203605N00215076205MN0160935N5-00335-01125102385ADDGA1075+076205999GD13991+0762059GF107991999999999999999999MA1102345101975REMMET09601/11/11 10:55:01 METAR KPSM 111555Z 36004KT 10SM BKN250 M03/M11 A3022 RMK AO2A SLP238 T10331112
0218726055047432011011116557+43078-070823FM-15+0030KPSM V0209999C00005060965MN0160935N5-00215-01185102275ADDGA1025+030485999GA2075+060965999GD11991+0304859GD23991+0609659GF107991999999999999999999MA1102245101875REMMET10301/11/11 11:55:01 METAR KPSM 111655Z 00000KT 10SM FEW100 BKN200 M02/M12 A3019 RMK AO2A SLP227 T10211118
0201726055047432011011117357+43078-070823FM-15+0030KPSM V0203305N00155007625MN0160935N5-00205-01205999999ADDGA1075+007625999GA2085+060965999GD13991+0076259GD24991+0609659GF108991999999999999999999MA1102205101845REMMET08601/11/11 12:35:01 METAR KPSM 111735Z 33003KT 10SM BKN025 OVC200 M02/M12 A3018 RMK AO2A
0276726055047432011011117557+43078-070823FM-15+0030KPSM V0209999C00005007625MN0160935N5-00205-01225102195ADDGA1075+007625999GA2085+060965999GD13991+0076259GD24991+0609659GF108991999999999999999999KA1999M-00181KA2999N-01041MA1102175101805MD1740264+9999REMMET12101/11/11 12:55:01 METAR KPSM 111755Z 00000KT 10SM BKN025 OVC200 M02/M12 A3017 RMK AO2A SLP219 T10201122 11018 21104 57026
0180726055047432011011118557+43078-070823FM-15+0030KPSM V0209999C00005007625MN0160935N5-00205-01165102185ADDGA1085+007625999GD14991+0076259GF108991999999999999999999MA1102135101775REMMET09601/11/11 13:55:01 METAR KPSM 111855Z 00000KT 10SM OVC025 M02/M12 A3016 RMK AO2A SLP218 T10201116
0180726055047432011011119557+43078-070823FM-15+0030KPSM V0209999C00005008235MN0160935N5-00195-01075102155ADDGA1085+008235999GD14991+0082359GF108991999999999999999999MA1102105101745REMMET09601/11/11 14:55:01 METAR KPSM 111955Z 00000KT 10SM OVC027 M02/M11 A3015 RMK AO2A SLP215 T10191107
0200726055047432011011120557+43078-070823FM-15+0030KPSM V0201005N00155007625MN0160935N5-00205-01005102185ADDGA1085+007625999GD14991+0076259GF108991999999999999999999MA1102135101775MD1540014+9999REMMET10201/11/11 15:55:01 METAR KPSM 112055Z 10003KT 10SM OVC025 M02/M10 A3016 RMK AO2A SLP218 T10201100 55001
0180726055047432011011121557+43078-070823FM-15+0030KPSM V0209999C00005007925MN0160935N5-00235-00965102165ADDGA1085+007925999GD14991+0079259GF108991999999999999999999MA1102135101775REMMET09601/11/11 16:55:01 METAR KPSM 112155Z 00000KT 10SM OVC026 M02/M10 A3016 RMK AO2A SLP216 T10231096
0180726055047432011011122557+43078-070823FM-15+0030KPSM V0209999C00005007925MN0160935N5-00225-00945102115ADDGA1085+007925999GD14991+0079259GF108991999999999999999999MA1102075101705REMMET09601/11/11 17:55:01 METAR KPSM 112255Z 00000KT 10SM OVC026 M02/M09 A3014 RMK AO2A SLP211 T10221094
0238726055047432011011123557+43078-070823FM-15+0030KPSM V0200405N00155007625MN0160935N5-00205-00875102055ADDGA1085+007625999GD14991+0076259GF108991999999999999999999KA1999M-00161KA2999N-00231MA1102035101675MD1840134+9999REMMET11401/11/11 18:55:02 METAR KPSM 112355Z 04003KT 10SM OVC025 M02/M09 A3013 RMK AO2A SLP205 T10201087 11016 21023 58013
0180726055047432011011200557+43078-070823FM-15+0030KPSM V0200305N00315007015MN0160935N5-00185-00835101965ADDGA1085+007015999GD14991+0070159GF108991999999999999999999MA1101935101575REMMET09601/11/11 19:55:01 METAR KPSM 120055Z 03006KT 10SM OVC023 M02/M08 A3010 RMK AO2A SLP196 T10181083
0180726055047432011011201557+43078-070823FM-15+0030KPSM V0200305N00265006105MN0160935N5-00175-00775101895ADDGA1085+006105999GD14991+0061059GF108991999999999999999999MA1101865101505REMMET09601/11/11 20:55:01 METAR KPSM 120155Z 03005KT 10SM OVC020 M02/M08 A3008 RMK AO2A SLP189 T10171077
0200726055047432011011202557+43078-070823FM-15+0030KPSM V0200205N00215006105MN0160935N5-00145-00675101785ADDGA1085+006105999GD14991+0061059GF108991999999999999999999MA1101765101405MD1840274+9999REMMET10201/11/11 21:55:01 METAR KPSM 120255Z 02004KT 10SM OVC020 M01/M07 A3005 RMK AO2A SLP178 T10141067 58027
0180726055047432011011203557+43078-070823FM-15+0030KPSM V0200605N00365006105MN0160935N5-00055-00535101625ADDGA1085+006105999GD14991+0061059GF108991999999999999999999MA1101595101235REMMET09601/11/11 22:55:01 METAR KPSM 120355Z 06007KT 10SM OVC020 M01/M05 A3000 RMK AO2A SLP162 T10051053
0190726055047432011011204557+43078-070823FM-15+0030KPSM V0200605N00365006105MN0160935N5-00015-00495101525ADDGA1085+006105999GD14991+0061059GF108991999999999999999999MA1101495101135REMMET10601/11/11 23:55:01 METAR KPSM 120455Z 06007KT 10SM OVC020 M00/M05 A2997 RMK AO2A SLP152 T10011049 410011108
0249726055047432011011205557+43078-070823FM-15+0030KPSM V0200605N00365006405MN0128755N5-00035-00535101365ADDGA1085+006405999GD14991+0064059GF108991999999999999999999KA1999M-00011KA2999N-00201MA1101325100965MD1840424+9999REMMET12501/12/11 00:55:01 METAR KPSM 120555Z 06007KT 8SM OVC021 M00/M05 A2992 RMK AO2A PRESFR SLP136 T10031053 11001 21020 58042 0558
0189726055047432011011206307+43078-070823FM-15+0030KPSM V0200705N00415006405MN0128755N5+00005-00505999999ADDAU110030015AW1715GA1085+006405999GD14991+0064059GF108991999999999999999999MA1101395101035MW1711REMMET08201/12/11 01:30:01 METAR KPSM 120630Z 07008KT 8SM -SN OVC021 M00/M05 A2994 RMK AO2A
0253726055047432011011206557+43078-070823FM-15+0030KPSM V0200605N00465006405MN0040235N5-00015-00525101325ADDAA101000021AU110030015AU200001015AW1105AW2715GA1085+006405999GD14991+0064059GF108991999999999999999999MA1101295100935MW1101MW2711REMMET11201/12/11 01:55:01 METAR KPSM 120655Z 06009KT 2 1/2SM -SN BR OVC021 M00/M05 A2991 RMK AO2A SLP132 P0000 T10011052
