0235726130147552010010100514+44267-071300FM-15+1910KMWN V0202301N007210720019N0002011N1-00801-00801999999ADDGD12991+0001519GD22991+0090019GD32991+0270019GD43991+0720019GF107991999999999999999999MW1481REMMET131METAR KMWN 010051Z 23014KT 1/8SM FZFG SCT000 SCT030 SCT090 BKN240 M08/M08 RMK FZFG SCT000 VRY LGT ICG PR HALO AND CORONA ARND MOON;
0116726130147552010010101597+44267-071299FM-15+1910KMWN V0302301N005719999999N0241401N1-00701-00901999999ADDAA101000025GD13991+9999999GD22991+9999999GD31991+0001519GD41991+0030019GF108991999999999999999999MW1711REMMET001-
0077726130147552010010102597+44267-071299FM-15+1910KMWN V0302201N005710001519N0001011N1-00701-00701999999ADDAA101000025GD15991+0001519GF109991999999000251999999MW1491MW2711REMMET001-
0116726130147552010010103597+44267-071299FM-15+1910KMWN V0302201N006710075019N0080461N1-00601-00901999999ADDAA101000025GD11991+0001519GD22991+0030019GD33991+0075019GD43991+9999999GF108991999999999999999999MW1711REMMET001-
0149726130147552010010104474+44267-071300FM-15+1910KMWN V0202101N007210003019N0001011N1-00701-00701999999ADDGD15991+0003019GF109991999999000251999999MW1361MW2491MW3711REMMET078METAR KMWN 010447Z 21014KT 1/16SM -SN DRSN FZFG VV001 M07/M07 RMK VRY LGT ICG;
0024726130147552010010104598+44267-071299FM-15+1910KMWN V03099999999999999999N999999999+99999+99999999999ADDAA101000025REMMET001-
0222726130147552010010104596+44267-071299SOD  +1910KMWN V030999999999999999999999999999+99999+99999999999ADDAA124002591AJ100419599999999AL12400495AN1024004695GJ100905GK10165KA1240M-00605KA2240N-01325OE11240178823011355OE23240098799999999REMSOD0623   14755091231040 SW1135          009001677002100080010018016EQDR01  00106AAP092
0120726130147552010010105597+44267-071299FM-15+1910KMWN V0302101N005710003019N0001011N1-00701-00701999999ADDAA101000025AJ100439199999999GD15991+0003019GF109991999999000251999999KA1999M-00601KA2999N-00801MW1361MW2491REMMET001-
0083726130147552010010106597+44267-071299FM-15+1910KMWN V0302001N005710003019N0001011N1-00701-00701999999ADDAA101000025GD15991+0003019GF109991999999000251999999MW1361MW2491MW3711REMMET001-
0085726130147552010010107597+44267-071299FM-15+1910KMWN V0301701N004610003019N0001011N1-00801-00801999999ADDAA101000395GD15991+0003019GF109991999999000251999999MW1361MW2491MW3711REMMET003001
0083726130147552010010108597+44267-071299FM-15+1910KMWN V0302101N003610001519N0000001N1-00801-00801999999ADDAA101000025GD15991+0001519GF109991999999000251999999MW1361MW2491MW3711REMMET001-
0192726130147552010010108596+44267-071299SOM  +1910KMWN V030999999999999999999999999999+99999+99999999999ADDAD10044290203999999999AE1229179059039AK1043192999999AM1019090909999999999AN1024122199GK10329GL1052639KB1024N-17009KB2024M-08179KB3024A-12569KC1N9-03172999999KC2M9+00440399999KE1309009319139
0085726130147552010010109597+44267-071299FM-15+1910KMWN V0302101N004610003019N0000001N1-00701-00701999999ADDAA101000395GD15991+0003019GF109991999999000251999999MW1361MW2491MW3711REMMET003001
0083726130147552010010110597+44267-071299FM-15+1910KMWN V0302201N004610006019N0001011N1-00701-00701999999ADDAA101000025GD15991+0006019GF109991999999000251999999MW1361MW2491MW3711REMMET001-
0139726130147552010010111597+44267-071299FM-15+1910KMWN V0302401N003610006019N0000001N1-00801-00801999999ADDAA101000395AA224002891AJ100469199999999GD15991+0006019GF109991999999000251999999KA1999M-00621KA2999N-00781MW1361MW2491MW3711REMMET003001
0077726130147552010010112597+44267-071299FM-15+1910KMWN V0302401N004110003019N0000001N1-00801-00801999999ADDAA101000025GD15991+0003019GF109991999999000251999999MW1491MW2711REMMET001-
0077726130147552010010113597+44267-071299FM-15+1910KMWN V0301301N003110012019N0001011N1-00801-00801999999ADDAA101000025GD15991+0012019GF109991999999000251999999MW1491MW2711REMMET001-
0143726130147552010010114597+44267-071299FM-15+1910KMWN V0301801N002610001519N0001011N1-00701-00801999999ADDAA101000395GD13991+9999999GD23991+9999999GD33991+0001519GD43991+0090019GF108991999999999999999999MW1481MW2711REMMET003001EQDQ01 999993SCOCIG
0077726130147552010010115597+44267-071299FM-15+1910KMWN V0301601N003610003019N0001011N1-00801-00801999999ADDAA101000025GD15991+0003019GF109991999999000251999999MW1491MW2711REMMET001-
0077726130147552010010116597+44267-071299FM-15+1910KMWN V0301401N003110003019N0001011N1-00901-00901999999ADDAA101000025GD15991+0003019GF109991999999000251999999MW1491MW2711REMMET001-
0122726130147552010010117597+44267-071299FM-15+1910KMWN V0301601N00361000151CN0000001N1-00901-00901999999ADDAA101000395AJ100469199999999GD13991+0001519GF107991999999999999999999KA1999M-00671KA2999N-00981MW1481MW2711REMMET003001
0077726130147552010010118597+44267-071299FM-15+1910KMWN V0301601N004110006019N0000001N1-00901-00901999999ADDAA101000025GD15991+0006019GF109991999999000251999999MW1491MW2711REMMET001-
0071726130147552010010119597+44267-071299FM-15+1910KMWN V0301901N003110003019N0000001N1-00901-00901999999ADDAA101000025GD15991+0003019GF109991999999000251999999MW1491REMMET001-
0077726130147552010010120597+44267-071299FM-15+1910KMWN V0301901N002610006019N0000001N1-00901-00901999999ADDAA101000025GD15991+0006019GF109991999999000251999999MW1491MW2711REMMET001-
0077726130147552010010121597+44267-071299FM-15+1910KMWN V0302001N004110003019N0000001N1-00901-00901999999ADDAA101000025GD15991+0003019GF109991999999000251999999MW1491MW2711REMMET001-
0077726130147552010010122597+44267-071299FM-15+1910KMWN V0302001N004110001519N0000001N1-01001-01001999999ADDAA101000025GD15991+0001519GF109991999999000251999999MW1491MW2711REMMET001-
0122726130147552010010123597+44267-071299FM-15+1910KMWN V0302001N004110001519N0000001N1-01001-01001999999ADDAA101000395AJ100469199999999GD15991+0001519GF109991999999000251999999KA1999M-00781KA2999N-01031MW1491MW2711REMMET003001
0077726130147552010010200597+44267-071299FM-15+1910KMWN V0301901N001510001519N0001011N1-01001-01001999999ADDAA101000025GD15991+0001519GF109991999999000251999999MW1491MW2711REMMET001-
0077726130147552010010201597+44267-071299FM-15+1910KMWN V0302201N001010006019N0002011N1-01001-01001999999ADDAA101000025GD15991+0006019GF109991999999000251999999MW1491MW2711REMMET001-
0094726130147552010010202597+44267-071299FM-15+1910KMWN V0303101N00151009001CN0004021N1-01001-01001999999ADDAA101000395GD13991+0001519GD24991+0090019GF108991999999999999999999MW1481MW2711REMMET003001
0077726130147552010010203597+44267-071299FM-15+1910KMWN V0303301N002610006019N0001011N1-00901-00901999999ADDAA101000025GD15991+0006019GF109991999999000251999999MW1491MW2711REMMET001-
0079726130147552010010204597+44267-071299FM-15+1910KMWN V0303301N002610003019N0001011N1-01001-01001999999ADDAA101000395GD15991+0003019GF109991999999000251999999MW1491MW2711REMMET003001
0222726130147552010010204596+44267-071299SOD  +1910KMWN V030999999999999999999999999999+99999+99999999999ADDAA124002091AJ100469599999999AL12400495AN1024004895GJ100005GK10005KA1240M-00605KA2240N-01055OE11240093918001105OE23240034099999999REMSOD0623   14755100101021  S0110          000000088002100130008019018EQDR01  00086AAP092
0120726130147552010010205597+44267-071299FM-15+1910KMWN V0303401N003610009019N0002011N1-01001-01001999999ADDAA101000025AJ100489199999999GD15991+0009019GF109991999999000251999999KA1999M-00931KA2999N-01051MW1491MW2711REMMET001-
0077726130147552010010206597+44267-071299FM-15+1910KMWN V0303401N004110006019N0001011N1-01101-01101999999ADDAA101000025GD15991+0006019GF109991999999000251999999MW1491MW2711REMMET001-
0077726130147552010010207597+44267-071299FM-15+1910KMWN V0300201N002610006019N0001011N1-01101-01101999999ADDAA101000025GD15991+0006019GF109991999999000251999999MW1491MW2711REMMET001-
0085726130147552010010208597+44267-071299FM-15+1910KMWN V0300201N004610006019N0001011N1-01201-01201999999ADDAA101000395GD15991+0006019GF109991999999000251999999MW1361MW2491MW3711REMMET003001
0083726130147552010010209597+44267-071299FM-15+1910KMWN V0303601N004110003019N0000001N1-01201-01201999999ADDAA101000025GD15991+0003019GF109991999999000251999999MW1361MW2491MW3711REMMET001-
0083726130147552010010210597+44267-071299FM-15+1910KMWN V0300201N006210003019N0000001N1-01201-01201999999ADDAA101000025GD15991+0003019GF109991999999000251999999MW1361MW2491MW3711REMMET001-
0182726130147552010010211597+44267-071299FM-15+1910KMWN V0300301N007210150019N0160931N1-01101-01301999999ADDAA101000025AA224001591AJ100489199999999GD11991+0001519GD21991+0060019GD34991+0150019GD42991+9999999GF108991999999999999999999KA1999M-00981KA2999N-01271MW1121MW2361MW3711REMMET001-
0083726130147552010010212597+44267-071299FM-15+1910KMWN V0300301N007210003019N0001011N1-01201-01201999999ADDAA101000025GD15991+0003019GF109991999999000251999999MW1361MW2491MW3711REMMET001-
0085726130147552010010213597+44267-071299FM-15+1910KMWN V0300401N006710009019N0008051N1-01101-01201999999ADDAA101000395GD15991+0009019GF109991999999000251999999MW1361MW2491MW3711REMMET003001
0083726130147552010010214597+44267-071299FM-15+1910KMWN V0300201N007710003019N0002011N1-01101-01101999999ADDAA101000025GD15991+0003019GF109991999999000251999999MW1361MW2491MW3711REMMET001-
0083726130147552010010215597+44267-071299FM-15+1910KMWN V0300101N010310003019N0001011N1-01301-01301999999ADDAA101000025GD15991+0003019GF109991999999000251999999MW1361MW2491MW3711REMMET001-
0091726130147552010010216597+44267-071299FM-15+1910KMWN V0300101N011310006019N0001011N1-01301-01301999999ADDAA101000025GD15991+0006019GF109991999999000251999999MW1361MW2491MW3711OC101541REMMET001-
0136726130147552010010217597+44267-071299FM-15+1910KMWN V0303301N013910009019N0001011N1-01401-01401999999ADDAA101000395AJ100519199999999GD15991+0009019GF109991999999000251999999KA1999M-01061KA2999N-01481MW1381MW2491MW3711OC101651REMMET003001
0093726130147552010010218597+44267-071299FM-15+1910KMWN V0303201N019510006019N0001011N1-01401-01401999999ADDAA101000895GD15991+0006019GF109991999999000251999999MW1381MW2491MW3711OC102161REMMET003003
0093726130147552010010219597+44267-071299FM-15+1910KMWN V0303201N020610006019N0001011N1-01501-01501999999ADDAA101001095GD15991+0006019GF109991999999000251999999MW1381MW2491MW3711OC102311REMMET003004
0093726130147552010010220597+44267-071299FM-15+1910KMWN V0303301N021610006019N0001011N1-01601-01601999999ADDAA101001095GD15991+0006019GF109991999999000251999999MW1381MW2491MW3711OC102571REMMET003004
0093726130147552010010221597+44267-071299FM-15+1910KMWN V0303301N024710006019N0001011N1-01701-01701999999ADDAA101000895GD15991+0006019GF109991999999000251999999MW1381MW2491MW3711OC102931REMMET003003
0093726130147552010010222597+44267-071299FM-15+1910KMWN V0303301N026810003019N0001011N1-01801-01801999999ADDAA101000895GD15991+0003019GF109991999999000251999999MW1381MW2491MW3711OC103041REMMET003003
0264726130147552010010223494+44267-071300FM-15+1910KMWN V0203301N032410006019N0001011N1-01701-01701999999ADDAA106005191AJ100519199999999GD15991+0006019GF109991999999000251999999KA1999M-01351KA2999N-01791MW1381MW2491MW3711OC103601REMMET112METAR KMWN 022349Z 33063G70KT 1/16SM -SN BLSN FZFG VV002 M17/M17 RMK VRY LGT ICG 60020 4/020 931013 11135 21179;EQDQ01  00518PRCP06
0026726130147552010010223598+44267-071299FM-15+1910KMWN V03099999999999999999N999999999+99999+99999999999ADDAA101000895REMMET003003
0093726130147552010010300597+44267-071299FM-15+1910KMWN V0303201N029310003019N0001011N1-01901-01901999999ADDAA101000595GD15991+0003019GF109991999999000251999999MW1381MW2491MW3711OC103341REMMET003002
0093726130147552010010301597+44267-071299FM-15+1910KMWN V0303201N029810003019N0001011N1-01901-01901999999ADDAA101000595GD15991+0003019GF109991999999000251999999MW1381MW2491MW3711OC103651REMMET003002
0093726130147552010010302597+44267-071299FM-15+1910KMWN V0303201N031910006019N0001011N1-01901-01901999999ADDAA101000595GD15991+0006019GF109991999999000251999999MW1381MW2491MW3711OC103861REMMET003002
0093726130147552010010303597+44267-071299FM-15+1910KMWN V0303201N028810003019N0001011N1-02001-02001999999ADDAA101001095GD15991+0003019GF109991999999000251999999MW1381MW2491MW3711OC103761REMMET003004
0093726130147552010010304597+44267-071299FM-15+1910KMWN V0303201N028310006019N0001011N1-02001-02001999999ADDAA101001095GD15991+0006019GF109991999999000251999999MW1381MW2491MW3731OC103501REMMET003004
0222726130147552010010304596+44267-071299SOD  +1910KMWN V030999999999999999999999999999+99999+99999999999ADDAA124009491AJ100489599999999AL12400795AN1024007695GJ100005GK10005KA1240M-00995KA2240N-02105OE11240411332020265OE23240158799999999REMSOD0623   14755100102092 NW2026          0000000880014-0060037030019EQDR01  00376AAP092
0263726130147552010010305494+44267-071300FM-15+1910KMWN V0203201N024210006019N0001011N1-02101-02101999999ADDAA106004691AJ100519199999999GD15991+0006019GF109991999999000251999999KA1999M-01741KA2999N-02121MW1381MW2491MW3731OC103041REMMET111METAR KMWN 030549Z 32047G59KT 1/16SM SN BLSN FZFG VV002 M21/M21 RMK VRY LGT ICG 60018 4/020 931015 11174 21212;EQDQ01  00468PRCP06
0026726130147552010010305598+44267-071299FM-15+1910KMWN V03099999999999999999N999999999+99999+99999999999ADDAA101001095REMMET003004
0093726130147552010010306597+44267-071299FM-15+1910KMWN V0303101N026210003019N0001011N1-02101-02101999999ADDAA101001095GD15991+0003019GF109991999999000251999999MW1381MW2491MW3731OC103041REMMET003004
0093726130147552010010307597+44267-071299FM-15+1910KMWN V0303301N024210006019N0002011N1-01901-01901999999ADDAA101001095GD15991+0006019GF109991999999000251999999MW1381MW2491MW3731OC103091REMMET003004
0093726130147552010010308597+44267-071299FM-15+1910KMWN V0303301N024710003019N0001011N1-01801-01801999999ADDAA101000895GD15991+0003019GF109991999999000251999999MW1381MW2491MW3711OC103341REMMET003003
0093726130147552010010309597+44267-071299FM-15+1910KMWN V0303401N018510003019N0001011N1-01701-01701999999ADDAA101000595GD15991+0003019GF109991999999000251999999MW1381MW2491MW3711OC102681REMMET003002
0093726130147552010010310597+44267-071299FM-15+1910KMWN V0303601N024210003019N0001011N1-01601-01601999999ADDAA101000895GD15991+0003019GF109991999999000251999999MW1381MW2491MW3711OC103091REMMET003003
0147726130147552010010311597+44267-071299FM-15+1910KMWN V0300101N018510006019N0001011N1-01501-01501999999ADDAA101000595AA224014791AJ100539199999999GD15991+0006019GF109991999999000251999999KA1999M-01491KA2999N-02111MW1381MW2491MW3711OC102371REMMET003002
0093726130147552010010312597+44267-071299FM-15+1910KMWN V0300201N020110006019N0001011N1-01301-01301999999ADDAA101000395GD15991+0006019GF109991999999000251999999MW1381MW2491MW3711OC102371REMMET003001
0091726130147552010010313597+44267-071299FM-15+1910KMWN V0300201N018010006019N0001011N1-01301-01301999999ADDAA101000025GD15991+0006019GF109991999999000251999999MW1381MW2491MW3711OC102471REMMET001-
0085726130147552010010314597+44267-071299FM-15+1910KMWN V0300301N018510006019N0001011N1-01201-01201999999ADDAA101000025GD15991+0006019GF109991999999000251999999MW1381MW2491OC102521REMMET001-
0147726130147552010010316004+44267-071300FM-15+1910KMWN V0200301N021110003019N0000001N1-01101-01101999999ADDGD15991+0003019GF109991999999000251999999MW1381MW2491OC102471REMMET074METAR KMWN 031556Z 03041G48KT 0SM BLSN FZFG VV001 M11/M11 RMK VRY LGT ICG;
0093726130147552010010316597+44267-071299FM-15+1910KMWN V0300301N017510003019N0000001N1-01101-01101999999ADDAA101000395GD15991+0003019GF109991999999000251999999MW1381MW2491MW3771OC102371REMMET003001
0128726130147552010010317597+44267-071299FM-15+1910KMWN V0300301N020610001519N0000001N1-01201-01201999999ADDAA101000025AJ100519199999999GD15991+0001519GF109991999999000251999999KA1999M-01061KA2999N-01551MW1381MW2491OC102471REMMET001-
0091726130147552010010318597+44267-071299FM-15+1910KMWN V0300201N018010001519N0000001N1-01201-01201999999ADDAA101000025GD15991+0001519GF109991999999000251999999MW1381MW2491MW3711OC102371REMMET001-
0093726130147552010010319597+44267-071299FM-15+1910KMWN V0300201N021110003019N0000001N1-01101-01101999999ADDAA101000395GD15991+0003019GF109991999999000251999999MW1381MW2491MW3711OC102571REMMET003001
0157726130147552010010320494+44267-071300FM-15+1910KMWN V0200201N021110001519N0000001N1-01101-01101999999ADDGD15991+0001519GF109991999999000251999999MW1381MW2491MW3711OC102571REMMET078METAR KMWN 032049Z 02041G50KT 0SM -SN BLSN FZFG VV000 M11/M11 RMK VRY LGT ICG;
0026726130147552010010320598+44267-071299FM-15+1910KMWN V03099999999999999999N999999999+99999+99999999999ADDAA101000395REMMET003001
0093726130147552010010321597+44267-071299FM-15+1910KMWN V0300101N024210001519N0000001N1-01101-01101999999ADDAA101000395GD15991+0001519GF109991999999000251999999MW1381MW2491MW3711OC102681REMMET003001
0091726130147552010010322597+44267-071299FM-15+1910KMWN V0300201N020110001519N0000001N1-01101-01101999999ADDAA101000025GD15991+0001519GF109991999999000251999999MW1381MW2491MW3711OC102521REMMET001-
0257726130147552010010323484+44267-071300FM-15+1910KMWN V0200101N021110001519N0000001N1-01101-01101999999ADDAA106000891AJ100519199999999GD15991+0001519GF109991999999000251999999KA1999M-01051KA2999N-01191MW1381MW2491OC102311REMMET111METAR KMWN 032348Z 01041G45KT 0SM BLSN FZFG VV000 M11/M11 RMK SNE15 VRY LGT ICG 60003 4/020 931003 11105 21119;EQDQ01  00088PRCP06
0024726130147552010010323598+44267-071299FM-15+1910KMWN V03099999999999999999N999999999+99999+99999999999ADDAA101000025REMMET001-
0087726130147552010010400597+44267-071299FM-15+1910KMWN V0300101N015410001519N0000001N1-01201-01201999999ADDAA101000395GD15991+0001519GF109991999999000251999999MW1381MW2491OC102161REMMET003001
0093726130147552010010401597+44267-071299FM-15+1910KMWN V0303501N017510001519N0000001N1-01201-01201999999ADDAA101000595GD15991+0001519GF109991999999000251999999MW1381MW2491MW3711OC102371REMMET003002
0087726130147552010010402597+44267-071299FM-15+1910KMWN V0303401N020610001519N0000001N1-01301-01301999999ADDAA101000395GD15991+0001519GF109991999999000251999999MW1381MW2491OC102571REMMET003001
0147726130147552010010403524+44267-071300FM-15+1910KMWN V0203301N023710001519N0000001N1-01201-01201999999ADDGD15991+0001519GF109991999999000251999999MW1381MW2491OC102681REMMET074METAR KMWN 040352Z 33046G52KT 0SM BLSN FZFG VV000 M12/M12 RMK VRY LGT ICG;
0147726130147552010010404534+44267-071300FM-15+1910KMWN V0203301N024210001519N0000001N1-01201-01201999999ADDGD15991+0001519GF109991999999000251999999MW1381MW2491OC102881REMMET074METAR KMWN 040453Z 33047G56KT 0SM BLSN FZFG VV000 M12/M12 RMK VRY LGT ICG;
0222726130147552010010404596+44267-071299SOD  +1910KMWN V030999999999999999999999999999+99999+99999999999ADDAA124007991AJ100539599999999AL12400995AN1024009195GJ100005GK10005KA1240M-01055KA2240N-02105OE11240366636005345OE23240204799999999REMSOD0623   14755100103082  N0534          0000000880013-0060031036021EQDR01  00316AAP092
0251726130147552010010405524+44267-071300FM-15+1910KMWN V0203201N019510001519N0000001N1-01301-01301999999ADDAA106001091AJ100519199999999GD15991+0001519GF109991999999000251999999KA1999M-01071KA2999N-01331MW1381MW2491OC102421REMMET105METAR KMWN 040552Z 32038G47KT 0SM BLSN FZFG VV000 M13/M13 RMK VRY LGT ICG 60004 4/020 931005 11107 21133;EQDQ01  00108PRCP06
0147726130147552010010407004+44267-071300FM-15+1910KMWN V0203101N015410001519N0000001N1-01401-01401999999ADDGD15991+0001519GF109991999999000251999999MW1381MW2491OC101951REMMET074METAR KMWN 040656Z 31030G38KT 0SM BLSN FZFG VV000 M14/M14 RMK VRY LGT ICG;
0147726130147552010010408004+44267-071300FM-15+1910KMWN V0203201N027310001519N0000001N1-01401-01401999999ADDGD15991+0001519GF109991999999000251999999MW1381MW2491OC102931REMMET074METAR KMWN 040757Z 32053G57KT 0SM BLSN FZFG VV000 M14/M14 RMK VRY LGT ICG;
0147726130147552010010409004+44267-071300FM-15+1910KMWN V0203301N026210001519N0000001N1-01301-01301999999ADDGD15991+0001519GF109991999999000251999999MW1381MW2491OC103091REMMET074METAR KMWN 040856Z 33051G60KT 0SM BLSN FZFG VV000 M13/M13 RMK VRY LGT ICG;
0165726130147552010010410004+44267-071300FM-15+1910KMWN V0203301N024210003019N0001011N1-01401-01401999999ADDGD15991+0003019GF109991999999000251999999MW1381MW2491OC102681REMMET092METAR KMWN 040957Z 33047G52KT 1/16SM BLSN FZFG VV001 M14/M14 RMK VRY LGT ICG MOON DMLY VSBL;
0150726130147552010010410544+44267-071300FM-15+1910KMWN V0203301N015410003019N0001011N1-01401-01401999999ADDGD15991+0003019GF109991999999000251999999MW1381MW2491OC102211REMMET077METAR KMWN 041054Z 33030G43KT 1/16SM BLSN FZFG VV001 M14/M14 RMK VRY LGT ICG;
0247726130147552010010411524+44267-071300FM-15+1910KMWN V0203101N016510003019N0001011N1-01501-01501999999ADDAA124002391AJ100519199999999GD15991+0003019GF109991999999000251999999KA1999M-01291KA2999N-01561MW1381MW2491OC102011REMMET101METAR KMWN 041152Z 31032G39KT 1/16SM BLSN FZFG VV001 M15/M15 RMK VRY LGT ICG 70009 4/020 11129 21156;EQDQ01  00238PRCP24
0161726130147552010010412474+44267-071300FM-15+1910KMWN V0203201N011310001519N0000001N1-01501-01501999999ADDGD15991+0001519GF109991999999000251999999MW1381MW2491OC101801REMMET088METAR KMWN 041247Z 32022G35KT 0SM -SHSN BLSN FZFG VV000 M15/M15 RMK SHSNB20 VRY LGT ICG;
0024726130147552010010412598+44267-071299FM-15+1910KMWN V03099999999999999999N999999999+99999+99999999999ADDAA101000025REMMET001-
0085726130147552010010413597+44267-071299FM-15+1910KMWN V0303301N014910001519N0001011N1-01201-01201999999ADDAA101000025GD15991+0001519GF109991999999000251999999MW1381MW2491OC101751REMMET001-
0087726130147552010010414597+44267-071299FM-15+1910KMWN V0303401N009810003019N0001011N1-01201-01201999999ADDAA101000395GD15991+0003019GF109991999999000251999999MW1381MW2491OC101541REMMET003001
0157726130147552010010415534+44267-071300FM-15+1910KMWN V0203501N013410003019N0002011N1-01101-01101999999ADDGD15991+0003019GF109991999999000251999999MW1381MW2491OC101591REMMET084METAR KMWN 041553Z 35026G31KT 1/8SM BLSN FZFG VV001 M11/M11 RMK SHSNE00 VRY LGT ICG;
0138726130147552010010416524+44267-071300FM-15+1910KMWN V0203401N010810003019N0002011N1-01001-01001999999ADDGD15991+0003019GF109991999999000251999999MW1361MW2491REMMET073METAR KMWN 041652Z 34021KT 1/8SM DRSN FZFG VV001 M10/M10 RMK VRY LGT ICG;
0267726130147552010010417524+44267-071300FM-15+1910KMWN V0203601N009810006019N0002011N1-01001-01001999999ADDAA106000391AJ100519199999999GD15991+0006019GF109991999999000251999999KA1999M-01001KA2999N-01551MW1361MW2491OC101491REMMET121METAR KMWN 041752Z 36019G29KT 1/8SM DRSN FZFG VV002 M10/M10 RMK VRY LGT ICG SUN DMLY VSBL 60001 4/020 931001 11100 21155;EQDQ01  00038PRCP06
0163726130147552010010419004+44267-071300FM-15+1910KMWN V0203501N012910006019N0002011N1-01101-01101999999ADDGD15991+0006019GF109991999999000251999999MW1361MW2491OC101651REMMET090METAR KMWN 041859Z 35025G32KT 1/8SM DRSN FZFG VV002 M11/M11 RMK VRY LGT ICG SUN DMLY VSBL;
0176726130147552010010420004+44267-071300FM-15+1910KMWN V0203601N01131000151CN0002011N1-01001-01001999999ADDGD13991+0001519GF107991999999999999999999MW1361MW2481OC101441REMMET103METAR KMWN 041955Z 36022G28KT 1/8SM DRSN FZFG BKN000 M10/M10 RMK FZFG BKN000 VRY LGT ICG SUN DMLY VSBL;
0165726130147552010010421004+44267-071300FM-15+1910KMWN V0203601N00931000151CN0002011N1-01101-01101999999ADDGD13991+0001519GF107991999999999999999999MW1361MW2481REMMET100METAR KMWN 042055Z 36018KT 1/8SM DRSN FZFG BKN000 M11/M11 RMK FZFG BKN000 VRY LGT ICG SUN DMLY VSBL;
0150726130147552010010421544+44267-071300FM-15+1910KMWN V0203601N012310009019N0001011N1-01101-01101999999ADDGD15991+0009019GF109991999999000251999999MW1361MW2491OC101491REMMET077METAR KMWN 042154Z 36024G29KT 1/16SM DRSN FZFG VV003 M11/M11 RMK VRY LGT ICG;
0139726130147552010010423004+44267-071300FM-15+1910KMWN V0200101N012310006019N0001011N1-01201-01201999999ADDGD15991+0006019GF109991999999000251999999MW1491OC101391REMMET072METAR KMWN 042255Z 01024G27KT 1/16SM FZFG VV002 M12/M12 RMK VRY LGT ICG;
0200726130147552010010423504+44267-071300FM-15+1910KMWN V0200101N013910003019N0001011N1-01201-01201999999ADDAJ100519199999999GD15991+0003019GF109991999999000251999999KA1999M-01001KA2999N-01201MW1491OC101591REMMET090METAR KMWN 042350Z 01027G31KT 1/16SM FZFG VV001 M12/M12 RMK VRY LGT ICG 4/020 11100 21120;
0128726130147552010010500514+44267-071300FM-15+1910KMWN V0203601N012910003019N0001011N1-01201-01201999999ADDGD15991+0003019GF109991999999000251999999MW1491REMMET069METAR KMWN 050051Z 36025KT 1/16SM FZFG VV001 M12/M12 RMK VRY LGT ICG;
0139726130147552010010501534+44267-071300FM-15+1910KMWN V0203601N011310003019N0001011N1-01201-01201999999ADDGD15991+0003019GF109991999999000251999999MW1491OC101441REMMET072METAR KMWN 050153Z 36022G28KT 1/16SM FZFG VV001 M12/M12 RMK VRY LGT ICG;
0144726130147552010010503004+44267-071300FM-15+1910KMWN V0203601N011310009019N0001011N1-01101-01101999999ADDGD15991+0009019GF109991999999000251999999MW1491REMMET085METAR KMWN 050255Z 36022KT 1/16SM FZFG VV003 M11/M11 RMK VRY LGT ICG STARS DMLY VSBL;
0143726130147552010010504004+44267-071300FM-15+1910KMWN V0200101N010810006019N0001011N1-01101-01101999999ADDGD15991+0006019GF109991999999000251999999MW1491REMMET084METAR KMWN 050356Z 01021KT 1/16SM FZFG VV002 M11/M11 RMK VRY LGT ICG MOON DMLY VSBL;
0238726130147552010010504596+44267-071299SOD  +1910KMWN V030999999999999999999999999999+99999+99999999999ADDAA124000391AJ100519199999999AL12400095AN1024000395GJ100185GK10035KA1240M-00995KA2240N-01555OE11240330832003205OE23240146299999999REMSOD0623   14755100104074 NW0320          001800388001400040001001020EQDR01  00016AAP092R02   0206AJS033
0128726130147552010010505004+44267-071300FM-15+1910KMWN V0200101N012910003019N0001011N1-01101-01101999999ADDGD15991+0003019GF109991999999000251999999MW1491REMMET069METAR KMWN 050456Z 01025KT 1/16SM FZFG VV001 M11/M11 RMK VRY LGT ICG;
0204726130147552010010505504+44267-071300FM-15+1910KMWN V0200101N010810003019N0001011N1-01101-01101999999ADDAJ100519199999999GD15991+0003019GF109991999999000251999999KA1999M-01021KA2999N-01201MW1491REMMET102METAR KMWN 050550Z 01021KT 1/16SM FZFG VV001 M11/M11 RMK VRY LGT ICG MOON DMLY VSBL 4/020 11102 21120;
0125726130147552010010507004+44267-071300FM-15+1910KMWN V0200101N011810001519N0000001N1-01001-01001999999ADDGD15991+0001519GF109991999999000251999999MW1491REMMET066METAR KMWN 050655Z 01023KT 0SM FZFG VV000 M10/M10 RMK VRY LGT ICG;
0143726130147552010010508004+44267-071300FM-15+1910KMWN V0200101N011310003019N0001011N1-01001-01001999999ADDGD15991+0003019GF109991999999000251999999MW1491REMMET084METAR KMWN 050756Z 01022KT 1/16SM FZFG VV001 M10/M10 RMK VRY LGT ICG MOON DMLY VSBL;
0144726130147552010010509004+44267-071300FM-15+1910KMWN V0200101N010810009019N0002011N1-01001-01001999999ADDGD15991+0009019GF109991999999000251999999MW1491REMMET085METAR KMWN 050855Z 01021KT 1/8SM FZFG VV003 M10/M10 RMK VRY LGT ICG CORONA ARND MOON;
0145726130147552010010510004+44267-071300FM-15+1910KMWN V0200101N010810006019N0001011N1-01001-01001999999ADDGD15991+0006019GF109991999999000251999999MW1491REMMET086METAR KMWN 050958Z 01021KT 1/16SM FZFG VV002 M10/M10 RMK VRY LGT ICG CORONA ARND MOON;
0071726130147552010010510597+44267-071299FM-15+1910KMWN V0300101N009310009019N0001011N1-00901-00901999999ADDAA101000025GD15991+0009019GF109991999999000251999999MW1491REMMET001-
0140726130147552010010511597+44267-071299FM-15+1910KMWN V0300101N01181003001CN0002011N1-01001-01001999999ADDAA101000025AA224000391AJ100519199999999GD13991+0001519GD23991+0030019GF107991999999999999999999KA1999M-00901KA2999N-01071MW1481REMMET001-
0125726130147552010010513004+44267-071300FM-15+1910KMWN V0200101N012310001519N0000001N1-01001-01001999999ADDGD15991+0001519GF109991999999000251999999MW1491REMMET066METAR KMWN 051259Z 01024KT 0SM FZFG VV000 M10/M10 RMK VRY LGT ICG;
0142726130147552010010513514+44267-071300FM-15+1910KMWN V0200101N012310003019N0001011N1-01001-01001999999ADDGD15991+0003019GF109991999999000251999999MW1491REMMET083METAR KMWN 051351Z 01024KT 1/16SM FZFG VV001 M10/M10 RMK VRY LGT ICG SUN DMLY VSBL;
0153726130147552010010514534+44267-071300FM-15+1910KMWN V0200201N012310001519N0001011N1-00901-00901999999ADDGD15991+0001519GF109991999999000251999999MW1491OC101391REMMET086METAR KMWN 051453Z 02024G27KT 1/16SM FZFG VV000 M09/M09 RMK VRY LGT ICG SUN DMLY VSBL;
0142726130147552010010516004+44267-071300FM-15+1910KMWN V0200201N010310001519N0001011N1-00901-00901999999ADDGD15991+0001519GF109991999999000251999999MW1491REMMET083METAR KMWN 051559Z 02020KT 1/16SM FZFG VV000 M09/M09 RMK VRY LGT ICG SUN DMLY VSBL;
0125726130147552010010516514+44267-071300FM-15+1910KMWN V0200201N006210001519N0000001N1-00901-00901999999ADDGD15991+0001519GF109991999999000251999999MW1491REMMET066METAR KMWN 051651Z 02012KT 0SM FZFG VV000 M09/M09 RMK VRY LGT ICG;
0186726130147552010010517544+44267-071300FM-15+1910KMWN V0200201N006710001519N0000001N1-01001-01001999999ADDAJ100519199999999GD15991+0001519GF109991999999000251999999KA1999M-00831KA2999N-00981MW1491REMMET084METAR KMWN 051754Z 02013KT 0SM FZFG VV000 M10/M10 RMK VRY LGT ICG 4/020 11083 21098;
0279726130147552010010519004+44267-071300FM-15+1910KMWN V0203501N005710150019N0160931N1-00801-00901999999ADDGD12991+0001519GD22991+0060019GD33991+0150019GD43991+9999999GF107991999999999999999999MW1411REMMET175METAR KMWN 051857Z COR 35011KT 10SM PRFG BKN/// SCT000 SCT020 BKN050 BKN100 BKN180 M08/M09 RMK VIS E-S 1/2 PRFG SCT000 ACSL NW-NE AND S-SW BBLO BKN ALQDS LIMITING VIS TO 10SM;
0194726130147552010010520004+44267-071300FM-15+1910KMWN V0203501N006710300019N0008051N1-00801-00901999999ADDGD12991+0001519GD23991+0300019GD33991+0540019GF107991999999999999999999MW1481REMMET105METAR KMWN 051955Z 35013KT 1/2SM FZFG SCT000 BKN100 BKN180 M08/M09 RMK FZFG SCT000 FZFG INTMT INTMT PRFG;
0129726130147552010010521004+44267-071300FM-15+1910KMWN V0203501N00821000151CN0001011N1-01001-01001999999ADDGD13991+0001519GF107991999999999999999999MW1481REMMET070METAR KMWN 052055Z 35016KT 1/16SM FZFG BKN000 M10/M10 RMK FZFG BKN000;
0230726130147552010010522004+44267-071300FM-15+1910KMWN V0203501N011319999999N1600001N1-01101-01401999999ADDGD13991+9999999GD21991+9999999GD31991+0001519GD42991+0540019MW1411OC101291REMMET144METAR KMWN 052156Z 35022G25KT 100SM PRFG BKN/// FEW/// FEW000 SCT180 SCT240 M11/M14 RMK VIS NW-NE 1/2 PRFG FEW000 TPS LWR BKN048 TPS LWR FEW058;
0227726130147552010010522544+44267-071300FM-15+1910KMWN V0203501N006219999999N1600001N1-01101-01501999999ADDGD13991+9999999GD21991+9999999GD32991+0540019GD41991+9999999REMMET155METAR KMWN 052254Z 35012KT 100SM BKN/// FEW/// FEW/// SCT180 SCT240 M11/M15 RMK VIS NW-N 2 TPS LWR BKN048 TPS LWR FEW058 BBLO FEW NW-N LIMITING VIS TO 2SM;
0243726130147552010010523504+44267-071300FM-15+1910KMWN V0203601N010319999999N1600001N1-01001-01201999999ADDAJ100519199999999GD13991+9999999GD21991+9999999GD31991+0090019GD42991+0540019KA1999M-00771KA2999N-01221REMMET128METAR KMWN 052350Z 36020KT 100SM BKN/// FEW/// FEW030 SCT180 SCT240 M10/M12 RMK TPS LWR BKN041 TPS LWR FEW057 4/020 11077 21122;
0174726130147552010010600534+44267-071300FM-15+1910KMWN V0203501N00981072001CN0001011N1-01001-01001999999ADDGD13991+0001519GD23991+0720019GF107991999999999999999999MW1481OC101441REMMET092METAR KMWN 060053Z 35019G28KT 1/16SM FZFG BKN000 BKN240 M10/M10 RMK FZFG BKN000 VRY LGT ICG;
0152726130147552010010601494+44267-071300FM-15+1910KMWN V0203401N01181000151CN0001011N1-01101-01101999999ADDGD13991+0001519GF107991999999999999999999MW1481OC101541REMMET085METAR KMWN 060149Z 34023G30KT 1/16SM FZFG BKN000 M11/M11 RMK FZFG BKN000 VRY LGT ICG;
0201726130147552010010602524+44267-071300FM-15+1910KMWN V0203201N016519999999N1600001N1-01001-01201999999ADDGD13991+9999999GD21991+9999999GD31991+0015019GD41991+0240019REMMET110METAR KMWN 060252Z 32032KT 100SM BKN/// FEW/// FEW005 FEW080 SCT180 M10/M12 RMK TPS LWR BKN058 TPS LWR FEW060;EQDQ01+000042SCOTCV
0245726130147552010010604004+44267-071300FM-15+1910KMWN V0203301N015919999999N1600001N1-01001-01201999999ADDGD13991+9999999GD23991+9999999GD31991+0001519GD41991+0015019MW1411REMMET148METAR KMWN 060357Z 33031KT 110SM BCFG BKN/// BKN/// FEW000 FEW005 SCT060 SCT100 M10/M12 RMK BCFG FEW000 W-E TPS LWR BKN058 BBLO BKN W-E VIS LWR W-E;EQDQ01+000042SCOTCV
0220726130147552010010604544+44267-071300FM-15+1910KMWN V0203201N020119999999N1600001N1-01101-01201999999ADDGD13991+9999999GD21991+9999999GD31991+0001519GD41991+0012019REMMET129METAR KMWN 060454Z 32039KT 110SM BKN/// FEW/// FEW000 FEW004 FEW050 FEW100 M11/M12 RMK TPS LWR BKN060 BBLO FEW NE-E VIS LWR NE-E;EQDQ01+000022SCOTCV
0203726130147552010010604596+44267-071299SOD  +1910KMWN V030999999999999999999999999999+99999+99999999999ADDAA124000025AJ100519599999999AL12400035AN1024000039GJ100255GK10055KA1240M-00775KA2240N-01495OE11240210132023515OE23240109199999999REMSOD0623   14755100105047 NW2351          00250057700180005-   -  020
0202726130147552010010605514+44267-071300FM-15+1910KMWN V0203001N01801000151CN0001011N1-01501-01501999999ADDAJ100519199999999GD13991+0001519GF107991999999999999999999KA1999M-00941KA2999N-01501MW1481REMMET100METAR KMWN 060551Z 30035KT 1/16SM FZFG BKN000 M15/M15 RMK FZFG BKN000 VRY LGT ICG 4/020 11094 21150;
0143726130147552010010607004+44267-071300FM-15+1910KMWN V0203201N022110006019N0001011N1-01301-01301999999ADDGD15991+0006019GF109991999999000251999999MW1491REMMET084METAR KMWN 060659Z 32043KT 1/16SM FZFG VV002 M13/M13 RMK VRY LGT ICG MOON DMLY VSBL;
0139726130147552010010607524+44267-071300FM-15+1910KMWN V0203301N014910003019N0001011N1-01301-01301999999ADDGD15991+0003019GF109991999999000251999999MW1491OC101851REMMET072METAR KMWN 060752Z 33029G36KT 1/16SM FZFG VV001 M13/M13 RMK VRY LGT ICG;
0145726130147552010010608534+44267-071300FM-15+1910KMWN V0203201N022110006019N0001011N1-01401-01401999999ADDGD15991+0006019GF109991999999000251999999MW1491REMMET086METAR KMWN 060853Z 32043KT 1/16SM FZFG VV002 M14/M14 RMK VRY LGT ICG CORONA ARND MOON;
0144726130147552010010610004+44267-071300FM-15+1910KMWN V0203201N023710009019N0002011N1-01301-01301999999ADDGD15991+0009019GF109991999999000251999999MW1491REMMET085METAR KMWN 060958Z 32046KT 1/8SM FZFG VV003 M13/M13 RMK VRY LGT ICG CORONA ARND MOON;
0144726130147552010010611004+44267-071300FM-15+1910KMWN V0203201N021610009019N0002011N1-01501-01501999999ADDGD15991+0009019GF109991999999000251999999MW1491REMMET085METAR KMWN 061056Z 32042KT 1/8SM FZFG VV003 M15/M15 RMK VRY LGT ICG CORONA ARND MOON;
0218726130147552010010611524+44267-071300FM-15+1910KMWN V0203201N02261000151CN0002011N1-01601-01601999999ADDAJ100519199999999GD13991+0001519GF107991999999999999999999KA1999M-01221KA2999N-01681MW1481REMMET116METAR KMWN 061152Z 32044KT 1/8SM FZFG BKN000 M16/M16 RMK FZFG BKN000 VRY LGT ICG CORONA ARND MOON 4/020 11122 21168;
0141726130147552010010612474+44267-071300FM-15+1910KMWN V0203201N01951000151CN0001011N1-01501-01501999999ADDGD13991+0001519GF107991999999999999999999MW1481REMMET082METAR KMWN 061247Z 32038KT 1/16SM FZFG BKN000 M15/M15 RMK FZFG BKN000 VRY LGT ICG;
0195726130147552010010613514+44267-071300FM-15+1910KMWN V0203201N016519999999N1600001N1-01301-01401999999ADDGD11991+0001519GD21991+0060019GD31991+0360019GD44991+9999999REMMET104METAR KMWN 061351Z 32032KT 120SM OVC/// FEW000 FEW020 FEW120 M13/M14 RMK ACSL DSNT NE-SE TPS LWR OVC054;EQDQ01+000022SCOTCV
0195726130147552010010615004+44267-071300FM-15+1910KMWN V0203201N021119999999N1600001N1-01301-01501999999ADDGD12991+0001519GD22991+0060019GD32991+0360019GD43991+9999999REMMET104METAR KMWN 061456Z 32041KT 120SM BKN/// SCT000 SCT020 SCT120 M13/M15 RMK ACSL DSNT NE-SE TPS LWR BKN057;EQDQ01+000042SCOTCV
0249726130147552010010615534+44267-071300FM-15+1910KMWN V0203201N019019999999N0002011N1-01201-01201999999ADDGD12991+0001519GD22991+0060019GD32991+0360019GD43991+9999999MW1481REMMET152METAR KMWN 061553Z 32037KT 1/8SM FZFG BKN/// SCT000 SCT020 SCT120 M12/M12 RMK VIS NW-E 120 FZFG SCT000 SCSL ALQDS TPS LWR BKN057 VRY LGT ICG FZFG INTMT;EQDQ01+000042SCOTCV
0257726130147552010010616534+44267-071300FM-15+1910KMWN V0203201N01951006001CN0002011N1-01401-01401999999ADDGD13991+0001519GD23991+0060019GD33991+0240019GD43991+9999999GF107991999999999999999999MW1481REMMET153METAR KMWN 061653Z 32038KT 1/8SM FZFG BKN/// BKN000 BKN020 BKN080 M14/M14 RMK VIS NW-NE 100 FZFG BKN000 SCSL ALQDS TPS LWR BKN057 VRY LGT ICG FZFG INTMT;
0235726130147552010010618004+44267-071300FM-15+1910KMWN V0203001N01701024001CN0001011N1-01401-01401999999ADDAJ100519199999999GD13991+0001519GD23991+0240019GF107991999999999999999999KA1999M-01081KA2999N-01631MW1481OC102011REMMET110METAR KMWN 061755Z 30033G39KT 1/16SM FZFG BKN000 BKN080 M14/M14 RMK FZFG BKN000 VRY LGT ICG 4/020 11108 21163;
0163726130147552010010618524+44267-071300FM-15+1910KMWN V0203001N01651024001CN0001011N1-01401-01401999999ADDGD13991+0001519GD23991+0240019GF107991999999999999999999MW1481REMMET089METAR KMWN 061852Z 30032KT 1/16SM FZFG BKN000 BKN080 M14/M14 RMK FZFG BKN000 VRY LGT ICG;
0193726130147552010010620004+44267-071300FM-15+1910KMWN V0203301N017019999999N1287471N1-01101-01201999999ADDGD11991+0001519GD22991+0045019GD32991+0060019GD43991+9999999MW1411REMMET115METAR KMWN 061956Z 33033KT 80SM BCFG BKN/// FEW000 SCT015 SCT020 M11/M12 RMK BCFG FEW000 SCSL ALQDS TPS LWR BKN058;
0219726130147552010010621004+44267-071300FM-15+1910KMWN V0203201N01951006001CN1287471N1-01001-01201999999ADDGD12991+0001519GD23991+0060019GD33991+0075019GD43991+9999999GF107991999999999999999999MW1411REMMET115METAR KMWN 062055Z 32038KT 80SM BCFG BKN/// SCT000 BKN020 BKN025 M10/M12 RMK BCFG SCT000 SCSL ALQDS TPS LWR BKN060;
0139726130147552010010622004+44267-071300FM-15+1910KMWN V0203101N024210003019N0001011N1-01201-01201999999ADDGD15991+0003019GF109991999999000251999999MW1491OC102931REMMET072METAR KMWN 062157Z 31047G57KT 1/16SM FZFG VV001 M12/M12 RMK VRY LGT ICG;
0128726130147552010010622504+44267-071300FM-15+1910KMWN V0203001N027310003019N0001011N1-01301-01301999999ADDGD15991+0003019GF109991999999000251999999MW1491REMMET069METAR KMWN 062250Z 30053KT 1/16SM FZFG VV001 M13/M13 RMK VRY LGT ICG;
0224726130147552010010623514+44267-071300FM-15+1910KMWN V0203001N02831000151CN0001011N1-01401-01401999999ADDAJ100519199999999GD13991+0001519GF107991999999999999999999KA1999M-00991KA2999N-01451MW1381MW2481OC103091REMMET108METAR KMWN 062351Z 30055G60KT 1/16SM BLSN FZFG BKN000 M14/M14 RMK FZFG BKN000 VRY LGT ICG 4/020 11099 21145;
0172726130147552010010700484+44267-071300FM-15+1910KMWN V0203101N02881000151CN0002011N1-01501-01501999999ADDGD13991+0001519GF107991999999999999999999MW1381MW2481OC103291REMMET099METAR KMWN 070048Z 31056G64KT 1/8SM BLSN FZFG BKN000 M15/M15 RMK FZFG BKN000 BKN V SCT VRY LGT ICG;
0234726130147552010010701544+44267-071300FM-15+1910KMWN V0203201N030912200019N0003021N1-01301-01301999999ADDGD12991+0001519GD22991+0030019GD32991+0150019GF104991999999999999999999MW1381MW2481REMMET139METAR KMWN 070154Z 32060KT 3/16SM BLSN FZFG SCT000 SCT010 SCT050 M13/M13 RMK VIS N 45 FZFG SCT000 ACSL OHD AND E-SW FZFG INTMT VRY LGT ICG;
0163726130147552010010702524+44267-071300FM-15+1910KMWN V0203201N02931000151CN0001011N1-01301-01301999999ADDGD13991+0001519GF107991999999999999999999MW1381MW2481OC103401REMMET090METAR KMWN 070252Z 32057G66KT 1/16SM BLSN FZFG BKN000 M13/M13 RMK FZFG BKN000 VRY LGT ICG;
0163726130147552010010704004+44267-071300FM-15+1910KMWN V0203201N03141000151CN0001011N1-01301-01301999999ADDGD13991+0001519GF107991999999999999999999MW1381MW2481OC103341REMMET090METAR KMWN 070355Z 32061G65KT 1/16SM BLSN FZFG BKN000 M13/M13 RMK FZFG BKN000 VRY LGT ICG;
0222726130147552010010704596+44267-071299SOD  +1910KMWN V030999999999999999999999999999+99999+99999999999ADDAA124000091AJ100519599999999AL12400095AN1024000095GJ103755GK10685KA1240M-00995KA2240N-01665OE11240357632023535OE23240222299999999REMSOD0623   14755100106080 NW2353          037506856001400020000000020EQDR01  00006AAP092
0163726130147552010010705004+44267-071300FM-15+1910KMWN V0203201N03191000151CN0001011N1-01201-01201999999ADDGD13991+0001519GF107991999999999999999999MW1381MW2481OC103501REMMET090METAR KMWN 070455Z 32062G68KT 1/16SM BLSN FZFG BKN000 M12/M12 RMK FZFG BKN000 VRY LGT ICG;
0255726130147552010010705544+44267-071300FM-15+1910KMWN V0203201N029810075019N0001011N1-01301-01301999999ADDAJ100519199999999GD12991+0001519GD23991+0075019GF107991999999999999999999KA1999M-01141KA2999N-01551MW1381MW2481OC103291REMMET124METAR KMWN 070554Z 32058G64KT 1/16SM BLSN FZFG SCT000 BKN025 M13/M13 RMK FZFG SCT000 ACSL OHD VRY LGT ICG 4/020 11114 21155;
0215726130147552010010707004+44267-071300FM-15+1910KMWN V0203201N032410075019N0002011N1-01201-01201999999ADDGD12991+0001519GD23991+0075019GD33991+0120019GF107991999999999999999999MW1381MW2481OC103451REMMET112METAR KMWN 070655Z 32063G67KT 1/8SM BLSN FZFG SCT000 BKN025 BKN040 M12/M12 RMK FZFG SCT000 ACSL OHD VRY LGT ICG;
0201726130147552010010707544+44267-071300FM-15+1910KMWN V0203201N03191007501CN0001011N1-01301-01301999999ADDGD13991+0001519GD24991+0075019GF108991999999999999999999MW1381MW2481OC103551REMMET113METAR KMWN 070754Z 32062G69KT 1/16SM BLSN FZFG BKN000 OVC025 M13/M13 RMK FZFG BKN000 ACSL OHD VRY LGT ICG BINOVC;
0181726130147552010010708514+44267-071300FM-15+1910KMWN V0203201N03091007501CN0001011N1-01201-01201999999ADDGD13991+0001519GD24991+0075019GF108991999999999999999999MW1381MW2481REMMET101METAR KMWN 070851Z 32060KT 1/16SM BLSN FZFG BKN000 OVC025 M12/M12 RMK FZFG BKN000 VRY LGT ICG BINOVC;
0194726130147552010010709524+44267-071300FM-15+1910KMWN V0203201N03291009001CN0001011N1-01301-01301999999ADDGD13991+0001519GD23991+0090019GF107991999999999999999999MW1381MW2481OC103701REMMET106METAR KMWN 070952Z 32064G72KT 1/16SM BLSN FZFG BKN000 BKN030 M13/M13 RMK FZFG BKN000 ACSL OHD VRY LGT ICG;
0150726130147552010010711004+44267-071300FM-15+1910KMWN V0203201N031410003019N0001011N1-01301-01301999999ADDGD15991+0003019GF109991999999000251999999MW1381MW2491OC103601REMMET077METAR KMWN 071057Z 32061G70KT 1/16SM BLSN FZFG VV001 M13/M13 RMK VRY LGT ICG;
0211726130147552010010711544+44267-071300FM-15+1910KMWN V0203101N031410003019N0001011N1-01501-01501999999ADDAJ100519199999999GD15991+0003019GF109991999999000251999999KA1999M-01151KA2999N-01511MW1381MW2491OC103551REMMET095METAR KMWN 071154Z 31061G69KT 1/16SM BLSN FZFG VV001 M15/M15 RMK VRY LGT ICG 4/020 11115 21151;
0150726130147552010010713004+44267-071300FM-15+1910KMWN V0203001N031410001519N0001011N1-01401-01401999999ADDGD15991+0001519GF109991999999000251999999MW1381MW2491OC103761REMMET077METAR KMWN 071255Z 30061G73KT 1/16SM BLSN FZFG VV000 M14/M14 RMK VRY LGT ICG;
0150726130147552010010714004+44267-071300FM-15+1910KMWN V0203001N032410001519N0001011N1-01601-01601999999ADDGD15991+0001519GF109991999999000251999999MW1381MW2491OC103501REMMET077METAR KMWN 071357Z 30063G68KT 1/16SM BLSN FZFG VV000 M16/M16 RMK VRY LGT ICG;
0150726130147552010010714534+44267-071300FM-15+1910KMWN V0203001N030410001519N0001011N1-01401-01401999999ADDGD15991+0001519GF109991999999000251999999MW1381MW2491OC103501REMMET077METAR KMWN 071453Z 30059G68KT 1/16SM BLSN FZFG VV000 M14/M14 RMK VRY LGT ICG;
0153726130147552010010715534+44267-071300FM-15+1910KMWN V0203001N026810003019N0001011N1-01501-01501999999ADDGD15991+0003019GF109991999999000251999999MW1491OC102981REMMET086METAR KMWN 071553Z 30052G58KT 1/16SM FZFG VV001 M15/M15 RMK VRY LGT ICG SUN DMLY VSBL;
0152726130147552010010716544+44267-071300FM-15+1910KMWN V0203001N02261000151CN0001011N1-01501-01501999999ADDGD13991+0001519GF107991999999999999999999MW1481OC102621REMMET085METAR KMWN 071654Z 30044G51KT 1/16SM FZFG BKN000 M15/M15 RMK FZFG BKN000 VRY LGT ICG;
0214726130147552010010717544+44267-071300FM-15+1910KMWN V0203001N026210006019N0001011N1-01501-01501999999ADDAJ100519199999999GD15991+0006019GF109991999999000251999999KA1999M-01401KA2999N-01571MW1491OC102881REMMET104METAR KMWN 071754Z 30051G56KT 1/16SM FZFG VV002 M15/M15 RMK VRY LGT ICG SUN DMLY VSBL 4/020 11140 21157;
0139726130147552010010719004+44267-071300FM-15+1910KMWN V0203001N024710003019N0001011N1-01401-01401999999ADDGD15991+0003019GF109991999999000251999999MW1491OC102831REMMET072METAR KMWN 071856Z 30048G55KT 1/16SM FZFG VV001 M14/M14 RMK VRY LGT ICG;
0153726130147552010010720004+44267-071300FM-15+1910KMWN V0203001N024210003019N0001011N1-01401-01401999999ADDGD15991+0003019GF109991999999000251999999MW1491OC102731REMMET086METAR KMWN 071958Z 30047G53KT 1/16SM FZFG VV001 M14/M14 RMK VRY LGT ICG SUN DMLY VSBL;
0152726130147552010010720514+44267-071300FM-15+1910KMWN V0203001N02371000151CN0001011N1-01401-01401999999ADDGD13991+0001519GF107991999999999999999999MW1481OC102621REMMET085METAR KMWN 072051Z 30046G51KT 1/16SM FZFG BKN000 M14/M14 RMK FZFG BKN000 VRY LGT ICG;
0139726130147552010010721534+44267-071300FM-15+1910KMWN V0203001N024710006019N0001011N1-01401-01401999999ADDGD15991+0006019GF109991999999000251999999MW1491OC102731REMMET072METAR KMWN 072153Z 30048G53KT 1/16SM FZFG VV002 M14/M14 RMK VRY LGT ICG;
0152726130147552010010722494+44267-071300FM-15+1910KMWN V0203001N02261000151CN0001011N1-01401-01401999999ADDGD13991+0001519GF107991999999999999999999MW1481OC102571REMMET085METAR KMWN 072249Z 30044G50KT 1/16SM FZFG BKN000 M14/M14 RMK FZFG BKN000 VRY LGT ICG;
0213726130147552010010723544+44267-071300FM-15+1910KMWN V0203001N023112200019N0003021N1-01601-01601999999ADDAJ100519199999999GD12991+0001519GF104991999999999999999999KA1999M-01401KA2999N-01601MW1481REMMET111METAR KMWN 072354Z 30045KT 3/16SM FZFG SCT000 M16/M16 RMK FZFG SCT000 FZFG INTMT VRY LGT ICG 4/020 11140 21160;
0215726130147552010010800544+44267-071300FM-15+1910KMWN V0203001N023112200019N1126541N1-01301-01601999999ADDGD12991+9999999GD22991+9999999GD31991+0001519GD41991+0006019REMMET124METAR KMWN 080054Z 30045KT 70SM SCT/// SCT/// FEW000 FEW002 M13/M16 RMK TPS LWR SCT045 BBLO SCT W-NE INTMT FZFG VRY LGT ICG;EQDQ01+000022SCOTCV
0151726130147552010010801484+44267-071300FM-15+1910KMWN V0203001N018512200019N0002011N1-01501-01501999999ADDGD12991+0001519GF104991999999999999999999MW1481REMMET092METAR KMWN 080148Z 30036KT 1/8SM FZFG SCT000 M15/M15 RMK FZFG SCT000 FZFG INTMT VRY LGT ICG;
0268726130147552010010802534+44267-071300FM-15+1910KMWN V0203001N014919999999N1046071N1-01401-01601999999ADDGD13991+9999999GD22991+9999999GD31991+0001519GD41991+0012019REMMET177METAR KMWN 080253Z 30029KT 65SM BKN/// SCT/// FEW000 FEW004 M14/M16 RMK VIS N-NE 2 SCSL NE AND DSNT NW-E TPS LWR BKN056 BBLO SCT N-NE LIMITING VIS TO 2SM INTMT FZFG VRY LGT ICG;EQDQ01+000022SCOTCV
0152726130147552010010803504+44267-071300FM-15+1910KMWN V0203001N00511000151CN0001011N1-01301-01301999999ADDGD13991+0001519GF107991999999999999999999MW1481REMMET093METAR KMWN 080350Z 30010KT 1/16SM FZFG BKN000 M13/M13 RMK FZFG BKN000 FZFG INTMT VRY LGT ICG;
0222726130147552010010804596+44267-071299SOD  +1910KMWN V030999999999999999999999999999+99999+99999999999ADDAA124000091AJ100519599999999AL12400095AN1024000095GJ100005GK10005KA1240M-01165KA2240N-01605OE11240393432007545OE23240253599999999REMSOD0623   14755100107088 NW0754          000000087001100030000000020EQDR01  00006AAP092
0170726130147552010010805004+44267-071300FM-15+1910KMWN V0203201N004619999999N1287471N1-01201-01401999999ADDGD13991+9999999GD21991+9999999GD31991+0006019REMMET094METAR KMWN 080458Z 32009KT 80SM BKN/// FEW/// FEW002 M12/M14 RMK TPS LWR BKN053 BBLO FEW N-NE;EQDQ01+000022SCOTCV
0195726130147552010010805544+44267-071300FM-15+1910KMWN V0203401N005719999999N1287471N1-01301-01501999999ADDAJ100519199999999GD11991+0450019GD23991+9999999KA1999M-01191KA2999N-01621REMMET091METAR KMWN 080554Z 34011KT 80SM BKN/// FEW150 M13/M15 RMK TPS LWR BKN045 4/020 11119 21162;EQDQ01+000022SCOTCV
0134726130147552010010806494+44267-071300FM-15+1910KMWN V0203301N008719999999N1367941N1-01101-01601999999ADDGD11991+0450019GD23991+9999999REMMET073METAR KMWN 080649Z 33017KT 85SM BKN/// FEW150 M11/M16 RMK TPS LWR BKN045;EQDQ01+000022SCOTCV
0194726130147552010010808004+44267-071300FM-15+1910KMWN V0203301N007712200019N1600001N1-01101-01601999999ADDGD12991+9999999GD22991+9999999GD31991+0300019GD41991+0450019REMMET103METAR KMWN 080756Z 33015KT 100SM SCT/// SCT/// FEW100 FEW150 M11/M16 RMK TPS LWR SCT037 TPS LWR SCT042;EQDQ01+000022SCOTCV
0194726130147552010010809004+44267-071300FM-15+1910KMWN V0203301N006712200019N1600001N1-01201-01601999999ADDGD12991+9999999GD22991+9999999GD31991+0270019GD41991+0450019REMMET103METAR KMWN 080856Z 33013KT 100SM SCT/// SCT/// FEW090 FEW150 M12/M16 RMK TPS LWR SCT037 TPS LWR SCT041;EQDQ01+000022SCOTCV
0208726130147552010010810004+44267-071300FM-15+1910KMWN V0203501N003112200019N1600001N1-01201-01701999999ADDGD12991+9999999GD22991+9999999GD31991+0270019GD42991+0450019GF104991999999999999999999REMMET110METAR KMWN 080955Z 35006KT 100SM SCT/// SCT/// FEW090 SCT150 SCT180 M12/M17 RMK TPS LWR SCT037 TPS LWR SCT040;
0164726130147552010010810544+44267-071300FM-15+1910KMWN V0203401N005110540019N1600001N1-01201-01601999999ADDGD11991+0300019GD23991+0540019GD32991+9999999GF107991999999999999999999REMMET081METAR KMWN 081054Z 34010KT 100SM SCT/// FEW100 BKN180 M12/M16 RMK TPS LWR SCT040;
0225726130147552010010811544+44267-071300FM-15+1910KMWN V0203201N002110180019N1600001N1-01201-01601999999ADDAJ100519199999999GD13991+0180019GD23991+0540019GD32991+9999999GF107991999999999999999999KA1999M-01131KA2999N-01301REMMET099METAR KMWN 081154Z 32004KT 100SM SCT/// BKN060 BKN180 M12/M16 RMK TPS LWR SCT040 4/020 11113 21130;
0185726130147552010010813004+44267-071300FM-15+1910KMWN V0202601N002610300019N1448401N1-01301-01701999999ADDGD11991+0180019GD23991+0300019GD33991+0450019GD42991+9999999GF107991999999999999999999REMMET087METAR KMWN 081255Z 26005KT 90SM SCT/// FEW060 BKN100 BKN150 M13/M17 RMK TPS LWR SCT040;
0185726130147552010010813494+44267-071300FM-15+1910KMWN V0203201N003610300019N1448401N1-01301-01501999999ADDGD12991+0180019GD23991+0300019GD33991+0450019GD42991+9999999GF107991999999999999999999REMMET087METAR KMWN 081349Z 32007KT 90SM SCT/// SCT060 BKN100 BKN150 M13/M15 RMK TPS LWR SCT040;
0201726130147552010010814534+44267-071300FM-15+1910KMWN V0203501N004110240019N1287471N1-01201-01401999999ADDGD12991+0120019GD23991+0240019GD33991+0450019GD42991+9999999GF107991999999999999999999REMMET103METAR KMWN 081453Z 35008KT 80SM SCT/// SCT040 BKN080 BKN150 M12/M14 RMK VIRGA DSNT S-SW TPS LWR SCT040;
0231726130147552010010815504+44267-071300FM-15+1910KMWN V0200101N004110240019N0804671N1-01201-01401999999ADDGD12991+9999999GD21991+9999999GD32991+0120019GD43991+0240019GF107991999999999999999999REMMET114METAR KMWN 081550Z 01008KT 50SM SCT/// FEW/// SCT040 BKN080 M12/M14 RMK SH DSNT S-W TPS LWR SCT040 TPS LWR FEW052;EQDQ01 999993SCOCIG
0176726130147552010010816494+44267-071300FM-15+1910KMWN V0200201N005710240019N0804671N1-01201-01401999999ADDGD12991+0120019GD23991+0240019GD32991+9999999GF107991999999999999999999REMMET093METAR KMWN 081649Z 02011KT 50SM SCT/// SCT040 BKN080 M12/M14 RMK SH DSNT S-NW TPS LWR SCT040;
0252726130147552010010817504+44267-071300FM-15+1910KMWN V0200101N007710060019N0482801N1-01201-01401999999ADDAJ100519199999999GD13991+0060019GD24991+0180019GD32991+9999999GF108991999999999999999999KA1999M-01171KA2999N-01301REMMET126METAR KMWN 081750Z 01015KT 30SM SCT/// BKN020 OVC060 M12/M14 RMK SH DSNT ALQDS TPS LWR SCT045 SUN DMLY VSBL 4/020 11117 21130;
0077726130147552010010818597+44267-071299FM-15+1910KMWN V0300101N007210012019N0004021N1-01301-01301999999ADDAA101000025GD15991+0012019GF109991999999000251999999MW1491MW2711REMMET001-
0107726130147552010010819597+44267-071299FM-15+1910KMWN V0300201N00931018001CN0003021N1-01301-01301999999ADDAA101000025GD13991+0001519GD23991+0180019GD34991+0630019GF108991999999999999999999MW1481MW2711REMMET001-
0071726130147552010010820597+44267-071299FM-15+1910KMWN V0300201N008710003019N0001011N1-01401-01401999999ADDAA101000025GD15991+0003019GF109991999999000251999999MW1491REMMET001-
0071726130147552010010821597+44267-071299FM-15+1910KMWN V0300101N007210001519N0001011N1-01401-01401999999ADDAA101000025GD15991+0001519GF109991999999000251999999MW1491REMMET001-
0079726130147552010010822597+44267-071299FM-15+1910KMWN V0300101N009310006019N0001011N1-01401-01401999999ADDAA101000025GD15991+0006019GF109991999999000251999999MW1491OC101441REMMET001-
0122726130147552010010823597+44267-071299FM-15+1910KMWN V0303601N012910006019N0001011N1-01401-01401999999ADDAA101000025AJ100519199999999GD15991+0006019GF109991999999000251999999KA1999M-01231KA2999N-01521MW1491OC101441REMMET001-
0139726130147552010010900484+44267-071300FM-15+1910KMWN V0203601N010810006019N0001011N1-01401-01401999999ADDGD15991+0006019GF109991999999000251999999MW1491OC101341REMMET072METAR KMWN 090048Z 36021G26KT 1/16SM FZFG VV002 M14/M14 RMK VRY LGT ICG;
0139726130147552010010901484+44267-071300FM-15+1910KMWN V0203601N013910006019N0001011N1-01501-01501999999ADDGD15991+0006019GF109991999999000251999999MW1491OC101701REMMET072METAR KMWN 090148Z 36027G33KT 1/16SM FZFG VV002 M15/M15 RMK VRY LGT ICG;
0128726130147552010010902544+44267-071300FM-15+1910KMWN V0203301N014410009019N0001011N1-01501-01501999999ADDGD15991+0009019GF109991999999000251999999MW1491REMMET069METAR KMWN 090254Z 33028KT 1/16SM FZFG VV003 M15/M15 RMK VRY LGT ICG;
0144726130147552010010903494+44267-071300FM-15+1910KMWN V0203101N014410009019N0001011N1-01701-01701999999ADDGD15991+0009019GF109991999999000251999999MW1491REMMET085METAR KMWN 090349Z 31028KT 1/16SM FZFG VV003 M17/M17 RMK VRY LGT ICG STARS DMLY VSBL;
0203726130147552010010904596+44267-071299SOD  +1910KMWN V030999999999999999999999999999+99999+99999999999ADDAA124000025AJ100519599999999AL12400035AN1024000039GJ100905GK10165KA1240M-01105KA2240N-01825OE11240223532023505OE23240075599999999REMSOD0623   14755100108050 NW2350          0090016760012-001-   -  020
0141726130147552010010905004+44267-071300FM-15+1910KMWN V0203201N01951000151CN0001011N1-01501-01501999999ADDGD13991+0001519GF107991999999999999999999MW1481REMMET082METAR KMWN 090457Z 32038KT 1/16SM FZFG BKN000 M15/M15 RMK FZFG BKN000 VRY LGT ICG;
0202726130147552010010905534+44267-071300FM-15+1910KMWN V0203201N01651000151CN0001011N1-01401-01401999999ADDAJ100519199999999GD13991+0001519GF107991999999999999999999KA1999M-01301KA2999N-01831MW1481REMMET100METAR KMWN 090553Z 32032KT 1/16SM FZFG BKN000 M14/M14 RMK FZFG BKN000 VRY LGT ICG 4/020 11130 21183;
0152726130147552010010906474+44267-071300FM-15+1910KMWN V0203201N02311000151CN0001011N1-01501-01501999999ADDGD13991+0001519GF107991999999999999999999MW1381MW2481REMMET087METAR KMWN 090647Z 32045KT 1/16SM BLSN FZFG BKN000 M15/M15 RMK FZFG BKN000 VRY LGT ICG;
0152726130147552010010907494+44267-071300FM-15+1910KMWN V0203101N02371000151CN0001011N1-01801-01801999999ADDGD13991+0001519GF107991999999999999999999MW1381MW2481REMMET087METAR KMWN 090749Z 31046KT 1/16SM BLSN FZFG BKN000 M18/M18 RMK FZFG BKN000 VRY LGT ICG;
0190726130147552010010909004+44267-071300FM-15+1910KMWN V0203001N02571000151CN0001011N1-02001-02001999999ADDGD13991+0001519GF107991999999999999999999MW1381MW2481OC102931REMMET117METAR KMWN 090855Z 30050G57KT 1/16SM BLSN FZFG BKN000 M20/M20 RMK FZFG BKN000 BKN V SCT VRY LGT ICG CORONA ARND MOON;
0179726130147552010010909504+44267-071300FM-15+1910KMWN V0203101N026212200019N0002011N1-01901-01901999999ADDGD12991+0001519GF104991999999999999999999MW1381MW2481OC102931REMMET106METAR KMWN 090950Z 31051G57KT 1/8SM BLSN FZFG SCT000 M19/M19 RMK FZFG SCT000 VRY LGT ICG CORONA ARND MOON;
0168726130147552010010911004+44267-071300FM-15+1910KMWN V0203201N029812200019N1448401N1-01901-02701999999ADDGD11991+0001519GD22991+9999999MW1381MW2411REMMET095METAR KMWN 091059Z 32058KT 90SM BLSN BCFG SCT/// FEW000 M19/M27 RMK BCFG FEW000 TPS LWR SCT055;EQDQ01+000022SCOTCV
0276726130147552010010911514+44267-071300FM-15+1910KMWN V0203201N027812200019N1448401N1-01701-03001999999ADDAJ100519199999999GD12991+9999999GD21991+9999999GD31991+0300019GD41991+0630019KA1999M-01351KA2999N-01981MW1381OC103041REMMET128METAR KMWN 091151Z 32054G59KT 90SM BLSN SCT/// FEW/// FEW100 FEW210 M17/M30 RMK TPS LWR SCT056 TPS LWR FEW060 4/020 11135 21198;EQDQ01+000022SCOTCV
0145726130147552010010912534+44267-071300FM-16+1910KMWN V0203301N02681999999CN1448401N1-01801-03001999999ADDGD13991+9999999GF107991999999999999999999MW1381OC102981REMMET078METAR KMWN 091253Z 33052G58KT 90SM BLSN BKN/// SKC M18/M30 RMK TPS LWR BKN054;
0203726130147552010010914004+44267-071300FM-15+1910KMWN V0203301N024219999999N1448401N1-01801-02901999999ADDGD13991+9999999GD21991+9999999GD31991+0015019MW1381OC102571REMMET113METAR KMWN 091355Z 33047G50KT 90SM BLSN BKN/// FEW/// FEW005 M18/M29 RMK HZ FEW005 TPS LWR BKN058 TPS LWR FEW060;EQDQ01+000022SCOTCV
0167726130147552010010915004+44267-071300FM-15+1910KMWN V0203301N022119999999N1600001N1-01801-03401999999ADDGD11991+0015019GD23991+9999999MW1381OC102521REMMET092METAR KMWN 091455Z 33043G49KT 100SM BLSN BKN/// FEW005 M18/M34 RMK HZ FEW005 TPS LWR BKN056;EQDQ01+000022SCOTCV
0167726130147552010010915514+44267-071300FM-15+1910KMWN V0203301N020619999999N1600001N1-01801-03701999999ADDGD11991+0015019GD23991+9999999MW1381OC102471REMMET092METAR KMWN 091551Z 33040G48KT 100SM BLSN BKN/// FEW005 M18/M37 RMK HZ FEW005 TPS LWR BKN057;EQDQ01+000022SCOTCV
0146726130147552010010916534+44267-071300FM-16+1910KMWN V0203301N024712200019N1600001N1-01801-03701999999ADDGD12991+9999999GD21991+9999999MW1381REMMET098METAR KMWN 091653Z 33048KT 110SM BLSN SCT/// FEW/// SKC M18/M37 RMK TPS LWR SCT040 TPS LWR FEW050;
0207726130147552010010917514+44267-071300FM-16+1910KMWN V0203301N023112200019N1600001N1-01901-03301999999ADDAJ100489199999999GD12991+9999999GF104991999999999999999999KA1999M-01731KA2999N-01971MW1381OC102731REMMET097METAR KMWN 091751Z 33045G53KT 110SM BLSN SCT/// SKC M19/M33 RMK TPS LWR SCT050 4/019 11173 21197;
0194726130147552010010918504+44267-071300FM-15+1910KMWN V0203201N025712200019N1600001N1-01901-03401999999ADDGD12991+9999999GD21991+9999999GD31991+0600019MW1381OC102881REMMET104METAR KMWN 091850Z 32050G56KT 110SM BLSN SCT/// FEW/// FEW200 M19/M34 RMK TPS LWR SCT050 TPS LWR FEW055;EQDQ01+000022SCOTCV
0205726130147552010010919544+44267-071300FM-15+1910KMWN V0203201N023712200019N1600001N1-01901-03301999999ADDGD12991+9999999GD21991+9999999GD31991+0300019GD41991+0600019MW1381OC102731REMMET119METAR KMWN 091954Z 32046G53KT 110SM BLSN SCT/// FEW/// FEW100 FEW200 M19/M33 RMK ACSL SE TPS LWR SCT050 TPS LWR FEW055;
0157726130147552010010920514+44267-071300FM-16+1910KMWN V0203201N026212200019N1600001N1-01901-03101999999ADDGD12991+9999999GD21991+9999999MW1381OC102881REMMET101METAR KMWN 092051Z 32051G56KT 110SM BLSN SCT/// FEW/// SKC M19/M31 RMK TPS LWR SCT050 TPS LWR FEW055;
0146726130147552010010922004+44267-071300FM-15+1910KMWN V0203201N026812200019N1600001N1-01901-03301999999ADDGD11991+0240019GD22991+9999999MW1381OC102881REMMET090METAR KMWN 092156Z 32052G56KT 130SM BLSN SCT/// FEW080 M19/M33 RMK ACSL SE TPS LWR SCT050;
0146726130147552010010923004+44267-071300FM-15+1910KMWN V0203301N025212200019N1600001N1-01901-03601999999ADDGD11991+0210019GD22991+9999999MW1381OC102731REMMET090METAR KMWN 092255Z 33049G53KT 120SM BLSN SCT/// FEW070 M19/M36 RMK ACSL SE TPS LWR SCT050;
0233726130147552010010923514+44267-071300FM-15+1910KMWN V0203301N022612200019N1600001N1-01901-03301999999ADDAJ100489199999999GD11991+0210019GD21991+9999999GF102991999999999999999999KA1999M-01801KA2999N-02071MW1381OC102521REMMET108METAR KMWN 092351Z 33044G49KT 120SM BLSN FEW/// FEW070 M19/M33 RMK ACSL SE TPS LWR FEW050 4/019 11180 21207;
0174726130147552010011000534+44267-071300FM-15+1910KMWN V0203301N018012200019N1600001N1-01901-03601999999ADDGD11991+0210019GD21991+9999999GF102991999999999999999999MW1381OC102371REMMET092METAR KMWN 100053Z 33035G46KT 120SM BLSN FEW/// FEW070 M19/M36 RMK ACSL S-SW TPS LWR FEW050;
0162726130147552010011001524+44267-071300FM-15+1910KMWN V0203301N013412200019N1600001N1-02001-03401999999ADDGD11991+0180019GD21991+9999999GF102991999999999999999999OC101851REMMET086METAR KMWN 100152Z 33026G36KT 120SM FEW/// FEW065 M20/M34 RMK ACSL OHD TPS LWR FEW048;
0125726130147552010011002494+44267-071300FM-15+1910KMWN V0203201N019012200019N1600001N1-01701-03801999999ADDGD11991+0180019GF102991999999999999999999OC102261REMMET064METAR KMWN 100249Z 32037G44KT 115SM FEW065 M17/M38 RMK ACSL OHD;
0126726130147552010011004004+44267-071300FM-15+1910KMWN V0203201N016512200019N1600001N1-01801-03501999999ADDGD11991+0120019GF102991999999999999999999OC101951REMMET065METAR KMWN 100355Z 32032G38KT 115SM FEW040 M18/M35 RMK SCSL W-NW;
0126726130147552010011004544+44267-071300FM-15+1910KMWN V0203301N018512200019N1600001N1-01801-03701999999ADDGD11991+0135019GF102991999999999999999999OC102061REMMET065METAR KMWN 100454Z 33036G40KT 115SM FEW045 M18/M37 RMK ACSL W-NW;
0222726130147552010011004596+44267-071299SOD  +1910KMWN V030999999999999999999999999999+99999+99999999999ADDAA124000091AJ100519599999999AL12400095AN1024000095GJ105565GK11005KA1240M-01325KA2240N-02055OE11240362132006285OE23240228099999999REMSOD0623   14755100109081 NW0628          0556100120008-0050000000020EQDR01  00006AAP092
0235726130147552010011006004+44267-071300FM-15+1910KMWN V0203301N017512200019N1600001N1-01701-02901999999ADDAJ100489199999999GD11991+0135019GD22991+0330019GD31991+9999999GF104991999999999999999999KA1999M-01671KA2999N-02041REMMET109METAR KMWN 100557Z 33034KT 110SM FEW/// FEW045 SCT110 M17/M29 RMK ACSL W-NW TPS LWR FEW055 4/019 11167 21204;
0159726130147552010011006504+44267-071300FM-15+1910KMWN V0203301N018012200019N1600001N1-01801-02501999999ADDGD11991+0135019GD22991+0330019GD32991+0390019GF104991999999999999999999REMMET076METAR KMWN 100650Z 33035KT 110SM FEW045 SCT110 SCT130 M18/M25 RMK ACSL W-NW;
0179726130147552010011008004+44267-071300FM-15+1910KMWN V0203301N017012200019N1600001N1-01801-02701999999ADDGD12991+0120019GD22991+0270019GD32991+0330019GF104991999999999999999999OC102161REMMET088METAR KMWN 100757Z 33033G42KT 110SM SCT040 SCT090 SCT110 M18/M27 RMK ACSL OHD AND ALQDS;
0201726130147552010011009004+44267-071300FM-15+1910KMWN V0203201N017010360019N1600001N1-01901-02901999999ADDGD12991+0090019GD22991+0210019GD32991+0270019GD43991+0360019GF107991999999999999999999OC101951REMMET095METAR KMWN 100856Z 32033G38KT 105SM SCT030 SCT070 SCT090 BKN120 M19/M29 RMK ACSL OHD AND ALQDS;
0192726130147552010011010004+44267-071300FM-15+1910KMWN V0203201N018012200019N1600001N1-01901-02701999999ADDGD11991+0090019GD21991+0210019GD32991+0330019GD42991+0360019GF104991999999999999999999OC102061REMMET086METAR KMWN 100955Z 32035G40KT 105SM FEW030 FEW070 SCT110 SCT120 M19/M27 RMK ACSL NE-S;
0170726130147552010011010524+44267-071300FM-15+1910KMWN V0203301N016512200019N1600001N1-01901-02501999999ADDGD11991+0120019GD21991+0210019GD32991+0360019GF104991999999999999999999OC102111REMMET079METAR KMWN 101052Z 33032G41KT 105SM FEW040 FEW070 SCT120 M19/M25 RMK ACSL NE-S;
0220726130147552010011011514+44267-071300FM-15+1910KMWN V0203201N022112200019N1600001N1-02001-02501999999ADDAJ100489199999999GD11991+0090019GD21991+0210019GD32991+0360019GF104991999999999999999999KA1999M-01751KA2999N-02021REMMET094METAR KMWN 101151Z 32043KT 110SM FEW030 FEW070 SCT120 M20/M25 RMK ACSL NE-S 4/019 11175 21202;
0214726130147552010011012504+44267-071300FM-15+1910KMWN V0203201N021112200019N1600001N1-02001-02301999999ADDGD11991+0001519GD21991+0090019GD31991+0210019GD41991+9999999GF104991999999999999999999REMMET116METAR KMWN 101250Z 32041KT 100SM FEW/// FEW000 FEW030 FEW070 SCT120 M20/M23 RMK ACSL NE-S TPS LWR FEW055 INTMT FZFG;
0204726130147552010011013504+44267-071300FM-15+1910KMWN V0203201N022110300019N1600001N1-01901-02201999999ADDGD11991+0120019GD21991+0210019GD33991+0300019GD41991+9999999GF107991999999999999999999REMMET106METAR KMWN 101350Z 32043KT 100SM FEW/// FEW040 FEW070 BKN100 BKN120 M19/M22 RMK ACSL NE-SE TPS LWR FEW040;
0182726130147552010011014514+44267-071300FM-15+1910KMWN V0203101N021110270019N1600001N1-01901-02501999999ADDGD11991+0120019GD21991+0210019GD33991+0270019GD43991+0360019GF107991999999999999999999REMMET084METAR KMWN 101451Z 31041KT 100SM FEW040 FEW070 BKN090 BKN120 M19/M25 RMK ACSL NE-SE;
0160726130147552010011015504+44267-071300FM-15+1910KMWN V0203001N021110240019N1600001N1-02001-02801999999ADDGD11991+0060019GD23991+0240019GD33991+0360019GF107991999999999999999999REMMET077METAR KMWN 101550Z 30041KT 100SM FEW020 BKN080 BKN120 M20/M28 RMK ACSL NE-SE;
0160726130147552010011017004+44267-071300FM-15+1910KMWN V0203001N019510240019N1600001N1-02001-02901999999ADDGD11991+0060019GD23991+0240019GD33991+0360019GF107991999999999999999999REMMET077METAR KMWN 101656Z 30038KT 100SM FEW020 BKN080 BKN120 M20/M29 RMK ACSL NE-SE;
0230726130147552010011018004+44267-071300FM-15+1910KMWN V0203001N020610240019N1600001N1-02001-03001999999ADDAJ100489199999999GD11991+0150019GD23991+0240019GD33991+0360019GF107991999999999999999999KA1999M-01831KA2999N-02051REMMET104METAR KMWN 101757Z 30040KT 100SM FEW050 BKN080 BKN120 M20/M30 RMK VIRGA E-S ACSL NE-S 4/019 11183 21205;
0176726130147552010011019004+44267-071300FM-15+1910KMWN V0203001N020610240019N1600001N1-01901-03401999999ADDGD11991+0150019GD23991+0240019GD33991+0360019GF107991999999999999999999REMMET093METAR KMWN 101855Z 30040KT 100SM FEW050 BKN080 BKN120 M19/M34 RMK VIRGA E-S AND NW ACSL NE-S;
0167726130147552010011019544+44267-071300FM-15+1910KMWN V0203001N019510240019N1528871N1-01901-02501999999ADDGD11991+0150019GD23991+0240019GD31991+9999999GF107991999999999999999999REMMET084METAR KMWN 101954Z 30038KT 95SM FEW/// FEW050 BKN080 M19/M25 RMK SCSL W-N ACSL NE-S;
0217726130147552010011020534+44267-071300FM-15+1910KMWN V0203001N02061024001CN1448401N1-01901-02201999999ADDGD11991+0001519GD23991+0240019GD33991+0420019GD43991+9999999GF107991999999999999999999MW1411REMMET113METAR KMWN 102053Z 30040KT 90SM BCFG BKN/// FEW000 BKN080 BKN140 M19/M22 RMK VIRGA NE BCFG FEW000 TPS LWR BKN055;
0199726130147552010011022004+44267-071300FM-15+1910KMWN V0203001N02011024001CN0006041N1-02001-02001999999ADDGD13991+0001519GD23991+0240019GD33991+0420019GF107991999999999999999999MW1481REMMET110METAR KMWN 102157Z COR 30039KT 3/8SM FZFG BKN000 BKN080 BKN140 M20/M20 RMK FZFG BKN000 FZFG INTMT VRY LGT ICG;
0174726130147552010011022544+44267-071300FM-15+1910KMWN V0203001N02111012001CN0001011N1-02001-02001999999ADDGD13991+0001519GD23991+0120019GF107991999999999999999999MW1481REMMET100METAR KMWN 102254Z 30041KT 1/16SM FZFG BKN000 BKN040 M20/M20 RMK FZFG BKN000 FZFG INTMT VRY LGT ICG;
0269726130147552010011023514+44267-071300FM-15+1910KMWN V0203001N020610150019N0003021N1-01901-01901999999ADDAJ100489199999999GD12991+0001519GD22991+0090019GD33991+0150019GF107991999999999999999999KA1999M-01841KA2999N-02071MW1481REMMET137METAR KMWN 102351Z 30040KT 3/16SM FZFG SCT000 SCT030 BKN055 M19/M19 RMK VIS 3/16V40 FZFG SCT000 FZFG INTMT VRY LGT ICG 4/019 11184 21207;
0162726130147552010011101004+44267-071300FM-15+1910KMWN V0203001N02161000151CN0002011N1-01901-01901999999ADDGD13991+0001519GF107991999999999999999999MW1481REMMET103METAR KMWN 110057Z 30042KT 1/8SM FZFG BKN000 M19/M19 RMK VIS 1/8V40 FZFG BKN000 FZFG INTMT VRY LGT ICG;
0185726130147552010011101474+44267-071300FM-15+1910KMWN V0203001N02261009001CN0003021N1-01801-01801999999ADDGD13991+0001519GD23991+0090019GF107991999999999999999999MW1481OC102681REMMET103METAR KMWN 110147Z 30044G52KT 3/16SM FZFG BKN000 BKN030 M18/M18 RMK FZFG BKN000 FZFG INTMT VRY LGT ICG;
0128726130147552010011102494+44267-071300FM-15+1910KMWN V0203001N024210003019N0001011N1-01901-01901999999ADDGD15991+0003019GF109991999999000251999999MW1491REMMET069METAR KMWN 110249Z 30047KT 1/16SM FZFG VV001 M19/M19 RMK VRY LGT ICG;
0125726130147552010011103494+44267-071300FM-15+1910KMWN V0203001N023110001519N0000001N1-01901-01901999999ADDGD15991+0001519GF109991999999000251999999MW1491REMMET066METAR KMWN 110349Z 30045KT 0SM FZFG VV000 M19/M19 RMK VRY LGT ICG;
0136726130147552010011104524+44267-071300FM-15+1910KMWN V0203001N024210001519N0000001N1-01901-01901999999ADDGD15991+0001519GF109991999999000251999999MW1491OC102621REMMET069METAR KMWN 110452Z 30047G51KT 0SM FZFG VV000 M19/M19 RMK VRY LGT ICG;
0238726130147552010011104596+44267-071299SOD  +1910KMWN V030999999999999999999999999999+99999+99999999999ADDAA124000091AJ100489199999999AL12400095AN1024000095GJ101455GK10265KA1240M-01715KA2240N-02055OE11240277232020505OE23240200799999999REMSOD0623   14755100110062 NW2050          0145026760001-0050000000019EQDR01  00006AAP092R02   0196AJS033
0197726130147552010011105514+44267-071300FM-15+1910KMWN V0203001N023710001519N0000001N1-01901-01901999999ADDAJ100489199999999GD15991+0001519GF109991999999000251999999KA1999M-01701KA2999N-01941MW1491OC102681REMMET087METAR KMWN 110551Z 30046G52KT 0SM FZFG VV000 M19/M19 RMK VRY LGT ICG 4/019 11170 21194;
0147726130147552010011106504+44267-071300FM-15+1910KMWN V0202901N021110001519N0000001N1-01801-01801999999ADDGD15991+0001519GF109991999999000251999999MW1381MW2491OC102731REMMET074METAR KMWN 110650Z 29041G53KT 0SM BLSN FZFG VV000 M18/M18 RMK VRY LGT ICG;
0181726130147552010011107514+44267-071300FM-15+1910KMWN V0203001N02311000151CN0000001N1-01801-01801999999ADDGD13991+0001519GF107991999999999999999999MW1381MW2481OC102681REMMET108METAR KMWN 110751Z 30045G52KT 0SM BLSN FZFG BKN000 M18/M18 RMK FZFG BKN000 BKN V SCT FZFG INTMT VRY LGT ICG;
0147726130147552010011108504+44267-071300FM-15+1910KMWN V0203001N023710001519N0000001N1-01801-01801999999ADDGD15991+0001519GF109991999999000251999999MW1381MW2491OC102681REMMET074METAR KMWN 110850Z 30046G52KT 0SM BLSN FZFG VV000 M18/M18 RMK VRY LGT ICG;
0147726130147552010011109474+44267-071300FM-15+1910KMWN V0203001N023110001519N0000001N1-01801-01801999999ADDGD15991+0001519GF109991999999000251999999MW1381MW2491OC102681REMMET074METAR KMWN 110947Z 30045G52KT 0SM BLSN FZFG VV000 M18/M18 RMK VRY LGT ICG;
0150726130147552010011111004+44267-071300FM-15+1910KMWN V0203001N024210001519N0001011N1-01801-01801999999ADDGD15991+0001519GF109991999999000251999999MW1381MW2491OC102731REMMET077METAR KMWN 111055Z 30047G53KT 1/16SM BLSN FZFG VV000 M18/M18 RMK VRY LGT ICG;
0243726130147552010011111504+44267-071300FM-15+1910KMWN V0203001N02371009001CN0000001N1-01801-01801999999ADDAJ100469199999999GD13991+0001519GD24991+0090019GF108991999999999999999999KA1999M-01721KA2999N-01881MW1381MW2481OC103191REMMET112METAR KMWN 111150Z 30046G62KT 0SM BLSN FZFG BKN000 OVC030 M18/M18 RMK FZFG BKN000 VRY LGT ICG 4/018 11172 21188;
0077726130147552010011112597+44267-071299FM-15+1910KMWN V0303001N025210001519N0000001N1-01701-01701999999ADDAA101000025GD15991+0001519GF109991999999000251999999MW1381MW2491REMMET001-
0085726130147552010011113597+44267-071299FM-15+1910KMWN V0303001N023710001519N0001011N1-01701-01701999999ADDAA101000025GD15991+0001519GF109991999999000251999999MW1381MW2491OC102681REMMET001-
0100726130147552010011114597+44267-071299FM-15+1910KMWN V0303001N02421021001CN0000001N1-01601-01601999999ADDAA101000025GD13991+0001519GD24991+0210019GF108991999999999999999999MW1381MW2481OC102621REMMET001-
0085726130147552010011115597+44267-071299FM-15+1910KMWN V0303001N023110003019N0000001N1-01601-01601999999ADDAA101000025GD15991+0003019GF109991999999000251999999MW1381MW2491OC102621REMMET001-
0085726130147552010011116597+44267-071299FM-15+1910KMWN V0303001N021110001519N0000001N1-01601-01601999999ADDAA101000025GD15991+0001519GF109991999999000251999999MW1381MW2491OC102681REMMET001-
0262726130147552010011117484+44267-071300FM-15+1910KMWN V0203001N021110003019N0000001N1-01601-01601999999ADDAA106000021AJ100469199999999GD15991+0003019GF109991999999000251999999KA1999M-01551KA2999N-01771MW1381MW2491REMMET108METAR KMWN 111748Z 30041KT 0SM -SHSN BLSN FZFG VV001 M16/M16 RMK VRY LGT ICG 60000 4/018 931000 11155 21177;EQDQ01  00002PRCP06Q02  00008PRCP06
0024726130147552010011117598+44267-071299FM-15+1910KMWN V03099999999999999999N999999999+99999+99999999999ADDAA101000025REMMET001-
0077726130147552010011118597+44267-071299FM-15+1910KMWN V0303001N021110003019N0000001N1-01601-01601999999ADDAA101000025GD15991+0003019GF109991999999000251999999MW1381MW2491REMMET001-
0077726130147552010011119597+44267-071299FM-15+1910KMWN V0303001N023110003019N0000001N1-01601-01601999999ADDAA101000025GD15991+0003019GF109991999999000251999999MW1381MW2491REMMET001-
0077726130147552010011120597+44267-071299FM-15+1910KMWN V0303001N021610001519N0000001N1-01601-01601999999ADDAA101000025GD15991+0001519GF109991999999000251999999MW1381MW2491REMMET001-
0077726130147552010011121597+44267-071299FM-15+1910KMWN V0303001N019510001519N0000001N1-01601-01601999999ADDAA101000025GD15991+0001519GF109991999999000251999999MW1381MW2491REMMET001-
0077726130147552010011122597+44267-071299FM-15+1910KMWN V0303001N020610001519N0000001N1-01601-01601999999ADDAA101000025GD15991+0001519GF109991999999000251999999MW1381MW2491REMMET001-
0273726130147552010011123484+44267-071300FM-15+1910KMWN V0203001N017010001519N0000001N1-01601-01601999999ADDAA106000021AJ100469199999999GD15991+0001519GF109991999999000251999999KA1999M-01491KA2999N-01671MW1381MW2491OC102061REMMET111METAR KMWN 112348Z 30033G40KT 0SM -SHSN BLSN FZFG VV000 M16/M16 RMK VRY LGT ICG 60000 4/018 931000 11149 21167;EQDQ01  00002PRCP06Q02  00008PRCP06
0024726130147552010011123598+44267-071299FM-15+1910KMWN V03099999999999999999N999999999+99999+99999999999ADDAA101000025REMMET001-
0153726130147552010011200474+44267-071300FM-15+1910KMWN V0202901N017010001519N0000001N1-01601-01601999999ADDGD15991+0001519GF109991999999000251999999MW1381MW2491OC102011REMMET080METAR KMWN 120047Z 29033G39KT 0SM -SHSN BLSN FZFG VV000 M16/M16 RMK VRY LGT ICG;
0024726130147552010011200598+44267-071299FM-15+1910KMWN V03099999999999999999N999999999+99999+99999999999ADDAA101000025REMMET001-
0142726130147552010011201494+44267-071300FM-15+1910KMWN V0203001N016510006019N0000001N1-01601-01601999999ADDGD15991+0006019GF109991999999000251999999MW1381MW2491REMMET077METAR KMWN 120149Z 30032KT 0SM -SHSN BLSN FZFG VV002 M16/M16 RMK VRY LGT ICG;
0026726130147552010011201598+44267-071299FM-15+1910KMWN V03099999999999999999N999999999+99999+99999999999ADDAA101000395REMMET003001
0077726130147552010011202597+44267-071299FM-15+1910KMWN V0303001N015410003019N0000001N1-01601-01601999999ADDAA101000025GD15991+0003019GF109991999999000251999999MW1381MW2491REMMET001-
0077726130147552010011203597+44267-071299FM-15+1910KMWN V0303001N014410003019N0000001N1-01601-01601999999ADDAA101000025GD15991+0003019GF109991999999000251999999MW1381MW2491REMMET001-
0136726130147552010011204524+44267-071300FM-15+1910KMWN V0203001N015910001519N0000001N1-01501-01501999999ADDGD15991+0001519GF109991999999000251999999MW1381MW2491REMMET071METAR KMWN 120452Z 30031KT 0SM BLSN FZFG VV000 M15/M15 RMK VRY LGT ICG;
0238726130147552010011204596+44267-071299SOD  +1910KMWN V030999999999999999999999999999+99999+99999999999ADDAA124000391AJ100469199999999AL12400095AN1024000595GJ100005GK10005KA1240M-01495KA2240N-01885OE11240321932006415OE23240208899999999REMSOD0623   14755100111072 NW0641          0000000880005-0020001002018EQDR01  00016AAP092R02   0186AJS033
0256726130147552010011205534+44267-071300FM-15+1910KMWN V0203101N017012200019N0001011N1-01601-01601999999ADDAA106000391AJ100469199999999GD12991+0001519GF104991999999999999999999KA1999M-01491KA2999N-01691MW1381MW2481REMMET118METAR KMWN 120553Z 31033KT 1/16SM BLSN FZFG SCT000 M16/M16 RMK FZFG SCT000 VRY LGT ICG 60001 4/018 931002 11149 21169;EQDQ01  00038PRCP06
0147726130147552010011206474+44267-071300FM-15+1910KMWN V0203001N015910001519N0000001N1-01701-01701999999ADDGD15991+0001519GF109991999999000251999999MW1381MW2491OC101801REMMET074METAR KMWN 120647Z 30031G35KT 0SM BLSN FZFG VV000 M17/M17 RMK VRY LGT ICG;
0166726130147552010011207544+44267-071300FM-15+1910KMWN V0203001N017510003019N0001011N1-01701-01701999999ADDGD15991+0003019GF109991999999000251999999MW1381MW2491OC101951REMMET093METAR KMWN 120754Z 30034G38KT 1/16SM BLSN FZFG VV001 M17/M17 RMK VRY LGT ICG STARS DMLY VSBL;
0147726130147552010011208504+44267-071300FM-15+1910KMWN V0203001N017510001519N0000001N1-01801-01801999999ADDGD15991+0001519GF109991999999000251999999MW1381MW2491OC102011REMMET074METAR KMWN 120850Z 30034G39KT 0SM BLSN FZFG VV000 M18/M18 RMK VRY LGT ICG;
0147726130147552010011209544+44267-071300FM-15+1910KMWN V0203001N021610001519N0000001N1-01801-01801999999ADDGD15991+0001519GF109991999999000251999999MW1381MW2491OC102571REMMET074METAR KMWN 120954Z 30042G50KT 0SM BLSN FZFG VV000 M18/M18 RMK VRY LGT ICG;
0152726130147552010011210534+44267-071300FM-15+1910KMWN V0203001N02371000151CN0001011N1-01801-01801999999ADDGD13991+0001519GF107991999999999999999999MW1381MW2481REMMET087METAR KMWN 121053Z 30046KT 1/16SM BLSN FZFG BKN000 M18/M18 RMK FZFG BKN000 VRY LGT ICG;
0163726130147552010011212534+44267-071300FM-15+1910KMWN V0203001N02621000151CN0001011N1-01701-01701999999ADDGD13991+0001519GF107991999999999999999999MW1381MW2481OC102931REMMET090METAR KMWN 121253Z 30051G57KT 1/16SM BLSN FZFG BKN000 M17/M17 RMK FZFG BKN000 VRY LGT ICG;
0136726130147552010011213514+44267-071300FM-15+1910KMWN V0203001N028810003019N0000001N1-02001-02001999999ADDGD15991+0003019GF109991999999000251999999MW1381MW2491REMMET071METAR KMWN 121351Z 30056KT 0SM BLSN FZFG VV001 M20/M20 RMK VRY LGT ICG;
0153726130147552010011214524+44267-071300FM-15+1910KMWN V0203001N026810009019N0001011N1-02001-02001999999ADDGD15991+0009019GF109991999999000251999999MW1381MW2491REMMET088METAR KMWN 121452Z 30052KT 1/16SM BLSN FZFG VV003 M20/M20 RMK VRY LGT ICG SUN DMLY VSBL;
0162726130147552010011215524+44267-071300FM-15+1910KMWN V0203101N025212200019N0002011N1-01901-01901999999ADDGD12991+0001519GF104991999999999999999999MW1381MW2481OC103191REMMET089METAR KMWN 121552Z 31049G62KT 1/8SM BLSN FZFG SCT000 M19/M19 RMK FZFG SCT000 VRY LGT ICG;
0265726130147552010011216524+44267-071300FM-15+1910KMWN V0203001N020619999999N0965601N1-01901+99999999999ADDGD11991+0001519GD21991+0090019GD32991+0210019GD43991+9999999MW1381MW2481OC102571REMMET122METAR KMWN 121652Z 30040G50KT 60SM BLSN FZFG BKN/// FEW000 FEW030 SCT070 M19/M35 RMK ACSL NE-E BCFG FEW000 TPS LWR BKN060;EQDQ01+000042SCOTCVQ02-003503ATOD  Q03 -03503ATOD  
0213726130147552010011217514+44267-071300FM-15+1910KMWN V0203001N02011000151CN0001011N1-02301-02301999999ADDAJ100469199999999GD13991+0001519GF107991999999999999999999KA1999M-01651KA2999N-02321MW1381MW2481REMMET105METAR KMWN 121751Z 30039KT 1/16SM BLSN FZFG BKN000 M23/M23 RMK FZFG BKN000 VRY LGT ICG 4/018 11165 21232;
0141726130147552010011218544+44267-071300FM-15+1910KMWN V0203001N02011000151CN0001011N1-02301-02301999999ADDGD13991+0001519GF107991999999999999999999MW1481REMMET082METAR KMWN 121854Z 30039KT 1/16SM FZFG BKN000 M23/M23 RMK FZFG BKN000 VRY LGT ICG;
0151726130147552010011219534+44267-071300FM-15+1910KMWN V0203101N02111000151CN0002011N1-02301-02301999999ADDGD13991+0001519GF107991999999999999999999MW1481OC102421REMMET084METAR KMWN 121953Z 31041G47KT 1/8SM FZFG BKN000 M23/M23 RMK FZFG BKN000 VRY LGT ICG;
0142726130147552010011220514+44267-071300FM-15+1910KMWN V0203001N022610006019N0001011N1-02401-02401999999ADDGD15991+0006019GF109991999999000251999999MW1491REMMET083METAR KMWN 122051Z 30044KT 1/16SM FZFG VV002 M24/M24 RMK SUN DMLY VSBL VRY LGT ICG;
0141726130147552010011221524+44267-071300FM-15+1910KMWN V0203001N02371000151CN0001011N1-02501-02501999999ADDGD13991+0001519GF107991999999999999999999MW1481REMMET082METAR KMWN 122152Z 30046KT 1/16SM FZFG BKN000 M25/M25 RMK FZFG BKN000 VRY LGT ICG;
0151726130147552010011223004+44267-071300FM-15+1910KMWN V0203101N025712200019N0002011N1-02601-02601999999ADDGD12991+0001519GF104991999999999999999999MW1481REMMET092METAR KMWN 122255Z 31050KT 1/8SM FZFG SCT000 M26/M26 RMK FZFG SCT000 FZFG INTMT VRY LGT ICG;
0273726130147552010011300004+44267-071300FM-15+1910KMWN V0203201N027319999999N1046071N1-02501-03001999999ADDAJ100469199999999GD11991+0001519GD23991+9999999KA1999M-02191KA2999N-02631MW1381MW2411OC102981REMMET149METAR KMWN 122355Z 32053G58KT 65SM BLSN PRFG BKN/// FEW000 M25/M30 RMK VIS SW 3/16 PRFG FEW000 SW PRESRR TPS LWR BKN049 INTMT FZFG 4/018 11219 21263;EQDQ01+000022SCOTCV
0205726130147552010011301004+44267-071300FM-15+1910KMWN V0203101N020619999999N1126541N1-02201-02701999999ADDGD11991+0001519GD23991+9999999MW1381MW2411OC102781REMMET124METAR KMWN 130055Z 31040G54KT 70SM BLSN PRFG BKN/// FEW000 M22/M27 RMK VIS SW 3/16 PRFG FEW000 SW TPS LWR BKN048 INTMT FZFG;EQDQ01+000022SCOTCV
0167726130147552010011302004+44267-071300FM-15+1910KMWN V0203201N023119999999N1126541N1-02201-02801999999ADDGD11991+0001519GD21991+0120019GD33991+9999999MW1381REMMET085METAR KMWN 130158Z 32045KT 70SM BLSN BKN/// FEW000 FEW040 M22/M28 RMK TPS LWR BKN050;EQDQ01+000022SCOTCV
0136726130147552010011302514+44267-071300FM-15+1910KMWN V0202901N011310001519N0000001N1-02601-02601999999ADDGD15991+0001519GF109991999999000251999999MW1491OC101701REMMET069METAR KMWN 130251Z 29022G33KT 0SM FZFG VV000 M26/M26 RMK VRY LGT ICG;
0145726130147552010011304004+44267-071300FM-15+1910KMWN V0203201N023719999999N1287471N1-02001-02501999999ADDGD11991+0150019GD23991+9999999MW1381REMMET078METAR KMWN 130355Z 32046KT 80SM BLSN BKN/// FEW050 M20/M25 RMK TPS LWR BKN048;EQDQ01+000022SCOTCV
0178726130147552010011304544+44267-071300FM-15+1910KMWN V0203301N020112200019N1287471N1-01901-02601999999ADDGD11991+0150019GD21991+0300019GD32991+9999999MW1381OC102521REMMET088METAR KMWN 130454Z 33039G49KT 80SM BLSN SCT/// FEW050 FEW100 M19/M26 RMK TPS LWR SCT046;EQDQ01+000022SCOTCV
0222726130147552010011304596+44267-071299SOD  +1910KMWN V030999999999999999999999999999+99999+99999999999ADDAA124000091AJ100469599999999AL12400095AN1024000095GJ101605GK10295KA1240M-01555KA2240N-02605OE11240326332010465OE23240216499999999REMSOD0623   14755100112073 NW1046          0160029660004-0150000000018EQDR01  00006AAP092
0235726130147552010011306004+44267-071300FM-15+1910KMWN V0203301N011812200019N1448401N1-01901-03001999999ADDAJ100469199999999GD11991+0135019GD21991+0300019GD31991+9999999GF102991999999999999999999KA1999M-01871KA2999N-02601OC102061REMMET101METAR KMWN 130556Z 33023G40KT 90SM FEW/// FEW045 FEW100 M19/M30 RMK TPS LWR FEW039 4/018 11187 21260;
0174726130147552010011307514+44267-071300FM-15+1910KMWN V0203201N020112200019N1528871N1-01701-03801999999ADDGD11991+0135019GD21991+0480019GD31991+9999999GF102991999999999999999999OC102371REMMET083METAR KMWN 130751Z 32039G46KT 95SM FEW/// FEW045 FEW160 M17/M38 RMK TPS LWR FEW038;
0138726130147552010011309544+44267-071300FM-15+1910KMWN V0203201N023112200019N1600001N1-01801-03201999999ADDGD12991+0270019GD22991+0570019GF104991999999999999999999OC102621REMMET062METAR KMWN 130954Z 32045G51KT 100SM SCT090 SCT190 M18/M32 RMK;
0138726130147552010011310544+44267-071300FM-15+1910KMWN V0203201N024712200019N1600001N1-01801-03301999999ADDGD12991+0270019GD22991+0570019GF104991999999999999999999OC102781REMMET062METAR KMWN 131054Z 32048G54KT 100SM SCT090 SCT190 M18/M33 RMK;
0210726130147552010011311544+44267-071300FM-15+1910KMWN V0203201N023112200019N1600001N1-01801-03001999999ADDAJ100469199999999GD12991+0210019GD22991+0570019GF104991999999999999999999KA1999M-01661KA2999N-01931OC102621REMMET091METAR KMWN 131154Z 32045G51KT 100SM SCT070 SCT190 M18/M30 RMK ACSL ALQDS 4/018 11166 21193;
0159726130147552010011313004+44267-071300FM-15+1910KMWN V0203201N023710570019N1600001N1-01901-03101999999ADDGD12991+0210019GD23991+0570019GF107991999999999999999999MW1381OC102621REMMET077METAR KMWN 131256Z 32046G51KT 110SM BLSN SCT070 BKN190 M19/M31 RMK ACSL N-SW;
0198726130147552010011313544+44267-071300FM-15+1910KMWN V0203201N023710570019N1600001N1-01701-02801999999ADDGD11991+0090019GD22991+0210019GD33991+0570019GF107991999999999999999999MW1381OC102731REMMET101METAR KMWN 131354Z 32046G53KT 120SM BLSN FEW030 SCT070 BKN190 M17/M28 RMK ACSL OHD AND ALQDS CCSL SE;
0179726130147552010011315004+44267-071300FM-15+1910KMWN V0203201N024710570019N1600001N1-01701-03401999999ADDGD11991+0090019GD22991+0210019GD33991+0570019GF107991999999999999999999MW1381REMMET090METAR KMWN 131455Z 32048KT 110SM BLSN FEW030 SCT070 BKN190 M17/M34 RMK ACSL OHD AND ALQDS;
0197726130147552010011315514+44267-071300FM-15+1910KMWN V0203201N022110180019N1600001N1-01601-04101999999ADDGD12991+0060019GD23991+0180019GD33991+0480019GF107991999999999999999999MW1381OC102521REMMET100METAR KMWN 131551Z 32043G49KT 110SM BLSN SCT020 BKN060 BKN160 M16/M41 RMK SH DSNT NE VIRGA DSNT E-S;
0165726130147552010011317004+44267-071300FM-15+1910KMWN V0203101N022110600019N1287471N1-01701-03401999999ADDGD12991+0060019GD22991+0180019GD33991+0600019GF107991999999999999999999REMMET082METAR KMWN 131655Z 31043KT 80SM SCT020 SCT060 BKN200 M17/M34 RMK ACSL OHD AND E-W;
0278726130147552010011317544+44267-071300FM-15+1910KMWN V0203201N020610600019N1287471N1-01701-02501999999ADDAJ100469199999999GD12991+0060019GD22991+0180019GD33991+0600019GD41991+9999999GF107991999999999999999999KA1999M-01581KA2999N-01891REMMET137METAR KMWN 131754Z 32040KT 80SM FEW/// SCT020 SCT060 BKN200 M17/M25 RMK SCSL DSNT SW ACSL OHD AND ALQDS TPS LWR FEW057 4/018 11158 21189;
0180726130147552010011319004+44267-071300FM-15+1910KMWN V0203201N016510540019N1287471N1-01401-01601999999ADDGD12991+0150019GD23991+0540019GD33991+0630019GF107991999999999999999999REMMET097METAR KMWN 131855Z 32032KT 80SM SCT050 BKN180 BKN210 M14/M16 RMK SH DNST S-SW ACSL OHD AND ALQDS;
0263726130147552010011320004+44267-071300FM-15+1910KMWN V0203001N016512200019N1287471N1-01501-01801999999ADDGD11991+0001519GD21991+0045019GD32991+0150019GD41991+9999999GF107991999999999999999999REMMET165METAR KMWN 131957Z 30032KT 80SM FEW/// FEW000 FEW015 SCT050 BKN180 BKN210 M15/M18 RMK SH DSNT S-SW ACSL OHD AND ALQDS TPS LWR FEW057 CAP CLOUD W AND NE LIMITING VIS;
0206726130147552010011320544+44267-071300FM-15+1910KMWN V0203001N01591015001CN0002011N1-01601-01601999999ADDGD13991+0001519GD23991+0150019GD33991+0540019GD43991+0630019GF107991999999999999999999MW1481REMMET102METAR KMWN 132054Z 30031KT 1/8SM FZFG BKN000 BKN050 BKN180 BKN210 M16/M16 RMK FZFG BKN000 VRY LGT ICG;
0184726130147552010011321524+44267-071300FM-15+1910KMWN V0203101N01291015001CN0002011N1-01501-01501999999ADDGD13991+0001519GD23991+0150019GD33991+0630019GF107991999999999999999999MW1481REMMET095METAR KMWN 132152Z 31025KT 1/8SM FZFG BKN000 BKN050 BKN210 M15/M15 RMK FZFG BKN000 VRY LGT ICG;
0206726130147552010011322524+44267-071300FM-15+1910KMWN V0203101N01131015001CN0002011N1-01501-01501999999ADDGD13991+0001519GD23991+0150019GD33991+0300019GD43991+0600019GF107991999999999999999999MW1481REMMET102METAR KMWN 132252Z 31022KT 1/8SM FZFG BKN000 BKN050 BKN100 BKN200 M15/M15 RMK FZFG BKN000 VRY LGT ICG;
0273726130147552010011323504+44267-071300FM-15+1910KMWN V0203301N011310150019N1600001N1-01301-01501999999ADDAJ100469199999999GD11991+0009019GD23991+0150019GD33991+0300019GD41991+9999999GF108991999999999999999999KA1999M-01241KA2999N-01741REMMET132METAR KMWN 132350Z 33022KT 120SM FEW/// FEW003 BKN050 BKN100 OVC200 M13/M15 RMK BBLO FEW NW-N VIS LWR NW-N BINOVC 4/018 11124 21174;
0248726130147552010011400534+44267-071300FM-15+1910KMWN V0203101N011810150019N1600001N1-01301-01501999999ADDGD11991+9999999GD21991+9999999GD31991+0090019GD43991+0150019GF107991999999999999999999REMMET131METAR KMWN 140053Z 31023KT 110SM FEW/// FEW/// FEW030 BKN050 BKN100 BKN200 M13/M15 RMK TPS LWR FEW056 BBLO FEW NW-NE VIS LWR NW-NE;EQDQ01 999993SCOCIG
0200726130147552010011401544+44267-071300FM-15+1910KMWN V0203201N007212200019N1600001N1-01401-01701999999ADDGD11991+0009019GD22991+0150019GD32991+0240019GD41991+9999999GF107991999999999999999999REMMET102METAR KMWN 140154Z 32014KT 110SM FEW/// FEW003 SCT050 SCT080 SCT150 BKN200 M14/M17 RMK TPS LWR FEW041;
0201726130147552010011402514+44267-071300FM-15+1910KMWN V0203301N005712200019N1600001N1-01401-01601999999ADDGD11991+0150019GD21991+0240019GD31991+0450019GD41991+9999999GF102991999999999999999999REMMET103METAR KMWN 140251Z 33011KT 110SM FEW/// FEW050 FEW080 FEW150 M14/M16 RMK TPS LWR FEW038 PTCHY VLY FG W;
0164726130147552010011404004+44267-071300FM-15+1910KMWN V0203501N003112200019N1600001N1-01101-01501999999ADDGD11991+0150019GD21991+0240019GD31991+0360019GF102991999999999999999999REMMET081METAR KMWN 140356Z 35006KT 120SM FEW050 FEW080 FEW120 M11/M15 RMK PTCHY VLY FG W;
0222726130147552010011404596+44267-071299SOD  +1910KMWN V030999999999999999999999999999+99999+99999999999ADDAA124000091AJ100469599999999AL12400095AN1024000095GJ102355GK10425KA1240M-01055KA2240N-01935OE11240312932001455OE23240170899999999REMSOD0623   14755100113070 NW0145          0235042650013-0030000000018EQDR01  00006AAP092
0142726130147552010011405004+44267-071300FM-15+1910KMWN V0203101N001512200019N1600001N1-01001-01401999999ADDGD11991+0150019GD21991+0240019GF102991999999999999999999REMMET074METAR KMWN 140456Z 31003KT 120SM FEW050 FEW080 M10/M14 RMK PTCHY VLY FG W;
0148726130147552010011405524+44267-071300FM-15+1910KMWN V0202801N002112200019N1600001N1-01001-01401999999ADDAJ100469199999999GF100991999999999999999999KA1999M-01031KA2999N-01451REMMET067METAR KMWN 140552Z 28004KT 120SM SKC M10/M14 RMK 4/018 11103 21145;
0087726130147552010011406534+44267-071300FM-15+1910KMWN V0202401N002612200019N1600001N1-01101-01401999999ADDGF100991999999999999999999REMMET049METAR KMWN 140653Z 24005KT 120SM SKC M11/M14 RMK;
0124726130147552010011408004+44267-071300FM-15+1910KMWN V0202601N005112200019N1600001N1-01101-01501999999ADDGD11991+9999999GF102991999999999999999999REMMET071METAR KMWN 140756Z 26010KT 120SM FEW/// SKC M11/M15 RMK TPS LWR FEW043;
0124726130147552010011409004+44267-071300FM-15+1910KMWN V0202801N004112200019N1600001N1-01001-01401999999ADDGD11991+9999999GF102991999999999999999999REMMET071METAR KMWN 140857Z 28008KT 120SM FEW/// SKC M10/M14 RMK TPS LWR FEW038;
0124726130147552010011410004+44267-071300FM-15+1910KMWN V0202901N004112200019N1600001N1-00901-01301999999ADDGD12991+9999999GF104991999999999999999999REMMET071METAR KMWN 140955Z 29008KT 110SM SCT/// SKC M09/M13 RMK TPS LWR SCT046;
0135726130147552010011411004+44267-071300FM-15+1910KMWN V0202901N002612200019N1600001N1-00901-01201999999ADDGD11991+0240019GD22991+9999999REMMET074METAR KMWN 141059Z 29005KT 110SM SCT/// FEW080 M09/M12 RMK TPS LWR SCT046;EQDQ01+000022SCOTCV
0233726130147552010011412004+44267-071300FM-15+1910KMWN V0203301N001012200019N1600001N1-00701-01401999999ADDAJ100469199999999GD12991+9999999GD21991+9999999GD31991+0540019KA1999M-00721KA2999N-01231REMMET114METAR KMWN 141157Z 33002KT 110SM SCT/// FEW/// FEW180 M07/M14 RMK TPS LWR SCT047 TPS LWR FEW057 4/018 11072 21123;EQDQ01+000022SCOTCV
0186726130147552010011414004+44267-071300FM-15+1910KMWN V0201801N003110810019N1600001N1-00501-01301999999ADDGD11991+0600019GD22991+0720019GD33991+0810019GD42991+9999999GF107991999999999999999999REMMET088METAR KMWN 141359Z 18006KT 110SM SCT/// FEW200 SCT240 BKN270 M05/M13 RMK TPS LWR SCT047;
0186726130147552010011415004+44267-071300FM-15+1910KMWN V0201801N004610780019N1600001N1-00601-01201999999ADDGD11991+0600019GD22991+0720019GD33991+0780019GD42991+9999999GF107991999999999999999999REMMET088METAR KMWN 141456Z 18009KT 110SM SCT/// FEW200 SCT240 BKN260 M06/M12 RMK TPS LWR SCT046;
0194726130147552010011415504+44267-071300FM-15+1910KMWN V0202101N006210780019N1600001N1-00601-01201999999ADDGD11991+0600019GD22991+0720019GD33991+0780019GD42991+9999999GF107991999999999999999999REMMET096METAR KMWN 141550Z 21012KT 110SM SCT/// FEW200 SCT240 BKN260 M06/M12 RMK TPS LWR SCT049 SUN DOG;
0186726130147552010011417004+44267-071300FM-15+1910KMWN V0202401N007210780019N1600001N1-00501-01201999999ADDGD11991+0600019GD22991+0720019GD33991+0780019GD42991+9999999GF107991999999999999999999REMMET088METAR KMWN 141656Z 24014KT 110SM SCT/// FEW200 SCT240 BKN260 M05/M12 RMK TPS LWR SCT049;
0186726130147552010011417544+44267-071300FM-15+1910KMWN V0202201N008210780019N1600001N1-00501-01101999999ADDGD11991+0600019GD22991+0720019GD33991+0780019GD42991+9999999GF107991999999999999999999REMMET088METAR KMWN 141754Z 22016KT 110SM SCT/// FEW200 SCT240 BKN260 M05/M11 RMK TPS LWR SCT048;
0186726130147552010011418544+44267-071300FM-15+1910KMWN V0202401N009312200019N1600001N1-00501-01101999999ADDGD11991+0600019GD21991+0720019GD32991+0780019GD42991+9999999GF104991999999999999999999REMMET088METAR KMWN 141854Z 24018KT 120SM SCT/// FEW200 FEW240 SCT260 M05/M11 RMK TPS LWR SCT046;
0186726130147552010011420004+44267-071300FM-15+1910KMWN V0202501N013412200019N1600001N1-00501-01001999999ADDGD11991+0600019GD21991+0720019GD32991+0780019GD42991+9999999GF104991999999999999999999REMMET088METAR KMWN 141957Z 25026KT 120SM SCT/// FEW200 FEW240 SCT260 M05/M10 RMK TPS LWR SCT046;
0186726130147552010011421004+44267-071300FM-15+1910KMWN V0202501N011312200019N1600001N1-00501-01001999999ADDGD11991+0600019GD21991+0720019GD32991+0780019GD42991+9999999GF104991999999999999999999REMMET088METAR KMWN 142056Z 25022KT 120SM SCT/// FEW200 FEW240 SCT260 M05/M10 RMK TPS LWR SCT046;
0179726130147552010011422004+44267-071300FM-15+1910KMWN V0202501N012312200019N1600001N1-00301-01001999999ADDGD11991+0600019GD21991+0720019GD31991+0780019GD42991+9999999REMMET088METAR KMWN 142158Z 25024KT 120SM SCT/// FEW200 FEW240 FEW260 M03/M10 RMK TPS LWR SCT046;EQDQ01+000022SCOTCV
0179726130147552010011422514+44267-071300FM-15+1910KMWN V0202601N014419999999N1600001N1-00201-01501999999ADDGD11991+0450019GD21991+0600019GD31991+0750019GD43991+9999999REMMET088METAR KMWN 142251Z 26028KT 120SM BKN/// FEW150 FEW200 FEW250 M02/M15 RMK TPS LWR BKN046;EQDQ01+000022SCOTCV
0240726130147552010011423514+44267-071300FM-15+1910KMWN V0202601N015919999999N1600001N1-00401-00601999999ADDAJ100469199999999GD11991+0450019GD21991+0600019GD31991+0750019GD43991+9999999KA1999M-00251KA2999N-00641REMMET106METAR KMWN 142351Z 26031KT 120SM BKN/// FEW150 FEW200 FEW250 M04/M06 RMK TPS LWR BKN046 4/018 11025 21064;EQDQ01+000022SCOTCV
0179726130147552010011500504+44267-071300FM-15+1910KMWN V0202601N015419999999N1600001N1-00301-00501999999ADDGD11991+0450019GD22991+0600019GD32991+0750019GD43991+9999999REMMET088METAR KMWN 150050Z 26030KT 120SM BKN/// FEW150 SCT200 SCT250 M03/M05 RMK TPS LWR BKN044;EQDQ01+000042SCOTCV
0193726130147552010011501524+44267-071300FM-15+1910KMWN V0202801N017010600019N1600001N1-00301-01101999999ADDGD11991+0300019GD22991+0450019GD33991+0600019GD43991+9999999GF107991999999999999999999REMMET095METAR KMWN 150152Z 28033KT 120SM BKN/// FEW100 SCT150 BKN200 BKN250 M03/M11 RMK TPS LWR BKN038;
0216726130147552010011502544+44267-071300FM-15+1910KMWN V0202801N019510600019N1600001N1-00401-01101999999ADDGD11991+0300019GD22991+0450019GD33991+0600019GD43991+9999999GF108991999999999999999999REMMET118METAR KMWN 150254Z 28038KT 110SM BKN/// FEW100 SCT150 BKN200 OVC250 M04/M11 RMK TPS LWR BKN038 STARS DMLY VSBL BINOVC;
0200726130147552010011504004+44267-071300FM-15+1910KMWN V0202801N01701060001CN0002011N1-00801-00801999999ADDGD13991+0001519GD23991+0600019GD34991+0750019GF108991999999999999999999MW1481REMMET111METAR KMWN 150356Z 28033KT 1/8SM FZFG BKN000 BKN200 OVC250 M08/M08 RMK FZFG BKN000 VRY LGT ICG STARS DMLY VSBL;
0136726130147552010011504534+44267-071300FM-15+1910KMWN V0202801N015410001519N0000001N1-00801-00801999999ADDGD15991+0001519GF109991999999000251999999MW1491OC102011REMMET069METAR KMWN 150453Z 28030G39KT 0SM FZFG VV000 M08/M08 RMK VRY LGT ICG;
0222726130147552010011504596+44267-071299SOD  +1910KMWN V030999999999999999999999999999+99999+99999999999ADDAA124000091AJ100469599999999AL12400095AN1024000095GJ105645GK11005KA1240M-00215KA2240N-01215OE11240228027023115OE23240088599999999REMSOD0623   14755100114051  W2311          056410053002800100000000018EQDR01  00006AAP092
0197726130147552010011505524+44267-071300FM-15+1910KMWN V0202801N017510001519N0000001N1-00701-00701999999ADDAJ100469199999999GD15991+0001519GF109991999999000251999999KA1999M-00221KA2999N-00851MW1491OC102111REMMET087METAR KMWN 150552Z 28034G41KT 0SM FZFG VV000 M07/M07 RMK VRY LGT ICG 4/018 11022 21085;
0125726130147552010011507004+44267-071300FM-15+1910KMWN V0202801N020610001519N0000001N1-00601-00601999999ADDGD15991+0001519GF109991999999000251999999MW1491REMMET066METAR KMWN 150655Z 28040KT 0SM FZFG VV000 M06/M06 RMK VRY LGT ICG;
0136726130147552010011508004+44267-071300FM-15+1910KMWN V0202801N024210001519N0000001N1-00601-00601999999ADDGD15991+0001519GF109991999999000251999999MW1491OC102781REMMET069METAR KMWN 150756Z 28047G54KT 0SM FZFG VV000 M06/M06 RMK VRY LGT ICG;
0136726130147552010011508524+44267-071300FM-15+1910KMWN V0202801N028310001519N0000001N1-00601-00601999999ADDGD15991+0001519GF109991999999000251999999MW1491OC103141REMMET069METAR KMWN 150852Z 28055G61KT 0SM FZFG VV000 M06/M06 RMK VRY LGT ICG;
0125726130147552010011509544+44267-071300FM-15+1910KMWN V0202801N028310001519N0000001N1-00601-00601999999ADDGD15991+0001519GF109991999999000251999999MW1491REMMET066METAR KMWN 150954Z 28055KT 0SM FZFG VV000 M06/M06 RMK VRY LGT ICG;
0136726130147552010011511004+44267-071300FM-15+1910KMWN V0202801N027810001519N0000001N1-00701-00701999999ADDGD15991+0001519GF109991999999000251999999MW1491OC103091REMMET069METAR KMWN 151055Z 28054G60KT 0SM FZFG VV000 M07/M07 RMK VRY LGT ICG;
0186726130147552010011512004+44267-071300FM-15+1910KMWN V0202801N027310001519N0000001N1-00601-00601999999ADDAJ100469199999999GD15991+0001519GF109991999999000251999999KA1999M-00551KA2999N-00741MW1491REMMET084METAR KMWN 151158Z 28053KT 0SM FZFG VV000 M06/M06 RMK VRY LGT ICG 4/018 11055 21074;
0125726130147552010011513004+44267-071300FM-15+1910KMWN V0202801N021110001519N0000001N1-00801-00801999999ADDGD15991+0001519GF109991999999000251999999MW1491REMMET066METAR KMWN 151258Z 28041KT 0SM FZFG VV000 M08/M08 RMK VRY LGT ICG;
0071726130147552010011513597+44267-071299FM-15+1910KMWN V0302801N023110001519N0000001N1-00801-00801999999ADDAA101000025GD15991+0001519GF109991999999000251999999MW1491REMMET001-
0071726130147552010011514597+44267-071299FM-15+1910KMWN V0302901N022610001519N0000001N1-00701-00701999999ADDAA101000025GD15991+0001519GF109991999999000251999999MW1491REMMET001-
0077726130147552010011515597+44267-071299FM-15+1910KMWN V0303001N022110001519N0000001N1-00801-00801999999ADDAA101000025GD15991+0001519GF109991999999000251999999MW1381MW2491REMMET001-
0077726130147552010011516597+44267-071299FM-15+1910KMWN V0303001N022610001519N0000001N1-00801-00801999999ADDAA101000025GD15991+0001519GF109991999999000251999999MW1381MW2491REMMET001-
0267726130147552010011517524+44267-071300FM-15+1910KMWN V0203001N022610001519N0000001N1-00801-00801999999ADDAA106000021AJ100469199999999GD15991+0001519GF109991999999000251999999KA1999M-00591KA2999N-00921MW1381MW2491OC102471REMMET105METAR KMWN 151752Z 30044G48KT 0SM BLSN FZFG VV000 M08/M08 RMK VRY LGT ICG 60000 4/018 931000 11059 21092;EQDQ01  00002PRCP06Q02  00008PRCP06
0136726130147552010011519004+44267-071300FM-15+1910KMWN V0203001N022110001519N0000001N1-00901-00901999999ADDGD15991+0001519GF109991999999000251999999MW1381MW2491REMMET071METAR KMWN 151856Z 30043KT 0SM BLSN FZFG VV000 M09/M09 RMK VRY LGT ICG;
0147726130147552010011520004+44267-071300FM-15+1910KMWN V0202901N024210001519N0000001N1-00901-00901999999ADDGD15991+0001519GF109991999999000251999999MW1381MW2491OC102931REMMET074METAR KMWN 151959Z 29047G57KT 0SM BLSN FZFG VV000 M09/M09 RMK VRY LGT ICG;
0136726130147552010011520524+44267-071300FM-15+1910KMWN V0203001N025210001519N0000001N1-00901-00901999999ADDGD15991+0001519GF109991999999000251999999MW1381MW2491REMMET071METAR KMWN 152052Z 30049KT 0SM BLSN FZFG VV000 M09/M09 RMK VRY LGT ICG;
0136726130147552010011521534+44267-071300FM-15+1910KMWN V0203001N028310001519N0000001N1-00901-00901999999ADDGD15991+0001519GF109991999999000251999999MW1381MW2491REMMET071METAR KMWN 152153Z 30055KT 0SM BLSN FZFG VV000 M09/M09 RMK VRY LGT ICG;
0147726130147552010011522484+44267-071300FM-15+1910KMWN V0202901N026810001519N0000001N1-01001-01001999999ADDGD15991+0001519GF109991999999000251999999MW1381MW2491OC102881REMMET074METAR KMWN 152248Z 29052G56KT 0SM BLSN FZFG VV000 M10/M10 RMK VRY LGT ICG;
0197726130147552010011523524+44267-071300FM-15+1910KMWN V0202901N023110001519N0000001N1-01001-01001999999ADDAJ100469199999999GD15991+0001519GF109991999999000251999999KA1999M-00831KA2999N-01001MW1381MW2491REMMET089METAR KMWN 152352Z 29045KT 0SM BLSN FZFG VV000 M10/M10 RMK VRY LGT ICG 4/018 11083 21100;
0163726130147552010011601004+44267-071300FM-15+1910KMWN V0203001N020610003019N0000001N1-01001-01001999999ADDGD15991+0003019GF109991999999000251999999MW1381MW2491OC102371REMMET090METAR KMWN 160055Z 30040G46KT 0SM BLSN FZFG VV001 M10/M10 RMK VRY LGT ICG STARS DMLY VSBL;
0155726130147552010011601544+44267-071300FM-15+1910KMWN V0203001N019510003019N0001011N1-01001-01001999999ADDGD15991+0003019GF109991999999000251999999MW1491OC102261REMMET088METAR KMWN 160154Z 30038G44KT 1/16SM FZFG VV001 M10/M10 RMK VRY LGT ICG STARS DMLY VSBL;
