0128726130147552012010100484+44267-071300FM-15+1910KMWN V0202901N019510006019N0001011N1-00401-00401999999ADDGD15991+0006019GF109991999999000251999999MW1491REMMET069METAR KMWN 010048Z 29038KT 1/16SM FZFG VV002 M04/M04 RMK VRY LGT ICG;
0153726130147552012010101504+44267-071300FM-15+1910KMWN V0203001N02211000151CN0001011N1-00501-00501999999ADDGD13991+0001519GF107991999999999999999999MW1481OC102471REMMET086METAR KMWN 010150Z 30043G48KT 1/16SM FZFG BKN000 M05/M05 RMK FZFG BKN 000 VRY LGT ICG;
0139726130147552012010102504+44267-071300FM-15+1910KMWN V0202901N019010006019N0001011N1-00501-00501999999ADDGD15991+0006019GF109991999999000251999999MW1491OC102261REMMET072METAR KMWN 010250Z 29037G44KT 1/16SM FZFG VV002 M05/M05 RMK VRY LGT ICG;
0136726130147552012010103514+44267-071300FM-15+1910KMWN V0202901N021110003019N0000001N1-00501-00501999999ADDGD15991+0003019GF109991999999000251999999MW1491OC102471REMMET069METAR KMWN 010351Z 29041G48KT 0SM FZFG VV001 M05/M05 RMK VRY LGT ICG;
0136726130147552012010104514+44267-071300FM-15+1910KMWN V0202801N021110003019N0000001N1-00501-00501999999ADDGD15991+0003019GF109991999999000251999999MW1491OC102571REMMET069METAR KMWN 010451Z 28041G50KT 0SM FZFG VV001 M05/M05 RMK VRY LGT ICG;
0222726130147552012010104596+44266-071299SOD  +1910KMWN V030999999999999999999999999999+99999+99999999999ADDAA124000891AJ100439599999999AL12400195AN1024001095GJ100005GK10005KA1240M-00105KA2240N-00555OE11240286118008015OE23240167699999999REMSOD0623   14755111231064  S0801          000000088003000220003004017EQDR01  00036AAP092
0186726130147552012010105544+44267-071300FM-15+1910KMWN V0202901N026210003019N0000001N1-00601-00601999999ADDAJ100439199999999GD15991+0003019GF109991999999000251999999KA1999M-00391KA2999N-00581MW1491REMMET084METAR KMWN 010554Z 29051KT 0SM FZFG VV001 M06/M06 RMK VRY LGT ICG 4/017 11039 21058;
0125726130147552012010106504+44267-071300FM-15+1910KMWN V0202901N020110003019N0000001N1-00501-00501999999ADDGD15991+0003019GF109991999999000251999999MW1491REMMET066METAR KMWN 010650Z 29039KT 0SM FZFG VV001 M05/M05 RMK VRY LGT ICG;
0136726130147552012010107524+44267-071300FM-15+1910KMWN V0202901N019010003019N0000001N1-00601-00601999999ADDGD15991+0003019GF109991999999000251999999MW1491OC102311REMMET069METAR KMWN 010752Z 29037G45KT 0SM FZFG VV001 M06/M06 RMK VRY LGT ICG;
0125726130147552012010108514+44267-071300FM-15+1910KMWN V0203001N020610003019N0000001N1-00601-00601999999ADDGD15991+0003019GF109991999999000251999999MW1491REMMET066METAR KMWN 010851Z 30040KT 0SM FZFG VV001 M06/M06 RMK VRY LGT ICG;
0192726130147552012010108596+44266+999999SOM  +1910KMWN V030999999999999999999999999999+99999+99999999999ADDAD10061992728999999999AE1229159079019AK1004393199999AM1017592727999999999AN1024098099GK10359GL1057559KB1024N-12949KB2024M-04509KB3024A-08729KC1N9-02562999999KC2M9+00330699999KE1249009309109
0125726130147552012010109504+44267-071300FM-15+1910KMWN V0202901N017510003019N0000001N1-00601-00601999999ADDGD15991+0003019GF109991999999000251999999MW1491REMMET066METAR KMWN 010950Z 29034KT 0SM FZFG VV001 M06/M06 RMK VRY LGT ICG;
0140726130147552012010111004+44267-071300FM-15+1910KMWN V0202801N01341000151CN0002011N1-00501-00501999999ADDGD13991+0001519GF107991999999999999999999MW1481REMMET081METAR KMWN 011055Z 28026KT 1/8SM FZFG BKN000 M05/M05 RMK FZFG BKN000 VRY LGT ICG;
0229726130147552012010112004+44267-071300FM-15+1910KMWN V0202801N011812200019N1600001N1-00101-00901999999ADDAA124000591AJ100439199999999GD11991+0510019GD23991+9999999KA1999M-00121KA2999N-00611REMMET098METAR KMWN 011155Z 28023KT 120SM BKN/// FEW170 M01/M09 RMK TPS LWR BKN055 70002 4/017 11012 21061;EQDQ01+000022SCOTCVQ02  00058PRCP24
0116726130147552012010113004+44267-071300FM-15+1910KMWN V0202901N007219999999N1600001N1-00101-00801999999ADDGD11991+0480019GD23991+9999999REMMET074METAR KMWN 011256Z 29014KT 130SM BKN/// FEW160 M01/M08 RMK TPS LWR BKN055;
0138726130147552012010113544+44267-071300FM-15+1910KMWN V0202901N007219999999N1600001N1-00101-01001999999ADDGD11991+0300019GD21991+0480019GD33991+9999999REMMET081METAR KMWN 011354Z 29014KT 130SM BKN/// FEW100 FEW160 M01/M10 RMK TPS LWR BKN050;
0138726130147552012010114504+44267-071300FM-15+1910KMWN V0202701N011312200019N1600001N1-00101-01501999999ADDGD11991+0300019GD21991+0480019GD32991+9999999REMMET081METAR KMWN 011450Z 27022KT 120SM SCT/// FEW100 FEW160 M01/M15 RMK TPS LWR SCT050;
0116726130147552012010117004+44267-071300FM-15+1910KMWN V0202401N004612200019N1600001N1-00101-01201999999ADDGD11991+0480019GD22991+9999999REMMET074METAR KMWN 011658Z 24009KT 110SM SCT/// FEW160 M01/M12 RMK TPS LWR SCT055;
0177726130147552012010117484+44267-071300FM-15+1910KMWN V0202201N013912200019N1600001N1-00101-01201999999ADDAJ100439199999999GD11991+0480019GD22991+9999999KA1999M+00031KA2999N-00131REMMET092METAR KMWN 011748Z 22027KT 110SM SCT/// FEW160 M01/M12 RMK TPS LWR SCT055 4/017 10003 21013;
0142726130147552012010118524+44267-071300FM-15+1910KMWN V0202101N017012200019N1600001N1-00201-01001999999ADDGD12991+0480019GD22991+9999999GF104991999999999999999999REMMET074METAR KMWN 011852Z 21033KT 100SM SCT/// SCT160 M02/M10 RMK TPS LWR SCT055;
0141726130147552012010119534+44267-071300FM-15+1910KMWN V0201901N015910480019N1448401N1-00201-00701999999ADDGD13991+0480019GD22991+9999999GF107991999999999999999999REMMET073METAR KMWN 011953Z 19031KT 90SM SCT/// BKN160 M02/M07 RMK TPS LWR SCT055;
0174726130147552012010120524+44267-071300FM-15+1910KMWN V0202001N014910480019N1207001N1-00101-01201999999ADDGD12991+0300019GD23991+0480019GD32991+9999999GF107991999999999999999999OC101901REMMET083METAR KMWN 012052Z 20029G37KT 75SM SCT/// SCT100 BKN160 M01/M12 RMK TPS LWR SCT055;
0226726130147552012010123004+44267-071300FM-15+1910KMWN V0201901N021110300019N0965601N1-00301-00701999999ADDGD13991+9999999GD21991+9999999GD32991+0210019GD43991+0300019GF107991999999999999999999REMMET109METAR KMWN 012255Z 19041KT 60SM BKN/// FEW/// SCT070 BKN100 BKN160 M03/M07 RMK TPS LWR BKN045 TPS LWR FEW060;EQDQ01 999993SCOCIG
0208726130147552012010123484+44267-071300FM-15+1910KMWN V0201801N023710003019N0000001N1-00501-00501999999ADDAJ100439199999999GD15991+0003019GF109991999999000251999999KA1999M-00121KA2999N-00521MW1361MW2491OC102571REMMET092METAR KMWN 012348Z 18046G50KT 0SM DRSN FZFG VV001 M05/M05 RMK VRY LGT ICG 4/017 11012 21052;
0136726130147552012010200514+44267-071300FM-15+1910KMWN V0201901N021110001519N0000001N1-00501-00501999999ADDGD15991+0001519GF109991999999000251999999MW1361MW2491REMMET071METAR KMWN 020051Z 19041KT 0SM DRSN FZFG VV000 M05/M05 RMK VRY LGT ICG;
0162726130147552012010201494+44267-071300FM-15+1910KMWN V0202001N019510001519N0000001N1-00501-00501999999ADDGD15991+0001519GF109991999999000251999999MW1361MW2491MW3731OC102621REMMET083METAR KMWN 020149Z 20038G51KT 0SM SN DRSN FZFG VV000 M05/M05 RMK SNB30 VRY LGT ICG;
0026726130147552012010201598+44266-071299FM-15+1910KMWN V03099999999999999999N999999999+99999+99999999999ADDAA101000395REMMET003001
0157726130147552012010202514+44267-071300FM-15+1910KMWN V0202101N015910001519N0000001N1-00401-00401999999ADDGD15991+0001519GF109991999999000251999999MW1361MW2491MW3711OC102161REMMET078METAR KMWN 020251Z 21031G42KT 0SM -SN DRSN FZFG VV000 M04/M04 RMK VRY LGT ICG;
0024726130147552012010202598+44266-071299FM-15+1910KMWN V03099999999999999999N999999999+99999+99999999999ADDAA101000025REMMET001-
0157726130147552012010203524+44267-071300FM-15+1910KMWN V0202201N019510001519N0000001N1-00401-00401999999ADDGD15991+0001519GF109991999999000251999999MW1381MW2491MW3711OC102421REMMET078METAR KMWN 020352Z 22038G47KT 0SM -SN BLSN FZFG VV000 M04/M04 RMK VRY LGT ICG;
0024726130147552012010203598+44266-071299FM-15+1910KMWN V03099999999999999999N999999999+99999+99999999999ADDAA101000025REMMET001-
0156726130147552012010204504+44267-071300FM-15+1910KMWN V0202101N021110001519N0000001N1-00401-00401999999ADDGD15991+0001519GF109991999999000251999999MW1381MW2491MW3731OC102471REMMET077METAR KMWN 020450Z 21041G48KT 0SM SN BLSN FZFG VV000 M04/M04 RMK VRY LGT ICG;
0222726130147552012010204596+44266-071299SOD  +1910KMWN V030999999999999999999999999999+99999+99999999999ADDAA124000591AJ100439599999999AL12400095AN1024000895GJ105485GK11005KA1240M+00065KA2240N-00605OE11240312923020525OE23240158799999999REMSOD0623   14755120101070 SW2052          054810036003300210002003017EQDR01  00026AAP092
0026726130147552012010204598+44266-071299FM-15+1910KMWN V03099999999999999999N999999999+99999+99999999999ADDAA101000395REMMET003001
0261726130147552012010205514+44267-071300FM-15+1910KMWN V0202201N018010001519N0000001N1-00401-00401999999ADDAA106000591AJ100439199999999GD15991+0001519GF109991999999000251999999KA1999M-00281KA2999N-00531MW1361MW2491MW3711OC102421REMMET109METAR KMWN 020551Z 22035G47KT 0SM -SN DRSN FZFG VV000 M04/M04 RMK VRY LGT ICG 60002 4/017 931003 11028 21053;EQDQ01  00058PRCP06
0024726130147552012010205598+44266-071299FM-15+1910KMWN V03099999999999999999N999999999+99999+99999999999ADDAA101000025REMMET001-
0156726130147552012010206514+44267-071300FM-15+1910KMWN V0202301N019010006019N0001011N1-00401-00401999999ADDGD15991+0006019GF109991999999000251999999MW1361MW2491OC102211REMMET083METAR KMWN 020651Z 23037G43KT 1/16SM DRSN FZFG VV002 M04/M04 RMK SNE30 VRY LGT ICG;
0026726130147552012010206598+44266-071299FM-15+1910KMWN V03099999999999999999N999999999+99999+99999999999ADDAA101001595REMMET003006
0150726130147552012010207504+44267-071300FM-15+1910KMWN V0202301N018510006019N0001011N1-00401-00401999999ADDGD15991+0006019GF109991999999000251999999MW1361MW2491OC102211REMMET077METAR KMWN 020750Z 23036G43KT 1/16SM DRSN FZFG VV002 M04/M04 RMK VRY LGT ICG;
0150726130147552012010208534+44267-071300FM-15+1910KMWN V0202401N019510006019N0001011N1-00401-00401999999ADDGD15991+0006019GF109991999999000251999999MW1361MW2491OC102211REMMET077METAR KMWN 020853Z 24038G43KT 1/16SM DRSN FZFG VV002 M04/M04 RMK VRY LGT ICG;
0152726130147552012010209514+44267-071300FM-15+1910KMWN V0202601N019010003019N0000001N1-00701-00701999999ADDGD15991+0003019GF109991999999000251999999MW1361MW2491MW3711REMMET081METAR KMWN 020951Z 26037KT 0SM -SN DRSN FZFG VV001 M07/M07 RMK SNB00 VRY LGT ICG;
0026726130147552012010209598+44266-071299FM-15+1910KMWN V03099999999999999999N999999999+99999+99999999999ADDAA101001595REMMET003006
0026726130147552012010210598+44266-071299FM-15+1910KMWN V03099999999999999999N999999999+99999+99999999999ADDAA101001595REMMET003006
0153726130147552012010211004+44267-071300FM-15+1910KMWN V0202501N020610003019N0000001N1-00901-00901999999ADDGD15991+0003019GF109991999999000251999999MW1361MW2491OC102471REMMET080METAR KMWN 021056Z 25040G48KT 0SM DRSN FZFG VV001 M09/M09 RMK SNE25 VRY LGT ICG;
0273726130147552012010211504+44267-071300FM-15+1910KMWN V0202501N020610003019N0000001N1-01001-01001999999ADDAA106004691AA224005191AJ100469199999999GD15991+0003019GF109991999999000251999999KA1999M-00391KA2999N-01001MW1361MW2491REMMET108METAR KMWN 021150Z 25040KT 0SM DRSN FZFG VV001 M10/M10 RMK VRY LGT ICG 60018 70020 4/018 931014 11039 21100;EQDQ01  00468PRCP06Q02  00518PRCP24
0150726130147552012010213004+44267-071300FM-15+1910KMWN V0202601N024710006019N0001011N1-01101-01101999999ADDGD15991+0006019GF109991999999000251999999MW1361MW2491OC102681REMMET077METAR KMWN 021255Z 26048G52KT 1/16SM DRSN FZFG VV002 M11/M11 RMK VRY LGT ICG;
0136726130147552012010213524+44267-071300FM-15+1910KMWN V0202601N025710003019N0000001N1-01101-01101999999ADDGD15991+0003019GF109991999999000251999999MW1361MW2491REMMET071METAR KMWN 021352Z 26050KT 0SM DRSN FZFG VV001 M11/M11 RMK VRY LGT ICG;
0136726130147552012010214534+44267-071300FM-15+1910KMWN V0202501N026210003019N0000001N1-01101-01101999999ADDGD15991+0003019GF109991999999000251999999MW1361MW2491REMMET071METAR KMWN 021453Z 25051KT 0SM DRSN FZFG VV001 M11/M11 RMK VRY LGT ICG;
0136726130147552012010215504+44267-071300FM-15+1910KMWN V0202601N025210001519N0000001N1-01101-01101999999ADDGD15991+0001519GF109991999999000251999999MW1361MW2491REMMET071METAR KMWN 021550Z 26049KT 0SM DRSN FZFG VV000 M11/M11 RMK VRY LGT ICG;
0147726130147552012010217004+44267-071300FM-15+1910KMWN V0202601N023710001519N0000001N1-01101-01101999999ADDGD15991+0001519GF109991999999000251999999MW1361MW2491OC102931REMMET074METAR KMWN 021657Z 26046G57KT 0SM DRSN FZFG VV000 M11/M11 RMK VRY LGT ICG;
0271726130147552012010217494+44267-071300FM-15+1910KMWN V0202501N022610001519N0000001N1-01201-01201999999ADDAA106000591AJ100489199999999GD15991+0001519GF109991999999000251999999KA1999M-01001KA2999N-01171MW1361MW2491MW3851OC102521REMMET119METAR KMWN 021749Z 25044G49KT 0SM -SHSN DRSN FZFG VV000 M12/M12 RMK SHSNB10 VRY LGT ICG 60002 4/019 931003 11100 21117;EQDQ01  00058PRCP06
0026726130147552012010217598+44266-071299FM-15+1910KMWN V03099999999999999999N999999999+99999+99999999999ADDAA101000595REMMET003002
0026726130147552012010218598+44266-071299FM-15+1910KMWN V03099999999999999999N999999999+99999+99999999999ADDAA101000595REMMET003002
0159726130147552012010219004+44267-071300FM-15+1910KMWN V0202601N023110003019N0000001N1-01201-01201999999ADDGD15991+0003019GF109991999999000251999999MW1361MW2491MW3851OC102621REMMET080METAR KMWN 021857Z 26045G51KT 0SM -SHSN DRSN FZFG VV001 M12/M12 RMK VRY LGT ICG;
0155726130147552012010219544+44267-071300FM-15+1910KMWN V0202501N023110003019N0000001N1-01201-01201999999ADDGD15991+0003019GF109991999999000251999999MW1361MW2491OC102571REMMET082METAR KMWN 021954Z 25045G50KT 0SM DRSN FZFG VV001 M12/M12 RMK SHSNE15 VRY LGT ICG;
0026726130147552012010219598+44266-071299FM-15+1910KMWN V03099999999999999999N999999999+99999+99999999999ADDAA101000395REMMET003001
0136726130147552012010221004+44267-071300FM-15+1910KMWN V0202601N025710003019N0000001N1-01201-01201999999ADDGD15991+0003019GF109991999999000251999999MW1361MW2491REMMET071METAR KMWN 022056Z 26050KT 0SM DRSN FZFG VV001 M12/M12 RMK VRY LGT ICG;
0156726130147552012010221544+44267-071300FM-15+1910KMWN V0202601N025710001519N0000001N1-01301-01301999999ADDGD15991+0001519GF109991999999000251999999MW1361MW2491MW3851REMMET085METAR KMWN 022154Z 26050KT 0SM -SHSN DRSN FZFG VV000 M13/M13 RMK SHSNB05 VRY LGT ICG;
0026726130147552012010221598+44266-071299FM-15+1910KMWN V03099999999999999999N999999999+99999+99999999999ADDAA101000595REMMET003002
0155726130147552012010222524+44267-071300FM-15+1910KMWN V0202501N027310001519N0000001N1-01301-01301999999ADDGD15991+0001519GF109991999999000251999999MW1361MW2491OC103041REMMET082METAR KMWN 022252Z 25053G59KT 0SM DRSN FZFG VV000 M13/M13 RMK SHSNE10 VRY LGT ICG;
0026726130147552012010222598+44266-071299FM-15+1910KMWN V03099999999999999999N999999999+99999+99999999999ADDAA101000395REMMET003001
0251726130147552012010223524+44267-071300FM-15+1910KMWN V0202601N030410001519N0000001N1-01301-01301999999ADDAA106001591AJ100489199999999GD15991+0001519GF109991999999000251999999KA1999M-01151KA2999N-01371MW1381MW2491OC103401REMMET105METAR KMWN 022352Z 26059G66KT 0SM BLSN FZFG VV000 M13/M13 RMK VRY LGT ICG 60006 4/019 931007 11115 21137;EQDQ01  00158PRCP06
0147726130147552012010300524+44267-071300FM-15+1910KMWN V0202601N030410001519N0000001N1-01401-01401999999ADDGD15991+0001519GF109991999999000251999999MW1381MW2491OC103241REMMET074METAR KMWN 030052Z 26059G63KT 0SM BLSN FZFG VV000 M14/M14 RMK VRY LGT ICG;
0147726130147552012010301514+44267-071300FM-15+1910KMWN V0202601N029310001519N0000001N1-01401-01401999999ADDGD15991+0001519GF109991999999000251999999MW1381MW2491OC103141REMMET074METAR KMWN 030151Z 26057G61KT 0SM BLSN FZFG VV000 M14/M14 RMK VRY LGT ICG;
0152726130147552012010302504+44267-071300FM-15+1910KMWN V0202701N025210001519N0000001N1-01501-01501999999ADDGD15991+0001519GF109991999999000251999999MW1381MW2491MW3711REMMET081METAR KMWN 030250Z 27049KT 0SM -SN BLSN FZFG VV000 M15/M15 RMK SNB20 VRY LGT ICG;
0026726130147552012010302598+44266-071299FM-15+1910KMWN V03099999999999999999N999999999+99999+99999999999ADDAA101000395REMMET003001
0153726130147552012010303504+44267-071300FM-15+1910KMWN V0202601N027310001519N0000001N1-01601-01601999999ADDGD15991+0001519GF109991999999000251999999MW1381MW2491OC102981REMMET080METAR KMWN 030350Z 26053G58KT 0SM BLSN FZFG VV000 M16/M16 RMK SNE40 VRY LGT ICG;
0026726130147552012010303598+44266-071299FM-15+1910KMWN V03099999999999999999N999999999+99999+99999999999ADDAA101000395REMMET003001
0152726130147552012010304514+44267-071300FM-15+1910KMWN V0202701N025210001519N0000001N1-01701-01701999999ADDGD15991+0001519GF109991999999000251999999MW1381MW2491MW3711REMMET081METAR KMWN 030451Z 27049KT 0SM -SN BLSN FZFG VV000 M17/M17 RMK SNB10 VRY LGT ICG;
0222726130147552012010304596+44266-071299SOD  +1910KMWN V030999999999999999999999999999+99999+99999999999ADDAA124007491AJ100469599999999AL12400795AN1024007495GJ100005GK10005KA1240M-00385KA2240N-01775OE11240362127019115OE23240238799999999REMSOD0623   14755120102081  W1911          000000088002500000029029018EQDR01  00296AAP092
0026726130147552012010304598+44266-071299FM-15+1910KMWN V03099999999999999999N999999999+99999+99999999999ADDAA101000395REMMET003001
0264726130147552012010305514+44267-071300FM-15+1910KMWN V0202601N025710003019N0001011N1-01801-01801999999ADDAA106000891AJ100489199999999GD15991+0003019GF109991999999000251999999KA1999M-01351KA2999N-01791MW1381MW2491MW3711OC102881REMMET112METAR KMWN 030551Z 26050G56KT 1/16SM -SN BLSN FZFG VV001 M18/M18 RMK VRY LGT ICG 60003 4/019 931005 11135 21179;EQDQ01  00088PRCP06
0024726130147552012010305598+44266-071299FM-15+1910KMWN V03099999999999999999N999999999+99999+99999999999ADDAA101000025REMMET001-
0157726130147552012010306504+44267-071300FM-15+1910KMWN V0202701N023110001519N0000001N1-01901-01901999999ADDGD15991+0001519GF109991999999000251999999MW1381MW2491MW3711OC102621REMMET078METAR KMWN 030650Z 27045G51KT 0SM -SN BLSN FZFG VV000 M19/M19 RMK VRY LGT ICG;
0026726130147552012010306598+44266-071299FM-15+1910KMWN V03099999999999999999N999999999+99999+99999999999ADDAA101000395REMMET003001
0160726130147552012010307514+44267-071300FM-15+1910KMWN V0202801N021610003019N0001011N1-02001-02001999999ADDGD15991+0003019GF109991999999000251999999MW1381MW2491MW3711OC102521REMMET081METAR KMWN 030751Z 28042G49KT 1/16SM -SN BLSN FZFG VV001 M20/M20 RMK VRY LGT ICG;
0026726130147552012010307598+44266-071299FM-15+1910KMWN V03099999999999999999N999999999+99999+99999999999ADDAA101000395REMMET003001
0145726130147552012010308524+44267-071300FM-15+1910KMWN V0202801N025210006019N0001011N1-02201-02201999999ADDGD15991+0006019GF109991999999000251999999MW1381MW2491REMMET080METAR KMWN 030852Z 28049KT 1/16SM BLSN FZFG VV002 M22/M22 RMK SNE00 VRY LGT ICG;
0139726130147552012010309534+44267-071300FM-15+1910KMWN V0202701N025710003019N0001011N1-02201-02201999999ADDGD15991+0003019GF109991999999000251999999MW1381MW2491REMMET074METAR KMWN 030953Z 27050KT 1/16SM BLSN FZFG VV001 M22/M22 RMK VRY LGT ICG;
0139726130147552012010310534+44267-071300FM-15+1910KMWN V0202701N024710003019N0001011N1-02301-02301999999ADDGD15991+0003019GF109991999999000251999999MW1381MW2491REMMET074METAR KMWN 031053Z 27048KT 1/16SM BLSN FZFG VV001 M23/M23 RMK VRY LGT ICG;
0276726130147552012010311524+44267-071300FM-15+1910KMWN V0202701N020610006019N0001011N1-02401-02401999999ADDAA106000591AA224003391AJ100519199999999GD15991+0006019GF109991999999000251999999KA1999M-01791KA2999N-02411MW1381MW2491REMMET111METAR KMWN 031152Z 27040KT 1/16SM BLSN FZFG VV002 M24/M24 RMK VRY LGT ICG 60002 70013 4/020 931004 11179 21241;EQDQ01  00058PRCP06Q02  00338PRCP24
0152726130147552012010313004+44267-071300FM-15+1910KMWN V0202701N015410006019N0002011N1-02401-02401999999ADDGD15991+0006019GF109991999999000251999999MW1381MW2491REMMET087METAR KMWN 031255Z 27030KT 1/8SM BLSN FZFG VV002 M24/M24 RMK VRY LGT ICG SUN DMLY VSBL;
0213726130147552012010314004+44267-071300FM-15+1910KMWN V0202701N01801021001CN0002011N1-02401-02401999999ADDGD13991+0001519GD23991+0210019GD33991+0480019GF107991999999999999999999MW1361MW2481OC101951REMMET110METAR KMWN 031357Z 27035G38KT 1/8SM DRSN FZFG BKN000 BKN070 BKN160 M24/M24 RMK FZFG BKN000 ACSL NE FZFG INTMT;
0163726130147552012010314544+44267-071300FM-15+1910KMWN V0202801N01701021001CN1207001N1-02101-03101999999ADDGD13991+0210019GD23991+0480019GD33991+9999999GF107991999999999999999999REMMET080METAR KMWN 031454Z 28033KT 75SM BKN/// BKN070 BKN160 M21/M31 RMK TPS LWR BKN055;
0208726130147552012010316004+44267-071300FM-15+1910KMWN V0202801N01651048001CN1126541N1-02001-03901999999ADDGD13991+0001519GD23991+0480019GD33991+9999999GF107991999999999999999999MW1361MW2411REMMET113METAR KMWN 031558Z 28032KT 70SM DRSN BCFG BKN/// BKN000 BKN160 M20/M39 RMK BCFG BKN000 TPS LWR BKN055 BCFG INTMT;
0258726130147552012010316524+44267-071300FM-15+1910KMWN V0202901N021610480019N1600001N1-02201-02702999999ADDGD13991+9999999GD21991+9999999GD32991+0360019GD43991+0480019GF107991999999999999999999MW1381REMMET119METAR KMWN 031652Z 29042KT 100SM BLSN BKN/// FEW/// SCT120 BKN160 M22/M27 RMK TPS LWR BKN055 BBLO FEW ALQDS INTMT BCFG;EQDQ01-002703ATOD  Q02 999993SCOCIG
0207726130147552012010317474+44267-071300FM-15+1910KMWN V0202901N020619999999N1600001N1-02301-03101999999ADDAJ100519199999999GD11991+0480019GD23991+9999999KA1999M-02041KA2999N-02431MW1381REMMET097METAR KMWN 031747Z 29040KT 120SM BLSN BKN/// FEW160 M23/M31 RMK TPS LWR BKN055 4/020 11204 21243;EQDQ01+000022SCOTCV
0146726130147552012010319004+44267-071300FM-15+1910KMWN V0202901N023719999999N1600001N1-02301-03001999999ADDGD11991+0480019GD23991+9999999MW1381REMMET079METAR KMWN 031859Z 29046KT 130SM BLSN BKN/// FEW160 M23/M30 RMK TPS LWR BKN055;EQDQ01+000022SCOTCV
0146726130147552012010320004+44267-071300FM-15+1910KMWN V0202901N025219999999N1600001N1-02301-03401999999ADDGD11991+0480019GD23991+9999999MW1381REMMET079METAR KMWN 031955Z 29049KT 130SM BLSN BKN/// FEW160 M23/M34 RMK TPS LWR BKN055;EQDQ01+000022SCOTCV
0135726130147552012010320534+44267-071300FM-16+1910KMWN V0203001N02621999999CN1600001N1-02401-03501999999ADDGD13991+9999999GF107991999999999999999999MW1381REMMET076METAR KMWN 032053Z 30051KT 130SM BLSN BKN/// SKC M24/M35 RMK TPS LWR BKN055;
0135726130147552012010321544+44267-071300FM-16+1910KMWN V0203001N02521999999CN1600001N1-02501-03201999999ADDGD13991+9999999GF107991999999999999999999MW1381REMMET076METAR KMWN 032154Z 30049KT 130SM BLSN BKN/// SKC M25/M32 RMK TPS LWR BKN055;
0147726130147552012010322544+44267-071300FM-16+1910KMWN V0203001N02371999999CN1600001N1-02401-03001999999ADDGD13991+9999999GF107991999999999999999999MW1381OC102621REMMET080METAR KMWN 032254Z 30046G51KT 130SM BLSN BKN/// SKC M24/M30 RMK TOPS LWR BKN055;
0207726130147552012010323544+44267-071300FM-16+1910KMWN V0203001N02371999999CN1600001N1-02101-02601999999ADDAJ100489199999999GD13991+9999999GF107991999999999999999999KA1999M-02131KA2999N-02481MW1381OC102621REMMET097METAR KMWN 032354Z 30046G51KT 130SM BLSN BKN/// SKC M21/M26 RMK TPS LWR BKN050 4/019 11213 21248;
0183726130147552012010400534+44267-071300FM-15+1910KMWN V0203101N017019999999N1600001N1-02001-02501999999ADDGD13991+9999999GD21991+9999999GD31991+0480019OC102111REMMET099METAR KMWN 040053Z 31033G41KT 100SM BKN/// FEW/// FEW160 M20/M25 RMK TPS LWR BKN050 TPS LWR FEW060;EQDQ01+000022SCOTCV
0135726130147552012010401504+44267-071300FM-15+1910KMWN V0203201N012312200019N1600001N1-02201-02801999999ADDGD11991+0480019GD22991+9999999REMMET074METAR KMWN 040150Z 32024KT 100SM SCT/// FEW160 M22/M28 RMK TPS LWR SCT040;EQDQ01+000022SCOTCV
0134726130147552012010402514+44267-071300FM-15+1910KMWN V0203201N016512200019N1287471N1-02001-02401999999ADDGD11991+0480019GD22991+9999999REMMET073METAR KMWN 040251Z 32032KT 80SM SCT/// FEW160 M20/M24 RMK TPS LWR SCT035;EQDQ01+000022SCOTCV
0145726130147552012010403524+44267-071300FM-15+1910KMWN V0203201N018012200019N1287471N1-02001-02301999999ADDGD11991+0480019GD22991+9999999OC102011REMMET076METAR KMWN 040352Z 32035G39KT 80SM SCT/// FEW160 M20/M23 RMK TPS LWR SCT035;EQDQ01+000022SCOTCV
0123726130147552012010404504+44267-071300FM-15+1910KMWN V0203101N020612200019N1287471N1-02001-02301999999ADDGD12991+9999999GF104991999999999999999999REMMET070METAR KMWN 040450Z 31040KT 80SM SCT/// SKC M20/M23 RMK TPS LWR SCT035;
0222726130147552012010404596+44266-071299SOD  +1910KMWN V030999999999999999999999999999+99999+99999999999ADDAA124000591AJ100519599999999AL12400195AN1024001095GJ104045GK10745KA1240M-01775KA2240N-02495OE11240299527001075OE23240207999999999REMSOD0623   14755120103067  W0107          0404074440000-0130002004020EQDR01  00026AAP092
0195726130147552012010405524+44267-071300FM-16+1910KMWN V0203101N020112200019N1287471N1-02001-02301999999ADDAJ101249199999999GD12991+9999999GF104991999999999999999999KA1999M-01851KA2999N-02351OC102371REMMET091METAR KMWN 040552Z 31039G46KT 80SM SCT/// SKC M20/M23 RMK TPS LWR SCT035 4/049 11185 21235;
0123726130147552012010406504+44267-071300FM-15+1910KMWN V0203201N019512200019N1287471N1-02001-02501999999ADDGD12991+9999999GF104991999999999999999999REMMET070METAR KMWN 040650Z 32038KT 80SM SCT/// SKC M20/M25 RMK TPS LWR SCT035;
0135726130147552012010407504+44267-071300FM-15+1910KMWN V0203201N020612200019N1600001N1-02001-03302999999ADDGD12991+9999999GF104991999999999999999999OC102371REMMET074METAR KMWN 040750Z 32040G46KT 100SM SCT/// SKC M20/M33 RMK TPS LWR SCT035;
0135726130147552012010408524+44267-071300FM-16+1910KMWN V0203201N023112200019N1600001N1-02001-03301999999ADDGD12991+9999999GF104991999999999999999999OC102621REMMET074METAR KMWN 040852Z 32045G51KT 100SM SCT/// SKC M20/M33 RMK TPS LWR SCT035;
0135726130147552012010409504+44267-071300FM-15+1910KMWN V0203101N022112200019N1600001N1-02101-03401999999ADDGD12991+9999999GF104991999999999999999999OC102681REMMET074METAR KMWN 040950Z 31043G52KT 100SM SCT/// SKC M21/M34 RMK TPS LWR SCT035;
0124726130147552012010411004+44267-071300FM-15+1910KMWN V0203101N021112200019N1600001N1-02101-03101999999ADDGD12991+9999999GF104991999999999999999999REMMET071METAR KMWN 041058Z 31041KT 100SM SCT/// SKC M21/M31 RMK TPS LWR SCT035;
0185726130147552012010412004+44267-071300FM-15+1910KMWN V0203101N020612200019N1600001N1-02201-03601999999ADDAJ100489199999999GD11991+9999999GF102991999999999999999999KA1999M-01991KA2999N-02191REMMET089METAR KMWN 041155Z 31040KT 110SM FEW/// SKC M22/M36 RMK TPS LWR FEW035 4/019 11199 21219;
0186726130147552012010413004+44267-071300FM-15+1910KMWN V0203201N017012200019N1600001N1-02301-02901999999ADDGD11991+0300019GD21991+0480019GD31991+9999999GF102991999999999999999999MW1381OC102061REMMET089METAR KMWN 041257Z 32033G40KT 120SM BLSN FEW/// FEW100 FEW160 M23/M29 RMK TPS LWR FEW035;
0204726130147552012010414004+44267-071300FM-15+1910KMWN V0203001N020612200019N1600001N1-02201-03101999999ADDGD11991+0210019GD21991+0360019GD32991+0480019GD41991+9999999GF104991999999999999999999MW1381REMMET100METAR KMWN 041355Z 30040KT 120SM BLSN FEW/// FEW070 FEW120 SCT160 M22/M31 RMK TPS LWR FEW035 ACSL S;
0170726130147552012010414504+44267-071300FM-15+1910KMWN V0202901N024210480019N1600001N1-02201-03301999999ADDGD11991+0210019GD22991+0360019GD33991+0480019GF107991999999999999999999MW1381REMMET081METAR KMWN 041450Z 29047KT 110SM BLSN FEW070 SCT120 BKN160 M22/M33 RMK ACSL S-SW;
0221726130147552012010416004+44267-071300FM-15+1910KMWN V0203001N022610210019N1600001N1-02101-03201999999ADDGD12991+0150019GD23991+0210019GD33991+0360019GD43991+0480019GF107991999999999999999999MW1381REMMET117METAR KMWN 041555Z 30044KT 110SM BLSN SCT050 BKN070 BKN120 BKN160 BKN190 M21/M32 RMK SCSL NE-E ACSL ALQDS CCSL SW-NW;
0200726130147552012010417004+44267-071300FM-15+1910KMWN V0202901N021610210019N1600001N1-02101-02801999999ADDGD11991+0150019GD23991+0210019GD33991+0360019GD43991+0480019GF107991999999999999999999REMMET102METAR KMWN 041657Z 29042KT 120SM FEW050 BKN070 BKN120 BKN160 BKN190 M21/M28 RMK ACSL NE-SW CCSL SW-NW;
0276726130147552012010418004+44267-071300FM-15+1910KMWN V0202801N020610210019N1600001N1-02101-02901999999ADDAJ100489199999999GD11991+0015019GD22991+0150019GD33991+0210019GD43991+0360019GF107991999999999999999999KA1999M-02041KA2999N-02321REMMET135METAR KMWN 041758Z 28040KT 120SM FEW005 SCT050 BKN070 BKN120 BKN150 BKN180 M21/M29 RMK ACSL NE-SW CCSL OHD AND ALQDS 4/019 11204 21232;
0285726130147552012010419004+44267-071300FM-15+1910KMWN V0202801N020110015019N0482801N1-01901-02401999999ADDGD12991+0001519GD23991+0015019GD33991+0120019GD41991+9999999GF108991999999999999999999REMMET187METAR KMWN 041856Z 28039KT 30SM FEW/// SCT000 BKN005 BKN040 BKN070 OVC120 M19/M24 RMK ACSL NE-S CAP CLOUD OHD EDGES BLO STA LIMITING VIS TO 30SM TPS LWR FEW038 INTMT BCFG CORONA ARND SUN;
0255726130147552012010419544+44267-071300FM-15+1910KMWN V0202801N019519999999N1600001N1-02001-02701999999ADDGD12991+9999999GD22991+9999999GD31991+0001519GD42991+0015019GF108991999999999999999999REMMET157METAR KMWN 041954Z 28038KT 100SM SCT/// SCT/// FEW000 SCT005 BKN040 OVC070 M20/M27 RMK SCSL E ACSL NE-SE CAP CLOUD N TPS LWR SCT038 BBLO SCT W-N VIS LWR W-N;
0167726130147552012010420504+44267-071300FM-15+1910KMWN V0202701N021610210019N0965601N1-02001-02501999999ADDGD11991+0001519GD22991+0120019GD34991+0210019GF108991999999999999999999REMMET084METAR KMWN 042050Z 27042KT 60SM FEW000 SCT040 OVC070 M20/M25 RMK ACSL E SH DSNT W-N;
0178726130147552012010421514+44267-071300FM-15+1910KMWN V0202701N021610120019N0965601N1-01901-02201999999ADDGD12991+0001519GD23991+0120019GD34991+0210019GF108991999999999999999999MW1411REMMET089METAR KMWN 042151Z 27042KT 60SM BCFG SCT000 BKN040 OVC070 M19/M22 RMK BCFG SCT000 ACSL E;
0133726130147552012010423004+44267-071300FM-15+1910KMWN V0202701N023710150019N0965601N1-01901-02201999999ADDGD11991+0090019GD23991+0150019GF107991999999999999999999REMMET065METAR KMWN 042256Z 27046KT 60SM FEW030 BKN050 M19/M22 RMK ACSL E;
0204726130147552012010423514+44267-071300FM-15+1910KMWN V0202701N025210540019N0965601N1-01801-02201999999ADDAJ100489199999999GD12991+0150019GD24991+0540019GF108991999999999999999999KA1999M-01761KA2999N-02071REMMET093METAR KMWN 042351Z 27049KT 60SM SCT050 OVC180 M18/M22 RMK CORONA ARND MOON 4/019 11176 21207;
0158726130147552012010500504+44267-071300FM-15+1910KMWN V0202701N021610150019N1126541N1-01701-02001999999ADDGD12991+0030019GD23991+0150019GD34991+0210019GF108991999999999999999999REMMET075METAR KMWN 050050Z 27042KT 70SM SCT010 BKN050 OVC070 M17/M20 RMK ACSL NE-E;
0170726130147552012010501524+44267-071300FM-15+1910KMWN V0202601N019510030019N1287471N1-01801-02201999999ADDGD13991+0030019GD23991+0150019GD34991+0210019GF108991999999999999999999OC102211REMMET079METAR KMWN 050152Z 26038G43KT 80SM BKN010 BKN050 OVC070 M18/M22 RMK ACSL NE-SE;
0145726130147552012010502544+44267-071300FM-15+1910KMWN V0202701N019010001519N0000001N1-01901-01901999999ADDGD15991+0001519GF109991999999000251999999MW1491MW2851REMMET080METAR KMWN 050254Z 27037KT 0SM -SHSN FZFG VV000 M19/M19 RMK SHSNB25 VRY LGT ICG;
0024726130147552012010502598+44266-071299FM-15+1910KMWN V03099999999999999999N999999999+99999+99999999999ADDAA101000025REMMET001-
0024726130147552012010503598+44266-071299FM-15+1910KMWN V03099999999999999999N999999999+99999+99999999999ADDAA101000025REMMET001-
0137726130147552012010504004+44267-071300FM-15+1910KMWN V0202701N019010001519N0000001N1-02001-02001999999ADDGD15991+0001519GF109991999999000251999999MW1491MW2851REMMET072METAR KMWN 050356Z 27037KT 0SM -SHSN FZFG VV000 M20/M20 RMK VRY LGT ICG;
0148726130147552012010504534+44267-071300FM-15+1910KMWN V0202701N019510001519N0000001N1-01801-01801999999ADDGD15991+0001519GF109991999999000251999999MW1381MW2491MW3851REMMET077METAR KMWN 050453Z 27038KT 0SM -SHSN BLSN FZFG VV000 M18/M18 RMK VRY LGT ICG;
0238726130147552012010504596+44266-071299SOD  +1910KMWN V030999999999999999999999999999+99999+99999999999ADDAA124000391AJ100489199999999AL12400095AN1024000895GJ101855GK10345KA1240M-01715KA2240N-02325OE11240295032004335OE23240209299999999REMSOD0623   14755120104066 NW0433          0185034650001-0100001003019EQDR01  00016AAP092R02   0196AJS033
0026726130147552012010504598+44266-071299FM-15+1910KMWN V03099999999999999999N999999999+99999+99999999999ADDAA101000395REMMET003001
0261726130147552012010505544+44267-071300FM-15+1910KMWN V0202701N017010001519N0000001N1-01701-01701999999ADDAA106000591AJ100519199999999GD15991+0001519GF109991999999000251999999KA1999M-01701KA2999N-01981MW1381MW2491MW3711REMMET117METAR KMWN 050554Z 27033KT 0SM -SN BLSN FZFG VV000 M17/M17 RMK SHSNESNB05 VRY LGT ICG 60002 4/020 931006 11170 21198;EQDQ01  00058PRCP06
0026726130147552012010505598+44266-071299FM-15+1910KMWN V03099999999999999999N999999999+99999+99999999999ADDAA101000395REMMET003001
0024726130147552012010506598+44266-071299FM-15+1910KMWN V03099999999999999999N999999999+99999+99999999999ADDAA101000025REMMET001-
0146726130147552012010507004+44267-071300FM-15+1910KMWN V0202701N020110001519N0000001N1-01601-01601999999ADDGD15991+0001519GF109991999999000251999999MW1381MW2491MW3711REMMET075METAR KMWN 050658Z 27039KT 0SM -SN BLSN FZFG VV000 M16/M16 RMK VRY LGT ICG;
0026726130147552012010507598+44266-071299FM-15+1910KMWN V03099999999999999999N999999999+99999+99999999999ADDAA101000395REMMET003001
0146726130147552012010508004+44267-071300FM-15+1910KMWN V0202701N021610001519N0000001N1-01601-01601999999ADDGD15991+0001519GF109991999999000251999999MW1381MW2491MW3711REMMET075METAR KMWN 050758Z 27042KT 0SM -SN BLSN FZFG VV000 M16/M16 RMK VRY LGT ICG;
0157726130147552012010508544+44267-071300FM-15+1910KMWN V0202701N021610001519N0000001N1-01501-01501999999ADDGD15991+0001519GF109991999999000251999999MW1381MW2491MW3711OC102421REMMET078METAR KMWN 050854Z 27042G47KT 0SM -SN BLSN FZFG VV000 M15/M15 RMK VRY LGT ICG;
0024726130147552012010508598+44266-071299FM-15+1910KMWN V03099999999999999999N999999999+99999+99999999999ADDAA101000025REMMET001-
0026726130147552012010509598+44266-071299FM-15+1910KMWN V03099999999999999999N999999999+99999+99999999999ADDAA101000395REMMET003001
0146726130147552012010510004+44267-071300FM-15+1910KMWN V0202701N022610001519N0000001N1-01501-01501999999ADDGD15991+0001519GF109991999999000251999999MW1381MW2491MW3711REMMET075METAR KMWN 050958Z 27044KT 0SM -SN BLSN FZFG VV000 M15/M15 RMK VRY LGT ICG;
0146726130147552012010510514+44267-071300FM-15+1910KMWN V0202701N022110001519N0000001N1-01501-01501999999ADDGD15991+0001519GF109991999999000251999999MW1381MW2491MW3711REMMET075METAR KMWN 051051Z 27043KT 0SM -SN BLSN FZFG VV000 M15/M15 RMK VRY LGT ICG;
0024726130147552012010510598+44266-071299FM-15+1910KMWN V03099999999999999999N999999999+99999+99999999999ADDAA101000025REMMET001-
0294726130147552012010511534+44267-071300FM-15+1910KMWN V0202701N024210001519N0000001N1-01501-01501999999ADDAA106000891AA224001391AJ100519199999999GD15991+0001519GF109991999999000251999999KA1999M-01481KA2999N-01731MW1381MW2491MW3711OC102681REMMET115METAR KMWN 051153Z 27047G52KT 0SM -SN BLSN FZFG VV000 M15/M15 RMK VRY LGT ICG 60003 70005 4/020 931006 11148 21173;EQDQ01  00088PRCP06Q02  00138PRCP24
0026726130147552012010511598+44266-071299FM-15+1910KMWN V03099999999999999999N999999999+99999+99999999999ADDAA101000395REMMET003001
0146726130147552012010512504+44267-071300FM-15+1910KMWN V0202801N025210001519N0000001N1-01501-01501999999ADDGD15991+0001519GF109991999999000251999999MW1381MW2491MW3711REMMET075METAR KMWN 051250Z 28049KT 0SM -SN BLSN FZFG VV000 M15/M15 RMK VRY LGT ICG;
0026726130147552012010512598+44266-071299FM-15+1910KMWN V03099999999999999999N999999999+99999+99999999999ADDAA101000395REMMET003001
0146726130147552012010513484+44267-071300FM-15+1910KMWN V0202801N023710001519N0000001N1-01501-01501999999ADDGD15991+0001519GF109991999999000251999999MW1381MW2491MW3711REMMET075METAR KMWN 051348Z 28046KT 0SM -SN BLSN FZFG VV000 M15/M15 RMK VRY LGT ICG;
0026726130147552012010513598+44266-071299FM-15+1910KMWN V03099999999999999999N999999999+99999+99999999999ADDAA101000595REMMET003002
0026726130147552012010514598+44266-071299FM-15+1910KMWN V03099999999999999999N999999999+99999+99999999999ADDAA101000395REMMET003001
0146726130147552012010515004+44267-071300FM-15+1910KMWN V0202701N026210001519N0000001N1-01401-01401999999ADDGD15991+0001519GF109991999999000251999999MW1381MW2491MW3711REMMET075METAR KMWN 051459Z 27051KT 0SM -SN BLSN FZFG VV000 M14/M14 RMK VRY LGT ICG;
0026726130147552012010515598+44266-071299FM-15+1910KMWN V03099999999999999999N999999999+99999+99999999999ADDAA101000395REMMET003001
0146726130147552012010516004+44267-071300FM-15+1910KMWN V0202701N024210001519N0000001N1-01501-01501999999ADDGD15991+0001519GF109991999999000251999999MW1381MW2491MW3711REMMET075METAR KMWN 051559Z 27047KT 0SM -SN BLSN FZFG VV000 M15/M15 RMK VRY LGT ICG;
0146726130147552012010516514+44267-071300FM-15+1910KMWN V0202701N023710001519N0000001N1-01501-01501999999ADDGD15991+0001519GF109991999999000251999999MW1381MW2491MW3711REMMET075METAR KMWN 051651Z 27046KT 0SM -SN BLSN FZFG VV000 M15/M15 RMK VRY LGT ICG;
0026726130147552012010516598+44266-071299FM-15+1910KMWN V03099999999999999999N999999999+99999+99999999999ADDAA101000595REMMET003002
0261726130147552012010517494+44267-071300FM-15+1910KMWN V0202801N024210001519N0000001N1-01501-01501999999ADDAA106002091AJ100519199999999GD15991+0001519GF109991999999000251999999KA1999M-01441KA2999N-01541MW1381MW2491MW3711OC102881REMMET109METAR KMWN 051749Z 28047G56KT 0SM -SN BLSN FZFG VV000 M15/M15 RMK VRY LGT ICG 60008 4/020 931007 11144 21154;EQDQ01  00208PRCP06
0026726130147552012010517598+44266-071299FM-15+1910KMWN V03099999999999999999N999999999+99999+99999999999ADDAA101000395REMMET003001
0026726130147552012010518598+44266-071299FM-15+1910KMWN V03099999999999999999N999999999+99999+99999999999ADDAA101000395REMMET003001
0146726130147552012010519004+44267-071300FM-15+1910KMWN V0202801N028810001519N0000001N1-01701-01701999999ADDGD15991+0001519GF109991999999000251999999MW1381MW2491MW3711REMMET075METAR KMWN 051858Z 28056KT 0SM -SN BLSN FZFG VV000 M17/M17 RMK VRY LGT ICG;
0157726130147552012010519534+44267-071300FM-15+1910KMWN V0202701N030410001519N0000001N1-01801-01801999999ADDGD15991+0001519GF109991999999000251999999MW1381MW2491MW3711OC103401REMMET078METAR KMWN 051953Z 27059G66KT 0SM -SN BLSN FZFG VV000 M18/M18 RMK VRY LGT ICG;
0026726130147552012010519598+44266-071299FM-15+1910KMWN V03099999999999999999N999999999+99999+99999999999ADDAA101000395REMMET003001
0157726130147552012010520484+44267-071300FM-15+1910KMWN V0202901N028310001519N0000001N1-01801-01801999999ADDGD15991+0001519GF109991999999000251999999MW1381MW2491MW3711OC103091REMMET078METAR KMWN 052048Z 29055G60KT 0SM -SN BLSN FZFG VV000 M18/M18 RMK VRY LGT ICG;
0026726130147552012010520598+44266-071299FM-15+1910KMWN V03099999999999999999N999999999+99999+99999999999ADDAA101000395REMMET003001
0142726130147552012010521544+44267-071300FM-15+1910KMWN V0202801N027810001519N0000001N1-01901-01901999999ADDGD15991+0001519GF109991999999000251999999MW1381MW2491REMMET077METAR KMWN 052154Z 28054KT 0SM BLSN FZFG VV000 M19/M19 RMK SNE00 VRY LGT ICG;
0147726130147552012010522534+44267-071300FM-15+1910KMWN V0202801N031410001519N0000001N1-02001-02001999999ADDGD15991+0001519GF109991999999000251999999MW1381MW2491OC103291REMMET074METAR KMWN 052253Z 28061G64KT 0SM BLSN FZFG VV000 M20/M20 RMK VRY LGT ICG;
0267726130147552012010523514+44267-071300FM-15+1910KMWN V0202801N030910001519N0000001N1-02001-02001999999ADDAA106001091AJ100539199999999GD15991+0001519GF109991999999000251999999KA1999M-01541KA2999N-02001MW1381MW2491MW3711OC103401REMMET115METAR KMWN 052351Z 28060G66KT 0SM -SN BLSN FZFG VV000 M20/M20 RMK SNB35 VRY LGT ICG 60004 4/021 931005 11154 21200;EQDQ01  00108PRCP06
0026726130147552012010523598+44266-071299FM-15+1910KMWN V03099999999999999999N999999999+99999+99999999999ADDAA101000395REMMET003001
0161726130147552012010600524+44267-071300FM-15+1910KMWN V0202801N028310001519N0000001N1-02001-02001999999ADDGD15991+0001519GF109991999999000251999999MW1381MW2491MW3711OC103191REMMET082METAR KMWN 060052Z COR 28055G62KT 0SM -SN BLSN FZFG VV000 M20/M20 RMK VRY LGT ICG;
0026726130147552012010600598+44266-071299FM-15+1910KMWN V03099999999999999999N999999999+99999+99999999999ADDAA101000395REMMET003001
0146726130147552012010601534+44267-071300FM-15+1910KMWN V0202801N027310001519N0000001N1-02101-02101999999ADDGD15991+0001519GF109991999999000251999999MW1381MW2491MW3711REMMET075METAR KMWN 060153Z 28053KT 0SM -SN BLSN FZFG VV000 M21/M21 RMK VRY LGT ICG;
0024726130147552012010601598+44266-071299FM-15+1910KMWN V03099999999999999999N999999999+99999+99999999999ADDAA101000025REMMET001-
0159726130147552012010602534+44267-071300FM-15+1910KMWN V0202801N026210001519N0000001N1-02101-02101999999ADDGD15991+0001519GF109991999999000251999999MW1381MW2491REMMET094METAR KMWN 060253Z 28051KT 0SM BLSN FZFG VV000 M21/M21 RMK SNE10 VRY LGT ICG CORONA ARND MOON;
0024726130147552012010602598+44266-071299FM-15+1910KMWN V03099999999999999999N999999999+99999+99999999999ADDAA101000025REMMET001-
0162726130147552012010603504+44267-071300FM-15+1910KMWN V0202801N02571000151CN0001011N1-02101-02101999999ADDGD13991+0001519GF107991999999999999999999MW1381MW2481REMMET097METAR KMWN 060350Z 28050KT 1/16SM BLSN FZFG BKN000 M21/M21 RMK FZFG BKN000 BKN V SCT VRY LGT ICG;
0176726130147552012010604514+44267-071300FM-15+1910KMWN V0202801N025212200019N0001011N1-02101-02101999999ADDGD12991+0001519GD22991+0750019GF104991999999999999999999MW1481REMMET102METAR KMWN 060451Z 28049KT 1/16SM FZFG SCT000 SCT250 M21/M21 RMK FZFG SCT000 SCT000 V FEW VRY LGT ICG;
0222726130147552012010604596+44266-071299SOD  +1910KMWN V030999999999999999999999999999+99999+99999999999ADDAA124004391AJ100519599999999AL12400695AN1024006195GJ100005GK10005KA1240M-01435KA2240N-02105OE11240397927014595OE23240250399999999REMSOD0623   14755120105089  W1459          0000000880006-0060017024020EQDR01  00176AAP092
0330726130147552012010606004+44267-071300FM-15+1910KMWN V0202801N023112200019N1287471N1-02001-02401999999ADDAA106000391AJ100539199999999GD11991+0001519GD21991+0360019GD32991+0480019GD42991+9999999GF107991999999999999999999KA1999M-01941KA2999N-02101MW1411REMMET153METAR KMWN 060555Z 28045KT 80SM BCFG SCT/// FEW000 FEW120 SCT160 BKN250 M20/M24 RMK BCFG FEW000 TPS LWR SCT058 BCFG INTMT 60001 4/021 931003 11194 21210;EQDQ01  00038PRCP06
0298726130147552012010606544+44267-071300FM-15+1910KMWN V0202801N021119999999N1448401N1-01901-02301999999ADDGD13991+9999999GD22991+9999999GD31991+0001519GD41991+0180019GF107991999999999999999999MW1411OC102621REMMET186METAR KMWN 060654Z 28041G51KT 90SM BCFG BKN/// SCT/// FEW000 FEW060 BKN140 BKN180 M19/M23 RMK VIS SW-NW 2 BCFG FEW000 ACSL N-NE TPS LWR BKN052 BBLO SCT SW-NW BCFG INTMT CORONA ARND MOON;
0203726130147552012010608004+44267-071300FM-15+1910KMWN V0202801N021612200019N1448401N1-01701-02201999999ADDGD11991+0120019GD22991+0360019GD32991+0540019GD41991+9999999GF104991999999999999999999OC102311REMMET097METAR KMWN 060757Z 28042G45KT 90SM FEW/// FEW040 SCT120 SCT180 SCT250 M17/M22 RMK TPS LWR FEW039;
0149726130147552012010608524+44267-071300FM-15+1910KMWN V0202801N022110006019N0002011N1-01601-01601999999ADDGD15991+0006019GF109991999999000251999999MW1381MW2491OC102621REMMET076METAR KMWN 060852Z 28043G51KT 1/8SM BLSN FZFG VV002 M16/M16 RMK VRY LGT ICG;
0024726130147552012010609598+44266-071299FM-15+1910KMWN V03099999999999999999N999999999+99999+99999999999ADDAA101000025REMMET001-
0155726130147552012010610004+44267-071300FM-15+1910KMWN V0202701N023710001519N0001011N1-01401-01401999999ADDGD15991+0001519GF109991999999000251999999MW1381MW2491MW3711REMMET084METAR KMWN 060955Z 27046KT 1/16SM -SN BLSN FZFG VV000 M14/M14 RMK SNB10 VRY LGT ICG;
0026726130147552012010610598+44266-071299FM-15+1910KMWN V03099999999999999999N999999999+99999+99999999999ADDAA101000395REMMET003001
0149726130147552012010611004+44267-071300FM-15+1910KMWN V0202601N019510001519N0001011N1-01401-01401999999ADDGD15991+0001519GF109991999999000251999999MW1381MW2491MW3711REMMET078METAR KMWN 061056Z 26038KT 1/16SM -SN BLSN FZFG VV000 M14/M14 RMK VRY LGT ICG;
0283726130147552012010611504+44267-071300FM-15+1910KMWN V0202501N017010001519N0000001N1-01301-01301999999ADDAA106000391AA224003691AJ100539199999999GD15991+0001519GF109991999999000251999999KA1999M-01331KA2999N-02041MW1381MW2491MW3711REMMET112METAR KMWN 061150Z 25033KT 0SM -SN BLSN FZFG VV000 M13/M13 RMK VRY LGT ICG 60001 70014 4/021 931003 11133 21204;EQDQ01  00038PRCP06Q02  00368PRCP24
0024726130147552012010611598+44266-071299FM-15+1910KMWN V03099999999999999999N999999999+99999+99999999999ADDAA101000025REMMET001-
0146726130147552012010612484+44267-071300FM-15+1910KMWN V0202501N017010001519N0000001N1-01301-01301999999ADDGD15991+0001519GF109991999999000251999999MW1381MW2491MW3711REMMET075METAR KMWN 061248Z 25033KT 0SM -SN BLSN FZFG VV000 M13/M13 RMK VRY LGT ICG;
0026726130147552012010612598+44266-071299FM-15+1910KMWN V03099999999999999999N999999999+99999+99999999999ADDAA101000395REMMET003001
0146726130147552012010613544+44267-071300FM-15+1910KMWN V0202501N016510001519N0000001N1-01101-01101999999ADDGD15991+0001519GF109991999999000251999999MW1381MW2491MW3711REMMET075METAR KMWN 061354Z 25032KT 0SM -SN BLSN FZFG VV000 M11/M11 RMK VRY LGT ICG;
0024726130147552012010613598+44266-071299FM-15+1910KMWN V03099999999999999999N999999999+99999+99999999999ADDAA101000025REMMET001-
0146726130147552012010614504+44267-071300FM-15+1910KMWN V0202401N015910001519N0000001N1-01101-01101999999ADDGD15991+0001519GF109991999999000251999999MW1381MW2491MW3711REMMET075METAR KMWN 061450Z 24031KT 0SM -SN BLSN FZFG VV000 M11/M11 RMK VRY LGT ICG;
0026726130147552012010614598+44266-071299FM-15+1910KMWN V03099999999999999999N999999999+99999+99999999999ADDAA101000395REMMET003001
0148726130147552012010615544+44267-071300FM-15+1910KMWN V0202401N015910003019N0002011N1-01101-01101999999ADDGD15991+0003019GF109991999999000251999999MW1381MW2491MW3711REMMET077METAR KMWN 061554Z 24031KT 1/8SM -SN BLSN FZFG VV001 M11/M11 RMK VRY LGT ICG;
0024726130147552012010615598+44266-071299FM-15+1910KMWN V03099999999999999999N999999999+99999+99999999999ADDAA101000025REMMET001-
0168726130147552012010616484+44267-071300FM-15+1910KMWN V0202401N017010003019N0001011N1-01001-01001999999ADDGD15991+0003019GF109991999999000251999999MW1381MW2711MW3771OC102011REMMET089METAR KMWN 061648Z 24033G39KT 1/16SM -SGSN BLSN FZFG VV001 M10/M10 RMK SGB30 VRY LGT ICG;
0026726130147552012010616598+44266-071299FM-15+1910KMWN V03099999999999999999N999999999+99999+99999999999ADDAA101000395REMMET003001
0256726130147552012010617534+44267-071300FM-15+1910KMWN V0202401N017010001519N0000001N1-00901-00901999999ADDAA106000891AJ100539199999999GD15991+0001519GF109991999999000251999999KA1999M-00921KA2999N-01361MW1381MW2491MW3771REMMET112METAR KMWN 061753Z 24033KT 0SM -SG BLSN FZFG VV000 M09/M09 RMK SNE05 VRY LGT ICG 60003 4/021 931006 11092 21136;EQDQ01  00088PRCP06
0024726130147552012010617598+44266-071299FM-15+1910KMWN V03099999999999999999N999999999+99999+99999999999ADDAA101000025REMMET001-
0146726130147552012010618514+44267-071300FM-15+1910KMWN V0202401N016510001519N0000001N1-00801-00801999999ADDGD15991+0001519GF109991999999000251999999MW1381MW2491MW3771REMMET075METAR KMWN 061851Z 24032KT 0SM -SG BLSN FZFG VV000 M08/M08 RMK VRY LGT ICG;
0026726130147552012010618598+44266-071299FM-15+1910KMWN V03099999999999999999N999999999+99999+99999999999ADDAA101000595REMMET003002
0026726130147552012010619598+44266-071299FM-15+1910KMWN V03099999999999999999N999999999+99999+99999999999ADDAA101000395REMMET003001
0146726130147552012010620004+44267-071300FM-15+1910KMWN V0202501N017510001519N0000001N1-00801-00801999999ADDGD15991+0001519GF109991999999000251999999MW1381MW2491MW3771REMMET075METAR KMWN 061957Z 25034KT 0SM -SG BLSN FZFG VV000 M08/M08 RMK VRY LGT ICG;
0024726130147552012010620598+44266-071299FM-15+1910KMWN V03099999999999999999N999999999+99999+99999999999ADDAA101000025REMMET001-
0146726130147552012010621004+44267-071300FM-15+1910KMWN V0202501N019010001519N0000001N1-00801-00801999999ADDGD15991+0001519GF109991999999000251999999MW1381MW2491REMMET081METAR KMWN 062057Z COR 25037KT 0SM BLSN FZFG VV000 M08/M08 RMK SNE10 VRY LGT ICG;
0136726130147552012010622004+44267-071300FM-15+1910KMWN V0202501N019010001519N0000001N1-00801-00801999999ADDGD15991+0001519GF109991999999000251999999MW1381MW2491REMMET071METAR KMWN 062157Z 25037KT 0SM BLSN FZFG VV000 M08/M08 RMK VRY LGT ICG;
0136726130147552012010623004+44267-071300FM-15+1910KMWN V0202601N025210001519N0000001N1-00801-00801999999ADDGD15991+0001519GF109991999999000251999999MW1381MW2491REMMET071METAR KMWN 062256Z 26049KT 0SM BLSN FZFG VV000 M08/M08 RMK VRY LGT ICG;
0240726130147552012010623524+44267-071300FM-15+1910KMWN V0202601N026810001519N0000001N1-00801-00801999999ADDAA106000891AJ100539199999999GD15991+0001519GF109991999999000251999999KA1999M-00671KA2999N-00961MW1381MW2491REMMET102METAR KMWN 062352Z 26052KT 0SM BLSN FZFG VV000 M08/M08 RMK VRY LGT ICG 60003 4/021 931004 11067 21096;EQDQ01  00088PRCP06
0136726130147552012010700544+44267-071300FM-15+1910KMWN V0202601N025710001519N0000001N1-00701-00701999999ADDGD15991+0001519GF109991999999000251999999MW1381MW2491REMMET071METAR KMWN 070054Z 26050KT 0SM BLSN FZFG VV000 M07/M07 RMK VRY LGT ICG;
0136726130147552012010702004+44267-071300FM-15+1910KMWN V0202701N025210001519N0000001N1-00701-00701999999ADDGD15991+0001519GF109991999999000251999999MW1381MW2491REMMET071METAR KMWN 070156Z 27049KT 0SM BLSN FZFG VV000 M07/M07 RMK VRY LGT ICG;
0147726130147552012010702494+44267-071300FM-15+1910KMWN V0202701N026210001519N0000001N1-00701-00701999999ADDGD15991+0001519GF109991999999000251999999MW1381MW2491OC103041REMMET074METAR KMWN 070249Z 27051G59KT 0SM BLSN FZFG VV000 M07/M07 RMK VRY LGT ICG;
0136726130147552012010703524+44267-071300FM-15+1910KMWN V0202701N024710001519N0000001N1-00701-00701999999ADDGD15991+0001519GF109991999999000251999999MW1381MW2491REMMET071METAR KMWN 070352Z 27048KT 0SM BLSN FZFG VV000 M07/M07 RMK VRY LGT ICG;
0222726130147552012010704596+44266-071299SOD  +1910KMWN V030999999999999999999999999999+99999+99999999999ADDAA124001891AJ100539599999999AL12400395AN1024003395GJ100005GK10005KA1240M-00555KA2240N-02055OE11240312927021465OE23240209299999999REMSOD0623   14755120106070  W2146          0000000870022-0050007013021EQDR01  00076AAP092
0136726130147552012010705004+44267-071300FM-15+1910KMWN V0202701N023110001519N0000001N1-00601-00601999999ADDGD15991+0001519GF109991999999000251999999MW1381MW2491REMMET071METAR KMWN 070456Z 27045KT 0SM BLSN FZFG VV000 M06/M06 RMK VRY LGT ICG;
0186726130147552012010705494+44267-071300FM-15+1910KMWN V0202701N024710001519N0000001N1-00601-00601999999ADDAJ100539199999999GD15991+0001519GF109991999999000251999999KA1999M-00531KA2999N-00791MW1491REMMET084METAR KMWN 070549Z 27048KT 0SM FZFG VV000 M06/M06 RMK VRY LGT ICG 4/021 11053 21079;
0140726130147552012010706544+44267-071300FM-15+1910KMWN V0202701N026810001519N0000001N1-00501-00501999999ADDGD15991+0001519GF109991999999000251999999MW1491REMMET081METAR KMWN 070654Z 27052KT 0SM FZFG VV000 M05/M05 RMK VRY LGT ICG MOON DMLY VSBL;
0125726130147552012010708004+44267-071300FM-15+1910KMWN V0202701N023110001519N0000001N1-00501-00501999999ADDGD15991+0001519GF109991999999000251999999MW1491REMMET066METAR KMWN 070759Z 27045KT 0SM FZFG VV000 M05/M05 RMK VRY LGT ICG;
0128726130147552012010709004+44267-071300FM-15+1910KMWN V0202701N026210001519N0001011N1-00501-00501999999ADDGD15991+0001519GF109991999999000251999999MW1491REMMET069METAR KMWN 070856Z 27051KT 1/16SM FZFG VV000 M05/M05 RMK VRY LGT ICG;
0219726130147552012010710004+44267-071300FM-15+1910KMWN V0202701N023710150019N1287471N1-00501-00701999999ADDGD12991+9999999GD21991+9999999GD31991+0015019GD44991+0150019GF108991999999999999999999REMMET102METAR KMWN 070958Z 27046KT 80SM SCT/// FEW/// FEW005 OVC050 M05/M07 RMK TPS LWR SCT053 TPS LWR FEW059;EQDQ01 999993SCOCIG
0126726130147552012010710534+44267-071300FM-15+1910KMWN V0202701N022110150019N1287471N1-00301-00901999999ADDGD11991+0015019GD24991+0150019GF108991999999999999999999REMMET058METAR KMWN 071053Z 27043KT 80SM FEW005 OVC050 M03/M09 RMK;
0223726130147552012010711534+44267-071300FM-15+1910KMWN V0202701N017010150019N0965601N1-00201-01101999999ADDAA124001591AJ100539199999999GD13991+0150019GD24991+0480019GF108991999999999999999999KA1999M-00251KA2999N-00681REMMET082METAR KMWN 071153Z 27033KT 60SM BKN050 OVC160 M02/M11 RMK 70006 4/021 11025 21068;EQDQ01  00158PRCP24
0177726130147552012010713004+44267-071300FM-15+1910KMWN V0202601N013410240019N0965601N1-00301-00901999999ADDGD12991+0150019GD23991+0240019GD33991+0360019GD44991+0480019GF108991999999999999999999REMMET079METAR KMWN 071257Z 26026KT 60SM SCT050 BKN080 BKN120 OVC160 M03/M09 RMK BINOVC;
0199726130147552012010714004+44267-071300FM-15+1910KMWN V0202601N005110240019N0643731N1-00301-00801999999ADDGD12991+0150019GD23991+0240019GD33991+0480019GD41991+9999999GF107991999999999999999999REMMET101METAR KMWN 071356Z 26010KT 40SM FEW/// SCT050 BKN080 BKN160 M03/M08 RMK TPS LWR FEW058 HZ DSNT ALQDS;
0162726130147552012010714534+44267-071300FM-15+1910KMWN V0202501N003110150019N0643731N1-00301-01001999999ADDGD13991+0150019GD23991+0240019GD33991+0360019GF107991999999999999999999REMMET079METAR KMWN 071453Z 25006KT 40SM BKN050 BKN080 BKN120 M03/M10 RMK HZ DSNT ALQDS;
0116726130147552012010715524+44267-071300FM-15+1910KMWN V0202301N012910001519N0001011N1-00401-00401999999ADDGD15991+0001519GF109991999999000251999999MW1491REMMET057METAR KMWN 071552Z 23025KT 1/16SM FZFG VV000 M04/M04 RMK;
0125726130147552012010716474+44267-071300FM-15+1910KMWN V0202501N015910001519N0000001N1-00401-00401999999ADDGD15991+0001519GF109991999999000251999999MW1491REMMET066METAR KMWN 071647Z 25031KT 0SM FZFG VV000 M04/M04 RMK VRY LGT ICG;
0190726130147552012010718004+44267-071300FM-15+1910KMWN V0202601N020110001519N0000001N1-00401-00401999999ADDAJ100539199999999GD15991+0001519GF109991999999000251999999KA1999M-00251KA2999N-00511MW1491REMMET088METAR KMWN 071757Z COR 26039KT 0SM FZFG VV000 M04/M04 RMK VRY LGT ICG 4/021 11025 21051;
0141726130147552012010718484+44267-071300FM-15+1910KMWN V0202601N019510001519N0000001N1-00501-00501999999ADDGD15991+0001519GF109991999999000251999999MW1491MW2771REMMET076METAR KMWN 071848Z 26038KT 0SM -SG FZFG VV000 M05/M05 RMK SGB12 VRY LGY ICG;
0024726130147552012010718598+44266-071299FM-15+1910KMWN V03099999999999999999N999999999+99999+99999999999ADDAA101000025REMMET001-
0135726130147552012010719474+44267-071300FM-15+1910KMWN V0202601N021610001519N0000001N1-00501-00501999999ADDGD15991+0001519GF109991999999000251999999MW1491MW2771REMMET070METAR KMWN 071947Z 26042KT 0SM -SG FZFG VV000 M05/M05 RMK VRY LGT ICG;
0026726130147552012010719598+44266-071299FM-15+1910KMWN V03099999999999999999N999999999+99999+99999999999ADDAA101000395REMMET003001
0135726130147552012010720484+44267-071300FM-15+1910KMWN V0202701N022610001519N0000001N1-00601-00601999999ADDGD15991+0001519GF109991999999000251999999MW1491MW2771REMMET070METAR KMWN 072048Z 27044KT 0SM -SG FZFG VV000 M06/M06 RMK VRY LGT ICG;
0024726130147552012010720598+44266-071299FM-15+1910KMWN V03099999999999999999N999999999+99999+99999999999ADDAA101000025REMMET001-
0135726130147552012010721524+44267-071300FM-15+1910KMWN V0202701N022610001519N0000001N1-00601-00601999999ADDGD15991+0001519GF109991999999000251999999MW1491MW2771REMMET070METAR KMWN 072152Z 27044KT 0SM -SG FZFG VV000 M06/M06 RMK VRY LGT ICG;
0026726130147552012010721598+44266-071299FM-15+1910KMWN V03099999999999999999N999999999+99999+99999999999ADDAA101000395REMMET003001
0131726130147552012010722544+44267-071300FM-15+1910KMWN V0202701N021110001519N0000001N1-00601-00601999999ADDGD15991+0001519GF109991999999000251999999MW1491REMMET072METAR KMWN 072254Z 27041KT 0SM FZFG VV000 M06/M06 RMK SGE30 VRY LGT ICG;
0024726130147552012010722598+44266-071299FM-15+1910KMWN V03099999999999999999N999999999+99999+99999999999ADDAA101000025REMMET001-
0229726130147552012010723524+44267-071300FM-15+1910KMWN V0202601N018010001519N0000001N1-00601-00601999999ADDAA106000591AJ100569199999999GD15991+0001519GF109991999999000251999999KA1999M-00241KA2999N-00661MW1491REMMET097METAR KMWN 072352Z 26035KT 0SM FZFG VV000 M06/M06 RMK VRY LGT ICG 60002 4/022 931005 11024 21066;EQDQ01  00058PRCP06
0024726130147552012010800598+44266-071299FM-15+1910KMWN V03099999999999999999N999999999+99999+99999999999ADDAA101000025REMMET001-
0152726130147552012010801004+44267-071300FM-15+1910KMWN V0202601N023710001519N0000001N1-00601-00601999999ADDGD15991+0001519GF109991999999000251999999MW1381MW2491MW3711REMMET081METAR KMWN 080057Z 26046KT 0SM -SN BLSN FZFG VV000 M06/M06 RMK SNB15 VRY LGT ICG;
0024726130147552012010801598+44266-071299FM-15+1910KMWN V03099999999999999999N999999999+99999+99999999999ADDAA101000025REMMET001-
0157726130147552012010802004+44267-071300FM-15+1910KMWN V0202701N023110001519N0000001N1-00701-00701999999ADDGD15991+0001519GF109991999999000251999999MW1381MW2491MW3711OC102931REMMET078METAR KMWN 080157Z 27045G57KT 0SM -SN BLSN FZFG VV000 M07/M07 RMK VRY LGT ICG;
0026726130147552012010802598+44266-071299FM-15+1910KMWN V03099999999999999999N999999999+99999+99999999999ADDAA101000395REMMET003001
0157726130147552012010803004+44267-071300FM-15+1910KMWN V0202801N027310001519N0000001N1-00801-00801999999ADDGD15991+0001519GF109991999999000251999999MW1381MW2491MW3711OC102931REMMET078METAR KMWN 080256Z 28053G57KT 0SM -SN BLSN FZFG VV000 M08/M08 RMK VRY LGT ICG;
0024726130147552012010803598+44266-071299FM-15+1910KMWN V03099999999999999999N999999999+99999+99999999999ADDAA101000025REMMET001-
0157726130147552012010804004+44267-071300FM-15+1910KMWN V0202801N025710001519N0000001N1-00801-00801999999ADDGD15991+0001519GF109991999999000251999999MW1381MW2491MW3711OC102781REMMET078METAR KMWN 080357Z 28050G54KT 0SM -SN BLSN FZFG VV000 M08/M08 RMK VRY LGT ICG;
0157726130147552012010804514+44267-071300FM-15+1910KMWN V0202901N028310001519N0000001N1-00901-00901999999ADDGD15991+0001519GF109991999999000251999999MW1381MW2491MW3711OC103141REMMET078METAR KMWN 080451Z 29055G61KT 0SM -SN BLSN FZFG VV000 M09/M09 RMK VRY LGT ICG;
0222726130147552012010804596+44266-071299SOD  +1910KMWN V030999999999999999999999999999+99999+99999999999ADDAA124000891AJ100539599999999AL12400295AN1024002095GJ100605GK10115KA1240M-00215KA2240N-00935OE11240321927023505OE23240201299999999REMSOD0623   14755120107072  W2350          006001188002800150003008021EQDR01  00036AAP092
0024726130147552012010804598+44266-071299FM-15+1910KMWN V03099999999999999999N999999999+99999+99999999999ADDAA101000025REMMET001-
0261726130147552012010805504+44267-071300FM-15+1910KMWN V0202701N026210001519N0000001N1-00901-00901999999ADDAA106000391AJ100569199999999GD15991+0001519GF109991999999000251999999KA1999M-00591KA2999N-00941MW1381MW2491MW3711OC102981REMMET109METAR KMWN 080550Z 27051G58KT 0SM -SN BLSN FZFG VV000 M09/M09 RMK VRY LGT ICG 60001 4/022 931003 11059 21094;EQDQ01  00038PRCP06
0024726130147552012010805598+44266-071299FM-15+1910KMWN V03099999999999999999N999999999+99999+99999999999ADDAA101000025REMMET001-
0157726130147552012010806544+44267-071300FM-15+1910KMWN V0202801N026810001519N0000001N1-01001-01001999999ADDGD15991+0001519GF109991999999000251999999MW1381MW2491MW3711OC103091REMMET078METAR KMWN 080654Z 28052G60KT 0SM -SN BLSN FZFG VV000 M10/M10 RMK VRY LGT ICG;
0026726130147552012010806598+44266-071299FM-15+1910KMWN V03099999999999999999N999999999+99999+99999999999ADDAA101000595REMMET003002
0153726130147552012010807534+44267-071300FM-15+1910KMWN V0202801N028310001519N0000001N1-01101-01101999999ADDGD15991+0001519GF109991999999000251999999MW1381MW2491OC103241REMMET080METAR KMWN 080753Z 28055G63KT 0SM BLSN FZFG VV000 M11/M11 RMK SNE25 VRY LGT ICG;
0026726130147552012010807598+44266-071299FM-15+1910KMWN V03099999999999999999N999999999+99999+99999999999ADDAA101000395REMMET003001
0147726130147552012010809004+44267-071300FM-15+1910KMWN V0202701N025210001519N0000001N1-01101-01101999999ADDGD15991+0001519GF109991999999000251999999MW1381MW2491OC102881REMMET074METAR KMWN 080856Z 27049G56KT 0SM BLSN FZFG VV000 M11/M11 RMK VRY LGT ICG;
0147726130147552012010810004+44267-071300FM-15+1910KMWN V0202801N024210001519N0000001N1-01201-01201999999ADDGD15991+0001519GF109991999999000251999999MW1381MW2491OC102831REMMET074METAR KMWN 080958Z 28047G55KT 0SM BLSN FZFG VV000 M12/M12 RMK VRY LGT ICG;
0136726130147552012010810514+44267-071300FM-15+1910KMWN V0202801N024210001519N0000001N1-01201-01201999999ADDGD15991+0001519GF109991999999000251999999MW1381MW2491REMMET071METAR KMWN 081051Z 28047KT 0SM BLSN FZFG VV000 M12/M12 RMK VRY LGT ICG;
0284726130147552012010811514+44267-071300FM-15+1910KMWN V0202901N022610001519N0000001N1-01301-01301999999ADDAA106000891AA224001591AJ100569199999999GD15991+0001519GF109991999999000251999999KA1999M-00891KA2999N-01321MW1381MW2491OC102471REMMET111METAR KMWN 081151Z 29044G48KT 0SM BLSN FZFG VV000 M13/M13 RMK VRY LGT ICG 60003 70006 4/022 931003 11089 21132;EQDQ01  00088PRCP06Q02  00158PRCP24
0136726130147552012010812474+44267-071300FM-15+1910KMWN V0202901N025710001519N0000001N1-01301-01301999999ADDGD15991+0001519GF109991999999000251999999MW1381MW2491REMMET071METAR KMWN 081247Z 29050KT 0SM BLSN FZFG VV000 M13/M13 RMK VRY LGT ICG;
0147726130147552012010814004+44267-071300FM-15+1910KMWN V0202801N026210001519N0000001N1-01301-01301999999ADDGD15991+0001519GF109991999999000251999999MW1381MW2491OC102931REMMET074METAR KMWN 081357Z 28051G57KT 0SM BLSN FZFG VV000 M13/M13 RMK VRY LGT ICG;
0152726130147552012010814484+44267-071300FM-15+1910KMWN V0202701N025710001519N0000001N1-01401-01401999999ADDGD15991+0001519GF109991999999000251999999MW1381MW2491MW3711REMMET081METAR KMWN 081448Z 27050KT 0SM -SN BLSN FZFG VV000 M14/M14 RMK SNB03 VRY LGT ICG;
0024726130147552012010814598+44266-071299FM-15+1910KMWN V03099999999999999999N999999999+99999+99999999999ADDAA101000025REMMET001-
0171726130147552012010815504+44267-071300FM-15+1910KMWN V0202801N019510001519N0000001N1-01501-01501999999ADDGD15991+0001519GF109991999999000251999999MW1381MW2491MW3711OC102471REMMET092METAR KMWN 081550Z 28038G48KT 0SM -SN BLSN FZFG VV000 M15/M15 RMK VRY LGT ICG SUN DMLY VSBL;
0026726130147552012010815598+44266-071299FM-15+1910KMWN V03099999999999999999N999999999+99999+99999999999ADDAA101000395REMMET003001
0146726130147552012010816524+44267-071300FM-15+1910KMWN V0202701N019010001519N0000001N1-01501-01501999999ADDGD15991+0001519GF109991999999000251999999MW1381MW2491MW3711REMMET075METAR KMWN 081652Z 27037KT 0SM -SN BLSN FZFG VV000 M15/M15 RMK VRY LGT ICG;
0024726130147552012010816598+44266-071299FM-15+1910KMWN V03099999999999999999N999999999+99999+99999999999ADDAA101000025REMMET001-
0024726130147552012010817598+44266-071299FM-15+1910KMWN V03099999999999999999N999999999+99999+99999999999ADDAA101000025REMMET001-
0261726130147552012010818004+44267-071300FM-15+1910KMWN V0202701N019010003019N0000001N1-01501-01501999999ADDAA106000391AJ100569199999999GD15991+0003019GF109991999999000251999999KA1999M-01231KA2999N-01501MW1381MW2491MW3711OC102421REMMET109METAR KMWN 081755Z 27037G47KT 0SM -SN BLSN FZFG VV001 M15/M15 RMK VRY LGT ICG 60001 4/022 931002 11123 21150;EQDQ01  00038PRCP06
0024726130147552012010818598+44266-071299FM-15+1910KMWN V03099999999999999999N999999999+99999+99999999999ADDAA101000025REMMET001-
0157726130147552012010819004+44267-071300FM-15+1910KMWN V0202701N015410001519N0000001N1-01501-01501999999ADDGD15991+0001519GF109991999999000251999999MW1381MW2491MW3711OC102161REMMET078METAR KMWN 081859Z 27030G42KT 0SM -SN BLSN FZFG VV000 M15/M15 RMK VRY LGT ICG;
0024726130147552012010819598+44266-071299FM-15+1910KMWN V03099999999999999999N999999999+99999+99999999999ADDAA101000025REMMET001-
0146726130147552012010820004+44267-071300FM-15+1910KMWN V0202701N017010001519N0000001N1-01601-01601999999ADDGD15991+0001519GF109991999999000251999999MW1381MW2491MW3711REMMET075METAR KMWN 081959Z 27033KT 0SM -SN BLSN FZFG VV000 M16/M16 RMK VRY LGT ICG;
0026726130147552012010820598+44266-071299FM-15+1910KMWN V03099999999999999999N999999999+99999+99999999999ADDAA101000395REMMET003001
0160726130147552012010821004+44267-071300FM-15+1910KMWN V0202701N017510003019N0001011N1-01601-01601999999ADDGD15991+0003019GF109991999999000251999999MW1381MW2491MW3711OC101951REMMET081METAR KMWN 082055Z 27034G38KT 1/16SM -SN BLSN FZFG VV001 M16/M16 RMK VRY LGT ICG;
0146726130147552012010821524+44267-071300FM-15+1910KMWN V0202701N021110001519N0000001N1-01701-01701999999ADDGD15991+0001519GF109991999999000251999999MW1381MW2491MW3711REMMET075METAR KMWN 082152Z 27041KT 0SM -SN BLSN FZFG VV000 M17/M17 RMK VRY LGT ICG;
0024726130147552012010821598+44266-071299FM-15+1910KMWN V03099999999999999999N999999999+99999+99999999999ADDAA101000025REMMET001-
0164726130147552012010822544+44267-071300FM-15+1910KMWN V0202801N023110001519N0001011N1-01701-01701999999ADDGD15991+0001519GF109991999999000251999999MW1381MW2491MW3711REMMET093METAR KMWN 082254Z 28045KT 1/16SM -SN BLSN FZFG VV000 M17/M17 RMK VRY LGT ICG MOON DMLY VSBL;
0024726130147552012010822598+44266-071299FM-15+1910KMWN V03099999999999999999N999999999+99999+99999999999ADDAA101000025REMMET001-
0250726130147552012010823534+44267-071300FM-15+1910KMWN V0202801N023110001519N0000001N1-01801-01801999999ADDAA106000391AJ100589199999999GD15991+0001519GF109991999999000251999999KA1999M-01471KA2999N-01881MW1381MW2491MW3711REMMET106METAR KMWN 082353Z 28045KT 0SM -SN BLSN FZFG VV000 M18/M18 RMK VRY LGT ICG 60001 4/023 931002 11147 21188;EQDQ01  00038PRCP06
0024726130147552012010823598+44266-071299FM-15+1910KMWN V03099999999999999999N999999999+99999+99999999999ADDAA101000025REMMET001-
0026726130147552012010900598+44266-071299FM-15+1910KMWN V03099999999999999999N999999999+99999+99999999999ADDAA101000395REMMET003001
0157726130147552012010901004+44267-071300FM-15+1910KMWN V0202901N023110001519N0000001N1-01801-01801999999ADDGD15991+0001519GF109991999999000251999999MW1381MW2491REMMET092METAR KMWN 090056Z 29045KT 0SM BLSN FZFG VV000 M18/M18 RMK SNE25 VRY LGT ICG MOON DMLY VSBL;
0167726130147552012010901514+44267-071300FM-15+1910KMWN V0203001N022610003019N0001011N1-01801-01801999999ADDGD15991+0003019GF109991999999000251999999MW1381MW2491OC102421REMMET094METAR KMWN 090151Z 30044G47KT 1/16SM BLSN FZFG VV001 M18/M18 RMK VRY LGT ICG CORONA ARND MOON;
0173726130147552012010902524+44267-071300FM-15+1910KMWN V0203101N022612200019N0001011N1-01801-01801999999ADDGD12991+0001519GF104991999999999999999999MW1381MW2481OC102881REMMET100METAR KMWN 090252Z 31044G56KT 1/16SM BLSN FZFG SCT000 M18/M18 RMK FZFG SCT000 SCT V BKN VRY LGT ICG;
0191726130147552012010904004+44267-071300FM-15+1910KMWN V0203301N019019999999N1600001N1-01801-02201999999ADDGD13991+9999999GD21991+9999999GD31991+0120019MW1381OC102571REMMET101METAR KMWN 090358Z 33037G50KT 120SM BLSN BKN/// FEW/// FEW040 M18/M22 RMK TPS LWR BKN059 BBLO FEW SW;EQDQ01+000022SCOTCV
0146726130147552012010904524+44267-071300FM-15+1910KMWN V0203101N022112200019N1600001N1-01801-02201999999ADDGD11991+0120019GD22991+9999999MW1381REMMET079METAR KMWN 090452Z 31043KT 120SM BLSN SCT/// FEW040 M18/M22 RMK TPS LWR SCT045;EQDQ01+000022SCOTCV
0222726130147552012010904596+44266-071299SOD  +1910KMWN V030999999999999999999999999999+99999+99999999999ADDAA124001591AJ100569599999999AL12400295AN1024002395GJ100005GK10005KA1240M-00885KA2240N-01885OE11240335327002415OE23240223599999999REMSOD0623   14755120108075  W0241          0000000880016-0020006009022EQDR01  00066AAP092
0247726130147552012010905544+44267-071300FM-15+1910KMWN V0203101N018512200019N1600001N1-01801-02301999999ADDAA106000391AJ100589199999999GD11991+0750019GD22991+9999999KA1999M-01641KA2999N-01891MW1381REMMET110METAR KMWN 090554Z 31036KT 120SM BLSN SCT/// FEW250 M18/M23 RMK TPS LWR SCT048 60001 4/023 931002 11164 21189;EQDQ01+000022SCOTCVQ02  00038PRCP06
0164726130147552012010906544+44267-071300FM-15+1910KMWN V0203001N021112200019N1600001N1-01801-02301999999ADDGD11991+0150019GD21991+0750019GD31991+9999999GF102991999999999999999999REMMET081METAR KMWN 090654Z 30041KT 120SM FEW/// FEW050 FEW250 M18/M23 RMK TPS LWR FEW046;
0164726130147552012010907544+44267-071300FM-15+1910KMWN V0203001N019012200019N1600001N1-01901-02401999999ADDGD11991+0150019GD21991+0750019GD31991+9999999GF102991999999999999999999REMMET081METAR KMWN 090754Z 30037KT 120SM FEW/// FEW050 FEW250 M19/M24 RMK TPS LWR FEW046;
0170726130147552012010909004+44267-071300FM-15+1910KMWN V0203001N019010015019N0321861N1-01901-02201999999ADDGD14991+0015019GF108991999999999999999999REMMET117METAR KMWN 090859Z 30037KT 20SM OVC005 M19/M22 RMK CAP CLOUD OHD EDGES BLO STA LIMITING VIS TO 20SM CORONA ARND MOON;
0179726130147552012010909534+44267-071300FM-15+1910KMWN V0202901N018510006019N0016091N1-01801-02101999999ADDGD14991+0006019GF108991999999999999999999REMMET126METAR KMWN 090953Z 29036KT 1SM OVC002 M18/M21 RMK CAP CLOUD OHD EDGES BLO STA LIMITING VIS TO 1SM INTMT BCFG CORONA ARND MOON;
0143726130147552012010910544+44267-071300FM-15+1910KMWN V0202901N016510001519N0001011N1-01701-01701999999ADDGD15991+0001519GF109991999999000251999999MW1491REMMET084METAR KMWN 091054Z 29032KT 1/16SM FZFG VV000 M17/M17 RMK VRY LGT ICG MOON DMLY VSBL;
0189726130147552012010911494+44267-071300FM-15+1910KMWN V0202901N018010003019N0001011N1-01701-01701999999ADDAJ100589199999999GD15991+0003019GF109991999999000251999999KA1999M-01651KA2999N-02001MW1491REMMET087METAR KMWN 091149Z 29035KT 1/16SM FZFG VV001 M17/M17 RMK VRY LGT ICG 4/023 11165 21200;
0127726130147552012010912484+44267-071300FM-15+1910KMWN V0202801N017010003019N0002011N1-01701-01701999999ADDGD15991+0003019GF109991999999000251999999MW1491REMMET068METAR KMWN 091248Z 28033KT 1/8SM FZFG VV001 M17/M17 RMK VRY LGT ICG;
0128726130147552012010913514+44267-071300FM-15+1910KMWN V0202801N015910003019N0001011N1-01601-01601999999ADDGD15991+0003019GF109991999999000251999999MW1491REMMET069METAR KMWN 091351Z 28031KT 1/16SM FZFG VV001 M16/M16 RMK VRY LGT ICG;
0148726130147552012010914504+44267-071300FM-15+1910KMWN V0202801N015910003019N0001011N1-01401-01401999999ADDGD15991+0003019GF109991999999000251999999MW1491MW2851REMMET083METAR KMWN 091450Z 28031KT 1/16SM -SHSN FZFG VV001 M14/M14 RMK SHSNB45 VRY LGT ICG;
0024726130147552012010914598+44266-071299FM-15+1910KMWN V03099999999999999999N999999999+99999+99999999999ADDAA101000025REMMET001-
0024726130147552012010915598+44266-071299FM-15+1910KMWN V03099999999999999999N999999999+99999+99999999999ADDAA101000025REMMET001-
0159726130147552012010916004+44267-071300FM-15+1910KMWN V0202701N016510001519N0000001N1-01401-01401999999ADDGD15991+0001519GF109991999999000251999999MW1381MW2491MW3851OC101901REMMET080METAR KMWN 091555Z 27032G37KT 0SM -SHSN BLSN FZFG VV000 M14/M14 RMK VRY LGT ICG;
0132726130147552012010916484+44267-071300FM-15+1910KMWN V0202701N018510001519N0000001N1-01401-01401999999ADDGD15991+0001519GF109991999999000251999999MW1381MW2491REMMET067METAR KMWN 091648Z 27036KT 0SM BLSN FZFG VV000 M14/M14 RMK SHSNE40;
0024726130147552012010916598+44266-071299FM-15+1910KMWN V03099999999999999999N999999999+99999+99999999999ADDAA101000025REMMET001-
0275726130147552012010917494+44267-071300FM-15+1910KMWN V0202701N018010001519N0000001N1-01301-01301999999ADDAA106000021AA224000591AJ100589199999999GD15991+0001519GF109991999999000251999999KA1999M-01211KA2999N-01711MW1381MW2491REMMET126METAR KMWN 091749Z COR 27035KT 0SM -SHSG BLSN FZFG VV000 M13/M13 RMK SHSGB40 VRY LGT ICG 60000 70002 4/023 931000 11121 21171;EQDQ01  00008PRCP06
0024726130147552012010917598+44266-071299FM-15+1910KMWN V03099999999999999999N999999999+99999+99999999999ADDAA101000025REMMET001-
0146726130147552012010918484+44267-071300FM-15+1910KMWN V0202601N020110001519N0000001N1-01301-01301999999ADDGD15991+0001519GF109991999999000251999999MW1381MW2491MW3771REMMET075METAR KMWN 091848Z 26039KT 0SM -SG BLSN FZFG VV000 M13/M13 RMK VRY LGT ICG;
0024726130147552012010918598+44266-071299FM-15+1910KMWN V03099999999999999999N999999999+99999+99999999999ADDAA101000025REMMET001-
0146726130147552012010919004+44267-071300FM-15+1910KMWN V0202601N019510001519N0000001N1-01301-01301999999ADDGD15991+0001519GF109991999999000251999999MW1381MW2491MW3771REMMET075METAR KMWN 091855Z 26038KT 0SM -SG BLSN FZFG VV000 M13/M13 RMK VRY LGT ICG;
0146726130147552012010919474+44267-071300FM-15+1910KMWN V0202601N017510001519N0000001N1-01301-01301999999ADDGD15991+0001519GF109991999999000251999999MW1381MW2491MW3771REMMET075METAR KMWN 091947Z 26034KT 0SM -SG BLSN FZFG VV000 M13/M13 RMK VRY LGT ICG;
0024726130147552012010919598+44266-071299FM-15+1910KMWN V03099999999999999999N999999999+99999+99999999999ADDAA101000025REMMET001-
0146726130147552012010920514+44267-071300FM-15+1910KMWN V0202601N018010001519N0000001N1-01301-01301999999ADDGD15991+0001519GF109991999999000251999999MW1381MW2451MW3771REMMET075METAR KMWN 092051Z 26035KT 0SM -SG BLSN BZFG VV000 M13/M13 RMK VRY LGT ICG;
0024726130147552012010920598+44266-071299FM-15+1910KMWN V03099999999999999999N999999999+99999+99999999999ADDAA101000025REMMET001-
0157726130147552012010921524+44267-071300FM-15+1910KMWN V0202701N021110001519N0000001N1-01301-01301999999ADDGD15991+0001519GF109991999999000251999999MW1381MW2491MW3771OC102471REMMET078METAR KMWN 092152Z 27041G48KT 0SM -SG BLSN FZFG VV000 M13/M13 RMK VRY LGT ICG;
0026726130147552012010921598+44266-071299FM-15+1910KMWN V03099999999999999999N999999999+99999+99999999999ADDAA101000395REMMET003001
0146726130147552012010922534+44267-071300FM-15+1910KMWN V0202801N021110001519N0000001N1-01301-01301999999ADDGD15991+0001519GF109991999999000251999999MW1381MW2491MW3771REMMET075METAR KMWN 092253Z 28041KT 0SM -SG BLSN FZFG VV000 M13/M13 RMK VRY LGT ICG;
0024726130147552012010922598+44266-071299FM-15+1910KMWN V03099999999999999999N999999999+99999+99999999999ADDAA101000025REMMET001-
0277726130147552012010923504+44267-071300FM-15+1910KMWN V0202701N021610001519N0001011N1-01301-01301999999ADDAA106000391AJ100589199999999GD15991+0001519GF109991999999000251999999KA1999M-01251KA2999N-01381MW1381MW2491MW3711REMMET133METAR KMWN 092350Z 27042KT 1/16SM -SN BLSN FZFG VV000 M13/M13 RMK SGESNB05 VRY LGT ICG MOON DMLY VSBL 60001 4/023 931003 11125 21138;EQDQ01  00038PRCP06
0024726130147552012010923598+44266-071299FM-15+1910KMWN V03099999999999999999N999999999+99999+99999999999ADDAA101000025REMMET001-
0142726130147552012011000524+44267-071300FM-15+1910KMWN V0202701N017010001519N0000001N1-01301-01301999999ADDGD15991+0001519GF109991999999000251999999MW1381MW2491REMMET077METAR KMWN 100052Z 27033KT 0SM BLSN FZFG VV000 M13/M13 RMK SNE20 VRY LGT ICG;
0024726130147552012011000598+44266-071299FM-15+1910KMWN V03099999999999999999N999999999+99999+99999999999ADDAA101000025REMMET001-
0125726130147552012011001524+44267-071300FM-15+1910KMWN V0202601N020610001519N0000001N1-01301-01301999999ADDGD15991+0001519GF109991999999000251999999MW1491REMMET066METAR KMWN 100152Z 26040KT 0SM FZFG VV000 M13/M13 RMK VRY LGT ICG;
0206726130147552012011003004+44267-071300FM-15+1910KMWN V0202601N017510030019N1600001N1-01301-01501999999ADDGD11991+0001519GD22991+0015019GD33991+0030019GD44991+0060019GF108991999999999999999999REMMET108METAR KMWN 100257Z 26034KT 100SM FEW000 SCT005 BKN010 OVC020 M13/M15 RMK SCSL ALQDS CORONA ARND MOON BINOVC;
0199726130147552012011004004+44267-071300FM-15+1910KMWN V0202501N018010060019N1600001N1-01301-01501999999ADDGD11991+0015019GD22991+0030019GD33991+0060019GD43991+0150019GF107991999999999999999999OC102011REMMET093METAR KMWN 100355Z 25035G39KT 100SM FEW005 SCT010 BKN020 BKN050 M13/M15 RMK CORONA ARND MOON;
0202726130147552012011004524+44267-071300FM-15+1910KMWN V0202401N020110060019N1448401N1-01301-01501999999ADDGD11991+0015019GD22991+0030019GD33991+0060019GD43991+0150019GF107991999999999999999999MW1381OC102421REMMET090METAR KMWN 100452Z 24039G47KT 90SM BLSN FEW005 SCT010 BKN020 BKN050 M13/M15 RMK FEW V SCT;
0222726130147552012011004596+44266-071299SOD  +1910KMWN V030999999999999999999999999999+99999+99999999999ADDAA124000391AJ100589599999999AL12400095AN1024000895GJ100005GK10005KA1240M-01215KA2240N-01995OE11240254827016475OE23240184299999999REMSOD0623   14755120109057  W1647          0000000870010-0040001003023EQDR01  00016AAP092
0329726130147552012011005534+44267-071300FM-15+1910KMWN V0202401N024710060019N1126541N1-01301-01601999999ADDAA106000021AJ100589199999999GD11991+0015019GD22991+0030019GD33991+0060019GD43991+0150019GF107991999999999999999999KA1999M-01241KA2999N-01341MW1381OC102681REMMET128METAR KMWN 100553Z 24048G52KT 70SM BLSN FEW005 SCT010 BKN020 BKN050 M13/M16 RMK CORONA ARND MOON 60000 4/023 931000 11124 21134;EQDQ01  00002PRCP06Q02  00008PRCP06
0167726130147552012011006534+44267-071300FM-15+1910KMWN V0202401N022610015019N0482801N1-01301-01501999999ADDGD14991+0015019GF108991999999999999999999MW1381MW2711MW3771OC102621REMMET088METAR KMWN 100653Z 24044G51KT 30SM -SNSG BLSN OVC005 M13/M15 RMK SNSGB05 MOON DMLY VSBL;
0024726130147552012011006598+44266-071299FM-15+1910KMWN V03099999999999999999N999999999+99999+99999999999ADDAA101000025REMMET001-
0026726130147552012011007598+44266-071299FM-15+1910KMWN V03099999999999999999N999999999+99999+99999999999ADDAA101000395REMMET003001
0152726130147552012011008004+44267-071300FM-15+1910KMWN V0202501N022110001519N0000001N1-01201-01201999999ADDGD15991+0001519GF109991999999000251999999MW1381MW2491MW3711REMMET081METAR KMWN 100755Z 25043KT 0SM -SN BLSN FZFG VV000 M12/M12 RMK SGE15 VRY LGT ICG;
0024726130147552012011008598+44266-071299FM-15+1910KMWN V03099999999999999999N999999999+99999+99999999999ADDAA101000025REMMET001-
0146726130147552012011009004+44267-071300FM-15+1910KMWN V0202601N020610001519N0000001N1-01201-01201999999ADDGD15991+0001519GF109991999999000251999999MW1381MW2491MW3711REMMET075METAR KMWN 100855Z 26040KT 0SM -SN BLSN FZFG VV000 M12/M12 RMK VRY LGT ICG;
0146726130147552012011009544+44267-071300FM-15+1910KMWN V0202701N020610001519N0000001N1-01201-01201999999ADDGD15991+0001519GF109991999999000251999999MW1381MW2491MW3711REMMET075METAR KMWN 100954Z 27040KT 0SM -SN BLSN FZFG VV000 M12/M12 RMK VRY LGT ICG;
0024726130147552012011009598+44266-071299FM-15+1910KMWN V03099999999999999999N999999999+99999+99999999999ADDAA101000025REMMET001-
0153726130147552012011010524+44267-071300FM-15+1910KMWN V0202701N017510001519N0000001N1-01201-01201999999ADDGD15991+0001519GF109991999999000251999999MW1381MW2491OC102161REMMET080METAR KMWN 101052Z 27034G42KT 0SM BLSN FZFG VV000 M12/M12 RMK SNE47 VRY LGT ICG;
0024726130147552012011010598+44266-071299FM-15+1910KMWN V03099999999999999999N999999999+99999+99999999999ADDAA101000025REMMET001-
0277726130147552012011011504+44267-071300FM-15+1910KMWN V0202701N018510001519N0000001N1-01101-01101999999ADDAA106000391AA224000591AJ100589199999999GD15991+0001519GF109991999999000251999999KA1999M-01141KA2999N-01321MW1381MW2491REMMET112METAR KMWN 101150Z COR 27036KT 0SM BLSN FZFG VV000 M11/M11 RMK VRY LGT ICG 60001 70002 4/023 931003 11114 21132;EQDQ01  00038PRCP06Q02  00058PRCP24
0136726130147552012011012494+44267-071300FM-15+1910KMWN V0202701N023710001519N0000001N1-01101-01101999999ADDGD15991+0001519GF109991999999000251999999MW1381MW2491REMMET071METAR KMWN 101249Z 27046KT 0SM BLSN FZFG VV000 M11/M11 RMK VRY LGT ICG;
0125726130147552012011014004+44267-071300FM-15+1910KMWN V0202701N023710001519N0000001N1-01201-01201999999ADDGD15991+0001519GF109991999999000251999999MW1381REMMET066METAR KMWN 101356Z 27046KT 0SM BLSN VV000 M12/M12 RMK VRY LGT ICG;
0152726130147552012011014504+44267-071300FM-15+1910KMWN V0202801N026210001519N0000001N1-01101-01101999999ADDGD15991+0001519GF109991999999000251999999MW1381MW2491MW3771REMMET081METAR KMWN 101450Z 28051KT 0SM -SG BLSN FZFG VV000 M11/M11 RMK SGB27 VRY LGT ICG;
0026726130147552012011014598+44266-071299FM-15+1910KMWN V03099999999999999999N999999999+99999+99999999999ADDAA101000395REMMET003001
0146726130147552012011015484+44267-071300FM-15+1910KMWN V0202801N024710001519N0000001N1-01101-01101999999ADDGD15991+0001519GF109991999999000251999999MW1381MW2491MW3771REMMET075METAR KMWN 101548Z 28048KT 0SM -SG BLSN FZFG VV000 M11/M11 RMK VRY LGT ICG;
0026726130147552012011015598+44266-071299FM-15+1910KMWN V03099999999999999999N999999999+99999+99999999999ADDAA101000395REMMET003001
0154726130147552012011016524+44267-071300FM-15+1910KMWN V0202801N027310001519N0000001N1-01101-01101999999ADDGD15991+0001519GF109991999999000251999999MW1381MW2711MW3771REMMET083METAR KMWN 101652Z 28053KT 0SM -SGSN BLSN FZFG VV000 M11/M11 RMK SNB30 VRY LGT ICG;
0026726130147552012011016598+44266-071299FM-15+1910KMWN V03099999999999999999N999999999+99999+99999999999ADDAA101000395REMMET003001
0026726130147552012011017598+44266-071299FM-15+1910KMWN V03099999999999999999N999999999+99999+99999999999ADDAA101000595REMMET003002
0263726130147552012011018004+44267-071300FM-15+1910KMWN V0202801N029310001519N0000001N1-01101-01101999999ADDAA106001391AJ100589199999999GD15991+0001519GF109991999999000251999999KA1999M-01041KA2999N-01141MW1381MW2711MW3771OC103191REMMET111METAR KMWN 101755Z 28057G62KT 0SM -SGSN BLSN FZFG VV000 M11/M11 RMK VRY LGT ICG 60005 4/023 931006 11104 21114;EQDQ01  00138PRCP06
0026726130147552012011018598+44266-071299FM-15+1910KMWN V03099999999999999999N999999999+99999+99999999999ADDAA101000895REMMET003003
0159726130147552012011019004+44267-071300FM-15+1910KMWN V0202801N027810001519N0000001N1-01101-01101999999ADDGD15991+0001519GF109991999999000251999999MW1381MW2711MW3771OC103141REMMET080METAR KMWN 101855Z 28054G61KT 0SM -SNSG BLSN FZFG VV000 M11/M11 RMK VRY LGT ICG;
0026726130147552012011019598+44266-071299FM-15+1910KMWN V03099999999999999999N999999999+99999+99999999999ADDAA101000895REMMET003003
0163726130147552012011020004+44267-071300FM-15+1910KMWN V0202801N022610001519N0000001N1-01101-01101999999ADDGD15991+0001519GF109991999999000251999999MW1381MW2491MW3771OC102681REMMET084METAR KMWN 101958Z 28044G52KT 0SM -SG BLSN FZFG VV000 M11/M11 RMK SNE40 VRY LGT ICG;
0153726130147552012011020534+44267-071300FM-15+1910KMWN V0202901N030910001519N0000001N1-01201-01201999999ADDGD15991+0001519GF109991999999000251999999MW1381MW2491OC103401REMMET080METAR KMWN 102053Z 29060G66KT 0SM BLSN FZFG VV000 M12/M12 RMK SGE35 VRY LGT ICG;
0026726130147552012011020598+44266-071299FM-15+1910KMWN V03099999999999999999N999999999+99999+99999999999ADDAA101000395REMMET003001
0147726130147552012011022004+44267-071300FM-15+1910KMWN V0202801N034510001519N0000001N1-01201-01201999999ADDGD15991+0001519GF109991999999000251999999MW1381MW2491OC103701REMMET074METAR KMWN 102155Z 28067G72KT 0SM BLSN FZFG VV000 M12/M12 RMK VRY LGT ICG;
0166726130147552012011022504+44267-071300FM-15+1910KMWN V0202801N035510001519N0000001N1-01301-01301999999ADDGD15991+0001519GF109991999999000251999999MW1381MW2491OC104012REMMET074METAR KMWN 102250Z 28069G78KT 0SM BLSN FZFG VV000 M13/M13 RMK VRY LGT ICG;EQDQ01+004016WGOSPD
0251726130147552012011023494+44267-071300FM-15+1910KMWN V0202801N031910001519N0000001N1-01401-01401999999ADDAA106001891AJ100589199999999GD15991+0001519GF109991999999000251999999KA1999M-01021KA2999N-01381MW1381MW2491OC103401REMMET105METAR KMWN 102349Z 28062G66KT 0SM BLSN FZFG VV000 M14/M14 RMK VRY LGT ICG 60007 4/023 931005 11102 21138;EQDQ01  00188PRCP06
0147726130147552012011100524+44267-071300FM-15+1910KMWN V0202701N027810001519N0000001N1-01501-01501999999ADDGD15991+0001519GF109991999999000251999999MW1381MW2491OC103091REMMET074METAR KMWN 110052Z 27054G60KT 0SM BLSN FZFG VV000 M15/M15 RMK VRY LGT ICG;
0162726130147552012011101544+44267-071300FM-15+1910KMWN V0202901N028310001519N0000001N1-01501-01501999999ADDGD15991+0001519GF109991999999000251999999MW1381MW2491OC103091REMMET089METAR KMWN 110154Z 29055G60KT 0SM BLSN FZFG VV000 M15/M15 RMK VRY LGT ICG MOON DMLY VSBL;
0198726130147552012011102494+44267-071300FM-15+1910KMWN V0202801N02931021001CN0001011N1-01701-01701999999ADDGD13991+0001519GD23991+0210019GF107991999999999999999999MW1381MW2481OC103291REMMET110METAR KMWN 110249Z 28057G64KT 1/16SM BLSN FZFG BKN000 BKN070 M17/M17 RMK FZFG BKN000 BKN000 V SCT VRY LGT ICG;
0163726130147552012011104004+44267-071300FM-15+1910KMWN V0202801N028312200019N1600001N1-01801-02701999999ADDGD11991+0210019GD21991+9999999GF102991999999999999999999MW1381OC103041REMMET081METAR KMWN 110359Z 28055G59KT 120SM BLSN FEW// FEW070 M18/M27 RMK TPS LWR FEW055;
0135726130147552012011104534+44267-071300FM-16+1910KMWN V0202801N028812200019N1600001N1-01801-02901999999ADDGD11991+9999999GF102991999999999999999999MW1381REMMET076METAR KMWN 110453Z 28056KT 120SM BLSN FEW/// SKC M18/M29 RMK TPS LWR FEW052;
0222726130147552012011104596+44266-071299SOD  +1910KMWN V030999999999999999999999999999+99999+99999999999ADDAA124003391AJ100589599999999AL12400395AN1024003695GJ100005GK10005KA1240M-00995KA2240N-01885OE11240420227016585OE23240258899999999REMSOD0623   14755120110094  W1658          0000000880014-0020013014023EQDR01  00136AAP092
0159726130147552012011106004+44267-071300FM-15+1910KMWN V0202901N027812200019N1600001N1-01801-03001999999ADDAJ100589199999999GF100991999999999999999999KA1999M-01351KA2999N-01901MW1381REMMET072METAR KMWN 110555Z 29054KT 120SM BLSN SKC M18/M30 RMK 4/023 11135 21190;
0098726130147552012011107004+44267-071300FM-15+1910KMWN V0202901N026212200019N1600001N1-01701-02901999999ADDGF100991999999999999999999MW1381REMMET054METAR KMWN 110656Z 29051KT 120SM BLSN SKC M17/M29 RMK;
0098726130147552012011108004+44267-071300FM-15+1910KMWN V0203001N024212200019N1600001N1-01801-03001999999ADDGF100991999999999999999999MW1381REMMET054METAR KMWN 110755Z 30047KT 120SM BLSN SKC M18/M30 RMK;
0098726130147552012011109004+44267-071300FM-15+1910KMWN V0203001N023112200019N1600001N1-01701-03101999999ADDGF100991999999999999999999MW1381REMMET054METAR KMWN 110858Z 30045KT 120SM BLSN SKC M17/M31 RMK;
0098726130147552012011111004+44267-071300FM-15+1910KMWN V0203101N023712200019N1600001N1-01501-03001999999ADDGF100991999999999999999999MW1381REMMET054METAR KMWN 111055Z 31046KT 120SM BLSN SKC M15/M30 RMK;
0213726130147552012011111504+44267-071300FM-15+1910KMWN V0203101N021112200019N1600001N1-01301-01902999999ADDAA124003091AJ100569199999999GD11991+0480019GF102991999999999999999999KA1999M-01281KA2999N-01921OC102371REMMET079METAR KMWN 111150Z 31041G46KT 120SM FEW160 M13/M19 RMK 70012 4/022 11128 21192;EQDQ01  00308PRCP24
0105726130147552012011112494+44267-071300FM-15+1910KMWN V0203101N018012200019N1600001N1-01201-02001999999ADDGD11991+0480019GF102991999999999999999999REMMET052METAR KMWN 111249Z 31035KT 120SM FEW160 M12/M20 RMK;
0127726130147552012011113484+44267-071300FM-15+1910KMWN V0203101N017012200019N1600001N1-01001-01401999999ADDGD11991+0300019GD21991+0540019GF102991999999999999999999REMMET059METAR KMWN 111348Z 31033KT 120SM FEW100 FEW180 M10/M14 RMK;
0127726130147552012011115004+44267-071300FM-15+1910KMWN V0203001N013912200019N1600001N1-01001-01401999999ADDGD11991+0300019GD22991+0540019GF104991999999999999999999REMMET059METAR KMWN 111456Z 30027KT 120SM FEW100 SCT180 M10/M14 RMK;
0127726130147552012011115514+44267-071300FM-15+1910KMWN V0203001N013912200019N1600001N1-00901-01201999999ADDGD12991+0240019GD22991+0540019GF104991999999999999999999REMMET059METAR KMWN 111551Z 30027KT 120SM SCT080 SCT180 M09/M12 RMK;
0176726130147552012011117004+44267-071300FM-15+1910KMWN V0202801N015912200019N1600001N1-01101-01401999999ADDGD11991+0150019GD22991+0240019GD32991+0540019GF104991999999999999999999REMMET093METAR KMWN 111656Z 28031KT 130SM FEW050 SCT080 SCT180 M11/M14 RMK ACSL DSNT W-NW CCSL DSNT S;
0210726130147552012011118004+44267-071300FM-15+1910KMWN V0202701N017012200019N1600001N1-00901-01101999999ADDAJ100569199999999GD11991+0090019GD21991+0210019GD32991+0540019GF104991999999999999999999KA1999M-00921KA2999N-01421REMMET084METAR KMWN 111755Z 27033KT 120SM FEW030 FEW070 SCT180 M09/M11 RMK 4/022 11092 21142;
0149726130147552012011118504+44267-071300FM-15+1910KMWN V0202801N014910210019N1600001N1-01001-01201999999ADDGD12991+0090019GD23991+0210019GD33991+0540019GF107991999999999999999999REMMET066METAR KMWN 111850Z 28029KT 110SM SCT030 BKN070 BKN180 M10/M12 RMK;
0149726130147552012011119514+44267-071300FM-15+1910KMWN V0202801N012310090019N1600001N1-01001-01201999999ADDGD13991+0090019GD23991+0180019GD33991+0540019GF107991999999999999999999REMMET066METAR KMWN 111951Z 28024KT 100SM BKN030 BKN060 BKN180 M10/M12 RMK;
0133726130147552012011120544+44267-071300FM-15+1910KMWN V0202701N012910075019N1448401N1-00901-01101999999ADDGD13991+0075019GD24991+0120019GF108991999999999999999999REMMET065METAR KMWN 112054Z 27025KT 90SM BKN025 OVC040 M09/M11 RMK BINOVC;
0147726130147552012011121484+44267-071300FM-15+1910KMWN V0202701N012310075019N1448401N1-00901-01101999999ADDGD13991+0075019GD24991+0120019GF108991999999999999999999REMMET079METAR KMWN 112148Z 27024KT 90SM BKN025 OVC040 M09/M11 RMK VIRGA DSNT NE BINOVC;
0152726130147552012011122514+44267-071300FM-15+1910KMWN V0202701N013910060019N1448401N1-00801-01001999999ADDGD13991+0060019GD24991+0105019GF108991999999999999999999REMMET084METAR KMWN 112251Z 27027KT 90SM BKN020 OVC035 M08/M10 RMK HZ DSNT N STARS DMLY VSBL;
0197726130147552012011123504+44267-071300FM-15+1910KMWN V0202701N011310060019N1448401N1-00701-01001999999ADDAJ100569199999999GD13991+0060019GD24991+0105019GF108991999999999999999999KA1999M-00731KA2999N-01051REMMET086METAR KMWN 112350Z 27022KT 90SM BKN020 OVC035 M07/M10 RMK HZ DSNT N 4/022 11073 21105;
0158726130147552012011201004+44267-071300FM-15+1910KMWN V0202201N007210060019N1287471N1-00601-01001999999ADDGD13991+0060019GD23991+0105019GD34991+0120019GF108991999999999999999999REMMET075METAR KMWN 120056Z 22014KT 80SM BKN020 BKN035 OVC040 M06/M10 RMK VIRGA OHD;
0155726130147552012011201544+44267-071300FM-15+1910KMWN V0202301N007710060019N1207001N1-00701-01101999999ADDGD13991+0060019GD23991+0105019GD34991+0120019GF108991999999999999999999REMMET072METAR KMWN 120154Z 23015KT 75SM BKN020 BKN035 OVC040 M07/M11 RMK BINOVC;
0181726130147552012011203004+44267-071300FM-15+1910KMWN V0202201N011310120019N1207001N1-00701-01201999999ADDGD11991+0060019GD22991+0105019GD33991+0120019GD44991+0420019GF108991999999999999999999OC101291REMMET075METAR KMWN 120255Z 22022G25KT 75SM FEW020 SCT035 BKN040 OVC140 M07/M12 RMK;
0218726130147552012011204004+44267-071300FM-15+1910KMWN V0202101N009810135019N1207001N1-00701-01301999999ADDGD11991+0075019GD22991+0120019GD33991+0135019GD43991+9999999GF108991999999999999999999OC101131REMMET112METAR KMWN 120355Z 21019G22KT 75SM BKN/// FEW025 SCT040 BKN045 OVC140 M07/M13 RMK ACSL DSNT NW-N TPS LWR BKN045;
0220726130147552012011204534+44267-071300FM-15+1910KMWN V0202001N01031013501CN1207001N1-00701-01401999999ADDGD11991+0090019GD23991+0135019GD33991+0150019GD43991+9999999GF107991999999999999999999OC101341REMMET114METAR KMWN 120453Z 20020G26KT 75SM BKN/// FEW030 BKN045 BKN055 BKN140 M07/M14 RMK TPS LWR BKN047 CORONA ARND MOON;
0238726130147552012011204596+44266-071299SOD  +1910KMWN V030999999999999999999999999999+99999+99999999999ADDAA124000091AJ100569199999999AL12400095AN1024000095GJ103765GK10675KA1240M-00665KA2240N-01885OE11240317427000415OE23240162399999999REMSOD0623   14755120111071  W0041          0376067440020-0020000000022EQDR01  00006AAP092R02   0226AJS033
0298726130147552012011206004+44267-071300FM-15+1910KMWN V0201901N010810150019N1126541N1-00801-01701999999ADDAJ100569199999999GD13991+9999999GD23991+9999999GD32991+0135019GD43991+0150019GF108991999999999999999999KA1999M-00651KA2999N-00891OC101341REMMET130METAR KMWN 120559Z 19021G26KT 70SM BKN/// BKN/// SCT045 BKN055 OVC150 M08/M17 RMK TPS LWR BKN037 TPS LWR BKN048 4/022 11065 21089;EQDQ01 999993SCOCIG
0226726130147552012011206484+44267-071300FM-15+1910KMWN V0201801N012910150019N0965601N1-00901-01501999999ADDGD13991+9999999GD23991+9999999GD31991+0060019GD43991+0150019GF108991999999999999999999REMMET109METAR KMWN 120648Z 18025KT 60SM BKN/// BKN/// FEW020 BKN050 OVC150 M09/M15 RMK TPS LWR BKN035 TPS LWR BKN053;EQDQ01 999993SCOCIG
0226726130147552012011208004+44267-071300FM-15+1910KMWN V0201701N015410150019N0885131N1-00901-01501999999ADDGD13991+9999999GD23991+9999999GD31991+0060019GD43991+0150019GF108991999999999999999999REMMET109METAR KMWN 120756Z 17030KT 55SM BKN/// BKN/// FEW020 BKN050 OVC130 M09/M15 RMK TPS LWR BKN035 TPS LWR BKN055;EQDQ01 999993SCOCIG
0247726130147552012011208544+44267-071300FM-15+1910KMWN V0201701N013910150019N0804671N1-01001-01601999999ADDGD13991+9999999GD22991+9999999GD33991+0150019GD44991+0330019GF108991999999999999999999REMMET130METAR KMWN 120854Z 17027KT 50SM BKN/// SCT/// BKN050 OVC110 M10/M16 RMK VIRGA DSNT W TPS LWR BKN035 TPS LWR SCT056 MOON DMLY VSBL;EQDQ01 999993SCOCIG
0221726130147552012011209504+44267-071300FM-15+1910KMWN V0201701N015910120019N0804671N1-00801-01701999999ADDGD13991+9999999GD23991+9999999GD34991+0120019GF108991999999999999999999MW1381REMMET113METAR KMWN 120950Z 17031KT 50SM BLSN BKN/// BKN/// OVC040 M08/M17 RMK SH DSNT SW-W TPS LWR BKN036 TPS LWR BKN056;EQDQ01 999993SCOCIG
0143726130147552012011210504+44267-071300FM-15+1910KMWN V0201601N015410012019N0006041N1-01201-01201999999ADDGD15991+0012019GF109991999999000251999999MW1491MW2711REMMET078METAR KMWN 121050Z 16030KT 3/8SM -SN FZFG VV004 M12/M12 RMK SNB40 VRY LGT ICG;
0024726130147552012011210598+44266-071299FM-15+1910KMWN V03099999999999999999N999999999+99999+99999999999ADDAA101000025REMMET001-
0253726130147552012011211504+44267-071300FM-15+1910KMWN V0201601N015410006019N0001011N1-01301-01301999999ADDAA106000021AJ100569199999999GD15991+0006019GF109991999999000251999999KA1999M-00791KA2999N-01331MW1361MW2491MW3711REMMET109METAR KMWN 121150Z 16030KT 1/16SM -SN DRSN FZFG VV002 M13/M13 RMK VRY LGT ICG 60000 4/022 931000 11079 21133;EQDQ01  00008PRCP06
0024726130147552012011211598+44266-071299FM-15+1910KMWN V03099999999999999999N999999999+99999+99999999999ADDAA101000025REMMET001-
0160726130147552012011212514+44267-071300FM-15+1910KMWN V0201601N016510003019N0001011N1-01201-01201999999ADDGD15991+0003019GF109991999999000251999999MW1361MW2491MW3711OC102111REMMET081METAR KMWN 121251Z 16032G41KT 1/16SM -SN DRSN FZFG VV001 M12/M12 RMK VRY LGT ICG;
0024726130147552012011212598+44266-071299FM-15+1910KMWN V03099999999999999999N999999999+99999+99999999999ADDAA101000025REMMET001-
0149726130147552012011213514+44267-071300FM-15+1910KMWN V0201501N014410003019N0001011N1-01301-01301999999ADDGD15991+0003019GF109991999999000251999999MW1361MW2491MW3711REMMET078METAR KMWN 121351Z 15028KT 1/16SM -SN DRSN FZFG VV001 M13/M13 RMK VRY LGT ICG;
0026726130147552012011213598+44266-071299FM-15+1910KMWN V03099999999999999999N999999999+99999+99999999999ADDAA101000395REMMET003001
0149726130147552012011214534+44267-071300FM-15+1910KMWN V0201301N015410006019N0001011N1-01301-01301999999ADDGD15991+0006019GF109991999999000251999999MW1361MW2491MW3711REMMET078METAR KMWN 121453Z 13030KT 1/16SM -SN DRSN FZFG VV002 M13/M13 RMK VRY LGT ICG;
0026726130147552012011214598+44266-071299FM-15+1910KMWN V03099999999999999999N999999999+99999+99999999999ADDAA101000895REMMET003003
0146726130147552012011215504+44267-071300FM-15+1910KMWN V0201101N022110003019N0000001N1-01301-01301999999ADDGD15991+0003019GF109991999999000251999999MW1381MW2491MW3711REMMET075METAR KMWN 121550Z 11043KT 0SM -SN BLSN FZFG VV001 M13/M13 RMK VRY LGT ICG;
0026726130147552012011215598+44266-071299FM-15+1910KMWN V03099999999999999999N999999999+99999+99999999999ADDAA101000895REMMET003003
0156726130147552012011216544+44267-071300FM-15+1910KMWN V0201201N025210001519N0000001N1-01201-01201999999ADDGD15991+0001519GF109991999999000251999999MW1381MW2491MW3731OC102681REMMET077METAR KMWN 121654Z 12049G52KT 0SM SN BLSN FZFG VV000 M12/M12 RMK VRY LGT ICG;
0026726130147552012011216598+44266-071299FM-15+1910KMWN V03099999999999999999N999999999+99999+99999999999ADDAA101000895REMMET003003
0260726130147552012011217494+44267-071300FM-15+1910KMWN V0201101N028310001519N0000001N1-01101-01101999999ADDAA106004391AJ100619199999999GD15991+0001519GF109991999999000251999999KA1999M-01131KA2999N-01341MW1381MW2491MW3731OC103041REMMET108METAR KMWN 121749Z 11055G59KT 0SM SN BLSN FZFG VV000 M11/M11 RMK VRY LGT ICG 60017 4/024 931015 11113 21134;EQDQ01  00438PRCP06
0026726130147552012011217598+44266-071299FM-15+1910KMWN V03099999999999999999N999999999+99999+99999999999ADDAA101001895REMMET003007
0156726130147552012011218494+44267-071300FM-15+1910KMWN V0201101N026810001519N0000001N1-01001-01001999999ADDGD15991+0001519GF109991999999000251999999MW1381MW2491MW3731OC103041REMMET077METAR KMWN 121849Z 11052G59KT 0SM SN BLSN FZFG VV000 M10/M10 RMK VRY LGT ICG;
0026726130147552012011218598+44266-071299FM-15+1910KMWN V03099999999999999999N999999999+99999+99999999999ADDAA101001895REMMET003007
0156726130147552012011219514+44267-071300FM-15+1910KMWN V0201101N024710001519N0000001N1-01001-01001999999ADDGD15991+0001519GF109991999999000251999999MW1381MW2491MW3731OC103141REMMET077METAR KMWN 121951Z 11048G61KT 0SM SN BLSN FZFG VV000 M10/M10 RMK VRY LGT ICG;
0026726130147552012011219598+44266-071299FM-15+1910KMWN V03099999999999999999N999999999+99999+99999999999ADDAA101002095REMMET003008
0026726130147552012011220598+44266-071299FM-15+1910KMWN V03099999999999999999N999999999+99999+99999999999ADDAA101001895REMMET003007
0156726130147552012011221004+44267-071300FM-15+1910KMWN V0201101N024710001519N0000001N1-01001-01001999999ADDGD15991+0001519GF109991999999000251999999MW1381MW2491MW3731OC103091REMMET077METAR KMWN 122056Z 11048G60KT 0SM SN BLSN FZFG VV000 M10/M10 RMK VRY LGT ICG;
0160726130147552012011221544+44267-071300FM-15+1910KMWN V0201101N024210003019N0001011N1-01001-01001999999ADDGD15991+0003019GF109991999999000251999999MW1381MW2491MW3711OC102981REMMET081METAR KMWN 122154Z 11047G58KT 1/16SM -SN BLSN FZFG VV001 M10/M10 RMK VRY LGT ICG;
0026726130147552012011221598+44266-071299FM-15+1910KMWN V03099999999999999999N999999999+99999+99999999999ADDAA101001895REMMET003007
0160726130147552012011222544+44267-071300FM-15+1910KMWN V0201101N020110006019N0001011N1-00901-00901999999ADDGD15991+0006019GF109991999999000251999999MW1381MW2491MW3711OC102731REMMET081METAR KMWN 122254Z 11039G53KT 1/16SM -SN BLSN FZFG VV002 M09/M09 RMK VRY LGT ICG;
0026726130147552012011222598+44266-071299FM-15+1910KMWN V03099999999999999999N999999999+99999+99999999999ADDAA101001595REMMET003006
0264726130147552012011223484+44267-071300FM-15+1910KMWN V0201101N018510006019N0001011N1-00901-00901999999ADDAA106010291AJ100699199999999GD15991+0006019GF109991999999000251999999KA1999M-00841KA2999N-01131MW1381MW2491MW3711OC102371REMMET112METAR KMWN 122348Z 11036G46KT 1/16SM -SN BLSN FZFG VV002 M09/M09 RMK VRY LGT ICG 60040 4/027 931050 11084 21113;EQDQ01  01028PRCP06
0026726130147552012011223598+44266-071299FM-15+1910KMWN V03099999999999999999N999999999+99999+99999999999ADDAA101001395REMMET003005
0158726130147552012011300524+44267-071300FM-15+1910KMWN V0201201N012310006019N0001011N1-00901-00901999999ADDGD15991+0006019GF109991999999000251999999MW1381MW2491MW3771REMMET087METAR KMWN 130052Z 12024KT 1/16SM -SG BLSN FZFG VV002 M09/M09 RMK SNESGB05 VRY LGT ICG;
0026726130147552012011300598+44266-071299FM-15+1910KMWN V03099999999999999999N999999999+99999+99999999999ADDAA101000395REMMET003001
0149726130147552012011301484+44267-071300FM-15+1910KMWN V0201401N009810009019N0001011N1-00801-00801999999ADDGD15991+0009019GF109991999999000251999999MW1381MW2491MW3771REMMET078METAR KMWN 130148Z 14019KT 1/16SM -SG BLSN FZFG VV003 M08/M08 RMK VRY LGT ICG;
0024726130147552012011301598+44266-071299FM-15+1910KMWN V03099999999999999999N999999999+99999+99999999999ADDAA101000025REMMET001-
0156726130147552012011302544+44267-071300FM-15+1910KMWN V0201801N007210012019N0001011N1-00501-00501999999ADDGD15991+0012019GF109991999999000251999999MW1491MW2561REMMET091METAR KMWN 130254Z 18014KT 1/16SM -FZDZ FZFG VV004 M05/M05 RMK SGE0155FZDZB30 VRY LGT GICG;
0026726130147552012011302598+44266-071299FM-15+1910KMWN V03099999999999999999N999999999+99999+99999999999ADDAA101000395REMMET003001
0024726130147552012011303598+44266-071299FM-15+1910KMWN V03099999999999999999N999999999+99999+99999999999ADDAA101000025REMMET001-
0137726130147552012011304004+44267-071300FM-15+1910KMWN V0201901N009810009019N0001011N1-00401-00401999999ADDGD15991+0009019GF109991999999000251999999MW1491REMMET078METAR KMWN 130358Z 19019KT 1/16SM FZFG VV003 M04/M04 RMK FZDZE15 VRY LGT GICG;
0222726130147552012011304596+44266-071299SOD  +1910KMWN V030999999999999999999999999999+99999+99999999999ADDAA124015091AJ100569599999999AL12401795AN1024017095GJ100005GK10005KA1240M-00275KA2240N-01325OE11240339809015235OE23240174399999999REMSOD0623   14755120112076  E1523          000000088002700080059067022EQDR01  00596AAP092
