0120726130147552011010100484+44267-071300FM-15+1910KMWN V0202701N020110001519N0000001N1+00001+00001999999ADDGD15991+0001519GF109991999999000251999999MW1451OC102371REMMET053METAR KMWN 010048Z 27039G46KT 0SM FG VV000 00/00 RMK;
0109726130147552011010101474+44267-071300FM-15+1910KMWN V0202801N018510001519N0000001N1+00001+00001999999ADDGD15991+0001519GF109991999999000251999999MW1451REMMET050METAR KMWN 010147Z 28036KT 0SM FG VV000 00/00 RMK;
0109726130147552011010103524+44267-071300FM-15+1910KMWN V0202901N020110001519N0000001N1+00101+00101999999ADDGD15991+0001519GF109991999999000251999999MW1451REMMET050METAR KMWN 010352Z 29039KT 0SM FG VV000 01/01 RMK;
0238726130147552011010104596+44267-071299SOD  +1910KMWN V030999999999999999999999999999+99999+99999999999ADDAA124000091AJ100519199999999AL12400095AN1024000095GJ100305GK10055KA1240M+00285KA2240N-00555OE11240272727012515OE23240197699999999REMSOD0623   14755101231061  W1251          003000588003700220000000020EQDR01  00006AAP092R02   0206AJS033
0181726130147552011010105534+44267-071300FM-15+1910KMWN V0202701N022110001519N0000001N1+00201+00201999999ADDAJ100419199999999GD15991+0001519GF109991999999000251999999KA1999M+00261KA2999N-00041MW1451OC102571REMMET071METAR KMWN 010553Z 27043G50KT 0SM FG VV000 02/02 RMK 4/016 10026 21004;
0120726130147552011010106494+44267-071300FM-15+1910KMWN V0202601N023110001519N0000001N1+00201+00201999999ADDGD15991+0001519GF109991999999000251999999MW1451OC102521REMMET053METAR KMWN 010649Z 26045G49KT 0SM FG VV000 02/02 RMK;
0071726130147552011010107597+44267-071299FM-15+1910KMWN V0302701N021110001519N0000001N1+00101+00101999999ADDAA101000025GD15991+0001519GF109991999999000251999999MW1451REMMET001-
0105726130147552011010108504+44267-071300FM-15+1910KMWN V0202801N022110001519N0000001N1+00101+00101999999ADDGD15991+0001519GF109991999999000251999999MW1451REMMET046METAR KMWN 010850Z 28043KT 0SM FG VV000 01/01;
0192726130147552011010108596+44267-071299SOM  +1910KMWN V030999999999999999999999999999+99999+99999999999ADDAD10075191213999999999AE1229129039039AK1053333099999AM1019892727999999999AN1024107699GK10279GL1044689KB1024N-15729KB2024M-08789KB3024A-12229KC1N9-02612899999KC2M9+00283199999KE1289009319119
0105726130147552011010109534+44267-071300FM-15+1910KMWN V0202801N020110001519N0000001N1+00101+00101999999ADDGD15991+0001519GF109991999999000251999999MW1451REMMET046METAR KMWN 010953Z 28039KT 0SM FG VV000 01/01;
0116726130147552011010110534+44267-071300FM-15+1910KMWN V0202801N022110001519N0000001N1+00101+00101999999ADDGD15991+0001519GF109991999999000251999999MW1451OC102521REMMET049METAR KMWN 011053Z 28043G49KT 0SM FG VV000 01/01;
0109726130147552011010112484+44267-071300FM-15+1910KMWN V0202901N024210001519N0000001N1+00201+00201999999ADDGD15991+0001519GF109991999999000251999999MW1451REMMET050METAR KMWN 011248Z 29047KT 0SM FG VV000 02/02 RMK;
0109726130147552011010113504+44267-071300FM-15+1910KMWN V0202901N021110001519N0000001N1+00201+00201999999ADDGD15991+0001519GF109991999999000251999999MW1451REMMET050METAR KMWN 011350Z 29041KT 0SM FG VV000 02/02 RMK;
0109726130147552011010114494+44267-071300FM-15+1910KMWN V0202801N019010001519N0000001N1+00201+00201999999ADDGD15991+0001519GF109991999999000251999999MW1451REMMET050METAR KMWN 011449Z 28037KT 0SM FG VV000 02/02 RMK;
0109726130147552011010115524+44267-071300FM-15+1910KMWN V0202701N020110001519N0000001N1+00201+00201999999ADDGD15991+0001519GF109991999999000251999999MW1451REMMET050METAR KMWN 011552Z 27039KT 0SM FG VV000 02/02 RMK;
0109726130147552011010116504+44267-071300FM-15+1910KMWN V0202801N019510001519N0000001N1+00201+00201999999ADDGD15991+0001519GF109991999999000251999999MW1451REMMET050METAR KMWN 011650Z 28038KT 0SM FG VV000 02/02 RMK;
0187726130147552011010117484+44267-071300FM-15+1910KMWN V0202701N018510006019N0001011N1+00301+00301999999ADDAJ100289199999999GD15991+0006019GF109991999999000251999999KA1999M+00281KA2999N+00061MW1451REMMET085METAR KMWN 011748Z 27036KT 1/16SM FG VV002 03/03 RMK SUN DMLY VSBL 4/011 10028 20006;
0198726130147552011010118544+44267-071300FM-15+1910KMWN V0202601N02011003001CN0001011N1+00301+00301999999ADDGD13991+0001519GD23991+0030019GD33991+0210019GD43991+0540019GF107991999999999999999999MW1441REMMET094METAR KMWN 011854Z 26039KT 1/16SM FG BKN000 BKN010 BKN070 BKN180 03/03 RMK FG BKN000 FG INTMT;
0121726130147552011010119494+44267-071300FM-15+1910KMWN V0202401N015910003019N0001011N1+00301+00301999999ADDGD15991+0003019GF109991999999000251999999MW1451REMMET062METAR KMWN 011949Z 24031KT 1/16SM FG VV001 03/03 RMK FG INTMT;
0121726130147552011010120504+44267-071300FM-15+1910KMWN V0202501N016510006019N0001011N1+00301+00301999999ADDGD15991+0006019GF109991999999000251999999MW1451REMMET062METAR KMWN 012050Z 25032KT 1/16SM FG VV002 03/03 RMK FG INTMT;
0242726130147552011010121504+44267-071300FM-15+1910KMWN V0202301N015910210019N0804671N1+00401+00201999999ADDGD11991+9999999GD21991+9999999GD32991+0090019GD43991+0210019GF108991999999999999999999REMMET125METAR KMWN 012150Z 23031KT 50SM FEW/// FEW/// SCT030 BKN070 OVC110 04/02 RMK SH DSNT W ACSL NE TPS LWR FEW035 TPS LWR FEW055;EQDQ01 999993SCOCIG
0263726130147552011010123004+44267-071300FM-15+1910KMWN V0202301N013410120019N0563271N1+00401+00101999999ADDGD11991+9999999GD21991+9999999GD32991+0090019GD43991+0120019GF108991999999999999999999OC101901REMMET138METAR KMWN 012257Z COR 23026G37KT 35SM FEW/// FEW/// SCT030 BKN040 OVC120 04/01 RMK SH DSNT W TPS LWR FEW030 TPS LWR FEW055 HZ DSNT NW-SW;EQDQ01 999993SCOCIG
0320726130147552011010123524+44267-071300FM-15+1910KMWN V0202401N011310120019N0402331N1+00301+00201999999ADDAJ100239199999999GD11991+9999999GD21991+9999999GD31991+0001519GD43991+0120019GF108991999999999999999999KA1999M+00391KA2999N+00221OC101441REMMET152METAR KMWN 012352Z 24022G28KT 25SM FEW/// FEW/// FEW000 BKN040 OVC095 03/02 RMK SH DSNT W TPS LWR FEW030 TPS LWR FEW055 HZ DSNT NW-SW 4/009 10039 20022;EQDQ01 999993SCOCIG
0231726130147552011010200524+44267-071300FM-15+1910KMWN V0203301N011310045019N0402331N1+00501+00001999999ADDGD13991+0045019GD24991+0120019GD31991+9999999GF108991999999999999999999MW1161OC101701REMMET134METAR KMWN 020052Z 33022G33KT 25SM VCSH FEW/// BKN015 OVC040 05/00 RMK WSHFT 23 VCSH N TPS LWR FEW032 HZ DSNT NE-NW PTCHY VLY FG W-NW;
0238726130147552011010201534+44267-071300FM-15+1910KMWN V0201901N015910120019N0643731N1+00301+00201999999ADDGD12991+9999999GD22991+9999999GD31991+0030019GD43991+0120019GF108991999999999999999999REMMET121METAR KMWN 020153Z 19031KT 40SM SCT/// SCT/// FEW010 BKN040 OVC070 03/02 RMK TPS LWR SCT030 TPS LWR SCT045 HZ DSNT ALQDS;EQDQ01 999993SCOCIG
0100726130147552011010202597+44267-071299FM-15+1910KMWN V0302101N01341012001CN0002011N1+00301+00301999999ADDAA101000025GD13991+0001519GD24991+0120019GF108991999999999999999999MW1441MW2801OC101851REMMET001-
0095726130147552011010203597+44267-071299FM-15+1910KMWN V0302001N015410135019N0643731N1+00201+00101999999ADDAA101000025GD13991+0135019GD24991+0240019GD32991+9999999GF108991999999999999999999REMMET001-
0203726130147552011010204596+44267-071299SOD  +1910KMWN V030999999999999999999999999999+99999+99999999999ADDAA124000025AJ100369599999999AL12400095AN1024000095GJ100105GK10025KA1240M+00565KA2240N+00065OE11240299527003265OE23240184699999999REMSOD0623   14755110101067  W0326          00100028800420033-   000014
0254726130147552011010205004+44267-071300FM-15+1910KMWN V0202201N015910090019N0563271N1+00401+00101999999ADDGD12991+9999999GD22991+9999999GD33991+0090019GD44991+0150019GF108991999999999999999999OC102011REMMET129METAR KMWN 020455Z 22031G39KT 35SM SCT/// SCT/// BKN030 OVC050 04/01 RMK SH DSNT SW-W TPS LWR SCT038 TPS LWR SCT045 HZ DSNT NW-S;EQDQ01 999993SCOCIG
0226726130147552011010205484+44267-071300FM-15+1910KMWN V0202301N011310001519N0000001N1+00301+00301999999ADDAA106001891AJ100209199999999GD15991+0001519GF109991999999000251999999KA1999M+00571KA2999N+00171MW1451MW2801REMMET088METAR KMWN 020548Z 23022KT 0SM -SHRA FG VV000 03/03 RMK SHRAB15 60007 4/008 10057 20017;EQDQ01  00188PRCP06
0026726130147552011010205598+44267-071299FM-15+1910KMWN V03099999999999999999N999999999+99999+99999999999ADDAA101001895REMMET003007
0081726130147552011010206597+44267-071299FM-15+1910KMWN V0302401N013910001519N0000001N1+00201+00201999999ADDAA101000595GD15991+0001519GF109991999999000251999999MW1451OC101751REMMET003002
0109726130147552011010207544+44267-071300FM-15+1910KMWN V0202601N016510001519N0000001N1+00201+00201999999ADDGD15991+0001519GF109991999999000251999999MW1451REMMET050METAR KMWN 020754Z 26032KT 0SM FG VV000 02/02 RMK;
0120726130147552011010208514+44267-071300FM-15+1910KMWN V0202701N018510001519N0000001N1+00201+00201999999ADDGD15991+0001519GF109991999999000251999999MW1451OC102161REMMET053METAR KMWN 020851Z 27036G42KT 0SM FG VV000 02/02 RMK;
0109726130147552011010209544+44267-071300FM-15+1910KMWN V0202701N018010001519N0000001N1+00301+00301999999ADDGD15991+0001519GF109991999999000251999999MW1451REMMET050METAR KMWN 020954Z 27035KT 0SM FG VV000 03/03 RMK;
0077726130147552011010210597+44267-071299FM-15+1910KMWN V0302601N019510003019N0000001N1+00301+00301999999ADDAA101000025GD15991+0003019GF109991999999000251999999MW1451MW2801REMMET001-
0131726130147552011010211597+44267-071299FM-15+1910KMWN V0302701N018010001519N0001011N1+00301+00301999999ADDAA101000025AA224002391AJ100139199999999GD15991+0001519GF109991999999000251999999KA1999M+00331KA2999N+00141MW1451MW2801REMMET001-
0117726130147552011010212494+44267-071300FM-15+1910KMWN V0202801N017010001519N0000001N1+00001+00001999999ADDGD15991+0001519GF109991999999000251999999MW1451REMMET058METAR KMWN 021249Z 28033KT 0SM FG VV000 00/00 RMK SHRAE13;
0024726130147552011010212598+44267-071299FM-15+1910KMWN V03099999999999999999N999999999+99999+99999999999ADDAA101000025REMMET001-
0087726130147552011010213597+44267-071299FM-15+1910KMWN V0302801N012910003019N0001011N1+00001+00001999999ADDAA101000595GD15991+0003019GF109991999999000251999999MW1491MW2561OC101591REMMET003002
0071726130147552011010214597+44267-071299FM-15+1910KMWN V0303001N019010001519N0001011N1+00001+00001999999ADDAA101000025GD15991+0001519GF109991999999000251999999MW1491REMMET001-
0140726130147552011010215524+44267-071300FM-15+1910KMWN V0202801N020110006019N0001011N1+00001+00001999999ADDGD15991+0006019GF109991999999000251999999MW1491REMMET081METAR KMWN 021552Z 28039KT 1/16SM FZFG VV002 M00/M00 RMK FZFG INTMT VRY LGT GICG;
0137726130147552011010216534+44267-071300FM-15+1910KMWN V0202601N015910001519N0000001N1-00101-00101999999ADDGD15991+0001519GF109991999999000251999999MW1491REMMET078METAR KMWN 021653Z 26031KT 0SM FZFG VV000 M01/M01 RMK FZFG INTMT VRY LGT GICG;
0321726130147552011010218004+44267-071300FM-15+1910KMWN V0202601N013410090019N1600001N1+00001-00101999999ADDAA106000591AJ100139199999999GD13991+9999999GD21991+9999999GD33991+0090019GD43991+0360019GF107991999999999999999999KA1999M+00291KA2999N-00261REMMET134METAR KMWN 021758Z 26026KT 100SM BKN/// FEW/// BKN030 BKN120 BKN200 M00/M01 RMK TPS LWR BKN052 TPS LWR FEW058 60002 4/005 10029 21026;EQDQ01  00058PRCP06Q02 999993SCOCIG
0205726130147552011010218544+44267-071300FM-15+1910KMWN V0202501N011310600019N1600001N1-00101-01802999999ADDGD12991+0090019GD22991+0210019GD33991+0600019GD43991+9999999GF107991999999999999999999REMMET088METAR KMWN 021854Z 25022KT 120SM BKN/// SCT030 SCT070 BKN200 M01/M18 RMK TPS LWR BKN050;EQDQ01-001803ATOD  
0228726130147552011010219514+44267-071300FM-15+1910KMWN V0202501N008219999999N1600001N1-00101-02101999999ADDGD13991+9999999GD21991+9999999GD32991+0090019GD42991+0210019GF107991999999999999999999REMMET130METAR KMWN 021951Z 25016KT 100SM BKN/// FEW/// SCT030 SCT070 SCT120 BKN200 M01/M21 RMK VIRGA DSNT S TPS LWR BKN052 TPS LWR FEW060;
0195726130147552011010220514+44267-071300FM-15+1910KMWN V0202501N008219999999N1600001N1-00201-02301999999ADDGD11991+0090019GD22991+0180019GD32991+0600019GD44991+9999999REMMET104METAR KMWN 022051Z 25016KT 120SM OVC/// FEW030 SCT060 SCT200 M02/M23 RMK VIRGA DSNT E-SE TPS LWR OVC050;EQDQ01+000042SCOTCV
0149726130147552011010221504+44267-071300FM-15+1910KMWN V0202501N00871018001CN1600001N1-00201-02401999999ADDGD11991+0090019GD23991+0180019GD34991+9999999OC101081REMMET084METAR KMWN 022150Z 25017G21KT 120SM OVC/// FEW030 BKN060 M02/M24 RMK TPS LWR OVC053;
0138726130147552011010222544+44267-071300FM-15+1910KMWN V0202101N010319999999N1600001N1-00501-00901999999ADDGD11991+0180019GD22991+0600019GD34991+9999999REMMET081METAR KMWN 022254Z 21020KT 120SM OVC/// FEW060 SCT200 M05/M09 RMK TPS LWR OVC055;
0185726130147552011010300004+44267-071300FM-15+1910KMWN V0202101N007210001519N0000001N1-00601-00601999999ADDAJ100139199999999GD15991+0001519GF109991999999000251999999KA1999M+00001KA2999N-00621MW1491REMMET083METAR KMWN 022355Z 21014KT 0SM FZFG VV000 M06/M06 RMK FZFG INTMT 4/005 11000 21062;
0128726130147552011010300484+44267-071300FM-15+1910KMWN V0202001N008210001519N0001011N1-00601-00601999999ADDGD15991+0001519GF109991999999000251999999MW1491REMMET069METAR KMWN 030048Z 20016KT 1/16SM FZFG VV000 M06/M06 RMK VRY LGT ICG;
0128726130147552011010301514+44267-071300FM-15+1910KMWN V0202001N006710003019N0001011N1-00801-00801999999ADDGD15991+0003019GF109991999999000251999999MW1491REMMET069METAR KMWN 030151Z 20013KT 1/16SM FZFG VV001 M08/M08 RMK VRY LGT ICG;
0125726130147552011010302494+44267-071300FM-15+1910KMWN V0202001N005110001519N0000001N1-01001-01001999999ADDGD15991+0001519GF109991999999000251999999MW1491REMMET066METAR KMWN 030249Z 20010KT 0SM FZFG VV000 M10/M10 RMK VRY LGT ICG;
0125726130147552011010303484+44267-071300FM-15+1910KMWN V0202001N004110001519N0000001N1-01201-01201999999ADDGD15991+0001519GF109991999999000251999999MW1491REMMET066METAR KMWN 030348Z 20008KT 0SM FZFG VV000 M12/M12 RMK VRY LGT ICG;
0238726130147552011010304596+44267-071299SOD  +1910KMWN V030999999999999999999999999999+99999+99999999999ADDAA124002891AJ100139199999999AL12400035AN1024000039GJ101805GK10335KA1240M+00335KA2240N-01495OE11240236927010095OE23240127499999999REMSOD0623   14755110102053  W1009          018003377003800050011-  005EQDR01  00116AAP092R02   0056AJS033
0125726130147552011010305004+44267-071300FM-15+1910KMWN V0202301N013910001519N0000001N1-01401-01401999999ADDGD15991+0001519GF109991999999000251999999MW1491REMMET066METAR KMWN 030459Z 23027KT 0SM FZFG VV000 M14/M14 RMK VRY LGT ICG;
0114726130147552011010305597+44267-071299FM-15+1910KMWN V0302601N019010001519N0000001N1-01501-01501999999ADDAA101000025AJ100139199999999GD15991+0001519GF109991999999000251999999KA1999M-00551KA2999N-01501MW1491REMMET001-
0081726130147552011010306597+44267-071299FM-15+1910KMWN V0303001N027810001519N0000001N1-01601-01601999999ADDAA101000395GD15991+0001519GF109991999999000251999999MW1491OC102981REMMET003001
0087726130147552011010307597+44267-071299FM-15+1910KMWN V0303001N031410001519N0000001N1-01601-01601999999ADDAA101000395GD15991+0001519GF109991999999000251999999MW1381MW2491OC103341REMMET003001
0079726130147552011010308597+44267-071299FM-15+1910KMWN V0302901N033410001519N0000001N1-01801-01801999999ADDAA101000395GD15991+0001519GF109991999999000251999999MW1381MW2491REMMET003001
0147726130147552011010309474+44267-071300FM-15+1910KMWN V0203001N035010003019N0001011N1-01801-01801999999ADDGD15991+0003019GF109991999999000251999999MW1381MW2491REMMET082METAR KMWN 030947Z 30068KT 1/16SM BLSN FZFG VV001 M18/M18 RMK SHSNE25 VRY LGT ICG;
0024726130147552011010309598+44267-071299FM-15+1910KMWN V03099999999999999999N999999999+99999+99999999999ADDAA101000025REMMET001-
0139726130147552011010311004+44267-071300FM-15+1910KMWN V0203001N036010003019N0001011N1-01801-01801999999ADDGD15991+0003019GF109991999999000251999999MW1381MW2491REMMET074METAR KMWN 031055Z 30070KT 1/16SM BLSN FZFG VV001 M18/M18 RMK VRY LGT ICG;
0276726130147552011010311514+44267-071300FM-15+1910KMWN V02099999999990003019N0001011N1-01801-01801999999ADDAA106000891AA224001391AJ100139199999999GD15991+0003019GF109991999999000251999999KA1999M-01481KA2999N-01841MW1381MW2491REMMET111METAR KMWN 031151Z 290//KT 1/16SM BLSN FZFG VV001 M18/M18 RMK VRY LGT ICG 60003 70005 4/005 931003 11148 21184;EQDQ01  00088PRCP06Q02  00138PRCP24
0139726130147552011010312524+44267-071300FM-15+1910KMWN V02099999999990003019N0001011N1-01901-01901999999ADDGD15991+0003019GF109991999999000251999999MW1381MW2491REMMET074METAR KMWN 031252Z 290//KT 1/16SM BLSN FZFG VV001 M19/M19 RMK VRY LGT ICG;
0139726130147552011010313544+44267-071300FM-15+1910KMWN V0209999C000010003019N0001011N1-01901-01901999999ADDGD15991+0003019GF109991999999000251999999MW1381MW2491REMMET074METAR KMWN 031354Z 30000KT 1/16SM BLSN FZFG VV001 M19/M19 RMK VRY LGT ICG;
0139726130147552011010314504+44267-071300FM-15+1910KMWN V02099999999990003019N0001011N1-01901-01901999999ADDGD15991+0003019GF109991999999000251999999MW1381MW2491REMMET074METAR KMWN 031450Z 300//KT 1/16SM BLSN FZFG VV001 M19/M19 RMK VRY LGT ICG;
0139726130147552011010315504+44267-071300FM-15+1910KMWN V02099999999990006019N0001011N1-01901-01901999999ADDGD15991+0006019GF109991999999000251999999MW1381MW2491REMMET074METAR KMWN 031550Z 290//KT 1/16SM BLSN FZFG VV002 M19/M19 RMK VRY LGT ICG;
0139726130147552011010316534+44267-071300FM-15+1910KMWN V0209999C000010003019N0001011N1-01801-01801999999ADDGD15991+0003019GF109991999999000251999999MW1381MW2491REMMET074METAR KMWN 031653Z 30000KT 1/16SM BLSN FZFG VV001 M18/M18 RMK VRY LGT ICG;
0200726130147552011010317534+44267-071300FM-15+1910KMWN V0209999C000010003019N0001011N1-01901-01901999999ADDAJ100139199999999GD15991+0003019GF109991999999000251999999KA1999M-01791KA2999N-01901MW1381MW2491REMMET092METAR KMWN 031753Z 29000KT 1/16SM BLSN FZFG VV001 M19/M19 RMK VRY LGT ICG 4/005 11179 21190;
0077726130147552011010318597+44267-071299FM-15+1910KMWN V0309999C000010001519N0000001N1-01801-01801999999ADDAA101000025GD15991+0001519GF109991999999000251999999MW1381MW2491REMMET001-
0079726130147552011010319597+44267-071299FM-15+1910KMWN V0309999C000010001519N0001011N1-01801-01801999999ADDAA101000395GD15991+0001519GF109991999999000251999999MW1381MW2491REMMET003001
0079726130147552011010320597+44267-071299FM-15+1910KMWN V0309999C000010006019N0001011N1-01801-01801999999ADDAA101000395GD15991+0006019GF109991999999000251999999MW1381MW2491REMMET003001
0147726130147552011010321474+44267-071300FM-15+1910KMWN V0209999C000010003019N0001011N1-01901-01901999999ADDGD15991+0003019GF109991999999000251999999MW1381MW2491REMMET082METAR KMWN 032147Z 29000KT 1/16SM BLSN FZFG VV001 M19/M19 RMK SHSNE35 VRY LGT ICG;
0024726130147552011010321598+44267-071299FM-15+1910KMWN V03099999999999999999N999999999+99999+99999999999ADDAA101000025REMMET001-
0158726130147552011010323004+44267-071300FM-15+1910KMWN V0202801N040620003019N0001011N1-01901-01901999999ADDGD15991+0003019GF109991999999000251999999MW1381MW2491REMMET074METAR KMWN 032256Z 28079KT 1/16SM BLSN FZFG VV001 M19/M19 RMK VRY LGT ICG;EQDQ01+004063WOSPD 
0283726130147552011010323504+44267-071300FM-15+1910KMWN V0202801N044220003019N0000001N1-01901-01901999999ADDAA106000591AJ100139199999999GD15991+0003019GF109991999999000251999999KA1999M-01801KA2999N-01881MW1381MW2491OC104582REMMET105METAR KMWN 032350Z 28086G89KT 0SM BLSN FZFG VV001 M19/M19 RMK VRY LGT ICG 60002 4/005 931003 11180 21188;EQDQ01+004423WOSPD Q02+004586WGOSPDQ03  00058PRCP06
0185726130147552011010401004+44267-071300FM-15+1910KMWN V0202901N040120003019N0001011N1-01901-01901999999ADDGD15991+0003019GF109991999999000251999999MW1381MW2491OC104632REMMET077METAR KMWN 040056Z 29078G90KT 1/16SM BLSN FZFG VV001 M19/M19 RMK VRY LGT ICG;EQDQ01+004013WOSPD Q02+004636WGOSPD
0182726130147552011010401504+44267-071300FM-15+1910KMWN V0202901N047820003019N0000001N1-01901-01901999999ADDGD15991+0003019GF109991999999000251999999MW1381MW2491OC105092REMMET074METAR KMWN 040150Z 29093G99KT 0SM BLSN FZFG VV001 M19/M19 RMK VRY LGT ICG;EQDQ01+004783WOSPD Q02+005096WGOSPD
0185726130147552011010402544+44267-071300FM-15+1910KMWN V0202901N042220003019N0001011N1-01901-01901999999ADDGD15991+0003019GF109991999999000251999999MW1381MW2491OC104782REMMET077METAR KMWN 040254Z 29082G93KT 1/16SM BLSN FZFG VV001 M19/M19 RMK VRY LGT ICG;EQDQ01+004223WOSPD Q02+004786WGOSPD
0166726130147552011010403544+44267-071300FM-15+1910KMWN V0202901N039110001519N0000001N1-01901-01901999999ADDGD15991+0001519GF109991999999000251999999MW1381MW2491OC104632REMMET074METAR KMWN 040354Z 29076G90KT 0SM BLSN FZFG VV000 M19/M19 RMK VRY LGT ICG;EQDQ01+004636WGOSPD
0222726130147552011010404596+44267-071299SOD  +1910KMWN V030999999999999999999999999999+99999+99999999999ADDAA124001391AJ100139599999999AL12400195AN1024001595GJ100005GK10005KA1240M-01495KA2240N-01885OE11240563332020075OE23240340699999999REMSOD0623   14755110103126 NW2007          0000000880005-0020005006005EQDR01  00056AAP092
0166726130147552011010405004+44267-071300FM-15+1910KMWN V0203001N038110003019N0000001N1-01901-01901999999ADDGD15991+0003019GF109991999999000251999999MW1381MW2491OC104482REMMET074METAR KMWN 040455Z 30074G87KT 0SM BLSN FZFG VV001 M19/M19 RMK VRY LGT ICG;EQDQ01+004486WGOSPD
0227726130147552011010406004+44267-071300FM-15+1910KMWN V0202901N036510003019N0000001N1-01901-01901999999ADDAJ100139199999999GD15991+0003019GF109991999999000251999999KA1999M-01831KA2999N-01901MW1381MW2491OC104012REMMET092METAR KMWN 040555Z 29071G78KT 0SM BLSN FZFG VV001 M19/M19 RMK VRY LGT ICG 4/005 11183 21190;EQDQ01+004016WGOSPD
0150726130147552011010406524+44267-071300FM-15+1910KMWN V0202901N035510006019N0001011N1-01901-01901999999ADDGD15991+0006019GF109991999999000251999999MW1381MW2491OC103911REMMET077METAR KMWN 040652Z 29069G76KT 1/16SM BLSN FZFG VV002 M19/M19 RMK VRY LGT ICG;
0169726130147552011010407534+44267-071300FM-15+1910KMWN V0202901N037610003019N0001011N1-01901-01901999999ADDGD15991+0003019GF109991999999000251999999MW1381MW2491OC104172REMMET077METAR KMWN 040753Z 29073G81KT 1/16SM BLSN FZFG VV001 M19/M19 RMK VRY LGT ICG;EQDQ01+004176WGOSPD
0169726130147552011010408504+44267-071300FM-15+1910KMWN V0202901N037010003019N0001011N1-01901-01901999999ADDGD15991+0003019GF109991999999000251999999MW1381MW2491OC104222REMMET077METAR KMWN 040850Z 29072G82KT 1/16SM BLSN FZFG VV001 M19/M19 RMK VRY LGT ICG;EQDQ01+004226WGOSPD
0147726130147552011010410004+44267-071300FM-15+1910KMWN V0202801N031910003019N0000001N1-01901-01901999999ADDGD15991+0003019GF109991999999000251999999MW1381MW2491OC103601REMMET074METAR KMWN 040955Z 28062G70KT 0SM BLSN FZFG VV001 M19/M19 RMK VRY LGT ICG;
0150726130147552011010411004+44267-071300FM-15+1910KMWN V0202801N031910003019N0001011N1-01901-01901999999ADDGD15991+0003019GF109991999999000251999999MW1381MW2491OC103401REMMET077METAR KMWN 041055Z 28062G66KT 1/16SM BLSN FZFG VV001 M19/M19 RMK VRY LGT ICG;
0233726130147552011010412004+44267-071300FM-15+1910KMWN V0203001N028310001519N0000001N1-01901-01901999999ADDAA124000591AJ100139199999999GD15991+0001519GF109991999999000251999999KA1999M-01821KA2999N-01921MW1381MW2491REMMET095METAR KMWN 041155Z 30055KT 0SM BLSN FZFG VV000 M19/M19 RMK VRY LGT ICG 70002 4/005 11182 21192;EQDQ01  00058PRCP24
0136726130147552011010412504+44267-071300FM-15+1910KMWN V0202901N028310001519N0000001N1-01901-01901999999ADDGD15991+0001519GF109991999999000251999999MW1381MW2491REMMET071METAR KMWN 041250Z 29055KT 0SM BLSN FZFG VV000 M19/M19 RMK VRY LGT ICG;
0139726130147552011010413504+44267-071300FM-15+1910KMWN V0203001N027810001519N0001011N1-01701-01701999999ADDGD15991+0001519GF109991999999000251999999MW1381MW2491REMMET074METAR KMWN 041350Z 30054KT 1/16SM BLSN FZFG VV000 M17/M17 RMK VRY LGT ICG;
0139726130147552011010415004+44267-071300FM-15+1910KMWN V0202801N023110001519N0001011N1-01601-01601999999ADDGD15991+0001519GF109991999999000251999999MW1381MW2491REMMET074METAR KMWN 041455Z 28045KT 1/16SM BLSN FZFG VV000 M16/M16 RMK VRY LGT ICG;
0125726130147552011010415504+44267-071300FM-15+1910KMWN V0202801N019510001519N0000001N1-01601-01601999999ADDGD15991+0001519GF109991999999000251999999MW1491REMMET066METAR KMWN 041550Z 28038KT 0SM FZFG VV000 M16/M16 RMK VRY LGT ICG;
0125726130147552011010416504+44267-071300FM-15+1910KMWN V0202801N018510003019N0000001N1-01601-01601999999ADDGD15991+0003019GF109991999999000251999999MW1491REMMET066METAR KMWN 041650Z 28036KT 0SM FZFG VV001 M16/M16 RMK VRY LGT ICG;
0186726130147552011010417504+44267-071300FM-15+1910KMWN V0202801N016510003019N0000001N1-01501-01501999999ADDAJ100139199999999GD15991+0003019GF109991999999000251999999KA1999M-01511KA2999N-01891MW1491REMMET084METAR KMWN 041750Z 28032KT 0SM FZFG VV001 M15/M15 RMK VRY LGT ICG 4/005 11151 21189;
0077726130147552011010418597+44267-071299FM-15+1910KMWN V0302801N018010001519N0000001N1-01501-01501999999ADDAA101000025GD15991+0001519GF109991999999000251999999MW1491MW2771REMMET001-
0077726130147552011010419597+44267-071299FM-15+1910KMWN V0302801N019010001519N0000001N1-01401-01401999999ADDAA101000025GD15991+0001519GF109991999999000251999999MW1491MW2771REMMET001-
0079726130147552011010420597+44267-071299FM-15+1910KMWN V0302801N018010001519N0000001N1-01501-01501999999ADDAA101000395GD15991+0001519GF109991999999000251999999MW1491MW2711REMMET003001
0077726130147552011010421597+44267-071299FM-15+1910KMWN V0302901N020110001519N0000001N1-01501-01501999999ADDAA101000025GD15991+0001519GF109991999999000251999999MW1361MW2491REMMET001-
0077726130147552011010422597+44267-071299FM-15+1910KMWN V0302801N020110001519N0000001N1-01501-01501999999ADDAA101000025GD15991+0001519GF109991999999000251999999MW1361MW2491REMMET001-
0122726130147552011010423597+44267-071299FM-15+1910KMWN V0302801N020610001519N0000001N1-01501-01501999999ADDAA101000595AJ100159199999999GD15991+0001519GF109991999999000251999999KA1999M-01421KA2999N-01541MW1381MW2491REMMET003002
0079726130147552011010500597+44267-071299FM-15+1910KMWN V0302801N020610001519N0000001N1-01601-01601999999ADDAA101000395GD15991+0001519GF109991999999000251999999MW1381MW2491REMMET003001
0077726130147552011010501597+44267-071299FM-15+1910KMWN V0302801N020110001519N0000001N1-01601-01601999999ADDAA101000025GD15991+0001519GF109991999999000251999999MW1381MW2491REMMET001-
0077726130147552011010502597+44267-071299FM-15+1910KMWN V0302801N021110001519N0000001N1-01501-01501999999ADDAA101000025GD15991+0001519GF109991999999000251999999MW1381MW2491REMMET001-
0077726130147552011010503597+44267-071299FM-15+1910KMWN V0302801N021610001519N0000001N1-01501-01501999999ADDAA101000025GD15991+0001519GF109991999999000251999999MW1381MW2491REMMET001-
0087726130147552011010504597+44267-071299FM-15+1910KMWN V0302801N022110001519N0000001N1-01501-01501999999ADDAA101000895GD15991+0001519GF109991999999000251999999MW1381MW2491OC102471REMMET003003
0222726130147552011010504596+44267-071299SOD  +1910KMWN V030999999999999999999999999999+99999+99999999999ADDAA124001891AJ100139599999999AL12400395AN1024003895GJ100005GK10005KA1240M-01385KA2240N-01885OE11240438132003135OE23240249499999999REMSOD0623   14755110104098 NW0313          0000000880007-0020007015005EQDR01  00076AAP092
0122726130147552011010505597+44267-071299FM-15+1910KMWN V0302901N027810001519N0000001N1-01501-01501999999ADDAA101000395AJ100189199999999GD15991+0001519GF109991999999000251999999KA1999M-01451KA2999N-01571MW1381MW2491REMMET003001
0079726130147552011010506597+44267-071299FM-15+1910KMWN V0302901N024710001519N0000001N1-01601-01601999999ADDAA101000395GD15991+0001519GF109991999999000251999999MW1381MW2491REMMET003001
0087726130147552011010507597+44267-071299FM-15+1910KMWN V0302901N026810001519N0000001N1-01601-01601999999ADDAA101000395GD15991+0001519GF109991999999000251999999MW1381MW2491OC103241REMMET003001
0079726130147552011010508597+44267-071299FM-15+1910KMWN V0303001N029310001519N0000001N1-01601-01601999999ADDAA101000395GD15991+0001519GF109991999999000251999999MW1381MW2491REMMET003001
0079726130147552011010509597+44267-071299FM-15+1910KMWN V0302901N026210001519N0000001N1-01601-01601999999ADDAA101000395GD15991+0001519GF109991999999000251999999MW1381MW2491REMMET003001
0079726130147552011010510597+44267-071299FM-15+1910KMWN V0302901N028810001519N0000001N1-01701-01701999999ADDAA101000395GD15991+0001519GF109991999999000251999999MW1381MW2491REMMET003001
0160726130147552011010511597+44267-071299FM-15+1910KMWN V0302901N037010001519N0000001N1-01701-01701999999ADDAA101000395AA224003691AJ100189199999999GD15991+0001519GF109991999999000251999999KA1999M-01521KA2999N-01701MW1381MW2491OC104372REMMET003001EQDQ01+004376WGOSPD
0104726130147552011010512597+44267-071299FM-15+1910KMWN V0303001N033410001519N0000001N1-01701-01701999999ADDAA101000025GD15991+0001519GF109991999999000251999999MW1381MW2491OC104322REMMET001-EQDQ01+004326WGOSPD
0147726130147552011010513504+44267-071300FM-15+1910KMWN V0203001N029310001519N0000001N1-01701-01701999999ADDGD15991+0001519GF109991999999000251999999MW1381MW2491OC103501REMMET074METAR KMWN 051350Z 30057G68KT 0SM BLSN FZFG VV000 M17/M17 RMK VRY LGT ICG;
0147726130147552011010514504+44267-071300FM-15+1910KMWN V0202801N033410001519N0000001N1-01601-01601999999ADDGD15991+0001519GF109991999999000251999999MW1381MW2491OC103451REMMET074METAR KMWN 051450Z 28065G67KT 0SM BLSN FZFG VV000 M16/M16 RMK VRY LGT ICG;
0139726130147552011010516004+44267-071300FM-15+1910KMWN V0202801N030910003019N0001011N1-01701-01701999999ADDGD15991+0003019GF109991999999000251999999MW1381MW2491REMMET074METAR KMWN 051555Z 28060KT 1/16SM BLSN FZFG VV001 M17/M17 RMK VRY LGT ICG;
0166726130147552011010517004+44267-071300FM-15+1910KMWN V0202901N035510001519N0000001N1-01701-01701999999ADDGD15991+0001519GF109991999999000251999999MW1381MW2491OC104172REMMET074METAR KMWN 051655Z 29069G81KT 0SM BLSN FZFG VV000 M17/M17 RMK VRY LGT ICG;EQDQ01+004176WGOSPD
0267726130147552011010518004+44267-071300FM-15+1910KMWN V0202801N027310001519N0000001N1-01701-01701999999ADDAA106000021AJ100189199999999GD15991+0001519GF109991999999000251999999KA1999M-01651KA2999N-01721MW1381MW2491OC103651REMMET105METAR KMWN 051755Z 28053G71KT 0SM BLSN FZFG VV000 M17/M17 RMK VRY LGT ICG 60000 4/007 931000 11165 21172;EQDQ01  00002PRCP06Q02  00008PRCP06
0166726130147552011010518504+44267-071300FM-15+1910KMWN V0202801N037610001519N0000001N1-01701-01701999999ADDGD15991+0001519GF109991999999000251999999MW1381MW2491OC104222REMMET074METAR KMWN 051850Z 28073G82KT 0SM BLSN FZFG VV000 M17/M17 RMK VRY LGT ICG;EQDQ01+004226WGOSPD
0136726130147552011010520004+44267-071300FM-15+1910KMWN V0202801N030910001519N0000001N1-01701-01701999999ADDGD15991+0001519GF109991999999000251999999MW1381MW2491REMMET071METAR KMWN 051955Z 28060KT 0SM BLSN FZFG VV000 M17/M17 RMK VRY LGT ICG;
0087726130147552011010520597+44267-071299FM-15+1910KMWN V0302901N032910001519N0000001N1-01801-01801999999ADDAA101000395GD15991+0001519GF109991999999000251999999MW1381MW2491OC103761REMMET003001
0077726130147552011010521597+44267-071299FM-15+1910KMWN V0302901N034510001519N0000001N1-01901-01901999999ADDAA101000025GD15991+0001519GF109991999999000251999999MW1381MW2491REMMET001-
0079726130147552011010522597+44267-071299FM-15+1910KMWN V0302801N032410001519N0000001N1-02001-02001999999ADDAA101000395GD15991+0001519GF109991999999000251999999MW1381MW2491REMMET003001
0248726130147552011010523504+44267-071300FM-15+1910KMWN V0202801N032910001519N0000001N1-02001-02001999999ADDAA106000591AJ100189199999999GD15991+0001519GF109991999999000251999999KA1999M-01621KA2999N-02041MW1381MW2491REMMET110METAR KMWN 052350Z 28064KT 0SM BLSN FZFG VV000 M20/M20 RMK SHSNE00 VRY LGT ICG 60002 4/007 931003 11162 21204;EQDQ01  00058PRCP06
0136726130147552011010600504+44267-071300FM-15+1910KMWN V0202901N030910001519N0000001N1-02001-02001999999ADDGD15991+0001519GF109991999999000251999999MW1381MW2491REMMET071METAR KMWN 060050Z 29060KT 0SM BLSN FZFG VV000 M20/M20 RMK VRY LGT ICG;
0085726130147552011010601597+44267-071299FM-15+1910KMWN V0302901N034010001519N0000001N1-02001-02001999999ADDAA101000025GD15991+0001519GF109991999999000251999999MW1381MW2491OC103761REMMET001-
0087726130147552011010602597+44267-071299FM-15+1910KMWN V0302801N033410001519N0000001N1-02101-02101999999ADDAA101000395GD15991+0001519GF109991999999000251999999MW1381MW2491OC103651REMMET003001
0085726130147552011010603597+44267-071299FM-15+1910KMWN V0302801N034010001519N0000001N1-02101-02101999999ADDAA101000025GD15991+0001519GF109991999999000251999999MW1381MW2491OC103601REMMET001-
0085726130147552011010604597+44267-071299FM-15+1910KMWN V0302801N036010001519N0000001N1-02201-02201999999ADDAA101000025GD15991+0001519GF109991999999000251999999MW1381MW2491OC103961REMMET001-
0222726130147552011010604596+44267-071299SOD  +1910KMWN V030999999999999999999999999999+99999+99999999999ADDAA124002591AJ100189599999999AL12400395AN1024003895GJ100005GK10005KA1240M-01495KA2240N-02165OE11240473927010365OE23240322899999999REMSOD0623   14755110105106  W1036          0000000880005-0070010015007EQDR01  00106AAP092
0128726130147552011010605597+44267-071299FM-15+1910KMWN V0302901N032410001519N0000001N1-02201-02201999999ADDAA101000025AJ100189199999999GD15991+0001519GF109991999999000251999999KA1999M-02041KA2999N-02181MW1381MW2491OC103651REMMET001-
0169726130147552011010607004+44267-071300FM-15+1910KMWN V0202901N036010001519N0001011N1-02201-02201999999ADDGD15991+0001519GF109991999999000251999999MW1381MW2491OC104062REMMET077METAR KMWN 060655Z 29070G79KT 1/16SM BLSN FZFG VV000 M22/M22 RMK VRY LGT ICG;EQDQ01+004066WGOSPD
0166726130147552011010608004+44267-071300FM-15+1910KMWN V0203001N036010001519N0000001N1-02201-02201999999ADDGD15991+0001519GF109991999999000251999999MW1381MW2491OC104012REMMET074METAR KMWN 060755Z 30070G78KT 0SM BLSN FZFG VV000 M22/M22 RMK VRY LGT ICG;EQDQ01+004016WGOSPD
0147726130147552011010609004+44267-071300FM-15+1910KMWN V0202901N035010001519N0000001N1-02201-02201999999ADDGD15991+0001519GF109991999999000251999999MW1381MW2491OC103811REMMET074METAR KMWN 060855Z 29068G74KT 0SM BLSN FZFG VV000 M22/M22 RMK VRY LGT ICG;
0147726130147552011010609504+44267-071300FM-15+1910KMWN V0202901N029310001519N0000001N1-02201-02201999999ADDGD15991+0001519GF109991999999000251999999MW1381MW2491OC103451REMMET074METAR KMWN 060950Z 29057G67KT 0SM BLSN FZFG VV000 M22/M22 RMK VRY LGT ICG;
0147726130147552011010611004+44267-071300FM-15+1910KMWN V0202801N031410001519N0000001N1-02101-02101999999ADDGD15991+0001519GF109991999999000251999999MW1381MW2491OC103451REMMET074METAR KMWN 061055Z 28061G67KT 0SM BLSN FZFG VV000 M21/M21 RMK VRY LGT ICG;
0247726130147552011010612004+44267-071300FM-15+1910KMWN V0202801N024210001519N0001011N1-02201-02201999999ADDAA124000891AJ100189199999999GD15991+0001519GF109991999999000251999999KA1999M-02121KA2999N-02231MW1381MW2491OC102781REMMET101METAR KMWN 061155Z 28047G54KT 1/16SM BLSN FZFG VV000 M22/M22 RMK VRY LGT ICG 70003 4/007 11212 21223;EQDQ01  00088PRCP24
0153726130147552011010612504+44267-071300FM-15+1910KMWN V0202801N023710001519N0001011N1-02201-02201999999ADDGD15991+0001519GF109991999999000251999999MW1381MW2491REMMET088METAR KMWN 061250Z 28046KT 1/16SM BLSN FZFG VV000 M22/M22 RMK VRY LGT ICG SUN DMLY VSBL;
0162726130147552011010614004+44267-071300FM-15+1910KMWN V0203001N01951060001CN0001011N1-02101-02101999999ADDGD13991+0001519GD24991+0600019GF108991999999999999999999MW1381MW2481REMMET082METAR KMWN 061355Z 30038KT 1/16SM BLSN FZFG BKN000 OVC200 M21/M21 RMK VRY LGT ICG;
0225726130147552011010615004+44267-071300FM-15+1910KMWN V0203001N015419999999N1287471N1-02001-02301999999ADDGD12991+9999999GD21991+9999999GD31991+0001519GD41991+0120019GF107991999999999999999999OC101951REMMET119METAR KMWN 061455Z 30030G38KT 80SM SCT/// FEW/// FEW000 FEW040 BKN090 BKN200 M20/M23 RMK TPS LWR SCT056 TPS LWR FEW058;
0235726130147552011010616004+44267-071300FM-15+1910KMWN V0203001N018019999999N1287471N1-02001-02201999999ADDGD12991+9999999GD21991+9999999GD31991+0001519GD41991+0120019GF107991999999999999999999OC102161REMMET129METAR KMWN 061555Z 30035G42KT 80SM SCT/// FEW/// FEW000 FEW040 BKN110 BKN200 M20/M22 RMK VIS E-S 3/8 TPS LWR SCT057 BBLO FEW E-S;
0206726130147552011010617004+44267-071300FM-15+1910KMWN V0202901N015410600019N1287471N1-01901-02101999999ADDGD11991+0001519GD22991+0330019GD33991+0600019GD42991+9999999GF107991999999999999999999OC101701REMMET100METAR KMWN 061659Z 29030G33KT 80SM SCT/// FEW000 SCT110 BKN200 M19/M21 RMK FEW V SCT TPS LWR SCT055;
0310726130147552011010618004+44267-071300FM-15+1910KMWN V0203001N013410330019N1448401N1-01901-02201999999ADDAJ100189199999999GD11991+0001519GD22991+0120019GD33991+0330019GD42991+9999999GF107991999999999999999999KA1999M-01821KA2999N-02181MW1411REMMET163METAR KMWN 061755Z 30026KT 90SM PRFG SCT/// FEW000 SCT040 BKN110 BKN200 M19/M22 RMK VIS NW 1/2 PRFG FEW000 TPS LWR SCT055 PRFG INTMT VRY LGT ICG 4/007 11182 21218;
0185726130147552011010618494+44267-071300FM-15+1910KMWN V0203001N014410330019N1448401N1-01801-02201999999ADDGD12991+0120019GD23991+0330019GD33991+0600019GD42991+9999999GF107991999999999999999999REMMET087METAR KMWN 061849Z 30028KT 90SM SCT/// SCT040 BKN110 BKN200 M18/M22 RMK TPS LWR SCT057;
0200726130147552011010619474+44267-071300FM-15+1910KMWN V0203101N010810330019N1600001N1-01901-02401999999ADDGD11991+0001519GD22991+0120019GD33991+0330019GD42991+9999999GF107991999999999999999999REMMET102METAR KMWN 061947Z 31021KT 100SM SCT/// FEW000 SCT040 BKN110 BKN170 BKN200 M19/M24 RMK TPS LWR SCT055;
0199726130147552011010621004+44267-071300FM-15+1910KMWN V0203201N007710330019N1287471N1-01901-02301999999ADDGD11991+0001519GD22991+0120019GD33991+0330019GD41991+9999999GF107991999999999999999999REMMET101METAR KMWN 062059Z 32015KT 80SM FEW/// FEW000 SCT040 BKN110 BKN170 BKN200 M19/M23 RMK TPS LWR FEW055;
0192726130147552011010621534+44267-071300FM-15+1910KMWN V0203101N009310510019N1287471N1-01901-02301999999ADDGD11991+0001519GD22991+0120019GD33991+0510019GD41991+9999999GF107991999999999999999999REMMET094METAR KMWN 062153Z 31018KT 80SM FEW/// FEW000 SCT040 BKN170 BKN200 M19/M23 RMK TPS LWR FEW055;
0192726130147552011010622534+44267-071300FM-15+1910KMWN V0203201N005710510019N1528871N1-01901-02201999999ADDGD11991+0001519GD21991+0120019GD33991+0510019GD41991+9999999GF107991999999999999999999REMMET094METAR KMWN 062253Z 32011KT 95SM FEW/// FEW000 FEW040 BKN170 BKN200 M19/M22 RMK TPS LWR FEW055;
0209726130147552011010623544+44267-071300FM-15+1910KMWN V0203101N005110600019N1528871N1-01901-02301999999ADDAJ100189199999999GD11991+0120019GD22991+0480019GD33991+0600019GF107991999999999999999999KA1999M-01841KA2999N-01921REMMET083METAR KMWN 062354Z 31010KT 95SM FEW040 SCT160 BKN200 M19/M23 RMK 4/007 11184 21192;
0149726130147552011010701004+44267-071300FM-15+1910KMWN V0203301N003112200019N1600001N1-01901-02301999999ADDGD11991+0150019GD21991+0450019GD31991+0600019GF102991999999999999999999REMMET066METAR KMWN 070055Z 33006KT 100SM FEW050 FEW150 FEW200 M19/M23 RMK;
0127726130147552011010701544+44267-071300FM-15+1910KMWN V0203401N000512200019N1600001N1-01801-02301999999ADDGD11991+0360019GD21991+0600019GF102991999999999999999999REMMET059METAR KMWN 070154Z 34001KT 120SM FEW120 FEW200 M18/M23 RMK;
0127726130147552011010703004+44267-071300FM-15+1910KMWN V0201301N001512200019N1600001N1-01901-02301999999ADDGD11991+0360019GD21991+0600019GF102991999999999999999999REMMET059METAR KMWN 070256Z 13003KT 120SM FEW120 FEW200 M19/M23 RMK;
0142726130147552011010703534+44267-071300FM-15+1910KMWN V0201301N002612200019N1600001N1-01901-02401999999ADDGD11991+0360019GD21991+0600019GF102991999999999999999999REMMET074METAR KMWN 070353Z 13005KT 120SM FEW120 FEW200 M19/M24 RMK PTCHY VLY FG E;
0145726130147552011010704544+44267-071300FM-15+1910KMWN V0201201N004612200019N1600001N1-01901-02501999999ADDGD11991+0360019GD22991+0600019GF104991999999999999999999REMMET077METAR KMWN 070454Z 12009KT 105SM FEW120 SCT200 M19/M25 RMK PTCHY VLY FG NE-E;
0203726130147552011010704596+44267-071299SOD  +1910KMWN V030999999999999999999999999999+99999+99999999999ADDAA124000025AJ100189599999999AL12400035AN1024000039GJ103725GK10675KA1240M-01825KA2240N-02215OE11240420232002565OE23240169099999999REMSOD0623   14755110106094 NW0256          037206776-001-008-   -  007
0204726130147552011010705544+44267-071300FM-15+1910KMWN V0201301N005712200019N1600001N1-01901-02301999999ADDAJ100189199999999GD11991+0300019GD22991+0600019GF104991999999999999999999KA1999M-01831KA2999N-01941REMMET093METAR KMWN 070554Z 13011KT 100SM FEW100 SCT200 M19/M23 RMK PTCHY VLY FG NE 4/007 11183 21194;
0127726130147552011010707004+44267-071300FM-15+1910KMWN V0201301N005710600019N1600001N1-01901-02401999999ADDGD11991+0300019GD23991+0600019GF107991999999999999999999REMMET059METAR KMWN 070656Z 13011KT 100SM FEW100 BKN200 M19/M24 RMK;
0155726130147552011010708004+44267-071300FM-15+1910KMWN V0201301N005710240019N1528871N1-01901-02401999999ADDGD12991+0120019GD23991+0240019GD34991+0600019GF108991999999999999999999REMMET072METAR KMWN 070755Z 13011KT 95SM SCT040 BKN080 OVC200 M19/M24 RMK BINOVC;
0177726130147552011010709004+44267-071300FM-15+1910KMWN V0201301N007210120019N1528871N1-01901-02401999999ADDGD11991+0030019GD23991+0120019GD33991+0240019GD44991+0600019GF108991999999999999999999REMMET079METAR KMWN 070857Z 13014KT 95SM FEW010 BKN040 BKN080 OVC200 M19/M24 RMK BINOVC;
0170726130147552011010710004+44267-071300FM-15+1910KMWN V0201301N006210240019N1448401N1-02001-02401999999ADDGD11991+0030019GD22991+0120019GD33991+0240019GD43991+0600019GF107991999999999999999999REMMET072METAR KMWN 070959Z 13012KT 90SM FEW010 SCT040 BKN080 BKN200 M20/M24 RMK;
0148726130147552011010711004+44267-071300FM-15+1910KMWN V0201301N006210600019N1448401N1-02001-02301999999ADDGD11991+0030019GD22991+0120019GD33991+0600019GF107991999999999999999999REMMET065METAR KMWN 071055Z 13012KT 90SM FEW010 SCT040 BKN200 M20/M23 RMK;
0209726130147552011010711534+44267-071300FM-15+1910KMWN V0201301N007210600019N1448401N1-02001-02401999999ADDAJ100189199999999GD11991+0030019GD22991+0120019GD33991+0600019GF107991999999999999999999KA1999M-01891KA2999N-02071REMMET083METAR KMWN 071153Z 13014KT 90SM FEW010 SCT040 BKN200 M20/M24 RMK 4/007 11189 21207;
0082726130147552011010712597+44267-071299FM-15+1910KMWN V0301101N006710120019N0402331N1-02001-02501999999ADDAA101000395GD13991+0120019GD24991+0540019GF108991999999999999999999REMMET003001
0118726130147552011010713597+44267-071299FM-15+1910KMWN V0301401N009810420019N0160931N1-01901-02301999999ADDAA101000595GD12991+0120019GD22991+0240019GD33991+0420019GD43991+0540019GF107991999999999999999999MW1361REMMET003002
0110726130147552011010714597+44267-071299FM-15+1910KMWN V0301401N007710420019N0965601N1-01801-02301999999ADDAA101000025GD12991+0120019GD22991+0240019GD33991+0420019GD43991+0540019GF108991999999999999999999REMMET001-
0226726130147552011010716004+44267-071300FM-15+1910KMWN V0201601N007210540019N0012071N1-01701-02001999999ADDGD11991+0120019GD22991+0420019GD33991+0540019GD42991+9999999GF107991999999999999999999REMMET128METAR KMWN 071555Z 16014KT 3/4SM SCT/// FEW040 SCT140 BKN180 BKN220 M17/M20 RMK VIS NW-NE 10 BBLO SCT E-W LIMTING VIS TO 3/4 SM;
0224726130147552011010717004+44267-071300FM-15+1910KMWN V0201701N006712200019N0965601N1-01601-01801999999ADDGD11991+0001519GD21991+0120019GD32991+0420019GD41991+9999999GF107991999999999999999999REMMET126METAR KMWN 071655Z 17013KT 60SM FEW/// FEW000 FEW040 SCT140 BKN180 BKN220 M16/M18 RMK TPS LWR FEW057 SUNDOGS PR HALO ARND SUN;
0267726130147552011010718004+44267-071300FM-15+1910KMWN V0201701N00721066001CN0001011N1-01601-01601999999ADDAA106000891AJ100189199999999GD13991+0001519GD23991+0660019GF107991999999999999999999KA1999M-01591KA2999N-02091MW1481REMMET120METAR KMWN 071756Z 17014KT 1/16SM FZFG BKN000 BKN220 M16/M16 RMK FZFG BKN000 VRY LGT ICG 60003 4/007 931004 11159 21209;EQDQ01  00088PRCP06
0071726130147552011010718597+44267-071299FM-15+1910KMWN V0301601N008710003019N0001011N1-01601-01601999999ADDAA101000025GD15991+0003019GF109991999999000251999999MW1491REMMET001-
0086726130147552011010719597+44267-071299FM-15+1910KMWN V0301401N00571066001CN0001011N1-01601-01601999999ADDAA101000025GD13991+0001519GD24991+0660019GF108991999999999999999999MW1481REMMET001-
0110726130147552011010720597+44267-071299FM-15+1910KMWN V0301701N006212200019N0804671N1-01601-01701999999ADDAA101000025GD11991+9999999GD21991+9999999GD31991+0120019GD41991+9999999GF102991999999999999999999REMMET001-
0181726130147552011010721544+44267-071300FM-15+1910KMWN V0201701N005112200019N0804671N1-01401-01601999999ADDGD12991+9999999GD21991+9999999GD31991+0045019GD41991+0420019REMMET109METAR KMWN 072154Z 17010KT 50SM SCT/// FEW/// FEW015 FEW140 FEW220 M14/M16 RMK TPS LWR SCT056 TPS LWR FEW058;
0181726130147552011010722504+44267-071300FM-15+1910KMWN V0201501N005719999999N1046071N1-01401-01701999999ADDGD13991+9999999GD21991+9999999GD31991+0045019GD41991+0420019REMMET109METAR KMWN 072250Z 15011KT 65SM BKN/// FEW/// FEW015 FEW140 FEW220 M14/M17 RMK TPS LWR BKN055 TPS LWR FEW058;
0301726130147552011010723504+44267-071300FM-15+1910KMWN V0201401N005719999999N1046071N1-01401-01601999999ADDAA106000021AJ100189199999999GD13991+9999999GD22991+9999999GD31991+0045019GD42991+0120019KA1999M-01371KA2999N-01671REMMET140METAR KMWN 072350Z 14011KT 65SM BKN/// SCT/// FEW015 SCT040 SCT220 M14/M16 RMK TPS LWR BKN048 TPS LWR SCT058 60000 4/007 931000 11137 21167;EQDQ01  00002PRCP06Q02  00008PRCP06
0207726130147552011010800524+44267-071300FM-15+1910KMWN V0201401N005719999999N1126541N1-01401-01701999999ADDGD13991+9999999GD21991+9999999GD31991+0045019GD42991+0105019GF107991999999999999999999REMMET109METAR KMWN 080052Z 14011KT 70SM BKN/// FEW/// FEW015 SCT035 BKN220 M14/M17 RMK TPS LWR BKN048 TPS LWR FEW059;
0207726130147552011010802004+44267-071300FM-15+1910KMWN V0201301N006719999999N1126541N1-01501-01601999999ADDGD13991+9999999GD21991+9999999GD31991+0045019GD42991+0105019GF107991999999999999999999REMMET109METAR KMWN 080156Z 13013KT 70SM BKN/// FEW/// FEW015 SCT035 BKN200 M15/M16 RMK TPS LWR BKN048 TPS LWR FEW059;
0192726130147552011010802544+44267-071300FM-15+1910KMWN V0201101N00571010501CN1126541N1-01501-01701999999ADDGD11991+0045019GD22991+0105019GD32991+0180019GD43991+9999999GF107991999999999999999999REMMET094METAR KMWN 080254Z 11011KT 70SM BKN/// FEW015 SCT035 SCT060 BKN200 M15/M17 RMK TPS LWR BKN050;
0236726130147552011010804004+44267-071300FM-15+1910KMWN V0201101N006219999999N1126541N1-01401-01701999999ADDGD13991+9999999GD22991+9999999GD31991+0030019GD42991+0105019GF108991999999999999999999REMMET138METAR KMWN 080357Z 11012KT 70SM BKN/// SCT/// FEW010 SCT035 BKN055 OVC200 M14/M17 RMK TPS LWR BKN055 BBLO SCT DSNT SW-NW SH DSNT W BINOVC;
0231726130147552011010804544+44267-071300FM-15+1910KMWN V0201201N008219999999N1126541N1-01401-01701999999ADDGD12991+9999999GD22991+9999999GD31991+0015019GD42991+0105019GF107991999999999999999999REMMET133METAR KMWN 080454Z 12016KT 70SM SCT/// SCT/// FEW005 SCT035 SCT055 BKN200 M14/M17 RMK TPS LWR SCT055 BBLO SCT DSNT S-NW SH DSNT SW-W;
0222726130147552011010804596+44267-071299SOD  +1910KMWN V030999999999999999999999999999+99999+99999999999ADDAA124000891AJ100189599999999AL12400195AN1024001095GJ102605GK10475KA1240M-01325KA2240N-02105OE11240111818011255OE23240063599999999REMSOD0623   14755110107025  S1125          0260047760008-0060003004007EQDR01  00036AAP092
0256726130147552011010805524+44267-071300FM-16+1910KMWN V0201301N006712200019N1126541N1-01301-01701999999ADDAJ100189199999999GD11991+0045019GD21991+0090019GD31991+9999999GF102991999999999999999999KA1999M-01351KA2999N-01501REMMET130METAR KMWN 080552Z 13013KT 70SM FEW/// FEW015 FEW030 WCT055 BKN080 BKN180 M13/M17 RMK TPS LWR FEW055 SH DSNT SW 4/007 11135 21150;
0210726130147552011010807004+44267-071300FM-15+1910KMWN V0201301N006710150019N1126541N1-01301-01801999999ADDGD11991+0030019GD22991+0090019GD33991+0150019GD41991+9999999GF107991999999999999999999REMMET112METAR KMWN 080656Z 13013KT 70SM FEW/// FEW010 SCT030 BKN055 BKN080 BKN180 M13/M18 RMK TPS LWR FEW055 SH DSNT SW;
0199726130147552011010808004+44267-071300FM-15+1910KMWN V0201201N006212200019N1287471N1-01401-01801999999ADDGD11991+0030019GD21991+0090019GD31991+0150019GD41991+9999999GF104991999999999999999999REMMET101METAR KMWN 080755Z 12012KT 80SM FEW/// FEW010 FEW030 FEW055 SCT080 SCT180 M14/M18 RMK TPS LWR FEW052;
0192726130147552011010809004+44267-071300FM-15+1910KMWN V0201401N006212200019N1528871N1-01301-01901999999ADDGD11991+0060019GD21991+0150019GD31991+0240019GD41991+9999999GF102991999999999999999999REMMET094METAR KMWN 080857Z 14012KT 95SM FEW/// FEW020 FEW055 FEW080 FEW180 M13/M19 RMK TPS LWR FEW047;
0192726130147552011010810004+44267-071300FM-15+1910KMWN V0201401N006712200019N1528871N1-01301-01901999999ADDGD11991+0060019GD22991+0150019GD32991+0240019GD41991+9999999GF104991999999999999999999REMMET094METAR KMWN 080956Z 14013KT 95SM FEW/// FEW020 SCT055 SCT080 SCT150 M13/M19 RMK TPS LWR FEW047;
0192726130147552011010811004+44267-071300FM-15+1910KMWN V0201201N006212200019N1528871N1-01301-01801999999ADDGD11991+0060019GD22991+0150019GD32991+0240019GD41991+9999999GF104991999999999999999999REMMET094METAR KMWN 081057Z 12012KT 95SM FEW/// FEW020 SCT050 SCT080 SCT150 M13/M18 RMK TPS LWR FEW047;
0289726130147552011010811544+44267-071300FM-15+1910KMWN V0201201N008710240019N1528871N1-01301-01801999999ADDAA124000891AJ100189199999999GD11991+0060019GD22991+0150019GD33991+0240019GD42991+9999999GF107991999999999999999999KA1999M-01301KA2999N-01441REMMET118METAR KMWN 081154Z 12017KT 95SM SCT/// FEW020 SCT055 BKN080 BKN150 M13/M18 RMK TPS LWR SCT047 70003 4/007 11130 21144;EQDQ01  00088PRCP24
0197726130147552011010813004+44267-071300FM-15+1910KMWN V0201201N008210240019N1528871N1-01301-01801999999ADDGD12991+0150019GD23991+0240019GD33991+0450019GD42991+9999999GF107991999999999999999999REMMET099METAR KMWN 081256Z 12016KT 95SM SCT/// SCT055 BKN080 BKN150 M13/M18 RMK TPS LWR SCT040 SH DSNT S-W;
0204726130147552011010813524+44267-071300FM-15+1910KMWN V0201301N00771015001CN1528871N1-01401-01901999999ADDGD13991+0150019GD23991+0240019GD34991+0450019GD43991+9999999GF108991999999999999999999REMMET106METAR KMWN 081352Z 13015KT 95SM BKN/// BKN050 BKN080 OVC150 M14/M19 RMK TPS LWR BKN053 SH DSNT S-W BINOVC;
0167726130147552011010815004+44267-071300FM-15+1910KMWN V0201401N00821006001CN1448401N1-01301-01701999999ADDGD14991+0060019GD23991+9999999GF108991999999999999999999REMMET099METAR KMWN 081455Z 14016KT 90SM BKN/// OVC020 M13/M17 RMK TPS LWR BKN048 SH DSNT S-NW VIS LWR S-NW;
0065726130147552011010815597+44267-071299FM-15+1910KMWN V0301501N005710024019N0020111N1-01301-01601999999ADDAA101000025GD14991+0024019GF108991999999999999999999REMMET001-
0065726130147552011010816597+44267-071299FM-15+1910KMWN V0301701N005110015019N0016091N1-01201-01401999999ADDAA101000025GD14991+0015019GF108991999999999999999999REMMET001-
0114726130147552011010817597+44267-071299FM-15+1910KMWN V0301701N005110001519N0001011N1-01301-01301999999ADDAA101000025AJ100189199999999GD15991+0001519GF109991999999000251999999KA1999M-01221KA2999N-01431MW1491REMMET001-
0095726130147552011010818597+44267-071299FM-15+1910KMWN V0301801N005110480019N0965601N1-01201-01401999999ADDAA101000025GD12991+0120019GD24991+0480019GD31991+9999999GF108991999999999999999999REMMET001-
0209726130147552011010820004+44267-071300FM-15+1910KMWN V0201501N004610120019N0965601N1-01201-01401999999ADDGD11991+0060019GD23991+0120019GD34991+0480019GD41991+9999999GF108991999999999999999999REMMET111METAR KMWN 081958Z 15009KT 60SM FEW/// FEW020 BKN040 OVC160 M12/M14 RMK SH DSNT N TPS LWR FEW057 SUN DMLY VSBL;
0260726130147552011010820524+44267-071300FM-15+1910KMWN V0201301N004610120019N0965601N1-01201-01401999999ADDGD11991+9999999GD21991+9999999GD32991+0060019GD43991+0120019GF108991999999999999999999REMMET143METAR KMWN 082052Z 13009KT 60SM FEW/// FEW/// SCT020 BKN040 OVC160 M12/M14 RMK SH DSNT W TPS LWR FEW030 TPS LWR FEW040 VIS LWR W SUN DMLY VSBL;EQDQ01 999993SCOCIG
0086726130147552011010821597+44267-071299FM-15+1910KMWN V0301501N00771001501CN0064371N1-01201-01301999999ADDAA101000025GD13991+0001519GD24991+0015019GF108991999999999999999999MW1101REMMET001-
0065726130147552011010822597+44267-071299FM-15+1910KMWN V0301301N001010015019N0241401N1-01201-01401999999ADDAA101000025GD14991+0015019GF108991999999999999999999REMMET001-
0108726130147552011010823597+44267-071299FM-15+1910KMWN V0300201N003610015019N0321861N1-01301-01401999999ADDAA101000025AJ100209199999999GD14991+0015019GF108991999999999999999999KA1999M-01201KA2999N-01321REMMET001-
0129726130147552011010900597+44267-071299FM-15+1910KMWN V0300301N004610030019N0482801N1-01301-01501999999ADDAA101000025GD13991+9999999GD23991+9999999GD32991+0015019GD43991+0030019GF108991999999999999999999REMMET001-EQDQ01 999993SCOCIG
0129726130147552011010901597+44267-071299FM-15+1910KMWN V0300201N007710045019N0965601N1-01301-01501999999ADDAA101000025GD13991+9999999GD23991+9999999GD31991+0015019GD43991+0045019GF107991999999999999999999REMMET001-EQDQ01 999993SCOCIG
0077726130147552011010902597+44267-071299FM-15+1910KMWN V0300301N006210003019N0000001N1-01401-01401999999ADDAA101000025GD15991+0003019GF109991999999000251999999MW1361MW2491REMMET001-
0083726130147552011010903597+44267-071299FM-15+1910KMWN V0300301N008210001519N0000001N1-01401-01401999999ADDAA101000025GD15991+0001519GF109991999999000251999999MW1361MW2491MW3711REMMET001-
0083726130147552011010904597+44267-071299FM-15+1910KMWN V0300201N007710001519N0000001N1-01301-01301999999ADDAA101000025GD15991+0001519GF109991999999000251999999MW1361MW2491MW3711REMMET001-
0203726130147552011010904596+44267-071299SOD  +1910KMWN V030999999999999999999999999999+99999+99999999999ADDAA124000025AJ100189599999999AL12400195AN1024001895GJ100405GK10075KA1240M-01215KA2240N-01435OE11240102836023555OE23240059999999999REMSOD0623   14755110108023  N2355          00400078700100006-   007007
0134726130147552011010905597+44267-071299FM-15+1910KMWN V0300101N009310003019N0001011N1-01301-01301999999ADDAA101000025AJ100209199999999GD15991+0003019GF109991999999000251999999KA1999M-01321KA2999N-01451MW1361MW2491MW3711OC101131REMMET001-
0085726130147552011010906597+44267-071299FM-15+1910KMWN V0300101N010810001519N0001011N1-01301-01301999999ADDAA101000395GD15991+0001519GF109991999999000251999999MW1361MW2491MW3711REMMET003001
0085726130147552011010907597+44267-071299FM-15+1910KMWN V0300101N014410001519N0000001N1-01401-01401999999ADDAA101000595GD15991+0001519GF109991999999000251999999MW1381MW2491MW3711REMMET003002
0085726130147552011010908597+44267-071299FM-15+1910KMWN V0303501N019510001519N0000001N1-01401-01401999999ADDAA101000025GD15991+0001519GF109991999999000251999999MW1381MW2491OC102161REMMET001-
0147726130147552011010909524+44267-071300FM-15+1910KMWN V0203201N022110001519N0000001N1-01501-01501999999ADDGD15991+0001519GF109991999999000251999999MW1381MW2491OC102421REMMET074METAR KMWN 090952Z 32043G47KT 0SM BLSN FZFG VV000 M15/M15 RMK VRY LGT ICG;
0147726130147552011010910544+44267-071300FM-15+1910KMWN V0203201N022110001519N0000001N1-01601-01601999999ADDGD15991+0001519GF109991999999000251999999MW1381MW2491OC102621REMMET074METAR KMWN 091054Z 32043G51KT 0SM BLSN FZFG VV000 M16/M16 RMK VRY LGT ICG;
0145726130147552011010911597+44267-071299FM-15+1910KMWN V0303201N024210001519N0000001N1-01501-01501999999ADDAA101000025AA224000891AJ100209199999999GD15991+0001519GF109991999999000251999999KA1999M-01291KA2999N-01581MW1381MW2491MW3711OC103041REMMET001-
0087726130147552011010912597+44267-071299FM-15+1910KMWN V0303001N025710001519N0000001N1-01601-01601999999ADDAA101000595GD15991+0001519GF109991999999000251999999MW1381MW2491OC102831REMMET003002
0147726130147552011010913504+44267-071300FM-15+1910KMWN V0203201N024710001519N0000001N1-01601-01601999999ADDGD15991+0001519GF109991999999000251999999MW1381MW2491OC103041REMMET074METAR KMWN 091350Z 32048G59KT 0SM BLSN FZFG VV000 M16/M16 RMK VRY LGT ICG;
0093726130147552011010914597+44267-071299FM-15+1910KMWN V0303201N026210001519N0000001N1-01601-01601999999ADDAA101000895GD15991+0001519GF109991999999000251999999MW1381MW2491MW3711OC103551REMMET003003
0087726130147552011010915597+44267-071299FM-15+1910KMWN V0303101N030910001519N0000001N1-01701-01701999999ADDAA101000595GD15991+0001519GF109991999999000251999999MW1381MW2491OC103341REMMET003002
0147726130147552011010916524+44267-071300FM-15+1910KMWN V0203001N030910001519N0000001N1-01601-01601999999ADDGD15991+0001519GF109991999999000251999999MW1381MW2491OC103451REMMET074METAR KMWN 091652Z 30060G67KT 0SM BLSN FZFG VV000 M16/M16 RMK VRY LGT ICG;
0233726130147552011010918004+44267-071300FM-15+1910KMWN V0203001N031410001519N0000001N1-01701-01701999999ADDAA106001891AJ100209199999999GD15991+0001519GF109991999999000251999999KA1999M-01501KA2999N-01681MW1381MW2491REMMET095METAR KMWN 091756Z 30061KT 0SM BLSN FZFG VV000 M17/M17 RMK VRY LGT ICG 60007 4/008 11150 21168;EQDQ01  00188PRCP06
0136726130147552011010918524+44267-071300FM-15+1910KMWN V0203001N032410001519N0000001N1-01601-01601999999ADDGD15991+0001519GF109991999999000251999999MW1381MW2491REMMET071METAR KMWN 091852Z 30063KT 0SM BLSN FZFG VV000 M16/M16 RMK VRY LGT ICG;
0147726130147552011010919514+44267-071300FM-15+1910KMWN V0203001N034510001519N0000001N1-01701-01701999999ADDGD15991+0001519GF109991999999000251999999MW1381MW2491OC103761REMMET074METAR KMWN 091951Z 30067G73KT 0SM BLSN FZFG VV000 M17/M17 RMK VRY LGT ICG;
0151726130147552011010920524+44267-071300FM-15+1910KMWN V0203001N033410001519N0000001N1-01701-01701999999ADDGD15991+0001519GF109991999999000251999999MW1381MW2491OC103601REMMET078METAR KMWN 092052Z COR 30065G70KT 0SM BLSN FZFG VV000 M17/M17 RMK VRY LGT ICG;
0147726130147552011010922004+44267-071300FM-15+1910KMWN V0203001N032910001519N0000001N1-01801-01801999999ADDGD15991+0001519GF109991999999000251999999MW1381MW2491OC103551REMMET074METAR KMWN 092157Z 30064G69KT 0SM BLSN FZFG VV000 M18/M18 RMK VRY LGT ICG;
0136726130147552011010922514+44267-071300FM-15+1910KMWN V0203001N034010001519N0000001N1-01801-01801999999ADDGD15991+0001519GF109991999999000251999999MW1381MW2491REMMET071METAR KMWN 092251Z 30066KT 0SM BLSN FZFG VV000 M18/M18 RMK VRY LGT ICG;
0197726130147552011010923494+44267-071300FM-15+1910KMWN V0202901N033410001519N0000001N1-01901-01901999999ADDAJ100209199999999GD15991+0001519GF109991999999000251999999KA1999M-01631KA2999N-01891MW1381MW2491REMMET089METAR KMWN 092349Z 29065KT 0SM BLSN FZFG VV000 M19/M19 RMK VRY LGT ICG 4/008 11163 21189;
0147726130147552011011000494+44267-071300FM-15+1910KMWN V0202901N030410001519N0000001N1-02001-02001999999ADDGD15991+0001519GF109991999999000251999999MW1381MW2491OC103401REMMET074METAR KMWN 100049Z 29059G66KT 0SM BLSN FZFG VV000 M20/M20 RMK VRY LGT ICG;
0147726130147552011011001514+44267-071300FM-15+1910KMWN V0202901N034510001519N0000001N1-02001-02001999999ADDGD15991+0001519GF109991999999000251999999MW1381MW2491OC103761REMMET074METAR KMWN 100151Z 29067G73KT 0SM BLSN FZFG VV000 M20/M20 RMK VRY LGT ICG;
0150726130147552011011002504+44267-071300FM-15+1910KMWN V0202901N028310001519N0001011N1-02101-02101999999ADDGD15991+0001519GF109991999999000251999999MW1381MW2491OC103241REMMET077METAR KMWN 100250Z 29055G63KT 1/16SM BLSN FZFG VV000 M21/M21 RMK VRY LGT ICG;
0136726130147552011011003524+44267-071300FM-15+1910KMWN V0203001N030910001519N0000001N1-02101-02101999999ADDGD15991+0001519GF109991999999000251999999MW1381MW2491REMMET071METAR KMWN 100352Z 30060KT 0SM BLSN FZFG VV000 M21/M21 RMK VRY LGT ICG;
0136726130147552011011004534+44267-071300FM-15+1910KMWN V0203001N029310001519N0000001N1-02201-02201999999ADDGD15991+0001519GF109991999999000251999999MW1381MW2491REMMET071METAR KMWN 100453Z 30057KT 0SM BLSN FZFG VV000 M22/M22 RMK VRY LGT ICG;
0222726130147552011011004596+44267-071299SOD  +1910KMWN V030999999999999999999999999999+99999+99999999999ADDAA124002591AJ100209599999999AL12400295AN1024002395GJ100005GK10005KA1240M-01275KA2240N-02165OE11240402327020315OE23240262499999999REMSOD0623   14755110109090  W2031          0000000880009-0070010009008EQDR01  00106AAP092
0186726130147552011011005514+44267-071300FM-15+1910KMWN V0203001N026210001519N0000001N1-02201-02201999999ADDAJ100209199999999GD15991+0001519GF109991999999000251999999KA1999M-01861KA2999N-02191MW1491REMMET084METAR KMWN 100551Z 30051KT 0SM FZFG VV000 M22/M22 RMK VRY LGT ICG 4/008 11186 21219;
0136726130147552011011006544+44267-071300FM-15+1910KMWN V0203001N024710001519N0000001N1-02201-02201999999ADDGD15991+0001519GF109991999999000251999999MW1491OC102831REMMET069METAR KMWN 100654Z 30048G55KT 0SM FZFG VV000 M22/M22 RMK VRY LGT ICG;
0136726130147552011011008004+44267-071300FM-15+1910KMWN V0203001N023710001519N0000001N1-02201-02201999999ADDGD15991+0001519GF109991999999000251999999MW1491OC102681REMMET069METAR KMWN 100757Z 30046G52KT 0SM FZFG VV000 M22/M22 RMK VRY LGT ICG;
0087726130147552011011008597+44267-071299FM-15+1910KMWN V0303001N021610001519N0000001N1-02201-02201999999ADDAA101000595GD15991+0001519GF109991999999000251999999MW1381MW2491OC102571REMMET003002
0087726130147552011011009597+44267-071299FM-15+1910KMWN V0303201N025210003019N0001011N1-01801-01801999999ADDAA101000895GD15991+0003019GF109991999999000251999999MW1381MW2491OC102831REMMET003003
0079726130147552011011010597+44267-071299FM-15+1910KMWN V0303201N027310001519N0000001N1-01601-01601999999ADDAA101000595GD15991+0001519GF109991999999000251999999MW1381MW2491REMMET003002
0139726130147552011011011597+44267-071299FM-15+1910KMWN V0303201N026210003019N0001011N1-01601-01601999999ADDAA101000025AA224003691AJ100209199999999GD15991+0003019GF109991999999000251999999KA1999M-01471KA2999N-02221MW1381MW2491OC103041REMMET001-
0150726130147552011011013004+44267-071300FM-15+1910KMWN V0203301N024710003019N0001011N1-01301-01301999999ADDGD15991+0003019GF109991999999000251999999MW1381MW2491OC102931REMMET077METAR KMWN 101257Z 33048G57KT 1/16SM BLSN FZFG VV001 M13/M13 RMK VRY LGT ICG;
0150726130147552011011013544+44267-071300FM-15+1910KMWN V0203301N024210003019N0001011N1-01301-01301999999ADDGD15991+0003019GF109991999999000251999999MW1381MW2491OC102881REMMET077METAR KMWN 101354Z 33047G56KT 1/16SM BLSN FZFG VV001 M13/M13 RMK VRY LGT ICG;
0164726130147552011011014544+44267-071300FM-15+1910KMWN V0203201N023110006019N0001011N1-01301-01301999999ADDGD15991+0006019GF109991999999000251999999MW1381MW2491OC102831REMMET091METAR KMWN 101454Z 32045G55KT 1/16SM BLSN FZFG VV002 M13/M13 RMK VRY LGT ICG SUN DMLY VSBL;
0164726130147552011011016004+44267-071300FM-15+1910KMWN V0203201N023110006019N0001011N1-01301-01301999999ADDGD15991+0006019GF109991999999000251999999MW1381MW2491OC102681REMMET091METAR KMWN 101557Z 32045G52KT 1/16SM BLSN FZFG VV002 M13/M13 RMK VRY LGT ICG SUN DMLY VSBL;
0162726130147552011011016494+44267-071300FM-15+1910KMWN V0203201N01851000151CN0002011N1-01101-01101999999ADDGD13991+0001519GF107991999999999999999999MW1381MW2481OC102111REMMET089METAR KMWN 101649Z 32036G41KT 1/8SM BLSN FZFG BKN000 M11/M11 RMK FZFG BKN000 VRY LGT ICG;
0223726130147552011011017484+44267-071300FM-15+1910KMWN V0203301N02111000151CN0002011N1-01001-01001999999ADDAJ100209199999999GD13991+0001519GF107991999999999999999999KA1999M-01021KA2999N-01601MW1381MW2481OC102621REMMET107METAR KMWN 101748Z 33041G51KT 1/8SM BLSN FZFG BKN000 M10/M10 RMK FZFG BKN000 VRY LGT ICG 4/008 11102 21160;
0188726130147552011011018524+44267-071300FM-15+1910KMWN V0203501N01901000151CN0002011N1-00801-00901999999ADDGD13991+0001519GD23991+9999999GF107991999999999999999999MW1411OC102161REMMET106METAR KMWN 101852Z 35037G42KT 1/8SM PRFG BKN/// BKN000 M08/M09 RMK VIS W-N 120 PRFG BKN000 TPS LWR BKN052;
0199726130147552011011020004+44267-071300FM-15+1910KMWN V0203301N02061000151CN0002011N1-01001-01001999999ADDGD13991+0001519GD23991+9999999GF107991999999999999999999MW1411OC102421REMMET117METAR KMWN 101958Z 33040G47KT 1/8SM PRFG BKN/// BKN000 M10/M10 RMK VIS SW-N 120 PRFG BKN000 TPS LWR BKN052 T10961104;
0135726130147552011011020534+44267-071300FM-16+1910KMWN V0203301N02781999999CN1600001N1-00901-01201999999ADDGD13991+9999999GF107991999999999999999999MW1381REMMET076METAR KMWN 102053Z 33054KT 120SM BLSN BKN/// SKC M09/M12 RMK TPS LWR BKN050;
0135726130147552011011022004+44267-071300FM-15+1910KMWN V0203201N02781999999CN1600001N1-01001-01201999999ADDGD13991+9999999GF107991999999999999999999MW1381REMMET076METAR KMWN 102159Z 32054KT 120SM BLSN BKN/// SKC M10/M12 RMK TPS LWR BKN050;
0146726130147552011011022534+44267-071300FM-16+1910KMWN V0203201N02261999999CN1600001N1-01101-01401999999ADDGD13991+9999999GF107991999999999999999999MW1381OC102931REMMET079METAR KMWN 102253Z 32044G57KT 120SM BLSN BKN/// SKC M11/M14 RMK TPS LWR BKN050;
0207726130147552011011023514+44267-071300FM-16+1910KMWN V0203101N02421999999CN1600001N1-01101-01401999999ADDAJ100209199999999GD13991+9999999GF107991999999999999999999KA1999M-00851KA2999N-01171MW1381OC103041REMMET097METAR KMWN 102351Z 31047G59KT 120SM BLSN BKN/// SKC M11/M14 RMK TPS LWR BKN050 4/008 11085 21117;
0146726130147552011011101004+44267-071300FM-15+1910KMWN V0203201N02521999999CN1600001N1-01101-01701999999ADDGD13991+9999999GF107991999999999999999999MW1381OC102881REMMET079METAR KMWN 110058Z 32049G56KT 120SM BLSN BKN/// SKC M11/M17 RMK TPS LWR BKN053;
0135726130147552011011101524+44267-071300FM-16+1910KMWN V0203301N01951999999CN1600001N1-01001-02801999999ADDGD13991+9999999GF107991999999999999999999OC102311REMMET074METAR KMWN 110152Z 33038G45KT 120SM BKN/// SKC M10/M28 RMK TPS LWR BKN051;
0124726130147552011011103004+44267-071300FM-15+1910KMWN V0203301N02011999999CN1600001N1-00901-02901999999ADDGD13991+9999999GF107991999999999999999999REMMET071METAR KMWN 110255Z 33039KT 120SM BKN/// SKC M09/M29 RMK TPS LWR BKN048;
0135726130147552011011103534+44267-071300FM-16+1910KMWN V0203301N01651999999CN1600001N1-00801-03001999999ADDGD13991+9999999GF107991999999999999999999OC101951REMMET074METAR KMWN 110353Z 33032G38KT 120SM BKN/// SKC M08/M30 RMK TPS LWR BKN045;
0222726130147552011011104596+44267-071299SOD  +1910KMWN V030999999999999999999999999999+99999+99999999999ADDAA124001891AJ100209599999999AL12400195AN1024001595GJ101675GK10305KA1240M-00715KA2240N-02215OE11240344232017335OE23240224999999999REMSOD0623   14755110110077 NW1733          0167030650019-0080007006008EQDR01  00076AAP092
0135726130147552011011105004+44267-071300FM-15+1910KMWN V0203301N010819999999N1600001N1-00801-02701999999ADDGD11991+0660019GD23991+9999999REMMET074METAR KMWN 110456Z 33021KT 120SM BKN/// FEW220 M08/M27 RMK TPS LWR BKN045;EQDQ01+000022SCOTCV
0196726130147552011011105544+44267-071300FM-15+1910KMWN V0203301N008719999999N1600001N1-00701-03101999999ADDAJ100209199999999GD11991+0660019GD23991+9999999KA1999M-00731KA2999N-01141REMMET092METAR KMWN 110554Z 33017KT 120SM BKN/// FEW220 M07/M31 RMK TPS LWR BKN045 4/008 11073 21114;EQDQ01+000022SCOTCV
0135726130147552011011106524+44267-071300FM-15+1910KMWN V0203101N012912200019N1600001N1-00601-02401999999ADDGD11991+0660019GD22991+9999999REMMET074METAR KMWN 110652Z 31025KT 120SM SCT/// FEW220 M06/M24 RMK TPS LWR SCT045;EQDQ01+000022SCOTCV
0135726130147552011011107544+44267-071300FM-15+1910KMWN V0203101N012312200019N1600001N1-00701-02601999999ADDGD11991+0660019GD22991+9999999REMMET074METAR KMWN 110754Z 31024KT 120SM SCT/// FEW220 M07/M26 RMK TPS LWR SCT045;EQDQ01+000022SCOTCV
0157726130147552011011109004+44267-071300FM-15+1910KMWN V0203101N013412200019N1600001N1-00701-02901999999ADDGD11991+0360019GD21991+0660019GD32991+9999999REMMET081METAR KMWN 110855Z 31026KT 120SM SCT/// FEW120 FEW220 M07/M29 RMK TPS LWR SCT045;EQDQ01+000022SCOTCV
0157726130147552011011109524+44267-071300FM-15+1910KMWN V0203101N013412200019N1600001N1-00701-03301999999ADDGD11991+0360019GD21991+0660019GD32991+9999999REMMET081METAR KMWN 110952Z 31026KT 120SM SCT/// FEW120 FEW220 M07/M33 RMK TPS LWR SCT045;EQDQ01+000022SCOTCV
0157726130147552011011110544+44267-071300FM-15+1910KMWN V0203301N007712200019N1600001N1-00801-03201999999ADDGD11991+0360019GD21991+0660019GD32991+9999999REMMET081METAR KMWN 111054Z 33015KT 120SM SCT/// FEW120 FEW220 M08/M32 RMK TPS LWR SCT045;EQDQ01+000022SCOTCV
0218726130147552011011112004+44267-071300FM-15+1910KMWN V0203301N005112200019N1600001N1-00701-03301999999ADDAJ100209199999999GD11991+0360019GD21991+0660019GD32991+9999999KA1999M-00651KA2999N-00891REMMET099METAR KMWN 111155Z 33010KT 120SM SCT/// FEW120 FEW220 M07/M33 RMK TPS LWR SCT045 4/008 11065 21089;EQDQ01+000022SCOTCV
0164726130147552011011113004+44267-071300FM-15+1910KMWN V0200301N002612200019N1600001N1-00701-03701999999ADDGD11991+0360019GD21991+0660019GD31991+9999999GF102991999999999999999999REMMET081METAR KMWN 111255Z 03005KT 120SM FEW/// FEW120 FEW220 M07/M37 RMK TPS LWR FEW040;
0164726130147552011011113504+44267-071300FM-15+1910KMWN V0200701N002612200019N1600001N1-00701-02801999999ADDGD11991+0360019GD21991+0660019GD31991+9999999GF102991999999999999999999REMMET081METAR KMWN 111350Z 07005KT 120SM FEW/// FEW120 FEW220 M07/M28 RMK TPS LWR FEW035;
0164726130147552011011114524+44267-071300FM-15+1910KMWN V0201001N002612200019N1600001N1-00601-02701999999ADDGD11991+0360019GD21991+0660019GD31991+9999999GF102991999999999999999999REMMET081METAR KMWN 111452Z 10005KT 120SM FEW/// FEW120 FEW220 M06/M27 RMK TPS LWR FEW035;
0186726130147552011011115524+44267-071300FM-15+1910KMWN V0201201N002612200019N1600001N1-00701-02801999999ADDGD11991+0360019GD21991+0540019GD31991+0660019GD41991+9999999GF102991999999999999999999REMMET088METAR KMWN 111552Z 12005KT 120SM FEW/// FEW120 FEW180 FEW220 M07/M28 RMK TPS LWR FEW033;
0186726130147552011011117004+44267-071300FM-15+1910KMWN V0201501N003612200019N1600001N1-00701-02901999999ADDGD11991+0360019GD21991+0540019GD31991+0660019GD41991+9999999GF102991999999999999999999REMMET088METAR KMWN 111655Z 15007KT 120SM FEW/// FEW120 FEW180 FEW220 M07/M29 RMK TPS LWR FEW033;
0247726130147552011011117544+44267-071300FM-15+1910KMWN V0201801N005112200019N1600001N1-00701-02501999999ADDAJ100209199999999GD11991+0360019GD21991+0540019GD32991+0660019GD41991+9999999GF104991999999999999999999KA1999M-00551KA2999N-00911REMMET106METAR KMWN 111754Z 18010KT 120SM FEW/// FEW120 FEW180 SCT220 M07/M25 RMK TPS LWR FEW033 4/008 11055 21091;
0194726130147552011011119004+44267-071300FM-15+1910KMWN V0202301N004610660019N1600001N1-00701-02401999999ADDGD11991+0360019GD22991+0540019GD33991+0660019GD41991+9999999GF107991999999999999999999REMMET096METAR KMWN 111855Z 23009KT 120SM FEW/// FEW120 SCT180 BKN220 M07/M24 RMK TPS LWR FEW033 SUNDOGS;
0194726130147552011011120004+44267-071300FM-15+1910KMWN V0202401N004110660019N1600001N1-00701-02301999999ADDGD11991+0360019GD22991+0540019GD33991+0660019GD41991+9999999GF107991999999999999999999REMMET096METAR KMWN 111957Z 24008KT 120SM FEW/// FEW120 SCT180 BKN220 M07/M23 RMK TPS LWR FEW033 SUNDOGS;
0201726130147552011011120534+44267-071300FM-15+1910KMWN V0202201N003612200019N1600001N1-00701-02601999999ADDGD11991+0270019GD21991+0360019GD32991+0540019GD41991+9999999GF107991999999999999999999REMMET103METAR KMWN 112053Z 22007KT 120SM FEW/// FEW090 FEW120 SCT180 BKN220 M07/M26 RMK TPS LWR FEW033 SUNDOGS;
0171726130147552011011121524+44267-071300FM-15+1910KMWN V0202101N004610660019N1600001N1-00701-02601999999ADDGD11991+0270019GD22991+0330019GD32991+0540019GD43991+0660019GF107991999999999999999999REMMET073METAR KMWN 112152Z 21009KT 120SM FEW090 SCT110 SCT180 BKN220 M07/M26 RMK;
0171726130147552011011123004+44267-071300FM-15+1910KMWN V0202001N004610660019N1600001N1-00701-02401999999ADDGD11991+0270019GD22991+0330019GD32991+0540019GD43991+0660019GF107991999999999999999999REMMET073METAR KMWN 112257Z 20009KT 120SM FEW090 SCT110 SCT180 BKN220 M07/M24 RMK;
0239726130147552011011123514+44267-071300FM-15+1910KMWN V0202001N005712200019N1600001N1-00801-02601999999ADDAJ100209199999999GD11991+0090019GD21991+0300019GD32991+0450019GD42991+0540019GF104991999999999999999999KA1999M-00671KA2999N-00851REMMET098METAR KMWN 112351Z 20011KT 120SM FEW030 FEW100 SCT150 SCT180 SCT220 M08/M26 RMK 4/008 11067 21085;
0195726130147552011011201004+44267-071300FM-15+1910KMWN V0201901N006210300019N1600001N1-00901-02501999999ADDGD11991+0090019GD23991+0300019GD33991+0450019GD44991+0540019GF108991999999999999999999REMMET097METAR KMWN 120056Z 19012KT 120SM FEW030 BKN100 BKN150 OVC180 M09/M25 RMK CORONA ARND MOON BINOVC;
0195726130147552011011201544+44267-071300FM-15+1910KMWN V0201801N005710240019N1600001N1-00801-02401999999ADDGD11991+0090019GD23991+0240019GD33991+0360019GD44991+0540019GF108991999999999999999999REMMET097METAR KMWN 120154Z 18011KT 120SM FEW030 BKN085 BKN120 OVC180 M08/M24 RMK CORONA ARND MOON BINOVC;
0193726130147552011011203004+44267-071300FM-15+1910KMWN V0201601N006710240019N1600001N1-01001-02601999999ADDGD11991+0045019GD22991+0150019GD33991+0240019GD44991+0300019GF108991999999999999999999REMMET095METAR KMWN 120255Z 16013KT 120SM FEW015 SCT050 BKN085 OVC100 M10/M26 RMK MOON DMLY VSBL BINOVC;
0149726130147552011011204004+44267-071300FM-15+1910KMWN V0201701N006210150019N1600001N1-01001-02401999999ADDGD11991+0045019GD23991+0150019GD34991+0240019GF108991999999999999999999REMMET066METAR KMWN 120355Z 17012KT 120SM FEW015 BKN050 OVC085 M10/M24 RMK;
0222726130147552011011204596+44267-071299SOD  +1910KMWN V030999999999999999999999999999+99999+99999999999ADDAA124000091AJ100209599999999AL12400095AN1024000095GJ105275GK10945KA1240M-00555KA2240N-01105OE11240156532004255OE23240064899999999REMSOD0623   14755110111035 NW0425          052709434002200120000000008EQDR01  00006AAP092
0162726130147552011011205004+44267-071300FM-15+1910KMWN V0201901N006210135019N1600001N1-01001-02301999999ADDGD11991+0045019GD22991+0090019GD34991+0135019GF108991999999999999999999REMMET079METAR KMWN 120456Z 19012KT 120SM FEW015 SCT030 OVC045 M10/M23 RMK VIRGA DSNT W;
0278726130147552011011205504+44267-071300FM-15+1910KMWN V0201501N004110090019N1600001N1-00901-01801999999ADDAJ100209199999999GD11991+0030019GD23991+0090019GD33991+0240019GD41991+9999999GF107991999999999999999999KA1999M-00851KA2999N-01091REMMET137METAR KMWN 120550Z 15008KT 120SM FEW/// FEW010 BKN030 BKN080 BKN150 M09/M18 RMK VIRGA DSNT SW SH DSNT S TPS LWR FEW030 4/008 11085 21109;
0234726130147552011011207004+44267-071300FM-15+1910KMWN V0201101N004610090019N1600001N1-00801-01901999999ADDGD11991+0030019GD23991+0090019GD33991+0240019GD42991+9999999GF108991999999999999999999REMMET136METAR KMWN 120657Z 11009KT 120SM SCT/// FEW010 BKN030 BKN080 OVC150 M08/M19 RMK VIRGA DSNT SW SH DSNT SE-S TPS LWR SCT030 VIS LWR SE-SW;
0272726130147552011011208004+44267-071300FM-15+1910KMWN V0201101N008719999999N1600001N1-01101-01401999999ADDGD13991+9999999GD23991+9999999GD32991+0030019GD41991+9999999GF108991999999999999999999REMMET174METAR KMWN 120755Z 11017KT 120SM BKN/// BKN/// FEW/// SCT010 OVC030 M11/M14 RMK VIRGA DSNT SW-NE SH DSNT SE-SW TPS LWR BKN030 TPS LWR BKN050 BBLO FEW DSNT SE-S VIS LWR SE-SW;
0295726130147552011011209004+44267-071300FM-15+1910KMWN V0201101N012310015019N1287471N1-01201-01701999999ADDGD13991+9999999GD23991+9999999GD33991+0015019GD42991+9999999GF108991999999999999999999REMMET178METAR KMWN 120856Z 11024KT 80SM BKN/// BKN/// SCT/// BKN005 BKN010 OVC030 M12/M17 RMK VIRGA OHD AND ALQDS SH DSNT SE-W TPS LWR BKN030 TPS LWR BKN055 BBLO SCT SE-SW VIS LWR SE-SW;EQDQ01 999993SCOCIG
0273726130147552011011210004+44267-071300FM-15+1910KMWN V0200901N017510015099N0643731N1-01201-01501999999ADDGD13991+9999999GD23991+9999999GD33991+0015019GD43991+9999999GF108991999999999999999999REMMET156METAR KMWN 120956Z 09034KT 40SM BKN/// BKN/// BKN/// BKN005 OVC015 M12/M15 RMK VIRGA OHD AND ALQDS SH DSNT SE-W TPS LWR BKN030 TPS LWR BKN055 BBLO BKN SE-N;EQDQ01 999993SCOCIG
0143726130147552011011210597+44267-071299FM-15+1910KMWN V0300701N020610015019N0643731N1-01401-01901999999ADDAA101000025GD13991+9999999GD23991+9999999GD33991+0015019GD43991+0045019GF107991999999999999999999MW1711OC102421REMMET001-EQDQ01 999993SCOCIG
0147726130147552011011211597+44267-071299FM-15+1910KMWN V0300701N020610006019N0002011N1-01401-01401999999ADDAA101000895AA224000891AJ100209199999999GD15991+0006019GF109991999999000251999999KA1999M-00811KA2999N-01501MW1381MW2491MW3711OC102681REMMET003003
0093726130147552011011212597+44267-071299FM-15+1910KMWN V0300701N027310006019N0001011N1-01601-01601999999ADDAA101000395GD15991+0006019GF109991999999000251999999MW1381MW2711MW3771OC102981REMMET003001
0093726130147552011011213597+44267-071299FM-15+1910KMWN V0300801N027310006019N0001011N1-01401-01401999999ADDAA101000595GD15991+0006019GF109991999999000251999999MW1381MW2491MW3711OC103341REMMET003002
0093726130147552011011214597+44267-071299FM-15+1910KMWN V0300801N031410003019N0001011N1-01401-01401999999ADDAA101000895GD15991+0003019GF109991999999000251999999MW1381MW2491MW3731OC103451REMMET003003
0093726130147552011011215597+44267-071299FM-15+1910KMWN V0300701N029310003019N0000001N1-01401-01401999999ADDAA101001095GD15991+0003019GF109991999999000251999999MW1381MW2491MW3731OC103241REMMET003004
0093726130147552011011216597+44267-071299FM-15+1910KMWN V0300501N029310003019N0001011N1-01401-01401999999ADDAA101001595GD15991+0003019GF109991999999000251999999MW1381MW2491MW3731OC103341REMMET003006
0136726130147552011011217597+44267-071299FM-15+1910KMWN V0300501N027810012019N0002011N1-01401-01401999999ADDAA101001095AJ100209199999999GD15991+0012019GF109991999999000251999999KA1999M-01331KA2999N-01561MW1381MW2491MW3711OC102981REMMET003004
0093726130147552011011218597+44267-071299FM-15+1910KMWN V0300401N023110009019N0002011N1-01401-01401999999ADDAA101001395GD15991+0009019GF109991999999000251999999MW1381MW2491MW3731OC102621REMMET003005
0093726130147552011011219597+44267-071299FM-15+1910KMWN V0300301N022110009019N0001011N1-01401-01401999999ADDAA101001395GD15991+0009019GF109991999999000251999999MW1381MW2491MW3731OC102521REMMET003005
0160726130147552011011220484+44267-071300FM-15+1910KMWN V0200301N022610006019N0001011N1-01401-01401999999ADDGD15991+0006019GF109991999999000251999999MW1381MW2491MW3711OC102471REMMET081METAR KMWN 122048Z 03044G48KT 1/16SM -SN BLSN FZFG VV002 M14/M14 RMK VRY LGT ICG;
0026726130147552011011220598+44267-071299FM-15+1910KMWN V03099999999999999999N999999999+99999+99999999999ADDAA101001095REMMET003004
0159726130147552011011221494+44267-071300FM-15+1910KMWN V0200201N024710006019N0001011N1-01501-01501999999ADDGD15991+0006019GF109991999999000251999999MW1381MW2491MW3731OC102681REMMET080METAR KMWN 122149Z 02048G52KT 1/16SM SN BLSN FZFG VV002 M15/M15 RMK VRY LGT ICG;
0026726130147552011011221598+44267-071299FM-15+1910KMWN V03099999999999999999N999999999+99999+99999999999ADDAA101000895REMMET003003
0093726130147552011011222597+44267-071299FM-15+1910KMWN V0300201N024210006019N0001011N1-01501-01501999999ADDAA101000395GD15991+0006019GF109991999999000251999999MW1381MW2491MW3711OC102831REMMET003001
0264726130147552011011223474+44267-071300FM-15+1910KMWN V0200101N022610006019N0001011N1-01501-01501999999ADDAA106005191AJ100239199999999GD15991+0006019GF109991999999000251999999KA1999M-01331KA2999N-01491MW1381MW2491MW3711OC102781REMMET112METAR KMWN 122347Z 01044G54KT 1/16SM -SN BLSN FZFG VV002 M15/M15 RMK VRY LGT ICG 60020 4/009 931037 11133 21149;EQDQ01  00518PRCP06
0026726130147552011011223598+44267-071299FM-15+1910KMWN V03099999999999999999N999999999+99999+99999999999ADDAA101000595REMMET003002
0160726130147552011011300494+44267-071300FM-15+1910KMWN V0200101N018510006019N0001011N1-01501-01501999999ADDGD15991+0006019GF109991999999000251999999MW1381MW2491MW3711OC102621REMMET081METAR KMWN 130049Z 01036G51KT 1/16SM -SN BLSN FZFG VV002 M15/M15 RMK VRY LGT ICG;
0024726130147552011011300598+44267-071299FM-15+1910KMWN V03099999999999999999N999999999+99999+99999999999ADDAA101000025REMMET001-
0093726130147552011011301597+44267-071299FM-15+1910KMWN V0300101N018010009019N0001011N1-01501-01501999999ADDAA101000395GD15991+0009019GF109991999999000251999999MW1381MW2491MW3711OC102261REMMET003001
0091726130147552011011302597+44267-071299FM-15+1910KMWN V0300101N016510009019N0001011N1-01501-01501999999ADDAA101000025GD15991+0009019GF109991999999000251999999MW1381MW2491MW3711OC102781REMMET001-
0093726130147552011011303597+44267-071299FM-15+1910KMWN V0300101N020110006019N0001011N1-01501-01501999999ADDAA101000395GD15991+0006019GF109991999999000251999999MW1381MW2491MW3711OC102421REMMET003001
0093726130147552011011304597+44267-071299FM-15+1910KMWN V0303501N018510006019N0001011N1-01501-01501999999ADDAA101000595GD15991+0006019GF109991999999000251999999MW1381MW2491MW3711OC102261REMMET003002
0222726130147552011011304596+44267-071299SOD  +1910KMWN V030999999999999999999999999999+99999+99999999999ADDAA124011991AJ100209599999999AL12402295AN1024022495GJ100005GK10005KA1240M-00825KA2240N-01605OE11240366609010165OE23240204399999999REMSOD0623   14755110112082  E1016          000000088001700030047088008EQDR01  00476AAP092
0136726130147552011011305597+44267-071299FM-15+1910KMWN V0303501N015410006019N0001011N1-01601-01601999999ADDAA101000595AJ100259199999999GD15991+0006019GF109991999999000251999999KA1999M-01411KA2999N-01591MW1381MW2491MW3711OC101801REMMET003002
0093726130147552011011306597+44267-071299FM-15+1910KMWN V0303401N019010003019N0001011N1-01601-01601999999ADDAA101000895GD15991+0003019GF109991999999000251999999MW1381MW2491MW3711OC102261REMMET003003
0093726130147552011011307597+44267-071299FM-15+1910KMWN V0303301N020610003019N0001011N1-01601-01601999999ADDAA101000595GD15991+0003019GF109991999999000251999999MW1381MW2491MW3711OC102311REMMET003002
0087726130147552011011308597+44267-071299FM-15+1910KMWN V0303101N022110003019N0000001N1-01701-01701999999ADDAA101000595GD15991+0003019GF109991999999000251999999MW1381MW2491OC102681REMMET003002
0079726130147552011011309597+44267-071299FM-15+1910KMWN V0303001N018510001519N0001011N1-01801-01801999999ADDAA101000595GD15991+0001519GF109991999999000251999999MW1381MW2491REMMET003002
0077726130147552011011310597+44267-071299FM-15+1910KMWN V0303001N024210001519N0001011N1-01901-01901999999ADDAA101000025GD15991+0001519GF109991999999000251999999MW1381MW2491REMMET001-
0139726130147552011011311597+44267-071299FM-15+1910KMWN V0303201N026210001519N0001011N1-01801-01801999999ADDAA101000025AA224014091AJ100259199999999GD15991+0001519GF109991999999000251999999KA1999M-01501KA2999N-01891MW1381MW2491OC103551REMMET001-
0150726130147552011011313004+44267-071300FM-15+1910KMWN V0203001N025710003019N0001011N1-01901-01901999999ADDGD15991+0003019GF109991999999000251999999MW1381MW2491OC102881REMMET077METAR KMWN 131256Z 30050G56KT 1/16SM BLSN FZFG VV001 M19/M19 RMK VRY LGT ICG;
0152726130147552011011313534+44267-071300FM-15+1910KMWN V0203101N02781000151CN0001011N1-01801-01801999999ADDGD13991+0001519GF107991999999999999999999MW1381MW2481REMMET087METAR KMWN 131353Z 31054KT 1/16SM BLSN FZFG BKN000 M18/M18 RMK FZFG BKN000 VRY LGT ICG;
0153726130147552011011315004+44267-071300FM-15+1910KMWN V0203101N023710003019N0001011N1-01901-01901999999ADDGD15991+0003019GF109991999999000251999999MW1381MW2491REMMET088METAR KMWN 131455Z 31046KT 1/16SM BLSN FZFG VV001 M19/M19 RMK VRY LGT ICG SUN DMLY VSBL;
0164726130147552011011316004+44267-071300FM-15+1910KMWN V0203101N010310001519N0001011N1-01801-01801999999ADDGD15991+0001519GF109991999999000251999999MW1381MW2491OC101951REMMET091METAR KMWN 131557Z 31020G38KT 1/16SM BLSN FZFG VV000 M18/M18 RMK VRY LGT ICG SUN DMLY VSBL;
0184726130147552011011316504+44267-071300FM-15+1910KMWN V0203301N01491033001CN0002011N1-01801-01801999999ADDGD13991+0001519GD23991+0330019GF107991999999999999999999MW1381MW2481OC101751REMMET096METAR KMWN 131650Z 33029G34KT 1/8SM BLSN FZFG BKN000 BKN110 M18/M18 RMK FZFG BKN000 VRY LGT ICG;
0213726130147552011011317514+44267-071300FM-15+1910KMWN V0203401N01181000151CN0003021N1-01501-01501999999ADDAJ100259199999999GD13991+0001519GF107991999999999999999999KA1999M-01481KA2999N-01941MW1481OC101591REMMET103METAR KMWN 131751Z 34023G31KT 3/16SM FZFG BKN000 M15/M15 RMK FZFG BKN000 VRY LGT ICG 4/010 11148 21194;
0215726130147552011011318524+44267-071300FM-15+1910KMWN V0203401N014419999999N1600001N1-01401-01501999999ADDGD13991+9999999GD21991+9999999GD31991+0015019GD41991+0180019OC101901REMMET116METAR KMWN 131852Z 34028G37KT 100SM BKN/// FEW/// FEW005 FEW060 FEW180 M14/M15 RMK ACSL N TPS LWR BKN057 BBLO FEW N;EQDQ01+000022SCOTCV
0230726130147552011011320004+44267-071300FM-15+1910KMWN V0203301N011319999999N1600001N1-01301-01601999999ADDGD13991+9999999GD21991+9999999GD31991+0006019GD41991+0030019OC101591REMMET131METAR KMWN 131955Z 33022G31KT 100SM BKN/// FEW/// FEW002 FEW010 FEW050 FEW180 M13/M16 RMK ACSL NW-NE TPS LWR BKN055 TPS LWR FEW060;EQDQ01+000022SCOTCV
0219726130147552011011320504+44267-071300FM-15+1910KMWN V0203301N009319999999N1600001N1-01501-01601999999ADDGD13991+9999999GD21991+9999999GD31991+0003019GD41991+0030019OC101231REMMET120METAR KMWN 132050Z 33018G24KT 100SM BKN/// FEW/// FEW001 FEW010 FEW050 FEW180 M15/M16 RMK TPS LWR BKN055 TPS LWR FEW060;EQDQ01+000022SCOTCV
0207726130147552011011321494+44267-071300FM-15+1910KMWN V0203501N007219999999N1600001N1-01401-01601999999ADDGD13991+9999999GD21991+9999999GD31991+0120019GD41991+0540019REMMET116METAR KMWN 132149Z 35014KT 100SM BKN/// FEW/// FEW040 FEW180 FEW200 M14/M16 RMK ACSL NE-E TPS LWR BKN055 BBLO FEW N;EQDQ01+000022SCOTCV
0197726130147552011011322534+44267-071300FM-15+1910KMWN V0203501N005719999999N1600001N1-01401-01701999999ADDGD13991+9999999GD21991+9999999GD31991+0135019GD41991+0540019REMMET106METAR KMWN 132253Z 35011KT 100SM BKN/// FEW/// FEW045 FEW180 FEW200 M14/M17 RMK TPS LWR BKN055 BBLO FEW N;EQDQ01+000022SCOTCV
0273726130147552011011323504+44267-071300FM-15+1910KMWN V0203501N006719999999N1600001N1-01401-01701999999ADDAJ100259199999999GD13991+9999999GD22991+9999999GD31991+0270019GD41991+0540019KA1999M-01341KA2999N-01571OC100981REMMET131METAR KMWN 132350Z 35013G19KT 105SM BKN/// SCT/// FEW090 FEW180 FEW200 M14/M17 RMK TPS LWR BKN035 TPS LWR SCT053 4/010 11134 21157;EQDQ01+000022SCOTCV
0201726130147552011011401004+44267-071300FM-15+1910KMWN V0203501N005712200019N1600001N1-01401-01701999999ADDGD12991+9999999GD22991+9999999GD31991+0240019GD41991+0510019REMMET110METAR KMWN 140056Z 35011KT 110SM SCT/// SCT/// FEW080 FEW170 FEW210 M14/M17 RMK TPS LWR SCT038 TPS LWR SCT052;EQDQ01+000022SCOTCV
0208726130147552011011401504+44267-071300FM-15+1910KMWN V0203501N004112200019N1600001N1-01401-01701999999ADDGD12991+9999999GD22991+9999999GD31991+0180019GD41991+0240019REMMET117METAR KMWN 140150Z 35008KT 110SM SCT/// SCT/// FEW060 FEW080 FEW170 FEW210 M14/M17 RMK TPS LWR SCT035 TPS LWR SCT055;EQDQ01+000022SCOTCV
0211726130147552011011402514+44267-071300FM-15+1910KMWN V0203501N002112200019N1600001N1-01301-01801999999ADDGD12991+9999999GD22991+9999999GD31991+0240019GD41991+0510019REMMET120METAR KMWN 140251Z 35004KT 105SM SCT/// SCT/// FEW080 FEW170 FEW200 M13/M18 RMK SH DSNT N TPS LWR SCT035 TPS LWR SCT050;EQDQ01+000022SCOTCV
0211726130147552011011403544+44267-071300FM-15+1910KMWN V0203501N002112200019N1600001N1-01301-01701999999ADDGD12991+9999999GD22991+9999999GD31991+0270019GD41991+0540019REMMET120METAR KMWN 140354Z 35004KT 105SM SCT/// SCT/// FEW090 FEW180 FEW210 M13/M17 RMK SH DSNT N TPS LWR SCT035 TPS LWR SCT045;EQDQ01+000022SCOTCV
0222726130147552011011404596+44267-071299SOD  +1910KMWN V030999999999999999999999999999+99999+99999999999ADDAA124002891AJ100259599999999AL12400395AN1024003695GJ102505GK10445KA1240M-01325KA2240N-01935OE11240371032006365OE23240146699999999REMSOD0623   14755110113083 NW0636          0250044650008-0030011014010EQDR01  00116AAP092
0201726130147552011011405004+44267-071300FM-15+1910KMWN V0203501N003112200019N1600001N1-01401-01601999999ADDGD12991+9999999GD22991+9999999GD31991+0270019GD41991+0480019REMMET110METAR KMWN 140457Z 35006KT 105SM SCT/// SCT/// FEW090 FEW160 FEW190 M14/M16 RMK TPS LWR SCT040 TPS LWR SCT045;EQDQ01+000022SCOTCV
0218726130147552011011405544+44267-071300FM-15+1910KMWN V0203301N002619999999N1600001N1-01501-01601999999ADDAJ100259199999999GD11991+0480019GD21991+0570019GD33991+9999999KA1999M-01321KA2999N-01511REMMET099METAR KMWN 140554Z 33005KT 105SM BKN/// FEW160 FEW190 M15/M16 RMK TPS LWR BKN046 4/010 11132 21151;EQDQ01+000022SCOTCV
0157726130147552011011406514+44267-071300FM-15+1910KMWN V0203301N002119999999N1600001N1-01501-01601999999ADDGD11991+0540019GD21991+0600019GD33991+9999999REMMET081METAR KMWN 140651Z 33004KT 110SM BKN/// FEW180 FEW200 M15/M16 RMK TPS LWR BKN045;EQDQ01+000022SCOTCV
0158726130147552011011408004+44267-071300FM-15+1910KMWN V0202801N001019999999N1600001N1-01501-01601999999ADDGD11991+0001519GD23991+9999999MW1411REMMET091METAR KMWN 140759Z 28002KT 100SM BCFG BKN/// FEW000 M15/M16 RMK BCFG FEW000 TPS LWR BKN044;EQDQ01+000022SCOTCV
0179726130147552011011409004+44267-071300FM-15+1910KMWN V0202801N006719999999N1528871N1-01501-01601999999ADDGD11991+0001519GD21991+0510019GD33991+9999999MW1411REMMET097METAR KMWN 140858Z 28013KT 95SM BCFG BKN/// FEW000 FEW170 M15/M16 RMK BCFG FEW000 TPS LWR BKN044;EQDQ01+000022SCOTCV
0141726130147552011011409544+44267-071300FM-15+1910KMWN V0202801N003612200019N0003021N1-01601-01601999999ADDGD12991+0001519GF104991999999999999999999MW1481REMMET082METAR KMWN 140954Z 28007KT 3/16SM FZFG SCT000 M16/M16 RMK FZFG SCT000 VRY LGT ICG;
0135726130147552011011410534+44267-071300FM-15+1910KMWN V0202801N004612200019N1600001N1-01401-02001999999ADDGD11991+0600019GD22991+9999999REMMET074METAR KMWN 141053Z 28009KT 110SM SCT/// FEW200 M14/M20 RMK TPS LWR SCT044;EQDQ01+000022SCOTCV
0196726130147552011011411514+44267-071300FM-15+1910KMWN V0202801N005112200019N1600001N1-01401-01801999999ADDAJ100259199999999GD11991+0600019GD22991+9999999KA1999M-01371KA2999N-01581REMMET092METAR KMWN 141151Z 28010KT 120SM SCT/// FEW200 M14/M18 RMK TPS LWR SCT042 4/010 11137 21158;EQDQ01+000022SCOTCV
0194726130147552011011412524+44267-071300FM-15+1910KMWN V0202901N004112200019N1600001N1-01401-01801999999ADDGD12991+9999999GD21991+9999999GD31991+0480019GD41991+0600019REMMET103METAR KMWN 141252Z 29008KT 120SM SCT/// FEW/// FEW160 FEW200 M14/M18 RMK TPS LWR SCT040 TPS LWR FEW050;EQDQ01+000022SCOTCV
0179726130147552011011413534+44267-071300FM-15+1910KMWN V0202901N003619999999N1600001N1-01301-02301999999ADDGD11991+0120019GD21991+0480019GD31991+0600019GD43991+9999999REMMET088METAR KMWN 141353Z 29007KT 120SM BKN/// FEW040 FEW160 FEW200 M13/M23 RMK TPS LWR BKN040;EQDQ01+000022SCOTCV
0179726130147552011011414534+44267-071300FM-15+1910KMWN V0202901N002619999999N1600001N1-01401-01801999999ADDGD11991+0120019GD21991+0480019GD32991+0600019GD43991+9999999REMMET088METAR KMWN 141453Z 29005KT 120SM BKN/// FEW040 FEW160 SCT200 M14/M18 RMK TPS LWR BKN040;EQDQ01+000042SCOTCV
0157726130147552011011415514+44267-071300FM-15+1910KMWN V0203001N004119999999N1600001N1-01401-01801999999ADDGD11991+0480019GD22991+0600019GD33991+9999999REMMET081METAR KMWN 141551Z 30008KT 120SM BKN/// FEW160 SCT200 M14/M18 RMK TPS LWR BKN040;EQDQ01+000042SCOTCV
0157726130147552011011416524+44267-071300FM-15+1910KMWN V0203001N003119999999N1600001N1-01401-01901999999ADDGD11991+0480019GD22991+0630019GD33991+9999999REMMET081METAR KMWN 141652Z 30006KT 120SM BKN/// FEW160 SCT210 M14/M19 RMK TPS LWR BKN040;EQDQ01+000042SCOTCV
0218726130147552011011417544+44267-071300FM-15+1910KMWN V0203101N001019999999N1600001N1-01401-02201999999ADDAJ100259199999999GD11991+0540019GD22991+0630019GD33991+9999999KA1999M-01351KA2999N-01541REMMET099METAR KMWN 141754Z 31002KT 120SM BKN/// FEW180 SCT210 M14/M22 RMK TPS LWR BKN040 4/010 11135 21154;EQDQ01+000042SCOTCV
0164726130147552011011418534+44267-071300FM-15+1910KMWN V0202501N00211063001CN1600001N1-01301-01901999999ADDGD11991+0540019GD23991+0630019GD33991+9999999GF107991999999999999999999REMMET081METAR KMWN 141853Z 25004KT 120SM BKN/// FEW180 BKN210 M13/M19 RMK TPS LWR BKN040;
0195726130147552011011419514+44267-071300FM-15+1910KMWN V0202501N003110630019N1600001N1-01401-01901999999ADDGD11991+0090019GD22991+0540019GD33991+0630019GD43991+9999999GF107991999999999999999999REMMET097METAR KMWN 141951Z 25006KT 120SM BKN/// FEW030 SCT180 BKN210 M14/M19 RMK TPS LWR BKN045 SUN DOGS;
0208726130147552011011420544+44267-071300FM-15+1910KMWN V0202601N004619999999N1600001N1-01601-01801999999ADDGD13991+9999999GD21991+9999999GD31991+0090019GD42991+0540019GF107991999999999999999999REMMET110METAR KMWN 142054Z 26009KT 120SM BKN/// FEW/// FEW030 SCT180 BKN210 M16/M18 RMK TPS LWR BKN046 TPS LWR FEW055;
0164726130147552011011421514+44267-071300FM-15+1910KMWN V0202601N00411063001CN1600001N1-01701-02101999999ADDGD12991+0540019GD23991+0630019GD33991+9999999GF107991999999999999999999REMMET081METAR KMWN 142151Z 26008KT 120SM BKN/// SCT180 BKN210 M17/M21 RMK TPS LWR BKN043;
0168726130147552011011423004+44267-071300FM-15+1910KMWN V0203201N013419999999N1600001N1-01701-02401999999ADDGD11991+0540019GD22991+0630019GD33991+9999999REMMET092METAR KMWN 142255Z 32026KT 120SM BKN/// FEW180 SCT210 M17/M24 RMK WSHFT 2158 TPS LWR BKN042;EQDQ01+000042SCOTCV
0218726130147552011011423534+44267-071300FM-15+1910KMWN V0203101N012319999999N1600001N1-01701-02201999999ADDAJ100259199999999GD11991+0570019GD21991+0660019GD33991+9999999KA1999M-01231KA2999N-01771REMMET099METAR KMWN 142353Z 31024KT 120SM BKN/// FEW190 FEW220 M17/M22 RMK TPS LWR BKN040 4/010 11123 21177;EQDQ01+000022SCOTCV
0135726130147552011011500524+44267-071300FM-15+1910KMWN V0203101N013919999999N1600001N1-01801-02801999999ADDGD11991+0570019GD23991+9999999REMMET074METAR KMWN 150052Z 31027KT 115SM BKN/// FEW190 M18/M28 RMK TPS LWR BKN038;EQDQ01+000022SCOTCV
0194726130147552011011501524+44267-071300FM-15+1910KMWN V0203101N014412200019N1600001N1-01801-02401999999ADDGD12991+9999999GD22991+9999999GD31991+0540019GD41991+0600019REMMET103METAR KMWN 150152Z 31028KT 110SM SCT/// SCT/// FEW180 FEW200 M18/M24 RMK TPS LWR SCT033 TPS LWR SCT038;EQDQ01+000022SCOTCV
0172726130147552011011502544+44267-071300FM-15+1910KMWN V0203101N013912200019N1600001N1-01901-02101999999ADDGD12991+9999999GD22991+9999999GD31991+0540019REMMET096METAR KMWN 150254Z 31027KT 110SM SCT/// SCT/// FEW180 M19/M21 RMK TPS LWR SCT033 TPS LWR SCT039;EQDQ01+000022SCOTCV
0154726130147552011011504004+44267-071300FM-15+1910KMWN V0203101N013912200019N1600001N1-01901-02401999999ADDGD12991+9999999GD21991+9999999REMMET093METAR KMWN 150355Z 31027KT 110SM SCT/// FEW/// SKC M19/M24 RMK TPS LWR SCT036 TPS LWR FEW040;EQDQ01+000022SCOTCV
0222726130147552011011504596+44267-071299SOD  +1910KMWN V030999999999999999999999999999+99999+99999999999ADDAA124000091AJ100259599999999AL12400095AN1024000095GJ105635GK11005KA1240M-01215KA2240N-01935OE11240165432019215OE23240062199999999REMSOD0623   14755110114037 NW1921          0563100430010-0030000000010EQDR01  00006AAP092
0161726130147552011011505004+44267-071300FM-15+1910KMWN V0203201N013912200019N1600001N1-01801-02301999999ADDGD12991+9999999GD22991+9999999GF104991999999999999999999REMMET093METAR KMWN 150455Z 32027KT 110SM SCT/// SCT/// SKC M18/M23 RMK TPS LWR SCT036 TPS LWR SCT040;
0222726130147552011011506004+44267-071300FM-15+1910KMWN V0203101N012912200019N1600001N1-01901-02401999999ADDAJ100259199999999GD12991+9999999GD22991+9999999GF104991999999999999999999KA1999M-01721KA2999N-01951REMMET111METAR KMWN 150555Z 31025KT 110SM SCT/// SCT/// SKC M19/M24 RMK TPS LWR SCT037 TPS LWR SCT040 4/010 11172 21195;
0172726130147552011011506484+44267-071300FM-15+1910KMWN V0203001N012912200019N1600001N1-01901-02401999999ADDGD12991+9999999GD22991+9999999GD31991+0660019REMMET096METAR KMWN 150648Z 30025KT 110SM SCT/// SCT/// FEW220 M19/M24 RMK TPS LWR SCT039 TPS LWR SCT045;EQDQ01+000022SCOTCV
0194726130147552011011507524+44267-071300FM-15+1910KMWN V0203001N008712200019N1600001N1-01901-02301999999ADDGD12991+9999999GD22991+9999999GD31991+0480019GD41991+0570019REMMET103METAR KMWN 150752Z 30017KT 110SM SCT/// SCT/// FEW160 FEW190 M19/M23 RMK TPS LWR SCT030 TPS LWR SCT045;EQDQ01+000022SCOTCV
0164726130147552011011509004+44267-071300FM-15+1910KMWN V0202901N008712200019N1600001N1-01901-02401999999ADDGD11991+0450019GD21991+0540019GD31991+9999999GF102991999999999999999999REMMET081METAR KMWN 150855Z 29017KT 120SM FEW/// FEW150 FEW180 M19/M24 RMK TPS LWR FEW035;
0164726130147552011011509514+44267-071300FM-15+1910KMWN V0202901N008212200019N1600001N1-01901-02501999999ADDGD11991+0510019GD21991+0600019GD31991+9999999GF102991999999999999999999REMMET081METAR KMWN 150951Z 29016KT 120SM FEW/// FEW170 FEW200 M19/M25 RMK TPS LWR FEW030;
0164726130147552011011510544+44267-071300FM-15+1910KMWN V0202801N007212200019N1600001N1-01901-02501999999ADDGD11991+0510019GD21991+0600019GD31991+9999999GF102991999999999999999999REMMET081METAR KMWN 151054Z 28014KT 120SM FEW/// FEW170 FEW200 M19/M25 RMK TPS LWR FEW030;
0188726130147552011011511544+44267-071300FM-15+1910KMWN V0202501N005712200019N1600001N1-01801-02501999999ADDAJ100259199999999GD11991+0510019GD22991+0600019GF104991999999999999999999KA1999M-01781KA2999N-01951REMMET077METAR KMWN 151154Z 25011KT 120SM FEW170 SCT200 M18/M25 RMK 4/010 11178 21195;
0149726130147552011011512534+44267-071300FM-15+1910KMWN V0202601N008712200019N1600001N1-01901-02601999999ADDGD11991+0360019GD21991+0480019GD32991+0600019GF104991999999999999999999REMMET066METAR KMWN 151253Z 26017KT 130SM FEW120 FEW160 SCT200 M19/M26 RMK;
0186726130147552011011513524+44267-071300FM-15+1910KMWN V0202701N010312200019N1600001N1-01801-02501999999ADDGD11991+0360019GD21991+0480019GD31991+0600019GD41991+9999999GF102991999999999999999999REMMET088METAR KMWN 151352Z 27020KT 130SM FEW/// FEW120 FEW160 FEW200 M18/M25 RMK TPS LWR FEW038;
0186726130147552011011514514+44267-071300FM-15+1910KMWN V0202801N012912200019N1600001N1-01801-02401999999ADDGD11991+0180019GD21991+0480019GD31991+0600019GD41991+9999999GF102991999999999999999999REMMET088METAR KMWN 151451Z 28025KT 120SM FEW/// FEW060 FEW160 FEW200 M18/M24 RMK TPS LWR FEW030;
0186726130147552011011515534+44267-071300FM-15+1910KMWN V0202601N014910600019N1600001N1-01801-02301999999ADDGD11991+0060019GD22991+0480019GD33991+0600019GD41991+9999999GF107991999999999999999999REMMET088METAR KMWN 151553Z 26029KT 110SM FEW/// FEW020 SCT160 BKN200 M18/M23 RMK TPS LWR FEW030;
0149726130147552011011516494+44267-071300FM-15+1910KMWN V0202501N016510600019N1600001N1-01701-02101999999ADDGD11991+0060019GD22991+0480019GD33991+0600019GF107991999999999999999999REMMET066METAR KMWN 151649Z 25032KT 100SM FEW020 SCT160 BKN200 M17/M21 RMK;
0295726130147552011011517544+44267-071300FM-15+1910KMWN V0202301N014410480019N1448401N1-01701-02001999999ADDAJ100259199999999GD11991+0090019GD22991+0150019GD33991+0480019GD41991+9999999GF108991999999999999999999KA1999M-01701KA2999N-01881MW1361REMMET148METAR KMWN 151754Z 23028KT 90SM DRSN FEW/// FEW030 SCT050 BKN160 OVC200 M17/M20 RMK VIRGA DSNT SW-NW TPS LWR FEW050 HALO ARND SUN 4/010 11170 21188;
0083726130147552011011518597+44267-071299FM-15+1910KMWN V0302201N010810015019N0032181N1-01801-01901999999ADDAA101000025GD14991+0015019GF108991999999999999999999MW1101MW2361MW3771REMMET001-
0091726130147552011011519597+44267-071299FM-15+1910KMWN V0302101N008710009019N0002011N1-01801-01801999999ADDAA101000025GD15991+0009019GF109991999999000251999999MW1361MW2491MW3771OC101231REMMET001-
0083726130147552011011520597+44267-071299FM-15+1910KMWN V0302201N015410009019N0001011N1-01701-01701999999ADDAA101000025GD15991+0009019GF109991999999000251999999MW1361MW2491MW3711REMMET001-
0091726130147552011011521597+44267-071299FM-15+1910KMWN V0302201N019510009019N0001011N1-01801-01801999999ADDAA101000025GD15991+0009019GF109991999999000251999999MW1381MW2491MW3711OC102211REMMET001-
0157726130147552011011522474+44267-071300FM-15+1910KMWN V0202301N020110001519N0000001N1-01701-01701999999ADDGD15991+0001519GF109991999999000251999999MW1381MW2491MW3711OC102521REMMET078METAR KMWN 152247Z 23039G49KT 0SM -SN BLSN FZFG VV000 M17/M17 RMK VRY LGT ICG;
0024726130147552011011522598+44267-071299FM-15+1910KMWN V03099999999999999999N999999999+99999+99999999999ADDAA101000025REMMET001-
0264726130147552011011523484+44267-071300FM-15+1910KMWN V0202401N031410001519N0001011N1-01601-01601999999ADDAA106000591AJ100259199999999GD15991+0001519GF109991999999000251999999KA1999M-01531KA2999N-01881MW1381MW2491MW3711OC103651REMMET112METAR KMWN 152348Z 24061G71KT 1/16SM -SN BLSN FZFG VV000 M16/M16 RMK VRY LGT ICG 60002 4/010 931005 11153 21188;EQDQ01  00058PRCP06
0026726130147552011011523598+44267-071299FM-15+1910KMWN V03099999999999999999N999999999+99999+99999999999ADDAA101000595REMMET003002
0085726130147552011011600597+44267-071299FM-15+1910KMWN V0302501N027310001519N0000001N1-01701-01701999999ADDAA101000395GD15991+0001519GF109991999999000251999999MW1381MW2491MW3711REMMET003001
