0222743945147102012010100357+42933-071438FM-16+0071KMHT V0203105N00155000615MN0028165N5+00205+00105999999ADDAU100001015AW1105ED135U12199GA1085+000615999GD14991+0006159GF108991999999999999999999MA1101085100235MW1101REMMET10412/31/11 19:35:03 SPECI KMHT 010035Z 31003KT 1 3/4SM R35/4000VP6000FT BR OVC002 02/01 A2985 RMK AO2 (CD)
0219743945147102012010100507+42933-071438FM-16+0071KMHT V0209999C00005000305WN0004025N5+00105+00105999999ADDAU100002015AW1305ED135U04889GA1095+000305999GD15991+0003059GF109991999999000251999999MA1101085100235MW1451REMMET10112/31/11 19:50:03 SPECI KMHT 010050Z 00000KT 1/4SM R35/1600VP6000FT FG VV001 01/01 A2985 RMK AO2 (CD)
0246743945147102012010100537+42933-071438FM-15+0071KMHT V0209999C00005000305WN0004025N5+00115+00065101255ADDAA101000095AU100002015AW1305ED135U03669GA1095+000305999GD15991+0003059GF109991999999000251999999MA1101085100235MW1451REMMET11712/31/11 19:53:03 METAR KMHT 010053Z 00000KT 1/4SM R35/1200V3000FT FG VV001 01/01 A2985 RMK AO2 SLP125 T00110006 (CD)
0213743945147102012010101027+42933-071438FM-16+0071KMHT V0209999C00005000305WN0004025N5+00105+00105999999ADDAU100002015AW1305ED135U03669GA1095+000305999GD15991+0003059GF109991999999000251999999MA1101085100235MW1451REMMET09512/31/11 20:02:03 SPECI KMHT 010102Z 00000KT 1/4SM R35/1200FT FG VV001 01/01 A2985 RMK AO2 (CD)
0218743945147102012010101507+42933-071438FM-16+0071KMHT V0209999C00005000305WN0004025N5+00005+00005999999ADDAU100002015AW1305ED135U05499GA1095+000305999GD15991+0003059GF109991999999000251999999MA1101125100275MW1451REMMET10012/31/11 20:50:03 SPECI KMHT 010150Z 00000KT 1/4SM R35/1800V2400FT FG VV001 00/00 A2986 RMK AO2 (CD)
0246743945147102012010101537+42933-071438FM-15+0071KMHT V0209999C00005000305WN0008055N5+00065+00005101315ADDAA101000095AU100002015AW1305ED135U05499GA1095+000305999GD15991+0003059GF109991999999000251999999MA1101125100275MW1451REMMET11712/31/11 20:53:03 METAR KMHT 010153Z 00000KT 1/2SM R35/1800V2800FT FG VV001 01/00 A2986 RMK AO2 SLP131 T00060000 (CD)
0219743945147102012010102117+42933-071438FM-16+0071KMHT V0209999C00005000305MN0032195N5+00005-00105999999ADDAU100001015AW1105ED135U15249GA1075+000305999GD13991+0003059GF107991999999999999999999MA1101125100275MW1101REMMET10112/31/11 21:11:03 SPECI KMHT 010211Z 00000KT 2SM R35/5000VP6000FT BR BKN001 00/M01 A2986 RMK AO2 (CD)
0191743945147102012010102167+42933-071438FM-16+0071KMHT V0201305N001552200059N0048285N5+00005-00105999999ADDAU100001015AW1105GA1045+000305999GD12991+0003059GF104991999999999999999999MA1101125100275MW1101REMMET08412/31/11 21:16:03 SPECI KMHT 010216Z 13003KT 3SM BR SCT001 00/M01 A2986 RMK AO2 (CD)
0206743945147102012010102537+42933-071438FM-15+0071KMHT V0209999C000052200059N0064375N5-00065-00115101355ADDAA101000095AU100001015AW1105GF100991999999999999999999MA1101155100305MD1140094+9999MW1101REMMET10512/31/11 21:53:03 METAR KMHT 010253Z 00000KT 4SM BR CLR M01/M01 A2987 RMK AO2 SLP135 T10061011 51009 (ME)
0186743945147102012010103537+42933-071438FM-15+0071KMHT V0209999C000052200059N0080475N5-00065-00175101405ADDAA101000095AU100001015AW1105GF100991999999999999999999MA1101225100375MW1101REMMET09912/31/11 22:53:03 METAR KMHT 010353Z 00000KT 5SM BR CLR M01/M02 A2989 RMK AO2 SLP140 T10061017 (ME)
0194743945147102012010104537+42933-071438FM-15+0071KMHT V0209999C000052200059N0096565N5+00065+00005101475ADDAA101000095AU100001015AW1105GF100991999999999999999999MA1101295100445MW1101REMMET10712/31/11 23:53:03 METAR KMHT 010453Z 00000KT 6SM BR CLR 01/00 A2991 RMK AO2 SLP147 T00060000 400281011 (ME)
0955743945147102012010104596+42933-071438SOD  +0071KMHT V020999999999999999999999999999+99999+99999999999ADDAA124001095AX1016246AX2026246KA1240M+00285KA2240N-00105MG1100464101124OE11240044731018195OE22240035833018235OE33240016199999995REMSOD74924 HR PRECIPITATION (IN):0.04  WEATHER(CODE):1,2  24 HR MAX TEMP (F):37 24 HR MAX TEMP TIME (LST):1754 24 HR MIN TEMP (F):30 24 HR MIN TEMP TIME (LST):2315 AVERAGE STATION PRESSURE:29.665 MINIMUM SEA LEVEL PRESSURE:29.86 TIME OF OCCURRENCE:1705 PEAK WIND SPEED (MPH):10  PEAK WIND DIR (DEG):310 PEAK WIND TIME (LST):1819  FASTEST 2MIN SPEED (MPH):8  FASTEST 2MIN DIR (DEG):330 FASTEST 2MIN TIME (LST):1823 AVERAGE WIND SPEED (MPH):3.6  24 HR AVG TEMP (F):34 HEATING DEGREE DAYS:31  COOLING DEGREE DAYS:0   LATEST DAY MAX TEMP (0700-1900 LST):37  LATEST NIGHT MIN TEMP(1900-0800 LST):30 HOURLY INCREMENTAL PRECIPITATION VALUES (IN):.00 0.00 0.00 0.00 0.00 T    T    0.01 0.01 T    0.01 0.01 T    0.00 0.00 0.00 0.00 0.00 0.00 0.00 0.00 0.00 0.00 0.00EQDR01   1,27AXW090R02   1,27AXW090R03     N7GJS072R04     N7GKS075
1273743945147102012010104596+42933-071438SOM  +0071KMHT V020999999999999999999999999999+99999+99999999999ADDAB10090996AD10049590708999999996AE1115065035015AH1005003092801125AH2010003892801165AH3015004692801215AH4020004892801245AH5030005192801345AH6045005192801345AI1060005190802525AI2080006390721195AI3100007690722185AI4120008992304016AI5150010990722335AI6180012492304505KB1744N-03115KB2744M+06675KB3744A+01785KC1N9-01161999995KC2M9+01720699995KD1744H09175KD2744C00005KE1045005245005MH1101054102074MK1104030310475099052805105REMSOM793PCP MTOT:3.58 PCP GT 24HRS:1.95 DATE(S):7-8 DAYS W/PCP >=.01:11 DAYS W/PCP >=.10:6  DAYS W/ PCP >=.50:3 DAYS W/PCP >=1.00:1 MSDP AMTS W/DATE-TIME TAGS:MIN:5 0.12  28/0112 MIN:10 0.15  28/0116 MIN:15 0.18  28/0121 MIN:20 0.19  28/0124 MIN:30 0.20  28/0134 MIN:45 0.20  28/0134 MIN:60 0.20  08/0252 MIN:80 0.25  07/2119 MIN:100 0.30  07/2218 MIN:120 0.35  23/0401 MIN:150 0.43  07/2233 MIN:180 0.49  23/0450 AVG DLY MIN:26.4  AVG DLY MAX:44.0  AVG MLY TMP:35.2  MIN TMP:11 DATE(S):19 MAX TMP:63  DATE(S):06 DAYS MAX <=32:4 DAYS MAX >=90:0  DAYS MIN <=32:24 DAYS MIN  <=0:0  AVG STP:29.840 LWST SLP:29.25 DATE/TIME:280510 HGST SLP:30.72 DATE/TIME:031047 HDD MTH TOT:917 DEP NORM:-2553 SEASON(JUL 1-JUN 30):1910 DEP NORM:+24054 CDD MTH TOT:0 DEP NORM:-2553 SEASON(JAN 1-DEC 31):107 DEP NORM:-21141EQDR01  3.587ABP070R02  1.957ADP081R03  0.357A10078
0242743945147102012010105537+42933-071438FM-15+0071KMHT V0203305N001552200059N0096565N5+00115+00005101385ADDAA101000095AU100001015AW1105GF100991999999999999999999KA1999M+00171KA2999N-00111MA1101225100375MD1040044+9999MW1101REMMET11501/01/12 00:53:02 METAR KMHT 010553Z 33003KT 6SM BR CLR 01/00 A2989 RMK AO2 SLP138 T00110000 10017 21011 50004 (ME)
0186743945147102012010106537+42933-071438FM-15+0071KMHT V0209999C000052200059N0048285N5-00065-00115101465ADDAA101000095AU100001015AW1105GF100991999999999999999999MA1101295100445MW1101REMMET09901/01/12 01:53:02 METAR KMHT 010653Z 00000KT 3SM BR CLR M01/M01 A2991 RMK AO2 SLP146 T10061011 (ME)
0186743945147102012010107537+42933-071438FM-15+0071KMHT V0209999C000052200059N0048285N5-00065-00115101575ADDAA101000095AU100001015AW1105GF100991999999999999999999MA1101395100545MW1101REMMET09901/01/12 02:53:02 METAR KMHT 010753Z 00000KT 3SM BR CLR M01/M01 A2994 RMK AO2 SLP157 T10061011 (ME)
0206743945147102012010108537+42933-071438FM-15+0071KMHT V0209999C000052200059N0064375N5-00115-00175101625ADDAA101000095AU100001015AW1105GF100991999999999999999999MA1101465100605MD1140234+9999MW1101REMMET10501/01/12 03:53:02 METAR KMHT 010853Z 00000KT 4SM BR CLR M01/M02 A2996 RMK AO2 SLP162 T10111017 51023 (ME)
0185743945147102012010109537+42933-071438FM-15+0071KMHT V0203505N001552200059N0080475N5+00005-00115101665ADDAA101000095AU100001015AW1105GF100991999999999999999999MA1101495100645MW1101REMMET09801/01/12 04:53:02 METAR KMHT 010953Z 35003KT 5SM BR CLR 00/M01 A2997 RMK AO2 SLP166 T00001011 (ME)
0185743945147102012010110537+42933-071438FM-15+0071KMHT V0209999C000052200059N0064375N5+00005-00115101725ADDAA101000095AU100001015AW1105GF100991999999999999999999MA1101565100715MW1101REMMET09801/01/12 05:53:02 METAR KMHT 011053Z 00000KT 4SM BR CLR 00/M01 A2999 RMK AO2 SLP172 T00001011 (DW)
0235743945147102012010111537+42933-071438FM-15+0071KMHT V0209999C000052200059N0112655N5-00175-00285101775ADDAA101000095AA224001091GF100991999999999999999999KA1999M+00111KA2999N-00221MA1101595100745MD1140154+9999REMMET12001/01/12 06:53:02 METAR KMHT 011153Z 00000KT 7SM CLR M02/M03 A3000 RMK AO2 SLP177 70004 T10171028 10011 21022 51015 (DW)
0160743945147102012010112537+42933-071438FM-15+0071KMHT V0209999C000052200059N0112655N5-00175-00225101855ADDAA101000095GF100991999999999999999999MA1101665100815REMMET09601/01/12 07:53:02 METAR KMHT 011253Z 00000KT 7SM CLR M02/M02 A3002 RMK AO2 SLP185 T10171022 (DW)
0184743945147102012010113537+42933-071438FM-15+0071KMHT V0201705N001552200059N0096565N5+00065+00005101865ADDAA101000095AU100001015AW1105GF100991999999999999999999MA1101695100845MW1101REMMET09701/01/12 08:53:02 METAR KMHT 011353Z 17003KT 6SM BR CLR 01/00 A3003 RMK AO2 SLP186 T00060000 (DW)
0179743945147102012010114537+42933-071438FM-15+0071KMHT V0209999C000052200059N0160935N5+00285+00175101855ADDAA101000095GF100991999999999999999999MA1101695100845MD1140094+9999REMMET10101/01/12 09:53:02 METAR KMHT 011453Z 00000KT 10SM CLR 03/02 A3003 RMK AO2 SLP185 T00280017 51009 (DW)
0159743945147102012010115537+42933-071438FM-15+0071KMHT V0202005N002152200059N0160935N5+00675+00335101805ADDAA101000095GF100991999999999999999999MA1101635100775REMMET09501/01/12 10:53:02 METAR KMHT 011553Z 20004KT 10SM CLR 07/03 A3001 RMK AO2 SLP180 T00670033 (DW)
0193743945147102012010116537+42933-071438FM-15+0071KMHT V0202005N002652200059N0160935N5+00785+00335101655ADDAA101000095GA1045+009145999GD12991+0091459GF104991999999999999999999MA1101495100645REMMET09801/01/12 11:53:02 METAR KMHT 011653Z 20005KT 10SM SCT030 08/03 A2997 RMK AO2 SLP165 T00780033 (DW)
0251743945147102012010117537+42933-071438FM-15+0071KMHT V0209999V002652200059N0160935N5+00835+00285101515ADDAA101000095GA1025+007625999GD11991+0076259GF102991999999999999999999KA1999M+00891KA2999N-00221MA1101355100505MD1840334+9999REMMET11601/01/12 12:53:02 METAR KMHT 011753Z VRB05KT 10SM FEW025 08/03 A2993 RMK AO2 SLP151 T00830028 10089 21022 58033 (DW)
0193743945147102012010118537+42933-071438FM-15+0071KMHT V0201805N003652200059N0160935N5+00895+00285101415ADDAA101000095GA1045+007625999GD12991+0076259GF104991999999999999999999MA1101255100405REMMET09801/01/12 13:53:02 METAR KMHT 011853Z 18007KT 10SM SCT025 09/03 A2990 RMK AO2 SLP141 T00890028 (PJ)
0193743945147102012010119537+42933-071438FM-15+0071KMHT V0201705N003152200059N0160935N5+00945+00225101345ADDAA101000095GA1045+007625999GD12991+0076259GF104991999999999999999999MA1101195100345REMMET09801/01/12 14:53:02 METAR KMHT 011953Z 17006KT 10SM SCT025 09/02 A2988 RMK AO2 SLP134 T00940022 (PJ)
0213743945147102012010120537+42933-071438FM-15+0071KMHT V0201505N003652200059N0160935N5+00895+00225101265ADDAA101000095GA1045+009145999GD12991+0091459GF104991999999999999999999MA1101125100275MD1640254+9999REMMET10401/01/12 15:53:02 METAR KMHT 012053Z 15007KT 10SM SCT030 09/02 A2986 RMK AO2 SLP126 T00890022 56025 (PJ)
0159743945147102012010121537+42933-071438FM-15+0071KMHT V0201305N004152200059N0160935N5+00725+00175101095ADDAA101000095GF100991999999999999999999MA1100955100105REMMET09501/01/12 16:53:02 METAR KMHT 012153Z 13008KT 10SM CLR 07/02 A2981 RMK AO2 SLP109 T00720017 (PJ)
0159743945147102012010122537+42933-071438FM-15+0071KMHT V0201605N002652200059N0160935N5+00615+00175101075ADDAA101000095GF100991999999999999999999MA1100915100075REMMET09501/01/12 17:53:02 METAR KMHT 012253Z 16005KT 10SM CLR 06/02 A2980 RMK AO2 SLP107 T00610017 (PJ)
0150743945147102012010123366+42933-071438FM-16+0071KMHT V0201705N00625008845MN0160935N5+00705+00205999999ADDGA1075+008845999GD13991+0088459MA1100915100075OC100935REMMET08401/01/12 18:36:02 SPECI KMHT 012336Z 17012G18KT 10SM BKN029 07/02 A2980 RMK AO2 (PJ)
0251743945147102012010123537+42933-071438FM-15+0071KMHT V0201705N00415008235MN0160935N5+00675+00225101035ADDAA101000095GA1085+008235999GD14991+0082359GF108991999999999999999999KA1999M+00941KA2999N+00441MA1100885100035MD1640244+9999REMMET11601/01/12 18:53:02 METAR KMHT 012353Z 17008KT 10SM OVC027 07/02 A2979 RMK AO2 SLP103 T00670022 10094 20044 56024 (PJ)
0188743945147102012010200537+42933-071438FM-15+0071KMHT V0201705N00415007625MN0160935N5+00725+00285100895ADDAA101000095GA1075+007625999GD13991+0076259GF107991999999999999999999MA1100715099865REMMET09301/01/12 19:53:01 METAR KMHT 020053Z 17008KT 10SM BKN025 07/03 A2974 RMK AO2 SLP089 T00720028
0198743945147102012010201427+42933-071438FM-16+0071KMHT V0201905N00415033535MN0160935N5+00705+00305999999ADDGA1045+007015999GA2085+033535999GD12991+0070159GD24991+0335359GF108991999999999999999999MA1100715099865REMMET08301/01/12 20:42:01 SPECI KMHT 020142Z 19008KT 10SM SCT023 OVC110 07/03 A2974 RMK AO2
0226743945147102012010201537+42933-071438FM-15+0071KMHT V0201905N00415033535MN0160935N5+00725+00335100865ADDAA101000095GA1025+021345999GA2085+033535999GD11991+0213459GD24991+0335359GF108991999999999999999999MA1100715099865REMMET10001/01/12 20:53:01 METAR KMHT 020153Z 19008KT 10SM FEW070 OVC110 07/03 A2974 RMK AO2 SLP086 T00720033
0283743945147102012010202537+42933-071438FM-15+0071KMHT V0201705N00675021345MN0160935N5+00725+00335100675ADDAA101000025AA203000021AU110010015AW1515GA1085+021345999GD14991+0213459GF108991999999999999999999MA1100515099665MD1840354+9999MW1511REMMET12101/01/12 21:53:01 METAR KMHT 020253Z 17013KT 10SM -DZ OVC070 07/03 A2968 RMK AO2 DZB38 SLP067 P0000 60000 T00720033 58035EQDQ01  00008PRCP03
0306743945147102012010203537+42933-071438FM-15+0071KMHT V0201605N00415018295MN0080475N5+00675+00505100535ADDAA101000895AU110020015AU200001015AW1105AW2615GA1075+018295999GA2085+024385999GD13991+0182959GD24991+0243859GF108991999999999999999999MA1100375099535MW1101MW2611OC100775REMMET12601/01/12 22:53:01 METAR KMHT 020353Z 16008G15KT 5SM -RA BR BKN060 OVC080 07/05 A2964 RMK AO2 DZE49RAB49 SLP053 P0002 T00670050
0332743945147102012010204537+42933-071438FM-15+0071KMHT V0201705N00365014025MN0048285N5+00675+00565100415ADDAA101000595AU110020015AU200001015AW1105AW2615GA1025+007015999GA2075+014025999GA3085+018295999GD11991+0070159GD23991+0140259GD34991+0182959GF108991999999999999999999MA1100275099435MW1101MW2611REMMET12901/01/12 23:53:01 METAR KMHT 020453Z 17007KT 3SM -RA BR FEW023 BKN046 OVC060 07/06 A2961 RMK AO2 SLP041 P0003 T00670056 400941022
0912743945147102012010204596+42933-071438SOD  +0071KMHT V020999999999999999999999999999+99999+99999999999ADDAA124001395AX1015245KA1240M+00945KA2240N-00215MG1100394100374OE11240093917018365OE22240062617022145OE33240023299999995REMSOD74724 HR PRECIPITATION (IN):0.05  WEATHER(CODE):1  24 HR MAX TEMP (F):49 24 HR MAX TEMP TIME (LST):1522 24 HR MIN TEMP (F):28 24 HR MIN TEMP TIME (LST):0745 AVERAGE STATION PRESSURE:29.645 MINIMUM SEA LEVEL PRESSURE:29.64 TIME OF OCCURRENCE:2356 PEAK WIND SPEED (MPH):21  PEAK WIND DIR (DEG):170 PEAK WIND TIME (LST):1836  FASTEST 2MIN SPEED (MPH):14 FASTEST 2MIN DIR (DEG):170 FASTEST 2MIN TIME (LST):2214 AVERAGE WIND SPEED (MPH):5.2  24 HR AVG TEMP (F):39 HEATING DEGREE DAYS:26  COOLING DEGREE DAYS:0   LATEST DAY MAX TEMP (0700-1900 LST):49  LATEST NIGHT MIN TEMP(1900-0800 LST):28 HOURLY INCREMENTAL PRECIPITATION VALUES (IN):.00 0.00 0.00 0.00 0.00 0.00 0.00 0.00 0.00 0.00 0.00 0.00 0.00 0.00 0.00 0.00 0.00 0.00 0.00 0.00 0.00 T    0.03 0.02EQDR01     N7GJS072R02     N7GKS075
0290743945147102012010205197+42933-071438FM-16+0071KMHT V0201705N00415003965MN0048285N5+00705+00605999999ADDAA101000391AU100001015AW1105GA1075+003965999GA2075+007625999GA3085+014335999GD13991+0039659GD23991+0076259GD34991+0143359GF108991999999999999999999MA1100245099395MW1101REMMET11001/02/12 00:19:02 SPECI KMHT 020519Z 17008KT 3SM BR BKN013 BKN025 OVC047 07/06 A2960 RMK AO2 RAE19 P0001 (STJ)
0384743945147102012010205537+42933-071438FM-15+0071KMHT V0201705N00515003965MN0048285N5+00725+00615100265ADDAA101000395AA206001591AU110020015AU200001015AW1105AW2615GA1075+003965999GA2085+007015999GD13991+0039659GD24991+0070159GF108991999999999999999999KA1999M+00721KA2999N+00671MA1100105099265MD1840394+9999MW1101MW2611REMMET14201/02/12 00:53:02 METAR KMHT 020553Z 17010KT 3SM -RA BR BKN013 OVC023 07/06 A2956 RMK AO2 SLP026 P0001 60006 T00720061 10072 20067 58039 (STJ)EQDQ01  00158PRCP06
0254743945147102012010206516+42933-071438FM-16+0071KMHT V0201805N00315014635MN0048285N5+00705+00605999999ADDAU100001015AW1105GA1025+002135999GA2075+014635999GA3085+024385999GD11991+0021359GD23991+0146359GD34991+0243859MA1100035099195REMMET11701/02/12 01:51:02 SPECI KMHT 020651Z 18006KT 3SM BR FEW007 BKN048 OVC080 07/06 A2954 RMK AO2 RAE0557 P0000 FIBI (STJ)
0309743945147102012010206537+42933-071438FM-15+0071KMHT V0201705N00365014025MN0048285N5+00725+00615100155ADDAA101000095AU100001015AW1105GA1025+002135999GA2075+014025999GA3085+024385999GD11991+0021359GD23991+0140259GD34991+0243859GF108991999999999999999999MA1100005099165MW1101REMMET12901/02/12 01:53:02 METAR KMHT 020653Z 17007KT 3SM BR FEW007 BKN046 OVC080 07/06 A2953 RMK AO2 RAE0557 SLP015 P0000 T00720061 (STJ)
0231743945147102012010207537+42933-071438FM-15+0071KMHT V0201905N00265025915MN0128755N5+00725+00615100065ADDAA101000095GA1045+007625999GA2085+025915999GD12991+0076259GD24991+0259159GF108991999999999999999999MA1099935099095REMMET10501/02/12 02:53:02 METAR KMHT 020753Z 19005KT 8SM SCT025 OVC085 07/06 A2951 RMK AO2 SLP006 T00720061 (STJ)
0332743945147102012010208537+42933-071438FM-15+0071KMHT V0209999V00265010365MN0160935N5+00565+00175100115ADDAA101000025AA203000021GA1025+006105999GA2085+010365999GD11991+0061059GD24991+0103659GF108991999999999999999999MA1099975099125MD1540154+9999OC100825REMMET15401/02/12 03:53:02 METAR KMHT 020853Z VRB05G16KT 10SM FEW020 OVC034 06/02 A2952 RMK AO2 PK WND 29026/0829 RAB30E46 SLP011 P0000 60000 T00560017 55015 (STJ)EQDQ01  00008PRCP03
0195743945147102012010209537+42933-071438FM-15+0071KMHT V0202605N00265014945MN0160935N5+00505-00065100145ADDAA101000095GA1085+014945999GD14991+0149459GF108991999999999999999999MA1100005099165REMMET10001/02/12 04:53:02 METAR KMHT 020953Z 26005KT 10SM OVC049 05/M01 A2953 RMK AO2 SLP014 T00501006 (STJ)
0194743945147102012010210537+42933-071438FM-15+0071KMHT V0202205N00215021345MN0160935N5+00445-00115100175ADDAA101000095GA1075+021345999GD13991+0213459GF107991999999999999999999MA1100035099195REMMET09901/02/12 05:53:02 METAR KMHT 021053Z 22004KT 10SM BKN070 04/M01 A2954 RMK AO2 SLP017 T00441011 (CZ)
0305743945147102012010211537+42933-071438FM-15+0071KMHT V0202205N001552200059N0160935N5+00285-00115100195ADDAA101000095AA206000021AA324001591GA1025+021345999GD11991+0213459GF102991999999999999999999KA1999M+00721KA2999N+00281MA1100035099195MD1140074+9999REMMET12901/02/12 06:53:02 METAR KMHT 021153Z 22003KT 10SM FEW070 03/M01 A2954 RMK AO2 SLP019 60000 70006 T00281011 10072 20028 51007 (CZ)EQDQ01  00158PRCP24
0194743945147102012010212537+42933-071438FM-15+0071KMHT V0209999V00215012805MN0160935N5+00285-00335100265ADDAA101000095GA1075+012805999GD13991+0128059GF107991999999999999999999MA1100105099265REMMET09901/02/12 07:53:02 METAR KMHT 021253Z VRB04KT 10SM BKN042 03/M03 A2956 RMK AO2 SLP026 T00281033 (CZ)
0194743945147102012010213537+42933-071438FM-15+0071KMHT V0209999V00265022865MN0160935N5+00335-00335100275ADDAA101000095GA1075+022865999GD13991+0228659GF107991999999999999999999MA1100105099265REMMET09901/02/12 08:53:02 METAR KMHT 021353Z VRB05KT 10SM BKN075 03/M03 A2956 RMK AO2 SLP027 T00331033 (CZ)
0225743945147102012010214537+42933-071438FM-15+0071KMHT V0202605N00515024385MN0160935N5+00395-00395100295ADDAA101000095GA1075+024385999GD13991+0243859GF107991999999999999999999MA1100145099295MD1140104+9999OC100725REMMET10801/02/12 09:53:02 METAR KMHT 021453Z 26010G14KT 10SM BKN080 04/M04 A2957 RMK AO2 SLP029 T00391039 51010 (CZ)
0205743945147102012010215537+42933-071438FM-15+0071KMHT V0202605N00515013415MN0160935N5+00445-00565100245ADDAA101000095GA1075+013415999GD13991+0134159GF107991999999999999999999MA1100075099235OC100825REMMET10201/02/12 10:53:02 METAR KMHT 021553Z 26010G16KT 10SM BKN044 04/M06 A2955 RMK AO2 SLP024 T00441056 (CZ)
0205743945147102012010216537+42933-071438FM-15+0071KMHT V0202405N006752200059N0160935N5+00505-00835100165ADDAA101000095GA1045+016765999GD12991+0167659GF104991999999999999999999MA1100035099195OC101085REMMET10201/02/12 11:53:02 METAR KMHT 021653Z 24013G21KT 10SM SCT055 05/M08 A2954 RMK AO2 SLP016 T00501083 (CZ)
0263743945147102012010217537+42933-071438FM-15+0071KMHT V0202505N00515015245MN0160935N5+00505-00835100175ADDAA101000095GA1075+015245999GD13991+0152459GF107991999999999999999999KA1999M+00561KA2999N+00221MA1100035099195MD1540114+9999OC101035REMMET12001/02/12 12:53:02 METAR KMHT 021753Z 25010G20KT 10SM BKN050 05/M08 A2954 RMK AO2 SLP017 T00501083 10056 20022 55011 (CZ)
0205743945147102012010218537+42933-071438FM-15+0071KMHT V0202605N005152200059N0160935N5+00445-00895100195ADDAA101000095GA1045+016765999GD12991+0167659GF104991999999999999999999MA1100035099195OC100885REMMET10201/02/12 13:53:02 METAR KMHT 021853Z 26010G17KT 10SM SCT055 04/M09 A2954 RMK AO2 SLP019 T00441089 (JS)
0205743945147102012010219537+42933-071438FM-15+0071KMHT V0202605V005152200059N0160935N5+00395-00895100275ADDAA101000095GA1025+015245999GD11991+0152459GF102991999999999999999999MA1100105099265OC100825REMMET10201/02/12 14:53:02 METAR KMHT 021953Z 26010G16KT 10SM FEW050 04/M09 A2956 RMK AO2 SLP027 T00391089 (JS)
0225743945147102012010220537+42933-071438FM-15+0071KMHT V0202405N00515019815MN0160935N5+00395-00895100325ADDAA101000095GA1075+019815999GD13991+0198159GF107991999999999999999999MA1100175099335MD1340144+9999OC100985REMMET10801/02/12 15:53:02 METAR KMHT 022053Z 24010G19KT 10SM BKN065 04/M09 A2958 RMK AO2 SLP032 T00391089 53014 (JS)
0194743945147102012010221537+42933-071438FM-15+0071KMHT V0202405N002652200059N0160935N5+00285-00895100405ADDAA101000095GA1025+019815999GD11991+0198159GF102991999999999999999999MA1100245099395REMMET09901/02/12 16:53:02 METAR KMHT 022153Z 24005KT 10SM FEW065 03/M09 A2960 RMK AO2 SLP040 T00281089 (JS)
0160743945147102012010222537+42933-071438FM-15+0071KMHT V0202305N001552200059N0160935N5+00225-00895100495ADDAA101000095GF100991999999999999999999MA1100345099495REMMET09601/02/12 17:53:02 METAR KMHT 022253Z 23003KT 10SM CLR 02/M09 A2963 RMK AO2 SLP049 T00221089 (JS)
0218743945147102012010223537+42933-071438FM-15+0071KMHT V0201905N001552200059N0160935N5+00115-00835100575ADDAA101000095GF100991999999999999999999KA1999M+00501KA2999N+00111MA1100415099565MD1140244+9999REMMET11401/02/12 18:53:02 METAR KMHT 022353Z 19003KT 10SM CLR 01/M08 A2965 RMK AO2 SLP057 T00111083 10050 20011 51024 (JS)
0155743945147102012010300537+42933-071438FM-15+0071KMHT V0209999V002152200059N0160935N5+00115-00945100595ADDAA101000095GF100991999999999999999999MA1100415099565REMMET09101/02/12 19:53:01 METAR KMHT 030053Z VRB04KT 10SM CLR 01/M09 A2965 RMK AO2 SLP059 T00111094
0155743945147102012010301537+42933-071438FM-15+0071KMHT V0202405N002652200059N0160935N5+00065-00945100645ADDAA101000095GF100991999999999999999999MA1100475099635REMMET09101/02/12 20:53:01 METAR KMHT 030153Z 24005KT 10SM CLR 01/M09 A2967 RMK AO2 SLP064 T00061094
0175743945147102012010302537+42933-071438FM-15+0071KMHT V0202605N002152200059N0160935N5+00065-01005100655ADDAA101000095GF100991999999999999999999MA1100475099635MD1140084+9999REMMET09701/02/12 21:53:01 METAR KMHT 030253Z 26004KT 10SM CLR 01/M10 A2967 RMK AO2 SLP065 T00061100 51008
0155743945147102012010303537+42933-071438FM-15+0071KMHT V0209999V002652200059N0160935N5+00005-00945100645ADDAA101000095GF100991999999999999999999MA1100475099635REMMET09101/02/12 22:53:01 METAR KMHT 030353Z VRB05KT 10SM CLR 00/M09 A2967 RMK AO2 SLP064 T00001094
0166743945147102012010304537+42933-071438FM-15+0071KMHT V0202805N003152200059N0160935N5-00065-01065100655ADDAA101000095GF100991999999999999999999MA1100475099635REMMET10201/02/12 23:53:01 METAR KMHT 030453Z 28006KT 10SM CLR M01/M11 A2967 RMK AO2 SLP065 T10061106 400721006
0912743945147102012010304596+42933-071438SOD  +0071KMHT V020999999999999999999999999999+99999+99999999999ADDAA124000395AX1015245KA1240M+00725KA2240N-00055MG1099294100034OE11240134129003295OE22240089429003325OE33240033599999995REMSOD74724 HR PRECIPITATION (IN):0.01  WEATHER(CODE):1  24 HR MAX TEMP (F):45 24 HR MAX TEMP TIME (LST):0311 24 HR MIN TEMP (F):31 24 HR MIN TEMP TIME (LST):2359 AVERAGE STATION PRESSURE:29.320 MINIMUM SEA LEVEL PRESSURE:29.54 TIME OF OCCURRENCE:0310 PEAK WIND SPEED (MPH):30  PEAK WIND DIR (DEG):290 PEAK WIND TIME (LST):0329  FASTEST 2MIN SPEED (MPH):20 FASTEST 2MIN DIR (DEG):290 FASTEST 2MIN TIME (LST):0332 AVERAGE WIND SPEED (MPH):7.5  24 HR AVG TEMP (F):38 HEATING DEGREE DAYS:27  COOLING DEGREE DAYS:0   LATEST DAY MAX TEMP (0700-1900 LST):42  LATEST NIGHT MIN TEMP(1900-0800 LST):36 HOURLY INCREMENTAL PRECIPITATION VALUES (IN):.01 0.00 0.00 T    0.00 0.00 0.00 0.00 0.00 0.00 0.00 0.00 0.00 0.00 0.00 0.00 0.00 0.00 0.00 0.00 0.00 0.00 0.00 0.00EQDR01     N7GJS072R02     N7GKS075
0220743945147102012010305537+42933-071438FM-15+0071KMHT V0202405N001552200059N0160935N5-00115-01115100685ADDAA101000095GF100991999999999999999999KA1999M+00111KA2999N-00111MA1100515099665MD1340034+9999REMMET11601/03/12 00:53:02 METAR KMHT 030553Z 24003KT 10SM CLR M01/M11 A2968 RMK AO2 SLP068 T10111111 10011 21011 53003 (STJ)
0196743945147102012010306537+42933-071438FM-15+0071KMHT V0209999C00005018295MN0160935N5-00115-01115100735ADDAA101000095GA1085+018295999GD14991+0182959GF108991999999999999999999MA1100585099735REMMET10101/03/12 01:53:02 METAR KMHT 030653Z 00000KT 10SM OVC060 M01/M11 A2970 RMK AO2 SLP073 T10111111 (STJ)
0196743945147102012010307537+42933-071438FM-15+0071KMHT V0202705N002152200059N0160935N5-00225-01065100755ADDAA101000095GA1025+018295999GD11991+0182959GF102991999999999999999999MA1100585099735REMMET10101/03/12 02:53:02 METAR KMHT 030753Z 27004KT 10SM FEW060 M02/M11 A2970 RMK AO2 SLP075 T10221106 (STJ)
0182743945147102012010308537+42933-071438FM-15+0071KMHT V0203105N004152200059N0160935N5-00225-01175100725ADDAA101000095GF100991999999999999999999MA1100545099705MD1040044+9999REMMET10401/03/12 03:53:02 METAR KMHT 030853Z 31008KT 10SM CLR M02/M12 A2969 RMK AO2 SLP072 T10221117 50004 (STJ)
0162743945147102012010309537+42933-071438FM-15+0071KMHT V0203005N003652200059N0160935N5-00285-01225100795ADDAA101000095GF100991999999999999999999MA1100615099765REMMET09801/03/12 04:53:02 METAR KMHT 030953Z 30007KT 10SM CLR M03/M12 A2971 RMK AO2 SLP079 T10281122 (STJ)
0161743945147102012010310537+42933-071438FM-15+0071KMHT V0202905N004152200059N0160935N5-00335-01445100865ADDAA101000095GF100991999999999999999999MA1100685099835REMMET09701/03/12 05:53:02 METAR KMHT 031053Z 29008KT 10SM CLR M03/M14 A2973 RMK AO2 SLP086 T10331144 (CZ)
0253743945147102012010311537+42933-071438FM-15+0071KMHT V0203205N004652200059N0160935N5-00445-01395100995ADDAA101000095GA1025+014025999GD11991+0140259GF102991999999999999999999KA1999M-00111KA2999N-00441MA1100815099975MD1340264+9999REMMET11801/03/12 06:53:02 METAR KMHT 031153Z 32009KT 10SM FEW046 M04/M14 A2977 RMK AO2 SLP099 T10441139 11011 21044 53026 (CZ)
0195743945147102012010312537+42933-071438FM-15+0071KMHT V0203005N004152200059N0160935N5-00445-01445101085ADDAA101000095GA1025+014025999GD11991+0140259GF102991999999999999999999MA1100915100075REMMET10001/03/12 07:53:02 METAR KMHT 031253Z 30008KT 10SM FEW046 M04/M14 A2980 RMK AO2 SLP108 T10441144 (CZ)
0195743945147102012010313537+42933-071438FM-15+0071KMHT V0203105N004652200059N0160935N5-00445-01505101155ADDAA101000095GA1025+013115999GD11991+0131159GF102991999999999999999999MA1100985100135REMMET10001/03/12 08:53:02 METAR KMHT 031353Z 31009KT 10SM FEW043 M04/M15 A2982 RMK AO2 SLP115 T10441150 (CZ)
0215743945147102012010314537+42933-071438FM-15+0071KMHT V0203405N00675010365MN0160935N5-00505-01285101185ADDAA101000095GA1075+010365999GD13991+0103659GF107991999999999999999999MA1100985100135MD1140184+9999REMMET10601/03/12 09:53:02 METAR KMHT 031453Z 34013KT 10SM BKN034 M05/M13 A2982 RMK AO2 SLP118 T10501128 51018 (CZ)
0206743945147102012010315537+42933-071438FM-15+0071KMHT V0203205N00625012505MN0160935N5-00505-01445101155ADDAA101000095GA1075+012505999GD13991+0125059GF107991999999999999999999MA1100955100105OC100985REMMET10301/03/12 10:53:02 METAR KMHT 031553Z 32012G19KT 10SM BKN041 M05/M14 A2981 RMK AO2 SLP115 T10501144 (CZ)
0206743945147102012010316537+42933-071438FM-15+0071KMHT V0203205N005152200059N0160935N5-00615-01565101195ADDAA101000095GA1045+012505999GD12991+0125059GF104991999999999999999999MA1100985100135OC101035REMMET10301/03/12 11:53:02 METAR KMHT 031653Z 32010G20KT 10SM SCT041 M06/M16 A2982 RMK AO2 SLP119 T10611156 (CZ)
0264743945147102012010317537+42933-071438FM-15+0071KMHT V0203205N004652200059N0160935N5-00505-01675101125ADDAA101000095GA1025+012505999GD11991+0125059GF102991999999999999999999KA1999M-00441KA2999N-00611MA1100955100105MD1840064+9999OC101035REMMET12101/03/12 12:53:02 METAR KMHT 031753Z 32009G20KT 10SM FEW041 M05/M17 A2981 RMK AO2 SLP112 T10501167 11044 21061 58006 (CZ)
0195743945147102012010318537+42933-071438FM-15+0071KMHT V0203205N006252200059N0160935N5-00505-01835101215ADDAA101000095GA1025+012505999GD11991+0125059GF102991999999999999999999MA1101025100175REMMET10001/03/12 13:53:02 METAR KMHT 031853Z 32012KT 10SM FEW041 M05/M18 A2983 RMK AO2 SLP121 T10501183 (JS)
0206743945147102012010319537+42933-071438FM-15+0071KMHT V0203405N007252200059N0160935N5-00565-01835101275ADDAA101000095GA1025+012195999GD11991+0121959GF102991999999999999999999MA1101085100235OC101085REMMET10301/03/12 14:53:02 METAR KMHT 031953Z 34014G21KT 10SM FEW040 M06/M18 A2985 RMK AO2 SLP127 T10561183 (JS)
0181743945147102012010320537+42933-071438FM-15+0071KMHT V0203205N003652200059N0160935N5-00675-01835101435ADDAA101000095GF100991999999999999999999MA1101225100375MD1340294+9999REMMET10301/03/12 15:53:02 METAR KMHT 032053Z 32007KT 10SM CLR M07/M18 A2989 RMK AO2 SLP143 T10671183 53029 (JS)
0172743945147102012010321537+42933-071438FM-15+0071KMHT V0203405N007752200059N0160935N5-00785-01945101495ADDAA101000095GF100991999999999999999999MA1101295100445OC100985REMMET10001/03/12 16:53:02 METAR KMHT 032153Z 34015G19KT 10SM CLR M08/M19 A2991 RMK AO2 SLP149 T10781194 (JS)
0172743945147102012010322537+42933-071438FM-15+0071KMHT V0203305N007252200059N0160935N5-00835-02175101625ADDAA101000095GF100991999999999999999999MA1101425100575OC100985REMMET10001/03/12 17:53:02 METAR KMHT 032253Z 33014G19KT 10SM CLR M08/M22 A2995 RMK AO2 SLP162 T10831217 (JS)
0248743945147102012010323537+42933-071438FM-15+0071KMHT V0203205N008852200059N0160935N5-01005-02225101785ADDAA101000095GF100991999999999999999999KA1999M-00501KA2999N-01001MA1101565100715MD1340344+9999OC101135REMMET13601/03/12 18:53:02 METAR KMHT 032353Z 32017G22KT 10SM CLR M10/M22 A2999 RMK AO2 PK WND 33026/2324 SLP178 T11001222 11050 21100 53034 (JS)
0167743945147102012010400537+42933-071438FM-15+0071KMHT V0203305N004652200059N0160935N5-01065-02115101865ADDAA101000095GF100991999999999999999999MA1101665100815OC101135REMMET09501/03/12 19:53:01 METAR KMHT 040053Z 33009G22KT 10SM CLR M11/M21 A3002 RMK AO2 SLP186 T11061211
0167743945147102012010401537+42933-071438FM-15+0071KMHT V0203305N005752200059N0160935N5-01115-02065101845ADDAA101000095GF100991999999999999999999MA1101635100775OC101185REMMET09501/03/12 20:53:01 METAR KMHT 040153Z 33011G23KT 10SM CLR M11/M21 A3001 RMK AO2 SLP184 T11111206
0187743945147102012010402537+42933-071438FM-15+0071KMHT V0203205N007752200059N0160935N5-01175-02005101825ADDAA101000095GF100991999999999999999999MA1101635100775MD1040044+9999OC101135REMMET10101/03/12 21:53:01 METAR KMHT 040253Z 32015G22KT 10SM CLR M12/M20 A3001 RMK AO2 SLP182 T11171200 50004
0167743945147102012010403537+42933-071438FM-15+0071KMHT V0203205N007752200059N0160935N5-01225-02065101785ADDAA101000095GF100991999999999999999999MA1101565100715OC101245REMMET09501/03/12 22:53:01 METAR KMHT 040353Z 32015G24KT 10SM CLR M12/M21 A2999 RMK AO2 SLP178 T11221206
0195743945147102012010404537+42933-071438FM-15+0071KMHT V0203205N008852200059N0160935N5-01285-02065101755ADDAA101000095GF100991999999999999999999MA1101525100675OC101245REMMET12301/03/12 23:53:01 METAR KMHT 040453Z 32017G24KT 10SM CLR M13/M21 A2998 RMK AO2 PK WND 33026/0427 SLP175 T11281206 410061128
0886743945147102012010404596+42933-071438SOD  +0071KMHT V020999999999999999999999999999+99999+99999999999ADDAA124000095KA1240M-00055KA2240N-01275MG1100104100644OE11240134133023275OE22240102833023285OE33240052899999995REMSOD73024 HR PRECIPITATION (IN):0.00  24 HR MAX TEMP (F):31 24 HR MAX TEMP TIME (LST):0052 24 HR MIN TEMP (F):9  24 HR MIN TEMP TIME (LST):2359 AVERAGE STATION PRESSURE:29.560 MINIMUM SEA LEVEL PRESSURE:29.72 TIME OF OCCURRENCE:0033 PEAK WIND SPEED (MPH):30  PEAK WIND DIR (DEG):330 PEAK WIND TIME (LST):2327  FASTEST 2MIN SPEED (MPH):23 FASTEST 2MIN DIR (DEG):330 FASTEST 2MIN TIME (LST):2328 AVERAGE WIND SPEED (MPH):11.8 24 HR AVG TEMP (F):20 HEATING DEGREE DAYS:45  COOLING DEGREE DAYS:0   LATEST DAY MAX TEMP (0700-1900 LST):24  LATEST NIGHT MIN TEMP(1900-0800 LST):23 HOURLY INCREMENTAL PRECIPITATION VALUES (IN):.00 0.00 0.00 0.00 0.00 0.00 0.00 0.00 0.00 0.00 0.00 0.00 0.00 0.00 0.00 0.00 0.00 0.00 0.00 0.00 0.00 0.00 0.00 0.00EQDR01     N7GJS072R02     N7GKS075
0231743945147102012010405537+42933-071438FM-15+0071KMHT V0203405N004652200059N0160935N5-01335-02115101815ADDAA101000095GF100991999999999999999999KA1999M-01001KA2999N-01331MA1101595100745MD1540014+9999OC101035REMMET11901/04/12 00:53:02 METAR KMHT 040553Z 34009G20KT 10SM CLR M13/M21 A3000 RMK AO2 SLP181 T11331211 11100 21133 55001 (STJ)
0162743945147102012010406537+42933-071438FM-15+0071KMHT V0203305N003652200059N0160935N5-01335-02115101945ADDAA101000095GF100991999999999999999999MA1101735100875REMMET09801/04/12 01:53:02 METAR KMHT 040653Z 33007KT 10SM CLR M13/M21 A3004 RMK AO2 SLP194 T11331211 (STJ)
0173743945147102012010407537+42933-071438FM-15+0071KMHT V0203305N004652200059N0160935N5-01395-02115101985ADDAA101000095GF100991999999999999999999MA1101765100915OC100885REMMET10101/04/12 02:53:02 METAR KMHT 040753Z 33009G17KT 10SM CLR M14/M21 A3005 RMK AO2 SLP198 T11391211 (STJ)
0182743945147102012010408537+42933-071438FM-15+0071KMHT V0203205N003652200059N0160935N5-01395-02115101985ADDAA101000095GF100991999999999999999999MA1101765100915MD1140164+9999REMMET10401/04/12 03:53:02 METAR KMHT 040853Z 32007KT 10SM CLR M14/M21 A3005 RMK AO2 SLP198 T11391211 51016 (STJ)
0173743945147102012010409537+42933-071438FM-15+0071KMHT V0203305N004152200059N0160935N5-01395-02115101975ADDAA101000095GF100991999999999999999999MA1101765100915OC100825REMMET10101/04/12 04:53:02 METAR KMHT 040953Z 33008G16KT 10SM CLR M14/M21 A3005 RMK AO2 SLP197 T11391211 (STJ)
0161743945147102012010410537+42933-071438FM-15+0071KMHT V0203305N003152200059N0160935N5-01395-02065101995ADDAA101000095GF100991999999999999999999MA1101765100915REMMET09701/04/12 05:53:02 METAR KMHT 041053Z 33006KT 10SM CLR M14/M21 A3005 RMK AO2 SLP199 T11391206 (CZ)
0230743945147102012010411537+42933-071438FM-15+0071KMHT V0203205N005752200059N0160935N5-01445-02065102065ADDAA101000095GF100991999999999999999999KA1999M-01331KA2999N-01441MA1101835100975MD1340064+9999OC100885REMMET11801/04/12 06:53:02 METAR KMHT 041153Z 32011G17KT 10SM CLR M14/M21 A3007 RMK AO2 SLP206 T11441206 11133 21144 53006 (CZ)
0161743945147102012010412537+42933-071438FM-15+0071KMHT V0209999V002152200059N0160935N5-01395-02065102085ADDAA101000095GF100991999999999999999999MA1101865101015REMMET09701/04/12 07:53:02 METAR KMHT 041253Z VRB04KT 10SM CLR M14/M21 A3008 RMK AO2 SLP208 T11391206 (CZ)
0161743945147102012010413537+42933-071438FM-15+0071KMHT V0203105N004152200059N0160935N5-01285-02005102135ADDAA101000095GF100991999999999999999999MA1101905101045REMMET09701/04/12 08:53:02 METAR KMHT 041353Z 31008KT 10SM CLR M13/M20 A3009 RMK AO2 SLP213 T11281200 (CZ)
0181743945147102012010414537+42933-071438FM-15+0071KMHT V0203305N004152200059N0160935N5-01065-02005102085ADDAA101000095GF100991999999999999999999MA1101865101015MD1040034+9999REMMET10301/04/12 09:53:02 METAR KMHT 041453Z 33008KT 10SM CLR M11/M20 A3008 RMK AO2 SLP208 T11061200 50003 (CZ)
0161743945147102012010415537+42933-071438FM-15+0071KMHT V0203105N003652200059N0160935N5-00895-02065102005ADDAA101000095GF100991999999999999999999MA1101765100915REMMET09701/04/12 10:53:02 METAR KMHT 041553Z 31007KT 10SM CLR M09/M21 A3005 RMK AO2 SLP200 T10891206 (CZ)
0161743945147102012010416537+42933-071438FM-15+0071KMHT V0203205N003652200059N0160935N5-00725-02065101845ADDAA101000095GF100991999999999999999999MA1101635100775REMMET09701/04/12 11:53:02 METAR KMHT 041653Z 32007KT 10SM CLR M07/M21 A3001 RMK AO2 SLP184 T10721206 (CZ)
0253743945147102012010417537+42933-071438FM-15+0071KMHT V0203205N004652200059N0160935N5-00565-02065101785ADDAA101000095GA1025+033535999GD11991+0335359GF102991999999999999999999KA1999M-00561KA2999N-01441MA1101565100715MD1640304+9999REMMET11801/04/12 12:53:02 METAR KMHT 041753Z 32009KT 10SM FEW110 M06/M21 A2999 RMK AO2 SLP178 T10561206 11056 21144 56030 (CZ)
0195743945147102012010418537+42933-071438FM-15+0071KMHT V0202905N003652200059N0160935N5-00505-02065101715ADDAA101000095GA1025+033535999GD11991+0335359GF102991999999999999999999MA1101495100645REMMET10001/04/12 13:53:02 METAR KMHT 041853Z 29007KT 10SM FEW110 M05/M21 A2997 RMK AO2 SLP171 T10501206 (JS)
0195743945147102012010419537+42933-071438FM-15+0071KMHT V0202305N00265030485MN0160935N5-00505-01945101695ADDAA101000095GA1075+030485999GD13991+0304859GF107991999999999999999999MA1101465100605REMMET10001/04/12 14:53:02 METAR KMHT 041953Z 23005KT 10SM BKN100 M05/M19 A2996 RMK AO2 SLP169 T10501194 (JS)
0215743945147102012010420537+42933-071438FM-15+0071KMHT V0202505N00155033535MN0160935N5-00505-01945101675ADDAA101000095GA1075+033535999GD13991+0335359GF107991999999999999999999MA1101465100605MD1640104+9999REMMET10601/04/12 15:53:02 METAR KMHT 042053Z 25003KT 10SM BKN110 M05/M19 A2996 RMK AO2 SLP167 T10501194 56010 (JS)
0195743945147102012010421537+42933-071438FM-15+0071KMHT V0209999V00155027435MN0160935N5-00445-01895101655ADDAA101000095GA1085+027435999GD14991+0274359GF108991999999999999999999MA1101465100605REMMET10001/04/12 16:53:02 METAR KMHT 042153Z VRB03KT 10SM OVC090 M04/M19 A2996 RMK AO2 SLP165 T10441189 (JS)
0195743945147102012010422537+42933-071438FM-15+0071KMHT V0202005N00265024385MN0160935N5-00445-01895101625ADDAA101000095GA1085+024385999GD14991+0243859GF108991999999999999999999MA1101425100575REMMET10001/04/12 17:53:02 METAR KMHT 042253Z 20005KT 10SM OVC080 M04/M19 A2995 RMK AO2 SLP162 T10441189 (JS)
0253743945147102012010423537+42933-071438FM-15+0071KMHT V0201905N00265024385MN0160935N5-00445-01785101645ADDAA101000095GA1085+024385999GD14991+0243859GF108991999999999999999999KA1999M-00441KA2999N-00561MA1101425100575MD1540034+9999REMMET11801/04/12 18:53:02 METAR KMHT 042353Z 19005KT 10SM OVC080 M04/M18 A2995 RMK AO2 SLP164 T10441178 11044 21056 55003 (JS)
0190743945147102012010500537+42933-071438FM-15+0071KMHT V0201905N00365022865MN0160935N5-00445-01725101565ADDAA101000095GA1085+022865999GD14991+0228659GF108991999999999999999999MA1101355100505REMMET09501/04/12 19:53:01 METAR KMHT 050053Z 19007KT 10SM OVC075 M04/M17 A2993 RMK AO2 SLP156 T10441172
0228743945147102012010501537+42933-071438FM-15+0071KMHT V0201805N002652200059N0160935N5-00445-01615101505ADDAA101000095GA1025+022865999GA2045+033535999GD11991+0228659GD22991+0335359GF104991999999999999999999MA1101295100445REMMET10201/04/12 20:53:01 METAR KMHT 050153Z 18005KT 10SM FEW075 SCT110 M04/M16 A2991 RMK AO2 SLP150 T10441161
0248743945147102012010502537+42933-071438FM-15+0071KMHT V0202105N00215024385MN0160935N5-00445-01565101465ADDAA101000095GA1025+019815999GA2085+024385999GD11991+0198159GD24991+0243859GF108991999999999999999999MA1101255100405MD1640174+9999REMMET10801/04/12 21:53:01 METAR KMHT 050253Z 21004KT 10SM FEW065 OVC080 M04/M16 A2990 RMK AO2 SLP146 T10441156 56017
0190743945147102012010503537+42933-071438FM-15+0071KMHT V0202005N00265024385MN0160935N5-00445-01565101415ADDAA101000095GA1085+024385999GD14991+0243859GF108991999999999999999999MA1101225100375REMMET09501/04/12 22:53:01 METAR KMHT 050353Z 20005KT 10SM OVC080 M04/M16 A2989 RMK AO2 SLP141 T10441156
0200743945147102012010504537+42933-071438FM-15+0071KMHT V0202205N00155021345MN0160935N5-00445-01565101355ADDAA101000095GA1085+021345999GD14991+0213459GF108991999999999999999999MA1101155100305REMMET10501/04/12 23:53:01 METAR KMHT 050453Z 22003KT 10SM OVC070 M04/M16 A2987 RMK AO2 SLP135 T10441156 410441144
0886743945147102012010504596+42933-071438SOD  +0071KMHT V020999999999999999999999999999+99999+99999999999ADDAA124000095KA1240M-00435KA2240N-01435MG1100734101354OE11240111833000115OE22240093932023555OE33240032699999995REMSOD73024 HR PRECIPITATION (IN):0.00  24 HR MAX TEMP (F):24 24 HR MAX TEMP TIME (LST):2359 24 HR MIN TEMP (F):6  24 HR MIN TEMP TIME (LST):0733 AVERAGE STATION PRESSURE:29.745 MINIMUM SEA LEVEL PRESSURE:29.93 TIME OF OCCURRENCE:2359 PEAK WIND SPEED (MPH):25  PEAK WIND DIR (DEG):330 PEAK WIND TIME (LST):0011  FASTEST 2MIN SPEED (MPH):21 FASTEST 2MIN DIR (DEG):320 FASTEST 2MIN TIME (LST):2355 AVERAGE WIND SPEED (MPH):7.3  24 HR AVG TEMP (F):15 HEATING DEGREE DAYS:50  COOLING DEGREE DAYS:0   LATEST DAY MAX TEMP (0700-1900 LST):24  LATEST NIGHT MIN TEMP(1900-0800 LST):6  HOURLY INCREMENTAL PRECIPITATION VALUES (IN):.00 0.00 0.00 0.00 0.00 0.00 0.00 0.00 0.00 0.00 0.00 0.00 0.00 0.00 0.00 0.00 0.00 0.00 0.00 0.00 0.00 0.00 0.00 0.00EQDR01     N7GJS072R02     N7GKS075
0254743945147102012010505537+42933-071438FM-15+0071KMHT V0202005N00155021345MN0160935N5-00445-01615101295ADDAA101000095GA1085+021345999GD14991+0213459GF108991999999999999999999KA1999M-00441KA2999N-00441MA1101085100235MD1840154+9999REMMET11901/05/12 00:53:02 METAR KMHT 050553Z 20003KT 10SM OVC070 M04/M16 A2985 RMK AO2 SLP129 T10441161 11044 21044 58015 (STJ)
0196743945147102012010506537+42933-071438FM-15+0071KMHT V0202305N00155021345MN0160935N5-00445-01565101255ADDAA101000095GA1085+021345999GD14991+0213459GF108991999999999999999999MA1101055100205REMMET10101/05/12 01:53:02 METAR KMHT 050653Z 23003KT 10SM OVC070 M04/M16 A2984 RMK AO2 SLP125 T10441156 (STJ)
0196743945147102012010507537+42933-071438FM-15+0071KMHT V0201905N00215021345MN0160935N5-00445-01505101215ADDAA101000095GA1085+021345999GD14991+0213459GF108991999999999999999999MA1101025100175REMMET10101/05/12 02:53:02 METAR KMHT 050753Z 19004KT 10SM OVC070 M04/M15 A2983 RMK AO2 SLP121 T10441150 (STJ)
0216743945147102012010508537+42933-071438FM-15+0071KMHT V0202105N00215021345MN0160935N5-00445-01445101185ADDAA101000095GA1085+021345999GD14991+0213459GF108991999999999999999999MA1100985100135MD1640114+9999REMMET10701/05/12 03:53:02 METAR KMHT 050853Z 21004KT 10SM OVC070 M04/M14 A2982 RMK AO2 SLP118 T10441144 56011 (STJ)
0196743945147102012010509537+42933-071438FM-15+0071KMHT V0201905N00215021345MN0160935N5-00445-01395101145ADDAA101000095GA1085+021345999GD14991+0213459GF108991999999999999999999MA1100955100105REMMET10101/05/12 04:53:02 METAR KMHT 050953Z 19004KT 10SM OVC070 M04/M14 A2981 RMK AO2 SLP114 T10441139 (STJ)
0195743945147102012010510537+42933-071438FM-15+0071KMHT V0201805N00155021345MN0160935N5-00445-01335101115ADDAA101000095GA1085+021345999GD14991+0213459GF108991999999999999999999MA1100915100075REMMET10001/05/12 05:53:02 METAR KMHT 051053Z 18003KT 10SM OVC070 M04/M13 A2980 RMK AO2 SLP111 T10441133 (CZ)
0253743945147102012010511537+42933-071438FM-15+0071KMHT V0202005N00155019815MN0160935N5-00445-01285101095ADDAA101000095GA1085+019815999GD14991+0198159GF108991999999999999999999KA1999M-00331KA2999N-00501MA1100885100035MD1640094+9999REMMET11801/05/12 06:53:02 METAR KMHT 051153Z 20003KT 10SM OVC065 M04/M13 A2979 RMK AO2 SLP109 T10441128 11033 21050 56009 (CZ)
0195743945147102012010512537+42933-071438FM-15+0071KMHT V0201905N00215019815MN0160935N5-00445-01225101075ADDAA101000095GA1085+019815999GD14991+0198159GF108991999999999999999999MA1100885100035REMMET10001/05/12 07:53:02 METAR KMHT 051253Z 19004KT 10SM OVC065 M04/M12 A2979 RMK AO2 SLP107 T10441122 (CZ)
0195743945147102012010513537+42933-071438FM-15+0071KMHT V0201905N00155019815MN0160935N5-00395-01175101125ADDAA101000095GA1085+019815999GD14991+0198159GF108991999999999999999999MA1100915100075REMMET10001/05/12 08:53:02 METAR KMHT 051353Z 19003KT 10SM OVC065 M04/M12 A2980 RMK AO2 SLP112 T10391117 (CZ)
0215743945147102012010514537+42933-071438FM-15+0071KMHT V0201905N00155019815MN0160935N5-00285-01065101095ADDAA101000095GA1085+019815999GD14991+0198159GF108991999999999999999999MA1100915100075MD1040014+9999REMMET10601/05/12 09:53:02 METAR KMHT 051453Z 19003KT 10SM OVC065 M03/M11 A2980 RMK AO2 SLP109 T10281106 50001 (CZ)
0195743945147102012010515537+42933-071438FM-15+0071KMHT V0202405N00315021345MN0160935N5-00115-00945100965ADDAA101000095GA1075+021345999GD13991+0213459GF107991999999999999999999MA1100785099935REMMET10001/05/12 10:53:02 METAR KMHT 051553Z 24006KT 10SM BKN070 M01/M09 A2976 RMK AO2 SLP096 T10111094 (CZ)
0194743945147102012010516537+42933-071438FM-15+0071KMHT V0209999C00005019815MN0160935N5+00005-00835100845ADDAA101000095GA1075+019815999GD13991+0198159GF107991999999999999999999MA1100645099805REMMET09901/05/12 11:53:02 METAR KMHT 051653Z 00000KT 10SM BKN065 00/M08 A2972 RMK AO2 SLP084 T00001083 (CZ)
0263743945147102012010517537+42933-071438FM-15+0071KMHT V0202905N00675018295MN0160935N5+00175-00785100785ADDAA101000095GA1075+018295999GD13991+0182959GF107991999999999999999999KA1999M+00171KA2999N-00441MA1100615099765MD1640294+9999OC100885REMMET12001/05/12 12:53:02 METAR KMHT 051753Z 29013G17KT 10SM BKN060 02/M08 A2971 RMK AO2 SLP078 T00171078 10017 21044 56029 (CZ)
0243743945147102012010518537+42933-071438FM-15+0071KMHT V0202605N00365019815MN0160935N5+00225-00725100805ADDAA101000095GA1025+012195999GA2075+019815999GD11991+0121959GD23991+0198159GF107991999999999999999999MA1100615099765OC100775REMMET10901/05/12 13:53:02 METAR KMHT 051853Z 26007G15KT 10SM FEW040 BKN065 02/M07 A2971 RMK AO2 SLP080 T00221072 (JS)
0243743945147102012010519537+42933-071438FM-15+0071KMHT V0202605N00465019815MN0160935N5+00115-00725100855ADDAA101000095GA1025+012805999GA2075+019815999GD11991+0128059GD23991+0198159GF107991999999999999999999MA1100685099835OC100775REMMET10901/05/12 14:53:02 METAR KMHT 051953Z 26009G15KT 10SM FEW042 BKN065 01/M07 A2973 RMK AO2 SLP085 T00111072 (JS)
0252743945147102012010520537+42933-071438FM-15+0071KMHT V0202705N00215021345MN0160935N5+00115-00675100915ADDAA101000095GA1045+012195999GA2085+021345999GD12991+0121959GD24991+0213459GF108991999999999999999999MA1100755099905MD1340134+9999REMMET11201/05/12 15:53:02 METAR KMHT 052053Z 27004KT 10SM SCT040 OVC070 01/M07 A2975 RMK AO2 SLP091 T00111067 53013 (JS)
0232743945147102012010521537+42933-071438FM-15+0071KMHT V0202705N00265012195MN0160935N5+00065-00675100995ADDAA101000095GA1075+012195999GA2075+019815999GD13991+0121959GD23991+0198159GF107991999999999999999999MA1100815099975REMMET10601/05/12 16:53:02 METAR KMHT 052153Z 27005KT 10SM BKN040 BKN065 01/M07 A2977 RMK AO2 SLP099 T00061067 (JS)
0232743945147102012010522537+42933-071438FM-15+0071KMHT V0203005N00515010365MN0160935N5+00005-00725101095ADDAA101000095GA1075+010365999GA2085+015245999GD13991+0103659GD24991+0152459GF108991999999999999999999MA1100885100035REMMET10601/05/12 17:53:02 METAR KMHT 052253Z 30010KT 10SM BKN034 OVC050 00/M07 A2979 RMK AO2 SLP109 T00001072 (JS)
0243743945147102012010523457+42933-071438FM-16+0071KMHT V0203305N00625007625MN0160935N5-00105-00705999999ADDGA1075+007625999GA2075+010365999GA3085+015245999GD13991+0076259GD23991+0103659GD34991+0152459GF108991999999999999999999MA1101025100175REMMET09701/05/12 18:45:02 SPECI KMHT 052345Z 33012KT 10SM BKN025 BKN034 OVC050 M01/M07 A2983 RMK AO2 (JS)
0340743945147102012010523537+42933-071438FM-15+0071KMHT V0203305N00415007625MN0160935N5-00065-00835101215ADDAA101000095GA1075+007625999GA2075+010365999GA3085+015245999GD13991+0076259GD23991+0103659GD34991+0152459GF108991999999999999999999KA1999M+00221KA2999N-00061MA1101025100175MD1340294+9999OC100825REMMET13501/05/12 18:53:02 METAR KMHT 052353Z 33008G16KT 10SM BKN025 BKN034 OVC050 M01/M08 A2983 RMK AO2 SLP121 T10061083 10022 21006 53029 (JS)
0249743945147102012010600157+42933-071438FM-16+0071KMHT V0203305N00515011585MN0160935N5-00105-00905999999ADDGA1045+008535999GA2075+011585999GA3085+016765999GD12991+0085359GD23991+0115859GD34991+0167659GF108991999999999999999999MA1101055100205OC100885REMMET09501/05/12 19:15:01 SPECI KMHT 060015Z 33010G17KT 10SM SCT028 BKN038 OVC055 M01/M09 A2984 RMK AO2
0228743945147102012010600537+42933-071438FM-15+0071KMHT V0203305N003152200059N0160935N5-00175-00895101315ADDAA101000095GA1045+012195999GA2045+016765999GD12991+0121959GD22991+0167659GF104991999999999999999999MA1101125100275REMMET10201/05/12 19:53:01 METAR KMHT 060053Z 33006KT 10SM SCT040 SCT055 M02/M09 A2986 RMK AO2 SLP131 T10171089
0228743945147102012010601537+42933-071438FM-15+0071KMHT V0203305N003652200059N0160935N5-00225-01005101335ADDAA101000095GA1045+009755999GA2045+013725999GD12991+0097559GD22991+0137259GF104991999999999999999999MA1101155100305REMMET10201/05/12 20:53:01 METAR KMHT 060153Z 33007KT 10SM SCT032 SCT045 M02/M10 A2987 RMK AO2 SLP133 T10221100
0210743945147102012010602537+42933-071438FM-15+0071KMHT V0203305N002652200059N0160935N5-00285-01115101415ADDAA101000095GA1025+012195999GD11991+0121959GF102991999999999999999999MA1101225100375MD1140194+9999REMMET10101/05/12 21:53:01 METAR KMHT 060253Z 33005KT 10SM FEW040 M03/M11 A2989 RMK AO2 SLP141 T10281111 51019
0156743945147102012010603537+42933-071438FM-15+0071KMHT V0209999C000052200059N0160935N5-00335-01005101405ADDAA101000095GF100991999999999999999999MA1101225100375REMMET09201/05/12 22:53:01 METAR KMHT 060353Z 00000KT 10SM CLR M03/M10 A2989 RMK AO2 SLP140 T10331100
0166743945147102012010604537+42933-071438FM-15+0071KMHT V0209999C000052200059N0160935N5-00445-01065101435ADDAA101000095GF100991999999999999999999MA1101255100405REMMET10201/05/12 23:53:01 METAR KMHT 060453Z 00000KT 10SM CLR M04/M11 A2990 RMK AO2 SLP143 T10441106 400221050
0886743945147102012010604596+42933-071438SOD  +0071KMHT V020999999999999999999999999999+99999+99999999999ADDAA124000095KA1240M+00225KA2240N-00495MG1100054100784OE11240098330014215OE22240067133019115OE33240024699999995REMSOD73024 HR PRECIPITATION (IN):0.00  24 HR MAX TEMP (F):36 24 HR MAX TEMP TIME (LST):1357 24 HR MIN TEMP (F):23 24 HR MIN TEMP TIME (LST):0606 AVERAGE STATION PRESSURE:29.545 MINIMUM SEA LEVEL PRESSURE:29.76 TIME OF OCCURRENCE:1353 PEAK WIND SPEED (MPH):22  PEAK WIND DIR (DEG):300 PEAK WIND TIME (LST):1421  FASTEST 2MIN SPEED (MPH):15 FASTEST 2MIN DIR (DEG):330 FASTEST 2MIN TIME (LST):1911 AVERAGE WIND SPEED (MPH):5.5  24 HR AVG TEMP (F):30 HEATING DEGREE DAYS:35  COOLING DEGREE DAYS:0   LATEST DAY MAX TEMP (0700-1900 LST):36  LATEST NIGHT MIN TEMP(1900-0800 LST):23 HOURLY INCREMENTAL PRECIPITATION VALUES (IN):.00 0.00 0.00 0.00 0.00 0.00 0.00 0.00 0.00 0.00 0.00 0.00 0.00 0.00 0.00 0.00 0.00 0.00 0.00 0.00 0.00 0.00 0.00 0.00EQDR01     N7GJS072R02     N7GKS075
0220743945147102012010605537+42933-071438FM-15+0071KMHT V0201505N001552200059N0160935N5-00615-01065101445ADDAA101000095GF100991999999999999999999KA1999M-00061KA2999N-00611MA1101255100405MD1340034+9999REMMET11601/06/12 00:53:02 METAR KMHT 060553Z 15003KT 10SM CLR M06/M11 A2990 RMK AO2 SLP144 T10611106 11006 21061 53003 (STJ)
0162743945147102012010606537+42933-071438FM-15+0071KMHT V0209999C000052200059N0160935N5-00565-01115101465ADDAA101000095GF100991999999999999999999MA1101295100445REMMET09801/06/12 01:53:02 METAR KMHT 060653Z 00000KT 10SM CLR M06/M11 A2991 RMK AO2 SLP146 T10561111 (STJ)
0272743945147102012010607537+42933-071438FM-15+0071KMHT V0201305N00155018295MN0160935N5-00505-01065101425ADDAA101000095GA1075+018295999GA2075+021345999GA3085+027435999GD13991+0182959GD23991+0213459GD34991+0274359GF108991999999999999999999MA1101255100405REMMET11501/06/12 02:53:02 METAR KMHT 060753Z 13003KT 10SM BKN060 BKN070 OVC090 M05/M11 A2990 RMK AO2 SLP142 T10501106 (STJ)
0289743945147102012010608537+42933-071438FM-15+0071KMHT V0209999C00005015245MN0160935N5-00505-01115101425ADDAA101000095GA1075+015245999GA2085+021345999GD13991+0152459GD24991+0213459GF108991999999999999999999MA1101255100405MD1840004+9999REMMET11401/06/12 03:53:02 METAR KMHT 060853Z 00000KT 10SM BKN050 OVC070 M05/M11 A2990 RMK AO2 SLP142 T10501111 58000 (STJ)EQDQ01+000082APCTENQ02+000002APC3  
0211743945147102012010609537+42933-071438FM-15+0071KMHT V0201605N00155011285MN0160935N5-00445-01005101415ADDAA101000025GA1085+011285999GD14991+0112859GF108991999999999999999999MA1101225100375REMMET11601/06/12 04:53:02 METAR KMHT 060953Z 16003KT 10SM OVC037 M04/M10 A2989 RMK AO2 SNB16E34 SLP141 P0000 T10441100 (STJ)
0272743945147102012010610537+42933-071438FM-15+0071KMHT V0209999C00005028965MN0160935N5-00395-00945101375ADDAA101000025AU110030015AW1715GA1045+021345999GA2085+028965999GD12991+0213459GD24991+0289659GF108991999999999999999999MA1101195100345MW1711REMMET12301/06/12 05:53:02 METAR KMHT 061053Z 00000KT 10SM -SN SCT070 OVC095 M04/M09 A2988 RMK AO2 SNB49 SLP137 P0000 T10391094 (CZ)
0301743945147102012010611537+42933-071438FM-15+0071KMHT V0201305N00265021345MN0160935N5-00395-00945101345ADDAA101000025AA206000021GA1085+021345999GD14991+0213459GF108991999999999999999999KA1999M-00391KA2999N-00611MA1101155100305MD1840094+9999REMMET13601/06/12 06:53:02 METAR KMHT 061153Z 13005KT 10SM OVC070 M04/M09 A2987 RMK AO2 SNE38 SLP134 P0000 60000 T10391094 11039 21061 58009 (CZ)EQDQ01  00008PRCP06
0248743945147102012010612537+42933-071438FM-15+0071KMHT V0201305N00265021345MN0160935N5-00335-00895101355ADDAA101000025GA1075+021345999GA2085+028965999GD13991+0213459GD24991+0289659GF108991999999999999999999MA1101155100305REMMET12201/06/12 07:53:02 METAR KMHT 061253Z 13005KT 10SM BKN070 OVC095 M03/M09 A2987 RMK AO2 UPB05E15 SLP135 P0000 T10331089 (CZ)
0233743945147102012010613537+42933-071438FM-15+0071KMHT V0201405N00265027435MN0160935N5-00285-00835101355ADDAA101000095GA1045+018295999GA2085+027435999GD12991+0182959GD24991+0274359GF108991999999999999999999MA1101155100305REMMET10701/06/12 08:53:02 METAR KMHT 061353Z 14005KT 10SM SCT060 OVC090 M03/M08 A2987 RMK AO2 SLP135 T10281083 (CZ)
0232743945147102012010614537+42933-071438FM-15+0071KMHT V0201605N00315024385MN0160935N5-00225-00725101325ADDAA101000095AA203000021GA1085+024385999GD14991+0243859GF108991999999999999999999MA1101125100275MD1840034+9999REMMET11201/06/12 09:53:02 METAR KMHT 061453Z 16006KT 10SM OVC080 M02/M07 A2986 RMK AO2 SLP132 60000 T10221072 58003 (CZ)
0233743945147102012010615537+42933-071438FM-15+0071KMHT V0201505N00155016765MN0160935N5-00115-00675101225ADDAA101000095GA1075+016765999GA2085+021345999GD13991+0167659GD24991+0213459GF108991999999999999999999MA1101055100205REMMET10701/06/12 10:53:02 METAR KMHT 061553Z 15003KT 10SM BKN055 OVC070 M01/M07 A2984 RMK AO2 SLP122 T10111067 (CZ)
0194743945147102012010616537+42933-071438FM-15+0071KMHT V0209999C000052200059N0160935N5+00115-00615101045ADDAA101000095GA1025+016765999GD11991+0167659GF102991999999999999999999MA1100855100005REMMET09901/06/12 11:53:02 METAR KMHT 061653Z 00000KT 10SM FEW055 01/M06 A2978 RMK AO2 SLP104 T00111061 (CZ)
0269743945147102012010617537+42933-071438FM-15+0071KMHT V0209999C000052200059N0160935N5+00285-00565100955ADDAA101000095AA206000021GA1025+016765999GD11991+0167659GF102991999999999999999999KA1999M+00281KA2999N-00391MA1100785099935MD1640354+9999REMMET12301/06/12 12:53:02 METAR KMHT 061753Z 00000KT 10SM FEW055 03/M06 A2976 RMK AO2 SLP095 60000 T00281056 10028 21039 56035 (CZ)
0194743945147102012010618537+42933-071438FM-15+0071KMHT V0209999C000052200059N0160935N5+00395-00505100875ADDAA101000095GA1025+024385999GD11991+0243859GF102991999999999999999999MA1100685099835REMMET09901/06/12 13:53:02 METAR KMHT 061853Z 00000KT 10SM FEW080 04/M05 A2973 RMK AO2 SLP087 T00391050 (JS)
0194743945147102012010619537+42933-071438FM-15+0071KMHT V0209999C000052200059N0160935N5+00565-00395100845ADDAA101000095GA1025+024385999GD11991+0243859GF102991999999999999999999MA1100645099805REMMET09901/06/12 14:53:02 METAR KMHT 061953Z 00000KT 10SM FEW080 06/M04 A2972 RMK AO2 SLP084 T00561039 (JS)
0180743945147102012010620537+42933-071438FM-15+0071KMHT V0203405N003652200059N0160935N5+00395-00505100855ADDAA101000095GF100991999999999999999999MA1100685099835MD1540104+9999REMMET10201/06/12 15:53:02 METAR KMHT 062053Z 34007KT 10SM CLR 04/M05 A2973 RMK AO2 SLP085 T00391050 55010 (JS)
0160743945147102012010621537+42933-071438FM-15+0071KMHT V0203405N003652200059N0160935N5+00115-00565100885ADDAA101000095GF100991999999999999999999MA1100715099865REMMET09601/06/12 16:53:02 METAR KMHT 062153Z 34007KT 10SM CLR 01/M06 A2974 RMK AO2 SLP088 T00111056 (JS)
0160743945147102012010622537+42933-071438FM-15+0071KMHT V0203505N002652200059N0160935N5+00005-00565100905ADDAA101000095GF100991999999999999999999MA1100715099865REMMET09601/06/12 17:53:02 METAR KMHT 062253Z 35005KT 10SM CLR 00/M06 A2974 RMK AO2 SLP090 T00001056 (JS)
0218743945147102012010623537+42933-071438FM-15+0071KMHT V0203305N002652200059N0160935N5+00005-00565100925ADDAA101000095GF100991999999999999999999KA1999M+00611KA2999N+00001MA1100755099905MD1240074+9999REMMET11401/06/12 18:53:02 METAR KMHT 062353Z 33005KT 10SM CLR 00/M06 A2975 RMK AO2 SLP092 T00001056 10061 20000 52007 (JS)
0156743945147102012010700537+42933-071438FM-15+0071KMHT V0203405N001552200059N0160935N5-00065-00565100905ADDAA101000095GF100991999999999999999999MA1100715099865REMMET09201/06/12 19:53:01 METAR KMHT 070053Z 34003KT 10SM CLR M01/M06 A2974 RMK AO2 SLP090 T10061056
0156743945147102012010701537+42933-071438FM-15+0071KMHT V0209999C000052200059N0160935N5-00115-00565100905ADDAA101000095GF100991999999999999999999MA1100715099865REMMET09201/06/12 20:53:01 METAR KMHT 070153Z 00000KT 10SM CLR M01/M06 A2974 RMK AO2 SLP090 T10111056
0176743945147102012010702537+42933-071438FM-15+0071KMHT V0209999C000052200059N0160935N5-00115-00565100895ADDAA101000095GF100991999999999999999999MA1100715099865MD1640044+9999REMMET09801/06/12 21:53:01 METAR KMHT 070253Z 00000KT 10SM CLR M01/M06 A2974 RMK AO2 SLP089 T10111056 56004
0190743945147102012010703537+42933-071438FM-15+0071KMHT V0209999C000052200059N0160935N5-00225-00505100885ADDAA101000095GA1025+036585999GD11991+0365859GF102991999999999999999999MA1100715099865REMMET09501/06/12 22:53:01 METAR KMHT 070353Z 00000KT 10SM FEW120 M02/M05 A2974 RMK AO2 SLP088 T10221050
0166743945147102012010704537+42933-071438FM-15+0071KMHT V0209999C000052200059N0160935N5-00175-00505100855ADDAA101000095GF100991999999999999999999MA1100685099835REMMET10201/06/12 23:53:01 METAR KMHT 070453Z 00000KT 10SM CLR M02/M05 A2973 RMK AO2 SLP085 T10171050 400611061
0886743945147102012010704596+42933-071438SOD  +0071KMHT V020999999999999999999999999999+99999+99999999999ADDAA124000025KA1240M+00615KA2240N-00605MG1100124100814OE11240053635016505OE22240040234017145OE33240013099999995REMSOD73024 HR PRECIPITATION (IN):T     24 HR MAX TEMP (F):43 24 HR MAX TEMP TIME (LST):1509 24 HR MIN TEMP (F):21 24 HR MIN TEMP TIME (LST):0101 AVERAGE STATION PRESSURE:29.565 MINIMUM SEA LEVEL PRESSURE:29.77 TIME OF OCCURRENCE:1531 PEAK WIND SPEED (MPH):12  PEAK WIND DIR (DEG):350 PEAK WIND TIME (LST):1650  FASTEST 2MIN SPEED (MPH):9  FASTEST 2MIN DIR (DEG):340 FASTEST 2MIN TIME (LST):1714 AVERAGE WIND SPEED (MPH):2.9  24 HR AVG TEMP (F):32 HEATING DEGREE DAYS:33  COOLING DEGREE DAYS:0   LATEST DAY MAX TEMP (0700-1900 LST):43  LATEST NIGHT MIN TEMP(1900-0800 LST):21 HOURLY INCREMENTAL PRECIPITATION VALUES (IN):.00 0.00 0.00 0.00 T    T    T    T    0.00 0.00 0.00 0.00 0.00 0.00 0.00 0.00 0.00 0.00 0.00 0.00 0.00 0.00 0.00 0.00EQDR01     N7GJS072R02     N7GKS075
0218743945147102012010705537+42933-071438FM-15+0071KMHT V0209999C000052200059N0144845N5-00225-00565100835ADDAA101000095GF100991999999999999999999KA1999M+00001KA2999N-00221MA1100645099805MD1840064+9999REMMET11401/07/12 00:53:02 METAR KMHT 070553Z 00000KT 9SM CLR M02/M06 A2972 RMK AO2 SLP083 T10221056 10000 21022 58006 (RN)
0161743945147102012010706537+42933-071438FM-15+0071KMHT V0209999C000052200059N0160935N5-00175-00565100835ADDAA101000095GF100991999999999999999999MA1100685099835REMMET09701/07/12 01:53:02 METAR KMHT 070653Z 00000KT 10SM CLR M02/M06 A2973 RMK AO2 SLP083 T10171056 (RN)
0161743945147102012010707537+42933-071438FM-15+0071KMHT V0209999C000052200059N0160935N5-00175-00505100845ADDAA101000095GF100991999999999999999999MA1100685099835REMMET09701/07/12 02:53:02 METAR KMHT 070753Z 00000KT 10SM CLR M02/M05 A2973 RMK AO2 SLP084 T10171050 (RN)
0181743945147102012010708537+42933-071438FM-15+0071KMHT V0209999C000052200059N0160935N5-00175-00505100795ADDAA101000095GF100991999999999999999999MA1100615099765MD1840034+9999REMMET10301/07/12 03:53:02 METAR KMHT 070853Z 00000KT 10SM CLR M02/M05 A2971 RMK AO2 SLP079 T10171050 58003 (RN)
0161743945147102012010709537+42933-071438FM-15+0071KMHT V0209999C000052200059N0160935N5-00115-00505100785ADDAA101000095GF100991999999999999999999MA1100615099765REMMET09701/07/12 04:53:02 METAR KMHT 070953Z 00000KT 10SM CLR M01/M05 A2971 RMK AO2 SLP078 T10111050 (RN)
0161743945147102012010710537+42933-071438FM-15+0071KMHT V0209999C000052200059N0160935N5-00285-00565100815ADDAA101000095GF100991999999999999999999MA1100645099805REMMET09701/07/12 05:53:02 METAR KMHT 071053Z 00000KT 10SM CLR M03/M06 A2972 RMK AO2 SLP081 T10281056 (RN)
0218743945147102012010711537+42933-071438FM-15+0071KMHT V0209999C000052200059N0144845N5-00335-00565100875ADDAA101000095GF100991999999999999999999KA1999M-00111KA2999N-00331MA1100685099835MD1340074+9999REMMET11401/07/12 06:53:02 METAR KMHT 071153Z 00000KT 9SM CLR M03/M06 A2973 RMK AO2 SLP087 T10331056 11011 21033 53007 (CD)
0194743945147102012010712537+42933-071438FM-15+0071KMHT V0209999C000052200059N0128755N5-00225-00505100875ADDAA101000095GA1025+036585999GD11991+0365859GF102991999999999999999999MA1100685099835REMMET09901/07/12 07:53:02 METAR KMHT 071253Z 00000KT 8SM FEW120 M02/M05 A2973 RMK AO2 SLP087 T10221050 (CD)
0160743945147102012010713537+42933-071438FM-15+0071KMHT V0209999C000052200059N0128755N5-00115-00445100905ADDAA101000095GF100991999999999999999999MA1100715099865REMMET09601/07/12 08:53:02 METAR KMHT 071353Z 00000KT 8SM CLR M01/M04 A2974 RMK AO2 SLP090 T10111044 (CD)
0213743945147102012010714537+42933-071438FM-15+0071KMHT V0209999C00005033535MN0144845N5+00065-00395100855ADDAA101000095GA1075+033535999GD13991+0335359GF107991999999999999999999MA1100685099835MD1840024+9999REMMET10401/07/12 09:53:02 METAR KMHT 071453Z 00000KT 9SM BKN110 01/M04 A2973 RMK AO2 SLP085 T00061039 58002 (CD)
0167743945147102012010715537+42933-071438FM-15+0071KMHT V0209999C000052200059N0160935N5+00335-00335100725ADDAA101000095GF100991999999999999999999MA1100545099705REMMET10301/07/12 10:53:02 METAR KMHT 071553Z 00000KT 10SM CLR 03/M03 A2969 RMK AO2 PRESFR SLP072 T00331033 (CD)
0160743945147102012010716537+42933-071438FM-15+0071KMHT V0209999C000052200059N0160935N5+00565-00335100585ADDAA101000095GF100991999999999999999999MA1100415099565REMMET09601/07/12 11:53:02 METAR KMHT 071653Z 00000KT 10SM CLR 06/M03 A2965 RMK AO2 SLP058 T00561033 (CD)
0218743945147102012010717537+42933-071438FM-15+0071KMHT V0202105N001552200059N0160935N5+00785-00285100535ADDAA101000095GF100991999999999999999999KA1999M+00831KA2999N-00331MA1100375099535MD1640314+9999REMMET11401/07/12 12:53:02 METAR KMHT 071753Z 21003KT 10SM CLR 08/M03 A2964 RMK AO2 SLP053 T00781028 10083 21033 56031 (CD)
0194743945147102012010718537+42933-071438FM-15+0071KMHT V0202005N00265018295MN0160935N5+00945-00225100485ADDAA101000095GA1075+018295999GD13991+0182959GF107991999999999999999999MA1100345099495REMMET09901/07/12 13:53:02 METAR KMHT 071853Z 20005KT 10SM BKN060 09/M02 A2963 RMK AO2 SLP048 T00941022 (DW)
0194743945147102012010719537+42933-071438FM-15+0071KMHT V0203405N00265018295MN0160935N5+00895-00225100575ADDAA101000095GA1085+018295999GD14991+0182959GF108991999999999999999999MA1100415099565REMMET09901/07/12 14:53:02 METAR KMHT 071953Z 34005KT 10SM OVC060 09/M02 A2965 RMK AO2 SLP057 T00891022 (DW)
0214743945147102012010720537+42933-071438FM-15+0071KMHT V0209999C00005018295MN0160935N5+00785-00225100645ADDAA101000095GA1085+018295999GD14991+0182959GF108991999999999999999999MA1100475099635MD1340134+9999REMMET10501/07/12 15:53:02 METAR KMHT 072053Z 00000KT 10SM OVC060 08/M02 A2967 RMK AO2 SLP064 T00781022 53013 (DW)
0194743945147102012010721537+42933-071438FM-15+0071KMHT V0202705N00155018295MN0160935N5+00895-00115100755ADDAA101000095GA1075+018295999GD13991+0182959GF107991999999999999999999MA1100585099735REMMET09901/07/12 16:53:02 METAR KMHT 072153Z 27003KT 10SM BKN060 09/M01 A2970 RMK AO2 SLP075 T00891011 (DW)
0194743945147102012010722537+42933-071438FM-15+0071KMHT V0202405N002152200059N0160935N5+00835-00065100845ADDAA101000095GA1025+018295999GD11991+0182959GF102991999999999999999999MA1100685099835REMMET09901/07/12 17:53:02 METAR KMHT 072253Z 24004KT 10SM FEW060 08/M01 A2973 RMK AO2 SLP084 T00831006 (DW)
0218743945147102012010723537+42933-071438FM-15+0071KMHT V0202705N003652200059N0160935N5+00835-00065100955ADDAA101000095GF100991999999999999999999KA1999M+00941KA2999N+00671MA1100785099935MD1140294+9999REMMET11401/07/12 18:53:02 METAR KMHT 072353Z 27007KT 10SM CLR 08/M01 A2976 RMK AO2 SLP095 T00831006 10094 20067 51029 (DW)
0155743945147102012010800537+42933-071438FM-15+0071KMHT V0209999C000052200059N0160935N5+00785-00065100995ADDAA101000095GF100991999999999999999999MA1100815099975REMMET09101/07/12 19:53:01 METAR KMHT 080053Z 00000KT 10SM CLR 08/M01 A2977 RMK AO2 SLP099 T00781006
0155743945147102012010801537+42933-071438FM-15+0071KMHT V0202805N001552200059N0160935N5+00615-00115101055ADDAA101000095GF100991999999999999999999MA1100885100035REMMET09101/07/12 20:53:01 METAR KMHT 080153Z 28003KT 10SM CLR 06/M01 A2979 RMK AO2 SLP105 T00611011
0175743945147102012010802537+42933-071438FM-15+0071KMHT V0202405N001552200059N0160935N5+00615-00115101115ADDAA101000095GF100991999999999999999999MA1100955100105MD1340174+9999REMMET09701/07/12 21:53:01 METAR KMHT 080253Z 24003KT 10SM CLR 06/M01 A2981 RMK AO2 SLP111 T00611011 53017
0155743945147102012010803537+42933-071438FM-15+0071KMHT V0209999C000052200059N0160935N5+00225-00225101185ADDAA101000095GF100991999999999999999999MA1101025100175REMMET09101/07/12 22:53:01 METAR KMHT 080353Z 00000KT 10SM CLR 02/M02 A2983 RMK AO2 SLP118 T00221022
0165743945147102012010804537+42933-071438FM-15+0071KMHT V0201805N002152200059N0160935N5+00285-00285101215ADDAA101000095GF100991999999999999999999MA1101055100205REMMET10101/07/12 23:53:01 METAR KMHT 080453Z 18004KT 10SM CLR 03/M03 A2984 RMK AO2 SLP121 T00281028 400941033
0886743945147102012010804596+42933-071438SOD  +0071KMHT V020999999999999999999999999999+99999+99999999999ADDAA124000095KA1240M+00945KA2240N-00325MG1099764100474OE11240067127018485OE22240035828019165OE33240008099999995REMSOD73024 HR PRECIPITATION (IN):0.00  24 HR MAX TEMP (F):49 24 HR MAX TEMP TIME (LST):1452 24 HR MIN TEMP (F):26 24 HR MIN TEMP TIME (LST):0701 AVERAGE STATION PRESSURE:29.460 MINIMUM SEA LEVEL PRESSURE:29.67 TIME OF OCCURRENCE:1407 PEAK WIND SPEED (MPH):15  PEAK WIND DIR (DEG):270 PEAK WIND TIME (LST):1848  FASTEST 2MIN SPEED (MPH):8  FASTEST 2MIN DIR (DEG):280 FASTEST 2MIN TIME (LST):1916 AVERAGE WIND SPEED (MPH):1.8  24 HR AVG TEMP (F):38 HEATING DEGREE DAYS:27  COOLING DEGREE DAYS:0   LATEST DAY MAX TEMP (0700-1900 LST):49  LATEST NIGHT MIN TEMP(1900-0800 LST):26 HOURLY INCREMENTAL PRECIPITATION VALUES (IN):.00 0.00 0.00 0.00 0.00 0.00 0.00 0.00 0.00 0.00 0.00 0.00 0.00 0.00 0.00 0.00 0.00 0.00 0.00 0.00 0.00 0.00 0.00 0.00EQDR01     N7GJS072R02     N7GKS075
0218743945147102012010805537+42933-071438FM-15+0071KMHT V0202105N002152200059N0160935N5+00225-00335101315ADDAA101000095GF100991999999999999999999KA1999M+00831KA2999N+00061MA1101155100305MD1340204+9999REMMET11401/08/12 00:53:02 METAR KMHT 080553Z 21004KT 10SM CLR 02/M03 A2987 RMK AO2 SLP131 T00221033 10083 20006 53020 (ME)
0194743945147102012010806537+42933-071438FM-15+0071KMHT V0201905N002152200059N0160935N5+00065-00395101415ADDAA101000095GA1045+016765999GD12991+0167659GF104991999999999999999999MA1101255100405REMMET09901/08/12 01:53:02 METAR KMHT 080653Z 19004KT 10SM SCT055 01/M04 A2990 RMK AO2 SLP141 T00061039 (ME)
0194743945147102012010807537+42933-071438FM-15+0071KMHT V0202105N002652200059N0160935N5+00225-00335101485ADDAA101000095GA1045+015245999GD12991+0152459GF104991999999999999999999MA1101325100475REMMET09901/08/12 02:53:02 METAR KMHT 080753Z 21005KT 10SM SCT050 02/M03 A2992 RMK AO2 SLP148 T00221033 (ME)
0214743945147102012010808537+42933-071438FM-15+0071KMHT V0209999C000052200059N0160935N5+00065-00335101515ADDAA101000095GA1045+014635999GD12991+0146359GF104991999999999999999999MA1101355100505MD1140194+9999REMMET10501/08/12 03:53:02 METAR KMHT 080853Z 00000KT 10SM SCT048 01/M03 A2993 RMK AO2 SLP151 T00061033 51019 (ME)
0194743945147102012010809537+42933-071438FM-15+0071KMHT V0202105N00215014025MN0160935N5+00225-00335101585ADDAA101000095GA1075+014025999GD13991+0140259GF107991999999999999999999MA1101425100575REMMET09901/08/12 04:53:02 METAR KMHT 080953Z 21004KT 10SM BKN046 02/M03 A2995 RMK AO2 SLP158 T00221033 (ME)
0194743945147102012010810537+42933-071438FM-15+0071KMHT V0202805N00265014025MN0160935N5+00175-00335101695ADDAA101000095GA1075+014025999GD13991+0140259GF107991999999999999999999MA1101525100675REMMET09901/08/12 05:53:02 METAR KMHT 081053Z 28005KT 10SM BKN046 02/M03 A2998 RMK AO2 SLP169 T00171033 (BB)
0218743945147102012010811537+42933-071438FM-15+0071KMHT V0209999C000052200059N0160935N5+00285-00445101765ADDAA101000095GF100991999999999999999999KA1999M+00331KA2999N+00001MA1101595100745MD1340264+9999REMMET11401/08/12 06:53:02 METAR KMHT 081153Z 00000KT 10SM CLR 03/M04 A3000 RMK AO2 SLP176 T00281044 10033 20000 53026 (BB)
0194743945147102012010812537+42933-071438FM-15+0071KMHT V0202805N00365013725MN0160935N5+00285-00505101875ADDAA101000095GA1075+013725999GD13991+0137259GF107991999999999999999999MA1101695100845REMMET09901/08/12 07:53:02 METAR KMHT 081253Z 28007KT 10SM BKN045 03/M05 A3003 RMK AO2 SLP187 T00281050 (BB)
0205743945147102012010813537+42933-071438FM-15+0071KMHT V0203205N00465013115MN0160935N5+00395-00565101965ADDAA101000095GA1085+013115999GD14991+0131159GF108991999999999999999999MA1101795100945OC100885REMMET10201/08/12 08:53:02 METAR KMHT 081353Z 32009G17KT 10SM OVC043 04/M06 A3006 RMK AO2 SLP196 T00391056 (BB)
0225743945147102012010814537+42933-071438FM-15+0071KMHT V0202905N00315013725MN0160935N5+00505-00615102015ADDAA101000095GA1075+013725999GD13991+0137259GF107991999999999999999999MA1101865101015MD1140244+9999OC100825REMMET10801/08/12 09:53:02 METAR KMHT 081453Z 29006G16KT 10SM BKN045 05/M06 A3008 RMK AO2 SLP201 T00501061 51024 (BB)
0205743945147102012010815537+42933-071438FM-15+0071KMHT V0203005N00725013725MN0160935N5+00445-00725102055ADDAA101000095GA1075+013725999GD13991+0137259GF107991999999999999999999MA1101905101045OC101035REMMET10201/08/12 10:53:02 METAR KMHT 081553Z 30014G20KT 10SM BKN045 04/M07 A3009 RMK AO2 SLP205 T00441072 (BB)
0205743945147102012010816537+42933-071438FM-15+0071KMHT V0203105N00465014335MN0160935N5+00445-00725102035ADDAA101000095GA1085+014335999GD14991+0143359GF108991999999999999999999MA1101865101015OC100775REMMET10201/08/12 11:53:02 METAR KMHT 081653Z 31009G15KT 10SM OVC047 04/M07 A3008 RMK AO2 SLP203 T00441072 (BB)
0271743945147102012010817537+42933-071438FM-15+0071KMHT V0202605N00415014945MN0160935N5+00505-00675102015ADDAA101000095GA1075+014945999GD13991+0149459GF107991999999999999999999KA1999M+00561KA2999N-00061MA1101865101015MD1840004+9999REMMET11701/08/12 12:53:02 METAR KMHT 081753Z 26008KT 10SM BKN049 05/M07 A3008 RMK AO2 SLP201 T00501067 10056 21006 58000 (BB)EQDQ01+000082APCTEN
0205743945147102012010818537+42933-071438FM-15+0071KMHT V0203205N00515013725MN0160935N5+00395-00615102065ADDAA101000095GA1085+013725999GD14991+0137259GF108991999999999999999999MA1101905101045OC100825REMMET10201/08/12 13:53:02 METAR KMHT 081853Z 32010G16KT 10SM OVC045 04/M06 A3009 RMK AO2 SLP206 T00391061 (PJ)
0205743945147102012010819537+42933-071438FM-15+0071KMHT V0203205N00365014335MN0160935N5+00335-00675102135ADDAA101000095GA1075+014335999GD13991+0143359GF107991999999999999999999MA1101965101115OC100775REMMET10201/08/12 14:53:02 METAR KMHT 081953Z 32007G15KT 10SM BKN047 03/M07 A3011 RMK AO2 SLP213 T00331067 (PJ)
0214743945147102012010820537+42933-071438FM-15+0071KMHT V0203205N00365016765MN0160935N5+00335-00725102185ADDAA101000095GA1075+016765999GD13991+0167659GF107991999999999999999999MA1102005101145MD1340164+9999REMMET10501/08/12 15:53:02 METAR KMHT 082053Z 32007KT 10SM BKN055 03/M07 A3012 RMK AO2 SLP218 T00331072 53016 (PJ)
0194743945147102012010821537+42933-071438FM-15+0071KMHT V0203305N00315016765MN0160935N5+00285-00785102265ADDAA101000095GA1075+016765999GD13991+0167659GF107991999999999999999999MA1102105101245REMMET09901/08/12 16:53:02 METAR KMHT 082153Z 33006KT 10SM BKN055 03/M08 A3015 RMK AO2 SLP226 T00281078 (PJ)
0194743945147102012010822537+42933-071438FM-15+0071KMHT V0203105N00365016765MN0160935N5+00225-00785102345ADDAA101000095GA1075+016765999GD13991+0167659GF107991999999999999999999MA1102175101315REMMET09901/08/12 17:53:02 METAR KMHT 082253Z 31007KT 10SM BKN055 02/M08 A3017 RMK AO2 SLP234 T00221078 (PJ)
0252743945147102012010823537+42933-071438FM-15+0071KMHT V0203205N004152200059N0160935N5+00175-00895102455ADDAA101000095GA1045+018295999GD12991+0182959GF104991999999999999999999KA1999M+00501KA2999N+00171MA1102275101415MD1340264+9999REMMET11701/08/12 18:53:02 METAR KMHT 082353Z 32008KT 10SM SCT060 02/M09 A3020 RMK AO2 SLP245 T00171089 10050 20017 53026 (PJ)
0190743945147102012010900537+42933-071438FM-15+0071KMHT V0203305N005152200059N0160935N5-00065-00785102535ADDAA101000095GA1025+016765999GD11991+0167659GF102991999999999999999999MA1102375101515REMMET09501/08/12 19:53:01 METAR KMHT 090053Z 33010KT 10SM FEW055 M01/M08 A3023 RMK AO2 SLP253 T10061078
0156743945147102012010901537+42933-071438FM-15+0071KMHT V0203505N003152200059N0160935N5-00175-00835102595ADDAA101000095GF100991999999999999999999MA1102405101555REMMET09201/08/12 20:53:01 METAR KMHT 090153Z 35006KT 10SM CLR M02/M08 A3024 RMK AO2 SLP259 T10171083
0176743945147102012010902537+42933-071438FM-15+0071KMHT V0203305N003652200059N0160935N5-00175-00945102605ADDAA101000095GF100991999999999999999999MA1102445101585MD1140154+9999REMMET09801/08/12 21:53:01 METAR KMHT 090253Z 33007KT 10SM CLR M02/M09 A3025 RMK AO2 SLP260 T10171094 51015
0156743945147102012010903537+42933-071438FM-15+0071KMHT V0203405N004152200059N0160935N5-00285-01065102635ADDAA101000095GF100991999999999999999999MA1102445101585REMMET09201/08/12 22:53:01 METAR KMHT 090353Z 34008KT 10SM CLR M03/M11 A3025 RMK AO2 SLP263 T10281106
0166743945147102012010904537+42933-071438FM-15+0071KMHT V0203405N004152200059N0160935N5-00335-01065102675ADDAA101000095GF100991999999999999999999MA1102475101615REMMET10201/08/12 23:53:01 METAR KMHT 090453Z 34008KT 10SM CLR M03/M11 A3026 RMK AO2 SLP267 T10331106 400561033
0886743945147102012010904596+42933-071438SOD  +0071KMHT V020999999999999999999999999999+99999+99999999999ADDAA124000095KA1240M+00565KA2240N-00325MG1100864101224OE11240107331010545OE22240076030010525OE33240034099999995REMSOD73024 HR PRECIPITATION (IN):0.00  24 HR MAX TEMP (F):42 24 HR MAX TEMP TIME (LST):1215 24 HR MIN TEMP (F):26 24 HR MIN TEMP TIME (LST):2359 AVERAGE STATION PRESSURE:29.785 MINIMUM SEA LEVEL PRESSURE:29.89 TIME OF OCCURRENCE:0000 PEAK WIND SPEED (MPH):24  PEAK WIND DIR (DEG):310 PEAK WIND TIME (LST):1054  FASTEST 2MIN SPEED (MPH):17 FASTEST 2MIN DIR (DEG):300 FASTEST 2MIN TIME (LST):1052 AVERAGE WIND SPEED (MPH):7.6  24 HR AVG TEMP (F):34 HEATING DEGREE DAYS:31  COOLING DEGREE DAYS:0   LATEST DAY MAX TEMP (0700-1900 LST):42  LATEST NIGHT MIN TEMP(1900-0800 LST):31 HOURLY INCREMENTAL PRECIPITATION VALUES (IN):.00 0.00 0.00 0.00 0.00 0.00 0.00 0.00 0.00 0.00 0.00 0.00 0.00 0.00 0.00 0.00 0.00 0.00 0.00 0.00 0.00 0.00 0.00 0.00EQDR01     N7GJS072R02     N7GKS075
0220743945147102012010905537+42933-071438FM-15+0071KMHT V0203305N003152200059N0160935N5-00395-01115102675ADDAA101000095GF100991999999999999999999KA1999M+00111KA2999N-00391MA1102475101615MD1140064+9999REMMET11601/09/12 00:53:02 METAR KMHT 090553Z 33006KT 10SM CLR M04/M11 A3026 RMK AO2 SLP267 T10391111 10011 21039 51006 (STJ)
0162743945147102012010906537+42933-071438FM-15+0071KMHT V0202905N001552200059N0160935N5-00445-01115102715ADDAA101000095GF100991999999999999999999MA1102545101685REMMET09801/09/12 01:53:02 METAR KMHT 090653Z 29003KT 10SM CLR M04/M11 A3028 RMK AO2 SLP271 T10441111 (STJ)
0162743945147102012010907537+42933-071438FM-15+0071KMHT V0203305N001552200059N0160935N5-00505-01175102705ADDAA101000095GF100991999999999999999999MA1102515101655REMMET09801/09/12 02:53:02 METAR KMHT 090753Z 33003KT 10SM CLR M05/M12 A3027 RMK AO2 SLP270 T10501117 (STJ)
0182743945147102012010908537+42933-071438FM-15+0071KMHT V0203105N002152200059N0160935N5-00505-01175102685ADDAA101000095GF100991999999999999999999MA1102515101655MD1040014+9999REMMET10401/09/12 03:53:02 METAR KMHT 090853Z 31004KT 10SM CLR M05/M12 A3027 RMK AO2 SLP268 T10501117 50001 (STJ)
0196743945147102012010909537+42933-071438FM-15+0071KMHT V0203205N00215028965MN0160935N5-00565-01175102685ADDAA101000095GA1075+028965999GD13991+0289659GF107991999999999999999999MA1102515101655REMMET10101/09/12 04:53:02 METAR KMHT 090953Z 32004KT 10SM BKN095 M06/M12 A3027 RMK AO2 SLP268 T10561117 (STJ)
0195743945147102012010910537+42933-071438FM-15+0071KMHT V0203205N00215028965MN0160935N5-00565-01175102695ADDAA101000095GA1085+028965999GD14991+0289659GF108991999999999999999999MA1102515101655REMMET10001/09/12 05:53:02 METAR KMHT 091053Z 32004KT 10SM OVC095 M06/M12 A3027 RMK AO2 SLP269 T10561117 (CZ)
0253743945147102012010911537+42933-071438FM-15+0071KMHT V0209999C00005028965MN0160935N5-00565-01175102695ADDAA101000095GA1075+028965999GD13991+0289659GF107991999999999999999999KA1999M-00391KA2999N-00561MA1102515101655MD1240014+9999REMMET11801/09/12 06:53:02 METAR KMHT 091153Z 00000KT 10SM BKN095 M06/M12 A3027 RMK AO2 SLP269 T10561117 11039 21056 52001 (CZ)
0195743945147102012010912537+42933-071438FM-15+0071KMHT V0209999C00005030485MN0160935N5-00565-01115102695ADDAA101000095GA1075+030485999GD13991+0304859GF107991999999999999999999MA1102515101655REMMET10001/09/12 07:53:02 METAR KMHT 091253Z 00000KT 10SM BKN100 M06/M11 A3027 RMK AO2 SLP269 T10561111 (CZ)
0195743945147102012010913537+42933-071438FM-15+0071KMHT V0209999C00005030485MN0160935N5-00505-01065102705ADDAA101000095GA1085+030485999GD14991+0304859GF108991999999999999999999MA1102515101655REMMET10001/09/12 08:53:02 METAR KMHT 091353Z 00000KT 10SM OVC100 M05/M11 A3027 RMK AO2 SLP270 T10501106 (CZ)
0215743945147102012010914537+42933-071438FM-15+0071KMHT V0209999C00005030485MN0160935N5-00395-01005102685ADDAA101000095GA1085+030485999GD14991+0304859GF108991999999999999999999MA1102475101615MD1840024+9999REMMET10601/09/12 09:53:02 METAR KMHT 091453Z 00000KT 10SM OVC100 M04/M10 A3026 RMK AO2 SLP268 T10391100 58002 (CZ)
0195743945147102012010915537+42933-071438FM-15+0071KMHT V0201805N00215028965MN0160935N5-00285-01005102585ADDAA101000095GA1085+028965999GD14991+0289659GF108991999999999999999999MA1102375101515REMMET10001/09/12 10:53:02 METAR KMHT 091553Z 18004KT 10SM OVC095 M03/M10 A3023 RMK AO2 SLP258 T10281100 (CZ)
0233743945147102012010916537+42933-071438FM-15+0071KMHT V0202205N00155018295MN0160935N5-00115-01005102445ADDAA101000095GA1075+018295999GA2075+028965999GD13991+0182959GD23991+0289659GF107991999999999999999999MA1102245101385REMMET10701/09/12 11:53:02 METAR KMHT 091653Z 22003KT 10SM BKN060 BKN095 M01/M10 A3019 RMK AO2 SLP244 T10111100 (CZ)
0253743945147102012010917537+42933-071438FM-15+0071KMHT V0202005N00265027435MN0160935N5-00065-01065102305ADDAA101000095GA1075+027435999GD13991+0274359GF107991999999999999999999KA1999M+00001KA2999N-00561MA1102105101245MD1840384+9999REMMET11801/09/12 12:53:02 METAR KMHT 091753Z 20005KT 10SM BKN090 M01/M11 A3015 RMK AO2 SLP230 T10061106 10000 21056 58038 (CZ)
0194743945147102012010918537+42933-071438FM-15+0071KMHT V0201905N00315025915MN0160935N5+00115-01065102195ADDAA101000095GA1075+025915999GD13991+0259159GF107991999999999999999999MA1102005101145REMMET09901/09/12 13:53:02 METAR KMHT 091853Z 19006KT 10SM BKN085 01/M11 A3012 RMK AO2 SLP219 T00111106 (JS)
0194743945147102012010919537+42933-071438FM-15+0071KMHT V0202005N002652200059N0160935N5+00175-01115102135ADDAA101000095GA1025+025915999GD11991+0259159GF102991999999999999999999MA1101935101085REMMET09901/09/12 14:53:02 METAR KMHT 091953Z 20005KT 10SM FEW085 02/M11 A3010 RMK AO2 SLP213 T00171111 (JS)
0180743945147102012010920537+42933-071438FM-15+0071KMHT V0201705N002152200059N0160935N5+00225-01115102095ADDAA101000095GF100991999999999999999999MA1101905101045MD1640194+9999REMMET10201/09/12 15:53:02 METAR KMHT 092053Z 17004KT 10SM CLR 02/M11 A3009 RMK AO2 SLP209 T00221111 56019 (JS)
0160743945147102012010921537+42933-071438FM-15+0071KMHT V0201505N002652200059N0160935N5+00005-01005102065ADDAA101000095GF100991999999999999999999MA1101865101015REMMET09601/09/12 16:53:02 METAR KMHT 092153Z 15005KT 10SM CLR 00/M10 A3008 RMK AO2 SLP206 T00001100 (JS)
0160743945147102012010922537+42933-071438FM-15+0071KMHT V0201905N002652200059N0160935N5+00115-01175102055ADDAA101000095GF100991999999999999999999MA1101865101015REMMET09601/09/12 17:53:02 METAR KMHT 092253Z 19005KT 10SM CLR 01/M12 A3008 RMK AO2 SLP205 T00111117 (JS)
0218743945147102012010923537+42933-071438FM-15+0071KMHT V0202005N001552200059N0160935N5+00065-01225102005ADDAA101000095GF100991999999999999999999KA1999M+00221KA2999N-00061MA1101835100975MD1840094+9999REMMET11401/09/12 18:53:02 METAR KMHT 092353Z 20003KT 10SM CLR 01/M12 A3007 RMK AO2 SLP200 T00061122 10022 21006 58009 (JS)
0156743945147102012011000537+42933-071438FM-15+0071KMHT V0201805N002152200059N0160935N5-00065-01115101945ADDAA101000095GF100991999999999999999999MA1101765100915REMMET09201/09/12 19:53:01 METAR KMHT 100053Z 18004KT 10SM CLR M01/M11 A3005 RMK AO2 SLP194 T10061111
0156743945147102012011001537+42933-071438FM-15+0071KMHT V0201905N002652200059N0160935N5-00065-01175101905ADDAA101000095GF100991999999999999999999MA1101735100875REMMET09201/09/12 20:53:01 METAR KMHT 100153Z 19005KT 10SM CLR M01/M12 A3004 RMK AO2 SLP190 T10061117
0210743945147102012011002537+42933-071438FM-15+0071KMHT V0201805N002652200059N0160935N5-00065-01175101805ADDAA101000095GA1025+033535999GD11991+0335359GF102991999999999999999999MA1101635100775MD1840204+9999REMMET10101/09/12 21:53:01 METAR KMHT 100253Z 18005KT 10SM FEW110 M01/M12 A3001 RMK AO2 SLP180 T10061117 58020
0189743945147102012011003537+42933-071438FM-15+0071KMHT V0201705N00315030485MN0160935N5+00005-01175101705ADDAA101000095GA1085+030485999GD14991+0304859GF108991999999999999999999MA1101525100675REMMET09401/09/12 22:53:01 METAR KMHT 100353Z 17006KT 10SM OVC100 00/M12 A2998 RMK AO2 SLP170 T00001117
0199743945147102012011004537+42933-071438FM-15+0071KMHT V0201705N00315030485MN0160935N5+00005-01115101585ADDAA101000095GA1085+030485999GD14991+0304859GF108991999999999999999999MA1101395100545REMMET10401/09/12 23:53:01 METAR KMHT 100453Z 17006KT 10SM OVC100 00/M11 A2994 RMK AO2 SLP158 T00001111 400221056
0886743945147102012011004596+42933-071438SOD  +0071KMHT V020999999999999999999999999999+99999+99999999999ADDAA124000095KA1240M+00225KA2240N-00555MG1101354101564OE11240067134000055OE22240053634000115OE33240019299999995REMSOD73024 HR PRECIPITATION (IN):0.00  24 HR MAX TEMP (F):36 24 HR MAX TEMP TIME (LST):1558 24 HR MIN TEMP (F):22 24 HR MIN TEMP TIME (LST):0759 AVERAGE STATION PRESSURE:29.930 MINIMUM SEA LEVEL PRESSURE:29.99 TIME OF OCCURRENCE:2359 PEAK WIND SPEED (MPH):15  PEAK WIND DIR (DEG):340 PEAK WIND TIME (LST):0005  FASTEST 2MIN SPEED (MPH):12 FASTEST 2MIN DIR (DEG):340 FASTEST 2MIN TIME (LST):0011 AVERAGE WIND SPEED (MPH):4.3  24 HR AVG TEMP (F):29 HEATING DEGREE DAYS:36  COOLING DEGREE DAYS:0   LATEST DAY MAX TEMP (0700-1900 LST):36  LATEST NIGHT MIN TEMP(1900-0800 LST):22 HOURLY INCREMENTAL PRECIPITATION VALUES (IN):.00 0.00 0.00 0.00 0.00 0.00 0.00 0.00 0.00 0.00 0.00 0.00 0.00 0.00 0.00 0.00 0.00 0.00 0.00 0.00 0.00 0.00 0.00 0.00EQDR01     N7GJS072R02     N7GKS075
0253743945147102012011005537+42933-071438FM-15+0071KMHT V0201705N00315028965MN0160935N5+00005-01065101485ADDAA101000095GA1085+028965999GD14991+0289659GF108991999999999999999999KA1999M+00061KA2999N-00171MA1101295100445MD1840314+9999REMMET11801/10/12 00:53:02 METAR KMHT 100553Z 17006KT 10SM OVC095 00/M11 A2991 RMK AO2 SLP148 T00001106 10006 21017 58031 (STJ)
0195743945147102012011006537+42933-071438FM-15+0071KMHT V0201705N00315027435MN0160935N5+00005-00945101425ADDAA101000095GA1085+027435999GD14991+0274359GF108991999999999999999999MA1101255100405REMMET10001/10/12 01:53:02 METAR KMHT 100653Z 17006KT 10SM OVC090 00/M09 A2990 RMK AO2 SLP142 T00001094 (STJ)
0271743945147102012011007537+42933-071438FM-15+0071KMHT V0201805N00265021345MN0160935N5+00005-00785101385ADDAA101000095GA1045+009755999GA2045+014025999GA3085+021345999GD12991+0097559GD22991+0140259GD34991+0213459GF108991999999999999999999MA1101225100375REMMET11401/10/12 02:53:02 METAR KMHT 100753Z 18005KT 10SM SCT032 SCT046 OVC070 00/M08 A2989 RMK AO2 SLP138 T00001078 (STJ)
0215743945147102012011008537+42933-071438FM-15+0071KMHT V0201805N00315021345MN0160935N5+00005-00675101265ADDAA101000095GA1085+021345999GD14991+0213459GF108991999999999999999999MA1101085100235MD1840214+9999REMMET10601/10/12 03:53:02 METAR KMHT 100853Z 18006KT 10SM OVC070 00/M07 A2985 RMK AO2 SLP126 T00001067 58021 (STJ)
0233743945147102012011009537+42933-071438FM-15+0071KMHT V0201805N00265018295MN0160935N5+00005-00565101185ADDAA101000095GA1075+018295999GA2085+025915999GD13991+0182959GD24991+0259159GF108991999999999999999999MA1100985100135REMMET10701/10/12 04:53:02 METAR KMHT 100953Z 18005KT 10SM BKN060 OVC085 00/M06 A2982 RMK AO2 SLP118 T00001056 (STJ)
0195743945147102012011010537+42933-071438FM-15+0071KMHT V0201705N002152200059N0160935N5-00065-00505101105ADDAA101000095GA1025+024385999GD11991+0243859GF102991999999999999999999MA1100915100075REMMET10001/10/12 05:53:02 METAR KMHT 101053Z 17004KT 10SM FEW080 M01/M05 A2980 RMK AO2 SLP110 T10061050 (CZ)
0253743945147102012011011537+42933-071438FM-15+0071KMHT V0209999C000052200059N0160935N5-00115-00505101075ADDAA101000095GA1025+024385999GD11991+0243859GF102991999999999999999999KA1999M+00061KA2999N-00111MA1100885100035MD1640204+9999REMMET11801/10/12 06:53:02 METAR KMHT 101153Z 00000KT 10SM FEW080 M01/M05 A2979 RMK AO2 SLP107 T10111050 10006 21011 56020 (CZ)
0195743945147102012011012537+42933-071438FM-15+0071KMHT V0201705N001552200059N0160935N5-00175-00505101105ADDAA101000095GA1025+030485999GD11991+0304859GF102991999999999999999999MA1100915100075REMMET10001/10/12 07:53:02 METAR KMHT 101253Z 17003KT 10SM FEW100 M02/M05 A2980 RMK AO2 SLP110 T10171050 (CZ)
0233743945147102012011013537+42933-071438FM-15+0071KMHT V0201705N00215019815MN0160935N5-00065-00445101135ADDAA101000095GA1075+019815999GA2085+025915999GD13991+0198159GD24991+0259159GF108991999999999999999999MA1100955100105REMMET10701/10/12 08:53:02 METAR KMHT 101353Z 17004KT 10SM BKN065 OVC085 M01/M04 A2981 RMK AO2 SLP113 T10061044 (CZ)
0252743945147102012011014537+42933-071438FM-15+0071KMHT V0201905N00215027435MN0160935N5+00005-00505101095ADDAA101000095GA1045+018295999GA2085+027435999GD12991+0182959GD24991+0274359GF108991999999999999999999MA1100915100075MD1040014+9999REMMET11201/10/12 09:53:02 METAR KMHT 101453Z 19004KT 10SM SCT060 OVC090 00/M05 A2980 RMK AO2 SLP109 T00001050 50001 (CZ)
0194743945147102012011015537+42933-071438FM-15+0071KMHT V0209999C00005030485MN0160935N5+00175-00505101005ADDAA101000095GA1085+030485999GD14991+0304859GF108991999999999999999999MA1100855100005REMMET09901/10/12 10:53:02 METAR KMHT 101553Z 00000KT 10SM OVC100 02/M05 A2978 RMK AO2 SLP100 T00171050 (CZ)
0194743945147102012011016537+42933-071438FM-15+0071KMHT V0202605N003652200059N0160935N5+00505-00505100905ADDAA101000095GA1045+027435999GD12991+0274359GF104991999999999999999999MA1100755099905REMMET09901/10/12 11:53:02 METAR KMHT 101653Z 26007KT 10SM SCT090 05/M05 A2975 RMK AO2 SLP090 T00501050 (CZ)
0263743945147102012011017537+42933-071438FM-15+0071KMHT V0202805N005752200059N0160935N5+00675-00395100835ADDAA101000095GA1025+018295999GD11991+0182959GF102991999999999999999999KA1999M+00671KA2999N-00221MA1100685099835MD1640244+9999OC100935REMMET12001/10/12 12:53:02 METAR KMHT 101753Z 28011G18KT 10SM FEW060 07/M04 A2973 RMK AO2 SLP083 T00671039 10067 21022 56024 (CZ)
0205743945147102012011018537+42933-071438FM-15+0071KMHT V0203005N007252200059N0160935N5+00675-00395100805ADDAA101000095GA1045+019815999GD12991+0198159GF104991999999999999999999MA1100645099805OC101085REMMET10201/10/12 13:53:02 METAR KMHT 101853Z 30014G21KT 10SM SCT065 07/M04 A2972 RMK AO2 SLP080 T00671039 (CZ)
0232743945147102012011019537+42933-071438FM-15+0071KMHT V0202905N00465019815MN0160935N5+00615-00395100855ADDAA101000095GA1025+012195999GA2075+019815999GD11991+0121959GD23991+0198159GF107991999999999999999999MA1100685099835REMMET10601/10/12 14:53:02 METAR KMHT 101953Z 29009KT 10SM FEW040 BKN065 06/M04 A2973 RMK AO2 SLP085 T00611039 (JS)
0252743945147102012011020537+42933-071438FM-15+0071KMHT V0202605N00365012805MN0160935N5+00505-00395100985ADDAA101000095GA1075+012805999GA2085+018295999GD13991+0128059GD24991+0182959GF108991999999999999999999MA1100815099975MD1340144+9999REMMET11201/10/12 15:53:02 METAR KMHT 102053Z 26007KT 10SM BKN042 OVC060 05/M04 A2977 RMK AO2 SLP098 T00501039 53014 (JS)
0232743945147102012011021537+42933-071438FM-15+0071KMHT V0209999V00265018295MN0160935N5+00505-00395101055ADDAA101000095GA1025+012805999GA2085+018295999GD11991+0128059GD24991+0182959GF108991999999999999999999MA1100885100035REMMET10601/10/12 16:53:02 METAR KMHT 102153Z VRB05KT 10SM FEW042 OVC060 05/M04 A2979 RMK AO2 SLP105 T00501039 (JS)
0194743945147102012011022537+42933-071438FM-15+0071KMHT V0202505N00215016765MN0160935N5+00445-00395101185ADDAA101000095GA1085+016765999GD14991+0167659GF108991999999999999999999MA1101025100175REMMET09901/10/12 17:53:02 METAR KMHT 102253Z 25004KT 10SM OVC055 04/M04 A2983 RMK AO2 SLP118 T00441039 (JS)
0252743945147102012011023537+42933-071438FM-15+0071KMHT V0209999C00005015245MN0160935N5+00395-00395101215ADDAA101000095GA1075+015245999GD13991+0152459GF107991999999999999999999KA1999M+00721KA2999N+00391MA1101055100205MD1140234+9999REMMET11701/10/12 18:53:02 METAR KMHT 102353Z 00000KT 10SM BKN050 04/M04 A2984 RMK AO2 SLP121 T00391039 10072 20039 51023 (JS)
0189743945147102012011100537+42933-071438FM-15+0071KMHT V0209999C000052200059N0160935N5+00285-00445101255ADDAA101000095GA1025+013725999GD11991+0137259GF102991999999999999999999MA1101085100235REMMET09401/10/12 19:53:01 METAR KMHT 110053Z 00000KT 10SM FEW045 03/M04 A2985 RMK AO2 SLP125 T00281044
0190743945147102012011101537+42933-071438FM-15+0071KMHT V0209999C00005013725MN0160935N5-00065-00505101335ADDAA101000095GA1075+013725999GD13991+0137259GF107991999999999999999999MA1101155100305REMMET09501/10/12 20:53:01 METAR KMHT 110153Z 00000KT 10SM BKN045 M01/M05 A2987 RMK AO2 SLP133 T10061050
0210743945147102012011102537+42933-071438FM-15+0071KMHT V0209999C000052200059N0160935N5-00115-00505101425ADDAA101000095GA1045+014025999GD12991+0140259GF104991999999999999999999MA1101255100405MD1340204+9999REMMET10101/10/12 21:53:01 METAR KMHT 110253Z 00000KT 10SM SCT046 M01/M05 A2990 RMK AO2 SLP142 T10111050 53020
0155743945147102012011103537+42933-071438FM-15+0071KMHT V0202705N001552200059N0160935N5+00065-00565101465ADDAA101000095GF100991999999999999999999MA1101295100445REMMET09101/10/12 22:53:01 METAR KMHT 110353Z 27003KT 10SM CLR 01/M06 A2991 RMK AO2 SLP146 T00061056
0166743945147102012011104537+42933-071438FM-15+0071KMHT V0209999C000052200059N0160935N5-00175-00565101525ADDAA101000095GF100991999999999999999999MA1101355100505REMMET10201/10/12 23:53:01 METAR KMHT 110453Z 00000KT 10SM CLR M02/M06 A2993 RMK AO2 SLP152 T10171056 400721022
0886743945147102012011104596+42933-071438SOD  +0071KMHT V020999999999999999999999999999+99999+99999999999ADDAA124000095KA1240M+00725KA2240N-00215MG1100124100784OE11240107331013485OE22240080529014125OE33240021999999995REMSOD73024 HR PRECIPITATION (IN):0.00  24 HR MAX TEMP (F):45 24 HR MAX TEMP TIME (LST):1334 24 HR MIN TEMP (F):28 24 HR MIN TEMP TIME (LST):0751 AVERAGE STATION PRESSURE:29.565 MINIMUM SEA LEVEL PRESSURE:29.76 TIME OF OCCURRENCE:1343 PEAK WIND SPEED (MPH):24  PEAK WIND DIR (DEG):310 PEAK WIND TIME (LST):1348  FASTEST 2MIN SPEED (MPH):18 FASTEST 2MIN DIR (DEG):290 FASTEST 2MIN TIME (LST):1412 AVERAGE WIND SPEED (MPH):4.9  24 HR AVG TEMP (F):37 HEATING DEGREE DAYS:28  COOLING DEGREE DAYS:0   LATEST DAY MAX TEMP (0700-1900 LST):45  LATEST NIGHT MIN TEMP(1900-0800 LST):28 HOURLY INCREMENTAL PRECIPITATION VALUES (IN):.00 0.00 0.00 0.00 0.00 0.00 0.00 0.00 0.00 0.00 0.00 0.00 0.00 0.00 0.00 0.00 0.00 0.00 0.00 0.00 0.00 0.00 0.00 0.00EQDR01     N7GJS072R02     N7GKS075
0220743945147102012011105537+42933-071438FM-15+0071KMHT V0209999C000052200059N0160935N5-00285-00615101565ADDAA101000095GF100991999999999999999999KA1999M+00441KA2999N-00281MA1101395100545MD1240154+9999REMMET11601/11/12 00:53:02 METAR KMHT 110553Z 00000KT 10SM CLR M03/M06 A2994 RMK AO2 SLP156 T10281061 10044 21028 52015 (STJ)
0162743945147102012011106537+42933-071438FM-15+0071KMHT V0209999C000052200059N0160935N5-00335-00675101625ADDAA101000095GF100991999999999999999999MA1101465100605REMMET09801/11/12 01:53:02 METAR KMHT 110653Z 00000KT 10SM CLR M03/M07 A2996 RMK AO2 SLP162 T10331067 (STJ)
0162743945147102012011107537+42933-071438FM-15+0071KMHT V0200105N002652200059N0160935N5-00175-00675101645ADDAA101000095GF100991999999999999999999MA1101495100645REMMET09801/11/12 02:53:02 METAR KMHT 110753Z 01005KT 10SM CLR M02/M07 A2997 RMK AO2 SLP164 T10171067 (STJ)
0182743945147102012011108537+42933-071438FM-15+0071KMHT V0203605N002152200059N0160935N5-00225-00725101705ADDAA101000095GF100991999999999999999999MA1101525100675MD1340144+9999REMMET10401/11/12 03:53:02 METAR KMHT 110853Z 36004KT 10SM CLR M02/M07 A2998 RMK AO2 SLP170 T10221072 53014 (STJ)
0162743945147102012011109537+42933-071438FM-15+0071KMHT V0203505N002652200059N0160935N5-00285-00785101825ADDAA101000095GF100991999999999999999999MA1101665100815REMMET09801/11/12 04:53:02 METAR KMHT 110953Z 35005KT 10SM CLR M03/M08 A3002 RMK AO2 SLP182 T10281078 (STJ)
0162743945147102012011110537+42933-071438FM-15+0071KMHT V0203405N002652200059N0160935N5-00335-00895101895ADDAA101000095GF100991999999999999999999MA1101735100875REMMET09801/11/12 05:53:02 METAR KMHT 111053Z 34005KT 10SM CLR M03/M09 A3004 RMK AO2 SLP189 T10331089 (STJ)
0254743945147102012011111537+42933-071438FM-15+0071KMHT V0203405N003652200059N0160935N5-00395-00945101985ADDAA101000095GA1025+036585999GD11991+0365859GF102991999999999999999999KA1999M-00171KA2999N-00391MA1101795100945MD1140264+9999REMMET11901/11/12 06:53:02 METAR KMHT 111153Z 34007KT 10SM FEW120 M04/M09 A3006 RMK AO2 SLP198 T10391094 11017 21039 51026 (STJ)
0195743945147102012011112537+42933-071438FM-15+0071KMHT V0209999V00155036585MN0160935N5-00335-00945102085ADDAA101000095GA1075+036585999GD13991+0365859GF107991999999999999999999MA1101905101045REMMET10001/11/12 07:53:02 METAR KMHT 111253Z VRB03KT 10SM BKN120 M03/M09 A3009 RMK AO2 SLP208 T10331094 (CZ)
0195743945147102012011113537+42933-071438FM-15+0071KMHT V0200105N00415033535MN0160935N5-00225-00895102155ADDAA101000095GA1075+033535999GD13991+0335359GF107991999999999999999999MA1101965101115REMMET10001/11/12 08:53:02 METAR KMHT 111353Z 01008KT 10SM BKN110 M02/M09 A3011 RMK AO2 SLP215 T10221089 (CZ)
0214743945147102012011114537+42933-071438FM-15+0071KMHT V0200205N00215033535MN0160935N5+00005-00835102155ADDAA101000095GA1075+033535999GD13991+0335359GF107991999999999999999999MA1101965101115MD1040174+9999REMMET10501/11/12 09:53:02 METAR KMHT 111453Z 02004KT 10SM BKN110 00/M08 A3011 RMK AO2 SLP215 T00001083 50017 (CZ)
0194743945147102012011115537+42933-071438FM-15+0071KMHT V0200405N00215033535MN0160935N5+00065-00835102105ADDAA101000095GA1075+033535999GD13991+0335359GF107991999999999999999999MA1101935101085REMMET09901/11/12 10:53:02 METAR KMHT 111553Z 04004KT 10SM BKN110 01/M08 A3010 RMK AO2 SLP210 T00061083 (CZ)
0194743945147102012011116537+42933-071438FM-15+0071KMHT V0209999C00005033535MN0160935N5+00065-00895102075ADDAA101000095GA1075+033535999GD13991+0335359GF107991999999999999999999MA1101905101045REMMET09901/11/12 11:53:02 METAR KMHT 111653Z 00000KT 10SM BKN110 01/M09 A3009 RMK AO2 SLP207 T00061089 (CZ)
0252743945147102012011117537+42933-071438FM-15+0071KMHT V0201605N00155033535MN0160935N5+00175-00895102015ADDAA101000095GA1085+033535999GD14991+0335359GF108991999999999999999999KA1999M+00171KA2999N-00391MA1101835100975MD1740144+9999REMMET11701/11/12 12:53:02 METAR KMHT 111753Z 16003KT 10SM OVC110 02/M09 A3007 RMK AO2 SLP201 T00171089 10017 21039 57014 (CZ)
0194743945147102012011118537+42933-071438FM-15+0071KMHT V0201405N00265030485MN0160935N5+00225-00895102025ADDAA101000095GA1085+030485999GD14991+0304859GF108991999999999999999999MA1101835100975REMMET09901/11/12 13:53:02 METAR KMHT 111853Z 14005KT 10SM OVC100 02/M09 A3007 RMK AO2 SLP202 T00221089 (JS)
0194743945147102012011119537+42933-071438FM-15+0071KMHT V0209999V00265030485MN0160935N5+00175-01005102055ADDAA101000095GA1085+030485999GD14991+0304859GF108991999999999999999999MA1101865101015REMMET09901/11/12 14:53:02 METAR KMHT 111953Z VRB05KT 10SM OVC100 02/M10 A3008 RMK AO2 SLP205 T00171100 (JS)
0214743945147102012011120537+42933-071438FM-15+0071KMHT V0201205N00265033535MN0160935N5+00175-01005102105ADDAA101000095GA1085+033535999GD14991+0335359GF108991999999999999999999MA1101935101085MD1340084+9999REMMET10501/11/12 15:53:02 METAR KMHT 112053Z 12005KT 10SM OVC110 02/M10 A3010 RMK AO2 SLP210 T00171100 53008 (JS)
0194743945147102012011121537+42933-071438FM-15+0071KMHT V0201005N00315030485MN0160935N5+00065-00615102105ADDAA101000095GA1075+030485999GD13991+0304859GF107991999999999999999999MA1101935101085REMMET09901/11/12 16:53:02 METAR KMHT 112153Z 10006KT 10SM BKN100 01/M06 A3010 RMK AO2 SLP210 T00061061 (JS)
0194743945147102012011122537+42933-071438FM-15+0071KMHT V0200905N00215033535MN0160935N5+00005-00615102105ADDAA101000095GA1075+033535999GD13991+0335359GF107991999999999999999999MA1101935101085REMMET09901/11/12 17:53:02 METAR KMHT 112253Z 09004KT 10SM BKN110 00/M06 A3010 RMK AO2 SLP210 T00001061 (JS)
0253743945147102012011123537+42933-071438FM-15+0071KMHT V0200805N001552200059N0160935N5-00065-00615102145ADDAA101000095GA1025+033535999GD11991+0335359GF102991999999999999999999KA1999M+00221KA2999N-00061MA1101965101115MD1340034+9999REMMET11801/11/12 18:53:02 METAR KMHT 112353Z 08003KT 10SM FEW110 M01/M06 A3011 RMK AO2 SLP214 T10061061 10022 21006 53003 (JS)
0190743945147102012011200537+42933-071438FM-15+0071KMHT V0209999C000052200059N0160935N5-00115-00615102155ADDAA101000095GA1045+033535999GD12991+0335359GF104991999999999999999999MA1101965101115REMMET09501/11/12 19:53:01 METAR KMHT 120053Z 00000KT 10SM SCT110 M01/M06 A3011 RMK AO2 SLP215 T10111061
0200743945147102012011201497+42933-071438FM-16+0071KMHT V0209999C00005007625MN0160935N5-00105-00605999999ADDGA1075+007625999GA2075+012805999GD13991+0076259GD23991+0128059GF107991999999999999999999MA1101965101115REMMET08501/11/12 20:49:01 SPECI KMHT 120149Z 00000KT 10SM BKN025 BKN042 M01/M06 A3011 RMK AO2
0228743945147102012011201537+42933-071438FM-15+0071KMHT V0200205N00155007625MN0160935N5-00115-00615102145ADDAA101000095GA1075+007625999GA2075+012805999GD13991+0076259GD23991+0128059GF107991999999999999999999MA1101965101115REMMET10201/11/12 20:53:01 METAR KMHT 120153Z 02003KT 10SM BKN025 BKN042 M01/M06 A3011 RMK AO2 SLP214 T10111061
0247743945147102012011202537+42933-071438FM-15+0071KMHT V0200805N00155006715MN0160935N5+00005-00445102085ADDAA101000095GA1075+006715999GA2085+009145999GD13991+0067159GD24991+0091459GF108991999999999999999999MA1101905101045MD1840064+9999REMMET10701/11/12 21:53:01 METAR KMHT 120253Z 08003KT 10SM BKN022 OVC030 00/M04 A3009 RMK AO2 SLP208 T00001044 58006
0189743945147102012011203537+42933-071438FM-15+0071KMHT V0201005N00265006715MN0160935N5+00065-00335102035ADDAA101000095GA1085+006715999GD14991+0067159GF108991999999999999999999MA1101835100975REMMET09401/11/12 22:53:01 METAR KMHT 120353Z 10005KT 10SM OVC022 01/M03 A3007 RMK AO2 SLP203 T00061033
