0159743945147102010010100004+42933-071433FM-15+0081KMHT V0209999C000010030019N0048281N1-00601-00701999999ADDGD13991+0030019GD24991+0330019GF108991999999999999999999MA1101901999999MW1101REMMET070SPECI KMHT 312358Z 00000KT 3SM BR BKN010 OVC110 M06/M07 A3009 RMK AO2;
0187743945147102010010100297+42933-071438FM-16+0071KMHT V0209999C00005002445MN0064375N5-00605-00705999999ADDAU100001015AW1105GA1085+002445999GD14991+0024459GF108991999999999999999999MA1101935101085MW1101REMMET08012/31/09 19:29:01 SPECI KMHT 010029Z 00000KT 4SM BR OVC008 M06/M07 A3010 RMK AO2
0215743945147102010010100537+42933-071438FM-15+0071KMHT V0209999C00005002445MN0064375N5-00505-00675102105ADDAA101000095AU100001015AW1105GA1085+002445999GD14991+0024459GF108991999999999999999999MA1101905101045MW1101REMMET09712/31/09 19:53:01 METAR KMHT 010053Z 00000KT 4SM BR OVC008 M05/M07 A3009 RMK AO2 SLP210 T10501067
0215743945147102010010101537+42933-071438FM-15+0071KMHT V0209999C00005002445MN0064375N5-00505-00675102025ADDAA101000095AU100001015AW1105GA1085+002445999GD14991+0024459GF108991999999999999999999MA1101835100975MW1101REMMET09712/31/09 20:53:01 METAR KMHT 010153Z 00000KT 4SM BR OVC008 M05/M07 A3007 RMK AO2 SLP202 T10501067
0235743945147102010010102537+42933-071438FM-15+0071KMHT V0209999C00005002445MN0096565N5-00445-00615101965ADDAA101000095AU100001015AW1105GA1085+002445999GD14991+0024459GF108991999999999999999999MA1101765100915MD1840144+9999MW1101REMMET10312/31/09 21:53:01 METAR KMHT 010253Z 00000KT 6SM BR OVC008 M04/M06 A3005 RMK AO2 SLP196 T10441061 58014
0215743945147102010010103537+42933-071438FM-15+0071KMHT V0203405N00155001835MN0064375N5-00445-00615101905ADDAA101000095AU100001015AW1105GA1085+001835999GD14991+0018359GF108991999999999999999999MA1101695100845MW1101REMMET09712/31/09 22:53:02 METAR KMHT 010353Z 34003KT 4SM BR OVC006 M04/M06 A3003 RMK AO2 SLP190 T10441061
0199743945147102010010104387+42933-071438FM-16+0071KMHT V0203205N00215003055MN0064375N5-00405-00605999999ADDAU100001015AW1105GA1085+003055999GD14991+0030559GF108991999999999999999999MA1101665100815MW1101REMMET09212/31/09 23:38:02 SPECI KMHT 010438Z 32004KT 4SM BR OVC010 M04/M06 A3002 RMK AO2 CIG 007V012
0225743945147102010010104537+42933-071438FM-15+0071KMHT V0203305N00155003055MN0064375N5-00445-00615101815ADDAA101000095AU100001015AW1105GA1085+003055999GD14991+0030559GF108991999999999999999999MA1101635100775MW1101REMMET10712/31/09 23:53:01 METAR KMHT 010453Z 33003KT 4SM BR OVC010 M04/M06 A3001 RMK AO2 SLP181 T10441061 410281083
1068743945147102010010104596+42933-071438SOD  +0071KMHT V020999999999999999999999999999+99999+99999999999ADDAA124003395AJ100089599999999AL12400295AN1024005195AX1086246AX2016246AX3026246KA1240M-00275KA2240N-00825MG1101374101794OE11240035819011215OE22240026832023375OE33240003199999995REMSOD79824 HR PRECIPITATION (IN):0.13  SNOW DEPTH (IN):3     24 HR SNOWFALL (IN):2.0  WEATHER(CODE):8,1,2  24 HR MAX TEMP (F):27 24 HR MAX TEMP TIME (LST):1525 24 HR MIN TEMP (F):17 24 HR MIN TEMP TIME (LST):0515 AVERAGE STATION PRESSURE:29.935 MINIMUM SEA LEVEL PRESSURE:30.06 TIME OF OCCURRENCE:2358 PEAK WIND SPEED (MPH):8   PEAK WIND DIR (DEG):190 PEAK WIND TIME (LST):1121  FASTEST 2MIN SPEED (MPH):6  FASTEST 2MIN DIR (DEG):320 FASTEST 2MIN TIME (LST):2337 AVERAGE WIND SPEED (MPH):0.7  24 HR AVG TEMP (F):22 HEATING DEGREE DAYS:43  COOLING DEGREE DAYS:0   LATEST DAY MAX TEMP (0700-1900 LST):27  LATEST NIGHT MIN TEMP(1900-0800 LST):17 HOURLY INCREMENTAL PRECIPITATION VALUES (IN):.00 0.00 0.00 0.00 0.00 0.00 0.00 0.00 0.00 0.00 0.00 0.02 0.06 0.04 0.01 T    0.00 0.00 0.00 0.00 0.00 0.00 0.00 0.00EQDR01 8,1,27AXW090R02 8,1,27AXW090R03 8,1,27AXW090R04     N7GJS072R05     N7GKS075
1342743945147102010010104596+42933-071438SOM  +0071KMHT V020999999999999999999999999999+99999+99999999999ADDAB10090796AD10024990909999999996AE1116086036006AH1005001590912195AH2010002090912235AH3015002390912215AH4020002890912235AH5030003390912215AH6045004892704525AI1060005892705085AI2080007492705285AI3100008492705325AI4120009492706035AI5150010992706035AI6180011992706035KB1744N-05725KB2744M+02175KB3744A-01785KC1N9-01443018175KC2M9+01940399995KD1744H11145KD2744C00005KE1126005285005MH1100644101664MK1103392610175099050921205REMSOM798PCP MTOT:3.57 PCP GT 24HRS:0.98 DATE(S):9 DAYS W/PCP >=.01:11 DAYS W/PCP >=.10:8  DAYS W/ PCP >=.50:3 DAYS W/PCP >=1.00:0 MSDP AMTS W/DATE-TIME TAGS:MIN:5 0.06  09/1219 MIN:10 0.08  09/1223 MIN:15 0.09  09/1221 MIN:20 0.11  09/1223 MIN:30 0.13  09/1221 MIN:45 0.19  27/0452 MIN:60 0.23  27/0508 MIN:80 0.29  27/0528 MIN:100 0.33  27/0532 MIN:120 0.37  27/0603 MIN:150 0.43  27/0603 MIN:180 0.47  27/0603 AVG DLY MIN:21.7  AVG DLY MAX:35.9  AVG MLY TMP:28.8  MIN TMP:6  DATE(S):30 18 17 MAX TMP:67  DATE(S):03 DAYS MAX <=32:1 DAYS MAX >=90:0  DAYS MIN <=32:28 DAYS MIN  <=0:0  AVG STP:29.720 LWST SLP:29.25 DATE/TIME:092120 HGST SLP:30.53 DATE/TIME:261017 HDD MTH TOT:1114 DEP NORM:-2553 SEASON(JUL 1-JUN 30):2372 DEP NORM:+24516 CDD MTH TOT:0 DEP NORM:-2553 SEASON(JAN 1-DEC 31):553 DEP NORM:-20695EQDR01  3.577ABP070R02  0.987ADP081R03    117AE1100R04     37AE2103R05     37AE3106R06     07AE4109R07    127KE1032
0279743945147102010010105537+42933-071438FM-15+0071KMHT V0203405N00215003055MN0064375N5-00445-00615101735ADDAA101000095AU100001015AW1105GA1085+003055999GD14991+0030559GF108991999999999999999999KA1999M-00441KA2999N-00611MA1101525100675MD1840234+9999MW1101REMMET12101/01/10 00:53:02 METAR KMHT 010553Z 34004KT 4SM BR OVC010 M04/M06 A2998 RMK AO2 SLP173 T10441061 11044 21061 58023 (STJ)
0193743945147102010010106267+42933-071438FM-16+0071KMHT V0203305N00155002445MN0064375N5-00405-00605999999ADDAU100001015AW1105GA1085+002445999GD14991+0024459GF108991999999999999999999MA1101525100675MW1101REMMET08601/01/10 01:26:02 SPECI KMHT 010626Z 33003KT 4SM BR OVC008 M04/M06 A2998 RMK AO2 (STJ)
0221743945147102010010106537+42933-071438FM-15+0071KMHT V0203405N00215002445MN0064375N5-00445-00615101715ADDAA101000095AU100001015AW1105GA1085+002445999GD14991+0024459GF108991999999999999999999MA1101525100675MW1101REMMET10301/01/10 01:53:02 METAR KMHT 010653Z 34004KT 4SM BR OVC008 M04/M06 A2998 RMK AO2 SLP171 T10441061 (STJ)
0242743945147102010010107516+42933-071438FM-16+0071KMHT V0203205N00155003055MN0064375N5-00405-00705999999ADDAU100001015AW1105GA1075+003055999GA2075+027435999GA3085+033535999GD13991+0030559GD23991+0274359GD34991+0335359MA1101495100645REMMET10501/01/10 02:51:02 SPECI KMHT 010751Z 32003KT 4SM BR BKN010 BKN090 OVC110 M04/M07 A2997 RMK AO2 FIBI (STJ)
0297743945147102010010107537+42933-071438FM-15+0071KMHT V0203205N00155003055MN0064375N5-00445-00675101675ADDAA101000095AU100001015AW1105GA1075+003055999GA2075+027435999GA3085+033535999GD13991+0030559GD23991+0274359GD34991+0335359GF108991999999999999999999MA1101495100645MW1101REMMET11701/01/10 02:53:02 METAR KMHT 010753Z 32003KT 4SM BR BKN010 BKN090 OVC110 M04/M07 A2997 RMK AO2 SLP167 T10441067 (STJ)
0237743945147102010010108516+42933-071438FM-16+0071KMHT V0203405N00215002135MN0064375N5-00405-00705999999ADDAU110030015AU200001015AW1105AW2715GA1075+002135999GA2085+003055999GD13991+0021359GD24991+0030559MA1101425100575REMMET11401/01/10 03:51:02 SPECI KMHT 010851Z 34004KT 4SM -SN BR BKN007 OVC010 M04/M07 A2995 RMK AO2 SNB49 P0000 FIBI (STJ)
0354743945147102010010108537+42933-071438FM-15+0071KMHT V0203305N00215002135MN0064375N5-00445-00675101605ADDAA101000025AA203000021AU110030015AU200001015AW1105AW2715GA1075+002135999GA2085+003055999GD13991+0021359GD24991+0030559GF108991999999999999999999MA1101425100575MD1840114+9999MW1101MW2711REMMET13801/01/10 03:53:02 METAR KMHT 010853Z 33004KT 4SM -SN BR BKN007 OVC010 M04/M07 A2995 RMK AO2 SNB49 SLP160 P0000 60000 T10441067 58011 (STJ)EQDQ01  00008PRCP03
0245743945147102010010109537+42933-071438FM-15+0071KMHT V0203405N00155002135MN0064375N5-00445-00615101575ADDAA101000025AU100001015AW1105GA1085+002135999GD14991+0021359GF108991999999999999999999MA1101395100545MW1101REMMET12701/01/10 04:53:02 METAR KMHT 010953Z 34003KT 4SM BR OVC007 M04/M06 A2994 RMK AO2 SNE48 CIG 006V009 SLP157 P0000 T10441061 (STJ)
0319743945147102010010110397+42933-071438FM-16+0071KMHT V0203405N00265011895MN0064375N5-00405-00605999999ADDAA101000021AU110030015AU200001015AW1105AW2715GA1045+002135999GA2075+011895999GA3085+033535999GD12991+0021359GD23991+0118959GD34991+0335359GF108991999999999999999999MA1101355100505MW1101MW2711REMMET11601/01/10 05:39:02 SPECI KMHT 011039Z 34005KT 4SM -SN BR SCT007 BKN039 OVC110 M04/M06 A2993 RMK AO2 SNB35 P0000 (STJ)
0335743945147102010010110537+42933-071438FM-15+0071KMHT V0203305N00155012505MN0064375N5-00445-00615101555ADDAA101000025AU110030015AU200001015AW1105AW2715GA1025+002135999GA2075+012505999GA3085+033535999GD11991+0021359GD23991+0125059GD34991+0335359GF108991999999999999999999MA1101355100505MW1101MW2711REMMET13201/01/10 05:53:02 METAR KMHT 011053Z 33003KT 4SM -SN BR FEW007 BKN041 OVC110 M04/M06 A2993 RMK AO2 SNB35 SLP155 P0000 T10441061 (CZ)
0356743945147102010010111537+42933-071438FM-15+0071KMHT V0203605N00265012505MN0112655N5-00395-00615101515ADDAA101000025AA206000021AA324003391AJ100089599999999GA1085+012505999GD14991+0125059GF108991999999999999999999KA1999M-00391KA2999N-00441MA1101325100475MD1840104+9999REMMET14701/01/10 06:53:02 METAR KMHT 011153Z 36005KT 7SM OVC041 M04/M06 A2992 RMK AO2 SNE33 SLP151 4/003 P0000 60000 70013 T10391061 11039 21044 58010 (CZ)EQDQ01  00008PRCP06Q02  00338PRCP24
0232743945147102010010112537+42933-071438FM-15+0071KMHT V0209999C00005028965MN0112655N5-00395-00615101515ADDAA101000095GA1045+013115999GA2085+028965999GD12991+0131159GD24991+0289659GF108991999999999999999999MA1101325100475REMMET10601/01/10 07:53:02 METAR KMHT 011253Z 00000KT 7SM SCT043 OVC095 M04/M06 A2992 RMK AO2 SLP151 T10391061 (CZ)
0247743945147102010010113537+42933-071438FM-15+0071KMHT V0203305N00215021345MN0112655N5-00335-00565101465ADDAA101000025GA1075+021345999GA2085+027435999GD13991+0213459GD24991+0274359GF108991999999999999999999MA1101255100405REMMET12101/01/10 08:53:02 METAR KMHT 011353Z 33004KT 7SM BKN070 OVC090 M03/M06 A2990 RMK AO2 SNB30E48 SLP146 P0000 T10331056 (CZ)
0231743945147102010010114537+42933-071438FM-15+0071KMHT V0203105N00155016765MN0112655N5-00285-00565101455ADDAA101000095AA203000021GA1085+016765999GD14991+0167659GF108991999999999999999999MA1101255100405MD1840044+9999REMMET11101/01/10 09:53:02 METAR KMHT 011453Z 31003KT 7SM OVC055 M03/M06 A2990 RMK AO2 SLP145 60000 T10281056 58004 (CZ)
0232743945147102010010115537+42933-071438FM-15+0071KMHT V0203405N00155018295MN0112655N5-00225-00505101355ADDAA101000095GA1075+018295999GA2085+025915999GD13991+0182959GD24991+0259159GF108991999999999999999999MA1101155100305REMMET10601/01/10 10:53:02 METAR KMHT 011553Z 34003KT 7SM BKN060 OVC085 M02/M05 A2987 RMK AO2 SLP135 T10221050 (CZ)
0232743945147102010010116537+42933-071438FM-15+0071KMHT V0203305N00215015245MN0128755N5-00115-00395101255ADDAA101000095GA1075+015245999GA2085+025915999GD13991+0152459GD24991+0259159GF108991999999999999999999MA1101055100205REMMET10601/01/10 11:53:02 METAR KMHT 011653Z 33004KT 8SM BKN050 OVC085 M01/M04 A2984 RMK AO2 SLP125 T10111039 (CZ)
0292743945147102010010117537+42933-071438FM-15+0071KMHT V0203505N00265025915MN0160935N5+00005-00395101125ADDAA101000095AA206000021AJ100089599999999GA1085+025915999GD14991+0259159GF108991999999999999999999KA1999M+00001KA2999N-00391MA1100955100105MD1840334+9999REMMET12901/01/10 12:53:02 METAR KMHT 011753Z 35005KT 10SM OVC085 00/M04 A2981 RMK AO2 SLP112 4/003 60000 T00001039 10000 21039 58033 (CZ)
0270743945147102010010118537+42933-071438FM-15+0071KMHT V0203405N00365011585MN0160935N5+00065-00335101135ADDAA101000095GA1025+007625999GA2075+011585999GA3085+024385999GD11991+0076259GD23991+0115859GD34991+0243859GF108991999999999999999999MA1100955100105REMMET11301/01/10 13:53:02 METAR KMHT 011853Z 34007KT 10SM FEW025 BKN038 OVC080 01/M03 A2981 RMK AO2 SLP113 T00061033 (CZ)
0204743945147102010010119047+42933-071438FM-16+0071KMHT V0203605N00365008845MN0160935N5+00105-00305999999ADDGA1075+008845999GA2085+011585999GD13991+0088459GD24991+0115859GF108991999999999999999999MA1100955100105REMMET08901/01/10 14:04:02 SPECI KMHT 011904Z 36007KT 10SM BKN029 OVC038 01/M03 A2981 RMK AO2 (JS)
0232743945147102010010119537+42933-071438FM-15+0071KMHT V0203505N00315004885MN0112655N5+00065-00285101125ADDAA101000025AU110030015AW1715GA1085+004885999GD14991+0048859GF108991999999999999999999MA1100955100105MW1711REMMET11401/01/10 14:53:02 METAR KMHT 011953Z 35006KT 7SM -SN OVC016 01/M03 A2981 RMK AO2 SNB52 SLP112 P0000 T00061028 (JS)
0245743945147102010010120357+42933-071438FM-16+0071KMHT V0203405N00265003665MN0048285N5+00005-00205999999ADDAA101000021AU110030015AU200001015AW1105AW2715GA1085+003665999GD14991+0036659GF108991999999999999999999MA1100915100075MW1101MW2711REMMET10401/01/10 15:35:02 SPECI KMHT 012035Z 34005KT 3SM -SN BR OVC012 00/M02 A2980 RMK AO2 TWR VIS 4 P0000 (JS)
0308743945147102010010120537+42933-071438FM-15+0071KMHT V0203405N00215003055MN0064375N5+00005-00225101135ADDAA101000025AA203000021AU110030015AU200001015AW1105AW2715GA1085+003055999GD14991+0030559GF108991999999999999999999MA1100955100105MD1140014+9999MW1101MW2711REMMET12301/01/10 15:53:02 METAR KMHT 012053Z 34004KT 4SM -SN BR OVC010 00/M02 A2981 RMK AO2 SLP113 P0000 60000 T00001022 51001 (JS)EQDQ01  00008PRCP03
0239743945147102010010121077+42933-071438FM-16+0071KMHT V0203405N00155003665MN0040235N5+00005-00205999999ADDAA101000021AU110030015AU200001015AW1105AW2715GA1085+003665999GD14991+0036659GF108991999999999999999999MA1100955100105MW1101MW2711REMMET09801/01/10 16:07:02 SPECI KMHT 012107Z 34003KT 2 1/2SM -SN BR OVC012 00/M02 A2981 RMK AO2 P0000 (JS)
0311743945147102010010121237+42933-071438FM-16+0071KMHT V0203405N00215005795MN0016095N5-00105-00205999999ADDAA101000021AU110030015AU200001015AW1105AW2715ED135U18299GA1045+003665999GA2085+005795999GD12991+0036659GD24991+0057959GF108991999999999999999999MA1100915100075MW1101MW2711REMMET12801/01/10 16:23:02 SPECI KMHT 012123Z 34004KT 1SM R35/P6000FT -SN BR SCT012 OVC019 M01/M02 A2980 RMK AO2 TWR VIS 2 1/2 P0000 (JS)
0288743945147102010010121357+42933-071438FM-16+0071KMHT V0203405N00215005795MN0032195N5-00105-00205999999ADDAA101000021AU110030015AU200001015AW1105AW2715GA1025+003665999GA2085+005795999GD11991+0036659GD24991+0057959GF108991999999999999999999MA1100915100075MW1101MW2711REMMET11601/01/10 16:35:02 SPECI KMHT 012135Z 34004KT 2SM -SN BR FEW012 OVC019 M01/M02 A2980 RMK AO2 TWR VIS 2 1/2 P0000 (JS)
0267743945147102010010121537+42933-071438FM-15+0071KMHT V0203405N00215006405MN0032195N5-00065-00175101095ADDAA101000025AU110030015AU200001015AW1105AW2715GA1085+006405999GD14991+0064059GF108991999999999999999999MA1100915100075MW1101MW2711REMMET12601/01/10 16:53:02 METAR KMHT 012153Z 34004KT 2SM -SN BR OVC021 M01/M02 A2980 RMK AO2 TWR VIS 2 1/2 SLP109 P0000 T10061017 (JS)
0278743945147102010010122387+42933-071438FM-16+0071KMHT V0203305N00215007015MN0040235N5-00105-00205999999ADDAA101000021AU110030015AU200001015AW1105AW2715GA1025+001835999GA2085+007015999GD11991+0018359GD24991+0070159GF108991999999999999999999MA1100885100035MW1101MW2711REMMET10601/01/10 17:38:02 SPECI KMHT 012238Z 33004KT 2 1/2SM -SN BR FEW006 OVC023 M01/M02 A2979 RMK AO2 P0000 (JS)
0333743945147102010010122537+42933-071438FM-15+0071KMHT V0203405N00215006405MN0040235N5-00065-00175101065ADDAA101000025AU110030015AU200001015AW1105AW2715GA1025+001835999GA2045+005185999GA3085+006405999GD11991+0018359GD22991+0051859GD34991+0064059GF108991999999999999999999MA1100885100035MW1101MW2711REMMET13001/01/10 17:53:02 METAR KMHT 012253Z 34004KT 2 1/2SM -SN BR FEW006 SCT017 OVC021 M01/M02 A2979 RMK AO2 SLP106 P0000 T10061017 (JS)
0286743945147102010010123516+42933-071438FM-16+0071KMHT V0203505N00365007625MN0024145N5-00105-00205999999ADDAU110030015AU200001015AW1105AW2715GA1025+001835999GA2045+003965999GA3085+007625999GD11991+0018359GD22991+0039659GD34991+0076259MA1100855100005REMMET13201/01/10 18:51:02 SPECI KMHT 012351Z 35007KT 1 1/2SM -SN BR FEW006 SCT013 OVC025 M01/M02 A2978 RMK AO2 TWR VIS 2 1/2 P0000 FIBI (JS)
0464743945147102010010123537+42933-071438FM-15+0071KMHT V0203405N00365007625MN0024145N5-00065-00175101025ADDAA101000025AA206000021AJ100089599999999AU110030015AU200001015AW1105AW2715GA1025+001835999GA2045+003965999GA3085+007625999GD11991+0018359GD22991+0039659GD34991+0076259GF108991999999999999999999KA1999M+00061KA2999N-00061MA1100855100005MD1640074+9999MW1101MW2711REMMET17401/01/10 18:53:02 METAR KMHT 012353Z 34007KT 1 1/2SM -SN BR FEW006 SCT013 OVC025 M01/M02 A2978 RMK AO2 TWR VIS 2 1/2 SLP102 4/003 P0000 60000 T10061017 10006 21006 56007 (JS)EQDQ01  00008PRCP06
0325743945147102010010200137+42933-071438FM-16+0071KMHT V0203505N00315003055MN0020125N5-00105-00205999999ADDAA101000021AU110030015AU200001015AW1105AW2715GA1025+001525999GA2075+003055999GA3085+008235999GD11991+0015259GD23991+0030559GD34991+0082359GF108991999999999999999999MA1100815099975MW1101MW2711REMMET12201/01/10 19:13:02 SPECI KMHT 020013Z 35006KT 1 1/4SM -SN BR FEW005 BKN010 OVC027 M01/M02 A2977 RMK AO2 TWR VIS 2 1/2 P0000
0299743945147102010010200287+42933-071438FM-16+0071KMHT V0203605N00265002135MN0024145N5-00105-00205999999ADDAA101000021AU110030015AU200001015AW1105AW2715GA1075+002135999GA2085+003665999GD13991+0021359GD24991+0036659GF108991999999999999999999MA1100785099935MW1101MW2711REMMET12701/01/10 19:28:02 SPECI KMHT 020028Z 36005KT 1 1/2SM -SN BR BKN007 OVC012 M01/M02 A2976 RMK AO2 TWR VIS 2 1/2 CIG 003V009 P0000
0354743945147102010010200537+42933-071438FM-15+0071KMHT V0203505N00265001525MN0028165N5-00065-00175100945ADDAA101000025AU110030015AU200001015AW1105AW2715GA1075+001525999GA2075+003355999GA3085+006105999GD13991+0015259GD23991+0033559GD34991+0061059GF108991999999999999999999MA1100755099905MW1101MW2711REMMET15101/01/10 19:53:02 METAR KMHT 020053Z 35005KT 1 3/4SM -SN BR BKN005 BKN011 OVC020 M01/M02 A2975 RMK AO2 TWR VIS 2 1/2 CIG 003V009 SLP094 P0000 T10061017
0325743945147102010010201097+42933-071438FM-16+0071KMHT V0203405N00315006105MN0028165N5-00105-00205999999ADDAA101000021AU110030015AU200001015AW1105AW2715GA1045+001525999GA2045+003355999GA3085+006105999GD12991+0015259GD22991+0033559GD34991+0061059GF108991999999999999999999MA1100715099865MW1101MW2711REMMET12201/01/10 20:09:02 SPECI KMHT 020109Z 34006KT 1 3/4SM -SN BR SCT005 SCT011 OVC020 M01/M02 A2974 RMK AO2 TWR VIS 2 1/2 P0000
0321743945147102010010201287+42933-071438FM-16+0071KMHT V0203505N00365006105MN0032195N5-00105-00205999999ADDAA101000021AU110030015AU200001015AW1105AW2715GA1045+001525999GA2045+003665999GA3085+006105999GD12991+0015259GD22991+0036659GD34991+0061059GF108991999999999999999999MA1100715099865MW1101MW2711REMMET11801/01/10 20:28:02 SPECI KMHT 020128Z 35007KT 2SM -SN BR SCT005 SCT012 OVC020 M01/M02 A2974 RMK AO2 TWR VIS 2 1/2 P0000
0300743945147102010010201537+42933-071438FM-15+0071KMHT V0203605N00315004575MN0032195N5-00115-00225100885ADDAA101000025AU110030015AU200001015AW1105AW2715GA1045+002445999GA2085+004575999GD12991+0024459GD24991+0045759GF108991999999999999999999MA1100685099835MW1101MW2711REMMET12801/01/10 20:53:02 METAR KMHT 020153Z 36006KT 2SM -SN BR SCT008 OVC015 M01/M02 A2973 RMK AO2 TWR VIS 2 1/2 SLP088 P0000 T10111022
0311743945147102010010202347+42933-071438FM-16+0071KMHT V0203605N00415003965MN0040235N5-00105-00305999999ADDAA101000021AU110030015AU200001015AW1105AW2715GA1045+002135999GA2075+003965999GA3085+005185999GD12991+0021359GD23991+0039659GD34991+0051859GF108991999999999999999999MA1100645099805MW1101MW2711REMMET10801/01/10 21:34:02 SPECI KMHT 020234Z 36008KT 2 1/2SM -SN BR SCT007 BKN013 OVC017 M01/M03 A2972 RMK AO2 P0000
0244743945147102010010202516+42933-071438FM-16+0071KMHT V0203405N00365004575MN0032195N5-00105-00205999999ADDAU110030015AU200001015AW1105AW2715GA1025+002445999GA2085+004575999GD11991+0024459GD24991+0045759MA1100615099765REMMET12101/01/10 21:51:03 SPECI KMHT 020251Z 34007KT 2SM -SN BR FEW008 OVC015 M01/M02 A2971 RMK AO2 TWR VIS 2 1/2 P0000 FIBI (JS)
0394743945147102010010202537+42933-071438FM-15+0071KMHT V0203405N00415003055MN0032195N5-00115-00225100795ADDAA101000025AA203000021AU110030015AU200001015AW1105AW2715GA1025+001835999GA2075+003055999GA3085+004575999GD11991+0018359GD23991+0030559GD34991+0045759GF108991999999999999999999MA1100615099765MD1740224+9999MW1101MW2711REMMET14701/01/10 21:53:02 METAR KMHT 020253Z 34008KT 2SM -SN BR FEW006 BKN010 OVC015 M01/M02 A2971 RMK AO2 TWR VIS 2 1/2 SLP079 P0000 60000 T10111022 57022EQDQ01  00008PRCP03
0287743945147102010010203457+42933-071438FM-16+0071KMHT V0203605N00265004575MN0024145N5-00205-00305999999ADDAA101000391AU110030015AU200001015AW1105AW2715GA1025+001835999GA2085+004575999GD11991+0018359GD24991+0045759GF108991999999999999999999MA1100585099735MW1101MW2711REMMET11501/01/10 22:45:02 SPECI KMHT 020345Z 36005KT 1 1/2SM -SN BR FEW006 OVC015 M02/M03 A2970 RMK AO2 TWR VIS 2 1/2 P0001
0304743945147102010010203537+42933-071438FM-15+0071KMHT V0203505N00315004575MN0024145N5-00175-00285100745ADDAA101000395AU110030015AU200001015AW1105AW2715GA1025+001835999GA2085+004575999GD11991+0018359GD24991+0045759GF108991999999999999999999MA1100585099735MW1101MW2711REMMET13201/01/10 22:53:01 METAR KMHT 020353Z 35006KT 1 1/2SM -SN BR FEW006 OVC015 M02/M03 A2970 RMK AO2 TWR VIS 2 1/2 SLP074 P0001 T10171028
0325743945147102010010204147+42933-071438FM-16+0071KMHT V0203605N00315003055MN0020125N5-00205-00305999999ADDAA101000021AU110030015AU200001015AW1105AW2715GA1025+001835999GA2075+003055999GA3085+007015999GD11991+0018359GD23991+0030559GD34991+0070159GF108991999999999999999999MA1100545099705MW1101MW2711REMMET12201/01/10 23:14:02 SPECI KMHT 020414Z 36006KT 1 1/4SM -SN BR FEW006 BKN010 OVC023 M02/M03 A2969 RMK AO2 TWR VIS 2 1/2 P0000
0314743945147102010010204537+42933-071438FM-15+0071KMHT V0203605N00315003665MN0020125N5-00225-00335100665ADDAA101000395AU110030015AU200001015AW1105AW2715GA1045+002135999GA2085+003665999GD12991+0021359GD24991+0036659GF108991999999999999999999MA1100475099635MW1101MW2711REMMET14201/01/10 23:53:01 METAR KMHT 020453Z 36006KT 1 1/4SM -SN BR SCT007 OVC012 M02/M03 A2967 RMK AO2 TWR VIS 2 1/2 SLP066 P0001 T10221033 400061044
1041743945147102010010204596+42933-071438SOD  +0071KMHT V020999999999999999999999999999+99999+99999999999ADDAA124000595AJ100089599999999AL12400095AN1024001895AX1016246AX2086246KA1240M+00065KA2240N-00435MG1100294100644OE11240058135021565OE22240044735021565OE33240023299999995REMSOD79624 HR PRECIPITATION (IN):0.02  SNOW DEPTH (IN):3     24 HR SNOWFALL (IN):0.7  WEATHER(CODE):1,8  24 HR MAX TEMP (F):33 24 HR MAX TEMP TIME (LST):1523 24 HR MIN TEMP (F):24 24 HR MIN TEMP TIME (LST):0632 AVERAGE STATION PRESSURE:29.615 MINIMUM SEA LEVEL PRESSURE:29.72 TIME OF OCCURRENCE:2359 PEAK WIND SPEED (MPH):13  PEAK WIND DIR (DEG):350 PEAK WIND TIME (LST):2156  FASTEST 2MIN SPEED (MPH):10 FASTEST 2MIN DIR (DEG):350 FASTEST 2MIN TIME (LST):2156 AVERAGE WIND SPEED (MPH):5.2  24 HR AVG TEMP (F):29 HEATING DEGREE DAYS:36  COOLING DEGREE DAYS:0   LATEST DAY MAX TEMP (0700-1900 LST):33  LATEST NIGHT MIN TEMP(1900-0800 LST):21 HOURLY INCREMENTAL PRECIPITATION VALUES (IN):.00 0.00 0.00 T    T    T    T    0.00 T    0.00 0.00 0.00 0.00 0.00 T    T    T    T    T    T    T    T    0.01 0.01EQDR01   1,87AXW093R02   1,87AXW093R03     N7GJS072R04     N7GKS075
0292743945147102010010205047+42933-071438FM-16+0071KMHT V0200205N00215002135MN0020125N5-00205-00305999999ADDAA101000021AU110030015AU200001015AW1105AW2715GA1075+002135999GA2085+003665999GD13991+0021359GD24991+0036659GF108991999999999999999999MA1100475099635MW1101MW2711REMMET12001/02/10 00:04:02 SPECI KMHT 020504Z 02004KT 1 1/4SM -SN BR BKN007 OVC012 M02/M03 A2967 RMK AO2 TWR VIS 2 1/2 P0000 (RN)
0464743945147102010010205537+42933-071438FM-15+0071KMHT V0200105N00365002135MN0020125N5-00225-00395100595ADDAA101000395AA206000891AJ100109599999999AU110030015AU200001015AW1105AW2715GA1075+002135999GA2075+004275999GA3085+007925999GD13991+0021359GD23991+0042759GD34991+0079259GF108991999999999999999999KA1999M-00061KA2999N-00221MA1100415099565MD1840194+9999MW1101MW2711REMMET17401/02/10 00:53:02 METAR KMHT 020553Z 01007KT 1 1/4SM -SN BR BKN007 BKN014 OVC026 M02/M04 A2965 RMK AO2 TWR VIS 2 1/2 SLP059 4/004 P0001 60003 T10221039 11006 21022 58019 (RN)EQDQ01  00088PRCP06
0319743945147102010010206107+42933-071438FM-16+0071KMHT V0203605N00315002135MN0008055N5-00305-00405999999ADDAA101000391AU120030015AU208002015AW1355AW2725ED135U12199GA1045+000915999GA2085+002135999GD12991+0009159GD24991+0021359GF108991999999999999999999MA1100415099565MW1481MW2731REMMET13601/02/10 01:10:02 SPECI KMHT 020610Z 36006KT 1/2SM R35/4000VP6000FT SN FZFG SCT003 OVC007 M03/M04 A2965 RMK AO2 TWR VIS 2 1/2 P0001 (RN)
0319743945147102010010206197+42933-071438FM-16+0071KMHT V0200105N00415000915MN0008055N5-00305-00405999999ADDAA101000591AU120030015AU208002015AW1355AW2725ED135U15249GA1075+000915999GA2085+002135999GD13991+0009159GD24991+0021359GF108991999999999999999999MA1100415099565MW1481MW2731REMMET13601/02/10 01:19:02 SPECI KMHT 020619Z 01008KT 1/2SM R35/5000VP6000FT SN FZFG BKN003 OVC007 M03/M04 A2965 RMK AO2 TWR VIS 2 1/2 P0002 (RN)
0292743945147102010010206327+42933-071438FM-16+0071KMHT V0200105N00415000915MN0024145N5-00305-00405999999ADDAA101000591AU110030015AU200001015AW1105AW2715GA1075+000915999GA2085+002135999GD13991+0009159GD24991+0021359GF108991999999999999999999MA1100415099565MW1101MW2711REMMET12001/02/10 01:32:02 SPECI KMHT 020632Z 01008KT 1 1/2SM -SN BR BKN003 OVC007 M03/M04 A2965 RMK AO2 TWR VIS 2 1/2 P0002 (RN)
0326743945147102010010206517+42933-071438FM-16+0071KMHT V0203605N00365002135MN0032195N5-00305-00405999999ADDAA101000591AU110030015AU200001015AW1105AW2715GA1025+000915999GA2075+002135999GA3085+007015999GD11991+0009159GD23991+0021359GD34991+0070159GF108991999999999999999999MA1100415099565MW1101MW2711REMMET12301/02/10 01:51:02 SPECI KMHT 020651Z 36007KT 2SM -SN BR FEW003 BKN007 OVC023 M03/M04 A2965 RMK AO2 TWR VIS 2 1/2 P0002 (RN)
0343743945147102010010206537+42933-071438FM-15+0071KMHT V0203605N00315002135MN0032195N5-00285-00445100585ADDAA101000595AU110030015AU200001015AW1105AW2715GA1025+000915999GA2075+002135999GA3085+007015999GD11991+0009159GD23991+0021359GD34991+0070159GF108991999999999999999999MA1100415099565MW1101MW2711REMMET14001/02/10 01:53:02 METAR KMHT 020653Z 36006KT 2SM -SN BR FEW003 BKN007 OVC023 M03/M04 A2965 RMK AO2 TWR VIS 2 1/2 SLP058 P0002 T10281044 (RN)
0316743945147102010010207317+42933-071438FM-16+0071KMHT V0203605N00365003055MN0040235N5-00305-00405999999ADDAA101000021AU110030015AU200001015AW1105AW2715GA1025+000915999GA2075+003055999GA3085+007015999GD11991+0009159GD23991+0030559GD34991+0070159GF108991999999999999999999MA1100415099565MW1101MW2711REMMET11301/02/10 02:31:02 SPECI KMHT 020731Z 36007KT 2 1/2SM -SN BR FEW003 BKN010 OVC023 M03/M04 A2965 RMK AO2 P0000 (RN)
0330743945147102010010207417+42933-071438FM-16+0071KMHT V0200205N00415003055MN0020125N5-00305-00405999999ADDAA101000021AU110030015AU200001015AW1105AW2715GA1025+000915999GA2075+003055999GA3085+007015999GD11991+0009159GD23991+0030559GD34991+0070159GF108991999999999999999999MA1100415099565MW1101MW2711REMMET12701/02/10 02:41:02 SPECI KMHT 020741Z 02008KT 1 1/4SM -SN BR FEW003 BKN010 OVC023 M03/M04 A2965 RMK AO2 TWR VIS 2 1/2 P0000 (RN)
0312743945147102010010207516+42933-071438FM-16+0071KMHT V0200305N00365003055MN0012075N5-00305-00405999999ADDAU110030015AU200001015AW1105AW2715ED135U09149GA1025+000915999GA2075+003055999GA3085+007015999GD11991+0009159GD23991+0030559GD34991+0070159MA1100415099565REMMET14701/02/10 02:51:02 SPECI KMHT 020751Z 03007KT 3/4SM R35/3000VP6000FT -SN BR FEW003 BKN010 OVC023 M03/M04 A2965 RMK AO2 TWR VIS 2 1/2 P0001 FIBI (RN)
0373743945147102010010207537+42933-071438FM-15+0071KMHT V0200205N00415002445MN0012075N5-00335-00445100575ADDAA101000895AU110030015AU200001015AW1105AW2715ED135U09149GA1025+000915999GA2075+002445999GA3085+007625999GD11991+0009159GD23991+0024459GD34991+0076259GF108991999999999999999999MA1100375099535MW1101MW2711REMMET15901/02/10 02:53:02 METAR KMHT 020753Z 02008KT 3/4SM R35/3000VP6000FT -SN BR FEW003 BKN008 OVC025 M03/M04 A2964 RMK AO2 TWR VIS 2 1/2 SLP057 P0002 T10331044 (RN)
0253743945147102010010208287+42933-071438FM-16+0071KMHT V0200105N00315001525WN0020125N5-00305-00405999999ADDAA101000891AU110030015AU200001015AW1105AW2715GA1095+001525999GD15991+0015259GF109991999999000251999999MA1100375099535MW1101MW2711REMMET11201/02/10 03:28:02 SPECI KMHT 020828Z 01006KT 1 1/4SM -SN BR VV005 M03/M04 A2964 RMK AO2 TWR VIS 2 1/2 P0003 (RN)
0313743945147102010010208497+42933-071438FM-16+0071KMHT V0200105N00265002135MN0012075N5-00305-00405999999ADDAA101001091AU110030015AU200001015AW1105AW2715ED135U18299GA1075+002135999GA2085+004885999GD13991+0021359GD24991+0048859GF108991999999999999999999MA1100345099495MW1101MW2711REMMET13001/02/10 03:49:02 SPECI KMHT 020849Z 01005KT 3/4SM R35/P6000FT -SN BR BKN007 OVC016 M03/M04 A2963 RMK AO2 TWR VIS 2 1/2 P0004 (RN)
0386743945147102010010208537+42933-071438FM-15+0071KMHT V0200105N00265002135MN0012075N5-00335-00445100515ADDAA101001095AA203002091AU110030015AU200001015AW1105AW2715ED135U18299GA1075+002135999GA2085+004885999GD13991+0021359GD24991+0048859GF108991999999999999999999MA1100345099495MD1640074+9999MW1101MW2711REMMET15901/02/10 03:53:02 METAR KMHT 020853Z 01005KT 3/4SM R35/P6000FT -SN BR BKN007 OVC016 M03/M04 A2963 RMK AO2 TWR VIS 2 1/2 SLP051 P0004 60008 T10331044 56007 (RN)EQDQ01  00208PRCP03
0311743945147102010010209057+42933-071438FM-16+0071KMHT V0203605N00365002135MN0016095N5-00305-00405999999ADDAA101000391AU110030015AU200001015AW1105AW2715ED135U18299GA1075+002135999GA2085+003965999GD13991+0021359GD24991+0039659GF108991999999999999999999MA1100305099465MW1101MW2711REMMET12801/02/10 04:05:02 SPECI KMHT 020905Z 36007KT 1SM R35/P6000FT -SN BR BKN007 OVC013 M03/M04 A2962 RMK AO2 TWR VIS 2 1/2 P0001 (RN)
0282743945147102010010209516+42933-071438FM-16+0071KMHT V0203505N00265002135MN0032195N5-00305-00505999999ADDAU110030015AU200001015AW1105AW2715GA1075+002135999GA2075+005495999GA3085+012195999GD13991+0021359GD23991+0054959GD34991+0121959MA1100275099435REMMET12801/02/10 04:51:02 SPECI KMHT 020951Z 35005KT 2SM -SN BR BKN007 BKN018 OVC040 M03/M05 A2961 RMK AO2 TWR VIS 2 1/2 P0002 FIBI (RN)
0343743945147102010010209537+42933-071438FM-15+0071KMHT V0203505N00315002135MN0032195N5-00335-00505100455ADDAA101000395AU110030015AU200001015AW1105AW2715GA1075+002135999GA2075+005495999GA3085+012195999GD13991+0021359GD23991+0054959GD34991+0121959GF108991999999999999999999MA1100275099435MW1101MW2711REMMET14001/02/10 04:53:02 METAR KMHT 020953Z 35006KT 2SM -SN BR BKN007 BKN018 OVC040 M03/M05 A2961 RMK AO2 TWR VIS 2 1/2 SLP045 P0002 T10331050 (RN)
0330743945147102010010210207+42933-071438FM-16+0071KMHT V0203405N00265005495MN0028165N5-00405-00505999999ADDAA101000021AU110030015AU200001015AW1105AW2715GA1045+002135999GA2075+005495999GA3085+015245999GD12991+0021359GD23991+0054959GD34991+0152459GF108991999999999999999999MA1100275099435MW1101MW2711REMMET12701/02/10 05:20:02 SPECI KMHT 021020Z 34005KT 1 3/4SM -SN BR SCT007 BKN018 OVC050 M04/M05 A2961 RMK AO2 TWR VIS 2 1/2 P0000 (RN)
0326743945147102010010210307+42933-071438FM-16+0071KMHT V0203405N00315004575MN0032195N5-00405-00505999999ADDAA101000021AU110030015AU200001015AW1105AW2715GA1025+002135999GA2075+004575999GA3085+016765999GD11991+0021359GD23991+0045759GD34991+0167659GF108991999999999999999999MA1100245099395MW1101MW2711REMMET12301/02/10 05:30:02 SPECI KMHT 021030Z 34006KT 2SM -SN BR FEW007 BKN015 OVC055 M04/M05 A2960 RMK AO2 TWR VIS 2 1/2 P0000 (RN)
0272743945147102010010210356+42933-071438FM-16+0071KMHT V0203405N00265004575MN0024145N5-00405-00505999999ADDAU110030015AU200001015AW1105AW2715GA1025+002135999GA2075+004575999GA3085+016765999GD11991+0021359GD23991+0045759GD34991+0167659MA1100245099395REMMET11801/02/10 05:35:02 SPECI KMHT 021035Z 34005KT 1 1/2SM -SN BR FEW007 BKN015 OVC055 M04/M05 A2960 RMK AO2 P0000 FIBI (RN)
0333743945147102010010210537+42933-071438FM-15+0071KMHT V0203405N00365008535MN0024145N5-00395-00565100415ADDAA101000025AU110030015AU200001015AW1105AW2715GA1025+002135999GA2045+004575999GA3085+008535999GD11991+0021359GD22991+0045759GD34991+0085359GF108991999999999999999999MA1100245099395MW1101MW2711REMMET13001/02/10 05:53:02 METAR KMHT 021053Z 34007KT 1 1/2SM -SN BR FEW007 SCT015 OVC028 M04/M06 A2960 RMK AO2 SLP041 P0000 T10391056 (RN)
0292743945147102010010211147+42933-071438FM-16+0071KMHT V0203405N00415003055MN0020125N5-00405-00605999999ADDAA101000021AU110030015AU200001015AW1105AW2715GA1075+003055999GA2085+008535999GD13991+0030559GD24991+0085359GF108991999999999999999999MA1100205099365MW1101MW2711REMMET12001/02/10 06:14:02 SPECI KMHT 021114Z 34008KT 1 1/4SM -SN BR BKN010 OVC028 M04/M06 A2959 RMK AO2 TWR VIS 1 1/2 P0000 (CD)
0272743945147102010010211297+42933-071438FM-16+0071KMHT V0203505N00415002745WN0016095N5-00405-00605999999ADDAA101000391AU110030015AU200001015AW1105AW2715ED135U18299GA1095+002745999GD15991+0027459GF109991999999000251999999MA1100205099365MW1101MW2711REMMET12001/02/10 06:29:02 SPECI KMHT 021129Z 35008KT 1SM R35/P6000FT -SN BR VV009 M04/M06 A2959 RMK AO2 TWR VIS 1 1/4 P0001 (CD)
0202743945147102010010211516+42933-071438FM-16+0071KMHT V0203505N00365003355MN0020125N5-00405-00505999999ADDAU110030015AU200001015AW1105AW2715GA1085+003355999GD14991+0033559MA1100175099335REMMET11001/02/10 06:51:02 SPECI KMHT 021151Z 35007KT 1 1/4SM -SN BR OVC011 M04/M05 A2958 RMK AO2 4/007 P0001 FIBI (CD)
0407743945147102010010211537+42933-071438FM-15+0071KMHT V0203505N00365003355MN0020125N5-00395-00505100365ADDAA101000595AA206002891AA324003691AJ100189599999999AU110030015AU200001015AW1105AW2715GA1085+003355999GD14991+0033559GF108991999999999999999999KA1999M-00221KA2999N-00391MA1100175099335MD1640164+9999MW1101MW2711REMMET15201/02/10 06:53:02 METAR KMHT 021153Z 35007KT 1 1/4SM -SN BR OVC011 M04/M05 A2958 RMK AO2 SLP036 4/007 P0001 60011 70014 T10391050 11022 21039 56016 (CD)EQDQ01  00288PRCP06Q02  00368PRCP24
0278743945147102010010212047+42933-071438FM-16+0071KMHT V0203505N00315005795MN0020125N5-00405-00505999999ADDAA101000391AU110030015AU200001015AW1105AW2715GA1075+005795999GA2085+014335999GD13991+0057959GD24991+0143359GF108991999999999999999999MA1100175099335MW1101MW2711REMMET10601/02/10 07:04:02 SPECI KMHT 021204Z 35006KT 1 1/4SM -SN BR BKN019 OVC047 M04/M05 A2958 RMK AO2 P0001 (CD)
0356743945147102010010212267+42933-071438FM-16+0071KMHT V0203505N00365009755MN0012075N5-00305-00505999999ADDAA101000391AU110030015AU200001015AW1105AW2715ED135U18299GA1075+009755999GA2075+013725999GA3085+014945999GD13991+0097559GD23991+0137259GD34991+0149459GF108991999999999999999999MA1100145099295MW1101MW2711REMMET14201/02/10 07:26:02 SPECI KMHT 021226Z 35007KT 3/4SM R35/6000VP6000FT -SN BR BKN032 BKN045 OVC049 M03/M05 A2957 RMK AO2 TWR VIS 1 1/4 P0001 (CD)
0354743945147102010010212427+42933-071438FM-16+0071KMHT V0203405N00315004575MN0008055N5-00305-00405999999ADDAA101000391AU110030015AU208002015AW1355AW2715ED135U15249GA1075+004575999GA2075+008535999GA3085+014635999GD13991+0045759GD23991+0085359GD34991+0146359GF108991999999999999999999MA1100105099265MW1481MW2711REMMET14001/02/10 07:42:02 SPECI KMHT 021242Z 34006KT 1/2SM R35/5000VP6000FT -SN FZFG BKN015 BKN028 OVC048 M03/M04 A2956 RMK AO2 TWR VIS 1 P0001 (CD)
0369743945147102010010212537+42933-071438FM-15+0071KMHT V0203405N00365005185MN0012075N5-00335-00445100295ADDAA101000395AU110030015AU200001015AW1105AW2715ED135U16769GA1075+005185999GA2075+008845999GA3085+014635999GD13991+0051859GD23991+0088459GD34991+0146359GF108991999999999999999999MA1100105099265MW1101MW2711REMMET15501/02/10 07:53:02 METAR KMHT 021253Z 34007KT 3/4SM R35/5500VP6000FT -SN BR BKN017 BKN029 OVC048 M03/M04 A2956 RMK AO2 TWR VIS 1 SLP029 P0002 T10331044 (CD)
0314743945147102010010213047+42933-071438FM-16+0071KMHT V0203405N00415003055MN0012075N5-00305-00405999999ADDAA101000021AU110030015AU200001015AW1105AW2715ED135U15249GA1075+003055999GA2085+005185999GD13991+0030559GD24991+0051859GF108991999999999999999999MA1100105099265MW1101MW2711REMMET13101/02/10 08:04:02 SPECI KMHT 021304Z 34008KT 3/4SM R35/5000VP6000FT -SN BR BKN010 OVC017 M03/M04 A2956 RMK AO2 TWR VIS 1 P0000 (CD)
0314743945147102010010213217+42933-071438FM-16+0071KMHT V0203405N00415002135MN0012075N5-00305-00405999999ADDAA101000021AU110030015AU200001015AW1105AW2715ED135U15249GA1075+002135999GA2085+003965999GD13991+0021359GD24991+0039659GF108991999999999999999999MA1100105099265MW1101MW2711REMMET13101/02/10 08:21:02 SPECI KMHT 021321Z 34008KT 3/4SM R35/5000VP6000FT -SN BR BKN007 OVC013 M03/M04 A2956 RMK AO2 TWR VIS 1 P0000 (CD)
0369743945147102010010213537+42933-071438FM-15+0071KMHT V0203605N00465002135MN0012075N5-00335-00505100275ADDAA101000395AU110030015AU200001015AW1105AW2715ED135U16769GA1075+002135999GA2075+003965999GA3085+005495999GD13991+0021359GD23991+0039659GD34991+0054959GF108991999999999999999999MA1100075099235MW1101MW2711REMMET15501/02/10 08:53:02 METAR KMHT 021353Z 36009KT 3/4SM R35/5500VP6000FT -SN BR BKN007 BKN013 OVC018 M03/M05 A2955 RMK AO2 TWR VIS 1 SLP027 P0001 T10331050 (CD)
0314743945147102010010214137+42933-071438FM-16+0071KMHT V0203505N00465004575MN0012075N5-00305-00505999999ADDAA101000021AU110030015AU200001015AW1105AW2715ED135U16769GA1025+003055999GA2085+004575999GD11991+0030559GD24991+0045759GF108991999999999999999999MA1100075099235MW1101MW2711REMMET13101/02/10 09:13:02 SPECI KMHT 021413Z 35009KT 3/4SM R35/5500VP6000FT -SN BR FEW010 OVC015 M03/M05 A2955 RMK AO2 TWR VIS 1 P0000 (CD)
0352743945147102010010214177+42933-071438FM-16+0071KMHT V0203505N00415003965MN0012075N5-00305-00405999999ADDAA101000021AU110030015AU200001015AW1105AW2715ED135U16769GA1025+002445999GA2075+003965999GA3085+008235999GD11991+0024459GD23991+0039659GD34991+0082359GF108991999999999999999999MA1100075099235MW1101MW2711REMMET13801/02/10 09:17:02 SPECI KMHT 021417Z 35008KT 3/4SM R35/5500VP6000FT -SN BR FEW008 BKN013 OVC027 M03/M04 A2955 RMK AO2 TWR VIS 1 P0000 (CD)
0335743945147102010010214237+42933-071438FM-16+0071KMHT V0203505N00465005795MN0016095N5-00305-00405999999ADDAA101000021AU110030015AU200001015AW1105AW2715ED135U18299GA1045+003965999GA2075+005795999GA3085+009755999GD12991+0039659GD23991+0057959GD34991+0097559GF108991999999999999999999MA1100075099235MW1101MW2711REMMET12101/02/10 09:23:02 SPECI KMHT 021423Z 35009KT 1SM R35/P6000FT -SN BR SCT013 BKN019 OVC032 M03/M04 A2955 RMK AO2 P0000 (CD)
0326743945147102010010214487+42933-071438FM-16+0071KMHT V0203505N00415003665MN0016095N5-00305-00405999999ADDAA101000021AU110030015AU200001015AW1105AW2715GA1075+003665999GA2075+007325999GA3085+009455999GD13991+0036659GD23991+0073259GD34991+0094559GF108991999999999999999999MA1100075099235MW1101MW2711REMMET12301/02/10 09:48:02 SPECI KMHT 021448Z 35008KT 1SM -SN BR BKN012 BKN024 OVC031 M03/M04 A2955 RMK AO2 SFC VIS 1 1/2 P0000 (CD)
0403743945147102010010214537+42933-071438FM-15+0071KMHT V0203505N00365004275MN0020125N5-00285-00445100235ADDAA101000395AA203000891AU110030015AU200001015AW1105AW2715GA1025+003055999GA2075+004275999GA3085+009455999GD11991+0030559GD23991+0042759GD34991+0094559GF108991999999999999999999MA1100075099235MD1640054+9999MW1101MW2711REMMET15601/02/10 09:53:02 METAR KMHT 021453Z 35007KT 1 1/4SM -SN BR FEW010 BKN014 OVC031 M03/M04 A2955 RMK AO2 TWR VIS 1 1/2 SLP023 P0000 60003 T10281044 56005 (CD)EQDQ01  00088PRCP03
0254743945147102010010214557+42933-071438FM-16+0071KMHT V0203505N00365002445MN0020125N5-00305-00405999999ADDAA101000021AU110030015AU200001015AW1105AW2715GA1085+002445999GD14991+0024459GF108991999999999999999999MA1100035099195MW1101MW2711REMMET11301/02/10 09:55:02 SPECI KMHT 021455Z 35007KT 1 1/4SM -SN BR OVC008 M03/M04 A2954 RMK AO2 TWR VIS 1 1/2 P0000 (CD)
0295743945147102010010215537+42933-071438FM-15+0071KMHT V0200105N00515002445MN0016095N5-00285-00505100155ADDAA101000025AU110030015AU200001015AW1105AW2715ED135U15249GA1085+002445999GD14991+0024459GF108991999999999999999999MA1099975099125MW1101MW2711REMMET14301/02/10 10:53:02 METAR KMHT 021553Z 01010KT 1SM R35/5000VP6000FT -SN BR OVC008 M03/M05 A2952 RMK AO2 TWR VIS 1 1/4 SLP015 P0001 T10281050 (CD)
0352743945147102010010216007+42933-071438FM-16+0071KMHT V0203605N00515009145MN0012075N5-00305-00505999999ADDAA101000021AU110030015AU200001015AW1105AW2715ED135U10679GA1025+007325999GA2075+009145999GA3085+011895999GD11991+0073259GD23991+0091459GD34991+0118959GF108991999999999999999999MA1099975099125MW1101MW2711REMMET13801/02/10 11:00:02 SPECI KMHT 021600Z 36010KT 3/4SM R35/3500VP6000FT -SN BR FEW024 BKN030 OVC039 M03/M05 A2952 RMK AO2 TWR VIS 1 P0000 (CD)
0277743945147102010010216037+42933-071438FM-16+0071KMHT V0200105N00465002135MN0008055N5-00305-00505999999ADDAA101000021AU110030015AU208002015AW1355AW2715ED135U10679GA1085+002135999GD14991+0021359GF108991999999999999999999MA1099935099095MW1481MW2711REMMET12501/02/10 11:03:02 SPECI KMHT 021603Z 01009KT 1/2SM R35/3500V5500FT -SN FZFG OVC007 M03/M05 A2951 RMK AO2 TWR VIS 1 P0000 (CD)
0268743945147102010010216207+42933-071438FM-16+0071KMHT V0200105N00465002135MN0020125N5-00305-00505999999ADDAA101000021AU110030015AU200001015AW1105AW2715ED135U18299GA1085+002135999GD14991+0021359GF108991999999999999999999MA1099935099095MW1101MW2711REMMET11601/02/10 11:20:02 SPECI KMHT 021620Z 01009KT 1 1/4SM R35/6000VP6000FT -SN BR OVC007 M03/M05 A2951 RMK AO2 P0000 (CD)
0231743945147102010010216537+42933-071438FM-15+0071KMHT V0203605N00415002135MN0020125N5-00225-00505100055ADDAA101000025AU110030015AW1715GA1085+002135999GD14991+0021359GF108991999999999999999999MA1099865099025MW1711REMMET11301/02/10 11:53:02 METAR KMHT 021653Z 36008KT 1 1/4SM -SN OVC007 M02/M05 A2949 RMK AO2 SLP005 P0000 T10221050 (CD)
0266743945147102010010217007+42933-071438FM-16+0071KMHT V0203605N00515015245MN0024145N5-00205-00605999999ADDAA101000021AU110030015AW1715GA1025+008535999GA2085+015245999GD11991+0085359GD24991+0152459GF108991999999999999999999MA1099865099025MW1711REMMET11701/02/10 12:00:02 SPECI KMHT 021700Z 36010KT 1 1/2SM -SN FEW028 OVC050 M02/M06 A2949 RMK AO2 SFC VIS 2 1/2 P0000 (CD)
0214743945147102010010217317+42933-071438FM-16+0071KMHT V0203605N00575004885MN0024145N5-00205-00505999999ADDAA101000391AU110030015AW1715GA1085+004885999GD14991+0048859GF108991999999999999999999MA1099805098965MW1711REMMET09601/02/10 12:31:02 SPECI KMHT 021731Z 36011KT 1 1/2SM -SN OVC016 M02/M05 A2947 RMK AO2 P0001 (CD)
0348743945147102010010217537+42933-071438FM-15+0071KMHT V0203505N00465004885MN0024145N5-00225-00505099945ADDAA101000395AA206001391AJ100209599999999AU110030015AW1715GA1085+004885999GD14991+0048859GF108991999999999999999999KA1999M-00221KA2999N-00391MA1099765098925MD1840294+9999MW1711REMMET14301/02/10 12:53:02 METAR KMHT 021753Z 35009KT 1 1/2SM -SN OVC016 M02/M05 A2946 RMK AO2 SLP994 4/008 P0001 60005 T10221050 11022 21039 58029 (CD)EQDQ01  00138PRCP06
0257743945147102010010218537+42933-071438FM-15+0071KMHT V0200105N00265005185MN0024145N5-00225-00445099855ADDAA101000025AU110030015AU200001015AW1105AW2715GA1085+005185999GD14991+0051859GF108991999999999999999999MA1099665098825MW1101MW2711REMMET11601/02/10 13:53:02 METAR KMHT 021853Z 01005KT 1 1/2SM -SN BR OVC017 M02/M04 A2943 RMK AO2 SLP985 P0000 T10221044 (DW)
0240743945147102010010218567+42933-071438FM-16+0071KMHT V0200205N00265005185MN0040235N5-00205-00405999999ADDAA101000021AU110030015AU200001015AW1105AW2715GA1085+005185999GD14991+0051859GF108991999999999999999999MA1099665098825MW1101MW2711REMMET09901/02/10 13:56:02 SPECI KMHT 021856Z 02005KT 2 1/2SM -SN BR OVC017 M02/M04 A2943 RMK AO2 P0000 (DW)
0280743945147102010010219537+42933-071438FM-15+0071KMHT V0203305N00675007625MN0040235N5-00115-00505099835ADDAA101000025AU110030015AW1715GA1025+003665999GA2085+007625999GD11991+0036659GD24991+0076259GF108991999999999999999999MA1099665098825MW1711OC101035REMMET12301/02/10 14:53:02 METAR KMHT 021953Z 33013G20KT 2 1/2SM -SN FEW012 OVC025 M01/M05 A2943 RMK AO2 SLP983 P0000 T10111050 (DW)
0344743945147102010010220417+42933-071438FM-16+0071KMHT V0203305N00415006715MN0024145N5-00205-00405999999ADDAA101000021AU110030015AU200001015AW1105AW2715ED135U18299GA1045+004885999GA2075+006715999GA3085+009755999GD12991+0048859GD23991+0067159GD34991+0097559GF108991999999999999999999MA1099635098795MW1101MW2711REMMET13001/02/10 15:41:02 SPECI KMHT 022041Z 33008KT 1 1/2SM R35/6000VP6000FT -SN BR SCT016 BKN022 OVC032 M02/M04 A2942 RMK AO2 P0000 (DW)
0365743945147102010010220537+42933-071438FM-15+0071KMHT V0203205N00465005495MN0020125N5-00225-00445099825ADDAA101000025AA203000021AU110030015AU200001015AW1105AW2715GA1045+003665999GA2085+005495999GD12991+0036659GD24991+0054959GF108991999999999999999999MA1099635098795MD1640134+9999MW1101MW2711REMMET14901/02/10 15:53:02 METAR KMHT 022053Z 32009KT 1 1/4SM -SN BR SCT012 OVC018 M02/M04 A2942 RMK AO2 TWR VIS 1 1/2 SLP982 P0000 60000 T10221044 56013 (DW)EQDQ01  00008PRCP03
0260743945147102010010221247+42933-071438FM-16+0071KMHT V0203205N00725007625MN0048285N5-00305-00605999999ADDAA101000021AU100007015GA1075+007625999GA2085+021345999GD13991+0076259GD24991+0213459GF108991999999999999999999MA1099595098755MW1055OC100935REMMET10901/02/10 16:24:02 SPECI KMHT 022124Z 32014G18KT 3SM HZ BKN025 OVC070 M03/M06 A2941 RMK AO2 SNEMM P0000 $ (DW)
0278743945147102010010221537+42933-071438FM-15+0071KMHT V0203205N00515006105MN0048285N5-00335-00615099785ADDAA101000025AU110030015AW1715GA1075+006105999GA2085+018295999GD13991+0061059GD24991+0182959GF108991999999999999999999MA1099595098755MW1711OC100985REMMET12101/02/10 16:53:02 METAR KMHT 022153Z 32010G19KT 3SM -SN BKN020 OVC060 M03/M06 A2941 RMK AO2 SLP978 P0000 T10331061 $ (DW)
0291743945147102010010222077+42933-071438FM-16+0071KMHT V0203205N00625004575MN0024145N5-00405-00605999999ADDAA101000391AU110030015AU200001015AW1105AW2715GA1075+004575999GA2085+012195999GD13991+0045759GD24991+0121959GF108991999999999999999999MA1099595098755MW1101MW2711OC100985REMMET11101/02/10 17:07:02 SPECI KMHT 022207Z 32012G19KT 1 1/2SM -SN BR BKN015 OVC040 M04/M06 A2941 RMK AO2 P0001 $ (DW)
0270743945147102010010222537+42933-071438FM-15+0071KMHT V0203205N00725006105MN0024145N5-00445-00725099765ADDAA101000395AU110030015AU200001015AW1105AW2715GA1085+006105999GD14991+0061059GF108991999999999999999999MA1099595098755MW1101MW2711OC101085REMMET12101/02/10 17:53:02 METAR KMHT 022253Z 32014G21KT 1 1/2SM -SN BR OVC020 M04/M07 A2941 RMK AO2 SLP976 P0001 T10441072 $ (DW)
0295743945147102010010223297+42933-071438FM-16+0071KMHT V0203205N00725003055MN0016095N5-00605-00805999999ADDAA101000021AU110030015AU200001015AW1105AW2715ED135U18299GA1085+003055999GD14991+0030559GF108991999999999999999999MA1099565098725MW1101MW2711OC101135REMMET13501/02/10 18:29:02 SPECI KMHT 022329Z 32014G22KT 1SM R35/6000VP6000FT -SN BR OVC010 M06/M08 A2940 RMK AO2 PK WND 31026/2306 P0000 $ (DW)
0425743945147102010010223537+42933-071438FM-15+0071KMHT V0203105N00775003055WN0012075N5-00565-00835099735ADDAA101000025AA206000391AJ100209599999999AU110030015AU200001015AW1105AW2715ED135U18299GA1095+003055999GD15991+0030559GF109991999999000251999999KA1999M-00111KA2999N-00561MA1099535098695MD1840104+9999MW1101MW2711OC101345REMMET17801/02/10 18:53:02 METAR KMHT 022353Z 31015G26KT 3/4SM R35/P6000FT -SN BR VV010 M06/M08 A2939 RMK AO2 PK WND 31026/2346 SLP973 4/008 P0000 60001 T10561083 11011 21056 58010 $ (DW)EQDQ01  00038PRCP06
0342743945147102010010300537+42933-071438FM-15+0071KMHT V0203205N00885007625MN0016095N5-00565-01005099595ADDAA101000025AU110030015AU225030015AW1275AW2715ED135U18299GA1075+007625999GA2085+024385999GD13991+0076259GD24991+0243859GF108991999999999999999999MA1099395098555MW1381MW2711OC101655REMMET15101/02/10 19:53:01 METAR KMHT 030053Z 32017G32KT 1SM R35/P6000FT -SN BLSN BKN025 OVC080 M06/M10 A2935 RMK AO2 PK WND 30032/0048 SLP959 P0000 T10561100 $
0274743945147102010010301357+42933-071438FM-16+0071KMHT V0203105N00935009145MN0048285N5-00605-01105999999ADDAA101000021AU110030015AW1715GA1075+009145999GA2085+022865999GD13991+0091459GD24991+0228659GF108991999999999999999999MA1099325098495MW1711OC101445REMMET11701/02/10 20:35:02 SPECI KMHT 030135Z 31018G28KT 3SM -SN BKN030 OVC075 M06/M11 A2933 RMK AO2 PK WND 31034/0111 P0000 $
0291743945147102010010301537+42933-071438FM-15+0071KMHT V0203205N00935011285MN0048285N5-00565-01065099495ADDAA101000025AU110030015AW1715GA1075+011285999GA2085+016765999GD13991+0112859GD24991+0167659GF108991999999999999999999MA1099295098455MW1711OC101605REMMET13401/02/10 20:53:02 METAR KMHT 030153Z 32018G31KT 3SM -SN BKN037 OVC055 M06/M11 A2932 RMK AO2 PK WND 31034/0111 SLP949 P0000 T10561106 $
0375743945147102010010302537+42933-071438FM-15+0071KMHT V0203105N01035015245MN0048285N5-00505-01065099285ADDAA101000025AA203000021AU110030015AU225030015AW1275AW2715GA1025+006105999GA2085+015245999GD11991+0061059GD24991+0152459GF108991999999999999999999MA1099095098255MD1840444+9999MW1381MW2711OC101705REMMET15101/02/10 21:53:02 METAR KMHT 030253Z 31020G33KT 3SM -SN BLSN FEW020 OVC050 M05/M11 A2926 RMK AO2 PK WND 30033/0249 SLP928 P0000 60000 T10501106 58044 $EQDQ01  00008PRCP03
0357743945147102010010303537+42933-071438FM-15+0071KMHT V0203105N00825006105MN0048285N5-00565-01065099215ADDAA101000025AU110030015AU225030015AW1275AW2715GA1075+006105999GA2075+009145999GA3085+011585999GD13991+0061059GD23991+0091459GD34991+0115859GF108991999999999999999999MA1099025098185MW1381MW2711OC101395REMMET14601/02/10 22:53:02 METAR KMHT 030353Z 31016G27KT 3SM -SN BLSN BKN020 BKN030 OVC038 M06/M11 A2924 RMK AO2 PK WND 32032/0333 SLP921 P0000 T10561106 $
0368743945147102010010304027+42933-071438FM-16+0071KMHT V0203105N01135004275MN0048285N5-00605-01105999999ADDAA101000021AU110030015AU225030015AW1275AW2715ED135U16769GA1075+004275999GA2075+008235999GA3085+010365999GD13991+0042759GD23991+0082359GD34991+0103659GF108991999999999999999999MA1099025098185MW1381MW2711OC101495REMMET14601/02/10 23:02:02 SPECI KMHT 030402Z 31022G29KT 3SM R35/5500VP6000FT -SN BLSN BKN014 BKN027 OVC034 M06/M11 A2924 RMK AO2 PK WND 31029/0358 P0000 $
0340743945147102010010304277+42933-071438FM-16+0071KMHT V0203005N00775005495MN0048285N5-00705-01005999999ADDAA101000391AU110030015AU225030015AW1275AW2715GA1075+005495999GA2075+007625999GA3085+009145999GD13991+0054959GD23991+0076259GD34991+0091459GF108991999999999999999999MA1098925098085MW1381MW2711OC101185REMMET12901/02/10 23:27:02 SPECI KMHT 030427Z 30015G23KT 3SM -SN BLSN BKN018 BKN025 OVC030 M07/M10 A2921 RMK AO2 PK WND 31029/0358 P0001 $
0302743945147102010010304447+42933-071438FM-16+0071KMHT V0203105N00985009455MN0048285N5-00705-01105999999ADDAA101000391AU110030015AU225030015AW1275AW2715GA1025+007925999GA2085+009455999GD11991+0079259GD24991+0094559GF108991999999999999999999MA1098925098085MW1381MW2711OC101345REMMET12201/02/10 23:44:02 SPECI KMHT 030444Z 31019G26KT 3SM -SN BLSN FEW026 OVC031 M07/M11 A2921 RMK AO2 PK WND 31029/0358 P0001 $
0367743945147102010010304537+42933-071438FM-15+0071KMHT V0203205N00935010065MN0048285N5-00675-01115099105ADDAA101000395AU110030015AU225030015AW1275AW2715GA1025+007325999GA2075+010065999GA3085+013115999GD11991+0073259GD23991+0100659GD34991+0131159GF108991999999999999999999MA1098925098085MW1381MW2711OC101545REMMET15601/02/10 23:53:02 METAR KMHT 030453Z 32018G30KT 3SM -SN BLSN FEW024 BKN033 OVC043 M07/M11 A2921 RMK AO2 PK WND 30030/0450 SLP910 P0001 T10671111 410111067 $
1020743945147102010010304596+42933-071438SOD  +0071KMHT V020999999999999999999999999999+99999+99999999999ADDAA124004895AJ100189599999999AX1016246AX2026246AX3086246KA1240M-00105KA2240N-00665MG1099124099094OE11240174331020115OE22240116232022345OE33240053699999995REMSOD77224 HR PRECIPITATION (IN):0.19  SNOW DEPTH (IN):7    WEATHER(CODE):1,2,8  24 HR MAX TEMP (F):30 24 HR MAX TEMP TIME (LST):1457 24 HR MIN TEMP (F):20 24 HR MIN TEMP TIME (LST):2359 AVERAGE STATION PRESSURE:29.270 MINIMUM SEA LEVEL PRESSURE:29.26 TIME OF OCCURRENCE:2359 PEAK WIND SPEED (MPH):39  PEAK WIND DIR (DEG):310 PEAK WIND TIME (LST):2011  FASTEST 2MIN SPEED (MPH):26 FASTEST 2MIN DIR (DEG):320 FASTEST 2MIN TIME (LST):2234 AVERAGE WIND SPEED (MPH):12.0 24 HR AVG TEMP (F):25 HEATING DEGREE DAYS:40  COOLING DEGREE DAYS:0   LATEST DAY MAX TEMP (0700-1900 LST):30  LATEST NIGHT MIN TEMP(1900-0800 LST):25 HOURLY INCREMENTAL PRECIPITATION VALUES (IN):.01 0.02 0.03 0.04 0.01 T    0.02 0.01 0.01 0.01 T    T    0.01 T    T    T    T    0.01 T    T    T    T    T    0.01EQDR01 1,2,87AXW090R02 1,2,87AXW090R03 1,2,87AXW090R04     N7GJS072R05     N7GKS075
0335743945147102010010305057+42933-071438FM-16+0071KMHT V0203105N01135008845MN0048285N5-00705-01205999999ADDAA101000021AU110030015AU225030015AW1275AW2715ED135U18299GA1075+008845999GA2085+012505999GD13991+0088459GD24991+0125059GF108991999999999999999999MA1098885098055MW1381MW2711OC101655REMMET14401/03/10 00:05:02 SPECI KMHT 030505Z 31022G32KT 3SM R35/6000VP6000FT -SN BLSN BKN029 OVC041 M07/M12 A2920 RMK AO2 PK WND 30032/0504 P0000 $ (ME)
0334743945147102010010305517+42933-071438FM-16+0071KMHT V0203005N01035003965MN0024145N5-00705-01105999999ADDAA101000021AJ100189199999999AU110030015AU225030015AW1275AW2715ED135U12199GA1085+003965999GD14991+0039659GF108991999999999999999999MA1098815097985MW1381MW2711OC101705REMMET15701/03/10 00:51:02 SPECI KMHT 030551Z 30020G33KT 1 1/2SM R35/4000VP6000FT -SN BLSN OVC013 M07/M11 A2918 RMK AO2 PK WND 32036/0522 SFC VIS 3 4/007 P0000 $ (ME)
0435743945147102010010305537+42933-071438FM-15+0071KMHT V0203005N01185003965MN0024145N5-00725-01115098995ADDAA101000025AA206000391AJ100189599999999AU110030015AU225030015AW1275AW2715ED135U10679GA1085+003965999GD14991+0039659GF108991999999999999999999KA1999M-00501KA2999N-00721MA1098785097955MD1840304+9999MW1381MW2711OC101705REMMET18801/03/10 00:53:02 METAR KMHT 030553Z 30023G33KT 1 1/2SM R35/3500VP6000FT -SN BLSN OVC013 M07/M11 A2917 RMK AO2 PK WND 32036/0522 SLP899 4/007 P0000 60001 T10721111 11050 21072 58030 $ (ME)EQDQ01  00038PRCP06
0296743945147102010010306137+42933-071438FM-16+0071KMHT V0203105N00825002745WN0016095N5-00705-01105999999ADDAA101000021AU110030015AU225030015AW1275AW2715ED135U12199GA1095+002745999GD15991+0027459GF109991999999000251999999MA1098785097955MW1381MW2711OC101605REMMET13601/03/10 01:13:02 SPECI KMHT 030613Z 31016G31KT 1SM R35/4000VP6000FT -SN BLSN VV009 M07/M11 A2917 RMK AO2 PK WND 30033/0557 P0000 $ (ME)
0377743945147102010010306327+42933-071438FM-16+0071KMHT V0203105N00825003665MN0024145N5-00705-01105999999ADDAA101000021AU110030015AU225030015AW1275AW2715ED135U18299GA1075+003665999GA2075+006105999GA3085+012505999GD13991+0036659GD23991+0061059GD34991+0125059GF108991999999999999999999MA1098755097915MW1381MW2711OC101605REMMET15501/03/10 01:32:02 SPECI KMHT 030632Z 31016G31KT 1 1/2SM R35/6000VP6000FT -SN BLSN BKN012 BKN020 OVC041 M07/M11 A2916 RMK AO2 PK WND 30033/0557 P0000 $ (ME)
0339743945147102010010306497+42933-071438FM-16+0071KMHT V0203105N00985006105MN0024145N5-00705-01105999999ADDAA101000021AU110030015AU225030015AW1275AW2715ED135U15249GA1075+006105999GA2085+012505999GD13991+0061059GD24991+0125059GF108991999999999999999999MA1098755097915MW1381MW2711OC101545REMMET14801/03/10 01:49:02 SPECI KMHT 030649Z 31019G30KT 1 1/2SM R35/5000VP6000FT -SN BLSN BKN020 OVC041 M07/M11 A2916 RMK AO2 PK WND 30033/0557 P0000 $ (ME)
0356743945147102010010306537+42933-071438FM-15+0071KMHT V0203105N00985006105MN0024145N5-00725-01115098935ADDAA101000025AU110030015AU225030015AW1275AW2715ED135U18299GA1075+006105999GA2085+012505999GD13991+0061059GD24991+0125059GF108991999999999999999999MA1098755097915MW1381MW2711OC101545REMMET16501/03/10 01:53:02 METAR KMHT 030653Z 31019G30KT 1 1/2SM R35/6000VP6000FT -SN BLSN BKN020 OVC041 M07/M11 A2916 RMK AO2 PK WND 30033/0557 SLP893 P0000 T10721111 $ (ME)
0370743945147102010010307537+42933-071438FM-15+0071KMHT V0203105N00675004885MN0020125N5-00785-01175098875ADDAA101000025AU110030015AU225030015AW1275AW2715ED135U13729GA1075+004885999GA2085+007325999GD13991+0048859GD24991+0073259GF108991999999999999999999MA1098685097855MW1381MW2711OC101395REMMET17901/03/10 02:53:02 METAR KMHT 030753Z 31013G27KT 1 1/4SM R35/4500VP6000FT -SN BLSN BKN016 OVC024 M08/M12 A2914 RMK AO2 PK WND 32034/0708 TWR VIS 1 1/2 SLP887 P0000 T10781117 $ (ME)
0283743945147102010010308037+42933-071438FM-16+0071KMHT V0202905N00675003665MN0016095N5-00805-01205999999ADDAA101000021AU110030015AU225030015AW1275AW2715GA1085+003665999GD14991+0036659GF108991999999999999999999MA1098685097855MW1381MW2711OC101395REMMET13401/03/10 03:03:02 SPECI KMHT 030803Z 29013G27KT 1SM -SN BLSN OVC012 M08/M12 A2914 RMK AO2 PK WND 30027/0758 SFC VIS 1 1/4 P0000 $ (ME)
0430743945147102010010308257+42933-071438FM-16+0071KMHT V0202905V00466011895MN0028165N5-00805-01205999999ADDAA101000021AU110030016AU225030016AW1276AW2716GA1045+004575999GA2075+011895999GA3085+018295999GD12991+0045759GD23991+0118959GD34991+0182959GF108991999999999999999999MA1098655097815MW1381MW2711OC100935REMMET15201/03/10 03:25:02 SPECI KMHT 030825Z 29009G18KT 1 3/4SM -SN BLSN SCT015 BKN039 OVC060 M08/M12 A2913 RMK AO2 PK WND 30027/0758 SFC VIS 2 1/2 P0000 $ (ME)EQDR01    097WNS020R02-SN BL7AWW020R03SEERMK7MVW020R04-SN BL7MWW020
0315743945147102010010308516+42933-071438FM-16+0071KMHT V0203005N00725007625MN0028165N5-00805-01205999999ADDAU110030015AU225030015AW1275AW2715GA1075+007625999GA2075+011585999GA3085+018295999GD13991+0076259GD23991+0115859GD34991+0182959MA1098615097785OC101085REMMET15301/03/10 03:51:02 SPECI KMHT 030851Z 30014G21KT 1 3/4SM -SN BLSN BKN025 BKN038 OVC060 M08/M12 A2912 RMK AO2 PK WND 30027/0758 SFC VIS 2 P0000 $ FIBI (ME)
0432743945147102010010308537+42933-071438FM-15+0071KMHT V0202905N00515007015MN0028165N5-00835-01225098825ADDAA101000025AA203000021AU110030015AU225030015AW1275AW2715GA1075+007015999GA2075+011585999GA3085+018295999GD13991+0070159GD23991+0115859GD34991+0182959GF108991999999999999999999MA1098615097785MD1840124+9999MW1381MW2711OC101085REMMET17701/03/10 03:53:02 METAR KMHT 030853Z 29010G21KT 1 3/4SM -SN BLSN BKN023 BKN038 OVC060 M08/M12 A2912 RMK AO2 PK WND 30027/0758 SFC VIS 2 SLP882 P0000 60000 T10831122 58012 $ (ME)EQDQ01  00008PRCP03
0312743945147102010010309377+42933-071438FM-16+0071KMHT V0203105N00775004575WN0012075N5-00805-01205999999ADDAA101000021AU110030015AU225030015AW1275AW2715ED135U16769GA1095+004575999GD15991+0045759GF109991999999000251999999MA1098585097755MW1381MW2711OC101445REMMET15201/03/10 04:37:02 SPECI KMHT 030937Z 31015G28KT 3/4SM R35/5500VP6000FT -SN BLSN VV015 M08/M12 A2911 RMK AO2 PK WND 33028/0935 TWR VIS 1 3/4 P0000 $ (ME)
0301743945147102010010309507+42933-071438FM-16+0071KMHT V0203105N00825004885MN0024145N5-00805-01205999999ADDAA101000021AU110030015AU225030015AW1275AW2715ED135U18299GA1085+004885999GD14991+0048859GF108991999999999999999999MA1098545097715MW1381MW2711OC101085REMMET14101/03/10 04:50:02 SPECI KMHT 030950Z 31016G21KT 1 1/2SM R35/6000VP6000FT -SN BLSN OVC016 M08/M12 A2910 RMK AO2 PK WND 33028/0935 P0000 $ (ME)
0318743945147102010010309537+42933-071438FM-15+0071KMHT V0203205N00935004885MN0024145N5-00835-01225098755ADDAA101000025AU110030015AU225030015AW1275AW2715ED135U18299GA1085+004885999GD14991+0048859GF108991999999999999999999MA1098545097715MW1381MW2711OC101545REMMET15801/03/10 04:53:02 METAR KMHT 030953Z 32018G30KT 1 1/2SM R35/6000VP6000FT -SN BLSN OVC016 M08/M12 A2910 RMK AO2 PK WND 32030/0952 SLP875 P0000 T10831122 $ (ME)
0377743945147102010010310227+42933-071438FM-16+0071KMHT V0203105N00935011585MN0024145N5-00805-01205999999ADDAA101000021AU110030015AU225030015AW1275AW2715ED135U12199GA1025+005495999GA2045+008845999GA3085+011585999GD11991+0054959GD22991+0088459GD34991+0115859GF108991999999999999999999MA1098545097715MW1381MW2711OC101445REMMET15501/03/10 05:22:02 SPECI KMHT 031022Z 31018G28KT 1 1/2SM R35/4000VP6000FT -SN BLSN FEW018 SCT029 OVC038 M08/M12 A2910 RMK AO2 PK WND 33029/0956 P0000 $ (ME)
0349743945147102010010310427+42933-071438FM-16+0071KMHT V0203105N00575008845MN0024145N5-00805-01305999999ADDAA101000021AU110030015AU225030015AW1275AW2715GA1045+005495999GA2075+008845999GA3085+012195999GD12991+0054959GD23991+0088459GD34991+0121959GF108991999999999999999999MA1098545097715MW1381MW2711OC101445REMMET13801/03/10 05:42:02 SPECI KMHT 031042Z 31011G28KT 1 1/2SM -SN BLSN SCT018 BKN029 OVC040 M08/M13 A2910 RMK AO2 PK WND 30033/1029 P0000 $ (ME)
0356743945147102010010310537+42933-071438FM-15+0071KMHT V0203105N00725004885MN0024145N5-00835-01225098755ADDAA101000025AU110030015AU225030015AW1275AW2715ED135U18299GA1075+004885999GA2085+008845999GD13991+0048859GD24991+0088459GF108991999999999999999999MA1098545097715MW1381MW2711OC101345REMMET16501/03/10 05:53:02 METAR KMHT 031053Z 31014G26KT 1 1/2SM R35/6000VP6000FT -SN BLSN BKN016 OVC029 M08/M12 A2910 RMK AO2 PK WND 30033/1029 SLP875 P0000 T10831122 $ (ME)
0440743945147102010010311537+42933-071438FM-15+0071KMHT V0203205N00725004885MN0024145N5-00895-01225098785ADDAA101000025AA206000021AA324001891AJ100189599999999AU110030015AU225030015AW1275AW2715GA1085+004885999GD14991+0048859GF108991999999999999999999KA1999M-00721KA2999N-00891MA1098585097755MD1340034+9999MW1381MW2711OC101295REMMET17701/03/10 06:53:02 METAR KMHT 031153Z 32014G25KT 1 1/2SM -SN BLSN OVC016 M09/M12 A2911 RMK AO2 PK WND 32027/1058 SLP878 4/007 P0000 60000 70007 T10891122 11072 21089 53003 $ (DW)EQDQ01  00008PRCP06Q02  00188PRCP24
0297743945147102010010312277+42933-071438FM-16+0071KMHT V0203205N00575003665MN0020125N5-00805-01205999999ADDAA101000021AU110030015AU225030015AW1275AW2715ED135U18299GA1085+003665999GD14991+0036659GF108991999999999999999999MA1098615097785MW1381MW2711OC101185REMMET13701/03/10 07:27:02 SPECI KMHT 031227Z 32011G23KT 1 1/4SM R35/6000VP6000FT -SN BLSN OVC012 M08/M12 A2912 RMK AO2 TWR VIS 1 1/2 P0000 $ (DW)
0370743945147102010010312537+42933-071438FM-15+0071KMHT V0203205N00625010675MN0024145N5-00835-01225098815ADDAA101000025AU110030015AU225030015AW1275AW2715ED135U16769GA1045+004275999GA2085+010675999GD12991+0042759GD24991+0106759GF108991999999999999999999MA1098615097785MW1381MW2711OC101035REMMET17901/03/10 07:53:02 METAR KMHT 031253Z 32012G20KT 1 1/2SM R35/5500VP6000FT -SN BLSN SCT014 OVC035 M08/M12 A2912 RMK AO2 PK WND 30029/1234 SFC VIS 1 3/4 SLP881 P0000 T10831122 $ (DW)
0297743945147102010010313227+42933-071438FM-16+0071KMHT V0203305N00725010975MN0080475N5-00805-01305999999ADDAA101000021AU110030015AU225030015AW1275AW2715ED135U13729GA1085+010975999GD14991+0109759GF108991999999999999999999MA1098615097785MW1381MW2711OC101295REMMET13701/03/10 08:22:02 SPECI KMHT 031322Z 33014G25KT 5SM R35/4500VP6000FT -SN BLSN OVC036 M08/M13 A2912 RMK AO2 PK WND 32027/1304 P0000 $ (DW)
0268743945147102010010313537+42933-071438FM-15+0071KMHT V0203205N00675010365MN0048285N5-00725-01285098835ADDAA101000025AU110030015AW1715GA1085+010365999GD14991+0103659GF108991999999999999999999MA1098655097815MW1711OC101445REMMET14201/03/10 08:53:02 METAR KMHT 031353Z 32013G28KT 3SM -SN OVC034 M07/M13 A2913 RMK AO2 PK WND 33028/1350 TWR VIS 5 SLP883 P0000 T10721128 $ (DW)
0314743945147102010010314537+42933-071438FM-15+0071KMHT V0203305V00675009755MN0048285N5-00725-01175098925ADDAA101000025AA203000021AU110030015AW1715GA1085+009755999GD14991+0097559GF108991999999999999999999MA1098715097885MD1340154+9999MW1711OC101135REMMET14401/03/10 09:53:02 METAR KMHT 031453Z 33013G22KT 3SM -SN OVC032 M07/M12 A2915 RMK AO2 PK WND 31027/1436 SLP892 P0000 60000 T10721117 53015 $ (DW)EQDQ01  00008PRCP03
0220743945147102010010315537+42933-071438FM-15+0071KMHT V0203305N00515008845MN0160935N5-00615-01115098935ADDAA101000025GA1085+008845999GD14991+0088459GF108991999999999999999999MA1098755097915OC101085REMMET11701/03/10 10:53:02 METAR KMHT 031553Z 33010G21KT 10SM OVC029 M06/M11 A2916 RMK AO2 SNE27 SLP893 P0000 T10611111 $ (DW)
0208743945147102010010316537+42933-071438FM-15+0071KMHT V0203305N00725008845MN0160935N5-00505-01175098955ADDAA101000095GA1085+008845999GD14991+0088459GF108991999999999999999999MA1098755097915OC101185REMMET10501/03/10 11:53:02 METAR KMHT 031653Z 33014G23KT 10SM OVC029 M05/M12 A2916 RMK AO2 SLP895 T10501117 $ (DW)
0306743945147102010010317537+42933-071438FM-15+0071KMHT V0203205N00415009145MN0160935N5-00445-01065098985ADDAA101000095AA206000021AJ100189599999999GA1085+009145999GD14991+0091459GF108991999999999999999999KA1999M-00441KA2999N-00891MA1098785097955MD1340064+9999OC100825REMMET13501/03/10 12:53:02 METAR KMHT 031753Z 32008G16KT 10SM OVC030 M04/M11 A2917 RMK AO2 SLP898 4/007 60000 T10441106 11044 21089 53006 $ (DW)
0264743945147102010010318537+42933-071438FM-15+0071KMHT V0203305N00725008845MN0112655N5-00445-00945099065ADDAA101000025AU110030015AW1715GA1085+008845999GD14991+0088459GF108991999999999999999999MA1098885098055MW1711OC101135REMMET13801/03/10 13:53:02 METAR KMHT 031853Z 33014G22KT 7SM -SN OVC029 M04/M09 A2920 RMK AO2 PK WND 35026/1832 SNB44 SLP906 P0000 T10441094 $ (DW)
0233743945147102010010319516+42933-071438FM-16+0071KMHT V0203205N00775009755MN0112655N5-00405-00905999999ADDAU120090015AW1415GA1075+009755999GA2075+012195999GD13991+0097559GD23991+0121959MA1098925098085OC101085REMMET11901/03/10 14:51:02 SPECI KMHT 031951Z 32015G21KT 7SM UP BKN032 BKN040 M04/M09 A2921 RMK AO2 UPB50SNE48 P0000 $ FIBI (PJ)
0250743945147102010010319537+42933-071438FM-15+0071KMHT V0203205N00725009755MN0096565N5-00395-00895099125ADDAA101000025AU120090015AW1415GA1075+009755999GD13991+0097559GF107991999999999999999999MA1098925098085MW1401OC101085REMMET12401/03/10 14:53:02 METAR KMHT 031953Z 32014G21KT 6SM UP BKN032 M04/M09 A2921 RMK AO2 UPB50SNE48 SLP912 P0000 T10391089 $ (PJ)
0314743945147102010010320537+42933-071438FM-15+0071KMHT V0203305N00625011585MN0080475N5-00395-00835099235ADDAA101000025AA203000021AU120090015AW1415GA1085+011585999GD14991+0115859GF108991999999999999999999MA1099055098225MD1340254+9999MW1401OC101035REMMET14401/03/10 15:53:02 METAR KMHT 032053Z 33012G20KT 5SM UP OVC038 M04/M08 A2925 RMK AO2 UPE1958B51SNB1959E51 SLP923 P0000 60000 T10391083 53025 (PJ)EQDQ01  00008PRCP03
0291743945147102010010321537+42933-071438FM-15+0071KMHT V0203205N00625027435MN0144845N5-00395-00785099295ADDAA101000025AU110030015AW1715GA1025+011585999GA2085+027435999GD11991+0115859GD24991+0274359GF108991999999999999999999MA1099095098255MW1711OC100935REMMET13401/03/10 16:53:02 METAR KMHT 032153Z 32012G18KT 9SM -SN FEW038 OVC090 M04/M08 A2926 RMK AO2 UPE2055SNB2056 SLP929 P0000 T10391078 (PJ)
0217743945147102010010322537+42933-071438FM-15+0071KMHT V0203305N00675024385MN0144845N5-00335-00835099375ADDAA101000025GA1085+024385999GD14991+0243859GF108991999999999999999999MA1099195098355OC101085REMMET11401/03/10 17:53:02 METAR KMHT 032253Z 33013G21KT 9SM OVC080 M03/M08 A2929 RMK AO2 SNE48 SLP937 P0000 T10331083 (PJ)
0405743945147102010010323537+42933-071438FM-15+0071KMHT V0203205N00725025915MN0144845N5-00285-00785099465ADDAA101000025AA206000021AJ100159599999999AU110030015AW1715GA1025+018295999GA2085+025915999GD11991+0182959GD24991+0259159GF108991999999999999999999KA1999M-00281KA2999N-00441MA1099265098425MD1340234+9999MW1711OC101135REMMET16101/03/10 18:53:02 METAR KMHT 032353Z 32014G22KT 9SM -SN FEW060 OVC085 M03/M08 A2931 RMK AO2 SNB01E12B40 SLP946 4/006 P0000 60000 T10281078 11028 21044 53023 (PJ)EQDQ01  00008PRCP06
0291743945147102010010400537+42933-071438FM-15+0071KMHT V0203205N00775018295MN0160935N5-00285-00785099525ADDAA101000095GA1025+014335999GA2075+018295999GA3085+024385999GD11991+0143359GD23991+0182959GD34991+0243859GF108991999999999999999999MA1099325098495OC100985REMMET12601/03/10 19:53:02 METAR KMHT 040053Z 32015G19KT 10SM FEW047 BKN060 OVC080 M03/M08 A2933 RMK AO2 SNE2356 SLP952 P0000 T10281078
0299743945147102010010401537+42933-071438FM-15+0071KMHT V0203305N00675033535MN0144845N5-00285-00725099555ADDAA101000025GA1025+018295999GA2045+027435999GA3085+033535999GD11991+0182959GD22991+0274359GD34991+0335359GF108991999999999999999999MA1099365098525OC101185REMMET13401/03/10 20:53:02 METAR KMHT 040153Z 33013G23KT 9SM FEW060 SCT090 OVC110 M03/M07 A2934 RMK AO2 UPB06E22SNB22E52 SLP955 P0000 T10281072
0294743945147102010010402537+42933-071438FM-15+0071KMHT V0203205N00675016765MN0160935N5-00225-00785099595ADDAA101000095AA203000021GA1075+016765999GA2075+027435999GD13991+0167659GD23991+0274359GF107991999999999999999999MA1099395098555MD1140134+9999OC101035REMMET13501/03/10 21:53:02 METAR KMHT 040253Z 32013G20KT 10SM BKN055 BKN090 M02/M08 A2935 RMK AO2 PK WND 32030/0222 SLP959 60000 T10221078 51013
0201743945147102010010403537+42933-071438FM-15+0071KMHT V0203205N00675033535MN0160935N5-00225-00725099625ADDAA101000095GA1085+033535999GD14991+0335359GF108991999999999999999999MA1099425098595OC101085REMMET09801/03/10 22:53:01 METAR KMHT 040353Z 32013G21KT 10SM OVC110 M02/M07 A2936 RMK AO2 SLP962 T10221072
0211743945147102010010404537+42933-071438FM-15+0071KMHT V0203205N00675027435MN0160935N5-00175-00675099645ADDAA101000095GA1085+027435999GD14991+0274359GF108991999999999999999999MA1099465098625OC101035REMMET10801/03/10 23:53:02 METAR KMHT 040453Z 32013G20KT 10SM OVC090 M02/M07 A2937 RMK AO2 SLP964 T10171067 410171089
0972743945147102010010404596+42933-071438SOD  +0071KMHT V020999999999999999999999999999+99999+99999999999ADDAA124000025AJ100159599999999AL12400035AN1024000035KA1240M-00165KA2240N-00885MG1098024098754OE11240183332000225OE22240129630000585OE33240070299999995REMSOD77724 HR PRECIPITATION (IN):T     SNOW DEPTH (IN):6     24 HR SNOWFALL (IN):T    24 HR MAX TEMP (F):29 24 HR MAX TEMP TIME (LST):2359 24 HR MIN TEMP (F):16 24 HR MIN TEMP TIME (LST):0712 AVERAGE STATION PRESSURE:28.945 MINIMUM SEA LEVEL PRESSURE:29.16 TIME OF OCCURRENCE:0638 PEAK WIND SPEED (MPH):41  PEAK WIND DIR (DEG):320 PEAK WIND TIME (LST):0022  FASTEST 2MIN SPEED (MPH):29 FASTEST 2MIN DIR (DEG):300 FASTEST 2MIN TIME (LST):0058 AVERAGE WIND SPEED (MPH):15.7 24 HR AVG TEMP (F):23 HEATING DEGREE DAYS:42  COOLING DEGREE DAYS:0   LATEST DAY MAX TEMP (0700-1900 LST):27  LATEST NIGHT MIN TEMP(1900-0800 LST):16 HOURLY INCREMENTAL PRECIPITATION VALUES (IN):    T    T    T    T    T    T    T    T    T    T    0.00 0.00 T    T    T    T    T    T    0.00 T    0.00 0.00 0.00EQDR01     N7GJS072R02     N7GKS075
0343743945147102010010405537+42933-071438FM-15+0071KMHT V0203205N00415021345MN0160935N5-00115-00615099685ADDAA101000095AA206000021AJ100139599999999GA1075+021345999GA2085+033535999GD13991+0213459GD24991+0335359GF108991999999999999999999KA1999M-00111KA2999N-00281MA1099495098655MD1140094+9999OC100825REMMET14101/04/10 00:53:02 METAR KMHT 040553Z 32008G16KT 10SM BKN070 OVC110 M01/M06 A2938 RMK AO2 SLP968 4/005 60000 T10111061 11011 21028 51009 (STJ)
0173743945147102010010406537+42933-071438FM-15+0071KMHT V0203205N006752200059N0160935N5-00115-00615099725ADDAA101000095GF100991999999999999999999MA1099535098695OC100985REMMET10101/04/10 01:53:02 METAR KMHT 040653Z 32013G19KT 10SM CLR M01/M06 A2939 RMK AO2 SLP972 T10111061 (STJ)
0173743945147102010010407537+42933-071438FM-15+0071KMHT V0203205V005152200059N0160935N5-00115-00615099765ADDAA101000095GF100991999999999999999999MA1099595098755OC100885REMMET10101/04/10 02:53:02 METAR KMHT 040753Z 32010G17KT 10SM CLR M01/M06 A2941 RMK AO2 SLP976 T10111061 (STJ)
0182743945147102010010408537+42933-071438FM-15+0071KMHT V0203205N003652200059N0160935N5-00175-00675099815ADDAA101000095GF100991999999999999999999MA1099635098795MD1140134+9999REMMET10401/04/10 03:53:02 METAR KMHT 040853Z 32007KT 10SM CLR M02/M07 A2942 RMK AO2 SLP981 T10171067 51013 (STJ)
0196743945147102010010409537+42933-071438FM-15+0071KMHT V0203305N003652200059N0160935N5-00225-00725099825ADDAA101000095GA1045+007925999GD12991+0079259GF104991999999999999999999MA1099635098795REMMET10101/04/10 04:53:02 METAR KMHT 040953Z 33007KT 10SM SCT026 M02/M07 A2942 RMK AO2 SLP982 T10221072 (STJ)
0162743945147102010010410537+42933-071438FM-15+0071KMHT V0203405V004152200059N0160935N5-00225-00725099875ADDAA101000095GF100991999999999999999999MA1099705098865REMMET09801/04/10 05:53:02 METAR KMHT 041053Z 34008KT 10SM CLR M02/M07 A2944 RMK AO2 SLP987 T10221072 (STJ)
0276743945147102010010411537+42933-071438FM-15+0071KMHT V0203105N003652200059N0160935N5-00285-00785099995ADDAA101000095AJ100139599999999GA1025+007925999GD11991+0079259GF102991999999999999999999KA1999M-00111KA2999N-00281MA1099805098965MD1340184+9999REMMET12401/04/10 06:53:02 METAR KMHT 041153Z 31007KT 10SM FEW026 M03/M08 A2947 RMK AO2 SLP999 4/005 T10281078 11011 21028 53018 (CZ)
0206743945147102010010412537+42933-071438FM-15+0071KMHT V0203105V004652200059N0160935N5-00285-00835100015ADDAA101000095GA1025+007925999GD11991+0079259GF102991999999999999999999MA1099835098995OC100825REMMET10301/04/10 07:53:02 METAR KMHT 041253Z 31009G16KT 10SM FEW026 M03/M08 A2948 RMK AO2 SLP001 T10281083 (CZ)
0172743945147102010010413537+42933-071438FM-15+0071KMHT V0203105N004652200059N0160935N5-00225-00835100065ADDAA101000095GF100991999999999999999999MA1099865099025OC100825REMMET10001/04/10 08:53:02 METAR KMHT 041353Z 31009G16KT 10SM CLR M02/M08 A2949 RMK AO2 SLP006 T10221083 (CZ)
0226743945147102010010414537+42933-071438FM-15+0071KMHT V0203105N006752200059N0160935N5-00175-00835100095ADDAA101000095GA1025+015245999GD11991+0152459GF102991999999999999999999MA1099905099065MD1340114+9999OC100985REMMET10901/04/10 09:53:02 METAR KMHT 041453Z 31013G19KT 10SM FEW050 M02/M08 A2950 RMK AO2 SLP009 T10171083 53011 (CZ)
0206743945147102010010415537+42933-071438FM-15+0071KMHT V0203205N006252200059N0160935N5-00115-00835100095ADDAA101000095GA1025+015245999GD11991+0152459GF102991999999999999999999MA1099905099065OC100935REMMET10301/04/10 10:53:02 METAR KMHT 041553Z 32012G18KT 10SM FEW050 M01/M08 A2950 RMK AO2 SLP009 T10111083 (CZ)
0206743945147102010010416537+42933-071438FM-15+0071KMHT V0203305N00675024385MN0160935N5-00065-00785100055ADDAA101000095GA1075+024385999GD13991+0243859GF107991999999999999999999MA1099865099025OC100985REMMET10301/04/10 11:53:02 METAR KMHT 041653Z 33013G19KT 10SM BKN080 M01/M08 A2949 RMK AO2 SLP005 T10061078 (CZ)
0325743945147102010010417537+42933-071438FM-15+0071KMHT V0203305N00625019815MN0160935N5-00065-00835100055ADDAA101000095AJ100109599999999GA1075+019815999GA2075+024385999GD13991+0198159GD23991+0243859GF107991999999999999999999KA1999M+00001KA2999N-00281MA1099865099025MD1840044+9999OC101085REMMET13401/04/10 12:53:02 METAR KMHT 041753Z 33012G21KT 10SM BKN065 BKN080 M01/M08 A2949 RMK AO2 SLP005 4/004 T10061083 10000 21028 58004 (CZ)
0206743945147102010010418537+42933-071438FM-15+0071KMHT V0203205N00575018295MN0160935N5-00065-00895100095ADDAA101000095GA1075+018295999GD13991+0182959GF107991999999999999999999MA1099935099095OC100935REMMET10301/04/10 13:53:02 METAR KMHT 041853Z 32011G18KT 10SM BKN060 M01/M09 A2951 RMK AO2 SLP009 T10061089 (JS)
0303743945147102010010419327+42933-071438FM-16+0071KMHT V0203305N00675007925MN0128755N5-00105-00805999999ADDAA101000021AU110030015AW1715GA1045+005185999GA2075+007925999GA3085+010675999GD12991+0051859GD23991+0079259GD34991+0106759GF108991999999999999999999MA1099935099095MW1711OC100985REMMET11501/04/10 14:32:02 SPECI KMHT 041932Z 33013G19KT 8SM -SN SCT017 BKN026 OVC035 M01/M08 A2951 RMK AO2 SNB19 P0000 (JS)
0311743945147102010010419537+42933-071438FM-15+0071KMHT V0203105N00465007015MN0144845N5-00115-00785100145ADDAA101000025AU110030015AW1715GA1025+005185999GA2075+007015999GA3085+018295999GD11991+0051859GD23991+0070159GD34991+0182959GF108991999999999999999999MA1099975099125MW1711REMMET13101/04/10 14:53:02 METAR KMHT 041953Z 31009KT 9SM -SN FEW017 BKN023 OVC060 M01/M08 A2952 RMK AO2 SNB19 SLP014 P0000 T10111078 $ (JS)
0248743945147102010010420317+42933-071438FM-16+0071KMHT V0203205N00465016765MN0128755N5-00205-00705999999ADDAA101000021AU110030015AW1715GA1045+006405999GA2075+016765999GD12991+0064059GD23991+0167659GF107991999999999999999999MA1100005099165MW1711REMMET09901/04/10 15:31:02 SPECI KMHT 042031Z 32009KT 8SM -SN SCT021 BKN055 M02/M07 A2953 RMK AO2 P0000 (JS)
0360743945147102010010420537+42933-071438FM-15+0071KMHT V0203205N00625019815MN0160935N5-00175-00785100175ADDAA101000025AA203000021AU110030015AW1715GA1025+007625999GA2075+019815999GA3075+024385999GD11991+0076259GD23991+0198159GD33991+0243859GF107991999999999999999999MA1100005099165MD1140124+9999MW1711REMMET13601/04/10 15:53:02 METAR KMHT 042053Z 32012KT 10SM -SN FEW025 BKN065 BKN080 M02/M08 A2953 RMK AO2 SLP017 P0000 60000 T10171078 51012 (JS)EQDQ01  00008PRCP03
0256743945147102010010421537+42933-071438FM-15+0071KMHT V0203205N00515014635MN0160935N5-00175-00895100225ADDAA101000025GA1075+014635999GA2075+018295999GD13991+0146359GD23991+0182959GF107991999999999999999999MA1100035099195OC100885REMMET12201/04/10 16:53:02 METAR KMHT 042153Z 32010G17KT 10SM BKN048 BKN060 M02/M09 A2954 RMK AO2 SNE17 SLP022 P0000 T10171089 (JS)
0195743945147102010010422537+42933-071438FM-15+0071KMHT V0203205N00575015245MN0160935N5-00225-00895100295ADDAA101000095GA1085+015245999GD14991+0152459GF108991999999999999999999MA1100105099265REMMET10001/04/10 17:53:02 METAR KMHT 042253Z 32011KT 10SM OVC050 M02/M09 A2956 RMK AO2 SLP029 T10221089 (JS)
0293743945147102010010423537+42933-071438FM-15+0071KMHT V0203405N00515015245MN0160935N5-00285-00895100345ADDAA101000095AA206000021AJ100089599999999GA1085+015245999GD14991+0152459GF108991999999999999999999KA1999M-00061KA2999N-00281MA1100145099295MD1140154+9999REMMET13001/04/10 18:53:02 METAR KMHT 042353Z 34010KT 10SM OVC050 M03/M09 A2957 RMK AO2 SLP034 4/003 60000 T10281089 11006 21028 51015 (JS)
0201743945147102010010500537+42933-071438FM-15+0071KMHT V0203305N00515014635MN0160935N5-00335-00945100355ADDAA101000095GA1085+014635999GD14991+0146359GF108991999999999999999999MA1100175099335OC100885REMMET09801/04/10 19:53:02 METAR KMHT 050053Z 33010G17KT 10SM OVC048 M03/M09 A2958 RMK AO2 SLP035 T10331094
0190743945147102010010501537+42933-071438FM-15+0071KMHT V0203305N00415012505MN0160935N5-00395-00895100375ADDAA101000095GA1085+012505999GD14991+0125059GF108991999999999999999999MA1100175099335REMMET09501/04/10 20:53:02 METAR KMHT 050153Z 33008KT 10SM OVC041 M04/M09 A2958 RMK AO2 SLP037 T10391089
0210743945147102010010502537+42933-071438FM-15+0071KMHT V0203405N00465011895MN0160935N5-00395-00945100395ADDAA101000095GA1085+011895999GD14991+0118959GF108991999999999999999999MA1100205099365MD1340054+9999REMMET10101/04/10 21:53:01 METAR KMHT 050253Z 34009KT 10SM OVC039 M04/M09 A2959 RMK AO2 SLP039 T10391094 53005
0190743945147102010010503537+42933-071438FM-15+0071KMHT V0203305N00365010065MN0160935N5-00395-00945100395ADDAA101000095GA1085+010065999GD14991+0100659GF108991999999999999999999MA1100205099365REMMET09501/04/10 22:53:01 METAR KMHT 050353Z 33007KT 10SM OVC033 M04/M09 A2959 RMK AO2 SLP039 T10391094
0200743945147102010010504537+42933-071438FM-15+0071KMHT V0203205N00465010065MN0160935N5-00445-00945100375ADDAA101000025GA1085+010065999GD14991+0100659GF108991999999999999999999MA1100205099365REMMET10501/04/10 23:53:01 METAR KMHT 050453Z 32009KT 10SM OVC033 M04/M09 A2959 RMK AO2 SLP037 T10441094 400001044
0969743945147102010010504596+42933-071438SOD  +0071KMHT V020999999999999999999999999999+99999+99999999999ADDAA124000025AJ100089599999999AL12400035AN1024000035KA1240M+00005KA2240N-00435MG1098984099664OE11240125231001425OE22240093931011035OE33240050199999995REMSOD77424 HR PRECIPITATION (IN):T     SNOW DEPTH (IN):3     24 HR SNOWFALL (IN):T    24 HR MAX TEMP (F):32 24 HR MAX TEMP TIME (LST):1208 24 HR MIN TEMP (F):24 24 HR MIN TEMP TIME (LST):2359 AVERAGE STATION PRESSURE:29.230 MINIMUM SEA LEVEL PRESSURE:29.43 TIME OF OCCURRENCE:0102 PEAK WIND SPEED (MPH):28  PEAK WIND DIR (DEG):310 PEAK WIND TIME (LST):0142  FASTEST 2MIN SPEED (MPH):21 FASTEST 2MIN DIR (DEG):310 FASTEST 2MIN TIME (LST):1103 AVERAGE WIND SPEED (MPH):11.2 24 HR AVG TEMP (F):28 HEATING DEGREE DAYS:37  COOLING DEGREE DAYS:0   LATEST DAY MAX TEMP (0700-1900 LST):32  LATEST NIGHT MIN TEMP(1900-0800 LST):27 HOURLY INCREMENTAL PRECIPITATION VALUES (IN):.00 0.00 0.00 0.00 0.00 0.00 0.00 0.00 0.00 0.00 0.00 0.00 0.00 0.00 T    T    T    0.00 0.00 0.00 0.00 0.00 0.00 TEQDR01     N7GJS072R02     N7GKS075
0384743945147102010010505537+42933-071438FM-15+0071KMHT V0203305N00515016765MN0160935N5-00445-00945100355ADDAA101000025AA206000021AJ100089599999999GA1025+010065999GA2085+016765999GD11991+0100659GD24991+0167659GF108991999999999999999999KA1999M-00281KA2999N-00441MA1100175099335MD1840044+9999REMMET15501/05/10 00:53:02 METAR KMHT 050553Z 33010KT 10SM FEW033 OVC055 M04/M09 A2958 RMK AO2 UPB0459E09 SLP035 4/003 P0000 60000 T10441094 11028 21044 58004 (STJ)EQDQ01  00002PRCP06Q02  00008PRCP06
0196743945147102010010506537+42933-071438FM-15+0071KMHT V0203205N00415016765MN0160935N5-00445-00945100375ADDAA101000095GA1085+016765999GD14991+0167659GF108991999999999999999999MA1100175099335REMMET10101/05/10 01:53:02 METAR KMHT 050653Z 32008KT 10SM OVC055 M04/M09 A2958 RMK AO2 SLP037 T10441094 (STJ)
0196743945147102010010507537+42933-071438FM-15+0071KMHT V0203305N00415016765MN0160935N5-00445-01005100365ADDAA101000095GA1085+016765999GD14991+0167659GF108991999999999999999999MA1100175099335REMMET10101/05/10 02:53:02 METAR KMHT 050753Z 33008KT 10SM OVC055 M04/M10 A2958 RMK AO2 SLP036 T10441100 (STJ)
0235743945147102010010508537+42933-071438FM-15+0071KMHT V0203305N00465016765MN0160935N5-00445-01005100355ADDAA101000095GA1085+016765999GD14991+0167659GF108991999999999999999999MA1100175099335MD1840004+9999REMMET10701/05/10 03:53:02 METAR KMHT 050853Z 33009KT 10SM OVC055 M04/M10 A2958 RMK AO2 SLP035 T10441100 58000 (STJ)EQDQ01+000082APCTEN
0196743945147102010010509537+42933-071438FM-15+0071KMHT V0203305N00415016765MN0160935N5-00445-01005100345ADDAA101000095GA1085+016765999GD14991+0167659GF108991999999999999999999MA1100175099335REMMET10101/05/10 04:53:02 METAR KMHT 050953Z 33008KT 10SM OVC055 M04/M10 A2958 RMK AO2 SLP034 T10441100 (STJ)
0218743945147102010010510537+42933-071438FM-15+0071KMHT V0203305N00365015245MN0160935N5-00445-01065100375ADDAA101000095AJ100089599999999GA1085+015245999GD14991+0152459GF108991999999999999999999MA1100175099335REMMET10601/05/10 05:53:02 METAR KMHT 051053Z 33007KT 10SM OVC050 M04/M11 A2958 RMK AO2 SLP037 4/003 T10441106 (CD)
0253743945147102010010511537+42933-071438FM-15+0071KMHT V0203205N00265014635MN0160935N5-00505-01065100385ADDAA101000095GA1085+014635999GD14991+0146359GF108991999999999999999999KA1999M-00441KA2999N-00501MA1100205099365MD1340034+9999REMMET11801/05/10 06:53:02 METAR KMHT 051153Z 32005KT 10SM OVC048 M05/M11 A2959 RMK AO2 SLP038 T10501106 11044 21050 53003 (CD)
0195743945147102010010512537+42933-071438FM-15+0071KMHT V0203105N00415014635MN0160935N5-00505-01065100395ADDAA101000095GA1085+014635999GD14991+0146359GF108991999999999999999999MA1100205099365REMMET10001/05/10 07:53:02 METAR KMHT 051253Z 31008KT 10SM OVC048 M05/M11 A2959 RMK AO2 SLP039 T10501106 (CD)
0195743945147102010010513537+42933-071438FM-15+0071KMHT V0203305N00365014635MN0160935N5-00445-01065100415ADDAA101000095GA1085+014635999GD14991+0146359GF108991999999999999999999MA1100245099395REMMET10001/05/10 08:53:02 METAR KMHT 051353Z 33007KT 10SM OVC048 M04/M11 A2960 RMK AO2 SLP041 T10441106 (CD)
0215743945147102010010514537+42933-071438FM-15+0071KMHT V0209999V00315014635MN0160935N5-00395-01005100415ADDAA101000095GA1085+014635999GD14991+0146359GF108991999999999999999999MA1100245099395MD1040034+9999REMMET10601/05/10 09:53:02 METAR KMHT 051453Z VRB06KT 10SM OVC048 M04/M10 A2960 RMK AO2 SLP041 T10391100 50003 (CD)
0233743945147102010010515537+42933-071438FM-15+0071KMHT V0203205N00265018295MN0160935N5-00285-01005100345ADDAA101000095GA1045+014635999GA2075+018295999GD12991+0146359GD23991+0182959GF107991999999999999999999MA1100145099295REMMET10701/05/10 10:53:02 METAR KMHT 051553Z 32005KT 10SM SCT048 BKN060 M03/M10 A2957 RMK AO2 SLP034 T10281100 (CD)
0195743945147102010010516537+42933-071438FM-15+0071KMHT V0203005N003652200059N0160935N5-00115-00945100275ADDAA101000095GA1045+025915999GD12991+0259159GF104991999999999999999999MA1100105099265REMMET10001/05/10 11:53:02 METAR KMHT 051653Z 30007KT 10SM SCT085 M01/M09 A2956 RMK AO2 SLP027 T10111094 (CD)
0276743945147102010010517537+42933-071438FM-15+0071KMHT V0203305N00415014335MN0160935N5-00065-00895100195ADDAA101000095AJ100089599999999GA1085+014335999GD14991+0143359GF108991999999999999999999KA1999M-00061KA2999N-00501MA1100005099165MD1740214+9999REMMET12401/05/10 12:53:02 METAR KMHT 051753Z 33008KT 10SM OVC047 M01/M09 A2953 RMK AO2 SLP019 4/003 T10061089 11006 21050 57021 (CD)
0195743945147102010010518537+42933-071438FM-15+0071KMHT V0203205N00365014335MN0160935N5-00065-00835100185ADDAA101000095GA1085+014335999GD14991+0143359GF108991999999999999999999MA1100005099165REMMET10001/05/10 13:53:02 METAR KMHT 051853Z 32007KT 10SM OVC047 M01/M08 A2953 RMK AO2 SLP018 T10061083 (CD)
0195743945147102010010519537+42933-071438FM-15+0071KMHT V0203005N00465012505MN0160935N5-00065-00835100215ADDAA101000095GA1085+012505999GD14991+0125059GF108991999999999999999999MA1100035099195REMMET10001/05/10 14:53:02 METAR KMHT 051953Z 30009KT 10SM OVC041 M01/M08 A2954 RMK AO2 SLP021 T10061083 (JS)
0215743945147102010010520537+42933-071438FM-15+0071KMHT V0203205N00415012195MN0160935N5-00115-00785100205ADDAA101000095GA1085+012195999GD14991+0121959GF108991999999999999999999MA1100005099165MD1340014+9999REMMET10601/05/10 15:53:02 METAR KMHT 052053Z 32008KT 10SM OVC040 M01/M08 A2953 RMK AO2 SLP020 T10111078 53001 (JS)
0195743945147102010010521537+42933-071438FM-15+0071KMHT V0203305N00315010675MN0160935N5-00175-00725100225ADDAA101000095GA1085+010675999GD14991+0106759GF108991999999999999999999MA1100035099195REMMET10001/05/10 16:53:02 METAR KMHT 052153Z 33006KT 10SM OVC035 M02/M07 A2954 RMK AO2 SLP022 T10171072 (JS)
0216743945147102010010522167+42933-071438FM-16+0071KMHT V0203405N00465010675MN0032195N5-00205-00705999999ADDAA101000021AU110030015AW1715GA1085+010675999GD14991+0106759GF108991999999999999999999MA1100035099195MW1711REMMET09801/05/10 17:16:02 SPECI KMHT 052216Z 34009KT 2SM -SN OVC035 M02/M07 A2954 RMK AO2 SNB11 P0000 (JS)
0296743945147102010010522247+42933-071438FM-16+0071KMHT V0203205N00265011285MN0024145N5-00305-00605999999ADDAA101000021AU110030015AW1715ED135U15249GA1025+000915999GA2085+011285999GD11991+0009159GD24991+0112859GF108991999999999999999999MA1100035099195MW1711REMMET13601/05/10 17:24:02 SPECI KMHT 052224Z 32005KT 1 1/2SM R35/5000VP6000FT -SN FEW003 OVC037 M03/M06 A2954 RMK AO2 TWR VIS 2 SNB11 P0000 (JS)
0282743945147102010010522317+42933-071438FM-16+0071KMHT V0203305N00265011285MN0032195N5-00305-00605999999ADDAA101000021AU110030015AW1715ED135U15249GA1045+004575999GA2085+011285999GD12991+0045759GD24991+0112859GF108991999999999999999999MA1100075099235MW1711REMMET12201/05/10 17:31:02 SPECI KMHT 052231Z 33005KT 2SM R35/5000VP6000FT -SN SCT015 OVC037 M03/M06 A2955 RMK AO2 SNB11 P0000 (JS)
0320743945147102010010522437+42933-071438FM-16+0071KMHT V0203105N00265011285MN0096565N5-00305-00605999999ADDAA101000391AU110030015AW1715ED135U16769GA1025+003055999GA2075+011285999GA3085+025915999GD11991+0030559GD23991+0112859GD34991+0259159GF108991999999999999999999MA1100035099195MW1711REMMET12901/05/10 17:43:02 SPECI KMHT 052243Z 31005KT 6SM R35/5500VP6000FT -SN FEW010 BKN037 OVC085 M03/M06 A2954 RMK AO2 SNB11 P0001 (JS)
0288743945147102010010522537+42933-071438FM-15+0071KMHT V0203205N00315019815MN0160935N5-00285-00615100235ADDAA101000395GA1025+007015999GA2075+019815999GA3085+027435999GD11991+0070159GD23991+0198159GD34991+0274359GF108991999999999999999999MA1100035099195REMMET13101/05/10 17:53:02 METAR KMHT 052253Z 32006KT 10SM FEW023 BKN065 OVC090 M03/M06 A2954 RMK AO2 SNB11E50 SLP023 P0001 T10281061 $ (JS)
0295743945147102010010523537+42933-071438FM-15+0071KMHT V0203205N00465014635MN0160935N5-00225-00725100255ADDAA101000095AA206000391AJ100089599999999GA1085+014635999GD14991+0146359GF108991999999999999999999KA1999M+00001KA2999N-00281MA1100075099235MD1240054+9999REMMET13201/05/10 18:53:02 METAR KMHT 052353Z 32009KT 10SM OVC048 M02/M07 A2955 RMK AO2 SLP025 4/003 60001 T10221072 10000 21028 52005 $ (JS)
0203743945147102010010600537+42933-071438FM-15+0071KMHT V0203305N00465010975MN0160935N5-00225-00725100255ADDAA101000095GA1085+010975999GD14991+0109759GF108991999999999999999999MA1100075099235OC100935REMMET10001/05/10 19:53:02 METAR KMHT 060053Z 33009G18KT 10SM OVC036 M02/M07 A2955 RMK AO2 SLP025 T10221072 $
0192743945147102010010601537+42933-071438FM-15+0071KMHT V0203205V00515012195MN0160935N5-00285-00785100275ADDAA101000095GA1085+012195999GD14991+0121959GF108991999999999999999999MA1100075099235REMMET09701/05/10 20:53:02 METAR KMHT 060153Z 32010KT 10SM OVC040 M03/M08 A2955 RMK AO2 SLP027 T10281078 $
0212743945147102010010602537+42933-071438FM-15+0071KMHT V0203205N00415012195MN0160935N5-00335-00785100285ADDAA101000095GA1085+012195999GD14991+0121959GF108991999999999999999999MA1100105099265MD1340034+9999REMMET10301/05/10 21:53:02 METAR KMHT 060253Z 32008KT 10SM OVC040 M03/M08 A2956 RMK AO2 SLP028 T10331078 53003 $
0192743945147102010010603537+42933-071438FM-15+0071KMHT V0203405N00215010975MN0160935N5-00395-00835100305ADDAA101000095GA1075+010975999GD13991+0109759GF107991999999999999999999MA1100105099265REMMET09701/05/10 22:53:01 METAR KMHT 060353Z 34004KT 10SM BKN036 M04/M08 A2956 RMK AO2 SLP030 T10391083 $
0202743945147102010010604537+42933-071438FM-15+0071KMHT V0203305N00315010365MN0160935N5-00335-00835100275ADDAA101000095GA1085+010365999GD14991+0103659GF108991999999999999999999MA1100075099235REMMET10701/05/10 23:53:02 METAR KMHT 060453Z 33006KT 10SM OVC034 M03/M08 A2955 RMK AO2 SLP027 T10331083 400001050 $
0972743945147102010010604596+42933-071438SOD  +0071KMHT V020999999999999999999999999999+99999+99999999999ADDAA124000395AJ100089599999999AL12400035AN1024000035KA1240M+00005KA2240N-00495MG1099264100174OE11240098332019565OE22240067131020125OE33240038099999995REMSOD77724 HR PRECIPITATION (IN):0.01  SNOW DEPTH (IN):3     24 HR SNOWFALL (IN):T    24 HR MAX TEMP (F):32 24 HR MAX TEMP TIME (LST):1425 24 HR MIN TEMP (F):23 24 HR MIN TEMP TIME (LST):0822 AVERAGE STATION PRESSURE:29.310 MINIMUM SEA LEVEL PRESSURE:29.58 TIME OF OCCURRENCE:1420 PEAK WIND SPEED (MPH):22  PEAK WIND DIR (DEG):320 PEAK WIND TIME (LST):1956  FASTEST 2MIN SPEED (MPH):15 FASTEST 2MIN DIR (DEG):310 FASTEST 2MIN TIME (LST):2012 AVERAGE WIND SPEED (MPH):8.5  24 HR AVG TEMP (F):28 HEATING DEGREE DAYS:37  COOLING DEGREE DAYS:0   LATEST DAY MAX TEMP (0700-1900 LST):32  LATEST NIGHT MIN TEMP(1900-0800 LST):23 HOURLY INCREMENTAL PRECIPITATION VALUES (IN):    0.00 0.00 0.00 0.00 0.00 0.00 0.00 0.00 0.00 0.00 0.00 0.00 0.00 0.00 0.00 0.00 0.01 0.00 0.00 0.00 0.00 0.00 0.00EQDR01     N7GJS072R02     N7GKS075
0279743945147102010010605537+42933-071438FM-15+0071KMHT V0203205N00515010365MN0160935N5-00395-00895100245ADDAA101000095AJ100089599999999GA1085+010365999GD14991+0103659GF108991999999999999999999KA1999M-00221KA2999N-00441MA1100075099235MD1840044+9999REMMET12701/06/10 00:53:02 METAR KMHT 060553Z 32010KT 10SM OVC034 M04/M09 A2955 RMK AO2 SLP024 4/003 T10391089 11022 21044 58004 $ (STJ)
0164743945147102010010606537+42933-071438FM-15+0071KMHT V0202905N002152200059N0160935N5-00445-00945100285ADDAA101000095GF100991999999999999999999MA1100105099265REMMET10001/06/10 01:53:02 METAR KMHT 060653Z 29004KT 10SM CLR M04/M09 A2956 RMK AO2 SLP028 T10441094 $ (STJ)
0164743945147102010010607537+42933-071438FM-15+0071KMHT V0203105N003152200059N0160935N5-00445-00945100285ADDAA101000095GF100991999999999999999999MA1100105099265REMMET10001/06/10 02:53:02 METAR KMHT 060753Z 31006KT 10SM CLR M04/M09 A2956 RMK AO2 SLP028 T10441094 $ (STJ)
0184743945147102010010608537+42933-071438FM-15+0071KMHT V0203205N003652200059N0160935N5-00445-01005100245ADDAA101000095GF100991999999999999999999MA1100075099235MD1040004+9999REMMET10601/06/10 03:53:02 METAR KMHT 060853Z 32007KT 10SM CLR M04/M10 A2955 RMK AO2 SLP024 T10441100 50000 $ (STJ)
0198743945147102010010609537+42933-071438FM-15+0071KMHT V0203305N002652200059N0160935N5-00445-01005100225ADDAA101000095GA1025+030485999GD11991+0304859GF102991999999999999999999MA1100035099195REMMET10301/06/10 04:53:02 METAR KMHT 060953Z 33005KT 10SM FEW100 M04/M10 A2954 RMK AO2 SLP022 T10441100 $ (STJ)
0163743945147102010010610537+42933-071438FM-15+0071KMHT V0203305N003652200059N0160935N5-00505-01005100235ADDAA101000095GF100991999999999999999999MA1100035099195REMMET09901/06/10 05:53:02 METAR KMHT 061053Z 33007KT 10SM CLR M05/M10 A2954 RMK AO2 SLP023 T10501100 $ (CZ)
0261743945147102010010611537+42933-071438FM-15+0071KMHT V0203205N003652200059N0160935N5-00505-01005100255ADDAA101000095AA224000391AJ100089599999999GF100991999999999999999999KA1999M-00391KA2999N-00501MA1100075099235MD1340014+9999REMMET12901/06/10 06:53:02 METAR KMHT 061153Z 32007KT 10SM CLR M05/M10 A2955 RMK AO2 SLP025 4/003 70001 T10501100 11039 21050 53001 $ (CZ)
0174743945147102010010612537+42933-071438FM-15+0071KMHT V0203105N003152200059N0160935N5-00505-01065100285ADDAA101000095GF100991999999999999999999MA1100105099265OC100725REMMET10201/06/10 07:53:02 METAR KMHT 061253Z 31006G14KT 10SM CLR M05/M11 A2956 RMK AO2 SLP028 T10501106 $ (CZ)
0208743945147102010010613537+42933-071438FM-15+0071KMHT V0203005N005152200059N0160935N5-00445-01065100355ADDAA101000095GA1025+015245999GD11991+0152459GF102991999999999999999999MA1100175099335OC100985REMMET10501/06/10 08:53:02 METAR KMHT 061353Z 30010G19KT 10SM FEW050 M04/M11 A2958 RMK AO2 SLP035 T10441106 $ (CZ)
0228743945147102010010614537+42933-071438FM-15+0071KMHT V0203305N005152200059N0160935N5-00285-01065100365ADDAA101000095GA1025+009145999GD11991+0091459GF102991999999999999999999MA1100175099335MD1140104+9999OC100935REMMET11101/06/10 09:53:02 METAR KMHT 061453Z 33010G18KT 10SM FEW030 M03/M11 A2958 RMK AO2 SLP036 T10281106 51010 $ (CZ)
0208743945147102010010615537+42933-071438FM-15+0071KMHT V0203105N007252200059N0160935N5-00225-01065100335ADDAA101000095GA1025+010065999GD11991+0100659GF102991999999999999999999MA1100145099295OC101035REMMET10501/06/10 10:53:02 METAR KMHT 061553Z 31014G20KT 10SM FEW033 M02/M11 A2957 RMK AO2 SLP033 T10221106 $ (CZ)
0208743945147102010010616537+42933-071438FM-15+0071KMHT V0203005N006252200059N0160935N5-00175-01055100225ADDAA101000095GA1025+010065999GD11991+0100659GF102991999999999999999999MA1100035099195OC101185REMMET10501/06/10 11:53:02 METAR KMHT 061653Z 30012G23KT 10SM FEW033 M02/M10 A2954 RMK AO2 SLP022 T10171105 $ (CZ)
0278743945147102010010617537+42933-071438FM-15+0071KMHT V0203105N006252200059N0160935N5-00115-01065100165ADDAA101000095AJ100089599999999GA1025+015245999GD11991+0152459GF102991999999999999999999KA1999M-00111KA2999N-01061MA1099975099125MD1840204+9999REMMET12601/06/10 12:53:02 METAR KMHT 061753Z 31012KT 10SM FEW050 M01/M11 A2952 RMK AO2 SLP016 4/003 T10111106 11011 21106 58020 $ (CZ)
0206743945147102010010618537+42933-071438FM-15+0071KMHT V0203105N006752200059N0160935N5-00115-01005100175ADDAA101000095GA1025+018295999GD11991+0182959GF102991999999999999999999MA1100005099165OC101135REMMET10301/06/10 13:53:02 METAR KMHT 061853Z 31013G22KT 10SM FEW060 M01/M10 A2953 RMK AO2 SLP017 T10111100 (JS)
0206743945147102010010619537+42933-071438FM-15+0071KMHT V0203105N006252200059N0160935N5-00115-01005100215ADDAA101000095GA1045+012195999GD12991+0121959GF104991999999999999999999MA1100035099195OC100985REMMET10301/06/10 14:53:02 METAR KMHT 061953Z 31012G19KT 10SM SCT040 M01/M10 A2954 RMK AO2 SLP021 T10111100 (JS)
0232743945147102010010620537+42933-071438FM-15+0071KMHT V0202905N00625010975MN0160935N5-00225-01005100235ADDAA101000095GA1075+010975999GD13991+0109759GF107991999999999999999999MA1100035099195MD1340074+9999OC100885REMMET11501/06/10 15:53:02 METAR KMHT 062053Z 29012G17KT 10SM BKN036 M02/M10 A2954 RMK AO2 SLP023 6//// T10221100 53007 (JS)
0206743945147102010010621537+42933-071438FM-15+0071KMHT V0203005N00315010365MN0160935N5-00285-01005100255ADDAA101000095GA1075+010365999GD13991+0103659GF107991999999999999999999MA1100075099235OC100775REMMET10301/06/10 16:53:02 METAR KMHT 062153Z 30006G15KT 10SM BKN034 M03/M10 A2955 RMK AO2 SLP025 T10281100 (JS)
0195743945147102010010622537+42933-071438FM-15+0071KMHT V0202905N004652200059N0160935N5-00395-01065100275ADDAA101000095GA1025+010675999GD11991+0106759GF102991999999999999999999MA1100075099235REMMET10001/06/10 17:53:02 METAR KMHT 062253Z 29009KT 10SM FEW035 M04/M11 A2955 RMK AO2 SLP027 T10391106 (JS)
0276743945147102010010623537+42933-071438FM-15+0071KMHT V0203205N00315024385MN0160935N5-00395-01005100295ADDAA101000095AJ100089599999999GA1085+024385999GD14991+0243859GF108991999999999999999999KA1999M-00111KA2999N-00391MA1100105099265MD1240054+9999REMMET12401/06/10 18:53:02 METAR KMHT 062353Z 32006KT 10SM OVC080 M04/M10 A2956 RMK AO2 SLP029 4/003 T10391100 11011 21039 52005 (JS)
0266743945147102010010700537+42933-071438FM-15+0071KMHT V0203105N00575024385MN0160935N5-00335-01005100315ADDAA101000095GA1025+014945999GA2075+024385999GA3085+030485999GD11991+0149459GD23991+0243859GD34991+0304859GF108991999999999999999999MA1100145099295REMMET10901/06/10 19:53:02 METAR KMHT 070053Z 31011KT 10SM FEW049 BKN080 OVC100 M03/M10 A2957 RMK AO2 SLP031 T10331100
0205743945147102010010701537+42933-071438FM-15+0071KMHT V0203105N00315027435MN0160935N5-00285-00945100335ADDAA101000025GA1085+027435999GD14991+0274359GF108991999999999999999999MA1100145099295REMMET11001/06/10 20:53:02 METAR KMHT 070153Z 31006KT 10SM OVC090 M03/M09 A2957 RMK AO2 SNB00E07 SLP033 P0000 T10281094
0265743945147102010010702537+42933-071438FM-15+0071KMHT V0203305N00575030485MN0160935N5-00285-00945100395ADDAA101000095AA203000021GA1045+009755999GA2085+030485999GD12991+0097559GD24991+0304859GF108991999999999999999999MA1100205099365MD1340104+9999REMMET11401/06/10 21:53:02 METAR KMHT 070253Z 33011KT 10SM SCT032 OVC100 M03/M09 A2959 RMK AO2 SLP039 60000 T10281094 53010
0277743945147102010010703537+42933-071438FM-15+0071KMHT V0203005N00575028965MN0160935N5-00285-00945100405ADDAA101000095GA1045+009455999GA2075+028965999GA3085+036585999GD12991+0094559GD23991+0289659GD34991+0365859GF108991999999999999999999MA1100205099365OC100885REMMET11201/06/10 22:53:02 METAR KMHT 070353Z 30011G17KT 10SM SCT031 BKN095 OVC120 M03/M09 A2959 RMK AO2 SLP040 T10281094
0249743945147102010010704537+42933-071438FM-15+0071KMHT V0203105N00625028965MN0160935N5-00285-00945100425ADDAA101000095GA1025+008845999GA2085+028965999GD11991+0088459GD24991+0289659GF108991999999999999999999MA1100245099395OC101035REMMET11501/06/10 23:53:01 METAR KMHT 070453Z 31012G20KT 10SM FEW029 OVC095 M03/M09 A2960 RMK AO2 SLP042 T10281094 403331106
1036743945147102010010704596+42933-071438SOD  +0071KMHT V020999999999999999999999999999+99999+99999999999ADDAA124000096AJ100089599999999AL12400096AN1024000096KA1240M+03336KA2240N-01056MG1099194100174OE11240116233013355OE22240089431014315OE33240046999999995REMSOD77724 HR PRECIPITATION (IN):0.00  SNOW DEPTH (IN):3     24 HR SNOWFALL (IN):0.0  24 HR MAX TEMP (F):92 24 HR MAX TEMP TIME (LST):1151 24 HR MIN TEMP (F):13 24 HR MIN TEMP TIME (LST):1152 AVERAGE STATION PRESSURE:29.290 MINIMUM SEA LEVEL PRESSURE:29.58 TIME OF OCCURRENCE:1439 PEAK WIND SPEED (MPH):26  PEAK WIND DIR (DEG):330 PEAK WIND TIME (LST):1335  FASTEST 2MIN SPEED (MPH):20 FASTEST 2MIN DIR (DEG):310 FASTEST 2MIN TIME (LST):1431 AVERAGE WIND SPEED (MPH):10.5 24 HR AVG TEMP (F):53 HEATING DEGREE DAYS:12  COOLING DEGREE DAYS:0   LATEST DAY MAX TEMP (0700-1900 LST):30  LATEST NIGHT MIN TEMP(1900-0800 LST):22 HOURLY INCREMENTAL PRECIPITATION VALUES (IN):.00 0.00 0.00 0.00 0.00 0.00 0.00 0.00 0.00 0.00 0.00 0.00 0.00 0.00 0.00 0.00 0.00 0.00 0.00 0.00 T    0.00 0.00 0.00EQDR01  0.007AAP092R02   0.07ALS030R03     N7GJS072R04     N7GKS075R05    927KAX004R06    137KAN011
0305743945147102010010705537+42933-071438FM-15+0071KMHT V0203105N004652200059N0160935N5-00335-00945100435ADDAA101000095AA206000021AJ100089599999999GA1045+027435999GD12991+0274359GF104991999999999999999999KA1999M-00281KA2999N-00391MA1100245099395MD1140044+9999OC100985REMMET13401/07/10 00:53:02 METAR KMHT 070553Z 31009G19KT 10SM SCT090 M03/M09 A2960 RMK AO2 SLP043 4/003 60000 T10331094 11028 21039 51004 (STJ)
0173743945147102010010706537+42933-071438FM-15+0071KMHT V0203105N004652200059N0160935N5-00335-00945100465ADDAA101000095GF100991999999999999999999MA1100275099435OC100825REMMET10101/07/10 01:53:02 METAR KMHT 070653Z 31009G16KT 10SM CLR M03/M09 A2961 RMK AO2 SLP046 T10331094 (STJ)
