0307743920146112010010100004+43883-069933FM-15+0024KNHZ V0200301N002610270019N0112651N1-00301-00401102001ADDAA101000021AA206001591AJ100039199999999GD11991+0126019GD24991+0270019GF108991999999999999999999KA1999M-00281KA2999N-00331MA1101931999999MD1810151+9999REMMET126METAR KNHZ 312356Z 03005KT 7SM FEW042 OVC090 M03/M04 A3010 RMK AO2 SNE03 SLP200 4/001 P0000 60006 T10331044 11028 21033 58015;EQDQ01  00158PRCP06
0222743920146112010010100546+43900-069933FM-16+0023KNHZ V0203305N00155005185MN0144845N5-00505-00605999999ADDGA1025+002135999GA2075+005185999GA3075+012505999GD11991+0021359GD23991+0051859GD33991+0125059MA1101965101695REMMET10212/31/09 19:54:03 SPECI KNHZ 010054Z 33003KT 9SM FEW007 BKN017 BKN041 M05/M06 A3011 RMK AO2 FIBI (RDG)
0265743920146112010010100567+43900-069933FM-15+0023KNHZ V0209999C00005005185MN0144845N5-00505-00615102035ADDAA101000095GA1045+002135999GA2075+005185999GA3075+012505999GD12991+0021359GD23991+0051859GD33991+0125059GF107991999999999999999999MA1101965101695REMMET10812/31/09 19:56:01 METAR KNHZ 010056Z 00000KT 9SM SCT007 BKN017 BKN041 M05/M06 A3011 RMK AO2 SLP203 T10501061
0199743920146112010010101067+43900-069933FM-16+0023KNHZ V0203405N00215002135MN0144845N5-00405-00605999999ADDGA1075+002135999GA2085+005185999GD13991+0021359GD24991+0051859GF108991999999999999999999MA1101965101695REMMET08412/31/09 20:06:01 SPECI KNHZ 010106Z 34004KT 9SM BKN007 OVC017 M04/M06 A3011 RMK AO2
0263743920146112010010101447+43900-069933FM-16+0023KNHZ V0203605N00215004575MN0080475N5-00405-00505999999ADDAU100001015AW1105GA1045+002135999GA2075+004575999GA3085+011285999GD12991+0021359GD23991+0045759GD34991+0112859GF108991999999999999999999MA1101905101625MW1101REMMET09412/31/09 20:44:01 SPECI KNHZ 010144Z 36004KT 5SM BR SCT007 BKN015 OVC037 M04/M05 A3009 RMK AO2
0227743920146112010010101567+43900-069933FM-15+0023KNHZ V0203405N00215005185MN0112655N5-00395-00505101975ADDAA101000095GA1045+002135999GA2085+005185999GD12991+0021359GD24991+0051859GF108991999999999999999999MA1101905101625REMMET10112/31/09 20:56:01 METAR KNHZ 010156Z 34004KT 7SM SCT007 OVC017 M04/M05 A3009 RMK AO2 SLP197 T10391050
0173743920146112010010102137+43900-069933FM-16+0023KNHZ V0203405N00215001525MN0112655N5-00305-00505999999ADDGA1085+001525999GD14991+0015259GF108991999999999999999999MA1101905101625REMMET08912/31/09 21:13:01 SPECI KNHZ 010213Z 34004KT 7SM OVC005 M03/M05 A3009 RMK AO2 CIG 005V008
0209743920146112010010102567+43900-069933FM-15+0023KNHZ V0203505N00265001525MN0112655N5-00335-00445101895ADDAA101000095GA1085+001525999GD14991+0015259GF108991999999999999999999MA1101835101555MD1840124+9999REMMET10012/31/09 21:56:01 METAR KNHZ 010256Z 35005KT 7SM OVC005 M03/M04 A3007 RMK AO2 SLP189 T10331044 58012
0159743920146112010010103567+43900-069933FM-15+0023KNHZ V0203505N00365001525MN9999999N5-00335-00445101785ADDAA101000095GA1085+001525999GD14991+0015259MA1101735101455REMMET09012/31/09 22:56:01 METAR KNHZ 010356Z 35007KT OVC005 M03/M04 A3004 RMK AO2 SLP178 T10331044
0169743920146112010010104567+43900-069933FM-15+0023KNHZ V0203605N00315001525MN9999999N5-00335-00445101685ADDAA101000095GA1085+001525999GD14991+0015259MA1101635101355REMMET10012/31/09 23:56:01 METAR KNHZ 010456Z 36006KT OVC005 M03/M04 A3001 RMK AO2 SLP168 T10331044 410281100
0936743920146112010010104596+43900-069933SOD  +0023KNHZ V020999999999999999999999999999+99999+99999999999ADDAA124001595AX1015245KA1240M-00275KA2240N-00995MG1102014101694OE11240044736023555OE22240040201023525OE33240013499999995REMSOD77124 HR PRECIPITATION (IN):0.06  WEATHER(CODE):1  24 HR MAX TEMP (F):27 24 HR MAX TEMP TIME (LST):1754 24 HR MIN TEMP (F):14 24 HR MIN TEMP TIME (LST):0739 AVERAGE STATION PRESSURE:30.125 MINIMUM SEA LEVEL PRESSURE:30.03 TIME OF OCCURRENCE:2359 PEAK WIND SPEED (MPH):10  PEAK WIND DIR (DEG):360 PEAK WIND TIME (LST):2355  FASTEST 2MIN SPEED (MPH):9  FASTEST 2MIN DIR (DEG):10  FASTEST 2MIN TIME (LST):2352 AVERAGE WIND SPEED (MPH):3.0  24 HR AVG TEMP (F):21 DEPART FROM NORMAL: 0   HEATING DEGREE DAYS:44  COOLING DEGREE DAYS:0   LATEST DAY MAX TEMP (0700-1900 LST):27  LATEST NIGHT MIN TEMP(1900-0800 LST):13 HOURLY INCREMENTAL PRECIPITATION VALUES (IN):.00 0.00 0.00 0.00 0.00 0.00 0.00 0.00 0.00 0.00 0.00 0.00 T    0.01 0.04 0.01 T    T    T    0.00 0.00 0.00 0.00 0.00EQDR01     N7GJS072R02     N7GKS075
1258743920146112010010104596+43900-069933SOM  +0023KNHZ V020999999999999999999999999999+99999+99999999999ADDAB10094596AD10029090303999999995AE1075045035025AH1005002590920065AH2010004390920075AH3015005190920075AH4020005690920115AH5030006690920215AH6045006990920265AI1060008490307345AI2080010790307505AI3100012790308395AI4120015290308395AI5150018890308555AI6180020690308555KB1744N-06895KB2744M+02615KB3744A-02115KC1N9-01611799995KC2M9+02330399995KD1744H11355KD2744C00005KE1135005285005MH1101134101464MK1103562609475098650921075REMSOM810PCP MTOT:3.72 DEPNRM:-1.2 PCP GT 24HRS:1.14 DATE(S):3 DAYS W/PCP >=.01:7  DAYS W/PCP >=.10:4  DAYS W/ PCP >=.50:3 DAYS W/PCP >=1.00:2 MSDP AMTS W/DATE-TIME TAGS:MIN:5 0.10  09/2006 MIN:10 0.17  09/2007 MIN:15 0.20  09/2007 MIN:20 0.22  09/2011 MIN:30 0.26  09/2021 MIN:45 0.27  09/2026 MIN:60 0.33  03/0734 MIN:80 0.42  03/0750 MIN:100 0.50  03/0839 MIN:120 0.60  03/0839 MIN:150 0.74  03/0855 MIN:180 0.81  03/0855 AVG DLY MIN:19.6  AVG DLY MAX:36.7  AVG MLY TMP:28.2  DEP NORM:2.4   MIN TMP:3  DATE(S):17 MAX TMP:74  DATE(S):03 DAYS MAX <=32:1 DAYS MAX >=90:0  DAYS MIN <=32:28 DAYS MIN  <=0:0  AVG STP:29.865 LWST SLP:29.13 DATE/TIME:092107 HGST SLP:30.58 DATE/TIME:260947 HDD MTH TOT:1135 DEP NORM:-75 SEASON(JUL 1-JUN 30):2432 DEP NORM:-428 CDD MTH TOT:0 DEP NORM: 0 SEASON(JAN 1-DEC 31):189 DEP NORM:-131EQDR01  3.727ABP070
0346743920146112010010105567+43900-069933FM-15+0023KNHZ V0203505N00365002745MN9999999N5-00335-00395101605ADDAA101000025AA206000021AU110030015AW1715GA1025+001525999GA2085+002745999GD11991+0015259GD24991+0027459KA1999M-00331KA2999N-00501MA1101525101255MD1640284+9999REMMET15901/01/10 00:56:02 METAR KNHZ 010556Z 35007KT -SN FEW005 OVC009 M03/M04 A2998 RMK AO2 FZRAB49E54SNB54 CIG 008V013 SLP160 P0000 60000 T10331039 11033 21050 56028EQDQ01  00008PRCP06
0250743920146112010010106257+43900-069933FM-16+0023KNHZ V0203605N00365005795MN9999999N5-00305-00405999999ADDAA101000021GA1025+001525999GA2045+003965999GA3085+005795999GD11991+0015259GD22991+0039659GD34991+0057959MA1101525101255REMMET11901/01/10 01:25:02 SPECI KNHZ 010625Z 36007KT FEW005 SCT013 OVC019 M03/M04 A2998 RMK AO2 UPB07E19SNE07 CIG 010 R01 P0000
0192743920146112010010106417+43900-069933FM-16+0023KNHZ V0203505N00365005795MN9999999N5-00305-00405999999ADDAA101000021AU118020015AW1645GA1085+005795999GD14991+0057959MA1101525101255REMMET10601/01/10 01:41:02 SPECI KNHZ 010641Z 35007KT -FZRA OVC019 M03/M04 A2998 RMK AO2 UPB07E19FZRAB35SNE07 P0000
0225743920146112010010106567+43900-069933FM-15+0023KNHZ V0203405N00365004575MN9999999N5-00335-00395101585ADDAA101000025AU110030015AW1715GA1085+004575999GD14991+0045759MA1101525101255REMMET13901/01/10 01:56:02 METAR KNHZ 010656Z 34007KT -SN OVC015 M03/M04 A2998 RMK AO2 UPB07E19FZRAB35E55SNE07B55 CIG 010 R01 SLP158 P0000 T10331039
0186743920146112010010107147+43900-069933FM-16+0023KNHZ V0203505N00415003665MN9999999N5-00305-00405999999ADDAA101000021AU110030015AW1715GA1085+003665999GD14991+0036659MA1101495101215REMMET10001/01/10 02:14:02 SPECI KNHZ 010714Z 35008KT -SN OVC012 M03/M04 A2997 RMK AO2 UPB11E13SNE09B13 P0000
0203743920146112010010107567+43900-069933FM-15+0023KNHZ V0203505N00365003055MN9999999N5-00285-00395101505ADDAA101000025AU110030015AW1715GA1085+003055999GD14991+0030559MA1101425101155REMMET11701/01/10 02:56:02 METAR KNHZ 010756Z 35007KT -SN OVC010 M03/M04 A2995 RMK AO2 UPB11E13SNE09B13 SLP150 P0000 T10281039
0259743920146112010010108567+43900-069933FM-15+0023KNHZ V0203605N00465003055MN9999999N5-00285-00395101395ADDAA101000025AA203000021AU110030015AW1715GA1085+003055999GD14991+0030559MA1101325101045MD1840214+9999REMMET12901/01/10 03:56:02 METAR KNHZ 010856Z 36009KT -SN OVC010 M03/M04 A2992 RMK AO2 UPB47E49SNE47B49 SLP139 P0000 60000 T10281039 58021EQDQ01  00008PRCP03
0202743920146112010010109567+43900-069933FM-15+0023KNHZ V0200105N00465003055MN9999999N5-00285-00395101345ADDAA101000595AU120090015AW1401AW2415GA1085+003055999GD14991+0030559MA1101295101015REMMET11001/01/10 04:56:02 METAR KNHZ 010956Z 01009KT UP OVC010 M03/M04 A2991 RMK AO2 UPB53SNE53 SLP134 P0002 T10281039
0184743920146112010010110087+43900-069933FM-16+0023KNHZ V0200105N00365003055MN9999999N5-00205-00305999999ADDAA101000021AU118020015AW1645GA1085+003055999GD14991+0030559MA1101295101015REMMET09801/01/10 05:08:02 SPECI KNHZ 011008Z 01007KT -FZRA OVC010 M02/M03 A2991 RMK AO2 UPE02FZRAB02 P0000
0184743920146112010010110197+43900-069933FM-16+0023KNHZ V0200105N00365002445MN9999999N5-00205-00305999999ADDAA101000021AU118020015AW1645GA1085+002445999GD14991+0024459MA1101295101015REMMET09801/01/10 05:19:02 SPECI KNHZ 011019Z 01007KT -FZRA OVC008 M02/M03 A2991 RMK AO2 UPE02FZRAB02 P0000
0201743920146112010010110567+43900-069933FM-15+0023KNHZ V0200105N00465002445MN9999999N5-00225-00335101345ADDAA101000395AU118020015AW1645GA1085+002445999GD14991+0024459MA1101295101015REMMET11501/01/10 05:56:02 METAR KNHZ 011056Z 01009KT -FZRA OVC008 M02/M03 A2991 RMK AO2 UPE02FZRAB02 SLP134 P0001 T10221033
0170743920146112010010111037+43900-069933FM-16+0023KNHZ V0200205N00365002445MN9999999N5-00205-00305999999ADDAA101000391AU128020015AW1655GA1085+002445999GD14991+0024459MA1101255100985REMMET08401/01/10 06:03:02 SPECI KNHZ 011103Z 02007KT FZRA OVC008 M02/M03 A2990 RMK AO2 P0001
0220743920146112010010111157+43900-069933FM-16+0023KNHZ V0200105N00365002445MN9999999N5-00205-00305999999ADDAA101000591AU110030015AW1715GA1075+002445999GA2085+004275999GD13991+0024459GD24991+0042759MA1101255100985REMMET10301/01/10 06:15:02 SPECI KNHZ 011115Z 01007KT -SN BKN008 OVC014 M02/M03 A2990 RMK AO2 FZRAE09SNB09 P0002
0325743920146112010010111567+43900-069933FM-15+0023KNHZ V0200205N00265002445MN9999999N5-00225-00335101335ADDAA101001595AA206002391AA324003891AU120030015AW1725GA1085+002445999GD14991+0024459KA1999M-00221KA2999N-00331MA1101255100985MD1640064+9999REMMET14201/01/10 06:56:02 METAR KNHZ 011156Z 02005KT SN OVC008 M02/M03 A2990 RMK AO2 FZRAE09SNB09 SLP133 P0006 60009 70015 T10221033 11022 21033 56006EQDQ01  00238PRCP06Q02  00388PRCP24
0224743920146112010010112567+43900-069933FM-15+0023KNHZ V0200205N00265002445MN9999999N5-00225-00285101335ADDAA101000025AU110030015AW1715GA1075+002445999GA2085+003355999GD13991+0024459GD24991+0033559MA1101255100985REMMET10701/01/10 07:56:02 METAR KNHZ 011256Z 02005KT -SN BKN008 OVC011 M02/M03 A2990 RMK AO2 SLP133 P0000 T10221028
0224743920146112010010113567+43900-069933FM-15+0023KNHZ V0200305N00265001835MN9999999N5-00175-00225101335ADDAA101000025AU110030015AW1715GA1075+001835999GA2085+003965999GD13991+0018359GD24991+0039659MA1101255100985REMMET10701/01/10 08:56:02 METAR KNHZ 011356Z 03005KT -SN BKN006 OVC013 M02/M02 A2990 RMK AO2 SLP133 P0000 T10171022
0207743920146112010010114457+43900-069933FM-16+0023KNHZ V0200305N00315001225MN9999999N5-00105-00105999999ADDAA101000021AU110030015AW1715GA1075+001225999GA2085+005795999GD13991+0012259GD24991+0057959MA1101255100985REMMET09001/01/10 09:45:02 SPECI KNHZ 011445Z 03006KT -SN BKN004 OVC019 M01/M01 A2990 RMK AO2 P0000
0186743920146112010010114546+43900-069933FM-16+0023KNHZ V0200405N00265005795MN9999999N5-00105-00105999999ADDGA1045+001225999GA2085+005795999GD12991+0012259GD24991+0057959MA1101255100985REMMET09701/01/10 09:54:02 SPECI KNHZ 011454Z 04005KT SCT004 OVC019 M01/M01 A2990 RMK AO2 SNE52 P0000 FIBI
0265743920146112010010114567+43900-069933FM-15+0023KNHZ V0200305N00265005795MN9999999N5-00065-00115101315ADDAA101000025AA203000021GA1025+001225999GA2085+005795999GD11991+0012259GD24991+0057959MA1101255100985MD1840024+9999REMMET12101/01/10 09:56:02 METAR KNHZ 011456Z 03005KT FEW004 OVC019 M01/M01 A2990 RMK AO2 SNE52 SLP131 P0000 60000 T10061011 58002EQDQ01  00008PRCP03
0233743920146112010010115157+43900-069933FM-16+0023KNHZ V0200405N00315003355MN9999999N5-00105-00105999999ADDAA101000021GA1045+001225999GA2075+003355999GA3085+005795999GD12991+0012259GD23991+0033559GD34991+0057959MA1101225100945REMMET10201/01/10 10:15:02 SPECI KNHZ 011515Z 04006KT SCT004 BKN011 OVC019 M01/M01 A2989 RMK AO2 SNB01E12 P0000
0232743920146112010010115267+43900-069933FM-16+0023KNHZ V0200405N00365001225MN9999999N5+00005-00105999999ADDAA101000021GA1075+001225999GA2075+003355999GA3085+005495999GD13991+0012259GD23991+0033559GD34991+0054959MA1101225100945REMMET10101/01/10 10:26:02 SPECI KNHZ 011526Z 04007KT BKN004 BKN011 OVC018 00/M01 A2989 RMK AO2 SNB01E12 P0000
0223743920146112010010115567+43900-069933FM-15+0023KNHZ V0200405N00315001225MN9999999N5+00005-00065101235ADDAA101000025GA1075+001225999GA2085+002745999GD13991+0012259GD24991+0027459MA1101155100885REMMET12301/01/10 10:56:02 METAR KNHZ 011556Z 04006KT BKN004 OVC009 00/M01 A2987 RMK AO2 SNB01E12 CIG 002V006 SLP123 P0000 T00001006
0179743920146112010010116127+43900-069933FM-16+0023KNHZ V0200405N00315003055MN9999999N5+00005+00005999999ADDGA1045+001225999GA2085+003055999GD12991+0012259GD24991+0030559MA1101155100885REMMET09001/01/10 11:12:02 SPECI KNHZ 011612Z 04006KT SCT004 OVC010 00/00 A2987 RMK AO2 CIG 003 R01
0179743920146112010010116237+43900-069933FM-16+0023KNHZ V0200405N00265002445MN9999999N5+00105+00005999999ADDGA1075+002445999GA2085+003965999GD13991+0024459GD24991+0039659MA1101125100845REMMET09001/01/10 11:23:02 SPECI KNHZ 011623Z 04005KT BKN008 OVC013 01/00 A2986 RMK AO2 CIG 003 R01
0240743920146112010010116567+43900-069933FM-15+0023KNHZ V0200405N00315001525MN9999999N5+00065+00005101145ADDAA101000025AU110030015AW1715GA1075+001525999GA2085+003055999GD13991+0015259GD24991+0030559MA1101085100815REMMET12301/01/10 11:56:02 METAR KNHZ 011656Z 04006KT -SN BKN005 OVC010 01/00 A2985 RMK AO2 SNB29 CIG 004V008 SLP114 P0000 T00060000
0316743920146112010010117567+43900-069933FM-15+0023KNHZ V0200305N00315002745MN9999999N5+00065+00005101135ADDAA101000025AA206000021AU110030015AW1715GA1045+001225999GA2085+002745999GD12991+0012259GD24991+0027459KA1999M+00061KA2999N-00221MA1101085100815MD1640184+9999REMMET12901/01/10 12:56:02 METAR KNHZ 011756Z 03006KT -SN SCT004 OVC009 01/00 A2985 RMK AO2 SLP113 P0000 60000 T00060000 10006 21022 56018EQDQ01  00008PRCP06
0196743920146112010010118567+43900-069933FM-15+0023KNHZ V0200305N00415001835MN9999999N5+00005+00005101055ADDAA101000025AU110030015AW1715GA1085+001835999GD14991+0018359MA1100985100715REMMET11001/01/10 13:56:02 METAR KNHZ 011856Z 03008KT -SN OVC006 00/00 A2982 RMK AO2 CIG 004V009 SLP105 P0000 T00000000
0229743920146112010010119467+43900-069933FM-16+0023KNHZ V0200405N00415004575MN9999999N5+00005-00105999999ADDAA101000021GA1045+002445999GA2075+004575999GA3085+005795999GD12991+0024459GD23991+0045759GD34991+0057959MA1101025100745REMMET09801/01/10 14:46:02 SPECI KNHZ 011946Z 04008KT SCT008 BKN015 OVC019 00/M01 A2983 RMK AO2 SNE34 P0000
0197743920146112010010119546+43900-069933FM-16+0023KNHZ V0200205N00415002445MN9999999N5+00005-00105999999ADDGA1075+002445999GA2085+004575999GD13991+0024459GD24991+0045759MA1101055100775REMMET10801/01/10 14:54:02 SPECI KNHZ 011954Z 02008KT BKN008 OVC015 00/M01 A2984 RMK AO2 SNE34 CIG 006V011 P0000 FIBI
0209743920146112010010119567+43900-069933FM-15+0023KNHZ V0200205N00365004575MN9999999N5-00065-00065101115ADDAA101000025GA1045+002445999GA2085+004575999GD12991+0024459GD24991+0045759MA1101055100775REMMET10901/01/10 14:56:02 METAR KNHZ 011956Z 02007KT SCT008 OVC015 M01/M01 A2984 RMK AO2 SNE34 SLP111 P0000 T10061006
0225743920146112010010120197+43900-069933FM-16+0023KNHZ V0200305N00265002445MN9999999N5-00105-00105999999ADDAA101000021AU110030015AW1715GA1075+002445999GA2085+004575999GD13991+0024459GD24991+0045759MA1101085100815REMMET10801/01/10 15:19:02 SPECI KNHZ 012019Z 03005KT -SN BKN008 OVC015 M01/M01 A2985 RMK AO2 SNB18 CIG 006V012 P0000
0251743920146112010010120307+43900-069933FM-16+0023KNHZ V0200405N00365004575MN9999999N5-00105-00105999999ADDAA101000021AU110030015AW1715GA1045+002445999GA2075+004575999GA3085+008235999GD12991+0024459GD23991+0045759GD34991+0082359MA1101055100775REMMET10301/01/10 15:30:02 SPECI KNHZ 012030Z 04007KT -SN SCT008 BKN015 OVC027 M01/M01 A2984 RMK AO2 SNB18 P0000
0213743920146112010010120407+43900-069933FM-16+0023KNHZ V0200305N00415003055MN9999999N5-00105-00205999999ADDAA101000021AU110030015AW1715GA1075+003055999GA2085+008235999GD13991+0030559GD24991+0082359MA1101055100775REMMET09601/01/10 15:40:02 SPECI KNHZ 012040Z 03008KT -SN BKN010 OVC027 M01/M02 A2984 RMK AO2 SNB18 P0000
0286743920146112010010120567+43900-069933FM-15+0023KNHZ V0200205N00415003055MN9999999N5-00115-00175101115ADDAA101000025AA203000021AU110030015AW1715GA1075+003055999GA2085+008235999GD13991+0030559GD24991+0082359MA1101055100775MD1540024+9999REMMET12501/01/10 15:56:02 METAR KNHZ 012056Z 02008KT -SN BKN010 OVC027 M01/M02 A2984 RMK AO2 SNB18 SLP111 P0000 60000 T10111017 55002EQDQ01  00008PRCP03
0245743920146112010010121187+43900-069933FM-16+0023KNHZ V0200105N00465002445MN9999999N5-00105-00205999999ADDAA101000021AU110030015AW1715GA1075+002445999GA2075+003665999GA3085+013415999GD13991+0024459GD23991+0036659GD34991+0134159MA1101055100775REMMET09701/01/10 16:18:02 SPECI KNHZ 012118Z 01009KT -SN BKN008 BKN012 OVC044 M01/M02 A2984 RMK AO2 P0000
0236743920146112010010121567+43900-069933FM-15+0023KNHZ V0200205N00515002135MN9999999N5-00175-00285101105ADDAA101000025AU110030015AW1715GA1075+002135999GA2085+003665999GD13991+0021359GD24991+0036659MA1101055100775REMMET11901/01/10 16:56:02 METAR KNHZ 012156Z 02010KT -SN BKN007 OVC012 M02/M03 A2984 RMK AO2 CIG 006V011 SLP110 P0000 T10171028
0245743920146112010010122107+43900-069933FM-16+0023KNHZ V0200105N00415003055MN9999999N5-00205-00305999999ADDAA101000021AU110030015AW1715GA1075+003055999GA2075+006715999GA3085+011285999GD13991+0030559GD23991+0067159GD34991+0112859MA1101025100745REMMET09701/01/10 17:10:02 SPECI KNHZ 012210Z 01008KT -SN BKN010 BKN022 OVC037 M02/M03 A2983 RMK AO2 P0000
0245743920146112010010122247+43900-069933FM-16+0023KNHZ V0200205N00365002445MN9999999N5-00205-00305999999ADDAA101000021AU110030015AW1715GA1075+002445999GA2075+005495999GA3085+014335999GD13991+0024459GD23991+0054959GD34991+0143359MA1101055100775REMMET09701/01/10 17:24:02 SPECI KNHZ 012224Z 02007KT -SN BKN008 BKN018 OVC047 M02/M03 A2984 RMK AO2 P0000
0201743920146112010010122546+43900-069933FM-16+0023KNHZ V0200105N00415003355MN9999999N5-00205-00305999999ADDAU110030015AW1715GA1045+002445999GA2085+003355999GD12991+0024459GD24991+0033559MA1101025100745REMMET09501/01/10 17:54:02 SPECI KNHZ 012254Z 01008KT -SN SCT008 OVC011 M02/M03 A2983 RMK AO2 P0000 FIBI
0224743920146112010010122567+43900-069933FM-15+0023KNHZ V0200205N00465003355MN9999999N5-00225-00335101085ADDAA101000025AU110030015AW1715GA1045+002445999GA2085+003355999GD12991+0024459GD24991+0033559MA1101025100745REMMET10701/01/10 17:56:02 METAR KNHZ 012256Z 02009KT -SN SCT008 OVC011 M02/M03 A2983 RMK AO2 SLP108 P0000 T10221033
0168743920146112010010123087+43900-069933FM-16+0023KNHZ V0200105N00415002745MN9999999N5-00305-00305999999ADDAA101000021AU120030015AW1725GA1085+002745999GD14991+0027459MA1101025100745REMMET08201/01/10 18:08:02 SPECI KNHZ 012308Z 01008KT SN OVC009 M03/M03 A2983 RMK AO2 P0000
0196743920146112010010123516+43900-069933FM-16+0023KNHZ V0200105N00515003355MN9999999N5-00305-00405999999ADDAU110030015AW1715GA1075+003355999GA2085+007625999GD13991+0033559GD24991+0076259MA1101025100745REMMET09001/01/10 18:51:02 SPECI KNHZ 012351Z 01010KT -SN BKN011 OVC025 M03/M04 A2983 RMK AO2 P0000
0318743920146112010010123567+43900-069933FM-15+0023KNHZ V0200205N00465003355MN9999999N5-00285-00395101075ADDAA101000025AA206000021AU110030015AW1715GA1075+003355999GA2085+007625999GD13991+0033559GD24991+0076259KA1999M+00061KA2999N-00281MA1101025100745MD1640034+9999REMMET13101/01/10 18:56:02 METAR KNHZ 012356Z 02009KT -SN BKN011 OVC025 M03/M04 A2983 RMK AO2 SLP107 P0000 60000 T10281039 10006 21028 56003EQDQ01  00008PRCP06
0207743920146112010010200057+43900-069933FM-16+0023KNHZ V0200205N00515007625MN9999999N5-00305-00405999999ADDAA101000021AU110030015AW1715GA1045+003355999GA2085+007625999GD12991+0033559GD24991+0076259MA1101025100745REMMET09001/01/10 19:05:01 SPECI KNHZ 020005Z 02010KT -SN SCT011 OVC025 M03/M04 A2983 RMK AO2 P0000
0239743920146112010010200526+43900-069933FM-16+0023KNHZ V0200205N00465003055MN9999999N5-00305-00405999999ADDAU110030015AW1715GA1025+002135999GA2075+003055999GA3085+009455999GD11991+0021359GD23991+0030559GD34991+0094559MA1100955100675REMMET10201/01/10 19:52:03 SPECI KNHZ 020052Z 02009KT -SN FEW007 BKN010 OVC031 M03/M04 A2981 RMK AO2 P0000 FIBI
0247743920146112010010200537+43900-069933FM-15+0023KNHZ V0200105N00465003055MN9999999N5-00335-00445101005ADDAA101000025GA1025+002135999GA2075+003055999GA3085+021345999GD11991+0021359GD23991+0030559GD34991+0213459MA1100955100675REMMET11601/01/10 19:53:01 METAR KNHZ 020053Z 01009KT FEW007 BKN010 OVC070 M03/M04 A2981 RMK AO2 SNE53 SLP100 P0000 T10331044
0251743920146112010010201537+43900-069933FM-16+0023KNHZ V0200105N00575006715MN9999999N5-00405-00505999999ADDAA101000021AU110030015AW1715GA1045+003665999GA2075+006715999GA3085+010975999GD12991+0036659GD23991+0067159GD34991+0109759MA1100855100575REMMET10301/01/10 20:53:01 SPECI KNHZ 020153Z 01011KT -SN SCT012 BKN022 OVC036 M04/M05 A2978 RMK AO2 SNB04 P0000
0268743920146112010010201567+43900-069933FM-15+0023KNHZ V0200105N00515006715MN9999999N5-00395-00505100925ADDAA101000025AU110030015AW1715GA1045+003665999GA2075+006715999GA3085+019815999GD12991+0036659GD23991+0067159GD34991+0198159MA1100855100575REMMET12001/01/10 20:56:01 METAR KNHZ 020156Z 01010KT -SN SCT012 BKN022 OVC065 M04/M05 A2978 RMK AO2 SNB04 SLP092 P0000 T10391050
0257743920146112010010202307+43900-069933FM-16+0023KNHZ V0200205N00465018295MN9999999N5-00405-00605999999ADDAA101000021AU110030015AW1715GA1025+003665999GA2045+006715999GA3085+018295999GD11991+0036659GD22991+0067159GD34991+0182959MA1100815100545REMMET10901/01/10 21:30:01 SPECI KNHZ 020230Z 02009KT -SN FEW012 SCT022 OVC060 M04/M06 A2977 RMK AO2 CIG 022 R01 P0000
0256743920146112010010202477+43900-069933FM-16+0023KNHZ V0200205N00515006715MN9999999N5-00405-00605999999ADDAA101000021AU110030015AW1715GA1025+003665999GA2075+006715999GA3085+018295999GD11991+0036659GD23991+0067159GD34991+0182959MA1100785100505OC100935REMMET10001/01/10 21:47:01 SPECI KNHZ 020247Z 02010G18KT -SN FEW012 BKN022 OVC060 M04/M06 A2976 RMK AO2 P0000
0318743920146112010010202567+43900-069933FM-15+0023KNHZ V0200205N00515006715MN9999999N5-00445-00565100855ADDAA101000025AA203000021AU110030015AW1715GA1025+003665999GA2075+006715999GA3085+018295999GD11991+0036659GD23991+0067159GD34991+0182959MA1100785100505MD1740084+9999REMMET12601/01/10 21:56:01 METAR KNHZ 020256Z 02010KT -SN FEW012 BKN022 OVC060 M04/M06 A2976 RMK AO2 SLP085 P0000 60000 T10441056 57008EQDQ01  00008PRCP03
0227743920146112010010203457+43900-069933FM-16+0023KNHZ V0200205N00515015245MN9999999N5-00405-00605999999ADDAA101000021AU110030015AW1715GA1025+003665999GA2085+015245999GD11991+0036659GD24991+0152459MA1100755100475OC100825REMMET10201/01/10 22:45:01 SPECI KNHZ 020345Z 02010G16KT -SN FEW012 OVC050 M04/M06 A2975 RMK AO2 SNE06B41 P0000
0233743920146112010010203567+43900-069933FM-15+0023KNHZ V0200205N00575016765MN9999999N5-00445-00615100805ADDAA101000025AU110030015AW1715GA1025+003665999GA2085+016765999GD11991+0036659GD24991+0167659MA1100755100475REMMET11601/01/10 22:56:01 METAR KNHZ 020356Z 02011KT -SN FEW012 OVC055 M04/M06 A2975 RMK AO2 SNE06B41 SLP080 P0000 T10441061
0243743920146112010010204567+43900-069933FM-15+0023KNHZ V0200205N00465011285MN9999999N5-00505-00675100695ADDAA101000025AU110030015AW1715GA1075+011285999GA2085+015245999GD13991+0112859GD24991+0152459MA1100645100375REMMET12601/01/10 23:56:01 METAR KNHZ 020456Z 02009KT -SN BKN037 OVC050 M05/M07 A2972 RMK AO2 SNE04B43 SLP069 P0000 T10501067 400061050
0907743920146112010010204596+43900-069933SOD  +0023KNHZ V020999999999999999999999999999+99999+99999999999ADDAA124002395KA1240M+00065KA2240N-00495MG1100954100684OE11240093936021445OE22240071501021445OE33240039899999995REMSOD75124 HR PRECIPITATION (IN):0.09  24 HR MAX TEMP (F):33 24 HR MAX TEMP TIME (LST):1331 24 HR MIN TEMP (F):23 24 HR MIN TEMP TIME (LST):2359 AVERAGE STATION PRESSURE:29.810 MINIMUM SEA LEVEL PRESSURE:29.73 TIME OF OCCURRENCE:2359 PEAK WIND SPEED (MPH):21  PEAK WIND DIR (DEG):360 PEAK WIND TIME (LST):2144  FASTEST 2MIN SPEED (MPH):16 FASTEST 2MIN DIR (DEG):10  FASTEST 2MIN TIME (LST):2144 AVERAGE WIND SPEED (MPH):8.9  24 HR AVG TEMP (F):28 DEPART FROM NORMAL: +6  HEATING DEGREE DAYS:37  COOLING DEGREE DAYS:0   LATEST DAY MAX TEMP (0700-1900 LST):33  LATEST NIGHT MIN TEMP(1900-0800 LST):23 HOURLY INCREMENTAL PRECIPITATION VALUES (IN):    T    T    T    0.02 0.01 0.06 T    T    T    T    T    T    T    T    T    T    T    T    T    T    T    T    TEQDR01     N7GJS072R02     N7GKS075
0280743920146112010010205567+43900-069933FM-15+0023KNHZ V0200105N00465011895MN9999999N5-00565-00675100605ADDAA101000025AA206000021AU110030015AW1715GA1085+011895999GD14991+0118959KA1999M-00281KA2999N-00561MA1100545100275MD1840244+9999REMMET12401/02/10 00:56:02 METAR KNHZ 020556Z 01009KT -SN OVC039 M06/M07 A2969 RMK AO2 SLP060 P0000 60000 T10561067 11028 21056 58024EQDQ01  00008PRCP06
0274743920146112010010206567+43900-069933FM-15+0023KNHZ V0200205N00515011895MN9999999N5-00505-00725100635ADDAA101000025AU110030015AW1715GA1025+007925999GA2075+011895999GA3085+014025999GD11991+0079259GD23991+0118959GD34991+0140259MA1100585100305REMMET12601/02/10 01:56:02 METAR KNHZ 020656Z 02010KT -SN FEW026 BKN039 OVC046 M05/M07 A2970 RMK AO2 CIG 025 R01 SLP063 P0000 T10501072
0226743920146112010010207567+43900-069933FM-15+0023KNHZ V0200205N00575011285MN9999999N5-00565-00675100595ADDAA101000025AU110030015AW1715GA1075+011285999GA2085+014025999GD13991+0112859GD24991+0140259MA1100545100275REMMET10901/02/10 02:56:02 METAR KNHZ 020756Z 02011KT -SN BKN037 OVC046 M06/M07 A2969 RMK AO2 SLP059 P0000 T10561067 $
0331743920146112010010208567+43900-069933FM-15+0023KNHZ V0200205N00575011895MN9999999N5-00565-00675100495ADDAA101000025AA203000021AU110030015AW1715GA1025+007625999GA2075+011895999GA3085+015245999GD11991+0076259GD23991+0118959GD34991+0152459MA1100445100175MD1840124+9999OC101035REMMET13101/02/10 03:56:02 METAR KNHZ 020856Z 02011G20KT -SN FEW025 BKN039 OVC050 M06/M07 A2966 RMK AO2 SLP049 P0000 60000 T10561067 58012 $EQDQ01  00008PRCP03
0226743920146112010010209567+43900-069933FM-15+0023KNHZ V0200105N00465012195MN9999999N5-00565-00725100415ADDAA101000025AU110030015AW1715GA1075+012195999GA2085+024385999GD13991+0121959GD24991+0243859MA1100345100065REMMET10901/02/10 04:56:02 METAR KNHZ 020956Z 01009KT -SN BKN040 OVC080 M06/M07 A2963 RMK AO2 SLP041 P0000 T10561072 $
0241743920146112010010210546+43900-069933FM-16+0023KNHZ V0200105N00575007015MN9999999N5-00605-00705999999ADDAU110030015AW1715GA1025+003965999GA2075+007015999GA3085+010975999GD11991+0039659GD23991+0070159GD34991+0109759MA1100305100035REMMET10401/02/10 05:54:02 SPECI KNHZ 021054Z 01011KT -SN FEW013 BKN023 OVC036 M06/M07 A2962 RMK AO2 P0000 $ FIBI
0275743920146112010010210567+43900-069933FM-15+0023KNHZ V0200105N00575006405MN9999999N5-00565-00725100355ADDAA101000025AU110030015AW1715GA1025+003965999GA2075+006405999GA3085+010975999GD11991+0039659GD23991+0064059GD34991+0109759MA1100305100035OC100885REMMET11901/02/10 05:56:02 METAR KNHZ 021056Z 01011G17KT -SN FEW013 BKN021 OVC036 M06/M07 A2962 RMK AO2 SLP035 P0000 T10561072 $
0181743920146112010010211137+43900-069933FM-16+0023KNHZ V0200105N00465003355MN9999999N5-00605-00705999999ADDAA101000021AU120030015AW1725GA1085+003355999GD14991+0033559MA1100275100005OC100825REMMET08701/02/10 06:13:02 SPECI KNHZ 021113Z 01009G16KT SN OVC011 M06/M07 A2961 RMK AO2 P0000 $
0170743920146112010010211247+43900-069933FM-16+0023KNHZ V0200105N00625002135MN9999999N5-00605-00705999999ADDAA101000021AU120030015AW1725GA1085+002135999GD14991+0021359MA1100275100005REMMET08401/02/10 06:24:02 SPECI KNHZ 021124Z 01012KT SN OVC007 M06/M07 A2961 RMK AO2 P0000 $
0281743920146112010010211567+43900-069933FM-15+0023KNHZ V0200105N00465001525MN9999999N5-00565-00725100315ADDAA101000025AA206000021AU120030015AW1725GA1085+001525999GD14991+0015259KA1999M-00501KA2999N-00561MA1100245099965MD1640184+9999REMMET12501/02/10 06:56:02 METAR KNHZ 021156Z 01009KT SN OVC005 M06/M07 A2960 RMK AO2 SLP031 P0000 60000 T10561072 11050 21056 56018 $EQDQ01  00008PRCP06
0187743920146112010010212567+43900-069933FM-15+0023KNHZ V0203605N00575003355MN9999999N5-00565-00725100245ADDAA101000025AU120030015AW1725GA1085+003355999GD14991+0033559MA1100175099905REMMET10101/02/10 07:56:02 METAR KNHZ 021256Z 36011KT SN OVC011 M06/M07 A2958 RMK AO2 SLP024 P0000 T10561072 $
0170743920146112010010213217+43900-069933FM-16+0023KNHZ V0200105N00625002745MN9999999N5-00605-00705999999ADDAA101000021AU120030015AW1725GA1085+002745999GD14991+0027459MA1100145099865REMMET08401/02/10 08:21:02 SPECI KNHZ 021321Z 01012KT SN OVC009 M06/M07 A2957 RMK AO2 P0000 $
0188743920146112010010213567+43900-069933FM-15+0023KNHZ V0203605N00675003355MN9999999N5-00565-00725100175ADDAA101000025AU110030015AW1715GA1085+003355999GD14991+0033559MA1100105099835REMMET10201/02/10 08:56:02 METAR KNHZ 021356Z 36013KT -SN OVC011 M06/M07 A2956 RMK AO2 SLP017 P0000 T10561072 $
0244743920146112010010214567+43900-069933FM-15+0023KNHZ V0200205N00575003355MN9999999N5-00505-00675100105ADDAA101000025AA203000021AU110030015AW1715GA1085+003355999GD14991+0033559MA1100035099765MD1640214+9999REMMET11401/02/10 09:56:02 METAR KNHZ 021456Z 02011KT -SN OVC011 M05/M07 A2954 RMK AO2 SLP010 P0000 60000 T10501067 56021 $EQDQ01  00008PRCP03
0199743920146112010010215567+43900-069933FM-15+0023KNHZ V0203605N00575003355MN9999999N5-00505-00675099975ADDAA101000025AU110030015AW1715GA1085+003355999GD14991+0033559MA1099905099635OC100985REMMET10501/02/10 10:56:02 METAR KNHZ 021556Z 36011G19KT -SN OVC011 M05/M07 A2950 RMK AO2 SLP997 P0000 T10501067 $
0171743920146112010010216107+43900-069933FM-16+0023KNHZ V0203605N00725002745MN9999999N5-00405-00705999999ADDAA101000021AU110030015AW1715GA1085+002745999GD14991+0027459MA1099865099595REMMET08501/02/10 11:10:02 SPECI KNHZ 021610Z 36014KT -SN OVC009 M04/M07 A2949 RMK AO2 P0000 $
0220743920146112010010216487+43900-069933FM-16+0023KNHZ V0203605N00625003355MN9999999N5-00405-00705999999ADDAA101000021AU110030015AW1715GA1075+003355999GA2085+005185999GD13991+0033559GD24991+0051859MA1099805099525OC101035REMMET09501/02/10 11:48:02 SPECI KNHZ 021648Z 36012G20KT -SN BKN011 OVC017 M04/M07 A2947 RMK AO2 P0000 $
0226743920146112010010216567+43900-069933FM-15+0023KNHZ V0203605N00625003355MN9999999N5-00445-00675099835ADDAA101000025AU110030015AW1715GA1075+003355999GA2085+005185999GD13991+0033559GD24991+0051859MA1099765099495REMMET10901/02/10 11:56:02 METAR KNHZ 021656Z 36012KT -SN BKN011 OVC017 M04/M07 A2946 RMK AO2 SLP983 P0000 T10441067 $
0220743920146112010010217497+43900-069933FM-16+0023KNHZ V0203605N00625002745MN9999999N5-00405-00605999999ADDAA101000021AU110030015AW1715GA1075+002745999GA2085+004885999GD13991+0027459GD24991+0048859MA1099705099425OC100985REMMET09501/02/10 12:49:02 SPECI KNHZ 021749Z 36012G19KT -SN BKN009 OVC016 M04/M06 A2944 RMK AO2 P0000 $
0331743920146112010010217567+43900-069933FM-15+0023KNHZ V0203505N00675002745MN9999999N5-00445-00615099745ADDAA101000025AA206000021AU110030015AW1715GA1075+002745999GA2085+004885999GD13991+0027459GD24991+0048859KA1999M-00441KA2999N-00561MA1099665099395MD1640374+9999OC100985REMMET13601/02/10 12:56:02 METAR KNHZ 021756Z 35013G19KT -SN BKN009 OVC016 M04/M06 A2943 RMK AO2 SLP974 P0000 60000 T10441061 11044 21056 56037 $EQDQ01  00008PRCP06
0198743920146112010010218567+43900-069933FM-15+0023KNHZ V0203505N00515002135MN9999999N5-00445-00615099635ADDAA101000025AU120030015AW1725GA1085+002135999GD14991+0021359MA1099565099295OC101035REMMET10401/02/10 13:56:02 METAR KNHZ 021856Z 35010G20KT SN OVC007 M04/M06 A2940 RMK AO2 SLP963 P0000 T10441061 $
0187743920146112010010219567+43900-069933FM-15+0023KNHZ V0203505N00625001525MN9999999N5-00445-00615099565ADDAA101000025AU120030015AW1725GA1085+001525999GD14991+0015259MA1099495099225REMMET10101/02/10 14:56:02 METAR KNHZ 021956Z 35012KT SN OVC005 M04/M06 A2938 RMK AO2 SLP956 P0000 T10441061 $
0181743920146112010010220117+43900-069933FM-16+0023KNHZ V0203405N00825000915MN9999999N5-00405-00605999999ADDAA101000021AU120030015AW1725GA1085+000915999GD14991+0009159MA1099495099225OC101085REMMET08701/02/10 15:11:02 SPECI KNHZ 022011Z 34016G21KT SN OVC003 M04/M06 A2938 RMK AO2 P0000 $
0254743920146112010010220567+43900-069933FM-15+0023KNHZ V0203405N00825001525MN9999999N5-00445-00615099485ADDAA101000025AA203000021AU120030015AW1725GA1085+001525999GD14991+0015259MA1099425099155MD1640264+9999OC101245REMMET11601/02/10 15:56:02 METAR KNHZ 022056Z 34016G24KT SN OVC005 M04/M06 A2936 RMK AO2 SLP948 P0000 60000 T10441061 56026 $EQDQ01  00008PRCP03
0198743920146112010010221567+43900-069933FM-15+0023KNHZ V0203305N00775001525MN9999999N5-00445-00565099365ADDAA101000025AU120030015AW1725GA1085+001525999GD14991+0015259MA1099295099025OC101295REMMET10401/02/10 16:56:02 METAR KNHZ 022156Z 33015G25KT SN OVC005 M04/M06 A2932 RMK AO2 SLP936 P0000 T10441056 $
0236743920146112010010222567+43900-069933FM-15+0023KNHZ V0203305N00675001525MN9999999N5-00395-00565099225ADDAA101000025AU120030015AW1725GA1075+001525999GA2085+004575999GD13991+0015259GD24991+0045759MA1099155098885OC100985REMMET11101/02/10 17:56:02 METAR KNHZ 022256Z 33013G19KT SN BKN005 OVC015 M04/M06 A2928 RMK AO2 SLP922 P0000 T10391056 $
0292743920146112010010223567+43900-069933FM-15+0023KNHZ V0203205N00825002135MN9999999N5-00445-00615099075ADDAA101000025AA206000021AU120030015AW1725GA1085+002135999GD14991+0021359KA1999M-00391KA2999N-00441MA1099025098755MD1840414+9999OC101135REMMET12801/02/10 18:56:02 METAR KNHZ 022356Z 32016G22KT SN OVC007 M04/M06 A2924 RMK AO2 SLP907 P0000 60000 T10441061 11039 21044 58041 $EQDQ01  00008PRCP06
0206743920146112010010300567+43900-069933FM-15+0023KNHZ V0203305N00675001525MN9999999N5-00445-00615098895ADDAA101000025AU130030015AW1735GA1085+001525999GD14991+0015259MA1098815098545OC101085REMMET11201/02/10 19:56:01 METAR KNHZ 030056Z 33013G21KT +SN OVC005 M04/M06 A2918 RMK AO2 PRESFR SLP889 P0000 T10441061 $
0254743920146112010010301567+43900-069933FM-15+0023KNHZ V0203205N00885002745MN9999999N5-00445-00615098645ADDAA101000025AU120030015AW1725GA1075+002745999GA2085+005185999GD13991+0027459GD24991+0051859MA1098585098315OC101185REMMET12901/02/10 20:56:01 METAR KNHZ 030156Z 32017G23KT SN BKN009 OVC017 M04/M06 A2911 RMK AO2 PK WND 32027/0113 SLP864 P0000 T10441061 $
0238743920146112010010302377+43900-069933FM-16+0023KNHZ V0203205N00935000915MN9999999N5-00405-00605999999ADDAA101000021AU130030015AW1735GA1075+000915999GA2085+003665999GD13991+0009159GD24991+0036659MA1098445098175OC101395REMMET11301/02/10 21:37:01 SPECI KNHZ 030237Z 32018G27KT +SN BKN003 OVC012 M04/M06 A2907 RMK AO2 PK WND 32029/0201 P0000 $
0327743920146112010010302567+43900-069933FM-15+0023KNHZ V0203205N00985000915MN9999999N5-00445-00615098445ADDAA101000025AA203000021AU130030015AW1735GA1075+000915999GA2085+003665999GD13991+0009159GD24991+0036659MA1098375098105MD1840634+9999OC101495REMMET14201/02/10 21:56:01 METAR KNHZ 030256Z 32019G29KT +SN BKN003 OVC012 M04/M06 A2905 RMK AO2 PK WND 33029/0254 SLP844 P0000 60000 T10441061 58063 $EQDQ01+000632APC3  Q02  00008PRCP03
0255743920146112010010303567+43900-069933FM-15+0023KNHZ V0203305N00885000915MN9999999N5-00445-00615098265ADDAA101000025AU130030015AW1735GA1075+000915999GA2085+004275999GD13991+0009159GD24991+0042759MA1098215097945OC101445REMMET13001/02/10 22:56:01 METAR KNHZ 030356Z 33017G28KT +SN BKN003 OVC014 M04/M06 A2900 RMK AO2 PK WND 32030/0307 SLP826 P0000 T10441061 $
0199743920146112010010304487+43900-069933FM-16+0023KNHZ V0203205N00935002135MN9999999N5-00605-00705999999ADDAA101000021AU120030015AW1725GA1085+002135999GD14991+0021359MA1098045097775OC101495REMMET10501/02/10 23:48:01 SPECI KNHZ 030448Z 32018G29KT SN OVC007 M06/M07 A2895 RMK AO2 PK WND 31031/0438 P0000 $
0226743920146112010010304567+43900-069933FM-15+0023KNHZ V0203205N01035002135MN9999999N5-00565-00725098075ADDAA101000025AU120030015AW1725GA1085+002135999GD14991+0021359MA1098005097735OC101545REMMET13201/02/10 23:56:01 METAR KNHZ 030456Z 32020G30KT SN OVC007 M06/M07 A2894 RMK AO2 PK WND 31031/0438 SLP807 P0000 T10561072 410391056 $
0907743920146112010010304596+43900-069933SOD  +0023KNHZ V020999999999999999999999999999+99999+99999999999ADDAA124000025KA1240M-00385KA2240N-00555MG1099594098074OE11240160931023385OE22240125231023465OE33240066699999995REMSOD75124 HR PRECIPITATION (IN):T     24 HR MAX TEMP (F):25 24 HR MAX TEMP TIME (LST):1817 24 HR MIN TEMP (F):22 24 HR MIN TEMP TIME (LST):2359 AVERAGE STATION PRESSURE:29.410 MINIMUM SEA LEVEL PRESSURE:28.96 TIME OF OCCURRENCE:2359 PEAK WIND SPEED (MPH):36  PEAK WIND DIR (DEG):310 PEAK WIND TIME (LST):2338  FASTEST 2MIN SPEED (MPH):28 FASTEST 2MIN DIR (DEG):310 FASTEST 2MIN TIME (LST):2346 AVERAGE WIND SPEED (MPH):14.9 24 HR AVG TEMP (F):24 DEPART FROM NORMAL: +2  HEATING DEGREE DAYS:41  COOLING DEGREE DAYS:0   LATEST DAY MAX TEMP (0700-1900 LST):25  LATEST NIGHT MIN TEMP(1900-0800 LST):22 HOURLY INCREMENTAL PRECIPITATION VALUES (IN):    T    T    T    T    T    T    T    T    T    T    T    T    T    T    T    T    T    T    T    T    T    T    TEQDR01     N7GJS072R02     N7GKS075
0310743920146112010010305567+43900-069933FM-15+0023KNHZ V0203305N00885002745MN9999999N5-00565-00725097995ADDAA101000025AA206000021AU120030015AW1725GA1085+002745999GD14991+0027459KA1999M-00441KA2999N-00561MA1097935097675MD1640454+9999OC101445REMMET14601/03/10 00:56:02 METAR KNHZ 030556Z 33017G28KT SN OVC009 M06/M07 A2892 RMK AO2 PK WND 32031/0540 SLP799 P0000 60000 T10561072 11044 21056 56045 $EQDQ01  00008PRCP06
0199743920146112010010306047+43900-069933FM-16+0023KNHZ V0203205N00935003355MN9999999N5-00605-00805999999ADDAA101000021AU120030015AW1725GA1085+003355999GD14991+0033559MA1097935097675OC101395REMMET10501/03/10 01:04:02 SPECI KNHZ 030604Z 32018G27KT SN OVC011 M06/M08 A2892 RMK AO2 PK WND 32027/0557 P0000 $
0199743920146112010010306127+43900-069933FM-16+0023KNHZ V0203205N01035002745MN9999999N5-00605-00705999999ADDAA101000021AU120030015AW1725GA1085+002745999GD14991+0027459MA1097905097635OC101445REMMET10501/03/10 01:12:02 SPECI KNHZ 030612Z 32020G28KT SN OVC009 M06/M07 A2891 RMK AO2 PK WND 31028/0609 P0000 $
0254743920146112010010306567+43900-069933FM-15+0023KNHZ V0203205N01035002135MN9999999N5-00565-00725097945ADDAA101000025AU120030015AW1725GA1075+002135999GA2085+004575999GD13991+0021359GD24991+0045759MA1097875097605OC101495REMMET12901/03/10 01:56:02 METAR KNHZ 030656Z 32020G29KT SN BKN007 OVC015 M06/M07 A2890 RMK AO2 PK WND 32031/0646 SLP794 P0000 T10561072 $
0254743920146112010010307567+43900-069933FM-15+0023KNHZ V0203205N00935001525MN9999999N5-00505-00725097915ADDAA101000025AU120030015AW1725GA1075+001525999GA2085+004885999GD13991+0015259GD24991+0048859MA1097875097605OC101395REMMET12901/03/10 02:56:02 METAR KNHZ 030756Z 32018G27KT SN BKN005 OVC016 M05/M07 A2890 RMK AO2 PK WND 31031/0711 SLP791 P0000 T10501072 $
0273743920146112010010308567+43900-069933FM-15+0023KNHZ V0203205N00885002745MN9999999N5-00505-00725097915ADDAA101000025AA203000021AU110030015AW1715GA1085+002745999GD14991+0027459MA1097875097605MD1640074+9999OC101495REMMET13501/03/10 03:56:02 METAR KNHZ 030856Z 32017G29KT -SN OVC009 M05/M07 A2890 RMK AO2 PK WND 32029/0848 SLP791 P0000 60000 T10501072 56007 $EQDQ01  00008PRCP03
0200743920146112010010309037+43900-069933FM-16+0023KNHZ V0203305N00935003965MN9999999N5-00505-00705999999ADDAA101000021AU110030015AW1715GA1085+003965999GD14991+0039659MA1097875097605OC101345REMMET10601/03/10 04:03:02 SPECI KNHZ 030903Z 33018G26KT -SN OVC013 M05/M07 A2890 RMK AO2 PK WND 32026/0857 P0000 $
0238743920146112010010309157+43900-069933FM-16+0023KNHZ V0203305N00775005185MN9999999N5-00505-00705999999ADDAA101000021AU110030015AW1715GA1075+005185999GA2085+011585999GD13991+0051859GD24991+0115859MA1097875097605OC101135REMMET11301/03/10 04:15:02 SPECI KNHZ 030915Z 33015G22KT -SN BKN017 OVC038 M05/M07 A2890 RMK AO2 PK WND 32026/0857 P0000 $
0255743920146112010010309567+43900-069933FM-15+0023KNHZ V0203305N00575007625MN9999999N5-00505-00675097955ADDAA101000025AU110030015AW1715GA1075+007625999GA2085+010975999GD13991+0076259GD24991+0109759MA1097905097635OC100885REMMET13001/03/10 04:56:02 METAR KNHZ 030956Z 33011G17KT -SN BKN025 OVC036 M05/M07 A2891 RMK AO2 PK WND 32026/0857 SLP795 P0000 T10501067 $
0237743920146112010010310567+43900-069933FM-15+0023KNHZ V0203505N00465004575MN9999999N5-00395-00565098045ADDAA101000025AU110030015AW1715GA1075+004575999GA2085+006105999GD13991+0045759GD24991+0061059MA1097975097705OC100825REMMET11201/03/10 05:56:02 METAR KNHZ 031056Z 35009G16KT -SN BKN015 OVC020 M04/M06 A2893 RMK AO2 SLP804 P0000 T10391056 $
0209743920146112010010311087+43900-069933FM-16+0023KNHZ V0203405N00465003965MN9999999N5-00405-00505999999ADDAA101000021AU110030015AW1715GA1075+003965999GA2085+006105999GD13991+0039659GD24991+0061059MA1098005097735REMMET09201/03/10 06:08:02 SPECI KNHZ 031108Z 34009KT -SN BKN013 OVC020 M04/M05 A2894 RMK AO2 P0000 $
0294743920146112010010311567+43900-069933FM-15+0023KNHZ V0203405N00415003055MN9999999N5-00285-00395098135ADDAA101000025AA206000021AU110030015AW1715GA1085+003055999GD14991+0030559KA1999M-00281KA2999N-00561MA1098075097805MD1340214+9999REMMET13801/03/10 06:56:02 METAR KNHZ 031156Z 34008KT -SN OVC010 M03/M04 A2896 RMK AO2 CIG 008V013 SLP813 P0000 60000 T10281039 11028 21056 53021 $EQDQ01  00008PRCP06
0183743920146112010010312567+43900-069933FM-15+0023KNHZ V0200205N00515004275MN9999999N5+00115-00065098255ADDAA101000025GA1085+004275999GD14991+0042759MA1098175097905OC100885REMMET10601/03/10 07:56:02 METAR KNHZ 031256Z 02010G17KT OVC014 01/M01 A2899 RMK AO2 SNE28 SLP825 P0000 T00111006 $
0231743920146112010010313567+43900-069933FM-15+0023KNHZ V0200205N00575003355MN9999999N5+00115+00005098405ADDAA101000025GA1075+003355999GA2085+005795999GD13991+0033559GD24991+0057959MA1098345098075OC100985REMMET12301/03/10 08:56:02 METAR KNHZ 031356Z 02011G19KT BKN011 OVC019 01/00 A2904 RMK AO2 UPB38E51SNB37E38 SLP840 P0000 T00110000 $
0180743920146112010010314007+43900-069933FM-16+0023KNHZ V0200205N00575004575MN9999999N5+00105+00005999999ADDGA1025+002745999GA2085+004575999GD11991+0027459GD24991+0045759MA1098345098075OC100935REMMET08301/03/10 09:00:02 SPECI KNHZ 031400Z 02011G18KT FEW009 OVC015 01/00 A2904 RMK AO2 $
0218743920146112010010314077+43900-069933FM-16+0023KNHZ V0200205N00465003965MN9999999N5+00105+00005999999ADDGA1075+003965999GA2075+005495999GA3085+007625999GD13991+0039659GD23991+0054959GD34991+0076259MA1098375098105OC100935REMMET09001/03/10 09:07:02 SPECI KNHZ 031407Z 02009G18KT BKN013 BKN018 OVC025 01/00 A2905 RMK AO2 $
0218743920146112010010314157+43900-069933FM-16+0023KNHZ V0200105N00625004575MN9999999N5+00105+00005999999ADDGA1025+003055999GA2075+004575999GA3085+007625999GD11991+0030559GD23991+0045759GD34991+0076259MA1098375098105OC100885REMMET09001/03/10 09:15:02 SPECI KNHZ 031415Z 01012G17KT FEW010 BKN015 OVC025 01/00 A2905 RMK AO2 $
0180743920146112010010314417+43900-069933FM-16+0023KNHZ V0200105N007252200059N9999999N5+00205+00005999999ADDGA1045+005185999GA2045+012805999GD12991+0051859GD22991+0128059MA1098415098145OC101085REMMET08301/03/10 09:41:02 SPECI KNHZ 031441Z 01014G21KT SCT017 SCT042 02/00 A2906 RMK AO2 $
0283743920146112010010314567+43900-069933FM-15+0023KNHZ V0200105N00725016765MN9999999N5+00175+00005098505ADDAA101000095AA203000021GA1025+004575999GA2045+014335999GA3075+016765999GD11991+0045759GD22991+0143359GD33991+0167659MA1098445098175MD1140384+9999OC101135REMMET11901/03/10 09:56:02 METAR KNHZ 031456Z 01014G22KT FEW015 SCT047 BKN055 02/00 A2907 RMK AO2 SLP850 60000 T00170000 51038 $
0295743920146112010010315567+43900-069933FM-15+0023KNHZ V0200205N00515010675MN9999999N5+00175+00005098535ADDAA101000025AU110030015AW1715GA1025+006715999GA2075+010675999GA3075+014635999GD11991+0067159GD23991+0106759GD33991+0146359MA1098485098215OC101185REMMET13901/03/10 10:56:02 METAR KNHZ 031556Z 02010G23KT -SN FEW022 BKN035 BKN048 02/00 A2908 RMK AO2 RAB49E50UPB50E53SNB53 SLP853 P0000 T00170000 $
0245743920146112010010316087+43900-069933FM-16+0023KNHZ V0200305N00415007325MN9999999N5+00205+00105999999ADDAA101000021AU110030015AW1715GA1045+003965999GA2075+007325999GA3085+010975999GD12991+0039659GD23991+0073259GD34991+0109759MA1098485098215REMMET09701/03/10 11:08:02 SPECI KNHZ 031608Z 03008KT -SN SCT013 BKN024 OVC036 02/01 A2908 RMK AO2 P0000 $
0261743920146112010010316207+43900-069933FM-16+0023KNHZ V0200205N00265003355MN9999999N5+00205+00105999999ADDAA101000021AU120090015AW1401AW2415GA1075+003355999GA2075+005185999GA3085+007015999GD13991+0033559GD23991+0051859GD34991+0070159MA1098485098215REMMET10701/03/10 11:20:02 SPECI KNHZ 031620Z 02005KT UP BKN011 BKN017 OVC023 02/01 A2908 RMK AO2 UPB15SNE15 P0000 $
0246743920146112010010316427+43900-069933FM-16+0023KNHZ V0200105N00515003665MN9999999N5+00205+00105999999ADDAA101000021GA1025+002445999GA2075+003665999GA3085+007325999GD11991+0024459GD23991+0036659GD34991+0073259MA1098485098215REMMET11501/03/10 11:42:02 SPECI KNHZ 031642Z 01010KT FEW008 BKN012 OVC024 02/01 A2908 RMK AO2 UPB15E38RAB38E39SNE15 P0000 $
0263743920146112010010316546+43900-069933FM-16+0023KNHZ V0200105N00575007625MN9999999N5+00205+00105999999ADDGA1045+003055999GA2075+007625999GA3085+014635999GD12991+0030559GD23991+0076259GD34991+0146359MA1098485098215OC100885REMMET13501/03/10 11:54:02 SPECI KNHZ 031654Z 01011G17KT SCT010 BKN025 OVC048 02/01 A2908 RMK AO2 UPB15E38RAB38E39SNE15 CIG 012 R01 P0000 $ FIBI
0286743920146112010010316567+43900-069933FM-15+0023KNHZ V0200105N00625007625MN9999999N5+00225+00065098535ADDAA101000025GA1045+003055999GA2075+007625999GA3085+014635999GD12991+0030559GD23991+0076259GD34991+0146359MA1098485098215OC100885REMMET14701/03/10 11:56:02 METAR KNHZ 031656Z 01012G17KT SCT010 BKN025 OVC048 02/01 A2908 RMK AO2 UPB15E38RAB38E39SNE15 CIG 012 R01 SLP853 P0000 T00220006 $
0180743920146112010010317147+43900-069933FM-16+0023KNHZ V0200105N00415004275MN9999999N5+00205+00105999999ADDGA1075+004275999GA2085+007625999GD13991+0042759GD24991+0076259MA1098485098215OC100825REMMET08301/03/10 12:14:02 SPECI KNHZ 031714Z 01008G16KT BKN014 OVC025 02/01 A2908 RMK AO2 $
0221743920146112010010317477+43900-069933FM-16+0023KNHZ V0200105N00515002745MN9999999N5+00205+00105999999ADDAA101000021AU110020015AW1615GA1075+002745999GA2085+004275999GD13991+0027459GD24991+0042759MA1098515098245REMMET10401/03/10 12:47:02 SPECI KNHZ 031747Z 01010KT -RA BKN009 OVC014 02/01 A2909 RMK AO2 RAB37UPB38E43 P0000 $
0332743920146112010010317567+43900-069933FM-15+0023KNHZ V0203605N00365002745MN9999999N5+00175+00065098585ADDAA101000025AA206000021AU110020015AW1615GA1075+002745999GA2085+004575999GD13991+0027459GD24991+0045759KA1999M+00221KA2999N-00281MA1098515098245MD1340084+9999REMMET14501/03/10 12:56:02 METAR KNHZ 031756Z 36007KT -RA BKN009 OVC015 02/01 A2909 RMK AO2 RAB37UPB38E43 SLP858 P0000 60000 T00170006 10022 21028 53008 $EQDQ01  00008PRCP06
0214743920146112010010318147+43900-069933FM-16+0023KNHZ V0200105N00625004575MN9999999N5+00205+00105999999ADDAA101000021GA1025+002445999GA2085+004575999GD11991+0024459GD24991+0045759MA1098545098275REMMET11401/03/10 13:14:02 SPECI KNHZ 031814Z 01012KT FEW008 OVC015 02/01 A2910 RMK AO2 RAE01UPB1757E00 CIG 009 R01 P0000 $
0237743920146112010010318217+43900-069933FM-16+0023KNHZ V0200105N00575003355MN9999999N5+00205+00105999999ADDAA101000021AU120090015AW1401AW2415GA1075+003355999GA2085+004575999GD13991+0033559GD24991+0045759MA1098545098275REMMET11401/03/10 13:21:02 SPECI KNHZ 031821Z 01011KT UP BKN011 OVC015 02/01 A2910 RMK AO2 RAE01UPB1757 CIG 006V012 P0000 $
0251743920146112010010318397+43900-069933FM-16+0023KNHZ V0200105N00515004575MN9999999N5+00205+00105999999ADDAA101000021GA1025+003055999GA2075+004575999GA3085+012805999GD11991+0030559GD23991+0045759GD34991+0128059MA1098545098275OC100885REMMET11201/03/10 13:39:02 SPECI KNHZ 031839Z 01010G17KT FEW010 BKN015 OVC042 02/01 A2910 RMK AO2 RAE01UPB1757E25 P0000 $
0242743920146112010010318537+43900-069933FM-16+0023KNHZ V0200105N00575004275MN9999999N5+00205+00105999999ADDAA101000021AU120090015AW1401AW2415GA1075+004275999GA2085+006105999GD13991+0042759GD24991+0061059MA1098585098315OC100935REMMET11101/03/10 13:53:02 SPECI KNHZ 031853Z 01011G18KT UP BKN014 OVC020 02/01 A2911 RMK AO2 RAE01UPB1757E25B53 P0000 $
0259743920146112010010318567+43900-069933FM-15+0023KNHZ V0200105N00625004275MN9999999N5+00175+00065098655ADDAA101000025AU120090015AW1401AW2415GA1075+004275999GA2085+006105999GD13991+0042759GD24991+0061059MA1098585098315OC100935REMMET12801/03/10 13:56:02 METAR KNHZ 031856Z 01012G18KT UP BKN014 OVC020 02/01 A2911 RMK AO2 RAE01UPB1757E25B53 SLP865 P0000 T00170006 $
0212743920146112010010319287+43900-069933FM-16+0023KNHZ V0203605N00725004885MN9999999N5+00205+00005999999ADDAA101000021AU120090015AW1401AW2415GA1075+004885999GA2085+006715999GD13991+0048859GD24991+0067159MA1098655098385REMMET08901/03/10 14:28:02 SPECI KNHZ 031928Z 36014KT UP BKN016 OVC022 02/00 A2913 RMK AO2 P0000 $
0267743920146112010010319497+43900-069933FM-16+0023KNHZ V0200105N00515004575MN9999999N5+00205+00105999999ADDAA101000021AU110020015AW1615GA1025+002745999GA2075+004575999GA3085+006405999GD11991+0027459GD23991+0045759GD34991+0064059MA1098685098415OC100885REMMET11101/03/10 14:49:02 SPECI KNHZ 031949Z 01010G17KT -RA FEW009 BKN015 OVC021 02/01 A2914 RMK AO2 UPE42RAB31 P0000 $
0250743920146112010010319546+43900-069933FM-16+0023KNHZ V0200105N00515003665MN9999999N5+00205+00105999999ADDAU110020015AW1615GA1025+002745999GA2075+003665999GA3085+005795999GD11991+0027459GD23991+0036659GD34991+0057959MA1098685098415REMMET11301/03/10 14:54:02 SPECI KNHZ 031954Z 01010KT -RA FEW009 BKN012 OVC019 02/01 A2914 RMK AO2 UPE42RAB31 P0000 $ FIBI
0273743920146112010010319567+43900-069933FM-15+0023KNHZ V0200105N00465003665MN9999999N5+00175+00115098755ADDAA101000025AU110020015AW1615GA1025+002745999GA2075+003665999GA3085+005795999GD11991+0027459GD23991+0036659GD34991+0057959MA1098685098415REMMET12501/03/10 14:56:02 METAR KNHZ 031956Z 01009KT -RA FEW009 BKN012 OVC019 02/01 A2914 RMK AO2 UPE42RAB31 SLP875 P0000 T00170011 $
0254743920146112010010320117+43900-069933FM-16+0023KNHZ V0203505N00415004575MN9999999N5+00205+00205999999ADDAA101000021AU110020015AW1615GA1025+003055999GA2075+004575999GA3085+007015999GD11991+0030559GD23991+0045759GD34991+0070159MA1098715098445REMMET10601/03/10 15:11:02 SPECI KNHZ 032011Z 35008KT -RA FEW010 BKN015 OVC023 02/02 A2915 RMK AO2 UPB02E06 P0000 $
0297743920146112010010320567+43900-069933FM-15+0023KNHZ V0203605N00515004575MN9999999N5+00175+00175098825ADDAA101000025AA203000021AU110020015AW1615GA1075+004575999GA2085+006105999GD13991+0045759GD24991+0061059MA1098755098485MD1340174+9999REMMET13601/03/10 15:56:02 METAR KNHZ 032056Z 36010KT -RA BKN015 OVC020 02/02 A2916 RMK AO2 RAE15B53UPB02E53 SLP882 P0000 60000 T00170017 53017 $EQDQ01  00008PRCP03
0261743920146112010010321267+43900-069933FM-16+0023KNHZ V0203605N00465004275MN9999999N5+00205+00205999999ADDAA101000021AU120090015AW1401AW2415GA1075+004275999GA2075+006405999GA3085+008535999GD13991+0042759GD23991+0064059GD34991+0085359MA1098785098515REMMET10701/03/10 16:26:02 SPECI KNHZ 032126Z 36009KT UP BKN014 BKN021 OVC028 02/02 A2917 RMK AO2 RAE11UPB00 P0000 $
0261743920146112010010321447+43900-069933FM-16+0023KNHZ V0203605N00575004575MN9999999N5+00205+00205999999ADDAA101000021AU120090015AW1401AW2415GA1075+004575999GA2075+006405999GA3085+008535999GD13991+0045759GD23991+0064059GD34991+0085359MA1098815098545REMMET10701/03/10 16:44:02 SPECI KNHZ 032144Z 36011KT UP BKN015 BKN021 OVC028 02/02 A2918 RMK AO2 RAE11UPB00 P0000 $
0279743920146112010010321567+43900-069933FM-15+0023KNHZ V0203605N00575004575MN9999999N5+00175+00115098885ADDAA101000025AU110020015AW1615GA1075+004575999GA2075+006405999GA3085+009145999GD13991+0045759GD23991+0064059GD34991+0091459MA1098815098545REMMET13101/03/10 16:56:02 METAR KNHZ 032156Z 36011KT -RA BKN015 BKN021 OVC030 02/01 A2918 RMK AO2 RAE11B53UPB00E53 SLP888 P0000 T00170011 $
0279743920146112010010322567+43900-069933FM-15+0023KNHZ V0203605N00625007325MN9999999N5+00175+00115098985ADDAA101000025AU110020015AW1615GA1045+004275999GA2075+007325999GA3085+008845999GD12991+0042759GD23991+0073259GD34991+0088459MA1098925098655REMMET13101/03/10 17:56:02 METAR KNHZ 032256Z 36012KT -RA SCT014 BKN024 OVC029 02/01 A2921 RMK AO2 RAE05B24UPB05E24 SLP898 P0000 T00170011 $
0361743920146112010010323567+43900-069933FM-15+0023KNHZ V0203605N00625007325MN9999999N5+00175+00175099045ADDAA101000025AA206000021GA1025+003665999GA2075+007325999GA3085+012195999GD11991+0036659GD23991+0073259GD34991+0121959KA1999M+00221KA2999N+00171MA1098985098715MD1140224+9999REMMET16001/03/10 18:56:02 METAR KNHZ 032356Z 36012KT FEW012 BKN024 OVC040 02/02 A2923 RMK AO2 RAE17UPB17E30 CIG 016 R01 SLP904 P0000 60000 T00170017 10022 20017 51022 $EQDQ01  00008PRCP06
0218743920146112010010400147+43900-069933FM-16+0023KNHZ V0203505N00675009755MN9999999N5+00205+00205999999ADDGA1045+005495999GA2075+009755999GA3085+012805999GD12991+0054959GD23991+0097559GD34991+0128059MA1098985098715OC100935REMMET09001/03/10 19:14:01 SPECI KNHZ 040014Z 35013G18KT SCT018 BKN032 OVC042 02/02 A2923 RMK AO2 $
0212743920146112010010400567+43900-069933FM-15+0023KNHZ V0203505N00515012195MN9999999N5+00175+00115099045ADDAA101000025GA1075+012195999GA2085+014335999GD13991+0121959GD24991+0143359MA1098985098715REMMET11201/03/10 19:56:01 METAR KNHZ 040056Z 35010KT BKN040 OVC047 02/01 A2923 RMK AO2 UPB22E36 SLP904 P0000 T00170011 $
0208743920146112010010401567+43900-069933FM-15+0023KNHZ V0203505N005152200059N9999999N5+00225+00115099065ADDAA101000095GA1025+007925999GA2045+010675999GD11991+0079259GD22991+0106759MA1099025098755OC100935REMMET10001/03/10 20:56:01 METAR KNHZ 040156Z 35010G18KT FEW026 SCT035 02/01 A2924 RMK AO2 SLP906 T00220011 $
0245743920146112010010402567+43900-069933FM-15+0023KNHZ V0203305N00825012505MN9999999N5+00225+00115099075ADDAA101000095AA203000021GA1075+012505999GA2085+018295999GD13991+0125059GD24991+0182959MA1099025098755MD1340054+9999OC101035REMMET11201/03/10 21:56:01 METAR KNHZ 040256Z 33016G20KT BKN041 OVC060 02/01 A2924 RMK AO2 SLP907 60000 T00220011 53005 $
0247743920146112010010403397+43900-069933FM-16+0023KNHZ V0203405N00725008535MN9999999N5+00205+00105999999ADDAA101000021AU120090015AW1401AW2415GA1075+008535999GA2085+011585999GD13991+0085359GD24991+0115859MA1099055098785OC101345REMMET11601/03/10 22:39:01 SPECI KNHZ 040339Z 34014G26KT UP BKN028 OVC038 02/01 A2925 RMK AO2 PK WND 33026/0333 UPB18 P0000 $
0241743920146112010010403567+43900-069933FM-15+0023KNHZ V0203405N00725008535MN9999999N5+00175+00115099135ADDAA101000025GA1075+008535999GA2085+018295999GD13991+0085359GD24991+0182959MA1099095098815OC101085REMMET13301/03/10 22:56:01 METAR KNHZ 040356Z 34014G21KT BKN028 OVC060 02/01 A2926 RMK AO2 PK WND 33026/0333 UPB18E54 SLP913 P0000 T00170011 $
0180743920146112010010404137+43900-069933FM-16+0023KNHZ V0203305N00575009145MN9999999N5+00205+00105999999ADDGA1075+009145999GA2085+018295999GD13991+0091459GD24991+0182959MA1099095098815OC100885REMMET08301/03/10 23:13:01 SPECI KNHZ 040413Z 33011G17KT BKN030 OVC060 02/01 A2926 RMK AO2 $
0180743920146112010010404497+43900-069933FM-16+0023KNHZ V0203405N00575008535MN9999999N5+00105+00105999999ADDAA101000021AU120090015AW1401AW2415GA1085+008535999GD14991+0085359MA1099095098815REMMET08801/03/10 23:49:01 SPECI KNHZ 040449Z 34011KT UP OVC028 01/01 A2926 RMK AO2 UPB37 P0000 $
0207743920146112010010404567+43900-069933FM-15+0023KNHZ V0203405N00625007925MN9999999N5+00115+00115099135ADDAA101000025AU120090015AW1401AW2415GA1085+007925999GD14991+0079259MA1099095098815REMMET11501/03/10 23:56:01 METAR KNHZ 040456Z 34012KT UP OVC026 01/01 A2926 RMK AO2 UPB37 SLP913 P0000 T00110011 400221056 $
0907743920146112010010404596+43900-069933SOD  +0023KNHZ V020999999999999999999999999999+99999+99999999999ADDAA124000025KA1240M+00225KA2240N-00555MG1098104097904OE11240160931002115OE22240125232000415OE33240062699999995REMSOD75124 HR PRECIPITATION (IN):T     24 HR MAX TEMP (F):36 24 HR MAX TEMP TIME (LST):2227 24 HR MIN TEMP (F):22 24 HR MIN TEMP TIME (LST):0215 AVERAGE STATION PRESSURE:28.970 MINIMUM SEA LEVEL PRESSURE:28.91 TIME OF OCCURRENCE:0419 PEAK WIND SPEED (MPH):36  PEAK WIND DIR (DEG):310 PEAK WIND TIME (LST):0211  FASTEST 2MIN SPEED (MPH):28 FASTEST 2MIN DIR (DEG):320 FASTEST 2MIN TIME (LST):0041 AVERAGE WIND SPEED (MPH):14.0 24 HR AVG TEMP (F):29 DEPART FROM NORMAL: +7  HEATING DEGREE DAYS:36  COOLING DEGREE DAYS:0   LATEST DAY MAX TEMP (0700-1900 LST):36  LATEST NIGHT MIN TEMP(1900-0800 LST):22 HOURLY INCREMENTAL PRECIPITATION VALUES (IN):    T    T    T    T    T    T    T    T    0.00 T    T    T    T    T    T    T    T    T    T    0.00 0.00 T    TEQDR01     N7GJS072R02     N7GKS075
0238743920146112010010405457+43900-069933FM-16+0023KNHZ V0203205N00365015245MN9999999N5+00105+00105999999ADDAA101000021GA1045+010065999GA2075+015245999GA3085+025915999GD12991+0100659GD23991+0152459GD34991+0259159MA1099095098815REMMET10701/04/10 00:45:02 SPECI KNHZ 040545Z 32007KT SCT033 BKN050 OVC085 01/01 A2926 RMK AO2 UPE00SNB00E16 P0000 $
0311743920146112010010405567+43900-069933FM-15+0023KNHZ V0203205N00465015245MN9999999N5+00175+00065099155ADDAA101000025AA206000021GA1025+008235999GA2085+015245999GD11991+0082359GD24991+0152459KA1999M+00221KA2999N+00111MA1099125098855MD1140084+9999REMMET14101/04/10 00:56:02 METAR KNHZ 040556Z 32009KT FEW027 OVC050 02/01 A2927 RMK AO2 UPE00SNB00E16 SLP915 P0000 60000 T00170006 10022 20011 51008 $EQDQ01  00008PRCP06
0198743920146112010010406567+43900-069933FM-15+0023KNHZ V0203305N00515018295MN9999999N5+00225-00225099185ADDAA101000095GA1075+018295999GA2085+036585999GD13991+0182959GD24991+0365859MA1099125098855REMMET09801/04/10 01:56:02 METAR KNHZ 040656Z 33010KT BKN060 OVC120 02/M02 A2927 RMK AO2 SLP918 T00221022 $
0160743920146112010010407567+43900-069933FM-15+0023KNHZ V0203305N005152200059N9999999N5+00225-00285099215ADDAA101000095GA1025+033535999GD11991+0335359MA1099155098885REMMET09101/04/10 02:56:02 METAR KNHZ 040756Z 33010KT FEW110 02/M03 A2928 RMK AO2 SLP921 T00221028 $
0188743920146112010010408567+43900-069933FM-15+0023KNHZ V0203205N007752200059N9999999N5+00175-00335099225ADDAA101000095GA1005+999999999GD10991+9999999MA1099195098925MD1140074+9999OC101295REMMET09701/04/10 03:56:02 METAR KNHZ 040856Z 32015G25KT CLR 02/M03 A2929 RMK AO2 SLP922 T00171033 51007 $
0186743920146112010010409567+43900-069933FM-15+0023KNHZ V0203205N008852200059N9999999N5+00115-00335099265ADDAA101000095GA1005+999999999GD10991+9999999MA1099225098955OC101245REMMET10901/04/10 04:56:02 METAR KNHZ 040956Z 32017G24KT CLR 01/M03 A2930 RMK AO2 PK WND 30027/0925 SLP926 T00111033 $
0245743920146112010010410567+43900-069933FM-15+0023KNHZ V0203205N010352200059N0160935N5+00065-00445099315ADDAA101000095GA1045+018295999GA2045+036585999GD12991+0182959GD22991+0365859GF104991999999999999999999MA1099265098985OC101295REMMET11101/04/10 05:56:02 METAR KNHZ 041056Z 32020G25KT 10SM SCT060 SCT120 01/M04 A2931 RMK AO2 SLP931 T00061044 $ (CT)
0344743920146112010010411567+43900-069933FM-15+0023KNHZ V0203305N00935033535MN0160935N5+00065-00445099365ADDAA101000095AJ100159599999999GA1045+018295999GA2075+033535999GD12991+0182959GD23991+0335359GF107991999999999999999999KA1999M+00221KA2999N+00001MA1099325099055MD1340144+9999OC101135REMMET15301/04/10 06:56:02 METAR KNHZ 041156Z 33018G22KT 10SM SCT060 BKN110 01/M04 A2933 RMK AO2 PK WND 30028/1122 SLP936 4/006 T00061044 10022 20000 53014 $ (CT)
0283743920146112010010412567+43900-069933FM-15+0023KNHZ V0203205N00775039625MN0160935N5+00005-00505099435ADDAA101000095GA1025+018295999GA2045+033535999GA3075+039625999GD11991+0182959GD22991+0335359GD33991+0396259GF107991999999999999999999MA1099395099125OC101245REMMET11801/04/10 07:56:02 METAR KNHZ 041256Z 32015G24KT 10SM FEW060 SCT110 BKN130 00/M05 A2935 RMK AO2 SLP943 T00001050 $ (CT)
0281743920146112010010413567+43900-069933FM-15+0023KNHZ V0203305N00775039625MN0160935N5+00005-00565099555ADDAA101000095GA1025+010675999GA2045+015245999GA3075+039625999GD11991+0106759GD22991+0152459GD33991+0396259GF107991999999999999999999MA1099495099225OC101085REMMET11601/04/10 08:56:02 METAR KNHZ 041356Z 33015G21KT 10SM FEW035 SCT050 BKN130 00/M06 A2938 RMK AO2 SLP955 T00001056 (CT)
0281743920146112010010414567+43900-069933FM-15+0023KNHZ V0203305N00985016765MN0160935N5+00065-00565099625ADDAA101000095GA1075+016765999GA2075+022865999GD13991+0167659GD23991+0228659GF107991999999999999999999MA1099565099295MD1140264+9999OC101345REMMET13301/04/10 09:56:02 METAR KNHZ 041456Z 33019G26KT 10SM BKN055 BKN075 01/M06 A2940 RMK AO2 PK WND 33026/1456 SLP962 T00061056 51026 (CT)
0205743920146112010010415567+43900-069933FM-15+0023KNHZ V0203305N00725021345MN0160935N5+00065-00565099645ADDAA101000095GA1085+021345999GD14991+0213459GF108991999999999999999999MA1099595099325OC101035REMMET10201/04/10 10:56:02 METAR KNHZ 041556Z 33014G20KT 10SM OVC070 01/M06 A2941 RMK AO2 SLP964 T00061056 (CT)
0205743920146112010010416567+43900-069933FM-15+0023KNHZ V0203305N00775019815MN0160935N5+00065-00565099635ADDAA101000095GA1085+019815999GD14991+0198159GF108991999999999999999999MA1099595099325OC101085REMMET10201/04/10 11:56:02 METAR KNHZ 041656Z 33015G21KT 10SM OVC065 01/M06 A2941 RMK AO2 SLP963 T00061056 (CT)
0282743920146112010010417567+43900-069933FM-15+0023KNHZ V0203405N00625018295MN0160935N5+00065-00565099645ADDAA101000095AJ100159599999999GA1085+018295999GD14991+0182959GF108991999999999999999999KA1999M+00061KA2999N+00001MA1099595099325MD1140024+9999REMMET13001/04/10 12:56:02 METAR KNHZ 041756Z 34012KT 10SM OVC060 01/M06 A2941 RMK AO2 SLP964 4/006 933007 T00061056 10006 20000 51002 (CT)
0195743920146112010010418567+43900-069933FM-15+0023KNHZ V0203305N00625018295MN0160935N5+00065-00615099715ADDAA101000095GA1085+018295999GD14991+0182959GF108991999999999999999999MA1099665099395REMMET10001/04/10 13:56:02 METAR KNHZ 041856Z 33012KT 10SM OVC060 01/M06 A2943 RMK AO2 SLP971 T00061061 (RDG)
0206743920146112010010419567+43900-069933FM-15+0023KNHZ V0203205N00675016765MN0160935N5+00005-00615099795ADDAA101000095GA1085+016765999GD14991+0167659GF108991999999999999999999MA1099735099465OC100935REMMET10301/04/10 14:56:02 METAR KNHZ 041956Z 32013G18KT 10SM OVC055 00/M06 A2945 RMK AO2 SLP979 T00001061 (RDG)
0227743920146112010010420567+43900-069933FM-15+0023KNHZ V0203305N00675015245MN0160935N5-00065-00675099835ADDAA101000095GA1085+015245999GD14991+0152459GF108991999999999999999999MA1099805099525MD1140204+9999OC100985REMMET11001/04/10 15:56:02 METAR KNHZ 042056Z 33013G19KT 10SM OVC050 M01/M07 A2947 RMK AO2 SLP983 T10061067 51020 (RDG)
0196743920146112010010421567+43900-069933FM-15+0023KNHZ V0203405N00365015245MN0160935N5-00115-00675099925ADDAA101000095GA1085+015245999GD14991+0152459GF108991999999999999999999MA1099865099595REMMET10101/04/10 16:56:02 METAR KNHZ 042156Z 34007KT 10SM OVC050 M01/M07 A2949 RMK AO2 SLP992 T10111067 (RDG)
0196743920146112010010422567+43900-069933FM-15+0023KNHZ V0203405N00675014635MN0160935N5-00115-00725099955ADDAA101000095GA1085+014635999GD14991+0146359GF108991999999999999999999MA1099905099635REMMET10101/04/10 17:56:02 METAR KNHZ 042256Z 34013KT 10SM OVC048 M01/M07 A2950 RMK AO2 SLP995 T10111072 (RDG)
0277743920146112010010423567+43900-069933FM-15+0023KNHZ V0203405N00575013415MN0160935N5-00175-00725100005ADDAA101000095AJ100159599999999GA1085+013415999GD14991+0134159GF108991999999999999999999KA1999M+00061KA2999N-00171MA1099935099665MD1140164+9999REMMET12501/04/10 18:56:02 METAR KNHZ 042356Z 34011KT 10SM OVC044 M02/M07 A2951 RMK AO2 SLP000 4/006 T10171072 10006 21017 51016 (RDG)
0190743920146112010010500567+43900-069933FM-15+0023KNHZ V0203305N00515014025MN0160935N5-00175-00725100035ADDAA101000095GA1085+014025999GD14991+0140259GF108991999999999999999999MA1099975099695REMMET09501/04/10 19:56:01 METAR KNHZ 050056Z 33010KT 10SM OVC046 M02/M07 A2952 RMK AO2 SLP003 T10171072
0190743920146112010010501567+43900-069933FM-15+0023KNHZ V0203305N00415014635MN0160935N5-00175-00725100035ADDAA101000095GA1085+014635999GD14991+0146359GF108991999999999999999999MA1099975099695REMMET09501/04/10 20:56:01 METAR KNHZ 050156Z 33008KT 10SM OVC048 M02/M07 A2952 RMK AO2 SLP003 T10171072
0210743920146112010010502567+43900-069933FM-15+0023KNHZ V0203405N00365015245MN0160935N5-00225-00725100055ADDAA101000095GA1085+015245999GD14991+0152459GF108991999999999999999999MA1100005099735MD1140054+9999REMMET10101/04/10 21:56:01 METAR KNHZ 050256Z 34007KT 10SM OVC050 M02/M07 A2953 RMK AO2 SLP005 T10221072 51005
0159743920146112010010503567+43900-069933FM-15+0023KNHZ V0203305N00365016765MN9999999N5-00225-00725100055ADDAA101000095GA1085+016765999GD14991+0167659MA1100005099735REMMET09001/04/10 22:56:01 METAR KNHZ 050356Z 33007KT OVC055 M02/M07 A2953 RMK AO2 SLP005 T10221072
0169743920146112010010504567+43900-069933FM-15+0023KNHZ V0203305N00415015245MN9999999N5-00225-00725100035ADDAA101000095GA1085+015245999GD14991+0152459MA1099975099695REMMET10001/04/10 23:56:01 METAR KNHZ 050456Z 33008KT OVC050 M02/M07 A2952 RMK AO2 SLP003 T10221072 400221022
0910743920146112010010504596+43900-069933SOD  +0023KNHZ V020999999999999999999999999999+99999+99999999999ADDAA124000025KA1240M+00225KA2240N-00215MG1099204099124OE11240143130006225OE22240102832006225OE33240063999999995REMSOD75424 HR PRECIPITATION (IN):T     24 HR MAX TEMP (F):36 24 HR MAX TEMP TIME (LST):0350 24 HR MIN TEMP (F):28 24 HR MIN TEMP TIME (LST):2359 AVERAGE STATION PRESSURE:29.295 MINIMUM SEA LEVEL PRESSURE:29.27 TIME OF OCCURRENCE:0032 PEAK WIND SPEED (MPH):32  PEAK WIND DIR (DEG):300 PEAK WIND TIME (LST):0622  FASTEST 2MIN SPEED (MPH):23 FASTEST 2MIN DIR (DEG):320 FASTEST 2MIN TIME (LST):0622 AVERAGE WIND SPEED (MPH):14.3 24 HR AVG TEMP (F):32 DEPART FROM NORMAL:+10  HEATING DEGREE DAYS:33  COOLING DEGREE DAYS:0   LATEST DAY MAX TEMP (0700-1900 LST):33  LATEST NIGHT MIN TEMP(1900-0800 LST):32 HOURLY INCREMENTAL PRECIPITATION VALUES (IN):    0.00 0.00 0.00 0.00 0.00 0.00 0.00 0.00 0.00 0.00 0.00 0.00 0.00 0.00 0.00 0.00 0.00 0.00 0.00 0.00 0.00 0.00 0.00EQDR01     N7GJS072R02     N7GKS075
0200743920146112010010505566+43900-069933FM-15+0023KNHZ V0203305N00315015245MN9999999N5-00225-00725100025ADDAA101000095GA1085+015245999GD14991+0152459MA1099975099695MD1840034+9999REMMET11701/05/10 00:56:02 METAR KNHZ 050556Z 33006KT OVC050 M02/M07 A2952 RMK AO2 SLP002 T10221072 11017 21022 58003 RTX FIBI
0170743920146112010010506566+43900-069933FM-15+0023KNHZ V0203305N00365014635MN9999999N5-00225-00725100045ADDAA101000095GA1085+014635999GD14991+0146359MA1099975099695REMMET10101/05/10 01:56:02 METAR KNHZ 050656Z 33007KT OVC048 M02/M07 A2952 RMK AO2 SLP004 T10221072 $ RTX FIBI
0170743920146112010010507566+43900-069933FM-15+0023KNHZ V0203405N00515016765MN9999999N5-00225-00725100025ADDAA101000095GA1085+016765999GD14991+0167659MA1099975099695REMMET10101/05/10 02:56:02 METAR KNHZ 050756Z 34010KT OVC055 M02/M07 A2952 RMK AO2 SLP002 T10221072 $ RTX FIBI
0190743920146112010010508566+43900-069933FM-15+0023KNHZ V0203305N00365016765MN9999999N5-00285-00725100035ADDAA101000095GA1085+016765999GD14991+0167659MA1099975099695MD1140014+9999REMMET10701/05/10 03:56:02 METAR KNHZ 050856Z 33007KT OVC055 M03/M07 A2952 RMK AO2 SLP003 T10281072 51001 $ RTX FIBI
0170743920146112010010509566+43900-069933FM-15+0023KNHZ V0203205N00315015245MN9999999N5-00285-00785100025ADDAA101000095GA1085+015245999GD14991+0152459MA1099975099695REMMET10101/05/10 04:56:02 METAR KNHZ 050956Z 32006KT OVC050 M03/M08 A2952 RMK AO2 SLP002 T10281078 $ RTX FIBI
0282743920146112010010510567+43900-069933FM-15+0023KNHZ V0203205N00155011895MN0160935N5-00285-00725100065ADDAA101000095GA1045+009755999GA2075+011895999GA3085+014635999GD12991+0097559GD23991+0118959GD34991+0146359GF108991999999999999999999MA1100005099735REMMET12501/05/10 05:56:02 METAR KNHZ 051056Z 32003KT 10SM SCT032 BKN039 OVC048 M03/M07 A2953 RMK AO2 SLP006 T10281072 $ RTX FIBI (CT)
0278743920146112010010511567+43900-069933FM-15+0023KNHZ V0203305N00315013725MN0160935N5-00285-00725100075ADDAA101000095AJ100159599999999GA1085+013725999GD14991+0137259GF108991999999999999999999KA1999M-00221KA2999N-00331MA1100005099735MD1340044+9999REMMET12601/05/10 06:56:02 METAR KNHZ 051156Z 33006KT 10SM OVC045 M03/M07 A2953 RMK AO2 SLP007 4/006 T10281072 11022 21033 53004 $ (CT)
0235743920146112010010512567+43900-069933FM-15+0023KNHZ V0203305N00265060965MN0160935N5-00225-00725100095ADDAA101000095GA1045+016765999GA2075+060965999GD12991+0167659GD23991+0609659GF107991999999999999999999MA1100035099765REMMET10901/05/10 07:56:02 METAR KNHZ 051256Z 33005KT 10SM SCT055 BKN200 M02/M07 A2954 RMK AO2 SLP009 T10221072 $ (CT)
0245743920146112010010513307+43900-069933FM-16+0023KNHZ V0203205N00265008235MN0160935N5-00205-00705999999ADDGA1075+008235999GA2075+012195999GA3085+060965999GD13991+0082359GD23991+0121959GD34991+0609659GF108991999999999999999999MA1100035099765REMMET09901/05/10 08:30:02 SPECI KNHZ 051330Z 32005KT 10SM BKN027 BKN040 OVC200 M02/M07 A2954 RMK AO2 $ (CT)
0235743920146112010010513567+43900-069933FM-15+0023KNHZ V0203205N00315008845MN0160935N5-00175-00675100105ADDAA101000095GA1075+008845999GA2085+011285999GD13991+0088459GD24991+0112859GF108991999999999999999999MA1100035099765REMMET10901/05/10 08:56:02 METAR KNHZ 051356Z 32006KT 10SM BKN029 OVC037 M02/M07 A2954 RMK AO2 SLP010 T10171067 $ (CT)
0169743920146112010010514207+43900-069933FM-16+0023KNHZ V0203105N00315010065MN0160935N5-00205-00705999999ADDGA1075+010065999GD13991+0100659GF107991999999999999999999MA1100035099765REMMET08501/05/10 09:20:02 SPECI KNHZ 051420Z 31006KT 10SM BKN033 M02/M07 A2954 RMK AO2 $ (CT)
0217743920146112010010514567+43900-069933FM-15+0023KNHZ V0203005N00315010675MN0160935N5-00065-00565100125ADDAA101000095GA1085+010675999GD14991+0106759GF108991999999999999999999MA1100075099795MD1240044+9999REMMET10801/05/10 09:56:02 METAR KNHZ 051456Z 30006KT 10SM OVC035 M01/M06 A2955 RMK AO2 SLP012 T10061056 52004 $ (CT)
0196743920146112010010515567+43900-069933FM-15+0023KNHZ V0203305N00315010675MN0160935N5+00005-00565100065ADDAA101000095GA1085+010675999GD14991+0106759GF108991999999999999999999MA1100005099735REMMET10101/05/10 10:56:02 METAR KNHZ 051556Z 33006KT 10SM OVC035 00/M06 A2953 RMK AO2 SLP006 T00001056 $ (CT)
0196743920146112010010516567+43900-069933FM-15+0023KNHZ V0203205N00365011285MN0160935N5+00005-00565100005ADDAA101000095GA1085+011285999GD14991+0112859GF108991999999999999999999MA1099935099665REMMET10101/05/10 11:56:02 METAR KNHZ 051656Z 32007KT 10SM OVC037 00/M06 A2951 RMK AO2 SLP000 T00001056 $ (CT)
0322743920146112010010517567+43900-069933FM-15+0023KNHZ V0203105N00265012505MN0160935N5+00065-00445099945ADDAA101000095AJ100159599999999GA1045+010365999GA2085+012505999GD12991+0103659GD24991+0125059GF108991999999999999999999KA1999M+00061KA2999N-00281MA1099905099635MD1840174+9999REMMET13901/05/10 12:56:02 METAR KNHZ 051756Z 31005KT 10SM SCT034 OVC041 01/M04 A2950 RMK AO2 SLP994 4/006 933016 T00061044 10006 21028 58017 $ (CT)
0235743920146112010010518567+43900-069933FM-15+0023KNHZ V0203205N00415011585MN0160935N5+00005-00395099955ADDAA101000095GA1045+009145999GA2085+011585999GD12991+0091459GD24991+0115859GF108991999999999999999999MA1099905099635REMMET10901/05/10 13:56:02 METAR KNHZ 051856Z 32008KT 10SM SCT030 OVC038 00/M04 A2950 RMK AO2 SLP995 T00001039 $ (RDG)
0197743920146112010010519567+43900-069933FM-15+0023KNHZ V0202805N00315011585MN0160935N5+00005-00395099965ADDAA101000095GA1085+011585999GD14991+0115859GF108991999999999999999999MA1099905099635REMMET10201/05/10 14:56:02 METAR KNHZ 051956Z 28006KT 10SM OVC038 00/M04 A2950 RMK AO2 SLP996 T00001039 $ (RDG)
0217743920146112010010520567+43900-069933FM-15+0023KNHZ V0203005N00265012805MN0160935N5+00005-00395099955ADDAA101000095GA1085+012805999GD14991+0128059GF108991999999999999999999MA1099905099635MD1040014+9999REMMET10801/05/10 15:56:02 METAR KNHZ 052056Z 30005KT 10SM OVC042 00/M04 A2950 RMK AO2 SLP995 T00001039 50001 $ (RDG)
0248743920146112010010521567+43900-069933FM-15+0023KNHZ V0203105N00265014335MN0160935N5-00065-00505099945ADDAA101000095GA1025+011895999GA2085+014335999GD11991+0118959GD24991+0143359GF108991999999999999999999MA1099865099595REMMET12201/05/10 16:56:02 METAR KNHZ 052156Z 31005KT 10SM FEW039 OVC047 M01/M05 A2949 RMK AO2 CIG 040 R01 SLP994 T10061050 $ (RDG)
0198743920146112010010522567+43900-069933FM-15+0023KNHZ V0203205N00365011285MN0160935N5-00065-00565099955ADDAA101000095GA1085+011285999GD14991+0112859GF108991999999999999999999MA1099905099635REMMET10301/05/10 17:56:02 METAR KNHZ 052256Z 32007KT 10SM OVC037 M01/M06 A2950 RMK AO2 SLP995 T10061056 $ (RDG)
0279743920146112010010523567+43900-069933FM-15+0023KNHZ V0203305N00465012505MN0160935N5-00175-00675100005ADDAA101000095AJ100159599999999GA1085+012505999GD14991+0125059GF108991999999999999999999KA1999M+00061KA2999N-00171MA1099935099665MD1340054+9999REMMET12701/05/10 18:56:02 METAR KNHZ 052356Z 33009KT 10SM OVC041 M02/M07 A2951 RMK AO2 SLP000 4/006 T10171067 10006 21017 53005 $ (RDG)
0192743920146112010010600567+43900-069933FM-15+0023KNHZ V0203305N00415010675MN0160935N5-00175-00675100005ADDAA101000095GA1085+010675999GD14991+0106759GF108991999999999999999999MA1099935099665REMMET09701/05/10 19:56:01 METAR KNHZ 060056Z 33008KT 10SM OVC035 M02/M07 A2951 RMK AO2 SLP000 T10171067 $
0192743920146112010010601567+43900-069933FM-15+0023KNHZ V0203305N00515010675MN0160935N5-00175-00675100035ADDAA101000095GA1085+010675999GD14991+0106759GF108991999999999999999999MA1099975099695REMMET09701/05/10 20:56:01 METAR KNHZ 060156Z 33010KT 10SM OVC035 M02/M07 A2952 RMK AO2 SLP003 T10171067 $
0212743920146112010010602567+43900-069933FM-15+0023KNHZ V0203205N00415010065MN0160935N5-00225-00725100015ADDAA101000095GA1085+010065999GD14991+0100659GF108991999999999999999999MA1099975099695MD1040024+9999REMMET10301/05/10 21:56:01 METAR KNHZ 060256Z 32008KT 10SM OVC033 M02/M07 A2952 RMK AO2 SLP001 T10221072 50002 $
0161743920146112010010603567+43900-069933FM-15+0023KNHZ V0203105N00465010675MN9999999N5-00225-00725099995ADDAA101000095GA1085+010675999GD14991+0106759MA1099935099665REMMET09201/05/10 22:56:01 METAR KNHZ 060356Z 31009KT OVC035 M02/M07 A2951 RMK AO2 SLP999 T10221072 $
0182743920146112010010604567+43900-069933FM-15+0023KNHZ V0203205N00515010675MN9999999N5-00225-00725099975ADDAA101000095GA1085+010675999GD14991+0106759MA1099905099635OC100885REMMET10501/05/10 23:56:01 METAR KNHZ 060456Z 32010G17KT OVC035 M02/M07 A2950 RMK AO2 SLP997 T10221072 400061033 $
0910743920146112010010604596+43900-069933SOD  +0023KNHZ V020999999999999999999999999999+99999+99999999999ADDAA124000095KA1240M+00065KA2240N-00325MG1099684099934OE11240098332018145OE22240071532018155OE33240035399999995REMSOD75424 HR PRECIPITATION (IN):0.00  24 HR MAX TEMP (F):33 24 HR MAX TEMP TIME (LST):1335 24 HR MIN TEMP (F):26 24 HR MIN TEMP TIME (LST):0436 AVERAGE STATION PRESSURE:29.435 MINIMUM SEA LEVEL PRESSURE:29.51 TIME OF OCCURRENCE:1749 PEAK WIND SPEED (MPH):22  PEAK WIND DIR (DEG):320 PEAK WIND TIME (LST):1814  FASTEST 2MIN SPEED (MPH):16 FASTEST 2MIN DIR (DEG):320 FASTEST 2MIN TIME (LST):1815 AVERAGE WIND SPEED (MPH):7.9  24 HR AVG TEMP (F):30 DEPART FROM NORMAL: +9  HEATING DEGREE DAYS:35  COOLING DEGREE DAYS:0   LATEST DAY MAX TEMP (0700-1900 LST):33  LATEST NIGHT MIN TEMP(1900-0800 LST):26 HOURLY INCREMENTAL PRECIPITATION VALUES (IN):.00 0.00 0.00 0.00 0.00 0.00 0.00 0.00 0.00 0.00 0.00 0.00 0.00 0.00 0.00 0.00 0.00 0.00 0.00 0.00 0.00 0.00 0.00 0.00EQDR01     N7GJS072R02     N7GKS075
0230743920146112010010605567+43900-069933FM-15+0023KNHZ V0203205N00415011285MN9999999N5-00225-00785099925ADDAA101000095GA1085+011285999GD14991+0112859KA1999M-00171KA2999N-00221MA1099865099595MD1840094+9999OC100775REMMET11301/06/10 00:56:02 METAR KNHZ 060556Z 32008G15KT OVC037 M02/M08 A2949 RMK AO2 SLP992 T10221078 11017 21022 58009 $
0199743920146112010010606567+43900-069933FM-15+0023KNHZ V0203005N00315013115MN9999999N5-00225-00785099945ADDAA101000095GA1075+013115999GA2085+019815999GD13991+0131159GD24991+0198159MA1099865099595REMMET09901/06/10 01:56:02 METAR KNHZ 060656Z 30006KT BKN043 OVC065 M02/M08 A2949 RMK AO2 SLP994 T10221078 $
0161743920146112010010607567+43900-069933FM-15+0023KNHZ V0203205N00365019815MN9999999N5-00285-00785099925ADDAA101000095GA1085+019815999GD14991+0198159MA1099865099595REMMET09201/06/10 02:56:02 METAR KNHZ 060756Z 32007KT OVC065 M03/M08 A2949 RMK AO2 SLP992 T10281078 $
0181743920146112010010608567+43900-069933FM-15+0023KNHZ V0203205N00415021345MN9999999N5-00285-00785099915ADDAA101000095GA1085+021345999GD14991+0213459MA1099865099595MD1840024+9999REMMET09801/06/10 03:56:02 METAR KNHZ 060856Z 32008KT OVC070 M03/M08 A2949 RMK AO2 SLP991 T10281078 58002 $
0161743920146112010010609567+43900-069933FM-15+0023KNHZ V0203005N00265021345MN9999999N5-00285-00785099885ADDAA101000095GA1085+021345999GD14991+0213459MA1099835099565REMMET09201/06/10 04:56:02 METAR KNHZ 060956Z 30005KT OVC070 M03/M08 A2948 RMK AO2 SLP988 T10281078 $
0197743920146112010010610567+43900-069933FM-15+0023KNHZ V0203005N00415022865MN0160935N5-00285-00785099885ADDAA101000095GA1085+022865999GD14991+0228659GF108991999999999999999999MA1099835099565REMMET10201/06/10 05:56:02 METAR KNHZ 061056Z 30008KT 10SM OVC075 M03/M08 A2948 RMK AO2 SLP988 T10281078 $ (CT)
0278743920146112010010611567+43900-069933FM-15+0023KNHZ V0203205N00465024385MN0160935N5-00335-00785099885ADDAA101000095AJ100159599999999GA1075+024385999GD13991+0243859GF107991999999999999999999KA1999M-00221KA2999N-00331MA1099835099565MD1640034+9999REMMET12601/06/10 06:56:02 METAR KNHZ 061156Z 32009KT 10SM BKN080 M03/M08 A2948 RMK AO2 SLP988 4/006 T10331078 11022 21033 56003 $ (CT)
0197743920146112010010612567+43900-069933FM-15+0023KNHZ V0203305N00215019815MN0160935N5-00395-00895099925ADDAA101000095GA1075+019815999GD13991+0198159GF107991999999999999999999MA1099865099595REMMET10201/06/10 07:56:02 METAR KNHZ 061256Z 33004KT 10SM BKN065 M04/M09 A2949 RMK AO2 SLP992 T10391089 $ (CT)
0197743920146112010010613567+43900-069933FM-15+0023KNHZ V0203105N00365019815MN0160935N5-00225-00785099945ADDAA101000095GA1075+019815999GD13991+0198159GF107991999999999999999999MA1099865099595REMMET10201/06/10 08:56:02 METAR KNHZ 061356Z 31007KT 10SM BKN065 M02/M08 A2949 RMK AO2 SLP994 T10221078 $ (CT)
0255743920146112010010614567+43900-069933FM-15+0023KNHZ V0202905N00365019815MN0160935N5-00225-00785099965ADDAA101000095GA1075+019815999GA2075+060965999GD13991+0198159GD23991+0609659GF107991999999999999999999MA1099905099635MD1140084+9999REMMET11501/06/10 09:56:02 METAR KNHZ 061456Z 29007KT 10SM BKN065 BKN200 M02/M08 A2950 RMK AO2 SLP996 T10221078 51008 $ (CT)
0235743920146112010010615567+43900-069933FM-15+0023KNHZ V0203005N00215019815MN0160935N5-00065-00725099905ADDAA101000095GA1075+019815999GA2075+060965999GD13991+0198159GD23991+0609659GF107991999999999999999999MA1099835099565REMMET10901/06/10 10:56:02 METAR KNHZ 061556Z 30004KT 10SM BKN065 BKN200 M01/M07 A2948 RMK AO2 SLP990 T10061072 $ (CT)
0272743920146112010010616567+43900-069933FM-15+0023KNHZ V0203105N00625027435MN0160935N5+00005-00785099825ADDAA101000095GA1045+021345999GA2075+027435999GA3075+060965999GD12991+0213459GD23991+0274359GD33991+0609659GF107991999999999999999999MA1099765099495REMMET11501/06/10 11:56:02 METAR KNHZ 061656Z 31012KT 10SM SCT070 BKN090 BKN200 00/M08 A2946 RMK AO2 SLP982 T00001078 $ (CT)
0360743920146112010010617567+43900-069933FM-15+0023KNHZ V0203005N004152200059N0160935N5+00005-00785099785ADDAA101000095AJ100159599999999GA1025+010675999GA2045+027435999GA3045+060965999GD11991+0106759GD22991+0274359GD32991+0609659GF104991999999999999999999KA1999M+00001KA2999N-00391MA1099735099465MD1640184+9999REMMET14601/06/10 12:56:02 METAR KNHZ 061756Z 30008KT 10SM FEW035 SCT090 SCT200 00/M08 A2945 RMK AO2 SLP978 4/006 933016 T00001078 10000 21039 56018 $ (CT)
0246743920146112010010618567+43900-069933FM-15+0023KNHZ V0203205N007252200059N0160935N5+00005-00785099745ADDAA101000095GA1025+030485999GA2045+060965999GD11991+0304859GD22991+0609659GF104991999999999999999999MA1099705099425OC101035REMMET11201/06/10 13:56:02 METAR KNHZ 061856Z 32014G20KT 10SM FEW100 SCT200 00/M08 A2944 RMK AO2 SLP974 T00001078 $ (RDG)
0197743920146112010010619567+43900-069933FM-15+0023KNHZ V0203005N00415036585MN0160935N5+00005-00785099775ADDAA101000095GA1075+036585999GD13991+0365859GF107991999999999999999999MA1099705099425REMMET10201/06/10 14:56:02 METAR KNHZ 061956Z 30008KT 10SM BKN120 00/M08 A2944 RMK AO2 SLP977 T00001078 $ (RDG)
0256743920146112010010620567+43900-069933FM-15+0023KNHZ V0203105N006252200059N0160935N5-00065-00835099805ADDAA101000095GA1045+024385999GA2045+060965999GD12991+0243859GD22991+0609659GF104991999999999999999999MA1099735099465MD1340024+9999REMMET11601/06/10 15:56:02 METAR KNHZ 062056Z 31012KT 10SM SCT080 SCT200 M01/M08 A2945 RMK AO2 SLP980 T10061083 53002 $ (RDG)
0198743920146112010010621567+43900-069933FM-15+0023KNHZ V0202905N00315024385MN0160935N5-00175-00785099875ADDAA101000095GA1075+024385999GD13991+0243859GF107991999999999999999999MA1099805099525REMMET10301/06/10 16:56:02 METAR KNHZ 062156Z 29006KT 10SM BKN080 M02/M08 A2947 RMK AO2 SLP987 T10171078 $ (RDG)
0198743920146112010010622567+43900-069933FM-15+0023KNHZ V0202905N00365022865MN0160935N5-00175-00725099905ADDAA101000095GA1085+022865999GD14991+0228659GF108991999999999999999999MA1099835099565REMMET10301/06/10 17:56:02 METAR KNHZ 062256Z 29007KT 10SM OVC075 M02/M07 A2948 RMK AO2 SLP990 T10171072 $ (RDG)
0226743920146112010010623546+43900-069933FM-16+0023KNHZ V0203205N00465005495MN0160935N5-00205-00605999999ADDAU110030015AW1715GA1075+005495999GA2085+021345999GD13991+0054959GD24991+0213459MA1099905099635REMMET12001/06/10 18:54:02 SPECI KNHZ 062354Z 32009KT 10SM -SN BKN018 OVC070 M02/M06 A2950 RMK AO2 SNB46 4/006 P0000 $ FIBI (RDG)
0392743920146112010010623567+43900-069933FM-15+0023KNHZ V0203205N00415005495MN0160935N5-00225-00615099945ADDAA101000025AA206000021AJ100159599999999AU110030015AW1715GA1075+005495999GA2085+021345999GD13991+0054959GD24991+0213459GF108991999999999999999999KA1999M+00061KA2999N-00221MA1099865099595MD1140144+9999MW1711REMMET15601/06/10 18:56:02 METAR KNHZ 062356Z 32008KT 10SM -SN BKN018 OVC070 M02/M06 A2949 RMK AO2 SNB46 SLP994 4/006 P0000 60000 T10221061 10006 21022 51014 $ (RDG)EQDQ01  00008PRCP06
0225743920146112010010700117+43900-069933FM-16+0023KNHZ V0203205N00315007925MN0160935N5-00205-00605999999ADDAA101000021GA1075+007925999GA2085+018295999GD13991+0079259GD24991+0182959GF108991999999999999999999MA1099905099635REMMET09901/06/10 19:11:01 SPECI KNHZ 070011Z 32006KT 10SM BKN026 OVC060 M02/M06 A2950 RMK AO2 SNE06 P0000 $
0225743920146112010010700207+43900-069933FM-16+0023KNHZ V0203305N00315011585MN0160935N5-00205-00605999999ADDAA101000021GA1075+011585999GA2085+018295999GD13991+0115859GD24991+0182959GF108991999999999999999999MA1099905099635REMMET09901/06/10 19:20:01 SPECI KNHZ 070020Z 33006KT 10SM BKN038 OVC060 M02/M06 A2950 RMK AO2 SNE06 P0000 $
0215743920146112010010700567+43900-069933FM-15+0023KNHZ V0203305N00725030485MN0160935N5-00225-00835099985ADDAA101000025GA1085+030485999GD14991+0304859GF108991999999999999999999MA1099905099635OC101135REMMET11201/06/10 19:56:01 METAR KNHZ 070056Z 33014G22KT 10SM OVC100 M02/M08 A2950 RMK AO2 SNE06 SLP998 P0000 T10221083 $
0203743920146112010010701567+43900-069933FM-15+0023KNHZ V0203105N00365027435MN0160935N5-00285-00835099995ADDAA101000095GA1075+027435999GD13991+0274359GF107991999999999999999999MA1099935099665OC100775REMMET10001/06/10 20:56:01 METAR KNHZ 070156Z 31007G15KT 10SM BKN090 M03/M08 A2951 RMK AO2 SLP999 T10281083 $
0229743920146112010010702567+43900-069933FM-15+0023KNHZ V0202905N004152200059N0160935N5-00395-00945100015ADDAA101000095AA203000021GA1045+030485999GD12991+0304859GF104991999999999999999999MA1099935099665MD1140064+9999REMMET10901/06/10 21:56:01 METAR KNHZ 070256Z 29008KT 10SM SCT100 M04/M09 A2951 RMK AO2 SLP001 60000 T10391094 51006 $
0161743920146112010010703567+43900-069933FM-15+0023KNHZ V0203005N004652200059N9999999N5-00395-01005100045ADDAA101000095GA1025+025915999GD11991+0259159MA1099975099695REMMET09201/06/10 22:56:01 METAR KNHZ 070356Z 30009KT FEW085 M04/M10 A2952 RMK AO2 SLP004 T10391100 $
0171743920146112010010704567+43900-069933FM-15+0023KNHZ V0202605N00265021345MN9999999N5-00505-01065100045ADDAA101000095GA1075+021345999GD13991+0213459MA1099975099695REMMET10201/06/10 23:56:01 METAR KNHZ 070456Z 26005KT BKN070 M05/M11 A2952 RMK AO2 SLP004 T10501106 400061050 $
0910743920146112010010704596+43900-069933SOD  +0023KNHZ V020999999999999999999999999999+99999+99999999999ADDAA124000025KA1240M+00065KA2240N-00495MG1099544099734OE11240116231019385OE22240098332011345OE33240041199999995REMSOD75424 HR PRECIPITATION (IN):T     24 HR MAX TEMP (F):33 24 HR MAX TEMP TIME (LST):1426 24 HR MIN TEMP (F):23 24 HR MIN TEMP TIME (LST):2359 AVERAGE STATION PRESSURE:29.395 MINIMUM SEA LEVEL PRESSURE:29.45 TIME OF OCCURRENCE:1409 PEAK WIND SPEED (MPH):26  PEAK WIND DIR (DEG):310 PEAK WIND TIME (LST):1938  FASTEST 2MIN SPEED (MPH):22 FASTEST 2MIN DIR (DEG):320 FASTEST 2MIN TIME (LST):1134 AVERAGE WIND SPEED (MPH):9.2  24 HR AVG TEMP (F):28 DEPART FROM NORMAL: +8  HEATING DEGREE DAYS:37  COOLING DEGREE DAYS:0   LATEST DAY MAX TEMP (0700-1900 LST):33  LATEST NIGHT MIN TEMP(1900-0800 LST):25 HOURLY INCREMENTAL PRECIPITATION VALUES (IN):.00 0.00 0.00 0.00 0.00 0.00 0.00 0.00 0.00 0.00 0.00 0.00 0.00 0.00 0.00 0.00 0.00 0.00 T    T    0.00 0.00 0.00 0.00EQDR01     N7GJS072R02     N7GKS075
0236743920146112010010705567+43900-069933FM-15+0023KNHZ V0203005N003152200059N9999999N5-00445-01065100055ADDAA101000095AA206000021GA1045+030485999GD12991+0304859KA1999M-00171KA2999N-00561MA1100005099735MD1140054+9999REMMET11601/07/10 00:56:02 METAR KNHZ 070556Z 30006KT SCT100 M04/M11 A2953 RMK AO2 SLP005 60000 T10441106 11017 21056 51005 $
0161743920146112010010706567+43900-069933FM-15+0023KNHZ V0203205N003152200059N9999999N5-00615-01065100115ADDAA101000095GA1025+036585999GD11991+0365859MA1100035099765REMMET09201/07/10 01:56:02 METAR KNHZ 070656Z 32006KT FEW120 M06/M11 A2954 RMK AO2 SLP011 T10611106 $
0158743920146112010010707567+43900-069933FM-15+0023KNHZ V0202905N002652200059N9999999N5-00565-01065100125ADDAA101000095GA1005+999999999GD10991+9999999MA1100075099795REMMET08901/07/10 02:56:02 METAR KNHZ 070756Z 29005KT CLR M06/M11 A2955 RMK AO2 SLP012 T10561106 $
0178743920146112010010708567+43900-069933FM-15+0023KNHZ V0209999C000052200059N9999999N5-00565-01065100155ADDAA101000095GA1005+999999999GD10991+9999999MA1100105099835MD1140094+9999REMMET09501/07/10 03:56:02 METAR KNHZ 070856Z 00000KT CLR M06/M11 A2956 RMK AO2 SLP015 T10561106 51009 $
0158743920146112010010709567+43900-069933FM-15+0023KNHZ V0202605N002652200059N9999999N5-00725-01115100165ADDAA101000095GA1005+999999999GD10991+9999999MA1100105099835REMMET08901/07/10 04:56:02 METAR KNHZ 070956Z 26005KT CLR M07/M11 A2956 RMK AO2 SLP016 T10721111 $
0197743920146112010010710567+43900-069933FM-15+0023KNHZ V0202505N003152200059N0160935N5-00615-01065100225ADDAA101000095GA1045+045725999GD12991+0457259GF104991999999999999999999MA1100175099905REMMET10201/07/10 05:56:02 METAR KNHZ 071056Z 25006KT 10SM SCT150 M06/M11 A2958 RMK AO2 SLP022 T10611106 $ (CP)
0366743920146112010010711567+43900-069933FM-15+0023KNHZ V0202905N00465060965MN0160935N5-00445-01005100255ADDAA101000095AJ100159599999999GA1025+027435999GA2045+045725999GA3075+060965999GD11991+0274359GD22991+0457259GD33991+0609659GF107991999999999999999999KA1999M-00441KA2999N-00781MA1100205099935MD1340104+9999REMMET15201/07/10 06:56:02 METAR KNHZ 071156Z 29009KT 10SM FEW090 SCT150 BKN200 M04/M10 A2959 RMK AO2 SLP025 ACSL DSNT N 4/006 T10441100 11044 21078 53010 $ (CP)
0288743920146112010010712567+43900-069933FM-15+0023KNHZ V0202805N00365039625MN0160935N5-00505-01005100345ADDAA101000095GA1025+027435999GA2075+039625999GA3075+060965999GD11991+0274359GD23991+0396259GD33991+0609659GF107991999999999999999999MA1100275100005REMMET13101/07/10 07:56:02 METAR KNHZ 071256Z 28007KT 10SM FEW090 BKN130 BKN200 M05/M10 A2961 RMK AO2 SLP034 ACSL DSNT NW-N T10501100 $ (CP)
0314743920146112010010713567+43900-069933FM-15+0023KNHZ V0203105N00515039625MN0160935N5-00335-00895100385ADDAA101000095GA1025+015245999GA2045+030485999GA3075+039625999GD11991+0152459GD22991+0304859GD33991+0396259GD43991+0600019GF107991999999999999999999MA1100305100035OC100885REMMET13401/07/10 08:56:02 METAR KNHZ 071356Z 31010G17KT 10SM FEW050 SCT100 BKN130 M03/M09 A2962 RMK AO2 SLP038 ACSL DSNT NW-N T10331089 $ (CP)
0334743920146112010010714567+43900-069933FM-15+0023KNHZ V0202905N00675039625MN0160935N5-00225-00895100395ADDAA101000095GA1025+015245999GA2045+030485999GA3075+039625999GD11991+0152459GD22991+0304859GD33991+0396259GD43991+0600019GF107991999999999999999999MA1100345100065MD1140144+9999OC101135REMMET14001/07/10 09:56:02 METAR KNHZ 071456Z 29013G22KT 10SM FEW050 SCT100 BKN130 M02/M09 A2963 RMK AO2 SLP039 ACSL DSNT W-NW T10221089 51014 $ (CP)
0315743920146112010010715567+43900-069933FM-15+0023KNHZ V0203105N007252200059N0160935N5-00115-00835100395ADDAA101000095GA1025+015245999GA2045+030485999GA3045+060965999GD11991+0152459GD22991+0304859GD32991+0609659GF104991999999999999999999MA1100345100065OC101035REMMET15001/07/10 10:56:02 METAR KNHZ 071556Z 31014G20KT 10SM FEW050 SCT100 SCT200 M01/M08 A2963 RMK AO2 PK WND 28027/1500 SLP039 ACSL DSNT NW T10111083 $ (CP)
0298743920146112010010716567+43900-069933FM-15+0023KNHZ V0203105N006752200059N0160935N5-00065-00835100355ADDAA101000095GA1025+015245999GA2045+030485999GA3045+060965999GD11991+0152459GD22991+0304859GD32991+0609659GF104991999999999999999999MA1100305100035OC101085REMMET13301/07/10 11:56:02 METAR KNHZ 071656Z 31013G21KT 10SM FEW050 SCT100 SCT200 M01/M08 A2962 RMK AO2 SLP035 ACSL DSNT W-N T10061083 $ (CP)
0404743920146112010010717567+43900-069933FM-15+0023KNHZ V0203005N008852200059N0160935N5+00065-00785100325ADDAA101000095AJ100159599999999GA1025+015245999GA2045+030485999GA3045+045725999GD11991+0152459GD22991+0304859GD32991+0457259GF104991999999999999999999KA1999M+00061KA2999N-00561MA1100275100005MD1840074+9999OC101245REMMET18201/07/10 12:56:02 METAR KNHZ 071756Z 30017G24KT 10SM FEW050 SCT100 SCT150 01/M08 A2961 RMK AO2 PK WND 33028/1736 SLP032 ACSL DSNT SW-N 4/006 933010 T00061078 10006 21056 58007 $ (CP)
0316743920146112010010718567+43900-069933FM-15+0023KNHZ V0203205N006752200059N0160935N5+00005-00835100345ADDAA101000095GA1025+015245999GA2045+030485999GA3045+045725999GD11991+0152459GD22991+0304859GD32991+0457259GF104991999999999999999999MA1100275100005OC101185REMMET15101/07/10 13:56:02 METAR KNHZ 071856Z 32013G23KT 10SM FEW050 SCT100 SCT150 00/M08 A2961 RMK AO2 PK WND 31026/1841 SLP034 ACSL DSNT SW-N T00001083 $ (CP)
0285743920146112010010719567+43900-069933FM-15+0023KNHZ V0202905N006252200059N0160935N5+00005-00785100395ADDAA101000095GA1025+015245999GA2045+039625999GA3045+076205999GD11991+0152459GD22991+0396259GD32991+0762059GF104991999999999999999999MA1100345100065REMMET12801/07/10 14:56:02 METAR KNHZ 071956Z 29012KT 10SM FEW050 SCT130 SCT250 00/M08 A2963 RMK AO2 SLP039 ACSL DSNT NW T00001078 $ (CP)
0236743920146112010010720567+43900-069933FM-15+0023KNHZ V0203005N004652200059N0160935N5-00115-00785100435ADDAA101000095GA1025+030485999GA2045+076205999GD11991+0304859GD22991+0762059GF104991999999999999999999MA1100375100105REMMET11001/07/10 15:56:02 METAR KNHZ 072056Z 30009KT 10SM FEW100 SCT250 M01/M08 A2964 RMK AO2 SLP043 T10111078 $ (RDG)
0198743920146112010010721567+43900-069933FM-15+0023KNHZ V0203205N003652200059N0160935N5-00225-00835100505ADDAA101000095GA1025+030485999GD11991+0304859GF102991999999999999999999MA1100445100175REMMET10301/07/10 16:56:02 METAR KNHZ 072156Z 32007KT 10SM FEW100 M02/M08 A2966 RMK AO2 SLP050 T10221083 $ (RDG)
0164743920146112010010722567+43900-069933FM-15+0023KNHZ V0203405N004152200059N0160935N5-00335-00945100585ADDAA101000095GF100991999999999999999999MA1100515100235REMMET10001/07/10 17:56:02 METAR KNHZ 072256Z 34008KT 10SM CLR M03/M09 A2968 RMK AO2 SLP058 T10331094 $ (RDG)
0279743920146112010010723567+43900-069933FM-15+0023KNHZ V0203305N003652200059N0160935N5-00445-01005100655ADDAA101000095AJ100159599999999GA1025+060965999GD11991+0609659GF102991999999999999999999KA1999M+00061KA2999N-00501MA1100585100305MD1140214+9999REMMET12701/07/10 18:56:02 METAR KNHZ 072356Z 33007KT 10SM FEW200 M04/M10 A2970 RMK AO2 SLP065 4/006 T10441100 10006 21050 51021 $ (RDG)
0181743920146112010010800567+43900-069933FM-15+0023KNHZ V0203205N004652200059N0160935N5-00445-01005100705ADDGA1045+060965999GD12991+0609659GF104991999999999999999999MA1100645100375REMMET09701/07/10 19:56:01 METAR KNHZ 080056Z 32009KT 10SM SCT200 M04/M10 A2972 RMK AO2 SLP070 T10441100 $
0181743920146112010010801567+43900-069933FM-15+0023KNHZ V0203205N005152200059N0160935N5-00415-01115100725ADDGA1045+060965999GD12991+0609659GF104991999999999999999999MA1100645100375REMMET09701/07/10 20:56:01 METAR KNHZ 080156Z 32010KT 10SM SCT200 M04/M11 A2972 RMK AO2 SLP072 T10411111 $
0181743920146112010010802567+43900-069933FM-15+0023KNHZ V0203205N004152200059N0160935N5-00465-01155100725ADDGA1045+060965999GD12991+0609659GF104991999999999999999999MA1100645100375REMMET09701/07/10 21:56:01 METAR KNHZ 080256Z 32008KT 10SM SCT200 M05/M11 A2972 RMK AO2 SLP072 T10461115 $
0156743920146112010010803566+43900-069933FM-15+0023KNHZ V02099999999999999999N9999999N5+99999+99999999999ADDMA1100645100375REMMET09401/07/10 22:56:01 METAR KNHZ 080356Z      KT A2972 RMK AO2 SLPNO PWINO FZRANO TSNO CHINO R01 $EQDR01      7SKY009R02      7GAS009
0166743920146112010010804566+43900-069933FM-15+0023KNHZ V02099999999999999999N9999999N5+99999+99999999999ADDMA1100685100405REMMET10401/07/10 23:56:01 METAR KNHZ 080456Z      KT A2973 RMK AO2 SLPNO 400061078 PWINO FZRANO TSNO CHINO R01 $EQDR01      7SKY009R02      7GAS009
0971743920146112010010804596+43900-069933SOD  +0023KNHZ V020999999999999999999999999999+99999+99999999999ADDAA124000095KA1240M+00065KA2240N-00775MG1099984100034OE11240053632020016OE22240053632020006OE33240045299999995REMSOD75124 HR PRECIPITATION (IN):0.00  24 HR MAX TEMP (F):33 24 HR MAX TEMP TIME (LST):1455 24 HR MIN TEMP (F):18 24 HR MIN TEMP TIME (LST):0547 AVERAGE STATION PRESSURE:29.525 MINIMUM SEA LEVEL PRESSURE:29.54 TIME OF OCCURRENCE:0055 PEAK WIND SPEED (MPH):12  PEAK WIND DIR (DEG):320 PEAK WIND TIME (LST):2001  FASTEST 2MIN SPEED (MPH):12 FASTEST 2MIN DIR (DEG):320 FASTEST 2MIN TIME (LST):2000 AVERAGE WIND SPEED (MPH):10.1 24 HR AVG TEMP (F):26 DEPART FROM NORMAL: +3  HEATING DEGREE DAYS:39  COOLING DEGREE DAYS:0   LATEST DAY MAX TEMP (0700-1900 LST):33  LATEST NIGHT MIN TEMP(1900-0800 LST):18 HOURLY INCREMENTAL PRECIPITATION VALUES (IN):.00 0.00 0.00 0.00 0.00 0.00 0.00 0.00 0.00 0.00 0.00 0.00 0.00 0.00 0.00 0.00 0.00 0.00 0.00 M    M    M    M    MEQDR01      7SKY009R02      7GAS009R03     N7GJS072R04     N7GKS075R05    127OES063R06    127SOE079
0182743920146112010010805566+43900-069933FM-15+0023KNHZ V02099999999999999999N9999999N5+99999+99999999999ADDMA1100645100375MD1040004+9999REMMET10601/08/10 00:56:02 METAR KNHZ 080556Z      KT A2972 RMK AO2 SLPNO 6//// 50000 PWINO FZRANO TSNO CHINO R01 $EQDR01      7SKY009R02      7GAS009
0156743920146112010010806566+43900-069933FM-15+0023KNHZ V02099999999999999999N9999999N5+99999+99999999999ADDMA1100715100445REMMET09401/08/10 01:56:02 METAR KNHZ 080656Z      KT A2974 RMK AO2 SLPNO PWINO FZRANO TSNO CHINO R01 $EQDR01      7SKY009R02      7GAS009
0156743920146112010010807566+43900-069933FM-15+0023KNHZ V02099999999999999999N9999999N5+99999+99999999999ADDMA1100685100405REMMET09401/08/10 02:56:02 METAR KNHZ 080756Z      KT A2973 RMK AO2 SLPNO PWINO FZRANO TSNO CHINO R01 $EQDR01      7SKY009R02      7GAS009
0182743920146112010010808566+43900-069933FM-15+0023KNHZ V02099999999999999999N9999999N5+99999+99999999999ADDMA1100645100375MD1040004+9999REMMET10601/08/10 03:56:02 METAR KNHZ 080856Z      KT A2972 RMK AO2 SLPNO 6//// 50000 PWINO FZRANO TSNO CHINO R01 $EQDR01      7SKY009R02      7GAS009
0156743920146112010010809566+43900-069933FM-15+0023KNHZ V02099999999999999999N9999999N5+99999+99999999999ADDMA1100645100375REMMET09401/08/10 04:56:02 METAR KNHZ 080956Z      KT A2972 RMK AO2 SLPNO PWINO FZRANO TSNO CHINO R01 $EQDR01      7SKY009R02      7GAS009
0135743920146112010010810097+43900-069933FM-16+0023KNHZ V0209999C000052200059N0160935N5-01205-01605999999ADDGF100991999999999999999999MA1100615100345REMMET08201/08/10 05:09:02 SPECI KNHZ 081009Z 00000KT 10SM CLR M12/M16 A2971 RMK AO2 $ (CT)
0186743920146112010010810567+43900-069933FM-15+0023KNHZ V0209999C000052200059N0160935N5-01125-01595100705ADDGA1045+060965999GD12991+0609659GF104991999999999999999999MA1100645100375REMMET10201/08/10 05:56:02 METAR KNHZ 081056Z 00000KT 10SM SCT200 M11/M16 A2972 RMK AO2 SLP070 T11121159 $ (CT)
0305743920146112010010811567+43900-069933FM-15+0023KNHZ V0209999C00005060965MN0160935N5-00955-01195100735ADDAJ100159599999999GA1025+009145999GA2045+030485999GA3075+060965999GD11991+0091459GD22991+0304859GD33991+0609659GF107991999999999999999999MA1100685100405MD1340014+9999REMMET12801/08/10 06:56:02 METAR KNHZ 081156Z 00000KT 10SM FEW030 SCT100 BKN200 M09/M12 A2973 RMK AO2 SLP073 4/006 T10951119 53001 $ (CT)
0224743920146112010010812567+43900-069933FM-15+0023KNHZ V0209999C00005060965MN0160935N5-00955-01395100755ADDGA1025+009145999GA2075+060965999GD11991+0091459GD23991+0609659GF107991999999999999999999MA1100685100405REMMET10901/08/10 07:56:02 METAR KNHZ 081256Z 00000KT 10SM FEW030 BKN200 M09/M14 A2973 RMK AO2 SLP075 T10951139 $ (CT)
0235743920146112010010813567+43900-069933FM-15+0023KNHZ V0200105N00155054865MN0160935N5-01005-01225100745ADDAA101000095GA1025+015245999GA2075+054865999GD11991+0152459GD23991+0548659GF107991999999999999999999MA1100685100405REMMET10901/08/10 08:56:02 METAR KNHZ 081356Z 01003KT 10SM FEW050 BKN180 M10/M12 A2973 RMK AO2 SLP074 T11001122 $ (CT)
0255743920146112010010814567+43900-069933FM-15+0023KNHZ V0200205N00155048775MN0160935N5-00895-01175100695ADDAA101000095GA1025+015245999GA2085+048775999GD11991+0152459GD24991+0487759GF108991999999999999999999MA1100645100375MD1840044+9999REMMET11501/08/10 09:56:02 METAR KNHZ 081456Z 02003KT 10SM FEW050 OVC160 M09/M12 A2972 RMK AO2 SLP069 T10891117 58004 $ (CT)
0272743920146112010010815567+43900-069933FM-15+0023KNHZ V0200205N00155045725MN0160935N5-00725-01175999999ADDAA101000095GA1025+015245999GA2045+027435999GA3085+045725999GD11991+0152459GD22991+0274359GD34991+0457259GF108991999999999999999999MA1100545100275REMMET11501/08/10 10:56:02 METAR KNHZ 081556Z 02003KT 10SM FEW050 SCT090 OVC150 M07/M12 A2969 RMK AO2 SLPNO T10721117 $ (CT)
0195743920146112010010816567+43900-069933FM-15+0023KNHZ V0203605N00155039625MN0160935N5-00565-01115999999ADDGA1085+039625999GD14991+0396259GF108991999999999999999999MA1100415100135REMMET11101/08/10 11:56:02 METAR KNHZ 081656Z 36003KT 10SM OVC130 M06/M11 A2965 RMK AO2 SLPNO T10561111 CHINO R01 $ (CT)
0358743920146112010010817567+43900-069933FM-15+0023KNHZ V0200205N00155039625MN0160935N5-00405-01145999999ADDAJ100159599999999GA1045+022865999GA2075+039625999GA3085+060965999GD12991+0228659GD23991+0396259GD34991+0609659GF108991999999999999999999KA1999M-00401KA2999N-01001MA1100305100035MD1640314+9999REMMET15501/08/10 12:56:02 METAR KNHZ 081756Z 02003KT 10SM SCT075 BKN130 OVC200 M04/M11 A2962 RMK AO2 SLPNO VCSH S-W 4/006 933012 T10401114 11040 21100 56031 $ (CP)
0294743920146112010010818267+43900-069933FM-16+0023KNHZ V0200205N00155022865MN0112655N5-00405-01205999999ADDAA101000021AU110030015AW1715GA1025+009145999GA2075+022865999GA3085+039625999GD11991+0091459GD23991+0228659GD34991+0396259GF108991999999999999999999MA1100305100035MW1711REMMET11401/08/10 13:26:02 SPECI KNHZ 081826Z 02003KT 7SM -SN FEW030 BKN075 OVC130 M04/M12 A2962 RMK AO2 SNB26 P0000 $ (CP)
