0160743945147102011010100537+42933-071438FM-15+0071KMHT V0209999C000052200059N0160935N5+00225-00115101935ADDAA101000095GF100991999999999999999999MA1101765100915REMMET09612/31/10 19:53:03 METAR KMHT 010053Z 00000KT 10SM CLR 02/M01 A3005 RMK AO2 SLP193 T00221011 (JS)
0159743945147102011010101537+42933-071438FM-15+0071KMHT V0209999C000052200059N0112655N5+00115-00175101955ADDAA101000095GF100991999999999999999999MA1101765100915REMMET09512/31/10 20:53:03 METAR KMHT 010153Z 00000KT 7SM CLR 01/M02 A3005 RMK AO2 SLP195 T00111017 (JS)
0179743945147102011010102537+42933-071438FM-15+0071KMHT V0209999C000052200059N0128755N5+00065-00175101885ADDAA101000095GF100991999999999999999999MA1101695100845MD1840044+9999REMMET10112/31/10 21:53:03 METAR KMHT 010253Z 00000KT 8SM CLR 01/M02 A3003 RMK AO2 SLP188 T00061017 58004 (JS)
0160743945147102011010103537+42933-071438FM-15+0071KMHT V0209999C000052200059N0112655N5-00065-00225101835ADDAA101000095GF100991999999999999999999MA1101665100815REMMET09612/31/10 22:53:03 METAR KMHT 010353Z 00000KT 7SM CLR M01/M02 A3002 RMK AO2 SLP183 T10061022 (RN)
0196743945147102011010104537+42933-071438FM-15+0071KMHT V0209999C000052200059N0096565N5-00065-00225101835ADDAA101000095AU100001015AW1105GF100991999999999999999999MA1101665100815MW1101REMMET10912/31/10 23:53:03 METAR KMHT 010453Z 00000KT 6SM BR CLR M01/M02 A3002 RMK AO2 SLP183 T10061022 400941061 (RN)
0961743945147102011010104596+42933-071438SOD  +0071KMHT V020999999999999999999999999999+99999+99999999999ADDAA124000095AJ100089599999999AX1015245AX2085245KA1240M+00945KA2240N-00605MG1100934100954OE11240040232023115OE22240035832023125OE33240002799999995REMSOD77024 HR PRECIPITATION (IN):0.00  SNOW DEPTH (IN):3    WEATHER(CODE):1,8  24 HR MAX TEMP (F):49 24 HR MAX TEMP TIME (LST):1520 24 HR MIN TEMP (F):21 24 HR MIN TEMP TIME (LST):0115 AVERAGE STATION PRESSURE:29.805 MINIMUM SEA LEVEL PRESSURE:29.81 TIME OF OCCURRENCE:2359 PEAK WIND SPEED (MPH):9   PEAK WIND DIR (DEG):320 PEAK WIND TIME (LST):2311  FASTEST 2MIN SPEED (MPH):8  FASTEST 2MIN DIR (DEG):320 FASTEST 2MIN TIME (LST):2312 AVERAGE WIND SPEED (MPH):0.6  24 HR AVG TEMP (F):35 HEATING DEGREE DAYS:30  COOLING DEGREE DAYS:0   LATEST DAY MAX TEMP (0700-1900 LST):49  LATEST NIGHT MIN TEMP(1900-0800 LST):21 HOURLY INCREMENTAL PRECIPITATION VALUES (IN):.00 0.00 0.00 0.00 0.00 0.00 0.00 0.00 0.00 0.00 0.00 0.00 0.00 0.00 0.00 0.00 0.00 0.00 0.00 0.00 0.00 0.00 0.00 0.00EQDR01     N7GJS072R02     N7GKS075
1260743945147102011010104596+42933-071438SOM  +0071KMHT V020999999999999999999999999999+99999+99999999999ADDAB10051196AD10034091213999999996AE1075045015015AH1005001391223175AH2010002391223195AH3015002891223235AH4020003391223235AH5030004191223395AH6045005691223525AI1060006991223525AI2080007991300025AI3100008491300145AI4120008691300145AI5150010791300025AI6180011491300145KB1744N-05565KB2744M+02335KB3744A-01615KC1N9-01221099995KC2M9+01271299995KD1744H11075KD2744C00005KE1105005295005MH1099934100914MK1103281008255098172706455REMSOM796PCP MTOT:2.01 PCP GT 24HRS:1.34 DATE(S):12-13 DAYS W/PCP >=.01:7  DAYS W/PCP >=.10:4  DAYS W/ PCP >=.50:1 DAYS W/PCP >=1.00:1 MSDP AMTS W/DATE-TIME TAGS:MIN:5 0.05  12/2317 MIN:10 0.09  12/2319 MIN:15 0.11  12/2323 MIN:20 0.13  12/2323 MIN:30 0.16  12/2339 MIN:45 0.22  12/2352 MIN:60 0.27  12/2352 MIN:80 0.31  13/0002 MIN:100 0.33  13/0014 MIN:120 0.34  13/0014 MIN:150 0.42  13/0002 MIN:180 0.45  13/0014 AVG DLY MIN:22.0  AVG DLY MAX:36.2  AVG MLY TMP:29.1  MIN TMP:10 DATE(S):10 MAX TMP:55  DATE(S):12 DAYS MAX <=32:1 DAYS MAX >=90:0  DAYS MIN <=32:29 DAYS MIN  <=0:0  AVG STP:29.510 LWST SLP:28.99 DATE/TIME:270645 HGST SLP:30.50 DATE/TIME:100825 HDD MTH TOT:1107 DEP NORM:-2553 SEASON(JUL 1-JUN 30):2301 DEP NORM:+24445 CDD MTH TOT:0 DEP NORM:-2553 SEASON(JAN 1-DEC 31):967 DEP NORM:-20281EQDR01  2.017ABP070R02  1.347ADP081
0301743945147102011010105537+42933-071438FM-15+0071KMHT V0209999C000052200059N0096565N5-00115-00225101795ADDAA101000095AJ100059599999999AU100001015AW1105GA1045+028965999GD12991+0289659GF104991999999999999999999KA1999M+00281KA2999N-00171MA1101635100775MD1640084+9999MW1101REMMET12601/01/11 00:53:02 METAR KMHT 010553Z 00000KT 6SM BR SCT095 M01/M02 A3001 RMK AO2 SLP179 4/002 T10111022 10028 21017 56008 (RN)
0220743945147102011010106537+42933-071438FM-15+0071KMHT V0209999C00005030485MN0096565N5-00065-00175101795ADDAA101000095AU100001015AW1105GA1075+030485999GD13991+0304859GF107991999999999999999999MA1101635100775MW1101REMMET10201/01/11 01:53:02 METAR KMHT 010653Z 00000KT 6SM BR BKN100 M01/M02 A3001 RMK AO2 SLP179 T10061017 (RN)
0219743945147102011010107537+42933-071438FM-15+0071KMHT V0201505N00155027435MN0080475N5+00005-00175101785ADDAA101000095AU100001015AW1105GA1075+027435999GD13991+0274359GF107991999999999999999999MA1101635100775MW1101REMMET10101/01/11 02:53:02 METAR KMHT 010753Z 15003KT 5SM BR BKN090 00/M02 A3001 RMK AO2 SLP178 T00001017 (RN)
0239743945147102011010108537+42933-071438FM-15+0071KMHT V0209999C00005027435MN0080475N5+00065-00115101825ADDAA101000095AU100001015AW1105GA1075+027435999GD13991+0274359GF107991999999999999999999MA1101665100815MD1340044+9999MW1101REMMET10701/01/11 03:53:02 METAR KMHT 010853Z 00000KT 5SM BR BKN090 01/M01 A3002 RMK AO2 SLP182 T00061011 53004 (RN)
0219743945147102011010109537+42933-071438FM-15+0071KMHT V0209999C00005033535MN0080475N5+00115-00115101875ADDAA101000095AU100001015AW1105GA1085+033535999GD14991+0335359GF108991999999999999999999MA1101695100845MW1101REMMET10101/01/11 04:53:02 METAR KMHT 010953Z 00000KT 5SM BR OVC110 01/M01 A3003 RMK AO2 SLP187 T00111011 (RN)
0257743945147102011010110537+42933-071438FM-15+0071KMHT V0209999C00005015245MN0080475N5+00115-00115101915ADDAA101000095AU100001015AW1105GA1075+015245999GA2075+033535999GD13991+0152459GD23991+0335359GF107991999999999999999999MA1101735100875MW1101REMMET10801/01/11 05:53:02 METAR KMHT 011053Z 00000KT 5SM BR BKN050 BKN110 01/M01 A3004 RMK AO2 SLP191 T00111011 (CD)
0300743945147102011010111537+42933-071438FM-15+0071KMHT V0209999C000052200059N0080475N5+00115-00115101915ADDAA101000095AJ100059599999999AU100001015AW1105GA1025+014025999GD11991+0140259GF102991999999999999999999KA1999M+00171KA2999N-00111MA1101735100875MD1140084+9999MW1101REMMET12501/01/11 06:53:02 METAR KMHT 011153Z 00000KT 5SM BR FEW046 01/M01 A3004 RMK AO2 SLP191 4/002 T00111011 10017 21011 51008 (CD)
0219743945147102011010112537+42933-071438FM-15+0071KMHT V0209999C000052200059N0064375N5+00115-00115101925ADDAA101000095AU100001015AW1105GA1025+018295999GD11991+0182959GF102991999999999999999999MA1101765100915MW1101REMMET10101/01/11 07:53:02 METAR KMHT 011253Z 00000KT 4SM BR FEW060 01/M01 A3005 RMK AO2 SLP192 T00111011 (CD)
0178743945147102011010113537+42933-071438FM-15+0071KMHT V0209999C000052200059N0064375N5+00335+00005101955ADDAA101000095AU100007015GF100991999999999999999999MA1101765100915MW1055REMMET09701/01/11 08:53:02 METAR KMHT 011353Z 00000KT 4SM HZ CLR 03/00 A3005 RMK AO2 SLP195 T00330000 (CD)
0178743945147102011010114537+42933-071438FM-15+0071KMHT V0201305N002652200059N0112655N5+00725+00285102005ADDAA101000095GF100991999999999999999999MA1101835100975MD1340094+9999REMMET10001/01/11 09:53:02 METAR KMHT 011453Z 13005KT 7SM CLR 07/03 A3007 RMK AO2 SLP200 T00720028 53009 (CD)
0158743945147102011010115537+42933-071438FM-15+0071KMHT V0209999C000052200059N0128755N5+01115+00505101935ADDAA101000095GF100991999999999999999999MA1101765100915REMMET09401/01/11 10:53:02 METAR KMHT 011553Z 00000KT 8SM CLR 11/05 A3005 RMK AO2 SLP193 T01110050 (CD)
0192743945147102011010116537+42933-071438FM-15+0071KMHT V0202505N001552200059N0112655N5+01225+00505101855ADDAA101000095GA1045+025915999GD12991+0259159GF104991999999999999999999MA1101695100845REMMET09701/01/11 11:53:02 METAR KMHT 011653Z 25003KT 7SM SCT085 12/05 A3003 RMK AO2 SLP185 T01220050 (CD)
0216743945147102011010117537+42933-071438FM-15+0071KMHT V0209999C000052200059N0128755N5+01335+00565101825ADDAA101000095GF100991999999999999999999KA1999M+01331KA2999N+00001MA1101665100815MD1640174+9999REMMET11201/01/11 12:53:02 METAR KMHT 011753Z 00000KT 8SM CLR 13/06 A3002 RMK AO2 SLP182 T01330056 10133 20000 56017 (CD)
0153743945147102011010117557+42933-071438FM-16+0071KMHT V0209999C000052200059N0128755N5+01305+00605999999ADDAJ100059199999999GF100991999999999999999999MA1101665100815REMMET08301/01/11 12:55:02 SPECI KMHT 011755Z 00000KT 8SM CLR 13/06 A3002 RMK AO2 4/002 (CD)
0159743945147102011010118537+42933-071438FM-15+0071KMHT V0201405N001552200059N0160935N5+01175+00565101775ADDAA101000095GF100991999999999999999999MA1101595100745REMMET09501/01/11 13:53:02 METAR KMHT 011853Z 14003KT 10SM CLR 12/06 A3000 RMK AO2 SLP177 T01170056 (DW)
0159743945147102011010119537+42933-071438FM-15+0071KMHT V0209999C000052200059N0160935N5+01065+00565101785ADDAA101000095GF100991999999999999999999MA1101635100775REMMET09501/01/11 14:53:02 METAR KMHT 011953Z 00000KT 10SM CLR 11/06 A3001 RMK AO2 SLP178 T01060056 (DW)
0179743945147102011010120537+42933-071438FM-15+0071KMHT V0209999C000052200059N0160935N5+00835+00505101765ADDAA101000095GF100991999999999999999999MA1101595100745MD1640074+9999REMMET10101/01/11 15:53:02 METAR KMHT 012053Z 00000KT 10SM CLR 08/05 A3000 RMK AO2 SLP176 T00830050 56007 (DW)
0193743945147102011010121537+42933-071438FM-15+0071KMHT V0201505N001552200059N0160935N5+00785+00505101725ADDAA101000095GA1045+030485999GD12991+0304859GF104991999999999999999999MA1101565100715REMMET09801/01/11 16:53:02 METAR KMHT 012153Z 15003KT 10SM SCT100 08/05 A2999 RMK AO2 SLP172 T00780050 (DW)
0193743945147102011010122537+42933-071438FM-15+0071KMHT V0209999C000052200059N0160935N5+00725+00445101695ADDAA101000095GA1045+036585999GD12991+0365859GF104991999999999999999999MA1101525100675REMMET09801/01/11 17:53:02 METAR KMHT 012253Z 00000KT 10SM SCT120 07/04 A2998 RMK AO2 SLP169 T00720044 (DW)
0250743945147102011010123537+42933-071438FM-15+0071KMHT V0201405N003152200059N0112655N5+00675+00395101615ADDAA101000095GA1025+036585999GD11991+0365859GF102991999999999999999999KA1999M+01391KA2999N+00561MA1101465100605MD1840144+9999REMMET11501/01/11 18:53:02 METAR KMHT 012353Z 14006KT 7SM FEW120 07/04 A2996 RMK AO2 SLP161 T00670039 10139 20056 58014 (DW)
0187743945147102011010200537+42933-071438FM-15+0071KMHT V0209999C00005036585MN0112655N5+00565+00335101575ADDAA101000095GA1075+036585999GD13991+0365859GF107991999999999999999999MA1101425100575REMMET09201/01/11 19:53:01 METAR KMHT 020053Z 00000KT 7SM BKN120 06/03 A2995 RMK AO2 SLP157 T00560033
0187743945147102011010201537+42933-071438FM-15+0071KMHT V0209999C00005036585MN0112655N5+00505+00285101615ADDAA101000095GA1075+036585999GD13991+0365859GF107991999999999999999999MA1101465100605REMMET09201/01/11 20:53:01 METAR KMHT 020153Z 00000KT 7SM BKN120 05/03 A2996 RMK AO2 SLP161 T00500028
0207743945147102011010202537+42933-071438FM-15+0071KMHT V0201805N00215036585MN0128755N5+00565+00285101505ADDAA101000095GA1075+036585999GD13991+0365859GF107991999999999999999999MA1101355100505MD1840104+9999REMMET09801/01/11 21:53:01 METAR KMHT 020253Z 18004KT 8SM BKN120 06/03 A2993 RMK AO2 SLP150 T00560028 58010
0187743945147102011010203537+42933-071438FM-15+0071KMHT V0209999C00005033535MN0128755N5+00675+00335101505ADDAA101000095GA1085+033535999GD14991+0335359GF108991999999999999999999MA1101355100505REMMET09201/01/11 22:53:01 METAR KMHT 020353Z 00000KT 8SM OVC110 07/03 A2993 RMK AO2 SLP150 T00670033
0197743945147102011010204537+42933-071438FM-15+0071KMHT V0200105N00155036585MN0112655N5+00505+00285101465ADDAA101000095GA1085+036585999GD14991+0365859GF108991999999999999999999MA1101325100475REMMET10201/01/11 23:53:01 METAR KMHT 020453Z 01003KT 7SM OVC120 05/03 A2992 RMK AO2 SLP146 T00500028 401391017
0961743945147102011010204596+42933-071438SOD  +0071KMHT V020999999999999999999999999999+99999+99999999999ADDAA124000095AJ100009599999999AX1015245AX2085245KA1240M+01395KA2240N-00165MG1100764101464OE11240040215018585OE22240035815019035OE33240006399999995REMSOD77024 HR PRECIPITATION (IN):0.00  SNOW DEPTH (IN):0    WEATHER(CODE):1,8  24 HR MAX TEMP (F):57 24 HR MAX TEMP TIME (LST):1428 24 HR MIN TEMP (F):29 24 HR MIN TEMP TIME (LST):0020 AVERAGE STATION PRESSURE:29.755 MINIMUM SEA LEVEL PRESSURE:29.96 TIME OF OCCURRENCE:2359 PEAK WIND SPEED (MPH):9   PEAK WIND DIR (DEG):150 PEAK WIND TIME (LST):1858  FASTEST 2MIN SPEED (MPH):8  FASTEST 2MIN DIR (DEG):150 FASTEST 2MIN TIME (LST):1903 AVERAGE WIND SPEED (MPH):1.4  24 HR AVG TEMP (F):43 HEATING DEGREE DAYS:22  COOLING DEGREE DAYS:0   LATEST DAY MAX TEMP (0700-1900 LST):57  LATEST NIGHT MIN TEMP(1900-0800 LST):29 HOURLY INCREMENTAL PRECIPITATION VALUES (IN):.00 0.00 0.00 0.00 0.00 0.00 0.00 0.00 0.00 0.00 0.00 0.00 0.00 0.00 0.00 0.00 0.00 0.00 0.00 0.00 0.00 0.00 0.00 0.00EQDR01     N7GJS072R02     N7GKS075
0276743945147102011010205537+42933-071438FM-15+0071KMHT V0209999C00005027435MN0096565N5+00505+00285101425ADDAA101000095AU100001015AW1105GA1085+027435999GD14991+0274359GF108991999999999999999999KA1999M+00831KA2999N+00391MA1101295100445MD1840064+9999MW1101REMMET11801/02/11 00:53:02 METAR KMHT 020553Z 00000KT 6SM BR OVC090 05/03 A2991 RMK AO2 SLP142 T00500028 10083 20039 58006 (ME)
0218743945147102011010206537+42933-071438FM-15+0071KMHT V0209999C000052200059N0096565N5+00335+00175101405ADDAA101000095AU100001015AW1105GA1045+033535999GD12991+0335359GF104991999999999999999999MA1101255100405MW1101REMMET10001/02/11 01:53:02 METAR KMHT 020653Z 00000KT 6SM BR SCT110 03/02 A2990 RMK AO2 SLP140 T00330017 (ME)
0271743945147102011010207537+42933-071438FM-15+0071KMHT V0209999C00005016765MN0096565N5+00335+00225101425ADDAA101000025AU100001015AW1105GA1075+016765999GA2085+033535999GD13991+0167659GD24991+0335359GF108991999999999999999999MA1101255100405MW1101REMMET12201/02/11 02:53:02 METAR KMHT 020753Z 00000KT 6SM BR BKN055 OVC110 03/02 A2990 RMK AO2 RAB37E48 SLP142 P0000 T00330022 (ME)
0293743945147102011010208537+42933-071438FM-15+0071KMHT V0209999C00005016765MN0096565N5+00335+00225101355ADDAA101000095AA203000021AU100001015AW1105GA1075+016765999GA2085+033535999GD13991+0167659GD24991+0335359GF108991999999999999999999MA1101195100345MD1840084+9999MW1101REMMET11901/02/11 03:53:02 METAR KMHT 020853Z 00000KT 6SM BR BKN055 OVC110 03/02 A2988 RMK AO2 SLP135 60000 T00330022 58008 (ME)
0333743945147102011010209537+42933-071438FM-15+0071KMHT V0209999C00005018295MN0064375N5+00335+00175101405ADDAA101000025AU110020015AU200001015AW1105AW2615GA1025+010365999GA2075+018295999GA3085+033535999GD11991+0103659GD23991+0182959GD34991+0335359GF108991999999999999999999MA1101255100405MW1101MW2611REMMET13001/02/11 04:53:02 METAR KMHT 020953Z 00000KT 4SM -RA BR FEW034 BKN060 OVC110 03/02 A2990 RMK AO2 RAB25 SLP140 P0000 T00330017 (ME)
0306743945147102011010210537+42933-071438FM-15+0071KMHT V0209999C00005013115MN0048285N5+00335+00225101365ADDAA101000025AU100001015AW1105GA1025+004575999GA2075+013115999GA3085+027435999GD11991+0045759GD23991+0131159GD34991+0274359GF108991999999999999999999MA1101195100345MW1101REMMET12601/02/11 05:53:02 METAR KMHT 021053Z 00000KT 3SM BR FEW015 BKN043 OVC090 03/02 A2988 RMK AO2 RAE41 SLP136 P0000 T00330022 (ME)
0327743945147102011010211537+42933-071438FM-15+0071KMHT V0209999C00005009455MN0048285N5+00335+00285101355ADDAA101000025AA206000021AU100001015AW1105GA1085+009455999GD14991+0094559GF108991999999999999999999KA1999M+00501KA2999N+00281MA1101195100345MD1840014+9999MW1101REMMET13901/02/11 06:53:02 METAR KMHT 021153Z 00000KT 3SM BR OVC031 03/03 A2988 RMK AO2 RAB00E12 SLP135 P0000 60000 T00330028 10050 20028 58001 (BB)EQDQ01  00008PRCP06
0218743945147102011010212537+42933-071438FM-15+0071KMHT V0209999C00005009455MN0048285N5+00395+00285101375ADDAA101000095AU100001015AW1105GA1085+009455999GD14991+0094559GF108991999999999999999999MA1101225100375MW1101REMMET10001/02/11 07:53:02 METAR KMHT 021253Z 00000KT 3SM BR OVC031 04/03 A2989 RMK AO2 SLP137 T00390028 (BB)
0204743945147102011010213007+42933-071438FM-16+0071KMHT V0209999C00005008235MN0024145N5+00405+00305999999ADDAU100001015AW1105GA1085+008235999GD14991+0082359GF108991999999999999999999MA1101225100375MW1101REMMET09701/02/11 08:00:02 SPECI KMHT 021300Z 00000KT 1 1/2SM BR OVC027 04/03 A2989 RMK AO2 TWR VIS 3 (BB)
0190743945147102011010213077+42933-071438FM-16+0071KMHT V0209999C00005009455MN0048285N5+00405+00305999999ADDAU100001015AW1105GA1085+009455999GD14991+0094559GF108991999999999999999999MA1101255100405MW1101REMMET08301/02/11 08:07:02 SPECI KMHT 021307Z 00000KT 3SM BR OVC031 04/03 A2990 RMK AO2 (BB)
0246743945147102011010213537+42933-071438FM-15+0071KMHT V0209999C00005009455MN0048285N5+00395+00335101485ADDAA101000095AU100001015AW1105ED135U18299GA1085+009455999GD14991+0094559GF108991999999999999999999MA1101325100475MW1101REMMET11701/02/11 08:53:02 METAR KMHT 021353Z 00000KT 3SM R35/6000VP6000FT BR OVC031 04/03 A2992 RMK AO2 SLP148 T00390033 (BB)
0228743945147102011010214047+42933-071438FM-16+0071KMHT V0209999C00005007625MN0048285N5+00405+00305999999ADDAU100001015AW1105GA1075+007625999GA2085+010675999GD13991+0076259GD24991+0106759GF108991999999999999999999MA1101295100445MW1101REMMET09001/02/11 09:04:02 SPECI KMHT 021404Z 00000KT 3SM BR BKN025 OVC035 04/03 A2991 RMK AO2 (BB)
0294743945147102011010214487+42933-071438FM-16+0071KMHT V0209999C00005011285MN0048285N5+00405+00405999999ADDAU100001015AW1105ED135U18299GA1045+009145999GA2075+011285999GA3085+013725999GD12991+0091459GD23991+0112859GD34991+0137259GF108991999999999999999999MA1101325100475MW1101REMMET11401/02/11 09:48:02 SPECI KMHT 021448Z 00000KT 3SM R35/6000VP6000FT BR SCT030 BKN037 OVC045 04/04 A2992 RMK AO2 (BB)
0342743945147102011010214537+42933-071438FM-15+0071KMHT V0209999C00005011285MN0048285N5+00445+00395101485ADDAA101000095AU100001015AW1105ED135U18299GA1045+009145999GA2075+011285999GA3085+013725999GD12991+0091459GD23991+0112859GD34991+0137259GF108991999999999999999999MA1101325100475MD1040104+9999MW1101REMMET13701/02/11 09:53:02 METAR KMHT 021453Z 00000KT 3SM R35/6000VP6000FT BR SCT030 BKN037 OVC045 04/04 A2992 RMK AO2 SLP148 T00440039 50010 (BB)
0257743945147102011010215537+42933-071438FM-15+0071KMHT V0209999C00005019815MN0064375N5+00505+00395101355ADDAA101000025AU110020015AU200001015AW1105AW2615GA1085+019815999GD14991+0198159GF108991999999999999999999MA1101225100375MW1101MW2611REMMET11601/02/11 10:53:02 METAR KMHT 021553Z 00000KT 4SM -RA BR OVC065 05/04 A2989 RMK AO2 RAB47 SLP135 P0000 T00500039 (BB)
0300743945147102011010216537+42933-071438FM-15+0071KMHT V0209999C00005021345MN0064375N5+00675+00505101295ADDAA101000025AU110020015AU200001015AW1105AW2615GA1025+015245999GA2085+021345999GD11991+0152459GD24991+0213459GF108991999999999999999999MA1101155100305MW1101MW2611REMMET12801/02/11 11:53:02 METAR KMHT 021653Z 00000KT 4SM -RA BR FEW050 OVC070 07/05 A2987 RMK AO2 RAE1559B30 SLP129 P0000 T00670050 (BB)
0324743945147102011010217537+42933-071438FM-15+0071KMHT V0209999C00005030485MN0064375N5+00725+00565101205ADDAA101000095AA206000021AU100001015AW1105GA1085+030485999GD14991+0304859GF108991999999999999999999KA1999M+00721KA2999N+00331MA1101055100205MD1640274+9999MW1101REMMET13601/02/11 12:53:02 METAR KMHT 021753Z 00000KT 4SM BR OVC100 07/06 A2984 RMK AO2 RAE00 SLP120 P0000 60000 T00720056 10072 20033 56027 (BB)EQDQ01  00008PRCP06
0228743945147102011010218537+42933-071438FM-15+0071KMHT V0209999C00005024385MN0048285N5+00785+00615101235ADDAA101000095AU100001015AW1105GA1085+024385999GD14991+0243859GF108991999999999999999999MA1101085100235MW1101REMMET11001/02/11 13:53:02 METAR KMHT 021853Z 00000KT 3SM BR OVC080 08/06 A2985 RMK AO2 TWR VIS 4 SLP123 T00780061 (PJ)
0218743945147102011010219537+42933-071438FM-15+0071KMHT V0209999C00005024385MN0080475N5+00675+00565101145ADDAA101000095AU100001015AW1105GA1075+024385999GD13991+0243859GF107991999999999999999999MA1100985100135MW1101REMMET10001/02/11 14:53:02 METAR KMHT 021953Z 00000KT 5SM BR BKN080 07/06 A2982 RMK AO2 SLP114 T00670056 (PJ)
0242743945147102011010220347+42933-071438FM-16+0071KMHT V0209999C000052200059N0040235N5+00705+00605999999ADDAU100001015AW1105GA1025+030485999GA2045+036585999GD11991+0304859GD22991+0365859GF104991999999999999999999MA1100985100135MW1101REMMET10401/02/11 15:34:02 SPECI KMHT 022034Z 00000KT 2 1/2SM BR FEW100 SCT120 07/06 A2982 RMK AO2 TWR VIS 4 (PJ)
0190743945147102011010220447+42933-071438FM-16+0071KMHT V0209999C000052200059N0064375N5+00705+00605999999ADDAU100001015AW1105GA1025+030485999GD11991+0304859GF102991999999999999999999MA1100985100135MW1101REMMET08301/02/11 15:44:02 SPECI KMHT 022044Z 00000KT 4SM BR FEW100 07/06 A2982 RMK AO2 (PJ)
0212743945147102011010220537+42933-071438FM-15+0071KMHT V0209999C000052200059N0112655N5+00615+00565101135ADDAA101000095GA1045+033535999GD12991+0335359GF104991999999999999999999MA1100985100135MD1840084+9999REMMET10301/02/11 15:53:02 METAR KMHT 022053Z 00000KT 7SM SCT110 06/06 A2982 RMK AO2 SLP113 T00610056 58008 (PJ)
0192743945147102011010221537+42933-071438FM-15+0071KMHT V0202005N00265030485MN0112655N5+00725+00565101135ADDAA101000095GA1085+030485999GD14991+0304859GF108991999999999999999999MA1100985100135REMMET09701/02/11 16:53:02 METAR KMHT 022153Z 20005KT 7SM OVC100 07/06 A2982 RMK AO2 SLP113 T00720056 (PJ)
0192743945147102011010222537+42933-071438FM-15+0071KMHT V0209999C00005030485MN0128755N5+00395+00335100995ADDAA101000095GA1075+030485999GD13991+0304859GF107991999999999999999999MA1100815099975REMMET09701/02/11 17:53:02 METAR KMHT 022253Z 00000KT 8SM BKN100 04/03 A2977 RMK AO2 SLP099 T00390033 (PJ)
0276743945147102011010223537+42933-071438FM-15+0071KMHT V0209999C00005033535MN0080475N5+00505+00395101005ADDAA101000095AU100001015AW1105GA1085+033535999GD14991+0335359GF108991999999999999999999KA1999M+00781KA2999N+00391MA1100855100005MD1540134+9999MW1101REMMET11801/02/11 18:53:02 METAR KMHT 022353Z 00000KT 5SM BR OVC110 05/04 A2978 RMK AO2 SLP100 T00500039 10078 20039 55013 (PJ)
0188743945147102011010300537+42933-071438FM-15+0071KMHT V0202905N00265030485MN0160935N5+00565+00005101125ADDAA101000095GA1075+030485999GD13991+0304859GF107991999999999999999999MA1100955100105REMMET09301/02/11 19:53:01 METAR KMHT 030053Z 29005KT 10SM BKN100 06/00 A2981 RMK AO2 SLP112 T00560000
0189743945147102011010301537+42933-071438FM-15+0071KMHT V0203105N00365030485MN0160935N5+00445-00175101065ADDAA101000095GA1085+030485999GD14991+0304859GF108991999999999999999999MA1100885100035REMMET09401/02/11 20:53:01 METAR KMHT 030153Z 31007KT 10SM OVC100 04/M02 A2979 RMK AO2 SLP106 T00441017
0220743945147102011010302537+42933-071438FM-15+0071KMHT V0202705V00365030485MN0160935N5+00395-00285101145ADDAA101000095GA1085+030485999GD14991+0304859GF108991999999999999999999MA1100985100135MD1140134+9999OC100725REMMET10301/02/11 21:53:01 METAR KMHT 030253Z 27007G14KT 10SM OVC100 04/M03 A2982 RMK AO2 SLP114 T00391028 51013
0200743945147102011010303537+42933-071438FM-15+0071KMHT V0202905N004152200059N0160935N5+00285-00445101095ADDAA101000095GA1025+033535999GD11991+0335359GF102991999999999999999999MA1100955100105OC100885REMMET09701/02/11 22:53:01 METAR KMHT 030353Z 29008G17KT 10SM FEW110 03/M04 A2981 RMK AO2 SLP109 T00281044
0210743945147102011010304537+42933-071438FM-15+0071KMHT V0203105N00775011895MN0160935N5+00175-00615101085ADDAA101000095GA1075+011895999GD13991+0118959GF107991999999999999999999MA1100915100075OC101295REMMET10701/02/11 23:53:01 METAR KMHT 030453Z 31015G25KT 10SM BKN039 02/M06 A2980 RMK AO2 SLP108 T00171061 400780017
0912743945147102011010304596+42933-071438SOD  +0071KMHT V020999999999999999999999999999+99999+99999999999ADDAA124000025AX1015245KA1240M+00785KA2240N+00175MG1100244100984OE11240129632023525OE22240067130023575OE33240010399999995REMSOD74724 HR PRECIPITATION (IN):T     WEATHER(CODE):1  24 HR MAX TEMP (F):46 24 HR MAX TEMP TIME (LST):1645 24 HR MIN TEMP (F):35 24 HR MIN TEMP TIME (LST):2359 AVERAGE STATION PRESSURE:29.600 MINIMUM SEA LEVEL PRESSURE:29.82 TIME OF OCCURRENCE:1901 PEAK WIND SPEED (MPH):29  PEAK WIND DIR (DEG):320 PEAK WIND TIME (LST):2352  FASTEST 2MIN SPEED (MPH):15 FASTEST 2MIN DIR (DEG):300 FASTEST 2MIN TIME (LST):2357 AVERAGE WIND SPEED (MPH):2.3  24 HR AVG TEMP (F):41 HEATING DEGREE DAYS:24  COOLING DEGREE DAYS:0   LATEST DAY MAX TEMP (0700-1900 LST):46  LATEST NIGHT MIN TEMP(1900-0800 LST):37 HOURLY INCREMENTAL PRECIPITATION VALUES (IN):.00 0.00 T    0.00 T    T    T    0.00 0.00 0.00 T    T    0.00 0.00 0.00 0.00 0.00 0.00 0.00 0.00 0.00 0.00 0.00 0.00EQDR01     N7GJS072R02     N7GKS075
0282743945147102011010305537+42933-071438FM-15+0071KMHT V0203105N00825013725MN0160935N5+00115-00725101115ADDAA101000095GA1085+013725999GD14991+0137259GF108991999999999999999999KA1999M+00561KA2999N+00111MA1100955100105MD1540024+9999OC101495REMMET13901/03/11 00:53:02 METAR KMHT 030553Z 31016G29KT 10SM OVC045 01/M07 A2981 RMK AO2 PK WND 29029/0547 SLP111 T00111072 10056 20011 55002 (STJ)
0224743945147102011010306537+42933-071438FM-15+0071KMHT V0203105N00775013115MN0160935N5+00065-00835101175ADDAA101000095GA1085+013115999GD14991+0131159GF108991999999999999999999MA1101025100175OC101295REMMET12101/03/11 01:53:02 METAR KMHT 030653Z 31015G25KT 10SM OVC043 01/M08 A2983 RMK AO2 PK WND 30030/0603 SLP117 T00061083 (STJ)
0206743945147102011010307537+42933-071438FM-15+0071KMHT V0203205N007752200059N0160935N5+00005-00895101235ADDAA101000095GA1045+011895999GD12991+0118959GF104991999999999999999999MA1101085100235OC101295REMMET10301/03/11 02:53:02 METAR KMHT 030753Z 32015G25KT 10SM SCT039 00/M09 A2985 RMK AO2 SLP123 T00001089 (STJ)
0211743945147102011010308537+42933-071438FM-15+0071KMHT V0203205N008252200059N0160935N5-00115-01005101295ADDAA101000095GF100991999999999999999999MA1101125100275MD1240174+9999OC101345REMMET12501/03/11 03:53:02 METAR KMHT 030853Z 32016G26KT 10SM CLR M01/M10 A2986 RMK AO2 PK WND 34030/0818 SLP129 T10111100 52017 (STJ)
0191743945147102011010309537+42933-071438FM-15+0071KMHT V0203205N006752200059N0160935N5-00115-01065101365ADDAA101000095GF100991999999999999999999MA1101195100345OC101295REMMET11901/03/11 04:53:02 METAR KMHT 030953Z 32013G25KT 10SM CLR M01/M11 A2988 RMK AO2 PK WND 33029/0907 SLP136 T10111106 (STJ)
0224743945147102011010310537+42933-071438FM-15+0071KMHT V0203305N005752200059N0160935N5-00225-01175101535ADDAA101000095GA1025+014025999GD11991+0140259GF102991999999999999999999MA1101355100505OC101185REMMET12101/03/11 05:53:02 METAR KMHT 031053Z 33011G23KT 10SM FEW046 M02/M12 A2993 RMK AO2 PK WND 30028/1028 SLP153 T10221117 (CZ)
0264743945147102011010311537+42933-071438FM-15+0071KMHT V0203205N006252200059N0160935N5-00225-01225101605ADDAA101000095GA1025+014025999GD11991+0140259GF102991999999999999999999KA1999M+00111KA2999N-00221MA1101425100575MD1140304+9999OC101135REMMET12101/03/11 06:53:02 METAR KMHT 031153Z 32012G22KT 10SM FEW046 M02/M12 A2995 RMK AO2 SLP160 T10221122 10011 21022 51030 (CZ)
0206743945147102011010312537+42933-071438FM-15+0071KMHT V0203105N006752200059N0160935N5-00225-01285101665ADDAA101000095GA1025+014025999GD11991+0140259GF102991999999999999999999MA1101495100645OC101185REMMET10301/03/11 07:53:02 METAR KMHT 031253Z 31013G23KT 10SM FEW046 M02/M13 A2997 RMK AO2 SLP166 T10221128 (CZ)
0224743945147102011010313537+42933-071438FM-15+0071KMHT V0203005V008852200059N0160935N5-00175-01285101775ADDAA101000095GA1025+014025999GD11991+0140259GF102991999999999999999999MA1101595100745OC101345REMMET12101/03/11 08:53:02 METAR KMHT 031353Z 30017G26KT 10SM FEW046 M02/M13 A3000 RMK AO2 PK WND 30026/1352 SLP177 T10171128 (CZ)
0244743945147102011010314537+42933-071438FM-15+0071KMHT V0203105N008252200059N0160935N5-00115-01335101835ADDAA101000095GA1025+014025999GD11991+0140259GF102991999999999999999999MA1101665100815MD1140234+9999OC101295REMMET12701/03/11 09:53:02 METAR KMHT 031453Z 31016G25KT 10SM FEW046 M01/M13 A3002 RMK AO2 PK WND 30026/1354 SLP183 T10111133 51023 (CZ)
0224743945147102011010315537+42933-071438FM-15+0071KMHT V0203105N009352200059N0160935N5-00065-01395101785ADDAA101000095GA1025+016765999GD11991+0167659GF102991999999999999999999MA1101635100775OC101245REMMET12101/03/11 10:53:02 METAR KMHT 031553Z 31018G24KT 10SM FEW055 M01/M14 A3001 RMK AO2 PK WND 29029/1500 SLP178 T10061139 (CZ)
0223743945147102011010316537+42933-071438FM-15+0071KMHT V0202905N006752200059N0160935N5+00005-01395101695ADDAA101000095GA1025+016765999GD11991+0167659GF102991999999999999999999MA1101525100675OC101035REMMET12001/03/11 11:53:02 METAR KMHT 031653Z 29013G20KT 10SM FEW055 00/M14 A2998 RMK AO2 PK WND 32027/1638 SLP169 T00001139 (CZ)
0263743945147102011010317537+42933-071438FM-15+0071KMHT V0203005N007252200059N0160935N5+00005-01395101615ADDAA101000095GA1025+016765999GD11991+0167659GF102991999999999999999999KA1999M+00001KA2999N-00221MA1101425100575MD1840224+9999OC101085REMMET12001/03/11 12:53:02 METAR KMHT 031753Z 30014G21KT 10SM FEW055 00/M14 A2995 RMK AO2 SLP161 T00001139 10000 21022 58022 (CZ)
0205743945147102011010318537+42933-071438FM-15+0071KMHT V0203005N007752200059N0160935N5+00005-01395101605ADDAA101000095GA1025+018295999GD11991+0182959GF102991999999999999999999MA1101425100575OC101245REMMET10201/03/11 13:53:02 METAR KMHT 031853Z 30015G24KT 10SM FEW060 00/M14 A2995 RMK AO2 SLP160 T00001139 (JS)
0223743945147102011010319537+42933-071438FM-15+0071KMHT V0203105N008852200059N0160935N5+00005-01395101665ADDAA101000095GA1025+018295999GD11991+0182959GF102991999999999999999999MA1101495100645OC101345REMMET12001/03/11 14:53:02 METAR KMHT 031953Z 31017G26KT 10SM FEW060 00/M14 A2997 RMK AO2 PK WND 30026/1948 SLP166 T00001139 (JS)
0226743945147102011010320537+42933-071438FM-15+0071KMHT V0203105N005752200059N0160935N5-00065-01335101715ADDAA101000095GA1025+018295999GD11991+0182959GF102991999999999999999999MA1101525100675MD1340104+9999OC101135REMMET10901/03/11 15:53:02 METAR KMHT 032053Z 31011G22KT 10SM FEW060 M01/M13 A2998 RMK AO2 SLP171 T10061133 53010 (JS)
0195743945147102011010321537+42933-071438FM-15+0071KMHT V0209999V002652200059N0160935N5-00065-01335101795ADDAA101000095GA1025+018295999GD11991+0182959GF102991999999999999999999MA1101635100775REMMET10001/03/11 16:53:02 METAR KMHT 032153Z VRB05KT 10SM FEW060 M01/M13 A3001 RMK AO2 SLP179 T10061133 (JS)
0195743945147102011010322537+42933-071438FM-15+0071KMHT V0203205N002652200059N0160935N5-00115-01335101865ADDAA101000095GA1025+018295999GD11991+0182959GF102991999999999999999999MA1101695100845REMMET10001/03/11 17:53:02 METAR KMHT 032253Z 32005KT 10SM FEW060 M01/M13 A3003 RMK AO2 SLP186 T10111133 (JS)
0219743945147102011010323537+42933-071438FM-15+0071KMHT V0202705N001552200059N0160935N5-00175-01335101875ADDAA101000095GF100991999999999999999999KA1999M+00061KA2999N-00171MA1101695100845MD1140164+9999REMMET11501/03/11 18:53:02 METAR KMHT 032353Z 27003KT 10SM CLR M02/M13 A3003 RMK AO2 SLP187 T10171133 10006 21017 51016 (JS)
0156743945147102011010400537+42933-071438FM-15+0071KMHT V0209999C000052200059N0160935N5-00225-01335101885ADDAA101000095GF100991999999999999999999MA1101695100845REMMET09201/03/11 19:53:01 METAR KMHT 040053Z 00000KT 10SM CLR M02/M13 A3003 RMK AO2 SLP188 T10221133
0156743945147102011010401537+42933-071438FM-15+0071KMHT V0209999C000052200059N0160935N5-00285-01335101895ADDAA101000095GF100991999999999999999999MA1101695100845REMMET09201/03/11 20:53:01 METAR KMHT 040153Z 00000KT 10SM CLR M03/M13 A3003 RMK AO2 SLP189 T10281133
0176743945147102011010402537+42933-071438FM-15+0071KMHT V0202505N002152200059N0160935N5-00285-01335101885ADDAA101000095GF100991999999999999999999MA1101695100845MD1240014+9999REMMET09801/03/11 21:53:01 METAR KMHT 040253Z 25004KT 10SM CLR M03/M13 A3003 RMK AO2 SLP188 T10281133 52001
0156743945147102011010403537+42933-071438FM-15+0071KMHT V0201905N001552200059N0160935N5-00445-01225101875ADDAA101000095GF100991999999999999999999MA1101695100845REMMET09201/03/11 22:53:01 METAR KMHT 040353Z 19003KT 10SM CLR M04/M12 A3003 RMK AO2 SLP187 T10441122
0166743945147102011010404537+42933-071438FM-15+0071KMHT V0209999C000052200059N0160935N5-00565-01175101815ADDAA101000095GF100991999999999999999999MA1101635100775REMMET10201/03/11 23:53:01 METAR KMHT 040453Z 00000KT 10SM CLR M06/M12 A3001 RMK AO2 SLP181 T10561117 400171056
0886743945147102011010404596+42933-071438SOD  +0071KMHT V020999999999999999999999999999+99999+99999999999ADDAA124000095KA1240M+00175KA2240N-00555MG1100514101054OE11240156534003185OE22240107331011325OE33240054199999995REMSOD73024 HR PRECIPITATION (IN):0.00  24 HR MAX TEMP (F):35 24 HR MAX TEMP TIME (LST):0029 24 HR MIN TEMP (F):22 24 HR MIN TEMP TIME (LST):2353 AVERAGE STATION PRESSURE:29.680 MINIMUM SEA LEVEL PRESSURE:29.84 TIME OF OCCURRENCE:0025 PEAK WIND SPEED (MPH):35  PEAK WIND DIR (DEG):340 PEAK WIND TIME (LST):0318  FASTEST 2MIN SPEED (MPH):24 FASTEST 2MIN DIR (DEG):310 FASTEST 2MIN TIME (LST):1132 AVERAGE WIND SPEED (MPH):12.1 24 HR AVG TEMP (F):29 HEATING DEGREE DAYS:36  COOLING DEGREE DAYS:0   LATEST DAY MAX TEMP (0700-1900 LST):33  LATEST NIGHT MIN TEMP(1900-0800 LST):28 HOURLY INCREMENTAL PRECIPITATION VALUES (IN):.00 0.00 0.00 0.00 0.00 0.00 0.00 0.00 0.00 0.00 0.00 0.00 0.00 0.00 0.00 0.00 0.00 0.00 0.00 0.00 0.00 0.00 0.00 0.00EQDR01     N7GJS072R02     N7GKS075
0220743945147102011010405537+42933-071438FM-15+0071KMHT V0202005N001552200059N0160935N5-00565-01065101825ADDAA101000095GF100991999999999999999999KA1999M-00171KA2999N-00561MA1101635100775MD1540074+9999REMMET11601/04/11 00:53:02 METAR KMHT 040553Z 20003KT 10SM CLR M06/M11 A3001 RMK AO2 SLP182 T10561106 11017 21056 55007 (STJ)
0162743945147102011010406537+42933-071438FM-15+0071KMHT V0209999C000052200059N0160935N5-00565-01065101825ADDAA101000095GF100991999999999999999999MA1101635100775REMMET09801/04/11 01:53:02 METAR KMHT 040653Z 00000KT 10SM CLR M06/M11 A3001 RMK AO2 SLP182 T10561106 (STJ)
0162743945147102011010407537+42933-071438FM-15+0071KMHT V0201805N001552200059N0160935N5-00615-01065101835ADDAA101000095GF100991999999999999999999MA1101635100775REMMET09801/04/11 02:53:02 METAR KMHT 040753Z 18003KT 10SM CLR M06/M11 A3001 RMK AO2 SLP183 T10611106 (STJ)
0182743945147102011010408537+42933-071438FM-15+0071KMHT V0201805N001552200059N0160935N5-00675-01115101795ADDAA101000095GF100991999999999999999999MA1101595100745MD1840034+9999REMMET10401/04/11 03:53:02 METAR KMHT 040853Z 18003KT 10SM CLR M07/M11 A3000 RMK AO2 SLP179 T10671111 58003 (STJ)
0196743945147102011010409537+42933-071438FM-15+0071KMHT V0209999C000052200059N0160935N5-00675-01065101765ADDAA101000095GA1045+030485999GD12991+0304859GF104991999999999999999999MA1101565100715REMMET10101/04/11 04:53:02 METAR KMHT 040953Z 00000KT 10SM SCT100 M07/M11 A2999 RMK AO2 SLP176 T10671106 (STJ)
0196743945147102011010410537+42933-071438FM-15+0071KMHT V0209999C000052200059N0160935N5-00675-01065101745ADDAA101000095GA1025+030485999GD11991+0304859GF102991999999999999999999MA1101565100715REMMET10101/04/11 05:53:02 METAR KMHT 041053Z 00000KT 10SM FEW100 M07/M11 A2999 RMK AO2 SLP174 T10671106 (STJ)
0253743945147102011010411537+42933-071438FM-15+0071KMHT V0202005N002152200059N0160935N5-00675-01065101715ADDAA101000095GA1025+030485999GD11991+0304859GF102991999999999999999999KA1999M-00561KA2999N-00671MA1101525100675MD1740084+9999REMMET11801/04/11 06:53:02 METAR KMHT 041153Z 20004KT 10SM FEW100 M07/M11 A2998 RMK AO2 SLP171 T10671106 11056 21067 57008 (CZ)
0161743945147102011010412537+42933-071438FM-15+0071KMHT V0209999C000052200059N0160935N5-00675-01065101665ADDAA101000095GF100991999999999999999999MA1101465100605REMMET09701/04/11 07:53:02 METAR KMHT 041253Z 00000KT 10SM CLR M07/M11 A2996 RMK AO2 SLP166 T10671106 (CZ)
0161743945147102011010413537+42933-071438FM-15+0071KMHT V0209999C000052200059N0160935N5-00565-01005101615ADDAA101000095GF100991999999999999999999MA1101425100575REMMET09701/04/11 08:53:02 METAR KMHT 041353Z 00000KT 10SM CLR M06/M10 A2995 RMK AO2 SLP161 T10561100 (CZ)
0215743945147102011010414537+42933-071438FM-15+0071KMHT V0202005N001552200059N0160935N5-00335-00945101565ADDAA101000095GA1025+030485999GD11991+0304859GF102991999999999999999999MA1101395100545MD1640144+9999REMMET10601/04/11 09:53:02 METAR KMHT 041453Z 20003KT 10SM FEW100 M03/M09 A2994 RMK AO2 SLP156 T10331094 56014 (CZ)
0195743945147102011010415537+42933-071438FM-15+0071KMHT V0201905N00155033535MN0160935N5-00225-00945101435ADDAA101000095GA1075+033535999GD13991+0335359GF107991999999999999999999MA1101255100405REMMET10001/04/11 10:53:02 METAR KMHT 041553Z 19003KT 10SM BKN110 M02/M09 A2990 RMK AO2 SLP143 T10221094 (CZ)
0195743945147102011010416537+42933-071438FM-15+0071KMHT V0209999C00005022865MN0160935N5-00115-00895101315ADDAA101000095GA1075+022865999GD13991+0228659GF107991999999999999999999MA1101125100275REMMET10001/04/11 11:53:02 METAR KMHT 041653Z 00000KT 10SM BKN075 M01/M09 A2986 RMK AO2 SLP131 T10111089 (CZ)
0252743945147102011010417537+42933-071438FM-15+0071KMHT V0201105N00155019815MN0160935N5+00065-00835101155ADDAA101000095GA1075+019815999GD13991+0198159GF107991999999999999999999KA1999M+00111KA2999N-00671MA1100955100105MD1840414+9999REMMET11701/04/11 12:53:02 METAR KMHT 041753Z 11003KT 10SM BKN065 01/M08 A2981 RMK AO2 SLP115 T00061083 10011 21067 58041 (CZ)
0194743945147102011010418537+42933-071438FM-15+0071KMHT V0201705N002152200059N0160935N5+00175-00895101025ADDAA101000095GA1025+022865999GD11991+0228659GF102991999999999999999999MA1100855100005REMMET09901/04/11 13:53:02 METAR KMHT 041853Z 17004KT 10SM FEW075 02/M09 A2978 RMK AO2 SLP102 T00171089 (JS)
0194743945147102011010419537+42933-071438FM-15+0071KMHT V0202105N00155022865MN0160935N5+00225-00895100935ADDAA101000095GA1075+022865999GD13991+0228659GF107991999999999999999999MA1100755099905REMMET09901/04/11 14:53:02 METAR KMHT 041953Z 21003KT 10SM BKN075 02/M09 A2975 RMK AO2 SLP093 T00221089 (JS)
0214743945147102011010420537+42933-071438FM-15+0071KMHT V0202505N004152200059N0160935N5+00225-00835100915ADDAA101000095GA1045+021345999GD12991+0213459GF104991999999999999999999MA1100715099865MD1640244+9999REMMET10501/04/11 15:53:02 METAR KMHT 042053Z 25008KT 10SM SCT070 02/M08 A2974 RMK AO2 SLP091 T00221083 56024 (JS)
0194743945147102011010421537+42933-071438FM-15+0071KMHT V0202405N001552200059N0160935N5+00175-00835100895ADDAA101000095GA1025+015245999GD11991+0152459GF102991999999999999999999MA1100715099865REMMET09901/04/11 16:53:02 METAR KMHT 042153Z 24003KT 10SM FEW050 02/M08 A2974 RMK AO2 SLP089 T00171083 (JS)
0233743945147102011010422537+42933-071438FM-15+0071KMHT V0209999C00005030485MN0160935N5-00115-00725100915ADDAA101000095GA1025+016765999GA2075+030485999GD11991+0167659GD23991+0304859GF107991999999999999999999MA1100715099865REMMET10701/04/11 17:53:02 METAR KMHT 042253Z 00000KT 10SM FEW055 BKN100 M01/M07 A2974 RMK AO2 SLP091 T10111072 (JS)
0291743945147102011010423537+42933-071438FM-15+0071KMHT V0209999C000052200059N0160935N5-00115-00785100845ADDAA101000095GA1045+014945999GA2045+030485999GD12991+0149459GD22991+0304859GF104991999999999999999999KA1999M+00281KA2999N-00171MA1100645099805MD1840064+9999REMMET12501/04/11 18:53:02 METAR KMHT 042353Z 00000KT 10SM SCT049 SCT100 M01/M08 A2972 RMK AO2 SLP084 T10111078 10028 21017 58006 (JS)
0156743945147102011010500537+42933-071438FM-15+0071KMHT V0202305N001552200059N0160935N5-00115-00835100825ADDAA101000095GF100991999999999999999999MA1100645099805REMMET09201/04/11 19:53:01 METAR KMHT 050053Z 23003KT 10SM CLR M01/M08 A2972 RMK AO2 SLP082 T10111083
0156743945147102011010501537+42933-071438FM-15+0071KMHT V0209999C000052200059N0160935N5-00335-00785100845ADDAA101000095GF100991999999999999999999MA1100645099805REMMET09201/04/11 20:53:01 METAR KMHT 050153Z 00000KT 10SM CLR M03/M08 A2972 RMK AO2 SLP084 T10331078
0176743945147102011010502537+42933-071438FM-15+0071KMHT V0209999C000052200059N0160935N5-00335-00835100805ADDAA101000095GF100991999999999999999999MA1100615099765MD1840044+9999REMMET09801/04/11 21:53:01 METAR KMHT 050253Z 00000KT 10SM CLR M03/M08 A2971 RMK AO2 SLP080 T10331083 58004
0156743945147102011010503537+42933-071438FM-15+0071KMHT V0202205N002152200059N0160935N5-00285-00835100765ADDAA101000095GF100991999999999999999999MA1100585099735REMMET09201/04/11 22:53:01 METAR KMHT 050353Z 22004KT 10SM CLR M03/M08 A2970 RMK AO2 SLP076 T10281083
0166743945147102011010504537+42933-071438FM-15+0071KMHT V0209999C000052200059N0160935N5-00505-00835100705ADDAA101000095GF100991999999999999999999MA1100515099665REMMET10201/04/11 23:53:01 METAR KMHT 050453Z 00000KT 10SM CLR M05/M08 A2968 RMK AO2 SLP070 T10501083 400281067
0886743945147102011010504596+42933-071438SOD  +0071KMHT V020999999999999999999999999999+99999+99999999999ADDAA124000095KA1240M+00285KA2240N-00665MG1100324100714OE11240062625015525OE22240040225015525OE33240010399999995REMSOD73024 HR PRECIPITATION (IN):0.00  24 HR MAX TEMP (F):37 24 HR MAX TEMP TIME (LST):1552 24 HR MIN TEMP (F):20 24 HR MIN TEMP TIME (LST):0824 AVERAGE STATION PRESSURE:29.625 MINIMUM SEA LEVEL PRESSURE:29.74 TIME OF OCCURRENCE:2359 PEAK WIND SPEED (MPH):14  PEAK WIND DIR (DEG):250 PEAK WIND TIME (LST):1552  FASTEST 2MIN SPEED (MPH):9  FASTEST 2MIN DIR (DEG):250 FASTEST 2MIN TIME (LST):1552 AVERAGE WIND SPEED (MPH):2.3  24 HR AVG TEMP (F):29 HEATING DEGREE DAYS:36  COOLING DEGREE DAYS:0   LATEST DAY MAX TEMP (0700-1900 LST):37  LATEST NIGHT MIN TEMP(1900-0800 LST):20 HOURLY INCREMENTAL PRECIPITATION VALUES (IN):.00 0.00 0.00 0.00 0.00 0.00 0.00 0.00 0.00 0.00 0.00 0.00 0.00 0.00 0.00 0.00 0.00 0.00 0.00 0.00 0.00 0.00 0.00 0.00EQDR01     N7GJS072R02     N7GKS075
0220743945147102011010505537+42933-071438FM-15+0071KMHT V0209999C000052200059N0160935N5-00505-00835100685ADDAA101000095GF100991999999999999999999KA1999M-00111KA2999N-00561MA1100515099665MD1640124+9999REMMET11601/05/11 00:53:02 METAR KMHT 050553Z 00000KT 10SM CLR M05/M08 A2968 RMK AO2 SLP068 T10501083 11011 21056 56012 (STJ)
0162743945147102011010506537+42933-071438FM-15+0071KMHT V0209999C000052200059N0160935N5-00505-00835100695ADDAA101000095GF100991999999999999999999MA1100515099665REMMET09801/05/11 01:53:02 METAR KMHT 050653Z 00000KT 10SM CLR M05/M08 A2968 RMK AO2 SLP069 T10501083 (STJ)
0162743945147102011010507537+42933-071438FM-15+0071KMHT V0202705N002152200059N0160935N5-00285-00675100705ADDAA101000095GF100991999999999999999999MA1100545099705REMMET09801/05/11 02:53:02 METAR KMHT 050753Z 27004KT 10SM CLR M03/M07 A2969 RMK AO2 SLP070 T10281067 (STJ)
0182743945147102011010508537+42933-071438FM-15+0071KMHT V0209999C000052200059N0160935N5-00505-00785100705ADDAA101000095GF100991999999999999999999MA1100515099665MD1140034+9999REMMET10401/05/11 03:53:02 METAR KMHT 050853Z 00000KT 10SM CLR M05/M08 A2968 RMK AO2 SLP070 T10501078 51003 (STJ)
0162743945147102011010509537+42933-071438FM-15+0071KMHT V0209999C000052200059N0160935N5-00565-00785100735ADDAA101000095GF100991999999999999999999MA1100545099705REMMET09801/05/11 04:53:02 METAR KMHT 050953Z 00000KT 10SM CLR M06/M08 A2969 RMK AO2 SLP073 T10561078 (STJ)
0161743945147102011010510537+42933-071438FM-15+0071KMHT V0209999C000052200059N0160935N5-00675-00835100785ADDAA101000095GF100991999999999999999999MA1100585099735REMMET09701/05/11 05:53:02 METAR KMHT 051053Z 00000KT 10SM CLR M07/M08 A2970 RMK AO2 SLP078 T10671083 (CZ)
0219743945147102011010511537+42933-071438FM-15+0071KMHT V0201305N001552200059N0160935N5-00675-00835100795ADDAA101000095GF100991999999999999999999KA1999M-00281KA2999N-00721MA1100615099765MD1140084+9999REMMET11501/05/11 06:53:02 METAR KMHT 051153Z 13003KT 10SM CLR M07/M08 A2971 RMK AO2 SLP079 T10671083 11028 21072 51008 (CZ)
0161743945147102011010512537+42933-071438FM-15+0071KMHT V0203005N003152200059N0160935N5-00285-00725100835ADDAA101000095GF100991999999999999999999MA1100645099805REMMET09701/05/11 07:53:02 METAR KMHT 051253Z 30006KT 10SM CLR M03/M07 A2972 RMK AO2 SLP083 T10281072 (CZ)
0161743945147102011010513537+42933-071438FM-15+0071KMHT V0209999V002152200059N0160935N5-00115-00725100855ADDAA101000095GF100991999999999999999999MA1100645099805REMMET09701/05/11 08:53:02 METAR KMHT 051353Z VRB04KT 10SM CLR M01/M07 A2972 RMK AO2 SLP085 T10111072 (CZ)
0180743945147102011010514537+42933-071438FM-15+0071KMHT V0202705N003652200059N0160935N5+00005-00725100845ADDAA101000095GF100991999999999999999999MA1100685099835MD1140054+9999REMMET10201/05/11 09:53:02 METAR KMHT 051453Z 27007KT 10SM CLR 00/M07 A2973 RMK AO2 SLP084 T00001072 51005 (CZ)
0194743945147102011010515537+42933-071438FM-15+0071KMHT V0202405N004152200059N0160935N5+00115-00835100795ADDAA101000095GA1025+009145999GD11991+0091459GF102991999999999999999999MA1100615099765REMMET09901/05/11 10:53:02 METAR KMHT 051553Z 24008KT 10SM FEW030 01/M08 A2971 RMK AO2 SLP079 T00111083 (CZ)
0232743945147102011010516537+42933-071438FM-15+0071KMHT V0202505N00515014335MN0160935N5+00175-00895100715ADDAA101000095GA1075+014335999GA2075+018295999GD13991+0143359GD23991+0182959GF107991999999999999999999MA1100545099705REMMET10601/05/11 11:53:02 METAR KMHT 051653Z 25010KT 10SM BKN047 BKN060 02/M09 A2969 RMK AO2 SLP071 T00171089 (CZ)
0365743945147102011010517537+42933-071438FM-15+0071KMHT V0202905N00465010365MN0160935N5+00115-00895100645ADDAA101000025AA206000021AU110030015AW1715GA1075+010365999GA2075+014945999GD13991+0103659GD23991+0149459GF107991999999999999999999KA1999M+00221KA2999N-00671MA1100475099635MD1840204+9999MW1711REMMET14601/05/11 12:53:02 METAR KMHT 051753Z 29009KT 10SM -SN BKN034 BKN049 01/M09 A2967 RMK AO2 SNB52 SLP064 P0000 60000 T00111089 10022 21067 58020 (CZ)EQDQ01  00008PRCP06
0293743945147102011010518537+42933-071438FM-15+0071KMHT V0202905N00625021345MN0160935N5+00175-00945100615ADDAA101000025GA1025+012195999GA2045+016765999GA3075+021345999GD11991+0121959GD22991+0167659GD33991+0213459GF107991999999999999999999MA1100445099605OC100885REMMET12801/05/11 13:53:02 METAR KMHT 051853Z 29012G17KT 10SM FEW040 SCT055 BKN070 02/M09 A2966 RMK AO2 SNE13 SLP061 P0000 T00171094 (CZ)
0232743945147102011010519537+42933-071438FM-15+0071KMHT V0202805V00365019815MN0160935N5+00175-01175100685ADDAA101000095GA1045+016765999GA2075+019815999GD12991+0167659GD23991+0198159GF107991999999999999999999MA1100515099665REMMET10601/05/11 14:53:02 METAR KMHT 051953Z 28007KT 10SM SCT055 BKN065 02/M12 A2968 RMK AO2 SLP068 T00171117 (JS)
0280743945147102011010520537+42933-071438FM-15+0071KMHT V0202805V00415022865MN0160935N5+00065-01115100715ADDAA101000095AA203000021GA1025+015245999GA2075+022865999GD11991+0152459GD23991+0228659GF107991999999999999999999MA1100545099705MD1340064+9999OC100885REMMET12101/05/11 15:53:02 METAR KMHT 052053Z 28008G17KT 10SM FEW050 BKN075 01/M11 A2969 RMK AO2 SLP071 60000 T00061111 53006 (JS)
0232743945147102011010521537+42933-071438FM-15+0071KMHT V0209999V002152200059N0160935N5+00065-01175100715ADDAA101000095GA1045+016765999GA2045+022865999GD12991+0167659GD22991+0228659GF104991999999999999999999MA1100515099665REMMET10601/05/11 16:53:02 METAR KMHT 052153Z VRB04KT 10SM SCT055 SCT075 01/M12 A2968 RMK AO2 SLP071 T00061117 (JS)
0161743945147102011010522537+42933-071438FM-15+0071KMHT V0202705N004652200059N0160935N5-00065-01285100785ADDAA101000095GF100991999999999999999999MA1100585099735REMMET09701/05/11 17:53:02 METAR KMHT 052253Z 27009KT 10SM CLR M01/M13 A2970 RMK AO2 SLP078 T10061128 (JS)
0247743945147102011010523537+42933-071438FM-15+0071KMHT V0203005V004152200059N0160935N5-00115-01445100825ADDAA101000095AA206000021GF100991999999999999999999KA1999M+00221KA2999N-00111MA1100645099805MD1340104+9999OC100775REMMET12401/05/11 18:53:02 METAR KMHT 052353Z 30008G15KT 10SM CLR M01/M14 A2972 RMK AO2 SLP082 60000 T10111144 10022 21011 53010 (JS)
0167743945147102011010600537+42933-071438FM-15+0071KMHT V0203005N004652200059N0160935N5-00175-01505100815ADDAA101000095GF100991999999999999999999MA1100615099765OC100885REMMET09501/05/11 19:53:01 METAR KMHT 060053Z 30009G17KT 10SM CLR M02/M15 A2971 RMK AO2 SLP081 T10171150
0156743945147102011010601537+42933-071438FM-15+0071KMHT V0209999V002652200059N0160935N5-00285-01445100815ADDAA101000095GF100991999999999999999999MA1100645099805REMMET09201/05/11 20:53:01 METAR KMHT 060153Z VRB05KT 10SM CLR M03/M14 A2972 RMK AO2 SLP081 T10281144
0176743945147102011010602537+42933-071438FM-15+0071KMHT V0202305N001552200059N0160935N5-00335-01445100835ADDAA101000095GF100991999999999999999999MA1100645099805MD1340024+9999REMMET09801/05/11 21:53:01 METAR KMHT 060253Z 23003KT 10SM CLR M03/M14 A2972 RMK AO2 SLP083 T10331144 53002
0156743945147102011010603537+42933-071438FM-15+0071KMHT V0202605N001552200059N0160935N5-00395-01395100865ADDAA101000095GF100991999999999999999999MA1100685099835REMMET09201/05/11 22:53:01 METAR KMHT 060353Z 26003KT 10SM CLR M04/M14 A2973 RMK AO2 SLP086 T10391139
0166743945147102011010604537+42933-071438FM-15+0071KMHT V0202805N002152200059N0160935N5-00445-01395100805ADDAA101000095GF100991999999999999999999MA1100615099765REMMET10201/05/11 23:53:01 METAR KMHT 060453Z 28004KT 10SM CLR M04/M14 A2971 RMK AO2 SLP080 T10441139 400221072
0886743945147102011010604596+42933-071438SOD  +0071KMHT V020999999999999999999999999999+99999+99999999999ADDAA124000025KA1240M+00225KA2240N-00715MG1099704100584OE11240107331014165OE22240076030014175OE33240026499999995REMSOD73024 HR PRECIPITATION (IN):T     24 HR MAX TEMP (F):36 24 HR MAX TEMP TIME (LST):1438 24 HR MIN TEMP (F):19 24 HR MIN TEMP TIME (LST):0630 AVERAGE STATION PRESSURE:29.440 MINIMUM SEA LEVEL PRESSURE:29.70 TIME OF OCCURRENCE:1349 PEAK WIND SPEED (MPH):24  PEAK WIND DIR (DEG):310 PEAK WIND TIME (LST):1416  FASTEST 2MIN SPEED (MPH):17 FASTEST 2MIN DIR (DEG):300 FASTEST 2MIN TIME (LST):1417 AVERAGE WIND SPEED (MPH):5.9  24 HR AVG TEMP (F):28 HEATING DEGREE DAYS:37  COOLING DEGREE DAYS:0   LATEST DAY MAX TEMP (0700-1900 LST):36  LATEST NIGHT MIN TEMP(1900-0800 LST):19 HOURLY INCREMENTAL PRECIPITATION VALUES (IN):.00 0.00 0.00 0.00 0.00 0.00 0.00 0.00 0.00 0.00 0.00 0.00 T    T    0.00 0.00 0.00 0.00 0.00 0.00 0.00 0.00 0.00 0.00EQDR01     N7GJS072R02     N7GKS075
0220743945147102011010605537+42933-071438FM-15+0071KMHT V0202705N002152200059N0160935N5-00505-01395100785ADDAA101000095GF100991999999999999999999KA1999M-00111KA2999N-00501MA1100615099765MD1840054+9999REMMET11601/06/11 00:53:02 METAR KMHT 060553Z 27004KT 10SM CLR M05/M14 A2971 RMK AO2 SLP078 T10501139 11011 21050 58005 (STJ)
0162743945147102011010606537+42933-071438FM-15+0071KMHT V0209999C000052200059N0160935N5-00565-01445100785ADDAA101000095GF100991999999999999999999MA1100615099765REMMET09801/06/11 01:53:02 METAR KMHT 060653Z 00000KT 10SM CLR M06/M14 A2971 RMK AO2 SLP078 T10561144 (STJ)
0162743945147102011010607537+42933-071438FM-15+0071KMHT V0202805N001552200059N0160935N5-00615-01395100795ADDAA101000095GF100991999999999999999999MA1100615099765REMMET09801/06/11 02:53:02 METAR KMHT 060753Z 28003KT 10SM CLR M06/M14 A2971 RMK AO2 SLP079 T10611139 (STJ)
0182743945147102011010608537+42933-071438FM-15+0071KMHT V0201305N001552200059N0160935N5-00725-01395100795ADDAA101000095GF100991999999999999999999MA1100615099765MD1740014+9999REMMET10401/06/11 03:53:02 METAR KMHT 060853Z 13003KT 10SM CLR M07/M14 A2971 RMK AO2 SLP079 T10721139 57001 (STJ)
0162743945147102011010609537+42933-071438FM-15+0071KMHT V0201405N001552200059N0160935N5-00835-01335100795ADDAA101000095GF100991999999999999999999MA1100615099765REMMET09801/06/11 04:53:02 METAR KMHT 060953Z 14003KT 10SM CLR M08/M13 A2971 RMK AO2 SLP079 T10831133 (STJ)
0161743945147102011010610537+42933-071438FM-15+0071KMHT V0209999C000052200059N0160935N5-00895-01335100795ADDAA101000095GF100991999999999999999999MA1100585099735REMMET09701/06/11 05:53:02 METAR KMHT 061053Z 00000KT 10SM CLR M09/M13 A2970 RMK AO2 SLP079 T10891133 (CZ)
0219743945147102011010611537+42933-071438FM-15+0071KMHT V0209999C000052200059N0160935N5-00895-01335100785ADDAA101000095GF100991999999999999999999KA1999M-00501KA2999N-00891MA1100585099735MD1840024+9999REMMET11501/06/11 06:53:02 METAR KMHT 061153Z 00000KT 10SM CLR M09/M13 A2970 RMK AO2 SLP078 T10891133 11050 21089 58002 (CZ)
0161743945147102011010612537+42933-071438FM-15+0071KMHT V0209999C000052200059N0160935N5-00895-01285100805ADDAA101000095GF100991999999999999999999MA1100615099765REMMET09701/06/11 07:53:02 METAR KMHT 061253Z 00000KT 10SM CLR M09/M13 A2971 RMK AO2 SLP080 T10891128 (CZ)
0161743945147102011010613537+42933-071438FM-15+0071KMHT V0209999C000052200059N0160935N5-00785-01225100795ADDAA101000095GF100991999999999999999999MA1100615099765REMMET09701/06/11 08:53:02 METAR KMHT 061353Z 00000KT 10SM CLR M08/M12 A2971 RMK AO2 SLP079 T10781122 (CZ)
0216743945147102011010614537+42933-071438FM-15+0071KMHT V0209999C000052200059N0160935N5-00505-01225100775ADDAA101000095GF100991999999999999999999MA1100585099735MD1840004+9999REMMET10301/06/11 09:53:02 METAR KMHT 061453Z 00000KT 10SM CLR M05/M12 A2970 RMK AO2 SLP077 T10501122 58000 (CZ)EQDQ01+000082APCTENQ02+000002APC3  
0161743945147102011010615537+42933-071438FM-15+0071KMHT V0203005N003152200059N0160935N5-00335-01285100695ADDAA101000095GF100991999999999999999999MA1100515099665REMMET09701/06/11 10:53:02 METAR KMHT 061553Z 30006KT 10SM CLR M03/M13 A2968 RMK AO2 SLP069 T10331128 (CZ)
0161743945147102011010616537+42933-071438FM-15+0071KMHT V0209999C000052200059N0160935N5-00225-01395100575ADDAA101000095GF100991999999999999999999MA1100375099535REMMET09701/06/11 11:53:02 METAR KMHT 061653Z 00000KT 10SM CLR M02/M14 A2964 RMK AO2 SLP057 T10221139 (CZ)
0221743945147102011010617537+42933-071438FM-15+0071KMHT V0203405N002652200059N0160935N5-00205-01395100505ADDAA101000095GF100991999999999999999999KA1999M-00171KA2999N-00941MA1100305099465MD1640264+9999REMMET11701/06/11 12:53:02 METAR KMHT 061753Z 34005KT 10SM CLR M02/M14 A2962 RMK AO2 SLP050 T10201139 11017 21094 56026 $ (CZ)
0195743945147102011010618537+42933-071438FM-15+0071KMHT V0209999V002152200059N0160935N5-00175-01445100475ADDAA101000095GA1025+015245999GD11991+0152459GF102991999999999999999999MA1100275099435REMMET10001/06/11 13:53:02 METAR KMHT 061853Z VRB04KT 10SM FEW050 M02/M14 A2961 RMK AO2 SLP047 T10171144 (JS)
0195743945147102011010619537+42933-071438FM-15+0071KMHT V0203205N002152200059N0160935N5-00115-01505100505ADDAA101000095GA1025+015245999GD11991+0152459GF102991999999999999999999MA1100305099465REMMET10001/06/11 14:53:02 METAR KMHT 061953Z 32004KT 10SM FEW050 M01/M15 A2962 RMK AO2 SLP050 T10111150 (JS)
0215743945147102011010620537+42933-071438FM-15+0071KMHT V0200505N002652200059N0160935N5-00175-01505100515ADDAA101000095GA1025+018295999GD11991+0182959GF102991999999999999999999MA1100305099465MD1540004+9999REMMET10601/06/11 15:53:02 METAR KMHT 062053Z 05005KT 10SM FEW060 M02/M15 A2962 RMK AO2 SLP051 T10171150 55000 (JS)
0161743945147102011010621537+42933-071438FM-15+0071KMHT V0200605N002152200059N0160935N5-00285-01505100515ADDAA101000095GF100991999999999999999999MA1100305099465REMMET09701/06/11 16:53:02 METAR KMHT 062153Z 06004KT 10SM CLR M03/M15 A2962 RMK AO2 SLP051 T10281150 (JS)
0161743945147102011010622537+42933-071438FM-15+0071KMHT V0200905N001552200059N0160935N5-00395-01505100505ADDAA101000095GF100991999999999999999999MA1100305099465REMMET09701/06/11 17:53:02 METAR KMHT 062253Z 09003KT 10SM CLR M04/M15 A2962 RMK AO2 SLP050 T10391150 (JS)
0219743945147102011010623537+42933-071438FM-15+0071KMHT V0209999C000052200059N0160935N5-00565-01395100545ADDAA101000095GF100991999999999999999999KA1999M-00061KA2999N-00561MA1100345099495MD1340024+9999REMMET11501/06/11 18:53:02 METAR KMHT 062353Z 00000KT 10SM CLR M06/M14 A2963 RMK AO2 SLP054 T10561139 11006 21056 53002 (JS)
0156743945147102011010700537+42933-071438FM-15+0071KMHT V0209999C000052200059N0160935N5-00725-01335100535ADDAA101000095GF100991999999999999999999MA1100345099495REMMET09201/06/11 19:53:01 METAR KMHT 070053Z 00000KT 10SM CLR M07/M13 A2963 RMK AO2 SLP053 T10721133
0156743945147102011010701537+42933-071438FM-15+0071KMHT V0209999C000052200059N0160935N5-00835-01335100545ADDAA101000095GF100991999999999999999999MA1100345099495REMMET09201/06/11 20:53:01 METAR KMHT 070153Z 00000KT 10SM CLR M08/M13 A2963 RMK AO2 SLP054 T10831133
0176743945147102011010702537+42933-071438FM-15+0071KMHT V0209999C000052200059N0160935N5-00895-01395100505ADDAA101000095GF100991999999999999999999MA1100305099465MD1840034+9999REMMET09801/06/11 21:53:01 METAR KMHT 070253Z 00000KT 10SM CLR M09/M14 A2962 RMK AO2 SLP050 T10891139 58003
0156743945147102011010703537+42933-071438FM-15+0071KMHT V0203605N002152200059N0160935N5-00945-01395100455ADDAA101000095GF100991999999999999999999MA1100245099395REMMET09201/06/11 22:53:01 METAR KMHT 070353Z 36004KT 10SM CLR M09/M14 A2960 RMK AO2 SLP045 T10941139
0166743945147102011010704537+42933-071438FM-15+0071KMHT V0209999C000052200059N0160935N5-01005-01335100465ADDAA101000095GF100991999999999999999999MA1100275099435REMMET10201/06/11 23:53:01 METAR KMHT 070453Z 00000KT 10SM CLR M10/M13 A2961 RMK AO2 SLP046 T11001133 402671106
0902743945147102011010704596+42933-071438SOD  +0071KMHT V020999999999999999999999999999+99999+99999999999ADDAA124000095KA1240M+02676KA2240N-01055MG1099594100444OE11240071521019015OE22240040230000075OE33240010399999995REMSOD73024 HR PRECIPITATION (IN):0.00  24 HR MAX TEMP (F):80 24 HR MAX TEMP TIME (LST):1253 24 HR MIN TEMP (F):13 24 HR MIN TEMP TIME (LST):2335 AVERAGE STATION PRESSURE:29.410 MINIMUM SEA LEVEL PRESSURE:29.66 TIME OF OCCURRENCE:2359 PEAK WIND SPEED (MPH):16  PEAK WIND DIR (DEG):210 PEAK WIND TIME (LST):1901  FASTEST 2MIN SPEED (MPH):9  FASTEST 2MIN DIR (DEG):300 FASTEST 2MIN TIME (LST):0007 AVERAGE WIND SPEED (MPH):2.3  24 HR AVG TEMP (F):47 HEATING DEGREE DAYS:18  COOLING DEGREE DAYS:0   LATEST DAY MAX TEMP (0700-1900 LST):31  LATEST NIGHT MIN TEMP(1900-0800 LST):15 HOURLY INCREMENTAL PRECIPITATION VALUES (IN):.00 0.00 0.00 0.00 0.00 0.00 0.00 0.00 0.00 0.00 0.00 0.00 0.00 0.00 0.00 0.00 0.00 0.00 0.00 0.00 0.00 0.00 0.00 0.00EQDR01     N7GJS072R02     N7GKS075R03    807KAX004
0220743945147102011010705537+42933-071438FM-15+0071KMHT V0209999C000052200059N0160935N5-01065-01335100445ADDAA101000095GF100991999999999999999999KA1999M-00391KA2999N-01061MA1100245099395MD1640064+9999REMMET11601/07/11 00:53:02 METAR KMHT 070553Z 00000KT 10SM CLR M11/M13 A2960 RMK AO2 SLP044 T11061133 11039 21106 56006 (STJ)
0196743945147102011010706537+42933-071438FM-15+0071KMHT V0209999C00005030485MN0160935N5-01065-01335100435ADDAA101000095GA1075+030485999GD13991+0304859GF107991999999999999999999MA1100245099395REMMET10101/07/11 01:53:02 METAR KMHT 070653Z 00000KT 10SM BKN100 M11/M13 A2960 RMK AO2 SLP043 T11061133 (STJ)
0196743945147102011010707537+42933-071438FM-15+0071KMHT V0203605N00155030485MN0160935N5-01005-01335100435ADDAA101000095GA1085+030485999GD14991+0304859GF108991999999999999999999MA1100245099395REMMET10101/07/11 02:53:02 METAR KMHT 070753Z 36003KT 10SM OVC100 M10/M13 A2960 RMK AO2 SLP043 T11001133 (STJ)
0216743945147102011010708537+42933-071438FM-15+0071KMHT V0200105N00155030485MN0160935N5-00945-01335100335ADDAA101000095GA1085+030485999GD14991+0304859GF108991999999999999999999MA1100145099295MD1840124+9999REMMET10701/07/11 03:53:02 METAR KMHT 070853Z 01003KT 10SM OVC100 M09/M13 A2957 RMK AO2 SLP033 T10941133 58012 (STJ)
0196743945147102011010709537+42933-071438FM-15+0071KMHT V0203305N00215030485MN0160935N5-00895-01285100335ADDAA101000095GA1085+030485999GD14991+0304859GF108991999999999999999999MA1100145099295REMMET10101/07/11 04:53:02 METAR KMHT 070953Z 33004KT 10SM OVC100 M09/M13 A2957 RMK AO2 SLP033 T10891128 (STJ)
0234743945147102011010710537+42933-071438FM-15+0071KMHT V0203505N00155030485MN0160935N5-00895-01285100345ADDAA101000095GA1025+025915999GA2075+030485999GD11991+0259159GD23991+0304859GF107991999999999999999999MA1100145099295REMMET10801/07/11 05:53:02 METAR KMHT 071053Z 35003KT 10SM FEW085 BKN100 M09/M13 A2957 RMK AO2 SLP034 T10891128 (STJ)
0291743945147102011010711537+42933-071438FM-15+0071KMHT V0203605N00265024385MN0160935N5-00835-01335100375ADDAA101000095GA1025+018295999GA2075+024385999GD11991+0182959GD23991+0243859GF107991999999999999999999KA1999M-00831KA2999N-01111MA1100175099335MD1340044+9999REMMET12501/07/11 06:53:02 METAR KMHT 071153Z 36005KT 10SM FEW060 BKN080 M08/M13 A2958 RMK AO2 SLP037 T10831133 11083 21111 53004 (CZ)
0195743945147102011010712537+42933-071438FM-15+0071KMHT V0200105N001552200059N0160935N5-00835-01285100365ADDAA101000095GA1025+022865999GD11991+0228659GF102991999999999999999999MA1100175099335REMMET10001/07/11 07:53:02 METAR KMHT 071253Z 01003KT 10SM FEW075 M08/M13 A2958 RMK AO2 SLP036 T10831128 (CZ)
0233743945147102011010713537+42933-071438FM-15+0071KMHT V0203405N00155009145MN0160935N5-00725-01225100335ADDAA101000095GA1075+009145999GA2075+021345999GD13991+0091459GD23991+0213459GF107991999999999999999999MA1100145099295REMMET10701/07/11 08:53:02 METAR KMHT 071353Z 34003KT 10SM BKN030 BKN070 M07/M12 A2957 RMK AO2 SLP033 T10721122 (CZ)
0253743945147102011010714537+42933-071438FM-15+0071KMHT V0209999C000052200059N0160935N5-00505-01225100285ADDAA101000095GA1025+008535999GA2045+022865999GD11991+0085359GD22991+0228659GF104991999999999999999999MA1100105099265MD1840094+9999REMMET11301/07/11 09:53:02 METAR KMHT 071453Z 00000KT 10SM FEW028 SCT075 M05/M12 A2956 RMK AO2 SLP028 T10501122 58009 (CZ)
0195743945147102011010715537+42933-071438FM-15+0071KMHT V0200405N00365009145MN0160935N5-00335-01005100205ADDAA101000095GA1075+009145999GD13991+0091459GF107991999999999999999999MA1100005099165REMMET10001/07/11 10:53:02 METAR KMHT 071553Z 04007KT 10SM BKN030 M03/M10 A2953 RMK AO2 SLP020 T10331100 (CZ)
0195743945147102011010716537+42933-071438FM-15+0071KMHT V0200705N00265022865MN0160935N5-00225-01005100115ADDAA101000095GA1075+022865999GD13991+0228659GF107991999999999999999999MA1099905099065REMMET10001/07/11 11:53:02 METAR KMHT 071653Z 07005KT 10SM BKN075 M02/M10 A2950 RMK AO2 SLP011 T10221100 (CZ)
0243743945147102011010717277+42933-071438FM-16+0071KMHT V0200605N00265007625MN0160935N5-00205-01105999999ADDGA1075+007625999GA2075+009455999GA3085+019815999GD13991+0076259GD23991+0094559GD34991+0198159GF108991999999999999999999MA1099865099025REMMET09701/07/11 12:27:02 SPECI KMHT 071727Z 06005KT 10SM BKN025 BKN031 OVC065 M02/M11 A2949 RMK AO2 (CZ)
0365743945147102011010717537+42933-071438FM-15+0071KMHT V0209999V00315007625MN0128755N5-00225-00895100035ADDAA101000025AA206000021AU110030015AW1715GA1075+007625999GA2085+019815999GD13991+0076259GD24991+0198159GF108991999999999999999999KA1999M-00221KA2999N-00831MA1099835098995MD1640254+9999MW1711REMMET14601/07/11 12:53:02 METAR KMHT 071753Z VRB06KT 8SM -SN BKN025 OVC065 M02/M09 A2948 RMK AO2 SNB36 SLP003 P0000 60000 T10221089 11022 21083 56025 (CZ)EQDQ01  00008PRCP06
0248743945147102011010718007+42933-071438FM-16+0071KMHT V0200705N00415018295MN0144845N5-00205-00905999999ADDAA101000021AU110030015AW1715GA1025+010365999GA2085+018295999GD11991+0103659GD24991+0182959GF108991999999999999999999MA1099835098995MW1711REMMET09901/07/11 13:00:02 SPECI KMHT 071800Z 07008KT 9SM -SN FEW034 OVC060 M02/M09 A2948 RMK AO2 P0000 (CZ)
0245743945147102011010718537+42933-071438FM-15+0071KMHT V0201005N00415022865MN0160935N5-00175-00895099995ADDAA101000025GA1025+010675999GA2085+022865999GD11991+0106759GD24991+0228659GF108991999999999999999999MA1099805098965REMMET11901/07/11 13:53:02 METAR KMHT 071853Z 10008KT 10SM FEW035 OVC075 M02/M09 A2947 RMK AO2 SNE11 SLP999 P0000 T10171089 (JS)
0222743945147102011010719516+42933-071438FM-16+0071KMHT V0200605N00365008235MN0160935N5-00205-00805999999ADDGA1075+008235999GA2075+013115999GA3085+016765999GD13991+0082359GD23991+0131159GD34991+0167659MA1099805098965REMMET10201/07/11 14:51:02 SPECI KMHT 071951Z 06007KT 10SM BKN027 BKN043 OVC055 M02/M08 A2947 RMK AO2 FIBI (JS)
0233743945147102011010719537+42933-071438FM-15+0071KMHT V0200505N00265008235MN0160935N5-00175-00895099985ADDAA101000095GA1075+008235999GA2085+016765999GD13991+0082359GD24991+0167659GF108991999999999999999999MA1099805098965REMMET10701/07/11 14:53:02 METAR KMHT 071953Z 05005KT 10SM BKN027 OVC055 M02/M09 A2947 RMK AO2 SLP998 T10171089 (JS)
0232743945147102011010720537+42933-071438FM-15+0071KMHT V0200405N00365008235MN0160935N5-00225-00835099965ADDAA101000095AA203000021GA1075+008235999GD13991+0082359GF107991999999999999999999MA1099765098925MD1640074+9999REMMET11201/07/11 15:53:02 METAR KMHT 072053Z 04007KT 10SM BKN027 M02/M08 A2946 RMK AO2 SLP996 60000 T10221083 56007 (JS)
0195743945147102011010721537+42933-071438FM-15+0071KMHT V0200505N00265008845MN0160935N5-00285-00945099985ADDAA101000095GA1075+008845999GD13991+0088459GF107991999999999999999999MA1099805098965REMMET10001/07/11 16:53:02 METAR KMHT 072153Z 05005KT 10SM BKN029 M03/M09 A2947 RMK AO2 SLP998 T10281094 (JS)
0184743945147102011010722516+42933-071438FM-16+0071KMHT V0200205N00215010675MN0160935N5-00305-00905999999ADDGA1025+007015999GA2075+010675999GD11991+0070159GD23991+0106759MA1099805098965REMMET09501/07/11 17:51:02 SPECI KMHT 072251Z 02004KT 10SM FEW023 BKN035 M03/M09 A2947 RMK AO2 FIBI (JS)
0233743945147102011010722537+42933-071438FM-15+0071KMHT V0200305N00315010675MN0160935N5-00335-00945099995ADDAA101000095GA1025+007015999GA2075+010675999GD11991+0070159GD23991+0106759GF107991999999999999999999MA1099805098965REMMET10701/07/11 17:53:02 METAR KMHT 072253Z 03006KT 10SM FEW023 BKN035 M03/M09 A2947 RMK AO2 SLP999 T10331094 (JS)
0308743945147102011010723537+42933-071438FM-15+0071KMHT V0200505N00575012195MN0160935N5-00395-01065099965ADDAA101000095AA206000021GA1025+007015999GA2085+012195999GD11991+0070159GD24991+0121959GF108991999999999999999999KA1999M-00171KA2999N-00391MA1099765098925MD1840004+9999REMMET13101/07/11 18:53:02 METAR KMHT 072353Z 05011KT 10SM FEW023 OVC040 M04/M11 A2946 RMK AO2 SLP996 60000 T10391106 11017 21039 58000 (JS)
0190743945147102011010800537+42933-071438FM-15+0071KMHT V0200405N00315013415MN0160935N5-00395-01065099955ADDAA101000095GA1085+013415999GD14991+0134159GF108991999999999999999999MA1099765098925REMMET09501/07/11 19:53:01 METAR KMHT 080053Z 04006KT 10SM OVC044 M04/M11 A2946 RMK AO2 SLP995 T10391106
0266743945147102011010801537+42933-071438FM-15+0071KMHT V0200105N00155024385MN0160935N5-00445-01065099985ADDAA101000095GA1045+010065999GA2075+024385999GA3085+030485999GD12991+0100659GD23991+0243859GD34991+0304859GF108991999999999999999999MA1099805098965REMMET10901/07/11 20:53:01 METAR KMHT 080153Z 01003KT 10SM SCT033 BKN080 OVC100 M04/M11 A2947 RMK AO2 SLP998 T10441106
0248743945147102011010802537+42933-071438FM-15+0071KMHT V0200405N00265030485MN0160935N5-00445-01115099945ADDAA101000095GA1045+022865999GA2085+030485999GD12991+0228659GD24991+0304859GF108991999999999999999999MA1099735098895MD1840024+9999REMMET10801/07/11 21:53:01 METAR KMHT 080253Z 04005KT 10SM SCT075 OVC100 M04/M11 A2945 RMK AO2 SLP994 T10441111 58002
0200743945147102011010803347+42933-071438FM-16+0071KMHT V0200305N00315008845MN0160935N5-00405-01305999999ADDGA1075+008845999GA2085+021345999GD13991+0088459GD24991+0213459GF108991999999999999999999MA1099765098925REMMET08501/07/11 22:34:01 SPECI KMHT 080334Z 03006KT 10SM BKN029 OVC070 M04/M13 A2946 RMK AO2
0228743945147102011010803537+42933-071438FM-15+0071KMHT V0200505N00265008845MN0160935N5-00395-01285099935ADDAA101000095GA1075+008845999GA2085+021345999GD13991+0088459GD24991+0213459GF108991999999999999999999MA1099765098925REMMET10201/07/11 22:53:01 METAR KMHT 080353Z 05005KT 10SM BKN029 OVC070 M04/M13 A2946 RMK AO2 SLP993 T10391128
0200743945147102011010804097+42933-071438FM-16+0071KMHT V0200305N00315009755MN0160935N5-00405-01305999999ADDGA1075+009755999GA2085+022865999GD13991+0097559GD24991+0228659GF108991999999999999999999MA1099765098925REMMET08501/07/11 23:09:01 SPECI KMHT 080409Z 03006KT 10SM BKN032 OVC075 M04/M13 A2946 RMK AO2
0238743945147102011010804537+42933-071438FM-15+0071KMHT V0200405N00315011585MN0160935N5-00395-01285099895ADDAA101000095GA1075+011585999GA2085+030485999GD13991+0115859GD24991+0304859GF108991999999999999999999MA1099705098865REMMET11201/07/11 23:53:01 METAR KMHT 080453Z 04006KT 10SM BKN038 OVC100 M04/M13 A2944 RMK AO2 SLP989 T10391128 410171111
0972743945147102011010804596+42933-071438SOD  +0071KMHT V020999999999999999999999999999+99999+99999999999ADDAA124000025AJ100009599999999AL12400035AN1024000035KA1240M-00165KA2240N-01105MG1099154099904OE11240076003019205OE22240062605018545OE33240023299999995REMSOD77724 HR PRECIPITATION (IN):T     SNOW DEPTH (IN):0     24 HR SNOWFALL (IN):T    24 HR MAX TEMP (F):29 24 HR MAX TEMP TIME (LST):1537 24 HR MIN TEMP (F):12 24 HR MIN TEMP TIME (LST):0128 AVERAGE STATION PRESSURE:29.280 MINIMUM SEA LEVEL PRESSURE:29.50 TIME OF OCCURRENCE:2359 PEAK WIND SPEED (MPH):17  PEAK WIND DIR (DEG):30  PEAK WIND TIME (LST):1920  FASTEST 2MIN SPEED (MPH):14 FASTEST 2MIN DIR (DEG):50  FASTEST 2MIN TIME (LST):1854 AVERAGE WIND SPEED (MPH):5.2  24 HR AVG TEMP (F):21 HEATING DEGREE DAYS:44  COOLING DEGREE DAYS:0   LATEST DAY MAX TEMP (0700-1900 LST):29  LATEST NIGHT MIN TEMP(1900-0800 LST):12 HOURLY INCREMENTAL PRECIPITATION VALUES (IN):.00 0.00 0.00 0.00 0.00 0.00 0.00 0.00 0.00 0.00 0.00 0.00 T    T    0.00 0.00 0.00 0.00 0.00 0.00 0.00 0.00 0.00 0.00EQDR01     N7GJS072R02     N7GKS075
0378743945147102011010805537+42933-071438FM-15+0071KMHT V0200505N00155010675MN0144845N5-00395-01175099895ADDAA101000025AA206000021AU110030015AW1715GA1075+010675999GA2085+027435999GD13991+0106759GD24991+0274359GF108991999999999999999999KA1999M-00391KA2999N-00441MA1099705098865MD1840044+9999MW1711REMMET15901/08/11 00:53:02 METAR KMHT 080553Z 05003KT 9SM -SN BKN035 OVC090 M04/M12 A2944 RMK AO2 SNB25 SLP989 PCPN VRY LGT P0000 60000 T10391117 11039 21044 58004 (RN)EQDQ01  00008PRCP06
0227743945147102011010806537+42933-071438FM-15+0071KMHT V0200405N00315010065MN0144845N5-00445-01175099895ADDAA101000025AU110030015AW1715GA1085+010065999GD14991+0100659GF108991999999999999999999MA1099705098865MW1711REMMET10901/08/11 01:53:02 METAR KMHT 080653Z 04006KT 9SM -SN OVC033 M04/M12 A2944 RMK AO2 SLP989 P0000 T10441117 (RN)
0238743945147102011010807537+42933-071438FM-15+0071KMHT V0200405N00465010675MN0144845N5-00445-01005099885ADDAA101000025AU110030015AW1715GA1085+010675999GD14991+0106759GF108991999999999999999999MA1099705098865MW1711OC100725REMMET11201/08/11 02:53:02 METAR KMHT 080753Z 04009G14KT 9SM -SN OVC035 M04/M10 A2944 RMK AO2 SLP988 P0000 T10441100 (RN)
0334743945147102011010808537+42933-071438FM-15+0071KMHT V0200405N00415022865MN0144845N5-00505-00895099855ADDAA101000025AA203000021AU110030015AW1715GA1045+010675999GA2085+022865999GD12991+0106759GD24991+0228659GF108991999999999999999999MA1099665098825MD1840044+9999MW1711REMMET14101/08/11 03:53:02 METAR KMHT 080853Z 04008KT 9SM -SN SCT035 OVC075 M05/M09 A2943 RMK AO2 SLP985 PCPN VRY LGT P0000 60000 T10501089 58004 (RN)EQDQ01  00008PRCP03
0282743945147102011010809537+42933-071438FM-15+0071KMHT V0200305N00315015245MN0144845N5-00505-00895099865ADDAA101000025GA1025+010675999GA2075+015245999GA3085+021345999GD11991+0106759GD23991+0152459GD34991+0213459GF108991999999999999999999MA1099665098825REMMET12501/08/11 04:53:02 METAR KMHT 080953Z 03006KT 9SM FEW035 BKN050 OVC070 M05/M09 A2943 RMK AO2 SNE49 SLP986 P0000 T10501089 (RN)
0271743945147102011010810537+42933-071438FM-15+0071KMHT V0200405N00265010675MN0144845N5-00505-00835099905ADDAA101000025AU110030015AW1715GA1075+010675999GA2085+018295999GD13991+0106759GD24991+0182959GF108991999999999999999999MA1099735098895MW1711REMMET12201/08/11 05:53:02 METAR KMHT 081053Z 04005KT 9SM -SN BKN035 OVC060 M05/M08 A2945 RMK AO2 SNB15 SLP990 P0000 T10501083 (RN)
0321743945147102011010811537+42933-071438FM-15+0071KMHT V0200205N00365010065MN0144845N5-00505-00785099955ADDAA101000025AA206000021AU110030015AW1715GA1085+010065999GD14991+0100659GF108991999999999999999999KA1999M-00391KA2999N-00501MA1099765098925MD1340094+9999MW1711REMMET13301/08/11 06:53:02 METAR KMHT 081153Z 02007KT 9SM -SN OVC033 M05/M08 A2946 RMK AO2 SLP995 P0000 60000 T10501078 11039 21050 53009 (CD)EQDQ01  00008PRCP06
0283743945147102011010812537+42933-071438FM-15+0071KMHT V0200305N00415013725MN0160935N5-00505-00835099985ADDAA101000025GA1025+010065999GA2075+013725999GA3085+019815999GD11991+0100659GD23991+0137259GD34991+0198159GF108991999999999999999999MA1099805098965REMMET12601/08/11 07:53:02 METAR KMHT 081253Z 03008KT 10SM FEW033 BKN045 OVC065 M05/M08 A2947 RMK AO2 SNE29 SLP998 P0000 T10501083 (CD)
0195743945147102011010813537+42933-071438FM-15+0071KMHT V0200205N00415016765MN0160935N5-00445-00785099985ADDAA101000095GA1085+016765999GD14991+0167659GF108991999999999999999999MA1099805098965REMMET10001/08/11 08:53:02 METAR KMHT 081353Z 02008KT 10SM OVC055 M04/M08 A2947 RMK AO2 SLP998 T10441078 (CD)
0369743945147102011010814537+42933-071438FM-15+0071KMHT V0200205N00415014335MN0040235N5-00395-00675099965ADDAA101000025AA203000021AU110030015AW1715GA1025+008535999GA2045+009755999GA3085+014335999GD11991+0085359GD22991+0097559GD34991+0143359GF108991999999999999999999MA1099765098925MD1040024+9999MW1711REMMET14501/08/11 09:53:02 METAR KMHT 081453Z 02008KT 2 1/2SM -SN FEW028 SCT032 OVC047 M04/M07 A2946 RMK AO2 SNB43 SLP996 P0000 60000 T10391067 50002 (CD)EQDQ01  00008PRCP03
0286743945147102011010815077+42933-071438FM-16+0071KMHT V0200305N00315012805MN0080475N5-00305-00705999999ADDAA101000021AU110030015AW1715GA1045+008535999GA2075+012805999GA3085+015245999GD12991+0085359GD23991+0128059GD34991+0152459GF108991999999999999999999MA1099805098965MW1711REMMET10601/08/11 10:07:02 SPECI KMHT 081507Z 03006KT 5SM -SN SCT028 BKN042 OVC050 M03/M07 A2947 RMK AO2 P0000 (CD)
0262743945147102011010815257+42933-071438FM-16+0071KMHT V0200205N00315012195MN0028165N5-00305-00705999999ADDAA101000021AU110030015AW1715GA1045+007925999GA2085+012195999GD12991+0079259GD24991+0121959GF108991999999999999999999MA1099765098925MW1711REMMET11301/08/11 10:25:02 SPECI KMHT 081525Z 02006KT 1 3/4SM -SN SCT026 OVC040 M03/M07 A2946 RMK AO2 TWR VIS 3 P0000 (CD)
0258743945147102011010815307+42933-071438FM-16+0071KMHT V0200105N00415007925MN0032195N5-00305-00605999999ADDAA101000021AU110030015AW1715GA1075+007925999GA2085+012195999GD13991+0079259GD24991+0121959GF108991999999999999999999MA1099765098925MW1711REMMET10901/08/11 10:30:02 SPECI KMHT 081530Z 01008KT 2SM -SN BKN026 OVC040 M03/M06 A2946 RMK AO2 TWR VIS 3 P0000 (CD)
0294743945147102011010815397+42933-071438FM-16+0071KMHT V0200105N00215007325MN0028165N5-00305-00605999999ADDAA101000021AU110030015AW1715ED135U18299GA1075+007325999GA2085+011585999GD13991+0073259GD24991+0115859GF108991999999999999999999MA1099765098925MW1711REMMET13401/08/11 10:39:02 SPECI KMHT 081539Z 01004KT 1 3/4SM R35/6000VP6000FT -SN BKN024 OVC038 M03/M06 A2946 RMK AO2 SFC VIS 2 1/2 P0000 (CD)
0265743945147102011010815537+42933-071438FM-15+0071KMHT V0203605N00155007325MN0032195N5-00335-00615099945ADDAA101000025AU110030015AW1715GA1045+005495999GA2085+007325999GD12991+0054959GD24991+0073259GF108991999999999999999999MA1099765098925MW1711REMMET11601/08/11 10:53:02 METAR KMHT 081553Z 36003KT 2SM -SN SCT018 OVC024 M03/M06 A2946 RMK AO2 SLP994 P0000 T10331061 (CD)
0344743945147102011010816017+42933-071438FM-16+0071KMHT V0202905N00265007325MN0028165N5-00405-00605999999ADDAA101000021AU110030015AU200001015AW1105AW2715ED135U18299GA1025+003965999GA2045+005495999GA3085+007325999GD11991+0039659GD22991+0054959GD34991+0073259GF108991999999999999999999MA1099765098925MW1101MW2711REMMET13001/08/11 11:01:02 SPECI KMHT 081601Z 29005KT 1 3/4SM R35/6000VP6000FT -SN BR FEW013 SCT018 OVC024 M04/M06 A2946 RMK AO2 P0000 (CD)
0267743945147102011010816537+42933-071438FM-15+0071KMHT V0203505N00315007325MN0028165N5-00335-00565099855ADDAA101000025AU110030015AU200001015AW1105AW2715GA1085+007325999GD14991+0073259GF108991999999999999999999MA1099665098825MW1101MW2711REMMET12601/08/11 11:53:02 METAR KMHT 081653Z 35006KT 1 3/4SM -SN BR OVC024 M03/M06 A2943 RMK AO2 SFC VIS 3 SLP985 P0000 T10331056 (CD)
0236743945147102011010817007+42933-071438FM-16+0071KMHT V0203405N00265007325MN0064375N5-00305-00505999999ADDAA101000021AU110030015AU200001015AW1105AW2715GA1085+007325999GD14991+0073259GF108991999999999999999999MA1099665098825MW1101MW2711REMMET09501/08/11 12:00:02 SPECI KMHT 081700Z 34005KT 4SM -SN BR OVC024 M03/M05 A2943 RMK AO2 P0000 (CD)
0339743945147102011010817537+42933-071438FM-15+0071KMHT V0203505N00215006715MN0160935N5-00225-00505099825ADDAA101000025AA206000021GA1025+003965999GA2085+006715999GD11991+0039659GD24991+0067159GF108991999999999999999999KA1999M-00221KA2999N-00501MA1099635098795MD1840144+9999REMMET14301/08/11 12:53:02 METAR KMHT 081753Z 35004KT 10SM FEW013 OVC022 M02/M05 A2942 RMK AO2 SNE04 SLP982 P0000 60000 T10221050 11022 21050 58014 (CD)EQDQ01  00008PRCP06
0233743945147102011010818537+42933-071438FM-15+0071KMHT V0200305N00365006715MN0160935N5-00175-00505099795ADDAA101000095GA1025+004575999GA2085+006715999GD11991+0045759GD24991+0067159GF108991999999999999999999MA1099595098755REMMET10701/08/11 13:53:02 METAR KMHT 081853Z 03007KT 10SM FEW015 OVC022 M02/M05 A2941 RMK AO2 SLP979 T10171050 (CD)
0233743945147102011010819537+42933-071438FM-15+0071KMHT V0200205N00315007625MN0160935N5-00115-00505099785ADDAA101000095GA1045+004575999GA2085+007625999GD12991+0045759GD24991+0076259GF108991999999999999999999MA1099595098755REMMET10701/08/11 14:53:02 METAR KMHT 081953Z 02006KT 10SM SCT015 OVC025 M01/M05 A2941 RMK AO2 SLP978 T10111050 (CD)
0217743945147102011010820537+42933-071438FM-15+0071KMHT V0203305N00215007625MN0160935N5-00115-00445099815ADDAA101000095GA1085+007625999GD14991+0076259GF108991999999999999999999MA1099635098795MD1540014+9999REMMET10801/08/11 15:53:02 METAR KMHT 082053Z 33004KT 10SM OVC025 M01/M04 A2942 RMK AO2 SLP981 T10111044 55001 $ (DW)
0211743945147102011010821537+42933-071438FM-15+0071KMHT V0203505N00515008235MN0144845N5-00175-00445099725ADDAA101000025GA1085+008235999GD14991+0082359GF108991999999999999999999MA1099535098695REMMET11601/08/11 16:53:02 METAR KMHT 082153Z 35010KT 9SM OVC027 M02/M04 A2939 RMK AO2 SNB35E49 SLP972 P0000 T10171044 $ (DW)
0197743945147102011010822537+42933-071438FM-15+0071KMHT V0203305N00315009145MN0160935N5-00175-00445099795ADDAA101000095GA1085+009145999GD14991+0091459GF108991999999999999999999MA1099595098755REMMET10201/08/11 17:53:02 METAR KMHT 082253Z 33006KT 10SM OVC030 M02/M04 A2941 RMK AO2 SLP979 T10171044 $ (DW)
0279743945147102011010823537+42933-071438FM-15+0071KMHT V0203405N00675015245MN0160935N5-00225-00445099655ADDAA101000095AA206000021GA1085+015245999GD14991+0152459GF108991999999999999999999KA1999M-00111KA2999N-00221MA1099465098625MD1840164+9999REMMET13301/08/11 18:53:02 METAR KMHT 082353Z 34013KT 10SM OVC050 M02/M04 A2937 RMK AO2 PRESFR SLP965 60000 T10221044 11011 21022 58016 $ (DW)
0192743945147102011010900537+42933-071438FM-15+0071KMHT V0203505N00465016765MN0160935N5-00175-00445099715ADDAA101000095GA1085+016765999GD14991+0167659GF108991999999999999999999MA1099535098695REMMET09701/08/11 19:53:01 METAR KMHT 090053Z 35009KT 10SM OVC055 M02/M04 A2939 RMK AO2 SLP971 T10171044 $
0192743945147102011010901537+42933-071438FM-15+0071KMHT V0203405N00465018295MN0160935N5-00175-00445099695ADDAA101000095GA1085+018295999GD14991+0182959GF108991999999999999999999MA1099495098655REMMET09701/08/11 20:53:01 METAR KMHT 090153Z 34009KT 10SM OVC060 M02/M04 A2938 RMK AO2 SLP969 T10171044 $
0212743945147102011010902537+42933-071438FM-15+0071KMHT V0203305N00365016765MN0160935N5-00175-00505099655ADDAA101000095GA1075+016765999GD13991+0167659GF107991999999999999999999MA1099465098625MD1040014+9999REMMET10301/08/11 21:53:01 METAR KMHT 090253Z 33007KT 10SM BKN055 M02/M05 A2937 RMK AO2 SLP965 T10171050 50001 $
0192743945147102011010903537+42933-071438FM-15+0071KMHT V0203405N00465019815MN0160935N5-00225-00565099615ADDAA101000095GA1075+019815999GD13991+0198159GF107991999999999999999999MA1099425098595REMMET09701/08/11 22:53:01 METAR KMHT 090353Z 34009KT 10SM BKN065 M02/M06 A2936 RMK AO2 SLP961 T10221056 $
0168743945147102011010904537+42933-071438FM-15+0071KMHT V0203305N003152200059N0160935N5-00225-00565099605ADDAA101000095GF100991999999999999999999MA1099425098595REMMET10401/08/11 23:53:01 METAR KMHT 090453Z 33006KT 10SM CLR M02/M06 A2936 RMK AO2 SLP960 T10221056 410111050 $
0993743945147102011010904596+42933-071438SOD  +0071KMHT V020999999999999999999999999999+99999+99999999999ADDAA124000025AJ100009599999999AX1086246AX2016246KA1240M-00105KA2240N-00495MG1098804099594OE11240080535023275OE22240067134019015OE33240035899999995REMSOD77024 HR PRECIPITATION (IN):T     SNOW DEPTH (IN):0    WEATHER(CODE):8,1  24 HR MAX TEMP (F):30 24 HR MAX TEMP TIME (LST):1623 24 HR MIN TEMP (F):23 24 HR MIN TEMP TIME (LST):0816 AVERAGE STATION PRESSURE:29.175 MINIMUM SEA LEVEL PRESSURE:29.41 TIME OF OCCURRENCE:2359 PEAK WIND SPEED (MPH):18  PEAK WIND DIR (DEG):350 PEAK WIND TIME (LST):2327  FASTEST 2MIN SPEED (MPH):15 FASTEST 2MIN DIR (DEG):340 FASTEST 2MIN TIME (LST):1901 AVERAGE WIND SPEED (MPH):8.0  24 HR AVG TEMP (F):27 HEATING DEGREE DAYS:38  COOLING DEGREE DAYS:0   LATEST DAY MAX TEMP (0700-1900 LST):30  LATEST NIGHT MIN TEMP(1900-0800 LST):23 HOURLY INCREMENTAL PRECIPITATION VALUES (IN):    T    T    T    T    T    T    T    0.00 T    T    T    T    0.00 0.00 0.00 T    0.00 0.00 0.00 0.00 0.00 0.00 0.00EQDR01   8,17AXW093R02   8,17AXW093R03     N7GJS072R04     N7GKS075
0255743945147102011010905537+42933-071438FM-15+0071KMHT V0203505N00575030485MN0160935N5-00285-00675099665ADDAA101000095GA1085+030485999GD14991+0304859GF108991999999999999999999KA1999M-00171KA2999N-00281MA1099495098655MD1340014+9999REMMET12001/09/11 00:53:02 METAR KMHT 090553Z 35011KT 10SM OVC100 M03/M07 A2938 RMK AO2 SLP966 T10281067 11017 21028 53001 $ (ME)
0245743945147102011010906207+42933-071438FM-16+0071KMHT V0203005N00415007325MN0160935N5-00305-00605999999ADDGA1075+007325999GA2075+021345999GA3085+025915999GD13991+0073259GD23991+0213459GD34991+0259159GF108991999999999999999999MA1099465098625REMMET09901/09/11 01:20:02 SPECI KMHT 090620Z 30008KT 10SM BKN024 BKN070 OVC085 M03/M06 A2937 RMK AO2 $ (ME)
0208743945147102011010906537+42933-071438FM-15+0071KMHT V0203205N00515007925MN0160935N5-00285-00675099685ADDAA101000095GA1085+007925999GD14991+0079259GF108991999999999999999999MA1099495098655OC100825REMMET10501/09/11 01:53:02 METAR KMHT 090653Z 32010G16KT 10SM OVC026 M03/M07 A2938 RMK AO2 SLP968 T10281067 $ (ME)
0245743945147102011010907247+42933-071438FM-16+0071KMHT V0203305N00415011895MN0160935N5-00305-00705999999ADDGA1045+008535999GA2075+011895999GA3085+033535999GD12991+0085359GD23991+0118959GD34991+0335359GF108991999999999999999999MA1099495098655REMMET09901/09/11 02:24:02 SPECI KMHT 090724Z 33008KT 10SM SCT028 BKN039 OVC110 M03/M07 A2938 RMK AO2 $ (ME)
0273743945147102011010907537+42933-071438FM-15+0071KMHT V0203305N00515007925MN0160935N5-00285-00675099725ADDAA101000095GA1075+007925999GA2075+011285999GA3085+013725999GD13991+0079259GD23991+0112859GD34991+0137259GF108991999999999999999999MA1099535098695REMMET11601/09/11 02:53:02 METAR KMHT 090753Z 33010KT 10SM BKN026 BKN037 OVC045 M03/M07 A2939 RMK AO2 SLP972 T10281067 $ (ME)
0197743945147102011010908516+42933-071438FM-16+0071KMHT V0203205N00465009755MN0160935N5-00205-00705999999ADDGA1075+009755999GA2085+011895999GD13991+0097559GD24991+0118959MA1099635098795OC100885REMMET10001/09/11 03:51:02 SPECI KMHT 090851Z 32009G17KT 10SM BKN032 OVC039 M02/M07 A2942 RMK AO2 $ FIBI (ME)
0228743945147102011010908537+42933-071438FM-15+0071KMHT V0203205N00365009755MN0160935N5-00225-00725099805ADDAA101000095GA1085+009755999GD14991+0097559GF108991999999999999999999MA1099635098795MD1340144+9999OC100825REMMET11101/09/11 03:53:02 METAR KMHT 090853Z 32007G16KT 10SM OVC032 M02/M07 A2942 RMK AO2 SLP980 T10221072 53014 $ (ME)
0208743945147102011010909537+42933-071438FM-15+0071KMHT V0203205N00625012195MN0160935N5-00225-00725099905ADDAA101000095GA1085+012195999GD14991+0121959GF108991999999999999999999MA1099735098895OC101085REMMET10501/09/11 04:53:02 METAR KMHT 090953Z 32012G21KT 10SM OVC040 M02/M07 A2945 RMK AO2 SLP990 T10221072 $ (ME)
0174743945147102011010910537+42933-071438FM-15+0071KMHT V0203205N007252200059N0160935N5-00285-00785099985ADDAA101000095GF100991999999999999999999MA1099805098965OC101135REMMET10201/09/11 05:53:02 METAR KMHT 091053Z 32014G22KT 10SM CLR M03/M08 A2947 RMK AO2 SLP998 T10281078 $ (BB)
0232743945147102011010911537+42933-071438FM-15+0071KMHT V0203105N003652200059N0160935N5-00285-00785100085ADDAA101000095GF100991999999999999999999KA1999M-00221KA2999N-00281MA1099905099065MD1140274+9999OC100985REMMET12001/09/11 06:53:02 METAR KMHT 091153Z 31007G19KT 10SM CLR M03/M08 A2950 RMK AO2 SLP008 T10281078 11022 21028 51027 $ (BB)
0208743945147102011010912537+42933-071438FM-15+0071KMHT V0203205N006252200059N0160935N5-00285-00835100185ADDAA101000095GA1025+009145999GD11991+0091459GF102991999999999999999999MA1100005099165OC100935REMMET10501/09/11 07:53:02 METAR KMHT 091253Z 32012G18KT 10SM FEW030 M03/M08 A2953 RMK AO2 SLP018 T10281083 $ (BB)
0208743945147102011010913537+42933-071438FM-15+0071KMHT V0203205N006752200059N0160935N5-00225-00835100265ADDAA101000095GA1045+009145999GD12991+0091459GF104991999999999999999999MA1100105099265OC101035REMMET10501/09/11 08:53:02 METAR KMHT 091353Z 32013G20KT 10SM SCT030 M02/M08 A2956 RMK AO2 SLP026 T10221083 $ (BB)
0228743945147102011010914537+42933-071438FM-15+0071KMHT V0203105N006252200059N0160935N5-00175-00835100375ADDAA101000095GA1045+009145999GD12991+0091459GF104991999999999999999999MA1100205099365MD1340304+9999OC101085REMMET11101/09/11 09:53:02 METAR KMHT 091453Z 31012G21KT 10SM SCT030 M02/M08 A2959 RMK AO2 SLP037 T10171083 53030 $ (BB)
0208743945147102011010915537+42933-071438FM-15+0071KMHT V0203105N007252200059N0160935N5-00115-00835100375ADDAA101000095GA1045+010365999GD12991+0103659GF104991999999999999999999MA1100205099365OC101085REMMET10501/09/11 10:53:02 METAR KMHT 091553Z 31014G21KT 10SM SCT034 M01/M08 A2959 RMK AO2 SLP037 T10111083 $ (BB)
0208743945147102011010916537+42933-071438FM-15+0071KMHT V0202805N005152200059N0160935N5-00065-00835100365ADDAA101000095GA1045+011585999GD12991+0115859GF104991999999999999999999MA1100175099335OC100885REMMET10501/09/11 11:53:02 METAR KMHT 091653Z 28010G17KT 10SM SCT038 M01/M08 A2958 RMK AO2 SLP036 T10061083 $ (BB)
0283743945147102011010917537+42933-071438FM-15+0071KMHT V0202905N006252200059N0160935N5+00065-00835100385ADDAA101000095GA1025+012505999GD11991+0125059GF102991999999999999999999KA1999M+00061KA2999N-00281MA1100205099365MD1340014+9999OC101345REMMET14001/09/11 12:53:02 METAR KMHT 091753Z 29012G26KT 10SM FEW041 01/M08 A2959 RMK AO2 PK WND 30026/1746 SLP038 T00061083 10006 21028 53001 $ (BB)
0207743945147102011010918537+42933-071438FM-15+0071KMHT V0202905N006252200059N0160935N5+00065-00835100475ADDAA101000095GA1045+012805999GD12991+0128059GF104991999999999999999999MA1100305099465OC101185REMMET10401/09/11 13:53:02 METAR KMHT 091853Z 29012G23KT 10SM SCT042 01/M08 A2962 RMK AO2 SLP047 T00061083 $ (BB)
0225743945147102011010919537+42933-071438FM-15+0071KMHT V0202905N008252200059N0160935N5+00065-00895100595ADDAA101000095GA1025+012805999GD11991+0128059GF102991999999999999999999MA1100415099565OC101135REMMET12201/09/11 14:53:02 METAR KMHT 091953Z 29016G22KT 10SM FEW042 01/M09 A2965 RMK AO2 PK WND 28027/1855 SLP059 T00061089 $ (PJ)
0193743945147102011010920537+42933-071438FM-15+0071KMHT V0203105N006252200059N0160935N5+00005-00945100715ADDAA101000095GF100991999999999999999999MA1100545099705MD1340324+9999OC100935REMMET10701/09/11 15:53:02 METAR KMHT 092053Z 31012G18KT 10SM CLR 00/M09 A2969 RMK AO2 SLP071 T00001094 53032 $ (PJ)
0174743945147102011010921537+42933-071438FM-15+0071KMHT V0202905N005152200059N0160935N5-00065-00945100815ADDAA101000095GF100991999999999999999999MA1100645099805OC101085REMMET10201/09/11 16:53:02 METAR KMHT 092153Z 29010G21KT 10SM CLR M01/M09 A2972 RMK AO2 SLP081 T10061094 $ (PJ)
0174743945147102011010922537+42933-071438FM-15+0071KMHT V0202905N004652200059N0160935N5-00175-01005100955ADDAA101000095GF100991999999999999999999MA1100755099905OC100935REMMET10201/09/11 17:53:02 METAR KMHT 092253Z 29009G18KT 10SM CLR M02/M10 A2975 RMK AO2 SLP095 T10171100 $ (PJ)
0232743945147102011010923537+42933-071438FM-15+0071KMHT V0202805N006252200059N0160935N5-00225-01005101045ADDAA101000095GF100991999999999999999999KA1999M+00061KA2999N-00221MA1100855100005MD1140314+9999OC100985REMMET12001/09/11 18:53:02 METAR KMHT 092353Z 28012G19KT 10SM CLR M02/M10 A2978 RMK AO2 SLP104 T10221100 10006 21022 51031 $ (PJ)
0158743945147102011011000537+42933-071438FM-15+0071KMHT V0202805N004152200059N0160935N5-00285-01065101165ADDAA101000095GF100991999999999999999999MA1100985100135REMMET09401/09/11 19:53:01 METAR KMHT 100053Z 28008KT 10SM CLR M03/M11 A2982 RMK AO2 SLP116 T10281106 $
0169743945147102011011001537+42933-071438FM-15+0071KMHT V0202905N004152200059N0160935N5-00335-01115101215ADDAA101000095GF100991999999999999999999MA1101025100175OC100935REMMET09701/09/11 20:53:01 METAR KMHT 100153Z 29008G18KT 10SM CLR M03/M11 A2983 RMK AO2 SLP121 T10331111 $
0189743945147102011011002537+42933-071438FM-15+0071KMHT V0202905N006252200059N0160935N5-00395-01115101265ADDAA101000095GF100991999999999999999999MA1101085100235MD1140224+9999OC100985REMMET10301/09/11 21:53:01 METAR KMHT 100253Z 29012G19KT 10SM CLR M04/M11 A2985 RMK AO2 SLP126 T10391111 51022 $
0187743945147102011011003537+42933-071438FM-15+0071KMHT V0203105N007252200059N0160935N5-00395-01175101295ADDAA101000095GF100991999999999999999999MA1101125100275OC101135REMMET11501/09/11 22:53:01 METAR KMHT 100353Z 31014G22KT 10SM CLR M04/M12 A2986 RMK AO2 PK WND 30026/0326 SLP129 T10391117 $
0179743945147102011011004537+42933-071438FM-15+0071KMHT V0203105N006752200059N0160935N5-00445-01175101285ADDAA101000095GF100991999999999999999999MA1101085100235OC101085REMMET10701/09/11 23:53:01 METAR KMHT 100453Z 31013G21KT 10SM CLR M04/M12 A2985 RMK AO2 SLP128 T10441117 400061044 $
0886743945147102011011004596+42933-071438SOD  +0071KMHT V020999999999999999999999999999+99999+99999999999ADDAA124000095KA1240M+00065KA2240N-00435MG1099264099594OE11240138628013555OE22240098329013395OE33240057799999995REMSOD73024 HR PRECIPITATION (IN):0.00  24 HR MAX TEMP (F):33 24 HR MAX TEMP TIME (LST):1530 24 HR MIN TEMP (F):24 24 HR MIN TEMP TIME (LST):2359 AVERAGE STATION PRESSURE:29.310 MINIMUM SEA LEVEL PRESSURE:29.41 TIME OF OCCURRENCE:0003 PEAK WIND SPEED (MPH):31  PEAK WIND DIR (DEG):280 PEAK WIND TIME (LST):1355  FASTEST 2MIN SPEED (MPH):22 FASTEST 2MIN DIR (DEG):290 FASTEST 2MIN TIME (LST):1339 AVERAGE WIND SPEED (MPH):12.9 24 HR AVG TEMP (F):29 HEATING DEGREE DAYS:36  COOLING DEGREE DAYS:0   LATEST DAY MAX TEMP (0700-1900 LST):33  LATEST NIGHT MIN TEMP(1900-0800 LST):27 HOURLY INCREMENTAL PRECIPITATION VALUES (IN):.00 0.00 0.00 0.00 0.00 0.00 0.00 0.00 0.00 0.00 0.00 0.00 0.00 0.00 0.00 0.00 0.00 0.00 0.00 0.00 0.00 0.00 0.00 0.00EQDR01     N7GJS072R02     N7GKS075
0233743945147102011011005537+42933-071438FM-15+0071KMHT V0203005N005752200059N0160935N5-00505-01225101345ADDAA101000095GF100991999999999999999999KA1999M-00171KA2999N-00501MA1101155100305MD1340084+9999OC100935REMMET12101/10/11 00:53:02 METAR KMHT 100553Z 30011G18KT 10SM CLR M05/M12 A2987 RMK AO2 SLP134 T10501122 11017 21050 53008 $ (STJ)
0209743945147102011011006537+42933-071438FM-15+0071KMHT V0203205N006252200059N0160935N5-00505-01225101455ADDAA101000095GA1025+010675999GD11991+0106759GF102991999999999999999999MA1101255100405OC101035REMMET10601/10/11 01:53:02 METAR KMHT 100653Z 32012G20KT 10SM FEW035 M05/M12 A2990 RMK AO2 SLP145 T10501122 $ (STJ)
0175743945147102011011007537+42933-071438FM-15+0071KMHT V0202905N005752200059N0160935N5-00565-01285101465ADDAA101000095GF100991999999999999999999MA1101255100405OC100985REMMET10301/10/11 02:53:02 METAR KMHT 100753Z 29011G19KT 10SM CLR M06/M13 A2990 RMK AO2 SLP146 T10561128 $ (STJ)
0184743945147102011011008537+42933-071438FM-15+0071KMHT V0203205N003652200059N0160935N5-00615-01285101475ADDAA101000095GF100991999999999999999999MA1101295100445MD1140134+9999REMMET10601/10/11 03:53:02 METAR KMHT 100853Z 32007KT 10SM CLR M06/M13 A2991 RMK AO2 SLP147 T10611128 51013 $ (STJ)
0193743945147102011011009537+42933-071438FM-15+0071KMHT V0203205N005152200059N0160935N5-00615-01335101465ADDAA101000095GF100991999999999999999999MA1101295100445OC101395REMMET12101/10/11 04:53:02 METAR KMHT 100953Z 32010G27KT 10SM CLR M06/M13 A2991 RMK AO2 PK WND 32027/0946 SLP146 T10611133 $ (STJ)
0174743945147102011011010537+42933-071438FM-15+0071KMHT V0203205N007252200059N0160935N5-00675-01395101505ADDAA101000095GF100991999999999999999999MA1101325100475OC101035REMMET10201/10/11 05:53:02 METAR KMHT 101053Z 32014G20KT 10SM CLR M07/M14 A2992 RMK AO2 SLP150 T10671139 $ (CZ)
0266743945147102011011011537+42933-071438FM-15+0071KMHT V0203205N00415030485MN0160935N5-00675-01445101665ADDAA101000095GA1075+030485999GD13991+0304859GF107991999999999999999999KA1999M-00501KA2999N-00671MA1101465100605MD1340184+9999OC100825REMMET12301/10/11 06:53:02 METAR KMHT 101153Z 32008G16KT 10SM BKN100 M07/M14 A2996 RMK AO2 SLP166 T10671144 11050 21067 53018 $ (CZ)
0206743945147102011011012537+42933-071438FM-15+0071KMHT V0203205N00415030485MN0160935N5-00615-01395101745ADDAA101000095GA1075+030485999GD13991+0304859GF107991999999999999999999MA1101565100715OC100725REMMET10301/10/11 07:53:02 METAR KMHT 101253Z 32008G14KT 10SM BKN100 M06/M14 A2999 RMK AO2 SLP174 T10611139 (CZ)
0244743945147102011011013537+42933-071438FM-15+0071KMHT V0203105V00465033535MN0160935N5-00565-01395101805ADDAA101000095GA1045+027435999GA2075+033535999GD12991+0274359GD23991+0335359GF107991999999999999999999MA1101595100745OC100935REMMET11001/10/11 08:53:02 METAR KMHT 101353Z 31009G18KT 10SM SCT090 BKN110 M06/M14 A3000 RMK AO2 SLP180 T10561139 (CZ)
0226743945147102011011014537+42933-071438FM-15+0071KMHT V0203205N005752200059N0160935N5-00445-01335101865ADDAA101000095GA1025+030485999GD11991+0304859GF102991999999999999999999MA1101665100815MD1140214+9999OC101185REMMET10901/10/11 09:53:02 METAR KMHT 101453Z 32011G23KT 10SM FEW100 M04/M13 A3002 RMK AO2 SLP186 T10441133 51021 (CZ)
0206743945147102011011015537+42933-071438FM-15+0071KMHT V0203005N006752200059N0160935N5-00335-01225101865ADDAA101000095GA1025+027435999GD11991+0274359GF102991999999999999999999MA1101665100815OC101135REMMET10301/10/11 10:53:02 METAR KMHT 101553Z 30013G22KT 10SM FEW090 M03/M12 A3002 RMK AO2 SLP186 T10331122 (CZ)
0224743945147102011011016537+42933-071438FM-15+0071KMHT V0203105N008252200059N0160935N5-00225-01115101805ADDAA101000095GA1025+027435999GD11991+0274359GF102991999999999999999999MA1101595100745OC101395REMMET12101/10/11 11:53:02 METAR KMHT 101653Z 31016G27KT 10SM FEW090 M02/M11 A3000 RMK AO2 PK WND 31027/1650 SLP180 T10221111 (CZ)
0282743945147102011011017537+42933-071438FM-15+0071KMHT V0203105N006752200059N0160935N5-00115-01065101755ADDAA101000095GA1025+033535999GD11991+0335359GF102991999999999999999999KA1999M-00111KA2999N-00671MA1101565100715MD1840114+9999OC101135REMMET13901/10/11 12:53:02 METAR KMHT 101753Z 31013G22KT 10SM FEW110 M01/M11 A2999 RMK AO2 PK WND 30026/1706 SLP175 T10111106 11011 21067 58011 (CZ)
0171743945147102011011018537+42933-071438FM-15+0071KMHT V0203305N005752200059N0160935N5+00005-01005101775ADDAA101000095GF100991999999999999999999MA1101595100745OC100935REMMET09901/10/11 13:53:02 METAR KMHT 101853Z 33011G18KT 10SM CLR 00/M10 A3000 RMK AO2 SLP177 T00001100 (JS)
0171743945147102011011019537+42933-071438FM-15+0071KMHT V0203305N006252200059N0160935N5+00005-01005101875ADDAA101000095GF100991999999999999999999MA1101695100845OC101135REMMET09901/10/11 14:53:02 METAR KMHT 101953Z 33012G22KT 10SM CLR 00/M10 A3003 RMK AO2 SLP187 T00001100 (JS)
0192743945147102011011020537+42933-071438FM-15+0071KMHT V0203105N006252200059N0160935N5-00065-01005101925ADDAA101000095GF100991999999999999999999MA1101735100875MD1340184+9999OC100935REMMET10601/10/11 15:53:02 METAR KMHT 102053Z 31012G18KT 10SM CLR M01/M10 A3004 RMK AO2 SLP192 T10061100 53018 (JS)
0161743945147102011011021537+42933-071438FM-15+0071KMHT V0203205V004652200059N0160935N5-00175-00945102005ADDAA101000095GF100991999999999999999999MA1101795100945REMMET09701/10/11 16:53:02 METAR KMHT 102153Z 32009KT 10SM CLR M02/M09 A3006 RMK AO2 SLP200 T10171094 (JS)
0161743945147102011011022537+42933-071438FM-15+0071KMHT V0203205N003652200059N0160935N5-00225-00945102095ADDAA101000095GF100991999999999999999999MA1101905101045REMMET09701/10/11 17:53:02 METAR KMHT 102253Z 32007KT 10SM CLR M02/M09 A3009 RMK AO2 SLP209 T10221094 (JS)
0219743945147102011011023537+42933-071438FM-15+0071KMHT V0203205N003152200059N0160935N5-00285-01005102155ADDAA101000095GF100991999999999999999999KA1999M+00001KA2999N-00281MA1101965101115MD1140214+9999REMMET11501/10/11 18:53:02 METAR KMHT 102353Z 32006KT 10SM CLR M03/M10 A3011 RMK AO2 SLP215 T10281100 10000 21028 51021 (JS)
0167743945147102011011100537+42933-071438FM-15+0071KMHT V0203205N005752200059N0160935N5-00335-01005102195ADDAA101000095GF100991999999999999999999MA1102005101145OC100825REMMET09501/10/11 19:53:01 METAR KMHT 110053Z 32011G16KT 10SM CLR M03/M10 A3012 RMK AO2 SLP219 T10331100
0167743945147102011011101537+42933-071438FM-15+0071KMHT V0203205N005152200059N0160935N5-00395-01065102235ADDAA101000095GF100991999999999999999999MA1102035101185OC101035REMMET09501/10/11 20:53:01 METAR KMHT 110153Z 32010G20KT 10SM CLR M04/M11 A3013 RMK AO2 SLP223 T10391106
0187743945147102011011102537+42933-071438FM-15+0071KMHT V0203205N004152200059N0160935N5-00505-01115102265ADDAA101000095GF100991999999999999999999MA1102075101215MD1140114+9999OC100825REMMET10101/10/11 21:53:01 METAR KMHT 110253Z 32008G16KT 10SM CLR M05/M11 A3014 RMK AO2 SLP226 T10501111 51011
0156743945147102011011103537+42933-071438FM-15+0071KMHT V0203305N005752200059N0160935N5-00565-01115102245ADDAA101000095GF100991999999999999999999MA1102035101185REMMET09201/10/11 22:53:01 METAR KMHT 110353Z 33011KT 10SM CLR M06/M11 A3013 RMK AO2 SLP224 T10561111
0166743945147102011011104537+42933-071438FM-15+0071KMHT V0203305N004652200059N0160935N5-00615-01115102225ADDAA101000095GF100991999999999999999999MA1102035101185REMMET10201/10/11 23:53:01 METAR KMHT 110453Z 33009KT 10SM CLR M06/M11 A3013 RMK AO2 SLP222 T10611111 400001067
0886743945147102011011104596+42933-071438SOD  +0071KMHT V020999999999999999999999999999+99999+99999999999ADDAA124000095KA1240M+00005KA2240N-00665MG1100664101294OE11240138631011505OE22240102832011445OE33240053299999995REMSOD73024 HR PRECIPITATION (IN):0.00  24 HR MAX TEMP (F):32 24 HR MAX TEMP TIME (LST):1530 24 HR MIN TEMP (F):20 24 HR MIN TEMP TIME (LST):0802 AVERAGE STATION PRESSURE:29.725 MINIMUM SEA LEVEL PRESSURE:29.91 TIME OF OCCURRENCE:0010 PEAK WIND SPEED (MPH):31  PEAK WIND DIR (DEG):310 PEAK WIND TIME (LST):1150  FASTEST 2MIN SPEED (MPH):23 FASTEST 2MIN DIR (DEG):320 FASTEST 2MIN TIME (LST):1144 AVERAGE WIND SPEED (MPH):11.9 24 HR AVG TEMP (F):26 HEATING DEGREE DAYS:39  COOLING DEGREE DAYS:0   LATEST DAY MAX TEMP (0700-1900 LST):32  LATEST NIGHT MIN TEMP(1900-0800 LST):20 HOURLY INCREMENTAL PRECIPITATION VALUES (IN):.00 0.00 0.00 0.00 0.00 0.00 0.00 0.00 0.00 0.00 0.00 0.00 0.00 0.00 0.00 0.00 0.00 0.00 0.00 0.00 0.00 0.00 0.00 0.00EQDR01     N7GJS072R02     N7GKS075
0220743945147102011011105537+42933-071438FM-15+0071KMHT V0203305N004652200059N0160935N5-00675-01175102265ADDAA101000095GF100991999999999999999999KA1999M-00281KA2999N-00671MA1102075101215MD1340014+9999REMMET11601/11/11 00:53:02 METAR KMHT 110553Z 33009KT 10SM CLR M07/M12 A3014 RMK AO2 SLP226 T10671117 11028 21067 53001 (STJ)
0162743945147102011011106537+42933-071438FM-15+0071KMHT V0203205N003152200059N0160935N5-00725-01175102365ADDAA101000095GF100991999999999999999999MA1102175101315REMMET09801/11/11 01:53:02 METAR KMHT 110653Z 32006KT 10SM CLR M07/M12 A3017 RMK AO2 SLP236 T10721117 (STJ)
0162743945147102011011107537+42933-071438FM-15+0071KMHT V0203405N002652200059N0160935N5-00785-01225102425ADDAA101000095GF100991999999999999999999MA1102245101385REMMET09801/11/11 02:53:02 METAR KMHT 110753Z 34005KT 10SM CLR M08/M12 A3019 RMK AO2 SLP242 T10781122 (STJ)
0182743945147102011011108537+42933-071438FM-15+0071KMHT V0203305N002652200059N0160935N5-00835-01225102445ADDAA101000095GF100991999999999999999999MA1102245101385MD1140174+9999REMMET10401/11/11 03:53:02 METAR KMHT 110853Z 33005KT 10SM CLR M08/M12 A3019 RMK AO2 SLP244 T10831122 51017 (STJ)
0162743945147102011011109537+42933-071438FM-15+0071KMHT V0203405N002152200059N0160935N5-00835-01225102465ADDAA101000095GF100991999999999999999999MA1102275101415REMMET09801/11/11 04:53:02 METAR KMHT 110953Z 34004KT 10SM CLR M08/M12 A3020 RMK AO2 SLP246 T10831122 (STJ)
