0154744904947232011010100547+42717-071124FM-15+0045KLWM V0202105N002152200059N0160935N5+00565+00005101895ADDAA101000095GF100991999999999999999999MA1101865101325REMMET09012/31/10 19:54:03 METAR KLWM 010054Z 21004KT 10SM CLR 06/00 A3008 RMK AO2 SLP189 T00560000
0154744904947232011010101547+42717-071124FM-15+0045KLWM V0202105N002152200059N0160935N5+00505+00005101895ADDAA101000095GF100991999999999999999999MA1101865101325REMMET09012/31/10 20:54:03 METAR KLWM 010154Z 21004KT 10SM CLR 05/00 A3008 RMK AO2 SLP189 T00500000
0174744904947232011010102547+42717-071124FM-15+0045KLWM V0202005N001552200059N0160935N5+00505+00005101815ADDAA101000095GF100991999999999999999999MA1101795101255MD1840074+9999REMMET09612/31/10 21:54:03 METAR KLWM 010254Z 20003KT 10SM CLR 05/00 A3006 RMK AO2 SLP181 T00500000 58007
0155744904947232011010103547+42717-071124FM-15+0045KLWM V0202005N002652200059N0160935N5+00445-00065101785ADDAA101000095GF100991999999999999999999MA1101795101255REMMET09112/31/10 22:54:03 METAR KLWM 010354Z 20005KT 10SM CLR 04/M01 A3006 RMK AO2 SLP178 T00441006
0165744904947232011010104547+42717-071124FM-15+0045KLWM V0209999C000052200059N0160935N5+00335-00115101775ADDAA101000095GF100991999999999999999999MA1101765101225REMMET10112/31/10 23:54:03 METAR KLWM 010454Z 00000KT 10SM CLR 03/M01 A3005 RMK AO2 SLP177 T00331011 401111033
0886744904947232011010104596+42717-071124SOD  +0045KLWM V020999999999999999999999999999+99999+99999999999ADDAA124000095KA1240M+01115KA2240N-00325MG1101344101734OE11240067121011315OE22240040221014165OE33240014899999995REMSOD73024 HR PRECIPITATION (IN):0.00  24 HR MAX TEMP (F):52 24 HR MAX TEMP TIME (LST):1538 24 HR MIN TEMP (F):26 24 HR MIN TEMP TIME (LST):0311 AVERAGE STATION PRESSURE:29.925 MINIMUM SEA LEVEL PRESSURE:30.04 TIME OF OCCURRENCE:2339 PEAK WIND SPEED (MPH):15  PEAK WIND DIR (DEG):210 PEAK WIND TIME (LST):1131  FASTEST 2MIN SPEED (MPH):9  FASTEST 2MIN DIR (DEG):210 FASTEST 2MIN TIME (LST):1416 AVERAGE WIND SPEED (MPH):3.3  24 HR AVG TEMP (F):39 HEATING DEGREE DAYS:26  COOLING DEGREE DAYS:0   LATEST DAY MAX TEMP (0700-1900 LST):52  LATEST NIGHT MIN TEMP(1900-0800 LST):26 HOURLY INCREMENTAL PRECIPITATION VALUES (IN):.00 0.00 0.00 0.00 0.00 0.00 0.00 0.00 0.00 0.00 0.00 0.00 0.00 0.00 0.00 0.00 0.00 0.00 0.00 0.00 0.00 0.00 0.00 0.00EQDR01     N7GJS072R02     N7GKS075
1261744904947232011010104596+42717-071124SOM  +0045KLWM V020999999999999999999999999999+99999+99999999999ADDAB10050596AD10038691213999999996AE1065035015015AH1005003691300245AH2010004891300265AH3015005391300285AH4020006391300245AH5030007691300285AH6045009991300435AI1060011491300435AI2080013291300475AI3100014291300475AI4120015291300475AI5150016391300475AI6180017591301065KB1744N-04675KB2744M+03175KB3744A-00725KC1N9-01161099995KC2M9+01271399995KD1744H10575KD2744C00005KE1075005295005MH1100294100954MK1103181009235097872707235REMSOM797PCP MTOT:1.99 PCP GT 24HRS:1.52 DATE(S):12-13 DAYS W/PCP >=.01:6  DAYS W/PCP >=.10:3  DAYS W/ PCP >=.50:1 DAYS W/PCP >=1.00:1 MSDP AMTS W/DATE-TIME TAGS:MIN:5 0.14  13/0024 MIN:10 0.19  13/0026 MIN:15 0.21  13/0028 MIN:20 0.25  13/0024 MIN:30 0.30  13/0028 MIN:45 0.39  13/0043 MIN:60 0.45  13/0043 MIN:80 0.52  13/0047 MIN:100 0.56  13/0047 MIN:120 0.60  13/0047 MIN:150 0.64  13/0047 MIN:180 0.69  13/0106 AVG DLY MIN:23.6  AVG DLY MAX:37.7  AVG MLY TMP:30.7  MIN TMP:11 DATE(S):10 MAX TMP:55  DATE(S):13 DAYS MAX <=32:7 DAYS MAX >=90:0  DAYS MIN <=32:29 DAYS MIN  <=0:0  AVG STP:29.615 LWST SLP:28.90 DATE/TIME:270723 HGST SLP:30.47 DATE/TIME:100923 HDD MTH TOT:1057 DEP NORM:-2553 SEASON(JUL 1-JUN 30):2176 DEP NORM:+24320 CDD MTH TOT:0 DEP NORM:-2553 SEASON(JAN 1-DEC 31):1006 DEP NORM:-20242EQDR01  1.997ABP070R02  1.527ADP081
0213744904947232011010105547+42717-071124FM-15+0045KLWM V0209999C000052200059N0160935N5+00285-00115101695ADDAA101000095GF100991999999999999999999KA1999M+00721KA2999N+00281MA1101695101155MD1840124+9999REMMET10901/01/11 00:54:02 METAR KLWM 010554Z 00000KT 10SM CLR 03/M01 A3003 RMK AO2 SLP169 T00281011 10072 20028 58012
0155744904947232011010106547+42717-071124FM-15+0045KLWM V0202005N003152200059N0160935N5+00445-00115101735ADDAA101000095GF100991999999999999999999MA1101735101195REMMET09101/01/11 01:54:02 METAR KLWM 010654Z 20006KT 10SM CLR 04/M01 A3004 RMK AO2 SLP173 T00441011
0189744904947232011010107547+42717-071124FM-15+0045KLWM V0202105N00265028965MN0160935N5+00335-00115101765ADDAA101000095GA1085+028965999GD14991+0289659GF108991999999999999999999MA1101765101225REMMET09401/01/11 02:54:02 METAR KLWM 010754Z 21005KT 10SM OVC095 03/M01 A3005 RMK AO2 SLP176 T00331011
0209744904947232011010108547+42717-071124FM-15+0045KLWM V0201905N00155028965MN0160935N5+00395-00065101745ADDAA101000095GA1085+028965999GD14991+0289659GF108991999999999999999999MA1101735101195MD1040054+9999REMMET10001/01/11 03:54:02 METAR KLWM 010854Z 19003KT 10SM OVC095 04/M01 A3004 RMK AO2 SLP174 T00391006 50005
0188744904947232011010109547+42717-071124FM-15+0045KLWM V0209999C00005033535MN0160935N5+00395+00005101795ADDAA101000095GA1075+033535999GD13991+0335359GF107991999999999999999999MA1101795101255REMMET09301/01/11 04:54:02 METAR KLWM 010954Z 00000KT 10SM BKN110 04/00 A3006 RMK AO2 SLP179 T00390000
0189744904947232011010110547+42717-071124FM-15+0045KLWM V0209999C00005021345MN0160935N5+00285-00065101855ADDAA101000095GA1075+021345999GD13991+0213459GF107991999999999999999999MA1101865101325REMMET09401/01/11 05:54:02 METAR KLWM 011054Z 00000KT 10SM BKN070 03/M01 A3008 RMK AO2 SLP185 T00281006
0251744904947232011010111547+42717-071124FM-15+0045KLWM V0202005N00265016765MN0160935N5+00335+00005101835ADDAA101000095GA1075+016765999GD13991+0167659GF107991999999999999999999KA1999M+00441KA2999N+00111MA1101835101295MD1040094+9999REMMET11601/01/11 06:54:02 METAR KLWM 011154Z 20005KT 10SM BKN055 03/00 A3007 RMK AO2 SLP183 T00330000 10044 20011 50009 (TB)
0158744904947232011010112547+42717-071124FM-15+0045KLWM V0202005N002152200059N0144845N5+00395+00005101825ADDAA101000095GF100991999999999999999999MA1101835101295REMMET09401/01/11 07:54:02 METAR KLWM 011254Z 20004KT 9SM CLR 04/00 A3007 RMK AO2 SLP182 T00390000 (TB)
0159744904947232011010113547+42717-071124FM-15+0045KLWM V0202105N001552200059N0160935N5+00565+00115101915ADDAA101000095GF100991999999999999999999MA1101905101355REMMET09501/01/11 08:54:02 METAR KLWM 011354Z 21003KT 10SM CLR 06/01 A3009 RMK AO2 SLP191 T00560011 (TB)
0213744904947232011010114547+42717-071124FM-15+0045KLWM V0202105N00215018295MN0160935N5+00785+00225101965ADDAA101000095GA1075+018295999GD13991+0182959GF107991999999999999999999MA1101965101425MD1340134+9999REMMET10401/01/11 09:54:02 METAR KLWM 011454Z 21004KT 10SM BKN060 08/02 A3011 RMK AO2 SLP196 T00780022 53013 (TB)
0193744904947232011010115547+42717-071124FM-15+0045KLWM V0209999C00005019815MN0160935N5+01005+00395101875ADDAA101000095GA1075+019815999GD13991+0198159GF107991999999999999999999MA1101865101325REMMET09801/01/11 10:54:02 METAR KLWM 011554Z 00000KT 10SM BKN065 10/04 A3008 RMK AO2 SLP187 T01000039 (TB)
0159744904947232011010116547+42717-071124FM-15+0045KLWM V0209999C000052200059N0160935N5+01285+00505101785ADDAA101000095GF100991999999999999999999MA1101795101255REMMET09501/01/11 11:54:02 METAR KLWM 011654Z 00000KT 10SM CLR 13/05 A3006 RMK AO2 SLP178 T01280050 (TB)
0217744904947232011010117547+42717-071124FM-15+0045KLWM V0202405N002652200059N0160935N5+01335+00615101765ADDAA101000095GF100991999999999999999999KA1999M+01331KA2999N+00281MA1101765101225MD1640204+9999REMMET11301/01/11 12:54:02 METAR KLWM 011754Z 24005KT 10SM CLR 13/06 A3005 RMK AO2 SLP176 T01330061 10133 20028 56020 (CZ)
0159744904947232011010118547+42717-071124FM-15+0045KLWM V0209999C000052200059N0160935N5+01395+00675101725ADDAA101000095GF100991999999999999999999MA1101735101195REMMET09501/01/11 13:54:02 METAR KLWM 011854Z 00000KT 10SM CLR 14/07 A3004 RMK AO2 SLP172 T01390067 (CZ)
0159744904947232011010119547+42717-071124FM-15+0045KLWM V0209999C000052200059N0160935N5+01445+00675101725ADDAA101000095GF100991999999999999999999MA1101735101195REMMET09501/01/11 14:54:02 METAR KLWM 011954Z 00000KT 10SM CLR 14/07 A3004 RMK AO2 SLP172 T01440067 (CZ)
0179744904947232011010120547+42717-071124FM-15+0045KLWM V0201205N001552200059N0160935N5+01225+00615101725ADDAA101000095GF100991999999999999999999MA1101735101195MD1640044+9999REMMET10101/01/11 15:54:02 METAR KLWM 012054Z 12003KT 10SM CLR 12/06 A3004 RMK AO2 SLP172 T01220061 56004 (RR)
0159744904947232011010121547+42717-071124FM-15+0045KLWM V0201405N001552200059N0160935N5+01175+00565101705ADDAA101000095GF100991999999999999999999MA1101695101155REMMET09501/01/11 16:54:02 METAR KLWM 012154Z 14003KT 10SM CLR 12/06 A3003 RMK AO2 SLP170 T01170056 (RR)
0159744904947232011010122547+42717-071124FM-15+0045KLWM V0201405N001552200059N0160935N5+01115+00565101655ADDAA101000095GF100991999999999999999999MA1101665101125REMMET09501/01/11 17:54:02 METAR KLWM 012254Z 14003KT 10SM CLR 11/06 A3002 RMK AO2 SLP165 T01110056 (RR)
0197744904947232011010123474+42717-071117FM-16+0045KLWM V0203601N004610087019N0028161N1+99999+99999999999ADDAA101000021GD12991+0036019GD23991+0087019GD34991+0111019GF108991999999999999999999MW1101MW2711REMMET091SPECI KLWM 012347Z 36009KT 1 3/4SM -SN BR SCT012 BKN029 OVC037 M07/M09 A3034 RMK AO2 P0000;
0217744904947232011010123547+42717-071124FM-15+0045KLWM V0201705N001552200059N0160935N5+01065+00445101625ADDAA101000095GF100991999999999999999999KA1999M+01561KA2999N+01061MA1101635101085MD1840104+9999REMMET11301/01/11 18:54:02 METAR KLWM 012354Z 17003KT 10SM CLR 11/04 A3001 RMK AO2 SLP162 T01060044 10156 20106 58010 (RR)
0154744904947232011010200547+42717-071124FM-15+0045KLWM V0201805N002152200059N0160935N5+01065+00395101565ADDAA101000095GF100991999999999999999999MA1101565101025REMMET09001/01/11 19:54:01 METAR KLWM 020054Z 18004KT 10SM CLR 11/04 A2999 RMK AO2 SLP156 T01060039
0154744904947232011010201547+42717-071124FM-15+0045KLWM V0202105N003652200059N0160935N5+01005+00395101565ADDAA101000095GF100991999999999999999999MA1101565101025REMMET09001/01/11 20:54:01 METAR KLWM 020154Z 21007KT 10SM CLR 10/04 A2999 RMK AO2 SLP156 T01000039
0174744904947232011010202547+42717-071124FM-15+0045KLWM V0202105N003152200059N0160935N5+01005+00395101555ADDAA101000095GF100991999999999999999999MA1101565101025MD1640064+9999REMMET09601/01/11 21:54:01 METAR KLWM 020254Z 21006KT 10SM CLR 10/04 A2999 RMK AO2 SLP155 T01000039 56006
0188744904947232011010203547+42717-071124FM-15+0045KLWM V0201905N002652200059N0160935N5+00945+00395101525ADDAA101000095GA1025+005795999GD11991+0057959GF102991999999999999999999MA1101525100985REMMET09301/01/11 22:54:01 METAR KLWM 020354Z 19005KT 10SM FEW019 09/04 A2998 RMK AO2 SLP152 T00940039
0160744904947232011010204077+42717-071124FM-16+0045KLWM V0201905N00315005795MN0160935N5+00905+00405999999ADDGA1075+005795999GD13991+0057959GF107991999999999999999999MA1101495100955REMMET07601/01/11 23:07:01 SPECI KLWM 020407Z 19006KT 10SM BKN019 09/04 A2997 RMK AO2
0198744904947232011010204547+42717-071124FM-15+0045KLWM V0201805N00155005185MN0160935N5+00895+00445101445ADDAA101000095GA1075+005185999GD13991+0051859GF107991999999999999999999MA1101425100885REMMET10301/01/11 23:54:01 METAR KLWM 020454Z 18003KT 10SM BKN017 09/04 A2995 RMK AO2 SLP144 T00890044 401560011
0886744904947232011010204596+42717-071124SOD  +0045KLWM V020999999999999999999999999999+99999+99999999999ADDAA124000095KA1240M+01565KA2240N+00115MG1101174101424OE11240071521020375OE22240044720020375OE33240015699999995REMSOD73024 HR PRECIPITATION (IN):0.00  24 HR MAX TEMP (F):60 24 HR MAX TEMP TIME (LST):1504 24 HR MIN TEMP (F):34 24 HR MIN TEMP TIME (LST):0106 AVERAGE STATION PRESSURE:29.875 MINIMUM SEA LEVEL PRESSURE:29.95 TIME OF OCCURRENCE:2354 PEAK WIND SPEED (MPH):16  PEAK WIND DIR (DEG):210 PEAK WIND TIME (LST):2037  FASTEST 2MIN SPEED (MPH):10 FASTEST 2MIN DIR (DEG):200 FASTEST 2MIN TIME (LST):2037 AVERAGE WIND SPEED (MPH):3.5  24 HR AVG TEMP (F):47 HEATING DEGREE DAYS:18  COOLING DEGREE DAYS:0   LATEST DAY MAX TEMP (0700-1900 LST):60  LATEST NIGHT MIN TEMP(1900-0800 LST):34 HOURLY INCREMENTAL PRECIPITATION VALUES (IN):.00 0.00 0.00 0.00 0.00 0.00 0.00 0.00 0.00 0.00 0.00 0.00 0.00 0.00 0.00 0.00 0.00 0.00 0.00 0.00 0.00 0.00 0.00 0.00EQDR01     N7GJS072R02     N7GKS075
0160744904947232011010205077+42717-071124FM-16+0045KLWM V0201905N001552200059N0160935N5+00805+00405999999ADDGA1045+005185999GD12991+0051859GF104991999999999999999999MA1101465100925REMMET07601/02/11 00:07:02 SPECI KLWM 020507Z 19003KT 10SM SCT017 08/04 A2996 RMK AO2
0245744904947232011010205547+42717-071124FM-15+0045KLWM V0201705N00155033535MN0144845N5+00835+00445101405ADDAA101000095GA1085+033535999GD14991+0335359GF108991999999999999999999KA1999M+01111KA2999N+00781MA1101395100855MD1840164+9999REMMET11001/02/11 00:54:02 METAR KLWM 020554Z 17003KT 9SM OVC110 08/04 A2994 RMK AO2 SLP140 T00830044 10111 20078 58016
0187744904947232011010206547+42717-071124FM-15+0045KLWM V0202205N001552200059N0128755N5+00835+00565101385ADDAA101000095GA1025+036585999GD11991+0365859GF102991999999999999999999MA1101395100855REMMET09201/02/11 01:54:02 METAR KLWM 020654Z 22003KT 8SM FEW120 08/06 A2994 RMK AO2 SLP138 T00830056
0207744904947232011010207547+42717-071124FM-15+0045KLWM V0209999C000052200059N0096565N5+00725+00505101375ADDAA101000095AU100001015AW1105GA1025+036585999GD11991+0365859GF102991999999999999999999MA1101355100815REMMET09501/02/11 02:54:02 METAR KLWM 020754Z 00000KT 6SM BR FEW120 07/05 A2993 RMK AO2 SLP137 T00720050
0296744904947232011010208547+42717-071124FM-15+0045KLWM V0209999C00005033535MN0064375N5+00725+00565101315ADDAA101000025AA203000021AU110020015AU200001015AW1105AW2615GA1085+033535999GD14991+0335359GF108991999999999999999999MA1101325100785MD1840094+9999REMMET12301/02/11 03:54:02 METAR KLWM 020854Z 00000KT 4SM -RA BR OVC110 07/06 A2992 RMK AO2 RAB54 SLP131 P0000 60000 T00720056 58009EQDQ01  00008PRCP03
0267744904947232011010209547+42717-071124FM-15+0045KLWM V0209999C00005030485MN0040235N5+00675+00565101295ADDAA101000025AU100001015AW1105GA1025+016765999GA2085+030485999GD11991+0167659GD24991+0304859GF108991999999999999999999MA1101295100755REMMET12401/02/11 04:54:02 METAR KLWM 020954Z 00000KT 2 1/2SM BR FEW055 OVC100 07/06 A2991 RMK AO2 RAE03B19E30 SLP129 P0000 T00670056
0301744904947232011010210297+42717-071124FM-16+0045KLWM V0202005N00215027435MN0048285N5+00705+00605999999ADDAA101000021AU110020015AU200001015AW1105AW2615GA1025+004275999GA2045+018295999GA3085+027435999GD11991+0042759GD22991+0182959GD34991+0274359GF108991999999999999999999MA1101325100785REMMET11001/02/11 05:29:02 SPECI KLWM 021029Z 20004KT 3SM -RA BR FEW014 SCT060 OVC090 07/06 A2992 RMK AO2 RAB0957 P0000
0284744904947232011010210547+42717-071124FM-15+0045KLWM V0209999C00005025915MN0040235N5+00785+00615101285ADDAA101000025AU110020015AU200001015AW1105AW2615GA1025+004275999GA2085+025915999GD11991+0042759GD24991+0259159GF108991999999999999999999MA1101295100755REMMET12401/02/11 05:54:02 METAR KLWM 021054Z 00000KT 2 1/2SM -RA BR FEW014 OVC085 08/06 A2991 RMK AO2 RAB0957 SLP128 P0000 T00780061
0282744904947232011010211057+42717-071124FM-16+0045KLWM V0209999C00005024385MN0012075N5+00705+00605999999ADDAA101000021AU100001015AW1105GA1025+014025999GA2075+024385999GA3085+027435999GD11991+0140259GD23991+0243859GD34991+0274359GF108991999999999999999999MA1101295100755REMMET10801/02/11 06:05:02 SPECI KLWM 021105Z 00000KT 3/4SM BR FEW046 BKN080 OVC090 07/06 A2991 RMK AO2 RAE1058 P0000
0244744904947232011010211137+42717-071124FM-16+0045KLWM V0209999C00005024385MN0008055N5+00705+00605999999ADDAA101000021AU100002015AW1305GA1025+004275999GA2085+024385999GD11991+0042759GD24991+0243859GF108991999999999999999999MA1101255100715REMMET10101/02/11 06:13:02 SPECI KLWM 021113Z 00000KT 1/2SM FG FEW014 OVC080 07/06 A2990 RMK AO2 RAE1058 P0000
0244744904947232011010211297+42717-071124FM-16+0045KLWM V0209999C00005004275MN0008055N5+00605+00505999999ADDAA101000021AU100002015AW1305GA1075+004275999GA2085+024385999GD13991+0042759GD24991+0243859GF108991999999999999999999MA1101295100755REMMET10101/02/11 06:29:02 SPECI KLWM 021129Z 00000KT 1/2SM FG BKN014 OVC080 06/05 A2991 RMK AO2 RAE1058 P0000
0244744904947232011010211407+42717-071124FM-16+0045KLWM V0200105N00215003665MN0008055N5+00605+00505999999ADDAA101000021AU100002015AW1305GA1025+000915999GA2085+003665999GD11991+0009159GD24991+0036659GF108991999999999999999999MA1101295100755REMMET10101/02/11 06:40:02 SPECI KLWM 021140Z 01004KT 1/2SM FG FEW003 OVC012 06/05 A2991 RMK AO2 RAE1058 P0000
0244744904947232011010211527+42717-071124FM-16+0045KLWM V0200505N00155000915MN0012075N5+00605+00405999999ADDAA101000021AU100001015AW1105GA1075+000915999GA2085+003665999GD13991+0009159GD24991+0036659GF108991999999999999999999MA1101295100755REMMET10101/02/11 06:52:02 SPECI KLWM 021152Z 05003KT 3/4SM BR BKN003 OVC012 06/04 A2991 RMK AO2 RAE1058 P0000
0353744904947232011010211547+42717-071124FM-15+0045KLWM V0209999C00005000915MN0016095N5+00565+00395101305ADDAA101000095AA206000021AU100001015AW1105GA1075+000915999GA2085+003665999GD13991+0009159GD24991+0036659GF108991999999999999999999KA1999M+00831KA2999N+00561MA1101295100755MD1540004+9999REMMET14001/02/11 06:54:02 METAR KLWM 021154Z 00000KT 1SM BR BKN003 OVC012 06/04 A2991 RMK AO2 RAE1058 SLP130 P0000 60000 T00560039 10083 20056 55000EQDQ01  00008PRCP06
0190744904947232011010212167+42717-071124FM-16+0045KLWM V0209999C00005000915MN0032195N5+00605+00405999999ADDAU100001015AW1105GA1085+000915999GD14991+0009159GF108991999999999999999999MA1101295100755MW1101REMMET08301/02/11 07:16:02 SPECI KLWM 021216Z 00000KT 2SM BR OVC003 06/04 A2991 RMK AO2 (CZ)
0192744904947232011010212287+42717-071124FM-16+0045KLWM V0209999C00005000915MN0012075N5+00605+00405999999ADDAU100001015AW1105GA1085+000915999GD14991+0009159GF108991999999999999999999MA1101325100785MW1101REMMET08501/02/11 07:28:02 SPECI KLWM 021228Z 00000KT 3/4SM BR OVC003 06/04 A2992 RMK AO2 (CZ)
0192744904947232011010212357+42717-071124FM-16+0045KLWM V0209999C00005000915MN0004025N5+00605+00405999999ADDAU100002015AW1305GA1085+000915999GD14991+0009159GF108991999999999999999999MA1101295100755MW1441REMMET08501/02/11 07:35:02 SPECI KLWM 021235Z 00000KT 1/4SM FG OVC003 06/04 A2991 RMK AO2 (CZ)
0220744904947232011010212547+42717-071124FM-15+0045KLWM V0209999C00005000915MN0008055N5+00615+00445101325ADDAA101000095AU100002015AW1305GA1085+000915999GD14991+0009159GF108991999999999999999999MA1101325100785MW1441REMMET10201/02/11 07:54:02 METAR KLWM 021254Z 00000KT 1/2SM FG OVC003 06/04 A2992 RMK AO2 SLP132 T00610044 (CZ)
0192744904947232011010213147+42717-071124FM-16+0045KLWM V0209999C00005000915MN0012075N5+00605+00505999999ADDAU100001015AW1105GA1085+000915999GD14991+0009159GF108991999999999999999999MA1101355100815MW1101REMMET08501/02/11 08:14:02 SPECI KLWM 021314Z 00000KT 3/4SM BR OVC003 06/05 A2993 RMK AO2 (CZ)
0192744904947232011010213177+42717-071124FM-16+0045KLWM V0209999C00005000305MN0008055N5+00605+00505999999ADDAU100002015AW1305GA1085+000305999GD14991+0003059GF108991999999999999999999MA1101325100785MW1441REMMET08501/02/11 08:17:02 SPECI KLWM 021317Z 00000KT 1/2SM FG OVC001 06/05 A2992 RMK AO2 (CZ)
0192744904947232011010213307+42717-071124FM-16+0045KLWM V0209999C00005000305MN0012075N5+00705+00505999999ADDAU100001015AW1105GA1085+000305999GD14991+0003059GF108991999999999999999999MA1101325100785MW1101REMMET08501/02/11 08:30:02 SPECI KLWM 021330Z 00000KT 3/4SM BR OVC001 07/05 A2992 RMK AO2 (CZ)
0192744904947232011010213517+42717-071124FM-16+0045KLWM V0209999C00005000305MN0004025N5+00605+00505999999ADDAU100002015AW1305GA1085+000305999GD14991+0003059GF108991999999999999999999MA1101395100855MW1441REMMET08501/02/11 08:51:02 SPECI KLWM 021351Z 00000KT 1/4SM FG OVC001 06/05 A2994 RMK AO2 (CZ)
0220744904947232011010213547+42717-071124FM-15+0045KLWM V0209999C00005000305MN0004025N5+00615+00505101395ADDAA101000095AU100002015AW1305GA1085+000305999GD14991+0003059GF108991999999999999999999MA1101395100855MW1441REMMET10201/02/11 08:54:02 METAR KLWM 021354Z 00000KT 1/4SM FG OVC001 06/05 A2994 RMK AO2 SLP139 T00610050 (CZ)
0190744904947232011010214147+42717-071124FM-16+0045KLWM V0209999C00005000305MN0016095N5+00605+00405999999ADDAU100001015AW1105GA1085+000305999GD14991+0003059GF108991999999999999999999MA1101425100885MW1101REMMET08301/02/11 09:14:02 SPECI KLWM 021414Z 00000KT 1SM BR OVC001 06/04 A2995 RMK AO2 (CZ)
0230744904947232011010214227+42717-071124FM-16+0045KLWM V0209999C00005000305MN0008055N5+00605+00505999999ADDAU100002015AW1305GA1075+000305999GA2085+001525999GD13991+0003059GD24991+0015259GF108991999999999999999999MA1101425100885MW1441REMMET09201/02/11 09:22:02 SPECI KLWM 021422Z 00000KT 1/2SM FG BKN001 OVC005 06/05 A2995 RMK AO2 (CZ)
0268744904947232011010214487+42717-071124FM-16+0045KLWM V0209999C00005007925MN0004025N5+00605+00505999999ADDAU100002015AW1305GA1045+000305999GA2045+001525999GA3085+007925999GD12991+0003059GD22991+0015259GD34991+0079259GF108991999999999999999999MA1101425100885MW1441REMMET09901/02/11 09:48:02 SPECI KLWM 021448Z 00000KT 1/4SM FG SCT001 SCT005 OVC026 06/05 A2995 RMK AO2 (CZ)
0317744904947232011010214547+42717-071124FM-15+0045KLWM V0209999C00005007925MN0000005N5+00615+00565101425ADDAA101000095AU100002015AW1305GA1025+000305999GA2045+001525999GA3085+007925999GD11991+0003059GD22991+0015259GD34991+0079259GF108991999999999999999999MA1101425100885MD1140094+9999MW1441REMMET12301/02/11 09:54:02 METAR KLWM 021454Z 00000KT M1/4SM FG FEW001 SCT005 OVC026 06/06 A2995 RMK AO2 SLP142 T00610056 51009 (CZ)
0325744904947232011010215277+42717-071124FM-16+0045KLWM V0209999C00005010365MN0008055N5+00705+00605999999ADDAA101000021AU110020015AU200002015AW1305AW2615GA1045+007925999GA2075+010365999GA3085+013115999GD12991+0079259GD23991+0103659GD34991+0131159GF108991999999999999999999MA1101325100785MW1441MW2611REMMET12201/02/11 10:27:02 SPECI KLWM 021527Z 00000KT 1/2SM -RA FG SCT026 BKN034 OVC043 07/06 A2992 RMK AO2 RAB09 PRESFR P0000 (CZ)
0256744904947232011010215347+42717-071124FM-16+0045KLWM V0209999C00005011585MN0012075N5+00705+00605999999ADDAA101000021AU100001015AW1105GA1025+007925999GA2085+011585999GD11991+0079259GD24991+0115859GF108991999999999999999999MA1101325100785MW1101REMMET10701/02/11 10:34:02 SPECI KLWM 021534Z 00000KT 3/4SM BR FEW026 OVC038 07/06 A2992 RMK AO2 RAB09E32 P0000 (CZ)
0216744904947232011010215427+42717-071124FM-16+0045KLWM V0209999C00005011585MN0016095N5+00705+00605999999ADDAA101000021AU100001015AW1105GA1085+011585999GD14991+0115859GF108991999999999999999999MA1101325100785MW1101REMMET09801/02/11 10:42:02 SPECI KLWM 021542Z 00000KT 1SM BR OVC038 07/06 A2992 RMK AO2 RAB09E32 P0000 (CZ)
0305744904947232011010215547+42717-071124FM-15+0045KLWM V0209999C00005013415MN0020125N5+00725+00615101295ADDAA101000025AU110020015AU200001015AW1105AW2615GA1025+007925999GA2085+013415999GD11991+0079259GD24991+0134159GF108991999999999999999999MA1101295100755MW1101MW2611REMMET13301/02/11 10:54:02 METAR KLWM 021554Z 00000KT 1 1/4SM -RA BR FEW026 OVC044 07/06 A2991 RMK AO2 RAB09E32B49 SLP129 P0000 T00720061 (CZ)
0255744904947232011010216197+42717-071124FM-16+0045KLWM V0202405N00215015245MN0020125N5+00805+00605999999ADDAA101000021AU100001015AW1105GA1025+000615999GA2085+015245999GD11991+0006159GD24991+0152459GF108991999999999999999999MA1101295100755MW1101REMMET10601/02/11 11:19:02 SPECI KLWM 021619Z 24004KT 1 1/4SM BR FEW002 OVC050 08/06 A2991 RMK AO2 RAE10 P0000 (CZ)
0302744904947232011010216547+42717-071124FM-15+0045KLWM V0209999C00005021345MN0024145N5+00785+00675101225ADDAA101000025AU110020015AU200001015AW1105AW2615GA1075+021345999GA2075+027435999GD13991+0213459GD23991+0274359GF107991999999999999999999MA1101225100685MW1101MW2611REMMET13001/02/11 11:54:02 METAR KLWM 021654Z 00000KT 1 1/2SM -RA BR BKN070 BKN090 08/07 A2989 RMK AO2 RAE10B43 SLP122 P0000 T00780067 (CZ)
0257744904947232011010217187+42717-071124FM-16+0045KLWM V0202405N00155021345MN0040235N5+00805+00705999999ADDAA101000021AU100001015AW1105GA1075+021345999GA2085+027435999GD13991+0213459GD24991+0274359GF108991999999999999999999MA1101155100615MW1101REMMET10801/02/11 12:18:02 SPECI KLWM 021718Z 24003KT 2 1/2SM BR BKN070 OVC090 08/07 A2987 RMK AO2 RAE1658 P0000 (CZ)
0215744904947232011010217317+42717-071124FM-16+0045KLWM V0202505N00215021345MN0048285N5+00805+00705999999ADDAA101000021AU100001015AW1105GA1085+021345999GD14991+0213459GF108991999999999999999999MA1101195100655MW1101REMMET09701/02/11 12:31:02 SPECI KLWM 021731Z 25004KT 3SM BR OVC070 08/07 A2988 RMK AO2 RAE1658 P0000 (CZ)
0364744904947232011010217547+42717-071124FM-15+0045KLWM V0202205N00215021345MN0048285N5+00835+00675101185ADDAA101000095AA206000021AU100001015AW1105GA1075+021345999GA2085+033535999GD13991+0213459GD24991+0335359GF108991999999999999999999KA1999M+00831KA2999N+00501MA1101195100655MD1640244+9999MW1101REMMET14501/02/11 12:54:02 METAR KLWM 021754Z 22004KT 3SM BR BKN070 OVC110 08/07 A2988 RMK AO2 RAE1658 SLP118 P0000 60000 T00830067 10083 20050 56024 (CZ)EQDQ01  00008PRCP06
0218744904947232011010218547+42717-071124FM-15+0045KLWM V0209999C00005024385MN0064375N5+00835+00675101145ADDAA101000095AU100001015AW1105GA1085+024385999GD14991+0243859GF108991999999999999999999MA1101155100615MW1101REMMET10001/02/11 13:54:02 METAR KLWM 021854Z 00000KT 4SM BR OVC080 08/07 A2987 RMK AO2 SLP114 T00830067 (CZ)
0333744904947232011010219547+42717-071124FM-15+0045KLWM V0209999C00005024385MN0064375N5+00835+00675101075ADDAA101000025AU110020015AU200001015AW1105AW2615GA1025+016765999GA2075+024385999GA3085+027435999GD11991+0167659GD23991+0243859GD34991+0274359GF108991999999999999999999MA1101085100545MW1101MW2611REMMET13001/02/11 14:54:02 METAR KLWM 021954Z 00000KT 4SM -RA BR FEW055 BKN080 OVC090 08/07 A2985 RMK AO2 RAB25 SLP107 P0000 T00830067 (RR)
0213744904947232011010220427+42717-071124FM-16+0045KLWM V0209999C00005025915MN0032195N5+00805+00605999999ADDAA101000021AU100001015AW1105GA1085+025915999GD14991+0259159GF108991999999999999999999MA1101085100545MW1101REMMET09501/02/11 15:42:02 SPECI KLWM 022042Z 00000KT 2SM BR OVC085 08/06 A2985 RMK AO2 RAE27 P0000 (RR)
0175744904947232011010220526+42717-071124FM-16+0045KLWM V0209999C00005025915MN0080475N5+00705+00605999999ADDAU100001015AW1105GA1085+025915999GD14991+0259159MA1101055100515REMMET10001/02/11 15:52:02 SPECI KLWM 022052Z 00000KT 5SM BR OVC085 07/06 A2984 RMK AO2 RAE27 P0000 FIBI (RR)
0286744904947232011010220547+42717-071124FM-15+0045KLWM V0209999C00005025915MN0080475N5+00725+00615101055ADDAA101000025AA203000021AU100001015AW1105GA1085+025915999GD14991+0259159GF108991999999999999999999MA1101055100515MD1640124+9999MW1101REMMET12401/02/11 15:54:02 METAR KLWM 022054Z 00000KT 5SM BR OVC085 07/06 A2984 RMK AO2 RAE27 SLP105 P0000 60000 T00720061 56012 (RR)EQDQ01  00008PRCP03
0218744904947232011010221547+42717-071124FM-15+0045KLWM V0209999C00005027435MN0080475N5+00675+00565101095ADDAA101000095AU100001015AW1105GA1085+027435999GD14991+0274359GF108991999999999999999999MA1101085100545MW1101REMMET10001/02/11 16:54:02 METAR KLWM 022154Z 00000KT 5SM BR OVC090 07/06 A2985 RMK AO2 SLP109 T00670056 (RR)
0228744904947232011010222247+42717-071124FM-16+0045KLWM V0209999C00005033535MN0032195N5+00705+00605999999ADDAU100001015AW1105GA1025+024385999GA2075+033535999GD11991+0243859GD23991+0335359GF107991999999999999999999MA1100985100445MW1101REMMET09001/02/11 17:24:02 SPECI KLWM 022224Z 00000KT 2SM BR FEW080 BKN110 07/06 A2982 RMK AO2 (RR)
0192744904947232011010222417+42717-071124FM-16+0045KLWM V0209999C000052200059N0012075N5+00505+00405999999ADDAU100001015AW1105GA1025+028965999GD11991+0289659GF102991999999999999999999MA1101025100485MW1101REMMET08501/02/11 17:41:02 SPECI KLWM 022241Z 00000KT 3/4SM BR FEW095 05/04 A2983 RMK AO2 (RR)
0230744904947232011010222447+42717-071124FM-16+0045KLWM V0209999C000052200059N0008055N5+00505+00405999999ADDAU100002015AW1305GA1025+000305999GA2045+036585999GD11991+0003059GD22991+0365859GF104991999999999999999999MA1101025100485MW1441REMMET09201/02/11 17:44:02 SPECI KLWM 022244Z 00000KT 1/2SM FG FEW001 SCT120 05/04 A2983 RMK AO2 (RR)
0258744904947232011010222547+42717-071124FM-15+0045KLWM V0209999C000052200059N0008055N5+00615+00505100945ADDAA101000095AU100002015AW1305GA1025+000305999GA2045+027435999GD11991+0003059GD22991+0274359GF104991999999999999999999MA1100955100415MW1441REMMET10901/02/11 17:54:02 METAR KLWM 022254Z 00000KT 1/2SM FG FEW001 SCT090 06/05 A2981 RMK AO2 SLP094 T00610050 (RR)
0228744904947232011010222577+42717-071124FM-16+0045KLWM V0209999C000052200059N0048285N5+00605+00505999999ADDAU100001015AW1105GA1025+000305999GA2045+027435999GD11991+0003059GD22991+0274359GF104991999999999999999999MA1100985100445MW1101REMMET09001/02/11 17:57:02 SPECI KLWM 022257Z 00000KT 3SM BR FEW001 SCT090 06/05 A2982 RMK AO2 (RR)
0230744904947232011010223107+42717-071124FM-16+0045KLWM V0209999C00005027435MN0008055N5+00605+00405999999ADDAU100002015AW1305GA1025+000305999GA2075+027435999GD11991+0003059GD23991+0274359GF107991999999999999999999MA1101025100485MW1441REMMET09201/02/11 18:10:02 SPECI KLWM 022310Z 00000KT 1/2SM FG FEW001 BKN090 06/04 A2983 RMK AO2 (RR)
0190744904947232011010223177+42717-071124FM-16+0045KLWM V0202105N00155027435MN0016095N5+00605+00505999999ADDAU100001015AW1105GA1075+027435999GD13991+0274359GF107991999999999999999999MA1100985100445MW1101REMMET08301/02/11 18:17:02 SPECI KLWM 022317Z 21003KT 1SM BR BKN090 06/05 A2982 RMK AO2 (RR)
0190744904947232011010223457+42717-071124FM-16+0045KLWM V0202005N00155030485MN0048285N5+00705+00605999999ADDAU100001015AW1105GA1085+030485999GD14991+0304859GF108991999999999999999999MA1100955100415MW1101REMMET08301/02/11 18:45:02 SPECI KLWM 022345Z 20003KT 3SM BR OVC100 07/06 A2981 RMK AO2 (RR)
0167744904947232011010223526+42717-071124FM-16+0045KLWM V0202005N00155030485MN0040235N5+00605+00505999999ADDAU100001015AW1105GA1085+030485999GD14991+0304859MA1100955100415REMMET09201/02/11 18:52:02 SPECI KLWM 022352Z 20003KT 2 1/2SM BR OVC100 06/05 A2981 RMK AO2 FIBI (RR)
0297744904947232011010223547+42717-071124FM-15+0045KLWM V0202005N00215030485MN0040235N5+00615+00505100955ADDAA101000095AA206000021AU100001015AW1105GA1085+030485999GD14991+0304859GF108991999999999999999999KA1999M+00891KA2999N+00501MA1100955100415MD1840104+9999MW1101REMMET12801/02/11 18:54:02 METAR KLWM 022354Z 20004KT 2 1/2SM BR OVC100 06/05 A2981 RMK AO2 SLP095 60000 T00610050 10089 20050 58010 (RR)
0185744904947232011010300017+42717-071124FM-16+0045KLWM V0209999C00005030485MN0080475N5+00705+00505999999ADDAU100001015AW1105GA1085+030485999GD14991+0304859GF108991999999999999999999MA1100915100385MW1101REMMET07801/02/11 19:01:01 SPECI KLWM 030001Z 00000KT 5SM BR OVC100 07/05 A2980 RMK AO2
0226744904947232011010300547+42717-071124FM-15+0045KLWM V0202505N00365021345MN0160935N5+00675+00065101035ADDAA101000095GA1025+018295999GA2085+021345999GD11991+0182959GD24991+0213459GF108991999999999999999999MA1101025100485REMMET10001/02/11 19:54:01 METAR KLWM 030054Z 25007KT 10SM FEW060 OVC070 07/01 A2983 RMK AO2 SLP103 T00670006
0188744904947232011010301547+42717-071124FM-15+0045KLWM V0202705V00415021345MN0160935N5+00565+00005101005ADDAA101000095GA1085+021345999GD14991+0213459GF108991999999999999999999MA1101025100485REMMET09301/02/11 20:54:01 METAR KLWM 030154Z 27008KT 10SM OVC070 06/00 A2983 RMK AO2 SLP100 T00560000
0209744904947232011010302547+42717-071124FM-15+0045KLWM V0202705N00465014635MN0160935N5+00505-00175101085ADDAA101000095GA1085+014635999GD14991+0146359GF108991999999999999999999MA1101085100545MD1240134+9999REMMET10001/02/11 21:54:01 METAR KLWM 030254Z 27009KT 10SM OVC048 05/M02 A2985 RMK AO2 SLP108 T00501017 52013
0265744904947232011010303547+42717-071124FM-15+0045KLWM V0202905N00515036585MN0160935N5+00395-00335101025ADDAA101000095GA1045+019815999GA2045+025915999GA3085+036585999GD12991+0198159GD22991+0259159GD34991+0365859GF108991999999999999999999MA1101025100485REMMET10801/02/11 22:54:01 METAR KLWM 030354Z 29010KT 10SM SCT065 SCT085 OVC120 04/M03 A2983 RMK AO2 SLP102 T00391033
0228744904947232011010304547+42717-071124FM-15+0045KLWM V0203005N007752200059N0160935N5+00285-00505100905ADDAA101000095GA1045+018295999GD12991+0182959GF104991999999999999999999MA1100915100385OC101345REMMET12501/02/11 23:54:01 METAR KLWM 030454Z 30015G26KT 10SM SCT060 03/M05 A2980 RMK AO2 PK WND 29026/0449 SLP090 T00281050 400890028
0982744904947232011010304596+42717-071124SOD  +0045KLWM V020999999999999999999999999999+99999+99999999999ADDAA124000025AX1086246AX2016246AX3026246KA1240M+00895KA2240N+00285MG1100644100884OE11240134129023495OE22240098330023505OE33240013499999995REMSOD75124 HR PRECIPITATION (IN):T     WEATHER(CODE):8,1,2  24 HR MAX TEMP (F):48 24 HR MAX TEMP TIME (LST):1437 24 HR MIN TEMP (F):37 24 HR MIN TEMP TIME (LST):2359 AVERAGE STATION PRESSURE:29.720 MINIMUM SEA LEVEL PRESSURE:29.79 TIME OF OCCURRENCE:2352 PEAK WIND SPEED (MPH):30  PEAK WIND DIR (DEG):290 PEAK WIND TIME (LST):2349  FASTEST 2MIN SPEED (MPH):22 FASTEST 2MIN DIR (DEG):300 FASTEST 2MIN TIME (LST):2350 AVERAGE WIND SPEED (MPH):3.0  24 HR AVG TEMP (F):43 HEATING DEGREE DAYS:22  COOLING DEGREE DAYS:0   LATEST DAY MAX TEMP (0700-1900 LST):48  LATEST NIGHT MIN TEMP(1900-0800 LST):41 HOURLY INCREMENTAL PRECIPITATION VALUES (IN):.00 0.00 0.00 T    T    T    0.00 0.00 0.00 0.00 T    T    0.00 0.00 T    T    0.00 0.00 0.00 0.00 0.00 0.00 0.00 0.00EQDR01 8,1,27AXW090R02 8,1,27AXW090R03 8,1,27AXW090R04     N7GJS072R05     N7GKS075
0258744904947232011010305547+42717-071124FM-15+0045KLWM V0202905N006252200059N0160935N5+00175-00675100965ADDAA101000095GA1025+011285999GD11991+0112859GF102991999999999999999999KA1999M+00671KA2999N+00171MA1100955100415MD1540124+9999OC100935REMMET11501/03/11 00:54:02 METAR KLWM 030554Z 29012G18KT 10SM FEW037 02/M07 A2981 RMK AO2 SLP096 T00171067 10067 20017 55012
0218744904947232011010306547+42717-071124FM-15+0045KLWM V0203105N00775011895MN0160935N5+00115-00785101035ADDAA101000095GA1075+011895999GD13991+0118959GF107991999999999999999999MA1101025100485OC101245REMMET11501/03/11 01:54:02 METAR KLWM 030654Z 31015G24KT 10SM BKN039 01/M08 A2983 RMK AO2 PK WND 30027/0640 SLP103 T00111078
0218744904947232011010307547+42717-071124FM-15+0045KLWM V0203105N005752200059N0160935N5+00065-00785101065ADDAA101000095GA1025+011895999GD11991+0118959GF102991999999999999999999MA1101055100515OC101295REMMET11501/03/11 02:54:02 METAR KLWM 030754Z 31011G25KT 10SM FEW039 01/M08 A2984 RMK AO2 PK WND 32026/0723 SLP106 T00061078
0238744904947232011010308547+42717-071124FM-15+0045KLWM V0203205N008252200059N0160935N5+00005-00945101165ADDAA101000095GA1025+011285999GD11991+0112859GF102991999999999999999999MA1101155100615MD1340194+9999OC101395REMMET12101/03/11 03:54:02 METAR KLWM 030854Z 32016G27KT 10SM FEW037 00/M09 A2987 RMK AO2 PK WND 32029/0842 SLP116 T00001094 53019
0185744904947232011010309547+42717-071124FM-15+0045KLWM V0203105N007252200059N0160935N5-00065-01065101285ADDAA101000095GF100991999999999999999999MA1101255100715OC101395REMMET11301/03/11 04:54:02 METAR KLWM 030954Z 31014G27KT 10SM CLR M01/M11 A2990 RMK AO2 PK WND 30030/0919 SLP128 T10061106
0185744904947232011010310547+42717-071124FM-15+0045KLWM V0203105N004652200059N0160935N5-00115-01005101435ADDAA101000095GF100991999999999999999999MA1101425100885OC100775REMMET11301/03/11 05:54:02 METAR KLWM 031054Z 31009G15KT 10SM CLR M01/M10 A2995 RMK AO2 PK WND 32028/1014 SLP143 T10111100
0248744904947232011010311547+42717-071124FM-15+0045KLWM V0203305N006752200059N0160935N5-00175-01225101525ADDAA101000095GF100991999999999999999999KA1999M+00171KA2999N-00171MA1101525100985MD1140354+9999OC101295REMMET13601/03/11 06:54:02 METAR KLWM 031154Z 33013G25KT 10SM CLR M02/M12 A2998 RMK AO2 PK WND 32028/1122 SLP152 T10171122 10017 21017 51035 (CM)
0161744904947232011010312547+42717-071124FM-15+0045KLWM V0203105N005152200059N0160935N5-00175-01225101595ADDAA101000095GF100991999999999999999999MA1101595101055REMMET09701/03/11 07:54:02 METAR KLWM 031254Z 31010KT 10SM CLR M02/M12 A3000 RMK AO2 SLP159 T10171122 (CM)
0172744904947232011010313547+42717-071124FM-15+0045KLWM V0203005N005152200059N0160935N5-00115-01225101685ADDAA101000095GF100991999999999999999999MA1101665101125OC100885REMMET10001/03/11 08:54:02 METAR KLWM 031354Z 30010G17KT 10SM CLR M01/M12 A3002 RMK AO2 SLP168 T10111122 (CM)
0192744904947232011010314547+42717-071124FM-15+0045KLWM V0203005N008852200059N0160935N5-00065-01335101725ADDAA101000095GF100991999999999999999999MA1101695101155MD1140204+9999OC101245REMMET10601/03/11 09:54:02 METAR KLWM 031454Z 30017G24KT 10SM CLR M01/M13 A3003 RMK AO2 SLP172 T10061133 51020 (CM)
0189744904947232011010315547+42717-071124FM-15+0045KLWM V0203005N009352200059N0160935N5+00005-01395101675ADDAA101000095GF100991999999999999999999MA1101665101125OC101495REMMET11701/03/11 10:54:02 METAR KLWM 031554Z 30018G29KT 10SM CLR 00/M14 A3002 RMK AO2 PK WND 29029/1554 SLP167 T00001139 (CM)
0189744904947232011010316547+42717-071124FM-15+0045KLWM V0203205N008252200059N0160935N5+00065-01395101575ADDAA101000095GF100991999999999999999999MA1101565101025OC101495REMMET11701/03/11 11:54:02 METAR KLWM 031654Z 32016G29KT 10SM CLR 01/M14 A2999 RMK AO2 PK WND 31029/1648 SLP157 T00061139 (CM)
0229744904947232011010317547+42717-071124FM-15+0045KLWM V0203205N005752200059N0160935N5+00115-01335101515ADDAA101000095GF100991999999999999999999KA1999M+00111KA2999N-00171MA1101495100955MD1840214+9999OC100885REMMET11701/03/11 12:54:02 METAR KLWM 031754Z 32011G17KT 10SM CLR 01/M13 A2997 RMK AO2 SLP151 T00111133 10011 21017 58021 (CM)
0171744904947232011010318547+42717-071124FM-15+0045KLWM V0202905N005152200059N0160935N5+00115-01335101515ADDAA101000095GF100991999999999999999999MA1101495100955OC101245REMMET09901/03/11 13:54:02 METAR KLWM 031854Z 29010G24KT 10SM CLR 01/M13 A2997 RMK AO2 SLP151 T00111133 (RR)
0171744904947232011010319547+42717-071124FM-15+0045KLWM V0203105N005752200059N0160935N5+00115-01335101545ADDAA101000095GF100991999999999999999999MA1101525100985OC101035REMMET09901/03/11 14:54:02 METAR KLWM 031954Z 31011G20KT 10SM CLR 01/M13 A2998 RMK AO2 SLP154 T00111133 (RR)
0191744904947232011010320547+42717-071124FM-15+0045KLWM V0203005N007252200059N0160935N5+00065-01335101615ADDAA101000095GF100991999999999999999999MA1101595101055MD1340104+9999OC101135REMMET10501/03/11 15:54:02 METAR KLWM 032054Z 30014G22KT 10SM CLR 01/M13 A3000 RMK AO2 SLP161 T00061133 53010 (RR)
0161744904947232011010321547+42717-071124FM-15+0045KLWM V0202905N003152200059N0160935N5-00065-01285101715ADDAA101000095GF100991999999999999999999MA1101695101155REMMET09701/03/11 16:54:02 METAR KLWM 032154Z 29006KT 10SM CLR M01/M13 A3003 RMK AO2 SLP171 T10061128 (RR)
0161744904947232011010322547+42717-071124FM-15+0045KLWM V0202805N002152200059N0160935N5-00115-01335101825ADDAA101000095GF100991999999999999999999MA1101795101255REMMET09701/03/11 17:54:02 METAR KLWM 032254Z 28004KT 10SM CLR M01/M13 A3006 RMK AO2 SLP182 T10111133 (MP)
0219744904947232011010323547+42717-071124FM-15+0045KLWM V0209999C000052200059N0160935N5-00115-01335101815ADDAA101000095GF100991999999999999999999KA1999M+00171KA2999N-00171MA1101795101255MD1040204+9999REMMET11501/03/11 18:54:02 METAR KLWM 032354Z 00000KT 10SM CLR M01/M13 A3006 RMK AO2 SLP181 T10111133 10017 21017 50020 (MP)
0156744904947232011010400547+42717-071124FM-15+0045KLWM V0202805N001552200059N0160935N5-00225-01285101825ADDAA101000095GF100991999999999999999999MA1101835101295REMMET09201/03/11 19:54:01 METAR KLWM 040054Z 28003KT 10SM CLR M02/M13 A3007 RMK AO2 SLP182 T10221128
0156744904947232011010401547+42717-071124FM-15+0045KLWM V0202205N002152200059N0160935N5-00335-01225101835ADDAA101000095GF100991999999999999999999MA1101835101295REMMET09201/03/11 20:54:01 METAR KLWM 040154Z 22004KT 10SM CLR M03/M12 A3007 RMK AO2 SLP183 T10331122
0176744904947232011010402547+42717-071124FM-15+0045KLWM V0202305N003152200059N0160935N5-00335-01175101835ADDAA101000095GF100991999999999999999999MA1101835101295MD1140024+9999REMMET09801/03/11 21:54:01 METAR KLWM 040254Z 23006KT 10SM CLR M03/M12 A3007 RMK AO2 SLP183 T10331117 51002
0156744904947232011010403547+42717-071124FM-15+0045KLWM V0202405N003652200059N0160935N5-00395-01065101805ADDAA101000095GF100991999999999999999999MA1101795101255REMMET09201/03/11 22:54:01 METAR KLWM 040354Z 24007KT 10SM CLR M04/M11 A3006 RMK AO2 SLP180 T10391106
0166744904947232011010404547+42717-071124FM-15+0045KLWM V0202305N002652200059N0160935N5-00445-01065101765ADDAA101000095GF100991999999999999999999MA1101765101225REMMET10201/03/11 23:54:01 METAR KLWM 040454Z 23005KT 10SM CLR M04/M11 A3005 RMK AO2 SLP176 T10441106 400281044
0886744904947232011010404596+42717-071124SOD  +0045KLWM V020999999999999999999999999999+99999+99999999999ADDAA124000095KA1240M+00285KA2240N-00435MG1100884100914OE11240156530004195OE22240107331011485OE33240051999999995REMSOD73024 HR PRECIPITATION (IN):0.00  24 HR MAX TEMP (F):37 24 HR MAX TEMP TIME (LST):0001 24 HR MIN TEMP (F):24 24 HR MIN TEMP TIME (LST):2359 AVERAGE STATION PRESSURE:29.790 MINIMUM SEA LEVEL PRESSURE:29.80 TIME OF OCCURRENCE:0001 PEAK WIND SPEED (MPH):35  PEAK WIND DIR (DEG):300 PEAK WIND TIME (LST):0419  FASTEST 2MIN SPEED (MPH):24 FASTEST 2MIN DIR (DEG):310 FASTEST 2MIN TIME (LST):1148 AVERAGE WIND SPEED (MPH):11.6 24 HR AVG TEMP (F):31 HEATING DEGREE DAYS:34  COOLING DEGREE DAYS:0   LATEST DAY MAX TEMP (0700-1900 LST):35  LATEST NIGHT MIN TEMP(1900-0800 LST):29 HOURLY INCREMENTAL PRECIPITATION VALUES (IN):.00 0.00 0.00 0.00 0.00 0.00 0.00 0.00 0.00 0.00 0.00 0.00 0.00 0.00 0.00 0.00 0.00 0.00 0.00 0.00 0.00 0.00 0.00 0.00EQDR01     N7GJS072R02     N7GKS075
0214744904947232011010405547+42717-071124FM-15+0045KLWM V0202305N003152200059N0160935N5-00395-01065101765ADDAA101000095GF100991999999999999999999KA1999M-00111KA2999N-00441MA1101765101225MD1640074+9999REMMET11001/04/11 00:54:02 METAR KLWM 040554Z 23006KT 10SM CLR M04/M11 A3005 RMK AO2 SLP176 T10391106 11011 21044 56007
0156744904947232011010406547+42717-071124FM-15+0045KLWM V0202405N004652200059N0160935N5-00395-01065101775ADDAA101000095GF100991999999999999999999MA1101765101225REMMET09201/04/11 01:54:02 METAR KLWM 040654Z 24009KT 10SM CLR M04/M11 A3005 RMK AO2 SLP177 T10391106
0156744904947232011010407547+42717-071124FM-15+0045KLWM V0202305N002652200059N0160935N5-00445-01065101775ADDAA101000095GF100991999999999999999999MA1101765101225REMMET09201/04/11 02:54:02 METAR KLWM 040754Z 23005KT 10SM CLR M04/M11 A3005 RMK AO2 SLP177 T10441106
0176744904947232011010408547+42717-071124FM-15+0045KLWM V0202405N003652200059N0160935N5-00445-01065101735ADDAA101000095GF100991999999999999999999MA1101735101195MD1840024+9999REMMET09801/04/11 03:54:02 METAR KLWM 040854Z 24007KT 10SM CLR M04/M11 A3004 RMK AO2 SLP173 T10441106 58002
0156744904947232011010409547+42717-071124FM-15+0045KLWM V0202205N003152200059N0160935N5-00505-01065101705ADDAA101000095GF100991999999999999999999MA1101695101155REMMET09201/04/11 04:54:02 METAR KLWM 040954Z 22006KT 10SM CLR M05/M11 A3003 RMK AO2 SLP170 T10501106
0190744904947232011010410547+42717-071124FM-15+0045KLWM V0202105N00265030485MN0160935N5-00445-01065101705ADDAA101000095GA1085+030485999GD14991+0304859GF108991999999999999999999MA1101695101155REMMET09501/04/11 05:54:02 METAR KLWM 041054Z 21005KT 10SM OVC100 M04/M11 A3003 RMK AO2 SLP170 T10441106
0219744904947232011010411547+42717-071124FM-15+0045KLWM V0202105N002152200059N0160935N5-00565-01065101675ADDAA101000095GF100991999999999999999999KA1999M-00391KA2999N-00561MA1101665101125MD1740074+9999REMMET11501/04/11 06:54:02 METAR KLWM 041154Z 21004KT 10SM CLR M06/M11 A3002 RMK AO2 SLP167 T10561106 11039 21056 57007 (RR)
0161744904947232011010412547+42717-071124FM-15+0045KLWM V0209999C000052200059N0160935N5-00505-01065101625ADDAA101000095GF100991999999999999999999MA1101595101055REMMET09701/04/11 07:54:02 METAR KLWM 041254Z 00000KT 10SM CLR M05/M11 A3000 RMK AO2 SLP162 T10501106 (RR)
0161744904947232011010413547+42717-071124FM-15+0045KLWM V0202005N002652200059N0160935N5-00335-01005101555ADDAA101000095GF100991999999999999999999MA1101565101025REMMET09701/04/11 08:54:02 METAR KLWM 041354Z 20005KT 10SM CLR M03/M10 A2999 RMK AO2 SLP155 T10331100 (RR)
0215744904947232011010414547+42717-071124FM-15+0045KLWM V0202605N003152200059N0160935N5-00115-01005101545ADDAA101000095GA1025+022865999GD11991+0228659GF102991999999999999999999MA1101525100985MD1640134+9999REMMET10601/04/11 09:54:02 METAR KLWM 041454Z 26006KT 10SM FEW075 M01/M10 A2998 RMK AO2 SLP154 T10111100 56013 (TB)
0160744904947232011010415547+42717-071124FM-15+0045KLWM V0202405N002652200059N0160935N5+00005-00945101375ADDAA101000095GF100991999999999999999999MA1101355100815REMMET09601/04/11 10:54:02 METAR KLWM 041554Z 24005KT 10SM CLR 00/M09 A2993 RMK AO2 SLP137 T00001094 (TB)
0194744904947232011010416547+42717-071124FM-15+0045KLWM V0202405N003652200059N0160935N5+00115-00835101255ADDAA101000095GA1025+021345999GD11991+0213459GF102991999999999999999999MA1101255100715REMMET09901/04/11 11:54:02 METAR KLWM 041654Z 24007KT 10SM FEW070 01/M08 A2990 RMK AO2 SLP125 T00111083 (TB)
0252744904947232011010417547+42717-071124FM-15+0045KLWM V0202405N00265021345MN0160935N5+00175-00835101125ADDAA101000095GA1085+021345999GD14991+0213459GF108991999999999999999999KA1999M+00171KA2999N-00561MA1101125100585MD1640424+9999REMMET11701/04/11 12:54:02 METAR KLWM 041754Z 24005KT 10SM OVC070 02/M08 A2986 RMK AO2 SLP112 T00171083 10017 21056 56042 (TB)
0160744904947232011010418547+42717-071124FM-15+0045KLWM V0201905N002152200059N0160935N5+00225-00945100995ADDAA101000095GF100991999999999999999999MA1100985100445REMMET09601/04/11 13:54:02 METAR KLWM 041854Z 19004KT 10SM CLR 02/M09 A2982 RMK AO2 SLP099 T00221094 (TB)
0194744904947232011010419547+42717-071124FM-15+0045KLWM V0209999V002652200059N0160935N5+00335-00895100895ADDAA101000095GA1045+021345999GD12991+0213459GF104991999999999999999999MA1100885100345REMMET09901/04/11 14:54:02 METAR KLWM 041954Z VRB05KT 10SM SCT070 03/M09 A2979 RMK AO2 SLP089 T00331089 (TB)
0214744904947232011010420547+42717-071124FM-15+0045KLWM V0202205N00215024385MN0160935N5+00335-00835100855ADDAA101000095GA1075+024385999GD13991+0243859GF107991999999999999999999MA1100855100315MD1640264+9999REMMET10501/04/11 15:54:02 METAR KLWM 042054Z 22004KT 10SM BKN080 03/M08 A2978 RMK AO2 SLP085 T00331083 56026 (TB)
0194744904947232011010421547+42717-071124FM-15+0045KLWM V0209999C00005021345MN0160935N5+00065-00835100845ADDAA101000095GA1075+021345999GD13991+0213459GF107991999999999999999999MA1100815100285REMMET09901/04/11 16:54:02 METAR KLWM 042154Z 00000KT 10SM BKN070 01/M08 A2977 RMK AO2 SLP084 T00061083 (TB)
0195744904947232011010422547+42717-071124FM-15+0045KLWM V0209999C000052200059N0160935N5-00065-00835100855ADDAA101000095GA1025+027435999GD11991+0274359GF102991999999999999999999MA1100855100315REMMET10001/04/11 17:54:02 METAR KLWM 042254Z 00000KT 10SM FEW090 M01/M08 A2978 RMK AO2 SLP085 T10061083 (TB)
0214744904947232011010423547+42717-071124FM-15+0045KLWM V0209999C000052200059N0160935N5-00175-00835100795ADDAA101000095GF100991999999999999999999KA1999M+00331KA2999N-00221MA1100785100245MD1840064+9999REMMET11001/04/11 18:54:02 METAR KLWM 042354Z 00000KT 10SM CLR M02/M08 A2976 RMK AO2 SLP079 T10171083 10033 21022 58006
0156744904947232011010500547+42717-071124FM-15+0045KLWM V0202105N002652200059N0160935N5-00175-00895100765ADDAA101000095GF100991999999999999999999MA1100755100215REMMET09201/04/11 19:54:01 METAR KLWM 050054Z 21005KT 10SM CLR M02/M09 A2975 RMK AO2 SLP076 T10171089
0156744904947232011010501547+42717-071124FM-15+0045KLWM V0202105N002152200059N0160935N5-00285-00945100765ADDAA101000095GF100991999999999999999999MA1100755100215REMMET09201/04/11 20:54:01 METAR KLWM 050154Z 21004KT 10SM CLR M03/M09 A2975 RMK AO2 SLP076 T10281094
0176744904947232011010502547+42717-071124FM-15+0045KLWM V0202205N002152200059N0160935N5-00335-00945100745ADDAA101000095GF100991999999999999999999MA1100755100215MD1640044+9999REMMET09801/04/11 21:54:01 METAR KLWM 050254Z 22004KT 10SM CLR M03/M09 A2975 RMK AO2 SLP074 T10331094 56004
0190744904947232011010503547+42717-071124FM-15+0045KLWM V0202405N003152200059N0160935N5-00225-00895100705ADDAA101000095GA1025+033535999GD11991+0335359GF102991999999999999999999MA1100685100145REMMET09501/04/11 22:54:01 METAR KLWM 050354Z 24006KT 10SM FEW110 M02/M09 A2973 RMK AO2 SLP070 T10221089
0166744904947232011010504547+42717-071124FM-15+0045KLWM V0202205N002652200059N0160935N5-00335-00945100625ADDAA101000095GF100991999999999999999999MA1100615100075REMMET10201/04/11 23:54:01 METAR KLWM 050454Z 22005KT 10SM CLR M03/M09 A2971 RMK AO2 SLP062 T10331094 400331056
0928744904947232011010504596+42717-071124SOD  +0045KLWM V020999999999999999999999999999+99999+99999999999ADDAA124000095AX1086246KA1240M+00335KA2240N-00555MG1100764100614OE11240071524003135OE22240053623015305OE33240022899999995REMSOD74724 HR PRECIPITATION (IN):0.00  WEATHER(CODE):8  24 HR MAX TEMP (F):38 24 HR MAX TEMP TIME (LST):1612 24 HR MIN TEMP (F):22 24 HR MIN TEMP TIME (LST):0749 AVERAGE STATION PRESSURE:29.755 MINIMUM SEA LEVEL PRESSURE:29.71 TIME OF OCCURRENCE:2359 PEAK WIND SPEED (MPH):16  PEAK WIND DIR (DEG):240 PEAK WIND TIME (LST):0313  FASTEST 2MIN SPEED (MPH):12 FASTEST 2MIN DIR (DEG):230 FASTEST 2MIN TIME (LST):1530 AVERAGE WIND SPEED (MPH):5.1  24 HR AVG TEMP (F):30 HEATING DEGREE DAYS:35  COOLING DEGREE DAYS:0   LATEST DAY MAX TEMP (0700-1900 LST):38  LATEST NIGHT MIN TEMP(1900-0800 LST):22 HOURLY INCREMENTAL PRECIPITATION VALUES (IN):.00 0.00 0.00 0.00 0.00 0.00 0.00 0.00 0.00 0.00 0.00 0.00 0.00 0.00 0.00 0.00 0.00 0.00 0.00 0.00 0.00 0.00 0.00 0.00EQDR01     87AXW093R02     N7GJS072R03     N7GKS075
0214744904947232011010505547+42717-071124FM-15+0045KLWM V0202205N003152200059N0160935N5-00335-00895100615ADDAA101000095GF100991999999999999999999KA1999M-00111KA2999N-00331MA1100615100075MD1640144+9999REMMET11001/05/11 00:54:02 METAR KLWM 050554Z 22006KT 10SM CLR M03/M09 A2971 RMK AO2 SLP061 T10331089 11011 21033 56014
0156744904947232011010506547+42717-071124FM-15+0045KLWM V0209999C000052200059N0160935N5-00335-00895100645ADDAA101000095GF100991999999999999999999MA1100615100075REMMET09201/05/11 01:54:02 METAR KLWM 050654Z 00000KT 10SM CLR M03/M09 A2971 RMK AO2 SLP064 T10331089
0156744904947232011010507547+42717-071124FM-15+0045KLWM V0202405N002152200059N0160935N5-00335-00835100645ADDAA101000095GF100991999999999999999999MA1100645100115REMMET09201/05/11 02:54:02 METAR KLWM 050754Z 24004KT 10SM CLR M03/M08 A2972 RMK AO2 SLP064 T10331083
0176744904947232011010508547+42717-071124FM-15+0045KLWM V0202305N002152200059N0160935N5-00285-00835100645ADDAA101000095GF100991999999999999999999MA1100645100115MD1040034+9999REMMET09801/05/11 03:54:02 METAR KLWM 050854Z 23004KT 10SM CLR M03/M08 A2972 RMK AO2 SLP064 T10281083 50003
0156744904947232011010509547+42717-071124FM-15+0045KLWM V0209999C000052200059N0160935N5-00395-00835100685ADDAA101000095GF100991999999999999999999MA1100685100145REMMET09201/05/11 04:54:02 METAR KLWM 050954Z 00000KT 10SM CLR M04/M08 A2973 RMK AO2 SLP068 T10391083
0156744904947232011010510547+42717-071124FM-15+0045KLWM V0202005N001552200059N0160935N5-00395-00785100715ADDAA101000095GF100991999999999999999999MA1100715100175REMMET09201/05/11 05:54:02 METAR KLWM 051054Z 20003KT 10SM CLR M04/M08 A2974 RMK AO2 SLP071 T10391078
0219744904947232011010511547+42717-071124FM-15+0045KLWM V0202105N002652200059N0160935N5-00445-00785100745ADDAA101000095GF100991999999999999999999KA1999M-00221KA2999N-00441MA1100715100175MD1140094+9999REMMET11501/05/11 06:54:02 METAR KLWM 051154Z 21005KT 10SM CLR M04/M08 A2974 RMK AO2 SLP074 T10441078 11022 21044 51009 (RR)
0161744904947232011010512547+42717-071124FM-15+0045KLWM V0202405N002652200059N0160935N5-00395-00725100775ADDAA101000095GF100991999999999999999999MA1100755100215REMMET09701/05/11 07:54:02 METAR KLWM 051254Z 24005KT 10SM CLR M04/M07 A2975 RMK AO2 SLP077 T10391072 (RR)
0161744904947232011010513547+42717-071124FM-15+0045KLWM V0202605N002152200059N0160935N5-00115-00615100795ADDAA101000095GF100991999999999999999999MA1100785100245REMMET09701/05/11 08:54:02 METAR KLWM 051354Z 26004KT 10SM CLR M01/M06 A2976 RMK AO2 SLP079 T10111061 (RR)
0180744904947232011010514547+42717-071124FM-15+0045KLWM V0202705N003652200059N0160935N5+00005-00725100795ADDAA101000095GF100991999999999999999999MA1100785100245MD1140054+9999REMMET10201/05/11 09:54:02 METAR KLWM 051454Z 27007KT 10SM CLR 00/M07 A2976 RMK AO2 SLP079 T00001072 51005 (RR)
0160744904947232011010515547+42717-071124FM-15+0045KLWM V0202505N003152200059N0160935N5+00225-00725100755ADDAA101000095GF100991999999999999999999MA1100755100215REMMET09601/05/11 10:54:02 METAR KLWM 051554Z 25006KT 10SM CLR 02/M07 A2975 RMK AO2 SLP075 T00221072 (RR)
0205744904947232011010516547+42717-071124FM-15+0045KLWM V0202805N006252200059N0160935N5+00285-00895100655ADDAA101000095GA1025+010675999GD11991+0106759GF102991999999999999999999MA1100645100115OC101035REMMET10201/05/11 11:54:02 METAR KLWM 051654Z 28012G20KT 10SM FEW035 03/M09 A2972 RMK AO2 SLP065 T00281089 (RR)
0263744904947232011010517547+42717-071124FM-15+0045KLWM V0202705N00675016765MN0160935N5+00285-00895100575ADDAA101000095GA1075+016765999GD13991+0167659GF107991999999999999999999KA1999M+00441KA2999N-00441MA1100545100015MD1840224+9999OC100985REMMET12001/05/11 12:54:02 METAR KLWM 051754Z 27013G19KT 10SM BKN055 03/M09 A2969 RMK AO2 SLP057 T00281089 10044 21044 58022 (TB)
0243744904947232011010518547+42717-071124FM-15+0045KLWM V0202705N00465021345MN0160935N5+00285-00895100555ADDAA101000095GA1045+016765999GA2075+021345999GD12991+0167659GD23991+0213459GF107991999999999999999999MA1100545100015OC100935REMMET10901/05/11 13:54:02 METAR KLWM 051854Z 27009G18KT 10SM SCT055 BKN070 03/M09 A2969 RMK AO2 SLP055 T00281089 (TB)
0243744904947232011010519547+42717-071124FM-15+0045KLWM V0202805N00675018295MN0160935N5+00285-01065100585ADDAA101000095GA1075+018295999GA2085+022865999GD13991+0182959GD24991+0228659GF108991999999999999999999MA1100585100045OC100985REMMET10901/05/11 14:54:02 METAR KLWM 051954Z 28013G19KT 10SM BKN060 OVC075 03/M11 A2970 RMK AO2 SLP058 T00281106 (TB)
0214744904947232011010520547+42717-071124FM-15+0045KLWM V0202905N00465019815MN0160935N5+00225-01115100625ADDAA101000095GA1075+019815999GD13991+0198159GF107991999999999999999999MA1100615100075MD1340054+9999REMMET10501/05/11 15:54:02 METAR KLWM 052054Z 29009KT 10SM BKN065 02/M11 A2971 RMK AO2 SLP062 T00221111 53005 (TB)
0205744904947232011010521547+42717-071124FM-15+0045KLWM V0202805N00515018295MN0160935N5+00115-01115100655ADDAA101000095GA1075+018295999GD13991+0182959GF107991999999999999999999MA1100645100115OC100885REMMET10201/05/11 16:54:02 METAR KLWM 052154Z 28010G17KT 10SM BKN060 01/M11 A2972 RMK AO2 SLP065 T00111111 (CZ)
0171744904947232011010522547+42717-071124FM-15+0045KLWM V0202905N004152200059N0160935N5+00005-01285100705ADDAA101000095GF100991999999999999999999MA1100685100145OC100775REMMET09901/05/11 17:54:02 METAR KLWM 052254Z 29008G15KT 10SM CLR 00/M13 A2973 RMK AO2 SLP070 T00001128 (CZ)
0219744904947232011010523547+42717-071124FM-15+0045KLWM V0202805N003652200059N0160935N5-00065-01225100715ADDAA101000095GF100991999999999999999999KA1999M+00391KA2999N-00061MA1100715100175MD1140094+9999REMMET11501/05/11 18:54:02 METAR KLWM 052354Z 28007KT 10SM CLR M01/M12 A2974 RMK AO2 SLP071 T10061122 10039 21006 51009 (CZ)
0156744904947232011010600547+42717-071124FM-15+0045KLWM V0202705N003152200059N0160935N5-00175-01225100755ADDAA101000095GF100991999999999999999999MA1100755100215REMMET09201/05/11 19:54:01 METAR KLWM 060054Z 27006KT 10SM CLR M02/M12 A2975 RMK AO2 SLP075 T10171122
0156744904947232011010601547+42717-071124FM-15+0045KLWM V0203005N003152200059N0160935N5-00225-01335100765ADDAA101000095GF100991999999999999999999MA1100755100215REMMET09201/05/11 20:54:01 METAR KLWM 060154Z 30006KT 10SM CLR M02/M13 A2975 RMK AO2 SLP076 T10221133
0176744904947232011010602547+42717-071124FM-15+0045KLWM V0202805N003152200059N0160935N5-00285-01285100765ADDAA101000095GF100991999999999999999999MA1100755100215MD1140054+9999REMMET09801/05/11 21:54:01 METAR KLWM 060254Z 28006KT 10SM CLR M03/M13 A2975 RMK AO2 SLP076 T10281128 51005
0156744904947232011010603547+42717-071124FM-15+0045KLWM V0202905N003652200059N0160935N5-00285-01395100795ADDAA101000095GF100991999999999999999999MA1100785100245REMMET09201/05/11 22:54:01 METAR KLWM 060354Z 29007KT 10SM CLR M03/M14 A2976 RMK AO2 SLP079 T10281139
0166744904947232011010604547+42717-071124FM-15+0045KLWM V0202905N001552200059N0160935N5-00335-01395100755ADDAA101000095GF100991999999999999999999MA1100755100215REMMET10201/05/11 23:54:01 METAR KLWM 060454Z 29003KT 10SM CLR M03/M14 A2975 RMK AO2 SLP075 T10331139 400441044
0886744904947232011010604596+42717-071124SOD  +0045KLWM V020999999999999999999999999999+99999+99999999999ADDAA124000095KA1240M+00445KA2240N-00435MG1100084100544OE11240116225013105OE22240089427013105OE33240032699999995REMSOD73024 HR PRECIPITATION (IN):0.00  24 HR MAX TEMP (F):40 24 HR MAX TEMP TIME (LST):1238 24 HR MIN TEMP (F):24 24 HR MIN TEMP TIME (LST):0750 AVERAGE STATION PRESSURE:29.555 MINIMUM SEA LEVEL PRESSURE:29.69 TIME OF OCCURRENCE:1413 PEAK WIND SPEED (MPH):26  PEAK WIND DIR (DEG):250 PEAK WIND TIME (LST):1310  FASTEST 2MIN SPEED (MPH):20 FASTEST 2MIN DIR (DEG):270 FASTEST 2MIN TIME (LST):1310 AVERAGE WIND SPEED (MPH):7.3  24 HR AVG TEMP (F):32 HEATING DEGREE DAYS:33  COOLING DEGREE DAYS:0   LATEST DAY MAX TEMP (0700-1900 LST):40  LATEST NIGHT MIN TEMP(1900-0800 LST):24 HOURLY INCREMENTAL PRECIPITATION VALUES (IN):.00 0.00 0.00 0.00 0.00 0.00 0.00 0.00 0.00 0.00 0.00 0.00 0.00 0.00 0.00 0.00 0.00 0.00 0.00 0.00 0.00 0.00 0.00 0.00EQDR01     N7GJS072R02     N7GKS075
0219744904947232011010605547+42717-071124FM-15+0045KLWM V0202905N002152200059N0160935N5-00445-01395100745ADDAA101000095GF100991999999999999999999KA1999M-00061KA2999N-00441MA1100755100215MD1840024+9999REMMET11501/06/11 00:54:02 METAR KLWM 060554Z 29004KT 10SM CLR M04/M14 A2975 RMK AO2 SLP074 T10441139 11006 21044 58002 (CZ)
0161744904947232011010606547+42717-071124FM-15+0045KLWM V0202605N002652200059N0160935N5-00505-01395100745ADDAA101000095GF100991999999999999999999MA1100755100215REMMET09701/06/11 01:54:02 METAR KLWM 060654Z 26005KT 10SM CLR M05/M14 A2975 RMK AO2 SLP074 T10501139 (CZ)
0161744904947232011010607547+42717-071124FM-15+0045KLWM V0202505N002652200059N0160935N5-00565-01395100735ADDAA101000095GF100991999999999999999999MA1100715100175REMMET09701/06/11 02:54:02 METAR KLWM 060754Z 25005KT 10SM CLR M06/M14 A2974 RMK AO2 SLP073 T10561139 (CZ)
0181744904947232011010608547+42717-071124FM-15+0045KLWM V0202305N002652200059N0160935N5-00615-01335100745ADDAA101000095GF100991999999999999999999MA1100755100215MD1540004+9999REMMET10301/06/11 03:54:02 METAR KLWM 060854Z 23005KT 10SM CLR M06/M13 A2975 RMK AO2 SLP074 T10611133 55000 (CZ)
0156744904947232011010609547+42717-071124FM-15+0045KLWM V0209999C000052200059N0160935N5-00725-01335100735ADDAA101000095GF100991999999999999999999MA1100715100175REMMET09201/06/11 04:54:02 METAR KLWM 060954Z 00000KT 10SM CLR M07/M13 A2974 RMK AO2 SLP073 T10721133
0156744904947232011010610547+42717-071124FM-15+0045KLWM V0209999C000052200059N0160935N5-00675-01335100725ADDAA101000095GF100991999999999999999999MA1100715100175REMMET09201/06/11 05:54:02 METAR KLWM 061054Z 00000KT 10SM CLR M07/M13 A2974 RMK AO2 SLP072 T10671133
0219744904947232011010611547+42717-071124FM-15+0045KLWM V0209999C000052200059N0160935N5-00725-01285100715ADDAA101000095GF100991999999999999999999KA1999M-00441KA2999N-00721MA1100715100175MD1740034+9999REMMET11501/06/11 06:54:02 METAR KLWM 061154Z 00000KT 10SM CLR M07/M13 A2974 RMK AO2 SLP071 T10721128 11044 21072 57003 (MP)
0161744904947232011010612547+42717-071124FM-15+0045KLWM V0202105N001552200059N0160935N5-00725-01285100725ADDAA101000095GF100991999999999999999999MA1100715100175REMMET09701/06/11 07:54:02 METAR KLWM 061254Z 21003KT 10SM CLR M07/M13 A2974 RMK AO2 SLP072 T10721128 (MP)
0161744904947232011010613547+42717-071124FM-15+0045KLWM V0202605N002152200059N0160935N5-00565-01175100715ADDAA101000095GF100991999999999999999999MA1100715100175REMMET09701/06/11 08:54:02 METAR KLWM 061354Z 26004KT 10SM CLR M06/M12 A2974 RMK AO2 SLP071 T10561117 (MP)
0181744904947232011010614547+42717-071124FM-15+0045KLWM V0202905N003152200059N0160935N5-00335-01115100695ADDAA101000095GF100991999999999999999999MA1100685100145MD1840024+9999REMMET10301/06/11 09:54:02 METAR KLWM 061454Z 29006KT 10SM CLR M03/M11 A2973 RMK AO2 SLP069 T10331111 58002 (MP)
0161744904947232011010615547+42717-071124FM-15+0045KLWM V0202805N002152200059N0160935N5-00225-01175100635ADDAA101000095GF100991999999999999999999MA1100615100075REMMET09701/06/11 10:54:02 METAR KLWM 061554Z 28004KT 10SM CLR M02/M12 A2971 RMK AO2 SLP063 T10221117 (TB)
0161744904947232011010616547+42717-071124FM-15+0045KLWM V0209999C000052200059N0160935N5-00225-01285100525ADDAA101000095GF100991999999999999999999MA1100515099975REMMET09701/06/11 11:54:02 METAR KLWM 061654Z 00000KT 10SM CLR M02/M13 A2968 RMK AO2 SLP052 T10221128 (CZ)
0219744904947232011010617547+42717-071124FM-15+0045KLWM V0202705N002152200059N0160935N5-00175-01285100445ADDAA101000095GF100991999999999999999999KA1999M-00171KA2999N-00721MA1100445099905MD1840244+9999REMMET11501/06/11 12:54:02 METAR KLWM 061754Z 27004KT 10SM CLR M02/M13 A2966 RMK AO2 SLP044 T10171128 11017 21072 58024 (CZ)
0161744904947232011010618547+42717-071124FM-15+0045KLWM V0203305N002152200059N0160935N5-00175-01335100435ADDAA101000095GF100991999999999999999999MA1100415099875REMMET09701/06/11 13:54:02 METAR KLWM 061854Z 33004KT 10SM CLR M02/M13 A2965 RMK AO2 SLP043 T10171133 (CZ)
0168744904947232011010619547+42717-071124FM-15+0045KLWM V0203205N001552200019N0160935N5-00175-01395100455ADDAA101000095MA1100445099905REMMET09501/06/11 14:54:02 METAR KLWM 061954Z 32003KT 10SM M02/M14 A2966 RMK AO2 SLP045 T10171139 $ (CZ)EQDR01      7SKY009R02      7GAS009
0181744904947232011010620547+42717-071124FM-15+0045KLWM V0209999C000052200059N0160935N5-00175-01395100455ADDAA101000095GF100991999999999999999999MA1100445099905MD1340004+9999REMMET10301/06/11 15:54:02 METAR KLWM 062054Z 00000KT 10SM CLR M02/M14 A2966 RMK AO2 SLP045 T10171139 53000 (CM)
0161744904947232011010621547+42717-071124FM-15+0045KLWM V0209999C000052200059N0160935N5-00225-01335100475ADDAA101000095GF100991999999999999999999MA1100475099945REMMET09701/06/11 16:54:02 METAR KLWM 062154Z 00000KT 10SM CLR M02/M13 A2967 RMK AO2 SLP047 T10221133 (CM)
0161744904947232011010622547+42717-071124FM-15+0045KLWM V0209999C000052200059N0160935N5-00445-01335100455ADDAA101000095GF100991999999999999999999MA1100445099905REMMET09701/06/11 17:54:02 METAR KLWM 062254Z 00000KT 10SM CLR M04/M13 A2966 RMK AO2 SLP045 T10441133 (CM)
0219744904947232011010623547+42717-071124FM-15+0045KLWM V0209999C000052200059N0160935N5-00615-01175100475ADDAA101000095GF100991999999999999999999KA1999M-00111KA2999N-00671MA1100445099905MD1240024+9999REMMET11501/06/11 18:54:02 METAR KLWM 062354Z 00000KT 10SM CLR M06/M12 A2966 RMK AO2 SLP047 T10611117 11011 21067 52002 (CM)
0156744904947232011010700547+42717-071124FM-15+0045KLWM V0209999C000052200059N0160935N5-00675-01225100465ADDAA101000095GF100991999999999999999999MA1100445099905REMMET09201/06/11 19:54:01 METAR KLWM 070054Z 00000KT 10SM CLR M07/M12 A2966 RMK AO2 SLP046 T10671122
0156744904947232011010701547+42717-071124FM-15+0045KLWM V0209999C000052200059N0160935N5-00725-01335100465ADDAA101000095GF100991999999999999999999MA1100445099905REMMET09201/06/11 20:54:01 METAR KLWM 070154Z 00000KT 10SM CLR M07/M13 A2966 RMK AO2 SLP046 T10721133
0176744904947232011010702547+42717-071124FM-15+0045KLWM V0209999C000052200059N0160935N5-00835-01335100455ADDAA101000095GF100991999999999999999999MA1100445099905MD1640024+9999REMMET09801/06/11 21:54:01 METAR KLWM 070254Z 00000KT 10SM CLR M08/M13 A2966 RMK AO2 SLP045 T10831133 56002
0156744904947232011010703547+42717-071124FM-15+0045KLWM V0209999C000052200059N0160935N5-00785-01335100375ADDAA101000095GF100991999999999999999999MA1100375099845REMMET09201/06/11 22:54:01 METAR KLWM 070354Z 00000KT 10SM CLR M08/M13 A2964 RMK AO2 SLP037 T10781133
0166744904947232011010704547+42717-071124FM-15+0045KLWM V0209999C000052200059N0160935N5-00835-01115100375ADDAA101000095GF100991999999999999999999MA1100375099845REMMET10201/06/11 23:54:01 METAR KLWM 070454Z 00000KT 10SM CLR M08/M11 A2964 RMK AO2 SLP037 T10831111 410111089
0886744904947232011010704596+42717-071124SOD  +0045KLWM V020999999999999999999999999999+99999+99999999999ADDAA124000095KA1240M-00105KA2240N-00885MG1100024100344OE11240058133010035OE22240040230010055OE33240010399999995REMSOD73024 HR PRECIPITATION (IN):0.00  24 HR MAX TEMP (F):30 24 HR MAX TEMP TIME (LST):1530 24 HR MIN TEMP (F):16 24 HR MIN TEMP TIME (LST):2310 AVERAGE STATION PRESSURE:29.535 MINIMUM SEA LEVEL PRESSURE:29.63 TIME OF OCCURRENCE:2338 PEAK WIND SPEED (MPH):13  PEAK WIND DIR (DEG):330 PEAK WIND TIME (LST):1003  FASTEST 2MIN SPEED (MPH):9  FASTEST 2MIN DIR (DEG):300 FASTEST 2MIN TIME (LST):1005 AVERAGE WIND SPEED (MPH):2.3  24 HR AVG TEMP (F):23 HEATING DEGREE DAYS:42  COOLING DEGREE DAYS:0   LATEST DAY MAX TEMP (0700-1900 LST):30  LATEST NIGHT MIN TEMP(1900-0800 LST):19 HOURLY INCREMENTAL PRECIPITATION VALUES (IN):.00 0.00 0.00 0.00 0.00 0.00 0.00 0.00 0.00 0.00 0.00 0.00 0.00 0.00 0.00 0.00 0.00 0.00 0.00 0.00 0.00 0.00 0.00 0.00EQDR01     N7GJS072R02     N7GKS075
0219744904947232011010705547+42717-071124FM-15+0045KLWM V0209999C000052200059N0160935N5-00895-01225100315ADDAA101000095GF100991999999999999999999KA1999M-00561KA2999N-00891MA1100305099775MD1640134+9999REMMET11501/07/11 00:54:02 METAR KLWM 070554Z 00000KT 10SM CLR M09/M12 A2962 RMK AO2 SLP031 T10891122 11056 21089 56013 (CM)
0161744904947232011010706547+42717-071124FM-15+0045KLWM V0203505N001552200059N0160935N5-00835-01285100325ADDAA101000095GF100991999999999999999999MA1100305099775REMMET09701/07/11 01:54:02 METAR KLWM 070654Z 35003KT 10SM CLR M08/M13 A2962 RMK AO2 SLP032 T10831128 (CM)
0190744904947232011010707547+42717-071124FM-15+0045KLWM V0200105N00155028965MN0160935N5-00785-01285100335ADDAA101000095GA1085+028965999GD14991+0289659GF108991999999999999999999MA1100345099805REMMET09501/07/11 02:54:02 METAR KLWM 070754Z 01003KT 10SM OVC095 M08/M13 A2963 RMK AO2 SLP033 T10781128
0210744904947232011010708547+42717-071124FM-15+0045KLWM V0200205N00265030485MN0160935N5-00785-01285100235ADDAA101000095GA1085+030485999GD14991+0304859GF108991999999999999999999MA1100205099675MD1840094+9999REMMET10101/07/11 03:54:02 METAR KLWM 070854Z 02005KT 10SM OVC100 M08/M13 A2959 RMK AO2 SLP023 T10781128 58009
0190744904947232011010709547+42717-071124FM-15+0045KLWM V0203605N00155030485MN0160935N5-00785-01285100225ADDAA101000095GA1075+030485999GD13991+0304859GF107991999999999999999999MA1100205099675REMMET09501/07/11 04:54:02 METAR KLWM 070954Z 36003KT 10SM BKN100 M08/M13 A2959 RMK AO2 SLP022 T10781128
0190744904947232011010710547+42717-071124FM-15+0045KLWM V0200305N00365030485MN0160935N5-00725-01225100255ADDAA101000095GA1085+030485999GD14991+0304859GF108991999999999999999999MA1100245099705REMMET09501/07/11 05:54:02 METAR KLWM 071054Z 03007KT 10SM OVC100 M07/M12 A2960 RMK AO2 SLP025 T10721122
0291744904947232011010711547+42717-071124FM-15+0045KLWM V0200205N00265030485MN0160935N5-00675-01225100295ADDAA101000095GA1045+012195999GA2085+030485999GD12991+0121959GD24991+0304859GF108991999999999999999999KA1999M-00671KA2999N-00891MA1100275099745MD1340064+9999REMMET12501/07/11 06:54:02 METAR KLWM 071154Z 02005KT 10SM SCT040 OVC100 M07/M12 A2961 RMK AO2 SLP029 T10671122 11067 21089 53006 (TB)
0271744904947232011010712547+42717-071124FM-15+0045KLWM V0200205N00315024385MN0160935N5-00675-01225100275ADDAA101000095GA1025+009145999GA2045+010975999GA3085+024385999GD11991+0091459GD22991+0109759GD34991+0243859GF108991999999999999999999MA1100245099705REMMET11401/07/11 07:54:02 METAR KLWM 071254Z 02006KT 10SM FEW030 SCT036 OVC080 M07/M12 A2960 RMK AO2 SLP027 T10671122 (TB)
0195744904947232011010713547+42717-071124FM-15+0045KLWM V0200305N003152200059N0160935N5-00565-01225100235ADDAA101000095GA1025+025915999GD11991+0259159GF102991999999999999999999MA1100205099675REMMET10001/07/11 08:54:02 METAR KLWM 071354Z 03006KT 10SM FEW085 M06/M12 A2959 RMK AO2 SLP023 T10561122 (TB)
0181744904947232011010714547+42717-071124FM-15+0045KLWM V0200505N004652200059N0160935N5-00335-01005100175ADDAA101000095GF100991999999999999999999MA1100145099605MD1840134+9999REMMET10301/07/11 09:54:02 METAR KLWM 071454Z 05009KT 10SM CLR M03/M10 A2957 RMK AO2 SLP017 T10331100 58013 (TB)
0195744904947232011010715547+42717-071124FM-15+0045KLWM V0200505N003652200059N0160935N5-00225-00945100095ADDAA101000095GA1025+005495999GD11991+0054959GF102991999999999999999999MA1100075099535REMMET10001/07/11 10:54:02 METAR KLWM 071554Z 05007KT 10SM FEW018 M02/M09 A2955 RMK AO2 SLP009 T10221094 (PJ)
0195744904947232011010716547+42717-071124FM-15+0045KLWM V0200605N004152200059N0160935N5-00115-00835100025ADDAA101000095GA1025+007325999GD11991+0073259GF102991999999999999999999MA1100005099475REMMET10001/07/11 11:54:02 METAR KLWM 071654Z 06008KT 10SM FEW024 M01/M08 A2953 RMK AO2 SLP002 T10111083 (PJ)
0291744904947232011010717547+42717-071124FM-15+0045KLWM V0200505N00465015245MN0160935N5-00065-00725099945ADDAA101000095GA1025+011895999GA2085+015245999GD11991+0118959GD24991+0152459GF108991999999999999999999KA1999M-00061KA2999N-00671MA1099935099405MD1840224+9999REMMET12501/07/11 12:54:02 METAR KLWM 071754Z 05009KT 10SM FEW039 OVC050 M01/M07 A2951 RMK AO2 SLP994 T10061072 11006 21067 58022 (CZ)
0268744904947232011010718407+42717-071124FM-16+0045KLWM V0200405N00465005795MN0144845N5-00105-00605999999ADDAA101000021GA1075+005795999GA2075+008535999GA3085+010365999GD13991+0057959GD23991+0085359GD34991+0103659GF108991999999999999999999MA1099905099365REMMET11101/07/11 13:40:02 SPECI KLWM 071840Z 04009KT 9SM BKN019 BKN028 OVC034 M01/M06 A2950 RMK AO2 SNB17E31 P0000 (CZ)
0248744904947232011010718547+42717-071124FM-15+0045KLWM V0200505N00575005795MN0160935N5-00115-00565099915ADDAA101000025GA1075+005795999GA2085+007925999GD13991+0057959GD24991+0079259GF108991999999999999999999MA1099905099365REMMET12201/07/11 13:54:02 METAR KLWM 071854Z 05011KT 10SM BKN019 OVC026 M01/M06 A2950 RMK AO2 SNB17E31 SLP991 P0000 T10111056 (CZ)
0233744904947232011010719547+42717-071124FM-15+0045KLWM V0200605N00515008535MN0160935N5-00115-00615099885ADDAA101000095GA1045+006715999GA2075+008535999GD12991+0067159GD23991+0085359GF107991999999999999999999MA1099865099335REMMET10701/07/11 14:54:02 METAR KLWM 071954Z 06010KT 10SM SCT022 BKN028 M01/M06 A2949 RMK AO2 SLP988 T10111061 (CZ)
0270744904947232011010720547+42717-071124FM-15+0045KLWM V0200405N00575006715MN0160935N5-00175-00615099865ADDAA101000095AA203000021GA1075+006715999GA2085+008235999GD13991+0067159GD24991+0082359GF108991999999999999999999MA1099865099335MD1640074+9999REMMET11901/07/11 15:54:02 METAR KLWM 072054Z 04011KT 10SM BKN022 OVC027 M02/M06 A2949 RMK AO2 SLP986 60000 T10171061 56007 (CZ)
0205744904947232011010721257+42717-071124FM-16+0045KLWM V0200305N005752200059N0160935N5-00205-00705999999ADDGA1045+008535999GA2045+010365999GD12991+0085359GD22991+0103659GF104991999999999999999999MA1099865099335REMMET09001/07/11 16:25:02 SPECI KLWM 072125Z 03011KT 10SM SCT028 SCT034 M02/M07 A2949 RMK AO2 (CZ)
0195744904947232011010721547+42717-071124FM-15+0045KLWM V0200405N00415010975MN0160935N5-00225-00675099865ADDAA101000095GA1075+010975999GD13991+0109759GF107991999999999999999999MA1099865099335REMMET10001/07/11 16:54:02 METAR KLWM 072154Z 04008KT 10SM BKN036 M02/M07 A2949 RMK AO2 SLP986 T10221067 (CZ)
0195744904947232011010722547+42717-071124FM-15+0045KLWM V0200405N00465012805MN0160935N5-00175-00675099865ADDAA101000095GA1085+012805999GD14991+0128059GF108991999999999999999999MA1099865099335REMMET10001/07/11 17:54:02 METAR KLWM 072254Z 04009KT 10SM OVC042 M02/M07 A2949 RMK AO2 SLP986 T10171067 (CZ)
0236744904947232011010723547+42717-071124FM-15+0045KLWM V0200305N004652200059N0160935N5-00285-00785099845ADDAA101000095AA206000021GF100991999999999999999999KA1999M-00061KA2999N-00281MA1099835099305MD1840024+9999REMMET12101/07/11 18:54:02 METAR KLWM 072354Z 03009KT 10SM CLR M03/M08 A2948 RMK AO2 SLP984 60000 T10281078 11006 21028 58002 (CZ)
0162744904947232011010800367+42717-071124FM-16+0045KLWM V0200405N00415005495MN0160935N5-00305-00805999999ADDGA1075+005495999GD13991+0054959GF107991999999999999999999MA1099865099335REMMET07801/07/11 19:36:01 SPECI KLWM 080036Z 04008KT 10SM BKN018 M03/M08 A2949 RMK AO2
0162744904947232011010800507+42717-071124FM-16+0045KLWM V0200405N004652200059N0160935N5-00305-00805999999ADDGA1045+005495999GD12991+0054959GF104991999999999999999999MA1099835099305REMMET07801/07/11 19:50:01 SPECI KLWM 080050Z 04009KT 10SM SCT018 M03/M08 A2948 RMK AO2
0190744904947232011010800547+42717-071124FM-15+0045KLWM V0200305N004652200059N0160935N5-00335-00835099855ADDAA101000095GA1045+005495999GD12991+0054959GF104991999999999999999999MA1099835099305REMMET09501/07/11 19:54:01 METAR KLWM 080054Z 03009KT 10SM SCT018 M03/M08 A2948 RMK AO2 SLP985 T10331083
0190744904947232011010801547+42717-071124FM-15+0045KLWM V0200305N002652200059N0160935N5-00445-00895099875ADDAA101000095GA1025+006715999GD11991+0067159GF102991999999999999999999MA1099865099335REMMET09501/07/11 20:54:01 METAR KLWM 080154Z 03005KT 10SM FEW022 M04/M09 A2949 RMK AO2 SLP987 T10441089
0286744904947232011010802547+42717-071124FM-15+0045KLWM V0200405N00575011585MN0160935N5-00285-00945099835ADDAA101000095GA1075+011585999GA2075+024385999GA3085+030485999GD13991+0115859GD23991+0243859GD34991+0304859GF108991999999999999999999MA1099835099305MD1840024+9999REMMET11501/07/11 21:54:01 METAR KLWM 080254Z 04011KT 10SM BKN038 BKN080 OVC100 M03/M09 A2948 RMK AO2 SLP983 T10281094 58002
0190744904947232011010803547+42717-071124FM-15+0045KLWM V0200405N00575011895MN0160935N5-00335-01065099845ADDAA101000095GA1085+011895999GD14991+0118959GF108991999999999999999999MA1099835099305REMMET09501/07/11 22:54:01 METAR KLWM 080354Z 04011KT 10SM OVC039 M03/M11 A2948 RMK AO2 SLP984 T10331106
0238744904947232011010804337+42717-071124FM-16+0045KLWM V0200405N00415006405MN0160935N5-00305-01105999999ADDGA1075+006405999GA2075+008235999GA3085+019815999GD13991+0064059GD23991+0082359GD34991+0198159GF108991999999999999999999MA1099835099305REMMET09201/07/11 23:33:01 SPECI KLWM 080433Z 04008KT 10SM BKN021 BKN027 OVC065 M03/M11 A2948 RMK AO2
0238744904947232011010804547+42717-071124FM-15+0045KLWM V0200305N00365005795MN0160935N5-00335-01065099805ADDAA101000095GA1075+005795999GA2085+008535999GD13991+0057959GD24991+0085359GF108991999999999999999999MA1099805099265REMMET11201/07/11 23:54:01 METAR KLWM 080454Z 03007KT 10SM BKN019 OVC028 M03/M11 A2947 RMK AO2 SLP980 T10331106 410061089
0928744904947232011010804596+42717-071124SOD  +0045KLWM V020999999999999999999999999999+99999+99999999999ADDAA124000025AX1086246KA1240M-00055KA2240N-00885MG1099534099804OE11240093904015485OE22240071504022125OE33240036799999995REMSOD74724 HR PRECIPITATION (IN):T     WEATHER(CODE):8  24 HR MAX TEMP (F):31 24 HR MAX TEMP TIME (LST):1313 24 HR MIN TEMP (F):16 24 HR MIN TEMP TIME (LST):0133 AVERAGE STATION PRESSURE:29.390 MINIMUM SEA LEVEL PRESSURE:29.47 TIME OF OCCURRENCE:2359 PEAK WIND SPEED (MPH):21  PEAK WIND DIR (DEG):40  PEAK WIND TIME (LST):1548  FASTEST 2MIN SPEED (MPH):16 FASTEST 2MIN DIR (DEG):40  FASTEST 2MIN TIME (LST):2212 AVERAGE WIND SPEED (MPH):8.2  24 HR AVG TEMP (F):24 HEATING DEGREE DAYS:41  COOLING DEGREE DAYS:0   LATEST DAY MAX TEMP (0700-1900 LST):31  LATEST NIGHT MIN TEMP(1900-0800 LST):16 HOURLY INCREMENTAL PRECIPITATION VALUES (IN):.00 0.00 0.00 0.00 0.00 0.00 0.00 0.00 0.00 0.00 0.00 0.00 0.00 T    0.00 0.00 0.00 0.00 0.00 0.00 0.00 0.00 0.00 0.00EQDR01     87AXW093R02     N7GJS072R03     N7GKS075
0238744904947232011010805417+42717-071124FM-16+0045KLWM V0200305N00415010065MN0160935N5-00305-01105999999ADDGA1045+008535999GA2075+010065999GA3085+027435999GD12991+0085359GD23991+0100659GD34991+0274359GF108991999999999999999999MA1099765099235REMMET09201/08/11 00:41:02 SPECI KLWM 080541Z 03008KT 10SM SCT028 BKN033 OVC090 M03/M11 A2946 RMK AO2
0286744904947232011010805547+42717-071124FM-15+0045KLWM V0200305N00365008535MN0160935N5-00335-01065099805ADDAA101000095GA1075+008535999GA2085+010065999GD13991+0085359GD24991+0100659GF108991999999999999999999KA1999M-00281KA2999N-00441MA1099805099265MD1840034+9999REMMET12001/08/11 00:54:02 METAR KLWM 080554Z 03007KT 10SM BKN028 OVC033 M03/M11 A2947 RMK AO2 SLP980 T10331106 11028 21044 58003
0162744904947232011010806357+42717-071124FM-16+0045KLWM V0200305N00465009145MN0160935N5-00305-01105999999ADDGA1085+009145999GD14991+0091459GF108991999999999999999999MA1099805099265REMMET07801/08/11 01:35:02 SPECI KLWM 080635Z 03009KT 10SM OVC030 M03/M11 A2947 RMK AO2
0228744904947232011010806547+42717-071124FM-15+0045KLWM V0200405N00465009145MN0160935N5-00335-01115099805ADDAA101000095GA1075+009145999GA2085+027435999GD13991+0091459GD24991+0274359GF108991999999999999999999MA1099805099265REMMET10201/08/11 01:54:02 METAR KLWM 080654Z 04009KT 10SM BKN030 OVC090 M03/M11 A2947 RMK AO2 SLP980 T10331111
0228744904947232011010807547+42717-071124FM-15+0045KLWM V0200405N00465028965MN0160935N5-00395-01005099805ADDAA101000095GA1025+022865999GA2085+028965999GD11991+0228659GD24991+0289659GF108991999999999999999999MA1099805099265REMMET10201/08/11 02:54:02 METAR KLWM 080754Z 04009KT 10SM FEW075 OVC095 M04/M10 A2947 RMK AO2 SLP980 T10391100
0210744904947232011010808547+42717-071124FM-15+0045KLWM V0200205N00365027435MN0160935N5-00445-00835099765ADDAA101000095GA1085+027435999GD14991+0274359GF108991999999999999999999MA1099765099235MD1840044+9999REMMET10101/08/11 03:54:02 METAR KLWM 080854Z 02007KT 10SM OVC090 M04/M08 A2946 RMK AO2 SLP976 T10441083 58004
0190744904947232011010809547+42717-071124FM-15+0045KLWM V0200305N00315021345MN0160935N5-00445-00785099765ADDAA101000095GA1085+021345999GD14991+0213459GF108991999999999999999999MA1099765099235REMMET09501/08/11 04:54:02 METAR KLWM 080954Z 03006KT 10SM OVC070 M04/M08 A2946 RMK AO2 SLP976 T10441078
0266744904947232011010810547+42717-071124FM-15+0045KLWM V0200405N00365010975MN0160935N5-00505-00785099825ADDAA101000095GA1045+003055999GA2075+010975999GA3085+019815999GD12991+0030559GD23991+0109759GD34991+0198159GF108991999999999999999999MA1099805099265REMMET10901/08/11 05:54:02 METAR KLWM 081054Z 04007KT 10SM SCT010 BKN036 OVC065 M05/M08 A2947 RMK AO2 SLP982 T10501078
0238744904947232011010811047+42717-071124FM-16+0045KLWM V0200305N00365003055MN0160935N5-00405-00805999999ADDGA1075+003055999GA2075+010975999GA3085+019815999GD13991+0030559GD23991+0109759GD34991+0198159GF108991999999999999999999MA1099835099305REMMET09201/08/11 06:04:02 SPECI KLWM 081104Z 03007KT 10SM BKN010 BKN036 OVC065 M04/M08 A2948 RMK AO2
0200744904947232011010811177+42717-071124FM-16+0045KLWM V0200305N00415010975MN0160935N5-00405-00805999999ADDGA1045+003055999GA2085+010975999GD12991+0030559GD24991+0109759GF108991999999999999999999MA1099835099305REMMET08501/08/11 06:17:02 SPECI KLWM 081117Z 03008KT 10SM SCT010 OVC036 M04/M08 A2948 RMK AO2
0329744904947232011010811547+42717-071124FM-15+0045KLWM V0200305N00415018295MN0160935N5-00445-00785099835ADDAA101000095GA1025+003355999GA2075+018295999GA3085+030485999GD11991+0033559GD23991+0182959GD34991+0304859GF108991999999999999999999KA1999M-00331KA2999N-00501MA1099835099305MD1340074+9999REMMET13201/08/11 06:54:02 METAR KLWM 081154Z 03008KT 10SM FEW011 BKN060 OVC100 M04/M08 A2948 RMK AO2 SLP983 T10441078 11033 21050 53007 (TB)
0195744904947232011010812547+42717-071124FM-15+0045KLWM V0200205N00515016765MN0160935N5-00445-00785099845ADDAA101000095GA1085+016765999GD14991+0167659GF108991999999999999999999MA1099835099305REMMET10001/08/11 07:54:02 METAR KLWM 081254Z 02010KT 10SM OVC055 M04/M08 A2948 RMK AO2 SLP984 T10441078 (TB)
0271744904947232011010813547+42717-071124FM-15+0045KLWM V0200305N00465014945MN0144845N5-00395-00725099855ADDAA101000025AU110030015AW1715GA1075+014945999GA2085+016765999GD13991+0149459GD24991+0167659GF108991999999999999999999MA1099835099305MW1711REMMET12201/08/11 08:54:02 METAR KLWM 081354Z 03009KT 9SM -SN BKN049 OVC055 M04/M07 A2948 RMK AO2 SNB41 SLP985 P0000 T10391072 (TB)
0268744904947232011010814277+42717-071124FM-16+0045KLWM V0200205N00415004885MN0160935N5-00305-00705999999ADDAA101000021GA1075+004885999GA2075+012505999GA3085+014945999GD13991+0048859GD23991+0125059GD34991+0149459GF108991999999999999999999MA1099835099305REMMET11101/08/11 09:27:02 SPECI KLWM 081427Z 02008KT 10SM BKN016 BKN041 OVC049 M03/M07 A2948 RMK AO2 SNE1357 P0000 (TB)
0221744904947232011010814407+42717-071124FM-16+0045KLWM V0200205N00365004275MN0144845N5-00305-00705999999ADDAA101000021AU110030015AW1715GA1085+004275999GD14991+0042759GF108991999999999999999999MA1099835099305MW1711REMMET10301/08/11 09:40:02 SPECI KLWM 081440Z 02007KT 9SM -SN OVC014 M03/M07 A2948 RMK AO2 SNE1357B28 P0000 (TB)
0271744904947232011010814547+42717-071124FM-15+0045KLWM V0200205N00365004275MN0160935N5-00285-00615099855ADDAA101000025AA203000021GA1085+004275999GD14991+0042759GF108991999999999999999999MA1099835099305MD1140024+9999REMMET13201/08/11 09:54:02 METAR KLWM 081454Z 02007KT 10SM OVC014 M03/M06 A2948 RMK AO2 SNE1357B28E46 SLP985 P0000 60000 T10281061 51002 (TB)EQDQ01  00008PRCP03
0210744904947232011010815547+42717-071124FM-15+0045KLWM V0203405N00155003665MN0160935N5-00285-00565099845ADDAA101000025GA1085+003665999GD14991+0036659GF108991999999999999999999MA1099835099305REMMET11501/08/11 10:54:02 METAR KLWM 081554Z 34003KT 10SM OVC012 M03/M06 A2948 RMK AO2 SNB20E43 SLP984 P0000 T10281056 (CZ)
0195744904947232011010816547+42717-071124FM-15+0045KLWM V0203505N00315003665MN0160935N5-00175-00565099775ADDAA101000095GA1085+003665999GD14991+0036659GF108991999999999999999999MA1099765099235REMMET10001/08/11 11:54:02 METAR KLWM 081654Z 35006KT 10SM OVC012 M02/M06 A2946 RMK AO2 SLP977 T10171056 (CZ)
0270744904947232011010817547+42717-071124FM-15+0045KLWM V0200105N00315004275MN0160935N5-00065-00505099745ADDAA101000095AA206000021GA1085+004275999GD14991+0042759GF108991999999999999999999KA1999M-00061KA2999N-00441MA1099735099205MD1840124+9999REMMET12401/08/11 12:54:02 METAR KLWM 081754Z 01006KT 10SM OVC014 M01/M05 A2945 RMK AO2 SLP974 60000 T10061050 11006 21044 58012 (CZ)
0167744904947232011010818177+42717-071124FM-16+0045KLWM V0200205N00315004885MN0160935N5-00105-00505999999ADDGA1085+004885999GD14991+0048859GF108991999999999999999999MA1099735099205REMMET08301/08/11 13:17:02 SPECI KLWM 081817Z 02006KT 10SM OVC016 M01/M05 A2945 RMK AO2 (CZ)
0232744904947232011010818547+42717-071124FM-15+0045KLWM V0200505N00415011585MN0160935N5+00005-00505099695ADDAA101000095GA1045+004885999GA2085+011585999GD12991+0048859GD24991+0115859GF108991999999999999999999MA1099705099165REMMET10601/08/11 13:54:02 METAR KLWM 081854Z 05008KT 10SM SCT016 OVC038 00/M05 A2944 RMK AO2 SLP969 T00001050 (CZ)
0270744904947232011010819547+42717-071124FM-15+0045KLWM V0200205N00415008535MN0160935N5+00005-00445099675ADDAA101000095GA1045+005495999GA2075+008535999GA3085+010365999GD12991+0054959GD23991+0085359GD34991+0103659GF108991999999999999999999MA1099665099135REMMET11301/08/11 14:54:02 METAR KLWM 081954Z 02008KT 10SM SCT018 BKN028 OVC034 00/M04 A2943 RMK AO2 SLP967 T00001044 (CZ)
0365744904947232011010820547+42717-071124FM-15+0045KLWM V0200205N00315010365MN0048285N5-00065-00395099695ADDAA101000025AA203000021AU110030015AW1715GA1045+005495999GA2075+010365999GA3085+014025999GD12991+0054959GD23991+0103659GD34991+0140259GF108991999999999999999999MA1099705099165MD1540054+9999MW1711REMMET14101/08/11 15:54:02 METAR KLWM 082054Z 02006KT 3SM -SN SCT018 BKN034 OVC046 M01/M04 A2944 RMK AO2 SNB25 SLP969 P0000 60000 T10061039 55005 (CZ)EQDQ01  00008PRCP03
0290744904947232011010821057+42717-071124FM-16+0045KLWM V0200205N00365011585MN0028165N5-00105-00405999999ADDAA101000021AU110030015AW1715GA1025+003665999GA2075+011585999GA3085+014635999GD11991+0036659GD23991+0115859GD34991+0146359GF108991999999999999999999MA1099665099135MW1711REMMET11001/08/11 16:05:02 SPECI KLWM 082105Z 02007KT 1 3/4SM -SN FEW012 BKN038 OVC048 M01/M04 A2943 RMK AO2 P0000 (CZ)
0312744904947232011010821197+42717-071124FM-16+0045KLWM V0200105N00365003055MN0016095N5-00105-00305999999ADDAA101000021AU110030015AU200001015AW1105AW2715GA1025+002135999GA2075+003055999GA3085+014945999GD11991+0021359GD23991+0030559GD34991+0149459GF108991999999999999999999MA1099635099105MW1101MW2711REMMET10901/08/11 16:19:02 SPECI KLWM 082119Z 01007KT 1SM -SN BR FEW007 BKN010 OVC049 M01/M03 A2942 RMK AO2 P0000 (CM)
0312744904947232011010821417+42717-071124FM-16+0045KLWM V0203605N00365002445MN0032195N5-00105-00305999999ADDAA101000021AU110030015AU200001015AW1105AW2715GA1075+002445999GA2075+003665999GA3085+014635999GD13991+0024459GD23991+0036659GD34991+0146359GF108991999999999999999999MA1099595099065MW1101MW2711REMMET10901/08/11 16:41:02 SPECI KLWM 082141Z 36007KT 2SM -SN BR BKN008 BKN012 OVC048 M01/M03 A2941 RMK AO2 P0000 (RR)
0286744904947232011010821507+42717-071124FM-16+0045KLWM V0203505N00215003965MN0048285N5-00105-00405999999ADDAA101000021AU110030015AW1715GA1045+002445999GA2075+003965999GA3085+014635999GD12991+0024459GD23991+0039659GD34991+0146359GF108991999999999999999999MA1099635099105MW1711REMMET10601/08/11 16:50:02 SPECI KLWM 082150Z 35004KT 3SM -SN SCT008 BKN013 OVC048 M01/M04 A2942 RMK AO2 P0000 (RR)
0248744904947232011010821526+42717-071124FM-16+0045KLWM V0203405N00155007015MN0080475N5-00105-00405999999ADDAU110030015AW1715GA1045+003055999GA2075+007015999GA3085+015245999GD12991+0030559GD23991+0070159GD34991+0152459MA1099635099105REMMET11101/08/11 16:52:02 SPECI KLWM 082152Z 34003KT 5SM -SN SCT010 BKN023 OVC050 M01/M04 A2942 RMK AO2 P0000 FIBI (RR)
0329744904947232011010821547+42717-071124FM-15+0045KLWM V0203405N00155007015MN0080475N5-00115-00335099635ADDAA101000025AU110030015AU200001015AW1105AW2715GA1045+003055999GA2075+007015999GA3085+015245999GD12991+0030559GD23991+0070159GD34991+0152459GF108991999999999999999999MA1099635099105MW1101MW2711REMMET12601/08/11 16:54:02 METAR KLWM 082154Z 34003KT 5SM -SN BR SCT010 BKN023 OVC050 M01/M03 A2942 RMK AO2 SLP963 P0000 T10111033 (RR)
0312744904947232011010822067+42717-071124FM-16+0045KLWM V0203505N00155011585MN0080475N5-00105-00305999999ADDAA101000021AU110030015AU200001015AW1105AW2715GA1025+003055999GA2075+011585999GA3085+014635999GD11991+0030559GD23991+0115859GD34991+0146359GF108991999999999999999999MA1099635099105MW1101MW2711REMMET10901/08/11 17:06:02 SPECI KLWM 082206Z 35003KT 5SM -SN BR FEW010 BKN038 OVC048 M01/M03 A2942 RMK AO2 P0000 (RR)
0266744904947232011010822227+42717-071124FM-16+0045KLWM V0203505N00155006715MN0160935N5-00105-00405999999ADDAA101000021GA1075+006715999GA2075+010975999GA3085+014335999GD13991+0067159GD23991+0109759GD34991+0143359GF108991999999999999999999MA1099665099135REMMET10901/08/11 17:22:02 SPECI KLWM 082222Z 35003KT 10SM BKN022 BKN036 OVC047 M01/M04 A2943 RMK AO2 SNE11 P0000 (RR)
0283744904947232011010822547+42717-071124FM-15+0045KLWM V0203505N00265007625MN0160935N5-00065-00505099645ADDAA101000025GA1025+005495999GA2075+007625999GA3085+015245999GD11991+0054959GD23991+0076259GD34991+0152459GF108991999999999999999999MA1099635099105REMMET12601/08/11 17:54:02 METAR KLWM 082254Z 35005KT 10SM FEW018 BKN025 OVC050 M01/M05 A2942 RMK AO2 SNE11 SLP964 P0000 T10061050 (RR)
0319744904947232011010823547+42717-071124FM-15+0045KLWM V0200105N00515005495MN0160935N5-00065-00445099585ADDAA101000095AA206000021GA1075+005495999GA2085+008845999GD13991+0054959GD24991+0088459GF108991999999999999999999KA1999M+00001KA2999N-00111MA1099565099035MD1840114+9999OC100775REMMET13401/08/11 18:54:02 METAR KLWM 082354Z 01010G15KT 10SM BKN018 OVC029 M01/M04 A2940 RMK AO2 SLP958 60000 T10061044 10000 21011 58011 (RR)
0239744904947232011010900547+42717-071124FM-15+0045KLWM V0203605N00465005495MN0160935N5-00065-00445099575ADDAA101000095GA1075+005495999GA2085+014945999GD13991+0054959GD24991+0149459GF108991999999999999999999MA1099565099035OC100885REMMET10501/08/11 19:54:01 METAR KLWM 090054Z 36009G17KT 10SM BKN018 OVC049 M01/M04 A2940 RMK AO2 SLP957 T10061044
0211744904947232011010901067+42717-071124FM-16+0045KLWM V0203605N00515014945MN0160935N5-00105-00405999999ADDGA1045+005495999GA2085+014945999GD12991+0054959GD24991+0149459GF108991999999999999999999MA1099565099035OC100825REMMET08801/08/11 20:06:01 SPECI KLWM 090106Z 36010G16KT 10SM SCT018 OVC049 M01/M04 A2940 RMK AO2
0190744904947232011010901547+42717-071124FM-15+0045KLWM V0203605N00465018295MN0160935N5-00065-00505099545ADDAA101000095GA1085+018295999GD14991+0182959GF108991999999999999999999MA1099535098995REMMET09501/08/11 20:54:01 METAR KLWM 090154Z 36009KT 10SM OVC060 M01/M05 A2939 RMK AO2 SLP954 T10061050
0210744904947232011010902547+42717-071124FM-15+0045KLWM V0203605N00415018295MN0160935N5-00065-00505099545ADDAA101000095GA1085+018295999GD14991+0182959GF108991999999999999999999MA1099535098995MD1640034+9999REMMET10101/08/11 21:54:01 METAR KLWM 090254Z 36008KT 10SM OVC060 M01/M05 A2939 RMK AO2 SLP954 T10061050 56003
0156744904947232011010903547+42717-071124FM-15+0045KLWM V0203605N004152200059N0160935N5-00115-00565099455ADDAA101000095GF100991999999999999999999MA1099465098935REMMET09201/08/11 22:54:01 METAR KLWM 090354Z 36008KT 10SM CLR M01/M06 A2937 RMK AO2 SLP945 T10111056
0162744904947232011010904417+42717-071124FM-16+0045KLWM V0203305N00415005795MN0160935N5-00105-00605999999ADDGA1075+005795999GD13991+0057959GF107991999999999999999999MA1099465098935REMMET07801/08/11 23:41:01 SPECI KLWM 090441Z 33008KT 10SM BKN019 M01/M06 A2937 RMK AO2
0200744904947232011010904547+42717-071124FM-15+0045KLWM V0203405N00265005185MN0160935N5-00115-00505099475ADDAA101000095GA1085+005185999GD14991+0051859GF108991999999999999999999MA1099465098935REMMET10501/08/11 23:54:01 METAR KLWM 090454Z 34005KT 10SM OVC017 M01/M05 A2937 RMK AO2 SLP947 T10111050 400001050
0912744904947232011010904596+42717-071124SOD  +0045KLWM V020999999999999999999999999999+99999+99999999999ADDAA124000025AX1015245KA1240M+00005KA2240N-00495MG1099174099464OE11240089434023035OE22240067103003145OE33240037199999995REMSOD74724 HR PRECIPITATION (IN):T     WEATHER(CODE):1  24 HR MAX TEMP (F):32 24 HR MAX TEMP TIME (LST):1527 24 HR MIN TEMP (F):23 24 HR MIN TEMP TIME (LST):0555 AVERAGE STATION PRESSURE:29.285 MINIMUM SEA LEVEL PRESSURE:29.37 TIME OF OCCURRENCE:2359 PEAK WIND SPEED (MPH):20  PEAK WIND DIR (DEG):340 PEAK WIND TIME (LST):2303  FASTEST 2MIN SPEED (MPH):15 FASTEST 2MIN DIR (DEG):30  FASTEST 2MIN TIME (LST):0314 AVERAGE WIND SPEED (MPH):8.3  24 HR AVG TEMP (F):28 HEATING DEGREE DAYS:37  COOLING DEGREE DAYS:0   LATEST DAY MAX TEMP (0700-1900 LST):32  LATEST NIGHT MIN TEMP(1900-0800 LST):23 HOURLY INCREMENTAL PRECIPITATION VALUES (IN):.00 0.00 0.00 0.00 0.00 0.00 0.00 0.00 T    T    T    0.00 0.00 0.00 0.00 T    T    T    0.00 0.00 0.00 0.00 0.00 0.00EQDR01     N7GJS072R02     N7GKS075
0248744904947232011010905547+42717-071124FM-15+0045KLWM V0203105N00415005795MN0160935N5-00115-00505099465ADDAA101000095GA1085+005795999GD14991+0057959GF108991999999999999999999KA1999M-00061KA2999N-00111MA1099465098935MD1640084+9999REMMET11301/09/11 00:54:02 METAR KLWM 090554Z 31008KT 10SM OVC019 M01/M05 A2937 RMK AO2 SLP946 T10111050 11006 21011 56008
0201744904947232011010906547+42717-071124FM-15+0045KLWM V0203105N00415007325MN0160935N5-00115-00615099495ADDAA101000095GA1085+007325999GD14991+0073259GF108991999999999999999999MA1099495098965OC100775REMMET09801/09/11 01:54:02 METAR KLWM 090654Z 31008G15KT 10SM OVC024 M01/M06 A2938 RMK AO2 SLP949 T10111061
0281744904947232011010907427+42717-071124FM-16+0045KLWM V0203305N00465012805MN0144845N5-00105-00605999999ADDAA101000021AU110030015AW1715GA1045+007325999GA2045+010065999GA3085+012805999GD12991+0073259GD22991+0100659GD34991+0128059GF108991999999999999999999MA1099565099035REMMET10701/09/11 02:42:02 SPECI KLWM 090742Z 33009KT 9SM -SN SCT024 SCT033 OVC042 M01/M06 A2940 RMK AO2 SNB42 P0000
0285744904947232011010907527+42717-071124FM-16+0045KLWM V0203305N00415006405MN0040235N5-00205-00605999999ADDAA101000021AU110030015AW1715GA1045+004275999GA2075+006405999GA3085+012805999GD12991+0042759GD23991+0064059GD34991+0128059GF108991999999999999999999MA1099565099035REMMET11101/09/11 02:52:02 SPECI KLWM 090752Z 33008KT 2 1/2SM -SN SCT014 BKN021 OVC042 M02/M06 A2940 RMK AO2 SNB42 P0000
0309744904947232011010907547+42717-071124FM-15+0045KLWM V0203305N00575004275MN0032195N5-00175-00565099585ADDAA101000025AU110030015AW1715GA1075+004275999GA2075+006405999GA3085+012805999GD13991+0042759GD23991+0064059GD34991+0128059GF108991999999999999999999MA1099565099035OC100775REMMET12701/09/11 02:54:02 METAR KLWM 090754Z 33011G15KT 2SM -SN BKN014 BKN021 OVC042 M02/M06 A2940 RMK AO2 SNB42 SLP958 P0000 T10171056
0252744904947232011010908027+42717-071124FM-16+0045KLWM V0203205N00465002445MN0020125N5-00205-00505999999ADDAA101000021AU110030015AW1715GA1075+002445999GA2085+012805999GD13991+0024459GD24991+0128059GF108991999999999999999999MA1099595099065OC100775REMMET10101/09/11 03:02:02 SPECI KLWM 090802Z 32009G15KT 1 1/4SM -SN BKN008 OVC042 M02/M05 A2941 RMK AO2 P0000
0237744904947232011010908167+42717-071124FM-16+0045KLWM V0203105V00365003055MN0032195N5-00205-00505999999ADDAA101000021AU110030015AW1715GA1075+003055999GA2085+007625999GD13991+0030559GD24991+0076259GF108991999999999999999999MA1099595099065REMMET09401/09/11 03:16:02 SPECI KLWM 090816Z 31007KT 2SM -SN BKN010 OVC025 M02/M05 A2941 RMK AO2 P0000
0286744904947232011010908237+42717-071124FM-16+0045KLWM V0203205N00465002445MN0048285N5-00205-00505999999ADDAA101000021AU110030015AW1715GA1075+002445999GA2075+007625999GA3085+011895999GD13991+0024459GD23991+0076259GD34991+0118959GF108991999999999999999999MA1099635099105OC100775REMMET10401/09/11 03:23:02 SPECI KLWM 090823Z 32009G15KT 3SM -SN BKN008 BKN025 OVC039 M02/M05 A2942 RMK AO2 P0000
0286744904947232011010908317+42717-071124FM-16+0045KLWM V0203305N00365007625MN0096565N5-00205-00505999999ADDAA101000021AU110030015AW1715GA1045+005495999GA2075+007625999GA3085+011895999GD12991+0054959GD23991+0076259GD34991+0118959GF108991999999999999999999MA1099635099105OC100775REMMET10401/09/11 03:31:02 SPECI KLWM 090831Z 33007G15KT 6SM -SN SCT018 BKN025 OVC039 M02/M05 A2942 RMK AO2 P0000
0307744904947232011010908547+42717-071124FM-15+0045KLWM V0203105N00465007925MN0160935N5-00175-00565099665ADDAA101000025AA203000021GA1075+007925999GA2085+013415999GD13991+0079259GD24991+0134159GF108991999999999999999999MA1099665099135MD1140184+9999OC100775REMMET12901/09/11 03:54:02 METAR KLWM 090854Z 31009G15KT 10SM BKN026 OVC044 M02/M06 A2943 RMK AO2 SNE40 SLP966 P0000 60000 T10171056 51018EQDQ01  00008PRCP03
0211744904947232011010909337+42717-071124FM-16+0045KLWM V0203105N00415011585MN0160935N5-00205-00705999999ADDGA1045+008535999GA2085+011585999GD12991+0085359GD24991+0115859GF108991999999999999999999MA1099705099165OC100725REMMET08801/09/11 04:33:02 SPECI KLWM 090933Z 31008G14KT 10SM SCT028 OVC038 M02/M07 A2944 RMK AO2
0239744904947232011010909547+42717-071124FM-15+0045KLWM V0203105N00465011585MN0160935N5-00115-00675099745ADDAA101000095GA1045+009145999GA2085+011585999GD12991+0091459GD24991+0115859GF108991999999999999999999MA1099735099205OC100985REMMET10501/09/11 04:54:02 METAR KLWM 090954Z 31009G19KT 10SM SCT030 OVC038 M01/M07 A2945 RMK AO2 SLP974 T10111067
0201744904947232011010910547+42717-071124FM-15+0045KLWM V0203105N00575012195MN0160935N5-00175-00725099855ADDAA101000095GA1085+012195999GD14991+0121959GF108991999999999999999999MA1099835099305OC101245REMMET09801/09/11 05:54:02 METAR KLWM 091054Z 31011G24KT 10SM OVC040 M02/M07 A2948 RMK AO2 SLP985 T10171072
0276744904947232011010911547+42717-071124FM-15+0045KLWM V0203105N005752200059N0160935N5-00225-00785099955ADDAA101000095AA206000021GA1025+012195999GD11991+0121959GF102991999999999999999999KA1999M-00111KA2999N-00221MA1099935099405MD1340294+9999OC101185REMMET12201/09/11 06:54:02 METAR KLWM 091154Z 31011G23KT 10SM FEW040 M02/M08 A2951 RMK AO2 SLP995 60000 T10221078 11011 21022 53029
0172744904947232011010912547+42717-071124FM-15+0045KLWM V0203105N006252200059N0160935N5-00175-00785100055ADDAA101000095GF100991999999999999999999MA1100035099505OC100935REMMET10001/09/11 07:54:02 METAR KLWM 091254Z 31012G18KT 10SM CLR M02/M08 A2954 RMK AO2 SLP005 T10171078 (CZ)
0172744904947232011010913547+42717-071124FM-15+0045KLWM V0203105N006252200059N0160935N5-00115-00785100185ADDAA101000095GF100991999999999999999999MA1100175099635OC100985REMMET10001/09/11 08:54:02 METAR KLWM 091354Z 31012G19KT 10SM CLR M01/M08 A2958 RMK AO2 SLP018 T10111078 (CZ)
0210744904947232011010914547+42717-071124FM-15+0045KLWM V0203005N006252200059N0160935N5-00065-00785100275ADDAA101000095GF100991999999999999999999MA1100275099745MD1140314+9999OC101035REMMET12401/09/11 09:54:02 METAR KLWM 091454Z 30012G20KT 10SM CLR M01/M08 A2961 RMK AO2 PK WND 30026/1440 SLP027 T10061078 51031 (CZ)
0171744904947232011010915547+42717-071124FM-15+0045KLWM V0202905N007752200059N0160935N5+00065-00785100265ADDAA101000095GF100991999999999999999999MA1100245099705OC101135REMMET09901/09/11 10:54:02 METAR KLWM 091554Z 29015G22KT 10SM CLR 01/M08 A2960 RMK AO2 SLP026 T00061078 (CZ)
0189744904947232011010916547+42717-071124FM-15+0045KLWM V0203105N006252200059N0160935N5+00115-00835100255ADDAA101000095GF100991999999999999999999MA1100245099705OC101085REMMET11701/09/11 11:54:02 METAR KLWM 091654Z 31012G21KT 10SM CLR 01/M08 A2960 RMK AO2 PK WND 31026/1628 SLP025 T00111083 (CZ)
0229744904947232011010917547+42717-071124FM-15+0045KLWM V0203005N008252200059N0160935N5+00115-00835100295ADDAA101000095GF100991999999999999999999KA1999M+00111KA2999N-00221MA1100275099745MD1340024+9999OC101245REMMET11701/09/11 12:54:02 METAR KLWM 091754Z 30016G24KT 10SM CLR 01/M08 A2961 RMK AO2 SLP029 T00111083 10011 21022 53002 (CZ)
0223744904947232011010918547+42717-071124FM-15+0045KLWM V0202905N007752200059N0160935N5+00175-00835100355ADDAA101000095GA1025+013115999GD11991+0131159GF102991999999999999999999MA1100345099805OC101035REMMET12001/09/11 13:54:02 METAR KLWM 091854Z 29015G20KT 10SM FEW043 02/M08 A2963 RMK AO2 PK WND 30027/1835 SLP035 T00171083 (RR)
0223744904947232011010919547+42717-071124FM-15+0045KLWM V0202905N006252200059N0160935N5+00175-00895100485ADDAA101000095GA1025+013415999GD11991+0134159GF102991999999999999999999MA1100475099945OC101185REMMET12001/09/11 14:54:02 METAR KLWM 091954Z 29012G23KT 10SM FEW044 02/M09 A2967 RMK AO2 PK WND 28026/1924 SLP048 T00171089 (RR)
0191744904947232011010920547+42717-071124FM-15+0045KLWM V0202805N006752200059N0160935N5+00115-00895100605ADDAA101000095GF100991999999999999999999MA1100585100045MD1340314+9999OC100935REMMET10501/09/11 15:54:02 METAR KLWM 092054Z 28013G18KT 10SM CLR 01/M09 A2970 RMK AO2 SLP060 T00111089 53031 (RR)
0171744904947232011010921547+42717-071124FM-15+0045KLWM V0203005N005152200059N0160935N5+00005-00945100705ADDAA101000095GF100991999999999999999999MA1100685100145OC100935REMMET09901/09/11 16:54:02 METAR KLWM 092154Z 30010G18KT 10SM CLR 00/M09 A2973 RMK AO2 SLP070 T00001094 (MP)
0172744904947232011010922547+42717-071124FM-15+0045KLWM V0202805N005752200059N0160935N5-00065-00945100835ADDAA101000095GF100991999999999999999999MA1100815100285OC100985REMMET10001/09/11 17:54:02 METAR KLWM 092254Z 28011G19KT 10SM CLR M01/M09 A2977 RMK AO2 SLP083 T10061094 (MP)
0219744904947232011010923547+42717-071124FM-15+0045KLWM V0202605N004652200059N0160935N5-00115-01005100955ADDAA101000095GF100991999999999999999999KA1999M+00171KA2999N-00111MA1100955100415MD1340354+9999REMMET11501/09/11 18:54:02 METAR KLWM 092354Z 26009KT 10SM CLR M01/M10 A2981 RMK AO2 SLP095 T10111100 10017 21011 53035 (MP)
0156744904947232011011000547+42717-071124FM-15+0045KLWM V0202605N006752200059N0160935N5-00225-01005101065ADDAA101000095GF100991999999999999999999MA1101055100515REMMET09201/09/11 19:54:01 METAR KLWM 100054Z 26013KT 10SM CLR M02/M10 A2984 RMK AO2 SLP106 T10221100
0156744904947232011011001547+42717-071124FM-15+0045KLWM V0202605N004152200059N0160935N5-00285-01065101115ADDAA101000095GF100991999999999999999999MA1101085100545REMMET09201/09/11 20:54:01 METAR KLWM 100154Z 26008KT 10SM CLR M03/M11 A2985 RMK AO2 SLP111 T10281106
