0225744904947232010010100107+42717-071124FM-16+0045KLWM V0209999C000052200059N0096565N5-00405-00505999999ADDAU100001015AW1105GA1045+002445999GA2045+003355999GD12991+0024459GD22991+0033559GF104991999999999999999999MA1102005101465MW1101REMMET08712/31/09 19:10:01 SPECI KLWM 010010Z 00000KT 6SM BR SCT008 SCT011 M04/M05 A3012 RMK AO2
0157744904947232010010100287+42717-071124FM-16+0045KLWM V0209999C000052200059N0024145N5-00605-00705999999ADDAU100001015AW1105GF100991999999999999999999MA1102035101495MW1101REMMET08112/31/09 19:28:01 SPECI KLWM 010028Z 00000KT 1 1/2SM BR CLR M06/M07 A3013 RMK AO2
0157744904947232010010100317+42717-071124FM-16+0045KLWM V0209999C000052200059N0008055N5-00605-00705999999ADDAU108002015AW1355GF100991999999999999999999MA1102035101495MW1481REMMET08112/31/09 19:31:01 SPECI KLWM 010031Z 00000KT 1/2SM FZFG CLR M06/M07 A3013 RMK AO2
0190744904947232010010100387+42717-071124FM-16+0045KLWM V0203605N00155002445WN0004025N5-00805-00905999999ADDAU108002015AW1355GA1095+002445999GD15991+0024459GF109991999999000251999999MA1102005101465MW1491REMMET08312/31/09 19:38:01 SPECI KLWM 010038Z 36003KT 1/4SM FZFG VV008 M08/M09 A3012 RMK AO2
0187744904947232010010100467+42717-071124FM-16+0045KLWM V0209999C00005002445MN0016095N5-00605-00705999999ADDAU100001015AW1105GA1075+002445999GD13991+0024459GF107991999999999999999999MA1102005101465MW1101REMMET08012/31/09 19:46:01 SPECI KLWM 010046Z 00000KT 1SM BR BKN008 M06/M07 A3012 RMK AO2
0187744904947232010010100497+42717-071124FM-16+0045KLWM V0209999C00005002445MN0048285N5-00605-00605999999ADDAU100001015AW1105GA1075+002445999GD13991+0024459GF107991999999999999999999MA1102005101465MW1101REMMET08012/31/09 19:49:01 SPECI KLWM 010049Z 00000KT 3SM BR BKN008 M06/M06 A3012 RMK AO2
0215744904947232010010100547+42717-071124FM-15+0045KLWM V0209999C00005002445MN0064375N5-00505-00565102015ADDAA101000095AU100001015AW1105GA1075+002445999GD13991+0024459GF107991999999999999999999MA1102005101465MW1101REMMET09712/31/09 19:54:01 METAR KLWM 010054Z 00000KT 4SM BR BKN008 M05/M06 A3012 RMK AO2 SLP201 T10501056
0215744904947232010010101547+42717-071124FM-15+0045KLWM V0209999C00005001835MN0080475N5-00395-00565101945ADDAA101000095AU100001015AW1105GA1085+001835999GD14991+0018359GF108991999999999999999999MA1101935101395MW1101REMMET09712/31/09 20:54:01 METAR KLWM 010154Z 00000KT 5SM BR OVC006 M04/M06 A3010 RMK AO2 SLP194 T10391056
0187744904947232010010102337+42717-071124FM-16+0045KLWM V0209999C00005001225MN0096565N5-00405-00505999999ADDAU100001015AW1105GA1085+001225999GD14991+0012259GF108991999999999999999999MA1101905101355MW1101REMMET08012/31/09 21:33:01 SPECI KLWM 010233Z 00000KT 6SM BR OVC004 M04/M05 A3009 RMK AO2
0199744904947232010010102507+42717-071124FM-16+0045KLWM V0209999C00005001835MN0096565N5-00405-00505999999ADDAU100001015AW1105GA1085+001835999GD14991+0018359GF108991999999999999999999MA1101865101325MW1101REMMET09212/31/09 21:50:01 SPECI KLWM 010250Z 00000KT 6SM BR OVC006 M04/M05 A3008 RMK AO2 CIG 004V009
0247744904947232010010102547+42717-071124FM-15+0045KLWM V0209999C00005001835MN0096565N5-00335-00505101875ADDAA101000095AU100001015AW1105GA1085+001835999GD14991+0018359GF108991999999999999999999MA1101865101325MD1540134+9999MW1101REMMET11512/31/09 21:54:01 METAR KLWM 010254Z 00000KT 6SM BR OVC006 M03/M05 A3008 RMK AO2 CIG 004V009 SLP187 T10331050 55013
0253744904947232010010103547+42717-071124FM-15+0045KLWM V0203505N00215001835MN0096565N5-00395-00505101795ADDAA101000095AU100001015AW1105GA1075+001835999GA2085+019815999GD13991+0018359GD24991+0198159GF108991999999999999999999MA1101795101255MW1101REMMET10412/31/09 22:54:02 METAR KLWM 010354Z 35004KT 6SM BR BKN006 OVC065 M04/M05 A3006 RMK AO2 SLP179 T10391050
0225744904947232010010104547+42717-071124FM-15+0045KLWM V0203105N00155001835MN0096565N5-00395-00505101725ADDAA101000095AU100001015AW1105GA1085+001835999GD14991+0018359GF108991999999999999999999MA1101735101195MW1101REMMET10712/31/09 23:54:01 METAR KLWM 010454Z 31003KT 6SM BR OVC006 M04/M05 A3004 RMK AO2 SLP172 T10391050 410061078
0923744904947232010010104596+42717-071124SOD  +0045KLWM V020999999999999999999999999999+99999+99999999999ADDAA124001095AX1016246AX2026246KA1240M-00055KA2240N-00775MG1999999101734OE11240089423011385OE22240067123011385OE33240007699999995REMSOD71724 HR PRECIPITATION (IN):0.04  WEATHER(CODE):1,2  24 HR MAX TEMP (F):31 24 HR MAX TEMP TIME (LST):1135 24 HR MIN TEMP (F):18 24 HR MIN TEMP TIME (LST):1939 MINIMUM SEA LEVEL PRESSURE:30.04 TIME OF OCCURRENCE:2359 PEAK WIND SPEED (MPH):20  PEAK WIND DIR (DEG):230 PEAK WIND TIME (LST):1138  FASTEST 2MIN SPEED (MPH):15 FASTEST 2MIN DIR (DEG):230 FASTEST 2MIN TIME (LST):1138 AVERAGE WIND SPEED (MPH):1.7  24 HR AVG TEMP (F):25 HEATING DEGREE DAYS:40  COOLING DEGREE DAYS:0   LATEST DAY MAX TEMP (0700-1900 LST):31  LATEST NIGHT MIN TEMP(1900-0800 LST):22 HOURLY INCREMENTAL PRECIPITATION VALUES (IN):    M    M    M    M    M    M    M    M    0.00 0.00 T    0.02 0.02 T    T    T    0.00 0.00 0.00 0.00 0.00 0.00 0.00EQDR01   1,27AXW090R02   1,27AXW090R03     N7GJS072R04     N7GKS075
1369744904947232010010104596+42717-071124SOM  +0045KLWM V020999999999999999999999999999+99999+99999999999ADDAB10001096AD10001093131999999996AE1006006006005AH1005000393113425AH2010000393113425AH3015000393113425AH4020000393113425AH5030000593113425AH6045000593113425AI1060000893113146AI2080000893113425AI3100001093113425AI4120001093113426AI5150001093113425AI6180001093113426KB1744N-04835KB2744M+03225KB3744A-00785KC1N9-01381899995KC2M9+02050399995KD1744H10676KD2744C00005KE1125005265005MH1100954101524MK1103322601435098920918025REMSOM793PCP MTOT:0.04 PCP GT 24HRS:0.04 DATE(S):31 DAYS W/PCP >=.01:0  DAYS W/PCP >=.10:0  DAYS W/ PCP >=.50:0 DAYS W/PCP >=1.00:0 MSDP AMTS W/DATE-TIME TAGS:MIN:5 0.01  31/1342 MIN:10 0.01  31/1342 MIN:15 0.01  31/1342 MIN:20 0.01  31/1342 MIN:30 0.02  31/1342 MIN:45 0.02  31/1342 MIN:60 0.03  31/1314 MIN:80 0.03  31/1342 MIN:100 0.04  31/1342 MIN:120 0.04  31/1342 MIN:150 0.04  31/1342 MIN:180 0.04  31/1342 AVG DLY MIN:23.3  AVG DLY MAX:37.8  AVG MLY TMP:30.6  MIN TMP:7  DATE(S):18 MAX TMP:69  DATE(S):03 DAYS MAX <=32:1 DAYS MAX >=90:0  DAYS MIN <=32:26 DAYS MIN  <=0:0  AVG STP:29.810 LWST SLP:29.21 DATE/TIME:091802 HGST SLP:30.51 DATE/TIME:260143 HDD MTH TOT:1067 DEP NORM:-2553 SEASON(JUL 1-JUN 30):2313 DEP NORM:+24457 CDD MTH TOT:0 DEP NORM:-2553 SEASON(JAN 1-DEC 31):485 DEP NORM:-20763EQDR01  0.047ABP070R02  0.047ADP081R03     07AE1100R04     07AE2103R05     07AE3106R06  0.037A07077R07  0.047A10078R08  0.047A12079R09  10677KDH045
0204744904947232010010105207+42717-071124FM-16+0045KLWM V0209999C00005001225MN0096565N5-00405-00505999999ADDAU100001015AW1105GA1085+001225999GD14991+0012259GF108991999999999999999999MA1101695101155MW1101REMMET09701/01/10 00:20:02 SPECI KLWM 010520Z 00000KT 6SM BR OVC004 M04/M05 A3003 RMK AO2 CIG 004V007 (TB)
0278744904947232010010105547+42717-071124FM-15+0045KLWM V0203605N00155001225MN0096565N5-00395-00505101635ADDAA101000095AU100001015AW1105GA1085+001225999GD14991+0012259GF108991999999999999999999KA1999M-00331KA2999N-00781MA1101635101085MD1840254+9999MW1101REMMET12001/01/10 00:54:02 METAR KLWM 010554Z 36003KT 6SM BR OVC004 M04/M05 A3001 RMK AO2 SLP163 T10391050 11033 21078 58025 (TB)
0172744904947232010010106526+42717-071124FM-16+0045KLWM V0203105N00215001835MN0096565N5-00305-00505999999ADDAU100001015AW1105GA1085+001835999GD14991+0018359MA1101595101055REMMET09701/01/10 01:52:02 SPECI KLWM 010652Z 31004KT 6SM BR OVC006 M03/M05 A3000 RMK AO2 CIG 004V008 FIBI
0221744904947232010010106547+42717-071124FM-15+0045KLWM V0203005N00215001835MN0096565N5-00335-00505101615ADDAA101000095AU100001015AW1105GA1085+001835999GD14991+0018359GF108991999999999999999999MA1101595101055REMMET10901/01/10 01:54:02 METAR KLWM 010654Z 30004KT 6SM BR OVC006 M03/M05 A3000 RMK AO2 CIG 004V008 SLP161 T10331050
0221744904947232010010107547+42717-071124FM-15+0045KLWM V0203005N00155001835MN0096565N5-00335-00505101575ADDAA101000025AU100001015AW1105GA1085+001835999GD14991+0018359GF108991999999999999999999MA1101565101025REMMET10901/01/10 02:54:02 METAR KLWM 010754Z 30003KT 6SM BR OVC006 M03/M05 A2999 RMK AO2 CIG 005V008 SLP157 T10331050
0318744904947232010010108547+42717-071124FM-15+0045KLWM V0202705N00155001835MN0064375N5-00335-00505101515ADDAA101000025AA203000021AU110030015AU200001015AW1105AW2715GA1085+001835999GD14991+0018359GF108991999999999999999999MA1101495100955MD1840124+9999REMMET14501/01/10 03:54:02 METAR KLWM 010854Z 27003KT 4SM -SN BR OVC006 M03/M05 A2997 RMK AO2 SNB0758E15B33 CIG 005V009 SLP151 P0000 60000 T10331050 58012EQDQ01  00008PRCP03
0221744904947232010010109547+42717-071124FM-15+0045KLWM V0202805N00215001835MN0096565N5-00395-00505101495ADDAA101000095AU100001015AW1105GA1085+001835999GD14991+0018359GF108991999999999999999999MA1101495100955REMMET10901/01/10 04:54:02 METAR KLWM 010954Z 28004KT 6SM BR OVC006 M04/M05 A2997 RMK AO2 SNE00 SLP149 P0000 T10391050
0265744904947232010010110547+42717-071124FM-15+0045KLWM V0202905N00155001835MN0112655N5-00395-00565101455ADDAA101000095GA1075+001835999GA2075+012805999GA3085+033535999GD13991+0018359GD23991+0128059GD34991+0335359GF108991999999999999999999MA1101425100885REMMET10801/01/10 05:54:02 METAR KLWM 011054Z 29003KT 7SM BKN006 BKN042 OVC110 M04/M06 A2995 RMK AO2 SLP145 T10391056
0199744904947232010010111017+42717-071124FM-16+0045KLWM V0209999C00005012805MN0112655N5-00405-00605999999ADDGA1025+001835999GA2085+012805999GD11991+0018359GD24991+0128059GF108991999999999999999999MA1101425100885REMMET08401/01/10 06:01:02 SPECI KLWM 011101Z 00000KT 7SM FEW006 OVC042 M04/M06 A2995 RMK AO2
0275744904947232010010111547+42717-071124FM-15+0045KLWM V0209999C00005011585MN0112655N5-00335-00565101435ADDAA101000095AA206000021GA1085+011585999GD14991+0115859GF108991999999999999999999KA1999M-00331KA2999N-00391MA1101425100885MD1840084+9999REMMET12901/01/10 06:54:02 METAR KLWM 011154Z 00000KT 7SM OVC038 M03/M06 A2995 RMK AO2 SLP143 60000 7//// T10331056 11033 21039 58008 (RR)
0232744904947232010010112547+42717-071124FM-15+0045KLWM V0209999C00005011585MN0112655N5-00335-00505101435ADDAA101000095GA1075+011585999GA2085+027435999GD13991+0115859GD24991+0274359GF108991999999999999999999MA1101425100885REMMET10601/01/10 07:54:02 METAR KLWM 011254Z 00000KT 7SM BKN038 OVC090 M03/M05 A2995 RMK AO2 SLP143 T10331050 (RR)
0232744904947232010010113547+42717-071124FM-15+0045KLWM V0209999C00005030485MN0112655N5-00335-00505101375ADDAA101000095GA1025+012195999GA2085+030485999GD11991+0121959GD24991+0304859GF108991999999999999999999MA1101355100815REMMET10601/01/10 08:54:02 METAR KLWM 011354Z 00000KT 7SM FEW040 OVC100 M03/M05 A2993 RMK AO2 SLP137 T10331050 (RR)
0214744904947232010010114547+42717-071124FM-15+0045KLWM V0209999C00005019815MN0128755N5-00225-00445101365ADDAA101000095GA1085+019815999GD14991+0198159GF108991999999999999999999MA1101355100815MD1840064+9999REMMET10501/01/10 09:54:02 METAR KLWM 011454Z 00000KT 8SM OVC065 M02/M04 A2993 RMK AO2 SLP136 T10221044 58006 (RR)
0232744904947232010010115547+42717-071124FM-15+0045KLWM V0209999C00005027435MN0144845N5-00175-00395101245ADDAA101000095GA1025+019815999GA2085+027435999GD11991+0198159GD24991+0274359GF108991999999999999999999MA1101225100685REMMET10601/01/10 10:54:02 METAR KLWM 011554Z 00000KT 9SM FEW065 OVC090 M02/M04 A2989 RMK AO2 SLP124 T10171039 (RR)
0195744904947232010010116547+42717-071124FM-15+0045KLWM V0203005N00155025915MN0160935N5-00115-00395101145ADDAA101000095GA1085+025915999GD14991+0259159GF108991999999999999999999MA1101125100585REMMET10001/01/10 11:54:02 METAR KLWM 011654Z 30003KT 10SM OVC085 M01/M04 A2986 RMK AO2 SLP114 T10111039 (RR)
0252744904947232010010117547+42717-071124FM-15+0045KLWM V0209999C00005025915MN0160935N5+00065-00335101075ADDAA101000095GA1085+025915999GD14991+0259159GF108991999999999999999999KA1999M+00061KA2999N-00331MA1101055100515MD1640294+9999REMMET11701/01/10 12:54:02 METAR KLWM 011754Z 00000KT 10SM OVC085 01/M03 A2984 RMK AO2 SLP107 T00061033 10006 21033 56029 (RR)
0194744904947232010010118547+42717-071124FM-15+0045KLWM V0209999C00005024385MN0160935N5+00065-00285101045ADDAA101000095GA1085+024385999GD14991+0243859GF108991999999999999999999MA1101025100485REMMET09901/01/10 13:54:02 METAR KLWM 011854Z 00000KT 10SM OVC080 01/M03 A2983 RMK AO2 SLP104 T00061028 (RR)
0232744904947232010010119547+42717-071124FM-15+0045KLWM V0209999C00005004885MN0160935N5+00115-00285101055ADDAA101000095GA1075+004885999GA2085+024385999GD13991+0048859GD24991+0243859GF108991999999999999999999MA1101055100515REMMET10601/01/10 14:54:02 METAR KLWM 011954Z 00000KT 10SM BKN016 OVC080 01/M03 A2984 RMK AO2 SLP105 T00111028 (RR)
0161744904947232010010120427+42717-071124FM-16+0045KLWM V0203305N00155004275MN0160935N5+00105-00205999999ADDGA1085+004275999GD14991+0042759GF108991999999999999999999MA1101025100485REMMET07701/01/10 15:42:02 SPECI KLWM 012042Z 33003KT 10SM OVC014 01/M02 A2983 RMK AO2
0214744904947232010010120547+42717-071124FM-15+0045KLWM V0203305N00155004275MN0160935N5+00115-00225101015ADDAA101000095GA1085+004275999GD14991+0042759GF108991999999999999999999MA1100985100445MD1840064+9999REMMET10501/01/10 15:54:02 METAR KLWM 012054Z 33003KT 10SM OVC014 01/M02 A2982 RMK AO2 SLP101 T00111022 58006 (BO)
0178744904947232010010121437+42717-071124FM-16+0045KLWM V0203305N00215002445MN0160935N5+00105-00105999999ADDGA1085+002445999GD14991+0024459GF108991999999999999999999MA1100985100445REMMET09401/01/10 16:43:02 SPECI KLWM 012143Z 33004KT 10SM OVC008 01/M01 A2982 RMK AO2 CIG 007V010 (BO)
0231744904947232010010121547+42717-071124FM-15+0045KLWM V0203305N00155002445MN0144845N5+00065-00115101005ADDAA101000025AU120090015AW1415GA1085+002445999GD14991+0024459GF108991999999999999999999MA1100985100445MW1401REMMET11301/01/10 16:54:02 METAR KLWM 012154Z 33003KT 9SM UP OVC008 01/M01 A2982 RMK AO2 UPB44 SLP100 P0000 T00061011 (TB)
0214744904947232010010122526+42717-071124FM-16+0045KLWM V0203405N00265003055MN0096565N5+00105-00105999999ADDAU110030015AU200001015AW1105AW2715GA1085+003055999GD14991+0030559MA1100955100415REMMET12201/01/10 17:52:02 SPECI KLWM 012252Z 34005KT 6SM -SN BR OVC010 01/M01 A2981 RMK AO2 UPE37SNB46 CIG 008V013 P0000 FIBI (TB)
0275744904947232010010122547+42717-071124FM-15+0045KLWM V0203605N00265003055MN0080475N5+00065-00115100945ADDAA101000025AU110030015AU200001015AW1105AW2715GA1085+003055999GD14991+0030559GF108991999999999999999999MA1100955100415MW1101MW2711REMMET13401/01/10 17:54:02 METAR KLWM 012254Z 36005KT 5SM -SN BR OVC010 01/M01 A2981 RMK AO2 UPE37SNB46 CIG 008V013 SLP094 P0000 T00061011 (TB)
0375744904947232010010123547+42717-071124FM-15+0045KLWM V0203505N00215003055MN0096565N5+00005-00115100925ADDAA101000025AA206000021AU100001015AW1105GA1075+003055999GA2085+004275999GD13991+0030559GD24991+0042759GF108991999999999999999999KA1999M+00111KA2999N+00001MA1100915100385MD1840084+9999MW1101REMMET15601/01/10 18:54:02 METAR KLWM 012354Z 35004KT 6SM BR BKN010 OVC014 00/M01 A2980 RMK AO2 SNE30 CIG 005V011 SLP092 P0000 60000 T00001011 10011 20000 58008 (TB)EQDQ01  00008PRCP06
0262744904947232010010200197+42717-071124FM-16+0045KLWM V0203505N00265002445MN0040235N5+00005-00205999999ADDAA101000021AU110030015AU200001015AW1105AW2715GA1075+002445999GA2085+003965999GD13991+0024459GD24991+0039659GF108991999999999999999999MA1100885100345MW1101MW2711REMMET09001/01/10 19:19:02 SPECI KLWM 020019Z 35005KT 2 1/2SM -SN BR BKN008 OVC013 00/M02 A2979 RMK
0269744904947232010010200547+42717-071124FM-15+0045KLWM V0203605N00365001835MN0040235N5+00005-00175100805ADDAA101000025AU110030015AU200001015AW1105AW2715GA1085+001835999GD14991+0018359GF108991999999999999999999MA1100785100245MW1101MW2711REMMET12801/01/10 19:54:02 METAR KLWM 020054Z 36007KT 2 1/2SM -SN BR OVC006 00/M02 A2976 RMK AO2 SNB10 CIG 004V009 SLP080 P0000 T00001017
0243744904947232010010201027+42717-071124FM-16+0045KLWM V0203605N00465001835MN0064375N5-00105-00205999999ADDAA101000021AU110030015AU200001015AW1105AW2715GA1085+001835999GD14991+0018359GF108991999999999999999999MA1100785100245MW1101MW2711REMMET10201/01/10 20:02:02 SPECI KLWM 020102Z 36009KT 4SM -SN BR OVC006 M01/M02 A2976 RMK AO2 CIG 005V010 P0000
0226744904947232010010201277+42717-071124FM-16+0045KLWM V0203605N00415002445MN0040235N5-00105-00205999999ADDAA101000021AU100001015AW1105GA1085+002445999GD14991+0024459GF108991999999999999999999MA1100785100245MW1101REMMET10801/01/10 20:27:02 SPECI KLWM 020127Z 36008KT 2 1/2SM BR OVC008 M01/M02 A2976 RMK AO2 SNE27 CIG 005V012 P0000
0260744904947232010010201547+42717-071124FM-15+0045KLWM V0203605N00365001835MN0032195N5-00065-00225100745ADDAA101000025AU110030015AU200001015AW1105AW2715GA1085+001835999GD14991+0018359GF108991999999999999999999MA1100755100215MW1101MW2711REMMET11901/01/10 20:54:02 METAR KLWM 020154Z 36007KT 2SM -SN BR OVC006 M01/M02 A2975 RMK AO2 CIG 005V011 SLP074 P0000 T10061022
0281744904947232010010202457+42717-071124FM-16+0045KLWM V0203605N00265001835MN0048285N5-00105-00305999999ADDAA101000021AU110030015AU200001015AW1105AW2715GA1075+001835999GA2085+003355999GD13991+0018359GD24991+0033559GF108991999999999999999999MA1100685100145MW1101MW2711REMMET10901/01/10 21:45:02 SPECI KLWM 020245Z 36005KT 3SM -SN BR BKN006 OVC011 M01/M03 A2973 RMK AO2 CIG 005V009 P0000
0234744904947232010010202526+42717-071124FM-16+0045KLWM V0203605N00465001835MN0040235N5-00105-00305999999ADDAU110030015AU200001015AW1105AW2715GA1075+001835999GA2085+003355999GD13991+0018359GD24991+0033559MA1100685100145REMMET11101/01/10 21:52:03 SPECI KLWM 020252Z 36009KT 2 1/2SM -SN BR BKN006 OVC011 M01/M03 A2973 RMK AO2 P0000 FIBI (TB)
0320744904947232010010202547+42717-071124FM-15+0045KLWM V0203605N00465002445MN0040235N5-00115-00285100685ADDAA101000025AA203000021AU110030015AU200001015AW1105AW2715GA1085+002445999GD14991+0024459GF108991999999999999999999MA1100685100145MD1640244+9999MW1101MW2711REMMET13501/01/10 21:54:02 METAR KLWM 020254Z 36009KT 2 1/2SM -SN BR OVC008 M01/M03 A2973 RMK AO2 CIG 006V014 SLP068 P0000 60000 T10111028 56024EQDQ01  00008PRCP03
0281744904947232010010203077+42717-071124FM-16+0045KLWM V0200105N00515002445MN0048285N5-00105-00305999999ADDAA101000021AU110030015AU200001015AW1105AW2715GA1075+002445999GA2085+003965999GD13991+0024459GD24991+0039659GF108991999999999999999999MA1100685100145MW1101MW2711REMMET10901/01/10 22:07:02 SPECI KLWM 020307Z 01010KT 3SM -SN BR BKN008 OVC013 M01/M03 A2973 RMK AO2 CIG 006V010 P0000
0285744904947232010010203177+42717-071124FM-16+0045KLWM V0200105N00365002445MN0040235N5-00105-00305999999ADDAA101000021AU110030015AU200001015AW1105AW2715GA1075+002445999GA2085+005185999GD13991+0024459GD24991+0051859GF108991999999999999999999MA1100685100145MW1101MW2711REMMET11301/01/10 22:17:02 SPECI KLWM 020317Z 01007KT 2 1/2SM -SN BR BKN008 OVC017 M01/M03 A2973 RMK AO2 CIG 006V011 P0000
0285744904947232010010203427+42717-071124FM-16+0045KLWM V0200205N00415002445MN0028165N5-00105-00305999999ADDAA101000021AU110030015AU200001015AW1105AW2715GA1075+002445999GA2085+006405999GD13991+0024459GD24991+0064059GF108991999999999999999999MA1100615100075MW1101MW2711REMMET11301/01/10 22:42:02 SPECI KLWM 020342Z 02008KT 1 3/4SM -SN BR BKN008 OVC021 M01/M03 A2971 RMK AO2 CIG 005V009 P0000
0281744904947232010010203527+42717-071124FM-16+0045KLWM V0203605N00315002445MN0032195N5-00205-00305999999ADDAA101000021AU110030015AU200001015AW1105AW2715GA1075+002445999GA2085+006405999GD13991+0024459GD24991+0064059GF108991999999999999999999MA1100615100075MW1101MW2711REMMET10901/01/10 22:52:01 SPECI KLWM 020352Z 36006KT 2SM -SN BR BKN008 OVC021 M02/M03 A2971 RMK AO2 CIG 005V011 P0000
0298744904947232010010203547+42717-071124FM-15+0045KLWM V0203605N00365002445MN0032195N5-00175-00335100615ADDAA101000025AU110030015AU200001015AW1105AW2715GA1075+002445999GA2085+006405999GD13991+0024459GD24991+0064059GF108991999999999999999999MA1100615100075MW1101MW2711REMMET12601/01/10 22:54:01 METAR KLWM 020354Z 36007KT 2SM -SN BR BKN008 OVC021 M02/M03 A2971 RMK AO2 CIG 005V010 SLP061 P0000 T10171033
0285744904947232010010204177+42717-071124FM-16+0045KLWM V0200105N00465001835MN0028165N5-00205-00305999999ADDAA101000021AU110030015AU200001015AW1105AW2715GA1075+001835999GA2085+003055999GD13991+0018359GD24991+0030559GF108991999999999999999999MA1100585100045MW1101MW2711REMMET11301/01/10 23:17:02 SPECI KLWM 020417Z 01009KT 1 3/4SM -SN BR BKN006 OVC010 M02/M03 A2970 RMK AO2 CIG 005V009 P0000
0319744904947232010010204267+42717-071124FM-16+0045KLWM V0200105N00465002445MN0032195N5-00205-00405999999ADDAA101000021AU110030015AU200001015AW1105AW2715GA1075+002445999GA2075+003665999GA3085+006105999GD13991+0024459GD23991+0036659GD34991+0061059GF108991999999999999999999MA1100585100045MW1101MW2711REMMET11601/01/10 23:26:02 SPECI KLWM 020426Z 01009KT 2SM -SN BR BKN008 BKN012 OVC020 M02/M04 A2970 RMK AO2 CIG 005V011 P0000
0296744904947232010010204547+42717-071124FM-15+0045KLWM V0200105N00575002445MN0032195N5-00175-00395100535ADDAA101000025AU110030015AU200001015AW1105AW2715GA1075+002445999GA2085+006105999GD13991+0024459GD24991+0061059GF108991999999999999999999MA1100515099975MW1101MW2711REMMET12401/01/10 23:54:01 METAR KLWM 020454Z 01011KT 2SM -SN BR BKN008 OVC020 M02/M04 A2968 RMK AO2 SLP053 P0000 T10171039 400111039
0925744904947232010010204596+42717-071124SOD  +0045KLWM V020999999999999999999999999999+99999+99999999999ADDAA124000025AX1015245KA1240M+00116KA2240N-00385MG1100694100514OE11240080536023535OE22240067102023205OE33240017099999995REMSOD74424 HR PRECIPITATION (IN):T     WEATHER(CODE):1  24 HR MAX TEMP (F):34 24 HR MAX TEMP TIME (LST):1627 24 HR MIN TEMP (F):25 24 HR MIN TEMP TIME (LST):0643 AVERAGE STATION PRESSURE:29.735 MINIMUM SEA LEVEL PRESSURE:29.68 TIME OF OCCURRENCE:2359 PEAK WIND SPEED (MPH):18  PEAK WIND DIR (DEG):360 PEAK WIND TIME (LST):2353  FASTEST 2MIN SPEED (MPH):15 FASTEST 2MIN DIR (DEG):20  FASTEST 2MIN TIME (LST):2320 AVERAGE WIND SPEED (MPH):3.8  24 HR AVG TEMP (F):30 HEATING DEGREE DAYS:35  COOLING DEGREE DAYS:0   LATEST DAY MAX TEMP (0700-1900 LST):34  LATEST NIGHT MIN TEMP(1900-0800 LST):18 HOURLY INCREMENTAL PRECIPITATION VALUES (IN):.00 0.00 T    T    0.00 0.00 0.00 0.00 0.00 0.00 0.00 0.00 0.00 0.00 0.00 0.00 T    T    T    T    T    T    T    TEQDR01     N7GJS072R02     N7GKS075R03    347KAX008
0312744904947232010010205357+42717-071124FM-16+0045KLWM V0203605N00365002445MN0048285N5-00205-00405999999ADDAA101000021AU110030015AU200001015AW1105AW2715GA1075+002445999GA2075+004575999GA3085+005795999GD13991+0024459GD23991+0045759GD34991+0057959GF108991999999999999999999MA1100475099945MW1101MW2711REMMET10901/02/10 00:35:02 SPECI KLWM 020535Z 36007KT 3SM -SN BR BKN008 BKN015 OVC019 M02/M04 A2967 RMK AO2 P0000 (TB)
0423744904947232010010205547+42717-071124FM-15+0045KLWM V0203605N00515002445MN0048285N5-00225-00445100465ADDAA101000025AA206000021AU110030015AU200001015AW1105AW2715GA1075+002445999GA2075+004575999GA3085+006405999GD13991+0024459GD23991+0045759GD34991+0064059GF108991999999999999999999KA1999M+00001KA2999N-00221MA1100445099905MD1840154+9999MW1101MW2711REMMET15001/02/10 00:54:02 METAR KLWM 020554Z 36010KT 3SM -SN BR BKN008 BKN015 OVC021 M02/M04 A2966 RMK AO2 SLP046 P0000 60000 T10221044 10000 21022 58015 (TB)EQDQ01  00008PRCP06
0274744904947232010010206177+42717-071124FM-16+0045KLWM V0203605N00465005185MN0048285N5-00305-00505999999ADDAA101000021AU110030015AU200001015AW1105AW2715GA1045+002445999GA2085+005185999GD12991+0024459GD24991+0051859GF108991999999999999999999MA1100445099905MW1101MW2711REMMET10201/02/10 01:17:02 SPECI KLWM 020617Z 36009KT 3SM -SN BR SCT008 OVC017 M03/M05 A2966 RMK AO2 P0000 (TB)
0247744904947232010010206287+42717-071124FM-16+0045KLWM V0200205N00625004275MN0048285N5-00305-00505999999ADDAA101000021AU110030015AU200001015AW1105AW2715GA1085+004275999GD14991+0042759GF108991999999999999999999MA1100445099905MW1101MW2711OC100935REMMET09801/02/10 01:28:02 SPECI KLWM 020628Z 02012G18KT 3SM -SN BR OVC014 M03/M05 A2966 RMK AO2 P0000 (TB)
0274744904947232010010206357+42717-071124FM-16+0045KLWM V0200105N00465004885MN0048285N5-00305-00505999999ADDAA101000021AU110030015AU200001015AW1105AW2715GA1025+002745999GA2085+004885999GD11991+0027459GD24991+0048859GF108991999999999999999999MA1100445099905MW1101MW2711REMMET10201/02/10 01:35:02 SPECI KLWM 020635Z 01009KT 3SM -SN BR FEW009 OVC016 M03/M05 A2966 RMK AO2 P0000 (TB)
0265744904947232010010206547+42717-071124FM-15+0045KLWM V0200205N00725004885MN0048285N5-00285-00565100485ADDAA101000025AU110030015AW1715GA1045+002745999GA2085+004885999GD12991+0027459GD24991+0048859GF108991999999999999999999MA1100475099945OC100985REMMET11401/02/10 01:54:02 METAR KLWM 020654Z 02014G19KT 3SM -SN SCT009 OVC016 M03/M06 A2967 RMK AO2 SLP048 P0000 T10281056
0273744904947232010010207077+42717-071124FM-16+0045KLWM V0200105N00465002745MN0040235N5-00305-00505999999ADDAA101000021AU110030015AU200001015AW1105AW2715GA1075+002745999GA2085+004885999GD13991+0027459GD24991+0048859GF108991999999999999999999MA1100475099945REMMET11301/02/10 02:07:02 SPECI KLWM 020707Z 01009KT 2 1/2SM -SN BR BKN009 OVC016 M03/M05 A2967 RMK AO2 CIG 007V013 P0000
0272744904947232010010207217+42717-071124FM-16+0045KLWM V0200105N00365004885MN0040235N5-00305-00505999999ADDAA101000021AU110030015AU200001015AW1105AW2715GA1045+002745999GA2085+004885999GD12991+0027459GD24991+0048859GF108991999999999999999999MA1100475099945OC100825REMMET10401/02/10 02:21:02 SPECI KLWM 020721Z 01007G16KT 2 1/2SM -SN BR SCT009 OVC016 M03/M05 A2967 RMK AO2 P0000
0269744904947232010010207297+42717-071124FM-16+0045KLWM V0200105N00365002745MN0032195N5-00305-00505999999ADDAA101000021AU110030015AU200001015AW1105AW2715GA1075+002745999GA2085+004885999GD13991+0027459GD24991+0048859GF108991999999999999999999MA1100475099945REMMET10901/02/10 02:29:02 SPECI KLWM 020729Z 01007KT 2SM -SN BR BKN009 OVC016 M03/M05 A2967 RMK AO2 CIG 007V012 P0000
0261744904947232010010207377+42717-071124FM-16+0045KLWM V0203605N00315002745MN0024145N5-00305-00505999999ADDAA101000021AU110030015AU200001015AW1105AW2715GA1075+002745999GA2085+004885999GD13991+0027459GD24991+0048859GF108991999999999999999999MA1100475099945REMMET10101/02/10 02:37:02 SPECI KLWM 020737Z 36006KT 1 1/2SM -SN BR BKN009 OVC016 M03/M05 A2967 RMK AO2 P0000
0273744904947232010010207497+42717-071124FM-16+0045KLWM V0203605N00365002745MN0040235N5-00305-00505999999ADDAA101000021AU110030015AU200001015AW1105AW2715GA1075+002745999GA2085+004275999GD13991+0027459GD24991+0042759GF108991999999999999999999MA1100445099905REMMET11301/02/10 02:49:02 SPECI KLWM 020749Z 36007KT 2 1/2SM -SN BR BKN009 OVC014 M03/M05 A2966 RMK AO2 CIG 006V010 P0000
0237744904947232010010207526+42717-071124FM-16+0045KLWM V0200105N00415002745MN0048285N5-00305-00505999999ADDAU110030015AU200001015AW1105AW2715GA1075+002745999GA2085+004275999GD13991+0027459GD24991+0042759MA1100445099905REMMET11401/02/10 02:52:02 SPECI KLWM 020752Z 01008KT 3SM -SN BR BKN009 OVC014 M03/M05 A2966 RMK AO2 CIG 006V010 P0000 FIBI
0286744904947232010010207547+42717-071124FM-15+0045KLWM V0203605N00415002745MN0048285N5-00335-00505100455ADDAA101000025AU110030015AU200001015AW1105AW2715GA1075+002745999GA2085+004275999GD13991+0027459GD24991+0042759GF108991999999999999999999MA1100445099905REMMET12601/02/10 02:54:02 METAR KLWM 020754Z 36008KT 3SM -SN BR BKN009 OVC014 M03/M05 A2966 RMK AO2 CIG 006V010 SLP045 P0000 T10331050
0273744904947232010010208237+42717-071124FM-16+0045KLWM V0203605N00365002745MN0040235N5-00305-00605999999ADDAA101000021AU110030015AU200001015AW1105AW2715GA1075+002745999GA2085+004575999GD13991+0027459GD24991+0045759GF108991999999999999999999MA1100445099905REMMET11301/02/10 03:23:02 SPECI KLWM 020823Z 36007KT 2 1/2SM -SN BR BKN009 OVC015 M03/M06 A2966 RMK AO2 CIG 006V012 P0000
0269744904947232010010208307+42717-071124FM-16+0045KLWM V0203605N00415002745MN0064375N5-00305-00605999999ADDAA101000021AU110030015AU200001015AW1105AW2715GA1075+002745999GA2085+004575999GD13991+0027459GD24991+0045759GF108991999999999999999999MA1100415099875REMMET10901/02/10 03:30:02 SPECI KLWM 020830Z 36008KT 4SM -SN BR BKN009 OVC015 M03/M06 A2965 RMK AO2 CIG 006V012 P0000
0342744904947232010010208547+42717-071124FM-15+0045KLWM V0203605N00465002745MN0080475N5-00335-00565100405ADDAA101000025AA203000021AU110030015AU200001015AW1105AW2715GA1075+002745999GA2085+004575999GD13991+0027459GD24991+0045759GF108991999999999999999999MA1100375099845MD1840084+9999REMMET13801/02/10 03:54:02 METAR KLWM 020854Z 36009KT 5SM -SN BR BKN009 OVC015 M03/M06 A2964 RMK AO2 CIG 007V011 SLP040 P0000 60000 T10331056 58008EQDQ01  00008PRCP03
0261744904947232010010209167+42717-071124FM-16+0045KLWM V0203605N00575005185MN0040235N5-00405-00605999999ADDAA101000021AU110030015AU200001015AW1105AW2715GA1045+002745999GA2085+005185999GD12991+0027459GD24991+0051859GF108991999999999999999999MA1100375099845REMMET10101/02/10 04:16:02 SPECI KLWM 020916Z 36011KT 2 1/2SM -SN BR SCT009 OVC017 M04/M06 A2964 RMK AO2 P0000
0269744904947232010010209477+42717-071124FM-16+0045KLWM V0203505N00265002745MN0048285N5-00405-00605999999ADDAA101000021AU110030015AU200001015AW1105AW2715GA1075+002745999GA2085+005185999GD13991+0027459GD24991+0051859GF108991999999999999999999MA1100345099805REMMET10901/02/10 04:47:02 SPECI KLWM 020947Z 35005KT 3SM -SN BR BKN009 OVC017 M04/M06 A2963 RMK AO2 CIG 006V014 P0000
0286744904947232010010209547+42717-071124FM-15+0045KLWM V0203605N00415002745MN0064375N5-00335-00565100345ADDAA101000025AU110030015AU200001015AW1105AW2715GA1075+002745999GA2085+005185999GD13991+0027459GD24991+0051859GF108991999999999999999999MA1100345099805REMMET12601/02/10 04:54:02 METAR KLWM 020954Z 36008KT 4SM -SN BR BKN009 OVC017 M03/M06 A2963 RMK AO2 CIG 006V014 SLP034 P0000 T10331056
0219744904947232010010210147+42717-071124FM-16+0045KLWM V0203605N00465003355MN0096565N5-00405-00605999999ADDAA101000021AU110030015AU200001015AW1105AW2715GA1085+003355999GD14991+0033559GF108991999999999999999999MA1100305099775REMMET09001/02/10 05:14:02 SPECI KLWM 021014Z 36009KT 6SM -SN BR OVC011 M04/M06 A2962 RMK AO2 P0000
0261744904947232010010210307+42717-071124FM-16+0045KLWM V0203605N00575003665MN0040235N5-00405-00605999999ADDAA101000021AU110030015AU200001015AW1105AW2715GA1045+002745999GA2085+003665999GD12991+0027459GD24991+0036659GF108991999999999999999999MA1100305099775REMMET10101/02/10 05:30:02 SPECI KLWM 021030Z 36011KT 2 1/2SM -SN BR SCT009 OVC012 M04/M06 A2962 RMK AO2 P0000
0207744904947232010010210526+42717-071124FM-16+0045KLWM V0203605N00515003665MN0028165N5-00405-00605999999ADDAU110030015AU200001015AW1105AW2715GA1085+003665999GD14991+0036659MA1100305099775OC100775REMMET10701/02/10 05:52:02 SPECI KLWM 021052Z 36010G15KT 1 3/4SM -SN BR OVC012 M04/M06 A2962 RMK AO2 P0000 TSNO FIBI
0256744904947232010010210547+42717-071124FM-15+0045KLWM V0200105N00465003665MN0024145N5-00395-00615100305ADDAA101000025AU110030015AU200001015AW1105AW2715GA1085+003665999GD14991+0036659GF108991999999999999999999MA1100305099775OC100775REMMET11901/02/10 05:54:02 METAR KLWM 021054Z 01009G15KT 1 1/2SM -SN BR OVC012 M04/M06 A2962 RMK AO2 SLP030 P0000 T10391061 TSNO
0218744904947232010010211177+42717-071124FM-16+0045KLWM V0203605N00315002135WN0016095N5-00405-00605999999ADDAA101000021AU110030015AU200001015AW1105AW2715GA1095+002135999GD15991+0021359GF109991999999000251999999MA1100275099745REMMET08901/02/10 06:17:02 SPECI KLWM 021117Z 36006KT 1SM -SN BR VV007 M04/M06 A2961 RMK AO2 P0000
0219744904947232010010211457+42717-071124FM-16+0045KLWM V0203505N00315003355MN0032195N5-00405-00605999999ADDAA101000021AU110030015AU200001015AW1105AW2715GA1085+003355999GD14991+0033559GF108991999999999999999999MA1100245099705REMMET09001/02/10 06:45:02 SPECI KLWM 021145Z 35006KT 2SM -SN BR OVC011 M04/M06 A2960 RMK AO2 P0000
0334744904947232010010211547+42717-071124FM-15+0045KLWM V0203605N00365003355MN0040235N5-00395-00565100235ADDAA101000025AA206000021AU110030015AU200001015AW1105AW2715GA1085+003355999GD14991+0033559GF108991999999999999999999KA1999M-00221KA2999N-00391MA1100245099705MD1840114+9999REMMET13501/02/10 06:54:02 METAR KLWM 021154Z 36007KT 2 1/2SM -SN BR OVC011 M04/M06 A2960 RMK AO2 SLP023 P0000 60000 T10391056 11022 21039 58011EQDQ01  00008PRCP06
0261744904947232010010212217+42717-071124FM-16+0045KLWM V0203505N00315003665MN0028165N5-00405-00605999999ADDAA101000021AU110030015AU200001015AW1105AW2715GA1025+002745999GA2085+003665999GD11991+0027459GD24991+0036659GF108991999999999999999999MA1100205099675REMMET10101/02/10 07:21:02 SPECI KLWM 021221Z 35006KT 1 3/4SM -SN BR FEW009 OVC012 M04/M06 A2959 RMK AO2 P0000
0235744904947232010010212547+42717-071124FM-15+0045KLWM V0203405N00265003665WN0016095N5-00395-00565100185ADDAA101000395AU110030015AU200001015AW1105AW2715GA1095+003665999GD15991+0036659GF109991999999000251999999MA1100175099635REMMET10601/02/10 07:54:02 METAR KLWM 021254Z 34005KT 1SM -SN BR VV012 M04/M06 A2958 RMK AO2 SLP018 P0001 T10391056
0257744904947232010010213547+42717-071124FM-15+0045KLWM V0203505N00315003665MN0020125N5-00335-00565100145ADDAA101000025AU110030015AU200001015AW1105AW2715GA1085+003665999GD14991+0036659GF108991999999999999999999MA1100145099605MW1101MW2711REMMET11601/02/10 08:54:02 METAR KLWM 021354Z 35006KT 1 1/4SM -SN BR OVC012 M03/M06 A2957 RMK AO2 SLP014 P0000 T10331056 (BO)
0234744904947232010010214526+42717-071124FM-16+0045KLWM V0203605N00365005495MN0024145N5-00305-00505999999ADDAU110030015AU200001015AW1105AW2715GA1045+003055999GA2085+005495999GD12991+0030559GD24991+0054959MA1100105099575REMMET11101/02/10 09:52:02 SPECI KLWM 021452Z 36007KT 1 1/2SM -SN BR SCT010 OVC018 M03/M05 A2956 RMK AO2 P0000 FIBI (BO)
0351744904947232010010214547+42717-071124FM-15+0045KLWM V0203605N00365005495MN0024145N5-00285-00505100125ADDAA101000025AA203000391AU110030015AU200001015AW1105AW2715GA1045+003055999GA2085+005495999GD12991+0030559GD24991+0054959GF108991999999999999999999MA1100105099575MD1640064+9999MW1101MW2711REMMET13501/02/10 09:54:02 METAR KLWM 021454Z 36007KT 1 1/2SM -SN BR SCT010 OVC018 M03/M05 A2956 RMK AO2 SLP012 P0000 60001 T10281050 56006 (BO)EQDQ01  00038PRCP03
0274744904947232010010215237+42717-071124FM-16+0045KLWM V0203605N00365006105MN0048285N5-00305-00505999999ADDAA101000021AU110030015AU200001015AW1105AW2715GA1045+003055999GA2085+006105999GD12991+0030559GD24991+0061059GF108991999999999999999999MA1100075099535MW1101MW2711REMMET10201/02/10 10:23:02 SPECI KLWM 021523Z 36007KT 3SM -SN BR SCT010 OVC020 M03/M05 A2955 RMK AO2 P0000 (BO)
0278744904947232010010215387+42717-071124FM-16+0045KLWM V0200105N00465005495MN0028165N5-00305-00505999999ADDAA101000021AU110030015AU200001015AW1105AW2715GA1045+003055999GA2085+005495999GD12991+0030559GD24991+0054959GF108991999999999999999999MA1100075099535MW1101MW2711REMMET10601/02/10 10:38:02 SPECI KLWM 021538Z 01009KT 1 3/4SM -SN BR SCT010 OVC018 M03/M05 A2955 RMK AO2 P0000 (BO)
0237744904947232010010215487+42717-071124FM-16+0045KLWM V0200105N00465003665WN0012075N5-00305-00505999999ADDAA101000021AU110030015AU200001015AW1105AW2715GA1095+003665999GD15991+0036659GF109991999999000251999999MA1100035099505MW1101MW2711REMMET09601/02/10 10:48:02 SPECI KLWM 021548Z 01009KT 3/4SM -SN BR VV012 M03/M05 A2954 RMK AO2 P0000 (BO)
0254744904947232010010215497+42717-071124FM-15+0045KLWM V0203605N00465003355WN0012075N5-00285-00505100045ADDAA101000025AU110030015AU200001015AW1105AW2715GA1095+003355999GD15991+0033559GF109991999999000251999999MA1100035099505MW1101MW2711REMMET11301/02/10 10:49:02 METAR KLWM 021549Z 36009KT 3/4SM -SN BR VV011 M03/M05 A2954 RMK AO2 SLP004 P0000 T10281050 (BO)
0248744904947232010010216017+42717-071124FM-16+0045KLWM V0203505N00415002445WN0012075N5-00305-00505999999ADDAA101000021AU110030015AU200001015AW1105AW2715GA1095+002445999GD15991+0024459GF109991999999000251999999MA1100005099475MW1101MW2711OC100825REMMET09901/02/10 11:01:02 SPECI KLWM 021601Z 35008G16KT 3/4SM -SN BR VV008 M03/M05 A2953 RMK AO2 P0000 (BO)
0235744904947232010010216167+42717-071124FM-16+0045KLWM V0203505N00465003355WN0016095N5-00305-00505999999ADDAA101000021AU110030015AU200001015AW1105AW2715GA1095+003355999GD15991+0033559GF109991999999000251999999MA1100005099475MW1101MW2711REMMET09401/02/10 11:16:02 SPECI KLWM 021616Z 35009KT 1SM -SN BR VV011 M03/M05 A2953 RMK AO2 P0000 (BO)
0278744904947232010010216287+42717-071124FM-16+0045KLWM V0203605N00515004575MN0024145N5-00305-00505999999ADDAA101000021AU110030015AU200001015AW1105AW2715GA1025+002745999GA2085+004575999GD11991+0027459GD24991+0045759GF108991999999999999999999MA1099975099435MW1101MW2711REMMET10601/02/10 11:28:02 SPECI KLWM 021628Z 36010KT 1 1/2SM -SN BR FEW009 OVC015 M03/M05 A2952 RMK AO2 P0000 (BO)
0278744904947232010010216497+42717-071124FM-16+0045KLWM V0203605N00465003665MN0024145N5-00305-00505999999ADDAA101000021AU110030015AU200001015AW1105AW2715GA1075+003665999GA2085+005795999GD13991+0036659GD24991+0057959GF108991999999999999999999MA1099935099405MW1101MW2711REMMET10601/02/10 11:49:02 SPECI KLWM 021649Z 36009KT 1 1/2SM -SN BR BKN012 OVC019 M03/M05 A2951 RMK AO2 P0000 (BO)
0265744904947232010010216547+42717-071124FM-15+0045KLWM V0203505N00465003665MN0032195N5-00285-00565099925ADDAA101000025AU110030015AW1715GA1075+003665999GA2085+005795999GD13991+0036659GD24991+0057959GF108991999999999999999999MA1099905099365MW1711REMMET11601/02/10 11:54:02 METAR KLWM 021654Z 35009KT 2SM -SN BKN012 OVC019 M03/M06 A2950 RMK AO2 SLP992 P0000 T10281056 (BO)
0252744904947232010010217237+42717-071124FM-16+0045KLWM V0203505N00465004275MN0024145N5-00205-00605999999ADDAA101000021AU110030015AW1715GA1075+004275999GA2085+006405999GD13991+0042759GD24991+0064059GF108991999999999999999999MA1099865099335MW1711REMMET10301/02/10 12:23:02 SPECI KLWM 021723Z 35009KT 1 1/2SM -SN BKN014 OVC021 M02/M06 A2949 RMK AO2 P0000 (TB)
0248744904947232010010217317+42717-071124FM-16+0045KLWM V0203505N00515006405MN0032195N5-00205-00605999999ADDAA101000021AU110030015AW1715GA1045+004885999GA2085+006405999GD12991+0048859GD24991+0064059GF108991999999999999999999MA1099865099335MW1711REMMET09901/02/10 12:31:02 SPECI KLWM 021731Z 35010KT 2SM -SN SCT016 OVC021 M02/M06 A2949 RMK AO2 P0000 (TB)
0363744904947232010010217547+42717-071124FM-15+0045KLWM V0203505N00515007015MN0040235N5-00225-00565099835ADDAA101000025AA206000391AU110030015AW1715GA1025+004885999GA2085+007015999GD11991+0048859GD24991+0070159GF108991999999999999999999KA1999M-00221KA2999N-00391MA1099835099305MD1640214+9999MW1711REMMET14401/02/10 12:54:02 METAR KLWM 021754Z 35010KT 2 1/2SM -SN FEW016 OVC023 M02/M06 A2948 RMK AO2 SLP983 P0000 60001 T10221056 11022 21039 56021 (TB)EQDQ01  00038PRCP06
0259744904947232010010218017+42717-071124FM-16+0045KLWM V0203505N00465007625MN0048285N5-00205-00605999999ADDAA101000021AU110030015AW1715GA1025+004885999GA2085+007625999GD11991+0048859GD24991+0076259GF108991999999999999999999MA1099835099305MW1711OC100885REMMET10201/02/10 13:01:02 SPECI KLWM 021801Z 35009G17KT 3SM -SN FEW016 OVC025 M02/M06 A2948 RMK AO2 P0000 (TB)
0297744904947232010010218237+42717-071124FM-16+0045KLWM V0203505N00575009455MN0064375N5-00205-00605999999ADDAA101000021AU110030015AW1715GA1025+005185999GA2075+009455999GA3085+015245999GD11991+0051859GD23991+0094559GD34991+0152459GF108991999999999999999999MA1099805099265MW1711OC100935REMMET10901/02/10 13:23:02 SPECI KLWM 021823Z 35011G18KT 4SM -SN FEW017 BKN031 OVC050 M02/M06 A2947 RMK AO2 P0000 (TB)
0290744904947232010010218407+42717-071124FM-16+0045KLWM V0203605N00415008535MN0040235N5-00205-00505999999ADDAA101000021AU110030015AW1715GA1025+005795999GA2075+008535999GA3085+010065999GD11991+0057959GD23991+0085359GD34991+0100659GF108991999999999999999999MA1099765099235MW1711REMMET11001/02/10 13:40:02 SPECI KLWM 021840Z 36008KT 2 1/2SM -SN FEW019 BKN028 OVC033 M02/M05 A2946 RMK AO2 P0000 (TB)
0269744904947232010010218547+42717-071124FM-15+0045KLWM V0203605N00465005495MN0040235N5-00175-00565099745ADDAA101000025AU110030015AW1715GA1075+005495999GA2085+010065999GD13991+0054959GD24991+0100659GF108991999999999999999999MA1099735099205MW1711REMMET12001/02/10 13:54:02 METAR KLWM 021854Z 36009KT 2 1/2SM -SN BKN018 OVC033 M02/M06 A2945 RMK AO2 SLP974 P0000 T10171056 (TB)
0214744904947232010010219257+42717-071124FM-16+0045KLWM V0203505N00465006105MN0024145N5-00205-00505999999ADDAA101000021AU110030015AW1715GA1085+006105999GD14991+0061059GF108991999999999999999999MA1099735099205MW1711REMMET09601/02/10 14:25:02 SPECI KLWM 021925Z 35009KT 1 1/2SM -SN OVC020 M02/M05 A2945 RMK AO2 P0000 (TB)
0278744904947232010010219527+42717-071124FM-16+0045KLWM V0203505N00265004275MN0020125N5-00205-00405999999ADDAA101000021AU110030015AU200001015AW1105AW2715GA1025+002745999GA2085+004275999GD11991+0027459GD24991+0042759GF108991999999999999999999MA1099735099205MW1101MW2711REMMET10601/02/10 14:52:02 SPECI KLWM 021952Z 35005KT 1 1/4SM -SN BR FEW009 OVC014 M02/M04 A2945 RMK AO2 P0000 (TB)
0295744904947232010010219547+42717-071124FM-15+0045KLWM V0203405N00265004275MN0020125N5-00225-00445099735ADDAA101000025AU110030015AU200001015AW1105AW2715GA1025+002745999GA2085+004275999GD11991+0027459GD24991+0042759GF108991999999999999999999MA1099735099205MW1101MW2711REMMET12301/02/10 14:54:02 METAR KLWM 021954Z 34005KT 1 1/4SM -SN BR FEW009 OVC014 M02/M04 A2945 RMK AO2 SLP973 P0000 T10221044 (TB)
0312744904947232010010220317+42717-071124FM-16+0045KLWM V0203305N00215005185MN0016095N5-00205-00405999999ADDAA101000021AU110030015AU200001015AW1105AW2715GA1025+002745999GA2075+005185999GA3085+006715999GD11991+0027459GD23991+0051859GD34991+0067159GF108991999999999999999999MA1099705099165MW1101MW2711REMMET10901/02/10 15:31:02 SPECI KLWM 022031Z 33004KT 1SM -SN BR FEW009 BKN017 OVC022 M02/M04 A2944 RMK AO2 P0000 (TB)
0276744904947232010010220477+42717-071124FM-16+0045KLWM V0203205N00265005795MN0012075N5-00205-00405999999ADDAA101000021AU110030015AU200001015AW1105AW2715GA1045+003355999GA2085+005795999GD12991+0033559GD24991+0057959GF108991999999999999999999MA1099665099135MW1101MW2711REMMET10401/02/10 15:47:02 SPECI KLWM 022047Z 32005KT 3/4SM -SN BR SCT011 OVC019 M02/M04 A2943 RMK AO2 P0000 (TB)
0232744904947232010010220526+42717-071124FM-16+0045KLWM V0203105N00155003355MN0012075N5-00205-00405999999ADDAU110030015AU200001015AW1105AW2715GA1075+003355999GA2085+005795999GD13991+0033559GD24991+0057959MA1099665099135REMMET10901/02/10 15:52:02 SPECI KLWM 022052Z 31003KT 3/4SM -SN BR BKN011 OVC019 M02/M04 A2943 RMK AO2 P0000 FIBI (TB)
0349744904947232010010220547+42717-071124FM-15+0045KLWM V0203105N00215003355MN0012075N5-00225-00395099675ADDAA101000025AA203000021AU110030015AU200001015AW1105AW2715GA1075+003355999GA2085+005795999GD13991+0033559GD24991+0057959GF108991999999999999999999MA1099665099135MD1640164+9999MW1101MW2711REMMET13301/02/10 15:54:02 METAR KLWM 022054Z 31004KT 3/4SM -SN BR BKN011 OVC019 M02/M04 A2943 RMK AO2 SLP967 P0000 60000 T10221039 56016 (TB)EQDQ01  00008PRCP03
0297744904947232010010221217+42717-071124FM-16+0045KLWM V0203105N00625003665MN0016095N5-00205-00405999999ADDAA101000021AU110030015AW1715GA1025+002445999GA2075+003665999GA3085+005795999GD11991+0024459GD23991+0036659GD34991+0057959GF108991999999999999999999MA1099635099105MW1711OC100935REMMET10901/02/10 16:21:02 SPECI KLWM 022121Z 31012G18KT 1SM -SN FEW008 BKN012 OVC019 M02/M04 A2942 RMK AO2 P0000 (TB)
0263744904947232010010221337+42717-071124FM-16+0045KLWM V0203205N00625005495MN0028165N5-00205-00405999999ADDAA101000021AU110030015AW1715GA1025+003355999GA2085+005495999GD11991+0033559GD24991+0054959GF108991999999999999999999MA1099635099105MW1711OC100985REMMET10601/02/10 16:33:02 SPECI KLWM 022133Z 32012G19KT 1 3/4SM -SN FEW011 OVC018 M02/M04 A2942 RMK AO2 P0000 (TB)
0285744904947232010010221357+42717-071124FM-16+0045KLWM V0203105N00575005495MN0032195N5-00205-00405999999ADDAA101000021AU110030015AU200001015AW1105AW2715GA1025+003665999GA2085+005495999GD11991+0036659GD24991+0054959GF108991999999999999999999MA1099595099065MW1101MW2711OC100985REMMET10501/02/10 16:35:02 SPECI KLWM 022135Z 31011G19KT 2SM -SN BR FEW012 OVC018 M02/M04 A2941 RMK AO2 P0000 (TB)
0314744904947232010010221547+42717-071124FM-15+0045KLWM V0203105N00725006715MN0032195N5-00225-00565099625ADDAA101000025AU110030015AW1715GA1025+004885999GA2075+006715999GA3085+012195999GD11991+0048859GD23991+0067159GD34991+0121959GF108991999999999999999999MA1099595099065MW1711OC101135REMMET12601/02/10 16:54:02 METAR KLWM 022154Z 31014G22KT 2SM -SN FEW016 BKN022 OVC040 M02/M06 A2941 RMK AO2 SLP962 P0000 T10221056 (TB)
0281744904947232010010222087+42717-071124FM-16+0045KLWM V0203205N00885005495MN0028165N5-00305-00605999999ADDAA101000021AU110030015AW1715GA1075+005495999GA2085+012195999GD13991+0054959GD24991+0121959GF108991999999999999999999MA1099595099065MW1711OC101245REMMET12401/02/10 17:08:02 SPECI KLWM 022208Z 32017G24KT 1 3/4SM -SN BKN018 OVC040 M03/M06 A2941 RMK AO2 PK WND 32026/2155 P0000 (TB)
0239744904947232010010222327+42717-071124FM-16+0045KLWM V0203105N00575005495MN0032195N5-00305-00605999999ADDAA101000021AU110030015AW1715GA1085+005495999GD14991+0054959GF108991999999999999999999MA1099565099035MW1711OC101345REMMET11301/02/10 17:32:02 SPECI KLWM 022232Z 31011G26KT 2SM -SN OVC018 M03/M06 A2940 RMK AO2 PK WND 31026/2229 P0000 (TB)
0277744904947232010010222477+42717-071124FM-16+0045KLWM V0203005N00775006105MN0048285N5-00305-00705999999ADDAA101000021AU110030015AW1715GA1025+004275999GA2085+006105999GD11991+0042759GD24991+0061059GF108991999999999999999999MA1099595099065MW1711OC101345REMMET12001/02/10 17:47:02 SPECI KLWM 022247Z 30015G26KT 3SM -SN FEW014 OVC020 M03/M07 A2941 RMK AO2 PK WND 30026/2245 P0000 (TB)
0294744904947232010010222547+42717-071124FM-15+0045KLWM V0203105N00775006715MN0048285N5-00335-00675099605ADDAA101000025AU110030015AW1715GA1025+003665999GA2085+006715999GD11991+0036659GD24991+0067159GF108991999999999999999999MA1099595099065MW1711OC101345REMMET13701/02/10 17:54:02 METAR KLWM 022254Z 31015G26KT 3SM -SN FEW012 OVC022 M03/M07 A2941 RMK AO2 PK WND 30026/2245 SLP960 P0000 T10331067 (TB)
0243744904947232010010223087+42717-071124FM-16+0045KLWM V0203205N00935007325MN0040235N5-00405-00705999999ADDAA101000021AU110030015AW1715GA1085+007325999GD14991+0073259GF108991999999999999999999MA1099565099035MW1711OC101395REMMET11701/02/10 18:08:02 SPECI KLWM 022308Z 32018G27KT 2 1/2SM -SN OVC024 M04/M07 A2940 RMK AO2 PK WND 30027/2305 P0000 (TB)
0277744904947232010010223277+42717-071124FM-16+0045KLWM V0203105N00885008535MN0048285N5-00405-00705999999ADDAA101000021AU110030015AW1715GA1075+008535999GA2085+013115999GD13991+0085359GD24991+0131159GF108991999999999999999999MA1099565099035MW1711OC101295REMMET12001/02/10 18:27:02 SPECI KLWM 022327Z 31017G25KT 3SM -SN BKN028 OVC043 M04/M07 A2940 RMK AO2 PK WND 32027/2311 P0000 (TB)
0243744904947232010010223517+42717-071124FM-16+0045KLWM V0203005N00725006405MN0040235N5-00405-00705999999ADDAA101000021AU110030015AW1715GA1085+006405999GD14991+0064059GF108991999999999999999999MA1099535098995MW1711OC101245REMMET11701/02/10 18:51:02 SPECI KLWM 022351Z 30014G24KT 2 1/2SM -SN OVC021 M04/M07 A2939 RMK AO2 PK WND 32027/2311 P0000 (TB)
0430744904947232010010223547+42717-071124FM-15+0045KLWM V0203005N00885008235MN0040235N5-00445-00725099525ADDAA101000025AA206000021AU110030015AW1715GA1025+004885999GA2045+006405999GA3085+008235999GD11991+0048859GD22991+0064059GD34991+0082359GF108991999999999999999999KA1999M-00171KA2999N-00441MA1099495098965MD1640104+9999MW1711OC101395REMMET17201/02/10 18:54:02 METAR KLWM 022354Z 30017G27KT 2 1/2SM -SN FEW016 SCT021 OVC027 M04/M07 A2938 RMK AO2 PK WND 29027/2354 SLP952 P0000 60000 T10441072 11017 21044 56010 (TB)EQDQ01  00008PRCP06
0293744904947232010010300547+42717-071124FM-15+0045KLWM V0203005N01035007015MN0040235N5-00505-00835099395ADDAA101000025AU110030015AW1715GA1025+004885999GA2085+007015999GD11991+0048859GD24991+0070159GF108991999999999999999999MA1099395098865MW1711OC101445REMMET13601/02/10 19:54:01 METAR KLWM 030054Z 30020G28KT 2 1/2SM -SN FEW016 OVC023 M05/M08 A2935 RMK AO2 PK WND 29033/0027 SLP939 P0000 T10501083
0216744904947232010010301017+42717-071124FM-16+0045KLWM V0203005N00725007625MN0048285N5-00505-00805999999ADDAA101000021AU110030015AW1715GA1085+007625999GD14991+0076259GF108991999999999999999999MA1099365098835MW1711OC101395REMMET09001/02/10 20:01:02 SPECI KLWM 030101Z 30014G27KT 3SM -SN OVC025 M05/M08 A2934 RMK AO2 P0000
0234744904947232010010301187+42717-071124FM-16+0045KLWM V0203005N00885009455MN0080475N5-00505-00905999999ADDAA101000021AU110030015AW1715GA1085+009455999GD14991+0094559GF108991999999999999999999MA1099325098795MW1711OC101395REMMET10801/02/10 20:18:02 SPECI KLWM 030118Z 30017G27KT 5SM -SN OVC031 M05/M09 A2933 RMK AO2 PK WND 30029/0107 P0000
0234744904947232010010301377+42717-071124FM-16+0045KLWM V0203005N00625008235MN0048285N5-00505-00905999999ADDAA101000021AU110030015AW1715GA1085+008235999GD14991+0082359GF108991999999999999999999MA1099295098765MW1711OC101395REMMET10801/02/10 20:37:02 SPECI KLWM 030137Z 30012G27KT 3SM -SN OVC027 M05/M09 A2932 RMK AO2 PK WND 28032/0125 P0000
0245744904947232010010301547+42717-071124FM-15+0045KLWM V0203005N00825007015MN0064375N5-00505-00945099285ADDAA101000025AU110030015AW1715GA1085+007015999GD14991+0070159GF108991999999999999999999MA1099295098765OC101345REMMET12501/02/10 20:54:02 METAR KLWM 030154Z 30016G26KT 4SM -SN OVC023 M05/M09 A2932 RMK AO2 PK WND 28032/0125 SLP928 P0000 T10501094
0232744904947232010010302207+42717-071124FM-16+0045KLWM V0203005N01035005795MN0028165N5-00505-00905999999ADDAA101000021AU110030015AW1715GA1085+005795999GD14991+0057959GF108991999999999999999999MA1099195098665OC101755REMMET11201/02/10 21:20:02 SPECI KLWM 030220Z 30020G34KT 1 3/4SM -SN OVC019 M05/M09 A2929 RMK AO2 PK WND 29034/0216 P0000
0235744904947232010010302317+42717-071124FM-16+0045KLWM V0203005N01035005795MN0032195N5-00505-00905999999ADDAA101000021AU110030015AW1715GA1085+005795999GD14991+0057959GF108991999999999999999999MA1099155098625OC101705REMMET11501/02/10 21:31:02 SPECI KLWM 030231Z 30020G33KT 2SM -SN OVC019 M05/M09 A2928 RMK AO2 PK WND 29034/0216 PRESFR P0000
0212744904947232010010302526+42717-071124FM-16+0045KLWM V0203005N01085009755MN0040235V5-00505-00905999999ADDAU110030015AW1715GA1085+009755999GD14991+0097559MA1099095098565OC101805REMMET12901/02/10 21:52:03 SPECI KLWM 030252Z 30021G35KT 2 1/2SM -SN OVC032 M05/M09 A2926 RMK AO2 PK WND 30035/0244 VIS 1 3/4V5 P0000 FIBI
0313744904947232010010302547+42717-071124FM-15+0045KLWM V0203005N01085010365MN0040235V5-00505-00945099115ADDAA101000025AA203000021AU110030015AW1715GA1085+010365999GD14991+0103659GF108991999999999999999999MA1099125098595MD1840404+9999OC101755REMMET14901/02/10 21:54:01 METAR KLWM 030254Z 30021G34KT 2 1/2SM -SN OVC034 M05/M09 A2927 RMK AO2 PK WND 30035/0244 VIS 2V5 SLP911 P0000 60000 T10501094 58040EQDQ01  00008PRCP03
0282744904947232010010303087+42717-071124FM-16+0045KLWM V0203105N00985012505MN0080475N5-00405-01005999999ADDAA101000021AU120090015AW1401AW2415GA1075+012505999GA2085+018295999GD13991+0125059GD24991+0182959GF108991999999999999999999MA1099095098565OC101605REMMET12501/02/10 22:08:02 SPECI KLWM 030308Z 31019G31KT 5SM UP BKN041 OVC060 M04/M10 A2926 RMK AO2 PK WND 29032/0255 UPB08SNE08 P0000
0299744904947232010010303387+42717-071124FM-16+0045KLWM V0203105N00825008845MN0040235V5-00505-00905999999ADDAA101000021AU110030015AW1715GA1075+008845999GA2085+011285999GD13991+0088459GD24991+0112859GF108991999999999999999999MA1099025098495OC101705REMMET14801/02/10 22:38:02 SPECI KLWM 030338Z 31016G33KT 2 1/2SM -SN BKN029 OVC037 M05/M09 A2924 RMK AO2 PK WND 28033/0334 VIS 1 1/2V4 UPB08E27SNE08B27 P0000
0283744904947232010010303517+42717-071124FM-16+0045KLWM V0203005N00775007015MN0048285N5-00505-00905999999ADDAA101000021AU110030015AW1715GA1075+007015999GA2085+011285999GD13991+0070159GD24991+0112859GF108991999999999999999999MA1098985098455OC101245REMMET13201/02/10 22:51:02 SPECI KLWM 030351Z 30015G24KT 3SM -SN BKN023 OVC037 M05/M09 A2923 RMK AO2 PK WND 28033/0334 UPB08E27SNE08B27 P0000
0300744904947232010010303547+42717-071124FM-15+0045KLWM V0203005N00985007015MN0048285N5-00505-00945098995ADDAA101000025AU110030015AW1715GA1075+007015999GA2085+011285999GD13991+0070159GD24991+0112859GF108991999999999999999999MA1098985098455OC101395REMMET14901/02/10 22:54:02 METAR KLWM 030354Z 30019G27KT 3SM -SN BKN023 OVC037 M05/M09 A2923 RMK AO2 PK WND 28033/0334 UPB08E27SNE08B27 SLP899 P0000 T10501094
0248744904947232010010304027+42717-071124FM-16+0045KLWM V0202805N00775005795MN0032195N5-00605-00905999999ADDAA101000021AU110030015AW1715GA1075+005795999GA2085+007625999GD13991+0057959GD24991+0076259GF108991999999999999999999MA1098955098425OC101395REMMET09701/02/10 23:02:02 SPECI KLWM 030402Z 28015G27KT 2SM -SN BKN019 OVC025 M06/M09 A2922 RMK AO2 P0000
0252744904947232010010304097+42717-071124FM-16+0045KLWM V0202805N00825004575MN0020125N5-00605-00905999999ADDAA101000021AU110030015AW1715GA1075+004575999GA2085+007625999GD13991+0045759GD24991+0076259GF108991999999999999999999MA1098955098425OC101185REMMET10101/02/10 23:09:02 SPECI KLWM 030409Z 28016G23KT 1 1/4SM -SN BKN015 OVC025 M06/M09 A2922 RMK AO2 P0000
0266744904947232010010304207+42717-071124FM-16+0045KLWM V0202905N00885003355MN0016095N5-00605-00805999999ADDAA101000021AU110030015AW1715GA1075+003355999GA2085+006405999GD13991+0033559GD24991+0064059GF108991999999999999999999MA1098925098395OC101245REMMET11501/02/10 23:20:02 SPECI KLWM 030420Z 29017G24KT 1SM -SN BKN011 OVC021 M06/M08 A2921 RMK AO2 PK WND 27029/0410 P0000
0324744904947232010010304287+42717-071124FM-16+0045KLWM V0202905N00825002135MN0016095N5-00605-00805999999ADDAA101000021AU110030015AU200001015AW1105AW2715GA1075+002135999GA2075+005795999GA3085+007625999GD13991+0021359GD23991+0057959GD34991+0076259GF108991999999999999999999MA1098925098395OC101295REMMET12501/02/10 23:28:02 SPECI KLWM 030428Z 29016G25KT 1SM -SN BR BKN007 BKN019 OVC025 M06/M08 A2921 RMK AO2 PK WND 27029/0410 P0000
0282744904947232010010304526+42717-071124FM-16+0045KLWM V0202805N00625005795MN0016095N5-00605-00905999999ADDAU110030015AW1715GA1045+002745999GA2075+005795999GA3085+007625999GD12991+0027459GD23991+0057959GD34991+0076259MA1098885098355OC101135REMMET13701/02/10 23:52:03 SPECI KLWM 030452Z 28012G22KT 1SM -SN SCT009 BKN019 OVC025 M06/M09 A2920 RMK AO2 PK WND 27029/0410 P0000 410171061 FIBI
0335744904947232010010304547+42717-071124FM-15+0045KLWM V0202805N00515005185MN0020125N5-00615-00895098895ADDAA101000025AU110030015AW1715GA1045+002745999GA2075+005185999GA3085+007625999GD12991+0027459GD23991+0051859GD34991+0076259GF108991999999999999999999MA1098885098355OC101135REMMET15301/02/10 23:54:02 METAR KLWM 030454Z 28010G22KT 1 1/4SM -SN SCT009 BKN017 OVC025 M06/M09 A2920 RMK AO2 PK WND 27029/0410 SLP889 P0000 T10611089 410171061
0909744904947232010010304596+42717-071124SOD  +0045KLWM V020999999999999999999999999999+99999+99999999999ADDAA124000395AX1015245KA1240M-00165KA2240N-00605MG1099444098884OE11240178830021445OE22240125230021455OE33240055999999995REMSOD74424 HR PRECIPITATION (IN):0.01  WEATHER(CODE):1  24 HR MAX TEMP (F):29 24 HR MAX TEMP TIME (LST):1633 24 HR MIN TEMP (F):21 24 HR MIN TEMP TIME (LST):2359 AVERAGE STATION PRESSURE:29.365 MINIMUM SEA LEVEL PRESSURE:29.20 TIME OF OCCURRENCE:2358 PEAK WIND SPEED (MPH):40  PEAK WIND DIR (DEG):300 PEAK WIND TIME (LST):2144  FASTEST 2MIN SPEED (MPH):28 FASTEST 2MIN DIR (DEG):300 FASTEST 2MIN TIME (LST):2145 AVERAGE WIND SPEED (MPH):12.5 24 HR AVG TEMP (F):25 HEATING DEGREE DAYS:40  COOLING DEGREE DAYS:0   LATEST DAY MAX TEMP (0700-1900 LST):29  LATEST NIGHT MIN TEMP(1900-0800 LST):25 HOURLY INCREMENTAL PRECIPITATION VALUES (IN):    T    T    T    T    T    T    0.01 T    T    T    T    T    T    T    T    T    T    T    T    T    T    T    TEQDR01     N7GJS072R02     N7GKS075
0308744904947232010010305157+42717-071124FM-16+0045KLWM V0202805N00625005185MN0012075N5-00705-00905999999ADDAA101000021AU110030015AU200001015AW1105AW2715GA1045+001525999GA2075+005185999GA3085+007325999GD12991+0015259GD23991+0051859GD34991+0073259GF108991999999999999999999MA1098885098355OC101245REMMET10901/03/10 00:15:02 SPECI KLWM 030515Z 28012G24KT 3/4SM -SN BR SCT005 BKN017 OVC024 M07/M09 A2920 RMK AO2 P0000
0286744904947232010010305247+42717-071124FM-16+0045KLWM V0202805N00775001525MN0016095N5-00705-00905999999ADDAA101000021AU110030015AW1715GA1075+001525999GA2075+005795999GA3085+007325999GD13991+0015259GD23991+0057959GD34991+0073259GF108991999999999999999999MA1098855098325OC101135REMMET10401/03/10 00:24:02 SPECI KLWM 030524Z 28015G22KT 1SM -SN BKN005 BKN019 OVC024 M07/M09 A2919 RMK AO2 P0000
0377744904947232010010305547+42717-071124FM-15+0045KLWM V0202805N00625001525MN0016095N5-00725-01005098825ADDAA101000025AA206000021AU110030015AW1715GA1075+001525999GA2085+006405999GD13991+0015259GD24991+0064059GF108991999999999999999999KA1999M-00441KA2999N-00721MA1098815098295MD1840174+9999OC101345REMMET15601/03/10 00:54:02 METAR KLWM 030554Z 28012G26KT 1SM -SN BKN005 OVC021 M07/M10 A2918 RMK AO2 PK WND 30027/0534 SLP882 P0000 60000 T10721100 11044 21072 58017EQDQ01  00008PRCP06
0286744904947232010010306297+42717-071124FM-16+0045KLWM V0202705N00625006405MN0032195N5-00805-01105999999ADDAA101000021AU110030015AW1715GA1045+002745999GA2075+006405999GA3085+008845999GD12991+0027459GD23991+0064059GD34991+0088459GF108991999999999999999999MA1098785098255OC100985REMMET10401/03/10 01:29:02 SPECI KLWM 030629Z 27012G19KT 2SM -SN SCT009 BKN021 OVC029 M08/M11 A2917 RMK AO2 P0000
0286744904947232010010306437+42717-071124FM-16+0045KLWM V0202705N00725006715MN0048285N5-00805-01105999999ADDAA101000021AU110030015AW1715GA1045+005185999GA2075+006715999GA3085+008845999GD12991+0051859GD23991+0067159GD34991+0088459GF108991999999999999999999MA1098785098255OC100985REMMET10401/03/10 01:43:02 SPECI KLWM 030643Z 27014G19KT 3SM -SN SCT017 BKN022 OVC029 M08/M11 A2917 RMK AO2 P0000
0290744904947232010010306497+42717-071124FM-16+0045KLWM V0202805N00625006105MN0028165N5-00805-01105999999ADDAA101000021AU110030015AW1715GA1045+004575999GA2075+006105999GA3085+008535999GD12991+0045759GD23991+0061059GD34991+0085359GF108991999999999999999999MA1098785098255OC101135REMMET10801/03/10 01:49:02 SPECI KLWM 030649Z 28012G22KT 1 3/4SM -SN SCT015 BKN020 OVC028 M08/M11 A2917 RMK AO2 P0000
0307744904947232010010306507+42717-071124FM-15+0045KLWM V0202905N00625006105MN0028165N5-00785-01065098785ADDAA101000025AU110030015AW1715GA1045+004575999GA2075+006105999GA3085+009755999GD12991+0045759GD23991+0061059GD34991+0097559GF108991999999999999999999MA1098785098255OC101135REMMET12501/03/10 01:50:02 METAR KLWM 030650Z 29012G22KT 1 3/4SM -SN SCT015 BKN020 OVC032 M08/M11 A2917 RMK AO2 SLP878 P0000 T10781106
0290744904947232010010307127+42717-071124FM-16+0045KLWM V0202705N00725003355MN0020125N5-00805-01105999999ADDAA101000021AU110030015AW1715GA1075+003355999GA2075+006105999GA3085+008235999GD13991+0033559GD23991+0061059GD34991+0082359GF108991999999999999999999MA1098755098225OC101295REMMET10801/03/10 02:12:02 SPECI KLWM 030712Z 27014G25KT 1 1/4SM -SN BKN011 BKN020 OVC027 M08/M11 A2916 RMK AO2 P0000
0250744904947232010010307167+42717-071124FM-16+0045KLWM V0202805N00725002745MN0012075N5-00805-01105999999ADDAA101000021AU110030015AW1715GA1075+002745999GA2085+008235999GD13991+0027459GD24991+0082359GF108991999999999999999999MA1098755098225OC101135REMMET09901/03/10 02:16:02 SPECI KLWM 030716Z 28014G22KT 3/4SM -SN BKN009 OVC027 M08/M11 A2916 RMK AO2 P0000
0209744904947232010010307377+42717-071124FM-16+0045KLWM V0202805N00825001525WN0016095N5-00805-01105999999ADDAA101000021AU110030015AW1715GA1095+001525999GD15991+0015259GF109991999999000251999999MA1098755098225OC101085REMMET08901/03/10 02:37:02 SPECI KLWM 030737Z 28016G21KT 1SM -SN VV005 M08/M11 A2916 RMK AO2 P0000
0246744904947232010010307547+42717-071124FM-15+0045KLWM V0202705N00725001835WN0016095N5-00835-01065098735ADDAA101000025AU110030015AU200001015AW1105AW2715GA1095+001835999GD15991+0018359GF109991999999000251999999MA1098715098185OC100935REMMET10901/03/10 02:54:02 METAR KLWM 030754Z 27014G18KT 1SM -SN BR VV006 M08/M11 A2915 RMK AO2 SLP873 P0000 T10831106
0231744904947232010010308017+42717-071124FM-16+0045KLWM V0202705N00775001525WN0012075N5-00805-01105999999ADDAA101000021AU110030015AU200001015AW1105AW2715GA1095+001525999GD15991+0015259GF109991999999000251999999MA1098715098185OC101035REMMET09401/03/10 03:01:02 SPECI KLWM 030801Z 27015G20KT 3/4SM -SN BR VV005 M08/M11 A2915 RMK AO2 P0000
0252744904947232010010308177+42717-071124FM-16+0045KLWM V0202705N00775002135MN0020125N5-00805-01105999999ADDAA101000021AU110030015AW1715GA1075+002135999GA2085+007625999GD13991+0021359GD24991+0076259GF108991999999999999999999MA1098685098155OC101245REMMET10101/03/10 03:17:02 SPECI KLWM 030817Z 27015G24KT 1 1/4SM -SN BKN007 OVC025 M08/M11 A2914 RMK AO2 P0000
0214744904947232010010308397+42717-071124FM-16+0045KLWM V0202705N00825003355MN0020125N5-00805-01105999999ADDAA101000021AU110030015AW1715GA1085+003355999GD14991+0033559GF108991999999999999999999MA1098655098125OC101135REMMET09401/03/10 03:39:02 SPECI KLWM 030839Z 27016G22KT 1 1/4SM -SN OVC011 M08/M11 A2913 RMK AO2 P0000
0305744904947232010010308547+42717-071124FM-15+0045KLWM V0202805N00825003355MN0028165N5-00835-01175098655ADDAA101000025AA203000021AU110030015AW1715GA1085+003355999GD14991+0033559GF108991999999999999999999MA1098655098125MD1840174+9999OC101185REMMET14101/03/10 03:54:02 METAR KLWM 030854Z 28016G23KT 1 3/4SM -SN OVC011 M08/M12 A2913 RMK AO2 PK WND 28030/0843 SLP865 P0000 60000 T10831117 58017EQDQ01  00008PRCP03
0211744904947232010010309157+42717-071124FM-16+0045KLWM V0202805N00575002445WN0012075N5-00805-01105999999ADDAA101000021AU110030015AW1715GA1095+002445999GD15991+0024459GF109991999999000251999999MA1098615098085OC101245REMMET09101/03/10 04:15:02 SPECI KLWM 030915Z 28011G24KT 3/4SM -SN VV008 M08/M11 A2912 RMK AO2 P0000
0248744904947232010010309547+42717-071124FM-15+0045KLWM V0202705N00675001525WN0012075N5-00895-01115098625ADDAA101000025AU110030015AU200001015AW1105AW2715GA1095+001525999GD15991+0015259GF109991999999000251999999MA1098615098085OC100985REMMET11101/03/10 04:54:02 METAR KLWM 030954Z 27013G19KT 3/4SM -SN BR VV005 M09/M11 A2912 RMK AO2 SLP862 P0000 T10891111
0231744904947232010010310157+42717-071124FM-16+0045KLWM V0202805N00575001225WN0012075N5-00905-01105999999ADDAA101000391AU110030015AU200001015AW1105AW2715GA1095+001225999GD15991+0012259GF109991999999000251999999MA1098615098085OC101035REMMET09401/03/10 05:15:02 SPECI KLWM 031015Z 28011G20KT 3/4SM -SN BR VV004 M09/M11 A2912 RMK AO2 P0001
0229744904947232010010310217+42717-071124FM-16+0045KLWM V0202805N00515001525WN0016095N5-00905-01105999999ADDAA101000391AU110030015AU200001015AW1105AW2715GA1095+001525999GD15991+0015259GF109991999999000251999999MA1098615098085OC101035REMMET09201/03/10 05:21:02 SPECI KLWM 031021Z 28010G20KT 1SM -SN BR VV005 M09/M11 A2912 RMK AO2 P0001
0272744904947232010010310457+42717-071124FM-16+0045KLWM V0202805N00575003055MN0024145N5-00905-01105999999ADDAA101000391AU110030015AU200001015AW1105AW2715GA1075+003055999GA2085+007015999GD13991+0030559GD24991+0070159GF108991999999999999999999MA1098585098055OC100885REMMET10401/03/10 05:45:02 SPECI KLWM 031045Z 28011G17KT 1 1/2SM -SN BR BKN010 OVC023 M09/M11 A2911 RMK AO2 P0001
0289744904947232010010310547+42717-071124FM-15+0045KLWM V0202805N00625003055MN0020125N5-00895-01115098625ADDAA101000395AU110030015AU200001015AW1105AW2715GA1075+003055999GA2085+007625999GD13991+0030559GD24991+0076259GF108991999999999999999999MA1098615098085OC101185REMMET12101/03/10 05:54:02 METAR KLWM 031054Z 28012G23KT 1 1/4SM -SN BR BKN010 OVC025 M09/M11 A2912 RMK AO2 SLP862 P0001 T10891111
0248744904947232010010311157+42717-071124FM-16+0045KLWM V0202805N00515002745MN0016095N5-00805-01105999999ADDAA101000021AU110030015AW1715GA1075+002745999GA2085+006405999GD13991+0027459GD24991+0064059GF108991999999999999999999MA1098615098085OC101085REMMET09701/03/10 06:15:02 SPECI KLWM 031115Z 28010G21KT 1SM -SN BKN009 OVC021 M08/M11 A2912 RMK AO2 P0000
0434744904947232010010311547+42717-071124FM-15+0045KLWM V0202805N00575002745MN0020125N5-00835-01115098655ADDAA101000025AA206000391AA324000591AU110030015AW1715GA1075+002745999GA2075+005185999GA3085+007625999GD13991+0027459GD23991+0051859GD34991+0076259GF108991999999999999999999KA1999M-00721KA2999N-00891MA1098655098125MD1540014+9999OC100935REMMET15501/03/10 06:54:02 METAR KLWM 031154Z 28011G18KT 1 1/4SM -SN BKN009 BKN017 OVC025 M08/M11 A2913 RMK AO2 SLP865 P0000 60001 70002 T10831111 11072 21089 55001EQDQ01  00038PRCP06Q02  00058PRCP24
0250744904947232010010312407+42717-071124FM-16+0045KLWM V0203005N00625002135MN0012075N5-00805-01105999999ADDAA101000021AU110030015AW1715GA1075+002135999GA2085+006105999GD13991+0021359GD24991+0061059GF108991999999999999999999MA1098655098125OC101135REMMET09901/03/10 07:40:02 SPECI KLWM 031240Z 30012G22KT 3/4SM -SN BKN007 OVC020 M08/M11 A2913 RMK AO2 P0000
0316744904947232010010312517+42717-071124FM-16+0045KLWM V0202905N00675002135MN0008056N5-00805-01105999999ADDAA101000021AU120030016AW1726GA1075+002135999GA2085+006105999GD13991+0021359GD24991+0061059GF108991999999999999999999MA1098655098125OC100985REMMET09801/03/10 07:51:02 SPECI KLWM 031251Z 29013G19KT 1/2SM SN BKN007 OVC020 M08/M11 A2913 RMK AO2 P0000EQDR01 1/2SM7VIS018R02    SN7AWW018R03SEERMK7MVW018R04    SN7MWW018
0333744904947232010010312547+42717-071124FM-15+0045KLWM V0203105N00515002135MN0008056N5-00785-01115098655ADDAA101000025AU120030016AW1726GA1075+002135999GA2085+006105999GD13991+0021359GD24991+0061059GF108991999999999999999999MA1098655098125OC101185REMMET11501/03/10 07:54:02 METAR KLWM 031254Z 31010G23KT 1/2SM SN BKN007 OVC020 M08/M11 A2913 RMK AO2 SLP865 P0000 T10781111EQDR01 1/2SM7VIS018R02    SN7AWW018R03SEERMK7MVW018R04    SN7MWW018
0250744904947232010010313017+42717-071124FM-16+0045KLWM V0203005N00515002745MN0012075N5-00805-01105999999ADDAA101000021AU110030015AW1715GA1075+002745999GA2085+006105999GD13991+0027459GD24991+0061059GF108991999999999999999999MA1098655098125OC101185REMMET09901/03/10 08:01:02 SPECI KLWM 031301Z 30010G23KT 3/4SM -SN BKN009 OVC020 M08/M11 A2913 RMK AO2 P0000
0259744904947232010010313107+42717-071124FM-16+0045KLWM V0203005N00675003355MN0016095N5-00805-01105999999ADDAA101000021AU110030015AW1715GA1075+003355999GA2085+006105999GD13991+0033559GD24991+0061059GF108991999999999999999999MA1098655098125MW1711OC101185REMMET10201/03/10 08:10:02 SPECI KLWM 031310Z 30013G23KT 1SM -SN BKN011 OVC020 M08/M11 A2913 RMK AO2 P0000 (BO)
0261744904947232010010313227+42717-071124FM-16+0045KLWM V0203005N00675003355MN0012075N5-00805-01105999999ADDAA101000021AU110030015AW1715GA1075+003355999GA2085+005495999GD13991+0033559GD24991+0054959GF108991999999999999999999MA1098655098125MW1711OC101085REMMET10401/03/10 08:22:02 SPECI KLWM 031322Z 30013G21KT 3/4SM -SN BKN011 OVC018 M08/M11 A2913 RMK AO2 P0000 (BO)
0301744904947232010010313307+42717-071124FM-16+0045KLWM V0203105N00515003965MN0020125N5-00805-01105999999ADDAA101000021AU110030015AW1715GA1075+003965999GA2075+005495999GA3085+009145999GD13991+0039659GD23991+0054959GD34991+0091459GF108991999999999999999999MA1098685098155MW1711OC101085REMMET11301/03/10 08:30:02 SPECI KLWM 031330Z 31010G21KT 1 1/4SM -SN BKN013 BKN018 OVC030 M08/M11 A2914 RMK AO2 P0000 (BO)
0280744904947232010010313547+42717-071124FM-15+0045KLWM V0202905N00675004885MN0028165N5-00725-01115098685ADDAA101000025AU110030015AW1715GA1075+004885999GA2085+009145999GD13991+0048859GD24991+0091459GF108991999999999999999999MA1098685098155MW1711OC101185REMMET12301/03/10 08:54:02 METAR KLWM 031354Z 29013G23KT 1 3/4SM -SN BKN016 OVC030 M07/M11 A2914 RMK AO2 SLP868 P0000 T10721111 (BO)
0225744904947232010010314327+42717-071124FM-16+0045KLWM V0202905N00575005495MN0040235N5-00705-01105999999ADDAA101000021AU110030015AW1715GA1085+005495999GD14991+0054959GF108991999999999999999999MA1098715098185MW1711OC100825REMMET09901/03/10 09:32:02 SPECI KLWM 031432Z 29011G16KT 2 1/2SM -SN OVC018 M07/M11 A2915 RMK AO2 P0000 (BO)
0298744904947232010010314547+42717-071124FM-15+0045KLWM V0203105N00575004575MN0028165N5-00675-01115098755ADDAA101000025AA203000021AU110030015AW1715GA1085+004575999GD14991+0045759GF108991999999999999999999MA1098755098225MD1340094+9999MW1711OC100885REMMET12801/03/10 09:54:02 METAR KLWM 031454Z 31011G17KT 1 3/4SM -SN OVC015 M07/M11 A2916 RMK AO2 SLP875 P0000 60000 T10671111 53009 (BO)EQDQ01  00008PRCP03
0259744904947232010010315097+42717-071124FM-16+0045KLWM V0203005N00465007325MN0048285N5-00705-01105999999ADDAA101000021AU110030015AW1715GA1045+003965999GA2085+007325999GD12991+0039659GD24991+0073259GF108991999999999999999999MA1098755098225MW1711OC100825REMMET10201/03/10 10:09:02 SPECI KLWM 031509Z 30009G16KT 3SM -SN SCT013 OVC024 M07/M11 A2916 RMK AO2 P0000 (BO)
0299744904947232010010315547+42717-071124FM-15+0045KLWM V0203205N00675006715MN0080475N5-00565-01005098755ADDAA101000025AU110030015AW1715GA1075+006715999GA2085+009145999GD13991+0067159GD24991+0091459GF108991999999999999999999MA1098755098225MW1711OC101135REMMET14201/03/10 10:54:02 METAR KLWM 031554Z 32013G22KT 5SM -SN BKN022 OVC030 M06/M10 A2916 RMK AO2 UPB16E45SNE16B31E41B45 SLP875 P0000 T10561100 (BO)
0230744904947232010010316547+42717-071124FM-15+0045KLWM V0203205N00625007925MN0160935N5-00335-01005098705ADDAA101000025GA1085+007925999GD14991+0079259GF108991999999999999999999MA1098685098155OC101035REMMET12701/03/10 11:54:02 METAR KLWM 031654Z 32012G20KT 10SM OVC026 M03/M10 A2914 RMK AO2 UPB1556E12SNE1556 SLP870 P0000 T10331100 (BO)
0299744904947232010010317547+42717-071124FM-15+0045KLWM V0203105N00515007325MN0160935N5-00335-00945098775ADDAA101000095AA206000021GA1085+007325999GD14991+0073259GF108991999999999999999999KA1999M-00221KA2999N-00781MA1098785098255MD1340034+9999OC101085REMMET14501/03/10 12:54:02 METAR KLWM 031754Z 31010G21KT 10SM OVC024 M03/M09 A2917 RMK AO2 PK WND 32027/1710 SLP877 60000 T10331094 11022 21078 53003 (TB)
0244744904947232010010318547+42717-071124FM-15+0045KLWM V0203205N00625007925MN0128755N5-00335-00895098885ADDAA101000025AU110030015AW1715GA1085+007925999GD14991+0079259GF108991999999999999999999MA1098855098325MW1711OC100985REMMET11801/03/10 13:54:02 METAR KLWM 031854Z 32012G19KT 8SM -SN OVC026 M03/M09 A2919 RMK AO2 SNB47 SLP888 P0000 T10331089 (TB)
0231744904947232010010319547+42717-071124FM-15+0045KLWM V0203105N00625007925MN0144845N5-00285-00835098965ADDAA101000025GA1085+007925999GD14991+0079259GF108991999999999999999999MA1098955098425OC100885REMMET12801/03/10 14:54:02 METAR KLWM 031954Z 31012G17KT 9SM OVC026 M03/M08 A2922 RMK AO2 UPB35E41SNE31B41E50 SLP896 P0000 T10281083 (TB)
0243744904947232010010320547+42717-071124FM-15+0045KLWM V0203205N00515007325MN0160935N5-00285-00725099065ADDAA101000095AA203000021GA1085+007325999GD14991+0073259GF108991999999999999999999MA1099055098525MD1340274+9999OC100885REMMET11501/03/10 15:54:02 METAR KLWM 032054Z 32010G17KT 10SM OVC024 M03/M07 A2925 RMK AO2 SLP906 60000 T10281072 53027 (TB)
0206744904947232010010321547+42717-071124FM-15+0045KLWM V0203205N00365007325MN0160935N5-00285-00675099135ADDAA101000095GA1085+007325999GD14991+0073259GF108991999999999999999999MA1099125098595OC100825REMMET10301/03/10 16:54:02 METAR KLWM 032154Z 32007G16KT 10SM OVC024 M03/M07 A2927 RMK AO2 SLP913 T10281067 (TB)
0259744904947232010010322547+42717-071124FM-15+0045KLWM V0203205V00415007925MN0160935N5-00225-00725099215ADDAA101000025GA1075+007925999GA2085+011285999GD13991+0079259GD24991+0112859GF108991999999999999999999MA1099195098665OC100775REMMET12501/03/10 17:54:02 METAR KLWM 032254Z 32008G15KT 10SM BKN026 OVC037 M02/M07 A2929 RMK AO2 SNB25E43 SLP921 P0000 T10221072 (TB)
0216744904947232010010323057+42717-071124FM-16+0045KLWM V0203305N00415009145MN0160935N5-00205-00705999999ADDGA1075+009145999GA2085+012195999GD13991+0091459GD24991+0121959GF108991999999999999999999MA1099225098695OC100935REMMET09301/03/10 18:05:02 SPECI KLWM 032305Z 33008G18KT 10SM BKN030 OVC040 M02/M07 A2930 RMK AO2 (TB)
0357744904947232010010323547+42717-071124FM-15+0045KLWM V0203205N00515009455MN0160935N5-00175-00725099285ADDAA101000095AA206000021GA1025+007625999GA2075+009455999GA3085+024385999GD11991+0076259GD23991+0094559GD34991+0243859GF108991999999999999999999KA1999M-00171KA2999N-00391MA1099265098725MD1340234+9999OC100885REMMET14101/03/10 18:54:02 METAR KLWM 032354Z 32010G17KT 10SM FEW025 BKN031 OVC080 M02/M07 A2931 RMK AO2 SLP928 60000 T10171072 11017 21039 53023 (TB)
0277744904947232010010400547+42717-071124FM-15+0045KLWM V0203205N00515016765MN0160935N5-00175-00725099345ADDAA101000095GA1045+009455999GA2075+016765999GA3085+030485999GD12991+0094559GD23991+0167659GD34991+0304859GF108991999999999999999999MA1099325098795OC100885REMMET11201/03/10 19:54:02 METAR KLWM 040054Z 32010G17KT 10SM SCT031 BKN055 OVC100 M02/M07 A2933 RMK AO2 SLP934 T10171072
0238744904947232010010401357+42717-071124FM-16+0045KLWM V0203205N00415008535MN0160935N5-00205-00705999999ADDGA1075+008535999GA2075+018295999GA3085+027435999GD13991+0085359GD23991+0182959GD34991+0274359GF108991999999999999999999MA1099365098835REMMET09201/03/10 20:35:02 SPECI KLWM 040135Z 32008KT 10SM BKN028 BKN060 OVC090 M02/M07 A2934 RMK AO2
0200744904947232010010401447+42717-071124FM-16+0045KLWM V0203205N00415009145MN0160935N5-00205-00705999999ADDGA1075+009145999GA2085+014335999GD13991+0091459GD24991+0143359GF108991999999999999999999MA1099365098835REMMET08501/03/10 20:44:02 SPECI KLWM 040144Z 32008KT 10SM BKN030 OVC047 M02/M07 A2934 RMK AO2
0315744904947232010010401547+42717-071124FM-15+0045KLWM V0203105N00415009145MN0144845N5-00175-00675099405ADDAA101000025AU110030015AW1715GA1025+007625999GA2075+009145999GA3085+010675999GD11991+0076259GD23991+0091459GD34991+0106759GF108991999999999999999999MA1099395098865MW1711OC100775REMMET12701/03/10 20:54:02 METAR KLWM 040154Z 31008G15KT 9SM -SN FEW025 BKN030 OVC035 M02/M07 A2935 RMK AO2 SNB54 SLP940 P0000 T10171067
0248744904947232010010402017+42717-071124FM-16+0045KLWM V0203205N00625008235MN0112655N5-00205-00705999999ADDAA101000021AU110030015AW1715GA1075+008235999GA2085+010065999GD13991+0082359GD24991+0100659GF108991999999999999999999MA1099395098865OC100885REMMET09701/03/10 21:01:02 SPECI KLWM 040201Z 32012G17KT 7SM -SN BKN027 OVC033 M02/M07 A2935 RMK AO2 P0000
0275744904947232010010402117+42717-071124FM-16+0045KLWM V0203105N00515011585MN0128755N5-00205-00705999999ADDAA101000021AU110030015AW1715GA1025+007625999GA2075+011585999GA3085+030485999GD11991+0076259GD23991+0115859GD34991+0304859GF108991999999999999999999MA1099395098865REMMET10101/03/10 21:11:02 SPECI KLWM 040211Z 31010KT 8SM -SN FEW025 BKN038 OVC100 M02/M07 A2935 RMK AO2 P0000
0202744904947232010010402526+42717-071124FM-16+0045KLWM V0203205N00575008535MN0160935N5-00205-00705999999ADDGA1075+008535999GA2085+012195999GD13991+0085359GD24991+0121959MA1099425098895OC100885REMMET10501/03/10 21:52:03 SPECI KLWM 040252Z 32011G17KT 10SM BKN028 OVC040 M02/M07 A2936 RMK AO2 SNE14 P0000 FIBI
0307744904947232010010402547+42717-071124FM-15+0045KLWM V0203205N00625008535MN0160935N5-00175-00675099455ADDAA101000025AA203000021GA1075+008535999GA2085+012195999GD13991+0085359GD24991+0121959GF108991999999999999999999MA1099425098895MD1140114+9999OC100885REMMET12901/03/10 21:54:02 METAR KLWM 040254Z 32012G17KT 10SM BKN028 OVC040 M02/M07 A2936 RMK AO2 SNE14 SLP945 P0000 60000 T10171067 51011EQDQ01  00008PRCP03
0211744904947232010010403167+42717-071124FM-16+0045KLWM V0203205N00465012195MN0160935N5-00205-00705999999ADDGA1045+008535999GA2085+012195999GD12991+0085359GD24991+0121959GF108991999999999999999999MA1099465098935OC100825REMMET08801/03/10 22:16:02 SPECI KLWM 040316Z 32009G16KT 10SM SCT028 OVC040 M02/M07 A2937 RMK AO2
0201744904947232010010403547+42717-071124FM-15+0045KLWM V0203205V00515012195MN0160935N5-00115-00675099475ADDAA101000095GA1085+012195999GD14991+0121959GF108991999999999999999999MA1099465098935OC100825REMMET09801/03/10 22:54:01 METAR KLWM 040354Z 32010G16KT 10SM OVC040 M01/M07 A2937 RMK AO2 SLP947 T10111067
0211744904947232010010404547+42717-071124FM-15+0045KLWM V0203105N00465013415MN0160935N5-00115-00675099495ADDAA101000095GA1085+013415999GD14991+0134159GF108991999999999999999999MA1099495098965OC100885REMMET10801/03/10 23:54:02 METAR KLWM 040454Z 31009G17KT 10SM OVC044 M01/M07 A2938 RMK AO2 SLP949 T10111067 410111089
0912744904947232010010404596+42717-071124SOD  +0045KLWM V020999999999999999999999999999+99999+99999999999ADDAA124000395AX1015245KA1240M-00105KA2240N-00885MG1098324098614OE11240156528003435OE22240098328003435OE33240057299999995REMSOD74724 HR PRECIPITATION (IN):0.01  WEATHER(CODE):1  24 HR MAX TEMP (F):30 24 HR MAX TEMP TIME (LST):2359 24 HR MIN TEMP (F):16 24 HR MIN TEMP TIME (LST):0612 AVERAGE STATION PRESSURE:29.035 MINIMUM SEA LEVEL PRESSURE:29.12 TIME OF OCCURRENCE:0625 PEAK WIND SPEED (MPH):35  PEAK WIND DIR (DEG):280 PEAK WIND TIME (LST):0343  FASTEST 2MIN SPEED (MPH):22 FASTEST 2MIN DIR (DEG):280 FASTEST 2MIN TIME (LST):0343 AVERAGE WIND SPEED (MPH):12.8 24 HR AVG TEMP (F):23 HEATING DEGREE DAYS:42  COOLING DEGREE DAYS:0   LATEST DAY MAX TEMP (0700-1900 LST):29  LATEST NIGHT MIN TEMP(1900-0800 LST):16 HOURLY INCREMENTAL PRECIPITATION VALUES (IN):    T    T    T    T    0.01 T    T    T    T    T    T    0.00 T    T    0.00 0.00 T    0.00 0.00 T    T    0.00 0.00EQDR01     N7GJS072R02     N7GKS075
0276744904947232010010405547+42717-071124FM-15+0045KLWM V0203205N00515016765MN0160935N5-00065-00615099555ADDAA101000095AA206000021GA1085+016765999GD14991+0167659GF108991999999999999999999KA1999M-00061KA2999N-00221MA1099535098995MD1340104+9999OC100885REMMET12201/04/10 00:54:02 METAR KLWM 040554Z 32010G17KT 10SM OVC055 M01/M06 A2939 RMK AO2 SLP955 60000 T10061061 11006 21022 53010
0239744904947232010010406547+42717-071124FM-15+0045KLWM V0203105N00465016765MN0160935N5-00065-00565099605ADDAA101000095GA1075+016765999GA2075+022865999GD13991+0167659GD23991+0228659GF107991999999999999999999MA1099595099065OC100935REMMET10501/04/10 01:54:02 METAR KLWM 040654Z 31009G18KT 10SM BKN055 BKN075 M01/M06 A2941 RMK AO2 SLP960 T10061056
0156744904947232010010407547+42717-071124FM-15+0045KLWM V0203105N003652200059N0160935N5-00115-00615099655ADDAA101000095GF100991999999999999999999MA1099635099105REMMET09201/04/10 02:54:02 METAR KLWM 040754Z 31007KT 10SM CLR M01/M06 A2942 RMK AO2 SLP965 T10111061
0176744904947232010010408547+42717-071124FM-15+0045KLWM V0203005N003152200059N0160935N5-00115-00615099675ADDAA101000095GF100991999999999999999999MA1099665099135MD1140124+9999REMMET09801/04/10 03:54:02 METAR KLWM 040854Z 30006KT 10SM CLR M01/M06 A2943 RMK AO2 SLP967 T10111061 51012
0167744904947232010010409547+42717-071124FM-15+0045KLWM V0203005N005752200059N0160935N5-00175-00675099695ADDAA101000095GF100991999999999999999999MA1099705099165OC100825REMMET09501/04/10 04:54:02 METAR KLWM 040954Z 30011G16KT 10SM CLR M02/M07 A2944 RMK AO2 SLP969 T10171067
0167744904947232010010410547+42717-071124FM-15+0045KLWM V0203005N004652200059N0160935N5-00175-00675099795ADDAA101000095GF100991999999999999999999MA1099805099265OC100885REMMET09501/04/10 05:54:02 METAR KLWM 041054Z 30009G17KT 10SM CLR M02/M07 A2947 RMK AO2 SLP979 T10171067
0230744904947232010010411547+42717-071124FM-15+0045KLWM V0202905N006252200059N0160935N5-00225-00725099825ADDAA101000095GF100991999999999999999999KA1999M-00061KA2999N-00221MA1099805099265MD1340154+9999OC100935REMMET11801/04/10 06:54:02 METAR KLWM 041154Z 29012G18KT 10SM CLR M02/M07 A2947 RMK AO2 SLP982 T10221072 11006 21022 53015 (TB)
0161744904947232010010412547+42717-071124FM-15+0045KLWM V0202705N003152200059N0160935N5-00225-00725099865ADDAA101000095GF100991999999999999999999MA1099865099335REMMET09701/04/10 07:54:02 METAR KLWM 041254Z 27006KT 10SM CLR M02/M07 A2949 RMK AO2 SLP986 T10221072 (TB)
0172744904947232010010413547+42717-071124FM-15+0045KLWM V0203105V005152200059N0160935N5-00175-00785099925ADDAA101000095GF100991999999999999999999MA1099905099365OC100885REMMET10001/04/10 08:54:02 METAR KLWM 041354Z 31010G17KT 10SM CLR M02/M08 A2950 RMK AO2 SLP992 T10171078 (TB)
0192744904947232010010414547+42717-071124FM-15+0045KLWM V0203105N005152200059N0160935N5-00115-00785099955ADDAA101000095GF100991999999999999999999MA1099935099405MD1140134+9999OC100885REMMET10601/04/10 09:54:02 METAR KLWM 041454Z 31010G17KT 10SM CLR M01/M08 A2951 RMK AO2 SLP995 T10111078 51013 (TB)
0206744904947232010010415547+42717-071124FM-15+0045KLWM V0203005N00415018295MN0160935N5-00065-00785099975ADDAA101000095GA1075+018295999GD13991+0182959GF107991999999999999999999MA1099975099435OC100885REMMET10301/04/10 10:54:02 METAR KLWM 041554Z 30008G17KT 10SM BKN060 M01/M08 A2952 RMK AO2 SLP997 T10061078 (TB)
0205744904947232010010416547+42717-071124FM-15+0045KLWM V0203005N005152200059N0160935N5+00065-00785099935ADDAA101000095GA1045+021345999GD12991+0213459GF104991999999999999999999MA1099935099405OC100825REMMET10201/04/10 11:54:02 METAR KLWM 041654Z 30010G16KT 10SM SCT070 01/M08 A2951 RMK AO2 SLP993 T00061078 (TB)
0290744904947232010010417547+42717-071124FM-15+0045KLWM V0203305N00515019815MN0160935N5+00065-00785099925ADDAA101000095GA1075+019815999GA2085+024385999GD13991+0198159GD24991+0243859GF108991999999999999999999KA1999M+00061KA2999N-00221MA1099905099365MD1840034+9999REMMET12401/04/10 12:54:02 METAR KLWM 041754Z 33010KT 10SM BKN065 OVC080 01/M08 A2950 RMK AO2 SLP992 T00061078 10006 21022 58003 (TB)
0194744904947232010010418547+42717-071124FM-15+0045KLWM V0203005N00415015245MN0160935N5+00005-00785099995ADDAA101000095GA1085+015245999GD14991+0152459GF108991999999999999999999MA1099975099435REMMET09901/04/10 13:54:02 METAR KLWM 041854Z 30008KT 10SM OVC050 00/M08 A2952 RMK AO2 SLP999 T00001078 (TB)
0243744904947232010010419547+42717-071124FM-15+0045KLWM V0203205N00365014945MN0160935N5+00005-00785100025ADDAA101000095GA1075+014945999GA2085+018295999GD13991+0149459GD24991+0182959GF108991999999999999999999MA1100005099475OC100775REMMET10901/04/10 14:54:02 METAR KLWM 041954Z 32007G15KT 10SM BKN049 OVC060 00/M08 A2953 RMK AO2 SLP002 T00001078 (MP)
0253744904947232010010420547+42717-071124FM-15+0045KLWM V0203105N00365014635MN0160935N5-00115-00675100085ADDAA101000095GA1075+014635999GA2085+018295999GD13991+0146359GD24991+0182959GF108991999999999999999999MA1100075099535MD1140164+9999REMMET11301/04/10 15:54:02 METAR KLWM 042054Z 31007KT 10SM BKN048 OVC060 M01/M07 A2955 RMK AO2 SLP008 T10111067 51016 (MP)
0248744904947232010010421547+42717-071124FM-15+0045KLWM V0203005N00465013415MN0160935N5-00115-00725100125ADDAA101000025GA1075+013415999GA2085+018295999GD13991+0134159GD24991+0182959GF108991999999999999999999MA1100105099575REMMET12201/04/10 16:54:02 METAR KLWM 042154Z 30009KT 10SM BKN044 OVC060 M01/M07 A2956 RMK AO2 SNB16E23 SLP012 P0000 T10111072 (MP)
0271744904947232010010422547+42717-071124FM-15+0045KLWM V0203105N00265013415MN0160935N5-00115-00785100165ADDAA101000095GA1075+013415999GA2075+018295999GA3085+021345999GD13991+0134159GD23991+0182959GD34991+0213459GF108991999999999999999999MA1100145099605REMMET11401/04/10 17:54:02 METAR KLWM 042254Z 31005KT 10SM BKN044 BKN060 OVC070 M01/M08 A2957 RMK AO2 SLP016 T10111078 (CZ)
0308744904947232010010423547+42717-071124FM-15+0045KLWM V0203005N00415019815MN0160935N5-00175-00835100205ADDAA101000095AA206000021GA1025+012805999GA2085+019815999GD11991+0128059GD24991+0198159GF108991999999999999999999KA1999M+00061KA2999N-00171MA1100205099675MD1140134+9999REMMET13101/04/10 18:54:02 METAR KLWM 042354Z 30008KT 10SM FEW042 OVC065 M02/M08 A2959 RMK AO2 SLP020 60000 T10171083 10006 21017 51013 (CZ)
0228744904947232010010500547+42717-071124FM-15+0045KLWM V0203005V00365019815MN0160935N5-00225-00835100235ADDAA101000095GA1045+012805999GA2085+019815999GD12991+0128059GD24991+0198159GF108991999999999999999999MA1100245099705REMMET10201/04/10 19:54:02 METAR KLWM 050054Z 30007KT 10SM SCT042 OVC065 M02/M08 A2960 RMK AO2 SLP023 T10221083
0228744904947232010010501547+42717-071124FM-15+0045KLWM V0203005N00315019815MN0160935N5-00225-00835100265ADDAA101000095GA1025+010065999GA2085+019815999GD11991+0100659GD24991+0198159GF108991999999999999999999MA1100245099705REMMET10201/04/10 20:54:02 METAR KLWM 050154Z 30006KT 10SM FEW033 OVC065 M02/M08 A2960 RMK AO2 SLP026 T10221083
0210744904947232010010502547+42717-071124FM-15+0045KLWM V0203005N00415010065MN0160935N5-00285-00895100285ADDAA101000095GA1085+010065999GD14991+0100659GF108991999999999999999999MA1100275099745MD1140074+9999REMMET10101/04/10 21:54:01 METAR KLWM 050254Z 30008KT 10SM OVC033 M03/M09 A2961 RMK AO2 SLP028 T10281089 51007
0190744904947232010010503547+42717-071124FM-15+0045KLWM V0203005N00365010065MN0160935N5-00285-00895100285ADDAA101000095GA1085+010065999GD14991+0100659GF108991999999999999999999MA1100275099745REMMET09501/04/10 22:54:01 METAR KLWM 050354Z 30007KT 10SM OVC033 M03/M09 A2961 RMK AO2 SLP028 T10281089
0162744904947232010010504457+42717-071124FM-16+0045KLWM V0203105N00365008845MN0160935N5-00305-00905999999ADDGA1085+008845999GD14991+0088459GF108991999999999999999999MA1100275099745REMMET07801/04/10 23:45:02 SPECI KLWM 050445Z 31007KT 10SM OVC029 M03/M09 A2961 RMK AO2
0200744904947232010010504547+42717-071124FM-15+0045KLWM V0203005N00365008845MN0160935N5-00335-00895100265ADDAA101000095GA1085+008845999GD14991+0088459GF108991999999999999999999MA1100245099705REMMET10501/04/10 23:54:01 METAR KLWM 050454Z 30007KT 10SM OVC029 M03/M09 A2960 RMK AO2 SLP026 T10331089 400061033
0886744904947232010010504596+42717-071124SOD  +0045KLWM V020999999999999999999999999999+99999+99999999999ADDAA124000025KA1240M+00065KA2240N-00325MG1099314099494OE11240111831009035OE22240080531011085OE33240042099999995REMSOD73024 HR PRECIPITATION (IN):T     24 HR MAX TEMP (F):33 24 HR MAX TEMP TIME (LST):1329 24 HR MIN TEMP (F):26 24 HR MIN TEMP TIME (LST):2359 AVERAGE STATION PRESSURE:29.325 MINIMUM SEA LEVEL PRESSURE:29.38 TIME OF OCCURRENCE:0012 PEAK WIND SPEED (MPH):25  PEAK WIND DIR (DEG):310 PEAK WIND TIME (LST):0903  FASTEST 2MIN SPEED (MPH):18 FASTEST 2MIN DIR (DEG):310 FASTEST 2MIN TIME (LST):1108 AVERAGE WIND SPEED (MPH):9.4  24 HR AVG TEMP (F):30 HEATING DEGREE DAYS:35  COOLING DEGREE DAYS:0   LATEST DAY MAX TEMP (0700-1900 LST):33  LATEST NIGHT MIN TEMP(1900-0800 LST):28 HOURLY INCREMENTAL PRECIPITATION VALUES (IN):.00 0.00 0.00 0.00 0.00 0.00 0.00 0.00 0.00 0.00 0.00 0.00 0.00 0.00 0.00 0.00 T    0.00 0.00 0.00 0.00 0.00 0.00 0.00EQDR01     N7GJS072R02     N7GKS075
0178744904947232010010505157+42717-071124FM-16+0045KLWM V0203105N00465009455MN0160935N5-00305-00905999999ADDGA1085+009455999GD14991+0094559GF108991999999999999999999MA1100245099705OC100725REMMET08601/05/10 00:15:02 SPECI KLWM 050515Z 31009G14KT 10SM OVC031 M03/M09 A2960 RMK AO2 (CZ)
0327744904947232010010505547+42717-071124FM-15+0045KLWM V0203205N00465010675MN0112655N5-00395-00835100245ADDAA101000021AA206000021AU110030015AW1715GA1085+010675999GD14991+0106759GF108991999999999999999999KA1999M-00171KA2999N-00391MA1100245099705MD1840034+9999MW1711REMMET13901/05/10 00:54:02 METAR KLWM 050554Z 32009KT 7SM -SN OVC035 M04/M08 A2960 RMK AO2 SNB52 SLP024 P0000 60000 T10391083 11017 21039 58003 (CZ)EQDQ01  00008PRCP06
0207744904947232010010506547+42717-071124FM-15+0045KLWM V0203005N00265016765MN0160935N5-00335-00895100255ADDAA101000021GA1085+016765999GD14991+0167659GF108991999999999999999999MA1100245099705REMMET11201/05/10 01:54:02 METAR KLWM 050654Z 30005KT 10SM OVC055 M03/M09 A2960 RMK AO2 SNE14 SLP025 P0000 T10331089 (CZ)
0179744904947232010010507547+42717-071124FM-15+0045KLWM V0203005N00315015245MN0160935N5-00335-00895100265ADDGA1085+015245999GD14991+0152459GF108991999999999999999999MA1100245099705REMMET09501/05/10 02:54:02 METAR KLWM 050754Z 30006KT 10SM OVC050 M03/M09 A2960 RMK AO2 SLP026 T10331089
0235744904947232010010508547+42717-071124FM-15+0045KLWM V0203005N00215014635MN0160935N5-00395-00895100255ADDAA103000021GA1085+014635999GD14991+0146359GF108991999999999999999999MA1100245099705MD1040004+9999REMMET10701/05/10 03:54:02 METAR KLWM 050854Z 30004KT 10SM OVC048 M04/M09 A2960 RMK AO2 SLP025 60000 T10391089 50000EQDQ01  00008PRCP03
0179744904947232010010509547+42717-071124FM-15+0045KLWM V0203005N00265015245MN0160935N5-00395-00945100245ADDGA1085+015245999GD14991+0152459GF108991999999999999999999MA1100245099705REMMET09501/05/10 04:54:02 METAR KLWM 050954Z 30005KT 10SM OVC050 M04/M09 A2960 RMK AO2 SLP024 T10391094
0179744904947232010010510547+42717-071124FM-15+0045KLWM V0203005N00415016765MN0160935N5-00395-00945100275ADDGA1085+016765999GD14991+0167659GF108991999999999999999999MA1100275099745REMMET09501/05/10 05:54:02 METAR KLWM 051054Z 30008KT 10SM OVC055 M04/M09 A2961 RMK AO2 SLP027 T10391094
0278744904947232010010511547+42717-071124FM-15+0045KLWM V0203005N00315016765MN0160935N5-00395-00945100285ADDAA106000021GA1085+016765999GD14991+0167659GF108991999999999999999999KA1999M-00331KA2999N-00391MA1100275099745MD1340034+9999REMMET12401/05/10 06:54:02 METAR KLWM 051154Z 30006KT 10SM OVC055 M04/M09 A2961 RMK AO2 SLP028 60000 T10391094 11033 21039 53003 (MP)EQDQ01  00008PRCP06
0184744904947232010010512547+42717-071124FM-15+0045KLWM V0203005N00365016765MN0160935N5-00395-01005100295ADDGA1085+016765999GD14991+0167659GF108991999999999999999999MA1100275099745REMMET10001/05/10 07:54:02 METAR KLWM 051254Z 30007KT 10SM OVC055 M04/M10 A2961 RMK AO2 SLP029 T10391100 (MP)
0184744904947232010010513547+42717-071124FM-15+0045KLWM V0209999V00265015245MN0160935N5-00395-00945100325ADDGA1085+015245999GD14991+0152459GF108991999999999999999999MA1100305099775REMMET10001/05/10 08:54:02 METAR KLWM 051354Z VRB05KT 10SM OVC050 M04/M09 A2962 RMK AO2 SLP032 T10391094 (MP)
0199744904947232010010514547+42717-071124FM-15+0045KLWM V0203005N00415015245MN0160935N5-00335-00945100325ADDGA1085+015245999GD14991+0152459GF108991999999999999999999MA1100305099775MD1140054+9999REMMET10101/05/10 09:54:02 METAR KLWM 051454Z 30008KT 10SM OVC050 M03/M09 A2962 RMK AO2 SLP032 T10331094 51005
0139744904947232010010515547+42717-071124FM-15+0045KLWM V0202805N003652200019N0160935N5-00285-00945999999ADDAA101000095REMMET08101/05/10 10:54:02 METAR KLWM 051554Z 28007KT 10SM M03/M09 RMK AO2 SLPNO T10281094EQDR01      7SKY009R02      7GAS009
0195744904947232010010516547+42717-071124FM-15+0045KLWM V0202805N00265015245MN0160935N5-00175-00895100185ADDAA101000095GA1085+015245999GD14991+0152459GF108991999999999999999999MA1100175099635REMMET10001/05/10 11:54:02 METAR KLWM 051654Z 28005KT 10SM OVC050 M02/M09 A2958 RMK AO2 SLP018 T10171089 (MP)
0239744904947232010010517547+42717-071124FM-15+0045KLWM V0203105N00265015245MN0160935N5-00115-00895100115ADDAA101000095GA1085+015245999GD14991+0152459GF108991999999999999999999KA1999M-00111KA2999N-00391MA1100105099575REMMET11801/05/10 12:54:02 METAR KLWM 051754Z 31005KT 10SM OVC050 M01/M09 A2956 RMK AO2 SLP011 6//// T10111089 11011 21039 (CZ)
0194744904947232010010518547+42717-071124FM-15+0045KLWM V0209999V00155014635MN0160935N5+00065-00835100095ADDAA101000095GA1085+014635999GD14991+0146359GF108991999999999999999999MA1100075099535REMMET09901/05/10 13:54:02 METAR KLWM 051854Z VRB03KT 10SM OVC048 01/M08 A2955 RMK AO2 SLP009 T00061083 (CZ)
0194744904947232010010519547+42717-071124FM-15+0045KLWM V0203105N00265014025MN0160935N5+00005-00835100115ADDAA101000095GA1085+014025999GD14991+0140259GF108991999999999999999999MA1100105099575REMMET09901/05/10 14:54:02 METAR KLWM 051954Z 31005KT 10SM OVC046 00/M08 A2956 RMK AO2 SLP011 T00001083 (CZ)
0252744904947232010010520547+42717-071124FM-15+0045KLWM V0203105N00315014025MN0160935N5+00005-00785100115ADDAA101000095GA1075+014025999GA2085+016765999GD13991+0140259GD24991+0167659GF108991999999999999999999MA1100105099575MD1540004+9999REMMET11201/05/10 15:54:02 METAR KLWM 052054Z 31006KT 10SM BKN046 OVC055 00/M08 A2956 RMK AO2 SLP011 T00001078 55000 (CZ)
0195744904947232010010521547+42717-071124FM-15+0045KLWM V0203005N00315013115MN0160935N5-00065-00725100105ADDAA101000095GA1085+013115999GD14991+0131159GF108991999999999999999999MA1100105099575REMMET10001/05/10 16:54:02 METAR KLWM 052154Z 30006KT 10SM OVC043 M01/M07 A2956 RMK AO2 SLP010 T10061072 (RR)
0195744904947232010010522547+42717-071124FM-15+0045KLWM V0203105N00415012505MN0160935N5-00115-00725100125ADDAA101000095GA1085+012505999GD14991+0125059GF108991999999999999999999MA1100105099575REMMET10001/05/10 17:54:02 METAR KLWM 052254Z 31008KT 10SM OVC041 M01/M07 A2956 RMK AO2 SLP012 T10111072 (RR)
0365744904947232010010523547+42717-071124FM-15+0045KLWM V0203005N00415014635MN0144845N5-00225-00615100145ADDAA101000025AA206000021AU110030015AW1715GA1075+014635999GA2085+019815999GD13991+0146359GD24991+0198159GF108991999999999999999999KA1999M+00061KA2999N-00221MA1100145099605MD1340034+9999MW1711REMMET14601/05/10 18:54:02 METAR KLWM 052354Z 30008KT 9SM -SN BKN048 OVC065 M02/M06 A2957 RMK AO2 SNB22 SLP014 P0000 60000 T10221061 10006 21022 53003 (RR)EQDQ01  00008PRCP06
0202744904947232010010600547+42717-071124FM-15+0045KLWM V0203105N00365016765MN0160935N5-00175-00725100165ADDAA101000025GA1085+016765999GD14991+0167659GF108991999999999999999999MA1100145099605REMMET10701/05/10 19:54:02 METAR KLWM 060054Z 31007KT 10SM OVC055 M02/M07 A2957 RMK AO2 SNE02 SLP016 P0000 T10171072
0190744904947232010010601547+42717-071124FM-15+0045KLWM V0203005N00315010065MN0160935N5-00175-00725100155ADDAA101000095GA1085+010065999GD14991+0100659GF108991999999999999999999MA1100145099605REMMET09501/05/10 20:54:02 METAR KLWM 060154Z 30006KT 10SM OVC033 M02/M07 A2957 RMK AO2 SLP015 T10171072
0227744904947232010010602547+42717-071124FM-15+0045KLWM V0203105N00265010675MN0160935N5-00225-00725100205ADDAA101000095AA203000021GA1085+010675999GD14991+0106759GF108991999999999999999999MA1100205099675MD1340064+9999REMMET10701/05/10 21:54:02 METAR KLWM 060254Z 31005KT 10SM OVC035 M02/M07 A2959 RMK AO2 SLP020 60000 T10221072 53006
0228744904947232010010603547+42717-071124FM-15+0045KLWM V0203105N00465011895MN0160935N5-00225-00785100205ADDAA101000095GA1045+009145999GA2085+011895999GD12991+0091459GD24991+0118959GF108991999999999999999999MA1100205099675REMMET10201/05/10 22:54:01 METAR KLWM 060354Z 31009KT 10SM SCT030 OVC039 M02/M08 A2959 RMK AO2 SLP020 T10221078
0211744904947232010010604547+42717-071124FM-15+0045KLWM V0203205N00265009145MN0160935N5-00285-00785100175ADDAA101000095GA1085+009145999GD14991+0091459GF108991999999999999999999MA1100175099635OC100775REMMET10801/05/10 23:54:02 METAR KLWM 060454Z 32005G15KT 10SM OVC030 M03/M08 A2958 RMK AO2 SLP017 T10281078 400061039
0928744904947232010010604596+42717-071124SOD  +0045KLWM V020999999999999999999999999999+99999+99999999999ADDAA124000025AX1086246KA1240M+00065KA2240N-00385MG1099634100074OE11240089431023075OE22240062631023075OE33240031799999995REMSOD74724 HR PRECIPITATION (IN):T     WEATHER(CODE):8  24 HR MAX TEMP (F):33 24 HR MAX TEMP TIME (LST):1509 24 HR MIN TEMP (F):25 24 HR MIN TEMP TIME (LST):0923 AVERAGE STATION PRESSURE:29.420 MINIMUM SEA LEVEL PRESSURE:29.55 TIME OF OCCURRENCE:1356 PEAK WIND SPEED (MPH):20  PEAK WIND DIR (DEG):310 PEAK WIND TIME (LST):2307  FASTEST 2MIN SPEED (MPH):14 FASTEST 2MIN DIR (DEG):310 FASTEST 2MIN TIME (LST):2307 AVERAGE WIND SPEED (MPH):7.1  24 HR AVG TEMP (F):29 HEATING DEGREE DAYS:36  COOLING DEGREE DAYS:0   LATEST DAY MAX TEMP (0700-1900 LST):33  LATEST NIGHT MIN TEMP(1900-0800 LST):25 HOURLY INCREMENTAL PRECIPITATION VALUES (IN):    M    M    M    M    M    M    M    M    M    0.00 0.00 0.00 0.00 0.00 0.00 0.00 0.00 T    T    0.00 0.00 0.00 0.00EQDR01     87AXW093R02     N7GJS072R03     N7GKS075
0270744904947232010010605547+42717-071124FM-15+0045KLWM V0203205N00415009145MN0160935N5-00285-00835100155ADDAA101000095AA206000021GA1085+009145999GD14991+0091459GF108991999999999999999999KA1999M-00171KA2999N-00281MA1100145099605MD1840054+9999REMMET12401/06/10 00:54:02 METAR KLWM 060554Z 32008KT 10SM OVC030 M03/M08 A2957 RMK AO2 SLP015 60000 T10281083 11017 21028 58005 (RR)
0201744904947232010010606547+42717-071124FM-15+0045KLWM V0203105N00415009145MN0160935N5-00335-00835100195ADDAA101000095GA1085+009145999GD14991+0091459GF108991999999999999999999MA1100175099635OC100775REMMET09801/06/10 01:54:02 METAR KLWM 060654Z 31008G15KT 10SM OVC030 M03/M08 A2958 RMK AO2 SLP019 T10331083
0190744904947232010010607547+42717-071124FM-15+0045KLWM V0203005N00465009755MN0160935N5-00335-00895100195ADDAA101000095GA1085+009755999GD14991+0097559GF108991999999999999999999MA1100175099635REMMET09501/06/10 02:54:02 METAR KLWM 060754Z 30009KT 10SM OVC032 M03/M09 A2958 RMK AO2 SLP019 T10331089
0176744904947232010010608547+42717-071124FM-15+0045KLWM V0202905N002652200059N0160935N5-00445-00945100175ADDAA101000095GF100991999999999999999999MA1100175099635MD1040024+9999REMMET09801/06/10 03:54:02 METAR KLWM 060854Z 29005KT 10SM CLR M04/M09 A2958 RMK AO2 SLP017 T10441094 50002
0156744904947232010010609547+42717-071124FM-15+0045KLWM V0202605N002152200059N0160935N5-00565-01005100155ADDAA101000095GF100991999999999999999999MA1100145099605REMMET09201/06/10 04:54:02 METAR KLWM 060954Z 26004KT 10SM CLR M06/M10 A2957 RMK AO2 SLP015 T10561100
0156744904947232010010610547+42717-071124FM-15+0045KLWM V0202805N002152200059N0160935N5-00565-01005100165ADDAA101000095GF100991999999999999999999MA1100145099605REMMET09201/06/10 05:54:02 METAR KLWM 061054Z 28004KT 10SM CLR M06/M10 A2957 RMK AO2 SLP016 T10561100
0220744904947232010010611547+42717-071124FM-15+0045KLWM V0202805N002152200059N0160935N5-00615-01005100185ADDAA101000095GF100991999999999999999999KA1999M-00281KA2999N-00611MA1100175099635MD1340014+9999REMMET11601/06/10 06:54:02 METAR KLWM 061154Z 28004KT 10SM CLR M06/M10 A2958 RMK AO2 SLP018 7//// T10611100 11028 21061 53001
0161744904947232010010612547+42717-071124FM-15+0045KLWM V0202605N003652200059N0160935N5-00565-01005100205ADDAA101000095GF100991999999999999999999MA1100205099675REMMET09701/06/10 07:54:02 METAR KLWM 061254Z 26007KT 10SM CLR M06/M10 A2959 RMK AO2 SLP020 T10561100 (CZ)
0161744904947232010010613547+42717-071124FM-15+0045KLWM V0202905N004652200059N0160935N5-00445-01005100235ADDAA101000095GF100991999999999999999999MA1100245099705REMMET09701/06/10 08:54:02 METAR KLWM 061354Z 29009KT 10SM CLR M04/M10 A2960 RMK AO2 SLP023 T10441100 (CZ)
0192744904947232010010614547+42717-071124FM-15+0045KLWM V0203005N005752200059N0160935N5-00285-01005100255ADDAA101000095GF100991999999999999999999MA1100245099705MD1140074+9999OC100885REMMET10601/06/10 09:54:02 METAR KLWM 061454Z 30011G17KT 10SM CLR M03/M10 A2960 RMK AO2 SLP025 T10281100 51007 (CZ)
0172744904947232010010615547+42717-071124FM-15+0045KLWM V0203205N006252200059N0160935N5-00225-01005100195ADDAA101000095GF100991999999999999999999MA1100175099635OC101135REMMET10001/06/10 10:54:02 METAR KLWM 061554Z 32012G22KT 10SM CLR M02/M10 A2958 RMK AO2 SLP019 T10221100 (CZ)
0172744904947232010010616547+42717-071124FM-15+0045KLWM V0203105N005752200059N0160935N5-00115-01005100115ADDAA101000095GF100991999999999999999999MA1100105099575OC100885REMMET10001/06/10 11:54:02 METAR KLWM 061654Z 31011G17KT 10SM CLR M01/M10 A2956 RMK AO2 SLP011 T10111100 (CZ)
0219744904947232010010617547+42717-071124FM-15+0045KLWM V0203105N005752200059N0160935N5-00065-00945100055ADDAA101000095GF100991999999999999999999KA1999M-00061KA2999N-00611MA1100035099505MD1640204+9999REMMET11501/06/10 12:54:02 METAR KLWM 061754Z 31011KT 10SM CLR M01/M09 A2954 RMK AO2 SLP005 T10061094 11006 21061 56020 (RR)
0171744904947232010010618547+42717-071124FM-15+0045KLWM V0202905N004652200059N0160935N5+00005-01005100055ADDAA101000095GF100991999999999999999999MA1100035099505OC100825REMMET09901/06/10 13:54:02 METAR KLWM 061854Z 29009G16KT 10SM CLR 00/M10 A2954 RMK AO2 SLP005 T00001100 (RR)
0172744904947232010010619547+42717-071124FM-15+0045KLWM V0202905N005152200059N0160935N5-00065-01005100075ADDAA101000095GF100991999999999999999999MA1100075099535OC100885REMMET10001/06/10 14:54:02 METAR KLWM 061954Z 29010G17KT 10SM CLR M01/M10 A2955 RMK AO2 SLP007 T10061100 (RR)
0192744904947232010010620547+42717-071124FM-15+0045KLWM V0202905N005752200059N0160935N5-00115-01005100105ADDAA101000095GF100991999999999999999999MA1100105099575MD1340044+9999OC101135REMMET10601/06/10 15:54:02 METAR KLWM 062054Z 29011G22KT 10SM CLR M01/M10 A2956 RMK AO2 SLP010 T10111100 53004 (RR)
0172744904947232010010621547+42717-071124FM-15+0045KLWM V0202805N005152200059N0160935N5-00225-00945100135ADDAA101000095GF100991999999999999999999MA1100145099605OC100935REMMET10001/06/10 16:54:02 METAR KLWM 062154Z 28010G18KT 10SM CLR M02/M09 A2957 RMK AO2 SLP013 T10221094 (RR)
