0194744904947232012010100137+42717-071124FM-16+0045KLWM V0203005N00265000615MN0028165N5+00305+00205999999ADDAU100001015AW1105GA1085+000615999GD14991+0006159GF108991999999999999999999MA1101155100615MW1101REMMET08712/31/11 19:13:03 SPECI KLWM 010013Z 30005KT 1 3/4SM BR OVC002 03/02 A2987 RMK AO2 (TB)
0190744904947232012010100327+42717-071124FM-16+0045KLWM V0203105N00155000615MN0032195N5+00305+00205999999ADDAU100001015AW1105GA1085+000615999GD14991+0006159GF108991999999999999999999MA1101155100615MW1101REMMET08312/31/11 19:32:03 SPECI KLWM 010032Z 31003KT 2SM BR OVC002 03/02 A2987 RMK AO2 (TB)
0194744904947232012010100437+42717-071124FM-16+0045KLWM V0202705N00215000615MN0024145N5+00305+00205999999ADDAU100001015AW1105GA1085+000615999GD14991+0006159GF108991999999999999999999MA1101155100615MW1101REMMET08712/31/11 19:43:03 SPECI KLWM 010043Z 27004KT 1 1/2SM BR OVC002 03/02 A2987 RMK AO2 (TB)
0222744904947232012010100547+42717-071124FM-15+0045KLWM V0202705N00155000615MN0028165N5+00285+00175101195ADDAA101000095AU100001015AW1105GA1085+000615999GD14991+0006159GF108991999999999999999999MA1101195100655MW1101REMMET10412/31/11 19:54:03 METAR KLWM 010054Z 27003KT 1 3/4SM BR OVC002 03/02 A2988 RMK AO2 SLP119 T00280017 (TB)
0191744904947232012010101177+42717-071124FM-16+0045KLWM V0202505N00155000615WN0008055N5+00305+00205999999ADDAU100002015AW1305GA1095+000615999GD15991+0006159GF109991999999000251999999MA1101195100655MW1451REMMET08412/31/11 20:17:03 SPECI KLWM 010117Z 25003KT 1/2SM FG VV002 03/02 A2988 RMK AO2 (TB)
0219744904947232012010101547+42717-071124FM-15+0045KLWM V0202605N00215000615WN0008055N5+00285+00175101235ADDAA101000095AU100002015AW1305GA1095+000615999GD15991+0006159GF109991999999000251999999MA1101225100685MW1451REMMET10112/31/11 20:54:03 METAR KLWM 010154Z 26004KT 1/2SM FG VV002 03/02 A2989 RMK AO2 SLP123 T00280017 (TB)
0191744904947232012010102157+42717-071124FM-16+0045KLWM V0209999C00005000305WN0004025N5+00205+00105999999ADDAU100002015AW1305GA1095+000305999GD15991+0003059GF109991999999000251999999MA1101255100715MW1451REMMET08412/31/11 21:15:03 SPECI KLWM 010215Z 00000KT 1/4SM FG VV001 02/01 A2990 RMK AO2 (TB)
0191744904947232012010102467+42717-071124FM-16+0045KLWM V0209999C00005000615WN0004025N5+00205+00105999999ADDAU100002015AW1305GA1095+000615999GD15991+0006159GF109991999999000251999999MA1101255100715MW1451REMMET08412/31/11 21:46:03 SPECI KLWM 010246Z 00000KT 1/4SM FG VV002 02/01 A2990 RMK AO2 (TB)
0239744904947232012010102547+42717-071124FM-15+0045KLWM V0202305N00155000615WN0004025N5+00175+00065101265ADDAA101000095AU100002015AW1305GA1095+000615999GD15991+0006159GF109991999999000251999999MA1101255100715MD1140104+9999MW1451REMMET10712/31/11 21:54:03 METAR KLWM 010254Z 23003KT 1/4SM FG VV002 02/01 A2990 RMK AO2 SLP126 T00170006 51010 (TB)
0191744904947232012010103027+42717-071124FM-16+0045KLWM V0209999C00005000305WN0004025N5+00205+00105999999ADDAU100002015AW1305GA1095+000305999GD15991+0003059GF109991999999000251999999MA1101255100715MW1451REMMET08412/31/11 22:02:03 SPECI KLWM 010302Z 00000KT 1/4SM FG VV001 02/01 A2990 RMK AO2 (TB)
0220744904947232012010103547+42717-071124FM-15+0045KLWM V0202105N00155000305WN0004025N5+00115-00065101295ADDAA101000095AU100002015AW1305GA1095+000305999GD15991+0003059GF109991999999000251999999MA1101295100755MW1451REMMET10212/31/11 22:54:03 METAR KLWM 010354Z 21003KT 1/4SM FG VV001 01/M01 A2991 RMK AO2 SLP129 T00111006 (TB)
0190744904947232012010104097+42717-071124FM-16+0045KLWM V0202205N00215000305WN0016095N5+00105-00105999999ADDAU100001015AW1105GA1095+000305999GD15991+0003059GF109991999999000251999999MA1101325100785MW1101REMMET08312/31/11 23:09:03 SPECI KLWM 010409Z 22004KT 1SM BR VV001 01/M01 A2992 RMK AO2 (TB)
0191744904947232012010104157+42717-071124FM-16+0045KLWM V0202305N00215000305MN0048285N5+00105-00105999999ADDAU100001015AW1105GA1075+000305999GD13991+0003059GF107991999999999999999999MA1101295100755MW1101REMMET08412/31/11 23:15:03 SPECI KLWM 010415Z 23004KT 3SM BR BKN001 01/M01 A2991 RMK AO2 (TB)
0190744904947232012010104237+42717-071124FM-16+0045KLWM V0202505N002652200059N0096565N5+00205+00005999999ADDAU100001015AW1105GA1045+000305999GD12991+0003059GF104991999999999999999999MA1101325100785MW1101REMMET08312/31/11 23:23:03 SPECI KLWM 010423Z 25005KT 6SM BR SCT001 02/00 A2992 RMK AO2 (TB)
0168744904947232012010104547+42717-071124FM-15+0045KLWM V0209999C000052200059N0128755N5+00225+00065101375ADDAA101000095GF100991999999999999999999MA1101355100815REMMET10412/31/11 23:54:03 METAR KLWM 010454Z 00000KT 8SM CLR 02/01 A2993 RMK AO2 SLP137 T00220006 400330000 (TB)
0955744904947232012010104596+42717-071124SOD  +0045KLWM V020999999999999999999999999999+99999+99999999999ADDAA124001595AX1016246AX2026246KA1240M+00335KA2240N+00005MG1100854101024OE11240044729018205OE22240035802005335OE33240015299999995REMSOD74924 HR PRECIPITATION (IN):0.06  WEATHER(CODE):1,2  24 HR MAX TEMP (F):38 24 HR MAX TEMP TIME (LST):2007 24 HR MIN TEMP (F):32 24 HR MIN TEMP TIME (LST):0809 AVERAGE STATION PRESSURE:29.780 MINIMUM SEA LEVEL PRESSURE:29.83 TIME OF OCCURRENCE:1538 PEAK WIND SPEED (MPH):10  PEAK WIND DIR (DEG):290 PEAK WIND TIME (LST):1820  FASTEST 2MIN SPEED (MPH):8  FASTEST 2MIN DIR (DEG):20  FASTEST 2MIN TIME (LST):0533 AVERAGE WIND SPEED (MPH):3.4  24 HR AVG TEMP (F):35 HEATING DEGREE DAYS:30  COOLING DEGREE DAYS:0   LATEST DAY MAX TEMP (0700-1900 LST):38  LATEST NIGHT MIN TEMP(1900-0800 LST):32 HOURLY INCREMENTAL PRECIPITATION VALUES (IN):.00 0.00 0.00 0.00 0.00 0.00 0.00 T    0.03 0.01 0.02 0.00 0.00 0.00 0.00 0.00 0.00 0.00 0.00 0.00 0.00 0.00 0.00 0.00EQDR01   1,27AXW090R02   1,27AXW090R03     N7GJS072R04     N7GKS075
1258744904947232012010104596+42717-071124SOM  +0045KLWM V020999999999999999999999999999+99999+99999999999ADDAB10092596AD10045790708999999996AE1115075035015AH1005001590802005AH2010002390802045AH3015002592200345AH4020003392200385AH5030004892200485AH6045006692200575AI1060007992201005AI2080009992201045AI3100011292201115AI4120011992201195AI5150012490804215AI6180013790804545KB1744N-01445KB2744M+08335KB3744A+03445KC1N9-00942519995KC2M9+01830699995KD1744H08235KD2744C00005KE1025005225005MH1101464102034MK1103960320305099022804555REMSOM794PCP MTOT:3.64 PCP GT 24HRS:1.80 DATE(S):7-8 DAYS W/PCP >=.01:11 DAYS W/PCP >=.10:7  DAYS W/ PCP >=.50:3 DAYS W/PCP >=1.00:1 MSDP AMTS W/DATE-TIME TAGS:MIN:5 0.06  08/0200 MIN:10 0.09  08/0204 MIN:15 0.10  22/0034 MIN:20 0.13  22/0038 MIN:30 0.19  22/0048 MIN:45 0.26  22/0057 MIN:60 0.31  22/0100 MIN:80 0.39  22/0104 MIN:100 0.44  22/0111 MIN:120 0.47  22/0119 MIN:150 0.49  08/0421 MIN:180 0.54  08/0454 AVG DLY MIN:29.4  AVG DLY MAX:47.0  AVG MLY TMP:38.2  MIN TMP:15 DATE(S):25 19 MAX TMP:65  DATE(S):06 DAYS MAX <=32:2 DAYS MAX >=90:0  DAYS MIN <=32:22 DAYS MIN  <=0:0  AVG STP:29.960 LWST SLP:29.24 DATE/TIME:280455 HGST SLP:30.70 DATE/TIME:032030 HDD MTH TOT:823 DEP NORM:-2553 SEASON(JUL 1-JUN 30):1047 DEP NORM:+23191 CDD MTH TOT:0 DEP NORM:-2553 SEASON(JAN 1-DEC 31):0 DEP NORM:-21248EQDR01  3.647ABP070R02  1.807ADP081
0216744904947232012010105547+42717-071124FM-15+0045KLWM V0209999C000052200059N0128755N5+00225+00065101335ADDAA101000095GF100991999999999999999999KA1999M+00331KA2999N+00111MA1101325100785MD1040074+9999REMMET11201/01/12 00:54:02 METAR KLWM 010554Z 00000KT 8SM CLR 02/01 A2992 RMK AO2 SLP133 T00220006 10033 20011 50007 (TB)
0184744904947232012010106547+42717-071124FM-15+0045KLWM V0202205N002652200059N0080475N5+00175+00005101375ADDAA101000095AU100001015AW1105GF100991999999999999999999MA1101355100815MW1101REMMET09701/01/12 01:54:02 METAR KLWM 010654Z 22005KT 5SM BR CLR 02/00 A2993 RMK AO2 SLP137 T00170000 (TB)
0158744904947232012010107547+42717-071124FM-15+0045KLWM V0202205N001552200059N0112655N5+00225+00065101495ADDAA101000095GF100991999999999999999999MA1101495100955REMMET09401/01/12 02:54:02 METAR KLWM 010754Z 22003KT 7SM CLR 02/01 A2997 RMK AO2 SLP149 T00220006 TSNO
0178744904947232012010108547+42717-071124FM-15+0045KLWM V0202005N001552200059N0112655N5+00225+00065101545ADDAA101000095GF100991999999999999999999MA1101525100985MD1340214+9999REMMET10001/01/12 03:54:02 METAR KLWM 010854Z 20003KT 7SM CLR 02/01 A2998 RMK AO2 SLP154 T00220006 53021 TSNO
0179744904947232012010109547+42717-071124FM-15+0045KLWM V0209999C000052200059N0064375N5+00065-00065101615ADDAA101000095AU100001015AW1105GF100991999999999999999999MA1101595101055REMMET09801/01/12 04:54:02 METAR KLWM 010954Z 00000KT 4SM BR CLR 01/M01 A3000 RMK AO2 SLP161 T00061006 TSNO
0163744904947232012010110457+42717-071124FM-16+0045KLWM V0202205N001552200059N0028165V5+00105-00105999999ADDAU100001015AW1105GF100991999999999999999999MA1101665101125REMMET09301/01/12 05:45:02 SPECI KLWM 011045Z 22003KT 1 3/4SM BR CLR 01/M01 A3002 RMK AO2 VIS 1V3 TSNO
0163744904947232012010110526+42717-071124FM-16+0045KLWM V0209999C00005000615WN0016095N5+00005-00105999999ADDAU100001015AW1105GA1095+000615999GD15991+0006159MA1101665101125REMMET08801/01/12 05:52:02 SPECI KLWM 011052Z 00000KT 1SM BR VV002 00/M01 A3002 RMK AO2 TSNO FIBI
0214744904947232012010110547+42717-071124FM-15+0045KLWM V0209999C00005000615WN0012075N5+00005-00175101675ADDAA101000095AU100001015AW1105GA1095+000615999GD15991+0006159GF109991999999000251999999MA1101665101125REMMET10201/01/12 05:54:02 METAR KLWM 011054Z 00000KT 3/4SM BR VV002 00/M02 A3002 RMK AO2 SLP167 T00001017 TSNO
0153744904947232012010110577+42717-071124FM-16+0045KLWM V0209999C000052200059N0008055N5+00105-00205999999ADDAU100002015AW1305GF100991999999999999999999MA1101665101125REMMET08301/01/12 05:57:02 SPECI KLWM 011057Z 00000KT 1/2SM FG CLR 01/M02 A3002 RMK AO2 TSNO
0151744904947232012010111057+42717-071124FM-16+0045KLWM V0209999C000052200059N0016095N5+00105-00105999999ADDAU100001015AW1105GF100991999999999999999999MA1101665101125REMMET08101/01/12 06:05:02 SPECI KLWM 011105Z 00000KT 1SM BR CLR 01/M01 A3002 RMK AO2 TSNO
0155744904947232012010111407+42717-071124FM-16+0045KLWM V0209999C000052200059N0040235N5+00005-00105999999ADDAU100001015AW1105GF100991999999999999999999MA1101695101155REMMET08501/01/12 06:40:02 SPECI KLWM 011140Z 00000KT 2 1/2SM BR CLR 00/M01 A3003 RMK AO2 TSNO
0195744904947232012010111467+42717-071124FM-16+0045KLWM V0202105N001552200059N0020125N5+00005-00205999999ADDAU100001015AW1105GA1025+000615999GD11991+0006159GF102991999999999999999999MA1101735101195MW1101REMMET08801/01/12 06:46:02 SPECI KLWM 011146Z 21003KT 1 1/4SM BR FEW002 00/M02 A3004 RMK AO2 (MP)
0193744904947232012010111487+42717-071124FM-16+0045KLWM V0209999C00005000615WN0012075N5-00105-00205999999ADDAU100001015AW1105GA1095+000615999GD15991+0006159GF109991999999000251999999MA1101735101195MW1101REMMET08601/01/12 06:48:02 SPECI KLWM 011148Z 00000KT 3/4SM BR VV002 M01/M02 A3004 RMK AO2 (MP)
0168744904947232012010111526+42717-071124FM-16+0045KLWM V0209999C00005000615WN0008055N5-00105-00205999999ADDAU108002015AW1355GA1095+000615999GD15991+0006159MA1101735101195REMMET09301/01/12 06:52:02 SPECI KLWM 011152Z 00000KT 1/2SM FZFG VV002 M01/M02 A3004 RMK AO2 FIBI (MP)
0298744904947232012010111547+42717-071124FM-15+0045KLWM V0209999C00005000615WN0008055N5-00065-00175101725ADDAA101000095AA224001591AU108002015AW1355GA1095+000615999GD15991+0006159GF109991999999000251999999KA1999M+00281KA2999N-00061MA1101695101155MD1140184+9999MW1491REMMET12901/01/12 06:54:02 METAR KLWM 011154Z 00000KT 1/2SM FZFG VV002 M01/M02 A3003 RMK AO2 SLP172 70006 T10061017 10028 21006 51018 (MP)
0190744904947232012010111587+42717-071124FM-16+0045KLWM V0209999C00005000615WN0016095N5+00005-00205999999ADDAU100001015AW1105GA1095+000615999GD15991+0006159GF109991999999000251999999MA1101695101155MW1101REMMET08301/01/12 06:58:02 SPECI KLWM 011158Z 00000KT 1SM BR VV002 00/M02 A3003 RMK AO2 (MP)
0191744904947232012010112037+42717-071124FM-16+0045KLWM V0202005N002152200059N0032195N5+00005-00205999999ADDAU100001015AW1105GA1025+000615999GD11991+0006159GF102991999999999999999999MA1101735101195MW1101REMMET08401/01/12 07:03:02 SPECI KLWM 011203Z 20004KT 2SM BR FEW002 00/M02 A3004 RMK AO2 (MP)
0160744904947232012010112197+42717-071124FM-16+0045KLWM V0202005N001552200059N0012075N5-00105-00205999999ADDAU100001015AW1105GF100991999999999999999999MA1101735101195MW1101REMMET08401/01/12 07:19:02 SPECI KLWM 011219Z 20003KT 3/4SM BR CLR M01/M02 A3004 RMK AO2 (MP)
0157744904947232012010112327+42717-071124FM-16+0045KLWM V0202105N002152200059N0032195N5+00105-00105999999ADDAU100001015AW1105GF100991999999999999999999MA1101765101225MW1101REMMET08101/01/12 07:32:02 SPECI KLWM 011232Z 21004KT 2SM BR CLR 01/M01 A3005 RMK AO2 (MP)
0165744904947232012010112526+42717-071124FM-16+0045KLWM V0202105N001552200059N0024145N5+00105-00105999999ADDAU100001015AW1105GA1005+999999999GD10991+9999999MA1101765101225REMMET09001/01/12 07:52:02 SPECI KLWM 011252Z 21003KT 1 1/2SM BR CLR 01/M01 A3005 RMK AO2 FIBI (MP)
0189744904947232012010112547+42717-071124FM-15+0045KLWM V0202005N001552200059N0024145N5+00065-00065101795ADDAA101000095AU100001015AW1105GF100991999999999999999999MA1101795101255MW1101REMMET10201/01/12 07:54:02 METAR KLWM 011254Z 20003KT 1 1/2SM BR CLR 01/M01 A3006 RMK AO2 SLP179 T00061006 (MP)
0156744904947232012010113117+42717-071124FM-16+0045KLWM V0202105N002152200059N0048285N5+00205+00005999999ADDAU100001015AW1105GF100991999999999999999999MA1101795101255MW1101REMMET08001/01/12 08:11:02 SPECI KLWM 011311Z 21004KT 3SM BR CLR 02/00 A3006 RMK AO2 (MP)
0156744904947232012010113297+42717-071124FM-16+0045KLWM V0209999C000052200059N0064375N5+00205+00105999999ADDAU100001015AW1105GF100991999999999999999999MA1101795101255MW1101REMMET08001/01/12 08:29:02 SPECI KLWM 011329Z 00000KT 4SM BR CLR 02/01 A3006 RMK AO2 (MP)
0184744904947232012010113547+42717-071124FM-15+0045KLWM V0202205N001552200059N0096565N5+00285+00115101795ADDAA101000095AU100001015AW1105GF100991999999999999999999MA1101795101255MW1101REMMET09701/01/12 08:54:02 METAR KLWM 011354Z 22003KT 6SM BR CLR 03/01 A3006 RMK AO2 SLP179 T00280011 (MP)
0179744904947232012010114547+42717-071124FM-15+0045KLWM V0202205N002652200059N0160935N5+00565+00285101805ADDAA101000095GF100991999999999999999999MA1101795101255MD1140094+9999REMMET10101/01/12 09:54:02 METAR KLWM 011454Z 22005KT 10SM CLR 06/03 A3006 RMK AO2 SLP180 T00560028 51009 (MP)
0159744904947232012010115547+42717-071124FM-15+0045KLWM V0202405N003652200059N0160935N5+00785+00395101755ADDAA101000095GF100991999999999999999999MA1101765101225REMMET09501/01/12 10:54:02 METAR KLWM 011554Z 24007KT 10SM CLR 08/04 A3005 RMK AO2 SLP175 T00780039 (CZ)
0159744904947232012010116547+42717-071124FM-15+0045KLWM V0202305N003152200059N0160935N5+01005+00395101645ADDAA101000095GF100991999999999999999999MA1101635101085REMMET09501/01/12 11:54:02 METAR KLWM 011654Z 23006KT 10SM CLR 10/04 A3001 RMK AO2 SLP164 T01000039 (CZ)
0217744904947232012010117547+42717-071124FM-15+0045KLWM V0202605N002652200059N0160935N5+01005+00285101495ADDAA101000095GF100991999999999999999999KA1999M+01061KA2999N-00061MA1101495100955MD1840314+9999REMMET11301/01/12 12:54:02 METAR KLWM 011754Z 26005KT 10SM CLR 10/03 A2997 RMK AO2 SLP149 T01000028 10106 21006 58031 (CZ)
0193744904947232012010118547+42717-071124FM-15+0045KLWM V0201905N002652200059N0160935N5+01065+00285101385ADDAA101000095GA1025+008845999GD11991+0088459GF102991999999999999999999MA1101395100855REMMET09801/01/12 13:54:02 METAR KLWM 011854Z 19005KT 10SM FEW029 11/03 A2994 RMK AO2 SLP138 T01060028 (CZ)
0193744904947232012010119547+42717-071124FM-15+0045KLWM V0201605N002152200059N0160935N5+01115+00225101345ADDAA101000095GA1025+010365999GD11991+0103659GF102991999999999999999999MA1101355100815REMMET09801/01/12 14:54:02 METAR KLWM 011954Z 16004KT 10SM FEW034 11/02 A2993 RMK AO2 SLP134 T01110022 (CZ)
0213744904947232012010120547+42717-071124FM-15+0045KLWM V0201805N001552200059N0160935N5+01065+00225101305ADDAA101000095GA1025+011895999GD11991+0118959GF102991999999999999999999MA1101295100755MD1640194+9999REMMET10401/01/12 15:54:02 METAR KLWM 012054Z 18003KT 10SM FEW039 11/02 A2991 RMK AO2 SLP130 T01060022 56019 (CZ)
0166744904947232012010121547+42717-071124FM-15+0045KLWM V0201205N003652200059N0160935N5+00835+00285101125ADDAA101000095GF100991999999999999999999MA1101125100585REMMET10201/01/12 16:54:02 METAR KLWM 012154Z 12007KT 10SM CLR 08/03 A2986 RMK AO2 PRESFR SLP112 T00830028 (RR)
0159744904947232012010122547+42717-071124FM-15+0045KLWM V0201605N002152200059N0160935N5+00785+00225101055ADDAA101000095GF100991999999999999999999MA1101055100515REMMET09501/01/12 17:54:02 METAR KLWM 012254Z 16004KT 10SM CLR 08/02 A2984 RMK AO2 SLP105 T00780022 (RR)
0176744904947232012010123247+42717-071124FM-16+0045KLWM V0202005N00625007015MN0160935N5+00905+00305999999ADDGA1075+007015999GD13991+0070159GF107991999999999999999999MA1101055100515OC100985REMMET08401/01/12 18:24:02 SPECI KLWM 012324Z 20012G19KT 10SM BKN023 09/03 A2984 RMK AO2 (RR)
0262744904947232012010123547+42717-071124FM-15+0045KLWM V0202005N00315006405MN0160935N5+00895+00395101065ADDAA101000095GA1085+006405999GD14991+0064059GF108991999999999999999999KA1999M+01111KA2999N+00781MA1101055100515MD1540244+9999OC100935REMMET11901/01/12 18:54:02 METAR KLWM 012354Z 20006G18KT 10SM OVC021 09/04 A2984 RMK AO2 SLP106 T00890039 10111 20078 55024 (RR)
0151744904947232012010200526+42717-071124FM-16+0045KLWM V0201705N004152200059N0160935N5+00905+00405999999ADDGA1045+007015999GD12991+0070159MA1100855100315REMMET09301/01/12 19:52:03 SPECI KLWM 020052Z 17008KT 10SM SCT023 09/04 A2978 RMK AO2 PRESFR FIBI (RR)
0195744904947232012010200547+42717-071124FM-15+0045KLWM V0209999V003152200059N0160935N5+00895+00395100865ADDAA101000095GA1045+007015999GD12991+0070159GF104991999999999999999999MA1100855100315REMMET10001/01/12 19:54:01 METAR KLWM 020054Z VRB06KT 10SM SCT023 09/04 A2978 RMK AO2 PRESFR SLP086 T00890039
0226744904947232012010201547+42717-071124FM-15+0045KLWM V0201905N00215036585MN0160935N5+00895+00395100825ADDAA101000095GA1025+007015999GA2075+036585999GD11991+0070159GD23991+0365859GF107991999999999999999999MA1100815100285REMMET10001/01/12 20:54:01 METAR KLWM 020154Z 19004KT 10SM FEW023 BKN120 09/04 A2977 RMK AO2 SLP082 T00890039
0320744904947232012010202547+42717-071124FM-15+0045KLWM V0201905N00365021345MN0160935N5+00895+00445100745ADDAA101000025AA203000021AU110020015AW1615GA1025+006105999GA2085+021345999GD11991+0061059GD24991+0213459GF108991999999999999999999MA1100755100215MD1640324+9999REMMET13301/01/12 21:54:01 METAR KLWM 020254Z 19007KT 10SM -RA FEW020 OVC070 09/04 A2975 RMK AO2 RAB51 SLP074 P0000 60000 T00890044 56032 TSNOEQDQ01  00008PRCP03
0264744904947232012010203547+42717-071124FM-15+0045KLWM V0201705N00215016765MN0128755N5+00835+00565100555ADDAA101000895AU110020015AW1615GA1075+016765999GA2085+021345999GD13991+0167659GD24991+0213459GF108991999999999999999999MA1100545100015REMMET12101/01/12 22:54:01 METAR KLWM 020354Z 17004KT 8SM -RA BKN055 OVC070 08/06 A2969 RMK AO2 PRESFR SLP055 P0003 T00830056 TSNO
0268744904947232012010204547+42717-071124FM-15+0045KLWM V0201905N00265018295MN0160935N5+00895+00675100375ADDAA101000595AU110020015AW1615GA1075+018295999GA2085+030485999GD13991+0182959GD24991+0304859GF108991999999999999999999MA1100375099845REMMET12501/01/12 23:54:01 METAR KLWM 020454Z 19005KT 10SM -RA BKN060 OVC100 09/07 A2964 RMK AO2 SLP037 P0002 T00890067 401111006 TSNO
0912744904947232012010204596+42717-071124SOD  +0045KLWM V020999999999999999999999999999+99999+99999999999ADDAA124001395AX1015245KA1240M+01115KA2240N-00055MG1100834100374OE11240098320018275OE22240062619018295OE33240020699999995REMSOD74724 HR PRECIPITATION (IN):0.05  WEATHER(CODE):1  24 HR MAX TEMP (F):52 24 HR MAX TEMP TIME (LST):1535 24 HR MIN TEMP (F):31 24 HR MIN TEMP TIME (LST):0724 AVERAGE STATION PRESSURE:29.775 MINIMUM SEA LEVEL PRESSURE:29.64 TIME OF OCCURRENCE:2359 PEAK WIND SPEED (MPH):22  PEAK WIND DIR (DEG):200 PEAK WIND TIME (LST):1827  FASTEST 2MIN SPEED (MPH):14 FASTEST 2MIN DIR (DEG):190 FASTEST 2MIN TIME (LST):1829 AVERAGE WIND SPEED (MPH):4.6  24 HR AVG TEMP (F):42 HEATING DEGREE DAYS:23  COOLING DEGREE DAYS:0   LATEST DAY MAX TEMP (0700-1900 LST):52  LATEST NIGHT MIN TEMP(1900-0800 LST):31 HOURLY INCREMENTAL PRECIPITATION VALUES (IN):.00 0.00 0.00 0.00 0.00 0.00 0.00 0.00 0.00 0.00 0.00 0.00 0.00 0.00 0.00 0.00 0.00 0.00 0.00 0.00 0.00 T    0.03 0.02EQDR01     N7GJS072R02     N7GKS075
0241744904947232012010205167+42717-071124FM-16+0045KLWM V0201905N00265006105MN0160935N5+00905+00705999999ADDAA101000021AU110020015AW1615GA1075+006105999GA2085+018295999GD13991+0061059GD24991+0182959GF108991999999999999999999MA1100345099805REMMET09801/02/12 00:16:02 SPECI KLWM 020516Z 19005KT 10SM -RA BKN020 OVC060 09/07 A2963 RMK AO2 P0000 TSNO
0337744904947232012010205547+42717-071124FM-15+0045KLWM V0202005N00265004575MN0160935N5+00945+00725100285ADDAA101000395AA206001591GA1075+004575999GA2085+014335999GD13991+0045759GD24991+0143359GF108991999999999999999999KA1999M+00941KA2999N+00831MA1100275099745MD1640454+9999REMMET14101/02/12 00:54:02 METAR KLWM 020554Z 20005KT 10SM BKN015 OVC047 09/07 A2961 RMK AO2 RAE48 SLP028 P0001 60006 T00940072 10094 20083 56045 TSNOEQDQ01  00158PRCP06
0241744904947232012010206117+42717-071124FM-16+0045KLWM V0201905N00265011285MN0160935N5+00905+00705999999ADDGA1045+004575999GA2075+011285999GA3085+014025999GD12991+0045759GD23991+0112859GD34991+0140259GF108991999999999999999999MA1100245099705REMMET09501/02/12 01:11:02 SPECI KLWM 020611Z 19005KT 10SM SCT015 BKN037 OVC046 09/07 A2960 RMK AO2 TSNO
0193744904947232012010206547+42717-071124FM-15+0045KLWM V0201905N00215013115MN0160935N5+00945+00725100185ADDAA101000095GA1085+013115999GD14991+0131159GF108991999999999999999999MA1100175099635REMMET09801/02/12 01:54:02 METAR KLWM 020654Z 19004KT 10SM OVC043 09/07 A2958 RMK AO2 SLP018 T00940072 TSNO
0193744904947232012010207547+42717-071124FM-15+0045KLWM V0202005N00365030485MN0160935N5+00945+00725100035ADDAA101000095GA1085+030485999GD14991+0304859GF108991999999999999999999MA1100035099505REMMET09801/02/12 02:54:02 METAR KLWM 020754Z 20007KT 10SM OVC100 09/07 A2954 RMK AO2 SLP003 T00940072 TSNO
0300744904947232012010208547+42717-071124FM-15+0045KLWM V0202205N00415022865MN0160935N5+00945+00675099985ADDAA101000095GA1045+014025999GA2075+022865999GA3075+027435999GD12991+0140259GD23991+0228659GD33991+0274359GF107991999999999999999999MA1099975099435MD1640304+9999OC100775REMMET12101/02/12 03:54:02 METAR KLWM 020854Z 22008G15KT 10SM SCT046 BKN075 BKN090 09/07 A2952 RMK AO2 SLP998 T00940067 56030 TSNO
0270744904947232012010209177+42717-071124FM-16+0045KLWM V0202905N00825007625MN0160935N5+00805+00305999999ADDGA1025+004885999GA2045+006105999GA3075+007625999GD11991+0048859GD22991+0061059GD33991+0076259GF107991999999999999999999MA1100035099505OC101395REMMET11601/02/12 04:17:02 SPECI KLWM 020917Z 29016G27KT 10SM FEW016 SCT020 BKN025 08/03 A2954 RMK AO2 PK WND 26027/0911 TSNO
0281744904947232012010209287+42717-071124FM-16+0045KLWM V0202705N00575008845MN0160935N5+00705+00105999999ADDGA1025+005495999GA2045+007325999GA3085+008845999GD11991+0054959GD22991+0073259GD34991+0088459GF108991999999999999999999MA1100105099575OC101135REMMET12701/02/12 04:28:02 SPECI KLWM 020928Z 27011G22KT 10SM FEW018 SCT024 OVC029 07/01 A2956 RMK AO2 PK WND 26027/0911 WSHFT 0908 TSNO
0243744904947232012010209407+42717-071124FM-16+0045KLWM V0202805N00625010365MN0160935N5+00705+00105999999ADDGA1025+007325999GA2085+010365999GD11991+0073259GD24991+0103659GF108991999999999999999999MA1100105099575OC101085REMMET12001/02/12 04:40:02 SPECI KLWM 020940Z 28012G21KT 10SM FEW024 OVC034 07/01 A2956 RMK AO2 PK WND 26027/0911 WSHFT 0908 TSNO
0222744904947232012010209547+42717-071124FM-15+0045KLWM V0202605N00415010975MN0160935N5+00615+00225100105ADDAA101000095GA1085+010975999GD14991+0109759GF108991999999999999999999MA1100105099575REMMET12701/02/12 04:54:02 METAR KLWM 020954Z 26008KT 10SM OVC036 06/02 A2956 RMK AO2 PK WND 26027/0911 WSHFT 0908 SLP010 T00610022 TSNO
0231744904947232012010210547+42717-071124FM-15+0045KLWM V0202405N00315016765MN0160935N5+00505+00005100145ADDAA101000095GA1075+016765999GA2085+019815999GD13991+0167659GD24991+0198159GF108991999999999999999999MA1100145099605REMMET10501/02/12 05:54:02 METAR KLWM 021054Z 24006KT 10SM BKN055 OVC065 05/00 A2957 RMK AO2 SLP014 T00500000 TSNO
0269744904947232012010211547+42717-071124FM-15+0045KLWM V0202305N00265019815MN0160935N5+00445-00065100175ADDAA101000095AA224001591GA1085+019815999GD14991+0198159GF108991999999999999999999KA1999M+01001KA2999N+00441MA1100175099635MD1140204+9999REMMET12301/02/12 06:54:02 METAR KLWM 021154Z 23005KT 10SM OVC065 04/M01 A2958 RMK AO2 SLP017 70006 T00441006 10100 20044 51020 (CZ)
0160744904947232012010212547+42717-071124FM-15+0045KLWM V0202305N002652200059N0160935N5+00335-00115100215ADDAA101000095GF100991999999999999999999MA1100205099675REMMET09601/02/12 07:54:02 METAR KLWM 021254Z 23005KT 10SM CLR 03/M01 A2959 RMK AO2 SLP021 T00331011 (CZ)
0194744904947232012010213547+42717-071124FM-15+0045KLWM V0202505N00515016765MN0160935N5+00445-00115100245ADDAA101000095GA1085+016765999GD14991+0167659GF108991999999999999999999MA1100245099705REMMET09901/02/12 08:54:02 METAR KLWM 021354Z 25010KT 10SM OVC055 04/M01 A2960 RMK AO2 SLP024 T00441011 (CZ)
0263744904947232012010214547+42717-071124FM-15+0045KLWM V0202405N00515024385MN0160935N5+00565-00175100255ADDAA101000095GA1025+016765999GA2085+024385999GD11991+0167659GD24991+0243859GF108991999999999999999999MA1100245099705MD1140074+9999OC100885REMMET11501/02/12 09:54:02 METAR KLWM 021454Z 24010G17KT 10SM FEW055 OVC080 06/M02 A2960 RMK AO2 SLP025 T00561017 51007 (CZ)
0205744904947232012010215547+42717-071124FM-15+0045KLWM V0202505N00575019815MN0160935N5+00445-00285100225ADDAA101000095GA1085+019815999GD14991+0198159GF108991999999999999999999MA1100205099675OC100885REMMET10201/02/12 10:54:02 METAR KLWM 021554Z 25011G17KT 10SM OVC065 04/M03 A2959 RMK AO2 SLP022 T00441028 (TB)
0171744904947232012010216547+42717-071124FM-15+0045KLWM V0202505N007752200059N0160935N5+00505-00565100155ADDAA101000095GF100991999999999999999999MA1100145099605OC101295REMMET09901/02/12 11:54:02 METAR KLWM 021654Z 25015G25KT 10SM CLR 05/M06 A2957 RMK AO2 SLP015 T00501056 (TB)
0247744904947232012010217547+42717-071124FM-15+0045KLWM V0202605N008252200059N0160935N5+00615-00675100125ADDAA101000095GF100991999999999999999999KA1999M+00611KA2999N+00331MA1100145099605MD1740134+9999OC101655REMMET13501/02/12 12:54:02 METAR KLWM 021754Z 26016G32KT 10SM CLR 06/M07 A2957 RMK AO2 PK WND 26032/1745 SLP012 T00611067 10061 20033 57013 (TB)
0223744904947232012010218547+42717-071124FM-15+0045KLWM V0202605N00985018295MN0160935N5+00615-00835100125ADDAA101000095GA1075+018295999GD13991+0182959GF107991999999999999999999MA1100105099575OC101445REMMET12001/02/12 13:54:02 METAR KLWM 021854Z 26019G28KT 10SM BKN060 06/M08 A2956 RMK AO2 PK WND 25028/1849 SLP012 T00611083 (TB)
0223744904947232012010219547+42717-071124FM-15+0045KLWM V0202505N00675018295MN0160935N5+00615-00835100225ADDAA101000095GA1075+018295999GD13991+0182959GF107991999999999999999999MA1100205099675OC101085REMMET12001/02/12 14:54:02 METAR KLWM 021954Z 25013G21KT 10SM BKN060 06/M08 A2959 RMK AO2 PK WND 23027/1905 SLP022 T00611083 (TB)
0243744904947232012010220547+42717-071124FM-15+0045KLWM V0202505N007752200059N0160935N5+00445-00835100285ADDAA101000095GA1045+018295999GD12991+0182959GF104991999999999999999999MA1100275099745MD1340164+9999OC101085REMMET12601/02/12 15:54:02 METAR KLWM 022054Z 25015G21KT 10SM SCT060 04/M08 A2961 RMK AO2 PK WND 26026/1957 SLP028 T00441083 53016 (TB)
0194744904947232012010221547+42717-071124FM-15+0045KLWM V0202505N004152200059N0160935N5+00395-00835100395ADDAA101000095GA1025+019815999GD11991+0198159GF102991999999999999999999MA1100375099845REMMET09901/02/12 16:54:02 METAR KLWM 022154Z 25008KT 10SM FEW065 04/M08 A2964 RMK AO2 SLP039 T00391083 (TB)
0160744904947232012010222547+42717-071124FM-15+0045KLWM V0202405N002652200059N0160935N5+00285-00785100485ADDAA101000095GF100991999999999999999999MA1100475099945REMMET09601/02/12 17:54:02 METAR KLWM 022254Z 24005KT 10SM CLR 03/M08 A2967 RMK AO2 SLP048 T00281078 (TB)
0218744904947232012010223547+42717-071124FM-15+0045KLWM V0202505N004652200059N0160935N5+00225-00785100545ADDAA101000095GF100991999999999999999999KA1999M+00671KA2999N+00171MA1100545100015MD1140254+9999REMMET11401/02/12 18:54:02 METAR KLWM 022354Z 25009KT 10SM CLR 02/M08 A2969 RMK AO2 SLP054 T00221078 10067 20017 51025 (TB)
0160744904947232012010300547+42717-071124FM-15+0045KLWM V0202505N004152200059N0160935N5+00225-00835100575ADDAA101000095GF100991999999999999999999MA1100545100015REMMET09601/02/12 19:54:01 METAR KLWM 030054Z 25008KT 10SM CLR 02/M08 A2969 RMK AO2 SLP057 T00221083 TSNO
0160744904947232012010301547+42717-071124FM-15+0045KLWM V0202305N003652200059N0160935N5+00115-00785100605ADDAA101000095GF100991999999999999999999MA1100585100045REMMET09601/02/12 20:54:01 METAR KLWM 030154Z 23007KT 10SM CLR 01/M08 A2970 RMK AO2 SLP060 T00111078 TSNO
0180744904947232012010302547+42717-071124FM-15+0045KLWM V0202305N003652200059N0160935N5+00115-00785100635ADDAA101000095GF100991999999999999999999MA1100615100075MD1340084+9999REMMET10201/02/12 21:54:01 METAR KLWM 030254Z 23007KT 10SM CLR 01/M08 A2971 RMK AO2 SLP063 T00111078 53008 TSNO
0161744904947232012010303547+42717-071124FM-15+0045KLWM V0202305N003152200059N0160935N5-00065-00785100615ADDAA101000095GF100991999999999999999999MA1100615100075REMMET09701/02/12 22:54:01 METAR KLWM 030354Z 23006KT 10SM CLR M01/M08 A2971 RMK AO2 SLP061 T10061078 TSNO
0170744904947232012010304547+42717-071124FM-15+0045KLWM V0202305N003652200059N0160935N5+00005-00785100625ADDAA101000095GF100991999999999999999999MA1100615100075REMMET10601/02/12 23:54:01 METAR KLWM 030454Z 23007KT 10SM CLR 00/M08 A2971 RMK AO2 SLP062 T00001078 401001006 TSNO
0886744904947232012010304596+42717-071124SOD  +0045KLWM V020999999999999999999999999999+99999+99999999999ADDAA124000395KA1240M+01005KA2240N-00055MG1099714099974OE11240165426012455OE22240116226012445OE33240046099999995REMSOD73024 HR PRECIPITATION (IN):0.01  24 HR MAX TEMP (F):50 24 HR MAX TEMP TIME (LST):0142 24 HR MIN TEMP (F):31 24 HR MIN TEMP TIME (LST):2301 AVERAGE STATION PRESSURE:29.445 MINIMUM SEA LEVEL PRESSURE:29.52 TIME OF OCCURRENCE:0407 PEAK WIND SPEED (MPH):37  PEAK WIND DIR (DEG):260 PEAK WIND TIME (LST):1245  FASTEST 2MIN SPEED (MPH):26 FASTEST 2MIN DIR (DEG):260 FASTEST 2MIN TIME (LST):1244 AVERAGE WIND SPEED (MPH):10.3 24 HR AVG TEMP (F):41 HEATING DEGREE DAYS:24  COOLING DEGREE DAYS:0   LATEST DAY MAX TEMP (0700-1900 LST):44  LATEST NIGHT MIN TEMP(1900-0800 LST):38 HOURLY INCREMENTAL PRECIPITATION VALUES (IN):.01 0.00 0.00 0.00 0.00 0.00 0.00 0.00 0.00 0.00 0.00 0.00 0.00 0.00 0.00 0.00 0.00 0.00 0.00 0.00 0.00 0.00 0.00 0.00EQDR01     N7GJS072R02     N7GKS075
0219744904947232012010305547+42717-071124FM-15+0045KLWM V0202605N004152200059N0160935N5-00065-00895100645ADDAA101000095GF100991999999999999999999KA1999M+00281KA2999N-00061MA1100645100115MD1340014+9999REMMET11501/03/12 00:54:02 METAR KLWM 030554Z 26008KT 10SM CLR M01/M09 A2972 RMK AO2 SLP064 T10061089 10028 21006 53001 TSNO
0195744904947232012010306547+42717-071124FM-15+0045KLWM V0202605N003152200059N0160935N5-00115-01065100695ADDAA101000095GA1025+015245999GD11991+0152459GF102991999999999999999999MA1100685100145REMMET10001/03/12 01:54:02 METAR KLWM 030654Z 26006KT 10SM FEW050 M01/M11 A2973 RMK AO2 SLP069 T10111106 TSNO
0195744904947232012010307547+42717-071124FM-15+0045KLWM V0202705N00365015245MN0160935N5-00115-01005100705ADDAA101000095GA1075+015245999GD13991+0152459GF107991999999999999999999MA1100685100145REMMET10001/03/12 02:54:02 METAR KLWM 030754Z 27007KT 10SM BKN050 M01/M10 A2973 RMK AO2 SLP070 T10111100 TSNO
0181744904947232012010308547+42717-071124FM-15+0045KLWM V0202805N004652200059N0160935N5-00115-01005100675ADDAA101000095GF100991999999999999999999MA1100685100145MD1040034+9999REMMET10301/03/12 03:54:02 METAR KLWM 030854Z 28009KT 10SM CLR M01/M10 A2973 RMK AO2 SLP067 T10111100 50003 TSNO
0172744904947232012010309547+42717-071124FM-15+0045KLWM V0202805N004652200059N0160935N5-00175-01335100735ADDAA101000095GF100991999999999999999999MA1100715100175OC100885REMMET10001/03/12 04:54:02 METAR KLWM 030954Z 28009G17KT 10SM CLR M02/M13 A2974 RMK AO2 SLP073 T10171133 TSNO
0172744904947232012010310547+42717-071124FM-15+0045KLWM V0202805N004652200059N0160935N5-00225-01395100825ADDAA101000095GF100991999999999999999999MA1100815100285OC100775REMMET10001/03/12 05:54:02 METAR KLWM 031054Z 28009G15KT 10SM CLR M02/M14 A2977 RMK AO2 SLP082 T10221139 TSNO
0219744904947232012010311547+42717-071124FM-15+0045KLWM V0203005N003152200059N0160935N5-00285-01335100915ADDAA101000095GF100991999999999999999999KA1999M+00001KA2999N-00281MA1100885100345MD1340234+9999REMMET11501/03/12 06:54:02 METAR KLWM 031154Z 30006KT 10SM CLR M03/M13 A2979 RMK AO2 SLP091 T10281133 10000 21028 53023 (TB)
0172744904947232012010312547+42717-071124FM-15+0045KLWM V0203305N003652200059N0160935N5-00335-01285100995ADDAA101000095GF100991999999999999999999MA1100985100445OC100725REMMET10001/03/12 07:54:02 METAR KLWM 031254Z 33007G14KT 10SM CLR M03/M13 A2982 RMK AO2 SLP099 T10331128 (TB)
0161744904947232012010313547+42717-071124FM-15+0045KLWM V0203205N006752200059N0160935N5-00335-01395101075ADDAA101000095GF100991999999999999999999MA1101055100515REMMET09701/03/12 08:54:02 METAR KLWM 031354Z 32013KT 10SM CLR M03/M14 A2984 RMK AO2 SLP107 T10331139 (TB)
0192744904947232012010314547+42717-071124FM-15+0045KLWM V0203005N005752200059N0160935N5-00285-01445101045ADDAA101000095GF100991999999999999999999MA1101025100485MD1040134+9999OC101035REMMET10601/03/12 09:54:02 METAR KLWM 031454Z 30011G20KT 10SM CLR M03/M14 A2983 RMK AO2 SLP104 T10281144 50013 (TB)
0206744904947232012010315547+42717-071124FM-15+0045KLWM V0203405N00415012505MN0160935N5-00285-01225101015ADDAA101000095GA1075+012505999GD13991+0125059GF107991999999999999999999MA1100985100445OC100725REMMET10301/03/12 10:54:02 METAR KLWM 031554Z 34008G14KT 10SM BKN041 M03/M12 A2982 RMK AO2 SLP101 T10281122 (TB)
0206744904947232012010316547+42717-071124FM-15+0045KLWM V0203105N00675012195MN0160935N5-00335-01395101065ADDAA101000095GA1075+012195999GD13991+0121959GF107991999999999999999999MA1101055100515OC100985REMMET10301/03/12 11:54:02 METAR KLWM 031654Z 31013G19KT 10SM BKN040 M03/M14 A2984 RMK AO2 SLP106 T10331139 (TB)
0264744904947232012010317547+42717-071124FM-15+0045KLWM V0203405N006752200059N0160935N5-00335-01505101005ADDAA101000095GA1025+012805999GD11991+0128059GF102991999999999999999999KA1999M-00221KA2999N-00391MA1100985100445MD1840044+9999OC100935REMMET12101/03/12 12:54:02 METAR KLWM 031754Z 34013G18KT 10SM FEW042 M03/M15 A2982 RMK AO2 SLP100 T10331150 11022 21039 58004 (TB)
0172744904947232012010318547+42717-071124FM-15+0045KLWM V0202905N006752200059N0160935N5-00395-01615101025ADDAA101000095GF100991999999999999999999MA1101025100485OC101085REMMET10001/03/12 13:54:02 METAR KLWM 031854Z 29013G21KT 10SM CLR M04/M16 A2983 RMK AO2 SLP102 T10391161 (TB)
0172744904947232012010319547+42717-071124FM-15+0045KLWM V0203205N006752200059N0160935N5-00445-01725101125ADDAA101000095GF100991999999999999999999MA1101125100585OC101135REMMET10001/03/12 14:54:02 METAR KLWM 031954Z 32013G22KT 10SM CLR M04/M17 A2986 RMK AO2 SLP112 T10441172 (TB)
0192744904947232012010320547+42717-071124FM-15+0045KLWM V0203305N004652200059N0160935N5-00565-01785101305ADDAA101000095GF100991999999999999999999MA1101295100755MD1340304+9999OC100825REMMET10601/03/12 15:54:02 METAR KLWM 032054Z 33009G16KT 10SM CLR M06/M18 A2991 RMK AO2 SLP130 T10561178 53030 (PJ)
0172744904947232012010321547+42717-071124FM-15+0045KLWM V0203105N007252200059N0160935N5-00615-01785101335ADDAA101000095GF100991999999999999999999MA1101325100785OC101035REMMET10001/03/12 16:54:02 METAR KLWM 032154Z 31014G20KT 10SM CLR M06/M18 A2992 RMK AO2 SLP133 T10611178 (CM)
0172744904947232012010322547+42717-071124FM-15+0045KLWM V0203205N006252200059N0160935N5-00725-01895101485ADDAA101000095GF100991999999999999999999MA1101465100925OC101085REMMET10001/03/12 17:54:02 METAR KLWM 032254Z 32012G21KT 10SM CLR M07/M19 A2996 RMK AO2 SLP148 T10721189 (CM)
0230744904947232012010323547+42717-071124FM-15+0045KLWM V0203205N006752200059N0160935N5-00835-02115101625ADDAA101000095GF100991999999999999999999KA1999M-00331KA2999N-00831MA1101595101055MD1340314+9999OC100935REMMET11801/03/12 18:54:02 METAR KLWM 032354Z 32013G18KT 10SM CLR M08/M21 A3000 RMK AO2 SLP162 T10831211 11033 21083 53031 (CM)
0167744904947232012010400547+42717-071124FM-15+0045KLWM V0203205N006752200059N0160935N5-00895-02065101695ADDAA101000095GF100991999999999999999999MA1101665101125OC100935REMMET09501/03/12 19:54:01 METAR KLWM 040054Z 32013G18KT 10SM CLR M09/M21 A3002 RMK AO2 SLP169 T10891206
0167744904947232012010401547+42717-071124FM-15+0045KLWM V0203105N003652200059N0160935N5-01005-02065101715ADDAA101000095GF100991999999999999999999MA1101695101155OC100775REMMET09501/03/12 20:54:01 METAR KLWM 040154Z 31007G15KT 10SM CLR M10/M21 A3003 RMK AO2 SLP171 T11001206
0187744904947232012010402547+42717-071124FM-15+0045KLWM V0203105N004652200059N0160935N5-01065-01945101705ADDAA101000095GF100991999999999999999999MA1101665101125MD1040074+9999OC101085REMMET10101/03/12 21:54:01 METAR KLWM 040254Z 31009G21KT 10SM CLR M11/M19 A3002 RMK AO2 SLP170 T11061194 50007
0156744904947232012010403547+42717-071124FM-15+0045KLWM V0203005N005152200059N0160935N5-01115-01895101655ADDAA101000095GF100991999999999999999999MA1101635101085REMMET09201/03/12 22:54:01 METAR KLWM 040354Z 30010KT 10SM CLR M11/M19 A3001 RMK AO2 SLP165 T11111189
0166744904947232012010404547+42717-071124FM-15+0045KLWM V0203205N005152200059N0160935N5-01175-01945101655ADDAA101000095GF100991999999999999999999MA1101635101085REMMET10201/03/12 23:54:01 METAR KLWM 040454Z 32010KT 10SM CLR M12/M19 A3001 RMK AO2 SLP165 T11171194 400001117
0886744904947232012010404596+42717-071124SOD  +0045KLWM V020999999999999999999999999999+99999+99999999999ADDAA124000095KA1240M+00005KA2240N-01165MG1100474100614OE11240129629019075OE22240089432019025OE33240051999999995REMSOD73024 HR PRECIPITATION (IN):0.00  24 HR MAX TEMP (F):32 24 HR MAX TEMP TIME (LST):0103 24 HR MIN TEMP (F):11 24 HR MIN TEMP TIME (LST):2359 AVERAGE STATION PRESSURE:29.670 MINIMUM SEA LEVEL PRESSURE:29.71 TIME OF OCCURRENCE:0021 PEAK WIND SPEED (MPH):29  PEAK WIND DIR (DEG):290 PEAK WIND TIME (LST):1907  FASTEST 2MIN SPEED (MPH):20 FASTEST 2MIN DIR (DEG):320 FASTEST 2MIN TIME (LST):1902 AVERAGE WIND SPEED (MPH):11.6 24 HR AVG TEMP (F):22 HEATING DEGREE DAYS:43  COOLING DEGREE DAYS:0   LATEST DAY MAX TEMP (0700-1900 LST):28  LATEST NIGHT MIN TEMP(1900-0800 LST):26 HOURLY INCREMENTAL PRECIPITATION VALUES (IN):.00 0.00 0.00 0.00 0.00 0.00 0.00 0.00 0.00 0.00 0.00 0.00 0.00 0.00 0.00 0.00 0.00 0.00 0.00 0.00 0.00 0.00 0.00 0.00EQDR01     N7GJS072R02     N7GKS075
0219744904947232012010405547+42717-071124FM-15+0045KLWM V0203005N004652200059N0160935N5-01175-01945101755ADDAA101000095GF100991999999999999999999KA1999M-00831KA2999N-01221MA1101735101195MD1340054+9999REMMET11501/04/12 00:54:02 METAR KLWM 040554Z 30009KT 10SM CLR M12/M19 A3004 RMK AO2 SLP175 T11171194 11083 21122 53005 (CM)
0172744904947232012010406547+42717-071124FM-15+0045KLWM V0203205N004152200059N0160935N5-01225-02005101825ADDAA101000095GF100991999999999999999999MA1101795101255OC100775REMMET10001/04/12 01:54:02 METAR KLWM 040654Z 32008G15KT 10SM CLR M12/M20 A3006 RMK AO2 SLP182 T11221200 TSNO
0161744904947232012010407547+42717-071124FM-15+0045KLWM V0203205N004152200059N0160935N5-01225-02005101865ADDAA101000095GF100991999999999999999999MA1101835101295REMMET09701/04/12 02:54:02 METAR KLWM 040754Z 32008KT 10SM CLR M12/M20 A3007 RMK AO2 SLP186 T11221200 TSNO
0181744904947232012010408547+42717-071124FM-15+0045KLWM V0203205N003652200059N0160935N5-01285-02065101895ADDAA101000095GF100991999999999999999999MA1101865101325MD1140134+9999REMMET10301/04/12 03:54:02 METAR KLWM 040854Z 32007KT 10SM CLR M13/M21 A3008 RMK AO2 SLP189 T11281206 51013 TSNO
0161744904947232012010409547+42717-071124FM-15+0045KLWM V0203105N004652200059N0160935N5-01285-02005101865ADDAA101000095GF100991999999999999999999MA1101835101295REMMET09701/04/12 04:54:02 METAR KLWM 040954Z 31009KT 10SM CLR M13/M20 A3007 RMK AO2 SLP186 T11281200 TSNO
0172744904947232012010410547+42717-071124FM-15+0045KLWM V0203105N004652200059N0160935N5-01285-02005101915ADDAA101000095GF100991999999999999999999MA1101905101355OC100725REMMET10001/04/12 05:54:02 METAR KLWM 041054Z 31009G14KT 10SM CLR M13/M20 A3009 RMK AO2 SLP191 T11281200 TSNO
0219744904947232012010411547+42717-071124FM-15+0045KLWM V0203005N003152200059N0160935N5-01285-01945101895ADDAA101000095GF100991999999999999999999KA1999M-01171KA2999N-01281MA1101865101325MD1540004+9999REMMET11501/04/12 06:54:02 METAR KLWM 041154Z 30006KT 10SM CLR M13/M19 A3008 RMK AO2 SLP189 T11281194 11117 21128 55000 (TB)
0161744904947232012010412547+42717-071124FM-15+0045KLWM V0202805N002652200059N0160935N5-01285-01945101955ADDAA101000095GF100991999999999999999999MA1101935101395REMMET09701/04/12 07:54:02 METAR KLWM 041254Z 28005KT 10SM CLR M13/M19 A3010 RMK AO2 SLP195 T11281194 (TB)
0161744904947232012010413547+42717-071124FM-15+0045KLWM V0203005N004152200059N0160935N5-01065-01895101985ADDAA101000095GF100991999999999999999999MA1101965101425REMMET09701/04/12 08:54:02 METAR KLWM 041354Z 30008KT 10SM CLR M11/M19 A3011 RMK AO2 SLP198 T11061189 (TB)
0192744904947232012010414547+42717-071124FM-15+0045KLWM V0203005N004652200059N0160935N5-01005-01895101985ADDAA101000095GF100991999999999999999999MA1101965101425MD1040094+9999OC100825REMMET10601/04/12 09:54:02 METAR KLWM 041454Z 30009G16KT 10SM CLR M10/M19 A3011 RMK AO2 SLP198 T11001189 50009 (TB)
0166744904947232012010415546+42717-071124FM-15+0045KLWM V0202805N004152200059N0160935N5-00785-01895101905ADDAA101000095GA1005+999999999GD10991+9999999MA1101865101325REMMET09701/04/12 10:54:02 METAR KLWM 041554Z 28008KT 10SM CLR M08/M19 A3008 RMK AO2 SLP190 T10781189 (TB)
0161744904947232012010416547+42717-071124FM-15+0045KLWM V0202605N003652200059N0160935N5-00615-01945101745ADDAA101000095GF100991999999999999999999MA1101735101195REMMET09701/04/12 11:54:02 METAR KLWM 041654Z 26007KT 10SM CLR M06/M19 A3004 RMK AO2 SLP174 T10611194 (TB)
0219744904947232012010417547+42717-071124FM-15+0045KLWM V0202705N002652200059N0160935N5-00395-02005101655ADDAA101000095GF100991999999999999999999KA1999M-00391KA2999N-01281MA1101635101085MD1840324+9999REMMET11501/04/12 12:54:02 METAR KLWM 041754Z 27005KT 10SM CLR M04/M20 A3001 RMK AO2 SLP165 T10391200 11039 21128 58032 (TB)
0161744904947232012010418547+42717-071124FM-15+0045KLWM V0209999V003152200059N0160935N5-00285-02005101635ADDAA101000095GF100991999999999999999999MA1101635101085REMMET09701/04/12 13:54:02 METAR KLWM 041854Z VRB06KT 10SM CLR M03/M20 A3001 RMK AO2 SLP163 T10281200 (CM)
0195744904947232012010419547+42717-071124FM-15+0045KLWM V0202305N00365030485MN0160935N5-00285-01895101605ADDAA101000095GA1075+030485999GD13991+0304859GF107991999999999999999999MA1101595101055REMMET10001/04/12 14:54:02 METAR KLWM 041954Z 23007KT 10SM BKN100 M03/M19 A3000 RMK AO2 SLP160 T10281189 (CM)
0215744904947232012010420547+42717-071124FM-15+0045KLWM V0202705N00315033535MN0160935N5-00335-01835101615ADDAA101000095GA1085+033535999GD14991+0335359GF108991999999999999999999MA1101595101055MD1540044+9999REMMET10601/04/12 15:54:02 METAR KLWM 042054Z 27006KT 10SM OVC110 M03/M18 A3000 RMK AO2 SLP161 T10331183 55004 (CM)
0195744904947232012010421547+42717-071124FM-15+0045KLWM V0202405N00365030485MN0160935N5-00335-01895101605ADDAA101000095GA1085+030485999GD14991+0304859GF108991999999999999999999MA1101595101055REMMET10001/04/12 16:54:02 METAR KLWM 042154Z 24007KT 10SM OVC100 M03/M19 A3000 RMK AO2 SLP160 T10331189 (CM)
0195744904947232012010422547+42717-071124FM-15+0045KLWM V0202305N00265027435MN0160935N5-00335-01785101585ADDAA101000095GA1085+027435999GD14991+0274359GF108991999999999999999999MA1101565101025REMMET10001/04/12 17:54:02 METAR KLWM 042254Z 23005KT 10SM OVC090 M03/M18 A2999 RMK AO2 SLP158 T10331178 (CM)
0253744904947232012010423547+42717-071124FM-15+0045KLWM V0202105N00415024385MN0160935N5-00335-01785101585ADDAA101000095GA1085+024385999GD14991+0243859GF108991999999999999999999KA1999M-00221KA2999N-00391MA1101565101025MD1640024+9999REMMET11801/04/12 18:54:02 METAR KLWM 042354Z 21008KT 10SM OVC080 M03/M18 A2999 RMK AO2 SLP158 T10331178 11022 21039 56002 (CM)
0190744904947232012010500547+42717-071124FM-15+0045KLWM V0202105N00365024385MN0160935N5-00335-01725101555ADDAA101000095GA1085+024385999GD14991+0243859GF108991999999999999999999MA1101525100985REMMET09501/04/12 19:54:01 METAR KLWM 050054Z 21007KT 10SM OVC080 M03/M17 A2998 RMK AO2 SLP155 T10331172
0190744904947232012010501547+42717-071124FM-15+0045KLWM V0202205N00315022865MN0160935N5-00335-01675101445ADDAA101000095GA1085+022865999GD14991+0228659GF108991999999999999999999MA1101425100885REMMET09501/04/12 20:54:01 METAR KLWM 050154Z 22006KT 10SM OVC075 M03/M17 A2995 RMK AO2 SLP144 T10331167
0210744904947232012010502547+42717-071124FM-15+0045KLWM V0202305N004152200059N0160935N5-00395-01615101405ADDAA101000095GA1025+025915999GD11991+0259159GF102991999999999999999999MA1101395100855MD1740184+9999REMMET10101/04/12 21:54:01 METAR KLWM 050254Z 23008KT 10SM FEW085 M04/M16 A2994 RMK AO2 SLP140 T10391161 57018
0195744904947232012010503547+42717-071124FM-15+0045KLWM V0202305N00465024385MN0160935N5-00335-01565101365ADDAA101000095GA1085+024385999GD14991+0243859GF108991999999999999999999MA1101325100785REMMET10001/04/12 22:54:01 METAR KLWM 050354Z 23009KT 10SM OVC080 M03/M16 A2992 RMK AO2 SLP136 T10331156 TSNO
0205744904947232012010504547+42717-071124FM-15+0045KLWM V0202305N00365022865MN0160935N5-00335-01505101315ADDAA101000095GA1085+022865999GD14991+0228659GF108991999999999999999999MA1101295100755REMMET11001/04/12 23:54:01 METAR KLWM 050454Z 23007KT 10SM OVC075 M03/M15 A2991 RMK AO2 SLP131 T10331150 410221128 TSNO
0886744904947232012010504596+42717-071124SOD  +0045KLWM V020999999999999999999999999999+99999+99999999999ADDAA124000095KA1240M-00215KA2240N-01275MG1101134101294OE11240098332000015OE22240067132000185OE33240037199999995REMSOD73024 HR PRECIPITATION (IN):0.00  24 HR MAX TEMP (F):28 24 HR MAX TEMP TIME (LST):1518 24 HR MIN TEMP (F):9  24 HR MIN TEMP TIME (LST):0755 AVERAGE STATION PRESSURE:29.865 MINIMUM SEA LEVEL PRESSURE:29.91 TIME OF OCCURRENCE:2359 PEAK WIND SPEED (MPH):22  PEAK WIND DIR (DEG):320 PEAK WIND TIME (LST):0001  FASTEST 2MIN SPEED (MPH):15 FASTEST 2MIN DIR (DEG):320 FASTEST 2MIN TIME (LST):0018 AVERAGE WIND SPEED (MPH):8.3  24 HR AVG TEMP (F):19 HEATING DEGREE DAYS:46  COOLING DEGREE DAYS:0   LATEST DAY MAX TEMP (0700-1900 LST):28  LATEST NIGHT MIN TEMP(1900-0800 LST):9  HOURLY INCREMENTAL PRECIPITATION VALUES (IN):.00 0.00 0.00 0.00 0.00 0.00 0.00 0.00 0.00 0.00 0.00 0.00 0.00 0.00 0.00 0.00 0.00 0.00 0.00 0.00 0.00 0.00 0.00 0.00EQDR01     N7GJS072R02     N7GKS075
0253744904947232012010505547+42717-071124FM-15+0045KLWM V0202305N00415021345MN0160935N5-00335-01505101235ADDAA101000095GA1085+021345999GD14991+0213459GF108991999999999999999999KA1999M-00331KA2999N-00391MA1101225100685MD1840164+9999REMMET11801/05/12 00:54:02 METAR KLWM 050554Z 23008KT 10SM OVC070 M03/M15 A2989 RMK AO2 SLP123 T10331150 11033 21039 58016 TSNO
0195744904947232012010506547+42717-071124FM-15+0045KLWM V0202205N00365021345MN0160935N5-00395-01445101195ADDAA101000095GA1085+021345999GD14991+0213459GF108991999999999999999999MA1101195100655REMMET10001/05/12 01:54:02 METAR KLWM 050654Z 22007KT 10SM OVC070 M04/M14 A2988 RMK AO2 SLP119 T10391144 TSNO
0195744904947232012010507547+42717-071124FM-15+0045KLWM V0202205N00365019815MN0160935N5-00335-01445101165ADDAA101000095GA1085+019815999GD14991+0198159GF108991999999999999999999MA1101155100615REMMET10001/05/12 02:54:02 METAR KLWM 050754Z 22007KT 10SM OVC065 M03/M14 A2987 RMK AO2 SLP116 T10331144 TSNO
0215744904947232012010508547+42717-071124FM-15+0045KLWM V0202305N00315019815MN0160935N5-00335-01445101135ADDAA101000095GA1085+019815999GD14991+0198159GF108991999999999999999999MA1101125100585MD1640104+9999REMMET10601/05/12 03:54:02 METAR KLWM 050854Z 23006KT 10SM OVC065 M03/M14 A2986 RMK AO2 SLP113 T10331144 56010 TSNO
0195744904947232012010509547+42717-071124FM-15+0045KLWM V0202305N00265021345MN0160935N5-00335-01395101095ADDAA101000095GA1085+021345999GD14991+0213459GF108991999999999999999999MA1101085100545REMMET10001/05/12 04:54:02 METAR KLWM 050954Z 23005KT 10SM OVC070 M03/M14 A2985 RMK AO2 SLP109 T10331139 TSNO
0195744904947232012010510547+42717-071124FM-15+0045KLWM V0202305N00265021345MN0160935N5-00335-01335101045ADDAA101000095GA1085+021345999GD14991+0213459GF108991999999999999999999MA1101025100485REMMET10001/05/12 05:54:02 METAR KLWM 051054Z 23005KT 10SM OVC070 M03/M13 A2983 RMK AO2 SLP104 T10331133 TSNO
0253744904947232012010511547+42717-071124FM-15+0045KLWM V0202205N00315021345MN0160935N5-00335-01285101025ADDAA101000095GA1085+021345999GD14991+0213459GF108991999999999999999999KA1999M-00331KA2999N-00391MA1101025100485MD1640114+9999REMMET11801/05/12 06:54:02 METAR KLWM 051154Z 22006KT 10SM OVC070 M03/M13 A2983 RMK AO2 SLP102 T10331128 11033 21039 56011 TSNO
0195744904947232012010512547+42717-071124FM-15+0045KLWM V0202205N00265019815MN0160935N5-00285-01225101025ADDAA101000095GA1085+019815999GD14991+0198159GF108991999999999999999999MA1101025100485REMMET10001/05/12 07:54:02 METAR KLWM 051254Z 22005KT 10SM OVC065 M03/M12 A2983 RMK AO2 SLP102 T10281122 TSNO
0195744904947232012010513547+42717-071124FM-15+0045KLWM V0202105N00315019815MN0160935N5-00225-01175101075ADDAA101000095GA1085+019815999GD14991+0198159GF108991999999999999999999MA1101055100515REMMET10001/05/12 08:54:02 METAR KLWM 051354Z 21006KT 10SM OVC065 M02/M12 A2984 RMK AO2 SLP107 T10221117 TSNO
0215744904947232012010514547+42717-071124FM-15+0045KLWM V0202305N00365021345MN0160935N5-00115-01065101055ADDAA101000095GA1085+021345999GD14991+0213459GF108991999999999999999999MA1101055100515MD1040034+9999REMMET10601/05/12 09:54:02 METAR KLWM 051454Z 23007KT 10SM OVC070 M01/M11 A2984 RMK AO2 SLP105 T10111106 50003 TSNO
0194744904947232012010515547+42717-071124FM-15+0045KLWM V0202505N003652200059N0160935N5+00115-00945100905ADDAA101000095GA1045+019815999GD12991+0198159GF104991999999999999999999MA1100885100345REMMET09901/05/12 10:54:02 METAR KLWM 051554Z 25007KT 10SM SCT065 01/M09 A2979 RMK AO2 SLP090 T00111094 (CM)
0194744904947232012010516547+42717-071124FM-15+0045KLWM V0202705N00415021345MN0160935N5+00225-00835100795ADDAA101000095GA1085+021345999GD14991+0213459GF108991999999999999999999MA1100785100245REMMET09901/05/12 11:54:02 METAR KLWM 051654Z 27008KT 10SM OVC070 02/M08 A2976 RMK AO2 SLP079 T00221083 (CM)
0252744904947232012010517547+42717-071124FM-15+0045KLWM V0202505N00415019815MN0160935N5+00285-00785100705ADDAA101000095GA1085+019815999GD14991+0198159GF108991999999999999999999KA1999M+00281KA2999N-00331MA1100685100145MD1640354+9999REMMET11701/05/12 12:54:02 METAR KLWM 051754Z 25008KT 10SM OVC065 03/M08 A2973 RMK AO2 SLP070 T00281078 10028 21033 56035 (CM)
0194744904947232012010518547+42717-071124FM-15+0045KLWM V0202505N00625019815MN0160935N5+00335-00725100745ADDAA101000095GA1085+019815999GD14991+0198159GF108991999999999999999999MA1100755100215REMMET09901/05/12 13:54:02 METAR KLWM 051854Z 25012KT 10SM OVC065 03/M07 A2975 RMK AO2 SLP074 T00331072 (CM)
0232744904947232012010519547+42717-071124FM-15+0045KLWM V0202705N00465018295MN0160935N5+00335-00725100795ADDAA101000095GA1045+014635999GA2085+018295999GD12991+0146359GD24991+0182959GF108991999999999999999999MA1100785100245REMMET10601/05/12 14:54:02 METAR KLWM 051954Z 27009KT 10SM SCT048 OVC060 03/M07 A2976 RMK AO2 SLP079 T00331072 (MP)
0214744904947232012010520547+42717-071124FM-15+0045KLWM V0202505N00465019815MN0160935N5+00225-00675100845ADDAA101000095GA1075+019815999GD13991+0198159GF107991999999999999999999MA1100855100315MD1340144+9999REMMET10501/05/12 15:54:02 METAR KLWM 052054Z 25009KT 10SM BKN065 02/M07 A2978 RMK AO2 SLP084 T00221067 53014 (MP)
0270744904947232012010521547+42717-071124FM-15+0045KLWM V0202505N00415012195MN0160935N5+00175-00615100925ADDAA101000095GA1075+012195999GA2075+014945999GA3085+019815999GD13991+0121959GD23991+0149459GD34991+0198159GF108991999999999999999999MA1100915100385REMMET11301/05/12 16:54:02 METAR KLWM 052154Z 25008KT 10SM BKN040 BKN049 OVC065 02/M06 A2980 RMK AO2 SLP092 T00171061 (CZ)
0270744904947232012010522547+42717-071124FM-15+0045KLWM V0202505N00315010975MN0160935N5+00175-00565101005ADDAA101000095GA1075+010975999GA2075+013725999GA3085+015245999GD13991+0109759GD23991+0137259GD34991+0152459GF108991999999999999999999MA1100985100445REMMET11301/05/12 17:54:02 METAR KLWM 052254Z 25006KT 10SM BKN036 BKN045 OVC050 02/M06 A2982 RMK AO2 SLP100 T00171056 (CZ)
0339744904947232012010523547+42717-071124FM-15+0045KLWM V0203105N00365012505MN0160935N5+00115-00675101125ADDAA101000095GA1045+010065999GA2075+012505999GA3085+015245999GD12991+0100659GD23991+0125059GD34991+0152459GF108991999999999999999999KA1999M+00331KA2999N+00111MA1101125100585MD1340274+9999OC100775REMMET13401/05/12 18:54:02 METAR KLWM 052354Z 31007G15KT 10SM SCT033 BKN041 OVC050 01/M07 A2986 RMK AO2 SLP112 T00111067 10033 20011 53027 (CZ)
0227744904947232012010600547+42717-071124FM-15+0045KLWM V0203105N00365010975MN0160935N5+00065-00725101185ADDAA101000095GA1075+010975999GA2085+014635999GD13991+0109759GD24991+0146359GF108991999999999999999999MA1101155100615REMMET10101/05/12 19:54:01 METAR KLWM 060054Z 31007KT 10SM BKN036 OVC048 01/M07 A2987 RMK AO2 SLP118 T00061072
0228744904947232012010601547+42717-071124FM-15+0045KLWM V0202905N00365015245MN0160935N5-00065-01065101275ADDAA101000095GA1025+011585999GA2075+015245999GD11991+0115859GD23991+0152459GF107991999999999999999999MA1101255100715REMMET10201/05/12 20:54:01 METAR KLWM 060154Z 29007KT 10SM FEW038 BKN050 M01/M11 A2990 RMK AO2 SLP127 T10061106
0210744904947232012010602547+42717-071124FM-15+0045KLWM V0202905N002152200059N0160935N5-00175-01065101315ADDAA101000095GA1025+011895999GD11991+0118959GF102991999999999999999999MA1101295100755MD1140204+9999REMMET10101/05/12 21:54:01 METAR KLWM 060254Z 29004KT 10SM FEW039 M02/M11 A2991 RMK AO2 SLP131 T10171106 51020
0156744904947232012010603547+42717-071124FM-15+0045KLWM V0202805N002152200059N0160935N5-00285-01065101325ADDAA101000095GF100991999999999999999999MA1101325100785REMMET09201/05/12 22:54:01 METAR KLWM 060354Z 28004KT 10SM CLR M03/M11 A2992 RMK AO2 SLP132 T10281106
0166744904947232012010604547+42717-071124FM-15+0045KLWM V0202805N002152200059N0160935N5-00335-01065101345ADDAA101000095GF100991999999999999999999MA1101325100785REMMET10201/05/12 23:54:01 METAR KLWM 060454Z 28004KT 10SM CLR M03/M11 A2992 RMK AO2 SLP134 T10331106 400331039
0886744904947232012010604596+42717-071124SOD  +0045KLWM V020999999999999999999999999999+99999+99999999999ADDAA124000095KA1240M+00335KA2240N-00385MG1100464100714OE11240098329020365OE22240067130020365OE33240034999999995REMSOD73024 HR PRECIPITATION (IN):0.00  24 HR MAX TEMP (F):38 24 HR MAX TEMP TIME (LST):1459 24 HR MIN TEMP (F):25 24 HR MIN TEMP TIME (LST):0641 AVERAGE STATION PRESSURE:29.665 MINIMUM SEA LEVEL PRESSURE:29.74 TIME OF OCCURRENCE:1337 PEAK WIND SPEED (MPH):22  PEAK WIND DIR (DEG):290 PEAK WIND TIME (LST):2036  FASTEST 2MIN SPEED (MPH):15 FASTEST 2MIN DIR (DEG):300 FASTEST 2MIN TIME (LST):2036 AVERAGE WIND SPEED (MPH):7.8  24 HR AVG TEMP (F):32 HEATING DEGREE DAYS:33  COOLING DEGREE DAYS:0   LATEST DAY MAX TEMP (0700-1900 LST):38  LATEST NIGHT MIN TEMP(1900-0800 LST):25 HOURLY INCREMENTAL PRECIPITATION VALUES (IN):.00 0.00 0.00 0.00 0.00 0.00 0.00 0.00 0.00 0.00 0.00 0.00 0.00 0.00 0.00 0.00 0.00 0.00 0.00 0.00 0.00 0.00 0.00 0.00EQDR01     N7GJS072R02     N7GKS075
0219744904947232012010605547+42717-071124FM-15+0045KLWM V0202705N002652200059N0160935N5-00395-01065101395ADDAA101000095GF100991999999999999999999KA1999M+00111KA2999N-00391MA1101395100855MD1340084+9999REMMET11501/06/12 00:54:02 METAR KLWM 060554Z 27005KT 10SM CLR M04/M11 A2994 RMK AO2 SLP139 T10391106 10011 21039 53008 (CZ)
0161744904947232012010606547+42717-071124FM-15+0045KLWM V0202605N001552200059N0160935N5-00335-01065101415ADDAA101000095GF100991999999999999999999MA1101395100855REMMET09701/06/12 01:54:02 METAR KLWM 060654Z 26003KT 10SM CLR M03/M11 A2994 RMK AO2 SLP141 T10331106 TSNO
0233744904947232012010607547+42717-071124FM-15+0045KLWM V0202305N00215024385MN0160935N5-00285-01115101425ADDAA101000095GA1075+024385999GA2085+027435999GD13991+0243859GD24991+0274359GF108991999999999999999999MA1101425100885REMMET10701/06/12 02:54:02 METAR KLWM 060754Z 23004KT 10SM BKN080 OVC090 M03/M11 A2995 RMK AO2 SLP142 T10281111 TSNO
0291744904947232012010608547+42717-071124FM-15+0045KLWM V0202105N00155024385MN0160935N5-00285-01115101405ADDAA101000095GA1045+015245999GA2075+024385999GA3075+028965999GD12991+0152459GD23991+0243859GD33991+0289659GF107991999999999999999999MA1101395100855MD1040014+9999REMMET12001/06/12 03:54:02 METAR KLWM 060854Z 21003KT 10SM SCT050 BKN080 BKN095 M03/M11 A2994 RMK AO2 SLP140 T10281111 50001 TSNO
0304744904947232012010609547+42717-071124FM-15+0045KLWM V0202105N00215014025MN0160935N5-00285-01005101395ADDAA101000025AU110030015AW1715GA1075+014025999GA2075+019815999GA3085+036585999GD13991+0140259GD23991+0198159GD34991+0365859GF108991999999999999999999MA1101395100855REMMET13001/06/12 04:54:02 METAR KLWM 060954Z 21004KT 10SM -SN BKN046 BKN065 OVC120 M03/M10 A2994 RMK AO2 SNB52 SLP139 P0000 T10281100 TSNO
0245744904947232012010610547+42717-071124FM-15+0045KLWM V0209999C00005018295MN0160935N5-00225-00945101335ADDAA101000025GA1075+018295999GA2085+030485999GD13991+0182959GD24991+0304859GF108991999999999999999999MA1101325100785REMMET11901/06/12 05:54:02 METAR KLWM 061054Z 00000KT 10SM BKN060 OVC100 M02/M09 A2992 RMK AO2 SNE16 SLP133 P0000 T10221094 TSNO
0270744904947232012010611547+42717-071124FM-15+0045KLWM V0209999C00005021345MN0160935N5-00225-00945101315ADDAA101000095AA206000021GA1085+021345999GD14991+0213459GF108991999999999999999999KA1999M-00221KA2999N-00391MA1101295100755MD1840094+9999REMMET12401/06/12 06:54:02 METAR KLWM 061154Z 00000KT 10SM OVC070 M02/M09 A2991 RMK AO2 SLP131 60000 T10221094 11022 21039 58009 (CM)
0195744904947232012010612547+42717-071124FM-15+0045KLWM V0209999C00005021345MN0160935N5-00175-00835101355ADDAA101000095GA1085+021345999GD14991+0213459GF108991999999999999999999MA1101325100785REMMET10001/06/12 07:54:02 METAR KLWM 061254Z 00000KT 10SM OVC070 M02/M08 A2992 RMK AO2 SLP135 T10171083 (CM)
0233744904947232012010613547+42717-071124FM-15+0045KLWM V0201105N00155018295MN0160935N5-00115-00725101345ADDAA101000095GA1075+018295999GA2085+027435999GD13991+0182959GD24991+0274359GF108991999999999999999999MA1101325100785REMMET10701/06/12 08:54:02 METAR KLWM 061354Z 11003KT 10SM BKN060 OVC090 M01/M07 A2992 RMK AO2 SLP134 T10111072 (CM)
0253744904947232012010614547+42717-071124FM-15+0045KLWM V0209999C00005018295MN0160935N5-00065-00615101255ADDAA101000095GA1075+018295999GA2085+027435999GD13991+0182959GD24991+0274359GF108991999999999999999999MA1101255100715MD1840064+9999REMMET11301/06/12 09:54:02 METAR KLWM 061454Z 00000KT 10SM BKN060 OVC090 M01/M06 A2990 RMK AO2 SLP125 T10061061 58006 (CM)
0232744904947232012010615547+42717-071124FM-15+0045KLWM V0209999C00005022865MN0160935N5+00115-00565101145ADDAA101000095GA1025+018295999GA2085+022865999GD11991+0182959GD24991+0228659GF108991999999999999999999MA1101125100585REMMET10601/06/12 10:54:02 METAR KLWM 061554Z 00000KT 10SM FEW060 OVC075 01/M06 A2986 RMK AO2 SLP114 T00111056 (CM)
0160744904947232012010616547+42717-071124FM-15+0045KLWM V0209999C000052200059N0160935N5+00395-00445100985ADDAA101000095GF100991999999999999999999MA1100985100445REMMET09601/06/12 11:54:02 METAR KLWM 061654Z 00000KT 10SM CLR 04/M04 A2982 RMK AO2 SLP098 T00391044 (CM)
0218744904947232012010617547+42717-071124FM-15+0045KLWM V0202505N001552200059N0160935N5+00615-00395100875ADDAA101000095GF100991999999999999999999KA1999M+00611KA2999N-00221MA1100855100315MD1640384+9999REMMET11401/06/12 12:54:02 METAR KLWM 061754Z 25003KT 10SM CLR 06/M04 A2978 RMK AO2 SLP087 T00611039 10061 21022 56038 (CM)
0160744904947232012010618547+42717-071124FM-15+0045KLWM V0209999C000052200059N0160935N5+00785-00335100815ADDAA101000095GF100991999999999999999999MA1100815100285REMMET09601/06/12 13:54:02 METAR KLWM 061854Z 00000KT 10SM CLR 08/M03 A2977 RMK AO2 SLP081 T00781033 (CM)
0160744904947232012010619547+42717-071124FM-15+0045KLWM V0200605N003152200059N0160935N5+00615-00335100755ADDAA101000095GF100991999999999999999999MA1100755100215REMMET09601/06/12 14:54:02 METAR KLWM 061954Z 06006KT 10SM CLR 06/M03 A2975 RMK AO2 SLP075 T00611033 (CM)
0180744904947232012010620547+42717-071124FM-15+0045KLWM V0200605N001552200059N0160935N5+00445-00335100775ADDAA101000095GF100991999999999999999999MA1100755100215MD1540104+9999REMMET10201/06/12 15:54:02 METAR KLWM 062054Z 06003KT 10SM CLR 04/M03 A2975 RMK AO2 SLP077 T00441033 55010 (MP)
0160744904947232012010621547+42717-071124FM-15+0045KLWM V0200305N002152200059N0160935N5+00285-00335100775ADDAA101000095GF100991999999999999999999MA1100755100215REMMET09601/06/12 16:54:02 METAR KLWM 062154Z 03004KT 10SM CLR 03/M03 A2975 RMK AO2 SLP077 T00281033 (CZ)
0160744904947232012010622547+42717-071124FM-15+0045KLWM V0209999C000052200059N0160935N5+00285-00285100785ADDAA101000095GF100991999999999999999999MA1100785100245REMMET09601/06/12 17:54:02 METAR KLWM 062254Z 00000KT 10SM CLR 03/M03 A2976 RMK AO2 SLP078 T00281028 (CZ)
0218744904947232012010623547+42717-071124FM-15+0045KLWM V0203605N002152200059N0160935N5+00225-00395100815ADDAA101000095GF100991999999999999999999KA1999M+00781KA2999N+00221MA1100815100285MD1340044+9999REMMET11401/06/12 18:54:02 METAR KLWM 062354Z 36004KT 10SM CLR 02/M04 A2977 RMK AO2 SLP081 T00221039 10078 20022 53004 (CZ)
0155744904947232012010700547+42717-071124FM-15+0045KLWM V0200405N002652200059N0160935N5+00115-00395100845ADDAA101000095GF100991999999999999999999MA1100855100315REMMET09101/06/12 19:54:01 METAR KLWM 070054Z 04005KT 10SM CLR 01/M04 A2978 RMK AO2 SLP084 T00111039
0156744904947232012010701547+42717-071124FM-15+0045KLWM V0200505N001552200059N0160935N5-00065-00505100865ADDAA101000095GF100991999999999999999999MA1100855100315REMMET09201/06/12 20:54:01 METAR KLWM 070154Z 05003KT 10SM CLR M01/M05 A2978 RMK AO2 SLP086 T10061050
0176744904947232012010702547+42717-071124FM-15+0045KLWM V0209999C000052200059N0160935N5-00065-00445100865ADDAA101000095GF100991999999999999999999MA1100855100315MD1140054+9999REMMET09801/06/12 21:54:01 METAR KLWM 070254Z 00000KT 10SM CLR M01/M04 A2978 RMK AO2 SLP086 T10061044 51005
0156744904947232012010703547+42717-071124FM-15+0045KLWM V0209999C000052200059N0160935N5-00065-00445100815ADDAA101000095GF100991999999999999999999MA1100815100285REMMET09201/06/12 22:54:01 METAR KLWM 070354Z 00000KT 10SM CLR M01/M04 A2977 RMK AO2 SLP081 T10061044
0166744904947232012010704547+42717-071124FM-15+0045KLWM V0209999C000052200059N0160935N5-00115-00445100785ADDAA101000095GF100991999999999999999999MA1100785100245REMMET10201/06/12 23:54:01 METAR KLWM 070454Z 00000KT 10SM CLR M01/M04 A2976 RMK AO2 SLP078 T10111044 400781039
0886744904947232012010704596+42717-071124SOD  +0045KLWM V020999999999999999999999999999+99999+99999999999ADDAA124000025KA1240M+00785KA2240N-00385MG1100524100754OE11240053622012045OE22240040205015295OE33240010799999995REMSOD73024 HR PRECIPITATION (IN):T     24 HR MAX TEMP (F):46 24 HR MAX TEMP TIME (LST):1435 24 HR MIN TEMP (F):25 24 HR MIN TEMP TIME (LST):0106 AVERAGE STATION PRESSURE:29.685 MINIMUM SEA LEVEL PRESSURE:29.75 TIME OF OCCURRENCE:1659 PEAK WIND SPEED (MPH):12  PEAK WIND DIR (DEG):220 PEAK WIND TIME (LST):1204  FASTEST 2MIN SPEED (MPH):9  FASTEST 2MIN DIR (DEG):50  FASTEST 2MIN TIME (LST):1529 AVERAGE WIND SPEED (MPH):2.4  24 HR AVG TEMP (F):36 HEATING DEGREE DAYS:29  COOLING DEGREE DAYS:0   LATEST DAY MAX TEMP (0700-1900 LST):46  LATEST NIGHT MIN TEMP(1900-0800 LST):25 HOURLY INCREMENTAL PRECIPITATION VALUES (IN):.00 0.00 0.00 0.00 T    T    0.00 0.00 0.00 0.00 0.00 0.00 0.00 0.00 0.00 0.00 0.00 0.00 0.00 0.00 0.00 0.00 0.00 0.00EQDR01     N7GJS072R02     N7GKS075
0219744904947232012010705547+42717-071124FM-15+0045KLWM V0209999C000052200059N0160935N5-00115-00445100775ADDAA101000095GF100991999999999999999999KA1999M+00221KA2999N-00171MA1100755100215MD1640094+9999REMMET11501/07/12 00:54:02 METAR KLWM 070554Z 00000KT 10SM CLR M01/M04 A2975 RMK AO2 SLP077 T10111044 10022 21017 56009 (CZ)
0161744904947232012010706547+42717-071124FM-15+0045KLWM V0209999C000052200059N0160935N5-00175-00505100775ADDAA101000095GF100991999999999999999999MA1100755100215REMMET09701/07/12 01:54:02 METAR KLWM 070654Z 00000KT 10SM CLR M02/M05 A2975 RMK AO2 SLP077 T10171050 TSNO
0161744904947232012010707547+42717-071124FM-15+0045KLWM V0209999C000052200059N0160935N5-00225-00445100785ADDAA101000095GF100991999999999999999999MA1100785100245REMMET09701/07/12 02:54:02 METAR KLWM 070754Z 00000KT 10SM CLR M02/M04 A2976 RMK AO2 SLP078 T10221044 TSNO
0181744904947232012010708547+42717-071124FM-15+0045KLWM V0209999C000052200059N0160935N5-00065-00395100755ADDAA101000095GF100991999999999999999999MA1100755100215MD1840014+9999REMMET10301/07/12 03:54:02 METAR KLWM 070854Z 00000KT 10SM CLR M01/M04 A2975 RMK AO2 SLP075 T10061039 58001 TSNO
0161744904947232012010709547+42717-071124FM-15+0045KLWM V0209999C000052200059N0160935N5-00065-00335100745ADDAA101000095GF100991999999999999999999MA1100715100175REMMET09701/07/12 04:54:02 METAR KLWM 070954Z 00000KT 10SM CLR M01/M03 A2974 RMK AO2 SLP074 T10061033 TSNO
0161744904947232012010710547+42717-071124FM-15+0045KLWM V0209999C000052200059N0160935N5-00225-00445100785ADDAA101000095GF100991999999999999999999MA1100785100245REMMET09701/07/12 05:54:02 METAR KLWM 071054Z 00000KT 10SM CLR M02/M04 A2976 RMK AO2 SLP078 T10221044 TSNO
0219744904947232012010711547+42717-071124FM-15+0045KLWM V0209999C000052200059N0160935N5-00175-00445100775ADDAA101000095GF100991999999999999999999KA1999M-00061KA2999N-00221MA1100785100245MD1340024+9999REMMET11501/07/12 06:54:02 METAR KLWM 071154Z 00000KT 10SM CLR M02/M04 A2976 RMK AO2 SLP077 T10171044 11006 21022 53002 (CM)
0161744904947232012010712547+42717-071124FM-15+0045KLWM V0200205N001552200059N0160935N5-00175-00445100825ADDAA101000095GF100991999999999999999999MA1100815100285REMMET09701/07/12 07:54:02 METAR KLWM 071254Z 02003KT 10SM CLR M02/M04 A2977 RMK AO2 SLP082 T10171044 (CM)
0160744904947232012010713547+42717-071124FM-15+0045KLWM V0209999C000052200059N0160935N5+00065-00335100815ADDAA101000095GF100991999999999999999999MA1100815100285REMMET09601/07/12 08:54:02 METAR KLWM 071354Z 00000KT 10SM CLR 01/M03 A2977 RMK AO2 SLP081 T00061033 (CM)
0214744904947232012010714547+42717-071124FM-15+0045KLWM V0209999C000052200059N0160935N5+00335-00225100815ADDAA101000095GA1045+030485999GD12991+0304859GF104991999999999999999999MA1100815100285MD1040034+9999REMMET10501/07/12 09:54:02 METAR KLWM 071454Z 00000KT 10SM SCT100 03/M02 A2977 RMK AO2 SLP081 T00331022 50003 (CM)
0160744904947232012010715547+42717-071124FM-15+0045KLWM V0209999C000052200059N0160935N5+00615-00225100685ADDAA101000095GF100991999999999999999999MA1100685100145REMMET09601/07/12 10:54:02 METAR KLWM 071554Z 00000KT 10SM CLR 06/M02 A2973 RMK AO2 SLP068 T00611022 (CM)
0160744904947232012010716547+42717-071124FM-15+0045KLWM V0209999V002152200059N0160935N5+00835-00175100525ADDAA101000095GF100991999999999999999999MA1100515099975REMMET09601/07/12 11:54:02 METAR KLWM 071654Z VRB04KT 10SM CLR 08/M02 A2968 RMK AO2 SLP052 T00831017 (CM)
0218744904947232012010717547+42717-071124FM-15+0045KLWM V0202505N003152200059N0160935N5+01115-00175100465ADDAA101000095GF100991999999999999999999KA1999M+01111KA2999N-00221MA1100475099945MD1640334+9999REMMET11401/07/12 12:54:02 METAR KLWM 071754Z 25006KT 10SM CLR 11/M02 A2967 RMK AO2 SLP046 T01111017 10111 21022 56033 (CM)
0160744904947232012010718547+42717-071124FM-15+0045KLWM V0209999C000052200059N0160935N5+01285-00115100435ADDAA101000095GF100991999999999999999999MA1100445099905REMMET09601/07/12 13:54:02 METAR KLWM 071854Z 00000KT 10SM CLR 13/M01 A2966 RMK AO2 SLP043 T01281011 (CM)
0194744904947232012010719547+42717-071124FM-15+0045KLWM V0202405N00265018295MN0160935N5+01395-00065100445ADDAA101000095GA1075+018295999GD13991+0182959GF107991999999999999999999MA1100445099905REMMET09901/07/12 14:54:02 METAR KLWM 071954Z 24005KT 10SM BKN060 14/M01 A2966 RMK AO2 SLP044 T01391006 (CZ)
0214744904947232012010720547+42717-071124FM-15+0045KLWM V0202905N00215018295MN0160935N5+01285-00065100555ADDAA101000095GA1085+018295999GD14991+0182959GF108991999999999999999999MA1100545100015MD1340084+9999REMMET10501/07/12 15:54:02 METAR KLWM 072054Z 29004KT 10SM OVC060 13/M01 A2969 RMK AO2 SLP055 T01281006 53008 (CZ)
0193744904947232012010721547+42717-071124FM-15+0045KLWM V0202805N00465019815MN0160935N5+01225+00005100645ADDAA101000095GA1085+019815999GD14991+0198159GF108991999999999999999999MA1100645100115REMMET09801/07/12 16:54:02 METAR KLWM 072154Z 28009KT 10SM OVC065 12/00 A2972 RMK AO2 SLP064 T01220000 (TB)
0160744904947232012010722547+42717-071124FM-15+0045KLWM V0202805N003152200059N0160935N5+01065-00065100775ADDAA101000095GF100991999999999999999999MA1100785100245REMMET09601/07/12 17:54:02 METAR KLWM 072254Z 28006KT 10SM CLR 11/M01 A2976 RMK AO2 SLP077 T01061006 (TB)
0217744904947232012010723547+42717-071124FM-15+0045KLWM V0202505N004152200059N0160935N5+00945+00005100845ADDAA101000095GF100991999999999999999999KA1999M+01391KA2999N+00781MA1100855100315MD1140294+9999REMMET11301/07/12 18:54:02 METAR KLWM 072354Z 25008KT 10SM CLR 09/00 A2978 RMK AO2 SLP084 T00940000 10139 20078 51029 (TB)
0155744904947232012010800547+42717-071124FM-15+0045KLWM V0202705N003152200059N0160935N5+00895-00065100935ADDAA101000095GF100991999999999999999999MA1100955100415REMMET09101/07/12 19:54:01 METAR KLWM 080054Z 27006KT 10SM CLR 09/M01 A2981 RMK AO2 SLP093 T00891006
0155744904947232012010801547+42717-071124FM-15+0045KLWM V0202605N002652200059N0160935N5+00785-00065100975ADDAA101000095GF100991999999999999999999MA1100985100445REMMET09101/07/12 20:54:01 METAR KLWM 080154Z 26005KT 10SM CLR 08/M01 A2982 RMK AO2 SLP097 T00781006
0175744904947232012010802547+42717-071124FM-15+0045KLWM V0202205N003152200059N0160935N5+00505-00115101055ADDAA101000095GF100991999999999999999999MA1101055100515MD1140214+9999REMMET09701/07/12 21:54:01 METAR KLWM 080254Z 22006KT 10SM CLR 05/M01 A2984 RMK AO2 SLP105 T00501011 51021
0155744904947232012010803547+42717-071124FM-15+0045KLWM V0202405N003652200059N0160935N5+00615-00115101125ADDAA101000095GF100991999999999999999999MA1101125100585REMMET09101/07/12 22:54:01 METAR KLWM 080354Z 24007KT 10SM CLR 06/M01 A2986 RMK AO2 SLP112 T00611011
0165744904947232012010804547+42717-071124FM-15+0045KLWM V0202405N003652200059N0160935N5+00565-00285101185ADDAA101000095GF100991999999999999999999MA1101195100655REMMET10101/07/12 23:54:01 METAR KLWM 080454Z 24007KT 10SM CLR 06/M03 A2988 RMK AO2 SLP118 T00561028 401391022
0886744904947232012010804596+42717-071124SOD  +0045KLWM V020999999999999999999999999999+99999+99999999999ADDAA124000095KA1240M+01395KA2240N-00215MG1100154100444OE11240076028017055OE22240058128017055OE33240016199999995REMSOD73024 HR PRECIPITATION (IN):0.00  24 HR MAX TEMP (F):57 24 HR MAX TEMP TIME (LST):1525 24 HR MIN TEMP (F):28 24 HR MIN TEMP TIME (LST):0738 AVERAGE STATION PRESSURE:29.575 MINIMUM SEA LEVEL PRESSURE:29.66 TIME OF OCCURRENCE:1504 PEAK WIND SPEED (MPH):17  PEAK WIND DIR (DEG):280 PEAK WIND TIME (LST):1705  FASTEST 2MIN SPEED (MPH):13 FASTEST 2MIN DIR (DEG):280 FASTEST 2MIN TIME (LST):1705 AVERAGE WIND SPEED (MPH):3.6  24 HR AVG TEMP (F):43 HEATING DEGREE DAYS:22  COOLING DEGREE DAYS:0   LATEST DAY MAX TEMP (0700-1900 LST):57  LATEST NIGHT MIN TEMP(1900-0800 LST):28 HOURLY INCREMENTAL PRECIPITATION VALUES (IN):.00 0.00 0.00 0.00 0.00 0.00 0.00 0.00 0.00 0.00 0.00 0.00 0.00 0.00 0.00 0.00 0.00 0.00 0.00 0.00 0.00 0.00 0.00 0.00EQDR01     N7GJS072R02     N7GKS075
0218744904947232012010805547+42717-071124FM-15+0045KLWM V0202405N003152200059N0160935N5+00445-00335101285ADDAA101000095GF100991999999999999999999KA1999M+01001KA2999N+00441MA1101295100755MD1340224+9999REMMET11401/08/12 00:54:02 METAR KLWM 080554Z 24006KT 10SM CLR 04/M03 A2991 RMK AO2 SLP128 T00441033 10100 20044 53022 (TB)
0160744904947232012010806547+42717-071124FM-15+0045KLWM V0202405N003152200059N0160935N5+00445-00285101385ADDAA101000095GF100991999999999999999999MA1101395100855REMMET09601/08/12 01:54:02 METAR KLWM 080654Z 24006KT 10SM CLR 04/M03 A2994 RMK AO2 SLP138 T00441028 TSNO
0160744904947232012010807547+42717-071124FM-15+0045KLWM V0202105N003152200059N0160935N5+00335-00335101435ADDAA101000095GF100991999999999999999999MA1101425100885REMMET09601/08/12 02:54:02 METAR KLWM 080754Z 21006KT 10SM CLR 03/M03 A2995 RMK AO2 SLP143 T00331033 TSNO
0180744904947232012010808547+42717-071124FM-15+0045KLWM V0202305N002652200059N0160935N5+00225-00335101455ADDAA101000095GF100991999999999999999999MA1101465100925MD1140174+9999REMMET10201/08/12 03:54:02 METAR KLWM 080854Z 23005KT 10SM CLR 02/M03 A2996 RMK AO2 SLP145 T00221033 51017 TSNO
0160744904947232012010809547+42717-071124FM-15+0045KLWM V0202205N002152200059N0160935N5+00175-00335101525ADDAA101000095GF100991999999999999999999MA1101525100985REMMET09601/08/12 04:54:02 METAR KLWM 080954Z 22004KT 10SM CLR 02/M03 A2998 RMK AO2 SLP152 T00171033 TSNO
0194744904947232012010810547+42717-071124FM-15+0045KLWM V0202305N002652200059N0160935N5+00175-00395101625ADDAA101000095GA1045+013415999GD12991+0134159GF104991999999999999999999MA1101635101085REMMET09901/08/12 05:54:02 METAR KLWM 081054Z 23005KT 10SM SCT044 02/M04 A3001 RMK AO2 SLP162 T00171039 TSNO
0218744904947232012010811547+42717-071124FM-15+0045KLWM V0209999C000052200059N0160935N5+00175-00395101715ADDAA101000095GF100991999999999999999999KA1999M+00501KA2999N+00111MA1101695101155MD1340264+9999REMMET11401/08/12 06:54:02 METAR KLWM 081154Z 00000KT 10SM CLR 02/M04 A3003 RMK AO2 SLP171 T00171039 10050 20011 53026 TSNO
0194744904947232012010812547+42717-071124FM-15+0045KLWM V0209999C00005013115MN0160935N5+00115-00335101835ADDAA101000095GA1085+013115999GD14991+0131159GF108991999999999999999999MA1101835101295REMMET09901/08/12 07:54:02 METAR KLWM 081254Z 00000KT 10SM OVC043 01/M03 A3007 RMK AO2 SLP183 T00111033 (MP)
0194744904947232012010813547+42717-071124FM-15+0045KLWM V0209999C00005013115MN0160935N5+00335-00335101945ADDAA101000095GA1075+013115999GD13991+0131159GF107991999999999999999999MA1101935101395REMMET09901/08/12 08:54:02 METAR KLWM 081354Z 00000KT 10SM BKN043 03/M03 A3010 RMK AO2 SLP194 T00331033 (MP)
0214744904947232012010814547+42717-071124FM-15+0045KLWM V0202805N00265013725MN0160935N5+00505-00395101985ADDAA101000095GA1075+013725999GD13991+0137259GF107991999999999999999999MA1101965101425MD1140274+9999REMMET10501/08/12 09:54:02 METAR KLWM 081454Z 28005KT 10SM BKN045 05/M04 A3011 RMK AO2 SLP198 T00501039 51027 (MP)
0177744904947232012010815207+42717-071124FM-16+0045KLWM V0202905N00365013725MN0160935N5+00605-00505999999ADDGA1075+013725999GD13991+0137259GF107991999999999999999999MA1102005101465OC100825REMMET08501/08/12 10:20:02 SPECI KLWM 081520Z 29007G16KT 10SM BKN045 06/M05 A3012 RMK AO2 (MP)
0205744904947232012010815547+42717-071124FM-15+0045KLWM V0203005N00465013725MN0160935N5+00565-00565101985ADDAA101000095GA1075+013725999GD13991+0137259GF107991999999999999999999MA1101965101425OC100825REMMET10201/08/12 10:54:02 METAR KLWM 081554Z 30009G16KT 10SM BKN045 06/M06 A3011 RMK AO2 SLP198 T00561056 (MP)
0194744904947232012010816547+42717-071124FM-15+0045KLWM V0203105N00315013725MN0160935N5+00615-00565101975ADDAA101000095GA1085+013725999GD14991+0137259GF108991999999999999999999MA1101965101425REMMET09901/08/12 11:54:02 METAR KLWM 081654Z 31006KT 10SM OVC045 06/M06 A3011 RMK AO2 SLP197 T00611056 (MP)
0252744904947232012010817547+42717-071124FM-15+0045KLWM V0203005N00515013725MN0160935N5+00615-00565101945ADDAA101000095GA1085+013725999GD14991+0137259GF108991999999999999999999KA1999M+00721KA2999N+00061MA1101935101395MD1840044+9999REMMET11701/08/12 12:54:02 METAR KLWM 081754Z 30010KT 10SM OVC045 06/M06 A3010 RMK AO2 SLP194 T00611056 10072 20006 58004 (MP)
0194744904947232012010818547+42717-071124FM-15+0045KLWM V0203005N00575014335MN0160935N5+00565-00565101965ADDAA101000095GA1085+014335999GD14991+0143359GF108991999999999999999999MA1101965101425REMMET09901/08/12 13:54:02 METAR KLWM 081854Z 30011KT 10SM OVC047 06/M06 A3011 RMK AO2 SLP196 T00561056 (MP)
0194744904947232012010819547+42717-071124FM-15+0045KLWM V0203005N00315014945MN0160935N5+00565-00615102035ADDAA101000095GA1085+014945999GD14991+0149459GF108991999999999999999999MA1102035101495REMMET09901/08/12 14:54:02 METAR KLWM 081954Z 30006KT 10SM OVC049 06/M06 A3013 RMK AO2 SLP203 T00561061 (MP)
0214744904947232012010820547+42717-071124FM-15+0045KLWM V0203405N00465014945MN0160935N5+00445-00615102125ADDAA101000095GA1085+014945999GD14991+0149459GF108991999999999999999999MA1102105101565MD1340174+9999REMMET10501/08/12 15:54:02 METAR KLWM 082054Z 34009KT 10SM OVC049 04/M06 A3015 RMK AO2 SLP212 T00441061 53017 (MP)
0194744904947232012010821547+42717-071124FM-15+0045KLWM V0203405N00215016765MN0160935N5+00335-00675102195ADDAA101000095GA1085+016765999GD14991+0167659GF108991999999999999999999MA1102175101625REMMET09901/08/12 16:54:02 METAR KLWM 082154Z 34004KT 10SM OVC055 03/M07 A3017 RMK AO2 SLP219 T00331067 (RR)
0194744904947232012010822547+42717-071124FM-15+0045KLWM V0203105N00215018295MN0160935N5+00335-00675102275ADDAA101000095GA1085+018295999GD14991+0182959GF108991999999999999999999MA1102275101735REMMET09901/08/12 17:54:02 METAR KLWM 082254Z 31004KT 10SM OVC060 03/M07 A3020 RMK AO2 SLP227 T00331067 (RR)
0252744904947232012010823547+42717-071124FM-15+0045KLWM V0203005N00215016765MN0160935N5+00285-00725102365ADDAA101000095GA1085+016765999GD14991+0167659GF108991999999999999999999KA1999M+00611KA2999N+00281MA1102345101795MD1340244+9999REMMET11701/08/12 18:54:02 METAR KLWM 082354Z 30004KT 10SM OVC055 03/M07 A3022 RMK AO2 SLP236 T00281072 10061 20028 53024 (RR)
0200744904947232012010900547+42717-071124FM-15+0045KLWM V0203305N00415018295MN0160935N5+00225-00785102445ADDAA101000095GA1075+018295999GD13991+0182959GF107991999999999999999999MA1102445101895OC100775REMMET09701/08/12 19:54:01 METAR KLWM 090054Z 33008G15KT 10SM BKN060 02/M08 A3025 RMK AO2 SLP244 T00221078
0189744904947232012010901547+42717-071124FM-15+0045KLWM V0203305N004152200059N0160935N5+00005-00785102515ADDAA101000095GA1045+016765999GD12991+0167659GF104991999999999999999999MA1102515101965REMMET09401/08/12 20:54:01 METAR KLWM 090154Z 33008KT 10SM SCT055 00/M08 A3027 RMK AO2 SLP251 T00001078
0176744904947232012010902547+42717-071124FM-15+0045KLWM V0203305N003152200059N0160935N5-00115-00835102535ADDAA101000095GF100991999999999999999999MA1102515101965MD1140184+9999REMMET09801/08/12 21:54:01 METAR KLWM 090254Z 33006KT 10SM CLR M01/M08 A3027 RMK AO2 SLP253 T10111083 51018
0161744904947232012010903547+42717-071124FM-15+0045KLWM V0203305N005152200059N0160935N5-00115-01005102545ADDAA101000095GF100991999999999999999999MA1102545101995REMMET09701/08/12 22:54:01 METAR KLWM 090354Z 33010KT 10SM CLR M01/M10 A3028 RMK AO2 SLP254 T10111100 TSNO
0171744904947232012010904547+42717-071124FM-15+0045KLWM V0203505N002652200059N0160935N5-00225-01065102575ADDAA101000095GF100991999999999999999999MA1102545101995REMMET10701/08/12 23:54:01 METAR KLWM 090454Z 35005KT 10SM CLR M02/M11 A3028 RMK AO2 SLP257 T10221106 400721022 TSNO
0886744904947232012010904596+42717-071124SOD  +0045KLWM V020999999999999999999999999999+99999+99999999999ADDAA124000095KA1240M+00725KA2240N-00275MG1101254101194OE11240089431014005OE22240058133019515OE33240029599999995REMSOD73024 HR PRECIPITATION (IN):0.00  24 HR MAX TEMP (F):45 24 HR MAX TEMP TIME (LST):1241 24 HR MIN TEMP (F):27 24 HR MIN TEMP TIME (LST):2359 AVERAGE STATION PRESSURE:29.900 MINIMUM SEA LEVEL PRESSURE:29.88 TIME OF OCCURRENCE:0009 PEAK WIND SPEED (MPH):20  PEAK WIND DIR (DEG):310 PEAK WIND TIME (LST):1400  FASTEST 2MIN SPEED (MPH):13 FASTEST 2MIN DIR (DEG):330 FASTEST 2MIN TIME (LST):1951 AVERAGE WIND SPEED (MPH):6.6  24 HR AVG TEMP (F):36 HEATING DEGREE DAYS:29  COOLING DEGREE DAYS:0   LATEST DAY MAX TEMP (0700-1900 LST):45  LATEST NIGHT MIN TEMP(1900-0800 LST):33 HOURLY INCREMENTAL PRECIPITATION VALUES (IN):.00 0.00 0.00 0.00 0.00 0.00 0.00 0.00 0.00 0.00 0.00 0.00 0.00 0.00 0.00 0.00 0.00 0.00 0.00 0.00 0.00 0.00 0.00 0.00EQDR01     N7GJS072R02     N7GKS075
0219744904947232012010905547+42717-071124FM-15+0045KLWM V0203305N002152200059N0160935N5-00285-01065102595ADDAA101000095GF100991999999999999999999KA1999M+00281KA2999N-00331MA1102575102035MD1340054+9999REMMET11501/09/12 00:54:02 METAR KLWM 090554Z 33004KT 10SM CLR M03/M11 A3029 RMK AO2 SLP259 T10281106 10028 21033 53005 TSNO
0161744904947232012010906547+42717-071124FM-15+0045KLWM V0202905N002152200059N0160935N5-00335-01065102645ADDAA101000095GF100991999999999999999999MA1102645102105REMMET09701/09/12 01:54:02 METAR KLWM 090654Z 29004KT 10SM CLR M03/M11 A3031 RMK AO2 SLP264 T10331106 TSNO
0161744904947232012010907547+42717-071124FM-15+0045KLWM V0203005N002152200059N0160935N5-00395-01175102635ADDAA101000095GF100991999999999999999999MA1102615102065REMMET09701/09/12 02:54:02 METAR KLWM 090754Z 30004KT 10SM CLR M04/M12 A3030 RMK AO2 SLP263 T10391117 TSNO
0181744904947232012010908547+42717-071124FM-15+0045KLWM V0203205N002152200059N0160935N5-00395-01175102615ADDAA101000095GF100991999999999999999999MA1102615102065MD1040024+9999REMMET10301/09/12 03:54:02 METAR KLWM 090854Z 32004KT 10SM CLR M04/M12 A3030 RMK AO2 SLP261 T10391117 50002 TSNO
0161744904947232012010909547+42717-071124FM-15+0045KLWM V0203405N002152200059N0160935N5-00395-01175102645ADDAA101000095GF100991999999999999999999MA1102645102105REMMET09701/09/12 04:54:02 METAR KLWM 090954Z 34004KT 10SM CLR M04/M12 A3031 RMK AO2 SLP264 T10391117 TSNO
0161744904947232012010910547+42717-071124FM-15+0045KLWM V0203405N002152200059N0160935N5-00445-01175102655ADDAA101000095GF100991999999999999999999MA1102645102105REMMET09701/09/12 05:54:02 METAR KLWM 091054Z 34004KT 10SM CLR M04/M12 A3031 RMK AO2 SLP265 T10441117 TSNO
0253744904947232012010911547+42717-071124FM-15+0045KLWM V0202905N00155028965MN0160935N5-00445-01115102645ADDAA101000095GA1075+028965999GD13991+0289659GF107991999999999999999999KA1999M-00281KA2999N-00501MA1102645102105MD1040024+9999REMMET11801/09/12 06:54:02 METAR KLWM 091154Z 29003KT 10SM BKN095 M04/M11 A3031 RMK AO2 SLP264 T10441111 11028 21050 50002 TSNO
0195744904947232012010912547+42717-071124FM-15+0045KLWM V0209999C00005030485MN0160935N5-00395-01115102655ADDAA101000095GA1085+030485999GD14991+0304859GF108991999999999999999999MA1102645102105REMMET10001/09/12 07:54:02 METAR KLWM 091254Z 00000KT 10SM OVC100 M04/M11 A3031 RMK AO2 SLP265 T10391111 (CZ)
0195744904947232012010913547+42717-071124FM-15+0045KLWM V0209999C00005030485MN0160935N5-00285-01065102655ADDAA101000095GA1085+030485999GD14991+0304859GF108991999999999999999999MA1102645102105REMMET10001/09/12 08:54:02 METAR KLWM 091354Z 00000KT 10SM OVC100 M03/M11 A3031 RMK AO2 SLP265 T10281106 (CZ)
0215744904947232012010914547+42717-071124FM-15+0045KLWM V0202405N00215030485MN0160935N5-00175-01005102635ADDAA101000095GA1085+030485999GD14991+0304859GF108991999999999999999999MA1102615102065MD1840014+9999REMMET10601/09/12 09:54:02 METAR KLWM 091454Z 24004KT 10SM OVC100 M02/M10 A3030 RMK AO2 SLP263 T10171100 58001 (CZ)
0195744904947232012010915547+42717-071124FM-15+0045KLWM V0202005N00155028965MN0160935N5-00065-01005102545ADDAA101000095GA1085+028965999GD14991+0289659GF108991999999999999999999MA1102545101995REMMET10001/09/12 10:54:02 METAR KLWM 091554Z 20003KT 10SM OVC095 M01/M10 A3028 RMK AO2 SLP254 T10061100 (CZ)
0194744904947232012010916547+42717-071124FM-15+0045KLWM V0201705N00155028965MN0160935N5+00005-01065102405ADDAA101000095GA1085+028965999GD14991+0289659GF108991999999999999999999MA1102375101835REMMET09901/09/12 11:54:02 METAR KLWM 091654Z 17003KT 10SM OVC095 00/M11 A3023 RMK AO2 SLP240 T00001106 (CZ)
0252744904947232012010917547+42717-071124FM-15+0045KLWM V0202105N00155027435MN0160935N5+00225-01065102255ADDAA101000095GA1085+027435999GD14991+0274359GF108991999999999999999999KA1999M+00221KA2999N-00441MA1102245101695MD1840384+9999REMMET11701/09/12 12:54:02 METAR KLWM 091754Z 21003KT 10SM OVC090 02/M11 A3019 RMK AO2 SLP225 T00221106 10022 21044 58038 (CZ)
0194744904947232012010918547+42717-071124FM-15+0045KLWM V0209999V00155027435MN0160935N5+00225-01175102165ADDAA101000095GA1085+027435999GD14991+0274359GF108991999999999999999999MA1102135101595REMMET09901/09/12 13:54:02 METAR KLWM 091854Z VRB03KT 10SM OVC090 02/M12 A3016 RMK AO2 SLP216 T00221117 (CZ)
0160744904947232012010919547+42717-071124FM-15+0045KLWM V0202105N003652200059N0160935N5+00335-01115102095ADDAA101000095GF100991999999999999999999MA1102075101525REMMET09601/09/12 14:54:02 METAR KLWM 091954Z 21007KT 10SM CLR 03/M11 A3014 RMK AO2 SLP209 T00331111 (CZ)
0180744904947232012010920547+42717-071124FM-15+0045KLWM V0202105N002152200059N0160935N5+00335-01175102065ADDAA101000095GF100991999999999999999999MA1102035101495MD1640194+9999REMMET10201/09/12 15:54:02 METAR KLWM 092054Z 21004KT 10SM CLR 03/M12 A3013 RMK AO2 SLP206 T00331117 56019 (CZ)
0160744904947232012010921547+42717-071124FM-15+0045KLWM V0209999C000052200059N0160935N5+00225-01175102035ADDAA101000095GF100991999999999999999999MA1102035101495REMMET09601/09/12 16:54:02 METAR KLWM 092154Z 00000KT 10SM CLR 02/M12 A3013 RMK AO2 SLP203 T00221117 (RR)
0160744904947232012010922547+42717-071124FM-15+0045KLWM V0209999C000052200059N0160935N5+00115-01175102015ADDAA101000095GF100991999999999999999999MA1102005101465REMMET09601/09/12 17:54:02 METAR KLWM 092254Z 00000KT 10SM CLR 01/M12 A3012 RMK AO2 SLP201 T00111117 (RR)
0218744904947232012010923547+42717-071124FM-15+0045KLWM V0201905N002652200059N0160935N5+00175-01115101975ADDAA101000095GF100991999999999999999999KA1999M+00391KA2999N+00001MA1101965101425MD1840084+9999REMMET11401/09/12 18:54:02 METAR KLWM 092354Z 19005KT 10SM CLR 02/M11 A3011 RMK AO2 SLP197 T00171111 10039 20000 58008 (RR)
0155744904947232012011000547+42717-071124FM-15+0045KLWM V0202005N003152200059N0160935N5+00175-01065101915ADDAA101000095GF100991999999999999999999MA1101905101355REMMET09101/09/12 19:54:01 METAR KLWM 100054Z 20006KT 10SM CLR 02/M11 A3009 RMK AO2 SLP191 T00171106
0155744904947232012011001547+42717-071124FM-15+0045KLWM V0202105N002652200059N0160935N5+00065-01115101875ADDAA101000095GF100991999999999999999999MA1101865101325REMMET09101/09/12 20:54:01 METAR KLWM 100154Z 21005KT 10SM CLR 01/M11 A3008 RMK AO2 SLP187 T00061111
0180744904947232012011002547+42717-071124FM-15+0045KLWM V0201905N002152200059N0160935N5+00065-01065101795ADDAA101000095GF100991999999999999999999MA1101765101225MD1840184+9999REMMET10201/09/12 21:54:01 METAR KLWM 100254Z 19004KT 10SM CLR 01/M11 A3005 RMK AO2 SLP179 T00061106 58018 TSNO
0194744904947232012011003547+42717-071124FM-15+0045KLWM V0202105N00215033535MN0160935N5+00065-00945101705ADDAA101000095GA1085+033535999GD14991+0335359GF108991999999999999999999MA1101695101155REMMET09901/09/12 22:54:01 METAR KLWM 100354Z 21004KT 10SM OVC110 01/M09 A3003 RMK AO2 SLP170 T00061094 TSNO
0204744904947232012011004547+42717-071124FM-15+0045KLWM V0202005N00265030485MN0160935N5+00115-00895101565ADDAA101000095GA1085+030485999GD14991+0304859GF108991999999999999999999MA1101565101025REMMET10901/09/12 23:54:01 METAR KLWM 100454Z 20005KT 10SM OVC100 01/M09 A2999 RMK AO2 SLP156 T00111089 400391050 TSNO
0886744904947232012011004596+42717-071124SOD  +0045KLWM V020999999999999999999999999999+99999+99999999999ADDAA124000095KA1240M+00395KA2240N-00495MG1101784101564OE11240062619020335OE22240044722013385OE33240017999999995REMSOD73024 HR PRECIPITATION (IN):0.00  24 HR MAX TEMP (F):39 24 HR MAX TEMP TIME (LST):1550 24 HR MIN TEMP (F):23 24 HR MIN TEMP TIME (LST):0630 AVERAGE STATION PRESSURE:30.055 MINIMUM SEA LEVEL PRESSURE:29.99 TIME OF OCCURRENCE:2359 PEAK WIND SPEED (MPH):14  PEAK WIND DIR (DEG):190 PEAK WIND TIME (LST):2033  FASTEST 2MIN SPEED (MPH):10 FASTEST 2MIN DIR (DEG):220 FASTEST 2MIN TIME (LST):1338 AVERAGE WIND SPEED (MPH):4.0  24 HR AVG TEMP (F):31 HEATING DEGREE DAYS:34  COOLING DEGREE DAYS:0   LATEST DAY MAX TEMP (0700-1900 LST):39  LATEST NIGHT MIN TEMP(1900-0800 LST):23 HOURLY INCREMENTAL PRECIPITATION VALUES (IN):.00 0.00 0.00 0.00 0.00 0.00 0.00 0.00 0.00 0.00 0.00 0.00 0.00 0.00 0.00 0.00 0.00 0.00 0.00 0.00 0.00 0.00 0.00 0.00EQDR01     N7GJS072R02     N7GKS075
0252744904947232012011005547+42717-071124FM-15+0045KLWM V0202005N00155027435MN0160935N5+00115-00785101465ADDAA101000095GA1085+027435999GD14991+0274359GF108991999999999999999999KA1999M+00171KA2999N+00001MA1101465100925MD1840334+9999REMMET11701/10/12 00:54:02 METAR KLWM 100554Z 20003KT 10SM OVC090 01/M08 A2996 RMK AO2 SLP146 T00111078 10017 20000 58033 TSNO
0194744904947232012011006547+42717-071124FM-15+0045KLWM V0202105N00155022865MN0160935N5+00115-00725101435ADDAA101000095GA1085+022865999GD14991+0228659GF108991999999999999999999MA1101425100885REMMET09901/10/12 01:54:02 METAR KLWM 100654Z 21003KT 10SM OVC075 01/M07 A2995 RMK AO2 SLP143 T00111072 TSNO
0270744904947232012011007547+42717-071124FM-15+0045KLWM V0202405N00155024385MN0160935N5+00115-00675101355ADDAA101000095GA1045+010975999GA2045+019815999GA3085+024385999GD12991+0109759GD22991+0198159GD34991+0243859GF108991999999999999999999MA1101355100815REMMET11301/10/12 02:54:02 METAR KLWM 100754Z 24003KT 10SM SCT036 SCT065 OVC080 01/M07 A2993 RMK AO2 SLP135 T00111067 TSNO
0247744904947232012011008327+42717-071124FM-16+0045KLWM V0201905N00215007325MN0080475N5+00105-00605999999ADDAA101000021AU110030015AW1715GA1075+007325999GA2085+009755999GD13991+0073259GD24991+0097559GF108991999999999999999999MA1101295100755REMMET10401/10/12 03:32:02 SPECI KLWM 100832Z 19004KT 5SM -SN BKN024 OVC032 01/M06 A2991 RMK AO2 SNB23 P0000 TSNO
0215744904947232012011008526+42717-071124FM-16+0045KLWM V0201905N00265009145MN0128755N5+00105-00305999999ADDAU110030015AW1715GA1075+009145999GA2085+015245999GD13991+0091459GD24991+0152459MA1101255100715REMMET10901/10/12 03:52:02 SPECI KLWM 100852Z 19005KT 8SM -SN BKN030 OVC050 01/M03 A2990 RMK AO2 SNB23 P0000 TSNO FIBI
0302744904947232012011008547+42717-071124FM-15+0045KLWM V0201805N00215009145MN0144845N5+00065-00335101265ADDAA101000025AA203000021GA1075+009145999GA2085+015245999GD13991+0091459GD24991+0152459GF108991999999999999999999MA1101255100715MD1840204+9999REMMET13201/10/12 03:54:02 METAR KLWM 100854Z 18004KT 9SM BKN030 OVC050 01/M03 A2990 RMK AO2 SNB23E54 SLP126 P0000 60000 T00061033 58020 TSNOEQDQ01  00008PRCP03
0232744904947232012011009547+42717-071124FM-15+0045KLWM V0201905N00155016765MN0160935N5+00065-00335101175ADDAA101000095GA1075+016765999GA2085+027435999GD13991+0167659GD24991+0274359GF108991999999999999999999MA1101155100615REMMET10601/10/12 04:54:02 METAR KLWM 100954Z 19003KT 10SM BKN055 OVC090 01/M03 A2987 RMK AO2 SLP117 T00061033 TSNO
0194744904947232012011010547+42717-071124FM-15+0045KLWM V0201705N002152200059N0160935N5+00005-00335101085ADDAA101000095GA1025+033535999GD11991+0335359GF102991999999999999999999MA1101055100515REMMET09901/10/12 05:54:02 METAR KLWM 101054Z 17004KT 10SM FEW110 00/M03 A2984 RMK AO2 SLP108 T00001033 TSNO
0236744904947232012011011547+42717-071124FM-15+0045KLWM V0209999C000052200059N0160935N5-00065-00335101015ADDAA101000095AA206000021GF100991999999999999999999KA1999M+00111KA2999N-00061MA1100985100445MD1640264+9999REMMET12101/10/12 06:54:02 METAR KLWM 101154Z 00000KT 10SM CLR M01/M03 A2982 RMK AO2 SLP101 60000 T10061033 10011 21006 56026 (TB)
0195744904947232012011012547+42717-071124FM-15+0045KLWM V0202005N00265018295MN0160935N5-00065-00285101065ADDAA101000095GA1075+018295999GD13991+0182959GF107991999999999999999999MA1101055100515REMMET10001/10/12 07:54:02 METAR KLWM 101254Z 20005KT 10SM BKN060 M01/M03 A2984 RMK AO2 SLP106 T10061028 (TB)
0232744904947232012011013547+42717-071124FM-15+0045KLWM V0202105N00315028965MN0160935N5+00115-00285101115ADDAA101000095GA1045+018295999GA2085+028965999GD12991+0182959GD24991+0289659GF108991999999999999999999MA1101085100545REMMET10601/10/12 08:54:02 METAR KLWM 101354Z 21006KT 10SM SCT060 OVC095 01/M03 A2985 RMK AO2 SLP111 T00111028 (TB)
0252744904947232012011014547+42717-071124FM-15+0045KLWM V0202105N00265028965MN0160935N5+00225-00335101055ADDAA101000095GA1025+021345999GA2085+028965999GD11991+0213459GD24991+0289659GF108991999999999999999999MA1101055100515MD1040054+9999REMMET11201/10/12 09:54:02 METAR KLWM 101454Z 21005KT 10SM FEW070 OVC095 02/M03 A2984 RMK AO2 SLP105 T00221033 50005 (TB)
0232744904947232012011015547+42717-071124FM-15+0045KLWM V0202205N00365028965MN0160935N5+00395-00395100975ADDAA101000095GA1045+016765999GA2085+028965999GD12991+0167659GD24991+0289659GF108991999999999999999999MA1100955100415REMMET10601/10/12 10:54:02 METAR KLWM 101554Z 22007KT 10SM SCT055 OVC095 04/M04 A2981 RMK AO2 SLP097 T00391039 (TB)
0194744904947232012011016547+42717-071124FM-15+0045KLWM V0202605N00515028965MN0160935N5+00615-00445100855ADDAA101000095GA1075+028965999GD13991+0289659GF107991999999999999999999MA1100855100315REMMET09901/10/12 11:54:02 METAR KLWM 101654Z 26010KT 10SM BKN095 06/M04 A2978 RMK AO2 SLP085 T00611044 (TB)
0263744904947232012011017547+42717-071124FM-15+0045KLWM V0202505N005752200059N0160935N5+00675-00445100775ADDAA101000095GA1025+027435999GD11991+0274359GF102991999999999999999999KA1999M+00721KA2999N-00171MA1100785100245MD1740274+9999OC100775REMMET12001/10/12 12:54:02 METAR KLWM 101754Z 25011G15KT 10SM FEW090 07/M04 A2976 RMK AO2 SLP077 T00671044 10072 21017 57027 (TB)
0194744904947232012011018547+42717-071124FM-15+0045KLWM V0202705N006252200059N0160935N5+00835-00395100755ADDAA101000095GA1045+018295999GD12991+0182959GF104991999999999999999999MA1100755100215REMMET09901/10/12 13:54:02 METAR KLWM 101854Z 27012KT 10SM SCT060 08/M04 A2975 RMK AO2 SLP075 T00831039 (TB)
0243744904947232012011019547+42717-071124FM-15+0045KLWM V0202905N00575014945MN0160935N5+00725-00395100785ADDAA101000095GA1075+014945999GA2075+019815999GD13991+0149459GD23991+0198159GF107991999999999999999999MA1100785100245OC100885REMMET10901/10/12 14:54:02 METAR KLWM 101954Z 29011G17KT 10SM BKN049 BKN065 07/M04 A2976 RMK AO2 SLP078 T00721039 (TB)
0225744904947232012011020547+42717-071124FM-15+0045KLWM V0202905N00725019815MN0160935N5+00675-00395100895ADDAA101000095GA1075+019815999GD13991+0198159GF107991999999999999999999MA1100885100345MD1340124+9999OC101035REMMET10801/10/12 15:54:02 METAR KLWM 102054Z 29014G20KT 10SM BKN065 07/M04 A2979 RMK AO2 SLP089 T00671039 53012 (RR)
0194744904947232012011021547+42717-071124FM-15+0045KLWM V0202705N00515019815MN0160935N5+00565-00335101035ADDAA101000095GA1085+019815999GD14991+0198159GF108991999999999999999999MA1101025100485REMMET09901/10/12 16:54:02 METAR KLWM 102154Z 27010KT 10SM OVC065 06/M03 A2983 RMK AO2 SLP103 T00561033 (CM)
0194744904947232012011022547+42717-071124FM-15+0045KLWM V0202705N00365018295MN0160935N5+00565-00335101135ADDAA101000095GA1085+018295999GD14991+0182959GF108991999999999999999999MA1101125100585REMMET09901/10/12 17:54:02 METAR KLWM 102254Z 27007KT 10SM OVC060 06/M03 A2986 RMK AO2 SLP113 T00561033 (CM)
0252744904947232012011023547+42717-071124FM-15+0045KLWM V0202605N00365018295MN0160935N5+00505-00395101175ADDAA101000095GA1085+018295999GD14991+0182959GF108991999999999999999999KA1999M+00831KA2999N+00501MA1101155100615MD1140274+9999REMMET11701/10/12 18:54:02 METAR KLWM 102354Z 26007KT 10SM OVC060 05/M04 A2987 RMK AO2 SLP117 T00501039 10083 20050 51027 (CM)
0155744904947232012011100547+42717-071124FM-15+0045KLWM V0202505N002652200059N0160935N5+00335-00445101195ADDAA101000095GF100991999999999999999999MA1101195100655REMMET09101/10/12 19:54:01 METAR KLWM 110054Z 25005KT 10SM CLR 03/M04 A2988 RMK AO2 SLP119 T00331044
0155744904947232012011101547+42717-071124FM-15+0045KLWM V0202305N002652200059N0160935N5+00225-00445101255ADDAA101000095GF100991999999999999999999MA1101255100715REMMET09101/10/12 20:54:01 METAR KLWM 110154Z 23005KT 10SM CLR 02/M04 A2990 RMK AO2 SLP125 T00221044
0209744904947232012011102547+42717-071124FM-15+0045KLWM V0209999C00005014635MN0160935N5+00175-00505101345ADDAA101000095GA1075+014635999GD13991+0146359GF107991999999999999999999MA1101325100785MD1340164+9999REMMET10001/10/12 21:54:01 METAR KLWM 110254Z 00000KT 10SM BKN048 02/M05 A2992 RMK AO2 SLP134 T00171050 53016
0155744904947232012011103547+42717-071124FM-15+0045KLWM V0209999C000052200059N0160935N5+00065-00505101425ADDAA101000095GF100991999999999999999999MA1101425100885REMMET09101/10/12 22:54:01 METAR KLWM 110354Z 00000KT 10SM CLR 01/M05 A2995 RMK AO2 SLP142 T00061050
0166744904947232012011104547+42717-071124FM-15+0045KLWM V0209999C000052200059N0160935N5-00065-00565101485ADDAA101000095GF100991999999999999999999MA1101465100925REMMET10201/10/12 23:54:01 METAR KLWM 110454Z 00000KT 10SM CLR M01/M06 A2996 RMK AO2 SLP148 T10061056 400831017
0886744904947232012011104596+42717-071124SOD  +0045KLWM V020999999999999999999999999999+99999+99999999999ADDAA124000025KA1240M+00835KA2240N-00165MG1100544100754OE11240107329014115OE22240076029015535OE33240029199999995REMSOD73024 HR PRECIPITATION (IN):T     24 HR MAX TEMP (F):47 24 HR MAX TEMP TIME (LST):1354 24 HR MIN TEMP (F):29 24 HR MIN TEMP TIME (LST):2359 AVERAGE STATION PRESSURE:29.690 MINIMUM SEA LEVEL PRESSURE:29.75 TIME OF OCCURRENCE:1429 PEAK WIND SPEED (MPH):24  PEAK WIND DIR (DEG):290 PEAK WIND TIME (LST):1411  FASTEST 2MIN SPEED (MPH):17 FASTEST 2MIN DIR (DEG):290 FASTEST 2MIN TIME (LST):1553 AVERAGE WIND SPEED (MPH):6.5  24 HR AVG TEMP (F):38 HEATING DEGREE DAYS:27  COOLING DEGREE DAYS:0   LATEST DAY MAX TEMP (0700-1900 LST):47  LATEST NIGHT MIN TEMP(1900-0800 LST):29 HOURLY INCREMENTAL PRECIPITATION VALUES (IN):.00 0.00 0.00 T    0.00 0.00 0.00 0.00 0.00 0.00 0.00 0.00 0.00 0.00 0.00 0.00 0.00 0.00 0.00 0.00 0.00 0.00 0.00 0.00EQDR01     N7GJS072R02     N7GKS075
0219744904947232012011105547+42717-071124FM-15+0045KLWM V0209999C000052200059N0160935N5-00175-00565101525ADDAA101000095GF100991999999999999999999KA1999M+00501KA2999N-00171MA1101525100985MD1140184+9999REMMET11501/11/12 00:54:02 METAR KLWM 110554Z 00000KT 10SM CLR M02/M06 A2998 RMK AO2 SLP152 T10171056 10050 21017 51018 (CM)
0161744904947232012011106547+42717-071124FM-15+0045KLWM V0209999C000052200059N0160935N5-00225-00615101575ADDAA101000095GF100991999999999999999999MA1101565101025REMMET09701/11/12 01:54:02 METAR KLWM 110654Z 00000KT 10SM CLR M02/M06 A2999 RMK AO2 SLP157 T10221061 TSNO
0161744904947232012011107547+42717-071124FM-15+0045KLWM V0200705N001552200059N0160935N5-00175-00565101595ADDAA101000095GF100991999999999999999999MA1101595101055REMMET09701/11/12 02:54:02 METAR KLWM 110754Z 07003KT 10SM CLR M02/M06 A3000 RMK AO2 SLP159 T10171056 TSNO
0181744904947232012011108547+42717-071124FM-15+0045KLWM V0209999C000052200059N0160935N5-00225-00675101665ADDAA101000095GF100991999999999999999999MA1101665101125MD1340144+9999REMMET10301/11/12 03:54:02 METAR KLWM 110854Z 00000KT 10SM CLR M02/M07 A3002 RMK AO2 SLP166 T10221067 53014 TSNO
0161744904947232012011109547+42717-071124FM-15+0045KLWM V0209999C000052200059N0160935N5-00225-00675101765ADDAA101000095GF100991999999999999999999MA1101765101225REMMET09701/11/12 04:54:02 METAR KLWM 110954Z 00000KT 10SM CLR M02/M07 A3005 RMK AO2 SLP176 T10221067 TSNO
0161744904947232012011110547+42717-071124FM-15+0045KLWM V0209999C000052200059N0160935N5-00395-00785101845ADDAA101000095GF100991999999999999999999MA1101835101295REMMET09701/11/12 05:54:02 METAR KLWM 111054Z 00000KT 10SM CLR M04/M08 A3007 RMK AO2 SLP184 T10391078 TSNO
0219744904947232012011111547+42717-071124FM-15+0045KLWM V0200205N001552200059N0160935N5-00395-00785101905ADDAA101000095GF100991999999999999999999KA1999M+00001KA2999N-00441MA1101905101355MD1140244+9999REMMET11501/11/12 06:54:02 METAR KLWM 111154Z 02003KT 10SM CLR M04/M08 A3009 RMK AO2 SLP190 T10391078 10000 21044 51024 (TB)
0195744904947232012011112547+42717-071124FM-15+0045KLWM V0202905N001552200059N0160935N5-00225-00785102015ADDAA101000095GA1025+036585999GD11991+0365859GF102991999999999999999999MA1102005101465REMMET10001/11/12 07:54:02 METAR KLWM 111254Z 29003KT 10SM FEW120 M02/M08 A3012 RMK AO2 SLP201 T10221078 (TB)
