0213992760999992010010100004+42700-068300FM-18+0000DB276V0200701N002019999999N9999999N1+00201+99999999999ADDOA159900301SA1+0749REMSYN182BBXX  44005 01001 99432 70691 46/// /0702 10020 92350 22200 00074 10402 20301 3//// 40401 70009 333 91203 555 11018 22019 32341 40703 62349 065018 045015 026011 041009 024007 034007;
0213992760999992010010101004+42700-068300FM-18+0000DB276V0200801N003019999999N9999999N1+00251+99999999999ADDOA159900301SA1+0749REMSYN182BBXX  44005 01011 99432 70691 46/// /0803 10025 90050 22200 00074 10402 20401 3//// 40401 70009 333 91203 555 11026 22026 30033 40803 60049 076023 077022 062017 049015 066016 058017;
0213992760999992010010102004+42700-068300FM-18+0000DB276V0200901N003019999999N9999999N1+00321+99999999999ADDOA159900401SA1+0749REMSYN182BBXX  44005 01021 99432 70691 46/// /0903 10032 90150 22200 00074 10502 20401 3//// 40501 70008 333 91204 555 11029 22029 30145 40804 60149 087028 090024 084023 087022 082025 078025;
0213992760999992010010103004+42700-068300FM-18+0000DB276V0201101N002019999999N9999999N1+00401+99999999999ADDOA159900201SA1+0749REMSYN182BBXX  44005 01031 99432 70691 46/// /1102 10040 90250 22200 00074 10502 20401 3//// 40502 70009 333 91202 555 11016 22017 30202 40904 60249 105016 097022 095024 099028 098031 092030;
0213992760999992010010104004+42700-068300FM-18+0000DB276V0201501N002019999999N9999999N1+00471+99999999999ADDOA159900501SA1+0749REMSYN182BBXX  44005 01041 99432 70691 46/// /1502 10047 90350 22200 00074 10502 20401 3//// 40502 70010 333 91205 555 11016 22017 30349 41105 60349 115031 177005 154011 150013 132014 121015;
0213992760999992010010105004+42700-068300FM-18+0000DB276V0201901N005019999999N9999999N1+00561+99999999999ADDOA159900601SA1+0749REMSYN182BBXX  44005 01051 99432 70691 46/// /1905 10056 90450 22200 00074 10502 20402 3//// 40502 70011 333 91206 555 11051 22053 30414 41108 60449 188050 149061 120055 112062 114058 111052;
0213992760999992010010106004+42700-068300FM-18+0000DB276V0203001N002019999999N9999999N1+00481+99999999999ADDOA159900301SA1+0749REMSYN182BBXX  44005 01061 99432 70691 46/// /3002 10048 90550 22200 00074 10502 20401 3//// 40502 70011 333 91203 555 11021 22021 30452 42204 60549 294019 282018 280022 264027 249027 220032;
0213992760999992010010107004+42700-068300FM-18+0000DB276V0202801N003019999999N9999999N1+00461+99999999999ADDOA159900401SA1+0749REMSYN182BBXX  44005 01071 99432 70691 46/// /2803 10046 90650 22200 00074 10502 20401 3//// 40502 70012 333 91204 555 11028 22028 30648 42703 60649 280026 281021 288021 285014 295013 299013;
0213992760999992010010108004+42700-068300FM-18+0000DB276V0202701N002019999999N9999999N1+00471+99999999999ADDOA159900301SA1+0749REMSYN182BBXX  44005 01081 99432 70691 46/// /2702 10047 90750 22200 00074 10603 20401 3//// 40602 70013 333 91203 555 11023 22023 30654 42903 60749 275021 271015 260013 273015 283023 281026;
0213992760999992010010109004+42700-068300FM-18+0000DB276V0201701N001019999999N9999999N1+00501+99999999999ADDOA159900501SA1+0749REMSYN182BBXX  44005 01091 99432 70691 46/// /1701 10050 90850 22200 00074 10603 20401 3//// 40603 70016 333 91205 555 11012 22012 30849 41305 60849 193018 299020 280025 273017 279013 275013;
0213992760999992010010110004+42700-068300FM-18+0000DB276V0202001N002019999999N9999999N1+00521+99999999999ADDOA159900401SA1+0749REMSYN182BBXX  44005 01101 99432 70691 46/// /2002 10052 90950 22200 00074 10603 20401 3//// 40603 70017 333 91204 555 11019 22020 30856 41407 60949 191022 175033 150048 168042 141054 131057;
0213992760999992010010111004+42700-068300FM-18+0000DB276V0202901N004019999999N9999999N1+00431+99999999999ADDOA159900501SA1+0749REMSYN182BBXX  44005 01111 99432 70691 46/// /2904 10043 91050 22200 00074 10704 20301 3//// 40704 70020 333 91205 555 11046 22047 31036 42806 61049 293044 291041 286038 289038 293038 291033;
0213992760999992010010112004+42700-068300FM-18+0000DB276V0203101N005019999999N9999999N1+00421+99999999999ADDOA159900601SA1+0749REMSYN182BBXX  44005 01121 99432 70691 46/// /3105 10042 91150 22200 00074 10704 20402 3//// 40704 70020 333 91206 555 11051 22053 31121 43106 61149 310049 312047 309051 308042 303045 303045;
0213992760999992010010113004+42700-068300FM-18+0000DB276V0203101N005019999999N9999999N1+00411+99999999999ADDOA159900601SA1+0749REMSYN182BBXX  44005 01131 99432 70691 46/// /3105 10041 91250 22200 00074 10704 20302 3//// 40704 70020 333 91206 555 11050 22052 31238 43106 61249 313047 312050 316051 309051 312049 312049;
0213992760999992010010114004+42700-068300FM-18+0000DB276V0201001N003019999999N9999999N1+00481+99999999999ADDOA159900401SA1+0749REMSYN182BBXX  44005 01141 99432 70691 46/// /1003 10048 91350 22200 00074 10704 20401 3//// 40704 70022 333 91204 555 11026 22026 31329 43007 61349 097023 020024 307042 304049 308052 308047;
0213992760999992010010115004+42700-068300FM-18+0000DB276V0201001N007019999999N9999999N1+00451+99999999999ADDOA159900901SA1+0749REMSYN182BBXX  44005 01151 99432 70691 46/// /1007 10045 91450 22200 00074 10805 20503 3//// 40804 70023 333 91209 555 11075 22078 31443 40909 61449 097071 094071 092066 094061 100052 100043;
0213992760999992010010116004+42700-068300FM-18+0000DB276V0200901N008019999999N9999999N1+00401+99999999999ADDOA159901001SA1+0749REMSYN182BBXX  44005 01161 99432 70691 46/// /0908 10040 91550 22200 00074 10805 20504 3//// 40803 70023 333 91210 555 11089 22093 31519 40910 61549 086084 088082 089080 090080 085075 090074;
0213992760999992010010117004+42700-068300FM-18+0000DB276V0200801N009019999999N9999999N1+00331+99999999999ADDOA159901001SA1+0749REMSYN182BBXX  44005 01171 99432 70691 46/// /0809 10033 91650 22200 00074 10805 20704 3//// 40803 70025 333 91210 555 11092 22096 31645 40810 61649 077086 077083 076082 081081 081080 081081;
0213992760999992010010118004+42700-068300FM-18+0000DB276V0200701N008019999999N9999999N1+00341+99999999999ADDOA159901001SA1+0749REMSYN182BBXX  44005 01181 99432 70691 46/// /0708 10034 91750 22200 00074 10805 20604 3//// 40803 70025 333 91210 555 11082 22086 31717 40711 61749 072080 077083 077085 077090 075089 081086;
0213992760999992010010119004+42700-068300FM-18+0000DB276V0200801N008019999999N9999999N1+00321+99999999999ADDOA159901001SA1+0749REMSYN182BBXX  44005 01191 99432 70691 46/// /0808 10032 91850 22200 00074 10805 20604 3//// 40803 70025 333 91210 555 11083 22087 31849 41010 61849 080079 075081 077083 070081 072078 078077;
0213992760999992010010120004+42700-068300FM-18+0000DB276V0200701N009019999999N9999999N1+00331+99999999999ADDOA159901001SA1+0749REMSYN182BBXX  44005 01201 99432 70691 46/// /0709 10033 91950 22200 00074 10805 20504 3//// 40803 70025 333 91210 555 11091 22095 31927 40711 61949 073085 072085 076082 081081 083079 080078;
0213992760999992010010121004+42700-068300FM-18+0000DB276V0200801N009019999999N9999999N1+00291+99999999999ADDOA159901001SA1+0749REMSYN182BBXX  44005 01211 99432 70691 46/// /0809 10029 92050 22200 00074 10805 20604 3//// 40804 70026 333 91210 555 11092 22096 31951 40311 62049 079087 081083 085083 078086 076085 072089;
0213992760999992010010122004+42700-068300FM-18+0000DB276V0200901N009019999999N9999999N1+00281+99999999999ADDOA159901001SA1+0749REMSYN182BBXX  44005 01221 99432 70691 46/// /0909 10028 92150 22200 00074 10805 20704 3//// 40803 70023 333 91210 555 11091 22095 32123 40911 62149 085087 081087 084086 077086 081086 080084;
0213992760999992010010123004+42700-068300FM-18+0000DB276V0200701N008019999999N9999999N1+00321+99999999999ADDOA159901001SA1+0749REMSYN182BBXX  44005 01231 99432 70691 46/// /0708 10032 92250 22200 00074 10805 20604 3//// 40803 70024 333 91210 555 11085 22089 32223 40811 62249 072082 076083 075084 077083 076088 078086;
0213992760999992010010200004+42700-068300FM-18+0000DB276V0200701N008019999999N9999999N1+00311+99999999999ADDOA159901001SA1+0749REMSYN182BBXX  44005 02001 99432 70691 46/// /0708 10031 92350 22200 00074 10805 20604 3//// 40803 70026 333 91210 555 11084 22088 32259 40610 62349 065081 064081 070081 067083 069085 072085;
0213992760999992010010201004+42700-068300FM-18+0000DB276V0200601N009019999999N9999999N1+00281+99999999999ADDOA159901101SA1+0749REMSYN182BBXX  44005 02011 99432 70691 46/// /0609 10028 90050 22200 00074 10805 20604 3//// 40803 70023 333 91211 555 11092 22096 30041 40511 60049 056087 058086 058086 062084 064083 061085;
0213992760999992010010202004+42700-068300FM-18+0000DB276V0200601N010019999999N9999999N1+00271+99999999999ADDOA159901201SA1+0749REMSYN182BBXX  44005 02021 99432 70691 46/// /0610 10027 90150 22200 00074 10905 20503 3//// 40903 70023 333 91212 555 11103 22107 30143 40712 60149 059095 054092 053086 052089 049087 056086;
0213992760999992010010203004+42700-068300FM-18+0000DB276V0200501N010019999999N9999999N1+00251+99999999999ADDOA159901201SA1+0749REMSYN182BBXX  44005 02031 99432 70691 46/// /0510 10025 90250 22200 00074 10805 20604 3//// 40803 70024 333 91212 555 11100 22105 30245 40412 60249 046094 053092 047085 042092 048089 055094;
0213992760999992010010204004+42700-068300FM-18+0000DB276V0200601N009019999999N9999999N1+00241+99999999999ADDOA159901201SA1+0749REMSYN182BBXX  44005 02041 99432 70691 46/// /0609 10024 90350 22200 00074 10905 20704 3//// 40903 70027 333 91212 555 11096 22100 30332 40412 60349 057090 054096 055096 055097 053099 053095;
0213992760999992010010205004+42700-068300FM-18+0000DB276V0200401N010019999999N9999999N1+00211+99999999999ADDOA159901301SA1+0749REMSYN182BBXX  44005 02051 99432 70691 46/// /0410 10021 90450 22200 00074 10705 20704 3//// 40902 70024 333 91213 555 11102 22107 30449 40413 60449 039094 052089 048091 046092 048085 052090;
0213992760999992010010206004+42700-068300FM-18+0000DB276V0200301N012019999999N9999999N1+00151+99999999999ADDOA159901501SA1+0749REMSYN182BBXX  44005 02061 99432 70691 46/// /0312 10015 90550 22200 00074 10906 20705 3//// 40903 70028 333 91215 555 11126 22133 30544 40515 60549 030117 031111 028112 028107 028110 038101;
0213992760999992010010207004+42700-068300FM-18+0000DB276V0200301N012019999999N9999999N1+00151+99999999999ADDOA159901401SA1+0749REMSYN182BBXX  44005 02071 99432 70691 46/// /0312 10015 90650 22200 00074 10905 20704 3//// 40903 70027 333 91214 555 11125 22131 30603 40114 60649 031117 033118 031119 029117 027118 029121;
0213992760999992010010208004+42700-068300FM-18+0000DB276V0200401N010019999999N9999999N1+00181+99999999999ADDOA159901301SA1+0749REMSYN182BBXX  44005 02081 99432 70691 46/// /0410 10018 90750 22200 00074 11006 20705 3//// 41004 70032 333 91213 555 11110 22115 30714 40315 60749 043104 050103 037108 031116 031119 031112;
0213992760999992010010209004+42700-068300FM-18+0000DB276V0200201N012019999999N9999999N1+00131+99999999999ADDOA159901501SA1+0749REMSYN182BBXX  44005 02091 99432 70691 46/// /0212 10013 90850 22200 00074 10906 20605 3//// 40904 70031 333 91215 555 11130 22137 30830 40215 60849 021124 021127 022121 021120 023121 030115;
0201992760999992010010211004+42700-068300FM-18+0000DB276V0200201N013019999999N9999999N1+00011+99999999999ADDOA159901501SA1+0749REMSYN170BBXX  44005 02111 99432 70691 46/// /0213 10001 91050 22200 00074 10706 20706 70032 333 91215 555 11135 22141 31000 40416 61049 020126 020125 021122 023126 023124 022126;
0201992760999992010010212004+42700-068300FM-18+0000DB276V0200101N013019999999N9999999N1+00011+99999999999ADDOA159901601SA1+0749REMSYN170BBXX  44005 02121 99432 70691 46/// /0113 10001 91150 22200 00074 10807 20807 70033 333 91216 555 11139 22146 31146 43516 61149 012131 018132 019127 018126 023124 020124;
0201992760999992010010213004+42700-068300FM-18+0000DB276V0200101N013019999999N9999999N1-00011+99999999999ADDOA159901601SA1+0749REMSYN170BBXX  44005 02131 99432 70691 46/// /0113 11001 91250 22200 00074 10806 20806 70032 333 91216 555 11134 22140 31233 40216 61249 012126 013132 012132 015130 015131 014134;
0213992760999992010010214004+42700-068300FM-18+0000DB276V0200101N013019999999N9999999N1-00021+99999999999ADDOA159901601SA1+0749REMSYN182BBXX  44005 02141 99432 70691 46/// /0113 11002 91350 22200 00074 10706 20706 3//// 41001 70031 333 91216 555 11141 22148 31316 40116 61349 010132 011127 010132 011135 012130 013132;
0213992760999992010010215004+42700-068300FM-18+0000DB276V0200101N013019999999N9999999N1-00021+99999999999ADDOA159901501SA1+0749REMSYN182BBXX  44005 02151 99432 70691 46/// /0113 11002 91450 22200 00074 10706 20706 3//// 41002 70031 333 91215 555 11135 22141 31419 40117 61449 011128 011128 010134 012132 008129 011128;
0201992760999992010010216004+42700-068300FM-18+0000DB276V0200101N013019999999N9999999N1-00051+99999999999ADDOA159901501SA1+0749REMSYN170BBXX  44005 02161 99432 70691 46/// /0113 11005 91550 22200 00074 10706 20706 70030 333 91215 555 11135 22141 31456 43616 61549 012127 008128 011126 008125 011126 010130;
0213992760999992010010217004+42700-068300FM-18+0000DB276V0203601N013019999999N9999999N1-00091+99999999999ADDOA159901501SA1+0749REMSYN182BBXX  44005 02171 99432 70691 46/// /3613 11009 91650 22200 00074 10707 20706 3//// 40903 70033 333 91215 555 11135 22141 31616 40216 61649 004127 004127 008127 007126 010123 011126;
0213992760999992010010218004+42700-068300FM-18+0000DB276V0203601N012019999999N9999999N1-00081+99999999999ADDOA159901501SA1+0749REMSYN182BBXX  44005 02181 99432 70691 46/// /3612 11008 91750 22200 00074 10707 20706 3//// 40903 70034 333 91215 555 11129 22135 31712 40116 61749 003122 004125 002124 002130 004125 002127;
0213992760999992010010219004+42700-068300FM-18+0000DB276V0203601N013019999999N9999999N1-00101+99999999999ADDOA159901701SA1+0749REMSYN182BBXX  44005 02191 99432 70691 46/// /3613 11010 91850 22200 00074 10907 20606 3//// 40904 70035 333 91217 555 11140 22147 31842 43517 61849 000132 000131 003135 012129 007126 006128;
0213992760999992010010220004+42700-068300FM-18+0000DB276V0203501N014019999999N9999999N1-00131+99999999999ADDOA159901701SA1+0749REMSYN182BBXX  44005 02201 99432 70691 46/// /3514 11013 91950 22200 00074 10907 20706 3//// 40904 70035 333 91217 555 11143 22150 31944 40117 61949 352135 350135 349135 354135 355135 000132;
0201992760999992010010221004+42700-068300FM-18+0000DB276V0203501N014019999999N9999999N1-00131+99999999999ADDOA159901701SA1+0749REMSYN170BBXX  44005 02211 99432 70691 46/// /3514 11013 92050 22200 00074 10807 20807 70035 333 91217 555 11146 22154 32037 43517 62049 349138 349138 347134 349133 350133 349136;
0213992760999992010010222004+42700-068300FM-18+0000DB276V0203401N014019999999N9999999N1-00141+99999999999ADDOA159901801SA1+0749REMSYN182BBXX  44005 02221 99432 70691 46/// /3414 11014 92150 22200 00074 10907 20606 3//// 40903 70036 333 91218 555 11151 22159 32147 43418 62149 344143 345141 347137 349138 349142 347142;
0213992760999992010010223004+42700-068300FM-18+0000DB276V0203401N015019999999N9999999N1-00151+99999999999ADDOA159901801SA1+0749REMSYN182BBXX  44005 02231 99432 70691 46/// /3415 11015 92250 22200 00074 10907 20706 3//// 40904 70036 333 91218 555 11161 22169 32214 43619 62249 336149 338144 338147 340147 339143 339144;
0201992760999992010010300004+42700-068300FM-18+0000DB276V0203301N015019999999N9999999N1-00121+99999999999ADDOA159901901SA1+0749REMSYN170BBXX  44005 03001 99432 70691 46/// /3315 11012 92350 22200 00074 10708 20708 70040 333 91219 555 11163 22172 32309 43219 62349 334151 337156 337148 336152 340152 339153;
0201992760999992010010301004+42700-068300FM-18+0000DB276V0203301N016019999999N9999999N1-00121+99999999999ADDOA159902001SA1+0749REMSYN170BBXX  44005 03011 99432 70691 46/// /3316 11012 90050 22200 00074 10708 20708 70038 333 91220 555 11167 22176 30007 43420 60049 325158 331158 332157 333158 330158 330155;
0201992760999992010010302004+42700-068300FM-18+0000DB276V0203201N016019999999N9999999N1-00101+99999999999ADDOA159901901SA1+0749REMSYN170BBXX  44005 03021 99432 70691 46/// /3216 11010 90150 22200 00074 10808 20808 70042 333 91219 555 11169 22179 30118 43221 60149 322156 323160 322168 322169 325162 328160;
0079992760999992010010303004+42700-068300FM-18+0000DB276V0203201N016019999999N9999999N1-00111+99999999999REMSYN070BBXX  44005 03031 99432 70691 46/// /3216 11011 90250 555 11174 22186;
0079992760999992010010307004+42700-068300FM-18+0000DB276V0203001N013019999999N9999999N1-00121+99999999999REMSYN070BBXX  44005 03071 99432 70691 46/// /3013 11012 90650 555 11142 22151;
0102992760999992010010309004+42700-068300FM-18+0000DB276V0203001N013019999999N9999999N1-00111+99999999999ADDSA1+0719REMSYN082BBXX  44005 03091 99432 70691 46/// /3013 11011 90850 22200 00071 555 11136 22142;
0213992760999992010010314004+42700-068300FM-18+0000DB276V0200501N006019999999N9999999N1+00181+99999999999ADDOA159900801SA1+0719REMSYN182BBXX  44005 03141 99432 70691 46/// /0506 10018 91350 22200 00071 10705 20303 3//// 40704 70023 333 91208 555 11064 22066 31348 40508 61349 044057 031040 017040 011038 004038 356039;
0213992760999992010010315004+42700-068300FM-18+0000DB276V0200601N009019999999N9999999N1+00481+99999999999ADDOA159901101SA1+0719REMSYN182BBXX  44005 03151 99432 70691 46/// /0609 10048 91450 22200 00071 10704 20703 3//// 40803 70022 333 91211 555 11092 22097 31427 40413 61449 056086 057099 051097 045097 051085 043057;
0213992760999992010010316004+42700-068300FM-18+0000DB276V0200601N010019999999N9999999N1+00321+99999999999ADDOA159901201SA1+0719REMSYN182BBXX  44005 03161 99432 70691 46/// /0610 10032 91550 22200 00071 11104 20704 3//// 41103 70022 333 91212 555 11104 22109 31519 40613 61549 066099 062089 067092 061104 056103 053095;
0213992760999992010010317004+42700-068300FM-18+0000DB276V0200601N009019999999N9999999N1+00521+99999999999ADDOA159901101SA1+0719REMSYN182BBXX  44005 03171 99432 70691 46/// /0609 10052 91650 22200 00071 11104 20503 3//// 41103 70021 333 91211 555 11093 22098 31558 40613 61649 054090 047099 052089 053092 054091 060100;
0213992760999992010010318004+42700-068300FM-18+0000DB276V0200301N009019999999N9999999N1+00371+99999999999ADDOA159901201SA1+0719REMSYN182BBXX  44005 03181 99432 70691 46/// /0309 10037 91750 22200 00071 11104 20603 3//// 41103 70021 333 91212 555 11098 22103 31735 40412 61749 031094 045096 048091 051093 051095 048090;
0213992760999992010010319004+42700-068300FM-18+0000DB276V0200401N008019999999N9999999N1+00351+99999999999ADDOA159901001SA1+0719REMSYN182BBXX  44005 03191 99432 70691 46/// /0408 10035 91850 22200 00071 11105 20603 3//// 41103 70023 333 91210 555 11088 22092 31803 40111 61849 043082 045082 052087 039080 026088 035086;
0213992760999992010010320004+42700-068300FM-18+0000DB276V0200301N012019999999N9999999N1+00391+99999999999ADDOA159901401SA1+0719REMSYN182BBXX  44005 03201 99432 70691 46/// /0312 10039 91950 22200 00071 11105 20603 3//// 41103 70024 333 91214 555 11122 22129 31948 40214 61949 025111 025098 037081 046078 050078 042074;
0213992760999992010010321004+42700-068300FM-18+0000DB276V0203601N012019999999N9999999N1+00361+99999999999ADDOA159901401SA1+0719REMSYN182BBXX  44005 03211 99432 70691 46/// /3612 10036 92050 22200 00071 11105 20503 3//// 41103 70023 333 91214 555 11123 22130 32026 43515 62049 003115 006120 006119 018099 018112 026090;
0213992760999992010010322004+42700-068300FM-18+0000DB276V0200201N013019999999N9999999N1+00311+99999999999ADDOA159901601SA1+0719REMSYN182BBXX  44005 03221 99432 70691 46/// /0213 10031 92150 22200 00071 11105 20504 3//// 41103 70023 333 91216 555 11140 22147 32146 40216 62149 016131 015124 015120 008117 008113 003118;
0213992760999992010010323004+42700-068300FM-18+0000DB276V0200201N013019999999N9999999N1+00331+99999999999ADDOA159901601SA1+0719REMSYN182BBXX  44005 03231 99432 70691 46/// /0213 10033 92250 22200 00071 10605 20604 3//// 41302 70025 333 91216 555 11137 22145 32223 40216 62249 020130 018134 017131 014126 013127 017130;
0213992760999992010010400004+42700-068300FM-18+0000DB276V0200201N014019999999N9999999N1+00321+99999999999ADDOA159901601SA1+0719REMSYN182BBXX  44005 04001 99432 70691 46/// /0214 10032 92350 22200 00071 10606 20605 3//// 41102 70028 333 91216 555 11145 22153 32337 40218 62349 014137 014137 015136 016137 019138 020135;
0213992760999992010010401004+42700-068300FM-18+0000DB276V0200101N015019999999N9999999N1+00301+99999999999ADDOA159901901SA1+0719REMSYN182BBXX  44005 04011 99432 70691 46/// /0115 10030 90050 22200 00071 10606 20605 3//// 41102 70028 333 91219 555 11162 22172 30041 43619 60049 006153 012143 008138 011136 008139 010138;
0213992760999992010010402004+42700-068300FM-18+0000DB276V0200101N014019999999N9999999N1+00361+99999999999ADDOA159901801SA1+0719REMSYN182BBXX  44005 04021 99432 70691 46/// /0114 10036 90150 22200 00071 10706 20705 3//// 41302 70029 333 91218 555 11147 22156 30056 40118 60149 005137 006140 007145 005147 007143 008146;
0213992760999992010010403004+42700-068300FM-18+0000DB276V0203601N014019999999N9999999N1+00401+99999999999ADDOA159901701SA1+0719REMSYN182BBXX  44005 04031 99432 70691 46/// /3614 10040 90250 22200 00071 10706 20706 3//// 41301 70031 333 91217 555 11147 22156 30206 43618 60249 357137 000143 000137 004142 004144 004142;
0213992760999992010010404004+42700-068300FM-18+0000DB276V0203401N013019999999N9999999N1+00311+99999999999ADDOA159901601SA1+0719REMSYN182BBXX  44005 04041 99432 70691 46/// /3413 10031 90350 22200 00071 10706 20706 3//// 41102 70030 333 91216 555 11141 22149 30330 43416 60349 344130 347134 347135 349135 352135 353130;
0213992760999992010010405004+42700-068300FM-18+0000DB276V0203401N014019999999N9999999N1+00321+99999999999ADDOA159901701SA1+0719REMSYN182BBXX  44005 04051 99432 70691 46/// /3414 10032 90450 22200 00071 10606 20606 3//// 41102 70031 333 91217 555 11147 22156 30430 43418 60449 341136 342142 344145 343136 346136 347135;
0213992760999992010010406004+42700-068300FM-18+0000DB276V0203401N014019999999N9999999N1+00301+99999999999ADDOA159901901SA1+0719REMSYN182BBXX  44005 04061 99432 70691 46/// /3414 10030 90550 22200 00071 10706 20706 3//// 41102 70031 333 91219 555 11153 22161 30530 43319 60549 336146 334151 336153 332152 334146 338145;
0213992760999992010010407004+42700-068300FM-18+0000DB276V0203301N015019999999N9999999N1+00281+99999999999ADDOA159901901SA1+0719REMSYN182BBXX  44005 04071 99432 70691 46/// /3315 10028 90650 22200 00071 10707 20706 3//// 41102 70034 333 91219 555 11165 22174 30648 43319 60649 330152 332154 333150 334146 336153 336153;
0213992760999992010010408004+42700-068300FM-18+0000DB276V0203301N015019999999N9999999N1+00271+99999999999ADDOA159902001SA1+0719REMSYN182BBXX  44005 04081 99432 70691 46/// /3315 10027 90750 22200 00071 10707 20706 3//// 41002 70033 333 91220 555 11162 22172 30744 43320 60749 329151 325152 329144 329143 328146 330148;
0213992760999992010010409004+42700-068300FM-18+0000DB276V0203301N014019999999N9999999N1+00361+99999999999ADDOA159901701SA1+0719REMSYN182BBXX  44005 04091 99432 70691 46/// /3314 10036 90850 22200 00071 10707 20706 3//// 41102 70033 333 91217 555 11148 22157 30808 43218 60849 329137 327141 326142 331144 326146 330145;
0213992760999992010010410004+42700-068300FM-18+0000DB276V0203301N014019999999N9999999N1+00441+99999999999ADDOA159901701SA1+0719REMSYN182BBXX  44005 04101 99432 70691 46/// /3314 10044 90950 22200 00071 10706 20706 3//// 41002 70029 333 91217 555 11144 22153 30933 43218 60949 329138 325144 325137 325140 325140 326137;
0201992760999992010010411004+42700-068300FM-18+0000DB276V0203201N013019999999N9999999N1+00391+99999999999ADDOA159901601SA1+0719REMSYN170BBXX  44005 04111 99432 70691 46/// /3213 10039 91050 22200 00071 10606 20606 70029 333 91216 555 11143 22151 30957 43318 61049 320133 325128 326136 328144 327134 325138;
0213992760999992010010412004+42700-068300FM-18+0000DB276V0203201N013019999999N9999999N1+00361+99999999999ADDOA159901601SA1+0719REMSYN182BBXX  44005 04121 99432 70691 46/// /3213 10036 91150 22200 00071 10605 20605 3//// 41001 70026 333 91216 555 11134 22142 31122 43217 61149 316126 320128 321123 317125 322127 322129;
0213992760999992010010413004+42700-068300FM-18+0000DB276V0203101N012019999999N9999999N1+00351+99999999999ADDOA159901501SA1+0719REMSYN182BBXX  44005 04131 99432 70691 46/// /3112 10035 91250 22200 00071 10605 20605 3//// 41301 70026 333 91215 555 11129 22136 31217 43216 61249 315121 316127 319128 316122 316125 318123;
0213992760999992010010414004+42700-068300FM-18+0000DB276V0203201N012019999999N9999999N1+00341+99999999999ADDOA159901601SA1+0719REMSYN182BBXX  44005 04141 99432 70691 46/// /3212 10034 91350 22200 00071 10705 20705 3//// 41301 70027 333 91216 555 11132 22139 31341 43216 61349 316126 313125 313127 313125 314123 312122;
0213992760999992010010415004+42700-068300FM-18+0000DB276V0203201N012019999999N9999999N1+00341+99999999999ADDOA159901501SA1+0719REMSYN182BBXX  44005 04151 99432 70691 46/// /3212 10034 91450 22200 00071 10705 20705 3//// 41301 70025 333 91215 555 11122 22129 31359 43315 61449 320114 319119 317118 317120 320124 318122;
0213992760999992010010416004+42700-068300FM-18+0000DB276V0203201N011019999999N9999999N1+00331+99999999999ADDOA159901401SA1+0719REMSYN182BBXX  44005 04161 99432 70691 46/// /3211 10033 91550 22200 00071 10704 20704 3//// 41101 70022 333 91214 555 11119 22125 31452 43114 61549 316110 316116 318113 316115 315116 316117;
0213992760999992010010417004+42700-068300FM-18+0000DB276V0203201N011019999999N9999999N1+00341+99999999999ADDOA159901401SA1+0719REMSYN182BBXX  44005 04171 99432 70691 46/// /3211 10034 91650 22200 00071 10605 20605 3//// 41301 70024 333 91214 555 11121 22128 31602 43315 61649 322113 318113 323112 325119 322117 318115;
0213992760999992010010418004+42700-068300FM-18+0000DB276V0203201N011019999999N9999999N1+00351+99999999999ADDOA159901301SA1+0719REMSYN182BBXX  44005 04181 99432 70691 46/// /3211 10035 91750 22200 00071 10605 20604 3//// 41101 70023 333 91213 555 11114 22119 31719 43214 61749 321106 322108 321110 320110 322110 319114;
0213992760999992010010419004+42700-068300FM-18+0000DB276V0203301N010019999999N9999999N1+00321+99999999999ADDOA159901301SA1+0719REMSYN182BBXX  44005 04191 99432 70691 46/// /3310 10032 91850 22200 00071 10604 20604 3//// 41101 70022 333 91213 555 11110 22116 31818 43413 61849 329104 324103 326099 331105 327103 322112;
0213992760999992010010420004+42700-068300FM-18+0000DB276V0203301N009019999999N9999999N1+00311+99999999999ADDOA159901201SA1+0719REMSYN182BBXX  44005 04201 99432 70691 46/// /3309 10031 91950 22200 00071 10604 20604 3//// 41102 70021 333 91212 555 11097 22102 31859 43313 61949 328092 326094 324100 322099 325099 322101;
0205992760999992010010421004+42700-068300FM-18+0000DB276V0203301N009019999999N9999999N1+00301+99999999999ADDOA159901201REMSYN182BBXX  44005 04211 99432 70691 46/// /3309 10030 92050 22200 00070 10604 20604 3//// 41102 70020 333 91212 555 11099 22104 32049 43312 62049 324093 318086 325088 329095 328092 325094;
0205992760999992010010422004+42700-068300FM-18+0000DB276V0203201N009019999999N9999999N1+00281+99999999999ADDOA159901001REMSYN182BBXX  44005 04221 99432 70691 46/// /3209 10028 92150 22200 00070 10504 20504 3//// 41002 70021 333 91210 555 11091 22095 32117 43311 62149 322086 325089 321090 325089 319086 324085;
0205992760999992010010423004+42700-068300FM-18+0000DB276V0203201N009019999999N9999999N1+00201+99999999999ADDOA159901101REMSYN182BBXX  44005 04231 99432 70691 46/// /3209 10020 92250 22200 00070 10503 20503 3//// 41001 70017 333 91211 555 11094 22098 32201 43212 62249 320089 323086 327086 325081 322085 326084;
0213992760999992010010500004+42700-068300FM-18+0000DB276V0203201N008019999999N9999999N1+00241+99999999999ADDOA159901101SA1+0719REMSYN182BBXX  44005 05001 99432 70691 46/// /3208 10024 92350 22200 00071 10504 20503 3//// 41302 70018 333 91211 555 11085 22089 32304 43211 62349 317081 318084 319083 310089 311089 310086;
0213992760999992010010501004+42700-068300FM-18+0000DB276V0203201N008019999999N9999999N1+00191+99999999999ADDOA159901001SA1+0719REMSYN182BBXX  44005 05011 99432 70691 46/// /3208 10019 90050 22200 00071 10503 20503 3//// 40902 70016 333 91210 555 11087 22091 30002 43111 60049 321083 316086 317084 317084 314085 316081;
0213992760999992010010502004+42700-068300FM-18+0000DB276V0203201N008019999999N9999999N1+00211+99999999999ADDOA159900901SA1+0719REMSYN182BBXX  44005 05021 99432 70691 46/// /3208 10021 90150 22200 00071 10503 20503 3//// 41102 70015 333 91209 555 11083 22087 30103 43311 60149 321078 324079 325077 323081 322080 323079;
0213992760999992010010503004+42700-068300FM-18+0000DB276V0203201N008019999999N9999999N1+00201+99999999999ADDOA159901001SA1+0719REMSYN182BBXX  44005 05031 99432 70691 46/// /3208 10020 90250 22200 00071 10503 20503 3//// 41301 70015 333 91210 555 11080 22083 30227 43210 60249 324075 327079 322079 326077 320077 322082;
0205992760999992010010504004+42700-068300FM-18+0000DB276V0203101N006019999999N9999999N1+00201+99999999999ADDOA159900801REMSYN182BBXX  44005 05041 99432 70691 46/// /3106 10020 90350 22200 00070 10503 20502 3//// 41102 70014 333 91208 555 11064 22066 30253 43309 60349 308061 310061 310065 315070 319067 327075;
0205992760999992010010505004+42700-068300FM-18+0000DB276V0203001N006019999999N9999999N1+00181+99999999999ADDOA159900801REMSYN182BBXX  44005 05051 99432 70691 46/// /3006 10018 90450 22200 00070 10503 20502 3//// 41301 70013 333 91208 555 11067 22069 30448 42908 60449 304062 305062 305060 308058 310056 305056;
0205992760999992010010506004+42700-068300FM-18+0000DB276V0203201N008019999999N9999999N1+00171+99999999999ADDOA159900901REMSYN182BBXX  44005 05061 99432 70691 46/// /3208 10017 90550 22200 00070 11303 20502 3//// 41302 70014 333 91209 555 11079 22082 30548 43209 60549 320074 311070 319067 315065 313065 310065;
0205992760999992010010507004+42700-068300FM-18+0000DB276V0203201N008019999999N9999999N1+00161+99999999999ADDOA159900901REMSYN182BBXX  44005 05071 99432 70691 46/// /3208 10016 90650 22200 00070 11103 20502 3//// 41102 70013 333 91209 555 11079 22082 30604 43209 60649 313074 309066 313066 310071 315072 316073;
0205992760999992010010508004+42700-068300FM-18+0000DB276V0203101N007019999999N9999999N1+00151+99999999999ADDOA159900901REMSYN182BBXX  44005 05081 99432 70691 46/// /3107 10015 90750 22200 00070 11003 20502 3//// 41002 70015 333 91209 555 11073 22076 30706 43410 60749 311070 314072 313073 313072 316075 316075;
0205992760999992010010509004+42700-068300FM-18+0000DB276V0203101N006019999999N9999999N1+00141+99999999999ADDOA159900801REMSYN182BBXX  44005 05091 99432 70691 46/// /3106 10014 90850 22200 00070 11003 20502 3//// 41002 70014 333 91208 555 11067 22069 30825 42909 60849 311064 315069 308067 310067 308066 314069;
0213992760999992010010510004+42700-068300FM-18+0000DB276V0203001N006019999999N9999999N1+00131+99999999999ADDOA159900701SA1+0719REMSYN182BBXX  44005 05101 99432 70691 46/// /3006 10013 90950 22200 00071 11003 20502 3//// 41002 70015 333 91207 555 11057 22059 30900 42910 60949 303056 309057 309060 311062 307061 307063;
0213992760999992010010511004+42700-068300FM-18+0000DB276V0203101N006019999999N9999999N1+00131+99999999999ADDOA159900801SA1+0719REMSYN182BBXX  44005 05111 99432 70691 46/// /3106 10013 91050 22200 00071 10903 20402 3//// 40902 70016 333 91208 555 11063 22065 31028 43008 61049 310060 302060 303055 307053 304051 296052;
0213992760999992010010512004+42700-068300FM-18+0000DB276V0203101N006019999999N9999999N1+00121+99999999999ADDOA159900701SA1+0719REMSYN182BBXX  44005 05121 99432 70691 46/// /3106 10012 91150 22200 00071 10903 20402 3//// 40902 70013 333 91207 555 11057 22059 31123 43309 61149 309056 308058 309062 319067 316063 311057;
0205992760999992010010513004+42700-068300FM-18+0000DB276V0203101N007019999999N9999999N1+00131+99999999999ADDOA159900801REMSYN182BBXX  44005 05131 99432 70691 46/// /3107 10013 91250 22200 00070 10403 20402 3//// 40902 70013 333 91208 555 11068 22070 31245 43108 61249 306064 302060 304060 300056 301054 299054;
0205992760999992010010514004+42700-068300FM-18+0000DB276V0203101N006019999999N9999999N1+00141+99999999999ADDOA159900801REMSYN182BBXX  44005 05141 99432 70691 46/// /3106 10014 91350 22200 00070 10402 20402 3//// 40902 70012 333 91208 555 11066 22068 31322 43209 61349 314064 309065 308070 306069 308067 308064;
0205992760999992010010515004+42700-068300FM-18+0000DB276V0203101N006019999999N9999999N1+00171+99999999999ADDOA159900801REMSYN182BBXX  44005 05151 99432 70691 46/// /3106 10017 91450 22200 00070 10402 20402 3//// 41001 70012 333 91208 555 11065 22067 31446 43008 61449 314062 308059 313060 315061 314063 306064;
0205992760999992010010516004+42700-068300FM-18+0000DB276V0203101N005019999999N9999999N1+00171+99999999999ADDOA159900701REMSYN182BBXX  44005 05161 99432 70691 46/// /3105 10017 91550 22200 00070 10402 20402 3//// 41001 70010 333 91207 555 11055 22057 31453 43108 61549 309052 309056 308056 308056 313056 315062;
0205992760999992010010517004+42700-068300FM-18+0000DB276V0203201N005019999999N9999999N1+00161+99999999999ADDOA159900701REMSYN182BBXX  44005 05171 99432 70691 46/// /3205 10016 91650 22200 00070 10402 20402 3//// 40901 70011 333 91207 555 11054 22056 31603 42907 61649 320051 302051 307051 305052 311055 303054;
0205992760999992010010518004+42700-068300FM-18+0000DB276V0203001N005019999999N9999999N1+00131+99999999999ADDOA159900601REMSYN182BBXX  44005 05181 99432 70691 46/// /3005 10013 91750 22200 00070 10402 20401 3//// 41301 70010 333 91206 555 11050 22051 31714 43107 61749 302048 311049 310047 311050 313049 298052;
0205992760999992010010519004+42700-068300FM-18+0000DB276V0203001N004019999999N9999999N1+00171+99999999999ADDOA159900601REMSYN182BBXX  44005 05191 99432 70691 46/// /3004 10017 91850 22200 00070 10402 20401 3//// 41001 70009 333 91206 555 11044 22046 31821 43106 61849 298042 305046 301049 312047 304043 301046;
0213992760999992010010520004+42700-068300FM-18+0000DB276V0202901N005019999999N9999999N1+00191+99999999999ADDOA159900601SA1+0689REMSYN182BBXX  44005 05201 99432 70691 46/// /2905 10019 91950 22200 00068 11002 20401 3//// 41001 70009 333 91206 555 11052 22054 31858 43007 61949 293050 296053 290049 301050 296046 298047;
0213992760999992010010521004+42700-068300FM-18+0000DB276V0202901N005019999999N9999999N1+00201+99999999999ADDOA159900701SA1+0689REMSYN182BBXX  44005 05211 99432 70691 46/// /2905 10020 92050 22200 00068 11002 20401 3//// 41001 70009 333 91207 555 11056 22058 32000 42808 62049 293052 293055 293055 289053 287053 285050;
0213992760999992010010522004+42700-068300FM-18+0000DB276V0202901N006019999999N9999999N1+00211+99999999999ADDOA159900801SA1+0689REMSYN182BBXX  44005 05221 99432 70691 46/// /2906 10021 92150 22200 00068 11102 20401 3//// 41101 70008 333 91208 555 11064 22066 32134 43108 62149 295060 303061 298060 297057 297058 291055;
0213992760999992010010523004+42700-068300FM-18+0000DB276V0203201N006019999999N9999999N1+00171+99999999999ADDOA159900801SA1+0699REMSYN182BBXX  44005 05231 99432 70691 46/// /3206 10017 92250 22200 00069 10902 20301 3//// 40901 70009 333 91208 555 11066 22068 32211 43009 62249 318061 302054 299061 302070 306064 302064;
0213992760999992010010600004+42700-068300FM-18+0000DB276V0203101N007019999999N9999999N1+00161+99999999999ADDOA159900801SA1+0689REMSYN182BBXX  44005 06001 99432 70691 46/// /3107 10016 92350 22200 00068 10902 20401 3//// 40901 70009 333 91208 555 11069 22072 32324 43109 62349 305066 312065 313070 313065 320062 311058;
0213992760999992010010601004+42700-068300FM-18+0000DB276V0203201N007019999999N9999999N1+00131+99999999999ADDOA159900901SA1+0689REMSYN182BBXX  44005 06011 99432 70691 46/// /3207 10013 90050 22200 00068 10402 20402 3//// 40801 70010 333 91209 555 11072 22075 30033 43309 60049 319069 329067 326074 322073 313067 311068;
0213992760999992010010602004+42700-068300FM-18+0000DB276V0203301N007019999999N9999999N1+00171+99999999999ADDOA159900901SA1+0689REMSYN182BBXX  44005 06021 99432 70691 46/// /3307 10017 90150 22200 00068 10802 20402 3//// 40801 70010 333 91209 555 11074 22077 30054 43310 60149 326072 321075 317069 319064 328068 326066;
0213992760999992010010603004+42700-068300FM-18+0000DB276V0203501N008019999999N9999999N1+00171+99999999999ADDOA159901001SA1+0679REMSYN182BBXX  44005 06031 99432 70691 46/// /3508 10017 90250 22200 00067 10402 20402 3//// 40701 70011 333 91210 555 11080 22083 30247 43510 60249 346074 341072 338072 346067 334072 330084;
0213992760999992010010604004+42700-068300FM-18+0000DB276V0203401N008019999999N9999999N1+00141+99999999999ADDOA159901001SA1+0679REMSYN182BBXX  44005 06041 99432 70691 46/// /3408 10014 90350 22200 00067 10402 20402 3//// 40701 70011 333 91210 555 11082 22085 30340 43411 60349 340079 344079 340080 345076 347074 345080;
0213992760999992010010605004+42700-068300FM-18+0000DB276V0203301N008019999999N9999999N1+00131+99999999999ADDOA159901001SA1+0689REMSYN182BBXX  44005 06051 99432 70691 46/// /3308 10013 90450 22200 00068 10503 20503 3//// 40801 70014 333 91210 555 11080 22083 30447 43410 60449 333075 329076 329078 328077 331076 332076;
0213992760999992010010606004+42700-068300FM-18+0000DB276V0203301N008019999999N9999999N1+00131+99999999999ADDOA159901001SA1+0689REMSYN182BBXX  44005 06061 99432 70691 46/// /3308 10013 90550 22200 00068 10503 20502 3//// 40801 70013 333 91210 555 11081 22084 30542 43310 60549 329077 325076 333075 329071 330070 332073;
0213992760999992010010607004+42700-068300FM-18+0000DB276V0203201N008019999999N9999999N1+00121+99999999999ADDOA159901001SA1+0679REMSYN182BBXX  44005 06071 99432 70691 46/// /3208 10012 90650 22200 00067 10503 20503 3//// 41101 70015 333 91210 555 11083 22086 30612 43211 60649 323079 324083 329086 329083 330082 329080;
0213992760999992010010608004+42700-068300FM-18+0000DB276V0203101N009019999999N9999999N1+00081+99999999999ADDOA159901001SA1+0679REMSYN182BBXX  44005 06081 99432 70691 46/// /3109 10008 90750 22200 00067 10503 20503 3//// 40801 70015 333 91210 555 11090 22094 30710 43311 60749 314084 321085 322087 318086 321085 323082;
0213992760999992010010609004+42700-068300FM-18+0000DB276V0203201N008019999999N9999999N1+00081+99999999999ADDOA159901101SA1+0679REMSYN182BBXX  44005 06091 99432 70691 46/// /3208 10008 90850 22200 00067 10503 20503 3//// 40901 70016 333 91211 555 11087 22091 30814 43211 60849 313083 310082 315079 318083 317082 316086;
0213992760999992010010610004+42700-068300FM-18+0000DB276V0203201N008019999999N9999999N1+00051+99999999999ADDOA159901001SA1+0679REMSYN182BBXX  44005 06101 99432 70691 46/// /3208 10005 90950 22200 00067 10603 20603 3//// 40901 70016 333 91210 555 11086 22090 30909 43212 60949 320083 319089 318089 321088 320090 312085;
0213992760999992010010611004+42700-068300FM-18+0000DB276V0203101N008019999999N9999999N1+00051+99999999999ADDOA159901101SA1+0679REMSYN182BBXX  44005 06111 99432 70691 46/// /3108 10005 91050 22200 00067 10603 20603 3//// 40801 70016 333 91211 555 11085 22089 31045 43011 61049 310080 311079 311079 311077 306075 323078;
0213992760999992010010612004+42700-068300FM-18+0000DB276V0203101N008019999999N9999999N1+00041+99999999999ADDOA159901001SA1+0679REMSYN182BBXX  44005 06121 99432 70691 46/// /3108 10004 91150 22200 00067 10503 20503 3//// 40801 70016 333 91210 555 11081 22084 31146 43110 61149 308076 311081 302077 298075 303074 306079;
0213992760999992010010613004+42700-068300FM-18+0000DB276V0203201N008019999999N9999999N1+00041+99999999999ADDOA159901001SA1+0679REMSYN182BBXX  44005 06131 99432 70691 46/// /3208 10004 91250 22200 00067 10603 20603 3//// 40801 70015 333 91210 555 11084 22087 31154 43110 61249 316080 309077 308076 305077 303079 311077;
0201992760999992010010614004+42700-068300FM-18+0000DB276V0203101N008019999999N9999999N1+00071+99999999999ADDOA159901101SA1+0679REMSYN170BBXX  44005 06141 99432 70691 46/// /3108 10007 91350 22200 00067 10503 20503 70015 333 91211 555 11086 22090 31344 42911 61349 306081 309081 311081 307084 310083 310078;
0201992760999992010010615004+42700-068300FM-18+0000DB276V0203201N008019999999N9999999N1+00091+99999999999ADDOA159901001SA1+0679REMSYN170BBXX  44005 06151 99432 70691 46/// /3208 10009 91450 22200 00067 10503 20503 70015 333 91210 555 11081 22084 31429 42911 61449 313077 308078 303082 307078 309078 313078;
0213992760999992010010616004+42700-068300FM-18+0000DB276V0203001N008019999999N9999999N1+00091+99999999999ADDOA159901001SA1+0679REMSYN182BBXX  44005 06161 99432 70691 46/// /3008 10009 91550 22200 00067 10503 20503 3//// 40801 70015 333 91210 555 11081 22084 31533 43110 61549 303075 304076 303075 305074 308077 309079;
0213992760999992010010617004+42700-068300FM-18+0000DB276V0203001N008019999999N9999999N1+00111+99999999999ADDOA159901001SA1+0679REMSYN182BBXX  44005 06171 99432 70691 46/// /3008 10011 91650 22200 00067 10503 20503 3//// 40801 70014 333 91210 555 11086 22090 31614 42911 61649 296081 294080 293081 298079 295085 303076;
0201992760999992010010618004+42700-068300FM-18+0000DB276V0203001N008019999999N9999999N1+00201+99999999999ADDOA159901101SA1+0679REMSYN170BBXX  44005 06181 99432 70691 46/// /3008 10020 91750 22200 00067 10503 20503 70015 333 91211 555 11088 22092 31734 42911 61749 298084 291086 290080 289083 296083 298082;
0213992760999992010010619004+42700-068300FM-18+0000DB276V0202901N008019999999N9999999N1+00131+99999999999ADDOA159901101SA1+0679REMSYN182BBXX  44005 06191 99432 70691 46/// /2908 10013 91850 22200 00067 10503 20503 3//// 40801 70015 333 91211 555 11087 22091 31811 43112 61849 287083 291086 296089 302090 299090 289086;
0201992760999992010010620004+42700-068300FM-18+0000DB276V0202801N009019999999N9999999N1+00201+99999999999ADDOA159901101SA1+0679REMSYN170BBXX  44005 06201 99432 70691 46/// /2809 10020 91950 22200 00067 10503 20503 70015 333 91211 555 11090 22094 31859 43011 61949 280085 281080 280085 286083 286087 289089;
0201992760999992010010621004+42700-068300FM-18+0000DB276V0202801N008019999999N9999999N1+00151+99999999999ADDOA159901001SA1+0679REMSYN170BBXX  44005 06211 99432 70691 46/// /2808 10015 92050 22200 00067 10503 20503 70017 333 91210 555 11082 22085 32013 43111 62049 285079 287078 282083 288088 291086 280088;
0213992760999992010010622004+42700-068300FM-18+0000DB276V0203001N008019999999N9999999N1+00161+99999999999ADDOA159901001SA1+0679REMSYN182BBXX  44005 06221 99432 70691 46/// /3008 10016 92150 22200 00067 10503 20503 3//// 41101 70014 333 91210 555 11088 22092 32117 42912 62149 301082 294081 289083 287083 280084 288080;
0213992760999992010010623004+42700-068300FM-18+0000DB276V0203001N010019999999N9999999N1+00171+99999999999ADDOA159901201SA1+0679REMSYN182BBXX  44005 06231 99432 70691 46/// /3010 10017 92250 22200 00067 10503 20503 3//// 40801 70015 333 91212 555 11102 22107 32233 43013 62249 301096 302101 304089 297084 296083 297084;
0213992760999992010010700004+42700-068300FM-18+0000DB276V0203101N010019999999N9999999N1+00151+99999999999ADDOA159901201SA1+0679REMSYN182BBXX  44005 07001 99432 70691 46/// /3110 10015 92350 22200 00067 10503 20503 3//// 40801 70015 333 91212 555 11109 22114 32327 43113 62349 311101 312101 309103 307105 304101 305101;
0201992760999992010010701004+42700-068300FM-18+0000DB276V0203201N009019999999N9999999N1+00141+99999999999ADDOA159901201SA1+0679REMSYN170BBXX  44005 07011 99432 70691 46/// /3209 10014 90050 22200 00067 10503 20503 70015 333 91212 555 11098 22103 30032 43112 60049 320092 311096 308091 313092 311092 307095;
0213992760999992010010702004+42700-068300FM-18+0000DB276V0203101N008019999999N9999999N1+00121+99999999999ADDOA159901001SA1+0679REMSYN182BBXX  44005 07021 99432 70691 46/// /3108 10012 90150 22200 00067 10503 20503 3//// 41401 70014 333 91210 555 11085 22089 30059 43112 60149 313080 322087 319086 324091 319089 312090;
0213992760999992010010703004+42700-068300FM-18+0000DB276V0203201N010019999999N9999999N1+00071+99999999999ADDOA159901201SA1+0679REMSYN182BBXX  44005 07031 99432 70691 46/// /3210 10007 90250 22200 00067 10503 20503 3//// 40701 70013 333 91212 555 11101 22106 30238 43312 60249 314096 308101 306088 308078 311081 311081;
0201992760999992010010704004+42700-068300FM-18+0000DB276V0203201N009019999999N9999999N1+00041+99999999999ADDOA159901201SA1+0679REMSYN170BBXX  44005 07041 99432 70691 46/// /3209 10004 90350 22200 00067 10503 20503 70016 333 91212 555 11099 22103 30347 43212 60349 320093 317091 319096 316094 312097 316092;
0201992760999992010010705004+42700-068300FM-18+0000DB276V0203201N010019999999N9999999N1-00031+99999999999ADDOA159901201SA1+0679REMSYN170BBXX  44005 07051 99432 70691 46/// /3210 11003 90450 22200 00067 10604 20604 70018 333 91212 555 11105 22110 30438 43113 60449 315101 317106 316097 311095 303101 306100;
0201992760999992010010706004+42700-068300FM-18+0000DB276V0203101N010019999999N9999999N1-00031+99999999999ADDOA159901201SA1+0669REMSYN170BBXX  44005 07061 99432 70691 46/// /3110 11003 90550 22200 00066 10504 20504 70019 333 91212 555 11103 22108 30509 43113 60549 308098 309098 310096 315097 320102 312101;
0201992760999992010010707004+42700-068300FM-18+0000DB276V0203001N011019999999N9999999N1-00051+99999999999ADDOA159901301SA1+0669REMSYN170BBXX  44005 07071 99432 70691 46/// /3011 11005 90650 22200 00066 10603 20603 70017 333 91213 555 11112 22117 30628 43013 60649 305106 309098 307102 308098 308100 308097;
0201992760999992010010708004+42700-068300FM-18+0000DB276V0203101N011019999999N9999999N1-00061+99999999999ADDOA159901301SA1+0669REMSYN170BBXX  44005 07081 99432 70691 46/// /3111 11006 90750 22200 00066 10504 20504 70018 333 91213 555 11115 22121 30705 43013 60749 310107 311105 308105 305103 302102 308102;
0201992760999992010010709004+42700-068300FM-18+0000DB276V0203101N011019999999N9999999N1-00081+99999999999ADDOA159901401SA1+0669REMSYN170BBXX  44005 07091 99432 70691 46/// /3111 11008 90850 22200 00066 10604 20604 70018 333 91214 555 11118 22124 30849 43114 60849 308111 310107 313110 309105 314111 311108;
0201992760999992010010710004+42700-068300FM-18+0000DB276V0203101N011019999999N9999999N1-00071+99999999999ADDOA159901301SA1+0669REMSYN170BBXX  44005 07101 99432 70691 46/// /3111 11007 90950 22200 00066 10603 20603 70017 333 91213 555 11114 22119 30916 43116 60949 314108 315107 315112 312111 310112 315110;
0213992760999992010010711004+42700-068300FM-18+0000DB276V0203101N011019999999N9999999N1-00051+99999999999ADDOA159901301SA1+0669REMSYN182BBXX  44005 07111 99432 70691 46/// /3111 11005 91050 22200 00066 10504 20504 3//// 41001 70018 333 91213 555 11114 22119 31036 43114 61049 313107 311110 315112 314110 318112 312108;
0213992760999992010010712004+42700-068300FM-18+0000DB276V0203101N011019999999N9999999N1-00041+99999999999ADDOA159901401SA1+0669REMSYN182BBXX  44005 07121 99432 70691 46/// /3111 11004 91150 22200 00066 10503 20503 3//// 40801 70017 333 91214 555 11113 22118 31149 43114 61149 311106 311107 308108 308107 315106 315106;
0213992760999992010010713004+42700-068300FM-18+0000DB276V0203101N011019999999N9999999N1-00011+99999999999ADDOA159901401SA1+0669REMSYN182BBXX  44005 07131 99432 70691 46/// /3111 11001 91250 22200 00066 10604 20604 3//// 40801 70018 333 91214 555 11116 22122 31248 43114 61249 307109 304108 303109 305111 310107 305106;
0213992760999992010010714004+42700-068300FM-18+0000DB276V0203101N011019999999N9999999N1+00061+99999999999ADDOA159901401SA1+0669REMSYN182BBXX  44005 07141 99432 70691 46/// /3111 10006 91350 22200 00066 10604 20604 3//// 41401 70018 333 91214 555 11120 22126 31336 43015 61349 307113 310111 309111 306115 305113 308113;
0201992760999992010010715004+42700-068300FM-18+0000DB276V0203001N012019999999N9999999N1+00121+99999999999ADDOA159901401SA1+0669REMSYN170BBXX  44005 07151 99432 70691 46/// /3012 10012 91450 22200 00066 10604 20604 70018 333 91214 555 11122 22128 31404 43215 61449 305116 307116 307117 306110 311118 306113;
0201992760999992010010716004+42700-068300FM-18+0000DB276V0203101N011019999999N9999999N1+00241+99999999999ADDOA159901401SA1+0669REMSYN170BBXX  44005 07161 99432 70691 46/// /3111 10024 91550 22200 00066 10604 20604 70020 333 91214 555 11117 22123 31456 43015 61549 305108 308114 303120 305118 311118 308113;
0201992760999992010010717004+42700-068300FM-18+0000DB276V0203101N012019999999N9999999N1+00311+99999999999ADDOA159901401SA1+0669REMSYN170BBXX  44005 07171 99432 70691 46/// /3112 10031 91650 22200 00066 10604 20604 70019 333 91214 555 11125 22132 31630 43115 61649 311115 305115 304107 309103 307108 300113;
0201992760999992010010718004+42700-068300FM-18+0000DB276V0203101N012019999999N9999999N1+00321+99999999999ADDOA159901501SA1+0669REMSYN170BBXX  44005 07181 99432 70691 46/// /3112 10032 91750 22200 00066 10604 20604 70022 333 91215 555 11127 22134 31731 43116 61749 305120 305133 305130 308129 308125 316116;
0201992760999992010010719004+42700-068300FM-18+0000DB276V0203001N011019999999N9999999N1+00311+99999999999ADDOA159901401SA1+0669REMSYN170BBXX  44005 07191 99432 70691 46/// /3011 10031 91850 22200 00066 10604 20604 70022 333 91214 555 11119 22125 31823 43116 61849 294114 296116 303123 301126 304121 303120;
0201992760999992010010720004+42700-068300FM-18+0000DB276V0202901N009019999999N9999999N1+00311+99999999999ADDOA159901101SA1+0669REMSYN170BBXX  44005 07201 99432 70691 46/// /2909 10031 91950 22200 00066 10604 20604 70019 333 91211 555 11096 22101 31902 43114 61949 294092 296095 300106 303102 300111 294110;
0213992760999992010010721004+42700-068300FM-18+0000DB276V0202901N008019999999N9999999N1+00271+99999999999ADDOA159901001SA1+0669REMSYN182BBXX  44005 07211 99432 70691 46/// /2908 10027 92050 22200 00066 10604 20603 3//// 41301 70018 333 91210 555 11080 22083 32017 43011 62049 286075 290078 292078 296082 296084 298086;
0213992760999992010010722004+42700-068300FM-18+0000DB276V0202801N007019999999N9999999N1+00201+99999999999ADDOA159901001SA1+0669REMSYN182BBXX  44005 07221 99432 70691 46/// /2807 10020 92150 22200 00066 10503 20503 3//// 41001 70015 333 91210 555 11075 22078 32146 42810 62149 280072 288070 287068 287068 288074 290070;
0213992760999992010010723004+42700-068300FM-18+0000DB276V0203101N006019999999N9999999N1+00211+99999999999ADDOA159900801SA1+0669REMSYN182BBXX  44005 07231 99432 70691 46/// /3106 10021 92250 22200 00066 10503 20503 3//// 41101 70015 333 91208 555 11066 22068 32225 43009 62249 307063 297061 292068 288067 282068 283066;
0213992760999992010010800004+42700-068300FM-18+0000DB276V0203101N008019999999N9999999N1+00201+99999999999ADDOA159900901SA1+0679REMSYN182BBXX  44005 08001 99432 70691 46/// /3108 10020 92350 22200 00067 10503 20503 3//// 41001 70014 333 91209 555 11082 22086 32338 43110 62349 313077 316079 312070 308066 302067 301064;
0213992760999992010010801004+42700-068300FM-18+0000DB276V0203301N008019999999N9999999N1+00121+99999999999ADDOA159900901SA1+0679REMSYN182BBXX  44005 08011 99432 70691 46/// /3308 10012 90050 22200 00067 10503 20503 3//// 41001 70015 333 91209 555 11079 22082 30021 43210 60049 330074 321073 319076 320076 318078 318080;
0213992760999992010010802004+42700-068300FM-18+0000DB276V0203301N007019999999N9999999N1+00041+99999999999ADDOA159900901SA1+0679REMSYN182BBXX  44005 08021 99432 70691 46/// /3307 10004 90150 22200 00067 10503 20503 3//// 41001 70016 333 91209 555 11078 22081 30131 43310 60149 326074 326080 329079 329081 324082 329076;
0213992760999992010010803004+42700-068300FM-18+0000DB276V0203201N008019999999N9999999N1-00021+99999999999ADDOA159901001SA1+0679REMSYN182BBXX  44005 08031 99432 70691 46/// /3208 11002 90250 22200 00067 10603 20603 3//// 40801 70016 333 91210 555 11083 22086 30227 43210 60249 322078 323084 320081 326079 321075 328075;
0213992760999992010010804004+42700-068300FM-18+0000DB276V0203301N008019999999N9999999N1-00051+99999999999ADDOA159901101SA1+0679REMSYN182BBXX  44005 08041 99432 70691 46/// /3308 11005 90350 22200 00067 10503 20503 3//// 40901 70017 333 91211 555 11085 22088 30344 43411 60349 329080 330081 323081 312080 321080 320079;
0213992760999992010010805004+42700-068300FM-18+0000DB276V0203201N007019999999N9999999N1-00101+99999999999ADDOA159900901SA1+0679REMSYN182BBXX  44005 08051 99432 70691 46/// /3207 11010 90450 22200 00067 10503 20503 3//// 40801 70016 333 91209 555 11072 22075 30431 43110 60449 316070 313071 316072 320073 325076 332077;
0213992760999992010010806004+42700-068300FM-18+0000DB276V0203101N007019999999N9999999N1-00131+99999999999ADDOA159900901SA1+0679REMSYN182BBXX  44005 08061 99432 70691 46/// /3107 11013 90550 22200 00067 10503 20503 3//// 40801 70016 333 91209 555 11071 22074 30546 43009 60549 310069 308065 312065 311063 315069 310069;
0213992760999992010010807004+42700-068300FM-18+0000DB276V0203201N006019999999N9999999N1-00161+99999999999ADDOA159900801SA1+0679REMSYN182BBXX  44005 08071 99432 70691 46/// /3206 11016 90650 22200 00067 10503 20503 3//// 40901 70014 333 91208 555 11066 22068 30601 43210 60649 319063 316067 314068 319068 316075 313071;
0213992760999992010010808004+42700-068300FM-18+0000DB276V0203201N005019999999N9999999N1-00191+99999999999ADDOA159900701SA1+0679REMSYN182BBXX  44005 08081 99432 70691 46/// /3205 11019 90750 22200 00067 10502 20502 3//// 40802 70012 333 91207 555 11053 22054 30700 43109 60749 318052 310050 314056 308058 308063 304063;
0213992760999992010010809004+42700-068300FM-18+0000DB276V0203201N003019999999N9999999N1-00221+99999999999ADDOA159900501SA1+0679REMSYN182BBXX  44005 08091 99432 70691 46/// /3203 11022 90850 22200 00067 10502 20301 3//// 40502 70011 333 91205 555 11032 22033 30758 43307 60849 325033 322035 326041 322040 319048 326049;
0213992760999992010010810004+42700-068300FM-18+0000DB276V0203201N003019999999N9999999N1-00191+99999999999ADDOA159900401SA1+0679REMSYN182BBXX  44005 08101 99432 70691 46/// /3203 11019 90950 22200 00067 10502 20401 3//// 40502 70010 333 91204 555 11031 22031 30922 43206 60949 313028 318031 319030 304034 315034 315035;
0213992760999992010010811004+42700-068300FM-18+0000DB276V0203501N003019999999N9999999N1-00221+99999999999ADDOA159900501SA1+0679REMSYN182BBXX  44005 08111 99432 70691 46/// /3503 11022 91050 22200 00067 10402 20301 3//// 40401 70009 333 91205 555 11028 22028 31045 43505 61049 342026 331031 318027 315025 299027 297021;
0213992760999992010010812004+42700-068300FM-18+0000DB276V0203301N004019999999N9999999N1-00171+99999999999ADDOA159900501SA1+0669REMSYN182BBXX  44005 08121 99432 70691 46/// /3304 11017 91150 22200 00066 10402 20301 3//// 40401 70008 333 91205 555 11038 22039 31136 43405 61149 333035 357029 343027 344029 331026 346029;
0213992760999992010010813004+42700-068300FM-18+0000DB276V0203601N003019999999N9999999N1-00151+99999999999ADDOA159900401SA1+0669REMSYN182BBXX  44005 08131 99432 70691 46/// /3603 11015 91250 22200 00066 10901 20401 3//// 40901 70007 333 91204 555 11031 22031 31153 43506 61249 355029 348027 344030 353028 348032 343035;
0213992760999992010010814004+42700-068300FM-18+0000DB276V0203601N003019999999N9999999N1-00141+99999999999ADDOA159900401SA1+0669REMSYN182BBXX  44005 08141 99432 70691 46/// /3603 11014 91350 22200 00066 10901 20401 3//// 40901 70007 333 91204 555 11031 22031 31323 43604 61349 353029 335026 348022 313017 350021 336023;
0213992760999992010010815004+42700-068300FM-18+0000DB276V0203601N003019999999N9999999N1-00141+99999999999ADDOA159900401SA1+0669REMSYN182BBXX  44005 08151 99432 70691 46/// /3603 11014 91450 22200 00066 10801 20301 3//// 40801 70007 333 91204 555 11028 22028 31428 43605 61449 004027 003028 356026 347019 354021 346022;
0213992760999992010010816004+42700-068300FM-18+0000DB276V0203601N003019999999N9999999N1-00241+99999999999ADDOA159900501SA1+0669REMSYN182BBXX  44005 08161 99432 70691 46/// /3603 11024 91550 22200 00066 10801 20301 3//// 40801 70007 333 91205 555 11035 22036 31501 40105 61549 005032 016033 006032 010031 008030 011029;
0213992760999992010010817004+42700-068300FM-18+0000DB276V0200101N004019999999N9999999N1-00221+99999999999ADDOA159900601SA1+0669REMSYN182BBXX  44005 08171 99432 70691 46/// /0104 11022 91650 22200 00066 10801 20301 3//// 40801 70007 333 91206 555 11045 22047 31646 40206 61649 010042 014038 006043 006039 006035 002037;
0213992760999992010010818004+42700-068300FM-18+0000DB276V0200101N006019999999N9999999N1-00211+99999999999ADDOA159900801SA1+0669REMSYN182BBXX  44005 08181 99432 70691 46/// /0106 11021 91750 22200 00066 10901 20301 3//// 40901 70006 333 91208 555 11066 22068 31741 40108 61749 008063 021047 034047 024033 012036 015040;
0213992760999992010010819004+42700-068300FM-18+0000DB276V0200101N006019999999N9999999N1-00161+99999999999ADDOA159900801SA1+0669REMSYN182BBXX  44005 08191 99432 70691 46/// /0106 11016 91850 22200 00066 10801 20401 3//// 40801 70007 333 91208 555 11063 22066 31804 40109 61849 006061 005062 002063 012065 004069 007066;
0213992760999992010010820004+42700-068300FM-18+0000DB276V0203601N006019999999N9999999N1-00181+99999999999ADDOA159900801SA1+0669REMSYN182BBXX  44005 08201 99432 70691 46/// /3606 11018 91950 22200 00066 10402 20401 3//// 40801 70008 333 91208 555 11066 22068 31948 43508 61949 004063 003059 000057 004057 003058 004060;
0213992760999992010010821004+42700-068300FM-18+0000DB276V0203501N008019999999N9999999N1-00191+99999999999ADDOA159900901SA1+0649REMSYN182BBXX  44005 08211 99432 70691 46/// /3508 11019 92050 22200 00064 10402 20402 3//// 40801 70009 333 91209 555 11080 22083 32019 43609 62049 353075 356075 356067 002071 002065 002061;
0213992760999992010010822004+42700-068300FM-18+0000DB276V0203501N008019999999N9999999N1-00221+99999999999ADDOA159900901SA1+0649REMSYN182BBXX  44005 08221 99432 70691 46/// /3508 11022 92150 22200 00064 10402 20402 3//// 41001 70010 333 91209 555 11081 22084 32132 43511 62149 352077 352077 354077 355077 353076 354077;
0213992760999992010010823004+42700-068300FM-18+0000DB276V0203401N008019999999N9999999N1-00191+99999999999ADDOA159901001SA1+0649REMSYN182BBXX  44005 08231 99432 70691 46/// /3408 11019 92250 22200 00064 10402 20402 3//// 40901 70010 333 91210 555 11084 22087 32208 43410 62249 345081 345083 343083 349085 344081 346080;
0213992760999992010010900004+42700-068300FM-18+0000DB276V0203401N008019999999N9999999N1-00191+99999999999ADDOA159900901SA1+0649REMSYN182BBXX  44005 09001 99432 70691 46/// /3408 11019 92350 22200 00064 10402 20402 3//// 41101 70011 333 91209 555 11081 22084 32324 43511 62349 340077 339075 343080 340078 341081 339078;
0213992760999992010010901004+42700-068300FM-18+0000DB276V0203401N008019999999N9999999N1-00231+99999999999ADDOA159901101SA1+0649REMSYN182BBXX  44005 09011 99432 70691 46/// /3408 11023 90050 22200 00064 10402 20402 3//// 41001 70011 333 91211 555 11086 22089 30047 43611 60049 344081 347081 342079 339072 342072 343076;
0213992760999992010010902004+42700-068300FM-18+0000DB276V0203501N010019999999N9999999N1-00181+99999999999ADDOA159901201SA1+0649REMSYN182BBXX  44005 09021 99432 70691 46/// /3510 11018 90150 22200 00064 10402 20402 3//// 41001 70011 333 91212 555 11101 22105 30144 43512 60149 354097 349095 355089 000082 350077 352077;
0213992760999992010010903004+42700-068300FM-18+0000DB276V0203501N011019999999N9999999N1-00181+99999999999ADDOA159901401SA1+0649REMSYN182BBXX  44005 09031 99432 70691 46/// /3511 11018 90250 22200 00064 10503 20503 3//// 40901 70015 333 91214 555 11115 22120 30244 43414 60249 347108 349106 350104 347106 349108 353101;
0213992760999992010010904004+42700-068300FM-18+0000DB276V0203501N011019999999N9999999N1-00181+99999999999ADDOA159901301SA1+0669REMSYN182BBXX  44005 09041 99432 70691 46/// /3511 11018 90350 22200 00066 10503 20503 3//// 40801 70017 333 91213 555 11113 22118 30252 43414 60349 345107 344104 350103 350107 348109 347112;
0213992760999992010010905004+42700-068300FM-18+0000DB276V0203501N010019999999N9999999N1-00201+99999999999ADDOA159901301SA1+0649REMSYN182BBXX  44005 09051 99432 70691 46/// /3510 11020 90450 22200 00064 10503 20503 3//// 40801 70017 333 91213 555 11109 22113 30448 43613 60449 350103 347104 346105 348108 344104 348106;
0201992760999992010010906004+42700-068300FM-18+0000DB276V0203401N012019999999N9999999N1-00161+99999999999ADDOA159901401SA1+0649REMSYN170BBXX  44005 09061 99432 70691 46/// /3412 11016 90550 22200 00064 10604 20604 70018 333 91214 555 11122 22127 30542 43314 60549 344114 349113 347110 345109 347109 349101;
0201992760999992010010907004+42700-068300FM-18+0000DB276V0203301N012019999999N9999999N1-00141+99999999999ADDOA159901501SA1+0669REMSYN170BBXX  44005 09071 99432 70691 46/// /3312 11014 90650 22200 00066 10504 20504 70020 333 91215 555 11122 22127 30643 43315 60649 334113 339109 344112 342116 344112 341113;
0201992760999992010010908004+42700-068300FM-18+0000DB276V0203301N012019999999N9999999N1-00191+99999999999ADDOA159901501SA1+0669REMSYN170BBXX  44005 09081 99432 70691 46/// /3312 11019 90750 22200 00066 10605 20605 70024 333 91215 555 11124 22130 30659 43315 60749 329116 330115 331114 330115 333111 333116;
0201992760999992010010909004+42700-068300FM-18+0000DB276V0203401N012019999999N9999999N1-00161+99999999999ADDOA159901501SA1+0669REMSYN170BBXX  44005 09091 99432 70691 46/// /3412 11016 90850 22200 00066 10605 20605 70023 333 91215 555 11128 22134 30847 43415 60849 336121 335123 334117 334119 330123 327110;
0201992760999992010010910004+42700-068300FM-18+0000DB276V0203401N012019999999N9999999N1-00141+99999999999ADDOA159901601SA1+0669REMSYN170BBXX  44005 09101 99432 70691 46/// /3412 11014 90950 22200 00066 10605 20605 70025 333 91216 555 11128 22134 30948 43316 60949 338120 340120 340119 338120 338119 337119;
0201992760999992010010911004+42700-068300FM-18+0000DB276V0203201N011019999999N9999999N1-00161+99999999999ADDOA159901401SA1+0669REMSYN170BBXX  44005 09111 99432 70691 46/// /3211 11016 91050 22200 00066 10605 20605 70027 333 91214 555 11117 22123 31002 43316 61049 325111 334117 335119 339119 334121 342126;
0201992760999992010010912004+42700-068300FM-18+0000DB276V0203201N012019999999N9999999N1-00201+99999999999ADDOA159901401SA1+0669REMSYN170BBXX  44005 09121 99432 70691 46/// /3212 11020 91150 22200 00066 10604 20604 70021 333 91214 555 11121 22127 31123 43215 61149 322113 326106 325114 325108 324107 322110;
0201992760999992010010913004+42700-068300FM-18+0000DB276V0203201N011019999999N9999999N1-00261+99999999999ADDOA159901401SA1+0669REMSYN170BBXX  44005 09131 99432 70691 46/// /3211 11026 91250 22200 00066 10604 20604 70020 333 91214 555 11112 22117 31153 43515 61249 321106 321109 326112 330106 331108 329112;
0201992760999992010010914004+42700-068300FM-18+0000DB276V0203301N010019999999N9999999N1-00281+99999999999ADDOA159901301SA1+0649REMSYN170BBXX  44005 09141 99432 70691 46/// /3310 11028 91350 22200 00064 10604 20604 70022 333 91213 555 11104 22109 31301 43314 61349 324100 328104 329106 329108 325104 325103;
0201992760999992010010915004+42700-068300FM-18+0000DB276V0203301N009019999999N9999999N1-00321+99999999999ADDOA159901301SA1+0639REMSYN170BBXX  44005 09151 99432 70691 46/// /3309 11032 91450 22200 00063 10604 20604 70018 333 91213 555 11096 22099 31353 43314 61449 325090 330092 325095 328093 330101 331106;
0201992760999992010010916004+42700-068300FM-18+0000DB276V0203201N009019999999N9999999N1-00341+99999999999ADDOA159901201SA1+0639REMSYN170BBXX  44005 09161 99432 70691 46/// /3209 11034 91550 22200 00063 10504 20504 70018 333 91212 555 11098 22102 31518 43213 61549 321093 325096 327095 327100 329098 318096;
0201992760999992010010917004+42700-068300FM-18+0000DB276V0203201N008019999999N9999999N1-00391+99999999999ADDOA159901001SA1+0639REMSYN170BBXX  44005 09171 99432 70691 46/// /3208 11039 91650 22200 00063 10503 20503 70016 333 91210 555 11084 22087 31623 43313 61649 324081 320084 327088 325092 324094 325091;
0201992760999992010010918004+42700-068300FM-18+0000DB276V0203201N008019999999N9999999N1-00351+99999999999ADDOA159901101SA1+0639REMSYN170BBXX  44005 09181 99432 70691 46/// /3208 11035 91750 22200 00063 10503 20503 70014 333 91211 555 11084 22087 31732 43312 61749 316081 320085 324078 320082 320085 325086;
0201992760999992010010919004+42700-068300FM-18+0000DB276V0203201N008019999999N9999999N1-00361+99999999999ADDOA159901101SA1+0639REMSYN170BBXX  44005 09191 99432 70691 46/// /3208 11036 91850 22200 00063 10503 20503 70014 333 91211 555 11087 22090 31805 43111 61849 322084 320075 313076 313082 317083 307082;
0201992760999992010010920004+42700-068300FM-18+0000DB276V0203201N009019999999N9999999N1-00331+99999999999ADDOA159901101SA1+0639REMSYN170BBXX  44005 09201 99432 70691 46/// /3209 11033 91950 22200 00063 10503 20503 70013 333 91211 555 11090 22094 31924 43211 61949 314085 322081 320083 312080 308082 317083;
0201992760999992010010921004+42700-068300FM-18+0000DB276V0203101N008019999999N9999999N1-00331+99999999999ADDOA159901101SA1+0639REMSYN170BBXX  44005 09211 99432 70691 46/// /3108 11033 92050 22200 00063 10503 20503 70014 333 91211 555 11087 22090 32022 43214 62049 310084 314081 316079 318075 313081 312081;
0213992760999992010010922004+42700-068300FM-18+0000DB276V0203301N008019999999N9999999N1-00381+99999999999ADDOA159901001SA1+0639REMSYN182BBXX  44005 09221 99432 70691 46/// /3308 11038 92150 22200 00063 10503 20503 3//// 41101 70015 333 91210 555 11084 22087 32059 43012 62149 330080 325082 333075 328080 315088 315084;
0213992760999992010010923004+42700-068300FM-18+0000DB276V0203401N008019999999N9999999N1-00391+99999999999ADDOA159901201SA1+0639REMSYN182BBXX  44005 09231 99432 70691 46/// /3408 11039 92250 22200 00063 10503 20503 3//// 41001 70014 333 91212 555 11087 22090 32247 43312 62249 338082 336086 329085 335088 325080 333084;
0213992760999992010011000004+42700-068300FM-18+0000DB276V0203401N009019999999N9999999N1-00391+99999999999ADDOA159901201SA1+0639REMSYN182BBXX  44005 10001 99432 70691 46/// /3409 11039 92350 22200 00063 10503 20503 3//// 41001 70015 333 91212 555 11095 22099 32306 43312 62349 343089 344090 337087 345088 336091 340091;
0213992760999992010011001004+42700-068300FM-18+0000DB276V0203401N009019999999N9999999N1-00441+99999999999ADDOA159901201SA1+0639REMSYN182BBXX  44005 10011 99432 70691 46/// /3409 11044 90050 22200 00063 10503 20503 3//// 41001 70016 333 91212 555 11095 22099 30027 43513 60049 342091 343091 345091 340094 339090 343087;
0213992760999992010011002004+42700-068300FM-18+0000DB276V0203501N011019999999N9999999N1-00521+99999999999ADDOA159901401SA1+0639REMSYN182BBXX  44005 10021 99432 70691 46/// /3511 11052 90150 22200 00063 10604 20604 3//// 41001 70018 333 91214 555 11119 22124 30120 43516 60149 345111 345114 352122 350112 355112 348107;
0213992760999992010011003004+42700-068300FM-18+0000DB276V0203501N010019999999N9999999N1-00621+99999999999ADDOA159901201SA1+0639REMSYN182BBXX  44005 10031 99432 70691 46/// /3510 11062 90250 22200 00063 10604 20604 3//// 40901 70020 333 91212 555 11106 22110 30201 43616 60249 350100 344101 345102 347112 356113 352112;
0213992760999992010011004004+42700-068300FM-18+0000DB276V0203401N010019999999N9999999N1-00651+99999999999ADDOA159901201SA1+0639REMSYN182BBXX  44005 10041 99432 70691 46/// /3410 11065 90350 22200 00063 10604 20604 3//// 40901 70021 333 91212 555 11103 22107 30322 43414 60349 343098 355092 353095 356102 348103 350102;
0213992760999992010011005004+42700-068300FM-18+0000DB276V0203301N009019999999N9999999N1-00681+99999999999ADDOA159901201SA1+0639REMSYN182BBXX  44005 10051 99432 70691 46/// /3309 11068 90450 22200 00063 10604 20604 3//// 40901 70020 333 91212 555 11093 22097 30354 43414 60449 334089 345099 354092 354092 349093 346096;
0213992760999992010011006004+42700-068300FM-18+0000DB276V0203401N008019999999N9999999N1-00711+99999999999ADDOA159901101SA1+0639REMSYN182BBXX  44005 10061 99432 70691 46/// /3408 11071 90550 22200 00063 10604 20604 3//// 40801 70019 333 91211 555 11087 22090 30537 43114 60549 338083 334096 337100 345090 337092 333094;
0213992760999992010011007004+42700-068300FM-18+0000DB276V0203401N009019999999N9999999N1-00701+99999999999ADDOA159901101SA1+0639REMSYN182BBXX  44005 10071 99432 70691 46/// /3409 11070 90650 22200 00063 10603 20603 3//// 40801 70017 333 91211 555 11091 22094 30626 43212 60649 338089 329091 337087 345082 350086 339086;
0213992760999992010011008004+42700-068300FM-18+0000DB276V0203401N009019999999N9999999N1-00711+99999999999ADDOA159901301SA1+0639REMSYN182BBXX  44005 10081 99432 70691 46/// /3409 11071 90750 22200 00063 10604 20603 3//// 41001 70018 333 91213 555 11097 22101 30743 43513 60749 342092 341084 343089 343092 333091 344094;
0213992760999992010011009004+42700-068300FM-18+0000DB276V0203401N009019999999N9999999N1-00701+99999999999ADDOA159901201SA1+0639REMSYN182BBXX  44005 10091 99432 70691 46/// /3409 11070 90850 22200 00063 10603 20603 3//// 41001 70016 333 91212 555 11092 22096 30830 43313 60849 341088 343091 335093 340090 337090 339096;
0213992760999992010011010004+42700-068300FM-18+0000DB276V0203401N008019999999N9999999N1-00691+99999999999ADDOA159901101SA1+0639REMSYN182BBXX  44005 10101 99432 70691 46/// /3408 11069 90950 22200 00063 10603 20603 3//// 41001 70017 333 91211 555 11084 22087 30925 43612 60949 342080 337088 341087 340092 340090 342087;
0201992760999992010011011004+42700-068300FM-18+0000DB276V0203301N008019999999N9999999N1-00711+99999999999ADDOA159901101SA1+0639REMSYN170BBXX  44005 10111 99432 70691 46/// /3308 11071 91050 22200 00063 10603 20603 70016 333 91211 555 11087 22090 31036 43112 61049 333084 331085 338081 334082 342083 342081;
0213992760999992010011012004+42700-068300FM-18+0000DB276V0203401N009019999999N9999999N1-00711+99999999999ADDOA159901201SA1+0639REMSYN182BBXX  44005 10121 99432 70691 46/// /3409 11071 91150 22200 00063 10503 20503 3//// 41101 70017 333 91212 555 11093 22097 31142 43512 61149 334087 332087 337088 333087 333086 335085;
0213992760999992010011013004+42700-068300FM-18+0000DB276V0203401N009019999999N9999999N1-00701+99999999999ADDOA159901101SA1+0639REMSYN182BBXX  44005 10131 99432 70691 46/// /3409 11070 91250 22200 00063 10503 20503 3//// 41001 70016 333 91211 555 11090 22093 31235 43412 61249 343087 340090 341086 331089 344083 331080;
0213992760999992010011014004+42700-068300FM-18+0000DB276V0203401N010019999999N9999999N1-00611+99999999999ADDOA159901201SA1+0639REMSYN182BBXX  44005 10141 99432 70691 46/// /3410 11061 91350 22200 00063 10604 20604 3//// 41001 70018 333 91212 555 11100 22104 31325 43412 61349 339096 334097 337095 343092 342093 346098;
0213992760999992010011015004+42700-068300FM-18+0000DB276V0203401N010019999999N9999999N1-00541+99999999999ADDOA159901301SA1+0639REMSYN182BBXX  44005 10151 99432 70691 46/// /3410 11054 91450 22200 00063 10604 20603 3//// 41001 70018 333 91213 555 11101 22105 31352 43513 61449 341097 336099 332100 341099 342097 338100;
0213992760999992010011016004+42700-068300FM-18+0000DB276V0203401N009019999999N9999999N1-00501+99999999999ADDOA159901201SA1+0639REMSYN182BBXX  44005 10161 99432 70691 46/// /3409 11050 91550 22200 00063 10603 20603 3//// 41001 70015 333 91212 555 11095 22099 31509 43512 61549 339091 342093 340096 342094 339095 342097;
0213992760999992010011017004+42700-068300FM-18+0000DB276V0203301N009019999999N9999999N1-00481+99999999999ADDOA159901101SA1+0639REMSYN182BBXX  44005 10171 99432 70691 46/// /3309 11048 91650 22200 00063 10503 20503 3//// 41001 70016 333 91211 555 11090 22094 31608 43312 61649 330086 343090 336086 345082 347087 346084;
0213992760999992010011018004+42700-068300FM-18+0000DB276V0203401N010019999999N9999999N1-00401+99999999999ADDOA159901201SA1+0639REMSYN182BBXX  44005 10181 99432 70691 46/// /3410 11040 91750 22200 00063 10503 20503 3//// 41101 70017 333 91212 555 11104 22108 31740 43313 61749 335100 331097 332090 334092 329088 337087;
0213992760999992010011019004+42700-068300FM-18+0000DB276V0203201N008019999999N9999999N1-00371+99999999999ADDOA159901001SA1+0639REMSYN182BBXX  44005 10191 99432 70691 46/// /3208 11037 91850 22200 00063 10503 20503 3//// 41101 70015 333 91210 555 11082 22085 31753 43312 61849 314079 311077 313075 318081 326089 333098;
0213992760999992010011020004+42700-068300FM-18+0000DB276V0203101N008019999999N9999999N1-00361+99999999999ADDOA159901101SA1+0639REMSYN182BBXX  44005 10201 99432 70691 46/// /3108 11036 91950 22200 00063 10503 20503 3//// 41101 70014 333 91211 555 11087 22090 31907 43213 61949 311081 308076 312077 313082 325080 317075;
0201992760999992010011021004+42700-068300FM-18+0000DB276V0203201N008019999999N9999999N1-00341+99999999999ADDOA159901001SA1+0629REMSYN170BBXX  44005 10211 99432 70691 46/// /3208 11034 92050 22200 00062 10403 20402 70013 333 91210 555 11079 22082 32038 43310 62049 317075 315076 315081 325074 313074 308079;
0213992760999992010011022004+42700-068300FM-18+0000DB276V0203201N009019999999N9999999N1-00331+99999999999ADDOA159901101SA1+0639REMSYN182BBXX  44005 10221 99432 70691 46/// /3209 11033 92150 22200 00063 10503 20503 3//// 41001 70013 333 91211 555 11092 22096 32143 43311 62149 319088 313086 316083 320076 308075 315072;
0201992760999992010011023004+42700-068300FM-18+0000DB276V0203101N008019999999N9999999N1-00291+99999999999ADDOA159901001SA1+0639REMSYN170BBXX  44005 10231 99432 70691 46/// /3108 11029 92250 22200 00063 10503 20503 70013 333 91210 555 11082 22085 32217 43012 62249 311079 301077 304079 311084 314080 311082;
0201992760999992010011100004+42700-068300FM-18+0000DB276V0203201N008019999999N9999999N1-00271+99999999999ADDOA159901001SA1+0639REMSYN170BBXX  44005 11001 99432 70691 46/// /3208 11027 92350 22200 00063 10502 20502 70012 333 91210 555 11081 22084 32307 43211 62349 321076 322079 313078 311082 307077 315072;
0213992760999992010011101004+42700-068300FM-18+0000DB276V0203201N008019999999N9999999N1-00301+99999999999ADDOA159901101SA1+0639REMSYN182BBXX  44005 11011 99432 70691 46/// /3208 11030 90050 22200 00063 10502 20502 3//// 41101 70012 333 91211 555 11082 22085 30020 43212 60049 316077 319083 322095 315085 315084 318074;
0201992760999992010011102004+42700-068300FM-18+0000DB276V0203201N007019999999N9999999N1-00301+99999999999ADDOA159901001SA1+0639REMSYN170BBXX  44005 11021 99432 70691 46/// /3207 11030 90150 22200 00063 10502 20502 70012 333 91210 555 11073 22076 30052 43210 60149 318069 313067 324068 325065 320070 303069;
0201992760999992010011103004+42700-068300FM-18+0000DB276V0203201N007019999999N9999999N1-00291+99999999999ADDOA159900901SA1+0639REMSYN170BBXX  44005 11031 99432 70691 46/// /3207 11029 90250 22200 00063 10402 20402 70011 333 91209 555 11068 22070 30157 43010 60249 310063 308061 312063 316069 309068 308069;
0213992760999992010011104004+42700-068300FM-18+0000DB276V0203001N005019999999N9999999N1-00301+99999999999ADDOA159900701SA1+0639REMSYN182BBXX  44005 11041 99432 70691 46/// /3005 11030 90350 22200 00063 10502 20502 3//// 40901 70011 333 91207 555 11053 22054 30255 43108 60349 300050 301043 305047 316046 312052 318057;
0213992760999992010011105004+42700-068300FM-18+0000DB276V0202801N004019999999N9999999N1-00281+99999999999ADDOA159900601SA1+0639REMSYN182BBXX  44005 11051 99432 70691 46/// /2804 11028 90450 22200 00063 10402 20301 3//// 40401 70009 333 91206 555 11042 22043 30422 42707 60449 277041 271040 280044 290042 284040 295042;
0213992760999992010011106004+42700-068300FM-18+0000DB276V0202801N004019999999N9999999N1-00271+99999999999ADDOA159900701SA1+0639REMSYN182BBXX  44005 11061 99432 70691 46/// /2804 11027 90550 22200 00063 10402 20401 3//// 40401 70008 333 91207 555 11044 22046 30503 42707 60549 279044 300044 285040 293040 285046 284045;
0213992760999992010011107004+42700-068300FM-18+0000DB276V0203001N003019999999N9999999N1-00271+99999999999ADDOA159900601SA1+0639REMSYN182BBXX  44005 11071 99432 70691 46/// /3003 11027 90650 22200 00063 10402 20301 3//// 40401 70008 333 91206 555 11034 22035 30604 42806 60649 303034 288033 289036 272035 285035 280040;
0213992760999992010011108004+42700-068300FM-18+0000DB276V0203001N003019999999N9999999N1-00271+99999999999ADDOA159900401SA1+0639REMSYN182BBXX  44005 11081 99432 70691 46/// /3003 11027 90750 22200 00063 10502 20401 3//// 40501 70008 333 91204 555 11031 22031 30716 43006 60749 297030 302030 304034 300037 280032 294033;
0213992760999992010011109004+42700-068300FM-18+0000DB276V0203201N004019999999N9999999N1-00261+99999999999ADDOA159900501SA1+0639REMSYN182BBXX  44005 11091 99432 70691 46/// /3204 11026 90850 22200 00063 10502 20401 3//// 40501 70008 333 91205 555 11039 22040 30815 43007 60849 319038 321034 327041 323040 301034 296031;
0213992760999992010011110004+42700-068300FM-18+0000DB276V0203501N003019999999N9999999N1-00271+99999999999ADDOA159900401SA1+0639REMSYN182BBXX  44005 11101 99432 70691 46/// /3503 11027 90950 22200 00063 10501 20401 3//// 40501 70007 333 91204 555 11030 22030 30856 43605 60949 349026 316024 330035 350023 350029 334027;
0213992760999992010011111004+42700-068300FM-18+0000DB276V0202401N002019999999N9999999N1-00261+99999999999ADDOA159900501SA1+0639REMSYN182BBXX  44005 11111 99432 70691 46/// /2402 11026 91050 22200 00063 10401 20301 3//// 40401 70007 333 91205 555 11019 22020 31049 43005 61049 251018 292022 308021 294025 329022 300018;
0213992760999992010011112004+42700-068300FM-18+0000DB276V0202301N002019999999N9999999N1-00261+99999999999ADDOA159900401SA1+0639REMSYN182BBXX  44005 11121 99432 70691 46/// /2302 11026 91150 22200 00063 10401 20401 3//// 40401 70007 333 91204 555 11022 22023 31118 42806 61149 239024 305021 289032 271031 286022 289022;
0213992760999992010011113004+42700-068300FM-18+0000DB276V0202801N002019999999N9999999N1-00091+99999999999ADDOA159900401SA1+0639REMSYN182BBXX  44005 11131 99432 70691 46/// /2802 11009 91250 22200 00063 10501 20401 3//// 40501 70006 333 91204 555 11022 22023 31159 42604 61249 270023 258022 241021 245024 246027 224022;
0213992760999992010011114004+42700-068300FM-18+0000DB276V0203001N002019999999N9999999N1-00061+99999999999ADDOA159900401SA1+0639REMSYN182BBXX  44005 11141 99432 70691 46/// /3002 11006 91350 22200 00063 10501 20301 3//// 40501 70006 333 91204 555 11015 22016 31259 42704 61349 296016 286010 284024 265019 275022 270021;
0213992760999992010011115004+42700-068300FM-18+0000DB276V0203301N001019999999N9999999N1+00091+99999999999ADDOA159900201SA1+0639REMSYN182BBXX  44005 11151 99432 70691 46/// /3301 10009 91450 22200 00063 10501 20401 3//// 40501 70006 333 91202 555 11011 22011 31409 42903 61449 335014 327013 213007 290018 269012 298008;
0213992760999992010011116004+42700-068300FM-18+0000DB276V0202301N001019999999N9999999N1-00041+99999999999ADDOA159900201SA1+0639REMSYN182BBXX  44005 11161 99432 70691 46/// /2301 11004 91550 22200 00063 10501 20401 3//// 40501 70007 333 91202 555 11006 22006 31506 42503 61549 213013 204011 250010 285008 277012 012008;
0213992760999992010011117004+42700-068300FM-18+0000DB276V0202301N001019999999N9999999N1+00121+99999999999ADDOA159900301SA1+0639REMSYN182BBXX  44005 11171 99432 70691 46/// /2301 10012 91650 22200 00063 10501 20401 3//// 40501 70007 333 91203 555 11012 22012 31635 42403 61649 235013 259015 264017 249016 235011 301010;
0213992760999992010011118004+42700-068300FM-18+0000DB276V0202501N002019999999N9999999N1+00071+99999999999ADDOA159900401SA1+0639REMSYN182BBXX  44005 11181 99432 70691 46/// /2502 10007 91750 22200 00063 10501 20401 3//// 40501 70006 333 91204 555 11020 22021 31710 42404 61749 249022 259026 235022 232021 232021 263021;
0213992760999992010011119004+42700-068300FM-18+0000DB276V0202601N004019999999N9999999N1+00161+99999999999ADDOA159900601SA1+0639REMSYN182BBXX  44005 11191 99432 70691 46/// /2604 10016 91850 22200 00063 10501 20301 3//// 40501 70007 333 91206 555 11043 22045 31832 42706 61849 258040 270043 267040 260028 266037 267033;
0213992760999992010011120004+42700-068300FM-18+0000DB276V0202701N005019999999N9999999N1+00131+99999999999ADDOA159900601SA1+0639REMSYN182BBXX  44005 11201 99432 70691 46/// /2705 10013 91950 22200 00063 10602 20401 3//// 40601 70008 333 91206 555 11048 22049 31934 42607 61949 269046 268049 261042 260048 259042 262044;
0213992760999992010011121004+42700-068300FM-18+0000DB276V0202901N005019999999N9999999N1+00101+99999999999ADDOA159900701SA1+0639REMSYN182BBXX  44005 11211 99432 70691 46/// /2905 10010 92050 22200 00063 10501 20501 3//// 40501 70007 333 91207 555 11054 22056 32033 42807 62049 290051 286049 278051 276042 275048 268040;
0213992760999992010011122004+42700-068300FM-18+0000DB276V0202801N006019999999N9999999N1+00011+99999999999ADDOA159900701SA1+0639REMSYN182BBXX  44005 11221 99432 70691 46/// /2806 10001 92150 22200 00063 10501 20501 3//// 40801 70007 333 91207 555 11057 22059 32133 42908 62149 281055 283060 278055 282054 283055 287049;
0201992760999992010011123004+42700-068300FM-18+0000DB276V0202901N006019999999N9999999N1+00061+99999999999ADDOA159900801SA1+0639REMSYN170BBXX  44005 11231 99432 70691 46/// /2906 10006 92250 22200 00063 10502 20502 70008 333 91208 555 11066 22068 32229 42809 62249 291063 290064 284062 284055 288053 282047;
0213992760999992010011200004+42700-068300FM-18+0000DB276V0202801N005019999999N9999999N1+00081+99999999999ADDOA159900701SA1+0639REMSYN182BBXX  44005 12001 99432 70691 46/// /2805 10008 92350 22200 00063 10502 20301 3//// 40501 70008 333 91207 555 11051 22052 32331 42808 62349 276047 281051 293051 290058 298056 295058;
0201992760999992010011201004+42700-068300FM-18+0000DB276V0202801N005019999999N9999999N1+00091+99999999999ADDOA159900601SA1+0639REMSYN170BBXX  44005 12011 99432 70691 46/// /2805 10009 90050 22200 00063 10501 20501 70007 333 91206 555 11054 22056 32356 42807 60049 283050 274051 283047 283047 280046 280051;
0201992760999992010011202004+42700-068300FM-18+0000DB276V0202801N006019999999N9999999N1+00161+99999999999ADDOA159900801SA1+0639REMSYN170BBXX  44005 12021 99432 70691 46/// /2806 10016 90150 22200 00063 10501 20501 70007 333 91208 555 11062 22064 30144 42808 60149 284057 292054 294048 296053 287056 294049;
0201992760999992010011203004+42700-068300FM-18+0000DB276V0203001N005019999999N9999999N1+00131+99999999999ADDOA159900701SA1+0639REMSYN170BBXX  44005 12031 99432 70691 46/// /3005 10013 90250 22200 00063 10502 20502 70008 333 91207 555 11054 22056 30214 42808 60249 303053 303060 299056 297061 296058 282057;
0201992760999992010011204004+42700-068300FM-18+0000DB276V0203001N007019999999N9999999N1+00121+99999999999ADDOA159900801SA1+0639REMSYN170BBXX  44005 12041 99432 70691 46/// /3007 10012 90350 22200 00063 10402 20402 70008 333 91208 555 11073 22076 30344 43108 60349 303069 305058 304059 308052 308052 305053;
0201992760999992010011205004+42700-068300FM-18+0000DB276V0203201N008019999999N9999999N1+00111+99999999999ADDOA159901001SA1+0639REMSYN170BBXX  44005 12051 99432 70691 46/// /3208 10011 90450 22200 00063 10402 20402 70009 333 91210 555 11085 22089 30444 43110 60449 317079 316073 317071 316065 308073 311066;
0201992760999992010011206004+42700-068300FM-18+0000DB276V0203201N009019999999N9999999N1+00071+99999999999ADDOA159901001SA1+0639REMSYN170BBXX  44005 12061 99432 70691 46/// /3209 10007 90550 22200 00063 10402 20402 70011 333 91210 555 11089 22093 30522 43312 60549 316086 319088 317089 316087 316085 311090;
0201992760999992010011207004+42700-068300FM-18+0000DB276V0203301N009019999999N9999999N1+00061+99999999999ADDOA159901101SA1+0639REMSYN170BBXX  44005 12071 99432 70691 46/// /3309 10006 90650 22200 00063 10502 20502 70012 333 91211 555 11093 22097 30649 43311 60649 332086 321084 320085 320078 320079 317082;
0201992760999992010011208004+42700-068300FM-18+0000DB276V0203201N008019999999N9999999N1+00031+99999999999ADDOA159901001SA1+0639REMSYN170BBXX  44005 12081 99432 70691 46/// /3208 10003 90750 22200 00063 10503 20503 70013 333 91210 555 11085 22089 30732 43312 60749 322081 322086 319087 321086 318086 321091;
0201992760999992010011209004+42700-068300FM-18+0000DB276V0203301N008019999999N9999999N1+00011+99999999999ADDOA159901101SA1+0639REMSYN170BBXX  44005 12091 99432 70691 46/// /3308 10001 90850 22200 00063 10503 20503 70013 333 91211 555 11085 22089 30849 43311 60849 325080 323078 325081 323077 323081 321084;
0201992760999992010011210004+42700-068300FM-18+0000DB276V0203201N007019999999N9999999N1+00001+99999999999ADDOA159900901SA1+0639REMSYN170BBXX  44005 12101 99432 70691 46/// /3207 10000 90950 22200 00063 10503 20503 70013 333 91209 555 11078 22081 30916 43210 60949 322074 323077 325081 319082 322073 322076;
0193992760999992010011211004+42700-068300FM-18+0000DB276V0203201N007019999999N9999999N1+00011+99999999999ADDOA159900901REMSYN170BBXX  44005 12111 99432 70691 46/// /3207 10001 91050 22200 00060 10502 20502 70012 333 91209 555 11077 22080 30954 43210 61049 319074 319074 329072 323076 325071 325073;
0193992760999992010011212004+42700-068300FM-18+0000DB276V0203201N007019999999N9999999N1+00011+99999999999ADDOA159900901REMSYN170BBXX  44005 12121 99432 70691 46/// /3207 10001 91150 22200 00060 10503 20503 70014 333 91209 555 11078 22081 31132 43210 61149 323074 322070 326070 320070 319073 321072;
0201992760999992010011213004+42700-068300FM-18+0000DB276V0203301N008019999999N9999999N1+00011+99999999999ADDOA159901001SA1+0629REMSYN170BBXX  44005 12131 99432 70691 46/// /3308 10001 91250 22200 00062 10502 20502 70012 333 91210 555 11081 22084 31152 43210 61249 325077 321070 324073 325073 322074 329076;
0201992760999992010011214004+42700-068300FM-18+0000DB276V0203301N007019999999N9999999N1-00031+99999999999ADDOA159900901SA1+0629REMSYN170BBXX  44005 12141 99432 70691 46/// /3307 11003 91350 22200 00062 10503 20503 70013 333 91209 555 11078 22081 31321 43210 61349 323073 325070 326075 327074 319074 323077;
0201992760999992010011215004+42700-068300FM-18+0000DB276V0203301N008019999999N9999999N1-00101+99999999999ADDOA159901001SA1+0599REMSYN170BBXX  44005 12151 99432 70691 46/// /3308 11010 91450 22200 00059 10502 20502 70012 333 91210 555 11085 22088 31433 43410 61449 331082 335084 339084 345081 341071 326067;
0201992760999992010011216004+42700-068300FM-18+0000DB276V0203501N006019999999N9999999N1-00191+99999999999ADDOA159900801SA1+0599REMSYN170BBXX  44005 12161 99432 70691 46/// /3506 11019 91550 22200 00059 10502 20502 70012 333 91208 555 11067 22069 31500 43510 61549 354063 345062 342056 330061 337072 335076;
0201992760999992010011217004+42700-068300FM-18+0000DB276V0203301N007019999999N9999999N1-00211+99999999999ADDOA159901001SA1+0599REMSYN170BBXX  44005 12171 99432 70691 46/// /3307 11021 91650 22200 00059 10502 20502 70011 333 91210 555 11075 22078 31645 43310 61649 335071 335071 341065 347072 345067 355060;
0201992760999992010011218004+42700-068300FM-18+0000DB276V0203301N009019999999N9999999N1-00211+99999999999ADDOA159901101SA1+0599REMSYN170BBXX  44005 12181 99432 70691 46/// /3309 11021 91750 22200 00059 10502 20502 70011 333 91211 555 11090 22094 31742 43211 61749 332084 328081 330079 333076 344077 335081;
0201992760999992010011219004+42700-068300FM-18+0000DB276V0203301N007019999999N9999999N1-00231+99999999999ADDOA159900901SA1+0599REMSYN170BBXX  44005 12191 99432 70691 46/// /3307 11023 91850 22200 00059 10502 20502 70011 333 91209 555 11074 22077 31809 43412 61849 326074 318075 325082 321082 330079 323085;
0201992760999992010011220004+42700-068300FM-18+0000DB276V0203201N007019999999N9999999N1-00191+99999999999ADDOA159901001SA1+0599REMSYN170BBXX  44005 12201 99432 70691 46/// /3207 11019 91950 22200 00059 10502 20502 70012 333 91210 555 11076 22079 31916 43111 61949 319073 318083 320077 315081 318078 316079;
0201992760999992010011221004+42700-068300FM-18+0000DB276V0203401N009019999999N9999999N1-00251+99999999999ADDOA159901101SA1+0599REMSYN170BBXX  44005 12211 99432 70691 46/// /3409 11025 92050 22200 00059 10503 20503 70013 333 91211 555 11092 22096 32040 43312 62049 340089 331087 323084 319078 322081 325078;
0201992760999992010011222004+42700-068300FM-18+0000DB276V0203401N010019999999N9999999N1-00311+99999999999ADDOA159901301SA1+0599REMSYN170BBXX  44005 12221 99432 70691 46/// /3410 11031 92150 22200 00059 10503 20503 70015 333 91213 555 11107 22112 32112 43313 62149 336101 334099 337098 336100 332097 333095;
0201992760999992010011223004+42700-068300FM-18+0000DB276V0203301N011019999999N9999999N1-00391+99999999999ADDOA159901501SA1+0599REMSYN170BBXX  44005 12231 99432 70691 46/// /3311 11039 92250 22200 00059 10503 20503 70017 333 91215 555 11117 22122 32213 43316 62249 333109 332106 328114 335121 335108 331109;
0201992760999992010011300004+42700-068300FM-18+0000DB276V0203401N011019999999N9999999N1-00471+99999999999ADDOA159901401SA1+0599REMSYN170BBXX  44005 13001 99432 70691 46/// /3411 11047 92350 22200 00059 10604 20604 70018 333 91214 555 11113 22118 32326 43514 62349 341104 343110 344116 338114 327111 334112;
0201992760999992010011301004+42700-068300FM-18+0000DB276V0203501N011019999999N9999999N1-00531+99999999999ADDOA159901301SA1+0599REMSYN170BBXX  44005 13011 99432 70691 46/// /3511 11053 90050 22200 00059 10604 20604 70019 333 91213 555 11115 22120 30020 43414 60049 346108 343107 339109 338110 345103 343107;
0201992760999992010011302004+42700-068300FM-18+0000DB276V0203301N011019999999N9999999N1-00591+99999999999ADDOA159901401SA1+0599REMSYN170BBXX  44005 13021 99432 70691 46/// /3311 11059 90150 22200 00059 10604 20604 70018 333 91214 555 11114 22119 30116 43315 60149 335109 341109 337114 333113 334113 340108;
0201992760999992010011303004+42700-068300FM-18+0000DB276V0203501N011019999999N9999999N1-00611+99999999999ADDOA159901301SA1+0619REMSYN170BBXX  44005 13031 99432 70691 46/// /3511 11061 90250 22200 00061 10604 20604 70022 333 91213 555 11116 22121 30237 43415 60249 343110 340108 342114 342105 341112 335110;
0201992760999992010011304004+42700-068300FM-18+0000DB276V0203401N011019999999N9999999N1-00611+99999999999ADDOA159901301SA1+0629REMSYN170BBXX  44005 13041 99432 70691 46/// /3411 11061 90350 22200 00062 10605 20605 70023 333 91213 555 11110 22115 30253 43514 60349 341105 346100 349109 353109 353111 348109;
0193992760999992010011305004+42700-068300FM-18+0000DB276V0203401N011019999999N9999999N1-00621+99999999999ADDOA159901401REMSYN170BBXX  44005 13051 99432 70691 46/// /3411 11062 90450 22200 00060 10605 20605 70023 333 91214 555 11111 22116 30449 43514 60449 341105 339106 342108 344103 343099 338102;
0201992760999992010011306004+42700-068300FM-18+0000DB276V0203301N010019999999N9999999N1-00651+99999999999ADDOA159901301SA1+0599REMSYN170BBXX  44005 13061 99432 70691 46/// /3310 11065 90550 22200 00059 10604 20604 70020 333 91213 555 11105 22109 30516 43315 60549 327100 325101 332101 333110 340109 341108;
0193992760999992010011307004+42700-068300FM-18+0000DB276V0203301N010019999999N9999999N1-00631+99999999999ADDOA159901201REMSYN170BBXX  44005 13071 99432 70691 46/// /3310 11063 90650 22200 00060 10604 20604 70020 333 91212 555 11101 22105 30559 43513 60649 330097 330098 330102 332098 334102 331102;
0201992760999992010011308004+42700-068300FM-18+0000DB276V0203301N009019999999N9999999N1-00631+99999999999ADDOA159901101SA1+0629REMSYN170BBXX  44005 13081 99432 70691 46/// /3309 11063 90750 22200 00062 10504 20504 70019 333 91211 555 11096 22100 30653 43314 60749 329094 329096 329095 324097 325100 325099;
0201992760999992010011309004+42700-068300FM-18+0000DB276V0203201N009019999999N9999999N1-00631+99999999999ADDOA159901201SA1+0619REMSYN170BBXX  44005 13091 99432 70691 46/// /3209 11063 90850 22200 00061 10604 20604 70018 333 91212 555 11093 22097 30818 43314 60849 324089 327092 329090 332093 329090 327092;
0201992760999992010011310004+42700-068300FM-18+0000DB276V0203301N009019999999N9999999N1-00641+99999999999ADDOA159901201SA1+0599REMSYN170BBXX  44005 13101 99432 70691 46/// /3309 11064 90950 22200 00059 10604 20604 70018 333 91212 555 11095 22099 30916 43213 60949 323090 321092 318090 316095 324089 326091;
0201992760999992010011311004+42700-068300FM-18+0000DB276V0203201N009019999999N9999999N1-00641+99999999999ADDOA159901101SA1+0599REMSYN170BBXX  44005 13111 99432 70691 46/// /3209 11064 91050 22200 00059 10603 20603 70017 333 91211 555 11091 22095 30958 43311 61049 322088 325086 313089 325083 325085 322086;
0201992760999992010011312004+42700-068300FM-18+0000DB276V0203301N010019999999N9999999N1-00581+99999999999ADDOA159901301SA1+0599REMSYN170BBXX  44005 13121 99432 70691 46/// /3310 11058 91150 22200 00059 10503 20503 70016 333 91213 555 11103 22107 31143 43113 61149 329097 329094 330090 326091 325095 324093;
0201992760999992010011313004+42700-068300FM-18+0000DB276V0203301N010019999999N9999999N1-00531+99999999999ADDOA159901301SA1+0599REMSYN170BBXX  44005 13131 99432 70691 46/// /3310 11053 91250 22200 00059 10603 20603 70017 333 91213 555 11105 22109 31234 43213 61249 332100 330097 335093 333098 327096 324098;
0201992760999992010011314004+42700-068300FM-18+0000DB276V0203401N009019999999N9999999N1-00391+99999999999ADDOA159901201SA1+0599REMSYN170BBXX  44005 13141 99432 70691 46/// /3409 11039 91350 22200 00059 10503 20503 70016 333 91212 555 11097 22101 31337 43414 61349 337093 337099 340099 342096 336098 335098;
0201992760999992010011315004+42700-068300FM-18+0000DB276V0203401N009019999999N9999999N1-00361+99999999999ADDOA159901201SA1+0599REMSYN170BBXX  44005 13151 99432 70691 46/// /3409 11036 91450 22200 00059 10503 20503 70015 333 91212 555 11091 22095 31405 43213 61449 338086 333088 335092 337094 338091 332089;
0201992760999992010011316004+42700-068300FM-18+0000DB276V0203301N009019999999N9999999N1-00341+99999999999ADDOA159901201SA1+0599REMSYN170BBXX  44005 13161 99432 70691 46/// /3309 11034 91550 22200 00059 10503 20503 70015 333 91212 555 11090 22094 31548 43212 61549 327085 331087 334083 329081 333083 332091;
0201992760999992010011317004+42700-068300FM-18+0000DB276V0203301N008019999999N9999999N1-00311+99999999999ADDOA159901001SA1+0599REMSYN170BBXX  44005 13171 99432 70691 46/// /3308 11031 91650 22200 00059 10503 20503 70014 333 91210 555 11086 22089 31559 43213 61649 329083 324083 329083 329086 328086 326088;
0201992760999992010011318004+42700-068300FM-18+0000DB276V0203301N009019999999N9999999N1-00291+99999999999ADDOA159901201SA1+0599REMSYN170BBXX  44005 13181 99432 70691 46/// /3309 11029 91750 22200 00059 10503 20503 70014 333 91212 555 11099 22103 31727 43012 61749 328093 323094 325089 329083 331084 329084;
0201992760999992010011319004+42700-068300FM-18+0000DB276V0203201N010019999999N9999999N1-00301+99999999999ADDOA159901201SA1+0599REMSYN170BBXX  44005 13191 99432 70691 46/// /3210 11030 91850 22200 00059 10503 20503 70013 333 91212 555 11102 22106 31843 43112 61849 317096 312089 316084 322085 318087 318083;
0201992760999992010011320004+42700-068300FM-18+0000DB276V0203101N009019999999N9999999N1-00121+99999999999ADDOA159901201SA1+0599REMSYN170BBXX  44005 13201 99432 70691 46/// /3109 11012 91950 22200 00059 10403 20403 70014 333 91212 555 11098 22102 31913 43413 61949 311093 310090 321088 322089 322093 317092;
0193992760999992010011321004+42700-068300FM-18+0000DB276V0203101N010019999999N9999999N1-00081+99999999999ADDOA159901201REMSYN170BBXX  44005 13211 99432 70691 46/// /3110 11008 92050 22200 00060 10403 20403 70013 333 91212 555 11108 22113 32038 42913 62049 307101 306095 308091 309092 311089 310089;
0193992760999992010011322004+42700-068300FM-18+0000DB276V0203101N009019999999N9999999N1-00111+99999999999ADDOA159901201REMSYN170BBXX  44005 13221 99432 70691 46/// /3109 11011 92150 22200 00060 10503 20503 70014 333 91212 555 11099 22103 32058 43113 62149 312094 306093 307097 305101 302101 304102;
0193992760999992010011323004+42700-068300FM-18+0000DB276V0203101N009019999999N9999999N1-00091+99999999999ADDOA159901201REMSYN170BBXX  44005 13231 99432 70691 46/// /3109 11009 92250 22200 00060 10503 20503 70013 333 91212 555 11098 22102 32243 43112 62249 310092 311090 313096 307092 312095 310090;
0193992760999992010011400004+42700-068300FM-18+0000DB276V0203201N009019999999N9999999N1-00111+99999999999ADDOA159901101REMSYN170BBXX  44005 14001 99432 70691 46/// /3209 11011 92350 22200 00060 10503 20503 70014 333 91211 555 11090 22094 32258 43213 62349 320087 317086 321088 311087 312091 316092;
0201992760999992010011401004+42700-068300FM-18+0000DB276V0203201N008019999999N9999999N1-00161+99999999999ADDOA159901101SA1+0599REMSYN170BBXX  44005 14011 99432 70691 46/// /3208 11016 90050 22200 00059 10503 20503 70013 333 91211 555 11082 22085 30001 43211 60049 324080 327082 325083 321080 318089 322089;
0201992760999992010011402004+42700-068300FM-18+0000DB276V0203401N008019999999N9999999N1-00181+99999999999ADDOA159901001SA1+0599REMSYN170BBXX  44005 14021 99432 70691 46/// /3408 11018 90150 22200 00059 10503 20503 70013 333 91210 555 11083 22086 30059 43311 60149 336080 334076 335084 327080 328083 325084;
0201992760999992010011403004+42700-068300FM-18+0000DB276V0203501N008019999999N9999999N1-00221+99999999999ADDOA159901001SA1+0599REMSYN170BBXX  44005 14031 99432 70691 46/// /3508 11022 90250 22200 00059 10502 20502 70012 333 91210 555 11085 22088 30238 43611 60249 348080 354084 343078 341080 339081 332080;
0201992760999992010011404004+42700-068300FM-18+0000DB276V0203601N008019999999N9999999N1-00271+99999999999ADDOA159901101SA1+0599REMSYN170BBXX  44005 14041 99432 70691 46/// /3608 11027 90350 22200 00059 10503 20503 70013 333 91211 555 11082 22085 30301 43411 60349 000078 358076 358076 355081 357083 354082;
0201992760999992010011405004+42700-068300FM-18+0000DB276V0203601N007019999999N9999999N1-00321+99999999999ADDOA159900901SA1+0599REMSYN170BBXX  44005 14051 99432 70691 46/// /3607 11032 90450 22200 00059 10502 20502 70012 333 91209 555 11076 22079 30409 43610 60449 355073 358076 358077 356073 000076 358079;
0201992760999992010011406004+42700-068300FM-18+0000DB276V0203501N006019999999N9999999N1-00321+99999999999ADDOA159900701SA1+0599REMSYN170BBXX  44005 14061 99432 70691 46/// /3506 11032 90550 22200 00059 10502 20502 70011 333 91207 555 11060 22062 30526 43508 60549 348057 007055 003056 358058 006062 354066;
0205992760999992010011407004+42700-068300FM-18+0000DB276V0203601N005019999999N9999999N1-00321+99999999999ADDOA159900601REMSYN182BBXX  44005 14071 99432 70691 46/// /3605 11032 90650 22200 00060 10502 20401 3//// 40502 70011 333 91206 555 11046 22048 30605 40209 60649 002044 000045 014047 013058 014064 018064;
0213992760999992010011408004+42700-068300FM-18+0000DB276V0200101N005019999999N9999999N1-00331+99999999999ADDOA159900601SA1+0599REMSYN182BBXX  44005 14081 99432 70691 46/// /0105 11033 90750 22200 00059 10502 20401 3//// 40502 70010 333 91206 555 11048 22049 30725 40107 60749 007045 004046 004047 005042 000046 006044;
0213992760999992010011409004+42700-068300FM-18+0000DB276V0203601N005019999999N9999999N1-00341+99999999999ADDOA159900701SA1+0599REMSYN182BBXX  44005 14091 99432 70691 46/// /3605 11034 90850 22200 00059 10502 20301 3//// 40501 70009 333 91207 555 11051 22052 30834 40207 60849 003049 004048 004049 007049 010046 006043;
0213992760999992010011410004+42700-068300FM-18+0000DB276V0200101N005019999999N9999999N1-00341+99999999999ADDOA159900701SA1+0599REMSYN182BBXX  44005 14101 99432 70691 46/// /0105 11034 90950 22200 00059 10502 20502 3//// 40701 70009 333 91207 555 11055 22057 30930 43508 60949 008053 358053 006053 011047 007047 000049;
0213992760999992010011411004+42700-068300FM-18+0000DB276V0200101N005019999999N9999999N1-00361+99999999999ADDOA159900701SA1+0599REMSYN182BBXX  44005 14111 99432 70691 46/// /0105 11036 91050 22200 00059 10502 20402 3//// 40501 70010 333 91207 555 11054 22055 31030 40107 61049 007053 011053 008052 018053 013054 010056;
0213992760999992010011412004+42700-068300FM-18+0000DB276V0200201N005019999999N9999999N1-00361+99999999999ADDOA159900601SA1+0599REMSYN182BBXX  44005 14121 99432 70691 46/// /0205 11036 91150 22200 00059 10502 20401 3//// 40501 70009 333 91206 555 11046 22048 31104 40107 61149 019046 013045 007043 010047 012048 012048;
0213992760999992010011413004+42700-068300FM-18+0000DB276V0200101N004019999999N9999999N1-00191+99999999999ADDOA159900601SA1+0599REMSYN182BBXX  44005 14131 99432 70691 46/// /0104 11019 91250 22200 00059 10502 20301 3//// 40501 70009 333 91206 555 11042 22043 31215 40107 61249 016041 010041 010044 016045 023046 007044;
0213992760999992010011414004+42700-068300FM-18+0000DB276V0200101N004019999999N9999999N1-00061+99999999999ADDOA159900501SA1+0599REMSYN182BBXX  44005 14141 99432 70691 46/// /0104 11006 91350 22200 00059 10502 20301 3//// 40502 70009 333 91205 555 11036 22037 31254 40106 61349 010035 017036 007033 019038 013040 011040;
0213992760999992010011415004+42700-068300FM-18+0000DB276V0200101N003019999999N9999999N1-00061+99999999999ADDOA159900501SA1+0599REMSYN182BBXX  44005 14151 99432 70691 46/// /0103 11006 91450 22200 00059 10502 20401 3//// 40502 70009 333 91205 555 11030 22030 31400 40105 61449 014028 011026 011029 003031 004033 011031;
