0245992780999992010010100004+43533-070083FM-18+0000DB278V0200201N003019999999N9999999N1-00121-00181101991ADDMD1810131+9999OA159900501SA1+0479REMSYN200BBXX  44007 01001 99435 70701 46/// /0203 11012 21018 40199 58013 92350 22200 00047 10501 20401 318// 40501 70007 333 91205 555 11033 22034 32306 43505 62349 016032 020033 008038 005035 357035 348036;
0245992780999992010010101004+43533-070083FM-18+0000DB278V0203601N005019999999N9999999N1-00061-00141101921ADDMD1810151+9999OA159900501SA1+0489REMSYN200BBXX  44007 01011 99435 70701 46/// /3605 11006 21014 40192 58015 90050 22200 00048 10401 20401 317// 40401 70006 333 91205 555 11048 22049 30039 43606 60049 003046 359041 009037 020032 025025 022027;
0245992780999992010010102004+43533-070083FM-18+0000DB278V0203601N005019999999N9999999N1-00041-00121101871ADDMD1610211+9999OA159900601SA1+0489REMSYN200BBXX  44007 01021 99435 70701 46/// /3605 11004 21012 40187 56021 90150 22200 00048 10401 20401 318// 40401 70006 333 91206 555 11047 22048 30107 43607 60149 354046 004048 007053 006055 003056 010048;
0237992780999992010010103004+43533-070083FM-18+0000DB278V0203501N006019999999N9999999N1-00071-00121101771ADDMD1810221+9999OA159900701REMSYN200BBXX  44007 01031 99435 70701 46/// /3506 11007 21012 40177 58022 90250 22200 00050 10401 20401 304// 41401 70005 333 91207 555 11064 22066 30241 43607 60249 352061 353057 350057 352058 351059 350055;
0245992780999992010010104004+43533-070083FM-18+0000DB278V0203601N007019999999N9999999N1-00081-00121101651ADDMD1810271+9999OA159900801SA1+0519REMSYN200BBXX  44007 01041 99435 70701 46/// /3607 11008 21012 40165 58027 90350 22200 00051 11401 20401 301// 41401 70006 333 91208 555 11068 22070 30339 43608 60349 356065 358066 358064 353065 352063 348064;
0245992780999992010010105004+43533-070083FM-18+0000DB278V0203501N007019999999N9999999N1-00111-00151101591ADDMD1610281+9999OA159900801SA1+0539REMSYN200BBXX  44007 01051 99435 70701 46/// /3507 11011 21015 40159 56028 90450 22200 00053 11401 20401 333// 41401 70005 333 91208 555 11068 22070 30423 43508 60449 346065 350063 351067 346068 349067 353064;
0245992780999992010010106004+43533-070083FM-18+0000DB278V0203501N007019999999N9999999N1-00141-00191101471ADDMD1710301+9999OA159900901SA1+0559REMSYN200BBXX  44007 01061 99435 70701 46/// /3507 11014 21019 40147 57030 90550 22200 00055 11201 20401 309// 41201 70006 333 91209 555 11075 22078 30542 43509 60549 350072 348071 350067 354066 351065 349063;
0245992780999992010010107004+43533-070083FM-18+0000DB278V0203501N008019999999N9999999N1-00161-00211101481ADDMD1610171+9999OA159900901SA1+0559REMSYN200BBXX  44007 01071 99435 70701 46/// /3508 11016 21021 40148 56017 90650 22200 00055 11101 20501 312// 41101 70005 333 91209 555 11080 22083 30550 43509 60649 348076 346070 340070 341069 344068 350069;
0245992780999992010010108004+43533-070083FM-18+0000DB278V0203401N008019999999N9999999N1-00171-00191101431ADDMD1610161+9999OA159900901SA1+0559REMSYN200BBXX  44007 01081 99435 70701 46/// /3408 11017 21019 40143 56016 90750 22200 00055 11301 20501 306// 41301 70006 333 91209 555 11081 22084 30715 43409 60749 336077 340073 342077 343080 344082 348078;
0245992780999992010010109004+43533-070083FM-18+0000DB278V0203301N007019999999N9999999N1-00161-00171101351ADDMD1810121+9999OA159900901SA1+0559REMSYN200BBXX  44007 01091 99435 70701 46/// /3307 11016 21017 40135 58012 90850 22200 00055 11501 20501 305// 41501 70006 333 91209 555 11076 22079 30805 43309 60849 332074 329074 333077 335074 333079 338076;
0245992780999992010010110004+43533-070083FM-18+0000DB278V0203301N007019999999N9999999N1-00181-00221101331ADDMD1610151+9999OA159900801SA1+0559REMSYN200BBXX  44007 01101 99435 70701 46/// /3307 11018 21022 40133 56015 90950 22200 00055 11301 20501 313// 41301 70006 333 91208 555 11070 22072 30901 43209 60949 331068 329068 329070 325069 329069 326072;
0245992780999992010010111004+43533-070083FM-18+0000DB278V0203301N007019999999N9999999N1-00141-00191101291ADDMD1610141+9999OA159900801SA1+0559REMSYN200BBXX  44007 01111 99435 70701 46/// /3307 11014 21019 40129 56014 91050 22200 00055 10501 20501 328// 41501 70007 333 91208 555 11071 22074 31006 43308 61049 331068 333067 333066 333069 331070 332070;
0245992780999992010010112004+43533-070083FM-18+0000DB278V0203201N006019999999N9999999N1-00111-00171101281ADDMD1710071+9999OA159900701SA1+0569REMSYN200BBXX  44007 01121 99435 70701 46/// /3206 11011 21017 40128 57007 91150 22200 00056 10502 20501 333// 41301 70008 333 91207 555 11061 22064 31107 43207 61149 320058 328057 329056 329057 323058 322063;
0245992780999992010010113004+43533-070083FM-18+0000DB278V0203401N006019999999N9999999N1-00111-00171101231ADDMD1810101+9999OA159900801SA1+0579REMSYN200BBXX  44007 01131 99435 70701 46/// /3406 11011 21017 40123 58010 91250 22200 00057 10602 20601 311// 40601 70009 333 91208 555 11066 22068 31237 43308 61249 338063 333063 332057 324058 321053 314054;
0245992780999992010010114004+43533-070083FM-18+0000DB278V0203201N005019999999N9999999N1-00071-00131101231ADDMD1710061+9999OA159900701SA1+0579REMSYN200BBXX  44007 01141 99435 70701 46/// /3205 11007 21013 40123 57006 91350 22200 00057 10702 20501 309// 40702 70011 333 91207 555 11056 22058 31257 43408 61349 325054 326052 339058 343060 343065 342064;
0245992780999992010010115004+43533-070083FM-18+0000DB278V0203401N006019999999N9999999N1-00021-00061101171ADDMD1810111+9999OA159900701SA1+0589REMSYN200BBXX  44007 01151 99435 70701 46/// /3406 11002 21006 40117 58011 91450 22200 00058 10703 20501 310// 40702 70014 333 91207 555 11065 22067 31448 43407 61449 337062 338060 335054 331056 324053 323053;
0245992780999992010010116004+43533-070083FM-18+0000DB278V0200801N010019999999N9999999N1+00371+00331101021ADDMD1810211+9999OA159901201SA1+0599REMSYN200BBXX  44007 01161 99435 70701 46/// /0810 10037 20033 40102 58021 91550 22200 00059 10703 20703 311// 41401 70015 333 91212 555 11105 22111 31530 40712 61549 075100 077096 080075 034044 337064 336066;
0237992780999992010010117004+43533-070083FM-18+0000DB278V0200801N009019999999N9999999N1+00331+00281100941ADDMD1810291+9999OA159901101REMSYN200BBXX  44007 01171 99435 70701 46/// /0809 10033 20028 40094 58029 91650 22200 00060 10804 20804 309// 41201 70019 333 91211 555 11099 22104 31617 40612 61649 080095 076096 074098 067101 070099 072098;
0245992780999992010010118004+43533-070083FM-18+0000DB278V0200701N010019999999N9999999N1+00301+00271100931ADDMD1610241+9999OA159901101SA1+0629REMSYN200BBXX  44007 01181 99435 70701 46/// /0710 10030 20027 40093 56024 91750 22200 00062 10804 20804 311// 41201 70022 333 91211 555 11102 22107 31702 40812 61749 067096 070096 070095 071098 072097 077092;
0245992780999992010010119004+43533-070083FM-18+0000DB278V0200601N010019999999N9999999N1+00281+00251100861ADDMD1610161+9999OA159901201SA1+0639REMSYN200BBXX  44007 01191 99435 70701 46/// /0610 10028 20025 40086 56016 91850 22200 00063 10804 20703 309// 40803 70022 333 91212 555 11109 22115 31840 40613 61849 061104 060108 055102 061099 068096 070095;
0245992780999992010010120004+43533-070083FM-18+0000DB278V0200401N009019999999N9999999N1+00141+00131100951ADDMD1510001+9999OA159901101SA1+0659REMSYN200BBXX  44007 01201 99435 70701 46/// /0409 10014 20013 40095 55000 91950 22200 00065 10804 20703 309// 40802 70020 333 91211 555 11097 22101 31852 40613 61949 036090 037088 036087 036088 035090 042091;
0245992780999992010010121004+43533-070083FM-18+0000DB278V0200301N010019999999N9999999N1+00101+00091100951ADDMD1510001+9999OA159901101SA1+0659REMSYN200BBXX  44007 01211 99435 70701 46/// /0310 10010 20009 40095 55000 92050 22200 00065 10804 20703 309// 40802 70019 333 91211 555 11100 22105 32009 40311 62049 030094 028090 027087 032092 034095 034083;
0245992780999992010010122004+43533-070083FM-18+0000DB278V0200301N009019999999N9999999N1+00071+00061100961ADDMD1110101+9999OA159901001SA1+0649REMSYN200BBXX  44007 01221 99435 70701 46/// /0309 10007 20006 40096 51010 92150 22200 00064 10804 20603 308// 40803 70021 333 91210 555 11092 22096 32113 40311 62149 025087 028088 025088 031090 030091 029091;
0245992780999992010010123004+43533-070083FM-18+0000DB278V0200201N009019999999N9999999N1+00021-00011100941ADDMD1410001+9999OA159901101SA1+0629REMSYN200BBXX  44007 01231 99435 70701 46/// /0209 10002 21001 40094 54000 92250 22200 00062 10804 20703 308// 40803 70021 333 91211 555 11098 22102 32220 40211 62249 020093 025091 023093 023094 025089 025090;
0245992780999992010010200004+43533-070083FM-18+0000DB278V0200201N010019999999N9999999N1-00081-00091100921ADDMD1710031+9999OA159901201SA1+0629REMSYN200BBXX  44007 02001 99435 70701 46/// /0210 11008 21009 40092 57003 92350 22200 00062 10805 20804 309// 40903 70023 333 91212 555 11107 22111 32336 40112 62349 021101 016104 016105 017100 015095 016095;
0245992780999992010010201004+43533-070083FM-18+0000DB278V0200201N011019999999N9999999N1-00121-00161100821ADDMD1810141+9999OA159901201SA1+0629REMSYN200BBXX  44007 02011 99435 70701 46/// /0211 11012 21016 40082 58014 90050 22200 00062 10804 20503 308// 40803 70021 333 91212 555 11111 22116 30010 40213 60049 019105 021106 022103 023104 019105 022098;
0245992780999992010010202004+43533-070083FM-18+0000DB278V0200201N011019999999N9999999N1-00161-00231100741ADDMD1810201+9999OA159901301SA1+0619REMSYN200BBXX  44007 02021 99435 70701 46/// /0211 11016 21023 40074 58020 90150 22200 00061 10904 20603 310// 40903 70021 333 91213 555 11113 22118 30123 40213 60149 022107 019105 021105 022108 022106 021103;
0237992780999992010010203004+43533-070083FM-18+0000DB278V0200201N011019999999N9999999N1-00191-00271100661ADDMD1610261+9999OA159901201REMSYN200BBXX  44007 02031 99435 70701 46/// /0211 11019 21027 40066 56026 90250 22200 00060 10804 20703 311// 40803 70021 333 91212 555 11111 22116 30214 40213 60249 022104 024105 023105 023108 022109 023107;
0237992780999992010010204004+43533-070083FM-18+0000DB278V0200201N010019999999N9999999N1-00231-00301100631ADDMD1610191+9999OA159901301REMSYN200BBXX  44007 02041 99435 70701 46/// /0210 11023 21030 40063 56019 90350 22200 00060 10804 20602 310// 40804 70022 333 91213 555 11107 22112 30322 40213 60349 020102 022105 020104 019105 023101 023101;
0237992780999992010010205004+43533-070083FM-18+0000DB278V0200201N011019999999N9999999N1-00271-00361100531ADDMD1810211+9999OA159901301REMSYN200BBXX  44007 02051 99435 70701 46/// /0211 11027 21036 40053 58021 90450 22200 00060 10804 20603 310// 40803 70021 333 91213 555 11111 22116 30449 40213 60449 024105 025102 024103 023104 020105 021105;
0237992780999992010010206004+43533-070083FM-18+0000DB278V0200201N011019999999N9999999N1-00301-00401100431ADDMD1810231+9999OA159901301REMSYN200BBXX  44007 02061 99435 70701 46/// /0211 11030 21040 40043 58023 90550 22200 00060 10905 20603 310// 40904 70024 333 91213 555 11116 22121 30505 40113 60549 019110 020106 019105 022107 019109 020111;
0237992780999992010010207004+43533-070083FM-18+0000DB278V0200201N011019999999N9999999N1-00291-00381100431ADDMD1610201+9999OA159901301REMSYN200BBXX  44007 02071 99435 70701 46/// /0211 11029 21038 40043 56020 90650 22200 00060 10905 20503 310// 40904 70024 333 91213 555 11116 22121 30620 40114 60649 016110 019108 019110 017108 018110 019110;
0245992780999992010010208004+43533-070083FM-18+0000DB278V0200201N011019999999N9999999N1-00291-00351100421ADDMD1610111+9999OA159901301SA1+0599REMSYN200BBXX  44007 02081 99435 70701 46/// /0211 11029 21035 40042 56011 90750 22200 00059 10905 20602 309// 40904 70025 333 91213 555 11116 22121 30651 40214 60749 018110 018112 018109 017111 016112 018114;
0245992780999992010010209004+43533-070083FM-18+0000DB278V0200201N011019999999N9999999N1-00291-00381100351ADDMD1810081+9999OA159901401SA1+0599REMSYN200BBXX  44007 02091 99435 70701 46/// /0211 11029 21038 40035 58008 90850 22200 00059 11005 20402 307// 41004 70024 333 91214 555 11118 22124 30818 40214 60849 018111 015112 014113 014115 016112 015110;
0245992780999992010010210004+43533-070083FM-18+0000DB278V0200101N011019999999N9999999N1-00291-00401100261ADDMD1810171+9999OA159901401SA1+0579REMSYN200BBXX  44007 02101 99435 70701 46/// /0111 11029 21040 40026 58017 90950 22200 00057 10905 20703 309// 40904 70025 333 91214 555 11120 22126 30948 40114 60949 012113 015114 015117 014119 014112 016115;
0245992780999992010010211004+43533-070083FM-18+0000DB278V0200101N011019999999N9999999N1-00281-00391100221ADDMD1610201+9999OA159901301SA1+0579REMSYN200BBXX  44007 02111 99435 70701 46/// /0111 11028 21039 40022 56020 91050 22200 00057 11005 20403 309// 41004 70026 333 91213 555 11114 22119 31016 43614 61049 011109 010117 008116 009113 009113 010115;
0245992780999992010010212004+43533-070083FM-18+0000DB278V0200101N011019999999N9999999N1-00321-00421100161ADDMD1610191+9999OA159901301SA1+0579REMSYN200BBXX  44007 02121 99435 70701 46/// /0111 11032 21042 40016 56019 91150 22200 00057 10905 20603 309// 40904 70024 333 91213 555 11115 22120 31148 40113 61149 006109 005108 008108 010109 008110 009110;
0245992780999992010010213004+43533-070083FM-18+0000DB278V0200101N013019999999N9999999N1-00351-00421100071ADDMD1810191+9999OA159901601SA1+0579REMSYN200BBXX  44007 02131 99435 70701 46/// /0113 11035 21042 40007 58019 91250 22200 00057 10905 20603 310// 40904 70025 333 91216 555 11134 22141 31249 43616 61249 007127 006118 006122 004115 005113 005118;
0245992780999992010010214004+43533-070083FM-18+0000DB278V0200101N012019999999N9999999N1-00341-00411100011ADDMD1710211+9999OA159901501SA1+0579REMSYN200BBXX  44007 02141 99435 70701 46/// /0112 11034 21041 40001 57021 91350 22200 00057 11005 20703 310// 41004 70026 333 91215 555 11130 22136 31349 40115 61349 006124 007123 006121 003119 005121 008121;
0245992780999992010010215004+43533-070083FM-18+0000DB278V0200101N012019999999N9999999N1-00351-00441099961ADDMD1610201+9999OA159901401SA1+0579REMSYN200BBXX  44007 02151 99435 70701 46/// /0112 11035 21044 49996 56020 91450 22200 00057 11005 20603 310// 41004 70024 333 91214 555 11128 22134 31421 40115 61449 007120 010118 006118 006119 006123 006121;
0245992780999992010010216004+43533-070083FM-18+0000DB278V0203601N012019999999N9999999N1-00341-00431099831ADDMD1810241+9999OA159901501SA1+0579REMSYN200BBXX  44007 02161 99435 70701 46/// /3612 11034 21043 49983 58024 91550 22200 00057 10904 20703 310// 40903 70021 333 91215 555 11129 22135 31522 43615 61549 003122 002123 004122 003119 003121 001123;
0245992780999992010010217004+43533-070083FM-18+0000DB278V0203601N012019999999N9999999N1-00331-00431099721ADDMD1810291+9999OA159901401SA1+0589REMSYN200BBXX  44007 02171 99435 70701 46/// /3612 11033 21043 49972 58029 91650 22200 00058 11004 20603 309// 41004 70022 333 91214 555 11126 22132 31553 43615 61649 357120 358116 359118 358121 002120 000123;
0245992780999992010010218004+43533-070083FM-18+0000DB278V0203501N012019999999N9999999N1-00321-00431099631ADDMD1610331+9999OA159901501SA1+0589REMSYN200BBXX  44007 02181 99435 70701 46/// /3512 11032 21043 49963 56033 91750 22200 00058 11004 20502 309// 41003 70021 333 91215 555 11128 22134 31715 43516 61749 353122 355122 356120 353120 353119 354118;
0245992780999992010010219004+43533-070083FM-18+0000DB278V0203501N012019999999N9999999N1-00301-00401099531ADDMD1610301+9999OA159901501SA1+0589REMSYN200BBXX  44007 02191 99435 70701 46/// /3512 11030 21040 49953 56030 91850 22200 00058 10904 20602 308// 40903 70021 333 91215 555 11129 22135 31826 43516 61849 348122 352125 351131 354119 352125 355121;
0245992780999992010010220004+43533-070083FM-18+0000DB278V0203501N013019999999N9999999N1-00261-00371099481ADDMD1610241+9999OA159901501SA1+0579REMSYN200BBXX  44007 02201 99435 70701 46/// /3513 11026 21037 49948 56024 91950 22200 00057 10904 20302 308// 40904 70020 333 91215 555 11132 22139 31947 43415 61949 345125 346121 345124 346118 348119 347119;
0245992780999992010010221004+43533-070083FM-18+0000DB278V0203301N011019999999N9999999N1-00261-00361099431ADDMD1610201+9999OA159901301SA1+0579REMSYN200BBXX  44007 02211 99435 70701 46/// /3311 11026 21036 49943 56020 92050 22200 00057 10903 20302 307// 40903 70017 333 91213 555 11114 22119 32002 43516 62049 328108 337112 340115 341117 345123 346125;
0245992780999992010010222004+43533-070083FM-18+0000DB278V0203401N013019999999N9999999N1-00221-00331099331ADDMD1810201+9999OA159901501SA1+0559REMSYN200BBXX  44007 02221 99435 70701 46/// /3413 11022 21033 49933 58020 92150 22200 00055 11004 20301 306// 41003 70018 333 91215 555 11136 22143 32132 43316 62149 336128 335130 331126 331129 330123 330112;
0245992780999992010010223004+43533-070083FM-18+0000DB278V0203201N013019999999N9999999N1-00271-00371099221ADDMD1810261+9999OA159901601SA1+0549REMSYN200BBXX  44007 02231 99435 70701 46/// /3213 11027 21037 49922 58026 92250 22200 00054 11003 20301 306// 41003 70016 333 91216 555 11132 22139 32232 43316 62249 325125 326131 326121 328118 330125 330130;
0245992780999992010010300004+43533-070083FM-18+0000DB278V0203201N013019999999N9999999N1-00281-00431099071ADDMD1810361+9999OA159901501SA1+0549REMSYN200BBXX  44007 03001 99435 70701 46/// /3213 11028 21043 49907 58036 92350 22200 00054 11003 20302 304// 41003 70016 333 91215 555 11138 22145 32320 43117 62349 318129 321132 319129 320127 321131 324127;
0245992780999992010010301004+43533-070083FM-18+0000DB278V0203201N013019999999N9999999N1-00301-00411098911ADDMD1810421+9999OA159901601SA1+0539REMSYN200BBXX  44007 03011 99435 70701 46/// /3213 11030 21041 49891 58042 90050 22200 00053 11004 20402 308// 41003 70018 333 91216 555 11133 22140 30034 43217 60049 317125 318128 316121 320127 319123 319126;
0245992780999992010010302004+43533-070083FM-18+0000DB278V0203201N012019999999N9999999N1-00291-00391098681ADDMD1810541+9999OA159901501SA1+0539REMSYN200BBXX  44007 03021 99435 70701 46/// /3212 11029 21039 49868 58054 90150 22200 00053 11003 20302 309// 41002 70014 333 91215 555 11130 22137 30128 43116 60149 317124 314124 313122 315122 315117 316119;
0264992780999992010010303004+43533-070083FM-18+0000DB278V0203201N013019999999N9999999N1-00281-00471098491ADDMD1810582+9999OA159901601SA1+0539REMSYN200BBXX  44007 03031 99435 70701 46/// /3213 11028 21047 49849 58058 90250 22200 00053 11003 20402 308// 41002 70014 333 91216 555 11141 22148 30158 43218 60249 316133 316130 313131 314129 318134 316130;EQDQ01+000582APC3  
0245992780999992010010304004+43533-070083FM-18+0000DB278V0203101N013019999999N9999999N1-00351-00461098311ADDMD1610601+9999OA159901701SA1+0539REMSYN200BBXX  44007 03041 99435 70701 46/// /3113 11035 21046 49831 56060 90350 22200 00053 11103 20402 309// 41102 70013 333 91217 555 11137 22143 30339 43218 60349 307129 312132 307118 306124 310121 311125;
0245992780999992010010305004+43533-070083FM-18+0000DB278V0203101N013019999999N9999999N1-00381-00501098161ADDMD1610521+9999OA159901701SA1+0549REMSYN200BBXX  44007 03051 99435 70701 46/// /3113 11038 21050 49816 56052 90450 22200 00054 11002 20402 311// 41001 70012 333 91217 555 11138 22144 30401 43118 60449 305131 309134 307135 307138 308136 307125;
0245992780999992010010306004+43533-070083FM-18+0000DB278V0203101N013019999999N9999999N1-00391-00541098031ADDMD1610461+9999OA159901701SA1+0549REMSYN200BBXX  44007 03061 99435 70701 46/// /3113 11039 21054 49803 56046 90550 22200 00054 11103 20402 311// 41102 70013 333 91217 555 11142 22149 30451 43117 60549 305134 304130 304121 304122 306127 305123;
0245992780999992010010307004+43533-070083FM-18+0000DB278V0203101N014019999999N9999999N1-00351-00581097971ADDMD1610341+9999OA159901701SA1+0549REMSYN200BBXX  44007 03071 99435 70701 46/// /3114 11035 21058 49797 56034 90650 22200 00054 11002 20402 308// 41001 70012 333 91217 555 11144 22152 30550 43017 60649 308135 310133 308133 307130 307128 306121;
0245992780999992010010308004+43533-070083FM-18+0000DB278V0203101N014019999999N9999999N1-00351-00591097931ADDMD1610231+9999OA159901801SA1+0539REMSYN200BBXX  44007 03081 99435 70701 46/// /3114 11035 21059 49793 56023 90750 22200 00053 10402 20402 308// 41001 70011 333 91218 555 11149 22156 30743 43118 60749 309140 309134 309136 307139 308131 311137;
0245992780999992010010309004+43533-070083FM-18+0000DB278V0203101N014019999999N9999999N1-00381-00551097921ADDMD1610111+9999OA159901801SA1+0539REMSYN200BBXX  44007 03091 99435 70701 46/// /3114 11038 21055 49792 56011 90850 22200 00053 11002 20302 306// 41001 70011 333 91218 555 11145 22153 30752 43118 60849 310136 310132 311132 310138 310135 312143;
0245992780999992010010310004+43533-070083FM-18+0000DB278V0203101N013019999999N9999999N1-00401-00531097941ADDMD1610031+9999OA159901701SA1+0529REMSYN200BBXX  44007 03101 99435 70701 46/// /3113 11040 21053 49794 56003 90950 22200 00052 11002 20402 308// 41001 70010 333 91217 555 11133 22140 30858 43118 60949 314127 314135 314129 313139 312139 314139;
0245992780999992010010311004+43533-070083FM-18+0000DB278V0203201N013019999999N9999999N1-00351-00531097981ADDMD1310051+9999OA159901601SA1+0519REMSYN200BBXX  44007 03111 99435 70701 46/// /3213 11035 21053 49798 53005 91050 22200 00051 11002 20402 307// 41001 70009 333 91216 555 11139 22146 30956 43216 61049 322131 324128 322121 322114 318116 315127;
0237992780999992010010312004+43533-070083FM-18+0000DB278V0203301N011019999999N9999999N1-00271-00371098061ADDMD1310141+9999OA159901401REMSYN200BBXX  44007 03121 99435 70701 46/// /3311 11027 21037 49806 53014 91150 22200 00050 11102 20302 333// 41101 70011 333 91214 555 11119 22125 31116 43316 61149 329114 326119 327122 325121 326123 325128;
0237992780999992010010313004+43533-070083FM-18+0000DB278V0203401N011019999999N9999999N1-00141-00191098141ADDMD1310201+9999OA159901201REMSYN200BBXX  44007 03131 99435 70701 46/// /3411 11014 21019 49814 53020 91250 22200 00050 11402 20302 330// 41402 70011 333 91212 555 11111 22116 31154 43314 61249 336106 336103 332106 332105 333112 334117;
0237992780999992010010314004+43533-070083FM-18+0000DB278V0203401N011019999999N9999999N1+00011-00051098231ADDMD1310251+9999OA159901301REMSYN200BBXX  44007 03141 99435 70701 46/// /3411 10001 21005 49823 53025 91350 22200 00050 11302 20401 308// 41302 70012 333 91213 555 11119 22125 31326 43414 61349 343113 345112 339116 336115 335112 335109;
0245992780999992010010315004+43533-070083FM-18+0000DB278V0203501N011019999999N9999999N1+00081+00051098351ADDMD1310291+9999OA159901201SA1+0519REMSYN200BBXX  44007 03151 99435 70701 46/// /3511 10008 20005 49835 53029 91450 22200 00051 11302 20402 306// 41302 70012 333 91212 555 11111 22117 31403 43514 61449 354105 351108 348107 344111 347115 340109;
0245992780999992010010316004+43533-070083FM-18+0000DB278V0200101N012019999999N9999999N1+00261+00091098361ADDMD1110221+9999OA159901401SA1+0519REMSYN200BBXX  44007 03161 99435 70701 46/// /0112 10026 20009 49836 51022 91550 22200 00051 11202 20302 310// 41202 70011 333 91214 555 11126 22133 31544 40114 61549 013117 005101 003098 350097 349096 354100;
0245992780999992010010317004+43533-070083FM-18+0000DB278V0203401N009019999999N9999999N1+00131+00051098381ADDMD1110151+9999OA159901001SA1+0529REMSYN200BBXX  44007 03171 99435 70701 46/// /3409 10013 20005 49838 51015 91650 22200 00052 11303 20402 309// 41301 70013 333 91210 555 11094 22098 31605 40115 61649 342089 339094 349100 010114 017115 014114;
0245992780999992010010318004+43533-070083FM-18+0000DB278V0203401N010019999999N9999999N1+00091+00021098431ADDMD1310081+9999OA159901201SA1+0549REMSYN200BBXX  44007 03181 99435 70701 46/// /3410 10009 20002 49843 53008 91750 22200 00054 11203 20502 308// 41201 70013 333 91212 555 11106 22111 31745 43412 61749 339100 335089 337098 338095 346095 353096;
0245992780999992010010319004+43533-070083FM-18+0000DB278V0203401N009019999999N9999999N1+00091+00071098511ADDMD1310151+9999OA159901101SA1+0559REMSYN200BBXX  44007 03191 99435 70701 46/// /3409 10009 20007 49851 53015 91850 22200 00055 11102 20502 307// 41102 70012 333 91211 555 11097 22102 31757 43412 61849 336093 336093 337097 337095 339092 338098;
0245992780999992010010320004+43533-070083FM-18+0000DB278V0203501N009019999999N9999999N1+00241+00171098611ADDMD1310231+9999OA159901101SA1+0559REMSYN200BBXX  44007 03201 99435 70701 46/// /3509 10024 20017 49861 53023 91950 22200 00055 11103 20602 307// 41102 70013 333 91211 555 11096 22101 31850 43512 61949 349091 344089 345090 341091 339092 336093;
0245992780999992010010321004+43533-070083FM-18+0000DB278V0203301N009019999999N9999999N1+00131+00101098701ADDMD1310271+9999OA159901101SA1+0559REMSYN200BBXX  44007 03211 99435 70701 46/// /3309 10013 20010 49870 53027 92050 22200 00055 11103 20602 307// 41102 70013 333 91211 555 11096 22101 32001 43513 62049 332091 332092 343093 351102 353106 355106;
0245992780999992010010322004+43533-070083FM-18+0000DB278V0203301N010019999999N9999999N1+00161+00121098781ADDMD1110271+9999OA159901201SA1+0559REMSYN200BBXX  44007 03221 99435 70701 46/// /3310 10016 20012 49878 51027 92150 22200 00055 11103 20502 307// 41102 70013 333 91212 555 11106 22111 32126 43313 62149 333100 333107 335108 335103 333101 333096;
0245992780999992010010323004+43533-070083FM-18+0000DB278V0203301N009019999999N9999999N1+00181+00141098881ADDMD1310271+9999OA159901101SA1+0559REMSYN200BBXX  44007 03231 99435 70701 46/// /3309 10018 20014 49888 53027 92250 22200 00055 11103 20501 306// 41103 70015 333 91211 555 11099 22104 32203 43312 62249 333096 333101 334101 332101 332100 333100;
0245992780999992010010400004+43533-070083FM-18+0000DB278V0203401N011019999999N9999999N1+00221+00161098951ADDMD1110251+9999OA159901301SA1+0559REMSYN200BBXX  44007 04001 99435 70701 46/// /3411 10022 20016 49895 51025 92350 22200 00055 11103 20302 308// 41102 70014 333 91213 555 11114 22120 32339 43513 62349 343105 343107 341100 345104 346107 337097;
0245992780999992010010401004+43533-070083FM-18+0000DB278V0203401N010019999999N9999999N1+00271+00161098991ADDMD1110211+9999OA159901201SA1+0559REMSYN200BBXX  44007 04011 99435 70701 46/// /3410 10027 20016 49899 51021 90050 22200 00055 11203 20302 311// 41202 70014 333 91212 555 11103 22108 30031 43514 60049 342099 343109 340099 330088 334090 341108;
0245992780999992010010402004+43533-070083FM-18+0000DB278V0203201N009019999999N9999999N1+00181+00071099011ADDMD1110131+9999OA159901101SA1+0559REMSYN200BBXX  44007 04021 99435 70701 46/// /3209 10018 20007 49901 51013 90150 22200 00055 11303 20601 311// 41302 70014 333 91211 555 11094 22098 30053 43412 60149 323088 321080 325084 326083 322084 332087;
0245992780999992010010403004+43533-070083FM-18+0000DB278V0203301N009019999999N9999999N1+00191+00061099041ADDMD1110091+9999OA159901201SA1+0559REMSYN200BBXX  44007 04031 99435 70701 46/// /3309 10019 20006 49904 51009 90250 22200 00055 11102 20501 310// 41102 70012 333 91212 555 11096 22101 30239 43312 60249 324092 325095 323093 323093 322096 320093;
0245992780999992010010404004+43533-070083FM-18+0000DB278V0203201N010019999999N9999999N1+00191+00011099041ADDMD1210051+9999OA159901201SA1+0569REMSYN200BBXX  44007 04041 99435 70701 46/// /3210 10019 20001 49904 52005 90350 22200 00056 11202 20501 310// 41202 70011 333 91212 555 11107 22112 30340 43213 60349 322101 320101 321100 321097 322096 325099;
0245992780999992010010405004+43533-070083FM-18+0000DB278V0203201N010019999999N9999999N1+00211-00011099051ADDMD1110041+9999OA159901301SA1+0579REMSYN200BBXX  44007 04051 99435 70701 46/// /3210 10021 21001 49905 51004 90450 22200 00057 11202 20501 311// 41202 70011 333 91213 555 11104 22109 30351 43313 60449 324098 323098 324094 322093 326101 323103;
0245992780999992010010406004+43533-070083FM-18+0000DB278V0203201N010019999999N9999999N1+00221-00101099071ADDMD1210031+9999OA159901201SA1+0599REMSYN200BBXX  44007 04061 99435 70701 46/// /3210 10022 21010 49907 52003 90550 22200 00059 11202 20301 309// 41202 70010 333 91212 555 11110 22116 30504 43213 60549 323102 323099 320099 322099 324101 322101;
0245992780999992010010407004+43533-070083FM-18+0000DB278V0203201N009019999999N9999999N1+00261-00151099151ADDMD1310111+9999OA159901101SA1+0599REMSYN200BBXX  44007 04071 99435 70701 46/// /3209 10026 21015 49915 53011 90650 22200 00059 11102 20301 311// 41102 70011 333 91211 555 11098 22103 30621 43213 60649 320094 319103 321106 326106 324103 322100;
0237992780999992010010408004+43533-070083FM-18+0000DB278V0203201N009019999999N9999999N1+00231-00181099171ADDMD1210121+9999OA159901201REMSYN200BBXX  44007 04081 99435 70701 46/// /3209 10023 21018 49917 52012 90750 22200 00060 11102 20301 308// 41102 70011 333 91212 555 11097 22102 30745 43112 60749 315092 313087 317086 314085 313088 318093;
0245992780999992010010409004+43533-070083FM-18+0000DB278V0203201N012019999999N9999999N1+00221-00211099161ADDMD1110091+9999OA159901401SA1+0599REMSYN200BBXX  44007 04091 99435 70701 46/// /3212 10022 21021 49916 51009 90850 22200 00059 11102 20301 309// 41102 70011 333 91214 555 11125 22132 30833 43316 60849 321119 320121 321111 317104 314096 317095;
0245992780999992010010410004+43533-070083FM-18+0000DB278V0203201N012019999999N9999999N1+00191-00241099221ADDMD1310071+9999OA159901401SA1+0599REMSYN200BBXX  44007 04101 99435 70701 46/// /3212 10019 21024 49922 53007 90950 22200 00059 11102 20301 329// 41102 70011 333 91214 555 11124 22131 30916 43216 60949 314116 317121 319123 321127 325127 322120;
0245992780999992010010411004+43533-070083FM-18+0000DB278V0203201N013019999999N9999999N1+00161-00301099251ADDMD1310081+9999OA159901601SA1+0579REMSYN200BBXX  44007 04111 99435 70701 46/// /3213 10016 21030 49925 53008 91050 22200 00057 11002 20301 310// 41002 70012 333 91216 555 11134 22141 31030 43217 61049 318126 320124 319122 321128 320123 319121;
0245992780999992010010412004+43533-070083FM-18+0000DB278V0203201N012019999999N9999999N1+00131-00351099311ADDMD1210151+9999OA159901501SA1+0559REMSYN200BBXX  44007 04121 99435 70701 46/// /3212 10013 21035 49931 52015 91150 22200 00055 11102 20301 305// 41102 70012 333 91215 555 11131 22138 31120 43216 61149 319122 320119 319128 318118 316116 315121;
0245992780999992010010413004+43533-070083FM-18+0000DB278V0203201N011019999999N9999999N1+00081-00371099401ADDMD1310181+9999OA159901301SA1+0549REMSYN200BBXX  44007 04131 99435 70701 46/// /3211 10008 21037 49940 53018 91250 22200 00054 11402 20301 331// 41402 70012 333 91213 555 11116 22121 31151 43215 61249 319111 321106 320109 319102 319108 319118;
0245992780999992010010414004+43533-070083FM-18+0000DB278V0203201N010019999999N9999999N1+00071-00411099511ADDMD1310261+9999OA159901301SA1+0539REMSYN200BBXX  44007 04141 99435 70701 46/// /3210 10007 21041 49951 53026 91350 22200 00053 11302 20301 307// 41302 70010 333 91213 555 11107 22112 31255 43214 61349 319102 318100 320098 319101 318103 319105;
0245992780999992010010415004+43533-070083FM-18+0000DB278V0203201N010019999999N9999999N1+00121-00411099581ADDMD1110271+9999OA159901301SA1+0529REMSYN200BBXX  44007 04151 99435 70701 46/// /3210 10012 21041 49958 51027 91450 22200 00052 11302 20301 310// 41301 70009 333 91213 555 11105 22110 31427 43213 61449 320099 317096 319100 319104 322105 321098;
0245992780999992010010416004+43533-070083FM-18+0000DB278V0203301N010019999999N9999999N1+00111-00441099601ADDMD1110201+9999OA159901301SA1+0529REMSYN200BBXX  44007 04161 99435 70701 46/// /3310 10011 21044 49960 51020 91550 22200 00052 11202 20301 311// 41201 70009 333 91213 555 11103 22108 31509 43214 61549 328097 325095 322095 321095 320096 318097;
0245992780999992010010417004+43533-070083FM-18+0000DB278V0203201N010019999999N9999999N1+00141-00451099561ADDMD1010051+9999OA159901201SA1+0539REMSYN200BBXX  44007 04171 99435 70701 46/// /3210 10014 21045 49956 50005 91650 22200 00053 11202 20401 312// 41201 70008 333 91212 555 11105 22110 31631 43313 61649 323099 323107 322096 319103 324091 325092;
0245992780999992010010418004+43533-070083FM-18+0000DB278V0203301N008019999999N9999999N1+00131-00451099571ADDMD1410001+9999OA159901001SA1+0549REMSYN200BBXX  44007 04181 99435 70701 46/// /3308 10013 21045 49957 54000 91750 22200 00054 11202 20301 306// 41201 70009 333 91210 555 11087 22091 31715 43413 61749 331084 329094 325096 329101 324099 322100;
0245992780999992010010419004+43533-070083FM-18+0000DB278V0203201N007019999999N9999999N1+00161-00471099651ADDMD1310051+9999OA159900901SA1+0549REMSYN200BBXX  44007 04191 99435 70701 46/// /3207 10016 21047 49965 53005 91850 22200 00054 11202 20301 310// 41201 70008 333 91209 555 11074 22077 31758 43310 61849 321070 327069 327076 324074 322075 326082;
0245992780999992010010420004+43533-070083FM-18+0000DB278V0203201N007019999999N9999999N1+00131-00501099731ADDMD1310171+9999OA159900901SA1+0559REMSYN200BBXX  44007 04201 99435 70701 46/// /3207 10013 21050 49973 53017 91950 22200 00055 11201 20301 336// 41201 70007 333 91209 555 11068 22071 31903 43210 61949 315066 321070 315071 320073 320086 317073;
0245992780999992010010421004+43533-070083FM-18+0000DB278V0203201N007019999999N9999999N1+00081-00511099791ADDMD1110221+9999OA159900801SA1+0549REMSYN200BBXX  44007 04211 99435 70701 46/// /3207 10008 21051 49979 51022 92050 22200 00054 11202 20301 310// 41201 70008 333 91208 555 11068 22071 32012 43209 62049 318066 318072 313071 314067 311068 315067;
0245992780999992010010422004+43533-070083FM-18+0000DB278V0203101N006019999999N9999999N1+00041-00561099871ADDMD1210221+9999OA159900701SA1+0539REMSYN200BBXX  44007 04221 99435 70701 46/// /3106 10004 21056 49987 52022 92150 22200 00053 11102 20301 331// 41101 70008 333 91207 555 11058 22060 32107 43209 62149 312056 317058 317065 319067 317068 317062;
0245992780999992010010423004+43533-070083FM-18+0000DB278V0203001N007019999999N9999999N1+00001-00601099931ADDMD1210201+9999OA159900801SA1+0539REMSYN200BBXX  44007 04231 99435 70701 46/// /3007 10000 21060 49993 52020 92250 22200 00053 11002 20301 309// 41002 70009 333 91208 555 11068 22071 32204 43108 62249 304063 302060 302058 304054 313061 311062;
0245992780999992010010500004+43533-070083FM-18+0000DB278V0203101N006019999999N9999999N1-00041-00561099991ADDMD1110201+9999OA159900701SA1+0519REMSYN200BBXX  44007 05001 99435 70701 46/// /3106 11004 21056 49999 51020 92350 22200 00051 11402 20301 310// 41401 70008 333 91207 555 11063 22065 32329 43108 62349 306059 307063 306060 304062 306062 308062;
0237992780999992010010501004+43533-070083FM-18+0000DB278V0203201N008019999999N9999999N1-00061-00541099981ADDMD1110111+9999OA159901001REMSYN200BBXX  44007 05011 99435 70701 46/// /3208 11006 21054 49998 51011 90050 22200 00050 11002 20301 311// 41002 70009 333 91210 555 11080 22083 30032 43210 60049 320076 319077 318076 316073 311068 305065;
0237992780999992010010502004+43533-070083FM-18+0000DB278V0203301N007019999999N9999999N1-00081-00541100011ADDMD1110081+9999OA159901001REMSYN200BBXX  44007 05021 99435 70701 46/// /3307 11008 21054 40001 51008 90150 22200 00050 11102 20301 310// 41101 70008 333 91210 555 11073 22076 30055 43310 60149 327069 325073 321073 322071 325079 325081;
0237992780999992010010503004+43533-070083FM-18+0000DB278V0203201N007019999999N9999999N1-00091-00591100011ADDMD1410001+9999OA159900901REMSYN200BBXX  44007 05031 99435 70701 46/// /3207 11009 21059 40001 54000 90250 22200 00050 11302 20301 333// 41301 70008 333 91209 555 11077 22080 30209 43110 60249 325073 322073 325075 323073 326071 325072;
0237992780999992010010504004+43533-070083FM-18+0000DB278V0203201N008019999999N9999999N1-00071-00541100001ADDMD1010001+9999OA159901001REMSYN200BBXX  44007 05041 99435 70701 46/// /3208 11007 21054 40000 50000 90350 22200 00050 11002 20301 310// 41001 70008 333 91210 555 11080 22083 30343 43310 60349 323075 324072 327079 327074 327074 322069;
0237992780999992010010505004+43533-070083FM-18+0000DB278V0203201N006019999999N9999999N1-00091-00571100001ADDMD1410001+9999OA159900801REMSYN200BBXX  44007 05051 99435 70701 46/// /3206 11009 21057 40000 54000 90450 22200 00050 11101 20301 311// 41101 70007 333 91208 555 11063 22065 30406 43209 60449 322060 320061 319062 319068 322076 323074;
0237992780999992010010506004+43533-070083FM-18+0000DB278V0203201N006019999999N9999999N1-00091-00591099981ADDMD1710031+9999OA159900801REMSYN200BBXX  44007 05061 99435 70701 46/// /3206 11009 21059 49998 57003 90550 22200 00050 11401 20301 311// 41401 70007 333 91208 555 11066 22068 30518 43108 60549 321064 318064 321060 320064 322064 322059;
0237992780999992010010507004+43533-070083FM-18+0000DB278V0203201N006019999999N9999999N1-00081-00591100011ADDMD1510001+9999OA159900801REMSYN200BBXX  44007 05071 99435 70701 46/// /3206 11008 21059 40001 55000 90650 22200 00050 11101 20301 314// 41101 70006 333 91208 555 11063 22065 30607 43108 60649 317058 318055 312053 318056 314059 316062;
0239992780999992010010508004+43533-070083FM-18+0000DB278V0203101N005019999999N9999999N1-00081-00591100001ADDMD1410001+9999OA159900801SA1+0519REMSYN194BBXX  44007 05081 99435 70701 46/// /3105 11008 21059 40000 54000 90750 22200 00051 11201 312// 41201 70006 333 91208 555 11056 22058 30735 43108 60749 312054 313059 323055 318051 314046 318052;
0239992780999992010010509004+43533-070083FM-18+0000DB278V0203101N005019999999N9999999N1-00081-00551100001ADDMD1010001+9999OA159900701SA1+0519REMSYN194BBXX  44007 05091 99435 70701 46/// /3105 11008 21055 40000 50000 90850 22200 00051 11301 308// 41301 70007 333 91207 555 11056 22058 30811 43008 60849 313054 319055 318054 309058 311056 306055;
0239992780999992010010510004+43533-070083FM-18+0000DB278V0203201N006019999999N9999999N1-00091-00611100001ADDMD1410001+9999OA159900801SA1+0529REMSYN194BBXX  44007 05101 99435 70701 46/// /3206 11009 21061 40000 54000 90950 22200 00052 11301 332// 41301 70007 333 91208 555 11066 22068 30925 43209 60949 323062 327062 320061 321055 310051 314055;
0231992780999992010010511004+43533-070083FM-18+0000DB278V0203201N007019999999N9999999N1-00111-00641100011ADDMD1410001+9999OA159900801REMSYN194BBXX  44007 05111 99435 70701 46/// /3207 11011 21064 40001 54000 91050 22200 00050 11301 312// 41301 70007 333 91208 555 11068 22070 31012 43209 61049 317064 319061 322066 322069 320066 314070;
0239992780999992010010512004+43533-070083FM-18+0000DB278V0203201N006019999999N9999999N1-00111-00631100061ADDMD1310061+9999OA159900701SA1+0499REMSYN194BBXX  44007 05121 99435 70701 46/// /3206 11011 21063 40006 53006 91150 22200 00049 11101 308// 41101 70007 333 91207 555 11061 22064 31111 43208 61149 320060 321063 319055 322058 319057 318060;
0239992780999992010010513004+43533-070083FM-18+0000DB278V0203201N006019999999N9999999N1-00101-00631100101ADDMD1310101+9999OA159900701SA1+0479REMSYN194BBXX  44007 05131 99435 70701 46/// /3206 11010 21063 40010 53010 91250 22200 00047 11002 312// 41002 70008 333 91207 555 11059 22061 31206 43208 61249 320057 316053 316054 319058 318062 314061;
0239992780999992010010514004+43533-070083FM-18+0000DB278V0203101N006019999999N9999999N1-00091-00621100101ADDMD1110091+9999OA159900701SA1+0479REMSYN194BBXX  44007 05141 99435 70701 46/// /3106 11009 21062 40010 51009 91350 22200 00047 11001 309// 41001 70006 333 91207 555 11057 22059 31251 43208 61349 312055 320057 324060 324062 323062 321059;
0239992780999992010010515004+43533-070083FM-18+0000DB278V0203101N004019999999N9999999N1-00071-00621100121ADDMD1110061+9999OA159900501SA1+0469REMSYN194BBXX  44007 05151 99435 70701 46/// /3104 11007 21062 40012 51006 91450 22200 00046 11301 312// 41301 70007 333 91205 555 11040 22041 31358 43106 61449 311039 319043 311037 314041 311046 308052;
0239992780999992010010516004+43533-070083FM-18+0000DB278V0203101N003019999999N9999999N1-00031-00561100051ADDMD1810051+9999OA159900401SA1+0469REMSYN194BBXX  44007 05161 99435 70701 46/// /3103 11003 21056 40005 58005 91550 22200 00046 11001 310// 41001 70006 333 91204 555 11031 22032 31503 43206 61549 312031 322038 321043 314042 317045 313042;
0239992780999992010010517004+43533-070083FM-18+0000DB278V0203101N004019999999N9999999N1+00021-00491099981ADDMD1810121+9999OA159900501SA1+0479REMSYN194BBXX  44007 05171 99435 70701 46/// /3104 10002 21049 49998 58012 91650 22200 00047 11001 311// 41001 70005 333 91205 555 11037 22038 31641 43005 61649 305036 317040 314039 316033 319035 317033;
0239992780999992010010518004+43533-070083FM-18+0000DB278V0203001N004019999999N9999999N1+00031-00431099911ADDMD1710211+9999OA159900601SA1+0499REMSYN194BBXX  44007 05181 99435 70701 46/// /3004 10003 21043 49991 57021 91750 22200 00049 11001 314// 41001 70005 333 91206 555 11045 22046 31712 43106 61749 296043 302042 298045 296048 299045 300040;
0231992780999992010010519004+43533-070083FM-18+0000DB278V0203001N005019999999N9999999N1+00081-00451099891ADDMD1610161+9999OA159900601REMSYN194BBXX  44007 05191 99435 70701 46/// /3005 10008 21045 49989 56016 91850 22200 00050 11301 309// 41301 70005 333 91206 555 11047 22048 31845 43006 61849 305045 300040 301036 298040 302043 299043;
0239992780999992010010520004+43533-070083FM-18+0000DB278V0203201N006019999999N9999999N1+00051-00261099911ADDMD1610071+9999OA159900701SA1+0519REMSYN194BBXX  44007 05201 99435 70701 46/// /3206 10005 21026 49991 56007 91950 22200 00051 11201 311// 41201 70004 333 91207 555 11062 22064 31947 43107 61949 316058 295035 296042 309051 308046 308044;
0239992780999992010010521004+43533-070083FM-18+0000DB278V0203101N005019999999N9999999N1+00031-00291099921ADDMD1410001+9999OA159900601SA1+0519REMSYN194BBXX  44007 05211 99435 70701 46/// /3105 10003 21029 49992 54000 92050 22200 00051 11201 310// 41201 70006 333 91206 555 11051 22052 32009 43207 62049 313049 316047 305048 307048 317053 313054;
0239992780999992010010522004+43533-070083FM-18+0000DB278V0203201N006019999999N9999999N1+00031-00271099901ADDMD1410001+9999OA159900801SA1+0519REMSYN194BBXX  44007 05221 99435 70701 46/// /3206 10003 21027 49990 54000 92150 22200 00051 11201 331// 41201 70005 333 91208 555 11059 22062 32149 43308 62149 319057 311055 315052 309045 305047 312047;
0239992780999992010010523004+43533-070083FM-18+0000DB278V0203101N005019999999N9999999N1+00051-00181099911ADDMD1410001+9999OA159900601SA1+0489REMSYN194BBXX  44007 05231 99435 70701 46/// /3105 10005 21018 49991 54000 92250 22200 00048 11101 312// 41101 70005 333 91206 555 11052 22054 32152 43207 62249 305051 297050 292046 296047 299048 314057;
0239992780999992010010600004+43533-070083FM-18+0000DB278V0203401N010019999999N9999999N1+00031-00491099931ADDMD1410001+9999OA159901101SA1+0479REMSYN194BBXX  44007 06001 99435 70701 46/// /3410 10003 21049 49993 54000 92350 22200 00047 11201 328// 41201 70005 333 91211 555 11100 22105 32347 43511 62349 338095 338085 331083 324069 314050 312052;
0245992780999992010010601004+43533-070083FM-18+0000DB278V0203401N010019999999N9999999N1-00021-00501099951ADDMD1210051+9999OA159901201SA1+0479REMSYN200BBXX  44007 06011 99435 70701 46/// /3410 11002 21050 49995 52005 90050 22200 00047 11101 20301 336// 41101 70006 333 91212 555 11104 22108 30024 43412 60049 340097 335095 336098 334092 337085 340091;
0245992780999992010010602004+43533-070083FM-18+0000DB278V0203401N009019999999N9999999N1-00081-00501099971ADDMD1210061+9999OA159901101SA1+0469REMSYN200BBXX  44007 06021 99435 70701 46/// /3409 11008 21050 49997 52006 90150 22200 00046 10901 20301 313// 40901 70007 333 91211 555 11098 22103 30109 43412 60149 342093 336093 331094 334096 331102 334097;
0245992780999992010010603004+43533-070083FM-18+0000DB278V0203401N009019999999N9999999N1-00111-00581099981ADDMD1210051+9999OA159901101SA1+0469REMSYN200BBXX  44007 06031 99435 70701 46/// /3409 11011 21058 49998 52005 90250 22200 00046 11001 20301 302// 41001 70006 333 91211 555 11095 22099 30224 43412 60249 340091 339091 340091 340092 339093 341092;
0245992780999992010010604004+43533-070083FM-18+0000DB278V0203401N009019999999N9999999N1-00111-00591099951ADDMD1010001+9999OA159901101SA1+0469REMSYN200BBXX  44007 06041 99435 70701 46/// /3409 11011 21059 49995 50000 90350 22200 00046 11101 20301 308// 41101 70006 333 91211 555 11089 22093 30304 43411 60349 340085 341088 341083 337088 341088 342084;
0245992780999992010010605004+43533-070083FM-18+0000DB278V0203301N009019999999N9999999N1-00101-00601099911ADDMD1810061+9999OA159901101SA1+0469REMSYN200BBXX  44007 06051 99435 70701 46/// /3309 11010 21060 49991 58006 90450 22200 00046 10301 20301 309// 41101 70006 333 91211 555 11096 22100 30402 43412 60449 331092 334095 332090 333087 336087 342087;
0245992780999992010010606004+43533-070083FM-18+0000DB278V0203301N009019999999N9999999N1-00131-00611099861ADDMD1810121+9999OA159901101SA1+0469REMSYN200BBXX  44007 06061 99435 70701 46/// /3309 11013 21061 49986 58012 90550 22200 00046 10301 20301 311// 40801 70006 333 91211 555 11094 22098 30501 43212 60549 325090 322091 319089 326094 329099 332096;
0245992780999992010010607004+43533-070083FM-18+0000DB278V0203201N010019999999N9999999N1-00121-00591099861ADDMD1610091+9999OA159901201SA1+0469REMSYN200BBXX  44007 06071 99435 70701 46/// /3210 11012 21059 49986 56009 90650 22200 00046 10301 20301 310// 41201 70005 333 91212 555 11101 22106 30647 43212 60649 324096 323095 325086 323082 322080 320085;
0245992780999992010010608004+43533-070083FM-18+0000DB278V0203001N005019999999N9999999N1-00191-00641099921ADDMD1510001+9999OA159900701SA1+0479REMSYN200BBXX  44007 06081 99435 70701 46/// /3005 11019 21064 49992 55000 90750 22200 00047 10801 20301 313// 40801 70005 333 91207 555 11056 22058 30700 43312 60749 299054 304064 317079 320088 323090 324095;
0245992780999992010010609004+43533-070083FM-18+0000DB278V0202901N006019999999N9999999N1-00261-00641099881ADDMD1010001+9999OA159900601SA1+0479REMSYN200BBXX  44007 06091 99435 70701 46/// /2906 11026 21064 49988 50000 90850 22200 00047 11201 20301 310// 41201 70004 333 91206 555 11057 22059 30753 42907 60849 288054 289053 282058 283050 282048 294052;
0239992780999992010010610004+43533-070083FM-18+0000DB278V0203001N006019999999N9999999N1-00261-00691099861ADDMD1010001+9999OA159900701SA1+0479REMSYN194BBXX  44007 06101 99435 70701 46/// /3006 11026 21069 49986 50000 90950 22200 00047 11201 331// 41201 70004 333 91207 555 11059 22061 30930 43008 60949 296057 294064 297064 294062 298058 295054;
0239992780999992010010611004+43533-070083FM-18+0000DB278V0203001N007019999999N9999999N1-00251-00661099861ADDMD1610061+9999OA159900801SA1+0459REMSYN194BBXX  44007 06111 99435 70701 46/// /3007 11025 21066 49986 56006 91050 22200 00045 11101 334// 41101 70004 333 91208 555 11071 22074 31038 42908 61049 300069 297069 298065 295063 296065 295062;
0239992780999992010010612004+43533-070083FM-18+0000DB278V0203001N007019999999N9999999N1-00261-00701099891ADDMD1510001+9999OA159900801SA1+0459REMSYN194BBXX  44007 06121 99435 70701 46/// /3007 11026 21070 49989 55000 91150 22200 00045 11101 312// 41101 70004 333 91208 555 11071 22074 31056 43109 61149 294068 293063 294065 298068 300069 302070;
0239992780999992010010613004+43533-070083FM-18+0000DB278V0203001N007019999999N9999999N1-00301-00731099931ADDMD1310071+9999OA159900801SA1+0449REMSYN194BBXX  44007 06131 99435 70701 46/// /3007 11030 21073 49993 53007 91250 22200 00044 11101 309// 41101 70004 333 91208 555 11068 22070 31154 43008 61249 298065 291061 296061 292065 294065 295068;
0239992780999992010010614004+43533-070083FM-18+0000DB278V0203001N007019999999N9999999N1-00251-00701099961ADDMD1210101+9999OA159900801SA1+0439REMSYN194BBXX  44007 06141 99435 70701 46/// /3007 11025 21070 49996 52010 91350 22200 00043 11001 310// 41001 70004 333 91208 555 11069 22071 31337 43008 61349 295066 294067 296067 301061 299062 300064;
0239992780999992010010615004+43533-070083FM-18+0000DB278V0202901N006019999999N9999999N1-00241-00711099991ADDMD1110101+9999OA159900801SA1+0419REMSYN194BBXX  44007 06151 99435 70701 46/// /2906 11024 21071 49999 51010 91450 22200 00041 11001 307// 41001 70004 333 91208 555 11063 22065 31421 42908 61449 286061 289062 293062 290063 301070 297067;
0245992780999992010010616004+43533-070083FM-18+0000DB278V0202901N006019999999N9999999N1-00191-00751099941ADDMD1010001+9999OA159900801SA1+0419REMSYN200BBXX  44007 06161 99435 70701 46/// /2906 11019 21075 49994 50000 91550 22200 00041 10801 20301 314// 40801 70004 333 91208 555 11061 22064 31546 42808 61549 292060 301058 298056 286052 283057 289059;
0245992780999992010010617004+43533-070083FM-18+0000DB278V0202901N006019999999N9999999N1-00091-00731099841ADDMD1810121+9999OA159900801SA1+0429REMSYN200BBXX  44007 06171 99435 70701 46/// /2906 11009 21073 49984 58012 91650 22200 00042 10901 20301 313// 40901 70004 333 91208 555 11063 22065 31632 42909 61649 288060 288068 298062 301068 301064 295060;
0245992780999992010010618004+43533-070083FM-18+0000DB278V0202801N006019999999N9999999N1+00011-00711099761ADDMD1810231+9999OA159900701SA1+0439REMSYN200BBXX  44007 06181 99435 70701 46/// /2806 10001 21071 49976 58023 91750 22200 00043 10801 20301 312// 40801 70004 333 91207 555 11057 22059 31656 42908 61749 278055 282056 284057 286060 291064 292065;
0245992780999992010010619004+43533-070083FM-18+0000DB278V0202901N005019999999N9999999N1+00121-00691099731ADDMD1610211+9999OA159900601SA1+0459REMSYN200BBXX  44007 06191 99435 70701 46/// /2905 10012 21069 49973 56021 91850 22200 00045 10801 20301 312// 40801 70004 333 91206 555 11054 22056 31827 42908 61849 288053 295056 303055 296049 293060 281056;
0239992780999992010010620004+43533-070083FM-18+0000DB278V0203101N005019999999N9999999N1+00171-00711099741ADDMD1610101+9999OA159900701SA1+0469REMSYN194BBXX  44007 06201 99435 70701 46/// /3105 10017 21071 49974 56010 91950 22200 00046 10701 313// 40701 70004 333 91207 555 11050 22052 31854 43107 61949 312049 308049 294047 303047 302059 304061;
0245992780999992010010621004+43533-070083FM-18+0000DB278V0203001N006019999999N9999999N1+00141-00711099741ADDMD1510001+9999OA159900701SA1+0479REMSYN200BBXX  44007 06211 99435 70701 46/// /3006 10014 21071 49974 55000 92050 22200 00047 10801 20201 315// 40801 70004 333 91207 555 11063 22065 32040 43108 62049 304060 309059 309049 310059 321061 324056;
0239992780999992010010622004+43533-070083FM-18+0000DB278V0203101N005019999999N9999999N1+00091-00711099821ADDMD1310091+9999OA159900601SA1+0469REMSYN194BBXX  44007 06221 99435 70701 46/// /3105 10009 21071 49982 53009 92150 22200 00046 11101 308// 41101 70004 333 91206 555 11048 22049 32051 43107 62149 314046 316046 311041 304048 301047 309053;
0245992780999992010010623004+43533-070083FM-18+0000DB278V0202801N007019999999N9999999N1-00021-00591099841ADDMD1210101+9999OA159900901SA1+0469REMSYN200BBXX  44007 06231 99435 70701 46/// /2807 11002 21059 49984 52010 92250 22200 00046 11201 20301 330// 41201 70004 333 91209 555 11076 22079 32243 42709 62249 278071 279058 310043 306050 306053 310049;
0245992780999992010010700004+43533-070083FM-18+0000DB278V0202901N006019999999N9999999N1-00091-00701099911ADDMD1110171+9999OA159900701SA1+0449REMSYN200BBXX  44007 07001 99435 70701 46/// /2906 11009 21070 49991 51017 92350 22200 00044 11101 20301 309// 41101 70005 333 91207 555 11063 22065 32311 42808 62349 292060 290059 291065 283065 278063 282066;
0245992780999992010010701004+43533-070083FM-18+0000DB278V0203301N008019999999N9999999N1-00101-00461099941ADDMD1310121+9999OA159901201SA1+0449REMSYN200BBXX  44007 07011 99435 70701 46/// /3308 11010 21046 49994 53012 90050 22200 00044 11201 20301 301// 41201 70005 333 91212 555 11086 22090 30048 43412 60049 327079 300057 298056 295056 299058 295058;
0245992780999992010010702004+43533-070083FM-18+0000DB278V0203101N004019999999N9999999N1-00161-00471099991ADDMD1110151+9999OA159900501SA1+0439REMSYN200BBXX  44007 07021 99435 70701 46/// /3104 11016 21047 49999 51015 90150 22200 00043 11101 20301 333// 41101 70005 333 91205 555 11043 22045 30052 43411 60149 311042 305045 302045 299044 307051 329077;
0245992780999992010010703004+43533-070083FM-18+0000DB278V0203101N005019999999N9999999N1-00161-00631100021ADDMD1210111+9999OA159900701SA1+0419REMSYN200BBXX  44007 07031 99435 70701 46/// /3105 11016 21063 40002 52011 90250 22200 00041 11101 20301 309// 41101 70004 333 91207 555 11054 22056 30245 43007 60249 304052 306046 305046 294046 297044 303045;
0239992780999992010010704004+43533-070083FM-18+0000DB278V0203001N004019999999N9999999N1-00191-00631100061ADDMD1110121+9999OA159900501SA1+0419REMSYN194BBXX  44007 07041 99435 70701 46/// /3004 11019 21063 40006 51012 90350 22200 00041 11101 312// 41101 70004 333 91205 555 11045 22047 30253 43307 60349 304045 313048 310052 311049 306048 316049;
0231992780999992010010705004+43533-070083FM-18+0000DB278V0202901N006019999999N9999999N1-00211-00731100031ADDMD1010041+9999OA159900701REMSYN194BBXX  44007 07051 99435 70701 46/// /2906 11021 21073 40003 50004 90450 22200 00040 11401 314// 41401 70004 333 91207 555 11063 22065 30441 42907 60449 292060 290051 289050 302044 302044 295040;
0231992780999992010010706004+43533-070083FM-18+0000DB278V0202801N005019999999N9999999N1-00271-00861100061ADDMD1110041+9999OA159900701REMSYN194BBXX  44007 07061 99435 70701 46/// /2805 11027 21086 40006 51004 90550 22200 00040 11501 304// 41501 70004 333 91207 555 11056 22058 30549 42807 60549 284054 288049 298048 296050 297047 292050;
0231992780999992010010707004+43533-070083FM-18+0000DB278V0202901N007019999999N9999999N1-00271-00881100071ADDMD1510001+9999OA159900801REMSYN194BBXX  44007 07071 99435 70701 46/// /2907 11027 21088 40007 55000 90650 22200 00040 11501 326// 41501 70004 333 91208 555 11069 22071 30624 42908 60649 293066 291065 289064 288066 286067 291058;
0239992780999992010010708004+43533-070083FM-18+0000DB278V0202901N006019999999N9999999N1-00301-00871100121ADDMD1310091+9999OA159900801SA1+0419REMSYN194BBXX  44007 07081 99435 70701 46/// /2906 11030 21087 40012 53009 90750 22200 00041 11201 313// 41201 70003 333 91208 555 11066 22068 30700 42909 60749 295063 296062 297060 297063 295062 295062;
0239992780999992010010709004+43533-070083FM-18+0000DB278V0202901N006019999999N9999999N1-00301-00851100121ADDMD1210061+9999OA159900801SA1+0419REMSYN194BBXX  44007 07091 99435 70701 46/// /2906 11030 21085 40012 52006 90850 22200 00041 11301 312// 41301 70003 333 91208 555 11065 22067 30849 42908 60849 293061 294055 292052 295055 295056 291057;
0231992780999992010010710004+43533-070083FM-18+0000DB278V0202901N005019999999N9999999N1-00311-00831100171ADDMD1210101+9999OA159900701REMSYN194BBXX  44007 07101 99435 70701 46/// /2905 11031 21083 40017 52010 90950 22200 00040 11401 310// 41401 70004 333 91207 555 11052 22053 30939 42908 60949 290051 290059 285060 286059 286057 288057;
0231992780999992010010711004+43533-070083FM-18+0000DB278V0202901N007019999999N9999999N1-00311-00811100201ADDMD1310081+9999OA159900801REMSYN194BBXX  44007 07111 99435 70701 46/// /2907 11031 21081 40020 53008 91050 22200 00040 11401 329// 41401 70004 333 91208 555 11069 22071 31037 42908 61049 289065 289063 291060 290047 287048 291048;
0239992780999992010010712004+43533-070083FM-18+0000DB278V0202901N005019999999N9999999N1-00341-00821100291ADDMD1310171+9999OA159900601SA1+0419REMSYN194BBXX  44007 07121 99435 70701 46/// /2905 11034 21082 40029 53017 91150 22200 00041 11501 315// 41501 70004 333 91206 555 11053 22054 31101 42909 61149 287051 283062 285063 289061 290070 291073;
0239992780999992010010713004+43533-070083FM-18+0000DB278V0203001N008019999999N9999999N1-00241-00761100311ADDMD1110141+9999OA159900901SA1+0419REMSYN194BBXX  44007 07131 99435 70701 46/// /3008 11024 21076 40031 51014 91250 22200 00041 11301 300// 41301 70004 333 91209 555 11079 22082 31246 43109 61249 303074 297064 289060 292068 289057 283050;
0239992780999992010010714004+43533-070083FM-18+0000DB278V0203001N006019999999N9999999N1-00251-00781100411ADDMD1310211+9999OA159900801SA1+0419REMSYN194BBXX  44007 07141 99435 70701 46/// /3006 11025 21078 40041 53021 91350 22200 00041 11501 328// 41501 70004 333 91208 555 11058 22060 31255 43011 61349 300056 294048 293057 298058 297060 301083;
0239992780999992010010715004+43533-070083FM-18+0000DB278V0203101N006019999999N9999999N1-00121-00741100441ADDMD1310151+9999OA159900801SA1+0419REMSYN194BBXX  44007 07151 99435 70701 46/// /3106 11012 21074 40044 53015 91450 22200 00041 11501 300// 41501 70004 333 91208 555 11063 22065 31410 43010 61449 304061 302064 301068 300082 293085 295072;
0245992780999992010010716004+43533-070083FM-18+0000DB278V0203001N008019999999N9999999N1-00031-00691100401ADDMD1010091+9999OA159900901SA1+0419REMSYN200BBXX  44007 07161 99435 70701 46/// /3008 11003 21069 40040 50009 91550 22200 00041 11501 20301 329// 41501 70004 333 91209 555 11079 22082 31520 43010 61549 302075 298073 306075 306076 313061 302060;
0239992780999992010010717004+43533-070083FM-18+0000DB278V0203001N007019999999N9999999N1+00081-00651100331ADDMD1810081+9999OA159900901SA1+0429REMSYN194BBXX  44007 07171 99435 70701 46/// /3007 10008 21065 40033 58008 91650 22200 00042 11301 302// 41301 70004 333 91209 555 11077 22080 31603 43010 61649 301074 290073 289063 291070 307080 306073;
0239992780999992010010718004+43533-070083FM-18+0000DB278V0203301N007019999999N9999999N1+00141-00681100291ADDMD1710151+9999OA159900801SA1+0459REMSYN194BBXX  44007 07181 99435 70701 46/// /3307 10014 21068 40029 57015 91750 22200 00045 11301 312// 41301 70003 333 91208 555 11068 22071 31745 43208 61749 329064 318054 311052 303051 289045 284055;
0239992780999992010010719004+43533-070083FM-18+0000DB278V0203401N004019999999N9999999N1+00171-00661100291ADDMD1610111+9999OA159900601SA1+0489REMSYN194BBXX  44007 07191 99435 70701 46/// /3404 10017 21066 40029 56011 91850 22200 00048 11501 334// 41501 70003 333 91206 555 11046 22047 31826 43308 61849 340045 337048 327063 322058 330053 329061;
0239992780999992010010720004+43533-070083FM-18+0000DB278V0200101N004019999999N9999999N1+00211-00571100341ADDMD1510001+9999OA159900501SA1+0499REMSYN194BBXX  44007 07201 99435 70701 46/// /0104 10021 21057 40034 55000 91950 22200 00049 11401 311// 41401 70004 333 91205 555 11040 22042 31852 43405 61949 010038 336035 339041 347035 330037 340043;
0245992780999992010010721004+43533-070083FM-18+0000DB278V0203601N003019999999N9999999N1+00181-00571100381ADDMD1310091+9999OA159900401SA1+0479REMSYN200BBXX  44007 07211 99435 70701 46/// /3603 10018 21057 40038 53009 92050 22200 00047 11401 20301 309// 41401 70004 333 91204 555 11035 22036 31955 40205 62049 358034 002035 001030 014035 026034 018041;
0245992780999992010010722004+43533-070083FM-18+0000DB278V0203501N005019999999N9999999N1+00141-00571100431ADDMD1210141+9999OA159900601SA1+0479REMSYN200BBXX  44007 07221 99435 70701 46/// /3505 10014 21057 40043 52014 92150 22200 00047 11201 20301 314// 41201 70004 333 91206 555 11054 22056 32107 43607 62149 346052 342051 346050 351050 000052 352039;
0245992780999992010010723004+43533-070083FM-18+0000DB278V0203301N006019999999N9999999N1+00071-00591100501ADDMD1310161+9999OA159900701SA1+0469REMSYN200BBXX  44007 07231 99435 70701 46/// /3306 10007 21059 40050 53016 92250 22200 00046 11301 20401 334// 41301 70005 333 91207 555 11062 22064 32247 43307 62249 328059 330055 337045 337050 343054 348061;
0245992780999992010010800004+43533-070083FM-18+0000DB278V0203301N006019999999N9999999N1-00021-00591100581ADDMD1310201+9999OA159900701SA1+0469REMSYN200BBXX  44007 08001 99435 70701 46/// /3306 11002 21059 40058 53020 92350 22200 00046 11301 20301 309// 41301 70005 333 91207 555 11065 22067 32315 43408 62349 326061 333057 334063 337066 332055 326057;
0245992780999992010010801004+43533-070083FM-18+0000DB278V0203301N006019999999N9999999N1-00111-00621100631ADDMD1110201+9999OA159900701SA1+0459REMSYN200BBXX  44007 08011 99435 70701 46/// /3306 11011 21062 40063 51020 90050 22200 00045 11301 20301 333// 41301 70005 333 91207 555 11064 22066 30018 43308 60049 334060 337065 333069 337071 339060 338057;
0245992780999992010010802004+43533-070083FM-18+0000DB278V0203401N007019999999N9999999N1-00221-00741100671ADDMD1110171+9999OA159900901SA1+0449REMSYN200BBXX  44007 08021 99435 70701 46/// /3407 11022 21074 40067 51017 90150 22200 00044 11101 20301 300// 41101 70005 333 91209 555 11078 22081 30143 43409 60149 337074 345074 346067 342057 339054 338060;
0245992780999992010010803004+43533-070083FM-18+0000DB278V0203301N007019999999N9999999N1-00291-00821100701ADDMD1110121+9999OA159900901SA1+0459REMSYN200BBXX  44007 08031 99435 70701 46/// /3307 11029 21082 40070 51012 90250 22200 00045 11401 20301 303// 41401 70005 333 91209 555 11075 22078 30205 43209 60249 329073 328068 331073 330076 330076 331075;
0245992780999992010010804004+43533-070083FM-18+0000DB278V0203301N006019999999N9999999N1-00331-00851100731ADDMD1110101+9999OA159900801SA1+0469REMSYN200BBXX  44007 08041 99435 70701 46/// /3306 11033 21085 40073 51010 90350 22200 00046 11001 20301 310// 41001 70004 333 91208 555 11067 22069 30302 43308 60349 327065 330058 324052 323056 327064 330067;
0239992780999992010010805004+43533-070083FM-18+0000DB278V0203101N005019999999N9999999N1-00391-00951100761ADDMD1210091+9999OA159900701SA1+0459REMSYN194BBXX  44007 08051 99435 70701 46/// /3105 11039 21095 40076 52009 90450 22200 00045 11401 312// 41401 70004 333 91207 555 11050 22051 30356 43208 60449 307049 306051 317057 315058 316060 327067;
0239992780999992010010806004+43533-070083FM-18+0000DB278V0203201N004019999999N9999999N1-00401-00951100701ADDMD1010001+9999OA159900601SA1+0439REMSYN194BBXX  44007 08061 99435 70701 46/// /3204 11040 21095 40070 50000 90550 22200 00043 11501 310// 41501 70003 333 91206 555 11044 22045 30522 43307 60549 319044 320048 325052 322048 319046 317046;
0239992780999992010010807004+43533-070083FM-18+0000DB278V0202901N003019999999N9999999N1-00431-00911100741ADDMD1510001+9999OA159900401SA1+0439REMSYN194BBXX  44007 08071 99435 70701 46/// /2903 11043 21091 40074 55000 90650 22200 00043 11401 301// 41401 70003 333 91204 555 11032 22033 30604 43107 60649 292030 297029 299035 309040 323046 321044;
0239992780999992010010808004+43533-070083FM-18+0000DB278V0202801N003019999999N9999999N1-00411-00841100721ADDMD1610041+9999OA159900401SA1+0429REMSYN194BBXX  44007 08081 99435 70701 46/// /2803 11041 21084 40072 56004 90750 22200 00042 11301 309// 41301 70003 333 91204 555 11031 22031 30741 42905 60749 284031 288034 302030 297028 284033 287030;
0239992780999992010010809004+43533-070083FM-18+0000DB278V0202901N004019999999N9999999N1-00431-00841100681ADDMD1010001+9999OA159900501SA1+0419REMSYN194BBXX  44007 08091 99435 70701 46/// /2904 11043 21084 40068 50000 90850 22200 00041 11301 331// 41301 70003 333 91205 555 11040 22041 30847 42905 60849 288039 286035 280035 284030 288026 284029;
0239992780999992010010810004+43533-070083FM-18+0000DB278V0203201N004019999999N9999999N1-00431-01041100631ADDMD1810111+9999OA159900501SA1+0419REMSYN194BBXX  44007 08101 99435 70701 46/// /3204 11043 21104 40063 58011 90950 22200 00041 11301 317// 41301 70003 333 91205 555 11042 22043 30850 43306 60949 326041 316037 305033 298028 289033 286034;
0239992780999992010010811004+43533-070083FM-18+0000DB278V0203501N005019999999N9999999N1-00461-01011100631ADDMD1610091+9999OA159900601SA1+0419REMSYN194BBXX  44007 08111 99435 70701 46/// /3505 11046 21101 40063 56009 91050 22200 00041 11301 304// 41301 70003 333 91206 555 11048 22049 31003 43407 61049 346046 343045 347047 348047 340053 338047;
0239992780999992010010812004+43533-070083FM-18+0000DB278V0203601N003019999999N9999999N1-00431-00981100671ADDMD1510001+9999OA159900501SA1+0419REMSYN194BBXX  44007 08121 99435 70701 46/// /3603 11043 21098 40067 55000 91150 22200 00041 11101 309// 41101 70003 333 91205 555 11034 22035 31051 40106 61149 002033 000030 359035 348036 000039 357045;
0231992780999992010010813004+43533-070083FM-18+0000DB278V0203601N004019999999N9999999N1-00411-00981100671ADDMD1210041+9999OA159900501REMSYN194BBXX  44007 08131 99435 70701 46/// /3604 11041 21098 40067 52004 91250 22200 00040 11101 335// 41101 70003 333 91205 555 11039 22040 31236 40206 61249 000038 010037 026034 016033 018038 008036;
0239992780999992010010814004+43533-070083FM-18+0000DB278V0200101N006019999999N9999999N1-00421-00941100621ADDMD1010001+9999OA159900701SA1+0399REMSYN194BBXX  44007 08141 99435 70701 46/// /0106 11042 21094 40062 50000 91350 22200 00039 11101 310// 41101 70004 333 91207 555 11059 22061 31340 43608 61349 007058 007051 011045 005038 004041 000040;
0239992780999992010010815004+43533-070083FM-18+0000DB278V0200101N005019999999N9999999N1-00431-00961100641ADDMD1710031+9999OA159900601SA1+0399REMSYN194BBXX  44007 08151 99435 70701 46/// /0105 11043 21096 40064 57003 91450 22200 00039 11101 332// 41101 70004 333 91206 555 11052 22053 31353 43607 61449 007050 006050 006046 019049 021054 002058;
0239992780999992010010816004+43533-070083FM-18+0000DB278V0203601N005019999999N9999999N1-00481-00891100581ADDMD1810091+9999OA159900601SA1+0399REMSYN194BBXX  44007 08161 99435 70701 46/// /3605 11048 21089 40058 58009 91550 22200 00039 11101 308// 41101 70004 333 91206 555 11051 22052 31505 40107 61549 356048 005047 011051 008050 005055 019048;
0231992780999992010010817004+43533-070083FM-18+0000DB278V0203501N005019999999N9999999N1-00521-00801100451ADDMD1810171+9999OA159900701REMSYN194BBXX  44007 08171 99435 70701 46/// /3505 11052 21080 40045 58017 91650 22200 00040 11101 313// 41101 70004 333 91207 555 11055 22057 31610 40107 61649 351053 356051 359052 357051 000050 004047;
0231992780999992010010818004+43533-070083FM-18+0000DB278V0203501N005019999999N9999999N1-00531-00751100361ADDMD1810281+9999OA159900701REMSYN194BBXX  44007 08181 99435 70701 46/// /3505 11053 21075 40036 58028 91750 22200 00040 10901 311// 40901 70004 333 91207 555 11053 22054 31730 43507 61749 354051 350052 352053 000052 357049 002052;
0239992780999992010010819004+43533-070083FM-18+0000DB278V0203401N004019999999N9999999N1-00491-00761100311ADDMD1610271+9999OA159900701SA1+0419REMSYN194BBXX  44007 08191 99435 70701 46/// /3404 11049 21076 40031 56027 91850 22200 00041 10801 312// 40801 70004 333 91207 555 11043 22044 31844 43407 61849 342044 347045 348048 353047 349050 355050;
0239992780999992010010820004+43533-070083FM-18+0000DB278V0203301N005019999999N9999999N1-00461-00791100301ADDMD1610151+9999OA159900601SA1+0419REMSYN194BBXX  44007 08201 99435 70701 46/// /3305 11046 21079 40030 56015 91950 22200 00041 11001 309// 41001 70004 333 91206 555 11046 22048 31855 43506 61949 330046 342044 342045 335043 343045 347042;
0239992780999992010010821004+43533-070083FM-18+0000DB278V0203401N007019999999N9999999N1-00411-00791100301ADDMD1610061+9999OA159900801SA1+0419REMSYN194BBXX  44007 08211 99435 70701 46/// /3407 11041 21079 40030 56006 92050 22200 00041 11201 315// 41201 70004 333 91208 555 11069 22071 32042 43508 62049 346066 353055 337054 339051 341045 344049;
0245992780999992010010822004+43533-070083FM-18+0000DB278V0203501N006019999999N9999999N1-00461-00691100331ADDMD1510001+9999OA159900801SA1+0429REMSYN200BBXX  44007 08221 99435 70701 46/// /3506 11046 21069 40033 55000 92150 22200 00042 10801 20301 314// 40801 70004 333 91208 555 11058 22060 32121 43509 62149 348057 344065 340064 338067 332060 338058;
0245992780999992010010823004+43533-070083FM-18+0000DB278V0203301N006019999999N9999999N1-00461-00641100351ADDMD1210051+9999OA159900801SA1+0429REMSYN200BBXX  44007 08231 99435 70701 46/// /3306 11046 21064 40035 52005 92250 22200 00042 11201 20301 336// 41201 70004 333 91208 555 11067 22069 32226 43208 62249 324064 334061 330065 327062 330058 340062;
0245992780999992010010900004+43533-070083FM-18+0000DB278V0203301N007019999999N9999999N1-00441-00611100381ADDMD1210081+9999OA159900801SA1+0439REMSYN200BBXX  44007 09001 99435 70701 46/// /3307 11044 21061 40038 52008 92350 22200 00043 11001 20301 313// 41001 70004 333 91208 555 11070 22072 32317 43409 62349 332068 335071 342072 339073 337072 328061;
0245992780999992010010901004+43533-070083FM-18+0000DB278V0203401N008019999999N9999999N1-00421-00641100411ADDMD1310081+9999OA159901101SA1+0449REMSYN200BBXX  44007 09011 99435 70701 46/// /3408 11042 21064 40041 53008 90050 22200 00044 11201 20301 312// 41201 70005 333 91211 555 11087 22090 30036 43411 60049 338083 342078 332074 336068 339071 336071;
0245992780999992010010902004+43533-070083FM-18+0000DB278V0203401N009019999999N9999999N1-00411-00701100471ADDMD1310121+9999OA159901101SA1+0449REMSYN200BBXX  44007 09021 99435 70701 46/// /3409 11041 21070 40047 53012 90150 22200 00044 10301 20301 314// 41001 70006 333 91211 555 11090 22094 30128 43512 60149 341086 341088 342094 337091 342084 343082;
0245992780999992010010903004+43533-070083FM-18+0000DB278V0203401N008019999999N9999999N1-00371-00791100501ADDMD1210121+9999OA159901101SA1+0449REMSYN200BBXX  44007 09031 99435 70701 46/// /3408 11037 21079 40050 52012 90250 22200 00044 11201 20301 334// 41201 70005 333 91211 555 11088 22092 30243 43311 60249 336085 331080 330077 332075 343084 340087;
0245992780999992010010904004+43533-070083FM-18+0000DB278V0203401N010019999999N9999999N1-00331-00781100551ADDMD1110141+9999OA159901301SA1+0449REMSYN200BBXX  44007 09041 99435 70701 46/// /3410 11033 21078 40055 51014 90350 22200 00044 11201 20301 336// 41201 70006 333 91213 555 11101 22105 30346 43413 60349 335096 331093 332096 338095 332089 336089;
0245992780999992010010905004+43533-070083FM-18+0000DB278V0203301N009019999999N9999999N1-00371-00861100571ADDMD1110101+9999OA159901201SA1+0459REMSYN200BBXX  44007 09051 99435 70701 46/// /3309 11037 21086 40057 51010 90450 22200 00045 10301 20301 330// 41001 70006 333 91212 555 11098 22102 30441 43212 60449 329094 327091 329095 330093 331094 330098;
0245992780999992010010906004+43533-070083FM-18+0000DB278V0203301N010019999999N9999999N1-00401-00831100601ADDMD1110101+9999OA159901201SA1+0459REMSYN200BBXX  44007 09061 99435 70701 46/// /3310 11040 21083 40060 51010 90550 22200 00045 10301 20301 334// 41001 70006 333 91212 555 11101 22105 30532 43313 60549 327097 329105 325091 325091 330100 326089;
0245992780999992010010907004+43533-070083FM-18+0000DB278V0203201N010019999999N9999999N1-00401-00881100641ADDMD1310091+9999OA159901201SA1+0459REMSYN200BBXX  44007 09071 99435 70701 46/// /3210 11040 21088 40064 53009 90650 22200 00045 10301 20301 309// 41101 70006 333 91212 555 11106 22111 30556 43314 60649 323101 324103 321090 321098 328103 329103;
0233992780999992010010908004+43533-070083FM-18+0000DB278V0203201N009019999999N9999999N1-00341-00881100701ADDMD1310131+9999OA159901201SA1+0459REMSYN188BBXX  44007 09081 99435 70701 46/// /3209 11034 21088 40070 53013 90750 22200 00045 10301 20301 70006 333 91212 555 11096 22100 30707 43213 60749 319092 322096 321099 319101 323104 326103;
0245992780999992010010909004+43533-070083FM-18+0000DB278V0203201N009019999999N9999999N1-00351-00911100731ADDMD1110131+9999OA159901201SA1+0459REMSYN200BBXX  44007 09091 99435 70701 46/// /3209 11035 21091 40073 51013 90850 22200 00045 10301 20301 310// 41001 70005 333 91212 555 11099 22103 30756 43312 60849 322094 321094 317093 318094 317091 318099;
0245992780999992010010910004+43533-070083FM-18+0000DB278V0203101N008019999999N9999999N1-00431-01011100811ADDMD1310171+9999OA159901001SA1+0459REMSYN200BBXX  44007 09101 99435 70701 46/// /3108 11043 21101 40081 53017 90950 22200 00045 10301 20301 314// 41201 70005 333 91210 555 11086 22089 30923 43213 60949 313082 322083 324095 325103 327102 325097;
0233992780999992010010911004+43533-070083FM-18+0000DB278V0203101N006019999999N9999999N1-00541-00991100911ADDMD1310211+9999OA159900701SA1+0459REMSYN188BBXX  44007 09111 99435 70701 46/// /3106 11054 21099 40091 53021 91050 22200 00045 11101 20301 70004 333 91207 555 11061 22063 31000 43411 61049 304059 294066 307065 295064 309074 320079;
0233992780999992010010912004+43533-070083FM-18+0000DB278V0203101N006019999999N9999999N1-00561-01001100991ADDMD1210261+9999OA159900701SA1+0459REMSYN188BBXX  44007 09121 99435 70701 46/// /3106 11056 21100 40099 52026 91150 22200 00045 11101 20301 70004 333 91207 555 11060 22062 31116 43109 61149 310059 306068 303069 306067 306061 308056;
0233992780999992010010913004+43533-070083FM-18+0000DB278V0203201N007019999999N9999999N1-00551-01021101071ADDMD1110261+9999OA159901001SA1+0449REMSYN188BBXX  44007 09131 99435 70701 46/// /3207 11055 21102 40107 51026 91250 22200 00044 11101 20301 70004 333 91210 555 11077 22080 31226 43210 61249 320073 325070 321067 326060 308057 314060;
0233992780999992010010914004+43533-070083FM-18+0000DB278V0203201N009019999999N9999999N1-00501-01071101151ADDMD1210241+9999OA159901101SA1+0439REMSYN188BBXX  44007 09141 99435 70701 46/// /3209 11050 21107 40115 52024 91350 22200 00043 10301 20301 70004 333 91211 555 11089 22093 31324 43313 61349 320086 324094 325099 320078 309086 316085;
0233992780999992010010915004+43533-070083FM-18+0000DB278V0203301N011019999999N9999999N1-00541-01171101191ADDMD1110201+9999OA159901301SA1+0439REMSYN188BBXX  44007 09151 99435 70701 46/// /3311 11054 21117 40119 51020 91450 22200 00043 10301 20301 70006 333 91213 555 11113 22118 31434 43313 61449 329107 323110 321102 317103 319093 322097;
0233992780999992010010916004+43533-070083FM-18+0000DB278V0203201N010019999999N9999999N1-00551-01261101221ADDMD1110151+9999OA159901301SA1+0439REMSYN188BBXX  44007 09161 99435 70701 46/// /3210 11055 21126 40122 51015 91550 22200 00043 10301 20301 70007 333 91213 555 11109 22114 31515 43313 61549 320103 328095 333104 331109 322104 323109;
0233992780999992010010917004+43533-070083FM-18+0000DB278V0203001N009019999999N9999999N1-00551-01301101221ADDMD1110071+9999OA159901101SA1+0439REMSYN188BBXX  44007 09171 99435 70701 46/// /3009 11055 21130 40122 51007 91650 22200 00043 10301 20301 70006 333 91211 555 11093 22097 31557 43213 61649 304089 314089 317089 326091 326096 323095;
0233992780999992010010918004+43533-070083FM-18+0000DB278V0203301N010019999999N9999999N1-00491-01311101201ADDMD1010001+9999OA159901201SA1+0439REMSYN188BBXX  44007 09181 99435 70701 46/// /3310 11049 21131 40120 50000 91750 22200 00043 10301 20301 70005 333 91212 555 11104 22109 31737 43312 61749 326099 319088 314084 315085 314081 315080;
0233992780999992010010919004+43533-070083FM-18+0000DB278V0203101N009019999999N9999999N1-00451-01311101221ADDMD1410001+9999OA159901101SA1+0429REMSYN188BBXX  44007 09191 99435 70701 46/// /3109 11045 21131 40122 54000 91850 22200 00042 10301 20301 70005 333 91211 555 11098 22102 31815 43212 61849 308092 318090 327092 329095 320091 321092;
0233992780999992010010920004+43533-070083FM-18+0000DB278V0203201N010019999999N9999999N1-00441-01361101241ADDMD1410001+9999OA159901201SA1+0419REMSYN188BBXX  44007 09201 99435 70701 46/// /3210 11044 21136 40124 54000 91950 22200 00041 10301 20301 70006 333 91212 555 11107 22112 31930 43314 61949 321102 326107 321112 327093 313099 308094;
0233992780999992010010921004+43533-070083FM-18+0000DB278V0203301N010019999999N9999999N1-00451-01401101321ADDMD1310121+9999OA159901201SA1+0419REMSYN188BBXX  44007 09211 99435 70701 46/// /3310 11045 21140 40132 53012 92050 22200 00041 10301 20301 70006 333 91212 555 11104 22109 31957 43215 62049 326099 329099 325108 325110 322119 321115;
0233992780999992010010922004+43533-070083FM-18+0000DB278V0203301N010019999999N9999999N1-00501-01371101391ADDMD1310171+9999OA159901201SA1+0429REMSYN188BBXX  44007 09221 99435 70701 46/// /3310 11050 21137 40139 53017 92150 22200 00042 10301 20301 70006 333 91212 555 11106 22111 32119 43114 62149 333100 334099 332105 324110 323084 336088;
0233992780999992010010923004+43533-070083FM-18+0000DB278V0203301N012019999999N9999999N1-00541-01351101431ADDMD1110191+9999OA159901501SA1+0439REMSYN188BBXX  44007 09231 99435 70701 46/// /3312 11054 21135 40143 51019 92250 22200 00043 10401 20401 70007 333 91215 555 11129 22135 32218 43315 62249 330121 328119 331114 329121 328116 330106;
0233992780999992010011000004+43533-070083FM-18+0000DB278V0203401N011019999999N9999999N1-00651-01351101561ADDMD1310241+9999OA159901301SA1+0439REMSYN188BBXX  44007 10001 99435 70701 46/// /3411 11065 21135 40156 53024 92350 22200 00043 10301 20301 70006 333 91213 555 11115 22120 32251 43415 62349 340108 338109 339115 342109 336111 332121;
0233992780999992010011001004+43533-070083FM-18+0000DB278V0203501N012019999999N9999999N1-00791-01471101661ADDMD1310271+9999OA159901501SA1+0439REMSYN188BBXX  44007 10011 99435 70701 46/// /3512 11079 21147 40166 53027 90050 22200 00043 10301 20301 70007 333 91215 555 11125 22131 30036 43515 60049 344119 348123 346108 348100 343108 347107;
0233992780999992010011002004+43533-070083FM-18+0000DB278V0203401N011019999999N9999999N1-00901-01511101751ADDMD1110321+9999OA159901401SA1+0429REMSYN188BBXX  44007 10021 99435 70701 46/// /3411 11090 21151 40175 51032 90150 22200 00042 10402 20402 70008 333 91214 555 11116 22121 30128 43415 60149 341112 342111 348116 348116 350114 352114;
0233992780999992010011003004+43533-070083FM-18+0000DB278V0203501N010019999999N9999999N1-00941-01551101821ADDMD1110261+9999OA159901301SA1+0429REMSYN188BBXX  44007 10031 99435 70701 46/// /3510 11094 21155 40182 51026 90250 22200 00042 10302 20301 70008 333 91213 555 11108 22113 30227 43614 60249 348102 345101 348104 351107 347109 342113;
0233992780999992010011004004+43533-070083FM-18+0000DB278V0203301N008019999999N9999999N1-00981-01661101901ADDMD1110241+9999OA159901001SA1+0429REMSYN188BBXX  44007 10041 99435 70701 46/// /3308 11098 21166 40190 51024 90350 22200 00042 10301 20301 70006 333 91210 555 11083 22086 30258 43613 60349 330080 330079 333082 341088 343090 350102;
0245992780999992010011005004+43533-070083FM-18+0000DB278V0203401N009019999999N9999999N1-00961-01651101901ADDMD1110151+9999OA159901201SA1+0419REMSYN200BBXX  44007 10051 99435 70701 46/// /3409 11096 21165 40190 51015 90450 22200 00041 10901 20301 312// 40901 70005 333 91212 555 11096 22100 30447 43312 60449 343091 341081 335079 332079 332080 330080;
0245992780999992010011006004+43533-070083FM-18+0000DB278V0203301N008019999999N9999999N1-00951-01631101901ADDMD1110081+9999OA159901001SA1+0419REMSYN200BBXX  44007 10061 99435 70701 46/// /3308 11095 21163 40190 51008 90550 22200 00041 11101 20301 312// 41101 70005 333 91210 555 11085 22088 30453 43612 60549 330082 331084 328084 337085 346088 344089;
0245992780999992010011007004+43533-070083FM-18+0000DB278V0203301N009019999999N9999999N1-00941-01621101891ADDMD1410001+9999OA159901101SA1+0419REMSYN200BBXX  44007 10071 99435 70701 46/// /3309 11094 21162 40189 54000 90650 22200 00041 10301 20301 303// 41101 70006 333 91211 555 11097 22101 30639 43213 60649 327091 327099 327093 328090 329083 332081;
0245992780999992010011008004+43533-070083FM-18+0000DB278V0203101N007019999999N9999999N1-01011-01691101921ADDMD1510001+9999OA159900901SA1+0419REMSYN200BBXX  44007 10081 99435 70701 46/// /3107 11101 21169 40192 55000 90750 22200 00041 11101 20301 312// 41101 70005 333 91209 555 11070 22072 30651 43211 60749 311068 316076 321071 322076 323088 328092;
0245992780999992010011009004+43533-070083FM-18+0000DB278V0203501N009019999999N9999999N1-00931-01581101871ADDMD1810031+9999OA159901001SA1+0419REMSYN200BBXX  44007 10091 99435 70701 46/// /3509 11093 21158 40187 58003 90850 22200 00041 11101 20301 301// 41101 70005 333 91210 555 11091 22094 30832 43512 60849 345087 346087 333077 328077 321068 321067;
0245992780999992010011010004+43533-070083FM-18+0000DB278V0203401N009019999999N9999999N1-00941-01551101871ADDMD1010001+9999OA159901101SA1+0419REMSYN200BBXX  44007 10101 99435 70701 46/// /3409 11094 21155 40187 50000 90950 22200 00041 10301 20301 303// 41001 70006 333 91211 555 11091 22094 30900 43412 60949 336087 347085 344088 344087 342092 341094;
0245992780999992010011011004+43533-070083FM-18+0000DB278V0203201N006019999999N9999999N1-01021-01671101951ADDMD1310031+9999OA159900701SA1+0429REMSYN200BBXX  44007 10111 99435 70701 46/// /3206 11102 21167 40195 53003 91050 22200 00042 11101 20301 316// 41101 70005 333 91207 555 11060 22062 31027 43310 61049 318058 323061 323066 325070 326072 333075;
0245992780999992010011012004+43533-070083FM-18+0000DB278V0203201N004019999999N9999999N1-01021-01631102011ADDMD1310141+9999OA159900601SA1+0429REMSYN200BBXX  44007 10121 99435 70701 46/// /3204 11102 21163 40201 53014 91150 22200 00042 11101 20301 314// 41101 70004 333 91206 555 11045 22046 31051 43208 61149 316045 323049 320044 309044 315050 318054;
0245992780999992010011013004+43533-070083FM-18+0000DB278V0203101N005019999999N9999999N1-01021-01521102031ADDMD1110161+9999OA159900701SA1+0429REMSYN200BBXX  44007 10131 99435 70701 46/// /3105 11102 21152 40203 51016 91250 22200 00042 11101 20301 313// 41101 70005 333 91207 555 11056 22057 31226 43107 61249 312054 307050 312056 319053 313045 306043;
0245992780999992010011014004+43533-070083FM-18+0000DB278V0203301N006019999999N9999999N1-00861-01541102081ADDMD1110131+9999OA159900801SA1+0429REMSYN200BBXX  44007 10141 99435 70701 46/// /3306 11086 21154 40208 51013 91350 22200 00042 11101 20301 314// 41101 70005 333 91208 555 11059 22061 31326 43310 61349 329060 341079 336074 312046 314049 310051;
0245992780999992010011015004+43533-070083FM-18+0000DB278V0203401N006019999999N9999999N1-00811-01651102081ADDMD1210071+9999OA159900801SA1+0429REMSYN200BBXX  44007 10151 99435 70701 46/// /3406 11081 21165 40208 52007 91450 22200 00042 11001 20301 314// 41001 70005 333 91208 555 11064 22066 31402 43109 61449 341063 342057 335058 320058 328062 340068;
0245992780999992010011016004+43533-070083FM-18+0000DB278V0203201N006019999999N9999999N1-00801-01761102051ADDMD1010001+9999OA159900801SA1+0419REMSYN200BBXX  44007 10161 99435 70701 46/// /3206 11080 21176 40205 50000 91550 22200 00041 11101 20301 333// 41101 70004 333 91208 555 11057 22059 31537 43209 61549 325057 327070 324071 327065 334064 335061;
0231992780999992010011017004+43533-070083FM-18+0000DB278V0203101N005019999999N9999999N1-00721-01681101971ADDMD1810111+9999OA159900601REMSYN194BBXX  44007 10171 99435 70701 46/// /3105 11072 21168 40197 58011 91650 22200 00040 11201 311// 41201 70004 333 91206 555 11047 22049 31553 43207 61649 309046 327039 317040 310041 313049 318052;
0239992780999992010011018004+43533-070083FM-18+0000DB278V0203001N005019999999N9999999N1-00621-01641101881ADDMD1810201+9999OA159900601SA1+0379REMSYN194BBXX  44007 10181 99435 70701 46/// /3005 11062 21164 40188 58020 91750 22200 00037 11201 308// 41201 70004 333 91206 555 11051 22052 31706 43107 61749 297050 298041 302034 295047 297049 290054;
0239992780999992010011019004+43533-070083FM-18+0000DB278V0202701N004019999999N9999999N1-00481-01591101831ADDMD1610221+9999OA159900501SA1+0369REMSYN194BBXX  44007 10191 99435 70701 46/// /2704 11048 21159 40183 56022 91850 22200 00036 11101 310// 41101 70004 333 91205 555 11041 22042 31833 42906 61849 272040 282043 281035 276031 297031 289037;
0239992780999992010011020004+43533-070083FM-18+0000DB278V0203001N005019999999N9999999N1-00381-01691101801ADDMD1610171+9999OA159900601SA1+0359REMSYN194BBXX  44007 10201 99435 70701 46/// /3005 11038 21169 40180 56017 91950 22200 00035 11101 309// 41101 70004 333 91206 555 11049 22050 31904 43107 61949 296047 291047 305042 300042 314050 303044;
0239992780999992010011021004+43533-070083FM-18+0000DB278V0202901N005019999999N9999999N1-00351-01661101781ADDMD1610101+9999OA159900601SA1+0359REMSYN194BBXX  44007 10211 99435 70701 46/// /2905 11035 21166 40178 56010 92050 22200 00035 11101 310// 41101 70003 333 91206 555 11052 22053 32013 42908 62049 288049 285049 299046 300047 300053 297047;
0239992780999992010011022004+43533-070083FM-18+0000DB278V0202901N003019999999N9999999N1-00381-01731101791ADDMD1610041+9999OA159900501SA1+0359REMSYN194BBXX  44007 10221 99435 70701 46/// /2903 11038 21173 40179 56004 92150 22200 00035 11101 312// 41101 70003 333 91205 555 11034 22035 32051 42907 62149 295032 310034 309033 312036 302039 298043;
0239992780999992010011023004+43533-070083FM-18+0000DB278V0203301N005019999999N9999999N1-00451-01701101791ADDMD1410001+9999OA159900701SA1+0369REMSYN194BBXX  44007 10231 99435 70701 46/// /3305 11045 21170 40179 54000 92250 22200 00036 11201 336// 41201 70003 333 91207 555 11055 22057 32220 43407 62249 327053 335049 343053 337051 330045 321037;
0227992780999992010011100004+43533-070083FM-18+0000DB278V0203401N005019999999N9999999N1-00501-01511101801ADDMD1410001+9999OA159900701SA1+0389REMSYN182BBXX  44007 11001 99435 70701 46/// /3405 11050 21151 40180 54000 92350 22200 00038 11101 70003 333 91207 555 11055 22057 32338 43308 62349 342053 336055 329052 329052 332054 337053;
0227992780999992010011101004+43533-070083FM-18+0000DB278V0203001N005019999999N9999999N1-00501-01641101801ADDMD1410001+9999OA159900601SA1+0399REMSYN182BBXX  44007 11011 99435 70701 46/// /3005 11050 21164 40180 54000 90050 22200 00039 11101 70003 333 91206 555 11053 22054 30047 42906 60049 299050 307047 315046 323048 331046 343046;
0227992780999992010011102004+43533-070083FM-18+0000DB278V0202801N005019999999N9999999N1-00561-01531101791ADDMD1410001+9999OA159900701SA1+0389REMSYN182BBXX  44007 11021 99435 70701 46/// /2805 11056 21153 40179 54000 90150 22200 00038 11001 70003 333 91207 555 11046 22048 30149 42807 60149 278045 284044 278043 275043 285044 290052;
0227992780999992010011103004+43533-070083FM-18+0000DB278V0202801N006019999999N9999999N1-00551-01321101751ADDMD1810051+9999OA159900701SA1+0389REMSYN182BBXX  44007 11031 99435 70701 46/// /2806 11055 21132 40175 58005 90250 22200 00038 11101 70003 333 91207 555 11060 22062 30247 42807 60249 280058 274053 278051 280047 274046 278048;
0227992780999992010011104004+43533-070083FM-18+0000DB278V0202801N006019999999N9999999N1-00561-01301101741ADDMD1710061+9999OA159900801SA1+0379REMSYN182BBXX  44007 11041 99435 70701 46/// /2806 11056 21130 40174 57006 90350 22200 00037 10901 70003 333 91208 555 11064 22067 30346 42908 60349 281062 278058 283056 280056 281055 279056;
0239992780999992010011105004+43533-070083FM-18+0000DB278V0203001N006019999999N9999999N1-00601-01361101701ADDMD1710091+9999OA159900801SA1+0349REMSYN194BBXX  44007 11051 99435 70701 46/// /3006 11060 21136 40170 57009 90450 22200 00034 10901 315// 40901 70004 333 91208 555 11061 22063 30401 42808 60449 297059 297057 294056 288061 287064 282063;
0239992780999992010011106004+43533-070083FM-18+0000DB278V0202901N005019999999N9999999N1-00591-01311101671ADDMD1810081+9999OA159900601SA1+0339REMSYN194BBXX  44007 11061 99435 70701 46/// /2905 11059 21131 40167 58008 90550 22200 00033 11101 311// 41101 70003 333 91206 555 11051 22052 30453 43007 60549 291049 288053 289057 292051 295056 295058;
0239992780999992010011107004+43533-070083FM-18+0000DB278V0202901N004019999999N9999999N1-00561-01171101671ADDMD1610071+9999OA159900501SA1+0339REMSYN194BBXX  44007 11071 99435 70701 46/// /2904 11056 21117 40167 56007 90650 22200 00033 11001 310// 41001 70003 333 91205 555 11042 22043 30610 42906 60649 293041 292045 293048 293051 292051 291051;
0239992780999992010011108004+43533-070083FM-18+0000DB278V0202901N004019999999N9999999N1-00571-01211101651ADDMD1610051+9999OA159900501SA1+0329REMSYN194BBXX  44007 11081 99435 70701 46/// /2904 11057 21121 40165 56005 90750 22200 00032 11001 314// 41001 70003 333 91205 555 11045 22047 30748 42905 60749 286044 283040 288043 290045 295040 292043;
0239992780999992010011109004+43533-070083FM-18+0000DB278V0202601N004019999999N9999999N1-00521-01111101611ADDMD1810061+9999OA159900501SA1+0319REMSYN194BBXX  44007 11091 99435 70701 46/// /2604 11052 21111 40161 58006 90850 22200 00031 11001 310// 41001 70004 333 91205 555 11037 22038 30753 42805 60849 262036 268036 273036 281036 277036 275041;
0219992780999992010011110004+43533-070083FM-18+0000DB278V0202801N006019999999N9999999N1-00481-00991101591ADDMD1710081+9999OA159900701REMSYN182BBXX  44007 11101 99435 70701 46/// /2806 11048 21099 40159 57008 90950 22200 00030 10901 70003 333 91207 555 11057 22059 30944 42907 60949 278054 273048 273044 255041 253039 258037;
0225992780999992010011111004+43533-070083FM-18+0000DB278V0202801N005019999999N9999999N1-00511-00961101561ADDMD1610091+9999OA159900601REMSYN188BBXX  44007 11111 99435 70701 46/// /2805 11051 21096 40156 56009 91050 22200 00030 11001 20301 70003 333 91206 555 11055 22057 31002 42807 61049 277053 280057 278051 279049 282047 279051;
0225992780999992010011112004+43533-070083FM-18+0000DB278V0202801N006019999999N9999999N1-00451-00841101551ADDMD1710061+9999OA159900701REMSYN188BBXX  44007 11121 99435 70701 46/// /2806 11045 21084 40155 57006 91150 22200 00030 10901 20301 70004 333 91207 555 11058 22060 31050 42807 61149 276056 272051 273057 271050 274053 278053;
0225992780999992010011113004+43533-070083FM-18+0000DB278V0202801N006019999999N9999999N1-00421-00771101561ADDMD1610031+9999OA159900701REMSYN188BBXX  44007 11131 99435 70701 46/// /2806 11042 21077 40156 56003 91250 22200 00030 10301 20301 70004 333 91207 555 11062 22065 31211 42808 61249 276061 271060 268064 271067 272064 273063;
0233992780999992010011114004+43533-070083FM-18+0000DB278V0202701N005019999999N9999999N1-00391-00791101551ADDMD1410001+9999OA159900501SA1+0319REMSYN188BBXX  44007 11141 99435 70701 46/// /2705 11039 21079 40155 54000 91350 22200 00031 10401 20401 70004 333 91205 555 11047 22048 31251 42707 61349 275045 275047 268045 273038 286037 274051;
0233992780999992010011115004+43533-070083FM-18+0000DB278V0203001N003019999999N9999999N1-00381-00851101571ADDMD1410001+9999OA159900401SA1+0339REMSYN188BBXX  44007 11151 99435 70701 46/// /3003 11038 21085 40157 54000 91450 22200 00033 10401 20401 70004 333 91204 555 11028 22028 31351 42905 61449 301028 297035 294034 289030 292036 287039;
0233992780999992010011116004+43533-070083FM-18+0000DB278V0202501N002019999999N9999999N1-00321-00831101541ADDMD1010001+9999OA159900301SA1+0349REMSYN188BBXX  44007 11161 99435 70701 46/// /2502 11032 21083 40154 50000 91550 22200 00034 10401 20401 70004 333 91203 555 11025 22025 31456 43004 61549 250024 252019 272020 297016 296019 299025;
0227992780999992010011117004+43533-070083FM-18+0000DB278V0202301N002019999999N9999999N1-00191-00731101471ADDMD1810081+9999OA159900201SA1+0339REMSYN182BBXX  44007 11171 99435 70701 46/// /2302 11019 21073 40147 58008 91650 22200 00033 11101 70003 333 91202 555 11017 22018 31559 42403 61649 231017 243022 244023 242019 243025 248025;
0245992780999992010011118004+43533-070083FM-18+0000DB278V0202401N003019999999N9999999N1-00141-00801101391ADDMD1810181+9999OA159900401SA1+0329REMSYN200BBXX  44007 11181 99435 70701 46/// /2403 11014 21080 40139 58018 91750 22200 00032 10401 20401 321// 40401 70004 333 91204 555 11030 22030 31728 42504 61749 243029 239029 251031 248026 239023 228021;
0245992780999992010011119004+43533-070083FM-18+0000DB278V0202301N001019999999N9999999N1-00081-00811101351ADDMD1610191+9999OA159900201SA1+0339REMSYN200BBXX  44007 11191 99435 70701 46/// /2301 11008 21081 40135 56019 91850 22200 00033 10301 20301 310// 41001 70004 333 91202 555 11013 22013 31755 42404 61849 231013 226016 240013 241020 251023 241027;
0239992780999992010011120004+43533-070083FM-18+0000DB278V0202201N002019999999N9999999N1-00041-00781101351ADDMD1610121+9999OA159900201SA1+0339REMSYN194BBXX  44007 11201 99435 70701 46/// /2202 11004 21078 40135 56012 91950 22200 00033 10901 312// 40901 70004 333 91202 555 11017 22018 31948 42302 61949 223017 232018 235013 232010 234010 241013;
0245992780999992010011121004+43533-070083FM-18+0000DB278V0202801N003019999999N9999999N1+00021-00761101361ADDMD1610031+9999OA159900501SA1+0339REMSYN200BBXX  44007 11211 99435 70701 46/// /2803 10002 21076 40136 56003 92050 22200 00033 11001 20401 309// 41001 70004 333 91205 555 11035 22036 32049 42705 62049 271033 222018 228023 216019 215019 228018;
0245992780999992010011122004+43533-070083FM-18+0000DB278V0202801N003019999999N9999999N1+00051-00801101331ADDMD1010001+9999OA159900401SA1+0339REMSYN200BBXX  44007 11221 99435 70701 46/// /2803 10005 21080 40133 50000 92150 22200 00033 10401 20401 314// 40901 70004 333 91204 555 11029 22030 32052 42806 62149 281028 282033 284038 287036 283041 278045;
0233992780999992010011123004+43533-070083FM-18+0000DB278V0202801N006019999999N9999999N1+00061-00731101331ADDMD1410001+9999OA159900701SA1+0339REMSYN188BBXX  44007 11231 99435 70701 46/// /2806 10006 21073 40133 54000 92250 22200 00033 10401 20401 70004 333 91207 555 11059 22061 32246 42707 62249 277055 279052 278048 281044 283028 288028;
0233992780999992010011200004+43533-070083FM-18+0000DB278V0202801N007019999999N9999999N1+00041-00711101351ADDMD1510001+9999OA159900801SA1+0349REMSYN188BBXX  44007 12001 99435 70701 46/// /2807 10004 21071 40135 55000 92350 22200 00034 10401 20401 70004 333 91208 555 11071 22075 32333 42808 62349 281068 283068 283066 283064 284060 280058;
0227992780999992010011201004+43533-070083FM-18+0000DB278V0202901N004019999999N9999999N1-00011-00771101391ADDMD1310061+9999OA159900501SA1+0359REMSYN182BBXX  44007 12011 99435 70701 46/// /2904 11001 21077 40139 53006 90050 22200 00035 10401 70003 333 91205 555 11045 22046 32354 42808 60049 294043 293043 291045 293044 289055 284063;
0227992780999992010011202004+43533-070083FM-18+0000DB278V0202701N006019999999N9999999N1-00031-00761101371ADDMD1210041+9999OA159900601SA1+0349REMSYN182BBXX  44007 12021 99435 70701 46/// /2706 11003 21076 40137 52004 90150 22200 00034 1//00 70002 333 91206 555 11057 22059 30149 42806 60149 275054 278051 284051 280051 289050 288046;
0227992780999992010011203004+43533-070083FM-18+0000DB278V0202901N005019999999N9999999N1-00051-00761101351ADDMD1010001+9999OA159900601SA1+0359REMSYN182BBXX  44007 12031 99435 70701 46/// /2905 11005 21076 40135 50000 90250 22200 00035 1//00 70002 333 91206 555 11050 22051 30207 42806 60249 286047 283049 289045 285045 280051 277050;
0227992780999992010011204004+43533-070083FM-18+0000DB278V0203001N004019999999N9999999N1-00091-00741101381ADDMD1510001+9999OA159900501SA1+0349REMSYN182BBXX  44007 12041 99435 70701 46/// /3004 11009 21074 40138 55000 90350 22200 00034 1//00 70002 333 91205 555 11041 22043 30300 42806 60349 295041 283041 282043 289047 288048 288047;
0227992780999992010011205004+43533-070083FM-18+0000DB278V0203001N004019999999N9999999N1-00141-00721101381ADDMD1410001+9999OA159900501SA1+0349REMSYN182BBXX  44007 12051 99435 70701 46/// /3004 11014 21072 40138 54000 90450 22200 00034 10301 70003 333 91205 555 11046 22047 30411 43005 60449 304044 299044 301044 302045 294046 291043;
0227992780999992010011206004+43533-070083FM-18+0000DB278V0203401N005019999999N9999999N1-00081-00731101341ADDMD1010001+9999OA159900701SA1+0379REMSYN182BBXX  44007 12061 99435 70701 46/// /3405 11008 21073 40134 50000 90550 22200 00037 10401 70003 333 91207 555 11052 22054 30450 43408 60549 341051 339044 335038 326042 303041 303042;
0227992780999992010011207004+43533-070083FM-18+0000DB278V0203501N006019999999N9999999N1-00101-00691101351ADDMD1710031+9999OA159900701SA1+0389REMSYN182BBXX  44007 12071 99435 70701 46/// /3506 11010 21069 40135 57003 90650 22200 00038 10401 70003 333 91207 555 11057 22059 30629 43508 60649 349055 350057 345062 344060 341054 336054;
0227992780999992010011208004+43533-070083FM-18+0000DB278V0203401N005019999999N9999999N1-00121-00761101351ADDMD1610031+9999OA159900701SA1+0389REMSYN182BBXX  44007 12081 99435 70701 46/// /3405 11012 21076 40135 56003 90750 22200 00038 10401 70003 333 91207 555 11054 22056 30700 40107 60749 335052 344054 346054 347042 353047 352053;
0227992780999992010011209004+43533-070083FM-18+0000DB278V0203201N003019999999N9999999N1-00161-00811101351ADDMD1410001+9999OA159900501SA1+0389REMSYN182BBXX  44007 12091 99435 70701 46/// /3203 11016 21081 40135 54000 90850 22200 00038 1//00 70002 333 91205 555 11034 22035 30756 43306 60849 317033 309033 316031 308033 304032 325038;
0227992780999992010011210004+43533-070083FM-18+0000DB278V0202901N003019999999N9999999N1-00181-00731101311ADDMD1810041+9999OA159900401SA1+0379REMSYN182BBXX  44007 12101 99435 70701 46/// /2903 11018 21073 40131 58004 90950 22200 00037 10301 70003 333 91204 555 11035 22036 30920 43005 60949 295034 305037 310037 309037 317034 309029;
0227992780999992010011211004+43533-070083FM-18+0000DB278V0203201N004019999999N9999999N1-00171-00701101311ADDMD1710041+9999OA159900501SA1+0369REMSYN182BBXX  44007 12111 99435 70701 46/// /3204 11017 21070 40131 57004 91050 22200 00036 1//00 70002 333 91205 555 11038 22039 31027 43205 61049 318037 320034 314035 306027 305029 298034;
0227992780999992010011212004+43533-070083FM-18+0000DB278V0203201N004019999999N9999999N1-00161-00731101311ADDMD1610041+9999OA159900501SA1+0349REMSYN182BBXX  44007 12121 99435 70701 46/// /3204 11016 21073 40131 56004 91150 22200 00034 1//00 70002 333 91205 555 11039 22040 31141 43105 61149 319037 316038 316037 308037 309035 310034;
0227992780999992010011213004+43533-070083FM-18+0000DB278V0203301N005019999999N9999999N1-00181-00801101281ADDMD1810031+9999OA159900701SA1+0349REMSYN182BBXX  44007 12131 99435 70701 46/// /3305 11018 21080 40128 58003 91250 22200 00034 1//00 70002 333 91207 555 11052 22054 31222 43407 61249 333049 344045 349050 350052 340040 321037;
0233992780999992010011214004+43533-070083FM-18+0000DB278V0203601N007019999999N9999999N1-00221-00891101311ADDMD1510001+9999OA159900901SA1+0359REMSYN188BBXX  44007 12141 99435 70701 46/// /3607 11022 21089 40131 55000 91350 22200 00035 10301 20301 70003 333 91209 555 11075 22078 31337 43609 61349 355072 357075 355073 351059 357053 345042;
0233992780999992010011215004+43533-070083FM-18+0000DB278V0203501N006019999999N9999999N1-00281-00951101331ADDMD1510001+9999OA159900801SA1+0369REMSYN188BBXX  44007 12151 99435 70701 46/// /3506 11028 21095 40133 55000 91450 22200 00036 10301 20301 70004 333 91208 555 11066 22068 31357 43408 61449 345062 356057 349057 344055 349059 339066;
0233992780999992010011216004+43533-070083FM-18+0000DB278V0203401N007019999999N9999999N1-00401-01131101311ADDMD1110031+9999OA159900801SA1+0379REMSYN188BBXX  44007 12161 99435 70701 46/// /3407 11040 21113 40131 51003 91550 22200 00037 10301 20301 70004 333 91208 555 11068 22070 31504 43511 61549 339064 338068 337070 340074 346090 347081;
0233992780999992010011217004+43533-070083FM-18+0000DB278V0203501N005019999999N9999999N1-00341-01131101211ADDMD1810101+9999OA159900701SA1+0389REMSYN188BBXX  44007 12171 99435 70701 46/// /3505 11034 21113 40121 58010 91650 22200 00038 10301 20301 70003 333 91207 555 11055 22057 31608 43408 61649 348053 338056 339047 329060 337058 345060;
0233992780999992010011218004+43533-070083FM-18+0000DB278V0203501N006019999999N9999999N1-00291-01101101091ADDMD1810241+9999OA159900701SA1+0389REMSYN188BBXX  44007 12181 99435 70701 46/// /3506 11029 21110 40109 58024 91750 22200 00038 10301 20301 70003 333 91207 555 11059 22061 31725 43508 61749 346059 339056 344057 344056 340049 345049;
0227992780999992010011219004+43533-070083FM-18+0000DB278V0203301N004019999999N9999999N1-00241-01121101021ADDMD1610291+9999OA159900501SA1+0399REMSYN182BBXX  44007 12191 99435 70701 46/// /3304 11024 21112 40102 56029 91850 22200 00039 1//00 70002 333 91205 555 11037 22038 31822 43308 61849 328036 324040 330056 340047 353043 342045;
0233992780999992010011220004+43533-070083FM-18+0000DB278V0203501N009019999999N9999999N1-00301-01091101001ADDMD1610211+9999OA159901101SA1+0419REMSYN188BBXX  44007 12201 99435 70701 46/// /3509 11030 21109 40100 56021 91950 22200 00041 10301 20301 70003 333 91211 555 11096 22100 31949 43511 61949 352092 000084 006073 001063 354053 321046;
0233992780999992010011221004+43533-070083FM-18+0000DB278V0203501N011019999999N9999999N1-00361-01161101021ADDMD1610071+9999OA159901301SA1+0449REMSYN188BBXX  44007 12211 99435 70701 46/// /3511 11036 21116 40102 56007 92050 22200 00044 10301 20301 70006 333 91213 555 11115 22120 32035 43513 62049 348109 347106 350095 354095 354096 358090;
0233992780999992010011222004+43533-070083FM-18+0000DB278V0203401N011019999999N9999999N1-00471-01231101131ADDMD1310111+9999OA159901301SA1+0459REMSYN188BBXX  44007 12221 99435 70701 46/// /3411 11047 21123 40113 53011 92150 22200 00045 10401 20401 70007 333 91213 555 11111 22115 32058 43514 62149 337105 346108 347105 346109 345105 346111;
0233992780999992010011223004+43533-070083FM-18+0000DB278V0203501N010019999999N9999999N1-00581-01271101221ADDMD1310221+9999OA159901301SA1+0459REMSYN188BBXX  44007 12231 99435 70701 46/// /3510 11058 21127 40122 53022 92250 22200 00045 10301 20301 70007 333 91213 555 11109 22114 32237 43414 62249 346105 341099 341102 344106 343108 338101;
0233992780999992010011300004+43533-070083FM-18+0000DB278V0203301N010019999999N9999999N1-00671-01271101281ADDMD1110261+9999OA159901301SA1+0429REMSYN188BBXX  44007 13001 99435 70701 46/// /3310 11067 21127 40128 51026 92350 22200 00042 10401 20401 70007 333 91213 555 11108 22113 32339 43215 62349 329105 324116 325103 323098 338100 344102;
