0201992760999992011010100004+42700-068300FM-18+0000DB276V0202301N006019999999N9999999N1+00731+99999999999ADDOA159900701SA1+0719REMSYN170BBXX  44005 01001 99432 70691 46/// /2306 10073 92350 22200 00071 10402 20402 70008 333 91207 555 11064 22069 32337 42408 62349 232061 231062 227055 225060 224061 224058;
0213992760999992011010101004+42700-068300FM-18+0000DB276V0202301N005019999999N9999999N1+00741+99999999999ADDOA159900601SA1+0719REMSYN182BBXX  44005 01011 99432 70691 46/// /2305 10074 90050 22200 00071 10502 20501 3//// 40601 70009 333 91206 555 11053 22057 30012 42307 60049 229049 237054 235059 232060 232058 231056;
0213992760999992011010102004+42700-068300FM-18+0000DB276V0202301N006019999999N9999999N1+00781+99999999999ADDOA159900701SA1+0749REMSYN182BBXX  44005 01021 99432 70691 46/// /2306 10078 90150 22200 00074 10402 20402 3//// 40601 70009 333 91207 555 11064 22069 30141 42308 60149 230060 228059 232055 232050 237048 232049;
0201992760999992011010103004+42700-068300FM-18+0000DB276V0202301N007019999999N9999999N1+00791+99999999999ADDOA159900801SA1+0749REMSYN170BBXX  44005 01031 99432 70691 46/// /2307 10079 90250 22200 00074 10402 20402 70009 333 91208 555 11072 22078 30210 42408 60249 227065 229059 229055 236065 237062 236059;
0201992760999992011010104004+42700-068300FM-18+0000DB276V0202401N006019999999N9999999N1+00781+99999999999ADDOA159900701SA1+0749REMSYN170BBXX  44005 01041 99432 70691 46/// /2406 10078 90350 22200 00074 10502 20502 70010 333 91207 555 11063 22068 30254 42408 60349 240058 236056 233057 231060 230062 230063;
0201992760999992011010105004+42700-068300FM-18+0000DB276V0202401N007019999999N9999999N1+00751+99999999999ADDOA159900801SA1+0729REMSYN170BBXX  44005 01051 99432 70691 46/// /2407 10075 90450 22200 00072 10502 20502 70010 333 91208 555 11075 22081 30424 42409 60449 235069 234072 234072 235063 236060 241060;
0213992760999992011010106004+42700-068300FM-18+0000DB276V0202301N005019999999N9999999N1+00711+99999999999ADDOA159900601SA1+0749REMSYN182BBXX  44005 01061 99432 70691 46/// /2305 10071 90550 22200 00074 10502 20301 3//// 40502 70010 333 91206 555 11050 22052 30500 42408 60549 234046 237048 244049 243055 238063 232065;
0201992760999992011010107004+42700-068300FM-18+0000DB276V0202401N007019999999N9999999N1+00711+99999999999ADDOA159900801SA1+0739REMSYN170BBXX  44005 01071 99432 70691 46/// /2407 10071 90650 22200 00073 10502 20502 70010 333 91208 555 11069 22073 30633 42408 60649 243064 236067 229058 231056 234050 230049;
0201992760999992011010108004+42700-068300FM-18+0000DB276V0202401N006019999999N9999999N1+00711+99999999999ADDOA159900701SA1+0719REMSYN170BBXX  44005 01081 99432 70691 46/// /2406 10071 90750 22200 00071 10502 20502 70011 333 91207 555 11061 22065 30704 42409 60749 240056 244059 237060 241062 242067 241069;
0213992760999992011010109004+42700-068300FM-18+0000DB276V0202401N005019999999N9999999N1+00701+99999999999ADDOA159900601SA1+0729REMSYN182BBXX  44005 01091 99432 70691 46/// /2405 10070 90850 22200 00072 10502 20401 3//// 40502 70011 333 91206 555 11052 22055 30754 42307 60849 234047 235050 242051 237049 230051 232056;
0201992760999992011010110004+42700-068300FM-18+0000DB276V0202401N007019999999N9999999N1+00711+99999999999ADDOA159900801SA1+0729REMSYN170BBXX  44005 01101 99432 70691 46/// /2407 10071 90950 22200 00072 10502 20502 70012 333 91208 555 11075 22079 30946 42408 60949 236069 245062 240055 238056 231053 228051;
0213992760999992011010111004+42700-068300FM-18+0000DB276V0202601N005019999999N9999999N1+00741+99999999999ADDOA159900501SA1+0749REMSYN182BBXX  44005 01111 99432 70691 46/// /2605 10074 91050 22200 00074 10602 20401 3//// 40602 70012 333 91205 555 11048 22051 31017 42408 61049 258042 259040 253057 247061 246061 241062;
0213992760999992011010112004+42700-068300FM-18+0000DB276V0202701N004019999999N9999999N1+00711+99999999999ADDOA159900401SA1+0749REMSYN182BBXX  44005 01121 99432 70691 46/// /2704 10071 91150 22200 00074 10602 20401 3//// 40602 70012 333 91204 555 11037 22038 31056 42605 61149 270035 265034 271036 269035 272038 264042;
0213992760999992011010113004+42700-068300FM-18+0000DB276V0202801N003019999999N9999999N1+00741+99999999999ADDOA159900401SA1+0719REMSYN182BBXX  44005 01131 99432 70691 46/// /2803 10074 91250 22200 00071 10602 20401 3//// 40602 70011 333 91204 555 11033 22037 31203 42905 61249 283030 272037 280037 288037 286039 283036;
0213992760999992011010114004+42700-068300FM-18+0000DB276V0202601N002019999999N9999999N1+00901+99999999999ADDOA159900301SA1+0719REMSYN182BBXX  44005 01141 99432 70691 46/// /2602 10090 91350 22200 00071 10602 20301 3//// 40602 70010 333 91203 555 11022 22026 31348 42503 61349 264016 261011 241020 275017 281019 306019;
0213992760999992011010115004+42700-068300FM-18+0000DB276V0202701N002019999999N9999999N1+00811+99999999999ADDOA159900301SA1+0719REMSYN182BBXX  44005 01151 99432 70691 46/// /2702 10081 91450 22200 00071 10502 20401 3//// 40502 70010 333 91203 555 11026 22031 31405 42305 61449 262022 219031 207039 215032 224039 231037;
0213992760999992011010116004+42700-068300FM-18+0000DB276V0202601N003019999999N9999999N1+00971+99999999999ADDOA159900401SA1+0749REMSYN182BBXX  44005 01161 99432 70691 46/// /2603 10097 91550 22200 00074 10502 20401 3//// 40502 70010 333 91204 555 11039 22047 31549 42604 61549 261033 255030 248032 240029 262026 269018;
0213992760999992011010117004+42700-068300FM-18+0000DB276V0202901N002019999999N9999999N1+00951+99999999999ADDOA159900301SA1+0749REMSYN182BBXX  44005 01171 99432 70691 46/// /2902 10095 91650 22200 00074 10602 20301 3//// 40602 70009 333 91203 555 11024 22029 31618 42605 61649 284020 276027 264034 265032 269032 264033;
0213992760999992011010118004+42700-068300FM-18+0000DB276V0202901N002019999999N9999999N1+00831+99999999999ADDOA159900201SA1+0749REMSYN182BBXX  44005 01181 99432 70691 46/// /2902 10083 91750 22200 00074 10602 20401 3//// 40602 70008 333 91202 555 11022 22026 31703 43003 61749 291018 295016 294018 286018 296018 281019;
0213992760999992011010119004+42700-068300FM-18+0000DB276V0203201N002019999999N9999999N1+00831+99999999999ADDOA159900301SA1+0749REMSYN182BBXX  44005 01191 99432 70691 46/// /3202 10083 91850 22200 00074 10602 20301 3//// 40602 70009 333 91203 555 11026 22031 31806 42703 61849 318021 312015 315019 295021 277023 273021;
0213992760999992011010120004+42700-068300FM-18+0000DB276V0200501N002019999999N9999999N1+00801+99999999999ADDOA159900201SA1+0749REMSYN182BBXX  44005 01201 99432 70691 46/// /0502 10080 91950 22200 00074 10502 20401 3//// 40502 70009 333 91202 555 11020 22024 31932 40303 61949 048018 030022 000019 339020 313017 315020;
0213992760999992011010121004+42700-068300FM-18+0000DB276V0200901N002019999999N9999999N1+00711+99999999999ADDOA159900301SA1+0749REMSYN182BBXX  44005 01211 99432 70691 46/// /0902 10071 92050 22200 00074 10602 20401 3//// 40601 70008 333 91203 555 11022 22023 32044 40903 62049 093020 098019 093014 083018 062019 055017;
0213992760999992011010122004+42700-068300FM-18+0000DB276V0201701N002019999999N9999999N1+00711+99999999999ADDOA159900301SA1+0749REMSYN182BBXX  44005 01221 99432 70691 46/// /1702 10071 92150 22200 00074 10602 20401 3//// 40601 70008 333 91203 555 11021 22021 32137 41803 62149 168021 169027 151024 136020 126016 110016;
0213992760999992011010123004+42700-068300FM-18+0000DB276V0201701N002019999999N9999999N1+00711+99999999999ADDOA159900301SA1+0749REMSYN182BBXX  44005 01231 99432 70691 46/// /1702 10071 92250 22200 00074 10502 20301 3//// 40501 70008 333 91203 555 11020 22020 32202 41803 62249 174020 175018 184023 183020 185027 170025;
0213992760999992011010200004+42700-068300FM-18+0000DB276V0200901N003019999999N9999999N1+00711+99999999999ADDOA159900301SA1+0749REMSYN182BBXX  44005 02001 99432 70691 46/// /0903 10071 92350 22200 00074 10601 20401 3//// 40601 70007 333 91203 555 11027 22028 32349 40803 62349 090026 089023 101015 129019 115018 109016;
0213992760999992011010201004+42700-068300FM-18+0000DB276V0201001N004019999999N9999999N1+00741+99999999999ADDOA159900501SA1+0749REMSYN182BBXX  44005 02011 99432 70691 46/// /1004 10074 90050 22200 00074 10501 20301 3//// 40501 70007 333 91205 555 11043 22045 30049 41005 60049 104038 114029 120026 108027 100028 090031;
0213992760999992011010202004+42700-068300FM-18+0000DB276V0201201N006019999999N9999999N1+00741+99999999999ADDOA159900701SA1+0749REMSYN182BBXX  44005 02021 99432 70691 46/// /1206 10074 90150 22200 00074 10601 20501 3//// 40601 70006 333 91207 555 11064 22068 30145 41207 60149 118058 112051 111050 106048 106044 101044;
0213992760999992011010203004+42700-068300FM-18+0000DB276V0201201N006019999999N9999999N1+00751+99999999999ADDOA159900701SA1+0749REMSYN182BBXX  44005 02031 99432 70691 46/// /1206 10075 90250 22200 00074 10501 20501 3//// 40601 70006 333 91207 555 11063 22067 30219 41307 60249 124058 123057 123059 124062 126060 128059;
0201992760999992011010204004+42700-068300FM-18+0000DB276V0201301N006019999999N9999999N1+00751+99999999999ADDOA159900701SA1+0749REMSYN170BBXX  44005 02041 99432 70691 46/// /1306 10075 90350 22200 00074 10501 20501 70006 333 91207 555 11064 22069 30311 41207 60349 133059 135058 132057 125059 119060 116059;
0201992760999992011010205004+42700-068300FM-18+0000DB276V0201401N007019999999N9999999N1+00781+99999999999ADDOA159900901SA1+0749REMSYN170BBXX  44005 02051 99432 70691 46/// /1407 10078 90450 22200 00074 10601 20601 70006 333 91209 555 11076 22082 30448 41409 60449 145070 148067 144065 136062 132056 126061;
0213992760999992011010206004+42700-068300FM-18+0000DB276V0201601N006019999999N9999999N1+00791+99999999999ADDOA159900701SA1+0749REMSYN182BBXX  44005 02061 99432 70691 46/// /1606 10079 90550 22200 00074 10401 20401 3//// 40601 70006 333 91207 555 11061 22066 30459 41508 60549 157056 165058 161058 164063 158069 155069;
0213992760999992011010207004+42700-068300FM-18+0000DB276V0201701N006019999999N9999999N1+00821+99999999999ADDOA159900701SA1+0749REMSYN182BBXX  44005 02071 99432 70691 46/// /1706 10082 90650 22200 00074 10301 20301 3//// 40601 70007 333 91207 555 11061 22068 30634 41608 60649 166055 160057 161052 163053 166060 165054;
0213992760999992011010208004+42700-068300FM-18+0000DB276V0201701N006019999999N9999999N1+00831+99999999999ADDOA159900601SA1+0749REMSYN182BBXX  44005 02081 99432 70691 46/// /1706 10083 90750 22200 00074 10402 20401 3//// 40601 70008 333 91206 555 11061 22068 30722 41708 60749 170056 167061 172062 172061 172058 170053;
0213992760999992011010209004+42700-068300FM-18+0000DB276V0201901N006019999999N9999999N1+00821+99999999999ADDOA159900701SA1+0749REMSYN182BBXX  44005 02091 99432 70691 46/// /1906 10082 90850 22200 00074 10402 20402 3//// 40601 70008 333 91207 555 11061 22068 30831 41907 60849 187056 187060 185052 178049 180048 173049;
0201992760999992011010210004+42700-068300FM-18+0000DB276V0202201N006019999999N9999999N1+00821+99999999999ADDOA159900701SA1+0749REMSYN170BBXX  44005 02101 99432 70691 46/// /2206 10082 90950 22200 00074 10402 20402 70009 333 91207 555 11063 22070 30917 42107 60949 218057 215059 208057 205056 197051 187048;
0201992760999992011010211004+42700-068300FM-18+0000DB276V0202301N006019999999N9999999N1+00791+99999999999ADDOA159900701SA1+0749REMSYN170BBXX  44005 02111 99432 70691 46/// /2306 10079 91050 22200 00074 10502 20502 70012 333 91207 555 11064 22069 31031 42208 61049 225058 222057 218055 213055 213053 219047;
0213992760999992011010212004+42700-068300FM-18+0000DB276V0202501N004019999999N9999999N1+00791+99999999999ADDOA159900501SA1+0749REMSYN182BBXX  44005 02121 99432 70691 46/// /2504 10079 91150 22200 00074 10502 20401 3//// 40502 70011 333 91205 555 11048 22053 31057 42306 61149 252043 238045 233049 235049 229051 222052;
0213992760999992011010213004+42700-068300FM-18+0000DB276V0202301N003019999999N9999999N1+00751+99999999999ADDOA159900401SA1+0749REMSYN182BBXX  44005 02131 99432 70691 46/// /2303 10075 91250 22200 00074 10502 20301 3//// 40502 70011 333 91204 555 11028 22030 31154 42606 61249 230027 235035 232043 230042 240043 247048;
0201992760999992011010214004+42700-068300FM-18+0000DB276V0202401N005019999999N9999999N1+00751+99999999999ADDOA159900601SA1+0749REMSYN170BBXX  44005 02141 99432 70691 46/// /2405 10075 91350 22200 00074 10502 20502 70010 333 91206 555 11057 22061 31338 42406 61349 240052 241050 232035 226032 234031 238032;
0213992760999992011010215004+42700-068300FM-18+0000DB276V0202401N004019999999N9999999N1+00791+99999999999ADDOA159900501SA1+0749REMSYN182BBXX  44005 02151 99432 70691 46/// /2404 10079 91450 22200 00074 10502 20301 3//// 40502 70010 333 91205 555 11045 22050 31354 42406 61449 235039 228040 216038 222043 233044 237048;
0201992760999992011010216004+42700-068300FM-18+0000DB276V0202701N005019999999N9999999N1+00761+99999999999ADDOA159900601SA1+0749REMSYN170BBXX  44005 02161 99432 70691 46/// /2705 10076 91550 22200 00074 10502 20502 70009 333 91206 555 11058 22062 31532 42708 61549 276054 270062 257054 252054 243047 245050;
0213992760999992011010217004+42700-068300FM-18+0000DB276V0202901N005019999999N9999999N1+00711+99999999999ADDOA159900501SA1+0739REMSYN182BBXX  44005 02171 99432 70691 46/// /2905 10071 91650 22200 00073 10502 20301 3//// 40501 70008 333 91205 555 11048 22050 31554 42807 61649 287046 278045 270049 270047 280051 280056;
0213992760999992011010218004+42700-068300FM-18+0000DB276V0203201N005019999999N9999999N1+00711+99999999999ADDOA159900601SA1+0749REMSYN182BBXX  44005 02181 99432 70691 46/// /3205 10071 91750 22200 00074 10501 20301 3//// 40501 70007 333 91206 555 11054 22057 31736 43006 61749 314052 304054 297052 292053 294044 293040;
0213992760999992011010219004+42700-068300FM-18+0000DB276V0203301N003019999999N9999999N1+00711+99999999999ADDOA159900401SA1+0749REMSYN182BBXX  44005 02191 99432 70691 46/// /3303 10071 91850 22200 00074 10501 20401 3//// 40501 70007 333 91204 555 11029 22030 31754 43205 61849 338026 017017 353031 346031 333033 316039;
0213992760999992011010220004+42700-068300FM-18+0000DB276V0202701N004019999999N9999999N1+00721+99999999999ADDOA159900501SA1+0749REMSYN182BBXX  44005 02201 99432 70691 46/// /2704 10072 91950 22200 00074 10501 20301 3//// 40501 70006 333 91205 555 11042 22044 31946 42705 61949 270040 263027 316013 330023 338031 335031;
0213992760999992011010221004+42700-068300FM-18+0000DB276V0203301N004019999999N9999999N1+00671+99999999999ADDOA159900501SA1+0749REMSYN182BBXX  44005 02211 99432 70691 46/// /3304 10067 92050 22200 00074 10501 20401 3//// 40501 70006 333 91205 555 11046 22048 32041 43405 62049 330043 326032 316036 309038 291038 282038;
0213992760999992011010222004+42700-068300FM-18+0000DB276V0203501N002019999999N9999999N1+00641+99999999999ADDOA159900401SA1+0749REMSYN182BBXX  44005 02221 99432 70691 46/// /3502 10064 92150 22200 00074 10501 20301 3//// 40501 70006 333 91204 555 11020 22020 32101 43405 62149 342021 310028 316024 326034 341040 346042;
0213992760999992011010223004+42700-068300FM-18+0000DB276V0203101N003019999999N9999999N1+00641+99999999999ADDOA159900301SA1+0749REMSYN182BBXX  44005 02231 99432 70691 46/// /3103 10064 92250 22200 00074 10501 20301 3//// 40501 70006 333 91203 555 11026 22027 32239 43503 62249 313024 011023 007020 000019 004021 000018;
0213992760999992011010300004+42700-068300FM-18+0000DB276V0203401N002019999999N9999999N1+00631+99999999999ADDOA159900301SA1+0729REMSYN182BBXX  44005 03001 99432 70691 46/// /3402 10063 92350 22200 00072 10401 20401 3//// 40401 70006 333 91203 555 11020 22020 32310 40104 62349 346018 330019 320023 019026 331026 305027;
0213992760999992011010301004+42700-068300FM-18+0000DB276V0200501N002019999999N9999999N1+00631+99999999999ADDOA159900301SA1+0729REMSYN182BBXX  44005 03011 99432 70691 46/// /0502 10063 90050 22200 00072 10501 20401 3//// 40501 70006 333 91203 555 11019 22019 30021 40606 60049 052019 057018 052028 034033 026030 003023;
0213992760999992011010302004+42700-068300FM-18+0000DB276V0202701N002019999999N9999999N1+00611+99999999999ADDOA159900301SA1+0729REMSYN182BBXX  44005 03021 99432 70691 46/// /2702 10061 90150 22200 00072 10601 20301 3//// 40601 70006 333 91203 555 11023 22023 30100 40103 60149 277020 302008 353010 023016 002021 038016;
0213992760999992011010303004+42700-068300FM-18+0000DB276V0203101N003019999999N9999999N1+00601+99999999999ADDOA159900401SA1+0749REMSYN182BBXX  44005 03031 99432 70691 46/// /3103 10060 90250 22200 00074 10501 20401 3//// 40501 70006 333 91204 555 11034 22035 30208 42805 60249 310034 297041 289043 283043 281035 282025;
0213992760999992011010304004+42700-068300FM-18+0000DB276V0202801N005019999999N9999999N1+00631+99999999999ADDOA159900601SA1+0729REMSYN182BBXX  44005 03041 99432 70691 46/// /2805 10063 90350 22200 00072 10601 20401 3//// 40601 70006 333 91206 555 11054 22056 30348 42806 60349 282050 275041 285037 301021 333017 340022;
0213992760999992011010305004+42700-068300FM-18+0000DB276V0203301N006019999999N9999999N1+00601+99999999999ADDOA159900701SA1+0749REMSYN182BBXX  44005 03051 99432 70691 46/// /3306 10060 90450 22200 00074 10601 20501 3//// 40601 70006 333 91207 555 11058 22060 30437 43207 60449 331055 316058 307055 304051 303047 295051;
0213992760999992011010306004+42700-068300FM-18+0000DB276V0200101N005019999999N9999999N1+00571+99999999999ADDOA159900701SA1+0749REMSYN182BBXX  44005 03061 99432 70691 46/// /0105 10057 90550 22200 00074 10601 20301 3//// 40601 70005 333 91207 555 11054 22057 30538 40107 60549 012053 008061 006053 002049 349045 340049;
0213992760999992011010307004+42700-068300FM-18+0000DB276V0203501N007019999999N9999999N1+00531+99999999999ADDOA159900801SA1+0749REMSYN182BBXX  44005 03071 99432 70691 46/// /3507 10053 90650 22200 00074 10301 20301 3//// 40601 70006 333 91208 555 11072 22075 30649 43408 60649 345066 347061 355054 357053 006048 011054;
0201992760999992011010308004+42700-068300FM-18+0000DB276V0203401N014019999999N9999999N1+00301+99999999999ADDOA159901701SA1+0729REMSYN170BBXX  44005 03081 99432 70691 46/// /3414 10030 90750 22200 00072 10403 20403 70014 333 91217 555 11150 22159 30744 40117 60749 343140 344139 345143 344140 348119 354107;
0201992760999992011010309004+42700-068300FM-18+0000DB276V0203401N014019999999N9999999N1+00291+99999999999ADDOA159901601SA1+0719REMSYN170BBXX  44005 03091 99432 70691 46/// /3414 10029 90850 22200 00071 10605 20605 70023 333 91216 555 11144 22152 30800 43217 60849 336134 342128 337140 340142 341138 341140;
0201992760999992011010310004+42700-068300FM-18+0000DB276V0203301N013019999999N9999999N1+00241+99999999999ADDOA159901601SA1+0719REMSYN170BBXX  44005 03101 99432 70691 46/// /3313 10024 90950 22200 00071 10605 20605 70027 333 91216 555 11137 22145 30906 43417 60949 334129 334133 337133 338133 342137 342133;
0201992760999992011010311004+42700-068300FM-18+0000DB276V0203201N013019999999N9999999N1+00181+99999999999ADDOA159901801SA1+0749REMSYN170BBXX  44005 03111 99432 70691 46/// /3213 10018 91050 22200 00074 10606 20606 70028 333 91218 555 11143 22150 31049 43218 61049 318130 329132 333131 335129 338130 335131;
0201992760999992011010312004+42700-068300FM-18+0000DB276V0203201N015019999999N9999999N1+00061+99999999999ADDOA159901901SA1+0749REMSYN170BBXX  44005 03121 99432 70691 46/// /3215 10006 91150 22200 00074 10606 20606 70032 333 91219 555 11159 22167 31108 43119 61149 318149 312149 313147 316147 315141 320145;
0201992760999992011010313004+42700-068300FM-18+0000DB276V0203201N013019999999N9999999N1+00081+99999999999ADDOA159901601SA1+0749REMSYN170BBXX  44005 03131 99432 70691 46/// /3213 10008 91250 22200 00074 10706 20706 70029 333 91216 555 11141 22149 31209 43418 61249 320130 320128 320139 317139 322140 323143;
0201992760999992011010314004+42700-068300FM-18+0000DB276V0203101N012019999999N9999999N1+00121+99999999999ADDOA159901601SA1+0749REMSYN170BBXX  44005 03141 99432 70691 46/// /3112 10012 91350 22200 00074 10605 20605 70026 333 91216 555 11130 22137 31305 43117 61349 315124 317118 314125 314132 315130 311129;
0201992760999992011010315004+42700-068300FM-18+0000DB276V0203201N012019999999N9999999N1+00171+99999999999ADDOA159901501SA1+0719REMSYN170BBXX  44005 03151 99432 70691 46/// /3212 10017 91450 22200 00071 10706 20706 70029 333 91215 555 11123 22129 31430 43116 61449 314113 314122 312120 311117 318116 317117;
0201992760999992011010316004+42700-068300FM-18+0000DB276V0203101N012019999999N9999999N1+00121+99999999999ADDOA159901501SA1+0719REMSYN170BBXX  44005 03161 99432 70691 46/// /3112 10012 91550 22200 00071 10706 20706 70028 333 91215 555 11127 22134 31549 43115 61549 308118 307115 311110 310112 313114 312123;
0201992760999992011010317004+42700-068300FM-18+0000DB276V0203101N013019999999N9999999N1+00211+99999999999ADDOA159901601SA1+0719REMSYN170BBXX  44005 03171 99432 70691 46/// /3113 10021 91650 22200 00071 10705 20705 70026 333 91216 555 11138 22146 31638 43116 61649 308130 300133 304131 306127 301118 309123;
0201992760999992011010318004+42700-068300FM-18+0000DB276V0203001N012019999999N9999999N1+00161+99999999999ADDOA159901501SA1+0719REMSYN170BBXX  44005 03181 99432 70691 46/// /3012 10016 91750 22200 00071 10705 20705 70025 333 91215 555 11131 22137 31702 43017 61749 298123 300117 303124 304132 310138 309132;
0201992760999992011010319004+42700-068300FM-18+0000DB276V0203001N013019999999N9999999N1+00221+99999999999ADDOA159901701SA1+0719REMSYN170BBXX  44005 03191 99432 70691 46/// /3013 10022 91850 22200 00071 10605 20605 70024 333 91217 555 11135 22142 31844 43117 61849 300128 302123 298125 303116 306116 308119;
0201992760999992011010320004+42700-068300FM-18+0000DB276V0203101N012019999999N9999999N1+00151+99999999999ADDOA159901401SA1+0719REMSYN170BBXX  44005 03201 99432 70691 46/// /3112 10015 91950 22200 00071 10705 20705 70027 333 91214 555 11125 22131 31854 43016 61949 309116 313125 312125 310118 304125 306126;
0201992760999992011010321004+42700-068300FM-18+0000DB276V0203001N012019999999N9999999N1+00111+99999999999ADDOA159901601SA1+0719REMSYN170BBXX  44005 03211 99432 70691 46/// /3012 10011 92050 22200 00071 10705 20705 70026 333 91216 555 11130 22137 31954 43017 62049 301125 303123 302123 306122 313119 303118;
0201992760999992011010322004+42700-068300FM-18+0000DB276V0203101N012019999999N9999999N1+00051+99999999999ADDOA159901501SA1+0719REMSYN170BBXX  44005 03221 99432 70691 46/// /3112 10005 92150 22200 00071 10705 20705 70026 333 91215 555 11131 22138 32132 43217 62149 308123 307123 304120 308120 310124 308130;
0201992760999992011010323004+42700-068300FM-18+0000DB276V0203101N013019999999N9999999N1+00051+99999999999ADDOA159901501SA1+0719REMSYN170BBXX  44005 03231 99432 70691 46/// /3113 10005 92250 22200 00071 10705 20705 70026 333 91215 555 11133 22139 32204 43116 62249 310124 308122 311118 313117 305119 303122;
0201992760999992011010400004+42700-068300FM-18+0000DB276V0203101N011019999999N9999999N1+00021+99999999999ADDOA159901401SA1+0719REMSYN170BBXX  44005 04001 99432 70691 46/// /3111 10002 92350 22200 00071 10605 20605 70025 333 91214 555 11120 22125 32300 43116 62349 310113 308119 310122 303123 304129 311124;
0201992760999992011010401004+42700-068300FM-18+0000DB276V0203001N010019999999N9999999N1+00021+99999999999ADDOA159901201SA1+0719REMSYN170BBXX  44005 04011 99432 70691 46/// /3010 10002 90050 22200 00071 10705 20705 70023 333 91212 555 11105 22110 30006 43115 60049 299101 305107 307112 299111 306117 309117;
0193992760999992011010402004+42700-068300FM-18+0000DB276V0203001N011019999999N9999999N1+00021+99999999999ADDOA159901301REMSYN170BBXX  44005 04021 99432 70691 46/// /3011 10002 90150 22200 00071 10604 20604 70020 333 91213 555 11113 22118 30138 43013 60149 304106 301100 298101 291102 292099 294095;
0193992760999992011010403004+42700-068300FM-18+0000DB276V0203001N010019999999N9999999N1+00011+99999999999ADDOA159901201REMSYN170BBXX  44005 04031 99432 70691 46/// /3010 10001 90250 22200 00071 10604 20604 70020 333 91212 555 11103 22108 30155 43014 60249 301098 294097 295093 302098 308100 302103;
0193992760999992011010404004+42700-068300FM-18+0000DB276V0203001N010019999999N9999999N1+00001+99999999999ADDOA159901201REMSYN170BBXX  44005 04041 99432 70691 46/// /3010 10000 90350 22200 00071 10604 20604 70019 333 91212 555 11102 22107 30256 43013 60349 301097 296091 300099 294096 296094 297094;
0193992760999992011010405004+42700-068300FM-18+0000DB276V0203001N009019999999N9999999N1-00021+99999999999ADDOA159901201REMSYN170BBXX  44005 04051 99432 70691 46/// /3009 11002 90450 22200 00071 10604 20604 70019 333 91212 555 11094 22098 30418 43113 60449 299089 303094 301096 297099 298094 290095;
0193992760999992011010406004+42700-068300FM-18+0000DB276V0202901N008019999999N9999999N1-00031+99999999999ADDOA159901001REMSYN170BBXX  44005 04061 99432 70691 46/// /2908 11003 90550 22200 00071 10603 20603 70017 333 91210 555 11081 22084 30510 43111 60549 287078 293083 291082 292085 303086 302088;
0193992760999992011010407004+42700-068300FM-18+0000DB276V0203101N009019999999N9999999N1-00031+99999999999ADDOA159901201REMSYN170BBXX  44005 04071 99432 70691 46/// /3109 11003 90650 22200 00071 10603 20603 70015 333 91212 555 11096 22100 30626 42912 60649 305092 294091 299092 293084 291091 291085;
0193992760999992011010408004+42700-068300FM-18+0000DB276V0203101N008019999999N9999999N1-00031+99999999999ADDOA159901101REMSYN170BBXX  44005 04081 99432 70691 46/// /3108 11003 90750 22200 00071 10603 20603 70016 333 91211 555 11081 22084 30704 42912 60749 307077 305082 304083 298090 295087 293082;
0193992760999992011010409004+42700-068300FM-18+0000DB276V0202801N007019999999N9999999N1-00051+99999999999ADDOA159900901REMSYN170BBXX  44005 04091 99432 70691 46/// /2807 11005 90850 22200 00070 10603 20603 70014 333 91209 555 11069 22071 30825 42810 60849 283068 290071 287066 290071 289069 307072;
0193992760999992011010410004+42700-068300FM-18+0000DB276V0202901N008019999999N9999999N1-00051+99999999999ADDOA159901101REMSYN170BBXX  44005 04101 99432 70691 46/// /2908 11005 90950 22200 00070 10503 20503 70015 333 91211 555 11084 22087 30905 42912 60949 288081 292083 291080 283078 293080 296076;
0193992760999992011010411004+42700-068300FM-18+0000DB276V0202801N008019999999N9999999N1-00051+99999999999ADDOA159901101REMSYN170BBXX  44005 04111 99432 70691 46/// /2808 11005 91050 22200 00070 10503 20503 70014 333 91211 555 11087 22091 30956 42812 61049 280083 289078 283082 293080 285085 292086;
0193992760999992011010412004+42700-068300FM-18+0000DB276V0202801N008019999999N9999999N1-00071+99999999999ADDOA159901001REMSYN170BBXX  44005 04121 99432 70691 46/// /2808 11007 91150 22200 00070 10603 20603 70014 333 91210 555 11085 22088 31133 42811 61149 280081 287080 290082 278080 274080 279077;
0193992760999992011010413004+42700-068300FM-18+0000DB276V0202801N008019999999N9999999N1-00011+99999999999ADDOA159901001REMSYN170BBXX  44005 04131 99432 70691 46/// /2808 11001 91250 22200 00070 10603 20603 70014 333 91210 555 11081 22084 31224 42711 61249 274077 272077 279085 281086 282079 281079;
0193992760999992011010414004+42700-068300FM-18+0000DB276V0202601N008019999999N9999999N1+00111+99999999999ADDOA159901001REMSYN170BBXX  44005 04141 99432 70691 46/// /2608 10011 91350 22200 00070 10603 20603 70014 333 91210 555 11088 22092 31322 42711 61349 267085 270083 271088 267089 270079 272079;
0193992760999992011010415004+42700-068300FM-18+0000DB276V0202801N009019999999N9999999N1+00181+99999999999ADDOA159901201REMSYN170BBXX  44005 04151 99432 70691 46/// /2809 10018 91450 22200 00070 10503 20503 70015 333 91212 555 11094 22098 31443 42712 61449 275089 266089 270089 270089 267088 271080;
0193992760999992011010417004+42700-068300FM-18+0000DB276V0202701N009019999999N9999999N1+00161+99999999999ADDOA159901201REMSYN170BBXX  44005 04171 99432 70691 46/// /2709 10016 91650 22200 00070 10604 20604 70019 333 91212 555 11097 22101 31603 42813 61649 267091 264093 263094 262097 266100 259094;
0193992760999992011010418004+42700-068300FM-18+0000DB276V0202601N009019999999N9999999N1+00191+99999999999ADDOA159901101REMSYN170BBXX  44005 04181 99432 70691 46/// /2609 10019 91750 22200 00070 10603 20603 70017 333 91211 555 11094 22098 31658 42712 61749 255088 251091 256088 260090 260092 264100;
0193992760999992011010419004+42700-068300FM-18+0000DB276V0202501N009019999999N9999999N1+00131+99999999999ADDOA159901201REMSYN170BBXX  44005 04191 99432 70691 46/// /2509 10013 91850 22200 00070 10603 20603 70017 333 91212 555 11096 22100 31848 42512 61849 251090 250094 258094 254093 258087 250092;
0193992760999992011010420004+42700-068300FM-18+0000DB276V0202601N007019999999N9999999N1+00191+99999999999ADDOA159901001REMSYN170BBXX  44005 04201 99432 70691 46/// /2607 10019 91950 22200 00070 10603 20603 70015 333 91210 555 11077 22080 31857 42411 61949 257072 250072 253074 254076 251083 246087;
0193992760999992011010421004+42700-068300FM-18+0000DB276V0202501N008019999999N9999999N1+00221+99999999999ADDOA159901001REMSYN170BBXX  44005 04211 99432 70691 46/// /2508 10022 92050 22200 00070 10602 20602 70012 333 91210 555 11081 22084 32048 42410 62049 247075 250073 244073 244069 247067 251062;
0193992760999992011010422004+42700-068300FM-18+0000DB276V0202401N009019999999N9999999N1+00231+99999999999ADDOA159901101REMSYN170BBXX  44005 04221 99432 70691 46/// /2409 10023 92150 22200 00070 10503 20503 70014 333 91211 555 11093 22097 32142 42511 62149 243088 249088 245090 248081 250081 249073;
0193992760999992011010423004+42700-068300FM-18+0000DB276V0202701N008019999999N9999999N1+00221+99999999999ADDOA159901001REMSYN170BBXX  44005 04231 99432 70691 46/// /2708 10022 92250 22200 00070 10503 20503 70013 333 91210 555 11079 22082 32156 42611 62249 264075 261076 256076 255079 249082 249086;
0205992760999992011010500004+42700-068300FM-18+0000DB276V0202701N007019999999N9999999N1+00231+99999999999ADDOA159900901REMSYN182BBXX  44005 05001 99432 70691 46/// /2707 10023 92350 22200 00070 10502 20502 3//// 40801 70012 333 91209 555 11069 22072 32305 42710 62349 276065 280072 273070 275073 270073 263072;
0205992760999992011010501004+42700-068300FM-18+0000DB276V0202901N005019999999N9999999N1+00221+99999999999ADDOA159900601REMSYN182BBXX  44005 05011 99432 70691 46/// /2905 10022 90050 22200 00070 10502 20301 3//// 40502 70010 333 91206 555 11049 22050 32358 42608 60049 288047 280052 279055 273056 278061 272063;
0213992760999992011010502004+42700-068300FM-18+0000DB276V0202801N006019999999N9999999N1+00271+99999999999ADDOA159900701SA1+0679REMSYN182BBXX  44005 05021 99432 70691 46/// /2806 10027 90150 22200 00067 10502 20502 3//// 40601 70009 333 91207 555 11061 22063 30117 42608 60149 275057 275055 271057 267052 271049 271049;
0201992760999992011010503004+42700-068300FM-18+0000DB276V0202701N009019999999N9999999N1+00321+99999999999ADDOA159901101SA1+0679REMSYN170BBXX  44005 05031 99432 70691 46/// /2709 10032 90250 22200 00067 10503 20503 70013 333 91211 555 11095 22100 30249 42711 60249 271092 270087 266086 267079 269074 271067;
0201992760999992011010504004+42700-068300FM-18+0000DB276V0202801N010019999999N9999999N1+00261+99999999999ADDOA159901201SA1+0679REMSYN170BBXX  44005 05041 99432 70691 46/// /2810 10026 90350 22200 00067 10703 20703 70017 333 91212 555 11105 22110 30316 42613 60349 280099 272090 272094 268102 271088 271098;
0201992760999992011010505004+42700-068300FM-18+0000DB276V0202801N009019999999N9999999N1+00231+99999999999ADDOA159901201SA1+0679REMSYN170BBXX  44005 05051 99432 70691 46/// /2809 10023 90450 22200 00067 10603 20603 70016 333 91212 555 11098 22103 30419 42812 60449 276094 284094 282094 278089 280096 284091;
0201992760999992011010506004+42700-068300FM-18+0000DB276V0202901N008019999999N9999999N1+00191+99999999999ADDOA159901001SA1+0679REMSYN170BBXX  44005 05061 99432 70691 46/// /2908 10019 90550 22200 00067 10603 20603 70016 333 91210 555 11088 22092 30523 42711 60549 291085 288087 287091 288086 283089 281083;
0201992760999992011010507004+42700-068300FM-18+0000DB276V0203001N007019999999N9999999N1+00121+99999999999ADDOA159900801SA1+0679REMSYN170BBXX  44005 05071 99432 70691 46/// /3007 10012 90650 22200 00067 10603 20603 70015 333 91208 555 11069 22072 30615 43210 60649 303065 302072 303075 306083 304080 293078;
0213992760999992011010508004+42700-068300FM-18+0000DB276V0203101N006019999999N9999999N1+00081+99999999999ADDOA159900801SA1+0679REMSYN182BBXX  44005 05081 99432 70691 46/// /3106 10008 90750 22200 00067 10603 20402 3//// 40602 70013 333 91208 555 11058 22060 30709 43109 60749 307056 308059 312060 304062 312066 308070;
0213992760999992011010509004+42700-068300FM-18+0000DB276V0203101N005019999999N9999999N1+00091+99999999999ADDOA159900701SA1+0679REMSYN182BBXX  44005 05091 99432 70691 46/// /3105 10009 90850 22200 00067 10603 20402 3//// 40602 70013 333 91207 555 11054 22056 30754 43108 60849 303049 299051 293051 303051 299054 308050;
0213992760999992011010510004+42700-068300FM-18+0000DB276V0203001N005019999999N9999999N1+00111+99999999999ADDOA159900701SA1+0679REMSYN182BBXX  44005 05101 99432 70691 46/// /3005 10011 90950 22200 00067 10602 20502 3//// 40602 70012 333 91207 555 11054 22056 30932 43207 60949 299050 303054 294049 298052 291053 285051;
0213992760999992011010511004+42700-068300FM-18+0000DB276V0203101N005019999999N9999999N1+00091+99999999999ADDOA159900701SA1+0679REMSYN182BBXX  44005 05111 99432 70691 46/// /3105 10009 91050 22200 00067 10602 20401 3//// 40602 70011 333 91207 555 11055 22057 31024 43309 61049 312053 316056 316063 311055 302052 304051;
0201992760999992011010512004+42700-068300FM-18+0000DB276V0202901N007019999999N9999999N1+00131+99999999999ADDOA159900901SA1+0679REMSYN170BBXX  44005 05121 99432 70691 46/// /2907 10013 91150 22200 00067 10602 20602 70012 333 91209 555 11073 22076 31142 42909 61149 293068 306060 308052 309052 304053 302052;
0213992760999992011010513004+42700-068300FM-18+0000DB276V0202901N009019999999N9999999N1+00131+99999999999ADDOA159901101SA1+0679REMSYN182BBXX  44005 05131 99432 70691 46/// /2909 10013 91250 22200 00067 10602 20602 3//// 42501 70012 333 91211 555 11091 22094 31248 43011 61249 292086 295087 293083 292079 291079 291073;
0201992760999992011010514004+42700-068300FM-18+0000DB276V0202901N008019999999N9999999N1+00241+99999999999ADDOA159901001SA1+0679REMSYN170BBXX  44005 05141 99432 70691 46/// /2908 10024 91350 22200 00067 10502 20502 70012 333 91210 555 11087 22091 31258 43110 61349 292083 287081 287080 295076 298081 295086;
0201992760999992011010515004+42700-068300FM-18+0000DB276V0203001N008019999999N9999999N1+00311+99999999999ADDOA159901101SA1+0679REMSYN170BBXX  44005 05151 99432 70691 46/// /3008 10031 91450 22200 00067 10503 20503 70013 333 91211 555 11088 22092 31427 43111 61449 295082 293080 298081 292082 291076 291074;
0213992760999992011010516004+42700-068300FM-18+0000DB276V0202901N009019999999N9999999N1+00261+99999999999ADDOA159901101SA1+0679REMSYN182BBXX  44005 05161 99432 70691 46/// /2909 10026 91550 22200 00067 10503 20503 3//// 42001 70016 333 91211 555 11099 22104 31547 42911 61549 294091 298088 294090 295084 295081 294081;
0201992760999992011010517004+42700-068300FM-18+0000DB276V0202901N009019999999N9999999N1+00281+99999999999ADDOA159901101SA1+0679REMSYN170BBXX  44005 05171 99432 70691 46/// /2909 10028 91650 22200 00067 10603 20603 70017 333 91211 555 11090 22094 31608 43012 61649 290084 292090 291088 293084 294088 298091;
0201992760999992011010518004+42700-068300FM-18+0000DB276V0202901N008019999999N9999999N1+00311+99999999999ADDOA159901001SA1+0679REMSYN170BBXX  44005 05181 99432 70691 46/// /2908 10031 91750 22200 00067 10603 20603 70016 333 91210 555 11085 22089 31656 42912 61749 293079 290085 284086 288083 282080 292088;
0201992760999992011010519004+42700-068300FM-18+0000DB276V0202901N010019999999N9999999N1+00261+99999999999ADDOA159901301SA1+0679REMSYN170BBXX  44005 05191 99432 70691 46/// /2910 10026 91850 22200 00067 10603 20603 70015 333 91213 555 11105 22110 31837 42813 61849 286098 288092 293089 290088 287089 280088;
0201992760999992011010520004+42700-068300FM-18+0000DB276V0202701N010019999999N9999999N1+00241+99999999999ADDOA159901201SA1+0679REMSYN170BBXX  44005 05201 99432 70691 46/// /2710 10024 91950 22200 00067 10603 20603 70015 333 91212 555 11100 22105 31854 42913 61949 273093 281095 282094 286093 287093 291101;
0201992760999992011010521004+42700-068300FM-18+0000DB276V0202901N009019999999N9999999N1+00171+99999999999ADDOA159901101SA1+0679REMSYN170BBXX  44005 05211 99432 70691 46/// /2909 10017 92050 22200 00067 10603 20603 70017 333 91211 555 11094 22098 32014 42514 62049 290089 272098 271109 267114 276110 279111;
0201992760999992011010522004+42700-068300FM-18+0000DB276V0202801N009019999999N9999999N1-00031+99999999999ADDOA159901001SA1+0679REMSYN170BBXX  44005 05221 99432 70691 46/// /2809 11003 92150 22200 00067 10603 20603 70017 333 91210 555 11091 22095 32123 42616 62149 275085 272099 277108 246093 247115 292078;
0201992760999992011010523004+42700-068300FM-18+0000DB276V0202801N011019999999N9999999N1+00161+99999999999ADDOA159901401SA1+0679REMSYN170BBXX  44005 05231 99432 70691 46/// /2811 10016 92250 22200 00067 10603 20603 70015 333 91214 555 11111 22117 32222 42614 62249 277106 278111 270113 272088 267084 268078;
0201992760999992011010600004+42700-068300FM-18+0000DB276V0202801N012019999999N9999999N1+00161+99999999999ADDOA159901501SA1+0679REMSYN170BBXX  44005 06001 99432 70691 46/// /2812 10016 92350 22200 00067 10503 20503 70015 333 91215 555 11122 22128 32346 43015 62349 283112 281113 279103 277095 276105 269106;
0201992760999992011010601004+42700-068300FM-18+0000DB276V0202901N011019999999N9999999N1+00111+99999999999ADDOA159901401SA1+0679REMSYN170BBXX  44005 06011 99432 70691 46/// /2911 10011 90050 22200 00067 10604 20604 70019 333 91214 555 11120 22126 30012 42716 60049 290112 285117 278126 280125 282127 281119;
0201992760999992011010602004+42700-068300FM-18+0000DB276V0202801N010019999999N9999999N1+00091+99999999999ADDOA159901201SA1+0679REMSYN170BBXX  44005 06021 99432 70691 46/// /2810 10009 90150 22200 00067 10604 20604 70019 333 91212 555 11102 22107 30056 42914 60149 285096 285104 292102 290108 287102 291111;
0201992760999992011010603004+42700-068300FM-18+0000DB276V0202701N010019999999N9999999N1+00071+99999999999ADDOA159901301SA1+0679REMSYN170BBXX  44005 06031 99432 70691 46/// /2710 10007 90250 22200 00067 10604 20604 70018 333 91213 555 11104 22109 30246 42613 60249 273098 281094 286095 282089 286088 286096;
0201992760999992011010604004+42700-068300FM-18+0000DB276V0202801N009019999999N9999999N1-00011+99999999999ADDOA159901201SA1+0679REMSYN170BBXX  44005 06041 99432 70691 46/// /2809 11001 90350 22200 00067 10604 20604 70021 333 91212 555 11097 22101 30259 42715 60349 278093 268090 266101 270106 271120 275121;
0201992760999992011010605004+42700-068300FM-18+0000DB276V0202701N009019999999N9999999N1-00041+99999999999ADDOA159901101SA1+0679REMSYN170BBXX  44005 06051 99432 70691 46/// /2709 11004 90450 22200 00067 10604 20604 70018 333 91211 555 11090 22094 30359 42712 60449 270083 273086 270083 277089 271089 268095;
0201992760999992011010606004+42700-068300FM-18+0000DB276V0202901N007019999999N9999999N1-00111+99999999999ADDOA159901001SA1+0679REMSYN170BBXX  44005 06061 99432 70691 46/// /2907 11011 90550 22200 00067 10603 20603 70016 333 91210 555 11077 22080 30516 42811 60549 287074 281071 284071 276074 280079 280078;
0213992760999992011010607004+42700-068300FM-18+0000DB276V0202801N006019999999N9999999N1-00141+99999999999ADDOA159900901SA1+0679REMSYN182BBXX  44005 06071 99432 70691 46/// /2806 11014 90650 22200 00067 10603 20603 3//// 40602 70015 333 91209 555 11066 22068 30555 42810 60649 280065 289062 291060 279066 282070 280070;
0213992760999992011010608004+42700-068300FM-18+0000DB276V0202901N006019999999N9999999N1-00151+99999999999ADDOA159900801SA1+0679REMSYN182BBXX  44005 06081 99432 70691 46/// /2906 11015 90750 22200 00067 10603 20602 3//// 40601 70014 333 91208 555 11067 22069 30732 42810 60749 289065 291069 299066 288065 282064 289062;
0213992760999992011010609004+42700-068300FM-18+0000DB276V0202901N005019999999N9999999N1-00211+99999999999ADDOA159900801SA1+0679REMSYN182BBXX  44005 06091 99432 70691 46/// /2905 11021 90850 22200 00067 10603 20502 3//// 40602 70014 333 91208 555 11056 22058 30815 42909 60849 285054 297058 291055 290066 294061 282058;
0213992760999992011010610004+42700-068300FM-18+0000DB276V0203001N005019999999N9999999N1-00191+99999999999ADDOA159900701SA1+0679REMSYN182BBXX  44005 06101 99432 70691 46/// /3005 11019 90950 22200 00067 10602 20402 3//// 40602 70012 333 91207 555 11053 22054 30921 42908 60949 301050 286043 291048 285045 290047 297045;
0213992760999992011010611004+42700-068300FM-18+0000DB276V0203201N006019999999N9999999N1-00251+99999999999ADDOA159900801SA1+0679REMSYN182BBXX  44005 06111 99432 70691 46/// /3206 11025 91050 22200 00067 10603 20402 3//// 40602 70013 333 91208 555 11059 22061 31039 43108 61049 314059 303061 301052 297056 294056 302048;
0213992760999992011010612004+42700-068300FM-18+0000DB276V0203001N004019999999N9999999N1-00261+99999999999ADDOA159900601SA1+0669REMSYN182BBXX  44005 06121 99432 70691 46/// /3004 11026 91150 22200 00066 10602 20401 3//// 40602 70012 333 91206 555 11038 22039 31125 43208 61149 304037 319048 316049 329054 327050 325054;
0213992760999992011010613004+42700-068300FM-18+0000DB276V0203401N003019999999N9999999N1-00271+99999999999ADDOA159900501SA1+0679REMSYN182BBXX  44005 06131 99432 70691 46/// /3403 11027 91250 22200 00067 10602 20401 3//// 40602 70011 333 91205 555 11029 22029 31216 43406 61249 332027 325037 292034 331037 341036 309047;
0213992760999992011010614004+42700-068300FM-18+0000DB276V0203001N001019999999N9999999N1-00231+99999999999ADDOA159900301SA1+0679REMSYN182BBXX  44005 06141 99432 70691 46/// /3001 11023 91350 22200 00067 10502 20401 3//// 40502 70010 333 91203 555 11011 22011 31325 43405 61349 289014 312012 316024 290022 319025 290025;
0213992760999992011010615004+42700-068300FM-18+0000DB276V0202401N001019999999N9999999N1-00261+99999999999ADDOA159900401SA1+0669REMSYN182BBXX  44005 06151 99432 70691 46/// /2401 11026 91450 22200 00066 10502 20401 3//// 40501 70009 333 91204 555 11012 22012 31431 42604 61449 243018 255024 262029 293017 244011 272024;
0213992760999992011010616004+42700-068300FM-18+0000DB276V0202001N001019999999N9999999N1-00081+99999999999ADDOA159900101SA1+0669REMSYN182BBXX  44005 06161 99432 70691 46/// /2001 11008 91550 22200 00066 10402 20401 3//// 40401 70008 333 91201 555 11007 22007 31457 42503 61549 190008 025007 030007 071008 164009 232015;
0213992760999992011010617004+42700-068300FM-18+0000DB276V0202501N004019999999N9999999N1-00161+99999999999ADDOA159900601SA1+0669REMSYN182BBXX  44005 06171 99432 70691 46/// /2504 11016 91650 22200 00066 10501 20401 3//// 40501 70007 333 91206 555 11036 22037 31637 42406 61649 254035 247032 239039 211017 178012 155007;
0213992760999992011010618004+42700-068300FM-18+0000DB276V0202701N005019999999N9999999N1-00121+99999999999ADDOA159900701SA1+0669REMSYN182BBXX  44005 06181 99432 70691 46/// /2705 11012 91750 22200 00066 10401 20401 3//// 40401 70007 333 91207 555 11048 22049 31742 42707 61749 270046 252035 251042 258045 274040 246043;
0213992760999992011010619004+42700-068300FM-18+0000DB276V0202601N004019999999N9999999N1-00141+99999999999ADDOA159900801SA1+0669REMSYN182BBXX  44005 06191 99432 70691 46/// /2604 11014 91850 22200 00066 10501 20301 3//// 40501 70007 333 91208 555 11043 22044 31830 42608 61849 267042 264051 271052 276041 258045 250047;
0213992760999992011010620004+42700-068300FM-18+0000DB276V0202701N004019999999N9999999N1-00141+99999999999ADDOA159900601SA1+0669REMSYN182BBXX  44005 06201 99432 70691 46/// /2704 11014 91950 22200 00066 10401 20301 3//// 40401 70007 333 91206 555 11039 22040 31907 42607 61949 265040 253044 261039 245044 267043 253046;
0213992760999992011010621004+42700-068300FM-18+0000DB276V0202601N004019999999N9999999N1-00161+99999999999ADDOA159900601SA1+0669REMSYN182BBXX  44005 06211 99432 70691 46/// /2604 11016 92050 22200 00066 10401 20401 3//// 40401 70007 333 91206 555 11040 22041 32039 42707 62049 261040 257038 258038 254037 245040 245045;
0213992760999992011010622004+42700-068300FM-18+0000DB276V0202701N003019999999N9999999N1-00171+99999999999ADDOA159900501SA1+0669REMSYN182BBXX  44005 06221 99432 70691 46/// /2703 11017 92150 22200 00066 10801 20401 3//// 40801 70006 333 91205 555 11033 22034 32103 42507 62149 271032 270039 265038 269042 263039 267042;
0213992760999992011010623004+42700-068300FM-18+0000DB276V0202701N003019999999N9999999N1-00151+99999999999ADDOA159900501SA1+0669REMSYN182BBXX  44005 06231 99432 70691 46/// /2703 11015 92250 22200 00066 10801 20401 3//// 40801 70006 333 91205 555 11033 22034 32154 42806 62249 271032 299033 284036 274028 262031 278039;
0213992760999992011010700004+42700-068300FM-18+0000DB276V0203001N002019999999N9999999N1-00191+99999999999ADDOA159900301SA1+0669REMSYN182BBXX  44005 07001 99432 70691 46/// /3002 11019 92350 22200 00066 10801 20401 3//// 40801 70006 333 91203 555 11015 22016 32314 42806 62349 291019 275025 267024 278036 259030 289032;
0213992760999992011010701004+42700-068300FM-18+0000DB276V0203101N003019999999N9999999N1-00201+99999999999ADDOA159900401SA1+0669REMSYN182BBXX  44005 07011 99432 70691 46/// /3103 11020 90050 22200 00066 10701 20401 3//// 40701 70006 333 91204 555 11026 22026 30040 43205 60049 308027 322028 304024 288025 276027 290027;
0213992760999992011010702004+42700-068300FM-18+0000DB276V0203301N003019999999N9999999N1-00191+99999999999ADDOA159900401SA1+0669REMSYN182BBXX  44005 07021 99432 70691 46/// /3303 11019 90150 22200 00066 10701 20301 3//// 40701 70005 333 91204 555 11027 22027 30124 43005 60149 328027 326024 317032 304031 301028 303023;
0207992760999992011010703004+42700-068300FM-18+0000DB276V0203601N003019999999N9999999N1-00221+99999999999ADDOA159900401SA1+0669REMSYN176BBXX  44005 07031 99432 70691 46/// /3603 11022 90250 22200 00066 10701 3//// 40701 70005 333 91204 555 11028 22028 30226 43105 60249 358024 323019 329027 322022 325025 271025;
0207992760999992011010704004+42700-068300FM-18+0000DB276V0202901N001019999999N9999999N1-00211+99999999999ADDOA159900201SA1+0669REMSYN176BBXX  44005 07041 99432 70691 46/// /2901 11021 90350 22200 00066 10701 3//// 40701 70005 333 91202 555 11012 22012 30308 43405 60349 296013 350012 000020 355018 338022 301016;
0207992760999992011010705004+42700-068300FM-18+0000DB276V0203401N001019999999N9999999N1-00241+99999999999ADDOA159900301SA1+0669REMSYN176BBXX  44005 07051 99432 70691 46/// /3401 11024 90450 22200 00066 10801 3//// 40801 70004 333 91203 555 11014 22014 30402 40104 60449 338016 011012 025016 019011 011021 358024;
0207992760999992011010706004+42700-068300FM-18+0000DB276V0209999C000019999999N9999999N1-00231+99999999999ADDOA159900101SA1+0669REMSYN176BBXX  44005 07061 99432 70691 46/// /0000 11023 90550 22200 00066 10801 3//// 40801 70004 333 91201 555 11001 22001 30506 40703 60549 072007 067013 331013 006012 008013 350010;
0207992760999992011010707004+42700-068300FM-18+0000DB276V0209999C000019999999N9999999N1-00231+99999999999ADDOA159900101SA1+0669REMSYN176BBXX  44005 07071 99432 70691 46/// /0000 11023 90650 22200 00066 10801 3//// 40801 70004 333 91201 555 11004 22004 30608 40303 60649 275006 253006 333008 355011 025016 348010;
0207992760999992011010708004+42700-068300FM-18+0000DB276V0209999C000019999999N9999999N1-00191+99999999999ADDOA159900101SA1+0669REMSYN176BBXX  44005 07081 99432 70691 46/// /0000 11019 90750 22200 00066 10801 3//// 40801 70005 333 91201 555 11003 22003 30739 43601 60749 316006 021007 286007 094005 196007 227006;
0207992760999992011010709004+42700-068300FM-18+0000DB276V0201501N001019999999N9999999N1-00121+99999999999ADDOA159900201SA1+0669REMSYN176BBXX  44005 07091 99432 70691 46/// /1501 11012 90850 22200 00066 10801 3//// 40801 70004 333 91202 555 11009 22009 30831 41503 60849 158011 140012 105012 121010 101012 116009;
0213992760999992011010710004+42700-068300FM-18+0000DB276V0200501N002019999999N9999999N1-00151+99999999999ADDOA159900301SA1+0669REMSYN182BBXX  44005 07101 99432 70691 46/// /0502 11015 90950 22200 00066 10801 20301 3//// 40801 70006 333 91203 555 11018 22019 30941 40903 60949 058019 065010 095010 096010 103013 168007;
0213992760999992011010711004+42700-068300FM-18+0000DB276V0200501N003019999999N9999999N1-00111+99999999999ADDOA159900401SA1+0669REMSYN182BBXX  44005 07111 99432 70691 46/// /0503 11011 91050 22200 00066 10701 20401 3//// 40701 70006 333 91204 555 11032 22033 31027 40404 61049 048030 033026 041025 035024 041023 030017;
0213992760999992011010712004+42700-068300FM-18+0000DB276V0200601N001019999999N9999999N1-00091+99999999999ADDOA159900301SA1+0669REMSYN182BBXX  44005 07121 99432 70691 46/// /0601 11009 91150 22200 00066 10801 20401 3//// 40801 70006 333 91203 555 11012 22012 31113 40504 61149 063015 080016 070021 067023 040028 056029;
0213992760999992011010713004+42700-068300FM-18+0000DB276V0200601N004019999999N9999999N1-00121+99999999999ADDOA159900601SA1+0669REMSYN182BBXX  44005 07131 99432 70691 46/// /0604 11012 91250 22200 00066 10701 20401 3//// 40701 70007 333 91206 555 11043 22044 31245 40606 61249 063040 128014 114011 072014 087018 117005;
0213992760999992011010714004+42700-068300FM-18+0000DB276V0200401N001019999999N9999999N1-00081+99999999999ADDOA159900301SA1+0649REMSYN182BBXX  44005 07141 99432 70691 46/// /0401 11008 91350 22200 00064 10701 20401 3//// 40701 70007 333 91203 555 11011 22011 31300 40606 61349 030014 006019 008023 014033 041040 058038;
0213992760999992011010715004+42700-068300FM-18+0000DB276V0201201N001019999999N9999999N1+00071+99999999999ADDOA159900401SA1+0649REMSYN182BBXX  44005 07151 99432 70691 46/// /1201 10007 91450 22200 00064 10701 20401 3//// 40701 70006 333 91204 555 11014 22015 31447 41004 61449 114017 110013 113007 105007 075007 049014;
0213992760999992011010716004+42700-068300FM-18+0000DB276V0200601N003019999999N9999999N1+00191+99999999999ADDOA159900401SA1+0659REMSYN182BBXX  44005 07161 99432 70691 46/// /0603 10019 91550 22200 00065 10502 20301 3//// 40501 70008 333 91204 555 11030 22030 31518 41005 61549 062029 074038 084037 083028 100024 090025;
0213992760999992011010717004+42700-068300FM-18+0000DB276V0201401N002019999999N9999999N1+00091+99999999999ADDOA159900401SA1+0659REMSYN182BBXX  44005 07171 99432 70691 46/// /1402 10009 91650 22200 00065 10502 20301 3//// 40501 70008 333 91204 555 11023 22023 31554 41004 61649 143019 134019 138016 118017 101019 078025;
0213992760999992011010718004+42700-068300FM-18+0000DB276V0201001N004019999999N9999999N1+00201+99999999999ADDOA159900701SA1+0649REMSYN182BBXX  44005 07181 99432 70691 46/// /1004 10020 91750 22200 00064 10402 20401 3//// 40401 70008 333 91207 555 11043 22045 31749 40907 61749 103041 100042 107027 116033 142024 154036;
0213992760999992011010719004+42700-068300FM-18+0000DB276V0200901N004019999999N9999999N1+00121+99999999999ADDOA159900501SA1+0649REMSYN182BBXX  44005 07191 99432 70691 46/// /0904 10012 91850 22200 00064 10502 20301 3//// 40501 70008 333 91205 555 11036 22037 31754 40806 61849 087034 084041 087044 090049 093050 087050;
0213992760999992011010720004+42700-068300FM-18+0000DB276V0200501N006019999999N9999999N1+00091+99999999999ADDOA159900701SA1+0639REMSYN182BBXX  44005 07201 99432 70691 46/// /0506 10009 91950 22200 00063 10502 20502 3//// 41001 70008 333 91207 555 11060 22063 31944 40707 61949 052055 072040 084026 078039 072033 082032;
0213992760999992011010721004+42700-068300FM-18+0000DB276V0200501N006019999999N9999999N1+00031+99999999999ADDOA159900701SA1+0639REMSYN182BBXX  44005 07211 99432 70691 46/// /0506 10003 92050 22200 00063 10502 20502 3//// 40801 70009 333 91207 555 11058 22060 32019 40808 62049 053056 047060 049058 060056 069052 062050;
0213992760999992011010722004+42700-068300FM-18+0000DB276V0200501N007019999999N9999999N1+00081+99999999999ADDOA159900801SA1+0649REMSYN182BBXX  44005 07221 99432 70691 46/// /0507 10008 92150 22200 00064 10502 20501 3//// 40901 70008 333 91208 555 11068 22070 32131 40708 62149 049065 057062 057061 053057 055055 067058;
0213992760999992011010723004+42700-068300FM-18+0000DB276V0200501N006019999999N9999999N1+00051+99999999999ADDOA159900901SA1+0649REMSYN182BBXX  44005 07231 99432 70691 46/// /0506 10005 92250 22200 00064 10502 20501 3//// 40801 70008 333 91209 555 11067 22069 32244 40609 62249 048064 051064 050065 042063 048064 044060;
0213992760999992011010800004+42700-068300FM-18+0000DB276V0200301N007019999999N9999999N1+00051+99999999999ADDOA159900901SA1+0649REMSYN182BBXX  44005 08001 99432 70691 46/// /0307 10005 92350 22200 00064 10402 20402 3//// 40801 70009 333 91209 555 11075 22078 32301 40410 62349 029071 031075 031068 034066 038064 043065;
0213992760999992011010801004+42700-068300FM-18+0000DB276V0200301N007019999999N9999999N1+00041+99999999999ADDOA159900901SA1+0649REMSYN182BBXX  44005 08011 99432 70691 46/// /0307 10004 90050 22200 00064 10402 20402 3//// 40701 70008 333 91209 555 11071 22074 30011 40410 60049 029067 038066 026072 035072 032065 024062;
0213992760999992011010802004+42700-068300FM-18+0000DB276V0200201N006019999999N9999999N1+00021+99999999999ADDOA159900701SA1+0669REMSYN182BBXX  44005 08021 99432 70691 46/// /0206 10002 90150 22200 00066 10402 20402 3//// 40601 70009 333 91207 555 11057 22059 30100 40109 60149 019054 024053 027059 021066 030068 031076;
0213992760999992011010803004+42700-068300FM-18+0000DB276V0200301N007019999999N9999999N1+00041+99999999999ADDOA159900801SA1+0669REMSYN182BBXX  44005 08031 99432 70691 46/// /0307 10004 90250 22200 00066 10502 20502 3//// 40701 70011 333 91208 555 11069 22072 30234 40408 60249 030064 039064 040061 038059 030063 031059;
0213992760999992011010804004+42700-068300FM-18+0000DB276V0200101N006019999999N9999999N1+00051+99999999999ADDOA159900701SA1+0669REMSYN182BBXX  44005 08041 99432 70691 46/// /0106 10005 90350 22200 00066 10502 20402 3//// 40501 70010 333 91207 555 11058 22060 30256 40108 60349 006056 012051 014054 013055 020061 023064;
0213992760999992011010805004+42700-068300FM-18+0000DB276V0203601N007019999999N9999999N1+00061+99999999999ADDOA159900801SA1+0669REMSYN182BBXX  44005 08051 99432 70691 46/// /3607 10006 90450 22200 00066 10502 20502 3//// 41101 70011 333 91208 555 11068 22070 30427 43609 60449 003065 353065 000066 356061 000060 003059;
0213992760999992011010806004+42700-068300FM-18+0000DB276V0203501N006019999999N9999999N1+00061+99999999999ADDOA159900801SA1+0669REMSYN182BBXX  44005 08061 99432 70691 46/// /3506 10006 90550 22200 00066 10502 20502 3//// 40901 70011 333 91208 555 11064 22066 30456 43509 60549 348061 357057 354057 353060 352063 352063;
0213992760999992011010807004+42700-068300FM-18+0000DB276V0203401N006019999999N9999999N1+00011+99999999999ADDOA159900701SA1+0669REMSYN182BBXX  44005 08071 99432 70691 46/// /3406 10001 90650 22200 00066 10502 20502 3//// 41101 70010 333 91207 555 11057 22059 30607 43508 60649 337056 338055 350056 346056 353059 346056;
0213992760999992011010808004+42700-068300FM-18+0000DB276V0203401N005019999999N9999999N1+00011+99999999999ADDOA159900601SA1+0679REMSYN182BBXX  44005 08081 99432 70691 46/// /3405 10001 90750 22200 00067 10502 20401 3//// 40501 70009 333 91206 555 11047 22048 30700 43207 60749 334043 336047 341048 344048 341051 336052;
0213992760999992011010809004+42700-068300FM-18+0000DB276V0203401N006019999999N9999999N1+00061+99999999999ADDOA159900801SA1+0679REMSYN182BBXX  44005 08091 99432 70691 46/// /3406 10006 90850 22200 00067 10502 20501 3//// 40601 70008 333 91208 555 11057 22059 30843 43308 60849 340054 340050 344047 347046 349045 344043;
0213992760999992011010810004+42700-068300FM-18+0000DB276V0203301N005019999999N9999999N1+00051+99999999999ADDOA159900601SA1+0669REMSYN182BBXX  44005 08101 99432 70691 46/// /3305 10005 90950 22200 00066 10502 20301 3//// 40501 70008 333 91206 555 11049 22050 30856 43307 60949 327046 323051 330049 337052 335052 334054;
0213992760999992011010811004+42700-068300FM-18+0000DB276V0203301N005019999999N9999999N1+00091+99999999999ADDOA159900601SA1+0679REMSYN182BBXX  44005 08111 99432 70691 46/// /3305 10009 91050 22200 00067 10502 20401 3//// 40501 70008 333 91206 555 11051 22052 31008 43206 61049 327047 329044 327045 326040 315047 320046;
0213992760999992011010812004+42700-068300FM-18+0000DB276V0203101N005019999999N9999999N1+00081+99999999999ADDOA159900601SA1+0669REMSYN182BBXX  44005 08121 99432 70691 46/// /3105 10008 91150 22200 00066 10502 20401 3//// 40501 70009 333 91206 555 11052 22054 31111 43107 61149 309051 314052 333052 329056 332052 329052;
0213992760999992011010813004+42700-068300FM-18+0000DB276V0203401N004019999999N9999999N1+00121+99999999999ADDOA159900501SA1+0669REMSYN182BBXX  44005 08131 99432 70691 46/// /3404 10012 91250 22200 00066 11102 20401 3//// 41102 70009 333 91205 555 11046 22047 31233 43307 61249 341043 328043 345044 340041 320037 304045;
0213992760999992011010814004+42700-068300FM-18+0000DB276V0203501N005019999999N9999999N1+00161+99999999999ADDOA159900601SA1+0679REMSYN182BBXX  44005 08141 99432 70691 46/// /3505 10016 91350 22200 00067 11102 20501 3//// 41102 70010 333 91206 555 11055 22057 31324 43407 61349 353052 345056 343057 341059 345051 342049;
0213992760999992011010815004+42700-068300FM-18+0000DB276V0203601N004019999999N9999999N1+00221+99999999999ADDOA159900501SA1+0669REMSYN182BBXX  44005 08151 99432 70691 46/// /3604 10022 91450 22200 00066 11002 20401 3//// 41002 70011 333 91205 555 11039 22040 31357 43506 61449 356038 353037 358042 358045 347047 353050;
0213992760999992011010816004+42700-068300FM-18+0000DB276V0203501N003019999999N9999999N1+00321+99999999999ADDOA159900401SA1+0679REMSYN182BBXX  44005 08161 99432 70691 46/// /3503 10032 91550 22200 00067 11002 20401 3//// 41002 70011 333 91204 555 11032 22033 31507 43405 61549 349032 352037 353041 000039 000041 002041;
0205992760999992011010817004+42700-068300FM-18+0000DB276V0203601N004019999999N9999999N1+00391+99999999999ADDOA159900601REMSYN182BBXX  44005 08171 99432 70691 46/// /3604 10039 91650 22200 00070 11102 20401 3//// 41102 70012 333 91206 555 11043 22044 31643 43606 61649 358041 353041 350041 349039 355037 000033;
0213992760999992011010818004+42700-068300FM-18+0000DB276V0200201N004019999999N9999999N1+00441+99999999999ADDOA159900501SA1+0679REMSYN182BBXX  44005 08181 99432 70691 46/// /0204 10044 91750 22200 00067 11103 20401 3//// 41103 70015 333 91205 555 11038 22040 31700 40106 61749 021037 000032 008037 007040 003045 002043;
0213992760999992011010819004+42700-068300FM-18+0000DB276V0200101N003019999999N9999999N1+00401+99999999999ADDOA159900401SA1+0669REMSYN182BBXX  44005 08191 99432 70691 46/// /0103 10040 91850 22200 00066 11003 20401 3//// 41003 70015 333 91204 555 11035 22036 31818 40205 61849 007033 005034 008037 016037 020036 019035;
0213992760999992011010820004+42700-068300FM-18+0000DB276V0200201N004019999999N9999999N1+00241+99999999999ADDOA159900501SA1+0669REMSYN182BBXX  44005 08201 99432 70691 46/// /0204 10024 91950 22200 00066 11003 20401 3//// 41003 70014 333 91205 555 11042 22044 31937 40206 61949 021040 023043 024038 011037 013034 014035;
0213992760999992011010821004+42700-068300FM-18+0000DB276V0200301N006019999999N9999999N1+00211+99999999999ADDOA159900701SA1+0669REMSYN182BBXX  44005 08211 99432 70691 46/// /0306 10021 92050 22200 00066 11003 20501 3//// 41003 70017 333 91207 555 11062 22064 32038 40307 62049 024058 026060 020052 023046 022042 017041;
0213992760999992011010822004+42700-068300FM-18+0000DB276V0200401N006019999999N9999999N1+00191+99999999999ADDOA159900801SA1+0669REMSYN182BBXX  44005 08221 99432 70691 46/// /0406 10019 92150 22200 00066 11004 20601 3//// 41003 70018 333 91208 555 11067 22069 32149 40408 62149 034062 025060 031062 029065 026062 027061;
0213992760999992011010823004+42700-068300FM-18+0000DB276V0200301N011019999999N9999999N1+00171+99999999999ADDOA159901201SA1+0669REMSYN182BBXX  44005 08231 99432 70691 46/// /0311 10017 92250 22200 00066 10804 20301 3//// 40803 70018 333 91212 555 11112 22118 32242 40212 62249 028106 033096 029083 031073 031069 039066;
0205992760999992011010900004+42700-068300FM-18+0000DB276V0200401N006019999999N9999999N1+00241+99999999999ADDOA159900801REMSYN182BBXX  44005 09001 99432 70691 46/// /0406 10024 92350 22200 00070 10803 20302 3//// 40803 70017 333 91208 555 11063 22065 32256 40411 62349 039061 036068 044071 040075 036087 032093;
0213992760999992011010901004+42700-068300FM-18+0000DB276V0200101N008019999999N9999999N1+00301+99999999999ADDOA159901001SA1+0679REMSYN182BBXX  44005 09011 99432 70691 46/// /0108 10030 90050 22200 00067 11103 20402 3//// 41103 70016 333 91210 555 11084 22088 30040 40110 60049 014082 012074 010064 015063 012050 025065;
0213992760999992011010902004+42700-068300FM-18+0000DB276V0200101N006019999999N9999999N1+00321+99999999999ADDOA159900801SA1+0679REMSYN182BBXX  44005 09021 99432 70691 46/// /0106 10032 90150 22200 00067 11303 20402 3//// 41303 70017 333 91208 555 11065 22067 30104 43510 60149 010062 012067 013064 017076 011079 006070;
0205992760999992011010903004+42700-068300FM-18+0000DB276V0203501N008019999999N9999999N1+00201+99999999999ADDOA159901101REMSYN182BBXX  44005 09031 99432 70691 46/// /3508 10020 90250 22200 00070 11003 20602 3//// 41003 70017 333 91211 555 11086 22090 30232 43612 60249 353084 000095 004088 358056 004048 018059;
0205992760999992011010904004+42700-068300FM-18+0000DB276V0200601N012019999999N9999999N1+00411+99999999999ADDOA159901401REMSYN182BBXX  44005 09041 99432 70691 46/// /0612 10041 90350 22200 00070 11003 20502 3//// 41002 70016 333 91214 555 11123 22130 30344 40814 60349 063114 068113 068113 058088 337067 344078;
0213992760999992011010905004+42700-068300FM-18+0000DB276V0200401N012019999999N9999999N1+00421+99999999999ADDOA159901601SA1+0719REMSYN182BBXX  44005 09051 99432 70691 46/// /0412 10042 90450 22200 00071 10504 20504 3//// 41002 70022 333 91216 555 11132 22140 30445 40316 60449 044123 052122 055119 053120 056123 053120;
0213992760999992011010906004+42700-068300FM-18+0000DB276V0200301N014019999999N9999999N1+00291+99999999999ADDOA159901701SA1+0729REMSYN182BBXX  44005 09061 99432 70691 46/// /0314 10029 90550 22200 00072 10605 20605 3//// 41002 70025 333 91217 555 11144 22152 30538 40417 60549 028135 035135 040135 042131 043120 044116;
0213992760999992011010907004+42700-068300FM-18+0000DB276V0200201N015019999999N9999999N1+00221+99999999999ADDOA159901701SA1+0719REMSYN182BBXX  44005 09071 99432 70691 46/// /0215 10022 90650 22200 00071 10606 20605 3//// 41002 70028 333 91217 555 11160 22169 30558 40219 60649 015150 016144 017146 016147 020150 026143;
0213992760999992011010908004+42700-068300FM-18+0000DB276V0200201N014019999999N9999999N1+00191+99999999999ADDOA159901601SA1+0719REMSYN182BBXX  44005 09081 99432 70691 46/// /0214 10019 90750 22200 00071 10706 20505 3//// 40704 70030 333 91216 555 11146 22154 30703 40218 60749 014138 013140 011142 017144 021145 019139;
0201992760999992011010909004+42700-068300FM-18+0000DB276V0200101N014019999999N9999999N1+00151+99999999999ADDOA159901601SA1+0749REMSYN170BBXX  44005 09091 99432 70691 46/// /0114 10015 90850 22200 00074 10707 20707 70033 333 91216 555 11145 22152 30837 40117 60849 013138 010140 015143 013140 013143 015142;
0213992760999992011010910004+42700-068300FM-18+0000DB276V0200101N014019999999N9999999N1+00121+99999999999ADDOA159901801SA1+0749REMSYN182BBXX  44005 09101 99432 70691 46/// /0114 10012 90950 22200 00074 10706 20705 3//// 40903 70030 333 91218 555 11148 22156 30947 43618 60949 008137 004141 008137 003131 006137 010132;
0213992760999992011010911004+42700-068300FM-18+0000DB276V0203601N014019999999N9999999N1+00111+99999999999ADDOA159901701SA1+0759REMSYN182BBXX  44005 09111 99432 70691 46/// /3614 10011 91050 22200 00075 10706 20705 3//// 41003 70031 333 91217 555 11153 22162 30957 43617 61049 000142 002139 006134 006135 004134 003138;
0213992760999992011010912004+42700-068300FM-18+0000DB276V0203401N013019999999N9999999N1+00091+99999999999ADDOA159901801SA1+0779REMSYN182BBXX  44005 09121 99432 70691 46/// /3413 10009 91150 22200 00077 10706 20705 3//// 41003 70031 333 91218 555 11140 22147 31149 43618 61149 344132 346131 348134 346140 353138 003136;
0201992760999992011010913004+42700-068300FM-18+0000DB276V0203501N013019999999N9999999N1+00131+99999999999ADDOA159901601SA1+0749REMSYN170BBXX  44005 09131 99432 70691 46/// /3513 10013 91250 22200 00074 10706 20706 70029 333 91216 555 11135 22142 31234 43618 61249 352129 350140 349142 348131 347132 346136;
0201992760999992011010914004+42700-068300FM-18+0000DB276V0203401N014019999999N9999999N1+00131+99999999999ADDOA159901701SA1+0749REMSYN170BBXX  44005 09141 99432 70691 46/// /3414 10013 91350 22200 00074 10606 20606 70028 333 91217 555 11145 22152 31328 43318 61349 335136 335135 340145 341135 342132 348131;
0201992760999992011010915004+42700-068300FM-18+0000DB276V0203201N014019999999N9999999N1+00201+99999999999ADDOA159901601SA1+0789REMSYN170BBXX  44005 09151 99432 70691 46/// /3214 10020 91450 22200 00078 10606 20606 70028 333 91216 555 11144 22151 31417 43317 61449 325135 330131 331133 333136 330134 335136;
0213992760999992011010916004+42700-068300FM-18+0000DB276V0203101N012019999999N9999999N1+00261+99999999999ADDOA159901401SA1+0759REMSYN182BBXX  44005 09161 99432 70691 46/// /3112 10026 91550 22200 00075 10605 20605 3//// 42502 70026 333 91214 555 11123 22129 31500 43316 61549 313117 315114 315119 312116 318117 320125;
0213992760999992011010917004+42700-068300FM-18+0000DB276V0202901N012019999999N9999999N1+00231+99999999999ADDOA159901501SA1+0719REMSYN182BBXX  44005 09171 99432 70691 46/// /2912 10023 91650 22200 00071 10605 20605 3//// 41001 70027 333 91215 555 11127 22134 31636 42916 61649 294120 294122 305116 304111 310112 312113;
0201992760999992011010918004+42700-068300FM-18+0000DB276V0203001N012019999999N9999999N1+00291+99999999999ADDOA159901501SA1+0719REMSYN170BBXX  44005 09181 99432 70691 46/// /3012 10029 91750 22200 00071 10605 20605 70027 333 91215 555 11130 22137 31724 43017 61749 297125 294126 297122 298120 296119 295119;
0201992760999992011010919004+42700-068300FM-18+0000DB276V0202901N013019999999N9999999N1+00311+99999999999ADDOA159901601SA1+0719REMSYN170BBXX  44005 09191 99432 70691 46/// /2913 10031 91850 22200 00071 10606 20606 70028 333 91216 555 11141 22149 31832 42916 61849 291130 291132 292125 297125 292127 294120;
0201992760999992011010920004+42700-068300FM-18+0000DB276V0202901N014019999999N9999999N1+00371+99999999999ADDOA159901801SA1+0719REMSYN170BBXX  44005 09201 99432 70691 46/// /2914 10037 91950 22200 00071 10706 20706 70029 333 91218 555 11149 22158 31947 42918 61949 295139 292136 292130 293131 287132 288132;
0213992760999992011010921004+42700-068300FM-18+0000DB276V0202901N013019999999N9999999N1+00341+99999999999ADDOA159901701SA1+0719REMSYN182BBXX  44005 09211 99432 70691 46/// /2913 10034 92050 22200 00071 10705 20705 3//// 41001 70025 333 91217 555 11142 22150 32004 42917 62049 294133 291133 294129 295127 293137 294139;
0213992760999992011010922004+42700-068300FM-18+0000DB276V0203001N015019999999N9999999N1+00251+99999999999ADDOA159901801SA1+0719REMSYN182BBXX  44005 09221 99432 70691 46/// /3015 10025 92150 22200 00071 10706 20706 3//// 41001 70029 333 91218 555 11162 22172 32138 43120 62149 297153 298152 297140 296147 298138 296139;
0205992760999992011010923004+42700-068300FM-18+0000DB276V0203001N014019999999N9999999N1+00201+99999999999ADDOA159901701REMSYN182BBXX  44005 09231 99432 70691 46/// /3014 10020 92250 22200 00070 10706 20705 3//// 41102 70028 333 91217 555 11147 22155 32156 43119 62249 301139 303144 305146 303146 300151 300156;
0201992760999992011011000004+42700-068300FM-18+0000DB276V0203101N014019999999N9999999N1+00141+99999999999ADDOA159901901SA1+0679REMSYN170BBXX  44005 10001 99432 70691 46/// /3114 10014 92350 22200 00067 10706 20706 70029 333 91219 555 11153 22162 32256 43119 62349 304143 304141 304144 305139 304145 305153;
0201992760999992011011001004+42700-068300FM-18+0000DB276V0203101N013019999999N9999999N1+00081+99999999999ADDOA159901701SA1+0679REMSYN170BBXX  44005 10011 99432 70691 46/// /3113 10008 90050 22200 00067 10706 20706 70029 333 91217 555 11136 22143 30011 43117 60049 305128 307134 303140 304136 305136 308136;
0213992760999992011011002004+42700-068300FM-18+0000DB276V0203001N013019999999N9999999N1+00051+99999999999ADDOA159901701SA1+0679REMSYN182BBXX  44005 10021 99432 70691 46/// /3013 10005 90150 22200 00067 10705 20705 3//// 41101 70027 333 91217 555 11141 22149 30110 43118 60149 304133 304130 303131 306132 311132 308128;
0201992760999992011011003004+42700-068300FM-18+0000DB276V0203001N012019999999N9999999N1+00061+99999999999ADDOA159901501SA1+0679REMSYN170BBXX  44005 10031 99432 70691 46/// /3012 10006 90250 22200 00067 10705 20705 70027 333 91215 555 11130 22137 30219 43117 60249 299123 303133 301131 304135 304130 300133;
0213992760999992011011004004+42700-068300FM-18+0000DB276V0203001N011019999999N9999999N1+00031+99999999999ADDOA159901401SA1+0669REMSYN182BBXX  44005 10041 99432 70691 46/// /3011 10003 90350 22200 00066 10705 20705 3//// 41101 70025 333 91214 555 11119 22124 30301 43016 60349 302111 307118 302120 300121 307123 296119;
0213992760999992011011005004+42700-068300FM-18+0000DB276V0203101N011019999999N9999999N1-00031+99999999999ADDOA159901401SA1+0669REMSYN182BBXX  44005 10051 99432 70691 46/// /3111 11003 90450 22200 00066 10605 20605 3//// 41001 70026 333 91214 555 11120 22125 30414 43115 60449 308113 312113 310116 308115 305119 302118;
0201992760999992011011006004+42700-068300FM-18+0000DB276V0203101N012019999999N9999999N1-00091+99999999999ADDOA159901601SA1+0669REMSYN170BBXX  44005 10061 99432 70691 46/// /3112 11009 90550 22200 00066 10605 20605 70025 333 91216 555 11125 22131 30531 43116 60549 310118 310110 308114 308111 309108 302111;
0213992760999992011011007004+42700-068300FM-18+0000DB276V0203101N011019999999N9999999N1-00161+99999999999ADDOA159901501SA1+0669REMSYN182BBXX  44005 10071 99432 70691 46/// /3111 11016 90650 22200 00066 10705 20705 3//// 41101 70026 333 91215 555 11119 22125 30630 43115 60649 306113 305116 304115 310116 304112 305109;
0213992760999992011011008004+42700-068300FM-18+0000DB276V0203001N011019999999N9999999N1-00171+99999999999ADDOA159901501SA1+0669REMSYN182BBXX  44005 10081 99432 70691 46/// /3011 11017 90750 22200 00066 10705 20705 3//// 41001 70025 333 91215 555 11119 22125 30749 42915 60749 301112 297108 303109 295110 307109 304110;
0201992760999992011011009004+42700-068300FM-18+0000DB276V0203001N011019999999N9999999N1-00181+99999999999ADDOA159901501SA1+0669REMSYN170BBXX  44005 10091 99432 70691 46/// /3011 11018 90850 22200 00066 10705 20705 70025 333 91215 555 11116 22121 30844 43215 60849 303110 298112 298117 299113 298110 299108;
0213992760999992011011010004+42700-068300FM-18+0000DB276V0203001N012019999999N9999999N1-00201+99999999999ADDOA159901401SA1+0669REMSYN182BBXX  44005 10101 99432 70691 46/// /3012 11020 90950 22200 00066 10704 20704 3//// 41301 70022 333 91214 555 11121 22127 30933 43015 60949 299114 302115 299108 298111 300108 298112;
0213992760999992011011011004+42700-068300FM-18+0000DB276V0203001N011019999999N9999999N1-00221+99999999999ADDOA159901401SA1+0669REMSYN182BBXX  44005 10111 99432 70691 46/// /3011 11022 91050 22200 00066 10605 20605 3//// 41001 70024 333 91214 555 11111 22116 30954 43015 61049 303107 295111 302109 307109 303113 304117;
0213992760999992011011012004+42700-068300FM-18+0000DB276V0203001N011019999999N9999999N1-00171+99999999999ADDOA159901301SA1+0659REMSYN182BBXX  44005 10121 99432 70691 46/// /3011 11017 91150 22200 00065 10605 20605 3//// 41001 70023 333 91213 555 11111 22116 31138 43114 61149 302104 303112 303112 304112 305111 298109;
0213992760999992011011013004+42700-068300FM-18+0000DB276V0203001N011019999999N9999999N1-00061+99999999999ADDOA159901301SA1+0649REMSYN182BBXX  44005 10131 99432 70691 46/// /3011 11006 91250 22200 00064 10604 20604 3//// 41001 70022 333 91213 555 11115 22121 31226 43114 61249 304110 306109 306115 299108 303108 304108;
0201992760999992011011014004+42700-068300FM-18+0000DB276V0203101N010019999999N9999999N1-00031+99999999999ADDOA159901301SA1+0649REMSYN170BBXX  44005 10141 99432 70691 46/// /3110 11003 91350 22200 00064 10604 20604 70020 333 91213 555 11109 22114 31321 43114 61349 307103 309104 306109 308102 308106 305105;
0201992760999992011011015004+42700-068300FM-18+0000DB276V0203001N009019999999N9999999N1-00091+99999999999ADDOA159901201SA1+0649REMSYN170BBXX  44005 10151 99432 70691 46/// /3009 11009 91450 22200 00064 10604 20604 70019 333 91212 555 11099 22103 31404 43013 61449 304096 301099 301099 305101 304107 308102;
0201992760999992011011016004+42700-068300FM-18+0000DB276V0203101N010019999999N9999999N1+00021+99999999999ADDOA159901301SA1+0649REMSYN170BBXX  44005 10161 99432 70691 46/// /3110 10002 91550 22200 00064 10604 20604 70019 333 91213 555 11104 22109 31549 43113 61549 304097 304097 301095 304099 302098 301099;
0201992760999992011011017004+42700-068300FM-18+0000DB276V0203001N010019999999N9999999N1+00101+99999999999ADDOA159901301SA1+0649REMSYN170BBXX  44005 10171 99432 70691 46/// /3010 10010 91650 22200 00064 10604 20604 70018 333 91213 555 11108 22113 31557 43113 61649 304103 299102 295102 299101 305102 305104;
0201992760999992011011018004+42700-068300FM-18+0000DB276V0203101N010019999999N9999999N1+00161+99999999999ADDOA159901201SA1+0649REMSYN170BBXX  44005 10181 99432 70691 46/// /3110 10016 91750 22200 00064 10604 20604 70020 333 91212 555 11107 22112 31727 43013 61749 307100 308099 308102 310099 308102 309102;
0201992760999992011011019004+42700-068300FM-18+0000DB276V0203001N010019999999N9999999N1+00201+99999999999ADDOA159901201SA1+0649REMSYN170BBXX  44005 10191 99432 70691 46/// /3010 10020 91850 22200 00064 10604 20604 70021 333 91212 555 11105 22110 31838 43013 61849 299098 303099 305101 301097 308097 305107;
0201992760999992011011020004+42700-068300FM-18+0000DB276V0203001N010019999999N9999999N1+00191+99999999999ADDOA159901201SA1+0649REMSYN170BBXX  44005 10201 99432 70691 46/// /3010 10019 91950 22200 00064 10604 20604 70021 333 91212 555 11108 22113 31931 43014 61949 297101 295103 294098 298098 300096 298105;
0201992760999992011011021004+42700-068300FM-18+0000DB276V0203001N010019999999N9999999N1+00211+99999999999ADDOA159901301SA1+0649REMSYN170BBXX  44005 10211 99432 70691 46/// /3010 10021 92050 22200 00064 10604 20604 70019 333 91213 555 11105 22110 31959 43114 62049 299099 302101 300103 299103 300106 303103;
0201992760999992011011022004+42700-068300FM-18+0000DB276V0203001N011019999999N9999999N1+00201+99999999999ADDOA159901301SA1+0649REMSYN170BBXX  44005 10221 99432 70691 46/// /3011 10020 92150 22200 00064 10604 20604 70019 333 91213 555 11113 22119 32138 43114 62149 300108 300105 298101 299099 299104 293106;
0201992760999992011011023004+42700-068300FM-18+0000DB276V0203101N011019999999N9999999N1+00161+99999999999ADDOA159901301SA1+0649REMSYN170BBXX  44005 10231 99432 70691 46/// /3111 10016 92250 22200 00064 10604 20604 70018 333 91213 555 11112 22118 32216 43113 62249 305107 304102 301108 301113 308106 308105;
0213992760999992011011100004+42700-068300FM-18+0000DB276V0203101N010019999999N9999999N1+00161+99999999999ADDOA159901201SA1+0649REMSYN182BBXX  44005 11001 99432 70691 46/// /3110 10016 92350 22200 00064 10603 20603 3//// 41001 70017 333 91212 555 11104 22109 32305 43113 62349 305097 303094 305101 301101 306102 303107;
0201992760999992011011101004+42700-068300FM-18+0000DB276V0203201N009019999999N9999999N1+00151+99999999999ADDOA159901201SA1+0649REMSYN170BBXX  44005 11011 99432 70691 46/// /3209 10015 90050 22200 00064 10604 20604 70018 333 91212 555 11099 22104 30013 43012 60049 314093 310100 311099 307101 309097 306100;
0201992760999992011011102004+42700-068300FM-18+0000DB276V0203301N010019999999N9999999N1+00061+99999999999ADDOA159901201SA1+0649REMSYN170BBXX  44005 11021 99432 70691 46/// /3310 10006 90150 22200 00064 10604 20604 70018 333 91212 555 11103 22108 30109 43212 60149 330096 325096 318093 317099 318097 314097;
0201992760999992011011103004+42700-068300FM-18+0000DB276V0203401N009019999999N9999999N1-00041+99999999999ADDOA159901101SA1+0649REMSYN170BBXX  44005 11031 99432 70691 46/// /3409 11004 90250 22200 00064 10603 20603 70017 333 91211 555 11097 22101 30159 43412 60249 341092 337092 338088 333088 331100 329102;
0201992760999992011011104004+42700-068300FM-18+0000DB276V0203401N008019999999N9999999N1-00121+99999999999ADDOA159901001SA1+0669REMSYN170BBXX  44005 11041 99432 70691 46/// /3408 11012 90350 22200 00066 10603 20603 70017 333 91210 555 11087 22091 30326 43312 60349 335085 334089 335091 327086 339088 340089;
0201992760999992011011105004+42700-068300FM-18+0000DB276V0203501N009019999999N9999999N1-00141+99999999999ADDOA159901101SA1+0649REMSYN170BBXX  44005 11051 99432 70691 46/// /3509 11014 90450 22200 00064 10503 20503 70017 333 91211 555 11090 22094 30440 43412 60449 350086 348092 346092 346093 346095 341094;
0201992760999992011011106004+42700-068300FM-18+0000DB276V0203601N009019999999N9999999N1-00161+99999999999ADDOA159901101SA1+0649REMSYN170BBXX  44005 11061 99432 70691 46/// /3609 11016 90550 22200 00064 10603 20603 70016 333 91211 555 11093 22097 30502 43612 60549 357089 357080 349083 348093 352091 348090;
0201992760999992011011107004+42700-068300FM-18+0000DB276V0203601N009019999999N9999999N1-00141+99999999999ADDOA159901101SA1+0649REMSYN170BBXX  44005 11071 99432 70691 46/// /3609 11014 90650 22200 00064 10504 20504 70018 333 91211 555 11092 22096 30641 43512 60649 355091 348093 350087 354080 349086 352082;
0201992760999992011011108004+42700-068300FM-18+0000DB276V0203501N009019999999N9999999N1-00161+99999999999ADDOA159901101SA1+0639REMSYN170BBXX  44005 11081 99432 70691 46/// /3509 11016 90750 22200 00063 10604 20604 70019 333 91211 555 11095 22099 30709 43612 60749 348087 348090 353086 353089 354093 357097;
0201992760999992011011109004+42700-068300FM-18+0000DB276V0203501N008019999999N9999999N1-00161+99999999999ADDOA159901101SA1+0639REMSYN170BBXX  44005 11091 99432 70691 46/// /3508 11016 90850 22200 00063 10604 20604 70018 333 91211 555 11085 22088 30815 43511 60849 353081 355086 356087 345088 350089 343084;
0201992760999992011011110004+42700-068300FM-18+0000DB276V0203501N008019999999N9999999N1-00181+99999999999ADDOA159901101SA1+0639REMSYN170BBXX  44005 11101 99432 70691 46/// /3508 11018 90950 22200 00063 10603 20603 70016 333 91211 555 11084 22087 30857 43511 60949 347080 352082 355087 350084 353083 350088;
0201992760999992011011111004+42700-068300FM-18+0000DB276V0203501N009019999999N9999999N1-00211+99999999999ADDOA159901201SA1+0639REMSYN170BBXX  44005 11111 99432 70691 46/// /3509 11021 91050 22200 00063 10503 20503 70017 333 91212 555 11090 22094 31019 43512 61049 353085 353083 353082 353087 352086 350085;
0201992760999992011011112004+42700-068300FM-18+0000DB276V0203501N007019999999N9999999N1-00231+99999999999ADDOA159900901SA1+0649REMSYN170BBXX  44005 11121 99432 70691 46/// /3507 11023 91150 22200 00064 10503 20503 70015 333 91209 555 11073 22076 31101 43611 61149 352071 347074 349075 349076 353078 356072;
0213992760999992011011113004+42700-068300FM-18+0000DB276V0203601N007019999999N9999999N1-00211+99999999999ADDOA159900901SA1+0649REMSYN182BBXX  44005 11131 99432 70691 46/// /3607 11021 91250 22200 00064 10503 20503 3//// 40801 70014 333 91209 555 11070 22072 31221 43611 61249 002067 354069 358080 354075 352076 353070;
0213992760999992011011114004+42700-068300FM-18+0000DB276V0203601N005019999999N9999999N1-00141+99999999999ADDOA159900601SA1+0649REMSYN182BBXX  44005 11141 99432 70691 46/// /3605 11014 91350 22200 00064 10502 20402 3//// 40501 70012 333 91206 555 11054 22056 31303 43609 61349 357052 003051 003064 000061 000066 000063;
0213992760999992011011115004+42700-068300FM-18+0000DB276V0203501N005019999999N9999999N1-00111+99999999999ADDOA159900601SA1+0649REMSYN182BBXX  44005 11151 99432 70691 46/// /3505 11011 91450 22200 00064 10502 20401 3//// 40502 70011 333 91206 555 11047 22048 31404 43609 61449 354043 354041 353042 357041 355047 354050;
0213992760999992011011116004+42700-068300FM-18+0000DB276V0203501N004019999999N9999999N1-00141+99999999999ADDOA159900601SA1+0649REMSYN182BBXX  44005 11161 99432 70691 46/// /3504 11014 91550 22200 00064 10502 20401 3//// 40502 70010 333 91206 555 11040 22041 31525 43507 61549 353038 349042 354036 011036 355048 002043;
0213992760999992011011117004+42700-068300FM-18+0000DB276V0203501N004019999999N9999999N1-00131+99999999999ADDOA159900601SA1+0639REMSYN182BBXX  44005 11171 99432 70691 46/// /3504 11013 91650 22200 00063 10502 20301 3//// 40501 70009 333 91206 555 11036 22037 31632 43206 61649 344034 330032 346039 342034 353038 354036;
0213992760999992011011118004+42700-068300FM-18+0000DB276V0203501N002019999999N9999999N1-00131+99999999999ADDOA159900401SA1+0639REMSYN182BBXX  44005 11181 99432 70691 46/// /3502 11013 91750 22200 00063 10502 20401 3//// 40501 70008 333 91204 555 11019 22020 31718 43406 61749 346021 325034 339031 330034 322036 336028;
0213992760999992011011119004+42700-068300FM-18+0000DB276V0203501N002019999999N9999999N1-00131+99999999999ADDOA159900401SA1+0639REMSYN182BBXX  44005 11191 99432 70691 46/// /3502 11013 91850 22200 00063 10401 20301 3//// 40401 70007 333 91204 555 11024 22024 31823 43505 61849 347024 003023 353030 317020 333028 350029;
0213992760999992011011120004+42700-068300FM-18+0000DB276V0203401N002019999999N9999999N1-00051+99999999999ADDOA159900301SA1+0639REMSYN182BBXX  44005 11201 99432 70691 46/// /3402 11005 91950 22200 00063 10401 20401 3//// 40401 70007 333 91203 555 11020 22021 31903 43605 61949 346022 005019 347028 352019 356032 007030;
0213992760999992011011121004+42700-068300FM-18+0000DB276V0203401N001019999999N9999999N1-00171+99999999999ADDOA159900201SA1+0639REMSYN182BBXX  44005 11211 99432 70691 46/// /3401 11017 92050 22200 00063 10401 20401 3//// 40901 70006 333 91202 555 11008 22008 32030 40303 62049 333011 035013 010010 039009 332015 338012;
0213992760999992011011122004+42700-068300FM-18+0000DB276V0200301N001019999999N9999999N1-00191+99999999999ADDOA159900301SA1+0639REMSYN182BBXX  44005 11221 99432 70691 46/// /0301 11019 92150 22200 00063 10501 20401 3//// 40501 70006 333 91203 555 11012 22012 32144 40102 62149 037012 021010 352010 003010 006013 024010;
0213992760999992011011123004+42700-068300FM-18+0000DB276V0203201N001019999999N9999999N1-00221+99999999999ADDOA159900201SA1+0639REMSYN182BBXX  44005 11231 99432 70691 46/// /3201 11022 92250 22200 00063 10401 20301 3//// 40401 70006 333 91202 555 11006 22006 32206 43003 62249 330010 309009 250006 293011 323013 345009;
0213992760999992011011200004+42700-068300FM-18+0000DB276V0209999C000019999999N9999999N1-00191+99999999999ADDOA159900101SA1+0639REMSYN182BBXX  44005 12001 99432 70691 46/// /0000 11019 92350 22200 00063 10501 20401 3//// 40501 70005 333 91201 555 11005 22005 32302 43002 62349 357008 332007 352008 328006 297011 034006;
0213992760999992011011201004+42700-068300FM-18+0000DB276V0200801N002019999999N9999999N1-00111+99999999999ADDOA159900401SA1+0639REMSYN182BBXX  44005 12011 99432 70691 46/// /0802 11011 90050 22200 00063 10801 20401 3//// 40801 70005 333 91204 555 11016 22017 30047 40604 60049 079017 112012 107011 106012 069011 002007;
0213992760999992011011202004+42700-068300FM-18+0000DB276V0200901N001019999999N9999999N1-00111+99999999999ADDOA159900301SA1+0639REMSYN182BBXX  44005 12021 99432 70691 46/// /0901 11011 90150 22200 00063 10801 20301 3//// 40801 70005 333 91203 555 11012 22012 30129 40705 60149 094013 063020 061034 069014 061014 050032;
0207992760999992011011203004+42700-068300FM-18+0000DB276V0200801N003019999999N9999999N1-00081+99999999999ADDOA159900501SA1+0639REMSYN176BBXX  44005 12031 99432 70691 46/// /0803 11008 90250 22200 00063 10801 3//// 40801 70005 333 91205 555 11030 22030 30226 41105 60249 080029 077027 095024 090024 090026 096032;
0207992760999992011011204004+42700-068300FM-18+0000DB276V0201201N004019999999N9999999N1-00061+99999999999ADDOA159900501SA1+0639REMSYN176BBXX  44005 12041 99432 70691 46/// /1204 11006 90350 22200 00063 10701 3//// 40701 70004 333 91205 555 11042 22043 30311 40906 60349 112041 084034 079038 083038 065036 076021;
0207992760999992011011205004+42700-068300FM-18+0000DB276V0201201N004019999999N9999999N1-00011+99999999999ADDOA159900601SA1+0639REMSYN176BBXX  44005 12051 99432 70691 46/// /1204 11001 90450 22200 00063 10701 3//// 40701 70005 333 91206 555 11040 22041 30442 41306 60449 116036 117031 096034 121032 103031 090031;
0207992760999992011011206004+42700-068300FM-18+0000DB276V0200801N005019999999N9999999N1+00031+99999999999ADDOA159900701SA1+0639REMSYN176BBXX  44005 12061 99432 70691 46/// /0805 10003 90550 22200 00063 10701 3//// 40701 70004 333 91207 555 11054 22056 30547 41107 60549 080050 083043 102028 096032 103041 095040;
0213992760999992011011207004+42700-068300FM-18+0000DB276V0200801N006019999999N9999999N1+00061+99999999999ADDOA159900801SA1+0639REMSYN182BBXX  44005 12071 99432 70691 46/// /0806 10006 90650 22200 00063 10701 20601 3//// 40701 70004 333 91208 555 11064 22066 30639 40809 60649 081062 083062 088056 086057 083046 090038;
0213992760999992011011208004+42700-068300FM-18+0000DB276V0200901N007019999999N9999999N1+00111+99999999999ADDOA159900901SA1+0649REMSYN182BBXX  44005 12081 99432 70691 46/// /0907 10011 90750 22200 00064 10301 20301 3//// 40601 70005 333 91209 555 11072 22075 30743 40909 60749 090068 089061 093061 091062 083067 079063;
0213992760999992011011209004+42700-068300FM-18+0000DB276V0200901N009019999999N9999999N1+00161+99999999999ADDOA159901101SA1+0649REMSYN182BBXX  44005 12091 99432 70691 46/// /0909 10016 90850 22200 00064 10301 20301 3//// 40601 70007 333 91211 555 11090 22094 30845 41011 60849 095085 096080 095079 096078 098071 100076;
0201992760999992011011210004+42700-068300FM-18+0000DB276V0200801N013019999999N9999999N1+00191+99999999999ADDOA159901501SA1+0639REMSYN170BBXX  44005 12101 99432 70691 46/// /0813 10019 90950 22200 00063 10402 20402 70011 333 91215 555 11133 22140 30947 40815 60949 078126 074115 076110 085100 087095 091088;
0123992760999992011011211004+42700-068300FM-18+0000DB276V0200701N015019999999N9999999N1+00091+99999999999ADDOA159901801SA1+0639REMSYN092BBXX  44005 12111 99432 70691 46/// /0715 10009 91050 22200 00063 333 91218 555 11158 22167;
0102992760999992011011213004+42700-068300FM-18+0000DB276V0200801N016019999999N9999999N1+00131+99999999999ADDSA1+0649REMSYN082BBXX  44005 12131 99432 70691 46/// /0816 10013 91250 22200 00064 555 11174 22185;
0201992760999992011011215004+42700-068300FM-18+0000DB276V0200701N019019999999N9999999N1+00261+99999999999ADDOA159902401SA1+0649REMSYN170BBXX  44005 12151 99432 70691 46/// /0719 10026 91450 22200 00064 10708 20708 70038 333 91224 555 11203 22216 31449 40724 61449 073187 075181 072176 068169 067169 067169;
0213992760999992011011216004+42700-068300FM-18+0000DB276V0200801N018019999999N9999999N1+00291+99999999999ADDOA159902301SA1+0649REMSYN182BBXX  44005 12161 99432 70691 46/// /0818 10029 91550 22200 00064 10811 20607 3//// 40809 70055 333 91223 555 11195 22208 31532 40623 61549 075183 076178 077182 077186 075182 074184;
0213992760999992011011217004+42700-068300FM-18+0000DB276V0201401N011019999999N9999999N1+00431+99999999999ADDOA159901401SA1+0669REMSYN182BBXX  44005 12171 99432 70691 46/// /1411 10043 91650 22200 00066 10912 20608 3//// 40909 70061 333 91214 555 11119 22126 31624 40826 61649 138114 147117 109177 082194 081194 077185;
0213992760999992011011218004+42700-068300FM-18+0000DB276V0201101N009019999999N9999999N1+00251+99999999999ADDOA159901101SA1+0649REMSYN182BBXX  44005 12181 99432 70691 46/// /1109 10025 91750 22200 00064 11010 20506 3//// 41009 70052 333 91211 555 11092 22096 31713 41415 61749 110088 096090 100086 114111 097094 121099;
0213992760999992011011219004+42700-068300FM-18+0000DB276V0200701N008019999999N9999999N1+00251+99999999999ADDOA159901101SA1+0649REMSYN182BBXX  44005 12191 99432 70691 46/// /0708 10025 91850 22200 00064 11010 20506 3//// 41008 70050 333 91211 555 11086 22090 31809 40515 61849 067082 056088 055098 073106 064101 081084;
0213992760999992011011220004+42700-068300FM-18+0000DB276V0200701N012019999999N9999999N1+00341+99999999999ADDOA159901501SA1+0649REMSYN182BBXX  44005 12201 99432 70691 46/// /0712 10034 91950 22200 00064 11009 20706 3//// 41007 70046 333 91215 555 11129 22136 31949 40615 61949 073121 079120 087108 092112 090098 102109;
0213992760999992011011221004+42700-068300FM-18+0000DB276V0200401N014019999999N9999999N1+00351+99999999999ADDOA159901701SA1+0649REMSYN182BBXX  44005 12211 99432 70691 46/// /0414 10035 92050 22200 00064 11010 20506 3//// 41008 70050 333 91217 555 11153 22162 32024 40517 62049 044140 049132 052134 060127 066125 074123;
0213992760999992011011222004+42700-068300FM-18+0000DB276V0200301N018019999999N9999999N1+00281+99999999999ADDOA159902301SA1+0649REMSYN182BBXX  44005 12221 99432 70691 46/// /0318 10028 92150 22200 00064 11011 20707 3//// 41008 70053 333 91223 555 11191 22203 32115 40524 62149 026177 039155 039171 038180 037178 036149;
0213992760999992011011223004+42700-068300FM-18+0000DB276V0203601N019019999999N9999999N1+00121+99999999999ADDOA159902301SA1+0649REMSYN182BBXX  44005 12231 99432 70691 46/// /3619 10012 92250 22200 00064 11012 20808 3//// 41009 70059 333 91223 555 11205 22218 32232 43625 62249 356189 357183 358187 000188 004192 008182;
0213992760999992011011300004+42700-068300FM-18+0000DB276V0203601N014019999999N9999999N1+00311+99999999999ADDOA159901701SA1+0649REMSYN182BBXX  44005 13001 99432 70691 46/// /3614 10031 92350 22200 00064 11010 20407 3//// 41007 70048 333 91217 555 11145 22154 32256 43522 62349 004136 004140 356138 350151 349163 352170;
0213992760999992011011301004+42700-068300FM-18+0000DB276V0203601N017019999999N9999999N1+00251+99999999999ADDOA159902301SA1+0649REMSYN182BBXX  44005 13011 99432 70691 46/// /3617 10025 90050 22200 00064 11009 20706 3//// 41007 70046 333 91223 555 11182 22193 30047 40123 60049 003168 011149 008144 006144 011145 003144;
0213992760999992011011302004+42700-068300FM-18+0000DB276V0203601N020019999999N9999999N1+00141+99999999999ADDOA159902401SA1+0649REMSYN182BBXX  44005 13021 99432 70691 46/// /3620 10014 90150 22200 00064 11011 20407 3//// 41008 70053 333 91224 555 11209 22223 30123 43625 60149 004198 005197 004191 004196 004199 003192;
0213992760999992011011303004+42700-068300FM-18+0000DB276V0203601N018019999999N9999999N1+00161+99999999999ADDOA159902301SA1+0649REMSYN182BBXX  44005 13031 99432 70691 46/// /3618 10016 90250 22200 00064 10911 20408 3//// 40908 70057 333 91223 555 11194 22206 30154 40225 60249 000181 000188 002189 002188 004192 004195;
0213992760999992011011304004+42700-068300FM-18+0000DB276V0203501N018019999999N9999999N1+00181+99999999999ADDOA159902101SA1+0679REMSYN182BBXX  44005 13041 99432 70691 46/// /3518 10018 90350 22200 00067 11011 20708 3//// 41008 70057 333 91221 555 11187 22199 30312 43624 60349 353177 357178 358178 357178 357181 358187;
0213992760999992011011305004+42700-068300FM-18+0000DB276V0203501N017019999999N9999999N1+00201+99999999999ADDOA159902101SA1+0679REMSYN182BBXX  44005 13051 99432 70691 46/// /3517 10020 90450 22200 00067 11010 20507 3//// 41007 70050 333 91221 555 11185 22197 30415 43523 60449 352171 354170 353168 355171 357172 355173;
0205992760999992011011306004+42700-068300FM-18+0000DB276V0203501N016019999999N9999999N1+00141+99999999999ADDOA159902001REMSYN182BBXX  44005 13061 99432 70691 46/// /3516 10014 90550 22200 00070 10910 20508 3//// 40906 70049 333 91220 555 11173 22183 30513 43422 60549 350159 352162 349171 348167 353166 350160;
0201992760999992011011307004+42700-068300FM-18+0000DB276V0203501N016019999999N9999999N1+00161+99999999999ADDOA159902001SA1+0719REMSYN170BBXX  44005 13071 99432 70691 46/// /3516 10016 90650 22200 00071 10810 20810 70049 333 91220 555 11169 22179 30559 43521 60649 344157 344159 344159 345161 345161 346169;
0201992760999992011011308004+42700-068300FM-18+0000DB276V0203401N015019999999N9999999N1+00201+99999999999ADDOA159901901SA1+0719REMSYN170BBXX  44005 13081 99432 70691 46/// /3415 10020 90750 22200 00071 10809 20809 70044 333 91219 555 11162 22172 30714 43421 60749 343152 343154 342153 344159 346159 345162;
0193992760999992011011309004+42700-068300FM-18+0000DB276V0203401N015019999999N9999999N1+00141+99999999999ADDOA159901901REMSYN170BBXX  44005 13091 99432 70691 46/// /3415 10014 90850 22200 00070 10708 20708 70041 333 91219 555 11161 22170 30807 43220 60849 336151 339153 340156 340158 339156 337154;
0193992760999992011011310004+42700-068300FM-18+0000DB276V0203301N016019999999N9999999N1+00111+99999999999ADDOA159901901REMSYN170BBXX  44005 13101 99432 70691 46/// /3316 10011 90950 22200 00070 10808 20808 70042 333 91219 555 11165 22175 30921 43320 60949 335156 335155 335154 337150 336152 334156;
0201992760999992011011311004+42700-068300FM-18+0000DB276V0203301N016019999999N9999999N1+00111+99999999999ADDOA159902001SA1+0719REMSYN170BBXX  44005 13111 99432 70691 46/// /3316 10011 91050 22200 00071 10808 20808 70041 333 91220 555 11165 22175 31040 43220 61049 334155 332153 334156 337156 340153 340148;
0201992760999992011011312004+42700-068300FM-18+0000DB276V0203401N016019999999N9999999N1+00121+99999999999ADDOA159901901SA1+0719REMSYN170BBXX  44005 13121 99432 70691 46/// /3416 10012 91150 22200 00071 10708 20708 70039 333 91219 555 11171 22181 31121 43420 61149 334160 333157 335156 333158 337159 338151;
0201992760999992011011313004+42700-068300FM-18+0000DB276V0203301N016019999999N9999999N1+00171+99999999999ADDOA159902001SA1+0719REMSYN170BBXX  44005 13131 99432 70691 46/// /3316 10017 91250 22200 00071 10708 20708 70041 333 91220 555 11171 22181 31239 43322 61249 333160 329159 327154 325156 329164 328156;
0201992760999992011011314004+42700-068300FM-18+0000DB276V0203201N015019999999N9999999N1+00171+99999999999ADDOA159902101SA1+0719REMSYN170BBXX  44005 13141 99432 70691 46/// /3215 10017 91350 22200 00071 10707 20707 70036 333 91221 555 11162 22172 31343 43221 61349 325152 326155 327150 327151 325155 325159;
0201992760999992011011315004+42700-068300FM-18+0000DB276V0203201N014019999999N9999999N1+00181+99999999999ADDOA159901701SA1+0719REMSYN170BBXX  44005 13151 99432 70691 46/// /3214 10018 91450 22200 00071 10707 20707 70035 333 91217 555 11150 22159 31406 43319 61449 315141 316140 318142 312140 324146 320147;
0201992760999992011011316004+42700-068300FM-18+0000DB276V0203201N015019999999N9999999N1+00211+99999999999ADDOA159901901SA1+0719REMSYN170BBXX  44005 13161 99432 70691 46/// /3215 10021 91550 22200 00071 10707 20707 70034 333 91219 555 11155 22163 31542 43219 61549 322146 322147 321148 318144 319144 313142;
0193992760999992011011317004+42700-068300FM-18+0000DB276V0203301N014019999999N9999999N1+00221+99999999999ADDOA159901701REMSYN170BBXX  44005 13171 99432 70691 46/// /3314 10022 91650 22200 00070 10707 20707 70035 333 91217 555 11152 22161 31556 43119 61649 325142 325143 325150 324145 322145 321142;
0201992760999992011011318004+42700-068300FM-18+0000DB276V0203201N013019999999N9999999N1+00231+99999999999ADDOA159901501SA1+0699REMSYN170BBXX  44005 13181 99432 70691 46/// /3213 10023 91750 22200 00069 10706 20706 70028 333 91215 555 11134 22141 31656 43418 61749 322126 322129 325133 325134 325138 326148;
0201992760999992011011319004+42700-068300FM-18+0000DB276V0203201N012019999999N9999999N1+00291+99999999999ADDOA159901501SA1+0679REMSYN170BBXX  44005 13191 99432 70691 46/// /3212 10029 91850 22200 00067 10706 20706 70029 333 91215 555 11127 22133 31805 43115 61849 323120 323115 325118 324119 320122 325123;
0213992760999992011011320004+42700-068300FM-18+0000DB276V0203401N011019999999N9999999N1+00281+99999999999ADDOA159901401SA1+0679REMSYN182BBXX  44005 13201 99432 70691 46/// /3411 10028 91950 22200 00067 10605 20604 3//// 40902 70024 333 91214 555 11121 22127 31859 43314 61949 337116 329108 324117 326112 325114 325115;
0201992760999992011011321004+42700-068300FM-18+0000DB276V0203301N011019999999N9999999N1+00211+99999999999ADDOA159901401SA1+0669REMSYN170BBXX  44005 13211 99432 70691 46/// /3311 10021 92050 22200 00066 10605 20605 70024 333 91214 555 11118 22124 32012 43415 62049 334110 330114 332114 332114 335115 329108;
0201992760999992011011322004+42700-068300FM-18+0000DB276V0203401N010019999999N9999999N1+00191+99999999999ADDOA159901301SA1+0669REMSYN170BBXX  44005 13221 99432 70691 46/// /3410 10019 92150 22200 00066 10605 20605 70024 333 91213 555 11110 22115 32113 43314 62149 340105 337109 338109 338113 335113 333112;
0213992760999992011011323004+42700-068300FM-18+0000DB276V0203401N011019999999N9999999N1+00171+99999999999ADDOA159901301SA1+0669REMSYN182BBXX  44005 13231 99432 70691 46/// /3411 10017 92250 22200 00066 10605 20605 3//// 42501 70024 333 91213 555 11112 22118 32227 43314 62249 337105 340110 340112 340104 343107 340106;
0213992760999992011011400004+42700-068300FM-18+0000DB276V0203401N010019999999N9999999N1+00101+99999999999ADDOA159901201SA1+0649REMSYN182BBXX  44005 14001 99432 70691 46/// /3410 10010 92350 22200 00064 10605 20605 3//// 41001 70023 333 91212 555 11100 22105 32308 43314 62349 335096 335102 341113 338112 336111 336112;
0213992760999992011011401004+42700-068300FM-18+0000DB276V0203401N010019999999N9999999N1+00061+99999999999ADDOA159901301SA1+0659REMSYN182BBXX  44005 14011 99432 70691 46/// /3410 10006 90050 22200 00065 10604 20604 3//// 41001 70022 333 91213 555 11106 22110 30030 43413 60049 342100 342105 333101 333093 332091 335091;
0213992760999992011011402004+42700-068300FM-18+0000DB276V0203401N011019999999N9999999N1+00051+99999999999ADDOA159901401SA1+0669REMSYN182BBXX  44005 14021 99432 70691 46/// /3411 10005 90150 22200 00066 10604 20604 3//// 40901 70021 333 91214 555 11117 22123 30148 43514 60149 343111 342108 340103 343105 342099 337101;
0213992760999992011011403004+42700-068300FM-18+0000DB276V0203401N010019999999N9999999N1-00011+99999999999ADDOA159901301SA1+0669REMSYN182BBXX  44005 14031 99432 70691 46/// /3410 11001 90250 22200 00066 10604 20604 3//// 40901 70022 333 91213 555 11109 22114 30232 43413 60249 337102 335105 338104 341103 339104 341109;
0213992760999992011011404004+42700-068300FM-18+0000DB276V0203401N010019999999N9999999N1-00051+99999999999ADDOA159901201SA1+0669REMSYN182BBXX  44005 14041 99432 70691 46/// /3410 11005 90350 22200 00066 10604 20604 3//// 41001 70019 333 91212 555 11107 22111 30304 43314 60349 340100 341102 338102 339103 336105 333103;
0213992760999992011011405004+42700-068300FM-18+0000DB276V0203401N010019999999N9999999N1-00071+99999999999ADDOA159901201SA1+0669REMSYN182BBXX  44005 14051 99432 70691 46/// /3410 11007 90450 22200 00066 10604 20604 3//// 41001 70020 333 91212 555 11100 22104 30356 43312 60449 334094 334093 338096 337095 337101 338100;
0213992760999992011011406004+42700-068300FM-18+0000DB276V0203501N009019999999N9999999N1-00051+99999999999ADDOA159901101SA1+0669REMSYN182BBXX  44005 14061 99432 70691 46/// /3509 11005 90550 22200 00066 10604 20604 3//// 41001 70018 333 91211 555 11093 22096 30456 43412 60549 344088 341090 338087 337088 336092 337095;
0213992760999992011011407004+42700-068300FM-18+0000DB276V0203501N008019999999N9999999N1-00051+99999999999ADDOA159901101SA1+0669REMSYN182BBXX  44005 14071 99432 70691 46/// /3508 11005 90650 22200 00066 10604 20604 3//// 40901 70018 333 91211 555 11087 22091 30622 43312 60649 344083 347082 344089 347086 347084 343087;
0213992760999992011011408004+42700-068300FM-18+0000DB276V0203401N008019999999N9999999N1-00041+99999999999ADDOA159900901SA1+0669REMSYN182BBXX  44005 14081 99432 70691 46/// /3408 11004 90750 22200 00066 10603 20603 3//// 41101 70017 333 91209 555 11079 22082 30714 43410 60749 343073 340076 345077 344081 345080 349080;
0213992760999992011011409004+42700-068300FM-18+0000DB276V0203501N007019999999N9999999N1-00031+99999999999ADDOA159900901SA1+0669REMSYN182BBXX  44005 14091 99432 70691 46/// /3507 11003 90850 22200 00066 10604 20603 3//// 41001 70018 333 91209 555 11071 22074 30815 43409 60849 345068 341068 339070 341074 342071 339076;
