0245992760999992012010100004+42700-068300FM-18+0000DB276V0203201N005019999999N9999999N1+00681+00681100811ADDMD1510001+9999OA159900601SA1+0819REMSYN200BBXX  44005 01001 99432 70691 46/// /3205 10068 20068 40081 55000 92350 22200 00081 10602 20401 3//// 40602 70009 333 91206 555 11050 22052 32327 43107 62349 314049 312052 301049 310033 320037 322036;
0245992760999992012010101004+42700-068300FM-18+0000DB276V0203001N006019999999N9999999N1+00611+00611100781ADDMD1010001+9999OA159900601SA1+0819REMSYN200BBXX  44005 01011 99432 70691 46/// /3006 10061 20061 40078 50000 90050 22200 00081 10602 20401 3//// 40601 70009 333 91206 555 11058 22060 30030 42907 60049 295056 290060 298055 304048 313048 319052;
0245992760999992012010102004+42700-068300FM-18+0000DB276V0203101N008019999999N9999999N1+00551+00551100821ADDMD1110081+9999OA159901001SA1+0819REMSYN200BBXX  44005 01021 99432 70691 46/// /3108 10055 20055 40082 51008 90150 22200 00081 10802 20501 3//// 40801 70009 333 91210 555 11089 22093 30122 43010 60149 310084 307086 303091 297085 294075 295063;
0245992760999992012010103004+42700-068300FM-18+0000DB276V0203101N008019999999N9999999N1+00541+00541100801ADDMD1510001+9999OA159901001SA1+0819REMSYN200BBXX  44005 01031 99432 70691 46/// /3108 10054 20054 40080 55000 90250 22200 00081 10302 20302 3//// 40801 70009 333 91210 555 11088 22092 30217 43110 60249 315084 316086 314079 314086 314076 315082;
0245992760999992012010104004+42700-068300FM-18+0000DB276V0203101N011019999999N9999999N1+00581+00581100801ADDMD1010001+9999OA159901301SA1+0819REMSYN200BBXX  44005 01041 99432 70691 46/// /3111 10058 20058 40080 50000 90350 22200 00081 10402 20402 3//// 40801 70011 333 91213 555 11118 22125 30342 43113 60349 312110 311103 312101 318102 316097 311089;
0245992760999992012010105004+42700-068300FM-18+0000DB276V0203201N011019999999N9999999N1+00581+00571100881ADDMD1310061+9999OA159901301SA1+0809REMSYN200BBXX  44005 01051 99432 70691 46/// /3211 10058 20057 40088 53006 90450 22200 00080 10503 20502 3//// 40801 70013 333 91213 555 11118 22125 30356 43214 60449 319111 321104 323106 320113 318109 315115;
0233992760999992012010106004+42700-068300FM-18+0000DB276V0203201N011019999999N9999999N1+00601+00581100921ADDMD1310121+9999OA159901301SA1+0809REMSYN188BBXX  44005 01061 99432 70691 46/// /3211 10060 20058 40092 53012 90550 22200 00080 10503 20503 70015 333 91213 555 11118 22125 30457 43213 60549 319110 317109 315102 319107 319109 319111;
0233992760999992012010107004+42700-068300FM-18+0000DB276V0203201N011019999999N9999999N1+00651+00551101051ADDMD1310251+9999OA159901301SA1+0819REMSYN188BBXX  44005 01071 99432 70691 46/// /3211 10065 20055 40105 53025 90650 22200 00081 10503 20503 70015 333 91213 555 11112 22118 30550 43313 60649 317104 316109 319101 319094 318098 322102;
0245992760999992012010108004+42700-068300FM-18+0000DB276V0203301N010019999999N9999999N1+00681+00511101061ADDMD1110181+9999OA159901201SA1+0819REMSYN200BBXX  44005 01081 99432 70691 46/// /3310 10068 20051 40106 51018 90750 22200 00081 10503 20503 3//// 40901 70014 333 91212 555 11104 22110 30711 43214 60749 330098 326102 324105 322110 319109 318107;
0245992760999992012010109004+42700-068300FM-18+0000DB276V0203201N008019999999N9999999N1+00671+00521101091ADDMD1110171+9999OA159901001SA1+0819REMSYN200BBXX  44005 01091 99432 70691 46/// /3208 10067 20052 40109 51017 90850 22200 00081 10502 20502 3//// 40801 70012 333 91210 555 11087 22092 30750 43311 60849 323083 325087 331086 334083 332088 329096;
0245992760999992012010110004+42700-068300FM-18+0000DB276V0203101N010019999999N9999999N1+00701+00521101251ADDMD1310201+9999OA159901101SA1+0819REMSYN200BBXX  44005 01101 99432 70691 46/// /3110 10070 20052 40125 53020 90950 22200 00081 10502 20502 3//// 40801 70012 333 91211 555 11101 22107 30946 43011 60949 309094 312088 314092 313092 317083 322084;
0245992760999992012010111004+42700-068300FM-18+0000DB276V0203101N009019999999N9999999N1+00701+00481101351ADDMD1310291+9999OA159901101SA1+0819REMSYN200BBXX  44005 01111 99432 70691 46/// /3109 10070 20048 40135 53029 91050 22200 00081 10502 20502 3//// 40801 70012 333 91211 555 11094 22099 31008 43112 61049 310088 305086 307096 309094 310102 305098;
0237992760999992012010112004+42700-068300FM-18+0000DB276V0203301N009019999999N9999999N1+00721+00451101421ADDMD1110331+9999OA159901001REMSYN200BBXX  44005 01121 99432 70691 46/// /3309 10072 20045 40142 51033 91150 22200 00081 10402 20402 3//// 40801 70012 333 91210 555 11092 22097 31130 43211 61149 330086 323091 324090 319092 319083 312089;
0245992760999992012010113004+42700-068300FM-18+0000DB276V0203401N007019999999N9999999N1+00681+00461101531ADDMD1310281+9999OA159900801SA1+0819REMSYN200BBXX  44005 01131 99432 70691 46/// /3407 10068 20046 40153 53028 91250 22200 00081 10402 20402 3//// 40801 70011 333 91208 555 11072 22075 31201 43311 61249 336070 332075 332073 334078 327088 326084;
0245992760999992012010114004+42700-068300FM-18+0000DB276V0203501N006019999999N9999999N1+00641+00411101611ADDMD1310261+9999OA159900801SA1+0819REMSYN200BBXX  44005 01141 99432 70691 46/// /3506 10064 20041 40161 53026 91350 22200 00081 10402 20402 3//// 40901 70009 333 91208 555 11067 22070 31256 43408 61349 347064 348063 337059 341057 344064 342069;
0245992760999992012010115004+42700-068300FM-18+0000DB276V0203501N005019999999N9999999N1+00611+00391101631ADDMD1110211+9999OA159900601SA1+0819REMSYN200BBXX  44005 01151 99432 70691 46/// /3505 10061 20039 40163 51021 91450 22200 00081 10802 20401 3//// 40802 70010 333 91206 555 11049 22051 31359 43508 61449 354048 347052 350051 347059 341062 346065;
0245992760999992012010116004+42700-068300FM-18+0000DB276V0203301N003019999999N9999999N1+00611+00371101611ADDMD1110081+9999OA159900401SA1+0819REMSYN200BBXX  44005 01161 99432 70691 46/// /3303 10061 20037 40161 51008 91550 22200 00081 10802 20401 3//// 40802 70010 333 91204 555 11035 22036 31455 43606 61549 333035 338039 347044 353042 353045 354049;
0245992760999992012010117004+42700-068300FM-18+0000DB276V0203401N002019999999N9999999N1+00611+00341101561ADDMD1810051+9999OA159900301SA1+0819REMSYN200BBXX  44005 01171 99432 70691 46/// /3402 10061 20034 40156 58005 91650 22200 00081 10802 20401 3//// 40802 70010 333 91203 555 11016 22017 31649 43404 61649 332016 332019 351022 355026 343029 337031;
0245992760999992012010118004+42700-068300FM-18+0000DB276V0209999C000019999999N9999999N1+00691+00381101521ADDMD1810111+9999OA159900101SA1+0829REMSYN200BBXX  44005 01181 99432 70691 46/// /0000 10069 20038 40152 58011 91750 22200 00082 10702 20401 3//// 40702 70009 333 91201 555 11005 22005 31652 43502 61749 249004 275005 268009 265010 300009 337012;
0245992760999992012010119004+42700-068300FM-18+0000DB276V0201801N001019999999N9999999N1+00661+00371101451ADDMD1810161+9999OA159900201SA1+0829REMSYN200BBXX  44005 01191 99432 70691 46/// /1801 10066 20037 40145 58016 91850 22200 00082 10802 20301 3//// 40801 70008 333 91202 555 11014 22015 31849 41602 61849 185013 185009 192008 213011 243008 249008;
0245992760999992012010120004+42700-068300FM-18+0000DB276V0201401N003019999999N9999999N1+00661+00371101391ADDMD1810171+9999OA159900401SA1+0829REMSYN200BBXX  44005 01201 99432 70691 46/// /1403 10066 20037 40139 58017 91950 22200 00082 10802 20301 3//// 40801 70008 333 91204 555 11032 22033 31947 41404 61949 140030 152026 167023 175021 180021 190019;
0245992760999992012010121004+42700-068300FM-18+0000DB276V0201401N006019999999N9999999N1+00681+00521101381ADDMD1610141+9999OA159900701SA1+0819REMSYN200BBXX  44005 01211 99432 70691 46/// /1406 10068 20052 40138 56014 92050 22200 00081 10801 20501 3//// 40801 70007 333 91207 555 11058 22060 32048 41407 62049 142055 143055 138052 139044 149037 149033;
0245992760999992012010122004+42700-068300FM-18+0000DB276V0201601N007019999999N9999999N1+00711+00591101331ADDMD1610121+9999OA159900801SA1+0819REMSYN200BBXX  44005 01221 99432 70691 46/// /1607 10071 20059 40133 56012 92150 22200 00081 10801 20601 3//// 40801 70007 333 91208 555 11070 22073 32140 41608 62149 155067 154067 156063 156059 151057 144056;
0245992760999992012010123004+42700-068300FM-18+0000DB276V0201701N008019999999N9999999N1+00741+00661101241ADDMD1810151+9999OA159901001SA1+0819REMSYN200BBXX  44005 01231 99432 70691 46/// /1708 10074 20066 40124 58015 92250 22200 00081 10802 20301 3//// 40801 70008 333 91210 555 11084 22089 32228 41710 62249 172080 173081 165079 160078 161076 158071;
0245992760999992012010200004+42700-068300FM-18+0000DB276V0201601N010019999999N9999999N1+00721+00671101071ADDMD1810311+9999OA159901201SA1+0819REMSYN200BBXX  44005 02001 99432 70691 46/// /1610 10072 20067 40107 58031 92350 22200 00081 10802 20301 3//// 40801 70009 333 91212 555 11106 22112 32345 41612 62349 160097 160095 164089 164087 167085 167082;
0245992760999992012010201004+42700-068300FM-18+0000DB276V0201801N010019999999N9999999N1+00771+00701101041ADDMD1610291+9999OA159901201SA1+0819REMSYN200BBXX  44005 02011 99432 70691 46/// /1810 10077 20070 40104 56029 90050 22200 00081 10402 20402 3//// 40801 70010 333 91212 555 11104 22110 32353 41712 60049 174097 170094 169094 166090 164095 162098;
0245992760999992012010202004+42700-068300FM-18+0000DB276V0201801N010019999999N9999999N1+00801+00781100961ADDMD1610281+9999OA159901201SA1+0819REMSYN200BBXX  44005 02021 99432 70691 46/// /1810 10080 20078 40096 56028 90150 22200 00081 10402 20402 3//// 40801 70012 333 91212 555 11105 22112 30101 41812 60149 178098 178092 184090 183097 181099 176100;
0245992760999992012010203004+42700-068300FM-18+0000DB276V0201701N009019999999N9999999N1+00811+00801100821ADDMD1810251+9999OA159901101SA1+0819REMSYN200BBXX  44005 02031 99432 70691 46/// /1709 10081 20080 40082 58025 90250 22200 00081 10503 20503 3//// 40801 70014 333 91211 555 11101 22107 30249 41711 60249 167094 165092 169092 173091 174092 176096;
0245992760999992012010204004+42700-068300FM-18+0000DB276V0201701N010019999999N9999999N1+00831+00821100731ADDMD1810311+9999OA159901301SA1+0819REMSYN200BBXX  44005 02041 99432 70691 46/// /1710 10083 20082 40073 58031 90350 22200 00081 10503 20503 3//// 40801 70014 333 91213 555 11112 22119 30346 41713 60349 169102 167098 165106 163104 167101 166097;
0233992760999992012010205004+42700-068300FM-18+0000DB276V0201701N010019999999N9999999N1+00861+00851100571ADDMD1810391+9999OA159901201SA1+0819REMSYN188BBXX  44005 02051 99432 70691 46/// /1710 10086 20085 40057 58039 90450 22200 00081 10503 20503 70015 333 91212 555 11112 22120 30404 41713 60449 166104 166106 169105 171110 173107 170107;
0233992760999992012010206004+42700-068300FM-18+0000DB276V0201601N010019999999N9999999N1+00891+00881100371ADDMD1810451+9999OA159901301SA1+0819REMSYN188BBXX  44005 02061 99432 70691 46/// /1610 10089 20088 40037 58045 90550 22200 00081 10503 20503 70017 333 91213 555 11111 22120 30542 41713 60549 164104 163104 162102 165104 164102 166105;
0233992760999992012010207004+42700-068300FM-18+0000DB276V0201701N011019999999N9999999N1+00911+00911100191ADDMD1810541+9999OA159901401SA1+0819REMSYN188BBXX  44005 02071 99432 70691 46/// /1711 10091 20091 40019 58054 90650 22200 00081 10503 20503 70017 333 91214 555 11123 22133 30648 41714 60649 168113 169112 166106 165103 161111 166105;
0233992760999992012010208004+42700-068300FM-18+0000DB276V0201801N010019999999N9999999N1+00891+00891100101ADDMD1610471+9999OA159901201SA1+0829REMSYN188BBXX  44005 02081 99432 70691 46/// /1810 10089 20089 40010 56047 90750 22200 00082 10603 20603 70017 333 91212 555 11106 22114 30735 41813 60749 179098 178112 174102 171105 170107 167104;
0245992760999992012010209004+42700-068300FM-18+0000DB276V0201801N009019999999N9999999N1+00921+00921099931ADDMD1610441+9999OA159901001SA1+0819REMSYN200BBXX  44005 02091 99432 70691 46/// /1809 10092 20092 49993 56044 90850 22200 00081 10603 20603 3//// 41201 70016 333 91210 555 11095 22104 30752 41812 60849 181088 181092 181096 180094 180097 178097;
0245992760999992012010210004+42700-068300FM-18+0000DB276V0201801N008019999999N9999999N1+00891+00891099801ADDMD1810391+9999OA159901001SA1+0819REMSYN200BBXX  44005 02101 99432 70691 46/// /1808 10089 20089 49980 58039 90950 22200 00081 10603 20603 3//// 41001 70015 333 91210 555 11090 22097 30854 41810 60949 181083 176084 172082 175084 176083 177089;
0233992760999992012010211004+42700-068300FM-18+0000DB276V0202001N009019999999N9999999N1+00921+00921099791ADDMD1610311+9999OA159901101SA1+0819REMSYN188BBXX  44005 02111 99432 70691 46/// /2009 10092 20092 49979 56031 91050 22200 00081 10603 20603 70015 333 91211 555 11095 22104 31048 42011 61049 198087 193085 195081 192080 189080 185080;
0245992760999992012010212004+42700-068300FM-18+0000DB276V0202201N009019999999N9999999N1+00901+00901099761ADDMD1610171+9999OA159901101SA1+0819REMSYN200BBXX  44005 02121 99432 70691 46/// /2209 10090 20090 49976 56017 91150 22200 00081 10603 20603 3//// 40901 70015 333 91211 555 11093 22101 31102 42111 61149 214086 212080 212088 212088 204093 203094;
0245992760999992012010213004+42700-068300FM-18+0000DB276V0202601N012019999999N9999999N1+00781+00431099781ADDMD1410001+9999OA159901401SA1+0819REMSYN200BBXX  44005 02131 99432 70691 46/// /2612 10078 20043 49978 54000 91250 22200 00081 10603 20603 3//// 40801 70015 333 91214 555 11124 22132 31244 42614 61249 256115 253111 252100 242107 232107 220095;
0245992760999992012010214004+42700-068300FM-18+0000DB276V0202601N011019999999N9999999N1+00711+00271099851ADDMD1310061+9999OA159901301SA1+0819REMSYN200BBXX  44005 02141 99432 70691 46/// /2611 10071 20027 49985 53006 91350 22200 00081 10603 20603 3//// 40801 70017 333 91213 555 11120 22127 31304 42714 61349 257113 258111 259113 258113 263121 259118;
0245992760999992012010215004+42700-068300FM-18+0000DB276V0202601N013019999999N9999999N1+00671+00081099871ADDMD1210111+9999OA159901601SA1+0819REMSYN200BBXX  44005 02151 99432 70691 46/// /2613 10067 20008 49987 52011 91450 22200 00081 10504 20504 3//// 41001 70019 333 91216 555 11137 22145 31442 42616 61449 258127 260126 257123 258124 259113 261111;
0245992760999992012010216004+42700-068300FM-18+0000DB276V0202501N012019999999N9999999N1+00641+00081099871ADDMD1110091+9999OA159901401SA1+0819REMSYN200BBXX  44005 02161 99432 70691 46/// /2512 10064 20008 49987 51009 91550 22200 00081 10604 20604 3//// 40901 70022 333 91214 555 11126 22133 31520 42616 61549 253117 250123 255129 259127 261133 261129;
0233992760999992012010217004+42700-068300FM-18+0000DB276V0202501N013019999999N9999999N1+00591-00131099831ADDMD1010001+9999OA159901601SA1+0819REMSYN188BBXX  44005 02171 99432 70691 46/// /2513 10059 21013 49983 50000 91650 22200 00081 10705 20705 70023 333 91216 555 11140 22148 31604 42616 61649 254129 256131 252121 248130 250124 249121;
0233992760999992012010218004+42700-068300FM-18+0000DB276V0202601N012019999999N9999999N1+00561-00091099831ADDMD1710041+9999OA159901401SA1+0819REMSYN188BBXX  44005 02181 99432 70691 46/// /2612 10056 21009 49983 57004 91750 22200 00081 10705 20705 70024 333 91214 555 11130 22138 31719 42616 61749 259120 255122 258128 260133 258132 256130;
0245992760999992012010219004+42700-068300FM-18+0000DB276V0202601N012019999999N9999999N1+00571-00181099841ADDMD1610031+9999OA159901501SA1+0819REMSYN200BBXX  44005 02191 99432 70691 46/// /2612 10057 21018 49984 56003 91850 22200 00081 10705 20705 3//// 41001 70026 333 91215 555 11130 22138 31849 42715 61849 261120 259113 258117 258117 256118 256120;
0233992760999992012010220004+42700-068300FM-18+0000DB276V0202601N012019999999N9999999N1+00581-00251099871ADDMD1310041+9999OA159901501SA1+0819REMSYN188BBXX  44005 02201 99432 70691 46/// /2612 10058 21025 49987 53004 91950 22200 00081 10705 20705 70024 333 91215 555 11132 22140 31925 42616 61949 258123 257121 252125 251117 258119 256121;
0233992760999992012010221004+42700-068300FM-18+0000DB276V0202601N011019999999N9999999N1+00591-00271099941ADDMD1310111+9999OA159901501SA1+0819REMSYN188BBXX  44005 02211 99432 70691 46/// /2611 10059 21027 49994 53011 92050 22200 00081 10705 20705 70026 333 91215 555 11118 22125 32020 42615 62049 258112 256117 254123 256122 252120 251121;
0233992760999992012010222004+42700-068300FM-18+0000DB276V0202501N012019999999N9999999N1+00551-00381100011ADDMD1310171+9999OA159901501SA1+0809REMSYN188BBXX  44005 02221 99432 70691 46/// /2512 10055 21038 40001 53017 92150 22200 00080 10705 20705 70024 333 91215 555 11129 22136 32145 42515 62149 253121 252115 258117 257117 252116 253113;
0233992760999992012010223004+42700-068300FM-18+0000DB276V0202601N013019999999N9999999N1+00541-00371100121ADDMD1310251+9999OA159901601SA1+0809REMSYN188BBXX  44005 02231 99432 70691 46/// /2613 10054 21037 40012 53025 92250 22200 00080 10705 20705 70026 333 91216 555 11134 22142 32244 42616 62249 259124 257126 252118 257123 256115 253117;
0245992760999992012010300004+42700-068300FM-18+0000DB276V0202601N013019999999N9999999N1+00531-00391100201ADDMD1310261+9999OA159901601SA1+0809REMSYN200BBXX  44005 03001 99432 70691 46/// /2613 10053 21039 40020 53026 92350 22200 00080 10705 20705 3//// 41401 70026 333 91216 555 11135 22143 32336 42717 62349 263126 260128 266126 261121 263127 254128;
0233992760999992012010301004+42700-068300FM-18+0000DB276V0202601N012019999999N9999999N1+00521-00381100221ADDMD1110211+9999OA159901601SA1+0809REMSYN188BBXX  44005 03011 99432 70691 46/// /2612 10052 21038 40022 51021 90050 22200 00080 10705 20705 70025 333 91216 555 11131 22139 30039 42616 60049 262122 262127 268129 264128 261125 267125;
0233992760999992012010302004+42700-068300FM-18+0000DB276V0202601N012019999999N9999999N1+00491-00431100281ADDMD1110161+9999OA159901501SA1+0799REMSYN188BBXX  44005 03021 99432 70691 46/// /2612 10049 21043 40028 51016 90150 22200 00079 10705 20705 70026 333 91215 555 11131 22138 30053 42716 60149 258124 259120 262122 265124 264129 259129;
0233992760999992012010303004+42700-068300FM-18+0000DB276V0202601N012019999999N9999999N1+00481-00401100301ADDMD1210101+9999OA159901501SA1+0799REMSYN188BBXX  44005 03031 99432 70691 46/// /2612 10048 21040 40030 52010 90250 22200 00079 10705 20705 70027 333 91215 555 11122 22129 30159 42616 60249 255114 248113 258106 258116 257125 255128;
0233992760999992012010304004+42700-068300FM-18+0000DB276V0202601N012019999999N9999999N1+00441-00481100301ADDMD1110081+9999OA159901501SA1+0799REMSYN188BBXX  44005 03041 99432 70691 46/// /2612 10044 21048 40030 51008 90350 22200 00079 10705 20705 70026 333 91215 555 11131 22138 30332 42616 60349 258122 261118 260117 261113 253112 259119;
0245992760999992012010305004+42700-068300FM-18+0000DB276V0202601N012019999999N9999999N1+00381-00471100321ADDMD1210041+9999OA159901401SA1+0799REMSYN200BBXX  44005 03051 99432 70691 46/// /2612 10038 21047 40032 52004 90450 22200 00079 10705 20705 3//// 41101 70027 333 91214 555 11124 22131 30415 42515 60449 263116 264117 261121 261120 260117 264119;
0233992760999992012010306004+42700-068300FM-18+0000DB276V0202601N011019999999N9999999N1+00351-00551100321ADDMD1410001+9999OA159901401SA1+0799REMSYN188BBXX  44005 03061 99432 70691 46/// /2611 10035 21055 40032 54000 90550 22200 00079 10705 20705 70027 333 91214 555 11121 22127 30458 42715 60549 264115 263113 262115 260107 267114 270117;
0245992760999992012010307004+42700-068300FM-18+0000DB276V0202601N012019999999N9999999N1+00321-00561100341ADDMD1210041+9999OA159901501SA1+0799REMSYN200BBXX  44005 03071 99432 70691 46/// /2612 10032 21056 40034 52004 90650 22200 00079 10705 20705 3//// 41401 70025 333 91215 555 11127 22134 30559 42617 60649 262121 268112 268116 265122 269118 260112;
0233992760999992012010308004+42700-068300FM-18+0000DB276V0202701N011019999999N9999999N1+00271-00611100361ADDMD1210041+9999OA159901301SA1+0799REMSYN188BBXX  44005 03081 99432 70691 46/// /2711 10027 21061 40036 52004 90750 22200 00079 10705 20705 70025 333 91213 555 11113 22119 30702 42615 60749 268108 266108 266115 258119 262112 263113;
0233992760999992012010309004+42700-068300FM-18+0000DB276V0202901N012019999999N9999999N1+00221-00661100351ADDMD1210031+9999OA159901501SA1+0799REMSYN188BBXX  44005 03091 99432 70691 46/// /2912 10022 21066 40035 52003 90850 22200 00079 10705 20705 70025 333 91215 555 11129 22136 30845 42915 60849 287121 276111 274102 266108 266105 265105;
0245992760999992012010310004+42700-068300FM-18+0000DB276V0202801N012019999999N9999999N1+00141-00811100391ADDMD1310051+9999OA159901401SA1+0799REMSYN200BBXX  44005 03101 99432 70691 46/// /2812 10014 21081 40039 53005 90950 22200 00079 10705 20705 3//// 40901 70023 333 91214 555 11124 22130 30904 42816 60949 283117 285118 285118 289123 286126 286122;
0233992760999992012010311004+42700-068300FM-18+0000DB276V0202801N011019999999N9999999N1+00111-00751100491ADDMD1310131+9999OA159901401SA1+0789REMSYN188BBXX  44005 03111 99432 70691 46/// /2811 10011 21075 40049 53013 91050 22200 00078 10605 20605 70024 333 91214 555 11112 22117 31015 42716 61049 281107 279112 280110 282116 281114 284112;
0245992760999992012010312004+42700-068300FM-18+0000DB276V0202801N010019999999N9999999N1+00041-00821100581ADDMD1310231+9999OA159901301SA1+0789REMSYN200BBXX  44005 03121 99432 70691 46/// /2810 10004 21082 40058 53023 91150 22200 00078 10604 20604 3//// 40901 70021 333 91213 555 11108 22112 31109 42814 61149 279103 273106 278115 280109 281114 276108;
0245992760999992012010313004+42700-068300FM-18+0000DB276V0202901N010019999999N9999999N1-00011-00891100661ADDMD1110271+9999OA159901401SA1+0789REMSYN200BBXX  44005 03131 99432 70691 46/// /2910 11001 21089 40066 51027 91250 22200 00078 10604 20604 3//// 41001 70021 333 91214 555 11110 22115 31158 42814 61249 285103 287098 278093 275100 278109 280104;
0245992760999992012010314004+42700-068300FM-18+0000DB276V0202901N009019999999N9999999N1-00061-00981100751ADDMD1210261+9999OA159901101SA1+0789REMSYN200BBXX  44005 03141 99432 70691 46/// /2909 11006 21098 40075 52026 91350 22200 00078 10604 20604 3//// 40902 70020 333 91211 555 11090 22094 31255 42914 61349 284085 287089 286086 285094 286097 287104;
0245992760999992012010315004+42700-068300FM-18+0000DB276V0203301N008019999999N9999999N1-00171-00661100711ADDMD1010131+9999OA159901001SA1+0789REMSYN200BBXX  44005 03151 99432 70691 46/// /3308 11017 21066 40071 50013 91450 22200 00078 10603 20603 3//// 40901 70017 333 91210 555 11087 22090 31401 43312 61449 328082 321087 325090 323091 314090 297077;
0245992760999992012010316004+42700-068300FM-18+0000DB276V0203201N008019999999N9999999N1-00241-00921100741ADDMD1110081+9999OA159901101SA1+0789REMSYN200BBXX  44005 03161 99432 70691 46/// /3208 11024 21092 40074 51008 91550 22200 00078 10603 20603 3//// 40901 70015 333 91211 555 11080 22083 31503 43211 61549 323077 328077 325081 322087 317091 324085;
0245992760999992012010317004+42700-068300FM-18+0000DB276V0203301N008019999999N9999999N1-00281-00961100741ADDMD1510001+9999OA159901101SA1+0789REMSYN200BBXX  44005 03171 99432 70691 46/// /3308 11028 21096 40074 55000 91650 22200 00078 10503 20503 3//// 41002 70015 333 91211 555 11085 22088 31639 43111 61649 326082 322086 322077 319078 332077 331080;
0245992760999992012010318004+42700-068300FM-18+0000DB276V0203201N008019999999N9999999N1-00291-01041100731ADDMD1010001+9999OA159901101SA1+0789REMSYN200BBXX  44005 03181 99432 70691 46/// /3208 11029 21104 40073 50000 91750 22200 00078 10503 20502 3//// 41001 70014 333 91211 555 11088 22091 31744 43211 61749 317083 315085 307080 319073 321078 322076;
0245992760999992012010319004+42700-068300FM-18+0000DB276V0203401N009019999999N9999999N1-00331-01031100711ADDMD1710031+9999OA159901201SA1+0789REMSYN200BBXX  44005 03191 99432 70691 46/// /3409 11033 21103 40071 57003 91850 22200 00078 10503 20503 3//// 41001 70014 333 91212 555 11093 22097 31828 43212 61849 339088 324085 316088 317078 324084 319084;
0245992760999992012010320004+42700-068300FM-18+0000DB276V0203401N008019999999N9999999N1-00381-01171100841ADDMD1310101+9999OA159901101SA1+0789REMSYN200BBXX  44005 03201 99432 70691 46/// /3408 11038 21117 40084 53010 91950 22200 00078 10503 20502 3//// 40901 70013 333 91211 555 11083 22086 31927 43512 61949 336080 326082 328088 334081 334076 341081;
0245992760999992012010321004+42700-068300FM-18+0000DB276V0203401N009019999999N9999999N1-00351-01101100831ADDMD1210101+9999OA159901101SA1+0789REMSYN200BBXX  44005 03211 99432 70691 46/// /3409 11035 21110 40083 52010 92050 22200 00078 10503 20502 3//// 40901 70013 333 91211 555 11092 22096 32030 43312 62049 337088 346088 336083 328077 331072 330074;
0245992760999992012010322004+42700-068300FM-18+0000DB276V0203401N009019999999N9999999N1-00341-01141100921ADDMD1110211+9999OA159901201SA1+0789REMSYN200BBXX  44005 03221 99432 70691 46/// /3409 11034 21114 40092 51021 92150 22200 00078 10503 20502 3//// 41001 70013 333 91212 555 11095 22099 32124 43313 62149 336092 337093 338096 336089 349080 346088;
0245992760999992012010323004+42700-068300FM-18+0000DB276V0203401N009019999999N9999999N1-00351-01131101061ADDMD1310221+9999OA159901101SA1+0789REMSYN200BBXX  44005 03231 99432 70691 46/// /3409 11035 21113 40106 53022 92250 22200 00078 10402 20402 3//// 40901 70012 333 91211 555 11098 22101 32235 43413 62249 343093 343097 337094 342091 336091 345089;
0245992760999992012010400004+42700-068300FM-18+0000DB276V0203301N011019999999N9999999N1-00421-01171101131ADDMD1110301+9999OA159901401SA1+0789REMSYN200BBXX  44005 04001 99432 70691 46/// /3311 11042 21117 40113 51030 92350 22200 00078 10503 20503 3//// 41001 70015 333 91214 555 11116 22121 32348 43414 62349 334108 338101 332099 339102 337093 335087;
0245992760999992012010401004+42700-068300FM-18+0000DB276V0203401N009019999999N9999999N1-00471-01181101261ADDMD1110341+9999OA159901101SA1+0789REMSYN200BBXX  44005 04011 99432 70691 46/// /3409 11047 21118 40126 51034 90050 22200 00078 10503 20503 3//// 40901 70015 333 91211 555 11093 22097 32355 43213 60049 336091 338082 333085 333089 340097 327097;
0245992760999992012010402004+42700-068300FM-18+0000DB276V0203301N008019999999N9999999N1-00551-01211101331ADDMD1210271+9999OA159901101SA1+0789REMSYN200BBXX  44005 04021 99432 70691 46/// /3308 11055 21121 40133 52027 90150 22200 00078 10503 20503 3//// 40901 70016 333 91211 555 11085 22088 30136 43314 60149 331085 332094 339094 338088 340087 334087;
0245992760999992012010403004+42700-068300FM-18+0000DB276V0203401N009019999999N9999999N1-00601-01201101281ADDMD1010151+9999OA159901301SA1+0789REMSYN200BBXX  44005 04031 99432 70691 46/// /3409 11060 21120 40128 50015 90250 22200 00078 10503 20503 3//// 40901 70015 333 91213 555 11098 22102 30244 43313 60249 343092 334098 337092 330093 331087 343086;
0245992760999992012010404004+42700-068300FM-18+0000DB276V0203401N011019999999N9999999N1-00671-01211101131ADDMD1810131+9999OA159901301SA1+0789REMSYN200BBXX  44005 04041 99432 70691 46/// /3411 11067 21121 40113 58013 90350 22200 00078 10603 20603 3//// 40801 70016 333 91213 555 11118 22123 30327 43515 60349 343112 341115 334117 337109 334105 337098;
0245992760999992012010405004+42700-068300FM-18+0000DB276V0203301N012019999999N9999999N1-00731-01191101231ADDMD1510101+9999OA159901501SA1+0779REMSYN200BBXX  44005 04051 99432 70691 46/// /3312 11073 21119 40123 55010 90450 22200 00077 10604 20604 3//// 40901 70018 333 91215 555 11122 22127 30440 43416 60449 336117 339111 345106 342107 336110 343110;
0245992760999992012010406004+42700-068300FM-18+0000DB276V0203401N010019999999N9999999N1-00771-01171101341ADDMD1310061+9999OA159901301SA1+0779REMSYN200BBXX  44005 04061 99432 70691 46/// /3410 11077 21117 40134 53006 90550 22200 00077 10604 20604 3//// 40901 70019 333 91213 555 11105 22109 30530 43414 60549 344096 345100 344094 346103 343101 338107;
0245992760999992012010407004+42700-068300FM-18+0000DB276V0203401N012019999999N9999999N1-00781-01181101321ADDMD1110191+9999OA159901501SA1+0779REMSYN200BBXX  44005 04071 99432 70691 46/// /3412 11078 21118 40132 51019 90650 22200 00077 10604 20604 3//// 40901 70020 333 91215 555 11125 22131 30627 43515 60649 344120 356116 358118 001114 357108 352102;
0233992760999992012010408004+42700-068300FM-18+0000DB276V0203501N011019999999N9999999N1-00811-01251101391ADDMD1110161+9999OA159901401SA1+0779REMSYN188BBXX  44005 04081 99432 70691 46/// /3511 11081 21125 40139 51016 90750 22200 00077 10604 20604 70020 333 91214 555 11116 22120 30659 43515 60749 350111 345108 346111 350116 346114 347117;
0245992760999992012010409004+42700-068300FM-18+0000DB276V0203401N011019999999N9999999N1-00791-01171101411ADDMD1210071+9999OA159901401SA1+0779REMSYN200BBXX  44005 04091 99432 70691 46/// /3411 11079 21117 40141 52007 90850 22200 00077 10604 20604 3//// 41001 70020 333 91214 555 11114 22119 30756 43514 60849 342108 343103 344102 342105 348112 350106;
0245992760999992012010410004+42700-068300FM-18+0000DB276V0203301N012019999999N9999999N1-00841-01141101391ADDMD1110071+9999OA159901501SA1+0779REMSYN200BBXX  44005 04101 99432 70691 46/// /3312 11084 21114 40139 51007 90950 22200 00077 10604 20604 3//// 41001 70020 333 91215 555 11122 22127 30930 43415 60949 329115 335112 342108 354108 336106 344107;
0233992760999992012010411004+42700-068300FM-18+0000DB276V0203501N012019999999N9999999N1-00861-01191101391ADDMD1410001+9999OA159901501SA1+0779REMSYN188BBXX  44005 04111 99432 70691 46/// /3512 11086 21119 40139 54000 91050 22200 00077 10604 20604 70020 333 91215 555 11123 22128 30951 43316 61049 348115 347118 345112 341116 329121 333122;
0233992760999992012010412004+42700-068300FM-18+0000DB276V0203401N011019999999N9999999N1-00861-01141101451ADDMD1310041+9999OA159901301SA1+0789REMSYN188BBXX  44005 04121 99432 70691 46/// /3411 11086 21114 40145 53004 91150 22200 00078 10604 20604 70019 333 91213 555 11110 22115 31135 43314 61149 340104 331108 329110 333108 342104 342109;
0245992760999992012010413004+42700-068300FM-18+0000DB276V0203301N010019999999N9999999N1-00821-01091101531ADDMD1310141+9999OA159901301SA1+0789REMSYN200BBXX  44005 04131 99432 70691 46/// /3310 11082 21109 40153 53014 91250 22200 00078 10604 20604 3//// 40901 70019 333 91213 555 11108 22112 31204 43315 61249 327102 331108 333106 328111 332101 336100;
0245992760999992012010414004+42700-068300FM-18+0000DB276V0203201N009019999999N9999999N1-00771-01041101601ADDMD1310211+9999OA159901201SA1+0789REMSYN200BBXX  44005 04141 99432 70691 46/// /3209 11077 21104 40160 53021 91350 22200 00078 10604 20604 3//// 40901 70018 333 91212 555 11093 22096 31258 43414 61349 323089 324092 327093 331093 340098 336105;
0245992760999992012010415004+42700-068300FM-18+0000DB276V0203201N009019999999N9999999N1-00721-01011101581ADDMD1110131+9999OA159901101SA1+0789REMSYN200BBXX  44005 04151 99432 70691 46/// /3209 11072 21101 40158 51013 91450 22200 00078 10604 20603 3//// 40901 70018 333 91211 555 11093 22097 31418 43212 61449 325090 331087 325091 330090 328092 330088;
0245992760999992012010416004+42700-068300FM-18+0000DB276V0203201N009019999999N9999999N1-00701-01181101541ADDMD1010001+9999OA159901201SA1+0789REMSYN200BBXX  44005 04161 99432 70691 46/// /3209 11070 21118 40154 50000 91550 22200 00078 10603 20603 3//// 40901 70016 333 91212 555 11090 22093 31458 43113 61549 323087 325090 323091 314090 319094 315093;
0245992760999992012010417004+42700-068300FM-18+0000DB276V0203101N008019999999N9999999N1-00601-01181101481ADDMD1810121+9999OA159901101SA1+0789REMSYN200BBXX  44005 04171 99432 70691 46/// /3108 11060 21118 40148 58012 91650 22200 00078 10603 20603 3//// 40901 70016 333 91211 555 11081 22084 31641 43111 61649 310080 304074 314075 324076 323074 320078;
0245992760999992012010418004+42700-068300FM-18+0000DB276V0203101N010019999999N9999999N1-00521-01181101381ADDMD1810201+9999OA159901301SA1+0789REMSYN200BBXX  44005 04181 99432 70691 46/// /3110 11052 21118 40138 58020 91750 22200 00078 10503 20503 3//// 41001 70014 333 91213 555 11102 22106 31745 43113 61749 311098 312097 315094 319091 317083 310085;
0245992760999992012010419004+42700-068300FM-18+0000DB276V0202901N010019999999N9999999N1-00401-01221101381ADDMD1610161+9999OA159901301SA1+0789REMSYN200BBXX  44005 04191 99432 70691 46/// /2910 11040 21122 40138 56016 91850 22200 00078 10503 20503 3//// 41001 70016 333 91213 555 11102 22106 31828 43016 61849 292099 301101 300108 304108 307105 310097;
0245992760999992012010420004+42700-068300FM-18+0000DB276V0202801N008019999999N9999999N1-00361-01291101391ADDMD1610091+9999OA159901101SA1+0789REMSYN200BBXX  44005 04201 99432 70691 46/// /2808 11036 21129 40139 56009 91950 22200 00078 10503 20503 3//// 41101 70014 333 91211 555 11079 22082 31905 42912 61949 275076 272079 289078 288087 282088 286091;
0245992760999992012010421004+42700-068300FM-18+0000DB276V0202701N007019999999N9999999N1-00331-01151101411ADDMD1210031+9999OA159900901SA1+0779REMSYN200BBXX  44005 04211 99432 70691 46/// /2707 11033 21115 40141 52003 92050 22200 00077 10502 20502 3//// 41201 70011 333 91209 555 11073 22076 32010 42710 62049 272069 277069 283067 276071 269071 274074;
0245992760999992012010422004+42700-068300FM-18+0000DB276V0202701N005019999999N9999999N1-00311-01251101421ADDMD1210041+9999OA159900701SA1+0779REMSYN200BBXX  44005 04221 99432 70691 46/// /2705 11031 21125 40142 52004 92150 22200 00077 10502 20502 3//// 41101 70009 333 91207 555 11056 22058 32052 42810 62149 272054 286059 277061 283065 278060 277067;
0245992760999992012010423004+42700-068300FM-18+0000DB276V0202601N006019999999N9999999N1-00281-01171101421ADDMD1210031+9999OA159900801SA1+0779REMSYN200BBXX  44005 04231 99432 70691 46/// /2606 11028 21117 40142 52003 92250 22200 00077 10402 20401 3//// 41301 70009 333 91208 555 11059 22061 32211 42909 62249 259055 269056 268051 284054 280054 279053;
0245992760999992012010500004+42700-068300FM-18+0000DB276V0202601N005019999999N9999999N1-00241-01311101421ADDMD1410001+9999OA159900701SA1+0789REMSYN200BBXX  44005 05001 99432 70691 46/// /2605 11024 21131 40142 54000 92350 22200 00078 11102 20401 3//// 41101 70008 333 91207 555 11055 22057 32307 42609 62349 264054 260044 258050 277052 256053 258053;
0245992760999992012010501004+42700-068300FM-18+0000DB276V0202701N006019999999N9999999N1-00141-01191101361ADDMD1810061+9999OA159900901SA1+0789REMSYN200BBXX  44005 05011 99432 70691 46/// /2706 11014 21119 40136 58006 90050 22200 00078 11202 20401 3//// 41201 70009 333 91209 555 11063 22066 30048 42709 60049 269060 280050 259050 258052 260049 270055;
0245992760999992012010502004+42700-068300FM-18+0000DB276V0202501N007019999999N9999999N1-00091-01121101311ADDMD1810111+9999OA159901001SA1+0789REMSYN200BBXX  44005 05021 99432 70691 46/// /2507 11009 21112 40131 58011 90150 22200 00078 11102 20301 3//// 41101 70008 333 91210 555 11075 22078 30135 42410 60149 248071 252071 251061 265056 257057 267051;
0245992760999992012010503004+42700-068300FM-18+0000DB276V0202401N009019999999N9999999N1-00011-01001101231ADDMD1810191+9999OA159901101SA1+0789REMSYN200BBXX  44005 05031 99432 70691 46/// /2409 11001 21100 40123 58019 90250 22200 00078 11102 20401 3//// 41101 70009 333 91211 555 11089 22093 30248 42411 60249 238080 231078 237075 241075 249077 243080;
0245992760999992012010504004+42700-068300FM-18+0000DB276V0202301N010019999999N9999999N1+00061-00831101131ADDMD1810231+9999OA159901301SA1+0789REMSYN200BBXX  44005 05041 99432 70691 46/// /2310 10006 21083 40113 58023 90350 22200 00078 11202 20402 3//// 41201 70011 333 91213 555 11102 22107 30347 42213 60349 230094 228088 232084 238082 240079 237087;
0245992760999992012010505004+42700-068300FM-18+0000DB276V0202401N010019999999N9999999N1+00071-00821101101ADDMD1610211+9999OA159901301SA1+0789REMSYN200BBXX  44005 05051 99432 70691 46/// /2410 10007 21082 40110 56021 90450 22200 00078 10503 20502 3//// 41301 70013 333 91213 555 11108 22112 30428 42414 60449 235100 226100 227099 233099 225100 230096;
0245992760999992012010506004+42700-068300FM-18+0000DB276V0202501N010019999999N9999999N1+00061-00691101071ADDMD1610161+9999OA159901301SA1+0789REMSYN200BBXX  44005 05061 99432 70691 46/// /2510 10006 21069 40107 56016 90550 22200 00078 10503 20503 3//// 41201 70015 333 91213 555 11106 22111 30500 42314 60549 251102 249101 243100 244100 237106 238103;
0245992760999992012010507004+42700-068300FM-18+0000DB276V0202501N008019999999N9999999N1-00011-00911101051ADDMD1610081+9999OA159901001SA1+0789REMSYN200BBXX  44005 05071 99432 70691 46/// /2508 11001 21091 40105 56008 90650 22200 00078 10503 20503 3//// 41301 70014 333 91210 555 11078 22081 30554 42613 60649 251076 244084 248085 249086 249092 255097;
0245992760999992012010508004+42700-068300FM-18+0000DB276V0202501N006019999999N9999999N1+00001-00821100961ADDMD1810141+9999OA159900801SA1+0779REMSYN200BBXX  44005 05081 99432 70691 46/// /2506 10000 21082 40096 58014 90750 22200 00077 10603 20603 3//// 40602 70015 333 91208 555 11066 22068 30705 42510 60749 246063 247064 247063 252072 249070 247078;
0245992760999992012010509004+42700-068300FM-18+0000DB276V0202501N007019999999N9999999N1-00011-00911100911ADDMD1810161+9999OA159900901SA1+0779REMSYN200BBXX  44005 05091 99432 70691 46/// /2507 11001 21091 40091 58016 90850 22200 00077 10603 20603 3//// 41302 70015 333 91209 555 11070 22072 30846 42509 60849 246067 245065 244060 234060 246060 244060;
0245992760999992012010510004+42700-068300FM-18+0000DB276V0202501N007019999999N9999999N1+00001-00821100871ADDMD1610181+9999OA159900901SA1+0779REMSYN200BBXX  44005 05101 99432 70691 46/// /2507 10000 21082 40087 56018 90950 22200 00077 10603 20603 3//// 41301 70015 333 91209 555 11071 22074 30854 42509 60949 251068 251067 258075 262071 253068 252069;
0245992760999992012010511004+42700-068300FM-18+0000DB276V0202501N008019999999N9999999N1-00021-00821100831ADDMD1610131+9999OA159901001SA1+0779REMSYN200BBXX  44005 05111 99432 70691 46/// /2508 11002 21082 40083 56013 91050 22200 00077 10603 20602 3//// 41101 70014 333 91210 555 11080 22083 31049 42510 61049 249074 254073 254067 257070 250067 244069;
0245992760999992012010512004+42700-068300FM-18+0000DB276V0202601N007019999999N9999999N1-00011-00731100821ADDMD1610091+9999OA159900901SA1+0779REMSYN200BBXX  44005 05121 99432 70691 46/// /2607 11001 21073 40082 56009 91150 22200 00077 11303 20602 3//// 41301 70013 333 91209 555 11077 22080 31056 42609 61149 259074 253069 258072 250071 256071 255074;
0245992760999992012010513004+42700-068300FM-18+0000DB276V0202501N007019999999N9999999N1+00031-00621100791ADDMD1610081+9999OA159901001SA1+0779REMSYN200BBXX  44005 05131 99432 70691 46/// /2507 10003 21062 40079 56008 91250 22200 00077 11103 20502 3//// 41101 70013 333 91210 555 11071 22074 31246 42510 61249 249069 254072 249070 252069 257070 252073;
0245992760999992012010514004+42700-068300FM-18+0000DB276V0202501N008019999999N9999999N1+00071-00551100831ADDMD1510001+9999OA159901001SA1+0789REMSYN200BBXX  44005 05141 99432 70691 46/// /2508 10007 21055 40083 55000 91350 22200 00078 10603 20602 3//// 41101 70013 333 91210 555 11084 22087 31349 42610 61349 246080 251076 250074 245075 254074 248071;
0245992760999992012010515004+42700-068300FM-18+0000DB276V0202501N009019999999N9999999N1+00101-00471100801ADDMD1410001+9999OA159901101SA1+0789REMSYN200BBXX  44005 05151 99432 70691 46/// /2509 10010 21047 40080 54000 91450 22200 00078 10503 20502 3//// 41201 70013 333 91211 555 11089 22093 31410 42411 61449 244085 243083 249083 244086 245080 245078;
0245992760999992012010516004+42700-068300FM-18+0000DB276V0202501N009019999999N9999999N1+00141-00351100711ADDMD1810081+9999OA159901201SA1+0789REMSYN200BBXX  44005 05161 99432 70691 46/// /2509 10014 21035 40071 58008 91550 22200 00078 10503 20502 3//// 41101 70013 333 91212 555 11099 22103 31513 42512 61549 244092 242094 244091 243091 244092 246088;
0245992760999992012010517004+42700-068300FM-18+0000DB276V0202401N010019999999N9999999N1+00161-00321100571ADDMD1810261+9999OA159901201SA1+0789REMSYN200BBXX  44005 05171 99432 70691 46/// /2410 10016 21032 40057 58026 91650 22200 00078 11203 20503 3//// 41201 70015 333 91212 555 11107 22112 31554 42412 61649 243100 246098 238098 244098 239094 241099;
0245992760999992012010518004+42700-068300FM-18+0000DB276V0202401N010019999999N9999999N1+00191-00301100471ADDMD1810331+9999OA159901201SA1+0789REMSYN200BBXX  44005 05181 99432 70691 46/// /2410 10019 21030 40047 58033 91750 22200 00078 10503 20503 3//// 41301 70015 333 91212 555 11103 22108 31744 42412 61749 240097 240092 244094 252095 249096 246100;
0245992760999992012010519004+42700-068300FM-18+0000DB276V0202501N009019999999N9999999N1+00191-00301100491ADDMD1610221+9999OA159901101SA1+0789REMSYN200BBXX  44005 05191 99432 70691 46/// /2509 10019 21030 40049 56022 91850 22200 00078 10503 20503 3//// 41201 70015 333 91211 555 11093 22097 31829 42512 61849 254088 250088 253093 249088 244094 245092;
0245992760999992012010520004+42700-068300FM-18+0000DB276V0202601N009019999999N9999999N1+00231-00291100521ADDMD1510051+9999OA159901101SA1+0789REMSYN200BBXX  44005 05201 99432 70691 46/// /2609 10023 21029 40052 55005 91950 22200 00078 10503 20503 3//// 41301 70015 333 91211 555 11099 22104 31922 42512 61949 256094 254091 258097 253094 250089 250088;
0245992760999992012010521004+42700-068300FM-18+0000DB276V0202801N010019999999N9999999N1+00261-00371100561ADDMD1310091+9999OA159901201SA1+0789REMSYN200BBXX  44005 05211 99432 70691 46/// /2810 10026 21037 40056 53009 92050 22200 00078 10503 20503 3//// 41301 70014 333 91212 555 11104 22108 32030 42712 62049 276097 270102 266099 260094 257092 255092;
0245992760999992012010522004+42700-068300FM-18+0000DB276V0203001N010019999999N9999999N1+00271-00531100621ADDMD1310131+9999OA159901201SA1+0789REMSYN200BBXX  44005 05221 99432 70691 46/// /3010 10027 21053 40062 53013 92150 22200 00078 10503 20503 3//// 41101 70015 333 91212 555 11109 22114 32118 42913 62149 295104 298108 294107 286105 281103 279097;
0245992760999992012010523004+42700-068300FM-18+0000DB276V0202901N009019999999N9999999N1+00271-00601100701ADDMD1310181+9999OA159901001SA1+0789REMSYN200BBXX  44005 05231 99432 70691 46/// /2909 10027 21060 40070 53018 92250 22200 00078 10503 20503 3//// 41301 70014 333 91210 555 11096 22100 32152 43013 62249 295091 298090 297094 305091 301099 298105;
0245992760999992012010600004+42700-068300FM-18+0000DB276V0203001N009019999999N9999999N1+00251-00661100781ADDMD1310221+9999OA159901201SA1+0789REMSYN200BBXX  44005 06001 99432 70691 46/// /3009 10025 21066 40078 53022 92350 22200 00078 10503 20503 3//// 41101 70014 333 91212 555 11099 22104 32347 43112 62349 297090 295092 293092 291087 296083 293088;
0245992760999992012010601004+42700-068300FM-18+0000DB276V0203301N009019999999N9999999N1+00161-00641100881ADDMD1310261+9999OA159901201SA1+0789REMSYN200BBXX  44005 06011 99432 70691 46/// /3309 10016 21064 40088 53026 90050 22200 00078 10503 20503 3//// 41201 70016 333 91212 555 11098 22102 30015 42714 60049 322091 315091 324101 301094 305086 304087;
0245992760999992012010602004+42700-068300FM-18+0000DB276V0203301N008019999999N9999999N1+00091-00751100961ADDMD1210261+9999OA159901001SA1+0789REMSYN200BBXX  44005 06021 99432 70691 46/// /3308 10009 21075 40096 52026 90150 22200 00078 10503 20503 3//// 41101 70014 333 91210 555 11085 22088 30054 43112 60149 327081 317074 321076 316089 317088 317092;
0245992760999992012010603004+42700-068300FM-18+0000DB276V0203101N008019999999N9999999N1+00021-00881101021ADDMD1110241+9999OA159901101SA1+0779REMSYN200BBXX  44005 06031 99432 70691 46/// /3108 10002 21088 40102 51024 90250 22200 00077 10503 20503 3//// 41101 70015 333 91211 555 11087 22091 30238 43211 60249 314084 324088 320083 327089 324086 323087;
0245992760999992012010604004+42700-068300FM-18+0000DB276V0203201N008019999999N9999999N1-00031-00941101081ADDMD1110201+9999OA159901101SA1+0769REMSYN200BBXX  44005 06041 99432 70691 46/// /3208 11003 21094 40108 51020 90350 22200 00076 10503 20503 3//// 41101 70016 333 91211 555 11082 22085 30255 43212 60349 321078 322072 324080 322079 323081 320083;
0245992760999992012010605004+42700-068300FM-18+0000DB276V0203301N007019999999N9999999N1-00071-00931101061ADDMD1110101+9999OA159900901SA1+0769REMSYN200BBXX  44005 06051 99432 70691 46/// /3307 11007 21093 40106 51010 90450 22200 00076 10503 20502 3//// 41001 70013 333 91209 555 11074 22077 30449 43110 60449 327071 327067 325069 321068 324072 323073;
0245992760999992012010606004+42700-068300FM-18+0000DB276V0203301N006019999999N9999999N1-00111-00961101131ADDMD1310111+9999OA159900801SA1+0769REMSYN200BBXX  44005 06061 99432 70691 46/// /3306 11011 21096 40113 53011 90550 22200 00076 10503 20502 3//// 41101 70014 333 91208 555 11063 22066 30504 43310 60549 335060 338066 331065 329068 328073 330069;
0245992760999992012010607004+42700-068300FM-18+0000DB276V0203201N006019999999N9999999N1-00141-00981101181ADDMD1310101+9999OA159900801SA1+0769REMSYN200BBXX  44005 06071 99432 70691 46/// /3206 11014 21098 40118 53010 90650 22200 00076 10503 20502 3//// 41101 70013 333 91208 555 11060 22062 30609 43209 60649 325057 331062 327065 330065 333071 331068;
0245992760999992012010608004+42700-068300FM-18+0000DB276V0203201N006019999999N9999999N1-00151-01001101251ADDMD1210191+9999OA159900701SA1+0769REMSYN200BBXX  44005 06081 99432 70691 46/// /3206 11015 21100 40125 52019 90750 22200 00076 10502 20502 3//// 41101 70010 333 91207 555 11057 22059 30722 43109 60749 319053 323050 314059 323060 318057 325052;
0245992760999992012010609004+42700-068300FM-18+0000DB276V0203101N004019999999N9999999N1-00151-00991101251ADDMD1110121+9999OA159900601SA1+0769REMSYN200BBXX  44005 06091 99432 70691 46/// /3104 11015 21099 40125 51012 90850 22200 00076 10502 20301 3//// 40502 70010 333 91206 555 11040 22041 30804 43108 60849 313041 321044 317050 332048 314055 323050;
0245992760999992012010610004+42700-068300FM-18+0000DB276V0203001N003019999999N9999999N1-00131-00971101241ADDMD1110061+9999OA159900501SA1+0769REMSYN200BBXX  44005 06101 99432 70691 46/// /3003 11013 21097 40124 51006 90950 22200 00076 10502 20401 3//// 40502 70009 333 91205 555 11030 22030 30856 43207 60949 309030 315027 308035 319039 317040 322043;
0245992760999992012010611004+42700-068300FM-18+0000DB276V0202701N003019999999N9999999N1-00101-00941101311ADDMD1310061+9999OA159900401SA1+0769REMSYN200BBXX  44005 06111 99432 70691 46/// /2703 11010 21094 40131 53006 91050 22200 00076 10402 20401 3//// 40402 70009 333 91204 555 11027 22027 31038 42905 61049 270027 263032 240008 289006 288008 308023;
0245992760999992012010612004+42700-068300FM-18+0000DB276V0202601N003019999999N9999999N1-00071-01001101341ADDMD1310091+9999OA159900601SA1+0769REMSYN200BBXX  44005 06121 99432 70691 46/// /2603 11007 21100 40134 53009 91150 22200 00076 10401 20401 3//// 40401 70007 333 91206 555 11029 22029 31112 42607 61149 262028 274034 281026 278046 256023 279030;
0245992760999992012010613004+42700-068300FM-18+0000DB276V0202901N004019999999N9999999N1-00071-00901101361ADDMD1110121+9999OA159900501SA1+0769REMSYN200BBXX  44005 06131 99432 70691 46/// /2904 11007 21090 40136 51012 91250 22200 00076 11101 20401 3//// 41101 70007 333 91205 555 11039 22040 31224 42507 61249 283034 272033 262042 274044 268038 260035;
0245992760999992012010614004+42700-068300FM-18+0000DB276V0202001N001019999999N9999999N1-00161-00761101411ADDMD1310101+9999OA159900201SA1+0769REMSYN200BBXX  44005 06141 99432 70691 46/// /2001 11016 21076 40141 53010 91350 22200 00076 11101 20401 3//// 41101 70007 333 91202 555 11010 22010 31258 42906 61349 206013 268015 316022 288027 292038 283029;
0245992760999992012010615004+42700-068300FM-18+0000DB276V0201401N001019999999N9999999N1-00151-00571101401ADDMD1210061+9999OA159900201SA1+0769REMSYN200BBXX  44005 06151 99432 70691 46/// /1401 11015 21057 40140 52006 91450 22200 00076 11001 20401 3//// 41001 70007 333 91202 555 11012 22012 31355 42203 61449 152011 180009 185007 167008 205010 211011;
0245992760999992012010616004+42700-068300FM-18+0000DB276V0201201N004019999999N9999999N1-00111-00451101251ADDMD1810111+9999OA159900601SA1+0769REMSYN200BBXX  44005 06161 99432 70691 46/// /1204 11011 21045 40125 58011 91550 22200 00076 11001 20401 3//// 41001 70007 333 91206 555 11041 22042 31544 41306 61549 118039 134032 127024 138025 134019 142011;
0245992760999992012010617004+42700-068300FM-18+0000DB276V0201401N006019999999N9999999N1+00021-00231101151ADDMD1810261+9999OA159900801SA1+0769REMSYN200BBXX  44005 06171 99432 70691 46/// /1406 10002 21023 40115 58026 91650 22200 00076 11001 20401 3//// 41001 70007 333 91208 555 11059 22061 31649 41408 61649 142057 140055 142050 135043 136042 125044;
0245992760999992012010618004+42700-068300FM-18+0000DB276V0201501N007019999999N9999999N1+00151-00111101031ADDMD1610371+9999OA159900901SA1+0769REMSYN200BBXX  44005 06181 99432 70691 46/// /1507 10015 21011 40103 56037 91750 22200 00076 11101 20401 3//// 41101 70007 333 91209 555 11074 22077 31736 41509 61749 150070 149067 152061 148067 150059 144057;
0245992760999992012010619004+42700-068300FM-18+0000DB276V0201601N009019999999N9999999N1+00291+00031100931ADDMD1710321+9999OA159901101SA1+0769REMSYN200BBXX  44005 06191 99432 70691 46/// /1609 10029 20003 40093 57032 91850 22200 00076 11102 20301 3//// 41101 70008 333 91211 555 11093 22097 31847 41611 61849 155088 157085 148083 147080 145078 146074;
0245992760999992012010620004+42700-068300FM-18+0000DB276V0201601N010019999999N9999999N1+00411+00071100861ADDMD1610291+9999OA159901101SA1+0769REMSYN200BBXX  44005 06201 99432 70691 46/// /1610 10041 20007 40086 56029 91950 22200 00076 10402 20402 3//// 40801 70009 333 91211 555 11103 22108 31935 41612 61949 163096 159101 157091 157094 155095 156089;
0245992760999992012010621004+42700-068300FM-18+0000DB276V0201701N011019999999N9999999N1+00521+00231100791ADDMD1610241+9999OA159901301SA1+0779REMSYN200BBXX  44005 06211 99432 70691 46/// /1711 10052 20023 40079 56024 92050 22200 00077 10402 20402 3//// 40801 70011 333 91213 555 11114 22120 32003 41613 62049 166105 165099 164097 165092 159101 165092;
0245992760999992012010622004+42700-068300FM-18+0000DB276V0201701N011019999999N9999999N1+00601+00351100671ADDMD1810261+9999OA159901301SA1+0779REMSYN200BBXX  44005 06221 99432 70691 46/// /1711 10060 20035 40067 58026 92150 22200 00077 10503 20503 3//// 41101 70014 333 91213 555 11122 22129 32115 41714 62149 171113 169105 172112 168115 170106 164104;
0245992760999992012010623004+42700-068300FM-18+0000DB276V0201801N009019999999N9999999N1+00681+00491100651ADDMD1610211+9999OA159901201SA1+0779REMSYN200BBXX  44005 06231 99432 70691 46/// /1809 10068 20049 40065 56021 92250 22200 00077 10503 20503 3//// 41101 70017 333 91212 555 11099 22105 32232 41714 62249 179096 176113 174100 175104 174112 170111;
0245992760999992012010700004+42700-068300FM-18+0000DB276V0201901N008019999999N9999999N1+00741+00611100671ADDMD1610121+9999OA159901001SA1+0779REMSYN200BBXX  44005 07001 99432 70691 46/// /1908 10074 20061 40067 56012 92350 22200 00077 10604 20604 3//// 41001 70018 333 91210 555 11082 22087 32254 41813 62349 191078 182083 180090 182088 184089 182093;
0245992760999992012010701004+42700-068300FM-18+0000DB276V0202301N005019999999N9999999N1+00771+00701100681ADDMD1410001+9999OA159900601SA1+0779REMSYN200BBXX  44005 07011 99432 70691 46/// /2305 10077 20070 40068 54000 90050 22200 00077 10603 20401 3//// 40603 70017 333 91206 555 11048 22051 32356 41909 60049 229045 219046 203051 190054 186061 189071;
0245992760999992012010702004+42700-068300FM-18+0000DB276V0203001N006019999999N9999999N1+00681+00601100641ADDMD1010001+9999OA159900701SA1+0779REMSYN200BBXX  44005 07021 99432 70691 46/// /3006 10068 20060 40064 50000 90150 22200 00077 10603 20502 3//// 40603 70016 333 91207 555 11058 22061 30127 42607 60149 298055 273060 262055 261051 251056 242048;
0245992760999992012010703004+42700-068300FM-18+0000DB276V0203001N002019999999N9999999N1+00631+00601100681ADDMD1510001+9999OA159900301SA1+0779REMSYN200BBXX  44005 07031 99432 70691 46/// /3002 10063 20060 40068 55000 90250 22200 00077 10703 20401 3//// 40703 70014 333 91203 555 11022 22022 30153 43107 60249 302021 309028 309037 308047 309052 305056;
0245992760999992012010704004+42700-068300FM-18+0000DB276V0202801N002019999999N9999999N1+00641+00571100641ADDMD1710041+9999OA159900301SA1+0779REMSYN200BBXX  44005 07041 99432 70691 46/// /2802 10064 20057 40064 57004 90350 22200 00077 10602 20401 3//// 40602 70012 333 91203 555 11024 22024 30334 42603 60349 274022 265020 283016 282016 289018 295021;
0245992760999992012010705004+42700-068300FM-18+0000DB276V0203001N003019999999N9999999N1+00601+00561100661ADDMD1010001+9999OA159900401SA1+0779REMSYN200BBXX  44005 07051 99432 70691 46/// /3003 10060 20056 40066 50000 90450 22200 00077 10602 20401 3//// 40602 70011 333 91204 555 11031 22032 30438 43104 60449 306030 309034 306031 296030 290029 281025;
0245992760999992012010706004+42700-068300FM-18+0000DB276V0203001N002019999999N9999999N1+00551+00521100661ADDMD1510001+9999OA159900201SA1+0779REMSYN200BBXX  44005 07061 99432 70691 46/// /3002 10055 20052 40066 55000 90550 22200 00077 10602 20401 3//// 40602 70011 333 91202 555 11016 22017 30453 43004 60549 297017 296020 298024 294026 301027 301027;
0245992760999992012010707004+42700-068300FM-18+0000DB276V0203001N001019999999N9999999N1+00551+00511100691ADDMD1310051+9999OA159900201SA1+0779REMSYN200BBXX  44005 07071 99432 70691 46/// /3001 10055 20051 40069 53005 90650 22200 00077 10602 20401 3//// 40602 70011 333 91202 555 11012 22013 30553 43102 60649 299012 267013 256009 263008 282011 295015;
0245992760999992012010708004+42700-068300FM-18+0000DB276V0209999C000019999999N9999999N1+00561+00511100681ADDMD1410001+9999OA159900001SA1+0789REMSYN200BBXX  44005 07081 99432 70691 46/// /0000 10056 20051 40068 54000 90750 22200 00078 10602 20401 3//// 40602 70011 333 91200 555 11001 22001 30650 43202 60749 180001 180000 004002 346008 325007 321012;
0245992760999992012010709004+42700-068300FM-18+0000DB276V0203501N001019999999N9999999N1+00571+00501100671ADDMD1010001+9999OA159900201SA1+0779REMSYN200BBXX  44005 07091 99432 70691 46/// /3501 10057 20050 40067 50000 90850 22200 00077 10602 20301 3//// 40602 70010 333 91202 555 11013 22014 30822 43603 60849 349014 357021 002025 001022 359013 018005;
0245992760999992012010710004+42700-068300FM-18+0000DB276V0201601N002019999999N9999999N1+00601+00511100691ADDMD1410001+9999OA159900201SA1+0779REMSYN200BBXX  44005 07101 99432 70691 46/// /1602 10060 20051 40069 54000 90950 22200 00077 10602 20401 3//// 40602 70010 333 91202 555 11015 22016 30906 43503 60949 162015 167008 067005 012011 353018 351016;
0245992760999992012010711004+42700-068300FM-18+0000DB276V0201301N001019999999N9999999N1+00641+00591100651ADDMD1810031+9999OA159900201SA1+0789REMSYN200BBXX  44005 07111 99432 70691 46/// /1301 10064 20059 40065 58003 91050 22200 00078 10502 20401 3//// 40502 70009 333 91202 555 11008 22008 30958 41503 61049 130008 130009 132013 139016 147018 150019;
0245992760999992012010712004+42700-068300FM-18+0000DB276V0209999C000019999999N9999999N1+00661+00641100701ADDMD1310031+9999OA159900101SA1+0769REMSYN200BBXX  44005 07121 99432 70691 46/// /0000 10066 20064 40070 53003 91150 22200 00076 10602 20301 3//// 40602 70009 333 91201 555 11004 22004 31051 41202 61149 123004 076001 006004 053002 046006 118011;
0245992760999992012010713004+42700-068300FM-18+0000DB276V0201601N001019999999N9999999N1+00711+00681100691ADDMD1510001+9999OA159900201SA1+0769REMSYN200BBXX  44005 07131 99432 70691 46/// /1601 10071 20068 40069 55000 91250 22200 00076 10602 20401 3//// 40601 70008 333 91202 555 11013 22014 31221 41602 61249 164013 162011 156014 151014 154012 143010;
0245992760999992012010714004+42700-068300FM-18+0000DB276V0201801N003019999999N9999999N1+00761+00581100701ADDMD1110051+9999OA159900401SA1+0769REMSYN200BBXX  44005 07141 99432 70691 46/// /1803 10076 20058 40070 51005 91350 22200 00076 10602 20401 3//// 40601 70008 333 91204 555 11033 22035 31348 41804 61349 181029 179020 175015 173016 175009 174009;
0245992760999992012010715004+42700-068300FM-18+0000DB276V0201901N003019999999N9999999N1+00761+00621100661ADDMD1810041+9999OA159900301SA1+0779REMSYN200BBXX  44005 07151 99432 70691 46/// /1903 10076 20062 40066 58004 91450 22200 00077 10802 20401 3//// 40801 70008 333 91203 555 11031 22032 31354 41804 61449 193029 195031 185031 188030 190034 179035;
0245992760999992012010716004+42700-068300FM-18+0000DB276V0202201N004019999999N9999999N1+00771+00581100591ADDMD1810101+9999OA159900501SA1+0779REMSYN200BBXX  44005 07161 99432 70691 46/// /2204 10077 20058 40059 58010 91550 22200 00077 10802 20301 3//// 40801 70008 333 91205 555 11044 22046 31543 42205 61549 215040 213038 210034 207032 199031 196029;
0245992760999992012010717004+42700-068300FM-18+0000DB276V0202201N003019999999N9999999N1+00771+00611100451ADDMD1810251+9999OA159900401SA1+0789REMSYN200BBXX  44005 07171 99432 70691 46/// /2203 10077 20061 40045 58025 91650 22200 00078 10802 20401 3//// 40801 70008 333 91204 555 11031 22032 31626 42305 61649 223029 218037 224040 227038 223039 217039;
0245992760999992012010718004+42700-068300FM-18+0000DB276V0202201N004019999999N9999999N1+00781+00621100391ADDMD1610271+9999OA159900501SA1+0779REMSYN200BBXX  44005 07181 99432 70691 46/// /2204 10078 20062 40039 56027 91750 22200 00077 10802 20401 3//// 40801 70008 333 91205 555 11044 22047 31745 42205 61749 218042 212040 210039 210038 218035 221031;
0245992760999992012010719004+42700-068300FM-18+0000DB276V0202501N004019999999N9999999N1+00781+00631100401ADDMD1610191+9999OA159900501SA1+0779REMSYN200BBXX  44005 07191 99432 70691 46/// /2504 10078 20063 40040 56019 91850 22200 00077 10802 20401 3//// 40802 70008 333 91205 555 11040 22042 31804 42306 61849 250037 245040 236042 227045 225046 218040;
0245992760999992012010720004+42700-068300FM-18+0000DB276V0202501N003019999999N9999999N1+00781+00621100411ADDMD1610041+9999OA159900401SA1+0779REMSYN200BBXX  44005 07201 99432 70691 46/// /2503 10078 20062 40041 56004 91950 22200 00077 10702 20401 3//// 40702 70008 333 91204 555 11032 22035 31856 42404 61949 248030 254031 243034 244033 237035 241036;
0245992760999992012010721004+42700-068300FM-18+0000DB276V0202401N005019999999N9999999N1+00751+00611100421ADDMD1210031+9999OA159900601SA1+0779REMSYN200BBXX  44005 07211 99432 70691 46/// /2405 10075 20061 40042 52003 92050 22200 00077 10702 20401 3//// 40702 70008 333 91206 555 11051 22053 32034 42406 62049 237048 235044 234046 231044 234041 239039;
0245992760999992012010722004+42700-068300FM-18+0000DB276V0202601N005019999999N9999999N1+00741+00591100471ADDMD1310071+9999OA159900601SA1+0779REMSYN200BBXX  44005 07221 99432 70691 46/// /2605 10074 20059 40047 53007 92150 22200 00077 10802 20501 3//// 40802 70009 333 91206 555 11057 22060 32126 42507 62149 253054 248052 246054 248050 243049 244048;
0245992760999992012010723004+42700-068300FM-18+0000DB276V0202901N005019999999N9999999N1+00711+00661100551ADDMD1310141+9999OA159900601SA1+0779REMSYN200BBXX  44005 07231 99432 70691 46/// /2905 10071 20066 40055 53014 92250 22200 00077 10802 20501 3//// 40802 70009 333 91206 555 11054 22056 32229 42806 62249 284051 281052 272054 272053 259052 253054;
0245992760999992012010800004+42700-068300FM-18+0000DB276V0202901N005019999999N9999999N1+00661+00621100621ADDMD1310201+9999OA159900601SA1+0779REMSYN200BBXX  44005 08001 99432 70691 46/// /2905 10066 20062 40062 53020 92350 22200 00077 10902 20401 3//// 40901 70009 333 91206 555 11054 22056 32256 42906 62349 295051 294053 295051 290055 286054 289054;
0245992760999992012010801004+42700-068300FM-18+0000DB276V0202701N005019999999N9999999N1+00681+00631100641ADDMD1110171+9999OA159900501SA1+0779REMSYN200BBXX  44005 08011 99432 70691 46/// /2705 10068 20063 40064 51017 90050 22200 00077 10802 20401 3//// 40801 70008 333 91205 555 11047 22049 30027 42806 60049 271045 269048 275050 276048 282045 294047;
0245992760999992012010802004+42700-068300FM-18+0000DB276V0202701N005019999999N9999999N1+00721+00601100711ADDMD1210161+9999OA159900701SA1+0779REMSYN200BBXX  44005 08021 99432 70691 46/// /2705 10072 20060 40071 52016 90150 22200 00077 10902 20401 3//// 40901 70008 333 91207 555 11057 22060 30124 42607 60149 272055 273051 262055 256052 263053 271048;
0245992760999992012010803004+42700-068300FM-18+0000DB276V0202701N006019999999N9999999N1+00761+00541100761ADDMD1310141+9999OA159900701SA1+0779REMSYN200BBXX  44005 08031 99432 70691 46/// /2706 10076 20054 40076 53014 90250 22200 00077 10802 20501 3//// 40801 70008 333 91207 555 11063 22067 30221 42807 60249 270060 271060 273061 273055 270059 274056;
0245992760999992012010804004+42700-068300FM-18+0000DB276V0202701N007019999999N9999999N1+00811+00501100811ADDMD1110171+9999OA159900801SA1+0779REMSYN200BBXX  44005 08041 99432 70691 46/// /2707 10081 20050 40081 51017 90350 22200 00077 10902 20501 3//// 40901 70009 333 91208 555 11076 22082 30327 42709 60349 266071 270070 273073 276069 275065 269064;
0245992760999992012010805004+42700-068300FM-18+0000DB276V0202701N008019999999N9999999N1+00791+00411100831ADDMD1110121+9999OA159900901SA1+0779REMSYN200BBXX  44005 08051 99432 70691 46/// /2708 10079 20041 40083 51012 90450 22200 00077 10802 20601 3//// 40801 70010 333 91209 555 11086 22092 30442 42709 60449 270079 265071 266073 266074 267072 267070;
0245992760999992012010806004+42700-068300FM-18+0000DB276V0203101N010019999999N9999999N1+00761+00361100911ADDMD1310151+9999OA159901301SA1+0779REMSYN200BBXX  44005 08061 99432 70691 46/// /3110 10076 20036 40091 53015 90550 22200 00077 10802 20402 3//// 40801 70010 333 91213 555 11106 22113 30541 43013 60549 304102 283094 273090 273090 274081 274081;
0245992760999992012010807004+42700-068300FM-18+0000DB276V0203101N008019999999N9999999N1+00671+00331101031ADDMD1310221+9999OA159900901SA1+0769REMSYN200BBXX  44005 08071 99432 70691 46/// /3108 10067 20033 40103 53022 90650 22200 00076 10802 20402 3//// 40801 70011 333 91209 555 11081 22085 30602 43111 60649 305075 304079 305084 302087 305091 313093;
0245992760999992012010808004+42700-068300FM-18+0000DB276V0203001N006019999999N9999999N1+00601+00291101151ADDMD1310321+9999OA159900701SA1+0769REMSYN200BBXX  44005 08081 99432 70691 46/// /3006 10060 20029 40115 53032 90750 22200 00076 10803 20502 3//// 40802 70013 333 91207 555 11067 22070 30654 43209 60749 305064 314064 312063 313062 314065 308075;
0245992760999992012010809004+42700-068300FM-18+0000DB276V0203001N007019999999N9999999N1+00641+00261101191ADDMD1110281+9999OA159900801SA1+0769REMSYN200BBXX  44005 08091 99432 70691 46/// /3007 10064 20026 40119 51028 90850 22200 00076 10503 20502 3//// 40801 70013 333 91208 555 11069 22072 30817 43108 60849 303065 301059 307062 310067 311067 307061;
0245992760999992012010810004+42700-068300FM-18+0000DB276V0203001N005019999999N9999999N1+00661+00231101271ADDMD1110241+9999OA159900601SA1+0769REMSYN200BBXX  44005 08101 99432 70691 46/// /3005 10066 20023 40127 51024 90950 22200 00076 10903 20501 3//// 40902 70013 333 91206 555 11056 22058 30854 43107 60949 301054 306057 307060 303055 308058 310063;
0245992760999992012010811004+42700-068300FM-18+0000DB276V0202901N006019999999N9999999N1+00671+00241101351ADDMD1310201+9999OA159900701SA1+0769REMSYN200BBXX  44005 08111 99432 70691 46/// /2906 10067 20024 40135 53020 91050 22200 00076 10503 20502 3//// 40802 70013 333 91207 555 11060 22063 31045 42907 61049 285056 289053 291053 286053 293055 294052;
0245992760999992012010812004+42700-068300FM-18+0000DB276V0203001N009019999999N9999999N1+00691+00091101411ADDMD1110221+9999OA159901001SA1+0769REMSYN200BBXX  44005 08121 99432 70691 46/// /3009 10069 20009 40141 51022 91150 22200 00076 10503 20502 3//// 40801 70013 333 91210 555 11095 22100 31118 42911 61149 300090 295090 295093 292076 291058 282058;
0245992760999992012010813004+42700-068300FM-18+0000DB276V0202901N009019999999N9999999N1+00661+00031101501ADDMD1310231+9999OA159901001SA1+0779REMSYN200BBXX  44005 08131 99432 70691 46/// /2909 10066 20003 40150 53023 91250 22200 00077 10503 20502 3//// 40801 70013 333 91210 555 11094 22099 31205 42911 61249 290088 292085 293089 294091 292093 297089;
0245992760999992012010814004+42700-068300FM-18+0000DB276V0203201N007019999999N9999999N1+00581+00051101641ADDMD1310291+9999OA159900801SA1+0779REMSYN200BBXX  44005 08141 99432 70691 46/// /3207 10058 20005 40164 53029 91350 22200 00077 10502 20502 3//// 40901 70012 333 91208 555 11072 22075 31255 42910 61349 315068 311067 303071 310070 319073 297080;
0245992760999992012010815004+42700-068300FM-18+0000DB276V0203301N008019999999N9999999N1+00521-00171101751ADDMD1310341+9999OA159900901SA1+0769REMSYN200BBXX  44005 08151 99432 70691 46/// /3308 10052 21017 40175 53034 91450 22200 00076 10902 20502 3//// 40901 70011 333 91209 555 11081 22085 31433 43310 61449 332078 328079 326068 328070 328070 321065;
0245992760999992012010816004+42700-068300FM-18+0000DB276V0203401N006019999999N9999999N1+00471-00231101731ADDMD1110231+9999OA159900701SA1+0769REMSYN200BBXX  44005 08161 99432 70691 46/// /3406 10047 21023 40173 51023 91550 22200 00076 10502 20502 3//// 40901 70012 333 91207 555 11063 22065 31515 43409 61549 339061 329063 332066 331070 329068 331075;
0245992760999992012010817004+42700-068300FM-18+0000DB276V0203301N006019999999N9999999N1+00421-00291101741ADDMD1110101+9999OA159900701SA1+0769REMSYN200BBXX  44005 08171 99432 70691 46/// /3306 10042 21029 40174 51010 91650 22200 00076 10902 20502 3//// 40902 70012 333 91207 555 11057 22059 31614 43508 61649 334055 336055 343060 345063 335063 348060;
0245992760999992012010818004+42700-068300FM-18+0000DB276V0203201N006019999999N9999999N1+00411-00321101771ADDMD1510001+9999OA159900701SA1+0769REMSYN200BBXX  44005 08181 99432 70691 46/// /3206 10041 21032 40177 55000 91750 22200 00076 10902 20502 3//// 40902 70012 333 91207 555 11064 22066 31738 43108 61749 322061 322059 325058 325057 327059 327053;
0245992760999992012010819004+42700-068300FM-18+0000DB276V0203301N005019999999N9999999N1+00411-00331101791ADDMD1210061+9999OA159900701SA1+0769REMSYN200BBXX  44005 08191 99432 70691 46/// /3305 10041 21033 40179 52006 91850 22200 00076 10902 20502 3//// 40902 70012 333 91207 555 11056 22058 31839 43308 61849 324055 321057 322058 323053 322057 323057;
0245992760999992012010820004+42700-068300FM-18+0000DB276V0203201N005019999999N9999999N1+00441-00321101841ADDMD1310101+9999OA159900601SA1+0779REMSYN200BBXX  44005 08201 99432 70691 46/// /3205 10044 21032 40184 53010 91950 22200 00077 10903 20401 3//// 40902 70013 333 91206 555 11050 22052 31922 43007 61949 314049 304052 301051 312055 314052 321054;
0245992760999992012010821004+42700-068300FM-18+0000DB276V0202701N007019999999N9999999N1+00481-00221101891ADDMD1310121+9999OA159901001SA1+0769REMSYN200BBXX  44005 08211 99432 70691 46/// /2707 10048 21022 40189 53012 92050 22200 00076 10802 20402 3//// 40802 70012 333 91210 555 11076 22079 32048 42810 62049 274069 267058 274044 281046 289041 293046;
0245992760999992012010822004+42700-068300FM-18+0000DB276V0203001N008019999999N9999999N1+00471-00361101971ADDMD1310181+9999OA159901001SA1+0769REMSYN200BBXX  44005 08221 99432 70691 46/// /3008 10047 21036 40197 53018 92150 22200 00076 10902 20502 3//// 40902 70012 333 91210 555 11084 22088 32118 42913 62149 295082 289105 283103 285102 284093 288088;
0245992760999992012010823004+42700-068300FM-18+0000DB276V0202901N009019999999N9999999N1+00411-00301102051ADDMD1310211+9999OA159901001SA1+0769REMSYN200BBXX  44005 08231 99432 70691 46/// /2909 10041 21030 40205 53021 92250 22200 00076 10903 20402 3//// 40902 70013 333 91210 555 11094 22099 32157 42911 62249 292089 292085 295085 302089 302086 299082;
0245992760999992012010900004+42700-068300FM-18+0000DB276V0202901N009019999999N9999999N1+00371-00431102091ADDMD1110201+9999OA159901101SA1+0769REMSYN200BBXX  44005 09001 99432 70691 46/// /2909 10037 21043 40209 51020 92350 22200 00076 10503 20503 3//// 40901 70014 333 91211 555 11095 22100 32331 42912 62349 288092 293092 289093 290088 290092 291089;
0245992760999992012010901004+42700-068300FM-18+0000DB276V0203201N008019999999N9999999N1+00311-00451102161ADDMD1110191+9999OA159901101SA1+0769REMSYN200BBXX  44005 09011 99432 70691 46/// /3208 10031 21045 40216 51019 90050 22200 00076 10603 20603 3//// 40901 70015 333 91211 555 11084 22088 30041 43411 60049 318079 321081 319079 329069 315069 294083;
0245992760999992012010902004+42700-068300FM-18+0000DB276V0203301N007019999999N9999999N1+00221-00621102191ADDMD1110141+9999OA159901001SA1+0769REMSYN200BBXX  44005 09021 99432 70691 46/// /3307 10022 21062 40219 51014 90150 22200 00076 10603 20603 3//// 41001 70015 333 91210 555 11076 22079 30051 43111 60149 330072 322074 334079 332078 320074 313088;
0245992760999992012010903004+42700-068300FM-18+0000DB276V0203301N007019999999N9999999N1+00171-00661102201ADDMD1110111+9999OA159900801SA1+0769REMSYN200BBXX  44005 09031 99432 70691 46/// /3307 10017 21066 40220 51011 90250 22200 00076 10503 20502 3//// 41001 70013 333 91208 555 11068 22070 30214 43409 60249 333066 337065 328062 337066 331065 327072;
0245992760999992012010904004+42700-068300FM-18+0000DB276V0203501N007019999999N9999999N1+00121-00641102211ADDMD1110051+9999OA159900901SA1+0769REMSYN200BBXX  44005 09041 99432 70691 46/// /3507 10012 21064 40221 51005 90350 22200 00076 10502 20502 3//// 40901 70012 333 91209 555 11071 22074 30300 43310 60349 345068 341069 346071 334069 335071 332069;
0245992760999992012010905004+42700-068300FM-18+0000DB276V0203201N008019999999N9999999N1+00101-00731102231ADDMD1210041+9999OA159901001SA1+0769REMSYN200BBXX  44005 09051 99432 70691 46/// /3208 10010 21073 40223 52004 90450 22200 00076 10502 20502 3//// 41001 70012 333 91210 555 11080 22083 30438 43211 60449 323077 326077 326084 338079 341076 341073;
0245992760999992012010906004+42700-068300FM-18+0000DB276V0203301N009019999999N9999999N1+00011-00671102261ADDMD1310061+9999OA159901101SA1+0769REMSYN200BBXX  44005 09061 99432 70691 46/// /3309 10001 21067 40226 53006 90550 22200 00076 10502 20502 3//// 40901 70012 333 91211 555 11092 22096 30539 43312 60549 329089 329092 331091 327086 330086 321077;
0245992760999992012010907004+42700-068300FM-18+0000DB276V0203301N007019999999N9999999N1-00021-00721102301ADDMD1310091+9999OA159901001SA1+0759REMSYN200BBXX  44005 09071 99432 70691 46/// /3307 11002 21072 40230 53009 90650 22200 00075 10402 20402 3//// 40901 70012 333 91210 555 11077 22080 30604 43411 60649 333074 328073 323074 326076 332081 327079;
0245992760999992012010908004+42700-068300FM-18+0000DB276V0203301N007019999999N9999999N1-00061-00751102351ADDMD1310121+9999OA159900901SA1+0759REMSYN200BBXX  44005 09081 99432 70691 46/// /3307 11006 21075 40235 53012 90750 22200 00075 10802 20402 3//// 40801 70010 333 91209 555 11070 22072 30716 43410 60749 330067 330072 329066 328071 343071 333070;
0245992760999992012010909004+42700-068300FM-18+0000DB276V0203401N007019999999N9999999N1-00071-00731102331ADDMD1110071+9999OA159900901SA1+0759REMSYN200BBXX  44005 09091 99432 70691 46/// /3407 11007 21073 40233 51007 90850 22200 00075 10802 20402 3//// 40801 70011 333 91209 555 11070 22072 30845 43409 60849 335066 333065 337058 344061 334068 338071;
0245992760999992012010910004+42700-068300FM-18+0000DB276V0203301N007019999999N9999999N1-00121-00731102391ADDMD1310091+9999OA159900901SA1+0759REMSYN200BBXX  44005 09101 99432 70691 46/// /3307 11012 21073 40239 53009 90950 22200 00075 10802 20402 3//// 40801 70010 333 91209 555 11069 22071 30947 43509 60949 332067 337072 335066 333071 331073 332065;
0245992760999992012010911004+42700-068300FM-18+0000DB276V0203301N007019999999N9999999N1-00171-00821102421ADDMD1310071+9999OA159900901SA1+0749REMSYN200BBXX  44005 09111 99432 70691 46/// /3307 11017 21082 40242 53007 91050 22200 00074 10402 20402 3//// 40901 70010 333 91209 555 11068 22070 31017 43410 61049 336065 341069 340069 326070 339069 326068;
0245992760999992012010912004+42700-068300FM-18+0000DB276V0203401N006019999999N9999999N1-00181-00851102441ADDMD1110111+9999OA159900801SA1+0759REMSYN200BBXX  44005 09121 99432 70691 46/// /3406 11018 21085 40244 51011 91150 22200 00075 10902 20402 3//// 40901 70010 333 91208 555 11059 22061 31103 43509 61149 338056 336053 344051 348055 338061 338061;
0245992760999992012010913004+42700-068300FM-18+0000DB276V0203501N005019999999N9999999N1-00181-00861102451ADDMD1110061+9999OA159900701SA1+0759REMSYN200BBXX  44005 09131 99432 70691 46/// /3505 11018 21086 40245 51006 91250 22200 00075 10402 20401 3//// 40901 70009 333 91207 555 11056 22058 31205 43508 61249 351053 346053 344058 336058 340060 340057;
0245992760999992012010914004+42700-068300FM-18+0000DB276V0203501N004019999999N9999999N1-00151-00791102471ADDMD1210051+9999OA159900501SA1+0759REMSYN200BBXX  44005 09141 99432 70691 46/// /3504 11015 21079 40247 52005 91350 22200 00075 10902 20301 3//// 40901 70008 333 91205 555 11040 22041 31316 43307 61349 346040 341042 347047 341052 355046 352048;
0245992760999992012010915004+42700-068300FM-18+0000DB276V0203001N002019999999N9999999N1-00141-00851102471ADDMD1210031+9999OA159900401SA1+0759REMSYN200BBXX  44005 09151 99432 70691 46/// /3002 11014 21085 40247 52003 91450 22200 00075 10401 20401 3//// 41001 70007 333 91204 555 11025 22025 31353 40105 61449 302022 325019 352022 338026 351030 346035;
0245992760999992012010916004+42700-068300FM-18+0000DB276V0203001N003019999999N9999999N1-00131-00991102401ADDMD1810051+9999OA159900501SA1+0759REMSYN200BBXX  44005 09161 99432 70691 46/// /3003 11013 21099 40240 58005 91550 22200 00075 10801 20401 3//// 40801 70007 333 91205 555 11027 22027 31547 43105 61549 299026 321024 303022 308025 319025 292021;
0245992760999992012010917004+42700-068300FM-18+0000DB276V0202901N003019999999N9999999N1-00091-01081102311ADDMD1810161+9999OA159900401SA1+0759REMSYN200BBXX  44005 09171 99432 70691 46/// /2903 11009 21108 40231 58016 91650 22200 00075 10901 20401 3//// 40901 70006 333 91204 555 11027 22027 31555 43004 61649 293025 301020 311029 295027 294027 295027;
0245992760999992012010918004+42700-068300FM-18+0000DB276V0202301N002019999999N9999999N1-00041-01011102211ADDMD1810261+9999OA159900301SA1+0759REMSYN200BBXX  44005 09181 99432 70691 46/// /2302 11004 21101 40221 58026 91750 22200 00075 10901 20301 3//// 40901 70006 333 91203 555 11019 22020 31720 42704 61749 229018 251023 253018 279018 280018 286022;
0245992760999992012010919004+42700-068300FM-18+0000DB276V0202301N004019999999N9999999N1+00001-00861102131ADDMD1610271+9999OA159900601SA1+0769REMSYN200BBXX  44005 09191 99432 70691 46/// /2304 10000 21086 40213 56027 91850 22200 00076 10801 20301 3//// 40801 70006 333 91206 555 11039 22040 31839 42406 61849 233038 222037 231034 233035 242026 241023;
0245992760999992012010920004+42700-068300FM-18+0000DB276V0202201N005019999999N9999999N1+00071-00641102091ADDMD1610221+9999OA159900801SA1+0759REMSYN200BBXX  44005 09201 99432 70691 46/// /2205 10007 21064 40209 56022 91950 22200 00075 10801 20401 3//// 40801 70006 333 91208 555 11051 22052 31943 42208 61949 218049 216044 207041 218040 223044 216038;
0245992760999992012010921004+42700-068300FM-18+0000DB276V0202201N005019999999N9999999N1+00141-00621102051ADDMD1610161+9999OA159900701SA1+0759REMSYN200BBXX  44005 09211 99432 70691 46/// /2205 10014 21062 40205 56016 92050 22200 00075 10801 20401 3//// 40801 70006 333 91207 555 11053 22055 32035 42307 62049 218052 222053 215051 220053 222049 213043;
0245992760999992012010922004+42700-068300FM-18+0000DB276V0202201N007019999999N9999999N1+00211-00631102011ADDMD1710121+9999OA159900901SA1+0749REMSYN200BBXX  44005 09221 99432 70691 46/// /2207 10021 21063 40201 57012 92150 22200 00074 10801 20301 3//// 40801 70006 333 91209 555 11076 22079 32149 42309 62149 224072 216069 222067 215066 214061 222059;
0245992760999992012010923004+42700-068300FM-18+0000DB276V0202201N008019999999N9999999N1+00261-00681101961ADDMD1810131+9999OA159900901SA1+0749REMSYN200BBXX  44005 09231 99432 70691 46/// /2208 10026 21068 40196 58013 92250 22200 00074 10801 20301 3//// 40801 70007 333 91209 555 11080 22083 32234 42211 62249 218078 219080 214074 218071 217071 221068;
0245992760999992012011000004+42700-068300FM-18+0000DB276V0202201N009019999999N9999999N1+00341-00561101921ADDMD1710131+9999OA159901001SA1+0749REMSYN200BBXX  44005 10001 99432 70691 46/// /2209 10034 21056 40192 57013 92350 22200 00074 10402 20402 3//// 40701 70008 333 91210 555 11091 22095 32335 42311 62349 223088 226094 221083 225087 225084 224078;
0245992760999992012011001004+42700-068300FM-18+0000DB276V0202301N008019999999N9999999N1+00371-00511101851ADDMD1810161+9999OA159901001SA1+0749REMSYN200BBXX  44005 10011 99432 70691 46/// /2308 10037 21051 40185 58016 90050 22200 00074 10402 20402 3//// 40901 70011 333 91210 555 11088 22092 30005 42212 60049 227084 227090 233091 227091 227094 227086;
0245992760999992012011002004+42700-068300FM-18+0000DB276V0202201N009019999999N9999999N1+00431-00281101761ADDMD1810201+9999OA159901101SA1+0749REMSYN200BBXX  44005 10021 99432 70691 46/// /2209 10043 21028 40176 58020 90150 22200 00074 10502 20502 3//// 40801 70012 333 91211 555 11097 22102 30127 42312 60149 218092 213093 225090 229086 225091 223086;
0245992760999992012011003004+42700-068300FM-18+0000DB276V0202301N009019999999N9999999N1+00481-00361101681ADDMD1810241+9999OA159901101SA1+0749REMSYN200BBXX  44005 10031 99432 70691 46/// /2309 10048 21036 40168 58024 90250 22200 00074 10502 20502 3//// 40901 70012 333 91211 555 11095 22100 30234 42312 60249 228091 226093 230094 226097 223094 217090;
0233992760999992012011004004+42700-068300FM-18+0000DB276V0202301N009019999999N9999999N1+00491-00351101581ADDMD1810271+9999OA159901101SA1+0749REMSYN188BBXX  44005 10041 99432 70691 46/// /2309 10049 21035 40158 58027 90350 22200 00074 10503 20503 70015 333 91211 555 11091 22096 30306 42512 60349 229086 229082 236080 238083 240096 232094;
0233992760999992012011005004+42700-068300FM-18+0000DB276V0202301N009019999999N9999999N1+00471-00281101481ADDMD1810281+9999OA159901001SA1+0749REMSYN188BBXX  44005 10051 99432 70691 46/// /2309 10047 21028 40148 58028 90450 22200 00074 10503 20503 70015 333 91210 555 11095 22100 30410 42311 60449 231090 227093 231091 231092 227091 230089;
0233992760999992012011006004+42700-068300FM-18+0000DB276V0202401N009019999999N9999999N1+00481-00411101381ADDMD1710301+9999OA159901101SA1+0749REMSYN188BBXX  44005 10061 99432 70691 46/// /2409 10048 21041 40138 57030 90550 22200 00074 10603 20603 70016 333 91211 555 11100 22105 30535 42412 60549 236095 231095 235096 231095 232093 233094;
0233992760999992012011007004+42700-068300FM-18+0000DB276V0202301N009019999999N9999999N1+00481-00351101331ADDMD1610251+9999OA159901101SA1+0749REMSYN188BBXX  44005 10071 99432 70691 46/// /2309 10048 21035 40133 56025 90650 22200 00074 10603 20603 70017 333 91211 555 11098 22102 30602 42412 60649 228091 231092 232091 232092 236096 234096;
0233992760999992012011008004+42700-068300FM-18+0000DB276V0202301N009019999999N9999999N1+00471-00191101281ADDMD1610201+9999OA159901101SA1+0759REMSYN188BBXX  44005 10081 99432 70691 46/// /2309 10047 21019 40128 56020 90750 22200 00075 10604 20604 70018 333 91211 555 11096 22101 30709 42311 60749 227090 224089 228086 227089 232091 233093;
0233992760999992012011009004+42700-068300FM-18+0000DB276V0202201N009019999999N9999999N1+00491-00131101181ADDMD1810201+9999OA159901101SA1+0749REMSYN188BBXX  44005 10091 99432 70691 46/// /2209 10049 21013 40118 58020 90850 22200 00074 10603 20603 70017 333 91211 555 11095 22100 30807 42212 60849 215089 223089 222087 225091 226095 222092;
0233992760999992012011010004+42700-068300FM-18+0000DB276V0202201N009019999999N9999999N1+00481-00171101131ADDMD1710201+9999OA159901101SA1+0749REMSYN188BBXX  44005 10101 99432 70691 46/// /2209 10048 21017 40113 57020 90950 22200 00074 10603 20603 70015 333 91211 555 11096 22101 30924 42111 60949 220092 218088 217091 217088 215083 217088;
0233992760999992012011011004+42700-068300FM-18+0000DB276V0202101N009019999999N9999999N1+00521-00251101041ADDMD1610241+9999OA159901001SA1+0749REMSYN188BBXX  44005 10111 99432 70691 46/// /2109 10052 21025 40104 56024 91050 22200 00074 10603 20603 70015 333 91210 555 11093 22098 31013 42212 61049 209085 209086 221091 219097 220090 219090;
0233992760999992012011012004+42700-068300FM-18+0000DB276V0202101N009019999999N9999999N1+00541-00231100961ADDMD1810221+9999OA159901001SA1+0749REMSYN188BBXX  44005 10121 99432 70691 46/// /2109 10054 21023 40096 58022 91150 22200 00074 10603 20603 70013 333 91210 555 11093 22098 31126 42111 61149 208088 208090 210089 208086 209082 209086;
0233992760999992012011013004+42700-068300FM-18+0000DB276V0202201N010019999999N9999999N1+00471-00151100891ADDMD1610241+9999OA159901201SA1+0749REMSYN188BBXX  44005 10131 99432 70691 46/// /2210 10047 21015 40089 56024 91250 22200 00074 10603 20603 70014 333 91212 555 11104 22109 31206 42212 61249 219098 228090 211093 217091 217095 209091;
0233992760999992012011014004+42700-068300FM-18+0000DB276V0202101N010019999999N9999999N1+00511-00181100851ADDMD1610191+9999OA159901301SA1+0749REMSYN188BBXX  44005 10141 99432 70691 46/// /2110 10051 21018 40085 56019 91350 22200 00074 10603 20603 70014 333 91213 555 11111 22117 31347 42113 61349 208104 211104 210100 213096 215094 216096;
0233992760999992012011015004+42700-068300FM-18+0000DB276V0202201N011019999999N9999999N1+00531-00111100881ADDMD1510081+9999OA159901301SA1+0759REMSYN188BBXX  44005 10151 99432 70691 46/// /2211 10053 21011 40088 55008 91450 22200 00075 10603 20603 70015 333 91213 555 11113 22119 31437 42213 61449 222106 218109 216106 212105 209103 207106;
0233992760999992012011016004+42700-068300FM-18+0000DB276V0202301N010019999999N9999999N1+00431+00211100771ADDMD1810121+9999OA159901101SA1+0759REMSYN188BBXX  44005 10161 99432 70691 46/// /2310 10043 20021 40077 58012 91550 22200 00075 10603 20603 70017 333 91211 555 11101 22106 31525 42215 61549 229098 220095 217118 220106 223107 221107;
0233992760999992012011017004+42700-068300FM-18+0000DB276V0202401N010019999999N9999999N1+00481+00021100621ADDMD1810231+9999OA159901201SA1+0759REMSYN188BBXX  44005 10171 99432 70691 46/// /2410 10048 20002 40062 58023 91650 22200 00075 10603 20603 70016 333 91212 555 11106 22112 31614 42412 61649 236099 238104 243101 239101 229095 227103;
0233992760999992012011018004+42700-068300FM-18+0000DB276V0202501N010019999999N9999999N1+00501+00001100541ADDMD1610341+9999OA159901201SA1+0759REMSYN188BBXX  44005 10181 99432 70691 46/// /2510 10050 20000 40054 56034 91750 22200 00075 10603 20603 70015 333 91212 555 11111 22116 31740 42513 61749 250105 243098 242101 234093 235090 233096;
0233992760999992012011019004+42700-068300FM-18+0000DB276V0202601N010019999999N9999999N1+00491-00021100521ADDMD1610251+9999OA159901201SA1+0759REMSYN188BBXX  44005 10191 99432 70691 46/// /2610 10049 21002 40052 56025 91850 22200 00075 10603 20603 70015 333 91212 555 11106 22112 31756 42513 61849 260101 261100 261104 255100 250099 253105;
0233992760999992012011020004+42700-068300FM-18+0000DB276V0202701N010019999999N9999999N1+00531-00061100531ADDMD1610091+9999OA159901201SA1+0759REMSYN188BBXX  44005 10201 99432 70691 46/// /2710 10053 21006 40053 56009 91950 22200 00075 10603 20603 70014 333 91212 555 11107 22113 31939 42812 61949 273101 268100 265097 264094 261095 259093;
0233992760999992012011021004+42700-068300FM-18+0000DB276V0202801N009019999999N9999999N1+00521-00091100601ADDMD1310061+9999OA159901001SA1+0749REMSYN188BBXX  44005 10211 99432 70691 46/// /2809 10052 21009 40060 53006 92050 22200 00074 10503 20503 70014 333 91210 555 11092 22097 32026 42812 62049 281086 280093 278091 277094 278093 276096;
0233992760999992012011022004+42700-068300FM-18+0000DB276V0202901N008019999999N9999999N1+00571-00031100661ADDMD1310141+9999OA159901001SA1+0749REMSYN188BBXX  44005 10221 99432 70691 46/// /2908 10057 21003 40066 53014 92150 22200 00074 10502 20502 70012 333 91210 555 11087 22091 32100 42811 62149 292081 289077 290083 292086 291090 283088;
0233992760999992012011023004+42700-068300FM-18+0000DB276V0202901N010019999999N9999999N1+00601-00111100781ADDMD1310251+9999OA159901201SA1+0739REMSYN188BBXX  44005 10231 99432 70691 46/// /2910 10060 21011 40078 53025 92250 22200 00073 10502 20502 70012 333 91212 555 11109 22115 32237 42913 62249 291101 296102 299097 294102 292098 289093;
0233992760999992012011100004+42700-068300FM-18+0000DB276V0203001N009019999999N9999999N1+00571-00091100891ADDMD1310291+9999OA159901001SA1+0739REMSYN188BBXX  44005 11001 99432 70691 46/// /3009 10057 21009 40089 53029 92350 22200 00073 10502 20502 70012 333 91210 555 11092 22097 32259 43013 62349 297088 301093 299095 295097 297103 292106;
0233992760999992012011101004+42700-068300FM-18+0000DB276V0203101N008019999999N9999999N1+00561-00161100901ADDMD1110241+9999OA159900901SA1+0739REMSYN188BBXX  44005 11011 99432 70691 46/// /3108 10056 21016 40090 51024 90050 22200 00073 10502 20502 70011 333 91209 555 11079 22083 30031 43011 60049 306075 303081 298086 299086 297086 298087;
0233992760999992012011102004+42700-068300FM-18+0000DB276V0203001N008019999999N9999999N1+00551-00261100921ADDMD1110141+9999OA159901001SA1+0739REMSYN188BBXX  44005 11021 99432 70691 46/// /3008 10055 21026 40092 51014 90150 22200 00073 10502 20502 70012 333 91210 555 11086 22090 30146 43010 60149 300081 301080 302075 302081 302080 299082;
0233992760999992012011103004+42700-068300FM-18+0000DB276V0203001N009019999999N9999999N1+00551-00291100981ADDMD1310091+9999OA159901001SA1+0749REMSYN188BBXX  44005 11031 99432 70691 46/// /3009 10055 21029 40098 53009 90250 22200 00074 10503 20503 70013 333 91210 555 11092 22097 30224 42911 60249 299086 295090 294088 291083 295084 295085;
0233992760999992012011104004+42700-068300FM-18+0000DB276V0203001N009019999999N9999999N1+00531-00271101011ADDMD1310111+9999OA159901101SA1+0739REMSYN188BBXX  44005 11041 99432 70691 46/// /3009 10053 21027 40101 53011 90350 22200 00073 10503 20503 70013 333 91211 555 11093 22098 30300 43011 60349 295089 295092 293087 291089 296084 300081;
0233992760999992012011105004+42700-068300FM-18+0000DB276V0203301N010019999999N9999999N1+00371-00391101071ADDMD1210151+9999OA159901201SA1+0739REMSYN188BBXX  44005 11051 99432 70691 46/// /3310 10037 21039 40107 52015 90450 22200 00073 10502 20502 70012 333 91212 555 11105 22110 30433 43312 60449 332099 334098 334099 333097 304088 300093;
0233992760999992012011106004+42700-068300FM-18+0000DB276V0203401N010019999999N9999999N1+00281-00481101171ADDMD1310191+9999OA159901201SA1+0749REMSYN188BBXX  44005 11061 99432 70691 46/// /3410 10028 21048 40117 53019 90550 22200 00074 10503 20503 70014 333 91212 555 11109 22114 30457 43312 60549 336102 329098 332099 324096 331104 325105;
0233992760999992012011107004+42700-068300FM-18+0000DB276V0203401N010019999999N9999999N1+00231-00571101291ADDMD1310281+9999OA159901301SA1+0749REMSYN188BBXX  44005 11071 99432 70691 46/// /3410 10023 21057 40129 53028 90650 22200 00074 10603 20603 70014 333 91213 555 11110 22115 30608 43313 60649 336104 335101 333103 328106 327104 333101;
0233992760999992012011108004+42700-068300FM-18+0000DB276V0203401N011019999999N9999999N1+00151-00731101371ADDMD1110301+9999OA159901401SA1+0749REMSYN188BBXX  44005 11081 99432 70691 46/// /3411 10015 21073 40137 51030 90750 22200 00074 10503 20503 70016 333 91214 555 11114 22120 30747 43514 60749 339109 341106 338104 339110 340101 336101;
0233992760999992012011109004+42700-068300FM-18+0000DB276V0203501N011019999999N9999999N1+00121-00831101411ADDMD1110241+9999OA159901301SA1+0749REMSYN188BBXX  44005 11091 99432 70691 46/// /3511 10012 21083 40141 51024 90850 22200 00074 10504 20504 70018 333 91213 555 11116 22122 30843 43513 60849 346111 347112 343111 343113 342112 343107;
0233992760999992012011110004+42700-068300FM-18+0000DB276V0203601N011019999999N9999999N1+00051-00861101471ADDMD1110181+9999OA159901301SA1+0749REMSYN188BBXX  44005 11101 99432 70691 46/// /3611 10005 21086 40147 51018 90950 22200 00074 10604 20604 70018 333 91213 555 11121 22126 30927 43614 60949 359114 359111 001112 356112 350112 348107;
0233992760999992012011111004+42700-068300FM-18+0000DB276V0203601N011019999999N9999999N1+00011-00821101591ADDMD1310221+9999OA159901301SA1+0749REMSYN188BBXX  44005 11111 99432 70691 46/// /3611 10001 21082 40159 53022 91050 22200 00074 10503 20503 70016 333 91213 555 11113 22118 30951 40114 61049 001106 000109 002110 000108 000113 359113;
0233992760999992012011112004+42700-068300FM-18+0000DB276V0200101N009019999999N9999999N1-00091-00831101691ADDMD1310281+9999OA159901101SA1+0749REMSYN188BBXX  44005 11121 99432 70691 46/// /0109 11009 21083 40169 53028 91150 22200 00074 10504 20504 70018 333 91211 555 11097 22101 31052 43513 61149 009093 011097 014099 005101 359104 358105;
0233992760999992012011113004+42700-068300FM-18+0000DB276V0200101N009019999999N9999999N1-00141-00931101831ADDMD1310361+9999OA159901001SA1+0749REMSYN188BBXX  44005 11131 99432 70691 46/// /0109 11014 21093 40183 53036 91250 22200 00074 10603 20603 70017 333 91210 555 11090 22094 31214 40112 61249 008086 010086 007092 007096 007095 006092;
0233992760999992012011114004+42700-068300FM-18+0000DB276V0200201N008019999999N9999999N1-00191-00801101931ADDMD1210341+9999OA159901001SA1+0749REMSYN188BBXX  44005 11141 99432 70691 46/// /0208 11019 21080 40193 52034 91350 22200 00074 10503 20503 70015 333 91210 555 11085 22088 31321 40211 61349 020081 014088 017085 013089 011090 017090;
0245992760999992012011115004+42700-068300FM-18+0000DB276V0200201N007019999999N9999999N1-00221-00941102021ADDMD1110331+9999OA159900801SA1+0749REMSYN200BBXX  44005 11151 99432 70691 46/// /0207 11022 21094 40202 51033 91450 22200 00074 10603 20603 3//// 40901 70014 333 91208 555 11069 22071 31406 40210 61449 018065 009063 022070 018068 014080 013079;
0245992760999992012011116004+42700-068300FM-18+0000DB276V0200201N006019999999N9999999N1-00271-01051101991ADDMD1010161+9999OA159900801SA1+0749REMSYN200BBXX  44005 11161 99432 70691 46/// /0206 11027 21105 40199 50016 91550 22200 00074 10503 20502 3//// 40602 70015 333 91208 555 11063 22065 31506 40110 61549 019060 022067 029072 023071 021077 020073;
0245992760999992012011117004+42700-068300FM-18+0000DB276V0200201N005019999999N9999999N1-00321-01031102011ADDMD1110081+9999OA159900701SA1+0749REMSYN200BBXX  44005 11171 99432 70691 46/// /0205 11032 21103 40201 51008 91650 22200 00074 10503 20401 3//// 40502 70013 333 91207 555 11053 22054 31640 40108 61649 019053 018049 018046 019048 029055 024059;
0245992760999992012011118004+42700-068300FM-18+0000DB276V0200301N005019999999N9999999N1-00311-00981101991ADDMD1610031+9999OA159900801SA1+0749REMSYN200BBXX  44005 11181 99432 70691 46/// /0305 11031 21098 40199 56003 91750 22200 00074 10602 20401 3//// 40602 70012 333 91208 555 11056 22058 31746 40308 61749 028054 028050 020048 023048 025045 018046;
0245992760999992012011119004+42700-068300FM-18+0000DB276V0200501N005019999999N9999999N1-00291-00961101961ADDMD1810031+9999OA159900701SA1+0749REMSYN200BBXX  44005 11191 99432 70691 46/// /0505 11029 21096 40196 58003 91850 22200 00074 10502 20401 3//// 40502 70011 333 91207 555 11054 22055 31809 40508 61849 053052 044051 037047 047053 027050 033053;
0237992760999992012011120004+42700-068300FM-18+0000DB276V0200601N003019999999N9999999N1-00251-00961102111ADDMD1310101+9999OA159900501REMSYN200BBXX  44005 11201 99432 70691 46/// /0603 11025 21096 40211 53010 91950 22200 00074 10502 20301 3//// 40502 70010 333 91205 555 11026 22026 31900 40507 61949 058026 069031 069030 051041 053043 057050;
0237992760999992012011121004+42700-068300FM-18+0000DB276V0200501N003019999999N9999999N1-00241-01061102201ADDMD1310211+9999OA159900401REMSYN200BBXX  44005 11211 99432 70691 46/// /0503 11024 21106 40220 53021 92050 22200 00074 10502 20401 3//// 40501 70008 333 91204 555 11026 22026 32028 40504 62049 046022 054023 044024 030023 046018 096017;
0237992760999992012011122004+42700-068300FM-18+0000DB276V0200801N004019999999N9999999N1-00201-01011102191ADDMD1110231+9999OA159900501REMSYN200BBXX  44005 11221 99432 70691 46/// /0804 11020 21101 40219 51023 92150 22200 00074 10502 20301 3//// 40501 70008 333 91205 555 11038 22039 32140 40706 62149 076039 068038 064038 052038 048033 050034;
0237992760999992012011123004+42700-068300FM-18+0000DB276V0200801N005019999999N9999999N1-00161-00971102181ADDMD1110071+9999OA159900701REMSYN200BBXX  44005 11231 99432 70691 46/// /0805 11016 21097 40218 51007 92250 22200 00074 10502 20501 3//// 40501 70008 333 91207 555 11055 22057 32249 40707 62249 079053 078053 078049 085047 081044 079039;
0245992760999992012011200004+42700-068300FM-18+0000DB276V0200701N004019999999N9999999N1-00151-01041102231ADDMD1310031+9999OA159900501SA1+0739REMSYN200BBXX  44005 12001 99432 70691 46/// /0704 11015 21104 40223 53003 92350 22200 00073 10602 20401 3//// 40601 70008 333 91205 555 11042 22043 32256 40808 62349 073044 083047 081053 082053 079057 071060;
0237992760999992012011201004+42700-068300FM-18+0000DB276V0200901N005019999999N9999999N1-00101-01011102191ADDMD1010001+9999OA159900601REMSYN200BBXX  44005 12011 99432 70691 46/// /0905 11010 21101 40219 50000 90050 22200 00073 10501 20401 3//// 40501 70007 333 91206 555 11047 22048 30016 41007 60049 091044 095045 100041 092045 086046 081052;
0167992760999992012011202004+42700-068300FM-18+0000DB276V0201001N004019999999N9999999N1-00061-00941102161ADDMD1010001+9999OA159900601SA1+0729REMSYN122BBXX  44005 12021 99432 70691 46/// /1004 11006 21094 40216 50000 90150 22200 00072 333 91206 555 11042 22043 30141 40923;
0245992760999992012011203004+42700-068300FM-18+0000DB276V0201001N005019999999N9999999N1-00021-00961102151ADDMD1610081+9999OA159900601SA1+0729REMSYN200BBXX  44005 12031 99432 70691 46/// /1005 11002 21096 40215 56008 90250 22200 00072 10601 20301 3//// 40601 70006 333 91206 555 11051 22052 30227 40807 60249 098048 092051 085049 088047 102045 102043;
0245992760999992012011204004+42700-068300FM-18+0000DB276V0201201N005019999999N9999999N1+00021-00801102121ADDMD1710071+9999OA159900701SA1+0729REMSYN200BBXX  44005 12041 99432 70691 46/// /1205 10002 21080 40212 57007 90350 22200 00072 10601 20401 3//// 40601 70007 333 91207 555 11052 22053 30344 41107 60349 118051 106054 110045 119049 107047 102049;
0245992760999992012011205004+42700-068300FM-18+0000DB276V0201201N005019999999N9999999N1+00071-00701102071ADDMD1810091+9999OA159900601SA1+0729REMSYN200BBXX  44005 12051 99432 70691 46/// /1205 10007 21070 40207 58009 90450 22200 00072 10601 20501 3//// 40601 70006 333 91206 555 11054 22056 30405 41108 60449 121051 129054 114052 111054 115056 113047;
0245992760999992012011206004+42700-068300FM-18+0000DB276V0201101N006019999999N9999999N1+00101-00641102061ADDMD1610091+9999OA159900701SA1+0729REMSYN200BBXX  44005 12061 99432 70691 46/// /1106 10010 21064 40206 56009 90550 22200 00072 10501 20501 3//// 40601 70006 333 91207 555 11057 22059 30516 41208 60549 115053 113057 119052 116060 113055 125054;
0245992760999992012011207004+42700-068300FM-18+0000DB276V0201001N007019999999N9999999N1+00141-00551102011ADDMD1710111+9999OA159901101SA1+0729REMSYN200BBXX  44005 12071 99432 70691 46/// /1007 10014 21055 40201 57011 90650 22200 00072 10901 20501 3//// 40901 70006 333 91211 555 11070 22073 30647 41111 60649 101067 101062 114060 108059 119059 109053;
0245992760999992012011208004+42700-068300FM-18+0000DB276V0201001N007019999999N9999999N1+00171-00551101941ADDMD1810131+9999OA159900901SA1+0749REMSYN200BBXX  44005 12081 99432 70691 46/// /1007 10017 21055 40194 58013 90750 22200 00074 10301 20301 3//// 40901 70007 333 91209 555 11075 22078 30741 41109 60749 101074 097072 105066 103072 103071 111068;
0245992760999992012011209004+42700-068300FM-18+0000DB276V0200901N008019999999N9999999N1+00231-00411101861ADDMD1810201+9999OA159901101SA1+0749REMSYN200BBXX  44005 12091 99432 70691 46/// /0908 10023 21041 40186 58020 90850 22200 00074 10302 20301 3//// 40801 70008 333 91211 555 11088 22092 30831 40911 60849 088085 093084 098085 097080 102076 100073;
0245992760999992012011210004+42700-068300FM-18+0000DB276V0201001N010019999999N9999999N1+00251-00341101781ADDMD1810231+9999OA159901201SA1+0759REMSYN200BBXX  44005 12101 99432 70691 46/// /1010 10025 21034 40178 58023 90950 22200 00075 10402 20402 3//// 40801 70010 333 91212 555 11106 22111 30917 41013 60949 098099 092098 094094 091097 092093 097084;
0245992760999992012011211004+42700-068300FM-18+0000DB276V0201001N011019999999N9999999N1+00291-00251101771ADDMD1610171+9999OA159901301SA1+0759REMSYN200BBXX  44005 12111 99432 70691 46/// /1011 10029 21025 40177 56017 91050 22200 00075 10403 20402 3//// 40801 70013 333 91213 555 11111 22117 31024 40913 61049 097105 098106 093104 095103 093100 091100;
0233992760999992012011212004+42700-068300FM-18+0000DB276V0201001N011019999999N9999999N1+00331-00251101661ADDMD1810201+9999OA159901401SA1+0759REMSYN188BBXX  44005 12121 99432 70691 46/// /1011 10033 21025 40166 58020 91150 22200 00075 10503 20503 70016 333 91214 555 11120 22126 31105 40914 61149 100112 102112 099111 095116 096113 096108;
0233992760999992012011213004+42700-068300FM-18+0000DB276V0200901N013019999999N9999999N1+00251+00031101491ADDMD1810291+9999OA159901501SA1+0749REMSYN188BBXX  44005 12131 99432 70691 46/// /0913 10025 20003 40149 58029 91250 22200 00074 10603 20603 70017 333 91215 555 11136 22143 31231 41015 61249 094128 098123 101120 102119 101121 099118;
0233992760999992012011214004+42700-068300FM-18+0000DB276V0201001N014019999999N9999999N1+00321+00141101381ADDMD1710391+9999OA159901601SA1+0749REMSYN188BBXX  44005 12141 99432 70691 46/// /1014 10032 20014 40138 57039 91350 22200 00074 10604 20604 70022 333 91216 555 11147 22155 31339 41017 61349 100137 097133 096127 088122 088119 089123;
0233992760999992012011215004+42700-068300FM-18+0000DB276V0200901N015019999999N9999999N1+00371+00251101201ADDMD1810461+9999OA159901901SA1+0749REMSYN188BBXX  44005 12151 99432 70691 46/// /0915 10037 20025 40120 58046 91450 22200 00074 10606 20606 70028 333 91219 555 11156 22165 31446 40919 61449 091146 091140 094144 093139 095140 097134;
0233992760999992012011216004+42700-068300FM-18+0000DB276V0200901N015019999999N9999999N1+00391+00321100941ADDMD1810551+9999OA159901801SA1+0749REMSYN188BBXX  44005 12161 99432 70691 46/// /0915 10039 20032 40094 58055 91550 22200 00074 10706 20706 70032 333 91218 555 11159 22169 31521 41019 61549 088147 089151 089151 088148 088146 088147;
0233992760999992012011217004+42700-068300FM-18+0000DB276V0200801N016019999999N9999999N1+00381+00341100591ADDMD1810791+9999OA159902001SA1+0749REMSYN188BBXX  44005 12171 99432 70691 46/// /0816 10038 20034 40059 58079 91650 22200 00074 10808 20808 70038 333 91220 555 11172 22183 31630 40820 61649 080161 079157 083159 085156 082158 085148;
0233992760999992012011218004+42700-068300FM-18+0000DB276V0200801N016019999999N9999999N1+00421+00401100351ADDMD1610851+9999OA159902001SA1+0749REMSYN188BBXX  44005 12181 99432 70691 46/// /0816 10042 20040 40035 56085 91750 22200 00074 10808 20808 70042 333 91220 555 11176 22187 31711 40823 61749 077164 079175 077172 080173 079169 079162;
0233992760999992012011219004+42700-068300FM-18+0000DB276V0200801N017019999999N9999999N1+00451+00441100091ADDMD1610851+9999OA159902201SA1+0749REMSYN188BBXX  44005 12191 99432 70691 46/// /0817 10045 20044 40009 56085 91850 22200 00074 10811 20811 70053 333 91222 555 11184 22196 31842 40822 61849 078174 074180 074176 074171 073165 076170;
0233992760999992012011220004+42700-068300FM-18+0000DB276V0200801N017019999999N9999999N1+00531+00521099881ADDMD1610711+9999OA159902201SA1+0749REMSYN188BBXX  44005 12201 99432 70691 46/// /0817 10053 20052 49988 56071 91950 22200 00074 10912 20912 70058 333 91222 555 11185 22197 31856 40823 61949 079172 078177 078181 079175 078181 078190;
0215992760999992012011221004+42700-068300FM-18+0000DB276V0200801N017019999999N9999999N1+00571+00561099781ADDMD1610571+9999OA159902201SA1+0749REMSYN170BBXX  44005 12211 99432 70691 46/// /0817 10057 20056 49978 56057 92050 22200 00074 333 91222 555 11178 22190 32025 42309 62049 083168 083174 131083 ////// ////// //////;
0233992760999992012011222004+42700-068300FM-18+0000DB276V0200901N018019999999N9999999N1+00631+00601099651ADDMD1610441+9999OA159902301SA1+0749REMSYN188BBXX  44005 12221 99432 70691 46/// /0918 10063 20060 49965 56044 92150 22200 00074 11015 21015 70074 333 91223 555 11189 22202 32117 40923 62149 084177 085174 083175 086175 083176 083173;
