0227992780999992011010100004+43533-070083FM-18+0000DB278V0202001N004019999999N9999999N1+00571+99999101661ADDMD1610061+9999OA159900401SA1+0469REMSYN182BBXX  44007 01001 99435 70701 46/// /2004 10057 40166 56006 92350 22200 00046 10301 20301 70005 333 91204 555 11044 22051 32316 42106 62349 199039 202045 203045 209048 204041 206043;
0227992780999992011010101004+43533-070083FM-18+0000DB278V0202101N004019999999N9999999N1+00561+99999101621ADDMD1810041+9999OA159900401SA1+0469REMSYN182BBXX  44007 01011 99435 70701 46/// /2104 10056 40162 58004 90050 22200 00046 10301 20301 70004 333 91204 555 11041 22047 32356 42204 60049 212036 227038 232037 218037 223038 211037;
0227992780999992011010102004+43533-070083FM-18+0000DB278V0202401N005019999999N9999999N1+00661+99999101601ADDMD1710071+9999OA159900501SA1+0479REMSYN182BBXX  44007 01021 99435 70701 46/// /2405 10066 40160 57007 90150 22200 00047 10401 20401 70004 333 91205 555 11056 22065 30143 42405 60149 239049 235041 243041 241044 231042 210035;
0227992780999992011010103004+43533-070083FM-18+0000DB278V0202501N004019999999N9999999N1+00591+99999101631ADDMD1510031+9999OA159900401SA1+0449REMSYN182BBXX  44007 01031 99435 70701 46/// /2504 10059 40163 55003 90250 22200 00044 10401 20301 70004 333 91204 555 11040 22048 30157 42407 60249 252035 246037 244043 235049 230059 239056;
0227992780999992011010104004+43533-070083FM-18+0000DB278V0203601N002019999999N9999999N1+00451+99999101631ADDMD1410001+9999OA159900301SA1+0449REMSYN182BBXX  44007 01041 99435 70701 46/// /3602 10045 40163 54000 90350 22200 00044 10401 20401 70004 333 91203 555 11026 22028 30252 42604 60349 359023 359028 345026 297022 284023 261032;
0239992780999992011010105004+43533-070083FM-18+0000DB278V0201501N002019999999N9999999N1+00501+99999101561ADDMD1810041+9999OA159900301SA1+0429REMSYN194BBXX  44007 01051 99435 70701 46/// /1502 10050 40156 58004 90450 22200 00042 10401 20401 3//// 40501 70004 333 91203 555 11026 22030 30441 41403 60449 149022 139017 120012 054009 007012 004015;
0239992780999992011010106004+43533-070083FM-18+0000DB278V0203101N002019999999N9999999N1+00461+99999101591ADDMD1510041+9999OA159900201SA1+0429REMSYN194BBXX  44007 01061 99435 70701 46/// /3102 10046 40159 55004 90550 22200 00042 10401 20401 3//// 40401 70004 333 91202 555 11024 22028 30521 42203 60549 306020 257021 229022 212023 186020 165015;
0239992780999992011010107004+43533-070083FM-18+0000DB278V0202301N002019999999N9999999N1+00421+99999101551ADDMD1610081+9999OA159900201SA1+0419REMSYN194BBXX  44007 01071 99435 70701 46/// /2302 10042 40155 56008 90650 22200 00041 10501 20401 3//// 40501 70005 333 91202 555 11021 22023 30643 42402 60649 227019 214017 277003 254003 307008 306016;
0239992780999992011010108004+43533-070083FM-18+0000DB278V0202601N003019999999N9999999N1+00431+99999101581ADDMD1410001+9999OA159900401SA1+0419REMSYN194BBXX  44007 01081 99435 70701 46/// /2603 10043 40158 54000 90750 22200 00041 10401 20401 3//// 40401 70005 333 91204 555 11033 22036 30743 42604 60749 255029 255023 250020 241013 241015 228015;
0239992780999992011010109004+43533-070083FM-18+0000DB278V0202401N003019999999N9999999N1+00421+99999101531ADDMD1810061+9999OA159900401SA1+0429REMSYN194BBXX  44007 01091 99435 70701 46/// /2403 10042 40153 58006 90850 22200 00042 10401 20401 3//// 40401 70005 333 91204 555 11035 22037 30838 42604 60849 240033 250035 237026 238015 251018 255022;
0239992780999992011010110004+43533-070083FM-18+0000DB278V0202901N002019999999N9999999N1+00441+99999101581ADDMD1310031+9999OA159900201SA1+0429REMSYN194BBXX  44007 01101 99435 70701 46/// /2902 10044 40158 53003 90950 22200 00042 10501 20401 3//// 40501 70005 333 91202 555 11019 22022 30902 42706 60949 288017 269024 272026 260034 261045 249031;
0239992780999992011010111004+43533-070083FM-18+0000DB278V0203001N002019999999N9999999N1+00441+99999101641ADDMD1310061+9999OA159900201SA1+0429REMSYN194BBXX  44007 01111 99435 70701 46/// /3002 10044 40164 53006 91050 22200 00042 10401 20401 3//// 40401 70005 333 91202 555 11019 22022 31029 43302 61049 299017 304016 328015 286012 277013 274017;
0239992780999992011010112004+43533-070083FM-18+0000DB278V0203001N001019999999N9999999N1+00421+99999101701ADDMD1310171+9999OA159900101SA1+0429REMSYN194BBXX  44007 01121 99435 70701 46/// /3001 10042 40170 53017 91150 22200 00042 10501 20401 3//// 40501 70006 333 91201 555 11008 22009 31121 43503 61149 304008 331013 345023 337028 305022 287018;
0239992780999992011010113004+43533-070083FM-18+0000DB278V0201201N002019999999N9999999N1+00431+99999101571ADDMD1010001+9999OA159900201SA1+0439REMSYN194BBXX  44007 01131 99435 70701 46/// /1202 10043 40157 50000 91250 22200 00043 10401 20401 3//// 40401 70006 333 91202 555 11018 22019 31214 43003 61249 117016 022005 302013 301019 278017 302012;
0239992780999992011010114004+43533-070083FM-18+0000DB278V0202801N002019999999N9999999N1+00431+99999101701ADDMD1310061+9999OA159900201SA1+0439REMSYN194BBXX  44007 01141 99435 70701 46/// /2802 10043 40170 53006 91350 22200 00043 10501 20401 3//// 40501 70006 333 91202 555 11018 22019 31328 43103 61349 285017 298019 293027 267013 226005 154012;
0239992780999992011010115004+43533-070083FM-18+0000DB278V0203001N001019999999N9999999N1+00481+99999101741ADDMD1310041+9999OA159900201SA1+0459REMSYN194BBXX  44007 01151 99435 70701 46/// /3001 10048 40174 53004 91450 22200 00045 10501 20401 3//// 40501 70005 333 91202 555 11016 22019 31421 42704 61449 297014 288017 272029 260025 252015 256020;
0239992780999992011010116004+43533-070083FM-18+0000DB278V0202301N002019999999N9999999N1+00501+99999101761ADDMD1110191+9999OA159900301SA1+0469REMSYN194BBXX  44007 01161 99435 70701 46/// /2302 10050 40176 51019 91550 22200 00046 10501 20401 3//// 40501 70006 333 91203 555 11021 22024 31547 42403 61549 234018 208005 196006 196008 216012 288006;
0239992780999992011010117004+43533-070083FM-18+0000DB278V0202101N001019999999N9999999N1+00531+99999101681ADDMD1010001+9999OA159900201SA1+0479REMSYN194BBXX  44007 01171 99435 70701 46/// /2101 10053 40168 50000 91650 22200 00047 10501 20401 3//// 40501 70005 333 91202 555 11008 22010 31557 42404 61649 215008 241011 241013 242018 238028 232028;
0239992780999992011010118004+43533-070083FM-18+0000DB278V0202301N003019999999N9999999N1+00541+99999101691ADDMD1710051+9999OA159900301SA1+0479REMSYN194BBXX  44007 01181 99435 70701 46/// /2303 10054 40169 57005 91750 22200 00047 10501 20401 3//// 40501 70006 333 91203 555 11029 22034 31709 42104 61749 226024 220027 181012 205020 208035 211030;
0239992780999992011010119004+43533-070083FM-18+0000DB278V0202201N001019999999N9999999N1+00551+99999101701ADDMD1610061+9999OA159900201SA1+0479REMSYN194BBXX  44007 01191 99435 70701 46/// /2201 10055 40170 56006 91850 22200 00047 10601 20401 3//// 40601 70005 333 91202 555 11011 22013 31752 42303 61849 226009 220018 216026 204027 230025 228028;
0239992780999992011010120004+43533-070083FM-18+0000DB278V0201301N002019999999N9999999N1+00611+99999101671ADDMD1010001+9999OA159900201SA1+0499REMSYN194BBXX  44007 01201 99435 70701 46/// /1302 10061 40167 50000 91950 22200 00049 10501 20301 3//// 40501 70005 333 91202 555 11023 22027 31938 41202 61949 127019 127018 116013 118013 100012 125002;
0239992780999992011010121004+43533-070083FM-18+0000DB278V0200901N003019999999N9999999N1+00611+99999101671ADDMD1410001+9999OA159900501SA1+0489REMSYN194BBXX  44007 01211 99435 70701 46/// /0903 10061 40167 54000 92050 22200 00048 10501 20401 3//// 40501 70004 333 91205 555 11038 22045 32043 40705 62049 088032 157029 158038 138029 115025 119020;
0239992780999992011010122004+43533-070083FM-18+0000DB278V0201301N003019999999N9999999N1+00621+99999101741ADDMD1310041+9999OA159900401SA1+0489REMSYN194BBXX  44007 01221 99435 70701 46/// /1303 10062 40174 53004 92150 22200 00048 10501 20401 3//// 40501 70004 333 91204 555 11035 22041 32147 41504 62149 126030 092030 081024 087021 089021 108029;
0239992780999992011010123004+43533-070083FM-18+0000DB278V0200901N004019999999N9999999N1+00611+99999101681ADDMD1010001+9999OA159900501SA1+0489REMSYN194BBXX  44007 01231 99435 70701 46/// /0904 10061 40168 50000 92250 22200 00048 10501 20401 3//// 40501 70004 333 91205 555 11047 22055 32150 41005 62249 091042 093040 102040 092033 109031 097024;
0239992780999992011010200004+43533-070083FM-18+0000DB278V0200901N004019999999N9999999N1+00641+99999101651ADDMD1010001+9999OA159900401SA1+0499REMSYN194BBXX  44007 02001 99435 70701 46/// /0904 10064 40165 50000 92350 22200 00049 10601 20401 3//// 40601 70004 333 91204 555 11045 22052 32251 41005 62349 088039 085038 089037 091039 094041 095044;
0233992780999992011010201004+43533-070083FM-18+0000DB278V0201001N004019999999N9999999N1+00651+99999101571ADDMD1810171+9999OA159900501SA1+0499REMSYN188BBXX  44007 02011 99435 70701 46/// /1004 10065 40157 58017 90050 22200 00049 10501 3//// 40501 70004 333 91205 555 11048 22056 30036 41005 60049 098042 095044 101042 097042 093045 093043;
0225992780999992011010202004+43533-070083FM-18+0000DB278V0200701N003019999999N9999999N1+00631+99999101591ADDMD1610091+9999OA159900401REMSYN188BBXX  44007 02021 99435 70701 46/// /0703 10063 40159 56009 90150 22200 00050 10601 3//// 40601 70004 333 91204 555 11032 22038 30056 40905 60149 066027 075026 074034 081040 082036 093039;
0227992780999992011010203004+43533-070083FM-18+0000DB278V0201001N007019999999N9999999N1+00651+99999101481ADDMD1810171+9999OA159900801SA1+0519REMSYN182BBXX  44007 02031 99435 70701 46/// /1007 10065 40148 58017 90250 22200 00051 10601 20601 70004 333 91208 555 11071 22080 30249 41008 60249 096065 084061 076056 071051 061042 059042;
0227992780999992011010204004+43533-070083FM-18+0000DB278V0201301N005019999999N9999999N1+00701+99999101461ADDMD1710111+9999OA159900601SA1+0529REMSYN182BBXX  44007 02041 99435 70701 46/// /1305 10070 40146 57011 90350 22200 00052 10601 20301 70004 333 91206 555 11061 22069 30255 41009 60349 131054 124052 119065 112071 104070 098074;
0227992780999992011010205004+43533-070083FM-18+0000DB278V0201501N006019999999N9999999N1+00731+99999101381ADDMD1610211+9999OA159900601SA1+0519REMSYN182BBXX  44007 02051 99435 70701 46/// /1506 10073 40138 56021 90450 22200 00051 10301 20301 70005 333 91206 555 11065 22075 30407 41207 60449 146058 142051 133055 125062 126061 127056;
0227992780999992011010206004+43533-070083FM-18+0000DB278V0201801N005019999999N9999999N1+00661+99999101321ADDMD1810161+9999OA159900601SA1+0529REMSYN182BBXX  44007 02061 99435 70701 46/// /1805 10066 40132 58016 90550 22200 00052 10301 20301 70005 333 91206 555 11052 22060 30455 41506 60549 183045 187047 183045 168045 155047 151054;
0239992780999992011010207004+43533-070083FM-18+0000DB278V0201901N003019999999N9999999N1+00621+99999101301ADDMD1610161+9999OA159900401SA1+0529REMSYN194BBXX  44007 02071 99435 70701 46/// /1903 10062 40130 56016 90650 22200 00052 10401 20401 3//// 40401 70005 333 91204 555 11037 22043 30618 41806 60649 191032 184038 184046 178052 183052 177049;
0239992780999992011010208004+43533-070083FM-18+0000DB278V0202301N003019999999N9999999N1+00531+99999101281ADDMD1610101+9999OA159900401SA1+0529REMSYN194BBXX  44007 02081 99435 70701 46/// /2303 10053 40128 56010 90750 22200 00052 10401 20401 3//// 40501 70005 333 91204 555 11033 22036 30714 42005 60749 235032 233034 214036 202042 205033 199034;
0231992780999992011010209004+43533-070083FM-18+0000DB278V0202801N003019999999N9999999N1+00481+99999101231ADDMD1810091+9999OA159900401REMSYN194BBXX  44007 02091 99435 70701 46/// /2803 10048 40123 58009 90850 22200 00050 10401 20401 3//// 40401 70007 333 91204 555 11034 22035 30826 42705 60849 281032 274038 271038 256035 247033 230030;
0239992780999992011010210004+43533-070083FM-18+0000DB278V0202701N002019999999N9999999N1+00461+99999101171ADDMD1810131+9999OA159900201SA1+0519REMSYN194BBXX  44007 02101 99435 70701 46/// /2702 10046 40117 58013 90950 22200 00051 10401 20401 3//// 40501 70006 333 91202 555 11021 22021 30855 42803 60949 275020 276023 302017 283019 277020 284027;
0239992780999992011010211004+43533-070083FM-18+0000DB278V0202701N004019999999N9999999N1+00451+99999101221ADDMD1510061+9999OA159900501SA1+0499REMSYN194BBXX  44007 02111 99435 70701 46/// /2704 10045 40122 55006 91050 22200 00049 10501 20401 3//// 40501 70007 333 91205 555 11040 22042 31045 42705 61049 270038 269038 273031 276032 271030 259026;
0231992780999992011010212004+43533-070083FM-18+0000DB278V0203001N003019999999N9999999N1+00441+99999101191ADDMD1610041+9999OA159900301REMSYN194BBXX  44007 02121 99435 70701 46/// /3003 10044 40119 56004 91150 22200 00050 10501 20401 3//// 40501 70007 333 91203 555 11026 22027 31104 42905 61149 301025 298032 278033 278037 287041 280034;
0231992780999992011010213004+43533-070083FM-18+0000DB278V0202901N004019999999N9999999N1+00441+99999101211ADDMD1110041+9999OA159900401REMSYN194BBXX  44007 02131 99435 70701 46/// /2904 10044 40121 51004 91250 22200 00050 10501 20301 3//// 40501 70006 333 91204 555 11037 22038 31150 42904 61249 289035 299029 312025 330022 314027 314020;
0231992780999992011010214004+43533-070083FM-18+0000DB278V0203101N004019999999N9999999N1+00451+99999101211ADDMD1510001+9999OA159900501REMSYN194BBXX  44007 02141 99435 70701 46/// /3104 10045 40121 55000 91350 22200 00050 10501 20401 3//// 40501 70005 333 91205 555 11042 22044 31308 43005 61349 305040 306031 311025 325030 297041 305032;
0239992780999992011010215004+43533-070083FM-18+0000DB278V0203301N004019999999N9999999N1+00491+99999101251ADDMD1310061+9999OA159900501SA1+0519REMSYN194BBXX  44007 02151 99435 70701 46/// /3304 10049 40125 53006 91450 22200 00051 10501 20401 3//// 40501 70004 333 91205 555 11042 22044 31413 43206 61449 327040 330036 321039 322044 324041 310037;
0233992780999992011010216004+43533-070083FM-18+0000DB278V0202901N002019999999N9999999N1+00521+99999101241ADDMD1210031+9999OA159900301SA1+0529REMSYN188BBXX  44007 02161 99435 70701 46/// /2902 10052 40124 52003 91550 22200 00052 10501 3//// 40501 70005 333 91203 555 11022 22023 31453 43205 61549 293021 350028 327022 322029 319033 313040;
0233992780999992011010217004+43533-070083FM-18+0000DB278V0203301N002019999999N9999999N1+00561+99999101111ADDMD1810101+9999OA159900401SA1+0539REMSYN188BBXX  44007 02171 99435 70701 46/// /3302 10056 40111 58010 91650 22200 00053 10501 3//// 40501 70005 333 91204 555 11027 22030 31613 43504 61649 341025 032025 020028 359031 340022 283019;
0233992780999992011010218004+43533-070083FM-18+0000DB278V0203401N002019999999N9999999N1+00531+99999101051ADDMD1810201+9999OA159900301SA1+0559REMSYN188BBXX  44007 02181 99435 70701 46/// /3402 10053 40105 58020 91750 22200 00055 10501 3//// 40501 70005 333 91203 555 11022 22023 31656 43504 61749 339021 331023 344027 016019 356021 345033;
0233992780999992011010219004+43533-070083FM-18+0000DB278V0202801N001019999999N9999999N1+00541+99999101051ADDMD1610191+9999OA159900201SA1+0569REMSYN188BBXX  44007 02191 99435 70701 46/// /2801 10054 40105 56019 91850 22200 00056 10501 3//// 40501 70005 333 91202 555 11008 22008 31803 43104 61849 280008 275021 289019 333009 304027 337019;
0239992780999992011010220004+43533-070083FM-18+0000DB278V0202701N001019999999N9999999N1+00591+99999101061ADDMD1610051+9999OA159900201SA1+0529REMSYN194BBXX  44007 02201 99435 70701 46/// /2701 10059 40106 56005 91950 22200 00052 10501 20401 3//// 40501 70005 333 91202 555 11015 22017 31851 42402 61949 270012 208008 220003 221005 243008 241014;
0233992780999992011010221004+43533-070083FM-18+0000DB278V0203401N002019999999N9999999N1+00591+99999100981ADDMD1810071+9999OA159900201SA1+0529REMSYN188BBXX  44007 02211 99435 70701 46/// /3402 10059 40098 58007 92050 22200 00052 10501 3//// 40501 70004 333 91202 555 11018 22022 31950 43402 62049 341015 356011 314009 336007 289006 277005;
0233992780999992011010222004+43533-070083FM-18+0000DB278V0202601N001019999999N9999999N1+00551+99999100981ADDMD1710071+9999OA159900101SA1+0549REMSYN188BBXX  44007 02221 99435 70701 46/// /2601 10055 40098 57007 92150 22200 00054 10501 3//// 40501 70004 333 91201 555 11011 22013 32109 43402 62149 263010 271005 007007 328011 001015 005011;
0233992780999992011010223004+43533-070083FM-18+0000DB278V0202401N002019999999N9999999N1+00561+99999100971ADDMD1610091+9999OA159900201SA1+0559REMSYN188BBXX  44007 02231 99435 70701 46/// /2402 10056 40097 56009 92250 22200 00055 10501 3//// 40501 70003 333 91202 555 11018 22020 32150 42602 62249 244015 222006 235007 243013 269011 290013;
0233992780999992011010300004+43533-070083FM-18+0000DB278V0203501N001019999999N9999999N1+00541+99999100811ADDMD1810171+9999OA159900201SA1+0559REMSYN188BBXX  44007 03001 99435 70701 46/// /3501 10054 40081 58017 92350 22200 00055 10401 3//// 40401 70003 333 91202 555 11014 22014 32250 40102 62349 351014 347010 286008 198009 222009 269015;
0221992780999992011010301004+43533-070083FM-18+0000DB278V0203501N002019999999N9999999N1+00551+99999100761ADDMD1810221+9999OA159900301SA1+0569REMSYN176BBXX  44007 03011 99435 70701 46/// /3502 10055 40076 58022 90050 22200 00056 10401 70003 333 91203 555 11022 22023 30045 43503 60049 351021 336019 352019 353013 335016 344020;
0221992780999992011010302004+43533-070083FM-18+0000DB278V0202901N003019999999N9999999N1+00531+99999100791ADDMD1510181+9999OA159900301SA1+0569REMSYN176BBXX  44007 03021 99435 70701 46/// /2903 10053 40079 55018 90150 22200 00056 10401 70003 333 91203 555 11028 22029 30142 42803 60149 287027 283025 298020 280023 312020 338019;
0221992780999992011010303004+43533-070083FM-18+0000DB278V0203101N002019999999N9999999N1+00521+99999100721ADDMD1810091+9999OA159900201SA1+0569REMSYN176BBXX  44007 03031 99435 70701 46/// /3102 10052 40072 58009 90250 22200 00056 10501 70003 333 91202 555 11018 22018 30231 42803 60249 305016 278020 284020 259013 276005 296015;
0221992780999992011010304004+43533-070083FM-18+0000DB278V0200301N002019999999N9999999N1+00551+99999100741ADDMD1010001+9999OA159900201SA1+0569REMSYN176BBXX  44007 03041 99435 70701 46/// /0302 10055 40074 50000 90350 22200 00056 10601 70003 333 91202 555 11017 22017 30331 40103 60349 031017 029019 007020 314012 292010 298013;
0221992780999992011010305004+43533-070083FM-18+0000DB278V0203501N005019999999N9999999N1+00511+99999100601ADDMD1810191+9999OA159900601SA1+0569REMSYN176BBXX  44007 03051 99435 70701 46/// /3505 10051 40060 58019 90450 22200 00056 10601 70003 333 91206 555 11048 22051 30439 40207 60449 354048 013052 031042 023035 026027 028024;
0227992780999992011010306004+43533-070083FM-18+0000DB278V0203601N011019999999N9999999N1+00421+99999100541ADDMD1810181+9999OA159901201SA1+0569REMSYN182BBXX  44007 03061 99435 70701 46/// /3611 10042 40054 58018 90550 22200 00056 10301 20301 70006 333 91212 555 11114 22121 30536 40112 60549 359106 004100 004099 003092 346070 351058;
0227992780999992011010307004+43533-070083FM-18+0000DB278V0203401N012019999999N9999999N1+00151+99999100721ADDMD1510001+9999OA159901401SA1+0579REMSYN182BBXX  44007 03071 99435 70701 46/// /3412 10015 40072 55000 90650 22200 00057 10302 20302 70009 333 91214 555 11126 22133 30631 43515 60649 345119 344119 345119 342109 344112 345117;
0227992780999992011010308004+43533-070083FM-18+0000DB278V0203401N009019999999N9999999N1+00171+99999100781ADDMD1310181+9999OA159901101SA1+0589REMSYN182BBXX  44007 03081 99435 70701 46/// /3409 10017 40078 53018 90750 22200 00058 10302 20302 70008 333 91211 555 11097 22102 30701 43513 60749 339092 343092 339096 346106 347109 345111;
0227992780999992011010309004+43533-070083FM-18+0000DB278V0203301N009019999999N9999999N1+00141+99999100831ADDMD1110291+9999OA159901101SA1+0599REMSYN182BBXX  44007 03091 99435 70701 46/// /3309 10014 40083 51029 90850 22200 00059 10301 20301 70006 333 91211 555 11095 22099 30815 43313 60849 327091 324088 320083 330099 333103 336098;
0227992780999992011010310004+43533-070083FM-18+0000DB278V0203301N011019999999N9999999N1+00061+99999100911ADDMD1310191+9999OA159901301SA1+0599REMSYN182BBXX  44007 03101 99435 70701 46/// /3311 10006 40091 53019 90950 22200 00059 10301 20301 70007 333 91213 555 11116 22122 30926 43114 60949 330111 329108 327111 325098 323087 327086;
0227992780999992011010311004+43533-070083FM-18+0000DB278V0203301N009019999999N9999999N1-00021+99999101061ADDMD1310281+9999OA159901101SA1+0599REMSYN182BBXX  44007 03111 99435 70701 46/// /3309 11002 40106 53028 91050 22200 00059 10402 20402 70008 333 91211 555 11098 22102 30953 43313 61049 330094 332105 329106 325104 326101 328106;
0227992780999992011010312004+43533-070083FM-18+0000DB278V0203101N008019999999N9999999N1-00061+99999101171ADDMD1310341+9999OA159900901SA1+0599REMSYN182BBXX  44007 03121 99435 70701 46/// /3108 11006 40117 53034 91150 22200 00059 10401 20401 70007 333 91209 555 11083 22086 31116 43213 61149 312079 322085 329098 327102 327096 326094;
0227992780999992011010313004+43533-070083FM-18+0000DB278V0203101N006019999999N9999999N1-00111+99999101221ADDMD1110311+9999OA159900801SA1+0589REMSYN182BBXX  44007 03131 99435 70701 46/// /3106 11011 40122 51031 91250 22200 00058 10301 20301 70005 333 91208 555 11064 22066 31208 43110 61249 305062 303070 303072 309072 306075 310077;
0227992780999992011010314004+43533-070083FM-18+0000DB278V0203101N008019999999N9999999N1-00081+99999101251ADDMD1110191+9999OA159901101SA1+0589REMSYN182BBXX  44007 03141 99435 70701 46/// /3108 11008 40125 51019 91350 22200 00058 10301 20301 70005 333 91211 555 11085 22089 31311 43012 61349 308080 307073 303065 305086 303078 299072;
0227992780999992011010315004+43533-070083FM-18+0000DB278V0203001N009019999999N9999999N1-00051+99999101291ADDMD1110121+9999OA159901101SA1+0599REMSYN182BBXX  44007 03151 99435 70701 46/// /3009 11005 40129 51012 91450 22200 00059 10301 20301 70006 333 91211 555 11093 22097 31437 43112 61449 303089 300093 301089 302071 300074 301070;
0227992780999992011010316004+43533-070083FM-18+0000DB278V0203001N010019999999N9999999N1-00031+99999101271ADDMD1110051+9999OA159901201SA1+0599REMSYN182BBXX  44007 03161 99435 70701 46/// /3010 11003 40127 51005 91550 22200 00059 10301 20301 70007 333 91212 555 11104 22109 31502 42913 61549 301099 311105 310098 302101 303098 304095;
0227992780999992011010317004+43533-070083FM-18+0000DB278V0203001N013019999999N9999999N1+00011+99999101171ADDMD1810081+9999OA159901501SA1+0599REMSYN182BBXX  44007 03171 99435 70701 46/// /3013 10001 40117 58008 91650 22200 00059 10302 20302 70008 333 91215 555 11142 22150 31641 43016 61649 300133 298129 300118 306126 296111 302103;
0219992780999992011010318004+43533-070083FM-18+0000DB278V0203001N011019999999N9999999N1+00011+99999101181ADDMD1710111+9999OA159901401REMSYN182BBXX  44007 03181 99435 70701 46/// /3011 10001 40118 57011 91750 22200 00060 10302 20302 70008 333 91214 555 11119 22124 31727 43116 61749 304113 305120 307120 307125 304127 301122;
0227992780999992011010319004+43533-070083FM-18+0000DB278V0203001N012019999999N9999999N1+00031+99999101161ADDMD1610111+9999OA159901501SA1+0599REMSYN182BBXX  44007 03191 99435 70701 46/// /3012 10003 40116 56011 91850 22200 00059 10302 20302 70008 333 91215 555 11129 22136 31810 43117 61849 301122 306120 304123 300137 299117 303115;
0227992780999992011010320004+43533-070083FM-18+0000DB278V0203101N010019999999N9999999N1+00041+99999101291ADDMD1310121+9999OA159901301SA1+0579REMSYN182BBXX  44007 03201 99435 70701 46/// /3110 10004 40129 53012 91950 22200 00057 10301 20301 70007 333 91213 555 11109 22114 31906 43016 61949 314105 313118 318107 316097 311116 302122;
0227992780999992011010321004+43533-070083FM-18+0000DB278V0203001N012019999999N9999999N1+00011+99999101361ADDMD1310181+9999OA159901401SA1+0569REMSYN182BBXX  44007 03211 99435 70701 46/// /3012 10001 40136 53018 92050 22200 00056 10301 20301 70006 333 91214 555 11122 22128 32012 43015 62049 304115 305113 302105 303116 309110 312111;
0227992780999992011010322004+43533-070083FM-18+0000DB278V0203101N010019999999N9999999N1-00011+99999101441ADDMD1110281+9999OA159901201SA1+0559REMSYN182BBXX  44007 03221 99435 70701 46/// /3110 11001 40144 51028 92150 22200 00055 10301 20301 70006 333 91212 555 11105 22109 32104 43015 62149 307097 310104 305105 305120 307117 305116;
0227992780999992011010323004+43533-070083FM-18+0000DB278V0202901N007019999999N9999999N1-00041+99999101531ADDMD1310241+9999OA159900801SA1+0549REMSYN182BBXX  44007 03231 99435 70701 46/// /2907 11004 40153 53024 92250 22200 00054 10301 20301 70004 333 91208 555 11075 22078 32205 43112 62249 292072 299077 300076 304089 304097 305098;
0227992780999992011010400004+43533-070083FM-18+0000DB278V0202801N008019999999N9999999N1-00041+99999101561ADDMD1110201+9999OA159901001SA1+0549REMSYN182BBXX  44007 04001 99435 70701 46/// /2808 11004 40156 51020 92350 22200 00054 10201 20301 70003 333 91210 555 11083 22086 32349 42810 62349 284078 279068 283072 284072 282075 287072;
0227992780999992011010401004+43533-070083FM-18+0000DB278V0203001N008019999999N9999999N1-00111+99999101531ADDMD1010091+9999OA159901001SA1+0549REMSYN182BBXX  44007 04011 99435 70701 46/// /3008 11011 40153 50009 90050 22200 00054 10201 20301 70003 333 91210 555 11080 22083 32355 42813 60049 299075 301074 303074 304070 295074 282089;
0213992780999992011010402004+43533-070083FM-18+0000DB278V0202901N006019999999N9999999N1-00101+99999101531ADDMD1010001+9999OA159900801REMSYN176BBXX  44007 04021 99435 70701 46/// /2906 11010 40153 50000 90150 22200 00054 1//00 70002 333 91208 555 11067 22069 30104 42909 60149 288064 293068 299074 301074 296075 293075;
0219992780999992011010403004+43533-070083FM-18+0000DB278V0202901N007019999999N9999999N1-00091+99999101541ADDMD1510001+9999OA159900901REMSYN182BBXX  44007 04031 99435 70701 46/// /2907 11009 40154 55000 90250 22200 00055 10201 20301 70003 333 91209 555 11074 22077 30249 42909 60249 286071 295050 288055 284063 286065 292069;
0219992780999992011010404004+43533-070083FM-18+0000DB278V0202801N007019999999N9999999N1-00091+99999101501ADDMD1810031+9999OA159900901REMSYN182BBXX  44007 04041 99435 70701 46/// /2807 11009 40150 58003 90350 22200 00056 10301 20301 70003 333 91209 555 11075 22078 30302 43009 60349 279072 288070 295062 293064 290066 290067;
0219992780999992011010405004+43533-070083FM-18+0000DB278V0202801N009019999999N9999999N1-00101+99999101431ADDMD1810101+9999OA159901101REMSYN182BBXX  44007 04051 99435 70701 46/// /2809 11010 40143 58010 90450 22200 00055 10301 20301 70003 333 91211 555 11096 22100 30446 42711 60449 277090 276085 275077 276070 274065 274069;
0219992780999992011010406004+43533-070083FM-18+0000DB278V0202801N008019999999N9999999N1-00141+99999101431ADDMD1610111+9999OA159901001REMSYN182BBXX  44007 04061 99435 70701 46/// /2808 11014 40143 56011 90550 22200 00056 10301 20301 70005 333 91210 555 11086 22090 30457 42810 60549 282082 280079 280080 279077 278081 279084;
0219992780999992011010407004+43533-070083FM-18+0000DB278V0202801N008019999999N9999999N1-00141+99999101481ADDMD1510001+9999OA159900901REMSYN182BBXX  44007 04071 99435 70701 46/// /2808 11014 40148 55000 90650 22200 00055 10301 20301 70005 333 91209 555 11083 22086 30609 42809 60649 280079 282075 283073 282078 286081 286076;
0219992780999992011010408004+43533-070083FM-18+0000DB278V0202801N007019999999N9999999N1-00161+99999101481ADDMD1210051+9999OA159900801REMSYN182BBXX  44007 04081 99435 70701 46/// /2807 11016 40148 52005 90750 22200 00055 10301 20301 70004 333 91208 555 11073 22076 30700 42809 60749 277069 280065 283064 283069 279077 279078;
0219992780999992011010409004+43533-070083FM-18+0000DB278V0202701N007019999999N9999999N1-00201+99999101471ADDMD1110041+9999OA159900901REMSYN182BBXX  44007 04091 99435 70701 46/// /2707 11020 40147 51004 90850 22200 00056 10301 20301 70005 333 91209 555 11077 22080 30837 42609 60849 271074 270073 270075 265072 267070 272070;
0219992780999992011010410004+43533-070083FM-18+0000DB278V0202801N007019999999N9999999N1-00211+99999101461ADDMD1410001+9999OA159900801REMSYN182BBXX  44007 04101 99435 70701 46/// /2807 11021 40146 54000 90950 22200 00056 10301 20301 70005 333 91208 555 11069 22071 30939 42709 60949 277068 268078 268079 271079 267073 266072;
0219992780999992011010411004+43533-070083FM-18+0000DB278V0202701N007019999999N9999999N1-00241+99999101441ADDMD1710041+9999OA159900801REMSYN182BBXX  44007 04111 99435 70701 46/// /2707 11024 40144 57004 91050 22200 00056 10401 20401 70006 333 91208 555 11071 22074 31032 42609 61049 268066 259067 269069 278065 278066 275069;
0219992780999992011010412004+43533-070083FM-18+0000DB278V0202701N009019999999N9999999N1-00191+99999101401ADDMD1810071+9999OA159901001REMSYN182BBXX  44007 04121 99435 70701 46/// /2709 11019 40140 58007 91150 22200 00056 10401 20401 70007 333 91210 555 11092 22096 31130 42711 61149 265089 263093 264091 267080 264076 270070;
0219992780999992011010413004+43533-070083FM-18+0000DB278V0202601N009019999999N9999999N1-00181+99999101351ADDMD1810111+9999OA159901001REMSYN182BBXX  44007 04131 99435 70701 46/// /2609 11018 40135 58011 91250 22200 00056 10401 20401 70007 333 91210 555 11092 22096 31150 42710 61249 264088 268088 272083 267079 267080 266083;
0219992780999992011010414004+43533-070083FM-18+0000DB278V0202601N009019999999N9999999N1-00231+99999101341ADDMD1610101+9999OA159901001REMSYN182BBXX  44007 04141 99435 70701 46/// /2609 11023 40134 56010 91350 22200 00056 10401 20401 70007 333 91210 555 11091 22095 31251 42710 61349 255087 255081 259083 265083 262085 268086;
0219992780999992011010415004+43533-070083FM-18+0000DB278V0202601N009019999999N9999999N1-00141+99999101271ADDMD1810131+9999OA159901101REMSYN182BBXX  44007 04151 99435 70701 46/// /2609 11014 40127 58013 91450 22200 00056 10401 20401 70007 333 91211 555 11097 22101 31351 42411 61449 259092 259090 256088 256086 256092 253094;
0219992780999992011010416004+43533-070083FM-18+0000DB278V0202601N010019999999N9999999N1-00051+99999101151ADDMD1810201+9999OA159901201REMSYN182BBXX  44007 04161 99435 70701 46/// /2610 11005 40115 58020 91550 22200 00055 10502 20502 70010 333 91212 555 11102 22107 31549 42612 61549 258097 258100 256096 259097 260098 257093;
0219992780999992011010417004+43533-070083FM-18+0000DB278V0202501N008019999999N9999999N1-00021+99999101041ADDMD1710301+9999OA159900901REMSYN182BBXX  44007 04171 99435 70701 46/// /2508 11002 40104 57030 91650 22200 00056 10502 20502 70008 333 91209 555 11081 22084 31552 42512 61649 253076 256083 261082 264087 260092 257098;
0219992780999992011010418004+43533-070083FM-18+0000DB278V0202501N007019999999N9999999N1+00001+99999100991ADDMD1710281+9999OA159900801REMSYN182BBXX  44007 04181 99435 70701 46/// /2507 10000 40099 57028 91750 22200 00057 10501 20501 70007 333 91208 555 11068 22070 31734 42610 61749 255066 257073 264075 266073 269077 262077;
0219992780999992011010419004+43533-070083FM-18+0000DB278V0202501N005019999999N9999999N1+00011+99999100911ADDMD1610241+9999OA159900701REMSYN182BBXX  44007 04191 99435 70701 46/// /2505 10001 40091 56024 91850 22200 00058 10501 20501 70006 333 91207 555 11054 22056 31752 42708 61849 250051 246052 243052 246055 253060 256060;
0219992780999992011010420004+43533-070083FM-18+0000DB278V0202501N006019999999N9999999N1+00061+99999100841ADDMD1810201+9999OA159900801REMSYN182BBXX  44007 04201 99435 70701 46/// /2506 10006 40084 58020 91950 22200 00058 10401 20401 70004 333 91208 555 11058 22060 31945 42508 61949 247056 254049 248042 246037 250047 257054;
0219992780999992011010421004+43533-070083FM-18+0000DB278V0202601N007019999999N9999999N1-00041+99999100811ADDMD1610181+9999OA159900801REMSYN182BBXX  44007 04211 99435 70701 46/// /2607 11004 40081 56018 92050 22200 00057 10401 20401 70004 333 91208 555 11073 22076 32008 42610 62049 263069 261070 263070 257074 250075 247064;
0219992780999992011010422004+43533-070083FM-18+0000DB278V0202601N006019999999N9999999N1-00081+99999100811ADDMD1610101+9999OA159900701REMSYN182BBXX  44007 04221 99435 70701 46/// /2606 11008 40081 56010 92150 22200 00052 10401 20401 70004 333 91207 555 11060 22062 32108 42708 62149 262058 263059 261061 264064 262067 263069;
0219992780999992011010423004+43533-070083FM-18+0000DB278V0202901N003019999999N9999999N1-00031+99999100771ADDMD1810071+9999OA159900401REMSYN182BBXX  44007 04231 99435 70701 46/// /2903 11003 40077 58007 92250 22200 00048 10401 20401 70004 333 91204 555 11035 22036 32156 42707 62249 287035 269036 266039 263040 262045 264050;
0227992780999992011010500004+43533-070083FM-18+0000DB278V0203101N003019999999N9999999N1-00041+99999100721ADDMD1810091+9999OA159900301SA1+0469REMSYN182BBXX  44007 05001 99435 70701 46/// /3103 11004 40072 58009 92350 22200 00046 10401 20401 70003 333 91203 555 11028 22028 32305 43004 62349 307027 309023 317025 317030 302030 287031;
0227992780999992011010501004+43533-070083FM-18+0000DB278V0202801N004019999999N9999999N1-00021+99999100651ADDMD1810161+9999OA159900501SA1+0459REMSYN182BBXX  44007 05011 99435 70701 46/// /2804 11002 40065 58016 90050 22200 00045 10401 20401 70004 333 91205 555 11038 22039 32350 42905 60049 282037 283035 279034 286032 301032 305030;
0227992780999992011010502004+43533-070083FM-18+0000DB278V0202801N004019999999N9999999N1+00001+99999100591ADDMD1810181+9999OA159900501SA1+0469REMSYN182BBXX  44007 05021 99435 70701 46/// /2804 10000 40059 58018 90150 22200 00046 10401 20401 70004 333 91205 555 11045 22046 30143 42905 60149 283043 284038 287034 279036 281039 287041;
0227992780999992011010503004+43533-070083FM-18+0000DB278V0202701N005019999999N9999999N1+00051+99999100551ADDMD1610171+9999OA159900601SA1+0489REMSYN182BBXX  44007 05031 99435 70701 46/// /2705 10005 40055 56017 90250 22200 00048 10401 20401 70003 333 91206 555 11052 22054 30249 42606 60249 266049 275044 267045 267043 273043 277042;
0227992780999992011010504004+43533-070083FM-18+0000DB278V0202801N007019999999N9999999N1+00041+99999100511ADDMD1610141+9999OA159900801SA1+0499REMSYN182BBXX  44007 05041 99435 70701 46/// /2807 10004 40051 56014 90350 22200 00049 10201 20201 70003 333 91208 555 11071 22074 30342 42708 60349 276069 273066 274068 269069 266067 264058;
0227992780999992011010505004+43533-070083FM-18+0000DB278V0203101N005019999999N9999999N1-00101+99999100451ADDMD1810141+9999OA159900601SA1+0519REMSYN182BBXX  44007 05051 99435 70701 46/// /3105 11010 40045 58014 90450 22200 00051 10401 20401 70003 333 91206 555 11056 22058 30404 42808 60449 312053 306057 300058 298056 286064 283067;
0233992780999992011010506004+43533-070083FM-18+0000DB278V0203101N004019999999N9999999N1-00111+99999100421ADDMD1610131+9999OA159900501SA1+0529REMSYN188BBXX  44007 05061 99435 70701 46/// /3104 11011 40042 56013 90550 22200 00052 10501 3//// 40501 70004 333 91205 555 11043 22045 30505 43207 60549 310043 305053 308056 305055 311057 309054;
0233992780999992011010507004+43533-070083FM-18+0000DB278V0202901N004019999999N9999999N1-00071+99999100441ADDMD1610071+9999OA159900501SA1+0529REMSYN188BBXX  44007 05071 99435 70701 46/// /2904 11007 40044 56007 90650 22200 00052 10501 3//// 40501 70005 333 91205 555 11042 22043 30555 42905 60649 290041 285041 286041 293038 300036 297038;
0233992780999992011010508004+43533-070083FM-18+0000DB278V0202901N004019999999N9999999N1-00061+99999100441ADDMD1510001+9999OA159900501SA1+0529REMSYN188BBXX  44007 05081 99435 70701 46/// /2904 11006 40044 55000 90750 22200 00052 10501 3//// 40501 70005 333 91205 555 11043 22045 30650 43006 60749 288042 287039 284038 284041 283043 291041;
0233992780999992011010509004+43533-070083FM-18+0000DB278V0202901N004019999999N9999999N1-00121+99999100431ADDMD1410001+9999OA159900501SA1+0529REMSYN188BBXX  44007 05091 99435 70701 46/// /2904 11012 40043 54000 90850 22200 00052 10501 3//// 40501 70005 333 91205 555 11042 22043 30808 42805 60849 293040 290040 289040 280044 283045 293043;
0233992780999992011010510004+43533-070083FM-18+0000DB278V0203001N004019999999N9999999N1-00171+99999100441ADDMD1410001+9999OA159900501SA1+0519REMSYN188BBXX  44007 05101 99435 70701 46/// /3004 11017 40044 54000 90950 22200 00051 10501 3//// 40501 70005 333 91205 555 11044 22046 30919 42706 60949 300043 296040 287044 284044 286039 292037;
0239992780999992011010511004+43533-070083FM-18+0000DB278V0203101N005019999999N9999999N1-00261+99999100471ADDMD1310031+9999OA159900601SA1+0529REMSYN194BBXX  44007 05111 99435 70701 46/// /3105 11026 40047 53003 91050 22200 00052 10501 20301 3//// 40501 70005 333 91206 555 11050 22051 31007 43107 61049 313047 315048 299050 303050 309051 301047;
0227992780999992011010512004+43533-070083FM-18+0000DB278V0202901N007019999999N9999999N1-00231+99999100481ADDMD1210051+9999OA159900801SA1+0529REMSYN182BBXX  44007 05121 99435 70701 46/// /2907 11023 40048 52005 91150 22200 00052 10501 20501 70004 333 91208 555 11069 22071 31135 42908 61149 286067 288068 290063 294058 296054 295048;
0219992780999992011010513004+43533-070083FM-18+0000DB278V0202801N006019999999N9999999N1-00201+99999100511ADDMD1210071+9999OA159900801REMSYN182BBXX  44007 05131 99435 70701 46/// /2806 11020 40051 52007 91250 22200 00050 10501 20501 70005 333 91208 555 11067 22069 31220 42809 61249 278065 277064 282069 284068 279070 281069;
0227992780999992011010514004+43533-070083FM-18+0000DB278V0202801N009019999999N9999999N1-00071+99999100501ADDMD1210031+9999OA159901001SA1+0519REMSYN182BBXX  44007 05141 99435 70701 46/// /2809 11007 40050 52003 91350 22200 00051 10301 20301 70005 333 91210 555 11089 22093 31330 42810 61349 280085 275087 275088 275080 275074 271076;
0227992780999992011010515004+43533-070083FM-18+0000DB278V0202801N009019999999N9999999N1-00061+99999100491ADDMD1010001+9999OA159901001SA1+0529REMSYN182BBXX  44007 05151 99435 70701 46/// /2809 11006 40049 50000 91450 22200 00052 10301 20301 70006 333 91210 555 11089 22093 31405 42811 61449 281084 284088 282093 281090 282090 284086;
0227992780999992011010516004+43533-070083FM-18+0000DB278V0202801N010019999999N9999999N1+00041+99999100421ADDMD1810091+9999OA159901101SA1+0529REMSYN182BBXX  44007 05161 99435 70701 46/// /2810 10004 40042 58009 91550 22200 00052 10301 20301 70006 333 91211 555 11100 22105 31525 42912 61549 277094 278092 282094 283091 282086 285075;
0227992780999992011010517004+43533-070083FM-18+0000DB278V0202701N008019999999N9999999N1+00101+99999100361ADDMD1810141+9999OA159901001SA1+0539REMSYN182BBXX  44007 05171 99435 70701 46/// /2708 10010 40036 58014 91650 22200 00053 10301 20301 70006 333 91210 555 11089 22093 31552 42711 61649 272083 272085 277088 277084 275087 274089;
0227992780999992011010518004+43533-070083FM-18+0000DB278V0202701N006019999999N9999999N1+00131+99999100361ADDMD1610131+9999OA159900701SA1+0559REMSYN182BBXX  44007 05181 99435 70701 46/// /2706 10013 40036 56013 91750 22200 00055 10401 20401 70005 333 91207 555 11057 22059 31715 42711 61749 272056 279069 279070 277084 274077 269079;
0227992780999992011010519004+43533-070083FM-18+0000DB278V0203301N006019999999N9999999N1+00021+99999100351ADDMD1610071+9999OA159900701SA1+0539REMSYN182BBXX  44007 05191 99435 70701 46/// /3306 10002 40035 56007 91850 22200 00053 10301 20301 70004 333 91207 555 11060 22063 31812 43309 61849 328056 340066 346063 336062 297050 275048;
0227992780999992011010520004+43533-070083FM-18+0000DB278V0202701N006019999999N9999999N1+00011+99999100401ADDMD1310041+9999OA159900701SA1+0529REMSYN182BBXX  44007 05201 99435 70701 46/// /2706 10001 40040 53004 91950 22200 00052 10401 20401 70005 333 91207 555 11066 22068 31922 42810 61949 271062 290064 300067 291058 293048 309039;
0227992780999992011010521004+43533-070083FM-18+0000DB278V0202801N007019999999N9999999N1+00061+99999100411ADDMD1210051+9999OA159900801SA1+0519REMSYN182BBXX  44007 05211 99435 70701 46/// /2807 10006 40041 52005 92050 22200 00051 10301 20301 70004 333 91208 555 11072 22075 32000 42708 62049 276069 267065 262058 258055 263062 265065;
0227992780999992011010522004+43533-070083FM-18+0000DB278V0202801N009019999999N9999999N1+00091+99999100411ADDMD1110061+9999OA159901201SA1+0499REMSYN182BBXX  44007 05221 99435 70701 46/// /2809 10009 40041 51006 92150 22200 00049 10301 20301 70004 333 91212 555 11099 22104 32147 42812 62149 279094 285083 282090 277081 273069 271074;
0219992780999992011010523004+43533-070083FM-18+0000DB278V0202901N008019999999N9999999N1+00031+99999100451ADDMD1310051+9999OA159901001REMSYN182BBXX  44007 05231 99435 70701 46/// /2908 10003 40045 53005 92250 22200 00050 10301 20301 70006 333 91210 555 11086 22090 32151 42912 62249 287082 295078 288096 288091 285090 284100;
0219992780999992011010600004+43533-070083FM-18+0000DB278V0202901N007019999999N9999999N1-00011+99999100521ADDMD1310111+9999OA159900901REMSYN182BBXX  44007 06001 99435 70701 46/// /2907 11001 40052 53011 92350 22200 00050 10401 20401 70005 333 91209 555 11071 22074 32256 42811 62349 290069 289070 285073 287080 288090 280090;
0219992780999992011010601004+43533-070083FM-18+0000DB278V0202801N008019999999N9999999N1-00051+99999100501ADDMD1110091+9999OA159901101REMSYN182BBXX  44007 06011 99435 70701 46/// /2808 11005 40050 51009 90050 22200 00050 10301 20301 70004 333 91211 555 11088 22092 30047 42811 60049 278084 278070 277064 276069 281062 286063;
0227992780999992011010602004+43533-070083FM-18+0000DB278V0203001N007019999999N9999999N1-00131+99999100501ADDMD1110051+9999OA159900801SA1+0499REMSYN182BBXX  44007 06021 99435 70701 46/// /3007 11013 40050 51005 90150 22200 00049 10301 20301 70004 333 91208 555 11073 22076 30056 42812 60149 297069 299073 293082 290094 287093 280096;
0227992780999992011010603004+43533-070083FM-18+0000DB278V0202901N007019999999N9999999N1-00191+99999100501ADDMD1410001+9999OA159900901SA1+0499REMSYN182BBXX  44007 06031 99435 70701 46/// /2907 11019 40050 54000 90250 22200 00049 10301 20301 70004 333 91209 555 11073 22076 30249 42809 60249 285071 281068 299061 300062 292067 297063;
0227992780999992011010604004+43533-070083FM-18+0000DB278V0202901N007019999999N9999999N1-00261+99999100531ADDMD1310031+9999OA159901001SA1+0499REMSYN182BBXX  44007 06041 99435 70701 46/// /2907 11026 40053 53003 90350 22200 00049 10301 20301 70004 333 91210 555 11073 22076 30258 42810 60349 290070 292067 288072 289071 289078 285081;
0227992780999992011010605004+43533-070083FM-18+0000DB278V0202801N008019999999N9999999N1-00311+99999100481ADDMD1010001+9999OA159901001SA1+0499REMSYN182BBXX  44007 06051 99435 70701 46/// /2808 11031 40048 50000 90450 22200 00049 10301 20301 70005 333 91210 555 11086 22089 30416 42910 60449 281080 283078 288079 287079 285080 285076;
0219992780999992011010606004+43533-070083FM-18+0000DB278V0202801N009019999999N9999999N1-00341+99999100461ADDMD1810041+9999OA159901101REMSYN182BBXX  44007 06061 99435 70701 46/// /2809 11034 40046 58004 90550 22200 00050 10301 20301 70005 333 91211 555 11095 22098 30542 42911 60549 282090 281083 285083 282087 278083 282081;
0227992780999992011010607004+43533-070083FM-18+0000DB278V0202901N009019999999N9999999N1-00391+99999100481ADDMD1610051+9999OA159901101SA1+0549REMSYN182BBXX  44007 06071 99435 70701 46/// /2909 11039 40048 56005 90650 22200 00054 10301 20301 70005 333 91211 555 11092 22096 30647 42911 60649 292088 289081 287079 290083 281085 282087;
0219992780999992011010608004+43533-070083FM-18+0000DB278V0203001N006019999999N9999999N1-00451+99999100511ADDMD1310031+9999OA159900801REMSYN182BBXX  44007 06081 99435 70701 46/// /3006 11045 40051 53003 90750 22200 00050 10301 20301 70004 333 91208 555 11067 22069 30653 43010 60749 298064 299069 295073 296080 298082 296087;
0227992780999992011010609004+43533-070083FM-18+0000DB278V0202901N007019999999N9999999N1-00471+99999100511ADDMD1210051+9999OA159900801SA1+0499REMSYN182BBXX  44007 06091 99435 70701 46/// /2907 11047 40051 52005 90850 22200 00049 11101 20301 70003 333 91208 555 11068 22070 30808 43008 60849 290065 292065 296062 293065 302067 296065;
0221992780999992011010610004+43533-070083FM-18+0000DB278V0202801N007019999999N9999999N1-00461+99999100551ADDMD1310071+9999OA159900801SA1+0499REMSYN176BBXX  44007 06101 99435 70701 46/// /2807 11046 40055 53007 90950 22200 00049 10801 70003 333 91208 555 11069 22071 30909 42808 60949 281067 280063 282062 287063 283065 291063;
0221992780999992011010611004+43533-070083FM-18+0000DB278V0202801N006019999999N9999999N1-00441+99999100571ADDMD1210061+9999OA159900701SA1+0479REMSYN176BBXX  44007 06111 99435 70701 46/// /2806 11044 40057 52006 91050 22200 00047 10201 70003 333 91207 555 11058 22060 31002 42908 61049 282056 286062 281063 280063 280065 282066;
0227992780999992011010612004+43533-070083FM-18+0000DB278V0202801N005019999999N9999999N1-00451+99999100601ADDMD1110091+9999OA159900701SA1+0489REMSYN182BBXX  44007 06121 99435 70701 46/// /2805 11045 40060 51009 91150 22200 00048 10801 20301 70003 333 91207 555 11055 22057 31107 42807 61149 282052 282052 283051 278057 281058 285057;
0233992780999992011010613004+43533-070083FM-18+0000DB278V0202801N005019999999N9999999N1-00471+99999100581ADDMD1210031+9999OA159900701SA1+0489REMSYN188BBXX  44007 06131 99435 70701 46/// /2805 11047 40058 52003 91250 22200 00048 11501 3//// 41501 70004 333 91207 555 11056 22058 31158 42707 61249 282054 282049 282051 283056 279055 277055;
0227992780999992011010614004+43533-070083FM-18+0000DB278V0202901N006019999999N9999999N1-00461+99999100561ADDMD1010001+9999OA159900701SA1+0499REMSYN182BBXX  44007 06141 99435 70701 46/// /2906 11046 40056 50000 91350 22200 00049 10701 20301 70003 333 91207 555 11059 22061 31317 42808 61349 288057 277062 276064 279061 284052 283049;
0227992780999992011010615004+43533-070083FM-18+0000DB278V0202901N006019999999N9999999N1-00461+99999100551ADDMD1710051+9999OA159900701SA1+0499REMSYN182BBXX  44007 06151 99435 70701 46/// /2906 11046 40055 57005 91450 22200 00049 10801 20301 70003 333 91207 555 11057 22059 31427 42908 61449 285055 286061 291063 288063 285057 288060;
0219992780999992011010616004+43533-070083FM-18+0000DB278V0203001N004019999999N9999999N1-00391+99999100471ADDMD1810111+9999OA159900501REMSYN182BBXX  44007 06161 99435 70701 46/// /3004 11039 40047 58011 91550 22200 00050 10701 20301 70003 333 91205 555 11044 22046 31456 43007 61549 295043 291049 295049 296046 291051 291053;
0233992780999992011010617004+43533-070083FM-18+0000DB278V0202901N003019999999N9999999N1-00361+99999100401ADDMD1810161+9999OA159900401SA1+0519REMSYN188BBXX  44007 06171 99435 70701 46/// /2903 11036 40040 58016 91650 22200 00051 11101 3//// 41101 70003 333 91204 555 11026 22026 31623 42805 61649 291027 285033 274032 265034 277033 286036;
0221992780999992011010618004+43533-070083FM-18+0000DB278V0202901N002019999999N9999999N1-00291+99999100331ADDMD1610221+9999OA159900301SA1+0519REMSYN176BBXX  44007 06181 99435 70701 46/// /2902 11029 40033 56022 91750 22200 00051 10801 70003 333 91203 555 11018 22019 31705 42905 61749 290017 266014 257025 293028 294031 282029;
0221992780999992011010619004+43533-070083FM-18+0000DB278V0203001N002019999999N9999999N1-00211+99999100321ADDMD1610151+9999OA159900301SA1+0519REMSYN176BBXX  44007 06191 99435 70701 46/// /3002 11021 40032 56015 91850 22200 00051 11101 70003 333 91203 555 11015 22016 31845 43003 61849 304013 296008 262008 282011 234007 275014;
0221992780999992011010620004+43533-070083FM-18+0000DB278V0203001N001019999999N9999999N1-00181+99999100351ADDMD1510051+9999OA159900201SA1+0529REMSYN176BBXX  44007 06201 99435 70701 46/// /3001 11018 40035 55005 91950 22200 00052 10801 70003 333 91202 555 11009 22009 31859 43604 61949 295008 331004 346014 356012 009014 305011;
0225992780999992011010621004+43533-070083FM-18+0000DB278V0202301N001019999999N9999999N1-00171+99999100391ADDMD1310061+9999OA159900101REMSYN188BBXX  44007 06211 99435 70701 46/// /2301 11017 40039 53006 92050 22200 00050 11101 3//// 41101 70003 333 91201 555 11006 22006 31954 42902 62049 235006 255005 238004 211003 257005 277008;
0225992780999992011010622004+43533-070083FM-18+0000DB278V0203401N004019999999N9999999N1-00181+99999100381ADDMD1110061+9999OA159900501REMSYN188BBXX  44007 06221 99435 70701 46/// /3404 11018 40038 51006 92150 22200 00050 11001 3//// 41001 70003 333 91205 555 11037 22038 32146 43505 62149 338035 327027 319022 306021 278008 195007;
0225992780999992011010623004+43533-070083FM-18+0000DB278V0203401N003019999999N9999999N1-00191+99999100421ADDMD1210071+9999OA159900401REMSYN188BBXX  44007 06231 99435 70701 46/// /3403 11019 40042 52007 92250 22200 00050 10801 3//// 40801 70003 333 91204 555 11027 22027 32214 43305 62249 338026 332024 330024 324028 311030 330034;
0233992780999992011010700004+43533-070083FM-18+0000DB278V0203401N003019999999N9999999N1-00181+99999100411ADDMD1410001+9999OA159900401SA1+0499REMSYN188BBXX  44007 07001 99435 70701 46/// /3403 11018 40041 54000 92350 22200 00049 11101 3//// 41101 70003 333 91204 555 11027 22027 32331 43405 62349 341026 340028 353032 339026 314025 330019;
0233992780999992011010701004+43533-070083FM-18+0000DB278V0203401N003019999999N9999999N1-00181+99999100401ADDMD1010001+9999OA159900501SA1+0499REMSYN188BBXX  44007 07011 99435 70701 46/// /3403 11018 40040 50000 90050 22200 00049 10801 3//// 40801 70003 333 91205 555 11030 22030 30006 43105 60049 345029 006026 352028 344029 333024 339030;
0225992780999992011010702004+43533-070083FM-18+0000DB278V0203201N004019999999N9999999N1-00191+99999100391ADDMD1710031+9999OA159900501REMSYN188BBXX  44007 07021 99435 70701 46/// /3204 11019 40039 57003 90150 22200 00050 10801 3//// 40801 70003 333 91205 555 11040 22041 30103 43206 60149 323039 325041 326048 319043 317041 330034;
0233992780999992011010703004+43533-070083FM-18+0000DB278V0200201N006019999999N9999999N1-00201+99999100361ADDMD1810051+9999OA159900801SA1+0499REMSYN188BBXX  44007 07031 99435 70701 46/// /0206 11020 40036 58005 90250 22200 00049 10701 3//// 40701 70003 333 91208 555 11065 22067 30249 40308 60249 022061 016049 358042 345038 344035 333040;
0231992780999992011010704004+43533-070083FM-18+0000DB278V0200301N006019999999N9999999N1-00241+99999100321ADDMD1810081+9999OA159900801REMSYN194BBXX  44007 07041 99435 70701 46/// /0306 11024 40032 58008 90350 22200 00050 10301 20301 3//// 40801 70005 333 91208 555 11065 22067 30251 40209 60349 029062 034059 035059 032063 022061 025068;
0239992780999992011010705004+43533-070083FM-18+0000DB278V0200501N005019999999N9999999N1-00251+99999100261ADDMD1810131+9999OA159900701SA1+0519REMSYN194BBXX  44007 07051 99435 70701 46/// /0505 11025 40026 58013 90450 22200 00051 10301 20301 3//// 40801 70005 333 91207 555 11056 22058 30356 40408 60449 046054 038054 039057 037057 032057 035061;
0239992780999992011010706004+43533-070083FM-18+0000DB278V0200501N005019999999N9999999N1-00231+99999100261ADDMD1610101+9999OA159900601SA1+0519REMSYN194BBXX  44007 07061 99435 70701 46/// /0505 11023 40026 56010 90550 22200 00051 10301 20301 3//// 40801 70005 333 91206 555 11051 22052 30501 40408 60549 046050 042051 036050 046053 029054 037054;
0239992780999992011010707004+43533-070083FM-18+0000DB278V0200101N006019999999N9999999N1-00241+99999100281ADDMD1610041+9999OA159900701SA1+0519REMSYN194BBXX  44007 07071 99435 70701 46/// /0106 11024 40028 56004 90650 22200 00051 10301 20301 3//// 40701 70005 333 91207 555 11059 22061 30643 40107 60649 016057 018051 025045 025045 040046 047045;
0227992780999992011010708004+43533-070083FM-18+0000DB278V0200101N007019999999N9999999N1-00301+99999100271ADDMD1410001+9999OA159900901SA1+0519REMSYN182BBXX  44007 07081 99435 70701 46/// /0107 11030 40027 54000 90750 22200 00051 10301 20301 70005 333 91209 555 11072 22075 30732 40209 60749 011068 012067 014066 012066 009063 013061;
0227992780999992011010709004+43533-070083FM-18+0000DB278V0200201N006019999999N9999999N1-00321+99999100261ADDMD1410001+9999OA159900801SA1+0539REMSYN182BBXX  44007 07091 99435 70701 46/// /0206 11032 40026 54000 90850 22200 00053 10301 20301 70005 333 91208 555 11065 22067 30824 40109 60849 016063 018064 022067 025065 022065 015065;
0227992780999992011010710004+43533-070083FM-18+0000DB278V0200301N008019999999N9999999N1-00301+99999100181ADDMD1810101+9999OA159900901SA1+0529REMSYN182BBXX  44007 07101 99435 70701 46/// /0308 11030 40018 58010 90950 22200 00052 10301 20301 70006 333 91209 555 11084 22087 30930 40310 60949 027080 029079 028080 019076 018070 016069;
0227992780999992011010711004+43533-070083FM-18+0000DB278V0200301N008019999999N9999999N1-00281+99999100221ADDMD1510051+9999OA159901001SA1+0539REMSYN182BBXX  44007 07111 99435 70701 46/// /0308 11028 40022 55005 91050 22200 00053 10401 20401 70007 333 91210 555 11084 22087 31040 40211 61049 028080 025079 025074 017077 026079 027082;
0227992780999992011010712004+43533-070083FM-18+0000DB278V0200201N008019999999N9999999N1-00331+99999100241ADDMD1510001+9999OA159901001SA1+0539REMSYN182BBXX  44007 07121 99435 70701 46/// /0208 11033 40024 55000 91150 22200 00053 10402 20401 70008 333 91210 555 11085 22088 31102 40311 61149 021081 018084 015086 030086 033085 030082;
0239992780999992011010713004+43533-070083FM-18+0000DB278V0200301N009019999999N9999999N1-00371+99999100251ADDMD1110071+9999OA159901101SA1+0539REMSYN194BBXX  44007 07131 99435 70701 46/// /0309 11037 40025 51007 91250 22200 00053 10402 20402 3//// 40701 70009 333 91211 555 11092 22096 31248 40211 61249 027088 023083 017087 018085 027085 017085;
0227992780999992011010714004+43533-070083FM-18+0000DB278V0200301N009019999999N9999999N1-00371+99999100221ADDMD1010001+9999OA159901001SA1+0569REMSYN182BBXX  44007 07141 99435 70701 46/// /0309 11037 40022 50000 91350 22200 00056 10402 20402 70009 333 91210 555 11091 22095 31334 40311 61349 028087 025092 026090 019088 024088 023085;
0227992780999992011010715004+43533-070083FM-18+0000DB278V0200301N009019999999N9999999N1-00381+99999100171ADDMD1810071+9999OA159901101SA1+0589REMSYN182BBXX  44007 07151 99435 70701 46/// /0309 11038 40017 58007 91450 22200 00058 10402 20402 70010 333 91211 555 11097 22101 31415 40311 61449 029090 025090 027091 027090 028088 026088;
0227992780999992011010716004+43533-070083FM-18+0000DB278V0200201N008019999999N9999999N1-00351+99999100071ADDMD1810181+9999OA159901001SA1+0599REMSYN182BBXX  44007 07161 99435 70701 46/// /0208 11035 40007 58018 91550 22200 00059 10502 20502 70010 333 91210 555 11085 22088 31454 40211 61549 024081 026084 027086 031087 031091 029091;
0227992780999992011010717004+43533-070083FM-18+0000DB278V0200101N007019999999N9999999N1-00321+99999099981ADDMD1810241+9999OA159900901SA1+0599REMSYN182BBXX  44007 07171 99435 70701 46/// /0107 11032 49998 58024 91650 22200 00059 10502 20502 70009 333 91209 555 11075 22078 31556 40210 61649 013072 017071 020074 019075 016079 022081;
0227992780999992011010718004+43533-070083FM-18+0000DB278V0200201N007019999999N9999999N1-00271+99999099951ADDMD1610221+9999OA159900901SA1+0589REMSYN182BBXX  44007 07181 99435 70701 46/// /0207 11027 49995 56022 91750 22200 00058 10402 20402 70009 333 91209 555 11077 22080 31654 40109 61749 019074 016075 021073 013072 016069 014073;
0227992780999992011010719004+43533-070083FM-18+0000DB278V0200301N006019999999N9999999N1-00221+99999099971ADDMD1610101+9999OA159900801SA1+0579REMSYN182BBXX  44007 07191 99435 70701 46/// /0306 11022 49997 56010 91850 22200 00057 10502 20502 70008 333 91208 555 11063 22066 31827 40309 61849 028061 026065 026068 019069 016069 021074;
0227992780999992011010720004+43533-070083FM-18+0000DB278V0200301N008019999999N9999999N1-00221+99999099941ADDMD1710041+9999OA159900901SA1+0579REMSYN182BBXX  44007 07201 99435 70701 46/// /0308 11022 49994 57004 91950 22200 00057 10502 20502 70008 333 91209 555 11078 22081 31943 40209 61949 025074 022069 022065 024066 027061 024061;
0227992780999992011010721004+43533-070083FM-18+0000DB278V0200301N008019999999N9999999N1-00181+99999099901ADDMD1810051+9999OA159901001SA1+0589REMSYN182BBXX  44007 07211 99435 70701 46/// /0308 11018 49990 58005 92050 22200 00058 10502 20502 70008 333 91210 555 11083 22086 32043 40310 62049 027078 024078 021077 021076 027075 026073;
0227992780999992011010722004+43533-070083FM-18+0000DB278V0200301N008019999999N9999999N1-00161+99999099881ADDMD1610091+9999OA159900901SA1+0599REMSYN182BBXX  44007 07221 99435 70701 46/// /0308 11016 49988 56009 92150 22200 00059 10501 20501 70007 333 91209 555 11080 22083 32118 40310 62149 025076 021074 027070 027072 023075 025076;
0227992780999992011010723004+43533-070083FM-18+0000DB278V0200201N009019999999N9999999N1-00181+99999099881ADDMD1610061+9999OA159901001SA1+0559REMSYN182BBXX  44007 07231 99435 70701 46/// /0209 11018 49988 56006 92250 22200 00055 10502 20502 70008 333 91210 555 11094 22098 32214 40210 62249 018088 022084 019082 020081 024079 021078;
0227992780999992011010800004+43533-070083FM-18+0000DB278V0200201N009019999999N9999999N1-00201+99999099861ADDMD1710041+9999OA159901101SA1+0579REMSYN182BBXX  44007 08001 99435 70701 46/// /0209 11020 49986 57004 92350 22200 00057 10302 20302 70008 333 91211 555 11095 22099 32312 40111 62349 019090 016090 015089 014094 018088 018088;
0227992780999992011010801004+43533-070083FM-18+0000DB278V0200201N009019999999N9999999N1-00271+99999099861ADDMD1410001+9999OA159901001SA1+0459REMSYN182BBXX  44007 08011 99435 70701 46/// /0209 11027 49986 54000 90050 22200 00045 10402 20402 70008 333 91210 555 11092 22096 30031 40111 60049 015088 015087 015089 010086 010086 012088;
0227992780999992011010802004+43533-070083FM-18+0000DB278V0200101N009019999999N9999999N1-00321+99999099881ADDMD1410001+9999OA159901001SA1+0459REMSYN182BBXX  44007 08021 99435 70701 46/// /0109 11032 49988 54000 90150 22200 00045 10402 20402 70008 333 91210 555 11091 22095 30104 40211 60149 009087 015085 019088 021089 016086 013087;
0227992780999992011010803004+43533-070083FM-18+0000DB278V0200101N008019999999N9999999N1-00361+99999099841ADDMD1010001+9999OA159901101SA1+0469REMSYN182BBXX  44007 08031 99435 70701 46/// /0108 11036 49984 50000 90250 22200 00046 10402 20402 70008 333 91211 555 11088 22092 30155 40111 60249 011084 012084 012082 012084 016085 012088;
0227992780999992011010804004+43533-070083FM-18+0000DB278V0200101N009019999999N9999999N1-00371+99999099801ADDMD1810061+9999OA159901001SA1+0469REMSYN182BBXX  44007 08041 99435 70701 46/// /0109 11037 49980 58006 90350 22200 00046 10402 20402 70008 333 91210 555 11090 22094 30302 40110 60349 006085 010082 008080 007081 010084 006081;
0227992780999992011010805004+43533-070083FM-18+0000DB278V0203601N008019999999N9999999N1-00361+99999099781ADDMD1610101+9999OA159900901SA1+0459REMSYN182BBXX  44007 08051 99435 70701 46/// /3608 11036 49978 56010 90450 22200 00045 10402 20402 70008 333 91209 555 11084 22087 30351 43610 60449 001080 005083 007082 001082 005083 003083;
0227992780999992011010806004+43533-070083FM-18+0000DB278V0200101N008019999999N9999999N1-00391+99999099791ADDMD1610051+9999OA159900901SA1+0459REMSYN182BBXX  44007 08061 99435 70701 46/// /0108 11039 49979 56005 90550 22200 00045 10502 20502 70009 333 91209 555 11082 22085 30502 43511 60549 005078 003075 006078 009079 008079 359077;
0227992780999992011010807004+43533-070083FM-18+0000DB278V0203601N008019999999N9999999N1-00371+99999099741ADDMD1810061+9999OA159900901SA1+0459REMSYN182BBXX  44007 08071 99435 70701 46/// /3608 11037 49974 58006 90650 22200 00045 10502 20502 70008 333 91209 555 11081 22084 30622 43610 60649 001077 003076 004076 358072 359073 004076;
0227992780999992011010808004+43533-070083FM-18+0000DB278V0203601N007019999999N9999999N1-00331+99999099741ADDMD1710041+9999OA159900901SA1+0459REMSYN182BBXX  44007 08081 99435 70701 46/// /3607 11033 49974 57004 90750 22200 00045 10502 20501 70008 333 91209 555 11074 22077 30725 40110 60749 000071 002072 003077 004073 002073 002076;
0227992780999992011010809004+43533-070083FM-18+0000DB278V0200101N007019999999N9999999N1-00331+99999099741ADDMD1610051+9999OA159900901SA1+0459REMSYN182BBXX  44007 08091 99435 70701 46/// /0107 11033 49974 56005 90850 22200 00045 10501 20501 70007 333 91209 555 11073 22076 30751 40110 60849 005069 358070 354064 358067 359070 003071;
0227992780999992011010810004+43533-070083FM-18+0000DB278V0200101N007019999999N9999999N1-00291+99999099731ADDMD1410001+9999OA159900901SA1+0459REMSYN182BBXX  44007 08101 99435 70701 46/// /0107 11029 49973 54000 90950 22200 00045 10501 20501 70007 333 91209 555 11074 22077 30903 43609 60949 011071 012066 005065 004067 006068 007072;
0227992780999992011010811004+43533-070083FM-18+0000DB278V0200201N007019999999N9999999N1-00281+99999099761ADDMD1510001+9999OA159900801SA1+0449REMSYN182BBXX  44007 08111 99435 70701 46/// /0207 11028 49976 55000 91050 22200 00044 10501 20501 70007 333 91208 555 11068 22070 31009 40110 61049 019065 020068 024072 026071 022073 017074;
0227992780999992011010812004+43533-070083FM-18+0000DB278V0200101N006019999999N9999999N1-00251+99999099771ADDMD1210031+9999OA159900801SA1+0459REMSYN182BBXX  44007 08121 99435 70701 46/// /0106 11025 49977 52003 91150 22200 00045 11101 20501 70006 333 91208 555 11066 22068 31129 40108 61149 007063 010065 010065 006066 005066 014063;
0239992780999992011010813004+43533-070083FM-18+0000DB278V0203601N006019999999N9999999N1-00251+99999099841ADDMD1310111+9999OA159900701SA1+0459REMSYN194BBXX  44007 08131 99435 70701 46/// /3606 11025 49984 53011 91250 22200 00045 10501 20501 3//// 40901 70006 333 91207 555 11058 22060 31200 40108 61249 003056 003056 006055 009055 011056 005061;
0227992780999992011010814004+43533-070083FM-18+0000DB278V0200101N006019999999N9999999N1-00261+99999099851ADDMD1210091+9999OA159900701SA1+0469REMSYN182BBXX  44007 08141 99435 70701 46/// /0106 11026 49985 52009 91350 22200 00046 10301 20301 70006 333 91207 555 11066 22068 31344 40207 61349 005063 002058 354053 356053 356052 004051;
0239992780999992011010815004+43533-070083FM-18+0000DB278V0200101N006019999999N9999999N1-00231+99999099881ADDMD1110111+9999OA159900701SA1+0459REMSYN194BBXX  44007 08151 99435 70701 46/// /0106 11023 49988 51011 91450 22200 00045 11301 20301 3//// 41301 70006 333 91207 555 11062 22065 31353 43608 61449 007060 004059 009061 009061 003061 003063;
0239992780999992011010816004+43533-070083FM-18+0000DB278V0200101N006019999999N9999999N1-00201+99999099821ADDMD1010001+9999OA159900801SA1+0459REMSYN194BBXX  44007 08161 99435 70701 46/// /0106 11020 49982 50000 91550 22200 00045 11101 20301 3//// 41101 70007 333 91208 555 11063 22065 31530 40108 61549 012061 009067 006067 005061 012059 011062;
0239992780999992011010817004+43533-070083FM-18+0000DB278V0200201N006019999999N9999999N1-00151+99999099731ADDMD1810121+9999OA159900701SA1+0459REMSYN194BBXX  44007 08171 99435 70701 46/// /0206 11015 49973 58012 91650 22200 00045 11202 20501 3//// 41201 70008 333 91207 555 11063 22065 31553 40108 61649 015060 014063 012063 014057 013058 013057;
0239992780999992011010818004+43533-070083FM-18+0000DB278V0200101N006019999999N9999999N1-00061+99999099691ADDMD1610191+9999OA159900701SA1+0469REMSYN194BBXX  44007 08181 99435 70701 46/// /0106 11006 49969 56019 91750 22200 00046 11102 20301 3//// 41101 70008 333 91207 555 11057 22059 31705 40108 61749 013056 013061 012061 017061 019064 012062;
0239992780999992011010819004+43533-070083FM-18+0000DB278V0200201N005019999999N9999999N1+00001+99999099661ADDMD1610161+9999OA159900601SA1+0469REMSYN194BBXX  44007 08191 99435 70701 46/// /0205 10000 49966 56016 91850 22200 00046 11102 20301 3//// 41102 70009 333 91206 555 11050 22051 31813 40309 61849 021049 028051 027065 030075 021068 022058;
0239992780999992011010820004+43533-070083FM-18+0000DB278V0200201N004019999999N9999999N1+00051+99999099681ADDMD1610051+9999OA159900501SA1+0469REMSYN194BBXX  44007 08201 99435 70701 46/// /0204 10005 49968 56005 91950 22200 00046 11002 20301 3//// 41002 70010 333 91205 555 11036 22037 31909 40206 61949 021034 033032 039033 034037 026046 017048;
0239992780999992011010821004+43533-070083FM-18+0000DB278V0200201N005019999999N9999999N1+00081+99999099631ADDMD1810061+9999OA159900601SA1+0469REMSYN194BBXX  44007 08211 99435 70701 46/// /0205 10008 49963 58006 92050 22200 00046 11102 20301 3//// 41102 70011 333 91206 555 11052 22054 32047 40106 62049 015050 019048 021045 022041 023043 025039;
0239992780999992011010822004+43533-070083FM-18+0000DB278V0200301N006019999999N9999999N1+00061+99999099631ADDMD1710031+9999OA159900801SA1+0469REMSYN194BBXX  44007 08221 99435 70701 46/// /0306 10006 49963 57003 92150 22200 00046 11002 20501 3//// 41002 70012 333 91208 555 11067 22070 32140 40308 62149 028064 032061 033061 030063 027058 018051;
0239992780999992011010823004+43533-070083FM-18+0000DB278V0200101N009019999999N9999999N1+00011+99999099561ADDMD1810121+9999OA159901101SA1+0469REMSYN194BBXX  44007 08231 99435 70701 46/// /0109 10001 49956 58012 92250 22200 00046 11103 20301 3//// 41102 70013 333 91211 555 11096 22101 32246 40111 62249 011091 015088 019083 022078 024071 025069;
0239992780999992011010900004+43533-070083FM-18+0000DB278V0203601N006019999999N9999999N1-00011+99999099701ADDMD1310071+9999OA159900801SA1+0469REMSYN194BBXX  44007 09001 99435 70701 46/// /3606 11001 49970 53007 92350 22200 00046 11003 20301 3//// 41002 70013 333 91208 555 11063 22065 32256 40211 62349 001060 008063 009073 012083 007089 010091;
0239992780999992011010901004+43533-070083FM-18+0000DB278V0200101N010019999999N9999999N1-00031+99999099481ADDMD1810151+9999OA159901201SA1+0469REMSYN194BBXX  44007 09011 99435 70701 46/// /0110 11003 49948 58015 90050 22200 00046 11003 20301 3//// 41002 70013 333 91212 555 11107 22112 30045 40112 60049 007100 008089 001082 004070 007074 001067;
0239992780999992011010902004+43533-070083FM-18+0000DB278V0203601N009019999999N9999999N1+00001+99999099521ADDMD1810041+9999OA159901001SA1+0469REMSYN194BBXX  44007 09021 99435 70701 46/// /3609 10000 49952 58004 90150 22200 00046 10903 20301 3//// 40902 70013 333 91210 555 11092 22096 30100 43512 60149 003088 003087 004093 002089 005093 004098;
0239992780999992011010903004+43533-070083FM-18+0000DB278V0203601N010019999999N9999999N1+00041+99999099431ADDMD1610271+9999OA159901201SA1+0479REMSYN194BBXX  44007 09031 99435 70701 46/// /3610 10004 49943 56027 90250 22200 00047 11102 20302 3//// 41102 70012 333 91212 555 11101 22106 30236 43512 60249 358096 358098 357096 355092 001090 005090;
0239992780999992011010904004+43533-070083FM-18+0000DB278V0203601N011019999999N9999999N1+00011+99999099331ADDMD1810151+9999OA159901401SA1+0479REMSYN194BBXX  44007 09041 99435 70701 46/// /3611 10001 49933 58015 90350 22200 00047 11103 20302 3//// 41102 70014 333 91214 555 11116 22121 30313 43514 60349 357108 356109 356103 352110 353108 355101;
0239992780999992011010905004+43533-070083FM-18+0000DB278V0203601N011019999999N9999999N1+00031+99999099271ADDMD1610251+9999OA159901301SA1+0479REMSYN194BBXX  44007 09051 99435 70701 46/// /3611 10003 49927 56025 90450 22200 00047 11103 20402 3//// 41102 70014 333 91213 555 11117 22123 30422 43515 60449 002109 357111 355116 355114 355115 357111;
0239992780999992011010906004+43533-070083FM-18+0000DB278V0203601N012019999999N9999999N1+00071+99999099201ADDMD1610231+9999OA159901501SA1+0489REMSYN194BBXX  44007 09061 99435 70701 46/// /3612 10007 49920 56023 90550 22200 00048 11103 20402 3//// 41102 70014 333 91215 555 11132 22139 30543 43615 60549 004125 006124 005121 004119 004116 001121;
0239992780999992011010907004+43533-070083FM-18+0000DB278V0200101N013019999999N9999999N1+00091+99999099201ADDMD1610131+9999OA159901601SA1+0489REMSYN194BBXX  44007 09071 99435 70701 46/// /0113 10009 49920 56013 90650 22200 00048 10403 20403 3//// 41101 70015 333 91216 555 11137 22145 30637 43618 60649 008129 009142 008138 007132 006140 006131;
0239992780999992011010908004+43533-070083FM-18+0000DB278V0200101N011019999999N9999999N1+00071+99999099301ADDMD1310031+9999OA159901401SA1+0499REMSYN194BBXX  44007 09081 99435 70701 46/// /0111 10007 49930 53003 90750 22200 00049 11103 20603 3//// 41102 70017 333 91214 555 11117 22123 30652 40116 60749 009110 008115 010116 009124 008124 011132;
0239992780999992011010909004+43533-070083FM-18+0000DB278V0203601N010019999999N9999999N1+00061+99999099391ADDMD1310191+9999OA159901201SA1+0489REMSYN194BBXX  44007 09091 99435 70701 46/// /3610 10006 49939 53019 90850 22200 00048 10603 20603 3//// 41102 70017 333 91212 555 11103 22108 30800 40213 60849 004097 004099 001096 006103 012109 007108;
0239992780999992011010910004+43533-070083FM-18+0000DB278V0203601N011019999999N9999999N1+00061+99999099441ADDMD1110241+9999OA159901501SA1+0489REMSYN194BBXX  44007 09101 99435 70701 46/// /3611 10006 49944 51024 90950 22200 00048 11003 20302 3//// 41003 70017 333 91215 555 11118 22124 30942 43615 60949 358111 002110 355112 355108 001097 003098;
0239992780999992011010911004+43533-070083FM-18+0000DB278V0203401N009019999999N9999999N1+00041+99999099561ADDMD1310261+9999OA159901101SA1+0489REMSYN194BBXX  44007 09111 99435 70701 46/// /3409 10004 49956 53026 91050 22200 00048 10703 20502 3//// 40703 70017 333 91211 555 11091 22095 31017 43613 61049 343086 341085 344083 352093 350096 351104;
0239992780999992011010912004+43533-070083FM-18+0000DB278V0203101N008019999999N9999999N1+00011+99999099611ADDMD1210221+9999OA159901001SA1+0489REMSYN194BBXX  44007 09121 99435 70701 46/// /3108 10001 49961 52022 91150 22200 00048 11003 20402 3//// 41003 70015 333 91210 555 11082 22086 31100 43510 61149 314078 321077 325079 328070 335075 338079;
0239992780999992011010913004+43533-070083FM-18+0000DB278V0203101N009019999999N9999999N1-00011+99999099701ADDMD1110261+9999OA159901101SA1+0489REMSYN194BBXX  44007 09131 99435 70701 46/// /3109 11001 49970 51026 91250 22200 00048 10703 20501 3//// 40703 70014 333 91211 555 11098 22103 31237 43212 61249 312093 312095 311091 314091 314091 312083;
0239992780999992011010914004+43533-070083FM-18+0000DB278V0203101N010019999999N9999999N1+00031+99999099801ADDMD1310241+9999OA159901201SA1+0479REMSYN194BBXX  44007 09141 99435 70701 46/// /3110 10003 49980 53024 91350 22200 00047 11003 20301 3//// 41003 70015 333 91212 555 11103 22107 31330 43213 61349 312095 310099 311089 312087 313088 309090;
0239992780999992011010915004+43533-070083FM-18+0000DB278V0203201N008019999999N9999999N1+00081+99999099851ADDMD1110241+9999OA159901101SA1+0489REMSYN194BBXX  44007 09151 99435 70701 46/// /3208 10008 49985 51024 91450 22200 00048 11003 20301 3//// 41003 70013 333 91211 555 11086 22090 31400 43211 61449 316083 311080 318079 315082 314087 314093;
0239992780999992011010916004+43533-070083FM-18+0000DB278V0202901N007019999999N9999999N1+00111+99999099821ADDMD1010121+9999OA159900901SA1+0489REMSYN194BBXX  44007 09161 99435 70701 46/// /2907 10011 49982 50012 91550 22200 00048 10702 20301 3//// 40702 70012 333 91209 555 11071 22074 31500 43113 61549 291068 289069 280074 283070 298074 313091;
0239992780999992011010917004+43533-070083FM-18+0000DB278V0203201N010019999999N9999999N1+00261+99999099751ADDMD1810051+9999OA159901301SA1+0499REMSYN194BBXX  44007 09171 99435 70701 46/// /3210 10026 49975 58005 91650 22200 00049 10702 20301 3//// 40702 70011 333 91213 555 11103 22108 31637 43113 61649 315096 311088 308082 311092 308085 306077;
0239992780999992011010918004+43533-070083FM-18+0000DB278V0203201N011019999999N9999999N1+00301+99999099761ADDMD1610091+9999OA159901501SA1+0499REMSYN194BBXX  44007 09181 99435 70701 46/// /3211 10030 49976 56009 91750 22200 00049 11002 20302 3//// 41001 70011 333 91215 555 11114 22120 31702 43315 61749 320104 320091 314101 327106 326111 319095;
0231992780999992011010919004+43533-070083FM-18+0000DB278V0203101N009019999999N9999999N1+00301+99999099871ADDMD1310051+9999OA159901201REMSYN194BBXX  44007 09191 99435 70701 46/// /3109 10030 49987 53005 91850 22200 00050 10802 20302 3//// 40801 70009 333 91212 555 11097 22102 31800 43116 61849 311091 325092 321100 320111 313123 319106;
0231992780999992011010920004+43533-070083FM-18+0000DB278V0202901N010019999999N9999999N1+00251+99999100021ADDMD1310271+9999OA159901301REMSYN194BBXX  44007 09201 99435 70701 46/// /2910 10025 40002 53027 91950 22200 00050 10402 20402 3//// 40701 70009 333 91213 555 11108 22114 31900 43114 61949 290102 287109 291113 299104 302094 309096;
0239992780999992011010921004+43533-070083FM-18+0000DB278V0202801N011019999999N9999999N1+00151+99999100141ADDMD1310381+9999OA159901301SA1+0499REMSYN194BBXX  44007 09211 99435 70701 46/// /2811 10015 40014 53038 92050 22200 00049 11002 20302 3//// 41001 70009 333 91213 555 11115 22121 32048 42813 62049 279107 281103 294103 292107 288105 295100;
0239992780999992011010922004+43533-070083FM-18+0000DB278V0202801N010019999999N9999999N1+00081+99999100281ADDMD1110411+9999OA159901201SA1+0499REMSYN194BBXX  44007 09221 99435 70701 46/// /2810 10008 40028 51041 92150 22200 00049 11102 20401 3//// 41101 70008 333 91212 555 11110 22116 32110 42813 62149 277105 276104 278099 281104 281108 281107;
0239992780999992011010923004+43533-070083FM-18+0000DB278V0202801N010019999999N9999999N1+00051+99999100431ADDMD1310411+9999OA159901101SA1+0499REMSYN194BBXX  44007 09231 99435 70701 46/// /2810 10005 40043 53041 92250 22200 00049 11001 20301 3//// 41001 70007 333 91211 555 11100 22105 32203 42813 62249 282094 281101 283100 280103 280104 279105;
0227992780999992011011000004+43533-070083FM-18+0000DB278V0203201N006019999999N9999999N1+00001+99999100601ADDMD1310461+9999OA159900801SA1+0489REMSYN182BBXX  44007 10001 99435 70701 46/// /3206 10000 40060 53046 92350 22200 00048 10301 20301 70005 333 91208 555 11065 22067 32251 42911 62349 315061 309067 299080 291082 286091 288092;
0239992780999992011011001004+43533-070083FM-18+0000DB278V0203101N007019999999N9999999N1-00041+99999100681ADDMD1110401+9999OA159900801SA1+0479REMSYN194BBXX  44007 10011 99435 70701 46/// /3107 11004 40068 51040 90050 22200 00047 10901 20301 3//// 40901 70007 333 91208 555 11070 22073 30039 43209 60049 306068 307068 307060 319071 315068 306060;
0239992780999992011011002004+43533-070083FM-18+0000DB278V0203001N007019999999N9999999N1-00061+99999100771ADDMD1110341+9999OA159900901SA1+0479REMSYN194BBXX  44007 10021 99435 70701 46/// /3007 11006 40077 51034 90150 22200 00047 11101 20301 3//// 41101 70006 333 91209 555 11070 22073 30108 43111 60149 300067 299068 307077 304084 310086 312077;
0239992780999992011011003004+43533-070083FM-18+0000DB278V0203101N008019999999N9999999N1-00111+99999100771ADDMD1110171+9999OA159901101SA1+0469REMSYN194BBXX  44007 10031 99435 70701 46/// /3108 11011 40077 51017 90250 22200 00046 11001 20301 3//// 41001 70005 333 91211 555 11087 22091 30247 43011 60249 306082 301082 292078 298073 304072 301076;
0227992780999992011011004004+43533-070083FM-18+0000DB278V0203101N010019999999N9999999N1-00201+99999100801ADDMD1110121+9999OA159901301SA1+0469REMSYN182BBXX  44007 10041 99435 70701 46/// /3110 11020 40080 51012 90350 22200 00046 10301 20301 70005 333 91213 555 11100 22105 30339 43013 60349 308094 301093 305074 301083 305086 300083;
0227992780999992011011005004+43533-070083FM-18+0000DB278V0203101N009019999999N9999999N1-00251+99999100851ADDMD1310081+9999OA159901101SA1+0459REMSYN182BBXX  44007 10051 99435 70701 46/// /3109 11025 40085 53008 90450 22200 00045 10301 20301 70005 333 91211 555 11089 22093 30413 43213 60449 308084 308092 303096 307096 310098 312088;
0227992780999992011011006004+43533-070083FM-18+0000DB278V0203001N010019999999N9999999N1-00301+99999100861ADDMD1110091+9999OA159901201SA1+0449REMSYN182BBXX  44007 10061 99435 70701 46/// /3010 11030 40086 51009 90550 22200 00044 10301 20301 70006 333 91212 555 11100 22104 30537 43013 60549 304095 305100 301095 303090 302090 307087;
0227992780999992011011007004+43533-070083FM-18+0000DB278V0203101N009019999999N9999999N1-00351+99999100891ADDMD1110091+9999OA159901301SA1+0459REMSYN182BBXX  44007 10071 99435 70701 46/// /3109 11035 40089 51009 90650 22200 00045 10301 20301 70005 333 91213 555 11097 22101 30643 43013 60649 305092 304087 305081 307085 307091 306087;
0227992780999992011011008004+43533-070083FM-18+0000DB278V0203001N009019999999N9999999N1-00391+99999100961ADDMD1310111+9999OA159901201SA1+0459REMSYN182BBXX  44007 10081 99435 70701 46/// /3009 11039 40096 53011 90750 22200 00045 11101 20301 70005 333 91212 555 11099 22103 30743 43112 60749 300094 298081 296080 298077 297080 298085;
0227992780999992011011009004+43533-070083FM-18+0000DB278V0202801N007019999999N9999999N1-00401+99999101001ADDMD1310141+9999OA159900901SA1+0459REMSYN182BBXX  44007 10091 99435 70701 46/// /2807 11040 40100 53014 90850 22200 00045 10301 20301 70004 333 91209 555 11073 22076 30802 42912 60849 285071 285069 295072 291083 293083 296091;
0227992780999992011011010004+43533-070083FM-18+0000DB278V0202901N008019999999N9999999N1-00431+99999101011ADDMD1110121+9999OA159900901SA1+0489REMSYN182BBXX  44007 10101 99435 70701 46/// /2908 11043 40101 51012 90950 22200 00048 10301 20301 70004 333 91209 555 11082 22085 30923 42810 60949 288077 291080 286079 290078 288077 290074;
0227992780999992011011011004+43533-070083FM-18+0000DB278V0202901N008019999999N9999999N1-00421+99999101051ADDMD1210091+9999OA159901001SA1+0489REMSYN182BBXX  44007 10111 99435 70701 46/// /2908 11042 40105 52009 91050 22200 00048 11101 20301 70004 333 91210 555 11083 22086 31041 43010 61049 294080 295077 286074 287075 286075 286074;
0227992780999992011011012004+43533-070083FM-18+0000DB278V0203001N007019999999N9999999N1-00391+99999101141ADDMD1310141+9999OA159900901SA1+0469REMSYN182BBXX  44007 10121 99435 70701 46/// /3007 11039 40114 53014 91150 22200 00046 11101 20301 70004 333 91209 555 11072 22075 31055 43010 61149 297070 298073 295069 293075 290073 292075;
0227992780999992011011013004+43533-070083FM-18+0000DB278V0203101N006019999999N9999999N1-00341+99999101231ADDMD1310221+9999OA159900701SA1+0469REMSYN182BBXX  44007 10131 99435 70701 46/// /3106 11034 40123 53022 91250 22200 00046 11101 20301 70003 333 91207 555 11065 22067 31156 43008 61249 306063 308064 301062 303065 297066 292070;
0227992780999992011011014004+43533-070083FM-18+0000DB278V0203101N007019999999N9999999N1-00261+99999101311ADDMD1110261+9999OA159900801SA1+0479REMSYN182BBXX  44007 10141 99435 70701 46/// /3107 11026 40131 51026 91350 22200 00047 10301 20301 70005 333 91208 555 11069 22071 31324 43109 61349 305067 303064 306071 311067 305068 305064;
0227992780999992011011015004+43533-070083FM-18+0000DB278V0203201N007019999999N9999999N1-00201+99999101391ADDMD1110251+9999OA159900901SA1+0489REMSYN182BBXX  44007 10151 99435 70701 46/// /3207 11020 40139 51025 91450 22200 00048 10401 20401 70006 333 91209 555 11072 22075 31432 43211 61449 319068 314077 317077 316062 313060 308064;
0227992780999992011011016004+43533-070083FM-18+0000DB278V0203201N010019999999N9999999N1-00081+99999101321ADDMD1010091+9999OA159901301SA1+0529REMSYN182BBXX  44007 10161 99435 70701 46/// /3210 11008 40132 50009 91550 22200 00052 10301 20301 70006 333 91213 555 11100 22105 31549 43213 61549 315095 314087 317105 322089 317077 317071;
0227992780999992011011017004+43533-070083FM-18+0000DB278V0203301N010019999999N9999999N1-00021+99999101271ADDMD1810041+9999OA159901201SA1+0549REMSYN182BBXX  44007 10171 99435 70701 46/// /3310 11002 40127 58004 91650 22200 00054 10301 20301 70006 333 91212 555 11103 22108 31623 43113 61649 325098 321096 317103 315097 315088 315091;
0227992780999992011011018004+43533-070083FM-18+0000DB278V0203201N008019999999N9999999N1+00051+99999101241ADDMD1610151+9999OA159901101SA1+0529REMSYN182BBXX  44007 10181 99435 70701 46/// /3208 10005 40124 56015 91750 22200 00052 10301 20301 70006 333 91211 555 11087 22091 31711 43212 61749 321084 320089 320088 321099 321091 320089;
0227992780999992011011019004+43533-070083FM-18+0000DB278V0203201N009019999999N9999999N1+00141+99999101281ADDMD1510041+9999OA159901001SA1+0539REMSYN182BBXX  44007 10191 99435 70701 46/// /3209 10014 40128 55004 91850 22200 00053 10301 20301 70005 333 91210 555 11090 22094 31835 43212 61849 323085 320091 321088 314088 321085 317087;
0227992780999992011011020004+43533-070083FM-18+0000DB278V0203201N007019999999N9999999N1+00201+99999101361ADDMD1310091+9999OA159900801SA1+0519REMSYN182BBXX  44007 10201 99435 70701 46/// /3207 10020 40136 53009 91950 22200 00051 10301 20301 70005 333 91208 555 11070 22073 31905 43209 61949 320067 319066 316063 313065 318069 323075;
0219992780999992011011021004+43533-070083FM-18+0000DB278V0203201N009019999999N9999999N1+00201+99999101441ADDMD1310201+9999OA159901001REMSYN182BBXX  44007 10211 99435 70701 46/// /3209 10020 40144 53020 92050 22200 00050 10301 20301 70005 333 91210 555 11092 22096 32039 43310 62049 323086 317071 314067 297064 307066 297060;
0227992780999992011011022004+43533-070083FM-18+0000DB278V0203101N008019999999N9999999N1+00141+99999101531ADDMD1310251+9999OA159901001SA1+0519REMSYN182BBXX  44007 10221 99435 70701 46/// /3108 10014 40153 53025 92150 22200 00051 10301 20301 70005 333 91210 555 11081 22085 32115 43011 62149 309078 315078 318089 310087 312081 318085;
0227992780999992011011023004+43533-070083FM-18+0000DB278V0203001N006019999999N9999999N1+00071+99999101661ADDMD1310301+9999OA159900701SA1+0519REMSYN182BBXX  44007 10231 99435 70701 46/// /3006 10007 40166 53030 92250 22200 00051 10301 20301 70005 333 91207 555 11061 22063 32154 43110 62249 305058 311056 298060 307064 313083 309084;
0219992780999992011011100004+43533-070083FM-18+0000DB278V0203201N008019999999N9999999N1+00021+99999101731ADDMD1110291+9999OA159900901REMSYN182BBXX  44007 11001 99435 70701 46/// /3208 10002 40173 51029 92350 22200 00050 10301 20301 70004 333 91209 555 11079 22082 32338 43310 62349 321074 321085 314072 312074 316069 311060;
0227992780999992011011101004+43533-070083FM-18+0000DB278V0203201N006019999999N9999999N1-00071+99999101821ADDMD1110291+9999OA159900901SA1+0489REMSYN182BBXX  44007 11011 99435 70701 46/// /3206 11007 40182 51029 90050 22200 00048 10301 20301 70004 333 91209 555 11059 22061 30034 43209 60049 324057 326067 325075 326071 325067 324063;
0227992780999992011011102004+43533-070083FM-18+0000DB278V0203301N007019999999N9999999N1-00141+99999101851ADDMD1110191+9999OA159901001SA1+0489REMSYN182BBXX  44007 11021 99435 70701 46/// /3307 11014 40185 51019 90150 22200 00048 10301 20301 70004 333 91210 555 11073 22076 30149 43210 60149 325070 314067 312049 321062 328061 330062;
0227992780999992011011103004+43533-070083FM-18+0000DB278V0203201N009019999999N9999999N1-00191+99999101901ADDMD1110171+9999OA159901001SA1+0499REMSYN182BBXX  44007 11031 99435 70701 46/// /3209 11019 40190 51017 90250 22200 00049 10301 20301 70005 333 91210 555 11093 22096 30237 43312 60249 322087 330092 330087 317093 311085 322079;
0227992780999992011011104004+43533-070083FM-18+0000DB278V0203401N009019999999N9999999N1-00201+99999101891ADDMD1110071+9999OA159901101SA1+0499REMSYN182BBXX  44007 11041 99435 70701 46/// /3409 11020 40189 51007 90350 22200 00049 10301 20301 70006 333 91211 555 11097 22101 30345 43411 60349 339090 341087 336083 333085 323086 321086;
0227992780999992011011105004+43533-070083FM-18+0000DB278V0203401N008019999999N9999999N1-00211+99999101931ADDMD1110081+9999OA159901001SA1+0499REMSYN182BBXX  44007 11051 99435 70701 46/// /3408 11021 40193 51008 90450 22200 00049 10301 20301 70007 333 91210 555 11086 22090 30412 43311 60449 335082 338086 341088 345091 339084 336082;
0227992780999992011011106004+43533-070083FM-18+0000DB278V0203301N007019999999N9999999N1-00261+99999102011ADDMD1310111+9999OA159900801SA1+0479REMSYN182BBXX  44007 11061 99435 70701 46/// /3307 11026 40201 53011 90550 22200 00047 10301 20301 70006 333 91208 555 11068 22070 30451 43410 60549 334065 339065 326067 322051 310051 330077;
0227992780999992011011107004+43533-070083FM-18+0000DB278V0203401N007019999999N9999999N1-00271+99999102041ADDMD1110151+9999OA159900801SA1+0459REMSYN182BBXX  44007 11071 99435 70701 46/// /3407 11027 40204 51015 90650 22200 00045 10301 20301 70006 333 91208 555 11073 22076 30557 43510 60649 338069 342073 341075 344070 344075 346072;
0227992780999992011011108004+43533-070083FM-18+0000DB278V0203401N007019999999N9999999N1-00331+99999102131ADDMD1310201+9999OA159900901SA1+0459REMSYN182BBXX  44007 11081 99435 70701 46/// /3407 11033 40213 53020 90750 22200 00045 10301 20301 70005 333 91209 555 11073 22076 30722 43509 60749 342069 339061 338071 340072 340073 340069;
0227992780999992011011109004+43533-070083FM-18+0000DB278V0203401N007019999999N9999999N1-00321+99999102171ADDMD1310161+9999OA159900901SA1+0459REMSYN182BBXX  44007 11091 99435 70701 46/// /3407 11032 40217 53016 90850 22200 00045 10301 20301 70006 333 91209 555 11077 22080 30839 43509 60849 344074 333061 315046 318056 330063 343068;
0227992780999992011011110004+43533-070083FM-18+0000DB278V0203301N006019999999N9999999N1-00401+99999102191ADDMD1110151+9999OA159900901SA1+0449REMSYN182BBXX  44007 11101 99435 70701 46/// /3306 11040 40219 51015 90950 22200 00044 10301 20301 70004 333 91209 555 11062 22064 30932 43310 60949 327062 329068 339076 351070 344074 341075;
0227992780999992011011111004+43533-070083FM-18+0000DB278V0203501N008019999999N9999999N1-00421+99999102211ADDMD1110081+9999OA159900901SA1+0439REMSYN182BBXX  44007 11111 99435 70701 46/// /3508 11042 40221 51008 91050 22200 00043 10201 20301 70004 333 91209 555 11080 22083 30954 43409 61049 349076 340071 343072 342077 338072 340071;
0227992780999992011011112004+43533-070083FM-18+0000DB278V0203401N005019999999N9999999N1-00431+99999102301ADDMD1310131+9999OA159900601SA1+0449REMSYN182BBXX  44007 11121 99435 70701 46/// /3405 11043 40230 53013 91150 22200 00044 10301 20301 70004 333 91206 555 11050 22051 31052 43509 61149 341049 344054 341055 332060 342064 351067;
0227992780999992011011113004+43533-070083FM-18+0000DB278V0203301N004019999999N9999999N1-00491+99999102361ADDMD1310171+9999OA159900501SA1+0469REMSYN182BBXX  44007 11131 99435 70701 46/// /3304 11049 40236 53017 91250 22200 00046 10301 20301 70003 333 91205 555 11038 22039 31212 43506 61249 325037 318044 317044 331047 338048 336043;
0221992780999992011011114004+43533-070083FM-18+0000DB278V0203401N004019999999N9999999N1-00461+99999102411ADDMD1110201+9999OA159900601SA1+0469REMSYN176BBXX  44007 11141 99435 70701 46/// /3404 11046 40241 51020 91350 22200 00046 10901 70003 333 91206 555 11045 22047 31259 43306 61349 340043 343037 349033 333037 327037 328039;
0221992780999992011011115004+43533-070083FM-18+0000DB278V0203401N005019999999N9999999N1-00471+99999102431ADDMD1110131+9999OA159900601SA1+0459REMSYN176BBXX  44007 11151 99435 70701 46/// /3405 11047 40243 51013 91450 22200 00045 11001 70003 333 91206 555 11046 22048 31447 43406 61449 341045 338043 334043 338038 333039 332038;
0221992780999992011011116004+43533-070083FM-18+0000DB278V0203501N005019999999N9999999N1-00421+99999102351ADDMD1010001+9999OA159900701SA1+0449REMSYN176BBXX  44007 11161 99435 70701 46/// /3505 11042 40235 50000 91550 22200 00044 10901 70003 333 91207 555 11049 22050 31549 43407 61549 352047 354045 358047 354046 352045 353047;
0221992780999992011011117004+43533-070083FM-18+0000DB278V0203501N003019999999N9999999N1-00361+99999102251ADDMD1810161+9999OA159900401SA1+0459REMSYN176BBXX  44007 11171 99435 70701 46/// /3503 11036 40225 58016 91650 22200 00045 10801 70003 333 91204 555 11030 22030 31552 40206 61649 353028 000028 352033 359039 013042 008045;
0221992780999992011011118004+43533-070083FM-18+0000DB278V0203401N001019999999N9999999N1-00301+99999102211ADDMD1610221+9999OA159900201SA1+0479REMSYN176BBXX  44007 11181 99435 70701 46/// /3401 11030 40221 56022 91750 22200 00047 10701 70003 333 91202 555 11012 22012 31655 43604 61749 337012 353018 350022 004023 349028 001025;
0221992780999992011011119004+43533-070083FM-18+0000DB278V0200501N002019999999N9999999N1-00251+99999102171ADDMD1610181+9999OA159900301SA1+0479REMSYN176BBXX  44007 11191 99435 70701 46/// /0502 11025 40217 56018 91850 22200 00047 10901 70003 333 91203 555 11015 22016 31845 40403 61849 057015 035008 021008 046011 039012 337010;
0221992780999992011011120004+43533-070083FM-18+0000DB278V0202301N001019999999N9999999N1-00191+99999102181ADDMD1610071+9999OA159900101SA1+0479REMSYN176BBXX  44007 11201 99435 70701 46/// /2301 11019 40218 56007 91950 22200 00047 10801 70003 333 91201 555 11008 22008 31907 40503 61949 232007 207004 012007 040010 048015 057011;
0221992780999992011011121004+43533-070083FM-18+0000DB278V0201901N001019999999N9999999N1-00201+99999102151ADDMD1610061+9999OA159900201SA1+0489REMSYN176BBXX  44007 11211 99435 70701 46/// /1901 11020 40215 56006 92050 22200 00048 10701 70003 333 91202 555 11009 22009 31955 41902 62049 184008 147011 204008 197011 208011 202009;
0233992780999992011011122004+43533-070083FM-18+0000DB278V0201401N001019999999N9999999N1-00181+99999102161ADDMD1410001+9999OA159900201SA1+0479REMSYN188BBXX  44007 11221 99435 70701 46/// /1401 11018 40216 54000 92150 22200 00047 10701 3//// 40701 70003 333 91202 555 11010 22010 32115 41402 62149 136009 148007 157005 162014 201012 190011;
0221992780999992011011123004+43533-070083FM-18+0000DB278V0200501N002019999999N9999999N1-00141+99999102141ADDMD1610041+9999OA159900301SA1+0479REMSYN176BBXX  44007 11231 99435 70701 46/// /0502 11014 40214 56004 92250 22200 00047 11001 70003 333 91203 555 11018 22019 32225 40503 62249 051018 051018 054022 060019 177006 151011;
0233992780999992011011200004+43533-070083FM-18+0000DB278V0200301N003019999999N9999999N1-00111+99999102101ADDMD1810051+9999OA159900301SA1+0469REMSYN188BBXX  44007 12001 99435 70701 46/// /0303 11011 40210 58005 92350 22200 00046 11001 3//// 41001 70003 333 91203 555 11026 22026 32339 40504 62349 036025 048025 040021 034019 029017 032017;
0233992780999992011011201004+43533-070083FM-18+0000DB278V0200601N002019999999N9999999N1-00091+99999102031ADDMD1810131+9999OA159900301SA1+0469REMSYN188BBXX  44007 12011 99435 70701 46/// /0602 11009 40203 58013 90050 22200 00046 11101 3//// 41101 70003 333 91203 555 11020 22021 32353 40304 60049 056019 073019 074023 053020 065021 053023;
0233992780999992011011202004+43533-070083FM-18+0000DB278V0200601N002019999999N9999999N1-00081+99999101971ADDMD1810171+9999OA159900301SA1+0469REMSYN188BBXX  44007 12021 99435 70701 46/// /0602 11008 40197 58017 90150 22200 00046 10901 3//// 40901 70003 333 91203 555 11019 22020 30120 40704 60149 058019 059025 071023 063024 084021 065025;
0233992780999992011011203004+43533-070083FM-18+0000DB278V0200601N004019999999N9999999N1-00081+99999101861ADDMD1810241+9999OA159900501SA1+0469REMSYN188BBXX  44007 12031 99435 70701 46/// /0604 11008 40186 58024 90250 22200 00046 10801 3//// 40801 70003 333 91205 555 11039 22040 30249 40605 60249 064038 062028 049029 039026 058026 056024;
0233992780999992011011204004+43533-070083FM-18+0000DB278V0200601N005019999999N9999999N1-00071+99999101761ADDMD1810271+9999OA159900601SA1+0479REMSYN188BBXX  44007 12041 99435 70701 46/// /0605 11007 40176 58027 90350 22200 00047 10901 3//// 40901 70003 333 91206 555 11047 22048 30310 40406 60349 060045 058042 056038 050047 054047 057045;
0221992780999992011011205004+43533-070083FM-18+0000DB278V0200301N005019999999N9999999N1-00061+99999101671ADDMD1610301+9999OA159900701SA1+0479REMSYN176BBXX  44007 12051 99435 70701 46/// /0305 11006 40167 56030 90450 22200 00047 10801 70003 333 91207 555 11054 22056 30446 40307 60449 036051 047038 054034 063036 059041 055049;
0227992780999992011011206004+43533-070083FM-18+0000DB278V0200201N008019999999N9999999N1-00101+99999101411ADDMD1810451+9999OA159901001SA1+0479REMSYN182BBXX  44007 12061 99435 70701 46/// /0208 11010 40141 58045 90550 22200 00047 10201 20301 70004 333 91210 555 11086 22090 30450 40210 60549 021082 021070 021064 019058 024059 029056;
0227992780999992011011207004+43533-070083FM-18+0000DB278V0200701N007019999999N9999999N1+00031+99999101421ADDMD1610341+9999OA159900901SA1+0489REMSYN182BBXX  44007 12071 99435 70701 46/// /0707 10003 40142 56034 90650 22200 00048 10301 20301 70005 333 91209 555 11069 22072 30611 40210 60649 069066 080063 089060 050062 023082 021085;
0227992780999992011011208004+43533-070083FM-18+0000DB278V0200401N009019999999N9999999N1-00061+99999101261ADDMD1610411+9999OA159901101SA1+0489REMSYN182BBXX  44007 12081 99435 70701 46/// /0409 11006 40126 56041 90750 22200 00048 10301 20301 70007 333 91211 555 11099 22104 30746 40411 60749 045094 046087 048079 041078 043080 037084;
0227992780999992011011209004+43533-070083FM-18+0000DB278V0200501N011019999999N9999999N1-00081+99999101031ADDMD1810381+9999OA159901301SA1+0499REMSYN182BBXX  44007 12091 99435 70701 46/// /0511 11008 40103 58038 90850 22200 00049 10402 20402 70009 333 91213 555 11121 22127 30849 40413 60849 045113 044107 044101 042096 038097 042100;
0219992780999992011011210004+43533-070083FM-18+0000DB278V0200401N014019999999N9999999N1-00131+99999100591ADDMD1810831+9999OA159901601REMSYN182BBXX  44007 12101 99435 70701 46/// /0414 11013 40059 58083 90950 22200 00050 10402 20402 70012 333 91216 555 11148 22156 30922 40417 60949 038140 038135 039134 041125 044116 043114;
0219992780999992011011211004+43533-070083FM-18+0000DB278V0200301N013019999999N9999999N1-00141+99999100461ADDMD1610801+9999OA159901501REMSYN182BBXX  44007 12111 99435 70701 46/// /0313 11014 40046 56080 91050 22200 00050 10503 20503 70015 333 91215 555 11140 22148 31004 40416 61049 032131 033129 036128 039128 040132 040130;
0219992780999992011011212004+43533-070083FM-18+0000DB278V0200201N014019999999N9999999N1-00191+99999100191ADDMD1610841+9999OA159901701REMSYN182BBXX  44007 12121 99435 70701 46/// /0214 11019 40019 56084 91150 22200 00050 10503 20503 70015 333 91217 555 11144 22152 31144 40317 61149 024135 024140 023133 026135 031132 033133;
0219992780999992011011213004+43533-070083FM-18+0000DB278V0200201N014019999999N9999999N1-00191+99999099961ADDMD1810631+9999OA159901701REMSYN182BBXX  44007 12131 99435 70701 46/// /0214 11019 49996 58063 91250 22200 00050 10604 20604 70019 333 91217 555 11150 22158 31210 40217 61249 022141 021141 021145 022140 026139 025140;
0227992780999992011011214004+43533-070083FM-18+0000DB278V0200201N014019999999N9999999N1-00121+99999099731ADDMD1610731+9999OA159901601SA1+0519REMSYN182BBXX  44007 12141 99435 70701 46/// /0214 11012 49973 56073 91350 22200 00051 10605 20605 70023 333 91216 555 11145 22152 31323 40317 61349 023137 028139 028135 025136 024136 025138;
0227992780999992011011215004+43533-070083FM-18+0000DB278V0200301N013019999999N9999999N1-00101+99999099551ADDMD1610641+9999OA159901601SA1+0519REMSYN182BBXX  44007 12151 99435 70701 46/// /0313 11010 49955 56064 91450 22200 00051 10705 20705 70027 333 91216 555 11138 22145 31351 40217 61449 024131 018138 019148 019137 018138 021141;
0239992780999992011011216004+43533-070083FM-18+0000DB278V0200101N015019999999N9999999N1-00041+99999099201ADDMD1810761+9999OA159901801SA1+0529REMSYN194BBXX  44007 12161 99435 70701 46/// /0115 11004 49920 58076 91550 22200 00052 10806 20705 3//// 40803 70030 333 91218 555 11163 22173 31549 40118 61549 013151 015149 018144 020142 023139 022139;
0227992780999992011011217004+43533-070083FM-18+0000DB278V0200101N016019999999N9999999N1+00001+99999098891ADDMD1810841+9999OA159901901SA1+0529REMSYN182BBXX  44007 12171 99435 70701 46/// /0116 10000 49889 58084 91650 22200 00052 10808 20808 70040 333 91219 555 11168 22177 31606 40221 61649 008158 008161 010159 011163 010163 009157;
0239992780999992011011218004+43533-070083FM-18+0000DB278V0200201N016019999999N9999999N1+00011+99999098841ADDMD1610711+9999OA159901801SA1+0539REMSYN194BBXX  44007 12181 99435 70701 46/// /0216 10001 49884 56071 91750 22200 00053 10808 20806 3//// 40905 70040 333 91218 555 11169 22179 31728 40220 61749 024158 024151 016158 013155 011160 010155;
0239992780999992011011219004+43533-070083FM-18+0000DB278V0200101N016019999999N9999999N1+00061+99999098761ADDMD1610441+9999OA159901901SA1+0549REMSYN194BBXX  44007 12191 99435 70701 46/// /0116 10006 49876 56044 91850 22200 00054 11010 20706 3//// 41008 70052 333 91219 555 11169 22179 31750 40119 61849 013161 017155 017155 018153 019153 021153;
0239992780999992011011220004+43533-070083FM-18+0000DB278V0203601N018019999999N9999999N1+00051+99999098771ADDMD1610121+9999OA159902301SA1+0559REMSYN194BBXX  44007 12201 99435 70701 46/// /3618 10005 49877 56012 91950 22200 00055 11109 20805 3//// 41108 70047 333 91223 555 11193 22205 31944 40123 61949 004180 002171 002166 002165 005163 009165;
0239992780999992011011221004+43533-070083FM-18+0000DB278V0200101N017019999999N9999999N1+00081+99999098931ADDMD1310091+9999OA159902101SA1+0549REMSYN194BBXX  44007 12211 99435 70701 46/// /0117 10008 49893 53009 92050 22200 00054 11109 20705 3//// 41107 70045 333 91221 555 11179 22190 31951 43522 62049 005167 007171 008178 007178 007175 005177;
0239992780999992011011222004+43533-070083FM-18+0000DB278V0203601N017019999999N9999999N1+00101+99999099031ADDMD1310271+9999OA159902001SA1+0549REMSYN194BBXX  44007 12221 99435 70701 46/// /3617 10010 49903 53027 92150 22200 00054 11010 20806 3//// 41008 70049 333 91220 555 11182 22193 32112 40121 62149 003170 003166 004171 002173 004169 006171;
0239992780999992011011223004+43533-070083FM-18+0000DB278V0203501N016019999999N9999999N1+00101+99999099111ADDMD1110341+9999OA159902001SA1+0539REMSYN194BBXX  44007 12231 99435 70701 46/// /3516 10010 49911 51034 92250 22200 00053 11109 20805 3//// 41108 70045 333 91220 555 11175 22186 32220 43520 62249 352163 353160 352157 357161 001156 002159;
0239992780999992011011300004+43533-070083FM-18+0000DB278V0203501N017019999999N9999999N1+00041+99999099171ADDMD1110241+9999OA159902001SA1+0529REMSYN194BBXX  44007 13001 99435 70701 46/// /3517 10004 49917 51024 92350 22200 00052 11008 20504 3//// 41007 70041 333 91220 555 11178 22188 32319 43422 62349 350166 350169 349168 351168 350163 351162;
0239992780999992011011301004+43533-070083FM-18+0000DB278V0203601N017019999999N9999999N1+00111+99999099311ADDMD1310281+9999OA159902101SA1+0519REMSYN194BBXX  44007 13011 99435 70701 46/// /3617 10011 49931 53028 90050 22200 00051 11107 20604 3//// 41106 70037 333 91221 555 11178 22189 30045 43621 60049 358164 356165 356160 354161 356161 354167;
0239992780999992011011302004+43533-070083FM-18+0000DB278V0203601N016019999999N9999999N1+00151+99999099461ADDMD1310351+9999OA159902201SA1+0529REMSYN194BBXX  44007 13021 99435 70701 46/// /3616 10015 49946 53035 90150 22200 00052 11107 20505 3//// 41106 70037 333 91222 555 11172 22183 30145 43522 60149 358161 359171 359161 359164 001163 357166;
0239992780999992011011303004+43533-070083FM-18+0000DB278V0203501N015019999999N9999999N1+00131+99999099611ADDMD1310441+9999OA159901801SA1+0529REMSYN194BBXX  44007 13031 99435 70701 46/// /3515 10013 49961 53044 90250 22200 00052 11006 20504 3//// 41005 70032 333 91218 555 11157 22166 30217 43621 60249 353148 353149 353155 358159 359162 358161;
0239992780999992011011304004+43533-070083FM-18+0000DB278V0203401N015019999999N9999999N1+00091+99999099721ADDMD1110411+9999OA159901801SA1+0519REMSYN194BBXX  44007 13041 99435 70701 46/// /3415 10009 49972 51041 90350 22200 00051 11006 20403 3//// 41005 70028 333 91218 555 11160 22170 30308 43519 60349 341149 345145 348149 351148 350148 354147;
0079992780999992011011305004+43533-070083FM-18+0000DB278V0203401N014019999999N9999999N1+00091+99999999999REMSYN070BBXX  44007 13051 99435 70701 46/// /3414 10009 90450 555 11152 22163;
0239992780999992011011306004+43533-070083FM-18+0000DB278V0203401N014019999999N9999999N1+00101+99999099931ADDMD1210321+9999OA159901901SA1+0519REMSYN194BBXX  44007 13061 99435 70701 46/// /3414 10010 49993 52032 90550 22200 00051 11004 20403 3//// 41003 70021 333 91219 555 11148 22157 30527 43519 60549 342139 345141 344150 345145 347142 344141;
0239992780999992011011307004+43533-070083FM-18+0000DB278V0203401N013019999999N9999999N1+00141+99999100111ADDMD1210391+9999OA159901601SA1+0529REMSYN194BBXX  44007 13071 99435 70701 46/// /3413 10014 40011 52039 90650 22200 00052 11004 20403 3//// 41003 70020 333 91216 555 11135 22143 30551 43418 60649 342128 340130 342128 340135 342134 343143;
0219992780999992011011308004+43533-070083FM-18+0000DB278V0203301N011019999999N9999999N1+00111+99999100281ADDOA159901401SA1+0529REMSYN188BBXX  44007 13081 99435 70701 46/// /3311 10011 40028 90750 22200 00052 11004 20402 3//// 41003 70020 333 91214 555 11121 22127 30732 43316 60749 331114 332122 338122 340120 334122 338124;
0239992780999992011011309004+43533-070083FM-18+0000DB278V0203301N012019999999N9999999N1+00081+99999100381ADDMD1110451+9999OA159901501SA1+0539REMSYN194BBXX  44007 13091 99435 70701 46/// /3312 10008 40038 51045 90850 22200 00053 10903 20402 3//// 40903 70016 333 91215 555 11130 22137 30847 43215 60849 327120 330118 327119 328122 331116 329115;
