0032994060999992012010100004+43967-068117FM-12+0016MDRM1V0203401N004619999999N9999999N1+00781+00781100701ADDMA1999999100501MD1610131+9999
0032994060999992012010101004+43967-068117FM-12+0016MDRM1V0203301N005719999999N9999999N1+00731+00731100661ADDMA1999999100461MD1810091+9999
0032994060999992012010102004+43967-068117FM-12+0016MDRM1V0203201N007719999999N9999999N1+00641+00641100681ADDMA1999999100471MD1610061+9999
0032994060999992012010103004+43967-068117FM-12+0016MDRM1V0203201N008719999999N9999999N1+00541+00541100731ADDMA1999999100531MD1310031+9999
0198994060999992012010104004+43967-068117FM-12+0016MDRM1V0203501N009819999999N9999999N1+00461+00461100681ADDMA1999999100481MD1010001+9999OA139901081REMSYN146CMAN  01044 MDRM1 46/// /3519 10046 20046 30048 40068 50000 90400 333 91221 555 11018 22019 30329 433026 60359 342020 336020 331022 329023 321011;
0032994060999992012010105004+43967-068117FM-12+0016MDRM1V0203401N013419999999N9999999N1+00501+00501100671ADDMA1999999100461MD1010001+9999
0032994060999992012010106004+43967-068117FM-12+0016MDRM1V0203501N011319999999N9999999N1+00381+00381100791ADDMA1999999100581MD1310061+9999
0032994060999992012010107004+43967-068117FM-12+0016MDRM1V0203501N011819999999N9999999N1+00371+00371100901ADDMA1999999100701MD1310221+9999
0251994060999992012010108004+43967-068117FM-12+0016MDRM1V0203401N011819999999N9999999N1+00371+00371100941ADDMA1999999100741MD1110271+9999OA139901241REMSYN199CMAN  01084 MDRM1 46/// /3423 10037 20037 30074 40094 51027 90800 333 91224 555 11021 22023 30713 434028 60759 341023 344022 348024 348023 34651 42904 60749 350024 352025 324025 320021 324020 292032;
0198994060999992012010109004+43967-068117FM-12+0016MDRM1V0203401N011319999999N9999999N1+00371+00371101021ADDMA1999999100821MD1110231+9999OA139901291REMSYN146CMAN  01094 MDRM1 46/// /3422 10037 20037 30082 40102 51023 90900 333 91225 555 11021 22022 30854 434028 60859 340023 338023 341023 339023 347603;
0246994060999992012010110004+43967-068117FM-12+0016MDRM1V0203401N012919999999N9999999N1+00371+00361101121ADDMA1999999100921MD1310221+9999OA139901391REMSYN194CMAN  01104 MDRM1 46/// /3425 10037 20036 30092 40112 53022 91000 333 91227 555 11023 22025 30937 434030 60959 339024 340025 338024 346022 340709 60949 086062 090058 079042 075058 053049 036048;
0246994060999992012010111004+43967-068117FM-12+0016MDRM1V0203301N010819999999N9999999N1+00361+00361101211ADDMA1999999101011MD1310271+9999OA139901181REMSYN194CMAN  01114 MDRM1 46/// /3321 10036 20036 30101 40121 53027 91100 333 91223 555 11019 22021 31000 434027 61059 334022 335021 341022 342021 341209 61049 095052 108045 119058 121066 112069 089061;
0198994060999992012010112004+43967-068117FM-12+0016MDRM1V0203301N010319999999N9999999N1+00381+00381101341ADDMA1999999101141MD1310321+9999OA139901181REMSYN146CMAN  01124 MDRM1 46/// /3320 10038 20038 30114 40134 53032 91200 333 91223 555 11018 22020 31138 434027 61159 339020 341022 338022 338022 336010;
0032994060999992012010113004+43967-068117FM-12+0016MDRM1V0203401N011819999999N9999999N1+00321+00311101401ADDMA1999999101201MD1110281+9999
0032994060999992012010114004+43967-068117FM-12+0016MDRM1V0203401N009319999999N9999999N1+00251+00241101531ADDMA1999999101331MD1210321+9999
0032994060999992012010115004+43967-068117FM-12+0016MDRM1V0203501N009819999999N9999999N1+00251+00241101541ADDMA1999999101341MD1110201+9999
0032994060999992012010116004+43967-068117FM-12+0016MDRM1V0203401N005119999999N9999999N1+00241+00221101541ADDMA1999999101341MD1110141+9999
0032994060999992012010117004+43967-068117FM-12+0016MDRM1V0203601N004119999999N9999999N1+00281+00251101511ADDMA1999999101311MD1010001+9999
0032994060999992012010118004+43967-068117FM-12+0016MDRM1V0200401N004619999999N9999999N1+00331+00231101451ADDMA1999999101251MD1810091+9999
0032994060999992012010119004+43967-068117FM-12+0016MDRM1V0201101N002619999999N9999999N1+00311+00281101491ADDMA1999999101291MD1510051+9999
0032994060999992012010120004+43967-068117FM-12+0016MDRM1V0201201N004119999999N9999999N1+00321+00271101421ADDMA1999999101221MD1810091+9999
0032994060999992012010121004+43967-068117FM-12+0016MDRM1V0201501N004619999999N9999999N1+00311+00301101491ADDMA1999999101281MD1310041+9999
0032994060999992012010122004+43967-068117FM-12+0016MDRM1V0201501N006219999999N9999999N1+00311+00301101421ADDMA1999999101211MD1710071+9999
0032994060999992012010123004+43967-068117FM-12+0016MDRM1V0201701N007219999999N9999999N1+00361+00351101381ADDMA1999999101181MD1810041+9999
0206994060999992012010200004+43967-068117FM-12+0016MDRM1V0201501N009819999999N9999999N1+00431+00431101271ADDMA1999999101071MD1810221+9999OA139901031REMSYN154CMAN  02004 MDRM1 46/// /1519 10043 20043 30107 40127 58022 90000 333 91220 555 11017 22018 32344 415023 62359 153017 152016 164016 169014 16 96041 96463;
0032994060999992012010201004+43967-068117FM-12+0016MDRM1V0201601N009819999999N9999999N1+00561+00551101171ADDMA1999999100971MD1810251+9999
0246994060999992012010202004+43967-068117FM-12+0016MDRM1V0201601N011319999999N9999999N1+00631+00631101101ADDMA1999999100901MD1610281+9999OA139901241REMSYN194CMAN  02024 MDRM1 46/// /1622 10063 20063 30090 40110 56028 90200 333 91224 555 11021 22022 30146 416025 60159 161021 157021 159021 153021 151611 60149 203062 204059 215057 178071 163095 164094;
0032994060999992012010203004+43967-068117FM-12+0016MDRM1V0201801N011819999999N9999999N1+00721+00721100941ADDMA1999999100741MD1810331+9999
0032994060999992012010204004+43967-068117FM-12+0016MDRM1V0201701N011819999999N9999999N1+00731+00731100821ADDMA1999999100621MD1810351+9999
0032994060999992012010205004+43967-068117FM-12+0016MDRM1V0201801N012319999999N9999999N1+00761+00761100711ADDMA1999999100511MD1610391+9999
0032994060999992012010206004+43967-068117FM-12+0016MDRM1V0201701N013419999999N9999999N1+00781+00781100521ADDMA1999999100311MD1810421+9999
0211994060999992012010207004+43967-068117FM-12+0016MDRM1V0201701N014919999999N9999999N1+00831+00831100301ADDMA1999999100101MD1810521+9999OA139901751REMSYN159CMAN  02074 MDRM1 46/// /1729 10083 20083 30010 40030 58052 90700 333 91234 555 11027 22029 30659 417034 60659 169028 170026 169027 172026 1788/40 91117 91212;
0032994060999992012010208004+43967-068117FM-12+0016MDRM1V0201701N015419999999N9999999N1+00831+00831100151ADDMA1999999099941MD1610561+9999
0032994060999992012010209004+43967-068117FM-12+0016MDRM1V0201701N013419999999N9999999N1+00821+00821099991ADDMA1999999099781MD1610531+9999
0032994060999992012010210004+43967-068117FM-12+0016MDRM1V0202001N012319999999N9999999N1+00881+00881099891ADDMA1999999099691MD1610411+9999
0032994060999992012010211004+43967-068117FM-12+0016MDRM1V0201901N011319999999N9999999N1+00871+00871099791ADDMA1999999099591MD1610361+9999
0032994060999992012010212004+43967-068117FM-12+0016MDRM1V0202001N010319999999N9999999N1+00891+00891099721ADDMA1999999099511MD1610271+9999
0032994060999992012010213004+43967-068117FM-12+0016MDRM1V0202201N010319999999N9999999N1+00881+00881099681ADDMA1999999099481MD1610211+9999
0032994060999992012010214004+43967-068117FM-12+0016MDRM1V0202401N011819999999N9999999N1+00851+00851099681ADDMA1999999099481MD1610111+9999
0032994060999992012010215004+43967-068117FM-12+0016MDRM1V0202501N013919999999N9999999N1+00731+00691099671ADDMA1999999099471MD1610051+9999
0234994060999992012010216004+43967-068117FM-12+0016MDRM1V0202501N016419999999N9999999N1+00671+00501099601ADDMA1999999099391MD1810081+9999OA139901801REMSYN182CMAN  02164 MDRM1 46/// /2532 10067 20050 39939 49960 58008 91600 333 91235 555 11029 22031 31559 425035 61559 252030 251028 250028 251026 2483124 281125 277125 284127 280128 279128;
0032994060999992012010217004+43967-068117FM-12+0016MDRM1V0202601N015419999999N9999999N1+00631+00271099581ADDMA1999999099371MD1710101+9999
0032994060999992012010218004+43967-068117FM-12+0016MDRM1V0202501N018019999999N9999999N1+00601+00131099581ADDMA1999999099381MD1610091+9999
0032994060999992012010219004+43967-068117FM-12+0016MDRM1V0202501N014419999999N9999999N1+00611+00131099641ADDMA1999999099441MD1310041+9999
0032994060999992012010220004+43967-068117FM-12+0016MDRM1V0202601N015419999999N9999999N1+00571-00081099691ADDMA1999999099491MD1310111+9999
0032994060999992012010221004+43967-068117FM-12+0016MDRM1V0202601N014919999999N9999999N1+00561-00161099781ADDMA1999999099581MD1310201+9999
0032994060999992012010222004+43967-068117FM-12+0016MDRM1V0202601N013419999999N9999999N1+00571-00081099881ADDMA1999999099671MD1310241+9999
0032994060999992012010223004+43967-068117FM-12+0016MDRM1V0202601N014919999999N9999999N1+00561-00201099981ADDMA1999999099781MD1310291+9999
0032994060999992012010300004+43967-068117FM-12+0016MDRM1V0202801N014419999999N9999999N1+00541-00321100081ADDMA1999999099881MD1210301+9999
0228994060999992012010301004+43967-068117FM-12+0016MDRM1V0202601N014419999999N9999999N1+00511-00151100081ADDMA1999999099881MD1110201+9999OA139901541REMSYN176CMAN  03014 MDRM1 46/// /2628 10051 21015 39988 40008 51020 90100 333 91230 555 11026 22027 30015 426033 60059 264027 264027 265028 266028 26116140 117143 123147 122154 125153;
0204994060999992012010302004+43967-068117FM-12+0016MDRM1V0202601N014419999999N9999999N1+00471-00201100121ADDMA1999999099921MD1110141+9999OA139901651REMSYN152CMAN 03024 MDRM1 46/// /2628 10047 21020 39992 40012 51014 90200 333 91232 555 11026 22028 30124 427032 60159 271028 271026 272026 268027 268028 266028;
0032994060999992012010303004+43967-068117FM-12+0016MDRM1V0202601N014419999999N9999999N1+00451-00221100161ADDMA1999999099961MD1310081+9999
0032994060999992012010304004+43967-068117FM-12+0016MDRM1V0202601N014419999999N9999999N1+00431-00301100141ADDMA1999999099931MD1110061+9999
0032994060999992012010305004+43967-068117FM-12+0016MDRM1V0202601N013419999999N9999999N1+00401-00341100151ADDMA1999999099951MD1110031+9999
0032994060999992012010306004+43967-068117FM-12+0016MDRM1V0202701N013419999999N9999999N1+00371-00421100181ADDMA1999999099981MD1510001+9999
0245994060999992012010307004+43967-068117FM-12+0016MDRM1V0202701N011819999999N9999999N1+00311-00451100231ADDMA1999999100031MD1310091+9999OA139901341REMSYN193CMAN  03074 MDRM1 46/// /2723 10031 21045 30003 40023 53009 90700 333 91226 555 11022 22023 30633 427029 60659 264024 267025 267023 262025 26813 60649 289098 288099 283101 277100 282096 272098;
0257994060999992012010308004+43967-068117FM-12+0016MDRM1V0202901N011819999999N9999999N1+00221-00461100281ADDMA1999999100081MD1310131+9999OA139901391REMSYN205CMAN  03084 MDRM1 46/// /2923 10022 21046 30008 40028 53013 90800 333 91227 555 11022 22023 30706 428030 60759 293024 295023 283021 277023 27109 30723 42615 60749 268100 271106 270106 267106 259104 250089;
0032994060999992012010309004+43967-068117FM-12+0016MDRM1V0203301N007219999999N9999999N1+00171-00231100301ADDMA1999999100101MD1110121+9999
0032994060999992012010310004+43967-068117FM-12+0016MDRM1V0203401N006219999999N9999999N1+00081-00461100331ADDMA1999999100121MD1110101+9999
0246994060999992012010311004+43967-068117FM-12+0016MDRM1V0203401N008219999999N9999999N1+00001-00621100411ADDMA1999999100211MD1310131+9999OA139900881REMSYN194CMAN  03114 MDRM1 46/// /3416 10000 21062 30021 40041 53013 91100 333 91217 555 11014 22015 31057 434020 61059 341016 337014 344015 329013 332509 61049 262065 258066 254061 250064 251070 248074;
0032994060999992012010312004+43967-068117FM-12+0016MDRM1V0203301N008719999999N9999999N1-00041-00611100491ADDMA1999999100291MD1310191+9999
0032994060999992012010313004+43967-068117FM-12+0016MDRM1V0203301N009319999999N9999999N1-00131-00671100631ADDMA1999999100421MD1310301+9999
0032994060999992012010314004+43967-068117FM-12+0016MDRM1V0203201N008719999999N9999999N1-00201-00931100721ADDMA1999999100511MD1310311+9999
0032994060999992012010315004+43967-068117FM-12+0016MDRM1V0203301N009319999999N9999999N1-00201-00911100651ADDMA1999999100451MD1010161+9999
0246994060999992012010316004+43967-068117FM-12+0016MDRM1V0203401N008219999999N9999999N1-00251-00871100651ADDMA1999999100451MD1010001+9999OA139900931REMSYN194CMAN  03164 MDRM1 46/// /3416 11025 21087 30045 40065 50000 91600 333 91218 555 11015 22015 31532 434024 61559 342014 332019 342020 330019 323610 61549 002057 006062 354067 352062 356073 355081;
0032994060999992012010317004+43967-068117FM-12+0016MDRM1V0203401N007219999999N9999999N1-00361-00981100641ADDMA1999999100441MD1610081+9999
0194994060999992012010318004+43967-068117FM-12+0016MDRM1V0203301N009319999999N9999999N1-00391-01011100671ADDMA1999999100471MD1510001+9999OA139901031REMSYN142CMAN  03184 MDRM1 46/// /3318 11039 21101 30047 40067 55000 91800 333 91220 555 11017 22018 31755 434021 61759 334017 335015 338015 339015 33;
0032994060999992012010319004+43967-068117FM-12+0016MDRM1V0203301N009819999999N9999999N1-00371-00981100751ADDMA1999999100541MD1310101+9999
0032994060999992012010320004+43967-068117FM-12+0016MDRM1V0203501N009819999999N9999999N1-00451-01111100761ADDMA1999999100551MD1110121+9999
0234994060999992012010321004+43967-068117FM-12+0016MDRM1V0203401N010319999999N9999999N1-00521-01201100851ADDMA1999999100641MD1310181+9999OA139901241REMSYN182CMAN  03214 MDRM1 46/// /3420 11052 21120 30064 40085 53018 92100 333 91224 555 11019 22020 32047 434025 62059 340020 338020 336019 349020 3420111 323120 320119 313117 319119 326108;
0032994060999992012010322004+43967-068117FM-12+0016MDRM1V0203401N013419999999N9999999N1-00581-01321100861ADDMA1999999100651MD1210111+9999
0032994060999992012010323004+43967-068117FM-12+0016MDRM1V0203501N010819999999N9999999N1-00641-01311101051ADDMA1999999100851MD1310291+9999
0194994060999992012010400004+43967-068117FM-12+0016MDRM1V0203501N010319999999N9999999N1-00691-01391101161ADDMA1999999100961MD1310311+9999OA139901181REMSYN142CMAN  04004 MDRM1 46/// /3520 11069 21139 30096 40116 53031 90000 333 91223 555 11019 22020 32318 434030 62359 351023 348022 342023 344025 34;
0032994060999992012010401004+43967-068117FM-12+0016MDRM1V0203501N009819999999N9999999N1-00731-01321101261ADDMA1999999101061MD1110401+9999
0032994060999992012010402004+43967-068117FM-12+0016MDRM1V0203501N008219999999N9999999N1-00871-01361101261ADDMA1999999101061MD1110211+9999
0032994060999992012010403004+43967-068117FM-12+0016MDRM1V0203501N011819999999N9999999N1-00971-01401101211ADDMA1999999101011MD1010051+9999
0246994060999992012010404004+43967-068117FM-12+0016MDRM1V0203501N012919999999N9999999N1-00991-01261101081ADDMA1999999100871MD1810181+9999OA139901491REMSYN194CMAN  04044 MDRM1 46/// /3525 11099 21126 30087 40108 58018 90400 333 91229 555 11023 22025 30347 435034 60359 352026 347028 348025 346024 350208 60349 036056 025058 026062 024060 026062 028065;
0032994060999992012010405004+43967-068117FM-12+0016MDRM1V0203601N011319999999N9999999N1-01051-01351101231ADDMA1999999101021MD1510031+9999
0204994060999992012010406004+43967-068117FM-12+0016MDRM1V0203501N012919999999N9999999N1-01091-01341101241ADDMA1999999101041MD1310031+9999OA139901601REMSYN152CMAN  04064 MDRM1 46/// /3525 11109 21134 30104 40124 53003 90600 333 91231 555 11023 22025 30559 435031 60559 347024 350024 352024 359022 00 555 60025;
0032994060999992012010407004+43967-068117FM-12+0016MDRM1V0203501N013919999999N9999999N1-01101-01361101251ADDMA1999999101051MD1110171+9999
0240994060999992012010408004+43967-068117FM-12+0016MDRM1V0203501N013419999999N9999999N1-01151-01371101271ADDMA1999999101071MD1210041+9999OA139901491REMSYN188CMAN  04084 MDRM1 46/// /3526 11115 21137 30107 40127 52004 90800 333 91229 555 11024 22026 30706 435035 60759 350026 352027 355027 356027 350749 338019 322020 323027 320025 324028 319031;
0032994060999992012010409004+43967-068117FM-12+0016MDRM1V0203501N013419999999N9999999N1-01161-01431101281ADDMA1999999101081MD1210041+9999
0032994060999992012010410004+43967-068117FM-12+0016MDRM1V0203501N015919999999N9999999N1-01111-01331101271ADDMA1999999101071MD1410001+9999
0032994060999992012010411004+43967-068117FM-12+0016MDRM1V0203501N011819999999N9999999N1-01141-01321101341ADDMA1999999101141MD1310071+9999
0245994060999992012010412004+43967-068117FM-12+0016MDRM1V0203601N012919999999N9999999N1-01181-01341101371ADDMA1999999101161MD1310091+9999OA139901441REMSYN193CMAN  04124 MDRM1 46/// /3625 11118 21134 30116 40137 53009 91200 333 91228 555 11024 22025 31148 435033 61159 356025 351026 352023 345025 35213 61149 310083 325089 325093 325095 315096 322096;
0245994060999992012010413004+43967-068117FM-12+0016MDRM1V0203401N010819999999N9999999N1-01201-01311101441ADDMA1999999101231MD1210171+9999OA139901341REMSYN193CMAN  04134 MDRM1 46/// /3421 11120 21131 30123 40144 52017 91300 333 91226 555 11019 22021 31239 436033 61259 338021 353024 358025 356025 35210 61249 318071 313077 314078 313078 316079 315081;
0032994060999992012010414004+43967-068117FM-12+0016MDRM1V0203501N009819999999N9999999N1-01191-01351101491ADDMA1999999101291MD1310151+9999
0032994060999992012010415004+43967-068117FM-12+0016MDRM1V0203301N008719999999N9999999N1-01181-01361101421ADDMA1999999101211MD1010051+9999
0251994060999992012010416004+43967-068117FM-12+0016MDRM1V0203301N008719999999N9999999N1-01051-01221101351ADDMA1999999101151MD1810091+9999OA139901131REMSYN199CMAN  04164 MDRM1 46/// /3317 11105 21122 30115 40135 58009 91600 333 91222 555 11016 22017 31530 434025 61559 332019 330020 337020 342018 34527 43106 61549 301042 314039 315041 318033 327033 325039;
0032994060999992012010417004+43967-068117FM-12+0016MDRM1V0203301N009319999999N9999999N1-00991-01251101271ADDMA1999999101071MD1810221+9999
0251994060999992012010418004+43967-068117FM-12+0016MDRM1V0203201N007719999999N9999999N1-00871-01451101221ADDMA1999999101021MD1610201+9999OA139901031REMSYN199CMAN  04184 MDRM1 46/// /3215 11087 21145 30102 40122 56020 91800 333 91220 555 11014 22015 31716 433023 61759 322016 315016 312017 315017 32745 42806 61749 282045 285038 283035 282040 277034 281036;
0032994060999992012010419004+43967-068117FM-12+0016MDRM1V0203101N010819999999N9999999N1-00701-01371101231ADDMA1999999101021MD1610121+9999
0032994060999992012010420004+43967-068117FM-12+0016MDRM1V0202901N006719999999N9999999N1-00641-01351101261ADDMA1999999101061MD1510001+9999
0032994060999992012010421004+43967-068117FM-12+0016MDRM1V0203101N008719999999N9999999N1-00581-01411101271ADDMA1999999101071MD1210051+9999
0251994060999992012010422004+43967-068117FM-12+0016MDRM1V0203001N007719999999N9999999N1-00501-01351101321ADDMA1999999101111MD1310091+9999OA139900931REMSYN199CMAN  04224 MDRM1 46/// /3015 11050 21135 30111 40132 53009 92200 333 91218 555 11014 22014 32102 431025 62159 297014 296014 292017 284017 29145 42607 62149 256055 250045 242039 268037 252035 258039;
0032994060999992012010423004+43967-068117FM-12+0016MDRM1V0203001N006219999999N9999999N1-00451-01351101361ADDMA1999999101161MD1310101+9999
0194994060999992012010500004+43967-068117FM-12+0016MDRM1V0203001N007219999999N9999999N1-00381-01201101341ADDMA1999999101141MD1110071+9999OA139900981REMSYN142CMAN  05004 MDRM1 46/// /3014 11038 21120 30114 40134 51007 90000 333 91219 555 11013 22014 32342 429019 62359 299014 298013 292013 290012 29;
0246994060999992012010501004+43967-068117FM-12+0016MDRM1V0202801N005719999999N9999999N1-00351-01361101311ADDMA1999999101101MD1010001+9999OA139900621REMSYN194CMAN  05014 MDRM1 46/// /2811 11035 21136 30110 40131 50000 90100 333 91212 555 11010 22011 30001 430017 60059 278012 283010 285010 286011 301110 60049 094056 104064 100058 102050 102056 099054;
0032994060999992012010502004+43967-068117FM-12+0016MDRM1V0202801N006219999999N9999999N1-00331-01571101241ADDMA1999999101041MD1810121+9999
0032994060999992012010503004+43967-068117FM-12+0016MDRM1V0202401N005119999999N9999999N1-00251-01171101171ADDMA1999999100971MD1810171+9999
0032994060999992012010504004+43967-068117FM-12+0016MDRM1V0202401N008219999999N9999999N1-00101-00751101091ADDMA1999999100891MD1810221+9999
0032994060999992012010505004+43967-068117FM-12+0016MDRM1V0202501N010319999999N9999999N1-00011-00671101041ADDMA1999999100831MD1610201+9999
0032994060999992012010506004+43967-068117FM-12+0016MDRM1V0203101N008219999999N9999999N1-00091-00541101011ADDMA1999999100811MD1610161+9999
0032994060999992012010507004+43967-068117FM-12+0016MDRM1V0203001N004619999999N9999999N1-00131-00581100981ADDMA1999999100781MD1610111+9999
0032994060999992012010508004+43967-068117FM-12+0016MDRM1V0203001N004619999999N9999999N1-00131-00561100921ADDMA1999999100721MD1810121+9999
0032994060999992012010509004+43967-068117FM-12+0016MDRM1V0202501N008219999999N9999999N1+00021-00531100831ADDMA1999999100631MD1810181+9999
0032994060999992012010510004+43967-068117FM-12+0016MDRM1V0202401N006719999999N9999999N1+00031-00631100791ADDMA1999999100591MD1610191+9999
0204994060999992012010511004+43967-068117FM-12+0016MDRM1V0202601N006719999999N9999999N1+00001-00631100761ADDMA1999999100561MD1610161+9999OA139900821REMSYN152CMAN 05114 MDRM1 46/// /2613 10000 21063 30056 40076 56016 91100 333 91216 555 11012 22013 31005 426017 61059 259013 254013 262013 256013 261014 254014;
0200994060999992012010512004+43967-068117FM-12+0016MDRM1V0203001N005119999999N9999999N1-00061-00471100751ADDMA1999999100551MD1610081+9999OA139900571REMSYN148CMAN  05124 MDRM1 46/// /3010 11006 21047 30055 40075 56008 91200 333 91211 555 11009 22010 31110 426017 61159 297010 295010 297011 293011 27 96271;
0032994060999992012010513004+43967-068117FM-12+0016MDRM1V0202701N007219999999N9999999N1+00011-00391100711ADDMA1999999100511MD1810081+9999
0032994060999992012010514004+43967-068117FM-12+0016MDRM1V0202501N007719999999N9999999N1+00031-00431100721ADDMA1999999100521MD1710041+9999
0032994060999992012010515004+43967-068117FM-12+0016MDRM1V0202601N007719999999N9999999N1+00061-00351100691ADDMA1999999100491MD1610061+9999
0032994060999992012010516004+43967-068117FM-12+0016MDRM1V0202601N009319999999N9999999N1+00071-00351100601ADDMA1999999100401MD1810111+9999
0246994060999992012010517004+43967-068117FM-12+0016MDRM1V0202601N008219999999N9999999N1+00091-00221100461ADDMA1999999100261MD1810261+9999OA139900881REMSYN194CMAN  05174 MDRM1 46/// /2616 10009 21022 30026 40046 58026 91700 333 91217 555 11014 22015 31653 426023 61659 261017 261018 255018 256017 261505 61649 148029 151032 154039 150041 151037 158031;
0032994060999992012010518004+43967-068117FM-12+0016MDRM1V0202601N010319999999N9999999N1+00141-00141100371ADDMA1999999100171MD1710321+9999
0032994060999992012010519004+43967-068117FM-12+0016MDRM1V0202701N011319999999N9999999N1+00191-00061100361ADDMA1999999100161MD1610241+9999
0032994060999992012010520004+43967-068117FM-12+0016MDRM1V0202801N010319999999N9999999N1+00181-00081100421ADDMA1999999100221MD1510041+9999
0032994060999992012010521004+43967-068117FM-12+0016MDRM1V0203101N008219999999N9999999N1+00051-00451100501ADDMA1999999100301MD1310131+9999
0032994060999992012010522004+43967-068117FM-12+0016MDRM1V0203201N008719999999N9999999N1+00061-00451100571ADDMA1999999100361MD1310211+9999
0240994060999992012010523004+43967-068117FM-12+0016MDRM1V0203201N008719999999N9999999N1+00051-00591100661ADDMA1999999100461MD1310241+9999OA139900981REMSYN188CMAN  05234 MDRM1 46/// /3217 10005 21059 30046 40066 53024 92300 333 91219 555 11016 22017 32221 431023 62259 321018 318016 319017 310018 312249 279033 278034 279030 282025 289022 307019;
0032994060999992012010600004+43967-068117FM-12+0016MDRM1V0203201N011819999999N9999999N1+00041-00601100711ADDMA1999999100511MD1110211+9999
0257994060999992012010601004+43967-068117FM-12+0016MDRM1V0203301N010319999999N9999999N1-00061-00501100841ADDMA1999999100631MD1310271+9999OA139901181REMSYN205CMAN  06014 MDRM1 46/// /3320 11006 21050 30063 40084 53027 90100 333 91223 555 11019 22020 30005 432027 60059 325020 321022 321022 326022 32088 32354 43011 60049 312082 310077 313079 312080 321079 308087;
0032994060999992012010602004+43967-068117FM-12+0016MDRM1V0203301N010319999999N9999999N1-00141-00831100891ADDMA1999999100691MD1210231+9999
0246994060999992012010603004+43967-068117FM-12+0016MDRM1V0203301N009819999999N9999999N1-00211-00891100941ADDMA1999999100731MD1110231+9999OA139901081REMSYN194CMAN  06034 MDRM1 46/// /3319 11021 21089 30073 40094 51023 90300 333 91221 555 11018 22019 30205 433026 60259 325019 320018 321017 323018 322912 60249 302068 308075 295084 300082 297078 302090;
0246994060999992012010604004+43967-068117FM-12+0016MDRM1V0203301N010319999999N9999999N1-00211-00861100971ADDMA1999999100761MD1110131+9999OA139901241REMSYN194CMAN  06044 MDRM1 46/// /3320 11021 21086 30076 40097 51013 90400 333 91224 555 11019 22020 30353 432024 60359 326020 330020 330019 326019 321406 60349 131046 138043 141046 138045 141040 140041;
0032994060999992012010605004+43967-068117FM-12+0016MDRM1V0203201N009319999999N9999999N1-00251-00941100981ADDMA1999999100771MD1110091+9999
0194994060999992012010606004+43967-068117FM-12+0016MDRM1V0203201N008719999999N9999999N1-00291-00921101061ADDMA1999999100861MD1310121+9999OA139901031REMSYN142CMAN  06064 MDRM1 46/// /3217 11029 21092 30086 40106 53012 90600 333 91220 555 11016 22017 30543 433025 60559 325018 328020 328020 328019 32;
0032994060999992012010607004+43967-068117FM-12+0016MDRM1V0203401N008219999999N9999999N1-00321-00921101101ADDMA1999999100891MD1310131+9999
0032994060999992012010608004+43967-068117FM-12+0016MDRM1V0203501N007219999999N9999999N1-00321-00861101151ADDMA1999999100951MD1110171+9999
0203994060999992012010609004+43967-068117FM-12+0016MDRM1V0203201N007219999999N9999999N1-00351-01031101181ADDMA1999999100981MD1110121+9999OA139900771REMSYN151CMAN  06094 MDRM1 46/// /3214 11035 21103 30098 40118 51012 90900 333 91215 555 11013 22014 30820 433019 60859 316014 312014 319012 333013 331// 50///;
0032994060999992012010610004+43967-068117FM-12+0016MDRM1V0203201N005719999999N9999999N1-00361-01001101251ADDMA1999999101041MD1310151+9999
0032994060999992012010611004+43967-068117FM-12+0016MDRM1V0203401N003119999999N9999999N1-00331-00971101291ADDMA1999999101081MD1310141+9999
0032994060999992012010612004+43967-068117FM-12+0016MDRM1V0203301N003619999999N9999999N1-00311-00981101361ADDMA1999999101151MD1210181+9999
0251994060999992012010613004+43967-068117FM-12+0016MDRM1V0203601N002619999999N9999999N1-00311-00961101411ADDMA1999999101211MD1310161+9999OA139900311REMSYN199CMAN  06134 MDRM1 46/// /3605 11031 21096 30121 40141 53016 91300 333 91206 555 11004 22005 31200 433011 61259 353004 326006 322005 324007 31202 42505 61249 211019 227020 244014 261020 226026 244020;
0032994060999992012010614004+43967-068117FM-12+0016MDRM1V0203201N001019999999N9999999N1-00281-00871101451ADDMA1999999101241MD1110161+9999
0251994060999992012010615004+43967-068117FM-12+0016MDRM1V0203501N001019999999N9999999N1-00241-00841101441ADDMA1999999101231MD1110081+9999OA139900151REMSYN199CMAN  06154 MDRM1 46/// /3502 11024 21084 30123 40144 51008 91500 333 91203 555 11002 22002 31404 436005 61459 351002 291000 027000 352002 34447 41605 61449 152036 150018 174016 164016 127008 106006;
0251994060999992012010616004+43967-068117FM-12+0016MDRM1V0201201N001519999999N9999999N1-00221-00871101331ADDMA1999999101121MD1810081+9999OA139900211REMSYN199CMAN  06164 MDRM1 46/// /1203 11022 21087 30112 40133 58008 91600 333 91204 555 11002 22003 31541 411006 61559 110003 111004 065003 084002 34537 41607 61549 155042 163045 153043 155042 151040 156040;
0240994060999992012010617004+43967-068117FM-12+0016MDRM1V0201301N003119999999N9999999N1-00171-00741101231ADDMA1999999101031MD1810221+9999OA139900461REMSYN188CMAN  06174 MDRM1 46/// /1306 11017 21074 30103 40123 58022 91700 333 91209 555 11006 22006 31647 411011 61659 113006 113007 142005 115004 081649 154048 157050 162049 158045 172045 166044;
0206994060999992012010618004+43967-068117FM-12+0016MDRM1V0201401N004619999999N9999999N1-00151-00631101131ADDMA1999999100931MD1610311+9999OA139900621REMSYN154CMAN  06184 MDRM1 46/// /1409 11015 21063 30093 40113 56031 91800 333 91212 555 11009 22009 31743 413013 61759 136009 132008 130008 112008 12 96477 96441;
0234994060999992012010619004+43967-068117FM-12+0016MDRM1V0201501N005719999999N9999999N1-00091-00391101121ADDMA1999999100911MD1610211+9999OA139900671REMSYN182CMAN  06194 MDRM1 46/// /1511 11009 21039 30091 40112 56021 91900 333 91213 555 11010 22011 31851 413016 61859 141011 134010 139010 136010 1231109 229107 230111 232110 233109 226115;
0032994060999992012010620004+43967-068117FM-12+0016MDRM1V0201401N007719999999N9999999N1-00031-00181101031ADDMA1999999100821MD1610201+9999
0032994060999992012010621004+43967-068117FM-12+0016MDRM1V0201501N010819999999N9999999N1+00101+00091100961ADDMA1999999100751MD1810171+9999
0032994060999992012010622004+43967-068117FM-12+0016MDRM1V0201601N011819999999N9999999N1+00191+00191100871ADDMA1999999100671MD1710251+9999
0032994060999992012010623004+43967-068117FM-12+0016MDRM1V0201701N011319999999N9999999N1+00361+00331100831ADDMA1999999100621MD1610201+9999
0032994060999992012010700004+43967-068117FM-12+0016MDRM1V0201801N013419999999N9999999N1+00481+00471100751ADDMA1999999100541MD1610211+9999
0194994060999992012010701004+43967-068117FM-12+0016MDRM1V0201901N012919999999N9999999N1+00581+00571100681ADDMA1999999100481MD1810191+9999OA139901491REMSYN142CMAN  07014 MDRM1 46/// /1925 10058 20057 30048 40068 58019 90100 333 91229 555 11023 22025 30043 419031 60059 185026 185028 185024 179025 17;
0246994060999992012010702004+43967-068117FM-12+0016MDRM1V0201901N009319999999N9999999N1+00621+00621100671ADDMA1999999100471MD1610161+9999OA139900981REMSYN194CMAN  07024 MDRM1 46/// /1918 10062 20062 30047 40067 56016 90200 333 91219 555 11016 22017 30108 419027 60159 189017 187020 186020 186022 181606 60149 158043 153042 165043 151040 159039 155042;
0032994060999992012010703004+43967-068117FM-12+0016MDRM1V0202301N005119999999N9999999N1+00661+00661100651ADDMA1999999100441MD1610101+9999
0032994060999992012010704004+43967-068117FM-12+0016MDRM1V0202501N004119999999N9999999N1+00701+00691100641ADDMA1999999100441MD1710041+9999
0257994060999992012010705004+43967-068117FM-12+0016MDRM1V0203301N003119999999N9999999N1+00591+00591100601ADDMA1999999100391MD1810071+9999OA139900361REMSYN205CMAN  07054 MDRM1 46/// /3306 10059 20059 30039 40060 58007 90500 333 91207 555 11006 22006 30404 425010 60459 319006 308005 284007 260007 25039 30406 43406 60449 004037 004038 002044 001049 350045 352044;
0032994060999992012010706004+43967-068117FM-12+0016MDRM1V0203201N002619999999N9999999N1+00491+00491100621ADDMA1999999100421MD1710031+9999
0032994060999992012010707004+43967-068117FM-12+0016MDRM1V0203301N003119999999N9999999N1+00431+00431100691ADDMA1999999100491MD1310051+9999
0032994060999992012010708004+43967-068117FM-12+0016MDRM1V0203401N001519999999N9999999N1+00381+00381100691ADDMA1999999100491MD1210091+9999
0032994060999992012010709004+43967-068117FM-12+0016MDRM1V0203401N001519999999N9999999N1+00421+00421100681ADDMA1999999100481MD1110061+9999
0032994060999992012010710004+43967-068117FM-12+0016MDRM1V0203501N003119999999N9999999N1+00371+00371100711ADDMA1999999100511MD1510001+9999
0257994060999992012010711004+43967-068117FM-12+0016MDRM1V0200501N003619999999N9999999N1+00451+00451100671ADDMA1999999100471MD1010001+9999OA139900411REMSYN205CMAN  07114 MDRM1 46/// /0507 10045 20045 30047 40067 50000 91100 333 91208 555 11007 22007 31027 436008 61059 037007 026006 017006 004007 35024 30954 40105 61049 042023 031022 028021 023026 020033 015033;
0032994060999992012010712004+43967-068117FM-12+0016MDRM1V0200901N002619999999N9999999N1+00511+00511100761ADDMA1999999100561MD1310081+9999
0032994060999992012010713004+43967-068117FM-12+0016MDRM1V0201401N004619999999N9999999N1+00591+00591100741ADDMA1999999100531MD1310031+9999
0246994060999992012010714004+43967-068117FM-12+0016MDRM1V0201401N005719999999N9999999N1+00651+00651100711ADDMA1999999100511MD1010041+9999OA139900571REMSYN194CMAN  07144 MDRM1 46/// /1411 10065 20065 30051 40071 50004 91400 333 91211 555 11010 22011 31352 413013 61359 134012 134011 136011 139010 131604 61349 193021 182024 169018 163018 174022 174017;
0032994060999992012010715004+43967-068117FM-12+0016MDRM1V0201601N004119999999N9999999N1+00721+00721100711ADDMA1999999100511MD1710051+9999
0246994060999992012010716004+43967-068117FM-12+0016MDRM1V0201601N003119999999N9999999N1+00761+00761100571ADDMA1999999100371MD1810171+9999OA139900361REMSYN194CMAN  07164 MDRM1 46/// /1606 10076 20076 30037 40057 58017 91600 333 91207 555 11006 22006 31526 416009 61559 159007 167007 164007 163008 152511 61549 243085 243088 244088 243090 243089 242089;
0251994060999992012010717004+43967-068117FM-12+0016MDRM1V0201901N003619999999N9999999N1+00771+00771100501ADDMA1999999100301MD1810211+9999OA139900411REMSYN199CMAN  07174 MDRM1 46/// /1907 10077 20077 30030 40050 58021 91700 333 91208 555 11007 22007 31643 417010 61659 188008 177009 169008 176006 17624 40205 61649 013027 019027 014037 014038 012037 011035;
0194994060999992012010718004+43967-068117FM-12+0016MDRM1V0201801N002619999999N9999999N1+00831+00831100391ADDMA1999999100181MD1610321+9999OA139900311REMSYN142CMAN  07184 MDRM1 46/// /1805 10083 20083 30018 40039 56032 91800 333 91206 555 11005 22005 31704 419008 61759 183006 186006 190006 193006 18;
0240994060999992012010719004+43967-068117FM-12+0016MDRM1V0202301N003619999999N9999999N1+00751+00751100401ADDMA1999999100201MD1610171+9999OA139900361REMSYN188CMAN  07194 MDRM1 46/// /2307 10075 20075 30020 40040 56017 91900 333 91207 555 11007 22007 31817 418009 61859 231006 221007 205007 192007 181849 206019 191016 194016 228015 222015 206010;
0032994060999992012010720004+43967-068117FM-12+0016MDRM1V0202201N002119999999N9999999N1+00781+00781100371ADDMA1999999100171MD1610131+9999
0032994060999992012010721004+43967-068117FM-12+0016MDRM1V0202101N002619999999N9999999N1+00711+00711100351ADDMA1999999100151MD1710041+9999
0032994060999992012010722004+43967-068117FM-12+0016MDRM1V0202301N004619999999N9999999N1+00691+00691100401ADDMA1999999100201MD1510001+9999
0032994060999992012010723004+43967-068117FM-12+0016MDRM1V0203101N006219999999N9999999N1+00611+00611100471ADDMA1999999100271MD1310101+9999
0032994060999992012010800004+43967-068117FM-12+0016MDRM1V0203001N007719999999N9999999N1+00491+00491100541ADDMA1999999100341MD1310191+9999
0032994060999992012010801004+43967-068117FM-12+0016MDRM1V0202801N007219999999N9999999N1+00471+00471100551ADDMA1999999100341MD1110151+9999
0032994060999992012010802004+43967-068117FM-12+0016MDRM1V0202901N007719999999N9999999N1+00471+00471100651ADDMA1999999100441MD1310181+9999
0032994060999992012010803004+43967-068117FM-12+0016MDRM1V0202901N007219999999N9999999N1+00451+00431100691ADDMA1999999100481MD1310151+9999
0032994060999992012010804004+43967-068117FM-12+0016MDRM1V0202901N007219999999N9999999N1+00491+00401100751ADDMA1999999100541MD1110201+9999
0032994060999992012010805004+43967-068117FM-12+0016MDRM1V0203101N005719999999N9999999N1+00441+00431100811ADDMA1999999100611MD1310161+9999
0200994060999992012010806004+43967-068117FM-12+0016MDRM1V0203101N004119999999N9999999N1+00411+00411100871ADDMA1999999100671MD1210181+9999OA139900511REMSYN148CMAN  08064 MDRM1 46/// /3108 10041 20041 30067 40087 52018 90600 333 91210 555 11008 22008 30502 431014 60559 310009 305011 305011 304010 30 96471;
0032994060999992012010807004+43967-068117FM-12+0016MDRM1V0203001N006219999999N9999999N1+00451+00411100961ADDMA1999999100751MD1310211+9999
0240994060999992012010808004+43967-068117FM-12+0016MDRM1V0203101N007219999999N9999999N1+00451+00341101021ADDMA1999999100821MD1210211+9999OA139900771REMSYN188CMAN  08084 MDRM1 46/// /3114 10045 20034 30082 40102 52021 90800 333 91215 555 11013 22014 30744 432016 60759 310014 317014 316014 315013 300749 207031 206028 209031 199031 207033 215031;
0240994060999992012010809004+43967-068117FM-12+0016MDRM1V0203101N007219999999N9999999N1+00471+00341101101ADDMA1999999100901MD1110231+9999OA139900821REMSYN188CMAN  08094 MDRM1 46/// /3114 10047 20034 30090 40110 51023 90900 333 91216 555 11013 22014 30816 431018 60859 305013 312012 315014 316015 310849 108042 106047 104048 104048 104042 108036;
0240994060999992012010810004+43967-068117FM-12+0016MDRM1V0203201N006219999999N9999999N1+00491+00361101191ADDMA1999999100991MD1310231+9999OA139900671REMSYN188CMAN  08104 MDRM1 46/// /3212 10049 20036 30099 40119 53023 91000 333 91213 555 11011 22012 30900 431016 60959 324011 318010 308011 299011 300949 219021 227022 217018 214021 207023 208029;
0032994060999992012010811004+43967-068117FM-12+0016MDRM1V0203101N006719999999N9999999N1+00541+00271101271ADDMA1999999101061MD1210251+9999
0032994060999992012010812004+43967-068117FM-12+0016MDRM1V0203301N008719999999N9999999N1+00501+00171101361ADDMA1999999101151MD1210261+9999
0032994060999992012010813004+43967-068117FM-12+0016MDRM1V0203201N012319999999N9999999N1+00461+00061101451ADDMA1999999101251MD1310261+9999
0032994060999992012010814004+43967-068117FM-12+0016MDRM1V0203301N012319999999N9999999N1+00391-00141101581ADDMA1999999101381MD1310311+9999
0032994060999992012010815004+43967-068117FM-12+0016MDRM1V0203301N011319999999N9999999N1+00371-00181101671ADDMA1999999101471MD1210311+9999
0032994060999992012010816004+43967-068117FM-12+0016MDRM1V0203301N010319999999N9999999N1+00341-00261101641ADDMA1999999101431MD1010191+9999
0240994060999992012010817004+43967-068117FM-12+0016MDRM1V0203301N007719999999N9999999N1+00331-00251101631ADDMA1999999101431MD1110051+9999OA139900821REMSYN188CMAN  08174 MDRM1 46/// /3315 10033 21025 30143 40163 51005 91700 333 91216 555 11014 22015 31603 433024 61659 330016 324016 336016 330017 321649 202008 210005 216009 181006 219010 235007;
0224994060999992012010818004+43967-068117FM-12+0016MDRM1V0203301N006219999999N9999999N1+00341-00311101671ADDMA1999999101471MD1510001+9999OA139900721REMSYN172CMAN  08184 MDRM1 46/// /3312 10034 21031 30147 40167 55000 91800 333 91214 555 11011 22011 31722 433019 61759 329012 333012 329014 331016 33 96473 96441 98183 98281 98883;
0032994060999992012010819004+43967-068117FM-12+0016MDRM1V0203301N005119999999N9999999N1+00341-00341101751ADDMA1999999101541MD1310111+9999
0032994060999992012010820004+43967-068117FM-12+0016MDRM1V0203301N006719999999N9999999N1+00351-00361101771ADDMA1999999101571MD1110141+9999
0032994060999992012010821004+43967-068117FM-12+0016MDRM1V0203101N006219999999N9999999N1+00351-00511101841ADDMA1999999101641MD1110171+9999
0032994060999992012010822004+43967-068117FM-12+0016MDRM1V0203201N006719999999N9999999N1+00361-00511101921ADDMA1999999101721MD1310171+9999
0032994060999992012010823004+43967-068117FM-12+0016MDRM1V0203301N008219999999N9999999N1+00331-00541101981ADDMA1999999101771MD1110211+9999
0200994060999992012010900004+43967-068117FM-12+0016MDRM1V0200201N008219999999N9999999N1+00161+00001102071ADDMA1999999101871MD1310231+9999OA139900931REMSYN148CMAN  09004 MDRM1 46/// /0216 10016 20000 30187 40207 53023 90000 333 91218 555 11015 22016 32332 433024 62359 022016 025017 004018 326016 32 87633;
0204994060999992012010901004+43967-068117FM-12+0016MDRM1V0200101N008219999999N9999999N1+00081-00031102101ADDMA1999999101901MD1110181+9999OA139900981REMSYN152CMAN 09014 MDRM1 46/// /0116 10008 21003 30190 40210 51018 90100 333 91219 555 11015 22016 30009 402020 60059 012016 013016 014017 011016 017017 019018;
0032994060999992012010902004+43967-068117FM-12+0016MDRM1V0203601N007219999999N9999999N1+00031-00141102151ADDMA1999999101951MD1110171+9999
0032994060999992012010903004+43967-068117FM-12+0016MDRM1V0203501N006219999999N9999999N1-00011-00371102171ADDMA1999999101971MD1110101+9999
0032994060999992012010904004+43967-068117FM-12+0016MDRM1V0203501N006219999999N9999999N1-00041-00541102181ADDMA1999999101971MD1110081+9999
0032994060999992012010905004+43967-068117FM-12+0016MDRM1V0203601N007719999999N9999999N1-00091-00611102201ADDMA1999999102001MD1210051+9999
0302994060999992012010906004+43967-068117FM-12+0016MDRM1V0203401N006719999999N9999999N1-00161-00641102191ADDMA1999999101991MD1410001+9999OA139900821REMSYN250CMAN  09064 MDRM1 46/// /3413 11016 21064 30199 40219 54000 90600 333 91216 555 11012 22013 30537 434022 60559 344014 340017 344018 342017 343006 60001 70301 82208 333 561/9/3D 91623 NIL/3D 91629 NIL/3D 91701 11499 30905 10270 2025/ 60001 70200 83200
0032994060999992012010907004+43967-068117FM-12+0016MDRM1V0203501N007219999999N9999999N1-00201-00721102271ADDMA1999999102071MD1310091+9999
0032994060999992012010908004+43967-068117FM-12+0016MDRM1V0203301N007719999999N9999999N1-00251-00751102281ADDMA1999999102081MD1210081+9999
0032994060999992012010909004+43967-068117FM-12+0016MDRM1V0203401N007719999999N9999999N1-00311-00771102281ADDMA1999999102081MD1110091+9999
0032994060999992012010910004+43967-068117FM-12+0016MDRM1V0203501N007219999999N9999999N1-00341-00811102331ADDMA1999999102121MD1310061+9999
0032994060999992012010911004+43967-068117FM-12+0016MDRM1V0203401N007719999999N9999999N1-00371-00741102351ADDMA1999999102151MD1210071+9999
0032994060999992012010912004+43967-068117FM-12+0016MDRM1V0203501N006719999999N9999999N1-00401-01071102391ADDMA1999999102191MD1110111+9999
0032994060999992012010913004+43967-068117FM-12+0016MDRM1V0203601N007219999999N9999999N1-00411-01221102411ADDMA1999999102201MD1210081+9999
0032994060999992012010914004+43967-068117FM-12+0016MDRM1V0203401N006219999999N9999999N1-00361-01091102441ADDMA1999999102231MD1110091+9999
0032994060999992012010915004+43967-068117FM-12+0016MDRM1V0203401N002619999999N9999999N1-00371-01121102421ADDMA1999999102221MD1210031+9999
0204994060999992012010916004+43967-068117FM-12+0016MDRM1V0203401N003119999999N9999999N1-00331-01061102331ADDMA1999999102131MD1810081+9999OA139900461REMSYN152CMAN 09164 MDRM1 46/// /3406 11033 21106 30213 40233 58008 91600 333 91209 555 11006 22006 31559 434009 61559 334005 354006 349004 358004 350004 335004;
0032994060999992012010917004+43967-068117FM-12+0016MDRM1V0202801N003119999999N9999999N1-00291-00991102241ADDMA1999999102041MD1810201+9999
0194994060999992012010918004+43967-068117FM-12+0016MDRM1V0202401N002619999999N9999999N1-00191-00731102151ADDMA1999999101941MD1710271+9999OA139900311REMSYN142CMAN  09184 MDRM1 46/// /2405 11019 21073 30194 40215 57027 91800 333 91206 555 11004 22005 31717 427012 61759 253005 275004 273006 274007 26;
0240994060999992012010919004+43967-068117FM-12+0016MDRM1V0202601N005719999999N9999999N1-00141-00821102081ADDMA1999999101881MD1610251+9999OA139900621REMSYN188CMAN  09194 MDRM1 46/// /2611 11014 21082 30188 40208 56025 91900 333 91212 555 11010 22011 31842 425015 61859 250010 254009 231007 230008 241849 072057 076060 073060 079058 077057 082060;
0032994060999992012010920004+43967-068117FM-12+0016MDRM1V0202401N004119999999N9999999N1-00081-00731102051ADDMA1999999101851MD1610191+9999
0032994060999992012010921004+43967-068117FM-12+0016MDRM1V0202301N005719999999N9999999N1-00041-00661102001ADDMA1999999101801MD1610151+9999
0234994060999992012010922004+43967-068117FM-12+0016MDRM1V0202301N005719999999N9999999N1+00001-00601101981ADDMA1999999101771MD1610101+9999OA139900771REMSYN182CMAN  09224 MDRM1 46/// /2311 10000 21060 30177 40198 56010 92200 333 91215 555 11010 22011 32156 423017 62159 230012 229011 240011 231011 2305037 298042 300055 295052 304035 314035;
0032994060999992012010923004+43967-068117FM-12+0016MDRM1V0202201N006219999999N9999999N1+00061-00501101941ADDMA1999999101741MD1610111+9999
0032994060999992012011000004+43967-068117FM-12+0016MDRM1V0202201N007719999999N9999999N1+00131-00351101901ADDMA1999999101701MD1810101+9999
0032994060999992012011001004+43967-068117FM-12+0016MDRM1V0202201N009319999999N9999999N1+00241-00251101811ADDMA1999999101601MD1810171+9999
0032994060999992012011002004+43967-068117FM-12+0016MDRM1V0202401N010819999999N9999999N1+00311-00341101721ADDMA1999999101521MD1810221+9999
0032994060999992012011003004+43967-068117FM-12+0016MDRM1V0202401N011819999999N9999999N1+00361-00231101621ADDMA1999999101421MD1810281+9999
0032994060999992012011004004+43967-068117FM-12+0016MDRM1V0202401N009319999999N9999999N1+00401-00171101531ADDMA1999999101331MD1710281+9999
0234994060999992012011005004+43967-068117FM-12+0016MDRM1V0202501N009819999999N9999999N1+00471-00161101401ADDMA1999999101201MD1810321+9999OA139901081REMSYN182CMAN  10054 MDRM1 46/// /2519 10047 21016 30120 40140 58032 90500 333 91221 555 11017 22019 30404 424024 60459 248020 249019 247019 250019 2530094 232095 229096 231091 231091 235086;
0032994060999992012011006004+43967-068117FM-12+0016MDRM1V0202501N009319999999N9999999N1+00461-00331101331ADDMA1999999101131MD1610291+9999
0032994060999992012011007004+43967-068117FM-12+0016MDRM1V0202401N010319999999N9999999N1+00511-00191101251ADDMA1999999101051MD1610281+9999
0032994060999992012011008004+43967-068117FM-12+0016MDRM1V0202401N010319999999N9999999N1+00491-00241101191ADDMA1999999100981MD1610211+9999
0240994060999992012011009004+43967-068117FM-12+0016MDRM1V0202401N012319999999N9999999N1+00491-00271101091ADDMA1999999100881MD1810241+9999OA139901291REMSYN188CMAN  10094 MDRM1 46/// /2424 10049 21027 30088 40109 58024 90900 333 91225 555 11022 22023 30842 424027 60859 237023 242022 238023 244022 240849 046062 050059 053062 054063 047063 051064;
0032994060999992012011010004+43967-068117FM-12+0016MDRM1V0202401N012319999999N9999999N1+00481-00281101041ADDMA1999999100841MD1610211+9999
0032994060999992012011011004+43967-068117FM-12+0016MDRM1V0202301N011319999999N9999999N1+00481+00001100981ADDMA1999999100781MD1610211+9999
0032994060999992012011012004+43967-068117FM-12+0016MDRM1V0202201N012319999999N9999999N1+00481+00091100891ADDMA1999999100681MD1810201+9999
0032994060999992012011013004+43967-068117FM-12+0016MDRM1V0202201N011819999999N9999999N1+00501-00041100831ADDMA1999999100631MD1710211+9999
0246994060999992012011014004+43967-068117FM-12+0016MDRM1V0202201N012919999999N9999999N1+00541-00191100791ADDMA1999999100591MD1610191+9999OA139901341REMSYN194CMAN  10144 MDRM1 46/// /2225 10054 21019 30059 40079 56019 91400 333 91226 555 11023 22024 31353 422030 61359 221025 219025 215024 214024 210404 61349 079029 069025 061027 053031 050031 039033;
0032994060999992012011015004+43967-068117FM-12+0016MDRM1V0202301N013419999999N9999999N1+00501+00031100791ADDMA1999999100591MD1610101+9999
0032994060999992012011016004+43967-068117FM-12+0016MDRM1V0202301N013419999999N9999999N1+00471+00191100661ADDMA1999999100461MD1810171+9999
0032994060999992012011017004+43967-068117FM-12+0016MDRM1V0202501N015919999999N9999999N1+00381+00311100531ADDMA1999999100321MD1810261+9999
0200994060999992012011018004+43967-068117FM-12+0016MDRM1V0202601N011819999999N9999999N1+00491+00321100471ADDMA1999999100271MD1610321+9999OA139901291REMSYN148CMAN  10184 MDRM1 46/// /2623 10049 20032 30027 40047 56032 91800 333 91225 555 11021 22022 31712 423032 61759 257022 257025 247025 242020 23 96445;
0032994060999992012011019004+43967-068117FM-12+0016MDRM1V0202801N010319999999N9999999N1+00451+00211100461ADDMA1999999100261MD1610201+9999
0032994060999992012011020004+43967-068117FM-12+0016MDRM1V0202601N010319999999N9999999N1+00461+00121100461ADDMA1999999100261MD1610071+9999
0032994060999992012011021004+43967-068117FM-12+0016MDRM1V0202801N008719999999N9999999N1+00471+00121100471ADDMA1999999100261MD1410001+9999
0204994060999992012011022004+43967-068117FM-12+0016MDRM1V0203001N010819999999N9999999N1+00451-00041100541ADDMA1999999100341MD1310081+9999OA139901291REMSYN152CMAN 10224 MDRM1 46/// /3021 10045 21004 30034 40054 53008 92200 333 91225 555 11020 22021 32146 430026 62159 300021 302022 296020 294019 286019 286018;
0032994060999992012011023004+43967-068117FM-12+0016MDRM1V0203101N011319999999N9999999N1+00441-00101100651ADDMA1999999100451MD1310191+9999
0032994060999992012011100004+43967-068117FM-12+0016MDRM1V0203001N009319999999N9999999N1+00431-00081100751ADDMA1999999100541MD1310281+9999
0032994060999992012011101004+43967-068117FM-12+0016MDRM1V0203001N011319999999N9999999N1+00451-00071100751ADDMA1999999100551MD1110211+9999
0032994060999992012011102004+43967-068117FM-12+0016MDRM1V0203001N013419999999N9999999N1+00451-00191100811ADDMA1999999100611MD1110161+9999
0032994060999992012011103004+43967-068117FM-12+0016MDRM1V0203201N012919999999N9999999N1+00371-00211100821ADDMA1999999100621MD1210071+9999
0032994060999992012011104004+43967-068117FM-12+0016MDRM1V0203301N015919999999N9999999N1+00201-00391100891ADDMA1999999100691MD1310141+9999
0032994060999992012011105004+43967-068117FM-12+0016MDRM1V0203201N012919999999N9999999N1+00071-00611101041ADDMA1999999100831MD1310231+9999
0198994060999992012011106004+43967-068117FM-12+0016MDRM1V0203401N012319999999N9999999N1-00071-00721101131ADDMA1999999100931MD1310311+9999OA139901391REMSYN146CMAN  11064 MDRM1 46/// /3424 11007 21072 30093 40113 53031 90600 333 91227 555 11022 22024 30552 433032 60559 331026 327027 330027 337026 336104;
0245994060999992012011107004+43967-068117FM-12+0016MDRM1V0203501N010819999999N9999999N1-00271-00871101321ADDMA1999999101121MD1310431+9999OA139901241REMSYN193CMAN  11074 MDRM1 46/// /3521 11027 21087 30112 40132 53043 90700 333 91224 555 11019 22020 30648 434034 60659 340023 336028 341028 343025 34511 60649 347078 346083 342089 343087 346078 346072;
0032994060999992012011108004+43967-068117FM-12+0016MDRM1V0203401N011819999999N9999999N1-00421-00971101381ADDMA1999999101181MD1110341+9999
0215994060999992012011109004+43967-068117FM-12+0016MDRM1V0203401N011319999999N9999999N1-00521-01001101481ADDMA1999999101281MD1110351+9999OA139901291REMSYN163CMAN  11094 MDRM1 46/// /3422 11052 21100 30128 40148 51035 90900 333 91225 555 11020 22022 30803 435030 60859 347022 342022 347023 349023 35603 ///// 48800 51220;
0032994060999992012011110004+43967-068117FM-12+0016MDRM1V0203501N011819999999N9999999N1-00561-00951101571ADDMA1999999101371MD1310251+9999
0032994060999992012011111004+43967-068117FM-12+0016MDRM1V0203501N010319999999N9999999N1-00591-00961101701ADDMA1999999101501MD1310321+9999
0032994060999992012011112004+43967-068117FM-12+0016MDRM1V0203601N010819999999N9999999N1-00681-01051101771ADDMA1999999101571MD1110291+9999
0032994060999992012011113004+43967-068117FM-12+0016MDRM1V0203601N010319999999N9999999N1-00721-00961101901ADDMA1999999101701MD1210331+9999
0246994060999992012011114004+43967-068117FM-12+0016MDRM1V0200201N013419999999N9999999N1-00691-01121101911ADDMA1999999101701MD1110211+9999OA139901441REMSYN194CMAN  11144 MDRM1 46/// /0226 11069 21112 30170 40191 51021 91400 333 91228 555 11024 22026 31347 401030 61359 009025 008023 002021 000021 001804 61349 212022 209018 209019 206023 208023 197023;
0032994060999992012011115004+43967-068117FM-12+0016MDRM1V0200101N010319999999N9999999N1-00721-01141102011ADDMA1999999101811MD1110241+9999
0032994060999992012011116004+43967-068117FM-12+0016MDRM1V0203501N008719999999N9999999N1-00711-01161101991ADDMA1999999101791MD1210091+9999
0032994060999992012011117004+43967-068117FM-12+0016MDRM1V0203601N007219999999N9999999N1-00671-01221101991ADDMA1999999101791MD1110081+9999
0032994060999992012011118004+43967-068117FM-12+0016MDRM1V0203601N006719999999N9999999N1-00611-01511102051ADDMA1999999101851MD1310041+9999
0032994060999992012011119004+43967-068117FM-12+0016MDRM1V0200201N004619999999N9999999N1-00541-01471102051ADDMA1999999101851MD1210061+9999
0257994060999992012011120004+43967-068117FM-12+0016MDRM1V0200401N006219999999N9999999N1-00461-01501102051ADDMA1999999101851MD1110061+9999OA139900771REMSYN205CMAN  11204 MDRM1 46/// /0412 11046 21150 30185 40205 51006 92000 333 91215 555 11011 22012 31941 402017 61959 029010 012011 017012 005010 00025 31919 41204 61949 117025 134025 108021 122020 119024 109025;
0032994060999992012011121004+43967-068117FM-12+0016MDRM1V0200101N004619999999N9999999N1-00441-01401102191ADDMA1999999101981MD1310141+9999
0032994060999992012011122004+43967-068117FM-12+0016MDRM1V0200201N003119999999N9999999N1-00401-01401102271ADDMA1999999102071MD1310221+9999
0032994060999992012011123004+43967-068117FM-12+0016MDRM1V0200201N004119999999N9999999N1-00371-01451102251ADDMA1999999102051MD1110201+9999
0032994060999992012011200004+43967-068117FM-12+0016MDRM1V0200501N005719999999N9999999N1-00351-01441102211ADDMA1999999102011MD1010001+9999
0240994060999992012011201004+43967-068117FM-12+0016MDRM1V0200701N005119999999N9999999N1-00351-01181102231ADDMA1999999102031MD1710041+9999OA139900671REMSYN188CMAN  12014 MDRM1 46/// /0710 11035 21118 30203 40223 57004 90100 333 91213 555 11010 22010 30010 407015 60059 073010 063008 065010 052010 050049 193040 191042 190041 194040 195037 203035;
0032994060999992012011202004+43967-068117FM-12+0016MDRM1V0200801N005119999999N9999999N1-00311-01091102231ADDMA1999999102021MD1510001+9999
0032994060999992012011203004+43967-068117FM-12+0016MDRM1V0200901N005719999999N9999999N1-00271-00961102221ADDMA1999999102021MD1410001+9999
0032994060999992012011204004+43967-068117FM-12+0016MDRM1V0201001N003619999999N9999999N1-00231-00841102241ADDMA1999999102031MD1410001+9999
0032994060999992012011205004+43967-068117FM-12+0016MDRM1V0201001N005119999999N9999999N1-00191-00791102191ADDMA1999999101991MD1810041+9999
0194994060999992012011206004+43967-068117FM-12+0016MDRM1V0201001N003619999999N9999999N1-00141-00711102221ADDMA1999999102021MD1510001+9999OA139900461REMSYN142CMAN  12064 MDRM1 46/// /1007 11014 21071 30202 40222 55000 90600 333 91209 555 11006 22007 30542 410013 60559 109008 104009 097009 108008 11;
0032994060999992012011207004+43967-068117FM-12+0016MDRM1V0201101N006219999999N9999999N1-00081-00661102201ADDMA1999999102001MD1610041+9999
0032994060999992012011208004+43967-068117FM-12+0016MDRM1V0201101N006219999999N9999999N1-00051-00561102151ADDMA1999999101941MD1810041+9999
0032994060999992012011209004+43967-068117FM-12+0016MDRM1V0201101N008219999999N9999999N1-00011-00451102081ADDMA1999999101881MD1810141+9999
0245994060999992012011210004+43967-068117FM-12+0016MDRM1V0201001N008719999999N9999999N1+00041-00301102021ADDMA1999999101811MD1810181+9999OA139901081REMSYN193CMAN  12104 MDRM1 46/// /1017 10004 21030 30181 40202 58018 91000 333 91221 555 11016 22017 30951 411024 60959 105018 102017 104017 105017 11911 60949 092089 088085 094087 091085 087081 093080;
0245994060999992012011211004+43967-068117FM-12+0016MDRM1V0201101N011319999999N9999999N1+00021-00261102011ADDMA1999999101811MD1610141+9999OA139901291REMSYN193CMAN  12114 MDRM1 46/// /1122 10002 21026 30181 40201 56014 91100 333 91225 555 11020 22021 31036 411025 61059 108022 108022 109022 112021 11912 61049 089096 088096 094094 097094 092095 092092;
0032994060999992012011212004+43967-068117FM-12+0016MDRM1V0201001N013419999999N9999999N1+00021-00241101881ADDMA1999999101681MD1810201+9999
0032994060999992012011213004+43967-068117FM-12+0016MDRM1V0201101N013919999999N9999999N1+00131+00011101811ADDMA1999999101611MD1810211+9999
0032994060999992012011214004+43967-068117FM-12+0016MDRM1V0201001N014419999999N9999999N1+00281+00101101691ADDMA1999999101491MD1610321+9999
0032994060999992012011215004+43967-068117FM-12+0016MDRM1V0201101N017019999999N9999999N1+00291+00071101591ADDMA1999999101391MD1810291+9999
0245994060999992012011216004+43967-068117FM-12+0016MDRM1V0201101N017519999999N9999999N1+00181+00181101371ADDMA1999999101171MD1810441+9999OA139901961REMSYN193CMAN  12164 MDRM1 46/// /1134 10018 20018 30117 40137 58044 91600 333 91238 555 11031 22033 31503 411042 61559 105035 103034 108033 107034 11715 61549 070128 070123 073118 076122 078121 083122;
0032994060999992012011217004+43967-068117FM-12+0016MDRM1V0201001N018519999999N9999999N1+00201+00201101121ADDMA1999999100921MD1810571+9999
0032994060999992012011218004+43967-068117FM-12+0016MDRM1V0201001N019519999999N9999999N1+00181+00181100891ADDMA1999999100691MD1810701+9999
0032994060999992012011219004+43967-068117FM-12+0016MDRM1V0200901N022619999999N9999999N1+00151+00151100621ADDMA1999999100411MD1810751+9999
0032994060999992012011220004+43967-068117FM-12+0016MDRM1V0200901N022619999999N9999999N1+00201+00201100511ADDMA1999999100311MD1610611+9999
0032994060999992012011221004+43967-068117FM-12+0016MDRM1V0200901N024219999999N9999999N1+00181+00181100281ADDMA1999999100081MD1610611+9999
0032994060999992012011222004+43967-068117FM-12+0016MDRM1V0200801N020019999999N9999999N1+00271+00271100221ADDMA1999999100021MD1610401+9999
0032994060999992012011223004+43967-068117FM-12+0016MDRM1V0200901N019519999999N9999999N1+00351+00351100181ADDMA1999999099971MD1610331+9999
0032994060999992012011300004+43967-068117FM-12+0016MDRM1V0200901N022119999999N9999999N1+00381+00381100001ADDMA1999999099791MD1810281+9999
0257994060999992012011301004+43967-068117FM-12+0016MDRM1V0200901N020619999999N9999999N1+00441+00441099811ADDMA1999999099611MD1810411+9999OA139902371REMSYN205CMAN  13014 MDRM1 46/// /0940 10044 20044 39961 49981 58041 90100 333 91246 555 11037 22039 30011 409054 60059 090039 090041 089041 089042 09145 30040 43517 60049 002131 003128 003127 002127 005127 005125;
0032994060999992012011302004+43967-068117FM-12+0016MDRM1V0201001N017519999999N9999999N1+00571+00571099681ADDMA1999999099481MD1610501+9999
0032994060999992012011303004+43967-068117FM-12+0016MDRM1V0201101N011819999999N9999999N1+00701+00701099651ADDMA1999999099441MD1610351+9999
0032994060999992012011304004+43967-068117FM-12+0016MDRM1V0201601N006719999999N9999999N1+00771+00771099621ADDMA1999999099411MD1610191+9999
0032994060999992012011305004+43967-068117FM-12+0016MDRM1V0201801N005719999999N9999999N1+00701+00701099611ADDMA1999999099411MD1610071+9999
0248994060999992012011306004+43967-068117FM-12+0016MDRM1V0202201N003619999999N9999999N1+00701+00701099651ADDMA1999999099451MD1510001+9999OA139900411REMSYN196CMAN  13064 MDRM1 46/// /2207 10070 20070 39945 49965 55000 90600 333 91208 555 11007 22007 30505 419012 60559 217007 214008 213007 198007 180051 70282 82206 333 562/9 70071 82818 84080 555 91306;
0032994060999992012011307004+43967-068117FM-12+0016MDRM1V0203201N011319999999N9999999N1+00451+00451099741ADDMA1999999099541MD1310121+9999
0032994060999992012011308004+43967-068117FM-12+0016MDRM1V0203201N008719999999N9999999N1+00211+00211099891ADDMA1999999099681MD1310281+9999
0257994060999992012011309004+43967-068117FM-12+0016MDRM1V0203401N005119999999N9999999N1+00181+00181099891ADDMA1999999099691MD1110241+9999OA139900571REMSYN205CMAN  13094 MDRM1 46/// /3410 10018 20018 39969 49989 51024 90900 333 91211 555 11009 22010 30800 432018 60859 337010 336011 331012 329014 32110 30757 42213 60849 193093 198099 202103 206105 212101 215110;
0032994060999992012011310004+43967-068117FM-12+0016MDRM1V0202301N002619999999N9999999N1+00201+00201099991ADDMA1999999099781MD1110251+9999
0032994060999992012011311004+43967-068117FM-12+0016MDRM1V0202401N005719999999N9999999N1+00251+00251100041ADDMA1999999099831MD1310151+9999
0032994060999992012011312004+43967-068117FM-12+0016MDRM1V0202401N004619999999N9999999N1+00301+00301100001ADDMA1999999099791MD1010111+9999
0032994060999992012011313004+43967-068117FM-12+0016MDRM1V0202001N004619999999N9999999N1+00341+00341100021ADDMA1999999099821MD1110031+9999
0032994060999992012011314004+43967-068117FM-12+0016MDRM1V0201701N006219999999N9999999N1+00461+00461099891ADDMA1999999099691MD1810151+9999
0032994060999992012011315004+43967-068117FM-12+0016MDRM1V0201401N008219999999N9999999N1+00561+00561099701ADDMA1999999099501MD1810301+9999
0032994060999992012011316004+43967-068117FM-12+0016MDRM1V0201401N011319999999N9999999N1+00631+00631099461ADDMA1999999099261MD1810561+9999
0246994060999992012011317004+43967-068117FM-12+0016MDRM1V0201301N011319999999N9999999N1+00711+00711099161ADDMA1999999098961MD1810731+9999OA139901241REMSYN194CMAN  13174 MDRM1 46/// /1322 10071 20071 39896 49916 58073 91700 333 91224 555 11020 22022 31650 414028 61659 130023 132022 128020 129020 130621 61649 090020 358062 349062 049043 085056 085070;
0200994060999992012011318004+43967-068117FM-12+0016MDRM1V0201401N012319999999N9999999N1+00791+00791098791ADDMA1999999098591MD1810911+9999OA139901341REMSYN148CMAN  13184 MDRM1 46/// /1424 10079 20079 39859 49879 58091 91800 333 91226 555 11022 22023 31742 414027 61759 132024 133024 138022 131022 12 96470;
0032994060999992012011319004+43967-068117FM-12+0016MDRM1V0201801N012919999999N9999999N1+00881+00881098651ADDMA1999999098441MD1610811+9999
0032994060999992012011320004+43967-068117FM-12+0016MDRM1V0202101N017519999999N9999999N1+00941+00931098541ADDMA1999999098331MD1610621+9999
0246994060999992012011321004+43967-068117FM-12+0016MDRM1V0202201N019519999999N9999999N1+00761+00461098571ADDMA1999999098361MD1510221+9999OA139902161REMSYN194CMAN  13214 MDRM1 46/// /2238 10076 20046 39836 49857 55022 92100 333 91242 555 11035 22038 32016 421057 62059 219038 218041 217042 218042 212910 62049 301077 299072 311062 308065 297063 302058;
0032994060999992012011322004+43967-068117FM-12+0016MDRM1V0202201N022119999999N9999999N1+00701+00441098611ADDMA1999999098411MD1510041+9999
0032994060999992012011323004+43967-068117FM-12+0016MDRM1V0202401N017519999999N9999999N1+00301+00301098761ADDMA1999999098551MD1310221+9999
0032994060999992012011400004+43967-068117FM-12+0016MDRM1V0202301N019019999999N9999999N1+00321+00321098791ADDMA1999999098591MD1110221+9999
0032994060999992012011401004+43967-068117FM-12+0016MDRM1V0202501N023119999999N9999999N1+00381-00161098821ADDMA1999999098621MD1110211+9999
0032994060999992012011402004+43967-068117FM-12+0016MDRM1V0202401N020019999999N9999999N1+00321-00051098891ADDMA1999999098691MD1310131+9999
0203994060999992012011403004+43967-068117FM-12+0016MDRM1V0202601N024219999999N9999999N1+00151-00331098971ADDMA1999999098771MD1310181+9999OA139902681REMSYN151CMAN  14034 MDRM1 46/// /2647 10015 21033 39877 49897 53018 90300 333 91252 555 11043 22046 30210 424056 60259 256045 257044 254045 257044 25040 90051;
0204994060999992012011404004+43967-068117FM-12+0016MDRM1V0202601N020019999999N9999999N1+00111+00021099111ADDMA1999999098911MD1310291+9999OA139902321REMSYN152CMAN 14044 MDRM1 46/// /2639 10011 20002 39891 49911 53029 90400 333 91245 555 11036 22038 30311 426052 60359 260042 259042 259041 262043 258044 262042;
0032994060999992012011405004+43967-068117FM-12+0016MDRM1V0202601N020619999999N9999999N1+00221+00011099221ADDMA1999999099011MD1310331+9999
0032994060999992012011406004+43967-068117FM-12+0016MDRM1V0202601N019519999999N9999999N1+00261-00021099401ADDMA1999999099201MD1310431+9999
0258994060999992012011407004+43967-068117FM-12+0016MDRM1V0202501N018519999999N9999999N1+00291+00001099581ADDMA1999999099381MD1310471+9999OA139902061REMSYN206CMAN  14074 MDRM1 46/// /2536 10029 20000 39938 49958 53047 90700 333 91240 555 11034 22036 30645 425045 60659 261036 256039 259036 261037 252015 60649 181089 182072 189071 190076 199069 193113 81912 90555;
0032994060999992012011408004+43967-068117FM-12+0016MDRM1V0202601N017519999999N9999999N1+00301-00031099711ADDMA1999999099511MD1110491+9999
0032994060999992012011409004+43967-068117FM-12+0016MDRM1V0202601N016419999999N9999999N1+00311+00001099821ADDMA1999999099611MD1110421+9999
0257994060999992012011410004+43967-068117FM-12+0016MDRM1V0202701N014419999999N9999999N1+00311-00021099941ADDMA1999999099731MD1110361+9999OA139901651REMSYN205CMAN  14104 MDRM1 46/// /2728 10031 21002 39973 49994 51036 91000 333 91232 555 11026 22028 30901 426037 60959 262028 260030 262030 261032 25132 30912 42416 60949 245120 246122 245122 238123 241132 243127;
0032994060999992012011411004+43967-068117FM-12+0016MDRM1V0202801N013919999999N9999999N1+00291-00041100031ADDMA1999999099831MD1110321+9999
0272994060999992012011412004+43967-068117FM-12+0016MDRM1V0203101N011319999999N9999999N1+00151-00241100131ADDMA1999999099931MD1110311+9999OA139901291REMSYN220CMAN  14124 MDRM1 46/// /3122 10015 21024 39993 40013 51031 91200 333 91225 555 11020 22022 31101 427030 61159 304021 297021 300022 292023 282474 80508 10278 20261 30102 40107 83209 333 561/9 59010 83816 85274 555 91412;
0032994060999992012011413004+43967-068117FM-12+0016MDRM1V0203201N010819999999N9999999N1+00021-00361100261ADDMA1999999100051MD1310321+9999
0032994060999992012011414004+43967-068117FM-12+0016MDRM1V0203101N010319999999N9999999N1-00031-00521100351ADDMA1999999100151MD1110321+9999
0257994060999992012011415004+43967-068117FM-12+0016MDRM1V0203001N010319999999N9999999N1-00111-00511100421ADDMA1999999100211MD1110291+9999OA139901131REMSYN205CMAN  14154 MDRM1 46/// /3020 11011 21051 30021 40042 51029 91500 333 91222 555 11018 22020 31440 430025 61459 312020 309020 305020 309019 31117 31429 42813 61449 274106 274104 275100 272100 281105 284111;
0032994060999992012011416004+43967-068117FM-12+0016MDRM1V0203101N011819999999N9999999N1-00291-00791100391ADDMA1999999100191MD1010131+9999
0198994060999992012011417004+43967-068117FM-12+0016MDRM1V0203201N010319999999N9999999N1-00321-00721100381ADDMA1999999100171MD1110031+9999OA139901241REMSYN146CMAN  14174 MDRM1 46/// /3220 11032 21072 30017 40038 51003 91700 333 91224 555 11019 22020 31619 432026 61659 316020 311021 314021 319020 319019;
0032994060999992012011418004+43967-068117FM-12+0016MDRM1V0203201N010819999999N9999999N1-00341-00711100381ADDMA1999999100181MD1610041+9999
0032994060999992012011419004+43967-068117FM-12+0016MDRM1V0203201N010319999999N9999999N1-00301-00691100401ADDMA1999999100201MD1410001+9999
0032994060999992012011420004+43967-068117FM-12+0016MDRM1V0203101N009819999999N9999999N1-00391-00911100521ADDMA1999999100321MD1310141+9999
0032994060999992012011421004+43967-068117FM-12+0016MDRM1V0203301N010319999999N9999999N1-00371-00811100571ADDMA1999999100361MD1310191+9999
0032994060999992012011422004+43967-068117FM-12+0016MDRM1V0203201N010319999999N9999999N1-00431-00931100691ADDMA1999999100491MD1210291+9999
0032994060999992012011423004+43967-068117FM-12+0016MDRM1V0203201N010819999999N9999999N1-00451-00911100771ADDMA1999999100571MD1310251+9999
0032994060999992012011500004+43967-068117FM-12+0016MDRM1V0203301N011819999999N9999999N1-00591-01191100871ADDMA1999999100671MD1110301+9999
0032994060999992012011501004+43967-068117FM-12+0016MDRM1V0203301N011819999999N9999999N1-00731-01221100961ADDMA1999999100761MD1310271+9999
0032994060999992012011502004+43967-068117FM-12+0016MDRM1V0203401N010819999999N9999999N1-00851-01181101071ADDMA1999999100871MD1310301+9999
0032994060999992012011503004+43967-068117FM-12+0016MDRM1V0203501N010319999999N9999999N1-00991-01341101161ADDMA1999999100961MD1210291+9999
0234994060999992012011504004+43967-068117FM-12+0016MDRM1V0203501N010319999999N9999999N1-01071-01331101261ADDMA1999999101061MD1110301+9999OA139901181REMSYN182CMAN  15044 MDRM1 46/// /3520 11107 21133 30106 40126 51030 90400 333 91223 555 11019 22020 30326 434029 60359 349021 349020 344019 344021 3487112 285097 290101 293102 289101 289107;
0032994060999992012011505004+43967-068117FM-12+0016MDRM1V0203501N011319999999N9999999N1-01171-01421101301ADDMA1999999101091MD1110231+9999
0203994060999992012011506004+43967-068117FM-12+0016MDRM1V0203501N010819999999N9999999N1-01171-01331101351ADDMA1999999101141MD1110191+9999OA139901181REMSYN151CMAN  15064 MDRM1 46/// /3521 11117 21133 30114 40135 51019 90600 333 91223 555 11019 22020 30536 436027 60559 353021 355021 356021 356021 35555 60005;
0032994060999992012011507004+43967-068117FM-12+0016MDRM1V0203601N010819999999N9999999N1-01291-01491101471ADDMA1999999101271MD1310211+9999
0257994060999992012011508004+43967-068117FM-12+0016MDRM1V0203501N010319999999N9999999N1-01321-01441101561ADDMA1999999101361MD1310261+9999OA139901291REMSYN205CMAN  15084 MDRM1 46/// /3520 11132 21144 30136 40156 53026 90800 333 91225 555 11019 22020 30721 436026 60759 352020 353020 352020 353020 35100 30747 43412 60749 348092 349086 342089 346083 352084 359083;
0032994060999992012011509004+43967-068117FM-12+0016MDRM1V0203501N011319999999N9999999N1-01371-01491101661ADDMA1999999101451MD1110311+9999
0032994060999992012011510004+43967-068117FM-12+0016MDRM1V0203601N010819999999N9999999N1-01421-01561101721ADDMA1999999101521MD1110251+9999
0032994060999992012011511004+43967-068117FM-12+0016MDRM1V0203601N011319999999N9999999N1-01421-01591101811ADDMA1999999101611MD1110251+9999
0032994060999992012011512004+43967-068117FM-12+0016MDRM1V0203501N012319999999N9999999N1-01401-01531101871ADDMA1999999101671MD1210211+9999
0032994060999992012011513004+43967-068117FM-12+0016MDRM1V0203601N012319999999N9999999N1-01411-01461101951ADDMA1999999101751MD1110231+9999
0032994060999992012011514004+43967-068117FM-12+0016MDRM1V0203601N010819999999N9999999N1-01381-01431102051ADDMA1999999101841MD1310241+9999
0240994060999992012011515004+43967-068117FM-12+0016MDRM1V0203401N010319999999N9999999N1-01391-01471102111ADDMA1999999101911MD1110241+9999OA139901131REMSYN188CMAN  15154 MDRM1 46/// /3420 11139 21147 30191 40211 51024 91500 333 91222 555 11018 22019 31424 435027 61459 346020 349019 350020 350021 341449 298046 300047 304047 299054 299056 297060;
0032994060999992012011516004+43967-068117FM-12+0016MDRM1V0203601N007219999999N9999999N1-01301-01491102131ADDMA1999999101931MD1110181+9999
0032994060999992012011517004+43967-068117FM-12+0016MDRM1V0203501N008719999999N9999999N1-01231-01461102111ADDMA1999999101911MD1110061+9999
0032994060999992012011518004+43967-068117FM-12+0016MDRM1V0203301N007219999999N9999999N1-01201-01571102111ADDMA1999999101911MD1410001+9999
0032994060999992012011519004+43967-068117FM-12+0016MDRM1V0203401N009819999999N9999999N1-01091-01481102141ADDMA1999999101931MD1510001+9999
0032994060999992012011520004+43967-068117FM-12+0016MDRM1V0203301N009819999999N9999999N1-01081-01651102211ADDMA1999999102011MD1310101+9999
0032994060999992012011521004+43967-068117FM-12+0016MDRM1V0203501N011819999999N9999999N1-01021-01591102271ADDMA1999999102071MD1310161+9999
0245994060999992012011522004+43967-068117FM-12+0016MDRM1V0203301N012919999999N9999999N1-01071-01641102351ADDMA1999999102151MD1310211+9999OA139901441REMSYN193CMAN  15224 MDRM1 46/// /3325 11107 21164 30215 40235 53021 92200 333 91228 555 11023 22025 32147 434031 62159 339025 338025 340023 345023 34314 62149 332110 336103 331100 327100 335095 331097;
0032994060999992012011523004+43967-068117FM-12+0016MDRM1V0203401N013419999999N9999999N1-01041-01411102401ADDMA1999999102201MD1110191+9999
0032994060999992012011600004+43967-068117FM-12+0016MDRM1V0203301N013419999999N9999999N1-01041-01331102481ADDMA1999999102281MD1210211+9999
0032994060999992012011601004+43967-068117FM-12+0016MDRM1V0203401N012319999999N9999999N1-01081-01391102581ADDMA1999999102371MD1310231+9999
0032994060999992012011602004+43967-068117FM-12+0016MDRM1V0203501N011819999999N9999999N1-01111-01561102641ADDMA1999999102431MD1110241+9999
0204994060999992012011603004+43967-068117FM-12+0016MDRM1V0203401N010819999999N9999999N1-01091-01321102711ADDMA1999999102501MD1110231+9999OA139901291REMSYN152CMAN 16034 MDRM1 46/// /3421 11109 21132 30250 40271 51023 90300 333 91225 555 11020 22021 30201 434026 60259 340021 339020 340020 337019 339020 337022;
0032994060999992012011604004+43967-068117FM-12+0016MDRM1V0203401N013919999999N9999999N1-01141-01251102731ADDMA1999999102531MD1110151+9999
0032994060999992012011605004+43967-068117FM-12+0016MDRM1V0203501N011819999999N9999999N1-01171-01391102771ADDMA1999999102571MD1110131+9999
0198994060999992012011606004+43967-068117FM-12+0016MDRM1V0203401N013419999999N9999999N1-01111-01231102801ADDMA1999999102601MD1310091+9999OA139901441REMSYN146CMAN  16064 MDRM1 46/// /3426 11111 21123 30260 40280 53009 90600 333 91228 555 11024 22026 30542 434030 60559 340025 342026 336026 335023 333005;
0032994060999992012011607004+43967-068117FM-12+0016MDRM1V0203501N011819999999N9999999N1-01061-01161102921ADDMA1999999102721MD1310191+9999
0234994060999992012011608004+43967-068117FM-12+0016MDRM1V0203401N011819999999N9999999N1-01011-01081102971ADDMA1999999102771MD1310201+9999OA139901391REMSYN182CMAN  16084 MDRM1 46/// /3423 11101 21108 30277 40297 53020 90800 333 91227 555 11022 22023 30708 434029 60759 340023 344023 342022 341022 3449085 342085 357088 350087 348089 342092;
0203994060999992012011609004+43967-068117FM-12+0016MDRM1V0203501N011819999999N9999999N1-01021-01141102981ADDMA1999999102771MD1110181+9999OA139901441REMSYN151CMAN  16094 MDRM1 46/// /3523 11102 21114 30277 40298 51018 90900 333 91228 555 11022 22023 30847 434030 60859 342024 341024 344023 349022 34801 51180;
0032994060999992012011610004+43967-068117FM-12+0016MDRM1V0203401N011319999999N9999999N1-01001-01171103001ADDMA1999999102801MD1110081+9999
0032994060999992012011611004+43967-068117FM-12+0016MDRM1V0203301N009819999999N9999999N1-00991-01221103101ADDMA1999999102901MD1310131+9999
0032994060999992012011612004+43967-068117FM-12+0016MDRM1V0203401N008719999999N9999999N1-00961-01201103131ADDMA1999999102921MD1310151+9999
0032994060999992012011613004+43967-068117FM-12+0016MDRM1V0203401N007719999999N9999999N1-00931-01161103201ADDMA1999999103001MD1110201+9999
0032994060999992012011614004+43967-068117FM-12+0016MDRM1V0203401N007719999999N9999999N1-00871-01151103241ADDMA1999999103041MD1310141+9999
0032994060999992012011615004+43967-068117FM-12+0016MDRM1V0203301N004119999999N9999999N1-00811-01231103241ADDMA1999999103041MD1110111+9999
0032994060999992012011616004+43967-068117FM-12+0016MDRM1V0203101N002119999999N9999999N1-00761-01251103221ADDMA1999999103021MD1010001+9999
0032994060999992012011617004+43967-068117FM-12+0016MDRM1V0203301N001019999999N9999999N1-00701-01101103061ADDMA1999999102861MD1810181+9999
0194994060999992012011618004+43967-068117FM-12+0016MDRM1V0202301N004119999999N9999999N1-00641-01071102951ADDMA1999999102751MD1810291+9999OA139900571REMSYN142CMAN  16184 MDRM1 46/// /2308 11064 21107 30275 40295 58029 91800 333 91211 555 11008 22008 31758 424011 61759 239007 243006 247005 226003 24;
0032994060999992012011619004+43967-068117FM-12+0016MDRM1V0202601N007219999999N9999999N1-00571-00841102911ADDMA1999999102701MD1610311+9999
0032994060999992012011620004+43967-068117FM-12+0016MDRM1V0202401N006719999999N9999999N1-00471-00821102841ADDMA1999999102641MD1610221+9999
0032994060999992012011621004+43967-068117FM-12+0016MDRM1V0202401N006719999999N9999999N1-00391-00881102771ADDMA1999999102571MD1810181+9999
0032994060999992012011622004+43967-068117FM-12+0016MDRM1V0202301N008719999999N9999999N1-00291-00691102711ADDMA1999999102511MD1610201+9999
0032994060999992012011623004+43967-068117FM-12+0016MDRM1V0202101N010319999999N9999999N1-00151-00501102581ADDMA1999999102381MD1810261+9999
0032994060999992012011700004+43967-068117FM-12+0016MDRM1V0202101N013419999999N9999999N1-00021-00341102441ADDMA1999999102241MD1810331+9999
0245994060999992012011701004+43967-068117FM-12+0016MDRM1V0202101N014419999999N9999999N1+00061-00311102291ADDMA1999999102091MD1810421+9999OA139901651REMSYN193CMAN  17014 MDRM1 46/// /2128 10006 21031 30209 40229 58042 90100 333 91232 555 11026 22028 30030 421035 60059 212028 218027 216028 216026 22117 60049 213138 207138 209132 204135 199125 202128;
0032994060999992012011702004+43967-068117FM-12+0016MDRM1V0202201N016419999999N9999999N1+00151-00351102171ADDMA1999999101961MD1610411+9999
0032994060999992012011703004+43967-068117FM-12+0016MDRM1V0202301N017019999999N9999999N1+00201-00391102071ADDMA1999999101861MD1610371+9999
0032994060999992012011704004+43967-068117FM-12+0016MDRM1V0202301N020019999999N9999999N1+00261-00071101891ADDMA1999999101691MD1810401+9999
0032994060999992012011705004+43967-068117FM-12+0016MDRM1V0202301N018019999999N9999999N1+00371+00161101751ADDMA1999999101551MD1810421+9999
0200994060999992012011706004+43967-068117FM-12+0016MDRM1V0202401N018519999999N9999999N1+00331+00331101621ADDMA1999999101421MD1610451+9999OA139902111REMSYN148CMAN  17064 MDRM1 46/// /2436 10033 20033 30142 40162 56045 90600 333 91241 555 11033 22036 30530 423045 60559 235036 234035 231037 230036 22 91103;
0258994060999992012011707004+43967-068117FM-12+0016MDRM1V0202501N019519999999N9999999N1+00301+00291101561ADDMA1999999101361MD1610331+9999OA139902111REMSYN206CMAN  17074 MDRM1 46/// /2538 10030 20029 30136 40156 56033 90700 333 91241 555 11035 22038 30616 424047 60659 247036 247035 245033 244039 241221 60649 115156 114158 114162 115160 114158 114160 81218 90604;
0032994060999992012011708004+43967-068117FM-12+0016MDRM1V0202601N016419999999N9999999N1+00251+00251101511ADDMA1999999101311MD1610241+9999
0032994060999992012011709004+43967-068117FM-12+0016MDRM1V0202601N013919999999N9999999N1+00301+00291101441ADDMA1999999101241MD1810181+9999
0032994060999992012011710004+43967-068117FM-12+0016MDRM1V0202701N012919999999N9999999N1+00321+00251101401ADDMA1999999101201MD1610161+9999
0257994060999992012011711004+43967-068117FM-12+0016MDRM1V0202801N012319999999N9999999N1+00261+00221101391ADDMA1999999101181MD1610121+9999OA139901291REMSYN205CMAN  17114 MDRM1 46/// /2824 10026 20022 30118 40139 56012 91100 333 91225 555 11022 22023 31022 427027 61059 277022 273022 274023 271023 26088 31011 42412 61049 239080 238087 239094 237095 235093 231089;
0032994060999992012011712004+43967-068117FM-12+0016MDRM1V0202801N008719999999N9999999N1+00251+00241101371ADDMA1999999101161MD1610071+9999
0032994060999992012011713004+43967-068117FM-12+0016MDRM1V0203001N006719999999N9999999N1+00181+00181101341ADDMA1999999101141MD1810061+9999
0032994060999992012011714004+43967-068117FM-12+0016MDRM1V0202801N005719999999N9999999N1+00151+00151101331ADDMA1999999101131MD1710061+9999
0032994060999992012011715004+43967-068117FM-12+0016MDRM1V0202901N005119999999N9999999N1+00161+00161101291ADDMA1999999101091MD1810081+9999
0032994060999992012011716004+43967-068117FM-12+0016MDRM1V0203101N004619999999N9999999N1+00151+00151101181ADDMA1999999100981MD1810161+9999
0032994060999992012011717004+43967-068117FM-12+0016MDRM1V0203101N002619999999N9999999N1+00141+00141101101ADDMA1999999100891MD1810231+9999
0032994060999992012011718004+43967-068117FM-12+0016MDRM1V0203001N001519999999N9999999N1+00161+00161101001ADDMA1999999100801MD1610291+9999
0032994060999992012011719004+43967-068117FM-12+0016MDRM1V0203201N001519999999N9999999N1+00201+00201100971ADDMA1999999100761MD1610211+9999
0192994060999992012011720004+43967-068117FM-12+0016MDRM1V0209999C000019999999N9999999N1+00201+00201100901ADDMA1999999100701MD1610201+9999OA139900051REMSYN140CMAN  17204 MDRM1 46/// /0000 10020 20020 30070 40090 56020 92000 333 91201 555 31918 429004 61959 045000 308001 316001 293002 28023 201016;
0032994060999992012011721004+43967-068117FM-12+0016MDRM1V0200801N002619999999N9999999N1+00251+00251100921ADDMA1999999100711MD1610081+9999
0032994060999992012011722004+43967-068117FM-12+0016MDRM1V0201101N004619999999N9999999N1+00311+00311100841ADDMA1999999100641MD1810131+9999
0032994060999992012011723004+43967-068117FM-12+0016MDRM1V0201201N007219999999N9999999N1+00401+00401100641ADDMA1999999100441MD1810261+9999
0032994060999992012011800004+43967-068117FM-12+0016MDRM1V0201601N009819999999N9999999N1+00451+00451100511ADDMA1999999100311MD1810411+9999
0032994060999992012011801004+43967-068117FM-12+0016MDRM1V0201701N013419999999N9999999N1+00501+00501100361ADDMA1999999100161MD1610481+9999
0032994060999992012011802004+43967-068117FM-12+0016MDRM1V0201701N012319999999N9999999N1+00571+00571100191ADDMA1999999099981MD1810451+9999
0051994060999992012011803004+43967-068117FM-12+0016MDRM1V0201801N012319999999N9999999N1+00651+00651100001ADDMA1999999099801MD1810512+9999EQDQ01+000512APC3  
0032994060999992012011804004+43967-068117FM-12+0016MDRM1V0201901N011319999999N9999999N1+00691+00691099851ADDMA1999999099651MD1610511+9999
0032994060999992012011805004+43967-068117FM-12+0016MDRM1V0202201N012919999999N9999999N1+00751+00751099661ADDMA1999999099461MD1710531+9999
0246994060999992012011806004+43967-068117FM-12+0016MDRM1V0202201N011319999999N9999999N1+00761+00761099551ADDMA1999999099341MD1610451+9999OA139901241REMSYN194CMAN  18064 MDRM1 46/// /2222 10076 20076 39934 49955 56045 90600 333 91224 555 11020 22021 30542 422028 60559 221022 218023 216021 219021 222109 60549 216067 215070 213075 209077 213075 214073;
0032994060999992012011807004+43967-068117FM-12+0016MDRM1V0202201N010819999999N9999999N1+00781+00781099461ADDMA1999999099251MD1610391+9999
0032994060999992012011808004+43967-068117FM-12+0016MDRM1V0202301N012319999999N9999999N1+00811+00811099381ADDMA1999999099181MD1610281+9999
0257994060999992012011809004+43967-068117FM-12+0016MDRM1V0202201N013419999999N9999999N1+00811+00811099341ADDMA1999999099141MD1610211+9999OA139901491REMSYN205CMAN  18094 MDRM1 46/// /2226 10081 20081 39914 49934 56021 90900 333 91229 555 11024 22026 30859 423029 60859 225025 226023 226023 226023 22117 30820 42213 60849 226100 221099 220108 217108 218107 216106;
0032994060999992012011810004+43967-068117FM-12+0016MDRM1V0202401N014919999999N9999999N1+00861+00861099351ADDMA1999999099151MD1610111+9999
0032994060999992012011811004+43967-068117FM-12+0016MDRM1V0202701N014919999999N9999999N1+00801+00641099451ADDMA1999999099241MD1310071+9999
0032994060999992012011812004+43967-068117FM-12+0016MDRM1V0202601N019019999999N9999999N1+00701+00131099451ADDMA1999999099251MD1210111+9999
0032994060999992012011813004+43967-068117FM-12+0016MDRM1V0202601N019519999999N9999999N1+00621+00021099611ADDMA1999999099401MD1310261+9999
0032994060999992012011814004+43967-068117FM-12+0016MDRM1V0202701N018519999999N9999999N1+00551-00031099731ADDMA1999999099521MD1310281+9999
0032994060999992012011815004+43967-068117FM-12+0016MDRM1V0202701N017019999999N9999999N1+00501-00101099851ADDMA1999999099641MD1110401+9999
0032994060999992012011816004+43967-068117FM-12+0016MDRM1V0202901N017019999999N9999999N1+00381-00231099941ADDMA1999999099741MD1110331+9999
0032994060999992012011817004+43967-068117FM-12+0016MDRM1V0202901N014419999999N9999999N1+00311-00441100031ADDMA1999999099831MD1110301+9999
0234994060999992012011818004+43967-068117FM-12+0016MDRM1V0203001N015419999999N9999999N1+00221-00371100141ADDMA1999999099941MD1310291+9999OA139901851REMSYN182CMAN  18184 MDRM1 46/// /3030 10022 21037 39994 40014 53029 91800 333 91236 555 11027 22029 31747 429036 61759 304028 290029 289028 296029 280052 60000 60009 60140 70000 77R// 7R///;
0246994060999992012011819004+43967-068117FM-12+0016MDRM1V0203001N016419999999N9999999N1+00041-00841100301ADDMA1999999100101MD1310361+9999OA139901851REMSYN194CMAN  18194 MDRM1 46/// /3032 10004 21084 30010 40030 53036 91900 333 91236 555 11030 22032 31815 430039 61859 299032 306033 305034 302032 301114 61849 298116 295110 293115 295118 295112 282099;
0032994060999992012011820004+43967-068117FM-12+0016MDRM1V0203101N015419999999N9999999N1+00011-00701100451ADDMA1999999100241MD1310421+9999
0032994060999992012011821004+43967-068117FM-12+0016MDRM1V0203001N014419999999N9999999N1-00151-00891100651ADDMA1999999100441MD1310511+9999
0032994060999992012011822004+43967-068117FM-12+0016MDRM1V0203001N015419999999N9999999N1-00281-00921100861ADDMA1999999100651MD1310561+9999
0032994060999992012011823004+43967-068117FM-12+0016MDRM1V0203201N015419999999N9999999N1-00411-01101101041ADDMA1999999100841MD1110591+9999
0194994060999992012011900004+43967-068117FM-12+0016MDRM1V0203101N016419999999N9999999N1-00521-01071101191ADDMA1999999100991MD1110541+9999OA139901851REMSYN142CMAN  19004 MDRM1 46/// /3132 11052 21107 30099 40119 51054 90000 333 91236 555 11030 22032 32340 431038 62359 309032 314032 307031 312031 30;
0032994060999992012011901004+43967-068117FM-12+0016MDRM1V0203201N015419999999N9999999N1-00571-01181101331ADDMA1999999101131MD1110471+9999
0032994060999992012011902004+43967-068117FM-12+0016MDRM1V0203201N017019999999N9999999N1-00601-01051101411ADDMA1999999101211MD1110371+9999
0032994060999992012011903004+43967-068117FM-12+0016MDRM1V0203301N014919999999N9999999N1-00651-01131101601ADDMA1999999101401MD1310411+9999
0246994060999992012011904004+43967-068117FM-12+0016MDRM1V0203301N015419999999N9999999N1-00661-01171101681ADDMA1999999101481MD1210351+9999OA139901751REMSYN194CMAN  19044 MDRM1 46/// /3330 11066 21117 30148 40168 52035 90400 333 91234 555 11028 22030 30305 433037 60359 337029 337028 332027 338030 333513 60349 351089 352089 002085 001090 354090 000096;
0032994060999992012011905004+43967-068117FM-12+0016MDRM1V0203301N012919999999N9999999N1-00721-01211101791ADDMA1999999101581MD1110381+9999
0032994060999992012011906004+43967-068117FM-12+0016MDRM1V0203401N013419999999N9999999N1-00731-01301101881ADDMA1999999101681MD1310281+9999
0210994060999992012011907004+43967-068117FM-12+0016MDRM1V0203401N012319999999N9999999N1-00761-01351102001ADDMA1999999101791MD1310321+9999OA139901441REMSYN158CMAN  19074 MDRM1 46/// /3424 11076 21135 30179 40200 53032 90700 333 91228 555 11022 22024 30622 434034 60659 336025 339027 341027 336028 3457 295057 294050;
0257994060999992012011908004+43967-068117FM-12+0016MDRM1V0203401N010819999999N9999999N1-00841-01481102021ADDMA1999999101821MD1110231+9999OA139901341REMSYN205CMAN  19084 MDRM1 46/// /3421 11084 21148 30182 40202 51023 90800 333 91226 555 11019 22020 30726 434031 60759 343020 344020 343022 339025 33063 30658 43510 60749 010058 356069 357069 353073 344077 349079;
0032994060999992012011909004+43967-068117FM-12+0016MDRM1V0203501N006719999999N9999999N1-00831-01401102061ADDMA1999999101851MD1110181+9999
0032994060999992012011910004+43967-068117FM-12+0016MDRM1V0203601N005719999999N9999999N1-00841-01331102191ADDMA1999999101991MD1310191+9999
0032994060999992012011911004+43967-068117FM-12+0016MDRM1V0203601N007219999999N9999999N1-00841-01281102301ADDMA1999999102101MD1310281+9999
0032994060999992012011912004+43967-068117FM-12+0016MDRM1V0200501N006219999999N9999999N1-00871-01351102461ADDMA1999999102261MD1310401+9999
0032994060999992012011913004+43967-068117FM-12+0016MDRM1V0200101N004619999999N9999999N1-00881-01321102591ADDMA1999999102391MD1310401+9999
0032994060999992012011914004+43967-068117FM-12+0016MDRM1V0200101N006219999999N9999999N1-00891-01371102661ADDMA1999999102451MD1110361+9999
0032994060999992012011915004+43967-068117FM-12+0016MDRM1V0200101N009319999999N9999999N1-00871-01221102641ADDMA1999999102431MD1110181+9999
0032994060999992012011916004+43967-068117FM-12+0016MDRM1V0200301N008719999999N9999999N1-00871-01391102581ADDMA1999999102381MD1010001+9999
0032994060999992012011917004+43967-068117FM-12+0016MDRM1V0200101N011319999999N9999999N1-00841-01361102321ADDMA1999999102121MD1810341+9999
0032994060999992012011918004+43967-068117FM-12+0016MDRM1V0200301N011319999999N9999999N1-00741-01271102141ADDMA1999999101931MD1810501+9999
0032994060999992012011919004+43967-068117FM-12+0016MDRM1V0200401N008719999999N9999999N1-00691-01161102071ADDMA1999999101871MD1610511+9999
0032994060999992012011920004+43967-068117FM-12+0016MDRM1V0200801N005119999999N9999999N1-00651-01211102241ADDMA1999999102041MD1510081+9999
0032994060999992012011921004+43967-068117FM-12+0016MDRM1V0200901N004119999999N9999999N1-00571-01011102281ADDMA1999999102081MD1310141+9999
0032994060999992012011922004+43967-068117FM-12+0016MDRM1V0200701N005119999999N9999999N1-00501-00901102271ADDMA1999999102061MD1110201+9999
0240994060999992012011923004+43967-068117FM-12+0016MDRM1V0201101N003619999999N9999999N1-00431-00771102181ADDMA1999999101971MD1810061+9999OA139900511REMSYN188CMAN  19234 MDRM1 46/// /1107 11043 21077 30197 40218 58006 92300 333 91210 555 11007 22007 32246 409020 62259 114010 097014 103012 108010 102249 308122 307121 312115 314110 311112 314112;
0032994060999992012012000004+43967-068117FM-12+0016MDRM1V0201201N006719999999N9999999N1-00361-00711102131ADDMA1999999101931MD1810151+9999
0032994060999992012012001004+43967-068117FM-12+0016MDRM1V0201101N003619999999N9999999N1-00311-00651102071ADDMA1999999101861MD1610201+9999
0245994060999992012012002004+43967-068117FM-12+0016MDRM1V0201401N008219999999N9999999N1-00231-00591101961ADDMA1999999101761MD1810221+9999OA139900931REMSYN193CMAN  20024 MDRM1 46/// /1416 11023 21059 30176 40196 58022 90200 333 91218 555 11014 22015 30152 415022 60159 137016 124012 127009 131012 15711 60149 152075 153078 152082 158083 165064 167066;
0032994060999992012012003004+43967-068117FM-12+0016MDRM1V0201601N007719999999N9999999N1-00191-00551101981ADDMA1999999101781MD1610151+9999
0032994060999992012012004004+43967-068117FM-12+0016MDRM1V0201801N005119999999N9999999N1-00181-00581101921ADDMA1999999101721MD1610151+9999
0246994060999992012012005004+43967-068117FM-12+0016MDRM1V0201701N006219999999N9999999N1-00141-00531101871ADDMA1999999101661MD1810091+9999OA139900821REMSYN194CMAN  20054 MDRM1 46/// /1712 11014 21053 30166 40187 58009 90500 333 91216 555 11012 22012 30456 417018 60459 170014 188011 178012 179012 182017 60449 206128 200127 194126 193123 193124 198116;
0032994060999992012012006004+43967-068117FM-12+0016MDRM1V0201401N007719999999N9999999N1-00041-00391101761ADDMA1999999101551MD1810221+9999
0032994060999992012012007004+43967-068117FM-12+0016MDRM1V0201301N011819999999N9999999N1+00011-00351101521ADDMA1999999101311MD1810401+9999
0032994060999992012012008004+43967-068117FM-12+0016MDRM1V0201401N013419999999N9999999N1+00091-00221101431ADDMA1999999101231MD1610441+9999
0032994060999992012012009004+43967-068117FM-12+0016MDRM1V0201501N012919999999N9999999N1-00061-00071101471ADDMA1999999101261MD1510291+9999
0032994060999992012012010004+43967-068117FM-12+0016MDRM1V0201501N014419999999N9999999N1-00031-00031101361ADDMA1999999101151MD1810161+9999
0032994060999992012012011004+43967-068117FM-12+0016MDRM1V0201401N014919999999N9999999N1+00111+00111101241ADDMA1999999101031MD1810191+9999
0032994060999992012012012004+43967-068117FM-12+0016MDRM1V0201501N018019999999N9999999N1+00161+00161101141ADDMA1999999100941MD1610331+9999
0032994060999992012012013004+43967-068117FM-12+0016MDRM1V0201801N013919999999N9999999N1+00171+00171101161ADDMA1999999100961MD1610201+9999
0032994060999992012012014004+43967-068117FM-12+0016MDRM1V0202801N010819999999N9999999N1+00131+00131101091ADDMA1999999100891MD1610151+9999
0246994060999992012012015004+43967-068117FM-12+0016MDRM1V0202801N012919999999N9999999N1+00041+00011101161ADDMA1999999100961MD1510001+9999OA139901391REMSYN194CMAN  20154 MDRM1 46/// /2825 10004 20001 30096 40116 55000 91500 333 91227 555 11023 22025 31443 428032 61459 274025 279026 280024 278025 271807 61449 191046 188051 190052 191054 189053 187053;
0032994060999992012012016004+43967-068117FM-12+0016MDRM1V0202901N012319999999N9999999N1-00071-00111101181ADDMA1999999100981MD1510001+9999
0032994060999992012012017004+43967-068117FM-12+0016MDRM1V0203001N012919999999N9999999N1-00121-00291101221ADDMA1999999101021MD1110131+9999
0032994060999992012012018004+43967-068117FM-12+0016MDRM1V0203201N012319999999N9999999N1-00211-00481101311ADDMA1999999101101MD1310151+9999
0032994060999992012012019004+43967-068117FM-12+0016MDRM1V0203101N011819999999N9999999N1-00181-00411101401ADDMA1999999101191MD1310221+9999
0198994060999992012012020004+43967-068117FM-12+0016MDRM1V0203101N011319999999N9999999N1-00121-00491101531ADDMA1999999101331MD1310311+9999OA139901291REMSYN146CMAN  20204 MDRM1 46/// /3122 11012 21049 30133 40153 53031 92000 333 91225 555 11020 22021 31923 432029 61959 316020 320020 321022 318023 305024;
0032994060999992012012021004+43967-068117FM-12+0016MDRM1V0203301N010819999999N9999999N1-00151-00631101631ADDMA1999999101431MD1310321+9999
0032994060999992012012022004+43967-068117FM-12+0016MDRM1V0203301N010819999999N9999999N1-00161-00651101761ADDMA1999999101561MD1210361+9999
0032994060999992012012023004+43967-068117FM-12+0016MDRM1V0203201N011319999999N9999999N1-00221-00691101911ADDMA1999999101701MD1310381+9999
0198994060999992012012100004+43967-068117FM-12+0016MDRM1V0203301N011319999999N9999999N1-00321-01021101991ADDMA1999999101791MD1110361+9999OA139901241REMSYN146CMAN  21004 MDRM1 46/// /3322 11032 21102 30179 40199 51036 90000 333 91224 555 11020 22022 32318 433029 62359 333022 329023 325025 327025 326013;
0032994060999992012012101004+43967-068117FM-12+0016MDRM1V0203301N010819999999N9999999N1-00381-00971102111ADDMA1999999101911MD1110351+9999
0032994060999992012012102004+43967-068117FM-12+0016MDRM1V0203201N009319999999N9999999N1-00431-00911102221ADDMA1999999102011MD1310311+9999
0032994060999992012012103004+43967-068117FM-12+0016MDRM1V0203201N008719999999N9999999N1-00491-00921102251ADDMA1999999102041MD1110261+9999
0246994060999992012012104004+43967-068117FM-12+0016MDRM1V0203201N008219999999N9999999N1-00551-00991102271ADDMA1999999102071MD1110161+9999OA139900931REMSYN194CMAN  21044 MDRM1 46/// /3216 11055 21099 30207 40227 51016 90400 333 91218 555 11015 22015 30336 431022 60359 320017 314017 314018 312016 311803 60349 211014 226012 215016 213016 222015 213016;
0032994060999992012012105004+43967-068117FM-12+0016MDRM1V0203201N009819999999N9999999N1-00591-01371102261ADDMA1999999102051MD1110041+9999
0032994060999992012012106004+43967-068117FM-12+0016MDRM1V0203301N010319999999N9999999N1-00651-01301102291ADDMA1999999102091MD1310041+9999
0032994060999992012012107004+43967-068117FM-12+0016MDRM1V0203401N010819999999N9999999N1-00701-01221102341ADDMA1999999102141MD1310071+9999
0198994060999992012012108004+43967-068117FM-12+0016MDRM1V0203401N009319999999N9999999N1-00741-01151102351ADDMA1999999102141MD1110091+9999OA139901081REMSYN146CMAN  21084 MDRM1 46/// /3418 11074 21115 30214 40235 51009 90800 333 91221 555 11017 22018 30711 433026 60759 333017 333017 331018 324019 321029;
0032994060999992012012109004+43967-068117FM-12+0016MDRM1V0203501N008719999999N9999999N1-00841-01411102361ADDMA1999999102151MD1110071+9999
0198994060999992012012110004+43967-068117FM-12+0016MDRM1V0203401N006719999999N9999999N1-00831-01361102411ADDMA1999999102211MD1310071+9999OA139900771REMSYN146CMAN  21104 MDRM1 46/// /3413 11083 21136 30221 40241 53007 91000 333 91215 555 11012 22013 30918 434021 60959 335014 328015 327016 324016 333026;
0032994060999992012012111004+43967-068117FM-12+0016MDRM1V0203301N006219999999N9999999N1-00851-01201102441ADDMA1999999102241MD1310091+9999
0206994060999992012012112004+43967-068117FM-12+0016MDRM1V0203501N007719999999N9999999N1-00901-01621102431ADDMA1999999102231MD1110071+9999OA139900881REMSYN154CMAN  21124 MDRM1 46/// /3515 11090 21162 30223 40243 51007 91200 333 91217 555 11014 22015 31149 435018 61159 352015 350014 346015 339013 33 96468 96461;
0032994060999992012012113004+43967-068117FM-12+0016MDRM1V0200301N003619999999N9999999N1-00791-01291102431ADDMA1999999102221MD1010001+9999
0032994060999992012012114004+43967-068117FM-12+0016MDRM1V0200401N005719999999N9999999N1-00811-01111102451ADDMA1999999102251MD1410001+9999
0032994060999992012012115004+43967-068117FM-12+0016MDRM1V0200301N006719999999N9999999N1-00821-01181102431ADDMA1999999102231MD1410001+9999
0032994060999992012012116004+43967-068117FM-12+0016MDRM1V0200201N004619999999N9999999N1-00871-01041102361ADDMA1999999102151MD1810071+9999
0032994060999992012012117004+43967-068117FM-12+0016MDRM1V0200301N006219999999N9999999N1-00831-00871102231ADDMA1999999102031MD1810221+9999
0032994060999992012012118004+43967-068117FM-12+0016MDRM1V0200201N006719999999N9999999N1-00801-00821102201ADDMA1999999102001MD1610231+9999
0032994060999992012012119004+43967-068117FM-12+0016MDRM1V0200201N006719999999N9999999N1-00771-00781102201ADDMA1999999102001MD1610161+9999
0032994060999992012012120004+43967-068117FM-12+0016MDRM1V0200201N008219999999N9999999N1-00771-00781102241ADDMA1999999102031MD1510001+9999
0246994060999992012012121004+43967-068117FM-12+0016MDRM1V0200101N008719999999N9999999N1-00741-00751102291ADDMA1999999102091MD1310091+9999OA139901031REMSYN194CMAN  21214 MDRM1 46/// /0117 11074 21075 30209 40229 53009 92100 333 91220 555 11016 22017 32054 401020 62059 009016 013017 005016 009015 001511 62049 149078 150079 148080 149081 147085 146088;
0032994060999992012012122004+43967-068117FM-12+0016MDRM1V0200201N008719999999N9999999N1-00731-00741102281ADDMA1999999102081MD1110081+9999
0032994060999992012012123004+43967-068117FM-12+0016MDRM1V0200201N009819999999N9999999N1-00691-00701102281ADDMA1999999102071MD1110041+9999
0032994060999992012012200004+43967-068117FM-12+0016MDRM1V0200201N012319999999N9999999N1-00721-00731102301ADDMA1999999102101MD1410001+9999
0246994060999992012012201004+43967-068117FM-12+0016MDRM1V0200301N013919999999N9999999N1-00711-00721102361ADDMA1999999102161MD1310081+9999OA139901491REMSYN194CMAN  22014 MDRM1 46/// /0327 11071 21072 30216 40236 53008 90100 333 91229 555 11025 22026 30038 403031 60059 026026 030026 026025 025023 021706 60049 160043 162039 155036 159046 159046 164054;
0032994060999992012012202004+43967-068117FM-12+0016MDRM1V0200201N012319999999N9999999N1-00721-00741102431ADDMA1999999102221MD1310151+9999
0032994060999992012012203004+43967-068117FM-12+0016MDRM1V0200201N012919999999N9999999N1-00751-00901102441ADDMA1999999102241MD1110141+9999
0032994060999992012012204004+43967-068117FM-12+0016MDRM1V0200201N012919999999N9999999N1-00721-00901102511ADDMA1999999102311MD1210151+9999
0032994060999992012012205004+43967-068117FM-12+0016MDRM1V0200201N012919999999N9999999N1-00711-01041102611ADDMA1999999102411MD1310181+9999
0194994060999992012012206004+43967-068117FM-12+0016MDRM1V0200201N011819999999N9999999N1-00771-01041102691ADDMA1999999102481MD1310251+9999OA139901341REMSYN142CMAN  22064 MDRM1 46/// /0223 11077 21104 30248 40269 53025 90600 333 91226 555 11021 22023 30503 401030 60559 020022 020023 020024 021024 02;
0032994060999992012012207004+43967-068117FM-12+0016MDRM1V0200101N012319999999N9999999N1-00721-01161102751ADDMA1999999102551MD1110241+9999
0246994060999992012012208004+43967-068117FM-12+0016MDRM1V0200201N011819999999N9999999N1-00701-01161102841ADDMA1999999102641MD1310231+9999OA139901391REMSYN194CMAN  22084 MDRM1 46/// /0223 11070 21116 30264 40284 53023 90800 333 91227 555 11021 22023 30743 402031 60759 015024 014026 010024 019023 010708 60749 076052 073056 068060 071059 066063 061062;
0032994060999992012012209004+43967-068117FM-12+0016MDRM1V0200101N012319999999N9999999N1-00691-01111102901ADDMA1999999102701MD1210211+9999
0215994060999992012012210004+43967-068117FM-12+0016MDRM1V0200101N010819999999N9999999N1-00671-01061103011ADDMA1999999102811MD1310261+9999OA139901291REMSYN163CMAN  22104 MDRM1 46/// /0121 11067 21106 30281 40301 53026 91000 333 91225 555 11020 22021 30912 402027 60959 013021 011021 005021 005021 01612 ///// 47203 51200;
0032994060999992012012211004+43967-068117FM-12+0016MDRM1V0200101N009819999999N9999999N1-00681-01101103111ADDMA1999999102911MD1310271+9999
0246994060999992012012212004+43967-068117FM-12+0016MDRM1V0200201N009819999999N9999999N1-00721-01021103231ADDMA1999999103031MD1310331+9999OA139901081REMSYN194CMAN  22124 MDRM1 46/// /0219 11072 21102 30303 40323 53033 91200 333 91221 555 11017 22018 31156 402022 61159 021019 020019 017019 020018 010315 61149 036115 035117 035117 042115 036114 033116;
0032994060999992012012213004+43967-068117FM-12+0016MDRM1V0200301N009819999999N9999999N1-00721-00931103341ADDMA1999999103131MD1310331+9999
0203994060999992012012214004+43967-068117FM-12+0016MDRM1V0200201N007719999999N9999999N1-00681-00861103451ADDMA1999999103251MD1110341+9999OA139900931REMSYN151CMAN  22144 MDRM1 46/// /0215 11068 21086 30325 40345 51034 91400 333 91218 555 11014 22015 31304 403023 61359 030016 025016 031017 034019 02/// 05800;
0032994060999992012012215004+43967-068117FM-12+0016MDRM1V0200501N008219999999N9999999N1-00651-00871103491ADDMA1999999103291MD1110261+9999
0032994060999992012012216004+43967-068117FM-12+0016MDRM1V0200301N008219999999N9999999N1-00601-00911103431ADDMA1999999103221MD1010091+9999
0032994060999992012012217004+43967-068117FM-12+0016MDRM1V0200401N006719999999N9999999N1-00601-01071103391ADDMA1999999103191MD1810061+9999
0032994060999992012012218004+43967-068117FM-12+0016MDRM1V0200401N004619999999N9999999N1-00581-01161103381ADDMA1999999103181MD1610111+9999
0198994060999992012012219004+43967-068117FM-12+0016MDRM1V0200501N002119999999N9999999N1-00551-01161103411ADDMA1999999103211MD1510001+9999OA139900311REMSYN146CMAN  22194 MDRM1 46/// /0504 11055 21116 30321 40341 55000 91900 333 91206 555 11004 22004 31819 403014 61859 041006 031007 025008 021008 037041;
0246994060999992012012220004+43967-068117FM-12+0016MDRM1V0200101N002619999999N9999999N1-00551-01091103461ADDMA1999999103261MD1310071+9999OA139900311REMSYN194CMAN  22204 MDRM1 46/// /0105 11055 21109 30326 40346 53007 92000 333 91206 555 11005 22005 31942 436010 61959 011005 003007 002006 026005 021212 61949 126094 127088 127088 125091 125093 123086;
0032994060999992012012221004+43967-068117FM-12+0016MDRM1V0200201N002119999999N9999999N1-00531-01121103441ADDMA1999999103241MD1110061+9999
0032994060999992012012222004+43967-068117FM-12+0016MDRM1V0200501N001019999999N9999999N1-00511-01241103461ADDMA1999999103261MD1110051+9999
