0018994060999992010010100004+43967-068117FM-12+0016MDRM1V0201301N008219999999N9999999N1+00301+00151999999ADDMA1999999101951
0018994060999992010010101004+43967-068117FM-12+0016MDRM1V0201301N009819999999N9999999N1+00341+00151999999ADDMA1999999101861
0018994060999992010010102004+43967-068117FM-12+0016MDRM1V0201301N010319999999N9999999N1+00381+00181999999ADDMA1999999101751
0018994060999992010010103004+43967-068117FM-12+0016MDRM1V0201301N010819999999N9999999N1+00391+00171999999ADDMA1999999101671
0178994060999992010010104004+43967-068117FM-12+0016MDRM1V0201201N012319999999N9999999N1+00391+00201999999ADDMA1999999101581OA139901291REMSYN140CMAN  01044 MDRM1 46/// /1224 10039 20020 30158 90400 333 91225 555 11022 22023 30330 413026 60359 124023 128023 129023 130022 12008 291011;
0018994060999992010010105004+43967-068117FM-12+0016MDRM1V0201201N013419999999N9999999N1+00371+00201999999ADDMA1999999101461
0018994060999992010010106004+43967-068117FM-12+0016MDRM1V0201201N013419999999N9999999N1+00361+00251999999ADDMA1999999101381
0018994060999992010010107004+43967-068117FM-12+0016MDRM1V0201101N013419999999N9999999N1+00371+00251999999ADDMA1999999101341
0018994060999992010010108004+43967-068117FM-12+0016MDRM1V0201001N014419999999N9999999N1+00331+00221999999ADDMA1999999101271
0178994060999992010010109004+43967-068117FM-12+0016MDRM1V0201001N014419999999N9999999N1+00301+00221999999ADDMA1999999101181OA139901541REMSYN140CMAN  01094 MDRM1 46/// /1028 10030 20022 30118 90900 333 91230 555 11026 22028 30855 410032 60859 097028 099028 099027 102028 10004 021009;
0178994060999992010010110004+43967-068117FM-12+0016MDRM1V0200901N014919999999N9999999N1+00251+00151999999ADDMA1999999101141OA139901601REMSYN140CMAN  01104 MDRM1 46/// /0929 10025 20015 30114 91000 333 91231 555 11026 22028 30913 410031 60959 090027 093027 092027 093027 09017 276008;
0226994060999992010010111004+43967-068117FM-12+0016MDRM1V0200901N013419999999N9999999N1+00241+00141999999ADDMA1999999101121OA139901491REMSYN188CMAN  01114 MDRM1 46/// /0926 10024 20014 30112 91100 333 91229 555 11024 22026 31032 409032 61059 086026 087026 088027 090027 08018 263510 61049 343070 345075 342076 341077 342070 350052;
0018994060999992010010112004+43967-068117FM-12+0016MDRM1V0200801N013919999999N9999999N1+00191+00111999999ADDMA1999999101121
0018994060999992010010113004+43967-068117FM-12+0016MDRM1V0200701N013919999999N9999999N1+00171+00091999999ADDMA1999999101121
0018994060999992010010114004+43967-068117FM-12+0016MDRM1V0200701N014919999999N9999999N1+00151+00061999999ADDMA1999999101071
0178994060999992010010115004+43967-068117FM-12+0016MDRM1V0200701N015919999999N9999999N1+00121+00021999999ADDMA1999999101041OA139901751REMSYN140CMAN  01154 MDRM1 46/// /0731 10012 20002 30104 91500 333 91234 555 11029 22031 31406 407035 61459 072029 071030 071029 070028 07016 294004;
0018994060999992010010116004+43967-068117FM-12+0016MDRM1V0200701N013919999999N9999999N1+00121+00051999999ADDMA1999999100951
0018994060999992010010117004+43967-068117FM-12+0016MDRM1V0200701N013919999999N9999999N1+00071+00001999999ADDMA1999999100881
0018994060999992010010118004+43967-068117FM-12+0016MDRM1V0200701N014919999999N9999999N1+00081+00021999999ADDMA1999999100821
0178994060999992010010119004+43967-068117FM-12+0016MDRM1V0200601N014419999999N9999999N1+00131+00041999999ADDMA1999999100761OA139901701REMSYN140CMAN  01194 MDRM1 46/// /0628 10013 20004 30076 91900 333 91233 555 11026 22028 31851 406036 61859 063030 063029 064030 066029 06016 309008;
0178994060999992010010120004+43967-068117FM-12+0016MDRM1V0200601N014919999999N9999999N1+00121+00021999999ADDMA1999999100791OA139901701REMSYN140CMAN  01204 MDRM1 46/// /0629 10012 20002 30079 92000 333 91233 555 11027 22029 31948 407039 61959 063030 067031 067030 066031 06018 305008;
0226994060999992010010121004+43967-068117FM-12+0016MDRM1V0200601N014919999999N9999999N1+00131+00061999999ADDMA1999999100781OA139901651REMSYN188CMAN  01214 MDRM1 46/// /0629 10013 20006 30078 92100 333 91232 555 11027 22029 32000 406036 62059 064029 065028 067028 069029 06017 303413 62049 348104 344106 344099 346100 347096 344094;
0018994060999992010010122004+43967-068117FM-12+0016MDRM1V0200601N015419999999N9999999N1+00121+00051999999ADDMA1999999100751
0018994060999992010010123004+43967-068117FM-12+0016MDRM1V0200701N015419999999N9999999N1+00141+00051999999ADDMA1999999100711
0174994060999992010010200004+43967-068117FM-12+0016MDRM1V0200501N013919999999N9999999N1+00121+00081999999ADDMA1999999100731OA139901541REMSYN136CMAN  02004 MDRM1 46/// /0527 10012 20008 30073 90000 333 91230 555 11025 22026 32304 406034 62359 056025 064024 066023 072025 06016 33;
0018994060999992010010201004+43967-068117FM-12+0016MDRM1V0200301N013419999999N9999999N1+00011+00001999999ADDMA1999999100661
0178994060999992010010202004+43967-068117FM-12+0016MDRM1V0200301N013419999999N9999999N1-00051-00061999999ADDMA1999999100581OA139901441REMSYN140CMAN  02024 MDRM1 46/// /0326 11005 21006 30058 90200 333 91228 555 11024 22025 30142 403031 60159 032026 030027 028026 030025 03007 339005;
0018994060999992010010203004+43967-068117FM-12+0016MDRM1V0200301N012919999999N9999999N1-00071-00081999999ADDMA1999999100481
0018994060999992010010204004+43967-068117FM-12+0016MDRM1V0200301N013419999999N9999999N1-00061-00071999999ADDMA1999999100451
0178994060999992010010205004+43967-068117FM-12+0016MDRM1V0200301N014419999999N9999999N1-00101-00121999999ADDMA1999999100281OA139901601REMSYN140CMAN  02054 MDRM1 46/// /0328 11010 21012 30028 90500 333 91231 555 11026 22028 30457 403033 60459 030030 032029 031028 032027 03019 332015;
0186994060999992010010206004+43967-068117FM-12+0016MDRM1V0200301N014919999999N9999999N1-00121-00141999999ADDMA1999999100201OA139901651REMSYN148CMAN  02064 MDRM1 46/// /0329 11012 21014 30020 90600 333 91232 555 11026 22028 30549 403034 60559 032030 031030 030030 029030 03018 32 88/22 91113;
0018994060999992010010207004+43967-068117FM-12+0016MDRM1V0200401N014919999999N9999999N1-00081-00091999999ADDMA1999999100221
0174994060999992010010208004+43967-068117FM-12+0016MDRM1V0200301N015419999999N9999999N1-00051-00061999999ADDMA1999999100101OA139901701REMSYN136CMAN  02084 MDRM1 46/// /0330 11005 21006 30010 90800 333 91233 555 11028 22030 30739 403035 60759 027030 029030 030030 031030 03027 31;
0186994060999992010010209004+43967-068117FM-12+0016MDRM1V0200301N015419999999N9999999N1-00101-00111999999ADDMA1999999100011OA139901751REMSYN148CMAN  02094 MDRM1 46/// /0330 11010 21011 30001 90900 333 91234 555 11027 22029 30858 402034 60859 024030 022029 025030 025029 02023 32 96470 96478;
0018994060999992010010210004+43967-068117FM-12+0016MDRM1V0200201N017519999999N9999999N1-00111-00141999999ADDMA1999999099901
0018994060999992010010211004+43967-068117FM-12+0016MDRM1V0200201N015419999999N9999999N1-00151-00181999999ADDMA1999999099851
0018994060999992010010212004+43967-068117FM-12+0016MDRM1V0200201N017019999999N9999999N1-00221-00261999999ADDMA1999999099761
0018994060999992010010213004+43967-068117FM-12+0016MDRM1V0200201N015919999999N9999999N1-00171-00231999999ADDMA1999999099681
0178994060999992010010214004+43967-068117FM-12+0016MDRM1V0200201N015419999999N9999999N1-00231-00291999999ADDMA1999999099631OA139901751REMSYN140CMAN  02144 MDRM1 46/// /0230 11023 21029 39963 91400 333 91234 555 11028 22030 31300 403038 61359 020032 023031 022031 022032 02026 337016;
0018994060999992010010215004+43967-068117FM-12+0016MDRM1V0200201N016419999999N9999999N1-00201-00261999999ADDMA1999999099521
0178994060999992010010216004+43967-068117FM-12+0016MDRM1V0200101N016419999999N9999999N1-00221-00281999999ADDMA1999999099351OA139901801REMSYN140CMAN  02164 MDRM1 46/// /0132 11022 21028 39935 91600 333 91235 555 11030 22032 31537 402037 61559 016030 017031 016031 018031 01023 32////;
0018994060999992010010217004+43967-068117FM-12+0016MDRM1V0200101N016419999999N9999999N1-00231-00301999999ADDMA1999999099201
0178994060999992010010218004+43967-068117FM-12+0016MDRM1V0200101N015919999999N9999999N1-00171-00231999999ADDMA1999999099051OA139901961REMSYN140CMAN  02184 MDRM1 46/// /0131 11017 21023 39905 91800 333 91238 555 11029 22031 31759 401038 61759 006032 010031 007032 008031 01018 32////;
0018994060999992010010219004+43967-068117FM-12+0016MDRM1V0203601N015919999999N9999999N1-00201-00281999999ADDMA1999999098941
0018994060999992010010220004+43967-068117FM-12+0016MDRM1V0203601N015419999999N9999999N1-00201-00281999999ADDMA1999999098841
0018994060999992010010221004+43967-068117FM-12+0016MDRM1V0203601N017019999999N9999999N1-00251-00341999999ADDMA1999999098711
0018994060999992010010222004+43967-068117FM-12+0016MDRM1V0203501N015919999999N9999999N1-00251-00341999999ADDMA1999999098541
0214994060999992010010223004+43967-068117FM-12+0016MDRM1V0203501N017019999999N9999999N1-00281-00371999999ADDMA1999999098351OA139901901REMSYN176CMAN  02234 MDRM1 46/// /3533 11028 21037 39835 92300 333 91237 555 11031 22033 32246 435041 62259 349033 352034 351033 352032 35019 3107162 315165 307164 311167 312165 309168;
0174994060999992010010300004+43967-068117FM-12+0016MDRM1V0203501N018519999999N9999999N1-00261-00391999999ADDMA1999999098151OA139902061REMSYN136CMAN  03004 MDRM1 46/// /3536 11026 21039 39815 90000 333 91240 555 11034 22036 32354 435043 62359 346037 348035 349034 351036 34018 31;
0018994060999992010010301004+43967-068117FM-12+0016MDRM1V0203401N020019999999N9999999N1-00231-00291999999ADDMA1999999097901
0178994060999992010010302004+43967-068117FM-12+0016MDRM1V0203401N018519999999N9999999N1-00211-00271999999ADDMA1999999097681OA139902111REMSYN140CMAN  03024 MDRM1 46/// /3436 11021 21027 39768 90200 333 91241 555 11034 22036 30132 434043 60159 336035 337035 341037 340037 33005 351024;
0018994060999992010010303004+43967-068117FM-12+0016MDRM1V0203301N015919999999N9999999N1-00141-00241999999ADDMA1999999097521
0018994060999992010010304004+43967-068117FM-12+0016MDRM1V0203401N017019999999N9999999N1-00081-00201999999ADDMA1999999097321
0018994060999992010010305004+43967-068117FM-12+0016MDRM1V0203401N015919999999N9999999N1-00091-00201999999ADDMA1999999097221
0184994060999992010010306004+43967-068117FM-12+0016MDRM1V0203401N013919999999N9999999N1-00051-00121999999ADDMA1999999097251OA139901541REMSYN146CMAN  03064 MDRM1 46/// /3427 11005 21012 39725 90600 333 91230 555 11025 22027 30515 434036 60559 344027 343029 342029 341030 34022 31 555 60005;
0018994060999992010010307004+43967-068117FM-12+0016MDRM1V0203501N009819999999N9999999N1-00031-00101999999ADDMA1999999097351
0018994060999992010010308004+43967-068117FM-12+0016MDRM1V0200501N006219999999N9999999N1+00111+00011999999ADDMA1999999097391
0178994060999992010010309004+43967-068117FM-12+0016MDRM1V0200601N007719999999N9999999N1+00221+00131999999ADDMA1999999097471OA139900881REMSYN140CMAN  03094 MDRM1 46/// /0615 10022 20013 39747 90900 333 91217 555 11014 22015 30857 405019 60859 048016 040015 047013 048013 04025 313024;
0018994060999992010010310004+43967-068117FM-12+0016MDRM1V0200901N009319999999N9999999N1+00271+00121999999ADDMA1999999097541
0178994060999992010010311004+43967-068117FM-12+0016MDRM1V0200901N010819999999N9999999N1+00271+00011999999ADDMA1999999097651OA139901241REMSYN140CMAN  03114 MDRM1 46/// /0921 10027 20001 39765 91100 333 91224 555 11019 22021 31047 410024 61059 092020 099020 094020 099019 10022 300011;
0179994060999992010010312004+43967-068117FM-12+0016MDRM1V0201001N012319999999N9999999N1+00231+00011999999ADDMA1999999097801OA139901391REMSYN141CMAN  03124 MDRM1 46/// /1024 10023 20001 39780 91200 333 91227 555 11022 22023 31153 410029 61159 098024 097024 086022 090024 080 ICE 0////;
0018994060999992010010313004+43967-068117FM-12+0016MDRM1V0200901N011819999999N9999999N1+00241+00081999999ADDMA1999999097921
0018994060999992010010314004+43967-068117FM-12+0016MDRM1V0200801N013419999999N9999999N1+00271+00041999999ADDMA1999999098021
0018994060999992010010315004+43967-068117FM-12+0016MDRM1V0200701N011819999999N9999999N1+00191+00031999999ADDMA1999999098141
0178994060999992010010316004+43967-068117FM-12+0016MDRM1V0200701N010319999999N9999999N1+00301+00001999999ADDMA1999999098131OA139901131REMSYN140CMAN  03164 MDRM1 46/// /0720 10030 20000 39813 91600 333 91222 555 11018 22019 31508 407029 61559 074019 079023 071024 077024 07022 326015;
0178994060999992010010317004+43967-068117FM-12+0016MDRM1V0200701N008719999999N9999999N1+00311-00091999999ADDMA1999999098141OA139900931REMSYN140CMAN  03174 MDRM1 46/// /0717 10031 21009 39814 91700 333 91218 555 11016 22017 31606 408026 61659 063017 071017 079018 087017 09021 300018;
0178994060999992010010318004+43967-068117FM-12+0016MDRM1V0200501N007719999999N9999999N1+00331-00051999999ADDMA1999999098171OA139900881REMSYN140CMAN  03184 MDRM1 46/// /0515 10033 21005 39817 91800 333 91217 555 11014 22015 31713 406020 61759 053015 052016 052017 057017 06004 278018;
0018994060999992010010319004+43967-068117FM-12+0016MDRM1V0200201N009819999999N9999999N1+00211+00131999999ADDMA1999999098241
0178994060999992010010320004+43967-068117FM-12+0016MDRM1V0200201N012919999999N9999999N1+00241+00121999999ADDMA1999999098271OA139901341REMSYN140CMAN  03204 MDRM1 46/// /0225 10024 20012 39827 92000 333 91226 555 11023 22024 31947 402027 61959 022024 020024 012022 028017 02022 300022;
0178994060999992010010321004+43967-068117FM-12+0016MDRM1V0200201N014919999999N9999999N1+00271+00161999999ADDMA1999999098291OA139901701REMSYN140CMAN  03214 MDRM1 46/// /0229 10027 20016 39829 92100 333 91233 555 11027 22029 32046 402034 62059 019029 022029 020028 021027 02022 307032;
0255994060999992010010322004+43967-068117FM-12+0016MDRM1V0200201N017519999999N9999999N1+00291+00161999999ADDMA1999999098321OA139902011REMSYN217CMAN  03224 MDRM1 46/// /0234 10029 20016 39832 92200 333 91239 555 11032 22034 32136 403040 62159 022033 022032 024033 020030 01023 31068 22071 32139 40808 62149 087064 085061 079055 077048 076049 076045 80807 92146;
0018994060999992010010323004+43967-068117FM-12+0016MDRM1V0200201N017519999999N9999999N1+00271+00131999999ADDMA1999999098381
0178994060999992010010400004+43967-068117FM-12+0016MDRM1V0200101N016419999999N9999999N1+00281+00111999999ADDMA1999999098411OA139901801REMSYN140CMAN  04004 MDRM1 46/// /0132 10028 20011 39841 90000 333 91235 555 11030 22032 32336 402039 62359 012031 012032 017032 018033 02020 315022;
0018994060999992010010401004+43967-068117FM-12+0016MDRM1V0200101N015919999999N9999999N1+00281+00141999999ADDMA1999999098431
0175994060999992010010402004+43967-068117FM-12+0016MDRM1V0203601N015419999999N9999999N1+00301+00141999999ADDMA1999999098431OA139901701REMSYN137CMAN  04024 MDRM1 46/// /3630 10030 20014 39843 90200 333 91233 555 11028 22030 30104 436038 60159 357029 002031 005030 003030 00023 32E;
0018994060999992010010403004+43967-068117FM-12+0016MDRM1V0203501N014919999999N9999999N1+00301+00121999999ADDMA1999999098441
0018994060999992010010404004+43967-068117FM-12+0016MDRM1V0203501N014419999999N9999999N1+00291+00131999999ADDMA1999999098431
0018994060999992010010405004+43967-068117FM-12+0016MDRM1V0203501N014419999999N9999999N1+00321+00151999999ADDMA1999999098431
0178994060999992010010406004+43967-068117FM-12+0016MDRM1V0203401N015919999999N9999999N1+00291+00121999999ADDMA1999999098441OA139901901REMSYN140CMAN  04064 MDRM1 46/// /3431 10029 20012 39844 90600 333 91237 555 11029 22031 30543 434038 60559 343032 344031 346030 345031 34024 316004;
0177994060999992010010407004+43967-068117FM-12+0016MDRM1V0203301N016419999999N9999999N1+00281+00111999999ADDMA1999999098491OA139901801REMSYN139CMAN  04074 MDRM1 46/// /3332 10028 20011 39849 90700 333 91235 555 11029 22031 30639 434037 60659 333030 335030 341031 340031 34023 31115;
0018994060999992010010408004+43967-068117FM-12+0016MDRM1V0203401N016419999999N9999999N1+00261+00111999999ADDMA1999999098511
0018994060999992010010409004+43967-068117FM-12+0016MDRM1V0203301N016419999999N9999999N1+00271+00101999999ADDMA1999999098531
0178994060999992010010410004+43967-068117FM-12+0016MDRM1V0203301N017519999999N9999999N1+00261+00071999999ADDMA1999999098571OA139901901REMSYN140CMAN  04104 MDRM1 46/// /3334 10026 20007 39857 91000 333 91237 555 11031 22033 30918 433039 60959 329031 330031 331031 331032 33004 345021;
0018994060999992010010411004+43967-068117FM-12+0016MDRM1V0203301N016419999999N9999999N1+00261+00061999999ADDMA1999999098651
0018994060999992010010412004+43967-068117FM-12+0016MDRM1V0203301N015419999999N9999999N1+00261+00071999999ADDMA1999999098731
0018994060999992010010413004+43967-068117FM-12+0016MDRM1V0203401N014919999999N9999999N1+00251+00081999999ADDMA1999999098821
0178994060999992010010414004+43967-068117FM-12+0016MDRM1V0203301N013919999999N9999999N1+00251+00071999999ADDMA1999999098931OA139901601REMSYN140CMAN  04144 MDRM1 46/// /3327 10025 20007 39893 91400 333 91231 555 11025 22027 31302 434034 61359 333027 333027 334028 336028 33020 316023;
0178994060999992010010415004+43967-068117FM-12+0016MDRM1V0203301N013419999999N9999999N1+00271+00081999999ADDMA1999999099021OA139901441REMSYN140CMAN  04154 MDRM1 46/// /3326 10027 20008 39902 91500 333 91228 555 11024 22026 31400 433032 61459 333025 335024 336024 333025 33019 304022;
0179994060999992010010416004+43967-068117FM-12+0016MDRM1V0203401N011819999999N9999999N1+00271+00081999999ADDMA1999999099071OA139901291REMSYN141CMAN  04164 MDRM1 46/// /3423 10027 20008 39907 91600 333 91225 555 11022 22023 31501 434029 61559 336023 335022 337022 339023 33019 30/////;
0018994060999992010010417004+43967-068117FM-12+0016MDRM1V0203301N011319999999N9999999N1+00281+00111999999ADDMA1999999099081
0168994060999992010010418004+43967-068117FM-12+0016MDRM1V0203301N010819999999N9999999N1+00291+00091999999ADDMA1999999099121OA139901181REMSYN130CMAN  04184 MDRM1 46/// /3321 10029 20009 39912 91800 333 91223 555 11020 22021 31708 433027 61759 334021 332023 330022 330022 32;
0018994060999992010010419004+43967-068117FM-12+0016MDRM1V0203301N011319999999N9999999N1+00301+00091999999ADDMA1999999099201
0179994060999992010010420004+43967-068117FM-12+0016MDRM1V0203201N010319999999N9999999N1+00311+00111999999ADDMA1999999099301OA139901131REMSYN141CMAN  04204 MDRM1 46/// /3220 10031 20011 39930 92000 333 91222 555 11019 22020 31904 433024 61959 331020 330020 331020 330020 33017 31/////;
0018994060999992010010421004+43967-068117FM-12+0016MDRM1V0203301N010819999999N9999999N1+00321+00141999999ADDMA1999999099361
0018994060999992010010422004+43967-068117FM-12+0016MDRM1V0203301N010319999999N9999999N1+00331+00081999999ADDMA1999999099411
0178994060999992010010423004+43967-068117FM-12+0016MDRM1V0203301N008719999999N9999999N1+00321+00081999999ADDMA1999999099481OA139901031REMSYN140CMAN  04234 MDRM1 46/// /3317 10032 20008 39948 92300 333 91220 555 11016 22017 32216 433024 62259 328018 331020 327019 332019 33016 323026;
0178994060999992010010500004+43967-068117FM-12+0016MDRM1V0203301N008719999999N9999999N1+00271+00011999999ADDMA1999999099551OA139900931REMSYN140CMAN  05004 MDRM1 46/// /3317 10027 20001 39955 90000 333 91218 555 11015 22016 32316 433023 62359 330017 327018 328018 322018 32015 343025;
0179994060999992010010501004+43967-068117FM-12+0016MDRM1V0203301N007719999999N9999999N1+00251+00001999999ADDMA1999999099581OA139900881REMSYN141CMAN  05014 MDRM1 46/// /3315 10025 20000 39958 90100 333 91217 555 11014 22015 30012 433021 60059 325016 329017 322016 327018 32016 33/////;
0178994060999992010010502004+43967-068117FM-12+0016MDRM1V0203301N009819999999N9999999N1+00211-00041999999ADDMA1999999099581OA139901081REMSYN140CMAN  05024 MDRM1 46/// /3319 10021 21004 39958 90200 333 91221 555 11018 22019 30157 433021 60159 330019 327019 326017 323016 32015 342023;
0018994060999992010010503004+43967-068117FM-12+0016MDRM1V0203401N010819999999N9999999N1+00161-00041999999ADDMA1999999099581
0018994060999992010010504004+43967-068117FM-12+0016MDRM1V0203301N008719999999N9999999N1+00181-00051999999ADDMA1999999099581
0018994060999992010010505004+43967-068117FM-12+0016MDRM1V0203301N009319999999N9999999N1+00181-00061999999ADDMA1999999099571
0178994060999992010010506004+43967-068117FM-12+0016MDRM1V0203301N008719999999N9999999N1+00161-00031999999ADDMA1999999099571OA139900981REMSYN140CMAN  05064 MDRM1 46/// /3317 10016 21003 39957 90600 333 91219 555 11016 22017 30522 433020 60559 327016 326015 324015 328016 32012 323021;
0178994060999992010010507004+43967-068117FM-12+0016MDRM1V0203301N008719999999N9999999N1+00151-00021999999ADDMA1999999099611OA139900981REMSYN140CMAN  05074 MDRM1 46/// /3317 10015 21002 39961 90700 333 91219 555 11016 22017 30643 433021 60659 331017 333018 326018 327017 32014 32////;
0018994060999992010010508004+43967-068117FM-12+0016MDRM1V0203301N008219999999N9999999N1+00131-00091999999ADDMA1999999099581
0018994060999992010010509004+43967-068117FM-12+0016MDRM1V0203201N007719999999N9999999N1+00121-00081999999ADDMA1999999099591
0018994060999992010010510004+43967-068117FM-12+0016MDRM1V0203301N008219999999N9999999N1+00111-00051999999ADDMA1999999099581
0018994060999992010010511004+43967-068117FM-12+0016MDRM1V0203301N008219999999N9999999N1+00061-00051999999ADDMA1999999099631
0018994060999992010010512004+43967-068117FM-12+0016MDRM1V0203201N008219999999N9999999N1+00051-00071999999ADDMA1999999099651
0018994060999992010010513004+43967-068117FM-12+0016MDRM1V0203201N007719999999N9999999N1+00011-00051999999ADDMA1999999099691
0226994060999992010010514004+43967-068117FM-12+0016MDRM1V0203301N008219999999N9999999N1+00051-00151999999ADDMA1999999099721OA139900931REMSYN188CMAN  05144 MDRM1 46/// /3316 10005 21015 39972 91400 333 91218 555 11015 22016 31332 432020 61359 328016 326017 328018 321017 32016 313214 61349 307110 311105 307106 310101 309105 306099;
0018994060999992010010515004+43967-068117FM-12+0016MDRM1V0203401N007219999999N9999999N1+00071-00161999999ADDMA1999999099751
0226994060999992010010516004+43967-068117FM-12+0016MDRM1V0203301N006219999999N9999999N1+00101-00161999999ADDMA1999999099701OA139900671REMSYN188CMAN  05164 MDRM1 46/// /3312 10010 21016 39970 91600 333 91213 555 11011 22012 31523 433018 61559 329012 330012 332013 331013 33012 313217 61549 304113 301116 301114 306114 301114 302118;
0018994060999992010010517004+43967-068117FM-12+0016MDRM1V0203301N006719999999N9999999N1+00111-00171999999ADDMA1999999099651
0226994060999992010010518004+43967-068117FM-12+0016MDRM1V0203301N007219999999N9999999N1+00121-00111999999ADDMA1999999099601OA139900881REMSYN188CMAN  05184 MDRM1 46/// /3314 10012 21011 39960 91800 333 91217 555 11013 22014 31759 433017 61759 330014 331014 329014 329014 32013 333015 61749 302116 302118 297121 304124 303116 305120;
0018994060999992010010519004+43967-068117FM-12+0016MDRM1V0203401N006219999999N9999999N1+00161-00161999999ADDMA1999999099601
0018994060999992010010520004+43967-068117FM-12+0016MDRM1V0203401N006219999999N9999999N1+00221-00171999999ADDMA1999999099591
0018994060999992010010521004+43967-068117FM-12+0016MDRM1V0203201N005719999999N9999999N1+00201-00141999999ADDMA1999999099581
0018994060999992010010522004+43967-068117FM-12+0016MDRM1V0203201N006219999999N9999999N1+00191-00161999999ADDMA1999999099571
0018994060999992010010523004+43967-068117FM-12+0016MDRM1V0203301N007219999999N9999999N1+00181-00141999999ADDMA1999999099581
0018994060999992010010600004+43967-068117FM-12+0016MDRM1V0203301N008219999999N9999999N1+00201-00201999999ADDMA1999999099601
0018994060999992010010601004+43967-068117FM-12+0016MDRM1V0203301N008719999999N9999999N1+00141-00231999999ADDMA1999999099581
0178994060999992010010602004+43967-068117FM-12+0016MDRM1V0203401N007219999999N9999999N1+00071-00281999999ADDMA1999999099581OA139900931REMSYN140CMAN  06024 MDRM1 46/// /3414 10007 21028 39958 90200 333 91218 555 11013 22014 30100 433020 60159 339015 336016 339017 334015 33012 307027;
0226994060999992010010603004+43967-068117FM-12+0016MDRM1V0203401N007219999999N9999999N1+00051-00311999999ADDMA1999999099591OA139900821REMSYN188CMAN  06034 MDRM1 46/// /3414 10005 21031 39959 90300 333 91216 555 11013 22013 30229 434018 60259 340014 341014 342015 345015 33007 332107 60249 217048 218048 218050 216048 218052 216055;
0018994060999992010010604004+43967-068117FM-12+0016MDRM1V0203301N007719999999N9999999N1+00031-00321999999ADDMA1999999099561
0018994060999992010010605004+43967-068117FM-12+0016MDRM1V0203301N008219999999N9999999N1+00031-00311999999ADDMA1999999099511
0214994060999992010010606004+43967-068117FM-12+0016MDRM1V0203201N008219999999N9999999N1+00001-00341999999ADDMA1999999099491OA139900931REMSYN176CMAN  06064 MDRM1 46/// /3216 10000 21034 39949 90600 333 91218 555 11014 22015 30539 432020 60559 321016 321016 319016 329016 32011 3406116 306110 315117 309112 308111 295110;
0178994060999992010010607004+43967-068117FM-12+0016MDRM1V0203301N008219999999N9999999N1+00011-00291999999ADDMA1999999099511OA139900931REMSYN140CMAN  06074 MDRM1 46/// /3316 10001 21029 39951 90700 333 91218 555 11015 22016 30654 432021 60659 322017 326017 321016 326015 32012 327033;
0018994060999992010010608004+43967-068117FM-12+0016MDRM1V0203201N008719999999N9999999N1-00021-00321999999ADDMA1999999099501
0214994060999992010010609004+43967-068117FM-12+0016MDRM1V0203201N008219999999N9999999N1-00051-00401999999ADDMA1999999099491OA139900931REMSYN176CMAN  06094 MDRM1 46/// /3216 11005 21040 39949 90900 333 91218 555 11015 22016 30855 432021 60859 316016 316017 318017 319017 310849 314111 315118 310110 306118 310121 311113;
0018994060999992010010610004+43967-068117FM-12+0016MDRM1V0203201N008719999999N9999999N1-00061-00421999999ADDMA1999999099461
0178994060999992010010611004+43967-068117FM-12+0016MDRM1V0203201N008219999999N9999999N1-00041-00371999999ADDMA1999999099461OA139900881REMSYN140CMAN  06114 MDRM1 46/// /3216 11004 21037 39946 91100 333 91217 555 11015 22016 31007 432021 61059 323016 323016 324016 326016 33015 338032;
0178994060999992010010612004+43967-068117FM-12+0016MDRM1V0203201N008219999999N9999999N1-00061-00411999999ADDMA1999999099491OA139900981REMSYN140CMAN  06124 MDRM1 46/// /3216 11006 21041 39949 91200 333 91219 555 11015 22015 31115 432022 61159 322016 324017 319016 319018 31013 320034;
0179994060999992010010613004+43967-068117FM-12+0016MDRM1V0203101N007719999999N9999999N1-00061-00411999999ADDMA1999999099511OA139900931REMSYN141CMAN  06134 MDRM1 46/// /3115 11006 21041 39951 91300 333 91218 555 11014 22015 31243 432022 61259 311015 319018 318018 323017 31015 32/////;
0018994060999992010010614004+43967-068117FM-12+0016MDRM1V0203201N009819999999N9999999N1-00071-00471999999ADDMA1999999099511
0018994060999992010010615004+43967-068117FM-12+0016MDRM1V0203201N009819999999N9999999N1-00041-00461999999ADDMA1999999099511
0018994060999992010010616004+43967-068117FM-12+0016MDRM1V0203101N010319999999N9999999N1+00001-00431999999ADDMA1999999099441
0018994060999992010010617004+43967-068117FM-12+0016MDRM1V0203001N010319999999N9999999N1-00041-00531999999ADDMA1999999099401
0018994060999992010010618004+43967-068117FM-12+0016MDRM1V0203001N008719999999N9999999N1+00041-00421999999ADDMA1999999099361
0178994060999992010010619004+43967-068117FM-12+0016MDRM1V0203201N008719999999N9999999N1+00081-00471999999ADDMA1999999099351OA139900981REMSYN140CMAN  06194 MDRM1 46/// /3217 10008 21047 39935 91900 333 91219 555 11016 22017 31846 431022 61859 314018 310018 308018 298017 30011 323033;
0018994060999992010010620004+43967-068117FM-12+0016MDRM1V0203101N009819999999N9999999N1+00121-00541999999ADDMA1999999099361
0018994060999992010010621004+43967-068117FM-12+0016MDRM1V0203001N009819999999N9999999N1+00151-00451999999ADDMA1999999099391
0018994060999992010010622004+43967-068117FM-12+0016MDRM1V0203201N009819999999N9999999N1+00141-00491999999ADDMA1999999099431
0179994060999992010010623004+43967-068117FM-12+0016MDRM1V0203201N008719999999N9999999N1+00101-00471999999ADDMA1999999099481OA139901031REMSYN141CMAN  06234 MDRM1 46/// /3217 10010 21047 39948 92300 333 91220 555 11016 22017 32205 432023 62259 312017 313018 306017 305017 31011 28/////;
0174994060999992010010700004+43967-068117FM-12+0016MDRM1V0203301N009319999999N9999999N1+00091-00441999999ADDMA1999999099501OA139901081REMSYN136CMAN  07004 MDRM1 46/// /3318 10009 21044 39950 90000 333 91221 555 11017 22018 32348 432022 62359 323018 320018 318016 314017 31011 29;
0018994060999992010010701004+43967-068117FM-12+0016MDRM1V0203201N012919999999N9999999N1+00051-00461999999ADDMA1999999099501
0018994060999992010010702004+43967-068117FM-12+0016MDRM1V0203201N011319999999N9999999N1+00001-00521999999ADDMA1999999099521
0018994060999992010010703004+43967-068117FM-12+0016MDRM1V0203301N010319999999N9999999N1-00041-00531999999ADDMA1999999099571
0018994060999992010010704004+43967-068117FM-12+0016MDRM1V0203201N010819999999N9999999N1-00081-00591999999ADDMA1999999099571
0018994060999992010010705004+43967-068117FM-12+0016MDRM1V0203101N010319999999N9999999N1-00091-00561999999ADDMA1999999099581
0178994060999992010010706004+43967-068117FM-12+0016MDRM1V0203201N010819999999N9999999N1-00111-00561999999ADDMA1999999099581OA139901241REMSYN140CMAN  07064 MDRM1 46/// /3221 11011 21056 39958 90600 333 91224 555 11019 22021 30527 432026 60559 319021 320020 320021 317021 31006 297024;
0178994060999992010010707004+43967-068117FM-12+0016MDRM1V0203101N010319999999N9999999N1-00121-00561999999ADDMA1999999099631OA139901241REMSYN140CMAN  07074 MDRM1 46/// /3120 11012 21056 39963 90700 333 91224 555 11019 22020 30655 432027 60659 319022 320020 318020 320020 31007 265025;
0018994060999992010010708004+43967-068117FM-12+0016MDRM1V0203201N010819999999N9999999N1-00091-00481999999ADDMA1999999099641
0018994060999992010010709004+43967-068117FM-12+0016MDRM1V0203201N011319999999N9999999N1-00131-00541999999ADDMA1999999099651
0018994060999992010010710004+43967-068117FM-12+0016MDRM1V0203201N010319999999N9999999N1-00111-00461999999ADDMA1999999099681
0018994060999992010010711004+43967-068117FM-12+0016MDRM1V0203201N009319999999N9999999N1-00141-00511999999ADDMA1999999099751
0177994060999992010010712004+43967-068117FM-12+0016MDRM1V0203201N011319999999N9999999N1-00161-00501999999ADDMA1999999099801OA139901291REMSYN139CMAN  07124 MDRM1 46/// /3222 11016 21050 39980 91200 333 91225 555 11021 22022 31137 432031 61159 318023 316023 317023 318021 31003 28965;
0018994060999992010010713004+43967-068117FM-12+0016MDRM1V0203201N011819999999N9999999N1-00161-00551999999ADDMA1999999099861
0018994060999992010010714004+43967-068117FM-12+0016MDRM1V0203201N011819999999N9999999N1-00141-00541999999ADDMA1999999099901
0018994060999992010010715004+43967-068117FM-12+0016MDRM1V0203201N009819999999N9999999N1-00091-00491999999ADDMA1999999099971
0255994060999992010010716004+43967-068117FM-12+0016MDRM1V0203201N011819999999N9999999N1-00081-00561999999ADDMA1999999099911OA139901291REMSYN217CMAN  07164 MDRM1 46/// /3223 11008 21056 39991 91600 333 91225 555 11021 22022 31556 431026 61559 314022 314020 321019 323021 32007 18075 22078 31504 40110 61549 007072 008074 012077 009080 005078 007084 80109 91453;
0018994060999992010010717004+43967-068117FM-12+0016MDRM1V0203201N009819999999N9999999N1-00051-00561999999ADDMA1999999099881
0018994060999992010010718004+43967-068117FM-12+0016MDRM1V0203101N007219999999N9999999N1-00031-00561999999ADDMA1999999099871
0018994060999992010010719004+43967-068117FM-12+0016MDRM1V0203301N010319999999N9999999N1+00041-00621999999ADDMA1999999099901
0018994060999992010010720004+43967-068117FM-12+0016MDRM1V0203201N010319999999N9999999N1+00091-00601999999ADDMA1999999099961
0226994060999992010010721004+43967-068117FM-12+0016MDRM1V0203001N010819999999N9999999N1+00061-00641999999ADDMA1999999100021OA139901241REMSYN188CMAN  07214 MDRM1 46/// /3021 10006 21064 30002 92100 333 91224 555 11019 22021 32003 432029 62059 312020 306023 315023 315020 31007 182708 62049 280063 293059 290065 287055 289064 294063;
0178994060999992010010722004+43967-068117FM-12+0016MDRM1V0203201N010819999999N9999999N1+00021-00661999999ADDMA1999999100051OA139901241REMSYN140CMAN  07224 MDRM1 46/// /3221 10002 21066 30005 92200 333 91224 555 11020 22021 32109 431026 62159 319021 314021 316020 318021 31005 154028;
0018994060999992010010723004+43967-068117FM-12+0016MDRM1V0203101N011319999999N9999999N1+00001-00671999999ADDMA1999999100181
0178994060999992010010800004+43967-068117FM-12+0016MDRM1V0203201N012319999999N9999999N1-00061-00691999999ADDMA1999999100211OA139901441REMSYN140CMAN  08004 MDRM1 46/// /3224 11006 21069 30021 90000 333 91228 555 11022 22024 32310 432030 62359 320024 319024 321024 313023 32004 146032;
0018994060999992010010801004+43967-068117FM-12+0016MDRM1V0203201N010319999999N9999999N1-00151-00741999999ADDMA1999999100301
0018994060999992010010802004+43967-068117FM-12+0016MDRM1V0203201N011819999999N9999999N1-00191-00751999999ADDMA1999999100321
0018994060999992010010803004+43967-068117FM-12+0016MDRM1V0203201N011319999999N9999999N1-00241-00831999999ADDMA1999999100361
0018994060999992010010804004+43967-068117FM-12+0016MDRM1V0203301N011319999999N9999999N1-00231-00751999999ADDMA1999999100341
0178994060999992010010805004+43967-068117FM-12+0016MDRM1V0203301N009819999999N9999999N1-00261-00751999999ADDMA1999999100351OA139901081REMSYN140CMAN  08054 MDRM1 46/// /3319 11026 21075 30035 90500 333 91221 555 11017 22018 30401 432026 60459 325018 324019 325019 319019 32005 008023;
0184994060999992010010806004+43967-068117FM-12+0016MDRM1V0203301N008719999999N9999999N1-00251-00661999999ADDMA1999999100351OA139901081REMSYN146CMAN  08064 MDRM1 46/// /3317 11025 21066 30035 90600 333 91221 555 11016 22017 30504 433025 60559 321018 321018 316017 320019 32005 35 555 69925;
0178994060999992010010807004+43967-068117FM-12+0016MDRM1V0203301N007219999999N9999999N1-00271-00711999999ADDMA1999999100431OA139900981REMSYN140CMAN  08074 MDRM1 46/// /3314 11027 21071 30043 90700 333 91219 555 11013 22014 30619 432022 60659 326014 324015 324016 321016 32013 155026;
0178994060999992010010808004+43967-068117FM-12+0016MDRM1V0203201N007219999999N9999999N1-00281-00671999999ADDMA1999999100421OA139900771REMSYN140CMAN  08084 MDRM1 46/// /3214 11028 21067 30042 90800 333 91215 555 11013 22014 30739 433019 60759 320014 327015 332016 329015 33005 312014;
0184994060999992010010809004+43967-068117FM-12+0016MDRM1V0203401N006719999999N9999999N1-00291-00671999999ADDMA1999999100411OA139900771REMSYN146CMAN  08094 MDRM1 46/// /3413 11029 21067 30041 90900 333 91215 555 11012 22013 30812 433018 60859 338013 334013 330014 327014 33007 286249 36154;
0178994060999992010010810004+43967-068117FM-12+0016MDRM1V0203401N005719999999N9999999N1-00321-00701999999ADDMA1999999100391OA139900671REMSYN140CMAN  08104 MDRM1 46/// /3411 11032 21070 30039 91000 333 91213 555 11011 22011 30929 433017 60959 342012 343011 342013 334013 33008 299013;
0178994060999992010010811004+43967-068117FM-12+0016MDRM1V0203201N003619999999N9999999N1-00351-00711999999ADDMA1999999100411OA139900411REMSYN140CMAN  08114 MDRM1 46/// /3207 11035 21071 30041 91100 333 91208 555 11006 22007 31000 434015 61059 324007 343007 344009 337009 34009 317012;
0179994060999992010010812004+43967-068117FM-12+0016MDRM1V0202801N002619999999N9999999N1-00311-00661999999ADDMA1999999100421OA139900461REMSYN141CMAN  08124 MDRM1 46/// /2805 11031 21066 30042 91200 333 91209 555 11005 22005 31110 432009 61159 273005 286003 311004 310004 305 ICE /////;
0018994060999992010010813004+43967-068117FM-12+0016MDRM1V0202901N003619999999N9999999N1-00311-00671999999ADDMA1999999100441
0018994060999992010010814004+43967-068117FM-12+0016MDRM1V0202901N002619999999N9999999N1-00271-00621999999ADDMA1999999100461
0018994060999992010010815004+43967-068117FM-12+0016MDRM1V0203001N003619999999N9999999N1-00281-00691999999ADDMA1999999100441
0018994060999992010010816004+43967-068117FM-12+0016MDRM1V0203301N003119999999N9999999N1-00291-00621999999ADDMA1999999100321
0018994060999992010010817004+43967-068117FM-12+0016MDRM1V0203401N003619999999N9999999N1-00281-00591999999ADDMA1999999100171
0178994060999992010010818004+43967-068117FM-12+0016MDRM1V0203601N003619999999N9999999N1-00261-00621999999ADDMA1999999100061OA139900461REMSYN140CMAN  08184 MDRM1 46/// /3607 11026 21062 30006 91800 333 91209 555 11006 22006 31700 434010 61759 355006 353006 356005 352006 35022 34////;
0018994060999992010010819004+43967-068117FM-12+0016MDRM1V0200101N002619999999N9999999N1-00221-00581999999ADDMA1999999100031
0214994060999992010010820004+43967-068117FM-12+0016MDRM1V0203601N002619999999N9999999N1-00191-00561999999ADDMA1999999100021OA139900361REMSYN176CMAN  08204 MDRM1 46/// /3605 11019 21056 30002 92000 333 91207 555 11005 22005 31926 436009 61959 013005 035005 006006 359006 01022 3305115 303110 299115 302118 302123 300116;
0018994060999992010010821004+43967-068117FM-12+0016MDRM1V0203501N003619999999N9999999N1-00221-00491999999ADDMA1999999100031
0226994060999992010010822004+43967-068117FM-12+0016MDRM1V0203501N005119999999N9999999N1-00201-00451999999ADDMA1999999100031OA139900571REMSYN188CMAN  08224 MDRM1 46/// /3510 11020 21045 30003 92200 333 91211 555 11009 22009 32141 435013 62159 353009 357010 355010 358009 00008 330710 62149 068081 067083 061080 067080 066079 065080;
0018994060999992010010823004+43967-068117FM-12+0016MDRM1V0203601N008219999999N9999999N1-00271-00431999999ADDMA1999999100031
0018994060999992010010900004+43967-068117FM-12+0016MDRM1V0203501N008219999999N9999999N1-00271-00471999999ADDMA1999999100041
0018994060999992010010901004+43967-068117FM-12+0016MDRM1V0203601N010319999999N9999999N1-00231-00421999999ADDMA1999999100051
0018994060999992010010902004+43967-068117FM-12+0016MDRM1V0203601N011819999999N9999999N1-00251-00501999999ADDMA1999999100051
0178994060999992010010903004+43967-068117FM-12+0016MDRM1V0203601N011819999999N9999999N1-00211-00531999999ADDMA1999999100061OA139901341REMSYN140CMAN  09034 MDRM1 46/// /3623 11021 21053 30006 90300 333 91226 555 11021 22022 30244 436031 60259 358024 359025 004024 010026 00009 319004;
0018994060999992010010904004+43967-068117FM-12+0016MDRM1V0203501N012919999999N9999999N1-00251-00621999999ADDMA1999999100061
0179994060999992010010905004+43967-068117FM-12+0016MDRM1V0203501N012919999999N9999999N1-00231-00641999999ADDMA1999999100051OA139901391REMSYN141CMAN  09054 MDRM1 46/// /3525 11023 21064 30005 90500 333 91227 555 11023 22025 30420 435032 60459 349026 353025 352026 352025 35016 32/////;
0177994060999992010010906004+43967-068117FM-12+0016MDRM1V0203501N013419999999N9999999N1-00241-00611999999ADDMA1999999100071OA139901541REMSYN139CMAN  09064 MDRM1 46/// /3526 11024 21061 30007 90600 333 91230 555 11024 22026 30529 435034 60559 350026 351026 351027 348027 35015 32096;
0018994060999992010010907004+43967-068117FM-12+0016MDRM1V0203401N013919999999N9999999N1-00281-00641999999ADDMA1999999100131
0018994060999992010010908004+43967-068117FM-12+0016MDRM1V0203401N012919999999N9999999N1-00271-00641999999ADDMA1999999100201
0214994060999992010010909004+43967-068117FM-12+0016MDRM1V0203401N013419999999N9999999N1-00251-00621999999ADDMA1999999100231OA139901441REMSYN176CMAN  09094 MDRM1 46/// /3426 11025 21062 30023 90900 333 91228 555 11024 22026 30838 434032 60859 341026 342024 343025 341024 34016 3225109 326107 328108 324107 327111 326111;
0214994060999992010010910004+43967-068117FM-12+0016MDRM1V0203501N012919999999N9999999N1-00261-00681999999ADDMA1999999100311OA139901441REMSYN176CMAN  09104 MDRM1 46/// /3525 11026 21068 30031 91000 333 91228 555 11023 22024 30952 434032 60959 343026 344026 342025 343025 34014 3130111 325112 325110 326106 323110 326110;
0018994060999992010010911004+43967-068117FM-12+0016MDRM1V0203401N013419999999N9999999N1-00301-00701999999ADDMA1999999100391
0018994060999992010010912004+43967-068117FM-12+0016MDRM1V0203501N011819999999N9999999N1-00291-00751999999ADDMA1999999100511
0018994060999992010010913004+43967-068117FM-12+0016MDRM1V0203401N010819999999N9999999N1-00321-00801999999ADDMA1999999100611
0226994060999992010010914004+43967-068117FM-12+0016MDRM1V0203401N012319999999N9999999N1-00341-00871999999ADDMA1999999100691OA139901391REMSYN188CMAN  09144 MDRM1 46/// /3424 11034 21087 30069 91400 333 91227 555 11022 22024 31333 435034 61359 348024 350025 353027 352026 35011 333514 61349 336103 340102 346101 341099 337102 330104;
0018994060999992010010915004+43967-068117FM-12+0016MDRM1V0203501N011319999999N9999999N1-00361-00891999999ADDMA1999999100741
0018994060999992010010916004+43967-068117FM-12+0016MDRM1V0203401N009319999999N9999999N1-00411-00801999999ADDMA1999999100751
0018994060999992010010917004+43967-068117FM-12+0016MDRM1V0203301N008719999999N9999999N1-00441-00921999999ADDMA1999999100741
0178994060999992010010918004+43967-068117FM-12+0016MDRM1V0203401N009819999999N9999999N1-00461-00961999999ADDMA1999999100771OA139901131REMSYN140CMAN  09184 MDRM1 46/// /3419 11046 21096 30077 91800 333 91222 555 11018 22019 31743 434024 61759 335018 343020 335019 339018 34007 009905;
0018994060999992010010919004+43967-068117FM-12+0016MDRM1V0203401N009319999999N9999999N1-00461-01031999999ADDMA1999999100821
0178994060999992010010920004+43967-068117FM-12+0016MDRM1V0203501N008219999999N9999999N1-00451-01061999999ADDMA1999999100881OA139900931REMSYN140CMAN  09204 MDRM1 46/// /3516 11045 21106 30088 92000 333 91218 555 11015 22016 31914 433024 61959 344016 343018 331018 341018 33004 039019;
0226994060999992010010921004+43967-068117FM-12+0016MDRM1V0203301N009819999999N9999999N1-00471-01101999999ADDMA1999999100971OA139901131REMSYN188CMAN  09214 MDRM1 46/// /3319 11047 21110 30097 92100 333 91222 555 11017 22019 32033 432025 62059 333017 329017 335018 334017 34008 012312 62049 249094 249089 248095 250095 249088 248092;
0179994060999992010010922004+43967-068117FM-12+0016MDRM1V0203401N009819999999N9999999N1-00501-01151999999ADDMA1999999101071OA139901081REMSYN141CMAN  09224 MDRM1 46/// /3419 11050 21115 30107 92200 333 91221 555 11017 22018 32149 434024 62159 343018 339019 345017 332018 33013 3492912;
0018994060999992010010923004+43967-068117FM-12+0016MDRM1V0203501N010319999999N9999999N1-00561-01131999999ADDMA1999999101181
0186994060999992010011000004+43967-068117FM-12+0016MDRM1V0203501N011819999999N9999999N1-00621-01161999999ADDMA1999999101221OA139901491REMSYN148CMAN  10004 MDRM1 46/// /3523 11062 21116 30122 90000 333 91229 555 11021 22022 32358 435029 62359 353021 352021 352021 356020 35010 34 96277 96456;
0018994060999992010011001004+43967-068117FM-12+0016MDRM1V0203501N009819999999N9999999N1-00601-01061999999ADDMA1999999101291
0018994060999992010011002004+43967-068117FM-12+0016MDRM1V0203401N008719999999N9999999N1-00681-01091999999ADDMA1999999101331
0178994060999992010011003004+43967-068117FM-12+0016MDRM1V0203401N010819999999N9999999N1-00751-01111999999ADDMA1999999101371OA139901241REMSYN140CMAN  10034 MDRM1 46/// /3421 11075 21111 30137 90300 333 91224 555 11019 22020 30241 434026 60259 337020 340021 345017 341018 34010 335027;
0018994060999992010011004004+43967-068117FM-12+0016MDRM1V0203401N010319999999N9999999N1-00811-01211999999ADDMA1999999101421
0018994060999992010011005004+43967-068117FM-12+0016MDRM1V0203401N009819999999N9999999N1-00871-01271999999ADDMA1999999101431
0178994060999992010011006004+43967-068117FM-12+0016MDRM1V0203501N009319999999N9999999N1-00871-01261999999ADDMA1999999101441OA139901181REMSYN140CMAN  10064 MDRM1 46/// /3518 11087 21126 30144 90600 333 91223 555 11017 22018 30524 433023 60559 344019 335018 346017 334017 33010 308026;
0018994060999992010011007004+43967-068117FM-12+0016MDRM1V0203301N009819999999N9999999N1-00881-01251999999ADDMA1999999101471
0226994060999992010011008004+43967-068117FM-12+0016MDRM1V0203501N010819999999N9999999N1-00861-01201999999ADDMA1999999101441OA139901181REMSYN188CMAN  10084 MDRM1 46/// /3521 11086 21120 30144 90800 333 91223 555 11020 22021 30740 434027 60759 344019 346019 341019 343019 34005 263411 60749 353087 348080 348087 359084 356081 351082;
0178994060999992010011009004+43967-068117FM-12+0016MDRM1V0203601N011319999999N9999999N1-00841-01171999999ADDMA1999999101441OA139901241REMSYN140CMAN  10094 MDRM1 46/// /3622 11084 21117 30144 90900 333 91224 555 11020 22021 30830 435028 60859 353022 355021 355022 352020 35008 340023;
0178994060999992010011010004+43967-068117FM-12+0016MDRM1V0203501N012319999999N9999999N1-00881-01251999999ADDMA1999999101461OA139901341REMSYN140CMAN  10104 MDRM1 46/// /3524 11088 21125 30146 91000 333 91226 555 11022 22023 30934 435029 60959 353023 351024 350023 353023 35009 252022;
0018994060999992010011011004+43967-068117FM-12+0016MDRM1V0203501N012319999999N9999999N1-00851-01171999999ADDMA1999999101501
0174994060999992010011012004+43967-068117FM-12+0016MDRM1V0203401N011819999999N9999999N1-00841-01181999999ADDMA1999999101551OA139901341REMSYN136CMAN  10124 MDRM1 46/// /3423 11084 21118 30155 91200 333 91226 555 11021 22023 31142 435027 61159 349021 353022 353022 352022 35009 24;
0197994060999992010011013004+43967-068117FM-12+0016MDRM1V0203501N012319999999N9999999N1-00901-01351999999ADDMA1999999101621OA139901391REMSYN159CMAN  10134 MDRM1 46/// /3524 11090 21135 30162 91300 333 91227 555 11022 22023 31238 435028 61259 354023 352023 349023 351021 35010 2387640 91131 91227 92912;
0018994060999992010011014004+43967-068117FM-12+0016MDRM1V0203501N012319999999N9999999N1-00911-01351999999ADDMA1999999101651
0183994060999992010011015004+43967-068117FM-12+0016MDRM1V0203401N008719999999N9999999N1-00911-01371999999ADDMA1999999101691OA139900981REMSYN145CMAN  10154 MDRM1 46/// /3417 11091 21137 30169 91500 333 91219 555 11016 22017 31401 435026 61459 346019 348021 350021 350022 35010 21026 90044;
0018994060999992010011016004+43967-068117FM-12+0016MDRM1V0203401N008219999999N9999999N1-00881-01431999999ADDMA1999999101621
0018994060999992010011017004+43967-068117FM-12+0016MDRM1V0203401N007719999999N9999999N1-00791-01321999999ADDMA1999999101531
0174994060999992010011018004+43967-068117FM-12+0016MDRM1V0203301N008219999999N9999999N1-00741-01371999999ADDMA1999999101451OA139900981REMSYN136CMAN  10184 MDRM1 46/// /3316 11074 21137 30145 91800 333 91219 555 11015 22016 31734 433024 61759 331017 330018 331020 334020 33 92912;
0018994060999992010011019004+43967-068117FM-12+0016MDRM1V0203401N010819999999N9999999N1-00661-01441999999ADDMA1999999101401
0018994060999992010011020004+43967-068117FM-12+0016MDRM1V0203301N009819999999N9999999N1-00631-01461999999ADDMA1999999101411
0175994060999992010011021004+43967-068117FM-12+0016MDRM1V0203401N011319999999N9999999N1-00561-01431999999ADDMA1999999101431OA139901291REMSYN137CMAN  10214 MDRM1 46/// /3422 11056 21143 30143 92100 333 91225 555 11020 22022 32034 434028 62059 339022 339020 339022 331019 32019 23T;
0018994060999992010011022004+43967-068117FM-12+0016MDRM1V0203301N008719999999N9999999N1-00511-01301999999ADDMA1999999101451
0214994060999992010011023004+43967-068117FM-12+0016MDRM1V0203301N010319999999N9999999N1-00481-01361999999ADDMA1999999101451OA139901181REMSYN176CMAN  10234 MDRM1 46/// /3320 11048 21136 30145 92300 333 91223 555 11019 22020 32253 432026 62259 327020 321018 322018 320017 32018 2140111 341114 344110 343111 343110 340115;
0226994060999992010011100004+43967-068117FM-12+0016MDRM1V0203201N010319999999N9999999N1-00461-01371999999ADDMA1999999101471OA139901181REMSYN188CMAN  11004 MDRM1 46/// /3220 11046 21137 30147 90000 333 91223 555 11019 22020 32312 432026 62359 322020 319021 319020 320018 31020 213415 62349 340112 339112 339110 344114 344116 343119;
0018994060999992010011104004+43967-068117FM-12+0016MDRM1V0203001N008219999999N9999999N1-00401-01181999999ADDMA1999999101441
0173994060999992010011105004+43967-068117FM-12+0016MDRM1V0203101N009319999999N9999999N1-00431-01041999999ADDMA1999999101371OA139901031REMSYN135CMAN  11054 MDRM1 46/// /3118 11043 21104 30137 90500 333 91220 555 11017 22018 30422 432023 60459 315016 317016 321015 316018 3091219;
0018994060999992010011106004+43967-068117FM-12+0016MDRM1V0203101N008219999999N9999999N1-00431-01021999999ADDMA1999999101361
0179994060999992010011107004+43967-068117FM-12+0016MDRM1V0203101N006719999999N9999999N1-00401-00961999999ADDMA1999999101351OA139900721REMSYN141CMAN  11074 MDRM1 46/// /3113 11040 21096 30135 90700 333 91214 555 11012 22013 30631 431021 60659 314013 315015 314017 306016 30020 2196441;
0018994060999992010011108004+43967-068117FM-12+0016MDRM1V0203201N007219999999N9999999N1-00341-00941999999ADDMA1999999101301
0018994060999992010011109004+43967-068117FM-12+0016MDRM1V0203001N006219999999N9999999N1-00321-00781999999ADDMA1999999101281
0018994060999992010011110004+43967-068117FM-12+0016MDRM1V0203201N008219999999N9999999N1-00271-00811999999ADDMA1999999101281
0018994060999992010011111004+43967-068117FM-12+0016MDRM1V0203101N007219999999N9999999N1-00261-00881999999ADDMA1999999101271
0018994060999992010011112004+43967-068117FM-12+0016MDRM1V0203001N005719999999N9999999N1-00221-00841999999ADDMA1999999101291
0018994060999992010011113004+43967-068117FM-12+0016MDRM1V0202901N006719999999N9999999N1-00201-00741999999ADDMA1999999101281
0018994060999992010011114004+43967-068117FM-12+0016MDRM1V0203001N008219999999N9999999N1-00191-00831999999ADDMA1999999101281
0174994060999992010011115004+43967-068117FM-12+0016MDRM1V0202801N007719999999N9999999N1-00151-00771999999ADDMA1999999101271OA139900821REMSYN136CMAN  11154 MDRM1 46/// /2815 11015 21077 30127 91500 333 91216 555 11014 22014 31437 430022 61459 289016 289017 296017 298019 29012 21;
0018994060999992010011116004+43967-068117FM-12+0016MDRM1V0202801N007719999999N9999999N1-00121-00811999999ADDMA1999999101171
0018994060999992010011117004+43967-068117FM-12+0016MDRM1V0202801N008719999999N9999999N1-00101-00771999999ADDMA1999999101101
0018994060999992010011118004+43967-068117FM-12+0016MDRM1V0202901N008219999999N9999999N1-00031-00751999999ADDMA1999999101031
0018994060999992010011119004+43967-068117FM-12+0016MDRM1V0203001N008719999999N9999999N1-00031-00841999999ADDMA1999999101001
0178994060999992010011120004+43967-068117FM-12+0016MDRM1V0203001N008719999999N9999999N1+00011-00701999999ADDMA1999999100991OA139901031REMSYN140CMAN  11204 MDRM1 46/// /3017 10001 21070 30099 92000 333 91220 555 11016 22017 31932 430024 61959 299019 300019 303020 294018 29005 281015;
0178994060999992010011121004+43967-068117FM-12+0016MDRM1V0203001N008719999999N9999999N1+00011-00741999999ADDMA1999999101001OA139901081REMSYN140CMAN  11214 MDRM1 46/// /3017 10001 21074 30100 92100 333 91221 555 11016 22017 32018 430024 62059 305019 298017 301018 299017 29003 283027;
0018994060999992010011122004+43967-068117FM-12+0016MDRM1V0202901N010819999999N9999999N1+00011-00711999999ADDMA1999999100991
0018994060999992010011123004+43967-068117FM-12+0016MDRM1V0202901N010819999999N9999999N1+00001-00631999999ADDMA1999999101001
0018994060999992010011200004+43967-068117FM-12+0016MDRM1V0203101N011319999999N9999999N1+00001-00541999999ADDMA1999999101041
0018994060999992010011201004+43967-068117FM-12+0016MDRM1V0203101N010819999999N9999999N1+00011-00521999999ADDMA1999999101021
0018994060999992010011202004+43967-068117FM-12+0016MDRM1V0203101N012319999999N9999999N1+00011-00531999999ADDMA1999999101031
0018994060999992010011203004+43967-068117FM-12+0016MDRM1V0203201N013419999999N9999999N1+00001-00611999999ADDMA1999999101001
0018994060999992010011204004+43967-068117FM-12+0016MDRM1V0203201N011319999999N9999999N1-00051-00621999999ADDMA1999999101011
0018994060999992010011205004+43967-068117FM-12+0016MDRM1V0203201N011819999999N9999999N1-00081-00631999999ADDMA1999999100961
0178994060999992010011206004+43967-068117FM-12+0016MDRM1V0203301N012919999999N9999999N1-00151-00701999999ADDMA1999999100951OA139901441REMSYN140CMAN  12064 MDRM1 46/// /3325 11015 21070 30095 90600 333 91228 555 11024 22025 30517 433032 60559 324024 325024 327025 326025 32004 310005;
0018994060999992010011207004+43967-068117FM-12+0016MDRM1V0203201N013919999999N9999999N1-00221-00821999999ADDMA1999999100961
0179994060999992010011208004+43967-068117FM-12+0016MDRM1V0203201N011819999999N9999999N1-00271-00791999999ADDMA1999999101011OA139901391REMSYN141CMAN  12084 MDRM1 46/// /3223 11027 21079 30101 90800 333 91227 555 11021 22023 30718 432032 60759 322024 319024 320025 318026 32006 32/////;
0184994060999992010011209004+43967-068117FM-12+0016MDRM1V0203301N012919999999N9999999N1-00341-00881999999ADDMA1999999101011OA139901391REMSYN146CMAN  12094 MDRM1 46/// /3325 11034 21088 30101 90900 333 91227 555 11023 22025 30822 433032 60859 330024 326024 327024 333025 32008 32 444 27152;
0018994060999992010011210004+43967-068117FM-12+0016MDRM1V0203301N010819999999N9999999N1-00361-00861999999ADDMA1999999101041
0018994060999992010011211004+43967-068117FM-12+0016MDRM1V0203401N010319999999N9999999N1-00381-00831999999ADDMA1999999101041
0018994060999992010011212004+43967-068117FM-12+0016MDRM1V0203301N011319999999N9999999N1-00421-00961999999ADDMA1999999101031
0018994060999992010011213004+43967-068117FM-12+0016MDRM1V0203501N010819999999N9999999N1-00481-01011999999ADDMA1999999101041
0018994060999992010011214004+43967-068117FM-12+0016MDRM1V0203401N009319999999N9999999N1-00491-01031999999ADDMA1999999101071
0018994060999992010011215004+43967-068117FM-12+0016MDRM1V0203301N008219999999N9999999N1-00501-01061999999ADDMA1999999101051
0018994060999992010011216004+43967-068117FM-12+0016MDRM1V0203201N011819999999N9999999N1-00441-01111999999ADDMA1999999100921
0018994060999992010011217004+43967-068117FM-12+0016MDRM1V0203401N010819999999N9999999N1-00421-00971999999ADDMA1999999100821
0018994060999992010011218004+43967-068117FM-12+0016MDRM1V0203201N010319999999N9999999N1-00441-01081999999ADDMA1999999100761
0232994060999992010011219004+43967-068117FM-12+0016MDRM1V0203301N010819999999N9999999N1-00481-01071999999ADDMA1999999100711OA139901181REMSYN194CMAN  12194 MDRM1 46/// /3321 11048 21107 30071 91900 333 91223 555 11020 22021 31852 433027 61859 326022 330021 315019 324022 322080 31802 41710 61849 172069 174071 174070 172072 174076 175070;
0018994060999992010011220004+43967-068117FM-12+0016MDRM1V0203201N011819999999N9999999N1-00491-01111999999ADDMA1999999100711
0018994060999992010011221004+43967-068117FM-12+0016MDRM1V0203301N010819999999N9999999N1-00561-01221999999ADDMA1999999100741
0018994060999992010011222004+43967-068117FM-12+0016MDRM1V0203101N010319999999N9999999N1-00541-01211999999ADDMA1999999100791
0178994060999992010011223004+43967-068117FM-12+0016MDRM1V0203401N011319999999N9999999N1-00641-01341999999ADDMA1999999100841OA139901341REMSYN140CMAN  12234 MDRM1 46/// /3422 11064 21134 30084 92300 333 91226 555 11020 22022 32242 434029 62259 342022 338022 331022 332021 33002 240005;
0232994060999992010011300004+43967-068117FM-12+0016MDRM1V0203401N010819999999N9999999N1-00701-01291999999ADDMA1999999100951OA139901291REMSYN194CMAN  13004 MDRM1 46/// /3421 11070 21129 30095 90000 333 91225 555 11020 22021 32353 434029 62359 341022 339022 335023 342021 33008 272345 41406 62349 156038 167034 144033 122028 132028 123028;
0018994060999992010011301004+43967-068117FM-12+0016MDRM1V0203501N013919999999N9999999N1-00761-01291999999ADDMA1999999100951
0018994060999992010011302004+43967-068117FM-12+0016MDRM1V0203401N013419999999N9999999N1-00781-01201999999ADDMA1999999101011
0018994060999992010011303004+43967-068117FM-12+0016MDRM1V0203501N012319999999N9999999N1-00821-01301999999ADDMA1999999101021
0178994060999992010011304004+43967-068117FM-12+0016MDRM1V0203501N012919999999N9999999N1-00821-01301999999ADDMA1999999101021OA139901391REMSYN140CMAN  13044 MDRM1 46/// /3525 11082 21130 30102 90400 333 91227 555 11023 22024 30304 435029 60359 345023 347022 352023 348023 34008 225018;
0018994060999992010011305004+43967-068117FM-12+0016MDRM1V0203501N010819999999N9999999N1-00791-01251999999ADDMA1999999101021
0018994060999992010011306004+43967-068117FM-12+0016MDRM1V0203401N013419999999N9999999N1-00841-01311999999ADDMA1999999101011
0018994060999992010011307004+43967-068117FM-12+0016MDRM1V0203401N013419999999N9999999N1-00821-01271999999ADDMA1999999101031
0178994060999992010011308004+43967-068117FM-12+0016MDRM1V0203501N012919999999N9999999N1-00801-01261999999ADDMA1999999101041OA139901491REMSYN140CMAN  13084 MDRM1 46/// /3525 11080 21126 30104 90800 333 91229 555 11023 22025 30717 435033 60759 351026 352026 347026 346027 34015 210019;
0178994060999992010011309004+43967-068117FM-12+0016MDRM1V0203401N012919999999N9999999N1-00861-01271999999ADDMA1999999101051OA139901491REMSYN140CMAN  13094 MDRM1 46/// /3425 11086 21127 30105 90900 333 91229 555 11023 22024 30858 434029 60859 342024 343023 344024 342024 34016 242015;
0018994060999992010011310004+43967-068117FM-12+0016MDRM1V0203501N011819999999N9999999N1-00921-01371999999ADDMA1999999101131
0018994060999992010011311004+43967-068117FM-12+0016MDRM1V0203501N010319999999N9999999N1-00941-01411999999ADDMA1999999101211
0018994060999992010011312004+43967-068117FM-12+0016MDRM1V0203501N010819999999N9999999N1-00941-01411999999ADDMA1999999101261
0018994060999992010011313004+43967-068117FM-12+0016MDRM1V0203501N008719999999N9999999N1-00941-01441999999ADDMA1999999101341
0226994060999992010011314004+43967-068117FM-12+0016MDRM1V0203601N010319999999N9999999N1-00901-01391999999ADDMA1999999101371OA139901181REMSYN188CMAN  13144 MDRM1 46/// /3620 11090 21139 30137 91400 333 91223 555 11019 22020 31357 435025 61359 354020 355019 356017 350017 35020 223113 61349 294102 286106 294104 291102 289094 292094;
0214994060999992010011315004+43967-068117FM-12+0016MDRM1V0203401N009819999999N9999999N1-00871-01341999999ADDMA1999999101391OA139901131REMSYN176CMAN  13154 MDRM1 46/// /3419 11087 21134 30139 91500 333 91222 555 11018 22019 31442 434025 61459 340018 342020 343019 348018 34023 2236089 332089 333087 330093 338090 335093;
0018994060999992010011316004+43967-068117FM-12+0016MDRM1V0203401N009819999999N9999999N1-00831-01341999999ADDMA1999999101321
0238994060999992010011317004+43967-068117FM-12+0016MDRM1V0203301N008219999999N9999999N1-00771-01341999999ADDMA1999999101241OA139901031REMSYN200CMAN  13174 MDRM1 46/// /3316 11077 21134 30124 91700 333 91220 555 11015 22016 31624 433023 61659 331017 333016 331017 334018 33019 211511 61649 161080 157084 156085 159083 158077 156076 81609 91625;
0226994060999992010011318004+43967-068117FM-12+0016MDRM1V0203201N008219999999N9999999N1-00631-01281999999ADDMA1999999101191OA139901131REMSYN188CMAN  13184 MDRM1 46/// /3216 11063 21128 30119 91800 333 91222 555 11015 22016 31713 433022 61759 325018 325017 332018 328017 33020 213412 61749 335074 334079 339089 333092 333090 341091;
0018994060999992010011319004+43967-068117FM-12+0016MDRM1V0203201N008219999999N9999999N1-00541-01321999999ADDMA1999999101191
0178994060999992010011320004+43967-068117FM-12+0016MDRM1V0203301N009319999999N9999999N1-00441-01361999999ADDMA1999999101221OA139901031REMSYN140CMAN  13204 MDRM1 46/// /3318 11044 21136 30122 92000 333 91220 555 11016 22017 31913 433023 61959 332018 335017 334018 333018 32017 203011;
0018994060999992010011321004+43967-068117FM-12+0016MDRM1V0203301N008719999999N9999999N1-00401-01491999999ADDMA1999999101241
0018994060999992010011322004+43967-068117FM-12+0016MDRM1V0203401N011319999999N9999999N1-00371-01571999999ADDMA1999999101311
0018994060999992010011323004+43967-068117FM-12+0016MDRM1V0203401N009319999999N9999999N1-00371-01591999999ADDMA1999999101411
0018994060999992010011400004+43967-068117FM-12+0016MDRM1V0203401N008719999999N9999999N1-00391-01581999999ADDMA1999999101471
0018994060999992010011401004+43967-068117FM-12+0016MDRM1V0203601N009319999999N9999999N1-00421-01491999999ADDMA1999999101541
0018994060999992010011402004+43967-068117FM-12+0016MDRM1V0203601N008219999999N9999999N1-00451-01331999999ADDMA1999999101591
0178994060999992010011403004+43967-068117FM-12+0016MDRM1V0203601N008219999999N9999999N1-00471-01321999999ADDMA1999999101671OA139901031REMSYN140CMAN  14034 MDRM1 46/// /3616 11047 21132 30167 90300 333 91220 555 11015 22016 30242 436024 60259 006018 010019 008018 006018 00013 20////;
0018994060999992010011404004+43967-068117FM-12+0016MDRM1V0200201N010819999999N9999999N1-00491-01331999999ADDMA1999999101711
0018994060999992010011405004+43967-068117FM-12+0016MDRM1V0200101N008719999999N9999999N1-00541-01331999999ADDMA1999999101741
0178994060999992010011406004+43967-068117FM-12+0016MDRM1V0200101N010319999999N9999999N1-00561-01271999999ADDMA1999999101791OA139901341REMSYN140CMAN  14064 MDRM1 46/// /0120 11056 21127 30179 90600 333 91226 555 11018 22020 30559 401026 60559 012021 008020 007019 009019 01012 218005;
0178994060999992010011407004+43967-068117FM-12+0016MDRM1V0200101N009819999999N9999999N1-00611-01251999999ADDMA1999999101861OA139901131REMSYN140CMAN  14074 MDRM1 46/// /0119 11061 21125 30186 90700 333 91222 555 11018 22019 30607 402026 60659 014019 013019 012020 011020 01012 201004;
0018994060999992010011408004+43967-068117FM-12+0016MDRM1V0200201N009319999999N9999999N1-00631-01181999999ADDMA1999999101921
0018994060999992010011409004+43967-068117FM-12+0016MDRM1V0200201N008219999999N9999999N1-00631-01071999999ADDMA1999999101961
0018994060999992010011410004+43967-068117FM-12+0016MDRM1V0203501N006719999999N9999999N1-00671-01091999999ADDMA1999999102031
0018994060999992010011411004+43967-068117FM-12+0016MDRM1V0203601N005719999999N9999999N1-00671-01081999999ADDMA1999999102071
0178994060999992010011412004+43967-068117FM-12+0016MDRM1V0200101N005719999999N9999999N1-00641-01021999999ADDMA1999999102181OA139900771REMSYN140CMAN  14124 MDRM1 46/// /0111 11064 21102 30218 91200 333 91215 555 11010 22011 31154 401015 61159 011012 012012 012012 009012 00013 183013;
0018994060999992010011413004+43967-068117FM-12+0016MDRM1V0200201N007719999999N9999999N1-00601-00991999999ADDMA1999999102231
0018994060999992010011414004+43967-068117FM-12+0016MDRM1V0200201N005719999999N9999999N1-00621-01011999999ADDMA1999999102271
0018994060999992010011415004+43967-068117FM-12+0016MDRM1V0200101N005119999999N9999999N1-00571-00951999999ADDMA1999999102321
0018994060999992010011416004+43967-068117FM-12+0016MDRM1V0203501N003619999999N9999999N1-00541-01031999999ADDMA1999999102301
0226994060999992010011417004+43967-068117FM-12+0016MDRM1V0200201N003119999999N9999999N1-00471-00911999999ADDMA1999999102201OA139900311REMSYN188CMAN  14174 MDRM1 46/// /0206 11047 21091 30220 91700 333 91206 555 11005 22006 31606 436010 61659 015005 014005 018005 015006 01017 200111 61649 011062 018082 013082 003074 000075 001074;
0018994060999992010011418004+43967-068117FM-12+0016MDRM1V0203301N002119999999N9999999N1-00371-00991999999ADDMA1999999102181
0178994060999992010011419004+43967-068117FM-12+0016MDRM1V0202701N003119999999N9999999N1-00371-01101999999ADDMA1999999102201OA139900411REMSYN140CMAN  14194 MDRM1 46/// /2706 11037 21110 30220 91900 333 91208 555 11006 22006 31846 429009 61859 267006 281006 289004 291003 31017 189003;
0018994060999992010011420004+43967-068117FM-12+0016MDRM1V0202801N003619999999N9999999N1-00331-01161999999ADDMA1999999102211
0018994060999992010011421004+43967-068117FM-12+0016MDRM1V0202601N004119999999N9999999N1-00271-01171999999ADDMA1999999102171
0018994060999992010011422004+43967-068117FM-12+0016MDRM1V0202301N004119999999N9999999N1-00221-00941999999ADDMA1999999102141
0243994060999992010011423004+43967-068117FM-12+0016MDRM1V0202301N005719999999N9999999N1-00171-01041999999ADDMA1999999102111OA139900671REMSYN205CMAN  14234 MDRM1 46/// /2311 11017 21104 30211 92300 333 91213 555 11010 22011 32242 422015 62259 229011 221011 219010 226009 23018 20246 40213 62249 025108 030103 030097 032101 028098 032103 80312 92242;
0018994060999992010011500004+43967-068117FM-12+0016MDRM1V0202201N006719999999N9999999N1-00101-00861999999ADDMA1999999102081
0018994060999992010011501004+43967-068117FM-12+0016MDRM1V0202201N008219999999N9999999N1-00041-00561999999ADDMA1999999102011
0018994060999992010011502004+43967-068117FM-12+0016MDRM1V0202201N010819999999N9999999N1+00011-00411999999ADDMA1999999101951
0198994060999992010011503004+43967-068117FM-12+0016MDRM1V0202301N011819999999N9999999N1+00121-00301999999ADDMA1999999101881OA139901341REMSYN160CMAN  15034 MDRM1 46/// /2323 10012 21030 30188 90300 333 91226 555 11022 22023 30241 422029 60259 222023 221023 219024 219022 21014 21B30 TEMPO 1412/1512 SHRA;
0018994060999992010011504004+43967-068117FM-12+0016MDRM1V0202201N013419999999N9999999N1+00221-00201999999ADDMA1999999101761
0179994060999992010011505004+43967-068117FM-12+0016MDRM1V0202201N013919999999N9999999N1+00271-00171999999ADDMA1999999101651OA139901491REMSYN141CMAN  15054 MDRM1 46/// /2227 10027 21017 30165 90500 333 91229 555 11025 22026 30411 422031 60459 223025 226025 225026 225025 22013 22/////;
0178994060999992010011506004+43967-068117FM-12+0016MDRM1V0202301N014419999999N9999999N1+00331-00121999999ADDMA1999999101581OA139901541REMSYN140CMAN  15064 MDRM1 46/// /2328 10033 21012 30158 90600 333 91230 555 11026 22027 30532 423031 60559 230027 231027 231027 224027 22 ICE /////;
0018994060999992010011507004+43967-068117FM-12+0016MDRM1V0202301N013919999999N9999999N1+00331-00081999999ADDMA1999999101531
0178994060999992010011508004+43967-068117FM-12+0016MDRM1V0202301N014419999999N9999999N1+00391+00001999999ADDMA1999999101461OA139901601REMSYN140CMAN  15084 MDRM1 46/// /2328 10039 20000 30146 90800 333 91231 555 11026 22027 30736 424033 60759 236027 234028 235029 235028 23009 238010;
0178994060999992010011509004+43967-068117FM-12+0016MDRM1V0202401N012919999999N9999999N1+00451+00181999999ADDMA1999999101381OA139901601REMSYN140CMAN  15094 MDRM1 46/// /2425 10045 20018 30138 90900 333 91231 555 11023 22025 30819 424031 60859 242025 239025 238026 234027 23009 252006;
0018994060999992010011510004+43967-068117FM-12+0016MDRM1V0202401N013419999999N9999999N1+00461+00181999999ADDMA1999999101261
0018994060999992010011511004+43967-068117FM-12+0016MDRM1V0202301N013419999999N9999999N1+00471+00191999999ADDMA1999999101211
0018994060999992010011512004+43967-068117FM-12+0016MDRM1V0202401N011319999999N9999999N1+00471+00221999999ADDMA1999999101221
0018994060999992010011513004+43967-068117FM-12+0016MDRM1V0202401N012319999999N9999999N1+00501+00201999999ADDMA1999999101211
0018994060999992010011514004+43967-068117FM-12+0016MDRM1V0202401N010319999999N9999999N1+00511+00221999999ADDMA1999999101191
0018994060999992010011515004+43967-068117FM-12+0016MDRM1V0202501N010319999999N9999999N1+00501+00201999999ADDMA1999999101201
0018994060999992010011516004+43967-068117FM-12+0016MDRM1V0202601N009319999999N9999999N1+00481+00191999999ADDMA1999999101131
0018994060999992010011517004+43967-068117FM-12+0016MDRM1V0202701N009319999999N9999999N1+00431+00071999999ADDMA1999999101041
0226994060999992010011518004+43967-068117FM-12+0016MDRM1V0202801N007719999999N9999999N1+00391+00051999999ADDMA1999999100981OA139900821REMSYN188CMAN  15184 MDRM1 46/// /2815 10039 20005 30098 91800 333 91216 555 11014 22014 31702 427021 61759 274015 287013 278015 280017 27005 291408 61749 134047 143055 143059 144058 145060 142054;
0018994060999992010011519004+43967-068117FM-12+0016MDRM1V0202701N006719999999N9999999N1+00371+00051999999ADDMA1999999101001
0018994060999992010011520004+43967-068117FM-12+0016MDRM1V0202801N006219999999N9999999N1+00391+00051999999ADDMA1999999101051
0181994060999992010011521004+43967-068117FM-12+0016MDRM1V0202801N006219999999N9999999N1+00421+00061999999ADDMA1999999101081OA139900721REMSYN143CMAN  15214 MDRM1 46/// /2812 10042 20006 30108 92100 333 91214 555 11012 22012 32057 429014 62059 284012 285012 282010 279011 28/// ICE 22//0;
0178994060999992010011522004+43967-068117FM-12+0016MDRM1V0202801N007719999999N9999999N1+00451+00031999999ADDMA1999999101151OA139900821REMSYN140CMAN  15224 MDRM1 46/// /2815 10045 20003 30115 92200 333 91216 555 11014 22015 32149 429017 62159 281015 285015 285014 287014 28003 213017;
0018994060999992010011523004+43967-068117FM-12+0016MDRM1V0203001N007719999999N9999999N1+00511+00101999999ADDMA1999999101171
0018994060999992010011600004+43967-068117FM-12+0016MDRM1V0202801N007719999999N9999999N1+00521+00091999999ADDMA1999999101181
0018994060999992010011601004+43967-068117FM-12+0016MDRM1V0202901N008719999999N9999999N1+00521+00081999999ADDMA1999999101261
0018994060999992010011602004+43967-068117FM-12+0016MDRM1V0203101N009319999999N9999999N1+00511+00051999999ADDMA1999999101291
0018994060999992010011603004+43967-068117FM-12+0016MDRM1V0203101N007219999999N9999999N1+00471-00041999999ADDMA1999999101351
0018994060999992010011604004+43967-068117FM-12+0016MDRM1V0203101N008719999999N9999999N1+00451-00081999999ADDMA1999999101381
0178994060999992010011605004+43967-068117FM-12+0016MDRM1V0203101N007219999999N9999999N1+00441-00081999999ADDMA1999999101401OA139900821REMSYN140CMAN  16054 MDRM1 46/// /3114 10044 21008 30140 90500 333 91216 555 11013 22014 30413 432022 60459 309015 315018 311017 313018 31010 217023;
0018994060999992010011606004+43967-068117FM-12+0016MDRM1V0202901N008219999999N9999999N1+00431-00061999999ADDMA1999999101411
0018994060999992010011607004+43967-068117FM-12+0016MDRM1V0202901N008219999999N9999999N1+00411-00061999999ADDMA1999999101421
0179994060999992010011608004+43967-068117FM-12+0016MDRM1V0203001N007719999999N9999999N1+00381-00051999999ADDMA1999999101411OA139900881REMSYN141CMAN  16084 MDRM1 46/// /3015 10038 21005 30141 90800 333 91217 555 11014 22015 30701 429019 60759 292016 294016 292015 294015 29010 25/////;
0178994060999992010011609004+43967-068117FM-12+0016MDRM1V0203001N006719999999N9999999N1+00391-00071999999ADDMA1999999101331OA139900771REMSYN140CMAN  16094 MDRM1 46/// /3013 10039 21007 30133 90900 333 91215 555 11013 22013 30811 429017 60859 300013 301013 302013 300013 28008 061028;
0018994060999992010011610004+43967-068117FM-12+0016MDRM1V0202701N008219999999N9999999N1+00371-00061999999ADDMA1999999101311
0018994060999992010011611004+43967-068117FM-12+0016MDRM1V0202801N008719999999N9999999N1+00381-00121999999ADDMA1999999101351
0018994060999992010011612004+43967-068117FM-12+0016MDRM1V0202601N008719999999N9999999N1+00401+00001999999ADDMA1999999101321
0018994060999992010011613004+43967-068117FM-12+0016MDRM1V0202601N010319999999N9999999N1+00421+00041999999ADDMA1999999101291
0018994060999992010011614004+43967-068117FM-12+0016MDRM1V0202401N009319999999N9999999N1+00411-00011999999ADDMA1999999101271
0018994060999992010011615004+43967-068117FM-12+0016MDRM1V0202701N010319999999N9999999N1+00401-00011999999ADDMA1999999101331
0018994060999992010011616004+43967-068117FM-12+0016MDRM1V0202601N010319999999N9999999N1+00401+00011999999ADDMA1999999101241
0018994060999992010011617004+43967-068117FM-12+0016MDRM1V0202701N008719999999N9999999N1+00411+00051999999ADDMA1999999101231
0178994060999992010011618004+43967-068117FM-12+0016MDRM1V0202801N007719999999N9999999N1+00401+00081999999ADDMA1999999101141OA139900821REMSYN140CMAN  16184 MDRM1 46/// /2815 10040 20008 30114 91800 333 91216 555 11014 22015 31700 427020 61759 275014 274014 270015 271015 26 ICE /////;
0018994060999992010011619004+43967-068117FM-12+0016MDRM1V0203001N006219999999N9999999N1+00401-00041999999ADDMA1999999101121
0178994060999992010011620004+43967-068117FM-12+0016MDRM1V0202901N004619999999N9999999N1+00431-00051999999ADDMA1999999101161OA139900511REMSYN140CMAN  16204 MDRM1 46/// /2909 10043 21005 30116 92000 333 91210 555 11008 22009 31920 430013 61959 283009 288009 291010 298011 29010 207017;
0178994060999992010011621004+43967-068117FM-12+0016MDRM1V0202801N005119999999N9999999N1+00441-00061999999ADDMA1999999101231OA139900571REMSYN140CMAN  16214 MDRM1 46/// /2810 10044 21006 30123 92100 333 91211 555 11009 22010 32041 428014 62059 281009 287010 287011 286011 28009 208017;
0018994060999992010011622004+43967-068117FM-12+0016MDRM1V0202801N006219999999N9999999N1+00461-00081999999ADDMA1999999101271
0179994060999992010011623004+43967-068117FM-12+0016MDRM1V0203001N008719999999N9999999N1+00511-00051999999ADDMA1999999101331OA139900931REMSYN141CMAN  16234 MDRM1 46/// /3017 10051 21005 30133 92300 333 91218 555 11016 22017 32255 430019 62259 298016 292016 281014 283013 28011 19/////;
0018994060999992010011700004+43967-068117FM-12+0016MDRM1V0203101N009319999999N9999999N1+00481-00031999999ADDMA1999999101401
0255994060999992010011701004+43967-068117FM-12+0016MDRM1V0203001N009819999999N9999999N1+00441-00111999999ADDMA1999999101471OA139901081REMSYN217CMAN  17014 MDRM1 46/// /3019 10044 21011 30147 90100 333 91221 555 11018 22019 30046 430022 60059 301019 303020 305019 310018 31012 19107 22113 30021 40613 60049 069101 071099 070106 070100 073100 075102 80711 90023;
0018994060999992010011702004+43967-068117FM-12+0016MDRM1V0203101N009819999999N9999999N1+00441-00121999999ADDMA1999999101481
0018994060999992010011703004+43967-068117FM-12+0016MDRM1V0203001N008719999999N9999999N1+00431-00091999999ADDMA1999999101541
0179994060999992010011704004+43967-068117FM-12+0016MDRM1V0203001N008719999999N9999999N1+00421-00081999999ADDMA1999999101561OA139900981REMSYN141CMAN  17044 MDRM1 46/// /3017 10042 21008 30156 90400 333 91219 555 11016 22017 30340 430021 60359 305017 306018 303018 301018 290 ICE /////;
0178994060999992010011705004+43967-068117FM-12+0016MDRM1V0203101N008719999999N9999999N1+00401-00121999999ADDMA1999999101561OA139901031REMSYN140CMAN  17054 MDRM1 46/// /3117 10040 21012 30156 90500 333 91220 555 11016 22017 30440 431020 60459 304018 306018 307017 307017 30010 198018;
0018994060999992010011706004+43967-068117FM-12+0016MDRM1V0203001N008719999999N9999999N1+00411-00101999999ADDMA1999999101611
0018994060999992010011707004+43967-068117FM-12+0016MDRM1V0203201N008219999999N9999999N1+00401-00111999999ADDMA1999999101671
0018994060999992010011708004+43967-068117FM-12+0016MDRM1V0200301N011319999999N9999999N1+00191-00131999999ADDMA1999999101721
0018994060999992010011709004+43967-068117FM-12+0016MDRM1V0200301N010319999999N9999999N1+00111-00361999999ADDMA1999999101861
0178994060999992010011710004+43967-068117FM-12+0016MDRM1V0200401N010319999999N9999999N1-00011-00671999999ADDMA1999999101971OA139901131REMSYN140CMAN  17104 MDRM1 46/// /0420 11001 21067 30197 91000 333 91222 555 11019 22020 30955 403025 60959 034021 030020 035021 026020 03011 194008;
0178994060999992010011711004+43967-068117FM-12+0016MDRM1V0200201N010319999999N9999999N1-00181-01001999999ADDMA1999999102071OA139901081REMSYN140CMAN  17114 MDRM1 46/// /0220 11018 21100 30207 91100 333 91221 555 11018 22019 31054 404026 61059 028020 036019 040021 041020 04001 265016;
0018994060999992010011712004+43967-068117FM-12+0016MDRM1V0200301N010819999999N9999999N1-00281-01021999999ADDMA1999999102061
0179994060999992010011713004+43967-068117FM-12+0016MDRM1V0200401N012319999999N9999999N1-00381-01081999999ADDMA1999999102071OA139901391REMSYN141CMAN  17134 MDRM1 46/// /0424 11038 21108 30207 91300 333 91227 555 11023 22024 31258 403027 61259 034024 035024 032022 030021 03005 1296277;
0179994060999992010011714004+43967-068117FM-12+0016MDRM1V0200401N011319999999N9999999N1-00441-00971999999ADDMA1999999102121OA139901241REMSYN141CMAN  17144 MDRM1 46/// /0422 11044 21097 30212 91400 333 91224 555 11020 22022 31317 403028 61359 039022 042022 033022 032022 03004 0896467;
0178994060999992010011715004+43967-068117FM-12+0016MDRM1V0200701N006719999999N9999999N1-00431-01151999999ADDMA1999999102281OA139900771REMSYN140CMAN  17154 MDRM1 46/// /0713 11043 21115 30228 91500 333 91215 555 11013 22013 31413 404025 61459 062012 052013 037015 048016 04005 106017;
0018994060999992010011716004+43967-068117FM-12+0016MDRM1V0200601N006719999999N9999999N1-00441-01021999999ADDMA1999999102221
0172994060999992010011717004+43967-068117FM-12+0016MDRM1V0200601N005119999999N9999999N1-00421-01011999999ADDMA1999999102121OA139900571REMSYN134CMAN  17174 MDRM1 46/// /0610 11042 21101 30212 91700 333 91211 555 11009 22010 31604 404016 61659 057011 058010 062010 057010 064006;
0018994060999992010011718004+43967-068117FM-12+0016MDRM1V0200801N004119999999N9999999N1-00361-00991999999ADDMA1999999102021
0178994060999992010011719004+43967-068117FM-12+0016MDRM1V0200701N005119999999N9999999N1-00311-00851999999ADDMA1999999101981OA139900671REMSYN140CMAN  17194 MDRM1 46/// /0710 11031 21085 30198 91900 333 91213 555 11010 22010 31834 407015 61859 075010 071010 068011 072010 06002 161004;
0018994060999992010011720004+43967-068117FM-12+0016MDRM1V0200801N004119999999N9999999N1-00241-00741999999ADDMA1999999102061
0018994060999992010011721004+43967-068117FM-12+0016MDRM1V0200901N004619999999N9999999N1-00211-00701999999ADDMA1999999102041
0018994060999992010011722004+43967-068117FM-12+0016MDRM1V0200901N004619999999N9999999N1-00151-00621999999ADDMA1999999102011
0018994060999992010011723004+43967-068117FM-12+0016MDRM1V0201001N006219999999N9999999N1-00131-00641999999ADDMA1999999101971
0018994060999992010011800004+43967-068117FM-12+0016MDRM1V0201101N008219999999N9999999N1-00071-00501999999ADDMA1999999101861
0018994060999992010011801004+43967-068117FM-12+0016MDRM1V0201001N008719999999N9999999N1-00051-00481999999ADDMA1999999101781
0018994060999992010011802004+43967-068117FM-12+0016MDRM1V0201001N010319999999N9999999N1+00001-00431999999ADDMA1999999101681
0178994060999992010011803004+43967-068117FM-12+0016MDRM1V0201101N010319999999N9999999N1+00041-00391999999ADDMA1999999101591OA139901131REMSYN140CMAN  18034 MDRM1 46/// /1120 10004 21039 30159 90300 333 91222 555 11019 22020 30253 411024 60259 106020 105020 104020 106020 10005 220015;
0178994060999992010011804004+43967-068117FM-12+0016MDRM1V0201101N010819999999N9999999N1+00091-00441999999ADDMA1999999101511OA139901181REMSYN140CMAN  18044 MDRM1 46/// /1121 10009 21044 30151 90400 333 91223 555 11019 22021 30333 410024 60359 109020 105021 104020 103019 10007 25////;
0018994060999992010011805004+43967-068117FM-12+0016MDRM1V0201101N011319999999N9999999N1+00121-00481999999ADDMA1999999101431
0179994060999992010011806004+43967-068117FM-12+0016MDRM1V0201001N012319999999N9999999N1+00141-00421999999ADDMA1999999101281OA139901391REMSYN141CMAN  18064 MDRM1 46/// /1024 10014 21042 30128 90600 333 91227 555 11022 22023 30556 410027 60559 102023 105023 109023 105023 1187358 92436;
0018994060999992010011807004+43967-068117FM-12+0016MDRM1V0200901N011819999999N9999999N1+00051-00401999999ADDMA1999999101161
0018994060999992010011808004+43967-068117FM-12+0016MDRM1V0200901N013419999999N9999999N1-00021-00141999999ADDMA1999999101051
0018994060999992010011809004+43967-068117FM-12+0016MDRM1V0200801N013919999999N9999999N1+00001-00061999999ADDMA1999999100861
0018994060999992010011810004+43967-068117FM-12+0016MDRM1V0200801N014919999999N9999999N1+00031+00001999999ADDMA1999999100761
0018994060999992010011811004+43967-068117FM-12+0016MDRM1V0200801N015419999999N9999999N1+00041+00031999999ADDMA1999999100651
0018994060999992010011812004+43967-068117FM-12+0016MDRM1V0200801N015919999999N9999999N1+00021+00001999999ADDMA1999999100621
0018994060999992010011813004+43967-068117FM-12+0016MDRM1V0200801N015919999999N9999999N1+00001+00001999999ADDMA1999999100641
0018994060999992010011814004+43967-068117FM-12+0016MDRM1V0200601N017519999999N9999999N1+00001+00001999999ADDMA1999999100591
0018994060999992010011815004+43967-068117FM-12+0016MDRM1V0200601N018519999999N9999999N1-00011-00021999999ADDMA1999999100581
0018994060999992010011816004+43967-068117FM-12+0016MDRM1V0200701N018019999999N9999999N1-00011-00021999999ADDMA1999999100551
0179994060999992010011817004+43967-068117FM-12+0016MDRM1V0200601N018019999999N9999999N1-00031-00041999999ADDMA1999999100521OA139902011REMSYN141CMAN  18174 MDRM1 46/// /0635 11003 21004 30052 91700 333 91239 555 11033 22035 31645 406041 61659 062035 059035 066034 068033 06010 26/////;
0178994060999992010011818004+43967-068117FM-12+0016MDRM1V0200601N017019999999N9999999N1-00031-00041999999ADDMA1999999100481OA139901901REMSYN140CMAN  18184 MDRM1 46/// /0633 11003 21004 30048 91800 333 91237 555 11031 22033 31719 407041 61759 057034 060033 065034 063033 06 ICE /////;
0018994060999992010011819004+43967-068117FM-12+0016MDRM1V0200501N016419999999N9999999N1-00021-00031999999ADDMA1999999100481
0179994060999992010011820004+43967-068117FM-12+0016MDRM1V0200501N019019999999N9999999N1-00021-00031999999ADDMA1999999100491OA139902061REMSYN141CMAN  18204 MDRM1 46/// /0537 11002 21003 30049 92000 333 91240 555 11034 22036 31938 405040 61959 047034 052034 054036 053035 05007 26/////;
0018994060999992010011821004+43967-068117FM-12+0016MDRM1V0200401N016419999999N9999999N1-00021-00031999999ADDMA1999999100621
0018994060999992010011822004+43967-068117FM-12+0016MDRM1V0200201N013919999999N9999999N1-00031-00041999999ADDMA1999999100721
0018994060999992010011823004+43967-068117FM-12+0016MDRM1V0200301N013419999999N9999999N1-00091-00101999999ADDMA1999999100771
0174994060999992010011900004+43967-068117FM-12+0016MDRM1V0200301N011819999999N9999999N1-00021-00031999999ADDMA1999999100851OA139901291REMSYN136CMAN  19004 MDRM1 46/// /0323 11002 21003 30085 90000 333 91225 555 11021 22022 32334 404030 62359 031022 039024 043025 039024 03004 26;
0018994060999992010011901004+43967-068117FM-12+0016MDRM1V0200501N011319999999N9999999N1+00001+00001999999ADDMA1999999100891
0018994060999992010011902004+43967-068117FM-12+0016MDRM1V0200301N011319999999N9999999N1+00001-00051999999ADDMA1999999100991
0179994060999992010011903004+43967-068117FM-12+0016MDRM1V0200101N009819999999N9999999N1-00191-00531999999ADDMA1999999101111OA139901081REMSYN141CMAN  19034 MDRM1 46/// /0119 11019 21053 30111 90300 333 91221 555 11018 22019 30203 401023 60259 009019 005019 008019 006019 00005 24/////;
0018994060999992010011904004+43967-068117FM-12+0016MDRM1V0200301N009819999999N9999999N1-00171-00511999999ADDMA1999999101091
0178994060999992010011905004+43967-068117FM-12+0016MDRM1V0200201N009319999999N9999999N1-00101-00401999999ADDMA1999999101111OA139901031REMSYN140CMAN  19054 MDRM1 46/// /0218 11010 21040 30111 90500 333 91220 555 11016 22017 30437 402024 60459 031018 027019 023020 024019 02007 282025;
0178994060999992010011906004+43967-068117FM-12+0016MDRM1V0200301N009319999999N9999999N1-00101-00351999999ADDMA1999999101151OA139900981REMSYN140CMAN  19064 MDRM1 46/// /0318 11010 21035 30115 90600 333 91219 555 11016 22017 30527 403022 60559 031017 036018 027017 026018 02000 004016;
0018994060999992010011907004+43967-068117FM-12+0016MDRM1V0200201N007719999999N9999999N1-00111-00361999999ADDMA1999999101251
0018994060999992010011908004+43967-068117FM-12+0016MDRM1V0200401N007719999999N9999999N1-00101-00291999999ADDMA1999999101231
0018994060999992010011909004+43967-068117FM-12+0016MDRM1V0200401N007219999999N9999999N1-00071-00261999999ADDMA1999999101241
0018994060999992010011910004+43967-068117FM-12+0016MDRM1V0200401N005119999999N9999999N1-00041-00201999999ADDMA1999999101311
0018994060999992010011911004+43967-068117FM-12+0016MDRM1V0200401N004619999999N9999999N1-00021-00211999999ADDMA1999999101321
0018994060999992010011912004+43967-068117FM-12+0016MDRM1V0200601N006219999999N9999999N1+00031-00131999999ADDMA1999999101331
0181994060999992010011913004+43967-068117FM-12+0016MDRM1V0200601N006219999999N9999999N1+00111-00031999999ADDMA1999999101341OA139900721REMSYN143CMAN  19134 MDRM1 46/// /0612 10011 21003 30134 91300 333 91214 555 11012 22012 31253 407014 61259 065012 073012 069011 068010 07006 25E /////;
0018994060999992010011914004+43967-068117FM-12+0016MDRM1V0200901N005719999999N9999999N1+00161-00031999999ADDMA1999999101361
0018994060999992010011915004+43967-068117FM-12+0016MDRM1V0201101N005719999999N9999999N1+00201-00021999999ADDMA1999999101351
0178994060999992010011916004+43967-068117FM-12+0016MDRM1V0201301N006219999999N9999999N1+00201-00011999999ADDMA1999999101311OA139900721REMSYN140CMAN  19164 MDRM1 46/// /1312 10020 21001 30131 91600 333 91214 555 11011 22012 31517 410015 61559 121012 118012 111012 105012 10009 255012;
0018994060999992010011917004+43967-068117FM-12+0016MDRM1V0201401N005719999999N9999999N1+00181+00051999999ADDMA1999999101291
0018994060999992010011918004+43967-068117FM-12+0016MDRM1V0201401N005119999999N9999999N1+00141+00091999999ADDMA1999999101241
0018994060999992010011919004+43967-068117FM-12+0016MDRM1V0201501N006219999999N9999999N1+00121+00091999999ADDMA1999999101251
0018994060999992010011920004+43967-068117FM-12+0016MDRM1V0201601N006719999999N9999999N1+00151+00121999999ADDMA1999999101251
0178994060999992010011921004+43967-068117FM-12+0016MDRM1V0201501N007719999999N9999999N1+00151+00131999999ADDMA1999999101241OA139900821REMSYN140CMAN  19214 MDRM1 46/// /1515 10015 20013 30124 92100 333 91216 555 11014 22014 32057 415017 62059 153014 154014 154014 155013 15008 278016;
0018994060999992010011922004+43967-068117FM-12+0016MDRM1V0201401N009319999999N9999999N1+00161+00121999999ADDMA1999999101191
0018994060999992010011923004+43967-068117FM-12+0016MDRM1V0201301N009819999999N9999999N1+00201+00131999999ADDMA1999999101161
0178994060999992010012000004+43967-068117FM-12+0016MDRM1V0201401N009319999999N9999999N1+00211+00161999999ADDMA1999999101171OA139901031REMSYN140CMAN  20004 MDRM1 46/// /1418 10021 20016 30117 90000 333 91220 555 11017 22018 32322 413021 62359 133018 133019 133019 132019 13007 24////;
0232994060999992010012001004+43967-068117FM-12+0016MDRM1V0201401N010319999999N9999999N1+00221+00161999999ADDMA1999999101111OA139901131REMSYN194CMAN  20014 MDRM1 46/// /1420 10022 20016 30111 90100 333 91222 555 11019 22020 30057 413022 60059 134020 134019 132019 132019 132046 30034 43206 60049 322043 318042 319039 322040 321041 319041;
0178994060999992010012002004+43967-068117FM-12+0016MDRM1V0201301N011819999999N9999999N1+00211+00161999999ADDMA1999999101061OA139901291REMSYN140CMAN  20024 MDRM1 46/// /1323 10021 20016 30106 90200 333 91225 555 11021 22022 30159 413025 60159 128021 131020 133020 134020 13008 317019;
0255994060999992010012003004+43967-068117FM-12+0016MDRM1V0201301N012919999999N9999999N1+00201+00141999999ADDMA1999999100991OA139901341REMSYN217CMAN  20034 MDRM1 46/// /1325 10020 20014 30099 90300 333 91226 555 11023 22025 30239 413027 60259 126024 128023 128023 125023 12005 34010 22010 30239 40502 60249 026010 046010 065007 057004 100005 130007 80301 90249;
0178994060999992010012004004+43967-068117FM-12+0016MDRM1V0201301N012319999999N9999999N1+00221+00151999999ADDMA1999999100961OA139901341REMSYN140CMAN  20044 MDRM1 46/// /1324 10022 20015 30096 90400 333 91226 555 11022 22024 30339 413028 60359 128025 128024 127024 128024 13006 310020;
0178994060999992010012005004+43967-068117FM-12+0016MDRM1V0201201N012319999999N9999999N1+00181+00141999999ADDMA1999999100861OA139901291REMSYN140CMAN  20054 MDRM1 46/// /1224 10018 20014 30086 90500 333 91225 555 11022 22024 30403 413028 60459 126024 127025 129024 129024 13009 351008;
0178994060999992010012006004+43967-068117FM-12+0016MDRM1V0201201N012319999999N9999999N1+00191+00131999999ADDMA1999999100791OA139901291REMSYN140CMAN  20064 MDRM1 46/// /1224 10019 20013 30079 90600 333 91225 555 11023 22024 30507 413027 60559 116023 116022 121022 120022 12007 350005;
0018994060999992010012007004+43967-068117FM-12+0016MDRM1V0201101N009819999999N9999999N1+00161+00131999999ADDMA1999999100791
0018994060999992010012008004+43967-068117FM-12+0016MDRM1V0201001N010319999999N9999999N1+00161+00131999999ADDMA1999999100701
0178994060999992010012009004+43967-068117FM-12+0016MDRM1V0200901N009819999999N9999999N1+00191+00161999999ADDMA1999999100641OA139901131REMSYN140CMAN  20094 MDRM1 46/// /0919 10019 20016 30064 90900 333 91222 555 11018 22019 30808 410023 60859 095019 095020 096020 094020 09012 002011;
0018994060999992010012010004+43967-068117FM-12+0016MDRM1V0201001N010819999999N9999999N1+00191+00141999999ADDMA1999999100561
0018994060999992010012011004+43967-068117FM-12+0016MDRM1V0200701N011319999999N9999999N1+00171+00151999999ADDMA1999999100521
0018994060999992010012012004+43967-068117FM-12+0016MDRM1V0200601N012919999999N9999999N1+00161+00141999999ADDMA1999999100461
0018994060999992010012013004+43967-068117FM-12+0016MDRM1V0200501N015419999999N9999999N1+00171+00141999999ADDMA1999999100431
0018994060999992010012014004+43967-068117FM-12+0016MDRM1V0200501N015419999999N9999999N1+00191+00151999999ADDMA1999999100431
0183994060999992010012015004+43967-068117FM-12+0016MDRM1V0200401N015919999999N9999999N1+00201+00141999999ADDMA1999999100421OA139901801REMSYN145CMAN  20154 MDRM1 46/// /0431 10020 20014 30042 91500 333 91235 555 11029 22031 31444 404035 61459 041031 042030 043029 045029 04007 3415 BKN036;
0018994060999992010012016004+43967-068117FM-12+0016MDRM1V0200201N014419999999N9999999N1+00191+00131999999ADDMA1999999100381
0018994060999992010012017004+43967-068117FM-12+0016MDRM1V0200101N014419999999N9999999N1+00081+00051999999ADDMA1999999100341
0018994060999992010012018004+43967-068117FM-12+0016MDRM1V0200101N013919999999N9999999N1+00061+00021999999ADDMA1999999100311
0178994060999992010012019004+43967-068117FM-12+0016MDRM1V0200101N014419999999N9999999N1+00071+00011999999ADDMA1999999100321OA139901601REMSYN140CMAN  20194 MDRM1 46/// /0128 10007 20001 30032 91900 333 91231 555 11026 22028 31859 401031 61859 011028 010027 009025 009026 01009 049013;
0178994060999992010012020004+43967-068117FM-12+0016MDRM1V0203601N011819999999N9999999N1+00081-00051999999ADDMA1999999100421OA139901391REMSYN140CMAN  20204 MDRM1 46/// /3623 10008 21005 30042 92000 333 91227 555 11021 22023 31904 401031 61959 004025 005025 009026 008026 00009 027000;
0018994060999992010012021004+43967-068117FM-12+0016MDRM1V0200101N013919999999N9999999N1+00061-00031999999ADDMA1999999100471
0018994060999992010012022004+43967-068117FM-12+0016MDRM1V0203601N013419999999N9999999N1+00001-00081999999ADDMA1999999100531
0018994060999992010012023004+43967-068117FM-12+0016MDRM1V0203601N014419999999N9999999N1-00021-00101999999ADDMA1999999100601
0174994060999992010012100004+43967-068117FM-12+0016MDRM1V0203601N014419999999N9999999N1-00011-00171999999ADDMA1999999100661OA139901541REMSYN136CMAN  21004 MDRM1 46/// /3628 11001 21017 30066 90000 333 91230 555 11026 22028 32356 401032 62359 004028 004027 003028 004028 00010 05;
0178994060999992010012101004+43967-068117FM-12+0016MDRM1V0203601N015919999999N9999999N1-00041-00181999999ADDMA1999999100731OA139901751REMSYN140CMAN  21014 MDRM1 46/// /3631 11004 21018 30073 90100 333 91234 555 11028 22030 30057 436035 60059 003030 002030 002029 003030 00008 057010;
0179994060999992010012102004+43967-068117FM-12+0016MDRM1V0200101N015419999999N9999999N1-00031-00231999999ADDMA1999999100811OA139901751REMSYN141CMAN  21024 MDRM1 46/// /0130 11003 21023 30081 90200 333 91234 555 11028 22030 30135 401036 60159 005031 003031 005030 004030 00011 04/////;
0184994060999992010012103004+43967-068117FM-12+0016MDRM1V0203601N014419999999N9999999N1-00041-00221999999ADDMA1999999100881OA139901651REMSYN146CMAN  21034 MDRM1 46/// /3628 11004 21022 30088 90300 333 91232 555 11026 22028 30250 436035 60259 000029 000028 002028 006029 00010 0514 11014KT;
0018994060999992010012104004+43967-068117FM-12+0016MDRM1V0203601N015419999999N9999999N1-00041-00321999999ADDMA1999999100901
0018994060999992010012105004+43967-068117FM-12+0016MDRM1V0203601N013419999999N9999999N1-00031-00271999999ADDMA1999999100951
0178994060999992010012106004+43967-068117FM-12+0016MDRM1V0203601N011319999999N9999999N1-00061-00321999999ADDMA1999999101031OA139901341REMSYN140CMAN  21064 MDRM1 46/// /3622 11006 21032 30103 90600 333 91226 555 11021 22022 30520 436033 60559 357024 355024 356025 357027 00007 054013;
0178994060999992010012107004+43967-068117FM-12+0016MDRM1V0203601N012319999999N9999999N1-00081-00331999999ADDMA1999999101141OA139901391REMSYN140CMAN  21074 MDRM1 46/// /3624 11008 21033 30114 90700 333 91227 555 11022 22024 30614 435030 60659 352024 355025 354024 354023 35008 042004;
0018994060999992010012108004+43967-068117FM-12+0016MDRM1V0203501N013419999999N9999999N1-00091-00361999999ADDMA1999999101201
0018994060999992010012109004+43967-068117FM-12+0016MDRM1V0203401N011819999999N9999999N1-00091-00341999999ADDMA1999999101251
0226994060999992010012110004+43967-068117FM-12+0016MDRM1V0203401N013419999999N9999999N1-00141-00361999999ADDMA1999999101291OA139901491REMSYN188CMAN  21104 MDRM1 46/// /3426 11014 21036 30129 91000 333 91229 555 11024 22026 30959 434029 60959 342025 338024 335024 335024 33016 050915 60949 084116 087114 089119 085119 087114 086117;
0018994060999992010012111004+43967-068117FM-12+0016MDRM1V0203401N012319999999N9999999N1-00201-00411999999ADDMA1999999101391
0018994060999992010012112004+43967-068117FM-12+0016MDRM1V0203401N013419999999N9999999N1-00171-00411999999ADDMA1999999101451
0018994060999992010012113004+43967-068117FM-12+0016MDRM1V0203501N012319999999N9999999N1-00171-00451999999ADDMA1999999101521
0018994060999992010012114004+43967-068117FM-12+0016MDRM1V0203501N010319999999N9999999N1-00131-00491999999ADDMA1999999101611
0018994060999992010012115004+43967-068117FM-12+0016MDRM1V0203401N007719999999N9999999N1-00041-00391999999ADDMA1999999101671
0018994060999992010012116004+43967-068117FM-12+0016MDRM1V0203301N008219999999N9999999N1-00061-00351999999ADDMA1999999101601
0018994060999992010012117004+43967-068117FM-12+0016MDRM1V0203301N008219999999N9999999N1+00001-00361999999ADDMA1999999101531
0180994060999992010012118004+43967-068117FM-12+0016MDRM1V0203301N008719999999N9999999N1+00001-00441999999ADDMA1999999101511OA139900981REMSYN142CMAN  21184 MDRM1 46/// /3317 10000 21044 30151 91800 333 91219 555 11016 22017 31730 433022 61759 329017 327018 331019 332018 33014 05 96256;
0018994060999992010012119004+43967-068117FM-12+0016MDRM1V0203101N009319999999N9999999N1+00041-00471999999ADDMA1999999101541
0178994060999992010012120004+43967-068117FM-12+0016MDRM1V0203101N009819999999N9999999N1+00071-00531999999ADDMA1999999101581OA139901081REMSYN140CMAN  21204 MDRM1 46/// /3119 10007 21053 30158 92000 333 91221 555 11018 22019 31953 431023 61959 313018 318016 312016 320017 31014 002014;
0018994060999992010012121004+43967-068117FM-12+0016MDRM1V0203001N008719999999N9999999N1+00111-00461999999ADDMA1999999101611
0018994060999992010012122004+43967-068117FM-12+0016MDRM1V0203101N007219999999N9999999N1+00151-00371999999ADDMA1999999101621
0018994060999992010012123004+43967-068117FM-12+0016MDRM1V0203101N010319999999N9999999N1+00211-00381999999ADDMA1999999101611
0178994060999992010012200004+43967-068117FM-12+0016MDRM1V0202801N009819999999N9999999N1+00161-00391999999ADDMA1999999101631OA139901031REMSYN140CMAN  22004 MDRM1 46/// /2819 10016 21039 30163 90000 333 91220 555 11017 22018 32331 429021 62359 287018 287018 288019 287019 29012 03////;
0178994060999992010012201004+43967-068117FM-12+0016MDRM1V0203001N010319999999N9999999N1+00161-00361999999ADDMA1999999101581OA139901131REMSYN140CMAN  22014 MDRM1 46/// /3020 10016 21036 30158 90100 333 91222 555 11019 22020 30057 430023 60059 298020 300020 296019 294018 29015 042013;
0018994060999992010012202004+43967-068117FM-12+0016MDRM1V0203001N008219999999N9999999N1+00121-00371999999ADDMA1999999101531
0018994060999992010012203004+43967-068117FM-12+0016MDRM1V0203201N008719999999N9999999N1+00091-00431999999ADDMA1999999101481
0179994060999992010012204004+43967-068117FM-12+0016MDRM1V0203201N008219999999N9999999N1+00051-00541999999ADDMA1999999101451OA139900931REMSYN141CMAN  22044 MDRM1 46/// /3216 10005 21054 30145 90400 333 91218 555 11015 22016 30307 432022 60359 322017 320019 318019 319019 31016 04/////;
0018994060999992010012205004+43967-068117FM-12+0016MDRM1V0203201N007719999999N9999999N1+00041-00541999999ADDMA1999999101401
0178994060999992010012206004+43967-068117FM-12+0016MDRM1V0203001N009819999999N9999999N1+00051-00571999999ADDMA1999999101391OA139901131REMSYN140CMAN  22064 MDRM1 46/// /3019 10005 21057 30139 90600 333 91222 555 11018 22019 30552 430022 60559 301019 300018 302016 310015 31012 039014;
0018994060999992010012207004+43967-068117FM-12+0016MDRM1V0202701N009319999999N9999999N1+00121-00381999999ADDMA1999999101461
0018994060999992010012208004+43967-068117FM-12+0016MDRM1V0202801N009319999999N9999999N1+00071-00311999999ADDMA1999999101431
0185994060999992010012209004+43967-068117FM-12+0016MDRM1V0202901N010319999999N9999999N1+00051-00441999999ADDMA1999999101411OA139901081REMSYN147CMAN  22094 MDRM1 46/// /2920 10005 21044 30141 90900 333 91221 555 11019 22020 30807 428023 60859 295019 297018 294018 286018 28010 0487629 96477;
0018994060999992010012210004+43967-068117FM-12+0016MDRM1V0203201N007719999999N9999999N1+00091-00391999999ADDMA1999999101371
0018994060999992010012211004+43967-068117FM-12+0016MDRM1V0203501N009819999999N9999999N1+00021-00471999999ADDMA1999999101291
0018994060999992010012212004+43967-068117FM-12+0016MDRM1V0203501N013919999999N9999999N1-00011-00541999999ADDMA1999999101331
0018994060999992010012213004+43967-068117FM-12+0016MDRM1V0200201N008719999999N9999999N1-00111-00541999999ADDMA1999999101551
0178994060999992010012214004+43967-068117FM-12+0016MDRM1V0200301N010819999999N9999999N1-00151-00551999999ADDMA1999999101551OA139901241REMSYN140CMAN  22144 MDRM1 46/// /0321 11015 21055 30155 91400 333 91224 555 11019 22020 31356 403024 61359 028020 029019 027016 023015 02010 022016;
0018994060999992010012215004+43967-068117FM-12+0016MDRM1V0200201N015419999999N9999999N1-00151-00591999999ADDMA1999999101391
0018994060999992010012216004+43967-068117FM-12+0016MDRM1V0200301N011819999999N9999999N1-00171-00591999999ADDMA1999999101401
0018994060999992010012217004+43967-068117FM-12+0016MDRM1V0200201N009319999999N9999999N1-00211-00641999999ADDMA1999999101371
0178994060999992010012218004+43967-068117FM-12+0016MDRM1V0200201N005119999999N9999999N1-00161-00691999999ADDMA1999999101351OA139900621REMSYN140CMAN  22184 MDRM1 46/// /0210 11016 21069 30135 91800 333 91212 555 11009 22010 31714 403023 61759 027014 016014 020014 009014 01010 041002;
0018994060999992010012219004+43967-068117FM-12+0016MDRM1V0200201N007219999999N9999999N1-00111-00571999999ADDMA1999999101351
0178994060999992010012220004+43967-068117FM-12+0016MDRM1V0200201N008719999999N9999999N1-00071-00671999999ADDMA1999999101391OA139901031REMSYN140CMAN  22204 MDRM1 46/// /0217 11007 21067 30139 92000 333 91220 555 11016 22017 31951 402021 61959 016017 019017 020017 007013 00007 026010;
0018994060999992010012221004+43967-068117FM-12+0016MDRM1V0200101N010819999999N9999999N1-00081-00641999999ADDMA1999999101441
0018994060999992010012222004+43967-068117FM-12+0016MDRM1V0200201N009819999999N9999999N1-00071-00731999999ADDMA1999999101461
0018994060999992010012223004+43967-068117FM-12+0016MDRM1V0200201N010319999999N9999999N1-00081-00661999999ADDMA1999999101501
0178994060999992010012300004+43967-068117FM-12+0016MDRM1V0200201N012319999999N9999999N1-00091-00701999999ADDMA1999999101571OA139901441REMSYN140CMAN  23004 MDRM1 46/// /0224 11009 21070 30157 90000 333 91228 555 11022 22024 32325 402028 62359 020023 024023 020022 017023 01009 056014;
0018994060999992010012301004+43967-068117FM-12+0016MDRM1V0200201N012319999999N9999999N1-00111-00751999999ADDMA1999999101601
0018994060999992010012302004+43967-068117FM-12+0016MDRM1V0200201N013919999999N9999999N1-00161-00951999999ADDMA1999999101651
0018994060999992010012303004+43967-068117FM-12+0016MDRM1V0200201N012319999999N9999999N1-00241-01011999999ADDMA1999999101681
0178994060999992010012304004+43967-068117FM-12+0016MDRM1V0200201N013919999999N9999999N1-00321-01091999999ADDMA1999999101721OA139901491REMSYN140CMAN  23044 MDRM1 46/// /0227 11032 21109 30172 90400 333 91229 555 11025 22026 30354 401032 60359 015026 020026 021027 022025 02010 026014;
0018994060999992010012305004+43967-068117FM-12+0016MDRM1V0200101N013919999999N9999999N1-00421-01161999999ADDMA1999999101771
0226994060999992010012306004+43967-068117FM-12+0016MDRM1V0200201N011819999999N9999999N1-00451-01051999999ADDMA1999999101811OA139901291REMSYN188CMAN  23064 MDRM1 46/// /0223 11045 21105 30181 90600 333 91225 555 11021 22023 30512 402031 60559 017023 020024 017025 017026 026 023006 019006 0160088 150085 163074 184083 149092 136094;
0178994060999992010012307004+43967-068117FM-12+0016MDRM1V0200201N011319999999N9999999N1-00501-01131999999ADDMA1999999101861OA139901241REMSYN140CMAN  23074 MDRM1 46/// /0222 11050 21113 30186 90700 333 91224 555 11020 22022 30634 402030 60659 020023 018025 019025 016025 01015 082024;
0018994060999992010012308004+43967-068117FM-12+0016MDRM1V0200101N012319999999N9999999N1-00561-01161999999ADDMA1999999101861
0196994060999992010012309004+43967-068117FM-12+0016MDRM1V0200201N012319999999N9999999N1-00551-01121999999ADDMA1999999101881OA139901491REMSYN158CMAN  23094 MDRM1 46/// /0224 11055 21112 30188 90900 333 91229 555 11023 22024 30853 402030 60859 017024 014026 015024 016025 01021 012005 2210 160017 16203;
