0017994270999992010010100004+42967-070617FM-12+0019IOSN3V0200101N003619999999N9999999N1-00121-00251102081ADDMD1810081+9999
0184994270999992010010101004+42967-070617FM-12+0019IOSN3V0203601N002119999999N9999999N1-00071-00231102041ADDMD1810131+9999OA139900261REMSYN147CMAN  01014 IOSN3 46/// /3604 11007 21023 40204 58013 90100 333 91205 555 11004 22004 30014 401008 60059 000004 005005 006004 006005 0096011 96004;
0017994270999992010010102004+42967-070617FM-12+0019IOSN3V0203501N004619999999N9999999N1-00101-00211101971ADDMD1810171+9999
0017994270999992010010103004+42967-070617FM-12+0019IOSN3V0203601N005119999999N9999999N1-00061-00181101881ADDMD1810201+9999
0243994270999992010010104004+42967-070617FM-12+0019IOSN3V0203501N005119999999N9999999N1-00071-00201101821ADDMD1610221+9999OA139900571REMSYN206CMAN  01044 IOSN3 46/// /3510 11007 21020 40182 56022 90400 333 91211 555 11009 22010 30325 436013 60359 354010 353010 356011 000011 00002 18012 010349 267020 276017 340010 343015 333008 242005 82803 90350;
0017994270999992010010105004+42967-070617FM-12+0019IOSN3V0203401N005719999999N9999999N1-00121-00251101701ADDMD1810271+9999
0017994270999992010010106004+42967-070617FM-12+0019IOSN3V0203401N005119999999N9999999N1-00131-00241101651ADDMD1610231+9999
0225994270999992010010107004+42967-070617FM-12+0019IOSN3V0203301N006719999999N9999999N1-00121-00201101581ADDMD1610241+9999OA139900721REMSYN188CMAN  01074 IOSN3 46/// /3313 11012 21020 40158 56024 90700 333 91214 555 11012 22013 30618 433014 60659 329013 332012 336012 336012 33004 22014 3535081 340080 337083 343085 344084 347084;
0017994270999992010010108004+42967-070617FM-12+0019IOSN3V0203201N006219999999N9999999N1-00121-00191101551ADDMD1610151+9999
0195994270999992010010109004+42967-070617FM-12+0019IOSN3V0203301N004619999999N9999999N1-00121-00201101511ADDMD1610141+9999OA139900511REMSYN158CMAN  01094 IOSN3 46/// /3309 11012 21020 40151 56014 90900 333 91210 555 11009 22009 30803 432014 60859 325010 322011 327012 327012 32016 0012 357012 000012;
0017994270999992010010110004+42967-070617FM-12+0019IOSN3V0203201N004619999999N9999999N1-00151-00231101471ADDMD1810111+9999
0017994270999992010010111004+42967-070617FM-12+0019IOSN3V0203201N005119999999N9999999N1-00141-00251101471ADDMD1610081+9999
0017994270999992010010112004+42967-070617FM-12+0019IOSN3V0203301N004619999999N9999999N1-00121-00251101441ADDMD1610071+9999
0243994270999992010010113004+42967-070617FM-12+0019IOSN3V0203201N004119999999N9999999N1-00131-00281101431ADDMD1710041+9999OA139900461REMSYN206CMAN  01134 IOSN3 46/// /3208 11013 21028 40143 57004 91300 333 91209 555 11008 22008 31244 431011 61259 314008 309009 311008 316008 32006 22011 341249 165046 169048 162051 167051 167049 165046 81606 91222;
0017994270999992010010114004+42967-070617FM-12+0019IOSN3V0203301N004119999999N9999999N1-00061-00231101391ADDMD1810081+9999
0017994270999992010010115004+42967-070617FM-12+0019IOSN3V0203301N003119999999N9999999N1-00071-00261101381ADDMD1710061+9999
0230994270999992010010116004+42967-070617FM-12+0019IOSN3V0203401N003119999999N9999999N1-00041-00231101251ADDMD1810181+9999OA139900361REMSYN193CMAN  01164 IOSN3 46/// /3406 11004 21023 40125 58018 91600 333 91207 555 11006 22006 31533 433008 61559 339006 331006 331006 326006 32549 013156 020154 020156 018163 017164 011168 80218 91500;
0225994270999992010010117004+42967-070617FM-12+0019IOSN3V0203101N004619999999N9999999N1-00011-00201101171ADDMD1810221+9999OA139900511REMSYN188CMAN  01174 IOSN3 46/// /3109 11001 21020 40117 58022 91700 333 91210 555 11009 22009 31659 431010 61659 305008 311005 321006 317006 333509 61649 346063 346064 345067 350068 349073 347071;
0017994270999992010010118004+42967-070617FM-12+0019IOSN3V0203301N005119999999N9999999N1+00051-00151101061ADDMD1610321+9999
0017994270999992010010119004+42967-070617FM-12+0019IOSN3V0203201N004619999999N9999999N1+00071-00361101071ADDMD1610181+9999
0017994270999992010010120004+42967-070617FM-12+0019IOSN3V0203201N005119999999N9999999N1+00131-00021101051ADDMD1610121+9999
0225994270999992010010121004+42967-070617FM-12+0019IOSN3V0203301N007719999999N9999999N1+00121+00021101011ADDMD1810051+9999OA139900881REMSYN188CMAN  01214 IOSN3 46/// /3315 10012 20002 40101 58005 92100 333 91217 555 11014 22015 32058 434017 62059 335014 330012 325013 321011 313410 62049 342074 343079 343080 343078 346074 348075;
0017994270999992010010122004+42967-070617FM-12+0019IOSN3V0200101N013419999999N9999999N1+00191+00131100921ADDMD1810151+9999
0017994270999992010010123004+42967-070617FM-12+0019IOSN3V0200201N012919999999N9999999N1+00171+00091100911ADDMD1610141+9999
0017994270999992010010200004+42967-070617FM-12+0019IOSN3V0200201N013919999999N9999999N1+00151+00071100861ADDMD1610151+9999
0017994270999992010010201004+42967-070617FM-12+0019IOSN3V0200201N013919999999N9999999N1+00071-00361100801ADDMD1810121+9999
0017994270999992010010202004+42967-070617FM-12+0019IOSN3V0200201N014419999999N9999999N1+00071-00021100691ADDMD1810221+9999
0017994270999992010010203004+42967-070617FM-12+0019IOSN3V0200201N013919999999N9999999N1+00031-00061100631ADDMD1710231+9999
0017994270999992010010204004+42967-070617FM-12+0019IOSN3V0200301N014419999999N9999999N1+00011-00091100591ADDMD1610211+9999
0017994270999992010010205004+42967-070617FM-12+0019IOSN3V0200201N014919999999N9999999N1-00031-00141100481ADDMD1810211+9999
0254994270999992010010206004+42967-070617FM-12+0019IOSN3V0200201N013919999999N9999999N1-00061-00211100441ADDMD1710191+9999OA139901541REMSYN217CMAN  02064 IOSN3 46/// /0227 11006 21021 40044 57019 90600 333 91230 555 11026 22027 30534 402034 60559 018028 019027 019029 021028 01027 33016 34078 40000 46954 44190 50000 50030 60000 60051 60620 70000 77R// 7R///;
0225994270999992010010207004+42967-070617FM-12+0019IOSN3V0200101N012319999999N9999999N1-00171-00291100471ADDMD1510121+9999OA139901341REMSYN188CMAN  02074 IOSN3 46/// /0124 11017 21029 40047 55012 90700 333 91226 555 11023 22024 30623 402033 60659 013025 014026 011024 013026 013313 60649 332097 337104 332113 330108 333106 336098;
0017994270999992010010208004+42967-070617FM-12+0019IOSN3V0200101N013919999999N9999999N1-00221-00361100451ADDMD1610031+9999
0017994270999992010010209004+42967-070617FM-12+0019IOSN3V0200101N013419999999N9999999N1-00231-00391100381ADDMD1810061+9999
0017994270999992010010210004+42967-070617FM-12+0019IOSN3V0200101N012919999999N9999999N1-00251-00421100321ADDMD1810151+9999
0017994270999992010010211004+42967-070617FM-12+0019IOSN3V0200101N011819999999N9999999N1-00241-00391100281ADDMD1610171+9999
0017994270999992010010212004+42967-070617FM-12+0019IOSN3V0200101N011819999999N9999999N1-00261-00391100211ADDMD1810171+9999
0017994270999992010010213004+42967-070617FM-12+0019IOSN3V0203601N012319999999N9999999N1-00281-00431100151ADDMD1810171+9999
0017994270999992010010214004+42967-070617FM-12+0019IOSN3V0203601N013419999999N9999999N1-00291-00481100121ADDMD1610161+9999
0243994270999992010010215004+42967-070617FM-12+0019IOSN3V0203501N011819999999N9999999N1-00301-00481100101ADDMD1610111+9999OA139901341REMSYN206CMAN  02154 IOSN3 46/// /3523 11030 21048 40010 56011 91500 333 91226 555 11022 22023 31401 436029 61459 353022 354023 355023 357023 00016 33021 351449 133147 133145 136142 133139 133136 132137 81316 91449;
0017994270999992010010216004+42967-070617FM-12+0019IOSN3V0203501N011819999999N9999999N1-00321-00521100001ADDMD1810151+9999
0017994270999992010010217004+42967-070617FM-12+0019IOSN3V0203401N009819999999N9999999N1-00291-00491099891ADDMD1810231+9999
0017994270999992010010218004+42967-070617FM-12+0019IOSN3V0203401N010319999999N9999999N1-00291-00491099811ADDMD1610291+9999
0183994270999992010010219004+42967-070617FM-12+0019IOSN3V0203401N011819999999N9999999N1-00301-00501099731ADDMD1610271+9999OA139901291REMSYN146CMAN  02194 IOSN3 46/// /3423 11030 21050 49973 56027 91900 333 91225 555 11022 22024 31845 434029 61859 339023 343023 341022 343022 340035 90051;
0017994270999992010010220004+42967-070617FM-12+0019IOSN3V0203401N011319999999N9999999N1-00251-00481099701ADDMD1610191+9999
0017994270999992010010221004+42967-070617FM-12+0019IOSN3V0203301N011819999999N9999999N1-00201-00411099611ADDMD1810201+9999
0017994270999992010010222004+42967-070617FM-12+0019IOSN3V0203201N011319999999N9999999N1-00171-00341099501ADDMD1810231+9999
0017994270999992010010223004+42967-070617FM-12+0019IOSN3V0203001N012319999999N9999999N1-00201-00371099391ADDMD1810311+9999
0017994270999992010010300004+42967-070617FM-12+0019IOSN3V0203001N014419999999N9999999N1-00311-00481099251ADDMD1810361+9999
0017994270999992010010301004+42967-070617FM-12+0019IOSN3V0202901N016419999999N9999999N1-00411-00681099051ADDMD1810451+9999
0017994270999992010010302004+42967-070617FM-12+0019IOSN3V0203001N017019999999N9999999N1-00411-00791098861ADDMD1810531+9999
0197994270999992010010303004+42967-070617FM-12+0019IOSN3V0202901N017519999999N9999999N1-00431-00771098721ADDMD1610532+9999OA139901961REMSYN141CMAN  03034 IOSN3 46/// /2934 11043 21077 49872 56053 90300 333 91238 555 11032 22034 30256 430043 60259 295035 296035 295035 293035 29/////;EQDQ01+000532APC3  
0243994270999992010010304004+42967-070617FM-12+0019IOSN3V0202901N020019999999N9999999N1-00461-00861098491ADDMD1810561+9999OA139902471REMSYN206CMAN  03044 IOSN3 46/// /2939 11046 21086 49849 58056 90400 333 91248 555 11036 22039 30359 429048 60359 292037 291036 291038 294036 29019 33032 300349 120148 121148 119146 119155 121153 122147 81216 90311;
0017994270999992010010305004+42967-070617FM-12+0019IOSN3V0202901N018519999999N9999999N1-00511-00881098421ADDMD1610441+9999
0195994270999992010010306004+42967-070617FM-12+0019IOSN3V0202901N018019999999N9999999N1-00521-00901098301ADDMD1610421+9999OA139902161REMSYN158CMAN  03064 IOSN3 46/// /2935 11052 21090 49830 56042 90600 333 91242 555 11033 22035 30523 430046 60559 289036 288037 289037 290036 28007 0438 295037 297037;
0017994270999992010010307004+42967-070617FM-12+0019IOSN3V0202801N020019999999N9999999N1-00621-00871098171ADDMD1810321+9999
0017994270999992010010308004+42967-070617FM-12+0019IOSN3V0202901N020019999999N9999999N1-00641-00961098121ADDMD1610301+9999
0183994270999992010010309004+42967-070617FM-12+0019IOSN3V0202901N017519999999N9999999N1-00641-00891098151ADDMD1510151+9999OA139901901REMSYN146CMAN  03094 IOSN3 46/// /2934 11064 21089 49815 55015 90900 333 91237 555 11032 22034 30802 429045 60859 289035 286035 286037 287036 28036 310034;
0017994270999992010010310004+42967-070617FM-12+0019IOSN3V0202901N019019999999N9999999N1-00671-00941098081ADDMD1810091+9999
0017994270999992010010311004+42967-070617FM-12+0019IOSN3V0203001N016419999999N9999999N1-00661-00901098241ADDMD1310121+9999
0017994270999992010010312004+42967-070617FM-12+0019IOSN3V0202901N014919999999N9999999N1-00671-00891098271ADDMD1310121+9999
0017994270999992010010313004+42967-070617FM-12+0019IOSN3V0203001N012319999999N9999999N1-00611-00771098391ADDMD1110311+9999
0017994270999992010010314004+42967-070617FM-12+0019IOSN3V0203001N011319999999N9999999N1-00561-00761098441ADDMD1310201+9999
0183994270999992010010315004+42967-070617FM-12+0019IOSN3V0203001N012919999999N9999999N1-00401-00571098481ADDMD1110211+9999OA139901491REMSYN146CMAN  03154 IOSN3 46/// /3025 11040 21057 49848 51021 91500 333 91229 555 11024 22025 31445 430032 61459 302025 305025 304024 303025 29013 331016;
0017994270999992010010316004+42967-070617FM-12+0019IOSN3V0203101N013419999999N9999999N1-00111-00351098491ADDMD1110101+9999
0017994270999992010010317004+42967-070617FM-12+0019IOSN3V0203301N012919999999N9999999N1+00141-00211098541ADDMD1310101+9999
0176994270999992010010318004+42967-070617FM-12+0019IOSN3V0203301N012919999999N9999999N1+00061-00291098611ADDMD1310131+9999OA139901441REMSYN139CMAN  03184 IOSN3 46/// /3325 10006 21029 49861 53013 91800 333 91228 555 11023 22025 31700 432029 61759 323024 322025 319026 316025 32102;
0017994270999992010010319004+42967-070617FM-12+0019IOSN3V0203101N012919999999N9999999N1-00011-00271098681ADDMD1310191+9999
0243994270999992010010320004+42967-070617FM-12+0019IOSN3V0203001N011319999999N9999999N1-00061-00301098771ADDMD1310231+9999OA139901241REMSYN206CMAN  03204 IOSN3 46/// /3022 11006 21030 49877 53023 92000 333 91224 555 11020 22022 31910 431029 61959 302022 299022 302022 304024 31013 31029 301949 121115 124117 123117 125117 123118 124116 81312 91904;
0017994270999992010010321004+42967-070617FM-12+0019IOSN3V0203101N012919999999N9999999N1+00031-00131098871ADDMD1310261+9999
0017994270999992010010322004+42967-070617FM-12+0019IOSN3V0203201N013919999999N9999999N1+00001-00181098931ADDMD1110251+9999
0177994270999992010010323004+42967-070617FM-12+0019IOSN3V0203201N013919999999N9999999N1+00021-00171099041ADDMD1310271+9999OA139901491REMSYN140CMAN  03234 IOSN3 46/// /3227 10002 21017 49904 53027 92300 333 91229 555 11025 22027 32205 432035 62259 319026 317026 316026 313027 31////;
0243994270999992010010400004+42967-070617FM-12+0019IOSN3V0203201N013419999999N9999999N1+00021-00361099131ADDMD1310261+9999OA139901441REMSYN206CMAN  04004 IOSN3 46/// /3226 10002 21036 49913 53026 90000 333 91228 555 11024 22026 32300 432031 62359 319025 319027 316026 316026 312311 41212 62349 119102 124101 120100 123100 121100 122101 81211 92345;
0195994270999992010010401004+42967-070617FM-12+0019IOSN3V0203201N012919999999N9999999N1+00041-00131099181ADDMD1110251+9999OA139901441REMSYN158CMAN  04014 IOSN3 46/// /3225 10004 21013 49918 51025 90100 333 91228 555 11023 22025 30017 432033 60059 319025 315026 318026 313027 31014 3431 320029 318030;
0017994270999992010010402004+42967-070617FM-12+0019IOSN3V0203101N010819999999N9999999N1+00061-00211099231ADDMD1110191+9999
0243994270999992010010403004+42967-070617FM-12+0019IOSN3V0203001N012919999999N9999999N1+00011-00291099231ADDMD1110101+9999OA139901491REMSYN206CMAN  04034 IOSN3 46/// /3025 10001 21029 49923 51010 90300 333 91229 555 11024 22025 30259 430029 60259 304025 304025 302025 301024 3029 315029 310249 121107 123109 124105 123110 123110 120104 81212 90218;
0243994270999992010010404004+42967-070617FM-12+0019IOSN3V0202901N012919999999N9999999N1+00021-00401099231ADDMD1110051+9999OA139901341REMSYN206CMAN  04044 IOSN3 46/// /2925 10002 21040 49923 51005 90400 333 91226 555 11023 22025 30318 430029 60359 296024 299023 300025 302025 30016 32029 310349 119108 119109 118109 120110 126107 124109 81312 90300;
0017994270999992010010405004+42967-070617FM-12+0019IOSN3V0202901N012319999999N9999999N1+00041-00431099281ADDMD1310051+9999
0017994270999992010010406004+42967-070617FM-12+0019IOSN3V0202901N011819999999N9999999N1+00041-00441099361ADDMD1310131+9999
0243994270999992010010407004+42967-070617FM-12+0019IOSN3V0203001N012319999999N9999999N1+00051-00401099421ADDMD1310191+9999OA139901291REMSYN206CMAN  04074 IOSN3 46/// /3024 10005 21040 49942 53019 90700 333 91225 555 11022 22024 30623 429028 60659 297023 293024 293024 293025 29015 32028 310649 127099 127097 125093 123093 127096 129094 81310 90607;
0017994270999992010010408004+42967-070617FM-12+0019IOSN3V0202901N010319999999N9999999N1+00061-00371099471ADDMD1110191+9999
0017994270999992010010409004+42967-070617FM-12+0019IOSN3V0202901N013919999999N9999999N1+00031-00441099381ADDMD1010001+9999
0178994270999992010010410004+42967-070617FM-12+0019IOSN3V0202901N012319999999N9999999N1+00041-00391099451ADDMD1310031+9999OA139901341REMSYN141CMAN  04104 IOSN3 46/// /2924 10004 21039 49945 53003 91000 333 91226 555 11023 22024 30900 429029 60959 293024 288024 290024 290025 28/////;
0017994270999992010010411004+42967-070617FM-12+0019IOSN3V0202901N012919999999N9999999N1-00061-00491099511ADDMD1310041+9999
0017994270999992010010412004+42967-070617FM-12+0019IOSN3V0202901N012919999999N9999999N1-00101-00571099571ADDMD1110191+9999
0195994270999992010010413004+42967-070617FM-12+0019IOSN3V0202901N012919999999N9999999N1-00121-00601099621ADDMD1110171+9999OA139901391REMSYN158CMAN  04134 IOSN3 46/// /2925 11012 21060 49962 51017 91300 333 91227 555 11023 22025 31257 429030 61259 290024 289025 289026 287024 28014 3424 311024 310024;
0017994270999992010010414004+42967-070617FM-12+0019IOSN3V0202901N012319999999N9999999N1-00111-00661099711ADDMD1310201+9999
0225994270999992010010415004+42967-070617FM-12+0019IOSN3V0203001N011819999999N9999999N1-00071-00701099791ADDMD1310221+9999OA139901291REMSYN188CMAN  04154 IOSN3 46/// /3023 11007 21070 49979 53022 91500 333 91225 555 11021 22023 31431 430029 61459 295024 296023 295024 293024 29017 31024 3152077 249078 252081 252082 249081 246076;
0017994270999992010010416004+42967-070617FM-12+0019IOSN3V0203001N012919999999N9999999N1-00041-00751099801ADDMD1110181+9999
0017994270999992010010417004+42967-070617FM-12+0019IOSN3V0202901N010819999999N9999999N1+00001-00701099781ADDMD1110071+9999
0017994270999992010010418004+42967-070617FM-12+0019IOSN3V0202901N010819999999N9999999N1+00011-00731099801ADDMD1410001+9999
0017994270999992010010419004+42967-070617FM-12+0019IOSN3V0202901N011319999999N9999999N1+00001-00721099851ADDMD1310051+9999
0243994270999992010010420004+42967-070617FM-12+0019IOSN3V0202901N010819999999N9999999N1-00031-00781099911ADDMD1310131+9999OA139901241REMSYN206CMAN  04204 IOSN3 46/// /2921 11003 21078 49991 53013 92000 333 91224 555 11020 22021 31901 429026 61959 291022 292022 291021 290021 28015 31015 311949 021021 010024 014022 008019 009022 004026 83603 91855;
0017994270999992010010421004+42967-070617FM-12+0019IOSN3V0202901N010319999999N9999999N1-00061-00761099961ADDMD1210161+9999
0243994270999992010010422004+42967-070617FM-12+0019IOSN3V0202901N009319999999N9999999N1-00071-00681100031ADDMD1310181+9999OA139901031REMSYN206CMAN  04224 IOSN3 46/// /2918 11007 21068 40003 53018 92200 333 91220 555 11017 22018 32110 430023 62159 290018 289019 291019 289018 2916 313015 312149 018030 014025 008027 015029 014027 015026 80303 92141;
0195994270999992010010423004+42967-070617FM-12+0019IOSN3V0202901N009319999999N9999999N1-00111-00731100091ADDMD1310181+9999OA139901031REMSYN158CMAN  04234 IOSN3 46/// /2918 11011 21073 40009 53018 92300 333 91220 555 11017 22018 32249 429022 62259 291018 289019 289019 288018 286 300016 306016 314017;
0017994270999992010010500004+42967-070617FM-12+0019IOSN3V0202901N009819999999N9999999N1-00151-00771100131ADDMD1110171+9999
0017994270999992010010501004+42967-070617FM-12+0019IOSN3V0203001N008719999999N9999999N1-00181-00781100171ADDMD1110141+9999
0225994270999992010010502004+42967-070617FM-12+0019IOSN3V0202901N007719999999N9999999N1-00191-00781100201ADDMD1110111+9999OA139900881REMSYN188CMAN  05024 IOSN3 46/// /2915 11019 21078 40020 51011 90200 333 91217 555 11014 22015 30116 429019 60159 294015 296016 295016 293016 2916 304018 3073066 280063 282065 276062 282065 280067;
0017994270999992010010503004+42967-070617FM-12+0019IOSN3V0202901N007719999999N9999999N1-00231-00791100221ADDMD1110091+9999
0177994270999992010010504004+42967-070617FM-12+0019IOSN3V0202901N006719999999N9999999N1-00211-00761100231ADDMD1110061+9999OA139900771REMSYN140CMAN  05044 IOSN3 46/// /2913 11021 21076 40023 51006 90400 333 91215 555 11012 22013 30302 429017 60359 290014 291014 292014 291014 294016;
0017994270999992010010505004+42967-070617FM-12+0019IOSN3V0202901N007219999999N9999999N1-00231-00761100201ADDMD1010001+9999
0243994270999992010010506004+42967-070617FM-12+0019IOSN3V0203001N007219999999N9999999N1-00251-00781100181ADDMD1710041+9999OA139900821REMSYN206CMAN  05064 IOSN3 46/// /3014 11025 21078 40018 57004 90600 333 91216 555 11013 22014 30503 429017 60559 300014 296014 296013 291014 280450 41307 60549 143054 147042 153040 144034 148034 135032 81406 90550;
0017994270999992010010507004+42967-070617FM-12+0019IOSN3V0202901N006719999999N9999999N1-00261-00791100221ADDMD1510001+9999
0017994270999992010010508004+42967-070617FM-12+0019IOSN3V0203001N007219999999N9999999N1-00261-00741100201ADDMD1410001+9999
0017994270999992010010509004+42967-070617FM-12+0019IOSN3V0202901N007219999999N9999999N1-00271-00731100181ADDMD1010001+9999
0017994270999992010010510004+42967-070617FM-12+0019IOSN3V0202901N006719999999N9999999N1-00281-00781100191ADDMD1710031+9999
0243994270999992010010511004+42967-070617FM-12+0019IOSN3V0202901N007719999999N9999999N1-00291-00791100201ADDMD1410001+9999OA139900821REMSYN206CMAN  05114 IOSN3 46/// /2915 11029 21079 40020 54000 91100 333 91216 555 11014 22015 31030 429017 61059 291015 291014 293014 290015 28013 34012 291049 090063 093057 098054 102058 101056 097058 81007 91044;
0000994270999992010010512004+42967-070617FM-12+0019IOSN3V0202901N006719999999N9999999N1-00301-00791100211
0017994270999992010010513004+42967-070617FM-12+0019IOSN3V0202901N006219999999N9999999N1-00321-00801100261ADDMD1210071+9999
0017994270999992010010514004+42967-070617FM-12+0019IOSN3V0202801N006219999999N9999999N1-00301-00771100281ADDMD1210081+9999
0183994270999992010010515004+42967-070617FM-12+0019IOSN3V0202801N005719999999N9999999N1-00261-00791100281ADDMD1210071+9999OA139900621REMSYN146CMAN  05154 IOSN3 46/// /2811 11026 21079 40028 52007 91500 333 91212 555 11010 22011 31401 428014 61459 283010 285010 285011 291011 28020 003020;
0000994270999992010010516004+42967-070617FM-12+0019IOSN3V0202801N003619999999N9999999N1-00201-00751100221
0017994270999992010010517004+42967-070617FM-12+0019IOSN3V0202701N004119999999N9999999N1-00141-00731100151ADDMD1810131+9999
0237994270999992010010518004+42967-070617FM-12+0019IOSN3V0202901N005119999999N9999999N1-00061-00711100091ADDMD1710191+9999OA139900571REMSYN200CMAN  05184 IOSN3 46/// /2910 11006 21071 40009 57019 91800 333 91211 555 11009 22010 31735 428012 61759 283010 283010 281010 283009 28011 000130 60136 40000 47645 44240 50000 50120 60000 60001 60020;
0243994270999992010010519004+42967-070617FM-12+0019IOSN3V0202901N005719999999N9999999N1+00011-00731100081ADDMD1610141+9999OA139900671REMSYN206CMAN  05194 IOSN3 46/// /2911 10001 21073 40008 56014 91900 333 91213 555 11010 22011 31847 429013 61859 291010 289010 289010 283009 27015 30011 301849 101042 088038 088040 093041 105051 118073 81208 91753;
0243994270999992010010520004+42967-070617FM-12+0019IOSN3V0202901N005119999999N9999999N1+00061-00721100101ADDMD1610051+9999OA139900571REMSYN206CMAN  05204 IOSN3 46/// /2910 10006 21072 40010 56005 92000 333 91211 555 11010 22010 31956 429013 61959 290011 285010 286009 285009 28014 31008 291949 134080 134073 129064 123064 119055 109045 81408 91948;
0017994270999992010010521004+42967-070617FM-12+0019IOSN3V0202801N004119999999N9999999N1+00091-00721100091ADDMD1410001+9999
0017994270999992010010522004+42967-070617FM-12+0019IOSN3V0202801N006219999999N9999999N1+00071-00601100061ADDMD1010001+9999
0017994270999992010010523004+42967-070617FM-12+0019IOSN3V0203001N007719999999N9999999N1-00031-00521100081ADDMD1410001+9999
0017994270999992010010600004+42967-070617FM-12+0019IOSN3V0202901N006719999999N9999999N1-00111-00401100091ADDMD1510001+9999
0017994270999992010010601004+42967-070617FM-12+0019IOSN3V0203001N007219999999N9999999N1-00121-00431100111ADDMD1210051+9999
0225994270999992010010602004+42967-070617FM-12+0019IOSN3V0203101N007219999999N9999999N1-00101-00561100121ADDMD1210041+9999OA139900821REMSYN188CMAN  06024 IOSN3 46/// /3114 11010 21056 40012 52004 90200 333 91216 555 11014 22014 30103 430017 60159 311014 308013 307013 308013 30020 30015 3055095 249090 246080 244078 248071 260074;
0188994270999992010010603004+42967-070617FM-12+0019IOSN3V0203301N006719999999N9999999N1-00091-00561100181ADDMD1310091+9999OA139900721REMSYN151CMAN  06034 IOSN3 46/// /3313 11009 21056 40018 53009 90300 333 91214 555 11012 22013 30202 432017 60259 321013 317013 311014 313014 31021 32015 30Y//;
0017994270999992010010604004+42967-070617FM-12+0019IOSN3V0203001N006219999999N9999999N1-00151-00631100151ADDMD1010041+9999
0195994270999992010010605004+42967-070617FM-12+0019IOSN3V0203001N007219999999N9999999N1-00191-00651100121ADDMD1010001+9999OA139900821REMSYN158CMAN  06054 IOSN3 46/// /3014 11019 21065 40012 50000 90500 333 91216 555 11013 22014 30436 430017 60459 298014 302014 303014 304013 30010 0114 312015 316015;
0219994270999992010010606004+42967-070617FM-12+0019IOSN3V0203001N007219999999N9999999N1-00231-00711100091ADDMD1710091+9999OA139900771REMSYN182CMAN  06064 IOSN3 46/// /3014 11023 21071 40009 57009 90600 333 91215 555 11013 22014 30536 430017 60559 295014 297013 303015 303014 30026 32016 319076 40000 47677 44220 50000 50126;
0243994270999992010010607004+42967-070617FM-12+0019IOSN3V0203001N007719999999N9999999N1-00241-00731100121ADDMD1510031+9999OA139900931REMSYN206CMAN  06074 IOSN3 46/// /3015 11024 21073 40012 55003 90700 333 91218 555 11014 22015 30601 429019 60659 299015 294016 297016 300016 290639 42314 60649 126108 127109 128103 125105 125112 123109 81312 90640;
0243994270999992010010608004+42967-070617FM-12+0019IOSN3V0202901N006719999999N9999999N1-00261-00741100131ADDMD1510001+9999OA139900771REMSYN206CMAN  06084 IOSN3 46/// /2913 11026 21074 40013 55000 90800 333 91215 555 11012 22013 30737 430021 60759 299014 297015 300018 298017 29024 33017 310749 130111 133104 128109 129107 130105 127103 81312 90750;
0017994270999992010010609004+42967-070617FM-12+0019IOSN3V0202901N007219999999N9999999N1-00301-00771100101ADDMD1010001+9999
0017994270999992010010610004+42967-070617FM-12+0019IOSN3V0203001N009819999999N9999999N1-00321-00741100051ADDMD1810071+9999
0195994270999992010010611004+42967-070617FM-12+0019IOSN3V0203001N010319999999N9999999N1-00351-00721100051ADDMD1610081+9999OA139901181REMSYN158CMAN  06114 IOSN3 46/// /3020 11035 21072 40005 56008 91100 333 91223 555 11019 22020 31058 430023 61059 299020 297019 296018 297019 29008 0418 320019 315018;
0017994270999992010010612004+42967-070617FM-12+0019IOSN3V0202901N010319999999N9999999N1-00381-00761100061ADDMD1610041+9999
0243994270999992010010613004+42967-070617FM-12+0019IOSN3V0202801N009819999999N9999999N1-00381-00831100091ADDMD1310041+9999OA139901031REMSYN206CMAN  06134 IOSN3 46/// /2819 11038 21083 40009 53004 91300 333 91220 555 11018 22019 31242 429024 61259 284020 286020 291019 290020 29022 33018 301249 116121 119121 121124 123119 122135 123122 81215 91207;
0017994270999992010010614004+42967-070617FM-12+0019IOSN3V0203001N010319999999N9999999N1-00361-00861100121ADDMD1310071+9999
0017994270999992010010615004+42967-070617FM-12+0019IOSN3V0203001N009819999999N9999999N1-00261-00871100151ADDMD1210091+9999
0017994270999992010010616004+42967-070617FM-12+0019IOSN3V0202901N009819999999N9999999N1-00181-00841100081ADDMD1010001+9999
0017994270999992010010617004+42967-070617FM-12+0019IOSN3V0202901N009319999999N9999999N1-00121-00941100011ADDMD1810111+9999
0017994270999992010010618004+42967-070617FM-12+0019IOSN3V0202901N009319999999N9999999N1-00081-00961099941ADDMD1710211+9999
0017994270999992010010619004+42967-070617FM-12+0019IOSN3V0202901N009819999999N9999999N1-00031-00871099941ADDMD1610141+9999
0243994270999992010010620004+42967-070617FM-12+0019IOSN3V0202901N011319999999N9999999N1+00001-00901099921ADDMD1610091+9999OA139901241REMSYN206CMAN  06204 IOSN3 46/// /2922 10000 21090 49992 56009 92000 333 91224 555 11020 22022 31953 428026 61959 284022 287020 291019 293018 28014 31012 291949 120153 121143 121151 120159 119155 119159 81217 91855;
0183994270999992010010621004+42967-070617FM-12+0019IOSN3V0202901N010319999999N9999999N1-00031-00881099971ADDMD1310031+9999OA139901181REMSYN146CMAN  06214 IOSN3 46/// /2920 11003 21088 49997 53003 92100 333 91223 555 11019 22020 32049 428026 62059 289021 288021 287022 291021 29013 306016;
0017994270999992010010622004+42967-070617FM-12+0019IOSN3V0202901N009819999999N9999999N1-00111-00881100021ADDMD1310081+9999
0017994270999992010010623004+42967-070617FM-12+0019IOSN3V0202901N007719999999N9999999N1-00161-00801100091ADDMD1310171+9999
0017994270999992010010700004+42967-070617FM-12+0019IOSN3V0202901N009319999999N9999999N1-00201-00851100091ADDMD1110121+9999
0017994270999992010010701004+42967-070617FM-12+0019IOSN3V0202901N007719999999N9999999N1-00181-00801100141ADDMD1110121+9999
0243994270999992010010702004+42967-070617FM-12+0019IOSN3V0203001N009319999999N9999999N1-00241-00681100171ADDMD1310081+9999OA139901031REMSYN206CMAN  07024 IOSN3 46/// /3018 11024 21068 40017 53008 90200 333 91220 555 11017 22018 30141 430023 60159 301018 302020 299017 298017 29010 33020 300149 119134 119136 120140 119136 121136 122133 81215 90113;
0017994270999992010010703004+42967-070617FM-12+0019IOSN3V0203001N008719999999N9999999N1-00171-00811100191ADDMD1110101+9999
0179994270999992010010704004+42967-070617FM-12+0019IOSN3V0203001N010819999999N9999999N1-00221-00801100201ADDMD1110061+9999OA139901181REMSYN142CMAN  07044 IOSN3 46/// /3021 11022 21080 40020 51006 90400 333 91223 555 11020 22021 30317 430024 60359 300020 296019 297019 297020 30E ////;
0017994270999992010010705004+42967-070617FM-12+0019IOSN3V0202901N010319999999N9999999N1-00241-00891100201ADDMD1210031+9999
0017994270999992010010706004+42967-070617FM-12+0019IOSN3V0203001N010319999999N9999999N1-00271-00931100221ADDMD1210031+9999
0017994270999992010010707004+42967-070617FM-12+0019IOSN3V0203001N009819999999N9999999N1-00271-00881100261ADDMD1310061+9999
0017994270999992010010708004+42967-070617FM-12+0019IOSN3V0203001N010819999999N9999999N1-00271-00901100291ADDMD1310091+9999
0177994270999992010010709004+42967-070617FM-12+0019IOSN3V0203001N008219999999N9999999N1-00241-00821100351ADDMD1310131+9999OA139901031REMSYN140CMAN  07094 IOSN3 46/// /3016 11024 21082 40035 53013 90900 333 91220 555 11015 22016 30800 430024 60859 303016 304018 301018 299018 29////;
0017994270999992010010710004+42967-070617FM-12+0019IOSN3V0203001N009819999999N9999999N1-00241-00851100371ADDMD1110111+9999
0017994270999992010010711004+42967-070617FM-12+0019IOSN3V0203001N011819999999N9999999N1-00221-00841100381ADDMD1110091+9999
0225994270999992010010712004+42967-070617FM-12+0019IOSN3V0203001N010819999999N9999999N1-00161-00671100451ADDMD1310101+9999OA139901341REMSYN188CMAN  07124 IOSN3 46/// /3021 11016 21067 40045 53010 91200 333 91226 555 11020 22021 31112 430031 61159 300023 301024 306024 304023 30017 34018 2948059 332050 327051 323052 318045 329058;
0017994270999992010010713004+42967-070617FM-12+0019IOSN3V0202901N010319999999N9999999N1-00181-00751100521ADDMD1310151+9999
0017994270999992010010714004+42967-070617FM-12+0019IOSN3V0202901N014919999999N9999999N1-00141-00731100411ADDMD1010031+9999
0195994270999992010010715004+42967-070617FM-12+0019IOSN3V0203001N010819999999N9999999N1-00061-00781100621ADDMD1310171+9999OA139901291REMSYN158CMAN  07154 IOSN3 46/// /3021 11006 21078 40062 53017 91500 333 91225 555 11020 22021 31412 430035 61459 293025 302026 301028 298028 29022 0020 301019 297019;
0017994270999992010010716004+42967-070617FM-12+0019IOSN3V0202901N008719999999N9999999N1-00031-00811100621ADDMD1310101+9999
0017994270999992010010717004+42967-070617FM-12+0019IOSN3V0202901N009319999999N9999999N1+00081-00781100521ADDMD1010111+9999
0017994270999992010010718004+42967-070617FM-12+0019IOSN3V0203001N011819999999N9999999N1+00221-00851100481ADDMD1810141+9999
0243994270999992010010719004+42967-070617FM-12+0019IOSN3V0202901N011319999999N9999999N1+00271-00671100481ADDMD1610141+9999OA139901291REMSYN206CMAN  07194 IOSN3 46/// /2922 10027 21067 40048 56014 91900 333 91225 555 11021 22023 31817 429037 61859 295025 292027 298028 300027 2913 310014 301849 110144 110149 109153 110151 112147 113148 81117 91817;
0017994270999992010010720004+42967-070617FM-12+0019IOSN3V0202901N008719999999N9999999N1+00301-00751100561ADDMD1310041+9999
0017994270999992010010721004+42967-070617FM-12+0019IOSN3V0202801N010319999999N9999999N1+00291-00751100551ADDMD1210071+9999
0017994270999992010010722004+42967-070617FM-12+0019IOSN3V0202801N008219999999N9999999N1+00251-00771100631ADDMD1210151+9999
0017994270999992010010723004+42967-070617FM-12+0019IOSN3V0202801N008719999999N9999999N1+00201-00611100681ADDMD1310121+9999
0178994270999992010010800004+42967-070617FM-12+0019IOSN3V0202801N009319999999N9999999N1+00141-00691100741ADDMD1110191+9999OA139901031REMSYN141CMAN  08004 IOSN3 46/// /2818 10014 21069 40074 51019 90000 333 91220 555 11017 22018 32318 428024 62359 275018 277017 279016 281019 28/////;
0243994270999992010010801004+42967-070617FM-12+0019IOSN3V0202901N008219999999N9999999N1+00091-00721100781ADDMD1110151+9999OA139900931REMSYN206CMAN  08014 IOSN3 46/// /2916 10009 21072 40078 51015 90100 333 91218 555 11015 22016 30003 428022 60059 283016 283016 281016 279017 27013 30024 260049 112114 112119 112118 111120 110123 110120 81113 90004;
0195994270999992010010802004+42967-070617FM-12+0019IOSN3V0202801N006219999999N9999999N1+00021-00751100841ADDMD1210161+9999OA139900721REMSYN158CMAN  08024 IOSN3 46/// /2812 10002 21075 40084 52016 90200 333 91214 555 11011 22012 30107 428018 60159 283012 277013 278014 276013 270 289020 283020 285021;
0225994270999992010010803004+42967-070617FM-12+0019IOSN3V0202801N007719999999N9999999N1-00071-00721100821ADDMD1110081+9999OA139900821REMSYN188CMAN  08034 IOSN3 46/// /2815 11007 21072 40082 51008 90300 333 91216 555 11014 22015 30244 429021 60259 291015 292017 295016 294014 2916 285017 2888012 274015 266013 295011 307013 286014;
0243994270999992010010804004+42967-070617FM-12+0019IOSN3V0202901N007219999999N9999999N1-00151-00711100881ADDMD1210101+9999OA139900821REMSYN206CMAN  08044 IOSN3 46/// /2914 11015 21071 40088 52010 90400 333 91216 555 11013 22014 30338 430021 60359 289014 301015 295017 299016 29009 32015 280349 112114 112116 111117 113115 115113 112122 81113 90253;
0017994270999992010010805004+42967-070617FM-12+0019IOSN3V0203001N009819999999N9999999N1-00241-00851100811ADDMD1810031+9999
0017994270999992010010806004+42967-070617FM-12+0019IOSN3V0202901N010819999999N9999999N1-00321-00931100791ADDMD1810031+9999
0183994270999992010010807004+42967-070617FM-12+0019IOSN3V0203101N008219999999N9999999N1-00371-01011100891ADDMD1510001+9999OA139900931REMSYN146CMAN  08074 IOSN3 46/// /3116 11037 21101 40089 55000 90700 333 91218 555 11015 22016 30629 430025 60659 297016 311017 308018 304018 29021 208016;
0178994270999992010010808004+42967-070617FM-12+0019IOSN3V0202901N007219999999N9999999N1-00421-01081100871ADDMD1210061+9999OA139900821REMSYN141CMAN  08084 IOSN3 46/// /2914 11042 21108 40087 52006 90800 333 91216 555 11013 22014 30715 430020 60759 295015 293015 298015 296016 30/////;
0017994270999992010010809004+42967-070617FM-12+0019IOSN3V0203001N007219999999N9999999N1-00461-01141100781ADDMD1010001+9999
0017994270999992010010810004+42967-070617FM-12+0019IOSN3V0203101N004619999999N9999999N1-00471-01091100751ADDMD1810141+9999
0017994270999992010010811004+42967-070617FM-12+0019IOSN3V0202801N004119999999N9999999N1-00471-01061100801ADDMD1510071+9999
0177994270999992010010812004+42967-070617FM-12+0019IOSN3V0202801N004119999999N9999999N1-00491-01041100821ADDMD1310041+9999OA139900461REMSYN140CMAN  08124 IOSN3 46/// /2808 11049 21104 40082 53004 91200 333 91209 555 11007 22008 31120 428010 61159 286007 287007 284007 290007 280048;
0017994270999992010010813004+42967-070617FM-12+0019IOSN3V0203101N003619999999N9999999N1-00521-01081100781ADDMD1010031+9999
0243994270999992010010814004+42967-070617FM-12+0019IOSN3V0209999C000019999999N9999999N1-00501-01041100781ADDMD1410001+9999OA139900051REMSYN206CMAN  08144 IOSN3 46/// /0000 11050 21104 40078 54000 91400 333 91201 555 11000 22000 31338 433009 61359 298002 311004 302005 300006 29006 31009 351349 108118 107117 107116 107123 109122 112120 81113 91312;
0017994270999992010010815004+42967-070617FM-12+0019IOSN3V0203401N001519999999N9999999N1-00501-00981100751ADDMD1610071+9999
0017994270999992010010817004+42967-070617FM-12+0019IOSN3V0203501N005719999999N9999999N1-00441-00681100511ADDMD1710271+9999
0195994270999992010010818004+42967-070617FM-12+0019IOSN3V0203301N003619999999N9999999N1-00431-00751100471ADDMD1710281+9999OA139900461REMSYN158CMAN  08184 IOSN3 46/// /3307 11043 21075 40047 57028 91800 333 91209 555 11007 22007 31737 435014 61759 328008 334008 336009 345010 34004 26002 330000 50132;
0000994270999992010010819004+42967-070617FM-12+0019IOSN3V0203301N003619999999N9999999N1-00441-00701100451
0017994270999992010010820004+42967-070617FM-12+0019IOSN3V0203101N004119999999N9999999N1-00431-00671100441ADDMD1610071+9999
0017994270999992010010821004+42967-070617FM-12+0019IOSN3V0203101N006719999999N9999999N1-00431-00651100451ADDMD1410001+9999
0017994270999992010010822004+42967-070617FM-12+0019IOSN3V0203101N006219999999N9999999N1-00391-00651100481ADDMD1310031+9999
0017994270999992010010823004+42967-070617FM-12+0019IOSN3V0203401N007219999999N9999999N1-00411-00701100531ADDMD1310091+9999
0185994270999992010010900004+42967-070617FM-12+0019IOSN3V0203301N007219999999N9999999N1-00401-00681100581ADDMD1310131+9999OA139900821REMSYN148CMAN  09004 IOSN3 46/// /3314 11040 21068 40058 53013 90000 333 91216 555 11013 22014 32317 434019 62359 337014 340013 340014 342014 33 91207 91305;
0017994270999992010010901004+42967-070617FM-12+0019IOSN3V0203301N008719999999N9999999N1-00431-00741100621ADDMD1110141+9999
0183994270999992010010902004+42967-070617FM-12+0019IOSN3V0203301N008719999999N9999999N1-00421-00681100661ADDMD1110131+9999OA139900981REMSYN146CMAN  09024 IOSN3 46/// /3317 11042 21068 40066 51013 90200 333 91219 555 11016 22017 30138 433023 60159 329017 330017 335017 332016 33009 001027;
0017994270999992010010903004+42967-070617FM-12+0019IOSN3V0203201N008219999999N9999999N1-00451-00701100691ADDMD1110111+9999
0243994270999992010010904004+42967-070617FM-12+0019IOSN3V0203101N008719999999N9999999N1-00491-00831100751ADDMD1310131+9999OA139900981REMSYN206CMAN  09044 IOSN3 46/// /3117 11049 21083 40075 53013 90400 333 91219 555 11016 22017 30313 433020 60359 305016 308016 308015 316014 32007 26018 320349 136100 137093 138096 138099 138102 138109 81412 90256;
0183994270999992010010905004+42967-070617FM-12+0019IOSN3V0203001N008719999999N9999999N1-00471-00891100761ADDMD1110101+9999OA139901031REMSYN146CMAN 09054 IOSN3 46/// /3017 11047 21089 40076 51010 90500 333 91220 555 11016 22017 30457 430021 60459 304018 304017 302017 301017 306017 308017;
0177994270999992010010906004+42967-070617FM-12+0019IOSN3V0203101N010819999999N9999999N1-00451-00921100771ADDMD1110081+9999OA139901181REMSYN140CMAN  09064 IOSN3 46/// /3121 11045 21092 40077 51008 90600 333 91223 555 11020 22021 30553 431024 60559 306020 305020 304019 304020 304007;
0017994270999992010010907004+42967-070617FM-12+0019IOSN3V0203001N009319999999N9999999N1-00451-00921100881ADDMD1310131+9999
0017994270999992010010908004+42967-070617FM-12+0019IOSN3V0203001N009819999999N9999999N1-00531-01051100911ADDMD1310151+9999
0017994270999992010010909004+42967-070617FM-12+0019IOSN3V0203001N009819999999N9999999N1-00551-01041100951ADDMD1110181+9999
0017994270999992010010910004+42967-070617FM-12+0019IOSN3V0203101N010319999999N9999999N1-00581-01041101011ADDMD1310131+9999
0243994270999992010010911004+42967-070617FM-12+0019IOSN3V0203001N011819999999N9999999N1-00601-01101101061ADDMD1310151+9999OA139901341REMSYN206CMAN  09114 IOSN3 46/// /3023 11060 21110 40106 53015 91100 333 91226 555 11021 22023 31059 430026 61059 299021 299020 299021 300021 3022 330021 331049 115087 113092 114094 113094 112100 113103 81111 90954;
0017994270999992010010912004+42967-070617FM-12+0019IOSN3V0203101N010319999999N9999999N1-00601-01181101191ADDMD1310241+9999
0195994270999992010010913004+42967-070617FM-12+0019IOSN3V0203101N011819999999N9999999N1-00631-01191101251ADDMD1310241+9999OA139901341REMSYN158CMAN  09134 IOSN3 46/// /3123 11063 21119 40125 53024 91300 333 91226 555 11022 22023 31251 431027 61259 312023 305022 307020 306021 309 327017 323018 324018;
0017994270999992010010914004+42967-070617FM-12+0019IOSN3V0203101N010319999999N9999999N1-00651-01261101331ADDMD1110271+9999
0017994270999992010010915004+42967-070617FM-12+0019IOSN3V0203001N010319999999N9999999N1-00671-01411101421ADDMD1310231+9999
0017994270999992010010916004+42967-070617FM-12+0019IOSN3V0203101N008219999999N9999999N1-00611-01501101451ADDMD1110201+9999
0195994270999992010010917004+42967-070617FM-12+0019IOSN3V0203101N008219999999N9999999N1-00501-01311101431ADDMD1110101+9999OA139900981REMSYN158CMAN  09174 IOSN3 46/// /3116 11050 21131 40143 51010 91700 333 91219 555 11015 22016 31618 430022 61659 308016 303017 303017 308018 305 323013 321012 331014;
0017994270999992010010918004+42967-070617FM-12+0019IOSN3V0203101N008219999999N9999999N1-00441-01491101421ADDMD1010001+9999
0195994270999992010010919004+42967-070617FM-12+0019IOSN3V0203001N010819999999N9999999N1-00461-01541101371ADDMD1810081+9999OA139901291REMSYN158CMAN  09194 IOSN3 46/// /3021 11046 21154 40137 58008 91900 333 91225 555 11020 22021 31842 430025 61859 298020 296019 301018 298017 295 336014 335014 344016;
0017994270999992010010920004+42967-070617FM-12+0019IOSN3V0202901N012319999999N9999999N1-00451-01571101391ADDMD1710041+9999
0017994270999992010010921004+42967-070617FM-12+0019IOSN3V0203001N010319999999N9999999N1-00461-01541101511ADDMD1310091+9999
0195994270999992010010922004+42967-070617FM-12+0019IOSN3V0203001N010819999999N9999999N1-00531-01581101571ADDMD1310201+9999OA139901241REMSYN158CMAN  09224 IOSN3 46/// /3021 11053 21158 40157 53020 92200 333 91224 555 11020 22021 32115 430026 62159 295021 300022 297023 296022 295 335016 329015 326017;
0017994270999992010010923004+42967-070617FM-12+0019IOSN3V0203001N011319999999N9999999N1-00621-01461101641ADDMD1110251+9999
0017994270999992010011000004+42967-070617FM-12+0019IOSN3V0203101N009319999999N9999999N1-00681-01611101771ADDMD1310261+9999
0017994270999992010011001004+42967-070617FM-12+0019IOSN3V0203101N009319999999N9999999N1-00701-01461101851ADDMD1310281+9999
0017994270999992010011002004+42967-070617FM-12+0019IOSN3V0203201N010319999999N9999999N1-00781-01461101911ADDMD1110271+9999
0178994270999992010011003004+42967-070617FM-12+0019IOSN3V0203201N009819999999N9999999N1-00851-01551102011ADDMD1310241+9999OA139901131REMSYN141CMAN  10034 IOSN3 46/// /3219 11085 21155 40201 53024 90300 333 91222 555 11018 22019 30225 433023 60259 325018 322019 324019 322019 31/////;
0242994270999992010011004004+42967-070617FM-12+0019IOSN3V0203201N006219999999N9999999N1-00911-01691102081ADDMD1310231+9999OA139900771REMSYN205CMAN  10044 IOSN3 46/// /3212 11091 21169 40208 53023 90400 333 91215 555 11011 22012 30307 433021 60359 324013 323014 322014 324015 32307 43615 60349 024106 017116 005116 006115 002113 012105 83613 90308;
0017994270999992010011005004+42967-070617FM-12+0019IOSN3V0203101N007219999999N9999999N1-00971-01741102071ADDMD1110161+9999
0176994270999992010011006004+42967-070617FM-12+0019IOSN3V0203001N007719999999N9999999N1-01021-01731102051ADDMD1110041+9999OA139900821REMSYN139CMAN  10064 IOSN3 46/// /3015 11102 21173 40205 51004 90600 333 91216 555 11014 22015 30525 431018 60559 303015 302015 306014 308014 30070;
0243994270999992010011007004+42967-070617FM-12+0019IOSN3V0203101N007719999999N9999999N1-01051-01741102061ADDMD1410001+9999OA139900881REMSYN206CMAN  10074 IOSN3 46/// /3115 11105 21174 40206 54000 90700 333 91217 555 11014 22015 30635 430019 60659 313015 309015 305016 307015 30026 32019 340649 117115 119111 121110 123109 128105 125105 81212 90645;
0243994270999992010011008004+42967-070617FM-12+0019IOSN3V0203001N007219999999N9999999N1-01061-01781102051ADDMD1410001+9999OA139900821REMSYN206CMAN  10084 IOSN3 46/// /3014 11106 21178 40205 54000 90800 333 91216 555 11013 22014 30720 432019 60759 306014 304015 310016 312015 31025 32021 350749 112115 114112 117115 114114 115119 114116 81213 90659;
0225994270999992010011009004+42967-070617FM-12+0019IOSN3V0203101N006719999999N9999999N1-01071-01741102061ADDMD1410001+9999OA139900771REMSYN188CMAN  10094 IOSN3 46/// /3113 11107 21174 40206 54000 90900 333 91215 555 11012 22013 30803 430019 60859 308013 301013 306013 304013 303506 60849 348046 349047 352043 356038 003034 016031;
0017994270999992010011010004+42967-070617FM-12+0019IOSN3V0203001N006719999999N9999999N1-01021-01731102081ADDMD1410001+9999
0017994270999992010011011004+42967-070617FM-12+0019IOSN3V0203101N007219999999N9999999N1-01021-01661102111ADDMD1310061+9999
0017994270999992010011012004+42967-070617FM-12+0019IOSN3V0203101N005119999999N9999999N1-01011-01641102181ADDMD1310121+9999
0017994270999992010011013004+42967-070617FM-12+0019IOSN3V0203001N007219999999N9999999N1-00991-01711102181ADDMD1110101+9999
0017994270999992010011014004+42967-070617FM-12+0019IOSN3V0203101N007219999999N9999999N1-00961-01661102241ADDMD1110131+9999
0200994270999992010011015004+42967-070617FM-12+0019IOSN3V0203201N005119999999N9999999N1-00881-01761102261ADDMD1210081+9999OA139900621REMSYN163CMAN  10154 IOSN3 46/// /3210 11088 21176 40226 52008 91500 333 91212 555 11009 22010 31402 431017 61459 312010 305011 308011 308011 31021 23017 35000 77R// 7R///;
0017994270999992010011016004+42967-070617FM-12+0019IOSN3V0203001N004619999999N9999999N1-00811-01741102201ADDMD1010001+9999
0017994270999992010011017004+42967-070617FM-12+0019IOSN3V0202801N003619999999N9999999N1-00721-01821102111ADDMD1810131+9999
0185994270999992010011018004+42967-070617FM-12+0019IOSN3V0202701N004119999999N9999999N1-00571-01861102011ADDMD1810251+9999OA139900571REMSYN148CMAN  10184 IOSN3 46/// /2708 11057 21186 40201 58025 91800 333 91211 555 11008 22008 31750 428012 61759 273009 280009 276007 279006 28 91207 91303;
0219994270999992010011019004+42967-070617FM-12+0019IOSN3V0202901N004619999999N9999999N1-00411-01901101941ADDMD1610261+9999OA139900621REMSYN182CMAN  10194 IOSN3 46/// /2909 11041 21190 40194 56026 91900 333 91212 555 11009 22009 31847 428014 61859 279009 283010 280008 286007 27022 32008 32304041 299045 297043 292049 292049;
0225994270999992010011020004+42967-070617FM-12+0019IOSN3V0202901N007719999999N9999999N1-00351+99999101911ADDMD1610201+9999OA139900931REMSYN188CMAN  10204 IOSN3 46/// /2915 11035 40191 56020 92000 333 91218 555 11015 22016 31921 429019 61959 294013 292011 293012 296013 27012 3406 332005 3272075 158074 174080 169080 169079 170082;
0017994270999992010011021004+42967-070617FM-12+0019IOSN3V0202901N009319999999N9999999N1-00361-02071101891ADDMD1610121+9999
0017994270999992010011022004+42967-070617FM-12+0019IOSN3V0202901N009819999999N9999999N1-00441-02051101931ADDMD1510001+9999
0017994270999992010011023004+42967-070617FM-12+0019IOSN3V0202901N010819999999N9999999N1-00531-02081101911ADDMD1410001+9999
0017994270999992010011100004+42967-070617FM-12+0019IOSN3V0202901N010819999999N9999999N1-00511-01641101951ADDMD1210061+9999
0017994270999992010011104004+42967-070617FM-12+0019IOSN3V0202801N009819999999N9999999N1-00631-01621101851ADDMD1810111+9999
0017994270999992010011105004+42967-070617FM-12+0019IOSN3V0202701N010319999999N9999999N1-00631-01461101801ADDMD1710141+9999
0225994270999992010011106004+42967-070617FM-12+0019IOSN3V0202801N009319999999N9999999N1-00541-01191101781ADDMD1610111+9999OA139901031REMSYN188CMAN  11064 IOSN3 46/// /2818 11054 21119 40178 56011 90600 333 91220 555 11017 22018 30538 427022 60559 274018 278019 274019 272018 27025 34014 2926040 216040 218042 206042 202040 200039;
0243994270999992010011107004+42967-070617FM-12+0019IOSN3V0202701N008719999999N9999999N1-00551-01221101791ADDMD1610061+9999OA139900931REMSYN206CMAN  11074 IOSN3 46/// /2717 11055 21122 40179 56006 90700 333 91218 555 11016 22017 30608 427022 60659 273018 273017 276017 275017 27024 33017 280649 112130 109138 110142 110142 111139 112142 81116 90555;
0017994270999992010011108004+42967-070617FM-12+0019IOSN3V0202701N008219999999N9999999N1-00561-01201101781ADDMD1410001+9999
0017994270999992010011109004+42967-070617FM-12+0019IOSN3V0202701N009319999999N9999999N1-00551-01101101711ADDMD1810071+9999
0017994270999992010011110004+42967-070617FM-12+0019IOSN3V0202701N009319999999N9999999N1-00551-01041101711ADDMD1710081+9999
0243994270999992010011111004+42967-070617FM-12+0019IOSN3V0202701N010819999999N9999999N1-00521-01001101681ADDMD1610101+9999OA139901181REMSYN206CMAN  11114 IOSN3 46/// /2721 11052 21100 40168 56010 91100 333 91223 555 11020 22021 31053 427025 61059 266022 268021 273019 276017 27019 33016 291049 113137 115135 114136 114133 115133 115140 81215 91048;
0017994270999992010011112004+42967-070617FM-12+0019IOSN3V0202601N010819999999N9999999N1-00541-00981101691ADDMD1410001+9999
0017994270999992010011113004+42967-070617FM-12+0019IOSN3V0202601N010319999999N9999999N1-00511-00941101671ADDMD1610041+9999
0017994270999992010011114004+42967-070617FM-12+0019IOSN3V0202701N008719999999N9999999N1-00411-00881101701ADDMD1510001+9999
0243994270999992010011115004+42967-070617FM-12+0019IOSN3V0202801N009819999999N9999999N1-00281-00951101691ADDMD1410001+9999OA139901131REMSYN206CMAN  11154 IOSN3 46/// /2819 11028 21095 40169 54000 91500 333 91222 555 11018 22019 31408 427023 61459 274019 271018 272016 270016 26018 32015 281449 114160 116154 119154 115151 114153 118157 81217 91441;
0243994270999992010011116004+42967-070617FM-12+0019IOSN3V0202801N009319999999N9999999N1-00151-00921101621ADDMD1810051+9999OA139901081REMSYN206CMAN  11164 IOSN3 46/// /2818 11015 21092 40162 58005 91600 333 91221 555 11017 22018 31516 427024 61559 272018 273019 272020 276019 27016 31013 271549 122152 123154 118148 111150 112148 112152 81217 91545;
0178994270999992010011117004+42967-070617FM-12+0019IOSN3V0202901N008719999999N9999999N1-00081-00871101551ADDMD1810151+9999OA139900981REMSYN141CMAN  11174 IOSN3 46/// /2917 11008 21087 40155 58015 91700 333 91219 555 11016 22017 31627 429025 61659 286017 289019 285019 281019 28/////;
0225994270999992010011118004+42967-070617FM-12+0019IOSN3V0203101N010319999999N9999999N1+00021-00881101461ADDMD1810231+9999OA139901081REMSYN188CMAN  11184 IOSN3 46/// /3120 10002 21088 40146 58023 91800 333 91221 555 11018 22020 31746 429028 61759 300020 290022 294022 296020 2912 269011 2756034 151036 174041 183045 196035 197040;
0017994270999992010011119004+42967-070617FM-12+0019IOSN3V0202901N010319999999N9999999N1+00041-00901101431ADDMD1610191+9999
0017994270999992010011120004+42967-070617FM-12+0019IOSN3V0202801N007219999999N9999999N1+00061-00921101491ADDMD1510061+9999
0211994270999992010011121004+42967-070617FM-12+0019IOSN3V0202901N007719999999N9999999N1+00071+99999101461ADDMD1410001+9999OA139900821REMSYN174CMAN  11214 IOSN3 46/// /2915 10007 40146 54000 92100 333 91216 555 11014 22015 32039 429021 62059 280015 273015 283017 274017 2814 339015 34015 25 9//// 444 ///// 555 30314;
0017994270999992010011122004+42967-070617FM-12+0019IOSN3V0202901N007219999999N9999999N1+00061-00861101501ADDMD1110071+9999
0017994270999992010011123004+42967-070617FM-12+0019IOSN3V0202701N007719999999N9999999N1+00021-00861101531ADDMD1310041+9999
0017994270999992010011200004+42967-070617FM-12+0019IOSN3V0202701N009319999999N9999999N1+00021-00801101521ADDMD1110061+9999
0017994270999992010011201004+42967-070617FM-12+0019IOSN3V0202801N009319999999N9999999N1+00011-00721101501ADDMD1010001+9999
0017994270999992010011202004+42967-070617FM-12+0019IOSN3V0202701N008719999999N9999999N1-00021-00791101521ADDMD1410001+9999
0243994270999992010011203004+42967-070617FM-12+0019IOSN3V0202701N010819999999N9999999N1-00071-00731101491ADDMD1810031+9999OA139901131REMSYN206CMAN  12034 IOSN3 46/// /2721 11007 21073 40149 58003 90300 333 91222 555 11019 22021 30256 428023 60259 276020 276019 273019 274019 27019 33016 280249 136127 130142 126143 128146 128154 127152 81317 90153;
0017994270999992010011204004+42967-070617FM-12+0019IOSN3V0202801N009319999999N9999999N1-00091-00781101491ADDMD1410001+9999
0017994270999992010011205004+42967-070617FM-12+0019IOSN3V0202901N009819999999N9999999N1-00131-00761101461ADDMD1710061+9999
0199994270999992010011206004+42967-070617FM-12+0019IOSN3V0202801N009319999999N9999999N1-00151-00791101451ADDMD1710041+9999OA139900981REMSYN162CMAN  12064 IOSN3 46/// /2818 11015 21079 40145 57004 90600 333 91219 555 11017 22018 30506 429021 60559 284017 286016 288017 288017 28020 33017 2904 70011 80006;
0017994270999992010011207004+42967-070617FM-12+0019IOSN3V0202801N008219999999N9999999N1-00141-00671101481ADDMD1510001+9999
0017994270999992010011208004+42967-070617FM-12+0019IOSN3V0202801N008219999999N9999999N1-00171-00691101481ADDMD1410001+9999
0017994270999992010011209004+42967-070617FM-12+0019IOSN3V0202901N008219999999N9999999N1-00181-00711101451ADDMD1010001+9999
0243994270999992010011210004+42967-070617FM-12+0019IOSN3V0202901N007219999999N9999999N1-00161-00661101441ADDMD1710041+9999OA139900821REMSYN206CMAN  12104 IOSN3 46/// /2914 11016 21066 40144 57004 91000 333 91216 555 11013 22014 30925 429018 60959 289014 290014 289015 291015 29017 34012 310949 116133 114144 118137 119133 120140 119134 81115 90936;
0017994270999992010011211004+42967-070617FM-12+0019IOSN3V0202901N007219999999N9999999N1-00171-00721101441ADDMD1610041+9999
0017994270999992010011212004+42967-070617FM-12+0019IOSN3V0202901N006219999999N9999999N1-00181-00731101441ADDMD1410001+9999
0243994270999992010011213004+42967-070617FM-12+0019IOSN3V0202901N005719999999N9999999N1-00191-00721101451ADDMD1410001+9999OA139900671REMSYN206CMAN  12134 IOSN3 46/// /2911 11019 21072 40145 54000 91300 333 91213 555 11011 22011 31205 429015 61259 293012 295012 294012 292012 29017 32011 311249 111137 111137 113148 114142 113137 111138 81116 91224;
0017994270999992010011214004+42967-070617FM-12+0019IOSN3V0203001N006719999999N9999999N1-00171-00681101461ADDMD1410001+9999
0017994270999992010011215004+42967-070617FM-12+0019IOSN3V0203201N007219999999N9999999N1-00141-00721101481ADDMD1210041+9999
0017994270999992010011216004+42967-070617FM-12+0019IOSN3V0203001N006719999999N9999999N1-00151-00821101421ADDMD1810031+9999
0017994270999992010011217004+42967-070617FM-12+0019IOSN3V0202901N007719999999N9999999N1-00191-00991101291ADDMD1810171+9999
0195994270999992010011218004+42967-070617FM-12+0019IOSN3V0202901N009819999999N9999999N1-00201-01121101191ADDMD1810291+9999OA139901181REMSYN158CMAN  12184 IOSN3 46/// /2919 11020 21112 40119 58029 91800 333 91223 555 11018 22019 31758 429023 61759 289019 304019 299018 291018 291 306011 317012 317014;
0017994270999992010011219004+42967-070617FM-12+0019IOSN3V0203101N013419999999N9999999N1-00241-01091101141ADDMD1610281+9999
0017994270999992010011220004+42967-070617FM-12+0019IOSN3V0203001N013419999999N9999999N1-00301-01361101111ADDMD1610181+9999
0017994270999992010011221004+42967-070617FM-12+0019IOSN3V0203101N012919999999N9999999N1-00351-01311101161ADDMD1510031+9999
0017994270999992010011222004+42967-070617FM-12+0019IOSN3V0203101N014919999999N9999999N1-00501-01501101261ADDMD1310121+9999
0017994270999992010011223004+42967-070617FM-12+0019IOSN3V0203001N012919999999N9999999N1-00571-01601101341ADDMD1310231+9999
0017994270999992010011300004+42967-070617FM-12+0019IOSN3V0203101N009819999999N9999999N1-00641-01591101451ADDMD1310291+9999
0017994270999992010011301004+42967-070617FM-12+0019IOSN3V0203101N011819999999N9999999N1-00701-01531101491ADDMD1110231+9999
0243994270999992010011302004+42967-070617FM-12+0019IOSN3V0203001N007719999999N9999999N1-00771-01481101581ADDMD1110241+9999OA139900931REMSYN206CMAN  13024 IOSN3 46/// /3015 11077 21148 40158 51024 90200 333 91218 555 11014 22015 30123 432028 60159 306018 314019 311018 325022 31013 32023 330149 115127 113127 111115 126107 113113 117116 81114 90137;
0017994270999992010011303004+42967-070617FM-12+0019IOSN3V0203101N009819999999N9999999N1-00811-01481101641ADDMD1310191+9999
0243994270999992010011304004+42967-070617FM-12+0019IOSN3V0203101N010319999999N9999999N1-00861-01521101681ADDMD1110191+9999OA139901241REMSYN206CMAN  13044 IOSN3 46/// /3120 11086 21152 40168 51019 90400 333 91224 555 11019 22020 30343 431025 60359 308020 304020 302019 303018 30025 22025 330349 125126 123126 122129 121119 121121 123118 81214 90326;
0243994270999992010011305004+42967-070617FM-12+0019IOSN3V0203101N009819999999N9999999N1-00881-01641101671ADDMD1110091+9999OA139901181REMSYN206CMAN  13054 IOSN3 46/// /3119 11088 21164 40167 51009 90500 333 91223 555 11018 22019 30438 431023 60459 306019 310019 313019 308018 30011 31023 340449 125121 126123 123121 120120 121122 125127 81314 90432;
0017994270999992010011306004+42967-070617FM-12+0019IOSN3V0203001N008719999999N9999999N1-00891-01571101651ADDMD1010001+9999
0017994270999992010011307004+42967-070617FM-12+0019IOSN3V0202901N007719999999N9999999N1-00931-01621101701ADDMD1510001+9999
0195994270999992010011308004+42967-070617FM-12+0019IOSN3V0203001N009319999999N9999999N1-00931-01701101661ADDMD1010001+9999OA139901081REMSYN158CMAN  13084 IOSN3 46/// /3018 11093 21170 40166 50000 90800 333 91221 555 11017 22018 30759 430021 60759 293017 291016 292017 287017 28018 2222 341022 338022;
0017994270999992010011309004+42967-070617FM-12+0019IOSN3V0202901N008219999999N9999999N1-00941-01731101661ADDMD1010001+9999
0017994270999992010011310004+42967-070617FM-12+0019IOSN3V0202901N008219999999N9999999N1-00971-01711101691ADDMD1510001+9999
0017994270999992010011311004+42967-070617FM-12+0019IOSN3V0203001N008719999999N9999999N1-00971-01781101751ADDMD1310091+9999
0017994270999992010011312004+42967-070617FM-12+0019IOSN3V0202901N008219999999N9999999N1-00931-01761101791ADDMD1310131+9999
0017994270999992010011313004+42967-070617FM-12+0019IOSN3V0202901N008719999999N9999999N1-00911-01801101831ADDMD1110141+9999
0017994270999992010011314004+42967-070617FM-12+0019IOSN3V0203001N007719999999N9999999N1-00841-01941101921ADDMD1310171+9999
0183994270999992010011315004+42967-070617FM-12+0019IOSN3V0203101N008219999999N9999999N1-00681-02071101931ADDMD1110141+9999OA139900881REMSYN146CMAN  13154 IOSN3 46/// /3116 11068 21207 40193 51014 91500 333 91217 555 11015 22016 31402 431021 61459 303015 305014 304015 305014 31019 337014;
0183994270999992010011316004+42967-070617FM-12+0019IOSN3V0202901N006219999999N9999999N1-00551-02011101891ADDMD1010061+9999OA139900721REMSYN146CMAN  13164 IOSN3 46/// /2912 11055 21201 40189 50006 91600 333 91214 555 11011 22012 31516 430017 61559 288012 284012 285011 287012 29016 338011;
0017994270999992010011317004+42967-070617FM-12+0019IOSN3V0202901N008219999999N9999999N1-00421-02041101791ADDMD1810131+9999
0176994270999992010011318004+42967-070617FM-12+0019IOSN3V0202801N008219999999N9999999N1-00321+99999101751ADDMD1710181+9999OA139900931REMSYN139CMAN  13184 IOSN3 46/// /2816 11032 40175 57018 91800 333 91218 555 11015 22016 31719 429020 61759 286016 286016 292016 291016 28035 52101;
0183994270999992010011319004+42967-070617FM-12+0019IOSN3V0202901N008219999999N9999999N1-00311+99999101771ADDMD1610121+9999OA139900931REMSYN146CMAN  13194 IOSN3 46/// /2916 11031 40177 56012 91900 333 91218 555 11015 22016 31835 428019 61859 288016 287015 287016 288014 2910 353010 351012;
0017994270999992010011320004+42967-070617FM-12+0019IOSN3V0202801N009319999999N9999999N1-00371+99999101781ADDMD1510001+9999
0017994270999992010011321004+42967-070617FM-12+0019IOSN3V0202901N009819999999N9999999N1-00381-01911101811ADDMD1310061+9999
0183994270999992010011322004+42967-070617FM-12+0019IOSN3V0202901N008719999999N9999999N1-00371-01491101861ADDMD1310091+9999OA139901031REMSYN146CMAN  13224 IOSN3 46/// /2917 11037 21149 40186 53009 92200 333 91220 555 11016 22017 32100 429022 62159 291017 287017 284017 285017 29012 016008;
0017994270999992010011323004+42967-070617FM-12+0019IOSN3V0203001N008719999999N9999999N1-00441-01231101901ADDMD1310121+9999
0017994270999992010011400004+42967-070617FM-12+0019IOSN3V0203001N007719999999N9999999N1-00411-01301101951ADDMD1210141+9999
0017994270999992010011401004+42967-070617FM-12+0019IOSN3V0203101N008219999999N9999999N1-00381-01271101971ADDMD1110111+9999
0017994270999992010011402004+42967-070617FM-12+0019IOSN3V0203001N006719999999N9999999N1-00381-01311102001ADDMD1110101+9999
0017994270999992010011403004+42967-070617FM-12+0019IOSN3V0202901N006219999999N9999999N1-00391-01151102051ADDMD1310101+9999
0243994270999992010011404004+42967-070617FM-12+0019IOSN3V0203001N004619999999N9999999N1-00401-01081102121ADDMD1310151+9999OA139900571REMSYN206CMAN  14044 IOSN3 46/// /3009 11040 21108 40212 53015 90400 333 91211 555 11009 22009 30305 430014 60359 301010 305010 302011 298011 29012 32017 310349 207084 197080 194084 192083 189084 168082 82110 90341;
0017994270999992010011405004+42967-070617FM-12+0019IOSN3V0203001N004119999999N9999999N1-00411-01021102151ADDMD1110151+9999
0017994270999992010011406004+42967-070617FM-12+0019IOSN3V0203101N003619999999N9999999N1-00391-00971102221ADDMD1210171+9999
0177994270999992010011407004+42967-070617FM-12+0019IOSN3V0203201N004619999999N9999999N1-00401-01021102281ADDMD1310161+9999OA139900511REMSYN140CMAN  14074 IOSN3 46/// /3209 11040 21102 40228 53016 90700 333 91210 555 11008 22009 30658 432010 60659 318008 310007 309007 302008 29////;
0017994270999992010011408004+42967-070617FM-12+0019IOSN3V0203201N004619999999N9999999N1-00401-01031102321ADDMD1110171+9999
0017994270999992010011409004+42967-070617FM-12+0019IOSN3V0203401N004119999999N9999999N1-00351-00931102321ADDMD1110101+9999
0195994270999992010011410004+42967-070617FM-12+0019IOSN3V0203501N003119999999N9999999N1-00331-00991102371ADDMD1310091+9999OA139900411REMSYN158CMAN  14104 IOSN3 46/// /3506 11033 21099 40237 53009 91000 333 91208 555 11006 22006 30920 401011 60959 350007 356007 356008 003009 35016 2307 334007 325008;
0183994270999992010011411004+42967-070617FM-12+0019IOSN3V0200101N003119999999N9999999N1-00321-00911102441ADDMD1310121+9999OA139900411REMSYN146CMAN  14114 IOSN3 46/// /0106 11032 21091 40244 53012 91100 333 91208 555 11006 22006 31053 402010 61059 014007 004007 005006 008006 35014 238014;
0243994270999992010011412004+42967-070617FM-12+0019IOSN3V0203601N002619999999N9999999N1-00301-00871102511ADDMD1310191+9999OA139900311REMSYN206CMAN  14124 IOSN3 46/// /3605 11030 21087 40251 53019 91200 333 91206 555 11005 22005 31100 403010 61159 005005 007006 010006 016006 00010 09009 011149 185059 188056 196067 200070 194073 196071 82008 91057;
0219994270999992010011413004+42967-070617FM-12+0019IOSN3V0203201N003619999999N9999999N1-00401-00761102571ADDMD1110201+9999OA139900411REMSYN182CMAN  14134 IOSN3 46/// /3207 11040 21076 40257 51020 91300 333 91208 555 11006 22007 31243 431010 61259 317007 313008 335006 007004 00010 07008 02323099 328084 328086 323097 323106;
0243994270999992010011414004+42967-070617FM-12+0019IOSN3V0203501N003619999999N9999999N1-00331-00791102601ADDMD1110161+9999OA139900461REMSYN206CMAN  14144 IOSN3 46/// /3507 11033 21079 40260 51016 91400 333 91209 555 11006 22007 31345 434009 61359 350007 347007 335007 338008 34008 07007 011349 169059 157059 147058 157064 156057 161059 81607 91315;
0195994270999992010011415004+42967-070617FM-12+0019IOSN3V0203601N003119999999N9999999N1-00311-00711102641ADDMD1110131+9999OA139900411REMSYN158CMAN  14154 IOSN3 46/// /3606 11031 21071 40264 51013 91500 333 91208 555 11006 22006 31419 435009 61459 355007 345007 347007 341007 3508 022008 027B// 7RD//;
0017994270999992010011416004+42967-070617FM-12+0019IOSN3V0200201N002619999999N9999999N1-00181-00711102601ADDMD1010031+9999
0177994270999992010011417004+42967-070617FM-12+0019IOSN3V0200501N000519999999N9999999N1-00101-00711102551ADDMD1810051+9999OA139900101REMSYN140CMAN  14174 IOSN3 46/// /0501 11010 21071 40255 58005 91700 333 91202 555 11001 22001 31601 403008 61659 012002 038002 023003 021004 04////;
0178994270999992010011418004+42967-070617FM-12+0019IOSN3V0209999C000019999999N9999999N1+00091-00781102501ADDMD1810141+9999OA139900001REMSYN141CMAN  14184 IOSN3 46/// /0000 10009 21078 40250 58014 91800 333 91200 555 31724 401003 61759 199001 338001 326001 356002 0104 218004 21/////;
0017994270999992010011419004+42967-070617FM-12+0019IOSN3V0201701N001519999999N9999999N1+00001-00751102481ADDMD1610121+9999
0017994270999992010011420004+42967-070617FM-12+0019IOSN3V0201501N004619999999N9999999N1+00081-00591102451ADDMD1610101+9999
0183994270999992010011421004+42967-070617FM-12+0019IOSN3V0201901N006219999999N9999999N1+00051-00821102411ADDMD1810091+9999OA139900721REMSYN146CMAN  14214 IOSN3 46/// /1912 10005 21082 40241 58009 92100 333 91214 555 11011 22012 32057 419015 62059 176012 164011 165011 169010 17009 104011;
0017994270999992010011422004+42967-070617FM-12+0019IOSN3V0201901N006719999999N9999999N1+00091-00711102371ADDMD1810111+9999
0183994270999992010011423004+42967-070617FM-12+0019IOSN3V0201901N007719999999N9999999N1+00121-00591102351ADDMD1610101+9999OA139900881REMSYN146CMAN  14234 IOSN3 46/// /1915 10012 21059 40235 56010 92300 333 91217 555 11015 22016 32257 419017 62259 186015 185015 182012 187013 18014 081013;
0183994270999992010011500004+42967-070617FM-12+0019IOSN3V0201901N009819999999N9999999N1+00181-00491102321ADDMD1610091+9999OA139901081REMSYN146CMAN  15004 IOSN3 46/// /1919 10018 21049 40232 56009 90000 333 91221 555 11018 22019 32357 418021 62359 183019 182019 182019 187017 19014 089013;
0017994270999992010011501004+42967-070617FM-12+0019IOSN3V0202001N011819999999N9999999N1+00181-00531102261ADDMD1810111+9999
0183994270999992010011502004+42967-070617FM-12+0019IOSN3V0202001N011819999999N9999999N1+00151-00481102221ADDMD1810131+9999OA139901291REMSYN146CMAN  15024 IOSN3 46/// /2023 10015 21048 40222 58013 90200 333 91225 555 11021 22023 30127 420028 60159 199023 198024 200025 200026 19016 088016;
0017994270999992010011503004+42967-070617FM-12+0019IOSN3V0202101N012919999999N9999999N1+00131-00361102111ADDMD1810211+9999
0017994270999992010011504004+42967-070617FM-12+0019IOSN3V0202101N014919999999N9999999N1+00091-00291102021ADDMD1810241+9999
0017994270999992010011505004+42967-070617FM-12+0019IOSN3V0202101N013919999999N9999999N1+00131-00181101941ADDMD1610281+9999
0017994270999992010011506004+42967-070617FM-12+0019IOSN3V0202201N012919999999N9999999N1+00131-00191101881ADDMD1610231+9999
0243994270999992010011507004+42967-070617FM-12+0019IOSN3V0202201N013419999999N9999999N1+00151-00301101811ADDMD1610211+9999OA139901441REMSYN206CMAN  15074 IOSN3 46/// /2226 10015 21030 40181 56021 90700 333 91228 555 11024 22026 30656 421030 60659 218026 218026 218026 218026 210642 43204 60649 320029 317029 322027 321029 328028 323030 83304 90642;
0243994270999992010011508004+42967-070617FM-12+0019IOSN3V0202101N012319999999N9999999N1+00181-00261101781ADDMD1610161+9999OA139901291REMSYN206CMAN  15084 IOSN3 46/// /2124 10018 21026 40178 56016 90800 333 91225 555 11022 22024 30711 422029 60759 215024 215023 219024 224023 2213 238014 240749 284030 299026 294022 287023 307026 311026 82804 90747;
0243994270999992010011509004+42967-070617FM-12+0019IOSN3V0202301N010319999999N9999999N1+00161-00331101731ADDMD1610151+9999OA139901081REMSYN206CMAN  15094 IOSN3 46/// /2320 10016 21033 40173 56015 90900 333 91221 555 11019 22020 30808 422027 60859 225019 225019 225021 222023 2115 223015 220849 305038 304037 287029 284030 283028 272031 83004 90840;
0017994270999992010011510004+42967-070617FM-12+0019IOSN3V0202201N010319999999N9999999N1+00151-00331101641ADDMD1810171+9999
0017994270999992010011511004+42967-070617FM-12+0019IOSN3V0202401N007719999999N9999999N1+00151-00411101651ADDMD1610131+9999
0017994270999992010011512004+42967-070617FM-12+0019IOSN3V0202401N007219999999N9999999N1+00161-00401101671ADDMD1610061+9999
0195994270999992010011513004+42967-070617FM-12+0019IOSN3V0202401N007719999999N9999999N1+00161-00361101641ADDMD1010001+9999OA139900881REMSYN158CMAN  15134 IOSN3 46/// /2415 10016 21036 40164 50000 91300 333 91217 555 11014 22015 31244 424020 61259 237016 237017 235016 238015 23015 2521 237020 239022;
0243994270999992010011514004+42967-070617FM-12+0019IOSN3V0202501N008719999999N9999999N1+00231-00301101621ADDMD1710031+9999OA139900981REMSYN206CMAN  15144 IOSN3 46/// /2517 10023 21030 40162 57003 91400 333 91219 555 11016 22018 31347 424019 61359 243017 239017 236016 232016 23019 11020 241349 285041 287042 291042 293044 292046 287048 82906 91257;
0195994270999992010011515004+42967-070617FM-12+0019IOSN3V0202501N007719999999N9999999N1+00281-00331101671ADDMD1510001+9999OA139900821REMSYN158CMAN  15154 IOSN3 46/// /2515 10028 21033 40167 55000 91500 333 91216 555 11014 22015 31408 425021 61459 249015 253016 251014 249016 25019 12022 237R// 7R///;
0017994270999992010011516004+42967-070617FM-12+0019IOSN3V0202401N007719999999N9999999N1+00391-00271101591ADDMD1810051+9999
0243994270999992010011517004+42967-070617FM-12+0019IOSN3V0202701N010319999999N9999999N1+00671-00221101471ADDMD1810151+9999OA139901131REMSYN206CMAN  15174 IOSN3 46/// /2720 10067 21022 40147 58015 91700 333 91222 555 11018 22020 31651 427024 61659 270020 262015 249012 240014 23015 23018 231649 256025 268027 275029 281032 264042 262035 82605 91604;
0219994270999992010011518004+42967-070617FM-12+0019IOSN3V0202601N008719999999N9999999N1+00621-00201101471ADDMD1610201+9999OA139900981REMSYN182CMAN  15184 IOSN3 46/// /2617 10062 21020 40147 56020 91800 333 91219 555 11016 22017 31720 427023 61759 263018 261018 258017 269018 271749 088042 085041 086037 078041 074041 080043;
0017994270999992010011519004+42967-070617FM-12+0019IOSN3V0202801N009319999999N9999999N1+00651-00171101471ADDMD1610121+9999
0017994270999992010011520004+42967-070617FM-12+0019IOSN3V0202801N007719999999N9999999N1+00641-00141101521ADDMD1310051+9999
0243994270999992010011521004+42967-070617FM-12+0019IOSN3V0202701N006219999999N9999999N1+00601-00111101601ADDMD1310131+9999OA139900671REMSYN206CMAN  15214 IOSN3 46/// /2712 10060 21011 40160 53013 92100 333 91213 555 11011 22012 32027 428019 62059 269011 272013 274015 274017 27017 13015 252049 172072 184063 187057 179066 185050 190060 81808 92045;
0017994270999992010011522004+42967-070617FM-12+0019IOSN3V0202701N007719999999N9999999N1+00581-00081101651ADDMD1210181+9999
0017994270999992010011523004+42967-070617FM-12+0019IOSN3V0202601N008719999999N9999999N1+00531-00081101681ADDMD1110161+9999
0017994270999992010011600004+42967-070617FM-12+0019IOSN3V0202601N009319999999N9999999N1+00511-00091101701ADDMD1110101+9999
0017994270999992010011601004+42967-070617FM-12+0019IOSN3V0202601N008719999999N9999999N1+00461-00071101741ADDMD1310091+9999
0017994270999992010011602004+42967-070617FM-12+0019IOSN3V0202601N007719999999N9999999N1+00431-00081101821ADDMD1310141+9999
0195994270999992010011603004+42967-070617FM-12+0019IOSN3V0202601N007719999999N9999999N1+00421-00121101871ADDMD1310171+9999OA139900821REMSYN158CMAN  16034 IOSN3 46/// /2615 10042 21012 40187 53017 90300 333 91216 555 11014 22015 30224 427019 60259 259015 262017 260016 264017 26019 10017 287/// 7R///;
0017994270999992010011604004+42967-070617FM-12+0019IOSN3V0202801N007219999999N9999999N1+00411-00181101871ADDMD1110131+9999
0017994270999992010011605004+42967-070617FM-12+0019IOSN3V0202801N004619999999N9999999N1+00391-00171101911ADDMD1110091+9999
0017994270999992010011606004+42967-070617FM-12+0019IOSN3V0202401N002619999999N9999999N1+00371-00141101911ADDMD1210041+9999
0243994270999992010011607004+42967-070617FM-12+0019IOSN3V0202401N005119999999N9999999N1+00331-00151101911ADDMD1110041+9999OA139900511REMSYN206CMAN  16074 IOSN3 46/// /2410 10033 21015 40191 51004 90700 333 91210 555 11009 22010 30612 427011 60659 245009 240009 242010 245008 25023 11015 280649 139120 143123 147119 146121 148111 155116 81414 90614;
0017994270999992010011608004+42967-070617FM-12+0019IOSN3V0202401N004619999999N9999999N1+00301-00111101851ADDMD1810061+9999
0243994270999992010011609004+42967-070617FM-12+0019IOSN3V0202501N007219999999N9999999N1+00291-00131101881ADDMD1510031+9999OA139900771REMSYN206CMAN  16094 IOSN3 46/// /2514 10029 21013 40188 55003 90900 333 91215 555 11013 22014 30859 425015 60859 246014 250013 249012 251011 25023 11013 270849 076102 083101 093108 091092 090108 089102 80913 90806;
0017994270999992010011610004+42967-070617FM-12+0019IOSN3V0202301N007719999999N9999999N1+00241-00211101851ADDMD1610061+9999
0195994270999992010011611004+42967-070617FM-12+0019IOSN3V0202301N008219999999N9999999N1+00251-00211101831ADDMD1010001+9999OA139900881REMSYN158CMAN  16114 IOSN3 46/// /2316 10025 21021 40183 50000 91100 333 91217 555 11015 22016 31027 425020 61059 236016 242017 248017 245016 247 265014 273014 271015;
0017994270999992010011612004+42967-070617FM-12+0019IOSN3V0202401N008219999999N9999999N1+00161-00251101841ADDMD1610041+9999
0017994270999992010011614004+42967-070617FM-12+0019IOSN3V0202401N008219999999N9999999N1+00181-00281101811ADDMD1410001+9999
0017994270999992010011615004+42967-070617FM-12+0019IOSN3V0202401N008719999999N9999999N1+00261-00291101771ADDMD1710071+9999
0229994270999992010011616004+42967-070617FM-12+0019IOSN3V0202401N009319999999N9999999N1+00381-00231101711ADDOA139900981REMSYN206CMAN  16164 IOSN3 46/// /2418 10038 21023 40171 91600 333 91219 555 11017 22018 31536 424020 61559 243016 245017 240018 240016 2428 112027 11018 251549 165171 163169 162166 162170 163164 162170 81719 91543;
0183994270999992010011617004+42967-070617FM-12+0019IOSN3V0202701N007719999999N9999999N1+00501-00331101611ADDMD1810201+9999OA139900821REMSYN146CMAN  16174 IOSN3 46/// /2715 10050 21033 40161 58020 91700 333 91216 555 11015 22016 31627 426019 61659 266015 269015 267016 259016 24027 110006;
0225994270999992010011618004+42967-070617FM-12+0019IOSN3V0202601N007219999999N9999999N1+00631-00431101521ADDMD1810251+9999OA139900771REMSYN188CMAN  16184 IOSN3 46/// /2614 10063 21043 40152 58025 91800 333 91215 555 11013 22014 31729 427018 61759 259014 265016 269017 276016 27027 11022 250126 60000 60037 60300 70000 77/// 7R///;
0017994270999992010011620004+42967-070617FM-12+0019IOSN3V0202601N008219999999N9999999N1+00801-00481101491ADDMD1710121+9999
0243994270999992010011621004+42967-070617FM-12+0019IOSN3V0202701N007219999999N9999999N1+00791-00481101581ADDMD1210061+9999OA139900771REMSYN206CMAN  16214 IOSN3 46/// /2714 10079 21048 40158 52006 92100 333 91215 555 11013 22014 32000 426017 62059 271014 272012 273012 273013 27023 13024 242049 154200 153203 152199 153204 151195 149195 81523 92021;
0000994270999992010011622004+42967-070617FM-12+0019IOSN3V0202901N005719999999N9999999N1+00721-00391101711
0243994270999992010011623004+42967-070617FM-12+0019IOSN3V0202901N005119999999N9999999N1+00681-00431101801ADDMD1210311+9999OA139900571REMSYN206CMAN  16234 IOSN3 46/// /2910 10068 21043 40180 52031 92300 333 91211 555 11010 22010 32234 429015 62259 290011 292011 290012 291012 28023 13018 252249 148199 151205 152200 151189 149192 151191 81422 92245;
0017994270999992010011700004+42967-070617FM-12+0019IOSN3V0202801N006219999999N9999999N1+00561-00391101891ADDMD1110311+9999
0017994270999992010011701004+42967-070617FM-12+0019IOSN3V0202601N006219999999N9999999N1+00491-00331101911ADDMD1110201+9999
0017994270999992010011702004+42967-070617FM-12+0019IOSN3V0202801N005719999999N9999999N1+00431-00311101941ADDMD1110141+9999
0017994270999992010011703004+42967-070617FM-12+0019IOSN3V0202801N005719999999N9999999N1+00361-00311101961ADDMD1210071+9999
0017994270999992010011704004+42967-070617FM-12+0019IOSN3V0202801N005119999999N9999999N1+00321-00301102001ADDMD1310091+9999
0017994270999992010011705004+42967-070617FM-12+0019IOSN3V0202801N005719999999N9999999N1+00271-00281102081ADDMD1310141+9999
0017994270999992010011706004+42967-070617FM-12+0019IOSN3V0203001N004119999999N9999999N1+00221-00261102081ADDMD1110121+9999
0017994270999992010011707004+42967-070617FM-12+0019IOSN3V0203201N004119999999N9999999N1+00221-00261102111ADDMD1110111+9999
0017994270999992010011708004+42967-070617FM-12+0019IOSN3V0203401N003619999999N9999999N1+00211-00171102101ADDMD1410001+9999
0195994270999992010011709004+42967-070617FM-12+0019IOSN3V0203501N003619999999N9999999N1+00261-00211102151ADDMD1310071+9999OA139900411REMSYN158CMAN  17094 IOSN3 46/// /3507 10026 21021 40215 53007 90900 333 91208 555 11006 22007 30808 435009 60859 349006 355005 354005 349005 344 307004 327004 346007;
0017994270999992010011710004+42967-070617FM-12+0019IOSN3V0200301N002119999999N9999999N1+00271-00131102181ADDMD1310071+9999
0195994270999992010011711004+42967-070617FM-12+0019IOSN3V0200301N002619999999N9999999N1+00281-00121102191ADDMD1110091+9999OA139900261REMSYN158CMAN  17114 IOSN3 46/// /0305 10028 21012 40219 51009 91100 333 91205 555 11005 22005 31058 403005 61059 020004 026003 023002 023002 02017 2306 347006 341006;
0195994270999992010011712004+42967-070617FM-12+0019IOSN3V0209999C000019999999N9999999N1+00301-00061102231ADDMD1310081+9999OA139900051REMSYN158CMAN  17124 IOSN3 46/// /0000 10030 21006 40223 53008 91200 333 91201 555 11001 22001 31112 404006 61159 012002 018003 023004 024004 047 008008 004007 007006;
0017994270999992010011713004+42967-070617FM-12+0019IOSN3V0202901N002119999999N9999999N1+00171-00111102311ADDMD1310131+9999
0195994270999992010011714004+42967-070617FM-12+0019IOSN3V0203301N003119999999N9999999N1+00111-00171102351ADDMD1210161+9999OA139900361REMSYN158CMAN  17144 IOSN3 46/// /3306 10011 21017 40235 52016 91400 333 91207 555 11006 22006 31342 432007 61359 328006 321006 316006 304005 289 039009 037008 033009;
0017994270999992010011715004+42967-070617FM-12+0019IOSN3V0200201N004119999999N9999999N1+00241-00091102331ADDMD1110101+9999
0017994270999992010011716004+42967-070617FM-12+0019IOSN3V0201001N008719999999N9999999N1+00421+00061102211ADDMD1810101+9999
0243994270999992010011717004+42967-070617FM-12+0019IOSN3V0201001N011319999999N9999999N1+00381+00061102081ADDMD1810271+9999OA139901181REMSYN206CMAN  17174 IOSN3 46/// /1022 10038 20006 40208 58027 91700 333 91223 555 11020 22022 31652 410024 61659 102021 102020 103020 103019 10016 23009 051649 123098 117104 119095 128095 129123 134092 81313 91606;
0225994270999992010011718004+42967-070617FM-12+0019IOSN3V0201001N011319999999N9999999N1+00351+00081102001ADDMD1610331+9999OA139901241REMSYN188CMAN  17184 IOSN3 46/// /1022 10035 20008 40200 56033 91800 333 91224 555 11020 22022 31753 411024 61759 107022 109021 105021 105021 1014 097013 090134 60000 60157 60515 70000 77R// 7TR//;
0195994270999992010011719004+42967-070617FM-12+0019IOSN3V0201101N012319999999N9999999N1+00361+00121101961ADDMD1610251+9999OA139901341REMSYN158CMAN  17194 IOSN3 46/// /1124 10036 20012 40196 56025 91900 333 91226 555 11022 22024 31858 411026 61859 111023 113022 116022 114022 10015 2413 109013 100014;
0017994270999992010011720004+42967-070617FM-12+0019IOSN3V0201001N011319999999N9999999N1+00321+00121101901ADDMD1610181+9999
0017994270999992010011721004+42967-070617FM-12+0019IOSN3V0201201N011819999999N9999999N1+00371+00151101961ADDMD1510041+9999
0017994270999992010011722004+42967-070617FM-12+0019IOSN3V0201201N010319999999N9999999N1+00381+00181101921ADDMD1610041+9999
0017994270999992010011723004+42967-070617FM-12+0019IOSN3V0201101N011819999999N9999999N1+00371+00181101801ADDMD1810101+9999
0017994270999992010011800004+42967-070617FM-12+0019IOSN3V0201001N012319999999N9999999N1+00411+00131101701ADDMD1810261+9999
0017994270999992010011801004+42967-070617FM-12+0019IOSN3V0201001N013419999999N9999999N1+00391+00111101621ADDMD1610301+9999
0017994270999992010011802004+42967-070617FM-12+0019IOSN3V0200901N013919999999N9999999N1+00331+00101101491ADDMD1810311+9999
0243994270999992010011803004+42967-070617FM-12+0019IOSN3V0200901N014419999999N9999999N1+00311+00101101411ADDMD1710291+9999OA139901601REMSYN206CMAN  18034 IOSN3 46/// /0928 10031 20010 40141 57029 90300 333 91231 555 11026 22028 30242 409031 60259 090028 089027 090027 091028 0924 079023 070249 200023 200027 200030 199031 191035 177037 81805 90155;
0243994270999992010011804004+42967-070617FM-12+0019IOSN3V0200801N013919999999N9999999N1+00291+00151101311ADDMD1610311+9999OA139901541REMSYN206CMAN  18044 IOSN3 46/// /0827 10029 20015 40131 56031 90400 333 91230 555 11026 22027 30348 408032 60359 083028 083027 085027 086028 0926 075027 070349 184026 189027 197029 194028 201021 196035 81904 90255;
0243994270999992010011805004+42967-070617FM-12+0019IOSN3V0200801N013419999999N9999999N1+00251+00121101171ADDMD1810321+9999OA139901491REMSYN206CMAN  18054 IOSN3 46/// /0826 10025 20012 40117 58032 90500 333 91229 555 11025 22027 30449 408032 60459 079028 081028 079028 081028 08011 27028 070449 173015 171014 168019 172024 190024 183027 81803 90351;
0195994270999992010011806004+42967-070617FM-12+0019IOSN3V0200701N015919999999N9999999N1+00161+00111100951ADDMD1810461+9999OA139901701REMSYN158CMAN  18064 IOSN3 46/// /0731 10016 20011 40095 58046 90600 333 91233 555 11029 22031 30516 407033 60559 068030 069030 071029 072029 07010 26035 062035 92438;
0017994270999992010011807004+42967-070617FM-12+0019IOSN3V0200601N017019999999N9999999N1+00051+00011100841ADDMD1610471+9999
0177994270999992010011808004+42967-070617FM-12+0019IOSN3V0200601N017019999999N9999999N1+00111+00081100801ADDMD1610371+9999OA139901901REMSYN140CMAN  18084 IOSN3 46/// /0633 10011 20008 40080 56037 90800 333 91237 555 11031 22033 30759 406037 60759 060032 059030 060030 061029 069009;
0195994270999992010011809004+42967-070617FM-12+0019IOSN3V0200401N017519999999N9999999N1+00101+00081100601ADDMD1810351+9999OA139902011REMSYN158CMAN  18094 IOSN3 46/// /0434 10010 20008 40060 58035 90900 333 91239 555 11032 22034 30840 405040 60859 041032 045033 048032 050033 055 030036 032035 032033;
0017994270999992010011810004+42967-070617FM-12+0019IOSN3V0200101N017019999999N9999999N1-00081-00101100611ADDMD1610231+9999
0195994270999992010011811004+42967-070617FM-12+0019IOSN3V0200101N019519999999N9999999N1-00121-00151100581ADDMD1610221+9999OA139902111REMSYN158CMAN  18114 IOSN3 46/// /0138 11012 21015 40058 56022 91100 333 91241 555 11036 22039 31036 401043 61059 011037 012036 013036 014035 017 021036 021037 022036;
0195994270999992010011812004+42967-070617FM-12+0019IOSN3V0200101N018519999999N9999999N1-00121-00201100581ADDMD1410001+9999OA139902111REMSYN158CMAN  18124 IOSN3 46/// /0136 11012 21020 40058 54000 91200 333 91241 555 11033 22036 31127 402045 61159 011037 012036 012038 013038 019 017039 016038 016039;
0195994270999992010011813004+42967-070617FM-12+0019IOSN3V0200101N018519999999N9999999N1-00151-00241100631ADDMD1510001+9999OA139902111REMSYN158CMAN  18134 IOSN3 46/// /0136 11015 21024 40063 55000 91300 333 91241 555 11034 22036 31233 401044 61259 007036 010038 011037 012037 019 011038 012040 013039;
0178994270999992010011814004+42967-070617FM-12+0019IOSN3V0200101N017019999999N9999999N1-00101-00241100701ADDMD1310121+9999OA139902061REMSYN141CMAN  18144 IOSN3 46/// /0133 11010 21024 40070 53012 91400 333 91240 555 11031 22033 31343 401043 61359 013037 013036 011036 011036 00/////;
0017994270999992010011815004+42967-070617FM-12+0019IOSN3V0200101N018019999999N9999999N1-00121-00241100761ADDMD1310181+9999
0017994270999992010011816004+42967-070617FM-12+0019IOSN3V0200101N017519999999N9999999N1-00101-00261100761ADDMD1110131+9999
0017994270999992010011817004+42967-070617FM-12+0019IOSN3V0200101N016419999999N9999999N1-00081-00281100761ADDMD1110061+9999
0195994270999992010011818004+42967-070617FM-12+0019IOSN3V0203601N013919999999N9999999N1-00061-00251100821ADDMD1310061+9999OA139901541REMSYN158CMAN  18184 IOSN3 46/// /3627 11006 21025 40082 53006 91800 333 91230 555 11025 22027 31711 401039 61759 006029 007030 008030 011031 012 359031 356030 358031;
0017994270999992010011819004+42967-070617FM-12+0019IOSN3V0203601N012919999999N9999999N1-00041-00241100871ADDMD1310111+9999
0017994270999992010011820004+42967-070617FM-12+0019IOSN3V0200201N012919999999N9999999N1-00041-00291100931ADDMD1210171+9999
0195994270999992010011821004+42967-070617FM-12+0019IOSN3V0200301N012319999999N9999999N1+00001-00241100961ADDMD1110141+9999OA139901341REMSYN158CMAN  18214 IOSN3 46/// /0324 10000 21024 40096 51014 92100 333 91226 555 11023 22024 32006 402030 62059 030025 028025 022025 021025 01014 2629 004028 003026;
0017994270999992010011822004+42967-070617FM-12+0019IOSN3V0200101N011319999999N9999999N1+00001-00251101101ADDMD1310231+9999
0017994270999992010011823004+42967-070617FM-12+0019IOSN3V0203501N008719999999N9999999N1-00071-00351101251ADDMD1310321+9999
0017994270999992010011900004+42967-070617FM-12+0019IOSN3V0200101N006719999999N9999999N1-00061-00351101301ADDMD1110341+9999
0243994270999992010011901004+42967-070617FM-12+0019IOSN3V0200101N007219999999N9999999N1-00031-00331101381ADDMD1110281+9999OA139900771REMSYN206CMAN  19014 IOSN3 46/// /0114 11003 21033 40138 51028 90100 333 91215 555 11013 22014 30016 401017 60059 014013 019014 014014 011014 00015 24017 350049 122100 126102 127090 124088 127085 129092 81311 90041;
0017994270999992010011902004+42967-070617FM-12+0019IOSN3V0200201N008219999999N9999999N1-00031-00271101391ADDMD1110141+9999
0189994270999992010011903004+42967-070617FM-12+0019IOSN3V0200201N005719999999N9999999N1-00011-00281101461ADDMD1110161+9999OA139900621REMSYN152CMAN  19034 IOSN3 46/// /0211 11001 21028 40146 51016 90300 333 91212 555 11010 22011 30210 401017 60259 023012 020013 019013 021014 02013 31013 34RD//;
0017994270999992010011904004+42967-070617FM-12+0019IOSN3V0200301N005119999999N9999999N1+00021-00201101501ADDMD1310121+9999
0017994270999992010011905004+42967-070617FM-12+0019IOSN3V0200101N004119999999N9999999N1+00011-00231101531ADDMD1110141+9999
0189994270999992010011906004+42967-070617FM-12+0019IOSN3V0203601N003619999999N9999999N1-00021-00201101521ADDMD1110061+9999OA139900461REMSYN152CMAN  19064 IOSN3 46/// /3607 11002 21020 40152 51006 90600 333 91209 555 11007 22007 30516 435013 60559 000008 008009 007007 000010 35012 00006 342434;
0017994270999992010011907004+42967-070617FM-12+0019IOSN3V0203301N003619999999N9999999N1-00071-00251101581ADDMD1310081+9999
0017994270999992010011908004+42967-070617FM-12+0019IOSN3V0203601N004619999999N9999999N1-00071-00221101551ADDMD1010001+9999
0195994270999992010011909004+42967-070617FM-12+0019IOSN3V0203601N003619999999N9999999N1-00011-00141101571ADDMD1110051+9999OA139900411REMSYN158CMAN  19094 IOSN3 46/// /3607 11001 21014 40157 51005 90900 333 91208 555 11007 22007 30819 436012 60859 006007 007008 006008 000009 35010 0003 329000 314002;
0017994270999992010011910004+42967-070617FM-12+0019IOSN3V0200301N004119999999N9999999N1+00041-00061101551ADDMD1610031+9999
0017994270999992010011911004+42967-070617FM-12+0019IOSN3V0200101N003119999999N9999999N1+00151+00031101561ADDMD1410001+9999
0243994270999992010011912004+42967-070617FM-12+0019IOSN3V0203301N005119999999N9999999N1+00051-00071101541ADDMD1710031+9999OA139900571REMSYN206CMAN  19124 IOSN3 46/// /3310 10005 21007 40154 57003 91200 333 91211 555 11009 22010 31152 434012 61159 325008 084002 036002 018005 34010 33003 021149 175083 166094 162091 165097 162086 159080 81610 91116;
0017994270999992010011913004+42967-070617FM-12+0019IOSN3V0203401N004619999999N9999999N1-00021-00141101591ADDMD1310041+9999
0017994270999992010011914004+42967-070617FM-12+0019IOSN3V0200101N004119999999N9999999N1+00021-00061101591ADDMD1210031+9999
0225994270999992010011915004+42967-070617FM-12+0019IOSN3V0203301N003119999999N9999999N1+00011-00051101621ADDMD1110081+9999OA139900361REMSYN188CMAN  19154 IOSN3 46/// /3306 10001 21005 40162 51008 91500 333 91207 555 11006 22006 31403 436008 61459 338006 340007 340006 349006 001521 61449 145162 150153 152152 155148 148139 150150;
0017994270999992010011916004+42967-070617FM-12+0019IOSN3V0203301N003119999999N9999999N1-00041-00091101591ADDMD1010001+9999
0017994270999992010011917004+42967-070617FM-12+0019IOSN3V0200101N003119999999N9999999N1+00041-00361101511ADDMD1810081+9999
0017994270999992010011918004+42967-070617FM-12+0019IOSN3V0200301N003619999999N9999999N1+00071-00361101431ADDMD1810191+9999
0017994270999992010011919004+42967-070617FM-12+0019IOSN3V0200501N004119999999N9999999N1+00091+00051101351ADDMD1710241+9999
0243994270999992010011920004+42967-070617FM-12+0019IOSN3V0200801N002619999999N9999999N1+00121+00071101321ADDMD1610191+9999OA139900311REMSYN206CMAN  19204 IOSN3 46/// /0805 10012 20007 40132 56019 92000 333 91206 555 11005 22005 31910 406010 61959 079006 077006 072007 070008 06003 27017 141949 127087 126087 124087 125089 126090 125089 81310 91917;
0243994270999992010011921004+42967-070617FM-12+0019IOSN3V0200801N003119999999N9999999N1+00081+00041101301ADDMD1610131+9999OA139900361REMSYN206CMAN  19214 IOSN3 46/// /0806 10008 20004 40130 56013 92100 333 91207 555 11005 22006 32058 408007 62059 078005 079005 083005 086005 081959 41311 62049 138080 133083 132086 128089 130088 126086 81309 92016;
0243994270999992010011922004+42967-070617FM-12+0019IOSN3V0200501N002119999999N9999999N1+00071+00031101311ADDMD1610041+9999OA139900261REMSYN206CMAN  19224 IOSN3 46/// /0504 10007 20003 40131 56004 92200 333 91205 555 11004 22004 32102 408007 62159 055004 062005 069005 072005 07002 03010 202149 142072 141073 142068 143071 142076 142080 81409 92053;
0183994270999992010011923004+42967-070617FM-12+0019IOSN3V0200301N002619999999N9999999N1+00081+00051101281ADDMD1810041+9999OA139900311REMSYN146CMAN  19234 IOSN3 46/// /0305 10008 20005 40128 58004 92300 333 91206 555 11005 22005 32245 404007 62259 034005 039005 046004 052004 05002 193011;
0183994270999992010012000004+42967-070617FM-12+0019IOSN3V0200101N007219999999N9999999N1+00111+00081101241ADDMD1810061+9999OA139900821REMSYN146CMAN  20004 IOSN3 46/// /0114 10011 20008 40124 58006 90000 333 91216 555 11013 22014 32359 402016 62359 017013 015012 024009 025008 03006 05V///;
0017994270999992010012001004+42967-070617FM-12+0019IOSN3V0200101N009319999999N9999999N1+00081+00041101171ADDMD1810141+9999
0195994270999992010012002004+42967-070617FM-12+0019IOSN3V0203601N009819999999N9999999N1+00031-00031101141ADDMD1610141+9999OA139901031REMSYN158CMAN  20024 IOSN3 46/// /3619 10003 21003 40114 56014 90200 333 91220 555 11017 22019 30132 436021 60159 000018 003019 005019 004018 00010 0705 001006 009006;
0017994270999992010012003004+42967-070617FM-12+0019IOSN3V0203501N008219999999N9999999N1-00011-00081101131ADDMD1610111+9999
0017994270999992010012004004+42967-070617FM-12+0019IOSN3V0203601N007219999999N9999999N1-00041-00131101101ADDMD1710071+9999
0017994270999992010012005004+42967-070617FM-12+0019IOSN3V0203301N006219999999N9999999N1-00071-00171101081ADDMD1710061+9999
0287994270999992010012006004+42967-070617FM-12+0019IOSN3V0203201N007719999999N9999999N1-00071-00201101081ADDMD1610051+9999OA139900821REMSYN250CMAN  20064 IOSN3 46/// /3215 11007 21020 40108 56005 90600 333 91216 555 11014 22015 30557 432018 60559 322015 321014 322014 320014 31006 30009 2800 83818 88362 555 92006 91336 32474 80515 10294 20250 30102 40105 83101 333 561/9 70000 83818 88075 55
0017994270999992010012007004+42967-070617FM-12+0019IOSN3V0203401N007219999999N9999999N1-00051-00221101051ADDMD1810051+9999
0017994270999992010012008004+42967-070617FM-12+0019IOSN3V0203301N007219999999N9999999N1-00071-00261101031ADDMD1710051+9999
0243994270999992010012009004+42967-070617FM-12+0019IOSN3V0203201N006219999999N9999999N1-00071-00261101031ADDMD1610051+9999OA139900771REMSYN206CMAN  20094 IOSN3 46/// /3212 11007 21026 40103 56005 90900 333 91215 555 11012 22012 30833 434017 60859 322012 327014 332015 336015 330811 40102 60849 038006 036006 021011 017013 023011 058009 80202 90817;
0017994270999992010012010004+42967-070617FM-12+0019IOSN3V0203101N007219999999N9999999N1-00071-00271101031ADDMD1410001+9999
0017994270999992010012012004+42967-070617FM-12+0019IOSN3V0203001N007219999999N9999999N1-00041-00291101031ADDMD1410001+9999
0017994270999992010012013004+42967-070617FM-12+0019IOSN3V0203101N007219999999N9999999N1-00011-00291101071ADDMD1210041+9999
0000994270999992010012014004+42967-070617FM-12+0019IOSN3V0203201N007219999999N9999999N1-00011-00351101111
0185994270999992010012015004+42967-070617FM-12+0019IOSN3V0203401N007719999999N9999999N1+00011-00261101101ADDMD1110071+9999OA139900821REMSYN148CMAN  20154 IOSN3 46/// /3415 10001 21026 40110 51007 91500 333 91216 555 11014 22015 31430 433019 61459 332014 328014 327015 325015 32004 34011 28;
0017994270999992010012016004+42967-070617FM-12+0019IOSN3V0203301N005719999999N9999999N1+00051-00211101081ADDMD1010001+9999
0017994270999992010012017004+42967-070617FM-12+0019IOSN3V0203301N005719999999N9999999N1+00071-00091101031ADDMD1810081+9999
0017994270999992010012018004+42967-070617FM-12+0019IOSN3V0203301N006719999999N9999999N1+00111-00121101001ADDMD1810101+9999
0017994270999992010012019004+42967-070617FM-12+0019IOSN3V0203001N006719999999N9999999N1+00051-00051101021ADDMD1610061+9999
0183994270999992010012020004+42967-070617FM-12+0019IOSN3V0203001N007719999999N9999999N1+00071-00361101101ADDMD1310071+9999OA139900821REMSYN146CMAN  20204 IOSN3 46/// /3015 10007 21036 40110 53007 92000 333 91216 555 11014 22015 31950 430017 61959 300014 302014 300014 301014 30016 165016;
0243994270999992010012021004+42967-070617FM-12+0019IOSN3V0203101N008219999999N9999999N1+00081-00041101151ADDMD1310151+9999OA139900931REMSYN206CMAN  20214 IOSN3 46/// /3116 10008 21004 40115 53015 92100 333 91218 555 11015 22016 32058 431018 62059 308016 308015 306015 304014 30002 06012 312049 043048 052048 053046 046051 039054 036059 80406 92002;
0017994270999992010012022004+42967-070617FM-12+0019IOSN3V0203301N008719999999N9999999N1+00071-00361101231ADDMD1210211+9999
0243994270999992010012023004+42967-070617FM-12+0019IOSN3V0203401N008219999999N9999999N1+00091-00161101301ADDMD1310201+9999OA139900931REMSYN206CMAN  20234 IOSN3 46/// /3416 10009 21016 40130 53020 92300 333 91218 555 11015 22017 32208 435024 62259 344018 347018 345017 345017 35005 13012 312249 110101 114098 115099 116087 106078 098075 81111 92249;
0243994270999992010012100004+42967-070617FM-12+0019IOSN3V0203301N008219999999N9999999N1+00111-00151101401ADDMD1310251+9999OA139900881REMSYN206CMAN  21004 IOSN3 46/// /3316 10011 21015 40140 53025 90000 333 91217 555 11015 22016 32342 434022 62359 329017 334017 336016 340017 34007 12017 312349 107096 108104 106103 107101 109103 111102 81111 92253;
0243994270999992010012101004+42967-070617FM-12+0019IOSN3V0203201N007219999999N9999999N1+00101-00111101461ADDMD1110231+9999OA139900821REMSYN206CMAN  21014 IOSN3 46/// /3214 10010 21011 40146 51023 90100 333 91216 555 11014 22014 30019 433022 60059 312014 315015 325015 332017 33015 081011 60049 109087 108085 108088 109093 105090 104088 81110 90015;
0017994270999992010012102004+42967-070617FM-12+0019IOSN3V0203101N007219999999N9999999N1+00081-00101101511ADDMD1110211+9999
0243994270999992010012103004+42967-070617FM-12+0019IOSN3V0203101N007719999999N9999999N1+00021-00231101561ADDMD1110161+9999OA139900881REMSYN206CMAN  21034 IOSN3 46/// /3115 10002 21023 40156 51016 90300 333 91217 555 11014 22015 30238 430018 60259 304015 302015 297015 300015 30010 11019 330249 128070 126070 121068 119069 120076 118076 81208 90204;
0243994270999992010012104004+42967-070617FM-12+0019IOSN3V0203101N009319999999N9999999N1-00021-00311101591ADDMD1110131+9999OA139901031REMSYN206CMAN  21044 IOSN3 46/// /3118 11002 21031 40159 51013 90400 333 91220 555 11017 22018 30359 431020 60359 311017 311016 307016 304015 30014 10019 330349 120074 126079 132092 131094 130083 131073 81310 90323;
0017994270999992010012105004+42967-070617FM-12+0019IOSN3V0203101N008719999999N9999999N1-00021-00341101651ADDMD1310141+9999
0017994270999992010012106004+42967-070617FM-12+0019IOSN3V0203101N009319999999N9999999N1-00081-00381101691ADDMD1310131+9999
0017994270999992010012107004+42967-070617FM-12+0019IOSN3V0203101N008719999999N9999999N1-00081-00431101791ADDMD1310201+9999
0243994270999992010012108004+42967-070617FM-12+0019IOSN3V0203201N008719999999N9999999N1-00081-00471101841ADDMD1310191+9999OA139900981REMSYN206CMAN  21084 IOSN3 46/// /3217 11008 21047 40184 53019 90800 333 91219 555 11016 22017 30751 432022 60759 319018 316017 312017 309017 30019 13018 340749 133060 133069 140067 140060 133057 128047 81408 90731;
0017994270999992010012109004+42967-070617FM-12+0019IOSN3V0203001N006219999999N9999999N1-00141-00501101901ADDMD1110211+9999
0017994270999992010012110004+42967-070617FM-12+0019IOSN3V0203001N004619999999N9999999N1-00161-00531101971ADDMD1310181+9999
0219994270999992010012111004+42967-070617FM-12+0019IOSN3V0203001N005119999999N9999999N1-00161-00521102001ADDMD1110161+9999OA139900621REMSYN182CMAN  21114 IOSN3 46/// /3010 11016 21052 40200 51016 91100 333 91212 555 11010 22010 31058 430012 61059 295010 301009 302009 302008 30017 10016 34145062 154068 157080 160073 166070;
0017994270999992010012112004+42967-070617FM-12+0019IOSN3V0202901N004119999999N9999999N1-00151-00461102081ADDMD1310181+9999
0017994270999992010012113004+42967-070617FM-12+0019IOSN3V0202701N004119999999N9999999N1-00141-00531102141ADDMD1310171+9999
0243994270999992010012114004+42967-070617FM-12+0019IOSN3V0202701N004619999999N9999999N1-00121-00511102181ADDMD1110181+9999OA139900571REMSYN206CMAN  21144 IOSN3 46/// /2709 11012 21051 40218 51018 91400 333 91211 555 11009 22009 31353 428012 61359 274010 272009 261008 267008 27023 15014 331349 114068 112063 110068 106072 104084 104068 81010 91306;
0017994270999992010012115004+42967-070617FM-12+0019IOSN3V0202901N005119999999N9999999N1-00091-00501102171ADDMD1110091+9999
0017994270999992010012116004+42967-070617FM-12+0019IOSN3V0202701N006219999999N9999999N1+00011-00491102151ADDMD1010001+9999
0243994270999992010012117004+42967-070617FM-12+0019IOSN3V0202801N006719999999N9999999N1+00071-00451102121ADDMD1810061+9999OA139900771REMSYN206CMAN  21174 IOSN3 46/// /2813 10007 21045 40212 58006 91700 333 91215 555 11013 22013 31636 428020 61659 285014 284014 280015 275014 27022 15007 341649 110079 112078 109067 113063 117066 116068 81108 91642;
0229994270999992010012118004+42967-070617FM-12+0019IOSN3V0202801N007719999999N9999999N1+00091-00581102041ADDMD1810131+9999OA139900931REMSYN192CMAN  21184 IOSN3 46/// /2815 10009 21058 40204 58013 91800 333 91218 555 11015 22016 31712 429019 61759 285016 286015 292016 293016 29020 15007 27000 50094 60000 60102 60440 70000 77R// 7R//;
0017994270999992010012119004+42967-070617FM-12+0019IOSN3V0202801N007719999999N9999999N1+00141-00581102061ADDMD1610091+9999
0017994270999992010012120004+42967-070617FM-12+0019IOSN3V0203001N008219999999N9999999N1+00141-00621102071ADDMD1610051+9999
0017994270999992010012121004+42967-070617FM-12+0019IOSN3V0203001N005719999999N9999999N1+00171-00561102121ADDMD1310081+9999
0017994270999992010012122004+42967-070617FM-12+0019IOSN3V0203101N006719999999N9999999N1+00161-00571102141ADDMD1210081+9999
0017994270999992010012123004+42967-070617FM-12+0019IOSN3V0203101N005719999999N9999999N1+00121-00581102121ADDMD1110051+9999
0017994270999992010012200004+42967-070617FM-12+0019IOSN3V0203001N007219999999N9999999N1+00061-00601102091ADDMD1810031+9999
0195994270999992010012201004+42967-070617FM-12+0019IOSN3V0203001N005719999999N9999999N1+00021-00591102051ADDMD1810091+9999OA139900621REMSYN158CMAN  22014 IOSN3 46/// /3011 10002 21059 40205 58009 90100 333 91212 555 11010 22011 30019 430019 60059 304011 305013 305014 309016 305 253015 250016 247017;
0017994270999992010012202004+42967-070617FM-12+0019IOSN3V0202901N004619999999N9999999N1-00021-00601102071ADDMD1610051+9999
0017994270999992010012203004+42967-070617FM-12+0019IOSN3V0202801N004619999999N9999999N1-00051-00571102011ADDMD1810081+9999
0017994270999992010012204004+42967-070617FM-12+0019IOSN3V0202801N004619999999N9999999N1-00051-00571101951ADDMD1810101+9999
0017994270999992010012205004+42967-070617FM-12+0019IOSN3V0202701N006719999999N9999999N1-00111-00561101951ADDMD1610121+9999
0017994270999992010012206004+42967-070617FM-12+0019IOSN3V0202801N006719999999N9999999N1-00131-00581101901ADDMD1610111+9999
0017994270999992010012207004+42967-070617FM-12+0019IOSN3V0202801N004619999999N9999999N1-00171-00561101891ADDMD1710061+9999
0017994270999992010012208004+42967-070617FM-12+0019IOSN3V0202701N004119999999N9999999N1-00221-00591101861ADDMD1610091+9999
0017994270999992010012209004+42967-070617FM-12+0019IOSN3V0203001N004119999999N9999999N1-00261-00671101751ADDMD1810151+9999
0017994270999992010012210004+42967-070617FM-12+0019IOSN3V0203301N005119999999N9999999N1-00271-00661101601ADDMD1810291+9999
0017994270999992010012211004+42967-070617FM-12+0019IOSN3V0200101N005119999999N9999999N1-00211-00621101701ADDMD1510161+9999
0017994270999992010012212004+42967-070617FM-12+0019IOSN3V0200301N003119999999N9999999N1-00071-00461101781ADDMD1310031+9999
0017994270999992010012213004+42967-070617FM-12+0019IOSN3V0203501N005119999999N9999999N1-00241-00521101781ADDMD1110181+9999
0017994270999992010012214004+42967-070617FM-12+0019IOSN3V0200101N005119999999N9999999N1+00061-00331101771ADDMD1110071+9999
0017994270999992010012215004+42967-070617FM-12+0019IOSN3V0200101N007219999999N9999999N1-00031-00411101721ADDMD1810061+9999
0017994270999992010012216004+42967-070617FM-12+0019IOSN3V0200301N008719999999N9999999N1+00121-00351101681ADDMD1810101+9999
