0017994270999992011010100004+42967-070617FM-12+0019IOSN3V0202101N008219999999N9999999N1+00751-00081101841ADDMD1410001+9999
0177994270999992011010101004+42967-070617FM-12+0019IOSN3V0202101N006219999999N9999999N1+00621+00181101821ADDMD1410001+9999OA139900671REMSYN140CMAN  01014 IOSN3 46/// /2112 10062 20018 40182 54000 90100 333 91213 555 11011 22012 30004 421017 60059 205012 202014 206016 205015 208011;
0177994270999992011010102004+42967-070617FM-12+0019IOSN3V0202301N007719999999N9999999N1+00591+00151101781ADDMD1810041+9999OA139900821REMSYN140CMAN  01024 IOSN3 46/// /2315 10059 20015 40178 58004 90200 333 91216 555 11014 22015 30110 422017 60159 231013 221012 215014 223015 223011;
0177994270999992011010103004+42967-070617FM-12+0019IOSN3V0202301N005719999999N9999999N1+00631+00111101781ADDMD1710061+9999OA139900571REMSYN140CMAN  01034 IOSN3 46/// /2311 10063 20011 40178 57006 90300 333 91211 555 11010 22011 30202 423017 60259 224011 225012 226013 234015 236007;
0177994270999992011010104004+42967-070617FM-12+0019IOSN3V0202301N005119999999N9999999N1+00581+00111101741ADDMD1710081+9999OA139900571REMSYN140CMAN  01044 IOSN3 46/// /2310 10058 20011 40174 57008 90400 333 91211 555 11010 22010 30316 423012 60359 222010 215010 219010 226010 235013;
0177994270999992011010105004+42967-070617FM-12+0019IOSN3V0202301N006719999999N9999999N1+00551+00031101721ADDMD1710061+9999OA139900721REMSYN140CMAN  01054 IOSN3 46/// /2313 10055 20003 40172 57006 90500 333 91214 555 11013 22013 30457 423014 60459 222014 217013 220013 222012 228021;
0177994270999992011010106004+42967-070617FM-12+0019IOSN3V0202401N005119999999N9999999N1+00531-00081101671ADDMD1810111+9999OA139900511REMSYN140CMAN  01064 IOSN3 46/// /2410 10053 21008 40167 58011 90600 333 91210 555 11009 22010 30508 424014 60559 246010 255012 247011 240012 238027;
0177994270999992011010107004+42967-070617FM-12+0019IOSN3V0202401N006219999999N9999999N1+00501+00011101711ADDMD1510031+9999OA139900671REMSYN140CMAN  01074 IOSN3 46/// /2412 10050 20001 40171 55003 90700 333 91213 555 11012 22012 30657 424013 60659 240013 241011 237011 241012 244027;
0017994270999992011010108004+42967-070617FM-12+0019IOSN3V0202401N006719999999N9999999N1+00461+00031101701ADDMD1510001+9999
0177994270999992011010109004+42967-070617FM-12+0019IOSN3V0202401N006719999999N9999999N1+00441+00041101731ADDMD1110061+9999OA139900671REMSYN140CMAN  01094 IOSN3 46/// /2413 10044 20004 40173 51006 90900 333 91213 555 11012 22013 30843 423019 60859 233014 232017 229017 227015 232020;
0177994270999992011010110004+42967-070617FM-12+0019IOSN3V0202401N005119999999N9999999N1+00421+00051101731ADDMD1410001+9999OA139900571REMSYN140CMAN  01104 IOSN3 46/// /2410 10042 20005 40173 54000 91000 333 91211 555 11009 22010 30916 424014 60959 242010 245011 243011 237012 237025;
0177994270999992011010111004+42967-070617FM-12+0019IOSN3V0202501N006219999999N9999999N1+00471+00111101781ADDMD1310081+9999OA139900621REMSYN140CMAN  01114 IOSN3 46/// /2512 10047 20011 40178 53008 91100 333 91212 555 11011 22012 31007 425012 61059 246011 248010 248010 249010 252021;
0177994270999992011010112004+42967-070617FM-12+0019IOSN3V0202301N004619999999N9999999N1+00531+00161101781ADDMD1210051+9999OA139900511REMSYN140CMAN  01124 IOSN3 46/// /2309 10053 20016 40178 52005 91200 333 91210 555 11009 22009 31120 424015 61159 228010 235010 247011 248013 241024;
0177994270999992011010113004+42967-070617FM-12+0019IOSN3V0202401N007719999999N9999999N1+00561+00151101771ADDMD1110041+9999OA139900771REMSYN140CMAN  01134 IOSN3 46/// /2415 10056 20015 40177 51004 91300 333 91215 555 11014 22015 31233 423017 61259 236015 229015 229016 231013 230025;
0177994270999992011010114004+42967-070617FM-12+0019IOSN3V0202201N005719999999N9999999N1+00501+00151101871ADDMD1310091+9999OA139900621REMSYN140CMAN  01144 IOSN3 46/// /2211 10050 20015 40187 53009 91400 333 91212 555 11011 22011 31300 424015 61359 215012 216013 218011 224011 239030;
0177994270999992011010115004+42967-070617FM-12+0019IOSN3V0202101N007719999999N9999999N1+00491+00191101881ADDMD1210101+9999OA139900821REMSYN140CMAN  01154 IOSN3 46/// /2115 10049 20019 40188 52010 91500 333 91216 555 11014 22015 31459 421016 61459 210015 209013 211013 215011 216023;
0177994270999992011010116004+42967-070617FM-12+0019IOSN3V0202601N005719999999N9999999N1+00811+00381101831ADDMD1010061+9999OA139900571REMSYN140CMAN  01164 IOSN3 46/// /2611 10081 20038 40183 50006 91600 333 91211 555 11010 22011 31500 422015 61559 261011 257012 246012 243013 235034;
0177994270999992011010117004+42967-070617FM-12+0019IOSN3V0209999C000019999999N9999999N1+00871+00461101761ADDMD1810111+9999OA139900051REMSYN140CMAN  01174 IOSN3 46/// /0000 10087 20046 40176 58011 91700 333 91201 555 11001 22001 31605 426011 61659 137001 126003 308004 268006 240031;
0177994270999992011010118004+42967-070617FM-12+0019IOSN3V0209999C000019999999N9999999N1+00831+00431101761ADDMD1610121+9999OA139900051REMSYN140CMAN  01184 IOSN3 46/// /0000 10083 20043 40176 56012 91800 333 91201 555 11001 22001 31731 419005 61759 144002 168004 173004 162002 184030;
0177994270999992011010119004+42967-070617FM-12+0019IOSN3V0201301N002619999999N9999999N1+00951+00531101771ADDMD1610061+9999OA139900261REMSYN140CMAN  01194 IOSN3 46/// /1305 10095 20053 40177 56006 91900 333 91205 555 11005 22005 31857 413005 61859 136004 126003 126004 124003 096030;
0177994270999992011010120004+42967-070617FM-12+0019IOSN3V0201501N004619999999N9999999N1+00851+00431101791ADDMD1210031+9999OA139900511REMSYN140CMAN  01204 IOSN3 46/// /1509 10085 20043 40179 52003 92000 333 91210 555 11009 22009 31959 415010 61959 137008 126008 122007 128008 130028;
0177994270999992011010121004+42967-070617FM-12+0019IOSN3V0201301N005719999999N9999999N1+00881+00441101751ADDMD1010001+9999OA139900571REMSYN140CMAN  01214 IOSN3 46/// /1311 10088 20044 40175 50000 92100 333 91211 555 11010 22011 32032 413011 62059 135011 140011 133011 139010 132031;
0177994270999992011010122004+42967-070617FM-12+0019IOSN3V0201401N005719999999N9999999N1+00791+00251101711ADDMD1810061+9999OA139900571REMSYN140CMAN  01224 IOSN3 46/// /1411 10079 20025 40171 58006 92200 333 91211 555 11010 22011 32138 414013 62159 142011 142012 140013 140012 139037;
0177994270999992011010123004+42967-070617FM-12+0019IOSN3V0201601N007719999999N9999999N1+00741+00391101721ADDMD1610071+9999OA139900771REMSYN140CMAN  01234 IOSN3 46/// /1615 10074 20039 40172 56007 92300 333 91215 555 11014 22015 32239 416017 62259 164016 162017 163016 155015 143038;
0177994270999992011010200004+42967-070617FM-12+0019IOSN3V0201501N007719999999N9999999N1+00691+00401101651ADDMD1810101+9999OA139900771REMSYN140CMAN  02004 IOSN3 46/// /1515 10069 20040 40165 58010 90000 333 91215 555 11014 22015 32353 415015 62359 151015 153014 148014 150014 142036;
0177994270999992011010201004+42967-070617FM-12+0019IOSN3V0201601N006719999999N9999999N1+00711+00391101601ADDMD1810111+9999OA139900671REMSYN140CMAN  02014 IOSN3 46/// /1613 10071 20039 40160 58011 90100 333 91213 555 11012 22013 30032 416021 60059 157013 157015 155020 151018 149035;
0177994270999992011010202004+42967-070617FM-12+0019IOSN3V0201801N007219999999N9999999N1+00651+00371101571ADDMD1610151+9999OA139900771REMSYN140CMAN  02024 IOSN3 46/// /1814 10065 20037 40157 56015 90200 333 91215 555 11013 22014 30133 417017 60159 173014 172014 166016 166015 164035;
0177994270999992011010203004+42967-070617FM-12+0019IOSN3V0201901N009319999999N9999999N1+00681+00351101531ADDMD1610121+9999OA139901031REMSYN140CMAN  02034 IOSN3 46/// /1918 10068 20035 40153 56012 90300 333 91220 555 11017 22019 30259 419020 60259 187016 193011 191013 177012 187038;
0177994270999992011010204004+42967-070617FM-12+0019IOSN3V0201901N010319999999N9999999N1+00691+00321101501ADDMD1710101+9999OA139901131REMSYN140CMAN  02044 IOSN3 46/// /1920 10069 20032 40150 57010 90400 333 91222 555 11019 22020 30341 418023 60359 185019 185020 177021 176019 183037;
0177994270999992011010205004+42967-070617FM-12+0019IOSN3V0201901N009319999999N9999999N1+00651+00421101441ADDMD1810131+9999OA139901031REMSYN140CMAN  02054 IOSN3 46/// /1918 10065 20042 40144 58013 90500 333 91220 555 11017 22018 30428 419022 60459 193018 190019 187019 188021 197038;
0177994270999992011010206004+42967-070617FM-12+0019IOSN3V0201901N006719999999N9999999N1+00671+00481101411ADDMD1710121+9999OA139900671REMSYN140CMAN  02064 IOSN3 46/// /1913 10067 20048 40141 57012 90600 333 91213 555 11012 22013 30507 419022 60559 193012 192014 186018 184020 181040;
0177994270999992011010207004+42967-070617FM-12+0019IOSN3V0202301N004619999999N9999999N1+00601+00451101401ADDMD1610101+9999OA139900511REMSYN140CMAN  02074 IOSN3 46/// /2309 10060 20045 40140 56010 90700 333 91210 555 11009 22009 30640 421014 60659 229010 218012 215012 219011 206039;
0177994270999992011010208004+42967-070617FM-12+0019IOSN3V0202601N003619999999N9999999N1+00601+00431101391ADDMD1610051+9999OA139900411REMSYN140CMAN  02084 IOSN3 46/// /2607 10060 20043 40139 56005 90800 333 91208 555 11006 22007 30729 423013 60759 255006 241011 222010 225011 227035;
0177994270999992011010209004+42967-070617FM-12+0019IOSN3V0203301N002119999999N9999999N1+00501+00361101331ADDMD1810081+9999OA139900261REMSYN140CMAN  02094 IOSN3 46/// /3304 10050 20036 40133 58008 90900 333 91205 555 11004 22004 30800 427008 60859 324004 322005 292005 256004 253035;
0177994270999992011010210004+42967-070617FM-12+0019IOSN3V0203401N001519999999N9999999N1+00471+00401101331ADDMD1710071+9999OA139900151REMSYN140CMAN  02104 IOSN3 46/// /3403 10047 20040 40133 57007 91000 333 91203 555 11002 22003 30925 432006 60959 336003 326003 320004 316006 320035;
0177994270999992011010211004+42967-070617FM-12+0019IOSN3V0203601N002619999999N9999999N1+00471+00411101311ADDMD1610081+9999OA139900261REMSYN140CMAN  02114 IOSN3 46/// /3605 10047 20041 40131 56008 91100 333 91205 555 11005 22005 31027 434006 61059 352004 339005 329005 339006 346034;
0177994270999992011010212004+42967-070617FM-12+0019IOSN3V0203201N002119999999N9999999N1+00461+00421101331ADDMD1410001+9999OA139900261REMSYN140CMAN  02124 IOSN3 46/// /3204 10046 20042 40133 54000 91200 333 91205 555 11004 22004 31100 436006 61159 325003 337003 322002 327001 011033;
0177994270999992011010213004+42967-070617FM-12+0019IOSN3V0203201N001519999999N9999999N1+00461+00421101331ADDMD1410001+9999OA139900151REMSYN140CMAN  02134 IOSN3 46/// /3203 10046 20042 40133 54000 91300 333 91203 555 11003 22003 31201 432005 61259 350002 301003 298003 311003 307030;
0177994270999992011010214004+42967-070617FM-12+0019IOSN3V0203401N001519999999N9999999N1+00451+00421101371ADDMD1310061+9999OA139900151REMSYN140CMAN  02144 IOSN3 46/// /3403 10045 20042 40137 53006 91400 333 91203 555 11002 22003 31337 428007 61359 345002 305004 287005 278004 270032;
0017994270999992011010215004+42967-070617FM-12+0019IOSN3V0202701N002619999999N9999999N1+00471+00441101461ADDMD1310131+9999
0177994270999992011010216004+42967-070617FM-12+0019IOSN3V0203501N001019999999N9999999N1+00521+00451101271ADDMD1810061+9999OA139900101REMSYN140CMAN  02164 IOSN3 46/// /3502 10052 20045 40127 58006 91600 333 91202 555 11001 22002 31519 428006 61559 323001 300003 287005 277005 273031;
0177994270999992011010217004+42967-070617FM-12+0019IOSN3V0202401N002619999999N9999999N1+00521+00441101191ADDMD1810181+9999OA139900311REMSYN140CMAN  02174 IOSN3 46/// /2405 10052 20044 40119 58018 91700 333 91206 555 11005 22005 31655 424006 61659 239005 225002 267001 279002 287030;
0177994270999992011010218004+42967-070617FM-12+0019IOSN3V0202601N004619999999N9999999N1+00651+00551101161ADDMD1610301+9999OA139900511REMSYN140CMAN  02184 IOSN3 46/// /2609 10065 20055 40116 56030 91800 333 91210 555 11009 22009 31740 425011 61759 259008 259010 248008 255007 247022;
0177994270999992011010219004+42967-070617FM-12+0019IOSN3V0200801N001019999999N9999999N1+00591+00511101171ADDMD1610101+9999OA139900101REMSYN140CMAN  02194 IOSN3 46/// /0802 10059 20051 40117 56010 91900 333 91202 555 11001 22002 31800 426009 61859 068003 122002 234003 260006 251028;
0177994270999992011010220004+42967-070617FM-12+0019IOSN3V0200701N003119999999N9999999N1+00551+00481101101ADDMD1810091+9999OA139900361REMSYN140CMAN  02204 IOSN3 46/// /0706 10055 20048 40110 58009 92000 333 91207 555 11006 22006 31959 408007 61959 063005 052003 032003 045004 062026;
0177994270999992011010221004+42967-070617FM-12+0019IOSN3V0200901N001019999999N9999999N1+00571+00501101101ADDMD1710061+9999OA139900101REMSYN140CMAN  02214 IOSN3 46/// /0902 10057 20050 40110 57006 92100 333 91202 555 11002 22002 32004 408010 62059 071002 095003 090006 092005 084027;
0177994270999992011010222004+42967-070617FM-12+0019IOSN3V0200801N001519999999N9999999N1+00581+00441101051ADDMD1610121+9999OA139900151REMSYN140CMAN  02224 IOSN3 46/// /0803 10058 20044 40105 56012 92200 333 91203 555 11002 22003 32102 408004 62159 074002 082001 123001 110001 089028;
0177994270999992011010223004+42967-070617FM-12+0019IOSN3V0201001N001019999999N9999999N1+00531+00441100991ADDMD1810111+9999OA139900101REMSYN140CMAN  02234 IOSN3 46/// /1002 10053 20044 40099 58011 92300 333 91202 555 11002 22002 32200 408003 62259 117002 100002 120002 199001 209027;
0177994270999992011010300004+42967-070617FM-12+0019IOSN3V0201601N001019999999N9999999N1+00571+00461100941ADDMD1710161+9999OA139900101REMSYN140CMAN  03004 IOSN3 46/// /1602 10057 20046 40094 57016 90000 333 91202 555 11002 22002 32312 408006 62359 150002 153002 201001 088001 081027;
0177994270999992011010301004+42967-070617FM-12+0019IOSN3V0202401N006219999999N9999999N1+00521+00471100981ADDMD1510071+9999OA139900621REMSYN140CMAN  03014 IOSN3 46/// /2412 10052 20047 40098 55007 90100 333 91212 555 11011 22012 30057 425013 60059 246012 246010 236005 242004 232026;
0177994270999992011010302004+42967-070617FM-12+0019IOSN3V0202501N007719999999N9999999N1+00551+00361100871ADDMD1810121+9999OA139900771REMSYN140CMAN  03024 IOSN3 46/// /2515 10055 20036 40087 58012 90200 333 91215 555 11014 22015 30156 425015 60159 253014 248012 231011 231011 233027;
0177994270999992011010303004+42967-070617FM-12+0019IOSN3V0202601N007719999999N9999999N1+00561+00081100911ADDMD1710031+9999OA139900821REMSYN140CMAN  03034 IOSN3 46/// /2615 10056 20008 40091 57003 90300 333 91216 555 11014 22015 30220 429021 60259 268015 277018 279016 292016 284031;
0177994270999992011010304004+42967-070617FM-12+0019IOSN3V0203001N006719999999N9999999N1+00471-00031100761ADDMD1810221+9999OA139900771REMSYN140CMAN  03044 IOSN3 46/// /3013 10047 21003 40076 58022 90400 333 91215 555 11012 22013 30348 427022 60359 294015 274019 267016 257014 257035;
0177994270999992011010305004+42967-070617FM-12+0019IOSN3V0202901N014419999999N9999999N1+00401-00151100651ADDMD1810221+9999OA139901601REMSYN140CMAN  03054 IOSN3 46/// /2928 10040 21015 40065 58022 90500 333 91231 555 11026 22028 30455 429033 60459 292029 294026 290025 285023 276033;
0177994270999992011010306004+42967-070617FM-12+0019IOSN3V0203001N015419999999N9999999N1+00281-00321100711ADDMD1510201+9999OA139901851REMSYN140CMAN  03064 IOSN3 46/// /3030 10028 21032 40071 55020 90600 333 91236 555 11028 22030 30557 430038 60559 298032 299030 299032 298029 298035;
0177994270999992011010307004+42967-070617FM-12+0019IOSN3V0203101N012319999999N9999999N1+00181-00441100841ADDMD1310081+9999OA139901391REMSYN140CMAN  03074 IOSN3 46/// /3124 10018 21044 40084 53008 90700 333 91227 555 11022 22024 30640 431039 60659 306025 305030 306029 301030 302037;
0177994270999992011010308004+42967-070617FM-12+0019IOSN3V0203101N016419999999N9999999N1+00101-00701100901ADDMD1210251+9999OA139901851REMSYN140CMAN  03084 IOSN3 46/// /3132 10010 21070 40090 52025 90800 333 91236 555 11030 22032 30746 431043 60759 310033 309035 308032 308031 318037;
0177994270999992011010309004+42967-070617FM-12+0019IOSN3V0203101N013919999999N9999999N1+00041-00841101001ADDMD1110291+9999OA139901601REMSYN140CMAN  03094 IOSN3 46/// /3127 10004 21084 40100 51029 90900 333 91231 555 11025 22027 30833 432036 60859 310026 312025 311028 311028 316029;
0177994270999992011010310004+42967-070617FM-12+0019IOSN3V0203001N015419999999N9999999N1+00011-00751101031ADDMD1110191+9999OA139901751REMSYN140CMAN  03104 IOSN3 46/// /3030 10001 21075 40103 51019 91000 333 91234 555 11028 22030 30934 431036 60959 302029 303029 309028 307028 301034;
0177994270999992011010311004+42967-070617FM-12+0019IOSN3V0203001N015419999999N9999999N1-00031-00781101151ADDMD1310251+9999OA139901801REMSYN140CMAN  03114 IOSN3 46/// /3030 11003 21078 40115 53025 91100 333 91235 555 11029 22031 31000 430037 61059 301029 302028 305028 305029 309031;
0177994270999992011010312004+42967-070617FM-12+0019IOSN3V0203101N014919999999N9999999N1-00101-00961101291ADDMD1310291+9999OA139901651REMSYN140CMAN  03124 IOSN3 46/// /3129 11010 21096 40129 53029 91200 333 91232 555 11027 22029 31102 431035 61159 311028 310029 308029 305027 308025;
0177994270999992011010313004+42967-070617FM-12+0019IOSN3V0203001N013419999999N9999999N1-00121-01111101391ADDMD1110361+9999OA139901441REMSYN140CMAN  03134 IOSN3 46/// /3026 11012 21111 40139 51036 91300 333 91228 555 11025 22027 31208 431034 61259 303027 307025 308026 306024 305018;
0177994270999992011010314004+42967-070617FM-12+0019IOSN3V0203001N013419999999N9999999N1-00101-01091101441ADDMD1110291+9999OA139901601REMSYN140CMAN  03144 IOSN3 46/// /3026 11010 21109 40144 51029 91400 333 91231 555 11024 22026 31343 432033 61359 297025 298025 299024 303024 305018;
0177994270999992011010315004+42967-070617FM-12+0019IOSN3V0203001N015419999999N9999999N1-00081-01071101441ADDMD1110151+9999OA139901701REMSYN140CMAN  03154 IOSN3 46/// /3030 11008 21107 40144 51015 91500 333 91233 555 11028 22030 31453 430038 61459 296029 300028 295027 293027 296020;
0177994270999992011010316004+42967-070617FM-12+0019IOSN3V0203001N018019999999N9999999N1-00071-01121101271ADDMD1810121+9999OA139902161REMSYN140CMAN  03164 IOSN3 46/// /3035 11007 21112 40127 58012 91600 333 91242 555 11033 22035 31545 429049 61559 300039 298040 301035 303028 298018;
0177994270999992011010317004+42967-070617FM-12+0019IOSN3V0203001N015419999999N9999999N1-00021-01131101321ADDMD1510121+9999OA139901701REMSYN140CMAN  03174 IOSN3 46/// /3030 11002 21113 40132 55012 91700 333 91233 555 11028 22030 31600 431041 61659 298032 298035 304033 309031 302019;
0177994270999992011010318004+42967-070617FM-12+0019IOSN3V0203001N013419999999N9999999N1+00001-01301101341ADDMD1610101+9999OA139901541REMSYN140CMAN  03184 IOSN3 46/// /3026 10000 21130 40134 56010 91800 333 91230 555 11024 22026 31723 431036 61759 300025 296024 295024 302025 303021;
0177994270999992011010319004+42967-070617FM-12+0019IOSN3V0203201N012919999999N9999999N1+00021-01311101361ADDMD1110091+9999OA139901441REMSYN140CMAN  03194 IOSN3 46/// /3225 10002 21131 40136 51009 91900 333 91228 555 11023 22025 31841 430034 61859 310026 305027 307023 308027 296025;
0177994270999992011010320004+42967-070617FM-12+0019IOSN3V0203101N013419999999N9999999N1+00051-01331101401ADDMD1310081+9999OA139901491REMSYN140CMAN  03204 IOSN3 46/// /3126 10005 21133 40140 53008 92000 333 91229 555 11025 22026 31917 430034 61959 302027 303025 296026 297026 304026;
0177994270999992011010321004+42967-070617FM-12+0019IOSN3V0203101N012919999999N9999999N1+00041-01321101491ADDMD1310151+9999OA139901391REMSYN140CMAN  03214 IOSN3 46/// /3125 10004 21132 40149 53015 92100 333 91227 555 11023 22025 32008 430033 62059 306024 305024 311025 305026 291030;
0177994270999992011010322004+42967-070617FM-12+0019IOSN3V0203201N008219999999N9999999N1+00011-01101101661ADDMD1310301+9999OA139901081REMSYN140CMAN  03224 IOSN3 46/// /3216 10001 21110 40166 53030 92200 333 91221 555 11015 22016 32107 430028 62159 316016 309017 309019 308019 302033;
0177994270999992011010323004+42967-070617FM-12+0019IOSN3V0202901N010819999999N9999999N1-00031-01101101671ADDMD1110271+9999OA139901241REMSYN140CMAN  03234 IOSN3 46/// /2921 11003 21110 40167 51027 92300 333 91224 555 11020 22021 32231 430029 62259 299021 299022 298023 295021 309037;
0177994270999992011010400004+42967-070617FM-12+0019IOSN3V0203001N009819999999N9999999N1-00071-01271101711ADDMD1110221+9999OA139901081REMSYN140CMAN  04004 IOSN3 46/// /3019 11007 21127 40171 51022 90000 333 91221 555 11018 22019 32316 430024 62359 294020 297018 297017 300018 292040;
0017994270999992011010401004+42967-070617FM-12+0019IOSN3V0202901N009319999999N9999999N1-00091-01251101701ADDMD1210041+9999
0177994270999992011010402004+42967-070617FM-12+0019IOSN3V0202901N007719999999N9999999N1-00101-01171101731ADDMD1110061+9999OA139900881REMSYN140CMAN  04024 IOSN3 46/// /2915 11010 21117 40173 51006 90200 333 91217 555 11014 22015 30122 429023 60159 285016 283017 284017 283017 283034;
0177994270999992011010403004+42967-070617FM-12+0019IOSN3V0202801N008219999999N9999999N1-00121-01071101731ADDMD1410001+9999OA139900881REMSYN140CMAN  04034 IOSN3 46/// /2816 11012 21107 40173 54000 90300 333 91217 555 11015 22016 30219 429021 60259 284016 283016 282015 283015 284018;
0177994270999992011010404004+42967-070617FM-12+0019IOSN3V0202801N008719999999N9999999N1-00131-01081101691ADDMD1010001+9999OA139900981REMSYN140CMAN  04044 IOSN3 46/// /2817 11013 21108 40169 50000 90400 333 91219 555 11016 22017 30356 429021 60359 283017 283017 282016 277016 281030;
0017994270999992011010405004+42967-070617FM-12+0019IOSN3V0202701N008219999999N9999999N1-00171-01071101671ADDMD1710061+9999
0177994270999992011010406004+42967-070617FM-12+0019IOSN3V0202601N008219999999N9999999N1-00211-01091101681ADDMD1610051+9999OA139900931REMSYN140CMAN  04064 IOSN3 46/// /2616 11021 21109 40168 56005 90600 333 91218 555 11015 22016 30513 427020 60559 259016 261016 263016 265016 262019;
0177994270999992011010407004+42967-070617FM-12+0019IOSN3V0202601N009819999999N9999999N1-00241-00961101681ADDMD1410001+9999OA139901081REMSYN140CMAN  04074 IOSN3 46/// /2619 11024 21096 40168 54000 90700 333 91221 555 11018 22019 30643 426023 60659 263018 263018 263019 260018 265016;
0177994270999992011010408004+42967-070617FM-12+0019IOSN3V0202701N009819999999N9999999N1-00241-00881101631ADDMD1810041+9999OA139901081REMSYN140CMAN  04084 IOSN3 46/// /2719 11024 21088 40163 58004 90800 333 91221 555 11018 22019 30734 427022 60759 268019 268019 267019 267018 264015;
0177994270999992011010409004+42967-070617FM-12+0019IOSN3V0202701N010319999999N9999999N1-00261-00831101611ADDMD1710071+9999OA139901181REMSYN140CMAN  04094 IOSN3 46/// /2720 11026 21083 40161 57007 90900 333 91223 555 11019 22020 30849 426023 60859 267020 264021 262020 262019 264016;
0177994270999992011010410004+42967-070617FM-12+0019IOSN3V0202701N009819999999N9999999N1-00241-00811101591ADDMD1610091+9999OA139901081REMSYN140CMAN  04104 IOSN3 46/// /2719 11024 21081 40159 56009 91000 333 91221 555 11018 22019 30900 427024 60959 269018 267018 268018 265019 264017;
0177994270999992011010411004+42967-070617FM-12+0019IOSN3V0202601N010319999999N9999999N1-00271-00801101601ADDMD1710031+9999OA139901131REMSYN140CMAN  04114 IOSN3 46/// /2620 11027 21080 40160 57003 91100 333 91222 555 11019 22020 31006 427023 61059 256020 258019 259019 261019 261017;
0177994270999992011010412004+42967-070617FM-12+0019IOSN3V0202501N007719999999N9999999N1-00231-00771101591ADDMD1410001+9999OA139900881REMSYN140CMAN  04124 IOSN3 46/// /2515 11023 21077 40159 54000 91200 333 91217 555 11015 22016 31107 425021 61159 251016 249016 252017 254017 250016;
0177994270999992011010413004+42967-070617FM-12+0019IOSN3V0202501N008719999999N9999999N1-00231-00781101561ADDMD1810031+9999OA139900981REMSYN140CMAN  04134 IOSN3 46/// /2517 11023 21078 40156 58003 91300 333 91219 555 11016 22017 31233 425020 61259 250018 251017 248018 246018 247019;
0177994270999992011010414004+42967-070617FM-12+0019IOSN3V0202701N005119999999N9999999N1-00211-00781101561ADDMD1710041+9999OA139900571REMSYN140CMAN  04144 IOSN3 46/// /2710 11021 21078 40156 57004 91400 333 91211 555 11010 22010 31300 425018 61359 267010 264012 262013 257014 251018;
0017994270999992011010415004+42967-070617FM-12+0019IOSN3V0202701N004119999999N9999999N1-00191-00851101501ADDMD1810091+9999
0177994270999992011010416004+42967-070617FM-12+0019IOSN3V0202401N005119999999N9999999N1-00121-00821101361ADDMD1810201+9999OA139900571REMSYN140CMAN  04164 IOSN3 46/// /2410 11012 21082 40136 58020 91600 333 91211 555 11009 22010 31551 424012 61559 241009 239008 236007 245007 259024;
0177994270999992011010417004+42967-070617FM-12+0019IOSN3V0202401N006219999999N9999999N1-00041-00831101221ADDMD1810341+9999OA139900671REMSYN140CMAN  04174 IOSN3 46/// /2412 11004 21083 40122 58034 91700 333 91213 555 11011 22012 31652 424013 61659 244012 241010 248009 244008 249022;
0177994270999992011010418004+42967-070617FM-12+0019IOSN3V0202401N004619999999N9999999N1-00011-00861101121ADDMD1610381+9999OA139900571REMSYN140CMAN  04184 IOSN3 46/// /2409 11001 21086 40112 56038 91800 333 91211 555 11009 22009 31721 424015 61759 237011 245010 244011 243012 243021;
0177994270999992011010419004+42967-070617FM-12+0019IOSN3V0202501N003619999999N9999999N1+00021-00801101021ADDMD1610341+9999OA139900411REMSYN140CMAN  04194 IOSN3 46/// /2507 10002 21080 40102 56034 91900 333 91208 555 11006 22007 31802 424011 61859 243007 239007 233007 244007 244016;
0177994270999992011010420004+42967-070617FM-12+0019IOSN3V0201901N004119999999N9999999N1+00051-00741100951ADDMD1610271+9999OA139900411REMSYN140CMAN  04204 IOSN3 46/// /1908 10005 21074 40095 56027 92000 333 91208 555 11007 22008 31917 423012 61959 192007 207006 219006 232008 234016;
0177994270999992011010421004+42967-070617FM-12+0019IOSN3V0201601N001519999999N9999999N1+00101-00671100911ADDMD1610211+9999OA139900211REMSYN140CMAN  04214 IOSN3 46/// /1603 10010 21067 40091 56021 92100 333 91204 555 11003 22003 32000 419009 62059 163003 185002 177002 200003 191012;
0177994270999992011010422004+42967-070617FM-12+0019IOSN3V0201601N002119999999N9999999N1+00121-00661100861ADDMD1610161+9999OA139900261REMSYN140CMAN  04224 IOSN3 46/// /1604 10012 21066 40086 56016 92200 333 91205 555 11004 22004 32158 416005 62159 170004 154003 143003 138003 139018;
0177994270999992011010423004+42967-070617FM-12+0019IOSN3V0202101N002619999999N9999999N1+00181-00591100851ADDMD1610101+9999OA139900261REMSYN140CMAN  04234 IOSN3 46/// /2105 10018 21059 40085 56010 92300 333 91205 555 11004 22005 32213 419006 62259 210005 208004 191004 184004 185021;
0177994270999992011010500004+42967-070617FM-12+0019IOSN3V0202501N006719999999N9999999N1+00251-00691100751ADDMD1810161+9999OA139900771REMSYN140CMAN  05004 IOSN3 46/// /2513 10025 21069 40075 58016 90000 333 91215 555 11013 22013 32359 424015 62359 245012 241011 238010 236009 222023;
0177994270999992011010501004+42967-070617FM-12+0019IOSN3V0202801N004119999999N9999999N1+00151-00611100751ADDMD1710111+9999OA139900461REMSYN140CMAN  05014 IOSN3 46/// /2808 10015 21061 40075 57011 90100 333 91209 555 11007 22008 30015 426014 60059 275008 273010 265010 261011 253020;
0177994270999992011010502004+42967-070617FM-12+0019IOSN3V0202501N005719999999N9999999N1+00121-00661100711ADDMD1610141+9999OA139900621REMSYN140CMAN  05024 IOSN3 46/// /2511 10012 21066 40071 56014 90200 333 91212 555 11011 22011 30152 424012 60159 246011 249010 251009 251008 255022;
0177994270999992011010503004+42967-070617FM-12+0019IOSN3V0202601N008219999999N9999999N1+00111-00721100671ADDMD1810081+9999OA139900931REMSYN140CMAN  05034 IOSN3 46/// /2616 10011 21072 40067 58008 90300 333 91218 555 11015 22016 30259 425018 60259 258016 257015 256015 253014 258019;
0177994270999992011010504004+42967-070617FM-12+0019IOSN3V0202701N007219999999N9999999N1+00061-00691100631ADDMD1710121+9999OA139900771REMSYN140CMAN  05044 IOSN3 46/// /2714 10006 21069 40063 57012 90400 333 91215 555 11014 22014 30349 427018 60359 266015 265016 266015 266016 261017;
0177994270999992011010505004+42967-070617FM-12+0019IOSN3V0202701N007219999999N9999999N1+00021-00561100571ADDMD1810141+9999OA139900821REMSYN140CMAN  05054 IOSN3 46/// /2714 10002 21056 40057 58014 90500 333 91216 555 11014 22014 30447 428017 60459 275014 274014 272015 272015 263016;
0177994270999992011010506004+42967-070617FM-12+0019IOSN3V0202701N006719999999N9999999N1-00021-00551100551ADDMD1610121+9999OA139900721REMSYN140CMAN  05064 IOSN3 46/// /2713 11002 21055 40055 56012 90600 333 91214 555 11012 22013 30503 428017 60559 274013 273013 271014 275015 274019;
0177994270999992011010507004+42967-070617FM-12+0019IOSN3V0202801N007219999999N9999999N1-00031-00591100581ADDMD1510051+9999OA139900771REMSYN140CMAN  05074 IOSN3 46/// /2814 11003 21059 40058 55005 90700 333 91215 555 11013 22014 30657 428018 60659 274014 272014 273014 274013 275025;
0177994270999992011010508004+42967-070617FM-12+0019IOSN3V0202701N008219999999N9999999N1-00031-00501100551ADDMD1010001+9999OA139900931REMSYN140CMAN  05084 IOSN3 46/// /2716 11003 21050 40055 50000 90800 333 91218 555 11015 22016 30755 428019 60759 274016 275015 272015 271015 274026;
0177994270999992011010509004+42967-070617FM-12+0019IOSN3V0202801N008719999999N9999999N1-00061-00481100541ADDMD1010001+9999OA139901031REMSYN140CMAN  05094 IOSN3 46/// /2817 11006 21048 40054 50000 90900 333 91220 555 11016 22017 30851 428021 60859 279017 280017 279018 278018 270030;
0177994270999992011010510004+42967-070617FM-12+0019IOSN3V0202901N007719999999N9999999N1-00091-00481100591ADDMD1510001+9999OA139900881REMSYN140CMAN  05104 IOSN3 46/// /2915 11009 21048 40059 55000 91000 333 91217 555 11014 22015 30904 428020 60959 287015 284015 282015 282016 281026;
0177994270999992011010511004+42967-070617FM-12+0019IOSN3V0202801N008219999999N9999999N1-00091-00491100631ADDMD1310081+9999OA139900931REMSYN140CMAN  05114 IOSN3 46/// /2816 11009 21049 40063 53008 91100 333 91218 555 11015 22016 31059 428018 61059 279016 283015 287014 289015 286028;
0177994270999992011010512004+42967-070617FM-12+0019IOSN3V0202701N007719999999N9999999N1-00121-00461100681ADDMD1210141+9999OA139900881REMSYN140CMAN  05124 IOSN3 46/// /2715 11012 21046 40068 52014 91200 333 91217 555 11014 22015 31100 428018 61159 273015 271014 273014 274013 279028;
0177994270999992011010513004+42967-070617FM-12+0019IOSN3V0202701N007219999999N9999999N1-00131-00481100711ADDMD1110121+9999OA139900771REMSYN140CMAN  05134 IOSN3 46/// /2714 11013 21048 40071 51012 91300 333 91215 555 11013 22014 31207 427017 61259 273013 276012 276012 273013 278027;
0177994270999992011010514004+42967-070617FM-12+0019IOSN3V0202701N006719999999N9999999N1-00161-00541100741ADDMD1110111+9999OA139900721REMSYN140CMAN  05144 IOSN3 46/// /2713 11016 21054 40074 51011 91400 333 91214 555 11012 22013 31356 427017 61359 270013 269013 272014 273015 273030;
0177994270999992011010515004+42967-070617FM-12+0019IOSN3V0202801N008719999999N9999999N1-00061-00571100691ADDMD1010001+9999OA139900981REMSYN140CMAN  05154 IOSN3 46/// /2817 11006 21057 40069 50000 91500 333 91219 555 11016 22017 31450 428020 61459 281017 277017 277016 279015 274025;
0177994270999992011010516004+42967-070617FM-12+0019IOSN3V0202801N008719999999N9999999N1+00041-00661100641ADDMD1810071+9999OA139901031REMSYN140CMAN  05164 IOSN3 46/// /2817 10004 21066 40064 58007 91600 333 91220 555 11016 22017 31506 428020 61559 289016 288017 285016 284017 288025;
0177994270999992011010517004+42967-070617FM-12+0019IOSN3V0202701N008719999999N9999999N1+00121-00701100591ADDMD1710151+9999OA139900981REMSYN140CMAN  05174 IOSN3 46/// /2717 10012 21070 40059 57015 91700 333 91219 555 11016 22018 31609 429021 61659 270016 267016 275014 287015 295009;
0177994270999992011010518004+42967-070617FM-12+0019IOSN3V0202801N007719999999N9999999N1+00161-00841100521ADDMD1810171+9999OA139900931REMSYN140CMAN  05184 IOSN3 46/// /2815 10016 21084 40052 58017 91800 333 91218 555 11014 22015 31734 426022 61759 269016 266017 272017 267016 264023;
0177994270999992011010519004+42967-070617FM-12+0019IOSN3V0202601N008219999999N9999999N1+00161-00771100491ADDMD1610151+9999OA139900981REMSYN140CMAN  05194 IOSN3 46/// /2616 10016 21077 40049 56015 91900 333 91219 555 11015 22017 31847 426023 61859 261017 264019 271015 272016 286020;
0177994270999992011010520004+42967-070617FM-12+0019IOSN3V0202701N008719999999N9999999N1+00171-00841100521ADDMD1510071+9999OA139900981REMSYN140CMAN  05204 IOSN3 46/// /2717 10017 21084 40052 55007 92000 333 91219 555 11016 22017 31925 428026 61959 275017 280018 278019 274020 279019;
0177994270999992011010521004+42967-070617FM-12+0019IOSN3V0203101N007719999999N9999999N1+00101-00711100591ADDMD1310071+9999OA139900821REMSYN140CMAN  05214 IOSN3 46/// /3115 10010 21071 40059 53007 92100 333 91216 555 11014 22015 32029 429021 62059 308014 311014 316017 291015 285014;
0177994270999992011010522004+42967-070617FM-12+0019IOSN3V0203001N007719999999N9999999N1+00091-00721100581ADDMD1110091+9999OA139900981REMSYN140CMAN  05224 IOSN3 46/// /3015 10009 21072 40058 51009 92200 333 91219 555 11014 22015 32159 430019 62159 299015 305015 301015 301014 292013;
0177994270999992011010523004+42967-070617FM-12+0019IOSN3V0202901N006219999999N9999999N1+00041-00751100651ADDMD1210131+9999OA139900721REMSYN140CMAN  05234 IOSN3 46/// /2912 10004 21075 40065 52013 92300 333 91214 555 11011 22012 32205 431020 62259 288013 288015 291015 292016 298012;
0177994270999992011010600004+42967-070617FM-12+0019IOSN3V0202901N009819999999N9999999N1+00021-01141100641ADDMD1210051+9999OA139901081REMSYN140CMAN  06004 IOSN3 46/// /2919 10002 21114 40064 52005 90000 333 91221 555 11018 22019 32348 429022 62359 289018 285016 285014 286014 286011;
0177994270999992011010601004+42967-070617FM-12+0019IOSN3V0202801N009819999999N9999999N1-00031-01261100641ADDMD1110061+9999OA139901131REMSYN140CMAN  06014 IOSN3 46/// /2819 11003 21126 40064 51006 90100 333 91222 555 11018 22020 30034 430025 60059 286019 286019 287021 290021 298010;
0177994270999992011010602004+42967-070617FM-12+0019IOSN3V0202801N008719999999N9999999N1-00101-01321100661ADDMD1410001+9999OA139900981REMSYN140CMAN  06024 IOSN3 46/// /2817 11010 21132 40066 54000 90200 333 91219 555 11016 22017 30111 428024 60159 278018 280018 280019 287019 284010;
0177994270999992011010603004+42967-070617FM-12+0019IOSN3V0202901N008719999999N9999999N1-00161-01241100701ADDMD1310061+9999OA139900981REMSYN140CMAN  06034 IOSN3 46/// /2917 11016 21124 40070 53006 90300 333 91219 555 11016 22017 30241 431023 60259 295017 301018 298017 294014 282014;
0177994270999992011010604004+42967-070617FM-12+0019IOSN3V0203001N007219999999N9999999N1-00231-01141100741ADDMD1310101+9999OA139900881REMSYN140CMAN  06044 IOSN3 46/// /3014 11023 21114 40074 53010 90400 333 91217 555 11013 22014 30306 429022 60359 294014 294014 292015 292016 292006;
0177994270999992011010605004+42967-070617FM-12+0019IOSN3V0203001N008719999999N9999999N1-00321-01171100681ADDMD1010001+9999OA139901031REMSYN140CMAN  06054 IOSN3 46/// /3017 11032 21117 40068 50000 90500 333 91220 555 11016 22017 30427 430021 60459 297017 299017 299016 304017 308008;
0177994270999992011010606004+42967-070617FM-12+0019IOSN3V0202901N008219999999N9999999N1-00331-01101100661ADDMD1810041+9999OA139901081REMSYN140CMAN  06064 IOSN3 46/// /2916 11033 21110 40066 58004 90600 333 91221 555 11015 22016 30548 428024 60559 295018 291019 297017 297017 293006;
0177994270999992011010607004+42967-070617FM-12+0019IOSN3V0202901N010319999999N9999999N1-00341-01231100631ADDMD1610111+9999OA139901241REMSYN140CMAN  06074 IOSN3 46/// /2920 11034 21123 40063 56011 90700 333 91224 555 11019 22020 30658 428024 60659 289019 286018 285019 286019 284006;
0177994270999992011010608004+42967-070617FM-12+0019IOSN3V0202801N008219999999N9999999N1-00391-01141100661ADDMD1510001+9999OA139900981REMSYN140CMAN  06084 IOSN3 46/// /2816 11039 21114 40066 55000 90800 333 91219 555 11015 22016 30710 430024 60759 285016 290017 293017 292017 295006;
0177994270999992011010609004+42967-070617FM-12+0019IOSN3V0202801N009319999999N9999999N1-00411-01161100641ADDMD1510001+9999OA139901031REMSYN140CMAN  06094 IOSN3 46/// /2818 11041 21116 40064 55000 90900 333 91220 555 11017 22018 30854 428022 60859 279019 281019 285017 284016 287008;
0215994270999992011010610004+42967-070617FM-12+0019IOSN3V0202901N008219999999N9999999N1-00411-01201100681ADDMD1310051+9999OA139900931REMSYN178CMAN  06104 IOSN3 46/// /2916 11041 21120 40068 53005 91000 333 91218 555 11015 22016 30912 428022 60959 288016 288018 287018 285018 28 221089 224087 215084 216085 214087 221083;
0177994270999992011010611004+42967-070617FM-12+0019IOSN3V0202801N007219999999N9999999N1-00401-01171100691ADDMD1210031+9999OA139900771REMSYN140CMAN  06114 IOSN3 46/// /2814 11040 21117 40069 52003 91100 333 91215 555 11013 22014 31006 429019 61059 278014 279014 281014 283015 280012;
0177994270999992011010612004+42967-070617FM-12+0019IOSN3V0202801N006219999999N9999999N1-00411-01181100691ADDMD1110051+9999OA139900721REMSYN140CMAN  06124 IOSN3 46/// /2812 11041 21118 40069 51005 91200 333 91214 555 11012 22012 31109 428016 61159 286013 284012 281013 278013 275010;
0177994270999992011010613004+42967-070617FM-12+0019IOSN3V0202901N005119999999N9999999N1-00421-01191100711ADDMD1210031+9999OA139900621REMSYN140CMAN  06134 IOSN3 46/// /2910 11042 21119 40071 52003 91300 333 91212 555 11009 22010 31203 429015 61259 288010 290010 287010 283011 293012;
0177994270999992011010614004+42967-070617FM-12+0019IOSN3V0202801N005119999999N9999999N1-00421-01221100701ADDMD1410001+9999OA139900621REMSYN140CMAN  06144 IOSN3 46/// /2810 11042 21122 40070 54000 91400 333 91212 555 11010 22010 31343 429012 61359 281010 285010 288010 288010 292021;
0177994270999992011010615004+42967-070617FM-12+0019IOSN3V0202801N004619999999N9999999N1-00411-01181100691ADDMD1410001+9999OA139900511REMSYN140CMAN  06154 IOSN3 46/// /2809 11041 21118 40069 54000 91500 333 91210 555 11009 22009 31401 428012 61459 283009 282009 281009 282009 282011;
0177994270999992011010616004+42967-070617FM-12+0019IOSN3V0202901N004619999999N9999999N1-00391-01201100621ADDMD1810091+9999OA139900571REMSYN140CMAN  06164 IOSN3 46/// /2909 11039 21120 40062 58009 91600 333 91211 555 11009 22009 31516 429013 61559 285009 289009 283010 285010 286011;
0177994270999992011010617004+42967-070617FM-12+0019IOSN3V0203001N002619999999N9999999N1-00321-01171100521ADDMD1810181+9999OA139900311REMSYN140CMAN  06174 IOSN3 46/// /3005 11032 21117 40052 58018 91700 333 91206 555 11004 22005 31602 428011 61659 282004 289005 269005 270006 280010;
0177994270999992011010618004+42967-070617FM-12+0019IOSN3V0209999C000019999999N9999999N1-00251-01171100461ADDMD1610231+9999OA139900101REMSYN140CMAN  06184 IOSN3 46/// /0000 11025 21117 40046 56023 91800 333 91202 555 11001 22001 31721 427008 61759 314001 295002 270004 255005 276011;
0177994270999992011010619004+42967-070617FM-12+0019IOSN3V0202101N001019999999N9999999N1-00231-01261100451ADDMD1610171+9999OA139900151REMSYN140CMAN  06194 IOSN3 46/// /2102 11023 21126 40045 56017 91900 333 91203 555 11002 22002 31831 424008 61859 213003 233003 246005 259004 263014;
0177994270999992011010620004+42967-070617FM-12+0019IOSN3V0202901N001519999999N9999999N1-00171-01321100471ADDMD1610051+9999OA139900261REMSYN140CMAN  06204 IOSN3 46/// /2903 11017 21132 40047 56005 92000 333 91205 555 11003 22003 31917 416006 61959 297003 323003 224002 149003 176011;
0177994270999992011010621004+42967-070617FM-12+0019IOSN3V0203201N003119999999N9999999N1-00171-01431100471ADDMD1410001+9999OA139900411REMSYN140CMAN  06214 IOSN3 46/// /3206 11017 21143 40047 54000 92100 333 91208 555 11006 22006 32044 434011 62059 322007 313008 302006 279004 278015;
0177994270999992011010622004+42967-070617FM-12+0019IOSN3V0203201N004619999999N9999999N1-00181-01311100481ADDMD1210031+9999OA139900511REMSYN140CMAN  06224 IOSN3 46/// /3209 11018 21131 40048 52003 92200 333 91210 555 11008 22009 32157 433011 62159 329009 307006 311005 291006 298012;
0177994270999992011010623004+42967-070617FM-12+0019IOSN3V0203401N002119999999N9999999N1-00211-01531100481ADDMD1410001+9999OA139900261REMSYN140CMAN  06234 IOSN3 46/// /3404 11021 21153 40048 54000 92300 333 91205 555 11003 22004 32231 435011 62259 329004 339007 344008 341009 348010;
0177994270999992011010700004+42967-070617FM-12+0019IOSN3V0203301N003619999999N9999999N1-00221-01341100491ADDMD1410001+9999OA139900461REMSYN140CMAN  07004 IOSN3 46/// /3307 11022 21134 40049 54000 90000 333 91209 555 11007 22007 32335 435010 62359 341007 337007 338008 329006 322015;
0177994270999992011010701004+42967-070617FM-12+0019IOSN3V0203401N003619999999N9999999N1-00231-01311100461ADDMD1010001+9999OA139900411REMSYN140CMAN  07014 IOSN3 46/// /3407 11023 21131 40046 50000 90100 333 91208 555 11006 22007 30014 433010 60059 344006 349007 347006 349006 339013;
0017994270999992011010702004+42967-070617FM-12+0019IOSN3V0200201N005119999999N9999999N1-00201-01111100451ADDMD1710031+9999
0177994270999992011010703004+42967-070617FM-12+0019IOSN3V0200201N005119999999N9999999N1-00201-01141100431ADDMD1610061+9999OA139900571REMSYN140CMAN  07034 IOSN3 46/// /0210 11020 21114 40043 56006 90300 333 91211 555 11009 22010 30253 401013 60259 015010 012009 018010 000009 001011;
0177994270999992011010704004+42967-070617FM-12+0019IOSN3V0200301N003619999999N9999999N1-00191-01221100391ADDMD1810071+9999OA139900461REMSYN140CMAN  07044 IOSN3 46/// /0307 11019 21122 40039 58007 90400 333 91209 555 11007 22007 30354 405015 60359 031010 021009 034010 011010 005011;
0177994270999992011010705004+42967-070617FM-12+0019IOSN3V0200501N003619999999N9999999N1-00191-01111100341ADDMD1810111+9999OA139900621REMSYN140CMAN  07054 IOSN3 46/// /0507 11019 21111 40034 58011 90500 333 91212 555 11007 22007 30456 405014 60459 049010 040010 050010 047009 041009;
0177994270999992011010706004+42967-070617FM-12+0019IOSN3V0200301N004619999999N9999999N1-00191-01171100341ADDMD1610091+9999OA139900621REMSYN140CMAN  07064 IOSN3 46/// /0309 11019 21117 40034 56009 90600 333 91212 555 11009 22009 30549 406014 60559 040010 049010 049009 048009 042006;
0177994270999992011010707004+42967-070617FM-12+0019IOSN3V0200301N005119999999N9999999N1-00181-01071100321ADDMD1610071+9999OA139900571REMSYN140CMAN  07074 IOSN3 46/// /0310 11018 21107 40032 56007 90700 333 91211 555 11010 22010 30610 405015 60659 042010 035010 038010 035011 039011;
0177994270999992011010708004+42967-070617FM-12+0019IOSN3V0200401N006219999999N9999999N1-00181-00981100321ADDMD1410001+9999OA139900721REMSYN140CMAN  07084 IOSN3 46/// /0412 11018 21098 40032 54000 90800 333 91214 555 11011 22012 30721 405015 60759 031012 040011 039012 038011 038011;
0177994270999992011010709004+42967-070617FM-12+0019IOSN3V0200301N009819999999N9999999N1-00201-00601100211ADDMD1810131+9999OA139901081REMSYN140CMAN  07094 IOSN3 46/// /0319 11020 21060 40021 58013 90900 333 91221 555 11018 22019 30839 403024 60859 023017 026017 029015 017014 027002;
0177994270999992011010710004+42967-070617FM-12+0019IOSN3V0200501N009319999999N9999999N1-00211-00691100181ADDMD1810141+9999OA139901031REMSYN140CMAN  07104 IOSN3 46/// /0518 11021 21069 40018 58014 91000 333 91220 555 11017 22018 30904 402024 60959 040018 031018 027018 020019 020011;
0177994270999992011010711004+42967-070617FM-12+0019IOSN3V0200301N009319999999N9999999N1-00211-00591100221ADDMD1510101+9999OA139901081REMSYN140CMAN  07114 IOSN3 46/// /0318 11021 21059 40022 55010 91100 333 91221 555 11017 22018 31026 404023 61059 032018 035018 038019 034018 038010;
0177994270999992011010712004+42967-070617FM-12+0019IOSN3V0200201N009319999999N9999999N1-00281-00561100261ADDMD1310051+9999OA139901131REMSYN140CMAN  07124 IOSN3 46/// /0218 11028 21056 40026 53005 91200 333 91222 555 11017 22018 31127 404024 61159 019018 023017 023019 028020 034013;
0017994270999992011010713004+42967-070617FM-12+0019IOSN3V0200201N010319999999N9999999N1-00331-00581100261ADDMD1110081+9999
0177994270999992011010714004+42967-070617FM-12+0019IOSN3V0200201N011819999999N9999999N1-00391-00641100201ADDMD1010001+9999OA139901291REMSYN140CMAN  07144 IOSN3 46/// /0223 11039 21064 40020 50000 91400 333 91225 555 11021 22023 31359 402025 61359 020022 019021 017020 019021 024002;
0177994270999992011010715004+42967-070617FM-12+0019IOSN3V0200201N012319999999N9999999N1-00331-00571100131ADDMD1810131+9999OA139901391REMSYN140CMAN  07154 IOSN3 46/// /0224 11033 21057 40013 58013 91500 333 91227 555 11023 22024 31454 402027 61459 020024 023023 022023 021022 020012;
0177994270999992011010716004+42967-070617FM-12+0019IOSN3V0200301N012919999999N9999999N1-00291-00501100031ADDMD1810231+9999OA139901391REMSYN140CMAN  07164 IOSN3 46/// /0325 11029 21050 40003 58023 91600 333 91227 555 11023 22025 31524 403029 61559 028025 029025 029025 030025 026011;
0177994270999992011010717004+42967-070617FM-12+0019IOSN3V0200201N010819999999N9999999N1-00271-00501100031ADDMD1610171+9999OA139901241REMSYN140CMAN  07174 IOSN3 46/// /0221 11027 21050 40003 56017 91700 333 91224 555 11020 22021 31601 403027 61659 019021 017020 017020 019022 021015;
0177994270999992011010718004+42967-070617FM-12+0019IOSN3V0200201N011819999999N9999999N1-00221-00481099951ADDMD1610181+9999OA139901341REMSYN140CMAN  07184 IOSN3 46/// /0223 11022 21048 49995 56018 91800 333 91226 555 11021 22023 31758 403026 61759 022023 018021 018021 021022 029012;
0177994270999992011010719004+42967-070617FM-12+0019IOSN3V0200301N011819999999N9999999N1-00201-00391099931ADDMD1710101+9999OA139901291REMSYN140CMAN  07194 IOSN3 46/// /0323 11020 21039 49993 57010 91900 333 91225 555 11021 22023 31841 403027 61859 025022 025024 023024 023023 024008;
0177994270999992011010720004+42967-070617FM-12+0019IOSN3V0200301N011319999999N9999999N1-00161-00401099891ADDMD1610141+9999OA139901241REMSYN140CMAN  07204 IOSN3 46/// /0322 11016 21040 49989 56014 92000 333 91224 555 11020 22022 31900 403027 61959 034021 032023 032022 031022 022017;
0177994270999992011010721004+42967-070617FM-12+0019IOSN3V0200301N011819999999N9999999N1-00151-00421099851ADDMD1810101+9999OA139901291REMSYN140CMAN  07214 IOSN3 46/// /0323 11015 21042 49985 58010 92100 333 91225 555 11022 22023 32051 403027 62059 032023 030023 031022 031022 037017;
0177994270999992011010722004+42967-070617FM-12+0019IOSN3V0200301N011319999999N9999999N1-00111-00451099861ADDMD1610071+9999OA139901241REMSYN140CMAN  07224 IOSN3 46/// /0322 11011 21045 49986 56007 92200 333 91224 555 11020 22022 32138 404028 62159 035021 032022 034022 038023 038015;
0177994270999992011010723004+42967-070617FM-12+0019IOSN3V0200301N009819999999N9999999N1-00091-00471099881ADDMD1510001+9999OA139901131REMSYN140CMAN  07234 IOSN3 46/// /0319 11009 21047 49988 55000 92300 333 91222 555 11018 22019 32230 403026 62259 031020 030021 031021 027020 024008;
0177994270999992011010800004+42967-070617FM-12+0019IOSN3V0200201N011319999999N9999999N1-00161-00551099851ADDMD1010001+9999OA139901291REMSYN140CMAN  08004 IOSN3 46/// /0222 11016 21055 49985 50000 90000 333 91225 555 11021 22022 32359 403025 62359 022022 018021 019021 014020 015016;
0177994270999992011010801004+42967-070617FM-12+0019IOSN3V0200301N012319999999N9999999N1-00171-00631099841ADDMD1410001+9999OA139901341REMSYN140CMAN  08014 IOSN3 46/// /0324 11017 21063 49984 54000 90100 333 91226 555 11022 22024 30018 403028 60059 027022 027023 023023 021023 022016;
0177994270999992011010802004+42967-070617FM-12+0019IOSN3V0200201N011819999999N9999999N1-00201-00631099841ADDMD1610041+9999OA139901341REMSYN140CMAN  08024 IOSN3 46/// /0223 11020 21063 49984 56004 90200 333 91226 555 11022 22023 30106 403028 60159 022023 021023 025022 026021 026006;
0177994270999992011010803004+42967-070617FM-12+0019IOSN3V0200301N011819999999N9999999N1-00161-00521099841ADDMD1410001+9999OA139901291REMSYN140CMAN  08034 IOSN3 46/// /0323 11016 21052 49984 54000 90300 333 91225 555 11022 22023 30229 403029 60259 028023 028024 027024 023024 020002;
0177994270999992011010804004+42967-070617FM-12+0019IOSN3V0200201N010819999999N9999999N1-00191-00531099871ADDMD1310031+9999OA139901181REMSYN140CMAN  08044 IOSN3 46/// /0221 11019 21053 49987 53003 90400 333 91223 555 11020 22021 30306 402027 60359 021020 020021 023022 024023 025008;
0177994270999992011010805004+42967-070617FM-12+0019IOSN3V0200301N011819999999N9999999N1-00271-00611099811ADDMD1810031+9999OA139901291REMSYN140CMAN  08054 IOSN3 46/// /0323 11027 21061 49981 58003 90500 333 91225 555 11022 22024 30459 403025 60459 028022 026021 027021 023020 027005;
0177994270999992011010806004+42967-070617FM-12+0019IOSN3V0200301N009319999999N9999999N1-00311-00621099841ADDMD1410001+9999OA139901081REMSYN140CMAN  08064 IOSN3 46/// /0318 11031 21062 49984 54000 90600 333 91221 555 11017 22018 30501 403025 60559 027019 027020 028020 028019 037006;
0017994270999992011010807004+42967-070617FM-12+0019IOSN3V0200301N008719999999N9999999N1-00351-00611099851ADDMD1510001+9999
0177994270999992011010808004+42967-070617FM-12+0019IOSN3V0200301N006719999999N9999999N1-00331-00541099861ADDMD1110051+9999OA139900771REMSYN140CMAN  08084 IOSN3 46/// /0313 11033 21054 49986 51005 90800 333 91215 555 11012 22013 30700 403019 60759 024014 023014 030014 032014 030012;
0177994270999992011010809004+42967-070617FM-12+0019IOSN3V0200301N005719999999N9999999N1-00311-00511099861ADDMD1410001+9999OA139900671REMSYN140CMAN  08094 IOSN3 46/// /0311 11031 21051 49986 54000 90900 333 91213 555 11011 22011 30807 402017 60859 024011 027012 031013 028013 036014;
0177994270999992011010810004+42967-070617FM-12+0019IOSN3V0200201N010319999999N9999999N1-00321-00511099771ADDMD1810081+9999OA139901131REMSYN140CMAN  08104 IOSN3 46/// /0220 11032 21051 49977 58008 91000 333 91222 555 11018 22020 30957 402022 60959 020019 022017 022015 023014 026013;
0177994270999992011010811004+42967-070617FM-12+0019IOSN3V0200301N008219999999N9999999N1-00281-00481099821ADDMD1510041+9999OA139901031REMSYN140CMAN  08114 IOSN3 46/// /0316 11028 21048 49982 55004 91100 333 91220 555 11015 22016 31018 403024 61059 030016 031018 031019 030020 029022;
0177994270999992011010812004+42967-070617FM-12+0019IOSN3V0200201N008219999999N9999999N1-00231-00411099841ADDMD1510001+9999OA139900981REMSYN140CMAN  08124 IOSN3 46/// /0216 11023 21041 49984 55000 91200 333 91219 555 11015 22016 31143 402020 61159 018016 021017 019017 018016 025007;
0177994270999992011010813004+42967-070617FM-12+0019IOSN3V0200101N008719999999N9999999N1-00251-00351099861ADDMD1110091+9999OA139900981REMSYN140CMAN  08134 IOSN3 46/// /0117 11025 21035 49986 51009 91300 333 91219 555 11016 22017 31256 401020 61259 013017 011017 013017 014017 016020;
0177994270999992011010814004+42967-070617FM-12+0019IOSN3V0200201N008719999999N9999999N1-00231-00361099881ADDMD1210061+9999OA139900981REMSYN140CMAN  08144 IOSN3 46/// /0217 11023 21036 49988 52006 91400 333 91219 555 11016 22018 31331 401020 61359 017017 013017 013017 013017 018018;
0177994270999992011010815004+42967-070617FM-12+0019IOSN3V0200201N010319999999N9999999N1-00181-00331099861ADDMD1410001+9999OA139901181REMSYN140CMAN  08154 IOSN3 46/// /0220 11018 21033 49986 54000 91500 333 91223 555 11019 22021 31458 402023 61459 023020 026020 023018 022018 010014;
0177994270999992011010816004+42967-070617FM-12+0019IOSN3V0200301N010319999999N9999999N1-00141-00301099791ADDMD1810071+9999OA139901131REMSYN140CMAN  08164 IOSN3 46/// /0320 11014 21030 49979 58007 91600 333 91222 555 11018 22020 31500 403023 61559 025020 024020 023020 028019 026017;
0177994270999992011010817004+42967-070617FM-12+0019IOSN3V0200301N009819999999N9999999N1-00101-00301099741ADDMD1810141+9999OA139901081REMSYN140CMAN  08174 IOSN3 46/// /0319 11010 21030 49974 58014 91700 333 91221 555 11017 22019 31624 403025 61659 027019 030020 025021 025021 028018;
0017994270999992011010818004+42967-070617FM-12+0019IOSN3V0200301N008719999999N9999999N1-00051-00251099741ADDMD1610121+9999
0177994270999992011010819004+42967-070617FM-12+0019IOSN3V0200301N009319999999N9999999N1+00001-00211099711ADDMD1610081+9999OA139900981REMSYN140CMAN  08194 IOSN3 46/// /0318 10000 21021 49971 56008 91900 333 91219 555 11017 22018 31851 402021 61859 027018 028018 028018 032017 038025;
0177994270999992011010820004+42967-070617FM-12+0019IOSN3V0200301N010319999999N9999999N1+00021-00191099661ADDMD1810081+9999OA139901131REMSYN140CMAN  08204 IOSN3 46/// /0320 10002 21019 49966 58008 92000 333 91222 555 11019 22020 31959 403022 61959 027019 028019 029019 028019 027020;
0177994270999992011010821004+42967-070617FM-12+0019IOSN3V0200201N009819999999N9999999N1+00071+99999099661ADDMD1610081+9999OA139901131REMSYN140CMAN  08214 IOSN3 46/// /0219 10007 49966 56008 92100 333 91222 555 11018 22019 32045 403024 62059 027019 028019 030018 030019 02009 039018;
0177994270999992011010822004+42967-070617FM-12+0019IOSN3V0200301N011819999999N9999999N1+00101-00141099551ADDMD1810161+9999OA139901291REMSYN140CMAN  08224 IOSN3 46/// /0323 10010 21014 49955 58016 92200 333 91225 555 11021 22023 32153 402025 62159 023022 024021 022021 022019 027019;
0017994270999992011010823004+42967-070617FM-12+0019IOSN3V0200201N011319999999N9999999N1+00101-00201099631ADDMD1510031+9999
0177994270999992011010900004+42967-070617FM-12+0019IOSN3V0200201N013919999999N9999999N1+00071-00261099481ADDMD1810181+9999OA139901541REMSYN140CMAN  09004 IOSN3 46/// /0227 10007 21026 49948 58018 90000 333 91230 555 11025 22027 32355 402031 62359 018027 018025 018024 019021 026015;
0177994270999992011010901004+42967-070617FM-12+0019IOSN3V0200201N012919999999N9999999N1+00001-00321099521ADDMD1810031+9999OA139901441REMSYN140CMAN  09014 IOSN3 46/// /0225 10000 21032 49952 58003 90100 333 91228 555 11024 22026 30007 402031 60059 017025 018023 019023 019023 023011;
0177994270999992011010902004+42967-070617FM-12+0019IOSN3V0200101N013919999999N9999999N1-00021-00311099501ADDMD1610131+9999OA139901541REMSYN140CMAN  09024 IOSN3 46/// /0127 11002 21031 49950 56013 90200 333 91230 555 11026 22027 30150 402030 60159 016026 015026 018027 019025 010009;
0017994270999992011010903004+42967-070617FM-12+0019IOSN3V0200101N013419999999N9999999N1-00041-00321099461ADDMD1010001+9999
0017994270999992011010904004+42967-070617FM-12+0019IOSN3V0203601N011819999999N9999999N1-00011-00261099351ADDMD1810171+9999
0177994270999992011010905004+42967-070617FM-12+0019IOSN3V0203501N011319999999N9999999N1-00011-00321099401ADDMD1510101+9999OA139901291REMSYN140CMAN  09054 IOSN3 46/// /3522 11001 21032 49940 55010 90500 333 91225 555 11021 22022 30427 436026 60459 353021 358021 358021 357021 359005;
0177994270999992011010906004+42967-070617FM-12+0019IOSN3V0203501N010819999999N9999999N1-00041-00191099371ADDMD1610091+9999OA139901241REMSYN140CMAN  09064 IOSN3 46/// /3521 11004 21019 49937 56009 90600 333 91224 555 11020 22021 30511 435027 60559 349022 348022 352022 348021 355007;
0177994270999992011010907004+42967-070617FM-12+0019IOSN3V0203401N010819999999N9999999N1-00091-00131099421ADDMD1210071+9999OA139901181REMSYN140CMAN  09074 IOSN3 46/// /3421 11009 21013 49942 52007 90700 333 91223 555 11019 22021 30601 435026 60659 337021 333021 333020 343020 347003;
0177994270999992011010908004+42967-070617FM-12+0019IOSN3V0203501N011319999999N9999999N1-00071-00171099481ADDMD1310081+9999OA139901291REMSYN140CMAN  09084 IOSN3 46/// /3522 11007 21017 49948 53008 90800 333 91225 555 11021 22023 30748 436027 60759 347022 345021 344021 343020 349005;
0177994270999992011010909004+42967-070617FM-12+0019IOSN3V0203501N010319999999N9999999N1-00061-00241099601ADDMD1310231+9999OA139901131REMSYN140CMAN  09094 IOSN3 46/// /3520 11006 21024 49960 53023 90900 333 91222 555 11019 22020 30838 436029 60859 348022 354024 358025 353024 346004;
0177994270999992011010910004+42967-070617FM-12+0019IOSN3V0203401N009319999999N9999999N1+00021-00261099651ADDMD1110231+9999OA139901031REMSYN140CMAN  09104 IOSN3 46/// /3418 10002 21026 49965 51023 91000 333 91220 555 11017 22018 30918 436025 60959 338019 349021 352019 347020 343003;
0177994270999992011010911004+42967-070617FM-12+0019IOSN3V0203101N010319999999N9999999N1-00031-00401099701ADDMD1110221+9999OA139901181REMSYN140CMAN  09114 IOSN3 46/// /3120 11003 21040 49970 51022 91100 333 91223 555 11019 22020 31052 431024 61059 305021 306019 308019 313017 321007;
0177994270999992011010912004+42967-070617FM-12+0019IOSN3V0203001N011819999999N9999999N1-00121-00511099781ADDMD1310181+9999OA139901241REMSYN140CMAN  09124 IOSN3 46/// /3023 11012 21051 49978 53018 91200 333 91224 555 11021 22023 31138 431027 61159 303022 305023 308023 306023 309006;
0177994270999992011010913004+42967-070617FM-12+0019IOSN3V0203001N010819999999N9999999N1-00171-00571099911ADDMD1310261+9999OA139901241REMSYN140CMAN  09134 IOSN3 46/// /3021 11017 21057 49991 53026 91300 333 91224 555 11020 22021 31223 431027 61259 298021 303020 303022 304021 307003;
0177994270999992011010914004+42967-070617FM-12+0019IOSN3V0203001N010319999999N9999999N1-00151-00591100031ADDMD1310331+9999OA139901181REMSYN140CMAN  09144 IOSN3 46/// /3020 11015 21059 40003 53033 91400 333 91223 555 11019 22020 31308 431024 61359 297019 296020 296019 297020 296004;
0173994270999992011010915004+42967-070617FM-12+0019IOSN3V0203001N012319999999N9999999N1-00081-00631100041ADDMD1110261+9999OA139901341REMSYN136CMAN  09154 IOSN3 46/// /3024 11008 21063 40004 51026 91500 333 91226 555 11022 22024 31459 430026 61459 297022 297021 299019 297018 30;
0177994270999992011010916004+42967-070617FM-12+0019IOSN3V0202901N011319999999N9999999N1-00011-00641100021ADDMD1110111+9999OA139901291REMSYN140CMAN  09164 IOSN3 46/// /2922 11001 21064 40002 51011 91600 333 91225 555 11021 22022 31523 430030 61559 295023 293022 292023 293022 294004;
0177994270999992011010917004+42967-070617FM-12+0019IOSN3V0202901N013419999999N9999999N1+00051-00711099991ADDMD1810041+9999OA139901441REMSYN140CMAN  09174 IOSN3 46/// /2926 10005 21071 49999 58004 91700 333 91228 555 11024 22026 31601 430031 61659 291024 293022 293024 292025 292003;
0177994270999992011010918004+42967-070617FM-12+0019IOSN3V0203001N010819999999N9999999N1+00121-00681100091ADDMD1310051+9999OA139901241REMSYN140CMAN  09184 IOSN3 46/// /3021 10012 21068 40009 53005 91800 333 91224 555 11020 22021 31750 429032 61759 295025 293024 294022 291022 299005;
0177994270999992011010919004+42967-070617FM-12+0019IOSN3V0203001N010819999999N9999999N1+00181-00721100191ADDMD1310171+9999OA139901131REMSYN140CMAN  09194 IOSN3 46/// /3021 10018 21072 40019 53017 91900 333 91222 555 11020 22021 31820 429032 61859 297024 296025 296025 293026 293006;
0177994270999992011010920004+42967-070617FM-12+0019IOSN3V0203001N011319999999N9999999N1+00191-00631100301ADDMD1310311+9999OA139901391REMSYN140CMAN  09204 IOSN3 46/// /3022 10019 21063 40030 53031 92000 333 91227 555 11021 22023 31937 431033 61959 300022 305023 308025 300024 296005;
0177994270999992011010921004+42967-070617FM-12+0019IOSN3V0203001N014419999999N9999999N1+00141-00741100371ADDMD1110281+9999OA139901701REMSYN140CMAN  09214 IOSN3 46/// /3028 10014 21074 40037 51028 92100 333 91233 555 11026 22028 32044 429037 62059 297027 296029 301023 302027 306005;
0177994270999992011010922004+42967-070617FM-12+0019IOSN3V0203001N013919999999N9999999N1+00081-00771100511ADDMD1310321+9999OA139901541REMSYN140CMAN  09224 IOSN3 46/// /3027 10008 21077 40051 53032 92200 333 91230 555 11025 22027 32153 429034 62159 298027 300027 299027 299024 299006;
0177994270999992011010923004+42967-070617FM-12+0019IOSN3V0203001N012319999999N9999999N1+00061-00711100631ADDMD1310331+9999OA139901441REMSYN140CMAN  09234 IOSN3 46/// /3024 10006 21071 40063 53033 92300 333 91228 555 11023 22024 32235 430037 62259 300025 299026 301030 303027 293007;
0177994270999992011011000004+42967-070617FM-12+0019IOSN3V0202801N011819999999N9999999N1-00011-00821100741ADDMD1110371+9999OA139901441REMSYN140CMAN  10004 IOSN3 46/// /2823 11001 21082 40074 51037 90000 333 91228 555 11021 22023 32318 430034 62359 281022 281022 283021 295025 298005;
0177994270999992011011001004+42967-070617FM-12+0019IOSN3V0202701N012919999999N9999999N1-00061-00781100821ADDMD1110311+9999OA139901441REMSYN140CMAN  10014 IOSN3 46/// /2725 11006 21078 40082 51031 90100 333 91228 555 11023 22025 30028 429030 60059 275025 275023 276022 279023 288005;
0017994270999992011011002004+42967-070617FM-12+0019IOSN3V0202801N011819999999N9999999N1-00101-00881100891ADDMD1110261+9999
0177994270999992011011003004+42967-070617FM-12+0019IOSN3V0202901N011319999999N9999999N1-00151-00811100941ADDMD1110201+9999OA139901341REMSYN140CMAN  10034 IOSN3 46/// /2922 11015 21081 40094 51020 90300 333 91226 555 11021 22023 30200 428031 60259 285023 287024 288025 288025 280002;
0177994270999992011011004004+42967-070617FM-12+0019IOSN3V0203101N013419999999N9999999N1-00221-00951101011ADDMD1210191+9999OA139901491REMSYN140CMAN  10044 IOSN3 46/// /3126 11022 21095 40101 52019 90400 333 91229 555 11024 22026 30338 432030 60359 310026 317026 309024 295023 282001;
0177994270999992011011005004+42967-070617FM-12+0019IOSN3V0203101N013419999999N9999999N1-00281-01051101001ADDMD1110111+9999OA139901491REMSYN140CMAN  10054 IOSN3 46/// /3126 11028 21105 40100 51011 90500 333 91229 555 11025 22027 30447 430033 60459 307025 307026 307025 308024 319002;
0177994270999992011011006004+42967-070617FM-12+0019IOSN3V0203001N012919999999N9999999N1-00331-01171101081ADDMD1310141+9999OA139901541REMSYN140CMAN  10064 IOSN3 46/// /3025 11033 21117 40108 53014 90600 333 91230 555 11024 22025 30527 431038 60559 301027 312024 308024 311027 305001;
0177994270999992011011007004+42967-070617FM-12+0019IOSN3V0203001N013419999999N9999999N1-00371-01171101121ADDMD1310111+9999OA139901491REMSYN140CMAN  10074 IOSN3 46/// /3026 11037 21117 40112 53011 90700 333 91229 555 11025 22026 30623 430037 60659 298027 297028 300027 303028 309001;
0177994270999992011011008004+42967-070617FM-12+0019IOSN3V0203001N012919999999N9999999N1-00451-01271101151ADDMD1110151+9999OA139901391REMSYN140CMAN  10084 IOSN3 46/// /3025 11045 21127 40115 51015 90800 333 91227 555 11023 22025 30720 429041 60759 299025 301023 304024 301031 298001;
0177994270999992011011009004+42967-070617FM-12+0019IOSN3V0202901N012919999999N9999999N1-00481-01181101161ADDMD1110081+9999OA139901541REMSYN140CMAN  10094 IOSN3 46/// /2925 11048 21118 40116 51008 90900 333 91230 555 11024 22025 30810 430035 60859 295025 296023 295024 292026 299002;
0177994270999992011011010004+42967-070617FM-12+0019IOSN3V0203001N013419999999N9999999N1-00521-01241101181ADDMD1110061+9999OA139901651REMSYN140CMAN  10104 IOSN3 46/// /3026 11052 21124 40118 51006 91000 333 91232 555 11025 22026 30900 431032 60959 301026 302026 301026 304024 300004;
0177994270999992011011011004+42967-070617FM-12+0019IOSN3V0203001N010819999999N9999999N1-00531-01211101251ADDMD1310101+9999OA139901241REMSYN140CMAN  10114 IOSN3 46/// /3021 11053 21121 40125 53010 91100 333 91224 555 11020 22021 31020 429030 61059 298023 294023 297022 298024 293002;
0177994270999992011011012004+42967-070617FM-12+0019IOSN3V0202901N011319999999N9999999N1-00521-01211101331ADDMD1310171+9999OA139901241REMSYN140CMAN  10124 IOSN3 46/// /2922 11052 21121 40133 53017 91200 333 91224 555 11020 22022 31114 431029 61159 292021 295022 298022 303023 307002;
0177994270999992011011013004+42967-070617FM-12+0019IOSN3V0202901N011319999999N9999999N1-00491-01201101401ADDMD1210221+9999OA139901291REMSYN140CMAN  10134 IOSN3 46/// /2922 11049 21120 40140 52022 91300 333 91225 555 11020 22022 31229 428026 61259 295019 290018 291020 291020 299001;
0177994270999992011011014004+42967-070617FM-12+0019IOSN3V0202901N009319999999N9999999N1-00451-01151101511ADDMD1310261+9999OA139901031REMSYN140CMAN  10144 IOSN3 46/// /2918 11045 21115 40151 53026 91400 333 91220 555 11017 22018 31356 429023 61359 288017 287018 291017 295016 299003;
0177994270999992011011015004+42967-070617FM-12+0019IOSN3V0202901N008719999999N9999999N1-00401-01171101571ADDMD1110241+9999OA139900981REMSYN140CMAN  10154 IOSN3 46/// /2917 11040 21117 40157 51024 91500 333 91219 555 11016 22017 31407 429024 61459 289016 289016 289017 292018 297003;
0177994270999992011011016004+42967-070617FM-12+0019IOSN3V0202901N010319999999N9999999N1-00291-01141101521ADDMD1010121+9999OA139901241REMSYN140CMAN  10164 IOSN3 46/// /2920 11029 21114 40152 50012 91600 333 91224 555 11019 22020 31556 429024 61559 292021 291020 294019 295019 292003;
0177994270999992011011017004+42967-070617FM-12+0019IOSN3V0203001N012919999999N9999999N1-00191-01101101431ADDMD1810081+9999OA139901341REMSYN140CMAN  10174 IOSN3 46/// /3025 11019 21110 40143 58008 91700 333 91226 555 11024 22025 31657 430027 61659 296023 299022 302021 298021 290001;
0177994270999992011011018004+42967-070617FM-12+0019IOSN3V0202801N011319999999N9999999N1-00131-00931101421ADDMD1610151+9999OA139901291REMSYN140CMAN  10184 IOSN3 46/// /2822 11013 21093 40142 56015 91800 333 91225 555 11021 22022 31710 429026 61759 285021 288023 289023 292021 297001;
0177994270999992011011019004+42967-070617FM-12+0019IOSN3V0203001N011819999999N9999999N1-00081-01021101451ADDMD1510071+9999OA139901341REMSYN140CMAN  10194 IOSN3 46/// /3023 11008 21102 40145 55007 91900 333 91226 555 11021 22023 31811 429028 61859 291022 287021 287021 290022 290003;
0177994270999992011011020004+42967-070617FM-12+0019IOSN3V0203101N012919999999N9999999N1-00041-00951101571ADDMD1310141+9999OA139901441REMSYN140CMAN  10204 IOSN3 46/// /3125 11004 21095 40157 53014 92000 333 91228 555 11024 22025 31953 431030 61959 305025 302023 300021 294023 286003;
0177994270999992011011021004+42967-070617FM-12+0019IOSN3V0203001N011819999999N9999999N1-00051-00931101661ADDMD1310241+9999OA139901291REMSYN140CMAN  10214 IOSN3 46/// /3023 11005 21093 40166 53024 92100 333 91225 555 11022 22023 32012 430028 62059 300022 298022 301022 297023 298002;
0017994270999992011011022004+42967-070617FM-12+0019IOSN3V0202901N011319999999N9999999N1-00091-00901101721ADDMD1110271+9999
0177994270999992011011023004+42967-070617FM-12+0019IOSN3V0202901N008719999999N9999999N1-00101-00731101821ADDMD1310251+9999OA139900981REMSYN140CMAN  10234 IOSN3 46/// /2917 11010 21073 40182 53025 92300 333 91219 555 11016 22017 32230 431026 62259 296019 295020 295020 295021 295001;
0182994270999992011011100004+42967-070617FM-12+0019IOSN3V0203001N009819999999N9999999N1-00171-00871101891ADDMD1310231+9999OA139901131REMSYN145CMAN  11004 IOSN3 46/// /3019 11017 21087 40189 53023 90000 333 91222 555 11018 22019 32334 430025 62359 292019 292018 295020 289018 29019 52100;
0177994270999992011011101004+42967-070617FM-12+0019IOSN3V0203001N008719999999N9999999N1-00221-00891101951ADDMD1110231+9999OA139900981REMSYN140CMAN  11014 IOSN3 46/// /3017 11022 21089 40195 51023 90100 333 91219 555 11016 22017 30011 430024 60059 293017 297016 304016 303016 299003;
0177994270999992011011102004+42967-070617FM-12+0019IOSN3V0203001N008219999999N9999999N1-00281-00891102021ADDMD1210201+9999OA139900931REMSYN140CMAN  11024 IOSN3 46/// /3016 11028 21089 40202 52020 90200 333 91218 555 11015 22016 30105 429025 60159 302016 301017 292018 296018 296003;
0183994270999992011011103004+42967-070617FM-12+0019IOSN3V0203101N008719999999N9999999N1-00361-00951102061ADDMD1110171+9999OA139901031REMSYN146CMAN  11034 IOSN3 46/// /3117 11036 21095 40206 51017 90300 333 91220 555 11016 22017 30220 431021 60259 308016 306016 303016 305017 30012 171013;
0177994270999992011011104004+42967-070617FM-12+0019IOSN3V0203101N007719999999N9999999N1-00421-00981102071ADDMD1110121+9999OA139900881REMSYN140CMAN  11044 IOSN3 46/// /3115 11042 21098 40207 51012 90400 333 91217 555 11014 22015 30306 431020 60359 309015 309015 303016 301015 300003;
0177994270999992011011105004+42967-070617FM-12+0019IOSN3V0203101N007219999999N9999999N1-00441-00921102091ADDMD1110071+9999OA139900821REMSYN140CMAN  11054 IOSN3 46/// /3114 11044 21092 40209 51007 90500 333 91216 555 11013 22014 30418 430020 60459 306014 312015 314016 315016 306003;
0177994270999992011011106004+42967-070617FM-12+0019IOSN3V0203101N007219999999N9999999N1-00451-00911102151ADDMD1310091+9999OA139900821REMSYN140CMAN  11064 IOSN3 46/// /3114 11045 21091 40215 53009 90600 333 91216 555 11014 22014 30539 432017 60559 311014 314013 316013 312013 302008;
0177994270999992011011107004+42967-070617FM-12+0019IOSN3V0203101N006219999999N9999999N1-00481-00951102231ADDMD1310161+9999OA139900721REMSYN140CMAN  11074 IOSN3 46/// /3112 11048 21095 40223 53016 90700 333 91214 555 11011 22012 30608 431018 60659 316012 321013 322013 318013 313010;
0177994270999992011011108004+42967-070617FM-12+0019IOSN3V0203201N007219999999N9999999N1-00521-00991102291ADDMD1210201+9999OA139900771REMSYN140CMAN  11084 IOSN3 46/// /3214 11052 21099 40229 52020 90800 333 91215 555 11013 22014 30752 432016 60759 315014 311014 307013 306013 303004;
0177994270999992011011109004+42967-070617FM-12+0019IOSN3V0203101N006219999999N9999999N1-00531-00941102321ADDMD1110171+9999OA139900671REMSYN140CMAN  11094 IOSN3 46/// /3112 11053 21094 40232 51017 90900 333 91213 555 11011 22012 30819 432016 60859 310011 310012 313013 315013 318017;
0177994270999992011011110004+42967-070617FM-12+0019IOSN3V0203301N006219999999N9999999N1-00491-00911102321ADDMD1110091+9999OA139900721REMSYN140CMAN  11104 IOSN3 46/// /3312 11049 21091 40232 51009 91000 333 91214 555 11011 22012 30928 433015 60959 329012 330012 324012 320013 326020;
0177994270999992011011111004+42967-070617FM-12+0019IOSN3V0203101N005719999999N9999999N1-00551-00901102361ADDMD1310071+9999OA139900571REMSYN140CMAN  11114 IOSN3 46/// /3111 11055 21090 40236 53007 91100 333 91211 555 11010 22011 31029 432014 61059 313011 316011 313012 315012 319017;
0177994270999992011011112004+42967-070617FM-12+0019IOSN3V0203301N004619999999N9999999N1-00541-00851102411ADDMD1310091+9999OA139900511REMSYN140CMAN  11124 IOSN3 46/// /3309 11054 21085 40241 53009 91200 333 91210 555 11008 22009 31125 432012 61159 325009 320009 316009 320010 329013;
0177994270999992011011113004+42967-070617FM-12+0019IOSN3V0203201N004619999999N9999999N1-00491-00871102481ADDMD1310161+9999OA139900511REMSYN140CMAN  11134 IOSN3 46/// /3209 11049 21087 40248 53016 91300 333 91210 555 11008 22009 31220 434011 61259 327009 332008 338007 346008 334020;
0177994270999992011011114004+42967-070617FM-12+0019IOSN3V0203401N006219999999N9999999N1-00531-00911102491ADDMD1110131+9999OA139900671REMSYN140CMAN  11144 IOSN3 46/// /3412 11053 21091 40249 51013 91400 333 91213 555 11011 22012 31355 432013 61359 330011 326010 319010 311010 304001;
0177994270999992011011115004+42967-070617FM-12+0019IOSN3V0203401N005119999999N9999999N1-00451-00941102501ADDMD1110091+9999OA139900571REMSYN140CMAN  11154 IOSN3 46/// /3410 11045 21094 40250 51009 91500 333 91211 555 11009 22010 31406 433014 61459 337009 336010 339010 335010 336022;
0177994270999992011011116004+42967-070617FM-12+0019IOSN3V0203601N004119999999N9999999N1-00401-00991102421ADDMD1810061+9999OA139900511REMSYN140CMAN  11164 IOSN3 46/// /3608 11040 21099 40242 58006 91600 333 91210 555 11008 22008 31505 434013 61559 355008 349008 347008 340008 332021;
0177994270999992011011117004+42967-070617FM-12+0019IOSN3V0200101N002619999999N9999999N1-00341-00961102351ADDMD1810141+9999OA139900311REMSYN140CMAN  11174 IOSN3 46/// /0105 11034 21096 40235 58014 91700 333 91206 555 11005 22005 31604 436010 61659 356006 353006 350006 346007 351014;
0177994270999992011011118004+42967-070617FM-12+0019IOSN3V0200401N003619999999N9999999N1-00301-00841102281ADDMD1610221+9999OA139900461REMSYN140CMAN  11184 IOSN3 46/// /0407 11030 21084 40228 56022 91800 333 91209 555 11007 22007 31758 403009 61759 029006 026005 035006 006006 006007;
0177994270999992011011119004+42967-070617FM-12+0019IOSN3V0200401N003619999999N9999999N1-00241-00731102261ADDMD1610161+9999OA139900411REMSYN140CMAN  11194 IOSN3 46/// /0407 11024 21073 40226 56016 91900 333 91208 555 11006 22007 31858 404008 61859 039005 050005 053005 050005 032008;
0177994270999992011011120004+42967-070617FM-12+0019IOSN3V0200401N002619999999N9999999N1-00231-00801102241ADDMD1610111+9999OA139900311REMSYN140CMAN  11204 IOSN3 46/// /0405 11023 21080 40224 56011 92000 333 91206 555 11004 22005 31918 404007 61959 035005 020004 028004 023005 019011;
0177994270999992011011121004+42967-070617FM-12+0019IOSN3V0200401N001019999999N9999999N1-00191-00751102251ADDMD1710031+9999OA139900151REMSYN140CMAN  11214 IOSN3 46/// /0402 11019 21075 40225 57003 92100 333 91203 555 11002 22002 32001 406008 62059 056003 026004 055004 049005 065011;
0177994270999992011011122004+42967-070617FM-12+0019IOSN3V0200501N003619999999N9999999N1-00151-00661102221ADDMD1810041+9999OA139900411REMSYN140CMAN  11224 IOSN3 46/// /0507 11015 21066 40222 58004 92200 333 91208 555 11006 22007 32144 406008 62159 067006 055005 052005 042006 057013;
0177994270999992011011123004+42967-070617FM-12+0019IOSN3V0200701N004119999999N9999999N1-00101-00541102151ADDMD1810091+9999OA139900511REMSYN140CMAN  11234 IOSN3 46/// /0708 11010 21054 40215 58009 92300 333 91210 555 11008 22008 32255 407013 62259 068009 061008 061007 061006 050014;
0177994270999992011011200004+42967-070617FM-12+0019IOSN3V0200701N006219999999N9999999N1-00051-00471102091ADDMD1810161+9999OA139900671REMSYN140CMAN  12004 IOSN3 46/// /0712 11005 21047 40209 58016 90000 333 91213 555 11011 22012 32359 407013 62359 070011 074010 076010 068010 063009;
0177994270999992011011201004+42967-070617FM-12+0019IOSN3V0200801N005719999999N9999999N1+00001-00421102001ADDMD1810221+9999OA139900671REMSYN140CMAN  12014 IOSN3 46/// /0811 10000 21042 40200 58022 90100 333 91213 555 11011 22011 30007 408016 60059 082012 076012 076012 071011 074009;
0177994270999992011011202004+42967-070617FM-12+0019IOSN3V0200901N007219999999N9999999N1+00021-00421101921ADDMD1810231+9999OA139900771REMSYN140CMAN  12024 IOSN3 46/// /0914 10002 21042 40192 58023 90200 333 91215 555 11013 22014 30151 408017 60159 087014 084013 090012 089012 080009;
0177994270999992011011203004+42967-070617FM-12+0019IOSN3V0200901N008219999999N9999999N1+00041-00401101801ADDMD1810291+9999OA139900881REMSYN140CMAN  12034 IOSN3 46/// /0916 10004 21040 40180 58029 90300 333 91217 555 11015 22016 30224 409020 60259 092016 091015 084016 088016 093008;
0177994270999992011011204004+42967-070617FM-12+0019IOSN3V0200801N010319999999N9999999N1+00061-00381101621ADDMD1810381+9999OA139901081REMSYN140CMAN  12044 IOSN3 46/// /0820 10006 21038 40162 58038 90400 333 91221 555 11018 22020 30353 408023 60359 083020 090019 087018 090017 091011;
0177994270999992011011205004+42967-070617FM-12+0019IOSN3V0200701N010819999999N9999999N1+00051-00391101521ADDMD1610401+9999OA139901241REMSYN140CMAN  12054 IOSN3 46/// /0721 10005 21039 40152 56040 90500 333 91224 555 11020 22021 30449 407025 60459 074020 076020 076020 075019 084008;
0183994270999992011011206004+42967-070617FM-12+0019IOSN3V0200701N012919999999N9999999N1+00031-00421101311ADDMD1810491+9999OA139901391REMSYN146CMAN  12064 IOSN3 46/// /0725 10003 21042 40131 58049 90600 333 91227 555 11024 22025 30544 407028 60559 070024 070024 071023 068023 07 555 60005;
0177994270999992011011207004+42967-070617FM-12+0019IOSN3V0200701N011319999999N9999999N1+00071-00361101271ADDMD1610351+9999OA139901291REMSYN140CMAN  12074 IOSN3 46/// /0722 10007 21036 40127 56035 90700 333 91225 555 11021 22022 30656 407028 60659 073023 073022 074021 074021 074006;
0194994270999992011011208004+42967-070617FM-12+0019IOSN3V0200801N013919999999N9999999N1+00111-00301101041ADDMD1810481+9999OA139901541REMSYN157CMAN  12084 IOSN3 46/// /0827 10011 21030 40104 58048 90800 333 91230 555 11025 22027 30748 408031 60759 077027 071026 065026 065026 06//2 20000 ///20 41100;
0177994270999992011011209004+42967-070617FM-12+0019IOSN3V0200601N016419999999N9999999N1-00041-00191100601ADDMD1810711+9999OA139901801REMSYN140CMAN  12094 IOSN3 46/// /0632 11004 21019 40060 58071 90900 333 91235 555 11030 22032 30834 407037 60859 061032 067031 067032 069031 078008;
0177994270999992011011210004+42967-070617FM-12+0019IOSN3V0200601N015419999999N9999999N1+00001-00071100461ADDMD1610811+9999OA139901701REMSYN140CMAN  12104 IOSN3 46/// /0630 10000 21007 40046 56081 91000 333 91233 555 11028 22030 30948 406039 60959 061033 061033 063032 064033 060007;
0177994270999992011011211004+42967-070617FM-12+0019IOSN3V0200601N017019999999N9999999N1+00001-00021100131ADDMD1610911+9999OA139901851REMSYN140CMAN  12114 IOSN3 46/// /0633 10000 21002 40013 56091 91100 333 91236 555 11031 22033 31053 406046 61059 056038 053037 053037 055037 053011;
0177994270999992011011212004+42967-070617FM-12+0019IOSN3V0200601N021619999999N9999999N1+00001-00011099801ADDMD1810801+9999OA139902371REMSYN140CMAN  12124 IOSN3 46/// /0642 10000 21001 49980 58080 91200 333 91246 555 11039 22042 31155 406050 61159 056043 058041 055038 057039 055012;
0177994270999992011011213004+42967-070617FM-12+0019IOSN3V0200501N018519999999N9999999N1+00061+00041099591ADDMD1610871+9999OA139902261REMSYN140CMAN  12134 IOSN3 46/// /0536 10006 20004 49959 56087 91300 333 91244 555 11034 22037 31210 405050 61259 045036 049038 052039 053039 056004;
0177994270999992011011214004+42967-070617FM-12+0019IOSN3V0200201N018519999999N9999999N1-00021-00041099421ADDMD1610711+9999OA139902111REMSYN140CMAN  12144 IOSN3 46/// /0236 11002 21004 49942 56071 91400 333 91241 555 11034 22036 31325 404049 61359 030036 029036 040039 043040 043008;
0177994270999992011011215004+42967-070617FM-12+0019IOSN3V0200101N022119999999N9999999N1-00061-00081099101ADDMD1810701+9999OA139902571REMSYN140CMAN  12154 IOSN3 46/// /0143 11006 21008 49910 58070 91500 333 91250 555 11040 22043 31454 401051 61459 013042 013043 016041 026036 036007;
0177994270999992011011216004+42967-070617FM-12+0019IOSN3V0200201N020619999999N9999999N1-00101-00121098891ADDMD1810701+9999OA139902371REMSYN140CMAN  12164 IOSN3 46/// /0240 11010 21012 49889 58070 91600 333 91246 555 11037 22040 31503 401053 61559 016040 015040 016041 018042 016002;
0177994270999992011011217004+42967-070617FM-12+0019IOSN3V0200101N022619999999N9999999N1-00051-00061098691ADDMD1610731+9999OA139902471REMSYN140CMAN  12174 IOSN3 46/// /0144 11005 21006 49869 56073 91700 333 91248 555 11041 22044 31652 401052 61659 010042 011043 014041 015041 014015;
0177994270999992011011218004+42967-070617FM-12+0019IOSN3V0203501N019019999999N9999999N1-00081-00111098701ADDMD1610401+9999OA139902111REMSYN140CMAN  12184 IOSN3 46/// /3537 11008 21011 49870 56040 91800 333 91241 555 11034 22037 31705 401049 61759 349037 353038 356039 002037 008006;
0177994270999992011011219004+42967-070617FM-12+0019IOSN3V0203601N022119999999N9999999N1-00041-00061098801ADDMD1510091+9999OA139902421REMSYN140CMAN  12194 IOSN3 46/// /3643 11004 21006 49880 55009 91900 333 91247 555 11040 22043 31842 401049 61859 002041 004041 004036 002037 354003;
0177994270999992011011220004+42967-070617FM-12+0019IOSN3V0203601N018519999999N9999999N1-00031-00171098951ADDMD1310261+9999OA139902161REMSYN140CMAN  12204 IOSN3 46/// /3636 11003 21017 49895 53026 92000 333 91242 555 11034 22036 31911 401049 61959 355036 358038 358039 358038 005009;
0177994270999992011011221004+42967-070617FM-12+0019IOSN3V0203501N020019999999N9999999N1-00031-00181099091ADDMD1310391+9999OA139902321REMSYN140CMAN  12214 IOSN3 46/// /3539 11003 21018 49909 53039 92100 333 91245 555 11037 22040 32055 435048 62059 354037 354039 350038 353036 357010;
0177994270999992011011222004+42967-070617FM-12+0019IOSN3V0203501N017019999999N9999999N1-00051-00231099271ADDMD1310471+9999OA139902061REMSYN140CMAN  12224 IOSN3 46/// /3533 11005 21023 49927 53047 92200 333 91240 555 11031 22033 32102 435046 62159 348033 348035 355037 355036 353002;
0177994270999992011011223004+42967-070617FM-12+0019IOSN3V0203501N014919999999N9999999N1-00071-00291099431ADDMD1310481+9999OA139901651REMSYN140CMAN  12234 IOSN3 46/// /3529 11007 21029 49943 53048 92300 333 91232 555 11027 22029 32200 435041 62259 345031 344030 345031 349032 357018;
0177994270999992011011300004+42967-070617FM-12+0019IOSN3V0203401N014419999999N9999999N1-00091-00371099531ADDMD1110441+9999OA139901851REMSYN140CMAN  13004 IOSN3 46/// /3428 11009 21037 49953 51044 90000 333 91236 555 11027 22029 32343 434039 62359 340030 340031 338030 337030 334018;
0177994270999992011011301004+42967-070617FM-12+0019IOSN3V0203301N015919999999N9999999N1-00081-00231099601ADDMD1110331+9999OA139901801REMSYN140CMAN  13014 IOSN3 46/// /3331 11008 21023 49960 51033 90100 333 91235 555 11030 22032 30008 434040 60059 329030 334031 338032 338031 337011;
0177994270999992011011302004+42967-070617FM-12+0019IOSN3V0203401N014919999999N9999999N1-00081-00281099751ADDMD1310321+9999OA139901801REMSYN140CMAN  13024 IOSN3 46/// /3429 11008 21028 49975 53032 90200 333 91235 555 11027 22029 30104 433036 60159 340028 338029 334029 330030 323006;
0177994270999992011011303004+42967-070617FM-12+0019IOSN3V0203401N014919999999N9999999N1-00041-00431099881ADDMD1310351+9999OA139901701REMSYN140CMAN  13034 IOSN3 46/// /3429 11004 21043 49988 53035 90300 333 91233 555 11027 22029 30235 434036 60259 340028 338028 339029 338029 335007;
0177994270999992011011304004+42967-070617FM-12+0019IOSN3V0203301N013919999999N9999999N1-00031-00371100001ADDMD1110401+9999OA139901601REMSYN140CMAN  13044 IOSN3 46/// /3327 11003 21037 40000 51040 90400 333 91231 555 11026 22027 30310 433035 60359 334027 334028 336028 339028 331028;
0177994270999992011011305004+42967-070617FM-12+0019IOSN3V0203301N011819999999N9999999N1+00001-00481100101ADDMD1110351+9999OA139901341REMSYN140CMAN  13054 IOSN3 46/// /3323 10000 21048 40010 51035 90500 333 91226 555 11022 22023 30404 433035 60459 334024 334024 333025 332024 339004;
0177994270999992011011306004+42967-070617FM-12+0019IOSN3V0203301N013419999999N9999999N1+00041+99999100221ADDMD1210341+9999OA139901441REMSYN140CMAN  13064 IOSN3 46/// /3326 10004 40022 52034 90600 333 91228 555 11024 22026 30550 433033 60559 325026 328027 328025 331026 33010 042007;
0177994270999992011011307004+42967-070617FM-12+0019IOSN3V0203301N012919999999N9999999N1+00081-00521100401ADDMD1310401+9999OA139901441REMSYN140CMAN  13074 IOSN3 46/// /3325 10008 21052 40040 53040 90700 333 91228 555 11023 22025 30602 433034 60659 324025 324025 327025 329025 323027;
0177994270999992011011308004+42967-070617FM-12+0019IOSN3V0203101N010319999999N9999999N1+00021-00491100531ADDMD1310431+9999OA139901181REMSYN140CMAN  13084 IOSN3 46/// /3120 10002 21049 40053 53043 90800 333 91223 555 11019 22021 30712 433028 60759 311022 310022 312022 322022 323015;
0177994270999992011011309004+42967-070617FM-12+0019IOSN3V0203001N010319999999N9999999N1-00031-00491100641ADDMD1110421+9999OA139901131REMSYN140CMAN  13094 IOSN3 46/// /3020 11003 21049 40064 51042 90900 333 91222 555 11018 22020 30847 432027 60859 308021 313022 308023 304022 304016;
0177994270999992011011310004+42967-070617FM-12+0019IOSN3V0203101N011819999999N9999999N1-00111-00651100731ADDMD1110331+9999OA139901291REMSYN140CMAN  13104 IOSN3 46/// /3123 11011 21065 40073 51033 91000 333 91225 555 11021 22023 30927 431028 60959 307022 311022 309023 305023 308019;
0177994270999992011011311004+42967-070617FM-12+0019IOSN3V0203101N012319999999N9999999N1-00161-00661100891ADDMD1310361+9999OA139901441REMSYN140CMAN  13114 IOSN3 46/// /3124 11016 21066 40089 53036 91100 333 91228 555 11022 22024 31042 431029 61059 311024 308024 308023 305022 301022;
0017994270999992011011312004+42967-070617FM-12+0019IOSN3V0203101N013919999999N9999999N1-00221-00771100981ADDMD1210341+9999
0177994270999992011011313004+42967-070617FM-12+0019IOSN3V0203101N011319999999N9999999N1-00271-00791101221ADDMD1310491+9999OA139901291REMSYN140CMAN  13134 IOSN3 46/// /3122 11027 21079 40122 53049 91300 333 91225 555 11021 22023 31223 431032 61259 312022 309022 311024 309027 301020;
0177994270999992011011314004+42967-070617FM-12+0019IOSN3V0203101N011319999999N9999999N1-00251-00891101311ADDMD1210421+9999OA139901341REMSYN140CMAN  13144 IOSN3 46/// /3122 11025 21089 40131 52042 91400 333 91226 555 11020 22022 31358 431026 61359 311022 308021 309020 309020 300016;
0177994270999992011011315004+42967-070617FM-12+0019IOSN3V0203101N011819999999N9999999N1-00221-00921101381ADDMD1110401+9999OA139901291REMSYN140CMAN  13154 IOSN3 46/// /3123 11022 21092 40138 51040 91500 333 91225 555 11022 22023 31415 431029 61459 310023 308023 310023 310023 300025;
0177994270999992011011316004+42967-070617FM-12+0019IOSN3V0203001N010319999999N9999999N1-00171-00881101371ADDMD1110151+9999OA139901241REMSYN140CMAN  13164 IOSN3 46/// /3020 11017 21088 40137 51015 91600 333 91224 555 11019 22020 31506 431027 61559 302020 305020 303022 304023 302013;
0177994270999992011011317004+42967-070617FM-12+0019IOSN3V0203001N011319999999N9999999N1-00141-00841101331ADDMD1010001+9999OA139901291REMSYN140CMAN  13174 IOSN3 46/// /3022 11014 21084 40133 50000 91700 333 91225 555 11021 22023 31647 430027 61659 303023 297022 300019 303019 300010;
0177994270999992011011318004+42967-070617FM-12+0019IOSN3V0203001N011819999999N9999999N1-00091-01031101371ADDMD1510001+9999OA139901341REMSYN140CMAN  13184 IOSN3 46/// /3023 11009 21103 40137 55000 91800 333 91226 555 11022 22023 31743 430028 61759 300023 298025 301023 304023 300009;
0177994270999992011011319004+42967-070617FM-12+0019IOSN3V0203001N011319999999N9999999N1-00101-01061101461ADDMD1310091+9999OA139901241REMSYN140CMAN  13194 IOSN3 46/// /3022 11010 21106 40146 53009 91900 333 91224 555 11021 22023 31835 430026 61859 294023 301020 303022 303021 297007;
0177994270999992011011320004+42967-070617FM-12+0019IOSN3V0203001N011319999999N9999999N1-00101-01041101581ADDMD1310251+9999OA139901241REMSYN140CMAN  13204 IOSN3 46/// /3022 11010 21104 40158 53025 92000 333 91224 555 11021 22022 31952 429027 61959 295023 298021 302022 299022 296005;
0177994270999992011011321004+42967-070617FM-12+0019IOSN3V0202901N009319999999N9999999N1-00141-01021101731ADDMD1310361+9999OA139901031REMSYN140CMAN  13214 IOSN3 46/// /2918 11014 21102 40173 53036 92100 333 91220 555 11017 22018 32036 430024 62059 294018 298020 300021 297022 301008;
0177994270999992011011322004+42967-070617FM-12+0019IOSN3V0202901N010319999999N9999999N1-00191-00981101791ADDMD1110331+9999OA139901131REMSYN140CMAN  13224 IOSN3 46/// /2920 11019 21098 40179 51033 92200 333 91222 555 11019 22020 32134 430024 62159 296021 299020 298020 297020 293007;
0177994270999992011011323004+42967-070617FM-12+0019IOSN3V0203001N010819999999N9999999N1-00271-00941101881ADDMD1110301+9999OA139901181REMSYN140CMAN  13234 IOSN3 46/// /3021 11027 21094 40188 51030 92300 333 91223 555 11020 22022 32205 429026 62259 295021 298020 299021 299020 295008;
0177994270999992011011400004+42967-070617FM-12+0019IOSN3V0203101N009819999999N9999999N1-00341-00921101991ADDMD1310261+9999OA139901081REMSYN140CMAN  14004 IOSN3 46/// /3119 11034 21092 40199 53026 90000 333 91221 555 11018 22020 32316 430024 62359 303019 300020 301020 299020 297008;
0017994270999992011011401004+42967-070617FM-12+0019IOSN3V0203101N008219999999N9999999N1-00401-01001102061ADDMD1110271+9999
0017994270999992011011402004+42967-070617FM-12+0019IOSN3V0203001N008719999999N9999999N1-00451-00971102111ADDMD1110231+9999
0177994270999992011011403004+42967-070617FM-12+0019IOSN3V0203101N009819999999N9999999N1-00511-01041102131ADDMD1110141+9999OA139901081REMSYN140CMAN  14034 IOSN3 46/// /3119 11051 21104 40213 51014 90300 333 91221 555 11018 22019 30238 431022 60259 308019 308018 308019 305018 303027;
0177994270999992011011404004+42967-070617FM-12+0019IOSN3V0203001N009819999999N9999999N1-00561-01031102161ADDMD1110101+9999OA139901131REMSYN140CMAN  14044 IOSN3 46/// /3019 11056 21103 40216 51010 90400 333 91222 555 11018 22019 30325 430023 60359 305019 308019 308020 308019 309024;
0177994270999992011011405004+42967-070617FM-12+0019IOSN3V0203101N008719999999N9999999N1-00621-01111102191ADDMD1310081+9999OA139900931REMSYN140CMAN  14054 IOSN3 46/// /3117 11062 21111 40219 53008 90500 333 91218 555 11016 22017 30405 431022 60459 304017 302017 305018 306018 306029;
0177994270999992011011406004+42967-070617FM-12+0019IOSN3V0203101N007219999999N9999999N1-00641-01111102231ADDMD1310101+9999OA139900821REMSYN140CMAN  14064 IOSN3 46/// /3114 11064 21111 40223 53010 90600 333 91216 555 11014 22014 30507 430019 60559 308014 307015 309015 309016 302025;
0177994270999992011011407004+42967-070617FM-12+0019IOSN3V0203101N006219999999N9999999N1-00661-01111102281ADDMD1310121+9999OA139900721REMSYN140CMAN  14074 IOSN3 46/// /3112 11066 21111 40228 53012 90700 333 91214 555 11012 22012 30614 431018 60659 314013 312013 311014 311013 311022;
0177994270999992011011408004+42967-070617FM-12+0019IOSN3V0203001N005119999999N9999999N1-00671-01091102311ADDMD1110121+9999OA139900671REMSYN140CMAN  14084 IOSN3 46/// /3010 11067 21109 40231 51012 90800 333 91213 555 11010 22010 30755 431014 60759 305011 307011 307011 307012 303025;
0177994270999992011011409004+42967-070617FM-12+0019IOSN3V0203101N005119999999N9999999N1-00671-01091102351ADDMD1110121+9999OA139900621REMSYN140CMAN  14094 IOSN3 46/// /3110 11067 21109 40235 51012 90900 333 91212 555 11010 22010 30826 430014 60859 308011 311011 306011 306011 302027;
0177994270999992011011410004+42967-070617FM-12+0019IOSN3V0203201N006219999999N9999999N1-00671-01091102321ADDMD1010041+9999OA139900721REMSYN140CMAN  14104 IOSN3 46/// /3212 11067 21109 40232 50004 91000 333 91214 555 11011 22012 30959 432014 60959 317012 316011 316011 312011 307027;
0017994270999992011011411004+42967-070617FM-12+0019IOSN3V0203101N005119999999N9999999N1-00661-01081102361ADDMD1210051+9999
0177994270999992011011412004+42967-070617FM-12+0019IOSN3V0203001N004619999999N9999999N1-00681-01101102411ADDMD1310061+9999OA139900511REMSYN140CMAN  14124 IOSN3 46/// /3009 11068 21110 40241 53006 91200 333 91210 555 11009 22009 31131 431012 61159 302009 309009 308009 309010 310025;
0177994270999992011011413004+42967-070617FM-12+0019IOSN3V0203001N005119999999N9999999N1-00681-01111102481ADDMD1310161+9999OA139900621REMSYN140CMAN  14134 IOSN3 46/// /3010 11068 21111 40248 53016 91300 333 91212 555 11009 22010 31259 429012 61259 299009 302009 302010 292009 300024;
0177994270999992011011414004+42967-070617FM-12+0019IOSN3V0203201N005719999999N9999999N1-00641-01101102501ADDMD1110141+9999OA139900671REMSYN140CMAN  14144 IOSN3 46/// /3211 11064 21110 40250 51014 91400 333 91213 555 11011 22011 31355 432013 61359 324011 318010 312009 305009 303029;
0182994270999992011011415004+42967-070617FM-12+0019IOSN3V0203301N005119999999N9999999N1-00631-01071102491ADDMD1110081+9999OA139900621REMSYN145CMAN  14154 IOSN3 46/// /3310 11063 21107 40249 51008 91500 333 91212 555 11009 22010 31410 432013 61459 323010 316010 319010 322010 32604 52///;
0177994270999992011011416004+42967-070617FM-12+0019IOSN3V0203401N003619999999N9999999N1-00551-01071102471ADDMD1410001+9999OA139900411REMSYN140CMAN  14164 IOSN3 46/// /3407 11055 21107 40247 54000 91600 333 91208 555 11006 22007 31503 433012 61559 338008 337008 331008 327009 326027;
0177994270999992011011417004+42967-070617FM-12+0019IOSN3V0203601N002619999999N9999999N1-00501-01081102391ADDMD1810111+9999OA139900311REMSYN140CMAN  14174 IOSN3 46/// /3605 11050 21108 40239 58011 91700 333 91206 555 11005 22005 31606 434010 61659 350005 000006 355007 356007 340028;
0177994270999992011011418004+42967-070617FM-12+0019IOSN3V0203301N004619999999N9999999N1-00461-01071102291ADDMD1810201+9999OA139900671REMSYN140CMAN  14184 IOSN3 46/// /3309 11046 21107 40229 58020 91800 333 91213 555 11009 22009 31759 433013 61759 325008 326006 320005 325005 338024;
0177994270999992011011419004+42967-070617FM-12+0019IOSN3V0203201N005119999999N9999999N1-00411-01091102311ADDMD1610161+9999OA139900621REMSYN140CMAN  14194 IOSN3 46/// /3210 11041 21109 40231 56016 91900 333 91212 555 11009 22010 31851 431013 61859 314010 324009 313009 318009 315032;
0177994270999992011011420004+42967-070617FM-12+0019IOSN3V0203101N004619999999N9999999N1-00351-01111102331ADDMD1610061+9999OA139900511REMSYN140CMAN  14204 IOSN3 46/// /3109 11035 21111 40233 56006 92000 333 91210 555 11008 22009 31901 432012 61959 310009 308009 307009 306009 310019;
0177994270999992011011421004+42967-070617FM-12+0019IOSN3V0203001N006219999999N9999999N1-00331-01031102331ADDMD1210041+9999OA139900671REMSYN140CMAN  14214 IOSN3 46/// /3012 11033 21103 40233 52004 92100 333 91213 555 11011 22012 32052 431013 62059 300011 301010 311009 309009 302017;
0177994270999992011011422004+42967-070617FM-12+0019IOSN3V0203001N007219999999N9999999N1-00391-01041102361ADDMD1310051+9999OA139900821REMSYN140CMAN  14224 IOSN3 46/// /3014 11039 21104 40236 53005 92200 333 91216 555 11013 22014 32153 431016 62159 301014 303012 309012 310012 309016;
0177994270999992011011423004+42967-070617FM-12+0019IOSN3V0203001N008219999999N9999999N1-00461-01141102361ADDMD1210031+9999OA139900931REMSYN140CMAN  14234 IOSN3 46/// /3016 11046 21114 40236 52003 92300 333 91218 555 11015 22016 32204 429018 62259 295015 288015 284015 287014 287013;
0201994270999992011011500004+42967-070617FM-12+0019IOSN3V0202901N007719999999N9999999N1-00511-01171102391ADDMD1210061+9999OA139900821REMSYN164CMAN  15004 IOSN3 46/// /2915 11051 21117 40239 52006 90000 333 91216 555 11014 22015 32356 430017 62359 295015 284014 290014 290014 28 90318 91218 95180 444 76124;
0177994270999992011011501004+42967-070617FM-12+0019IOSN3V0202901N008219999999N9999999N1-00611-01141102361ADDMD1010001+9999OA139900931REMSYN140CMAN  15014 IOSN3 46/// /2916 11061 21114 40236 50000 90100 333 91218 555 11015 22016 30040 429019 60059 293016 289016 292015 291015 288031;
0177994270999992011011502004+42967-070617FM-12+0019IOSN3V0203001N007219999999N9999999N1-00651-01071102361ADDMD1010001+9999OA139900821REMSYN140CMAN  15024 IOSN3 46/// /3014 11065 21107 40236 50000 90200 333 91216 555 11013 22014 30107 429019 60159 302014 301014 302014 303015 295013;
0177994270999992011011503004+42967-070617FM-12+0019IOSN3V0203101N007719999999N9999999N1-00701-01121102351ADDMD1610041+9999OA139900881REMSYN140CMAN  15034 IOSN3 46/// /3115 11070 21112 40235 56004 90300 333 91217 555 11014 22015 30227 430018 60259 311014 316014 311014 307014 306005;
0177994270999992011011504004+42967-070617FM-12+0019IOSN3V0203201N007219999999N9999999N1-00681-01031102361ADDMD1410001+9999OA139900771REMSYN140CMAN  15044 IOSN3 46/// /3214 11068 21103 40236 54000 90400 333 91215 555 11013 22014 30301 431018 60359 320014 320014 320015 317015 311024;
0177994270999992011011505004+42967-070617FM-12+0019IOSN3V0203101N008219999999N9999999N1-00751-01131102361ADDMD1410001+9999OA139900881REMSYN140CMAN  15054 IOSN3 46/// /3116 11075 21113 40236 54000 90500 333 91217 555 11015 22016 30455 432018 60459 316015 316014 316015 316015 314007;
0177994270999992011011506004+42967-070617FM-12+0019IOSN3V0203201N006719999999N9999999N1-00771-01141102371ADDMD1410001+9999OA139900771REMSYN140CMAN  15064 IOSN3 46/// /3213 11077 21114 40237 54000 90600 333 91215 555 11012 22013 30507 432018 60559 313013 316013 319013 318014 311015;
0177994270999992011011507004+42967-070617FM-12+0019IOSN3V0203101N006719999999N9999999N1-00791-01161102361ADDMD1410001+9999OA139900721REMSYN140CMAN  15074 IOSN3 46/// /3113 11079 21116 40236 54000 90700 333 91214 555 11012 22013 30609 432017 60659 315013 317013 317014 322013 311016;
0177994270999992011011508004+42967-070617FM-12+0019IOSN3V0203201N006219999999N9999999N1-00801-01161102351ADDMD1410001+9999OA139900671REMSYN140CMAN  15084 IOSN3 46/// /3212 11080 21116 40235 54000 90800 333 91213 555 11011 22012 30701 432016 60759 316012 315012 312012 314012 321012;
0017994270999992011011509004+42967-070617FM-12+0019IOSN3V0203201N006219999999N9999999N1-00851-01201102351ADDMD1410001+9999
0177994270999992011011510004+42967-070617FM-12+0019IOSN3V0203301N005719999999N9999999N1-00841-01131102321ADDMD1810041+9999OA139900671REMSYN140CMAN  15104 IOSN3 46/// /3311 11084 21113 40232 58004 91000 333 91213 555 11011 22011 30947 432014 60959 324012 323011 325011 319011 312011;
0177994270999992011011511004+42967-070617FM-12+0019IOSN3V0203501N005119999999N9999999N1-00791-01161102301ADDMD1710051+9999OA139900571REMSYN140CMAN  15114 IOSN3 46/// /3510 11079 21116 40230 57005 91100 333 91211 555 11009 22010 31003 433016 61059 344009 337010 329011 328011 325010;
0177994270999992011011512004+42967-070617FM-12+0019IOSN3V0203301N004619999999N9999999N1-00781-01061102301ADDMD1610051+9999OA139900511REMSYN140CMAN  15124 IOSN3 46/// /3309 11078 21106 40230 56005 91200 333 91210 555 11008 22009 31102 434012 61159 327009 336007 343008 340008 334008;
0177994270999992011011513004+42967-070617FM-12+0019IOSN3V0203201N004119999999N9999999N1-00801-01051102301ADDMD1410001+9999OA139900511REMSYN140CMAN  15134 IOSN3 46/// /3208 11080 21105 40230 54000 91300 333 91210 555 11008 22008 31204 434012 61259 320008 327008 329008 327008 328026;
0177994270999992011011514004+42967-070617FM-12+0019IOSN3V0203101N004119999999N9999999N1-00801-01131102291ADDMD1410001+9999OA139900461REMSYN140CMAN  15144 IOSN3 46/// /3108 11080 21113 40229 54000 91400 333 91209 555 11008 22008 31333 431011 61359 308008 305008 306009 308008 316012;
0177994270999992011011515004+42967-070617FM-12+0019IOSN3V0203201N002619999999N9999999N1-00721-01081102221ADDMD1810081+9999OA139900361REMSYN140CMAN  15154 IOSN3 46/// /3205 11072 21108 40222 58008 91500 333 91207 555 11005 22005 31402 431009 61459 314005 314006 310006 305007 310018;
0177994270999992011011516004+42967-070617FM-12+0019IOSN3V0202501N003619999999N9999999N1-00671-01061102121ADDMD1810181+9999OA139900361REMSYN140CMAN  15164 IOSN3 46/// /2507 11067 21106 40212 58018 91600 333 91207 555 11006 22007 31538 427009 61559 257006 264006 266006 270005 280023;
0177994270999992011011517004+42967-070617FM-12+0019IOSN3V0202201N005119999999N9999999N1-00631-01031102001ADDMD1810291+9999OA139900571REMSYN140CMAN  15174 IOSN3 46/// /2210 11063 21103 40200 58029 91700 333 91211 555 11010 22010 31657 422011 61659 224008 230008 236008 238007 242023;
0177994270999992011011518004+42967-070617FM-12+0019IOSN3V0202101N005119999999N9999999N1-00581-01171101811ADDMD1810411+9999OA139900621REMSYN140CMAN  15184 IOSN3 46/// /2110 11058 21117 40181 58041 91800 333 91212 555 11009 22010 31742 421013 61759 206010 205009 203010 205010 208024;
0177994270999992011011519004+42967-070617FM-12+0019IOSN3V0202101N007219999999N9999999N1-00511-01131101761ADDMD1610361+9999OA139900821REMSYN140CMAN  15194 IOSN3 46/// /2114 11051 21113 40176 56036 91900 333 91216 555 11013 22014 31858 421016 61859 222013 220011 218010 218009 216025;
0177994270999992011011520004+42967-070617FM-12+0019IOSN3V0202001N006719999999N9999999N1-00451-01111101671ADDMD1610331+9999OA139900771REMSYN140CMAN  15204 IOSN3 46/// /2013 11045 21111 40167 56033 92000 333 91215 555 11012 22013 31900 421017 61959 203012 207012 207013 209013 211025;
0177994270999992011011521004+42967-070617FM-12+0019IOSN3V0202001N007719999999N9999999N1-00371-01001101551ADDMD1810261+9999OA139900881REMSYN140CMAN  15214 IOSN3 46/// /2015 11037 21100 40155 58026 92100 333 91217 555 11014 22015 32047 420019 62059 202014 201015 201014 204016 208026;
0017994270999992011011522004+42967-070617FM-12+0019IOSN3V0202001N009819999999N9999999N1-00281-00901101461ADDMD1710301+9999
0177994270999992011011523004+42967-070617FM-12+0019IOSN3V0202001N011319999999N9999999N1-00191-00761101331ADDMD1810341+9999OA139901291REMSYN140CMAN  15234 IOSN3 46/// /2022 11019 21076 40133 58034 92300 333 91225 555 11021 22022 32232 420028 62259 202022 197023 194023 197023 197021;
0177994270999992011011600004+42967-070617FM-12+0019IOSN3V0202101N013419999999N9999999N1-00131-00491101221ADDMD1810331+9999OA139901441REMSYN140CMAN  16004 IOSN3 46/// /2126 11013 21049 40122 58033 90000 333 91228 555 11024 22026 32334 421029 62359 206025 207024 209024 208024 218017;
0177994270999992011011601004+42967-070617FM-12+0019IOSN3V0202101N010819999999N9999999N1-00091-00341101171ADDMD1610291+9999OA139901181REMSYN140CMAN  16014 IOSN3 46/// /2121 11009 21034 40117 56029 90100 333 91223 555 11020 22021 30010 421029 60059 208022 210024 211023 208023 209019;
0215994270999992011011602004+42967-070617FM-12+0019IOSN3V0202201N011819999999N9999999N1-00081-00361101061ADDMD1710271+9999OA139901341REMSYN178CMAN  16024 IOSN3 46/// /2223 11008 21036 40106 57027 90200 333 91226 555 11022 22023 30157 422028 60159 217023 217022 217021 215021 21 094042 087038 073028 071027 070027 069027;
0177994270999992011011603004+42967-070617FM-12+0019IOSN3V0202301N012919999999N9999999N1-00061-00321100961ADDMD1810261+9999OA139901441REMSYN140CMAN  16034 IOSN3 46/// /2325 11006 21032 40096 58026 90300 333 91228 555 11024 22025 30232 423031 60259 229024 225025 223025 222024 219020;
