0225994270999992012010100004+42967-070617FM-12+0019IOSN3V0202901N005119999999N9999999N1+00301+00291101101ADDMD1310081+9999OA139900571REMSYN188CMAN  01004 IOSN3 46/// /2910 10030 20029 40110 53008 90000 333 91211 555 11010 22010 32358 429011 62359 290009 286009 288007 296007 30011 072349 260007 292010 317009 331014 333005 338006;
0177994270999992012010101004+42967-070617FM-12+0019IOSN3V0203101N003119999999N9999999N1+00291+00281101121ADDMD1210091+9999OA139900461REMSYN140CMAN  01014 IOSN3 46/// /3106 10029 20028 40112 52009 90100 333 91209 555 11006 22006 30011 431013 60059 316007 319008 304008 307008 310000;
0017994270999992012010102004+42967-070617FM-12+0019IOSN3V0202901N003119999999N9999999N1+00271+00251101191ADDMD1310141+9999
0017994270999992012010103004+42967-070617FM-12+0019IOSN3V0202901N004119999999N9999999N1+00241+00231101201ADDMD1210101+9999
0017994270999992012010104004+42967-070617FM-12+0019IOSN3V0203001N004119999999N9999999N1+00251+00231101191ADDMD1110071+9999
0017994270999992012010105004+42967-070617FM-12+0019IOSN3V0202901N008219999999N9999999N1+00351+00251101221ADDMD1310031+9999
0017994270999992012010106004+42967-070617FM-12+0019IOSN3V0203001N007719999999N9999999N1+00431+00291101291ADDMD1310091+9999
0225994270999992012010107004+42967-070617FM-12+0019IOSN3V0203201N004619999999N9999999N1+00501+00301101291ADDMD1110101+9999OA139900571REMSYN188CMAN  01074 IOSN3 46/// /3209 10050 20030 40129 51010 90700 333 91211 555 11009 22009 30601 430016 60659 320010 322009 322009 322010 310305 60649 032040 036022 056011 071007 105008 065023;
0177994270999992012010108004+42967-070617FM-12+0019IOSN3V0202601N007719999999N9999999N1+00521+00371101401ADDMD1310181+9999OA139900881REMSYN140CMAN  01084 IOSN3 46/// /2615 10052 20037 40140 53018 90800 333 91217 555 11014 22015 30756 426017 60759 265014 267012 268009 292008 290008;
0177994270999992012010109004+42967-070617FM-12+0019IOSN3V0202801N005719999999N9999999N1+00501+00331101451ADDMD1310161+9999OA139900721REMSYN140CMAN  01094 IOSN3 46/// /2811 10050 20033 40145 53016 90900 333 91214 555 11011 22011 30805 427016 60859 277012 278012 276012 271012 260000;
0177994270999992012010110004+42967-070617FM-12+0019IOSN3V0202701N006219999999N9999999N1+00511+00361101521ADDMD1110231+9999OA139900671REMSYN140CMAN  01104 IOSN3 46/// /2712 10051 20036 40152 51023 91000 333 91213 555 11011 22012 30955 428015 60959 274013 277013 277013 277012 273006;
0177994270999992012010111004+42967-070617FM-12+0019IOSN3V0202901N006219999999N9999999N1+00511+00301101611ADDMD1310211+9999OA139900721REMSYN140CMAN  01114 IOSN3 46/// /2912 10051 20030 40161 53021 91100 333 91214 555 11011 22012 31042 430017 61059 285012 283014 280014 279013 276008;
0177994270999992012010112004+42967-070617FM-12+0019IOSN3V0202901N004119999999N9999999N1+00501+00321101681ADDMD1210231+9999OA139900461REMSYN140CMAN  01124 IOSN3 46/// /2908 10050 20032 40168 52023 91200 333 91209 555 11008 22008 31108 429014 61159 290007 297008 299009 297009 291007;
0177994270999992012010113004+42967-070617FM-12+0019IOSN3V0202901N002119999999N9999999N1+00491+00271101751ADDMD1110231+9999OA139900261REMSYN140CMAN  01134 IOSN3 46/// /2904 10049 20027 40175 51023 91300 333 91205 555 11004 22004 31228 429010 61259 297004 293006 291008 294008 280007;
0017994270999992012010114004+42967-070617FM-12+0019IOSN3V0202801N002619999999N9999999N1+00511+00291101761ADDMD1110151+9999
0017994270999992012010115004+42967-070617FM-12+0019IOSN3V0202501N002119999999N9999999N1+00531+00281101781ADDMD1110101+9999
0017994270999992012010116004+42967-070617FM-12+0019IOSN3V0202501N003619999999N9999999N1+00611+00341101711ADDMD1810041+9999
0177994270999992012010117004+42967-070617FM-12+0019IOSN3V0202401N004619999999N9999999N1+00691+00331101621ADDMD1810141+9999OA139900461REMSYN140CMAN  01174 IOSN3 46/// /2409 10069 20033 40162 58014 91700 333 91209 555 11008 22009 31658 424009 61659 238008 243008 247008 250008 249008;
0177994270999992012010118004+42967-070617FM-12+0019IOSN3V0201901N003619999999N9999999N1+00711+00301101501ADDMD1810281+9999OA139900361REMSYN140CMAN  01184 IOSN3 46/// /1907 10071 20030 40150 58028 91800 333 91207 555 11007 22007 31701 424009 61759 200008 211009 218007 228007 233028;
0225994270999992012010119004+42967-070617FM-12+0019IOSN3V0201501N005119999999N9999999N1+00781+00451101431ADDMD1610281+9999OA139900571REMSYN188CMAN  01194 IOSN3 46/// /1510 10078 20045 40143 56028 91900 333 91211 555 11010 22010 31858 415011 61859 157010 166009 172009 174008 170709 61849 081067 073068 070068 068067 066066 059065;
0017994270999992012010120004+42967-070617FM-12+0019IOSN3V0201401N007719999999N9999999N1+00751+00491101381ADDMD1610241+9999
0017994270999992012010121004+42967-070617FM-12+0019IOSN3V0201601N009819999999N9999999N1+00731+00561101351ADDMD1610151+9999
0177994270999992012010122004+42967-070617FM-12+0019IOSN3V0201301N009819999999N9999999N1+00721+00531101191ADDMD1810241+9999OA139901081REMSYN140CMAN  01224 IOSN3 46/// /1319 10072 20053 40119 58024 92200 333 91221 555 11018 22019 32147 413022 62159 135019 135020 142017 151017 157002;
0017994270999992012010123004+42967-070617FM-12+0019IOSN3V0201601N012919999999N9999999N1+00781+00491101101ADDMD1810281+9999
0173994270999992012010200004+42967-070617FM-12+0019IOSN3V0201701N010819999999N9999999N1+00801+00531101061ADDMD1610291+9999OA139901181REMSYN136CMAN  02004 IOSN3 46/// /1721 10080 20053 40106 56029 90000 333 91223 555 11020 22021 32303 416027 62359 169019 182021 174020 166021 16;
0017994270999992012010201004+42967-070617FM-12+0019IOSN3V0201701N011319999999N9999999N1+00771+00631100941ADDMD1810251+9999
0177994270999992012010202004+42967-070617FM-12+0019IOSN3V0201801N011819999999N9999999N1+00761+00661100841ADDMD1810261+9999OA139901291REMSYN140CMAN  02024 IOSN3 46/// /1823 10076 20066 40084 58026 90200 333 91225 555 11021 22023 30155 418025 60159 177022 172021 165021 162022 160005;
0225994270999992012010203004+42967-070617FM-12+0019IOSN3V0201801N007719999999N9999999N1+00771+00681100761ADDMD1610301+9999OA139900821REMSYN188CMAN  02034 IOSN3 46/// /1815 10077 20068 40076 56030 90300 333 91216 555 11014 22015 30200 418025 60259 183016 187016 188017 185019 181508 60249 139058 145057 136059 146056 142055 144053;
0177994270999992012010204004+42967-070617FM-12+0019IOSN3V0201701N008219999999N9999999N1+00781+00701100611ADDMD1810331+9999OA139900881REMSYN140CMAN  02044 IOSN3 46/// /1716 10078 20070 40061 58033 90400 333 91217 555 11015 22016 30314 418018 60359 170015 180014 187015 184016 182004;
0177994270999992012010205004+42967-070617FM-12+0019IOSN3V0201601N010819999999N9999999N1+00791+00761100361ADDMD1810481+9999OA139901181REMSYN140CMAN  02054 IOSN3 46/// /1621 10079 20076 40036 58048 90500 333 91223 555 11020 22021 30456 416024 60459 159021 157021 159020 163019 163000;
0017994270999992012010206004+42967-070617FM-12+0019IOSN3V0201801N010319999999N9999999N1+00801+00781100291ADDMD1610471+9999
0225994270999992012010207004+42967-070617FM-12+0019IOSN3V0201901N009819999999N9999999N1+00841+00821100171ADDMD1610441+9999OA139901081REMSYN188CMAN  02074 IOSN3 46/// /1919 10084 20082 40017 56044 90700 333 91221 555 11018 22019 30600 418022 60659 185020 185019 183018 175019 171509 60649 150050 149051 144052 144056 146059 147061;
0017994270999992012010208004+42967-070617FM-12+0019IOSN3V0201801N008719999999N9999999N1+00831+00811100031ADDMD1810331+9999
0177994270999992012010209004+42967-070617FM-12+0019IOSN3V0202101N007719999999N9999999N1+00821+00801099951ADDMD1610341+9999OA139900821REMSYN140CMAN  02094 IOSN3 46/// /2115 10082 20080 49995 56034 90900 333 91216 555 11014 22015 30819 419019 60859 209016 203016 196018 194017 180130;
0189994270999992012010210004+42967-070617FM-12+0019IOSN3V0202701N011319999999N9999999N1+00691+00241099911ADDMD1610261+9999OA139901241REMSYN152CMAN  02104 IOSN3 46/// /2722 10069 20024 49991 56026 91000 333 91224 555 11021 22022 30948 425030 60959 262023 221018 210016 211015 217002 42200 51120;
0177994270999992012010211004+42967-070617FM-12+0019IOSN3V0202601N009819999999N9999999N1+00601+00191100031ADDMD1510001+9999OA139901131REMSYN140CMAN  02114 IOSN3 46/// /2619 10060 20019 40003 55000 91100 333 91222 555 11018 22019 31007 426029 61059 265019 263019 264018 264019 264012;
0017994270999992012010212004+42967-070617FM-12+0019IOSN3V0202601N009319999999N9999999N1+00551+00051100081ADDMD1310131+9999
0177994270999992012010213004+42967-070617FM-12+0019IOSN3V0202501N010319999999N9999999N1+00521-00101100091ADDMD1110181+9999OA139901131REMSYN140CMAN  02134 IOSN3 46/// /2520 10052 21010 40009 51018 91300 333 91222 555 11018 22020 31252 425023 61259 251020 249018 250017 252017 257007;
0177994270999992012010214004+42967-070617FM-12+0019IOSN3V0202501N011819999999N9999999N1+00461-00281100101ADDMD1110071+9999OA139901341REMSYN140CMAN  02144 IOSN3 46/// /2523 10046 21028 40010 51007 91400 333 91226 555 11022 22023 31325 425029 61359 251022 254021 254021 251023 248010;
0177994270999992012010215004+42967-070617FM-12+0019IOSN3V0202601N011319999999N9999999N1+00471-00411100121ADDMD1210041+9999OA139901241REMSYN140CMAN  02154 IOSN3 46/// /2622 10047 21041 40012 52004 91500 333 91224 555 11021 22022 31431 426030 61459 256023 252023 254024 257024 252015;
0017994270999992012010216004+42967-070617FM-12+0019IOSN3V0202601N013419999999N9999999N1+00481-00411100041ADDMD1810051+9999
0177994270999992012010217004+42967-070617FM-12+0019IOSN3V0202601N012919999999N9999999N1+00471-00561100011ADDMD1810091+9999OA139901441REMSYN140CMAN  02174 IOSN3 46/// /2625 10047 21056 40001 58009 91700 333 91228 555 11023 22025 31625 426033 61659 258026 260023 267026 264027 263024;
0017994270999992012010218004+42967-070617FM-12+0019IOSN3V0202501N011319999999N9999999N1+00501-00471099991ADDMD1610131+9999
0231994270999992012010219004+42967-070617FM-12+0019IOSN3V0202701N011819999999N9999999N1+00481-00591100021ADDMD1510001+9999OA139901291REMSYN194CMAN  02194 IOSN3 46/// /2723 10048 21059 40002 55000 91900 333 91225 555 11021 22023 31824 425032 61859 273022 269021 251024 252027 25007 262408 61849 237065 233067 229067 237063 231063 233066;
0177994270999992012010220004+42967-070617FM-12+0019IOSN3V0202601N013419999999N9999999N1+00471-00721100081ADDMD1310071+9999OA139901541REMSYN140CMAN  02204 IOSN3 46/// /2626 10047 21072 40008 53007 92000 333 91230 555 11025 22026 31940 425032 61959 257026 257026 263024 267023 270023;
0177994270999992012010221004+42967-070617FM-12+0019IOSN3V0202601N013919999999N9999999N1+00451-00721100131ADDMD1310141+9999OA139901601REMSYN140CMAN  02214 IOSN3 46/// /2627 10045 21072 40013 53014 92100 333 91231 555 11025 22027 32045 426032 62059 259026 257026 259023 264022 251022;
0177994270999992012010222004+42967-070617FM-12+0019IOSN3V0202601N010319999999N9999999N1+00421-00601100301ADDMD1310281+9999OA139901291REMSYN140CMAN  02224 IOSN3 46/// /2620 10042 21060 40030 53028 92200 333 91225 555 11019 22020 32105 426030 62159 259021 264023 262025 260025 258020;
0177994270999992012010223004+42967-070617FM-12+0019IOSN3V0202501N012319999999N9999999N1+00411-00611100361ADDMD1310281+9999OA139901441REMSYN140CMAN  02234 IOSN3 46/// /2524 10041 21061 40036 53028 92300 333 91228 555 11023 22024 32245 425030 62259 250024 248025 248022 248022 258017;
0177994270999992012010300004+42967-070617FM-12+0019IOSN3V0202501N011819999999N9999999N1+00371-00671100421ADDMD1110291+9999OA139901291REMSYN140CMAN  03004 IOSN3 46/// /2523 10037 21067 40042 51029 90000 333 91225 555 11021 22023 32304 425030 62359 250022 246021 249021 250024 257013;
0017994270999992012010301004+42967-070617FM-12+0019IOSN3V0202401N010819999999N9999999N1+00321-00661100451ADDMD1110151+9999
0231994270999992012010302004+42967-070617FM-12+0019IOSN3V0202501N011819999999N9999999N1+00281-00721100471ADDMD1110111+9999OA139901391REMSYN194CMAN  03024 IOSN3 46/// /2523 10028 21072 40047 51011 90200 333 91227 555 11021 22023 30151 424029 60159 245024 248024 244022 245021 240140 42310 60149 228081 230076 228077 233079 235080 236082;
0177994270999992012010303004+42967-070617FM-12+0019IOSN3V0202501N011819999999N9999999N1+00231-00671100481ADDMD1110061+9999OA139901291REMSYN140CMAN  03034 IOSN3 46/// /2523 10023 21067 40048 51006 90300 333 91225 555 11022 22023 30210 425028 60259 245022 248021 248022 250021 241001;
0177994270999992012010304004+42967-070617FM-12+0019IOSN3V0202501N011319999999N9999999N1+00181-00761100481ADDMD1210031+9999OA139901241REMSYN140CMAN  03044 IOSN3 46/// /2522 10018 21076 40048 52003 90400 333 91224 555 11021 22022 30302 425029 60359 253022 252023 248022 251023 243009;
0177994270999992012010305004+42967-070617FM-12+0019IOSN3V0202501N011819999999N9999999N1+00161-00781100491ADDMD1410001+9999OA139901441REMSYN140CMAN  03054 IOSN3 46/// /2523 10016 21078 40049 54000 90500 333 91228 555 11022 22024 30442 424028 60459 247023 247023 246023 246022 243011;
0177994270999992012010306004+42967-070617FM-12+0019IOSN3V0202601N012319999999N9999999N1+00091-00871100511ADDMD1210031+9999OA139901441REMSYN140CMAN  03064 IOSN3 46/// /2624 10009 21087 40051 52003 90600 333 91228 555 11023 22024 30522 425029 60559 252024 247022 248023 246023 244011;
0177994270999992012010307004+42967-070617FM-12+0019IOSN3V0202601N011319999999N9999999N1+00051-00931100571ADDMD1310091+9999OA139901341REMSYN140CMAN  03074 IOSN3 46/// /2622 10005 21093 40057 53009 90700 333 91226 555 11021 22022 30622 425029 60659 257021 253021 253023 253023 250016;
0177994270999992012010308004+42967-070617FM-12+0019IOSN3V0202701N008719999999N9999999N1-00021-01061100621ADDMD1310131+9999OA139901081REMSYN140CMAN  03084 IOSN3 46/// /2717 11002 21106 40062 53013 90800 333 91221 555 11016 22017 30704 425025 60759 275017 270019 267021 266021 267008;
0178994270999992012010309004+42967-070617FM-12+0019IOSN3V0202901N007719999999N9999999N1-00061-01081100631ADDMD1110121+9999OA139900881REMSYN141CMAN  03094 IOSN3 46/// /2915 11006 21108 40063 51012 90900 333 91217 555 11015 22016 30805 427025 60859 281017 281017 281018 276018 27/////;
0231994270999992012010310004+42967-070617FM-12+0019IOSN3V0202801N010319999999N9999999N1-00111-01071100651ADDMD1110081+9999OA139901181REMSYN194CMAN  03104 IOSN3 46/// /2820 11011 21107 40065 51008 91000 333 91223 555 11019 22020 30943 428026 60959 278020 279020 282018 282016 290935 42409 60949 250075 241071 236066 236070 237073 244074;
0177994270999992012010311004+42967-070617FM-12+0019IOSN3V0202901N008219999999N9999999N1-00171-01201100761ADDMD1310141+9999OA139900931REMSYN140CMAN  03114 IOSN3 46/// /2916 11017 21120 40076 53014 91100 333 91218 555 11015 22016 31006 428027 61059 280017 275017 280018 277019 279009;
0177994270999992012010312004+42967-070617FM-12+0019IOSN3V0203001N010319999999N9999999N1-00281-01241100851ADDMD1310221+9999OA139901181REMSYN140CMAN  03124 IOSN3 46/// /3020 11028 21124 40085 53022 91200 333 91223 555 11019 22020 31141 430026 61159 304020 303022 295019 304019 300002;
0177994270999992012010313004+42967-070617FM-12+0019IOSN3V0202901N009819999999N9999999N1-00341-01271100941ADDMD1110291+9999OA139901131REMSYN140CMAN  03134 IOSN3 46/// /2919 11034 21127 40094 51029 91300 333 91222 555 11018 22019 31236 429027 61259 287020 289021 290023 297020 291015;
0231994270999992012010314004+42967-070617FM-12+0019IOSN3V0203101N008719999999N9999999N1-00411-01211101041ADDMD1310281+9999OA139901031REMSYN194CMAN  03144 IOSN3 46/// /3117 11041 21121 40104 53028 91400 333 91220 555 11016 22017 31351 430025 61359 305019 312015 318016 301017 291254 43609 61349 352040 352058 005062 358059 001050 357068;
0177994270999992012010315004+42967-070617FM-12+0019IOSN3V0203101N010819999999N9999999N1-00451-01411100991ADDMD1010141+9999OA139901241REMSYN140CMAN  03154 IOSN3 46/// /3121 11045 21141 40099 50014 91500 333 91224 555 11019 22021 31450 431027 61459 311021 309020 317019 319018 322011;
0231994270999992012010316004+42967-070617FM-12+0019IOSN3V0203101N009319999999N9999999N1-00471-01421100971ADDMD1110031+9999OA139901081REMSYN194CMAN  03164 IOSN3 46/// /3118 11047 21142 40097 51003 91600 333 91221 555 11017 22018 31502 431029 61559 313020 317021 320019 312018 29027 343610 61549 002057 006062 354067 352062 356073 355081;
0177994270999992012010317004+42967-070617FM-12+0019IOSN3V0203001N009819999999N9999999N1-00481-01541101021ADDMD1510001+9999OA139901081REMSYN140CMAN  03174 IOSN3 46/// /3019 11048 21154 40102 55000 91700 333 91221 555 11018 22019 31623 431027 61659 311017 304018 306021 312022 322007;
0177994270999992012010318004+42967-070617FM-12+0019IOSN3V0203101N007219999999N9999999N1-00511-01521101001ADDMD1410001+9999OA139900931REMSYN140CMAN  03184 IOSN3 46/// /3114 11051 21152 40100 54000 91800 333 91218 555 11014 22014 31723 433026 61759 307015 312019 311020 321022 317007;
0177994270999992012010319004+42967-070617FM-12+0019IOSN3V0203001N006719999999N9999999N1-00531-01701101021ADDMD1110051+9999OA139900821REMSYN140CMAN  03194 IOSN3 46/// /3013 11053 21170 40102 51005 91900 333 91216 555 11013 22013 31842 430022 61859 307016 299018 304015 325015 317008;
0177994270999992012010320004+42967-070617FM-12+0019IOSN3V0203201N009819999999N9999999N1-00501-01511101101ADDMD1310081+9999OA139901081REMSYN140CMAN  03204 IOSN3 46/// /3219 11050 21151 40110 53008 92000 333 91221 555 11018 22019 31937 431023 61959 310016 305015 312016 307015 317034;
0177994270999992012010321004+42967-070617FM-12+0019IOSN3V0203001N010819999999N9999999N1-00541-01551101151ADDMD1310151+9999OA139901241REMSYN140CMAN  03214 IOSN3 46/// /3021 11054 21155 40115 53015 92100 333 91224 555 11019 22021 32058 430024 62059 303020 297018 297018 305017 308020;
0177994270999992012010322004+42967-070617FM-12+0019IOSN3V0203101N012919999999N9999999N1-00621-01571101221ADDMD1110201+9999OA139901491REMSYN140CMAN  03224 IOSN3 46/// /3125 11062 21157 40122 51020 92200 333 91229 555 11023 22025 32132 430029 62159 305025 304025 306025 303024 305009;
0017994270999992012010323004+42967-070617FM-12+0019IOSN3V0203101N012919999999N9999999N1-00691-01511101331ADDMD1310231+9999
0177994270999992012010400004+42967-070617FM-12+0019IOSN3V0203101N012919999999N9999999N1-00781-01551101481ADDMD1310331+9999OA139901491REMSYN140CMAN  04004 IOSN3 46/// /3125 11078 21155 40148 53033 90000 333 91229 555 11023 22025 32302 430030 62359 309023 307022 306023 311024 303006;
0177994270999992012010401004+42967-070617FM-12+0019IOSN3V0203101N010819999999N9999999N1-00911-01821101591ADDMD1210371+9999OA139901291REMSYN140CMAN  04014 IOSN3 46/// /3121 11091 21182 40159 52037 90100 333 91225 555 11020 22021 30002 430029 60059 310020 308021 311022 307023 311008;
0225994270999992012010402004+42967-070617FM-12+0019IOSN3V0203101N011319999999N9999999N1-00981-01781101581ADDMD1110251+9999OA139901241REMSYN188CMAN  04024 IOSN3 46/// /3122 11098 21178 40158 51025 90200 333 91224 555 11021 22022 30140 431027 60159 310023 309022 305023 305022 302205 60149 247031 255033 246034 236037 242032 244032;
0177994270999992012010403004+42967-070617FM-12+0019IOSN3V0203101N011319999999N9999999N1-01031-01631101561ADDMD1110081+9999OA139901241REMSYN140CMAN  04034 IOSN3 46/// /3122 11103 21163 40156 51008 90300 333 91224 555 11020 22022 30230 432028 60259 311021 304023 311022 305023 306012;
0177994270999992012010404004+42967-070617FM-12+0019IOSN3V0203201N010819999999N9999999N1-01081-01631101511ADDMD1810081+9999OA139901341REMSYN140CMAN  04044 IOSN3 46/// /3221 11108 21163 40151 58008 90400 333 91226 555 11020 22021 30347 431027 60359 314022 311021 308022 311021 305011;
0177994270999992012010405004+42967-070617FM-12+0019IOSN3V0203101N009819999999N9999999N1-01161-01701101581ADDMD1510001+9999OA139901131REMSYN140CMAN  04054 IOSN3 46/// /3119 11116 21170 40158 55000 90500 333 91222 555 11018 22019 30425 431026 60459 308019 309018 305019 308021 313011;
0225994270999992012010406004+42967-070617FM-12+0019IOSN3V0203301N008719999999N9999999N1-01151-01691101691ADDMD1310131+9999OA139900981REMSYN188CMAN  04064 IOSN3 46/// /3317 11115 21169 40169 53013 90600 333 91219 555 11016 22017 30506 432022 60559 322016 322016 316013 306016 303105 60549 311026 310026 309028 299027 293025 288024;
0017994270999992012010407004+42967-070617FM-12+0019IOSN3V0203101N006719999999N9999999N1-01181-01691101771ADDMD1310261+9999
0225994270999992012010408004+42967-070617FM-12+0019IOSN3V0203001N007719999999N9999999N1-01201-01681101761ADDMD1110181+9999OA139900931REMSYN188CMAN  04084 IOSN3 46/// /3015 11120 21168 40176 51018 90800 333 91218 555 11014 22015 30732 431021 60759 305016 306016 303016 304015 303105 60749 338019 322020 323027 320025 324028 319031;
0177994270999992012010409004+42967-070617FM-12+0019IOSN3V0203101N007719999999N9999999N1-01241-01731101791ADDMD1110101+9999OA139900981REMSYN140CMAN  04094 IOSN3 46/// /3115 11124 21173 40179 51010 90900 333 91219 555 11015 22016 30851 430021 60859 305017 305017 305016 309016 305016;
0177994270999992012010410004+42967-070617FM-12+0019IOSN3V0203101N008219999999N9999999N1-01251-01711101791ADDMD1410001+9999OA139900981REMSYN140CMAN  04104 IOSN3 46/// /3116 11125 21171 40179 54000 91000 333 91219 555 11015 22016 30939 431020 60959 312016 310016 309016 310016 318016;
0177994270999992012010411004+42967-070617FM-12+0019IOSN3V0203101N008219999999N9999999N1-01251-01701101791ADDMD1110031+9999OA139900981REMSYN140CMAN  04114 IOSN3 46/// /3116 11125 21170 40179 51003 91100 333 91219 555 11015 22016 31041 430021 61059 307016 306016 308016 312016 308016;
0177994270999992012010412004+42967-070617FM-12+0019IOSN3V0203001N008219999999N9999999N1-01251-01651101781ADDMD1410001+9999OA139900931REMSYN140CMAN  04124 IOSN3 46/// /3016 11125 21165 40178 54000 91200 333 91218 555 11015 22016 31112 431022 61159 305016 297017 294018 296019 305039;
0177994270999992012010413004+42967-070617FM-12+0019IOSN3V0203001N010319999999N9999999N1-01261-01641101801ADDMD1410001+9999OA139901181REMSYN140CMAN  04134 IOSN3 46/// /3020 11126 21164 40180 54000 91300 333 91223 555 11019 22020 31247 429025 61259 297020 295020 296019 302018 303024;
0177994270999992012010414004+42967-070617FM-12+0019IOSN3V0202901N008219999999N9999999N1-01211-01641101881ADDMD1310091+9999OA139900981REMSYN140CMAN  04144 IOSN3 46/// /2916 11121 21164 40188 53009 91400 333 91219 555 11015 22016 31305 429023 61359 294015 295017 295018 293019 290022;
0177994270999992012010415004+42967-070617FM-12+0019IOSN3V0202801N007219999999N9999999N1-01091-01661101881ADDMD1210101+9999OA139900821REMSYN140CMAN  04154 IOSN3 46/// /2814 11109 21166 40188 52010 91500 333 91216 555 11013 22014 31401 430020 61459 285013 289010 287011 292012 296027;
0236994270999992012010416004+42967-070617FM-12+0019IOSN3V0202801N005719999999N9999999N1-00941-01771101781ADDMD1010001+9999OA139900671REMSYN199CMAN  04164 IOSN3 46/// /2811 11094 21177 40178 50000 91600 333 91213 555 11010 22011 31508 427019 61559 282013 285012 290012 288013 28044 31527 43106 61549 301042 314039 315041 318033 327033 325039;
0017994270999992012010417004+42967-070617FM-12+0019IOSN3V0202901N008219999999N9999999N1-00751-01821101631ADDMD1810251+9999
0017994270999992012010418004+42967-070617FM-12+0019IOSN3V0202801N006219999999N9999999N1-00601-01871101571ADDMD1610311+9999
0177994270999992012010419004+42967-070617FM-12+0019IOSN3V0202801N006219999999N9999999N1-00511-01951101571ADDMD1610211+9999OA139900771REMSYN140CMAN  04194 IOSN3 46/// /2812 11051 21195 40157 56021 91900 333 91215 555 11011 22012 31815 429021 61859 278014 291013 285014 294014 290024;
0017994270999992012010420004+42967-070617FM-12+0019IOSN3V0202701N007219999999N9999999N1-00471-01991101561ADDMD1610071+9999
0177994270999992012010421004+42967-070617FM-12+0019IOSN3V0202601N007719999999N9999999N1-00431-01741101581ADDMD1410001+9999OA139900821REMSYN140CMAN  04214 IOSN3 46/// /2615 11043 21174 40158 54000 92100 333 91216 555 11014 22015 32008 426021 62059 264015 263014 260014 270014 261028;
0177994270999992012010422004+42967-070617FM-12+0019IOSN3V0202601N003619999999N9999999N1-00421-01811101591ADDMD1410001+9999OA139900411REMSYN140CMAN  04224 IOSN3 46/// /2607 11042 21181 40159 54000 92200 333 91208 555 11006 22007 32108 426018 62159 253007 254009 260011 267012 264026;
0177994270999992012010423004+42967-070617FM-12+0019IOSN3V0202501N005119999999N9999999N1-00391-01741101561ADDMD1010001+9999OA139900621REMSYN140CMAN  04234 IOSN3 46/// /2510 11039 21174 40156 50000 92300 333 91212 555 11009 22010 32248 425013 62259 257010 262009 263009 262009 256020;
0017994270999992012010500004+42967-070617FM-12+0019IOSN3V0202301N005119999999N9999999N1-00351-01601101571ADDMD1410001+9999
0177994270999992012010501004+42967-070617FM-12+0019IOSN3V0202401N008219999999N9999999N1-00311-01571101491ADDMD1810101+9999OA139900931REMSYN140CMAN  05014 IOSN3 46/// /2416 11031 21157 40149 58010 90100 333 91218 555 11015 22016 30034 424020 60059 224016 217016 232015 230015 220010;
0017994270999992012010502004+42967-070617FM-12+0019IOSN3V0202401N008719999999N9999999N1-00311-01531101381ADDMD1810181+9999
0177994270999992012010503004+42967-070617FM-12+0019IOSN3V0202401N009319999999N9999999N1-00311-01311101311ADDMD1610261+9999OA139901081REMSYN140CMAN  05034 IOSN3 46/// /2418 11031 21131 40131 56026 90300 333 91221 555 11017 22018 30248 423022 60259 241017 237017 232017 235017 239002;
0225994270999992012010504004+42967-070617FM-12+0019IOSN3V0202401N008219999999N9999999N1-00331-01271101301ADDMD1610191+9999OA139901031REMSYN188CMAN  05044 IOSN3 46/// /2416 11033 21127 40130 56019 90400 333 91220 555 11015 22017 30301 424023 60359 239016 241016 241017 240017 230909 60349 074062 076063 070062 071064 068065 074061;
0177994270999992012010505004+42967-070617FM-12+0019IOSN3V0202501N008219999999N9999999N1-00341-01381101251ADDMD1610131+9999OA139900931REMSYN140CMAN  05054 IOSN3 46/// /2516 11034 21138 40125 56013 90500 333 91218 555 11015 22016 30445 426022 60459 253015 254016 256016 251016 250000;
0017994270999992012010506004+42967-070617FM-12+0019IOSN3V0202601N006719999999N9999999N1-00341-01401101211ADDMD1810101+9999
0177994270999992012010507004+42967-070617FM-12+0019IOSN3V0202501N006219999999N9999999N1-00341-01211101161ADDMD1710141+9999OA139900771REMSYN140CMAN  05074 IOSN3 46/// /2512 11034 21121 40116 57014 90700 333 91215 555 11012 22012 30605 425016 60659 253013 251013 248012 254013 256005;
0177994270999992012010508004+42967-070617FM-12+0019IOSN3V0202601N006219999999N9999999N1-00331-01231101111ADDMD1810141+9999OA139900721REMSYN140CMAN  05084 IOSN3 46/// /2612 11033 21123 40111 58014 90800 333 91214 555 11012 22012 30721 425018 60759 257013 255014 254014 256015 245023;
0183994270999992012010509004+42967-070617FM-12+0019IOSN3V0202501N007719999999N9999999N1-00331-01281101081ADDMD1610131+9999OA139900881REMSYN146CMAN  05094 IOSN3 46/// /2515 11033 21128 40108 56013 90900 333 91217 555 11014 22015 30821 425018 60859 251014 256014 250014 254015 25//// 47601;
0177994270999992012010510004+42967-070617FM-12+0019IOSN3V0202601N007219999999N9999999N1-00311-01221101041ADDMD1610121+9999OA139900821REMSYN140CMAN  05104 IOSN3 46/// /2614 11031 21122 40104 56012 91000 333 91216 555 11014 22015 30957 425018 60959 253013 252013 248013 252014 254029;
0017994270999992012010511004+42967-070617FM-12+0019IOSN3V0202601N007219999999N9999999N1-00291-01141101011ADDMD1710101+9999
0177994270999992012010512004+42967-070617FM-12+0019IOSN3V0202601N007719999999N9999999N1-00291-01061100971ADDMD1710111+9999OA139900931REMSYN140CMAN  05124 IOSN3 46/// /2615 11029 21106 40097 57011 91200 333 91218 555 11014 22015 31101 425019 61159 253014 256015 253014 256013 253030;
0243994270999992012010513004+42967-070617FM-12+0019IOSN3V0202501N007719999999N9999999N1-00271-01041100971ADDMD1610071+9999OA139900881REMSYN206CMAN  05134 IOSN3 46/// /2515 11027 21104 40097 56007 91300 333 91217 555 11014 22015 31237 425018 61259 248015 247015 246015 251015 251156 41816 61249 276118 278103 283104 266091 185101 178105 81713 91200;
0017994270999992012010514004+42967-070617FM-12+0019IOSN3V0202501N007219999999N9999999N1-00211-00951101011ADDMD1510001+9999
0231994270999992012010515004+42967-070617FM-12+0019IOSN3V0202401N007219999999N9999999N1-00171-00891100981ADDMD1010001+9999OA139900931REMSYN194CMAN  05154 IOSN3 46/// /2414 11017 21089 40098 50000 91500 333 91218 555 11013 22014 31419 424019 61459 240014 249013 240013 239013 241353 41606 61449 149033 145031 150033 160040 158040 161042;
0177994270999992012010516004+42967-070617FM-12+0019IOSN3V0202301N007219999999N9999999N1-00121-00801100821ADDMD1810151+9999OA139900881REMSYN140CMAN  05164 IOSN3 46/// /2314 11012 21080 40082 58015 91600 333 91217 555 11013 22014 31511 426019 61559 238013 238013 239014 247013 254033;
0177994270999992012010517004+42967-070617FM-12+0019IOSN3V0202601N006219999999N9999999N1-00051-00841100741ADDMD1810271+9999OA139900721REMSYN140CMAN  05174 IOSN3 46/// /2612 11005 21084 40074 58027 91700 333 91214 555 11012 22012 31602 423017 61659 261011 259011 259012 253014 248031;
0170994270999992012010518004+42967-070617FM-12+0019IOSN3V0202601N007719999999N9999999N1+00071+99999100651ADDMD1610331+9999OA139900821REMSYN133CMAN  05184 IOSN3 46/// /2615 10007 40065 56033 91800 333 91216 555 11014 22015 31751 426017 61759 260015 263013 262012 263012 26905;
0017994270999992012010519004+42967-070617FM-12+0019IOSN3V0202701N009319999999N9999999N1+00151-00651100671ADDMD1610151+9999
0178994270999992012010520004+42967-070617FM-12+0019IOSN3V0202701N008719999999N9999999N1+00211-00661100711ADDMD1510031+9999OA139901081REMSYN141CMAN  05204 IOSN3 46/// /2717 10021 21066 40071 55003 92000 333 91221 555 11016 22017 31944 426022 61959 266016 261017 258016 259017 26/////;
0177994270999992012010521004+42967-070617FM-12+0019IOSN3V0202801N010319999999N9999999N1+00201-00801100731ADDMD1210081+9999OA139901131REMSYN140CMAN  05214 IOSN3 46/// /2820 10020 21080 40073 52008 92100 333 91222 555 11019 22020 32057 428024 62059 277020 271019 271018 279016 286013;
0017994270999992012010522004+42967-070617FM-12+0019IOSN3V0202801N007219999999N9999999N1+00171-00651100891ADDMD1310221+9999
0017994270999992012010523004+42967-070617FM-12+0019IOSN3V0202901N007719999999N9999999N1+00151-00591100951ADDMD1310241+9999
0173994270999992012010600004+42967-070617FM-12+0019IOSN3V0203001N009819999999N9999999N1+00031-00701101081ADDMD1110351+9999OA139901081REMSYN136CMAN  06004 IOSN3 46/// /3019 10003 21070 40108 51035 90000 333 91221 555 11018 22019 32349 431026 62359 315020 319018 308017 304018 30;
0177994270999992012010601004+42967-070617FM-12+0019IOSN3V0203201N008719999999N9999999N1-00091-01071101181ADDMD1310291+9999OA139901031REMSYN140CMAN  06014 IOSN3 46/// /3217 11009 21107 40118 53029 90100 333 91220 555 11016 22017 30030 433026 60059 314018 315021 322021 315016 311018;
0225994270999992012010602004+42967-070617FM-12+0019IOSN3V0203201N009819999999N9999999N1-00151-01171101241ADDMD1110291+9999OA139901181REMSYN188CMAN  06024 IOSN3 46/// /3219 11015 21117 40124 51029 90200 333 91223 555 11018 22020 30150 431025 60159 313020 311019 309017 308019 300609 60149 056073 056073 058071 055064 052064 055061;
0231994270999992012010603004+42967-070617FM-12+0019IOSN3V0203101N008219999999N9999999N1-00201-01181101291ADDMD1110211+9999OA139901081REMSYN194CMAN  06034 IOSN3 46/// /3116 11020 21118 40129 51021 90300 333 91221 555 11015 22016 30214 432025 60259 305017 305017 311018 308017 300151 42912 60249 302068 308075 295084 300082 297078 302090;
0177994270999992012010604004+42967-070617FM-12+0019IOSN3V0203001N010819999999N9999999N1-00241-01181101251ADDMD1010071+9999OA139901241REMSYN140CMAN  06044 IOSN3 46/// /3021 11024 21118 40125 50007 90400 333 91224 555 11019 22021 30335 430026 60359 302019 307020 308020 303020 318024;
0017994270999992012010605004+42967-070617FM-12+0019IOSN3V0203001N007719999999N9999999N1-00271-01181101301ADDMD1210061+9999
0177994270999992012010606004+42967-070617FM-12+0019IOSN3V0202901N008219999999N9999999N1-00281-01161101321ADDMD1310031+9999OA139900931REMSYN140CMAN  06064 IOSN3 46/// /2916 11028 21116 40132 53003 90600 333 91218 555 11015 22016 30537 429021 60559 291015 301016 297017 298017 297012;
0177994270999992012010607004+42967-070617FM-12+0019IOSN3V0202901N007219999999N9999999N1-00271-01201101391ADDMD1310141+9999OA139900881REMSYN140CMAN  06074 IOSN3 46/// /2914 11027 21120 40139 53014 90700 333 91217 555 11013 22014 30631 430019 60659 288014 286015 288015 289014 283010;
0177994270999992012010608004+42967-070617FM-12+0019IOSN3V0202601N004619999999N9999999N1-00261-00951101401ADDMD1210101+9999OA139900571REMSYN140CMAN  06084 IOSN3 46/// /2609 11026 21095 40140 52010 90800 333 91211 555 11008 22009 30701 428014 60759 267010 270010 271010 272010 276010;
0177994270999992012010609004+42967-070617FM-12+0019IOSN3V0202601N005719999999N9999999N1-00191-00901101371ADDMD1010051+9999OA139900621REMSYN140CMAN  06094 IOSN3 46/// /2611 11019 21090 40137 50005 90900 333 91212 555 11010 22011 30851 426013 60859 261011 261010 254010 254008 261018;
0231994270999992012010610004+42967-070617FM-12+0019IOSN3V0202701N004619999999N9999999N1-00221-00901101371ADDMD1410001+9999OA139900571REMSYN194CMAN  06104 IOSN3 46/// /2709 11022 21090 40137 54000 91000 333 91211 555 11008 22009 30916 425013 60959 268009 259009 257010 262010 250902 41105 60949 116034 112036 114038 117036 110038 109037;
0017994270999992012010611004+42967-070617FM-12+0019IOSN3V0202401N004619999999N9999999N1-00181-00891101371ADDMD1610031+9999
0017994270999992012010612004+42967-070617FM-12+0019IOSN3V0201701N001519999999N9999999N1-00191-00481101381ADDMD1410001+9999
0177994270999992012010613004+42967-070617FM-12+0019IOSN3V0201501N003619999999N9999999N1-00141-00471101411ADDMD1310041+9999OA139900461REMSYN140CMAN  06134 IOSN3 46/// /1507 11014 21047 40141 53004 91300 333 91209 555 11006 22007 31259 415009 61259 143005 156005 163004 145004 182023;
0017994270999992012010614004+42967-070617FM-12+0019IOSN3V0201401N004119999999N9999999N1-00021-00381101391ADDMD1410001+9999
0177994270999992012010615004+42967-070617FM-12+0019IOSN3V0201901N006719999999N9999999N1+00181-00251101301ADDMD1810081+9999OA139900821REMSYN140CMAN  06154 IOSN3 46/// /1913 10018 21025 40130 58008 91500 333 91216 555 11013 22013 31453 418017 61459 182015 172012 174012 146012 144016;
0017994270999992012010616004+42967-070617FM-12+0019IOSN3V0201701N008219999999N9999999N1+00281-00181101181ADDMD1810231+9999
0177994270999992012010617004+42967-070617FM-12+0019IOSN3V0201701N010319999999N9999999N1+00361-00021100971ADDMD1810421+9999OA139901131REMSYN140CMAN  06174 IOSN3 46/// /1720 10036 21002 40097 58042 91700 333 91222 555 11018 22020 31646 416023 61659 169020 167020 170019 174018 179013;
0177994270999992012010618004+42967-070617FM-12+0019IOSN3V0201801N008219999999N9999999N1+00421+00121100911ADDMD1610391+9999OA139900881REMSYN140CMAN  06184 IOSN3 46/// /1816 10042 20012 40091 56039 91800 333 91217 555 11015 22016 31739 418024 61759 178018 185019 180020 176019 175013;
0231994270999992012010619004+42967-070617FM-12+0019IOSN3V0202501N002119999999N9999999N1+00401-00011100891ADDMD1610291+9999OA139900261REMSYN194CMAN  06194 IOSN3 46/// /2504 10040 21001 40089 56029 91900 333 91205 555 11003 22004 31801 418019 61859 254004 245006 242006 220009 201820 41305 61849 131041 131039 121041 126037 117035 098033;
0225994270999992012010620004+42967-070617FM-12+0019IOSN3V0202201N001519999999N9999999N1+00491+00031100851ADDMD1610121+9999OA139900211REMSYN188CMAN  06204 IOSN3 46/// /2203 10049 20003 40085 56012 92000 333 91204 555 11003 22003 31902 426007 61959 218003 210003 226001 279002 240908 61949 081062 082061 077063 081064 082064 076061;
0017994270999992012010621004+42967-070617FM-12+0019IOSN3V0200101N002619999999N9999999N1+00451+00121100791ADDMD1810121+9999
0017994270999992012010622004+42967-070617FM-12+0019IOSN3V0203601N004619999999N9999999N1+00321+00171100831ADDMD1510061+9999
0177994270999992012010623004+42967-070617FM-12+0019IOSN3V0203401N005719999999N9999999N1+00131-00101100821ADDMD1610031+9999OA139900621REMSYN140CMAN  06234 IOSN3 46/// /3411 10013 21010 40082 56003 92300 333 91212 555 11011 22011 32256 434013 62259 339011 335011 336009 347009 008018;
0177994270999992012010700004+42967-070617FM-12+0019IOSN3V0203601N004119999999N9999999N1+00161-00031100841ADDMD1110051+9999OA139900511REMSYN140CMAN  07004 IOSN3 46/// /3608 10016 21003 40084 51005 90000 333 91210 555 11008 22008 32301 434013 62359 358008 000008 000009 347010 341005;
0178994270999992012010701004+42967-070617FM-12+0019IOSN3V0200201N004619999999N9999999N1+00101-00081100861ADDMD1210031+9999OA139900511REMSYN141CMAN  07014 IOSN3 46/// /0209 10010 21008 40086 52003 90100 333 91210 555 11009 22009 30029 401011 60059 019010 012010 011010 011010 01/////;
0231994270999992012010702004+42967-070617FM-12+0019IOSN3V0200101N002119999999N9999999N1+00091-00101100841ADDMD1410001+9999OA139900261REMSYN194CMAN  07024 IOSN3 46/// /0104 10009 21010 40084 54000 90200 333 91205 555 11004 22004 30100 401011 60159 005004 000005 006005 012008 010125 41606 60149 158043 153042 165043 151040 159039 155042;
0177994270999992012010703004+42967-070617FM-12+0019IOSN3V0203201N001519999999N9999999N1+00111-00111100861ADDMD1410001+9999OA139900211REMSYN140CMAN  07034 IOSN3 46/// /3203 10011 21011 40086 54000 90300 333 91204 555 11003 22003 30224 401007 60259 008003 024004 013005 005005 002009;
0177994270999992012010704004+42967-070617FM-12+0019IOSN3V0202901N001519999999N9999999N1+00081-00121100861ADDMD1410001+9999OA139900211REMSYN140CMAN  07044 IOSN3 46/// /2903 10008 21012 40086 54000 90400 333 91204 555 11003 22003 30332 429005 60359 284002 288002 305003 303003 297008;
0177994270999992012010705004+42967-070617FM-12+0019IOSN3V0209999C000019999999N9999999N1+00091-00111100811ADDMD1810031+9999OA139900101REMSYN140CMAN  07054 IOSN3 46/// /0000 10009 21011 40081 58003 90500 333 91202 555 11001 22001 30446 434004 60459 341002 334002 333002 317001 285021;
0177994270999992012010706004+42967-070617FM-12+0019IOSN3V0200101N001019999999N9999999N1+00141-00051100771ADDMD1810091+9999OA139900151REMSYN140CMAN  07064 IOSN3 46/// /0102 10014 21005 40077 58009 90600 333 91203 555 11002 22002 30546 402004 60559 006002 007002 000001 353001 340005;
0177994270999992012010707004+42967-070617FM-12+0019IOSN3V0209999C000019999999N9999999N1+00171-00031100821ADDMD1510041+9999OA139900101REMSYN140CMAN  07074 IOSN3 46/// /0000 10017 21003 40082 55004 90700 333 91202 555 11001 22001 30626 402005 60659 032001 034001 014003 018004 014030;
0177994270999992012010708004+42967-070617FM-12+0019IOSN3V0203501N003119999999N9999999N1+00211+00051100801ADDMD1510001+9999OA139900361REMSYN140CMAN  07084 IOSN3 46/// /3506 10021 20005 40080 55000 90800 333 91207 555 11006 22006 30748 436008 60759 000006 006006 012003 004003 014029;
0177994270999992012010709004+42967-070617FM-12+0019IOSN3V0200201N002619999999N9999999N1+00201+00071100771ADDMD1010001+9999OA139900361REMSYN140CMAN  07094 IOSN3 46/// /0205 10020 20007 40077 50000 90900 333 91207 555 11005 22005 30800 436007 60859 016005 014006 015006 017005 013034;
0017994270999992012010710004+42967-070617FM-12+0019IOSN3V0200301N003119999999N9999999N1+00231+00081100761ADDMD1710061+9999
0177994270999992012010711004+42967-070617FM-12+0019IOSN3V0200601N002619999999N9999999N1+00251+00111100801ADDMD1510001+9999OA139900261REMSYN140CMAN  07114 IOSN3 46/// /0605 10025 20011 40080 55000 91100 333 91205 555 11004 22005 31016 407008 61059 044005 031005 022006 052005 061038;
0177994270999992012010712004+42967-070617FM-12+0019IOSN3V0200901N002119999999N9999999N1+00331+00201100791ADDMD1410001+9999OA139900261REMSYN140CMAN  07124 IOSN3 46/// /0904 10033 20020 40079 54000 91200 333 91205 555 11004 22004 31130 410008 61159 079004 084005 091006 098006 094039;
0177994270999992012010713004+42967-070617FM-12+0019IOSN3V0200201N002119999999N9999999N1+00371+00211100851ADDMD1310091+9999OA139900211REMSYN140CMAN  07134 IOSN3 46/// /0204 10037 20021 40085 53009 91300 333 91204 555 11004 22004 31227 404005 61259 025004 028003 036004 030004 043039;
0231994270999992012010714004+42967-070617FM-12+0019IOSN3V0200301N003119999999N9999999N1+00301+00231100811ADDMD1010001+9999OA139900311REMSYN194CMAN  07144 IOSN3 46/// /0306 10030 20023 40081 50000 91400 333 91206 555 11005 22006 31312 402010 61359 031006 039006 030007 017007 011314 41604 61349 193021 182024 169018 163018 174022 174017;
0177994270999992012010715004+42967-070617FM-12+0019IOSN3V0200101N004119999999N9999999N1+00331+00261100811ADDMD1010001+9999OA139900461REMSYN140CMAN  07154 IOSN3 46/// /0108 10033 20026 40081 50000 91500 333 91209 555 11007 22008 31447 401009 61459 006008 006008 000008 000007 014034;
0177994270999992012010716004+42967-070617FM-12+0019IOSN3V0200401N003119999999N9999999N1+00351+00271100671ADDMD1810181+9999OA139900361REMSYN140CMAN  07164 IOSN3 46/// /0406 10035 20027 40067 58018 91600 333 91207 555 11006 22006 31517 401009 61559 036007 035007 029007 021007 002030;
0177994270999992012010717004+42967-070617FM-12+0019IOSN3V0200501N002619999999N9999999N1+00411+00341100551ADDMD1810261+9999OA139900311REMSYN140CMAN  07174 IOSN3 46/// /0505 10041 20034 40055 58026 91700 333 91206 555 11005 22005 31627 402007 61659 048005 053005 040006 022006 026034;
0177994270999992012010718004+42967-070617FM-12+0019IOSN3V0200601N002619999999N9999999N1+00451+00341100501ADDMD1610311+9999OA139900311REMSYN140CMAN  07184 IOSN3 46/// /0605 10045 20034 40050 56031 91800 333 91206 555 11005 22005 31747 404008 61759 048005 029007 028006 035006 033032;
0225994270999992012010719004+42967-070617FM-12+0019IOSN3V0200601N002619999999N9999999N1+00471+00361100501ADDMD1610171+9999OA139900311REMSYN188CMAN  07194 IOSN3 46/// /0605 10047 20036 40050 56017 91900 333 91206 555 11005 22005 31854 406006 61859 056005 043005 030005 020005 021903 61849 206019 191016 194016 228015 222015 206010;
0176994270999992012010720004+42967-070617FM-12+0019IOSN3V0200401N002619999999N9999999N1+00501+00401100531ADDMD1510001+9999OA139900311REMSYN139CMAN  07204 IOSN3 46/// /0405 10050 20040 40053 55000 92000 333 91206 555 11005 22005 31931 405006 61959 030005 043005 047005 056005 04021;
0177994270999992012010721004+42967-070617FM-12+0019IOSN3V0200201N001519999999N9999999N1+00521+00431100611ADDMD1310111+9999OA139900151REMSYN140CMAN  07214 IOSN3 46/// /0203 10052 20043 40061 53011 92100 333 91203 555 11003 22003 32045 436006 62059 013004 011005 024004 047004 047004;
0017994270999992012010722004+42967-070617FM-12+0019IOSN3V0203301N001019999999N9999999N1+00521+00431100691ADDMD1310191+9999
0177994270999992012010723004+42967-070617FM-12+0019IOSN3V0202701N002119999999N9999999N1+00541+00441100771ADDMD1210241+9999OA139900261REMSYN140CMAN  07234 IOSN3 46/// /2704 10054 20044 40077 52024 92300 333 91205 555 11004 22004 32258 428005 62259 268004 249004 274003 295003 300000;
0225994270999992012010800004+42967-070617FM-12+0019IOSN3V0202501N005119999999N9999999N1+00631+00151100801ADDMD1110191+9999OA139900571REMSYN188CMAN  08004 IOSN3 46/// /2510 10063 20015 40080 51019 90000 333 91211 555 11010 22010 32344 425012 62359 248010 253010 259010 267010 271006 62349 090037 090039 086039 092036 094037 097035;
0017994270999992012010801004+42967-070617FM-12+0019IOSN3V0202701N009319999999N9999999N1+00761+00071100841ADDMD1110151+9999
0177994270999992012010802004+42967-070617FM-12+0019IOSN3V0202701N007719999999N9999999N1+00781+00101100911ADDMD1310141+9999OA139900821REMSYN140CMAN  08024 IOSN3 46/// /2715 10078 20010 40091 53014 90200 333 91216 555 11014 22015 30102 427020 60159 264015 261014 263015 261016 260000;
0017994270999992012010803004+42967-070617FM-12+0019IOSN3V0202701N007719999999N9999999N1+00721+00041101001ADDMD1310201+9999
0231994270999992012010804004+42967-070617FM-12+0019IOSN3V0202501N007719999999N9999999N1+00721+00001101031ADDMD1110191+9999OA139900821REMSYN194CMAN  08044 IOSN3 46/// /2515 10072 20000 40103 51019 90400 333 91216 555 11014 22015 30307 427016 60359 251015 258015 261013 265013 270345 41703 60349 196018 198016 195015 202017 211017 204020;
0177994270999992012010805004+42967-070617FM-12+0019IOSN3V0202501N005719999999N9999999N1+00631+00051101141ADDMD1310231+9999OA139900621REMSYN140CMAN  08054 IOSN3 46/// /2511 10063 20005 40114 53023 90500 333 91212 555 11010 22011 30417 426017 60459 252011 257010 257012 260014 257003;
0176994270999992012010806004+42967-070617FM-12+0019IOSN3V0202401N006219999999N9999999N1+00581+00091101201ADDMD1310201+9999OA139900671REMSYN139CMAN  08064 IOSN3 46/// /2412 10058 20009 40120 53020 90600 333 91213 555 11011 22012 30553 425013 60559 244012 247012 246011 248011 24066;
0177994270999992012010807004+42967-070617FM-12+0019IOSN3V0202601N006219999999N9999999N1+00551-00011101311ADDMD1210281+9999OA139900671REMSYN140CMAN  08074 IOSN3 46/// /2612 10055 21001 40131 52028 90700 333 91213 555 11012 22012 30646 425016 60659 253013 252014 252014 249015 246022;
0177994270999992012010808004+42967-070617FM-12+0019IOSN3V0202601N006719999999N9999999N1+00511+00001101371ADDMD1210231+9999OA139900721REMSYN140CMAN  08084 IOSN3 46/// /2613 10051 20000 40137 52023 90800 333 91214 555 11012 22013 30731 426017 60759 256013 255014 259015 261012 265019;
0225994270999992012010809004+42967-070617FM-12+0019IOSN3V0202601N007219999999N9999999N1+00471-00091101381ADDMD1110181+9999OA139900771REMSYN188CMAN  08094 IOSN3 46/// /2614 10047 21009 40138 51018 90900 333 91215 555 11013 22014 30830 424015 60859 253014 251013 245013 240013 241106 60849 108042 106047 104048 104048 104042 108036;
0225994270999992012010810004+42967-070617FM-12+0019IOSN3V0202601N007719999999N9999999N1+00441-00131101451ADDMD1310141+9999OA139900821REMSYN188CMAN  08104 IOSN3 46/// /2615 10044 21013 40145 53014 91000 333 91216 555 11014 22015 30938 425018 60959 256014 255015 252015 253014 251905 60949 219021 227022 217018 214021 207023 208029;
0177994270999992012010811004+42967-070617FM-12+0019IOSN3V0202701N007219999999N9999999N1+00391-00161101581ADDMD1310211+9999OA139900771REMSYN140CMAN  08114 IOSN3 46/// /2714 10039 21016 40158 53021 91100 333 91215 555 11013 22014 31010 427018 61059 270013 271013 270014 270015 265022;
0177994270999992012010812004+42967-070617FM-12+0019IOSN3V0203101N006719999999N9999999N1+00371-00271101681ADDMD1310301+9999OA139900771REMSYN140CMAN  08124 IOSN3 46/// /3113 10037 21027 40168 53030 91200 333 91215 555 11012 22013 31126 428017 61159 303013 296012 288013 284013 278037;
0177994270999992012010813004+42967-070617FM-12+0019IOSN3V0202901N006219999999N9999999N1+00391-00351101811ADDMD1210361+9999OA139900721REMSYN140CMAN  08134 IOSN3 46/// /2912 10039 21035 40181 52036 91300 333 91214 555 11011 22012 31230 429019 61259 286013 288014 291014 297014 305040;
0017994270999992012010814004+42967-070617FM-12+0019IOSN3V0203001N004619999999N9999999N1+00371-00411101931ADDMD1310351+9999
0017994270999992012010815004+42967-070617FM-12+0019IOSN3V0202901N004619999999N9999999N1+00391-00351101961ADDMD1110281+9999
0017994270999992012010816004+42967-070617FM-12+0019IOSN3V0202901N008719999999N9999999N1+00451-00431101931ADDMD1010121+9999
0177994270999992012010817004+42967-070617FM-12+0019IOSN3V0203001N007219999999N9999999N1+00451-00481101931ADDMD1010001+9999OA139900821REMSYN140CMAN  08174 IOSN3 46/// /3014 10045 21048 40193 50000 91700 333 91216 555 11013 22014 31611 428021 61659 301014 291014 293015 286017 280049;
0017994270999992012010818004+42967-070617FM-12+0019IOSN3V0203001N006219999999N9999999N1+00471-00461101921ADDMD1610041+9999
0188994270999992012010819004+42967-070617FM-12+0019IOSN3V0203301N008719999999N9999999N1+00411-00431101941ADDMD1410001+9999OA139900931REMSYN151CMAN  08194 IOSN3 46/// /3317 10041 21043 40194 54000 91900 333 91218 555 11016 22017 31858 433018 61859 324016 330014 327013 330012 32040 80047 90059;
0178994270999992012010820004+42967-070617FM-12+0019IOSN3V0203101N009319999999N9999999N1+00351-00521102011ADDMD1310081+9999OA139901031REMSYN141CMAN  08204 IOSN3 46/// /3118 10035 21052 40201 53008 92000 333 91220 555 11017 22018 31956 432021 61959 314018 318015 320015 322014 330/0//;
0177994270999992012010821004+42967-070617FM-12+0019IOSN3V0203101N008219999999N9999999N1+00321-00601102101ADDMD1310181+9999OA139901131REMSYN140CMAN  08214 IOSN3 46/// /3116 10032 21060 40210 53018 92100 333 91222 555 11015 22017 32023 431023 62059 314017 315018 311019 308017 313046;
0017994270999992012010822004+42967-070617FM-12+0019IOSN3V0203201N007219999999N9999999N1+00291-00561102191ADDMD1310251+9999
0177994270999992012010823004+42967-070617FM-12+0019IOSN3V0203501N006219999999N9999999N1+00261-00621102271ADDMD1110261+9999OA139900671REMSYN140CMAN  08234 IOSN3 46/// /3512 10026 21062 40227 51026 92300 333 91213 555 11011 22012 32253 435017 62259 346013 336013 318012 318013 318035;
0177994270999992012010900004+42967-070617FM-12+0019IOSN3V0203301N006719999999N9999999N1+00191-00691102361ADDMD1210261+9999OA139900771REMSYN140CMAN  09004 IOSN3 46/// /3313 10019 21069 40236 52026 90000 333 91215 555 11013 22013 32318 434019 62359 333013 343013 343014 342016 346033;
0017994270999992012010901004+42967-070617FM-12+0019IOSN3V0203101N008219999999N9999999N1+00141-00631102411ADDMD1110221+9999
0017994270999992012010902004+42967-070617FM-12+0019IOSN3V0203001N009319999999N9999999N1-00011-00881102431ADDMD1110161+9999
0177994270999992012010903004+42967-070617FM-12+0019IOSN3V0203101N011319999999N9999999N1-00071-00931102441ADDMD1110081+9999OA139901241REMSYN140CMAN  09034 IOSN3 46/// /3122 11007 21093 40244 51008 90300 333 91224 555 11021 22022 30249 430025 60259 307020 299018 301018 300018 292018;
0017994270999992012010904004+42967-070617FM-12+0019IOSN3V0203101N010319999999N9999999N1-00161-00991102471ADDMD1310061+9999
0017994270999992012010905004+42967-070617FM-12+0019IOSN3V0203101N008219999999N9999999N1-00211-00901102501ADDMD1310071+9999
0177994270999992012010906004+42967-070617FM-12+0019IOSN3V0203001N008219999999N9999999N1-00271-00971102511ADDMD1110071+9999OA139900931REMSYN140CMAN  09064 IOSN3 46/// /3016 11027 21097 40251 51007 90600 333 91218 555 11015 22016 30515 431020 60559 307016 313015 317015 312015 302022;
0177994270999992012010907004+42967-070617FM-12+0019IOSN3V0203101N008219999999N9999999N1-00311-01081102561ADDMD1310091+9999OA139900981REMSYN140CMAN  09074 IOSN3 46/// /3116 11031 21108 40256 53009 90700 333 91219 555 11015 22016 30650 431020 60659 306017 305016 305015 307015 300025;
0177994270999992012010908004+42967-070617FM-12+0019IOSN3V0203201N006719999999N9999999N1-00341-01011102571ADDMD1210071+9999OA139900721REMSYN140CMAN  09084 IOSN3 46/// /3213 11034 21101 40257 52007 90800 333 91214 555 11013 22013 30732 430018 60759 315014 312014 312013 306013 306023;
0177994270999992012010909004+42967-070617FM-12+0019IOSN3V0203101N005719999999N9999999N1-00351-01021102581ADDMD1110071+9999OA139900721REMSYN140CMAN  09094 IOSN3 46/// /3111 11035 21102 40258 51007 90900 333 91214 555 11011 22011 30813 431016 60859 306011 312011 315011 311013 310022;
0017994270999992012010910004+42967-070617FM-12+0019IOSN3V0203101N005719999999N9999999N1-00381-01121102611ADDMD1310051+9999
0017994270999992012010911004+42967-070617FM-12+0019IOSN3V0203101N005119999999N9999999N1-00391-01171102611ADDMD1210041+9999
0231994270999992012010912004+42967-070617FM-12+0019IOSN3V0203001N004119999999N9999999N1-00391-01071102611ADDMD1110031+9999OA139900511REMSYN194CMAN  09124 IOSN3 46/// /3008 11039 21107 40261 51003 91200 333 91210 555 11008 22008 31108 431014 61159 298009 307010 305010 310011 311146 41305 61149 142034 140031 143030 150029 149027 141026;
0177994270999992012010913004+42967-070617FM-12+0019IOSN3V0203101N003619999999N9999999N1-00371-01101102621ADDMD1410001+9999OA139900461REMSYN140CMAN  09134 IOSN3 46/// /3107 11037 21110 40262 54000 91300 333 91209 555 11007 22007 31237 429013 61259 300008 289010 291010 286008 297021;
0225994270999992012010914004+42967-070617FM-12+0019IOSN3V0203001N003619999999N9999999N1-00331-01061102641ADDMD1210031+9999OA139900461REMSYN188CMAN  09144 IOSN3 46/// /3007 11033 21106 40264 52003 91400 333 91209 555 11007 22007 31308 428012 61359 301007 295009 298008 297009 300807 61349 080061 079058 078057 080056 083056 082053;
0177994270999992012010915004+42967-070617FM-12+0019IOSN3V0202801N004619999999N9999999N1-00261-01021102601ADDMD1010001+9999OA139900511REMSYN140CMAN  09154 IOSN3 46/// /2809 11026 21102 40260 50000 91500 333 91210 555 11009 22009 31458 428010 61459 283008 284006 284007 292007 297023;
0183994270999992012010916004+42967-070617FM-12+0019IOSN3V0202601N002619999999N9999999N1-00171-00981102511ADDMD1810111+9999OA139900411REMSYN146CMAN  09164 IOSN3 46/// /2605 11017 21098 40251 58011 91600 333 91208 555 11005 22005 31500 428011 61559 262006 274007 275007 275008 27014 102016;
0177994270999992012010917004+42967-070617FM-12+0019IOSN3V0202401N004119999999N9999999N1-00131-01051102371ADDMD1810271+9999OA139900511REMSYN140CMAN  09174 IOSN3 46/// /2408 11013 21105 40237 58027 91700 333 91210 555 11008 22008 31651 424011 61659 243009 250008 256007 260008 261012;
0017994270999992012010918004+42967-070617FM-12+0019IOSN3V0202101N004619999999N9999999N1-00061-00931102261ADDMD1810341+9999
0225994270999992012010919004+42967-070617FM-12+0019IOSN3V0202101N005119999999N9999999N1+00031-01001102171ADDMD1610341+9999OA139900571REMSYN188CMAN  09194 IOSN3 46/// /2110 10003 21100 40217 56034 91900 333 91211 555 11009 22010 31854 421013 61859 205011 206010 212010 211009 200808 61849 072057 076060 073060 079058 077057 082060;
0017994270999992012010920004+42967-070617FM-12+0019IOSN3V0201901N006719999999N9999999N1+00141-00981102101ADDMD1610271+9999
0177994270999992012010921004+42967-070617FM-12+0019IOSN3V0202201N006219999999N9999999N1+00191-00931102081ADDMD1610181+9999OA139900671REMSYN140CMAN  09214 IOSN3 46/// /2212 10019 21093 40208 56018 92100 333 91213 555 11011 22012 32000 419016 62059 200011 195011 191011 196013 190000;
0017994270999992012010922004+42967-070617FM-12+0019IOSN3V0202101N007219999999N9999999N1+00241-00881102051ADDMD1610121+9999
0017994270999992012010923004+42967-070617FM-12+0019IOSN3V0202001N007219999999N9999999N1+00271-00801102021ADDMD1810081+9999
0017994270999992012011000004+42967-070617FM-12+0019IOSN3V0202101N009319999999N9999999N1+00341-00651101931ADDMD1810151+9999
0017994270999992012011001004+42967-070617FM-12+0019IOSN3V0202101N011319999999N9999999N1+00301-00811101861ADDMD1810191+9999
0177994270999992012011002004+42967-070617FM-12+0019IOSN3V0202201N010819999999N9999999N1+00251-00831101811ADDMD1610211+9999OA139901181REMSYN140CMAN  10024 IOSN3 46/// /2221 10025 21083 40181 56021 90200 333 91223 555 11020 22021 30102 421026 60159 218021 218020 217020 218021 217027;
0225994270999992012011003004+42967-070617FM-12+0019IOSN3V0202301N010819999999N9999999N1+00221-00711101711ADDMD1810221+9999OA139901241REMSYN188CMAN  10034 IOSN3 46/// /2321 10022 21071 40171 58022 90300 333 91224 555 11020 22021 30255 422025 60259 229020 224020 225019 220020 221504 60249 128017 130017 128020 151020 140023 151023;
0177994270999992012011004004+42967-070617FM-12+0019IOSN3V0202201N011319999999N9999999N1+00181-00831101611ADDMD1810251+9999OA139901241REMSYN140CMAN  10044 IOSN3 46/// /2222 10018 21083 40161 58025 90400 333 91224 555 11021 22022 30323 422025 60359 224021 220020 227020 227021 222037;
0177994270999992012011005004+42967-070617FM-12+0019IOSN3V0202201N010319999999N9999999N1+00221-00771101501ADDMD1810311+9999OA139901081REMSYN140CMAN  10054 IOSN3 46/// /2220 10022 21077 40150 58031 90500 333 91221 555 11018 22020 30414 423024 60459 223021 222021 221021 222020 225038;
0177994270999992012011006004+42967-070617FM-12+0019IOSN3V0202201N008719999999N9999999N1+00221-00591101431ADDMD1610281+9999OA139900981REMSYN140CMAN  10064 IOSN3 46/// /2217 10022 21059 40143 56028 90600 333 91219 555 11016 22018 30507 422024 60559 220017 218019 216020 218020 224038;
0017994270999992012011007004+42967-070617FM-12+0019IOSN3V0202201N009319999999N9999999N1+00231-00501101381ADDMD1610231+9999
0017994270999992012011008004+42967-070617FM-12+0019IOSN3V0202301N008719999999N9999999N1+00231-00421101311ADDMD1710191+9999
0225994270999992012011009004+42967-070617FM-12+0019IOSN3V0202301N008219999999N9999999N1+00241-00361101241ADDMD1810191+9999OA139901031REMSYN188CMAN  10094 IOSN3 46/// /2316 10024 21036 40124 58019 90900 333 91220 555 11015 22017 30857 423020 60859 227016 226016 224016 222016 220508 60849 046062 050059 053062 054063 047063 051064;
0177994270999992012011010004+42967-070617FM-12+0019IOSN3V0202101N008719999999N9999999N1+00121+00011101171ADDMD1710211+9999OA139900981REMSYN140CMAN  10104 IOSN3 46/// /2117 10012 20001 40117 57021 91000 333 91219 555 11016 22017 30901 423023 60959 211017 211017 218017 227018 239042;
0177994270999992012011011004+42967-070617FM-12+0019IOSN3V0202101N008719999999N9999999N1+00131-00071101051ADDMD1810261+9999OA139900981REMSYN140CMAN  10114 IOSN3 46/// /2117 10013 21007 40105 58026 91100 333 91219 555 11016 22017 31010 421021 61059 206017 204017 203017 203017 205039;
0177994270999992012011012004+42967-070617FM-12+0019IOSN3V0202201N007719999999N9999999N1+00191-00141100981ADDMD1710261+9999OA139900821REMSYN140CMAN  10124 IOSN3 46/// /2215 10019 21014 40098 57026 91200 333 91216 555 11014 22015 31119 421020 61159 216016 204017 207018 209017 203018;
0177994270999992012011013004+42967-070617FM-12+0019IOSN3V0202201N008219999999N9999999N1+00171-00131101011ADDMD1510161+9999OA139900881REMSYN140CMAN  10134 IOSN3 46/// /2216 10017 21013 40101 55016 91300 333 91217 555 11015 22016 31214 422018 61259 227015 221015 223014 220014 221047;
0177994270999992012011014004+42967-070617FM-12+0019IOSN3V0202301N007219999999N9999999N1+00111-00131101081ADDMD1310031+9999OA139900821REMSYN140CMAN  10144 IOSN3 46/// /2314 10011 21013 40108 53003 91400 333 91216 555 11013 22014 31327 423018 61359 229014 228016 225015 225016 224047;
0177994270999992012011015004+42967-070617FM-12+0019IOSN3V0202401N006219999999N9999999N1+00211-00201101011ADDMD1010031+9999OA139900721REMSYN140CMAN  10154 IOSN3 46/// /2412 10021 21020 40101 50003 91500 333 91214 555 11012 22012 31401 423016 61459 240013 240011 236012 235012 229047;
0177994270999992012011016004+42967-070617FM-12+0019IOSN3V0202401N007719999999N9999999N1+00231-00251100901ADDMD1810111+9999OA139900881REMSYN140CMAN  10164 IOSN3 46/// /2415 10023 21025 40090 58011 91600 333 91217 555 11014 22015 31543 423019 61559 239016 241016 242014 239015 231051;
0017994270999992012011017004+42967-070617FM-12+0019IOSN3V0202501N008719999999N9999999N1+00321-00261100781ADDMD1810301+9999
0177994270999992012011018004+42967-070617FM-12+0019IOSN3V0202601N008219999999N9999999N1+00461-00381100731ADDMD1610281+9999OA139900931REMSYN140CMAN  10184 IOSN3 46/// /2616 10046 21038 40073 56028 91800 333 91218 555 11015 22016 31726 425021 61759 259016 253016 258017 254018 255045;
0017994270999992012011019004+42967-070617FM-12+0019IOSN3V0202901N005719999999N9999999N1+00571-00401100721ADDMD1610181+9999
0177994270999992012011020004+42967-070617FM-12+0019IOSN3V0202801N009319999999N9999999N1+00641-00391100711ADDMD1610071+9999OA139900981REMSYN140CMAN  10204 IOSN3 46/// /2818 10064 21039 40071 56007 92000 333 91219 555 11017 22018 31955 427022 61959 275018 277015 271011 282012 286044;
0017994270999992012011021004+42967-070617FM-12+0019IOSN3V0203101N009319999999N9999999N1+00591-00221100801ADDMD1310071+9999
0017994270999992012011022004+42967-070617FM-12+0019IOSN3V0202901N007719999999N9999999N1+00531-00131100951ADDMD1310231+9999
0177994270999992012011023004+42967-070617FM-12+0019IOSN3V0202901N010319999999N9999999N1+00521-00251101041ADDMD1210331+9999OA139901131REMSYN140CMAN  10234 IOSN3 46/// /2920 10052 21025 40104 52033 92300 333 91222 555 11019 22020 32256 429023 62259 289019 290016 290015 291014 291040;
0017994270999992012011100004+42967-070617FM-12+0019IOSN3V0202901N006719999999N9999999N1+00511-00291101111ADDMD1110311+9999
0177994270999992012011101004+42967-070617FM-12+0019IOSN3V0202701N007719999999N9999999N1+00481-00191101141ADDMD1110191+9999OA139900821REMSYN140CMAN  11014 IOSN3 46/// /2715 10048 21019 40114 51019 90100 333 91216 555 11014 22015 30034 428019 60059 277015 283016 282016 284016 288029;
0177994270999992012011102004+42967-070617FM-12+0019IOSN3V0202901N009319999999N9999999N1+00421-00391101181ADDMD1110141+9999OA139901031REMSYN140CMAN  11024 IOSN3 46/// /2918 10042 21039 40118 51014 90200 333 91220 555 11017 22018 30157 429021 60159 285016 281015 278014 284016 273034;
0177994270999992012011103004+42967-070617FM-12+0019IOSN3V0203001N007719999999N9999999N1+00351-00381101301ADDMD1310191+9999OA139900931REMSYN140CMAN  11034 IOSN3 46/// /3015 10035 21038 40130 53019 90300 333 91218 555 11015 22016 30225 430020 60259 302014 302015 294016 290017 285038;
0017994270999992012011104004+42967-070617FM-12+0019IOSN3V0202901N008219999999N9999999N1+00291-00481101351ADDMD1310211+9999
0177994270999992012011105004+42967-070617FM-12+0019IOSN3V0203101N006719999999N9999999N1+00231-00601101451ADDMD1110271+9999OA139900771REMSYN140CMAN  11054 IOSN3 46/// /3113 10023 21060 40145 51027 90500 333 91215 555 11013 22013 30400 429018 60459 307012 301011 300012 297012 293027;
0177994270999992012011106004+42967-070617FM-12+0019IOSN3V0203101N006719999999N9999999N1+00171-00661101501ADDMD1210201+9999OA139900771REMSYN140CMAN  11064 IOSN3 46/// /3113 10017 21066 40150 52020 90600 333 91215 555 11012 22013 30538 429019 60559 305014 294016 294016 295015 292006;
0177994270999992012011107004+42967-070617FM-12+0019IOSN3V0203201N006719999999N9999999N1+00131-00701101591ADDMD1110241+9999OA139900771REMSYN140CMAN  11074 IOSN3 46/// /3213 10013 21070 40159 51024 90700 333 91215 555 11012 22013 30617 430016 60659 319012 325011 317010 310012 303006;
0017994270999992012011108004+42967-070617FM-12+0019IOSN3V0203301N007219999999N9999999N1+00101-00591101581ADDMD1110131+9999
0177994270999992012011109004+42967-070617FM-12+0019IOSN3V0203201N009319999999N9999999N1+00061-00671101611ADDMD1110111+9999OA139901081REMSYN140CMAN  11094 IOSN3 46/// /3218 10006 21067 40161 51011 90900 333 91221 555 11017 22018 30855 431023 60859 319019 325019 327019 326017 320020;
0017994270999992012011110004+42967-070617FM-12+0019IOSN3V0203301N007219999999N9999999N1+00021-00641101741ADDMD1310151+9999
0017994270999992012011111004+42967-070617FM-12+0019IOSN3V0203301N006719999999N9999999N1-00061-00801101801ADDMD1310221+9999
0177994270999992012011112004+42967-070617FM-12+0019IOSN3V0203601N004119999999N9999999N1-00111-00971101901ADDMD1110291+9999OA139900511REMSYN140CMAN  11124 IOSN3 46/// /3608 11011 21097 40190 51029 91200 333 91210 555 11008 22008 31101 433016 61159 002008 002007 348007 357010 356005;
0177994270999992012011113004+42967-070617FM-12+0019IOSN3V0200301N003119999999N9999999N1-00101-00901102021ADDMD1310281+9999OA139900411REMSYN140CMAN  11134 IOSN3 46/// /0306 11010 21090 40202 53028 91300 333 91208 555 11006 22006 31231 401011 61259 038007 029008 008007 018006 013013;
0177994270999992012011114004+42967-070617FM-12+0019IOSN3V0200401N003119999999N9999999N1-00101-00981102101ADDMD1110301+9999OA139900511REMSYN140CMAN  11144 IOSN3 46/// /0406 11010 21098 40210 51030 91400 333 91210 555 11006 22006 31354 404012 61359 043007 040007 035008 036006 032014;
0177994270999992012011115004+42967-070617FM-12+0019IOSN3V0200201N003619999999N9999999N1-00121-00871102161ADDMD1110261+9999OA139900411REMSYN140CMAN  11154 IOSN3 46/// /0207 11012 21087 40216 51026 91500 333 91208 555 11007 22007 31407 404011 61459 027007 024007 028007 025007 022011;
0017994270999992012011116004+42967-070617FM-12+0019IOSN3V0200301N004619999999N9999999N1-00111-00861102131ADDMD1010111+9999
0177994270999992012011117004+42967-070617FM-12+0019IOSN3V0200601N003619999999N9999999N1-00071-00871102071ADDMD1810031+9999OA139900411REMSYN140CMAN  11174 IOSN3 46/// /0607 11007 21087 40207 58003 91700 333 91208 555 11007 22007 31619 404013 61659 059009 056009 042009 030009 029006;
0177994270999992012011118004+42967-070617FM-12+0019IOSN3V0200701N003619999999N9999999N1-00041-00881102051ADDMD1610111+9999OA139900511REMSYN140CMAN  11184 IOSN3 46/// /0707 11004 21088 40205 56011 91800 333 91210 555 11007 22007 31721 406012 61759 069008 064008 062008 059009 058017;
0177994270999992012011119004+42967-070617FM-12+0019IOSN3V0201001N003619999999N9999999N1+00001-00801102071ADDMD1610061+9999OA139900461REMSYN140CMAN  11194 IOSN3 46/// /1007 10000 21080 40207 56006 91900 333 91209 555 11007 22007 31836 408012 61859 089007 083007 083008 069007 075018;
0017994270999992012011120004+42967-070617FM-12+0019IOSN3V0201001N004619999999N9999999N1+00001-00671102111ADDMD1310041+9999
0236994270999992012011121004+42967-070617FM-12+0019IOSN3V0201001N005719999999N9999999N1+00031-00541102141ADDMD1310091+9999OA139900671REMSYN199CMAN  11214 IOSN3 46/// /1011 10003 21054 40214 53009 92100 333 91213 555 11011 22011 32059 410013 62059 099010 101009 093010 095009 09036 32030 40605 62049 079034 071036 068034 077032 083033 078038;
0017994270999992012011122004+42967-070617FM-12+0019IOSN3V0201201N006219999999N9999999N1+00071-00481102131ADDMD1110061+9999
0017994270999992012011123004+42967-070617FM-12+0019IOSN3V0201001N006719999999N9999999N1+00091-00421102111ADDMD1010001+9999
0177994270999992012011200004+42967-070617FM-12+0019IOSN3V0201001N008219999999N9999999N1+00101-00361102101ADDMD1710041+9999OA139900931REMSYN140CMAN  12004 IOSN3 46/// /1016 10010 21036 40210 57004 90000 333 91218 555 11015 22016 32343 410021 62359 102016 097016 102016 098016 103012;
0177994270999992012011201004+42967-070617FM-12+0019IOSN3V0201001N007719999999N9999999N1+00121-00331102111ADDMD1410001+9999OA139900881REMSYN140CMAN  12014 IOSN3 46/// /1015 10012 21033 40211 54000 90100 333 91217 555 11015 22016 30007 411020 60059 100016 099016 101017 098017 091028;
0017994270999992012011202004+42967-070617FM-12+0019IOSN3V0201101N009319999999N9999999N1+00151-00271102091ADDMD1410001+9999
0177994270999992012011203004+42967-070617FM-12+0019IOSN3V0201101N008719999999N9999999N1+00191-00251102091ADDMD1410001+9999OA139900981REMSYN140CMAN  12034 IOSN3 46/// /1117 10019 21025 40209 54000 90300 333 91219 555 11016 22017 30242 411023 60259 109018 108018 110017 106018 112033;
0177994270999992012011204004+42967-070617FM-12+0019IOSN3V0201101N010319999999N9999999N1+00231-00211102001ADDMD1810111+9999OA139901081REMSYN140CMAN  12044 IOSN3 46/// /1120 10023 21021 40200 58011 90400 333 91221 555 11018 22020 30357 411022 60359 108019 110018 108019 111019 100037;
0177994270999992012011205004+42967-070617FM-12+0019IOSN3V0201101N009319999999N9999999N1+00261-00181101991ADDMD1710101+9999OA139900981REMSYN140CMAN  12054 IOSN3 46/// /1118 10026 21018 40199 57010 90500 333 91219 555 11017 22018 30424 410023 60459 114018 112018 114018 108020 108041;
0017994270999992012011206004+42967-070617FM-12+0019IOSN3V0201101N010319999999N9999999N1+00271-00211101891ADDMD1810201+9999
0177994270999992012011207004+42967-070617FM-12+0019IOSN3V0201001N011319999999N9999999N1+00291-00211101841ADDMD1810161+9999OA139901241REMSYN140CMAN  12074 IOSN3 46/// /1022 10029 21021 40184 58016 90700 333 91224 555 11021 22022 30638 410025 60659 103021 100021 103020 106020 100040;
0177994270999992012011208004+42967-070617FM-12+0019IOSN3V0200901N012319999999N9999999N1+00291-00201101751ADDMD1610241+9999OA139901291REMSYN140CMAN  12084 IOSN3 46/// /0924 10029 21020 40175 56024 90800 333 91225 555 11022 22024 30735 410027 60759 090022 091022 094022 093022 094037;
0177994270999992012011209004+42967-070617FM-12+0019IOSN3V0200801N011819999999N9999999N1+00291-00201101701ADDMD1710191+9999OA139901291REMSYN140CMAN  12094 IOSN3 46/// /0823 10029 21020 40170 57019 90900 333 91225 555 11022 22023 30823 409027 60859 087023 087023 086023 088023 098040;
0177994270999992012011210004+42967-070617FM-12+0019IOSN3V0200901N012919999999N9999999N1+00311-00161101631ADDMD1610211+9999OA139901441REMSYN140CMAN  12104 IOSN3 46/// /0925 10031 21016 40163 56021 91000 333 91228 555 11023 22025 30945 409029 60959 090024 088024 090023 090024 082050;
0177994270999992012011211004+42967-070617FM-12+0019IOSN3V0200901N014419999999N9999999N1+00201+00161101491ADDMD1810261+9999OA139901651REMSYN140CMAN  12114 IOSN3 46/// /0928 10020 20016 40149 58026 91100 333 91232 555 11027 22028 31039 409035 61059 085029 087028 088028 090027 084047;
0177994270999992012011212004+42967-070617FM-12+0019IOSN3V0200801N015419999999N9999999N1+00191+00171101371ADDMD1810331+9999OA139901701REMSYN140CMAN  12124 IOSN3 46/// /0830 10019 20017 40137 58033 91200 333 91233 555 11028 22030 31109 409036 61159 082030 083030 085031 085029 086050;
0017994270999992012011213004+42967-070617FM-12+0019IOSN3V0200801N016419999999N9999999N1+00221+00201101201ADDMD1810431+9999
0177994270999992012011214004+42967-070617FM-12+0019IOSN3V0200801N018019999999N9999999N1+00241+00221101101ADDMD1610391+9999OA139901901REMSYN140CMAN  12144 IOSN3 46/// /0835 10024 20022 40110 56039 91400 333 91237 555 11033 22035 31348 408040 61359 080035 080034 079034 080034 085052;
0177994270999992012011215004+42967-070617FM-12+0019IOSN3V0200801N018019999999N9999999N1+00241+00231100921ADDMD1810451+9999OA139901961REMSYN140CMAN  12154 IOSN3 46/// /0835 10024 20023 40092 58045 91500 333 91238 555 11033 22035 31430 408039 61459 076034 076034 079034 079033 078050;
0017994270999992012011216004+42967-070617FM-12+0019IOSN3V0200701N017519999999N9999999N1+00261+00241100721ADDMD1810481+9999
0017994270999992012011217004+42967-070617FM-12+0019IOSN3V0200501N018019999999N9999999N1+00291+00271100451ADDMD1810651+9999
0177994270999992012011218004+42967-070617FM-12+0019IOSN3V0200501N018519999999N9999999N1+00371+00361100241ADDMD1810681+9999OA139902111REMSYN140CMAN  12184 IOSN3 46/// /0536 10037 20036 40024 58068 91800 333 91241 555 11034 22036 31741 405041 61759 052035 051035 051033 054033 052048;
0177994270999992012011219004+42967-070617FM-12+0019IOSN3V0200501N017519999999N9999999N1+00411+00391100171ADDMD1610551+9999OA139902061REMSYN140CMAN  12194 IOSN3 46/// /0534 10041 20039 40017 56055 91900 333 91240 555 11031 22034 31815 406042 61859 051034 052034 052036 053036 054042;
0017994270999992012011220004+42967-070617FM-12+0019IOSN3V0200501N018519999999N9999999N1+00431+00421099991ADDMD1610461+9999
0177994270999992012011221004+42967-070617FM-12+0019IOSN3V0200501N021619999999N9999999N1+00461+00391099811ADDMD1810431+9999OA139902371REMSYN140CMAN  12214 IOSN3 46/// /0542 10046 20039 49981 58043 92100 333 91246 555 11039 22042 32048 405051 62059 047042 047041 048041 045038 041034;
0017994270999992012011222004+42967-070617FM-12+0019IOSN3V0200401N017519999999N9999999N1+00491+00471099801ADDMD1610371+9999
0177994270999992012011223004+42967-070617FM-12+0019IOSN3V0200301N018519999999N9999999N1+00461+00441099801ADDMD1610191+9999OA139902261REMSYN140CMAN  12234 IOSN3 46/// /0336 10046 20044 49980 56019 92300 333 91244 555 11034 22036 32239 404049 62259 031038 031038 032038 032039 039042;
0173994270999992012011300004+42967-070617FM-12+0019IOSN3V0203601N017019999999N9999999N1+00071+99999099911ADDMD1310101+9999OA139901851REMSYN136CMAN  13004 IOSN3 46/// /3633 10007 49991 53010 90000 333 91236 555 11031 22033 32302 403047 62359 003033 006032 006033 010033 01 92600;
0177994270999992012011301004+42967-070617FM-12+0019IOSN3V0203601N012919999999N9999999N1+00001-00021100061ADDMD1310261+9999OA139901441REMSYN140CMAN  13014 IOSN3 46/// /3625 10000 21002 40006 53026 90100 333 91228 555 11023 22025 30012 435036 60059 000025 000026 356026 354026 352043;
0017994270999992012011302004+42967-070617FM-12+0019IOSN3V0203501N010319999999N9999999N1-00031-00091100161ADDMD1110361+9999
0177994270999992012011303004+42967-070617FM-12+0019IOSN3V0203601N009819999999N9999999N1-00061-00151100191ADDMD1110281+9999OA139901031REMSYN140CMAN  13034 IOSN3 46/// /3619 11006 21015 40019 51028 90300 333 91220 555 11018 22019 30202 436026 60259 002018 356018 358019 355019 355039;
0177994270999992012011304004+42967-070617FM-12+0019IOSN3V0203501N007719999999N9999999N1-00071-00151100191ADDMD1110131+9999OA139900881REMSYN140CMAN  13044 IOSN3 46/// /3515 11007 21015 40019 51013 90400 333 91217 555 11014 22015 30307 436022 60359 355015 353014 000016 008018 008037;
0177994270999992012011305004+42967-070617FM-12+0019IOSN3V0203601N005119999999N9999999N1-00091-00201100221ADDMD1210061+9999OA139900571REMSYN140CMAN  13054 IOSN3 46/// /3610 11009 21020 40022 52006 90500 333 91211 555 11009 22010 30402 435016 60459 000009 347010 355009 353011 350039;
0225994270999992012011306004+42967-070617FM-12+0019IOSN3V0203501N002619999999N9999999N1-00081-00201100221ADDMD1210031+9999OA139900311REMSYN188CMAN  13064 IOSN3 46/// /3505 11008 21020 40022 52003 90600 333 91206 555 11005 22005 30504 436012 60559 356005 352007 345006 353007 352010 60549 203077 219078 213079 208078 214076 210072;
0177994270999992012011307004+42967-070617FM-12+0019IOSN3V0200301N002119999999N9999999N1-00041-00131100211ADDMD1010001+9999OA139900311REMSYN140CMAN  13074 IOSN3 46/// /0304 11004 21013 40021 50000 90700 333 91206 555 11004 22004 30620 401008 60659 024004 017004 013005 003005 353045;
0177994270999992012011308004+42967-070617FM-12+0019IOSN3V0200101N003619999999N9999999N1-00021-00091100201ADDMD1410001+9999OA139900411REMSYN140CMAN  13084 IOSN3 46/// /0107 11002 21009 40020 54000 90800 333 91208 555 11007 22007 30729 405009 60759 010007 005007 019006 031006 053036;
0017994270999992012011309004+42967-070617FM-12+0019IOSN3V0203501N003119999999N9999999N1-00021-00101100181ADDMD1710041+9999
0017994270999992012011310004+42967-070617FM-12+0019IOSN3V0200201N005119999999N9999999N1-00041-00081100081ADDMD1810131+9999
0177994270999992012011311004+42967-070617FM-12+0019IOSN3V0200501N006219999999N9999999N1+00041+00021099991ADDMD1810211+9999OA139900721REMSYN140CMAN  13114 IOSN3 46/// /0512 10004 20002 49999 58021 91100 333 91214 555 11011 22012 31059 405014 61059 056010 052009 057007 015008 012038;
0197994270999992012011312004+42967-070617FM-12+0019IOSN3V0200701N008219999999N9999999N1+00121+00101099821ADDMD1810361+9999OA139900931REMSYN160CMAN  13124 IOSN3 46/// /0716 10012 20010 49982 58036 91200 333 91218 555 11015 22016 31158 407018 61159 068015 065014 061014 061011 06 96441 98182 98782 98882;
0177994270999992012011313004+42967-070617FM-12+0019IOSN3V0200701N008219999999N9999999N1+00271+00251099731ADDMD1710351+9999OA139900981REMSYN140CMAN  13134 IOSN3 46/// /0716 10027 20025 49973 57035 91300 333 91219 555 11015 22016 31246 407020 61259 071016 070017 068017 073017 079036;
0177994270999992012011314004+42967-070617FM-12+0019IOSN3V0200801N009819999999N9999999N1+00471+00461099471ADDMD1810521+9999OA139901081REMSYN140CMAN  13144 IOSN3 46/// /0819 10047 20046 49947 58052 91400 333 91221 555 11018 22019 31328 408021 61359 078019 077019 076019 079018 089028;
0177994270999992012011315004+42967-070617FM-12+0019IOSN3V0201101N011819999999N9999999N1+00691+00671099221ADDMD1810601+9999OA139901291REMSYN140CMAN  13154 IOSN3 46/// /1123 10069 20067 49922 58060 91500 333 91225 555 11022 22023 31459 411025 61459 100020 087018 086019 088020 085018;
0177994270999992012011316004+42967-070617FM-12+0019IOSN3V0201501N013919999999N9999999N1+00851+00831098991ADDMD1610741+9999OA139901541REMSYN140CMAN  13164 IOSN3 46/// /1527 10085 20083 49899 56074 91600 333 91230 555 11025 22027 31529 415038 61559 148026 148025 149029 132024 123035;
0177994270999992012011317004+42967-070617FM-12+0019IOSN3V0201801N010819999999N9999999N1+00851+00831098801ADDMD1610671+9999OA139901181REMSYN140CMAN  13174 IOSN3 46/// /1821 10085 20083 49880 56067 91700 333 91223 555 11020 22021 31640 415032 61659 168023 159026 154025 157025 158034;
0225994270999992012011318004+42967-070617FM-12+0019IOSN3V0202101N015419999999N9999999N1+00951+00291098561ADDMD1810661+9999OA139901701REMSYN188CMAN  13184 IOSN3 46/// /2130 10095 20029 49856 58066 91800 333 91233 555 11028 22030 31752 420035 61759 207029 204024 190021 175019 172613 61749 311093 282094 249100 246099 249100 245101;
0177994270999992012011319004+42967-070617FM-12+0019IOSN3V0202301N016419999999N9999999N1+00711-00041098581ADDMD1610411+9999OA139901901REMSYN140CMAN  13194 IOSN3 46/// /2332 10071 21004 49858 56041 91900 333 91237 555 11030 22033 31842 423044 61859 230034 230036 237035 240036 249038;
0177994270999992012011320004+42967-070617FM-12+0019IOSN3V0202801N013919999999N9999999N1+00591+00181098741ADDMD1510061+9999OA139901601REMSYN140CMAN  13204 IOSN3 46/// /2827 10059 20018 49874 55006 92000 333 91231 555 11025 22027 31910 424048 61959 250030 235034 230035 235036 236034;
0177994270999992012011321004+42967-070617FM-12+0019IOSN3V0202701N016419999999N9999999N1+00331-00041098871ADDMD1310311+9999OA139901751REMSYN140CMAN  13214 IOSN3 46/// /2732 10033 21004 49887 53031 92100 333 91234 555 11030 22032 32058 427034 62059 267029 265028 264027 264026 279035;
0177994270999992012011322004+42967-070617FM-12+0019IOSN3V0202501N017019999999N9999999N1+00211-00241099051ADDMD1310471+9999OA139901851REMSYN140CMAN  13224 IOSN3 46/// /2533 10021 21024 49905 53047 92200 333 91236 555 11031 22033 32150 425042 62159 254034 257033 260034 262030 260000;
0177994270999992012011323004+42967-070617FM-12+0019IOSN3V0202601N016419999999N9999999N1+00141-00301099261ADDMD1310521+9999OA139901851REMSYN140CMAN  13234 IOSN3 46/// /2632 10014 21030 49926 53052 92300 333 91236 555 11030 22032 32221 425045 62259 255034 253034 250031 245034 242034;
0225994270999992012011400004+42967-070617FM-12+0019IOSN3V0202501N017519999999N9999999N1+00051-00651099341ADDMD1110471+9999OA139902061REMSYN188CMAN  14004 IOSN3 46/// /2534 10005 21065 49934 51047 90000 333 91240 555 11032 22034 32335 423049 62359 251037 250039 242041 242040 242605 62349 260038 264026 271029 276026 279032 279034;
0177994270999992012011401004+42967-070617FM-12+0019IOSN3V0202401N019519999999N9999999N1+00031-00581099391ADDMD1110341+9999OA139902371REMSYN140CMAN  14014 IOSN3 46/// /2438 10003 21058 49939 51034 90100 333 91246 555 11035 22038 30002 425047 60059 245036 245033 242036 250034 240026;
0177994270999992012011402004+42967-070617FM-12+0019IOSN3V0202401N020019999999N9999999N1-00061-00581099471ADDMD1210211+9999OA139902261REMSYN140CMAN  14024 IOSN3 46/// /2439 11006 21058 49947 52021 90200 333 91244 555 11036 22039 30129 424048 60159 246037 245038 242038 245034 245026;
0177994270999992012011403004+42967-070617FM-12+0019IOSN3V0202501N018519999999N9999999N1-00051-00651099571ADDMD1310231+9999OA139902161REMSYN140CMAN  14034 IOSN3 46/// /2536 11005 21065 49957 53023 90300 333 91242 555 11034 22036 30211 424045 60259 245036 244033 242033 242035 245024;
0017994270999992012011404004+42967-070617FM-12+0019IOSN3V0202401N018019999999N9999999N1-00021-00541099681ADDMD1310291+9999
0177994270999992012011405004+42967-070617FM-12+0019IOSN3V0202501N014919999999N9999999N1+00011-00571099861ADDMD1310391+9999OA139901651REMSYN140CMAN  14054 IOSN3 46/// /2529 10001 21057 49986 53039 90500 333 91232 555 11027 22029 30414 424040 60459 246029 246029 247030 244030 248023;
0203994270999992012011406004+42967-070617FM-12+0019IOSN3V0202401N015419999999N9999999N1+00081-00501099951ADDMD1110381+9999OA139901651REMSYN166CMAN  14064 IOSN3 46/// /2430 10008 21050 49995 51038 90600 333 91232 555 11028 22030 30536 424037 60559 242029 241030 244030 245030 24 87/49 88/50 90760 91003 91104;
0017994270999992012011407004+42967-070617FM-12+0019IOSN3V0202501N014419999999N9999999N1+00091-00531100051ADDMD1110371+9999
0017994270999992012011408004+42967-070617FM-12+0019IOSN3V0202501N012319999999N9999999N1+00101-00501100211ADDMD1310351+9999
0177994270999992012011409004+42967-070617FM-12+0019IOSN3V0202401N014419999999N9999999N1+00071+99999100251ADDMD1110301+9999OA139901601REMSYN140CMAN  14094 IOSN3 46/// /2428 10007 40025 51030 90900 333 91231 555 11026 22028 30811 423033 60859 243026 244025 243026 242027 24023 221020;
0177994270999992012011410004+42967-070617FM-12+0019IOSN3V0202501N013419999999N9999999N1+00041+99999100311ADDMD1110261+9999OA139901491REMSYN140CMAN  14104 IOSN3 46/// /2526 10004 40031 51026 91000 333 91229 555 11025 22027 30905 424031 60959 244025 248026 248024 248023 24017 217017;
0177994270999992012011411004+42967-070617FM-12+0019IOSN3V0202601N011319999999N9999999N1+00011-00611100421ADDMD1310211+9999OA139901241REMSYN140CMAN  14114 IOSN3 46/// /2622 10001 21061 40042 53021 91100 333 91224 555 11021 22022 31015 425030 61059 255022 255023 255022 251023 257018;
0177994270999992012011412004+42967-070617FM-12+0019IOSN3V0202401N011819999999N9999999N1-00031-00591100491ADDMD1310241+9999OA139901341REMSYN140CMAN  14124 IOSN3 46/// /2423 11003 21059 40049 53024 91200 333 91226 555 11021 22023 31144 426028 61159 248022 251021 251021 249022 252020;
0177994270999992012011413004+42967-070617FM-12+0019IOSN3V0202501N009819999999N9999999N1-00061-00651100611ADDMD1310301+9999OA139901341REMSYN140CMAN  14134 IOSN3 46/// /2519 11006 21065 40061 53030 91300 333 91226 555 11018 22019 31214 425029 61259 248022 245022 246022 244022 241017;
0177994270999992012011414004+42967-070617FM-12+0019IOSN3V0202601N011319999999N9999999N1-00081-00681100661ADDMD1110241+9999OA139901291REMSYN140CMAN  14144 IOSN3 46/// /2622 11008 21068 40066 51024 91400 333 91225 555 11021 22023 31352 426028 61359 258021 255021 252021 251022 259016;
0177994270999992012011415004+42967-070617FM-12+0019IOSN3V0202801N012319999999N9999999N1-00071-00841100721ADDMD1110231+9999OA139901441REMSYN140CMAN  14154 IOSN3 46/// /2824 11007 21084 40072 51023 91500 333 91228 555 11023 22024 31459 428028 61459 287022 285020 276019 267021 266014;
0177994270999992012011416004+42967-070617FM-12+0019IOSN3V0202901N011819999999N9999999N1-00131-01021100751ADDMD1110141+9999OA139901291REMSYN140CMAN  14164 IOSN3 46/// /2923 11013 21102 40075 51014 91600 333 91225 555 11021 22023 31503 429029 61559 282023 273022 277023 285024 282014;
0177994270999992012011417004+42967-070617FM-12+0019IOSN3V0202901N012919999999N9999999N1-00171-00961100701ADDMD1010041+9999OA139901391REMSYN140CMAN  14174 IOSN3 46/// /2925 11017 21096 40070 50004 91700 333 91227 555 11024 22026 31654 429029 61659 285024 288022 290019 282022 273016;
0177994270999992012011418004+42967-070617FM-12+0019IOSN3V0202901N010819999999N9999999N1-00191-01061100711ADDMD1010001+9999OA139901241REMSYN140CMAN  14184 IOSN3 46/// /2921 11019 21106 40071 50000 91800 333 91224 555 11020 22021 31753 430030 61759 292023 291022 283022 285023 297024;
0017994270999992012011419004+42967-070617FM-12+0019IOSN3V0203001N012919999999N9999999N1-00231-01081100781ADDMD1310031+9999
0177994270999992012011420004+42967-070617FM-12+0019IOSN3V0203001N011319999999N9999999N1-00271-01201100881ADDMD1310181+9999OA139901241REMSYN140CMAN  14204 IOSN3 46/// /3022 11027 21120 40088 53018 92000 333 91224 555 11020 22022 31900 430029 61959 296022 298022 296021 298022 294006;
0177994270999992012011421004+42967-070617FM-12+0019IOSN3V0203001N010319999999N9999999N1-00271-01031101011ADDMD1310301+9999OA139901181REMSYN140CMAN  14214 IOSN3 46/// /3020 11027 21103 40101 53030 92100 333 91223 555 11019 22020 32020 431027 62059 299019 293019 292020 297022 291011;
0177994270999992012011422004+42967-070617FM-12+0019IOSN3V0203101N008719999999N9999999N1-00341-01141101131ADDMD1310351+9999OA139900981REMSYN140CMAN  14224 IOSN3 46/// /3117 11034 21114 40113 53035 92200 333 91219 555 11016 22017 32105 430024 62159 297017 304018 295018 289018 299010;
0177994270999992012011423004+42967-070617FM-12+0019IOSN3V0203101N011319999999N9999999N1-00461-01201101221ADDMD1110341+9999OA139901181REMSYN140CMAN  14234 IOSN3 46/// /3122 11046 21120 40122 51034 92300 333 91223 555 11020 22022 32252 431026 62259 307021 308021 306020 306020 300001;
0017994270999992012011500004+42967-070617FM-12+0019IOSN3V0203101N010319999999N9999999N1-00571-01271101321ADDMD1110311+9999
0177994270999992012011501004+42967-070617FM-12+0019IOSN3V0203201N011819999999N9999999N1-00671-01421101401ADDMD1110271+9999OA139901341REMSYN140CMAN  15014 IOSN3 46/// /3223 11067 21142 40140 51027 90100 333 91226 555 11022 22023 30041 431033 60059 308022 308024 304024 302025 304004;
0177994270999992012011502004+42967-070617FM-12+0019IOSN3V0202901N009819999999N9999999N1-00771-01441101471ADDMD1110251+9999OA139901081REMSYN140CMAN  15024 IOSN3 46/// /2919 11077 21144 40147 51025 90200 333 91221 555 11018 22019 30124 431031 60159 297018 308017 308018 303023 308003;
0017994270999992012011503004+42967-070617FM-12+0019IOSN3V0203001N012319999999N9999999N1-00851-01481101491ADDMD1110171+9999
0225994270999992012011504004+42967-070617FM-12+0019IOSN3V0202901N013419999999N9999999N1-00971-01731101521ADDMD1110121+9999OA139901441REMSYN188CMAN  15044 IOSN3 46/// /2926 11097 21173 40152 51012 90400 333 91228 555 11024 22026 30354 430031 60359 298026 297025 300022 299021 292208 60349 218062 230060 243052 237054 238053 235051;
0177994270999992012011505004+42967-070617FM-12+0019IOSN3V0203001N013419999999N9999999N1-01071-01871101541ADDMD1210071+9999OA139901541REMSYN140CMAN  15054 IOSN3 46/// /3026 11107 21187 40154 52007 90500 333 91230 555 11024 22026 30411 430031 60459 294025 293024 296025 295024 296010;
0177994270999992012011506004+42967-070617FM-12+0019IOSN3V0202901N010819999999N9999999N1-01181-01861101661ADDMD1310171+9999OA139901181REMSYN140CMAN  15064 IOSN3 46/// /2921 11118 21186 40166 53017 90600 333 91223 555 11020 22021 30501 429029 60559 294022 300023 303024 307022 303006;
0017994270999992012011507004+42967-070617FM-12+0019IOSN3V0203001N009319999999N9999999N1-01291-02061101811ADDMD1310291+9999
0225994270999992012011508004+42967-070617FM-12+0019IOSN3V0203001N008219999999N9999999N1-01341-01961101921ADDMD1110381+9999OA139901081REMSYN188CMAN  15084 IOSN3 46/// /3016 11134 21196 40192 51038 90800 333 91221 555 11015 22016 30747 430022 60759 305017 293018 298017 300017 302108 60749 195066 199065 199063 197064 198058 209055;
0177994270999992012011509004+42967-070617FM-12+0019IOSN3V0203001N012319999999N9999999N1-01421-01971101931ADDMD1110271+9999OA139901291REMSYN140CMAN  15094 IOSN3 46/// /3024 11142 21197 40193 51027 90900 333 91225 555 11022 22024 30844 431028 60859 299022 304023 304021 294020 293001;
0017994270999992012011510004+42967-070617FM-12+0019IOSN3V0203101N009819999999N9999999N1-01501-02051102011ADDMD1110201+9999
0177994270999992012011511004+42967-070617FM-12+0019IOSN3V0203101N010319999999N9999999N1-01481-01921102101ADDMD1310181+9999OA139901131REMSYN140CMAN  15114 IOSN3 46/// /3120 11148 21192 40210 53018 91100 333 91222 555 11019 22020 31009 431023 61059 309019 308018 312018 311018 308003;
0225994270999992012011512004+42967-070617FM-12+0019IOSN3V0203101N008719999999N9999999N1-01471-01891102241ADDMD1310311+9999OA139901031REMSYN188CMAN  15124 IOSN3 46/// /3117 11147 21189 40224 53031 91200 333 91220 555 11016 22017 31112 431023 61159 307017 310018 312018 309018 311710 61149 170081 172073 177071 179066 180064 184059;
0017994270999992012011513004+42967-070617FM-12+0019IOSN3V0203101N008719999999N9999999N1-01451-01841102361ADDMD1310351+9999
0017994270999992012011514004+42967-070617FM-12+0019IOSN3V0203201N008219999999N9999999N1-01421-01841102461ADDMD1110361+9999
0177994270999992012011515004+42967-070617FM-12+0019IOSN3V0203301N006719999999N9999999N1-01351-01931102541ADDMD1110301+9999OA139900821REMSYN140CMAN  15154 IOSN3 46/// /3313 11135 21193 40254 51030 91500 333 91216 555 11013 22013 31406 431020 61459 322013 320013 320013 318014 316010;
0177994270999992012011516004+42967-070617FM-12+0019IOSN3V0203101N007219999999N9999999N1-01281-01981102541ADDMD1110181+9999OA139900821REMSYN140CMAN  15164 IOSN3 46/// /3114 11128 21198 40254 51018 91600 333 91216 555 11013 22014 31557 431018 61559 308012 310011 307011 315012 318009;
0177994270999992012011517004+42967-070617FM-12+0019IOSN3V0202901N007219999999N9999999N1-01181-01941102501ADDMD1010041+9999OA139900931REMSYN140CMAN  15174 IOSN3 46/// /2914 11118 21194 40250 50004 91700 333 91218 555 11013 22014 31625 431018 61659 293013 310011 305012 314012 311009;
0177994270999992012011518004+42967-070617FM-12+0019IOSN3V0203101N007219999999N9999999N1-01091-01961102511ADDMD1710031+9999OA139900881REMSYN140CMAN  15184 IOSN3 46/// /3114 11109 21196 40251 57003 91800 333 91217 555 11013 22014 31750 430020 61759 308014 302014 305013 308013 302006;
0017994270999992012011519004+42967-070617FM-12+0019IOSN3V0203001N008219999999N9999999N1-01031-01941102541ADDMD1510001+9999
0177994270999992012011520004+42967-070617FM-12+0019IOSN3V0203001N010319999999N9999999N1-01001-01911102601ADDMD1310101+9999OA139901181REMSYN140CMAN  15204 IOSN3 46/// /3020 11100 21191 40260 53010 92000 333 91223 555 11019 22021 31932 429026 61959 295020 295019 290019 293017 301007;
0177994270999992012011521004+42967-070617FM-12+0019IOSN3V0203101N010819999999N9999999N1-01041-01941102701ADDMD1310191+9999OA139901241REMSYN140CMAN  15214 IOSN3 46/// /3121 11104 21194 40270 53019 92100 333 91224 555 11019 22021 32043 431027 62059 311023 310023 299021 296022 304009;
0177994270999992012011522004+42967-070617FM-12+0019IOSN3V0203001N011819999999N9999999N1-01111-01931102821ADDMD1310281+9999OA139901441REMSYN140CMAN  15224 IOSN3 46/// /3023 11111 21193 40282 53028 92200 333 91228 555 11021 22023 32144 431029 62159 302024 307024 312022 312023 312013;
0225994270999992012011523004+42967-070617FM-12+0019IOSN3V0203101N013419999999N9999999N1-01161-01931102861ADDMD1110261+9999OA139901651REMSYN188CMAN  15234 IOSN3 46/// /3126 11116 21193 40286 51026 92300 333 91232 555 11025 22026 32217 430032 62259 307026 308028 306027 303026 301812 62249 183086 183093 182090 184089 185081 187077;
0177994270999992012011600004+42967-070617FM-12+0019IOSN3V0203101N012319999999N9999999N1-01181-01751102961ADDMD1110261+9999OA139901391REMSYN140CMAN  16004 IOSN3 46/// /3124 11118 21175 40296 51026 90000 333 91227 555 11022 22024 32308 430031 62359 303022 303023 302024 305026 301004;
0177994270999992012011601004+42967-070617FM-12+0019IOSN3V0203001N011319999999N9999999N1-01231-01901102991ADDMD1110171+9999OA139901341REMSYN140CMAN  16014 IOSN3 46/// /3022 11123 21190 40299 51017 90100 333 91226 555 11020 22022 30035 430029 60059 300022 304021 300023 298023 306010;
0017994270999992012011602004+42967-070617FM-12+0019IOSN3V0203201N010819999999N9999999N1-01231-01871103091ADDMD1210231+9999
0177994270999992012011603004+42967-070617FM-12+0019IOSN3V0203001N007719999999N9999999N1-01231-01961103161ADDMD1310201+9999OA139900931REMSYN140CMAN  16034 IOSN3 46/// /3015 11123 21196 40316 53020 90300 333 91218 555 11014 22015 30229 430025 60259 304016 303018 302019 301020 301010;
0177994270999992012011604004+42967-070617FM-12+0019IOSN3V0203201N007719999999N9999999N1-01231-01961103221ADDMD1110231+9999OA139900931REMSYN140CMAN  16044 IOSN3 46/// /3215 11123 21196 40322 51023 90400 333 91218 555 11015 22016 30329 430024 60359 311014 307016 305017 299017 305011;
0177994270999992012011605004+42967-070617FM-12+0019IOSN3V0203101N008219999999N9999999N1-01241-01921103271ADDMD1110181+9999OA139900981REMSYN140CMAN  16054 IOSN3 46/// /3116 11124 21192 40327 51018 90500 333 91219 555 11015 22016 30438 431022 60459 305016 306015 304016 309015 306013;
0177994270999992012011606004+42967-070617FM-12+0019IOSN3V0203101N008719999999N9999999N1-01221-01791103311ADDMD1110151+9999OA139900981REMSYN140CMAN  16064 IOSN3 46/// /3117 11122 21179 40331 51015 90600 333 91219 555 11016 22017 30516 431021 60559 311017 312017 311017 308017 307010;
0177994270999992012011607004+42967-070617FM-12+0019IOSN3V0203001N007719999999N9999999N1-01211-01801103391ADDMD1310171+9999OA139900931REMSYN140CMAN  16074 IOSN3 46/// /3015 11121 21180 40339 53017 90700 333 91218 555 11015 22016 30609 431021 60659 301015 305016 313015 315017 305022;
0017994270999992012011608004+42967-070617FM-12+0019IOSN3V0203101N007719999999N9999999N1-01211-01741103401ADDMD1110131+9999
0177994270999992012011609004+42967-070617FM-12+0019IOSN3V0203001N007219999999N9999999N1-01181-01631103431ADDMD1110121+9999OA139900821REMSYN140CMAN  16094 IOSN3 46/// /3014 11118 21163 40343 51012 90900 333 91216 555 11013 22014 30802 431018 60859 303013 307013 308012 309013 307010;
0177994270999992012011610004+42967-070617FM-12+0019IOSN3V0203101N006219999999N9999999N1-01191-01661103421ADDMD1210031+9999OA139900671REMSYN140CMAN  16104 IOSN3 46/// /3112 11119 21166 40342 52003 91000 333 91213 555 11011 22012 30924 430018 60959 305012 302013 298014 293014 290006;
0017994270999992012011611004+42967-070617FM-12+0019IOSN3V0202901N006219999999N9999999N1-01191-01611103461ADDMD1310061+9999
0017994270999992012011612004+42967-070617FM-12+0019IOSN3V0202901N005719999999N9999999N1-01191-01591103501ADDMD1310071+9999
0017994270999992012011613004+42967-070617FM-12+0019IOSN3V0203001N005119999999N9999999N1-01151-01611103541ADDMD1210121+9999
0177994270999992012011614004+42967-070617FM-12+0019IOSN3V0202901N003119999999N9999999N1-01061-01501103551ADDMD1110091+9999OA139900411REMSYN140CMAN  16144 IOSN3 46/// /2906 11106 21150 40355 51009 91400 333 91208 555 11005 22006 31300 430012 61359 297006 293007 299007 303008 307002;
0017994270999992012011615004+42967-070617FM-12+0019IOSN3V0202501N002619999999N9999999N1-00941-01471103511ADDMD1010001+9999
0017994270999992012011616004+42967-070617FM-12+0019IOSN3V0202301N003619999999N9999999N1-00811-01301103421ADDMD1810121+9999
0177994270999992012011617004+42967-070617FM-12+0019IOSN3V0202101N004119999999N9999999N1-00661-01241103261ADDMD1810291+9999OA139900461REMSYN140CMAN  16174 IOSN3 46/// /2108 11066 21124 40326 58029 91700 333 91209 555 11008 22008 31626 422011 61659 205008 211008 216007 218008 229012;
0177994270999992012011618004+42967-070617FM-12+0019IOSN3V0201901N006219999999N9999999N1-00561-01281103151ADDMD1810361+9999OA139900671REMSYN140CMAN  16184 IOSN3 46/// /1912 11056 21128 40315 58036 91800 333 91213 555 11011 22012 31736 421016 61759 199012 208013 211012 208010 198003;
0177994270999992012011619004+42967-070617FM-12+0019IOSN3V0202101N006219999999N9999999N1-00411-01421103011ADDMD1610411+9999OA139900721REMSYN140CMAN  16194 IOSN3 46/// /2112 11041 21142 40301 56041 91900 333 91214 555 11011 22012 31837 421016 61859 212013 210012 206013 207013 208006;
0017994270999992012011620004+42967-070617FM-12+0019IOSN3V0202101N008719999999N9999999N1-00291-01551102891ADDMD1810371+9999
0177994270999992012011621004+42967-070617FM-12+0019IOSN3V0202001N009319999999N9999999N1-00211-01551102791ADDMD1610361+9999OA139901031REMSYN140CMAN  16214 IOSN3 46/// /2018 11021 21155 40279 56036 92100 333 91220 555 11017 22018 32053 419022 62059 196018 198015 192015 200016 209009;
0017994270999992012011622004+42967-070617FM-12+0019IOSN3V0201901N011819999999N9999999N1-00121-01231102711ADDMD1610301+9999
0177994270999992012011623004+42967-070617FM-12+0019IOSN3V0202001N013419999999N9999999N1-00121-01291102591ADDMD1810301+9999OA139901491REMSYN140CMAN  16234 IOSN3 46/// /2026 11012 21129 40259 58030 92300 333 91229 555 11024 22026 32238 419029 62259 198025 198024 201024 205024 208005;
0177994270999992012011700004+42967-070617FM-12+0019IOSN3V0202001N014919999999N9999999N1-00101-01161102481ADDMD1810311+9999OA139901701REMSYN140CMAN  17004 IOSN3 46/// /2029 11010 21116 40248 58031 90000 333 91233 555 11028 22030 32353 420035 62359 201031 199029 199029 196028 201006;
0017994270999992012011701004+42967-070617FM-12+0019IOSN3V0202101N017019999999N9999999N1-00071-00761102331ADDMD1810381+9999
0017994270999992012011702004+42967-070617FM-12+0019IOSN3V0202101N013419999999N9999999N1+00021-00501102291ADDMD1610301+9999
0177994270999992012011703004+42967-070617FM-12+0019IOSN3V0202101N013919999999N9999999N1+00031-00431102141ADDMD1710341+9999OA139901601REMSYN140CMAN  17034 IOSN3 46/// /2127 10003 21043 40214 57034 90300 333 91231 555 11026 22027 30247 422036 60259 217028 219030 216029 215031 217011;
0017994270999992012011704004+42967-070617FM-12+0019IOSN3V0202201N013419999999N9999999N1-00091-00171102081ADDMD1810251+9999
0177994270999992012011705004+42967-070617FM-12+0019IOSN3V0202301N011319999999N9999999N1-00061-00111101951ADDMD1610341+9999OA139901341REMSYN140CMAN  17054 IOSN3 46/// /2322 11006 21011 40195 56034 90500 333 91226 555 11021 22022 30441 422030 60459 222023 218023 220022 220022 225008;
0185994270999992012011706004+42967-070617FM-12+0019IOSN3V0202201N012919999999N9999999N1+00011-00041101801ADDMD1810341+9999OA139901391REMSYN148CMAN  17064 IOSN3 46/// /2225 10001 21004 40180 58034 90600 333 91227 555 11024 22025 30524 423029 60559 225025 227024 225024 225024 22 91002 91103;
0188994270999992012011707004+42967-070617FM-12+0019IOSN3V0202301N011319999999N9999999N1+00071-00011101751ADDMD1610331+9999OA139901241REMSYN151CMAN  17074 IOSN3 46/// /2322 10007 21001 40175 56033 90700 333 91224 555 11020 22022 30607 424028 60659 227023 226022 231022 228023 2393100 555 60005;
0017994270999992012011708004+42967-070617FM-12+0019IOSN3V0202301N008719999999N9999999N1+00101-00031101711ADDMD1610241+9999
0017994270999992012011709004+42967-070617FM-12+0019IOSN3V0202401N007219999999N9999999N1+00161+00001101671ADDMD1610131+9999
0177994270999992012011710004+42967-070617FM-12+0019IOSN3V0202301N007719999999N9999999N1+00141+00001101581ADDMD1810171+9999OA139900821REMSYN140CMAN  17104 IOSN3 46/// /2315 10014 20000 40158 58017 91000 333 91216 555 11014 22015 30902 423019 60959 228014 229014 231015 230015 234003;
0177994270999992012011711004+42967-070617FM-12+0019IOSN3V0202301N005719999999N9999999N1+00101+00061101551ADDMD1610161+9999OA139900621REMSYN140CMAN  17114 IOSN3 46/// /2311 10010 20006 40155 56016 91100 333 91212 555 11011 22011 31025 424018 61059 231012 233013 234014 235015 236006;
0017994270999992012011712004+42967-070617FM-12+0019IOSN3V0202401N006219999999N9999999N1+00091+00071101511ADDMD1610161+9999
0177994270999992012011713004+42967-070617FM-12+0019IOSN3V0202401N006719999999N9999999N1+00141+00031101461ADDMD1810121+9999OA139900721REMSYN140CMAN  17134 IOSN3 46/// /2413 10014 20003 40146 58012 91300 333 91214 555 11012 22013 31248 423015 61259 237012 235012 233012 234013 230010;
0177994270999992012011714004+42967-070617FM-12+0019IOSN3V0202401N007219999999N9999999N1+00211+00041101411ADDMD1810141+9999OA139900771REMSYN140CMAN  17144 IOSN3 46/// /2414 10021 20004 40141 58014 91400 333 91215 555 11013 22014 31349 424017 61359 244014 242014 243014 238014 232023;
0017994270999992012011715004+42967-070617FM-12+0019IOSN3V0202401N006719999999N9999999N1+00201+00031101371ADDMD1610141+9999
0177994270999992012011716004+42967-070617FM-12+0019IOSN3V0202501N007219999999N9999999N1+00241-00041101281ADDMD1810181+9999OA139900771REMSYN140CMAN  17164 IOSN3 46/// /2514 10024 21004 40128 58018 91600 333 91215 555 11014 22015 31529 424018 61559 253014 255014 248015 240014 236014;
0177994270999992012011717004+42967-070617FM-12+0019IOSN3V0202501N003119999999N9999999N1+00321+00031101161ADDMD1810251+9999OA139900361REMSYN140CMAN  17174 IOSN3 46/// /2506 10032 20003 40116 58025 91700 333 91207 555 11006 22006 31600 425015 61659 258007 264009 255009 253011 257008;
0177994270999992012011718004+42967-070617FM-12+0019IOSN3V0209999C000019999999N9999999N1+00381+00031101011ADDMD1810361+9999OA139900051REMSYN140CMAN  17184 IOSN3 46/// /0000 10038 20003 40101 58036 91800 333 91201 555 11001 22001 31701 426008 61759 213002 215003 223004 235004 257008;
0177994270999992012011719004+42967-070617FM-12+0019IOSN3V0201601N005119999999N9999999N1+00441+00161100931ADDMD1610351+9999OA139900571REMSYN140CMAN  17194 IOSN3 46/// /1610 10044 20016 40093 56035 91900 333 91211 555 11009 22010 31859 417011 61859 157009 165007 191007 173004 180008;
0177994270999992012011720004+42967-070617FM-12+0019IOSN3V0201401N005719999999N9999999N1+00441+00221100861ADDMD1610301+9999OA139900671REMSYN140CMAN  17204 IOSN3 46/// /1411 10044 20022 40086 56030 92000 333 91213 555 11011 22011 31927 417014 61959 142012 146012 160011 167012 161016;
0177994270999992012011721004+42967-070617FM-12+0019IOSN3V0201801N006719999999N9999999N1+00421+00241100761ADDMD1810251+9999OA139900721REMSYN140CMAN  17214 IOSN3 46/// /1813 10042 20024 40076 58025 92100 333 91214 555 11013 22013 32024 419018 62059 184014 177014 178015 186015 160013;
0177994270999992012011722004+42967-070617FM-12+0019IOSN3V0201701N006219999999N9999999N1+00421+00301100651ADDMD1810281+9999OA139900671REMSYN140CMAN  17224 IOSN3 46/// /1712 10042 20030 40065 58028 92200 333 91213 555 11011 22012 32142 418015 62159 173012 183013 180013 180013 180011;
0017994270999992012011723004+42967-070617FM-12+0019IOSN3V0201701N010319999999N9999999N1+00511+00461100521ADDMD1810341+9999
