0183994370999992012010100004+43783-068867FM-12+0027MISM1V0203201N005119999999N9999999N1+00631+00631100771ADDMD1610051+9999OA139900571REMSYN146CMAN  01004 MISM1 46/// /3210 10063 20063 40077 56005 90000 333 91211 555 11009 22010 32349 431012 62359 319011 305010 315008 310008 31008 149008;
0017994370999992012010101004+43783-068867FM-12+0027MISM1V0203401N005119999999N9999999N1+00611+00611100731ADDMD1810061+9999
0177994370999992012010102004+43783-068867FM-12+0027MISM1V0203101N007719999999N9999999N1+00501+00501100811ADDMD1310031+9999OA139900821REMSYN140CMAN  01024 MISM1 46/// /3115 10050 20050 40081 53003 90200 333 91216 555 11014 22014 30144 431018 60159 310014 308016 316015 311015 324015;
0180994370999992012010103004+43783-068867FM-12+0027MISM1V0203301N006219999999N9999999N1+00431+00431100841ADDMD1310071+9999OA139900671REMSYN143CMAN  01034 MISM1 46/// /3312 10043 20043 40084 53007 90300 333 91213 555 11011 22012 30224 431019 60259 325013 323013 319014 314017 30005 08/;
0017994370999992012010104004+43783-068867FM-12+0027MISM1V0203301N008219999999N9999999N1+00431+00431100811ADDMD1010081+9999
0183994370999992012010105004+43783-068867FM-12+0027MISM1V0203201N008719999999N9999999N1+00491+00481100871ADDMD1310061+9999OA139900981REMSYN146CMAN  01054 MISM1 46/// /3217 10049 20048 40087 53006 90500 333 91219 555 11016 22017 30427 433022 60459 318018 318017 327017 324019 32007 085011;
0183994370999992012010106004+43783-068867FM-12+0027MISM1V0203101N008719999999N9999999N1+00481+00471100941ADDMD1310101+9999OA139900981REMSYN146CMAN  01064 MISM1 46/// /3117 10048 20047 40094 53010 90600 333 91219 555 11016 22017 30548 432020 60559 313018 315017 317017 320015 31012 093000;
0180994370999992012010107004+43783-068867FM-12+0027MISM1V0203101N009319999999N9999999N1+00521+00471101031ADDMD1310221+9999OA139900981REMSYN143CMAN  01074 MISM1 46/// /3118 10052 20047 40103 53022 90700 333 91219 555 11017 22018 30606 432020 60659 314016 323013 323012 322014 32007 10/;
0017994370999992012010108004+43783-068867FM-12+0027MISM1V0203101N010319999999N9999999N1+00561+00441101061ADDMD1110191+9999
0017994370999992012010109004+43783-068867FM-12+0027MISM1V0203201N010319999999N9999999N1+00551+00401101091ADDMD1110151+9999
0225994370999992012010110004+43783-068867FM-12+0027MISM1V0203201N008719999999N9999999N1+00521+00361101251ADDMD1310221+9999OA139900981REMSYN188CMAN  01104 MISM1 46/// /3217 10052 20036 40125 53022 91000 333 91219 555 11016 22017 30942 433028 60959 323019 336024 336021 335021 32010 070949 354019 357020 357020 353021 350025 357024;
0183994370999992012010111004+43783-068867FM-12+0027MISM1V0203101N007219999999N9999999N1+00501+00341101341ADDMD1310281+9999OA139900771REMSYN146CMAN  01114 MISM1 46/// /3114 10050 20034 40134 53028 91100 333 91215 555 11013 22013 31014 432027 61059 315016 317020 315022 317020 32008 060008;
0180994370999992012010112004+43783-068867FM-12+0027MISM1V0203201N007219999999N9999999N1+00461+00281101451ADDMD1110361+9999OA139900771REMSYN143CMAN  01124 MISM1 46/// /3214 10046 20028 40145 51036 91200 333 91215 555 11013 22014 31119 431019 61159 317014 312015 315016 318016 31007 03/;
0183994370999992012010113004+43783-068867FM-12+0027MISM1V0203201N007719999999N9999999N1+00461+00301101531ADDMD1110281+9999OA139900821REMSYN146CMAN  01134 MISM1 46/// /3215 10046 20030 40153 51028 91300 333 91216 555 11014 22014 31239 432021 61259 321014 322017 321018 323013 32008 033006;
0017994370999992012010114004+43783-068867FM-12+0027MISM1V0203401N005119999999N9999999N1+00461+00281101601ADDMD1110261+9999
0017994370999992012010115004+43783-068867FM-12+0027MISM1V0203501N003619999999N9999999N1+00461+00291101611ADDMD1110161+9999
0017994370999992012010116004+43783-068867FM-12+0027MISM1V0203501N003619999999N9999999N1+00451+00261101591ADDMD1110061+9999
0017994370999992012010117004+43783-068867FM-12+0027MISM1V0203301N003619999999N9999999N1+00491+00261101501ADDMD1810101+9999
0017994370999992012010118004+43783-068867FM-12+0027MISM1V0200601N001519999999N9999999N1+00521+00241101491ADDMD1710121+9999
0183994370999992012010119004+43783-068867FM-12+0027MISM1V0201001N003119999999N9999999N1+00651+00351101441ADDMD1610151+9999OA139900361REMSYN146CMAN  01194 MISM1 46/// /1006 10065 20035 40144 56015 91900 333 91207 555 11006 22006 31856 410008 61859 099006 082004 093004 078002 09007 040015;
0231994370999992012010120004+43783-068867FM-12+0027MISM1V0201401N004619999999N9999999N1+00601+00331101431ADDMD1710071+9999OA139900571REMSYN194CMAN  01204 MISM1 46/// /1409 10060 20033 40143 57007 92000 333 91211 555 11009 22009 31959 414011 61959 135008 133008 131007 128006 11007 041706 61949 169038 170039 177037 178035 185035 189033;
0183994370999992012010121004+43783-068867FM-12+0027MISM1V0201301N006719999999N9999999N1+00491+00351101401ADDMD1610091+9999OA139900771REMSYN146CMAN  01214 MISM1 46/// /1313 10049 20035 40140 56009 92100 333 91215 555 11012 22013 32042 412016 62059 127014 124014 122013 132010 13009 040016;
0017994370999992012010122004+43783-068867FM-12+0027MISM1V0201401N008719999999N9999999N1+00511+00391101341ADDMD1810101+9999
0177994370999992012010123004+43783-068867FM-12+0027MISM1V0201501N009819999999N9999999N1+00561+00471101291ADDMD1810141+9999OA139901081REMSYN140CMAN  01234 MISM1 46/// /1519 10056 20047 40129 58014 92300 333 91221 555 11018 22019 32259 416021 62259 156018 153018 145018 144018 148016;
0183994370999992012010200004+43783-068867FM-12+0027MISM1V0201501N011319999999N9999999N1+00631+00581101121ADDMD1810281+9999OA139901241REMSYN146CMAN  02004 MISM1 46/// /1522 10063 20058 40112 58028 90000 333 91224 555 11020 22022 32357 414024 62359 144021 143022 142021 144020 14008 087006;
0231994370999992012010201004+43783-068867FM-12+0027MISM1V0201701N012319999999N9999999N1+00721+00651101051ADDMD1810291+9999OA139901341REMSYN194CMAN  02014 MISM1 46/// /1724 10072 20065 40105 58029 90100 333 91226 555 11022 22023 30051 417030 60059 165026 159024 152022 150020 14007 081906 60049 216038 211036 205038 204035 198032 198034;
0183994370999992012010202004+43783-068867FM-12+0027MISM1V0201701N012319999999N9999999N1+00731+00691100951ADDMD1610341+9999OA139901391REMSYN146CMAN  02024 MISM1 46/// /1724 10073 20069 40095 56034 90200 333 91227 555 11023 22024 30104 417030 60159 173024 174024 176024 173024 17005 065019;
0183994370999992012010203004+43783-068867FM-12+0027MISM1V0201601N011819999999N9999999N1+00761+00751100791ADDMD1810331+9999OA139901341REMSYN146CMAN  02034 MISM1 46/// /1623 10076 20075 40079 58033 90300 333 91226 555 11022 22023 30227 417029 60259 165025 165024 162024 167025 17004 055026;
0225994370999992012010204004+43783-068867FM-12+0027MISM1V0201701N013919999999N9999999N1+00781+00771100701ADDMD1610351+9999OA139901491REMSYN188CMAN  02044 MISM1 46/// /1727 10078 20077 40070 56035 90400 333 91229 555 11025 22027 30358 417029 60359 167025 167024 167023 165025 16003 040349 073030 081032 085032 083035 080035 078033;
0225994370999992012010205004+43783-068867FM-12+0027MISM1V0201601N014419999999N9999999N1+00801+00791100551ADDMD1610401+9999OA139901651REMSYN188CMAN  02054 MISM1 46/// /1628 10080 20079 40055 56040 90500 333 91232 555 11026 22028 30444 417032 60459 164027 164028 170028 172026 16007 000449 086030 085035 078036 083032 087031 081031;
0231994370999992012010206004+43783-068867FM-12+0027MISM1V0201601N014919999999N9999999N1+00831+00831100341ADDMD1810451+9999OA139901651REMSYN194CMAN  02064 MISM1 46/// /1629 10083 20083 40034 58045 90600 333 91232 555 11026 22028 30536 416035 60559 161028 164029 164028 161027 16005 232006 60549 204035 198039 198038 205037 204036 204037;
0183994370999992012010207004+43783-068867FM-12+0027MISM1V0201701N013419999999N9999999N1+00851+00851100221ADDMD1610481+9999OA139901441REMSYN146CMAN  02074 MISM1 46/// /1726 10085 20085 40022 56048 90700 333 91228 555 11024 22025 30620 416033 60659 165027 160027 157028 160028 15011 305024;
0183994370999992012010208004+43783-068867FM-12+0027MISM1V0201701N013419999999N9999999N1+00851+00851100071ADDMD1610481+9999OA139901441REMSYN146CMAN  02084 MISM1 46/// /1726 10085 20085 40007 56048 90800 333 91228 555 11024 22025 30721 416034 60759 171027 168029 166029 163029 16011 003026;
0017994370999992012010209004+43783-068867FM-12+0027MISM1V0201801N013919999999N9999999N1+00871+00871099901ADDMD1810441+9999
0183994370999992012010210004+43783-068867FM-12+0027MISM1V0201801N011319999999N9999999N1+00871+00871099761ADDMD1610461+9999OA139901181REMSYN146CMAN  02104 MISM1 46/// /1822 10087 20087 49976 56046 91000 333 91223 555 11020 22022 30909 418029 60959 177023 178023 178021 181022 18010 001026;
0017994370999992012010211004+43783-068867FM-12+0027MISM1V0202001N011819999999N9999999N1+00881+00871099751ADDMD1610321+9999
0183994370999992012010212004+43783-068867FM-12+0027MISM1V0202101N011819999999N9999999N1+00871+00871099671ADDMD1610231+9999OA139901241REMSYN146CMAN  02124 MISM1 46/// /2123 10087 20087 49967 56023 91200 333 91224 555 11021 22022 31119 420029 61159 207022 204023 201024 194024 19009 358023;
0017994370999992012010213004+43783-068867FM-12+0027MISM1V0202301N012919999999N9999999N1+00831+00821099661ADDMD1710101+9999
0183994370999992012010214004+43783-068867FM-12+0027MISM1V0202501N015419999999N9999999N1+00701+00391099701ADDMD1510051+9999OA139901701REMSYN146CMAN  02144 MISM1 46/// /2530 10070 20039 49970 55005 91400 333 91233 555 11028 22030 31342 425033 61359 250028 247028 246027 245026 24008 350023;
0183994370999992012010215004+43783-068867FM-12+0027MISM1V0202501N017019999999N9999999N1+00651+00261099691ADDMD1410001+9999OA139901801REMSYN146CMAN  02154 MISM1 46/// /2533 10065 20026 49969 54000 91500 333 91235 555 11030 22032 31457 425036 61459 248029 247030 247027 247025 24006 000023;
0183994370999992012010216004+43783-068867FM-12+0027MISM1V0202401N017019999999N9999999N1+00601+00041099691ADDMD1110031+9999OA139901801REMSYN146CMAN  02164 MISM1 46/// /2433 10060 20004 49969 51003 91600 333 91235 555 11030 22032 31524 425039 61559 245032 247031 251033 249033 24028 006026;
0177994370999992012010217004+43783-068867FM-12+0027MISM1V0202401N014919999999N9999999N1+00591-00011099681ADDMD1410001+9999OA139901701REMSYN140CMAN  02174 MISM1 46/// /2429 10059 21001 49968 54000 91700 333 91233 555 11027 22029 31639 425041 61659 246032 248033 247034 247035 242025;
0017994370999992012010218004+43783-068867FM-12+0027MISM1V0202401N015919999999N9999999N1+00561-00071099681ADDMD1410001+9999
0231994370999992012010219004+43783-068867FM-12+0027MISM1V0202601N017019999999N9999999N1+00561-00191099701ADDMD1410001+9999OA139901851REMSYN194CMAN  02194 MISM1 46/// /2633 10056 21019 49970 54000 91900 333 91236 555 11030 22032 31851 425039 61859 254033 248033 246031 245032 24007 262408 61849 237065 233067 229067 237063 231063 233066;
0183994370999992012010220004+43783-068867FM-12+0027MISM1V0202501N013919999999N9999999N1+00561-00191099781ADDMD1310101+9999OA139901701REMSYN146CMAN  02204 MISM1 46/// /2527 10056 21019 49978 53010 92000 333 91233 555 11025 22027 31919 425037 61959 255031 252032 254032 251031 25010 318016;
0183994370999992012010221004+43783-068867FM-12+0027MISM1V0202601N015419999999N9999999N1+00551-00361099851ADDMD1310171+9999OA139901751REMSYN146CMAN  02214 MISM1 46/// /2630 10055 21036 49985 53017 92100 333 91234 555 11028 22030 32055 426038 62059 259032 258032 251029 251029 25010 295015;
0183994370999992012010222004+43783-068867FM-12+0027MISM1V0202501N014419999999N9999999N1+00541-00351099921ADDMD1110221+9999OA139901651REMSYN146CMAN  02224 MISM1 46/// /2528 10054 21035 49992 51022 92200 333 91232 555 11026 22027 32103 426035 62159 253029 253030 247028 250029 24010 292016;
0183994370999992012010223004+43783-068867FM-12+0027MISM1V0202601N015919999999N9999999N1+00521-00411100041ADDMD1310261+9999OA139901751REMSYN146CMAN  02234 MISM1 46/// /2631 10052 21041 40004 53026 92300 333 91234 555 11028 22030 32229 425034 62259 255029 256028 251029 249029 25016 304016;
0177994370999992012010300004+43783-068867FM-12+0027MISM1V0202601N016419999999N9999999N1+00481-00411100131ADDMD1310281+9999OA139901801REMSYN140CMAN  03004 MISM1 46/// /2632 10048 21041 40013 53028 90000 333 91235 555 11029 22031 32357 426037 62359 255031 256031 257030 255028 257019;
0180994370999992012010301004+43783-068867FM-12+0027MISM1V0202601N017519999999N9999999N1+00441-00371100121ADDMD1110201+9999OA139901961REMSYN143CMAN  03014 MISM1 46/// /2634 10044 21037 40012 51020 90100 333 91238 555 11031 22033 30055 426041 60059 259034 257033 255033 255033 25E /////;
0017994370999992012010302004+43783-068867FM-12+0027MISM1V0202601N015919999999N9999999N1+00421-00381100161ADDMD1110121+9999
0177994370999992012010303004+43783-068867FM-12+0027MISM1V0202601N017019999999N9999999N1+00411-00511100201ADDMD1310071+9999OA139901851REMSYN140CMAN  03034 MISM1 46/// /2633 10041 21051 40020 53007 90300 333 91236 555 11031 22033 30242 426038 60259 256031 260033 260030 261031 258024;
0183994370999992012010304004+43783-068867FM-12+0027MISM1V0202601N015419999999N9999999N1+00361-00451100201ADDMD1110081+9999OA139901751REMSYN146CMAN  03044 MISM1 46/// /2630 10036 21045 40020 51008 90400 333 91234 555 11028 22030 30349 425036 60359 255030 254030 258030 256030 25020 348022;
0017994370999992012010305004+43783-068867FM-12+0027MISM1V0202501N012919999999N9999999N1+00331-00471100221ADDMD1110061+9999
0183994370999992012010306004+43783-068867FM-12+0027MISM1V0202701N014919999999N9999999N1+00291-00591100221ADDMD1410001+9999OA139901601REMSYN146CMAN  03064 MISM1 46/// /2729 10029 21059 40022 54000 90600 333 91231 555 11026 22028 30522 426036 60559 262030 261029 261028 263030 26022 350028;
0017994370999992012010307004+43783-068867FM-12+0027MISM1V0202501N012919999999N9999999N1+00271-00471100271ADDMD1310071+9999
0177994370999992012010308004+43783-068867FM-12+0027MISM1V0202701N011319999999N9999999N1+00231-00501100311ADDMD1310091+9999OA139901341REMSYN140CMAN  03084 MISM1 46/// /2722 10023 21050 40031 53009 90800 333 91226 555 11020 22022 30709 426032 60759 267023 262023 262024 258025 257018;
0183994370999992012010309004+43783-068867FM-12+0027MISM1V0203101N007719999999N9999999N1+00111-00441100321ADDMD1110101+9999OA139900931REMSYN146CMAN  03094 MISM1 46/// /3115 10011 21044 40032 51010 90900 333 91218 555 11014 22015 30820 428033 60859 303016 304019 307019 291019 27025 313027;
0183994370999992012010310004+43783-068867FM-12+0027MISM1V0203301N007719999999N9999999N1+00041-00481100361ADDMD1210091+9999OA139900931REMSYN146CMAN  03104 MISM1 46/// /3315 10004 21048 40036 52009 91000 333 91218 555 11014 22015 30920 429022 60959 320015 312017 302017 299018 29026 323028;
0017994370999992012010311004+43783-068867FM-12+0027MISM1V0203301N009319999999N9999999N1-00061-00721100461ADDMD1310151+9999
0183994370999992012010312004+43783-068867FM-12+0027MISM1V0203201N008719999999N9999999N1-00131-00701100561ADDMD1310241+9999OA139901081REMSYN146CMAN  03124 MISM1 46/// /3217 11013 21070 40056 53024 91200 333 91221 555 11016 22017 31113 432022 61159 316015 317016 324016 320017 31022 327028;
0017994370999992012010313004+43783-068867FM-12+0027MISM1V0203001N010819999999N9999999N1-00241-00871100691ADDMD1310331+9999
0183994370999992012010314004+43783-068867FM-12+0027MISM1V0203101N012319999999N9999999N1-00331-01141100771ADDMD1110311+9999OA139901391REMSYN146CMAN  03144 MISM1 46/// /3124 11033 21114 40077 51031 91400 333 91227 555 11022 22023 31349 432029 61359 314022 316022 314020 312020 31022 316022;
0017994370999992012010315004+43783-068867FM-12+0027MISM1V0203101N010319999999N9999999N1-00361-01101100751ADDMD1110191+9999
0017994370999992012010316004+43783-068867FM-12+0027MISM1V0203001N009319999999N9999999N1-00381-01211100751ADDMD1110061+9999
0180994370999992012010317004+43783-068867FM-12+0027MISM1V0203101N007219999999N9999999N1-00381-01101100751ADDMD1410001+9999OA139900821REMSYN143CMAN  03174 MISM1 46/// /3114 11038 21110 40075 54000 91700 333 91216 555 11013 22014 31607 432022 61659 321014 313015 315015 309017 30019 34/;
0017994370999992012010318004+43783-068867FM-12+0027MISM1V0203101N008719999999N9999999N1-00391-01211100801ADDMD1310051+9999
0017994370999992012010319004+43783-068867FM-12+0027MISM1V0203401N007719999999N9999999N1-00431-01241100751ADDMD1010001+9999
0183994370999992012010320004+43783-068867FM-12+0027MISM1V0203401N009319999999N9999999N1-00451-01171100891ADDMD1310141+9999OA139901031REMSYN146CMAN  03204 MISM1 46/// /3418 11045 21117 40089 53014 92000 333 91220 555 11016 22017 31919 434023 61959 337017 345017 344016 349017 34020 346016;
0183994370999992012010321004+43783-068867FM-12+0027MISM1V0203301N011319999999N9999999N1-00491-01261100911ADDMD1310111+9999OA139901291REMSYN146CMAN  03214 MISM1 46/// /3322 11049 21126 40091 53011 92100 333 91225 555 11021 22022 32031 433026 62059 331020 329020 337019 330018 34018 330015;
0017994370999992012010322004+43783-068867FM-12+0027MISM1V0203401N011319999999N9999999N1-00561-01311101051ADDMD1210301+9999
0183994370999992012010323004+43783-068867FM-12+0027MISM1V0203301N012319999999N9999999N1-00601-01291101081ADDMD1310191+9999OA139901391REMSYN146CMAN  03234 MISM1 46/// /3324 11060 21129 40108 53019 92300 333 91227 555 11022 22024 32207 435034 62259 336024 337023 339024 334023 34010 008012;
0183994370999992012010400004+43783-068867FM-12+0027MISM1V0203301N011819999999N9999999N1-00671-01461101251ADDMD1310341+9999OA139901341REMSYN146CMAN  04004 MISM1 46/// /3323 11067 21146 40125 53034 90000 333 91226 555 11021 22023 32329 433028 62359 332023 329023 322023 328023 33014 344009;
0189994370999992012010401004+43783-068867FM-12+0027MISM1V0203201N010319999999N9999999N1-00761-01431101371ADDMD1310321+9999OA139901181REMSYN152CMAN  04014 MISM1 46/// /3220 11076 21143 40137 53032 90100 333 91223 555 11019 22020 30023 432031 60059 320022 320022 323024 324026 3214 328015 320015;
0183994370999992012010402004+43783-068867FM-12+0027MISM1V0203401N010319999999N9999999N1-00851-01391101381ADDMD1110301+9999OA139901291REMSYN146CMAN  04024 MISM1 46/// /3420 11085 21139 40138 51030 90200 333 91225 555 11019 22020 30131 432030 60159 324022 319023 316024 326023 33014 026009;
0017994370999992012010403004+43783-068867FM-12+0027MISM1V0203401N011819999999N9999999N1-00901-01251101301ADDMD1010051+9999
0017994370999992012010404004+43783-068867FM-12+0027MISM1V0203301N015419999999N9999999N1-00961-01251101101ADDMD1810271+9999
0183994370999992012010405004+43783-068867FM-12+0027MISM1V0203401N013419999999N9999999N1-01071-01461101341ADDMD1510041+9999OA139901491REMSYN146CMAN  04054 MISM1 46/// /3426 11107 21146 40134 55004 90500 333 91229 555 11024 22026 30401 433035 60459 348024 353024 340024 344025 34017 333007;
0183994370999992012010406004+43783-068867FM-12+0027MISM1V0203501N011319999999N9999999N1-01091-01431101391ADDMD1310091+9999OA139901341REMSYN146CMAN  04064 MISM1 46/// /3522 11109 21143 40139 53009 90600 333 91226 555 11020 22021 30553 435032 60559 352024 353024 349024 348024 34018 003004;
0017994370999992012010407004+43783-068867FM-12+0027MISM1V0203501N012919999999N9999999N1-01111-01441101411ADDMD1110311+9999
0017994370999992012010408004+43783-068867FM-12+0027MISM1V0203301N014419999999N9999999N1-01111-01391101381ADDMD1010041+9999
0177994370999992012010409004+43783-068867FM-12+0027MISM1V0203301N012919999999N9999999N1-01111-01381101441ADDMD1310051+9999OA139901541REMSYN140CMAN  04094 MISM1 46/// /3325 11111 21138 40144 53005 90900 333 91230 555 11023 22025 30814 434033 60859 336025 337025 334026 335025 333022;
0177994370999992012010410004+43783-068867FM-12+0027MISM1V0203201N013419999999N9999999N1-01131-01351101431ADDMD1510001+9999OA139901541REMSYN140CMAN  04104 MISM1 46/// /3226 11113 21135 40143 55000 91000 333 91230 555 11024 22026 30906 434031 60959 330024 330025 333024 336023 33////;
0017994370999992012010411004+43783-068867FM-12+0027MISM1V0203401N012919999999N9999999N1-01161-01411101431ADDMD1110051+9999
0017994370999992012010412004+43783-068867FM-12+0027MISM1V0203301N010819999999N9999999N1-01151-01381101491ADDMD1310051+9999
0017994370999992012010413004+43783-068867FM-12+0027MISM1V0203301N012319999999N9999999N1-01141-01361101541ADDMD1310111+9999
0017994370999992012010414004+43783-068867FM-12+0027MISM1V0203301N010819999999N9999999N1-01171-01471101611ADDMD1310181+9999
0017994370999992012010415004+43783-068867FM-12+0027MISM1V0203201N011319999999N9999999N1-01121-01491101561ADDMD1010071+9999
0183994370999992012010416004+43783-068867FM-12+0027MISM1V0203001N008219999999N9999999N1-01041-01541101481ADDMD1810061+9999OA139901031REMSYN146CMAN  04164 MISM1 46/// /3016 11104 21154 40148 58006 91600 333 91220 555 11015 22016 31508 431025 61559 312016 308018 309018 311019 31011 007006;
0183994370999992012010417004+43783-068867FM-12+0027MISM1V0203201N009319999999N9999999N1-00871-01481101401ADDMD1810211+9999OA139901031REMSYN146CMAN  04174 MISM1 46/// /3218 11087 21148 40140 58021 91700 333 91220 555 11017 22018 31638 431026 61659 309020 306021 307020 312017 31011 009008;
0183994370999992012010418004+43783-068867FM-12+0027MISM1V0202801N010819999999N9999999N1-00771-01471101321ADDMD1710241+9999OA139901241REMSYN146CMAN  04184 MISM1 46/// /2821 11077 21147 40132 57024 91800 333 91224 555 11020 22021 31758 429024 61759 288019 298017 301017 303017 30015 343011;
0183994370999992012010419004+43783-068867FM-12+0027MISM1V0202901N008219999999N9999999N1-00691-01361101311ADDMD1610171+9999OA139900981REMSYN146CMAN  04194 MISM1 46/// /2916 11069 21136 40131 56017 91900 333 91219 555 11015 22016 31805 429024 61859 287015 282016 281017 284018 28009 350008;
0017994370999992012010420004+43783-068867FM-12+0027MISM1V0202901N008719999999N9999999N1-00561-01401101341ADDMD1510061+9999
0180994370999992012010421004+43783-068867FM-12+0027MISM1V0202701N008719999999N9999999N1-00511-01551101341ADDMD1410001+9999OA139901031REMSYN143CMAN  04214 MISM1 46/// /2717 11051 21155 40134 54000 92100 333 91220 555 11016 22017 32025 429023 62059 277016 280017 284018 286018 28E /////;
0225994370999992012010422004+43783-068867FM-12+0027MISM1V0202801N008219999999N9999999N1-00431-01491101351ADDMD1110041+9999OA139900931REMSYN188CMAN  04224 MISM1 46/// /2816 11043 21149 40135 51004 92200 333 91218 555 11015 22016 32127 428020 62159 288015 280016 285015 278015 28004 022149 068074 070069 066073 064074 064077 070076;
0017994370999992012010423004+43783-068867FM-12+0027MISM1V0202701N007719999999N9999999N1-00401-01521101391ADDMD1310051+9999
0017994370999992012010500004+43783-068867FM-12+0027MISM1V0202601N004619999999N9999999N1-00381-01641101381ADDMD1210041+9999
0183994370999992012010501004+43783-068867FM-12+0027MISM1V0202601N006219999999N9999999N1-00341-01561101331ADDMD1010001+9999OA139900671REMSYN146CMAN  05014 MISM1 46/// /2612 11034 21156 40133 50000 90100 333 91213 555 11011 22011 30025 427015 60059 261009 260009 257009 265011 27013 357010;
0183994370999992012010502004+43783-068867FM-12+0027MISM1V0202101N006719999999N9999999N1-00221-00931101251ADDMD1810141+9999OA139900821REMSYN146CMAN  05024 MISM1 46/// /2113 11022 21093 40125 58014 90200 333 91216 555 11012 22013 30158 422016 60159 214010 199009 213008 221007 23011 001010;
0177994370999992012010503004+43783-068867FM-12+0027MISM1V0202401N009319999999N9999999N1-00141-00851101141ADDMD1810241+9999OA139901131REMSYN140CMAN  05034 MISM1 46/// /2418 11014 21085 40114 58024 90300 333 91222 555 11017 22018 30255 423024 60259 235019 234017 226016 220014 229019;
0183994370999992012010504004+43783-068867FM-12+0027MISM1V0202501N009819999999N9999999N1-00101-00841101101ADDMD1610231+9999OA139901131REMSYN146CMAN  05044 MISM1 46/// /2519 11010 21084 40110 56023 90400 333 91222 555 11018 22019 30339 424025 60359 250019 246020 243020 245018 23018 330011;
0183994370999992012010505004+43783-068867FM-12+0027MISM1V0202501N011319999999N9999999N1-00031-00761101061ADDMD1610191+9999OA139901241REMSYN146CMAN  05054 MISM1 46/// /2522 11003 21076 40106 56019 90500 333 91224 555 11020 22021 30445 425027 60459 243021 247021 241020 242019 23014 010011;
0183994370999992012010506004+43783-068867FM-12+0027MISM1V0202501N010319999999N9999999N1-00031-00711101021ADDMD1710121+9999OA139901181REMSYN146CMAN  05064 MISM1 46/// /2520 11003 21071 40102 57012 90600 333 91223 555 11018 22019 30533 425028 60559 250021 250022 250022 246023 24014 010010;
0177994370999992012010507004+43783-068867FM-12+0027MISM1V0202401N008219999999N9999999N1-00091-00851100961ADDMD1810141+9999OA139900981REMSYN140CMAN  05074 MISM1 46/// /2416 11009 21085 40096 58014 90700 333 91219 555 11015 22016 30628 426024 60659 243016 237017 243017 254018 255022;
0017994370999992012010508004+43783-068867FM-12+0027MISM1V0202501N008219999999N9999999N1-00081-00861100901ADDMD1810161+9999
0017994370999992012010509004+43783-068867FM-12+0027MISM1V0202601N006719999999N9999999N1-00081-00791100851ADDMD1610171+9999
0183994370999992012010510004+43783-068867FM-12+0027MISM1V0202501N007719999999N9999999N1-00071-00691100831ADDMD1610131+9999OA139900821REMSYN146CMAN  05104 MISM1 46/// /2515 11007 21069 40083 56013 91000 333 91216 555 11014 22014 30900 427020 60959 249014 255014 248014 251014 24014 322011;
0231994370999992012010511004+43783-068867FM-12+0027MISM1V0202401N006719999999N9999999N1-00101-00721100801ADDMD1610101+9999OA139900771REMSYN194CMAN  05114 MISM1 46/// /2413 11010 21072 40080 56010 91100 333 91215 555 11012 22013 31006 425017 61059 250012 253012 245012 247011 25014 320610 61049 246069 250071 249074 252076 257074 263073;
0180994370999992012010512004+43783-068867FM-12+0027MISM1V0202601N006219999999N9999999N1-00111-00701100771ADDMD1810081+9999OA139900721REMSYN143CMAN  05124 MISM1 46/// /2612 11011 21070 40077 58008 91200 333 91214 555 11011 22012 31131 425019 61159 255013 249014 249014 255013 25015 01/;
0183994370999992012010513004+43783-068867FM-12+0027MISM1V0202501N007719999999N9999999N1-00061-00641100751ADDMD1610081+9999OA139900821REMSYN146CMAN  05134 MISM1 46/// /2515 11006 21064 40075 56008 91300 333 91216 555 11014 22014 31209 425017 61259 257013 256012 260012 260013 26014 026011;
0017994370999992012010514004+43783-068867FM-12+0027MISM1V0202501N006719999999N9999999N1-00011-00521100781ADDMD1510001+9999
0183994370999992012010515004+43783-068867FM-12+0027MISM1V0202501N008719999999N9999999N1+00001-00391100751ADDMD1010001+9999OA139900981REMSYN146CMAN  05154 MISM1 46/// /2517 10000 21039 40075 50000 91500 333 91219 555 11016 22017 31442 425021 61459 245017 247017 240016 240015 24009 017013;
0183994370999992012010516004+43783-068867FM-12+0027MISM1V0202501N008719999999N9999999N1+00031-00331100611ADDMD1810141+9999OA139900931REMSYN146CMAN  05164 MISM1 46/// /2517 10003 21033 40061 58014 91600 333 91218 555 11016 22017 31521 425023 61559 246017 243017 240017 243018 24009 357010;
0183994370999992012010517004+43783-068867FM-12+0027MISM1V0202501N010819999999N9999999N1+00061-00281100481ADDMD1810301+9999OA139901181REMSYN146CMAN  05174 MISM1 46/// /2521 10006 21028 40048 58030 91700 333 91223 555 11019 22021 31657 425026 61659 250021 249022 247020 248019 24015 324004;
0181994370999992012010518004+43783-068867FM-12+0027MISM1V0202501N011819999999N9999999N1+00101-00221100381ADDMD1610371+9999OA139901291REMSYN144CMAN  05184 MISM1 46/// /2523 10010 21022 40038 56037 91800 333 91225 555 11021 22022 31707 425026 61759 250022 246021 247020 250019 24010 34//;
0017994370999992012010519004+43783-068867FM-12+0027MISM1V0202401N009819999999N9999999N1+00121-00211100421ADDMD1510191+9999
0183994370999992012010520004+43783-068867FM-12+0027MISM1V0202801N008219999999N9999999N1+00071-00301100471ADDMD1510001+9999OA139900931REMSYN146CMAN  05204 MISM1 46/// /2816 10007 21030 40047 55000 92000 333 91218 555 11015 22016 31919 425025 61959 270018 267019 266021 261021 25006 311004;
0183994370999992012010521004+43783-068867FM-12+0027MISM1V0202901N008219999999N9999999N1+00011-00521100571ADDMD1310191+9999OA139900981REMSYN146CMAN  05214 MISM1 46/// /2916 10001 21052 40057 53019 92100 333 91219 555 11015 22016 32016 429023 62059 289017 292019 286017 290018 28008 316003;
0017994370999992012010522004+43783-068867FM-12+0027MISM1V0202901N008219999999N9999999N1+00011-00601100651ADDMD1310231+9999
0183994370999992012010523004+43783-068867FM-12+0027MISM1V0203001N011819999999N9999999N1+00051-00671100711ADDMD1110241+9999OA139901291REMSYN146CMAN  05234 MISM1 46/// /3023 10005 21067 40071 51024 92300 333 91225 555 11021 22022 32259 430025 62259 296021 292018 293017 295015 29007 319006;
0183994370999992012010600004+43783-068867FM-12+0027MISM1V0203101N011819999999N9999999N1-00021-00711100811ADDMD1310241+9999OA139901341REMSYN146CMAN  06004 MISM1 46/// /3123 11002 21071 40081 53024 90000 333 91226 555 11022 22023 32335 430028 62359 316023 317023 306024 305024 30011 324006;
0017994370999992012010601004+43783-068867FM-12+0027MISM1V0203101N011319999999N9999999N1-00111-00971100931ADDMD1310281+9999
0017994370999992012010602004+43783-068867FM-12+0027MISM1V0203201N011319999999N9999999N1-00191-00891100961ADDMD1110251+9999
0183994370999992012010603004+43783-068867FM-12+0027MISM1V0203001N013919999999N9999999N1-00201-01031101001ADDMD1110191+9999OA139901541REMSYN146CMAN  06034 MISM1 46/// /3027 11020 21103 40100 51019 90300 333 91230 555 11025 22027 30237 431031 60259 305027 305027 306027 307025 31005 009007;
0183994370999992012010604004+43783-068867FM-12+0027MISM1V0203201N009819999999N9999999N1-00261-01061101051ADDMD1310121+9999OA139901291REMSYN146CMAN  06044 MISM1 46/// /3219 11026 21106 40105 53012 90400 333 91225 555 11018 22019 30324 432031 60359 317021 320023 317026 316027 31009 019007;
0183994370999992012010605004+43783-068867FM-12+0027MISM1V0203101N010319999999N9999999N1-00311-01091101061ADDMD1110101+9999OA139901181REMSYN146CMAN  06054 MISM1 46/// /3120 11031 21109 40106 51010 90500 333 91223 555 11019 22020 30402 431028 60459 308020 312020 318021 310022 30007 026007;
0189994370999992012010606004+43783-068867FM-12+0027MISM1V0203101N011319999999N9999999N1-00341-01051101101ADDMD1110101+9999OA139901291REMSYN152CMAN  06064 MISM1 46/// /3122 11034 21105 40110 51010 90600 333 91225 555 11021 22022 30531 431027 60559 310022 313022 317022 311023 312035 92436 96010;
0183994370999992012010607004+43783-068867FM-12+0027MISM1V0203201N008719999999N9999999N1-00351-01031101181ADDMD1310131+9999OA139900981REMSYN146CMAN  06074 MISM1 46/// /3217 11035 21103 40118 53013 90700 333 91219 555 11016 22017 30605 431024 60659 318017 319016 317016 311017 31004 041009;
0177994370999992012010608004+43783-068867FM-12+0027MISM1V0203001N009819999999N9999999N1-00341-01071101221ADDMD1210161+9999OA139901081REMSYN140CMAN  06084 MISM1 46/// /3019 11034 21107 40122 52016 90800 333 91221 555 11017 22018 30743 431024 60759 308018 311018 309018 309017 300009;
0177994370999992012010609004+43783-068867FM-12+0027MISM1V0203101N009319999999N9999999N1-00341-01091101231ADDMD1110131+9999OA139901031REMSYN140CMAN  06094 MISM1 46/// /3118 11034 21109 40123 51013 90900 333 91220 555 11016 22017 30816 431022 60859 312017 316017 314017 313018 307006;
0017994370999992012010610004+43783-068867FM-12+0027MISM1V0203201N005719999999N9999999N1-00331-01051101231ADDMD1110051+9999
0017994370999992012010611004+43783-068867FM-12+0027MISM1V0202901N005119999999N9999999N1-00321-01061101341ADDMD1310121+9999
0183994370999992012010612004+43783-068867FM-12+0027MISM1V0203001N004119999999N9999999N1-00281-00991101381ADDMD1310151+9999OA139900511REMSYN146CMAN  06124 MISM1 46/// /3008 11028 21099 40138 53015 91200 333 91210 555 11007 22008 31108 429012 61159 295007 303007 288008 303009 28008 010002;
0177994370999992012010613004+43783-068867FM-12+0027MISM1V0203101N002619999999N9999999N1-00251-00971101391ADDMD1110161+9999OA139900311REMSYN140CMAN  06134 MISM1 46/// /3105 11025 21097 40139 51016 91300 333 91206 555 11005 22005 31205 430012 61259 312004 301003 313004 287003 288015;
0017994370999992012010614004+43783-068867FM-12+0027MISM1V0209999C000019999999N9999999N1-00281-00661101441ADDMD1310101+9999
0017994370999992012010615004+43783-068867FM-12+0027MISM1V0201101N002119999999N9999999N1-00231-00481101401ADDMD1010001+9999
0017994370999992012010616004+43783-068867FM-12+0027MISM1V0201101N004119999999N9999999N1-00221-00321101281ADDMD1810111+9999
0017994370999992012010617004+43783-068867FM-12+0027MISM1V0201301N006219999999N9999999N1-00101-00251101161ADDMD1810281+9999
0183994370999992012010618004+43783-068867FM-12+0027MISM1V0201301N007719999999N9999999N1-00031-00141101051ADDMD1610351+9999OA139900821REMSYN146CMAN  06184 MISM1 46/// /1315 11003 21014 40105 56035 91800 333 91216 555 11014 22014 31753 414017 61759 138014 144012 146012 147012 14005 332006;
0183994370999992012010619004+43783-068867FM-12+0027MISM1V0201601N006719999999N9999999N1+00041-00091101011ADDMD1610271+9999OA139900821REMSYN146CMAN  06194 MISM1 46/// /1613 10004 21009 40101 56027 91900 333 91216 555 11012 22013 31825 413019 61859 160012 142014 137015 128015 12006 326004;
0183994370999992012010620004+43783-068867FM-12+0027MISM1V0201501N010319999999N9999999N1+00101+00041100941ADDMD1610221+9999OA139901131REMSYN146CMAN  06204 MISM1 46/// /1520 10010 20004 40094 56022 92000 333 91222 555 11018 22019 31957 414022 61959 141019 141017 148016 142015 14004 310001;
0017994370999992012010621004+43783-068867FM-12+0027MISM1V0201401N011319999999N9999999N1+00211+00131100861ADDMD1810191+9999
0183994370999992012010622004+43783-068867FM-12+0027MISM1V0201601N011819999999N9999999N1+00381+00281100761ADDMD1810251+9999OA139901341REMSYN146CMAN  06224 MISM1 46/// /1623 10038 20028 40076 58025 92200 333 91226 555 11022 22023 32130 415028 62159 153024 148023 148024 143024 14005 004006;
0017994370999992012010623004+43783-068867FM-12+0027MISM1V0201701N012319999999N9999999N1+00541+00401100721ADDMD1610221+9999
0183994370999992012010700004+43783-068867FM-12+0027MISM1V0201901N010319999999N9999999N1+00611+00511100721ADDMD1610141+9999OA139901081REMSYN146CMAN  07004 MISM1 46/// /1920 10061 20051 40072 56014 90000 333 91221 555 11019 22020 32305 418027 62359 188021 188022 193022 189022 18007 119006;
0183994370999992012010701004+43783-068867FM-12+0027MISM1V0202001N006219999999N9999999N1+00661+00581100661ADDMD1810101+9999OA139900671REMSYN146CMAN  07014 MISM1 46/// /2012 10066 20058 40066 58010 90100 333 91213 555 11011 22012 30003 419021 60059 197013 199015 202013 195016 18005 354007;
0183994370999992012010702004+43783-068867FM-12+0027MISM1V0202501N005719999999N9999999N1+00671+00591100681ADDMD1710041+9999OA139900571REMSYN146CMAN  07024 MISM1 46/// /2511 10067 20059 40068 57004 90200 333 91211 555 11010 22011 30107 421013 60159 242010 238010 238010 232010 22006 013009;
0183994370999992012010703004+43783-068867FM-12+0027MISM1V0203001N003119999999N9999999N1+00451+00441100661ADDMD1610061+9999OA139900411REMSYN146CMAN  07034 MISM1 46/// /3006 10045 20044 40066 56006 90300 333 91208 555 11006 22006 30202 425013 60259 311007 302007 300007 297010 29004 076011;
0017994370999992012010704004+43783-068867FM-12+0027MISM1V0203301N004119999999N9999999N1+00331+00321100651ADDMD1410001+9999
0017994370999992012010705004+43783-068867FM-12+0027MISM1V0203501N003119999999N9999999N1+00311+00301100641ADDMD1710041+9999
0179994370999992012010706004+43783-068867FM-12+0027MISM1V0203501N001519999999N9999999N1+00261+00251100661ADDMD1410001+9999OA139900211REMSYN142CMAN  07064 MISM1 46/// /3503 10026 20025 40066 54000 90600 333 91204 555 11003 22003 30500 435007 60559 350003 333003 328003 334005 34003 13;
0183994370999992012010707004+43783-068867FM-12+0027MISM1V0203501N002119999999N9999999N1+00251+00251100721ADDMD1310071+9999OA139900211REMSYN146CMAN  07074 MISM1 46/// /3504 10025 20025 40072 53007 90700 333 91204 555 11004 22004 30625 435006 60659 351005 346005 344004 347005 34015 119015;
0183994370999992012010708004+43783-068867FM-12+0027MISM1V0200101N001519999999N9999999N1+00291+00281100681ADDMD1010041+9999OA139900151REMSYN146CMAN  07084 MISM1 46/// /0103 10029 20028 40068 50004 90800 333 91203 555 11002 22003 30700 434005 60759 018002 015002 012002 010003 34008 025015;
0183994370999992012010709004+43783-068867FM-12+0027MISM1V0200701N001019999999N9999999N1+00301+00291100701ADDMD1110041+9999OA139900151REMSYN146CMAN  07094 MISM1 46/// /0702 10030 20029 40070 51004 90900 333 91203 555 11002 22002 30856 402004 60859 038002 019003 033003 035002 02010 324012;
0231994370999992012010710004+43783-068867FM-12+0027MISM1V0200201N004119999999N9999999N1+00281+00271100661ADDMD1710061+9999OA139900461REMSYN194CMAN  07104 MISM1 46/// /0208 10028 20027 40066 57006 91000 333 91209 555 11007 22008 30957 402010 60959 018008 021007 021005 029005 04008 331604 60949 166026 171023 182021 168020 168023 169026;
0017994370999992012010711004+43783-068867FM-12+0027MISM1V0200801N003119999999N9999999N1+00261+00251100691ADDMD1510001+9999
0225994370999992012010712004+43783-068867FM-12+0027MISM1V0200701N002119999999N9999999N1+00361+00361100751ADDMD1310051+9999OA139900261REMSYN188CMAN  07124 MISM1 46/// /0704 10036 20036 40075 53005 91200 333 91205 555 11004 22004 31103 408008 61159 076005 073005 089006 085005 07009 031149 043037 050037 055042 046042 044042 046041;
0177994370999992012010713004+43783-068867FM-12+0027MISM1V0201201N004119999999N9999999N1+00511+00511100721ADDMD1010061+9999OA139900461REMSYN140CMAN  07134 MISM1 46/// /1208 10051 20051 40072 50006 91300 333 91209 555 11008 22008 31249 411010 61259 114008 107008 099006 081005 076013;
0182994370999992012010714004+43783-068867FM-12+0027MISM1V0201301N004119999999N9999999N1+00631+00621100731ADDMD1110041+9999OA139900411REMSYN145CMAN  07144 MISM1 46/// /1308 10063 20062 40073 51004 91400 333 91208 555 11007 22008 31332 412012 61359 124008 123007 129010 126010 11006 33036;
0177994370999992012010715004+43783-068867FM-12+0027MISM1V0201301N003119999999N9999999N1+00731+00721100691ADDMD1810061+9999OA139900311REMSYN140CMAN  07154 MISM1 46/// /1306 10073 20072 40069 58006 91500 333 91206 555 11005 22005 31417 413009 61459 130006 119006 117006 123007 127016;
0017994370999992012010716004+43783-068867FM-12+0027MISM1V0202801N001019999999N9999999N1+00701+00701100581ADDMD1810141+9999
0180994370999992012010717004+43783-068867FM-12+0027MISM1V0200101N005719999999N9999999N1+00471+00471100461ADDMD1810271+9999OA139900571REMSYN143CMAN  07174 MISM1 46/// /0111 10047 20047 40046 58027 91700 333 91211 555 11010 22011 31652 436014 61659 001012 328005 296004 281005 23004 00/;
0183994370999992012010718004+43783-068867FM-12+0027MISM1V0200301N003119999999N9999999N1+00531+00531100411ADDMD1610281+9999OA139900361REMSYN146CMAN  07184 MISM1 46/// /0306 10053 20053 40041 56028 91800 333 91207 555 11006 22006 31701 401011 61759 024006 027007 028007 024008 01003 000013;
0017994370999992012010719004+43783-068867FM-12+0027MISM1V0200201N003619999999N9999999N1+00501+00491100391ADDMD1610191+9999
0183994370999992012010720004+43783-068867FM-12+0027MISM1V0200601N001519999999N9999999N1+00581+00571100391ADDMD1610071+9999OA139900151REMSYN146CMAN  07204 MISM1 46/// /0603 10058 20057 40039 56007 92000 333 91203 555 11003 22003 31901 403008 61959 070003 054005 048005 046005 03001 008008;
0180994370999992012010721004+43783-068867FM-12+0027MISM1V0209999C000019999999N9999999N1+00551+00541100421ADDMD1510001+9999OA139900051REMSYN143CMAN  07214 MISM1 46/// /0000 10055 20054 40042 55000 92100 333 91201 555 11001 22001 32015 407004 62059 345000 352001 084002 081003 07003 00/;
0017994370999992012010722004+43783-068867FM-12+0027MISM1V0203001N005119999999N9999999N1+00501+00501100491ADDMD1310101+9999
0183994370999992012010723004+43783-068867FM-12+0027MISM1V0202901N005119999999N9999999N1+00401+00401100551ADDMD1310161+9999OA139900571REMSYN146CMAN  07234 MISM1 46/// /2910 10040 20040 40055 53016 92300 333 91211 555 11009 22010 32204 431012 62259 295010 297009 293011 302010 30005 058006;
0183994370999992012010800004+43783-068867FM-12+0027MISM1V0202901N006219999999N9999999N1+00421+00411100601ADDMD1110181+9999OA139900671REMSYN146CMAN  08004 MISM1 46/// /2912 10042 20041 40060 51018 90000 333 91213 555 11011 22012 32328 428014 62359 284011 284012 285012 284012 29006 055008;
0183994370999992012010801004+43783-068867FM-12+0027MISM1V0202701N006719999999N9999999N1+00411+00401100631ADDMD1110141+9999OA139900671REMSYN146CMAN  08014 MISM1 46/// /2713 10041 20040 40063 51014 90100 333 91213 555 11012 22013 30054 427014 60059 267013 268010 282010 282010 28002 117009;
0183994370999992012010802004+43783-068867FM-12+0027MISM1V0202801N006719999999N9999999N1+00451+00381100681ADDMD1210131+9999OA139900721REMSYN146CMAN  08024 MISM1 46/// /2813 10045 20038 40068 52013 90200 333 91214 555 11012 22013 30120 427017 60159 277013 275012 275013 274014 27004 111011;
0242994370999992012010803004+43783-068867FM-12+0027MISM1V0202701N005719999999N9999999N1+00471+00321100741ADDMD1310141+9999OA139900621REMSYN205CMAN  08034 MISM1 46/// /2711 10047 20032 40074 53014 90300 333 91212 555 11010 22011 30206 427015 60259 271011 275012 273012 273012 27003 09081 30214 40608 60249 235065 234067 233067 237067 239067 240069;
0225994370999992012010804004+43783-068867FM-12+0027MISM1V0202801N006719999999N9999999N1+00491+00291100811ADDMD1310181+9999OA139900671REMSYN188CMAN  08044 MISM1 46/// /2813 10049 20029 40081 53018 90400 333 91213 555 11012 22012 30300 426015 60359 277013 269012 264012 254013 26005 020349 288005 226003 112006 145012 123016 096020;
0017994370999992012010805004+43783-068867FM-12+0027MISM1V0202801N009819999999N9999999N1+00451+00151100841ADDMD1110161+9999
0225994370999992012010806004+43783-068867FM-12+0027MISM1V0203001N007219999999N9999999N1+00361+00171100911ADDMD1210171+9999OA139900771REMSYN188CMAN  08064 MISM1 46/// /3014 10036 20017 40091 52017 90600 333 91215 555 11013 22014 30501 428019 60559 294013 289013 290013 295012 280607 60549 051050 051049 054048 053047 050046 058044;
0183994370999992012010807004+43783-068867FM-12+0027MISM1V0202901N007719999999N9999999N1+00371+00201101011ADDMD1310201+9999OA139900821REMSYN146CMAN  08074 MISM1 46/// /2915 10037 20020 40101 53020 90700 333 91216 555 11014 22015 30641 429017 60659 290015 292014 288011 288010 29009 026014;
0017994370999992012010808004+43783-068867FM-12+0027MISM1V0203001N007719999999N9999999N1+00411+00231101081ADDMD1210241+9999
0225994370999992012010809004+43783-068867FM-12+0027MISM1V0203001N006719999999N9999999N1+00481+00281101151ADDMD1110241+9999OA139900721REMSYN188CMAN  08094 MISM1 46/// /3013 10048 20028 40115 51024 90900 333 91214 555 11012 22013 30821 430019 60859 297013 298015 299016 301016 29008 320849 206025 196029 202027 212025 209024 212027;
0183994370999992012010810004+43783-068867FM-12+0027MISM1V0202901N008219999999N9999999N1+00481+00141101231ADDMD1310221+9999OA139900931REMSYN146CMAN  08104 MISM1 46/// /2916 10048 20014 40123 53022 91000 333 91218 555 11015 22016 30957 428020 60959 285016 283014 281013 289012 29007 339012;
0225994370999992012010811004+43783-068867FM-12+0027MISM1V0202901N009819999999N9999999N1+00461+00141101321ADDMD1310241+9999OA139901031REMSYN188CMAN  08114 MISM1 46/// /2919 10046 20014 40132 53024 91100 333 91220 555 11017 22018 31027 429022 61059 292018 287019 287019 287018 280808 61049 067054 068057 070053 066057 076060 070059;
0180994370999992012010812004+43783-068867FM-12+0027MISM1V0203001N010819999999N9999999N1+00511+00041101391ADDMD1110241+9999OA139901181REMSYN143CMAN  08124 MISM1 46/// /3021 10051 20004 40139 51024 91200 333 91223 555 11019 22021 31159 430023 61159 299020 300020 301020 297019 29007 04/;
0183994370999992012010813004+43783-068867FM-12+0027MISM1V0203101N012319999999N9999999N1+00391-00151101521ADDMD1310291+9999OA139901391REMSYN146CMAN  08134 MISM1 46/// /3124 10039 21015 40152 53029 91300 333 91227 555 11022 22024 31255 431029 61259 313024 312024 316023 315022 31008 049011;
0017994370999992012010814004+43783-068867FM-12+0027MISM1V0203101N012319999999N9999999N1+00351-00241101631ADDMD1310311+9999
0183994370999992012010815004+43783-068867FM-12+0027MISM1V0203101N011819999999N9999999N1+00351-00241101731ADDMD1110341+9999OA139901291REMSYN146CMAN  08154 MISM1 46/// /3123 10035 21024 40173 51034 91500 333 91225 555 11022 22023 31436 431032 61459 313024 312026 311027 314028 31012 074010;
0183994370999992012010816004+43783-068867FM-12+0027MISM1V0203301N008219999999N9999999N1+00341-00311101691ADDMD1010171+9999OA139900881REMSYN146CMAN  08164 MISM1 46/// /3316 10034 21031 40169 50017 91600 333 91217 555 11015 22016 31510 431026 61559 322019 318020 320021 320022 31007 018011;
0183994370999992012010817004+43783-068867FM-12+0027MISM1V0203201N009319999999N9999999N1+00361-00461101681ADDMD1110051+9999OA139901131REMSYN146CMAN  08174 MISM1 46/// /3218 10036 21046 40168 51005 91700 333 91222 555 11017 22018 31633 432025 61659 314020 322020 318021 320019 32011 081011;
0183994370999992012010818004+43783-068867FM-12+0027MISM1V0203101N008719999999N9999999N1+00351-00561101731ADDMD1510001+9999OA139900981REMSYN146CMAN  08184 MISM1 46/// /3117 10035 21056 40173 55000 91800 333 91219 555 11016 22017 31700 431022 61759 310017 317016 314017 316018 31006 020010;
0183994370999992012010819004+43783-068867FM-12+0027MISM1V0203101N007719999999N9999999N1+00341-00561101781ADDMD1310091+9999OA139900821REMSYN146CMAN  08194 MISM1 46/// /3115 10034 21056 40178 53009 91900 333 91216 555 11014 22015 31854 431020 61859 309016 310016 314016 308016 30006 018011;
0225994370999992012010820004+43783-068867FM-12+0027MISM1V0203001N006719999999N9999999N1+00331-00501101811ADDMD1110131+9999OA139900721REMSYN188CMAN  08204 MISM1 46/// /3013 10033 21050 40181 51013 92000 333 91214 555 11012 22013 31901 432018 61959 311012 316012 315013 317014 30006 011949 095048 101049 100047 091048 075044 078042;
0225994370999992012010821004+43783-068867FM-12+0027MISM1V0203201N005719999999N9999999N1+00311-00571101881ADDMD1310151+9999OA139900671REMSYN188CMAN  08214 MISM1 46/// /3211 10031 21057 40188 53015 92100 333 91213 555 11011 22011 32001 431015 62059 316012 319012 309012 317012 32004 052049 168049 170043 174035 178028 174026 175023;
0183994370999992012010822004+43783-068867FM-12+0027MISM1V0203301N006719999999N9999999N1+00291-00511101971ADDMD1310191+9999OA139900721REMSYN146CMAN  08224 MISM1 46/// /3313 10029 21051 40197 53019 92200 333 91214 555 11012 22013 32145 432018 62159 324014 323015 315013 312012 31001 041008;
0017994370999992012010823004+43783-068867FM-12+0027MISM1V0203201N009819999999N9999999N1+00211-00661102051ADDMD1310241+9999
0212994370999992012010900004+43783-068867FM-12+0027MISM1V0203201N010819999999N9999999N1+00141-00591102111ADDMD1110231+9999OA139901131REMSYN175CMAN  09004 MISM1 46/// /3221 10014 21059 40211 51023 90000 333 91222 555 11019 22021 32357 432024 62359 316020 318019 314018 311018 31006 05 8//// 8//// 8//// 9//// 9//// 9/;
0183994370999992012010901004+43783-068867FM-12+0027MISM1V0203201N009319999999N9999999N1+00091-00521102161ADDMD1110191+9999OA139900981REMSYN146CMAN  09014 MISM1 46/// /3218 10009 21052 40216 51019 90100 333 91219 555 11017 22018 30002 432022 60059 325017 330018 324019 323020 32007 044012;
0183994370999992012010902004+43783-068867FM-12+0027MISM1V0203401N007719999999N9999999N1+00041-00551102191ADDMD1110141+9999OA139900881REMSYN146CMAN  09024 MISM1 46/// /3415 10004 21055 40219 51014 90200 333 91217 555 11014 22015 30144 434020 60159 339015 338017 335017 337015 33008 045013;
0183994370999992012010903004+43783-068867FM-12+0027MISM1V0203401N006219999999N9999999N1+00001-00581102241ADDMD1210131+9999OA139900671REMSYN146CMAN  09034 MISM1 46/// /3412 10000 21058 40224 52013 90300 333 91213 555 11012 22012 30216 433017 60259 335013 335013 334013 341013 32008 035014;
0183994370999992012010904004+43783-068867FM-12+0027MISM1V0203201N006719999999N9999999N1-00051-00641102241ADDMD1110081+9999OA139900721REMSYN146CMAN  09044 MISM1 46/// /3213 11005 21064 40224 51008 90400 333 91214 555 11012 22012 30329 432017 60359 316012 318012 325013 323013 31013 073013;
0183994370999992012010905004+43783-068867FM-12+0027MISM1V0203301N008219999999N9999999N1-00081-00671102271ADDMD1110081+9999OA139900931REMSYN146CMAN  09054 MISM1 46/// /3316 11008 21067 40227 51008 90500 333 91218 555 11015 22016 30451 431021 60459 315017 310015 313013 311013 31009 043014;
0183994370999992012010906004+43783-068867FM-12+0027MISM1V0203201N007719999999N9999999N1-00151-00731102281ADDMD1210041+9999OA139900881REMSYN146CMAN  09064 MISM1 46/// /3215 11015 21073 40228 52004 90600 333 91217 555 11014 22015 30508 432020 60559 320015 322016 322015 330015 33010 041017;
0177994370999992012010907004+43783-068867FM-12+0027MISM1V0203301N009819999999N9999999N1-00181-00751102311ADDMD1210071+9999OA139901081REMSYN140CMAN  09074 MISM1 46/// /3319 11018 21075 40231 52007 90700 333 91221 555 11018 22019 30659 433021 60659 333017 325016 327014 331013 32////;
0017994370999992012010908004+43783-068867FM-12+0027MISM1V0203401N006219999999N9999999N1-00251-00811102351ADDMD1310081+9999
0017994370999992012010909004+43783-068867FM-12+0027MISM1V0203301N008219999999N9999999N1-00311-00951102341ADDMD1110061+9999
0183994370999992012010910004+43783-068867FM-12+0027MISM1V0203301N007719999999N9999999N1-00331-01081102421ADDMD1310111+9999OA139900881REMSYN146CMAN  09104 MISM1 46/// /3315 11033 21108 40242 53011 91000 333 91217 555 11014 22015 30909 433022 60959 334015 330016 332016 329017 32011 101014;
0183994370999992012010911004+43783-068867FM-12+0027MISM1V0203301N005719999999N9999999N1-00381-01001102411ADDMD1210061+9999OA139900671REMSYN146CMAN  09114 MISM1 46/// /3311 11038 21100 40241 52006 91100 333 91213 555 11010 22010 31014 432019 61059 330012 331013 326013 321014 32011 110018;
0183994370999992012010912004+43783-068867FM-12+0027MISM1V0203301N005719999999N9999999N1-00381-00901102431ADDMD1110091+9999OA139900671REMSYN146CMAN  09124 MISM1 46/// /3311 11038 21090 40243 51009 91200 333 91213 555 11011 22011 31153 432015 61159 320012 319012 342010 346010 34015 090013;
0177994370999992012010913004+43783-068867FM-12+0027MISM1V0203301N004619999999N9999999N1-00371-00901102471ADDMD1310051+9999OA139900571REMSYN140CMAN  09134 MISM1 46/// /3309 11037 21090 40247 53005 91300 333 91211 555 11009 22009 31206 433014 61259 330008 329008 322007 334008 327010;
0183994370999992012010914004+43783-068867FM-12+0027MISM1V0203501N002119999999N9999999N1-00331-01051102461ADDMD1210051+9999OA139900311REMSYN146CMAN  09144 MISM1 46/// /3504 11033 21105 40246 52005 91400 333 91206 555 11003 22004 31301 435013 61359 327004 307005 320005 323007 32013 115015;
0183994370999992012010915004+43783-068867FM-12+0027MISM1V0202901N004119999999N9999999N1-00321-01141102441ADDMD1010001+9999OA139900461REMSYN146CMAN  09154 MISM1 46/// /2908 11032 21114 40244 50000 91500 333 91209 555 11007 22008 31459 429009 61459 289006 304005 330004 296005 32013 105015;
0183994370999992012010916004+43783-068867FM-12+0027MISM1V0202801N005719999999N9999999N1-00281-00961102381ADDMD1810091+9999OA139900621REMSYN146CMAN  09164 MISM1 46/// /2811 11028 21096 40238 58009 91600 333 91212 555 11010 22010 31558 429012 61559 287009 291009 289009 286009 29014 102016;
0017994370999992012010917004+43783-068867FM-12+0027MISM1V0202601N004119999999N9999999N1-00231-00881102251ADDMD1810211+9999
0189994370999992012010918004+43783-068867FM-12+0027MISM1V0202501N004619999999N9999999N1-00161-00981102151ADDMD1810291+9999OA139900571REMSYN152CMAN  09184 MISM1 46/// /2509 11016 21098 40215 58029 91800 333 91211 555 11008 22009 31750 424011 61759 244008 242007 242007 246008 24014 100015 80022;
0231994370999992012010919004+43783-068867FM-12+0027MISM1V0202401N003119999999N9999999N1-00111-00901102091ADDMD1610291+9999OA139900361REMSYN194CMAN  09194 MISM1 46/// /2406 11011 21090 40209 56029 91900 333 91207 555 11006 22006 31837 422010 61859 242006 231007 218007 225007 24011 101607 61849 152046 155051 151052 148046 155036 151041;
0231994370999992012010920004+43783-068867FM-12+0027MISM1V0202201N004619999999N9999999N1-00081-00921102061ADDMD1610191+9999OA139900571REMSYN194CMAN  09204 MISM1 46/// /2209 11008 21092 40206 56019 92000 333 91211 555 11009 22009 31942 424013 61959 221009 227009 240008 231008 23011 111608 61949 343059 340060 335063 340062 336063 335065;
0183994370999992012010921004+43783-068867FM-12+0027MISM1V0202101N006219999999N9999999N1+00001-00691102001ADDMD1710151+9999OA139900771REMSYN146CMAN  09214 MISM1 46/// /2112 10000 21069 40200 57015 92100 333 91215 555 11011 22012 32056 421017 62059 211012 212011 212010 207010 19010 091013;
0183994370999992012010922004+43783-068867FM-12+0027MISM1V0202201N007719999999N9999999N1+00071-00431101951ADDMD1810141+9999OA139900881REMSYN146CMAN  09224 MISM1 46/// /2215 10007 21043 40195 58014 92200 333 91217 555 11014 22014 32151 421020 62159 212015 213015 213015 200014 21008 092017;
0183994370999992012010923004+43783-068867FM-12+0027MISM1V0202101N008219999999N9999999N1+00171-00521101901ADDMD1610161+9999OA139900931REMSYN146CMAN  09234 MISM1 46/// /2116 10017 21052 40190 56016 92300 333 91218 555 11015 22016 32228 421027 62259 220017 217018 212018 211017 21007 092020;
0017994370999992012011000004+43783-068867FM-12+0027MISM1V0202201N009819999999N9999999N1+00231-00501101871ADDMD1610131+9999
0017994370999992012011001004+43783-068867FM-12+0027MISM1V0202301N010319999999N9999999N1+00281-00331101781ADDMD1810171+9999
0180994370999992012011002004+43783-068867FM-12+0027MISM1V0202401N009819999999N9999999N1+00331-00401101711ADDMD1810191+9999OA139901081REMSYN143CMAN  10024 MISM1 46/// /2419 10033 21040 40171 58019 90200 333 91221 555 11018 22019 30111 422027 60159 237020 237020 239020 230021 22005 05/;
0017994370999992012011003004+43783-068867FM-12+0027MISM1V0202401N009819999999N9999999N1+00411-00331101631ADDMD1610241+9999
0017994370999992012011004004+43783-068867FM-12+0027MISM1V0202301N011819999999N9999999N1+00441-00471101511ADDMD1810271+9999
0183994370999992012011005004+43783-068867FM-12+0027MISM1V0202401N009319999999N9999999N1+00471-00541101391ADDMD1810321+9999OA139901081REMSYN146CMAN  10054 MISM1 46/// /2418 10047 21054 40139 58032 90500 333 91221 555 11017 22018 30401 424027 60459 239019 242019 245019 245019 24005 105015;
0017994370999992012011006004+43783-068867FM-12+0027MISM1V0202401N010819999999N9999999N1+00451-00241101311ADDMD1610321+9999
0017994370999992012011007004+43783-068867FM-12+0027MISM1V0202301N010819999999N9999999N1+00461-00281101261ADDMD1610251+9999
0017994370999992012011008004+43783-068867FM-12+0027MISM1V0202301N012319999999N9999999N1+00461-00511101181ADDMD1710211+9999
0183994370999992012011009004+43783-068867FM-12+0027MISM1V0202301N013419999999N9999999N1+00451-00151101091ADDMD1810221+9999OA139901491REMSYN146CMAN  10094 MISM1 46/// /2326 10045 21015 40109 58022 90900 333 91229 555 11024 22026 30859 423029 60859 228024 232024 232024 235023 23011 108202;
0225994370999992012011010004+43783-068867FM-12+0027MISM1V0202201N012919999999N9999999N1+00461-00011101041ADDMD1610221+9999OA139901391REMSYN188CMAN  10104 MISM1 46/// /2225 10046 21001 40104 56022 91000 333 91227 555 11023 22025 30907 423029 60959 228024 225024 226024 228024 22003 040949 060051 059048 057051 057050 060048 057053;
0183994370999992012011011004+43783-068867FM-12+0027MISM1V0202301N011319999999N9999999N1+00461+00001100961ADDMD1610221+9999OA139901291REMSYN146CMAN  10114 MISM1 46/// /2322 10046 20000 40096 56022 91100 333 91225 555 11021 22022 31000 422028 61059 227024 228024 226024 226023 22004 032015;
0017994370999992012011012004+43783-068867FM-12+0027MISM1V0202201N010819999999N9999999N1+00491-00101100881ADDMD1810211+9999
0183994370999992012011013004+43783-068867FM-12+0027MISM1V0202201N013919999999N9999999N1+00341+00221100851ADDMD1610191+9999OA139901541REMSYN146CMAN  10134 MISM1 46/// /2227 10034 20022 40085 56019 91300 333 91230 555 11025 22027 31257 422033 61259 221026 232024 237026 238019 22011 119010;
0017994370999992012011014004+43783-068867FM-12+0027MISM1V0202201N013419999999N9999999N1+00391+00161100841ADDMD1610121+9999
0178994370999992012011015004+43783-068867FM-12+0027MISM1V0202201N014419999999N9999999N1+00391+00131100811ADDMD1710071+9999OA139901651REMSYN141CMAN  10154 MISM1 46/// /2228 10039 20013 40081 57007 91500 333 91232 555 11026 22028 31443 422034 61459 216028 215030 218029 231026 220/0//;
0017994370999992012011016004+43783-068867FM-12+0027MISM1V0202201N013419999999N9999999N1+00401+00271100671ADDMD1810181+9999
0183994370999992012011017004+43783-068867FM-12+0027MISM1V0202501N011319999999N9999999N1+00431+00131100561ADDMD1810281+9999OA139901291REMSYN146CMAN  10174 MISM1 46/// /2522 10043 20013 40056 58028 91700 333 91225 555 11021 22022 31600 422030 61659 242022 241024 238024 237025 23004 017020;
0183994370999992012011018004+43783-068867FM-12+0027MISM1V0202501N011319999999N9999999N1+00431+00081100491ADDMD1610321+9999OA139901241REMSYN146CMAN  10184 MISM1 46/// /2522 10043 20008 40049 56032 91800 333 91224 555 11021 22022 31735 425027 61759 254023 252023 250023 247022 24006 062024;
0183994370999992012011019004+43783-068867FM-12+0027MISM1V0202701N011819999999N9999999N1+00431+00011100471ADDMD1610201+9999OA139901291REMSYN146CMAN  10194 MISM1 46/// /2723 10043 20001 40047 56020 91900 333 91225 555 11021 22023 31806 426028 61859 262022 257022 259021 258022 26004 285022;
0177994370999992012011020004+43783-068867FM-12+0027MISM1V0202701N009819999999N9999999N1+00421-00051100501ADDMD1510061+9999OA139901131REMSYN140CMAN  10204 MISM1 46/// /2719 10042 21005 40050 55006 92000 333 91222 555 11018 22019 31910 426026 61959 271019 270021 261020 261020 266015;
0183994370999992012011021004+43783-068867FM-12+0027MISM1V0202701N007719999999N9999999N1+00421-00091100541ADDMD1310051+9999OA139900821REMSYN146CMAN  10214 MISM1 46/// /2715 10042 21009 40054 53005 92100 333 91216 555 11014 22015 32000 426022 62059 273016 275016 277017 276016 27012 114031;
0017994370999992012011022004+43783-068867FM-12+0027MISM1V0202801N009319999999N9999999N1+00411-00121100641ADDMD1310171+9999
0183994370999992012011023004+43783-068867FM-12+0027MISM1V0202901N010319999999N9999999N1+00431-00191100741ADDMD1310241+9999OA139901081REMSYN146CMAN  10234 MISM1 46/// /2920 10043 21019 40074 53024 92300 333 91221 555 11018 22020 32226 428025 62259 290020 290020 282020 280021 28007 108020;
0017994370999992012011100004+43783-068867FM-12+0027MISM1V0202801N013419999999N9999999N1+00471-00151100791ADDMD1110251+9999
0177994370999992012011101004+43783-068867FM-12+0027MISM1V0202801N011819999999N9999999N1+00451-00251100801ADDMD1110161+9999OA139901291REMSYN140CMAN  11014 MISM1 46/// /2823 10045 21025 40080 51016 90100 333 91225 555 11021 22022 30012 428029 60059 278022 277021 277023 280024 283018;
0225994370999992012011102004+43783-068867FM-12+0027MISM1V0202901N012319999999N9999999N1+00431-00291100901ADDMD1310161+9999OA139901391REMSYN188CMAN  11024 MISM1 46/// /2924 10043 21029 40090 53016 90200 333 91227 555 11022 22024 30123 428030 60159 287025 284026 281026 280026 280907 60149 086048 093046 083048 091043 083038 086027;
0017994370999992012011103004+43783-068867FM-12+0027MISM1V0203001N013919999999N9999999N1+00331-00341100931ADDMD1310141+9999
0183994370999992012011104004+43783-068867FM-12+0027MISM1V0203201N013919999999N9999999N1+00181-00571101031ADDMD1210231+9999OA139901601REMSYN146CMAN  11044 MISM1 46/// /3227 10018 21057 40103 52023 90400 333 91231 555 11025 22027 30320 431033 60359 311027 310027 309027 306028 30008 124020;
0017994370999992012011105004+43783-068867FM-12+0027MISM1V0203301N013419999999N9999999N1+00081-00601101101ADDMD1310201+9999
0183994370999992012011106004+43783-068867FM-12+0027MISM1V0203201N011819999999N9999999N1-00021-00801101221ADDMD1310291+9999OA139901291REMSYN146CMAN  11064 MISM1 46/// /3223 11002 21080 40122 53029 90600 333 91225 555 11021 22022 30526 432031 60559 322022 319022 315025 314025 32006 138025;
0183994370999992012011107004+43783-068867FM-12+0027MISM1V0203301N008719999999N9999999N1-00121-00851101401ADDMD1310371+9999OA139901031REMSYN146CMAN  11074 MISM1 46/// /3317 11012 21085 40140 53037 90700 333 91220 555 11016 22017 30637 432026 60659 324019 311022 316022 328021 32008 155027;
0231994370999992012011108004+43783-068867FM-12+0027MISM1V0203401N010819999999N9999999N1-00241-00861101461ADDMD1110361+9999OA139901291REMSYN194CMAN  11084 MISM1 46/// /3421 11024 21086 40146 51036 90800 333 91225 555 11019 22020 30730 434026 60759 334021 330022 332022 330021 320711 41805 60749 184028 187028 176031 180031 180032 180030;
0183994370999992012011109004+43783-068867FM-12+0027MISM1V0203301N011819999999N9999999N1-00331-00911101521ADDMD1110301+9999OA139901341REMSYN146CMAN  11094 MISM1 46/// /3323 11033 21091 40152 51030 90900 333 91226 555 11021 22023 30859 433026 60859 333021 334019 334018 345017 34013 152029;
0017994370999992012011110004+43783-068867FM-12+0027MISM1V0203401N011319999999N9999999N1-00421-00981101621ADDMD1310221+9999
0225994370999992012011111004+43783-068867FM-12+0027MISM1V0203501N010819999999N9999999N1-00501-01001101701ADDMD1310241+9999OA139901291REMSYN188CMAN  11114 MISM1 46/// /3521 11050 21100 40170 53024 91100 333 91225 555 11019 22021 31023 434027 61059 354019 355020 346020 346021 34011 151049 067050 069056 069055 067056 065059 065059;
0183994370999992012011112004+43783-068867FM-12+0027MISM1V0203601N009819999999N9999999N1-00571-01051101791ADDMD1110271+9999OA139901131REMSYN146CMAN  11124 MISM1 46/// /3619 11057 21105 40179 51027 91200 333 91222 555 11018 22019 31115 435025 61159 355019 358019 355020 354021 35009 150020;
0017994370999992012011113004+43783-068867FM-12+0027MISM1V0200101N012319999999N9999999N1-00581-01121101891ADDMD1310271+9999
0017994370999992012011114004+43783-068867FM-12+0027MISM1V0203601N009319999999N9999999N1-00651-01141102011ADDMD1310311+9999
0180994370999992012011115004+43783-068867FM-12+0027MISM1V0203601N007719999999N9999999N1-00681-01161102071ADDMD1110281+9999OA139900931REMSYN143CMAN  11154 MISM1 46/// /3615 11068 21116 40207 51028 91500 333 91218 555 11014 22015 31404 436022 61459 004015 006015 009016 004016 00010 18/;
0183994370999992012011116004+43783-068867FM-12+0027MISM1V0200201N007719999999N9999999N1-00661-01091102021ADDMD1010131+9999OA139900931REMSYN146CMAN  11164 MISM1 46/// /0215 11066 21109 40202 50013 91600 333 91218 555 11014 22014 31533 401019 61559 008015 011013 011013 014014 00011 181024;
0017994370999992012011117004+43783-068867FM-12+0027MISM1V0200101N005719999999N9999999N1-00591-01321102041ADDMD1110031+9999
0017994370999992012011118004+43783-068867FM-12+0027MISM1V0203401N004119999999N9999999N1-00531-01221102121ADDMD1310051+9999
0017994370999992012011119004+43783-068867FM-12+0027MISM1V0200201N004619999999N9999999N1-00481-01251102021ADDMD1010001+9999
0017994370999992012011120004+43783-068867FM-12+0027MISM1V0200101N006719999999N9999999N1-00461-01331102141ADDMD1310101+9999
0183994370999992012011121004+43783-068867FM-12+0027MISM1V0200101N003619999999N9999999N1-00441-01361102221ADDMD1310101+9999OA139900461REMSYN146CMAN  11214 MISM1 46/// /0107 11044 21136 40222 53010 92100 333 91209 555 11006 22007 32007 402014 62059 010006 017007 013009 010008 01023 274024;
0183994370999992012011122004+43783-068867FM-12+0027MISM1V0200401N002619999999N9999999N1-00391-01271102271ADDMD1110251+9999OA139900311REMSYN146CMAN  11224 MISM1 46/// /0405 11039 21127 40227 51025 92200 333 91206 555 11005 22005 32110 402010 62159 041007 029006 033006 033005 02031 203022;
0183994370999992012011123004+43783-068867FM-12+0027MISM1V0200501N004119999999N9999999N1-00351-01291102221ADDMD1010081+9999OA139900571REMSYN146CMAN  11234 MISM1 46/// /0508 11035 21129 40222 50008 92300 333 91211 555 11007 22008 32254 404013 62259 045009 051008 039009 036007 03024 183020;
0179994370999992012011200004+43783-068867FM-12+0027MISM1V0200501N004619999999N9999999N1-00331-01221102221ADDMD1010001+9999OA139900671REMSYN142CMAN  12004 MISM1 46/// /0509 11033 21122 40222 50000 90000 333 91213 555 11009 22009 32308 406014 62359 053010 060011 048010 059011 06006 24;
0017994370999992012011201004+43783-068867FM-12+0027MISM1V0200801N004619999999N9999999N1-00271-01201102231ADDMD1610041+9999
0183994370999992012011202004+43783-068867FM-12+0027MISM1V0200901N005119999999N9999999N1-00231-01121102201ADDMD1010001+9999OA139900671REMSYN146CMAN  12024 MISM1 46/// /0910 11023 21112 40220 50000 90200 333 91213 555 11010 22010 30152 408015 60159 080011 065011 065009 080010 07018 192014;
0017994370999992012011203004+43783-068867FM-12+0027MISM1V0200901N006219999999N9999999N1-00171-00981102181ADDMD1710041+9999
0183994370999992012011204004+43783-068867FM-12+0027MISM1V0200801N004619999999N9999999N1-00151-00891102181ADDMD1610051+9999OA139900571REMSYN146CMAN  12044 MISM1 46/// /0809 11015 21089 40218 56005 90400 333 91211 555 11009 22009 30330 410015 60359 085010 093011 092010 099010 09016 258011;
0183994370999992012011205004+43783-068867FM-12+0027MISM1V0201001N004619999999N9999999N1-00111-00791102151ADDMD1810051+9999OA139900571REMSYN146CMAN  12054 MISM1 46/// /1009 11011 21079 40215 58005 90500 333 91211 555 11009 22009 30432 410015 60459 106010 103009 101012 098012 10019 231012;
0183994370999992012011206004+43783-068867FM-12+0027MISM1V0201201N004119999999N9999999N1-00071-00761102201ADDMD1510001+9999OA139900461REMSYN146CMAN  12064 MISM1 46/// /1208 11007 21076 40220 55000 90600 333 91209 555 11008 22008 30540 410016 60559 112011 107010 104011 105011 10015 240011;
0183994370999992012011207004+43783-068867FM-12+0027MISM1V0201001N007219999999N9999999N1-00031-00661102111ADDMD1810071+9999OA139900821REMSYN146CMAN  12074 MISM1 46/// /1014 11003 21066 40211 58007 90700 333 91216 555 11013 22014 30654 409017 60659 098014 093012 097012 100011 10020 284010;
0017994370999992012011208004+43783-068867FM-12+0027MISM1V0200901N007219999999N9999999N1+00001-00541102081ADDMD1810071+9999
0189994370999992012011209004+43783-068867FM-12+0027MISM1V0200901N008719999999N9999999N1+00031-00451101981ADDMD1810221+9999OA139901081REMSYN152CMAN  12094 MISM1 46/// /0917 10003 21045 40198 58022 90900 333 91221 555 11016 22017 30855 410023 60859 096019 096017 100017 097017 09016 33 555 30271;
0183994370999992012011210004+43783-068867FM-12+0027MISM1V0200901N011819999999N9999999N1+00101-00301101911ADDMD1810201+9999OA139901391REMSYN146CMAN  12104 MISM1 46/// /0923 10010 21030 40191 58020 91000 333 91227 555 11021 22023 30959 410027 60959 095022 094020 091020 095020 09008 312015;
0177994370999992012011211004+43783-068867FM-12+0027MISM1V0200901N013919999999N9999999N1+00141-00191101841ADDMD1610241+9999OA139901541REMSYN140CMAN  12114 MISM1 46/// /0927 10014 21019 40184 56024 91100 333 91230 555 11025 22026 31042 409031 61059 092026 095026 091025 096024 095031;
0183994370999992012011212004+43783-068867FM-12+0027MISM1V0200901N013919999999N9999999N1+00111-00231101781ADDMD1610201+9999OA139901601REMSYN146CMAN  12124 MISM1 46/// /0927 10011 21023 40178 56020 91200 333 91231 555 11025 22026 31155 410034 61159 096028 093029 096028 091028 09004 313020;
0183994370999992012011213004+43783-068867FM-12+0027MISM1V0200901N015419999999N9999999N1+00221-00101101691ADDMD1810221+9999OA139901701REMSYN146CMAN  12134 MISM1 46/// /0930 10022 21010 40169 58022 91300 333 91233 555 11028 22030 31257 409034 61259 093031 096029 092029 094029 08003 348021;
0183994370999992012011214004+43783-068867FM-12+0027MISM1V0201001N017519999999N9999999N1+00291-00031101521ADDMD1810321+9999OA139901901REMSYN146CMAN  12144 MISM1 46/// /1034 10029 21003 40152 58032 91400 333 91237 555 11032 22034 31358 409037 61359 092032 095031 094031 095031 09007 351023;
0183994370999992012011215004+43783-068867FM-12+0027MISM1V0201001N018019999999N9999999N1+00191+00171101441ADDMD1610341+9999OA139902011REMSYN146CMAN  12154 MISM1 46/// /1035 10019 20017 40144 56034 91500 333 91239 555 11032 22035 31457 410040 61459 098034 097034 104033 103035 09001 327024;
0017994370999992012011216004+43783-068867FM-12+0027MISM1V0200901N019019999999N9999999N1+00221+00221101191ADDMD1810501+9999
0017994370999992012011217004+43783-068867FM-12+0027MISM1V0200901N020019999999N9999999N1+00251+00251100901ADDMD1810621+9999
0017994370999992012011218004+43783-068867FM-12+0027MISM1V0200801N023619999999N9999999N1+00211+00211100571ADDMD1810871+9999
0183994370999992012011219004+43783-068867FM-12+0027MISM1V0200801N021619999999N9999999N1+00241+00241100471ADDMD1610721+9999OA139902571REMSYN146CMAN  12194 MISM1 46/// /0842 10024 20024 40047 56072 91900 333 91250 555 11039 22041 31840 408054 61859 081043 082044 084045 084045 08002 081026;
0017994370999992012011220004+43783-068867FM-12+0027MISM1V0200801N024219999999N9999999N1+00301+00301100281ADDMD1610621+9999
0017994370999992012011221004+43783-068867FM-12+0027MISM1V0200801N023119999999N9999999N1+00311+00311100161ADDMD1810411+9999
0183994370999992012011222004+43783-068867FM-12+0027MISM1V0200701N020019999999N9999999N1+00351+00351100121ADDMD1610351+9999OA139902521REMSYN146CMAN  12224 MISM1 46/// /0739 10035 20035 40012 56035 92200 333 91249 555 11036 22038 32129 408053 62159 071041 070043 074042 076043 07002 354023;
0183994370999992012011223004+43783-068867FM-12+0027MISM1V0200701N021619999999N9999999N1+00431+00431099981ADDMD1810301+9999OA139902471REMSYN146CMAN  12234 MISM1 46/// /0742 10043 20043 49998 58030 92300 333 91248 555 11039 22042 32201 407051 62259 072040 072038 071039 069042 07001 201018;
0183994370999992012011300004+43783-068867FM-12+0027MISM1V0200701N021119999999N9999999N1+00481+00481099831ADDMD1810331+9999OA139902521REMSYN146CMAN  13004 MISM1 46/// /0741 10048 20048 49983 58033 90000 333 91249 555 11038 22040 32352 408054 62359 075044 075043 074044 074042 07003 169021;
0017994370999992012011301004+43783-068867FM-12+0027MISM1V0200701N019519999999N9999999N1+00491+00491099741ADDMD1610381+9999
0183994370999992012011302004+43783-068867FM-12+0027MISM1V0200601N016419999999N9999999N1+00551+00551099611ADDMD1610371+9999OA139901901REMSYN146CMAN  13024 MISM1 46/// /0632 10055 20055 49961 56037 90200 333 91237 555 11030 22032 30112 407044 60159 060033 062033 064034 065036 06008 222019;
0178994370999992012011303004+43783-068867FM-12+0027MISM1V0200401N009319999999N9999999N1+00611+00611099591ADDMD1610241+9999OA139901081REMSYN141CMAN  13034 MISM1 46/// /0418 10061 20061 49959 56024 90300 333 91221 555 11017 22018 30207 406039 60259 038020 043023 048025 051027 05/////;
0183994370999992012011304004+43783-068867FM-12+0027MISM1V0200101N010819999999N9999999N1+00541+00541099561ADDMD1610181+9999OA139901391REMSYN146CMAN  13044 MISM1 46/// /0121 10054 20054 49956 56018 90400 333 91227 555 11020 22021 30359 401027 60359 011022 014021 021020 028019 03005 340023;
0183994370999992012011305004+43783-068867FM-12+0027MISM1V0203301N011819999999N9999999N1+00201+00201099711ADDMD1310101+9999OA139901291REMSYN146CMAN  13054 MISM1 46/// /3323 10020 20020 49971 53010 90500 333 91225 555 11021 22022 30423 436030 60459 333023 341025 346025 353025 00007 339019;
0183994370999992012011306004+43783-068867FM-12+0027MISM1V0203401N010819999999N9999999N1+00051+00051099841ADDMD1310251+9999OA139901131REMSYN146CMAN  13064 MISM1 46/// /3421 10005 20005 49984 53025 90600 333 91222 555 11019 22020 30512 432035 60559 331023 330025 330026 323027 32009 287018;
0183994370999992012011307004+43783-068867FM-12+0027MISM1V0203401N009319999999N9999999N1+00001+00001099921ADDMD1110361+9999OA139901031REMSYN146CMAN  13074 MISM1 46/// /3418 10000 20000 49992 51036 90700 333 91220 555 11017 22018 30619 433024 60659 338019 338019 338021 335022 33004 341022;
0180994370999992012011308004+43783-068867FM-12+0027MISM1V0203501N007219999999N9999999N1-00011-00011099981ADDMD1110271+9999OA139900771REMSYN143CMAN  13084 MISM1 46/// /3514 11001 21001 49998 51027 90800 333 91215 555 11013 22014 30703 434020 60759 346015 342014 342015 340016 34003 03/;
0183994370999992012011309004+43783-068867FM-12+0027MISM1V0203401N002119999999N9999999N1-00021-00031100011ADDMD1110171+9999OA139900311REMSYN146CMAN  13094 MISM1 46/// /3404 11002 21003 40001 51017 90900 333 91206 555 11004 22004 30800 435016 60859 346006 359009 354011 347011 35003 033023;
0183994370999992012011310004+43783-068867FM-12+0027MISM1V0209999C000019999999N9999999N1+00021+00011100041ADDMD1110121+9999OA139900051REMSYN146CMAN  13104 MISM1 46/// /0000 10002 20001 40004 51012 91000 333 91201 555 11001 22001 30916 433007 60959 343001 253001 295003 313003 32005 308035;
0177994370999992012011311004+43783-068867FM-12+0027MISM1V0202301N001019999999N9999999N1+00071+00071100041ADDMD1110061+9999OA139900151REMSYN140CMAN  13114 MISM1 46/// /2302 10007 20007 40004 51006 91100 333 91203 555 11002 22002 31008 419004 61059 235002 219003 334001 031001 097019;
0017994370999992012011312004+43783-068867FM-12+0027MISM1V0200301N002619999999N9999999N1+00111+00111099941ADDMD1810071+9999
0183994370999992012011313004+43783-068867FM-12+0027MISM1V0201001N005119999999N9999999N1+00221+00211099881ADDMD1810161+9999OA139900571REMSYN146CMAN  13134 MISM1 46/// /1010 10022 20021 49988 58016 91300 333 91211 555 11009 22010 31257 409011 61259 092009 089005 105004 052002 01004 004020;
0183994370999992012011314004+43783-068867FM-12+0027MISM1V0201201N006719999999N9999999N1+00411+00411099781ADDMD1710261+9999OA139900721REMSYN146CMAN  13144 MISM1 46/// /1213 10041 20041 49978 57026 91400 333 91214 555 11012 22013 31339 412016 61359 125013 133013 116012 108013 10003 009017;
0183994370999992012011315004+43783-068867FM-12+0027MISM1V0201201N009319999999N9999999N1+00521+00521099561ADDMD1810381+9999OA139901031REMSYN146CMAN  13154 MISM1 46/// /1218 10052 20052 49956 58038 91500 333 91220 555 11016 22017 31458 412020 61459 115016 121015 127016 118016 12014 006015;
0017994370999992012011316004+43783-068867FM-12+0027MISM1V0201101N009819999999N9999999N1+00621+00621099351ADDMD1810531+9999
0183994370999992012011317004+43783-068867FM-12+0027MISM1V0201301N015419999999N9999999N1+00771+00771098941ADDMD1810841+9999OA139901701REMSYN146CMAN  13174 MISM1 46/// /1330 10077 20077 49894 58084 91700 333 91233 555 11027 22029 31657 412033 61659 124029 117025 109021 108022 11010 357010;
0177994370999992012011318004+43783-068867FM-12+0027MISM1V0201501N014419999999N9999999N1+00921+00921098701ADDMD1810861+9999OA139901541REMSYN140CMAN  13184 MISM1 46/// /1528 10092 20092 49870 58086 91800 333 91230 555 11026 22027 31739 414035 61759 152028 147028 138028 129027 125039;
0017994370999992012011319004+43783-068867FM-12+0027MISM1V0201701N014919999999N9999999N1+00971+00961098521ADDMD1610831+9999
0017994370999992012011320004+43783-068867FM-12+0027MISM1V0202101N022119999999N9999999N1+00861+00461098491ADDMD1610451+9999
0017994370999992012011321004+43783-068867FM-12+0027MISM1V0202301N018019999999N9999999N1+00761+00361098601ADDMD1510101+9999
0183994370999992012011322004+43783-068867FM-12+0027MISM1V0202401N017519999999N9999999N1+00531+00221098691ADDMD1310171+9999OA139902111REMSYN146CMAN  13224 MISM1 46/// /2434 10053 20022 49869 53017 92200 333 91241 555 11031 22033 32122 422048 62159 241037 243036 239035 228037 22005 316009;
0183994370999992012011323004+43783-068867FM-12+0027MISM1V0202401N019519999999N9999999N1+00501+00041098731ADDMD1110241+9999OA139902261REMSYN146CMAN  13234 MISM1 46/// /2438 10050 20004 49873 51024 92300 333 91244 555 11035 22038 32246 424049 62259 243038 242040 245039 244038 24006 022007;
0183994370999992012011400004+43783-068867FM-12+0027MISM1V0202501N022119999999N9999999N1+00371-00201098791ADDMD1110191+9999OA139902731REMSYN146CMAN  14004 MISM1 46/// /2543 10037 21020 49879 51019 90000 333 91253 555 11040 22043 32359 425053 62359 248044 246043 243041 246041 24007 051006;
0183994370999992012011401004+43783-068867FM-12+0027MISM1V0202401N021119999999N9999999N1+00281-00251098941ADDMD1310251+9999OA139902471REMSYN146CMAN  14014 MISM1 46/// /2441 10028 21025 49894 53025 90100 333 91248 555 11037 22040 30022 425061 60059 242041 242040 246047 245051 24009 353037;
0180994370999992012011402004+43783-068867FM-12+0027MISM1V0202501N024219999999N9999999N1+00131-00441098971ADDMD1110241+9999OA139902681REMSYN143CMAN  14024 MISM1 46/// /2547 10013 21044 49897 51024 90200 333 91252 555 11043 22046 30148 425056 60159 245047 247048 247047 244043 24007 02/;
0183994370999992012011403004+43783-068867FM-12+0027MISM1V0202501N024219999999N9999999N1+00091-00261099081ADDMD1110291+9999OA139902731REMSYN146CMAN  14034 MISM1 46/// /2547 10009 21026 49908 51029 90300 333 91253 555 11043 22046 30203 425055 60259 250046 247047 251046 246045 24008 032006;
0183994370999992012011404004+43783-068867FM-12+0027MISM1V0202501N022119999999N9999999N1+00111-00211099221ADDMD1310281+9999OA139902571REMSYN146CMAN  14044 MISM1 46/// /2543 10011 21021 49922 53028 90400 333 91250 555 11040 22043 30321 426055 60359 252044 252045 252044 255046 25010 328007;
0017994370999992012011405004+43783-068867FM-12+0027MISM1V0202501N022119999999N9999999N1+00161-00231099331ADDMD1210361+9999
0183994370999992012011406004+43783-068867FM-12+0027MISM1V0202401N019519999999N9999999N1+00211-00161099511ADDMD1310431+9999OA139902211REMSYN146CMAN  14064 MISM1 46/// /2438 10021 21016 49951 53043 90600 333 91243 555 11035 22038 30508 425049 60559 244039 246039 245038 246039 25012 348011;
0183994370999992012011407004+43783-068867FM-12+0027MISM1V0202501N018519999999N9999999N1+00251-00141099671ADDMD1310451+9999OA139902161REMSYN146CMAN  14074 MISM1 46/// /2536 10025 21014 49967 53045 90700 333 91242 555 11034 22036 30648 425045 60659 249038 248038 247037 247037 24014 353012;
0017994370999992012011408004+43783-068867FM-12+0027MISM1V0202401N018019999999N9999999N1+00261-00161099751ADDMD1110421+9999
0183994370999992012011409004+43783-068867FM-12+0027MISM1V0202501N018019999999N9999999N1+00271-00161099871ADDMD1110361+9999OA139902011REMSYN146CMAN  14094 MISM1 46/// /2535 10027 21016 49987 51036 90900 333 91239 555 11033 22035 30813 425041 60859 247033 248034 249033 249034 24020 007010;
0017994370999992012011410004+43783-068867FM-12+0027MISM1V0202601N018019999999N9999999N1+00241-00221099951ADDMD1210281+9999
0017994370999992012011411004+43783-068867FM-12+0027MISM1V0202601N014919999999N9999999N1+00201-00241100071ADDMD1210321+9999
0183994370999992012011412004+43783-068867FM-12+0027MISM1V0202701N012919999999N9999999N1+00141-00391100151ADDMD1210281+9999OA139901391REMSYN146CMAN  14124 MISM1 46/// /2725 10014 21039 40015 52028 91200 333 91227 555 11023 22025 31100 427033 61159 270025 272027 271027 269028 26019 004014;
0183994370999992012011413004+43783-068867FM-12+0027MISM1V0203201N010319999999N9999999N1-00021-00501100301ADDMD1310351+9999OA139901081REMSYN146CMAN  14134 MISM1 46/// /3220 11002 21050 40030 53035 91300 333 91221 555 11018 22019 31207 427027 61259 314020 320020 299020 274022 27020 002015;
0017994370999992012011414004+43783-068867FM-12+0027MISM1V0203001N009319999999N9999999N1-00071-00621100431ADDMD1310361+9999
0225994370999992012011415004+43783-068867FM-12+0027MISM1V0203001N011319999999N9999999N1-00181-00761100481ADDMD1110331+9999OA139901291REMSYN188CMAN  14154 MISM1 46/// /3022 11018 21076 40048 51033 91500 333 91225 555 11021 22022 31453 431026 61459 306022 309021 308020 311018 301106 61449 119041 112042 114038 113039 111041 100041;
0183994370999992012011416004+43783-068867FM-12+0027MISM1V0203001N011819999999N9999999N1-00301-00781100481ADDMD1110181+9999OA139901291REMSYN146CMAN  14164 MISM1 46/// /3023 11030 21078 40048 51018 91600 333 91225 555 11021 22022 31552 431027 61559 303023 306022 309020 311020 30019 019012;
0183994370999992012011417004+43783-068867FM-12+0027MISM1V0202901N011819999999N9999999N1-00301-00791100461ADDMD1110031+9999OA139901341REMSYN146CMAN  14174 MISM1 46/// /2923 11030 21079 40046 51003 91700 333 91226 555 11022 22023 31651 429028 61659 291024 294023 301021 297023 30015 003010;
0183994370999992012011418004+43783-068867FM-12+0027MISM1V0203001N011319999999N9999999N1-00331-00891100451ADDMD1710031+9999OA139901291REMSYN146CMAN  14184 MISM1 46/// /3022 11033 21089 40045 57003 91800 333 91225 555 11021 22022 31716 430028 61759 300023 301022 298022 295021 29014 027007;
0231994370999992012011419004+43783-068867FM-12+0027MISM1V0203101N011819999999N9999999N1-00331-00881100511ADDMD1310031+9999OA139901341REMSYN194CMAN  14194 MISM1 46/// /3123 11033 21088 40051 53003 91900 333 91226 555 11021 22023 31848 430030 61859 302023 303024 302023 304022 30018 000918 61849 265147 268143 263138 267141 265146 267134;
0183994370999992012011420004+43783-068867FM-12+0027MISM1V0203101N010819999999N9999999N1-00361-00981100601ADDMD1310141+9999OA139901291REMSYN146CMAN  14204 MISM1 46/// /3121 11036 21098 40060 53014 92000 333 91225 555 11020 22021 31944 431028 61959 298022 301023 298021 299022 29012 004003;
0180994370999992012011421004+43783-068867FM-12+0027MISM1V0203001N009819999999N9999999N1-00431-01081100691ADDMD1310241+9999OA139901131REMSYN143CMAN  14214 MISM1 46/// /3019 11043 21108 40069 53024 92100 333 91222 555 11018 22019 32018 430027 62059 303020 306021 302022 302021 30013 01/;
0183994370999992012011422004+43783-068867FM-12+0027MISM1V0203001N012319999999N9999999N1-00481-01091100801ADDMD1310291+9999OA139901391REMSYN146CMAN  14224 MISM1 46/// /3024 11048 21109 40080 53029 92200 333 91227 555 11022 22024 32120 429029 62159 295023 299022 301022 298022 29013 020004;
0183994370999992012011423004+43783-068867FM-12+0027MISM1V0203001N011819999999N9999999N1-00591-01161100901ADDMD1310301+9999OA139901341REMSYN146CMAN  14234 MISM1 46/// /3023 11059 21116 40090 53030 92300 333 91226 555 11022 22023 32234 431030 62259 299023 300023 303023 305022 30015 025002;
0231994370999992012011500004+43783-068867FM-12+0027MISM1V0203001N011319999999N9999999N1-00701-01211101011ADDMD1210321+9999OA139901341REMSYN194CMAN  15004 MISM1 46/// /3022 11070 21121 40101 52032 90000 333 91226 555 11021 22022 32355 430028 62359 301023 301022 301022 307022 30013 342113 62349 207094 210103 209099 214104 215104 215099;
0177994370999992012011501004+43783-068867FM-12+0027MISM1V0203201N011319999999N9999999N1-00801-01291101071ADDMD1110271+9999OA139901291REMSYN140CMAN  15014 MISM1 46/// /3222 11080 21129 40107 51027 90100 333 91225 555 11021 22022 30054 432028 60059 319022 314022 316022 313023 310021;
0017994370999992012011502004+43783-068867FM-12+0027MISM1V0203101N009319999999N9999999N1-00891-01331101211ADDMD1310311+9999
0183994370999992012011503004+43783-068867FM-12+0027MISM1V0203101N010819999999N9999999N1-00961-01371101271ADDMD1210261+9999OA139901181REMSYN146CMAN  15034 MISM1 46/// /3121 11096 21137 40127 52026 90300 333 91223 555 11020 22021 30256 431026 60259 313021 322021 320020 319019 31018 014005;
0183994370999992012011504004+43783-068867FM-12+0027MISM1V0203201N011819999999N9999999N1-01051-01491101321ADDMD1110251+9999OA139901391REMSYN146CMAN  15044 MISM1 46/// /3223 11105 21149 40132 51025 90400 333 91227 555 11022 22023 30355 432029 60359 324023 325022 332021 330021 33012 349005;
0017994370999992012011505004+43783-068867FM-12+0027MISM1V0203401N011819999999N9999999N1-01121-01611101371ADDMD1110161+9999
0183994370999992012011506004+43783-068867FM-12+0027MISM1V0203501N011819999999N9999999N1-01191-01481101441ADDMD1310171+9999OA139901441REMSYN146CMAN  15064 MISM1 46/// /3523 11119 21148 40144 53017 90600 333 91228 555 11021 22023 30517 433029 60559 343022 339022 343022 339024 33019 013005;
0177994370999992012011507004+43783-068867FM-12+0027MISM1V0203601N009819999999N9999999N1-01271-01561101571ADDMD1310251+9999OA139901181REMSYN140CMAN  15074 MISM1 46/// /3619 11127 21156 40157 53025 90700 333 91223 555 11018 22019 30608 435027 60659 351020 346019 349021 343021 353024;
0183994370999992012011508004+43783-068867FM-12+0027MISM1V0203401N010319999999N9999999N1-01271-01451101641ADDMD1210271+9999OA139901241REMSYN146CMAN  15084 MISM1 46/// /3420 11127 21145 40164 52027 90800 333 91224 555 11018 22020 30728 435027 60759 348020 347020 355020 353020 35022 015006;
0183994370999992012011509004+43783-068867FM-12+0027MISM1V0203301N009819999999N9999999N1-01331-01561101751ADDMD1110311+9999OA139901131REMSYN146CMAN  15094 MISM1 46/// /3319 11133 21156 40175 51031 90900 333 91222 555 11018 22019 30805 435026 60859 330019 329020 334020 352018 35019 354006;
0183994370999992012011510004+43783-068867FM-12+0027MISM1V0203501N011319999999N9999999N1-01341-01551101821ADDMD1210251+9999OA139901341REMSYN146CMAN  15104 MISM1 46/// /3522 11134 21155 40182 52025 91000 333 91226 555 11020 22021 30957 433030 60959 336023 331022 330021 330020 33021 028006;
0017994370999992012011511004+43783-068867FM-12+0027MISM1V0203601N011319999999N9999999N1-01311-01461101881ADDMD1110241+9999
0183994370999992012011512004+43783-068867FM-12+0027MISM1V0203401N011319999999N9999999N1-01321-01511101961ADDMD1310211+9999OA139901391REMSYN146CMAN  15124 MISM1 46/// /3422 11132 21151 40196 53021 91200 333 91227 555 11021 22022 31121 435031 61159 336023 348023 349023 350024 35016 344009;
0177994370999992012011513004+43783-068867FM-12+0027MISM1V0203401N011819999999N9999999N1-01301-01471102071ADDMD1310251+9999OA139901441REMSYN140CMAN  15134 MISM1 46/// /3423 11130 21147 40207 53025 91300 333 91228 555 11021 22023 31252 434030 61259 340024 343022 342022 342022 349022;
0183994370999992012011514004+43783-068867FM-12+0027MISM1V0203401N011819999999N9999999N1-01351-01621102161ADDMD1310281+9999OA139901391REMSYN146CMAN  15144 MISM1 46/// /3423 11135 21162 40216 53028 91400 333 91227 555 11022 22023 31310 435031 61359 341023 338024 340024 343024 34015 026009;
0183994370999992012011515004+43783-068867FM-12+0027MISM1V0203501N009819999999N9999999N1-01331-01601102241ADDMD1110281+9999OA139901131REMSYN146CMAN  15154 MISM1 46/// /3519 11133 21160 40224 51028 91500 333 91222 555 11018 22019 31413 434028 61459 340020 332021 343021 336022 33017 345010;
0183994370999992012011516004+43783-068867FM-12+0027MISM1V0203401N009819999999N9999999N1-01301-01601102241ADDMD1110171+9999OA139901181REMSYN146CMAN  15164 MISM1 46/// /3419 11130 21160 40224 51017 91600 333 91223 555 11017 22019 31550 434026 61559 337019 331020 339019 330020 33015 002010;
0183994370999992012011517004+43783-068867FM-12+0027MISM1V0203301N009319999999N9999999N1-01241-01611102211ADDMD1010051+9999OA139901031REMSYN146CMAN  15174 MISM1 46/// /3318 11124 21161 40221 50005 91700 333 91220 555 11016 22018 31631 432025 61659 328016 323019 321019 329018 32020 352007;
0183994370999992012011518004+43783-068867FM-12+0027MISM1V0203301N009819999999N9999999N1-01171-01761102211ADDMD1710031+9999OA139901181REMSYN146CMAN  15184 MISM1 46/// /3319 11117 21176 40221 57003 91800 333 91223 555 11018 22019 31733 434024 61759 323018 323018 328017 328017 33015 007012;
0180994370999992012011519004+43783-068867FM-12+0027MISM1V0203201N010319999999N9999999N1-01111-01781102251ADDMD1510001+9999OA139901241REMSYN143CMAN  15194 MISM1 46/// /3220 11111 21178 40225 55000 91900 333 91224 555 11019 22020 31858 433024 61859 325018 323018 314018 318017 32013 01/;
0183994370999992012011520004+43783-068867FM-12+0027MISM1V0203301N010319999999N9999999N1-01051-01701102311ADDMD1310101+9999OA139901181REMSYN146CMAN  15204 MISM1 46/// /3320 11105 21170 40231 53010 92000 333 91223 555 11018 22020 31915 431027 61959 325020 322019 321018 317020 31009 013007;
0183994370999992012011521004+43783-068867FM-12+0027MISM1V0203101N013419999999N9999999N1-01011-01691102371ADDMD1310161+9999OA139901601REMSYN146CMAN  15214 MISM1 46/// /3126 11101 21169 40237 53016 92100 333 91231 555 11024 22026 32059 433031 62059 324025 322023 327023 326023 32010 020006;
0183994370999992012011522004+43783-068867FM-12+0027MISM1V0203301N011319999999N9999999N1-01051-01751102491ADDMD1310241+9999OA139901341REMSYN146CMAN  15224 MISM1 46/// /3322 11105 21175 40249 53024 92200 333 91226 555 11021 22022 32106 433030 62159 325022 311021 319021 328023 32013 032006;
0183994370999992012011523004+43783-068867FM-12+0027MISM1V0203201N011819999999N9999999N1-01071-01711102541ADDMD1110231+9999OA139901341REMSYN146CMAN  15234 MISM1 46/// /3223 11107 21171 40254 51023 92300 333 91226 555 11021 22023 32219 432034 62259 325024 321023 324023 328025 32014 045008;
0183994370999992012011600004+43783-068867FM-12+0027MISM1V0203201N012919999999N9999999N1-01061-01541102621ADDMD1110251+9999OA139901441REMSYN146CMAN  16004 MISM1 46/// /3225 11106 21154 40262 51025 90000 333 91228 555 11024 22025 32352 433030 62359 328024 325024 320025 324024 32014 042008;
0177994370999992012011601004+43783-068867FM-12+0027MISM1V0203301N012319999999N9999999N1-01091-01571102701ADDMD1310211+9999OA139901391REMSYN140CMAN  16014 MISM1 46/// /3324 11109 21157 40270 53021 90100 333 91227 555 11022 22024 30005 433031 60059 326024 332023 333025 322025 320023;
0183994370999992012011602004+43783-068867FM-12+0027MISM1V0203301N010319999999N9999999N1-01121-01521102761ADDMD1110221+9999OA139901241REMSYN146CMAN  16024 MISM1 46/// /3320 11112 21152 40276 51022 90200 333 91224 555 11019 22020 30118 433029 60159 318021 322021 321022 324024 33011 152011;
0017994370999992012011603004+43783-068867FM-12+0027MISM1V0203201N013419999999N9999999N1-01111-01481102821ADDMD1110201+9999
0225994370999992012011604004+43783-068867FM-12+0027MISM1V0203401N011319999999N9999999N1-01141-01481102861ADDMD1110161+9999OA139901291REMSYN188CMAN  16044 MISM1 46/// /3422 11114 21148 40286 51016 90400 333 91225 555 11020 22021 30312 432032 60359 329022 327023 330024 327024 321709 60349 171072 178075 178074 176079 177075 180063;
0225994370999992012011605004+43783-068867FM-12+0027MISM1V0203301N011819999999N9999999N1-01151-01491102901ADDMD1110141+9999OA139901341REMSYN188CMAN  16054 MISM1 46/// /3323 11115 21149 40290 51014 90500 333 91226 555 11021 22022 30446 432030 60459 325023 324023 321023 327024 32016 020449 174080 171081 172076 175071 173068 173074;
0183994370999992012011606004+43783-068867FM-12+0027MISM1V0203201N010819999999N9999999N1-01111-01391102971ADDMD1310151+9999OA139901291REMSYN146CMAN  16064 MISM1 46/// /3221 11111 21139 40297 53015 90600 333 91225 555 11019 22021 30508 433027 60559 319021 321022 319020 316019 32015 024016;
0183994370999992012011607004+43783-068867FM-12+0027MISM1V0203201N012919999999N9999999N1-01051-01361103031ADDMD1310171+9999OA139901441REMSYN146CMAN  16074 MISM1 46/// /3225 11105 21136 40303 53017 90700 333 91228 555 11023 22025 30655 432029 60659 317025 319024 323024 324021 31018 341016;
0254994370999992012011608004+43783-068867FM-12+0027MISM1V0203201N012919999999N9999999N1-01121-01481103081ADDMD1110181+9999OA139901541REMSYN217CMAN  16084 MISM1 46/// /3225 11112 21148 40308 51018 90800 333 91230 555 11023 22024 30705 432031 60759 320024 317025 316026 314025 31018 02081 30650 40610 60749 079072 090075 086077 090071 091073 093072 80609 90750;
0199994370999992012011609004+43783-068867FM-12+0027MISM1V0203201N009819999999N9999999N1-01071-01361103131ADDMD1110161+9999OA139901081REMSYN162CMAN  16094 MISM1 46/// /3219 11107 21136 40313 51016 90900 333 91221 555 11017 22018 30804 432029 60859 318019 319018 322020 322020 32009 20 444 ///// 555 30104;
0183994370999992012011610004+43783-068867FM-12+0027MISM1V0203301N008719999999N9999999N1-01071-01411103141ADDMD1110111+9999OA139901081REMSYN146CMAN  16104 MISM1 46/// /3317 11107 21141 40314 51011 91000 333 91221 555 11016 22017 30904 432025 60959 325017 319019 314019 319019 32018 021014;
0183994370999992012011611004+43783-068867FM-12+0027MISM1V0203101N010319999999N9999999N1-01101-01381103171ADDMD1110091+9999OA139901181REMSYN146CMAN  16114 MISM1 46/// /3120 11110 21138 40317 51009 91100 333 91223 555 11019 22020 31015 432025 61059 313020 311019 315017 313019 31021 041015;
0017994370999992012011612004+43783-068867FM-12+0027MISM1V0203201N007719999999N9999999N1-01041-01281103231ADDMD1310101+9999
0183994370999992012011613004+43783-068867FM-12+0027MISM1V0203301N008219999999N9999999N1-00971-01391103301ADDMD1310161+9999OA139900881REMSYN146CMAN  16134 MISM1 46/// /3316 11097 21139 40330 53016 91300 333 91217 555 11014 22015 31215 432019 61259 326014 326015 317015 318016 32021 070018;
0017994370999992012011614004+43783-068867FM-12+0027MISM1V0203101N005719999999N9999999N1-00941-01231103341ADDMD1110171+9999
0183994370999992012011615004+43783-068867FM-12+0027MISM1V0203001N004619999999N9999999N1-00881-01291103361ADDMD1110131+9999OA139900621REMSYN146CMAN  16154 MISM1 46/// /3009 11088 21129 40336 51013 91500 333 91212 555 11009 22009 31445 430015 61459 297009 300011 313009 321009 31020 062018;
0183994370999992012011616004+43783-068867FM-12+0027MISM1V0203201N004119999999N9999999N1-00831-01311103251ADDMD1810051+9999OA139900511REMSYN146CMAN  16164 MISM1 46/// /3208 11083 21131 40325 58005 91600 333 91210 555 11008 22008 31501 429013 61559 313008 307008 305008 307009 29011 011020;
0225994370999992012011617004+43783-068867FM-12+0027MISM1V0203001N002619999999N9999999N1-00731-01481103111ADDMD1810231+9999OA139900311REMSYN188CMAN  16174 MISM1 46/// /3005 11073 21148 40311 58023 91700 333 91206 555 11005 22005 31600 432010 61659 302005 301006 305006 317005 321612 61649 151091 152092 155097 156099 155096 154093;
0176994370999992012011618004+43783-068867FM-12+0027MISM1V0202601N004119999999N9999999N1-00661-01431103001ADDMD1710361+9999OA139900461REMSYN139CMAN  16184 MISM1 46/// /2608 11066 21143 40300 57036 91800 333 91209 555 11007 22008 31746 425011 61759 263007 259007 267008 256006 26101;
0177994370999992012011619004+43783-068867FM-12+0027MISM1V0202201N004619999999N9999999N1-00521-01171102961ADDMD1610291+9999OA139900511REMSYN140CMAN  16194 MISM1 46/// /2209 11052 21117 40296 56029 91900 333 91210 555 11008 22008 31855 423013 61859 226009 242009 251008 255007 257007;
0017994370999992012011620004+43783-068867FM-12+0027MISM1V0202201N005719999999N9999999N1-00441-01071102851ADDMD1710261+9999
0178994370999992012011621004+43783-068867FM-12+0027MISM1V0202201N009819999999N9999999N1-00331-00721102791ADDMD1810211+9999OA139901241REMSYN141CMAN  16214 MISM1 46/// /2219 11033 21072 40279 58021 92100 333 91224 555 11018 22019 32059 422024 62059 223017 225016 220017 220015 22/////;
0017994370999992012011622004+43783-068867FM-12+0027MISM1V0202101N010319999999N9999999N1-00171-00651102671ADDMD1810291+9999
0017994370999992012011623004+43783-068867FM-12+0027MISM1V0202101N013919999999N9999999N1-00071-00531102571ADDMD1810281+9999
0179994370999992012011700004+43783-068867FM-12+0027MISM1V0202101N012919999999N9999999N1+00011-00561102441ADDMD1810351+9999OA139901391REMSYN142CMAN  17004 MISM1 46/// /2125 10001 21056 40244 58035 90000 333 91227 555 11023 22024 32357 420034 62359 204028 209028 207027 210026 20017 07;
0183994370999992012011701004+43783-068867FM-12+0027MISM1V0202101N017019999999N9999999N1+00111-00681102251ADDMD1810421+9999OA139901961REMSYN146CMAN  17014 MISM1 46/// /2133 10011 21068 40225 58042 90100 333 91238 555 11031 22033 30050 421040 60059 207034 209032 200031 201030 20010 056015;
0183994370999992012011702004+43783-068867FM-12+0027MISM1V0202201N018519999999N9999999N1+00161-00401102191ADDMD1610381+9999OA139902161REMSYN146CMAN  17024 MISM1 46/// /2236 10016 21040 40219 56038 90200 333 91242 555 11033 22036 30153 422045 60159 221037 219038 217035 216035 21009 045016;
0225994370999992012011703004+43783-068867FM-12+0027MISM1V0202201N018019999999N9999999N1+00221-00131102071ADDMD1610371+9999OA139901961REMSYN188CMAN  17034 MISM1 46/// /2235 10022 21013 40207 56037 90300 333 91238 555 11032 22035 30225 422047 60259 220035 220036 221038 221039 221612 60249 166085 162091 161088 162091 162096 158091;
0183994370999992012011704004+43783-068867FM-12+0027MISM1V0202201N021119999999N9999999N1+00331-00081101901ADDMD1810351+9999OA139902321REMSYN146CMAN  17044 MISM1 46/// /2241 10033 21008 40190 58035 90400 333 91245 555 11037 22040 30331 422045 60359 222037 222036 222038 220038 22011 063022;
0017994370999992012011705004+43783-068867FM-12+0027MISM1V0202301N020019999999N9999999N1+00341-00011101781ADDMD1710411+9999
0017994370999992012011706004+43783-068867FM-12+0027MISM1V0202401N017519999999N9999999N1+00281+00021101721ADDMD1610351+9999
0177994370999992012011707004+43783-068867FM-12+0027MISM1V0202401N018519999999N9999999N1+00191+00141101641ADDMD1610261+9999OA139901961REMSYN140CMAN  17074 MISM1 46/// /2436 10019 20014 40164 56026 90700 333 91238 555 11033 22035 30621 424041 60659 244035 242034 240032 236035 238018;
0183994370999992012011708004+43783-068867FM-12+0027MISM1V0202401N014919999999N9999999N1+00221+00081101541ADDMD1810241+9999OA139901651REMSYN146CMAN  17084 MISM1 46/// /2429 10022 20008 40154 58024 90800 333 91232 555 11026 22028 30705 424040 60759 244029 244030 243031 244033 24010 112021;
0183994370999992012011709004+43783-068867FM-12+0027MISM1V0202401N015419999999N9999999N1+00251+00031101461ADDMD1710261+9999OA139901651REMSYN146CMAN  17094 MISM1 46/// /2430 10025 20003 40146 57026 90900 333 91232 555 11028 22029 30850 425035 60859 245030 247029 246029 245029 24009 091021;
0183994370999992012011710004+43783-068867FM-12+0027MISM1V0202501N012919999999N9999999N1+00271+00071101401ADDMD1610241+9999OA139901541REMSYN146CMAN  17104 MISM1 46/// /2525 10027 20007 40140 56024 91000 333 91230 555 11023 22025 30918 425033 60959 251026 249027 250028 249027 24010 115023;
0017994370999992012011711004+43783-068867FM-12+0027MISM1V0202601N011819999999N9999999N1+00261+00051101391ADDMD1610151+9999
0183994370999992012011712004+43783-068867FM-12+0027MISM1V0202701N009819999999N9999999N1+00151+00141101371ADDMD1610091+9999OA139901081REMSYN146CMAN  17124 MISM1 46/// /2719 10015 20014 40137 56009 91200 333 91221 555 11017 22018 31105 426026 61159 265020 263020 262022 261021 25008 105021;
0182994370999992012011713004+43783-068867FM-12+0027MISM1V0202701N008219999999N9999999N1+00161+00151101351ADDMD1710051+9999OA139900881REMSYN145CMAN  17134 MISM1 46/// /2716 10016 20015 40135 57005 91300 333 91217 555 11015 22015 31221 427021 61259 264016 266017 262018 265018 26300 51260;
0231994370999992012011714004+43783-068867FM-12+0027MISM1V0202701N008219999999N9999999N1+00161+00151101331ADDMD1710061+9999OA139900881REMSYN194CMAN  17144 MISM1 46/// /2716 10016 20015 40133 57006 91400 333 91217 555 11015 22016 31313 427019 61359 268015 269016 267016 266015 26013 102510 61349 245075 244073 247078 248085 248084 250081;
0183994370999992012011715004+43783-068867FM-12+0027MISM1V0202801N007219999999N9999999N1+00181+00171101281ADDMD1810091+9999OA139900771REMSYN146CMAN  17154 MISM1 46/// /2814 10018 20017 40128 58009 91500 333 91215 555 11013 22013 31411 427018 61459 278014 276013 274013 270013 26013 110017;
0183994370999992012011716004+43783-068867FM-12+0027MISM1V0203001N004619999999N9999999N1+00141+00131101191ADDMD1810161+9999OA139900511REMSYN146CMAN  17164 MISM1 46/// /3009 10014 20013 40119 58016 91600 333 91210 555 11009 22009 31506 428015 61559 309009 300011 292013 286013 28013 108017;
0183994370999992012011717004+43783-068867FM-12+0027MISM1V0203001N003119999999N9999999N1+00111+00101101091ADDMD1810241+9999OA139900361REMSYN146CMAN  17174 MISM1 46/// /3006 10011 20010 40109 58024 91700 333 91207 555 11006 22006 31639 429011 61659 298007 292009 290009 298009 31008 111017;
0183994370999992012011718004+43783-068867FM-12+0027MISM1V0202701N002119999999N9999999N1+00121+00111100991ADDMD1810291+9999OA139900261REMSYN146CMAN  17184 MISM1 46/// /2704 10012 20011 40099 58029 91800 333 91205 555 11004 22004 31705 430009 61759 282004 279005 279006 289006 29013 123015;
0017994370999992012011719004+43783-068867FM-12+0027MISM1V0200201N000519999999N9999999N1+00161+00151100931ADDMD1610261+9999
0183994370999992012011720004+43783-068867FM-12+0027MISM1V0201101N003119999999N9999999N1+00221+00201100871ADDMD1610221+9999OA139900411REMSYN146CMAN  17204 MISM1 46/// /1106 10022 20020 40087 56022 92000 333 91208 555 11006 22006 31959 412008 61959 122005 112005 103005 082003 05008 126014;
0183994370999992012011721004+43783-068867FM-12+0027MISM1V0201201N004119999999N9999999N1+00291+00271100871ADDMD1610121+9999OA139900461REMSYN146CMAN  17214 MISM1 46/// /1208 10029 20027 40087 56012 92100 333 91209 555 11008 22008 32058 412009 62059 121008 118008 113007 099007 10007 105009;
0017994370999992012011722004+43783-068867FM-12+0027MISM1V0201601N005719999999N9999999N1+00391+00341100751ADDMD1810181+9999
0183994370999992012011723004+43783-068867FM-12+0027MISM1V0201501N008219999999N9999999N1+00401+00391100571ADDMD1810301+9999OA139900881REMSYN146CMAN  17234 MISM1 46/// /1516 10040 20039 40057 58030 92300 333 91217 555 11015 22016 32252 415018 62259 148016 141014 136012 139011 14006 091012;
0183994370999992012011800004+43783-068867FM-12+0027MISM1V0201501N011819999999N9999999N1+00471+00461100391ADDMD1810481+9999OA139901341REMSYN146CMAN  18004 MISM1 46/// /1523 10047 20046 40039 58048 90000 333 91226 555 11022 22023 32357 414026 62359 146023 147022 140021 141020 14006 074013;
