0017994370999992011011723004+43783-068867FM-12+0027MISM1V0203601N002119999999N9999999N1-00721-01531102871ADDMD1310221+9999
0183994370999992011011800004+43783-068867FM-12+0027MISM1V0203101N001519999999N9999999N1-00691-01461102931ADDMD1110211+9999OA139900211REMSYN146CMAN  18004 MISM1 46/// /3103 11069 21146 40293 51021 90000 333 91204 555 11002 22003 32348 432011 62359 308004 325006 317004 325004 33015 317009;
0183994370999992011011801004+43783-068867FM-12+0027MISM1V0209999C000019999999N9999999N1-00691-01431102951ADDMD1110161+9999OA139900001REMSYN146CMAN  18014 MISM1 46/// /0000 11069 21143 40295 51016 90100 333 91200 555 30020 428005 60059 050001 028001 330000 270001 324 004004 358005 350008;
0017994370999992011011802004+43783-068867FM-12+0027MISM1V0209999C000019999999N9999999N1-00681-01371102931ADDMD1110061+9999
0017994370999992011011803004+43783-068867FM-12+0027MISM1V0200201N001519999999N9999999N1-00641-01321102871ADDMD1810061+9999
0183994370999992011011804004+43783-068867FM-12+0027MISM1V0200501N001519999999N9999999N1-00611-01231102881ADDMD1710071+9999OA139900211REMSYN146CMAN  18044 MISM1 46/// /0503 11061 21123 40288 57007 90400 333 91204 555 11003 22003 30340 405008 60359 023004 032004 069003 029002 04005 123012;
0183994370999992011011805004+43783-068867FM-12+0027MISM1V0202101N001519999999N9999999N1-00561-01151102881ADDMD1610051+9999OA139900211REMSYN146CMAN  18054 MISM1 46/// /2103 11056 21115 40288 56005 90500 333 91204 555 11003 22003 30434 410008 60459 213004 089001 116003 151004 17005 123014;
0183994370999992011011806004+43783-068867FM-12+0027MISM1V0201501N005719999999N9999999N1-00501-01091102901ADDMD1210031+9999OA139900671REMSYN146CMAN  18064 MISM1 46/// /1511 11050 21109 40290 52003 90600 333 91213 555 11010 22011 30550 415013 60559 152009 154007 139006 161003 12008 172012;
0180994370999992011011807004+43783-068867FM-12+0027MISM1V0201701N004119999999N9999999N1-00461-00991102891ADDMD1410001+9999OA139900571REMSYN143CMAN  18074 MISM1 46/// /1708 11046 21099 40289 54000 90700 333 91211 555 11008 22008 30646 411014 60659 152010 122010 126009 121007 13008 19/;
0183994370999992011011808004+43783-068867FM-12+0027MISM1V0201501N004619999999N9999999N1-00401-00881102811ADDMD1810071+9999OA139900671REMSYN146CMAN  18084 MISM1 46/// /1509 11040 21088 40281 58007 90800 333 91213 555 11009 22009 30702 416018 60759 146010 140010 132011 145012 15008 194009;
0183994370999992011011809004+43783-068867FM-12+0027MISM1V0201801N006719999999N9999999N1-00291-00741102751ADDMD1810151+9999OA139900771REMSYN146CMAN  18094 MISM1 46/// /1813 11029 21074 40275 58015 90900 333 91215 555 11012 22013 30838 415018 60859 178012 169013 156014 142012 16007 203009;
0183994370999992011011810004+43783-068867FM-12+0027MISM1V0202101N006719999999N9999999N1-00241-00721102671ADDMD1710221+9999OA139900821REMSYN146CMAN  18104 MISM1 46/// /2113 11024 21072 40267 57022 91000 333 91216 555 11013 22014 30950 421020 60959 203014 200014 194014 191015 18004 211008;
0017994370999992011011811004+43783-068867FM-12+0027MISM1V0202201N004619999999N9999999N1-00191-00591102611ADDMD1710201+9999
0183994370999992011011812004+43783-068867FM-12+0027MISM1V0201901N004619999999N9999999N1-00131-00491102591ADDMD1610161+9999OA139900571REMSYN146CMAN  18124 MISM1 46/// /1909 11013 21049 40259 56016 91200 333 91211 555 11009 22009 31122 421017 61159 190009 187010 200013 202012 20011 209005;
0183994370999992011011813004+43783-068867FM-12+0027MISM1V0201501N008719999999N9999999N1+00001-00391102511ADDMD1810161+9999OA139900981REMSYN146CMAN  18134 MISM1 46/// /1517 10000 21039 40251 58016 91300 333 91219 555 11016 22017 31238 416020 61259 148017 159016 157016 156014 16009 205006;
0183994370999992011011814004+43783-068867FM-12+0027MISM1V0201601N010319999999N9999999N1+00091-00341102451ADDMD1810161+9999OA139901181REMSYN146CMAN  18144 MISM1 46/// /1620 10009 21034 40245 58016 91400 333 91223 555 11019 22021 31355 415024 61359 154019 154019 148020 154018 16006 222008;
0180994370999992011011815004+43783-068867FM-12+0027MISM1V0201501N009819999999N9999999N1+00161-00231102331ADDMD1810261+9999OA139901081REMSYN143CMAN  18154 MISM1 46/// /1519 10016 21023 40233 58026 91500 333 91221 555 11018 22019 31409 415023 61459 148019 146019 143019 154019 15006 22/;
0183994370999992011011816004+43783-068867FM-12+0027MISM1V0201501N010819999999N9999999N1+00231-00211102181ADDMD1810331+9999OA139901241REMSYN146CMAN  18164 MISM1 46/// /1521 10023 21021 40218 58033 91600 333 91224 555 11020 22022 31552 414025 61559 145022 146021 144020 145021 14005 214006;
0243994370999992011011817004+43783-068867FM-12+0027MISM1V0201401N011819999999N9999999N1+00271-00181102001ADDMD1810451+9999OA139901391REMSYN206CMAN  18174 MISM1 46/// /1423 10027 21018 40200 58045 91700 333 91227 555 11022 22023 31659 414027 61659 144023 143023 144022 145023 14007 213607 61649 357049 352044 350043 356040 001039 346036 83606 91641;
0183994370999992011011818004+43783-068867FM-12+0027MISM1V0201501N011319999999N9999999N1+00311-00081101881ADDMD1610451+9999OA139901291REMSYN146CMAN  18184 MISM1 46/// /1522 10031 21008 40188 56045 91800 333 91225 555 11021 22022 31729 414028 61759 144023 145024 150023 142024 14008 219008;
0017994370999992011011819004+43783-068867FM-12+0027MISM1V0201501N010819999999N9999999N1+00161+00021101861ADDMD1610321+9999
0225994370999992011011820004+43783-068867FM-12+0027MISM1V0201401N010319999999N9999999N1+00231+00091101721ADDMD1810281+9999OA139901081REMSYN188CMAN  18204 MISM1 46/// /1420 10023 20009 40172 58028 92000 333 91221 555 11019 22020 31926 414024 61959 140019 142020 144020 142021 14008 221949 030010 052014 046011 041012 356016 355017;
0183994370999992011011821004+43783-068867FM-12+0027MISM1V0201301N011819999999N9999999N1+00331+00211101591ADDMD1810291+9999OA139901241REMSYN146CMAN  18214 MISM1 46/// /1323 10033 20021 40159 58029 92100 333 91224 555 11022 22023 32045 413025 62059 131022 130021 134019 135019 13008 207016;
0017994370999992011011822004+43783-068867FM-12+0027MISM1V0201201N013919999999N9999999N1+00331+00261101461ADDMD1610401+9999
0183994370999992011011823004+43783-068867FM-12+0027MISM1V0201101N011819999999N9999999N1+00391+00351101321ADDMD1810401+9999OA139901291REMSYN146CMAN  18234 MISM1 46/// /1123 10039 20035 40132 58040 92300 333 91225 555 11022 22023 32214 413030 62259 107022 110022 114025 117025 12017 201019;
0225994370999992011011900004+43783-068867FM-12+0027MISM1V0201001N013919999999N9999999N1+00401+00391101111ADDMD1810481+9999OA139901541REMSYN188CMAN  19004 MISM1 46/// /1027 10040 20039 40111 58048 90000 333 91230 555 11026 22028 32349 411030 62359 105027 105026 106025 106024 10002 232349 266026 267022 275021 273016 202011 135012;
0183994370999992011011901004+43783-068867FM-12+0027MISM1V0200901N015919999999N9999999N1+00411+00401100851ADDMD1810611+9999OA139901701REMSYN146CMAN  19014 MISM1 46/// /0931 10041 20040 40085 58061 90100 333 91233 555 11030 22032 30043 410034 60059 093030 096030 098028 099029 09002 351020;
0183994370999992011011902004+43783-068867FM-12+0027MISM1V0201001N014419999999N9999999N1+00501+00491100651ADDMD1610671+9999OA139901601REMSYN146CMAN  19024 MISM1 46/// /1028 10050 20049 40065 56067 90200 333 91231 555 11027 22029 30109 410035 60159 097030 096028 096028 097027 09013 216025;
0202994370999992011011903004+43783-068867FM-12+0027MISM1V0201001N015919999999N9999999N1+00541+00531100411ADDMD1610702+9999OA139901801REMSYN146CMAN  19034 MISM1 46/// /1031 10054 20053 40041 56070 90300 333 91235 555 11030 22032 30252 410037 60259 098031 097031 097031 097030 09011 218025;EQDQ01+000702APC3  
0183994370999992011011904004+43783-068867FM-12+0027MISM1V0200901N014919999999N9999999N1+00571+00561100211ADDMD1710641+9999OA139901601REMSYN146CMAN  19044 MISM1 46/// /0929 10057 20056 40021 57064 90400 333 91231 555 11028 22029 30308 410037 60359 093029 093030 094030 095030 09008 212021;
0180994370999992011011905004+43783-068867FM-12+0027MISM1V0200901N013919999999N9999999N1+00601+00601099971ADDMD1710681+9999OA139901541REMSYN143CMAN  19054 MISM1 46/// /0927 10060 20060 49997 57068 90500 333 91230 555 11026 22027 30407 409033 60459 086027 086027 087027 091027 09006 17/;
0183994370999992011011906004+43783-068867FM-12+0027MISM1V0200701N013919999999N9999999N1+00621+00621099761ADDMD1810651+9999OA139901541REMSYN146CMAN  19064 MISM1 46/// /0727 10062 20062 49976 58065 90600 333 91230 555 11026 22028 30504 409032 60559 073026 077027 079027 083027 08005 197011;
0183994370999992011011907004+43783-068867FM-12+0027MISM1V0200501N011819999999N9999999N1+00611+00611099661ADDMD1610551+9999OA139901241REMSYN146CMAN  19074 MISM1 46/// /0523 10061 20061 49966 56055 90700 333 91224 555 11022 22024 30611 407029 60659 051023 059023 067024 071025 07009 191015;
0183994370999992011011908004+43783-068867FM-12+0027MISM1V0200301N012919999999N9999999N1+00561+00561099561ADDMD1610411+9999OA139901441REMSYN146CMAN  19084 MISM1 46/// /0325 10056 20056 49956 56041 90800 333 91228 555 11023 22025 30722 404032 60759 032025 036025 042027 043028 04007 194018;
0183994370999992011011909004+43783-068867FM-12+0027MISM1V0203601N011819999999N9999999N1+00501+00501099551ADDMD1610211+9999OA139901291REMSYN146CMAN  19094 MISM1 46/// /3623 10050 20050 49955 56021 90900 333 91225 555 11022 22023 30823 403029 60859 004023 003022 013022 023024 02006 210016;
0183994370999992011011910004+43783-068867FM-12+0027MISM1V0203501N012319999999N9999999N1+00361+00361099551ADDMD1610111+9999OA139901341REMSYN146CMAN  19104 MISM1 46/// /3524 10036 20036 49955 56011 91000 333 91226 555 11023 22025 30952 435028 60959 349025 348022 352022 356021 35004 214017;
0183994370999992011011911004+43783-068867FM-12+0027MISM1V0203401N013919999999N9999999N1+00301+00301099601ADDMD1310041+9999OA139901541REMSYN146CMAN  19114 MISM1 46/// /3427 10030 20030 49960 53004 91100 333 91230 555 11026 22028 31046 434033 61059 345028 344029 344028 345027 34003 232018;
0183994370999992011011912004+43783-068867FM-12+0027MISM1V0203401N013919999999N9999999N1+00301+00301099751ADDMD1310201+9999OA139901601REMSYN146CMAN  19124 MISM1 46/// /3427 10030 20030 49975 53020 91200 333 91231 555 11026 22028 31142 433033 61159 334028 331027 332027 334028 34011 226018;
0183994370999992011011913004+43783-068867FM-12+0027MISM1V0203401N012919999999N9999999N1+00301+00301099851ADDMD1310301+9999OA139901391REMSYN146CMAN  19134 MISM1 46/// /3425 10030 20030 49985 53030 91300 333 91227 555 11024 22025 31227 434031 61259 339025 342027 342026 340027 34010 217017;
0017994370999992011011914004+43783-068867FM-12+0027MISM1V0203501N012319999999N9999999N1+00331+00321099921ADDMD1110321+9999
0183994370999992011011915004+43783-068867FM-12+0027MISM1V0203501N012319999999N9999999N1+00311+00291099991ADDMD1110241+9999OA139901391REMSYN146CMAN  19154 MISM1 46/// /3524 10031 20029 49999 51024 91500 333 91227 555 11023 22025 31454 435030 61459 348026 348027 351025 350022 35003 249013;
0183994370999992011011916004+43783-068867FM-12+0027MISM1V0203501N011819999999N9999999N1+00321+00231100051ADDMD1110201+9999OA139901391REMSYN146CMAN  19164 MISM1 46/// /3523 10032 20023 40005 51020 91600 333 91227 555 11022 22024 31507 435029 61559 349025 348025 353024 346025 34006 218015;
0017994370999992011011917004+43783-068867FM-12+0027MISM1V0203601N012919999999N9999999N1+00281+00131100101ADDMD1110181+9999
0183994370999992011011918004+43783-068867FM-12+0027MISM1V0203601N011819999999N9999999N1+00261+00081100151ADDMD1110161+9999OA139901391REMSYN146CMAN  19184 MISM1 46/// /3623 10026 20008 40015 51016 91800 333 91227 555 11022 22024 31703 436030 61759 001024 359024 357027 356025 35005 223016;
0180994370999992011011919004+43783-068867FM-12+0027MISM1V0200101N012919999999N9999999N1+00211-00011100171ADDMD1110121+9999OA139901391REMSYN143CMAN  19194 MISM1 46/// /0125 10021 21001 40017 51012 91900 333 91227 555 11024 22026 31826 436028 61859 359024 359024 000024 357023 35007 26/;
0017994370999992011011920004+43783-068867FM-12+0027MISM1V0203601N012319999999N9999999N1+00141-00051100251ADDMD1310151+9999
0183994370999992011011921004+43783-068867FM-12+0027MISM1V0203601N011819999999N9999999N1+00051+00001100361ADDMD1310211+9999OA139901291REMSYN146CMAN  19214 MISM1 46/// /3623 10005 20000 40036 53021 92100 333 91225 555 11022 22023 32003 436027 62059 358022 358023 356023 354022 35015 231006;
0017994370999992011011922004+43783-068867FM-12+0027MISM1V0203601N011319999999N9999999N1-00031-00041100421ADDMD1110251+9999
0017994370999992011011923004+43783-068867FM-12+0027MISM1V0203601N013419999999N9999999N1-00091-00111100491ADDMD1110241+9999
0017994370999992011012000004+43783-068867FM-12+0027MISM1V0200101N012919999999N9999999N1-00121-00151100571ADDMD1310211+9999
0017994370999992011012001004+43783-068867FM-12+0027MISM1V0200101N011819999999N9999999N1-00171-00191100621ADDMD1110201+9999
0183994370999992011012002004+43783-068867FM-12+0027MISM1V0200101N012919999999N9999999N1-00211-00251100641ADDMD1110151+9999OA139901391REMSYN146CMAN  20024 MISM1 46/// /0125 11021 21025 40064 51015 90200 333 91227 555 11024 22025 30115 401029 60159 005025 008025 010024 002026 00008 346013;
0243994370999992011012003004+43783-068867FM-12+0027MISM1V0200101N011819999999N9999999N1-00241-00331100701ADDMD1310131+9999OA139901341REMSYN206CMAN  20034 MISM1 46/// /0123 11024 21033 40070 53013 90300 333 91226 555 11022 22024 30245 401027 60259 006023 012024 010022 008022 00004 350618 60249 053141 051137 053143 053142 053140 052144 80516 90207;
0178994370999992011012004004+43783-068867FM-12+0027MISM1V0203601N010819999999N9999999N1-00291-00341100751ADDMD1310131+9999OA139901241REMSYN141CMAN  20044 MISM1 46/// /3621 11029 21034 40075 53013 90400 333 91224 555 11020 22022 30300 401026 60359 003022 005022 006022 005022 00/////;
0017994370999992011012005004+43783-068867FM-12+0027MISM1V0203601N011319999999N9999999N1-00331-00361100761ADDMD1110121+9999
0017994370999992011012006004+43783-068867FM-12+0027MISM1V0203601N009819999999N9999999N1-00401-00461100831ADDMD1310131+9999
0243994370999992011012007004+43783-068867FM-12+0027MISM1V0203601N009819999999N9999999N1-00411-00451100921ADDMD1310171+9999OA139901081REMSYN206CMAN  20074 MISM1 46/// /3619 11041 21045 40092 53017 90700 333 91221 555 11018 22019 30636 436024 60659 001018 001019 358020 358020 00008 280512 60649 060088 063093 060096 056098 057101 060101 80611 90554;
0177994370999992011012008004+43783-068867FM-12+0027MISM1V0203401N009319999999N9999999N1-00421-00491101001ADDMD1310241+9999OA139901081REMSYN140CMAN  20084 MISM1 46/// /3418 11042 21049 40100 53024 90800 333 91221 555 11018 22019 30733 435022 60759 341018 358016 350017 001017 359017;
0180994370999992011012009004+43783-068867FM-12+0027MISM1V0203501N010319999999N9999999N1-00421-00471101041ADDMD1110211+9999OA139901131REMSYN143CMAN  20094 MISM1 46/// /3520 11042 21047 40104 51021 90900 333 91222 555 11019 22020 30835 435024 60859 351019 352019 347020 342020 34000 32/;
0183994370999992011012010004+43783-068867FM-12+0027MISM1V0203501N011319999999N9999999N1-00471-00581101071ADDMD1110151+9999OA139901341REMSYN146CMAN  20104 MISM1 46/// /3522 11047 21058 40107 51015 91000 333 91226 555 11021 22022 30953 434028 60959 345023 345023 351023 345023 34003 212009;
0017994370999992011012011004+43783-068867FM-12+0027MISM1V0203501N008219999999N9999999N1-00471-00591101111ADDMD1210111+9999
0243994370999992011012012004+43783-068867FM-12+0027MISM1V0203401N008219999999N9999999N1-00471-00691101221ADDMD1310181+9999OA139900981REMSYN206CMAN  20124 MISM1 46/// /3416 11047 21069 40122 53018 91200 333 91219 555 11015 22016 31125 435021 61159 346016 346017 351017 354018 35003 151304 61149 109028 113028 108024 110025 117031 105027 81204 91105;
0183994370999992011012013004+43783-068867FM-12+0027MISM1V0203201N008719999999N9999999N1-00471-00761101301ADDMD1310231+9999OA139900981REMSYN146CMAN  20134 MISM1 46/// /3217 11047 21076 40130 53023 91300 333 91219 555 11016 22017 31240 433020 61259 330016 332017 337017 339016 34002 109011;
0017994370999992011012014004+43783-068867FM-12+0027MISM1V0203301N008219999999N9999999N1-00481-00851101331ADDMD1110221+9999
0017994370999992011012015004+43783-068867FM-12+0027MISM1V0203401N009819999999N9999999N1-00481-01001101351ADDMD1110131+9999
0017994370999992011012016004+43783-068867FM-12+0027MISM1V0203501N010319999999N9999999N1-00431-01091101261ADDMD1810041+9999
0017994370999992011012017004+43783-068867FM-12+0027MISM1V0203301N007719999999N9999999N1-00381-00961101241ADDMD1710091+9999
0183994370999992011012018004+43783-068867FM-12+0027MISM1V0203201N006219999999N9999999N1-00331-00991101221ADDMD1610131+9999OA139900771REMSYN146CMAN  20184 MISM1 46/// /3212 11033 21099 40122 56013 91800 333 91215 555 11011 22012 31703 434018 61759 336012 333012 339013 337013 33006 098007;
0183994370999992011012019004+43783-068867FM-12+0027MISM1V0203001N006719999999N9999999N1-00281-01001101291ADDMD1310031+9999OA139900771REMSYN146CMAN  20194 MISM1 46/// /3013 11028 21100 40129 53003 91900 333 91215 555 11012 22013 31818 434017 61859 307011 313011 323013 331014 33002 189005;
0017994370999992011012020004+43783-068867FM-12+0027MISM1V0202901N005719999999N9999999N1-00281-00901101331ADDMD1310091+9999
0225994370999992011012021004+43783-068867FM-12+0027MISM1V0202901N004619999999N9999999N1-00271-00811101361ADDMD1110141+9999OA139900671REMSYN188CMAN  20214 MISM1 46/// /2909 11027 21081 40136 51014 92100 333 91213 555 11009 22009 32044 429015 62059 294009 292011 283010 286011 29004 002049 000068 349065 349052 344053 341054 351049;
0183994370999992011012022004+43783-068867FM-12+0027MISM1V0202901N004619999999N9999999N1-00271-00731101371ADDMD1110081+9999OA139900571REMSYN146CMAN  20224 MISM1 46/// /2909 11027 21073 40137 51008 92200 333 91211 555 11009 22009 32109 430012 62159 308007 315006 311007 305007 31005 124008;
0017994370999992011012023004+43783-068867FM-12+0027MISM1V0202601N003119999999N9999999N1-00231-00581101371ADDMD1110041+9999
0017994370999992011012100004+43783-068867FM-12+0027MISM1V0200901N001019999999N9999999N1-00211-00561101321ADDMD1810041+9999
0017994370999992011012101004+43783-068867FM-12+0027MISM1V0209999C000019999999N9999999N1-00191-00691101301ADDMD1710071+9999
0017994370999992011012102004+43783-068867FM-12+0027MISM1V0201701N001019999999N9999999N1-00181-00531101241ADDMD1810131+9999
0183994370999992011012103004+43783-068867FM-12+0027MISM1V0209999C000019999999N9999999N1-00171-00381101201ADDMD1810121+9999OA139900101REMSYN146CMAN  21034 MISM1 46/// /0000 11017 21038 40120 58012 90300 333 91202 555 11001 22001 30214 413006 60259 199001 201002 166001 171003 13013 154004;
0183994370999992011012104004+43783-068867FM-12+0027MISM1V0202001N003619999999N9999999N1-00091-00411101141ADDMD1710161+9999OA139900461REMSYN146CMAN  21044 MISM1 46/// /2007 11009 21041 40114 57016 90400 333 91209 555 11007 22007 30356 419010 60359 193005 192004 199003 260001 21007 134005;
0017994370999992011012105004+43783-068867FM-12+0027MISM1V0201601N006219999999N9999999N1-00061-00411101041ADDMD1810201+9999
0183994370999992011012106004+43783-068867FM-12+0027MISM1V0202001N006719999999N9999999N1+00001-00531100991ADDMD1610211+9999OA139900821REMSYN146CMAN  21064 MISM1 46/// /2013 10000 21053 40099 56021 90600 333 91216 555 11012 22013 30521 417021 60559 203015 204015 207016 202016 18017 174023;
0183994370999992011012107004+43783-068867FM-12+0027MISM1V0201901N006219999999N9999999N1-00051-00391100961ADDMD1610181+9999OA139900671REMSYN146CMAN  21074 MISM1 46/// /1912 11005 21039 40096 56018 90700 333 91213 555 11012 22012 30643 421020 60659 200012 204013 207013 200013 21020 185021;
0017994370999992011012108004+43783-068867FM-12+0027MISM1V0201901N006719999999N9999999N1-00021-00251100901ADDMD1810141+9999
0017994370999992011012109004+43783-068867FM-12+0027MISM1V0201801N004619999999N9999999N1-00031-00171100801ADDMD1810191+9999
0183994370999992011012110004+43783-068867FM-12+0027MISM1V0201601N006719999999N9999999N1+00001+00001100631ADDMD1810331+9999OA139900771REMSYN146CMAN  21104 MISM1 46/// /1613 10000 20000 40063 58033 91000 333 91215 555 11013 22013 30957 416017 60959 159013 158009 159008 170008 16010 174026;
0183994370999992011012111004+43783-068867FM-12+0027MISM1V0201501N009819999999N9999999N1+00001+00001100361ADDMD1810541+9999OA139901031REMSYN146CMAN  21114 MISM1 46/// /1519 10000 20000 40036 58054 91100 333 91220 555 11018 22019 31050 414023 61059 147019 136018 152018 155018 16012 164026;
0183994370999992011012112004+43783-068867FM-12+0027MISM1V0201401N006219999999N9999999N1+00031+00011100221ADDMD1610581+9999OA139900771REMSYN146CMAN  21124 MISM1 46/// /1412 10003 20001 40022 56058 91200 333 91215 555 11012 22013 31110 413026 61159 136014 136016 144018 143021 14011 170025;
0183994370999992011012113004+43783-068867FM-12+0027MISM1V0201601N007719999999N9999999N1+00051+00041100091ADDMD1610541+9999OA139900881REMSYN146CMAN  21134 MISM1 46/// /1615 10005 20004 40009 56054 91300 333 91217 555 11014 22015 31227 414022 61259 152014 154015 150017 141019 13012 172026;
0183994370999992011012114004+43783-068867FM-12+0027MISM1V0201001N006719999999N9999999N1+00071+00061099851ADDMD1810511+9999OA139900771REMSYN146CMAN  21144 MISM1 46/// /1013 10007 20006 49985 58051 91400 333 91215 555 11012 22013 31334 413018 61359 106014 115013 127015 135013 15006 225026;
0183994370999992011012115004+43783-068867FM-12+0027MISM1V0201001N006219999999N9999999N1+00061+00061099741ADDMD1610481+9999OA139900671REMSYN146CMAN  21154 MISM1 46/// /1012 10006 20006 49974 56048 91500 333 91213 555 11011 22012 31422 411020 61459 102014 104014 114015 118016 10006 219023;
0189994370999992011012116004+43783-068867FM-12+0027MISM1V0200501N007219999999N9999999N1+00031+00031099351ADDMD1810741+9999OA139900821REMSYN152CMAN  21164 MISM1 46/// /0514 10003 20003 49935 58074 91600 333 91216 555 11014 22014 31540 406017 61559 051014 056015 063015 072015 0717 206018 206017;
0183994370999992011012117004+43783-068867FM-12+0027MISM1V0200401N009319999999N9999999N1+00031+00031098881ADDMD1810971+9999OA139901031REMSYN146CMAN  21174 MISM1 46/// /0418 10003 20003 49888 58097 91700 333 91220 555 11017 22018 31654 405020 61659 045018 052018 059018 050017 04009 205021;
0183994370999992011012118004+43783-068867FM-12+0027MISM1V0200201N012319999999N9999999N1+00061+00061098511ADDMD1611231+9999OA139901391REMSYN146CMAN  21184 MISM1 46/// /0224 10006 20006 49851 56123 91800 333 91227 555 11022 22024 31759 402027 61759 021024 026022 029020 036020 04008 224018;
0225994370999992011012119004+43783-068867FM-12+0027MISM1V0203201N022619999999N9999999N1-00211-00211098411ADDMD1610941+9999OA139902421REMSYN188CMAN  21194 MISM1 46/// /3244 11021 21021 49841 56094 91900 333 91247 555 11040 22043 31856 432048 61859 320041 326039 342034 352029 00010 231849 343087 340081 337081 332074 334064 339060;
0183994370999992011012120004+43783-068867FM-12+0027MISM1V0203101N021119999999N9999999N1-00401-00411098601ADDMD1510281+9999OA139902261REMSYN146CMAN  21204 MISM1 46/// /3141 11040 21041 49860 55028 92000 333 91244 555 11038 22041 31908 432052 61959 309040 311040 323036 327039 32011 231015;
0183994370999992011012121004+43783-068867FM-12+0027MISM1V0203201N019019999999N9999999N1-00411-00441098811ADDMD1310301+9999OA139902211REMSYN146CMAN  21214 MISM1 46/// /3237 11041 21044 49881 53030 92100 333 91243 555 11034 22036 32026 431050 62059 312040 306038 308041 308044 31023 215013;
0017994370999992011012122004+43783-068867FM-12+0027MISM1V0203101N021119999999N9999999N1-00411-00551099051ADDMD1310641+9999
0183994370999992011012123004+43783-068867FM-12+0027MISM1V0203001N020619999999N9999999N1-00381-00691099281ADDMD1310681+9999OA139902321REMSYN146CMAN  21234 MISM1 46/// /3040 11038 21069 49928 53068 92300 333 91245 555 11037 22040 32220 431045 62259 300036 305036 304039 307037 31018 261012;
0177994370999992011012200004+43783-068867FM-12+0027MISM1V0202901N019019999999N9999999N1-00321-00811099421ADDMD1110611+9999OA139902211REMSYN140CMAN  22004 MISM1 46/// /2937 11032 21081 49942 51061 90000 333 91243 555 11034 22037 32331 429045 62359 291037 293036 288035 294032 296025;
0183994370999992011012201004+43783-068867FM-12+0027MISM1V0202801N021119999999N9999999N1-00371-00851099551ADDMD1110501+9999OA139902321REMSYN146CMAN  22014 MISM1 46/// /2841 11037 21085 49955 51050 90100 333 91245 555 11037 22040 30023 429047 60059 285038 286038 286040 286038 28010 012011;
0243994370999992011012202004+43783-068867FM-12+0027MISM1V0202901N019519999999N9999999N1-00461-00981099691ADDMD1210411+9999OA139902161REMSYN206CMAN  22024 MISM1 46/// /2938 11046 21098 49969 52041 90200 333 91242 555 11035 22037 30111 429047 60159 285038 289037 292037 287039 28007 272309 60149 229065 237070 239070 234077 233072 234063 82408 90112;
0017994370999992011012203004+43783-068867FM-12+0027MISM1V0202901N019519999999N9999999N1-00551-01101099831ADDMD1310411+9999
0017994370999992011012204004+43783-068867FM-12+0027MISM1V0202801N021119999999N9999999N1-00601-01121099931ADDMD1110381+9999
0243994370999992011012205004+43783-068867FM-12+0027MISM1V0202901N021119999999N9999999N1-00641-01271100051ADDMD1110361+9999OA139902371REMSYN206CMAN  22054 MISM1 46/// /2941 11064 21127 40005 51036 90500 333 91246 555 11037 22040 30423 429047 60459 290040 289039 290039 286039 28010 252006 60449 169033 188038 196042 195047 177024 191041 82005 90416;
0183994370999992011012206004+43783-068867FM-12+0027MISM1V0202801N015919999999N9999999N1-00661-01271100201ADDMD1310371+9999OA139901901REMSYN146CMAN  22064 MISM1 46/// /2831 11066 21127 40020 53037 90600 333 91237 555 11029 22031 30500 428047 60559 278031 280031 282031 286030 28011 269017;
0183994370999992011012207004+43783-068867FM-12+0027MISM1V0202801N017519999999N9999999N1-00671-01331100291ADDMD1110361+9999OA139901961REMSYN146CMAN  22074 MISM1 46/// /2834 11067 21133 40029 51036 90700 333 91238 555 11031 22033 30657 428041 60659 282034 282032 278032 280032 27010 284015;
0183994370999992011012208004+43783-068867FM-12+0027MISM1V0202801N016419999999N9999999N1-00651-01341100351ADDMD1110301+9999OA139901851REMSYN146CMAN  22084 MISM1 46/// /2832 11065 21134 40035 51030 90800 333 91236 555 11030 22032 30741 428045 60759 281033 280034 281035 281035 28010 280017;
0183994370999992011012209004+43783-068867FM-12+0027MISM1V0202901N017019999999N9999999N1-00681-01331100411ADDMD1110211+9999OA139902011REMSYN146CMAN  22094 MISM1 46/// /2933 11068 21133 40041 51021 90900 333 91239 555 11031 22033 30810 428042 60859 284032 283033 281034 284035 28010 283017;
0017994370999992011012210004+43783-068867FM-12+0027MISM1V0202901N014419999999N9999999N1-00761-01461100561ADDMD1310271+9999
0183994370999992011012211004+43783-068867FM-12+0027MISM1V0202801N012319999999N9999999N1-00761-01401100661ADDMD1310311+9999OA139901441REMSYN146CMAN  22114 MISM1 46/// /2824 11076 21140 40066 53031 91100 333 91228 555 11023 22024 31021 430033 61059 288025 285027 286027 298028 28009 300017;
0207994370999992011012212004+43783-068867FM-12+0027MISM1V0202901N013419999999N9999999N1-00781-01381100761ADDMD1110351+9999OA139901601REMSYN170CMAN  22124 MISM1 46/// /2926 11078 21138 40076 51035 91200 333 91231 555 11024 22026 31137 430034 61159 290027 292026 295025 292025 29010 320037 60115 70000 77/// 7R///;
0183994370999992011012213004+43783-068867FM-12+0027MISM1V0202901N012319999999N9999999N1-00801-01421100941ADDMD1310381+9999OA139901441REMSYN146CMAN  22134 MISM1 46/// /2924 11080 21142 40094 53038 91300 333 91228 555 11022 22024 31202 429033 61259 290024 293023 294025 290026 29008 313015;
0183994370999992011012214004+43783-068867FM-12+0027MISM1V0202701N011319999999N9999999N1-00811-01471101081ADDMD1310421+9999OA139901241REMSYN146CMAN  22144 MISM1 46/// /2722 11081 21147 40108 53042 91400 333 91224 555 11020 22022 31305 429032 61359 277021 276020 282020 287022 29010 306014;
0183994370999992011012215004+43783-068867FM-12+0027MISM1V0202801N010819999999N9999999N1-00781-01461101131ADDMD1110371+9999OA139901291REMSYN146CMAN  22154 MISM1 46/// /2821 11078 21146 40113 51037 91500 333 91225 555 11019 22021 31438 428026 61459 283021 276021 283021 279019 28011 304014;
0183994370999992011012216004+43783-068867FM-12+0027MISM1V0202801N009819999999N9999999N1-00751-01451101171ADDMD1110231+9999OA139901131REMSYN146CMAN  22164 MISM1 46/// /2819 11075 21145 40117 51023 91600 333 91222 555 11018 22019 31518 428026 61559 278018 282018 282018 282019 28013 327012;
0180994370999992011012217004+43783-068867FM-12+0027MISM1V0202901N007719999999N9999999N1-00701-01361101131ADDMD1010051+9999OA139900981REMSYN143CMAN  22174 MISM1 46/// /2915 11070 21136 40113 50005 91700 333 91219 555 11014 22015 31606 428023 61659 282014 279016 283017 278018 27013 31/;
0183994370999992011012218004+43783-068867FM-12+0027MISM1V0202901N006719999999N9999999N1-00651-01431101081ADDMD1810051+9999OA139900821REMSYN146CMAN  22184 MISM1 46/// /2913 11065 21143 40108 58005 91800 333 91216 555 11012 22013 31726 429020 61759 296013 298014 293015 291016 29016 020013;
0183994370999992011012219004+43783-068867FM-12+0027MISM1V0202801N005119999999N9999999N1-00591-01491101111ADDMD1510061+9999OA139900621REMSYN146CMAN  22194 MISM1 46/// /2810 11059 21149 40111 55006 91900 333 91212 555 11010 22010 31833 430016 61859 283012 282012 294011 295012 28017 325014;
0017994370999992011012220004+43783-068867FM-12+0027MISM1V0202601N004619999999N9999999N1-00541-01421101201ADDMD1310071+9999
0017994370999992011012221004+43783-068867FM-12+0027MISM1V0202801N003619999999N9999999N1-00521-01511101221ADDMD1110141+9999
0183994370999992011012222004+43783-068867FM-12+0027MISM1V0202701N001519999999N9999999N1-00521-01391101241ADDMD1110131+9999OA139900311REMSYN146CMAN  22224 MISM1 46/// /2703 11052 21139 40124 51013 92200 333 91206 555 11003 22003 32114 427013 62159 269006 275008 278008 261008 26024 296009;
0017994370999992011012223004+43783-068867FM-12+0027MISM1V0202801N003619999999N9999999N1-00481-01351101301ADDMD1310101+9999
0017994370999992011012300004+43783-068867FM-12+0027MISM1V0202501N003619999999N9999999N1-00451-01171101301ADDMD1210081+9999
0183994370999992011012301004+43783-068867FM-12+0027MISM1V0202601N002119999999N9999999N1-00441-01101101251ADDMD1010001+9999OA139900361REMSYN146CMAN  23014 MISM1 46/// /2604 11044 21110 40125 50000 90100 333 91207 555 11004 22004 30052 426012 60059 257007 249006 259007 275005 25024 325005;
0180994370999992011012302004+43783-068867FM-12+0027MISM1V0201801N004619999999N9999999N1-00421-01001101321ADDMD1510001+9999OA139900511REMSYN143CMAN  23024 MISM1 46/// /1809 11042 21100 40132 55000 90200 333 91210 555 11008 22009 30107 428010 60159 184005 317002 301004 286006 26026 33/;
0183994370999992011012303004+43783-068867FM-12+0027MISM1V0201401N001519999999N9999999N1-00421-00911101181ADDMD1810121+9999OA139900211REMSYN146CMAN  23034 MISM1 46/// /1403 11042 21091 40118 58012 90300 333 91204 555 11003 22003 30234 414011 60259 155003 162004 147006 154005 05024 347004;
0180994370999992011012304004+43783-068867FM-12+0027MISM1V0200801N003119999999N9999999N1-00391-00811101011ADDMD1810241+9999OA139900361REMSYN143CMAN  23044 MISM1 46/// /0806 11039 21081 40101 58024 90400 333 91207 555 11006 22006 30339 410011 60359 093006 095007 099008 114007 13020 34/;
0183994370999992011012305004+43783-068867FM-12+0027MISM1V0200901N004619999999N9999999N1-00381-00741100961ADDMD1610361+9999OA139900571REMSYN146CMAN  23054 MISM1 46/// /0909 11038 21074 40096 56036 90500 333 91211 555 11009 22009 30458 407011 60459 070006 068004 081005 081006 08017 025001;
0243994370999992011012306004+43783-068867FM-12+0027MISM1V0200401N005719999999N9999999N1-00481-00581100991ADDMD1510191+9999OA139900621REMSYN206CMAN  23064 MISM1 46/// /0411 11048 21058 40099 55019 90600 333 91212 555 11010 22011 30557 404012 60559 043009 063004 108005 104009 10019 352309 60549 247069 238072 241066 238069 240062 244062 82408 90534;
0183994370999992011012307004+43783-068867FM-12+0027MISM1V0200201N008219999999N9999999N1-00531-00611100971ADDMD1610041+9999OA139900931REMSYN146CMAN  23074 MISM1 46/// /0216 11053 21061 40097 56004 90700 333 91218 555 11015 22016 30652 403020 60659 023017 037013 033012 030011 03018 008003;
0183994370999992011012308004+43783-068867FM-12+0027MISM1V0200101N009819999999N9999999N1-00571-00701100931ADDMD1810031+9999OA139901081REMSYN146CMAN  23084 MISM1 46/// /0119 11057 21070 40093 58003 90800 333 91221 555 11018 22019 30741 402021 60759 017018 021017 020017 022017 02014 347004;
0183994370999992011012309004+43783-068867FM-12+0027MISM1V0200101N008719999999N9999999N1-00571-00861100941ADDMD1710051+9999OA139901081REMSYN146CMAN  23094 MISM1 46/// /0117 11057 21086 40094 57005 90900 333 91221 555 11015 22016 30804 401022 60859 012016 006017 007017 009017 01015 344006;
0183994370999992011012310004+43783-068867FM-12+0027MISM1V0203601N009819999999N9999999N1-00651-00871100881ADDMD1810091+9999OA139901131REMSYN146CMAN  23104 MISM1 46/// /3619 11065 21087 40088 58009 91000 333 91222 555 11018 22019 30948 436024 60959 004019 003020 359019 001017 00017 009008;
0183994370999992011012311004+43783-068867FM-12+0027MISM1V0200201N010319999999N9999999N1-00691-00841100911ADDMD1510001+9999OA139901241REMSYN146CMAN  23114 MISM1 46/// /0220 11069 21084 40091 55000 91100 333 91224 555 11019 22020 31056 402025 61059 017021 018019 016019 007019 00013 333012;
0183994370999992011012312004+43783-068867FM-12+0027MISM1V0200101N010819999999N9999999N1-00711-00851100901ADDMD1610041+9999OA139901241REMSYN146CMAN  23124 MISM1 46/// /0121 11071 21085 40090 56004 91200 333 91224 555 11019 22021 31108 402024 61159 013020 013019 015019 018019 02018 016012;
0183994370999992011012313004+43783-068867FM-12+0027MISM1V0200201N010819999999N9999999N1-00771-00931100931ADDMD1210051+9999OA139901241REMSYN146CMAN  23134 MISM1 46/// /0221 11077 21093 40093 52005 91300 333 91224 555 11020 22021 31231 402026 61259 014021 018021 016022 013021 01018 017013;
0183994370999992011012314004+43783-068867FM-12+0027MISM1V0200101N011319999999N9999999N1-00811-00951100991ADDMD1310081+9999OA139901291REMSYN146CMAN  23144 MISM1 46/// /0122 11081 21095 40099 53008 91400 333 91225 555 11020 22021 31311 401030 61359 005024 008024 017022 019023 01015 042014;
0183994370999992011012315004+43783-068867FM-12+0027MISM1V0203601N012919999999N9999999N1-00861-01001101041ADDMD1310141+9999OA139901441REMSYN146CMAN  23154 MISM1 46/// /3625 11086 21100 40104 53014 91500 333 91228 555 11023 22025 31435 402029 61459 003025 003023 014023 009024 01017 002013;
0243994370999992011012316004+43783-068867FM-12+0027MISM1V0203601N012919999999N9999999N1-00891-01111101011ADDMD1010081+9999OA139901441REMSYN206CMAN  23164 MISM1 46/// /3625 11089 21111 40101 50008 91600 333 91228 555 11023 22024 31541 436030 61559 000024 357026 357026 358025 35012 010913 61549 080109 095098 090108 086102 091099 094094 80912 91522;
0183994370999992011012317004+43783-068867FM-12+0027MISM1V0203601N011819999999N9999999N1-00891-01131100971ADDMD1010001+9999OA139901291REMSYN146CMAN  23174 MISM1 46/// /3623 11089 21113 40097 50000 91700 333 91225 555 11021 22022 31604 436030 61659 355023 353024 357024 355024 35010 007014;
0183994370999992011012318004+43783-068867FM-12+0027MISM1V0203501N011819999999N9999999N1-00891-01221100981ADDMD1610061+9999OA139901391REMSYN146CMAN  23184 MISM1 46/// /3523 11089 21122 40098 56006 91800 333 91227 555 11022 22023 31721 436028 61759 349022 353022 353022 356022 35008 011014;
0017994370999992011012319004+43783-068867FM-12+0027MISM1V0203401N009319999999N9999999N1-00861-01331101041ADDMD1310031+9999
0183994370999992011012320004+43783-068867FM-12+0027MISM1V0203401N009319999999N9999999N1-00801-01511101131ADDMD1310161+9999OA139901181REMSYN146CMAN  23204 MISM1 46/// /3418 11080 21151 40113 53016 92000 333 91223 555 11017 22018 31941 434024 61959 337018 332017 337016 333017 34014 011009;
0017994370999992011012321004+43783-068867FM-12+0027MISM1V0203201N010819999999N9999999N1-00761-01621101171ADDMD1110191+9999
0225994370999992011012322004+43783-068867FM-12+0027MISM1V0203101N011319999999N9999999N1-00761-01631101281ADDMD1310241+9999OA139901391REMSYN188CMAN  23224 MISM1 46/// /3122 11076 21163 40128 53024 92200 333 91227 555 11021 22022 32150 432029 62159 308024 319023 317020 312020 31011 062149 093159 101176 095159 094165 096160 092157;
0183994370999992011012323004+43783-068867FM-12+0027MISM1V0203201N013419999999N9999999N1-00931-01731101421ADDMD1310291+9999OA139901541REMSYN146CMAN  23234 MISM1 46/// /3226 11093 21173 40142 53029 92300 333 91230 555 11024 22025 32235 431033 62259 323027 305029 307028 311028 31015 049008;
0017994370999992011012400004+43783-068867FM-12+0027MISM1V0203201N014919999999N9999999N1-01121-01821101561ADDMD1310391+9999
0017994370999992011012401004+43783-068867FM-12+0027MISM1V0203201N015419999999N9999999N1-01221-01781101651ADDMD1110371+9999
0017994370999992011012402004+43783-068867FM-12+0027MISM1V0203101N015419999999N9999999N1-01361-01861101781ADDMD1110361+9999
0183994370999992011012403004+43783-068867FM-12+0027MISM1V0203201N015919999999N9999999N1-01491-01971101831ADDMD1110271+9999OA139901801REMSYN146CMAN  24034 MISM1 46/// /3231 11149 21197 40183 51027 90300 333 91235 555 11028 22030 30255 431038 60259 312030 323029 329030 327030 32013 064014;
0183994370999992011012404004+43783-068867FM-12+0027MISM1V0203201N014419999999N9999999N1-01591-01981101921ADDMD1110271+9999OA139901601REMSYN146CMAN  24044 MISM1 46/// /3228 11159 21198 40192 51027 90400 333 91231 555 11025 22027 30301 431038 60359 316030 316029 318030 309030 31010 050016;
0183994370999992011012405004+43783-068867FM-12+0027MISM1V0203201N013919999999N9999999N1-01671-01981101991ADDMD1310211+9999OA139901541REMSYN146CMAN  24054 MISM1 46/// /3227 11167 21198 40199 53021 90500 333 91230 555 11025 22026 30412 431035 60459 314026 307026 314025 315027 31012 087016;
0183994370999992011012406004+43783-068867FM-12+0027MISM1V0203001N013919999999N9999999N1-01661-01901102061ADDMD1110231+9999OA139901651REMSYN146CMAN  24064 MISM1 46/// /3027 11166 21190 40206 51023 90600 333 91232 555 11025 22027 30544 431036 60559 306027 306028 304028 306028 30013 090018;
0183994370999992011012407004+43783-068867FM-12+0027MISM1V0203101N014419999999N9999999N1-01681-02011102151ADDMD1310231+9999OA139901651REMSYN146CMAN  24074 MISM1 46/// /3128 11168 21201 40215 53023 90700 333 91232 555 11026 22028 30640 431036 60659 304030 304031 310030 306028 30012 085019;
0017994370999992011012408004+43783-068867FM-12+0027MISM1V0203001N013419999999N9999999N1-01701-01941102221ADDMD1210231+9999
0183994370999992011012409004+43783-068867FM-12+0027MISM1V0203001N014919999999N9999999N1-01731-02011102251ADDMD1110191+9999OA139901751REMSYN146CMAN  24094 MISM1 46/// /3029 11173 21201 40225 51019 90900 333 91234 555 11027 22029 30842 430037 60859 298030 298029 300029 298030 30014 102020;
0183994370999992011012410004+43783-068867FM-12+0027MISM1V0203101N015419999999N9999999N1-01801-02211102321ADDMD1210171+9999OA139901851REMSYN146CMAN  24104 MISM1 46/// /3130 11180 21221 40232 52017 91000 333 91236 555 11028 22030 30921 431038 60959 304029 303030 301029 306031 30011 108018;
0183994370999992011012411004+43783-068867FM-12+0027MISM1V0203001N014419999999N9999999N1-01811-02111102371ADDMD1310151+9999OA139901701REMSYN146CMAN  24114 MISM1 46/// /3028 11181 21211 40237 53015 91100 333 91233 555 11026 22028 31017 430035 61059 300028 302027 302028 303028 30012 091021;
0213994370999992011012412004+43783-068867FM-12+0027MISM1V0203001N013919999999N9999999N1-01761-02021102461ADDMD1310211+9999OA139901601REMSYN176CMAN  24124 MISM1 46/// /3027 11176 21202 40246 53021 91200 333 91231 555 11025 22027 31102 430035 61159 299026 303026 307026 305028 30012 090000 60010 60050 70000 77TR/ 7TR//;
0243994370999992011012413004+43783-068867FM-12+0027MISM1V0203001N012319999999N9999999N1-01751-01971102531ADDMD1310211+9999OA139901491REMSYN206CMAN  24134 MISM1 46/// /3024 11175 21197 40253 53021 91300 333 91229 555 11023 22024 31223 429032 61259 307024 299023 297024 296025 30014 101511 61249 137087 140085 147087 143083 145088 146090 81510 91158;
0183994370999992011012414004+43783-068867FM-12+0027MISM1V0203101N012319999999N9999999N1-01781-02311102601ADDMD1110231+9999OA139901391REMSYN146CMAN  24144 MISM1 46/// /3124 11178 21231 40260 51023 91400 333 91227 555 11022 22023 31316 430032 61359 305025 303025 299026 302026 30013 098020;
0017994370999992011012415004+43783-068867FM-12+0027MISM1V0203001N010819999999N9999999N1-01731-02081102651ADDMD1110191+9999
0183994370999992011012416004+43783-068867FM-12+0027MISM1V0202901N010319999999N9999999N1-01631-02101102611ADDMD1010081+9999OA139901241REMSYN146CMAN  24164 MISM1 46/// /2920 11163 21210 40261 50008 91600 333 91224 555 11019 22020 31553 430029 61559 296022 295021 298021 301021 30012 118017;
0017994370999992011012417004+43783-068867FM-12+0027MISM1V0203101N013419999999N9999999N1-01491-01981102601ADDMD1010001+9999
0236994370999992011012418004+43783-068867FM-12+0027MISM1V0203201N013419999999N9999999N1-01451-02151102501ADDMD1810151+9999OA139901491REMSYN199CMAN  24184 MISM1 46/// /3226 11145 21215 40250 58015 91800 333 91229 555 11024 22026 31744 430035 61759 315027 302027 302029 296026 30010 21725 42913 61749 305090 302096 301094 302090 299095 303091;
0183994370999992011012419004+43783-068867FM-12+0027MISM1V0203001N014419999999N9999999N1-01341-02051102551ADDMD1510061+9999OA139901701REMSYN146CMAN  24194 MISM1 46/// /3028 11134 21205 40255 55006 91900 333 91233 555 11026 22028 31830 431033 61859 303026 302026 307026 310026 31015 097020;
0180994370999992011012420004+43783-068867FM-12+0027MISM1V0203201N010319999999N9999999N1-01281-02081102591ADDMD1510001+9999OA139901181REMSYN143CMAN  24204 MISM1 46/// /3220 11128 21208 40259 55000 92000 333 91223 555 11018 22020 31916 431033 61959 312024 309024 309025 309026 31015 08/;
0183994370999992011012421004+43783-068867FM-12+0027MISM1V0203101N011819999999N9999999N1-01231-02061102641ADDMD1210141+9999OA139901341REMSYN146CMAN  24214 MISM1 46/// /3123 11123 21206 40264 52014 92100 333 91226 555 11021 22022 32013 430034 62059 306022 301022 306024 298026 30014 091018;
0183994370999992011012422004+43783-068867FM-12+0027MISM1V0203101N011819999999N9999999N1-01261-02001102671ADDMD1110121+9999OA139901341REMSYN146CMAN  24224 MISM1 46/// /3123 11126 21200 40267 51012 92200 333 91226 555 11021 22023 32153 430029 62159 298024 295023 292022 294022 30015 096021;
0183994370999992011012423004+43783-068867FM-12+0027MISM1V0203101N011819999999N9999999N1-01221-01921102761ADDMD1310171+9999OA139901441REMSYN146CMAN  24234 MISM1 46/// /3123 11122 21192 40276 53017 92300 333 91228 555 11021 22023 32208 430030 62259 302022 298024 304023 301024 30005 292022;
0183994370999992011012500004+43783-068867FM-12+0027MISM1V0203101N010819999999N9999999N1-01231-01961102831ADDMD1310191+9999OA139901241REMSYN146CMAN  25004 MISM1 46/// /3121 11123 21196 40283 53019 90000 333 91224 555 11019 22020 32307 431031 62359 295021 292021 296023 301023 29015 095020;
0017994370999992011012501004+43783-068867FM-12+0027MISM1V0203101N008719999999N9999999N1-01251-02031102801ADDMD1010131+9999
0183994370999992011012502004+43783-068867FM-12+0027MISM1V0203001N007719999999N9999999N1-01251-02151102811ADDMD1110051+9999OA139900981REMSYN146CMAN  25024 MISM1 46/// /3015 11125 21215 40281 51005 90200 333 91219 555 11014 22015 30145 431025 60159 307017 306019 302019 308017 30015 097025;
0183994370999992011012503004+43783-068867FM-12+0027MISM1V0203001N009819999999N9999999N1-01251-02011102841ADDMD1510001+9999OA139901081REMSYN146CMAN  25034 MISM1 46/// /3019 11125 21201 40284 55000 90300 333 91221 555 11018 22019 30244 430022 60259 300018 306017 303016 305016 30023 106030;
0183994370999992011012504004+43783-068867FM-12+0027MISM1V0203001N008719999999N9999999N1-01281-02141102821ADDMD1410001+9999OA139901031REMSYN146CMAN  25044 MISM1 46/// /3017 11128 21214 40282 54000 90400 333 91220 555 11015 22016 30306 430024 60359 305016 311016 306017 302019 29018 109027;
0183994370999992011012505004+43783-068867FM-12+0027MISM1V0203101N008719999999N9999999N1-01221-02141102811ADDMD1010001+9999OA139900981REMSYN146CMAN  25054 MISM1 46/// /3117 11122 21214 40281 50000 90500 333 91219 555 11015 22016 30413 430021 60459 314017 312017 307017 303018 30017 119027;
0183994370999992011012506004+43783-068867FM-12+0027MISM1V0203001N006719999999N9999999N1-01231-02131102781ADDMD1810061+9999OA139900721REMSYN146CMAN  25064 MISM1 46/// /3013 11123 21213 40278 58006 90600 333 91214 555 11012 22013 30528 431021 60559 312013 316014 317015 308016 31019 118021;
0180994370999992011012507004+43783-068867FM-12+0027MISM1V0203301N005719999999N9999999N1-01171-02011102771ADDMD1710051+9999OA139900721REMSYN143CMAN  25074 MISM1 46/// /3311 11117 21201 40277 57005 90700 333 91214 555 11010 22011 30603 432017 60659 331009 327011 313012 313012 31019 10/;
0017994370999992011012508004+43783-068867FM-12+0027MISM1V0203501N002119999999N9999999N1-01181-02041102701ADDMD1810111+9999
0017994370999992011012509004+43783-068867FM-12+0027MISM1V0209999C000019999999N9999999N1-01141-02071102641ADDMD1810141+9999
0243994370999992011012510004+43783-068867FM-12+0027MISM1V0209999C000019999999N9999999N1-01081-01881102581ADDMD1610191+9999OA139900001REMSYN206CMAN  25104 MISM1 46/// /0000 11108 21188 40258 56019 91000 333 91200 555 30948 415003 60959 064000 150001 221001 171001 073 106024 109024 100620 60949 071142 074133 073152 062146 061147 062149 80717 90923;
0243994370999992011012511004+43783-068867FM-12+0027MISM1V0201101N003619999999N9999999N1-00981-01521102511ADDMD1810191+9999OA139900461REMSYN206CMAN  25114 MISM1 46/// /1107 11098 21152 40251 58019 91100 333 91209 555 11007 22007 31059 411009 61059 109006 101005 093005 110004 12013 110919 61049 084144 080144 083141 081155 069146 069134 80917 91017;
0243994370999992011012512004+43783-068867FM-12+0027MISM1V0201301N003619999999N9999999N1-00891-01141102491ADDMD1610151+9999OA139900461REMSYN206CMAN  25124 MISM1 46/// /1307 11089 21114 40249 56015 91200 333 91209 555 11006 22007 31126 411010 61159 141007 125007 139005 116006 12014 120816 61149 077120 077130 080129 082131 081123 089125 80814 91140;
0180994370999992011012513004+43783-068867FM-12+0027MISM1V0201201N004619999999N9999999N1-00761-00851102421ADDMD1710161+9999OA139900571REMSYN143CMAN  25134 MISM1 46/// /1209 11076 21085 40242 57016 91300 333 91211 555 11008 22009 31257 413012 61259 125008 129008 135007 126007 13023 10/;
0225994370999992011012514004+43783-068867FM-12+0027MISM1V0202101N003619999999N9999999N1-00621-00681102321ADDMD1810191+9999OA139900461REMSYN188CMAN  25144 MISM1 46/// /2107 11062 21068 40232 58019 91400 333 91209 555 11007 22007 31314 414015 61359 203007 167008 152009 144010 141706 61349 172036 166042 159041 165041 156039 167036;
0225994370999992011012515004+43783-068867FM-12+0027MISM1V0202101N007219999999N9999999N1-00511-00641102221ADDMD1810271+9999OA139900771REMSYN188CMAN  25154 MISM1 46/// /2114 11051 21064 40222 58027 91500 333 91215 555 11013 22014 31456 420017 61459 199012 199012 202013 212011 21023 121449 089158 092159 092157 090146 084148 090165;
0188994370999992011012516004+43783-068867FM-12+0027MISM1V0202101N007719999999N9999999N1-00361-00441102091ADDMD1810331+9999OA139900881REMSYN151CMAN  25164 MISM1 46/// /2115 11036 21044 40209 58033 91600 333 91217 555 11014 22014 31532 422023 61559 212014 217016 222018 181013 17016 12005 15390;
0183994370999992011012517004+43783-068867FM-12+0027MISM1V0202001N009319999999N9999999N1-00251-00351101931ADDMD1810391+9999OA139901031REMSYN146CMAN  25174 MISM1 46/// /2018 11025 21035 40193 58039 91700 333 91220 555 11017 22018 31656 420021 61659 200018 202017 212018 203018 20019 132021;
0017994370999992011012519004+43783-068867FM-12+0027MISM1V0203101N005119999999N9999999N1-00311-00331101781ADDMD1610311+9999
0183994370999992011012520004+43783-068867FM-12+0027MISM1V0203301N008719999999N9999999N1-00441-00451101781ADDMD1610151+9999OA139900981REMSYN146CMAN  25204 MISM1 46/// /3317 11044 21045 40178 56015 92000 333 91219 555 11016 22017 31958 433019 61959 328015 329013 331013 335011 32018 157019;
0017994370999992011012521004+43783-068867FM-12+0027MISM1V0203001N008219999999N9999999N1-00491-00531101831ADDMD1510001+9999
0183994370999992011012522004+43783-068867FM-12+0027MISM1V0202901N005719999999N9999999N1-00541-00651101841ADDMD1210061+9999OA139900621REMSYN146CMAN  25224 MISM1 46/// /2911 11054 21065 40184 52006 92200 333 91212 555 11010 22011 32112 429019 62159 291011 290012 296011 295013 29016 168017;
0183994370999992011012523004+43783-068867FM-12+0027MISM1V0202901N006719999999N9999999N1-00461-00591101901ADDMD1310121+9999OA139900821REMSYN146CMAN  25234 MISM1 46/// /2913 11046 21059 40190 53012 92300 333 91216 555 11012 22013 32259 429016 62259 289012 287012 282010 275010 29015 151018;
0183994370999992011012600004+43783-068867FM-12+0027MISM1V0203101N005119999999N9999999N1-00571-00701101961ADDMD1310131+9999OA139900571REMSYN146CMAN  26004 MISM1 46/// /3110 11057 21070 40196 53013 90000 333 91211 555 11009 22010 32302 429017 62359 309010 298012 303012 301013 29014 160016;
0183994370999992011012601004+43783-068867FM-12+0027MISM1V0203401N004119999999N9999999N1-00561-00701101951ADDMD1110111+9999OA139900511REMSYN146CMAN  26014 MISM1 46/// /3408 11056 21070 40195 51011 90100 333 91210 555 11008 22008 30013 432013 60059 335008 332008 325008 323009 31023 155022;
0017994370999992011012602004+43783-068867FM-12+0027MISM1V0200101N003119999999N9999999N1-00561-00631101941ADDMD1110041+9999
0182994370999992011012603004+43783-068867FM-12+0027MISM1V0203601N002619999999N9999999N1-00561-00671102001ADDMD1310041+9999OA139900361REMSYN145CMAN  26034 MISM1 46/// /3605 11056 21067 40200 53004 90300 333 91207 555 11005 22005 30209 436010 60259 358005 000006 354007 003007 00024 15035;
0183994370999992011012604004+43783-068867FM-12+0027MISM1V0203601N002619999999N9999999N1-00521-00601102011ADDMD1210061+9999OA139900361REMSYN146CMAN  26044 MISM1 46/// /3605 11052 21060 40201 52006 90400 333 91207 555 11005 22005 30338 435008 60359 000005 002005 354006 351006 35012 176023;
0225994370999992011012605004+43783-068867FM-12+0027MISM1V0203301N003119999999N9999999N1-00541-00581102041ADDMD1110101+9999OA139900411REMSYN188CMAN  26054 MISM1 46/// /3306 11054 21058 40204 51010 90500 333 91208 555 11005 22005 30405 401009 60459 340006 350005 352005 358005 00024 160449 330050 334051 330046 321045 322040 324040;
0183994370999992011012606004+43783-068867FM-12+0027MISM1V0203501N003119999999N9999999N1-00571-00621102011ADDMD1010001+9999OA139900361REMSYN146CMAN  26064 MISM1 46/// /3506 11057 21062 40201 50000 90600 333 91207 555 11005 22006 30503 432009 60559 350006 345006 337005 337006 34024 245030;
0183994370999992011012607004+43783-068867FM-12+0027MISM1V0203601N003619999999N9999999N1-00551-00641102041ADDMD1210031+9999OA139900411REMSYN146CMAN  26074 MISM1 46/// /3607 11055 21064 40204 52003 90700 333 91208 555 11007 22007 30637 436011 60659 001008 357008 004008 007007 00018 002024;
0017994370999992011012608004+43783-068867FM-12+0027MISM1V0200401N004119999999N9999999N1-00461-00571102011ADDMD1710031+9999
0017994370999992011012609004+43783-068867FM-12+0027MISM1V0200301N002619999999N9999999N1-00431-00561102041ADDMD1210031+9999
0183994370999992011012610004+43783-068867FM-12+0027MISM1V0203601N002119999999N9999999N1-00371-00571102061ADDMD1510001+9999OA139900211REMSYN146CMAN  26104 MISM1 46/// /3604 11037 21057 40206 55000 91000 333 91204 555 11003 22004 30900 404006 60959 005003 356002 000001 344000 34012 071018;
0017994370999992011012611004+43783-068867FM-12+0027MISM1V0200201N002619999999N9999999N1-00341-00481102071ADDMD1110061+9999
0183994370999992011012612004+43783-068867FM-12+0027MISM1V0200101N002119999999N9999999N1-00321-00421102081ADDMD1210041+9999OA139900261REMSYN146CMAN  26124 MISM1 46/// /0104 11032 21042 40208 52004 91200 333 91205 555 11004 22004 31129 402007 61159 010004 007005 013004 017004 03003 142021;
0183994370999992011012613004+43783-068867FM-12+0027MISM1V0203601N003119999999N9999999N1-00311-00321102071ADDMD1410001+9999OA139900361REMSYN146CMAN  26134 MISM1 46/// /3606 11031 21032 40207 54000 91300 333 91207 555 11005 22006 31235 401011 61259 355007 359008 010009 018008 01005 011017;
0231994370999992011012614004+43783-068867FM-12+0027MISM1V0203001N003119999999N9999999N1-00231-00241102051ADDMD1410001+9999OA139900411REMSYN194CMAN  26144 MISM1 46/// /3006 11023 21024 40205 54000 91400 333 91208 555 11006 22006 31359 431008 61359 308005 323005 332004 342005 35018 190604 61349 059026 059023 049029 037025 043022 059028;
0183994370999992011012615004+43783-068867FM-12+0027MISM1V0203201N001019999999N9999999N1-00141-00211102051ADDMD1710031+9999OA139900151REMSYN146CMAN  26154 MISM1 46/// /3202 11014 21021 40205 57003 91500 333 91203 555 11002 22002 31400 430008 61459 315001 319002 284003 295005 30016 339017;
0183994370999992011012616004+43783-068867FM-12+0027MISM1V0201101N006719999999N9999999N1-00031-00331101871ADDMD1810201+9999OA139900721REMSYN146CMAN  26164 MISM1 46/// /1113 11003 21033 40187 58020 91600 333 91214 555 11012 22013 31558 411014 61559 110011 110011 110007 004003 32007 169013;
0183994370999992011012617004+43783-068867FM-12+0027MISM1V0201101N004619999999N9999999N1+00001-00341101831ADDMD1810221+9999OA139900571REMSYN146CMAN  26174 MISM1 46/// /1109 10000 21034 40183 58022 91700 333 91211 555 11008 22009 31609 411014 61659 105009 096010 110011 108009 11012 216013;
0183994370999992011012618004+43783-068867FM-12+0027MISM1V0200901N006219999999N9999999N1-00011-00321101681ADDMD1610371+9999OA139900671REMSYN146CMAN  26184 MISM1 46/// /0912 11001 21032 40168 56037 91800 333 91213 555 11011 22012 31755 410015 61759 096012 105010 109011 113010 09009 224009;
0180994370999992011012619004+43783-068867FM-12+0027MISM1V0200901N005719999999N9999999N1+00001-00351101571ADDMD1810301+9999OA139900671REMSYN143CMAN  26194 MISM1 46/// /0911 10000 21035 40157 58030 91900 333 91213 555 11011 22011 31816 410017 61859 092012 088013 088013 091013 09003 27/;
0183994370999992011012620004+43783-068867FM-12+0027MISM1V0200801N008719999999N9999999N1+00001-00351101441ADDMD1610391+9999OA139900981REMSYN146CMAN  26204 MISM1 46/// /0817 10000 21035 40144 56039 92000 333 91219 555 11016 22017 31959 408019 61959 080017 081015 083014 084013 08009 316011;
0183994370999992011012621004+43783-068867FM-12+0027MISM1V0200801N008719999999N9999999N1+00001-00341101421ADDMD1610261+9999OA139900981REMSYN146CMAN  26214 MISM1 46/// /0817 10000 21034 40142 56026 92100 333 91219 555 11015 22016 32045 407021 62059 076016 074016 070016 075015 08010 285011;
0183994370999992011012622004+43783-068867FM-12+0027MISM1V0200601N009819999999N9999999N1+00011-00321101371ADDMD1610201+9999OA139901081REMSYN146CMAN  26224 MISM1 46/// /0619 10001 21032 40137 56020 92200 333 91221 555 11017 22019 32150 407022 62159 070019 072019 074018 074018 06016 329010;
0183994370999992011012623004+43783-068867FM-12+0027MISM1V0200701N011319999999N9999999N1+00041-00251101311ADDMD1810131+9999OA139901241REMSYN146CMAN  26234 MISM1 46/// /0722 10004 21025 40131 58013 92300 333 91224 555 11020 22022 32257 407026 62259 069023 072022 071021 069020 07013 293012;
0017994370999992011012700004+43783-068867FM-12+0027MISM1V0200701N012919999999N9999999N1+00031-00311101231ADDMD1810191+9999
0017994370999992011012701004+43783-068867FM-12+0027MISM1V0200601N013419999999N9999999N1+00041-00281101121ADDMD1810251+9999
0183994370999992011012702004+43783-068867FM-12+0027MISM1V0200401N013419999999N9999999N1-00041-00141100881ADDMD1810431+9999OA139901601REMSYN146CMAN  27024 MISM1 46/// /0426 11004 21014 40088 58043 90200 333 91231 555 11024 22026 30153 404032 60159 037027 038026 041027 040028 05013 333010;
0036994370999992011012703004+43783-068867FM-12+0027MISM1V0200401N014919999999N9999999N1-00051-00151100711ADDMD1810522+9999EQDQ01+000522APC3  
0017994370999992011012704004+43783-068867FM-12+0027MISM1V0200301N014419999999N9999999N1-00051-00191100521ADDMD1610601+9999
0183994370999992011012705004+43783-068867FM-12+0027MISM1V0200201N012919999999N9999999N1-00181-00281100371ADDMD1610511+9999OA139901491REMSYN146CMAN  27054 MISM1 46/// /0225 11018 21028 40037 56051 90500 333 91229 555 11023 22025 30402 403036 60459 022027 023026 024029 026028 03013 344009;
0183994370999992011012706004+43783-068867FM-12+0027MISM1V0200301N016419999999N9999999N1-00221-00311100181ADDMD1710531+9999OA139901851REMSYN146CMAN  27064 MISM1 46/// /0332 11022 21031 40018 57053 90600 333 91236 555 11030 22032 30551 402037 60559 024032 023031 022030 024030 02016 334011;
0180994370999992011012707004+43783-068867FM-12+0027MISM1V0200201N016419999999N9999999N1-00221-00291100001ADDMD1810521+9999OA139901961REMSYN143CMAN  27074 MISM1 46/// /0232 11022 21029 40000 58052 90700 333 91238 555 11029 22031 30644 402039 60659 020032 020032 020030 023032 02017 00/;
0183994370999992011012708004+43783-068867FM-12+0027MISM1V0200101N017019999999N9999999N1-00311-00521099941ADDMD1610431+9999OA139901851REMSYN146CMAN  27084 MISM1 46/// /0133 11031 21052 49994 56043 90800 333 91236 555 11031 22033 30709 402040 60759 009032 012032 012031 014032 01012 019010;
0183994370999992011012709004+43783-068867FM-12+0027MISM1V0200101N018519999999N9999999N1-00401-00491099771ADDMD1610411+9999OA139902011REMSYN146CMAN  27094 MISM1 46/// /0136 11040 21049 49977 56041 90900 333 91239 555 11033 22035 30857 436041 60859 004036 006035 006034 006035 00010 022009;
0183994370999992011012710004+43783-068867FM-12+0027MISM1V0203601N019519999999N9999999N1-00381-00401099601ADDMD1810401+9999OA139902161REMSYN146CMAN  27104 MISM1 46/// /3638 11038 21040 49960 58040 91000 333 91242 555 11035 22037 30937 436043 60959 357036 359037 004037 002036 00014 346008;
0017994370999992011012711004+43783-068867FM-12+0027MISM1V0203601N018019999999N9999999N1-00401-00421099451ADDMD1610491+9999
0183994370999992011012712004+43783-068867FM-12+0027MISM1V0203501N017019999999N9999999N1-00421-00441099581ADDMD1510191+9999OA139901901REMSYN146CMAN  27124 MISM1 46/// /3533 11042 21044 49958 55019 91200 333 91237 555 11030 22032 31100 436044 61159 353033 353033 357034 358035 35016 014010;
0189994370999992011012713004+43783-068867FM-12+0027MISM1V0203501N019519999999N9999999N1-00461-00471099541ADDMD1610061+9999OA139902111REMSYN152CMAN  27134 MISM1 46/// /3538 11046 21047 49954 56006 91300 333 91241 555 11035 22038 31258 435041 61259 347035 350035 353035 354033 3511 345011 345012;
0183994370999992011012714004+43783-068867FM-12+0027MISM1V0203401N019019999999N9999999N1-00431-00451099501ADDMD1010051+9999OA139902211REMSYN146CMAN  27144 MISM1 46/// /3437 11043 21045 49950 50005 91400 333 91243 555 11034 22037 31330 434044 61359 340037 344037 346038 349037 35011 004009;
0017994370999992011012715004+43783-068867FM-12+0027MISM1V0203401N018519999999N9999999N1-00391-00481099541ADDMD1510041+9999
0183994370999992011012716004+43783-068867FM-12+0027MISM1V0203401N018019999999N9999999N1-00301-00461099621ADDMD1310081+9999OA139902011REMSYN146CMAN  27164 MISM1 46/// /3435 11030 21046 49962 53008 91600 333 91239 555 11032 22035 31531 434045 61559 339036 339038 341038 345039 34011 000005;
0180994370999992011012717004+43783-068867FM-12+0027MISM1V0203301N016419999999N9999999N1-00261-00511099701ADDMD1310201+9999OA139901901REMSYN143CMAN  27174 MISM1 46/// /3332 11026 21051 49970 53020 91700 333 91237 555 11030 22032 31604 434041 61659 327034 333033 334034 333034 33011 35/;
0183994370999992011012718004+43783-068867FM-12+0027MISM1V0203301N015919999999N9999999N1-00241-00561099771ADDMD1110231+9999OA139901901REMSYN146CMAN  27184 MISM1 46/// /3331 11024 21056 49977 51023 91800 333 91237 555 11029 22031 31722 432039 61759 322030 323030 324030 327031 32007 344004;
0017994370999992011012719004+43783-068867FM-12+0027MISM1V0203301N014419999999N9999999N1-00211-00621099891ADDMD1310271+9999
0017994370999992011012720004+43783-068867FM-12+0027MISM1V0203301N013419999999N9999999N1-00161-00531099971ADDMD1310271+9999
0183994370999992011012721004+43783-068867FM-12+0027MISM1V0203301N013419999999N9999999N1-00131-00571100101ADDMD1310331+9999OA139901441REMSYN146CMAN  27214 MISM1 46/// /3326 11013 21057 40010 53033 92100 333 91228 555 11024 22025 32000 433033 62059 329024 333024 331025 332027 33011 301003;
0183994370999992011012722004+43783-068867FM-12+0027MISM1V0203201N012919999999N9999999N1-00101-00731100251ADDMD1310361+9999OA139901391REMSYN146CMAN  27224 MISM1 46/// /3225 11010 21073 40025 53036 92200 333 91227 555 11023 22024 32136 432029 62159 315023 313024 318025 315024 31014 309002;
0183994370999992011012723004+43783-068867FM-12+0027MISM1V0203101N011819999999N9999999N1-00061-00731100351ADDMD1110381+9999OA139901291REMSYN146CMAN  27234 MISM1 46/// /3123 11006 21073 40035 51038 92300 333 91225 555 11021 22023 32250 432027 62259 315023 313024 317022 316022 31017 311004;
0287994370999992011012800004+43783-068867FM-12+0027MISM1V0203101N008219999999N9999999N1-00081-00711100421ADDMD1110321+9999OA139900981REMSYN250CMAN  28004 MISM1 46/// /3116 11008 21071 40042 51032 90000 333 91219 555 11015 22015 32317 431024 62359 320018 311019 311019 310019 30018 3333 20250 56229 58015 83815 82280 82180 555 92800 91371 32474 50912 10289 20274 30105 40108 85324 333 20256 56
0177994370999992011012801004+43783-068867FM-12+0027MISM1V0203101N009319999999N9999999N1-00151-00791100491ADDMD1110241+9999OA139901031REMSYN140CMAN  28014 MISM1 46/// /3118 11015 21079 40049 51024 90100 333 91220 555 11017 22018 30033 431023 60059 319018 315019 313021 314019 311016;
0183994370999992011012802004+43783-068867FM-12+0027MISM1V0203201N007219999999N9999999N1-00161-00781100561ADDMD1210211+9999OA139900821REMSYN146CMAN  28024 MISM1 46/// /3214 11016 21078 40056 52021 90200 333 91216 555 11013 22014 30102 432021 60159 320014 319014 319014 316016 31018 322012;
0183994370999992011012803004+43783-068867FM-12+0027MISM1V0203301N006219999999N9999999N1-00181-00741100631ADDMD1210211+9999OA139900721REMSYN146CMAN  28034 MISM1 46/// /3312 11018 21074 40063 52021 90300 333 91214 555 11011 22012 30220 432019 60259 335012 323013 321014 322014 32017 328014;
0225994370999992011012804004+43783-068867FM-12+0027MISM1V0203301N005119999999N9999999N1-00201-00791100671ADDMD1110181+9999OA139900571REMSYN188CMAN  28044 MISM1 46/// /3310 11020 21079 40067 51018 90400 333 91211 555 11009 22010 30334 432017 60359 334011 338011 333012 325012 32016 310349 098056 093052 098055 101056 094052 089052;
0017994370999992011012805004+43783-068867FM-12+0027MISM1V0203401N006719999999N9999999N1-00221-00791100711ADDMD1110151+9999
0183994370999992011012806004+43783-068867FM-12+0027MISM1V0203201N007219999999N9999999N1-00241-00861100811ADDMD1310181+9999OA139900881REMSYN146CMAN  28064 MISM1 46/// /3214 11024 21086 40081 53018 90600 333 91217 555 11013 22013 30559 432017 60559 323013 335012 340011 346012 34013 351015;
0183994370999992011012807004+43783-068867FM-12+0027MISM1V0203401N006219999999N9999999N1-00231-00801100871ADDMD1310201+9999OA139900721REMSYN146CMAN  28074 MISM1 46/// /3412 11023 21080 40087 53020 90700 333 91214 555 11011 22012 30627 432017 60659 335014 340014 330014 323013 32018 356016;
0183994370999992011012808004+43783-068867FM-12+0027MISM1V0203301N005119999999N9999999N1-00261-00841100861ADDMD1110151+9999OA139900621REMSYN146CMAN  28084 MISM1 46/// /3310 11026 21084 40086 51015 90800 333 91212 555 11010 22010 30708 434016 60759 336011 329011 313011 328010 34016 348016;
0183994370999992011012809004+43783-068867FM-12+0027MISM1V0203101N003119999999N9999999N1-00271-00901100901ADDMD1110091+9999OA139900361REMSYN146CMAN  28094 MISM1 46/// /3106 11027 21090 40090 51009 90900 333 91207 555 11006 22006 30811 433012 60859 321007 326008 336009 333009 34017 348017;
0183994370999992011012810004+43783-068867FM-12+0027MISM1V0203601N001519999999N9999999N1-00271-00871100921ADDMD1210051+9999OA139900261REMSYN146CMAN  28104 MISM1 46/// /3603 11027 21087 40092 52005 91000 333 91205 555 11003 22003 30907 432009 60959 355004 341005 337005 332006 33013 352016;
0243994370999992011012811004+43783-068867FM-12+0027MISM1V0209999C000019999999N9999999N1-00261-00861100951ADDMD1110091+9999OA139900051REMSYN206CMAN  28114 MISM1 46/// /0000 11026 21086 40095 51009 91100 333 91201 555 31003 436005 61059 358000 341002 329002 002000 358 351019 353020 350706 61049 080045 078045 075043 079042 073045 073044 80705 91010;
0183994370999992011012812004+43783-068867FM-12+0027MISM1V0201301N001519999999N9999999N1-00261-00821100981ADDMD1310081+9999OA139900211REMSYN146CMAN  28124 MISM1 46/// /1303 11026 21082 40098 53008 91200 333 91204 555 11003 22003 31141 412005 61159 113002 122003 137001 000000 00019 347015;
0183994370999992011012813004+43783-068867FM-12+0027MISM1V0202201N002119999999N9999999N1-00151-00801101031ADDMD1310111+9999OA139900211REMSYN146CMAN  28134 MISM1 46/// /2204 11015 21080 40103 53011 91300 333 91204 555 11003 22004 31235 421005 61259 216003 224003 206003 184002 16016 353015;
0017994370999992011012814004+43783-068867FM-12+0027MISM1V0202401N002119999999N9999999N1-00101-00801101061ADDMD1210111+9999
0183994370999992011012815004+43783-068867FM-12+0027MISM1V0202501N001519999999N9999999N1-00081-00721101071ADDMD1110091+9999OA139900211REMSYN146CMAN  28154 MISM1 46/// /2503 11008 21072 40107 51009 91500 333 91204 555 11003 22003 31422 425007 61459 250004 249004 209003 239005 24012 338015;
0183994370999992011012816004+43783-068867FM-12+0027MISM1V0202701N002119999999N9999999N1-00061-00681101051ADDMD1010001+9999OA139900261REMSYN146CMAN  28164 MISM1 46/// /2704 11006 21068 40105 50000 91600 333 91205 555 11004 22004 31542 428008 61559 283005 283005 267004 277005 26016 343015;
0243994370999992011012817004+43783-068867FM-12+0027MISM1V0202901N003119999999N9999999N1+00001-00661101021ADDMD1810041+9999OA139900361REMSYN206CMAN  28174 MISM1 46/// /2906 10000 21066 40102 58004 91700 333 91207 555 11005 22006 31649 426007 61659 268005 264004 270004 289005 27012 340807 61649 089049 085046 089048 095047 089047 096045 80906 91554;
0017994370999992011012818004+43783-068867FM-12+0027MISM1V0202701N002619999999N9999999N1+00001-00721100981ADDMD1810091+9999
0183994370999992011012819004+43783-068867FM-12+0027MISM1V0202401N001019999999N9999999N1-00031-00661100971ADDMD1610081+9999OA139900151REMSYN146CMAN  28194 MISM1 46/// /2402 11003 21066 40097 56008 91900 333 91203 555 11002 22002 31804 428006 61859 276001 274001 255002 245002 25010 333016;
0017994370999992011012820004+43783-068867FM-12+0027MISM1V0201301N002619999999N9999999N1-00011-00311100981ADDMD1610041+9999
0183994370999992011012821004+43783-068867FM-12+0027MISM1V0209999C000019999999N9999999N1-00041-00371101001ADDMD1410001+9999OA139900001REMSYN146CMAN  28214 MISM1 46/// /0000 11004 21037 40100 54000 92100 333 91200 555 32016 412007 62059 158000 156002 161002 123004 124 309014 309013 301020;
0183994370999992011012822004+43783-068867FM-12+0027MISM1V0203201N001519999999N9999999N1-00051-00541101041ADDMD1310071+9999OA139900151REMSYN146CMAN  28224 MISM1 46/// /3203 11005 21054 40104 53007 92200 333 91203 555 11002 22003 32146 430005 62159 302003 305003 301001 299001 31015 302021;
0017994370999992011012823004+43783-068867FM-12+0027MISM1V0202901N000519999999N9999999N1-00041-00581101081ADDMD1310101+9999
0183994370999992011012900004+43783-068867FM-12+0027MISM1V0202601N000519999999N9999999N1-00041-00571101111ADDMD1110111+9999OA139900101REMSYN146CMAN  29004 MISM1 46/// /2601 11004 21057 40111 51011 90000 333 91202 555 11001 22001 32345 423003 62359 246001 214001 247001 276001 25017 318020;
0183994370999992011012901004+43783-068867FM-12+0027MISM1V0209999C000019999999N9999999N1-00041-00561101101ADDMD1110061+9999OA139900001REMSYN146CMAN  29014 MISM1 46/// /0000 11004 21056 40110 51006 90100 333 91200 555 30040 411001 60059 000000 123000 000000 000000 000 328018 325018 320019;
0180994370999992011012902004+43783-068867FM-12+0027MISM1V0200401N001019999999N9999999N1-00021-00531101081ADDMD1010001+9999OA139900211REMSYN143CMAN  29024 MISM1 46/// /0402 11002 21053 40108 50000 90200 333 91204 555 11002 22002 30159 407004 60159 071001 068001 079001 097000 06020 32/;
0211994370999992011012903004+43783-068867FM-12+0027MISM1V0200501N001019999999N9999999N1+00001-00551101091ADDMD1410001+9999OA139900211REMSYN174CMAN  29034 MISM1 46/// /0502 10000 21055 40109 54000 90300 333 91204 555 11002 22002 30206 405004 60259 055001 077000 069001 053001 05018 32 9//// 9//// 444 ///// 555 3////;
0183994370999992011012904004+43783-068867FM-12+0027MISM1V0201001N001519999999N9999999N1+00001-00611101081ADDMD1410001+9999OA139900151REMSYN146CMAN  29044 MISM1 46/// /1003 10000 21061 40108 54000 90400 333 91203 555 11003 22003 30355 405004 60359 069002 048001 070000 083001 08017 332017;
0183994370999992011012905004+43783-068867FM-12+0027MISM1V0200901N001019999999N9999999N1+00001-00611101081ADDMD1410001+9999OA139900151REMSYN146CMAN  29054 MISM1 46/// /0902 10000 21061 40108 54000 90500 333 91203 555 11002 22002 30420 407005 60459 080002 092003 059002 061003 06018 334015;
0194994370999992011012906004+43783-068867FM-12+0027MISM1V0201201N002119999999N9999999N1+00021-00701101091ADDMD1410001+9999OA139900311REMSYN157CMAN  29064 MISM1 46/// /1204 10002 21070 40109 54000 90600 333 91206 555 11004 22004 30559 411006 60559 113003 113004 113002 112003 09016 3492447 555 60005;
0183994370999992011012907004+43783-068867FM-12+0027MISM1V0200301N002119999999N9999999N1+00051-00881101101ADDMD1410001+9999OA139900261REMSYN146CMAN  29074 MISM1 46/// /0304 10005 21088 40110 54000 90700 333 91205 555 11004 22004 30650 407007 60659 052005 060005 066004 073002 09014 348013;
0183994370999992011012908004+43783-068867FM-12+0027MISM1V0200401N003119999999N9999999N1+00041-00711101081ADDMD1410001+9999OA139900411REMSYN146CMAN  29084 MISM1 46/// /0406 10004 21071 40108 54000 90800 333 91208 555 11006 22006 30749 406010 60759 041005 054007 056005 044004 09013 333013;
0183994370999992011012909004+43783-068867FM-12+0027MISM1V0200901N002119999999N9999999N1+00031-00781101041ADDMD1810051+9999OA139900311REMSYN146CMAN  29094 MISM1 46/// /0904 10003 21078 40104 58005 90900 333 91206 555 11004 22004 30803 407010 60859 081005 073006 065007 079006 05012 343011;
0183994370999992011012910004+43783-068867FM-12+0027MISM1V0200901N003119999999N9999999N1+00051-00781101051ADDMD1710051+9999OA139900361REMSYN146CMAN  29104 MISM1 46/// /0906 10005 21078 40105 57005 91000 333 91207 555 11006 22006 30937 406010 60959 065006 064007 057008 080007 07009 350011;
0183994370999992011012911004+43783-068867FM-12+0027MISM1V0201001N004119999999N9999999N1+00051-00851101061ADDMD1510001+9999OA139900461REMSYN146CMAN  29114 MISM1 46/// /1008 10005 21085 40106 55000 91100 333 91209 555 11007 22008 31034 408011 61059 089008 081008 084008 086006 06007 017010;
0183994370999992011012912004+43783-068867FM-12+0027MISM1V0200601N003119999999N9999999N1+00061-00771101131ADDMD1310091+9999OA139900411REMSYN146CMAN  29124 MISM1 46/// /0606 10006 21077 40113 53009 91200 333 91208 555 11006 22006 31111 407014 61159 074006 084005 084007 090007 09008 035011;
0183994370999992011012913004+43783-068867FM-12+0027MISM1V0201401N004119999999N9999999N1+00031-00601101201ADDMD1310151+9999OA139900511REMSYN146CMAN  29134 MISM1 46/// /1408 10003 21060 40120 53015 91300 333 91210 555 11008 22008 31256 415011 61259 145009 112003 152004 142007 09006 026012;
0183994370999992011012914004+43783-068867FM-12+0027MISM1V0201401N003619999999N9999999N1+00071-00671101211ADDMD1110151+9999OA139900411REMSYN146CMAN  29144 MISM1 46/// /1407 10007 21067 40121 51015 91400 333 91208 555 11007 22007 31327 414009 61359 138007 121006 099004 132006 14002 008011;
0183994370999992011012915004+43783-068867FM-12+0027MISM1V0200801N002119999999N9999999N1+00071-00581101211ADDMD1110081+9999OA139900411REMSYN146CMAN  29154 MISM1 46/// /0804 10007 21058 40121 51008 91500 333 91208 555 11004 22004 31431 416012 61459 079004 099005 122006 133005 13001 348009;
0183994370999992011012916004+43783-068867FM-12+0027MISM1V0201501N004119999999N9999999N1+00101-00511101181ADDMD1010001+9999OA139900461REMSYN146CMAN  29164 MISM1 46/// /1508 10010 21051 40118 50000 91600 333 91209 555 11007 22008 31517 414012 61559 163007 142008 147008 146006 14001 353008;
0183994370999992011012917004+43783-068867FM-12+0027MISM1V0201701N003119999999N9999999N1+00001-00211101121ADDMD1810091+9999OA139900361REMSYN146CMAN  29174 MISM1 46/// /1706 10000 21021 40112 58009 91700 333 91207 555 11005 22006 31635 418011 61659 172006 179007 186007 172006 17005 023008;
0183994370999992011012918004+43783-068867FM-12+0027MISM1V0201301N003619999999N9999999N1+00021-00121101061ADDMD1810151+9999OA139900461REMSYN146CMAN  29184 MISM1 46/// /1307 10002 21012 40106 58015 91800 333 91209 555 11007 22007 31747 414010 61759 128007 135008 131008 140008 14004 056008;
0183994370999992011012919004+43783-068867FM-12+0027MISM1V0201101N005119999999N9999999N1+00001-00131101041ADDMD1610141+9999OA139900571REMSYN146CMAN  29194 MISM1 46/// /1110 10000 21013 40104 56014 91900 333 91211 555 11009 22010 31857 411011 61859 112009 120009 118009 115009 11003 014009;
0183994370999992011012920004+43783-068867FM-12+0027MISM1V0201601N003119999999N9999999N1-00031-00091101081ADDMD1510041+9999OA139900361REMSYN146CMAN  29204 MISM1 46/// /1606 11003 21009 40108 55004 92000 333 91207 555 11006 22006 31935 412011 61959 148007 121008 118009 130009 12007 028006;
0183994370999992011012921004+43783-068867FM-12+0027MISM1V0201101N002619999999N9999999N1-00011-00021101111ADDMD1310051+9999OA139900311REMSYN146CMAN  29214 MISM1 46/// /1105 11001 21002 40111 53005 92100 333 91206 555 11004 22005 32014 414011 62059 110005 107007 119007 134009 13005 299006;
0243994370999992011012922004+43783-068867FM-12+0027MISM1V0201601N000519999999N9999999N1+00001-00091101131ADDMD1110091+9999OA139900151REMSYN206CMAN  29224 MISM1 46/// /1601 10000 21009 40113 51009 92200 333 91203 555 11001 22001 32132 412008 62159 155003 143003 136005 135003 10002 261012 62149 094087 101094 098096 093093 088094 088093 81010 92122;
0017994370999992011012923004+43783-068867FM-12+0027MISM1V0203201N000519999999N9999999N1+00021-00241101171ADDMD1310091+9999
0183994370999992011013000004+43783-068867FM-12+0027MISM1V0203201N003619999999N9999999N1+00001-00121101201ADDMD1310091+9999OA139900461REMSYN146CMAN  30004 MISM1 46/// /3207 10000 21012 40120 53009 90000 333 91209 555 11007 22007 32351 431010 62359 315008 315008 317008 294003 30005 282007;
0183994370999992011013001004+43783-068867FM-12+0027MISM1V0203601N005719999999N9999999N1-00031-00141101221ADDMD1110091+9999OA139900671REMSYN146CMAN  30014 MISM1 46/// /3611 11003 21014 40122 51009 90100 333 91213 555 11011 22011 30056 401013 60059 006012 003011 358010 354009 34004 315007;
0183994370999992011013002004+43783-068867FM-12+0027MISM1V0203601N005719999999N9999999N1-00071-00201101251ADDMD1210081+9999OA139900621REMSYN146CMAN  30024 MISM1 46/// /3611 11007 21020 40125 52008 90200 333 91212 555 11010 22011 30106 401015 60159 002011 007011 011011 013011 01003 327007;
0183994370999992011013003004+43783-068867FM-12+0027MISM1V0200101N005119999999N9999999N1-00101-00221101291ADDMD1310091+9999OA139900571REMSYN146CMAN  30034 MISM1 46/// /0110 11010 21022 40129 53009 90300 333 91211 555 11009 22010 30206 436014 60259 005010 001011 358011 353011 35005 325006;
0017994370999992011013004004+43783-068867FM-12+0027MISM1V0203001N005119999999N9999999N1-00091-00251101331ADDMD1310111+9999
0017994370999992011013005004+43783-068867FM-12+0027MISM1V0203301N004619999999N9999999N1-00101-00351101351ADDMD1110101+9999
0183994370999992011013006004+43783-068867FM-12+0027MISM1V0203201N005119999999N9999999N1-00081-00271101351ADDMD1110061+9999OA139900571REMSYN146CMAN  30064 MISM1 46/// /3210 11008 21027 40135 51006 90600 333 91211 555 11009 22010 30518 434013 60559 326009 328009 337009 340010 33006 005010;
0183994370999992011013007004+43783-068867FM-12+0027MISM1V0203501N006219999999N9999999N1-00111-00291101381ADDMD1310051+9999OA139900671REMSYN146CMAN  30074 MISM1 46/// /3512 11011 21029 40138 53005 90700 333 91213 555 11011 22012 30645 433013 60659 336012 331011 333011 334011 33011 200009;
0017994370999992011013008004+43783-068867FM-12+0027MISM1V0203601N006219999999N9999999N1-00121-00301101401ADDMD1210051+9999
0180994370999992011013009004+43783-068867FM-12+0027MISM1V0203601N005119999999N9999999N1-00141-00351101441ADDMD1310091+9999OA139900571REMSYN143CMAN  30094 MISM1 46/// /3610 11014 21035 40144 53009 90900 333 91211 555 11009 22010 30805 436014 60859 355011 000011 359010 004010 00012 00/;
0017994370999992011013010004+43783-068867FM-12+0027MISM1V0200101N005719999999N9999999N1-00141-00331101441ADDMD1210061+9999
0243994370999992011013011004+43783-068867FM-12+0027MISM1V0200401N004619999999N9999999N1-00151-00391101521ADDMD1310121+9999OA139900511REMSYN206CMAN  30114 MISM1 46/// /0409 11015 21039 40152 53012 91100 333 91210 555 11008 22009 31010 403014 61059 028008 020007 031008 025009 02011 001014 61049 102115 104101 105103 100108 096115 094114 81013 91004;
0017994370999992011013012004+43783-068867FM-12+0027MISM1V0200301N004619999999N9999999N1-00141-00421101561ADDMD1310121+9999
0183994370999992011013013004+43783-068867FM-12+0027MISM1V0200301N003119999999N9999999N1-00101-00441101581ADDMD1110141+9999OA139900361REMSYN146CMAN  30134 MISM1 46/// /0306 11010 21044 40158 51014 91300 333 91207 555 11006 22006 31233 402012 61259 037007 022008 020009 015009 02012 012006;
0183994370999992011013014004+43783-068867FM-12+0027MISM1V0200401N004119999999N9999999N1-00091-00391101591ADDMD1110071+9999OA139900511REMSYN146CMAN  30144 MISM1 46/// /0408 11009 21039 40159 51007 91400 333 91210 555 11008 22008 31359 404010 61359 036008 029006 038005 029005 02009 028005;
0177994370999992011013015004+43783-068867FM-12+0027MISM1V0200401N003619999999N9999999N1-00061-00341101571ADDMD1410001+9999OA139900461REMSYN140CMAN  30154 MISM1 46/// /0407 11006 21034 40157 54000 91500 333 91209 555 11007 22007 31457 405010 61459 049008 044007 046006 043005 020000;
0177994370999992011013016004+43783-068867FM-12+0027MISM1V0200301N004119999999N9999999N1-00071-00261101571ADDMD1410001+9999OA139900461REMSYN140CMAN  30164 MISM1 46/// /0308 11007 21026 40157 54000 91600 333 91209 555 11007 22008 31541 403011 61559 020008 024009 025008 038008 050003;
0183994370999992011013017004+43783-068867FM-12+0027MISM1V0203601N006219999999N9999999N1-00131-00221101461ADDMD1810131+9999OA139900721REMSYN146CMAN  30174 MISM1 46/// /3612 11013 21022 40146 58013 91700 333 91214 555 11011 22012 31659 436014 61659 002011 000010 006010 013009 00006 029005;
0017994370999992011013018004+43783-068867FM-12+0027MISM1V0200101N004619999999N9999999N1-00171-00251101441ADDMD1710131+9999
0183994370999992011013019004+43783-068867FM-12+0027MISM1V0203601N004119999999N9999999N1-00161-00271101411ADDMD1610161+9999OA139900511REMSYN146CMAN  30194 MISM1 46/// /3608 11016 21027 40141 56016 91900 333 91210 555 11008 22008 31815 436012 61859 015008 023008 015008 357009 00005 171004;
0225994370999992011013020004+43783-068867FM-12+0027MISM1V0203501N004119999999N9999999N1-00171-00301101441ADDMD1510001+9999OA139900461REMSYN188CMAN  30204 MISM1 46/// /3508 11017 21030 40144 55000 92000 333 91209 555 11007 22007 31940 434011 61959 353008 347009 346008 356008 35006 031949 258010 195006 103011 097016 014008 030009;
0183994370999992011013021004+43783-068867FM-12+0027MISM1V0203201N004119999999N9999999N1-00181-00351101501ADDMD1310061+9999OA139900461REMSYN146CMAN  30214 MISM1 46/// /3208 11018 21035 40150 53006 92100 333 91209 555 11007 22008 32010 434011 62059 330007 326007 329008 333009 33008 055007;
0243994370999992011013022004+43783-068867FM-12+0027MISM1V0203201N005119999999N9999999N1-00161-00321101541ADDMD1310131+9999OA139900571REMSYN206CMAN  30224 MISM1 46/// /3210 11016 21032 40154 53013 92200 333 91211 555 11009 22010 32155 431013 62159 313010 315009 320009 313009 31008 080916 62149 092130 094128 099131 094112 094119 104115 81014 92122;
0017994370999992011013023004+43783-068867FM-12+0027MISM1V0203601N008219999999N9999999N1-00231-00321101631ADDMD1310191+9999
0183994370999992011013100004+43783-068867FM-12+0027MISM1V0203001N008219999999N9999999N1-00201-00531101691ADDMD1310191+9999OA139900881REMSYN146CMAN  31004 MISM1 46/// /3016 11020 21053 40169 53019 90000 333 91217 555 11015 22016 32349 432020 62359 303016 317014 328011 332012 34005 067010;
0180994370999992011013101004+43783-068867FM-12+0027MISM1V0203101N008219999999N9999999N1-00241-00561101761ADDMD1110221+9999OA139900931REMSYN143CMAN  31014 MISM1 46/// /3116 11024 21056 40176 51022 90100 333 91218 555 11015 22016 30008 432020 60059 313016 311015 309014 307015 30006 06/;
0017994370999992011013102004+43783-068867FM-12+0027MISM1V0203201N009819999999N9999999N1-00281-00671101821ADDMD1210191+9999
0183994370999992011013103004+43783-068867FM-12+0027MISM1V0203201N011319999999N9999999N1-00331-00911101871ADDMD1110181+9999OA139901241REMSYN146CMAN  31034 MISM1 46/// /3222 11033 21091 40187 51018 90300 333 91224 555 11020 22022 30226 431026 60259 317021 312020 317019 311023 32011 070010;
0183994370999992011013104004+43783-068867FM-12+0027MISM1V0203101N012919999999N9999999N1-00381-01131101911ADDMD1110151+9999OA139901441REMSYN146CMAN  31044 MISM1 46/// /3125 11038 21113 40191 51015 90400 333 91228 555 11023 22025 30350 431030 60359 312025 311024 321020 322021 32006 066012;
0213994370999992011013105004+43783-068867FM-12+0027MISM1V0203101N016419999999N9999999N1-00411-01091101971ADDMD1310151+9999OA139901751REMSYN176CMAN  31054 MISM1 46/// /3132 11041 21109 40197 53015 90500 333 91234 555 11029 22031 30456 431035 60459 309030 311028 312026 315025 31013 09332025 330026 335025 337024 340025;
0243994370999992011013106004+43783-068867FM-12+0027MISM1V0203101N013419999999N9999999N1-00471-01051102041ADDMD1310171+9999OA139901651REMSYN206CMAN  31064 MISM1 46/// /3126 11047 21105 40204 53017 90600 333 91232 555 11024 22026 30514 431037 60559 311026 310025 306028 314027 30012 110919 60549 091153 093158 093156 098157 093153 097156 80917 90542;
0183994370999992011013107004+43783-068867FM-12+0027MISM1V0203201N012319999999N9999999N1-00571-01211102141ADDMD1310231+9999OA139901441REMSYN146CMAN  31074 MISM1 46/// /3224 11057 21121 40214 53023 90700 333 91228 555 11023 22024 30628 431034 60659 317025 315027 312028 310028 31004 079010;
0183994370999992011013108004+43783-068867FM-12+0027MISM1V0203101N017019999999N9999999N1-00571-01351102151ADDMD1110181+9999OA139901901REMSYN146CMAN  31084 MISM1 46/// /3133 11057 21135 40215 51018 90800 333 91237 555 11031 22033 30758 431037 60759 308032 310031 312030 317029 31011 029015;
0017994370999992011013109004+43783-068867FM-12+0027MISM1V0203101N016419999999N9999999N1-00601-01351102201ADDMD1110161+9999
0017994370999992011013110004+43783-068867FM-12+0027MISM1V0203101N014919999999N9999999N1-00611-01191102331ADDMD1310191+9999
0225994370999992011013111004+43783-068867FM-12+0027MISM1V0203201N012919999999N9999999N1-00711-01311102471ADDMD1310321+9999OA139901441REMSYN188CMAN  31114 MISM1 46/// /3225 11071 21131 40247 53032 91100 333 91228 555 11023 22025 31003 431034 61059 309025 304027 306028 304027 30004 081049 107026 096029 093028 092031 101035 099032;
0017994370999992011013112004+43783-068867FM-12+0027MISM1V0203201N013919999999N9999999N1-00771-01411102611ADDMD1310411+9999
0183994370999992011013113004+43783-068867FM-12+0027MISM1V0203101N011319999999N9999999N1-00841-01451102741ADDMD1110411+9999OA139901341REMSYN146CMAN  31134 MISM1 46/// /3122 11084 21145 40274 51041 91300 333 91226 555 11021 22022 31201 431031 61259 310024 315025 312025 309026 30005 123012;
0183994370999992011013114004+43783-068867FM-12+0027MISM1V0203101N011819999999N9999999N1-00931-01681102851ADDMD1110381+9999OA139901291REMSYN146CMAN  31144 MISM1 46/// /3123 11093 21168 40285 51038 91400 333 91225 555 11022 22023 31324 431032 61359 310024 312024 313024 311025 31005 095010;
0017994370999992011013115004+43783-068867FM-12+0027MISM1V0203101N009819999999N9999999N1-00941-01721102941ADDMD1110331+9999
0017994370999992011013116004+43783-068867FM-12+0027MISM1V0203201N007719999999N9999999N1-00891-01861102961ADDMD1110221+9999
0180994370999992011013117004+43783-068867FM-12+0027MISM1V0203101N009819999999N9999999N1-00811-01871102931ADDMD1010081+9999OA139901131REMSYN143CMAN  31174 MISM1 46/// /3119 11081 21187 40293 50008 91700 333 91222 555 11018 22019 31646 431023 61659 313019 314018 312018 309019 31002 09/;
0183994370999992011013118004+43783-068867FM-12+0027MISM1V0203001N009319999999N9999999N1-00781-01801102901ADDMD1810041+9999OA139901031REMSYN146CMAN  31184 MISM1 46/// /3018 11078 21180 40290 58004 91800 333 91220 555 11017 22018 31701 430024 61759 302017 303016 311017 312016 31004 047004;
0225994370999992011013119004+43783-068867FM-12+0027MISM1V0202901N007219999999N9999999N1-00771-02001102931ADDMD1510031+9999OA139900881REMSYN188CMAN  31194 MISM1 46/// /2914 11077 21200 40293 55003 91900 333 91217 555 11013 22014 31807 430023 61859 301015 301015 294016 294015 30006 051849 047013 063016 052017 039018 041018 037019;
0183994370999992011013120004+43783-068867FM-12+0027MISM1V0203001N006219999999N9999999N1-00721-01791103001ADDMD1310071+9999OA139900771REMSYN146CMAN  31204 MISM1 46/// /3012 11072 21179 40300 53007 92000 333 91215 555 11011 22012 31925 430019 61959 289013 288013 300014 297014 30003 044003;
0183994370999992011013121004+43783-068867FM-12+0027MISM1V0203101N007219999999N9999999N1-00701-01981103061ADDMD1310161+9999OA139900881REMSYN146CMAN  31214 MISM1 46/// /3114 11070 21198 40306 53016 92100 333 91217 555 11013 22014 32032 432018 62059 307013 307012 315014 311013 31006 085002;
0183994370999992011013122004+43783-068867FM-12+0027MISM1V0202901N008219999999N9999999N1-00711-01971103121ADDMD1110191+9999OA139900881REMSYN146CMAN  31224 MISM1 46/// /2916 11071 21197 40312 51019 92200 333 91217 555 11014 22015 32130 428019 62159 290013 286011 291013 291013 29003 049002;
0183994370999992011013123004+43783-068867FM-12+0027MISM1V0202801N007219999999N9999999N1-00701-02031103211ADDMD1310211+9999OA139900931REMSYN146CMAN  31234 MISM1 46/// /2814 11070 21203 40321 53021 92300 333 91218 555 11013 22014 32259 429018 62259 291014 294014 288013 289014 29010 113003;
0017994370999992011020100004+43783-068867FM-12+0027MISM1V0203101N008219999999N9999999N1-00681-02101103231ADDMD1110171+9999
0183994370999992011020101004+43783-068867FM-12+0027MISM1V0203001N006719999999N9999999N1-00661-01931103231ADDMD1110111+9999OA139900821REMSYN146CMAN  01014 MISM1 46/// /3013 11066 21193 40323 51011 90100 333 91216 555 11012 22013 30002 430020 60059 305014 307013 314012 309013 30005 062010;
0183994370999992011020102004+43783-068867FM-12+0027MISM1V0203301N006219999999N9999999N1-00671-01871103241ADDMD1210031+9999OA139900721REMSYN146CMAN  01024 MISM1 46/// /3312 11067 21187 40324 52003 90200 333 91214 555 11011 22012 30122 431017 60159 324012 320013 322013 316013 31012 097012;
0017994370999992011020103004+43783-068867FM-12+0027MISM1V0203201N006219999999N9999999N1-00691-01751103251ADDMD1410001+9999
0183994370999992011020104004+43783-068867FM-12+0027MISM1V0203301N005719999999N9999999N1-00721-01821103261ADDMD1210031+9999OA139900671REMSYN146CMAN  01044 MISM1 46/// /3311 11072 21182 40326 52003 90400 333 91213 555 11010 22011 30300 432015 60359 333011 332011 332011 327011 32008 068011;
0183994370999992011020105004+43783-068867FM-12+0027MISM1V0203401N004619999999N9999999N1-00651-01781103251ADDMD1410001+9999OA139900621REMSYN146CMAN  01054 MISM1 46/// /3409 11065 21178 40325 54000 90500 333 91212 555 11008 22009 30435 433014 60459 335010 334011 330012 330011 33005 065013;
0183994370999992011020106004+43783-068867FM-12+0027MISM1V0203201N003619999999N9999999N1-00641-01731103251ADDMD1410001+9999OA139900461REMSYN146CMAN  01064 MISM1 46/// /3207 11064 21173 40325 54000 90600 333 91209 555 11007 22007 30519 433012 60559 338007 333008 334008 336009 32005 074014;
0225994370999992011020107004+43783-068867FM-12+0027MISM1V0203201N002619999999N9999999N1-00621-01701103231ADDMD1710031+9999OA139900361REMSYN188CMAN  01074 MISM1 46/// /3205 11062 21170 40323 57003 90700 333 91207 555 11004 22005 30609 433010 60659 338004 327005 321006 331006 330924 60649 089187 088182 087184 086184 086174 085172;
0183994370999992011020108004+43783-068867FM-12+0027MISM1V0200501N002619999999N9999999N1-00621-01371103211ADDMD1710041+9999OA139900311REMSYN146CMAN  01084 MISM1 46/// /0505 11062 21137 40321 57004 90800 333 91206 555 11004 22005 30743 403008 60759 032005 024006 022005 023005 35016 114015;
0243994370999992011020109004+43783-068867FM-12+0027MISM1V0200301N003119999999N9999999N1-00581-01371103191ADDMD1710061+9999OA139900411REMSYN206CMAN  01094 MISM1 46/// /0306 11058 21137 40319 57006 90900 333 91208 555 11005 22005 30859 403008 60859 034005 029005 037005 031005 04006 111413 60849 143093 142095 141097 139101 138104 138102 81411 90809;
0183994370999992011020110004+43783-068867FM-12+0027MISM1V0200601N003119999999N9999999N1-00561-01151103181ADDMD1710051+9999OA139900411REMSYN146CMAN  01104 MISM1 46/// /0606 11056 21115 40318 57005 91000 333 91208 555 11006 22006 30937 405010 60959 065006 061007 051008 047008 06008 111016;
0183994370999992011020111004+43783-068867FM-12+0027MISM1V0200601N004619999999N9999999N1-00531-01051103171ADDMD1710041+9999OA139900571REMSYN146CMAN  01114 MISM1 46/// /0609 11053 21105 40317 57004 91100 333 91211 555 11008 22009 31056 406013 61059 060008 062008 053007 063008 06018 112020;
0183994370999992011020112004+43783-068867FM-12+0027MISM1V0200601N006219999999N9999999N1-00461-00951103181ADDMD1410001+9999OA139900671REMSYN146CMAN  01124 MISM1 46/// /0612 11046 21095 40318 54000 91200 333 91213 555 11011 22012 31159 406013 61159 058010 062010 065008 068008 06009 127020;
0183994370999992011020113004+43783-068867FM-12+0027MISM1V0200301N005719999999N9999999N1-00461-00951103211ADDMD1310031+9999OA139900671REMSYN146CMAN  01134 MISM1 46/// /0311 11046 21095 40321 53003 91300 333 91213 555 11010 22011 31205 404015 61259 029012 032012 040010 050010 04008 119020;
0017994370999992011020114004+43783-068867FM-12+0027MISM1V0200301N006219999999N9999999N1-00391-00751103171ADDMD1010001+9999
0017994370999992011020115004+43783-068867FM-12+0027MISM1V0200401N005719999999N9999999N1-00371-00631103131ADDMD1810051+9999
0183994370999992011020116004+43783-068867FM-12+0027MISM1V0202101N004619999999N9999999N1-00421-00521103041ADDMD1810171+9999OA139900571REMSYN146CMAN  01164 MISM1 46/// /2109 11042 21052 40304 58017 91600 333 91211 555 11009 22009 31503 405016 61559 199009 161007 119003 064006 03012 120021;
0017994370999992011020117004+43783-068867FM-12+0027MISM1V0200101N005119999999N9999999N1-00421-00441102891ADDMD1810281+9999
0017994370999992011020118004+43783-068867FM-12+0027MISM1V0203601N008219999999N9999999N1-00491-00511102821ADDMD1610311+9999
0180994370999992011020119004+43783-068867FM-12+0027MISM1V0200101N008719999999N9999999N1-00501-00511102741ADDMD1610301+9999OA139900981REMSYN143CMAN  01194 MISM1 46/// /0117 11050 21051 40274 56030 91900 333 91219 555 11015 22016 31857 401021 61859 006017 004016 004015 007015 00012 13/;
0183994370999992011020120004+43783-068867FM-12+0027MISM1V0200101N009819999999N9999999N1-00501-00521102731ADDMD1610161+9999OA139901081REMSYN146CMAN  01204 MISM1 46/// /0119 11050 21052 40273 56016 92000 333 91221 555 11017 22019 31958 401021 61959 008018 008017 007017 003016 00011 133025;
0017994370999992011020121004+43783-068867FM-12+0027MISM1V0200201N009319999999N9999999N1-00521-00541102691ADDMD1610131+9999
0183994370999992011020122004+43783-068867FM-12+0027MISM1V0200301N010319999999N9999999N1-00481-00521102631ADDMD1810111+9999OA139901131REMSYN146CMAN  01224 MISM1 46/// /0320 11048 21052 40263 58011 92200 333 91222 555 11019 22020 32130 401023 62159 023020 020019 016019 017019 02020 141028;
0177994370999992011020123004+43783-068867FM-12+0027MISM1V0200201N010819999999N9999999N1-00501-00541102661ADDMD1510071+9999OA139901181REMSYN140CMAN  01234 MISM1 46/// /0221 11050 21054 40266 55007 92300 333 91223 555 11019 22020 32222 402024 62259 024021 022020 020019 021020 027019;
0183994370999992011020200004+43783-068867FM-12+0027MISM1V0200101N009819999999N9999999N1-00511-00531102761ADDMD1310071+9999OA139901031REMSYN146CMAN  02004 MISM1 46/// /0119 11051 21053 40276 53007 90000 333 91220 555 11017 22019 32310 401023 62359 012019 014019 021019 020020 01011 142025;
0017994370999992011020201004+43783-068867FM-12+0027MISM1V0200201N010319999999N9999999N1-00511-00541102721ADDMD1010091+9999
0017994370999992011020202004+43783-068867FM-12+0027MISM1V0200201N010319999999N9999999N1-00491-00551102691ADDMD1010031+9999
0243994370999992011020203004+43783-068867FM-12+0027MISM1V0200201N011319999999N9999999N1-00511-00571102661ADDMD1610101+9999OA139901291REMSYN206CMAN  02034 MISM1 46/// /0222 11051 21057 40266 56010 90300 333 91225 555 11020 22021 30259 401025 60259 013021 012021 015019 015020 01013 131412 60249 141090 142091 141087 140099 141089 138081 81410 90214;
0017994370999992011020204004+43783-068867FM-12+0027MISM1V0200301N010319999999N9999999N1-00471-00571102561ADDMD1810161+9999
0183994370999992011020205004+43783-068867FM-12+0027MISM1V0200301N009319999999N9999999N1-00451-00551102611ADDMD1510081+9999OA139901081REMSYN146CMAN  02054 MISM1 46/// /0318 11045 21055 40261 55008 90500 333 91221 555 11017 22018 30428 403023 60459 030018 025018 025019 027018 02012 146024;
0183994370999992011020206004+43783-068867FM-12+0027MISM1V0200201N007219999999N9999999N1-00461-00581102651ADDMD1510001+9999OA139900881REMSYN146CMAN  02064 MISM1 46/// /0214 11046 21058 40265 55000 90600 333 91217 555 11013 22014 30500 403020 60559 026015 025015 025016 024016 02010 145025;
0180994370999992011020207004+43783-068867FM-12+0027MISM1V0200301N008219999999N9999999N1-00461-00551102601ADDMD1010041+9999OA139900881REMSYN143CMAN  02074 MISM1 46/// /0316 11046 21055 40260 50004 90700 333 91217 555 11015 22016 30642 402021 60659 028017 027017 023015 021014 02006 16/;
0243994370999992011020208004+43783-068867FM-12+0027MISM1V0200401N011819999999N9999999N1-00401-00561102461ADDMD1810151+9999OA139901341REMSYN206CMAN  02084 MISM1 46/// /0423 11040 21056 40246 58015 90800 333 91226 555 11022 22023 30757 405027 60759 047023 045022 043020 039020 040652 41315 60749 118084 123095 128102 129106 127110 131112 81312 90652;
0017994370999992011020209004+43783-068867FM-12+0027MISM1V0200401N012319999999N9999999N1-00441-00741102391ADDMD1810261+9999
0183994370999992011020210004+43783-068867FM-12+0027MISM1V0200401N012319999999N9999999N1-00461-00581102351ADDMD1610251+9999OA139901491REMSYN146CMAN  02104 MISM1 46/// /0424 11046 21058 40235 56025 91000 333 91229 555 11022 22024 30935 404030 60959 042023 043024 042024 045025 04006 152025;
0017994370999992011020211004+43783-068867FM-12+0027MISM1V0200301N010819999999N9999999N1-00481-00531102371ADDMD1610091+9999
0180994370999992011020212004+43783-068867FM-12+0027MISM1V0200301N012919999999N9999999N1-00471-00481102191ADDMD1810201+9999OA139901441REMSYN143CMAN  02124 MISM1 46/// /0325 11047 21048 40219 58020 91200 333 91228 555 11023 22024 31158 403028 61159 031023 030023 027022 029023 03007 15/;
0183994370999992011020213004+43783-068867FM-12+0027MISM1V0200501N013419999999N9999999N1-00321-00331102061ADDMD1810291+9999OA139901601REMSYN146CMAN  02134 MISM1 46/// /0526 11032 21033 40206 58029 91300 333 91231 555 11024 22026 31238 404031 61259 043027 040027 041027 040026 03008 156025;
0183994370999992011020214004+43783-068867FM-12+0027MISM1V0200901N014419999999N9999999N1-00181-00191101931ADDMD1610441+9999OA139901601REMSYN146CMAN  02144 MISM1 46/// /0928 11018 21019 40193 56044 91400 333 91231 555 11026 22028 31356 409035 61359 092029 093026 062028 053028 04005 193023;
0180994370999992011020215004+43783-068867FM-12+0027MISM1V0200801N015919999999N9999999N1-00141-00151101631ADDMD1810561+9999OA139901801REMSYN143CMAN  02154 MISM1 46/// /0831 11014 21015 40163 58056 91500 333 91235 555 11029 22031 31449 408037 61459 080031 078031 084031 091028 08006 14/;
0183994370999992011020216004+43783-068867FM-12+0027MISM1V0200701N015419999999N9999999N1-00131-00141101561ADDMD1610501+9999OA139901651REMSYN146CMAN  02164 MISM1 46/// /0730 11013 21014 40156 56050 91600 333 91232 555 11028 22030 31501 408035 61559 076029 078030 081030 084031 08006 179021;
0017994370999992011020217004+43783-068867FM-12+0027MISM1V0200801N017519999999N9999999N1-00151-00161101231ADDMD1810701+9999
0183994370999992011020218004+43783-068867FM-12+0027MISM1V0200701N019519999999N9999999N1-00171-00171100891ADDMD1810741+9999OA139902161REMSYN146CMAN  02184 MISM1 46/// /0738 11017 21017 40089 58074 91800 333 91242 555 11035 22037 31744 407044 61759 068036 069038 067036 069036 06005 177022;
0017994370999992011020219004+43783-068867FM-12+0027MISM1V0200701N019019999999N9999999N1-00181-00191100751ADDMD1610811+9999
0183994370999992011020220004+43783-068867FM-12+0027MISM1V0200601N019019999999N9999999N1-00181-00191100611ADDMD1610621+9999OA139902111REMSYN146CMAN  02204 MISM1 46/// /0637 11018 21019 40061 56062 92000 333 91241 555 11034 22036 31932 406047 61959 061037 062037 064037 063038 06005 182024;
0183994370999992011020221004+43783-068867FM-12+0027MISM1V0200201N016419999999N9999999N1-00411-00431100661ADDMD1510231+9999OA139901801REMSYN146CMAN  02214 MISM1 46/// /0232 11041 21043 40066 55023 92100 333 91235 555 11029 22031 32005 406045 62059 027031 040033 048032 054035 05009 163023;
0183994370999992011020222004+43783-068867FM-12+0027MISM1V0200401N017519999999N9999999N1-00401-00411100481ADDMD1810271+9999OA139901961REMSYN146CMAN  02224 MISM1 46/// /0434 11040 21041 40048 58027 92200 333 91238 555 11031 22033 32159 404038 62159 037032 034029 034029 037031 03007 166023;
0017994370999992011020223004+43783-068867FM-12+0027MISM1V0200301N015419999999N9999999N1-00431-00441100451ADDMD1810161+9999
0243994370999992011020300004+43783-068867FM-12+0027MISM1V0200301N013919999999N9999999N1-00421-00451100501ADDMD1510161+9999OA139901541REMSYN206CMAN  03004 MISM1 46/// /0327 11042 21045 40050 55016 90000 333 91230 555 11025 22027 32302 404038 62359 030027 028027 032029 035031 03003 110513 62349 079094 080093 081100 078101 071104 061092 80811 92323;
0183994370999992011020301004+43783-068867FM-12+0027MISM1V0200101N014419999999N9999999N1-00491-00521100521ADDMD1310041+9999OA139901601REMSYN146CMAN  03014 MISM1 46/// /0128 11049 21052 40052 53004 90100 333 91231 555 11025 22027 30005 403032 60059 016025 019024 018024 017024 02003 060028;
0163994370999992011020302004+43783-068867FM-12+0027MISM1V0200101N012919999999N9999999N1-00611-00641100621ADDOA139901391REMSYN140CMAN  03024 MISM1 46/// /0125 11061 21064 40062 90200 333 91227 555 11023 22024 30102 401032 60159 008024 007025 006026 012024 01032 028027;
0225994370999992011020303004+43783-068867FM-12+0027MISM1V0200101N014919999999N9999999N1-00631-00681100541ADDMD1210041+9999OA139901601REMSYN188CMAN  03034 MISM1 46/// /0129 11063 21068 40054 52004 90300 333 91231 555 11026 22028 30258 401031 60259 011027 009024 010023 012024 01007 120249 096119 094123 093129 091135 092134 095134;
0183994370999992011020304004+43783-068867FM-12+0027MISM1V0200101N013419999999N9999999N1-00651-00721100691ADDMD1210171+9999OA139901491REMSYN146CMAN  03044 MISM1 46/// /0126 11065 21072 40069 52017 90400 333 91229 555 11024 22025 30342 436032 60359 004026 006028 007026 008025 01005 105025;
0183994370999992011020305004+43783-068867FM-12+0027MISM1V0203601N012319999999N9999999N1-00741-00811100861ADDMD1210241+9999OA139901391REMSYN146CMAN  03054 MISM1 46/// /3624 11074 21081 40086 52024 90500 333 91227 555 11022 22024 30406 436030 60459 357023 356024 357024 356024 35004 085025;
0163994370999992011020306004+43783-068867FM-12+0027MISM1V0203601N011819999999N9999999N1-00741-00831100981ADDOA139901291REMSYN140CMAN  03064 MISM1 46/// /3623 11074 21083 40098 90600 333 91225 555 11021 22022 30515 436027 60559 358022 358023 359023 355023 35005 072022;
0243994370999992011020307004+43783-068867FM-12+0027MISM1V0203601N011819999999N9999999N1-00731-00831101161ADDMD1310471+9999OA139901291REMSYN206CMAN  03074 MISM1 46/// /3623 11073 21083 40116 53047 90700 333 91225 555 11021 22023 30648 436028 60659 357023 357022 358022 357021 350619 42316 60649 233127 230125 232130 229131 229127 227122 82314 90620;
0017994370999992011020308004+43783-068867FM-12+0027MISM1V0200101N010819999999N9999999N1-00681-00771101231ADDMD1110371+9999
