0068997275999992011010100004+43650-070250FM-18+0010CASM1V02099999999999999999N9999999N1+00291+99999101661REMSYN059CMAN 01004 CASM1 46/// ///// 10029 40166 92336 222// 00043;
0000997275999992011010101004+43650-070250FM-18+0010CASM1V02099999999999999999N9999999N1+00511+99999101631
0078997275999992011010102004+43650-070250FM-18+0010CASM1V02099999999999999999N9999999N1+00371+99999101631REMSYN069CMAN  01024 CASM1 46/// ///// 10037 40163 90136 222// 0012555  91205;
0078997275999992011010103004+43650-070250FM-18+0010CASM1V02099999999999999999N9999999N1+00321+99999101631REMSYN069CMAN  01034 CASM1 46/// ///// 10032 40163 90236 222// 0000555  91203;
0000997275999992011010104004+43650-070250FM-18+0010CASM1V02099999999999999999N9999999N1+00261+99999101621
0078997275999992011010105004+43650-070250FM-18+0010CASM1V02099999999999999999N9999999N1+00191+99999101531REMSYN069CMAN  01054 CASM1 46/// ///// 10019 40153 90436 222// 0000555  91204;
0078997275999992011010106004+43650-070250FM-18+0010CASM1V02099999999999999999N9999999N1+00211+99999101571REMSYN069CMAN  01064 CASM1 46/// ///// 10021 40157 90536 222// 0012555  91205;
0078997275999992011010107004+43650-070250FM-18+0010CASM1V02099999999999999999N9999999N1+00151+99999101521REMSYN069CMAN  01074 CASM1 46/// ///// 10015 40152 90636 222// 0012555  91207;
0078997275999992011010108004+43650-070250FM-18+0010CASM1V02099999999999999999N9999999N1+00221+99999101551REMSYN069CMAN  01084 CASM1 46/// ///// 10022 40155 90736 222// 0000555  91209;
0148997275999992011010109004+43650-070250FM-18+0010CASM1V02099999999999999999N9999999N1+00271+99999101511REMSYN139CMAN  01094 CASM1 46/// ///// 10027 40151 90836 222// 0012555  1//// 2//// 4//// 70000 90768 931// 555 7//// 8//// 1//// ///// ///// /////;
0078997275999992011010110004+43650-070250FM-18+0010CASM1V02099999999999999999N9999999N1+00251+99999101551REMSYN069CMAN  01104 CASM1 46/// ///// 10025 40155 90936 222// 0012555  91211;
0078997275999992011010111004+43650-070250FM-18+0010CASM1V02099999999999999999N9999999N1+00271+99999101621REMSYN069CMAN  01114 CASM1 46/// ///// 10027 40162 91036 222// 0012 333 91213;
0078997275999992011010112004+43650-070250FM-18+0010CASM1V02099999999999999999N9999999N1+00251+99999101701REMSYN069CMAN  01124 CASM1 46/// ///// 10025 40170 91136 222// 0012 333 91212;
0078997275999992011010113004+43650-070250FM-18+0010CASM1V02099999999999999999N9999999N1+00281+99999101611REMSYN069CMAN  01134 CASM1 46/// ///// 10028 40161 91236 222// 0012555  91206;
0000997275999992011010114004+43650-070250FM-18+0010CASM1V02099999999999999999N9999999N1+00341+99999101681
0082997275999992011010115004+43650-070250FM-18+0010CASM1V02099999999999999999N9999999N1+00601+99999101751REMSYN073CMAN  01154 CASM1 46/// ///// 10060 40175 91436 222// 001355 11019 22020;
0185997275999992011010116004+43650-070250FM-18+0010CASM1V02099999999999999999N9999999N1+00791+99999101741REMSYN176CMAN  01164 CASM1 46/// ///// 10079 40174 91536 51021 91600 333 91213 555 11010 22011 31525 413015 61559 134010 130008 130009 127011 1232013 240024 235029 237036 230035 231034;
0078997275999992011010117004+43650-070250FM-18+0010CASM1V02099999999999999999N9999999N1+00941+99999101661REMSYN069CMAN  01174 CASM1 46/// ///// 10094 40166 91636 222// 0013555  91209;
0000997275999992011010118004+43650-070250FM-18+0010CASM1V02099999999999999999N9999999N1+00721+99999101651
0078997275999992011010119004+43650-070250FM-18+0010CASM1V02099999999999999999N9999999N1+00811+99999101661REMSYN069CMAN  01194 CASM1 46/// ///// 10081 40166 91836 222// 0014555  91205;
0078997275999992011010120004+43650-070250FM-18+0010CASM1V02099999999999999999N9999999N1+01021+99999101641REMSYN069CMAN  01204 CASM1 46/// ///// 10102 40164 91936 222// 0014555  91214;
0078997275999992011010121004+43650-070250FM-18+0010CASM1V02099999999999999999N9999999N1+00671+99999101641REMSYN069CMAN  01214 CASM1 46/// ///// 10067 40164 92036 222// 0013555  91209;
0078997275999992011010122004+43650-070250FM-18+0010CASM1V02099999999999999999N9999999N1+00581+99999101701REMSYN069CMAN  01224 CASM1 46/// ///// 10058 40170 92136 222// 0013555  91212;
0078997275999992011010123004+43650-070250FM-18+0010CASM1V02099999999999999999N9999999N1+00491+99999101681REMSYN069CMAN  01234 CASM1 46/// ///// 10049 40168 92236 222// 0012 333 91216;
0078997275999992011010200004+43650-070250FM-18+0010CASM1V02099999999999999999N9999999N1+00571+99999101671REMSYN069CMAN  02004 CASM1 46/// ///// 10057 40167 92336 222// 0012555  91212;
0078997275999992011010201004+43650-070250FM-18+0010CASM1V02099999999999999999N9999999N1+00561+99999101601REMSYN069CMAN  02014 CASM1 46/// ///// 10056 40160 90036 222// 0012555  91205;
0078997275999992011010202004+43650-070250FM-18+0010CASM1V02099999999999999999N9999999N1+00581+99999101621REMSYN069CMAN  02024 CASM1 46/// ///// 10058 40162 90136 222// 0012555  91215;
0078997275999992011010203004+43650-070250FM-18+0010CASM1V02099999999999999999N9999999N1+00621+99999101501REMSYN069CMAN  02034 CASM1 46/// ///// 10062 40150 90236 222// 0012555  91205;
0068997275999992011010204004+43650-070250FM-18+0010CASM1V02099999999999999999N9999999N1+00611+99999101511REMSYN059CMAN  02044 CASM1 46/// ///// 10061 40151 90336 222// 0012;
0078997275999992011010205004+43650-070250FM-18+0010CASM1V02099999999999999999N9999999N1+00611+99999101431REMSYN069CMAN  02054 CASM1 46/// ///// 10061 40143 90436 222// 0012555  91201;
0078997275999992011010206004+43650-070250FM-18+0010CASM1V02099999999999999999N9999999N1+00631+99999101331REMSYN069CMAN  02064 CASM1 46/// ///// 10063 40133 90536 222// 0012555  91204;
0078997275999992011010207004+43650-070250FM-18+0010CASM1V02099999999999999999N9999999N1+00591+99999101281REMSYN069CMAN  02074 CASM1 46/// ///// 10059 40128 90636 222// 0012555  91208;
0087997275999992011010208004+43650-070250FM-18+0010CASM1V02099999999999999999N9999999N1+00501+99999101271REMSYN078CMAN  02084 CASM1 46/// ///// 10050 40127 90736 222// 00000 555 1 20301 70005;
0078997275999992011010209004+43650-070250FM-18+0010CASM1V02099999999999999999N9999999N1+00501+99999101231REMSYN069CMAN  02094 CASM1 46/// ///// 10050 40123 90836 222// 0012 333 91209;
0078997275999992011010210004+43650-070250FM-18+0010CASM1V02099999999999999999N9999999N1+00441+99999101141REMSYN069CMAN  02104 CASM1 46/// ///// 10044 40114 90936 222// 0011 333 91203;
0078997275999992011010211004+43650-070250FM-18+0010CASM1V02099999999999999999N9999999N1+00451+99999101201REMSYN069CMAN  02114 CASM1 46/// ///// 10045 40120 91036 222// 0011555  91209;
0078997275999992011010212004+43650-070250FM-18+0010CASM1V02099999999999999999N9999999N1+00421+99999101201REMSYN069CMAN  02124 CASM1 46/// ///// 10042 40120 91136 222// 0011 333 91204;
0078997275999992011010213004+43650-070250FM-18+0010CASM1V02099999999999999999N9999999N1+00411+99999101211REMSYN069CMAN  02134 CASM1 46/// ///// 10041 40121 91236 222// 0010555  91205;
0068997275999992011010214004+43650-070250FM-18+0010CASM1V02099999999999999999N9999999N1+00461+99999101271REMSYN059CMAN  02144 CASM1 46/// ///// 10046 40127 91336 222// 0010;
0080997275999992011010215004+43650-070250FM-18+0010CASM1V02099999999999999999N9999999N1+00561+99999101241REMSYN071CMAN  02154 CASM1 46/// ///// 10056 40124 91436 222// 0011 71022 86050;
0000997275999992011010216004+43650-070250FM-18+0010CASM1V02099999999999999999N9999999N1+00621+99999101191
0078997275999992011010217004+43650-070250FM-18+0010CASM1V02099999999999999999N9999999N1+00551+99999101101REMSYN069CMAN  02174 CASM1 46/// ///// 10055 40110 91636 222// 0012555  91206;
0078997275999992011010218004+43650-070250FM-18+0010CASM1V02099999999999999999N9999999N1+00611+99999101031REMSYN069CMAN  02184 CASM1 46/// ///// 10061 40103 91736 222// 0012555  91205;
0078997275999992011010219004+43650-070250FM-18+0010CASM1V02099999999999999999N9999999N1+00711+99999101021REMSYN069CMAN  02194 CASM1 46/// ///// 10071 40102 91836 222// 0011 333 91205;
0078997275999992011010220004+43650-070250FM-18+0010CASM1V02099999999999999999N9999999N1+00661+99999101061REMSYN069CMAN  02204 CASM1 46/// ///// 10066 40106 91936 222// 0011555  91203;
0078997275999992011010221004+43650-070250FM-18+0010CASM1V02099999999999999999N9999999N1+00681+99999100961REMSYN069CMAN  02214 CASM1 46/// ///// 10068 40096 92036 222// 0011555  91204;
0072997275999992011010222004+43650-070250FM-18+0010CASM1V02099999999999999999N9999999N1+00671+99999100941REMSYN063CMAN  02224 CASM1 46/// ///// 10067 40094 92136 222// 0012555 ;
0078997275999992011010223004+43650-070250FM-18+0010CASM1V02099999999999999999N9999999N1+00631+99999100911REMSYN069CMAN  02234 CASM1 46/// ///// 10063 40091 92236 222// 0001 333 91205;
0157997275999992011010300004+43650-070250FM-18+0010CASM1V02099999999999999999N9999999N1+00491+99999100811REMSYN148CMAN  03004 CASM1 46/// ///// 10049 40081 92336 56003 90000 333 91218 555 11015 22016 32343 401020 62359 008017 006017 005017 004017 00 96449 96436;
0115997275999992011010301004+43650-070250FM-18+0010CASM1V02099999999999999999N9999999N1+00531+99999100811REMSYN106CMAN  03014 CASM1 46/// ///// 10053 40081 90036 222// 0012555 572 333 20204 50150 55064 56300 58014 84619;
0078997275999992011010302004+43650-070250FM-18+0010CASM1V02099999999999999999N9999999N1+00571+99999100851REMSYN069CMAN  03024 CASM1 46/// ///// 10057 40085 90136 222// 0011555  91202;
0078997275999992011010303004+43650-070250FM-18+0010CASM1V02099999999999999999N9999999N1+00541+99999100741REMSYN069CMAN  03034 CASM1 46/// ///// 10054 40074 90236 222// 0012555  91217;
0152997275999992011010304004+43650-070250FM-18+0010CASM1V02099999999999999999N9999999N1+00521+99999100741REMSYN143CMAN  03044 CASM1 46/// ///// 10052 40074 90336 222// 0001// 40068 56002 76322 88/// 22200 0//// 20301 322// 40702 5//// 6//// 8//// ICE /////;
0078997275999992011010305004+43650-070250FM-18+0010CASM1V02099999999999999999N9999999N1+00461+99999100541REMSYN069CMAN  03054 CASM1 46/// ///// 10046 40054 90436 222// 0011555  91207;
0078997275999992011010306004+43650-070250FM-18+0010CASM1V02099999999999999999N9999999N1+00331+99999100591REMSYN069CMAN  03064 CASM1 46/// ///// 10033 40059 90536 222// 0001555  91203;
0078997275999992011010307004+43650-070250FM-18+0010CASM1V02099999999999999999N9999999N1+00081+99999100771REMSYN069CMAN  03074 CASM1 46/// ///// 10008 40077 90636 222// 0012555  91205;
0078997275999992011010308004+43650-070250FM-18+0010CASM1V02099999999999999999N9999999N1+00081+99999100801REMSYN069CMAN  03084 CASM1 46/// ///// 10008 40080 90736 222// 0011555  91203;
0078997275999992011010309004+43650-070250FM-18+0010CASM1V02099999999999999999N9999999N1+00051+99999100871REMSYN069CMAN  03094 CASM1 46/// ///// 10005 40087 90836 222// 0011555  91201;
0078997275999992011010310004+43650-070250FM-18+0010CASM1V02099999999999999999N9999999N1-00051+99999100931REMSYN069CMAN  03104 CASM1 46/// ///// 11005 40093 90936 222// 0011555  91230;
0078997275999992011010311004+43650-070250FM-18+0010CASM1V02099999999999999999N9999999N1-00121+99999101061REMSYN069CMAN  03114 CASM1 46/// ///// 11012 40106 91036 333 91220 555  91208;
0078997275999992011010312004+43650-070250FM-18+0010CASM1V02099999999999999999N9999999N1-00161+99999101161REMSYN069CMAN  03124 CASM1 46/// ///// 11016 40116 91136 222// 0011 333 91219;
0078997275999992011010313004+43650-070250FM-18+0010CASM1V02099999999999999999N9999999N1-00151+99999101231REMSYN069CMAN  03134 CASM1 46/// ///// 11015 40123 91236 222// 0010555  91203;
0099997275999992011010314004+43650-070250FM-18+0010CASM1V02099999999999999999N9999999N1-00101+99999101271REMSYN090CMAN  03144 CASM1 46/// ///// 11010 40127 91336 222// 00103 11402 21001 326// 41402 70012;
0078997275999992011010315004+43650-070250FM-18+0010CASM1V02099999999999999999N9999999N1-00031+99999101311REMSYN069CMAN  03154 CASM1 46/// ///// 11003 40131 91436 222// 0010555  91208;
0078997275999992011010316004+43650-070250FM-18+0010CASM1V02099999999999999999N9999999N1-00031+99999101321REMSYN069CMAN  03164 CASM1 46/// ///// 11003 40132 91536 222// 0011555  91205;
0078997275999992011010317004+43650-070250FM-18+0010CASM1V02099999999999999999N9999999N1+00011+99999101241REMSYN069CMAN  03174 CASM1 46/// ///// 10001 40124 91636 222// 0011555  91210;
0080997275999992011010318004+43650-070250FM-18+0010CASM1V02099999999999999999N9999999N1+00011+99999101201REMSYN071CMAN  03184 CASM1 46/// ///// 10001 40120 91736 222// 0011555 00 00072;
0072997275999992011010319004+43650-070250FM-18+0010CASM1V02099999999999999999N9999999N1+00021+99999101211REMSYN063CMAN  03194 CASM1 46/// ///// 10002 40121 91836 222// 0010555 ;
0078997275999992011010320004+43650-070250FM-18+0010CASM1V02099999999999999999N9999999N1-00011+99999101271REMSYN069CMAN  03204 CASM1 46/// ///// 11001 40127 91936 222// 0010 333 91204;
0078997275999992011010321004+43650-070250FM-18+0010CASM1V02099999999999999999N9999999N1-00031+99999101381REMSYN069CMAN  03214 CASM1 46/// ///// 11003 40138 92036 222// 0011555  91211;
0078997275999992011010322004+43650-070250FM-18+0010CASM1V02099999999999999999N9999999N1-00101+99999101461REMSYN069CMAN  03224 CASM1 46/// ///// 11010 40146 92136 222// 0011555  91204;
0078997275999992011010323004+43650-070250FM-18+0010CASM1V02099999999999999999N9999999N1-00121+99999101501REMSYN069CMAN  03234 CASM1 46/// ///// 11012 40150 92236 222// 0011555  91204;
0078997275999992011010400004+43650-070250FM-18+0010CASM1V02099999999999999999N9999999N1-00151+99999101551REMSYN069CMAN  04004 CASM1 46/// ///// 11015 40155 92336 222// 0011555  91204;
0078997275999992011010401004+43650-070250FM-18+0010CASM1V02099999999999999999N9999999N1-00181+99999101541REMSYN069CMAN  04014 CASM1 46/// ///// 11018 40154 90036 222// 0011 333 91205;
0082997275999992011010402004+43650-070250FM-18+0010CASM1V02099999999999999999N9999999N1-00201+99999101551REMSYN073CMAN  04024 CASM1 46/// ///// 11020 40155 90136 222// 001155 11010 22011;
0072997275999992011010403004+43650-070250FM-18+0010CASM1V02099999999999999999N9999999N1-00241+99999101551REMSYN063CMAN  04034 CASM1 46/// ///// 11024 40155 90236 222// 00111217;
0078997275999992011010404004+43650-070250FM-18+0010CASM1V02099999999999999999N9999999N1-00231+99999101521REMSYN069CMAN  04044 CASM1 46/// ///// 11023 40152 90336 222// 0011555  91204;
0082997275999992011010405004+43650-070250FM-18+0010CASM1V02099999999999999999N9999999N1-00281+99999101491REMSYN073CMAN  04054 CASM1 46/// ///// 11028 40149 90436 222// 001155 11011 22012;
0078997275999992011010406004+43650-070250FM-18+0010CASM1V02099999999999999999N9999999N1-00291+99999101451REMSYN069CMAN  04064 CASM1 46/// ///// 11029 40145 90536 222// 0011 333 91207;
0072997275999992011010407004+43650-070250FM-18+0010CASM1V02099999999999999999N9999999N1-00311+99999101491REMSYN063CMAN  04074 CASM1 46/// ///// 11031 40149 90636 222// 0011555 ;
0000997275999992011010408004+43650-070250FM-18+0010CASM1V02099999999999999999N9999999N1-00361+99999101471
0078997275999992011010409004+43650-070250FM-18+0010CASM1V02099999999999999999N9999999N1-00401+99999101461REMSYN069CMAN  04094 CASM1 46/// ///// 11040 40146 90836 222// 0011555  91201;
0078997275999992011010410004+43650-070250FM-18+0010CASM1V02099999999999999999N9999999N1-00431+99999101451REMSYN069CMAN  04104 CASM1 46/// ///// 11043 40145 90936 222// 0011555  91203;
0078997275999992011010411004+43650-070250FM-18+0010CASM1V02099999999999999999N9999999N1-00411+99999101441REMSYN069CMAN  04114 CASM1 46/// ///// 11041 40144 91036 222// 0011555  91203;
0078997275999992011010412004+43650-070250FM-18+0010CASM1V02099999999999999999N9999999N1-00531+99999101421REMSYN069CMAN  04124 CASM1 46/// ///// 11053 40142 91136 222// 0011555  91204;
0078997275999992011010413004+43650-070250FM-18+0010CASM1V02099999999999999999N9999999N1-00541+99999101381REMSYN069CMAN  04134 CASM1 46/// ///// 11054 40138 91236 222// 0011555  91214;
0078997275999992011010414004+43650-070250FM-18+0010CASM1V02099999999999999999N9999999N1-00461+99999101371REMSYN069CMAN  04144 CASM1 46/// ///// 11046 40137 91336 222// 0011 333 91206;
0097997275999992011010415004+43650-070250FM-18+0010CASM1V02099999999999999999N9999999N1-00181+99999101281ADDMD1810121+9999REMSYN071CMAN  04154 CASM1 46/// ///// 11018 40128 58012 91500 0001/ 0002 7//44;
0078997275999992011010416004+43650-070250FM-18+0010CASM1V02099999999999999999N9999999N1-00041+99999101201REMSYN069CMAN  04164 CASM1 46/// ///// 11004 40120 91542 222// 0001 333 91203;
0078997275999992011010417004+43650-070250FM-18+0010CASM1V02099999999999999999N9999999N1-00011+99999101061REMSYN069CMAN  04174 CASM1 46/// ///// 11001 40106 91636 222// 0011555  91204;
0078997275999992011010418004+43650-070250FM-18+0010CASM1V02099999999999999999N9999999N1+00001+99999101001REMSYN069CMAN  04184 CASM1 46/// ///// 10000 40100 91736 222// 0011555  91205;
0078997275999992011010419004+43650-070250FM-18+0010CASM1V02099999999999999999N9999999N1+00021+99999100911REMSYN069CMAN  04194 CASM1 46/// ///// 10002 40091 91836 222// 0011555  91203;
0078997275999992011010420004+43650-070250FM-18+0010CASM1V02099999999999999999N9999999N1+00021+99999100821REMSYN069CMAN  04204 CASM1 46/// ///// 10002 40082 91936 222// 0010555  91213;
0078997275999992011010421004+43650-070250FM-18+0010CASM1V02099999999999999999N9999999N1-00081+99999100781REMSYN069CMAN  04214 CASM1 46/// ///// 11008 40078 92036 222// 0011555  91205;
0082997275999992011010422004+43650-070250FM-18+0010CASM1V02099999999999999999N9999999N1-00151+99999100781REMSYN073CMAN  04224 CASM1 46/// ///// 11015 40078 92136 33 91217 555 11013 22014;
0099997275999992011010423004+43650-070250FM-18+0010CASM1V02099999999999999999N9999999N1-00141+99999100751REMSYN090CMAN  04234 CASM1 46/// ///// 11014 40075 92236 222// 0011555 802 20901 326// 41802 70011;
0000997275999992011010500004+43650-070250FM-18+0010CASM1V02099999999999999999N9999999N1-00121+99999100711
0078997275999992011010501004+43650-070250FM-18+0010CASM1V02099999999999999999N9999999N1-00111+99999100631REMSYN069CMAN  05014 CASM1 46/// ///// 11011 40063 90036 222// 0012555  91205;
0099997275999992011010502004+43650-070250FM-18+0010CASM1V02099999999999999999N9999999N1-00131+99999100581REMSYN090CMAN  05024 CASM1 46/// ///// 11013 40058 90136 222// 0012555 803 21001 326// 41802 70013;
0078997275999992011010503004+43650-070250FM-18+0010CASM1V02099999999999999999N9999999N1-00171+99999100551REMSYN069CMAN  05034 CASM1 46/// ///// 11017 40055 90236 222// 0012555  91210;
0173997275999992011010504004+43650-070250FM-18+0010CASM1V02099999999999999999N9999999N1-00261+99999100561REMSYN164CMAN  05044 CASM1 46/// ///// 11026 40056 90336 222// 00127 10703 20703 70017 333 91212 555 11105 22110 30316 42613 60349 280099 272090 272094 268102 271088 271098;
0078997275999992011010505004+43650-070250FM-18+0010CASM1V02099999999999999999N9999999N1-00261+99999100481REMSYN069CMAN  05054 CASM1 46/// ///// 11026 40048 90436 222// 0012555  91212;
0000997275999992011010506004+43650-070250FM-18+0010CASM1V02099999999999999999N9999999N1-00271+99999100431
0117997275999992011010507004+43650-070250FM-18+0010CASM1V02099999999999999999N9999999N1-00351+99999100421REMSYN108CMAN  05074 CASM1 46/// ///// 11035 40042 90636 222// 00120 70200 80000 22275 00252 20402 317// 40603 80230;
0078997275999992011010508004+43650-070250FM-18+0010CASM1V02099999999999999999N9999999N1-00331+99999100441REMSYN069CMAN  05084 CASM1 46/// ///// 11033 40044 90736 222// 0012555  91202;
0000997275999992011010509004+43650-070250FM-18+0010CASM1V02099999999999999999N9999999N1-00381+99999100421
0078997275999992011010510004+43650-070250FM-18+0010CASM1V02099999999999999999N9999999N1-00391+99999100421REMSYN069CMAN  05104 CASM1 46/// ///// 11039 40042 90936 222// 0012555  91202;
0078997275999992011010511004+43650-070250FM-18+0010CASM1V02099999999999999999N9999999N1-00401+99999100441REMSYN069CMAN  05114 CASM1 46/// ///// 11040 40044 91036 222// 0012555  91208;
0078997275999992011010512004+43650-070250FM-18+0010CASM1V02099999999999999999N9999999N1-00421+99999100481REMSYN069CMAN  05124 CASM1 46/// ///// 11042 40048 91136 222// 0012555  91202;
0078997275999992011010513004+43650-070250FM-18+0010CASM1V02099999999999999999N9999999N1-00441+99999100491REMSYN069CMAN  05134 CASM1 46/// ///// 11044 40049 91236 222// 001291212 555 ;
0078997275999992011010514004+43650-070250FM-18+0010CASM1V02099999999999999999N9999999N1-00311+99999100521REMSYN069CMAN  05144 CASM1 46/// ///// 11031 40052 91336 222// 0012555  91208;
0093997275999992011010515004+43650-070250FM-18+0010CASM1V02099999999999999999N9999999N1-00091+99999100511REMSYN084CMAN  05154 CASM1 46/// ///// 11009 40051 91436 222// 001291214 555 2// 10704 70020;
0078997275999992011010516004+43650-070250FM-18+0010CASM1V02099999999999999999N9999999N1+00021+99999100471REMSYN069CMAN  05164 CASM1 46/// ///// 10002 40047 91536 222// 0012555  91202;
0078997275999992011010517004+43650-070250FM-18+0010CASM1V02099999999999999999N9999999N1+00091+99999100401REMSYN069CMAN  05174 CASM1 46/// ///// 10009 40040 91636 222// 0013 333 91202;
0074997275999992011010518004+43650-070250FM-18+0010CASM1V02099999999999999999N9999999N1+00091+99999100371REMSYN065CMAN  05184 CASM1 46/// ///// 10009 40037 91736 222// 0013555 /1;
0078997275999992011010519004+43650-070250FM-18+0010CASM1V02099999999999999999N9999999N1+00001+99999100371REMSYN069CMAN  05194 CASM1 46/// ///// 10000 40037 91836 222// 0013555  91212;
0000997275999992011010520004+43650-070250FM-18+0010CASM1V02099999999999999999N9999999N1+00051+99999100361
0078997275999992011010521004+43650-070250FM-18+0010CASM1V02099999999999999999N9999999N1+00011+99999100401REMSYN069CMAN  05214 CASM1 46/// ///// 10001 40040 92036 222// 0012555  91205;
0068997275999992011010522004+43650-070250FM-18+0010CASM1V02099999999999999999N9999999N1+00021+99999100411REMSYN059CMAN  05224 CASM1 46/// ///// 10002 40041 92136 222// 0012;
0078997275999992011010523004+43650-070250FM-18+0010CASM1V02099999999999999999N9999999N1-00031+99999100431REMSYN069CMAN  05234 CASM1 46/// ///// 11003 40043 92236 222// 0012555  91208;
0078997275999992011010600004+43650-070250FM-18+0010CASM1V02099999999999999999N9999999N1-00091+99999100481REMSYN069CMAN  06004 CASM1 46/// ///// 11009 40048 92336 222// 0001555  91206;
0078997275999992011010601004+43650-070250FM-18+0010CASM1V02099999999999999999N9999999N1-00151+99999100491REMSYN069CMAN  06014 CASM1 46/// ///// 11015 40049 90036 222// 0012555  91205;
0078997275999992011010602004+43650-070250FM-18+0010CASM1V02099999999999999999N9999999N1-00221+99999100521REMSYN069CMAN  06024 CASM1 46/// ///// 11022 40052 90136 222// 0012555  91211;
0078997275999992011010603004+43650-070250FM-18+0010CASM1V02099999999999999999N9999999N1-00291+99999100511REMSYN069CMAN  06034 CASM1 46/// ///// 11029 40051 90236 222// 0012555  91204;
0072997275999992011010604004+43650-070250FM-18+0010CASM1V02099999999999999999N9999999N1-00361+99999100531REMSYN063CMAN  06044 CASM1 46/// ///// 11036 40053 90336 222// 0012555 ;
0078997275999992011010605004+43650-070250FM-18+0010CASM1V02099999999999999999N9999999N1-00431+99999100521REMSYN069CMAN  06054 CASM1 46/// ///// 11043 40052 90436 222// 0001555  91207;
0078997275999992011010606004+43650-070250FM-18+0010CASM1V02099999999999999999N9999999N1-00501+99999100491REMSYN069CMAN  06064 CASM1 46/// ///// 11050 40049 90536 222// 0012 333 91203;
0000997275999992011010607004+43650-070250FM-18+0010CASM1V02099999999999999999N9999999N1-00571+99999100521
0000997275999992011010608004+43650-070250FM-18+0010CASM1V02099999999999999999N9999999N1-00601+99999100511
0078997275999992011010609004+43650-070250FM-18+0010CASM1V02099999999999999999N9999999N1-00631+99999100501REMSYN069CMAN  06094 CASM1 46/// ///// 11063 40050 90836 222// 0001555  91205;
0078997275999992011010610004+43650-070250FM-18+0010CASM1V02099999999999999999N9999999N1-00621+99999100531REMSYN069CMAN  06104 CASM1 46/// ///// 11062 40053 90936 222// 0012555  91202;
0078997275999992011010611004+43650-070250FM-18+0010CASM1V02099999999999999999N9999999N1-00671+99999100541REMSYN069CMAN  06114 CASM1 46/// ///// 11067 40054 91036 222// 0012 333 91209;
0068997275999992011010612004+43650-070250FM-18+0010CASM1V02099999999999999999N9999999N1-00661+99999100581REMSYN059CMAN  06124 CASM1 46/// ///// 11066 40058 91136 222// 0012;
0078997275999992011010613004+43650-070250FM-18+0010CASM1V02099999999999999999N9999999N1-00631+99999100561REMSYN069CMAN  06134 CASM1 46/// ///// 11063 40056 91236 222// 0011555  91208;
0000997275999992011010614004+43650-070250FM-18+0010CASM1V02099999999999999999N9999999N1-00621+99999100561
0078997275999992011010615004+43650-070250FM-18+0010CASM1V02099999999999999999N9999999N1-00541+99999100551REMSYN069CMAN  06154 CASM1 46/// ///// 11054 40055 91436 222// 0001555  91202;
0078997275999992011010616004+43650-070250FM-18+0010CASM1V02099999999999999999N9999999N1-00401+99999100491REMSYN069CMAN  06164 CASM1 46/// ///// 11040 40049 91536 222// 0011 333 91204;
0078997275999992011010617004+43650-070250FM-18+0010CASM1V02099999999999999999N9999999N1-00341+99999100411REMSYN069CMAN  06174 CASM1 46/// ///// 11034 40041 91636 222// 0012555  91211;
0078997275999992011010618004+43650-070250FM-18+0010CASM1V02099999999999999999N9999999N1-00181+99999100331REMSYN069CMAN  06184 CASM1 46/// ///// 11018 40033 91736 222// 0013 333 91207;
0072997275999992011010619004+43650-070250FM-18+0010CASM1V02099999999999999999N9999999N1-00241+99999100321REMSYN063CMAN  06194 CASM1 46/// ///// 11024 40032 91836 222// 0013555 ;
0068997275999992011010620004+43650-070250FM-18+0010CASM1V02099999999999999999N9999999N1-00191+99999100331REMSYN059CMAN  06204 CASM1 46/// ///// 11019 40033 91936 222// 0013;
0078997275999992011010621004+43650-070250FM-18+0010CASM1V02099999999999999999N9999999N1-00201+99999100371REMSYN069CMAN  06214 CASM1 46/// ///// 11020 40037 92036 222// 0012 333 91205;
0078997275999992011010622004+43650-070250FM-18+0010CASM1V02099999999999999999N9999999N1-00231+99999100361REMSYN069CMAN  06224 CASM1 46/// ///// 11023 40036 92136 222// 0012 333 91210;
0078997275999992011010623004+43650-070250FM-18+0010CASM1V02099999999999999999N9999999N1-00261+99999100381REMSYN069CMAN  06234 CASM1 46/// ///// 11026 40038 92236 222// 0012555  91206;
0078997275999992011010700004+43650-070250FM-18+0010CASM1V02099999999999999999N9999999N1-00281+99999100381REMSYN069CMAN  07004 CASM1 46/// ///// 11028 40038 92336 222// 0013555  91206;
0124997275999992011010701004+43650-070250FM-18+0010CASM1V02099999999999999999N9999999N1-00461+99999100391REMSYN115CMAN  07014 CASM1 46/// ///// 11046 40039 90036 222// 0013555 32 78582 883// 333 21066 4/032 70060 555 15009 19032;
0078997275999992011010702004+43650-070250FM-18+0010CASM1V02099999999999999999N9999999N1-00411+99999100381REMSYN069CMAN  07024 CASM1 46/// ///// 11041 40038 90136 222// 0013555  91207;
0000997275999992011010703004+43650-070250FM-18+0010CASM1V02099999999999999999N9999999N1-00491+99999100411
0078997275999992011010704004+43650-070250FM-18+0010CASM1V02099999999999999999N9999999N1-00551+99999100391REMSYN069CMAN  07044 CASM1 46/// ///// 11055 40039 90336 222// 0013 333 91205;
0078997275999992011010705004+43650-070250FM-18+0010CASM1V02099999999999999999N9999999N1-00581+99999100321REMSYN069CMAN  07054 CASM1 46/// ///// 11058 40032 90436 222// 0012555  91205;
0072997275999992011010706004+43650-070250FM-18+0010CASM1V02099999999999999999N9999999N1-00561+99999100301REMSYN063CMAN  07064 CASM1 46/// ///// 11056 40030 90536 222// 0012555 ;
0078997275999992011010707004+43650-070250FM-18+0010CASM1V02099999999999999999N9999999N1-00661+99999100331REMSYN069CMAN  07074 CASM1 46/// ///// 11066 40033 90636 222// 0012555  91205;
0000997275999992011010708004+43650-070250FM-18+0010CASM1V02099999999999999999N9999999N1-00741+99999100311
0078997275999992011010709004+43650-070250FM-18+0010CASM1V02099999999999999999N9999999N1-00741+99999100311REMSYN069CMAN  07094 CASM1 46/// ///// 11074 40031 90836 222// 0012555  91205;
0078997275999992011010710004+43650-070250FM-18+0010CASM1V02099999999999999999N9999999N1-00791+99999100241REMSYN069CMAN  07104 CASM1 46/// ///// 11079 40024 90936 222// 0012555  91205;
0078997275999992011010711004+43650-070250FM-18+0010CASM1V02099999999999999999N9999999N1-00801+99999100261REMSYN069CMAN  07114 CASM1 46/// ///// 11080 40026 91036 222// 0012 333 91205;
0000997275999992011010712004+43650-070250FM-18+0010CASM1V02099999999999999999N9999999N1-00811+99999100291
0000997275999992011010713004+43650-070250FM-18+0010CASM1V02099999999999999999N9999999N1-00791+99999100311
0078997275999992011010714004+43650-070250FM-18+0010CASM1V02099999999999999999N9999999N1-00761+99999100291REMSYN069CMAN  07144 CASM1 46/// ///// 11076 40029 91336 222// 0001555  91206;
0078997275999992011010715004+43650-070250FM-18+0010CASM1V02099999999999999999N9999999N1-00621+99999100261REMSYN069CMAN  07154 CASM1 46/// ///// 11062 40026 91436 222// 0012555  91203;
0078997275999992011010716004+43650-070250FM-18+0010CASM1V02099999999999999999N9999999N1-00521+99999100161REMSYN069CMAN  07164 CASM1 46/// ///// 11052 40016 91536 222// 0012555  91202;
0099997275999992011010717004+43650-070250FM-18+0010CASM1V02099999999999999999N9999999N1-00351+99999100031REMSYN090CMAN  07174 CASM1 46/// ///// 11035 40003 91636 222// 00125 11302 21001 324// 41301 70008;
0114997275999992011010718004+43650-070250FM-18+0010CASM1V02099999999999999999N9999999N1-00311+99999100011REMSYN105CMAN  07184 CASM1 46/// ///// 11031 40001 91736 222// 0013555 22 886// 333 55300 20001 30001 88704 98024;
0078997275999992011010719004+43650-070250FM-18+0010CASM1V02099999999999999999N9999999N1-00261+99999100001REMSYN069CMAN  07194 CASM1 46/// ///// 11026 40000 91836 222// 0012555  91203;
0078997275999992011010720004+43650-070250FM-18+0010CASM1V02099999999999999999N9999999N1-00291+99999099991REMSYN069CMAN  07204 CASM1 46/// ///// 11029 49999 91936 222// 0012555  91206;
0078997275999992011010721004+43650-070250FM-18+0010CASM1V02099999999999999999N9999999N1-00311+99999099951REMSYN069CMAN  07214 CASM1 46/// ///// 11031 49995 92036 222// 0012 333 91205;
0078997275999992011010722004+43650-070250FM-18+0010CASM1V02099999999999999999N9999999N1-00331+99999099921REMSYN069CMAN  07224 CASM1 46/// ///// 11033 49992 92136 222// 0012 333 91205;
0078997275999992011010723004+43650-070250FM-18+0010CASM1V02099999999999999999N9999999N1-00371+99999099931REMSYN069CMAN  07234 CASM1 46/// ///// 11037 49993 92236 222// 0001555  91211;
0078997275999992011010800004+43650-070250FM-18+0010CASM1V02099999999999999999N9999999N1-00441+99999099911REMSYN069CMAN  08004 CASM1 46/// ///// 11044 49991 92336 222// 0013555  91205;
0078997275999992011010801004+43650-070250FM-18+0010CASM1V02099999999999999999N9999999N1-00481+99999099911REMSYN069CMAN  08014 CASM1 46/// ///// 11048 49991 90036 222// 0013555  91207;
0000997275999992011010802004+43650-070250FM-18+0010CASM1V02099999999999999999N9999999N1-00521+99999099941
0068997275999992011010803004+43650-070250FM-18+0010CASM1V02099999999999999999N9999999N1-00571+99999099921REMSYN059CMAN  08034 CASM1 46/// ///// 11057 49992 90236 222// 0013;
0000997275999992011010804004+43650-070250FM-18+0010CASM1V02099999999999999999N9999999N1-00561+99999099881
0000997275999992011010805004+43650-070250FM-18+0010CASM1V02099999999999999999N9999999N1-00561+99999099841
0078997275999992011010806004+43650-070250FM-18+0010CASM1V02099999999999999999N9999999N1-00571+99999099841REMSYN069CMAN  08064 CASM1 46/// ///// 11057 49984 90536 222// 0013555  91202;
0078997275999992011010807004+43650-070250FM-18+0010CASM1V02099999999999999999N9999999N1-00591+99999099801REMSYN069CMAN  08074 CASM1 46/// ///// 11059 49980 90636 222// 0013 333 91204;
0110997275999992011010808004+43650-070250FM-18+0010CASM1V02099999999999999999N9999999N1-00501+99999099791REMSYN101CMAN  08084 CASM1 46/// ///// 11050 49979 90736 222// 0001 22200 00138 11502 21001 323// 41501 70008;
0078997275999992011010809004+43650-070250FM-18+0010CASM1V02099999999999999999N9999999N1-00531+99999099781REMSYN069CMAN  08094 CASM1 46/// ///// 11053 49978 90836 222// 0013555  91203;
0078997275999992011010810004+43650-070250FM-18+0010CASM1V02099999999999999999N9999999N1-00471+99999099771REMSYN069CMAN  08104 CASM1 46/// ///// 11047 49977 90936 222// 0013555  91204;
0078997275999992011010811004+43650-070250FM-18+0010CASM1V02099999999999999999N9999999N1-00431+99999099771REMSYN069CMAN  08114 CASM1 46/// ///// 11043 49977 91036 222// 0002 333 91228;
0072997275999992011010812004+43650-070250FM-18+0010CASM1V02099999999999999999N9999999N1-00421+99999099791REMSYN063CMAN  08124 CASM1 46/// ///// 11042 49979 91136 222// 0012555 ;
0078997275999992011010813004+43650-070250FM-18+0010CASM1V02099999999999999999N9999999N1-00401+99999099851REMSYN069CMAN  08134 CASM1 46/// ///// 11040 49985 91236 222// 0013555  91206;
0000997275999992011010814004+43650-070250FM-18+0010CASM1V02099999999999999999N9999999N1-00401+99999099871
0078997275999992011010815004+43650-070250FM-18+0010CASM1V02099999999999999999N9999999N1-00321+99999099901REMSYN069CMAN  08154 CASM1 46/// ///// 11032 49990 91436 222// 0012 333 91205;
0090997275999992011010816004+43650-070250FM-18+0010CASM1V02099999999999999999N9999999N1-00251+99999099871REMSYN081CMAN  08164 CASM1 46/// ///// 11025 49987 91536 222// 0012 60001 333 55300 88/59;
0068997275999992011010817004+43650-070250FM-18+0010CASM1V02099999999999999999N9999999N1-00141+99999099781REMSYN059CMAN  08174 CASM1 46/// ///// 11014 49978 91636 222// 0013;
0078997275999992011010818004+43650-070250FM-18+0010CASM1V02099999999999999999N9999999N1-00051+99999099711REMSYN069CMAN  08184 CASM1 46/// ///// 11005 49971 91736 222// 0012555  91205;
0000997275999992011010819004+43650-070250FM-18+0010CASM1V02099999999999999999N9999999N1+00011+99999099661
0078997275999992011010820004+43650-070250FM-18+0010CASM1V02099999999999999999N9999999N1+00031+99999099701REMSYN069CMAN  08204 CASM1 46/// ///// 10003 49970 91936 222// 0012 333 91205;
0000997275999992011010821004+43650-070250FM-18+0010CASM1V02099999999999999999N9999999N1+00041+99999099661
0078997275999992011010822004+43650-070250FM-18+0010CASM1V02099999999999999999N9999999N1+00011+99999099651REMSYN069CMAN  08224 CASM1 46/// ///// 10001 49965 92136 222// 0012555  91205;
0078997275999992011010823004+43650-070250FM-18+0010CASM1V02099999999999999999N9999999N1-00061+99999099631REMSYN069CMAN  08234 CASM1 46/// ///// 11006 49963 92236 222// 0014555  91203;
0078997275999992011010900004+43650-070250FM-18+0010CASM1V02099999999999999999N9999999N1-00111+99999099681REMSYN069CMAN  09004 CASM1 46/// ///// 11011 49968 92336 222// 0014555  91204;
0078997275999992011010901004+43650-070250FM-18+0010CASM1V02099999999999999999N9999999N1-00101+99999099591REMSYN069CMAN  09014 CASM1 46/// ///// 11010 49959 90036 222// 0001 333 91230;
0000997275999992011010902004+43650-070250FM-18+0010CASM1V02099999999999999999N9999999N1-00081+99999099551
0000997275999992011010903004+43650-070250FM-18+0010CASM1V02099999999999999999N9999999N1-00081+99999099501
0078997275999992011010904004+43650-070250FM-18+0010CASM1V02099999999999999999N9999999N1-00081+99999099431REMSYN069CMAN  09044 CASM1 46/// ///// 11008 49943 90336 222// 0000555  91203;
0078997275999992011010905004+43650-070250FM-18+0010CASM1V02099999999999999999N9999999N1-00091+99999099341REMSYN069CMAN  09054 CASM1 46/// ///// 11009 49934 90436 222// 0013555  91204;
0078997275999992011010906004+43650-070250FM-18+0010CASM1V02099999999999999999N9999999N1-00031+99999099351REMSYN069CMAN  09064 CASM1 46/// ///// 11003 49935 90536 222// 0013555  91206;
0068997275999992011010907004+43650-070250FM-18+0010CASM1V02099999999999999999N9999999N1-00031+99999099321REMSYN059CMAN  09074 CASM1 46/// ///// 11003 49932 90636 222// 0013;
0082997275999992011010908004+43650-070250FM-18+0010CASM1V02099999999999999999N9999999N1-00031+99999099351REMSYN073CMAN  09084 CASM1 46/// ///// 11003 49935 90736 222// 001355 11008 22009;
0072997275999992011010909004+43650-070250FM-18+0010CASM1V02099999999999999999N9999999N1-00031+99999099451REMSYN063CMAN  09094 CASM1 46/// ///// 11003 49945 90836 222// 0013555 ;
0078997275999992011010910004+43650-070250FM-18+0010CASM1V02099999999999999999N9999999N1-00061+99999099521REMSYN069CMAN  09104 CASM1 46/// ///// 11006 49952 90936 222// 0002 333 91250;
0078997275999992011010911004+43650-070250FM-18+0010CASM1V02099999999999999999N9999999N1-00081+99999099581REMSYN069CMAN  09114 CASM1 46/// ///// 11008 49958 91036 222// 0013555  91206;
0078997275999992011010912004+43650-070250FM-18+0010CASM1V02099999999999999999N9999999N1-00091+99999099641REMSYN069CMAN  09124 CASM1 46/// ///// 11009 49964 91136 222// 0013555  91206;
0078997275999992011010913004+43650-070250FM-18+0010CASM1V02099999999999999999N9999999N1-00131+99999099701REMSYN069CMAN  09134 CASM1 46/// ///// 11013 49970 91236 222// 0013555  91205;
0000997275999992011010914004+43650-070250FM-18+0010CASM1V02099999999999999999N9999999N1-00071+99999099801
0078997275999992011010915004+43650-070250FM-18+0010CASM1V02099999999999999999N9999999N1+00061+99999099851REMSYN069CMAN  09154 CASM1 46/// ///// 10006 49985 91436 222// 0012 333 91206;
0068997275999992011010916004+43650-070250FM-18+0010CASM1V02099999999999999999N9999999N1+00171+99999099811REMSYN059CMAN  09164 CASM1 46/// ///// 10017 49981 91536 222// 0012;
0096997275999992011010917004+43650-070250FM-18+0010CASM1V02099999999999999999N9999999N1+00271+99999099771REMSYN087CMAN  09174 CASM1 46/// ///// 10027 49977 91636 222// 0013555 42 87500 333 84710 87620;
0078997275999992011010918004+43650-070250FM-18+0010CASM1V02099999999999999999N9999999N1+00281+99999099791REMSYN069CMAN  09184 CASM1 46/// ///// 10028 49979 91736 222// 0013555  91203;
0110997275999992011010919004+43650-070250FM-18+0010CASM1V02099999999999999999N9999999N1+00281+99999099891REMSYN101CMAN  09194 CASM1 46/// ///// 10028 49989 91836 222// 0013555 00 00251 11402 20901 329// 41501 70009;
0073997275999992011010920004+43650-070250FM-18+0010CASM1V02099999999999999999N9999999N1+00281+99999100041REMSYN064CMAN  09204 CASM1 46/// ///// 10028 40004 91936 222// 000292417;
0000997275999992011010921004+43650-070250FM-18+0010CASM1V02099999999999999999N9999999N1+00191+99999100171
0078997275999992011010922004+43650-070250FM-18+0010CASM1V02099999999999999999N9999999N1+00091+99999100281REMSYN069CMAN  09224 CASM1 46/// ///// 10009 40028 92136 222// 0013555  91205;
0078997275999992011010923004+43650-070250FM-18+0010CASM1V02099999999999999999N9999999N1+00001+99999100441REMSYN069CMAN  09234 CASM1 46/// ///// 10000 40044 92236 222// 0013555  91205;
0000997275999992011011000004+43650-070250FM-18+0010CASM1V02099999999999999999N9999999N1-00071+99999100581
0078997275999992011011001004+43650-070250FM-18+0010CASM1V02099999999999999999N9999999N1-00121+99999100651REMSYN069CMAN  10014 CASM1 46/// ///// 11012 40065 90036 222// 0012 333 91205;
0149997275999992011011002004+43650-070250FM-18+0010CASM1V02099999999999999999N9999999N1-00151+99999100731REMSYN140CMAN  10024 CASM1 46/// ///// 11015 40073 90136 222// 00161204 555 11002 22002 30111 433005 60159 311002 297003 314002 320003 333004 326003;
0078997275999992011011003004+43650-070250FM-18+0010CASM1V02099999999999999999N9999999N1-00221+99999100791REMSYN069CMAN  10034 CASM1 46/// ///// 11022 40079 90236 222// 0012555  91228;
0149997275999992011011004004+43650-070250FM-18+0010CASM1V02099999999999999999N9999999N1-00311+99999100811REMSYN140CMAN  10044 CASM1 46/// ///// 11031 40081 90342 222// 00021204 555 11004 22004 30353 431006 60359 324004 345002 017001 049001 072001 052001;
0078997275999992011011005004+43650-070250FM-18+0010CASM1V02099999999999999999N9999999N1-00351+99999100861REMSYN069CMAN  10054 CASM1 46/// ///// 11035 40086 90436 222// 0012 333 91203;
0078997275999992011011006004+43650-070250FM-18+0010CASM1V02099999999999999999N9999999N1-00411+99999100901REMSYN069CMAN  10064 CASM1 46/// ///// 11041 40090 90536 222// 0012555  91202;
0072997275999992011011007004+43650-070250FM-18+0010CASM1V02099999999999999999N9999999N1-00451+99999100911REMSYN063CMAN  10074 CASM1 46/// ///// 11045 40091 90636 222// 0012555 ;
0078997275999992011011008004+43650-070250FM-18+0010CASM1V02099999999999999999N9999999N1-00481+99999100981REMSYN069CMAN  10084 CASM1 46/// ///// 11048 40098 90736 222// 0002 333 91225;
0078997275999992011011009004+43650-070250FM-18+0010CASM1V02099999999999999999N9999999N1-00531+99999101001REMSYN069CMAN  10094 CASM1 46/// ///// 11053 40100 90836 222// 0012555  91205;
0078997275999992011011010004+43650-070250FM-18+0010CASM1V02099999999999999999N9999999N1-00541+99999101031REMSYN069CMAN  10104 CASM1 46/// ///// 11054 40103 90936 222// 0012555  91217;
0078997275999992011011011004+43650-070250FM-18+0010CASM1V02099999999999999999N9999999N1-00531+99999101041REMSYN069CMAN  10114 CASM1 46/// ///// 11053 40104 91036 222// 0012555  91205;
0078997275999992011011012004+43650-070250FM-18+0010CASM1V02099999999999999999N9999999N1-00411+99999101131REMSYN069CMAN  10124 CASM1 46/// ///// 11041 40113 91136 222// 0011555  91202;
0078997275999992011011013004+43650-070250FM-18+0010CASM1V02099999999999999999N9999999N1-00331+99999101201REMSYN069CMAN  10134 CASM1 46/// ///// 11033 40120 91236 222// 0011555  91205;
0078997275999992011011014004+43650-070250FM-18+0010CASM1V02099999999999999999N9999999N1-00311+99999101291REMSYN069CMAN  10144 CASM1 46/// ///// 11031 40129 91336 222// 0011 333 91217;
0078997275999992011011015004+43650-070250FM-18+0010CASM1V02099999999999999999N9999999N1-00261+99999101351REMSYN069CMAN  10154 CASM1 46/// ///// 11026 40135 91436 222// 0010555  91205;
0068997275999992011011016004+43650-070250FM-18+0010CASM1V02099999999999999999N9999999N1-00121+99999101351REMSYN059CMAN  10164 CASM1 46/// ///// 11012 40135 91536 222// 0010;
0072997275999992011011017004+43650-070250FM-18+0010CASM1V02099999999999999999N9999999N1-00071+99999101281REMSYN063CMAN  10174 CASM1 46/// ///// 11007 40128 91636 222// 0010555 ;
0082997275999992011011018004+43650-070250FM-18+0010CASM1V02099999999999999999N9999999N1+00071+99999101271REMSYN073CMAN  10184 CASM1 46/// ///// 10007 40127 91736 222// 001055 11007 22007;
0078997275999992011011019004+43650-070250FM-18+0010CASM1V02099999999999999999N9999999N1+00141+99999101281REMSYN069CMAN  10194 CASM1 46/// ///// 10014 40128 91836 222// 0010555  91208;
0078997275999992011011020004+43650-070250FM-18+0010CASM1V02099999999999999999N9999999N1+00191+99999101371REMSYN069CMAN  10204 CASM1 46/// ///// 10019 40137 91936 222// 0010555  91217;
0078997275999992011011021004+43650-070250FM-18+0010CASM1V02099999999999999999N9999999N1+00141+99999101471REMSYN069CMAN  10214 CASM1 46/// ///// 10014 40147 92036 222// 0010555  91204;
0085997275999992011011022004+43650-070250FM-18+0010CASM1V02099999999999999999N9999999N1+00041+99999101561REMSYN076CMAN  10224 CASM1 46/// ///// 10004 40156 92142 222// 001091034 90710 91137;
0099997275999992011011023004+43650-070250FM-18+0010CASM1V02099999999999999999N9999999N1-00011+99999101651REMSYN090CMAN  10234 CASM1 46/// ///// 11001 40165 92236 222// 0010555 802 20601 326// 41801 70008;
0000997275999992011011100004+43650-070250FM-18+0010CASM1V02099999999999999999N9999999N1-00101+99999101731
0078997275999992011011101004+43650-070250FM-18+0010CASM1V02099999999999999999N9999999N1-00211+99999101781REMSYN069CMAN  11014 CASM1 46/// ///// 11021 40178 90036 222// 0010555  91205;
0000997275999992011011102004+43650-070250FM-18+0010CASM1V02099999999999999999N9999999N1-00301+99999101871
0078997275999992011011103004+43650-070250FM-18+0010CASM1V02099999999999999999N9999999N1-00381+99999101911REMSYN069CMAN  11034 CASM1 46/// ///// 11038 40191 90236 222// 0000 333 91209;
0072997275999992011011104004+43650-070250FM-18+0010CASM1V02099999999999999999N9999999N1-00421+99999101881REMSYN063CMAN  11044 CASM1 46/// ///// 11042 40188 90336 222// 0000555 ;
0078997275999992011011105004+43650-070250FM-18+0010CASM1V02099999999999999999N9999999N1-00401+99999101921REMSYN069CMAN  11054 CASM1 46/// ///// 11040 40192 90436 222// 0010555  91206;
0078997275999992011011106004+43650-070250FM-18+0010CASM1V02099999999999999999N9999999N1-00461+99999102011REMSYN069CMAN  11064 CASM1 46/// ///// 11046 40201 90536 222// 0000 333 91205;
0145997275999992011011107004+43650-070250FM-18+0010CASM1V02099999999999999999N9999999N1-00481+99999102041REMSYN136CMAN  11074 CASM1 46/// ///// 11048 40204 90636 58007 90700 333 91215 555 11012 22013 30659 414015 60659 143011 141010 139009 137008 13;
0078997275999992011011108004+43650-070250FM-18+0010CASM1V02099999999999999999N9999999N1-00511+99999102151REMSYN069CMAN  11084 CASM1 46/// ///// 11051 40215 90736 222// 0010555  91204;
0000997275999992011011109004+43650-070250FM-18+0010CASM1V02099999999999999999N9999999N1-00531+99999102181
0079997275999992011011110004+43650-070250FM-18+0010CASM1V02099999999999999999N9999999N1-00581+99999102211REMSYN070CMAN  11104 CASM1 46/// ///// 11058 40221 90936 222// 000291214 555 5;
0078997275999992011011111004+43650-070250FM-18+0010CASM1V02099999999999999999N9999999N1-00661+99999102221REMSYN069CMAN  11114 CASM1 46/// ///// 11066 40222 91036 222// 000991211 555 ;
0078997275999992011011112004+43650-070250FM-18+0010CASM1V02099999999999999999N9999999N1-00711+99999102281REMSYN069CMAN  11124 CASM1 46/// ///// 11071 40228 91136 222// 0009 333 91217;
0078997275999992011011113004+43650-070250FM-18+0010CASM1V02099999999999999999N9999999N1-00731+99999102351REMSYN069CMAN  11134 CASM1 46/// ///// 11073 40235 91236 222// 0009 333 91203;
0078997275999992011011114004+43650-070250FM-18+0010CASM1V02099999999999999999N9999999N1-00631+99999102401REMSYN069CMAN  11144 CASM1 46/// ///// 11063 40240 91336 222// 0009555  91203;
0078997275999992011011115004+43650-070250FM-18+0010CASM1V02099999999999999999N9999999N1-00521+99999102431REMSYN069CMAN  11154 CASM1 46/// ///// 11052 40243 91436 222// 0009555  91212;
0078997275999992011011116004+43650-070250FM-18+0010CASM1V02099999999999999999N9999999N1-00371+99999102361REMSYN069CMAN  11164 CASM1 46/// ///// 11037 40236 91536 222// 0009555  91213;
0078997275999992011011117004+43650-070250FM-18+0010CASM1V02099999999999999999N9999999N1-00281+99999102241REMSYN069CMAN  11174 CASM1 46/// ///// 11028 40224 91636 222// 0009555  91209;
0078997275999992011011118004+43650-070250FM-18+0010CASM1V02099999999999999999N9999999N1-00231+99999102171REMSYN069CMAN  11184 CASM1 46/// ///// 11023 40217 91736 222// 0009555  91204;
0078997275999992011011119004+43650-070250FM-18+0010CASM1V02099999999999999999N9999999N1-00171+99999102161REMSYN069CMAN  11194 CASM1 46/// ///// 11017 40216 91836 222// 0009 333 91202;
0080997275999992011011120004+43650-070250FM-18+0010CASM1V02099999999999999999N9999999N1-00181+99999102141REMSYN071CMAN  11204 CASM1 46/// ///// 11018 40214 91936 222// 0009 74144 91930;
0078997275999992011011121004+43650-070250FM-18+0010CASM1V02099999999999999999N9999999N1-00171+99999102111REMSYN069CMAN  11214 CASM1 46/// ///// 11017 40211 92036 222// 0009555  91203;
0078997275999992011011122004+43650-070250FM-18+0010CASM1V02099999999999999999N9999999N1-00221+99999102141REMSYN069CMAN  11224 CASM1 46/// ///// 11022 40214 92136 222// 0009555  91214;
0078997275999992011011123004+43650-070250FM-18+0010CASM1V02099999999999999999N9999999N1-00241+99999102131REMSYN069CMAN  11234 CASM1 46/// ///// 11024 40213 92236 222// 0009555  91204;
0000997275999992011011200004+43650-070250FM-18+0010CASM1V02099999999999999999N9999999N1-00181+99999102091
0068997275999992011011201004+43650-070250FM-18+0010CASM1V02099999999999999999N9999999N1-00251+99999102011REMSYN059CMAN  12014 CASM1 46/// ///// 11025 40201 90036 222// 0000;
0000997275999992011011202004+43650-070250FM-18+0010CASM1V02099999999999999999N9999999N1-00281+99999101971
0078997275999992011011203004+43650-070250FM-18+0010CASM1V02099999999999999999N9999999N1-00351+99999101881REMSYN069CMAN  12034 CASM1 46/// ///// 11035 40188 90236 222// 0008 333 91224;
0000997275999992011011204004+43650-070250FM-18+0010CASM1V02099999999999999999N9999999N1-00331+99999101771
0000997275999992011011205004+43650-070250FM-18+0010CASM1V02099999999999999999N9999999N1-00361+99999101721
0155997275999992011011206004+43650-070250FM-18+0010CASM1V02099999999999999999N9999999N1-00401+99999101571REMSYN146CMAN  12064 CASM1 46/// ///// 11040 40157 90536 222// 000291208 555 11007 22007 30500 434010 60559 340005 350003 357002 323003 33 93100 555 60005;
0084997275999992011011207004+43650-070250FM-18+0010CASM1V02099999999999999999N9999999N1-00361+99999101491REMSYN075CMAN  12074 CASM1 46/// ///// 11036 40149 90636 222// 0008 555 11004 22004;
0000997275999992011011208004+43650-070250FM-18+0010CASM1V02099999999999999999N9999999N1-00341+99999101391
0078997275999992011011209004+43650-070250FM-18+0010CASM1V02099999999999999999N9999999N1-00281+99999101221REMSYN069CMAN  12094 CASM1 46/// ///// 11028 40122 90836 222// 0008555  91200;
0078997275999992011011210004+43650-070250FM-18+0010CASM1V02099999999999999999N9999999N1-00241+99999100841REMSYN069CMAN  12104 CASM1 46/// ///// 11024 40084 90936 222// 0008555  91202;
0000997275999992011011211004+43650-070250FM-18+0010CASM1V02099999999999999999N9999999N1-00281+99999100671
0161997275999992011011212004+43650-070250FM-18+0010CASM1V02099999999999999999N9999999N1-00381+99999100411REMSYN152CMAN  12124 CASM1 46/// ///// 11038 40041 91136 51027 91200 333 91231 555 11021 22023 31106 420041 61159 188021 193023 191025 197028 196259 16290 26175;
0078997275999992011011213004+43650-070250FM-18+0010CASM1V02099999999999999999N9999999N1-00331+99999100131REMSYN069CMAN  12134 CASM1 46/// ///// 11033 40013 91236 222// 0007 333 91222;
0084997275999992011011214004+43650-070250FM-18+0010CASM1V02099999999999999999N9999999N1-00281+99999099891REMSYN075CMAN  12144 CASM1 46/// ///// 11028 49989 91336 222// 0007 82131 333 92417;
0072997275999992011011215004+43650-070250FM-18+0010CASM1V02099999999999999999N9999999N1-00301+99999099671REMSYN063CMAN  12154 CASM1 46/// ///// 11030 49967 91436 222// 0007555 ;
0078997275999992011011216004+43650-070250FM-18+0010CASM1V02099999999999999999N9999999N1-00261+99999099481REMSYN069CMAN  12164 CASM1 46/// ///// 11026 49948 91536 222// 0007 333 91224;
0078997275999992011011217004+43650-070250FM-18+0010CASM1V02099999999999999999N9999999N1-00191+99999099181REMSYN069CMAN  12174 CASM1 46/// ///// 11019 49918 91636 222// 0007555  91215;
0078997275999992011011218004+43650-070250FM-18+0010CASM1V02099999999999999999N9999999N1-00111+99999099021REMSYN069CMAN  12184 CASM1 46/// ///// 11011 49902 91736 222// 0009555  91215;
0078997275999992011011219004+43650-070250FM-18+0010CASM1V02099999999999999999N9999999N1-00051+99999098911REMSYN069CMAN  12194 CASM1 46/// ///// 11005 49891 91836 222// 0010555  91204;
0078997275999992011011220004+43650-070250FM-18+0010CASM1V02099999999999999999N9999999N1-00011+99999098991REMSYN069CMAN  12204 CASM1 46/// ///// 11001 49899 91936 222// 0010555  91205;
0000997275999992011011221004+43650-070250FM-18+0010CASM1V02099999999999999999N9999999N1+00011+99999099141
0078997275999992011011222004+43650-070250FM-18+0010CASM1V02099999999999999999N9999999N1+00011+99999099241REMSYN069CMAN  12224 CASM1 46/// ///// 10001 49924 92136 222// 0010555  91212;
0099997275999992011011223004+43650-070250FM-18+0010CASM1V02099999999999999999N9999999N1-00011+99999099301REMSYN090CMAN  12234 CASM1 46/// ///// 11001 49930 92236 222// 0010555 604 20603 330// 41502 70019;
0078997275999992011011300004+43650-070250FM-18+0010CASM1V02099999999999999999N9999999N1-00061+99999099361REMSYN069CMAN  13004 CASM1 46/// ///// 11006 49936 92336 222// 0009 333 91205;
0078997275999992011011301004+43650-070250FM-18+0010CASM1V02099999999999999999N9999999N1-00031+99999099471REMSYN069CMAN  13014 CASM1 46/// ///// 11003 49947 90036 222// 0010 333 91204;
0000997275999992011011302004+43650-070250FM-18+0010CASM1V02099999999999999999N9999999N1+00051+99999099631
0078997275999992011011303004+43650-070250FM-18+0010CASM1V02099999999999999999N9999999N1+00011+99999099741REMSYN069CMAN  13034 CASM1 46/// ///// 10001 49974 90236 222// 0010555  91204;
0078997275999992011011304004+43650-070250FM-18+0010CASM1V02099999999999999999N9999999N1+00001+99999099851REMSYN069CMAN  13044 CASM1 46/// ///// 10000 49985 90336 222// 0009555  91210;
0078997275999992011011305004+43650-070250FM-18+0010CASM1V02099999999999999999N9999999N1-00011+99999099921REMSYN069CMAN  13054 CASM1 46/// ///// 11001 49992 90436 222// 0009555  91204;
0000997275999992011011306004+43650-070250FM-18+0010CASM1V02099999999999999999N9999999N1+00021+99999100021
0134997275999992011011307004+43650-070250FM-18+0010CASM1V02099999999999999999N9999999N1+00011+99999100191REMSYN125CMAN  13074 CASM1 46/// ///// 10001 40019 90636 222// 0008555 90 52014 70322 83145 22233 04330 20804 302// 41103 5//// 80245;
0099997275999992011011308004+43650-070250FM-18+0010CASM1V02099999999999999999N9999999N1+00001+99999100361REMSYN090CMAN  13084 CASM1 46/// ///// 10000 40036 90736 222// 0007555 906 20905 323// 41102 70029;
0078997275999992011011309004+43650-070250FM-18+0010CASM1V02099999999999999999N9999999N1-00021+99999100471REMSYN069CMAN  13094 CASM1 46/// ///// 11002 40047 90836 222// 0007555  91215;
0000997275999992011011310004+43650-070250FM-18+0010CASM1V02099999999999999999N9999999N1-00061+99999100581
0000997275999992011011311004+43650-070250FM-18+0010CASM1V02099999999999999999N9999999N1-00111+99999100711
0078997275999992011011312004+43650-070250FM-18+0010CASM1V02099999999999999999N9999999N1-00191+99999100851REMSYN069CMAN  13124 CASM1 46/// ///// 11019 40085 91136 222// 0006555  91213;
0090997275999992011011313004+43650-070250FM-18+0010CASM1V02099999999999999999N9999999N1-00201+99999100981REMSYN081CMAN  13134 CASM1 46/// ///// 11020 40098 91236 222// 0006555 00 91250 333 81711;
0078997275999992011011314004+43650-070250FM-18+0010CASM1V02099999999999999999N9999999N1-00191+99999101091REMSYN069CMAN  13144 CASM1 46/// ///// 11019 40109 91336 222// 0006555  91205;
0078997275999992011011315004+43650-070250FM-18+0010CASM1V02099999999999999999N9999999N1-00121+99999101191REMSYN069CMAN  13154 CASM1 46/// ///// 11012 40119 91436 222// 0100555  91205;
0078997275999992011011316004+43650-070250FM-18+0010CASM1V02099999999999999999N9999999N1-00061+99999101211REMSYN069CMAN  13164 CASM1 46/// ///// 11006 40121 91536 222// 0006555  91215;
0078997275999992011011317004+43650-070250FM-18+0010CASM1V02099999999999999999N9999999N1-00011+99999101201REMSYN069CMAN  13174 CASM1 46/// ///// 11001 40120 91636 222// 0006 333 91218;
0078997275999992011011318004+43650-070250FM-18+0010CASM1V02099999999999999999N9999999N1+00041+99999101221REMSYN069CMAN  13184 CASM1 46/// ///// 10004 40122 91736 222// 0008555  91218;
0078997275999992011011319004+43650-070250FM-18+0010CASM1V02099999999999999999N9999999N1+00051+99999101291REMSYN069CMAN  13194 CASM1 46/// ///// 10005 40129 91836 222// 0008 333 91205;
0099997275999992011011320004+43650-070250FM-18+0010CASM1V02099999999999999999N9999999N1+00051+99999101411REMSYN090CMAN  13204 CASM1 46/// ///// 10005 40141 91936 222// 0009555 501 20701 326// 41501 70006;
0078997275999992011011321004+43650-070250FM-18+0010CASM1V02099999999999999999N9999999N1-00031+99999101551REMSYN069CMAN  13214 CASM1 46/// ///// 11003 40155 92036 222// 0009555  91206;
0078997275999992011011322004+43650-070250FM-18+0010CASM1V02099999999999999999N9999999N1-00161+99999101681REMSYN069CMAN  13224 CASM1 46/// ///// 11016 40168 92136 222// 0009555  91202;
0134997275999992011011323004+43650-070250FM-18+0010CASM1V02099999999999999999N9999999N1-00251+99999101781REMSYN125CMAN  13234 CASM1 46/// ///// 11025 40178 92236 222// 0010555 60 54000 7//// 855// 22264 04196 29904 301// 4//02 5//// 80130;
0078997275999992011011400004+43650-070250FM-18+0010CASM1V02099999999999999999N9999999N1-00341+99999101891REMSYN069CMAN  14004 CASM1 46/// ///// 11034 40189 92336 222// 0010555  91206;
0078997275999992011011401004+43650-070250FM-18+0010CASM1V02099999999999999999N9999999N1-00411+99999101941REMSYN069CMAN  14014 CASM1 46/// ///// 11041 40194 90036 222// 0009555  91202;
0000997275999992011011402004+43650-070250FM-18+0010CASM1V02099999999999999999N9999999N1-00461+99999101991
0078997275999992011011403004+43650-070250FM-18+0010CASM1V02099999999999999999N9999999N1-00501+99999102021REMSYN069CMAN  14034 CASM1 46/// ///// 11050 40202 90236 222// 0010555  91203;
0000997275999992011011404004+43650-070250FM-18+0010CASM1V02099999999999999999N9999999N1-00491+99999102051
0078997275999992011011405004+43650-070250FM-18+0010CASM1V02099999999999999999N9999999N1-00471+99999102071REMSYN069CMAN  14054 CASM1 46/// ///// 11047 40207 90436 222// 0009555  91211;
0149997275999992011011406004+43650-070250FM-18+0010CASM1V02099999999999999999N9999999N1-00481+99999102091REMSYN140CMAN  14064 CASM1 46/// ///// 11048 40209 90536 51017 90600 333 91218 555 11014 22015 30510 422023 60559 200017 203016 202015 203017 200005;
0072997275999992011011407004+43650-070250FM-18+0010CASM1V02099999999999999999N9999999N1-00551+99999102111REMSYN063CMAN  14074 CASM1 46/// ///// 11055 40211 90636 222// 0009555 ;
0078997275999992011011408004+43650-070250FM-18+0010CASM1V02099999999999999999N9999999N1-00611+99999102151REMSYN069CMAN  14084 CASM1 46/// ///// 11061 40215 90736 222// 0009555  91204;
0078997275999992011011409004+43650-070250FM-18+0010CASM1V02099999999999999999N9999999N1-00661+99999102161REMSYN069CMAN  14094 CASM1 46/// ///// 11066 40216 90836 333 91211 555  91203;
0078997275999992011011410004+43650-070250FM-18+0010CASM1V02099999999999999999N9999999N1-00731+99999102181REMSYN069CMAN  14104 CASM1 46/// ///// 11073 40218 90936 222// 0009555  91205;
0078997275999992011011411004+43650-070250FM-18+0010CASM1V02099999999999999999N9999999N1-00781+99999102201REMSYN069CMAN  14114 CASM1 46/// ///// 11078 40220 91036 222// 0008555  91211;
0078997275999992011011412004+43650-070250FM-18+0010CASM1V02099999999999999999N9999999N1-00791+99999102231REMSYN069CMAN  14124 CASM1 46/// ///// 11079 40223 91136 222// 0100 333 91211;
0078997275999992011011413004+43650-070250FM-18+0010CASM1V02099999999999999999N9999999N1-00801+99999102331REMSYN069CMAN  14134 CASM1 46/// ///// 11080 40233 91236 222// 0007555  91205;
0078997275999992011011414004+43650-070250FM-18+0010CASM1V02099999999999999999N9999999N1-00751+99999102391REMSYN069CMAN  14144 CASM1 46/// ///// 11075 40239 91336 222// 0007 333 91202;
0078997275999992011011415004+43650-070250FM-18+0010CASM1V02099999999999999999N9999999N1-00691+99999102411REMSYN069CMAN  14154 CASM1 46/// ///// 11069 40241 91436 222// 0007555  91204;
0072997275999992011011416004+43650-070250FM-18+0010CASM1V02099999999999999999N9999999N1-00551+99999102361REMSYN063CMAN  14164 CASM1 46/// ///// 11055 40236 91536 222// 0006555 ;
0078997275999992011011417004+43650-070250FM-18+0010CASM1V02099999999999999999N9999999N1-00421+99999102271REMSYN069CMAN  14174 CASM1 46/// ///// 11042 40227 91636 222// 0007555  91229;
0078997275999992011011418004+43650-070250FM-18+0010CASM1V02099999999999999999N9999999N1-00271+99999102201REMSYN069CMAN  14184 CASM1 46/// ///// 11027 40220 91736 222// 0008555  91205;
0078997275999992011011419004+43650-070250FM-18+0010CASM1V02099999999999999999N9999999N1-00251+99999102181REMSYN069CMAN  14194 CASM1 46/// ///// 11025 40218 91836 222// 0008 333 91205;
0078997275999992011011420004+43650-070250FM-18+0010CASM1V02099999999999999999N9999999N1-00291+99999102211REMSYN069CMAN  14204 CASM1 46/// ///// 11029 40221 91936 222// 0008555  91204;
0000997275999992011011421004+43650-070250FM-18+0010CASM1V02099999999999999999N9999999N1-00301+99999102231
0078997275999992011011422004+43650-070250FM-18+0010CASM1V02099999999999999999N9999999N1-00331+99999102221REMSYN069CMAN  14224 CASM1 46/// ///// 11033 40222 92136 222// 0009555  91211;
0078997275999992011011423004+43650-070250FM-18+0010CASM1V02099999999999999999N9999999N1-00331+99999102241REMSYN069CMAN  14234 CASM1 46/// ///// 11033 40224 92236 222// 0009 333 70000;
0078997275999992011011500004+43650-070250FM-18+0010CASM1V02099999999999999999N9999999N1-00411+99999102281REMSYN069CMAN  15004 CASM1 46/// ///// 11041 40228 92336 222// 0009555  91208;
0078997275999992011011501004+43650-070250FM-18+0010CASM1V02099999999999999999N9999999N1-00521+99999102281REMSYN069CMAN  15014 CASM1 46/// ///// 11052 40228 90036 222// 0009555  91205;
0073997275999992011011502004+43650-070250FM-18+0010CASM1V02099999999999999999N9999999N1-00631+99999102271REMSYN064CMAN  15024 CASM1 46/// ///// 11063 40227 90136 222// 000987650;
0078997275999992011011503004+43650-070250FM-18+0010CASM1V02099999999999999999N9999999N1-00721+99999102251REMSYN069CMAN  15034 CASM1 46/// ///// 11072 40225 90236 222// 0009555  91218;
0082997275999992011011504004+43650-070250FM-18+0010CASM1V02099999999999999999N9999999N1-00791+99999102261REMSYN073CMAN  15044 CASM1 46/// ///// 11079 40226 90336 222// 000955 11009 22010;
0078997275999992011011505004+43650-070250FM-18+0010CASM1V02099999999999999999N9999999N1-00851+99999102261REMSYN069CMAN  15054 CASM1 46/// ///// 11085 40226 90436 222// 0009555  91201;
0078997275999992011011506004+43650-070250FM-18+0010CASM1V02099999999999999999N9999999N1-00891+99999102251REMSYN069CMAN  15064 CASM1 46/// ///// 11089 40225 90536 222// 0009555  91202;
0078997275999992011011507004+43650-070250FM-18+0010CASM1V02099999999999999999N9999999N1-00941+99999102281REMSYN069CMAN  15074 CASM1 46/// ///// 11094 40228 90636 222// 0009 333 91205;
0078997275999992011011508004+43650-070250FM-18+0010CASM1V02099999999999999999N9999999N1-00951+99999102261REMSYN069CMAN  15084 CASM1 46/// ///// 11095 40226 90736 222// 0009555  91202;
0068997275999992011011509004+43650-070250FM-18+0010CASM1V02099999999999999999N9999999N1-00981+99999102251REMSYN059CMAN 15094 CASM1 46/// ///// 11098 40225 90836 222// 00032;
0078997275999992011011510004+43650-070250FM-18+0010CASM1V02099999999999999999N9999999N1-01051+99999102231REMSYN069CMAN  15104 CASM1 46/// ///// 11105 40223 90936 222// 0009 333 91204;
0078997275999992011011511004+43650-070250FM-18+0010CASM1V02099999999999999999N9999999N1-01081+99999102221REMSYN069CMAN  15114 CASM1 46/// ///// 11108 40222 91036 222// 0009555  91205;
0068997275999992011011512004+43650-070250FM-18+0010CASM1V02099999999999999999N9999999N1-01251+99999102201REMSYN059CMAN  15124 CASM1 46/// ///// 11125 40220 91136 222// 0009;
0078997275999992011011513004+43650-070250FM-18+0010CASM1V02099999999999999999N9999999N1-01161+99999102201REMSYN069CMAN  15134 CASM1 46/// ///// 11116 40220 91236 222// 0008555  91204;
0078997275999992011011514004+43650-070250FM-18+0010CASM1V02099999999999999999N9999999N1-01061+99999102191REMSYN069CMAN  15144 CASM1 46/// ///// 11106 40219 91336 222// 0008555  91205;
0078997275999992011011515004+43650-070250FM-18+0010CASM1V02099999999999999999N9999999N1-00801+99999102141REMSYN069CMAN  15154 CASM1 46/// ///// 11080 40214 91436 222// 0007555  91205;
0078997275999992011011516004+43650-070250FM-18+0010CASM1V02099999999999999999N9999999N1-00681+99999102051REMSYN069CMAN  15164 CASM1 46/// ///// 11068 40205 91536 222// 0007555  91209;
0000997275999992011011517004+43650-070250FM-18+0010CASM1V02099999999999999999N9999999N1-00671+99999101941
0078997275999992011011518004+43650-070250FM-18+0010CASM1V02099999999999999999N9999999N1-00611+99999101791REMSYN069CMAN  15184 CASM1 46/// ///// 11061 40179 91736 222// 0008555  91205;
0078997275999992011011519004+43650-070250FM-18+0010CASM1V02099999999999999999N9999999N1-00551+99999101641REMSYN069CMAN  15194 CASM1 46/// ///// 11055 40164 91836 222// 0009555  91205;
0082997275999992011011520004+43650-070250FM-18+0010CASM1V02099999999999999999N9999999N1-00491+99999101571REMSYN073CMAN  15204 CASM1 46/// ///// 11049 40157 91936 222// 000955 11013 22014;
0149997275999992011011521004+43650-070250FM-18+0010CASM1V02099999999999999999N9999999N1-00411+99999101461REMSYN140CMAN  15214 CASM1 46/// ///// 11041 40146 92042 92100 555 91220 555 11025 22027 32003 404038 62059 035026 034027 036027 034027 03024 038026;
0155997275999992011011522004+43650-070250FM-18+0010CASM1V02099999999999999999N9999999N1-00371+99999101341REMSYN146CMAN  15224 CASM1 46/// ///// 11037 40134 92136 92200 333 91227 555 11020 22022 32149 422028 62159 215022 215023 202021 205022 2011 073012 071011;
0078997275999992011011523004+43650-070250FM-18+0010CASM1V02099999999999999999N9999999N1-00391+99999101261REMSYN069CMAN  15234 CASM1 46/// ///// 11039 40126 92236 222// 0009555  91205;
0078997275999992011011600004+43650-070250FM-18+0010CASM1V02099999999999999999N9999999N1-00371+99999101221REMSYN069CMAN  16004 CASM1 46/// ///// 11037 40122 92336 222// 0009555  91206;
0078997275999992011011601004+43650-070250FM-18+0010CASM1V02099999999999999999N9999999N1-00391+99999101101REMSYN069CMAN  16014 CASM1 46/// ///// 11039 40110 90036 222// 0009 333 91205;
0000997275999992011011602004+43650-070250FM-18+0010CASM1V02099999999999999999N9999999N1-00341+99999101011
0078997275999992011011603004+43650-070250FM-18+0010CASM1V02099999999999999999N9999999N1-00391+99999100931REMSYN069CMAN  16034 CASM1 46/// ///// 11039 40093 90236 222// 0010555  91207;
0078997275999992011011604004+43650-070250FM-18+0010CASM1V02099999999999999999N9999999N1-00401+99999100881REMSYN069CMAN  16044 CASM1 46/// ///// 11040 40088 90336 222// 0009555  91205;
0078997275999992011011605004+43650-070250FM-18+0010CASM1V02099999999999999999N9999999N1-00391+99999100791REMSYN069CMAN  16054 CASM1 46/// ///// 11039 40079 90436 222// 0010555  91203;
0078997275999992011011713004+43650-070250FM-18+0010CASM1V02099999999999999999N9999999N1-01131+99999102641REMSYN069CMAN  17134 CASM1 46/// ///// 11113 40264 91324 222// 0000 333 91215;
0068997275999992011011714004+43650-070250FM-18+0010CASM1V02099999999999999999N9999999N1-01031+99999102701REMSYN059CMAN  17144 CASM1 46/// ///// 11103 40270 91430 222// 0000;
0078997275999992011011715004+43650-070250FM-18+0010CASM1V02099999999999999999N9999999N1-01011+99999102721REMSYN069CMAN  17154 CASM1 46/// ///// 11101 40272 91524 222// 0001 333 91240;
0078997275999992011011716004+43650-070250FM-18+0010CASM1V02099999999999999999N9999999N1-00991+99999102721REMSYN069CMAN  17164 CASM1 46/// ///// 11099 40272 91536 222// 0010555  91204;
0068997275999992011011717004+43650-070250FM-18+0010CASM1V02099999999999999999N9999999N1-00891+99999102661REMSYN059CMAN 17174 CASM1 46/// ///// 11089 40266 91636 222// 00039;
0000997275999992011011718004+43650-070250FM-18+0010CASM1V02099999999999999999N9999999N1-00811+99999102611
0078997275999992011011719004+43650-070250FM-18+0010CASM1V02099999999999999999N9999999N1-00711+99999102611REMSYN069CMAN  17194 CASM1 46/// ///// 11071 40261 91842 222// 000191221 555 ;
0078997275999992011011720004+43650-070250FM-18+0010CASM1V02099999999999999999N9999999N1-00681+99999102641REMSYN069CMAN  17204 CASM1 46/// ///// 11068 40264 91936 222// 0000555  91205;
0078997275999992011011721004+43650-070250FM-18+0010CASM1V02099999999999999999N9999999N1-00701+99999102701REMSYN069CMAN  17214 CASM1 46/// ///// 11070 40270 92036 222// 0010555  91206;
0078997275999992011011722004+43650-070250FM-18+0010CASM1V02099999999999999999N9999999N1-00761+99999102781REMSYN069CMAN  17224 CASM1 46/// ///// 11076 40278 92136 222// 0010555  91205;
0078997275999992011011723004+43650-070250FM-18+0010CASM1V02099999999999999999N9999999N1-00761+99999102851REMSYN069CMAN  17234 CASM1 46/// ///// 11076 40285 92236 222// 0010555  91205;
0078997275999992011011800004+43650-070250FM-18+0010CASM1V02099999999999999999N9999999N1-00781+99999102921REMSYN069CMAN  18004 CASM1 46/// ///// 11078 40292 92336 222// 0010555  91205;
0078997275999992011011801004+43650-070250FM-18+0010CASM1V02099999999999999999N9999999N1-00841+99999102951REMSYN069CMAN  18014 CASM1 46/// ///// 11084 40295 90042 222// 0000 333 91207;
0000997275999992011011802004+43650-070250FM-18+0010CASM1V02099999999999999999N9999999N1-00981+99999102901
0078997275999992011011803004+43650-070250FM-18+0010CASM1V02099999999999999999N9999999N1-00991+99999102881REMSYN069CMAN  18034 CASM1 46/// ///// 11099 40288 90236 222// 0010 333 91206;
0078997275999992011011804004+43650-070250FM-18+0010CASM1V02099999999999999999N9999999N1-01011+99999102881REMSYN069CMAN  18044 CASM1 46/// ///// 11101 40288 90336 222// 0001 333 91216;
0068997275999992011011805004+43650-070250FM-18+0010CASM1V02099999999999999999N9999999N1-01071+99999102861REMSYN059CMAN  18054 CASM1 46/// ///// 11107 40286 90436 222// 0000;
0078997275999992011011806004+43650-070250FM-18+0010CASM1V02099999999999999999N9999999N1-01101+99999102821REMSYN069CMAN  18064 CASM1 46/// ///// 11110 40282 90536 222// 0010555  91209;
0078997275999992011011807004+43650-070250FM-18+0010CASM1V02099999999999999999N9999999N1-01211+99999102821REMSYN069CMAN  18074 CASM1 46/// ///// 11121 40282 90636 222// 0010 333 91205;
0078997275999992011011808004+43650-070250FM-18+0010CASM1V02099999999999999999N9999999N1-01121+99999102841REMSYN069CMAN  18084 CASM1 46/// ///// 11112 40284 90736 222// 0010555  91205;
0078997275999992011011809004+43650-070250FM-18+0010CASM1V02099999999999999999N9999999N1-00991+99999102771REMSYN069CMAN  18094 CASM1 46/// ///// 11099 40277 90836 222// 0010555  91206;
0078997275999992011011810004+43650-070250FM-18+0010CASM1V02099999999999999999N9999999N1-00921+99999102661REMSYN069CMAN  18104 CASM1 46/// ///// 11092 40266 90936 222// 0010555  91204;
0000997275999992011011811004+43650-070250FM-18+0010CASM1V02099999999999999999N9999999N1-00931+99999102601
0000997275999992011011812004+43650-070250FM-18+0010CASM1V02099999999999999999N9999999N1-00911+99999102541
0078997275999992011011813004+43650-070250FM-18+0010CASM1V02099999999999999999N9999999N1-00901+99999102501REMSYN069CMAN  18134 CASM1 46/// ///// 11090 40250 91236 222// 0001 333 91219;
0000997275999992011011814004+43650-070250FM-18+0010CASM1V02099999999999999999N9999999N1-00881+99999102441
0078997275999992011011815004+43650-070250FM-18+0010CASM1V02099999999999999999N9999999N1-00931+99999102361REMSYN069CMAN  18154 CASM1 46/// ///// 11093 40236 91436 222// 0010555  91203;
0078997275999992011011816004+43650-070250FM-18+0010CASM1V02099999999999999999N9999999N1-00861+99999102251REMSYN069CMAN  18164 CASM1 46/// ///// 11086 40225 91536 222// 0010555  91208;
0078997275999992011011817004+43650-070250FM-18+0010CASM1V02099999999999999999N9999999N1-00781+99999102101REMSYN069CMAN  18174 CASM1 46/// ///// 11078 40210 91636 222// 0010555  91203;
0078997275999992011011818004+43650-070250FM-18+0010CASM1V02099999999999999999N9999999N1-00741+99999101951REMSYN069CMAN  18184 CASM1 46/// ///// 11074 40195 91736 222// 0010555  91210;
0078997275999992011011819004+43650-070250FM-18+0010CASM1V02099999999999999999N9999999N1-00681+99999101811REMSYN069CMAN  18194 CASM1 46/// ///// 11068 40181 91836 222// 0010555  91203;
0078997275999992011011820004+43650-070250FM-18+0010CASM1V02099999999999999999N9999999N1-00641+99999101661REMSYN069CMAN  18204 CASM1 46/// ///// 11064 40166 91936 222// 0010555  91205;
0078997275999992011011821004+43650-070250FM-18+0010CASM1V02099999999999999999N9999999N1-00561+99999101561REMSYN069CMAN  18214 CASM1 46/// ///// 11056 40156 92036 222// 0010555  91210;
0078997275999992011011822004+43650-070250FM-18+0010CASM1V02099999999999999999N9999999N1-00511+99999101461REMSYN069CMAN  18224 CASM1 46/// ///// 11051 40146 92136 222// 0010555  91212;
0149997275999992011011823004+43650-070250FM-18+0010CASM1V02099999999999999999N9999999N1-00501+99999101331REMSYN140CMAN  18234 CASM1 46/// ///// 11050 40133 92236 222// 00011205 555 11004 22004 32243 433010 62259 304004 338006 334005 342005 327006 332006;
0082997275999992011011900004+43650-070250FM-18+0010CASM1V02099999999999999999N9999999N1-00411+99999101111REMSYN073CMAN  19004 CASM1 46/// ///// 11041 40111 92336 33 91226 555 11022 22023;
0078997275999992011011901004+43650-070250FM-18+0010CASM1V02099999999999999999N9999999N1-00291+99999100891REMSYN069CMAN  19014 CASM1 46/// ///// 11029 40089 90036 222// 0011555  91204;
0102997275999992011011902004+43650-070250FM-18+0010CASM1V02099999999999999999N9999999N1-00301+99999100771REMSYN093CMAN  19024 CASM1 46/// ///// 11030 40077 90136 222// 0010 71022 875// 333 83707 85614 87647;
0000997275999992011011903004+43650-070250FM-18+0010CASM1V02099999999999999999N9999999N1-00221+99999100551
0078997275999992011011904004+43650-070250FM-18+0010CASM1V02099999999999999999N9999999N1-00171+99999100371REMSYN069CMAN  19044 CASM1 46/// ///// 11017 40037 90336 222// 0010 333 91205;
0000997275999992011011905004+43650-070250FM-18+0010CASM1V02099999999999999999N9999999N1-00141+99999100171
0078997275999992011011906004+43650-070250FM-18+0010CASM1V02099999999999999999N9999999N1-00081+99999100011REMSYN069CMAN  19064 CASM1 46/// ///// 11008 40001 90536 222// 0010555  91201;
0078997275999992011011907004+43650-070250FM-18+0010CASM1V02099999999999999999N9999999N1-00051+99999099911REMSYN069CMAN  19074 CASM1 46/// ///// 11005 49991 90636 222// 0010555  91202;
0078997275999992011011908004+43650-070250FM-18+0010CASM1V02099999999999999999N9999999N1+00011+99999099921REMSYN069CMAN  19084 CASM1 46/// ///// 10001 49992 90736 222// 0010555  91203;
0078997275999992011011909004+43650-070250FM-18+0010CASM1V02099999999999999999N9999999N1+00091+99999099891REMSYN069CMAN  19094 CASM1 46/// ///// 10009 49989 90836 222// 0010555  91204;
0082997275999992011011910004+43650-070250FM-18+0010CASM1V02099999999999999999N9999999N1+00161+99999099861REMSYN073CMAN  19104 CASM1 46/// ///// 10016 49986 90936 33 91218 555 11014 22014;
0078997275999992011011911004+43650-070250FM-18+0010CASM1V02099999999999999999N9999999N1+00221+99999099931REMSYN069CMAN  19114 CASM1 46/// ///// 10022 49993 91036 222// 0010 333 91204;
0078997275999992011011912004+43650-070250FM-18+0010CASM1V02099999999999999999N9999999N1+00241+99999099981REMSYN069CMAN  19124 CASM1 46/// ///// 10024 49998 91136 222// 0010555  91201;
0078997275999992011011913004+43650-070250FM-18+0010CASM1V02099999999999999999N9999999N1+00261+99999100041REMSYN069CMAN  19134 CASM1 46/// ///// 10026 40004 91236 222// 0010555  91206;
0000997275999992011011914004+43650-070250FM-18+0010CASM1V02099999999999999999N9999999N1+00351+99999100101
0078997275999992011011915004+43650-070250FM-18+0010CASM1V02099999999999999999N9999999N1+00361+99999100171REMSYN069CMAN  19154 CASM1 46/// ///// 10036 40017 91436 222// 0010555  91203;
0078997275999992011011916004+43650-070250FM-18+0010CASM1V02099999999999999999N9999999N1+00421+99999100181REMSYN069CMAN  19164 CASM1 46/// ///// 10042 40018 91536 222// 0010555  91207;
0000997275999992011011917004+43650-070250FM-18+0010CASM1V02099999999999999999N9999999N1+00401+99999100201
0078997275999992011011918004+43650-070250FM-18+0010CASM1V02099999999999999999N9999999N1+00341+99999100231REMSYN069CMAN  19184 CASM1 46/// ///// 10034 40023 91736 222// 0011555  91205;
0000997275999992011011919004+43650-070250FM-18+0010CASM1V02099999999999999999N9999999N1+00271+99999100271
0078997275999992011011920004+43650-070250FM-18+0010CASM1V02099999999999999999N9999999N1+00171+99999100331REMSYN069CMAN  19204 CASM1 46/// ///// 10017 40033 91936 222// 0010555  91207;
0141997275999992011011921004+43650-070250FM-18+0010CASM1V02099999999999999999N9999999N1+00121+99999100431REMSYN132CMAN  19214 CASM1 46/// ///// 10012 40043 92036 222// 0011/// 7//// 8//// 222// 04085 2//// 3//// 4//// 5//// 6//// 8//// ICE /////;
0078997275999992011011922004+43650-070250FM-18+0010CASM1V02099999999999999999N9999999N1+00051+99999100521REMSYN069CMAN  19224 CASM1 46/// ///// 10005 40052 92136 222// 0011555  91215;
0078997275999992011011923004+43650-070250FM-18+0010CASM1V02099999999999999999N9999999N1-00071+99999100591REMSYN069CMAN  19234 CASM1 46/// ///// 11007 40059 92236 222// 0011555  91206;
0151997275999992011012000004+43650-070250FM-18+0010CASM1V02099999999999999999N9999999N1-00101+99999100631REMSYN142CMAN  20004 CASM1 46/// ///// 11010 40063 92336 53008 90000 333 91218 555 11016 22017 32310 402023 62359 022018 022019 018020 019020 01 96478;
0078997275999992011012001004+43650-070250FM-18+0010CASM1V02099999999999999999N9999999N1-00141+99999100681REMSYN069CMAN  20014 CASM1 46/// ///// 11014 40068 90036 222// 0000555  91205;
0078997275999992011012002004+43650-070250FM-18+0010CASM1V02099999999999999999N9999999N1-00191+99999100751REMSYN069CMAN  20024 CASM1 46/// ///// 11019 40075 90136 222// 0010555  91204;
0078997275999992011012003004+43650-070250FM-18+0010CASM1V02099999999999999999N9999999N1-00201+99999100791REMSYN069CMAN  20034 CASM1 46/// ///// 11020 40079 90236 222// 0010555  91203;
0078997275999992011012004004+43650-070250FM-18+0010CASM1V02099999999999999999N9999999N1-00241+99999100831REMSYN069CMAN  20044 CASM1 46/// ///// 11024 40083 90336 222// 0010555  91205;
0078997275999992011012005004+43650-070250FM-18+0010CASM1V02099999999999999999N9999999N1-00251+99999100871REMSYN069CMAN  20054 CASM1 46/// ///// 11025 40087 90436 222// 0010555  91203;
0103997275999992011012006004+43650-070250FM-18+0010CASM1V02099999999999999999N9999999N1-00291+99999100931REMSYN094CMAN  20064 CASM1 46/// ///// 11029 40093 90536 222// 001091223 555 8 30/// 55105 58/// 92000;
0078997275999992011012007004+43650-070250FM-18+0010CASM1V02099999999999999999N9999999N1-00321+99999101011REMSYN069CMAN  20074 CASM1 46/// ///// 11032 40101 90636 222// 0010555  91202;
0000997275999992011012008004+43650-070250FM-18+0010CASM1V02099999999999999999N9999999N1-00391+99999101071
0078997275999992011012009004+43650-070250FM-18+0010CASM1V02099999999999999999N9999999N1-00421+99999101111REMSYN069CMAN  20094 CASM1 46/// ///// 11042 40111 90836 222// 0010555  91204;
0078997275999992011012010004+43650-070250FM-18+0010CASM1V02099999999999999999N9999999N1-00471+99999101141REMSYN069CMAN  20104 CASM1 46/// ///// 11047 40114 90936 222// 0001555  91201;
0078997275999992011012011004+43650-070250FM-18+0010CASM1V02099999999999999999N9999999N1-00511+99999101201REMSYN069CMAN  20114 CASM1 46/// ///// 11051 40120 91036 222// 0010555  91206;
0078997275999992011012012004+43650-070250FM-18+0010CASM1V02099999999999999999N9999999N1-00541+99999101291REMSYN069CMAN  20124 CASM1 46/// ///// 11054 40129 91136 222// 0010555  91208;
0078997275999992011012013004+43650-070250FM-18+0010CASM1V02099999999999999999N9999999N1-00541+99999101361REMSYN069CMAN  20134 CASM1 46/// ///// 11054 40136 91236 222// 0010555  91207;
0078997275999992011012014004+43650-070250FM-18+0010CASM1V02099999999999999999N9999999N1-00511+99999101401REMSYN069CMAN  20144 CASM1 46/// ///// 11051 40140 91336 222// 0010 333 91208;
0078997275999992011012015004+43650-070250FM-18+0010CASM1V02099999999999999999N9999999N1-00461+99999101381REMSYN069CMAN  20154 CASM1 46/// ///// 11046 40138 91436 222// 0010555  91205;
0000997275999992011012016004+43650-070250FM-18+0010CASM1V02099999999999999999N9999999N1-00321+99999101391
0099997275999992011012017004+43650-070250FM-18+0010CASM1V02099999999999999999N9999999N1-00281+99999101321REMSYN090CMAN  20174 CASM1 46/// ///// 11028 40132 91636 222// 0010555 503 21002 326// 41502 70014;
0084997275999992011012018004+43650-070250FM-18+0010CASM1V02099999999999999999N9999999N1-00211+99999101251REMSYN075CMAN  20184 CASM1 46/// ///// 11021 40125 91742 91800 222// 0011 333 91205;
0078997275999992011012019004+43650-070250FM-18+0010CASM1V02099999999999999999N9999999N1-00261+99999101301REMSYN069CMAN  20194 CASM1 46/// ///// 11026 40130 91842 22// 00017 333 91211;
0078997275999992011012020004+43650-070250FM-18+0010CASM1V02099999999999999999N9999999N1-00271+99999101321REMSYN069CMAN  20204 CASM1 46/// ///// 11027 40132 91942 222// 0001 333 91202;
0000997275999992011012021004+43650-070250FM-18+0010CASM1V02099999999999999999N9999999N1-00221+99999101321
0078997275999992011012022004+43650-070250FM-18+0010CASM1V02099999999999999999N9999999N1-00241+99999101291REMSYN069CMAN  20224 CASM1 46/// ///// 11024 40129 92136 222// 0011555  91205;
0078997275999992011012023004+43650-070250FM-18+0010CASM1V02099999999999999999N9999999N1-00281+99999101301REMSYN069CMAN  20234 CASM1 46/// ///// 11028 40130 92236 222// 0011 333 91205;
0078997275999992011012100004+43650-070250FM-18+0010CASM1V02099999999999999999N9999999N1-00361+99999101301REMSYN069CMAN  21004 CASM1 46/// ///// 11036 40130 92336 222// 0011 333 91205;
0078997275999992011012101004+43650-070250FM-18+0010CASM1V02099999999999999999N9999999N1-00371+99999101281REMSYN069CMAN  21014 CASM1 46/// ///// 11037 40128 90036 222// 0011555  91201;
0078997275999992011012102004+43650-070250FM-18+0010CASM1V02099999999999999999N9999999N1-00431+99999101261REMSYN069CMAN  21024 CASM1 46/// ///// 11043 40126 90136 222// 0010555  91205;
0078997275999992011012103004+43650-070250FM-18+0010CASM1V02099999999999999999N9999999N1-00481+99999101191REMSYN069CMAN  21034 CASM1 46/// ///// 11048 40119 90236 222// 0001555  91204;
0078997275999992011012104004+43650-070250FM-18+0010CASM1V02099999999999999999N9999999N1-00461+99999101141REMSYN069CMAN  21044 CASM1 46/// ///// 11046 40114 90336 222// 0010555  91205;
0078997275999992011012105004+43650-070250FM-18+0010CASM1V02099999999999999999N9999999N1-00441+99999101071REMSYN069CMAN  21054 CASM1 46/// ///// 11044 40107 90436 222// 0010 333 91205;
0078997275999992011012106004+43650-070250FM-18+0010CASM1V02099999999999999999N9999999N1-00391+99999100971REMSYN069CMAN  21064 CASM1 46/// ///// 11039 40097 90536 222// 0001 333 91201;
0078997275999992011012107004+43650-070250FM-18+0010CASM1V02099999999999999999N9999999N1-00391+99999100971REMSYN069CMAN  21074 CASM1 46/// ///// 11039 40097 90636 222// 0001 333 91203;
0078997275999992011012108004+43650-070250FM-18+0010CASM1V02099999999999999999N9999999N1-00381+99999100861REMSYN069CMAN  21084 CASM1 46/// ///// 11038 40086 90736 222// 0010555  91208;
0000997275999992011012109004+43650-070250FM-18+0010CASM1V02099999999999999999N9999999N1-00461+99999100771
0000997275999992011012110004+43650-070250FM-18+0010CASM1V02099999999999999999N9999999N1-00531+99999100591
0078997275999992011012111004+43650-070250FM-18+0010CASM1V02099999999999999999N9999999N1-00471+99999100401REMSYN069CMAN  21114 CASM1 46/// ///// 11047 40040 91036 222// 0011 333 91215;
0078997275999992011012112004+43650-070250FM-18+0010CASM1V02099999999999999999N9999999N1-00561+99999100221REMSYN069CMAN  21124 CASM1 46/// ///// 11056 40022 91136 222// 0010555  91203;
0078997275999992011012113004+43650-070250FM-18+0010CASM1V02099999999999999999N9999999N1-00551+99999100111REMSYN069CMAN  21134 CASM1 46/// ///// 11055 40011 91236 222// 0001555  91204;
0078997275999992011012114004+43650-070250FM-18+0010CASM1V02099999999999999999N9999999N1-00621+99999099951REMSYN069CMAN  21144 CASM1 46/// ///// 11062 49995 91336 222// 0010555  91208;
0078997275999992011012115004+43650-070250FM-18+0010CASM1V02099999999999999999N9999999N1-00641+99999099871REMSYN069CMAN  21154 CASM1 46/// ///// 11064 49987 91436 222// 0009555  91211;
0078997275999992011012116004+43650-070250FM-18+0010CASM1V02099999999999999999N9999999N1-00641+99999099621REMSYN069CMAN  21164 CASM1 46/// ///// 11064 49962 91536 222// 0008 333 91202;
0078997275999992011012117004+43650-070250FM-18+0010CASM1V02099999999999999999N9999999N1-00661+99999099351REMSYN069CMAN  21174 CASM1 46/// ///// 11066 49935 91636 222// 0009 333 91201;
0078997275999992011012118004+43650-070250FM-18+0010CASM1V02099999999999999999N9999999N1-00631+99999099231REMSYN069CMAN  21184 CASM1 46/// ///// 11063 49923 91736 222// 0010 333 91202;
0078997275999992011012119004+43650-070250FM-18+0010CASM1V02099999999999999999N9999999N1-00501+99999099171REMSYN069CMAN  21194 CASM1 46/// ///// 11050 49917 91836 222// 0010555  91201;
0078997275999992011012120004+43650-070250FM-18+0010CASM1V02099999999999999999N9999999N1-00421+99999099201REMSYN069CMAN  21204 CASM1 46/// ///// 11042 49920 91936 222// 0010555  91203;
0078997275999992011012121004+43650-070250FM-18+0010CASM1V02099999999999999999N9999999N1-00331+99999099291REMSYN069CMAN  21214 CASM1 46/// ///// 11033 49929 92036 222// 0010555  91208;
0078997275999992011012122004+43650-070250FM-18+0010CASM1V02099999999999999999N9999999N1-00301+99999099391REMSYN069CMAN  21224 CASM1 46/// ///// 11030 49939 92136 222// 0010555  91204;
0078997275999992011012123004+43650-070250FM-18+0010CASM1V02099999999999999999N9999999N1-00401+99999099581REMSYN069CMAN  21234 CASM1 46/// ///// 11040 49958 92236 222// 0010 333 91202;
0078997275999992011012200004+43650-070250FM-18+0010CASM1V02099999999999999999N9999999N1-00491+99999099691REMSYN069CMAN  22004 CASM1 46/// ///// 11049 49969 92336 222// 0010555  91205;
0078997275999992011012201004+43650-070250FM-18+0010CASM1V02099999999999999999N9999999N1-00541+99999099851REMSYN069CMAN  22014 CASM1 46/// ///// 11054 49985 90036 222// 0010555  91204;
0078997275999992011012202004+43650-070250FM-18+0010CASM1V02099999999999999999N9999999N1-00621+99999099971REMSYN069CMAN  22024 CASM1 46/// ///// 11062 49997 90136 222// 0010555  91203;
0078997275999992011012203004+43650-070250FM-18+0010CASM1V02099999999999999999N9999999N1-00721+99999100141REMSYN069CMAN  22034 CASM1 46/// ///// 11072 40014 90236 222// 0010 333 91203;
0000997275999992011012204004+43650-070250FM-18+0010CASM1V02099999999999999999N9999999N1-00771+99999100231
0078997275999992011012205004+43650-070250FM-18+0010CASM1V02099999999999999999N9999999N1-00821+99999100271REMSYN069CMAN  22054 CASM1 46/// ///// 11082 40027 90436 222// 0009555  91203;
0072997275999992011012206004+43650-070250FM-18+0010CASM1V02099999999999999999N9999999N1-00901+99999100351REMSYN063CMAN  22064 CASM1 46/// ///// 11090 40035 90536 222// 00101204;
0080997275999992011012207004+43650-070250FM-18+0010CASM1V02099999999999999999N9999999N1-00941+99999100421REMSYN071CMAN  22074 CASM1 46/// ///// 11094 40042 90636 222// 0009555 31 00263;
0078997275999992011012208004+43650-070250FM-18+0010CASM1V02099999999999999999N9999999N1-00951+99999100471REMSYN069CMAN  22084 CASM1 46/// ///// 11095 40047 90736 222// 0010555  91206;
0078997275999992011012209004+43650-070250FM-18+0010CASM1V02099999999999999999N9999999N1-00931+99999100511REMSYN069CMAN  22094 CASM1 46/// ///// 11093 40051 90836 222// 0009 333 91205;
0078997275999992011012210004+43650-070250FM-18+0010CASM1V02099999999999999999N9999999N1-00951+99999100601REMSYN069CMAN  22104 CASM1 46/// ///// 11095 40060 90936 222// 0009555  91205;
0068997275999992011012211004+43650-070250FM-18+0010CASM1V02099999999999999999N9999999N1-00991+99999100721REMSYN059CMAN 22114 CASM1 46/// ///// 11099 40072 91036 222// 00027;
0078997275999992011012212004+43650-070250FM-18+0010CASM1V02099999999999999999N9999999N1-01011+99999100821REMSYN069CMAN  22124 CASM1 46/// ///// 11101 40082 91136 222// 0009555  91204;
0078997275999992011012213004+43650-070250FM-18+0010CASM1V02099999999999999999N9999999N1-01031+99999100971REMSYN069CMAN  22134 CASM1 46/// ///// 11103 40097 91236 222// 0009555  91203;
0078997275999992011012214004+43650-070250FM-18+0010CASM1V02099999999999999999N9999999N1-00931+99999101111REMSYN069CMAN  22144 CASM1 46/// ///// 11093 40111 91336 222// 0009 333 91206;
0078997275999992011012215004+43650-070250FM-18+0010CASM1V02099999999999999999N9999999N1-00861+99999101191REMSYN069CMAN  22154 CASM1 46/// ///// 11086 40119 91436 222// 0009555  91206;
0078997275999992011012216004+43650-070250FM-18+0010CASM1V02099999999999999999N9999999N1-00731+99999101201REMSYN069CMAN  22164 CASM1 46/// ///// 11073 40120 91536 222// 0010555  91205;
0078997275999992011012217004+43650-070250FM-18+0010CASM1V02099999999999999999N9999999N1-00581+99999101161REMSYN069CMAN  22174 CASM1 46/// ///// 11058 40116 91636 222// 0010555  91208;
0078997275999992011012218004+43650-070250FM-18+0010CASM1V02099999999999999999N9999999N1-00441+99999101111REMSYN069CMAN  22184 CASM1 46/// ///// 11044 40111 91736 222// 0010555  91203;
0078997275999992011012219004+43650-070250FM-18+0010CASM1V02099999999999999999N9999999N1-00371+99999101081REMSYN069CMAN  22194 CASM1 46/// ///// 11037 40108 91836 222// 0010555  91203;
0078997275999992011012220004+43650-070250FM-18+0010CASM1V02099999999999999999N9999999N1-00411+99999101131REMSYN069CMAN  22204 CASM1 46/// ///// 11041 40113 91936 222// 0009555  91204;
0000997275999992011012221004+43650-070250FM-18+0010CASM1V02099999999999999999N9999999N1-00431+99999101161
0078997275999992011012222004+43650-070250FM-18+0010CASM1V02099999999999999999N9999999N1-00481+99999101181REMSYN069CMAN  22224 CASM1 46/// ///// 11048 40118 92136 222// 0009555  91205;
0078997275999992011012223004+43650-070250FM-18+0010CASM1V02099999999999999999N9999999N1-00531+99999101211REMSYN069CMAN  22234 CASM1 46/// ///// 11053 40121 92236 222// 0009555  91203;
0078997275999992011012300004+43650-070250FM-18+0010CASM1V02099999999999999999N9999999N1-00601+99999101271REMSYN069CMAN  23004 CASM1 46/// ///// 11060 40127 92336 222// 0010555  91205;
0078997275999992011012301004+43650-070250FM-18+0010CASM1V02099999999999999999N9999999N1-00631+99999101231REMSYN069CMAN  23014 CASM1 46/// ///// 11063 40123 90036 222// 0010555  91205;
0078997275999992011012302004+43650-070250FM-18+0010CASM1V02099999999999999999N9999999N1-00651+99999101201REMSYN069CMAN  23024 CASM1 46/// ///// 11065 40120 90136 222// 0010 333 91203;
0000997275999992011012303004+43650-070250FM-18+0010CASM1V02099999999999999999N9999999N1-00771+99999101191
0155997275999992011012304004+43650-070250FM-18+0010CASM1V02099999999999999999N9999999N1-00951+99999101081REMSYN146CMAN  23044 CASM1 46/// ///// 11095 40108 90342 0000 90400 333 91208 555 11006 22006 30300 403022 60359 057006 037009 043010 044011 043014 032019;
0000997275999992011012305004+43650-070250FM-18+0010CASM1V02099999999999999999N9999999N1-01101+99999101031
0078997275999992011012306004+43650-070250FM-18+0010CASM1V02099999999999999999N9999999N1-01101+99999101041REMSYN069CMAN  23064 CASM1 46/// ///// 11110 40104 90536 222// 0010555  91206;
0000997275999992011012307004+43650-070250FM-18+0010CASM1V02099999999999999999N9999999N1-01001+99999101061
0078997275999992011012308004+43650-070250FM-18+0010CASM1V02099999999999999999N9999999N1-00971+99999101021REMSYN069CMAN  23084 CASM1 46/// ///// 11097 40102 90736 222// 0009555  91203;
0078997275999992011012309004+43650-070250FM-18+0010CASM1V02099999999999999999N9999999N1-01001+99999101011REMSYN069CMAN  23094 CASM1 46/// ///// 11100 40101 90836 222// 0010555  91205;
0078997275999992011012310004+43650-070250FM-18+0010CASM1V02099999999999999999N9999999N1-01041+99999100981REMSYN069CMAN  23104 CASM1 46/// ///// 11104 40098 90936 222// 0010555  91205;
0078997275999992011012311004+43650-070250FM-18+0010CASM1V02099999999999999999N9999999N1-01061+99999100951REMSYN069CMAN  23114 CASM1 46/// ///// 11106 40095 91036 222// 0010 333 91205;
0000997275999992011012312004+43650-070250FM-18+0010CASM1V02099999999999999999N9999999N1-01091+99999101011
0078997275999992011012313004+43650-070250FM-18+0010CASM1V02099999999999999999N9999999N1-01151+99999101061REMSYN069CMAN  23134 CASM1 46/// ///// 11115 40106 91236 222// 0010555  91205;
0149997275999992011012314004+43650-070250FM-18+0010CASM1V02099999999999999999N9999999N1-01161+99999101121REMSYN140CMAN  23144 CASM1 46/// ///// 11116 40112 91336 222// 00101236 555 11028 22030 31358 406036 61359 056028 058024 058025 058025 051027 054027;
0078997275999992011012315004+43650-070250FM-18+0010CASM1V02099999999999999999N9999999N1-01111+99999101181REMSYN069CMAN  23154 CASM1 46/// ///// 11111 40118 91436 222// 0009555  91205;
0078997275999992011012316004+43650-070250FM-18+0010CASM1V02099999999999999999N9999999N1-00971+99999101191REMSYN069CMAN  23164 CASM1 46/// ///// 11097 40119 91536 222// 0010555  91204;
0078997275999992011012317004+43650-070250FM-18+0010CASM1V02099999999999999999N9999999N1-00841+99999101121REMSYN069CMAN  23174 CASM1 46/// ///// 11084 40112 91636 222// 0010555  91208;
0078997275999992011012318004+43650-070250FM-18+0010CASM1V02099999999999999999N9999999N1-00671+99999101051REMSYN069CMAN  23184 CASM1 46/// ///// 11067 40105 91736 222// 0010 333 91205;
0078997275999992011012319004+43650-070250FM-18+0010CASM1V02099999999999999999N9999999N1-00591+99999101071REMSYN069CMAN  23194 CASM1 46/// ///// 11059 40107 91836 222// 0010555  91203;
0082997275999992011012320004+43650-070250FM-18+0010CASM1V02099999999999999999N9999999N1-00651+99999101141REMSYN073CMAN  23204 CASM1 46/// ///// 11065 40114 91936 222// 001155 11012 22013;
0078997275999992011012321004+43650-070250FM-18+0010CASM1V02099999999999999999N9999999N1-00691+99999101261REMSYN069CMAN  23214 CASM1 46/// ///// 11069 40126 92036 222// 0010555  91202;
0000997275999992011012322004+43650-070250FM-18+0010CASM1V02099999999999999999N9999999N1-00841+99999101411
0078997275999992011012323004+43650-070250FM-18+0010CASM1V02099999999999999999N9999999N1-01191+99999101611REMSYN069CMAN  23234 CASM1 46/// ///// 11119 40161 92236 222// 0010555  91205;
0078997275999992011012400004+43650-070250FM-18+0010CASM1V02099999999999999999N9999999N1-01311+99999101781REMSYN069CMAN  24004 CASM1 46/// ///// 11131 40178 92336 222// 0010555  91207;
0078997275999992011012401004+43650-070250FM-18+0010CASM1V02099999999999999999N9999999N1-01401+99999101901REMSYN069CMAN  24014 CASM1 46/// ///// 11140 40190 90036 222// 0010 333 91205;
0072997275999992011012402004+43650-070250FM-18+0010CASM1V02099999999999999999N9999999N1-01531+99999101991REMSYN063CMAN  24024 CASM1 46/// ///// 11153 40199 90136 222// 0010555 ;
0078997275999992011012403004+43650-070250FM-18+0010CASM1V02099999999999999999N9999999N1-01651+99999102081REMSYN069CMAN  24034 CASM1 46/// ///// 11165 40208 90236 333 91215 555  91207;
0078997275999992011012404004+43650-070250FM-18+0010CASM1V02099999999999999999N9999999N1-01751+99999102141REMSYN069CMAN  24044 CASM1 46/// ///// 11175 40214 90336 222// 0010555  91206;
0078997275999992011012405004+43650-070250FM-18+0010CASM1V02099999999999999999N9999999N1-01811+99999102191REMSYN069CMAN  24054 CASM1 46/// ///// 11181 40219 90436 222// 0010555  91210;
0081997275999992011012406004+43650-070250FM-18+0010CASM1V02099999999999999999N9999999N1-01891+99999102271REMSYN072CMAN  24064 CASM1 46/// ///// 11189 40227 90536 222// 0010555 000 90530;
0000997275999992011012407004+43650-070250FM-18+0010CASM1V02099999999999999999N9999999N1-01891+99999102341
0078997275999992011012408004+43650-070250FM-18+0010CASM1V02099999999999999999N9999999N1-01981+99999102401REMSYN069CMAN  24084 CASM1 46/// ///// 11198 40240 90736 222// 0010555  91210;
0000997275999992011012409004+43650-070250FM-18+0010CASM1V02099999999999999999N9999999N1-01931+99999102471
0078997275999992011012410004+43650-070250FM-18+0010CASM1V02099999999999999999N9999999N1-02051+99999102541REMSYN069CMAN  24104 CASM1 46/// ///// 11205 40254 90936 222// 0010555  91211;
0096997275999992011012411004+43650-070250FM-18+0010CASM1V02099999999999999999N9999999N1-02041+99999102601REMSYN087CMAN  24114 CASM1 46/// ///// 11204 40260 91036 222// 0010 90950 333 58007 86806 83626;
0000997275999992011012412004+43650-070250FM-18+0010CASM1V02099999999999999999N9999999N1-02201+99999102651
0000997275999992011012413004+43650-070250FM-18+0010CASM1V02099999999999999999N9999999N1-02171+99999102731
0078997275999992011012414004+43650-070250FM-18+0010CASM1V02099999999999999999N9999999N1-02031+99999102771REMSYN069CMAN  24144 CASM1 46/// ///// 11203 40277 91336 222// 0010555  91203;
0078997275999992011012415004+43650-070250FM-18+0010CASM1V02099999999999999999N9999999N1-01891+99999102831REMSYN069CMAN  24154 CASM1 46/// ///// 11189 40283 91436 222// 0010555  91205;
0078997275999992011012416004+43650-070250FM-18+0010CASM1V02099999999999999999N9999999N1-01711+99999102841REMSYN069CMAN  24164 CASM1 46/// ///// 11171 40284 91536 222// 0010555  91202;
0078997275999992011012417004+43650-070250FM-18+0010CASM1V02099999999999999999N9999999N1-01531+99999102791REMSYN069CMAN  24174 CASM1 46/// ///// 11153 40279 91636 222// 0100555  91205;
0072997275999992011012418004+43650-070250FM-18+0010CASM1V02099999999999999999N9999999N1-01381+99999102741REMSYN063CMAN  24184 CASM1 46/// ///// 11138 40274 91736 222// 0010555 ;
0078997275999992011012419004+43650-070250FM-18+0010CASM1V02099999999999999999N9999999N1-01261+99999102701REMSYN069CMAN  24194 CASM1 46/// ///// 11126 40270 91836 222// 0010555  91203;
0078997275999992011012420004+43650-070250FM-18+0010CASM1V02099999999999999999N9999999N1-01211+99999102711REMSYN069CMAN  24204 CASM1 46/// ///// 11121 40271 91936 222// 0010555  91203;
0112997275999992011012421004+43650-070250FM-18+0010CASM1V02099999999999999999N9999999N1-01161+99999102731REMSYN103CMAN  24214 CASM1 46/// ///// 11116 40273 92036 222// 0100 69982 70281 85801 333 10161 84815 555 69947;
0078997275999992011012422004+43650-070250FM-18+0010CASM1V02099999999999999999N9999999N1-01191+99999102761REMSYN069CMAN  24224 CASM1 46/// ///// 11119 40276 92136 222// 0100555  91203;
0078997275999992011012423004+43650-070250FM-18+0010CASM1V02099999999999999999N9999999N1-01271+99999102861REMSYN069CMAN  24234 CASM1 46/// ///// 11127 40286 92236 222// 0010555  91205;
0078997275999992011012500004+43650-070250FM-18+0010CASM1V02099999999999999999N9999999N1-01371+99999102901REMSYN069CMAN  25004 CASM1 46/// ///// 11137 40290 92336 222// 0010555  91212;
0078997275999992011012501004+43650-070250FM-18+0010CASM1V02099999999999999999N9999999N1-01411+99999102861REMSYN069CMAN  25014 CASM1 46/// ///// 11141 40286 90036 222// 0000 333 91216;
0000997275999992011012502004+43650-070250FM-18+0010CASM1V02099999999999999999N9999999N1-01501+99999102871
0078997275999992011012503004+43650-070250FM-18+0010CASM1V02099999999999999999N9999999N1-01491+99999102931REMSYN069CMAN  25034 CASM1 46/// ///// 11149 40293 90236 222// 0011555  91203;
0078997275999992011012504004+43650-070250FM-18+0010CASM1V02099999999999999999N9999999N1-01471+99999102911REMSYN069CMAN  25044 CASM1 46/// ///// 11147 40291 90336 222// 0011555  91204;
0078997275999992011012505004+43650-070250FM-18+0010CASM1V02099999999999999999N9999999N1-01471+99999102871REMSYN069CMAN  25054 CASM1 46/// ///// 11147 40287 90436 222// 0011555  91207;
0084997275999992011012506004+43650-070250FM-18+0010CASM1V02099999999999999999N9999999N1-01441+99999102821REMSYN075CMAN  25064 CASM1 46/// ///// 11144 40282 90536 222// 0000 00123 333 91203;
0078997275999992011012507004+43650-070250FM-18+0010CASM1V02099999999999999999N9999999N1-01361+99999102731REMSYN069CMAN  25074 CASM1 46/// ///// 11136 40273 90636 222// 0011555  91203;
0000997275999992011012508004+43650-070250FM-18+0010CASM1V02099999999999999999N9999999N1-01421+99999102691
0078997275999992011012509004+43650-070250FM-18+0010CASM1V02099999999999999999N9999999N1-01341+99999102601REMSYN069CMAN  25094 CASM1 46/// ///// 11134 40260 90836 222// 0011555  91202;
0078997275999992011012510004+43650-070250FM-18+0010CASM1V02099999999999999999N9999999N1-01401+99999102551REMSYN069CMAN  25104 CASM1 46/// ///// 11140 40255 90936 222// 0011 333 91202;
0078997275999992011012511004+43650-070250FM-18+0010CASM1V02099999999999999999N9999999N1-01391+99999102481REMSYN069CMAN  25114 CASM1 46/// ///// 11139 40248 91036 222// 0010555  91205;
0076997275999992011012512004+43650-070250FM-18+0010CASM1V02099999999999999999N9999999N1-01301+99999102421REMSYN067CMAN  25124 CASM1 46/// ///// 11130 40242 91136 222// 0010555 2005;
0078997275999992011012513004+43650-070250FM-18+0010CASM1V02099999999999999999N9999999N1-01341+99999102391REMSYN069CMAN  25134 CASM1 46/// ///// 11134 40239 91236 222// 0010555  91202;
0080997275999992011012514004+43650-070250FM-18+0010CASM1V02099999999999999999N9999999N1-01221+99999102301ADDMD1710171+9999REMSYN054CASM1 46/// ///// 11122 40230 57017 91400 222// 00015;
0080997275999992011012515004+43650-070250FM-18+0010CASM1V02099999999999999999N9999999N1-01171+99999102201ADDMD1810221+9999REMSYN054CASM1 46/// ///// 11117 40220 58022 91500 222// 00017;
0080997275999992011012516004+43650-070250FM-18+0010CASM1V02099999999999999999N9999999N1-01021+99999102101ADDMD1810251+9999REMSYN054CASM1 46/// ///// 11102 40210 58025 91600 222// 00019;
0162997275999992011012517004+43650-070250FM-18+0010CASM1V02099999999999999999N9999999N1-01001+99999101991ADDMD1810311+9999REMSYN136CMAN  25174 CASM1 46/// ///// 11100 40199 58031 91700 222// 00000 333 91211 555 2 4/015 55300 20000 30000 69907 83/11 87/22 88/28 91113;
0057997275999992011012518004+43650-070250FM-18+0010CASM1V02099999999999999999N9999999N1-00901+99999101901REMSYN048CASM1 46/// ///// 11090 40190 91736 222// 00019;
