0000997275999992012010100004+43650-070250FM-18+0010CASM1V02099999999999999999N9999999N1+00161+99999100941
0078997275999992012010101004+43650-070250FM-18+0010CASM1V02099999999999999999N9999999N1+00171+99999100981REMSYN069CMAN  01014 CASM1 46/// ///// 10017 40098 90036 222// 0014555  91206;
0068997275999992012010102004+43650-070250FM-18+0010CASM1V02099999999999999999N9999999N1+00151+99999100991REMSYN059CMAN  01024 CASM1 46/// ///// 10015 40099 90136 222// 0014;
0000997275999992012010103004+43650-070250FM-18+0010CASM1V02099999999999999999N9999999N1+00051+99999101051
0066997275999992012010104004+43650-070250FM-18+0010CASM1V02099999999999999999N9999999N1+00021+99999101101REMSYN057CMAN  01044 CASM1 46/// ///// 10002 40110 90336 33 91207;
0000997275999992012010105004+43650-070250FM-18+0010CASM1V02099999999999999999N9999999N1+00031+99999101071
0078997275999992012010106004+43650-070250FM-18+0010CASM1V02099999999999999999N9999999N1+00061+99999101111REMSYN069CMAN  01064 CASM1 46/// ///// 10006 40111 90536 222// 0015555  91204;
0068997275999992012010107004+43650-070250FM-18+0010CASM1V02099999999999999999N9999999N1+00081+99999101181REMSYN059CMAN  01074 CASM1 46/// ///// 10008 40118 90636 222// 0015;
0085997275999992012010108004+43650-070250FM-18+0010CASM1V02099999999999999999N9999999N1+00081+99999101151REMSYN076CMAN  01084 CASM1 46/// ///// 10008 40115 90736 222// 0015555  555 TIDE1106;
0000997275999992012010109004+43650-070250FM-18+0010CASM1V02099999999999999999N9999999N1+00111+99999101291
0080997275999992012010110004+43650-070250FM-18+0010CASM1V02099999999999999999N9999999N1+00051+99999101391ADDMD1110241+9999REMSYN054CASM1 46/// ///// 10005 40139 51024 91000 222// 00066;
0078997275999992012010111004+43650-070250FM-18+0010CASM1V02099999999999999999N9999999N1+00071+99999101441REMSYN069CMAN  01114 CASM1 46/// ///// 10007 40144 91036 222// 0015555  91205;
0080997275999992012010112004+43650-070250FM-18+0010CASM1V02099999999999999999N9999999N1+00101+99999101521REMSYN071CMAN  01124 CASM1 46/// ///// 10010 40152 91136 222// 0015555 11 00217;
0000997275999992012010113004+43650-070250FM-18+0010CASM1V02099999999999999999N9999999N1+00201+99999101561
0078997275999992012010114004+43650-070250FM-18+0010CASM1V02099999999999999999N9999999N1+00181+99999101611REMSYN069CMAN  01144 CASM1 46/// ///// 10018 40161 91336 222// 0014555  91202;
0075997275999992012010115004+43650-070250FM-18+0010CASM1V02099999999999999999N9999999N1+00311+99999101651REMSYN066CMAN  01154 CASM1 46/// ///// 10031 40165 91436 222// 0014555 074;
0078997275999992012010116004+43650-070250FM-18+0010CASM1V02099999999999999999N9999999N1+00551+99999101581REMSYN069CMAN  01164 CASM1 46/// ///// 10055 40158 91536 222// 0014555  91206;
0078997275999992012010117004+43650-070250FM-18+0010CASM1V02099999999999999999N9999999N1+00761+99999101521REMSYN069CMAN  01174 CASM1 46/// ///// 10076 40152 91636 222// 0015555  91205;
0090997275999992012010118004+43650-070250FM-18+0010CASM1V02099999999999999999N9999999N1+00831+99999101441REMSYN081CMAN  01184 CASM1 46/// ///// 10083 40144 91736 222// 0015555 72 886// 333 88713;
0078997275999992012010119004+43650-070250FM-18+0010CASM1V02099999999999999999N9999999N1+00681+99999101351REMSYN069CMAN  01194 CASM1 46/// ///// 10068 40135 91836 222// 0015555  91205;
0078997275999992012010120004+43650-070250FM-18+0010CASM1V02099999999999999999N9999999N1+00721+99999101291REMSYN069CMAN  01204 CASM1 46/// ///// 10072 40129 91936 222// 000791229 555 ;
0101997275999992012010121004+43650-070250FM-18+0010CASM1V02099999999999999999N9999999N1+00651+99999101251REMSYN092CMAN  01214 CASM1 46/// ///// 10065 40125 92036 222// 0015555 / 81817 555 20000 32923 420//;
0000997275999992012010122004+43650-070250FM-18+0010CASM1V02099999999999999999N9999999N1+00601+99999101241
0099997275999992012010123004+43650-070250FM-18+0010CASM1V02099999999999999999N9999999N1+00601+99999101081REMSYN090CMAN  01234 CASM1 46/// ///// 10060 40108 92236 222// 00152 11004 21003 306// 41102 70018;
0000997275999992012010200004+43650-070250FM-18+0010CASM1V02099999999999999999N9999999N1+00651+99999100991
0068997275999992012010201004+43650-070250FM-18+0010CASM1V02099999999999999999N9999999N1+00691+99999100941REMSYN059CMAN  02014 CASM1 46/// ///// 10069 40094 90036 222// 0015;
0078997275999992012010202004+43650-070250FM-18+0010CASM1V02099999999999999999N9999999N1+00761+99999100741REMSYN069CMAN  02024 CASM1 46/// ///// 10076 40074 90136 222// 0015 333 91205;
0078997275999992012010203004+43650-070250FM-18+0010CASM1V02099999999999999999N9999999N1+00781+99999100671REMSYN069CMAN  02034 CASM1 46/// ///// 10078 40067 90236 222// 0015555  91203;
0078997275999992012010204004+43650-070250FM-18+0010CASM1V02099999999999999999N9999999N1+00771+99999100531REMSYN069CMAN  02044 CASM1 46/// ///// 10077 40053 90336 222// 0015 333 91203;
0085997275999992012010205004+43650-070250FM-18+0010CASM1V02099999999999999999N9999999N1+00751+99999100361REMSYN076CMAN  02054 CASM1 46/// ///// 10075 40036 90436 222// 0014555  555 TIDE1097;
0072997275999992012010206004+43650-070250FM-18+0010CASM1V02099999999999999999N9999999N1+00781+99999100191REMSYN063CMAN  02064 CASM1 46/// ///// 10078 40019 90536 222// 0014555 ;
0080997275999992012010207004+43650-070250FM-18+0010CASM1V02099999999999999999N9999999N1+00801+99999100101REMSYN071CMAN  02074 CASM1 46/// ///// 10080 40010 90636 222// 0014555 11 00205;
0068997275999992012010208004+43650-070250FM-18+0010CASM1V02099999999999999999N9999999N1+00821+99999099961REMSYN059CMAN  02084 CASM1 46/// ///// 10082 49996 90736 222// 0014;
0068997275999992012010209004+43650-070250FM-18+0010CASM1V02099999999999999999N9999999N1+00821+99999099811REMSYN059CMAN  02094 CASM1 46/// ///// 10082 49981 90836 222// 0014;
0099997275999992012010210004+43650-070250FM-18+0010CASM1V02099999999999999999N9999999N1+00791+99999099731REMSYN090CMAN  02104 CASM1 46/// ///// 10079 49973 90936 222// 00148 11302 21001 324// 41302 70011;
0078997275999992012010211004+43650-070250FM-18+0010CASM1V02099999999999999999N9999999N1+00791+99999099691REMSYN069CMAN  02114 CASM1 46/// ///// 10079 49969 91036 222// 0014555  91203;
0078997275999992012010212004+43650-070250FM-18+0010CASM1V02099999999999999999N9999999N1+00671+99999099731REMSYN069CMAN  02124 CASM1 46/// ///// 10067 49973 91136 222// 0014555  91204;
0068997275999992012010213004+43650-070250FM-18+0010CASM1V02099999999999999999N9999999N1+00561+99999099781REMSYN059CMAN  02134 CASM1 46/// ///// 10056 49978 91236 222// 0014;
0072997275999992012010214004+43650-070250FM-18+0010CASM1V02099999999999999999N9999999N1+00511+99999099821REMSYN063CMAN  02144 CASM1 46/// ///// 10051 49982 91336 222// 0014555 ;
0078997275999992012010215004+43650-070250FM-18+0010CASM1V02099999999999999999N9999999N1+00531+99999099851REMSYN069CMAN  02154 CASM1 46/// ///// 10053 49985 91436 222// 0013 333 91208;
0068997275999992012010216004+43650-070250FM-18+0010CASM1V02099999999999999999N9999999N1+00561+99999099851REMSYN059CMAN  02164 CASM1 46/// ///// 10056 49985 91536 222// 0013;
0114997275999992012010217004+43650-070250FM-18+0010CASM1V02099999999999999999N9999999N1+00561+99999099811REMSYN105CMAN  02174 CASM1 46/// ///// 10056 49981 91636 222// 0013555 09 91600 22200 00266 10703 70016 333 91210;
0000997275999992012010218004+43650-070250FM-18+0010CASM1V02099999999999999999N9999999N1+00571+99999099801
0078997275999992012010219004+43650-070250FM-18+0010CASM1V02099999999999999999N9999999N1+00581+99999099811REMSYN069CMAN  02194 CASM1 46/// ///// 10058 49981 91836 222// 0014 333 91208;
0000997275999992012010220004+43650-070250FM-18+0010CASM1V02099999999999999999N9999999N1+00561+99999099861
0072997275999992012010221004+43650-070250FM-18+0010CASM1V02099999999999999999N9999999N1+00521+99999099931REMSYN063CMAN  02214 CASM1 46/// ///// 10052 49993 92036 222// 00141208;
0078997275999992012010222004+43650-070250FM-18+0010CASM1V02099999999999999999N9999999N1+00421+99999099981REMSYN069CMAN  02224 CASM1 46/// ///// 10042 49998 92136 222// 0014 333 91214;
0079997275999992012010223004+43650-070250FM-18+0010CASM1V02099999999999999999N9999999N1+00341+99999100121REMSYN070CMAN  02234 CASM1 46/// ///// 10034 40012 92236 222// 0014555 IDE1132;
0078997275999992012010300004+43650-070250FM-18+0010CASM1V02099999999999999999N9999999N1+00291+99999100211REMSYN069CMAN  03004 CASM1 46/// ///// 10029 40021 92336 222// 0014555  91205;
0079997275999992012010301004+43650-070250FM-18+0010CASM1V02099999999999999999N9999999N1+00211+99999100231REMSYN070CMAN  03014 CASM1 46/// ///// 10021 40023 90036 222// 0014555 IDE1137;
0078997275999992012010302004+43650-070250FM-18+0010CASM1V02099999999999999999N9999999N1+00141+99999100251REMSYN069CMAN  03024 CASM1 46/// ///// 10014 40025 90136 222// 0014555  91203;
0000997275999992012010303004+43650-070250FM-18+0010CASM1V02099999999999999999N9999999N1+00111+99999100291
0078997275999992012010304004+43650-070250FM-18+0010CASM1V02099999999999999999N9999999N1+00061+99999100321REMSYN069CMAN  03044 CASM1 46/// ///// 10006 40032 90336 222// 0014555  91203;
0078997275999992012010305004+43650-070250FM-18+0010CASM1V02099999999999999999N9999999N1+00021+99999100301REMSYN069CMAN  03054 CASM1 46/// ///// 10002 40030 90436 222// 0014 333 91209;
0000997275999992012010306004+43650-070250FM-18+0010CASM1V02099999999999999999N9999999N1-00031+99999100321
0079997275999992012010307004+43650-070250FM-18+0010CASM1V02099999999999999999N9999999N1-00021+99999100371REMSYN070CMAN  03074 CASM1 46/// ///// 11002 40037 90636 222// 001391217 555 3;
0078997275999992012010308004+43650-070250FM-18+0010CASM1V02099999999999999999N9999999N1-00041+99999100411REMSYN069CMAN  03084 CASM1 46/// ///// 11004 40041 90736 222// 0013 333 91207;
0098997275999992012010309004+43650-070250FM-18+0010CASM1V02099999999999999999N9999999N1-00121+99999100451REMSYN089CMAN  03094 CASM1 46/// ///// 11012 40045 90836 222// 0013555 00 00207 10701 20701 70007;
0068997275999992012010310004+43650-070250FM-18+0010CASM1V02099999999999999999N9999999N1-00201+99999100481REMSYN059CMAN  03104 CASM1 46/// ///// 11020 40048 90936 222// 0013;
0120997275999992012010311004+43650-070250FM-18+0010CASM1V02099999999999999999N9999999N1-00271+99999100581REMSYN111CMAN  03114 CASM1 46/// ///// 11027 40058 91036 222// 0013 72162 885// 91050 333 86625 88640 90710 91140 91036;
0072997275999992012010312004+43650-070250FM-18+0010CASM1V02099999999999999999N9999999N1-00301+99999100671REMSYN063CMAN  03124 CASM1 46/// ///// 11030 40067 91136 222// 0012555 ;
0079997275999992012010313004+43650-070250FM-18+0010CASM1V02099999999999999999N9999999N1-00381+99999100791REMSYN070CMAN  03134 CASM1 46/// ///// 11038 40079 91236 222// 0012555 IDE1011;
0078997275999992012010314004+43650-070250FM-18+0010CASM1V02099999999999999999N9999999N1-00431+99999100921REMSYN069CMAN  03144 CASM1 46/// ///// 11043 40092 91336 222// 0012555  91202;
0000997275999992012010315004+43650-070250FM-18+0010CASM1V02099999999999999999N9999999N1-00411+99999100921
0072997275999992012010316004+43650-070250FM-18+0010CASM1V02099999999999999999N9999999N1-00461+99999100861REMSYN063CMAN  03164 CASM1 46/// ///// 11046 40086 91536 222// 0011555 ;
0085997275999992012010317004+43650-070250FM-18+0010CASM1V02099999999999999999N9999999N1-00451+99999100881REMSYN076CMAN  03174 CASM1 46/// ///// 11045 40088 91636 222// 0012555  555 TIDE0972;
0078997275999992012010318004+43650-070250FM-18+0010CASM1V02099999999999999999N9999999N1-00441+99999100911REMSYN069CMAN  03184 CASM1 46/// ///// 11044 40091 91736 222// 0013555  91214;
0078997275999992012010319004+43650-070250FM-18+0010CASM1V02099999999999999999N9999999N1-00511+99999100871REMSYN069CMAN  03194 CASM1 46/// ///// 11051 40087 91836 222// 0013555  91216;
0000997275999992012010320004+43650-070250FM-18+0010CASM1V02099999999999999999N9999999N1-00561+99999101001
0078997275999992012010321004+43650-070250FM-18+0010CASM1V02099999999999999999N9999999N1-00591+99999101121REMSYN069CMAN  03214 CASM1 46/// ///// 11059 40112 92036 222// 0014 333 91211;
0000997275999992012010322004+43650-070250FM-18+0010CASM1V02099999999999999999N9999999N1-00661+99999101171
0000997275999992012010323004+43650-070250FM-18+0010CASM1V02099999999999999999N9999999N1-00751+99999101271
0078997275999992012010400004+43650-070250FM-18+0010CASM1V02099999999999999999N9999999N1-00871+99999101361REMSYN069CMAN  04004 CASM1 46/// ///// 11087 40136 92336 222// 0013 333 91204;
0000997275999992012010401004+43650-070250FM-18+0010CASM1V02099999999999999999N9999999N1-00941+99999101521
0078997275999992012010402004+43650-070250FM-18+0010CASM1V02099999999999999999N9999999N1-01021+99999101521REMSYN069CMAN  04024 CASM1 46/// ///// 11102 40152 90136 222// 0004 333 91201;
0078997275999992012010403004+43650-070250FM-18+0010CASM1V02099999999999999999N9999999N1-01081+99999101551REMSYN069CMAN  04034 CASM1 46/// ///// 11108 40155 90236 222// 0013555  91201;
0080997275999992012010404004+43650-070250FM-18+0010CASM1V02099999999999999999N9999999N1-01171+99999101501REMSYN071CMAN  04044 CASM1 46/// ///// 11117 40150 90336 222// 0013555 00 00040;
0079997275999992012010405004+43650-070250FM-18+0010CASM1V02099999999999999999N9999999N1-01231+99999101401REMSYN070CMAN  04054 CASM1 46/// ///// 11123 40140 90436 222// 0013555 IDE1044;
0078997275999992012010406004+43650-070250FM-18+0010CASM1V02099999999999999999N9999999N1-01251+99999101571REMSYN069CMAN  04064 CASM1 46/// ///// 11125 40157 90536 222// 0013555  91201;
0126997275999992012010407004+43650-070250FM-18+0010CASM1V02099999999999999999N9999999N1-01301+99999101661REMSYN117CMAN  04074 CASM1 46/// ///// 11130 40166 90636 222// 0013555 01 333 55/// 20563 30131 55300 20000 30000 85/58 87/59;
0099997275999992012010408004+43650-070250FM-18+0010CASM1V02099999999999999999N9999999N1-01321+99999101651REMSYN090CMAN  04084 CASM1 46/// ///// 11132 40165 90736 222// 0013555 109 20907 325// 41106 70044;
0078997275999992012010409004+43650-070250FM-18+0010CASM1V02099999999999999999N9999999N1-01281+99999101671REMSYN069CMAN  04094 CASM1 46/// ///// 11128 40167 90842 222// 000791221 555 ;
0078997275999992012010410004+43650-070250FM-18+0010CASM1V02099999999999999999N9999999N1-01291+99999101671REMSYN069CMAN  04104 CASM1 46/// ///// 11129 40167 90936 222// 0013 333 91201;
0000997275999992012010411004+43650-070250FM-18+0010CASM1V02099999999999999999N9999999N1-01311+99999101651
0078997275999992012010412004+43650-070250FM-18+0010CASM1V02099999999999999999N9999999N1-01301+99999101681REMSYN069CMAN  04124 CASM1 46/// ///// 11130 40168 91136 222// 0003 333 91203;
0078997275999992012010413004+43650-070250FM-18+0010CASM1V02099999999999999999N9999999N1-01301+99999101681REMSYN069CMAN  04134 CASM1 46/// ///// 11130 40168 91236 222// 0003555  91204;
0119997275999992012010414004+43650-070250FM-18+0010CASM1V02099999999999999999N9999999N1-01181+99999101751REMSYN110CMAN  04144 CASM1 46/// ///// 11118 40175 91336 222// 0013555 200 00073 10807 70033 333 91214 555 11142 22149;
0078997275999992012010415004+43650-070250FM-18+0010CASM1V02099999999999999999N9999999N1-01051+99999101741REMSYN069CMAN  04154 CASM1 46/// ///// 11105 40174 91436 222// 0013555  91205;
0000997275999992012010416004+43650-070250FM-18+0010CASM1V02099999999999999999N9999999N1-00891+99999101661
0078997275999992012010417004+43650-070250FM-18+0010CASM1V02099999999999999999N9999999N1-00711+99999101541REMSYN069CMAN  04174 CASM1 46/// ///// 11071 40154 91636 222// 0013555  91211;
0078997275999992012010418004+43650-070250FM-18+0010CASM1V02099999999999999999N9999999N1-00571+99999101451REMSYN069CMAN  04184 CASM1 46/// ///// 11057 40145 91736 222// 0013 333 91214;
0078997275999992012010419004+43650-070250FM-18+0010CASM1V02099999999999999999N9999999N1-00401+99999101401REMSYN069CMAN  04194 CASM1 46/// ///// 11040 40140 91836 222// 0013555  91202;
0079997275999992012010420004+43650-070250FM-18+0010CASM1V02099999999999999999N9999999N1-00431+99999101411REMSYN070CMAN  04204 CASM1 46/// ///// 11043 40141 91936 222// 0014555 IDE1101;
0075997275999992012010421004+43650-070250FM-18+0010CASM1V02099999999999999999N9999999N1-00431+99999101381REMSYN066CMAN  04214 CASM1 46/// ///// 11043 40138 92036 222// 0014555 146;
0078997275999992012010422004+43650-070250FM-18+0010CASM1V02099999999999999999N9999999N1-00441+99999101401REMSYN069CMAN  04224 CASM1 46/// ///// 11044 40140 92136 222// 0014 333 91203;
0086997275999992012010423004+43650-070250FM-18+0010CASM1V02099999999999999999N9999999N1-00521+99999101411REMSYN077CMAN  04234 CASM1 46/// ///// 11052 40141 92236 222// 0014555 // 82801 92030;
0085997275999992012010500004+43650-070250FM-18+0010CASM1V02099999999999999999N9999999N1-00541+99999101411REMSYN076CMAN  05004 CASM1 46/// ///// 11054 40141 92336 222// 0014555  555 TIDE1157;
0000997275999992012010501004+43650-070250FM-18+0010CASM1V02099999999999999999N9999999N1-00541+99999101341
0078997275999992012010502004+43650-070250FM-18+0010CASM1V02099999999999999999N9999999N1-00491+99999101291REMSYN069CMAN  05024 CASM1 46/// ///// 11049 40129 90142 222// 0006 333 91206;
0000997275999992012010503004+43650-070250FM-18+0010CASM1V02099999999999999999N9999999N1-00471+99999101231
0079997275999992012010504004+43650-070250FM-18+0010CASM1V02099999999999999999N9999999N1-00451+99999101181REMSYN070CMAN  05044 CASM1 46/// ///// 11045 40118 90336 222// 0014555 IDE1167;
0000997275999992012010505004+43650-070250FM-18+0010CASM1V02099999999999999999N9999999N1-00481+99999101131
0078997275999992012010506004+43650-070250FM-18+0010CASM1V02099999999999999999N9999999N1-00451+99999101041REMSYN069CMAN  05064 CASM1 46/// ///// 11045 40104 90536 222// 0014555  91203;
0078997275999992012010507004+43650-070250FM-18+0010CASM1V02099999999999999999N9999999N1-00451+99999101031REMSYN069CMAN  05074 CASM1 46/// ///// 11045 40103 90636 222// 0014 333 91209;
0099997275999992012010508004+43650-070250FM-18+0010CASM1V02099999999999999999N9999999N1-00441+99999100971REMSYN090CMAN  05084 CASM1 46/// ///// 11044 40097 90736 222// 0014555 103 20803 309// 41101 70015;
0000997275999992012010509004+43650-070250FM-18+0010CASM1V02099999999999999999N9999999N1-00431+99999100941
0078997275999992012010510004+43650-070250FM-18+0010CASM1V02099999999999999999N9999999N1-00441+99999100901REMSYN069CMAN  05104 CASM1 46/// ///// 11044 40090 90936 222// 0014 333 91203;
0078997275999992012010511004+43650-070250FM-18+0010CASM1V02099999999999999999N9999999N1-00451+99999100861REMSYN069CMAN  05114 CASM1 46/// ///// 11045 40086 91036 222// 0014 333 91209;
0078997275999992012010512004+43650-070250FM-18+0010CASM1V02099999999999999999N9999999N1-00461+99999100821REMSYN069CMAN  05124 CASM1 46/// ///// 11046 40082 91136 222// 0014 333 91220;
0075997275999992012010513004+43650-070250FM-18+0010CASM1V02099999999999999999N9999999N1-00431+99999100781REMSYN066CMAN  05134 CASM1 46/// ///// 11043 40078 91236 222// 0013555 177;
0075997275999992012010514004+43650-070250FM-18+0010CASM1V02099999999999999999N9999999N1-00391+99999100831REMSYN066CMAN  05144 CASM1 46/// ///// 11039 40083 91336 222// 0013555 166;
0078997275999992012010515004+43650-070250FM-18+0010CASM1V02099999999999999999N9999999N1-00331+99999100811REMSYN069CMAN  05154 CASM1 46/// ///// 11033 40081 91436 222// 0013 333 91205;
0068997275999992012010516004+43650-070250FM-18+0010CASM1V02099999999999999999N9999999N1-00211+99999100691REMSYN059CMAN  05164 CASM1 46/// ///// 11021 40069 91536 222// 0013;
0078997275999992012010517004+43650-070250FM-18+0010CASM1V02099999999999999999N9999999N1-00111+99999100581REMSYN069CMAN  05174 CASM1 46/// ///// 11011 40058 91636 222// 0013555  91205;
0078997275999992012010518004+43650-070250FM-18+0010CASM1V02099999999999999999N9999999N1+00061+99999100471REMSYN069CMAN  05184 CASM1 46/// ///// 10006 40047 91736 222// 0013 333 91213;
0068997275999992012010519004+43650-070250FM-18+0010CASM1V02099999999999999999N9999999N1+00151+99999100471REMSYN059CMAN  05194 CASM1 46/// ///// 10015 40047 91836 222// 0014;
0000997275999992012010520004+43650-070250FM-18+0010CASM1V02099999999999999999N9999999N1+00161+99999100551
0000997275999992012010521004+43650-070250FM-18+0010CASM1V02099999999999999999N9999999N1+00141+99999100601
0000997275999992012010522004+43650-070250FM-18+0010CASM1V02099999999999999999N9999999N1+00071+99999100701
0078997275999992012010523004+43650-070250FM-18+0010CASM1V02099999999999999999N9999999N1-00011+99999100811REMSYN069CMAN  05234 CASM1 46/// ///// 11001 40081 92236 222// 0004 333 91204;
0000997275999992012010600004+43650-070250FM-18+0010CASM1V02099999999999999999N9999999N1-00121+99999100941
0078997275999992012010601004+43650-070250FM-18+0010CASM1V02099999999999999999N9999999N1-00201+99999101021REMSYN069CMAN  06014 CASM1 46/// ///// 11020 40102 90036 222// 0015 333 91208;
0085997275999992012010602004+43650-070250FM-18+0010CASM1V02099999999999999999N9999999N1-00261+99999101091REMSYN076CMAN  06024 CASM1 46/// ///// 11026 40109 90136 222// 0015555  555 TIDE1201;
0068997275999992012010603004+43650-070250FM-18+0010CASM1V02099999999999999999N9999999N1-00301+99999101111REMSYN059CMAN 06034 CASM1 46/// ///// 11030 40111 90236 222// 00058;
0078997275999992012010604004+43650-070250FM-18+0010CASM1V02099999999999999999N9999999N1-00351+99999101171REMSYN069CMAN  06044 CASM1 46/// ///// 11035 40117 90336 222// 0015555  91207;
0078997275999992012010605004+43650-070250FM-18+0010CASM1V02099999999999999999N9999999N1-00431+99999101121REMSYN069CMAN  06054 CASM1 46/// ///// 11043 40112 90442 222// 0006 333 91205;
0086997275999992012010606004+43650-070250FM-18+0010CASM1V02099999999999999999N9999999N1-00421+99999101201REMSYN077CMAN  06064 CASM1 46/// ///// 11042 40120 90536 222// 0015555 01 84202 90530;
0078997275999992012010607004+43650-070250FM-18+0010CASM1V02099999999999999999N9999999N1-00471+99999101251REMSYN069CMAN  06074 CASM1 46/// ///// 11047 40125 90636 222// 0015555  91207;
0078997275999992012010608004+43650-070250FM-18+0010CASM1V02099999999999999999N9999999N1-00461+99999101261REMSYN069CMAN  06084 CASM1 46/// ///// 11046 40126 90736 222// 0015 333 91207;
0078997275999992012010609004+43650-070250FM-18+0010CASM1V02099999999999999999N9999999N1-00431+99999101231REMSYN069CMAN  06094 CASM1 46/// ///// 11043 40123 90836 222// 0004 333 91208;
0079997275999992012010610004+43650-070250FM-18+0010CASM1V02099999999999999999N9999999N1-00411+99999101241REMSYN070CMAN  06104 CASM1 46/// ///// 11041 40124 90936 222// 0015555 2 85273;
0075997275999992012010611004+43650-070250FM-18+0010CASM1V02099999999999999999N9999999N1-00391+99999101271REMSYN066CMAN  06114 CASM1 46/// ///// 11039 40127 91036 222// 0015555 238;
0097997275999992012010612004+43650-070250FM-18+0010CASM1V02099999999999999999N9999999N1-00351+99999101331REMSYN088CMAN  06124 CASM1 46/// ///// 11035 40133 91136 222// 0014555 3 10011 21026 56044 85357;
0078997275999992012010613004+43650-070250FM-18+0010CASM1V02099999999999999999N9999999N1-00481+99999101321REMSYN069CMAN  06134 CASM1 46/// ///// 11048 40132 91236 222// 0005 333 91205;
0078997275999992012010614004+43650-070250FM-18+0010CASM1V02099999999999999999N9999999N1-00441+99999101321REMSYN069CMAN  06144 CASM1 46/// ///// 11044 40132 91336 222// 0014555  91205;
0078997275999992012010615004+43650-070250FM-18+0010CASM1V02099999999999999999N9999999N1-00341+99999101311REMSYN069CMAN  06154 CASM1 46/// ///// 11034 40131 91436 222// 0014 333 91206;
0075997275999992012010616004+43650-070250FM-18+0010CASM1V02099999999999999999N9999999N1-00231+99999101231REMSYN066CMAN  06164 CASM1 46/// ///// 11023 40123 91536 222// 0014555 172;
0078997275999992012010617004+43650-070250FM-18+0010CASM1V02099999999999999999N9999999N1-00201+99999101051REMSYN069CMAN  06174 CASM1 46/// ///// 11020 40105 91636 222// 0014555  91204;
0146997275999992012010618004+43650-070250FM-18+0010CASM1V02099999999999999999N9999999N1-00211+99999100961REMSYN137CMAN  06184 CASM1 46/// ///// 11021 40096 91736 222// 0014555 80 52000 7//22 82119 22243 00200 20302 3//// 41303 50302 6//// 80160 /////;
0078997275999992012010619004+43650-070250FM-18+0010CASM1V02099999999999999999N9999999N1-00231+99999100891REMSYN069CMAN  06194 CASM1 46/// ///// 11023 40089 91836 222// 0014555  91204;
0128997275999992012010620004+43650-070250FM-18+0010CASM1V02099999999999999999N9999999N1-00221+99999100841REMSYN119CMAN  06204 CASM1 46/// ///// 11022 40084 91936 222// 0015555 70 58015 70222 8373/ 22214 04145 20606 336// 40807 80115;
0097997275999992012010621004+43650-070250FM-18+0010CASM1V02099999999999999999N9999999N1-00201+99999100781REMSYN088CMAN  06214 CASM1 46/// ///// 11020 40078 92036 222// 0015555 / 56230 59011 83835 84363;
0078997275999992012010622004+43650-070250FM-18+0010CASM1V02099999999999999999N9999999N1-00211+99999100751REMSYN069CMAN  06224 CASM1 46/// ///// 11021 40075 92136 222// 0015 333 91207;
0000997275999992012010623004+43650-070250FM-18+0010CASM1V02099999999999999999N9999999N1-00251+99999100791
0000997275999992012010700004+43650-070250FM-18+0010CASM1V02099999999999999999N9999999N1-00271+99999100791
0000997275999992012010701004+43650-070250FM-18+0010CASM1V02099999999999999999N9999999N1-00281+99999100781
0000997275999992012010702004+43650-070250FM-18+0010CASM1V02099999999999999999N9999999N1-00281+99999100761
0078997275999992012010703004+43650-070250FM-18+0010CASM1V02099999999999999999N9999999N1-00311+99999100751REMSYN069CMAN  07034 CASM1 46/// ///// 11031 40075 90236 222// 0015 333 91202;
0078997275999992012010704004+43650-070250FM-18+0010CASM1V02099999999999999999N9999999N1-00351+99999100751REMSYN069CMAN  07044 CASM1 46/// ///// 11035 40075 90336 222// 0015 333 91202;
0078997275999992012010705004+43650-070250FM-18+0010CASM1V02099999999999999999N9999999N1-00341+99999100721REMSYN069CMAN  07054 CASM1 46/// ///// 11034 40072 90436 222// 0015 333 91202;
0078997275999992012010706004+43650-070250FM-18+0010CASM1V02099999999999999999N9999999N1-00371+99999100691REMSYN069CMAN  07064 CASM1 46/// ///// 11037 40069 90536 222// 0015555  91202;
0000997275999992012010707004+43650-070250FM-18+0010CASM1V02099999999999999999N9999999N1-00381+99999100711
0078997275999992012010708004+43650-070250FM-18+0010CASM1V02099999999999999999N9999999N1-00351+99999100741REMSYN069CMAN  07084 CASM1 46/// ///// 11035 40074 90736 222// 0015555  91202;
0078997275999992012010709004+43650-070250FM-18+0010CASM1V02099999999999999999N9999999N1-00371+99999100721REMSYN069CMAN  07094 CASM1 46/// ///// 11037 40072 90836 222// 0015 333 91204;
0078997275999992012010710004+43650-070250FM-18+0010CASM1V02099999999999999999N9999999N1-00361+99999100671REMSYN069CMAN  07104 CASM1 46/// ///// 11036 40067 90936 222// 0015 333 91202;
0078997275999992012010711004+43650-070250FM-18+0010CASM1V02099999999999999999N9999999N1-00371+99999100711REMSYN069CMAN  07114 CASM1 46/// ///// 11037 40071 91036 222// 0004 333 91202;
0078997275999992012010712004+43650-070250FM-18+0010CASM1V02099999999999999999N9999999N1-00341+99999100741REMSYN069CMAN  07124 CASM1 46/// ///// 11034 40074 91136 222// 0004555  91202;
0083997275999992012010713004+43650-070250FM-18+0010CASM1V02099999999999999999N9999999N1-00271+99999100751REMSYN074CMAN  07134 CASM1 46/// ///// 11027 40075 91236 222// 0015555 5 555 6//85;
0078997275999992012010714004+43650-070250FM-18+0010CASM1V02099999999999999999N9999999N1-00281+99999100771REMSYN069CMAN  07144 CASM1 46/// ///// 11028 40077 91336 222// 0015555  91202;
0078997275999992012010715004+43650-070250FM-18+0010CASM1V02099999999999999999N9999999N1-00161+99999100781REMSYN069CMAN  07154 CASM1 46/// ///// 11016 40078 91436 222// 0015 333 91202;
0073997275999992012010716004+43650-070250FM-18+0010CASM1V02099999999999999999N9999999N1+00131+99999100671REMSYN064CMAN  07164 CASM1 46/// ///// 10013 40067 91536 222// 001591138;
0084997275999992012010717004+43650-070250FM-18+0010CASM1V02099999999999999999N9999999N1+00151+99999100521REMSYN075CMAN  07174 CASM1 46/// ///// 10015 40052 91636 222// 000691226 555  91135;
0078997275999992012010718004+43650-070250FM-18+0010CASM1V02099999999999999999N9999999N1+00191+99999100451REMSYN069CMAN  07184 CASM1 46/// ///// 10019 40045 91736 222// 0015555  91204;
0126997275999992012010719004+43650-070250FM-18+0010CASM1V02099999999999999999N9999999N1+00291+99999100381REMSYN117CMAN  07194 CASM1 46/// ///// 10029 40038 91836 222// 0015555 11 76022 83832 333 56000 57801 60017 82816 83617 80860;
0000997275999992012010720004+43650-070250FM-18+0010CASM1V02099999999999999999N9999999N1+00341+99999100411
0000997275999992012010721004+43650-070250FM-18+0010CASM1V02099999999999999999N9999999N1+00361+99999100451
0078997275999992012010722004+43650-070250FM-18+0010CASM1V02099999999999999999N9999999N1+00361+99999100531REMSYN069CMAN  07224 CASM1 46/// ///// 10036 40053 92136 222// 0015555  91213;
0078997275999992012010723004+43650-070250FM-18+0010CASM1V02099999999999999999N9999999N1+00371+99999100591REMSYN069CMAN  07234 CASM1 46/// ///// 10037 40059 92236 222// 000691228 555 ;
0091997275999992012010800004+43650-070250FM-18+0010CASM1V02099999999999999999N9999999N1+00261+99999100651REMSYN082CMAN  08004 CASM1 46/// ///// 10026 40065 92336 222// 0015555 271 92330 333 70000;
0078997275999992012010801004+43650-070250FM-18+0010CASM1V02099999999999999999N9999999N1+00221+99999100691REMSYN069CMAN  08014 CASM1 46/// ///// 10022 40069 90036 222// 0015 333 91210;
0078997275999992012010802004+43650-070250FM-18+0010CASM1V02099999999999999999N9999999N1+00161+99999100731REMSYN069CMAN  08024 CASM1 46/// ///// 10016 40073 90136 222// 0015555  91211;
0085997275999992012010803004+43650-070250FM-18+0010CASM1V02099999999999999999N9999999N1+00371+99999100771REMSYN076CMAN  08034 CASM1 46/// ///// 10037 40077 90236 222// 0015555 3 56399 87704;
0000997275999992012010804004+43650-070250FM-18+0010CASM1V02099999999999999999N9999999N1+00341+99999100821
0000997275999992012010805004+43650-070250FM-18+0010CASM1V02099999999999999999N9999999N1+00261+99999100931
0068997275999992012010806004+43650-070250FM-18+0010CASM1V02099999999999999999N9999999N1+00241+99999100991REMSYN059CMAN  08064 CASM1 46/// ///// 10024 40099 90536 222// 0015;
0068997275999992012010807004+43650-070250FM-18+0010CASM1V02099999999999999999N9999999N1+00221+99999101071REMSYN059CMAN  08074 CASM1 46/// ///// 10022 40107 90636 222// 0015;
0000997275999992012010808004+43650-070250FM-18+0010CASM1V02099999999999999999N9999999N1+00081+99999101171
0077997275999992012010809004+43650-070250FM-18+0010CASM1V02099999999999999999N9999999N1+00141+99999101201REMSYN068CMAN  08094 CASM1 46/// ///// 10014 40120 90836 222// 0015555 22263;
0078997275999992012010810004+43650-070250FM-18+0010CASM1V02099999999999999999N9999999N1+00231+99999101261REMSYN069CMAN  08104 CASM1 46/// ///// 10023 40126 90936 222// 0015 333 91208;
0078997275999992012010811004+43650-070250FM-18+0010CASM1V02099999999999999999N9999999N1+00211+99999101381REMSYN069CMAN  08114 CASM1 46/// ///// 10021 40138 91036 222// 0015555  91205;
0000997275999992012010812004+43650-070250FM-18+0010CASM1V02099999999999999999N9999999N1+00171+99999101481
0127997275999992012010813004+43650-070250FM-18+0010CASM1V02099999999999999999N9999999N1+00141+99999101581REMSYN118CMAN  08134 CASM1 46/// ///// 10014 40158 91236 222// 0015555 3 10318 56009 57801 57803 81916 83816 87360 80980 80860;
0088997275999992012010814004+43650-070250FM-18+0010CASM1V02099999999999999999N9999999N1+00241+99999101721REMSYN079CMAN  08144 CASM1 46/// ///// 10024 40172 91336 222// 0015555 0090 57029 22211;
0098997275999992012010815004+43650-070250FM-18+0010CASM1V02099999999999999999N9999999N1+00421+99999101791REMSYN089CMAN  08154 CASM1 46/// ///// 10042 40179 91436 222// 0015555 00 00097 10502 20502 70012;
0073997275999992012010816004+43650-070250FM-18+0010CASM1V02099999999999999999N9999999N1+00441+99999101791REMSYN064CMAN  08164 CASM1 46/// ///// 10044 40179 91536 222// 0016555 7;
0078997275999992012010817004+43650-070250FM-18+0010CASM1V02099999999999999999N9999999N1+00491+99999101771REMSYN069CMAN  08174 CASM1 46/// ///// 10049 40177 91636 222// 0016555  91209;
0078997275999992012010818004+43650-070250FM-18+0010CASM1V02099999999999999999N9999999N1+00481+99999101781REMSYN069CMAN  08184 CASM1 46/// ///// 10048 40178 91736 222// 0016555  91206;
0078997275999992012010819004+43650-070250FM-18+0010CASM1V02099999999999999999N9999999N1+00401+99999101791REMSYN069CMAN  08194 CASM1 46/// ///// 10040 40179 91836 222// 0015555  91208;
0078997275999992012010820004+43650-070250FM-18+0010CASM1V02099999999999999999N9999999N1+00411+99999101851REMSYN069CMAN  08204 CASM1 46/// ///// 10041 40185 91936 222// 0016555  91212;
0000997275999992012010821004+43650-070250FM-18+0010CASM1V02099999999999999999N9999999N1+00361+99999101931
0095997275999992012010822004+43650-070250FM-18+0010CASM1V02099999999999999999N9999999N1+00171+99999102051REMSYN086CMAN  08224 CASM1 46/// ///// 10017 40205 92136 222// 0016555 3 86705 88613 555 6//96;
0084997275999992012010823004+43650-070250FM-18+0010CASM1V02099999999999999999N9999999N1+00111+99999102141REMSYN075CMAN  08234 CASM1 46/// ///// 10011 40214 92236 222// 0016555 30 333 70000;
0115997275999992012010900004+43650-070250FM-18+0010CASM1V02099999999999999999N9999999N1+00031+99999102221REMSYN106CMAN  09004 CASM1 46/// ///// 10003 40222 92336 222// 0016555 5 54000 70122 80006 22200 2//// 30000 80191;
0000997275999992012010901004+43650-070250FM-18+0010CASM1V02099999999999999999N9999999N1-00021+99999102281
0078997275999992012010902004+43650-070250FM-18+0010CASM1V02099999999999999999N9999999N1-00101+99999102301REMSYN069CMAN  09024 CASM1 46/// ///// 11010 40230 90136 222// 0016555  91204;
0078997275999992012010903004+43650-070250FM-18+0010CASM1V02099999999999999999N9999999N1-00161+99999102361REMSYN069CMAN  09034 CASM1 46/// ///// 11016 40236 90236 222// 0016555  91205;
0000997275999992012010904004+43650-070250FM-18+0010CASM1V02099999999999999999N9999999N1-00251+99999102391
0078997275999992012010905004+43650-070250FM-18+0010CASM1V02099999999999999999N9999999N1-00321+99999102411REMSYN069CMAN  09054 CASM1 46/// ///// 11032 40241 90436 222// 0016555  91205;
0078997275999992012010906004+43650-070250FM-18+0010CASM1V02099999999999999999N9999999N1-00391+99999102421REMSYN069CMAN  09064 CASM1 46/// ///// 11039 40242 90536 222// 0016555  91206;
0000997275999992012010907004+43650-070250FM-18+0010CASM1V02099999999999999999N9999999N1-00461+99999102431
0000997275999992012010908004+43650-070250FM-18+0010CASM1V02099999999999999999N9999999N1-00501+99999102491
0000997275999992012010909004+43650-070250FM-18+0010CASM1V02099999999999999999N9999999N1-00511+99999102461
0078997275999992012010910004+43650-070250FM-18+0010CASM1V02099999999999999999N9999999N1-00591+99999102481REMSYN069CMAN  09104 CASM1 46/// ///// 11059 40248 90936 222// 0016555  91204;
0000997275999992012010911004+43650-070250FM-18+0010CASM1V02099999999999999999N9999999N1-00611+99999102501
0101997275999992012010912004+43650-070250FM-18+0010CASM1V02099999999999999999N9999999N1-00651+99999102501REMSYN092CMAN  09124 CASM1 46/// ///// 11065 40250 91136 222// 0016555 6 569/9 58002 70086 555 90912;
0000997275999992012010913004+43650-070250FM-18+0010CASM1V02099999999999999999N9999999N1-00581+99999102501
0000997275999992012010914004+43650-070250FM-18+0010CASM1V02099999999999999999N9999999N1-00511+99999102531
0068997275999992012010915004+43650-070250FM-18+0010CASM1V02099999999999999999N9999999N1-00351+99999102511REMSYN059CMAN  09154 CASM1 46/// ///// 11035 40251 91436 222// 0016;
0000997275999992012010916004+43650-070250FM-18+0010CASM1V02099999999999999999N9999999N1-00301+99999102431
0099997275999992012010917004+43650-070250FM-18+0010CASM1V02099999999999999999N9999999N1-00181+99999102281REMSYN090CMAN  09174 CASM1 46/// ///// 11018 40228 91636 222// 0016555 802 21001 327// 41801 70009;
0078997275999992012010918004+43650-070250FM-18+0010CASM1V02099999999999999999N9999999N1-00071+99999102141REMSYN069CMAN  09184 CASM1 46/// ///// 11007 40214 91736 222// 0016 333 91203;
0000997275999992012010919004+43650-070250FM-18+0010CASM1V02099999999999999999N9999999N1+00061+99999102041
0078997275999992012010920004+43650-070250FM-18+0010CASM1V02099999999999999999N9999999N1+00131+99999101971REMSYN069CMAN  09204 CASM1 46/// ///// 10013 40197 91936 222// 0016555  91202;
0078997275999992012010921004+43650-070250FM-18+0010CASM1V02099999999999999999N9999999N1+00131+99999101911REMSYN069CMAN  09214 CASM1 46/// ///// 10013 40191 92036 222// 0016555  91202;
0078997275999992012010922004+43650-070250FM-18+0010CASM1V02099999999999999999N9999999N1+00061+99999101901REMSYN069CMAN  09224 CASM1 46/// ///// 10006 40190 92136 222// 0004 333 91206;
0078997275999992012010923004+43650-070250FM-18+0010CASM1V02099999999999999999N9999999N1+00021+99999101881REMSYN069CMAN  09234 CASM1 46/// ///// 10002 40188 92236 222// 0004 333 91203;
0000997275999992012011000004+43650-070250FM-18+0010CASM1V02099999999999999999N9999999N1-00011+99999101861
0078997275999992012011001004+43650-070250FM-18+0010CASM1V02099999999999999999N9999999N1+00011+99999101801REMSYN069CMAN  10014 CASM1 46/// ///// 10001 40180 90036 222// 0004 333 91204;
0095997275999992012011002004+43650-070250FM-18+0010CASM1V02099999999999999999N9999999N1+00001+99999101731REMSYN086CMAN  10024 CASM1 46/// ///// 10000 40173 90136 222// 0016555 3 86704 88612 555 6//97;
0078997275999992012011003004+43650-070250FM-18+0010CASM1V02099999999999999999N9999999N1+00001+99999101651REMSYN069CMAN  10034 CASM1 46/// ///// 10000 40165 90236 222// 0016555  91204;
0068997275999992012011004004+43650-070250FM-18+0010CASM1V02099999999999999999N9999999N1-00041+99999101541REMSYN059CMAN  10044 CASM1 46/// ///// 11004 40154 90336 222// 0016;
0096997275999992012011005004+43650-070250FM-18+0010CASM1V02099999999999999999N9999999N1-00061+99999101441REMSYN087CMAN  10054 CASM1 46/// ///// 11006 40144 90436 222// 0016555 22 878// 333 85815 87636;
0078997275999992012011006004+43650-070250FM-18+0010CASM1V02099999999999999999N9999999N1-00081+99999101341REMSYN069CMAN  10064 CASM1 46/// ///// 11008 40134 90536 222// 0016555  91204;
0085997275999992012011007004+43650-070250FM-18+0010CASM1V02099999999999999999N9999999N1-00071+99999101281REMSYN076CMAN  10074 CASM1 46/// ///// 11007 40128 90636 222// 0016555  555 TIDE1280;
0078997275999992012011008004+43650-070250FM-18+0010CASM1V02099999999999999999N9999999N1-00031+99999101221REMSYN069CMAN  10084 CASM1 46/// ///// 11003 40122 90736 222// 0016555  91203;
0000997275999992012011009004+43650-070250FM-18+0010CASM1V02099999999999999999N9999999N1+00001+99999101121
0000997275999992012011010004+43650-070250FM-18+0010CASM1V02099999999999999999N9999999N1+00031+99999101021
0078997275999992012011011004+43650-070250FM-18+0010CASM1V02099999999999999999N9999999N1+00051+99999100931REMSYN069CMAN  10114 CASM1 46/// ///// 10005 40093 91036 222// 0016 333 91205;
0120997275999992012011012004+43650-070250FM-18+0010CASM1V02099999999999999999N9999999N1+00121+99999100871REMSYN111CMAN  10124 CASM1 46/// ///// 10012 40087 91136 222// 0016555 96 85970 333 56000 57801 60147 84615 86460 80858;
0078997275999992012011013004+43650-070250FM-18+0010CASM1V02099999999999999999N9999999N1+00071+99999100831REMSYN069CMAN  10134 CASM1 46/// ///// 10007 40083 91236 222// 0016555  55302;
0078997275999992012011014004+43650-070250FM-18+0010CASM1V02099999999999999999N9999999N1+00051+99999100881REMSYN069CMAN  10144 CASM1 46/// ///// 10005 40088 91336 222// 0016 333 91202;
0000997275999992012011015004+43650-070250FM-18+0010CASM1V02099999999999999999N9999999N1+00071+99999100861
0078997275999992012011016004+43650-070250FM-18+0010CASM1V02099999999999999999N9999999N1+00121+99999100781REMSYN069CMAN  10164 CASM1 46/// ///// 10012 40078 91536 222// 0004 333 91202;
0078997275999992012011017004+43650-070250FM-18+0010CASM1V02099999999999999999N9999999N1+00221+99999100661REMSYN069CMAN  10174 CASM1 46/// ///// 10022 40066 91636 222// 0016 333 91214;
0078997275999992012011018004+43650-070250FM-18+0010CASM1V02099999999999999999N9999999N1+00311+99999100561REMSYN069CMAN  10184 CASM1 46/// ///// 10031 40056 91736 222// 0004555  91205;
0000997275999992012011019004+43650-070250FM-18+0010CASM1V02099999999999999999N9999999N1+00541+99999100541
0078997275999992012011020004+43650-070250FM-18+0010CASM1V02099999999999999999N9999999N1+00631+99999100561REMSYN069CMAN  10204 CASM1 46/// ///// 10063 40056 91936 222// 0016555  91205;
0078997275999992012011021004+43650-070250FM-18+0010CASM1V02099999999999999999N9999999N1+00511+99999100601REMSYN069CMAN  10214 CASM1 46/// ///// 10051 40060 92036 222// 0016555  91205;
0078997275999992012011022004+43650-070250FM-18+0010CASM1V02099999999999999999N9999999N1+00471+99999100721REMSYN069CMAN  10224 CASM1 46/// ///// 10047 40072 92136 222// 0016 333 91221;
0068997275999992012011023004+43650-070250FM-18+0010CASM1V02099999999999999999N9999999N1+00421+99999100841REMSYN059CMAN  10234 CASM1 46/// ///// 10042 40084 92236 222// 0016;
0078997275999992012011100004+43650-070250FM-18+0010CASM1V02099999999999999999N9999999N1+00361+99999100911REMSYN069CMAN  11004 CASM1 46/// ///// 10036 40091 92336 222// 0016555  91205;
0078997275999992012011101004+43650-070250FM-18+0010CASM1V02099999999999999999N9999999N1+00341+99999100901REMSYN069CMAN  11014 CASM1 46/// ///// 10034 40090 90036 222// 0016555  91206;
0000997275999992012011102004+43650-070250FM-18+0010CASM1V02099999999999999999N9999999N1+00341+99999101001
0078997275999992012011103004+43650-070250FM-18+0010CASM1V02099999999999999999N9999999N1+00171+99999101101REMSYN069CMAN  11034 CASM1 46/// ///// 10017 40110 90236 222// 0015555  91205;
0078997275999992012011104004+43650-070250FM-18+0010CASM1V02099999999999999999N9999999N1+00091+99999101171REMSYN069CMAN  11044 CASM1 46/// ///// 10009 40117 90336 222// 0015555  91203;
0000997275999992012011105004+43650-070250FM-18+0010CASM1V02099999999999999999N9999999N1-00011+99999101231
0075997275999992012011106004+43650-070250FM-18+0010CASM1V02099999999999999999N9999999N1-00091+99999101341REMSYN066CMAN  11064 CASM1 46/// ///// 11009 40134 90536 222// 0015555 203;
0000997275999992012011107004+43650-070250FM-18+0010CASM1V02099999999999999999N9999999N1-00141+99999101441
0078997275999992012011108004+43650-070250FM-18+0010CASM1V02099999999999999999N9999999N1-00191+99999101511REMSYN069CMAN  11084 CASM1 46/// ///// 11019 40151 90736 222// 0004555  91204;
0000997275999992012011109004+43650-070250FM-18+0010CASM1V02099999999999999999N9999999N1-00291+99999101561
0078997275999992012011110004+43650-070250FM-18+0010CASM1V02099999999999999999N9999999N1-00371+99999101621REMSYN069CMAN  11104 CASM1 46/// ///// 11037 40162 90936 222// 0004555  91203;
0100997275999992012011111004+43650-070250FM-18+0010CASM1V02099999999999999999N9999999N1-00431+99999101721REMSYN091CMAN  11114 CASM1 46/// ///// 11043 40172 91036 222// 0014555 // 333 84706 88612 555 6//97;
0078997275999992012011112004+43650-070250FM-18+0010CASM1V02099999999999999999N9999999N1-00501+99999101761REMSYN069CMAN  11124 CASM1 46/// ///// 11050 40176 91136 222// 0015 333 91201;
0078997275999992012011113004+43650-070250FM-18+0010CASM1V02099999999999999999N9999999N1-00511+99999101881REMSYN069CMAN  11134 CASM1 46/// ///// 11051 40188 91236 222// 0004 333 91203;
0100997275999992012011114004+43650-070250FM-18+0010CASM1V02099999999999999999N9999999N1-00471+99999101981REMSYN091CMAN  11144 CASM1 46/// ///// 11047 40198 91336 222// 0013555 // 333 86620 88630 555 6//88;
0107997275999992012011115004+43650-070250FM-18+0010CASM1V02099999999999999999N9999999N1-00361+99999102041REMSYN098CMAN  11154 CASM1 46/// ///// 11036 40204 91436 222// 0013555 3 10146 20119 91029 555 20002 91002;
0079997275999992012011116004+43650-070250FM-18+0010CASM1V02099999999999999999N9999999N1-00261+99999102081REMSYN070CMAN  11164 CASM1 46/// ///// 11026 40208 91536 222// 0013555 IDE1143;
0078997275999992012011117004+43650-070250FM-18+0010CASM1V02099999999999999999N9999999N1-00261+99999102041REMSYN069CMAN  11174 CASM1 46/// ///// 11026 40204 91636 222// 0015 333 91202;
0078997275999992012011118004+43650-070250FM-18+0010CASM1V02099999999999999999N9999999N1-00201+99999101971REMSYN069CMAN  11184 CASM1 46/// ///// 11020 40197 91736 222// 0015555  91202;
0000997275999992012011119004+43650-070250FM-18+0010CASM1V02099999999999999999N9999999N1-00221+99999101951
0078997275999992012011120004+43650-070250FM-18+0010CASM1V02099999999999999999N9999999N1-00201+99999102101REMSYN069CMAN  11204 CASM1 46/// ///// 11020 40210 91936 222// 0015555  91211;
0078997275999992012011121004+43650-070250FM-18+0010CASM1V02099999999999999999N9999999N1-00191+99999102141REMSYN069CMAN  11214 CASM1 46/// ///// 11019 40214 92036 222// 001591221 555 ;
0075997275999992012011122004+43650-070250FM-18+0010CASM1V02099999999999999999N9999999N1-00171+99999102131REMSYN066CMAN  11224 CASM1 46/// ///// 11017 40213 92136 222// 0014555 181;
0078997275999992012011123004+43650-070250FM-18+0010CASM1V02099999999999999999N9999999N1-00151+99999102121REMSYN069CMAN  11234 CASM1 46/// ///// 11015 40212 92236 222// 0015555  91205;
0068997275999992012011200004+43650-070250FM-18+0010CASM1V02099999999999999999N9999999N1-00121+99999102171REMSYN059CMAN  12004 CASM1 46/// ///// 11012 40217 92336 222// 0015;
0068997275999992012011201004+43650-070250FM-18+0010CASM1V02099999999999999999N9999999N1-00101+99999102161REMSYN059CMAN  12014 CASM1 46/// ///// 11010 40216 90036 222// 0015;
0078997275999992012011202004+43650-070250FM-18+0010CASM1V02099999999999999999N9999999N1-00081+99999102131REMSYN069CMAN  12024 CASM1 46/// ///// 11008 40213 90136 222// 0015 333 91210;
0068997275999992012011203004+43650-070250FM-18+0010CASM1V02099999999999999999N9999999N1-00061+99999102141REMSYN059CMAN  12034 CASM1 46/// ///// 11006 40214 90236 222// 0015;
0068997275999992012011204004+43650-070250FM-18+0010CASM1V02099999999999999999N9999999N1-00011+99999102111REMSYN059CMAN  12044 CASM1 46/// ///// 11001 40211 90336 222// 0015;
0078997275999992012011205004+43650-070250FM-18+0010CASM1V02099999999999999999N9999999N1+00021+99999102081REMSYN069CMAN  12054 CASM1 46/// ///// 10002 40208 90436 222// 0015 333 91205;
0068997275999992012011206004+43650-070250FM-18+0010CASM1V02099999999999999999N9999999N1+00051+99999102081REMSYN059CMAN  12064 CASM1 46/// ///// 10005 40208 90536 222// 0015;
0068997275999992012011207004+43650-070250FM-18+0010CASM1V02099999999999999999N9999999N1+00101+99999102011REMSYN059CMAN  12074 CASM1 46/// ///// 10010 40201 90636 222// 0015;
0078997275999992012011208004+43650-070250FM-18+0010CASM1V02099999999999999999N9999999N1-00051+99999102001REMSYN069CMAN  12084 CASM1 46/// ///// 11005 40200 90736 222// 0015 333 91202;
0000997275999992012011209004+43650-070250FM-18+0010CASM1V02099999999999999999N9999999N1-00131+99999101911
0078997275999992012011210004+43650-070250FM-18+0010CASM1V02099999999999999999N9999999N1-00151+99999101811REMSYN069CMAN  12104 CASM1 46/// ///// 11015 40181 90936 222// 0015555  91204;
0202997275999992012011211004+43650-070250FM-18+0010CASM1V02099999999999999999N9999999N1-00171+99999101821REMSYN193CMAN  12114 CASM1 46/// ///// 11017 40182 91036 56006 91100 333 91211 555 11009 22010 31059 408011 61059 084008 087008 081007 082007 07047 40912 61049 089096 088096 094094 097094 092095 092092;
0000997275999992012011212004+43650-070250FM-18+0010CASM1V02099999999999999999N9999999N1-00221+99999101741
0080997275999992012011213004+43650-070250FM-18+0010CASM1V02099999999999999999N9999999N1-00321+99999101641REMSYN071CMAN  12134 CASM1 46/// ///// 11032 40164 91236 222// 0014555 30 00195;
0078997275999992012011214004+43650-070250FM-18+0010CASM1V02099999999999999999N9999999N1-00281+99999101501REMSYN069CMAN  12144 CASM1 46/// ///// 11028 40150 91336 222// 0005 333 91203;
0078997275999992012011215004+43650-070250FM-18+0010CASM1V02099999999999999999N9999999N1-00251+99999101431REMSYN069CMAN  12154 CASM1 46/// ///// 11025 40143 91436 222// 0012 333 91203;
0078997275999992012011216004+43650-070250FM-18+0010CASM1V02099999999999999999N9999999N1-00211+99999101221REMSYN069CMAN  12164 CASM1 46/// ///// 11021 40122 91536 222// 0012555  91200;
0088997275999992012011217004+43650-070250FM-18+0010CASM1V02099999999999999999N9999999N1-00291+99999100941REMSYN079CMAN  12174 CASM1 46/// ///// 11029 40094 91636 222// 0013555  91014 555 6//79;
0079997275999992012011218004+43650-070250FM-18+0010CASM1V02099999999999999999N9999999N1-00281+99999100731REMSYN070CMAN  12184 CASM1 46/// ///// 11028 40073 91736 222// 0012555 IDE1162;
0100997275999992012011219004+43650-070250FM-18+0010CASM1V02099999999999999999N9999999N1-00171+99999100571REMSYN091CMAN  12194 CASM1 46/// ///// 11017 40057 91836 222// 0013555 304 21003 333 // 41303 70021;
0084997275999992012011220004+43650-070250FM-18+0010CASM1V02099999999999999999N9999999N1-00181+99999100471REMSYN075CMAN  12204 CASM1 46/// ///// 11018 40047 91936 222// 0014555  83817 86275;
0078997275999992012011221004+43650-070250FM-18+0010CASM1V02099999999999999999N9999999N1-00191+99999100401REMSYN069CMAN  12214 CASM1 46/// ///// 11019 40040 92036 222// 0013 333 91235;
0068997275999992012011222004+43650-070250FM-18+0010CASM1V02099999999999999999N9999999N1-00161+99999100291REMSYN059CMAN  12224 CASM1 46/// ///// 11016 40029 92136 222// 0005;
0078997275999992012011223004+43650-070250FM-18+0010CASM1V02099999999999999999N9999999N1-00211+99999100171REMSYN069CMAN  12234 CASM1 46/// ///// 11021 40017 92236 222// 0013 333 91236;
0000997275999992012011300004+43650-070250FM-18+0010CASM1V02099999999999999999N9999999N1-00251+99999100141
0078997275999992012011301004+43650-070250FM-18+0010CASM1V02099999999999999999N9999999N1-00261+99999100101REMSYN069CMAN  13014 CASM1 46/// ///// 11026 40010 90036 222// 0014 333 91205;
0000997275999992012011302004+43650-070250FM-18+0010CASM1V02099999999999999999N9999999N1-00251+99999100081
0079997275999992012011303004+43650-070250FM-18+0010CASM1V02099999999999999999N9999999N1-00321+99999100091REMSYN070CMAN  13034 CASM1 46/// ///// 11032 40009 90236 222// 001355 TIDE1143;
0000997275999992012011304004+43650-070250FM-18+0010CASM1V02099999999999999999N9999999N1-00361+99999100101
0068997275999992012011305004+43650-070250FM-18+0010CASM1V02099999999999999999N9999999N1-00361+99999100081REMSYN059CMAN  13054 CASM1 46/// ///// 11036 40008 90436 222// 0013;
0078997275999992012011306004+43650-070250FM-18+0010CASM1V02099999999999999999N9999999N1-00361+99999100091REMSYN069CMAN  13064 CASM1 46/// ///// 11036 40009 90536 222// 0012555  91203;
0078997275999992012011307004+43650-070250FM-18+0010CASM1V02099999999999999999N9999999N1-00361+99999100091REMSYN069CMAN  13074 CASM1 46/// ///// 11036 40009 90636 222// 0011555  91205;
0000997275999992012011308004+43650-070250FM-18+0010CASM1V02099999999999999999N9999999N1-00351+99999100091
0114997275999992012011309004+43650-070250FM-18+0010CASM1V02099999999999999999N9999999N1-00361+99999100091REMSYN105CMAN  13094 CASM1 46/// ///// 11036 40009 90836 222// 0012555 02 70272 8672/ 333 11077 21098 3/112 47042;
0068997275999992012011310004+43650-070250FM-18+0010CASM1V02099999999999999999N9999999N1-00361+99999100101REMSYN059CMAN  13104 CASM1 46/// ///// 11036 40010 90936 222// 0012;
0085997275999992012011311004+43650-070250FM-18+0010CASM1V02099999999999999999N9999999N1-00361+99999100071REMSYN076CMAN  13114 CASM1 46/// ///// 11036 40007 91036 222// 0012555  555 TIDE1203;
0068997275999992012011312004+43650-070250FM-18+0010CASM1V02099999999999999999N9999999N1-00371+99999099941REMSYN059CMAN  13124 CASM1 46/// ///// 11037 49994 91136 222// 0013;
0000997275999992012011313004+43650-070250FM-18+0010CASM1V02099999999999999999N9999999N1-00291+99999099841
0072997275999992012011314004+43650-070250FM-18+0010CASM1V02099999999999999999N9999999N1-00211+99999099591REMSYN063CMAN  13144 CASM1 46/// ///// 11021 49959 91418 222// 00121210;
0078997275999992012011315004+43650-070250FM-18+0010CASM1V02099999999999999999N9999999N1-00221+99999099521REMSYN069CMAN  13154 CASM1 46/// ///// 11022 49952 91436 222// 0012 333 91200;
0078997275999992012011316004+43650-070250FM-18+0010CASM1V02099999999999999999N9999999N1-00221+99999099281REMSYN069CMAN  13164 CASM1 46/// ///// 11022 49928 91536 222// 0005555  91201;
0000997275999992012011317004+43650-070250FM-18+0010CASM1V02099999999999999999N9999999N1-00091+99999098991
0078997275999992012011318004+43650-070250FM-18+0010CASM1V02099999999999999999N9999999N1+00021+99999098591REMSYN069CMAN  13184 CASM1 46/// ///// 10002 49859 91736 22// 00138 333 91210;
0090997275999992012011319004+43650-070250FM-18+0010CASM1V02099999999999999999N9999999N1+00181+99999098441REMSYN081CMAN  13194 CASM1 46/// ///// 10018 49844 91836 222// 0013555 30 333 90700 91107;
0099997275999992012011320004+43650-070250FM-18+0010CASM1V02099999999999999999N9999999N1+00221+99999098511REMSYN090CMAN  13204 CASM1 46/// ///// 10022 49851 91936 222// 0012555 302 21001 324// 41301 70009;
0000997275999992012011321004+43650-070250FM-18+0010CASM1V02099999999999999999N9999999N1+00371+99999098591
0078997275999992012011322004+43650-070250FM-18+0010CASM1V02099999999999999999N9999999N1+00271+99999098741REMSYN069CMAN  13224 CASM1 46/// ///// 10027 49874 92136 222// 0012555  91204;
0078997275999992012011323004+43650-070250FM-18+0010CASM1V02099999999999999999N9999999N1+00201+99999098851REMSYN069CMAN  13234 CASM1 46/// ///// 10020 49885 92236 222// 0013 333 91204;
0068997275999992012011400004+43650-070250FM-18+0010CASM1V02099999999999999999N9999999N1+00061+99999099021REMSYN059CMAN  14004 CASM1 46/// ///// 10006 49902 92336 222// 0014;
0077997275999992012011401004+43650-070250FM-18+0010CASM1V02099999999999999999N9999999N1-00051+99999099111REMSYN068CMAN  14014 CASM1 46/// ///// 11005 49911 90036 222// 0013010 22274;
0078997275999992012011402004+43650-070250FM-18+0010CASM1V02099999999999999999N9999999N1-00091+99999099251REMSYN069CMAN  14024 CASM1 46/// ///// 11009 49925 90136 222// 0013555  92428;
0078997275999992012011403004+43650-070250FM-18+0010CASM1V02099999999999999999N9999999N1-00171+99999099341REMSYN069CMAN  14034 CASM1 46/// ///// 11017 49934 90236 222// 0005555  91202;
0000997275999992012011404004+43650-070250FM-18+0010CASM1V02099999999999999999N9999999N1-00151+99999099451
0084997275999992012011405004+43650-070250FM-18+0010CASM1V02099999999999999999N9999999N1-00061+99999099511REMSYN075CMAN  14054 CASM1 46/// ///// 11006 49951 90436 222// 0013555 50 333 92408;
0078997275999992012011406004+43650-070250FM-18+0010CASM1V02099999999999999999N9999999N1+00011+99999099601REMSYN069CMAN  14064 CASM1 46/// ///// 10001 49960 90536 222// 0013555  91204;
0080997275999992012011407004+43650-070250FM-18+0010CASM1V02099999999999999999N9999999N1+00061+99999099751REMSYN071CMAN  14074 CASM1 46/// ///// 10006 49975 90636 222// 0013555 00 00038;
0078997275999992012011408004+43650-070250FM-18+0010CASM1V02099999999999999999N9999999N1+00031+99999099861REMSYN069CMAN  14084 CASM1 46/// ///// 10003 49986 90736 222// 0013555  91204;
0075997275999992012011409004+43650-070250FM-18+0010CASM1V02099999999999999999N9999999N1+00031+99999100001REMSYN066CMAN  14094 CASM1 46/// ///// 10003 40000 90836 222// 0012555 215;
0075997275999992012011410004+43650-070250FM-18+0010CASM1V02099999999999999999N9999999N1+00031+99999100071REMSYN066CMAN  14104 CASM1 46/// ///// 10003 40007 90936 222// 0012555 204;
0078997275999992012011411004+43650-070250FM-18+0010CASM1V02099999999999999999N9999999N1+00001+99999100161REMSYN069CMAN  14114 CASM1 46/// ///// 10000 40016 91036 222// 000591229 555 ;
0078997275999992012011412004+43650-070250FM-18+0010CASM1V02099999999999999999N9999999N1-00071+99999100281REMSYN069CMAN  14124 CASM1 46/// ///// 11007 40028 91136 222// 0011555  91204;
0110997275999992012011413004+43650-070250FM-18+0010CASM1V02099999999999999999N9999999N1-00111+99999100361REMSYN101CMAN  14134 CASM1 46/// ///// 11011 40036 91236 222// 0011555 00 00062 11314 21009 332// 41311 70070;
0096997275999992012011414004+43650-070250FM-18+0010CASM1V02099999999999999999N9999999N1-00101+99999100511REMSYN087CMAN  14144 CASM1 46/// ///// 11010 40051 91336 222// 0011555 22 91300 555 11084 22087;
0079997275999992012011415004+43650-070250FM-18+0010CASM1V02099999999999999999N9999999N1-00171+99999100601REMSYN070CMAN  14154 CASM1 46/// ///// 11017 40060 91436 222// 0011555 0 87620;
0078997275999992012011416004+43650-070250FM-18+0010CASM1V02099999999999999999N9999999N1-00181+99999100611REMSYN069CMAN  14164 CASM1 46/// ///// 11018 40061 91536 222// 0004 333 91207;
0078997275999992012011417004+43650-070250FM-18+0010CASM1V02099999999999999999N9999999N1-00221+99999100611REMSYN069CMAN  14174 CASM1 46/// ///// 11022 40061 91636 222// 0011555  91202;
0078997275999992012011418004+43650-070250FM-18+0010CASM1V02099999999999999999N9999999N1-00271+99999100611REMSYN069CMAN  14184 CASM1 46/// ///// 11027 40061 91736 222// 0012 333 91212;
0075997275999992012011419004+43650-070250FM-18+0010CASM1V02099999999999999999N9999999N1-00271+99999100631REMSYN066CMAN  14194 CASM1 46/// ///// 11027 40063 91836 222// 0012555 208;
0078997275999992012011420004+43650-070250FM-18+0010CASM1V02099999999999999999N9999999N1-00321+99999100731REMSYN069CMAN  14204 CASM1 46/// ///// 11032 40073 91936 222// 0012555  91113;
0078997275999992012011421004+43650-070250FM-18+0010CASM1V02099999999999999999N9999999N1-00351+99999100821REMSYN069CMAN  14214 CASM1 46/// ///// 11035 40082 92036 222// 0012 333 91206;
0078997275999992012011422004+43650-070250FM-18+0010CASM1V02099999999999999999N9999999N1-00581+99999100971REMSYN069CMAN  14224 CASM1 46/// ///// 11058 40097 92136 222// 0004555  91206;
0099997275999992012011423004+43650-070250FM-18+0010CASM1V02099999999999999999N9999999N1-00761+99999101101REMSYN090CMAN  14234 CASM1 46/// ///// 11076 40110 92236 222// 0011555 207 20806 329// 41204 70035;
0000997275999992012011500004+43650-070250FM-18+0010CASM1V02099999999999999999N9999999N1-00881+99999101191
0000997275999992012011501004+43650-070250FM-18+0010CASM1V02099999999999999999N9999999N1-00941+99999101271
0099997275999992012011502004+43650-070250FM-18+0010CASM1V02099999999999999999N9999999N1-01031+99999101341REMSYN090CMAN  15024 CASM1 46/// ///// 11103 40134 90136 222// 00115 11108 21006 329// 41105 70040;
0068997275999992012011503004+43650-070250FM-18+0010CASM1V02099999999999999999N9999999N1-01091+99999101421REMSYN059CMAN  15034 CASM1 46/// ///// 11109 40142 90236 222// 0013;
0155997275999992012011504004+43650-070250FM-18+0010CASM1V02099999999999999999N9999999N1-01221+99999101511REMSYN146CMAN  15044 CASM1 46/// ///// 11122 40151 90336 2004 90400 333 91206 555 11005 22005 30344 425006 60359 255005 254005 263005 269005 272005 269005;
0078997275999992012011505004+43650-070250FM-18+0010CASM1V02099999999999999999N9999999N1-01321+99999101511REMSYN069CMAN  15054 CASM1 46/// ///// 11132 40151 90436 222// 0012555  91204;
0078997275999992012011506004+43650-070250FM-18+0010CASM1V02099999999999999999N9999999N1-01431+99999101611REMSYN069CMAN  15064 CASM1 46/// ///// 11143 40161 90536 222// 0012555  91202;
0000997275999992012011507004+43650-070250FM-18+0010CASM1V02099999999999999999N9999999N1-01491+99999101691
0074997275999992012011508004+43650-070250FM-18+0010CASM1V02099999999999999999N9999999N1-01561+99999101791REMSYN065CMAN  15084 CASM1 46/// ///// 11156 40179 90736 222// 0011555 20;
0075997275999992012011509004+43650-070250FM-18+0010CASM1V02099999999999999999N9999999N1-01591+99999101911REMSYN066CMAN  15094 CASM1 46/// ///// 11159 40191 90836 222// 0012555 175;
0078997275999992012011510004+43650-070250FM-18+0010CASM1V02099999999999999999N9999999N1-01551+99999101961REMSYN069CMAN  15104 CASM1 46/// ///// 11155 40196 90936 222// 0011555  91206;
0073997275999992012011511004+43650-070250FM-18+0010CASM1V02099999999999999999N9999999N1-01591+99999102031REMSYN064CMAN  15114 CASM1 46/// ///// 11159 40203 91036 222// 0011555 5;
0000997275999992012011512004+43650-070250FM-18+0010CASM1V02099999999999999999N9999999N1-01621+99999102121
0078997275999992012011513004+43650-070250FM-18+0010CASM1V02099999999999999999N9999999N1-01631+99999102221REMSYN069CMAN  15134 CASM1 46/// ///// 11163 40222 91236 222// 0011 333 91207;
0078997275999992012011514004+43650-070250FM-18+0010CASM1V02099999999999999999N9999999N1-01511+99999102331REMSYN069CMAN  15144 CASM1 46/// ///// 11151 40233 91336 222// 0011555  91207;
0078997275999992012011515004+43650-070250FM-18+0010CASM1V02099999999999999999N9999999N1-01351+99999102411REMSYN069CMAN  15154 CASM1 46/// ///// 11135 40241 91436 222// 0011 333 91206;
0078997275999992012011516004+43650-070250FM-18+0010CASM1V02099999999999999999N9999999N1-01311+99999102441REMSYN069CMAN  15164 CASM1 46/// ///// 11131 40244 91536 222// 0012 333 91208;
0074997275999992012011517004+43650-070250FM-18+0010CASM1V02099999999999999999N9999999N1-01231+99999102411REMSYN065CMAN  15174 CASM1 46/// ///// 11123 40241 91636 222// 0012555 00;
0085997275999992012011518004+43650-070250FM-18+0010CASM1V02099999999999999999N9999999N1-01101+99999102381REMSYN076CMAN  15184 CASM1 46/// ///// 11110 40238 91736 222// 0012555  555 TIDE1047;
0000997275999992012011519004+43650-070250FM-18+0010CASM1V02099999999999999999N9999999N1-01011+99999102401
0078997275999992012011520004+43650-070250FM-18+0010CASM1V02099999999999999999N9999999N1-01031+99999102491REMSYN069CMAN  15204 CASM1 46/// ///// 11103 40249 91936 222// 0013 333 91210;
0075997275999992012011521004+43650-070250FM-18+0010CASM1V02099999999999999999N9999999N1-01071+99999102601REMSYN066CMAN  15214 CASM1 46/// ///// 11107 40260 92036 222// 0013IDE1140;
0084997275999992012011522004+43650-070250FM-18+0010CASM1V02099999999999999999N9999999N1-01161+99999102701REMSYN075CMAN  15224 CASM1 46/// ///// 11116 40270 92136 222// 0012555 // 555 6//90;
0000997275999992012011523004+43650-070250FM-18+0010CASM1V02099999999999999999N9999999N1-01211+99999102771
0078997275999992012011600004+43650-070250FM-18+0010CASM1V02099999999999999999N9999999N1-01251+99999102861REMSYN069CMAN  16004 CASM1 46/// ///// 11125 40286 92336 222// 0004 333 91219;
0078997275999992012011601004+43650-070250FM-18+0010CASM1V02099999999999999999N9999999N1-01261+99999102901REMSYN069CMAN  16014 CASM1 46/// ///// 11126 40290 90036 222// 0014 333 91220;
0078997275999992012011602004+43650-070250FM-18+0010CASM1V02099999999999999999N9999999N1-01361+99999102971REMSYN069CMAN  16024 CASM1 46/// ///// 11136 40297 90136 222// 0014 333 91212;
0078997275999992012011603004+43650-070250FM-18+0010CASM1V02099999999999999999N9999999N1-01381+99999102991REMSYN069CMAN  16034 CASM1 46/// ///// 11138 40299 90236 222// 0014 333 91212;
0094997275999992012011604004+43650-070250FM-18+0010CASM1V02099999999999999999N9999999N1-01391+99999103071REMSYN085CMAN  16044 CASM1 46/// ///// 11139 40307 90336 222// 0014555 // 333 88702 555 6//97;
0000997275999992012011605004+43650-070250FM-18+0010CASM1V02099999999999999999N9999999N1-01391+99999103111
0075997275999992012011606004+43650-070250FM-18+0010CASM1V02099999999999999999N9999999N1-01381+99999103181REMSYN066CMAN  16064 CASM1 46/// ///// 11138 40318 90536 222// 0014IDE1208;
0078997275999992012011607004+43650-070250FM-18+0010CASM1V02099999999999999999N9999999N1-01371+99999103221REMSYN069CMAN  16074 CASM1 46/// ///// 11137 40322 90636 222// 0014 333 91206;
0078997275999992012011608004+43650-070250FM-18+0010CASM1V02099999999999999999N9999999N1-01371+99999103251REMSYN069CMAN  16084 CASM1 46/// ///// 11137 40325 90736 222// 0004 333 91208;
0079997275999992012011609004+43650-070250FM-18+0010CASM1V02099999999999999999N9999999N1-01441+99999103291REMSYN070CMAN  16094 CASM1 46/// ///// 11144 40329 90836 222// 0014568// 83820;
0075997275999992012011610004+43650-070250FM-18+0010CASM1V02099999999999999999N9999999N1-01491+99999103291REMSYN066CMAN  16104 CASM1 46/// ///// 11149 40329 90936 222// 0014555 155;
0068997275999992012011611004+43650-070250FM-18+0010CASM1V02099999999999999999N9999999N1-01481+99999103311REMSYN059CMAN  16114 CASM1 46/// ///// 11148 40331 91036 222// 0013;
0102997275999992012011612004+43650-070250FM-18+0010CASM1V02099999999999999999N9999999N1-01511+99999103341REMSYN093CMAN  16124 CASM1 46/// ///// 11151 40334 91136 222// 0013555 // 78582 8732/ 333 21022 91112;
0080997275999992012011613004+43650-070250FM-18+0010CASM1V02099999999999999999N9999999N1-01481+99999103391REMSYN071CMAN  16134 CASM1 46/// ///// 11148 40339 91236 222// 0013555 00 00035;
0078997275999992012011614004+43650-070250FM-18+0010CASM1V02099999999999999999N9999999N1-01381+99999103441REMSYN069CMAN  16144 CASM1 46/// ///// 11138 40344 91336 222// 0013 333 91213;
0099997275999992012011615004+43650-070250FM-18+0010CASM1V02099999999999999999N9999999N1-00981+99999103411REMSYN090CMAN  16154 CASM1 46/// ///// 11098 40341 91436 222// 0013555 704 20703 307// 41301 70018;
0090997275999992012011616004+43650-070250FM-18+0010CASM1V02099999999999999999N9999999N1-00841+99999103311REMSYN081CMAN  16164 CASM1 46/// ///// 11084 40331 91536 222// 0013555  55310 20981 30188;
0078997275999992012011617004+43650-070250FM-18+0010CASM1V02099999999999999999N9999999N1-00741+99999103191REMSYN069CMAN  16174 CASM1 46/// ///// 11074 40319 91636 222// 0014555  91211;
0078997275999992012011618004+43650-070250FM-18+0010CASM1V02099999999999999999N9999999N1-00601+99999103041REMSYN069CMAN  16184 CASM1 46/// ///// 11060 40304 91736 222// 0014555  91211;
0078997275999992012011619004+43650-070250FM-18+0010CASM1V02099999999999999999N9999999N1-00401+99999102891REMSYN069CMAN  16194 CASM1 46/// ///// 11040 40289 91836 222// 0014555  91207;
0078997275999992012011620004+43650-070250FM-18+0010CASM1V02099999999999999999N9999999N1-00331+99999102791REMSYN069CMAN  16204 CASM1 46/// ///// 11033 40279 91936 222// 0014 333 91208;
0075997275999992012011621004+43650-070250FM-18+0010CASM1V02099999999999999999N9999999N1-00261+99999102691REMSYN066CMAN  16214 CASM1 46/// ///// 11026 40269 92036 222// 0014555 135;
0068997275999992012011622004+43650-070250FM-18+0010CASM1V02099999999999999999N9999999N1-00331+99999102621REMSYN059CMAN  16224 CASM1 46/// ///// 11033 40262 92136 222// 0014;
0000997275999992012011623004+43650-070250FM-18+0010CASM1V02099999999999999999N9999999N1-00331+99999102541
0078997275999992012011700004+43650-070250FM-18+0010CASM1V02099999999999999999N9999999N1-00321+99999102381REMSYN069CMAN  17004 CASM1 46/// ///// 11032 40238 92336 222// 0014555  91205;
0078997275999992012011701004+43650-070250FM-18+0010CASM1V02099999999999999999N9999999N1-00081+99999102291REMSYN069CMAN  17014 CASM1 46/// ///// 11008 40229 90036 222// 0014 333 91211;
0099997275999992012011702004+43650-070250FM-18+0010CASM1V02099999999999999999N9999999N1-00131+99999102221REMSYN090CMAN  17024 CASM1 46/// ///// 11013 40222 90136 222// 0014555 703 20703 307// 41101 70015;
0000997275999992012011703004+43650-070250FM-18+0010CASM1V02099999999999999999N9999999N1-00161+99999102071
0078997275999992012011704004+43650-070250FM-18+0010CASM1V02099999999999999999N9999999N1-00151+99999101941REMSYN069CMAN  17044 CASM1 46/// ///// 11015 40194 90336 222// 0015555  91204;
0000997275999992012011705004+43650-070250FM-18+0010CASM1V02099999999999999999N9999999N1-00161+99999101831
0078997275999992012011706004+43650-070250FM-18+0010CASM1V02099999999999999999N9999999N1-00131+99999101751REMSYN069CMAN  17064 CASM1 46/// ///// 11013 40175 90536 222// 0015555  91205;
0000997275999992012011707004+43650-070250FM-18+0010CASM1V02099999999999999999N9999999N1-00131+99999101721
0000997275999992012011708004+43650-070250FM-18+0010CASM1V02099999999999999999N9999999N1-00121+99999101651
0106997275999992012011709004+43650-070250FM-18+0010CASM1V02099999999999999999N9999999N1-00111+99999101551REMSYN097CMAN  17094 CASM1 46/// ///// 11011 40155 90836 222// 0015555  10181 20167 91012 555 20018 60105;
0078997275999992012011710004+43650-070250FM-18+0010CASM1V02099999999999999999N9999999N1-00091+99999101471REMSYN069CMAN  17104 CASM1 46/// ///// 11009 40147 90936 222// 0014555  91205;
0078997275999992012011711004+43650-070250FM-18+0010CASM1V02099999999999999999N9999999N1-00151+99999101431REMSYN069CMAN  17114 CASM1 46/// ///// 11015 40143 91036 222// 0015555  91200;
0080997275999992012011712004+43650-070250FM-18+0010CASM1V02099999999999999999N9999999N1-00151+99999101401REMSYN071CMAN  17124 CASM1 46/// ///// 11015 40140 91136 222// 0015555 52 00185;
0154997275999992012011713004+43650-070250FM-18+0010CASM1V02099999999999999999N9999999N1-00131+99999101411REMSYN145CMAN  17134 CASM1 46/// ///// 11013 40141 91236 91300 333 91232 555 11027 22029 31235 424035 61259 240029 241029 242030 240030 24016 17300 51260;
0068997275999992012011714004+43650-070250FM-18+0010CASM1V02099999999999999999N9999999N1-00081+99999101331REMSYN059CMAN  17144 CASM1 46/// ///// 11008 40133 91336 222// 0015;
0078997275999992012011715004+43650-070250FM-18+0010CASM1V02099999999999999999N9999999N1-00021+99999101301REMSYN069CMAN  17154 CASM1 46/// ///// 11002 40130 91436 222// 0003 333 91229;
0078997275999992012011716004+43650-070250FM-18+0010CASM1V02099999999999999999N9999999N1+00051+99999101221REMSYN069CMAN  17164 CASM1 46/// ///// 10005 40122 91536 222// 0015 333 91205;
0078997275999992012011717004+43650-070250FM-18+0010CASM1V02099999999999999999N9999999N1+00161+99999101131REMSYN069CMAN  17174 CASM1 46/// ///// 10016 40113 91636 222// 0015555  91207;
0113997275999992012011718004+43650-070250FM-18+0010CASM1V02099999999999999999N9999999N1+00131+99999100961REMSYN104CMAN  17184 CASM1 46/// ///// 10013 40096 91736 222// 0015555 200 1//00 70002 333 91205 555 11057 22067;
0085997275999992012011719004+43650-070250FM-18+0010CASM1V02099999999999999999N9999999N1+00141+99999100871REMSYN076CMAN  17194 CASM1 46/// ///// 10014 40087 91836 222// 0015555  555 TIDE1122;
0078997275999992012011720004+43650-070250FM-18+0010CASM1V02099999999999999999N9999999N1+00151+99999100811REMSYN069CMAN  17204 CASM1 46/// ///// 10015 40081 91936 222// 0015555  91205;
0078997275999992012011721004+43650-070250FM-18+0010CASM1V02099999999999999999N9999999N1+00231+99999100791REMSYN069CMAN  17214 CASM1 46/// ///// 10023 40079 92036 222// 0015 333 91205;
0068997275999992012011722004+43650-070250FM-18+0010CASM1V02099999999999999999N9999999N1+00231+99999100641REMSYN059CMAN  17224 CASM1 46/// ///// 10023 40064 92136 222// 0015;
0078997275999992012011723004+43650-070250FM-18+0010CASM1V02099999999999999999N9999999N1+00311+99999100501REMSYN069CMAN  17234 CASM1 46/// ///// 10031 40050 92236 222// 0015 333 91228;
0068997275999992012011800004+43650-070250FM-18+0010CASM1V02099999999999999999N9999999N1+00361+99999100301REMSYN059CMAN  18004 CASM1 46/// ///// 10036 40030 92336 222// 0015;
0068997275999992012011801004+43650-070250FM-18+0010CASM1V02099999999999999999N9999999N1+00441+99999100181REMSYN059CMAN  18014 CASM1 46/// ///// 10044 40018 90036 222// 0015;
0078997275999992012011802004+43650-070250FM-18+0010CASM1V02099999999999999999N9999999N1+00461+99999100051REMSYN069CMAN  18024 CASM1 46/// ///// 10046 40005 90136 222// 0015 333 91210;
0078997275999992012011803004+43650-070250FM-18+0010CASM1V02099999999999999999N9999999N1+00431+99999099911REMSYN069CMAN  18034 CASM1 46/// ///// 10043 49991 90236 222// 0015 333 91209;
0110997275999992012011804004+43650-070250FM-18+0010CASM1V02099999999999999999N9999999N1+00431+99999099731REMSYN101CMAN  18044 CASM1 46/// ///// 10043 49973 90336 222// 0015555 00 00143 11401 20601 321// 41401 70005;
0000997275999992012011805004+43650-070250FM-18+0010CASM1V02099999999999999999N9999999N1+00411+99999099591
0078997275999992012011806004+43650-070250FM-18+0010CASM1V02099999999999999999N9999999N1+00461+99999099471REMSYN069CMAN  18064 CASM1 46/// ///// 10046 49947 90536 222// 0015 333 91205;
0116997275999992012011807004+43650-070250FM-18+0010CASM1V02099999999999999999N9999999N1+00551+99999099351REMSYN107CMAN  18074 CASM1 46/// ///// 10055 49935 90636 222// 0015555 10 58001 70200 81100 22224 00289 20201 80215;
0078997275999992012011808004+43650-070250FM-18+0010CASM1V02099999999999999999N9999999N1+00591+99999099331REMSYN069CMAN  18084 CASM1 46/// ///// 10059 49933 90736 222// 0004 333 91205;
0078997275999992012011809004+43650-070250FM-18+0010CASM1V02099999999999999999N9999999N1+00621+99999099451REMSYN069CMAN  18094 CASM1 46/// ///// 10062 49945 90836 222// 0014555  91205;
0085997275999992012011810004+43650-070250FM-18+0010CASM1V02099999999999999999N9999999N1+00661+99999099461REMSYN076CMAN  18104 CASM1 46/// ///// 10066 49946 90936 222// 0013555  555 TIDE1014;
0078997275999992012011811004+43650-070250FM-18+0010CASM1V02099999999999999999N9999999N1+00551+99999099581REMSYN069CMAN  18114 CASM1 46/// ///// 10055 49958 91036 222// 0013555  91203;
0078997275999992012011812004+43650-070250FM-18+0010CASM1V02099999999999999999N9999999N1+00451+99999099711REMSYN069CMAN  18124 CASM1 46/// ///// 10045 49971 91136 222// 0004 333 91204;
0079997275999992012011813004+43650-070250FM-18+0010CASM1V02099999999999999999N9999999N1+00371+99999099881REMSYN070CMAN  18134 CASM1 46/// ///// 10037 49988 91236 222// 0014555 IDE1092;
0075997275999992012011814004+43650-070250FM-18+0010CASM1V02099999999999999999N9999999N1+00311+99999100031REMSYN066CMAN  18144 CASM1 46/// ///// 10031 40003 91336 222// 0014555 012;
0078997275999992012011815004+43650-070250FM-18+0010CASM1V02099999999999999999N9999999N1+00311+99999100201REMSYN069CMAN  18154 CASM1 46/// ///// 10031 40020 91436 222// 0014555  91203;
0080997275999992012011816004+43650-070250FM-18+0010CASM1V02099999999999999999N9999999N1+00211+99999100361REMSYN071CMAN  18164 CASM1 46/// ///// 10021 40036 91536 222// 0014555 72 886//;
0068997275999992012011817004+43650-070250FM-18+0010CASM1V02099999999999999999N9999999N1+00141+99999100461REMSYN059CMAN  18174 CASM1 46/// ///// 10014 40046 91636 222// 0014;
0078997275999992012011818004+43650-070250FM-18+0010CASM1V02099999999999999999N9999999N1+00081+99999100511REMSYN069CMAN  18184 CASM1 46/// ///// 10008 40051 91736 222// 0004 333 91207;
0078997275999992012011819004+43650-070250FM-18+0010CASM1V02099999999999999999N9999999N1+00051+99999100601REMSYN069CMAN  18194 CASM1 46/// ///// 10005 40060 91836 222// 0014555  91208;
0078997275999992012011820004+43650-070250FM-18+0010CASM1V02099999999999999999N9999999N1-00081+99999100811REMSYN069CMAN  18204 CASM1 46/// ///// 11008 40081 91936 222// 0014555  91207;
0078997275999992012011821004+43650-070250FM-18+0010CASM1V02099999999999999999N9999999N1-00181+99999100991REMSYN069CMAN  18214 CASM1 46/// ///// 11018 40099 92036 222// 0014555  91206;
0078997275999992012011822004+43650-070250FM-18+0010CASM1V02099999999999999999N9999999N1-00341+99999101191REMSYN069CMAN  18224 CASM1 46/// ///// 11034 40119 92136 222// 0015555  91207;
0078997275999992012011823004+43650-070250FM-18+0010CASM1V02099999999999999999N9999999N1-00481+99999101421REMSYN069CMAN  18234 CASM1 46/// ///// 11048 40142 92236 222// 0004555  91205;
0103997275999992012011900004+43650-070250FM-18+0010CASM1V02099999999999999999N9999999N1-00591+99999101571REMSYN094CMAN  19004 CASM1 46/// ///// 11059 40157 92336 222// 001510339 20217 30/// 56200 59014 82840;
0078997275999992012011901004+43650-070250FM-18+0010CASM1V02099999999999999999N9999999N1-00691+99999101701REMSYN069CMAN  19014 CASM1 46/// ///// 11069 40170 90036 222// 0004555  91204;
0078997275999992012011902004+43650-070250FM-18+0010CASM1V02099999999999999999N9999999N1-00751+99999101801REMSYN069CMAN  19024 CASM1 46/// ///// 11075 40180 90136 222// 0015555  91203;
0068997275999992012011903004+43650-070250FM-18+0010CASM1V02099999999999999999N9999999N1-00831+99999101931REMSYN059CMAN  19034 CASM1 46/// ///// 11083 40193 90236 222// 0015;
0075997275999992012011904004+43650-070250FM-18+0010CASM1V02099999999999999999N9999999N1-00881+99999101981REMSYN066CMAN  19044 CASM1 46/// ///// 11088 40198 90336 222// 0015IDE1184;
0000997275999992012011905004+43650-070250FM-18+0010CASM1V02099999999999999999N9999999N1-00911+99999102031
0068997275999992012011906004+43650-070250FM-18+0010CASM1V02099999999999999999N9999999N1-00941+99999102061REMSYN059CMAN  19064 CASM1 46/// ///// 11094 40206 90536 222// 0015;
0078997275999992012011907004+43650-070250FM-18+0010CASM1V02099999999999999999N9999999N1-00961+99999102061REMSYN069CMAN  19074 CASM1 46/// ///// 11096 40206 90636 222// 0014555  91204;
0078997275999992012011908004+43650-070250FM-18+0010CASM1V02099999999999999999N9999999N1-00941+99999102131REMSYN069CMAN  19084 CASM1 46/// ///// 11094 40213 90736 222// 0014555  91203;
0085997275999992012011909004+43650-070250FM-18+0010CASM1V02099999999999999999N9999999N1-00971+99999102201REMSYN076CMAN  19094 CASM1 46/// ///// 11097 40220 90836 222// 00141212 555 TIDE0991;
0078997275999992012011910004+43650-070250FM-18+0010CASM1V02099999999999999999N9999999N1-00961+99999102291REMSYN069CMAN  19104 CASM1 46/// ///// 11096 40229 90936 222// 0004555  91206;
0078997275999992012011911004+43650-070250FM-18+0010CASM1V02099999999999999999N9999999N1-00971+99999102381REMSYN069CMAN  19114 CASM1 46/// ///// 11097 40238 91036 222// 0015555  91208;
0078997275999992012011912004+43650-070250FM-18+0010CASM1V02099999999999999999N9999999N1-01001+99999102451REMSYN069CMAN  19124 CASM1 46/// ///// 11100 40245 91136 222// 0014 333 91216;
0000997275999992012011913004+43650-070250FM-18+0010CASM1V02099999999999999999N9999999N1-01081+99999102661
0100997275999992012011914004+43650-070250FM-18+0010CASM1V02099999999999999999N9999999N1-00921+99999102721REMSYN091CMAN  19144 CASM1 46/// ///// 11092 40272 91336 222// 0014 74622 886// 333 88702 555 6//97;
0078997275999992012011915004+43650-070250FM-18+0010CASM1V02099999999999999999N9999999N1-00801+99999102691REMSYN069CMAN  19154 CASM1 46/// ///// 11080 40269 91436 222// 0014555  91211;
0078997275999992012011916004+43650-070250FM-18+0010CASM1V02099999999999999999N9999999N1-00731+99999102601REMSYN069CMAN  19164 CASM1 46/// ///// 11073 40260 91536 222// 0014 333 91216;
0078997275999992012011917004+43650-070250FM-18+0010CASM1V02099999999999999999N9999999N1-00651+99999102401REMSYN069CMAN  19174 CASM1 46/// ///// 11065 40240 91636 222// 0014 333 91208;
0000997275999992012011918004+43650-070250FM-18+0010CASM1V02099999999999999999N9999999N1-00611+99999102231
0078997275999992012011919004+43650-070250FM-18+0010CASM1V02099999999999999999N9999999N1-00581+99999102191REMSYN069CMAN  19194 CASM1 46/// ///// 11058 40219 91836 222// 0015555  91210;
0078997275999992012011920004+43650-070250FM-18+0010CASM1V02099999999999999999N9999999N1-00471+99999102221REMSYN069CMAN  19204 CASM1 46/// ///// 11047 40222 91936 222// 0015555  91210;
0078997275999992012011921004+43650-070250FM-18+0010CASM1V02099999999999999999N9999999N1-00461+99999102171REMSYN069CMAN  19214 CASM1 46/// ///// 11046 40217 92036 222// 0015555  91211;
0000997275999992012011922004+43650-070250FM-18+0010CASM1V02099999999999999999N9999999N1-00391+99999102181
0078997275999992012011923004+43650-070250FM-18+0010CASM1V02099999999999999999N9999999N1-00371+99999102061REMSYN069CMAN  19234 CASM1 46/// ///// 11037 40206 92236 222// 0015555  91213;
0078997275999992012012000004+43650-070250FM-18+0010CASM1V02099999999999999999N9999999N1-00291+99999102011REMSYN069CMAN  20004 CASM1 46/// ///// 11029 40201 92336 222// 0004555  91215;
0078997275999992012012001004+43650-070250FM-18+0010CASM1V02099999999999999999N9999999N1-00221+99999101961REMSYN069CMAN  20014 CASM1 46/// ///// 11022 40196 90036 222// 0015 333 91209;
0102997275999992012012002004+43650-070250FM-18+0010CASM1V02099999999999999999N9999999N1-00151+99999101841REMSYN093CMAN  20024 CASM1 46/// ///// 11015 40184 90136 222// 0015 878// 333 84820 85628 87657 91114;
0078997275999992012012003004+43650-070250FM-18+0010CASM1V02099999999999999999N9999999N1-00051+99999101711REMSYN069CMAN  20034 CASM1 46/// ///// 11005 40171 90236 222// 0015555  91217;
0000997275999992012012004004+43650-070250FM-18+0010CASM1V02099999999999999999N9999999N1-00061+99999101631
0078997275999992012012005004+43650-070250FM-18+0010CASM1V02099999999999999999N9999999N1-00101+99999101511REMSYN069CMAN  20054 CASM1 46/// ///// 11010 40151 90436 222// 0015555  91214;
0078997275999992012012006004+43650-070250FM-18+0010CASM1V02099999999999999999N9999999N1-00061+99999101401REMSYN069CMAN  20064 CASM1 46/// ///// 11006 40140 90536 222// 0015555  91215;
0000997275999992012012007004+43650-070250FM-18+0010CASM1V02099999999999999999N9999999N1-00051+99999101361
0068997275999992012012008004+43650-070250FM-18+0010CASM1V02099999999999999999N9999999N1-00011+99999101261REMSYN059CMAN  20084 CASM1 46/// ///// 11001 40126 90736 222// 0015;
0078997275999992012012009004+43650-070250FM-18+0010CASM1V02099999999999999999N9999999N1-00411+99999101211REMSYN069CMAN  20094 CASM1 46/// ///// 11041 40121 90836 222// 0015555  91214;
0094997275999992012012010004+43650-070250FM-18+0010CASM1V02099999999999999999N9999999N1-00551+99999101211REMSYN085CMAN  20104 CASM1 46/// ///// 11055 40121 90936 222// 0015 333 82709 87617 555 6//82;
0000997275999992012012011004+43650-070250FM-18+0010CASM1V02099999999999999999N9999999N1-00661+99999101251
0096997275999992012012012004+43650-070250FM-18+0010CASM1V02099999999999999999N9999999N1-00731+99999101331REMSYN087CMAN  20124 CASM1 46/// ///// 11073 40133 91136 222// 0015 57005 91100 555 11065 22066;
0068997275999992012012013004+43650-070250FM-18+0010CASM1V02099999999999999999N9999999N1-00741+99999101421REMSYN059CMAN  20134 CASM1 46/// ///// 11074 40142 91236 222// 0015;
0000997275999992012012014004+43650-070250FM-18+0010CASM1V02099999999999999999N9999999N1-00661+99999101501
0078997275999992012012015004+43650-070250FM-18+0010CASM1V02099999999999999999N9999999N1-00561+99999101551REMSYN069CMAN  20154 CASM1 46/// ///// 11056 40155 91436 222// 0015 333 91212;
0078997275999992012012016004+43650-070250FM-18+0010CASM1V02099999999999999999N9999999N1-00431+99999101541REMSYN069CMAN  20164 CASM1 46/// ///// 11043 40154 91536 222// 0015555  91212;
0078997275999992012012017004+43650-070250FM-18+0010CASM1V02099999999999999999N9999999N1-00251+99999101561REMSYN069CMAN  20174 CASM1 46/// ///// 11025 40156 91636 222// 0015555  91213;
0078997275999992012012018004+43650-070250FM-18+0010CASM1V02099999999999999999N9999999N1-00101+99999101571REMSYN069CMAN  20184 CASM1 46/// ///// 11010 40157 91736 222// 0015555  91211;
0078997275999992012012019004+43650-070250FM-18+0010CASM1V02099999999999999999N9999999N1-00241+99999101611REMSYN069CMAN  20194 CASM1 46/// ///// 11024 40161 91836 222// 0015555  91216;
0078997275999992012012020004+43650-070250FM-18+0010CASM1V02099999999999999999N9999999N1-00271+99999101751REMSYN069CMAN  20204 CASM1 46/// ///// 11027 40175 91936 222// 0004555  91211;
0078997275999992012012021004+43650-070250FM-18+0010CASM1V02099999999999999999N9999999N1-00271+99999101881REMSYN069CMAN  20214 CASM1 46/// ///// 11027 40188 92036 222// 0016555  91219;
0079997275999992012012022004+43650-070250FM-18+0010CASM1V02099999999999999999N9999999N1-00361+99999101991REMSYN070CMAN  20224 CASM1 46/// ///// 11036 40199 92136 222// 001655 TIDE1162;
0078997275999992012012023004+43650-070250FM-18+0010CASM1V02099999999999999999N9999999N1-00411+99999102091REMSYN069CMAN  20234 CASM1 46/// ///// 11041 40209 92236 222// 0016555  91217;
0078997275999992012012100004+43650-070250FM-18+0010CASM1V02099999999999999999N9999999N1-00501+99999102221REMSYN069CMAN  21004 CASM1 46/// ///// 11050 40222 92336 222// 0016555  91216;
0078997275999992012012101004+43650-070250FM-18+0010CASM1V02099999999999999999N9999999N1-00631+99999102331REMSYN069CMAN  21014 CASM1 46/// ///// 11063 40233 90036 222// 0016555  91219;
0078997275999992012012102004+43650-070250FM-18+0010CASM1V02099999999999999999N9999999N1-00651+99999102401REMSYN069CMAN  21024 CASM1 46/// ///// 11065 40240 90136 222// 0016555  91219;
0078997275999992012012103004+43650-070250FM-18+0010CASM1V02099999999999999999N9999999N1-00741+99999102441REMSYN069CMAN  21034 CASM1 46/// ///// 11074 40244 90236 222// 0016 333 91215;
0000997275999992012012104004+43650-070250FM-18+0010CASM1V02099999999999999999N9999999N1-00801+99999102461
0078997275999992012012105004+43650-070250FM-18+0010CASM1V02099999999999999999N9999999N1-00881+99999102471REMSYN069CMAN  21054 CASM1 46/// ///// 11088 40247 90436 222// 0016555  91225;
0078997275999992012012106004+43650-070250FM-18+0010CASM1V02099999999999999999N9999999N1-00941+99999102511REMSYN069CMAN  21064 CASM1 46/// ///// 11094 40251 90542 222// 001891219 555 ;
0085997275999992012012107004+43650-070250FM-18+0010CASM1V02099999999999999999N9999999N1-00931+99999102511REMSYN076CMAN  21074 CASM1 46/// ///// 11093 40251 90636 222// 001691209 55 TIDE1202;
0078997275999992012012108004+43650-070250FM-18+0010CASM1V02099999999999999999N9999999N1-00961+99999102491REMSYN069CMAN  21084 CASM1 46/// ///// 11096 40249 90736 222// 0016555  91220;
0000997275999992012012109004+43650-070250FM-18+0010CASM1V02099999999999999999N9999999N1-00971+99999102461
0078997275999992012012110004+43650-070250FM-18+0010CASM1V02099999999999999999N9999999N1-01031+99999102501REMSYN069CMAN  21104 CASM1 46/// ///// 11103 40250 90936 222// 0016555  91210;
0078997275999992012012111004+43650-070250FM-18+0010CASM1V02099999999999999999N9999999N1-01051+99999102491REMSYN069CMAN  21114 CASM1 46/// ///// 11105 40249 91036 222// 0016555  91215;
0078997275999992012012112004+43650-070250FM-18+0010CASM1V02099999999999999999N9999999N1-01041+99999102391REMSYN069CMAN  21124 CASM1 46/// ///// 11104 40239 91136 222// 0016555  91213;
0078997275999992012012113004+43650-070250FM-18+0010CASM1V02099999999999999999N9999999N1-01051+99999102441REMSYN069CMAN  21134 CASM1 46/// ///// 11105 40244 91236 222// 0016555  91212;
0078997275999992012012114004+43650-070250FM-18+0010CASM1V02099999999999999999N9999999N1-01051+99999102521REMSYN069CMAN  21144 CASM1 46/// ///// 11105 40252 91336 222// 0016555  91213;
0078997275999992012012115004+43650-070250FM-18+0010CASM1V02099999999999999999N9999999N1-01111+99999102511REMSYN069CMAN  21154 CASM1 46/// ///// 11111 40251 91436 222// 0016555  91212;
0078997275999992012012116004+43650-070250FM-18+0010CASM1V02099999999999999999N9999999N1-01101+99999102411REMSYN069CMAN  21164 CASM1 46/// ///// 11110 40241 91536 222// 0016 333 91215;
0078997275999992012012117004+43650-070250FM-18+0010CASM1V02099999999999999999N9999999N1-01081+99999102311REMSYN069CMAN  21174 CASM1 46/// ///// 11108 40231 91636 222// 001791227 555 ;
0000997275999992012012118004+43650-070250FM-18+0010CASM1V02099999999999999999N9999999N1-01021+99999102251
0078997275999992012012119004+43650-070250FM-18+0010CASM1V02099999999999999999N9999999N1-00981+99999102241REMSYN069CMAN  21194 CASM1 46/// ///// 11098 40224 91836 222// 0004 333 91223;
0075997275999992012012120004+43650-070250FM-18+0010CASM1V02099999999999999999N9999999N1-00931+99999102241REMSYN066CMAN  21204 CASM1 46/// ///// 11093 40224 91936 222// 0017555 150;
0068997275999992012012121004+43650-070250FM-18+0010CASM1V02099999999999999999N9999999N1-00921+99999102291REMSYN059CMAN  21214 CASM1 46/// ///// 11092 40229 92036 222// 0016;
0099997275999992012012122004+43650-070250FM-18+0010CASM1V02099999999999999999N9999999N1-00931+99999102311REMSYN090CMAN  21224 CASM1 46/// ///// 11093 40231 92136 222// 0016555 310 20906 325// 41308 70050;
0068997275999992012012123004+43650-070250FM-18+0010CASM1V02099999999999999999N9999999N1-00951+99999102361REMSYN059CMAN  21234 CASM1 46/// ///// 11095 40236 92236 222// 0016;
0068997275999992012012200004+43650-070250FM-18+0010CASM1V02099999999999999999N9999999N1-00961+99999102441REMSYN059CMAN  22004 CASM1 46/// ///// 11096 40244 92336 222// 0016;
0078997275999992012012201004+43650-070250FM-18+0010CASM1V02099999999999999999N9999999N1-00971+99999102551REMSYN069CMAN  22014 CASM1 46/// ///// 11097 40255 90036 222// 0016 333 91205;
0078997275999992012012202004+43650-070250FM-18+0010CASM1V02099999999999999999N9999999N1-01011+99999102601REMSYN069CMAN  22024 CASM1 46/// ///// 11101 40260 90136 222// 0017555  91212;
0078997275999992012012203004+43650-070250FM-18+0010CASM1V02099999999999999999N9999999N1-01031+99999102681REMSYN069CMAN  22034 CASM1 46/// ///// 11103 40268 90236 222// 0016555  91203;
0078997275999992012012204004+43650-070250FM-18+0010CASM1V02099999999999999999N9999999N1-01051+99999102761REMSYN069CMAN  22044 CASM1 46/// ///// 11105 40276 90336 222// 0016 333 91214;
0000997275999992012012205004+43650-070250FM-18+0010CASM1V02099999999999999999N9999999N1-01091+99999102801
0078997275999992012012206004+43650-070250FM-18+0010CASM1V02099999999999999999N9999999N1-01101+99999102851REMSYN069CMAN  22064 CASM1 46/// ///// 11110 40285 90536 222// 0016555  91204;
0075997275999992012012207004+43650-070250FM-18+0010CASM1V02099999999999999999N9999999N1-01091+99999102961REMSYN066CMAN  22074 CASM1 46/// ///// 11109 40296 90636 222// 0016IDE1185;
0078997275999992012012208004+43650-070250FM-18+0010CASM1V02099999999999999999N9999999N1-01201+99999103031REMSYN069CMAN  22084 CASM1 46/// ///// 11120 40303 90736 222// 0016555  91209;
0078997275999992012012209004+43650-070250FM-18+0010CASM1V02099999999999999999N9999999N1-01151+99999103101REMSYN069CMAN  22094 CASM1 46/// ///// 11115 40310 90836 222// 0016555  91210;
0085997275999992012012210004+43650-070250FM-18+0010CASM1V02099999999999999999N9999999N1-01241+99999103161REMSYN076CMAN  22104 CASM1 46/// ///// 11124 40316 90936 222// 00161205 555 TIDE1070;
0078997275999992012012211004+43650-070250FM-18+0010CASM1V02099999999999999999N9999999N1-01351+99999103261REMSYN069CMAN  22114 CASM1 46/// ///// 11135 40326 91036 222// 0016555  91208;
0078997275999992012012212004+43650-070250FM-18+0010CASM1V02099999999999999999N9999999N1-01281+99999103331REMSYN069CMAN  22124 CASM1 46/// ///// 11128 40333 91136 222// 0016555  91204;
0078997275999992012012213004+43650-070250FM-18+0010CASM1V02099999999999999999N9999999N1-01251+99999103451REMSYN069CMAN  22134 CASM1 46/// ///// 11125 40345 91236 222// 0016555  91210;
0068997275999992012012214004+43650-070250FM-18+0010CASM1V02099999999999999999N9999999N1-01221+99999103551REMSYN059CMAN  22144 CASM1 46/// ///// 11122 40355 91336 222// 0016;
0078997275999992012012215004+43650-070250FM-18+0010CASM1V02099999999999999999N9999999N1-00941+99999103631REMSYN069CMAN  22154 CASM1 46/// ///// 11094 40363 91436 222// 0003555  91212;
0000997275999992012012216004+43650-070250FM-18+0010CASM1V02099999999999999999N9999999N1-00791+99999103601
0078997275999992012012217004+43650-070250FM-18+0010CASM1V02099999999999999999N9999999N1-00711+99999103521REMSYN069CMAN  22174 CASM1 46/// ///// 11071 40352 91636 222// 0017 333 91209;
0068997275999992012012218004+43650-070250FM-18+0010CASM1V02099999999999999999N9999999N1-00621+99999103481REMSYN059CMAN  22184 CASM1 46/// ///// 11062 40348 91736 222// 0017;
0078997275999992012012219004+43650-070250FM-18+0010CASM1V02099999999999999999N9999999N1-00561+99999103461REMSYN069CMAN  22194 CASM1 46/// ///// 11056 40346 91836 222// 0017555  91208;
0000997275999992012012220004+43650-070250FM-18+0010CASM1V02099999999999999999N9999999N1-00521+99999103451
0000997275999992012012221004+43650-070250FM-18+0010CASM1V02099999999999999999N9999999N1-00491+99999103461
0000997275999992012012222004+43650-070250FM-18+0010CASM1V02099999999999999999N9999999N1-00531+99999103461
0078997275999992012012223004+43650-070250FM-18+0010CASM1V02099999999999999999N9999999N1-00541+99999103451REMSYN069CMAN  22234 CASM1 46/// ///// 11054 40345 92236 222// 0003555  91221;
0000997275999992012012300004+43650-070250FM-18+0010CASM1V02099999999999999999N9999999N1-00521+99999103461
0078997275999992012012301004+43650-070250FM-18+0010CASM1V02099999999999999999N9999999N1-00551+99999103461REMSYN069CMAN  23014 CASM1 46/// ///// 11055 40346 90036 222// 0017555  91221;
0078997275999992012012302004+43650-070250FM-18+0010CASM1V02099999999999999999N9999999N1-00551+99999103491REMSYN069CMAN  23024 CASM1 46/// ///// 11055 40349 90136 222// 0003555  91222;
0000997275999992012012303004+43650-070250FM-18+0010CASM1V02099999999999999999N9999999N1-00521+99999103441
0000997275999992012012304004+43650-070250FM-18+0010CASM1V02099999999999999999N9999999N1-00531+99999103411
0068997275999992012012305004+43650-070250FM-18+0010CASM1V02099999999999999999N9999999N1-00421+99999103391REMSYN059CMAN  23054 CASM1 46/// ///// 11042 40339 90436 222// 0017;
0078997275999992012012306004+43650-070250FM-18+0010CASM1V02099999999999999999N9999999N1-00411+99999103311REMSYN069CMAN  23064 CASM1 46/// ///// 11041 40331 90536 222// 0017555  91221;
0078997275999992012012307004+43650-070250FM-18+0010CASM1V02099999999999999999N9999999N1-00371+99999103301REMSYN069CMAN  23074 CASM1 46/// ///// 11037 40330 90636 222// 0003555  91222;
0078997275999992012012308004+43650-070250FM-18+0010CASM1V02099999999999999999N9999999N1-00361+99999103241REMSYN069CMAN  23084 CASM1 46/// ///// 11036 40324 90736 222// 0017555  91222;
0078997275999992012012309004+43650-070250FM-18+0010CASM1V02099999999999999999N9999999N1-00331+99999103171REMSYN069CMAN  23094 CASM1 46/// ///// 11033 40317 90836 222// 0017555  91222;
0078997275999992012012310004+43650-070250FM-18+0010CASM1V02099999999999999999N9999999N1-00321+99999103051REMSYN069CMAN  23104 CASM1 46/// ///// 11032 40305 90936 222// 0017555  91222;
0074997275999992012012311004+43650-070250FM-18+0010CASM1V02099999999999999999N9999999N1-00291+99999103011REMSYN065CMAN  23114 CASM1 46/// ///// 11029 40301 91036 222// 0017555 20;
0078997275999992012012312004+43650-070250FM-18+0010CASM1V02099999999999999999N9999999N1-00181+99999102921REMSYN069CMAN  23124 CASM1 46/// ///// 11018 40292 91136 222// 0017555  91219;
0078997275999992012012313004+43650-070250FM-18+0010CASM1V02099999999999999999N9999999N1-00101+99999102861REMSYN069CMAN  23134 CASM1 46/// ///// 11010 40286 91236 222// 0017555  91217;
0078997275999992012012314004+43650-070250FM-18+0010CASM1V02099999999999999999N9999999N1-00021+99999102851REMSYN069CMAN  23144 CASM1 46/// ///// 11002 40285 91336 222// 0017555  91215;
0068997275999992012012315004+43650-070250FM-18+0010CASM1V02099999999999999999N9999999N1+00111+99999102751REMSYN059CMAN  23154 CASM1 46/// ///// 10011 40275 91436 222// 0017;
0126997275999992012012316004+43650-070250FM-18+0010CASM1V02099999999999999999N9999999N1+00331+99999102701REMSYN117CMAN  23164 CASM1 46/// ///// 10033 40270 91536 222// 0017 60011 72162 85271 333 10290 56000 57801 59009 85816 80860;
0068997275999992012012317004+43650-070250FM-18+0010CASM1V02099999999999999999N9999999N1+00371+99999102581REMSYN059CMAN  23174 CASM1 46/// ///// 10037 40258 91636 222// 0017;
0078997275999992012012318004+43650-070250FM-18+0010CASM1V02099999999999999999N9999999N1+00371+99999102521REMSYN069CMAN  23184 CASM1 46/// ///// 10037 40252 91736 222// 0018555  91211;
0099997275999992012012319004+43650-070250FM-18+0010CASM1V02099999999999999999N9999999N1+00411+99999102361REMSYN090CMAN  23194 CASM1 46/// ///// 10041 40236 91836 222// 00189 11309 21005 328// 41307 70046;
0068997275999992012012320004+43650-070250FM-18+0010CASM1V02099999999999999999N9999999N1+00461+99999102301REMSYN059CMAN  23204 CASM1 46/// ///// 10046 40230 91936 222// 0018;
0068997275999992012012321004+43650-070250FM-18+0010CASM1V02099999999999999999N9999999N1+00461+99999102251REMSYN059CMAN  23214 CASM1 46/// ///// 10046 40225 92036 222// 0018;
0078997275999992012012322004+43650-070250FM-18+0010CASM1V02099999999999999999N9999999N1+00271+99999102141REMSYN069CMAN  23224 CASM1 46/// ///// 10027 40214 92136 222// 0003555  91203;
0078997275999992012012323004+43650-070250FM-18+0010CASM1V02099999999999999999N9999999N1+00451+99999102061REMSYN069CMAN  23234 CASM1 46/// ///// 10045 40206 92236 222// 0017555  91205;
0078997275999992012012400004+43650-070250FM-18+0010CASM1V02099999999999999999N9999999N1+00481+99999101951REMSYN069CMAN  24004 CASM1 46/// ///// 10048 40195 92336 222// 0017555  91205;
0078997275999992012012401004+43650-070250FM-18+0010CASM1V02099999999999999999N9999999N1+00541+99999101821REMSYN069CMAN  24014 CASM1 46/// ///// 10054 40182 90036 222// 0017555  91203;
0078997275999992012012402004+43650-070250FM-18+0010CASM1V02099999999999999999N9999999N1+00671+99999101671REMSYN069CMAN  24024 CASM1 46/// ///// 10067 40167 90136 222// 0018555  91204;
0085997275999992012012403004+43650-070250FM-18+0010CASM1V02099999999999999999N9999999N1+00711+99999101461REMSYN076CMAN  24034 CASM1 46/// ///// 10071 40146 90236 222// 00181202 555 TIDE1172;
0000997275999992012012404004+43650-070250FM-18+0010CASM1V02099999999999999999N9999999N1+00731+99999101391
0073997275999992012012405004+43650-070250FM-18+0010CASM1V02099999999999999999N9999999N1+00751+99999101151REMSYN064CMAN  24054 CASM1 46/// ///// 10075 40115 90436 222// 001787080;
0078997275999992012012406004+43650-070250FM-18+0010CASM1V02099999999999999999N9999999N1+00831+99999101051REMSYN069CMAN  24064 CASM1 46/// ///// 10083 40105 90536 222// 0017555  91206;
0079997275999992012012407004+43650-070250FM-18+0010CASM1V02099999999999999999N9999999N1+00851+99999100941REMSYN070CMAN  24074 CASM1 46/// ///// 10085 40094 90636 222// 001755 TIDE1254;
0078997275999992012012408004+43650-070250FM-18+0010CASM1V02099999999999999999N9999999N1+00801+99999100921REMSYN069CMAN  24084 CASM1 46/// ///// 10080 40092 90736 222// 0017 333 91204;
0078997275999992012012409004+43650-070250FM-18+0010CASM1V02099999999999999999N9999999N1+00831+99999100911REMSYN069CMAN  24094 CASM1 46/// ///// 10083 40091 90836 222// 0017 333 91202;
0078997275999992012012410004+43650-070250FM-18+0010CASM1V02099999999999999999N9999999N1+00761+99999100951REMSYN069CMAN  24104 CASM1 46/// ///// 10076 40095 90936 222// 0017555  91202;
0078997275999992012012411004+43650-070250FM-18+0010CASM1V02099999999999999999N9999999N1+00681+99999100991REMSYN069CMAN  24114 CASM1 46/// ///// 10068 40099 91036 222// 0017 333 91202;
0068997275999992012012412004+43650-070250FM-18+0010CASM1V02099999999999999999N9999999N1+00461+99999100991REMSYN059CMAN  24124 CASM1 46/// ///// 10046 40099 91136 222// 0003;
0078997275999992012012413004+43650-070250FM-18+0010CASM1V02099999999999999999N9999999N1+00401+99999101031REMSYN069CMAN  24134 CASM1 46/// ///// 10040 40103 91236 222// 0017 333 91216;
0078997275999992012012414004+43650-070250FM-18+0010CASM1V02099999999999999999N9999999N1+00531+99999101071REMSYN069CMAN  24144 CASM1 46/// ///// 10053 40107 91336 222// 0017555  91205;
0085997275999992012012415004+43650-070250FM-18+0010CASM1V02099999999999999999N9999999N1+00571+99999101101REMSYN076CMAN  24154 CASM1 46/// ///// 10057 40110 91436 222// 00171206 555 TIDE1014;
0080997275999992012012416004+43650-070250FM-18+0010CASM1V02099999999999999999N9999999N1+00651+99999101111REMSYN071CMAN  24164 CASM1 46/// ///// 10065 40111 91536 222// 001791222 555 32;
0068997275999992012012417004+43650-070250FM-18+0010CASM1V02099999999999999999N9999999N1+00801+99999101051REMSYN059CMAN  24174 CASM1 46/// ///// 10080 40105 91636 222// 0017;
0068997275999992012012418004+43650-070250FM-18+0010CASM1V02099999999999999999N9999999N1+01121+99999101001REMSYN059CMAN  24184 CASM1 46/// ///// 10112 40100 91736 222// 0017;
0078997275999992012012419004+43650-070250FM-18+0010CASM1V02099999999999999999N9999999N1+01161+99999100981REMSYN069CMAN  24194 CASM1 46/// ///// 10116 40098 91836 222// 0017555  91204;
0072997275999992012012420004+43650-070250FM-18+0010CASM1V02099999999999999999N9999999N1+01151+99999101041REMSYN063CMAN  24204 CASM1 46/// ///// 10115 40104 91936 222// 00171217;
0078997275999992012012421004+43650-070250FM-18+0010CASM1V02099999999999999999N9999999N1+01061+99999101081REMSYN069CMAN  24214 CASM1 46/// ///// 10106 40108 92036 222// 0004555  91203;
0088997275999992012012422004+43650-070250FM-18+0010CASM1V02099999999999999999N9999999N1+00901+99999101191REMSYN079CMAN  24224 CASM1 46/// ///// 10090 40119 92136 222// 001762 40167 52026 22283;
0068997275999992012012423004+43650-070250FM-18+0010CASM1V02099999999999999999N9999999N1+00761+99999101301REMSYN059CMAN  24234 CASM1 46/// ///// 10076 40130 92236 222// 0017;
0095997275999992012012500004+43650-070250FM-18+0010CASM1V02099999999999999999N9999999N1+00671+99999101311REMSYN086CMAN  25004 CASM1 46/// ///// 10067 40131 92336 222// 001710099 20048 91008 555 91020;
0088997275999992012012501004+43650-070250FM-18+0010CASM1V02099999999999999999N9999999N1+00601+99999101351REMSYN079CMAN  25014 CASM1 46/// ///// 10060 40135 90036 222// 001764 40169 52002 22284;
0074997275999992012012502004+43650-070250FM-18+0010CASM1V02099999999999999999N9999999N1+00581+99999101401REMSYN065CMAN  25024 CASM1 46/// ///// 10058 40140 90136 222// 0017 90010;
