0096997275999992010010100004+43650-070250FM-18+0010CASM1V02099999999999999999N9999999N1+99999+99999999999REMSYN087CMAN  01004 CASM1 46/// ///// 1//// 92336 92336 222// 001291223 555 16 90000 333 60000;
0072997275999992010010101004+43650-070250FM-18+0010CASM1V02099999999999999999N9999999N1+99999+99999999999REMSYN063CMAN  01014 CASM1 46/// ///// 1//// 90036 90036 222// 00121210;
0000997275999992010010102004+43650-070250FM-18+0010CASM1V02099999999999999999N9999999N1+99999+99999999999
0000997275999992010010103004+43650-070250FM-18+0010CASM1V02099999999999999999N9999999N1+99999+99999999999
0078997275999992010010104004+43650-070250FM-18+0010CASM1V02099999999999999999N9999999N1+99999+99999999999REMSYN069CMAN  01044 CASM1 46/// ///// 1//// 90336 90336 222// 0012555  91203;
0078997275999992010010105004+43650-070250FM-18+0010CASM1V02099999999999999999N9999999N1+99999+99999999999REMSYN069CMAN  01054 CASM1 46/// ///// 1//// 90436 90436 222// 0012555  91202;
0000997275999992010010106004+43650-070250FM-18+0010CASM1V02099999999999999999N9999999N1+99999+99999999999
0078997275999992010010107004+43650-070250FM-18+0010CASM1V02099999999999999999N9999999N1+99999+99999999999REMSYN069CMAN  01074 CASM1 46/// ///// 1//// 90636 90636 222// 0011555  91205;
0078997275999992010010108004+43650-070250FM-18+0010CASM1V02099999999999999999N9999999N1+99999+99999999999REMSYN069CMAN  01084 CASM1 46/// ///// 1//// 90736 90736 222// 0011555  91204;
0102997275999992010010109004+43650-070250FM-18+0010CASM1V02099999999999999999N9999999N1+99999+99999999999REMSYN093CMAN  01094 CASM1 46/// ///// 1//// 90836 90836 222// 0011555 30 333 20075 31005 83826 84360;
0078997275999992010010110004+43650-070250FM-18+0010CASM1V02099999999999999999N9999999N1+99999+99999999999REMSYN069CMAN  01104 CASM1 46/// ///// 1//// 90936 90936 222// 0011555  91207;
0078997275999992010010111004+43650-070250FM-18+0010CASM1V02099999999999999999N9999999N1+99999+99999999999REMSYN069CMAN  01114 CASM1 46/// ///// 1//// 91036 91036 222// 0010555  91204;
0078997275999992010010112004+43650-070250FM-18+0010CASM1V02099999999999999999N9999999N1+99999+99999999999REMSYN069CMAN  01124 CASM1 46/// ///// 1//// 91136 91136 222// 0010555  91204;
0078997275999992010010113004+43650-070250FM-18+0010CASM1V02099999999999999999N9999999N1+99999+99999999999REMSYN069CMAN  01134 CASM1 46/// ///// 1//// 91236 91236 222// 0010555  91201;
0078997275999992010010114004+43650-070250FM-18+0010CASM1V02099999999999999999N9999999N1+99999+99999999999REMSYN069CMAN  01144 CASM1 46/// ///// 1//// 91336 91336 222// 0009555  91203;
0000997275999992010010115004+43650-070250FM-18+0010CASM1V02099999999999999999N9999999N1+99999+99999999999
0078997275999992010010116004+43650-070250FM-18+0010CASM1V02099999999999999999N9999999N1+99999+99999999999REMSYN069CMAN  01164 CASM1 46/// ///// 1//// 91536 91530 333 91224 555  91205;
0078997275999992010010117004+43650-070250FM-18+0010CASM1V02099999999999999999N9999999N1+99999+99999999999REMSYN069CMAN  01174 CASM1 46/// ///// 1//// 91636 91636 222// 0010 333 91231;
0099997275999992010010118004+43650-070250FM-18+0010CASM1V02099999999999999999N9999999N1+99999+99999999999REMSYN090CMAN  01184 CASM1 46/// ///// 1//// 91736 91736 222// 0010555 007 21006 324// 41102 70034;
0072997275999992010010119004+43650-070250FM-18+0010CASM1V02099999999999999999N9999999N1+99999+99999999999REMSYN063CMAN  01194 CASM1 46/// ///// 1//// 91836 91836 222// 0010555 ;
0078997275999992010010120004+43650-070250FM-18+0010CASM1V02099999999999999999N9999999N1+99999+99999999999REMSYN069CMAN  01204 CASM1 46/// ///// 1//// 91936 91936 222// 0010555  91203;
0062997275999992010010121004+43650-070250FM-18+0010CASM1V02099999999999999999N9999999N1+99999+99999999999REMSYN053CMAN 01214 CASM1 46/// ///// 1//// 92042 222// 00037;
0078997275999992010010122004+43650-070250FM-18+0010CASM1V02099999999999999999N9999999N1+99999+99999999999REMSYN069CMAN  01224 CASM1 46/// ///// 1//// 92136 92136 222// 0010555  91208;
0097997275999992010010123004+43650-070250FM-18+0010CASM1V02099999999999999999N9999999N1+99999+99999999999REMSYN088CMAN  01234 CASM1 46/// ///// 1//// 92236 92236 222// 001255300 20000 30000 91114 96049;
0072997275999992010010200004+43650-070250FM-18+0010CASM1V02099999999999999999N9999999N1+99999+99999999999REMSYN063CMAN  02004 CASM1 46/// ///// 1//// 92336 92336 222// 0012555 ;
0149997275999992010010201004+43650-070250FM-18+0010CASM1V02099999999999999999N9999999N1+99999+99999999999REMSYN140CMAN  02014 CASM1 46/// ///// 1//// 90042 53022 90100 333 91220 555 11016 22017 30033 420034 60059 200015 206018 206023 197022 19005 296005;
0078997275999992010010202004+43650-070250FM-18+0010CASM1V02099999999999999999N9999999N1+99999+99999999999REMSYN069CMAN  02024 CASM1 46/// ///// 1//// 90136 90136 222// 0012 333 91201;
0078997275999992010010203004+43650-070250FM-18+0010CASM1V02099999999999999999N9999999N1+99999+99999999999REMSYN069CMAN  02034 CASM1 46/// ///// 1//// 90236 90236 222// 0012 333 91221;
0078997275999992010010204004+43650-070250FM-18+0010CASM1V02099999999999999999N9999999N1+99999+99999999999REMSYN069CMAN  02044 CASM1 46/// ///// 1//// 90336 90336 222// 0012 333 91204;
0078997275999992010010205004+43650-070250FM-18+0010CASM1V02099999999999999999N9999999N1+99999+99999999999REMSYN069CMAN  02054 CASM1 46/// ///// 1//// 90436 90436 222// 0012555  91202;
0073997275999992010010206004+43650-070250FM-18+0010CASM1V02099999999999999999N9999999N1+99999+99999999999REMSYN064CMAN  02064 CASM1 46/// ///// 1//// 90536 90536 222// 0012555 0;
0000997275999992010010207004+43650-070250FM-18+0010CASM1V02099999999999999999N9999999N1+99999+99999999999
0084997275999992010010208004+43650-070250FM-18+0010CASM1V02099999999999999999N9999999N1+99999+99999999999REMSYN075CMAN  02084 CASM1 46/// ///// 1//// 90748 55000 90800 222// 0003 333 91203;
0157997275999992010010209004+43650-070250FM-18+0010CASM1V02099999999999999999N9999999N1+99999+99999999999REMSYN148CMAN  02094 CASM1 46/// ///// 1//// 90836 51011 90900 333 91212 555 11008 22008 30854 418017 60859 181010 178009 176008 179009 18 96471 96470 96478;
0000997275999992010010210004+43650-070250FM-18+0010CASM1V02099999999999999999N9999999N1+99999+99999999999
0096997275999992010010211004+43650-070250FM-18+0010CASM1V02099999999999999999N9999999N1+99999+99999999999REMSYN087CMAN  02114 CASM1 46/// ///// 1//// 91036 91036 222// 0011 29078 38431 91009 333 60000;
0110997275999992010010212004+43650-070250FM-18+0010CASM1V02099999999999999999N9999999N1+99999+99999999999REMSYN101CMAN  02124 CASM1 46/// ///// 1//// 91136 91136 222// 0011555 00 00140 11204 21003 328// 41203 70020;
0078997275999992010010213004+43650-070250FM-18+0010CASM1V02099999999999999999N9999999N1+99999+99999999999REMSYN069CMAN  02134 CASM1 46/// ///// 1//// 91236 91236 222// 0011555  91205;
0078997275999992010010214004+43650-070250FM-18+0010CASM1V02099999999999999999N9999999N1+99999+99999999999REMSYN069CMAN  02144 CASM1 46/// ///// 1//// 91336 91336 222// 0011555  91201;
0078997275999992010010215004+43650-070250FM-18+0010CASM1V02099999999999999999N9999999N1+99999+99999999999REMSYN069CMAN  02154 CASM1 46/// ///// 1//// 91436 91436 222// 0010555  91203;
0000997275999992010010216004+43650-070250FM-18+0010CASM1V02099999999999999999N9999999N1+99999+99999999999
0082997275999992010010217004+43650-070250FM-18+0010CASM1V02099999999999999999N9999999N1+99999+99999999999REMSYN073CMAN  02174 CASM1 46/// ///// 1//// 91636 91636 222// 001055 11015 22016;
0100997275999992010010218004+43650-070250FM-18+0010CASM1V02099999999999999999N9999999N1+99999+99999999999REMSYN091CMAN  02184 CASM1 46/// ///// 1//// 91736 91736 222// 0010555 3 10294 20226 59027 81821/3D;
0085997275999992010010219004+43650-070250FM-18+0010CASM1V02099999999999999999N9999999N1+99999+99999999999REMSYN076CMAN  02194 CASM1 46/// ///// 1//// 91836 91836 222// 0010555 0 59022 84610;
0078997275999992010010220004+43650-070250FM-18+0010CASM1V02099999999999999999N9999999N1+99999+99999999999REMSYN069CMAN  02204 CASM1 46/// ///// 1//// 91936 91936 222// 0010555  91205;
0000997275999992010010221004+43650-070250FM-18+0010CASM1V02099999999999999999N9999999N1+99999+99999999999
0080997275999992010010222004+43650-070250FM-18+0010CASM1V02099999999999999999N9999999N1+99999+99999999999REMSYN071CMAN  02224 CASM1 46/// ///// 1//// 92136 92136 222// 0011555 20 00019;
0185997275999992010010223004+43650-070250FM-18+0010CASM1V02099999999999999999N9999999N1+99999+99999999999REMSYN176CMAN  02234 CASM1 46/// ///// 1//// 92242 56008 92300 333 91203 555 11002 22002 32253 414005 62259 126002 140001 146001 127002 122249 307162 315165 307164 311167 312165 309168;
0084997275999992010010300004+43650-070250FM-18+0010CASM1V02099999999999999999N9999999N1+99999+99999999999REMSYN075CMAN  03004 CASM1 46/// ///// 1//// 92348 51011 90000 222// 0003 333 91203;
0000997275999992010010301004+43650-070250FM-18+0010CASM1V02099999999999999999N9999999N1+99999+99999999999
0078997275999992010010302004+43650-070250FM-18+0010CASM1V02099999999999999999N9999999N1+99999+99999999999REMSYN069CMAN  03024 CASM1 46/// ///// 1//// 90136 90136 222// 0011555  91203;
0090997275999992010010303004+43650-070250FM-18+0010CASM1V02099999999999999999N9999999N1+99999+99999999999REMSYN081CMAN  03034 CASM1 46/// ///// 1//// 90236 90236 222// 0011555 01 333 91113 91210;
0078997275999992010010304004+43650-070250FM-18+0010CASM1V02099999999999999999N9999999N1+99999+99999999999REMSYN069CMAN  03044 CASM1 46/// ///// 1//// 90336 90336 222// 0011555  91202;
0078997275999992010010305004+43650-070250FM-18+0010CASM1V02099999999999999999N9999999N1+99999+99999999999REMSYN069CMAN  03054 CASM1 46/// ///// 1//// 90436 90436 222// 0011555  91202;
0078997275999992010010306004+43650-070250FM-18+0010CASM1V02099999999999999999N9999999N1+99999+99999999999REMSYN069CMAN  03064 CASM1 46/// ///// 1//// 90536 90536 222// 0011555  91205;
0078997275999992010010307004+43650-070250FM-18+0010CASM1V02099999999999999999N9999999N1+99999+99999999999REMSYN069CMAN  03074 CASM1 46/// ///// 1//// 90636 90636 222// 0011555  91204;
0000997275999992010010308004+43650-070250FM-18+0010CASM1V02099999999999999999N9999999N1+99999+99999999999
0084997275999992010010309004+43650-070250FM-18+0010CASM1V02099999999999999999N9999999N1+99999+99999999999REMSYN075CMAN  03094 CASM1 46/// ///// 1//// 90854 58010 90900 222// 0002 333 91204;
0078997275999992010010310004+43650-070250FM-18+0010CASM1V02099999999999999999N9999999N1+99999+99999999999REMSYN069CMAN  03104 CASM1 46/// ///// 1//// 90936 90936 222// 0011555  91208;
0072997275999992010010311004+43650-070250FM-18+0010CASM1V02099999999999999999N9999999N1+99999+99999999999REMSYN063CMAN  03114 CASM1 46/// ///// 1//// 91036 91036 222// 0011555 ;
0078997275999992010010312004+43650-070250FM-18+0010CASM1V02099999999999999999N9999999N1+99999+99999999999REMSYN069CMAN  03124 CASM1 46/// ///// 1//// 91136 91136 222// 0002555  91205;
0078997275999992010010313004+43650-070250FM-18+0010CASM1V02099999999999999999N9999999N1+99999+99999999999REMSYN069CMAN  03134 CASM1 46/// ///// 1//// 91236 91236 222// 0011555  91203;
0150997275999992010010314004+43650-070250FM-18+0010CASM1V02099999999999999999N9999999N1+99999+99999999999REMSYN141CMAN  03144 CASM1 46/// ///// 1//// 91336 91336 222// 0011 40100 51020 70222 85131 22223 00270 20502 308// 40502 50502 6//// 80230 ICE /////;
0000997275999992010010315004+43650-070250FM-18+0010CASM1V02099999999999999999N9999999N1+99999+99999999999
0152997275999992010010316004+43650-070250FM-18+0010CASM1V02099999999999999999N9999999N1+99999+99999999999REMSYN143CMAN  03164 CASM1 46/// ///// 1//// 91536 91536 222// 0010// 40185 51005 70022 86701 22263 0//// 20203 331// 41210 5//// 6//// 8//// ICE /////;
0078997275999992010010317004+43650-070250FM-18+0010CASM1V02099999999999999999N9999999N1+99999+99999999999REMSYN069CMAN  03174 CASM1 46/// ///// 1//// 91636 91636 222// 0010555  91203;
0089997275999992010010318004+43650-070250FM-18+0010CASM1V02099999999999999999N9999999N1+99999+99999999999REMSYN080CMAN  03184 CASM1 46/// ///// 1//// 91736 91736 222// 001056199 70003 555 90318;
0078997275999992010010319004+43650-070250FM-18+0010CASM1V02099999999999999999N9999999N1+99999+99999999999REMSYN069CMAN  03194 CASM1 46/// ///// 1//// 91836 91836 333 91229 555  91203;
0076997275999992010010320004+43650-070250FM-18+0010CASM1V02099999999999999999N9999999N1+99999+99999999999REMSYN067CMAN  03204 CASM1 46/// ///// 1//// 91936 91936 222// 000944 57005;
0150997275999992010010321004+43650-070250FM-18+0010CASM1V02099999999999999999N9999999N1+99999+99999999999REMSYN141CMAN  03214 CASM1 46/// ///// 1//// 92036 92036 222// 0009555 90 54/// 70322 889// 2225/ 00080 20502 31212 40502 50502 6//// 80030 ICE /////;
0000997275999992010010322004+43650-070250FM-18+0010CASM1V02099999999999999999N9999999N1+99999+99999999999
0072997275999992010010323004+43650-070250FM-18+0010CASM1V02099999999999999999N9999999N1+99999+99999999999REMSYN063CMAN  03234 CASM1 46/// ///// 1//// 92236 92236 222// 0009555 ;
0078997275999992010010400004+43650-070250FM-18+0010CASM1V02099999999999999999N9999999N1+99999+99999999999REMSYN069CMAN  04004 CASM1 46/// ///// 1//// 92336 92336 222// 0010555  91203;
0114997275999992010010401004+43650-070250FM-18+0010CASM1V02099999999999999999N9999999N1+99999+99999999999REMSYN105CMAN  04014 CASM1 46/// ///// 1//// 90036 90036 222// 0002555 01 875// 333 46997 55300 81610 86635 87657;
0078997275999992010010402004+43650-070250FM-18+0010CASM1V02099999999999999999N9999999N1+99999+99999999999REMSYN069CMAN  04024 CASM1 46/// ///// 1//// 90136 90136 222// 0011555  91208;
0078997275999992010010403004+43650-070250FM-18+0010CASM1V02099999999999999999N9999999N1+99999+99999999999REMSYN069CMAN  04034 CASM1 46/// ///// 1//// 90236 90236 222// 0002555  91203;
0078997275999992010010404004+43650-070250FM-18+0010CASM1V02099999999999999999N9999999N1+99999+99999999999REMSYN069CMAN  04044 CASM1 46/// ///// 1//// 90336 90336 333 91231 555  91202;
0078997275999992010010405004+43650-070250FM-18+0010CASM1V02099999999999999999N9999999N1+99999+99999999999REMSYN069CMAN  04054 CASM1 46/// ///// 1//// 90436 90436 222// 0002555  91202;
0078997275999992010010406004+43650-070250FM-18+0010CASM1V02099999999999999999N9999999N1+99999+99999999999REMSYN069CMAN  04064 CASM1 46/// ///// 1//// 90536 90536 222// 0011 333 91202;
0078997275999992010010407004+43650-070250FM-18+0010CASM1V02099999999999999999N9999999N1+99999+99999999999REMSYN069CMAN  04074 CASM1 46/// ///// 1//// 90636 90630 333 91231 555  91206;
0000997275999992010010408004+43650-070250FM-18+0010CASM1V02099999999999999999N9999999N1+99999+99999999999
0078997275999992010010409004+43650-070250FM-18+0010CASM1V02099999999999999999N9999999N1+99999+99999999999REMSYN069CMAN  04094 CASM1 46/// ///// 1//// 90836 90836 222// 0010 333 91209;
0000997275999992010010410004+43650-070250FM-18+0010CASM1V02099999999999999999N9999999N1+99999+99999999999
0000997275999992010010411004+43650-070250FM-18+0010CASM1V02099999999999999999N9999999N1+99999+99999999999
0096997275999992010010412004+43650-070250FM-18+0010CASM1V02099999999999999999N9999999N1+99999+99999999999REMSYN087CMAN  04124 CASM1 46/// ///// 1//// 91136 91136 222// 0009555 73 8353/ 333 00941 92952;
0078997275999992010010413004+43650-070250FM-18+0010CASM1V02099999999999999999N9999999N1+99999+99999999999REMSYN069CMAN  04134 CASM1 46/// ///// 1//// 91236 91236 222// 0002555  91202;
0078997275999992010010414004+43650-070250FM-18+0010CASM1V02099999999999999999N9999999N1+99999+99999999999REMSYN069CMAN  04144 CASM1 46/// ///// 1//// 91336 91336 222// 0003555  91204;
0000997275999992010010415004+43650-070250FM-18+0010CASM1V02099999999999999999N9999999N1+99999+99999999999
0000997275999992010010416004+43650-070250FM-18+0010CASM1V02099999999999999999N9999999N1+99999+99999999999
0078997275999992010010417004+43650-070250FM-18+0010CASM1V02099999999999999999N9999999N1+99999+99999999999REMSYN069CMAN  04174 CASM1 46/// ///// 1//// 91636 91636 222// 0009555  91209;
0203997275999992010010418004+43650-070250FM-18+0010CASM1V02099999999999999999N9999999N1+99999+99999999999REMSYN194CMAN  04184 CASM1 46/// ///// 1//// 91736 91736 222// 00096 91750 22200 00244 11005 20604 332// 41003 70025 333 91213 555 11117 22124 31718 42114 61749 218108 215101 216106 217105 216103 216101;
0083997275999992010010419004+43650-070250FM-18+0010CASM1V02099999999999999999N9999999N1+99999+99999999999REMSYN074CMAN  04194 CASM1 46/// ///// 1//// 91836 91836 222// 0002035 22212 04082;
0090997275999992010010420004+43650-070250FM-18+0010CASM1V02099999999999999999N9999999N1+99999+99999999999REMSYN081CMAN  04204 CASM1 46/// ///// 1//// 91936 91936 222// 0002555 42 876// 333 87702;
0000997275999992010010421004+43650-070250FM-18+0010CASM1V02099999999999999999N9999999N1+99999+99999999999
0099997275999992010010422004+43650-070250FM-18+0010CASM1V02099999999999999999N9999999N1+99999+99999999999REMSYN090CMAN  04224 CASM1 46/// ///// 1//// 92136 92136 222// 0002555 805 20805 326// 41701 70026;
0078997275999992010010423004+43650-070250FM-18+0010CASM1V02099999999999999999N9999999N1+99999+99999999999REMSYN069CMAN  04234 CASM1 46/// ///// 1//// 92236 92236 333 91231 555  91205;
0078997275999992010010500004+43650-070250FM-18+0010CASM1V02099999999999999999N9999999N1+99999+99999999999REMSYN069CMAN  05004 CASM1 46/// ///// 1//// 92336 92336 333 91231 555  91204;
0078997275999992010010501004+43650-070250FM-18+0010CASM1V02099999999999999999N9999999N1+99999+99999999999REMSYN069CMAN  05014 CASM1 46/// ///// 1//// 90036 90036 222// 0002 333 91203;
0078997275999992010010502004+43650-070250FM-18+0010CASM1V02099999999999999999N9999999N1+99999+99999999999REMSYN069CMAN  05024 CASM1 46/// ///// 1//// 90136 90136 333 91232 555  91203;
0078997275999992010010503004+43650-070250FM-18+0010CASM1V02099999999999999999N9999999N1+99999+99999999999REMSYN069CMAN  05034 CASM1 46/// ///// 1//// 90236 90236 222// 0002555  91202;
0078997275999992010010504004+43650-070250FM-18+0010CASM1V02099999999999999999N9999999N1+99999+99999999999REMSYN069CMAN  05044 CASM1 46/// ///// 1//// 90336 90336 222// 0002555  91201;
0078997275999992010010505004+43650-070250FM-18+0010CASM1V02099999999999999999N9999999N1+99999+99999999999REMSYN069CMAN  05054 CASM1 46/// ///// 1//// 90436 90436 222// 0002555  91205;
0078997275999992010010506004+43650-070250FM-18+0010CASM1V02099999999999999999N9999999N1+99999+99999999999REMSYN069CMAN  05064 CASM1 46/// ///// 1//// 90536 90536 222// 0002 333 91201;
0101997275999992010010507004+43650-070250FM-18+0010CASM1V02099999999999999999N9999999N1+99999+99999999999REMSYN092CMAN  05074 CASM1 46/// ///// 1//// 90636 90636 222// 000211285 21350 70000 555 32519 40081;
0000997275999992010010508004+43650-070250FM-18+0010CASM1V02099999999999999999N9999999N1+99999+99999999999
0078997275999992010010509004+43650-070250FM-18+0010CASM1V02099999999999999999N9999999N1+99999+99999999999REMSYN069CMAN  05094 CASM1 46/// ///// 1//// 90836 90836 222// 0002555  91201;
0082997275999992010010510004+43650-070250FM-18+0010CASM1V02099999999999999999N9999999N1+99999+99999999999REMSYN073CMAN  05104 CASM1 46/// ///// 1//// 90936 90936 33 91221 555 11017 22018;
0078997275999992010010511004+43650-070250FM-18+0010CASM1V02099999999999999999N9999999N1+99999+99999999999REMSYN069CMAN  05114 CASM1 46/// ///// 1//// 91036 91036 333 91222 555  91207;
0078997275999992010010512004+43650-070250FM-18+0010CASM1V02099999999999999999N9999999N1+99999+99999999999REMSYN069CMAN  05124 CASM1 46/// ///// 1//// 91136 91136 333 91225 555  91202;
0078997275999992010010513004+43650-070250FM-18+0010CASM1V02099999999999999999N9999999N1+99999+99999999999REMSYN069CMAN  05134 CASM1 46/// ///// 1//// 91236 91236 333 91224 555  91204;
0078997275999992010010514004+43650-070250FM-18+0010CASM1V02099999999999999999N9999999N1+99999+99999999999REMSYN069CMAN  05144 CASM1 46/// ///// 1//// 91336 91330 333 91226 555  91204;
0072997275999992010010515004+43650-070250FM-18+0010CASM1V02099999999999999999N9999999N1+99999+99999999999REMSYN063CMAN  05154 CASM1 46/// ///// 1//// 91436 91436 222// 0001555 ;
0000997275999992010010516004+43650-070250FM-18+0010CASM1V02099999999999999999N9999999N1+99999+99999999999
0078997275999992010010517004+43650-070250FM-18+0010CASM1V02099999999999999999N9999999N1+99999+99999999999REMSYN069CMAN  05174 CASM1 46/// ///// 1//// 91636 91636 333 91223 555  91203;
0152997275999992010010518004+43650-070250FM-18+0010CASM1V02099999999999999999N9999999N1+99999+99999999999REMSYN143CMAN  05184 CASM1 46/// ///// 1//// 91736 91736 222// 0001555 0167 5//// 70222 8//// 22233 00040 2//02 3//// 4//// 5//// 6//// 8//// ICE /////;
0078997275999992010010519004+43650-070250FM-18+0010CASM1V02099999999999999999N9999999N1+99999+99999999999REMSYN069CMAN  05194 CASM1 46/// ///// 1//// 91836 91836 222// 0001555  91205;
0078997275999992010010520004+43650-070250FM-18+0010CASM1V02099999999999999999N9999999N1+99999+99999999999REMSYN069CMAN  05204 CASM1 46/// ///// 1//// 91936 91936 333 91226 555  91203;
0078997275999992010010521004+43650-070250FM-18+0010CASM1V02099999999999999999N9999999N1+99999+99999999999REMSYN069CMAN  05214 CASM1 46/// ///// 1//// 92036 92036 333 91226 555  91206;
0099997275999992010010522004+43650-070250FM-18+0010CASM1V02099999999999999999N9999999N1+99999+99999999999REMSYN090CMAN  05224 CASM1 46/// ///// 1//// 92136 92136 222// 0001555 104 20803 322// 41102 70020;
0072997275999992010010523004+43650-070250FM-18+0010CASM1V02099999999999999999N9999999N1+99999+99999999999REMSYN063CMAN  05234 CASM1 46/// ///// 1//// 92236 92236 222// 0001555 ;
0078997275999992010010600004+43650-070250FM-18+0010CASM1V02099999999999999999N9999999N1+99999+99999999999REMSYN069CMAN  06004 CASM1 46/// ///// 1//// 92336 92336 333 91228 555  91206;
0078997275999992010010601004+43650-070250FM-18+0010CASM1V02099999999999999999N9999999N1+99999+99999999999REMSYN069CMAN  06014 CASM1 46/// ///// 1//// 90036 90036 333 91230 555  91206;
0000997275999992010010602004+43650-070250FM-18+0010CASM1V02099999999999999999N9999999N1+99999+99999999999
0099997275999992010010603004+43650-070250FM-18+0010CASM1V02099999999999999999N9999999N1+99999+99999999999REMSYN090CMAN  06034 CASM1 46/// ///// 1//// 90236 90236 222// 0010555 401 20601 308// 41401 70006;
0078997275999992010010604004+43650-070250FM-18+0010CASM1V02099999999999999999N9999999N1+99999+99999999999REMSYN069CMAN  06044 CASM1 46/// ///// 1//// 90336 90336 222// 0010555  91205;
0078997275999992010010605004+43650-070250FM-18+0010CASM1V02099999999999999999N9999999N1+99999+99999999999REMSYN069CMAN  06054 CASM1 46/// ///// 1//// 90436 90436 222// 0009555  91204;
0078997275999992010010606004+43650-070250FM-18+0010CASM1V02099999999999999999N9999999N1+99999+99999999999REMSYN069CMAN  06064 CASM1 46/// ///// 1//// 90536 90536 222// 0001555  91203;
0078997275999992010010607004+43650-070250FM-18+0010CASM1V02099999999999999999N9999999N1+99999+99999999999REMSYN069CMAN  06074 CASM1 46/// ///// 1//// 90636 90636 222// 0001555  91205;
0078997275999992010010608004+43650-070250FM-18+0010CASM1V02099999999999999999N9999999N1+99999+99999999999REMSYN069CMAN  06084 CASM1 46/// ///// 1//// 90736 90736 222// 0002555  91207;
0072997275999992010010609004+43650-070250FM-18+0010CASM1V02099999999999999999N9999999N1+99999+99999999999REMSYN063CMAN  06094 CASM1 46/// ///// 1//// 90836 90836 222// 00011217;
0000997275999992010010610004+43650-070250FM-18+0010CASM1V02099999999999999999N9999999N1+99999+99999999999
0078997275999992010010611004+43650-070250FM-18+0010CASM1V02099999999999999999N9999999N1+99999+99999999999REMSYN069CMAN  06114 CASM1 46/// ///// 1//// 91036 91036 222// 0001555  91204;
0078997275999992010010612004+43650-070250FM-18+0010CASM1V02099999999999999999N9999999N1+99999+99999999999REMSYN069CMAN  06124 CASM1 46/// ///// 1//// 91136 91136 222// 0001555  91205;
0078997275999992010010613004+43650-070250FM-18+0010CASM1V02099999999999999999N9999999N1+99999+99999999999REMSYN069CMAN  06134 CASM1 46/// ///// 1//// 91236 91236 333 91222 555  91203;
0078997275999992010010614004+43650-070250FM-18+0010CASM1V02099999999999999999N9999999N1+99999+99999999999REMSYN069CMAN  06144 CASM1 46/// ///// 1//// 91336 91336 333 91219 555  91205;
0000997275999992010010615004+43650-070250FM-18+0010CASM1V02099999999999999999N9999999N1+99999+99999999999
0078997275999992010010616004+43650-070250FM-18+0010CASM1V02099999999999999999N9999999N1+99999+99999999999REMSYN069CMAN  06164 CASM1 46/// ///// 1//// 91536 91536 333 91217 555  91204;
0091997275999992010010617004+43650-070250FM-18+0010CASM1V02099999999999999999N9999999N1+99999+99999999999REMSYN082CMAN  06174 CASM1 46/// ///// 1//// 91636 91636 222// 0001555 6 81920 94941 95831;
0082997275999992010010618004+43650-070250FM-18+0010CASM1V02099999999999999999N9999999N1+99999+99999999999REMSYN073CMAN  06184 CASM1 46/// ///// 1//// 91736 91736 33 91212 555 11010 22011;
0150997275999992010010619004+43650-070250FM-18+0010CASM1V02099999999999999999N9999999N1+99999+99999999999REMSYN141CMAN  06194 CASM1 46/// ///// 1//// 91836 91836 222// 0001555 90 57030 7//11 83282 22200 00282 2//// 3//// 4//// 5//// 6//// 80140 ICE /////;
0078997275999992010010620004+43650-070250FM-18+0010CASM1V02099999999999999999N9999999N1+99999+99999999999REMSYN069CMAN  06204 CASM1 46/// ///// 1//// 91936 91936 222// 0002555  91209;
0078997275999992010010621004+43650-070250FM-18+0010CASM1V02099999999999999999N9999999N1+99999+99999999999REMSYN069CMAN  06214 CASM1 46/// ///// 1//// 92036 92036 222// 0001555  91205;
0000997275999992010010622004+43650-070250FM-18+0010CASM1V02099999999999999999N9999999N1+99999+99999999999
0078997275999992010010623004+43650-070250FM-18+0010CASM1V02099999999999999999N9999999N1+99999+99999999999REMSYN069CMAN  06234 CASM1 46/// ///// 1//// 92236 92236 222// 0009555  91207;
0085997275999992010010700004+43650-070250FM-18+0010CASM1V02099999999999999999N9999999N1+99999+99999999999REMSYN076CMAN  07004 CASM1 46/// ///// 1//// 92336 92336 222// 00092 88500 333 7////;
0078997275999992010010701004+43650-070250FM-18+0010CASM1V02099999999999999999N9999999N1+99999+99999999999REMSYN069CMAN  07014 CASM1 46/// ///// 1//// 90036 90036 222// 0010555  91208;
0078997275999992010010702004+43650-070250FM-18+0010CASM1V02099999999999999999N9999999N1+99999+99999999999REMSYN069CMAN  07024 CASM1 46/// ///// 1//// 90136 90136 222// 0010555  91206;
0078997275999992010010703004+43650-070250FM-18+0010CASM1V02099999999999999999N9999999N1+99999+99999999999REMSYN069CMAN  07034 CASM1 46/// ///// 1//// 90236 90236 222// 0010555  91209;
0000997275999992010010704004+43650-070250FM-18+0010CASM1V02099999999999999999N9999999N1+99999+99999999999
0078997275999992010010705004+43650-070250FM-18+0010CASM1V02099999999999999999N9999999N1+99999+99999999999REMSYN069CMAN  07054 CASM1 46/// ///// 1//// 90436 90436 222// 0010555  91206;
0078997275999992010010706004+43650-070250FM-18+0010CASM1V02099999999999999999N9999999N1+99999+99999999999REMSYN069CMAN  07064 CASM1 46/// ///// 1//// 90536 90536 222// 0010555  91206;
0078997275999992010010707004+43650-070250FM-18+0010CASM1V02099999999999999999N9999999N1+99999+99999999999REMSYN069CMAN  07074 CASM1 46/// ///// 1//// 90636 90636 222// 0010555  91202;
0000997275999992010010708004+43650-070250FM-18+0010CASM1V02099999999999999999N9999999N1+99999+99999999999
0100997275999992010010709004+43650-070250FM-18+0010CASM1V02099999999999999999N9999999N1+99999+99999999999REMSYN091CMAN  07094 CASM1 46/// ///// 1//// 90836 90836 222// 0010555  58000 82821 81924 555 10214;
0000997275999992010010710004+43650-070250FM-18+0010CASM1V02099999999999999999N9999999N1+99999+99999999999
0078997275999992010010711004+43650-070250FM-18+0010CASM1V02099999999999999999N9999999N1+99999+99999999999REMSYN069CMAN  07114 CASM1 46/// ///// 1//// 91036 91036 222// 0009555  91204;
0097997275999992010010712004+43650-070250FM-18+0010CASM1V02099999999999999999N9999999N1+99999+99999999999REMSYN088CMAN  07124 CASM1 46/// ///// 1//// 91136 91136 222// 0009555 3 10315 566/9 82820 86280;
0078997275999992010010713004+43650-070250FM-18+0010CASM1V02099999999999999999N9999999N1+99999+99999999999REMSYN069CMAN  07134 CASM1 46/// ///// 1//// 91236 91236 222// 0009555  91206;
0078997275999992010010714004+43650-070250FM-18+0010CASM1V02099999999999999999N9999999N1+99999+99999999999REMSYN069CMAN  07144 CASM1 46/// ///// 1//// 91336 91336 222// 0008555  91205;
0000997275999992010010715004+43650-070250FM-18+0010CASM1V02099999999999999999N9999999N1+99999+99999999999
0078997275999992010010716004+43650-070250FM-18+0010CASM1V02099999999999999999N9999999N1+99999+99999999999REMSYN069CMAN  07164 CASM1 46/// ///// 1//// 91536 91536 222// 0008555  91210;
0099997275999992010010717004+43650-070250FM-18+0010CASM1V02099999999999999999N9999999N1+99999+99999999999REMSYN090CMAN  07174 CASM1 46/// ///// 1//// 91636 91636 222// 00096 11104 21003 324// 41102 70019;
0074997275999992010010718004+43650-070250FM-18+0010CASM1V02099999999999999999N9999999N1+99999+99999999999REMSYN065CMAN  07184 CASM1 46/// ///// 1//// 91736 91736 222// 0009555 50;
0066997275999992010010719004+43650-070250FM-18+0010CASM1V02099999999999999999N9999999N1+99999+99999999999REMSYN057CMAN  07194 CASM1 46/// ///// 1//// 91836 1836 333 91211;
0078997275999992010010720004+43650-070250FM-18+0010CASM1V02099999999999999999N9999999N1+99999+99999999999REMSYN069CMAN  07204 CASM1 46/// ///// 1//// 91936 91936 222// 0009555  91204;
0000997275999992010010721004+43650-070250FM-18+0010CASM1V02099999999999999999N9999999N1+99999+99999999999
0078997275999992010010722004+43650-070250FM-18+0010CASM1V02099999999999999999N9999999N1+99999+99999999999REMSYN069CMAN  07224 CASM1 46/// ///// 1//// 92136 92136 222// 0009555  91207;
0078997275999992010010723004+43650-070250FM-18+0010CASM1V02099999999999999999N9999999N1+99999+99999999999REMSYN069CMAN  07234 CASM1 46/// ///// 1//// 92236 92236 222// 0008555  91211;
0078997275999992010010800004+43650-070250FM-18+0010CASM1V02099999999999999999N9999999N1+99999+99999999999REMSYN069CMAN  08004 CASM1 46/// ///// 1//// 92336 92336 222// 0008555  91209;
0078997275999992010010801004+43650-070250FM-18+0010CASM1V02099999999999999999N9999999N1+99999+99999999999REMSYN069CMAN  08014 CASM1 46/// ///// 1//// 90036 90036 222// 0008555  91209;
0078997275999992010010802004+43650-070250FM-18+0010CASM1V02099999999999999999N9999999N1+99999+99999999999REMSYN069CMAN  08024 CASM1 46/// ///// 1//// 90136 90136 222// 0008555  91209;
0078997275999992010010803004+43650-070250FM-18+0010CASM1V02099999999999999999N9999999N1+99999+99999999999REMSYN069CMAN  08034 CASM1 46/// ///// 1//// 90236 90232 222// 0001555  91209;
0000997275999992010010804004+43650-070250FM-18+0010CASM1V02099999999999999999N9999999N1+99999+99999999999
0078997275999992010010805004+43650-070250FM-18+0010CASM1V02099999999999999999N9999999N1+99999+99999999999REMSYN069CMAN  08054 CASM1 46/// ///// 1//// 90436 90436 222// 0007555  91205;
0078997275999992010010806004+43650-070250FM-18+0010CASM1V02099999999999999999N9999999N1+99999+99999999999REMSYN069CMAN  08064 CASM1 46/// ///// 1//// 90536 90536 222// 0007555  91219;
0078997275999992010010807004+43650-070250FM-18+0010CASM1V02099999999999999999N9999999N1+99999+99999999999REMSYN069CMAN  08074 CASM1 46/// ///// 1//// 90636 90636 222// 0007555  91204;
0078997275999992010010808004+43650-070250FM-18+0010CASM1V02099999999999999999N9999999N1+99999+99999999999REMSYN069CMAN  08084 CASM1 46/// ///// 1//// 90736 90736 222// 0001555  91207;
0078997275999992010010809004+43650-070250FM-18+0010CASM1V02099999999999999999N9999999N1+99999+99999999999REMSYN069CMAN  08094 CASM1 46/// ///// 1//// 90836 90836 222// 0002555  91217;
0000997275999992010010810004+43650-070250FM-18+0010CASM1V02099999999999999999N9999999N1+99999+99999999999
0078997275999992010010811004+43650-070250FM-18+0010CASM1V02099999999999999999N9999999N1+99999+99999999999REMSYN069CMAN  08114 CASM1 46/// ///// 1//// 91036 91036 222// 0001555  91205;
0078997275999992010010812004+43650-070250FM-18+0010CASM1V02099999999999999999N9999999N1+99999+99999999999REMSYN069CMAN  08124 CASM1 46/// ///// 1//// 91136 91136 222// 0001555  91205;
0078997275999992010010813004+43650-070250FM-18+0010CASM1V02099999999999999999N9999999N1+99999+99999999999REMSYN069CMAN  08134 CASM1 46/// ///// 1//// 91236 91236 222// 0001555  91205;
0078997275999992010010814004+43650-070250FM-18+0010CASM1V02099999999999999999N9999999N1+99999+99999999999REMSYN069CMAN  08144 CASM1 46/// ///// 1//// 91336 91336 333 91227 555  91207;
0072997275999992010010815004+43650-070250FM-18+0010CASM1V02099999999999999999N9999999N1+99999+99999999999REMSYN063CMAN  08154 CASM1 46/// ///// 1//// 91436 91446 222// 00021211;
0078997275999992010010816004+43650-070250FM-18+0010CASM1V02099999999999999999N9999999N1+99999+99999999999REMSYN069CMAN  08164 CASM1 46/// ///// 1//// 91536 91536 222// 0001 333 91208;
0078997275999992010010817004+43650-070250FM-18+0010CASM1V02099999999999999999N9999999N1+99999+99999999999REMSYN069CMAN  08174 CASM1 46/// ///// 1//// 91636 9163 222// 00069 333 91213;
0078997275999992010010818004+43650-070250FM-18+0010CASM1V02099999999999999999N9999999N1+99999+99999999999REMSYN069CMAN  08184 CASM1 46/// ///// 1//// 91736 91736 222// 0008555  91206;
0078997275999992010010819004+43650-070250FM-18+0010CASM1V02099999999999999999N9999999N1+99999+99999999999REMSYN069CMAN  08194 CASM1 46/// ///// 1//// 91836 91836 222// 0008 333 91212;
0185997275999992010010820004+43650-070250FM-18+0010CASM1V02099999999999999999N9999999N1+99999+99999999999REMSYN176CMAN  08204 CASM1 46/// ///// 1//// 91942 54000 92000 333 91221 555 11015 22016 31959 419021 61959 189013 185008 164004 241004 271949 305115 303110 299115 302118 302123 300116;
0000997275999992010010821004+43650-070250FM-18+0010CASM1V02099999999999999999N9999999N1+99999+99999999999
0000997275999992010010822004+43650-070250FM-18+0010CASM1V02099999999999999999N9999999N1+99999+99999999999
0078997275999992010010823004+43650-070250FM-18+0010CASM1V02099999999999999999N9999999N1+99999+99999999999REMSYN069CMAN  08234 CASM1 46/// ///// 1//// 92236 92236 222// 0008 333 91216;
0072997275999992010010900004+43650-070250FM-18+0010CASM1V02099999999999999999N9999999N1+99999+99999999999REMSYN063CMAN  09004 CASM1 46/// ///// 1//// 92336 92336 222// 00031221;
0099997275999992010010901004+43650-070250FM-18+0010CASM1V02099999999999999999N9999999N1+99999+99999999999REMSYN090CMAN  09014 CASM1 46/// ///// 1//// 90036 90036 222// 00087 11506 21004 326// 41504 70028;
0078997275999992010010902004+43650-070250FM-18+0010CASM1V02099999999999999999N9999999N1+99999+99999999999REMSYN069CMAN  09024 CASM1 46/// ///// 1//// 90136 90136 222// 0008555  91205;
0078997275999992010010903004+43650-070250FM-18+0010CASM1V02099999999999999999N9999999N1+99999+99999999999REMSYN069CMAN  09034 CASM1 46/// ///// 1//// 90236 90236 222// 0008555  91207;
0000997275999992010010904004+43650-070250FM-18+0010CASM1V02099999999999999999N9999999N1+99999+99999999999
0084997275999992010010905004+43650-070250FM-18+0010CASM1V02099999999999999999N9999999N1+99999+99999999999REMSYN075CMAN  09054 CASM1 46/// ///// 1//// 90454 51012 90500 222// 0001 333 91203;
0084997275999992010010906004+43650-070250FM-18+0010CASM1V02099999999999999999N9999999N1+99999+99999999999REMSYN075CMAN  09064 CASM1 46/// ///// 1//// 90554 53008 90600 222// 0001 333 91201;
0068997275999992010010907004+43650-070250FM-18+0010CASM1V02099999999999999999N9999999N1+99999+99999999999REMSYN059CMAN  09074 CASM1 46/// ///// 1//// 90636 90636 222// 0001;
0099997275999992010010908004+43650-070250FM-18+0010CASM1V02099999999999999999N9999999N1+99999+99999999999REMSYN090CMAN  09084 CASM1 46/// ///// 1//// 90736 90732 222// 000191211 5 20805 326// 41404 70033;
0078997275999992010010909004+43650-070250FM-18+0010CASM1V02099999999999999999N9999999N1+99999+99999999999REMSYN069CMAN  09094 CASM1 46/// ///// 1//// 90836 90830 333 91217 555  91202;
0185997275999992010010910004+43650-070250FM-18+0010CASM1V02099999999999999999N9999999N1+99999+99999999999REMSYN176CMAN  09104 CASM1 46/// ///// 1//// 90942 52007 91000 333 91209 555 11007 22007 30939 418011 60959 195006 181007 183007 178005 170949 330111 325112 325110 326106 323110 326110;
0078997275999992010010911004+43650-070250FM-18+0010CASM1V02099999999999999999N9999999N1+99999+99999999999REMSYN069CMAN  09114 CASM1 46/// ///// 1//// 91036 91036 333 91206 555  91201;
0078997275999992010010912004+43650-070250FM-18+0010CASM1V02099999999999999999N9999999N1+99999+99999999999REMSYN069CMAN  09124 CASM1 46/// ///// 1//// 91136 91136 333 91210 555  91204;
0078997275999992010010913004+43650-070250FM-18+0010CASM1V02099999999999999999N9999999N1+99999+99999999999REMSYN069CMAN  09134 CASM1 46/// ///// 1//// 91236 91236 222// 0001555  91207;
0078997275999992010010914004+43650-070250FM-18+0010CASM1V02099999999999999999N9999999N1+99999+99999999999REMSYN069CMAN  09144 CASM1 46/// ///// 1//// 91336 91336 333 91211 555  91205;
0000997275999992010010915004+43650-070250FM-18+0010CASM1V02099999999999999999N9999999N1+99999+99999999999
0078997275999992010010916004+43650-070250FM-18+0010CASM1V02099999999999999999N9999999N1+99999+99999999999REMSYN069CMAN  09164 CASM1 46/// ///// 1//// 91536 91536 222// 0001555  91202;
0078997275999992010010917004+43650-070250FM-18+0010CASM1V02099999999999999999N9999999N1+99999+99999999999REMSYN069CMAN  09174 CASM1 46/// ///// 1//// 91636 91636 222// 0001555  91204;
0078997275999992010010918004+43650-070250FM-18+0010CASM1V02099999999999999999N9999999N1+99999+99999999999REMSYN069CMAN  09184 CASM1 46/// ///// 1//// 91736 91736 222// 0007555  91206;
0000997275999992010010919004+43650-070250FM-18+0010CASM1V02099999999999999999N9999999N1+99999+99999999999
0000997275999992010010920004+43650-070250FM-18+0010CASM1V02099999999999999999N9999999N1+99999+99999999999
0078997275999992010010921004+43650-070250FM-18+0010CASM1V02099999999999999999N9999999N1+99999+99999999999REMSYN069CMAN  09214 CASM1 46/// ///// 1//// 92036 92036 222// 0008 333 91205;
0150997275999992010010922004+43650-070250FM-18+0010CASM1V02099999999999999999N9999999N1+99999+99999999999REMSYN141CMAN  09224 CASM1 46/// ///// 1//// 92136 92136 222// 0008555 3 554000 70311 84/// 22282 00270 20404 39999 4//// 5//// 6//// 80240 ICE /////;
0078997275999992010010923004+43650-070250FM-18+0010CASM1V02099999999999999999N9999999N1+99999+99999999999REMSYN069CMAN  09234 CASM1 46/// ///// 1//// 92236 92236 222// 0008555  91206;
0000997275999992010011000004+43650-070250FM-18+0010CASM1V02099999999999999999N9999999N1+99999+99999999999
0078997275999992010011001004+43650-070250FM-18+0010CASM1V02099999999999999999N9999999N1+99999+99999999999REMSYN069CMAN  10014 CASM1 46/// ///// 1//// 90036 90036 222// 0008555  91204;
0078997275999992010011002004+43650-070250FM-18+0010CASM1V02099999999999999999N9999999N1+99999+99999999999REMSYN069CMAN  10024 CASM1 46/// ///// 1//// 90136 90136 222// 0008555  91205;
0078997275999992010011003004+43650-070250FM-18+0010CASM1V02099999999999999999N9999999N1+99999+99999999999REMSYN069CMAN  10034 CASM1 46/// ///// 1//// 90236 90236 222// 0007555  91205;
0078997275999992010011004004+43650-070250FM-18+0010CASM1V02099999999999999999N9999999N1+99999+99999999999REMSYN069CMAN  10044 CASM1 46/// ///// 1//// 90336 90336 222// 0008555  91205;
0078997275999992010011005004+43650-070250FM-18+0010CASM1V02099999999999999999N9999999N1+99999+99999999999REMSYN069CMAN  10054 CASM1 46/// ///// 1//// 90436 90436 222// 0007555  91204;
0078997275999992010011006004+43650-070250FM-18+0010CASM1V02099999999999999999N9999999N1+99999+99999999999REMSYN069CMAN  10064 CASM1 46/// ///// 1//// 90536 90536 222// 0007555  91203;
0078997275999992010011007004+43650-070250FM-18+0010CASM1V02099999999999999999N9999999N1+99999+99999999999REMSYN069CMAN  10074 CASM1 46/// ///// 1//// 90636 90636 222// 0007555  91201;
0078997275999992010011008004+43650-070250FM-18+0010CASM1V02099999999999999999N9999999N1+99999+99999999999REMSYN069CMAN  10084 CASM1 46/// ///// 1//// 90736 90736 222// 0001 333 91203;
0078997275999992010011009004+43650-070250FM-18+0010CASM1V02099999999999999999N9999999N1+99999+99999999999REMSYN069CMAN  10094 CASM1 46/// ///// 1//// 90836 90836 222// 0001555  91204;
0078997275999992010011010004+43650-070250FM-18+0010CASM1V02099999999999999999N9999999N1+99999+99999999999REMSYN069CMAN  10104 CASM1 46/// ///// 1//// 90936 90936 222// 0001555  91205;
0000997275999992010011011004+43650-070250FM-18+0010CASM1V02099999999999999999N9999999N1+99999+99999999999
0078997275999992010011012004+43650-070250FM-18+0010CASM1V02099999999999999999N9999999N1+99999+99999999999REMSYN069CMAN  10124 CASM1 46/// ///// 1//// 91136 91136 222// 0001555  91206;
0000997275999992010011013004+43650-070250FM-18+0010CASM1V02099999999999999999N9999999N1+99999+99999999999
0078997275999992010011014004+43650-070250FM-18+0010CASM1V02099999999999999999N9999999N1+99999+99999999999REMSYN069CMAN  10144 CASM1 46/// ///// 1//// 91336 91336 222// 0001555  91212;
0078997275999992010011015004+43650-070250FM-18+0010CASM1V02099999999999999999N9999999N1+99999+99999999999REMSYN069CMAN  10154 CASM1 46/// ///// 1//// 91436 91430 333 91224 555  91204;
0114997275999992010011016004+43650-070250FM-18+0010CASM1V02099999999999999999N9999999N1+99999+99999999999REMSYN105CMAN  10164 CASM1 46/// ///// 1//// 91536 91536 222// 0001555 66 885/2 91550 333 83612 87618 90710 91129;
0072997275999992010011017004+43650-070250FM-18+0010CASM1V02099999999999999999N9999999N1+99999+99999999999REMSYN063CMAN  10174 CASM1 46/// ///// 1//// 91636 91636 222// 0001555 ;
0078997275999992010011018004+43650-070250FM-18+0010CASM1V02099999999999999999N9999999N1+99999+99999999999REMSYN069CMAN  10184 CASM1 46/// ///// 1//// 91736 91736 333 91229 555  91206;
0078997275999992010011019004+43650-070250FM-18+0010CASM1V02099999999999999999N9999999N1+99999+99999999999REMSYN069CMAN  10194 CASM1 46/// ///// 1//// 91836 91836 222// 00075333 91214;
0078997275999992010011020004+43650-070250FM-18+0010CASM1V02099999999999999999N9999999N1+99999+99999999999REMSYN069CMAN  10204 CASM1 46/// ///// 1//// 91936 91936 222// 0007555  91204;
0078997275999992010011021004+43650-070250FM-18+0010CASM1V02099999999999999999N9999999N1+99999+99999999999REMSYN069CMAN  10214 CASM1 46/// ///// 1//// 92036 92036 222// 0008 333 91207;
0078997275999992010011022004+43650-070250FM-18+0010CASM1V02099999999999999999N9999999N1+99999+99999999999REMSYN069CMAN  10224 CASM1 46/// ///// 1//// 92136 92136 222// 0008555  91207;
0000997275999992010011023004+43650-070250FM-18+0010CASM1V02099999999999999999N9999999N1+99999+99999999999
0000997275999992010011100004+43650-070250FM-18+0010CASM1V02099999999999999999N9999999N1+99999+99999999999
0078997275999992010011103004+43650-070250FM-18+0010CASM1V02099999999999999999N9999999N1+99999+99999999999REMSYN069CMAN  11034 CASM1 46/// ///// 1//// 90324 0324 222// 00008 333 91207;
0078997275999992010011104004+43650-070250FM-18+0010CASM1V02099999999999999999N9999999N1+99999+99999999999REMSYN069CMAN  11044 CASM1 46/// ///// 1//// 90336 90336 222// 0008555  91206;
0084997275999992010011105004+43650-070250FM-18+0010CASM1V02099999999999999999N9999999N1+99999+99999999999REMSYN075CMAN  11054 CASM1 46/// ///// 1//// 90454 90454 90500 222// 0001 333 91206;
0078997275999992010011106004+43650-070250FM-18+0010CASM1V02099999999999999999N9999999N1+99999+99999999999REMSYN069CMAN  11064 CASM1 46/// ///// 1//// 90536 90536 222// 0001 333 91202;
0078997275999992010011107004+43650-070250FM-18+0010CASM1V02099999999999999999N9999999N1+99999+99999999999REMSYN069CMAN  11074 CASM1 46/// ///// 1//// 90636 90636 333 91220 555  91204;
0000997275999992010011108004+43650-070250FM-18+0010CASM1V02099999999999999999N9999999N1+99999+99999999999
0106997275999992010011109004+43650-070250FM-18+0010CASM1V02099999999999999999N9999999N1+99999+99999999999REMSYN097CMAN  11094 CASM1 46/// ///// 1//// 90848 57006 90900 222// 0001 888// 333 83815 86625 555 0////;
0078997275999992010011110004+43650-070250FM-18+0010CASM1V02099999999999999999N9999999N1+99999+99999999999REMSYN069CMAN  11104 CASM1 46/// ///// 1//// 90936 90936 222// 0007555  91206;
0082997275999992010011111004+43650-070250FM-18+0010CASM1V02099999999999999999N9999999N1+99999+99999999999REMSYN073CMAN  11114 CASM1 46/// ///// 1//// 91036 91036 222// 0006555 2009 90625;
0078997275999992010011112004+43650-070250FM-18+0010CASM1V02099999999999999999N9999999N1+99999+99999999999REMSYN069CMAN  11124 CASM1 46/// ///// 1//// 91136 91136 222// 0005555  91207;
0078997275999992010011113004+43650-070250FM-18+0010CASM1V02099999999999999999N9999999N1+99999+99999999999REMSYN069CMAN  11134 CASM1 46/// ///// 1//// 91236 91236 222// 0005555  91205;
0090997275999992010011114004+43650-070250FM-18+0010CASM1V02099999999999999999N9999999N1+99999+99999999999REMSYN081CMAN  11144 CASM1 46/// ///// 1//// 91336 91336 222// 0004555 2/ 333 88457 92810;
0078997275999992010011115004+43650-070250FM-18+0010CASM1V02099999999999999999N9999999N1+99999+99999999999REMSYN069CMAN  11154 CASM1 46/// ///// 1//// 91436 91436 222// 0004555  91207;
0078997275999992010011116004+43650-070250FM-18+0010CASM1V02099999999999999999N9999999N1+99999+99999999999REMSYN069CMAN  11164 CASM1 46/// ///// 1//// 91536 91536 222// 0004555  91206;
0074997275999992010011117004+43650-070250FM-18+0010CASM1V02099999999999999999N9999999N1+99999+99999999999REMSYN065CMAN  11174 CASM1 46/// ///// 1//// 91636 91632 222// 0001 91610;
0000997275999992010011118004+43650-070250FM-18+0010CASM1V02099999999999999999N9999999N1+99999+99999999999
0000997275999992010011119004+43650-070250FM-18+0010CASM1V02099999999999999999N9999999N1+99999+99999999999
0078997275999992010011120004+43650-070250FM-18+0010CASM1V02099999999999999999N9999999N1+99999+99999999999REMSYN069CMAN  11204 CASM1 46/// ///// 1//// 91936 91936 222// 0008555  91205;
0078997275999992010011121004+43650-070250FM-18+0010CASM1V02099999999999999999N9999999N1+99999+99999999999REMSYN069CMAN  11214 CASM1 46/// ///// 1//// 92036 92036 222// 0008555  91206;
0078997275999992010011122004+43650-070250FM-18+0010CASM1V02099999999999999999N9999999N1+99999+99999999999REMSYN069CMAN  11224 CASM1 46/// ///// 1//// 92136 92136 222// 0008555  91207;
0078997275999992010011123004+43650-070250FM-18+0010CASM1V02099999999999999999N9999999N1+99999+99999999999REMSYN069CMAN  11234 CASM1 46/// ///// 1//// 92236 92236 222// 0008 333 91209;
0078997275999992010011200004+43650-070250FM-18+0010CASM1V02099999999999999999N9999999N1+99999+99999999999REMSYN069CMAN  12004 CASM1 46/// ///// 1//// 92336 92336 222// 0008 333 91207;
0203997275999992010011201004+43650-070250FM-18+0010CASM1V02099999999999999999N9999999N1+99999+99999999999REMSYN194CMAN  12014 CASM1 46/// ///// 1//// 90036 90036 222// 00080 90050 22200 00031 10805 20602 300// 40804 70023 333 91210 555 11075 22078 30006 40410 60049 013072 021071 017070 022066 033062 045062;
0000997275999992010011202004+43650-070250FM-18+0010CASM1V02099999999999999999N9999999N1+99999+99999999999
0072997275999992010011203004+43650-070250FM-18+0010CASM1V02099999999999999999N9999999N1+99999+99999999999REMSYN063CMAN  12034 CASM1 46/// ///// 1//// 90236 90236 222// 00081216;
0090997275999992010011204004+43650-070250FM-18+0010CASM1V02099999999999999999N9999999N1+99999+99999999999REMSYN081CMAN  12044 CASM1 46/// ///// 1//// 90336 90336 222// 0008 77177 886// 333 88707;
0000997275999992010011205004+43650-070250FM-18+0010CASM1V02099999999999999999N9999999N1+99999+99999999999
0072997275999992010011206004+43650-070250FM-18+0010CASM1V02099999999999999999N9999999N1+99999+99999999999REMSYN063CMAN  12064 CASM1 46/// ///// 1//// 90536 90536 222// 00081217;
0078997275999992010011207004+43650-070250FM-18+0010CASM1V02099999999999999999N9999999N1+99999+99999999999REMSYN069CMAN  12074 CASM1 46/// ///// 1//// 90636 90636 222// 0008 333 91210;
0123997275999992010011208004+43650-070250FM-18+0010CASM1V02099999999999999999N9999999N1+99999+99999999999REMSYN114CMAN  12084 CASM1 46/// ///// 1//// 90736 90736 222// 00072 70300 8//// 22224 00250 20505 306// 40505 5//// 80210;
0078997275999992010011209004+43650-070250FM-18+0010CASM1V02099999999999999999N9999999N1+99999+99999999999REMSYN069CMAN  12094 CASM1 46/// ///// 1//// 90836 90836 222// 0001555  91208;
0000997275999992010011210004+43650-070250FM-18+0010CASM1V02099999999999999999N9999999N1+99999+99999999999
0072997275999992010011211004+43650-070250FM-18+0010CASM1V02099999999999999999N9999999N1+99999+99999999999REMSYN063CMAN  12114 CASM1 46/// ///// 1//// 91042 91036 222// 00021217;
0082997275999992010011212004+43650-070250FM-18+0010CASM1V02099999999999999999N9999999N1+99999+99999999999REMSYN073CMAN  12124 CASM1 46/// ///// 1//// 91136 91136 222// 000655 11006 22007;
0078997275999992010011213004+43650-070250FM-18+0010CASM1V02099999999999999999N9999999N1+99999+99999999999REMSYN069CMAN  12134 CASM1 46/// ///// 1//// 91236 91236 222// 0006555  91203;
0078997275999992010011214004+43650-070250FM-18+0010CASM1V02099999999999999999N9999999N1+99999+99999999999REMSYN069CMAN  12144 CASM1 46/// ///// 1//// 91336 91336 222// 0005555  91205;
0074997275999992010011215004+43650-070250FM-18+0010CASM1V02099999999999999999N9999999N1+99999+99999999999REMSYN065CMAN  12154 CASM1 46/// ///// 1//// 91436 91436 222// 0005555 20;
0078997275999992010011216004+43650-070250FM-18+0010CASM1V02099999999999999999N9999999N1+99999+99999999999REMSYN069CMAN  12164 CASM1 46/// ///// 1//// 91536 91536 222// 0005555  91215;
0078997275999992010011217004+43650-070250FM-18+0010CASM1V02099999999999999999N9999999N1+99999+99999999999REMSYN069CMAN  12174 CASM1 46/// ///// 1//// 91636 91636 222// 0006555  91213;
0078997275999992010011218004+43650-070250FM-18+0010CASM1V02099999999999999999N9999999N1+99999+99999999999REMSYN069CMAN  12184 CASM1 46/// ///// 1//// 91736 91736 222// 0005555  91224;
0078997275999992010011219004+43650-070250FM-18+0010CASM1V02099999999999999999N9999999N1+99999+99999999999REMSYN069CMAN  12194 CASM1 46/// ///// 1//// 91836 91836 222// 0005 333 91209;
0078997275999992010011220004+43650-070250FM-18+0010CASM1V02099999999999999999N9999999N1+99999+99999999999REMSYN069CMAN  12204 CASM1 46/// ///// 1//// 91936 91936 222// 0006 333 91212;
0078997275999992010011221004+43650-070250FM-18+0010CASM1V02099999999999999999N9999999N1+99999+99999999999REMSYN069CMAN  12214 CASM1 46/// ///// 1//// 92036 92036 222// 0001555  91214;
0000997275999992010011222004+43650-070250FM-18+0010CASM1V02099999999999999999N9999999N1+99999+99999999999
0078997275999992010011223004+43650-070250FM-18+0010CASM1V02099999999999999999N9999999N1+99999+99999999999REMSYN069CMAN  12234 CASM1 46/// ///// 1//// 92236 92236 222// 0009555  91207;
0068997275999992010011300004+43650-070250FM-18+0010CASM1V02099999999999999999N9999999N1+99999+99999999999REMSYN059CMAN  13004 CASM1 46/// ///// 1//// 92336 92336 222// 0009;
0000997275999992010011301004+43650-070250FM-18+0010CASM1V02099999999999999999N9999999N1+99999+99999999999
0000997275999992010011302004+43650-070250FM-18+0010CASM1V02099999999999999999N9999999N1+99999+99999999999
0078997275999992010011303004+43650-070250FM-18+0010CASM1V02099999999999999999N9999999N1+99999+99999999999REMSYN069CMAN  13034 CASM1 46/// ///// 1//// 90236 90236 222// 0009555  91210;
0078997275999992010011304004+43650-070250FM-18+0010CASM1V02099999999999999999N9999999N1+99999+99999999999REMSYN069CMAN  13044 CASM1 46/// ///// 1//// 90336 90336 222// 0009555  91211;
0084997275999992010011305004+43650-070250FM-18+0010CASM1V02099999999999999999N9999999N1+99999+99999999999REMSYN075CMAN  13054 CASM1 46/// ///// 1//// 90454 51016 90500 222// 0001 333 91205;
0078997275999992010011306004+43650-070250FM-18+0010CASM1V02099999999999999999N9999999N1+99999+99999999999REMSYN069CMAN  13064 CASM1 46/// ///// 1//// 90536 90536 222// 0009555  91224;
0078997275999992010011307004+43650-070250FM-18+0010CASM1V02099999999999999999N9999999N1+99999+99999999999REMSYN069CMAN  13074 CASM1 46/// ///// 1//// 90636 90636 222// 0008555  91221;
0000997275999992010011308004+43650-070250FM-18+0010CASM1V02099999999999999999N9999999N1+99999+99999999999
0078997275999992010011309004+43650-070250FM-18+0010CASM1V02099999999999999999N9999999N1+99999+99999999999REMSYN069CMAN  13094 CASM1 46/// ///// 1//// 90836 90836 222// 0008555  91218;
0078997275999992010011310004+43650-070250FM-18+0010CASM1V02099999999999999999N9999999N1+99999+99999999999REMSYN069CMAN  13104 CASM1 46/// ///// 1//// 90936 90936 222// 0008555  91214;
0078997275999992010011311004+43650-070250FM-18+0010CASM1V02099999999999999999N9999999N1+99999+99999999999REMSYN069CMAN  13114 CASM1 46/// ///// 1//// 91036 91036 222// 0007 333 91211;
0078997275999992010011312004+43650-070250FM-18+0010CASM1V02099999999999999999N9999999N1+99999+99999999999REMSYN069CMAN  13124 CASM1 46/// ///// 1//// 91136 91136 222// 0007555  91211;
0078997275999992010011313004+43650-070250FM-18+0010CASM1V02099999999999999999N9999999N1+99999+99999999999REMSYN069CMAN  13134 CASM1 46/// ///// 1//// 91236 91236 222// 0007555  91206;
0078997275999992010011314004+43650-070250FM-18+0010CASM1V02099999999999999999N9999999N1+99999+99999999999REMSYN069CMAN  13144 CASM1 46/// ///// 1//// 91336 91336 222// 0006555  91210;
0000997275999992010011315004+43650-070250FM-18+0010CASM1V02099999999999999999N9999999N1+99999+99999999999
0078997275999992010011316004+43650-070250FM-18+0010CASM1V02099999999999999999N9999999N1+99999+99999999999REMSYN069CMAN  13164 CASM1 46/// ///// 1//// 91536 91536 222// 0006555  91204;
0072997275999992010011317004+43650-070250FM-18+0010CASM1V02099999999999999999N9999999N1+99999+99999999999REMSYN063CMAN  13174 CASM1 46/// ///// 1//// 91636 91636 222// 00061211;
0000997275999992010011318004+43650-070250FM-18+0010CASM1V02099999999999999999N9999999N1+99999+99999999999
0078997275999992010011319004+43650-070250FM-18+0010CASM1V02099999999999999999N9999999N1+99999+99999999999REMSYN069CMAN  13194 CASM1 46/// ///// 1//// 91836 91836 222// 0006555  91202;
0000997275999992010011320004+43650-070250FM-18+0010CASM1V02099999999999999999N9999999N1+99999+99999999999
0078997275999992010011321004+43650-070250FM-18+0010CASM1V02099999999999999999N9999999N1+99999+99999999999REMSYN069CMAN  13214 CASM1 46/// ///// 1//// 92036 92036 222// 0008555  91207;
0099997275999992010011322004+43650-070250FM-18+0010CASM1V02099999999999999999N9999999N1+99999+99999999999REMSYN090CMAN  13224 CASM1 46/// ///// 1//// 92136 92136 222// 0008555 509 21004 328// 41508 70044;
0078997275999992010011323004+43650-070250FM-18+0010CASM1V02099999999999999999N9999999N1+99999+99999999999REMSYN069CMAN  13234 CASM1 46/// ///// 1//// 92236 92236 222// 0009555  91208;
0078997275999992010011400004+43650-070250FM-18+0010CASM1V02099999999999999999N9999999N1+99999+99999999999REMSYN069CMAN  14004 CASM1 46/// ///// 1//// 92336 92336 222// 0009555  91208;
0078997275999992010011401004+43650-070250FM-18+0010CASM1V02099999999999999999N9999999N1+99999+99999999999REMSYN069CMAN  14014 CASM1 46/// ///// 1//// 90036 90036 222// 0009555  91208;
0000997275999992010011402004+43650-070250FM-18+0010CASM1V02099999999999999999N9999999N1+99999+99999999999
0000997275999992010011403004+43650-070250FM-18+0010CASM1V02099999999999999999N9999999N1+99999+99999999999
0078997275999992010011404004+43650-070250FM-18+0010CASM1V02099999999999999999N9999999N1+99999+99999999999REMSYN069CMAN  14044 CASM1 46/// ///// 1//// 90336 90336 222// 0008555  91204;
0078997275999992010011405004+43650-070250FM-18+0010CASM1V02099999999999999999N9999999N1+99999+99999999999REMSYN069CMAN  14054 CASM1 46/// ///// 1//// 90436 90436 222// 0008555  91202;
0078997275999992010011406004+43650-070250FM-18+0010CASM1V02099999999999999999N9999999N1+99999+99999999999REMSYN069CMAN  14064 CASM1 46/// ///// 1//// 90536 90536 222// 0008 333 91203;
0078997275999992010011407004+43650-070250FM-18+0010CASM1V02099999999999999999N9999999N1+99999+99999999999REMSYN069CMAN  14074 CASM1 46/// ///// 1//// 90636 90636 222// 0008555  91203;
0078997275999992010011408004+43650-070250FM-18+0010CASM1V02099999999999999999N9999999N1+99999+99999999999REMSYN069CMAN  14084 CASM1 46/// ///// 1//// 90736 90736 222// 0008555  91205;
0078997275999992010011409004+43650-070250FM-18+0010CASM1V02099999999999999999N9999999N1+99999+99999999999REMSYN069CMAN  14094 CASM1 46/// ///// 1//// 90836 90836 222// 0008 333 91216;
0078997275999992010011410004+43650-070250FM-18+0010CASM1V02099999999999999999N9999999N1+99999+99999999999REMSYN069CMAN  14104 CASM1 46/// ///// 1//// 90936 90936 333 91220 555  91202;
0078997275999992010011411004+43650-070250FM-18+0010CASM1V02099999999999999999N9999999N1+99999+99999999999REMSYN069CMAN  14114 CASM1 46/// ///// 1//// 91036 91036 222// 0008555  91206;
0000997275999992010011412004+43650-070250FM-18+0010CASM1V02099999999999999999N9999999N1+99999+99999999999
0078997275999992010011413004+43650-070250FM-18+0010CASM1V02099999999999999999N9999999N1+99999+99999999999REMSYN069CMAN  14134 CASM1 46/// ///// 1//// 91236 91236 222// 0008555  91202;
0078997275999992010011414004+43650-070250FM-18+0010CASM1V02099999999999999999N9999999N1+99999+99999999999REMSYN069CMAN  14144 CASM1 46/// ///// 1//// 91336 91336 222// 0008555  91207;
0078997275999992010011415004+43650-070250FM-18+0010CASM1V02099999999999999999N9999999N1+99999+99999999999REMSYN069CMAN  14154 CASM1 46/// ///// 1//// 91436 91436 222// 0008555  91210;
0078997275999992010011416004+43650-070250FM-18+0010CASM1V02099999999999999999N9999999N1+99999+99999999999REMSYN069CMAN  14164 CASM1 46/// ///// 1//// 91536 91536 222// 0008 333 91205;
0078997275999992010011417004+43650-070250FM-18+0010CASM1V02099999999999999999N9999999N1+99999+99999999999REMSYN069CMAN  14174 CASM1 46/// ///// 1//// 91636 91636 222// 0008555  91208;
0078997275999992010011418004+43650-070250FM-18+0010CASM1V02099999999999999999N9999999N1+99999+99999999999REMSYN069CMAN  14184 CASM1 46/// ///// 1//// 91736 91736 222// 0007555  91204;
0078997275999992010011419004+43650-070250FM-18+0010CASM1V02099999999999999999N9999999N1+99999+99999999999REMSYN069CMAN  14194 CASM1 46/// ///// 1//// 91836 91836 222// 0007555  91202;
0108997275999992010011420004+43650-070250FM-18+0010CASM1V02099999999999999999N9999999N1+99999+99999999999REMSYN099CMAN  14204 CASM1 46/// ///// 1//// 91936 91936 222// 0007555 00 80001 333 55300 20000 30000 81070;
0000997275999992010011421004+43650-070250FM-18+0010CASM1V02099999999999999999N9999999N1+99999+99999999999
0078997275999992010011422004+43650-070250FM-18+0010CASM1V02099999999999999999N9999999N1+99999+99999999999REMSYN069CMAN  14224 CASM1 46/// ///// 1//// 92136 92132 222// 0001555  91205;
0078997275999992010011423004+43650-070250FM-18+0010CASM1V02099999999999999999N9999999N1+99999+99999999999REMSYN069CMAN  14234 CASM1 46/// ///// 1//// 92236 92236 222// 0009555  91203;
0183997275999992010011500004+43650-070250FM-18+0010CASM1V02099999999999999999N9999999N1+99999+99999999999REMSYN174CMAN  15004 CASM1 46/// ///// 1//// 92336 92336 222// 0009/ 92050 333 0//// 30/// 4//// 54/// 56/// 57/// 59008 60007 8//// 8//// 8//// 9//// 9//// 9//// 444 ///// 555 30301;
0149997275999992010011501004+43650-070250FM-18+0010CASM1V02099999999999999999N9999999N1+99999+99999999999REMSYN140CMAN  15014 CASM1 46/// ///// 1//// 90042 90036 222// 00091220 555 11017 22018 30004 405020 60059 070017 064017 068016 068017 063017 060017;
0099997275999992010011502004+43650-070250FM-18+0010CASM1V02099999999999999999N9999999N1+99999+99999999999REMSYN090CMAN  15024 CASM1 46/// ///// 1//// 90136 90136 222// 0001555 406 21003 328// 41405 70028;
0078997275999992010011503004+43650-070250FM-18+0010CASM1V02099999999999999999N9999999N1+99999+99999999999REMSYN069CMAN  15034 CASM1 46/// ///// 1//// 90236 90236 222// 0009555  91204;
0078997275999992010011504004+43650-070250FM-18+0010CASM1V02099999999999999999N9999999N1+99999+99999999999REMSYN069CMAN  15044 CASM1 46/// ///// 1//// 90336 90336 222// 0009555  91204;
0072997275999992010011505004+43650-070250FM-18+0010CASM1V02099999999999999999N9999999N1+99999+99999999999REMSYN063CMAN  15054 CASM1 46/// ///// 1//// 90436 90436 222// 0009555 ;
0084997275999992010011506004+43650-070250FM-18+0010CASM1V02099999999999999999N9999999N1+99999+99999999999REMSYN075CMAN  15064 CASM1 46/// ///// 1//// 90548 52003 90600 222// 0001 333 91203;
0078997275999992010011507004+43650-070250FM-18+0010CASM1V02099999999999999999N9999999N1+99999+99999999999REMSYN069CMAN  15074 CASM1 46/// ///// 1//// 90636 90630 333 91216 555  91202;
0078997275999992010011508004+43650-070250FM-18+0010CASM1V02099999999999999999N9999999N1+99999+99999999999REMSYN069CMAN  15084 CASM1 46/// ///// 1//// 90736 90736 222// 0009555  91204;
0078997275999992010011509004+43650-070250FM-18+0010CASM1V02099999999999999999N9999999N1+99999+99999999999REMSYN069CMAN  15094 CASM1 46/// ///// 1//// 90836 90836 222// 0009555  91201;
0099997275999992010011510004+43650-070250FM-18+0010CASM1V02099999999999999999N9999999N1+99999+99999999999REMSYN090CMAN  15104 CASM1 46/// ///// 1//// 90936 90936 222// 0009555 307 21006 325// 41304 70037;
0078997275999992010011511004+43650-070250FM-18+0010CASM1V02099999999999999999N9999999N1+99999+99999999999REMSYN069CMAN  15114 CASM1 46/// ///// 1//// 91036 91036 222// 0009555  91201;
0078997275999992010011512004+43650-070250FM-18+0010CASM1V02099999999999999999N9999999N1+99999+99999999999REMSYN069CMAN  15124 CASM1 46/// ///// 1//// 91136 91136 222// 0009555  91202;
0128997275999992010011513004+43650-070250FM-18+0010CASM1V02099999999999999999N9999999N1+99999+99999999999REMSYN119CMAN  15134 CASM1 46/// ///// 1//// 91236 91236 222// 0009555 50 54000 70100 81119 22264 00289 20501 304// 40201 80291;
0078997275999992010011514004+43650-070250FM-18+0010CASM1V02099999999999999999N9999999N1+99999+99999999999REMSYN069CMAN  15144 CASM1 46/// ///// 1//// 91336 91336 222// 0001 333 91204;
0078997275999992010011515004+43650-070250FM-18+0010CASM1V02099999999999999999N9999999N1+99999+99999999999REMSYN069CMAN  15154 CASM1 46/// ///// 1//// 91436 91436 222// 0009555  91208;
0000997275999992010011516004+43650-070250FM-18+0010CASM1V02099999999999999999N9999999N1+99999+99999999999
0078997275999992010011517004+43650-070250FM-18+0010CASM1V02099999999999999999N9999999N1+99999+99999999999REMSYN069CMAN  15174 CASM1 46/// ///// 1//// 91636 91636 222// 0001 333 91203;
0154997275999992010011518004+43650-070250FM-18+0010CASM1V02099999999999999999N9999999N1+99999+99999999999REMSYN145CMAN  15184 CASM1 46/// ///// 1//// 91736 40181 58027 91800 333 91224 555 11020 22022 31700 408025 61759 084022 092020 095020 098021 09E ///////;
0000997275999992010011519004+43650-070250FM-18+0010CASM1V02099999999999999999N9999999N1+99999+99999999999
0078997275999992010011520004+43650-070250FM-18+0010CASM1V02099999999999999999N9999999N1+99999+99999999999REMSYN069CMAN  15204 CASM1 46/// ///// 1//// 91936 91936 222// 0009555  91208;
0078997275999992010011521004+43650-070250FM-18+0010CASM1V02099999999999999999N9999999N1+99999+99999999999REMSYN069CMAN  15214 CASM1 46/// ///// 1//// 92036 92036 222// 0009555  91209;
0084997275999992010011522004+43650-070250FM-18+0010CASM1V02099999999999999999N9999999N1+99999+99999999999REMSYN075CMAN  15224 CASM1 46/// ///// 1//// 92148 52013 92200 222// 0001 333 91207;
0078997275999992010011523004+43650-070250FM-18+0010CASM1V02099999999999999999N9999999N1+99999+99999999999REMSYN069CMAN  15234 CASM1 46/// ///// 1//// 92236 92236 222// 0001 333 91206;
0078997275999992010011600004+43650-070250FM-18+0010CASM1V02099999999999999999N9999999N1+99999+99999999999REMSYN069CMAN  16004 CASM1 46/// ///// 1//// 92336 92336 222// 0010 333 91212;
0078997275999992010011601004+43650-070250FM-18+0010CASM1V02099999999999999999N9999999N1+99999+99999999999REMSYN069CMAN  16014 CASM1 46/// ///// 1//// 90036 90036 222// 0010555  91205;
0078997275999992010011602004+43650-070250FM-18+0010CASM1V02099999999999999999N9999999N1+99999+99999999999REMSYN069CMAN  16024 CASM1 46/// ///// 1//// 90136 90136 222// 0010555  91204;
0084997275999992010011603004+43650-070250FM-18+0010CASM1V02099999999999999999N9999999N1+99999+99999999999REMSYN075CMAN  16034 CASM1 46/// ///// 1//// 90254 52006 90300 222// 0001 333 91204;
0078997275999992010011604004+43650-070250FM-18+0010CASM1V02099999999999999999N9999999N1+99999+99999999999REMSYN069CMAN  16044 CASM1 46/// ///// 1//// 90336 90336 222// 0010555  91202;
0072997275999992010011605004+43650-070250FM-18+0010CASM1V02099999999999999999N9999999N1+99999+99999999999REMSYN063CMAN  16054 CASM1 46/// ///// 1//// 90436 90436 222// 00101205;
0078997275999992010011606004+43650-070250FM-18+0010CASM1V02099999999999999999N9999999N1+99999+99999999999REMSYN069CMAN  16064 CASM1 46/// ///// 1//// 90536 90536 222// 0009555  91205;
0000997275999992010011607004+43650-070250FM-18+0010CASM1V02099999999999999999N9999999N1+99999+99999999999
0150997275999992010011608004+43650-070250FM-18+0010CASM1V02099999999999999999N9999999N1+99999+99999999999REMSYN141CMAN  16084 CASM1 46/// ///// 1//// 90742 57003 90800 333 91221 555 11017 22018 30754 418023 60759 186015 180008 165004 167004 140 ICE /////;
0072997275999992010011609004+43650-070250FM-18+0010CASM1V02099999999999999999N9999999N1+99999+99999999999REMSYN063CMAN  16094 CASM1 46/// ///// 1//// 90836 90836 222// 0009555 ;
0078997275999992010011610004+43650-070250FM-18+0010CASM1V02099999999999999999N9999999N1+99999+99999999999REMSYN069CMAN  16104 CASM1 46/// ///// 1//// 90936 90936 222// 0009555  91204;
0078997275999992010011611004+43650-070250FM-18+0010CASM1V02099999999999999999N9999999N1+99999+99999999999REMSYN069CMAN  16114 CASM1 46/// ///// 1//// 91036 91040 333 91220 555  91204;
0000997275999992010011612004+43650-070250FM-18+0010CASM1V02099999999999999999N9999999N1+99999+99999999999
0099997275999992010011613004+43650-070250FM-18+0010CASM1V02099999999999999999N9999999N1+99999+99999999999REMSYN090CMAN  16134 CASM1 46/// ///// 1//// 91236 91236 222// 0009555 106 21005 325// 41104 70031;
0078997275999992010011614004+43650-070250FM-18+0010CASM1V02099999999999999999N9999999N1+99999+99999999999REMSYN069CMAN  16144 CASM1 46/// ///// 1//// 91336 91336 222// 0009555  91203;
0090997275999992010011615004+43650-070250FM-18+0010CASM1V02099999999999999999N9999999N1+99999+99999999999REMSYN081CMAN  16154 CASM1 46/// ///// 1//// 91436 91436 222// 0009555  58011 82816 83635;
0078997275999992010011616004+43650-070250FM-18+0010CASM1V02099999999999999999N9999999N1+99999+99999999999REMSYN069CMAN  16164 CASM1 46/// ///// 1//// 91536 91536 222// 0009555  91204;
0000997275999992010011617004+43650-070250FM-18+0010CASM1V02099999999999999999N9999999N1+99999+99999999999
0078997275999992010011618004+43650-070250FM-18+0010CASM1V02099999999999999999N9999999N1+99999+99999999999REMSYN069CMAN  16184 CASM1 46/// ///// 1//// 91736 91736 222// 0009555  91206;
0078997275999992010011619004+43650-070250FM-18+0010CASM1V02099999999999999999N9999999N1+99999+99999999999REMSYN069CMAN  16194 CASM1 46/// ///// 1//// 91836 91836 222// 0009555  91205;
0000997275999992010011620004+43650-070250FM-18+0010CASM1V02099999999999999999N9999999N1+99999+99999999999
0099997275999992010011621004+43650-070250FM-18+0010CASM1V02099999999999999999N9999999N1+99999+99999999999REMSYN090CMAN  16214 CASM1 46/// ///// 1//// 92036 92036 222// 0009555 5 555 003 326// 41403 70022;
0078997275999992010011622004+43650-070250FM-18+0010CASM1V02099999999999999999N9999999N1+99999+99999999999REMSYN069CMAN  16224 CASM1 46/// ///// 1//// 92136 92136 222// 0009555  91205;
0000997275999992010011623004+43650-070250FM-18+0010CASM1V02099999999999999999N9999999N1+99999+99999999999
0078997275999992010011700004+43650-070250FM-18+0010CASM1V02099999999999999999N9999999N1+99999+99999999999REMSYN069CMAN  17004 CASM1 46/// ///// 1//// 92336 92336 222// 0009555  91204;
0090997275999992010011701004+43650-070250FM-18+0010CASM1V02099999999999999999N9999999N1+99999+99999999999REMSYN081CMAN  17014 CASM1 46/// ///// 1//// 90036 90036 222// 0009 76664 886// 333 88705;
0068997275999992010011702004+43650-070250FM-18+0010CASM1V02099999999999999999N9999999N1+99999+99999999999REMSYN059CMAN  17024 CASM1 46/// ///// 1//// 90136 90136 222// 0001;
0078997275999992010011703004+43650-070250FM-18+0010CASM1V02099999999999999999N9999999N1+99999+99999999999REMSYN069CMAN  17034 CASM1 46/// ///// 1//// 90236 90236 222// 0009555  91205;
0078997275999992010011704004+43650-070250FM-18+0010CASM1V02099999999999999999N9999999N1+99999+99999999999REMSYN069CMAN  17044 CASM1 46/// ///// 1//// 90336 90336 222// 0001 333 91205;
0078997275999992010011705004+43650-070250FM-18+0010CASM1V02099999999999999999N9999999N1+99999+99999999999REMSYN069CMAN  17054 CASM1 46/// ///// 1//// 90436 90436 222// 0009555  91206;
0078997275999992010011706004+43650-070250FM-18+0010CASM1V02099999999999999999N9999999N1+99999+99999999999REMSYN069CMAN  17064 CASM1 46/// ///// 1//// 90536 90536 222// 0009555  91209;
0109997275999992010011707004+43650-070250FM-18+0010CASM1V02099999999999999999N9999999N1+99999+99999999999REMSYN100CMAN  17074 CASM1 46/// ///// 1//// 90636 90636 222// 000991227 555 0 20000 30000 83/27 87/46 87/56;
0078997275999992010011708004+43650-070250FM-18+0010CASM1V02099999999999999999N9999999N1+99999+99999999999REMSYN069CMAN  17084 CASM1 46/// ///// 1//// 90736 90736 333 91220 555  91204;
0085997275999992010011709004+43650-070250FM-18+0010CASM1V02099999999999999999N9999999N1+99999+99999999999REMSYN076CMAN  17094 CASM1 46/// ///// 1//// 90836 90836 222// 0009555 3 81650 87272;
0000997275999992010011710004+43650-070250FM-18+0010CASM1V02099999999999999999N9999999N1+99999+99999999999
0078997275999992010011711004+43650-070250FM-18+0010CASM1V02099999999999999999N9999999N1+99999+99999999999REMSYN069CMAN  17114 CASM1 46/// ///// 1//// 91036 91036 222// 0009555  91204;
0078997275999992010011712004+43650-070250FM-18+0010CASM1V02099999999999999999N9999999N1+99999+99999999999REMSYN069CMAN  17124 CASM1 46/// ///// 1//// 91136 91136 222// 0009555  91201;
0000997275999992010011713004+43650-070250FM-18+0010CASM1V02099999999999999999N9999999N1+99999+99999999999
0078997275999992010011714004+43650-070250FM-18+0010CASM1V02099999999999999999N9999999N1+99999+99999999999REMSYN069CMAN  17144 CASM1 46/// ///// 1//// 91336 91336 222// 0001555  91223;
0000997275999992010011715004+43650-070250FM-18+0010CASM1V02099999999999999999N9999999N1+99999+99999999999
0099997275999992010011716004+43650-070250FM-18+0010CASM1V02099999999999999999N9999999N1+99999+99999999999REMSYN090CMAN  17164 CASM1 46/// ///// 1//// 91536 91536 222// 0009555 007 21006 326// 41103 70033;
0099997275999992010011717004+43650-070250FM-18+0010CASM1V02099999999999999999N9999999N1+99999+99999999999REMSYN090CMAN  17174 CASM1 46/// ///// 1//// 91636 91636 222// 00095 11305 20904 327// 41303 70025;
0078997275999992010011718004+43650-070250FM-18+0010CASM1V02099999999999999999N9999999N1+99999+99999999999REMSYN069CMAN  17184 CASM1 46/// ///// 1//// 91736 91736 222// 0009555  91205;
0078997275999992010011719004+43650-070250FM-18+0010CASM1V02099999999999999999N9999999N1+99999+99999999999REMSYN069CMAN  17194 CASM1 46/// ///// 1//// 91836 91836 222// 0009555  91206;
0000997275999992010011720004+43650-070250FM-18+0010CASM1V02099999999999999999N9999999N1+99999+99999999999
0078997275999992010011721004+43650-070250FM-18+0010CASM1V02099999999999999999N9999999N1+99999+99999999999REMSYN069CMAN  17214 CASM1 46/// ///// 1//// 92036 92036 222// 0009555  91222;
0078997275999992010011722004+43650-070250FM-18+0010CASM1V02099999999999999999N9999999N1+99999+99999999999REMSYN069CMAN  17224 CASM1 46/// ///// 1//// 92136 92136 222// 0002 333 58002;
0078997275999992010011723004+43650-070250FM-18+0010CASM1V02099999999999999999N9999999N1+99999+99999999999REMSYN069CMAN  17234 CASM1 46/// ///// 1//// 92236 92236 222// 0009555  91219;
0000997275999992010011800004+43650-070250FM-18+0010CASM1V02099999999999999999N9999999N1+99999+99999999999
0078997275999992010011801004+43650-070250FM-18+0010CASM1V02099999999999999999N9999999N1+99999+99999999999REMSYN069CMAN  18014 CASM1 46/// ///// 1//// 90036 90036 222// 0010555  91209;
0082997275999992010011802004+43650-070250FM-18+0010CASM1V02099999999999999999N9999999N1+99999+99999999999REMSYN073CMAN  18024 CASM1 46/// ///// 1//// 90136 90136 222// 001055 11011 22012;
0078997275999992010011803004+43650-070250FM-18+0010CASM1V02099999999999999999N9999999N1+99999+99999999999REMSYN069CMAN  18034 CASM1 46/// ///// 1//// 90236 90236 222// 0010555  91220;
0000997275999992010011804004+43650-070250FM-18+0010CASM1V02099999999999999999N9999999N1+99999+99999999999
0078997275999992010011805004+43650-070250FM-18+0010CASM1V02099999999999999999N9999999N1+99999+99999999999REMSYN069CMAN  18054 CASM1 46/// ///// 1//// 90436 90436 222// 0010555  91222;
0078997275999992010011806004+43650-070250FM-18+0010CASM1V02099999999999999999N9999999N1+99999+99999999999REMSYN069CMAN  18064 CASM1 46/// ///// 1//// 90536 90536 222// 0010555  91224;
0000997275999992010011807004+43650-070250FM-18+0010CASM1V02099999999999999999N9999999N1+99999+99999999999
0149997275999992010011808004+43650-070250FM-18+0010CASM1V02099999999999999999N9999999N1+99999+99999999999REMSYN140CMAN  18084 CASM1 46/// ///// 1//// 90736 90736 222// 00021209 555 11007 22007 30740 434012 60759 334006 327006 340007 320004 260003 311004;
0000997275999992010011809004+43650-070250FM-18+0010CASM1V02099999999999999999N9999999N1+99999+99999999999
0078997275999992010011810004+43650-070250FM-18+0010CASM1V02099999999999999999N9999999N1+99999+99999999999REMSYN069CMAN  18104 CASM1 46/// ///// 1//// 90936 90936 222// 0009 333 91209;
0072997275999992010011811004+43650-070250FM-18+0010CASM1V02099999999999999999N9999999N1+99999+99999999999REMSYN063CMAN  18114 CASM1 46/// ///// 1//// 91036 91036 222// 0009555 ;
0078997275999992010011812004+43650-070250FM-18+0010CASM1V02099999999999999999N9999999N1+99999+99999999999REMSYN069CMAN  18124 CASM1 46/// ///// 1//// 91136 91136 222// 0009555  91223;
0078997275999992010011813004+43650-070250FM-18+0010CASM1V02099999999999999999N9999999N1+99999+99999999999REMSYN069CMAN  18134 CASM1 46/// ///// 1//// 91236 91236 222// 0009555  91203;
0000997275999992010011814004+43650-070250FM-18+0010CASM1V02099999999999999999N9999999N1+99999+99999999999
0078997275999992010011815004+43650-070250FM-18+0010CASM1V02099999999999999999N9999999N1+99999+99999999999REMSYN069CMAN  18154 CASM1 46/// ///// 1//// 91436 91436 222// 0009 333 91222;
0000997275999992010011816004+43650-070250FM-18+0010CASM1V02099999999999999999N9999999N1+99999+99999999999
0078997275999992010011817004+43650-070250FM-18+0010CASM1V02099999999999999999N9999999N1+99999+99999999999REMSYN069CMAN  18174 CASM1 46/// ///// 1//// 91636 91636 222// 0010555  91220;
0078997275999992010011818004+43650-070250FM-18+0010CASM1V02099999999999999999N9999999N1+99999+99999999999REMSYN069CMAN  18184 CASM1 46/// ///// 1//// 91736 91736 222// 0010555  91225;
0078997275999992010011819004+43650-070250FM-18+0010CASM1V02099999999999999999N9999999N1+99999+99999999999REMSYN069CMAN  18194 CASM1 46/// ///// 1//// 91836 91836 222// 0010555  91237;
0078997275999992010011820004+43650-070250FM-18+0010CASM1V02099999999999999999N9999999N1+99999+99999999999REMSYN069CMAN  18204 CASM1 46/// ///// 1//// 91936 91936 222// 0010 333 91205;
0078997275999992010011821004+43650-070250FM-18+0010CASM1V02099999999999999999N9999999N1+99999+99999999999REMSYN069CMAN  18214 CASM1 46/// ///// 1//// 92036 92036 222// 0010555  91226;
0078997275999992010011822004+43650-070250FM-18+0010CASM1V02099999999999999999N9999999N1+99999+99999999999REMSYN069CMAN  18224 CASM1 46/// ///// 1//// 92136 92136 222// 0010 333 91222;
0099997275999992010011823004+43650-070250FM-18+0010CASM1V02099999999999999999N9999999N1+99999+99999999999REMSYN090CMAN  18234 CASM1 46/// ///// 1//// 92236 92236 222// 0010555 308 20904 325// 41307 70042;
0000997275999992010011900004+43650-070250FM-18+0010CASM1V02099999999999999999N9999999N1+99999+99999999999
0084997275999992010011901004+43650-070250FM-18+0010CASM1V02099999999999999999N9999999N1+99999+99999999999REMSYN075CMAN  19014 CASM1 46/// ///// 1//// 90054 51020 90100 222// 0002 333 91222;
0072997275999992010011902004+43650-070250FM-18+0010CASM1V02099999999999999999N9999999N1+99999+99999999999REMSYN063CMAN  19024 CASM1 46/// ///// 1//// 90136 90136 222// 00021215;
0078997275999992010011903004+43650-070250FM-18+0010CASM1V02099999999999999999N9999999N1+99999+99999999999REMSYN069CMAN  19034 CASM1 46/// ///// 1//// 90236 90236 222// 0011555  91215;
0078997275999992010011904004+43650-070250FM-18+0010CASM1V02099999999999999999N9999999N1+99999+99999999999REMSYN069CMAN  19044 CASM1 46/// ///// 1//// 90336 90336 222// 0011555  91217;
0078997275999992010011905004+43650-070250FM-18+0010CASM1V02099999999999999999N9999999N1+99999+99999999999REMSYN069CMAN  19054 CASM1 46/// ///// 1//// 90436 90436 222// 0011555  91205;
0082997275999992010011906004+43650-070250FM-18+0010CASM1V02099999999999999999N9999999N1+99999+99999999999REMSYN073CMAN  19064 CASM1 46/// ///// 1//// 90536 90536 222// 001155 11004 22004;
0080997275999992010011907004+43650-070250FM-18+0010CASM1V02099999999999999999N9999999N1+99999+99999999999REMSYN071CMAN  19074 CASM1 46/// ///// 1//// 90636 90636 222// 0011555 50 00017;
0066997275999992010011908004+43650-070250FM-18+0010CASM1V02099999999999999999N9999999N1+99999+99999999999REMSYN057CMAN  19084 CASM1 46/// ///// 1//// 90736 9073 333 91208;
0078997275999992010011909004+43650-070250FM-18+0010CASM1V02099999999999999999N9999999N1+99999+99999999999REMSYN069CMAN  19094 CASM1 46/// ///// 1//// 90836 90836 222// 0011555  91221;
0078997275999992010011910004+43650-070250FM-18+0010CASM1V02099999999999999999N9999999N1+99999+99999999999REMSYN069CMAN  19104 CASM1 46/// ///// 1//// 90936 90936 222// 0011555  91225;
0078997275999992010011911004+43650-070250FM-18+0010CASM1V02099999999999999999N9999999N1+99999+99999999999REMSYN069CMAN  19114 CASM1 46/// ///// 1//// 91036 91036 222// 0010555  91228;
0078997275999992010011912004+43650-070250FM-18+0010CASM1V02099999999999999999N9999999N1+99999+99999999999REMSYN069CMAN  19124 CASM1 46/// ///// 1//// 91136 91136 222// 0010555  91232;
0084997275999992010011913004+43650-070250FM-18+0010CASM1V02099999999999999999N9999999N1+99999+99999999999REMSYN075CMAN  19134 CASM1 46/// ///// 1//// 91254 54000 91300 222// 0001 333 91229;
0078997275999992010011914004+43650-070250FM-18+0010CASM1V02099999999999999999N9999999N1+99999+99999999999REMSYN069CMAN  19144 CASM1 46/// ///// 1//// 91336 91336 222// 0010555  91229;
0078997275999992010011915004+43650-070250FM-18+0010CASM1V02099999999999999999N9999999N1+99999+99999999999REMSYN069CMAN  19154 CASM1 46/// ///// 1//// 91436 91436 222// 0010555  91207;
0072997275999992010011916004+43650-070250FM-18+0010CASM1V02099999999999999999N9999999N1+99999+99999999999REMSYN063CMAN  19164 CASM1 46/// ///// 1//// 91536 91536 222// 0011555 ;
0082997275999992010011917004+43650-070250FM-18+0010CASM1V02099999999999999999N9999999N1+99999+99999999999REMSYN073CMAN  19174 CASM1 46/// ///// 1//// 91636 91636 222// 001155 11002 22002;
0072997275999992010011918004+43650-070250FM-18+0010CASM1V02099999999999999999N9999999N1+99999+99999999999REMSYN063CMAN  19184 CASM1 46/// ///// 1//// 91736 91736 222// 0011555 ;
0000997275999992010011919004+43650-070250FM-18+0010CASM1V02099999999999999999N9999999N1+99999+99999999999
0078997275999992010011920004+43650-070250FM-18+0010CASM1V02099999999999999999N9999999N1+99999+99999999999REMSYN069CMAN  19204 CASM1 46/// ///// 1//// 91942 1936 222// 00115 333 91214;
0078997275999992010011921004+43650-070250FM-18+0010CASM1V02099999999999999999N9999999N1+99999+99999999999REMSYN069CMAN  19214 CASM1 46/// ///// 1//// 92036 92036 333 91219 555  91222;
0078997275999992010011922004+43650-070250FM-18+0010CASM1V02099999999999999999N9999999N1+99999+99999999999REMSYN069CMAN  19224 CASM1 46/// ///// 1//// 92136 92136 222// 0011 333 91217;
0066997275999992010011923004+43650-070250FM-18+0010CASM1V02099999999999999999N9999999N1+99999+99999999999REMSYN057CMAN  19234 CASM1 46/// ///// 1//// 92236 9223 333 91211;
0090997275999992010012000004+43650-070250FM-18+0010CASM1V02099999999999999999N9999999N1+99999+99999999999REMSYN081CMAN  20004 CASM1 46/// ///// 1//// 92336 92336 222// 0011555 22 875// 333 87610;
0203997275999992010012001004+43650-070250FM-18+0010CASM1V02099999999999999999N9999999N1+99999+99999999999REMSYN194CMAN  20014 CASM1 46/// ///// 1//// 90042 90036 222// 000391222 555 200 00246 11307 20401 331// 41307 70033 333 91206 555 11045 22046 30034 43206 60049 322043 318042 319039 322040 321041 319041;
0078997275999992010012002004+43650-070250FM-18+0010CASM1V02099999999999999999N9999999N1+99999+99999999999REMSYN069CMAN  20024 CASM1 46/// ///// 1//// 90136 90136 222// 0012555  91221;
0078997275999992010012003004+43650-070250FM-18+0010CASM1V02099999999999999999N9999999N1+99999+99999999999REMSYN069CMAN  20034 CASM1 46/// ///// 1//// 90236 90236 222// 0012555  91221;
0078997275999992010012004004+43650-070250FM-18+0010CASM1V02099999999999999999N9999999N1+99999+99999999999REMSYN069CMAN  20044 CASM1 46/// ///// 1//// 90336 90336 222// 0011555  91216;
0072997275999992010012005004+43650-070250FM-18+0010CASM1V02099999999999999999N9999999N1+99999+99999999999REMSYN063CMAN  20054 CASM1 46/// ///// 1//// 90436 90436 222// 0011555 ;
0078997275999992010012006004+43650-070250FM-18+0010CASM1V02099999999999999999N9999999N1+99999+99999999999REMSYN069CMAN  20064 CASM1 46/// ///// 1//// 90536 90536 222// 0011555  91211;
0078997275999992010012007004+43650-070250FM-18+0010CASM1V02099999999999999999N9999999N1+99999+99999999999REMSYN069CMAN  20074 CASM1 46/// ///// 1//// 90636 90636 222// 0011 333 91216;
0078997275999992010012008004+43650-070250FM-18+0010CASM1V02099999999999999999N9999999N1+99999+99999999999REMSYN069CMAN  20084 CASM1 46/// ///// 1//// 90736 90736 222// 0011 333 91214;
0072997275999992010012009004+43650-070250FM-18+0010CASM1V02099999999999999999N9999999N1+99999+99999999999REMSYN063CMAN  20094 CASM1 46/// ///// 1//// 90842 90836 222// 00031207;
0000997275999992010012010004+43650-070250FM-18+0010CASM1V02099999999999999999N9999999N1+99999+99999999999
0084997275999992010012011004+43650-070250FM-18+0010CASM1V02099999999999999999N9999999N1+99999+99999999999REMSYN075CMAN  20114 CASM1 46/// ///// 1//// 91048 53010 91100 222// 0002 333 91227;
0078997275999992010012012004+43650-070250FM-18+0010CASM1V02099999999999999999N9999999N1+99999+99999999999REMSYN069CMAN  20124 CASM1 46/// ///// 1//// 91136 91136 222// 0011555  91225;
0078997275999992010012013004+43650-070250FM-18+0010CASM1V02099999999999999999N9999999N1+99999+99999999999REMSYN069CMAN  20134 CASM1 46/// ///// 1//// 91236 91236 222// 0011555  91232;
0078997275999992010012014004+43650-070250FM-18+0010CASM1V02099999999999999999N9999999N1+99999+99999999999REMSYN069CMAN  20144 CASM1 46/// ///// 1//// 91336 91336 222// 0011555  91203;
0072997275999992010012015004+43650-070250FM-18+0010CASM1V02099999999999999999N9999999N1+99999+99999999999REMSYN063CMAN  20154 CASM1 46/// ///// 1//// 91436 91436 222// 0011555 ;
0000997275999992010012016004+43650-070250FM-18+0010CASM1V02099999999999999999N9999999N1+99999+99999999999
0078997275999992010012017004+43650-070250FM-18+0010CASM1V02099999999999999999N9999999N1+99999+99999999999REMSYN069CMAN  20174 CASM1 46/// ///// 1//// 91636 91630 333 91216 555  91237;
0134997275999992010012018004+43650-070250FM-18+0010CASM1V02099999999999999999N9999999N1+99999+99999999999REMSYN125CMAN  20184 CASM1 46/// ///// 1//// 91742 91736 222// 0003 40133 51013 70322 82465 22274 04271 20205 31112 40306 50204 80250;
0078997275999992010012019004+43650-070250FM-18+0010CASM1V02099999999999999999N9999999N1+99999+99999999999REMSYN069CMAN  20194 CASM1 46/// ///// 1//// 91836 91836 222// 0012555  91222;
0078997275999992010012020004+43650-070250FM-18+0010CASM1V02099999999999999999N9999999N1+99999+99999999999REMSYN069CMAN  20204 CASM1 46/// ///// 1//// 91936 91936 222// 0002 333 91217;
0078997275999992010012021004+43650-070250FM-18+0010CASM1V02099999999999999999N9999999N1+99999+99999999999REMSYN069CMAN  20214 CASM1 46/// ///// 1//// 92036 92036 222// 0012555  91219;
0078997275999992010012022004+43650-070250FM-18+0010CASM1V02099999999999999999N9999999N1+99999+99999999999REMSYN069CMAN  20224 CASM1 46/// ///// 1//// 92136 92136 222// 0012555  91220;
0078997275999992010012023004+43650-070250FM-18+0010CASM1V02099999999999999999N9999999N1+99999+99999999999REMSYN069CMAN  20234 CASM1 46/// ///// 1//// 92236 92236 222// 0012555  91216;
0099997275999992010012100004+43650-070250FM-18+0010CASM1V02099999999999999999N9999999N1+99999+99999999999REMSYN090CMAN  21004 CASM1 46/// ///// 1//// 92336 92336 222// 0012555 506 20903 326// 41505 70032;
0078997275999992010012101004+43650-070250FM-18+0010CASM1V02099999999999999999N9999999N1+99999+99999999999REMSYN069CMAN  21014 CASM1 46/// ///// 1//// 90036 90036 222// 0012555  91221;
0150997275999992010012102004+43650-070250FM-18+0010CASM1V02099999999999999999N9999999N1+99999+99999999999REMSYN141CMAN  21024 CASM1 46/// ///// 1//// 90136 90136 222// 0012555 90 54000 7//// 82895 22234 00140 2//// 3//// 4//// 5//// 6//// 80250 ICE /////;
0078997275999992010012103004+43650-070250FM-18+0010CASM1V02099999999999999999N9999999N1+99999+99999999999REMSYN069CMAN  21034 CASM1 46/// ///// 1//// 90236 90236 222// 0012555  91221;
0078997275999992010012104004+43650-070250FM-18+0010CASM1V02099999999999999999N9999999N1+99999+99999999999REMSYN069CMAN  21044 CASM1 46/// ///// 1//// 90336 90336 222// 0012555  91223;
0082997275999992010012105004+43650-070250FM-18+0010CASM1V02099999999999999999N9999999N1+99999+99999999999REMSYN073CMAN  21054 CASM1 46/// ///// 1//// 90436 90436 222// 001255 11012 22013;
0078997275999992010012106004+43650-070250FM-18+0010CASM1V02099999999999999999N9999999N1+99999+99999999999REMSYN069CMAN  21064 CASM1 46/// ///// 1//// 90536 90536 222// 0012 333 91219;
0078997275999992010012107004+43650-070250FM-18+0010CASM1V02099999999999999999N9999999N1+99999+99999999999REMSYN069CMAN  21074 CASM1 46/// ///// 1//// 90636 90636 222// 0012555  91218;
0066997275999992010012108004+43650-070250FM-18+0010CASM1V02099999999999999999N9999999N1+99999+99999999999REMSYN057CMAN  21084 CASM1 46/// ///// 1//// 90736 0736 333 91205;
0078997275999992010012109004+43650-070250FM-18+0010CASM1V02099999999999999999N9999999N1+99999+99999999999REMSYN069CMAN  21094 CASM1 46/// ///// 1//// 90836 90836 222// 0012555  91223;
0078997275999992010012110004+43650-070250FM-18+0010CASM1V02099999999999999999N9999999N1+99999+99999999999REMSYN069CMAN  21104 CASM1 46/// ///// 1//// 90936 90930 333 91207 555  91215;
0078997275999992010012111004+43650-070250FM-18+0010CASM1V02099999999999999999N9999999N1+99999+99999999999REMSYN069CMAN  21114 CASM1 46/// ///// 1//// 91036 91036 333 91202 555  91212;
0078997275999992010012112004+43650-070250FM-18+0010CASM1V02099999999999999999N9999999N1+99999+99999999999REMSYN069CMAN  21124 CASM1 46/// ///// 1//// 91136 91136 222// 0012555  91215;
0084997275999992010012113004+43650-070250FM-18+0010CASM1V02099999999999999999N9999999N1+99999+99999999999REMSYN075CMAN  21134 CASM1 46/// ///// 1//// 91254 52022 91300 222// 0001 333 91204;
0072997275999992010012114004+43650-070250FM-18+0010CASM1V02099999999999999999N9999999N1+99999+99999999999REMSYN063CMAN  21144 CASM1 46/// ///// 1//// 91342 91336 222// 00031213;
0000997275999992010012115004+43650-070250FM-18+0010CASM1V02099999999999999999N9999999N1+99999+99999999999
0078997275999992010012116004+43650-070250FM-18+0010CASM1V02099999999999999999N9999999N1+99999+99999999999REMSYN069CMAN  21164 CASM1 46/// ///// 1//// 91536 91536 222// 0013555  91207;
0078997275999992010012117004+43650-070250FM-18+0010CASM1V02099999999999999999N9999999N1+99999+99999999999REMSYN069CMAN  21174 CASM1 46/// ///// 1//// 91636 91636 222// 0013555  91205;
0000997275999992010012118004+43650-070250FM-18+0010CASM1V02099999999999999999N9999999N1+99999+99999999999
0078997275999992010012119004+43650-070250FM-18+0010CASM1V02099999999999999999N9999999N1+99999+99999999999REMSYN069CMAN  21194 CASM1 46/// ///// 1//// 91836 91836 222// 0013 333 91208;
0082997275999992010012120004+43650-070250FM-18+0010CASM1V02099999999999999999N9999999N1+99999+99999999999REMSYN073CMAN  21204 CASM1 46/// ///// 1//// 91936 91936 222// 001455 11011 22011;
0078997275999992010012121004+43650-070250FM-18+0010CASM1V02099999999999999999N9999999N1+99999+99999999999REMSYN069CMAN  21214 CASM1 46/// ///// 1//// 92036 92036 222// 0014 333 91209;
0151997275999992010012122004+43650-070250FM-18+0010CASM1V02099999999999999999N9999999N1+99999+99999999999REMSYN142CMAN  21224 CASM1 46/// ///// 1//// 92136 92136 222// 0014555 0113 5//// 7//// 8//// 222// 04210 2//// 3//// 4//// 5//// 6//// 8//// ICE ////;
0078997275999992010012123004+43650-070250FM-18+0010CASM1V02099999999999999999N9999999N1+99999+99999999999REMSYN069CMAN  21234 CASM1 46/// ///// 1//// 92236 92236 222// 0014555  91217;
0099997275999992010012200004+43650-070250FM-18+0010CASM1V02099999999999999999N9999999N1+99999+99999999999REMSYN090CMAN  22004 CASM1 46/// ///// 1//// 92336 92336 222// 0014555 908 20907 326// 41304 70042;
0078997275999992010012201004+43650-070250FM-18+0010CASM1V02099999999999999999N9999999N1+99999+99999999999REMSYN069CMAN  22014 CASM1 46/// ///// 1//// 90036 90036 222// 0014555  91208;
0084997275999992010012202004+43650-070250FM-18+0010CASM1V02099999999999999999N9999999N1+99999+99999999999REMSYN075CMAN  22024 CASM1 46/// ///// 1//// 90154 58008 90200 222// 0002 333 91203;
0078997275999992010012203004+43650-070250FM-18+0010CASM1V02099999999999999999N9999999N1+99999+99999999999REMSYN069CMAN  22034 CASM1 46/// ///// 1//// 90236 90236 222// 0014555  91207;
0078997275999992010012204004+43650-070250FM-18+0010CASM1V02099999999999999999N9999999N1+99999+99999999999REMSYN069CMAN  22044 CASM1 46/// ///// 1//// 90336 90336 222// 0001555  91215;
0078997275999992010012205004+43650-070250FM-18+0010CASM1V02099999999999999999N9999999N1+99999+99999999999REMSYN069CMAN  22054 CASM1 46/// ///// 1//// 90436 90436 222// 0013555  91208;
0078997275999992010012206004+43650-070250FM-18+0010CASM1V02099999999999999999N9999999N1+99999+99999999999REMSYN069CMAN  22064 CASM1 46/// ///// 1//// 90536 90536 222// 0013555  91206;
0078997275999992010012207004+43650-070250FM-18+0010CASM1V02099999999999999999N9999999N1+99999+99999999999REMSYN069CMAN  22074 CASM1 46/// ///// 1//// 90636 90636 222// 0013555  91207;
0082997275999992010012208004+43650-070250FM-18+0010CASM1V02099999999999999999N9999999N1+99999+99999999999REMSYN073CMAN  22084 CASM1 46/// ///// 1//// 90736 90736 222// 001455 11015 22016;
0078997275999992010012209004+43650-070250FM-18+0010CASM1V02099999999999999999N9999999N1+99999+99999999999REMSYN069CMAN  22094 CASM1 46/// ///// 1//// 90836 90836 222// 0013555  91211;
0082997275999992010012210004+43650-070250FM-18+0010CASM1V02099999999999999999N9999999N1+99999+99999999999REMSYN073CMAN  22104 CASM1 46/// ///// 1//// 90936 90936 222// 001355 11013 22013;
0078997275999992010012211004+43650-070250FM-18+0010CASM1V02099999999999999999N9999999N1+99999+99999999999REMSYN069CMAN  22114 CASM1 46/// ///// 1//// 91036 91036 222// 0014555  91207;
0078997275999992010012212004+43650-070250FM-18+0010CASM1V02099999999999999999N9999999N1+99999+99999999999REMSYN069CMAN  22124 CASM1 46/// ///// 1//// 91136 91136 222// 0014555  91210;
0084997275999992010012213004+43650-070250FM-18+0010CASM1V02099999999999999999N9999999N1+99999+99999999999REMSYN075CMAN  22134 CASM1 46/// ///// 1//// 91236 91236 222// 0014555 // 333 88708;
0078997275999992010012214004+43650-070250FM-18+0010CASM1V02099999999999999999N9999999N1+99999+99999999999REMSYN069CMAN  22144 CASM1 46/// ///// 1//// 91336 91336 222// 0014555  91211;
0000997275999992010012215004+43650-070250FM-18+0010CASM1V02099999999999999999N9999999N1+99999+99999999999
0078997275999992010012216004+43650-070250FM-18+0010CASM1V02099999999999999999N9999999N1+99999+99999999999REMSYN069CMAN  22164 CASM1 46/// ///// 1//// 91536 91536 222// 0014555  91220;
0076997275999992010012217004+43650-070250FM-18+0010CASM1V02099999999999999999N9999999N1+99999+99999999999REMSYN067CMAN  22174 CASM1 46/// ///// 1//// 91636 91636 222// 0001555 7002;
0084997275999992010012218004+43650-070250FM-18+0010CASM1V02099999999999999999N9999999N1+99999+99999999999REMSYN075CMAN  22184 CASM1 46/// ///// 1//// 91736 50000 91800 222// 0014 333 91210;
0084997275999992010012219004+43650-070250FM-18+0010CASM1V02099999999999999999N9999999N1+99999+99999999999REMSYN075CMAN  22194 CASM1 46/// ///// 1//// 91906 58020 91900 222// 0013 333 91211;
0062997275999992010012220004+43650-070250FM-18+0010CASM1V02099999999999999999N9999999N1+99999+99999999999REMSYN053CMAN 22204 CASM1 46/// ///// 1//// 92024 222// 00029;
0078997275999992010012221004+43650-070250FM-18+0010CASM1V02099999999999999999N9999999N1+99999+99999999999REMSYN069CMAN  22214 CASM1 46/// ///// 1//// 92036 92036 222// 0014555  91204;
0078997275999992010012222004+43650-070250FM-18+0010CASM1V02099999999999999999N9999999N1+99999+99999999999REMSYN069CMAN  22224 CASM1 46/// ///// 1//// 92142 92136 222// 0014 333 91207;
0072997275999992010012223004+43650-070250FM-18+0010CASM1V02099999999999999999N9999999N1+99999+99999999999REMSYN063CMAN  22234 CASM1 46/// ///// 1//// 92236 92236 222// 0013555 ;
0000997275999992010012300004+43650-070250FM-18+0010CASM1V02099999999999999999N9999999N1+99999+99999999999
0079997275999992010012301004+43650-070250FM-18+0010CASM1V02099999999999999999N9999999N1+99999+99999999999REMSYN070CMAN  23014 CASM1 46/// ///// 1//// 90036 90036 222// 0013555 0 82073;
0000997275999992010012302004+43650-070250FM-18+0010CASM1V02099999999999999999N9999999N1+99999+99999999999
0084997275999992010012303004+43650-070250FM-18+0010CASM1V02099999999999999999N9999999N1+99999+99999999999REMSYN075CMAN  23034 CASM1 46/// ///// 1//// 90248 53026 90300 222// 0001 333 91209;
0078997275999992010012304004+43650-070250FM-18+0010CASM1V02099999999999999999N9999999N1+99999+99999999999REMSYN069CMAN  23044 CASM1 46/// ///// 1//// 90336 90336 222// 0013555  91210;
0000997275999992010012305004+43650-070250FM-18+0010CASM1V02099999999999999999N9999999N1+99999+99999999999
0082997275999992010012306004+43650-070250FM-18+0010CASM1V02099999999999999999N9999999N1+99999+99999999999REMSYN073CMAN  23064 CASM1 46/// ///// 1//// 90536 90536 222// 001355 11007 22007;
0078997275999992010012307004+43650-070250FM-18+0010CASM1V02099999999999999999N9999999N1+99999+99999999999REMSYN069CMAN  23074 CASM1 46/// ///// 1//// 90636 90636 222// 0013555  91212;
0190997275999992010012308004+43650-070250FM-18+0010CASM1V02099999999999999999N9999999N1+99999+99999999999REMSYN181CMAN  23084 CASM1 46/// ///// 1//// 90736 51019 90800 333 91212 555 11009 22009 30747 414013 60759 137010 138010 138010 136009 1391124 555 3/115 58500 69999 70600 92039 92436 96071;
0149997275999992010012309004+43650-070250FM-18+0010CASM1V02099999999999999999N9999999N1+99999+99999999999REMSYN140CMAN  23094 CASM1 46/// ///// 1//// 90836 51018 90900 222// 0001555 11003 22003 30816 418005 60859 278001 037001 108003 171002 18 ICE /////;
0078997275999992010012310004+43650-070250FM-18+0010CASM1V02099999999999999999N9999999N1+99999+99999999999REMSYN069CMAN  23104 CASM1 46/// ///// 1//// 90954 91002 91000 222// 00021208;
0088997275999992010012311004+43650-070250FM-18+0010CASM1V02099999999999999999N9999999N1+99999+99999999999REMSYN079CMAN  23114 CASM1 46/// ///// 1//// 91036 91036 222// 0013555  555 11025 22026;
0000997275999992010012313004+43650-070250FM-18+0010CASM1V02099999999999999999N9999999N1+99999+99999999999
0078997275999992010012314004+43650-070250FM-18+0010CASM1V02099999999999999999N9999999N1+99999+99999999999REMSYN069CMAN  23144 CASM1 46/// ///// 1//// 91336 91336 222// 0013555  91211;
0078997275999992010012315004+43650-070250FM-18+0010CASM1V02099999999999999999N9999999N1+99999+99999999999REMSYN069CMAN  23154 CASM1 46/// ///// 1//// 91436 91436 222// 0013555  91217;
0078997275999992010012316004+43650-070250FM-18+0010CASM1V02099999999999999999N9999999N1+99999+99999999999REMSYN069CMAN  23164 CASM1 46/// ///// 1//// 91536 91536 222// 0014555  91210;
0078997275999992010012317004+43650-070250FM-18+0010CASM1V02099999999999999999N9999999N1+99999+99999999999REMSYN069CMAN  23174 CASM1 46/// ///// 1//// 91636 91636 222// 0014555  91209;
0078997275999992010012318004+43650-070250FM-18+0010CASM1V02099999999999999999N9999999N1+99999+99999999999REMSYN069CMAN  23184 CASM1 46/// ///// 1//// 91736 91736 222// 0001555  91213;
0078997275999992010012319004+43650-070250FM-18+0010CASM1V02099999999999999999N9999999N1+99999+99999999999REMSYN069CMAN  23194 CASM1 46/// ///// 1//// 91836 91836 222// 0014555  91215;
0078997275999992010012320004+43650-070250FM-18+0010CASM1V02099999999999999999N9999999N1+99999+99999999999REMSYN069CMAN  23204 CASM1 46/// ///// 1//// 91936 91936 222// 0014555  91210;
0078997275999992010012321004+43650-070250FM-18+0010CASM1V02099999999999999999N9999999N1+99999+99999999999REMSYN069CMAN  23214 CASM1 46/// ///// 1//// 92036 92036 222// 0014555  91207;
0000997275999992010012322004+43650-070250FM-18+0010CASM1V02099999999999999999N9999999N1+99999+99999999999
0068997275999992010012323004+43650-070250FM-18+0010CASM1V02099999999999999999N9999999N1+99999+99999999999REMSYN059CMAN  23234 CASM1 46/// ///// 1//// 92236 92236 222// 0014;
0078997275999992010012400004+43650-070250FM-18+0010CASM1V02099999999999999999N9999999N1+99999+99999999999REMSYN069CMAN  24004 CASM1 46/// ///// 1//// 92336 92336 222// 0014555  91203;
0078997275999992010012401004+43650-070250FM-18+0010CASM1V02099999999999999999N9999999N1+99999+99999999999REMSYN069CMAN  24014 CASM1 46/// ///// 1//// 90036 90036 222// 0014555  91203;
0078997275999992010012402004+43650-070250FM-18+0010CASM1V02099999999999999999N9999999N1+99999+99999999999REMSYN069CMAN  24024 CASM1 46/// ///// 1//// 90136 90136 222// 0014555  91201;
0078997275999992010012403004+43650-070250FM-18+0010CASM1V02099999999999999999N9999999N1+99999+99999999999REMSYN069CMAN  24034 CASM1 46/// ///// 1//// 90236 90236 222// 0014555  91202;
0099997275999992010012404004+43650-070250FM-18+0010CASM1V02099999999999999999N9999999N1+99999+99999999999REMSYN090CMAN  24044 CASM1 46/// ///// 1//// 90336 90336 222// 00144 11305 20903 327// 41303 70023;
0078997275999992010012405004+43650-070250FM-18+0010CASM1V02099999999999999999N9999999N1+99999+99999999999REMSYN069CMAN  24054 CASM1 46/// ///// 1//// 90436 90436 222// 0014555  91204;
0078997275999992010012406004+43650-070250FM-18+0010CASM1V02099999999999999999N9999999N1+99999+99999999999REMSYN069CMAN  24064 CASM1 46/// ///// 1//// 90536 90536 222// 0014 333 91202;
0078997275999992010012407004+43650-070250FM-18+0010CASM1V02099999999999999999N9999999N1+99999+99999999999REMSYN069CMAN  24074 CASM1 46/// ///// 1//// 90636 90636 222// 0014555  91204;
0000997275999992010012408004+43650-070250FM-18+0010CASM1V02099999999999999999N9999999N1+99999+99999999999
0108997275999992010012409004+43650-070250FM-18+0010CASM1V02099999999999999999N9999999N1+99999+99999999999REMSYN099CMAN  24094 CASM1 46/// ///// 1//// 90836 90836 222// 0014555 6 555 // 333 20125 32006 85816 84620;
0078997275999992010012410004+43650-070250FM-18+0010CASM1V02099999999999999999N9999999N1+99999+99999999999REMSYN069CMAN  24104 CASM1 46/// ///// 1//// 90936 90936 222// 0014 333 91205;
0078997275999992010012411004+43650-070250FM-18+0010CASM1V02099999999999999999N9999999N1+99999+99999999999REMSYN069CMAN  24114 CASM1 46/// ///// 1//// 91036 91036 222// 0014555  91208;
0078997275999992010012412004+43650-070250FM-18+0010CASM1V02099999999999999999N9999999N1+99999+99999999999REMSYN069CMAN  24124 CASM1 46/// ///// 1//// 91136 91136 222// 0014555  91206;
0078997275999992010012413004+43650-070250FM-18+0010CASM1V02099999999999999999N9999999N1+99999+99999999999REMSYN069CMAN  24134 CASM1 46/// ///// 1//// 91236 91236 222// 0014555  91204;
0078997275999992010012414004+43650-070250FM-18+0010CASM1V02099999999999999999N9999999N1+99999+99999999999REMSYN069CMAN  24144 CASM1 46/// ///// 1//// 91336 91336 222// 0014555  91203;
0078997275999992010012415004+43650-070250FM-18+0010CASM1V02099999999999999999N9999999N1+99999+99999999999REMSYN069CMAN  24154 CASM1 46/// ///// 1//// 91436 91436 222// 0014555  91208;
