0078997707999992011012014004+43317-070550FM-18+0006WELM1V0203201N003119999999N9999999N1-00321+99999101351REMSYN069CMAN 20144 WELM1 46/// /3206 11032 40135 91348 222// 00031 333 91208;
0084997707999992011012015004+43317-070550FM-18+0006WELM1V0203501N001519999999N9999999N1-00311+99999101291REMSYN075CMAN  20154 WELM1 46/// /3503 11031 40129 91436 222// 00033 10701 70008/12;
0000997707999992011012016004+43317-070550FM-18+0006WELM1V0203401N002619999999N9999999N1-00281+99999101351
0090997707999992011012017004+43317-070550FM-18+0006WELM1V0202901N002119999999N9999999N1-00191+99999101281REMSYN081CMAN  20174 WELM1 46/// /2904 11019 40128 91636 222// 0003 10701 70003 333 91209;
0000997707999992011012018004+43317-070550FM-18+0006WELM1V0202501N002119999999N9999999N1-00201+99999101231
0099997707999992011012019004+43317-070550FM-18+0006WELM1V0202601N002619999999N9999999N1-00191+99999101291REMSYN090CMAN  20194 WELM1 46/// /2605 11019 40129 91836 222// 00028 11809 21002 331// 41809 70047;
0090997707999992011012020004+43317-070550FM-18+0006WELM1V0202901N004119999999N9999999N1-00201+99999101301REMSYN081CMAN  20204 WELM1 46/// /2908 11020 40130 91936 222// 0001 10701 70003 333 91212;
0203997707999992011012021004+43317-070550FM-18+0006WELM1V0202801N002119999999N9999999N1-00241+99999101321REMSYN194CMAN  20214 WELM1 46/// /2804 11024 40132 92036 222// 00013 92050 22200 00234 11710 20603 331// 41709 70048 333 91211 555 11085 22091 32026 41113 62049 111080 103084 108093 110080 109076 110063;
0114997707999992011012022004+43317-070550FM-18+0006WELM1V0202801N001519999999N9999999N1-00291+99999101291REMSYN105CMAN  20224 WELM1 46/// /2803 11029 40129 92136 222// 00015 10601 7000 22200 00127 10808 70039 555 1/041;
0000997707999992011012023004+43317-070550FM-18+0006WELM1V0202601N002119999999N9999999N1-00411+99999101311
0128997707999992011012100004+43317-070550FM-18+0006WELM1V0202801N001519999999N9999999N1-00481+99999101271REMSYN119CMAN  21004 WELM1 46/// /2803 11048 40127 92336 222// 00014 10601 7000 70222 85147 2229/ 299// 3//// 4//// 5//// 80240;
0088997707999992011012101004+43317-070550FM-18+0006WELM1V0202901N001019999999N9999999N1-00471+99999101251REMSYN079CMAN  21014 WELM1 46/// /2902 11047 40125 90036 222// 00011214 555 11012 22013;
0084997707999992011012102004+43317-070550FM-18+0006WELM1V0202601N001019999999N9999999N1-00491+99999101201REMSYN075CMAN  21024 WELM1 46/// /2602 11049 40120 90136 222// 0003 875// 333 87633;
0000997707999992011012103004+43317-070550FM-18+0006WELM1V0203201N001019999999N9999999N1-00471+99999101141
0091997707999992011012104004+43317-070550FM-18+0006WELM1V0203401N001019999999N9999999N1-00471+99999101081REMSYN082CMAN  21044 WELM1 46/// /3402 11047 40108 90336 222// 000391216 555 4 55074 /7577;
0000997707999992011012105004+43317-070550FM-18+0006WELM1V0203401N002119999999N9999999N1-00491+99999100981
0084997707999992011012106004+43317-070550FM-18+0006WELM1V0203401N001519999999N9999999N1-00511+99999100921REMSYN075CMAN  21064 WELM1 46/// /3403 11051 40092 90536 222// 0003 333 55300 88/07;
0000997707999992011012107004+43317-070550FM-18+0006WELM1V0203401N001019999999N9999999N1-00501+99999100891
0000997707999992011012108004+43317-070550FM-18+0006WELM1V0203601N002619999999N9999999N1-00541+99999100791
0078997707999992011012109004+43317-070550FM-18+0006WELM1V0203301N001019999999N9999999N1-00571+99999100711REMSYN069CMAN  21094 WELM1 46/// /3302 11057 40071 90836 222// 0001 333 91204;
0000997707999992011012110004+43317-070550FM-18+0006WELM1V0200201N004119999999N9999999N1-00591+99999100381
0000997707999992011012111004+43317-070550FM-18+0006WELM1V0203301N002619999999N9999999N1-00561+99999100371
0078997707999992011012112004+43317-070550FM-18+0006WELM1V0200101N004119999999N9999999N1-00591+99999100091REMSYN069CMAN  21124 WELM1 46/// /0108 11059 40009 91136 222// 0001 333 91205;
0000997707999992011012113004+43317-070550FM-18+0006WELM1V0200101N004619999999N9999999N1-00571+99999099961
0000997707999992011012114004+43317-070550FM-18+0006WELM1V0203601N005719999999N9999999N1-00551+99999099831
0078997707999992011012115004+43317-070550FM-18+0006WELM1V0203501N005719999999N9999999N1-00561+99999099731REMSYN069CMAN  21154 WELM1 46/// /3511 11056 49973 91436 222// 0002 333 91204;
0000997707999992011012116004+43317-070550FM-18+0006WELM1V0203601N006719999999N9999999N1-00541+99999099451
0197997707999992011012117004+43317-070550FM-18+0006WELM1V0203401N006719999999N9999999N1-00531+99999099261REMSYN188CMAN  21174 WELM1 46/// /3413 11053 49926 91636 222// 000291218 555 139 11502 20401 329// 41502 70010 333 91202 555 11019 22023 31553 41203 61649 103015 101015 092018 104018 110017 119022;
0150997707999992011012118004+43317-070550FM-18+0006WELM1V0203301N008219999999N9999999N1-00461+99999099161REMSYN141CMAN  21184 WELM1 46/// /3316 11046 49916 91736 222// 0002 40100 54000 7//00 8//// 22200 00280 2//// 3//// 4//// 5//// 6//// 80210 ICE /////;
0078997707999992011012119004+43317-070550FM-18+0006WELM1V0203201N006719999999N9999999N1-00281+99999099151REMSYN069CMAN  21194 WELM1 46/// /3213 11028 49915 91836 222// 0002 333 91206;
0114997707999992011012120004+43317-070550FM-18+0006WELM1V0203201N006219999999N9999999N1-00201+99999099191REMSYN105CMAN  21204 WELM1 46/// /3212 11020 49919 91936 222// 00019 10501 7000 22200 00127 10808 70042 555 1/041;
0090997707999992011012121004+43317-070550FM-18+0006WELM1V0203101N006219999999N9999999N1-00241+99999099311REMSYN081CMAN  21214 WELM1 46/// /3112 11024 49931 92036 222// 0000 10501 70003 333 91211;
0078997707999992011012122004+43317-070550FM-18+0006WELM1V0203101N007719999999N9999999N1-00341+99999099441REMSYN069CMAN  21224 WELM1 46/// /3115 11034 49944 92136 222// 000091218 555 ;
0000997707999992011012123004+43317-070550FM-18+0006WELM1V0203001N007219999999N9999999N1-00461+99999099641
0090997707999992011012200004+43317-070550FM-18+0006WELM1V0203001N005719999999N9999999N1-00501+99999099771REMSYN081CMAN  22004 WELM1 46/// /3011 11050 49977 92336 222// 0000 10501 70003 333 91205;
0088997707999992011012201004+43317-070550FM-18+0006WELM1V0203001N004619999999N9999999N1-00581+99999099921REMSYN079CMAN  22014 WELM1 46/// /3009 11058 49992 90036 222// 01001213 555 11010 22011;
0185997707999992011012202004+43317-070550FM-18+0006WELM1V0203101N005119999999N9999999N1-00631+99999100021REMSYN176CMAN  22024 WELM1 46/// /3110 11063 40002 90136 222// 00004 90150 22200 10606 20606 70028 333 91214 555 11138 22148 30054 40315 60149 083129 081127 069125 063126 068127 072129;
0068997707999992011012203004+43317-070550FM-18+0006WELM1V0203001N006219999999N9999999N1-00691+99999100151REMSYN059CMAN  22034 WELM1 46/// /3012 11069 40015 90236 222// 0002;
0000997707999992011012204004+43317-070550FM-18+0006WELM1V0203101N006219999999N9999999N1-00731+99999100221
0197997707999992011012205004+43317-070550FM-18+0006WELM1V0203101N004619999999N9999999N1-00781+99999100291REMSYN188CMAN  22054 WELM1 46/// /3109 11078 40029 90436 222// 00030 22200 00250 11507 20804 3//// 41506 70033 333 91211 555 11094 22099 30444 41111 60449 102088 105084 100084 103081 099081 100078;
0085997707999992011012206004+43317-070550FM-18+0006WELM1V0203001N002619999999N9999999N1-00801+99999100381REMSYN076CMAN  22064 WELM1 46/// /3005 11080 40038 90536 222// 00034 1//00 700085280;
0130997707999992011012207004+43317-070550FM-18+0006WELM1V0202901N002619999999N9999999N1-00891+99999999999REMSYN121CMAN  22074 WELM1 46/// /2905 11089 90636 222// 0002/ 0001 60002 74944 333 11065 21074 48999 55000 70000 555 593// 92711;
0090997707999992011012208004+43317-070550FM-18+0006WELM1V0203301N003619999999N9999999N1-00871+99999999999REMSYN081CMAN  22084 WELM1 46/// /3307 11087 90736 222// 0001/ 0001 1//00 70002 333 91213;
0091997707999992011012209004+43317-070550FM-18+0006WELM1V0203201N004619999999N9999999N1-00871+99999999999REMSYN082CMAN  22094 WELM1 46/// /3209 11087 90836 222// 0000/ 00012 1//00 700084638 88463;
0088997707999992011012210004+43317-070550FM-18+0006WELM1V0203101N004119999999N9999999N1-00901+99999999999REMSYN079CMAN  22104 WELM1 46/// /3108 11090 90936 222// 0100/ 00241208 555 11006 22007;
0209997707999992011012211004+43317-070550FM-18+0006WELM1V0203201N004619999999N9999999N1-00921+99999999999REMSYN200CMAN  22114 WELM1 46/// /3209 11092 91036 222// 0100/ 00012 10901 70001 11207 20905 300// 41205 70037 333 91213 555 11115 22122 31005 42713 61049 271108 270099 273106 272103 272105 269108 82712 90951;
0090997707999992011012212004+43317-070550FM-18+0006WELM1V0203101N004619999999N9999999N1-00951+99999999999REMSYN081CMAN  22124 WELM1 46/// /3109 11095 91136 222// 0100/ 0001 10901 70003 333 91217;
0078997707999992011012213004+43317-070550FM-18+0006WELM1V0203101N003119999999N9999999N1-00971+99999999999REMSYN069CMAN  22134 WELM1 46/// /3106 11097 91236 222// 0100/ 0001 333 91206;
0000997707999992011012214004+43317-070550FM-18+0006WELM1V0203301N004619999999N9999999N1-00911+99999999999
0000997707999992011012215004+43317-070550FM-18+0006WELM1V0203301N005119999999N9999999N1-00821+99999999999
0088997707999992011012216004+43317-070550FM-18+0006WELM1V0203201N004119999999N9999999N1-00701+99999101151REMSYN079CMAN  22164 WELM1 46/// /3208 11070 40115 91536 222// 00031210 555 11009 22010;
0197997707999992011012217004+43317-070550FM-18+0006WELM1V0203001N004619999999N9999999N1-00631+99999101111REMSYN188CMAN  22174 WELM1 46/// /3009 11063 40111 91636 222// 00031 91700 333 91219 555 11013 22014 31621 430025 61659 291016 298016 295017 302017 291649 115076 112074 110071 107071 115071 117072;
0088997707999992011012218004+43317-070550FM-18+0006WELM1V0203201N004119999999N9999999N1-00541+99999101051REMSYN079CMAN  22184 WELM1 46/// /3208 11054 40105 91736 222// 00031209 555 11007 22007;
0128997707999992011012219004+43317-070550FM-18+0006WELM1V0203101N002119999999N9999999N1-00441+99999101061REMSYN119CMAN  22194 WELM1 46/// /3104 11044 40106 91836 222// 0003 40150 51020 70222 8//// 22213 00250 2//// 3//// 4//// 80230;
0088997707999992011012220004+43317-070550FM-18+0006WELM1V0202701N001519999999N9999999N1-00371+99999101091REMSYN079CMAN  22204 WELM1 46/// /2703 11037 40109 91936 222// 000291208 555 1009 22009;
0068997707999992011012221004+43317-070550FM-18+0006WELM1V0202601N001519999999N9999999N1-00401+99999101121REMSYN059CMAN  22214 WELM1 46/// /2603 11040 40112 92036 222// 0002;
0090997707999992011012222004+43317-070550FM-18+0006WELM1V0202401N002119999999N9999999N1-00521+99999101151REMSYN081CMAN  22224 WELM1 46/// /2404 11052 40115 92136 222// 0000 1//00 70002 333 91218;
0000997707999992011012223004+43317-070550FM-18+0006WELM1V0202901N001019999999N9999999N1-00581+99999101161
0000997707999992011012300004+43317-070550FM-18+0006WELM1V0202601N001019999999N9999999N1-00661+99999101211
0078997707999992011012301004+43317-070550FM-18+0006WELM1V0202901N001519999999N9999999N1-00801+99999101171REMSYN069CMAN  23014 WELM1 46/// /2903 11080 40117 90036 222// 0000 333 91201;
0090997707999992011012302004+43317-070550FM-18+0006WELM1V0200101N001019999999N9999999N1-01081+99999999999REMSYN081CMAN  23024 WELM1 46/// /0102 11108 90136 222// 0000/ 0001 10901 70003 333 91205;
0000997707999992011012303004+43317-070550FM-18+0006WELM1V0203301N000519999999N9999999N1-01251+99999999999
0000997707999992011012304004+43317-070550FM-18+0006WELM1V0203601N002119999999N9999999N1-01221+99999999999
0000997707999992011012305004+43317-070550FM-18+0006WELM1V0203501N001019999999N9999999N1-01241+99999999999
0090997707999992011012306004+43317-070550FM-18+0006WELM1V0203401N003119999999N9999999N1-01101+99999999999REMSYN081CMAN  23064 WELM1 46/// /3406 11110 90536 222// 0003/ 0001 1//00 70002 333 91206;
0141997707999992011012307004+43317-070550FM-18+0006WELM1V0203501N004119999999N9999999N1-01031+99999999999REMSYN132CMAN  23074 WELM1 46/// /3508 11103 90636 222// 0003/ 000191211 555 8//// 22200 0//// 20000 3//// 40000 50000 6//// 8//// ICE /////;
0108997707999992011012308004+43317-070550FM-18+0006WELM1V0203401N002619999999N9999999N1-01051+99999999999REMSYN099CMAN  23084 WELM1 46/// /3405 11105 90736 222// 0002/ 0001 69902 333 21080 30108 47001 86635 93101;
0000997707999992011012309004+43317-070550FM-18+0006WELM1V0203401N003119999999N9999999N1-01141+99999999999
0088997707999992011012310004+43317-070550FM-18+0006WELM1V0203501N003119999999N9999999N1-01081+99999999999REMSYN079CMAN  23104 WELM1 46/// /3506 11108 90936 222// 0000/ 00011209 555 11008 22009;
0000997707999992011012311004+43317-070550FM-18+0006WELM1V0203601N004119999999N9999999N1-01071+99999999999
0090997707999992011012312004+43317-070550FM-18+0006WELM1V0200101N006219999999N9999999N1-01061+99999999999REMSYN081CMAN  23124 WELM1 46/// /0112 11106 91136 222// 0100/ 0001 11101 70003 333 91203;
0079997707999992011012313004+43317-070550FM-18+0006WELM1V02099999999999999999N9999999N1-01081+99999999999REMSYN070CMAN  23134 WELM1 46/// ///11 11108 91236 222// 01008 333 91207 555 0;
0155997707999992011012314004+43317-070550FM-18+0006WELM1V0200101N005119999999N9999999N1-01051+99999999999REMSYN146CMAN  23144 WELM1 46/// /0110 11105 91336 222// 0100/ 000191215 555 2 555 11010 22010 31356 435014 61359 346010 349010 349009 348009 34017 012014;
0000997707999992011012315004+43317-070550FM-18+0006WELM1V0200101N004619999999N9999999N1-01011+99999999999
0078997707999992011012316004+43317-070550FM-18+0006WELM1V0203601N004619999999N9999999N1-00931+99999999999REMSYN069CMAN  23164 WELM1 46/// /3609 11093 91536 222// 0002/ 0001 333 91212;
0000997707999992011012317004+43317-070550FM-18+0006WELM1V02099999999999999999N9999999N1-00811+99999999999
0191997707999992011012318004+43317-070550FM-18+0006WELM1V0203501N005119999999N9999999N1-00621+99999100991REMSYN182CMAN  23184 WELM1 46/// /3510 11062 40099 91736 222// 000291215 555 11013 22013 31722 408018 61759 086014 086014 085015 083016 084 302015 311015 29336097 329093 322097 321095 321094;
0088997707999992011012319004+43317-070550FM-18+0006WELM1V0203501N006219999999N9999999N1-00561+99999101021REMSYN079CMAN  23194 WELM1 46/// /3512 11056 40102 91836 222// 00021218 555 11015 22016;
0084997707999992011012320004+43317-070550FM-18+0006WELM1V0203101N004619999999N9999999N1-00541+99999101091REMSYN075CMAN  23204 WELM1 46/// /3109 11054 40109 91936 222// 000291216 555  89/00;
0161997707999992011012321004+43317-070550FM-18+0006WELM1V0203201N005719999999N9999999N1-00661+99999101231REMSYN152CMAN  23214 WELM1 46/// /3211 11066 40123 92036 222// 00014 92050 333 91205 555 11033 22035 32017 41907 62049 165032 170034 172039 174042 185046 175044;
0090997707999992011012322004+43317-070550FM-18+0006WELM1V0203001N005719999999N9999999N1-00891+99999101391REMSYN081CMAN  23224 WELM1 46/// /3011 11089 40139 92136 222// 0001 10301 70004 333 91212;
0080997707999992011012323004+43317-070550FM-18+0006WELM1V0203001N007219999999N9999999N1-01091+99999101571REMSYN071CMAN  23234 WELM1 46/// /3014 11109 40157 92236 222// 0100 22220 00029;
0150997707999992011012400004+43317-070550FM-18+0006WELM1V0203301N004619999999N9999999N1-01251+99999999999REMSYN141CMAN  24004 WELM1 46/// /3309 11125 92336 222// 0100/ 00016 10301 70001 70007 333 91220 555 11017 22030001 40702 5//// 6//// 80122 ICE /////;
0000997707999992011012401004+43317-070550FM-18+0006WELM1V0203201N004619999999N9999999N1-01391+99999999999
0073997707999992011012402004+43317-070550FM-18+0006WELM1V0203101N004119999999N9999999N1-01521+99999999999REMSYN064CMAN  24024 WELM1 46/// /3108 11152 90136 222// 0100/ 000191113;
0090997707999992011012403004+43317-070550FM-18+0006WELM1V0203301N004619999999N9999999N1-01621+99999999999REMSYN081CMAN  24034 WELM1 46/// /3309 11162 90236 222// 0100/ 0001 10901 70003 333 91204;
0090997707999992011012404004+43317-070550FM-18+0006WELM1V0203101N002619999999N9999999N1-01721+99999999999REMSYN081CMAN  24044 WELM1 46/// /3105 11172 90336 222// 0001/ 0001 10901 70003 333 91202;
0090997707999992011012405004+43317-070550FM-18+0006WELM1V0203001N001519999999N9999999N1-01821+99999999999REMSYN081CMAN  24054 WELM1 46/// /3003 11182 90436 222// 0002/ 0001 11001 70003 333 91204;
0068997707999992011012406004+43317-070550FM-18+0006WELM1V0203201N003119999999N9999999N1-01891+99999999999REMSYN059CMAN  24064 WELM1 46/// /3206 11189 90536 222// 0002/ 0001;
0000997707999992011012407004+43317-070550FM-18+0006WELM1V0203001N003619999999N9999999N1-01961+99999999999
0090997707999992011012408004+43317-070550FM-18+0006WELM1V0203201N005119999999N9999999N1-01981+99999999999REMSYN081CMAN  24084 WELM1 46/// /3210 11198 90736 222// 0002/ 0001 1//00 70002 333 91210;
0068997707999992011012409004+43317-070550FM-18+0006WELM1V0203101N004119999999N9999999N1-02081+99999999999REMSYN059CMAN  24094 WELM1 46/// /3108 11208 90836 222// 0000/ 0001;
0090997707999992011012410004+43317-070550FM-18+0006WELM1V0203101N004619999999N9999999N1-02091+99999999999REMSYN081CMAN  24104 WELM1 46/// /3109 11209 90936 222// 0100/ 0001 1//00 70002 333 91211;
0085997707999992011012411004+43317-070550FM-18+0006WELM1V0203201N005719999999N9999999N1-02091+99999999999REMSYN076CMAN  24114 WELM1 46/// /3211 11209 91036 222// 0101/ 0001/ 333 85707 88616;
0000997707999992011012412004+43317-070550FM-18+0006WELM1V0203101N003619999999N9999999N1-02151+99999999999
0090997707999992011012413004+43317-070550FM-18+0006WELM1V0203101N004119999999N9999999N1-02141+99999999999REMSYN081CMAN  24134 WELM1 46/// /3108 11214 91236 222// 0101/ 0001 1//00 70002 333 91212;
0078997707999992011012414004+43317-070550FM-18+0006WELM1V0203201N003119999999N9999999N1-02051+99999999999REMSYN069CMAN  24144 WELM1 46/// /3206 11205 91336 222// 0101/ 0001 333 91205;
0078997707999992011012415004+43317-070550FM-18+0006WELM1V0203201N004619999999N9999999N1-01891+99999999999REMSYN069CMAN  24154 WELM1 46/// /3209 11189 91436 222// 0101/ 00010700 91117;
0000997707999992011012416004+43317-070550FM-18+0006WELM1V0203301N004619999999N9999999N1-01681+99999999999
0000997707999992011012417004+43317-070550FM-18+0006WELM1V0203101N005719999999N9999999N1-01511+99999999999
0068997707999992011012418004+43317-070550FM-18+0006WELM1V0203301N004619999999N9999999N1-01371+99999999999REMSYN059CMAN  24184 WELM1 46/// /3309 11137 91736 222// 0002/ 0001;
0089997707999992011012419004+43317-070550FM-18+0006WELM1V0203301N005719999999N9999999N1-01231+99999999999REMSYN080CMAN  24194 WELM1 46/// /3311 11123 91836 222// 0002/ 00017 11001 7000555 10071;
0090997707999992011012420004+43317-070550FM-18+0006WELM1V0203001N004119999999N9999999N1-01191+99999999999REMSYN081CMAN  24204 WELM1 46/// /3008 11119 91936 222// 0002/ 0001 11001 70003 333 91219;
0197997707999992011012421004+43317-070550FM-18+0006WELM1V0203101N004119999999N9999999N1-01181+99999999999REMSYN188CMAN  24214 WELM1 46/// /3108 11118 92036 222// 0001/ 00019 10301 70003 11405 20502 3//// 41405 70026 333 91208 555 11066 22069 32003 41309 62049 105062 109065 110067 112068 117068 117066;
0094997707999992011012422004+43317-070550FM-18+0006WELM1V0203201N004119999999N9999999N1-01251+99999999999REMSYN085CMAN  24224 WELM1 46/// /3208 11125 92136 222// 0001/ 000191210 555  83/04 555 7/093;
0074997707999992011012423004+43317-070550FM-18+0006WELM1V0203101N002119999999N9999999N1-01361+99999999999REMSYN065CMAN  24234 WELM1 46/// /3104 11136 92236 222// 0100/ 0001 88600;
0000997707999992011012500004+43317-070550FM-18+0006WELM1V0203201N003119999999N9999999N1-01451+99999999999
0078997707999992011012501004+43317-070550FM-18+0006WELM1V0202801N002119999999N9999999N1-01511+99999999999REMSYN069CMAN  25014 WELM1 46/// /2804 11151 90036 222// 0101/ 0001 333 91208;
0000997707999992011012502004+43317-070550FM-18+0006WELM1V0203001N003619999999N9999999N1-01561+99999999999
0000997707999992011012503004+43317-070550FM-18+0006WELM1V0203201N002119999999N9999999N1-01601+99999999999
0000997707999992011012504004+43317-070550FM-18+0006WELM1V0200101N002119999999N9999999N1-01591+99999999999
0082997707999992011012505004+43317-070550FM-18+0006WELM1V0203201N000519999999N9999999N1-01591+99999999999REMSYN073CMAN  25054 WELM1 46/// /3201 11159 90436 222// 01001218 555 11012 22012;
0088997707999992011012506004+43317-070550FM-18+0006WELM1V0203501N002119999999N9999999N1-01581+99999999999REMSYN079CMAN  25064 WELM1 46/// /3504 11158 90536 222// 0001/ 00011221 555 11019 22020;
0000997707999992011012507004+43317-070550FM-18+0006WELM1V0203401N001519999999N9999999N1-01561+99999999999
0088997707999992011012508004+43317-070550FM-18+0006WELM1V0203401N001519999999N9999999N1-01521+99999999999REMSYN079CMAN  25084 WELM1 46/// /3403 11152 90736 222// 0001 333 91221 555 11018 22019;
0091997707999992011012509004+43317-070550FM-18+0006WELM1V0202901N001019999999N9999999N1-01511+99999999999REMSYN082CMAN  25094 WELM1 46/// /2902 11151 90836 222// 0001/ 000191206 555 7 84630 88460;
0088997707999992011012510004+43317-070550FM-18+0006WELM1V0203001N001519999999N9999999N1-01501+99999999999REMSYN079CMAN  25104 WELM1 46/// /3003 11150 90936 222// 0001/ 00011214 555 11012 22013;
0149997707999992011012511004+43317-070550FM-18+0006WELM1V0203401N000519999999N9999999N1-01461+99999999999REMSYN140CMAN  25114 WELM1 46/// /3401 11146 91036 222// 0000/ 000191204 555 0 76362 8834/ 22254 00200 20402 325// 40502 5//// 6//// 80178 ICE /////;
0088997707999992011012512004+43317-070550FM-18+0006WELM1V0203501N002619999999N9999999N1-01491+99999999999REMSYN079CMAN  25124 WELM1 46/// /3505 11149 91136 222// 0101/ 00011204 555 11003 22003;
0209997707999992011012513004+43317-070550FM-18+0006WELM1V0203501N002119999999N9999999N1-01451+99999999999REMSYN200CMAN  25134 WELM1 46/// /3504 11145 91236 222// 0101/ 00017 10501 70001 11208 20604 300// 41207 70041 333 91211 555 11089 22094 31217 42312 61249 233084 229081 234080 235083 243080 241073 82310 91218;
0160997707999992011012514004+43317-070550FM-18+0006WELM1V0203001N001019999999N9999999N1-01291+99999999999REMSYN151CMAN  25144 WELM1 46/// /3002 11129 91342 222// 0101/ 00010 222// 00147 333 91217 555 11014 22016 31328 411024 61359 125014 126015 126014 123014 12220;
0090997707999992011012515004+43317-070550FM-18+0006WELM1V0203101N002619999999N9999999N1-01121+99999999999REMSYN081CMAN  25154 WELM1 46/// /3105 11112 91436 222// 0101/ 0000 10601 70006 333 91211;
0160997707999992011012516004+43317-070550FM-18+0006WELM1V0202701N001519999999N9999999N1-00941+99999999999REMSYN151CMAN  25164 WELM1 46/// /2703 11094 91536 222// 0101/ 00000 222// 00001 333 91204 555 11003 22004 31502 417007 61559 181003 183004 188004 191004 18400;
0090997707999992011012517004+43317-070550FM-18+0006WELM1V0202801N002119999999N9999999N1-00791+99999999999REMSYN081CMAN  25174 WELM1 46/// /2804 11079 91636 222// 0101/ 0000 10501 70006 333 91214;
0078997707999992011012518004+43317-070550FM-18+0006WELM1V0202501N001519999999N9999999N1-00751+99999999999REMSYN069CMAN  25184 WELM1 46/// /2503 11075 91736 222// 0001/ 0024 333 91214;
0088997707999992011012520004+43317-070550FM-18+0006WELM1V0202901N001519999999N9999999N1-00711+99999999999REMSYN079CMAN  25204 WELM1 46/// /2903 11071 91936 222// 0002/ 00008 10701 700021 22023;
0209997707999992011012521004+43317-070550FM-18+0006WELM1V0203401N002119999999N9999999N1-00631+99999999999REMSYN200CMAN  25214 WELM1 46/// /3404 11063 92036 222// 0002/ 00019 10801 70002 11209 20503 300// 41208 70045 333 91209 555 11072 22076 31958 42109 62049 209067 209064 205072 209067 216072 213073 82208 91952;
0078997707999992011012522004+43317-070550FM-18+0006WELM1V0202701N001019999999N9999999N1-00661+99999999999REMSYN069CMAN  25224 WELM1 46/// /2702 11066 92136 222// 0001/ 0024 333 91217;
0090997707999992011012523004+43317-070550FM-18+0006WELM1V0203301N000519999999N9999999N1-00771+99999999999REMSYN081CMAN  25234 WELM1 46/// /3301 11077 92236 222// 0001/ 0001 92030 333 90710 91110;
0090997707999992011012600004+43317-070550FM-18+0006WELM1V0203401N001519999999N9999999N1-00931+99999999999REMSYN081CMAN  26004 WELM1 46/// /3403 11093 92336 222// 0000/ 0001 10801 70006 333 91214;
0000997707999992011012601004+43317-070550FM-18+0006WELM1V0200101N002619999999N9999999N1-01001+99999999999
0090997707999992011012602004+43317-070550FM-18+0006WELM1V0203401N001019999999N9999999N1-01081+99999999999REMSYN081CMAN  26024 WELM1 46/// /3402 11108 90136 222// 0101/ 0001 10601 70007 333 91214;
0090997707999992011012603004+43317-070550FM-18+0006WELM1V0203301N002119999999N9999999N1-01151+99999999999REMSYN081CMAN  26034 WELM1 46/// /3304 11115 90236 222// 0101/ 0001 10702 70008 333 91221;
0000997707999992011012604004+43317-070550FM-18+0006WELM1V0203201N001519999999N9999999N1-01201+99999999999
0197997707999992011012605004+43317-070550FM-18+0006WELM1V0203401N002119999999N9999999N1-01291+99999999999REMSYN188CMAN  26054 WELM1 46/// /3404 11129 90436 222// 01004 90500 222// 00153 333 91207 555 11005 22006 30413 415017 60459 132007 140011 136011 145012 1529050 334051 330046 321045 322040 324040;
0197997707999992011012606004+43317-070550FM-18+0006WELM1V0203501N001019999999N9999999N1-01241+99999999999REMSYN188CMAN  26064 WELM1 46/// /3502 11124 90542 222// 0001/ 00010 222// 00152 333 91213 555 11011 22013 30557 413015 60559 130011 125011 114009 114008 1248035 347035 337039 335036 335040 335045;
0132997707999992011012607004+43317-070550FM-18+0006WELM1V0203501N002619999999N9999999N1-01231+99999999999REMSYN123CMAN  26074 WELM1 46/// /3505 11123 90636 222// 0001/ 0001555 9 555 9/ 82933 333 0//35 82820 81920 83360 94971 94973 95811;
0080997707999992011012608004+43317-070550FM-18+0006WELM1V0200101N002119999999N9999999N1-01271+99999999999REMSYN071CMAN  26084 WELM1 46/// /0104 11127 90736 222// 0001/ 00013 10902 7001;
0000997707999992011012609004+43317-070550FM-18+0006WELM1V0203501N002119999999N9999999N1-01221+99999999999
0090997707999992011012610004+43317-070550FM-18+0006WELM1V0203501N002119999999N9999999N1-01151+99999999999REMSYN081CMAN  26104 WELM1 46/// /3504 11115 90936 222// 0001/ 0001 10902 70012 333 91208;
0000997707999992011012611004+43317-070550FM-18+0006WELM1V0203401N003119999999N9999999N1-01181+99999999999
0097997707999992011012612004+43317-070550FM-18+0006WELM1V0200101N005119999999N9999999N1-01071+99999999999REMSYN088CMAN  26124 WELM1 46/// /0110 11107 91136 222// 0000/ 0001555 6 555 4 81916 83364 85278;
0088997707999992011012613004+43317-070550FM-18+0006WELM1V0203601N003119999999N9999999N1-01091+99999999999REMSYN079CMAN  26134 WELM1 46/// /3606 11109 91236 222// 010191203 555  555 11014 22015;
0203997707999992011012614004+43317-070550FM-18+0006WELM1V0203601N003119999999N9999999N1-01061+99999999999REMSYN194CMAN  26144 WELM1 46/// /3606 11106 91336 222// 0101/ 00010 222// 00153 333 91217 555 11015 22016 31327 429024 61359 318015 318014 312016 294017 255909 059026 059023 049029 037025 043022 059028;
0000997707999992011012615004+43317-070550FM-18+0006WELM1V0203501N004119999999N9999999N1-00981+99999999999
0000997707999992011012616004+43317-070550FM-18+0006WELM1V0203501N004119999999N9999999N1-00891+99999999999
0088997707999992011012617004+43317-070550FM-18+0006WELM1V0203501N002619999999N9999999N1-00711+99999999999REMSYN079CMAN  26174 WELM1 46/// /3505 11071 91636 222// 0101/ 00241207 555 11006 22007;
0000997707999992011012618004+43317-070550FM-18+0006WELM1V0200101N003119999999N9999999N1-00641+99999999999
0128997707999992011012619004+43317-070550FM-18+0006WELM1V0200201N002619999999N9999999N1-00581+99999999999REMSYN119CMAN  26194 WELM1 46/// /0205 11058 91836 222// 0001/ 0001 40042 57010 70222 835// 22224 00170 2//// 3//// 4//// 80130;
0088997707999992011012620004+43317-070550FM-18+0006WELM1V0203601N004119999999N9999999N1-00571+99999999999REMSYN079CMAN  26204 WELM1 46/// /3608 11057 91936 222// 0001/ 0001555  555 11000 22000;
0000997707999992011012621004+43317-070550FM-18+0006WELM1V0200101N005119999999N9999999N1-00541+99999999999
0078997707999992011012622004+43317-070550FM-18+0006WELM1V0200201N004619999999N9999999N1-00501+99999999999REMSYN069CMAN  26224 WELM1 46/// /0209 11050 92136 222// 0001/ 0001 333 91208;
0088997707999992011012623004+43317-070550FM-18+0006WELM1V0200101N006219999999N9999999N1-00481+99999999999REMSYN079CMAN  26234 WELM1 46/// /0112 11048 92236 222// 0001/ 00011208 555 11007 22007;
0078997707999992011012700004+43317-070550FM-18+0006WELM1V0200101N006719999999N9999999N1-00451+99999999999REMSYN069CMAN  27004 WELM1 46/// /0113 11045 92336 222// 0001/ 0001 333 91209;
0127997707999992011012701004+43317-070550FM-18+0006WELM1V0200201N005719999999N9999999N1-00401+99999999999REMSYN118CMAN  27014 WELM1 46/// /0211 11040 90036 222// 0000/ 000191213 555 0 70322 8//// 22274 00220 20503 317// 40503 80200;
0062997707999992011012702004+43317-070550FM-18+0006WELM1V0200201N006219999999N9999999N1-00321+99999999999REMSYN053CMAN  27024 WELM1 46/// /0212 11032 90136 222// 0100;
0000997707999992011012703004+43317-070550FM-18+0006WELM1V0200201N007219999999N9999999N1-00351+99999999999
0000997707999992011012704004+43317-070550FM-18+0006WELM1V0200201N007719999999N9999999N1-00321+99999999999
0000997707999992011012705004+43317-070550FM-18+0006WELM1V0200201N007719999999N9999999N1-00311+99999999999
0000997707999992011012706004+43317-070550FM-18+0006WELM1V0200101N007219999999N9999999N1-00371+99999999999
0094997707999992011012707004+43317-070550FM-18+0006WELM1V0200101N006719999999N9999999N1-00461+99999999999REMSYN085CMAN  27074 WELM1 46/// /0113 11046 90636 222// 0001/ 000056 40240 52019 22262 04050;
0000997707999992011012708004+43317-070550FM-18+0006WELM1V0200101N006719999999N9999999N1-00481+99999999999
0120997707999992011012709004+43317-070550FM-18+0006WELM1V0200101N006719999999N9999999N1-00491+99999999999REMSYN111CMAN  27094 WELM1 46/// /0113 11049 90836 222// 0001/ 0000 77777 877// 333 55300 20012 30012 41098 82703 87704;
0078997707999992011012710004+43317-070550FM-18+0006WELM1V0200101N008719999999N9999999N1-00501+99999999999REMSYN069CMAN  27104 WELM1 46/// /0117 11050 90936 222// 0001/ 0000555 0 555 ;
0124997707999992011012711004+43317-070550FM-18+0006WELM1V0203601N006719999999N9999999N1-00481+99999999999REMSYN115CMAN  27114 WELM1 46/// /3613 11048 91036 222// 0001/ 0000555 322 877// 22275 00190 20302 333 // 40703 5//// 80138;
0082997707999992011012712004+43317-070550FM-18+0006WELM1V0203501N006719999999N9999999N1-00491+99999999999REMSYN073CMAN  27124 WELM1 46/// /3513 11049 91136 222// 0000/ 000055 11006 22007;
0138997707999992011012713004+43317-070550FM-18+0006WELM1V0203501N008219999999N9999999N1-00421+99999999999REMSYN129CMAN  27134 WELM1 46/// /3516 11042 91236 222// 0100/ 002591203 555 61 22263 0//// 2//// 3//// 4//// 5//// 6//// 80120 ICE /////;
0088997707999992011012714004+43317-070550FM-18+0006WELM1V0203501N006219999999N9999999N1-00321+99999999999REMSYN079CMAN  27144 WELM1 46/// /3512 11032 91336 222// 0101/ 0000555 3 555 1003 22003;
0079997707999992011012715004+43317-070550FM-18+0006WELM1V0203301N005719999999N9999999N1-00201+99999999999REMSYN070CMAN  27154 WELM1 46/// /3311 11020 91436 222// 0101/ 0000555 4 555 8;
0000997707999992011012716004+43317-070550FM-18+0006WELM1V0203201N006219999999N9999999N1-00131+99999100011
0000997707999992011012717004+43317-070550FM-18+0006WELM1V0203401N006219999999N9999999N1+00011+99999100021
0078997707999992011012718004+43317-070550FM-18+0006WELM1V0203501N005719999999N9999999N1+00111+99999100011REMSYN069CMAN  27184 WELM1 46/// /3511 10011 40001 91736 222// 0101 333 91208;
0197997707999992011012719004+43317-070550FM-18+0006WELM1V0203501N007219999999N9999999N1+00131+99999100011REMSYN188CMAN  27194 WELM1 46/// /3514 10013 40001 91836 222// 01010 222// 00005 333 91214 555 11012 22013 31800 429017 61859 287013 282012 285011 291012 2826046 118047 100054 096058 090060 087058;
0100997707999992011012720004+43317-070550FM-18+0006WELM1V0203201N004119999999N9999999N1+00171+99999100151REMSYN091CMAN  27204 WELM1 46/// /3208 10017 40015 91936 222// 0002 91950 333 82/05 85/30 555 7/097;
0000997707999992011012721004+43317-070550FM-18+0006WELM1V0203401N004119999999N9999999N1+00151+99999100231
0088997707999992011012722004+43317-070550FM-18+0006WELM1V0202901N002619999999N9999999N1+00051+99999100341REMSYN079CMAN  27224 WELM1 46/// /2905 10005 40034 92136 222// 00021206 555 11005 22005;
0096997707999992011012723004+43317-070550FM-18+0006WELM1V0203301N001519999999N9999999N1-00091+99999100421REMSYN087CMAN  27234 WELM1 46/// /3303 11009 40042 92236 222// 0002 77177 888// 333 81810 88613;
0197997707999992011012800004+43317-070550FM-18+0006WELM1V0203301N001519999999N9999999N1-00251+99999100511REMSYN188CMAN  28004 WELM1 46/// /3303 11025 40051 92336 222// 000291210 555 254 11204 20401 3//// 41204 70019 333 91205 555 11040 22041 32342 43605 62349 000039 008033 008028 018026 023023 036019;
0000997707999992011012801004+43317-070550FM-18+0006WELM1V0203101N002119999999N9999999N1-00291+99999100551
0078997707999992011012802004+43317-070550FM-18+0006WELM1V0202901N002119999999N9999999N1-00391+99999100641REMSYN069CMAN  28024 WELM1 46/// /2904 11039 40064 90136 222// 0001 333 91206;
0096997707999992011012803004+43317-070550FM-18+0006WELM1V0203001N001519999999N9999999N1-00461+99999100641REMSYN087CMAN  28034 WELM1 46/// /3003 11046 40064 90236 222// 0000 83201 333 561/9 83820 86079;
0096997707999992011012804004+43317-070550FM-18+0006WELM1V0202901N000519999999N9999999N1-00541+99999100681REMSYN087CMAN  28044 WELM1 46/// /2901 11054 40068 90336 222// 0000 77074 333 89/00 95090 95190;
0082997707999992011012805004+43317-070550FM-18+0006WELM1V0202901N001519999999N9999999N1-00591+99999100761REMSYN073CMAN  28054 WELM1 46/// /2903 11059 40076 90436 222// 0000555 1007 22007;
0097997707999992011012806004+43317-070550FM-18+0006WELM1V0202801N001019999999N9999999N1-00601+99999100761REMSYN088CMAN  28064 WELM1 46/// /2802 11060 40076 90536 222// 0000/ 333 5619/ 82818 84640 88465;
0187997707999992011012807004+43317-070550FM-18+0006WELM1V0203601N001019999999N9999999N1-00641+99999100801REMSYN178CMAN  28074 WELM1 46/// /3602 11064 40080 90648 222// 000091221 555 11017 22019 30631 409025 60659 081018 083019 085021 083021 089 174011 169012 1549 068049 066052 069052 057049;
0080997707999992011012808004+43317-070550FM-18+0006WELM1V0209999C000019999999N9999999N1-00741+99999100801REMSYN071CMAN  28084 WELM1 46/// /0000 11074 40080 90736 222// 0001 77172 887//;
0000997707999992011012809004+43317-070550FM-18+0006WELM1V0202901N001019999999N9999999N1-00801+99999999999
0082997707999992011012810004+43317-070550FM-18+0006WELM1V0203001N001519999999N9999999N1-00791+99999999999REMSYN073CMAN  28104 WELM1 46/// /3003 11079 90936 222// 0001/ 000155 11012 22013;
0000997707999992011012811004+43317-070550FM-18+0006WELM1V0200301N000519999999N9999999N1-00731+99999999999
0149997707999992011012812004+43317-070550FM-18+0006WELM1V0202801N000519999999N9999999N1-00751+99999999999REMSYN140CMAN  28124 WELM1 46/// /2801 11075 91136 222// 000191216 555 1 555 0 70222 865// 22265 00178 20101 331// 40903 5//// 6//// 80117 ICE /////;
0078997707999992011012813004+43317-070550FM-18+0006WELM1V0209999C000019999999N9999999N1-00691+99999999999REMSYN069CMAN  28134 WELM1 46/// /0000 11069 91236 222// 0001/ 0001 333 91203;
0000997707999992011012814004+43317-070550FM-18+0006WELM1V0202801N000519999999N9999999N1-00531+99999100981
0197997707999992011012815004+43317-070550FM-18+0006WELM1V0200201N001019999999N9999999N1-00341+99999101011REMSYN188CMAN  28154 WELM1 46/// /0202 11034 40101 91436 222// 00009 91500 333 91209 555 11007 22007 31419 434011 61459 351007 346006 346007 343007 341449 075012 112008 121016 126006 140015 139023;
0197997707999992011012816004+43317-070550FM-18+0006WELM1V0209999C000019999999N9999999N1-00111+99999101031REMSYN188CMAN  28164 WELM1 46/// /0000 11011 40103 91536 222// 000091224 555 11017 22018 31517 418025 61559 168018 166020 164019 170019 176 161007 159007 1535001 341005 333006 277005 286006 342007;
0088997707999992011012817004+43317-070550FM-18+0006WELM1V0201401N002119999999N9999999N1-00071+99999100971REMSYN079CMAN  28174 WELM1 46/// /1404 11007 40097 91636 222// 00005 10502 700008 22008;
0000997707999992011012818004+43317-070550FM-18+0006WELM1V0201801N003119999999N9999999N1-00011+99999100921
0090997707999992011012819004+43317-070550FM-18+0006WELM1V0201601N002619999999N9999999N1-00021+99999100871REMSYN081CMAN  28194 WELM1 46/// /1605 11002 40087 91836 222// 0000 10502 70011 333 91219;
0088997707999992011012820004+43317-070550FM-18+0006WELM1V0201401N002619999999N9999999N1+00011+99999100871REMSYN079CMAN  28204 WELM1 46/// /1405 10001 40087 91936 222// 00008 10702 700105 22006;
0105997707999992011012821004+43317-070550FM-18+0006WELM1V0201901N004119999999N9999999N1+00101+99999100881REMSYN096CMAN  28214 WELM1 46/// /1908 10010 40088 92036 222// 00028 10602 7000017 40031 999 00204 42///;
0000997707999992011012822004+43317-070550FM-18+0006WELM1V0202101N003619999999N9999999N1+00031+99999100901
0078997707999992011012823004+43317-070550FM-18+0006WELM1V0202201N002619999999N9999999N1-00101+99999100941REMSYN069CMAN  28234 WELM1 46/// /2205 11010 40094 92236 222// 0002 333 91206;
0090997707999992011012900004+43317-070550FM-18+0006WELM1V0202301N001519999999N9999999N1-00161+99999100951REMSYN081CMAN  29004 WELM1 46/// /2303 11016 40095 92336 222// 0002 10602 70010 333 91209;
0000997707999992011012901004+43317-070550FM-18+0006WELM1V0209999C000019999999N9999999N1-00361+99999100981
0078997707999992011012902004+43317-070550FM-18+0006WELM1V0202601N001519999999N9999999N1-00291+99999100991REMSYN069CMAN  29024 WELM1 46/// /2603 11029 40099 90136 222// 0001 333 91218;
0000997707999992011012903004+43317-070550FM-18+0006WELM1V0203301N001019999999N9999999N1-00271+99999100981
0000997707999992011012904004+43317-070550FM-18+0006WELM1V0203201N001019999999N9999999N1-00301+99999100991
0000997707999992011012905004+43317-070550FM-18+0006WELM1V0203001N001519999999N9999999N1-00291+99999100991
0097997707999992011012906004+43317-070550FM-18+0006WELM1V0203001N001019999999N9999999N1-00301+99999100991REMSYN088CMAN  29064 WELM1 46/// /3002 11030 40099 90536 222// 00018 333 56299 81820 84365 88275;
0073997707999992011012907004+43317-070550FM-18+0006WELM1V0203401N000519999999N9999999N1-00301+99999100991REMSYN064CMAN  29074 WELM1 46/// /3401 11030 40099 90636 222// 000191116;
0128997707999992011012908004+43317-070550FM-18+0006WELM1V0209999C000019999999N9999999N1-00371+99999100981REMSYN119CMAN  29084 WELM1 46/// /0000 11037 40098 90736 222// 0001 40160 53020 70200 811// 22224 00139 20201 332// 40603 80120;
0073997707999992011012909004+43317-070550FM-18+0006WELM1V0203501N000519999999N9999999N1-00411+99999100991REMSYN064CMAN  29094 WELM1 46/// /3501 11041 40099 90836 222// 000291120;
0139997707999992011012910004+43317-070550FM-18+0006WELM1V0203301N001019999999N9999999N1-00451+99999100991REMSYN130CMAN  29104 WELM1 46/// /3302 11045 40099 90936 222// 00020 333 56770 86706 90066 90084 92435 92851 94070 94040 94476 95080 98530;
0000997707999992011012911004+43317-070550FM-18+0006WELM1V0200101N001519999999N9999999N1-00421+99999101021
0000997707999992011012912004+43317-070550FM-18+0006WELM1V0203401N002119999999N9999999N1-00411+99999101051
0000997707999992011012913004+43317-070550FM-18+0006WELM1V0203101N001019999999N9999999N1-00401+99999101131
0141997707999992011012914004+43317-070550FM-18+0006WELM1V0202901N001019999999N9999999N1-00391+99999101141REMSYN132CMAN  29144 WELM1 46/// /2902 11039 40114 91336 222// 000191213 555 501 70004 333 91209 555 11008 220// 5//// 6//// 8//// ICE /////;
0088997707999992011012915004+43317-070550FM-18+0006WELM1V0200101N001019999999N9999999N1-00201+99999101141REMSYN079CMAN  29154 WELM1 46/// /0102 11020 40114 91436 222// 00012 10701 700007 22007;
0000997707999992011012916004+43317-070550FM-18+0006WELM1V0201401N001519999999N9999999N1+00021+99999101121
0076997707999992011012917004+43317-070550FM-18+0006WELM1V0201601N002619999999N9999999N1+00061+99999101061REMSYN067CMAN  29174 WELM1 46/// /1605 10006 40106 91636 222// 000080 57003;
0000997707999992011012918004+43317-070550FM-18+0006WELM1V0201501N002119999999N9999999N1+00071+99999101001
0083997707999992011012919004+43317-070550FM-18+0006WELM1V0201801N002119999999N9999999N1+00021+99999100981REMSYN074CMAN  29194 WELM1 46/// /1804 10002 40098 91836 222// 0001555 22231 0////;
0209997707999992011012920004+43317-070550FM-18+0006WELM1V0201301N002119999999N9999999N1+00051+99999100981REMSYN200CMAN  29204 WELM1 46/// /1304 10005 40098 91936 222// 00016 10601 70000 11409 20706 300// 41406 70043 333 91217 555 11144 22153 31855 41319 61949 138134 140148 134147 129143 129136 129139 81416 91934;
0100997707999992011012921004+43317-070550FM-18+0006WELM1V0201501N000519999999N9999999N1+00051+99999101011REMSYN091CMAN  29214 WELM1 46/// /1501 10005 40101 92036 222// 0001555 50 333 82/02 84/05 555 7/095;
0088997707999992011012922004+43317-070550FM-18+0006WELM1V0200401N000519999999N9999999N1-00031+99999101071REMSYN079CMAN  29224 WELM1 46/// /0401 11003 40107 92136 222// 0002555  555 11003 22004;
0088997707999992011012923004+43317-070550FM-18+0006WELM1V0200101N001519999999N9999999N1-00061+99999101111REMSYN079CMAN  29234 WELM1 46/// /0103 11006 40111 92236 222// 0002555  555 11006 22007;
0090997707999992011013000004+43317-070550FM-18+0006WELM1V0203401N001019999999N9999999N1-00161+99999101161REMSYN081CMAN  30004 WELM1 46/// /3402 11016 40116 92336 222// 0002 10501 70004 333 91209;
0000997707999992011013001004+43317-070550FM-18+0006WELM1V0203401N001519999999N9999999N1-00221+99999101191
0134997707999992011013002004+43317-070550FM-18+0006WELM1V0202801N001519999999N9999999N1-00191+99999101231REMSYN125CMAN  30024 WELM1 46/// /2803 11019 40123 90136 222// 00024 10601 70001 70003 333 91209 555 11006 2203//// 4//// 5//// 80238;
0139997707999992011013003004+43317-070550FM-18+0006WELM1V0200201N001519999999N9999999N1-00231+99999101251REMSYN130CMAN  30034 WELM1 46/// /0203 11023 40125 90236 222// 00023 10601 7000/ 22274 0//// 2//// 3//// 4//// 5//// 6//// 80170 ICE /////;
0109997707999992011013004004+43317-070550FM-18+0006WELM1V0209999C000019999999N9999999N1-00301+99999101291REMSYN100CMAN  30044 WELM1 46/// /0000 11030 40129 90336 222// 0001 60241 7606/ 888/// 333 0//51 81817 88630;
0000997707999992011013005004+43317-070550FM-18+0006WELM1V0203101N001519999999N9999999N1-00271+99999101301
0078997707999992011013006004+43317-070550FM-18+0006WELM1V0203201N001519999999N9999999N1-00391+99999101281REMSYN069CMAN  30064 WELM1 46/// /3203 11039 40128 90536 222// 0001 333 91208;
0155997707999992011013007004+43317-070550FM-18+0006WELM1V0203501N002119999999N9999999N1-00481+99999101321REMSYN146CMAN  30074 WELM1 46/// /3504 11048 40132 90636 222// 000191208 555 4 555 11003 22003 30603 406008 60659 032004 037003 042003 044004 05008 330009;
0000997707999992011013008004+43317-070550FM-18+0006WELM1V0203001N001519999999N9999999N1-00511+99999101371
0000997707999992011013009004+43317-070550FM-18+0006WELM1V0203201N001019999999N9999999N1-00541+99999101401
0118997707999992011013010004+43317-070550FM-18+0006WELM1V0203101N001019999999N9999999N1-00481+99999101431REMSYN109CMAN  30104 WELM1 46/// /3102 11048 40143 90936 222// 0002555 5 555  60007 83830 90710 91129 92447 555 60005;
0088997707999992011013011004+43317-070550FM-18+0006WELM1V0203401N001519999999N9999999N1-00461+99999101431REMSYN079CMAN  30114 WELM1 46/// /3403 11046 40143 91036 222// 00022 10501 700002 22003;
0088997707999992011013012004+43317-070550FM-18+0006WELM1V0203201N001519999999N9999999N1-00591+99999101501REMSYN079CMAN  30124 WELM1 46/// /3203 11059 40150 91136 222// 00022 10501 700003 22003;
0197997707999992011013013004+43317-070550FM-18+0006WELM1V0203501N002119999999N9999999N1-00601+99999101531REMSYN188CMAN  30134 WELM1 46/// /3504 11060 40153 91236 222// 00028 91300 333 91213 555 11011 22011 31213 403016 61259 019012 025012 025012 016011 021249 209067 215067 216064 212067 213066 207068;
0083997707999992011013014004+43317-070550FM-18+0006WELM1V0203201N002619999999N9999999N1-00471+99999101581REMSYN074CMAN  30144 WELM1 46/// /3205 11047 40158 91336 222// 0001002 22222 0////;
0000997707999992011013015004+43317-070550FM-18+0006WELM1V0200401N002119999999N9999999N1-00251+99999101561
0099997707999992011013016004+43317-070550FM-18+0006WELM1V0202401N001019999999N9999999N1-00091+99999101591REMSYN090CMAN  30164 WELM1 46/// /2402 11009 40159 91536 222// 00013 10501 70001 332// 41403 70017;
0000997707999992011013017004+43317-070550FM-18+0006WELM1V0202501N002619999999N9999999N1-00081+99999101541
0109997707999992011013018004+43317-070550FM-18+0006WELM1V0203101N002619999999N9999999N1+00001+99999101441REMSYN100CMAN  30184 WELM1 46/// /3105 10000 40144 91736 222// 000191215 555 750 333 82630 84075 96461 96458;
0000997707999992011013019004+43317-070550FM-18+0006WELM1V0202601N005119999999N9999999N1+00021+99999101421
0090997707999992011013020004+43317-070550FM-18+0006WELM1V0202801N003119999999N9999999N1+00011+99999101431REMSYN081CMAN  30204 WELM1 46/// /2806 10001 40143 91936 222// 0001 10501 70006 333 91204;
0089997707999992011013021004+43317-070550FM-18+0006WELM1V0203001N005119999999N9999999N1-00011+99999101481REMSYN080CMAN  30214 WELM1 46/// /3010 11001 40148 92036 222// 000191220 555 5 555 90989;
0090997707999992011013022004+43317-070550FM-18+0006WELM1V0203101N003619999999N9999999N1-00091+99999101561REMSYN081CMAN  30224 WELM1 46/// /3107 11009 40156 92136 222// 0001 333 59011 81619 81921;
0000997707999992011013023004+43317-070550FM-18+0006WELM1V0203301N003619999999N9999999N1-00161+99999101651
0078997707999992011013100004+43317-070550FM-18+0006WELM1V0203101N003619999999N9999999N1-00221+99999101741REMSYN069CMAN  31004 WELM1 46/// /3107 11022 40174 92336 222// 000291219 555 ;
0090997707999992011013101004+43317-070550FM-18+0006WELM1V0202901N003119999999N9999999N1-00301+99999101821REMSYN081CMAN  31014 WELM1 46/// /2906 11030 40182 90036 222// 0002 10501 70005 333 91202;
0078997707999992011013102004+43317-070550FM-18+0006WELM1V0202901N003119999999N9999999N1-00351+99999101871REMSYN069CMAN  31024 WELM1 46/// /2906 11035 40187 90136 222// 0002 333 91206;
0090997707999992011013103004+43317-070550FM-18+0006WELM1V0203101N003119999999N9999999N1-00411+99999101921REMSYN081CMAN  31034 WELM1 46/// /3106 11041 40192 90236 222// 0002 10401 70004 333 91204;
0099997707999992011013104004+43317-070550FM-18+0006WELM1V0202801N002619999999N9999999N1-00501+99999101981REMSYN090CMAN  31044 WELM1 46/// /2805 11050 40198 90336 222// 00011 11804 20603 326// 41802 70020;
0185997707999992011013105004+43317-070550FM-18+0006WELM1V0202901N002619999999N9999999N1-00561+99999102051REMSYN176CMAN  31054 WELM1 46/// /2905 11056 40205 90436 222// 00010 333 91208 555 11007 22007 30402 407011 60459 113007 107008 099008 086008 075013 09408 13800026 335025 337024 340025;
0000997707999992011013106004+43317-070550FM-18+0006WELM1V0203301N003119999999N9999999N1-00601+99999102111
0097997707999992011013107004+43317-070550FM-18+0006WELM1V0203101N002119999999N9999999N1-00661+99999102181REMSYN088CMAN  31074 WELM1 46/// /3104 11066 40218 90636 222// 00004/017 55300 20000 30000 88/02;
0090997707999992011013108004+43317-070550FM-18+0006WELM1V0203001N003119999999N9999999N1-00681+99999102241REMSYN081CMAN  31084 WELM1 46/// /3006 11068 40224 90736 222// 00008 10401 70003360 91123;
0095997707999992011013109004+43317-070550FM-18+0006WELM1V0203201N004119999999N9999999N1-00711+99999102301REMSYN086CMAN  31094 WELM1 46/// /3208 11071 40230 90836 222// 00001 10501 700091022 555 91019;
0000997707999992011013110004+43317-070550FM-18+0006WELM1V0202901N002619999999N9999999N1-00781+99999102401
0000997707999992011013111004+43317-070550FM-18+0006WELM1V0203101N003119999999N9999999N1-00871+99999999999
0000997707999992011013112004+43317-070550FM-18+0006WELM1V0203001N003619999999N9999999N1-00991+99999999999
0114997707999992011013113004+43317-070550FM-18+0006WELM1V0203201N004119999999N9999999N1-00961+99999999999REMSYN105CMAN  31134 WELM1 46/// /3208 11096 91236 222// 0002/ 00013 10501 7000 22200 00128 10604 70021 555 1/031;
0078997707999992011013114004+43317-070550FM-18+0006WELM1V0203401N005119999999N9999999N1-00961+99999999999REMSYN069CMAN  31144 WELM1 46/// /3410 11096 91336 222// 0002/ 00040700 91116;
0000997707999992011013115004+43317-070550FM-18+0006WELM1V0203201N005119999999N9999999N1-00901+99999999999
0114997707999992011013116004+43317-070550FM-18+0006WELM1V0203301N003619999999N9999999N1-00771+99999103001REMSYN105CMAN  31164 WELM1 46/// /3307 11077 40300 91536 222// 0001 40166 52008 22200 00127 10604 70018 555 1/027;
0000997707999992011013117004+43317-070550FM-18+0006WELM1V0202601N002619999999N9999999N1-00671+99999102991
0203997707999992011013118004+43317-070550FM-18+0006WELM1V0203201N003619999999N9999999N1-00641+99999102921REMSYN194CMAN  31184 WELM1 46/// /3207 11064 40292 91736 222// 000091215 555 200 00228 11509 20502 332// 41509 70047 333 91208 555 11062 22065 31710 40209 61749 013059 012064 008065 008063 007066 007067;
0104997707999992011013119004+43317-070550FM-18+0006WELM1V0203101N002619999999N9999999N1-00541+99999102881REMSYN095CMAN  31194 WELM1 46/// /3105 11054 40288 91836 222// 0000 40280 5//// 22200 00085 1//// 7////;
0000997707999992011013120004+43317-070550FM-18+0006WELM1V0203101N002619999999N9999999N1-00471+99999102931
0000997707999992011013121004+43317-070550FM-18+0006WELM1V0202901N003119999999N9999999N1-00461+99999103001
0088997707999992011013122004+43317-070550FM-18+0006WELM1V0203101N002619999999N9999999N1-00551+99999103081REMSYN079CMAN  31224 WELM1 46/// /3105 11055 40308 92136 222// 00001215 555 11013 22014;
0000997707999992011013123004+43317-070550FM-18+0006WELM1V0203301N002619999999N9999999N1-00671+99999103111
0078997707999992011020100004+43317-070550FM-18+0006WELM1V0203201N001519999999N9999999N1-00771+99999103151REMSYN069CMAN  01004 WELM1 46/// /3203 11077 40315 92336 222// 0001 333 91206;
0141997707999992011020101004+43317-070550FM-18+0006WELM1V0203101N001019999999N9999999N1-00881+99999103151REMSYN132CMAN  01014 WELM1 46/// /3102 11088 40315 90036 222// 0002555 7//// 8//// 222// 04053 2//// 3//// 4//// 5//// 6//// 8//// ICE /////;
0000997707999992011020102004+43317-070550FM-18+0006WELM1V0203201N001019999999N9999999N1-00941+99999999999
0078997707999992011020103004+43317-070550FM-18+0006WELM1V0202601N001019999999N9999999N1-01091+99999999999REMSYN069CMAN  01034 WELM1 46/// /2602 11109 90236 222// 0002/ 0001 333 91205;
0114997707999992011020104004+43317-070550FM-18+0006WELM1V0209999C000019999999N9999999N1-01131+99999999999REMSYN105CMAN  01044 WELM1 46/// /0000 11113 90336 222// 0001/ 0001 40200 52002 22200 00127 10605 70023 555 1/032;
0149997707999992011020105004+43317-070550FM-18+0006WELM1V0203401N002619999999N9999999N1-01151+99999999999REMSYN140CMAN  01054 WELM1 46/// /3405 11115 90448 222// 0001/ 00011207 555 11006 22006 30431 420010 60459 199006 203008 204008 207007 221005 233004;
0187997707999992011020106004+43317-070550FM-18+0006WELM1V0203301N002619999999N9999999N1-01161+99999999999REMSYN178CMAN  01064 WELM1 46/// /3305 11116 90548 222// 00004 90600 222// 00162 333 91207 555 11007 22008 30555 407008 60559 074007 075006 076006 073006 0755 064063 076061 068062 065054;
0000997707999992011020107004+43317-070550FM-18+0006WELM1V0203401N001519999999N9999999N1-01101+99999999999
0000997707999992011020108004+43317-070550FM-18+0006WELM1V0203201N001019999999N9999999N1-01101+99999999999
0000997707999992011020109004+43317-070550FM-18+0006WELM1V0203401N002119999999N9999999N1-01141+99999999999
0090997707999992011020110004+43317-070550FM-18+0006WELM1V0203301N002119999999N9999999N1-01151+99999999999REMSYN081CMAN  01104 WELM1 46/// /3304 11115 90936 222// 0000/ 00016 1//00 7000 333 88703;
0090997707999992011020111004+43317-070550FM-18+0006WELM1V0203401N002119999999N9999999N1-01111+99999999999REMSYN081CMAN  01114 WELM1 46/// /3404 11111 91036 222// 0000/ 0001 1//00 70002 333 91210;
0000997707999992011020112004+43317-070550FM-18+0006WELM1V0203501N002119999999N9999999N1-01031+99999999999
0088997707999992011020113004+43317-070550FM-18+0006WELM1V0200101N003119999999N9999999N1-01031+99999999999REMSYN079CMAN  01134 WELM1 46/// /0106 11103 91236 222// 0001/ 00015 1//00 700009 22010;
0090997707999992011020114004+43317-070550FM-18+0006WELM1V0203601N003619999999N9999999N1-01031+99999999999REMSYN081CMAN  01144 WELM1 46/// /3607 11103 91336 222// 0001/ 0001 1//00 70002 333 91209;
0000997707999992011020115004+43317-070550FM-18+0006WELM1V0203601N004119999999N9999999N1-01071+99999999999
0078997707999992011020116004+43317-070550FM-18+0006WELM1V0203501N003119999999N9999999N1-01071+99999999999REMSYN069CMAN  01164 WELM1 46/// /3506 11107 91536 222// 0001/ 0001 333 91220;
0000997707999992011020117004+43317-070550FM-18+0006WELM1V0203601N004619999999N9999999N1-01021+99999999999
0078997707999992011020118004+43317-070550FM-18+0006WELM1V0203601N004119999999N9999999N1-00991+99999999999REMSYN069CMAN  01184 WELM1 46/// /3608 11099 91736 222// 0000/ 0001 333 91225;
0088997707999992011020119004+43317-070550FM-18+0006WELM1V0203601N004619999999N9999999N1-00951+99999999999REMSYN079CMAN  01194 WELM1 46/// /3609 11095 91836 222// 0100/ 00011220 555 11013 22014;
0141997707999992011020120004+43317-070550FM-18+0006WELM1V0200101N005719999999N9999999N1-00911+99999999999REMSYN132CMAN  01204 WELM1 46/// /0111 11091 91936 222// 0101/ 000191233 555 8//// 222// 04031 2//// 3//// 4//// 5//// 6//// 8//// ICE /////;
0088997707999992011020121004+43317-070550FM-18+0006WELM1V0200201N005119999999N9999999N1-00881+99999999999REMSYN079CMAN  01214 WELM1 46/// /0210 11088 92036 222// 0100/ 00011219 555 11015 22016;
0090997707999992011020122004+43317-070550FM-18+0006WELM1V0200101N005719999999N9999999N1-00871+99999999999REMSYN081CMAN  01224 WELM1 46/// /0111 11087 92136 222// 0101/ 0001 10801 70003 333 91210;
0000997707999992011020123004+43317-070550FM-18+0006WELM1V0200101N004619999999N9999999N1-00861+99999999999
0197997707999992011020200004+43317-070550FM-18+0006WELM1V0200101N004119999999N9999999N1-00861+99999102671REMSYN188CMAN  02004 WELM1 46/// /0108 11086 40267 92336 222// 0101555 4 555 244 11203 20602 3//// 41202 70015 333 91208 555 11067 22071 32304 40808 62349 074064 080065 082063 079061 083064 086063;
0000997707999992011020201004+43317-070550FM-18+0006WELM1V0200101N005719999999N9999999N1-00841+99999102661
0000997707999992011020202004+43317-070550FM-18+0006WELM1V0200101N005119999999N9999999N1-00801+99999102641
0085997707999992011020203004+43317-070550FM-18+0006WELM1V0200101N005119999999N9999999N1-00761+99999102611REMSYN076CMAN  02034 WELM1 46/// /0110 11076 40261 90236 222// 0001568/9 83918 87280;
0090997707999992011020204004+43317-070550FM-18+0006WELM1V0200101N004619999999N9999999N1-00731+99999102581REMSYN081CMAN  02044 WELM1 46/// /0109 11073 40258 90336 222// 0000 11101 70003 333 91210;
0000997707999992011020205004+43317-070550FM-18+0006WELM1V0200101N004619999999N9999999N1-00721+99999102601
0085997707999992011020206004+43317-070550FM-18+0006WELM1V0200201N003619999999N9999999N1-00721+99999102551REMSYN076CMAN  02064 WELM1 46/// /0207 11072 40255 90536 222// 000091230 555 / 83823;
0000997707999992011020207004+43317-070550FM-18+0006WELM1V0200201N003119999999N9999999N1-00731+99999102511
0203997707999992011020208004+43317-070550FM-18+0006WELM1V0200201N003619999999N9999999N1-00731+99999102411REMSYN194CMAN  02084 WELM1 46/// /0207 11073 40241 90736 222// 010191217 555 11013 22013 30703 409025 60759 092016 092017 090017 090017 090 056008 034005 06294070 287050 272044 271045 275048 83110 90750;
0134997707999992011020209004+43317-070550FM-18+0006WELM1V0200101N005719999999N9999999N1-00741+99999102321REMSYN125CMAN  02094 WELM1 46/// /0111 11074 40232 90836 222// 010091213 555 20 70200 81/// 22254 00230 20503 320// 40607 5//// 80215;
0088997707999992011020210004+43317-070550FM-18+0006WELM1V0200101N005719999999N9999999N1-00761+99999102311REMSYN079CMAN  02104 WELM1 46/// /0111 11076 40231 90936 222// 01001 10702 700105 22005;
0088997707999992011020211004+43317-070550FM-18+0006WELM1V0200201N006719999999N9999999N1-00781+99999102121REMSYN079CMAN  02114 WELM1 46/// /0213 11078 40212 91036 222// 01011216 555 11012 22013;
0078997707999992011020212004+43317-070550FM-18+0006WELM1V0200301N005719999999N9999999N1-00801+99999102061REMSYN069CMAN  02124 WELM1 46/// /0311 11080 40206 91136 222// 0100 333 91225;
0090997707999992011020213004+43317-070550FM-18+0006WELM1V0200401N005119999999N9999999N1-00821+99999101921REMSYN081CMAN  02134 WELM1 46/// /0410 11082 40192 91236 222// 00019 10703 70015814 83650;
0088997707999992011020214004+43317-070550FM-18+0006WELM1V0200301N006719999999N9999999N1-00831+99999101691REMSYN079CMAN  02144 WELM1 46/// /0313 11083 40169 91336 222// 00001226 555 11021 22022;
0138997707999992011020215004+43317-070550FM-18+0006WELM1V0200301N005719999999N9999999N1-00811+99999101611REMSYN129CMAN  02154 WELM1 46/// /0311 11081 40161 91436 222// 0000 70211 862// 22224 00200 20405 321// 40505 5//// 6//// 80170 ICE /////;
0197997707999992011020216004+43317-070550FM-18+0006WELM1V0200201N006719999999N9999999N1-00841+99999101451REMSYN188CMAN  02164 WELM1 46/// /0213 11084 40145 91536 222// 00008 91600 333 91232 555 11027 22029 31540 409034 61559 081028 084029 083028 086028 081549 286005 279005 304010 284016 306022 307020;
0080997707999992011020217004+43317-070550FM-18+0006WELM1V0200301N007719999999N9999999N1-00791+99999101091REMSYN071CMAN  02174 WELM1 46/// /0315 11079 40109 91636 222// 00001 10803 7001;
0078997707999992011020218004+43317-070550FM-18+0006WELM1V0200201N007719999999N9999999N1-00761+99999100931REMSYN069CMAN  02184 WELM1 46/// /0215 11076 40093 91736 222// 0100 333 91212;
0068997707999992011020219004+43317-070550FM-18+0006WELM1V0200201N007719999999N9999999N1-00741+99999100801REMSYN059CMAN  02194 WELM1 46/// /0215 11074 40080 91836 222// 0100;
0088997707999992011020220004+43317-070550FM-18+0006WELM1V0200101N007219999999N9999999N1-00721+99999100661REMSYN079CMAN  02204 WELM1 46/// /0114 11072 40066 91936 222// 01011217 555 11015 22016;
0134997707999992011020221004+43317-070550FM-18+0006WELM1V0200101N007219999999N9999999N1-00691+99999100651REMSYN125CMAN  02214 WELM1 46/// /0114 11069 40065 92036 222// 0101555 7 555 20 70100 82400 22254 00230 20501 318// 40303 5//// 80225;
0000997707999992011020222004+43317-070550FM-18+0006WELM1V0200101N005719999999N9999999N1-00741+99999100621
0000997707999992011020223004+43317-070550FM-18+0006WELM1V0200201N006719999999N9999999N1-00781+99999100641
0068997707999992011020300004+43317-070550FM-18+0006WELM1V0200101N006719999999N9999999N1-00811+99999100651REMSYN059CMAN  03004 WELM1 46/// /0113 11081 40065 92336 222// 0101;
0209997707999992011020301004+43317-070550FM-18+0006WELM1V0200101N004119999999N9999999N1-00801+99999100671REMSYN200CMAN  03014 WELM1 46/// /0108 11080 40067 90036 222// 00000 10802 70011 11106 20704 300// 41105 70032 333 91210 555 11084 22088 32358 42912 60049 259081 265083 273092 280087 276091 280093 82811 90003;
0099997707999992011020302004+43317-070550FM-18+0006WELM1V0200101N006719999999N9999999N1-00841+99999100701REMSYN090CMAN  03024 WELM1 46/// /0113 11084 40070 90136 222// 00018 10802 70012 332// 41303 70020;
0000997707999992011020303004+43317-070550FM-18+0006WELM1V0203501N005119999999N9999999N1-00841+99999100831
0080997707999992011020304004+43317-070550FM-18+0006WELM1V0203401N003619999999N9999999N1-00811+99999100931REMSYN071CMAN  03044 WELM1 46/// /3407 11081 40093 90336 222// 0000 22200 00035;
0000997707999992011020305004+43317-070550FM-18+0006WELM1V0203501N003619999999N9999999N1-00791+99999101021
0068997707999992011020306004+43317-070550FM-18+0006WELM1V0203501N004119999999N9999999N1-00791+99999101151REMSYN059CMAN  03064 WELM1 46/// /3508 11079 40115 90536 222// 0000;
0215997707999992011020307004+43317-070550FM-18+0006WELM1V0203601N005119999999N9999999N1-00841+99999101261REMSYN206CMAN  03074 WELM1 46/// /3610 11084 40126 90636 222// 000091212 555 4 555 11012 22013 30604 426016 60659 260013 260013 260014 262013 25003 082316 60649 233127 230125 232130 229131 229127 227122 82314 90620;
0000997707999992011020308004+43317-070550FM-18+0006WELM1V0203501N003619999999N9999999N1-00871+99999999999
0078997707999992011020309004+43317-070550FM-18+0006WELM1V0203401N003619999999N9999999N1-00861+99999999999REMSYN069CMAN  03094 WELM1 46/// /3407 11086 90836 222// 0101/ 0001 333 91208;
0000997707999992011020310004+43317-070550FM-18+0006WELM1V0203401N003119999999N9999999N1-00861+99999999999
0099997707999992011020311004+43317-070550FM-18+0006WELM1V0203601N003619999999N9999999N1-00861+99999999999REMSYN090CMAN  03114 WELM1 46/// /3607 11086 91036 222// 010191203 555 304 21002 332// 41303 70020;
0095997707999992011020312004+43317-070550FM-18+0006WELM1V0203401N002619999999N9999999N1-00901+99999999999REMSYN086CMAN  03124 WELM1 46/// /3405 11090 91136 222// 0101/ 00033 10701 70005 6 3 / / 82816;
0079997707999992011020313004+43317-070550FM-18+0006WELM1V0203401N002619999999N9999999N1-00931+99999999999REMSYN070CMAN  03134 WELM1 46/// /3405 11093 91236 222// 0000/ 000155 TIDE0975;
0155997707999992011020314004+43317-070550FM-18+0006WELM1V0203601N003619999999N9999999N1-00711+99999999999REMSYN146CMAN  03144 WELM1 46/// /3607 11071 91336 222// 0000/ 002491216 555 11009 22010 31320 408012 61359 068010 069010 071011 074011 07033 24009 096020;
0154997707999992011020315004+43317-070550FM-18+0006WELM1V0200101N006219999999N9999999N1-00641+99999102171REMSYN145CMAN  03154 WELM1 46/// /0112 11064 40217 91442 222// 000091209 555 3 91202 555 11001 22001 31446 401005 61459 017003 015003 009003 015004 00100;
0088997707999992011020316004+43317-070550FM-18+0006WELM1V0200201N006219999999N9999999N1-00581+99999102241REMSYN079CMAN  03164 WELM1 46/// /0212 11058 40224 91536 222// 0001555  555 11003 22003;
0162997707999992011020317004+43317-070550FM-18+0006WELM1V0203601N006219999999N9999999N1-00461+99999102211REMSYN153CMAN  03174 WELM1 46/// /3612 11046 40221 91636 222// 00013 1//00 7000 76165 887// 333 56899 88706 90062 90090 90212 90296 92415 94070 95080 96010 96120;
0150997707999992011020318004+43317-070550FM-18+0006WELM1V0203601N004119999999N9999999N1-00331+99999102191REMSYN141CMAN  03184 WELM1 46/// /3608 11033 40219 91736 222// 00013 1//00 7000 7//22 8804/ 222// 00200 20505 302// 40704 5//// 6//// 8//// ICE /////;
0081997707999992011020319004+43317-070550FM-18+0006WELM1V0203301N002619999999N9999999N1-00261+99999102191REMSYN072CMAN  03194 WELM1 46/// /3305 11026 40219 91836 222// 00003 10801 70000;
0088997707999992011020320004+43317-070550FM-18+0006WELM1V0203101N002119999999N9999999N1-00221+99999102211REMSYN079CMAN  03204 WELM1 46/// /3104 11022 40221 91936 222// 00001203 555 11001 22002;
0000997707999992011020321004+43317-070550FM-18+0006WELM1V0203401N003119999999N9999999N1-00211+99999102231
0078997707999992011020322004+43317-070550FM-18+0006WELM1V0202701N002119999999N9999999N1-00261+99999102291REMSYN069CMAN  03224 WELM1 46/// /2704 11026 40229 92136 222// 0100 333 91216;
0088997707999992011020323004+43317-070550FM-18+0006WELM1V0202701N001519999999N9999999N1-00361+99999102341REMSYN079CMAN  03234 WELM1 46/// /2703 11036 40234 92236 222// 01001213 555 11011 22012;
0090997707999992011020400004+43317-070550FM-18+0006WELM1V0203001N001019999999N9999999N1-00581+99999102361REMSYN081CMAN  04004 WELM1 46/// /3002 11058 40236 92336 222// 0100 10601 70003 333 91205;
0102997707999992011020401004+43317-070550FM-18+0006WELM1V0202601N001519999999N9999999N1-00611+99999102371REMSYN093CMAN  04014 WELM1 46/// /2603 11061 40237 90036 222// 010091208 555 99 885// 92330 333 70213;
0085997707999992011020402004+43317-070550FM-18+0006WELM1V0202701N002119999999N9999999N1-00721+99999102321REMSYN076CMAN  04024 WELM1 46/// /2704 11072 40232 90136 222// 0001555 2 555 IDE1054;
0000997707999992011020403004+43317-070550FM-18+0006WELM1V0202401N001519999999N9999999N1-00741+99999102281
0082997707999992011020404004+43317-070550FM-18+0006WELM1V0202401N002119999999N9999999N1-00771+99999999999REMSYN073CMAN  04044 WELM1 46/// /2404 11077 90336 222// 0001/ 002455 11002 22002;
0110997707999992011020405004+43317-070550FM-18+0006WELM1V0202701N003119999999N9999999N1-00801+99999999999REMSYN101CMAN  04054 WELM1 46/// /2706 11080 90436 222// 0001/ 0001 70200 80000 22274 299// 3//// 4//// 5////;
0157997707999992011020406004+43317-070550FM-18+0006WELM1V0202801N002619999999N9999999N1-00821+99999999999REMSYN148CMAN  04064 WELM1 46/// /2805 11082 90536 222// 0000/ 00010 222// 00009 333 91205 555 11004 22004 30527 423006 60559 280004 265005 247005 235005 24;
0085997707999992011020407004+43317-070550FM-18+0006WELM1V0202701N002119999999N9999999N1-00901+99999999999REMSYN076CMAN  04074 WELM1 46/// /2704 11090 90636 222// 0000/ 0001555 7 555 0 83073;
0082997707999992011020408004+43317-070550FM-18+0006WELM1V0202801N002619999999N9999999N1-00881+99999999999REMSYN073CMAN  04084 WELM1 46/// /2805 11088 90736 222// 0000/ 0001555 1010 22011;
0078997707999992011020409004+43317-070550FM-18+0006WELM1V0202501N002119999999N9999999N1-00941+99999999999REMSYN069CMAN  04094 WELM1 46/// /2504 11094 90836 222// 0101/ 0001 333 91209;
0000997707999992011020410004+43317-070550FM-18+0006WELM1V0202301N002619999999N9999999N1-00921+99999999999
0090997707999992011020411004+43317-070550FM-18+0006WELM1V0202301N002619999999N9999999N1-00961+99999999999REMSYN081CMAN  04114 WELM1 46/// /2305 11096 91036 222// 0101/ 0024 10601 70004 333 91218;
0078997707999992011020412004+43317-070550FM-18+0006WELM1V0202701N003119999999N9999999N1-00931+99999999999REMSYN069CMAN  04124 WELM1 46/// /2706 11093 91136 222// 0101/ 0001 333 91208;
0000997707999992011020413004+43317-070550FM-18+0006WELM1V0202701N005119999999N9999999N1-00881+99999999999
0000997707999992011020414004+43317-070550FM-18+0006WELM1V0202901N005719999999N9999999N1-00781+99999999999
0085997707999992011020415004+43317-070550FM-18+0006WELM1V0202801N005719999999N9999999N1-00511+99999999999REMSYN076CMAN  04154 WELM1 46/// /2811 11051 91436 222// 0000/ 00084 10701 700088460;
0000997707999992011020416004+43317-070550FM-18+0006WELM1V0202901N005119999999N9999999N1-00331+99999101741
0082997707999992011020417004+43317-070550FM-18+0006WELM1V0202601N005119999999N9999999N1-00141+99999101621REMSYN073CMAN  04174 WELM1 46/// /2610 11014 40162 91636 222// 000155 11012 22012;
0068997707999992011020418004+43317-070550FM-18+0006WELM1V0202401N003119999999N9999999N1-00031+99999101501REMSYN059CMAN  04184 WELM1 46/// /2406 11003 40150 91736 222// 0001;
0000997707999992011020419004+43317-070550FM-18+0006WELM1V0202501N004619999999N9999999N1+00051+99999101421
0090997707999992011020420004+43317-070550FM-18+0006WELM1V0202701N003119999999N9999999N1+00151+99999101351REMSYN081CMAN  04204 WELM1 46/// /2706 10015 40135 91936 222// 0000 10301 70004 333 91218;
0088997707999992011020421004+43317-070550FM-18+0006WELM1V0202901N003119999999N9999999N1+00161+99999101381REMSYN079CMAN  04214 WELM1 46/// /2906 10016 40138 92036 222// 00003 10701 700028 22030;
0099997707999992011020422004+43317-070550FM-18+0006WELM1V0202701N002619999999N9999999N1+00081+99999101411REMSYN090CMAN  04224 WELM1 46/// /2705 10008 40141 92136 222// 01003 10601 70002 332// 41303 70016;
0090997707999992011020423004+43317-070550FM-18+0006WELM1V0203201N003119999999N9999999N1-00021+99999101521REMSYN081CMAN  04234 WELM1 46/// /3206 11002 40152 92236 222// 0100 10701 70005 333 91219;
0090997707999992011020500004+43317-070550FM-18+0006WELM1V0203001N004119999999N9999999N1-00131+99999101571REMSYN081CMAN  05004 WELM1 46/// /3008 11013 40157 92336 222// 0100 10701 70006 333 91222;
0000997707999992011020501004+43317-070550FM-18+0006WELM1V0200201N000519999999N9999999N1-00211+99999101621
0085997707999992011020502004+43317-070550FM-18+0006WELM1V0202301N001019999999N9999999N1-00261+99999101631REMSYN076CMAN  05024 WELM1 46/// /2302 11026 40163 90136 222// 010091210 555 IDE1039;
0090997707999992011020503004+43317-070550FM-18+0006WELM1V0202601N003119999999N9999999N1-00331+99999101611REMSYN081CMAN  05034 WELM1 46/// /2606 11033 40161 90236 222// 0001 10701 70005 333 91215;
0114997707999992011020504004+43317-070550FM-18+0006WELM1V0202801N001519999999N9999999N1-00411+99999101601REMSYN105CMAN  05044 WELM1 46/// /2803 11041 40160 90336 222// 00011 10801 7000 22200 00129 10604 70018 555 1/029;
0088997707999992011020505004+43317-070550FM-18+0006WELM1V0202301N002619999999N9999999N1-00511+99999101591REMSYN079CMAN  05054 WELM1 46/// /2305 11051 40159 90436 222// 0001555  555 11003 22003;
0080997707999992011020506004+43317-070550FM-18+0006WELM1V0202601N002619999999N9999999N1-00521+99999101621REMSYN071CMAN  05064 WELM1 46/// /2605 11052 40162 90536 222// 0001 60041 90530;
0088997707999992011020507004+43317-070550FM-18+0006WELM1V0202301N001519999999N9999999N1-00531+99999101581REMSYN079CMAN  05074 WELM1 46/// /2303 11053 40158 90636 222// 00001203 555 11003 22003;
0090997707999992011020508004+43317-070550FM-18+0006WELM1V0202401N001019999999N9999999N1-00701+99999101541REMSYN081CMAN  05084 WELM1 46/// /2402 11070 40154 90736 222// 0000 10701 70004 333 91206;
0000997707999992011020509004+43317-070550FM-18+0006WELM1V0203601N001519999999N9999999N1-00801+99999101501
0088997707999992011020510004+43317-070550FM-18+0006WELM1V0202901N002119999999N9999999N1-00701+99999999999REMSYN079CMAN  05104 WELM1 46/// /2904 11070 90936 222// 0100/ 0024555  555 11002 22002;
0078997707999992011020511004+43317-070550FM-18+0006WELM1V0203001N002119999999N9999999N1-00741+99999999999REMSYN069CMAN  05114 WELM1 46/// /3004 11074 91036 222// 0100/ 0001 333 91225;
0000997707999992011020512004+43317-070550FM-18+0006WELM1V0200101N001019999999N9999999N1-00881+99999999999
0090997707999992011020513004+43317-070550FM-18+0006WELM1V0203401N000519999999N9999999N1-00931+99999999999REMSYN081CMAN  05134 WELM1 46/// /3401 11093 91236 222// 0100/ 0001 10501 70004 333 91207;
0000997707999992011020514004+43317-070550FM-18+0006WELM1V0202601N001519999999N9999999N1-00591+99999999999
0088997707999992011020515004+43317-070550FM-18+0006WELM1V0202301N002119999999N9999999N1-00401+99999101321REMSYN079CMAN  05154 WELM1 46/// /2304 11040 40132 91436 222// 00001207 555 11006 22006;
0090997707999992011020516004+43317-070550FM-18+0006WELM1V0201901N002619999999N9999999N1-00181+99999101321REMSYN081CMAN  05164 WELM1 46/// /1905 11018 40132 91536 222// 0001 10701 70004 333 91211;
0094997707999992011020517004+43317-070550FM-18+0006WELM1V0202401N001519999999N9999999N1-00061+99999101191REMSYN085CMAN  05174 WELM1 46/// /2403 11006 40119 91636 222// 00013 10601 700025 22200 0////;
0096997707999992011020518004+43317-070550FM-18+0006WELM1V0202201N001519999999N9999999N1-00021+99999101081REMSYN087CMAN  05184 WELM1 46/// /2203 11002 40108 91736 222// 000191217 555  10169 546// 83656;
0000997707999992011020519004+43317-070550FM-18+0006WELM1V0200201N001019999999N9999999N1+00001+99999100981
0078997707999992011020520004+43317-070550FM-18+0006WELM1V0202001N003119999999N9999999N1+00061+99999100891REMSYN069CMAN  05204 WELM1 46/// /2006 10006 40089 91936 222// 0001 333 91204;
0090997707999992011020521004+43317-070550FM-18+0006WELM1V0202401N001019999999N9999999N1+00021+99999100841REMSYN081CMAN  05214 WELM1 46/// /2402 10002 40084 92036 222// 0000 10502 70010 333 91220;
0000997707999992011020522004+43317-070550FM-18+0006WELM1V0201701N001019999999N9999999N1-00081+99999100761
0115997707999992011020523004+43317-070550FM-18+0006WELM1V0200301N000519999999N9999999N1-00121+99999100641REMSYN106CMAN  05234 WELM1 46/// /0301 11012 40064 92236 222// 010040117 54000 70222 878// 22232 00240 20606 80190;
0000997707999992011020600004+43317-070550FM-18+0006WELM1V0200701N002619999999N9999999N1-00071+99999100361
0073997707999992011020601004+43317-070550FM-18+0006WELM1V0200601N002619999999N9999999N1+00011+99999100111REMSYN064CMAN  06014 WELM1 46/// /0605 10001 40011 90036 222// 010087073;
0080997707999992011020602004+43317-070550FM-18+0006WELM1V0200801N004619999999N9999999N1+00101+99999099831REMSYN071CMAN  06024 WELM1 46/// /0809 10010 49983 90136 222// 01004 10702 7001;
0078997707999992011020603004+43317-070550FM-18+0006WELM1V0200601N005119999999N9999999N1+00181+99999099421REMSYN069CMAN  06034 WELM1 46/// /0610 10018 49942 90236 222// 0001 333 91207;
0000997707999992011020604004+43317-070550FM-18+0006WELM1V0200601N007219999999N9999999N1+00261+99999098981
0068997707999992011020605004+43317-070550FM-18+0006WELM1V0200401N006219999999N9999999N1+00341+99999098601REMSYN059CMAN  06054 WELM1 46/// /0412 10034 49860 90436 222// 0001;
0078997707999992011020606004+43317-070550FM-18+0006WELM1V0203301N006219999999N9999999N1+00211+99999098371REMSYN069CMAN  06064 WELM1 46/// /3312 10021 49837 90536 222// 0001 333 91205;
0000997707999992011020607004+43317-070550FM-18+0006WELM1V0203301N007219999999N9999999N1+00121+99999098281
0104997707999992011020608004+43317-070550FM-18+0006WELM1V0202901N004619999999N9999999N1+00091+99999098451REMSYN095CMAN  06084 WELM1 46/// /2909 10009 49845 90736 222// 0001555 4 555 10 22200 00127 10502 70012;
0000997707999992011020609004+43317-070550FM-18+0006WELM1V0202901N006219999999N9999999N1+00121+99999098671
0088997707999992011020610004+43317-070550FM-18+0006WELM1V0203001N007719999999N9999999N1+00231+99999098801REMSYN079CMAN  06104 WELM1 46/// /3015 10023 49880 90936 222// 0100555  555 11017 22018;
0078997707999992011020611004+43317-070550FM-18+0006WELM1V0203001N008719999999N9999999N1+00231+99999099031REMSYN069CMAN  06114 WELM1 46/// /3017 10023 49903 91036 222// 0100 333 91217;
0088997707999992011020612004+43317-070550FM-18+0006WELM1V0203001N006719999999N9999999N1+00141+99999099411REMSYN079CMAN  06124 WELM1 46/// /3013 10014 49941 91136 222// 01000014 555 10014 20014;
0117997707999992011020613004+43317-070550FM-18+0006WELM1V0203101N008219999999N9999999N1+00131+99999099751REMSYN108CMAN  06134 WELM1 46/// /3116 10013 49975 91236 222// 01008 70100 81145 22274 00250 21003 321// 41403 80210;
0078997707999992011020614004+43317-070550FM-18+0006WELM1V0203101N007219999999N9999999N1+00141+99999100031REMSYN069CMAN  06144 WELM1 46/// /3114 10014 40003 91336 222// 0100 333 91202;
0078997707999992011020615004+43317-070550FM-18+0006WELM1V0203001N007219999999N9999999N1+00181+99999100231REMSYN069CMAN  06154 WELM1 46/// /3014 10018 40023 91436 222// 0000 333 91206;
0000997707999992011020616004+43317-070550FM-18+0006WELM1V0203101N005119999999N9999999N1+00241+99999100401
0149997707999992011020617004+43317-070550FM-18+0006WELM1V0202901N005119999999N9999999N1+00291+99999100561REMSYN140CMAN  06174 WELM1 46/// /2910 10029 40056 91636 222// 000140190 52010 70222 8842/ 22254 00070 20403 323// 40708 5//// 6//// 80080 ICE /////;
0000997707999992011020618004+43317-070550FM-18+0006WELM1V0202901N005719999999N9999999N1+00331+99999100631
0088997707999992011020619004+43317-070550FM-18+0006WELM1V0203101N005119999999N9999999N1+00381+99999100711REMSYN079CMAN  06194 WELM1 46/// /3110 10038 40071 91836 222// 0001555  555 11020 22021;
0000997707999992011020620004+43317-070550FM-18+0006WELM1V0203101N004619999999N9999999N1+00421+99999100841
0078997707999992011020621004+43317-070550FM-18+0006WELM1V0203001N005119999999N9999999N1+00371+99999101001REMSYN069CMAN  06214 WELM1 46/// /3010 10037 40100 92036 222// 0002 333 91214;
0090997707999992011020622004+43317-070550FM-18+0006WELM1V0203101N004119999999N9999999N1+00321+99999101101REMSYN081CMAN  06224 WELM1 46/// /3108 10032 40110 92136 222// 0002 10801 70006 333 91210;
0088997707999992011020623004+43317-070550FM-18+0006WELM1V0203001N002619999999N9999999N1+00201+99999101221REMSYN079CMAN  06234 WELM1 46/// /3005 10020 40122 92236 222// 00021205 555 11004 22005;
0090997707999992011020700004+43317-070550FM-18+0006WELM1V0203001N003619999999N9999999N1+00131+99999101281REMSYN081CMAN  07004 WELM1 46/// /3007 10013 40128 92336 222// 0002 10701 70006 333 91206;
0141997707999992011020701004+43317-070550FM-18+0006WELM1V0202901N001019999999N9999999N1+00051+99999101351REMSYN132CMAN  07014 WELM1 46/// /2902 10005 40135 90036 222// 0002/// 7//// 8//// 222// 04116 2//// 3//// 4//// 5//// 6//// 8//// ICE /////;
0000997707999992011020702004+43317-070550FM-18+0006WELM1V0203201N001019999999N9999999N1+00051+99999101361
0000997707999992011020703004+43317-070550FM-18+0006WELM1V02099999999999999999N9999999N1-00111+99999101421
0203997707999992011020704004+43317-070550FM-18+0006WELM1V0202601N001019999999N9999999N1-00151+99999101431REMSYN194CMAN  07044 WELM1 46/// /2602 11015 40143 90336 222// 00015 90350 22200 00235 11406 20402 331// 41406 70029 333 91207 555 11051 22053 30258 41610 60349 163050 171068 169068 170059 169071 167081;
0084997707999992011020705004+43317-070550FM-18+0006WELM1V02099999999999999999N9999999N1-00191+99999101421REMSYN075CMAN  07054 WELM1 46/// /22// 11019 40142 90436 222// 00022 10501 70005000;
0099997707999992011020706004+43317-070550FM-18+0006WELM1V0202701N001519999999N9999999N1-00151+99999101431REMSYN090CMAN  07064 WELM1 46/// /2703 11015 40143 90536 222// 00013 10701 70002 331// 41402 70016;
0088997707999992011020707004+43317-070550FM-18+0006WELM1V0202501N001019999999N9999999N1-00101+99999101471REMSYN079CMAN  07074 WELM1 46/// /2502 11010 40147 90636 222// 0001555  555 11017 22018;
0149997707999992011020708004+43317-070550FM-18+0006WELM1V0202801N001019999999N9999999N1-00111+99999101461REMSYN140CMAN  07084 WELM1 46/// /2802 11011 40146 90748 222// 000191206 555 11006 22006 30747 436009 60759 346006 358007 000006 000006 00009 249011;
0000997707999992011020709004+43317-070550FM-18+0006WELM1V0202901N002119999999N9999999N1-00131+99999101461
0090997707999992011020710004+43317-070550FM-18+0006WELM1V0209999C000019999999N9999999N1-00141+99999101461REMSYN081CMAN  07104 WELM1 46/// /0000 11014 40146 90936 222// 0001 10701 70004 333 91201;
0000997707999992011020711004+43317-070550FM-18+0006WELM1V0202301N000519999999N9999999N1-00191+99999101511
0000997707999992011020712004+43317-070550FM-18+0006WELM1V0202701N001519999999N9999999N1-00161+99999101561
0078997707999992011020713004+43317-070550FM-18+0006WELM1V0203101N000519999999N9999999N1-00131+99999101551REMSYN069CMAN  07134 WELM1 46/// /3101 11013 40155 91236 222// 0000 333 91203;
0209997707999992011020714004+43317-070550FM-18+0006WELM1V0202601N001519999999N9999999N1+00001+99999101561REMSYN200CMAN  07144 WELM1 46/// /2603 10000 40156 91336 222// 00000 22200 00049 11105 20401 300// 41105 70024 333 91206 555 11050 22054 31256 42010 61349 209048 208051 207059 208062 205073 206081 82109 91253;
0078997707999992011020715004+43317-070550FM-18+0006WELM1V0202001N000519999999N9999999N1+00241+99999101601REMSYN069CMAN  07154 WELM1 46/// /2001 10024 40160 91436 222// 0001 333 91206;
0078997707999992011020716004+43317-070550FM-18+0006WELM1V0201401N002119999999N9999999N1+00311+99999101561REMSYN069CMAN  07164 WELM1 46/// /1404 10031 40156 91536 222// 0001 333 91206;
0203997707999992011020717004+43317-070550FM-18+0006WELM1V0201701N004619999999N9999999N1+00311+99999101451REMSYN194CMAN  07174 WELM1 46/// /1709 10031 40145 91636 222// 00010 91650 22200 00230 11406 20503 331// 41405 70028 333 91208 555 11076 22081 31620 41609 61649 164072 167068 172068 168071 166069 155072;
0068997707999992011020718004+43317-070550FM-18+0006WELM1V0201801N005719999999N9999999N1+00271+99999101321REMSYN059CMAN  07184 WELM1 46/// /1811 10027 40132 91736 222// 0001;
0085997707999992011020719004+43317-070550FM-18+0006WELM1V0201901N006219999999N9999999N1+00231+99999101241REMSYN076CMAN  07194 WELM1 46/// /1912 10023 40124 91836 222// 000291218 555 8 7////;
0000997707999992011020720004+43317-070550FM-18+0006WELM1V0201901N003619999999N9999999N1+00281+99999101221
0000997707999992011020721004+43317-070550FM-18+0006WELM1V0201901N005119999999N9999999N1+00311+99999101221
0116997707999992011020722004+43317-070550FM-18+0006WELM1V0202001N004119999999N9999999N1+00321+99999101201REMSYN107CMAN  07224 WELM1 46/// /2008 10032 40120 92136 222// 0002 40042 55008 70100 825// 22213 00220 20402 80130;
0185997707999992011020723004+43317-070550FM-18+0006WELM1V0202201N003619999999N9999999N1+00251+99999101241REMSYN176CMAN  07234 WELM1 46/// /2207 10025 40124 92236 222// 00023 92250 22200 00029 1//00 70002 333 91205 555 11043 22045 32239 41805 62249 181041 176040 175036 183032 195031 206034;
0084997707999992011020800004+43317-070550FM-18+0006WELM1V0202101N002119999999N9999999N1+00201+99999101171REMSYN075CMAN  08004 WELM1 46/// /2104 10020 40117 92336 222// 0002 333 90710 91125;
0000997707999992011020801004+43317-070550FM-18+0006WELM1V0202501N001519999999N9999999N1+00241+99999101081
0085997707999992011020802004+43317-070550FM-18+0006WELM1V0202201N002119999999N9999999N1+00201+99999101061REMSYN076CMAN  08024 WELM1 46/// /2204 10020 40106 90136 222// 000291219 555 IDE1122;
0076997707999992011020803004+43317-070550FM-18+0006WELM1V0202201N003119999999N9999999N1+00241+99999100991REMSYN067CMAN  08034 WELM1 46/// /2206 10024 40099 90236 222// 000216 22017;
0135997707999992011020804004+43317-070550FM-18+0006WELM1V0202301N001519999999N9999999N1+00261+99999100901REMSYN126CMAN  08044 WELM1 46/// /2303 10026 40090 90336 222// 000291218 555 02 70200 80000 22284 00150 20301 333 // 40603 5//// 80142;
0114997707999992011020805004+43317-070550FM-18+0006WELM1V02099999999999999999N9999999N1+00181+99999100781REMSYN105CMAN  08054 WELM1 46/// ///// 10018 40078 90436 222// 0002 70521 82531 333 20208 56000 59019 82615 83360;
0000997707999992011020806004+43317-070550FM-18+0006WELM1V0202001N002619999999N9999999N1+00151+99999100621
0088997707999992011020807004+43317-070550FM-18+0006WELM1V0202001N001019999999N9999999N1+00051+99999100461REMSYN079CMAN  08074 WELM1 46/// /2002 10005 40046 90636 222// 00011207 555 11008 22010;
0088997707999992011020808004+43317-070550FM-18+0006WELM1V0202001N001019999999N9999999N1+00031+99999100311REMSYN079CMAN  08084 WELM1 46/// /2002 10003 40031 90736 222// 00014 10301 700008 22010;
0000997707999992011020809004+43317-070550FM-18+0006WELM1V0201901N001519999999N9999999N1+00031+99999100141
0078997707999992011020810004+43317-070550FM-18+0006WELM1V0202001N001019999999N9999999N1+00021+99999099931REMSYN069CMAN  08104 WELM1 46/// /2002 10002 49993 90936 222// 0001 333 91207;
0088997707999992011020811004+43317-070550FM-18+0006WELM1V0202301N001019999999N9999999N1+00011+99999099921REMSYN079CMAN  08114 WELM1 46/// /2302 10001 49992 91036 222// 00011218 555 11016 22017;
0078997707999992011020812004+43317-070550FM-18+0006WELM1V0209999C000019999999N9999999N1+00021+99999099831REMSYN069CMAN  08124 WELM1 46/// /0000 10002 49983 91136 222// 0001 333 91213;
0000997707999992011020813004+43317-070550FM-18+0006WELM1V0202301N000519999999N9999999N1+00031+99999099791
0215997707999992011020814004+43317-070550FM-18+0006WELM1V0202701N001019999999N9999999N1+00061+99999099711REMSYN206CMAN  08144 WELM1 46/// /2702 10006 49971 91336 222// 00014 91350 22200 00049 11412 20503 300// 41411 70058 333 91209 555 11070 22074 31259 41210 61349 107067 110076 109074 109072 110076 112079 81108 91259;
0090997707999992011020815004+43317-070550FM-18+0006WELM1V0202601N001519999999N9999999N1+00101+99999099641REMSYN081CMAN  08154 WELM1 46/// /2603 10010 49964 91436 222// 0001 81500 333 543// 81656;
0123997707999992011020816004+43317-070550FM-18+0006WELM1V0202801N002119999999N9999999N1+00151+99999099551REMSYN114CMAN  08164 WELM1 46/// /2804 10015 49955 91536 222// 000191207 555 601 70004 333 91211 555 11007 220 5//// 80160;
0000997707999992011020817004+43317-070550FM-18+0006WELM1V0202901N002619999999N9999999N1+00241+99999099441
0090997707999992011020818004+43317-070550FM-18+0006WELM1V0202801N002119999999N9999999N1+00231+99999099421REMSYN081CMAN  08184 WELM1 46/// /2804 10023 49942 91736 222// 0002 10602 70008 333 91220;
0088997707999992011020819004+43317-070550FM-18+0006WELM1V0203001N003619999999N9999999N1+00231+99999099391REMSYN079CMAN  08194 WELM1 46/// /3007 10023 49939 91836 222// 0002555  555 11018 22019;
0068997707999992011020820004+43317-070550FM-18+0006WELM1V0203001N005719999999N9999999N1+00181+99999099461REMSYN059CMAN  08204 WELM1 46/// /3011 10018 49946 91936 222// 0002;
0082997707999992011020821004+43317-070550FM-18+0006WELM1V0203101N008219999999N9999999N1+00071+99999099551REMSYN073CMAN  08214 WELM1 46/// /3116 10007 49955 92036 222// 000255 11008 22009;
0000997707999992011020822004+43317-070550FM-18+0006WELM1V0203101N008719999999N9999999N1-00101+99999099741
0000997707999992011020823004+43317-070550FM-18+0006WELM1V0203001N008219999999N9999999N1-00221+99999099861
0088997707999992011020900004+43317-070550FM-18+0006WELM1V0203001N008719999999N9999999N1-00381+99999099991REMSYN079CMAN  09004 WELM1 46/// /3017 11038 49999 92336 222// 00014 10801 700018 22020;
0088997707999992011020901004+43317-070550FM-18+0006WELM1V0203101N008719999999N9999999N1-00531+99999100141REMSYN079CMAN  09014 WELM1 46/// /3117 11053 40014 90036 222// 0001555  555 11020 22021;
0000997707999992011020902004+43317-070550FM-18+0006WELM1V0203201N010819999999N9999999N1-00681+99999100301
0088997707999992011020903004+43317-070550FM-18+0006WELM1V0203001N008719999999N9999999N1-00811+99999100481REMSYN079CMAN  09034 WELM1 46/// /3017 11081 40048 90236 222// 0001555  555 11019 22020;
0090997707999992011020904004+43317-070550FM-18+0006WELM1V0203101N007719999999N9999999N1-00931+99999100621REMSYN081CMAN  09044 WELM1 46/// /3115 11093 40062 90336 222// 0001 10801 70004 333 91208;
0000997707999992011020905004+43317-070550FM-18+0006WELM1V0203001N007719999999N9999999N1-01041+99999999999
0163997707999992011020906004+43317-070550FM-18+0006WELM1V0203101N008719999999N9999999N1-01111+99999999999REMSYN154CMAN  09064 WELM1 46/// /3117 11111 90536 222// 0001/ 002591209 555 11007 22008 30502 409011 60559 089008 075008 055008 071008 085 305017 311016 30 93599;
0078997707999992011020907004+43317-070550FM-18+0006WELM1V0203201N005719999999N9999999N1-01131+99999999999REMSYN069CMAN  09074 WELM1 46/// /3211 11113 90636 222// 0001/ 0002 333 91209;
0090997707999992011020908004+43317-070550FM-18+0006WELM1V0202901N005719999999N9999999N1-01171+99999999999REMSYN081CMAN  09084 WELM1 46/// /2911 11117 90736 222// 0001/ 0002 10801 70003 333 91211;
0000997707999992011020909004+43317-070550FM-18+0006WELM1V0203001N007719999999N9999999N1-01131+99999999999
0104997707999992011020910004+43317-070550FM-18+0006WELM1V0202901N003619999999N9999999N1-01221+99999999999REMSYN095CMAN  09104 WELM1 46/// /2907 11122 90936 222// 0000/ 0002 40232 52010 22200 00129 10401 70005;
0000997707999992011020911004+43317-070550FM-18+0006WELM1V0202401N003619999999N9999999N1-01231+99999999999
0134997707999992011020912004+43317-070550FM-18+0006WELM1V0202301N004619999999N9999999N1-01221+99999999999REMSYN125CMAN  09124 WELM1 46/// /2309 11122 91136 222// 0101/ 00028 10801 70001 70007 333 91221 555 11017 220315// 40502 5//// 80120;
0078997707999992011020913004+43317-070550FM-18+0006WELM1V0202301N004619999999N9999999N1-01141+99999999999REMSYN069CMAN  09134 WELM1 46/// /2309 11114 91236 222// 0101/ 0002 333 69925;
0079997707999992011020914004+43317-070550FM-18+0006WELM1V0202301N005119999999N9999999N1-00951+99999999999REMSYN070CMAN  09144 WELM1 46/// /2310 11095 91336 222// 0101/ 000258004 87275;
0078997707999992011020915004+43317-070550FM-18+0006WELM1V0202501N003119999999N9999999N1-00801+99999999999REMSYN069CMAN  09154 WELM1 46/// /2506 11080 91436 222// 0101/ 0002 333 91208;
0085997707999992011020916004+43317-070550FM-18+0006WELM1V0202501N003619999999N9999999N1-00761+99999101581REMSYN076CMAN  09164 WELM1 46/// /2507 11076 40158 91536 222// 01019 10901 7000E1011;
0090997707999992011020917004+43317-070550FM-18+0006WELM1V0202401N005119999999N9999999N1-00601+99999101541REMSYN081CMAN  09174 WELM1 46/// /2410 11060 40154 91636 222// 0100 10901 70003 333 91214;
0000997707999992011020918004+43317-070550FM-18+0006WELM1V0202301N003619999999N9999999N1-00501+99999101451
0000997707999992011020919004+43317-070550FM-18+0006WELM1V0202601N004619999999N9999999N1-00371+99999101371
0103997707999992011020920004+43317-070550FM-18+0006WELM1V0202401N004119999999N9999999N1-00211+99999101311REMSYN094CMAN  09204 WELM1 46/// /2408 11021 40131 91936 222// 00019 11001 70008//// 22281 00212 20201;
0088997707999992011020921004+43317-070550FM-18+0006WELM1V0202501N004119999999N9999999N1-00111+99999101251REMSYN079CMAN  09214 WELM1 46/// /2508 11011 40125 92036 222// 00011210 555 11009 22009;
0068997707999992011020922004+43317-070550FM-18+0006WELM1V0202501N003619999999N9999999N1-00101+99999101271REMSYN059CMAN  09224 WELM1 46/// /2507 11010 40127 92136 222// 0001;
0209997707999992011020923004+43317-070550FM-18+0006WELM1V0202401N003619999999N9999999N1-00221+99999101281REMSYN200CMAN  09234 WELM1 46/// /2407 11022 40128 92236 222// 00009 10901 70001 70007 333 91223 555 11018 220 333 91207 555 11056 22058 32150 42007 62249 201052 200051 206053 206049 208052 201052 82106 92222;
0209997707999992011021000004+43317-070550FM-18+0006WELM1V0202401N005719999999N9999999N1-00281+99999101331REMSYN200CMAN  10004 WELM1 46/// /2411 11028 40133 92336 222// 00000 22200 00053 11308 20401 300// 41308 70042 333 91204 555 11029 22030 32255 41906 62349 209027 205033 207033 200040 209042 197050 82006 92256;
0000997707999992011021001004+43317-070550FM-18+0006WELM1V0202401N004619999999N9999999N1-00341+99999101331
0078997707999992011021002004+43317-070550FM-18+0006WELM1V0202401N005719999999N9999999N1-00331+99999101311REMSYN069CMAN  10024 WELM1 46/// /2411 11033 40131 90136 222// 0100 333 91205;
0088997707999992011021003004+43317-070550FM-18+0006WELM1V0202401N007219999999N9999999N1-00331+99999101341REMSYN079CMAN  10034 WELM1 46/// /2414 11033 40134 90236 222// 0100555  555 11005 22006;
0090997707999992011021004004+43317-070550FM-18+0006WELM1V0202501N003119999999N9999999N1-00351+99999101341REMSYN081CMAN  10044 WELM1 46/// /2506 11035 40134 90336 222// 0100 11101 70004 333 91209;
0000997707999992011021005004+43317-070550FM-18+0006WELM1V0202401N003119999999N9999999N1-00371+99999101311
0000997707999992011021006004+43317-070550FM-18+0006WELM1V0202401N002619999999N9999999N1-00391+99999101301
0079997707999992011021007004+43317-070550FM-18+0006WELM1V0202501N002119999999N9999999N1-00411+99999101211REMSYN070CMAN  10074 WELM1 46/// /2504 11041 40121 90636 222// 00012 555 10096;
0000997707999992011021008004+43317-070550FM-18+0006WELM1V0202601N002119999999N9999999N1-00441+99999101161
0088997707999992011021009004+43317-070550FM-18+0006WELM1V0202601N002119999999N9999999N1-00481+99999101121REMSYN079CMAN  10094 WELM1 46/// /2604 11048 40112 90836 222// 0001555  555 11007 22007;
0127997707999992011021010004+43317-070550FM-18+0006WELM1V0202401N001519999999N9999999N1-00541+99999101101REMSYN118CMAN  10104 WELM1 46/// /2403 11054 40110 90936 222// 0001555 2 555 0 70122 83899 22200 00194 20202 304// 40202 80090;
0088997707999992011021011004+43317-070550FM-18+0006WELM1V0202801N002119999999N9999999N1-00611+99999101061REMSYN079CMAN  10114 WELM1 46/// /2804 11061 40106 91036 222// 0000555  555 11005 22005;
0090997707999992011021012004+43317-070550FM-18+0006WELM1V0202901N001519999999N9999999N1-00701+99999101161REMSYN081CMAN  10124 WELM1 46/// /2903 11070 40116 91136 222// 0000 10901 70003 333 91210;
0090997707999992011021013004+43317-070550FM-18+0006WELM1V0202901N001519999999N9999999N1-00781+99999101171REMSYN081CMAN  10134 WELM1 46/// /2903 11078 40117 91236 222// 0100 91250 333 58004 86818;
0000997707999992011021014004+43317-070550FM-18+0006WELM1V0202801N002119999999N9999999N1-00591+99999101151
0108997707999992011021015004+43317-070550FM-18+0006WELM1V0203301N003619999999N9999999N1-00451+99999101181REMSYN099CMAN  10154 WELM1 46/// /3307 11045 40118 91436 222// 01004 10901 7000 333 56000 57802 82815 80833;
0078997707999992011021016004+43317-070550FM-18+0006WELM1V0203301N006719999999N9999999N1-00481+99999101211REMSYN069CMAN  10164 WELM1 46/// /3313 11048 40121 91536 222// 0100 333 91211;
0099997707999992011021017004+43317-070550FM-18+0006WELM1V0203501N003119999999N9999999N1-00401+99999101151REMSYN090CMAN  10174 WELM1 46/// /3506 11040 40115 91636 222// 01004 11001 70002 334// 41303 70017;
0088997707999992011021018004+43317-070550FM-18+0006WELM1V0203101N004119999999N9999999N1-00411+99999101111REMSYN079CMAN  10184 WELM1 46/// /3108 11041 40111 91736 222// 00011212 555 11011 22011;
0088997707999992011021019004+43317-070550FM-18+0006WELM1V0203301N005119999999N9999999N1-00371+99999101081REMSYN079CMAN  10194 WELM1 46/// /3310 11037 40108 91836 222// 0001555  555 11011 22011;
0083997707999992011021020004+43317-070550FM-18+0006WELM1V0202801N005119999999N9999999N1-00371+99999101121REMSYN074CMAN  10204 WELM1 46/// /2810 11037 40112 91936 222// 000189/01 555 10099;
0000997707999992011021021004+43317-070550FM-18+0006WELM1V0203201N005719999999N9999999N1-00391+99999101211
0097997707999992011021022004+43317-070550FM-18+0006WELM1V0203001N004119999999N9999999N1-00471+99999101261REMSYN088CMAN  10224 WELM1 46/// /3008 11047 40126 92136 222// 00013 1//00 700056900 57865 818//;
0068997707999992011021023004+43317-070550FM-18+0006WELM1V0203301N002619999999N9999999N1-00531+99999101331REMSYN059CMAN  10234 WELM1 46/// /3305 11053 40133 92236 222// 0001;
0000997707999992011021100004+43317-070550FM-18+0006WELM1V0203201N003119999999N9999999N1-00621+99999101441
0000997707999992011021101004+43317-070550FM-18+0006WELM1V0202701N002619999999N9999999N1-00711+99999101511
0000997707999992011021102004+43317-070550FM-18+0006WELM1V0202601N002619999999N9999999N1-00891+99999101531
0088997707999992011021103004+43317-070550FM-18+0006WELM1V0202701N002619999999N9999999N1-00961+99999999999REMSYN079CMAN  11034 WELM1 46/// /2705 11096 90236 222// 0000/ 0002555  555 11017 22018;
0000997707999992011021104004+43317-070550FM-18+0006WELM1V0202701N002119999999N9999999N1-01021+99999999999
0082997707999992011021105004+43317-070550FM-18+0006WELM1V0202801N001519999999N9999999N1-01081+99999999999REMSYN073CMAN  11054 WELM1 46/// /2803 11108 90436 222// 0000/ 000255 11012 22012;
0082997707999992011021106004+43317-070550FM-18+0006WELM1V0202701N002119999999N9999999N1-01171+99999999999REMSYN073CMAN  11064 WELM1 46/// /2704 11117 90536 222// 0000/ 000255 11003 22003;
0094997707999992011021107004+43317-070550FM-18+0006WELM1V0202501N003119999999N9999999N1-01101+99999999999REMSYN085CMAN  11074 WELM1 46/// /2506 11110 90636 222// 0001/ 000225 40179 52009 22200 00182;
0088997707999992011021108004+43317-070550FM-18+0006WELM1V0202301N001019999999N9999999N1-01091+99999999999REMSYN079CMAN  11084 WELM1 46/// /2302 11109 90736 222// 0001/ 0002555  555 11009 22009;
0149997707999992011021109004+43317-070550FM-18+0006WELM1V0202701N001019999999N9999999N1-01111+99999999999REMSYN140CMAN  11094 WELM1 46/// /2702 11111 90842 222// 0001/ 000291231 555 11025 22027 30830 429038 60859 293026 293027 295030 301027 31015 303014;
0090997707999992011021110004+43317-070550FM-18+0006WELM1V0202701N002619999999N9999999N1-01131+99999999999REMSYN081CMAN  11104 WELM1 46/// /2705 11113 90936 222// 0001/ 0002 10801 70003 333 91212;
0000997707999992011021111004+43317-070550FM-18+0006WELM1V0202801N003119999999N9999999N1-01201+99999999999
0085997707999992011021112004+43317-070550FM-18+0006WELM1V0202701N002619999999N9999999N1-01221+99999999999REMSYN076CMAN  11124 WELM1 46/// /2705 11122 91136 222// 000091202 555 1 555 IDE1067;
0082997707999992011021113004+43317-070550FM-18+0006WELM1V0202601N003119999999N9999999N1-01151+99999999999REMSYN073CMAN  11134 WELM1 46/// /2606 11115 91236 222// 0100/ 000255 11002 22002;
0000997707999992011021114004+43317-070550FM-18+0006WELM1V0202701N003619999999N9999999N1-00991+99999999999
0078997707999992011021115004+43317-070550FM-18+0006WELM1V0202601N004119999999N9999999N1-00781+99999999999REMSYN069CMAN  11154 WELM1 46/// /2608 11078 91436 222// 0101/ 0001 333 91209;
0088997707999992011021116004+43317-070550FM-18+0006WELM1V0203101N002619999999N9999999N1-00661+99999101821REMSYN079CMAN  11164 WELM1 46/// /3105 11066 40182 91536 222// 01001 10701 700024 22026;
0088997707999992011021117004+43317-070550FM-18+0006WELM1V0202501N003119999999N9999999N1-00511+99999101781REMSYN079CMAN  11174 WELM1 46/// /2506 11051 40178 91636 222// 0101555  555 11027 22029;
0078997707999992011021118004+43317-070550FM-18+0006WELM1V0202601N002619999999N9999999N1-00361+99999101721REMSYN069CMAN  11184 WELM1 46/// /2605 11036 40172 91736 222// 0000 333 91209;
0078997707999992011021119004+43317-070550FM-18+0006WELM1V0202701N003619999999N9999999N1-00321+99999101671REMSYN069CMAN  11194 WELM1 46/// /2707 11032 40167 91836 222// 0001 333 91207;
0068997707999992011021120004+43317-070550FM-18+0006WELM1V0202701N005719999999N9999999N1-00261+99999101621REMSYN059CMAN  11204 WELM1 46/// /2711 11026 40162 91936 222// 0001;
0000997707999992011021121004+43317-070550FM-18+0006WELM1V0202601N003119999999N9999999N1-00201+99999101661
0141997707999992011021122004+43317-070550FM-18+0006WELM1V0202401N002119999999N9999999N1-00231+99999101671REMSYN132CMAN  11224 WELM1 46/// /2404 11023 40167 92136 222// 00017 10901 7000/// 222// 04035 2//// 3//// 4//// 5//// 6//// 8//// ICE /////;
0077997707999992011021123004+43317-070550FM-18+0006WELM1V0202401N001519999999N9999999N1-00291+99999101701REMSYN068CMAN  11234 WELM1 46/// /2403 11029 40170 92236 222// 0001011 22252;
0203997707999992011021200004+43317-070550FM-18+0006WELM1V0209999C000019999999N9999999N1-00401+99999101741REMSYN194CMAN  12004 WELM1 46/// /0000 11040 40174 92336 222// 00018 10901 700091212 555 11010 22011 32337 430014 62359 292010 293009 302010 294010 283309 62349 312068 318069 316069 313069 312068 314067;
0000997707999992011021201004+43317-070550FM-18+0006WELM1V0202901N001019999999N9999999N1-00611+99999101751
0078997707999992011021202004+43317-070550FM-18+0006WELM1V0202601N001519999999N9999999N1-00661+99999101751REMSYN069CMAN  12024 WELM1 46/// /2603 11066 40175 90136 222// 0000 333 91208;
0078997707999992011021203004+43317-070550FM-18+0006WELM1V0209999C000019999999N9999999N1-00801+99999101721REMSYN069CMAN  12034 WELM1 46/// /0000 11080 40172 90236 222// 0000 333 91213;
0088997707999992011021204004+43317-070550FM-18+0006WELM1V0203401N001519999999N9999999N1-01011+99999999999REMSYN079CMAN  12044 WELM1 46/// /3403 11101 90336 222// 0000/ 0002555  555 11026 22028;
0090997707999992011021205004+43317-070550FM-18+0006WELM1V0200201N001019999999N9999999N1-01071+99999999999REMSYN081CMAN  12054 WELM1 46/// /0202 11107 90436 222// 0000/ 0002 10901 70003 333 91207;
0173997707999992011021206004+43317-070550FM-18+0006WELM1V0203501N001519999999N9999999N1-01121+99999999999REMSYN164CMAN  12064 WELM1 46/// /3503 11112 90536 222// 0000/ 00020 222// 00011 333 91202 555 11002 22002 30501 417007 60559 192002 170001 143002 156002 1771 026075 008075;
0000997707999992011021207004+43317-070550FM-18+0006WELM1V0203601N001019999999N9999999N1-01101+99999999999
0068997707999992011021208004+43317-070550FM-18+0006WELM1V0203601N000519999999N9999999N1-01061+99999999999REMSYN059CMAN  12084 WELM1 46/// /3601 11106 90736 222// 0002/ 0002;
0080997707999992011021209004+43317-070550FM-18+0006WELM1V0202701N002119999999N9999999N1-00741+99999999999REMSYN071CMAN  12094 WELM1 46/// /2704 11074 90836 222// 0002/ 0024 22220 00014;
0000997707999992011021210004+43317-070550FM-18+0006WELM1V0202301N002619999999N9999999N1-00661+99999999999
0000997707999992011021211004+43317-070550FM-18+0006WELM1V0202401N001519999999N9999999N1-00691+99999999999
0074997707999992011021212004+43317-070550FM-18+0006WELM1V0203101N001019999999N9999999N1-00711+99999999999REMSYN065CMAN  12124 WELM1 46/// /3102 11071 91136 222// 0001/ 0002 80001;
0090997707999992011021213004+43317-070550FM-18+0006WELM1V0203401N000519999999N9999999N1-00661+99999100991REMSYN081CMAN  12134 WELM1 46/// /3401 11066 40099 91236 222// 0001 10301 70004 333 91213;
0082997707999992011021214004+43317-070550FM-18+0006WELM1V0209999C000019999999N9999999N1-00501+99999100851REMSYN073CMAN  12144 WELM1 46/// /0000 11050 40085 91336 222// 000055 11022 22024;
0000997707999992011021215004+43317-070550FM-18+0006WELM1V0202701N003619999999N9999999N1-00351+99999100771
0082997707999992011021216004+43317-070550FM-18+0006WELM1V0202601N002119999999N9999999N1-00211+99999100691REMSYN073CMAN  12164 WELM1 46/// /2604 11021 40069 91536 222// 010055 11008 22008;
0090997707999992011021217004+43317-070550FM-18+0006WELM1V0202601N001519999999N9999999N1-00071+99999100551REMSYN081CMAN  12174 WELM1 46/// /2603 11007 40055 91636 222// 0000 10401 70004 333 91215;
0078997707999992011021218004+43317-070550FM-18+0006WELM1V0202601N002119999999N9999999N1+00071+99999100421REMSYN069CMAN  12184 WELM1 46/// /2604 10007 40042 91736 222// 0100 333 91208;
