0084997707999992010010100004+43317-070550FM-18+0006WELM1V0203501N001519999999N9999999N1-00331+99999101941REMSYN075CMAN  01004 WELM1 46/// /3503 11033 40194 92336 222// 000191207 555  91203;
0203997707999992010010101004+43317-070550FM-18+0006WELM1V0200201N002619999999N9999999N1-00321+99999101861REMSYN194CMAN  01014 WELM1 46/// /0205 11032 40186 90036 222// 0004555 050 22200 00051 11005 20703 3//// 41003 70024 333 91209 555 11084 22088 32351 40410 60049 049079 050079 046073 044074 047080 049082;
0088997707999992010010102004+43317-070550FM-18+0006WELM1V0203501N003619999999N9999999N1-00311+99999101821REMSYN079CMAN  01024 WELM1 46/// /3507 11031 40182 90136 222// 0004555  555 11014 22015;
0090997707999992010010103004+43317-070550FM-18+0006WELM1V0203601N002619999999N9999999N1-00291+99999101751REMSYN081CMAN  01034 WELM1 46/// /3605 11029 40175 90236 222// 0004 10601 70005 333 91207;
0099997707999992010010104004+43317-070550FM-18+0006WELM1V0203601N003119999999N9999999N1-00281+99999101661REMSYN090CMAN  01044 WELM1 46/// /3606 11028 40166 90336 222// 00043 11304 21003 329// 41303 70020;
0078997707999992010010105004+43317-070550FM-18+0006WELM1V0203501N003619999999N9999999N1-00271+99999101581REMSYN069CMAN  01054 WELM1 46/// /3507 11027 40158 90436 222// 0004 333 91203;
0088997707999992010010106004+43317-070550FM-18+0006WELM1V0203401N003619999999N9999999N1-00281+99999101491REMSYN079CMAN  01064 WELM1 46/// /3407 11028 40149 90536 222// 00041211 555 11011 22011;
0099997707999992010010107004+43317-070550FM-18+0006WELM1V0203401N004619999999N9999999N1-00311+99999101431REMSYN090CMAN  01074 WELM1 46/// /3409 11031 40143 90636 222// 00042 11304 21002 329// 41303 70020;
0082997707999992010010108004+43317-070550FM-18+0006WELM1V0203501N005719999999N9999999N1-00291+99999101381REMSYN073CMAN  01084 WELM1 46/// /3511 11029 40138 90736 222// 0003555 1005 22006;
0000997707999992010010109004+43317-070550FM-18+0006WELM1V0203501N004619999999N9999999N1-00271+99999101331
0000997707999992010010110004+43317-070550FM-18+0006WELM1V0203501N004619999999N9999999N1-00241+99999101271
0068997707999992010010111004+43317-070550FM-18+0006WELM1V0203501N004119999999N9999999N1-00221+99999101271REMSYN059CMAN  01114 WELM1 46/// /3508 11022 40127 91036 222// 0002;
0078997707999992010010112004+43317-070550FM-18+0006WELM1V0203401N003119999999N9999999N1-00241+99999101251REMSYN069CMAN  01124 WELM1 46/// /3406 11024 40125 91136 222// 0002 333 91210;
0203997707999992010010113004+43317-070550FM-18+0006WELM1V0203301N002619999999N9999999N1-00171+99999101231REMSYN194CMAN  01134 WELM1 46/// /3305 11017 40123 91236 222// 0004555 3 555 200 00095 11007 20604 321// 41006 70034 333 91215 555 11137 22148 31207 41817 61249 187128 185126 185124 189131 181136 177120;
0076997707999992010010114004+43317-070550FM-18+0006WELM1V0203601N004119999999N9999999N1-00121+99999101181REMSYN067CMAN  01144 WELM1 46/// /3608 11012 40118 91336 222// 000412 52022;
0078997707999992010010115004+43317-070550FM-18+0006WELM1V0203601N003619999999N9999999N1-00091+99999101201REMSYN069CMAN  01154 WELM1 46/// /3607 11009 40120 91436 222// 0004 333 91216;
0088997707999992010010116004+43317-070550FM-18+0006WELM1V0203401N003619999999N9999999N1-00051+99999101111REMSYN079CMAN  01164 WELM1 46/// /3407 11005 40111 91536 222// 0004555  555 11018 22019;
0082997707999992010010117004+43317-070550FM-18+0006WELM1V0203501N004619999999N9999999N1-00011+99999100971REMSYN073CMAN  01174 WELM1 46/// /3509 11001 40097 91636 222// 000455 11002 22002;
0203997707999992010010118004+43317-070550FM-18+0006WELM1V0203601N004119999999N9999999N1+00041+99999100911REMSYN194CMAN  01184 WELM1 46/// /3608 10004 40091 91736 222// 00040 91750 22200 00034 10706 20705 300// 41003 70028 333 91215 555 11125 22133 31722 40916 61749 093125 092124 092132 095133 098126 099127;
0088997707999992010010119004+43317-070550FM-18+0006WELM1V0200101N005119999999N9999999N1+00041+99999100851REMSYN079CMAN  01194 WELM1 46/// /0110 10004 40085 91836 222// 00046 10701 700003 22004;
0088997707999992010010120004+43317-070550FM-18+0006WELM1V0200101N004119999999N9999999N1+00041+99999100891REMSYN079CMAN  01204 WELM1 46/// /0108 10004 40089 91936 222// 0003555  555 11021 22023;
0000997707999992010010121004+43317-070550FM-18+0006WELM1V0200201N004619999999N9999999N1+00041+99999100861
0082997707999992010010122004+43317-070550FM-18+0006WELM1V0200201N004619999999N9999999N1+00021+99999100881REMSYN073CMAN  01224 WELM1 46/// /0209 10002 40088 92136 222// 000355 11023 22024;
0000997707999992010010123004+43317-070550FM-18+0006WELM1V0200101N004119999999N9999999N1-00031+99999100871
0000997707999992010010200004+43317-070550FM-18+0006WELM1V0200201N005719999999N9999999N1-00101+99999100851
0078997707999992010010201004+43317-070550FM-18+0006WELM1V0200201N005719999999N9999999N1-00151+99999100781REMSYN069CMAN  02014 WELM1 46/// /0211 11015 40078 90036 222// 0002 333 91207;
0092997707999992010010202004+43317-070550FM-18+0006WELM1V0200201N006219999999N9999999N1-00191+99999100691REMSYN083CMAN  02024 WELM1 46/// /0212 11019 40069 90136 222// 0004555 0 555 81 11702 70010;
0082997707999992010010203004+43317-070550FM-18+0006WELM1V0200201N005719999999N9999999N1-00241+99999100641REMSYN073CMAN  02034 WELM1 46/// /0211 11024 40064 90236 222// 000455 11003 22003;
0082997707999992010010204004+43317-070550FM-18+0006WELM1V0200201N005119999999N9999999N1-00261+99999100601REMSYN073CMAN  02044 WELM1 46/// /0210 11026 40060 90336 222// 000455 11002 22002;
0078997707999992010010205004+43317-070550FM-18+0006WELM1V0200201N006219999999N9999999N1-00311+99999100501REMSYN069CMAN  02054 WELM1 46/// /0212 11031 40050 90436 222// 0004 333 82640;
0088997707999992010010206004+43317-070550FM-18+0006WELM1V0200301N006719999999N9999999N1-00341+99999100421REMSYN079CMAN  02064 WELM1 46/// /0313 11034 40042 90536 222// 00047 1//00 700023 22024;
0088997707999992010010207004+43317-070550FM-18+0006WELM1V0200201N005719999999N9999999N1-00391+99999100401REMSYN079CMAN  02074 WELM1 46/// /0211 11039 40040 90636 222// 0003555  555 11025 22027;
0088997707999992010010208004+43317-070550FM-18+0006WELM1V0200201N005719999999N9999999N1-00411+99999100391REMSYN079CMAN  02084 WELM1 46/// /0211 11041 40039 90736 222// 0003555  555 11027 22029;
0149997707999992010010209004+43317-070550FM-18+0006WELM1V0200201N005119999999N9999999N1-00441+99999100311REMSYN140CMAN  02094 WELM1 46/// /0210 11044 40031 90836 222// 0003555 2 555 5 70300 821// 22274 00250 20404 332// 4//// 5//// 6//// 80180 ICE /////;
0000997707999992010010210004+43317-070550FM-18+0006WELM1V0200101N005119999999N9999999N1-00441+99999100241
0000997707999992010010211004+43317-070550FM-18+0006WELM1V0200101N006219999999N9999999N1-00461+99999100171
0119997707999992010010316004+43317-070550FM-18+0006WELM1V0203601N008719999999N9999999N1+00111+99999098391REMSYN110CMAN  03164 WELM1 46/// /3617 10011 49839 91618 222// 000491210 555 96 333 91210 555 50127 71559 810009 91555;
0000997707999992010010718004+43317-070550FM-18+0006WELM1V0203301N004619999999N9999999N1+00201+99999100271
0088997707999992010010719004+43317-070550FM-18+0006WELM1V0203001N004619999999N9999999N1+00231+99999100261REMSYN079CMAN  07194 WELM1 46/// /3009 10023 40026 91836 222// 00047 10501 700009 22009;
0082997707999992010010720004+43317-070550FM-18+0006WELM1V0202901N004619999999N9999999N1+00221+99999100311REMSYN073CMAN  07204 WELM1 46/// /2909 10022 40031 91936 222// 000455 11001 22001;
0088997707999992010010721004+43317-070550FM-18+0006WELM1V0202901N005119999999N9999999N1+00191+99999100371REMSYN079CMAN  07214 WELM1 46/// /2910 10019 40037 92036 222// 0004555  555 11009 22010;
0088997707999992010010722004+43317-070550FM-18+0006WELM1V0203101N006219999999N9999999N1+00101+99999100401REMSYN079CMAN  07224 WELM1 46/// /3112 10010 40040 92136 222// 0004555  555 11007 22007;
0088997707999992010010723004+43317-070550FM-18+0006WELM1V0203101N004119999999N9999999N1+00021+99999100481REMSYN079CMAN  07234 WELM1 46/// /3108 10002 40048 92236 222// 00049 10501 700004 22004;
0088997707999992010010800004+43317-070550FM-18+0006WELM1V0203101N004119999999N9999999N1-00021+99999100541REMSYN079CMAN  08004 WELM1 46/// /3108 11002 40054 92336 222// 0004555  555 11011 22011;
0088997707999992010010801004+43317-070550FM-18+0006WELM1V0203101N004119999999N9999999N1-00071+99999100571REMSYN079CMAN  08014 WELM1 46/// /3108 11007 40057 90036 222// 0004555  555 11003 22003;
0082997707999992010010802004+43317-070550FM-18+0006WELM1V0203301N004619999999N9999999N1-00151+99999100601REMSYN073CMAN  08024 WELM1 46/// /3309 11015 40060 90136 222// 000370322 22274/20;
0088997707999992010010803004+43317-070550FM-18+0006WELM1V0203201N003619999999N9999999N1-00241+99999100641REMSYN079CMAN  08034 WELM1 46/// /3207 11024 40064 90236 222// 0003555  555 11013 22013;
0082997707999992010010804004+43317-070550FM-18+0006WELM1V0203301N005119999999N9999999N1-00331+99999100661REMSYN073CMAN  08044 WELM1 46/// /3310 11033 40066 90336 222// 000355 11009 22010;
0082997707999992010010805004+43317-070550FM-18+0006WELM1V0203201N002619999999N9999999N1-00401+99999100691REMSYN073CMAN  08054 WELM1 46/// /3205 11040 40069 90436 222// 000255 11016 22017;
0096997707999992010010806004+43317-070550FM-18+0006WELM1V0203101N002619999999N9999999N1-00481+99999100641REMSYN087CMAN  08064 WELM1 46/// /3105 11048 40064 90536 222// 0002 29067 30002 90500 333 60000;
0082997707999992010010807004+43317-070550FM-18+0006WELM1V0202701N001019999999N9999999N1-00581+99999100671REMSYN073CMAN  08074 WELM1 46/// /2702 11058 40067 90636 222// 0003555 1013 22014;
0088997707999992010010808004+43317-070550FM-18+0006WELM1V0203001N001519999999N9999999N1-00651+99999100661REMSYN079CMAN  08084 WELM1 46/// /3003 11065 40066 90736 222// 0004555 0 555 1010 22011;
0078997707999992010010809004+43317-070550FM-18+0006WELM1V0202901N002119999999N9999999N1-00681+99999100621REMSYN069CMAN  08094 WELM1 46/// /2904 11068 40062 90836 222// 0004 333 91206;
0088997707999992010010810004+43317-070550FM-18+0006WELM1V0203101N001519999999N9999999N1-00671+99999100541REMSYN079CMAN  08104 WELM1 46/// /3103 11067 40054 90936 222// 00046 10502 700014 22014;
0084997707999992010010815004+43317-070550FM-18+0006WELM1V0200101N001519999999N9999999N1-00551+99999100541REMSYN075CMAN  08154 WELM1 46/// /0103 11055 40054 91506 222// 0003/ 002791219 555 ;
0073997707999992010010816004+43317-070550FM-18+0006WELM1V0200201N003119999999N9999999N1-00561+99999100491REMSYN064CMAN  08164 WELM1 46/// /0206 11056 40049 91536 222// 000253003;
0099997707999992010010817004+43317-070550FM-18+0006WELM1V0200301N003619999999N9999999N1-00541+99999100371REMSYN090CMAN  08174 WELM1 46/// /0307 11054 40037 91636 222// 00020 11405 21002 328// 41405 70027;
0203997707999992010010818004+43317-070550FM-18+0006WELM1V0200201N003119999999N9999999N1-00481+99999100281REMSYN194CMAN  08184 WELM1 46/// /0206 11048 40028 91736 222// 00015 91750 22200 00032 10805 20804 300// 41501 70023 333 91211 555 11097 22102 31741 40712 61749 068097 063094 058094 064095 062095 059095;
0092997707999992010010819004+43317-070550FM-18+0006WELM1V0200101N003619999999N9999999N1-00471+99999100241REMSYN083CMAN  08194 WELM1 46/// /0107 11047 40024 91836 222// 0001 22200 00291 10702 70008;
0078997707999992010010820004+43317-070550FM-18+0006WELM1V0203501N002619999999N9999999N1-00491+99999100251REMSYN069CMAN  08204 WELM1 46/// /3505 11049 40025 91936 222// 0004 333 91218;
0096997707999992010010913004+43317-070550FM-18+0006WELM1V0202901N002619999999N9999999N1-00811+99999999999REMSYN087CMAN  09134 WELM1 46/// /2905 11081 91300 222// 00030 222// 002791228 555 49 333 60000;
0096997707999992010010914004+43317-070550FM-18+0006WELM1V0203101N002619999999N9999999N1-00731+99999999999REMSYN087CMAN  09144 WELM1 46/// /3105 11073 91336 222// 0003/ 0000 29068 30017 91300 333 60000;
0088997707999992010010915004+43317-070550FM-18+0006WELM1V0203301N005719999999N9999999N1-00641+99999101181REMSYN079CMAN  09154 WELM1 46/// /3311 11064 40118 91436 222// 0003555  555 11020 22021;
0096997707999992010010916004+43317-070550FM-18+0006WELM1V0203301N007219999999N9999999N1-00561+99999101221REMSYN087CMAN  09164 WELM1 46/// /3314 11056 40122 91536 222// 00032 1//00 70006199 83818 88357;
0088997707999992010010917004+43317-070550FM-18+0006WELM1V0203301N005119999999N9999999N1-00481+99999101211REMSYN079CMAN  09174 WELM1 46/// /3310 11048 40121 91636 222// 0002555 2 555 1012 22013;
0088997707999992010010918004+43317-070550FM-18+0006WELM1V0203201N005719999999N9999999N1-00421+99999101191REMSYN079CMAN  09184 WELM1 46/// /3211 11042 40119 91736 222// 0002555  555 11014 22015;
0132997707999992010010919004+43317-070550FM-18+0006WELM1V0203001N005719999999N9999999N1-00361+99999101191REMSYN123CMAN  09194 WELM1 46/// /3011 11036 40119 91836 222// 0001 77773 877// 333 55300 20000 30000 87701 91118 91212 96036 96010;
0096997707999992010010920004+43317-070550FM-18+0006WELM1V0203201N007219999999N9999999N1-00381+99999101221REMSYN087CMAN  09204 WELM1 46/// /3214 11038 40122 91936 222// 0001 29046 39986 91900 333 60000;
0088997707999992010010921004+43317-070550FM-18+0006WELM1V0203001N004119999999N9999999N1-00461+99999101321REMSYN079CMAN  09214 WELM1 46/// /3008 11046 40132 92036 222// 0003555  555 11020 22021;
0078997707999992010010922004+43317-070550FM-18+0006WELM1V0202901N003619999999N9999999N1-00601+99999101391REMSYN069CMAN  09224 WELM1 46/// /2907 11060 40139 92136 222// 0003 333 91211;
0103997707999992010010923004+43317-070550FM-18+0006WELM1V0202901N002619999999N9999999N1-00721+99999101471REMSYN094CMAN  09234 WELM1 46/// /2905 11072 40147 92236 222// 0003/ 333 20070 31/// 56799 70013 88730;
0088997707999992010011000004+43317-070550FM-18+0006WELM1V0203001N003119999999N9999999N1-00801+99999101531REMSYN079CMAN  10004 WELM1 46/// /3006 11080 40153 92336 222// 00032 1//00 700016 22016;
0080997707999992010011001004+43317-070550FM-18+0006WELM1V0202701N001519999999N9999999N1-00931+99999101631REMSYN071CMAN  10014 WELM1 46/// /2703 11093 40163 90036 222// 0003 22260 00004;
0088997707999992010011002004+43317-070550FM-18+0006WELM1V0203301N003119999999N9999999N1-00961+99999999999REMSYN079CMAN  10024 WELM1 46/// /3306 11096 90136 222// 0003/ 0000555  555 11015 22016;
0167997707999992010011003004+43317-070550FM-18+0006WELM1V0203501N003119999999N9999999N1-01061+99999999999REMSYN158CMAN  10034 WELM1 46/// /3506 11106 90242 222// 0003/ 00155 90300 333 91211 555 11009 22010 30246 426012 60259 255010 257010 256009 258009 25018 347R// 7R///;
0000997707999992010011004004+43317-070550FM-18+0006WELM1V0203301N002119999999N9999999N1-01171+99999999999
0000997707999992010011005004+43317-070550FM-18+0006WELM1V0202701N001519999999N9999999N1-01281+99999999999
0096997707999992010011006004+43317-070550FM-18+0006WELM1V0203101N002119999999N9999999N1-01361+99999999999REMSYN087CMAN  10064 WELM1 46/// /3104 11136 90536 222// 0002/ 0000 29072 30016 90510 333 60000;
0088997707999992010011007004+43317-070550FM-18+0006WELM1V0203001N002619999999N9999999N1-01341+99999999999REMSYN079CMAN  10074 WELM1 46/// /3005 11134 90636 222// 0001/ 0000555  555 11007 22007;
0000997707999992010011008004+43317-070550FM-18+0006WELM1V0203101N002119999999N9999999N1-01301+99999999999
0088997707999992010011009004+43317-070550FM-18+0006WELM1V0203101N002619999999N9999999N1-01411+99999999999REMSYN079CMAN  10094 WELM1 46/// /3105 11141 90836 222// 0003/ 0000555  555 11016 22017;
0082997707999992010011010004+43317-070550FM-18+0006WELM1V0203101N002119999999N9999999N1-01491+99999999999REMSYN073CMAN  10104 WELM1 46/// /3104 11149 90936 222// 0003/ 000055 11002 22002;
0000997707999992010011011004+43317-070550FM-18+0006WELM1V0203301N002119999999N9999999N1-01351+99999999999
0076997707999992010011012004+43317-070550FM-18+0006WELM1V0202901N001019999999N9999999N1-01511+99999999999REMSYN067CMAN  10124 WELM1 46/// /2902 11151 91136 222// 0003/ 000007 22007;
0099997707999992010011013004+43317-070550FM-18+0006WELM1V0203201N003119999999N9999999N1-01281+99999999999REMSYN090CMAN  10134 WELM1 46/// /3206 11128 91236 222// 0003/ 00002 11707 21003 328// 41707 70037;
0096997707999992010011014004+43317-070550FM-18+0006WELM1V0203201N002619999999N9999999N1-01201+99999999999REMSYN087CMAN  10144 WELM1 46/// /3205 11120 91336 222// 0003/ 0000 29069 30023 91230 333 60000;
0078997707999992010011015004+43317-070550FM-18+0006WELM1V0203101N001519999999N9999999N1-00991+99999999999REMSYN069CMAN  10154 WELM1 46/// /3103 11099 91436 222// 0003/ 0000 333 91211;
0088997707999992010011016004+43317-070550FM-18+0006WELM1V0202401N001519999999N9999999N1-00791+99999102001REMSYN079CMAN  10164 WELM1 46/// /2403 11079 40200 91536 222// 0003555  555 11027 22029;
0099997707999992010011017004+43317-070550FM-18+0006WELM1V0203101N001019999999N9999999N1-00641+99999101931REMSYN090CMAN  10174 WELM1 46/// /3102 11064 40193 91636 222// 00022 11509 20903 328// 41509 70045;
0114997707999992010011018004+43317-070550FM-18+0006WELM1V0203301N002619999999N9999999N1-00501+99999101801REMSYN105CMAN  10184 WELM1 46/// /3305 11050 40180 91736 222// 0002 84500 333 60005 84620 91033 90710 91133 93100;
0000997707999992010011019004+43317-070550FM-18+0006WELM1V0202801N002619999999N9999999N1-00341+99999101721
0072997707999992010011020004+43317-070550FM-18+0006WELM1V0203101N002619999999N9999999N1-00301+99999101721REMSYN063CMAN  10204 WELM1 46/// /3105 11030 40172 91936 222// 00011214;
0088997707999992010011021004+43317-070550FM-18+0006WELM1V0202801N003119999999N9999999N1-00341+99999101721REMSYN079CMAN  10214 WELM1 46/// /2806 11034 40172 92036 222// 0000555  555 11033 22036;
0088997707999992010011022004+43317-070550FM-18+0006WELM1V0203001N004619999999N9999999N1-00561+99999101741REMSYN079CMAN  10224 WELM1 46/// /3009 11056 40174 92136 222// 0002555  555 11039 22042;
0088997707999992010011023004+43317-070550FM-18+0006WELM1V0203001N003119999999N9999999N1-00681+99999101761REMSYN079CMAN  10234 WELM1 46/// /3006 11068 40176 92236 222// 0003555  555 11039 22042;
0000997707999992010011100004+43317-070550FM-18+0006WELM1V0203001N003119999999N9999999N1-00741+99999101771
0126997707999992010011103004+43317-070550FM-18+0006WELM1V0203001N001519999999N9999999N1-00831+99999999999REMSYN117CMAN  11034 WELM1 46/// /3003 11083 90300 222// 0003/ 0000/ 002691226 555  55300 20000 30000 41011 69917 82704 87706;
0000997707999992010011104004+43317-070550FM-18+0006WELM1V0203001N001519999999N9999999N1-00791+99999999999
0078997707999992010011105004+43317-070550FM-18+0006WELM1V0202901N003119999999N9999999N1-00791+99999999999REMSYN069CMAN  11054 WELM1 46/// /2906 11079 90436 222// 0002/ 0000 333 91211;
0000997707999992010011106004+43317-070550FM-18+0006WELM1V0202801N002619999999N9999999N1-00781+99999999999
0088997707999992010011107004+43317-070550FM-18+0006WELM1V0202901N002119999999N9999999N1-00831+99999101571REMSYN079CMAN  11074 WELM1 46/// /2904 11083 40157 90636 222// 0002555  555 11035 22037;
0116997707999992010011108004+43317-070550FM-18+0006WELM1V0202801N002119999999N9999999N1-00831+99999999999REMSYN107CMAN  11084 WELM1 46/// /2804 11083 90736 222// 0001/ 0000 40161 57002 70222 8/1// 22264 00/// 2//// 80230;
0088997707999992010011109004+43317-070550FM-18+0006WELM1V0202801N002619999999N9999999N1-00841+99999999999REMSYN079CMAN  11094 WELM1 46/// /2805 11084 90836 222// 0000/ 0000555  555 11036 22038;
0088997707999992010011110004+43317-070550FM-18+0006WELM1V0202901N003619999999N9999999N1-00851+99999999999REMSYN079CMAN  11104 WELM1 46/// /2907 11085 90936 222// 0003/ 00001215 555 11013 22013;
0000997707999992010011111004+43317-070550FM-18+0006WELM1V0202901N003119999999N9999999N1-00891+99999999999
0000997707999992010011112004+43317-070550FM-18+0006WELM1V0202901N002119999999N9999999N1-00911+99999999999
0088997707999992010011113004+43317-070550FM-18+0006WELM1V0202901N003119999999N9999999N1-00891+99999999999REMSYN079CMAN  11134 WELM1 46/// /2906 11089 91236 222// 000391205 555  555 11029 22031;
0088997707999992010011114004+43317-070550FM-18+0006WELM1V0202901N002619999999N9999999N1-00701+99999999999REMSYN079CMAN  11144 WELM1 46/// /2905 11070 91336 222// 000391205 555  555 11033 22036;
0087997707999992010011115004+43317-070550FM-18+0006WELM1V0202901N003619999999N9999999N1-00471+99999101481REMSYN078CMAN  11154 WELM1 46/// /2907 11047 40148 91436 222// 00030 22200 10909 70045;
0088997707999992010011116004+43317-070550FM-18+0006WELM1V0202901N003619999999N9999999N1-00231+99999101471REMSYN079CMAN  11164 WELM1 46/// /2907 11023 40147 91536 222// 0003555  555 11031 22033;
0088997707999992010011117004+43317-070550FM-18+0006WELM1V0202901N004619999999N9999999N1-00011+99999101371REMSYN079CMAN  11174 WELM1 46/// /2909 11001 40137 91636 222// 00025 1//00 700030 22032;
0088997707999992010011118004+43317-070550FM-18+0006WELM1V0203001N003619999999N9999999N1+00031+99999101301REMSYN079CMAN  11184 WELM1 46/// /3007 10003 40130 91736 222// 0002555  555 11029 22031;
0099997707999992010011119004+43317-070550FM-18+0006WELM1V0203001N005119999999N9999999N1+00041+99999101261REMSYN090CMAN  11194 WELM1 46/// /3010 10004 40126 91836 222// 00023 11304 20902 327// 41303 70020;
0088997707999992010011120004+43317-070550FM-18+0006WELM1V0203301N004619999999N9999999N1+00061+99999101271REMSYN079CMAN  11204 WELM1 46/// /3309 10006 40127 91936 222// 0002555 1 555 1027 22029;
0088997707999992010011121004+43317-070550FM-18+0006WELM1V0203201N003119999999N9999999N1+00081+99999101281REMSYN079CMAN  11214 WELM1 46/// /3206 10008 40128 92036 222// 00011217 555 11015 22016;
0099997707999992010011122004+43317-070550FM-18+0006WELM1V0203001N003119999999N9999999N1+00041+99999101271REMSYN090CMAN  11224 WELM1 46/// /3006 10004 40127 92136 222// 00013 11404 21002 329// 41404 70022;
0088997707999992010011123004+43317-070550FM-18+0006WELM1V0202901N002119999999N9999999N1-00011+99999101291REMSYN079CMAN  11234 WELM1 46/// /2904 11001 40129 92236 222// 0002555  555 11033 22035;
0155997707999992010011200004+43317-070550FM-18+0006WELM1V0202801N002119999999N9999999N1-00071+99999101321REMSYN146CMAN  12004 WELM1 46/// /2804 11007 40132 92342 222// 000391235 555 11028 22030 32344 413035 62359 133028 134029 133028 134028 13009 01003 061004;
0082997707999992010011201004+43317-070550FM-18+0006WELM1V0202601N001519999999N9999999N1-00131+99999101331REMSYN073CMAN  12014 WELM1 46/// /2603 11013 40133 90036 222// 00033 10401 700012;
0000997707999992010011202004+43317-070550FM-18+0006WELM1V0202701N001519999999N9999999N1-00171+99999101331
0149997707999992010011203004+43317-070550FM-18+0006WELM1V0202801N001519999999N9999999N1-00261+99999101321REMSYN140CMAN  12034 WELM1 46/// /2803 11026 40132 90242 222// 00030 333 91208 555 11007 22008 30255 433009 60259 325008 327006 323006 326006 325024;
0000997707999992010011204004+43317-070550FM-18+0006WELM1V0203001N001519999999N9999999N1-00281+99999101321
0197997707999992010011205004+43317-070550FM-18+0006WELM1V0203001N001519999999N9999999N1-00341+99999101311REMSYN188CMAN  12054 WELM1 46/// /3003 11034 40131 90442 222// 000391232 555 11025 22026 30411 417053 60459 168028 164029 164028 167031 1612 014013 01014 2692025 293029 297027 294021 297033 291029;
0096997707999992010011206004+43317-070550FM-18+0006WELM1V0202901N001519999999N9999999N1-00351+99999101271REMSYN087CMAN  12064 WELM1 46/// /2903 11035 40127 90536 222// 0002 29095 39958 90500 333 60000;
0082997707999992010011207004+43317-070550FM-18+0006WELM1V0202901N002619999999N9999999N1-00351+99999101271REMSYN073CMAN  12074 WELM1 46/// /2905 11035 40127 90636 222// 000255 11011 22012;
0000997707999992010011208004+43317-070550FM-18+0006WELM1V0203201N001519999999N9999999N1-00331+99999101301
0088997707999992010011209004+43317-070550FM-18+0006WELM1V0203501N000519999999N9999999N1-00431+99999101281REMSYN079CMAN  12094 WELM1 46/// /3501 11043 40128 90836 222// 0001555  555 11041 22044;
0088997707999992010011210004+43317-070550FM-18+0006WELM1V0203201N001019999999N9999999N1-00371+99999101251REMSYN079CMAN  12104 WELM1 46/// /3202 11037 40125 90936 222// 00011211 555 11011 22011;
0088997707999992010011211004+43317-070550FM-18+0006WELM1V0202801N001519999999N9999999N1-00361+99999101231REMSYN079CMAN  12114 WELM1 46/// /2803 11036 40123 91036 222// 00030 10502 700109 22010;
0088997707999992010011212004+43317-070550FM-18+0006WELM1V0202901N001519999999N9999999N1-00341+99999101241REMSYN079CMAN  12124 WELM1 46/// /2903 11034 40124 91136 222// 0003555  555 11044 22047;
0000997707999992010011213004+43317-070550FM-18+0006WELM1V0203201N002119999999N9999999N1-00321+99999101241
0090997707999992010011214004+43317-070550FM-18+0006WELM1V0203201N001519999999N9999999N1-00281+99999101251REMSYN081CMAN  12144 WELM1 46/// /3203 11028 40125 91336 222// 0003 10502 70009 333 91212;
0088997707999992010011215004+43317-070550FM-18+0006WELM1V0203201N001019999999N9999999N1-00211+99999101281REMSYN079CMAN  12154 WELM1 46/// /3202 11021 40128 91436 222// 0003555  555 11044 22047;
0000997707999992010011216004+43317-070550FM-18+0006WELM1V0203501N002619999999N9999999N1-00171+99999101261
0000997707999992010011217004+43317-070550FM-18+0006WELM1V0202801N002619999999N9999999N1-00121+99999101141
0076997707999992010011218004+43317-070550FM-18+0006WELM1V0203201N006219999999N9999999N1-00151+99999101021REMSYN067CMAN  12184 WELM1 46/// /3212 11015 40102 91736 222// 0003555 2008;
0088997707999992010011219004+43317-070550FM-18+0006WELM1V0203001N004619999999N9999999N1-00201+99999100971REMSYN079CMAN  12194 WELM1 46/// /3009 11020 40097 91836 222// 00036 10601 700014 22015;
0088997707999992010011220004+43317-070550FM-18+0006WELM1V0203001N005119999999N9999999N1-00261+99999100961REMSYN079CMAN  12204 WELM1 46/// /3010 11026 40096 91936 222// 0002555  555 11036 22039;
0088997707999992010011221004+43317-070550FM-18+0006WELM1V0203101N005119999999N9999999N1-00401+99999101011REMSYN079CMAN  12214 WELM1 46/// /3110 11040 40101 92036 222// 00025 10601 700016 22018;
0082997707999992010011222004+43317-070550FM-18+0006WELM1V0203101N004119999999N9999999N1-00531+99999101121REMSYN073CMAN  12224 WELM1 46/// /3108 11053 40112 92136 222// 000255 11002 22002;
0082997707999992010011223004+43317-070550FM-18+0006WELM1V0203201N003619999999N9999999N1-00621+99999101171REMSYN073CMAN  12234 WELM1 46/// /3207 11062 40117 92236 222// 000252 57003 92230;
0082997707999992010011300004+43317-070550FM-18+0006WELM1V0203201N003119999999N9999999N1-00711+99999101251REMSYN073CMAN  13004 WELM1 46/// /3206 11071 40125 92336 222// 000355 11001 22001;
0088997707999992010011301004+43317-070550FM-18+0006WELM1V0203301N003619999999N9999999N1-00791+99999101331REMSYN079CMAN  13014 WELM1 46/// /3307 11079 40133 90036 222// 00035 10601 700035 22037;
0197997707999992010011302004+43317-070550FM-18+0006WELM1V0203301N003619999999N9999999N1-00871+99999101341REMSYN188CMAN  13024 WELM1 46/// /3307 11087 40134 90142 222// 00030 333 91214 555 11012 22013 30144 428021 60159 298015 279017 300015 289013 2916 314016 3146081 246077 244082 252081 255076 252077;
0086997707999992010011303004+43317-070550FM-18+0006WELM1V0203101N003119999999N9999999N1-01001+99999999999REMSYN077CMAN  13034 WELM1 46/// /3106 11100 90236 222// 0003/ 00004 10601 7000 90230;
0088997707999992010011304004+43317-070550FM-18+0006WELM1V0203101N002619999999N9999999N1-01041+99999999999REMSYN079CMAN  13044 WELM1 46/// /3105 11104 90336 222// 0003/ 0000555  555 11036 22039;
0088997707999992010011305004+43317-070550FM-18+0006WELM1V0202601N001019999999N9999999N1-01081+99999999999REMSYN079CMAN  13054 WELM1 46/// /2602 11108 90436 222// 0003/ 0000555  555 11034 22036;
0149997707999992010011306004+43317-070550FM-18+0006WELM1V0202901N002119999999N9999999N1-01181+99999999999REMSYN140CMAN  13064 WELM1 46/// /2904 11118 90542 222// 0003/ 00150 333 91229 555 11024 22025 30505 425032 60559 250027 251028 252029 250029 250016;
0088997707999992010011307004+43317-070550FM-18+0006WELM1V0202901N001519999999N9999999N1-01231+99999999999REMSYN079CMAN  13074 WELM1 46/// /2903 11123 90636 222// 0002/ 00005 10601 700018 22018;
0066997707999992010011308004+43317-070550FM-18+0006WELM1V0202701N001519999999N9999999N1-01241+99999999999REMSYN057CMAN  13084 WELM1 46/// /2703 11124 90736 222// 00021219;
0088997707999992010011309004+43317-070550FM-18+0006WELM1V0203001N001519999999N9999999N1-01321+99999999999REMSYN079CMAN  13094 WELM1 46/// /3003 11132 90836 222// 0001/ 00073 1//00 700031 22033;
0068997707999992010011310004+43317-070550FM-18+0006WELM1V0203101N001519999999N9999999N1-01351+99999999999REMSYN059CMAN  13104 WELM1 46/// /3103 11135 90936 222// 0000/ 0000;
0209997707999992010011311004+43317-070550FM-18+0006WELM1V0202801N001519999999N9999999N1-01311+99999999999REMSYN200CMAN  13114 WELM1 46/// /2803 11131 91036 222// 0000/ 00000 22200 00056 11202 20502 317// 41201 70011 333 91208 555 11073 22077 31046 40108 61049 014067 014060 012057 010056 005059 008064 81908 90953;
0078997707999992010011312004+43317-070550FM-18+0006WELM1V0203101N001519999999N9999999N1-01271+99999999999REMSYN069CMAN  13124 WELM1 46/// /3103 11127 91136 222// 0002/ 0000 333 91206;
0068997707999992010011313004+43317-070550FM-18+0006WELM1V0203001N002119999999N9999999N1-01251+99999999999REMSYN059CMAN  13134 WELM1 46/// /3004 11125 91236 222// 0002/ 0000;
0088997707999992010011314004+43317-070550FM-18+0006WELM1V0203201N002619999999N9999999N1-01021+99999999999REMSYN079CMAN  13144 WELM1 46/// /3205 11102 91336 222// 0002/ 0000555  555 11028 22029;
0088997707999992010011315004+43317-070550FM-18+0006WELM1V0203201N003119999999N9999999N1-00751+99999999999REMSYN079CMAN  13154 WELM1 46/// /3206 11075 91436 222// 0003/ 0000555  555 11023 22025;
0088997707999992010011316004+43317-070550FM-18+0006WELM1V0203101N003619999999N9999999N1-00481+99999101681REMSYN079CMAN  13164 WELM1 46/// /3107 11048 40168 91536 222// 0003555  555 11023 22024;
0082997707999992010011317004+43317-070550FM-18+0006WELM1V0203301N002619999999N9999999N1-00291+99999101601REMSYN073CMAN  13174 WELM1 46/// /3305 11029 40160 91636 222// 0003555 1003 22003;
0082997707999992010011318004+43317-070550FM-18+0006WELM1V0202801N003619999999N9999999N1-00201+99999101551REMSYN073CMAN  13184 WELM1 46/// /2807 11020 40155 91736 222// 0002555 1006 22006;
0088997707999992010011319004+43317-070550FM-18+0006WELM1V0203401N006219999999N9999999N1-00211+99999101541REMSYN079CMAN  13194 WELM1 46/// /3412 11021 40154 91836 222// 0002555 3 555 1023 22024;
0082997707999992010011320004+43317-070550FM-18+0006WELM1V0202901N004119999999N9999999N1-00191+99999101581REMSYN073CMAN  13204 WELM1 46/// /2908 11019 40158 91936 222// 000255 11003 22003;
0088997707999992010011321004+43317-070550FM-18+0006WELM1V0203001N003619999999N9999999N1-00331+99999101631REMSYN079CMAN  13214 WELM1 46/// /3007 11033 40163 92036 222// 0002555  555 11020 22022;
0000997707999992010011322004+43317-070550FM-18+0006WELM1V0203201N003619999999N9999999N1-00421+99999101661
0084997707999992010011323004+43317-070550FM-18+0006WELM1V0203001N002119999999N9999999N1-00461+99999101671REMSYN075CMAN  13234 WELM1 46/// /3004 11046 40167 92236 222// 00007 1//00 70009/01;
0149997707999992010011400004+43317-070550FM-18+0006WELM1V0203301N002119999999N9999999N1-00461+99999101741REMSYN140CMAN  14004 WELM1 46/// /3304 11046 40174 92348 222// 00010 333 91217 555 11013 22014 32355 420018 62359 195015 194015 194015 193015 191011;
0082997707999992010011401004+43317-070550FM-18+0006WELM1V0203201N001519999999N9999999N1-00491+99999101751REMSYN073CMAN  14014 WELM1 46/// /3203 11049 40175 90036 222// 000255 11000 22000;
0096997707999992010011402004+43317-070550FM-18+0006WELM1V0200101N001019999999N9999999N1-00511+99999101791REMSYN087CMAN  14024 WELM1 46/// /0102 11051 40179 90136 222// 00024 1//00 7000 92350 333 60000;
0197997707999992010011403004+43317-070550FM-18+0006WELM1V0200301N001019999999N9999999N1-00571+99999101821REMSYN188CMAN  14034 WELM1 46/// /0302 11057 40182 90242 222// 000391212 555 11011 22012 30245 422014 60259 211012 210013 182009 184007 1724 163024 16009 0316135 317130 317127 314130 315131 310130;
0088997707999992010011404004+43317-070550FM-18+0006WELM1V0202701N000519999999N9999999N1-00671+99999101891REMSYN079CMAN  14044 WELM1 46/// /2701 11067 40189 90336 222// 0002555  555 11016 22017;
0000997707999992010011405004+43317-070550FM-18+0006WELM1V0203101N001019999999N9999999N1-00851+99999101921
0088997707999992010011406004+43317-070550FM-18+0006WELM1V0203401N001519999999N9999999N1-00941+99999999999REMSYN079CMAN  14064 WELM1 46/// /3403 11094 90536 222// 0002/ 0000555  555 11006 22007;
0078997707999992010011407004+43317-070550FM-18+0006WELM1V0203201N001019999999N9999999N1-01041+99999999999REMSYN069CMAN  14074 WELM1 46/// /3202 11104 90636 222// 0002/ 0000 333 91208;
0082997707999992010011408004+43317-070550FM-18+0006WELM1V0203501N001519999999N9999999N1-01091+99999999999REMSYN073CMAN  14084 WELM1 46/// /3503 11109 90736 222// 0002/ 000055 11000 22000;
0000997707999992010011409004+43317-070550FM-18+0006WELM1V0203001N000519999999N9999999N1-01101+99999999999
0099997707999992010011410004+43317-070550FM-18+0006WELM1V0203401N001519999999N9999999N1-01111+99999999999REMSYN090CMAN  14104 WELM1 46/// /3403 11111 90936 222// 0001/ 00004 11509 21004 329// 41508 70045;
0088997707999992010011411004+43317-070550FM-18+0006WELM1V0203501N001019999999N9999999N1-01221+99999999999REMSYN079CMAN  14114 WELM1 46/// /3502 11122 91036 222// 000091201 555  555 11016 22017;
0084997707999992010011412004+43317-070550FM-18+0006WELM1V0203401N001519999999N9999999N1-01221+99999999999REMSYN075CMAN  14124 WELM1 46/// /3403 11122 91224 222// 0002/ 002691220 555  91214;
0000997707999992010011413004+43317-070550FM-18+0006WELM1V0203501N001519999999N9999999N1-01191+99999999999
0078997707999992010011414004+43317-070550FM-18+0006WELM1V0203501N001019999999N9999999N1-00821+99999999999REMSYN069CMAN  14144 WELM1 46/// /3502 11082 91336 222// 0002/ 0000 333 91202;
0078997707999992010011415004+43317-070550FM-18+0006WELM1V0200201N002619999999N9999999N1-00561+99999999999REMSYN069CMAN  14154 WELM1 46/// /0205 11056 91436 222// 0002/ 0000 333 91206;
0088997707999992010011416004+43317-070550FM-18+0006WELM1V0200101N001519999999N9999999N1-00401+99999102441REMSYN079CMAN  14164 WELM1 46/// /0103 11040 40244 91536 222// 0002555  555 11017 22018;
0078997707999992010011417004+43317-070550FM-18+0006WELM1V0201201N001519999999N9999999N1-00271+99999102371REMSYN069CMAN  14174 WELM1 46/// /1203 11027 40237 91636 222// 0002 333 91204;
0078997707999992010011418004+43317-070550FM-18+0006WELM1V0201301N001519999999N9999999N1-00121+99999102341REMSYN069CMAN  14184 WELM1 46/// /1303 11012 40234 91736 222// 0002 333 91210;
0096997707999992010011419004+43317-070550FM-18+0006WELM1V0201601N002119999999N9999999N1-00011+99999102301REMSYN087CMAN  14194 WELM1 46/// /1604 11001 40230 91836 222// 0002 71022 875// 333 85709 87628;
0090997707999992010011420004+43317-070550FM-18+0006WELM1V0201801N004619999999N9999999N1+00001+99999102271REMSYN081CMAN  14204 WELM1 46/// /1809 10000 40227 91936 222// 0002 1//00 70002 333 91205;
0088997707999992010011421004+43317-070550FM-18+0006WELM1V0201901N005119999999N9999999N1-00011+99999102241REMSYN079CMAN  14214 WELM1 46/// /1910 11001 40224 92036 222// 0002555  555 11010 22010;
0088997707999992010011422004+43317-070550FM-18+0006WELM1V0202201N002119999999N9999999N1-00121+99999102201REMSYN079CMAN  14224 WELM1 46/// /2204 11012 40220 92136 222// 0002555  555 11010 22010;
0078997707999992010011423004+43317-070550FM-18+0006WELM1V0202401N001019999999N9999999N1-00191+99999102141REMSYN069CMAN  14234 WELM1 46/// /2402 11019 40214 92236 222// 0001 333 91205;
0000997707999992010011500004+43317-070550FM-18+0006WELM1V0202101N002619999999N9999999N1-00161+99999102121
0078997707999992010011501004+43317-070550FM-18+0006WELM1V0202201N003619999999N9999999N1-00091+99999102091REMSYN069CMAN  15014 WELM1 46/// /2207 11009 40209 90036 222// 0001 333 91208;
0088997707999992010011502004+43317-070550FM-18+0006WELM1V0202201N003619999999N9999999N1-00101+99999102021REMSYN079CMAN  15024 WELM1 46/// /2207 11010 40202 90136 222// 0002555  555 11007 22008;
0088997707999992010011503004+43317-070550FM-18+0006WELM1V0202301N003119999999N9999999N1-00081+99999101961REMSYN079CMAN  15034 WELM1 46/// /2306 11008 40196 90236 222// 0002555  555 11009 22010;
0088997707999992010011504004+43317-070550FM-18+0006WELM1V0202201N005119999999N9999999N1-00051+99999101871REMSYN079CMAN  15044 WELM1 46/// /2210 11005 40187 90336 222// 0002555  555 11003 22003;
0088997707999992010011505004+43317-070550FM-18+0006WELM1V0202301N003619999999N9999999N1-00081+99999101811REMSYN079CMAN  15054 WELM1 46/// /2307 11008 40181 90436 222// 0002555  555 11003 22003;
0090997707999992010011506004+43317-070550FM-18+0006WELM1V0202301N004119999999N9999999N1-00061+99999101721REMSYN081CMAN  15064 WELM1 46/// /2308 11006 40172 90536 222// 0002 1//00 70001 333 91201;
0088997707999992010011507004+43317-070550FM-18+0006WELM1V0202401N001519999999N9999999N1-00081+99999101681REMSYN079CMAN  15074 WELM1 46/// /2403 11008 40168 90636 222// 0002555  555 11003 22004;
0214997707999992010011508004+43317-070550FM-18+0006WELM1V0209999C000019999999N9999999N1-00151+99999101661REMSYN205CMAN  15084 WELM1 46/// /0000 11015 40166 90742 222// 00020 333 91217 555 11014 22015 30715 408023 60759 086013 086013 085014 084015 083018 1050 019023 0220 60749 334103 338091 342104 345103 344110 345108;
0088997707999992010011509004+43317-070550FM-18+0006WELM1V0202301N000519999999N9999999N1-00171+99999101571REMSYN079CMAN  15094 WELM1 46/// /2301 11017 40157 90836 222// 00023 1//00 700004 22004;
0000997707999992010011510004+43317-070550FM-18+0006WELM1V0202601N001519999999N9999999N1-00071+99999101441
0149997707999992010011511004+43317-070550FM-18+0006WELM1V0202701N003619999999N9999999N1-00061+99999101411REMSYN140CMAN  15114 WELM1 46/// /2707 11006 40141 91048 222// 0001555 3 91212 555 11011 22012 31010 424014 61059 249012 265012 257012 247012 244004;
0149997707999992010011512004+43317-070550FM-18+0006WELM1V0202901N004119999999N9999999N1-00051+99999101431REMSYN140CMAN  15124 WELM1 46/// /2908 11005 40143 91142 222// 000191239 555 11034 22036 31134 415051 61159 149037 152038 147040 146038 15013 264034;
0078997707999992010011513004+43317-070550FM-18+0006WELM1V0202801N003619999999N9999999N1+00011+99999101411REMSYN069CMAN  15134 WELM1 46/// /2807 10001 40141 91236 222// 0002555  81924;
0088997707999992010011514004+43317-070550FM-18+0006WELM1V0202901N004619999999N9999999N1+00031+99999101431REMSYN079CMAN  15144 WELM1 46/// /2909 10003 40143 91336 222// 0003555  555 11001 22001;
0099997707999992010011515004+43317-070550FM-18+0006WELM1V0202801N003619999999N9999999N1+00111+99999101431REMSYN090CMAN  15154 WELM1 46/// /2807 10011 40143 91436 222// 00032 11205 21003 328// 41204 70025;
0090997707999992010011516004+43317-070550FM-18+0006WELM1V0202801N005119999999N9999999N1+00481+99999101401REMSYN081CMAN  15164 WELM1 46/// /2810 10048 40140 91536 222// 0003 71022 886// 333 88705;
0088997707999992010011517004+43317-070550FM-18+0006WELM1V0202801N005119999999N9999999N1+00591+99999101301REMSYN079CMAN  15174 WELM1 46/// /2810 10059 40130 91636 222// 0003555  555 11002 22003;
0000997707999992010011518004+43317-070550FM-18+0006WELM1V0202901N004619999999N9999999N1+00661+99999101231
0088997707999992010011519004+43317-070550FM-18+0006WELM1V0202901N003619999999N9999999N1+00671+99999101251REMSYN079CMAN  15194 WELM1 46/// /2907 10067 40125 91836 222// 0003555  555 11001 22001;
0068997707999992010011520004+43317-070550FM-18+0006WELM1V0202901N005119999999N9999999N1+00661+99999101261REMSYN059CMAN  15204 WELM1 46/// /2910 10066 40126 91936 222// 0003;
0099997707999992010011521004+43317-070550FM-18+0006WELM1V0202801N004119999999N9999999N1+00581+99999101311REMSYN090CMAN  15214 WELM1 46/// /2808 10058 40131 92036 222// 00034 11305 21003 328// 41304 70026;
0000997707999992010011522004+43317-070550FM-18+0006WELM1V0203001N003119999999N9999999N1+00501+99999101401
0000997707999992010011523004+43317-070550FM-18+0006WELM1V0202801N003119999999N9999999N1+00461+99999101491
0082997707999992010011600004+43317-070550FM-18+0006WELM1V0202701N002119999999N9999999N1+00431+99999101521REMSYN073CMAN  16004 WELM1 46/// /2704 10043 40152 92336 222// 0002555 1000 22000;
0000997707999992010011601004+43317-070550FM-18+0006WELM1V0202801N002619999999N9999999N1+00351+99999101531
0088997707999992010011602004+43317-070550FM-18+0006WELM1V0202801N003119999999N9999999N1+00281+99999101581REMSYN079CMAN  16024 WELM1 46/// /2806 10028 40158 90136 222// 0003555  555 11013 22014;
0078997707999992010011603004+43317-070550FM-18+0006WELM1V0202901N002619999999N9999999N1+00251+99999101651REMSYN069CMAN  16034 WELM1 46/// /2905 10025 40165 90236 222// 0003 333 91210;
0099997707999992010011604004+43317-070550FM-18+0006WELM1V0203001N002119999999N9999999N1+00161+99999101681REMSYN090CMAN  16044 WELM1 46/// /3004 10016 40168 90336 222// 00036 11305 20903 327// 41304 70024;
0088997707999992010011605004+43317-070550FM-18+0006WELM1V0203001N002619999999N9999999N1+00141+99999101681REMSYN079CMAN  16054 WELM1 46/// /3005 10014 40168 90436 222// 0003555  555 11012 22012;
0090997707999992010011606004+43317-070550FM-18+0006WELM1V0202801N001019999999N9999999N1+00121+99999101691REMSYN081CMAN  16064 WELM1 46/// /2802 10012 40169 90536 222// 0003 1//00 70002 333 91206;
0088997707999992010011607004+43317-070550FM-18+0006WELM1V0202801N002119999999N9999999N1+00081+99999101691REMSYN079CMAN  16074 WELM1 46/// /2804 10008 40169 90636 222// 0003555  555 11012 22013;
0088997707999992010011608004+43317-070550FM-18+0006WELM1V0203001N001019999999N9999999N1+00051+99999101641REMSYN079CMAN  16084 WELM1 46/// /3002 10005 40164 90736 222// 0003555  555 11014 22015;
0068997707999992010011609004+43317-070550FM-18+0006WELM1V0202401N002119999999N9999999N1-00011+99999101611REMSYN059CMAN  16094 WELM1 46/// /2404 11001 40161 90836 222// 0002;
0082997707999992010011610004+43317-070550FM-18+0006WELM1V0202401N001519999999N9999999N1-00151+99999101651REMSYN073CMAN  16104 WELM1 46/// /2403 11015 40165 90936 222// 00027 1//00 700000;
0082997707999992010011611004+43317-070550FM-18+0006WELM1V0202101N003119999999N9999999N1-00161+99999101571REMSYN073CMAN  16114 WELM1 46/// /2106 11016 40157 91036 222// 000255 11000 22000;
0099997707999992010011612004+43317-070550FM-18+0006WELM1V0202501N001519999999N9999999N1-00051+99999101611REMSYN090CMAN  16124 WELM1 46/// /2503 11005 40161 91136 222// 00025 11206 21003 329// 41205 70029;
0088997707999992010011613004+43317-070550FM-18+0006WELM1V0202501N001019999999N9999999N1-00021+99999101571REMSYN079CMAN  16134 WELM1 46/// /2502 11002 40157 91236 222// 0002555  555 11015 22016;
0000997707999992010011614004+43317-070550FM-18+0006WELM1V0202901N003619999999N9999999N1+00171+99999101551
0088997707999992010011615004+43317-070550FM-18+0006WELM1V0203001N005119999999N9999999N1+00321+99999101511REMSYN079CMAN  16154 WELM1 46/// /3010 10032 40151 91436 222// 0003555  555 11021 22022;
0000997707999992010011616004+43317-070550FM-18+0006WELM1V0202701N003119999999N9999999N1+00561+99999101491
0088997707999992010011617004+43317-070550FM-18+0006WELM1V0202901N005119999999N9999999N1+00651+99999101411REMSYN079CMAN  16174 WELM1 46/// /2910 10065 40141 91636 222// 0003555  555 11021 22022;
0088997707999992010011618004+43317-070550FM-18+0006WELM1V0202901N005119999999N9999999N1+00721+99999101311REMSYN079CMAN  16184 WELM1 46/// /2910 10072 40131 91736 222// 00035 1//00 700020 22022;
0088997707999992010011619004+43317-070550FM-18+0006WELM1V0202901N002619999999N9999999N1+00831+99999101281REMSYN079CMAN  16194 WELM1 46/// /2905 10083 40128 91836 222// 00038 1//00 700018 22020;
0078997707999992010011620004+43317-070550FM-18+0006WELM1V0203101N002619999999N9999999N1+00871+99999101321REMSYN069CMAN  16204 WELM1 46/// /3105 10087 40132 91936 222// 000391201 555 ;
0088997707999992010011621004+43317-070550FM-18+0006WELM1V0203301N002619999999N9999999N1+00791+99999101371REMSYN079CMAN  16214 WELM1 46/// /3305 10079 40137 92036 222// 0003555  555 11025 22027;
0088997707999992010011622004+43317-070550FM-18+0006WELM1V0203301N003619999999N9999999N1+00651+99999101461REMSYN079CMAN  16224 WELM1 46/// /3307 10065 40146 92136 222// 0003555  555 11020 22021;
0088997707999992010011623004+43317-070550FM-18+0006WELM1V0203501N002119999999N9999999N1+00551+99999101551REMSYN079CMAN  16234 WELM1 46/// /3504 10055 40155 92236 222// 0003555  555 11019 22020;
0088997707999992010011700004+43317-070550FM-18+0006WELM1V0202901N002119999999N9999999N1+00401+99999101631REMSYN079CMAN  17004 WELM1 46/// /2904 10040 40163 92336 222// 0003555  555 11018 22020;
0088997707999992010011701004+43317-070550FM-18+0006WELM1V0202901N003119999999N9999999N1+00351+99999101691REMSYN079CMAN  17014 WELM1 46/// /2906 10035 40169 90036 222// 0003555  555 11005 22006;
0088997707999992010011702004+43317-070550FM-18+0006WELM1V0200101N002119999999N9999999N1+00141+99999101721REMSYN079CMAN  17024 WELM1 46/// /0104 10014 40172 90136 222// 0003555  555 11021 22022;
0088997707999992010011703004+43317-070550FM-18+0006WELM1V0203501N001519999999N9999999N1-00101+99999101801REMSYN079CMAN  17034 WELM1 46/// /3503 11010 40180 90236 222// 0003555  555 11011 22012;
0088997707999992010011704004+43317-070550FM-18+0006WELM1V0202901N002119999999N9999999N1-00021+99999101771REMSYN079CMAN  17044 WELM1 46/// /2904 11002 40177 90336 222// 0003555  555 11015 22016;
0088997707999992010011705004+43317-070550FM-18+0006WELM1V0203201N001019999999N9999999N1-00101+99999101861REMSYN079CMAN  17054 WELM1 46/// /3202 11010 40186 90436 222// 0003555  555 11018 22019;
0082997707999992010011706004+43317-070550FM-18+0006WELM1V0203301N001019999999N9999999N1-00091+99999101861REMSYN073CMAN  17064 WELM1 46/// /3302 11009 40186 90536 222// 000355 11018 22019;
0149997707999992010011707004+43317-070550FM-18+0006WELM1V0203601N000519999999N9999999N1-00141+99999101881REMSYN140CMAN  17074 WELM1 46/// /3601 11014 40188 90636 222// 00030 333 91223 555 11019 22020 30651 401023 60659 017020 014020 021018 027017 032011;
0078997707999992010011708004+43317-070550FM-18+0006WELM1V0203301N001019999999N9999999N1-00141+99999101931REMSYN069CMAN  17084 WELM1 46/// /3302 11014 40193 90736 222// 0003 333 91203;
0088997707999992010011709004+43317-070550FM-18+0006WELM1V0203501N001519999999N9999999N1-00061+99999101931REMSYN079CMAN  17094 WELM1 46/// /3503 11006 40193 90836 222// 0003555  555 11010 22010;
0185997707999992010011710004+43317-070550FM-18+0006WELM1V0209999C000019999999N9999999N1-00051+99999101921REMSYN176CMAN  17104 WELM1 46/// /0000 11005 40192 90936 222// 000391222 555 11013 22014 30958 416022 60959 120012 115010 102009 139011 12000 0019 212018 21 302013 318011 334010 354011;
0082997707999992010011711004+43317-070550FM-18+0006WELM1V0203501N001019999999N9999999N1-00281+99999101961REMSYN073CMAN  17114 WELM1 46/// /3502 11028 40196 91036 222// 000255 11008 22009;
0088997707999992010011712004+43317-070550FM-18+0006WELM1V0203501N001019999999N9999999N1-00331+99999102011REMSYN079CMAN  17124 WELM1 46/// /3502 11033 40201 91136 222// 0002555  555 11014 22015;
0088997707999992010011713004+43317-070550FM-18+0006WELM1V0203001N000519999999N9999999N1-00331+99999102071REMSYN079CMAN  17134 WELM1 46/// /3001 11033 40207 91236 222// 0002555  555 11012 22012;
0088997707999992010011714004+43317-070550FM-18+0006WELM1V0203201N001019999999N9999999N1-00191+99999102181REMSYN079CMAN  17144 WELM1 46/// /3202 11019 40218 91336 222// 0002555  555 11007 22008;
0000997707999992010011715004+43317-070550FM-18+0006WELM1V0200301N002619999999N9999999N1+00051+99999102161
0078997707999992010011716004+43317-070550FM-18+0006WELM1V0200901N006719999999N9999999N1+00281+99999102131REMSYN069CMAN  17164 WELM1 46/// /0913 10028 40213 91536 222// 0003 333 91206;
0000997707999992010011717004+43317-070550FM-18+0006WELM1V0201101N006219999999N9999999N1+00261+99999102021
0088997707999992010011718004+43317-070550FM-18+0006WELM1V0201101N006719999999N9999999N1+00211+99999101941REMSYN079CMAN  17184 WELM1 46/// /1113 10021 40194 91736 222// 0003555  555 11009 22010;
0000997707999992010011719004+43317-070550FM-18+0006WELM1V0201201N005719999999N9999999N1+00171+99999101951
0150997707999992010011720004+43317-070550FM-18+0006WELM1V0201101N006719999999N9999999N1+00151+99999101881REMSYN141CMAN  17204 WELM1 46/// /1113 10015 40188 91936 222// 0002 40110 5/010 7//// 8//5/ 22273 0//// 23006 33232 46008 56006 6//// 8//// ICE /////;
0088997707999992010011721004+43317-070550FM-18+0006WELM1V0201101N005719999999N9999999N1+00211+99999101871REMSYN079CMAN  17214 WELM1 46/// /1111 10021 40187 92036 222// 0003555  555 11008 22008;
0088997707999992010011722004+43317-070550FM-18+0006WELM1V0201301N006219999999N9999999N1+00241+99999101851REMSYN079CMAN  17224 WELM1 46/// /1312 10024 40185 92136 222// 00028 11002 700110 22011;
0072997707999992010011723004+43317-070550FM-18+0006WELM1V0201301N005119999999N9999999N1+00271+99999101801REMSYN063CMAN  17234 WELM1 46/// /1310 10027 40180 92236 222// 00020040;
0078997707999992010011800004+43317-070550FM-18+0006WELM1V0201301N005719999999N9999999N1+00301+99999101691REMSYN069CMAN 18004 WELM1 46/// /1311 10030 40169 92336 222// 00024 333 91215;
0098997707999992010011801004+43317-070550FM-18+0006WELM1V0201301N006219999999N9999999N1+00321+99999101621REMSYN089CMAN  18014 WELM1 46/// /1312 10032 40162 90036 222// 0002 54000 70210 22251 00280 2////;
0082997707999992010011802004+43317-070550FM-18+0006WELM1V0201201N006719999999N9999999N1+00341+99999101521REMSYN073CMAN  18024 WELM1 46/// /1213 10034 40152 90136 222// 0002555 1014 22015;
0088997707999992010011803004+43317-070550FM-18+0006WELM1V0201101N007219999999N9999999N1+00291+99999101441REMSYN079CMAN  18034 WELM1 46/// /1114 10029 40144 90236 222// 0003555  555 11013 22014;
0078997707999992010011804004+43317-070550FM-18+0006WELM1V0201001N006719999999N9999999N1+00251+99999101411REMSYN069CMAN  18044 WELM1 46/// /1013 10025 40141 90336 222// 0003 333 91211;
0149997707999992010011805004+43317-070550FM-18+0006WELM1V0203601N004619999999N9999999N1-00151+99999101231REMSYN140CMAN  18054 WELM1 46/// /3609 11015 40123 90448 222// 0003555 3 91210 555 11008 22008 30444 427015 60459 275011 271013 266011 280011 273011;
0078997707999992010011806004+43317-070550FM-18+0006WELM1V0200201N004119999999N9999999N1-00151+99999101101REMSYN069CMAN  18064 WELM1 46/// /0208 11015 40110 90536 222// 0003 333 91211;
0088997707999992010011807004+43317-070550FM-18+0006WELM1V0200201N005119999999N9999999N1-00171+99999100981REMSYN079CMAN  18074 WELM1 46/// /0210 11017 40098 90636 222// 0003555  555 11015 22016;
0088997707999992010011808004+43317-070550FM-18+0006WELM1V0200201N006219999999N9999999N1-00221+99999100901REMSYN079CMAN  18084 WELM1 46/// /0212 11022 40090 90736 222// 0002555  555 11014 22015;
0088997707999992010011809004+43317-070550FM-18+0006WELM1V0200201N006719999999N9999999N1-00301+99999100811REMSYN079CMAN  18094 WELM1 46/// /0213 11030 40081 90836 222// 0002555  555 11017 22018;
0088997707999992010011810004+43317-070550FM-18+0006WELM1V0200201N006719999999N9999999N1-00351+99999100681REMSYN079CMAN  18104 WELM1 46/// /0213 11035 40068 90936 222// 0002555  555 11019 22020;
0000997707999992010011811004+43317-070550FM-18+0006WELM1V0200201N007719999999N9999999N1-00361+99999100651
0088997707999992010011812004+43317-070550FM-18+0006WELM1V0200201N007719999999N9999999N1-00361+99999100631REMSYN079CMAN  18124 WELM1 46/// /0215 11036 40063 91136 222// 0001555  555 11017 22018;
0088997707999992010011813004+43317-070550FM-18+0006WELM1V0200101N009319999999N9999999N1-00361+99999100651REMSYN079CMAN  18134 WELM1 46/// /0118 11036 40065 91236 222// 00016 10902 700136 22039;
0090997707999992010011814004+43317-070550FM-18+0006WELM1V0200101N008719999999N9999999N1-00361+99999100661REMSYN081CMAN  18144 WELM1 46/// /0117 11036 40066 91336 222// 0000 10902 70011 333 91216;
0197997707999992010011815004+43317-070550FM-18+0006WELM1V0200201N007719999999N9999999N1-00291+99999100731REMSYN188CMAN  18154 WELM1 46/// /0215 11029 40073 91436 222// 00020 22200 00257 11606 20602 300// 41606 70030 333 91208 555 11065 22068 31445 40508 61449 043061 047056 045052 053055 052055 049056;
0082997707999992010011816004+43317-070550FM-18+0006WELM1V0200101N009319999999N9999999N1-00251+99999100751REMSYN073CMAN  18164 WELM1 46/// /0118 11025 40075 91536 222// 00026 10902 700103;
0000997707999992010011817004+43317-070550FM-18+0006WELM1V0200101N009819999999N9999999N1-00191+99999100691
0088997707999992010011818004+43317-070550FM-18+0006WELM1V0200101N008219999999N9999999N1-00181+99999100731REMSYN079CMAN  18184 WELM1 46/// /0116 11018 40073 91736 222// 0003555  555 11008 22009;
0088997707999992010011819004+43317-070550FM-18+0006WELM1V0200101N007219999999N9999999N1-00131+99999100761REMSYN079CMAN  18194 WELM1 46/// /0114 11013 40076 91836 222// 00035 10901 700008 22008;
0078997707999992010011820004+43317-070550FM-18+0006WELM1V0200201N006219999999N9999999N1-00101+99999100821REMSYN069CMAN  18204 WELM1 46/// /0212 11010 40082 91936 222// 0002 333 91203;
0082997707999992010011821004+43317-070550FM-18+0006WELM1V0200301N004619999999N9999999N1-00091+99999100841REMSYN073CMAN  18214 WELM1 46/// /0309 11009 40084 92036 222// 00026 10801 700005;
0149997707999992010011822004+43317-070550FM-18+0006WELM1V0200201N003619999999N9999999N1-00131+99999100931REMSYN140CMAN  18224 WELM1 46/// /0207 11013 40093 92142 222// 000191213 555 11012 22013 32109 404016 62159 039012 052012 054013 049013 05008 048016;
0078997707999992010011823004+43317-070550FM-18+0006WELM1V0203501N003119999999N9999999N1-00151+99999101061REMSYN069CMAN  18234 WELM1 46/// /3506 11015 40106 92236 222// 0002 333 91202;
0112997707999992010011900004+43317-070550FM-18+0006WELM1V0200101N002119999999N9999999N1-00151+99999101131REMSYN103CMAN  19004 WELM1 46/// /0104 11015 40113 92336 222// 0001 878// 333 83818 86633 91105 555 50002 60005;
0088997707999992010011901004+43317-070550FM-18+0006WELM1V0200301N003119999999N9999999N1-00161+99999101171REMSYN079CMAN  19014 WELM1 46/// /0306 11016 40117 90036 222// 0000555  555 11016 22017;
0149997707999992010011902004+43317-070550FM-18+0006WELM1V0200201N003119999999N9999999N1-00171+99999101231REMSYN140CMAN  19024 WELM1 46/// /0206 11017 40123 90136 222// 00001 10701 700070322 8777/ 22233 00060 2//// 326// 41509 5//// 6//// 80045 ICE /////;
0088997707999992010011903004+43317-070550FM-18+0006WELM1V0200301N003119999999N9999999N1-00181+99999101251REMSYN079CMAN  19034 WELM1 46/// /0306 11018 40125 90236 222// 0002555  555 11018 22019;
0088997707999992010011904004+43317-070550FM-18+0006WELM1V0200201N003119999999N9999999N1-00191+99999101311REMSYN079CMAN  19044 WELM1 46/// /0206 11019 40131 90336 222// 0003555  555 11015 22016;
0099997707999992010011905004+43317-070550FM-18+0006WELM1V0203601N002619999999N9999999N1-00211+99999101361REMSYN090CMAN  19054 WELM1 46/// /3605 11021 40136 90436 222// 00033 11812 20906 330// 41810 70060;
0088997707999992010011906004+43317-070550FM-18+0006WELM1V0200201N002619999999N9999999N1-00201+99999101321REMSYN079CMAN  19064 WELM1 46/// /0205 11020 40132 90536 222// 0003555  555 11007 22007;
0078997707999992010011907004+43317-070550FM-18+0006WELM1V0203501N002619999999N9999999N1-00211+99999101381REMSYN069CMAN  19074 WELM1 46/// /3505 11021 40138 90636 222// 0003 333 91204;
0088997707999992010011908004+43317-070550FM-18+0006WELM1V0203501N001519999999N9999999N1-00221+99999101391REMSYN079CMAN  19084 WELM1 46/// /3503 11022 40139 90736 222// 0003555  555 11005 22006;
0078997707999992010011909004+43317-070550FM-18+0006WELM1V0200201N002619999999N9999999N1-00221+99999101381REMSYN069CMAN  19094 WELM1 46/// /0205 11022 40138 90836 222// 0003 333 91203;
0000997707999992010011910004+43317-070550FM-18+0006WELM1V0203601N002619999999N9999999N1-00231+99999101401
0088997707999992010011911004+43317-070550FM-18+0006WELM1V0200201N002119999999N9999999N1-00251+99999101381REMSYN079CMAN  19114 WELM1 46/// /0204 11025 40138 91036 222// 0002555  555 11005 22006;
0068997707999992010011912004+43317-070550FM-18+0006WELM1V0203601N002119999999N9999999N1-00251+99999101381REMSYN059CMAN  19124 WELM1 46/// /3604 11025 40138 91136 222// 0002;
0088997707999992010011913004+43317-070550FM-18+0006WELM1V0200101N002619999999N9999999N1-00251+99999101401REMSYN079CMAN  19134 WELM1 46/// /0105 11025 40140 91236 222// 00012 10501 700015 22016;
0088997707999992010011914004+43317-070550FM-18+0006WELM1V0203601N002619999999N9999999N1-00251+99999101431REMSYN079CMAN  19144 WELM1 46/// /3605 11025 40143 91336 222// 0000555  555 11019 22021;
0090997707999992010011915004+43317-070550FM-18+0006WELM1V0203601N002119999999N9999999N1-00241+99999101421REMSYN081CMAN  19154 WELM1 46/// /3604 11024 40142 91436 222// 0001 10501 70004 333 91204;
0088997707999992010011916004+43317-070550FM-18+0006WELM1V0203401N001519999999N9999999N1-00201+99999101441REMSYN079CMAN  19164 WELM1 46/// /3403 11020 40144 91536 222// 0003555  555 11009 22010;
0088997707999992010011917004+43317-070550FM-18+0006WELM1V0200101N003119999999N9999999N1-00181+99999101371REMSYN079CMAN  19174 WELM1 46/// /0106 11018 40137 91636 222// 0003555  555 11012 22013;
0088997707999992010011918004+43317-070550FM-18+0006WELM1V0200201N002619999999N9999999N1-00141+99999101281REMSYN079CMAN  19184 WELM1 46/// /0205 11014 40128 91736 222// 00033 10701 700023 22024;
0000997707999992010011919004+43317-070550FM-18+0006WELM1V0200401N001519999999N9999999N1-00091+99999101221
0109997707999992010011920004+43317-070550FM-18+0006WELM1V0200301N002619999999N9999999N1-00101+99999101161ADDMD1610171+9999REMSYN083CMAN  19204 WELM1 46/// /0305 11010 40116 56017 92000 222// 000391207 51206 51////;
0079997707999992010011921004+43317-070550FM-18+0006WELM1V0200101N002619999999N9999999N1-00101+99999101171REMSYN070CMAN  19214 WELM1 46/// /0105 11010 40117 92036 222// 000359017 94322;
0082997707999992010011922004+43317-070550FM-18+0006WELM1V0200201N003119999999N9999999N1-00121+99999101141REMSYN073CMAN  19224 WELM1 46/// /0206 11012 40114 92136 222// 000355 11002 22002;
0000997707999992010011923004+43317-070550FM-18+0006WELM1V0203601N003119999999N9999999N1-00131+99999101141
0000997707999992010012000004+43317-070550FM-18+0006WELM1V0203601N003619999999N9999999N1-00151+99999101121
0117997707999992010012001004+43317-070550FM-18+0006WELM1V0203601N004119999999N9999999N1-00151+99999101071REMSYN108CMAN  20014 WELM1 46/// /3608 11015 40107 90036 222// 00020 70222 8576/ 22234 00280 20404 328// 40505 80265;
0088997707999992010012002004+43317-070550FM-18+0006WELM1V0203601N004619999999N9999999N1-00161+99999101021REMSYN079CMAN  20024 WELM1 46/// /3609 11016 40102 90136 222// 0001555  555 11018 22019;
0000997707999992010012003004+43317-070550FM-18+0006WELM1V0203601N005119999999N9999999N1-00171+99999100991
0088997707999992010012004004+43317-070550FM-18+0006WELM1V0203601N005719999999N9999999N1-00171+99999100961REMSYN079CMAN  20044 WELM1 46/// /3611 11017 40096 90336 222// 00030 10401 700017 22018;
0000997707999992010012005004+43317-070550FM-18+0006WELM1V0203601N005719999999N9999999N1-00171+99999100891
0088997707999992010012006004+43317-070550FM-18+0006WELM1V0203401N005119999999N9999999N1-00191+99999100871REMSYN079CMAN  20064 WELM1 46/// /3410 11019 40087 90536 222// 0003555  555 11020 22021;
0088997707999992010012007004+43317-070550FM-18+0006WELM1V0203201N003619999999N9999999N1-00201+99999100901REMSYN079CMAN  20074 WELM1 46/// /3207 11020 40090 90636 222// 00033 10401 700020 22021;
0000997707999992010012008004+43317-070550FM-18+0006WELM1V0203501N004119999999N9999999N1-00181+99999100831
0088997707999992010012009004+43317-070550FM-18+0006WELM1V0203501N002619999999N9999999N1-00231+99999100801REMSYN079CMAN  20094 WELM1 46/// /3505 11023 40080 90836 222// 00036 10501 700004 22004;
0099997707999992010012010004+43317-070550FM-18+0006WELM1V0203101N002619999999N9999999N1-00271+99999100841REMSYN090CMAN  20104 WELM1 46/// /3105 11027 40084 90936 222// 00035 11305 20903 332// 41303 70024;
0082997707999992010012011004+43317-070550FM-18+0006WELM1V0203301N003619999999N9999999N1-00251+99999100801REMSYN073CMAN  20114 WELM1 46/// /3307 11025 40080 91036 222// 000355 11003 22003;
0088997707999992010012012004+43317-070550FM-18+0006WELM1V0203001N002619999999N9999999N1-00291+99999100831REMSYN079CMAN  20124 WELM1 46/// /3005 11029 40083 91136 222// 0003555  555 11007 22007;
0000997707999992010012013004+43317-070550FM-18+0006WELM1V0203301N003619999999N9999999N1-00251+99999100861
0078997707999992010012014004+43317-070550FM-18+0006WELM1V0203401N004619999999N9999999N1-00141+99999100891REMSYN069CMAN  20144 WELM1 46/// /3409 11014 40089 91336 222// 0002 333 91207;
0088997707999992010012015004+43317-070550FM-18+0006WELM1V0203501N004619999999N9999999N1-00021+99999100901REMSYN079CMAN  20154 WELM1 46/// /3509 11002 40090 91436 222// 0001555  555 11009 22009;
0090997707999992010012016004+43317-070550FM-18+0006WELM1V0203601N005719999999N9999999N1+00081+99999100881REMSYN081CMAN  20164 WELM1 46/// /3611 10008 40088 91536 222// 0002 10501 70005 333 91210;
0127997707999992010012017004+43317-070550FM-18+0006WELM1V0203601N005119999999N9999999N1+00101+99999100831REMSYN118CMAN  20174 WELM1 46/// /3610 10010 40083 91636 222// 000354000 70311 84075 22243 04300 20201 309// 40401 5/////3D/20;
0090997707999992010012018004+43317-070550FM-18+0006WELM1V0203501N004119999999N9999999N1+00111+99999100801REMSYN081CMAN  20184 WELM1 46/// /3508 10011 40080 91736 222// 0003 10501 70004 333 91207;
0096997707999992010012019004+43317-070550FM-18+0006WELM1V0203301N003619999999N9999999N1+00131+99999100831REMSYN087CMAN  20194 WELM1 46/// /3307 10013 40083 91836 222// 00033 10501 7000 91716 333 69960;
0088997707999992010012020004+43317-070550FM-18+0006WELM1V0203401N003619999999N9999999N1+00091+99999100891REMSYN079CMAN  20204 WELM1 46/// /3407 10009 40089 91936 222// 0003555  555 11008 22008;
0088997707999992010012021004+43317-070550FM-18+0006WELM1V0203501N005119999999N9999999N1+00051+99999100961REMSYN079CMAN  20214 WELM1 46/// /3510 10005 40096 92036 222// 00037 10401 700011 22014;
0088997707999992010012022004+43317-070550FM-18+0006WELM1V0203501N005119999999N9999999N1+00031+99999101041REMSYN079CMAN  20224 WELM1 46/// /3510 10003 40104 92136 222// 00038 10501 700011 22014;
0113997707999992010012113004+43317-070550FM-18+0006WELM1V0203001N002119999999N9999999N1-00291+99999101891REMSYN104CMAN  21134 WELM1 46/// /3004 11029 40189 91318 222// 0002555 2// 00222 333 91217 555 50134 71203 88710;
0090997707999992010012114004+43317-070550FM-18+0006WELM1V0202901N002619999999N9999999N1-00261+99999101931REMSYN081CMAN  21144 WELM1 46/// /2905 11026 40193 91336 222// 0002 10401 70003 333 91215;
0099997707999992010012115004+43317-070550FM-18+0006WELM1V0202801N001519999999N9999999N1-00131+99999101951REMSYN090CMAN  21154 WELM1 46/// /2803 11013 40195 91436 222// 00024 11412 21007 329// 41409 70058;
0000997707999992010012116004+43317-070550FM-18+0006WELM1V0203201N002619999999N9999999N1+00061+99999101941
0000997707999992010012117004+43317-070550FM-18+0006WELM1V0203001N003119999999N9999999N1+00121+99999101941
0000997707999992010012118004+43317-070550FM-18+0006WELM1V0203301N004119999999N9999999N1+00161+99999101881
0082997707999992010012119004+43317-070550FM-18+0006WELM1V0202801N003619999999N9999999N1+00161+99999101841REMSYN073CMAN  21194 WELM1 46/// /2807 10016 40184 91836 222// 00033 11301 700008;
0088997707999992010012120004+43317-070550FM-18+0006WELM1V0202901N003619999999N9999999N1+00171+99999101881REMSYN079CMAN  21204 WELM1 46/// /2907 10017 40188 91936 222// 00033 11201 700014 22016;
0000997707999992010012121004+43317-070550FM-18+0006WELM1V0203001N003119999999N9999999N1+00161+99999101921
0078997707999992010012122004+43317-070550FM-18+0006WELM1V0203101N002619999999N9999999N1+00031+99999101941REMSYN069CMAN  21224 WELM1 46/// /3105 10003 40194 92136 222// 0003 333 91206;
0072997707999992010012123004+43317-070550FM-18+0006WELM1V0203201N003619999999N9999999N1-00061+99999101931REMSYN063CMAN  21234 WELM1 46/// /3207 11006 40193 92236 222// 00031208;
0090997707999992010012200004+43317-070550FM-18+0006WELM1V0203101N002119999999N9999999N1-00171+99999101911REMSYN081CMAN  22004 WELM1 46/// /3104 11017 40191 92336 222// 0003 83572 333 56000 83620;
0078997707999992010012201004+43317-070550FM-18+0006WELM1V0202901N003119999999N9999999N1-00231+99999101901REMSYN069CMAN  22014 WELM1 46/// /2906 11023 40190 90036 222// 0003 333 59037;
0000997707999992010012202004+43317-070550FM-18+0006WELM1V0203401N001019999999N9999999N1-00321+99999101851
0096997707999992010012203004+43317-070550FM-18+0006WELM1V0203001N001519999999N9999999N1-00411+99999101821REMSYN087CMAN  22034 WELM1 46/// /3003 11041 40182 90236 222// 00034 10501 7000 90230 333 20252;
0088997707999992010012204004+43317-070550FM-18+0006WELM1V0202901N002619999999N9999999N1-00461+99999101761REMSYN079CMAN  22044 WELM1 46/// /2905 11046 40176 90336 222// 0002555  555 11024 22026;
0088997707999992010012205004+43317-070550FM-18+0006WELM1V0202901N001019999999N9999999N1-00451+99999101741REMSYN079CMAN  22054 WELM1 46/// /2902 11045 40174 90436 222// 0003555  555 11013 22014;
0088997707999992010012206004+43317-070550FM-18+0006WELM1V0202801N001519999999N9999999N1-00531+99999101711REMSYN079CMAN  22064 WELM1 46/// /2803 11053 40171 90536 222// 00034 10601 700008 22008;
0108997707999992010012207004+43317-070550FM-18+0006WELM1V0203401N000519999999N9999999N1-00621+99999101691REMSYN099CMAN  22074 WELM1 46/// /3401 11062 40169 90636 222// 0003 888// 90150 333 55300 20000 83702 88627;
0088997707999992010012208004+43317-070550FM-18+0006WELM1V0203201N000519999999N9999999N1-00661+99999101651REMSYN079CMAN  22084 WELM1 46/// /3201 11066 40165 90736 222// 0003555  555 11014 22014;
0078997707999992010012209004+43317-070550FM-18+0006WELM1V0203301N001019999999N9999999N1-00761+99999101561REMSYN069CMAN  22094 WELM1 46/// /3302 11076 40156 90836 222// 0003 333 91211;
0078997707999992010012210004+43317-070550FM-18+0006WELM1V0203401N000519999999N9999999N1-00701+99999101531REMSYN069CMAN  22104 WELM1 46/// /3401 11070 40153 90936 222// 0003 333 91211;
0000997707999992010012211004+43317-070550FM-18+0006WELM1V0203401N001519999999N9999999N1-00761+99999101391
0088997707999992010012212004+43317-070550FM-18+0006WELM1V0209999C000019999999N9999999N1-00721+99999999999REMSYN079CMAN  22124 WELM1 46/// /0000 11072 91136 222// 0003/ 00027 10801 700009 22010;
0197997707999992010012213004+43317-070550FM-18+0006WELM1V0203301N001519999999N9999999N1-00901+99999999999REMSYN188CMAN  22134 WELM1 46/// /3303 11090 91242 222// 00039 91300 222// 0015555 11007 22008 31201 409008 61259 083007 078007 080007 083007 085014 2120 211004 2080063 256076 258061 262074 263092;
0000997707999992010012214004+43317-070550FM-18+0006WELM1V0203001N002119999999N9999999N1-00561+99999999999
0078997707999992010012215004+43317-070550FM-18+0006WELM1V0200201N001519999999N9999999N1-00291+99999101601REMSYN069CMAN  22154 WELM1 46/// /0203 11029 40160 91436 222// 0002 333 91214;
0133997707999992010012216004+43317-070550FM-18+0006WELM1V0200301N002619999999N9999999N1-00121+99999101601REMSYN124CMAN  22164 WELM1 46/// /0305 11012 40160 91536 222// 000140119 57006 70311 8317/ 22222 00208 20504 322// 41004 5//// 80174;
0073997707999992010012217004+43317-070550FM-18+0006WELM1V0200501N003619999999N9999999N1+00031+99999101511REMSYN064CMAN  22174 WELM1 46/// /0507 10003 40151 91636 222// 000189/00;
0078997707999992010012218004+43317-070550FM-18+0006WELM1V0200501N003119999999N9999999N1+00111+99999101471REMSYN069CMAN  22184 WELM1 46/// /0506 10011 40147 91736 222// 0003 333 91211;
0078997707999992010012219004+43317-070550FM-18+0006WELM1V0200601N004119999999N9999999N1+00151+99999101451REMSYN069CMAN 22194 WELM1 46/// /0608 10015 40145 91842 222// 00034 333 91210;
0000997707999992010012220004+43317-070550FM-18+0006WELM1V0200801N004119999999N9999999N1+00121+99999101511
0101997707999992010012221004+43317-070550FM-18+0006WELM1V0200701N002619999999N9999999N1+00121+99999101531REMSYN092CMAN  22214 WELM1 46/// /0705 10012 40153 92036 222// 0003561// 81818 555 20000 33121 412//;
0000997707999992010012222004+43317-070550FM-18+0006WELM1V0200301N003119999999N9999999N1+00051+99999101561
0099997707999992010012223004+43317-070550FM-18+0006WELM1V0200101N003119999999N9999999N1-00091+99999101631REMSYN090CMAN  22234 WELM1 46/// /0106 11009 40163 92236 222// 00035 11408 21005 328// 41406 70038;
0088997707999992010012300004+43317-070550FM-18+0006WELM1V0200101N002119999999N9999999N1-00171+99999101691REMSYN079CMAN  23004 WELM1 46/// /0104 11017 40169 92336 222// 0003555  555 11026 22027;
0082997707999992010012301004+43317-070550FM-18+0006WELM1V0203601N002119999999N9999999N1-00301+99999101751REMSYN073CMAN  23014 WELM1 46/// /3604 11030 40175 90036 222// 000355 11002 22003;
0000997707999992010012302004+43317-070550FM-18+0006WELM1V0200101N002119999999N9999999N1-00311+99999101801
0088997707999992010012303004+43317-070550FM-18+0006WELM1V0200201N002619999999N9999999N1-00411+99999101881REMSYN079CMAN  23034 WELM1 46/// /0205 11041 40188 90236 222// 0002555  555 11026 22028;
0099997707999992010012304004+43317-070550FM-18+0006WELM1V0200101N003119999999N9999999N1-00381+99999101921REMSYN090CMAN  23044 WELM1 46/// /0106 11038 40192 90336 222// 00024 11310 21005 327// 41309 70050;
0090997707999992010012305004+43317-070550FM-18+0006WELM1V0200101N003119999999N9999999N1-00451+99999101951REMSYN081CMAN  23054 WELM1 46/// /0106 11045 40195 90436 222// 0002 10701 70003 333 91212;
0090997707999992010012306004+43317-070550FM-18+0006WELM1V0200201N003619999999N9999999N1-00521+99999102001REMSYN081CMAN  23064 WELM1 46/// /0207 11052 40200 90536 222// 0003 10801 70003 333 91210;
0095997707999992010012307004+43317-070550FM-18+0006WELM1V0200101N004119999999N9999999N1-00561+99999102051REMSYN086CMAN  23074 WELM1 46/// /0108 11056 40205 90636 222// 00032 10801 70007//// 555 10040;
0190997707999992010012308004+43317-070550FM-18+0006WELM1V0200101N002619999999N9999999N1-00651+99999102081REMSYN181CMAN  23084 WELM1 46/// /0105 11065 40208 90736 222// 00030 222// 00153 333 91205 555 11004 22005 30717 436006 60759 011004 012004 020005 019005 00500 69999 70600 92039 92436 96071;
0184997707999992010012309004+43317-070550FM-18+0006WELM1V0200101N003119999999N9999999N1-00641+99999102081ADDMD1110071+9999REMSYN158CMAN  23094 WELM1 46/// /0106 11064 40208 51007 90900 222// 0003/ 0015555 11010 22010 30812 413016 60859 135010 136010 136010 134010 132005 2210 160017 16203;
0074997707999992010012310004+43317-070550FM-18+0006WELM1V0203501N002119999999N9999999N1-00701+99999102131REMSYN065CMAN  23104 WELM1 46/// /3504 11070 40213 90954 222// 0003/ 0002;
0088997707999992010012311004+43317-070550FM-18+0006WELM1V0203301N002619999999N9999999N1-00801+99999102181REMSYN079CMAN  23114 WELM1 46/// /3305 11080 40218 91036 222// 0003555  555 11025 22026;
0203997707999992010012312004+43317-070550FM-18+0006WELM1V0203501N002119999999N9999999N1-00941+99999999999REMSYN194CMAN  23124 WELM1 46/// /3504 11094 91136 222// 0003/ 00023 10801 70000 00237 11304 20503 336// 41303 70021 333 91211 555 11099 22105 31146 42211 61149 219091 221089 211089 201087 196085 201084;
0103997707999992010012313004+43317-070550FM-18+0006WELM1V0203301N001519999999N9999999N1-00951+99999999999REMSYN094CMAN  23134 WELM1 46/// /3303 11095 91236 222// 0003/ 00022 10801 70008///2 22212 04187 2////;
0000997707999992010012314004+43317-070550FM-18+0006WELM1V0203201N001019999999N9999999N1-00731+99999999999
0000997707999992010012315004+43317-070550FM-18+0006WELM1V0200301N001519999999N9999999N1-00481+99999102441
0091997707999992010012316004+43317-070550FM-18+0006WELM1V0200901N001019999999N9999999N1-00301+99999102421REMSYN082CMAN  23164 WELM1 46/// /0902 11030 40242 91536 222// 000140318 52001 22220 00008;
0082997707999992010012317004+43317-070550FM-18+0006WELM1V0209999C000019999999N9999999N1-00111+99999102331REMSYN073CMAN  23174 WELM1 46/// /0000 11011 40233 91636 222// 000055 11010 22011;
0000997707999992010012318004+43317-070550FM-18+0006WELM1V0201901N002619999999N9999999N1-00101+99999102231
0000997707999992010012319004+43317-070550FM-18+0006WELM1V0201901N003619999999N9999999N1-00081+99999102221
0082997707999992010012320004+43317-070550FM-18+0006WELM1V0201701N003619999999N9999999N1+00031+99999102191REMSYN073CMAN  23204 WELM1 46/// /1707 10003 40219 91936 222// 000355 11006 22006;
0090997707999992010012321004+43317-070550FM-18+0006WELM1V0202001N003619999999N9999999N1+00071+99999102181REMSYN081CMAN  23214 WELM1 46/// /2007 10007 40218 92036 222// 0003 11301 70003 333 91214;
0088997707999992010012322004+43317-070550FM-18+0006WELM1V0202101N001519999999N9999999N1-00031+99999102241REMSYN079CMAN  23224 WELM1 46/// /2103 11003 40224 92136 222// 0003555  555 11015 22016;
0088997707999992010012323004+43317-070550FM-18+0006WELM1V0202401N001019999999N9999999N1-00181+99999102311REMSYN079CMAN  23234 WELM1 46/// /2402 11018 40231 92236 222// 00038 11501 700013 22015;
0088997707999992010012400004+43317-070550FM-18+0006WELM1V0203501N000519999999N9999999N1-00421+99999102401REMSYN079CMAN  24004 WELM1 46/// /3501 11042 40240 92336 222// 0003555  555 11020 22021;
0088997707999992010012401004+43317-070550FM-18+0006WELM1V0203201N001019999999N9999999N1-00481+99999102411REMSYN079CMAN  24014 WELM1 46/// /3202 11048 40241 90036 222// 0003555  555 11019 22021;
0000997707999992010012402004+43317-070550FM-18+0006WELM1V0200101N001519999999N9999999N1-00631+99999102401
0090997707999992010012403004+43317-070550FM-18+0006WELM1V0200101N001519999999N9999999N1-00761+99999102361REMSYN081CMAN  24034 WELM1 46/// /0103 11076 40236 90236 222// 0002 11301 70003 333 91207;
0000997707999992010012404004+43317-070550FM-18+0006WELM1V0209999C000019999999N9999999N1-00831+99999102321
0090997707999992010012405004+43317-070550FM-18+0006WELM1V0202901N000519999999N9999999N1-00881+99999102281REMSYN081CMAN  24054 WELM1 46/// /2901 11088 40228 90436 222// 0002 11301 70004 333 91213;
0079997707999992010012406004+43317-070550FM-18+0006WELM1V0203501N000519999999N9999999N1-00701+99999999999REMSYN070CMAN  24064 WELM1 46/// /3501 11070 90536 222// 0002/ 000290710 91110;
0099997707999992010012407004+43317-070550FM-18+0006WELM1V0203301N001019999999N9999999N1-00631+99999999999REMSYN090CMAN  24074 WELM1 46/// /3302 11063 90636 222// 0003/ 00024 11308 21005 329// 41306 70040;
0088997707999992010012408004+43317-070550FM-18+0006WELM1V0200101N000519999999N9999999N1-00711+99999102261REMSYN079CMAN  24084 WELM1 46/// /0101 11071 40226 90736 222// 0003555  555 11013 22014;
0090997707999992010012409004+43317-070550FM-18+0006WELM1V0200101N001519999999N9999999N1-00731+99999102271REMSYN081CMAN  24094 WELM1 46/// /0103 11073 40227 90836 222// 0003 11301 70003 333 91214;
0082997707999992010012410004+43317-070550FM-18+0006WELM1V0200101N002119999999N9999999N1-00711+99999102261REMSYN073CMAN  24104 WELM1 46/// /0104 11071 40226 90936 222// 000355 11010 22011;
0082997707999992010012411004+43317-070550FM-18+0006WELM1V0203201N001019999999N9999999N1-00661+99999102251REMSYN073CMAN  24114 WELM1 46/// /3202 11066 40225 91036 222// 000355 11010 22011;
0000997707999992010012412004+43317-070550FM-18+0006WELM1V0203401N000519999999N9999999N1-00631+99999102311
0090997707999992010012413004+43317-070550FM-18+0006WELM1V0202801N000519999999N9999999N1-00631+99999102281REMSYN081CMAN  24134 WELM1 46/// /2801 11063 40228 91236 222// 0003 11501 70004 333 91209;
0108997707999992010012414004+43317-070550FM-18+0006WELM1V0209999C000019999999N9999999N1-00501+99999102301REMSYN099CMAN  24144 WELM1 46/// /0000 11050 40230 91336 222// 00032 10501 7000 333 10258 20152 56099 88712;
0090997707999992010012415004+43317-070550FM-18+0006WELM1V0209999C000019999999N9999999N1-00251+99999102251REMSYN081CMAN  24154 WELM1 46/// /0000 11025 40225 91436 222// 0002 10501 70006 333 91210;
0078997707999992010012416004+43317-070550FM-18+0006WELM1V0209999C000019999999N9999999N1+00151+99999102191REMSYN069CMAN  24164 WELM1 46/// /0000 10015 40219 91536 222// 0002 333 91204;
0082997707999992010012417004+43317-070550FM-18+0006WELM1V0202301N002119999999N9999999N1+00261+99999102151REMSYN073CMAN  24174 WELM1 46/// /2304 10026 40215 91636 222// 000255 11005 22006;
0127997707999992010012418004+43317-070550FM-18+0006WELM1V0202601N003619999999N9999999N1+00341+99999102071REMSYN118CMAN  24184 WELM1 46/// /2607 10034 40207 91736 222// 000140170 54000 70322 8/97/ 22224 20403 3//// 4//// 5//// 80130;
0088997707999992010012419004+43317-070550FM-18+0006WELM1V0202301N004619999999N9999999N1+00321+99999102001REMSYN079CMAN  24194 WELM1 46/// /2309 10032 40200 91836 222// 0001555  555 11018 22020;
0110997707999992010012420004+43317-070550FM-18+0006WELM1V0201801N003619999999N9999999N1+00301+99999101931REMSYN101CMAN  24204 WELM1 46/// /1807 10030 40193 91936 222// 0002 22200 00245 11205 21003 332// 41204 70025;
0088997707999992010012421004+43317-070550FM-18+0006WELM1V0202201N003119999999N9999999N1+00291+99999101991REMSYN079CMAN  24214 WELM1 46/// /2206 10029 40199 92036 222// 00034 10702 700019 22022;
0090997707999992010012422004+43317-070550FM-18+0006WELM1V0202201N001519999999N9999999N1+00251+99999101991REMSYN081CMAN  24224 WELM1 46/// /2203 10025 40199 92136 222// 0003 84200 333 562// 84814;
0149997707999992010012423004+43317-070550FM-18+0006WELM1V0202301N001019999999N9999999N1+00231+99999102001REMSYN140CMAN  24234 WELM1 46/// /2302 10023 40200 92236 222// 000340300 52020 70110 8327/ 22224 00120 20202 326// 41002 5//// 6//// 80100 ICE /////;
0088997707999992010012500004+43317-070550FM-18+0006WELM1V0203601N000519999999N9999999N1+00091+99999101961REMSYN079CMAN  25004 WELM1 46/// /3601 10009 40196 92336 222// 0003555  555 11019 22020;
0090997707999992010012501004+43317-070550FM-18+0006WELM1V0203501N001019999999N9999999N1+00091+99999101901REMSYN081CMAN  25014 WELM1 46/// /3502 10009 40190 90036 222// 0003 10802 70012 333 91220;
0089997707999992010012502004+43317-070550FM-18+0006WELM1V0201701N004119999999N9999999N1+00361+99999101881REMSYN080CMAN  25024 WELM1 46/// /1708 10036 40188 90136 222// 0003555 5 555 10095 /7653;
0000997707999992010012503004+43317-070550FM-18+0006WELM1V0201501N002119999999N9999999N1+00351+99999101821
0000997707999992010012504004+43317-070550FM-18+0006WELM1V0200901N001519999999N9999999N1+00351+99999101781
0085997707999992010012505004+43317-070550FM-18+0006WELM1V0201001N002119999999N9999999N1+00381+99999101701REMSYN076CMAN  25054 WELM1 46/// /1004 10038 40170 90436 222// 0002555 7 555 IDE1283;
0088997707999992010012506004+43317-070550FM-18+0006WELM1V0200901N003619999999N9999999N1+00411+99999101571REMSYN079CMAN  25064 WELM1 46/// /0907 10041 40157 90536 222// 00021 10804 700120 22023;
0123997707999992010012507004+43317-070550FM-18+0006WELM1V0200901N003119999999N9999999N1+00441+99999101471REMSYN114CMAN  25074 WELM1 46/// /0906 10044 40147 90636 222// 00022 70000 8//41 22265 04208 20301 324// 40703 5//// 80155;
0090997707999992010012508004+43317-070550FM-18+0006WELM1V0200601N001519999999N9999999N1+00451+99999101431REMSYN081CMAN  25084 WELM1 46/// /0603 10045 40143 90736 222// 0003 10905 70023 333 91227;
0068997707999992010012509004+43317-070550FM-18+0006WELM1V0200101N001519999999N9999999N1+00401+99999101351REMSYN059CMAN  25094 WELM1 46/// /0103 10040 40135 90836 222// 0003;
0088997707999992010012510004+43317-070550FM-18+0006WELM1V0200201N002119999999N9999999N1+00331+99999101201REMSYN079CMAN  25104 WELM1 46/// /0204 10033 40120 90936 222// 0003555  555 11020 22022;
0099997707999992010012511004+43317-070550FM-18+0006WELM1V0200101N001019999999N9999999N1+00261+99999101191REMSYN090CMAN  25114 WELM1 46/// /0102 10026 40119 91036 222// 00035 11405 21003 329// 41404 70027;
0090997707999992010012512004+43317-070550FM-18+0006WELM1V0200401N000519999999N9999999N1+00261+99999101111REMSYN081CMAN  25124 WELM1 46/// /0401 10026 40111 91136 222// 0003 11104 70020 333 91225;
0082997707999992010012513004+43317-070550FM-18+0006WELM1V0201001N001019999999N9999999N1+00511+99999101011REMSYN073CMAN  25134 WELM1 46/// /1002 10051 40101 91236 222// 0003555 1012 22013;
0149997707999992010012514004+43317-070550FM-18+0006WELM1V0202001N004119999999N9999999N1+00711+99999100931REMSYN140CMAN  25144 WELM1 46/// /2008 10071 40093 91336 222// 00030 333 91219 555 11017 22018 31357 401021 61359 006018 009017 006016 007015 007006;
0091997707999992010012515004+43317-070550FM-18+0006WELM1V0202001N005119999999N9999999N1+00741+99999100841REMSYN082CMAN  25154 WELM1 46/// /2010 10074 40084 91436 222// 000340365 52001 22200 00029;
0000997707999992010012516004+43317-070550FM-18+0006WELM1V0202001N005719999999N9999999N1+00731+99999100681
0082997707999992010012517004+43317-070550FM-18+0006WELM1V0201701N011319999999N9999999N1+00801+99999100451REMSYN073CMAN  25174 WELM1 46/// /1722 10080 40045 91636 222// 000355 11018 22019;
0000997707999992010012518004+43317-070550FM-18+0006WELM1V0201701N011819999999N9999999N1+00801+99999100231
0000997707999992010012519004+43317-070550FM-18+0006WELM1V0201701N012919999999N9999999N1+00831+99999100021
0096997707999992010012520004+43317-070550FM-18+0006WELM1V0201601N013419999999N9999999N1+00831+99999099791REMSYN087CMAN  25204 WELM1 46/// /1626 10083 49979 91936 222// 0003 77122 885// 333 85619 87624;
0072997707999992010012521004+43317-070550FM-18+0006WELM1V0201601N013419999999N9999999N1+00831+99999099621REMSYN063CMAN  25214 WELM1 46/// /1626 10083 49962 92036 222// 0003555 ;
0088997707999992010012522004+43317-070550FM-18+0006WELM1V0201601N014919999999N9999999N1+00851+99999099391REMSYN079CMAN  25224 WELM1 46/// /1629 10085 49939 92136 222// 0004555  555 11007 22008;
0090997707999992010012523004+43317-070550FM-18+0006WELM1V0201701N014419999999N9999999N1+00891+99999099201REMSYN081CMAN  25234 WELM1 46/// /1728 10089 49920 92236 222// 0004 10903 70013 333 91226;
0113997707999992010012600004+43317-070550FM-18+0006WELM1V0201901N011319999999N9999999N1+00831+99999099151REMSYN104CMAN  26004 WELM1 46/// /1922 10083 49915 92336 222// 00042 8687/ 333 20255 56899 59019 70711 555 92600;
0082997707999992010012601004+43317-070550FM-18+0006WELM1V0202001N009819999999N9999999N1+00801+99999099091REMSYN073CMAN  26014 WELM1 46/// /2019 10080 49909 90036 222// 000455 11012 22012;
0099997707999992010012602004+43317-070550FM-18+0006WELM1V0202001N007719999999N9999999N1+00821+99999099021REMSYN090CMAN  26024 WELM1 46/// /2015 10082 49902 90136 222// 00045 11810 21005 331// 41808 70048;
0089997707999992010012603004+43317-070550FM-18+0006WELM1V0202001N007219999999N9999999N1+00761+99999099011REMSYN080CMAN  26034 WELM1 46/// /2014 10076 49901 90236 222// 00042 11003 7001555 60005;
0000997707999992010012604004+43317-070550FM-18+0006WELM1V0201901N004119999999N9999999N1+00751+99999098981
0090997707999992010012605004+43317-070550FM-18+0006WELM1V0202201N002119999999N9999999N1+00651+99999099051REMSYN081CMAN  26054 WELM1 46/// /2204 10065 49905 90436 222// 0004 10903 70014 333 91219;
0091997707999992010012606004+43317-070550FM-18+0006WELM1V0202801N003619999999N9999999N1+00961+99999099041REMSYN082CMAN  26064 WELM1 46/// /2807 10096 49904 90536 222// 00048 11003 700185916 88459;
0114997707999992010012607004+43317-070550FM-18+0006WELM1V0202901N004119999999N9999999N1+00801+99999099121REMSYN105CMAN  26074 WELM1 46/// /2908 10080 49912 90636 222// 00047 10903 7001 333 4/008 55300 20000 30000 88630;
0080997707999992010012608004+43317-070550FM-18+0006WELM1V0202901N002619999999N9999999N1+00661+99999099121REMSYN071CMAN  26084 WELM1 46/// /2905 10066 49912 90736 222// 00046 11003 7001;
0116997707999992010012609004+43317-070550FM-18+0006WELM1V0203101N003119999999N9999999N1+00561+99999099121REMSYN107CMAN  26094 WELM1 46/// /3106 10056 49912 90836 222// 0004555 9 555 7/ 22214 20702 309// 40602 5//// 80170;
0099997707999992010012610004+43317-070550FM-18+0006WELM1V0203101N003619999999N9999999N1+00481+99999099211REMSYN090CMAN  26104 WELM1 46/// /3107 10048 49921 90936 222// 00044 11410 21005 330// 41409 70052;
0090997707999992010012611004+43317-070550FM-18+0006WELM1V0202801N005119999999N9999999N1+00451+99999099311REMSYN081CMAN  26114 WELM1 46/// /2810 10045 49931 91036 222// 0004 10902 70012 333 91223;
0090997707999992010012612004+43317-070550FM-18+0006WELM1V0202801N003119999999N9999999N1+00441+99999099421REMSYN081CMAN  26124 WELM1 46/// /2806 10044 49942 91136 222// 0004 10702 70012 333 91230;
0000997707999992010012613004+43317-070550FM-18+0006WELM1V0203401N002119999999N9999999N1+00231+99999099551
0085997707999992010012614004+43317-070550FM-18+0006WELM1V0202901N001519999999N9999999N1+00331+99999099491REMSYN076CMAN  26144 WELM1 46/// /2903 10033 49949 91336 222// 0004555 5 555 2 86814;
0090997707999992010012615004+43317-070550FM-18+0006WELM1V0202801N004619999999N9999999N1+00461+99999099571REMSYN081CMAN  26154 WELM1 46/// /2809 10046 49957 91436 222// 0004 10602 70012 333 91226;
0082997707999992010012616004+43317-070550FM-18+0006WELM1V0202901N007219999999N9999999N1+00521+99999099641REMSYN073CMAN  26164 WELM1 46/// /2914 10052 49964 91536 222// 00044 10602 700120;
0000997707999992010012617004+43317-070550FM-18+0006WELM1V0202801N005719999999N9999999N1+00601+99999099641
0148997707999992010012618004+43317-070550FM-18+0006WELM1V0202801N007219999999N9999999N1+00641+99999099661REMSYN139CMAN  26184 WELM1 46/// /2814 10064 49966 91742 222// 00040 333 91211 555 11009 22009 31722 403011 61759 045009 037008 033007 033008 03102;
0000997707999992010012619004+43317-070550FM-18+0006WELM1V0202701N003119999999N9999999N1+00661+99999099731
0088997707999992010012620004+43317-070550FM-18+0006WELM1V0202701N004119999999N9999999N1+00711+99999099811REMSYN079CMAN  26204 WELM1 46/// /2708 10071 49981 91936 222// 00047 10502 700131 22034;
0097997707999992010012621004+43317-070550FM-18+0006WELM1V0202801N004619999999N9999999N1+00591+99999099951REMSYN088CMAN  26214 WELM1 46/// /2809 10059 49995 92036 222// 0004555 7 555 0 69907 81612 84617;
0000997707999992010012622004+43317-070550FM-18+0006WELM1V0202601N003119999999N9999999N1+00491+99999100041
0197997707999992010012623004+43317-070550FM-18+0006WELM1V0202501N003119999999N9999999N1+00381+99999100091REMSYN188CMAN  26234 WELM1 46/// /2506 10038 40009 92236 222// 0004555 5 555 258 10704 20703 300// 40902 70021 333 91210 555 11089 22093 32226 42211 62249 226083 225087 225090 224085 228081 238073;
0088997707999992010012700004+43317-070550FM-18+0006WELM1V0202401N002619999999N9999999N1+00301+99999100241REMSYN079CMAN  27004 WELM1 46/// /2405 10030 40024 92336 222// 0004555  555 11014 22015;
0085997707999992010012701004+43317-070550FM-18+0006WELM1V0202601N003619999999N9999999N1+00221+99999100281REMSYN076CMAN  27014 WELM1 46/// /2607 10022 40028 90036 222// 00046 10702 700070000;
0068997707999992010012702004+43317-070550FM-18+0006WELM1V0202701N004619999999N9999999N1+00221+99999100331REMSYN059CMAN  27024 WELM1 46/// /2709 10022 40033 90136 222// 0003;
0088997707999992010012703004+43317-070550FM-18+0006WELM1V0202701N003619999999N9999999N1+00171+99999100351REMSYN079CMAN  27034 WELM1 46/// /2707 10017 40035 90236 222// 0003555  555 11012 22013;
0090997707999992010012704004+43317-070550FM-18+0006WELM1V0202901N001519999999N9999999N1+00121+99999100411REMSYN081CMAN  27044 WELM1 46/// /2903 10012 40041 90336 222// 00035 10701 70001001 91102;
0149997707999992010012705004+43317-070550FM-18+0006WELM1V0202701N003619999999N9999999N1+00071+99999100431REMSYN140CMAN  27054 WELM1 46/// /2707 10007 40043 90436 222// 000391209 555 11008 22008 30432 405013 60459 013009 029010 044011 044011 05016 000022;
0088997707999992010012706004+43317-070550FM-18+0006WELM1V0202801N002619999999N9999999N1+00061+99999100471REMSYN079CMAN  27064 WELM1 46/// /2805 10006 40047 90536 222// 00035 10701 700012 22012;
0156997707999992010012707004+43317-070550FM-18+0006WELM1V0202801N002119999999N9999999N1+00031+99999100541REMSYN147CMAN  27074 WELM1 46/// /2804 10003 40054 90636 222// 00036 10701 7000 81602 333 11059 21117 3/115 43004 55067 55300 20000 30000 70000 81704 87075;
0088997707999992010012708004+43317-070550FM-18+0006WELM1V0202801N002619999999N9999999N1-00041+99999100611REMSYN079CMAN  27084 WELM1 46/// /2805 11004 40061 90736 222// 0003555  555 11019 22020;
0000997707999992010012709004+43317-070550FM-18+0006WELM1V0202801N002619999999N9999999N1-00051+99999100681
0088997707999992010012710004+43317-070550FM-18+0006WELM1V0202801N004119999999N9999999N1-00041+99999100731REMSYN079CMAN  27104 WELM1 46/// /2808 11004 40073 90936 222// 00032 10701 700005 22006;
0000997707999992010012711004+43317-070550FM-18+0006WELM1V0202901N003119999999N9999999N1-00071+99999100811
0099997707999992010012712004+43317-070550FM-18+0006WELM1V0203001N004119999999N9999999N1-00071+99999100901REMSYN090CMAN  27124 WELM1 46/// /3008 11007 40090 91136 222// 00033 11204 21003 330// 41203 70022;
0000997707999992010012713004+43317-070550FM-18+0006WELM1V0202901N003119999999N9999999N1-00041+99999101001
0088997707999992010012714004+43317-070550FM-18+0006WELM1V0202901N004119999999N9999999N1+00041+99999101061REMSYN079CMAN  27144 WELM1 46/// /2908 10004 40106 91336 222// 00031213 555 11012 22013;
0088997707999992010012715004+43317-070550FM-18+0006WELM1V0202901N004119999999N9999999N1+00231+99999101141REMSYN079CMAN  27154 WELM1 46/// /2908 10023 40114 91436 222// 00037 10701 700020 22021;
0088997707999992010012716004+43317-070550FM-18+0006WELM1V0203201N003119999999N9999999N1+00371+99999101161REMSYN079CMAN  27164 WELM1 46/// /3206 10037 40116 91536 222// 00039 10601 700014 22017;
0149997707999992010012717004+43317-070550FM-18+0006WELM1V0203301N004619999999N9999999N1+00461+99999101141REMSYN140CMAN  27174 WELM1 46/// /3309 10046 40114 91642 222// 000391215 555 11015 22016 31628 401022 61659 001015 004016 003017 012016 01018 002023;
0000997707999992010012718004+43317-070550FM-18+0006WELM1V0203201N004619999999N9999999N1+00511+99999101121
0072997707999992010012719004+43317-070550FM-18+0006WELM1V0203101N004619999999N9999999N1+00551+99999101131REMSYN063CMAN  27194 WELM1 46/// /3109 10055 40113 91836 222// 00032025;
0090997707999992010012720004+43317-070550FM-18+0006WELM1V0203301N005119999999N9999999N1+00501+99999101241REMSYN081CMAN  27204 WELM1 46/// /3310 10050 40124 91936 222// 0003555 2 555  10073 /7583;
0084997707999992010012721004+43317-070550FM-18+0006WELM1V0203001N003119999999N9999999N1+00441+99999101351REMSYN075CMAN  27214 WELM1 46/// /3006 10044 40135 92036 222// 0003 81100 333 81819;
0000997707999992010012722004+43317-070550FM-18+0006WELM1V0202801N002119999999N9999999N1+00371+99999101421
0079997707999992010012723004+43317-070550FM-18+0006WELM1V0202801N002119999999N9999999N1+00271+99999101471REMSYN070CMAN  27234 WELM1 46/// /2804 10027 40147 92236 222// 000455 TIDE1146;
0088997707999992010012800004+43317-070550FM-18+0006WELM1V0202601N001019999999N9999999N1+00141+99999101521REMSYN079CMAN  28004 WELM1 46/// /2602 10014 40152 92336 222// 00043 10301 700016 22019;
0090997707999992010012801004+43317-070550FM-18+0006WELM1V0202701N002619999999N9999999N1+00061+99999101621REMSYN081CMAN  28014 WELM1 46/// /2705 10006 40162 90036 222// 0004 10301 70004 333 91205;
0090997707999992010012802004+43317-070550FM-18+0006WELM1V0202901N002619999999N9999999N1+00061+99999101661REMSYN081CMAN  28024 WELM1 46/// /2905 10006 40166 90136 222// 0004 10501 70003 333 91205;
0090997707999992010012803004+43317-070550FM-18+0006WELM1V0202801N001519999999N9999999N1-00021+99999101691REMSYN081CMAN  28034 WELM1 46/// /2803 11002 40169 90236 222// 0004 10501 70003 333 91204;
0148997707999992010012804004+43317-070550FM-18+0006WELM1V0202601N002119999999N9999999N1-00031+99999101731REMSYN139CMAN  28044 WELM1 46/// /2604 11003 40173 90336 222// 000491219 555 11016 22017 30347 401019 60359 011017 015016 002012 344010 3367037 NIL;
0082997707999992010012805004+43317-070550FM-18+0006WELM1V0202701N003119999999N9999999N1-00061+99999101731REMSYN073CMAN  28054 WELM1 46/// /2706 11006 40173 90436 222// 000355 11000 22000;
0161997707999992010012806004+43317-070550FM-18+0006WELM1V0202401N002119999999N9999999N1-00111+99999101701REMSYN152CMAN  28064 WELM1 46/// /2404 11011 40170 90536 222// 000391223 555 11017 22018 30554 410024 60559 101018 100018 097018 092019 083 017004 014004 350005;
0149997707999992010012807004+43317-070550FM-18+0006WELM1V0202601N002119999999N9999999N1-00211+99999101721REMSYN140CMAN  28074 WELM1 46/// /2604 11021 40172 90642 222// 000391226 555 11019 22020 30650 410029 60659 097021 095022 095023 098022 09026 336030;
0088997707999992010012808004+43317-070550FM-18+0006WELM1V0202601N001019999999N9999999N1-00191+99999101711REMSYN079CMAN  28084 WELM1 46/// /2602 11019 40171 90736 222// 00037 10501 700016 22018;
0082997707999992010012809004+43317-070550FM-18+0006WELM1V0202701N002119999999N9999999N1-00241+99999101721REMSYN073CMAN  28094 WELM1 46/// /2704 11024 40172 90836 222// 0003555 1007 22007;
0088997707999992010012810004+43317-070550FM-18+0006WELM1V0202801N002119999999N9999999N1-00271+99999101701REMSYN079CMAN  28104 WELM1 46/// /2804 11027 40170 90936 222// 0003555  555 11020 22021;
0099997707999992010012811004+43317-070550FM-18+0006WELM1V0202601N001019999999N9999999N1-00301+99999101621REMSYN090CMAN  28114 WELM1 46/// /2602 11030 40162 91036 222// 00035 11205 21003 328// 41204 70023;
0088997707999992010012812004+43317-070550FM-18+0006WELM1V0202701N002119999999N9999999N1-00311+99999101601REMSYN079CMAN  28124 WELM1 46/// /2704 11031 40160 91136 222// 00046 10301 700016 22018;
0068997707999992010012813004+43317-070550FM-18+0006WELM1V0202701N002119999999N9999999N1-00191+99999101551REMSYN059CMAN  28134 WELM1 46/// /2704 11019 40155 91236 222// 0004;
0088997707999992010012814004+43317-070550FM-18+0006WELM1V0202601N001519999999N9999999N1-00111+99999101511REMSYN079CMAN  28144 WELM1 46/// /2603 11011 40151 91336 222// 00048 1//00 700016 22018;
0000997707999992010012815004+43317-070550FM-18+0006WELM1V0202101N002619999999N9999999N1+00011+99999101461
0149997707999992010012816004+43317-070550FM-18+0006WELM1V0201901N003119999999N9999999N1+00081+99999101321REMSYN140CMAN  28164 WELM1 46/// /1906 10008 40132 91542 222// 000391229 555 11021 22023 31526 411032 61559 103024 105023 106024 109024 11008 061015;
0078997707999992010012817004+43317-070550FM-18+0006WELM1V0201801N003119999999N9999999N1+00171+99999101181REMSYN069CMAN  28174 WELM1 46/// /1806 10017 40118 91636 222// 00030710 91134;
0088997707999992010012818004+43317-070550FM-18+0006WELM1V0202501N004119999999N9999999N1+00011+99999101091REMSYN079CMAN  28184 WELM1 46/// /2508 10001 40109 91736 222// 0003555  555 11019 22020;
0000997707999992010012819004+43317-070550FM-18+0006WELM1V0202101N003119999999N9999999N1-00061+99999100891
0088997707999992010012820004+43317-070550FM-18+0006WELM1V0202101N005719999999N9999999N1+00001+99999100811REMSYN079CMAN  28204 WELM1 46/// /2111 10000 40081 91936 222// 0003555  555 11021 22022;
0000997707999992010012821004+43317-070550FM-18+0006WELM1V0202201N003119999999N9999999N1+00021+99999100741
0151997707999992010012822004+43317-070550FM-18+0006WELM1V0202101N003619999999N9999999N1+00011+99999100631REMSYN142CMAN  28224 WELM1 46/// /2107 10001 40063 92136 222// 00030 10401 7000// 7//// 8//// 222// 04181 2//// 3//// 4//// 5//// 6//// 8//// ICE ////;
0068997707999992010012823004+43317-070550FM-18+0006WELM1V0202601N001019999999N9999999N1-00061+99999100571REMSYN059CMAN  28234 WELM1 46/// /2602 11006 40057 92236 222// 0003;
0078997707999992010012900004+43317-070550FM-18+0006WELM1V0202701N001019999999N9999999N1-00061+99999100531REMSYN069CMAN  29004 WELM1 46/// /2702 11006 40053 92336 222// 0004 333 91216;
0088997707999992010012901004+43317-070550FM-18+0006WELM1V0203101N009819999999N9999999N1-00221+99999100601REMSYN079CMAN  29014 WELM1 46/// /3119 11022 40060 90036 222// 0004555  555 11015 22016;
0082997707999992010012902004+43317-070550FM-18+0006WELM1V0203001N010819999999N9999999N1-00241+99999100681REMSYN073CMAN  29024 WELM1 46/// /3021 11024 40068 90136 222// 000455 11008 22008;
0099997707999992010012903004+43317-070550FM-18+0006WELM1V0202901N006219999999N9999999N1-00431+99999100801REMSYN090CMAN  29034 WELM1 46/// /2912 11043 40080 90236 222// 00046 11103 21002 327// 41102 70017;
0000997707999992010012904004+43317-070550FM-18+0006WELM1V0202901N006219999999N9999999N1-00531+99999100841
0000997707999992010012905004+43317-070550FM-18+0006WELM1V0203001N007719999999N9999999N1-00651+99999100861
0000997707999992010012906004+43317-070550FM-18+0006WELM1V0202901N006219999999N9999999N1-00761+99999100881
0088997707999992010012907004+43317-070550FM-18+0006WELM1V0202901N007219999999N9999999N1-00891+99999100931REMSYN079CMAN  29074 WELM1 46/// /2914 11089 40093 90636 222// 00032 10501 700004 22004;
0088997707999992010012908004+43317-070550FM-18+0006WELM1V0203001N006219999999N9999999N1-00971+99999100951REMSYN079CMAN  29084 WELM1 46/// /3012 11097 40095 90736 222// 00021 10501 700008 22009;
0197997707999992010012909004+43317-070550FM-18+0006WELM1V0202901N005719999999N9999999N1-01051+99999999999REMSYN188CMAN  29094 WELM1 46/// /2911 11105 90848 222// 00020 333 91229 555 11021 22022 30800 413032 60859 095022 094023 090022 088018 1018 316019 31009 0459053 159053 156049 152042 153041 160046;
0149997707999992010012910004+43317-070550FM-18+0006WELM1V0203001N008719999999N9999999N1-01061+99999999999REMSYN140CMAN  29104 WELM1 46/// /3017 11106 90942 222// 00010 333 91214 555 11013 22013 30953 435014 60959 349012 348012 346011 346011 34011 021017;
0082997707999992010012911004+43317-070550FM-18+0006WELM1V0202901N008719999999N9999999N1-01091+99999999999REMSYN073CMAN  29114 WELM1 46/// /2917 11109 91036 222// 0001/ 000455 11001 22001;
0088997707999992010012912004+43317-070550FM-18+0006WELM1V0203001N009319999999N9999999N1-01141+99999999999REMSYN079CMAN  29124 WELM1 46/// /3018 11114 91136 222// 0003/ 0004555  555 11014 22015;
0082997707999992010012913004+43317-070550FM-18+0006WELM1V0203201N007219999999N9999999N1-01141+99999999999REMSYN073CMAN  29134 WELM1 46/// /3214 11114 91236 222// 0003/ 000455 11003 22003;
0085997707999992010012914004+43317-070550FM-18+0006WELM1V0203101N009319999999N9999999N1-01081+99999999999REMSYN076CMAN  29144 WELM1 46/// /3118 11108 91336 222// 0003/ 0004555 5 555 IDE1024;
0088997707999992010012915004+43317-070550FM-18+0006WELM1V0203001N008219999999N9999999N1-00971+99999999999REMSYN079CMAN  29154 WELM1 46/// /3016 11097 91436 222// 0003/ 0004555  555 11011 22012;
0085997707999992010012916004+43317-070550FM-18+0006WELM1V0202901N012919999999N9999999N1-00941+99999101021REMSYN076CMAN  29164 WELM1 46/// /2925 11094 40102 91536 222// 0003555 0 555 IDE1016;
0072997707999992010012917004+43317-070550FM-18+0006WELM1V0203001N011319999999N9999999N1-00911+99999101041REMSYN063CMAN  29174 WELM1 46/// /3022 11091 40104 91636 222// 00032013;
0149997707999992010012918004+43317-070550FM-18+0006WELM1V0203101N008719999999N9999999N1-00881+99999101021REMSYN140CMAN  29184 WELM1 46/// /3117 11088 40102 91736 222// 00031 10301 700070322 84160 22214 00250 20403 305// 4//// 5//// 6//// 80232 ICE /////;
0090997707999992010012919004+43317-070550FM-18+0006WELM1V0203101N010319999999N9999999N1-00931+99999101091REMSYN081CMAN  29194 WELM1 46/// /3120 11093 40109 91836 222// 0002 10601 70003 333 91217;
0088997707999992010012920004+43317-070550FM-18+0006WELM1V0203101N008219999999N9999999N1-00941+99999101161REMSYN079CMAN  29204 WELM1 46/// /3116 11094 40116 91936 222// 00010 10701 700028 22029;
0082997707999992010012921004+43317-070550FM-18+0006WELM1V0203101N008719999999N9999999N1-00981+99999101201REMSYN073CMAN  29214 WELM1 46/// /3117 11098 40120 92036 222// 000155 11005 22005;
0000997707999992010012922004+43317-070550FM-18+0006WELM1V0203001N007719999999N9999999N1-01071+99999101261
0090997707999992010012923004+43317-070550FM-18+0006WELM1V0203101N010319999999N9999999N1-01131+99999999999REMSYN081CMAN  29234 WELM1 46/// /3120 11113 92236 222// 0100/ 0004 10401 70004 333 91209;
0091997707999992010013000004+43317-070550FM-18+0006WELM1V0203101N009819999999N9999999N1-01191+99999999999REMSYN082CMAN  30004 WELM1 46/// /3119 11119 92336 222// 0101/ 00042 885// 92330 333 70604;
0088997707999992010013001004+43317-070550FM-18+0006WELM1V0203101N007719999999N9999999N1-01241+99999999999REMSYN079CMAN  30014 WELM1 46/// /3115 11124 90036 222// 0000/ 0004555  555 11017 22018;
