0000997707999992012010100004+43317-070550FM-18+0006WELM1V0209999C000019999999N9999999N1+00201+99999100941
0079997707999992012010101004+43317-070550FM-18+0006WELM1V0203001N001519999999N9999999N1+00181+99999100971REMSYN070CMAN  01014 WELM1 46/// /3003 10018 40097 90036 222// 000591213 555 3;
0088997707999992012010102004+43317-070550FM-18+0006WELM1V0203501N001519999999N9999999N1+00171+99999100991REMSYN079CMAN  01024 WELM1 46/// /3503 10017 40099 90136 222// 000457 40182 52004 22272;
0099997707999992012010103004+43317-070550FM-18+0006WELM1V0202701N001519999999N9999999N1+00061+99999101041REMSYN090CMAN  01034 WELM1 46/// /2703 10006 40104 90236 222// 00046 11004 21003 309// 41102 70018;
0071997707999992012010104004+43317-070550FM-18+0006WELM1V0203601N000519999999N9999999N1+00001+99999101071REMSYN062CMAN  01044 WELM1 46/// /3601 10000 40107 90336 222// 0004200;
0000997707999992012010105004+43317-070550FM-18+0006WELM1V0203101N001019999999N9999999N1-00071+99999101071
0078997707999992012010106004+43317-070550FM-18+0006WELM1V02099999999999999999N9999999N1-00031+99999101131REMSYN069CMAN  01064 WELM1 46/// /02// 11003 40113 90536 222// 0003 333 91206;
0000997707999992012010107004+43317-070550FM-18+0006WELM1V0203601N001519999999N9999999N1-00051+99999101131
0185997707999992012010108004+43317-070550FM-18+0006WELM1V0203101N001519999999N9999999N1-00091+99999101151REMSYN176CMAN  01084 WELM1 46/// /3103 11009 40115 90736 222// 000691211 555 076 10301 20301 70005 333 91210 555 11090 22095 30742 40810 60749 080083 076079 075076 077074 075074 076072;
0000997707999992012010109004+43317-070550FM-18+0006WELM1V0209999C000019999999N9999999N1+00021+99999101291
0110997707999992012010110004+43317-070550FM-18+0006WELM1V0203001N002019999999N9999999N1+00021+99999101381ADDMD1110261+9999SA1+0629REMSYN076OOUH   46// WELM1 46/// /3002 10002 40138 51026 91000 222// 00062 333 91202;
0068997707999992012010111004+43317-070550FM-18+0006WELM1V0203301N001519999999N9999999N1-00201+99999101451REMSYN059CMAN  01114 WELM1 46/// /3303 11020 40145 91036 222// 0006;
0100997707999992012010112004+43317-070550FM-18+0006WELM1V0203401N001019999999N9999999N1-00171+99999101471REMSYN091CMAN  01124 WELM1 46/// /3402 11017 40147 91136 222// 000691220 555  21112 91024 555 90986;
0072997707999992012010113004+43317-070550FM-18+0006WELM1V0203001N000519999999N9999999N1-00031+99999101541REMSYN063CMAN  01134 WELM1 46/// /3001 11003 40154 91236 222// 00052017;
0078997707999992012010114004+43317-070550FM-18+0006WELM1V02099999999999999999N9999999N1+00131+99999101581REMSYN069CMAN  01144 WELM1 46/// /21// 10013 40158 91336 222// 0006 333 91202;
0085997707999992012010115004+43317-070550FM-18+0006WELM1V0201101N000519999999N9999999N1+00341+99999101601REMSYN076CMAN  01154 WELM1 46/// /1101 10034 40160 91436 222// 000491224 555 7 87/05;
0078997707999992012010116004+43317-070550FM-18+0006WELM1V0201301N000519999999N9999999N1+00451+99999101571REMSYN069CMAN 01164 WELM1 46/// /1301 10045 40157 91536 222// 00046 333 91202;
0141997707999992012010117004+43317-070550FM-18+0006WELM1V0201701N002619999999N9999999N1+00671+99999101501REMSYN132CMAN  01174 WELM1 46/// /1705 10067 40150 91636 222// 0004001 75152 886// 22273 00039 20202 3//// 4//// 5//// 6//// 8//// ICE /////;
0000997707999992012010118004+43317-070550FM-18+0006WELM1V0201601N002619999999N9999999N1+00771+99999101391
0000997707999992012010119004+43317-070550FM-18+0006WELM1V0201601N004119999999N9999999N1+00771+99999101281
0088997707999992012010120004+43317-070550FM-18+0006WELM1V0201801N004119999999N9999999N1+00751+99999999999REMSYN079CMAN  01204 WELM1 46/// /1808 10075 91936 91936 222// 00061215 555 11017 22020;
0072997707999992012010121004+43317-070550FM-18+0006WELM1V0202001N004619999999N9999999N1+00721+99999999999REMSYN063CMAN  01214 WELM1 46/// /2009 10072 92030 9203 92036 333 91212;
0072997707999992012010122004+43317-070550FM-18+0006WELM1V0201801N005719999999N9999999N1+00701+99999999999REMSYN063CMAN  01224 WELM1 46/// /1811 10070 9213 40210 92136 333 91209;
0197997707999992012010123004+43317-070550FM-18+0006WELM1V0201701N005119999999N9999999N1+00701+99999999999REMSYN188CMAN  01234 WELM1 46/// /1710 10070 92236 92236 222// 002591218 555 11016 22017 32250 436021 62259 008017 009017 007017 004017 00018 00028 302249 093034 092037 092036 083043 090043 093046;
0082997707999992012010200004+43317-070550FM-18+0006WELM1V0201801N006719999999N9999999N1+00741+99999999999REMSYN073CMAN  02004 WELM1 46/// /1813 10074 92336 222// 0005/ 000655 11026 22028;
0161997707999992012010201004+43317-070550FM-18+0006WELM1V0201901N005719999999N9999999N1+00781+99999999999REMSYN152CMAN  02014 WELM1 46/// /1911 10078 90036 222// 0005/ 00060 333 91211 555 11010 22010 30049 435012 60059 346009 349009 346009 345009 346010 0940 075007;
0155997707999992012010202004+43317-070550FM-18+0006WELM1V0201901N007719999999N9999999N1+00761+99999999999REMSYN146CMAN  02024 WELM1 46/// /1915 10076 90136 222// 0005/ 000691213 555 11011 22012 30114 436019 60159 354011 000013 003013 005014 00036 32006 065019;
0078997707999992012010203004+43317-070550FM-18+0006WELM1V0202001N006219999999N9999999N1+00751+99999999999REMSYN069CMAN  02034 WELM1 46/// /2012 10075 90236 222// 0005/ 0006 333 91219;
0000997707999992012010204004+43317-070550FM-18+0006WELM1V0202001N006219999999N9999999N1+00721+99999999999
0000997707999992012010205004+43317-070550FM-18+0006WELM1V0202001N007219999999N9999999N1+00731+99999999999
0088997707999992012010206004+43317-070550FM-18+0006WELM1V0202001N004119999999N9999999N1+00751+99999999999REMSYN079CMAN  02064 WELM1 46/// /2008 10075 90536 222// 0005/ 00061229 555 11023 22024;
0000997707999992012010207004+43317-070550FM-18+0006WELM1V0202001N005719999999N9999999N1+00801+99999999999
0080997707999992012010208004+43317-070550FM-18+0006WELM1V0202101N004619999999N9999999N1+00811+99999999999REMSYN071CMAN  02084 WELM1 46/// /2109 10081 90736 222// 0005/ 0006 222// 00217;
0000997707999992012010209004+43317-070550FM-18+0006WELM1V0202101N002619999999N9999999N1+00761+99999999999
0000997707999992012010210004+43317-070550FM-18+0006WELM1V0202501N002119999999N9999999N1+00801+99999999999
0078997707999992012010211004+43317-070550FM-18+0006WELM1V0202701N003619999999N9999999N1+00681+99999999999REMSYN069CMAN  02114 WELM1 46/// /2707 10068 91036 222// 0005/ 0006 333 91226;
0000997707999992012010212004+43317-070550FM-18+0006WELM1V0202601N004619999999N9999999N1+00521+99999999999
0103997707999992012010213004+43317-070550FM-18+0006WELM1V0202701N004619999999N9999999N1+00431+99999999999REMSYN094CMAN  02134 WELM1 46/// /2709 10043 91236 222// 0005/ 000691208 555 3 30203 81/24 87/50 87/56;
0094997707999992012010214004+43317-070550FM-18+0006WELM1V0202601N004619999999N9999999N1+00421+99999999999REMSYN085CMAN  02144 WELM1 46/// /2609 10042 91336 222// 0005/ 0006 91350 333 8//99 555 7/090;
0000997707999992012010215004+43317-070550FM-18+0006WELM1V0202601N005119999999N9999999N1+00501+99999099921
0155997707999992012010216004+43317-070550FM-18+0006WELM1V0202701N005119999999N9999999N1+00501+99999099941REMSYN146CMAN  02164 WELM1 46/// /2710 10050 49994 91542 222// 000591228 555 11002 22002 31502 402007 61559 040002 044003 048003 028004 01028 33003 336026;
0000997707999992012010217004+43317-070550FM-18+0006WELM1V0202801N004619999999N9999999N1+00561+99999099881
0088997707999992012010218004+43317-070550FM-18+0006WELM1V0202801N006719999999N9999999N1+00541+99999099851REMSYN079CMAN  02184 WELM1 46/// /2813 10054 49985 91736 222// 00051213 555 11011 22011;
0203997707999992012010219004+43317-070550FM-18+0006WELM1V0202701N005119999999N9999999N1+00601+99999099861REMSYN194CMAN  02194 WELM1 46/// /2710 10060 49986 91836 222// 00050 222// 00218 333 91225 555 11023 22024 31857 432025 61859 318023 319021 318021 320020 323509 237065 233067 229067 237063 231063 233066;
0088997707999992012010220004+43317-070550FM-18+0006WELM1V0202701N005119999999N9999999N1+00571+99999099931REMSYN079CMAN  02204 WELM1 46/// /2710 10057 49993 91936 222// 00061208 555 11006 22006;
0072997707999992012010221004+43317-070550FM-18+0006WELM1V0202701N003619999999N9999999N1+00461+99999099981REMSYN063CMAN  02214 WELM1 46/// /2707 10046 49998 92036 222// 00062028;
0094997707999992012010222004+43317-070550FM-18+0006WELM1V0202601N003619999999N9999999N1+00381+99999100061REMSYN085CMAN  02224 WELM1 46/// /2607 10038 40006 92136 222// 0006555 50 333 8//99 555 7/090;
0094997707999992012010223004+43317-070550FM-18+0006WELM1V0202601N003619999999N9999999N1+00291+99999100191REMSYN085CMAN  02234 WELM1 46/// /2607 10029 40019 92236 222// 0007 92250 333 8//99 555 7/090;
0079997707999992012010300004+43317-070550FM-18+0006WELM1V0202401N002119999999N9999999N1+00201+99999100251REMSYN070CMAN  03004 WELM1 46/// /2404 10020 40025 92336 222// 00077 333 58001;
0000997707999992012010301004+43317-070550FM-18+0006WELM1V0202501N003119999999N9999999N1+00171+99999100271
0094997707999992012010302004+43317-070550FM-18+0006WELM1V0202401N002619999999N9999999N1+00121+99999100301REMSYN085CMAN  03024 WELM1 46/// /2405 10012 40030 90136 222// 0006 90150 333 8//99 555 7/090;
0090997707999992012010303004+43317-070550FM-18+0006WELM1V0202701N003119999999N9999999N1+00041+99999100341REMSYN081CMAN  03034 WELM1 46/// /2706 10004 40034 90236 222// 000591224 555 // 333 88917;
0197997707999992012010304004+43317-070550FM-18+0006WELM1V0202401N002619999999N9999999N1+00001+99999100341REMSYN188CMAN  03044 WELM1 46/// /2405 10000 40034 90336 222// 00050 22200 00079 11106 20503 323// 41105 70029 333 91215 555 11132 22144 30326 42416 60349 238121 240131 243131 245127 240112 226077;
0161997707999992012010305004+43317-070550FM-18+0006WELM1V0202501N003119999999N9999999N1-00021+99999100321REMSYN152CMAN  03054 WELM1 46/// /2506 11002 40032 90436 222// 00050 333 91206 555 11005 22006 30400 431007 60459 303006 303005 304005 306006 294025 34706 27206;
0000997707999992012010306004+43317-070550FM-18+0006WELM1V0202501N003119999999N9999999N1-00081+99999100341
0000997707999992012010307004+43317-070550FM-18+0006WELM1V0202801N003119999999N9999999N1-00051+99999100411
0085997707999992012010308004+43317-070550FM-18+0006WELM1V0202901N003119999999N9999999N1-00121+99999100481REMSYN076CMAN  03084 WELM1 46/// /2906 11012 40048 90736 222// 000591236 55 TIDE1006;
0117997707999992012010309004+43317-070550FM-18+0006WELM1V0202901N003119999999N9999999N1-00201+99999100471REMSYN108CMAN  03094 WELM1 46/// /2906 11020 40047 90836 222// 0006101 29034 3//// 5//// 92200 333 553// 40949 51404;
0000997707999992012010310004+43317-070550FM-18+0006WELM1V0203101N002619999999N9999999N1-00261+99999100491
0088997707999992012010311004+43317-070550FM-18+0006WELM1V0203101N004119999999N9999999N1-00291+99999100581REMSYN079CMAN  03114 WELM1 46/// /3108 11029 40058 91036 222// 00061216 555 11013 22014;
0078997707999992012010312004+43317-070550FM-18+0006WELM1V0203101N003119999999N9999999N1-00361+99999100691REMSYN069CMAN  03124 WELM1 46/// /3106 11036 40069 91136 222// 0006 333 91218;
0078997707999992012010313004+43317-070550FM-18+0006WELM1V0203201N004119999999N9999999N1-00471+99999100801REMSYN069CMAN  03134 WELM1 46/// /3208 11047 40080 91236 222// 0006 333 91214;
0075997707999992012010314004+43317-070550FM-18+0006WELM1V0203201N005119999999N9999999N1-00461+99999100901REMSYN066CMAN  03144 WELM1 46/// /3210 11046 40090 91336 222// 00064 70019;
0134997707999992012010315004+43317-070550FM-18+0006WELM1V0203101N005119999999N9999999N1-00451+99999100891REMSYN125CMAN  03154 WELM1 46/// /3110 11045 40089 91436 222// 000591215 555 22 70211 855// 22200 00260 20401 300// 40000 5//// 80110;
0141997707999992012010316004+43317-070550FM-18+0006WELM1V0203401N007219999999N9999999N1-00421+99999100821REMSYN132CMAN  03164 WELM1 46/// /3414 11042 40082 91536 222// 0004015 70262 887// 22224 00130 20805 327// 41509 5//// 6//// 80110 ICE /////;
0078997707999992012010317004+43317-070550FM-18+0006WELM1V0203001N004619999999N9999999N1-00491+99999100851REMSYN069CMAN  03174 WELM1 46/// /3009 11049 40085 91636 222// 0004 333 91219;
0155997707999992012010318004+43317-070550FM-18+0006WELM1V0203301N006219999999N9999999N1-00481+99999100821REMSYN146CMAN  03184 WELM1 46/// /3312 11048 40082 91742 222// 000491210 555 9 555 11025 22027 31756 419030 61759 188024 186023 191021 194019 19022 007019;
0000997707999992012010319004+43317-070550FM-18+0006WELM1V0203201N005119999999N9999999N1-00461+99999100821
0000997707999992012010320004+43317-070550FM-18+0006WELM1V0203301N005119999999N9999999N1-00431+99999100901
0191997707999992012010321004+43317-070550FM-18+0006WELM1V0203201N003619999999N9999999N1-00471+99999101031REMSYN182CMAN  03214 WELM1 46/// /3207 11047 40103 92036 222// 000691237 555 11028 22029 32014 416043 62059 164029 161030 162031 161031 160 314025 318022 30323120 320119 313117 319119 326108;
0096997707999992012010322004+43317-070550FM-18+0006WELM1V0203201N004619999999N9999999N1-00601+99999101071REMSYN087CMAN  03224 WELM1 46/// /3209 11060 40107 92136 222// 0006 60102 76162 887// 333 10072;
0101997707999992012010323004+43317-070550FM-18+0006WELM1V0203401N003619999999N9999999N1-00741+99999101251ADDMD1310281+9999REMSYN075CMAN  03234 WELM1 46/// /3407 11074 40125 53028 92300 222// 0006 333 91216;
0078997707999992012010400004+43317-070550FM-18+0006WELM1V0203101N003119999999N9999999N1-00791+99999101331REMSYN069CMAN  04004 WELM1 46/// /3106 11079 40133 92336 222// 0006 333 91220;
0000997707999992012010401004+43317-070550FM-18+0006WELM1V0203201N003619999999N9999999N1-00891+99999101431
0078997707999992012010402004+43317-070550FM-18+0006WELM1V0203301N005119999999N9999999N1-00991+99999999999REMSYN069CMAN  04024 WELM1 46/// /3310 11099 90136 222// 0005/ 0005 333 91204;
0099997707999992012010403004+43317-070550FM-18+0006WELM1V0203401N004119999999N9999999N1-01061+99999999999REMSYN090CMAN  04034 WELM1 46/// /3408 11106 90236 222// 0005/ 00057 90250 22200 00066 11007 70033;
0000997707999992012010404004+43317-070550FM-18+0006WELM1V0203401N004119999999N9999999N1-01111+99999999999
0078997707999992012010405004+43317-070550FM-18+0006WELM1V0203201N003619999999N9999999N1-01161+99999999999REMSYN069CMAN  04054 WELM1 46/// /3207 11116 90436 222// 0003/ 0005 333 91205;
0117997707999992012010406004+43317-070550FM-18+0006WELM1V0203601N002619999999N9999999N1-01181+99999999999REMSYN108CMAN  04064 WELM1 46/// /3605 11118 90536 222// 0003/ 00053 70200 80007 22200 20504 335// 40502 5//// 80016;
0085997707999992012010407004+43317-070550FM-18+0006WELM1V0200301N002619999999N9999999N1-01221+99999999999REMSYN076CMAN  04074 WELM1 46/// /0305 11122 90636 222// 0003/ 002691214 55 TIDE1061;
0000997707999992012010408004+43317-070550FM-18+0006WELM1V0203001N002619999999N9999999N1-01291+99999999999
0000997707999992012010409004+43317-070550FM-18+0006WELM1V0203001N002619999999N9999999N1-01341+99999999999
0132997707999992012010410004+43317-070550FM-18+0006WELM1V0203001N002119999999N9999999N1-01361+99999999999REMSYN123CMAN  04104 WELM1 46/// /3004 11136 90936 222// 0006/ 0004 69921 76074 333 44050 55/// 20201 30187 55300 20000 30000 96045;
0155997707999992012010411004+43317-070550FM-18+0006WELM1V0203201N002119999999N9999999N1-01381+99999999999REMSYN146CMAN  04114 WELM1 46/// /3204 11138 91036 222// 0006/ 000491203 555 11002 22002 31043 426003 61059 242002 262002 246002 253002 2720 001020 001005;
0078997707999992012010412004+43317-070550FM-18+0006WELM1V0203101N003119999999N9999999N1-01401+99999999999REMSYN069CMAN  04124 WELM1 46/// /3106 11140 91136 222// 0005/ 0004 333 91211;
0088997707999992012010413004+43317-070550FM-18+0006WELM1V0203001N004119999999N9999999N1-01401+99999999999REMSYN079CMAN  04134 WELM1 46/// /3008 11140 91236 222// 0005/ 00041224 555 11019 22020;
0088997707999992012010414004+43317-070550FM-18+0006WELM1V0203101N003619999999N9999999N1-01271+99999999999REMSYN079CMAN  04144 WELM1 46/// /3107 11127 91336 222// 0005/ 00041230 555 11025 22027;
0000997707999992012010415004+43317-070550FM-18+0006WELM1V0203201N003119999999N9999999N1-01031+99999999999
0000997707999992012010416004+43317-070550FM-18+0006WELM1V0203201N003619999999N9999999N1-00891+99999999999
0000997707999992012010417004+43317-070550FM-18+0006WELM1V0202801N002119999999N9999999N1-00661+99999101471
0112997707999992012010418004+43317-070550FM-18+0006WELM1V0203001N003619999999N9999999N1-00591+99999101421REMSYN103CMAN  04184 WELM1 46/// /3007 11059 40142 91736 222// 0002 8387/ 333 69947 58001 81823 83650 555 60005;
0203997707999992012010419004+43317-070550FM-18+0006WELM1V0202801N004119999999N9999999N1-00451+99999101381REMSYN194CMAN  04194 WELM1 46/// /2808 11045 40138 91836 222// 00028 91850 22200 00085 11307 20502 325// 41307 70034 333 91215 555 11130 22141 31751 41917 61849 190121 189126 191118 192128 189128 189132;
0088997707999992012010420004+43317-070550FM-18+0006WELM1V0202801N003119999999N9999999N1-00411+99999101361REMSYN079CMAN  04204 WELM1 46/// /2806 11041 40136 91936 222// 00021225 555 11020 22021;
0134997707999992012010421004+43317-070550FM-18+0006WELM1V0203101N003119999999N9999999N1-00471+99999101401REMSYN125CMAN  04214 WELM1 46/// /3106 11047 40140 92036 222// 000391217 555 33 70111 83580 22235 00260 20401 335// 40402 5//// 80187;
0000997707999992012010422004+43317-070550FM-18+0006WELM1V0203001N003619999999N9999999N1-00531+99999101411
0000997707999992012010423004+43317-070550FM-18+0006WELM1V0202701N003619999999N9999999N1-00551+99999101411
0078997707999992012010500004+43317-070550FM-18+0006WELM1V0202301N001019999999N9999999N1-00551+99999101391REMSYN069CMAN  05004 WELM1 46/// /2302 11055 40139 92336 222// 0006 333 91207;
0090997707999992012010501004+43317-070550FM-18+0006WELM1V0202301N002619999999N9999999N1-00541+99999101341REMSYN081CMAN  05014 WELM1 46/// /2305 11054 40134 90036 222// 0006 1//01 70005 333 91213;
0000997707999992012010502004+43317-070550FM-18+0006WELM1V0202301N002619999999N9999999N1-00511+99999101281
0141997707999992012010503004+43317-070550FM-18+0006WELM1V0202901N000519999999N9999999N1-00521+99999101191REMSYN132CMAN  05034 WELM1 46/// /2901 11052 40119 90236 222// 0005/// 70202 8//// 22243 0//// 20603 3//// 4//// 5//// 6//// 8//// ICE /////;
0072997707999992012010504004+43317-070550FM-18+0006WELM1V0202701N001519999999N9999999N1-00471+99999101151REMSYN063CMAN  05044 WELM1 46/// /2703 11047 40115 90336 222// 00041206;
0072997707999992012010505004+43317-070550FM-18+0006WELM1V0202501N002619999999N9999999N1-00461+99999101101REMSYN063CMAN  05054 WELM1 46/// /2505 11046 40110 90436 222// 00031207;
0078997707999992012010506004+43317-070550FM-18+0006WELM1V0202601N002119999999N9999999N1-00451+99999101031REMSYN069CMAN  05064 WELM1 46/// /2604 11045 40103 90536 222// 0003 333 91210;
0000997707999992012010507004+43317-070550FM-18+0006WELM1V0202301N002119999999N9999999N1-00441+99999100991
0134997707999992012010508004+43317-070550FM-18+0006WELM1V0202501N001519999999N9999999N1-00441+99999100931REMSYN125CMAN  05084 WELM1 46/// /2503 11044 40093 90736 222// 0003 40181 57028 70111 8484/ 22244 00270 20402 301// 40504 5//// 80220;
0080997707999992012010509004+43317-070550FM-18+0006WELM1V0202601N001019999999N9999999N1-00441+99999100921REMSYN071CMAN  05094 WELM1 46/// /2602 11044 40092 90836 222// 0003 60011 7//44;
0076997707999992012010510004+43317-070550FM-18+0006WELM1V0202601N001519999999N9999999N1-00461+99999100881REMSYN067CMAN  05104 WELM1 46/// /2603 11046 40088 90936 222// 000546 57020;
0161997707999992012010511004+43317-070550FM-18+0006WELM1V0202601N002619999999N9999999N1-00461+99999100831REMSYN152CMAN  05114 WELM1 46/// /2605 11046 40083 91036 222// 00060 222// 00051 333 91207 555 11006 22006 31052 423009 61059 236007 230007 224007 218007 224014;
0157997707999992012010512004+43317-070550FM-18+0006WELM1V0202801N002619999999N9999999N1-00441+99999100801REMSYN148CMAN  05124 WELM1 46/// /2805 11044 40080 91136 222// 00060 222// 00049 333 91208 555 11007 22007 31102 425008 61159 254007 257006 250007 247007 23;
0088997707999992012010513004+43317-070550FM-18+0006WELM1V0202801N002619999999N9999999N1-00461+99999100761REMSYN079CMAN  05134 WELM1 46/// /2805 11046 40076 91236 222// 000641 40154 57012 22223;
0107997707999992012010514004+43317-070550FM-18+0006WELM1V0202801N002619999999N9999999N1-00381+99999100811REMSYN098CMAN  05144 WELM1 46/// /2805 11038 40081 91336 222// 0005/ 333 84656 555 10059 55092 92000 /7385;
0000997707999992012010515004+43317-070550FM-18+0006WELM1V0202901N003119999999N9999999N1-00301+99999100801
0085997707999992012010516004+43317-070550FM-18+0006WELM1V0202801N003619999999N9999999N1-00191+99999100691REMSYN076CMAN  05164 WELM1 46/// /2807 11019 40069 91536 222// 000591201 55 TIDE1082;
0072997707999992012010517004+43317-070550FM-18+0006WELM1V0202901N003119999999N9999999N1-00071+99999100581REMSYN063CMAN  05174 WELM1 46/// /2906 11007 40058 91636 222// 00041206;
0000997707999992012010518004+43317-070550FM-18+0006WELM1V0202901N004119999999N9999999N1+00031+99999100481
0078997707999992012010519004+43317-070550FM-18+0006WELM1V0202801N002619999999N9999999N1+00101+99999100491REMSYN069CMAN  05194 WELM1 46/// /2805 10010 40049 91836 222// 0003 333 91211;
0088997707999992012010520004+43317-070550FM-18+0006WELM1V0203201N004119999999N9999999N1+00131+99999100561REMSYN079CMAN  05204 WELM1 46/// /3208 10013 40056 91936 222// 00031236 555 11029 22031;
0197997707999992012010521004+43317-070550FM-18+0006WELM1V0202901N002619999999N9999999N1+00151+99999100601REMSYN188CMAN  05214 WELM1 46/// /2905 10015 40060 92036 222// 0003555 200 00155 11304 20401 329// 41304 70020 333 91203 555 11026 22029 32043 43103 62049 330023 325022 329023 346019 346023 001022;
0085997707999992012010522004+43317-070550FM-18+0006WELM1V0203201N003119999999N9999999N1+00091+99999100691REMSYN076CMAN  05224 WELM1 46/// /3206 10009 40069 92136 222// 000391205 55 TIDE1096;
0197997707999992012010523004+43317-070550FM-18+0006WELM1V0203401N004119999999N9999999N1-00011+99999100791REMSYN188CMAN  05234 WELM1 46/// /3408 11001 40079 92236 222// 00054 92300 333 91219 555 11016 22017 32221 431023 62259 321018 318016 319017 310018 312249 279033 278034 279030 282025 289022 307019;
0079997707999992012010600004+43317-070550FM-18+0006WELM1V0203101N004619999999N9999999N1-00091+99999100911REMSYN070CMAN  06004 WELM1 46/// /3109 11009 40091 92336 222// 000691220 555 3;
0075997707999992012010601004+43317-070550FM-18+0006WELM1V0203201N002119999999N9999999N1-00171+99999101011REMSYN066CMAN  06014 WELM1 46/// /3204 11017 40101 90036 222// 00064 70020;
0134997707999992012010602004+43317-070550FM-18+0006WELM1V0203201N003119999999N9999999N1-00241+99999101071REMSYN125CMAN  06024 WELM1 46/// /3206 11024 40107 90136 222// 0005 40152 51010 70200 83/// 22234 00270 20402 309// 40803 5//// 80245;
0203997707999992012010603004+43317-070550FM-18+0006WELM1V0203201N004619999999N9999999N1-00281+99999101061REMSYN194CMAN  06034 WELM1 46/// /3209 11028 40106 90236 222// 000591218 555 11015 22016 30203 427021 60259 280016 280016 274016 279017 287 196006 196008 190249 302068 308075 295084 300082 297078 302090;
0078997707999992012010604004+43317-070550FM-18+0006WELM1V0203201N003119999999N9999999N1-00351+99999101121REMSYN069CMAN  06044 WELM1 46/// /3206 11035 40112 90336 222// 0005 333 91205;
0096997707999992012010605004+43317-070550FM-18+0006WELM1V0203001N002119999999N9999999N1-00431+99999101091REMSYN087CMAN  06054 WELM1 46/// /3004 11043 40109 90436 222// 0004 6///1 333 55000 91021 91131;
0078997707999992012010606004+43317-070550FM-18+0006WELM1V0209999C000019999999N9999999N1-00521+99999101151REMSYN069CMAN  06064 WELM1 46/// /0000 11052 40115 90536 222// 0003 333 91212;
0000997707999992012010607004+43317-070550FM-18+0006WELM1V0200101N000519999999N9999999N1-00561+99999101191
0000997707999992012010608004+43317-070550FM-18+0006WELM1V0203201N001019999999N9999999N1-00481+99999101191
0000997707999992012010609004+43317-070550FM-18+0006WELM1V0202801N001019999999N9999999N1-00401+99999101201
0075997707999992012010610004+43317-070550FM-18+0006WELM1V0202501N001019999999N9999999N1-00381+99999101191REMSYN066CMAN  06104 WELM1 46/// /2502 11038 40119 90936 222// 00034 70021;
0088997707999992012010611004+43317-070550FM-18+0006WELM1V0202401N001519999999N9999999N1-00381+99999101201REMSYN079CMAN  06114 WELM1 46/// /2403 11038 40120 91036 222// 00051245 555 11037 22040;
0068997707999992012010612004+43317-070550FM-18+0006WELM1V0202201N001519999999N9999999N1-00351+99999101231REMSYN059CMAN  06124 WELM1 46/// /2203 11035 40123 91136 222// 0005;
0109997707999992012010613004+43317-070550FM-18+0006WELM1V0201701N001019999999N9999999N1-00391+99999101241REMSYN100CMAN  06134 WELM1 46/// /1702 11039 40124 91236 222// 000610308 56000 57803 59003 81812 84362 80856;
0090997707999992012010614004+43317-070550FM-18+0006WELM1V0202901N001019999999N9999999N1-00411+99999101281REMSYN081CMAN  06144 WELM1 46/// /2902 11041 40128 91336 222// 0006 69942 7//44 333 10267;
0000997707999992012010615004+43317-070550FM-18+0006WELM1V0203601N001519999999N9999999N1-00241+99999101211
0068997707999992012010616004+43317-070550FM-18+0006WELM1V0203601N002619999999N9999999N1-00241+99999101131REMSYN059CMAN  06164 WELM1 46/// /3605 11024 40113 91536 222// 0005;
0114997707999992012010617004+43317-070550FM-18+0006WELM1V0200101N002619999999N9999999N1-00101+99999100931REMSYN105CMAN  06174 WELM1 46/// /0105 11010 40093 91636 222// 0005 333 55308 20835 30430 86/18 87/24 91122 91216;
0080997707999992012010618004+43317-070550FM-18+0006WELM1V0203601N004119999999N9999999N1-00111+99999100831REMSYN071CMAN  06184 WELM1 46/// /3608 11011 40083 91736 222// 0003 77172 8807/;
0191997707999992012010619004+43317-070550FM-18+0006WELM1V0203601N003119999999N9999999N1-00151+99999100821REMSYN182CMAN  06194 WELM1 46/// /3606 11015 40082 91836 222// 000391219 555 11015 22016 31837 416022 61859 149015 150017 151016 152015 157 172018 172017 17229107 230111 232110 233109 226115;
0000997707999992012010620004+43317-070550FM-18+0006WELM1V0200101N003119999999N9999999N1-00121+99999100731
0000997707999992012010621004+43317-070550FM-18+0006WELM1V0203601N003619999999N9999999N1-00141+99999100701
0088997707999992012010622004+43317-070550FM-18+0006WELM1V0203401N002619999999N9999999N1-00161+99999100701REMSYN079CMAN  06224 WELM1 46/// /3405 11016 40070 92136 222// 000391214 555 1011 22011;
0080997707999992012010623004+43317-070550FM-18+0006WELM1V0203601N004119999999N9999999N1-00181+99999100681REMSYN071CMAN  06234 WELM1 46/// /3608 11018 40068 92236 222// 0003 222// 00276;
0088997707999992012010700004+43317-070550FM-18+0006WELM1V0203601N003119999999N9999999N1-00211+99999100711REMSYN079CMAN  07004 WELM1 46/// /3606 11021 40071 92336 222// 00051210 555 11007 22008;
0000997707999992012010701004+43317-070550FM-18+0006WELM1V0203601N003619999999N9999999N1-00231+99999100711
0088997707999992012010702004+43317-070550FM-18+0006WELM1V0203301N001519999999N9999999N1-00231+99999100691REMSYN079CMAN  07024 WELM1 46/// /3303 11023 40069 90136 222// 000597 40245 57042 22284;
0078997707999992012010703004+43317-070550FM-18+0006WELM1V0203401N001019999999N9999999N1-00231+99999100701REMSYN069CMAN  07034 WELM1 46/// /3402 11023 40070 90236 222// 0005 333 91212;
0113997707999992012010704004+43317-070550FM-18+0006WELM1V0203501N001519999999N9999999N1-00231+99999100681REMSYN104CMAN  07044 WELM1 46/// /3503 11023 40068 90336 222// 00055 90350 22200 00082 333 91210 555 11079 22083;
0078997707999992012010705004+43317-070550FM-18+0006WELM1V0203301N000519999999N9999999N1-00231+99999100661REMSYN069CMAN  07054 WELM1 46/// /3301 11023 40066 90436 222// 0005 333 91202;
0088997707999992012010706004+43317-070550FM-18+0006WELM1V0203401N001019999999N9999999N1-00251+99999100651REMSYN079CMAN  07064 WELM1 46/// /3402 11025 40065 90536 222// 00041208 555 11007 22007;
0185997707999992012010707004+43317-070550FM-18+0006WELM1V0200301N001019999999N9999999N1-00261+99999100661REMSYN176CMAN  07074 WELM1 46/// /0302 11026 40066 90636 222// 000391211 555 078 10401 20401 70007 333 91210 555 11089 22093 30605 41211 60649 120085 122085 119081 115087 119086 117084;
0078997707999992012010708004+43317-070550FM-18+0006WELM1V0203601N002119999999N9999999N1-00291+99999100681REMSYN069CMAN  07084 WELM1 46/// /3604 11029 40068 90736 222// 0003 333 91208;
0127997707999992012010709004+43317-070550FM-18+0006WELM1V0200101N001519999999N9999999N1-00291+99999100631REMSYN118CMAN  07094 WELM1 46/// /0103 11029 40063 90836 222// 000391213 555 4 70222 885// 22200 04018 20404 321// 40805 81008;
0000997707999992012010710004+43317-070550FM-18+0006WELM1V0200101N001019999999N9999999N1-00301+99999100611
0099997707999992012010711004+43317-070550FM-18+0006WELM1V0200201N001519999999N9999999N1-00321+99999100621REMSYN090CMAN  07114 WELM1 46/// /0203 11032 40062 91036 222// 00035 10805 20805 308// 41101 70024;
0112997707999992012010712004+43317-070550FM-18+0006WELM1V0200201N001519999999N9999999N1-00361+99999100671REMSYN103CMAN  07124 WELM1 46/// /0203 11036 40067 91136 222// 000591222 555  60005 83650 85363 555 380// 50017;
0085997707999992012010713004+43317-070550FM-18+0006WELM1V0203301N002119999999N9999999N1-00361+99999100711REMSYN076CMAN  07134 WELM1 46/// /3304 11036 40071 91236 222// 00052 555 10050 55121;
0000997707999992012010714004+43317-070550FM-18+0006WELM1V0203601N002619999999N9999999N1-00211+99999100681
0000997707999992012010715004+43317-070550FM-18+0006WELM1V0203401N003119999999N9999999N1-00041+99999100711
0000997707999992012010716004+43317-070550FM-18+0006WELM1V0200101N002119999999N9999999N1+00151+99999100581
0000997707999992012010717004+43317-070550FM-18+0006WELM1V0201001N000519999999N9999999N1+00411+99999100471
0074997707999992012010718004+43317-070550FM-18+0006WELM1V0201501N002119999999N9999999N1+00471+99999100401REMSYN065CMAN  07184 WELM1 46/// /1504 10047 40040 91736 222// 0005 80001;
0079997707999992012010719004+43317-070550FM-18+0006WELM1V0201601N002119999999N9999999N1+00481+99999100351REMSYN070CMAN  07194 WELM1 46/// /1604 10048 40035 91836 222// 000491209 555 0;
0088997707999992012010720004+43317-070550FM-18+0006WELM1V0201801N001019999999N9999999N1+00441+99999100401REMSYN079CMAN  07204 WELM1 46/// /1802 10044 40040 91936 222// 00041213 555 11014 22017;
0123997707999992012010721004+43317-070550FM-18+0006WELM1V0209999C000019999999N9999999N1+00431+99999100401REMSYN114CMAN  07214 WELM1 46/// /0000 10043 40040 92036 222// 000491228 555 262 22200 00270 2//// 3//// 4//// 5//// 80225;
0078997707999992012010722004+43317-070550FM-18+0006WELM1V0203201N000519999999N9999999N1+00401+99999100501REMSYN069CMAN  07224 WELM1 46/// /3201 10040 40050 92136 222// 0004 333 91216;
0100997707999992012010723004+43317-070550FM-18+0006WELM1V0203201N001019999999N9999999N1+00331+99999100581REMSYN091CMAN  07234 WELM1 46/// /3202 10033 40058 92236 222// 0004 887// 333 87703 88610 555 6//98;
0000997707999992012010800004+43317-070550FM-18+0006WELM1V0202801N001519999999N9999999N1+00321+99999100611
0078997707999992012010801004+43317-070550FM-18+0006WELM1V0202901N002619999999N9999999N1+00271+99999100691REMSYN069CMAN  08014 WELM1 46/// /2905 10027 40069 90036 222// 0005 333 91206;
0085997707999992012010802004+43317-070550FM-18+0006WELM1V0202701N002119999999N9999999N1+00361+99999100711REMSYN076CMAN  08024 WELM1 46/// /2704 10036 40071 90136 222// 00054 333 20227 70618;
0000997707999992012010803004+43317-070550FM-18+0006WELM1V0203001N002119999999N9999999N1+00371+99999100791
0090997707999992012010804004+43317-070550FM-18+0006WELM1V0202901N001019999999N9999999N1+00391+99999100851REMSYN081CMAN  08044 WELM1 46/// /2902 10039 40085 90336 222// 0005 1//01 70006 333 91213;
0090997707999992012010805004+43317-070550FM-18+0006WELM1V0203201N001519999999N9999999N1+00371+99999100921REMSYN081CMAN  08054 WELM1 46/// /3203 10037 40092 90436 222// 0005 1//01 70006 333 91213;
0157997707999992012010806004+43317-070550FM-18+0006WELM1V0202901N002119999999N9999999N1+00331+99999100981REMSYN148CMAN  08064 WELM1 46/// /2904 10033 40098 90536 222// 00050 222// 00056 333 91212 555 11010 22012 30509 433019 60559 328012 328013 323014 324015 32;
0000997707999992012010807004+43317-070550FM-18+0006WELM1V0203001N002119999999N9999999N1+00211+99999101091
0088997707999992012010808004+43317-070550FM-18+0006WELM1V0202701N003119999999N9999999N1+00251+99999101191REMSYN079CMAN  08084 WELM1 46/// /2706 10025 40119 90736 222// 0004 333 55305 555 0325/;
0093997707999992012010809004+43317-070550FM-18+0006WELM1V0202601N002619999999N9999999N1+00221+99999101221REMSYN084CMAN  08094 WELM1 46/// /2605 10022 40122 90836 222// 00044 22200 00134 10703 70014;
0078997707999992012010810004+43317-070550FM-18+0006WELM1V0202601N002619999999N9999999N1+00151+99999101271REMSYN069CMAN  08104 WELM1 46/// /2605 10015 40127 90936 222// 0004 333 91204;
0078997707999992012010811004+43317-070550FM-18+0006WELM1V0203001N002119999999N9999999N1+00071+99999101391REMSYN069CMAN  08114 WELM1 46/// /3004 10007 40139 91036 222// 0004 333 91208;
0078997707999992012010812004+43317-070550FM-18+0006WELM1V0202701N002119999999N9999999N1+00081+99999101491REMSYN069CMAN  08124 WELM1 46/// /2704 10008 40149 91136 222// 0005 333 91201;
0088997707999992012010813004+43317-070550FM-18+0006WELM1V0202501N002619999999N9999999N1-00011+99999101581REMSYN079CMAN  08134 WELM1 46/// /2505 11001 40158 91236 222// 000576 40306 52003 22272;
0094997707999992012010814004+43317-070550FM-18+0006WELM1V0202801N002119999999N9999999N1+00251+99999101711REMSYN085CMAN  08144 WELM1 46/// /2804 10025 40171 91336 222// 0006 91350 333 8//99 555 7/090;
0088997707999992012010815004+43317-070550FM-18+0006WELM1V0202701N003619999999N9999999N1+00451+99999101771REMSYN079CMAN  08154 WELM1 46/// /2707 10045 40177 91436 222// 00061216 555 11013 22014;
0000997707999992012010816004+43317-070550FM-18+0006WELM1V0203301N004619999999N9999999N1+00481+99999101781
0080997707999992012010817004+43317-070550FM-18+0006WELM1V0203201N004119999999N9999999N1+00451+99999101791REMSYN071CMAN  08174 WELM1 46/// /3208 10045 40179 91636 222// 0005 222// 00239;
0000997707999992012010818004+43317-070550FM-18+0006WELM1V0203201N005719999999N9999999N1+00391+99999101801
0088997707999992012010819004+43317-070550FM-18+0006WELM1V0203201N003119999999N9999999N1+00351+99999101821REMSYN079CMAN  08194 WELM1 46/// /3206 10035 40182 91836 222// 00051207 555 11007 22007;
0088997707999992012010820004+43317-070550FM-18+0006WELM1V0203101N004119999999N9999999N1+00291+99999101881REMSYN079CMAN  08204 WELM1 46/// /3108 10029 40188 91936 222// 000490 40326 52004 22245;
0000997707999992012010821004+43317-070550FM-18+0006WELM1V0203201N003119999999N9999999N1+00201+99999101991
0123997707999992012010822004+43317-070550FM-18+0006WELM1V0203501N002619999999N9999999N1+00161+99999102051REMSYN114CMAN  08224 WELM1 46/// /3505 10016 40205 92136 222// 00040 70200 83225 22200 00270 2//// 3//// 4//// 5//// 80220;
0073997707999992012010823004+43317-070550FM-18+0006WELM1V0203201N001519999999N9999999N1+00081+99999102131REMSYN064CMAN  08234 WELM1 46/// /3203 10008 40213 92236 222// 000483075;
0079997707999992012010900004+43317-070550FM-18+0006WELM1V0203301N003119999999N9999999N1+00041+99999102191REMSYN070CMAN  09004 WELM1 46/// /3306 10004 40219 92336 222// 000482815 85080;
0161997707999992012010901004+43317-070550FM-18+0006WELM1V0203101N002119999999N9999999N1-00011+99999102271REMSYN152CMAN  09014 WELM1 46/// /3104 11001 40227 90036 222// 0005 90100 333 91219 555 11015 22016 30009 402020 60059 012016 013016 014017 011016 017017 019018;
0185997707999992012010902004+43317-070550FM-18+0006WELM1V0203401N002119999999N9999999N1-00111+99999102281REMSYN176CMAN  09024 WELM1 46/// /3404 11011 40228 90136 222// 00050 22200 00079 10701 20301 70003 333 91206 555 11052 22058 30143 40206 60149 015048 005049 007037 048031 079031 035014;
0000997707999992012010903004+43317-070550FM-18+0006WELM1V0203201N004119999999N9999999N1-00161+99999102331
0096997707999992012010904004+43317-070550FM-18+0006WELM1V0203301N004119999999N9999999N1-00231+99999102351REMSYN087CMAN  09044 WELM1 46/// /3308 11023 40235 90336 222// 0005 82538 333 81820 84366 87276;
0090997707999992012010905004+43317-070550FM-18+0006WELM1V0203301N003619999999N9999999N1-00301+99999102361REMSYN081CMAN  09054 WELM1 46/// /3307 11030 40236 90436 222// 0005 77172 8802/ 333 91105;
0000997707999992012010906004+43317-070550FM-18+0006WELM1V0203101N002119999999N9999999N1-00391+99999102381
0191997707999992012010907004+43317-070550FM-18+0006WELM1V0203101N002619999999N9999999N1-00441+99999102391REMSYN182CMAN  09074 WELM1 46/// /3105 11044 40239 90636 222// 00040 22200 00078 11001 326// 41001 70003 333 91204 555 11036 22037 30630 41405 60649 157034 158041 153039 175036 167039 162032;
0078997707999992012010908004+43317-070550FM-18+0006WELM1V0203301N002119999999N9999999N1-00531+99999102451REMSYN069CMAN  09084 WELM1 46/// /3304 11053 40245 90736 222// 0003 333 91210;
0000997707999992012010909004+43317-070550FM-18+0006WELM1V0209999C000019999999N9999999N1-00571+99999102421
0072997707999992012010910004+43317-070550FM-18+0006WELM1V0202901N001519999999N9999999N1-00621+99999102431REMSYN063CMAN  09104 WELM1 46/// /2903 11062 40243 90936 222// 00031208;
0000997707999992012010911004+43317-070550FM-18+0006WELM1V0200101N001019999999N9999999N1-00671+99999102431
0088997707999992012010912004+43317-070550FM-18+0006WELM1V0209999C000019999999N9999999N1-00651+99999102441REMSYN079CMAN  09124 WELM1 46/// /0000 11065 40244 91136 222// 00031219 555 11016 22017;
0000997707999992012010913004+43317-070550FM-18+0006WELM1V0202401N001519999999N9999999N1-00581+99999102441
0088997707999992012010914004+43317-070550FM-18+0006WELM1V0202601N001019999999N9999999N1-00481+99999102441REMSYN079CMAN  09144 WELM1 46/// /2602 11048 40244 91336 222// 00051231 555 11023 22025;
0000997707999992012010915004+43317-070550FM-18+0006WELM1V0202701N001519999999N9999999N1-00341+99999102441
0000997707999992012010916004+43317-070550FM-18+0006WELM1V0201901N002119999999N9999999N1-00111+99999102381
0000997707999992012010917004+43317-070550FM-18+0006WELM1V0201401N002619999999N9999999N1-00051+99999102251
0088997707999992012010918004+43317-070550FM-18+0006WELM1V0201901N002119999999N9999999N1+00131+99999102111REMSYN079CMAN  09184 WELM1 46/// /1904 10013 40211 91736 222// 00051222 555 11016 22017;
0203997707999992012010919004+43317-070550FM-18+0006WELM1V0202501N001519999999N9999999N1+00181+99999102021REMSYN194CMAN  09194 WELM1 46/// /2503 10018 40202 91836 222// 00057 91850 22200 00083 11209 20502 327// 41208 70044 333 91209 555 11073 22078 31753 43010 61849 314070 295067 301071 301071 302066 298070;
0088997707999992012010920004+43317-070550FM-18+0006WELM1V0202401N003119999999N9999999N1+00191+99999101941REMSYN079CMAN  09204 WELM1 46/// /2406 10019 40194 91936 222// 00041210 555 11011 22013;
0072997707999992012010921004+43317-070550FM-18+0006WELM1V0202401N002619999999N9999999N1+00141+99999101931REMSYN063CMAN  09214 WELM1 46/// /2405 10014 40193 92036 222// 00041211;
0191997707999992012010922004+43317-070550FM-18+0006WELM1V0202301N001519999999N9999999N1+00041+99999101891REMSYN182CMAN  09224 WELM1 46/// /2303 10004 40189 92136 222// 00040 92200 333 91215 555 11010 22011 32156 423017 62159 230012 229011 240011 231011 2305037 298042 300055 295052 304035 314035;
0080997707999992012010923004+43317-070550FM-18+0006WELM1V0202401N001019999999N9999999N1-00091+99999101851REMSYN071CMAN  09234 WELM1 46/// /2402 11009 40185 92236 222// 0004 222// 00203;
0191997707999992012011000004+43317-070550FM-18+0006WELM1V0202401N001519999999N9999999N1-00111+99999101811REMSYN182CMAN  10004 WELM1 46/// /2403 11011 40181 92336 222// 000491210 555 156 11703 328// 41703 70013 333 91202 555 11016 22019 32250 43603 62349 335014 356014 358016 002018 356024 358026;
0078997707999992012011001004+43317-070550FM-18+0006WELM1V0202301N002619999999N9999999N1-00051+99999101751REMSYN069CMAN  10014 WELM1 46/// /2305 11005 40175 90036 222// 0004 333 91214;
0078997707999992012011002004+43317-070550FM-18+0006WELM1V0202401N002619999999N9999999N1+00061+99999101691REMSYN069CMAN  10024 WELM1 46/// /2405 10006 40169 90136 222// 0005 333 91204;
0099997707999992012011003004+43317-070550FM-18+0006WELM1V0202601N002619999999N9999999N1+00071+99999101621REMSYN090CMAN  10034 WELM1 46/// /2605 10007 40162 90236 222// 00057 90250 22200 00070 11312 70058;
0085997707999992012011004004+43317-070550FM-18+0006WELM1V0202501N002619999999N9999999N1+00031+99999101511REMSYN076CMAN  10044 WELM1 46/// /2505 10003 40151 90336 222// 00050 333 56000 81640;
0078997707999992012011005004+43317-070550FM-18+0006WELM1V0202501N004119999999N9999999N1+00021+99999101401REMSYN069CMAN  10054 WELM1 46/// /2508 10002 40140 90436 222// 0005 333 91202;
0075997707999992012011006004+43317-070550FM-18+0006WELM1V0202001N001019999999N9999999N1+00001+99999101311REMSYN066CMAN  10064 WELM1 46/// /2002 10000 40131 90536 222// 00052 82208;
0108997707999992012011007004+43317-070550FM-18+0006WELM1V0202201N002619999999N9999999N1-00021+99999101251REMSYN099CMAN  10074 WELM1 46/// /2205 11002 40125 90636 222// 0005 69981 888// 333 0//0/ 81817 88640 924/8;
0191997707999992012011008004+43317-070550FM-18+0006WELM1V0202401N001019999999N9999999N1+00031+99999101191REMSYN182CMAN  10084 WELM1 46/// /2402 10003 40119 90736 222// 00040 22200 00141 11904 331// 41904 70018 333 91201 555 11004 22004 30654 43202 60749 307004 315003 001007 009008 339006 339006;
0076997707999992012011009004+43317-070550FM-18+0006WELM1V0202401N003119999999N9999999N1+00081+99999101101REMSYN067CMAN  10094 WELM1 46/// /2406 10008 40110 90836 222// 0003 7 82246;
0000997707999992012011010004+43317-070550FM-18+0006WELM1V0202301N003119999999N9999999N1+00141+99999101001
0102997707999992012011011004+43317-070550FM-18+0006WELM1V0202201N004119999999N9999999N1+00081+99999100911REMSYN093CMAN  10114 WELM1 46/// /2208 10008 40091 91036 222// 0003 888// 91050 333 58008 84804 88622;
0076997707999992012011012004+43317-070550FM-18+0006WELM1V0202101N002119999999N9999999N1-00021+99999100841REMSYN067CMAN  10124 WELM1 46/// /2104 11002 40084 91136 222// 00035/ 52062;
0082997707999992012011013004+43317-070550FM-18+0006WELM1V0202301N001519999999N9999999N1-00061+99999100811REMSYN073CMAN  10134 WELM1 46/// /2303 11006 40081 91236 222// 000463 00025 20000;
0078997707999992012011014004+43317-070550FM-18+0006WELM1V0202601N004619999999N9999999N1+00091+99999100861REMSYN069CMAN  10144 WELM1 46/// /2609 10009 40086 91336 222// 0005 333 91226;
0075997707999992012011015004+43317-070550FM-18+0006WELM1V0202801N002619999999N9999999N1+00081+99999100841REMSYN066CMAN  10154 WELM1 46/// /2805 10008 40084 91436 222// 00051 70055;
0191997707999992012011016004+43317-070550FM-18+0006WELM1V0202601N002619999999N9999999N1+00131+99999100791REMSYN182CMAN  10164 WELM1 46/// /2605 10013 40079 91536 222// 000591229 555 136 11705 300// 41705 70026 333 91203 555 11021 22021 31528 42704 61549 274021 276023 275023 274022 274019 277017;
0000997707999992012011017004+43317-070550FM-18+0006WELM1V0202701N003119999999N9999999N1+00231+99999100681
0000997707999992012011018004+43317-070550FM-18+0006WELM1V0203101N003119999999N9999999N1+00351+99999100581
0078997707999992012011019004+43317-070550FM-18+0006WELM1V0202801N003619999999N9999999N1+00591+99999100551REMSYN069CMAN  10194 WELM1 46/// /2807 10059 40055 91836 222// 0005 333 91216;
0000997707999992012011020004+43317-070550FM-18+0006WELM1V0203001N003119999999N9999999N1+00621+99999100551
0068997707999992012011021004+43317-070550FM-18+0006WELM1V0203101N003619999999N9999999N1+00611+99999100601REMSYN059CMAN  10214 WELM1 46/// /3107 10061 40060 92036 222// 0004;
0161997707999992012011022004+43317-070550FM-18+0006WELM1V0203201N003119999999N9999999N1+00491+99999100741REMSYN152CMAN  10224 WELM1 46/// /3206 10049 40074 92136 222// 0004 92200 333 91225 555 11020 22021 32146 430026 62159 300021 302022 296020 294019 286019 286018;
0000997707999992012011023004+43317-070550FM-18+0006WELM1V0202601N002619999999N9999999N1+00451+99999100871
0000997707999992012011100004+43317-070550FM-18+0006WELM1V0202901N002619999999N9999999N1+00431+99999100941
0000997707999992012011101004+43317-070550FM-18+0006WELM1V0202501N002119999999N9999999N1+00341+99999100941
0096997707999992012011102004+43317-070550FM-18+0006WELM1V0203001N002119999999N9999999N1+00261+99999101011REMSYN087CMAN  11024 WELM1 46/// /3004 10026 40101 90136 222// 0004 60004 70411 81107 333 70000;
0088997707999992012011103004+43317-070550FM-18+0006WELM1V0203101N005119999999N9999999N1+00261+99999101071REMSYN079CMAN  11034 WELM1 46/// /3110 10026 40107 90236 222// 000566 40373 57004 22274;
0104997707999992012011104004+43317-070550FM-18+0006WELM1V0203001N003119999999N9999999N1+00181+99999101161REMSYN095CMAN  11044 WELM1 46/// /3006 10018 40116 90336 222// 0005 59009 70544 81922 82620 82935 85361;
0068997707999992012011105004+43317-070550FM-18+0006WELM1V0202901N003619999999N9999999N1+00111+99999101181REMSYN059CMAN  11054 WELM1 46/// /2907 10011 40118 90436 222// 0005;
0134997707999992012011106004+43317-070550FM-18+0006WELM1V0203001N003119999999N9999999N1+00051+99999101291REMSYN125CMAN  11064 WELM1 46/// /3006 10005 40129 90536 222// 000591214 555 03 70211 82/// 22273 00280 20301 321// 41002 5//// 80250;
0000997707999992012011107004+43317-070550FM-18+0006WELM1V0203101N002619999999N9999999N1-00031+99999101381
0088997707999992012011108004+43317-070550FM-18+0006WELM1V0203001N001019999999N9999999N1-00121+99999101481REMSYN079CMAN  11084 WELM1 46/// /3002 11012 40148 90736 222// 00041212 555 11006 22006;
0000997707999992012011109004+43317-070550FM-18+0006WELM1V0200101N002619999999N9999999N1-00271+99999101481
0078997707999992012011110004+43317-070550FM-18+0006WELM1V0203501N003119999999N9999999N1-00331+99999101541REMSYN069CMAN  11104 WELM1 46/// /3506 11033 40154 90936 222// 0003 333 91227;
0072997707999992012011111004+43317-070550FM-18+0006WELM1V0202601N002119999999N9999999N1-00371+99999101651REMSYN063CMAN  11114 WELM1 46/// /2604 11037 40165 91036 222// 00031131;
0078997707999992012011112004+43317-070550FM-18+0006WELM1V0200201N000519999999N9999999N1-00481+99999101711REMSYN069CMAN  11124 WELM1 46/// /0201 11048 40171 91136 222// 0003 333 91227;
0107997707999992012011113004+43317-070550FM-18+0006WELM1V0202801N001019999999N9999999N1-00451+99999101841REMSYN098CMAN  11134 WELM1 46/// /2802 11045 40184 91236 222// 0003/ 333 11054 21161 4/031 70052 555 10080;
0088997707999992012011114004+43317-070550FM-18+0006WELM1V0203601N002119999999N9999999N1-00411+99999101931REMSYN079CMAN  11144 WELM1 46/// /3604 11041 40193 91336 222// 00041222 555 11019 22020;
0090997707999992012011115004+43317-070550FM-18+0006WELM1V0203401N001519999999N9999999N1-00311+99999102011REMSYN081CMAN  11154 WELM1 46/// /3403 11031 40201 91436 222// 0005 1//04 70021 333 91235;
0076997707999992012011116004+43317-070550FM-18+0006WELM1V0209999C000019999999N9999999N1-00061+99999102031REMSYN067CMAN  11164 WELM1 46/// /0000 11006 40203 91536 222// 000502 57019;
0094997707999992012011117004+43317-070550FM-18+0006WELM1V0201101N003119999999N9999999N1-00141+99999101941REMSYN085CMAN  11174 WELM1 46/// /1106 11014 40194 91636 222// 000591215 555  8//99 555 7/090;
0082997707999992012011118004+43317-070550FM-18+0006WELM1V0201001N003619999999N9999999N1-00121+99999101931REMSYN073CMAN  11184 WELM1 46/// /1007 11012 40193 91736 222// 000584 40362 22275;
0104997707999992012011119004+43317-070550FM-18+0006WELM1V0201401N003619999999N9999999N1-00051+99999101921REMSYN095CMAN  11194 WELM1 46/// /1407 11005 40192 91836 222// 0005 40314 52002 22200 00135 10401 70004;
0000997707999992012011120004+43317-070550FM-18+0006WELM1V0201301N003119999999N9999999N1-00071+99999101981
0208997707999992012011121004+43317-070550FM-18+0006WELM1V0201101N003619999999N9999999N1-00071+99999102021REMSYN199CMAN  11214 WELM1 46/// /1107 11007 40202 92042 222// 000491222 555 11017 22018 32012 410027 62059 096019 094016 092016 094020 0902 332003 33030 40605 62049 079034 071036 068034 077032 083033 078038;
0094997707999992012011122004+43317-070550FM-18+0006WELM1V0201301N003619999999N9999999N1-00051+99999102041REMSYN085CMAN  11224 WELM1 46/// /1307 11005 40204 92136 222// 0003 92150 333 8//99 555 7/090;
0203997707999992012011123004+43317-070550FM-18+0006WELM1V0201201N004119999999N9999999N1-00041+99999102041REMSYN194CMAN  11234 WELM1 46/// /1208 11004 40204 92236 222// 00047 92250 22200 00074 10502 20501 3//// 40501 70008 333 91207 555 11055 22057 32249 40707 62249 079053 078053 078049 085047 081044 079039;
0000997707999992012011200004+43317-070550FM-18+0006WELM1V0201201N003619999999N9999999N1-00011+99999102061
0072997707999992012011201004+43317-070550FM-18+0006WELM1V0201301N004119999999N9999999N1+00011+99999102051REMSYN063CMAN  12014 WELM1 46/// /1308 10001 40205 90036 222// 00041208;
0078997707999992012011202004+43317-070550FM-18+0006WELM1V0201201N004119999999N9999999N1+00041+99999102031REMSYN069CMAN  12024 WELM1 46/// /1208 10004 40203 90136 222// 0004 333 91208;
0072997707999992012011203004+43317-070550FM-18+0006WELM1V0201301N005119999999N9999999N1+00091+99999102031REMSYN063CMAN  12034 WELM1 46/// /1310 10009 40203 90236 222// 00051212;
0078997707999992012011204004+43317-070550FM-18+0006WELM1V0201301N005119999999N9999999N1+00131+99999102001REMSYN069CMAN  12044 WELM1 46/// /1310 10013 40200 90336 222// 0005 333 91208;
0098997707999992012011205004+43317-070550FM-18+0006WELM1V0201301N005719999999N9999999N1+00171+99999101931REMSYN089CMAN  12054 WELM1 46/// /1311 10017 40193 90436 222// 0005 21182 39828 49883 5//// 90430;
0072997707999992012011206004+43317-070550FM-18+0006WELM1V0201201N005719999999N9999999N1+00201+99999101871REMSYN063CMAN  12064 WELM1 46/// /1211 10020 40187 90536 222// 00051208;
0109997707999992012011207004+43317-070550FM-18+0006WELM1V0201201N006219999999N9999999N1+00221+99999101891REMSYN100CMAN  12074 WELM1 46/// /1212 10022 40189 90636 222// 00050//00 20170 5//// ///// 55/// 58001 86075;
0088997707999992012011208004+43317-070550FM-18+0006WELM1V0201101N006719999999N9999999N1+00241+99999101801REMSYN079CMAN  12084 WELM1 46/// /1113 10024 40180 90736 222// 00041223 555 11017 22018;
0000997707999992012011209004+43317-070550FM-18+0006WELM1V0201101N006719999999N9999999N1+00241+99999101731
0000997707999992012011210004+43317-070550FM-18+0006WELM1V0201001N006719999999N9999999N1+00251+99999101671
0000997707999992012011211004+43317-070550FM-18+0006WELM1V0201001N008719999999N9999999N1+00261+99999101621
0078997707999992012011212004+43317-070550FM-18+0006WELM1V0200901N008719999999N9999999N1+00121+99999101531REMSYN069CMAN  12124 WELM1 46/// /0917 10012 40153 91136 222// 0003 333 91206;
0112997707999992012011213004+43317-070550FM-18+0006WELM1V0200901N009819999999N9999999N1+00111+99999101431REMSYN103CMAN  12134 WELM1 46/// /0919 10011 40143 91236 222// 000350 40072 717// 887// 22200 02290 2//// 80260;
0094997707999992012011214004+43317-070550FM-18+0006WELM1V0200901N009319999999N9999999N1+00141+99999101321REMSYN085CMAN  12144 WELM1 46/// /0918 10014 40132 91336 222// 0003 91350 333 8//99 555 7/090;
0141997707999992012011215004+43317-070550FM-18+0006WELM1V0200901N010819999999N9999999N1+00181+99999101231REMSYN132CMAN  12154 WELM1 46/// /0921 10018 40123 91436 222// 0004025 70222 886// 22254 00160 2//// 33212 4//// 5//// 6//// 80120 ICE /////;
0134997707999992012011216004+43317-070550FM-18+0006WELM1V0200601N006719999999N9999999N1+00131+99999100981REMSYN125CMAN  12164 WELM1 46/// /0613 10013 40098 91536 222// 0005 40174 51035 70322 86300 22200 00280 2//// 3//// 4//// 5//// 80225;
0080997707999992012011217004+43317-070550FM-18+0006WELM1V0200201N005719999999N9999999N1-00181+99999100771REMSYN071CMAN  12174 WELM1 46/// /0211 11018 40077 91636 222// 0005 222// 00275;
0085997707999992012011218004+43317-070550FM-18+0006WELM1V0200201N007219999999N9999999N1-00261+99999100551REMSYN076CMAN  12184 WELM1 46/// /0214 11026 40055 91736 222// 00050 333 569// 81815;
0073997707999992012011219004+43317-070550FM-18+0006WELM1V0200401N007219999999N9999999N1-00221+99999100391REMSYN064CMAN  12194 WELM1 46/// /0414 11022 40039 91836 222// 000586275;
0090997707999992012011220004+43317-070550FM-18+0006WELM1V0200301N007219999999N9999999N1-00191+99999100311REMSYN081CMAN  12204 WELM1 46/// /0314 11019 40031 91936 222// 0004 1//03 70014 333 91231;
0000997707999992012011221004+43317-070550FM-18+0006WELM1V0200301N007219999999N9999999N1-00191+99999100171
0078997707999992012011222004+43317-070550FM-18+0006WELM1V0200201N008219999999N9999999N1-00141+99999100141REMSYN069CMAN  12224 WELM1 46/// /0216 11014 40014 92136 222// 0002 333 91222;
0078997707999992012011223004+43317-070550FM-18+0006WELM1V0200101N006219999999N9999999N1-00161+99999100011REMSYN069CMAN  12234 WELM1 46/// /0112 11016 40001 92236 222// 0001 333 91219;
0000997707999992012011300004+43317-070550FM-18+0006WELM1V0203601N004119999999N9999999N1-00211+99999099971
0000997707999992012011301004+43317-070550FM-18+0006WELM1V0203601N003119999999N9999999N1-00201+99999099951
0197997707999992012011302004+43317-070550FM-18+0006WELM1V0203601N003119999999N9999999N1-00211+99999099991REMSYN188CMAN  13024 WELM1 46/// /3606 11021 49999 90136 222// 00006 90150 22200 00079 11403 328// 41403 70015 333 91205 555 11036 22038 30149 41105 60149 105033 110025 105014 120020 126020 133015;
0000997707999992012011303004+43317-070550FM-18+0006WELM1V0203601N002619999999N9999999N1-00211+99999100031
0097997707999992012011304004+43317-070550FM-18+0006WELM1V0203601N002119999999N9999999N1-00231+99999100001REMSYN088CMAN  13044 WELM1 46/// /3604 11023 40000 90336 222// 00050 0//// 1//// 70/// 333 91214;
0000997707999992012011305004+43317-070550FM-18+0006WELM1V02099999999999999999N9999999N1-00231+99999100011
0085997707999992012011306004+43317-070550FM-18+0006WELM1V0203401N001519999999N9999999N1-00231+99999100051REMSYN076CMAN  13064 WELM1 46/// /3403 11023 40005 90536 222// 000591209 55 TIDE1144;
0072997707999992012011307004+43317-070550FM-18+0006WELM1V0203401N001019999999N9999999N1-00231+99999100061REMSYN063CMAN  13074 WELM1 46/// /3402 11023 40006 90636 222// 00051226;
0077997707999992012011308004+43317-070550FM-18+0006WELM1V0200101N000519999999N9999999N1-00241+99999100061REMSYN068CMAN  13084 WELM1 46/// /0101 11024 40006 90736 222// 0005015 22263;
0120997707999992012011309004+43317-070550FM-18+0006WELM1V0209999C000019999999N9999999N1-00251+99999100061REMSYN111CMAN  13094 WELM1 46/// /0000 11025 40006 90836 222// 0004 333 55300 20000 30000 84/26 87/36 87/56 91123 91216;
0000997707999992012011310004+43317-070550FM-18+0006WELM1V0209999C000019999999N9999999N1-00261+99999100041
0079997707999992012011311004+43317-070550FM-18+0006WELM1V0200501N000519999999N9999999N1-00271+99999099961REMSYN070CMAN  13114 WELM1 46/// /0501 11027 49996 91036 222// 0002555 2 555 8;
0000997707999992012011312004+43317-070550FM-18+0006WELM1V0200301N001519999999N9999999N1-00311+99999099831
0068997707999992012011313004+43317-070550FM-18+0006WELM1V0200301N001519999999N9999999N1-00321+99999099731REMSYN059CMAN  13134 WELM1 46/// /0303 11032 49973 91242 222// 0002;
0134997707999992012011314004+43317-070550FM-18+0006WELM1V0200301N001519999999N9999999N1-00171+99999099391REMSYN125CMAN  13144 WELM1 46/// /0303 11017 49939 91430 222// 000291209 555 50200 71424 80 22262 02255 20402 30700 40803 50000 80227;
0155997707999992012011315004+43317-070550FM-18+0006WELM1V0200201N001519999999N9999999N1-00181+99999099381REMSYN146CMAN  13154 WELM1 46/// /0203 11018 49938 91436 222// 000491222 555 9 555 11012 22013 31404 436025 61459 004013 002012 004012 004013 00004 016015;
0079997707999992012011316004+43317-070550FM-18+0006WELM1V0200201N001519999999N9999999N1-00011+99999099091REMSYN070CMAN  13164 WELM1 46/// /0203 11001 49909 91536 222// 000583614 87365;
0099997707999992012011317004+43317-070550FM-18+0006WELM1V0200201N004119999999N9999999N1+00061+99999098761REMSYN090CMAN  13174 WELM1 46/// /0208 10006 49876 91636 222// 00053 10904 20904 308// 41102 70020;
0157997707999992012011318004+43317-070550FM-18+0006WELM1V0203301N003619999999N9999999N1+00041+99999098531REMSYN148CMAN  13184 WELM1 46/// /3307 10004 49853 91736 222// 000591221 555 11018 22019 31754 409023 61759 085019 085015 089015 086017 088 263026 263023 25;
0079997707999992012011319004+43317-070550FM-18+0006WELM1V0202601N005119999999N9999999N1+00451+99999098461REMSYN070CMAN  13194 WELM1 46/// /2610 10045 49846 91836 222// 000555 TIDE1119;
0191997707999992012011320004+43317-070550FM-18+0006WELM1V0202601N007219999999N9999999N1+00451+99999098601REMSYN182CMAN  13204 WELM1 46/// /2614 10045 49860 91936 222// 00050 22200 00153 11202 330// 41202 70010 333 91204 555 11034 22039 31908 40504 61949 033030 033026 042034 046038 050036 057035;
0088997707999992012011321004+43317-070550FM-18+0006WELM1V0202501N005119999999N9999999N1+00301+99999098701REMSYN079CMAN  13214 WELM1 46/// /2510 10030 49870 92036 222// 00051227 555 11023 22025;
0082997707999992012011322004+43317-070550FM-18+0006WELM1V0202601N005719999999N9999999N1+00241+99999098861REMSYN073CMAN  13224 WELM1 46/// /2611 10024 49886 92136 222// 0004/ 1//01 700016;
0000997707999992012011323004+43317-070550FM-18+0006WELM1V0202601N007719999999N9999999N1+00111+99999099041
0215997707999992012011400004+43317-070550FM-18+0006WELM1V0202601N007719999999N9999999N1+00041+99999099151REMSYN206CMAN  14004 WELM1 46/// /2615 10004 49915 92336 222// 00030 92350 22200 00035 10502 20401 300// 40502 70012 333 91207 555 11049 22051 32251 42908 62349 291049 284059 277058 263061 267067 269063 82607 92308;
0000997707999992012011401004+43317-070550FM-18+0006WELM1V0202501N006719999999N9999999N1-00061+99999099271
0150997707999992012011402004+43317-070550FM-18+0006WELM1V0202601N009819999999N9999999N1-00141+99999099371REMSYN141CMAN  14024 WELM1 46/// /2619 11014 49937 90136 222// 0002 40140 52030 70200 842// 22273 0//// 20403 399// 40406 5//// 6//// 80240 ICE /////;
0000997707999992012011403004+43317-070550FM-18+0006WELM1V0202501N007219999999N9999999N1-00131+99999099421
0000997707999992012011404004+43317-070550FM-18+0006WELM1V0202601N006219999999N9999999N1-00111+99999099501
0149997707999992012011405004+43317-070550FM-18+0006WELM1V0202601N004619999999N9999999N1-00051+99999099621REMSYN140CMAN  14054 WELM1 46/// /2609 11005 49962 90436 222// 000591230 555 0 70200 8313/ 22243 00090 20601 329// 40803 5//// 6//// 80070 ICE /////;
0138997707999992012011406004+43317-070550FM-18+0006WELM1V0202401N003619999999N9999999N1-00031+99999099741REMSYN129CMAN  14064 WELM1 46/// /2407 11003 49974 90536 222// 0005 7//22 868// 22255 00200 2//// 3//// 4//// 5//// 6//// 80150 ICE /////;
0078997707999992012011407004+43317-070550FM-18+0006WELM1V0202301N004619999999N9999999N1-00011+99999099871REMSYN069CMAN  14074 WELM1 46/// /2309 11001 49987 90636 222// 0005 333 91206;
0085997707999992012011408004+43317-070550FM-18+0006WELM1V0202401N003619999999N9999999N1+00011+99999099991REMSYN076CMAN  14084 WELM1 46/// /2407 10001 49999 90736 222// 000591229 555 5 55083;
0000997707999992012011409004+43317-070550FM-18+0006WELM1V0202301N004119999999N9999999N1+00001+99999100081
0000997707999992012011410004+43317-070550FM-18+0006WELM1V0202501N004119999999N9999999N1-00071+99999100141
0110997707999992012011411004+43317-070550FM-18+0006WELM1V0202801N004619999999N9999999N1-00101+99999100221REMSYN101CMAN  14114 WELM1 46/// /2809 11010 40022 91036 222// 0003 70100 8310/ 22223 00279 2//// 308// 40301;
0000997707999992012011412004+43317-070550FM-18+0006WELM1V0202801N004619999999N9999999N1-00101+99999100291
0078997707999992012011413004+43317-070550FM-18+0006WELM1V0202801N002119999999N9999999N1-00141+99999100401REMSYN069CMAN  14134 WELM1 46/// /2804 11014 40040 91236 222// 0002 333 91208;
0000997707999992012011414004+43317-070550FM-18+0006WELM1V0202901N003119999999N9999999N1-00061+99999100501
0114997707999992012011415004+43317-070550FM-18+0006WELM1V0203201N004619999999N9999999N1-00121+99999100611REMSYN105CMAN  14154 WELM1 46/// /3209 11012 40061 91436 222// 0003 8442/ 91440 333 30/// 5688/ 58030 84640 84458;
0000997707999992012011416004+43317-070550FM-18+0006WELM1V0203001N005119999999N9999999N1-00231+99999100651
0099997707999992012011417004+43317-070550FM-18+0006WELM1V0203101N006219999999N9999999N1-00291+99999100641REMSYN090CMAN  14174 WELM1 46/// /3112 11029 40064 91636 222// 00045 91650 22200 00065 11206 70031;
0191997707999992012011418004+43317-070550FM-18+0006WELM1V0203101N009319999999N9999999N1-00321+99999100601REMSYN182CMAN  14184 WELM1 46/// /3118 11032 40060 91736 222// 00050 22200 00150 11503 327// 41503 70013 333 91202 555 11018 22018 31732 42104 61749 215018 207024 200027 196022 200025 202023;
0000997707999992012011419004+43317-070550FM-18+0006WELM1V0203201N006719999999N9999999N1-00321+99999100641
0088997707999992012011420004+43317-070550FM-18+0006WELM1V0203201N007219999999N9999999N1-00361+99999100711REMSYN079CMAN  14204 WELM1 46/// /3214 11036 40071 91936 222// 0005/ 1//01 700019 22020;
0000997707999992012011421004+43317-070550FM-18+0006WELM1V0203201N006719999999N9999999N1-00461+99999100871
0115997707999992012011422004+43317-070550FM-18+0006WELM1V0203101N007219999999N9999999N1-00591+99999100961REMSYN106CMAN  14224 WELM1 46/// /3114 11059 40096 92136 222// 00046 333 56000 57902 69987 81919 80976 83820 80850;
0090997707999992012011423004+43317-070550FM-18+0006WELM1V0203101N003619999999N9999999N1-00691+99999101071REMSYN081CMAN  14234 WELM1 46/// /3107 11069 40107 92236 222// 0003 1//00 70002 333 91205;
0191997707999992012011500004+43317-070550FM-18+0006WELM1V0203101N004619999999N9999999N1-00781+99999101171REMSYN182CMAN  15004 WELM1 46/// /3109 11078 40117 92336 222// 00029 92350 22200 00093 10503 20503 70017 333 91214 555 11117 22123 32336 42914 62349 304108 298109 304111 306105 298106 298103;
0072997707999992012011501004+43317-070550FM-18+0006WELM1V0203301N004619999999N9999999N1-00841+99999101231REMSYN063CMAN  15014 WELM1 46/// /3309 11084 40123 90036 222// 00020005;
0079997707999992012011502004+43317-070550FM-18+0006WELM1V0203201N004119999999N9999999N1-00911+99999101261REMSYN070CMAN  15024 WELM1 46/// /3208 11091 40126 90136 222// 000291205 555 6;
0079997707999992012011503004+43317-070550FM-18+0006WELM1V0203201N004619999999N9999999N1-01001+99999999999REMSYN070CMAN  15034 WELM1 46/// /3209 11100 90236 222// 0002/ 000491205 555 2;
0191997707999992012011504004+43317-070550FM-18+0006WELM1V0203301N003619999999N9999999N1-01091+99999999999REMSYN182CMAN  15044 WELM1 46/// /3307 11109 90336 222// 0002/ 00040 90400 333 91223 555 11019 22020 30326 434029 60359 349021 349020 344019 344021 3487112 285097 290101 293102 289101 289107;
0078997707999992012011505004+43317-070550FM-18+0006WELM1V0203201N003619999999N9999999N1-01191+99999999999REMSYN069CMAN  15054 WELM1 46/// /3207 11119 90436 222// 0003/ 0004 333 91217;
0134997707999992012011506004+43317-070550FM-18+0006WELM1V0203201N003119999999N9999999N1-01271+99999999999REMSYN125CMAN  15064 WELM1 46/// /3206 11127 90536 222// 0004/ 000491231 555 06 70111 821/2 22224 00276 20401 305// 40302 5//// 80250;
0000997707999992012011507004+43317-070550FM-18+0006WELM1V0203301N002619999999N9999999N1-01351+99999999999
0104997707999992012011508004+43317-070550FM-18+0006WELM1V0203301N002619999999N9999999N1-01411+99999999999REMSYN095CMAN  15084 WELM1 46/// /3305 11141 90736 222// 0004/ 0004 40176 52004 22200 00134 10401 70005;
0088997707999992012011509004+43317-070550FM-18+0006WELM1V0203101N002619999999N9999999N1-01531+99999999999REMSYN079CMAN  15094 WELM1 46/// /3105 11153 90836 222// 0004/ 00041230 555 11025 22027;
0068997707999992012011510004+43317-070550FM-18+0006WELM1V0203101N002119999999N9999999N1-01621+99999999999REMSYN059CMAN  15104 WELM1 46/// /3104 11162 90936 222// 0004/ 0004;
0073997707999992012011511004+43317-070550FM-18+0006WELM1V0203201N002619999999N9999999N1-01651+99999999999REMSYN064CMAN  15114 WELM1 46/// /3205 11165 91036 222// 0003/ 00046//72;
0082997707999992012011512004+43317-070550FM-18+0006WELM1V0203101N002619999999N9999999N1-01721+99999999999REMSYN073CMAN  15124 WELM1 46/// /3105 11172 91136 222// 0002/ 000491227 555 0009;
0085997707999992012011513004+43317-070550FM-18+0006WELM1V0203101N002619999999N9999999N1-01681+99999999999REMSYN076CMAN  15134 WELM1 46/// /3105 11168 91236 222// 0000/ 000491207 55 TIDE1111;
0072997707999992012011514004+43317-070550FM-18+0006WELM1V0203201N002619999999N9999999N1-01561+99999999999REMSYN063CMAN  15144 WELM1 46/// /3205 11156 91336 222// 0000/ 00041213;
0079997707999992012011515004+43317-070550FM-18+0006WELM1V0203501N004119999999N9999999N1-01361+99999999999REMSYN070CMAN  15154 WELM1 46/// /3508 11136 91436 222// 0000/ 000481818 87080;
0000997707999992012011516004+43317-070550FM-18+0006WELM1V0203501N005119999999N9999999N1-01281+99999999999
0076997707999992012011517004+43317-070550FM-18+0006WELM1V0203501N004619999999N9999999N1-01131+99999999999REMSYN067CMAN  15174 WELM1 46/// /3509 11113 91636 222// 0000/ 000405 22213;
0078997707999992012011518004+43317-070550FM-18+0006WELM1V0203201N004619999999N9999999N1-01021+99999999999REMSYN069CMAN  15184 WELM1 46/// /3209 11102 91736 222// 0004/ 0004 333 91206;
0000997707999992012011519004+43317-070550FM-18+0006WELM1V0203001N003619999999N9999999N1-00931+99999999999
0078997707999992012011520004+43317-070550FM-18+0006WELM1V0203001N005719999999N9999999N1-00951+99999102431REMSYN069CMAN  15204 WELM1 46/// /3011 11095 40243 91936 222// 0004 333 91214;
0000997707999992012011521004+43317-070550FM-18+0006WELM1V0203001N004619999999N9999999N1-00981+99999102531
0088997707999992012011522004+43317-070550FM-18+0006WELM1V0203201N004619999999N9999999N1-01131+99999999999REMSYN079CMAN  15224 WELM1 46/// /3209 11113 92136 222// 0004/ 00041227 555 11022 22024;
0139997707999992012011523004+43317-070550FM-18+0006WELM1V0203201N004119999999N9999999N1-01241+99999999999REMSYN130CMAN  15234 WELM1 46/// /3208 11124 92236 222// 0003/ 00040 7//62 8//// 22243 00283 2//// 3//// 4//// 5//// 6//// 80245 ICE /////;
0000997707999992012011600004+43317-070550FM-18+0006WELM1V0203101N002619999999N9999999N1-01311+99999999999
0000997707999992012011601004+43317-070550FM-18+0006WELM1V0202901N002119999999N9999999N1-01391+99999999999
0000997707999992012011602004+43317-070550FM-18+0006WELM1V0202701N001519999999N9999999N1-01431+99999999999
0000997707999992012011603004+43317-070550FM-18+0006WELM1V0202601N001019999999N9999999N1-01481+99999999999
0000997707999992012011604004+43317-070550FM-18+0006WELM1V0202901N000519999999N9999999N1-01501+99999999999
0000997707999992012011605004+43317-070550FM-18+0006WELM1V0203001N000519999999N9999999N1-01601+99999999999
0157997707999992012011606004+43317-070550FM-18+0006WELM1V0203301N001519999999N9999999N1-01621+99999999999REMSYN148CMAN  16064 WELM1 46/// /3303 11162 90536 222// 0003/ 00030 222// 00044 333 91209 555 11008 22008 30525 406011 60559 062009 062009 058009 058009 05;
0000997707999992012011607004+43317-070550FM-18+0006WELM1V0203001N001019999999N9999999N1-01601+99999999999
0191997707999992012011608004+43317-070550FM-18+0006WELM1V0202801N001019999999N9999999N1-01581+99999999999REMSYN182CMAN  16084 WELM1 46/// /2802 11158 90736 222// 0004/ 000391219 555 11015 22016 30725 436022 60759 003014 004016 003015 000016 0022 341022 3449085 342085 357088 350087 348089 342092;
0160997707999992012011609004+43317-070550FM-18+0006WELM1V0203101N001519999999N9999999N1-01601+99999999999REMSYN151CMAN  16094 WELM1 46/// /3103 11160 90836 222// 0004/ 000391205 555 11004 22004 30815 418007 60859 155004 157004 155005 157006 167 084007 084007 08180;
0068997707999992012011610004+43317-070550FM-18+0006WELM1V0203101N000519999999N9999999N1-01541+99999999999REMSYN059CMAN  16104 WELM1 46/// /3101 11154 90936 222// 0004/ 0003;
0108997707999992012011611004+43317-070550FM-18+0006WELM1V0202901N002119999999N9999999N1-01571+99999999999REMSYN099CMAN  16114 WELM1 46/// /2904 11157 91054 222// 0003/ 0003/ 0019 22200 00023 10805 70025 333 91216;
0078997707999992012011612004+43317-070550FM-18+0006WELM1V0202801N001019999999N9999999N1-01581+99999999999REMSYN069CMAN  16124 WELM1 46/// /2802 11158 91136 222// 0002/ 0003 333 91205;
0088997707999992012011613004+43317-070550FM-18+0006WELM1V0203001N000519999999N9999999N1-01541+99999999999REMSYN079CMAN  16134 WELM1 46/// /3001 11154 91236 222// 0000/ 00031226 555 11023 22025;
0080997707999992012011614004+43317-070550FM-18+0006WELM1V0203101N002119999999N9999999N1-01361+99999999999REMSYN071CMAN  16144 WELM1 46/// /3104 11136 91336 222// 0100/ 0003 22200 00062;
0197997707999992012011615004+43317-070550FM-18+0006WELM1V0202901N001019999999N9999999N1-01071+99999999999REMSYN188CMAN  16154 WELM1 46/// /2902 11107 91436 222// 0100/ 000391225 555 084 11307 20502 331// 41306 70033 333 91207 555 11056 22058 31432 42507 61449 244054 251060 257026 273047 268039 325016;
0000997707999992012011616004+43317-070550FM-18+0006WELM1V0203201N001019999999N9999999N1-00811+99999999999
0078997707999992012011617004+43317-070550FM-18+0006WELM1V0201601N002619999999N9999999N1-00561+99999103131REMSYN069CMAN  16174 WELM1 46/// /1605 11056 40313 91636 222// 0100 333 91208;
0072997707999992012011618004+43317-070550FM-18+0006WELM1V0201901N003619999999N9999999N1-00421+99999102991REMSYN063CMAN  16184 WELM1 46/// /1907 11042 40299 91736 222// 01001222;
0000997707999992012011619004+43317-070550FM-18+0006WELM1V0201901N005719999999N9999999N1-00321+99999102861
0088997707999992012011620004+43317-070550FM-18+0006WELM1V0202101N004119999999N9999999N1-00311+99999102771REMSYN079CMAN  16204 WELM1 46/// /2108 11031 40277 91936 222// 00041230 555 11024 22026;
0000997707999992012011621004+43317-070550FM-18+0006WELM1V0202301N002119999999N9999999N1-00331+99999102671
0121997707999992012011622004+43317-070550FM-18+0006WELM1V0202301N003619999999N9999999N1-00311+99999102591REMSYN112CMAN  16224 WELM1 46/// /2307 11031 40259 92136 222// 000440245 54/// 86281 22273 00170 20100 301// 40100 80160;
0155997707999992012011623004+43317-070550FM-18+0006WELM1V0202301N003119999999N9999999N1-00291+99999102501REMSYN146CMAN  16234 WELM1 46/// /2306 11029 40250 92236 222// 00040 333 91211 555 11009 22010 32243 409012 62259 104010 099010 102009 101009 10018 086014;
0077997707999992012011700004+43317-070550FM-18+0006WELM1V0202201N005719999999N9999999N1-00201+99999102361REMSYN068CMAN  17004 WELM1 46/// /2211 11020 40236 92336 222// 0003002 22233;
0072997707999992012011701004+43317-070550FM-18+0006WELM1V0202201N007719999999N9999999N1-00171+99999102301REMSYN063CMAN  17014 WELM1 46/// /2215 11017 40230 90036 222// 00031212;
0000997707999992012011702004+43317-070550FM-18+0006WELM1V0202401N004119999999N9999999N1-00221+99999999999
0000997707999992012011703004+43317-070550FM-18+0006WELM1V0202301N004619999999N9999999N1-00191+99999999999
0066997707999992012011704004+43317-070550FM-18+0006WELM1V0202301N003619999999N9999999N1-00171+99999999999REMSYN057CMAN  17044 WELM1 46/// /2307 11017 90336 222// 01001217;
0000997707999992012011705004+43317-070550FM-18+0006WELM1V0202201N006719999999N9999999N1-00141+99999999999
0088997707999992012011706004+43317-070550FM-18+0006WELM1V0202301N004619999999N9999999N1-00141+99999999999REMSYN079CMAN  17064 WELM1 46/// /2309 11014 90536 222// 0100/ 00031232 555 11028 22029;
0215997707999992012011707004+43317-070550FM-18+0006WELM1V0202301N002619999999N9999999N1-00131+99999999999REMSYN206CMAN  17074 WELM1 46/// /2305 11013 90636 222// 0100/ 00193 90700 333 91241 555 11035 22038 30616 424047 60659 247036 247035 245033 244039 241221 60649 115156 114158 114162 115160 114158 114160 81218 90604;
0094997707999992012011708004+43317-070550FM-18+0006WELM1V0202501N002619999999N9999999N1-00111+99999101621REMSYN085CMAN  17084 WELM1 46/// /2505 11011 40162 90736 222// 0003 90750 333 8//99 555 7/090;
0113997707999992012011709004+43317-070550FM-18+0006WELM1V0202301N001019999999N9999999N1-00101+99999101551REMSYN104CMAN  17094 WELM1 46/// /2302 11010 40155 90836 222// 000460005 86611 555 387// 50008 60006 70013 80023;
0078997707999992012011710004+43317-070550FM-18+0006WELM1V0202001N002119999999N9999999N1-00101+99999101471REMSYN069CMAN  17104 WELM1 46/// /2004 11010 40147 90936 222// 0004 333 91213;
0000997707999992012011711004+43317-070550FM-18+0006WELM1V0202101N003119999999N9999999N1-00091+99999101431
0114997707999992012011712004+43317-070550FM-18+0006WELM1V0202101N002619999999N9999999N1-00101+99999101371REMSYN105CMAN  17124 WELM1 46/// /2105 11010 40137 91136 222// 0004 86042 333 55302 20585 30524 82362 86366 98289;
0068997707999992012011713004+43317-070550FM-18+0006WELM1V0202101N000519999999N9999999N1-00121+99999101341REMSYN059CMAN  17134 WELM1 46/// /2101 11012 40134 91236 222// 0003;
0000997707999992012011714004+43317-070550FM-18+0006WELM1V0202501N000519999999N9999999N1-00081+99999101301
0073997707999992012011715004+43317-070550FM-18+0006WELM1V0202501N001019999999N9999999N1+00051+99999101241REMSYN064CMAN  17154 WELM1 46/// /2502 10005 40124 91436 222// 000191155;
0100997707999992012011716004+43317-070550FM-18+0006WELM1V0202701N001519999999N9999999N1+00221+99999101191REMSYN091CMAN  17164 WELM1 46/// /2703 10022 40119 91536 222// 000191220 555 703 333 // 41503 70018;
0000997707999992012011717004+43317-070550FM-18+0006WELM1V0202601N002619999999N9999999N1+00301+99999101061
0138997707999992012011718004+43317-070550FM-18+0006WELM1V0202501N001019999999N9999999N1+00461+99999100931REMSYN129CMAN  17184 WELM1 46/// /2502 10046 40093 91736 222// 000291228 555 4/ 22215 00189 20202 329// 40804 5//// 6//// 80183 ICE /////;
0000997707999992012011719004+43317-070550FM-18+0006WELM1V0201501N002619999999N9999999N1+00421+99999100771
0078997707999992012011720004+43317-070550FM-18+0006WELM1V0201701N004119999999N9999999N1+00371+99999100761REMSYN069CMAN  17204 WELM1 46/// /1708 10037 40076 91936 222// 0005 333 91226;
0000997707999992012011721004+43317-070550FM-18+0006WELM1V0201801N003619999999N9999999N1+00401+99999100681
0103997707999992012011722004+43317-070550FM-18+0006WELM1V0201701N004619999999N9999999N1+00421+99999100561REMSYN094CMAN  17224 WELM1 46/// /1709 10042 40056 92136 222// 000591216 555 0 30000 87/16 87/22 87/42;
0082997707999992012011723004+43317-070550FM-18+0006WELM1V0201901N004119999999N9999999N1+00411+99999100381REMSYN073CMAN  17234 WELM1 46/// /1908 10041 40038 92236 222// 000555 11037 22040;
0090997707999992012011800004+43317-070550FM-18+0006WELM1V0202101N004619999999N9999999N1+00401+99999100281REMSYN081CMAN  18004 WELM1 46/// /2109 10040 40028 92336 222// 0005/ 1//03 7001 333 58021;
0203997707999992012011801004+43317-070550FM-18+0006WELM1V0202101N005119999999N9999999N1+00481+99999100111REMSYN194CMAN  18014 WELM1 46/// /2110 10048 40011 90036 222// 00051 90050 22200 00160 10909 20506 3//// 40906 70044 333 91220 555 11163 22175 30048 42220 60049 230148 230138 228148 228148 228140 227137;
0000997707999992012011802004+43317-070550FM-18+0006WELM1V0202201N004119999999N9999999N1+00461+99999100021
0085997707999992012011803004+43317-070550FM-18+0006WELM1V0202201N003119999999N9999999N1+00441+99999099871REMSYN076CMAN  18034 WELM1 46/// /2206 10044 49987 90236 222// 000491207 55 TIDE1207;
0099997707999992012011804004+43317-070550FM-18+0006WELM1V0202201N004119999999N9999999N1+00481+99999099721REMSYN090CMAN  18044 WELM1 46/// /2208 10048 49972 90336 222// 00049 90350 22200 00059 10503 70013;
0141997707999992012011805004+43317-070550FM-18+0006WELM1V0202001N003119999999N9999999N1+00491+99999099591REMSYN132CMAN  18054 WELM1 46/// /2006 10049 49959 90436 222// 000491211 555 88270 22253 00110 20201 331// 40504 5//// 6//// 81010 ICE /////;
0088997707999992012011806004+43317-070550FM-18+0006WELM1V0202101N003119999999N9999999N1+00521+99999099441REMSYN079CMAN  18064 WELM1 46/// /2106 10052 49944 90536 222// 00041226 555 11021 22023;
0072997707999992012011807004+43317-070550FM-18+0006WELM1V0202301N003119999999N9999999N1+00621+99999099351REMSYN063CMAN  18074 WELM1 46/// /2306 10062 49935 90636 222// 00041213;
0088997707999992012011808004+43317-070550FM-18+0006WELM1V0202301N004619999999N9999999N1+00681+99999099331REMSYN079CMAN  18084 WELM1 46/// /2309 10068 49933 90736 222// 000471 40307 52017 22200;
0082997707999992012011809004+43317-070550FM-18+0006WELM1V0202601N004119999999N9999999N1+00721+99999099451REMSYN073CMAN  18094 WELM1 46/// /2608 10072 49945 90836 222// 0004562// 83818/3D;
0089997707999992012011810004+43317-070550FM-18+0006WELM1V0202701N007219999999N9999999N1+00661+99999099551REMSYN080CMAN  18104 WELM1 46/// /2714 10066 49955 90936 222// 0005/ 333 88713 555 10085;
0000997707999992012011811004+43317-070550FM-18+0006WELM1V0202801N007219999999N9999999N1+00541+99999099681
0095997707999992012011812004+43317-070550FM-18+0006WELM1V0202801N007219999999N9999999N1+00431+99999099801REMSYN086CMAN  18124 WELM1 46/// /2814 10043 49980 91136 222// 000410301 56229 59003 555 91812;
0079997707999992012011813004+43317-070550FM-18+0006WELM1V0202801N008719999999N9999999N1+00341+99999099951REMSYN070CMAN  18134 WELM1 46/// /2817 10034 49995 91236 222// 000491223 555 1;
0078997707999992012011814004+43317-070550FM-18+0006WELM1V0202901N005119999999N9999999N1+00281+99999100111REMSYN069CMAN  18144 WELM1 46/// /2910 10028 40011 91336 222// 0004 333 91216;
0079997707999992012011815004+43317-070550FM-18+0006WELM1V0202901N006219999999N9999999N1+00271+99999100311REMSYN070CMAN  18154 WELM1 46/// /2912 10027 40031 91436 222// 0003567// 83200;
0072997707999992012011816004+43317-070550FM-18+0006WELM1V0202901N006219999999N9999999N1+00231+99999100431REMSYN063CMAN  18164 WELM1 46/// /2912 10023 40043 91536 222// 00031219;
0069997707999992012011817004+43317-070550FM-18+0006WELM1V0203201N007219999999N9999999N1+00121+99999100501REMSYN060CMAN  18174 WELM1 46/// /3214 10012 40050 91636 222// 00033;
0078997707999992012011818004+43317-070550FM-18+0006WELM1V0203101N008719999999N9999999N1+00141+99999100551REMSYN069CMAN  18184 WELM1 46/// /3117 10014 40055 91736 222// 0003 333 91216;
0203997707999992012011819004+43317-070550FM-18+0006WELM1V0203201N008219999999N9999999N1+00021+99999100671REMSYN194CMAN  18194 WELM1 46/// /3216 10002 40067 91836 222// 00036 91900 333 91236 555 11030 22032 31815 430039 61859 299032 306033 305034 302032 301114 61849 298116 295110 293115 295118 295112 282099;
0079997707999992012011820004+43317-070550FM-18+0006WELM1V0203001N009819999999N9999999N1-00101+99999100841REMSYN070CMAN  18204 WELM1 46/// /3019 11010 40084 91936 222// 000355 TIDE1148;
0078997707999992012011821004+43317-070550FM-18+0006WELM1V0203101N008719999999N9999999N1-00201+99999101021REMSYN069CMAN  18214 WELM1 46/// /3117 11020 40102 92036 222// 0004 333 91209;
0078997707999992012011822004+43317-070550FM-18+0006WELM1V0203301N006719999999N9999999N1-00341+99999101221REMSYN069CMAN  18224 WELM1 46/// /3313 11034 40122 92136 222// 0005 333 91221;
0085997707999992012011823004+43317-070550FM-18+0006WELM1V0203201N006219999999N9999999N1-00451+99999101401REMSYN076CMAN  18234 WELM1 46/// /3212 11045 40140 92236 222// 000591228 555 IDE1140;
0202997707999992012011900004+43317-070550FM-18+0006WELM1V0203301N006219999999N9999999N1-00531+99999101541REMSYN193CMAN  19004 WELM1 46/// /3312 11053 40154 92336 222// 0005 90150 22200 00174 10603 20602 3//// 40701 70013 333 91209 555 11078 22081 30110 40310 60149 033075 029079 032078 030080 030080 026076;
0078997707999992012011901004+43317-070550FM-18+0006WELM1V0203101N005119999999N9999999N1-00611+99999101681REMSYN069CMAN  19014 WELM1 46/// /3110 11061 40168 90036 222// 0004 333 91208;
0078997707999992012011902004+43317-070550FM-18+0006WELM1V0203201N003619999999N9999999N1-00691+99999101751REMSYN069CMAN  19024 WELM1 46/// /3207 11069 40175 90136 222// 0004 333 91217;
0000997707999992012011903004+43317-070550FM-18+0006WELM1V0203301N003619999999N9999999N1-00781+99999101861
0197997707999992012011904004+43317-070550FM-18+0006WELM1V0203501N002619999999N9999999N1-00851+99999101941REMSYN188CMAN  19044 WELM1 46/// /3505 11085 40194 90336 222// 00020 22200 00152 10702 20301 329// 40702 70010 333 91205 555 11039 22041 30300 43405 60349 318037 338034 331033 330034 334040 338043;
0202997707999992012011905004+43317-070550FM-18+0006WELM1V0203201N002619999999N9999999N1-00921+99999999999REMSYN193CMAN  19054 WELM1 46/// /3205 11092 90436 222// 0002/ 0004 90650 22200 00171 10603 20602 3//// 40701 70013 333 91208 555 11065 22067 30608 40108 60649 028063 015061 016062 017062 011061 018063;
0076997707999992012011906004+43317-070550FM-18+0006WELM1V0203601N001519999999N9999999N1-00981+99999999999REMSYN067CMAN  19064 WELM1 46/// /3603 11098 90536 222// 0002/ 000443 52010;
0078997707999992012011907004+43317-070550FM-18+0006WELM1V0200301N001019999999N9999999N1-01051+99999999999REMSYN069CMAN  19074 WELM1 46/// /0302 11105 90636 222// 0002/ 0004 333 91213;
0108997707999992012011908004+43317-070550FM-18+0006WELM1V0203601N001019999999N9999999N1-01191+99999999999REMSYN099CMAN  19084 WELM1 46/// /3602 11119 90736 222// 0002/ 0004 60014 80002 333 05400 21022 81073 95990;
0095997707999992012011909004+43317-070550FM-18+0006WELM1V0203501N001519999999N9999999N1-01241+99999999999REMSYN086CMAN  19094 WELM1 46/// /3503 11124 90836 222// 0004/ 00045699/ 82818 8 4 6 3 5 88460;
0088997707999992012011910004+43317-070550FM-18+0006WELM1V0200101N003119999999N9999999N1-01121+99999999999REMSYN079CMAN  19104 WELM1 46/// /0106 11112 90936 222// 0004/ 00201212 555 11011 22011;
0078997707999992012011911004+43317-070550FM-18+0006WELM1V0203501N002619999999N9999999N1-01241+99999999999REMSYN069CMAN  19114 WELM1 46/// /3505 11124 91036 222// 0004/ 0004 333 91207;
0203997707999992012011912004+43317-070550FM-18+0006WELM1V0203601N003619999999N9999999N1-01071+99999999999REMSYN194CMAN  19124 WELM1 46/// /3607 11107 91142 222// 0004/ 00040 222// 00193 333 91203 555 11003 22003 31137 436008 61159 017003 007005 002006 003005 004409 049083 044085 036090 029087 027093 030091;
0000997707999992012011913004+43317-070550FM-18+0006WELM1V0203401N002619999999N9999999N1-01141+99999999999
0000997707999992012011914004+43317-070550FM-18+0006WELM1V0200101N005119999999N9999999N1-00951+99999999999
0078997707999992012011915004+43317-070550FM-18+0006WELM1V0200201N004619999999N9999999N1-00851+99999999999REMSYN069CMAN  19154 WELM1 46/// /0209 11085 91436 222// 0003/ 0003 333 91211;
0078997707999992012011916004+43317-070550FM-18+0006WELM1V0200401N004119999999N9999999N1-00671+99999999999REMSYN069CMAN  19164 WELM1 46/// /0408 11067 91536 222// 0002/ 0003 333 91218;
0078997707999992012011917004+43317-070550FM-18+0006WELM1V0200301N004119999999N9999999N1-00541+99999102271REMSYN069CMAN  19174 WELM1 46/// /0308 11054 40227 91636 222// 0001 333 10336;
0000997707999992012011918004+43317-070550FM-18+0006WELM1V0201101N002619999999N9999999N1-00491+99999102161
0149997707999992012011919004+43317-070550FM-18+0006WELM1V0201301N002619999999N9999999N1-00481+99999102191REMSYN140CMAN  19194 WELM1 46/// /1305 11048 40219 91836 222// 000140091 5//// 7//// 8//// 222// 04214 2//// 3//// 4//// 5//// 6//// 8//// ICE /////;
0088997707999992012011920004+43317-070550FM-18+0006WELM1V0201201N002119999999N9999999N1-00451+99999102151REMSYN079CMAN  19204 WELM1 46/// /1204 11045 40215 91936 222// 00011212 555 11009 22010;
0215997707999992012011921004+43317-070550FM-18+0006WELM1V0201401N005119999999N9999999N1-00351+99999102081REMSYN206CMAN  19214 WELM1 46/// /1410 11035 40208 92036 222// 00015 92050 22200 00078 10901 20401 317// 40901 70007 333 91208 555 11059 22061 32024 41208 62049 139056 122057 123053 129042 136038 137039 81207 92034;
0068997707999992012011922004+43317-070550FM-18+0006WELM1V0201701N004619999999N9999999N1-00331+99999102111REMSYN059CMAN  19224 WELM1 46/// /1709 11033 40211 92136 222// 0003;
0078997707999992012011923004+43317-070550FM-18+0006WELM1V0201401N004119999999N9999999N1-00291+99999101921REMSYN069CMAN  19234 WELM1 46/// /1408 11029 40192 92236 222// 0004 333 91207;
0116997707999992012012000004+43317-070550FM-18+0006WELM1V0201701N006719999999N9999999N1-00181+99999101971REMSYN107CMAN  20004 WELM1 46/// /1713 11018 40197 92336 222// 000491221 555 53 70300 8525/ 22264 00270 20501 80205;
0000997707999992012012001004+43317-070550FM-18+0006WELM1V0201601N007219999999N9999999N1-00111+99999101841
0000997707999992012012002004+43317-070550FM-18+0006WELM1V0201601N007219999999N9999999N1-00021+99999101731
0091997707999992012012003004+43317-070550FM-18+0006WELM1V0201801N008219999999N9999999N1-00051+99999101661REMSYN082CMAN  20034 WELM1 46/// /1816 11005 40166 90236 222// 0003562/9 81810 83816 86077;
0090997707999992012012004004+43317-070550FM-18+0006WELM1V0201701N006719999999N9999999N1-00071+99999101551REMSYN081CMAN  20044 WELM1 46/// /1713 11007 40155 90336 222// 0003 333 59008 85816 83075;
0000997707999992012012005004+43317-070550FM-18+0006WELM1V0201701N007719999999N9999999N1+00021+99999101411
0000997707999992012012006004+43317-070550FM-18+0006WELM1V0201801N009819999999N9999999N1+00011+99999101381
0078997707999992012012007004+43317-070550FM-18+0006WELM1V0202401N002619999999N9999999N1-00031+99999101301REMSYN069CMAN  20074 WELM1 46/// /2405 11003 40130 90636 222// 0001 333 91204;
0088997707999992012012008004+43317-070550FM-18+0006WELM1V0203201N002619999999N9999999N1-00171+99999101231REMSYN079CMAN  20084 WELM1 46/// /3205 11017 40123 90736 222// 00011231 555 11023 22024;
0000997707999992012012009004+43317-070550FM-18+0006WELM1V0202901N002119999999N9999999N1-00251+99999101181
0072997707999992012012010004+43317-070550FM-18+0006WELM1V0203201N002119999999N9999999N1-00431+99999101181REMSYN063CMAN  20104 WELM1 46/// /3204 11043 40118 90936 222// 00041210;
0000997707999992012012011004+43317-070550FM-18+0006WELM1V0203201N002619999999N9999999N1-00541+99999101211
0088997707999992012012012004+43317-070550FM-18+0006WELM1V0203401N002119999999N9999999N1-00631+99999101301REMSYN079CMAN  20124 WELM1 46/// /3404 11063 40130 91136 222// 00041211 555 11007 22009;
0114997707999992012012013004+43317-070550FM-18+0006WELM1V0202901N002119999999N9999999N1-00651+99999101381REMSYN105CMAN  20134 WELM1 46/// /2904 11065 40138 91236 222// 0004 69942 70272 887// 333 21108 47038 70012 91105;
0078997707999992012012014004+43317-070550FM-18+0006WELM1V0202901N003119999999N9999999N1-00551+99999101481REMSYN069CMAN  20144 WELM1 46/// /2906 11055 40148 91336 222// 0004 333 91222;
0099997707999992012012015004+43317-070550FM-18+0006WELM1V0202801N004619999999N9999999N1-00431+99999101511REMSYN090CMAN  20154 WELM1 46/// /2809 11043 40151 91436 222// 00034 11102 20902 305// 41101 70012;
0091997707999992012012016004+43317-070550FM-18+0006WELM1V0203001N006719999999N9999999N1-00321+99999101531REMSYN082CMAN  20164 WELM1 46/// /3013 11032 40153 91536 222// 000356700 57874 82820 80830;
0076997707999992012012017004+43317-070550FM-18+0006WELM1V0203101N005719999999N9999999N1-00291+99999101601REMSYN067CMAN  20174 WELM1 46/// /3111 11029 40160 91636 222// 000294 57009;
0083997707999992012012018004+43317-070550FM-18+0006WELM1V0203301N009319999999N9999999N1-00281+99999101611REMSYN074CMAN  20184 WELM1 46/// /3318 11028 40161 91736 222// 0002562/9 555 92018;
0000997707999992012012019004+43317-070550FM-18+0006WELM1V0203101N006719999999N9999999N1-00271+99999101641
0000997707999992012012020004+43317-070550FM-18+0006WELM1V0203101N005719999999N9999999N1-00281+99999101771
0085997707999992012012021004+43317-070550FM-18+0006WELM1V0203001N007719999999N9999999N1-00311+99999101881REMSYN076CMAN  20214 WELM1 46/// /3015 11031 40188 92036 222// 000291212 55 TIDE1145;
0141997707999992012012022004+43317-070550FM-18+0006WELM1V0203101N004119999999N9999999N1-00401+99999101981REMSYN132CMAN  20224 WELM1 46/// /3108 11040 40198 92136 222// 0002/// 74422 8//// 22283 0//// 2//01 3//// 4//// 5//// 6//// 8//// ICE /////;
0215997707999992012012023004+43317-070550FM-18+0006WELM1V0203301N003119999999N9999999N1-00481+99999102091REMSYN206CMAN  20234 WELM1 46/// /3306 11048 40209 92236 222// 00046 92250 22200 00042 11212 20808 3//// 41209 70058 333 91215 555 11128 22134 32222 42316 62249 018118 023116 027125 027123 031126 027121 80214 92223;
0109997707999992012012100004+43317-070550FM-18+0006WELM1V0202801N002119999999N9999999N1-00571+99999102201REMSYN100CMAN  21004 WELM1 46/// /2804 11057 40220 92336 222// 00040 333 20239 50004 5689/ 70257 83818 88460;
0000997707999992012012101004+43317-070550FM-18+0006WELM1V0203001N002619999999N9999999N1-00631+99999102281
0088997707999992012012102004+43317-070550FM-18+0006WELM1V0202901N002619999999N9999999N1-00721+99999102351REMSYN079CMAN  21024 WELM1 46/// /2905 11072 40235 90136 222// 000467 40135 57004 22233;
0076997707999992012012103004+43317-070550FM-18+0006WELM1V0203401N001019999999N9999999N1-00751+99999102381REMSYN067CMAN  21034 WELM1 46/// /3402 11075 40238 90236 222// 0004562/9/3D;
0000997707999992012012104004+43317-070550FM-18+0006WELM1V0203301N002119999999N9999999N1-00801+99999102361
0000997707999992012012105004+43317-070550FM-18+0006WELM1V0203501N002619999999N9999999N1-00831+99999999999
0000997707999992012012106004+43317-070550FM-18+0006WELM1V0203301N001019999999N9999999N1-00941+99999999999
0000997707999992012012107004+43317-070550FM-18+0006WELM1V0200101N001019999999N9999999N1-00991+99999999999
0080997707999992012012108004+43317-070550FM-18+0006WELM1V0200101N001519999999N9999999N1-01011+99999999999REMSYN071CMAN  21084 WELM1 46/// /0103 11101 90736 222// 0100/ 0003 22220 00062;
0068997707999992012012109004+43317-070550FM-18+0006WELM1V0200101N001519999999N9999999N1-00971+99999999999REMSYN059CMAN  21094 WELM1 46/// /0103 11097 90836 222// 0100/ 0024;
0076997707999992012012110004+43317-070550FM-18+0006WELM1V0202901N000519999999N9999999N1-00961+99999999999REMSYN067CMAN  21104 WELM1 46/// /2901 11096 90936 222// 0100/ 000314 22015;
0197997707999992012012111004+43317-070550FM-18+0006WELM1V0200401N002619999999N9999999N1-00951+99999999999REMSYN188CMAN  21114 WELM1 46/// /0405 11095 91036 222// 0100/ 00040 22200 00072 10502 20502 317// 41101 70008 333 91210 555 11061 22065 30952 41410 61049 228053 197036 202033 201038 166060 147080;
0078997707999992012012112004+43317-070550FM-18+0006WELM1V0200101N002619999999N9999999N1-01001+99999999999REMSYN069CMAN  21124 WELM1 46/// /0105 11100 91136 222// 0100/ 0003 333 91205;
0078997707999992012012113004+43317-070550FM-18+0006WELM1V0203401N002619999999N9999999N1-01001+99999999999REMSYN069CMAN  21134 WELM1 46/// /3405 11100 91236 222// 0100/ 0003 333 91210;
0197997707999992012012114004+43317-070550FM-18+0006WELM1V0203501N003119999999N9999999N1-01031+99999999999REMSYN188CMAN  21144 WELM1 46/// /3506 11103 91336 222// 0100/ 00030 22200 00131 11312 20706 3//// 41310 70058 333 91217 555 11136 22144 31313 42817 61349 294129 291131 295129 293132 287124 290129;
0099997707999992012012115004+43317-070550FM-18+0006WELM1V0203601N004119999999N9999999N1-01081+99999999999REMSYN090CMAN  21154 WELM1 46/// /3608 11108 91436 222// 0100/ 00033 11003 21002 306// 41301 70014;
0000997707999992012012116004+43317-070550FM-18+0006WELM1V0203501N003119999999N9999999N1-01031+99999999999
0000997707999992012012117004+43317-070550FM-18+0006WELM1V0200101N004619999999N9999999N1-00991+99999999999
0126997707999992012012118004+43317-070550FM-18+0006WELM1V02099999999999999999N9999999N1-00981+99999999999REMSYN117CMAN  21184 WELM1 46/// ///10 11098 91736 222// 0100/ 0003 72360 333 55300 20000 30000 82/38 86/57 87/59 91118 91212;
0088997707999992012012119004+43317-070550FM-18+0006WELM1V0200101N005119999999N9999999N1-00901+99999999999REMSYN079CMAN  21194 WELM1 46/// /0110 11090 91836 222// 0100/ 000377 40178 52015 22233;
0073997707999992012012120004+43317-070550FM-18+0006WELM1V0203601N005119999999N9999999N1-00851+99999999999REMSYN064CMAN  21204 WELM1 46/// /3610 11085 91932 91936 222// 00036//91;
0185997707999992012012121004+43317-070550FM-18+0006WELM1V0200201N003619999999N9999999N1-00831+99999999999REMSYN176CMAN  21214 WELM1 46/// /0207 11083 92034 92036 222// 00030 22200 00072 10502 20502 70009 333 91214 555 11124 22132 31955 42518 62049 229116 230114 241120 244120 256130 249128;
0185997707999992012012122004+43317-070550FM-18+0006WELM1V0200301N005119999999N9999999N1-00861+99999999999REMSYN176CMAN  21224 WELM1 46/// /0310 11086 92138 92136 222// 00030 22200 00072 10501 20501 70007 333 91210 555 11086 22091 32126 42514 62149 258084 264107 237108 229100 233107 230106;
0072997707999992012012123004+43317-070550FM-18+0006WELM1V0200301N005719999999N9999999N1-00861+99999999999REMSYN063CMAN  21234 WELM1 46/// /0311 11086 92237 92236 222// 00031216;
0118997707999992012012200004+43317-070550FM-18+0006WELM1V0200101N005119999999N9999999N1-00881+99999999999REMSYN109CMAN  22004 WELM1 46/// /0110 11088 92330 92336 222// 000391234 555 00 333 83815 83630 85650 91113 999 02513;
0078997707999992012012201004+43317-070550FM-18+0006WELM1V0200101N003619999999N9999999N1-00911+99999999999REMSYN069CMAN  22014 WELM1 46/// /0107 11091 90031 90036 222// 0003 333 91221;
0185997707999992012012202004+43317-070550FM-18+0006WELM1V0200101N004619999999N9999999N1-00981+99999999999REMSYN176CMAN  22024 WELM1 46/// /0109 11098 90135 90136 222// 000391235 555 072 10602 20602 70012 333 91212 555 11106 22112 30051 42416 60149 243101 239113 242114 247124 248112 245128;
0077997707999992012012203004+43317-070550FM-18+0006WELM1V0203601N003619999999N9999999N1-01021+99999999999REMSYN068CMAN  22034 WELM1 46/// /3607 11102 90233 90236 222// 0003016 22234;
0000997707999992012012204004+43317-070550FM-18+0006WELM1V0200101N006219999999N9999999N1-01051+99999999999
0078997707999992012012205004+43317-070550FM-18+0006WELM1V0200101N004119999999N9999999N1-01041+99999999999REMSYN069CMAN  22054 WELM1 46/// /0108 11104 90438 90436 222// 0005 333 91209;
0078997707999992012012206004+43317-070550FM-18+0006WELM1V0200101N003619999999N9999999N1-01111+99999999999REMSYN069CMAN  22064 WELM1 46/// /0107 11111 90534 90536 222// 0003 333 91208;
0116997707999992012012207004+43317-070550FM-18+0006WELM1V0203601N004119999999N9999999N1-01181+99999999999REMSYN107CMAN  22074 WELM1 46/// /3608 11118 90639 90636 222// 0003 40054 56018 70200 82165 22274 04280 20201 80255;
0070997707999992012012208004+43317-070550FM-18+0006WELM1V0203401N002619999999N9999999N1-01231+99999999999REMSYN061CMAN  22084 WELM1 46/// /3405 11123 90732 90736 222// 000303;
0000997707999992012012209004+43317-070550FM-18+0006WELM1V0203301N001019999999N9999999N1-01281+99999999999
0000997707999992012012210004+43317-070550FM-18+0006WELM1V0202901N001019999999N9999999N1-01281+99999999999
0000997707999992012012211004+43317-070550FM-18+0006WELM1V0203501N002119999999N9999999N1-01271+99999999999
0203997707999992012012212004+43317-070550FM-18+0006WELM1V0203301N002119999999N9999999N1-01311+99999999999REMSYN194CMAN  22124 WELM1 46/// /3304 11131 91138 91136 222// 002191220 555 11013 22014 31135 412029 61159 118017 131017 139017 128012 115 018016 016018 011149 036115 035117 035117 042115 036114 033116;
0090997707999992012012213004+43317-070550FM-18+0006WELM1V0203301N002619999999N9999999N1-01381+99999999999REMSYN081CMAN  22134 WELM1 46/// /3305 11138 91233 91236 222// 0003 1//02 70008 333 91216;
0078997707999992012012214004+43317-070550FM-18+0006WELM1V0203301N002119999999N9999999N1-01121+99999999999REMSYN069CMAN  22144 WELM1 46/// /3304 11112 91337 91336 222// 0003 333 91201;
0108997707999992012012215004+43317-070550FM-18+0006WELM1V0200101N004619999999N9999999N1-00861+99999999999REMSYN099CMAN  22154 WELM1 46/// /0109 11086 91433 91436 222// 0003 878// 333 543// 81824 86656 90710 91133;
0078997707999992012012216004+43317-070550FM-18+0006WELM1V0200301N003119999999N9999999N1-00661+99999999999REMSYN069CMAN  22164 WELM1 46/// /0306 11066 91531 91536 222// 0003 333 91211;
0088997707999992012012217004+43317-070550FM-18+0006WELM1V0200501N003119999999N9999999N1-00561+99999999999REMSYN079CMAN  22174 WELM1 46/// /0506 11056 91631 91636 222// 00031234 555 11029 22031;
0078997707999992012012218004+43317-070550FM-18+0006WELM1V0201201N001519999999N9999999N1-00521+99999999999REMSYN069CMAN  22184 WELM1 46/// /1203 11052 91737 91736 222// 0003 333 91216;
0000997707999992012012219004+43317-070550FM-18+0006WELM1V0201001N002119999999N9999999N1-00431+99999999999
0000997707999992012012220004+43317-070550FM-18+0006WELM1V0201101N002119999999N9999999N1-00441+99999999999
0000997707999992012012221004+43317-070550FM-18+0006WELM1V0201801N002119999999N9999999N1-00401+99999999999
0078997707999992012012222004+43317-070550FM-18+0006WELM1V0201001N001019999999N9999999N1-00411+99999999999REMSYN069CMAN  22224 WELM1 46/// /1002 11041 92133 92136 222// 0003 333 91214;
0088997707999992012012223004+43317-070550FM-18+0006WELM1V0203401N001519999999N9999999N1-00551+99999999999REMSYN079CMAN  22234 WELM1 46/// /3403 11055 92233 92236 222// 0003 333 98070 555 0////;
0078997707999992012012300004+43317-070550FM-18+0006WELM1V0203301N001519999999N9999999N1-00691+99999999999REMSYN069CMAN  23004 WELM1 46/// /3303 11069 92338 92336 222// 0005 333 91213;
0078997707999992012012301004+43317-070550FM-18+0006WELM1V0203301N001519999999N9999999N1-00641+99999999999REMSYN069CMAN  23014 WELM1 46/// /3303 11064 90036 90036 222// 00038027 81819;
0088997707999992012012302004+43317-070550FM-18+0006WELM1V0203201N002119999999N9999999N1-00531+99999999999REMSYN079CMAN  23024 WELM1 46/// /3204 11053 90135 90136 222// 00031223 555 11020 22021;
0082997707999992012012303004+43317-070550FM-18+0006WELM1V0203501N001519999999N9999999N1-00531+99999999999REMSYN073CMAN  23034 WELM1 46/// /3503 11053 90236 90236 222// 000355 11008 22009;
0077997707999992012012304004+43317-070550FM-18+0006WELM1V0203501N001519999999N9999999N1-00521+99999999999REMSYN068CMAN  23044 WELM1 46/// /3503 11052 90331 90336 222// 0003010 22284;
0000997707999992012012305004+43317-070550FM-18+0006WELM1V0203301N002619999999N9999999N1-00501+99999999999
0108997707999992012012306004+43317-070550FM-18+0006WELM1V0203001N001019999999N9999999N1-00451+99999999999REMSYN099CMAN  23064 WELM1 46/// /3002 11045 90532 90536 222// 0003 878// 333 55300 20000 30000 82813 87618;
0000997707999992012012307004+43317-070550FM-18+0006WELM1V0203001N002119999999N9999999N1-00371+99999999999
0080997707999992012012308004+43317-070550FM-18+0006WELM1V0203001N003119999999N9999999N1-00301+99999999999REMSYN071CMAN  23084 WELM1 46/// /3006 11030 90739 90736 222// 0003 22270 00195;
0082997707999992012012309004+43317-070550FM-18+0006WELM1V0203301N001019999999N9999999N1-00251+99999999999REMSYN073CMAN  23094 WELM1 46/// /3302 11025 90838 90836 222// 000355 11024 22026;
0088997707999992012012310004+43317-070550FM-18+0006WELM1V0200701N001019999999N9999999N1-00231+99999999999REMSYN079CMAN  23104 WELM1 46/// /0702 11023 90938 90936 222// 00031210 555 11010 22012;
0078997707999992012012311004+43317-070550FM-18+0006WELM1V0200401N001019999999N9999999N1-00271+99999999999REMSYN069CMAN  23114 WELM1 46/// /0402 11027 91036 91036 222// 0003 333 91213;
0079997707999992012012312004+43317-070550FM-18+0006WELM1V0203601N001019999999N9999999N1-00301+99999999999REMSYN070CMAN  23124 WELM1 46/// /3602 11030 91137 91136 222// 0025555 0 555 1;
0000997707999992012012313004+43317-070550FM-18+0006WELM1V0203401N001019999999N9999999N1-00271+99999999999
0102997707999992012012314004+43317-070550FM-18+0006WELM1V0203401N002119999999N9999999N1-00181+99999999999REMSYN093CMAN  23144 WELM1 46/// /3404 11018 91339 91336 222// 0003 76062 8527/ 333 0//11 85840 85460;
0141997707999992012012315004+43317-070550FM-18+0006WELM1V0203501N001519999999N9999999N1-00091+99999999999REMSYN132CMAN  23154 WELM1 46/// /3503 11009 91439 91436 222// 000391207 555 /// 700// 8//// 22200 00046 11002 2//// 3//// 70011 81024 91009;
0197997707999992012012316004+43317-070550FM-18+0006WELM1V0201701N006719999999N9999999N1+00411+99999999999REMSYN188CMAN  23164 WELM1 46/// /1713 10041 91530 91536 222// 00030 22200 00106 11409 20803 3//// 41409 70047 333 91211 555 11098 22105 31526 43213 61549 317091 319093 319096 319092 317096 317092;
0000997707999992012012317004+43317-070550FM-18+0006WELM1V0201801N006719999999N9999999N1+00461+99999999999
0068997707999992012012318004+43317-070550FM-18+0006WELM1V0201801N004119999999N9999999N1+00441+99999999999REMSYN059CMAN  23184 WELM1 46/// /1808 10044 91731 91736 222// 0025;
0141997707999992012012319004+43317-070550FM-18+0006WELM1V0201601N002619999999N9999999N1+00521+99999999999REMSYN132CMAN  23194 WELM1 46/// /1605 10052 91834 91836 222// 0003/// 7//// 8//// 222// 04056 2//// 3//// 4//// 5//// 6//// 8//// ICE /////;
