0137997849999992012121117004+43783-069883FM-18+0002EB035V0203301N006019999999N9999999N1+99999+99999999999ADDSA1+0779UA1M990009999REMSYN104BBXX  44021 11171 99438 70700 46/// /3306 1//// 91704 22200 00077 1//00 70001 333 91208 555 11067 22073;
0137997849999992012121118004+43783-069883FM-18+0002EB035V0203301N004019999999N9999999N1+99999+99999999999ADDSA1+0699UA1M990009999REMSYN104BBXX  44021 11181 99438 70700 46/// /3304 1//// 91804 22200 00069 1//00 70001 333 91207 555 11052 22057;
0137997849999992012121119004+43783-069883FM-18+0002EB035V0203301N004019999999N9999999N1+99999+99999999999ADDSA1+0639UA1M990009999REMSYN104BBXX  44021 11191 99438 70700 46/// /3304 1//// 91904 22200 00063 1//00 70001 333 91205 555 11045 22049;
0137997849999992012121120004+43783-069883FM-18+0002EB035V0203301N005019999999N9999999N1+99999+99999999999ADDSA1+0619UA1M990009999REMSYN104BBXX  44021 11201 99438 70700 46/// /3305 1//// 92004 22200 00061 1//00 70001 333 91206 555 11057 22062;
0137997849999992012121121004+43783-069883FM-18+0002EB035V0203301N004019999999N9999999N1+99999+99999999999ADDSA1+0609UA1M990009999REMSYN104BBXX  44021 11211 99438 70700 46/// /3304 1//// 92104 22200 00060 1//00 70001 333 91205 555 11050 22054;
0137997849999992012121122004+43783-069883FM-18+0002EB035V0203301N004019999999N9999999N1+00301+99999999999ADDSA1+0649UA1M990009999REMSYN104BBXX  44021 11221 99438 70700 46/// /3304 10030 92204 22200 00064 1//00 70001 333 91205 555 11046 22050;
0137997849999992012121123004+43783-069883FM-18+0002EB035V0203501N004019999999N9999999N1+00221+99999999999ADDSA1+0769UA1M990009999REMSYN104BBXX  44021 11231 99438 70700 46/// /3504 10022 92304 22200 00076 1//00 70001 333 91205 555 11047 22051;
0137997849999992012121200004+43783-069883FM-18+0002EB035V0203401N003019999999N9999999N1+00161+99999999999ADDSA1+0799UA1M990009999REMSYN104BBXX  44021 12001 99438 70700 46/// /3403 10016 90004 22200 00079 1//00 70001 333 91205 555 11039 22042;
0137997849999992012121201004+43783-069883FM-18+0002EB035V0203501N005019999999N9999999N1+00081+99999999999ADDSA1+0799UA1M990009999REMSYN104BBXX  44021 12011 99438 70700 46/// /3505 10008 90104 22200 00079 1//00 70001 333 91206 555 11056 22061;
0137997849999992012121202004+43783-069883FM-18+0002EB035V0200101N004019999999N9999999N1+00021+99999999999ADDSA1+0809UA1M990009999REMSYN104BBXX  44021 12021 99438 70700 46/// /0104 10002 90204 22200 00080 1//00 70000 333 91205 555 11042 22046;
0137997849999992012121203004+43783-069883FM-18+0002EB035V0203501N004019999999N9999999N1-00021+99999999999ADDSA1+0799UA1M990009999REMSYN104BBXX  44021 12031 99438 70700 46/// /3504 11002 90304 22200 00079 1//00 70000 333 91206 555 11050 22054;
0137997849999992012121204004+43783-069883FM-18+0002EB035V0203501N004019999999N9999999N1-00061+99999999999ADDSA1+0789UA1M990009999REMSYN104BBXX  44021 12041 99438 70700 46/// /3504 11006 90404 22200 00078 1//00 70000 333 91206 555 11053 22058;
0137997849999992012121205004+43783-069883FM-18+0002EB035V0200101N004019999999N9999999N1-00111+99999999999ADDSA1+0779UA1M990009999REMSYN104BBXX  44021 12051 99438 70700 46/// /0104 11011 90504 22200 00077 1//00 70000 333 91205 555 11049 22053;
0137997849999992012121206004+43783-069883FM-18+0002EB035V0203601N005019999999N9999999N1-00141+99999999999ADDSA1+0749UA1M990009999REMSYN104BBXX  44021 12061 99438 70700 46/// /3605 11014 90604 22200 00074 1//00 70001 333 91206 555 11055 22059;
0137997849999992012121207004+43783-069883FM-18+0002EB035V0200201N004019999999N9999999N1-00181+99999999999ADDSA1+0669UA1M990009999REMSYN104BBXX  44021 12071 99438 70700 46/// /0204 11018 90704 22200 00066 1//00 70000 333 91206 555 11050 22054;
0137997849999992012121208004+43783-069883FM-18+0002EB035V0200201N004019999999N9999999N1-00221+99999999999ADDSA1+0649UA1M990009999REMSYN104BBXX  44021 12081 99438 70700 46/// /0204 11022 90804 22200 00064 1//00 70001 333 91205 555 11051 22055;
0137997849999992012121209004+43783-069883FM-18+0002EB035V0203601N004019999999N9999999N1-00241+99999999999ADDSA1+0669UA1M990009999REMSYN104BBXX  44021 12091 99438 70700 46/// /3604 11024 90904 22200 00066 1//00 70000 333 91205 555 11050 22054;
0137997849999992012121210004+43783-069883FM-18+0002EB035V0200201N005019999999N9999999N1-00241+99999999999ADDSA1+0679UA1M990009999REMSYN104BBXX  44021 12101 99438 70700 46/// /0205 11024 91004 22200 00067 1//00 70000 333 91206 555 11059 22065;
0137997849999992012121211004+43783-069883FM-18+0002EB035V0200101N005019999999N9999999N1-00251+99999999999ADDSA1+0749UA1M990009999REMSYN104BBXX  44021 12111 99438 70700 46/// /0105 11025 91104 22200 00074 1//00 70000 333 91206 555 11055 22059;
0137997849999992012121212004+43783-069883FM-18+0002EB035V0203601N004019999999N9999999N1-00291+99999999999ADDSA1+0749UA1M990009999REMSYN104BBXX  44021 12121 99438 70700 46/// /3604 11029 91204 22200 00074 1//00 70001 333 91205 555 11050 22054;
0137997849999992012121213004+43783-069883FM-18+0002EB035V0203501N002019999999N9999999N1-00301+99999999999ADDSA1+0759UA1M990009999REMSYN104BBXX  44021 12131 99438 70700 46/// /3502 11030 91304 22200 00075 1//00 70000 333 91204 555 11028 22030;
0137997849999992012121214004+43783-069883FM-18+0002EB035V0200101N003019999999N9999999N1-00241+99999999999ADDSA1+0759UA1M990009999REMSYN104BBXX  44021 12141 99438 70700 46/// /0103 11024 91404 22200 00075 1//00 70000 333 91204 555 11035 22038;
0137997849999992012121215004+43783-069883FM-18+0002EB035V0200101N003019999999N9999999N1-00101+99999999999ADDSA1+0759UA1M990009999REMSYN104BBXX  44021 12151 99438 70700 46/// /0103 11010 91504 22200 00075 1//00 70000 333 91204 555 11036 22040;
0137997849999992012121216004+43783-069883FM-18+0002EB035V0203301N003019999999N9999999N1-00011+99999999999ADDSA1+0759UA1M990009999REMSYN104BBXX  44021 12161 99438 70700 46/// /3303 11001 91604 22200 00075 1//00 70000 333 91205 555 11038 22041;
0137997849999992012121217004+43783-069883FM-18+0002EB035V0203001N003019999999N9999999N1+00131+99999999999ADDSA1+0749UA1M990009999REMSYN104BBXX  44021 12171 99438 70700 46/// /3003 10013 91704 22200 00074 1//00 70001 333 91204 555 11032 22034;
0137997849999992012121218004+43783-069883FM-18+0002EB035V0202801N002019999999N9999999N1+00211+99999999999ADDSA1+0709UA1M990009999REMSYN104BBXX  44021 12181 99438 70700 46/// /2802 10021 91804 22200 00070 1//00 70001 333 91204 555 11023 22025;
0137997849999992012121219004+43783-069883FM-18+0002EB035V0202201N003019999999N9999999N1+00211+99999999999ADDSA1+0669UA1M990009999REMSYN104BBXX  44021 12191 99438 70700 46/// /2203 10021 91904 22200 00066 1//00 70000 333 91205 555 11040 22044;
0137997849999992012121220004+43783-069883FM-18+0002EB035V0202301N003019999999N9999999N1+00201+99999999999ADDSA1+0599UA1M990009999REMSYN104BBXX  44021 12201 99438 70700 46/// /2303 10020 92004 22200 00059 1//00 70001 333 91205 555 11035 22038;
0137997849999992012121221004+43783-069883FM-18+0002EB035V0202301N003019999999N9999999N1+00191+99999999999ADDSA1+0589UA1M990009999REMSYN104BBXX  44021 12211 99438 70700 46/// /2303 10019 92104 22200 00058 1//00 70001 333 91204 555 11036 22040;
0137997849999992012121222004+43783-069883FM-18+0002EB035V0202301N002019999999N9999999N1+00181+99999999999ADDSA1+0579UA1M990009999REMSYN104BBXX  44021 12221 99438 70700 46/// /2302 10018 92204 22200 00057 1//00 70001 333 91202 555 11019 22021;
0137997849999992012121223004+43783-069883FM-18+0002EB035V0202501N002019999999N9999999N1+00201+99999999999ADDSA1+0679UA1M990009999REMSYN104BBXX  44021 12231 99438 70700 46/// /2502 10020 92304 22200 00067 1//00 70000 333 91202 555 11018 22020;
0137997849999992012121300004+43783-069883FM-18+0002EB035V0202901N002019999999N9999999N1+00191+99999999999ADDSA1+0709UA1M990009999REMSYN104BBXX  44021 13001 99438 70700 46/// /2902 10019 90004 22200 00070 1//00 70000 333 91202 555 11021 22022;
0137997849999992012121301004+43783-069883FM-18+0002EB035V0202801N001019999999N9999999N1+00161+99999999999ADDSA1+0749UA1M990009999REMSYN104BBXX  44021 13011 99438 70700 46/// /2801 10016 90104 22200 00074 1//00 70000 333 91202 555 11011 22012;
0137997849999992012121302004+43783-069883FM-18+0002EB035V0202401N001019999999N9999999N1+00171+99999999999ADDSA1+0769UA1M990009999REMSYN104BBXX  44021 13021 99438 70700 46/// /2401 10017 90204 22200 00076 1//00 70000 333 91202 555 11013 22015;
0137997849999992012121303004+43783-069883FM-18+0002EB035V0203401N001019999999N9999999N1+00191+99999999999ADDSA1+0779UA1M990009999REMSYN104BBXX  44021 13031 99438 70700 46/// /3401 10019 90304 22200 00077 1//00 70000 333 91202 555 11016 22017;
0137997849999992012121304004+43783-069883FM-18+0002EB035V0202301N001019999999N9999999N1+00111+99999999999ADDSA1+0769UA1M990009999REMSYN104BBXX  44021 13041 99438 70700 46/// /2301 10011 90404 22200 00076 1//00 70000 333 91202 555 11010 22011;
0137997849999992012121305004+43783-069883FM-18+0002EB035V0202801N002019999999N9999999N1+00161+99999999999ADDSA1+0759UA1M990009999REMSYN104BBXX  44021 13051 99438 70700 46/// /2802 10016 90504 22200 00075 1//00 70000 333 91202 555 11018 22020;
0137997849999992012121306004+43783-069883FM-18+0002EB035V0200101N002019999999N9999999N1+00081+99999999999ADDSA1+0739UA1M990009999REMSYN104BBXX  44021 13061 99438 70700 46/// /0102 10008 90604 22200 00073 1//00 70000 333 91202 555 11021 22022;
0137997849999992012121307004+43783-069883FM-18+0002EB035V0200101N002019999999N9999999N1+00061+99999999999ADDSA1+0689UA1M990009999REMSYN104BBXX  44021 13071 99438 70700 46/// /0102 10006 90704 22200 00068 1//00 70000 333 91203 555 11024 22026;
0137997849999992012121308004+43783-069883FM-18+0002EB035V0203401N001019999999N9999999N1+00031+99999999999ADDSA1+0639UA1M990009999REMSYN104BBXX  44021 13081 99438 70700 46/// /3401 10003 90804 22200 00063 1//00 70000 333 91201 555 11008 22009;
0137997849999992012121309004+43783-069883FM-18+0002EB035V0203501N002019999999N9999999N1+00031+99999999999ADDSA1+0629UA1M990009999REMSYN104BBXX  44021 13091 99438 70700 46/// /3502 10003 90904 22200 00062 1//00 70000 333 91202 555 11024 22026;
0137997849999992012121310004+43783-069883FM-18+0002EB035V0203301N002019999999N9999999N1-00031+99999999999ADDSA1+0689UA1M990009999REMSYN104BBXX  44021 13101 99438 70700 46/// /3302 11003 91004 22200 00068 1//00 70001 333 91202 555 11018 22020;
0137997849999992012121311004+43783-069883FM-18+0002EB035V0203601N003019999999N9999999N1-00051+99999999999ADDSA1+0689UA1M990009999REMSYN104BBXX  44021 13111 99438 70700 46/// /3603 11005 91104 22200 00068 1//00 70000 333 91204 555 11036 22040;
0137997849999992012121312004+43783-069883FM-18+0002EB035V0203401N003019999999N9999999N1-00061+99999999999ADDSA1+0719UA1M990009999REMSYN104BBXX  44021 13121 99438 70700 46/// /3403 11006 91204 22200 00071 1//00 70001 333 91203 555 11032 22034;
0137997849999992012121313004+43783-069883FM-18+0002EB035V0203301N002019999999N9999999N1-00051+99999999999ADDSA1+0739UA1M990009999REMSYN104BBXX  44021 13131 99438 70700 46/// /3302 11005 91304 22200 00073 1//00 70000 333 91203 555 11028 22030;
0137997849999992012121314004+43783-069883FM-18+0002EB035V0203401N002019999999N9999999N1+00081+99999999999ADDSA1+0749UA1M990009999REMSYN104BBXX  44021 13141 99438 70700 46/// /3402 10008 91404 22200 00074 1//00 70000 333 91203 555 11023 22025;
0137997849999992012121315004+43783-069883FM-18+0002EB035V0203601N001019999999N9999999N1+00251+99999999999ADDSA1+0769UA1M990009999REMSYN104BBXX  44021 13151 99438 70700 46/// /3601 10025 91504 22200 00076 1//00 70000 333 91202 555 11016 22017;
0137997849999992012121316004+43783-069883FM-18+0002EB035V0200401N001019999999N9999999N1+00561+99999999999ADDSA1+0769UA1M990009999REMSYN104BBXX  44021 13161 99438 70700 46/// /0401 10056 91604 22200 00076 1//00 70000 333 91201 555 11010 22011;
0137997849999992012121317004+43783-069883FM-18+0002EB035V0203601N002019999999N9999999N1+00421+99999999999ADDSA1+0759UA1M990009999REMSYN104BBXX  44021 13171 99438 70700 46/// /3602 10042 91704 22200 00075 1//00 70000 333 91203 555 11028 22030;
0137997849999992012121318004+43783-069883FM-18+0002EB035V0200201N002019999999N9999999N1+00461+99999999999ADDSA1+0759UA1M990009999REMSYN104BBXX  44021 13181 99438 70700 46/// /0202 10046 91804 22200 00075 1//00 70000 333 91203 555 11023 22025;
0137997849999992012121319004+43783-069883FM-18+0002EB035V0201901N001019999999N9999999N1+00631+99999999999ADDSA1+0709UA1M990009999REMSYN104BBXX  44021 13191 99438 70700 46/// /1901 10063 91904 22200 00070 1//00 70000 333 91202 555 11012 22013;
0137997849999992012121320004+43783-069883FM-18+0002EB035V0202101N002019999999N9999999N1+00521+99999999999ADDSA1+0659UA1M990009999REMSYN104BBXX  44021 13201 99438 70700 46/// /2102 10052 92004 22200 00065 1//00 70001 333 91202 555 11019 22021;
0137997849999992012121321004+43783-069883FM-18+0002EB035V0201701N002019999999N9999999N1+00401+99999999999ADDSA1+0599UA1M990009999REMSYN104BBXX  44021 13211 99438 70700 46/// /1702 10040 92104 22200 00059 1//00 70001 333 91203 555 11027 22029;
0137997849999992012121322004+43783-069883FM-18+0002EB035V0201501N001019999999N9999999N1+00341+99999999999ADDSA1+0579UA1M990009999REMSYN104BBXX  44021 13221 99438 70700 46/// /1501 10034 92204 22200 00057 1//00 70000 333 91201 555 11010 22011;
0137997849999992012121323004+43783-069883FM-18+0002EB035V0203401N001019999999N9999999N1+00231+99999999999ADDSA1+0659UA1M990009999REMSYN104BBXX  44021 13231 99438 70700 46/// /3401 10023 92304 22200 00065 1//00 70001 333 91201 555 11012 22013;
0137997849999992012121400004+43783-069883FM-18+0002EB035V0203601N001019999999N9999999N1+00261+99999999999ADDSA1+0679UA1M990009999REMSYN104BBXX  44021 14001 99438 70700 46/// /3601 10026 90004 22200 00067 1//00 70000 333 91202 555 11012 22013;
0137997849999992012121401004+43783-069883FM-18+0002EB035V0203101N001019999999N9999999N1+00261+99999999999ADDSA1+0729UA1M990009999REMSYN104BBXX  44021 14011 99438 70700 46/// /3101 10026 90104 22200 00072 1//00 70000 333 91201 555 11007 22008;
0137997849999992012121402004+43783-069883FM-18+0002EB035V0202501N002019999999N9999999N1+00371+99999999999ADDSA1+0739UA1M990009999REMSYN104BBXX  44021 14021 99438 70700 46/// /2502 10037 90204 22200 00073 1//00 70000 333 91203 555 11027 22029;
0137997849999992012121403004+43783-069883FM-18+0002EB035V0202301N004019999999N9999999N1+00391+99999999999ADDSA1+0749UA1M990009999REMSYN104BBXX  44021 14031 99438 70700 46/// /2304 10039 90304 22200 00074 1//00 70000 333 91205 555 11045 22049;
0137997849999992012121404004+43783-069883FM-18+0002EB035V0202301N003019999999N9999999N1+00391+99999999999ADDSA1+0749UA1M990009999REMSYN104BBXX  44021 14041 99438 70700 46/// /2303 10039 90404 22200 00074 1//00 70000 333 91205 555 11040 22044;
0137997849999992012121405004+43783-069883FM-18+0002EB035V0202301N004019999999N9999999N1+00391+99999999999ADDSA1+0739UA1M990009999REMSYN104BBXX  44021 14051 99438 70700 46/// /2304 10039 90504 22200 00073 1//00 70001 333 91206 555 11051 22055;
0137997849999992012121406004+43783-069883FM-18+0002EB035V0202501N004019999999N9999999N1+00351+99999999999ADDSA1+0739UA1M990009999REMSYN104BBXX  44021 14061 99438 70700 46/// /2504 10035 90604 22200 00073 1//00 70001 333 91206 555 11052 22057;
0137997849999992012121407004+43783-069883FM-18+0002EB035V0202501N003019999999N9999999N1+00321+99999999999ADDSA1+0699UA1M990009999REMSYN104BBXX  44021 14071 99438 70700 46/// /2503 10032 90704 22200 00069 1//00 70002 333 91204 555 11040 22044;
0137997849999992012121408004+43783-069883FM-18+0002EB035V0202701N003019999999N9999999N1+00261+99999999999ADDSA1+0659UA1M990009999REMSYN104BBXX  44021 14081 99438 70700 46/// /2703 10026 90804 22200 00065 1//00 70002 333 91204 555 11034 22037;
0137997849999992012121409004+43783-069883FM-18+0002EB035V0203401N001019999999N9999999N1+00191+99999999999ADDSA1+0639UA1M990009999REMSYN104BBXX  44021 14091 99438 70700 46/// /3401 10019 90904 22200 00063 1//00 70002 333 91201 555 11008 22009;
0137997849999992012121410004+43783-069883FM-18+0002EB035V0202401N003019999999N9999999N1+00241+99999999999ADDSA1+0619UA1M990009999REMSYN104BBXX  44021 14101 99438 70700 46/// /2403 10024 91004 22200 00061 1//00 70002 333 91205 555 11038 22041;
0137997849999992012121411004+43783-069883FM-18+0002EB035V0202301N004019999999N9999999N1+00241+99999999999ADDSA1+0629UA1M990009999REMSYN104BBXX  44021 14111 99438 70700 46/// /2304 10024 91104 22200 00062 1//00 70001 333 91205 555 11049 22053;
0137997849999992012121412004+43783-069883FM-18+0002EB035V0202601N003019999999N9999999N1+00171+99999999999ADDSA1+0669UA1M990009999REMSYN104BBXX  44021 14121 99438 70700 46/// /2603 10017 91204 22200 00066 1//00 70001 333 91204 555 11041 22045;
0137997849999992012121413004+43783-069883FM-18+0002EB035V0202501N002019999999N9999999N1+00191+99999999999ADDSA1+0689UA1M990009999REMSYN104BBXX  44021 14131 99438 70700 46/// /2502 10019 91304 22200 00068 1//00 70001 333 91202 555 11021 22022;
0137997849999992012121414004+43783-069883FM-18+0002EB035V0202501N004019999999N9999999N1+00271+99999999999ADDSA1+0729UA1M990009999REMSYN104BBXX  44021 14141 99438 70700 46/// /2504 10027 91404 22200 00072 1//00 70001 333 91206 555 11051 22055;
0137997849999992012121415004+43783-069883FM-18+0002EB035V0202401N005019999999N9999999N1+00321+99999999999ADDSA1+0719UA1M990009999REMSYN104BBXX  44021 14151 99438 70700 46/// /2405 10032 91504 22200 00071 1//00 70001 333 91206 555 11055 22059;
0137997849999992012121416004+43783-069883FM-18+0002EB035V0202401N002019999999N9999999N1+00401+99999999999ADDSA1+0739UA1M990009999REMSYN104BBXX  44021 14161 99438 70700 46/// /2402 10040 91604 22200 00073 1//00 70001 333 91204 555 11028 22030;
0137997849999992012121417004+43783-069883FM-18+0002EB035V0202401N005019999999N9999999N1+00571+99999999999ADDSA1+0739UA1M990009999REMSYN104BBXX  44021 14171 99438 70700 46/// /2405 10057 91704 22200 00073 1//00 70002 333 91208 555 11059 22065;
0137997849999992012121418004+43783-069883FM-18+0002EB035V0202501N004019999999N9999999N1+00651+99999999999ADDSA1+0739UA1M040059999REMSYN104BBXX  44021 14181 99438 70700 46/// /2504 10065 91804 22200 00073 10401 70003 333 91206 555 11053 22058;
0137997849999992012121419004+43783-069883FM-18+0002EB035V0203001N003019999999N9999999N1+00751+99999999999ADDSA1+0729UA1M050059999REMSYN104BBXX  44021 14191 99438 70700 46/// /3003 10075 91904 22200 00072 10501 70003 333 91204 555 11038 22041;
0137997849999992012121420004+43783-069883FM-18+0002EB035V0203401N003019999999N9999999N1+00741+99999999999ADDSA1+0659UA1M050059999REMSYN104BBXX  44021 14201 99438 70700 46/// /3403 10074 92004 22200 00065 10501 70004 333 91204 555 11033 22036;
0137997849999992012121421004+43783-069883FM-18+0002EB035V0202901N002019999999N9999999N1+00651+99999999999ADDSA1+0619UA1M050059999REMSYN104BBXX  44021 14211 99438 70700 46/// /2902 10065 92104 22200 00061 10501 70003 333 91203 555 11029 22032;
0137997849999992012121422004+43783-069883FM-18+0002EB035V0201301N001019999999N9999999N1+00471+99999999999ADDSA1+0589UA1M990009999REMSYN104BBXX  44021 14221 99438 70700 46/// /1301 10047 92204 22200 00058 1//00 70002 333 91202 555 11015 22016;
0137997849999992012121423004+43783-069883FM-18+0002EB035V0203101N004019999999N9999999N1+00551+99999999999ADDSA1+0589UA1M990009999REMSYN104BBXX  44021 14231 99438 70700 46/// /3104 10055 92304 22200 00058 1//00 70002 333 91205 555 11051 22055;
0137997849999992012121500004+43783-069883FM-18+0002EB035V0203501N001019999999N9999999N1+00311+99999999999ADDSA1+0609UA1M990009999REMSYN104BBXX  44021 15001 99438 70700 46/// /3501 10031 90004 22200 00060 1//00 70002 333 91202 555 11012 22013;
0137997849999992012121501004+43783-069883FM-18+0002EB035V0203001N003019999999N9999999N1+00451+99999999999ADDSA1+0659UA1M990009999REMSYN104BBXX  44021 15011 99438 70700 46/// /3003 10045 90104 22200 00065 1//00 70001 333 91203 555 11034 22037;
0137997849999992012121502004+43783-069883FM-18+0002EB035V0203001N003019999999N9999999N1+00471+99999999999ADDSA1+0689UA1M990009999REMSYN104BBXX  44021 15021 99438 70700 46/// /3003 10047 90204 22200 00068 1//00 70001 333 91204 555 11035 22038;
0137997849999992012121503004+43783-069883FM-18+0002EB035V0203101N005019999999N9999999N1+00481+99999999999ADDSA1+0719UA1M990009999REMSYN104BBXX  44021 15031 99438 70700 46/// /3105 10048 90304 22200 00071 1//00 70001 333 91207 555 11058 22063;
0137997849999992012121504004+43783-069883FM-18+0002EB035V0203201N010019999999N9999999N1+00491+99999999999ADDSA1+0739UA1M990009999REMSYN104BBXX  44021 15041 99438 70700 46/// /3210 10049 90404 22200 00073 1//00 70002 333 91214 555 11123 22133;
0137997849999992012121505004+43783-069883FM-18+0002EB035V0203001N006019999999N9999999N1+00501+99999999999ADDSA1+0739UA1M990009999REMSYN104BBXX  44021 15051 99438 70700 46/// /3006 10050 90504 22200 00073 1//00 70001 333 91209 555 11070 22076;
0137997849999992012121506004+43783-069883FM-18+0002EB035V0202901N005019999999N9999999N1+00481+99999999999ADDSA1+0739UA1M990009999REMSYN104BBXX  44021 15061 99438 70700 46/// /2905 10048 90604 22200 00073 1//00 70001 333 91207 555 11059 22065;
0137997849999992012121507004+43783-069883FM-18+0002EB035V0203201N005019999999N9999999N1+00441+99999999999ADDSA1+0729UA1M990009999REMSYN104BBXX  44021 15071 99438 70700 46/// /3205 10044 90704 22200 00072 1//00 70001 333 91207 555 11063 22069;
0137997849999992012121508004+43783-069883FM-18+0002EB035V0203501N007019999999N9999999N1+00331+99999999999ADDSA1+0689UA1M990009999REMSYN104BBXX  44021 15081 99438 70700 46/// /3507 10033 90804 22200 00068 1//00 70001 333 91209 555 11086 22094;
0137997849999992012121509004+43783-069883FM-18+0002EB035V0203501N005019999999N9999999N1+00201+99999999999ADDSA1+0629UA1M990009999REMSYN104BBXX  44021 15091 99438 70700 46/// /3505 10020 90904 22200 00062 1//00 70001 333 91208 555 11058 22063;
0137997849999992012121510004+43783-069883FM-18+0002EB035V0203501N006019999999N9999999N1+00101+99999999999ADDSA1+0619UA1M990009999REMSYN104BBXX  44021 15101 99438 70700 46/// /3506 10010 91004 22200 00061 1//00 70001 333 91208 555 11067 22073;
0137997849999992012121511004+43783-069883FM-18+0002EB035V0203601N005019999999N9999999N1+00051+99999999999ADDSA1+0619UA1M990009999REMSYN104BBXX  44021 15111 99438 70700 46/// /3605 10005 91104 22200 00061 1//00 70001 333 91207 555 11063 22069;
0137997849999992012121512004+43783-069883FM-18+0002EB035V0203401N006019999999N9999999N1-00041+99999999999ADDSA1+0619UA1M990009999REMSYN104BBXX  44021 15121 99438 70700 46/// /3406 11004 91204 22200 00061 1//00 70000 333 91208 555 11074 22080;
0137997849999992012121513004+43783-069883FM-18+0002EB035V0203501N006019999999N9999999N1-00081+99999999999ADDSA1+0619UA1M990009999REMSYN104BBXX  44021 15131 99438 70700 46/// /3506 11008 91304 22200 00061 1//00 70000 333 91209 555 11076 22083;
0137997849999992012121514004+43783-069883FM-18+0002EB035V0200101N007019999999N9999999N1-00131+99999999999ADDSA1+0679UA1M990009999REMSYN104BBXX  44021 15141 99438 70700 46/// /0107 11013 91404 22200 00067 1//00 70001 333 91208 555 11080 22087;
0137997849999992012121515004+43783-069883FM-18+0002EB035V0200401N007019999999N9999999N1-00151+99999999999ADDSA1+0719UA1M990009999REMSYN104BBXX  44021 15151 99438 70700 46/// /0407 11015 91504 22200 00071 1//00 70002 333 91210 555 11090 22098;
0137997849999992012121516004+43783-069883FM-18+0002EB035V0200201N008019999999N9999999N1-00161+99999999999ADDSA1+0729UA1M990009999REMSYN104BBXX  44021 15161 99438 70700 46/// /0208 11016 91604 22200 00072 1//00 70002 333 91210 555 11092 22100;
0137997849999992012121517004+43783-069883FM-18+0002EB035V0200201N008019999999N9999999N1-00121+99999999999ADDSA1+0739UA1M990009999REMSYN104BBXX  44021 15171 99438 70700 46/// /0208 11012 91704 22200 00073 1//00 70002 333 91210 555 11091 22099;
0137997849999992012121518004+43783-069883FM-18+0002EB035V0200101N008019999999N9999999N1-00091+99999999999ADDSA1+0729UA1M990009999REMSYN104BBXX  44021 15181 99438 70700 46/// /0108 11009 91804 22200 00072 1//00 70002 333 91211 555 11097 22105;
0137997849999992012121519004+43783-069883FM-18+0002EB035V0200101N007019999999N9999999N1-00081+99999999999ADDSA1+0739UA1M990009999REMSYN104BBXX  44021 15191 99438 70700 46/// /0107 11008 91904 22200 00073 1//00 70002 333 91210 555 11087 22095;
0137997849999992012121520004+43783-069883FM-18+0002EB035V0200201N006019999999N9999999N1-00111+99999999999ADDSA1+0699UA1M990009999REMSYN104BBXX  44021 15201 99438 70700 46/// /0206 11011 92004 22200 00069 1//00 70001 333 91208 555 11074 22080;
0137997849999992012121521004+43783-069883FM-18+0002EB035V0200301N006019999999N9999999N1-00211+99999999999ADDSA1+0639UA1M990009999REMSYN104BBXX  44021 15211 99438 70700 46/// /0306 11021 92104 22200 00063 1//00 70001 333 91208 555 11076 22083;
0137997849999992012121522004+43783-069883FM-18+0002EB035V0200401N005019999999N9999999N1-00261+99999999999ADDSA1+0609UA1M990009999REMSYN104BBXX  44021 15221 99438 70700 46/// /0405 11026 92204 22200 00060 1//00 70000 333 91207 555 11066 22071;
0137997849999992012121523004+43783-069883FM-18+0002EB035V0200301N007019999999N9999999N1-00331+99999999999ADDSA1+0579UA1M990009999REMSYN104BBXX  44021 15231 99438 70700 46/// /0307 11033 92304 22200 00057 1//00 70000 333 91208 555 11081 22088;
0137997849999992012121600004+43783-069883FM-18+0002EB035V0200401N006019999999N9999999N1-00391+99999999999ADDSA1+0559UA1M990009999REMSYN104BBXX  44021 16001 99438 70700 46/// /0406 11039 90004 22200 00055 1//00 70001 333 91208 555 11076 22083;
0137997849999992012121601004+43783-069883FM-18+0002EB035V0200301N007019999999N9999999N1-00421+99999999999ADDSA1+0589UA1M990009999REMSYN104BBXX  44021 16011 99438 70700 46/// /0307 11042 90104 22200 00058 1//00 70001 333 91210 555 11090 22098;
0137997849999992012121602004+43783-069883FM-18+0002EB035V0200401N007019999999N9999999N1-00501+99999999999ADDSA1+0619UA1M990009999REMSYN104BBXX  44021 16021 99438 70700 46/// /0407 11050 90204 22200 00061 1//00 70001 333 91210 555 11084 22091;
0137997849999992012121603004+43783-069883FM-18+0002EB035V0200401N005019999999N9999999N1-00541+99999999999ADDSA1+0649UA1M990009999REMSYN104BBXX  44021 16031 99438 70700 46/// /0405 11054 90304 22200 00064 1//00 70001 333 91207 555 11062 22067;
0137997849999992012121604004+43783-069883FM-18+0002EB035V0200501N006019999999N9999999N1-00561+99999999999ADDSA1+0719UA1M990009999REMSYN104BBXX  44021 16041 99438 70700 46/// /0506 11056 90404 22200 00071 1//00 70002 333 91208 555 11076 22083;
0137997849999992012121605004+43783-069883FM-18+0002EB035V0200201N006019999999N9999999N1-00611+99999999999ADDSA1+0749UA1M990009999REMSYN104BBXX  44021 16051 99438 70700 46/// /0206 11061 90504 22200 00074 1//00 70001 333 91207 555 11068 22074;
0137997849999992012121606004+43783-069883FM-18+0002EB035V0200201N004019999999N9999999N1-00651+99999999999ADDSA1+0749UA1M990009999REMSYN104BBXX  44021 16061 99438 70700 46/// /0204 11065 90604 22200 00074 1//00 70001 333 91206 555 11051 22055;
0137997849999992012121607004+43783-069883FM-18+0002EB035V0200401N006019999999N9999999N1-00661+99999999999ADDSA1+0749UA1M990009999REMSYN104BBXX  44021 16071 99438 70700 46/// /0406 11066 90704 22200 00074 1//00 70001 333 91208 555 11074 22080;
0137997849999992012121608004+43783-069883FM-18+0002EB035V0200301N007019999999N9999999N1-00671+99999999999ADDSA1+0729UA1M990009999REMSYN104BBXX  44021 16081 99438 70700 46/// /0307 11067 90804 22200 00072 1//00 70001 333 91208 555 11079 22086;
0137997849999992012121609004+43783-069883FM-18+0002EB035V0200401N007019999999N9999999N1-00681+99999999999ADDSA1+0659UA1M990009999REMSYN104BBXX  44021 16091 99438 70700 46/// /0407 11068 90904 22200 00065 1//00 70001 333 91208 555 11081 22088;
0137997849999992012121610004+43783-069883FM-18+0002EB035V0200401N005019999999N9999999N1-00711+99999999999ADDSA1+0589UA1M990009999REMSYN104BBXX  44021 16101 99438 70700 46/// /0405 11071 91004 22200 00058 1//00 70000 333 91207 555 11059 22065;
0137997849999992012121611004+43783-069883FM-18+0002EB035V0200401N006019999999N9999999N1-00701+99999999999ADDSA1+0569UA1M990009999REMSYN104BBXX  44021 16111 99438 70700 46/// /0406 11070 91104 22200 00056 1//00 70000 333 91208 555 11072 22078;
0137997849999992012121612004+43783-069883FM-18+0002EB035V0200401N006019999999N9999999N1-00711+99999999999ADDSA1+0559UA1M990009999REMSYN104BBXX  44021 16121 99438 70700 46/// /0406 11071 91204 22200 00055 1//00 70001 333 91208 555 11075 22082;
0137997849999992012121613004+43783-069883FM-18+0002EB035V0200401N006019999999N9999999N1-00691+99999999999ADDSA1+0569UA1M990009999REMSYN104BBXX  44021 16131 99438 70700 46/// /0406 11069 91304 22200 00056 1//00 70001 333 91208 555 11078 22084;
0137997849999992012121614004+43783-069883FM-18+0002EB035V0200401N006019999999N9999999N1-00641+99999999999ADDSA1+0589UA1M990009999REMSYN104BBXX  44021 16141 99438 70700 46/// /0406 11064 91404 22200 00058 1//00 70001 333 91208 555 11075 22082;
0137997849999992012121615004+43783-069883FM-18+0002EB035V0200301N005019999999N9999999N1-00631+99999999999ADDSA1+0659UA1M990009999REMSYN104BBXX  44021 16151 99438 70700 46/// /0305 11063 91504 22200 00065 1//00 70001 333 91207 555 11063 22069;
0137997849999992012121616004+43783-069883FM-18+0002EB035V0200301N005019999999N9999999N1-00611+99999999999ADDSA1+0709UA1M990009999REMSYN104BBXX  44021 16161 99438 70700 46/// /0305 11061 91604 22200 00070 1//00 70001 333 91207 555 11057 22062;
0137997849999992012121617004+43783-069883FM-18+0002EB035V0200401N005019999999N9999999N1-00571+99999999999ADDSA1+0729UA1M990009999REMSYN104BBXX  44021 16171 99438 70700 46/// /0405 11057 91704 22200 00072 1//00 70001 333 91207 555 11063 22069;
0137997849999992012121618004+43783-069883FM-18+0002EB035V0200301N004019999999N9999999N1-00551+99999999999ADDSA1+0729UA1M990009999REMSYN104BBXX  44021 16181 99438 70700 46/// /0304 11055 91804 22200 00072 1//00 70001 333 91206 555 11052 22057;
0137997849999992012121619004+43783-069883FM-18+0002EB035V0200401N006019999999N9999999N1-00531+99999999999ADDSA1+0729UA1M990009999REMSYN104BBXX  44021 16191 99438 70700 46/// /0406 11053 91904 22200 00072 1//00 70001 333 91207 555 11067 22073;
0137997849999992012121620004+43783-069883FM-18+0002EB035V0200401N005019999999N9999999N1-00491+99999999999ADDSA1+0729UA1M990009999REMSYN104BBXX  44021 16201 99438 70700 46/// /0405 11049 92004 22200 00072 1//00 70000 333 91207 555 11056 22061;
0137997849999992012121621004+43783-069883FM-18+0002EB035V0200401N004019999999N9999999N1-00501+99999999999ADDSA1+0689UA1M990009999REMSYN104BBXX  44021 16211 99438 70700 46/// /0404 11050 92104 22200 00068 1//00 70000 333 91206 555 11047 22051;
0137997849999992012121622004+43783-069883FM-18+0002EB035V0200401N004019999999N9999999N1-00471+99999999999ADDSA1+0579UA1M990009999REMSYN104BBXX  44021 16221 99438 70700 46/// /0404 11047 92204 22200 00057 1//00 70001 333 91206 555 11053 22058;
0137997849999992012121623004+43783-069883FM-18+0002EB035V0203501N003019999999N9999999N1-00501+99999999999ADDSA1+0559UA1M990009999REMSYN104BBXX  44021 16231 99438 70700 46/// /3503 11050 92304 22200 00055 1//00 70000 333 91204 555 11040 22044;
0137997849999992012121700004+43783-069883FM-18+0002EB035V0200101N006019999999N9999999N1-00471+99999999999ADDSA1+0499UA1M990009999REMSYN104BBXX  44021 17001 99438 70700 46/// /0106 11047 90004 22200 00049 1//00 70000 333 91207 555 11067 22073;
0137997849999992012121701004+43783-069883FM-18+0002EB035V0200101N006019999999N9999999N1-00471+99999999999ADDSA1+0499UA1M990009999REMSYN104BBXX  44021 17011 99438 70700 46/// /0106 11047 90104 22200 00049 1//00 70001 333 91208 555 11076 22083;
0137997849999992012121702004+43783-069883FM-18+0002EB035V0200101N007019999999N9999999N1-00521+99999999999ADDSA1+0549UA1M990009999REMSYN104BBXX  44021 17021 99438 70700 46/// /0107 11052 90204 22200 00054 1//00 70001 333 91209 555 11084 22091;
0137997849999992012121703004+43783-069883FM-18+0002EB035V0200201N008019999999N9999999N1-00551+99999999999ADDSA1+0579UA1M990009999REMSYN104BBXX  44021 17031 99438 70700 46/// /0208 11055 90304 22200 00057 1//00 70002 333 91210 555 11097 22105;
0137997849999992012121704004+43783-069883FM-18+0002EB035V0200201N009019999999N9999999N1-00511+99999999999ADDSA1+0629UA1M990009999REMSYN104BBXX  44021 17041 99438 70700 46/// /0209 11051 90404 22200 00062 1//00 70002 333 91211 555 11107 22116;
0137997849999992012121705004+43783-069883FM-18+0002EB035V0200201N009019999999N9999999N1-00511+99999999999ADDSA1+0689UA1M990009999REMSYN104BBXX  44021 17051 99438 70700 46/// /0209 11051 90504 22200 00068 1//00 70002 333 91210 555 11107 22116;
0137997849999992012121706004+43783-069883FM-18+0002EB035V0200201N009019999999N9999999N1-00491+99999999999ADDSA1+0709UA1M020059999REMSYN104BBXX  44021 17061 99438 70700 46/// /0209 11049 90604 22200 00070 10201 70003 333 91211 555 11108 22117;
0137997849999992012121707004+43783-069883FM-18+0002EB035V0200201N009019999999N9999999N1-00451+99999999999ADDSA1+0699UA1M020059999REMSYN104BBXX  44021 17071 99438 70700 46/// /0209 11045 90704 22200 00069 10201 70003 333 91210 555 11106 22115;
0137997849999992012121708004+43783-069883FM-18+0002EB035V0200201N009019999999N9999999N1-00441+99999999999ADDSA1+0699UA1M020059999REMSYN104BBXX  44021 17081 99438 70700 46/// /0209 11044 90804 22200 00069 10201 70003 333 91211 555 11108 22117;
0137997849999992012121709004+43783-069883FM-18+0002EB035V0200301N010019999999N9999999N1-00391+99999999999ADDSA1+0699UA1M020059999REMSYN104BBXX  44021 17091 99438 70700 46/// /0310 11039 90904 22200 00069 10201 70003 333 91212 555 11115 22125;
0137997849999992012121710004+43783-069883FM-18+0002EB035V0200301N010019999999N9999999N1-00401+99999999999ADDSA1+0589UA1M990009999REMSYN104BBXX  44021 17101 99438 70700 46/// /0310 11040 91004 22200 00058 1//00 70002 333 91211 555 11115 22125;
0111997849999992012121711004+43783-069883FM-18+0002EB035V02099999999999999999N9999999N1-00391+99999999999ADDSA1+0539UA1M990009999REMSYN078BBXX  44021 17111 99438 70700 46/// ///// 11039 91104 22200 00053 1//00 70002;
0137997849999992012121712004+43783-069883FM-18+0002EB035V0200201N009019999999N9999999N1-00371+99999999999ADDSA1+0509UA1M990009999REMSYN104BBXX  44021 17121 99438 70700 46/// /0209 11037 91204 22200 00050 1//00 70002 333 91211 555 11110 22120;
0137997849999992012121713004+43783-069883FM-18+0002EB035V0200201N009019999999N9999999N1-00341+99999999999ADDSA1+0499UA1M990009999REMSYN104BBXX  44021 17131 99438 70700 46/// /0209 11034 91304 22200 00049 1//00 70002 333 91210 555 11103 22112;
0137997849999992012121714004+43783-069883FM-18+0002EB035V0200201N009019999999N9999999N1-00301+99999999999ADDSA1+0529UA1M020059999REMSYN104BBXX  44021 17141 99438 70700 46/// /0209 11030 91404 22200 00052 10201 70003 333 91211 555 11107 22116;
0137997849999992012121715004+43783-069883FM-18+0002EB035V0200301N010019999999N9999999N1-00291+99999999999ADDSA1+0569UA1M030059999REMSYN104BBXX  44021 17151 99438 70700 46/// /0310 11029 91504 22200 00056 10301 70003 333 91212 555 11118 22128;
0137997849999992012121716004+43783-069883FM-18+0002EB035V0200301N009019999999N9999999N1-00281+99999999999ADDSA1+0649UA1M030059999REMSYN104BBXX  44021 17161 99438 70700 46/// /0309 11028 91604 22200 00064 10301 70003 333 91211 555 11112 22121;
0137997849999992012121717004+43783-069883FM-18+0002EB035V0200301N009019999999N9999999N1-00251+99999999999ADDSA1+0659UA1M030059999REMSYN104BBXX  44021 17171 99438 70700 46/// /0309 11025 91704 22200 00065 10301 70003 333 91210 555 11104 22113;
0137997849999992012121718004+43783-069883FM-18+0002EB035V0200301N008019999999N9999999N1-00221+99999999999ADDSA1+0679UA1M020059999REMSYN104BBXX  44021 17181 99438 70700 46/// /0308 11022 91804 22200 00067 10201 70003 333 91209 555 11095 22103;
0137997849999992012121719004+43783-069883FM-18+0002EB035V0200201N008019999999N9999999N1-00211+99999999999ADDSA1+0679UA1M990009999REMSYN104BBXX  44021 17191 99438 70700 46/// /0208 11021 91904 22200 00067 1//00 70002 333 91209 555 11092 22100;
0137997849999992012121720004+43783-069883FM-18+0002EB035V0200201N007019999999N9999999N1-00131+99999999999ADDSA1+0679UA1M990009999REMSYN104BBXX  44021 17201 99438 70700 46/// /0207 11013 92004 22200 00067 1//00 70002 333 91208 555 11082 22090;
0137997849999992012121721004+43783-069883FM-18+0002EB035V0200201N007019999999N9999999N1-00071+99999999999ADDSA1+0669UA1M990009999REMSYN104BBXX  44021 17211 99438 70700 46/// /0207 11007 92104 22200 00066 1//00 70001 333 91208 555 11081 22088;
0111997849999992012121722004+43783-069883FM-18+0002EB035V02099999999999999999N9999999N1-00051+99999999999ADDSA1+0639UA1M990009999REMSYN078BBXX  44021 17221 99438 70700 46/// ///// 11005 92204 22200 00063 1//00 70001;
0111997849999992012121723004+43783-069883FM-18+0002EB035V02099999999999999999N9999999N1-00051+99999999999ADDSA1+0549UA1M990009999REMSYN078BBXX  44021 17231 99438 70700 46/// ///// 11005 92304 22200 00054 1//00 70001;
0111997849999992012121800004+43783-069883FM-18+0002EB035V02099999999999999999N9999999N1-00011+99999999999ADDSA1+0519UA1M990009999REMSYN078BBXX  44021 18001 99438 70700 46/// ///// 11001 90004 22200 00051 1//00 70001;
0111997849999992012121801004+43783-069883FM-18+0002EB035V02099999999999999999N9999999N1+00011+99999999999ADDSA1+0509UA1M990009999REMSYN078BBXX  44021 18011 99438 70700 46/// ///// 10001 90104 22200 00050 1//00 70001;
0111997849999992012121802004+43783-069883FM-18+0002EB035V02099999999999999999N9999999N1+00001+99999999999ADDSA1+0509UA1M990009999REMSYN078BBXX  44021 18021 99438 70700 46/// ///// 10000 90204 22200 00050 1//00 70001;
0111997849999992012121803004+43783-069883FM-18+0002EB035V02099999999999999999N9999999N1+00031+99999999999ADDSA1+0509UA1M990009999REMSYN078BBXX  44021 18031 99438 70700 46/// ///// 10003 90304 22200 00050 1//00 70001;
0111997849999992012121804004+43783-069883FM-18+0002EB035V02099999999999999999N9999999N1+00061+99999999999ADDSA1+0589UA1M990009999REMSYN078BBXX  44021 18041 99438 70700 46/// ///// 10006 90404 22200 00058 1//00 70002;
0137997849999992012121805004+43783-069883FM-18+0002EB035V0200301N008019999999N9999999N1+00101+99999999999ADDSA1+0639UA1M990009999REMSYN104BBXX  44021 18051 99438 70700 46/// /0308 10010 90504 22200 00063 1//00 70002 333 91213 555 11095 22103;
0137997849999992012121806004+43783-069883FM-18+0002EB035V0200201N008019999999N9999999N1+00131+99999999999ADDSA1+0669UA1M990009999REMSYN104BBXX  44021 18061 99438 70700 46/// /0208 10013 90604 22200 00066 1//00 70002 333 91209 555 11093 22102;
0137997849999992012121807004+43783-069883FM-18+0002EB035V0200301N008019999999N9999999N1+00181+99999999999ADDSA1+0659UA1M020059999REMSYN104BBXX  44021 18071 99438 70700 46/// /0308 10018 90704 22200 00065 10201 70003 333 91210 555 11098 22107;
0137997849999992012121808004+43783-069883FM-18+0002EB035V0200301N006019999999N9999999N1+00251+99999999999ADDSA1+0669UA1M990009999REMSYN104BBXX  44021 18081 99438 70700 46/// /0306 10025 90804 22200 00066 1//00 70002 333 91207 555 11078 22084;
0137997849999992012121809004+43783-069883FM-18+0002EB035V0200301N006019999999N9999999N1+00301+99999999999ADDSA1+0669UA1M990009999REMSYN104BBXX  44021 18091 99438 70700 46/// /0306 10030 90904 22200 00066 1//00 70001 333 91208 555 11078 22084;
0137997849999992012121810004+43783-069883FM-18+0002EB035V0200701N007019999999N9999999N1+00641+99999999999ADDSA1+0659UA1M990009999REMSYN104BBXX  44021 18101 99438 70700 46/// /0707 10064 91004 22200 00065 1//00 70001 333 91210 555 11086 22094;
0137997849999992012121811004+43783-069883FM-18+0002EB035V0200701N007019999999N9999999N1+00681+99999999999ADDSA1+0639UA1M990009999REMSYN104BBXX  44021 18111 99438 70700 46/// /0707 10068 91104 22200 00063 1//00 70001 333 91211 555 11089 22096;
0137997849999992012121812004+43783-069883FM-18+0002EB035V0200701N008019999999N9999999N1+00691+99999999999ADDSA1+0539UA1M990009999REMSYN104BBXX  44021 18121 99438 70700 46/// /0708 10069 91204 22200 00053 1//00 70001 333 91211 555 11093 22102;
0137997849999992012121813004+43783-069883FM-18+0002EB035V0200701N008019999999N9999999N1+00721+99999999999ADDSA1+0529UA1M990009999REMSYN104BBXX  44021 18131 99438 70700 46/// /0708 10072 91304 22200 00052 1//00 70001 333 91214 555 11097 22105;
0137997849999992012121814004+43783-069883FM-18+0002EB035V0200801N008019999999N9999999N1+00751+99999999999ADDSA1+0529UA1M990009999REMSYN104BBXX  44021 18141 99438 70700 46/// /0808 10075 91404 22200 00052 1//00 70001 333 91212 555 11101 22109;
0137997849999992012121815004+43783-069883FM-18+0002EB035V0200901N009019999999N9999999N1+00791+99999999999ADDSA1+0539UA1M990009999REMSYN104BBXX  44021 18151 99438 70700 46/// /0909 10079 91504 22200 00053 1//00 70002 333 91215 555 11112 22121;
0137997849999992012121816004+43783-069883FM-18+0002EB035V0200801N009019999999N9999999N1+00771+99999999999ADDSA1+0549UA1M990009999REMSYN104BBXX  44021 18161 99438 70700 46/// /0809 10077 91604 22200 00054 1//00 70002 333 91215 555 11110 22120;
0137997849999992012121817004+43783-069883FM-18+0002EB035V0200801N008019999999N9999999N1+00761+99999999999ADDSA1+0639UA1M990009999REMSYN104BBXX  44021 18171 99438 70700 46/// /0808 10076 91704 22200 00063 1//00 70002 333 91212 555 11098 22107;
0137997849999992012121818004+43783-069883FM-18+0002EB035V0200801N007019999999N9999999N1+00771+99999999999ADDSA1+0659UA1M990009999REMSYN104BBXX  44021 18181 99438 70700 46/// /0807 10077 91804 22200 00065 1//00 70002 333 91211 555 11089 22096;
0137997849999992012121819004+43783-069883FM-18+0002EB035V0200801N008019999999N9999999N1+00801+99999999999ADDSA1+0689UA1M990009999REMSYN104BBXX  44021 18191 99438 70700 46/// /0808 10080 91904 22200 00068 1//00 70002 333 91210 555 11095 22103;
0137997849999992012121820004+43783-069883FM-18+0002EB035V0200801N008019999999N9999999N1+00821+99999999999ADDSA1+0699UA1M990009999REMSYN104BBXX  44021 18201 99438 70700 46/// /0808 10082 92004 22200 00069 1//00 70002 333 91212 555 11097 22105;
0137997849999992012121821004+43783-069883FM-18+0002EB035V0200801N008019999999N9999999N1+00831+99999999999ADDSA1+0699UA1M990009999REMSYN104BBXX  44021 18211 99438 70700 46/// /0808 10083 92104 22200 00069 1//00 70002 333 91212 555 11092 22100;
0137997849999992012121822004+43783-069883FM-18+0002EB035V0200701N007019999999N9999999N1+00801+99999999999ADDSA1+0679UA1M990009999REMSYN104BBXX  44021 18221 99438 70700 46/// /0707 10080 92204 22200 00067 1//00 70002 333 91210 555 11085 22092;
0137997849999992012121823004+43783-069883FM-18+0002EB035V0200601N008019999999N9999999N1+00781+99999999999ADDSA1+0639UA1M990009999REMSYN104BBXX  44021 18231 99438 70700 46/// /0608 10078 92304 22200 00063 1//00 70002 333 91211 555 11091 22099;
0137997849999992012121900004+43783-069883FM-18+0002EB035V0200601N008019999999N9999999N1+00771+99999999999ADDSA1+0549UA1M990009999REMSYN104BBXX  44021 19001 99438 70700 46/// /0608 10077 90004 22200 00054 1//00 70001 333 91212 555 11096 22104;
0137997849999992012121901004+43783-069883FM-18+0002EB035V0200601N008019999999N9999999N1+00771+99999999999ADDSA1+0529UA1M990009999REMSYN104BBXX  44021 19011 99438 70700 46/// /0608 10077 90104 22200 00052 1//00 70001 333 91210 555 11091 22099;
0137997849999992012121902004+43783-069883FM-18+0002EB035V0200501N008019999999N9999999N1+00741+99999999999ADDSA1+0519UA1M990009999REMSYN104BBXX  44021 19021 99438 70700 46/// /0508 10074 90204 22200 00051 1//00 70001 333 91211 555 11093 22102;
0137997849999992012121903004+43783-069883FM-18+0002EB035V0200301N008019999999N9999999N1+00601+99999999999ADDSA1+0519UA1M990009999REMSYN104BBXX  44021 19031 99438 70700 46/// /0308 10060 90304 22200 00051 1//00 70002 333 91210 555 11095 22103;
0137997849999992012121904004+43783-069883FM-18+0002EB035V0200201N008019999999N9999999N1+00501+99999999999ADDSA1+0519UA1M990009999REMSYN104BBXX  44021 19041 99438 70700 46/// /0208 10050 90404 22200 00051 1//00 70002 333 91210 555 11098 22107;
0137997849999992012121905004+43783-069883FM-18+0002EB035V0200201N008019999999N9999999N1+00411+99999999999ADDSA1+0559UA1M990009999REMSYN104BBXX  44021 19051 99438 70700 46/// /0208 10041 90504 22200 00055 1//00 70002 333 91209 555 11096 22104;
0137997849999992012121906004+43783-069883FM-18+0002EB035V0200101N008019999999N9999999N1+00341+99999999999ADDSA1+0639UA1M020059999REMSYN104BBXX  44021 19061 99438 70700 46/// /0108 10034 90604 22200 00063 10201 70003 333 91210 555 11098 22107;
0137997849999992012121907004+43783-069883FM-18+0002EB035V0200101N008019999999N9999999N1+00331+99999999999ADDSA1+0649UA1M990009999REMSYN104BBXX  44021 19071 99438 70700 46/// /0108 10033 90704 22200 00064 1//00 70002 333 91210 555 11095 22103;
0137997849999992012121908004+43783-069883FM-18+0002EB035V0203601N008019999999N9999999N1+00311+99999999999ADDSA1+0699UA1M990009999REMSYN104BBXX  44021 19081 99438 70700 46/// /3608 10031 90804 22200 00069 1//00 70002 333 91210 555 11092 22100;
0137997849999992012121909004+43783-069883FM-18+0002EB035V0203501N008019999999N9999999N1+00311+99999999999ADDSA1+0729UA1M990009999REMSYN104BBXX  44021 19091 99438 70700 46/// /3508 10031 90904 22200 00072 1//00 70002 333 91211 555 11099 22108;
0137997849999992012121910004+43783-069883FM-18+0002EB035V0203401N008019999999N9999999N1+00281+99999999999ADDSA1+0709UA1M990009999REMSYN104BBXX  44021 19101 99438 70700 46/// /3408 10028 91004 22200 00070 1//00 70001 333 91210 555 11096 22104;
0137997849999992012121911004+43783-069883FM-18+0002EB035V0203401N008019999999N9999999N1+00251+99999999999ADDSA1+0579UA1M990009999REMSYN104BBXX  44021 19111 99438 70700 46/// /3408 10025 91104 22200 00057 1//00 70001 333 91210 555 11097 22105;
0137997849999992012121912004+43783-069883FM-18+0002EB035V0203401N010019999999N9999999N1+00241+99999999999ADDSA1+0549UA1M990009999REMSYN104BBXX  44021 19121 99438 70700 46/// /3410 10024 91204 22200 00054 1//00 70002 333 91213 555 11123 22133;
0137997849999992012121913004+43783-069883FM-18+0002EB035V0203501N009019999999N9999999N1+00231+99999999999ADDSA1+0529UA1M990009999REMSYN104BBXX  44021 19131 99438 70700 46/// /3509 10023 91304 22200 00052 1//00 70002 333 91213 555 11114 22124;
0137997849999992012121914004+43783-069883FM-18+0002EB035V0203501N010019999999N9999999N1+00221+99999999999ADDSA1+0499UA1M990009999REMSYN104BBXX  44021 19141 99438 70700 46/// /3510 10022 91404 22200 00049 1//00 70002 333 91214 555 11115 22125;
0137997849999992012121915004+43783-069883FM-18+0002EB035V0203501N009019999999N9999999N1+00221+99999999999ADDSA1+0499UA1M020059999REMSYN104BBXX  44021 19151 99438 70700 46/// /3509 10022 91504 22200 00049 10201 70003 333 91213 555 11112 22121;
0137997849999992012121916004+43783-069883FM-18+0002EB035V0203501N009019999999N9999999N1+00231+99999999999ADDSA1+0509UA1M020059999REMSYN104BBXX  44021 19161 99438 70700 46/// /3509 10023 91604 22200 00050 10201 70003 333 91212 555 11112 22121;
0137997849999992012121917004+43783-069883FM-18+0002EB035V0203501N009019999999N9999999N1+00281+99999999999ADDSA1+0519UA1M020059999REMSYN104BBXX  44021 19171 99438 70700 46/// /3509 10028 91704 22200 00051 10201 70003 333 91213 555 11109 22119;
0137997849999992012121918004+43783-069883FM-18+0002EB035V0203601N009019999999N9999999N1+00321+99999999999ADDSA1+0569UA1M030059999REMSYN104BBXX  44021 19181 99438 70700 46/// /3609 10032 91804 22200 00056 10301 70003 333 91213 555 11109 22119;
0137997849999992012121919004+43783-069883FM-18+0002EB035V0203501N008019999999N9999999N1+00341+99999999999ADDSA1+0659UA1M030059999REMSYN104BBXX  44021 19191 99438 70700 46/// /3508 10034 91904 22200 00065 10301 70003 333 91211 555 11099 22108;
0137997849999992012121920004+43783-069883FM-18+0002EB035V0203501N008019999999N9999999N1+00371+99999999999ADDSA1+0669UA1M990009999REMSYN104BBXX  44021 19201 99438 70700 46/// /3508 10037 92004 22200 00066 1//00 70002 333 91211 555 11098 22107;
0137997849999992012121921004+43783-069883FM-18+0002EB035V0203501N007019999999N9999999N1+00341+99999999999ADDSA1+0669UA1M990009999REMSYN104BBXX  44021 19211 99438 70700 46/// /3507 10034 92104 22200 00066 1//00 70002 333 91210 555 11086 22094;
0137997849999992012121922004+43783-069883FM-18+0002EB035V0203501N008019999999N9999999N1+00331+99999999999ADDSA1+0669UA1M990009999REMSYN104BBXX  44021 19221 99438 70700 46/// /3508 10033 92204 22200 00066 1//00 70001 333 91210 555 11093 22102;
0137997849999992012121923004+43783-069883FM-18+0002EB035V0203501N007019999999N9999999N1+00321+99999999999ADDSA1+0649UA1M990009999REMSYN104BBXX  44021 19231 99438 70700 46/// /3507 10032 92304 22200 00064 1//00 70001 333 91209 555 11089 22096;
0137997849999992012122000004+43783-069883FM-18+0002EB035V0203601N008019999999N9999999N1+00311+99999999999ADDSA1+0539UA1M990009999REMSYN104BBXX  44021 20001 99438 70700 46/// /3608 10031 90004 22200 00053 1//00 70001 333 91210 555 11093 22102;
0137997849999992012122001004+43783-069883FM-18+0002EB035V0203601N007019999999N9999999N1+00301+99999999999ADDSA1+0529UA1M990009999REMSYN104BBXX  44021 20011 99438 70700 46/// /3607 10030 90104 22200 00052 1//00 70001 333 91210 555 11087 22095;
0137997849999992012122002004+43783-069883FM-18+0002EB035V0203601N007019999999N9999999N1+00311+99999999999ADDSA1+0509UA1M990009999REMSYN104BBXX  44021 20021 99438 70700 46/// /3607 10031 90204 22200 00050 1//00 70001 333 91210 555 11089 22096;
0137997849999992012122003004+43783-069883FM-18+0002EB035V0203601N006019999999N9999999N1+00281+99999999999ADDSA1+0499UA1M990009999REMSYN104BBXX  44021 20031 99438 70700 46/// /3606 10028 90304 22200 00049 1//00 70001 333 91208 555 11076 22083;
0137997849999992012122004004+43783-069883FM-18+0002EB035V0200101N005019999999N9999999N1+00251+99999999999ADDSA1+0499UA1M990009999REMSYN104BBXX  44021 20041 99438 70700 46/// /0105 10025 90404 22200 00049 1//00 70001 333 91207 555 11064 22070;
0137997849999992012122005004+43783-069883FM-18+0002EB035V0203601N005019999999N9999999N1+00241+99999999999ADDSA1+0509UA1M990009999REMSYN104BBXX  44021 20051 99438 70700 46/// /3605 10024 90504 22200 00050 1//00 70001 333 91207 555 11064 22070;
0137997849999992012122006004+43783-069883FM-18+0002EB035V0200101N006019999999N9999999N1+00221+99999999999ADDSA1+0549UA1M990009999REMSYN104BBXX  44021 20061 99438 70700 46/// /0106 10022 90604 22200 00054 1//00 70001 333 91207 555 11068 22074;
0137997849999992012122007004+43783-069883FM-18+0002EB035V0203601N005019999999N9999999N1+00211+99999999999ADDSA1+0599UA1M990009999REMSYN104BBXX  44021 20071 99438 70700 46/// /3605 10021 90704 22200 00059 1//00 70001 333 91207 555 11059 22065;
0137997849999992012122008004+43783-069883FM-18+0002EB035V0200101N006019999999N9999999N1+00211+99999999999ADDSA1+0659UA1M990009999REMSYN104BBXX  44021 20081 99438 70700 46/// /0106 10021 90804 22200 00065 1//00 70001 333 91207 555 11067 22073;
0137997849999992012122009004+43783-069883FM-18+0002EB035V0200101N005019999999N9999999N1+00171+99999999999ADDSA1+0659UA1M990009999REMSYN104BBXX  44021 20091 99438 70700 46/// /0105 10017 90904 22200 00065 1//00 70001 333 91206 555 11055 22059;
0137997849999992012122010004+43783-069883FM-18+0002EB035V0200201N006019999999N9999999N1+00151+99999999999ADDSA1+0659UA1M990009999REMSYN104BBXX  44021 20101 99438 70700 46/// /0206 10015 91004 22200 00065 1//00 70001 333 91207 555 11067 22073;
0137997849999992012122011004+43783-069883FM-18+0002EB035V0200201N005019999999N9999999N1+00121+99999999999ADDSA1+0649UA1M990009999REMSYN104BBXX  44021 20111 99438 70700 46/// /0205 10012 91104 22200 00064 1//00 70001 333 91207 555 11064 22070;
0137997849999992012122012004+43783-069883FM-18+0002EB035V0200101N005019999999N9999999N1+00081+99999999999ADDSA1+0639UA1M990009999REMSYN104BBXX  44021 20121 99438 70700 46/// /0105 10008 91204 22200 00063 1//00 70001 333 91206 555 11056 22061;
0137997849999992012122013004+43783-069883FM-18+0002EB035V0200101N004019999999N9999999N1+00111+99999999999ADDSA1+0539UA1M990009999REMSYN104BBXX  44021 20131 99438 70700 46/// /0104 10011 91304 22200 00053 1//00 70001 333 91205 555 11042 22046;
0137997849999992012122014004+43783-069883FM-18+0002EB035V0200201N005019999999N9999999N1+00151+99999999999ADDSA1+0519UA1M990009999REMSYN104BBXX  44021 20141 99438 70700 46/// /0205 10015 91404 22200 00051 1//00 70001 333 91206 555 11063 22069;
0137997849999992012122015004+43783-069883FM-18+0002EB035V0200101N005019999999N9999999N1+00221+99999999999ADDSA1+0499UA1M990009999REMSYN104BBXX  44021 20151 99438 70700 46/// /0105 10022 91504 22200 00049 1//00 70001 333 91207 555 11057 22062;
0137997849999992012122016004+43783-069883FM-18+0002EB035V0203601N005019999999N9999999N1+00221+99999999999ADDSA1+0489UA1M990009999REMSYN104BBXX  44021 20161 99438 70700 46/// /3605 10022 91604 22200 00048 1//00 70001 333 91207 555 11063 22069;
0137997849999992012122017004+43783-069883FM-18+0002EB035V0200501N003019999999N9999999N1+00271+99999999999ADDSA1+0499UA1M990009999REMSYN104BBXX  44021 20171 99438 70700 46/// /0503 10027 91704 22200 00049 1//00 70001 333 91205 555 11038 22041;
0137997849999992012122018004+43783-069883FM-18+0002EB035V0200501N004019999999N9999999N1+00301+99999999999ADDSA1+0519UA1M990009999REMSYN104BBXX  44021 20181 99438 70700 46/// /0504 10030 91804 22200 00051 1//00 70001 333 91205 555 11046 22050;
0137997849999992012122019004+43783-069883FM-18+0002EB035V0200501N004019999999N9999999N1+00311+99999999999ADDSA1+0549UA1M990009999REMSYN104BBXX  44021 20191 99438 70700 46/// /0504 10031 91904 22200 00054 1//00 70001 333 91206 555 11053 22058;
0137997849999992012122020004+43783-069883FM-18+0002EB035V0200601N003019999999N9999999N1+00321+99999999999ADDSA1+0619UA1M990009999REMSYN104BBXX  44021 20201 99438 70700 46/// /0603 10032 92004 22200 00061 1//00 70001 333 91204 555 11039 22042;
0137997849999992012122021004+43783-069883FM-18+0002EB035V0200701N004019999999N9999999N1+00231+99999999999ADDSA1+0629UA1M990009999REMSYN104BBXX  44021 20211 99438 70700 46/// /0704 10023 92104 22200 00062 1//00 70001 333 91205 555 11046 22050;
0137997849999992012122022004+43783-069883FM-18+0002EB035V0200601N003019999999N9999999N1+00181+99999999999ADDSA1+0669UA1M990009999REMSYN104BBXX  44021 20221 99438 70700 46/// /0603 10018 92204 22200 00066 1//00 70001 333 91203 555 11034 22037;
0137997849999992012122023004+43783-069883FM-18+0002EB035V0200501N003019999999N9999999N1+00141+99999999999ADDSA1+0659UA1M990009999REMSYN104BBXX  44021 20231 99438 70700 46/// /0503 10014 92304 22200 00065 1//00 70001 333 91204 555 11035 22038;
0137997849999992012122100004+43783-069883FM-18+0002EB035V0200601N004019999999N9999999N1+00091+99999999999ADDSA1+0609UA1M990009999REMSYN104BBXX  44021 21001 99438 70700 46/// /0604 10009 90004 22200 00060 1//00 70001 333 91205 555 11053 22058;
0137997849999992012122101004+43783-069883FM-18+0002EB035V0200501N003019999999N9999999N1+00091+99999999999ADDSA1+0549UA1M990009999REMSYN104BBXX  44021 21011 99438 70700 46/// /0503 10009 90104 22200 00054 1//00 70001 333 91204 555 11041 22045;
0137997849999992012122102004+43783-069883FM-18+0002EB035V0200501N003019999999N9999999N1+00131+99999999999ADDSA1+0519UA1M990009999REMSYN104BBXX  44021 21021 99438 70700 46/// /0503 10013 90204 22200 00051 1//00 70001 333 91204 555 11035 22038;
0137997849999992012122103004+43783-069883FM-18+0002EB035V0200501N004019999999N9999999N1+00121+99999999999ADDSA1+0499UA1M990009999REMSYN104BBXX  44021 21031 99438 70700 46/// /0504 10012 90304 22200 00049 1//00 70001 333 91206 555 11053 22058;
0137997849999992012122104004+43783-069883FM-18+0002EB035V0200401N005019999999N9999999N1+00091+99999999999ADDSA1+0509UA1M990009999REMSYN104BBXX  44021 21041 99438 70700 46/// /0405 10009 90404 22200 00050 1//00 70001 333 91206 555 11055 22059;
0137997849999992012122105004+43783-069883FM-18+0002EB035V0200401N004019999999N9999999N1+00051+99999999999ADDSA1+0509UA1M990009999REMSYN104BBXX  44021 21051 99438 70700 46/// /0404 10005 90504 22200 00050 1//00 70001 333 91206 555 11053 22058;
0137997849999992012122106004+43783-069883FM-18+0002EB035V0200501N004019999999N9999999N1+00041+99999999999ADDSA1+0509UA1M990009999REMSYN104BBXX  44021 21061 99438 70700 46/// /0504 10004 90604 22200 00050 1//00 70001 333 91205 555 11052 22057;
0137997849999992012122107004+43783-069883FM-18+0002EB035V0200601N005019999999N9999999N1+00061+99999999999ADDSA1+0529UA1M990009999REMSYN104BBXX  44021 21071 99438 70700 46/// /0605 10006 90704 22200 00052 1//00 70001 333 91206 555 11059 22065;
0137997849999992012122108004+43783-069883FM-18+0002EB035V0200601N005019999999N9999999N1+00081+99999999999ADDSA1+0559UA1M990009999REMSYN104BBXX  44021 21081 99438 70700 46/// /0605 10008 90804 22200 00055 1//00 70001 333 91207 555 11066 22071;
0137997849999992012122109004+43783-069883FM-18+0002EB035V0200501N005019999999N9999999N1+00141+99999999999ADDSA1+0629UA1M990009999REMSYN104BBXX  44021 21091 99438 70700 46/// /0505 10014 90904 22200 00062 1//00 70002 333 91206 555 11061 22066;
0137997849999992012122110004+43783-069883FM-18+0002EB035V0200401N005019999999N9999999N1+00171+99999999999ADDSA1+0649UA1M990009999REMSYN104BBXX  44021 21101 99438 70700 46/// /0405 10017 91004 22200 00064 1//00 70001 333 91206 555 11059 22065;
0137997849999992012122111004+43783-069883FM-18+0002EB035V0201301N006019999999N9999999N1+00521+99999999999ADDSA1+0659UA1M990009999REMSYN104BBXX  44021 21111 99438 70700 46/// /1306 10052 91104 22200 00065 1//00 70001 333 91210 555 11074 22080;
0137997849999992012122112004+43783-069883FM-18+0002EB035V0201201N008019999999N9999999N1+00591+99999999999ADDSA1+0639UA1M990009999REMSYN104BBXX  44021 21121 99438 70700 46/// /1208 10059 91204 22200 00063 1//00 70001 333 91211 555 11095 22103;
0137997849999992012122113004+43783-069883FM-18+0002EB035V0201101N007019999999N9999999N1+00621+99999999999ADDSA1+0629UA1M990009999REMSYN104BBXX  44021 21131 99438 70700 46/// /1107 10062 91304 22200 00062 1//00 70001 333 91212 555 11089 22096;
0137997849999992012122114004+43783-069883FM-18+0002EB035V0201201N010019999999N9999999N1+00711+99999999999ADDSA1+0589UA1M990009999REMSYN104BBXX  44021 21141 99438 70700 46/// /1210 10071 91404 22200 00058 1//00 70001 333 91214 555 11115 22125;
0137997849999992012122115004+43783-069883FM-18+0002EB035V0201301N009019999999N9999999N1+00751+99999999999ADDSA1+0529UA1M990009999REMSYN104BBXX  44021 21151 99438 70700 46/// /1309 10075 91504 22200 00052 1//00 70002 333 91214 555 11109 22119;
0137997849999992012122116004+43783-069883FM-18+0002EB035V0201101N009019999999N9999999N1+00781+99999999999ADDSA1+0509UA1M990009999REMSYN104BBXX  44021 21161 99438 70700 46/// /1109 10078 91604 22200 00050 1//00 70002 333 91214 555 11108 22117;
0137997849999992012122117004+43783-069883FM-18+0002EB035V0201001N010019999999N9999999N1+00801+99999999999ADDSA1+0499UA1M990009999REMSYN104BBXX  44021 21171 99438 70700 46/// /1010 10080 91704 22200 00049 1//00 70001 333 91215 555 11120 22131;
0137997849999992012122118004+43783-069883FM-18+0002EB035V0201001N010019999999N9999999N1+00871+99999999999ADDSA1+0509UA1M990009999REMSYN104BBXX  44021 21181 99438 70700 46/// /1010 10087 91804 22200 00050 1//00 70001 333 91216 555 11126 22137;
0137997849999992012122119004+43783-069883FM-18+0002EB035V0201101N011019999999N9999999N1+00951+99999999999ADDSA1+0549UA1M990009999REMSYN104BBXX  44021 21191 99438 70700 46/// /1111 10095 91904 22200 00054 1//00 70002 333 91217 555 11138 22150;
0137997849999992012122120004+43783-069883FM-18+0002EB035V0201201N014019999999N9999999N1+01001+99999999999ADDSA1+0629UA1M990009999REMSYN104BBXX  44021 21201 99438 70700 46/// /1214 10100 92004 22200 00062 1//00 70002 333 91221 555 11171 22186;
0137997849999992012122121004+43783-069883FM-18+0002EB035V0201201N014019999999N9999999N1+01011+99999999999ADDSA1+0679UA1M990009999REMSYN104BBXX  44021 21211 99438 70700 46/// /1214 10101 92104 22200 00067 1//00 70002 333 91221 555 11172 22187;
0137997849999992012122122004+43783-069883FM-18+0002EB035V0201201N014019999999N9999999N1+01021+99999999999ADDSA1+0679UA1M050059999REMSYN104BBXX  44021 21221 99438 70700 46/// /1214 10102 92204 22200 00067 10501 70003 333 91221 555 11169 22183;
0137997849999992012122123004+43783-069883FM-18+0002EB035V0201401N006019999999N9999999N1+00851+99999999999ADDSA1+0659UA1M050059999REMSYN104BBXX  44021 21231 99438 70700 46/// /1406 10085 92304 22200 00065 10501 70003 333 91209 555 11076 22083;
0137997849999992012122200004+43783-069883FM-18+0002EB035V0201401N008019999999N9999999N1+00921+99999999999ADDSA1+0669UA1M050059999REMSYN104BBXX  44021 22001 99438 70700 46/// /1408 10092 90004 22200 00066 10501 70003 333 91210 555 11091 22099;
0137997849999992012122201004+43783-069883FM-18+0002EB035V0201901N010019999999N9999999N1+00881+99999999999ADDSA1+0689UA1M020059999REMSYN104BBXX  44021 22011 99438 70700 46/// /1910 10088 90104 22200 00068 10201 70005 333 91213 555 11119 22129;
0137997849999992012122202004+43783-069883FM-18+0002EB035V0202101N008019999999N9999999N1+00801+99999999999ADDSA1+0629UA1M030059999REMSYN104BBXX  44021 22021 99438 70700 46/// /2108 10080 90204 22200 00062 10301 70006 333 91210 555 11099 22108;
0137997849999992012122203004+43783-069883FM-18+0002EB035V0202001N009019999999N9999999N1+00771+99999999999ADDSA1+0569UA1M050059999REMSYN104BBXX  44021 22031 99438 70700 46/// /2009 10077 90304 22200 00056 10501 70006 333 91211 555 11103 22112;
0137997849999992012122204004+43783-069883FM-18+0002EB035V0202201N006019999999N9999999N1+00711+99999999999ADDSA1+0529UA1M040059999REMSYN104BBXX  44021 22041 99438 70700 46/// /2206 10071 90404 22200 00052 10401 70006 333 91209 555 11078 22084;
0137997849999992012122205004+43783-069883FM-18+0002EB035V0202301N007019999999N9999999N1+00561+99999999999ADDSA1+0509UA1M030059999REMSYN104BBXX  44021 22051 99438 70700 46/// /2307 10056 90504 22200 00050 10301 70005 333 91210 555 11081 22088;
0137997849999992012122206004+43783-069883FM-18+0002EB035V0202301N008019999999N9999999N1+00521+99999999999ADDSA1+0509UA1M020059999REMSYN104BBXX  44021 22061 99438 70700 46/// /2308 10052 90604 22200 00050 10201 70004 333 91211 555 11101 22109;
0137997849999992012122207004+43783-069883FM-18+0002EB035V0202201N010019999999N9999999N1+00531+99999999999ADDSA1+0519UA1M020059999REMSYN104BBXX  44021 22071 99438 70700 46/// /2210 10053 90704 22200 00051 10201 70003 333 91213 555 11115 22125;
0137997849999992012122208004+43783-069883FM-18+0002EB035V0202201N009019999999N9999999N1+00511+99999999999ADDSA1+0599UA1M020059999REMSYN104BBXX  44021 22081 99438 70700 46/// /2209 10051 90804 22200 00059 10201 70003 333 91212 555 11109 22119;
0137997849999992012122209004+43783-069883FM-18+0002EB035V0202201N009019999999N9999999N1+00481+99999999999ADDSA1+0719UA1M050059999REMSYN104BBXX  44021 22091 99438 70700 46/// /2209 10048 90904 22200 00071 10501 70004 333 91211 555 11106 22115;
0137997849999992012122210004+43783-069883FM-18+0002EB035V0202201N010019999999N9999999N1+00491+99999999999ADDSA1+0719UA1M040059999REMSYN104BBXX  44021 22101 99438 70700 46/// /2210 10049 91004 22200 00071 10401 70005 333 91212 555 11124 22134;
0137997849999992012122211004+43783-069883FM-18+0002EB035V0202201N007019999999N9999999N1+00471+99999999999ADDSA1+0719UA1M050059999REMSYN104BBXX  44021 22111 99438 70700 46/// /2207 10047 91104 22200 00071 10501 70005 333 91209 555 11086 22094;
0137997849999992012122212004+43783-069883FM-18+0002EB035V0202201N007019999999N9999999N1+00471+99999999999ADDSA1+0709UA1M050059999REMSYN104BBXX  44021 22121 99438 70700 46/// /2207 10047 91204 22200 00070 10501 70005 333 91210 555 11086 22094;
0137997849999992012122213004+43783-069883FM-18+0002EB035V0202201N007019999999N9999999N1+00481+99999999999ADDSA1+0709UA1M050059999REMSYN104BBXX  44021 22131 99438 70700 46/// /2207 10048 91304 22200 00070 10501 70004 333 91209 555 11087 22095;
0137997849999992012122214004+43783-069883FM-18+0002EB035V0202301N006019999999N9999999N1+00441+99999999999ADDSA1+0709UA1M050059999REMSYN104BBXX  44021 22141 99438 70700 46/// /2306 10044 91404 22200 00070 10501 70005 333 91209 555 11074 22080;
0137997849999992012122215004+43783-069883FM-18+0002EB035V0202301N006019999999N9999999N1+00391+99999999999ADDSA1+0699UA1M050059999REMSYN104BBXX  44021 22151 99438 70700 46/// /2306 10039 91504 22200 00069 10501 70004 333 91209 555 11074 22080;
0137997849999992012122216004+43783-069883FM-18+0002EB035V0202401N005019999999N9999999N1+00411+99999999999ADDSA1+0639UA1M050059999REMSYN104BBXX  44021 22161 99438 70700 46/// /2405 10041 91604 22200 00063 10501 70004 333 91208 555 11064 22070;
0137997849999992012122217004+43783-069883FM-18+0002EB035V0202501N006019999999N9999999N1+00471+99999999999ADDSA1+0629UA1M050059999REMSYN104BBXX  44021 22171 99438 70700 46/// /2506 10047 91704 22200 00062 10501 70004 333 91207 555 11067 22073;
0137997849999992012122218004+43783-069883FM-18+0002EB035V0202401N004019999999N9999999N1+00451+99999999999ADDSA1+0509UA1M040059999REMSYN104BBXX  44021 22181 99438 70700 46/// /2404 10045 91804 22200 00050 10401 70004 333 91206 555 11053 22058;
0137997849999992012122219004+43783-069883FM-18+0002EB035V0202701N007019999999N9999999N1+00391+99999999999ADDSA1+0679UA1M050059999REMSYN104BBXX  44021 22191 99438 70700 46/// /2707 10039 91904 22200 00067 10501 70003 333 91209 555 11081 22088;
0137997849999992012122220004+43783-069883FM-18+0002EB035V0202601N008019999999N9999999N1+00281+99999999999ADDSA1+0669UA1M990009999REMSYN104BBXX  44021 22201 99438 70700 46/// /2608 10028 92004 22200 00066 1//00 70002 333 91210 555 11093 22102;
0137997849999992012122221004+43783-069883FM-18+0002EB035V0202701N006019999999N9999999N1+00231+99999999999ADDSA1+0679UA1M990009999REMSYN104BBXX  44021 22211 99438 70700 46/// /2706 10023 92104 22200 00067 1//00 70002 333 91208 555 11078 22084;
0137997849999992012122222004+43783-069883FM-18+0002EB035V0203201N004019999999N9999999N1-00021+99999999999ADDSA1+0709UA1M990009999REMSYN104BBXX  44021 22221 99438 70700 46/// /3204 11002 92204 22200 00070 1//00 70002 333 91206 555 11047 22051;
0137997849999992012122223004+43783-069883FM-18+0002EB035V0203201N006019999999N9999999N1+00041+99999999999ADDSA1+0699UA1M990009999REMSYN104BBXX  44021 22231 99438 70700 46/// /3206 10004 92304 22200 00069 1//00 70002 333 91207 555 11070 22076;
0137997849999992012122300004+43783-069883FM-18+0002EB035V0203101N005019999999N9999999N1+00051+99999999999ADDSA1+0699UA1M990009999REMSYN104BBXX  44021 23001 99438 70700 46/// /3105 10005 90004 22200 00069 1//00 70002 333 91207 555 11058 22063;
0137997849999992012122301004+43783-069883FM-18+0002EB035V0203301N007019999999N9999999N1-00041+99999999999ADDSA1+0699UA1M990009999REMSYN104BBXX  44021 23011 99438 70700 46/// /3307 11004 90104 22200 00069 1//00 70002 333 91209 555 11090 22098;
0137997849999992012122302004+43783-069883FM-18+0002EB035V0203301N008019999999N9999999N1-00091+99999999999ADDSA1+0689UA1M990009999REMSYN104BBXX  44021 23021 99438 70700 46/// /3308 11009 90204 22200 00068 1//00 70002 333 91210 555 11097 22105;
0137997849999992012122303004+43783-069883FM-18+0002EB035V0203101N008019999999N9999999N1-00171+99999999999ADDSA1+0689UA1M990009999REMSYN104BBXX  44021 23031 99438 70700 46/// /3108 11017 90304 22200 00068 1//00 70002 333 91211 555 11099 22108;
0137997849999992012122304004+43783-069883FM-18+0002EB035V0203201N007019999999N9999999N1-00201+99999999999ADDSA1+0679UA1M990009999REMSYN104BBXX  44021 23041 99438 70700 46/// /3207 11020 90404 22200 00067 1//00 70002 333 91210 555 11082 22090;
0137997849999992012122305004+43783-069883FM-18+0002EB035V0203201N006019999999N9999999N1-00221+99999999999ADDSA1+0589UA1M990009999REMSYN104BBXX  44021 23051 99438 70700 46/// /3206 11022 90504 22200 00058 1//00 70002 333 91209 555 11072 22078;
0137997849999992012122306004+43783-069883FM-18+0002EB035V0203101N005019999999N9999999N1-00231+99999999999ADDSA1+0589UA1M990009999REMSYN104BBXX  44021 23061 99438 70700 46/// /3105 11023 90604 22200 00058 1//00 70002 333 91206 555 11056 22061;
0137997849999992012122307004+43783-069883FM-18+0002EB035V0203001N006019999999N9999999N1-00211+99999999999ADDSA1+0589UA1M990009999REMSYN104BBXX  44021 23071 99438 70700 46/// /3006 11021 90704 22200 00058 1//00 70002 333 91208 555 11074 22080;
0137997849999992012122308004+43783-069883FM-18+0002EB035V0203101N006019999999N9999999N1-00261+99999999999ADDSA1+0639UA1M990009999REMSYN104BBXX  44021 23081 99438 70700 46/// /3106 11026 90804 22200 00063 1//00 70001 333 91209 555 11075 22082;
0137997849999992012122309004+43783-069883FM-18+0002EB035V0203101N006019999999N9999999N1-00261+99999999999ADDSA1+0649UA1M990009999REMSYN104BBXX  44021 23091 99438 70700 46/// /3106 11026 90904 22200 00064 1//00 70001 333 91208 555 11076 22083;
0137997849999992012122310004+43783-069883FM-18+0002EB035V0202901N006019999999N9999999N1-00271+99999999999ADDSA1+0659UA1M990009999REMSYN104BBXX  44021 23101 99438 70700 46/// /2906 11027 91004 22200 00065 1//00 70001 333 91208 555 11072 22078;
0137997849999992012122311004+43783-069883FM-18+0002EB035V0203001N005019999999N9999999N1-00281+99999999999ADDSA1+0649UA1M990009999REMSYN104BBXX  44021 23111 99438 70700 46/// /3005 11028 91104 22200 00064 1//00 70001 333 91208 555 11063 22069;
0137997849999992012122312004+43783-069883FM-18+0002EB035V0203001N005019999999N9999999N1-00301+99999999999ADDSA1+0649UA1M990009999REMSYN104BBXX  44021 23121 99438 70700 46/// /3005 11030 91204 22200 00064 1//00 70001 333 91206 555 11057 22062;
0137997849999992012122313004+43783-069883FM-18+0002EB035V0202901N004019999999N9999999N1-00291+99999999999ADDSA1+0649UA1M990009999REMSYN104BBXX  44021 23131 99438 70700 46/// /2904 11029 91304 22200 00064 1//00 70001 333 91206 555 11053 22058;
0137997849999992012122314004+43783-069883FM-18+0002EB035V0203001N004019999999N9999999N1-00261+99999999999ADDSA1+0639UA1M990009999REMSYN104BBXX  44021 23141 99438 70700 46/// /3004 11026 91404 22200 00063 1//00 70001 333 91206 555 11052 22057;
0137997849999992012122315004+43783-069883FM-18+0002EB035V0203001N003019999999N9999999N1-00161+99999999999ADDSA1+0629UA1M990009999REMSYN104BBXX  44021 23151 99438 70700 46/// /3003 11016 91504 22200 00062 1//00 70001 333 91205 555 11039 22042;
0137997849999992012122316004+43783-069883FM-18+0002EB035V0202801N002019999999N9999999N1-00071+99999999999ADDSA1+0609UA1M990009999REMSYN104BBXX  44021 23161 99438 70700 46/// /2802 11007 91604 22200 00060 1//00 70002 333 91203 555 11021 22022;
0137997849999992012122317004+43783-069883FM-18+0002EB035V0202601N005019999999N9999999N1+00001+99999999999ADDSA1+0559UA1M040059999REMSYN104BBXX  44021 23171 99438 70700 46/// /2605 10000 91704 22200 00055 10401 70003 333 91207 555 11057 22062;
0137997849999992012122318004+43783-069883FM-18+0002EB035V0202401N006019999999N9999999N1+00091+99999999999ADDSA1+0509UA1M040059999REMSYN104BBXX  44021 23181 99438 70700 46/// /2406 10009 91804 22200 00050 10401 70003 333 91208 555 11076 22083;
0137997849999992012122319004+43783-069883FM-18+0002EB035V0202401N004019999999N9999999N1+00211+99999999999ADDSA1+0509UA1M040059999REMSYN104BBXX  44021 23191 99438 70700 46/// /2404 10021 91904 22200 00050 10401 70003 333 91205 555 11050 22054;
0137997849999992012122320004+43783-069883FM-18+0002EB035V0202701N004019999999N9999999N1+00311+99999999999ADDSA1+0519UA1M040059999REMSYN104BBXX  44021 23201 99438 70700 46/// /2704 10031 92004 22200 00051 10401 70003 333 91208 555 11050 22054;
0137997849999992012122321004+43783-069883FM-18+0002EB035V0202501N008019999999N9999999N1+00221+99999999999ADDSA1+0559UA1M040059999REMSYN104BBXX  44021 23211 99438 70700 46/// /2508 10022 92104 22200 00055 10401 70004 333 91211 555 11096 22104;
0137997849999992012122322004+43783-069883FM-18+0002EB035V0202501N006019999999N9999999N1+00201+99999999999ADDSA1+0589UA1M050059999REMSYN104BBXX  44021 23221 99438 70700 46/// /2506 10020 92204 22200 00058 10501 70003 333 91209 555 11074 22080;
0137997849999992012122323004+43783-069883FM-18+0002EB035V0202601N006019999999N9999999N1+00201+99999999999ADDSA1+0599UA1M990009999REMSYN104BBXX  44021 23231 99438 70700 46/// /2606 10020 92304 22200 00059 1//00 70002 333 91208 555 11070 22076;
0137997849999992012122400004+43783-069883FM-18+0002EB035V0202501N006019999999N9999999N1+00211+99999999999ADDSA1+0619UA1M990009999REMSYN104BBXX  44021 24001 99438 70700 46/// /2506 10021 90004 22200 00061 1//00 70002 333 91208 555 11073 22079;
0137997849999992012122401004+43783-069883FM-18+0002EB035V0202501N004019999999N9999999N1+00211+99999999999ADDSA1+0619UA1M990009999REMSYN104BBXX  44021 24011 99438 70700 46/// /2504 10021 90104 22200 00061 1//00 70001 333 91207 555 11053 22058;
0137997849999992012122402004+43783-069883FM-18+0002EB035V0202301N007019999999N9999999N1+00241+99999999999ADDSA1+0619UA1M020059999REMSYN104BBXX  44021 24021 99438 70700 46/// /2307 10024 90204 22200 00061 10201 70003 333 91211 555 11086 22094;
0137997849999992012122403004+43783-069883FM-18+0002EB035V0202301N007019999999N9999999N1+00221+99999999999ADDSA1+0619UA1M040059999REMSYN104BBXX  44021 24031 99438 70700 46/// /2307 10022 90304 22200 00061 10401 70005 333 91209 555 11084 22091;
0137997849999992012122404004+43783-069883FM-18+0002EB035V0202401N007019999999N9999999N1+00191+99999999999ADDSA1+0599UA1M040059999REMSYN104BBXX  44021 24041 99438 70700 46/// /2407 10019 90404 22200 00059 10401 70006 333 91209 555 11086 22094;
0137997849999992012122405004+43783-069883FM-18+0002EB035V0202501N008019999999N9999999N1+00191+99999999999ADDSA1+0529UA1M050059999REMSYN104BBXX  44021 24051 99438 70700 46/// /2508 10019 90504 22200 00052 10501 70006 333 91211 555 11098 22107;
0137997849999992012122406004+43783-069883FM-18+0002EB035V0202501N008019999999N9999999N1+00171+99999999999ADDSA1+0509UA1M050059999REMSYN104BBXX  44021 24061 99438 70700 46/// /2508 10017 90604 22200 00050 10501 70005 333 91209 555 11091 22099;
0137997849999992012122407004+43783-069883FM-18+0002EB035V0202801N006019999999N9999999N1+00111+99999999999ADDSA1+0509UA1M040059999REMSYN104BBXX  44021 24071 99438 70700 46/// /2806 10011 90704 22200 00050 10401 70004 333 91208 555 11069 22075;
0137997849999992012122408004+43783-069883FM-18+0002EB035V0202701N003019999999N9999999N1+00091+99999999999ADDSA1+0509UA1M050059999REMSYN104BBXX  44021 24081 99438 70700 46/// /2703 10009 90804 22200 00050 10501 70003 333 91204 555 11038 22041;
0137997849999992012122409004+43783-069883FM-18+0002EB035V0202601N004019999999N9999999N1+00091+99999999999ADDSA1+0509UA1M040059999REMSYN104BBXX  44021 24091 99438 70700 46/// /2604 10009 90904 22200 00050 10401 70003 333 91206 555 11051 22055;
0137997849999992012122410004+43783-069883FM-18+0002EB035V0203301N003019999999N9999999N1+00031+99999999999ADDSA1+0569UA1M990009999REMSYN104BBXX  44021 24101 99438 70700 46/// /3303 10003 91004 22200 00056 1//00 70002 333 91204 555 11036 22040;
0137997849999992012122411004+43783-069883FM-18+0002EB035V0203301N003019999999N9999999N1-00021+99999999999ADDSA1+0609UA1M990009999REMSYN104BBXX  44021 24111 99438 70700 46/// /3303 11002 91104 22200 00060 1//00 70002 333 91204 555 11036 22040;
0137997849999992012122412004+43783-069883FM-18+0002EB035V0203501N003019999999N9999999N1-00091+99999999999ADDSA1+0619UA1M990009999REMSYN104BBXX  44021 24121 99438 70700 46/// /3503 11009 91204 22200 00061 1//00 70001 333 91204 555 11030 22033;
0137997849999992012122413004+43783-069883FM-18+0002EB035V0203501N003019999999N9999999N1-00111+99999999999ADDSA1+0609UA1M990009999REMSYN104BBXX  44021 24131 99438 70700 46/// /3503 11011 91304 22200 00060 1//00 70001 333 91205 555 11041 22045;
0137997849999992012122414004+43783-069883FM-18+0002EB035V0203301N004019999999N9999999N1-00121+99999999999ADDSA1+0609UA1M990009999REMSYN104BBXX  44021 24141 99438 70700 46/// /3304 11012 91404 22200 00060 1//00 70001 333 91204 555 11045 22049;
0137997849999992012122415004+43783-069883FM-18+0002EB035V0203501N002019999999N9999999N1-00021+99999999999ADDSA1+0599UA1M990009999REMSYN104BBXX  44021 24151 99438 70700 46/// /3502 11002 91504 22200 00059 1//00 70002 333 91205 555 11029 22032;
0137997849999992012122416004+43783-069883FM-18+0002EB035V0202901N005019999999N9999999N1+00051+99999999999ADDSA1+0529UA1M040059999REMSYN104BBXX  44021 24161 99438 70700 46/// /2905 10005 91604 22200 00052 10401 70003 333 91208 555 11063 22069;
0137997849999992012122417004+43783-069883FM-18+0002EB035V0203001N004019999999N9999999N1+00091+99999999999ADDSA1+0499UA1M050059999REMSYN104BBXX  44021 24171 99438 70700 46/// /3004 10009 91704 22200 00049 10501 70003 333 91207 555 11051 22055;
0137997849999992012122418004+43783-069883FM-18+0002EB035V0202901N004019999999N9999999N1+00131+99999999999ADDSA1+0519UA1M040059999REMSYN104BBXX  44021 24181 99438 70700 46/// /2904 10013 91804 22200 00051 10401 70003 333 91206 555 11049 22053;
0137997849999992012122419004+43783-069883FM-18+0002EB035V0202801N006019999999N9999999N1+00191+99999999999ADDSA1+0489UA1M990009999REMSYN104BBXX  44021 24191 99438 70700 46/// /2806 10019 91904 22200 00048 1//00 70002 333 91208 555 11072 22078;
0137997849999992012122420004+43783-069883FM-18+0002EB035V0202801N005019999999N9999999N1+00191+99999999999ADDSA1+0489UA1M990009999REMSYN104BBXX  44021 24201 99438 70700 46/// /2805 10019 92004 22200 00048 1//00 70002 333 91207 555 11058 22063;
0137997849999992012122421004+43783-069883FM-18+0002EB035V0202901N003019999999N9999999N1+00151+99999999999ADDSA1+0489UA1M990009999REMSYN104BBXX  44021 24211 99438 70700 46/// /2903 10015 92104 22200 00048 1//00 70001 333 91204 555 11041 22045;
0137997849999992012122422004+43783-069883FM-18+0002EB035V0203101N002019999999N9999999N1+00121+99999999999ADDSA1+0519UA1M990009999REMSYN104BBXX  44021 24221 99438 70700 46/// /3102 10012 92204 22200 00051 1//00 70001 333 91203 555 11028 22030;
0137997849999992012122423004+43783-069883FM-18+0002EB035V0202401N003019999999N9999999N1+00081+99999999999ADDSA1+0509UA1M990009999REMSYN104BBXX  44021 24231 99438 70700 46/// /2403 10008 92304 22200 00050 1//00 70001 333 91204 555 11034 22037;
0137997849999992012122500004+43783-069883FM-18+0002EB035V0200101N002019999999N9999999N1+00021+99999999999ADDSA1+0549UA1M990009999REMSYN104BBXX  44021 25001 99438 70700 46/// /0102 10002 90004 22200 00054 1//00 70001 333 91203 555 11027 22029;
0137997849999992012122501004+43783-069883FM-18+0002EB035V0200201N004019999999N9999999N1-00011+99999999999ADDSA1+0529UA1M990009999REMSYN104BBXX  44021 25011 99438 70700 46/// /0204 11001 90104 22200 00052 1//00 70000 333 91205 555 11050 22054;
0137997849999992012122502004+43783-069883FM-18+0002EB035V0200201N003019999999N9999999N1-00041+99999999999ADDSA1+0549UA1M990009999REMSYN104BBXX  44021 25021 99438 70700 46/// /0203 11004 90204 22200 00054 1//00 70001 333 91204 555 11035 22038;
0137997849999992012122503004+43783-069883FM-18+0002EB035V0200501N003019999999N9999999N1-00071+99999999999ADDSA1+0569UA1M990009999REMSYN104BBXX  44021 25031 99438 70700 46/// /0503 11007 90304 22200 00056 1//00 70001 333 91204 555 11038 22041;
0137997849999992012122504004+43783-069883FM-18+0002EB035V0200201N003019999999N9999999N1-00101+99999999999ADDSA1+0509UA1M990009999REMSYN104BBXX  44021 25041 99438 70700 46/// /0203 11010 90404 22200 00050 1//00 70001 333 91204 555 11041 22045;
0137997849999992012122505004+43783-069883FM-18+0002EB035V0200401N005019999999N9999999N1-00111+99999999999ADDSA1+0539UA1M990009999REMSYN104BBXX  44021 25051 99438 70700 46/// /0405 11011 90504 22200 00053 1//00 70000 333 91206 555 11056 22061;
0137997849999992012122506004+43783-069883FM-18+0002EB035V0200101N005019999999N9999999N1-00121+99999999999ADDSA1+0509UA1M990009999REMSYN104BBXX  44021 25061 99438 70700 46/// /0105 11012 90604 22200 00050 1//00 70000 333 91206 555 11057 22062;
0137997849999992012122507004+43783-069883FM-18+0002EB035V0200101N005019999999N9999999N1-00191+99999999999ADDSA1+0509UA1M990009999REMSYN104BBXX  44021 25071 99438 70700 46/// /0105 11019 90704 22200 00050 1//00 70000 333 91206 555 11062 22067;
0137997849999992012122508004+43783-069883FM-18+0002EB035V0200201N006019999999N9999999N1-00241+99999999999ADDSA1+0529UA1M990009999REMSYN104BBXX  44021 25081 99438 70700 46/// /0206 11024 90804 22200 00052 1//00 70001 333 91207 555 11067 22073;
0137997849999992012122509004+43783-069883FM-18+0002EB035V0200101N006019999999N9999999N1-00271+99999999999ADDSA1+0529UA1M990009999REMSYN104BBXX  44021 25091 99438 70700 46/// /0106 11027 90904 22200 00052 1//00 70001 333 91208 555 11074 22080;
0137997849999992012122510004+43783-069883FM-18+0002EB035V0200201N006019999999N9999999N1-00311+99999999999ADDSA1+0549UA1M990009999REMSYN104BBXX  44021 25101 99438 70700 46/// /0206 11031 91004 22200 00054 1//00 70001 333 91207 555 11072 22078;
0137997849999992012122511004+43783-069883FM-18+0002EB035V0200301N006019999999N9999999N1-00311+99999999999ADDSA1+0569UA1M990009999REMSYN104BBXX  44021 25111 99438 70700 46/// /0306 11031 91104 22200 00056 1//00 70001 333 91207 555 11074 22080;
0137997849999992012122512004+43783-069883FM-18+0002EB035V0200201N006019999999N9999999N1-00311+99999999999ADDSA1+0609UA1M990009999REMSYN104BBXX  44021 25121 99438 70700 46/// /0206 11031 91204 22200 00060 1//00 70001 333 91207 555 11072 22078;
0137997849999992012122513004+43783-069883FM-18+0002EB035V0203601N005019999999N9999999N1-00341+99999999999ADDSA1+0589UA1M990009999REMSYN104BBXX  44021 25131 99438 70700 46/// /3605 11034 91304 22200 00058 1//00 70001 333 91207 555 11061 22066;
0137997849999992012122514004+43783-069883FM-18+0002EB035V0203601N005019999999N9999999N1-00321+99999999999ADDSA1+0609UA1M990009999REMSYN104BBXX  44021 25141 99438 70700 46/// /3605 11032 91404 22200 00060 1//00 70001 333 91206 555 11055 22059;
0137997849999992012122515004+43783-069883FM-18+0002EB035V0203601N005019999999N9999999N1-00311+99999999999ADDSA1+0619UA1M990009999REMSYN104BBXX  44021 25151 99438 70700 46/// /3605 11031 91504 22200 00061 1//00 70000 333 91207 555 11061 22066;
0137997849999992012122516004+43783-069883FM-18+0002EB035V0203601N006019999999N9999999N1-00341+99999999999ADDSA1+0579UA1M990009999REMSYN104BBXX  44021 25161 99438 70700 46/// /3606 11034 91604 22200 00057 1//00 70000 333 91207 555 11067 22073;
0137997849999992012122517004+43783-069883FM-18+0002EB035V0203601N006019999999N9999999N1-00301+99999999999ADDSA1+0599UA1M990009999REMSYN104BBXX  44021 25171 99438 70700 46/// /3606 11030 91704 22200 00059 1//00 70000 333 91207 555 11069 22075;
0137997849999992012122518004+43783-069883FM-18+0002EB035V0200101N006019999999N9999999N1-00241+99999999999ADDSA1+0519UA1M990009999REMSYN104BBXX  44021 25181 99438 70700 46/// /0106 11024 91804 22200 00051 1//00 70000 333 91207 555 11070 22076;
0137997849999992012122519004+43783-069883FM-18+0002EB035V0203501N004019999999N9999999N1-00221+99999999999ADDSA1+0569UA1M990009999REMSYN104BBXX  44021 25191 99438 70700 46/// /3504 11022 91904 22200 00056 1//00 70000 333 91205 555 11045 22049;
0137997849999992012122520004+43783-069883FM-18+0002EB035V0203501N005019999999N9999999N1-00191+99999999999ADDSA1+0549UA1M990009999REMSYN104BBXX  44021 25201 99438 70700 46/// /3505 11019 92004 22200 00054 1//00 70000 333 91206 555 11057 22062;
0137997849999992012122521004+43783-069883FM-18+0002EB035V0203501N003019999999N9999999N1-00151+99999999999ADDSA1+0549UA1M990009999REMSYN104BBXX  44021 25211 99438 70700 46/// /3503 11015 92104 22200 00054 1//00 70000 333 91205 555 11039 22042;
0137997849999992012122522004+43783-069883FM-18+0002EB035V0203601N002019999999N9999999N1-00121+99999999999ADDSA1+0559UA1M990009999REMSYN104BBXX  44021 25221 99438 70700 46/// /3602 11012 92204 22200 00055 1//00 70000 333 91203 555 11021 22022;
0137997849999992012122523004+43783-069883FM-18+0002EB035V0203301N003019999999N9999999N1-00091+99999999999ADDSA1+0569UA1M990009999REMSYN104BBXX  44021 25231 99438 70700 46/// /3303 11009 92304 22200 00056 1//00 70000 333 91204 555 11033 22036;
0137997849999992012122600004+43783-069883FM-18+0002EB035V0203001N003019999999N9999999N1-00101+99999999999ADDSA1+0589UA1M990009999REMSYN104BBXX  44021 26001 99438 70700 46/// /3003 11010 90004 22200 00058 1//00 70000 333 91204 555 11033 22036;
0137997849999992012122601004+43783-069883FM-18+0002EB035V0203301N006019999999N9999999N1-00081+99999999999ADDSA1+0579UA1M990009999REMSYN104BBXX  44021 26011 99438 70700 46/// /3306 11008 90104 22200 00057 1//00 70000 333 91207 555 11069 22075;
0137997849999992012122602004+43783-069883FM-18+0002EB035V0203301N005019999999N9999999N1-00141+99999999999ADDSA1+0579UA1M990009999REMSYN104BBXX  44021 26021 99438 70700 46/// /3305 11014 90204 22200 00057 1//00 70000 333 91206 555 11061 22066;
0137997849999992012122603004+43783-069883FM-18+0002EB035V0203301N004019999999N9999999N1-00251+99999999999ADDSA1+0579UA1M990009999REMSYN104BBXX  44021 26031 99438 70700 46/// /3304 11025 90304 22200 00057 1//00 70000 333 91206 555 11053 22058;
0137997849999992012122604004+43783-069883FM-18+0002EB035V0203401N005019999999N9999999N1-00281+99999999999ADDSA1+0579UA1M990009999REMSYN104BBXX  44021 26041 99438 70700 46/// /3405 11028 90404 22200 00057 1//00 70000 333 91207 555 11064 22070;
0137997849999992012122605004+43783-069883FM-18+0002EB035V0203601N005019999999N9999999N1-00341+99999999999ADDSA1+0549UA1M990009999REMSYN104BBXX  44021 26051 99438 70700 46/// /3605 11034 90504 22200 00054 1//00 70000 333 91206 555 11055 22059;
0137997849999992012122606004+43783-069883FM-18+0002EB035V0203501N007019999999N9999999N1-00391+99999999999ADDSA1+0559UA1M990009999REMSYN104BBXX  44021 26061 99438 70700 46/// /3507 11039 90604 22200 00055 1//00 70000 333 91208 555 11081 22088;
0137997849999992012122607004+43783-069883FM-18+0002EB035V0203401N005019999999N9999999N1-00441+99999999999ADDSA1+0519UA1M990009999REMSYN104BBXX  44021 26071 99438 70700 46/// /3405 11044 90704 22200 00051 1//00 70000 333 91207 555 11062 22067;
0137997849999992012122608004+43783-069883FM-18+0002EB035V0203501N005019999999N9999999N1-00491+99999999999ADDSA1+0559UA1M990009999REMSYN104BBXX  44021 26081 99438 70700 46/// /3505 11049 90804 22200 00055 1//00 70000 333 91206 555 11058 22063;
0137997849999992012122609004+43783-069883FM-18+0002EB035V0203501N005019999999N9999999N1-00511+99999999999ADDSA1+0569UA1M990009999REMSYN104BBXX  44021 26091 99438 70700 46/// /3505 11051 90904 22200 00056 1//00 70000 333 91207 555 11063 22069;
0137997849999992012122610004+43783-069883FM-18+0002EB035V0203301N005019999999N9999999N1-00561+99999999999ADDSA1+0549UA1M990009999REMSYN104BBXX  44021 26101 99438 70700 46/// /3305 11056 91004 22200 00054 1//00 70000 333 91206 555 11055 22059;
0137997849999992012122611004+43783-069883FM-18+0002EB035V0203601N004019999999N9999999N1-00571+99999999999ADDSA1+0539UA1M990009999REMSYN104BBXX  44021 26111 99438 70700 46/// /3604 11057 91104 22200 00053 1//00 70000 333 91206 555 11047 22051;
0137997849999992012122612004+43783-069883FM-18+0002EB035V0200201N005019999999N9999999N1-00591+99999999999ADDSA1+0509UA1M990009999REMSYN104BBXX  44021 26121 99438 70700 46/// /0205 11059 91204 22200 00050 1//00 70001 333 91207 555 11064 22070;
0137997849999992012122613004+43783-069883FM-18+0002EB035V0200101N005019999999N9999999N1-00601+99999999999ADDSA1+0549UA1M990009999REMSYN104BBXX  44021 26131 99438 70700 46/// /0105 11060 91304 22200 00054 1//00 70001 333 91207 555 11062 22067;
0137997849999992012122614004+43783-069883FM-18+0002EB035V0203601N004019999999N9999999N1-00551+99999999999ADDSA1+0559UA1M990009999REMSYN104BBXX  44021 26141 99438 70700 46/// /3604 11055 91404 22200 00055 1//00 70000 333 91206 555 11049 22053;
0137997849999992012122615004+43783-069883FM-18+0002EB035V0200101N005019999999N9999999N1-00471+99999999999ADDSA1+0569UA1M990009999REMSYN104BBXX  44021 26151 99438 70700 46/// /0105 11047 91504 22200 00056 1//00 70000 333 91207 555 11061 22066;
0137997849999992012122616004+43783-069883FM-18+0002EB035V0200101N006019999999N9999999N1-00311+99999999999ADDSA1+0529UA1M990009999REMSYN104BBXX  44021 26161 99438 70700 46/// /0106 11031 91604 22200 00052 1//00 70001 333 91207 555 11067 22073;
0137997849999992012122617004+43783-069883FM-18+0002EB035V0200301N004019999999N9999999N1-00181+99999999999ADDSA1+0569UA1M990009999REMSYN104BBXX  44021 26171 99438 70700 46/// /0304 11018 91704 22200 00056 1//00 70000 333 91206 555 11049 22053;
0137997849999992012122618004+43783-069883FM-18+0002EB035V0200201N003019999999N9999999N1-00091+99999999999ADDSA1+0539UA1M990009999REMSYN104BBXX  44021 26181 99438 70700 46/// /0203 11009 91804 22200 00053 1//00 70000 333 91205 555 11039 22042;
0137997849999992012122619004+43783-069883FM-18+0002EB035V0203301N001019999999N9999999N1-00021+99999999999ADDSA1+0559UA1M990009999REMSYN104BBXX  44021 26191 99438 70700 46/// /3301 11002 91904 22200 00055 1//00 70000 333 91202 555 11013 22015;
0137997849999992012122620004+43783-069883FM-18+0002EB035V0203201N001019999999N9999999N1-00041+99999999999ADDSA1+0569UA1M990009999REMSYN104BBXX  44021 26201 99438 70700 46/// /3201 11004 92004 22200 00056 1//00 70000 333 91202 555 11008 22009;
0137997849999992012122621004+43783-069883FM-18+0002EB035V0200701N002019999999N9999999N1-00041+99999999999ADDSA1+0559UA1M990009999REMSYN104BBXX  44021 26211 99438 70700 46/// /0702 11004 92104 22200 00055 1//00 70000 333 91204 555 11021 22022;
0137997849999992012122622004+43783-069883FM-18+0002EB035V0200501N003019999999N9999999N1-00051+99999999999ADDSA1+0549UA1M990009999REMSYN104BBXX  44021 26221 99438 70700 46/// /0503 11005 92204 22200 00054 1//00 70000 333 91203 555 11033 22036;
0137997849999992012122623004+43783-069883FM-18+0002EB035V0200501N004019999999N9999999N1-00081+99999999999ADDSA1+0559UA1M990009999REMSYN104BBXX  44021 26231 99438 70700 46/// /0504 11008 92304 22200 00055 1//00 70001 333 91205 555 11047 22051;
0137997849999992012122700004+43783-069883FM-18+0002EB035V0200401N005019999999N9999999N1-00101+99999999999ADDSA1+0559UA1M990009999REMSYN104BBXX  44021 27001 99438 70700 46/// /0405 11010 90004 22200 00055 1//00 70001 333 91207 555 11057 22062;
0137997849999992012122701004+43783-069883FM-18+0002EB035V0200501N005019999999N9999999N1-00101+99999999999ADDSA1+0579UA1M990009999REMSYN104BBXX  44021 27011 99438 70700 46/// /0505 11010 90104 22200 00057 1//00 70001 333 91207 555 11064 22070;
0137997849999992012122702004+43783-069883FM-18+0002EB035V0200401N007019999999N9999999N1-00121+99999999999ADDSA1+0599UA1M990009999REMSYN104BBXX  44021 27021 99438 70700 46/// /0407 11012 90204 22200 00059 1//00 70001 333 91209 555 11082 22090;
0137997849999992012122703004+43783-069883FM-18+0002EB035V0200401N007019999999N9999999N1-00141+99999999999ADDSA1+0599UA1M990009999REMSYN104BBXX  44021 27031 99438 70700 46/// /0407 11014 90304 22200 00059 1//00 70002 333 91209 555 11085 22092;
0137997849999992012122704004+43783-069883FM-18+0002EB035V0200401N009019999999N9999999N1-00151+99999999999ADDSA1+0569UA1M020059999REMSYN104BBXX  44021 27041 99438 70700 46/// /0409 11015 90404 22200 00056 10201 70003 333 91211 555 11104 22113;
0137997849999992012122705004+43783-069883FM-18+0002EB035V0200301N010019999999N9999999N1-00161+99999999999ADDSA1+0569UA1M020059999REMSYN104BBXX  44021 27051 99438 70700 46/// /0310 11016 90504 22200 00056 10201 70003 333 91211 555 11119 22129;
0137997849999992012122706004+43783-069883FM-18+0002EB035V0200301N010019999999N9999999N1-00201+99999999999ADDSA1+0579UA1M990009999REMSYN104BBXX  44021 27061 99438 70700 46/// /0310 11020 90604 22200 00057 1//00 70002 333 91212 555 11116 22127;
0137997849999992012122707004+43783-069883FM-18+0002EB035V0200301N010019999999N9999999N1-00211+99999999999ADDSA1+0559UA1M020059999REMSYN104BBXX  44021 27071 99438 70700 46/// /0310 11021 90704 22200 00055 10201 70003 333 91212 555 11115 22125;
0111997849999992012122708004+43783-069883FM-18+0002EB035V02099999999999999999N9999999N1-00251+99999999999ADDSA1+0559UA1M020059999REMSYN078BBXX  44021 27081 99438 70700 46/// ///// 11025 90804 22200 00055 10201 70003;
0137997849999992012122709004+43783-069883FM-18+0002EB035V0200401N012019999999N9999999N1-00231+99999999999ADDSA1+0559UA1M020059999REMSYN104BBXX  44021 27091 99438 70700 46/// /0412 11023 90904 22200 00055 10201 70003 333 91216 555 11143 22156;
0111997849999992012122710004+43783-069883FM-18+0002EB035V02099999999999999999N9999999N1-00191+99999999999ADDSA1+0569UA1M020059999REMSYN078BBXX  44021 27101 99438 70700 46/// ///// 11019 91004 22200 00056 10201 70003;
0111997849999992012122711004+43783-069883FM-18+0002EB035V02099999999999999999N9999999N1-00171+99999999999ADDSA1+0569UA1M030059999REMSYN078BBXX  44021 27111 99438 70700 46/// ///// 11017 91104 22200 00056 10301 70004;
0111997849999992012122712004+43783-069883FM-18+0002EB035V02099999999999999999N9999999N1-00131+99999999999ADDSA1+0599UA1M030059999REMSYN078BBXX  44021 27121 99438 70700 46/// ///// 11013 91204 22200 00059 10301 70005;
0111997849999992012122713004+43783-069883FM-18+0002EB035V02099999999999999999N9999999N1-00051+99999999999ADDSA1+0619UA1M030059999REMSYN078BBXX  44021 27131 99438 70700 46/// ///// 11005 91304 22200 00061 10301 70005;
0111997849999992012122714004+43783-069883FM-18+0002EB035V02099999999999999999N9999999N1-00011+99999999999ADDSA1+0639UA1M030059999REMSYN078BBXX  44021 27141 99438 70700 46/// ///// 11001 91404 22200 00063 10301 70005;
0137997849999992012122715004+43783-069883FM-18+0002EB035V0200201N008019999999N9999999N1+00031+99999999999ADDSA1+0659UA1M020059999REMSYN104BBXX  44021 27151 99438 70700 46/// /0208 10003 91504 22200 00065 10201 70003 333 91209 555 11093 22102;
0137997849999992012122716004+43783-069883FM-18+0002EB035V0200301N009019999999N9999999N1+00121+99999999999ADDSA1+0659UA1M020059999REMSYN104BBXX  44021 27161 99438 70700 46/// /0309 10012 91604 22200 00065 10201 70004 333 91211 555 11107 22116;
0137997849999992012122717004+43783-069883FM-18+0002EB035V0200301N010019999999N9999999N1+00161+99999999999ADDSA1+0659UA1M020059999REMSYN104BBXX  44021 27171 99438 70700 46/// /0310 10016 91704 22200 00065 10201 70004 333 91213 555 11126 22137;
0137997849999992012122718004+43783-069883FM-18+0002EB035V0200301N010019999999N9999999N1+00131+99999999999ADDSA1+0649UA1M020059999REMSYN104BBXX  44021 27181 99438 70700 46/// /0310 10013 91804 22200 00064 10201 70003 333 91214 555 11125 22136;
0137997849999992012122719004+43783-069883FM-18+0002EB035V0200301N011019999999N9999999N1+00081+99999999999ADDSA1+0619UA1M020059999REMSYN104BBXX  44021 27191 99438 70700 46/// /0311 10008 91904 22200 00061 10201 70004 333 91214 555 11135 22146;
0137997849999992012122720004+43783-069883FM-18+0002EB035V0200201N012019999999N9999999N1+00031+99999999999ADDSA1+0539UA1M020059999REMSYN104BBXX  44021 27201 99438 70700 46/// /0212 10003 92004 22200 00053 10201 70004 333 91215 555 11146 22158;
0137997849999992012122721004+43783-069883FM-18+0002EB035V0200201N013019999999N9999999N1+00011+99999999999ADDSA1+0559UA1M030059999REMSYN104BBXX  44021 27211 99438 70700 46/// /0213 10001 92104 22200 00055 10301 70005 333 91216 555 11153 22166;
0137997849999992012122722004+43783-069883FM-18+0002EB035V0200101N011019999999N9999999N1-00061+99999999999ADDSA1+0549UA1M030059999REMSYN104BBXX  44021 27221 99438 70700 46/// /0111 11006 92204 22200 00054 10301 70005 333 91213 555 11135 22146;
0137997849999992012122723004+43783-069883FM-18+0002EB035V0200101N011019999999N9999999N1-00111+99999999999ADDSA1+0529UA1M030059999REMSYN104BBXX  44021 27231 99438 70700 46/// /0111 11011 92304 22200 00052 10301 70005 333 91214 555 11138 22150;
0137997849999992012122800004+43783-069883FM-18+0002EB035V0203601N011019999999N9999999N1-00151+99999999999ADDSA1+0579UA1M030059999REMSYN104BBXX  44021 28001 99438 70700 46/// /3611 11015 90004 22200 00057 10301 70005 333 91214 555 11135 22146;
0137997849999992012122801004+43783-069883FM-18+0002EB035V0203601N010019999999N9999999N1-00141+99999999999ADDSA1+0599UA1M030059999REMSYN104BBXX  44021 28011 99438 70700 46/// /3610 11014 90104 22200 00059 10301 70004 333 91213 555 11121 22132;
0111997849999992012122802004+43783-069883FM-18+0002EB035V02099999999999999999N9999999N1-00151+99999999999ADDSA1+0609UA1M030059999REMSYN078BBXX  44021 28021 99438 70700 46/// ///// 11015 90204 22200 00060 10301 70004;
0137997849999992012122803004+43783-069883FM-18+0002EB035V0203501N009019999999N9999999N1-00141+99999999999ADDSA1+0609UA1M020059999REMSYN104BBXX  44021 28031 99438 70700 46/// /3509 11014 90304 22200 00060 10201 70003 333 91212 555 11114 22124;
0137997849999992012122804004+43783-069883FM-18+0002EB035V0203401N010019999999N9999999N1-00121+99999999999ADDSA1+0599UA1M020059999REMSYN104BBXX  44021 28041 99438 70700 46/// /3410 11012 90404 22200 00059 10201 70003 333 91213 555 11115 22125;
0137997849999992012122805004+43783-069883FM-18+0002EB035V0203401N010019999999N9999999N1-00111+99999999999ADDSA1+0599UA1M990009999REMSYN104BBXX  44021 28051 99438 70700 46/// /3410 11011 90504 22200 00059 1//00 70002 333 91212 555 11116 22127;
0137997849999992012122806004+43783-069883FM-18+0002EB035V0203401N010019999999N9999999N1-00091+99999999999ADDSA1+0599UA1M020059999REMSYN104BBXX  44021 28061 99438 70700 46/// /3410 11009 90604 22200 00059 10201 70003 333 91214 555 11118 22128;
0137997849999992012122807004+43783-069883FM-18+0002EB035V0203401N009019999999N9999999N1-00061+99999999999ADDSA1+0529UA1M990009999REMSYN104BBXX  44021 28071 99438 70700 46/// /3409 11006 90704 22200 00052 1//00 70002 333 91212 555 11107 22116;
0137997849999992012122808004+43783-069883FM-18+0002EB035V0203401N008019999999N9999999N1-00031+99999999999ADDSA1+0489UA1M990009999REMSYN104BBXX  44021 28081 99438 70700 46/// /3408 11003 90804 22200 00048 1//00 70001 333 91211 555 11098 22107;
0137997849999992012122809004+43783-069883FM-18+0002EB035V0203101N008019999999N9999999N1-00061+99999999999ADDSA1+0489UA1M990009999REMSYN104BBXX  44021 28091 99438 70700 46/// /3108 11006 90904 22200 00048 1//00 70001 333 91211 555 11097 22105;
0137997849999992012122810004+43783-069883FM-18+0002EB035V0203101N009019999999N9999999N1-00081+99999999999ADDSA1+0489UA1M990009999REMSYN104BBXX  44021 28101 99438 70700 46/// /3109 11008 91004 22200 00048 1//00 70002 333 91214 555 11114 22124;
0137997849999992012122812004+43783-069883FM-18+0002EB035V0203101N010019999999N9999999N1-00131+99999999999ADDSA1+0509UA1M990009999REMSYN104BBXX  44021 28121 99438 70700 46/// /3110 11013 91204 22200 00050 1//00 70001 333 91214 555 11119 22129;
0137997849999992012122813004+43783-069883FM-18+0002EB035V0203201N008019999999N9999999N1-00151+99999999999ADDSA1+0559UA1M990009999REMSYN104BBXX  44021 28131 99438 70700 46/// /3208 11015 91304 22200 00055 1//00 70001 333 91211 555 11097 22105;
0137997849999992012122814004+43783-069883FM-18+0002EB035V0203301N009019999999N9999999N1-00071+99999999999ADDSA1+0569UA1M990009999REMSYN104BBXX  44021 28141 99438 70700 46/// /3309 11007 91404 22200 00056 1//00 70001 333 91213 555 11109 22119;
0137997849999992012122815004+43783-069883FM-18+0002EB035V0203301N007019999999N9999999N1-00011+99999999999ADDSA1+0569UA1M990009999REMSYN104BBXX  44021 28151 99438 70700 46/// /3307 11001 91504 22200 00056 1//00 70002 333 91211 555 11090 22098;
0137997849999992012122816004+43783-069883FM-18+0002EB035V0203301N007019999999N9999999N1+00031+99999999999ADDSA1+0579UA1M990009999REMSYN104BBXX  44021 28161 99438 70700 46/// /3307 10003 91604 22200 00057 1//00 70002 333 91210 555 11090 22098;
0137997849999992012122817004+43783-069883FM-18+0002EB035V0203301N006019999999N9999999N1+00091+99999999999ADDSA1+0579UA1M990009999REMSYN104BBXX  44021 28171 99438 70700 46/// /3306 10009 91704 22200 00057 1//00 70001 333 91208 555 11072 22078;
0137997849999992012122818004+43783-069883FM-18+0002EB035V0203101N007019999999N9999999N1+00181+99999999999ADDSA1+0569UA1M990009999REMSYN104BBXX  44021 28181 99438 70700 46/// /3107 10018 91804 22200 00056 1//00 70001 333 91210 555 11086 22094;
0137997849999992012122819004+43783-069883FM-18+0002EB035V0203101N007019999999N9999999N1+00191+99999999999ADDSA1+0549UA1M990009999REMSYN104BBXX  44021 28191 99438 70700 46/// /3107 10019 91904 22200 00054 1//00 70001 333 91209 555 11085 22092;
0137997849999992012122820004+43783-069883FM-18+0002EB035V0203201N005019999999N9999999N1+00181+99999999999ADDSA1+0539UA1M990009999REMSYN104BBXX  44021 28201 99438 70700 46/// /3205 10018 92004 22200 00053 1//00 70001 333 91207 555 11064 22070;
0137997849999992012122821004+43783-069883FM-18+0002EB035V0203101N007019999999N9999999N1+00091+99999999999ADDSA1+0499UA1M990009999REMSYN104BBXX  44021 28211 99438 70700 46/// /3107 10009 92104 22200 00049 1//00 70001 333 91209 555 11085 22092;
0137997849999992012122822004+43783-069883FM-18+0002EB035V0203301N006019999999N9999999N1+00021+99999999999ADDSA1+0469UA1M990009999REMSYN104BBXX  44021 28221 99438 70700 46/// /3306 10002 92204 22200 00046 1//00 70001 333 91208 555 11074 22080;
