0062997993999992011010104004+43050-070833FM-18+0003BGXN3V0202001N000519999999N9999999N1-00121-00131999999REMSYN053CMAN  01044 BGXN3 46/// /2001 11012 21013 0230 90400;
0062997993999992011010105004+43050-070833FM-18+0003BGXN3V0209999C000019999999N9999999N1-00181-00191101701REMSYN053CMAN 01054 BGXN3 46/// /0000 11018 21019 40170 90445;
0062997993999992011010106004+43050-070833FM-18+0003BGXN3V0209999C000019999999N9999999N1-00181-00181999999REMSYN053CMAN  01064 BGXN3 46/// /0000 11018 21018 0230 90545;
0084997993999992011010107004+43050-070833FM-18+0003BGXN3V0209999C000019999999N9999999N1-00201-00201999999REMSYN075CMAN  01074 BGXN3 46/// /0000 11020 21020 56008 90700 222// 0010 333 91207;
0062997993999992011010108004+43050-070833FM-18+0003BGXN3V0209999C000019999999N9999999N1-00111-00111999999REMSYN053CMAN  01084 BGXN3 46/// /0000 11011 21011 0220 90745;
0097997993999992011010109004+43050-070833FM-18+0003BGXN3V0202101N001019999999N9999999N1+00111+00071999999REMSYN088CMAN  01094 BGXN3 46/// /2102 10011 20007 58006 90900 222// 000556600 57963 81625 81945;
0062997993999992011010110004+43050-070833FM-18+0003BGXN3V0209999C000019999999N9999999N1+00111+00051999999REMSYN053CMAN  01104 BGXN3 46/// /0000 10011 20005 0210 90945;
0062997993999992011010111004+43050-070833FM-18+0003BGXN3V0200401N001019999999N9999999N1+00111+00041999999REMSYN053CMAN  01114 BGXN3 46/// /0402 10011 20004 0210 91045;
0062997993999992011010112004+43050-070833FM-18+0003BGXN3V0202301N000519999999N9999999N1+00061+00021999999REMSYN053CMAN  01124 BGXN3 46/// /2301 10006 20002 0220 91145;
0062997993999992011010113004+43050-070833FM-18+0003BGXN3V0202601N001019999999N9999999N1+00091+00021999999REMSYN053CMAN  01134 BGXN3 46/// /2602 10009 20002 0220 91245;
0000997993999992011010114004+43050-070833FM-18+0003BGXN3V0209999C000019999999N9999999N1+00511+00211999999
0062997993999992011010115004+43050-070833FM-18+0003BGXN3V0202101N000519999999N9999999N1+01001+00421999999REMSYN053CMAN  01154 BGXN3 46/// /2101 10100 20042 0230 91445;
0062997993999992011010116004+43050-070833FM-18+0003BGXN3V0202101N001019999999N9999999N1+00981+00501999999REMSYN053CMAN  01164 BGXN3 46/// /2102 10098 20050 0230 91545;
0062997993999992011010117004+43050-070833FM-18+0003BGXN3V0202901N000519999999N9999999N1+01211+00601999999REMSYN053CMAN  01174 BGXN3 46/// /2901 10121 20060 0220 91645;
0062997993999992011010118004+43050-070833FM-18+0003BGXN3V0209999C000019999999N9999999N1+01441+00751999999REMSYN053CMAN  01184 BGXN3 46/// /0000 10144 20075 0210 91745;
0062997993999992011010119004+43050-070833FM-18+0003BGXN3V0209999C000019999999N9999999N1+01531+00771999999REMSYN053CMAN  01194 BGXN3 46/// /0000 10153 20077 0190 91845;
0062997993999992011010120004+43050-070833FM-18+0003BGXN3V0200801N000519999999N9999999N1+01011+00631999999REMSYN053CMAN  01204 BGXN3 46/// /0801 10101 20063 0190 91945;
0062997993999992011010121004+43050-070833FM-18+0003BGXN3V0200801N001019999999N9999999N1+00881+00541999999REMSYN053CMAN  01214 BGXN3 46/// /0802 10088 20054 0190 92045;
0062997993999992011010122004+43050-070833FM-18+0003BGXN3V0200701N001519999999N9999999N1+00641+00491999999REMSYN053CMAN  01224 BGXN3 46/// /0703 10064 20049 0190 92145;
0114997993999992011010123004+43050-070833FM-18+0003BGXN3V0200701N001019999999N9999999N1+00381+00321999999REMSYN105CMAN  01234 BGXN3 46/// /0702 10038 20032 53008 92300 222// 0018 333 55300 20000 30000 89/01 91114 91211;
0062997993999992011010200004+43050-070833FM-18+0003BGXN3V0200601N000519999999N9999999N1+00321+00321999999REMSYN053CMAN  02004 BGXN3 46/// /0601 10032 20032 0200 92345;
0068997993999992011010201004+43050-070833FM-18+0003BGXN3V0200401N002119999999N9999999N1+00301+00291101601REMSYN059CMAN  02014 BGXN3 46/// /0404 10030 20029 40160 2020 90100;
0068997993999992011010202004+43050-070833FM-18+0003BGXN3V0200601N001019999999N9999999N1+00411+00411101501REMSYN059CMAN  02024 BGXN3 46/// /0602 10041 20041 40150 2010 90200;
0068997993999992011010203004+43050-070833FM-18+0003BGXN3V0209999C000019999999N9999999N1+00231+00221101501REMSYN059CMAN  02034 BGXN3 46/// /0000 10023 20022 40150 1010 90300;
0068997993999992011010204004+43050-070833FM-18+0003BGXN3V0201201N000519999999N9999999N1+00191+00191101501REMSYN059CMAN  02044 BGXN3 46/// /1201 10019 20019 40150 4000 90400;
0062997993999992011010205004+43050-070833FM-18+0003BGXN3V0202301N000519999999N9999999N1+00181+00181999999REMSYN053CMAN  02054 BGXN3 46/// /2301 10018 20018 0200 90445;
0062997993999992011010206004+43050-070833FM-18+0003BGXN3V0209999C000019999999N9999999N1+00161+00161999999REMSYN053CMAN  02064 BGXN3 46/// /0000 10016 20016 0180 90545;
0062997993999992011010207004+43050-070833FM-18+0003BGXN3V0202101N000519999999N9999999N1+00181+00181999999REMSYN053CMAN  02074 BGXN3 46/// /2101 10018 20018 0190 90645;
0062997993999992011010208004+43050-070833FM-18+0003BGXN3V0209999C000019999999N9999999N1+00171+00171999999REMSYN053CMAN  02084 BGXN3 46/// /0000 10017 20017 0190 90745;
0134997993999992011010209004+43050-070833FM-18+0003BGXN3V0203401N000519999999N9999999N1+00131+00131999999REMSYN125CMAN  02094 BGXN3 46/// /3401 10013 20013 58015 90900 222// 0011 54000 70322 8685/ 22244 00140 20301 327// 41305 5//// 80115;
0000997993999992011010210004+43050-070833FM-18+0003BGXN3V0209999C000019999999N9999999N1+00241+00241999999
0062997993999992011010211004+43050-070833FM-18+0003BGXN3V0209999C000019999999N9999999N1+00181+00181999999REMSYN053CMAN  02114 BGXN3 46/// /0000 10018 20018 0180 91045;
0062997993999992011010212004+43050-070833FM-18+0003BGXN3V0209999C000019999999N9999999N1+00141+00141999999REMSYN053CMAN  02124 BGXN3 46/// /0000 10014 20014 0180 91145;
0062997993999992011010213004+43050-070833FM-18+0003BGXN3V0200501N000519999999N9999999N1+00201+00201999999REMSYN053CMAN  02134 BGXN3 46/// /0501 10020 20020 0180 91245;
0062997993999992011010214004+43050-070833FM-18+0003BGXN3V0200801N000519999999N9999999N1+00181+00181999999REMSYN053CMAN  02144 BGXN3 46/// /0801 10018 20018 0180 91345;
0062997993999992011010215004+43050-070833FM-18+0003BGXN3V0209999C000019999999N9999999N1+00321+00321999999REMSYN053CMAN  02154 BGXN3 46/// /0000 10032 20032 0180 91445;
0062997993999992011010216004+43050-070833FM-18+0003BGXN3V0200901N000519999999N9999999N1+00551+00551999999REMSYN053CMAN  02164 BGXN3 46/// /0901 10055 20055 0190 91545;
0062997993999992011010217004+43050-070833FM-18+0003BGXN3V0202401N000519999999N9999999N1+00651+00651999999REMSYN053CMAN  02174 BGXN3 46/// /2401 10065 20065 0180 91645;
0062997993999992011010218004+43050-070833FM-18+0003BGXN3V0202901N000519999999N9999999N1+00501+00501999999REMSYN053CMAN  02184 BGXN3 46/// /2901 10050 20050 0170 91745;
0062997993999992011010219004+43050-070833FM-18+0003BGXN3V0209999C000019999999N9999999N1+00711+00651999999REMSYN053CMAN  02194 BGXN3 46/// /0000 10071 20065 0160 91845;
0062997993999992011010220004+43050-070833FM-18+0003BGXN3V0200401N001519999999N9999999N1+00591+00561999999REMSYN053CMAN  02204 BGXN3 46/// /0403 10059 20056 0160 91945;
0062997993999992011010221004+43050-070833FM-18+0003BGXN3V0201001N001019999999N9999999N1+00571+00571999999REMSYN053CMAN  02214 BGXN3 46/// /1002 10057 20057 0160 92045;
0062997993999992011010222004+43050-070833FM-18+0003BGXN3V0209999C000019999999N9999999N1+00371+00371999999REMSYN053CMAN  02224 BGXN3 46/// /0000 10037 20037 0160 92145;
0062997993999992011010223004+43050-070833FM-18+0003BGXN3V0200401N001019999999N9999999N1+00251+00251999999REMSYN053CMAN  02234 BGXN3 46/// /0402 10025 20025 0170 92245;
0085997993999992011010300004+43050-070833FM-18+0003BGXN3V0209999C000019999999N9999999N1+00131+00131999999REMSYN076CMAN  03004 BGXN3 46/// /0000 10013 20013 55004 90000 222// 000700355 70029;
0068997993999992011010301004+43050-070833FM-18+0003BGXN3V0209999C000019999999N9999999N1+00091+00091101001REMSYN059CMAN  03014 BGXN3 46/// /0000 10009 20009 40100 1020 90100;
0068997993999992011010302004+43050-070833FM-18+0003BGXN3V0202401N001519999999N9999999N1+00201+00201100901REMSYN059CMAN  03024 BGXN3 46/// /2403 10020 20020 40090 2020 90200;
0068997993999992011010303004+43050-070833FM-18+0003BGXN3V0202401N003119999999N9999999N1+00381+00071100901REMSYN059CMAN  03034 BGXN3 46/// /2406 10038 20007 40090 3020 90300;
0068997993999992011010304004+43050-070833FM-18+0003BGXN3V0202601N003119999999N9999999N1+00321+00011100801REMSYN059CMAN  03044 BGXN3 46/// /2606 10032 20001 40080 1020 90400;
0062997993999992011010305004+43050-070833FM-18+0003BGXN3V0202501N005719999999N9999999N1+00291-00091999999REMSYN053CMAN  03054 BGXN3 46/// /2511 10029 21009 0210 90445;
0091997993999992011010306004+43050-070833FM-18+0003BGXN3V0202601N004619999999N9999999N1+00201-00251999999REMSYN082CMAN  03064 BGXN3 46/// /2609 10020 21025 51011 90600 222// 00080 00194 333 91208;
0062997993999992011010307004+43050-070833FM-18+0003BGXN3V0202701N003619999999N9999999N1+00101-00421999999REMSYN053CMAN  03074 BGXN3 46/// /2707 10010 21042 0210 90645;
0062997993999992011010308004+43050-070833FM-18+0003BGXN3V0202701N004119999999N9999999N1+00041-00621999999REMSYN053CMAN  03084 BGXN3 46/// /2708 10004 21062 0210 90745;
0086997993999992011010309004+43050-070833FM-18+0003BGXN3V0202701N003119999999N9999999N1-00031-00781999999REMSYN077CMAN  03094 BGXN3 46/// /2706 11003 21078 58003 90900 222// 0011 52001 22251;
0062997993999992011010310004+43050-070833FM-18+0003BGXN3V0202701N004119999999N9999999N1-00091-00711999999REMSYN053CMAN  03104 BGXN3 46/// /2708 11009 21071 0240 90945;
0000997993999992011010311004+43050-070833FM-18+0003BGXN3V0202701N004119999999N9999999N1-00121-00751999999
0079997993999992011010312004+43050-070833FM-18+0003BGXN3V0202701N003119999999N9999999N1-00181-01011999999REMSYN070CMAN  03124 BGXN3 46/// /2706 11018 21101 51005 91200 222// 001100151;
0062997993999992011010313004+43050-070833FM-18+0003BGXN3V0202701N003619999999N9999999N1-00201-01011999999REMSYN053CMAN  03134 BGXN3 46/// /2707 11020 21101 0250 91245;
0062997993999992011010314004+43050-070833FM-18+0003BGXN3V0202501N004119999999N9999999N1-00131-00901999999REMSYN053CMAN  03144 BGXN3 46/// /2508 11013 21090 0250 91345;
0000997993999992011010315004+43050-070833FM-18+0003BGXN3V0202601N004119999999N9999999N1-00091-00901999999
0062997993999992011010316004+43050-070833FM-18+0003BGXN3V0202701N004119999999N9999999N1-00031-01081999999REMSYN053CMAN  03164 BGXN3 46/// /2708 11003 21108 0260 91545;
0091997993999992011010317004+43050-070833FM-18+0003BGXN3V0202601N004619999999N9999999N1+00001-01031999999REMSYN082CMAN  03174 BGXN3 46/// /2609 10000 21103 52014 91700 222// 0011/ 333 54405 59020;
0062997993999992011010318004+43050-070833FM-18+0003BGXN3V0202701N004119999999N9999999N1+00041-01071999999REMSYN053CMAN  03184 BGXN3 46/// /2708 10004 21107 0250 91745;
0062997993999992011010319004+43050-070833FM-18+0003BGXN3V0202701N004619999999N9999999N1+00061-01121999999REMSYN053CMAN  03194 BGXN3 46/// /2709 10006 21112 0250 91845;
0056997993999992011010320004+43050-070833FM-18+0003BGXN3V0202701N004119999999N9999999N1+00061-01181999999REMSYN047CMAN  03204 BGXN3 46/// /2708 10006 21118 1945;
0056997993999992011010321004+43050-070833FM-18+0003BGXN3V0202701N003119999999N9999999N1+00021-01091999999REMSYN047CMAN  03214 BGXN3 46/// /2706 10002 21109 2045;
0062997993999992011010322004+43050-070833FM-18+0003BGXN3V0202701N002119999999N9999999N1-00111-01051999999REMSYN053CMAN  03224 BGXN3 46/// /2704 11011 21105 0230 92145;
0062997993999992011010323004+43050-070833FM-18+0003BGXN3V0202701N002619999999N9999999N1-00151-01111999999REMSYN053CMAN  03234 BGXN3 46/// /2705 11015 21111 0240 92245;
0062997993999992011010400004+43050-070833FM-18+0003BGXN3V0202601N002119999999N9999999N1-00261-01001999999REMSYN053CMAN  04004 BGXN3 46/// /2604 11026 21100 0250 92345;
0068997993999992011010401004+43050-070833FM-18+0003BGXN3V0202401N002619999999N9999999N1-00281-00911101701REMSYN059CMAN  04014 BGXN3 46/// /2405 11028 21091 40170 2010 90100;
0068997993999992011010402004+43050-070833FM-18+0003BGXN3V0202501N003619999999N9999999N1-00301-00911101701REMSYN059CMAN  04024 BGXN3 46/// /2507 11030 21091 40170 0000 90200;
0068997993999992011010403004+43050-070833FM-18+0003BGXN3V0202301N003619999999N9999999N1-00321-01011101701REMSYN059CMAN  04034 BGXN3 46/// /2307 11032 21101 40170 5000 90300;
0068997993999992011010404004+43050-070833FM-18+0003BGXN3V0202401N003619999999N9999999N1-00331-01061101701REMSYN059CMAN  04044 BGXN3 46/// /2407 11033 21106 40170 7010 90400;
0108997993999992011010405004+43050-070833FM-18+0003BGXN3V0202301N002619999999N9999999N1-00371-01061999999REMSYN099CMAN  04054 BGXN3 46/// /2305 11037 21106 58007 90500 222// 0008 333 55300 20000 30000 41010 87616;
0062997993999992011010406004+43050-070833FM-18+0003BGXN3V0202301N002119999999N9999999N1-00531-01071999999REMSYN053CMAN  04064 BGXN3 46/// /2304 11053 21107 0230 90545;
0062997993999992011010407004+43050-070833FM-18+0003BGXN3V0202201N002119999999N9999999N1-00531-01051999999REMSYN053CMAN  04074 BGXN3 46/// /2204 11053 21105 0230 90645;
0084997993999992011010408004+43050-070833FM-18+0003BGXN3V0202401N002619999999N9999999N1-00511-00971999999REMSYN075CMAN  04084 BGXN3 46/// /2405 11051 21097 51008 90800 222// 0011 333 91205;
0062997993999992011010409004+43050-070833FM-18+0003BGXN3V0202401N003619999999N9999999N1-00511-00941999999REMSYN053CMAN  04094 BGXN3 46/// /2407 11051 21094 0220 90845;
0062997993999992011010410004+43050-070833FM-18+0003BGXN3V0202401N003119999999N9999999N1-00541-00911999999REMSYN053CMAN  04104 BGXN3 46/// /2406 11054 21091 0210 90945;
0000997993999992011010411004+43050-070833FM-18+0003BGXN3V0202401N002619999999N9999999N1-00531-00901999999
0062997993999992011010412004+43050-070833FM-18+0003BGXN3V0202401N000519999999N9999999N1-00561-00931999999REMSYN053CMAN  04124 BGXN3 46/// /2401 11056 21093 0220 91145;
0062997993999992011010413004+43050-070833FM-18+0003BGXN3V0209999C000019999999N9999999N1-00701-00961999999REMSYN053CMAN  04134 BGXN3 46/// /0000 11070 21096 0210 91245;
0062997993999992011010414004+43050-070833FM-18+0003BGXN3V0209999C000019999999N9999999N1-00271-00881101601REMSYN053CMAN 04144 BGXN3 46/// /0000 11027 21088 40160 91345;
0068997993999992011010415004+43050-070833FM-18+0003BGXN3V0202601N001519999999N9999999N1-00271-00781101501REMSYN059CMAN  04154 BGXN3 46/// /2603 11027 21078 40150 5000 91500;
0062997993999992011010416004+43050-070833FM-18+0003BGXN3V0202401N001519999999N9999999N1-00081-00761999999REMSYN053CMAN  04164 BGXN3 46/// /2403 11008 21076 0220 91545;
0062997993999992011010417004+43050-070833FM-18+0003BGXN3V0202401N002619999999N9999999N1-00051-00691999999REMSYN053CMAN  04174 BGXN3 46/// /2405 11005 21069 0210 91645;
0000997993999992011010418004+43050-070833FM-18+0003BGXN3V0202301N002119999999N9999999N1+00071-00711999999
0062997993999992011010419004+43050-070833FM-18+0003BGXN3V0202601N001019999999N9999999N1+00101-00631999999REMSYN053CMAN  04194 BGXN3 46/// /2602 10010 21063 0190 91845;
0076997993999992011010420004+43050-070833FM-18+0003BGXN3V0202701N000519999999N9999999N1+00131-00671999999REMSYN067CMAN  04204 BGXN3 46/// /2701 10013 21067 50000 92000 222// 001105;
0062997993999992011010421004+43050-070833FM-18+0003BGXN3V0209999C000019999999N9999999N1+00261-00651999999REMSYN053CMAN  04214 BGXN3 46/// /0000 10026 21065 0210 92045;
0062997993999992011010422004+43050-070833FM-18+0003BGXN3V0200601N001019999999N9999999N1-00211-00581999999REMSYN053CMAN  04224 BGXN3 46/// /0602 11021 21058 0180 92145;
0062997993999992011010423004+43050-070833FM-18+0003BGXN3V0209999C000019999999N9999999N1-00391-00651999999REMSYN053CMAN  04234 BGXN3 46/// /0000 11039 21065 0180 92245;
0062997993999992011010500004+43050-070833FM-18+0003BGXN3V0209999C000019999999N9999999N1-00491-00661999999REMSYN053CMAN  05004 BGXN3 46/// /0000 11049 21066 0180 92345;
0068997993999992011010501004+43050-070833FM-18+0003BGXN3V0209999C000019999999N9999999N1-00561-00661100701REMSYN059CMAN  05014 BGXN3 46/// /0000 11056 21066 40070 4000 90100;
0068997993999992011010502004+43050-070833FM-18+0003BGXN3V0209999C000019999999N9999999N1-00681-00711100701REMSYN059CMAN  05024 BGXN3 46/// /0000 11068 21071 40070 4000 90200;
0068997993999992011010503004+43050-070833FM-18+0003BGXN3V0209999C000019999999N9999999N1-00691-00701100701REMSYN059CMAN  05034 BGXN3 46/// /0000 11069 21070 40070 4000 90300;
0068997993999992011010504004+43050-070833FM-18+0003BGXN3V0209999C000019999999N9999999N1-00771-00771100601REMSYN059CMAN  05044 BGXN3 46/// /0000 11077 21077 40060 4000 90400;
0062997993999992011010505004+43050-070833FM-18+0003BGXN3V0209999C000019999999N9999999N1-00751-00751999999REMSYN053CMAN  05054 BGXN3 46/// /0000 11075 21075 0180 90445;
0097997993999992011010506004+43050-070833FM-18+0003BGXN3V0209999C000019999999N9999999N1-00771-00771999999REMSYN088CMAN  05064 BGXN3 46/// /0000 11077 21077 58005 90600 222// 00076 10906 70029 333 912//;
0062997993999992011010507004+43050-070833FM-18+0003BGXN3V0209999C000019999999N9999999N1-00751-00751999999REMSYN053CMAN  05074 BGXN3 46/// /0000 11075 21075 0180 90645;
0062997993999992011010508004+43050-070833FM-18+0003BGXN3V0209999C000019999999N9999999N1-00731-00731999999REMSYN053CMAN  05084 BGXN3 46/// /0000 11073 21073 0180 90745;
0084997993999992011010509004+43050-070833FM-18+0003BGXN3V0202601N002619999999N9999999N1-00501-00501999999REMSYN075CMAN  05094 BGXN3 46/// /2605 11050 21050 58006 90900 222// 0005 333 91202;
0062997993999992011010510004+43050-070833FM-18+0003BGXN3V0202601N001019999999N9999999N1-00511-00561999999REMSYN053CMAN  05104 BGXN3 46/// /2602 11051 21056 0170 90945;
0000997993999992011010511004+43050-070833FM-18+0003BGXN3V0202201N000519999999N9999999N1-00551-00631999999
0062997993999992011010512004+43050-070833FM-18+0003BGXN3V0201901N001519999999N9999999N1-00701-00731999999REMSYN053CMAN  05124 BGXN3 46/// /1903 11070 21073 0170 91145;
0000997993999992011010513004+43050-070833FM-18+0003BGXN3V0202001N001019999999N9999999N1-00701-00711999999
0062997993999992011010514004+43050-070833FM-18+0003BGXN3V0201801N001019999999N9999999N1-00251-00411999999REMSYN053CMAN  05144 BGXN3 46/// /1802 11025 21041 0180 91345;
0062997993999992011010515004+43050-070833FM-18+0003BGXN3V0202101N001019999999N9999999N1-00051-00401999999REMSYN053CMAN  05154 BGXN3 46/// /2102 11005 21040 0160 91445;
0000997993999992011010516004+43050-070833FM-18+0003BGXN3V0202501N003619999999N9999999N1+00081-00461999999
0062997993999992011010517004+43050-070833FM-18+0003BGXN3V0202401N005119999999N9999999N1+00151-00561999999REMSYN053CMAN  05174 BGXN3 46/// /2410 10015 21056 0170 91645;
0062997993999992011010518004+43050-070833FM-18+0003BGXN3V0202401N004119999999N9999999N1+00091-00581999999REMSYN053CMAN  05184 BGXN3 46/// /2408 10009 21058 0150 91745;
0062997993999992011010519004+43050-070833FM-18+0003BGXN3V0202501N003119999999N9999999N1+00231-00581999999REMSYN053CMAN  05194 BGXN3 46/// /2506 10023 21058 0150 91845;
0062997993999992011010520004+43050-070833FM-18+0003BGXN3V0202501N003619999999N9999999N1+00141-00531999999REMSYN053CMAN  05204 BGXN3 46/// /2507 10014 21053 0140 91945;
0084997993999992011010521004+43050-070833FM-18+0003BGXN3V0202601N002119999999N9999999N1+00031-00551999999REMSYN075CMAN  05214 BGXN3 46/// /2604 10003 21055 51014 92100 222// 00030710 91129;
0062997993999992011010522004+43050-070833FM-18+0003BGXN3V0202501N003619999999N9999999N1-00061-00561999999REMSYN053CMAN  05224 BGXN3 46/// /2507 11006 21056 0120 92145;
0062997993999992011010523004+43050-070833FM-18+0003BGXN3V0202601N002119999999N9999999N1-00201-00601999999REMSYN053CMAN  05234 BGXN3 46/// /2604 11020 21060 0120 92245;
0062997993999992011010600004+43050-070833FM-18+0003BGXN3V0202501N004619999999N9999999N1-00131-00871999999REMSYN053CMAN  06004 BGXN3 46/// /2509 11013 21087 40100 2345;
0068997993999992011010601004+43050-070833FM-18+0003BGXN3V0202501N003619999999N9999999N1-00181-00991100701REMSYN059CMAN  06014 BGXN3 46/// /2507 11018 21099 40070 7010 90100;
0068997993999992011010602004+43050-070833FM-18+0003BGXN3V0202601N002119999999N9999999N1-00271-01051100701REMSYN059CMAN  06024 BGXN3 46/// /2604 11027 21105 40070 7020 90200;
0068997993999992011010603004+43050-070833FM-18+0003BGXN3V0202601N001519999999N9999999N1-00341-00961100701REMSYN059CMAN  06034 BGXN3 46/// /2603 11034 21096 40070 8020 90300;
0068997993999992011010604004+43050-070833FM-18+0003BGXN3V0202901N001019999999N9999999N1-00461-01041100801REMSYN059CMAN  06044 BGXN3 46/// /2902 11046 21104 40080 7030 90400;
0062997993999992011010605004+43050-070833FM-18+0003BGXN3V0202601N003119999999N9999999N1-00441-01001999999REMSYN053CMAN  06054 BGXN3 46/// /2606 11044 21100 0080 90445;
0081997993999992011010606004+43050-070833FM-18+0003BGXN3V0202501N003119999999N9999999N1-00481-01001999999REMSYN072CMAN  06064 BGXN3 46/// /2506 11048 21100 55000 90600 222// 00117 70036;
0062997993999992011010607004+43050-070833FM-18+0003BGXN3V0202401N003119999999N9999999N1-00521-01021999999REMSYN053CMAN  06074 BGXN3 46/// /2406 11052 21102 0070 90645;
0102997993999992011010608004+43050-070833FM-18+0003BGXN3V0202401N003619999999N9999999N1-00551-01111999999REMSYN093CMAN  06084 BGXN3 46/// /2407 11055 21111 51006 90800 222// 0011 90700 22200 00150 333 91202;
0062997993999992011010609004+43050-070833FM-18+0003BGXN3V0202301N002119999999N9999999N1-00691-01091999999REMSYN053CMAN  06094 BGXN3 46/// /2304 11069 21109 0060 90845;
0062997993999992011010610004+43050-070833FM-18+0003BGXN3V0202301N002619999999N9999999N1-00701-01121999999REMSYN053CMAN  06104 BGXN3 46/// /2305 11070 21112 0060 90945;
0062997993999992011010611004+43050-070833FM-18+0003BGXN3V0202201N001019999999N9999999N1-00761-01111999999REMSYN053CMAN  06114 BGXN3 46/// /2202 11076 21111 0060 91045;
0062997993999992011010612004+43050-070833FM-18+0003BGXN3V0202201N001519999999N9999999N1-00801-01151999999REMSYN053CMAN  06124 BGXN3 46/// /2203 11080 21115 0070 91145;
0099997993999992011010613004+43050-070833FM-18+0003BGXN3V0202501N002119999999N9999999N1-00721-01091999999REMSYN090CMAN  06134 BGXN3 46/// /2504 11072 21109 56011 91300 222// 00113 21001 329// 41403 70014;
0062997993999992011010614004+43050-070833FM-18+0003BGXN3V0209999C000019999999N9999999N1-00611-01161999999REMSYN053CMAN  06144 BGXN3 46/// /0000 11061 21116 0080 91345;
0062997993999992011010615004+43050-070833FM-18+0003BGXN3V0202501N002119999999N9999999N1-00531-01111999999REMSYN053CMAN  06154 BGXN3 46/// /2504 11053 21111 0080 91445;
0076997993999992011010616004+43050-070833FM-18+0003BGXN3V0202401N002119999999N9999999N1-00331-01041999999REMSYN067CMAN  06164 BGXN3 46/// /2404 11033 21104 50000 91600 222// 000721;
0099997993999992011010617004+43050-070833FM-18+0003BGXN3V0202401N002119999999N9999999N1-00191-01101999999REMSYN090CMAN  06174 BGXN3 46/// /2404 11019 21110 53012 91700 222// 00113 21001 329// 41303 70015;
0062997993999992011010618004+43050-070833FM-18+0003BGXN3V0202401N001519999999N9999999N1-00141-01161999999REMSYN053CMAN  06184 BGXN3 46/// /2403 11014 21116 0050 91745;
0103997993999992011010619004+43050-070833FM-18+0003BGXN3V0202501N002119999999N9999999N1-00091-01221999999REMSYN094CMAN  06194 BGXN3 46/// /2504 11009 21122 58003 91900 222// 00110 00114 10804 70021 555 1/025;
0062997993999992011010620004+43050-070833FM-18+0003BGXN3V0202501N002119999999N9999999N1-00071-01331999999REMSYN053CMAN  06204 BGXN3 46/// /2504 11007 21133 0090 91945;
0062997993999992011010621004+43050-070833FM-18+0003BGXN3V0202901N001519999999N9999999N1-00131-01421999999REMSYN053CMAN  06214 BGXN3 46/// /2903 11013 21142 0040 92045;
0000997993999992011010622004+43050-070833FM-18+0003BGXN3V0203601N000519999999N9999999N1-00321-01351999999
0114997993999992011010623004+43050-070833FM-18+0003BGXN3V0209999C000019999999N9999999N1-00521-01181999999REMSYN105CMAN  06234 BGXN3 46/// /0000 11052 21118 55007 92300 222// 0017 92200 22200 00224 10603 70014 333 91211;
0062997993999992011010700004+43050-070833FM-18+0003BGXN3V0209999C000019999999N9999999N1-00761-01081999999REMSYN053CMAN  07004 BGXN3 46/// /0000 11076 21108 0050 92345;
0068997993999992011010701004+43050-070833FM-18+0003BGXN3V0209999C000019999999N9999999N1-00891-01131100401REMSYN059CMAN  07014 BGXN3 46/// /0000 11089 21113 40040 1010 90100;
0068997993999992011010702004+43050-070833FM-18+0003BGXN3V0209999C000019999999N9999999N1-00991-01111100401REMSYN059CMAN  07024 BGXN3 46/// /0000 11099 21111 40040 4000 90200;
0068997993999992011010703004+43050-070833FM-18+0003BGXN3V0209999C000019999999N9999999N1-01041-01131100401REMSYN059CMAN  07034 BGXN3 46/// /0000 11104 21113 40040 3010 90300;
0068997993999992011010704004+43050-070833FM-18+0003BGXN3V0209999C000019999999N9999999N1-01051-01111100401REMSYN059CMAN  07044 BGXN3 46/// /0000 11105 21111 40040 0000 90400;
0062997993999992011010705004+43050-070833FM-18+0003BGXN3V0209999C000019999999N9999999N1-01071-01131999999REMSYN053CMAN  07054 BGXN3 46/// /0000 11107 21113 0050 90445;
0062997993999992011010706004+43050-070833FM-18+0003BGXN3V0203601N000519999999N9999999N1-01151-01201999999REMSYN053CMAN  07064 BGXN3 46/// /3601 11115 21120 40010 0545;
0062997993999992011010707004+43050-070833FM-18+0003BGXN3V0209999C000019999999N9999999N1-01111-01161999999REMSYN053CMAN  07074 BGXN3 46/// /0000 11111 21116 0040 90645;
0000997993999992011010708004+43050-070833FM-18+0003BGXN3V0209999C000019999999N9999999N1-00971-01081999999
0081997993999992011010709004+43050-070833FM-18+0003BGXN3V0209999C000019999999N9999999N1-00961-01091999999REMSYN072CMAN  07094 BGXN3 46/// /0000 11096 21109 53040 90900 222// 00030 70049;
0062997993999992011010710004+43050-070833FM-18+0003BGXN3V0203401N001019999999N9999999N1-00791-01141999999REMSYN053CMAN  07104 BGXN3 46/// /3402 11079 21114 0040 90945;
0062997993999992011010711004+43050-070833FM-18+0003BGXN3V0202801N001019999999N9999999N1-00761-01201999999REMSYN053CMAN  07114 BGXN3 46/// /2802 11076 21120 0040 91045;
0062997993999992011010712004+43050-070833FM-18+0003BGXN3V0202801N000519999999N9999999N1-00771-01211999999REMSYN053CMAN  07124 BGXN3 46/// /2801 11077 21121 0050 91145;
0062997993999992011010713004+43050-070833FM-18+0003BGXN3V0203301N001019999999N9999999N1-00761-01181999999REMSYN053CMAN  07134 BGXN3 46/// /3302 11076 21118 0050 91245;
0084997993999992011010714004+43050-070833FM-18+0003BGXN3V0203401N001519999999N9999999N1-00661-01141999999REMSYN075CMAN  07144 BGXN3 46/// /3403 11066 21114 56006 91400 222// 0011 333 91203;
0062997993999992011010715004+43050-070833FM-18+0003BGXN3V0203501N001519999999N9999999N1-00401-01081999999REMSYN053CMAN  07154 BGXN3 46/// /3503 11040 21108 0050 91445;
0062997993999992011010716004+43050-070833FM-18+0003BGXN3V0203601N002619999999N9999999N1-00141-00911999999REMSYN053CMAN  07164 BGXN3 46/// /3605 11014 21091 0050 91545;
0062997993999992011010717004+43050-070833FM-18+0003BGXN3V0200201N002619999999N9999999N1-00061-00811999999REMSYN053CMAN  07174 BGXN3 46/// /0205 11006 21081 0100 91645;
0062997993999992011010718004+43050-070833FM-18+0003BGXN3V0200201N002619999999N9999999N1-00101-00801999999REMSYN053CMAN  07184 BGXN3 46/// /0205 11010 21080 0090 91745;
0000997993999992011010719004+43050-070833FM-18+0003BGXN3V0200201N003619999999N9999999N1-00151-00831999999
0099997993999992011010720004+43050-070833FM-18+0003BGXN3V0200201N003119999999N9999999N1-00071-00711999999REMSYN090CMAN  07204 BGXN3 46/// /0206 11007 21071 58004 92000 222// 00112 20901 325// 41402 70009;
0090997993999992011010721004+43050-070833FM-18+0003BGXN3V0200201N002619999999N9999999N1-00201-00711999999REMSYN081CMAN  07214 BGXN3 46/// /0205 11020 21071 56006 92100 222// 0007 333 58013 85080;
0062997993999992011010722004+43050-070833FM-18+0003BGXN3V0200101N002619999999N9999999N1-00261-00791999999REMSYN053CMAN  07224 BGXN3 46/// /0105 11026 21079 0060 92145;
0062997993999992011010723004+43050-070833FM-18+0003BGXN3V0203601N002619999999N9999999N1-00311-00881999999REMSYN053CMAN  07234 BGXN3 46/// /3605 11031 21088 9980 92245;
0062997993999992011010800004+43050-070833FM-18+0003BGXN3V0203301N001019999999N9999999N1-00331-00881999999REMSYN053CMAN  08004 BGXN3 46/// /3302 11033 21088 9980 92345;
0068997993999992011010801004+43050-070833FM-18+0003BGXN3V0203601N002119999999N9999999N1-00351-01001099901REMSYN059CMAN  08014 BGXN3 46/// /3604 11035 21100 49990 4000 90100;
0068997993999992011010802004+43050-070833FM-18+0003BGXN3V0203401N001019999999N9999999N1-00371-01101099901REMSYN059CMAN  08024 BGXN3 46/// /3402 11037 21110 49990 4000 90200;
0068997993999992011010803004+43050-070833FM-18+0003BGXN3V0203401N001519999999N9999999N1-00381-01071099901REMSYN059CMAN  08034 BGXN3 46/// /3403 11038 21107 49990 4000 90300;
0068997993999992011010804004+43050-070833FM-18+0003BGXN3V0203601N001019999999N9999999N1-00431-01031099901REMSYN059CMAN  08044 BGXN3 46/// /3602 11043 21103 49990 4000 90400;
0062997993999992011010805004+43050-070833FM-18+0003BGXN3V0203601N001519999999N9999999N1-00441-01021999999REMSYN053CMAN  08054 BGXN3 46/// /3603 11044 21102 0050 90445;
0062997993999992011010806004+43050-070833FM-18+0003BGXN3V0203601N001019999999N9999999N1-00541-00931999999REMSYN053CMAN  08064 BGXN3 46/// /3602 11054 21093 0000 90545;
0062997993999992011010807004+43050-070833FM-18+0003BGXN3V0203601N002119999999N9999999N1-00601-00861999999REMSYN053CMAN  08074 BGXN3 46/// /3604 11060 21086 0010 90645;
0062997993999992011010808004+43050-070833FM-18+0003BGXN3V0200201N000519999999N9999999N1-00631-00831999999REMSYN053CMAN  08084 BGXN3 46/// /0201 11063 21083 0010 90745;
0062997993999992011010809004+43050-070833FM-18+0003BGXN3V0209999C000019999999N9999999N1-00631-00811999999REMSYN053CMAN  08094 BGXN3 46/// /0000 11063 21081 0020 90845;
0062997993999992011010810004+43050-070833FM-18+0003BGXN3V0200101N001519999999N9999999N1-00601-00781999999REMSYN053CMAN  08104 BGXN3 46/// /0103 11060 21078 0020 90945;
0084997993999992011010811004+43050-070833FM-18+0003BGXN3V0200101N001519999999N9999999N1-00591-00801999999REMSYN075CMAN  08114 BGXN3 46/// /0103 11059 21080 53012 91100 222// 0007 333 91203;
0062997993999992011010812004+43050-070833FM-18+0003BGXN3V0203601N002119999999N9999999N1-00511-00681999999REMSYN053CMAN  08124 BGXN3 46/// /3604 11051 21068 0030 91145;
0062997993999992011010813004+43050-070833FM-18+0003BGXN3V0203401N001519999999N9999999N1-00471-00611999999REMSYN053CMAN  08134 BGXN3 46/// /3403 11047 21061 0030 91245;
0062997993999992011010814004+43050-070833FM-18+0003BGXN3V0203401N002119999999N9999999N1-00361-00581999999REMSYN053CMAN  08144 BGXN3 46/// /3404 11036 21058 0100 91345;
0062997993999992011010815004+43050-070833FM-18+0003BGXN3V0203601N002619999999N9999999N1-00151-00501999999REMSYN053CMAN  08154 BGXN3 46/// /3605 11015 21050 0050 91445;
0000997993999992011010816004+43050-070833FM-18+0003BGXN3V0200101N002619999999N9999999N1-00131-00451999999
0062997993999992011010817004+43050-070833FM-18+0003BGXN3V0200101N002619999999N9999999N1-00081-00431999999REMSYN053CMAN  08174 BGXN3 46/// /0105 11008 21043 0050 91645;
0062997993999992011010818004+43050-070833FM-18+0003BGXN3V0200201N002119999999N9999999N1-00011-00431999999REMSYN053CMAN  08184 BGXN3 46/// /0204 11001 21043 0040 91745;
0062997993999992011010819004+43050-070833FM-18+0003BGXN3V0200201N001519999999N9999999N1-00031-00401999999REMSYN053CMAN  08194 BGXN3 46/// /0203 11003 21040 0040 91845;
0062997993999992011010820004+43050-070833FM-18+0003BGXN3V0200101N002619999999N9999999N1-00051-00401999999REMSYN053CMAN  08204 BGXN3 46/// /0105 11005 21040 0040 91945;
0062997993999992011010821004+43050-070833FM-18+0003BGXN3V0203601N001019999999N9999999N1-00031-00401999999REMSYN053CMAN  08214 BGXN3 46/// /3602 11003 21040 0100 92045;
0062997993999992011010822004+43050-070833FM-18+0003BGXN3V0203401N001519999999N9999999N1-00051-00401999999REMSYN053CMAN  08224 BGXN3 46/// /3403 11005 21040 0050 92145;
0062997993999992011010823004+43050-070833FM-18+0003BGXN3V0203401N001519999999N9999999N1-00051-00391999999REMSYN053CMAN  08234 BGXN3 46/// /3403 11005 21039 0060 92245;
0062997993999992011010900004+43050-070833FM-18+0003BGXN3V0203401N001519999999N9999999N1-00051-00371999999REMSYN053CMAN  09004 BGXN3 46/// /3403 11005 21037 0080 92345;
0068997993999992011010901004+43050-070833FM-18+0003BGXN3V0203501N001519999999N9999999N1-00061-00381099601REMSYN059CMAN  09014 BGXN3 46/// /3503 11006 21038 49960 1040 90100;
0068997993999992011010902004+43050-070833FM-18+0003BGXN3V0203401N002619999999N9999999N1-00091-00411099501REMSYN059CMAN  09024 BGXN3 46/// /3405 11009 21041 49950 2030 90200;
0068997993999992011010903004+43050-070833FM-18+0003BGXN3V0203201N002119999999N9999999N1-00131-00411099501REMSYN059CMAN  09034 BGXN3 46/// /3204 11013 21041 49950 2030 90300;
0068997993999992011010904004+43050-070833FM-18+0003BGXN3V0202901N002119999999N9999999N1-00131-00381099401REMSYN059CMAN  09044 BGXN3 46/// /2904 11013 21038 49940 3040 90400;
0062997993999992011010905004+43050-070833FM-18+0003BGXN3V0203301N002119999999N9999999N1-00121-00371999999REMSYN053CMAN  09054 BGXN3 46/// /3304 11012 21037 0150 90445;
0062997993999992011010906004+43050-070833FM-18+0003BGXN3V0203001N002119999999N9999999N1-00081-00361999999REMSYN053CMAN  09064 BGXN3 46/// /3004 11008 21036 0140 90545;
0062997993999992011010907004+43050-070833FM-18+0003BGXN3V0202701N002119999999N9999999N1-00151-00181999999REMSYN053CMAN  09074 BGXN3 46/// /2704 11015 21018 0160 90645;
0084997993999992011010908004+43050-070833FM-18+0003BGXN3V0202801N002119999999N9999999N1-00151-00151999999REMSYN075CMAN  09084 BGXN3 46/// /2804 11015 21015 55000 90800 222// 0005 333 91205;
0062997993999992011010909004+43050-070833FM-18+0003BGXN3V0203001N002119999999N9999999N1-00091-00151999999REMSYN053CMAN  09094 BGXN3 46/// /3004 11009 21015 0170 90845;
0084997993999992011010910004+43050-070833FM-18+0003BGXN3V0202701N001519999999N9999999N1-00101-00211999999REMSYN075CMAN  09104 BGXN3 46/// /2703 11010 21021 51010 91000 222// 0010 333 91206;
0062997993999992011010911004+43050-070833FM-18+0003BGXN3V0202701N002119999999N9999999N1-00161-00411999999REMSYN053CMAN  09114 BGXN3 46/// /2704 11016 21041 0200 91045;
0062997993999992011010912004+43050-070833FM-18+0003BGXN3V0202601N002619999999N9999999N1-00271-00521999999REMSYN053CMAN  09124 BGXN3 46/// /2605 11027 21052 0210 91145;
0084997993999992011010913004+43050-070833FM-18+0003BGXN3V0202601N002619999999N9999999N1-00291-00551999999REMSYN075CMAN  09134 BGXN3 46/// /2605 11029 21055 50000 91300 222// 0005 333 91205;
0000997993999992011010914004+43050-070833FM-18+0003BGXN3V0202601N004119999999N9999999N1-00201-00551999999
0062997993999992011010915004+43050-070833FM-18+0003BGXN3V0202601N003119999999N9999999N1-00071-00551999999REMSYN053CMAN  09154 BGXN3 46/// /2606 11007 21055 0240 91445;
0000997993999992011010916004+43050-070833FM-18+0003BGXN3V0202601N005119999999N9999999N1-00051-00551999999
0000997993999992011010917004+43050-070833FM-18+0003BGXN3V0202601N005119999999N9999999N1+00011-00571999999
0062997993999992011010918004+43050-070833FM-18+0003BGXN3V0202601N004619999999N9999999N1+00071-00551999999REMSYN053CMAN  09184 BGXN3 46/// /2609 10007 21055 0240 91745;
0062997993999992011010919004+43050-070833FM-18+0003BGXN3V0202601N004619999999N9999999N1+00141-00591999999REMSYN053CMAN  09194 BGXN3 46/// /2609 10014 21059 0240 91845;
0062997993999992011010920004+43050-070833FM-18+0003BGXN3V0202701N004619999999N9999999N1+00131-00631999999REMSYN053CMAN  09204 BGXN3 46/// /2709 10013 21063 0240 91945;
0062997993999992011010921004+43050-070833FM-18+0003BGXN3V0202601N004619999999N9999999N1+00051-00611999999REMSYN053CMAN  09214 BGXN3 46/// /2609 10005 21061 0250 92045;
0062997993999992011010922004+43050-070833FM-18+0003BGXN3V0202601N004119999999N9999999N1-00021-00661999999REMSYN053CMAN  09224 BGXN3 46/// /2608 11002 21066 0240 92145;
0083997993999992011010923004+43050-070833FM-18+0003BGXN3V0202601N003619999999N9999999N1-00071-00651999999REMSYN074CMAN  09234 BGXN3 46/// /2607 11007 21065 56008 92300 222// 0010221 04282;
0062997993999992011011000004+43050-070833FM-18+0003BGXN3V0202401N005719999999N9999999N1-00101-00721999999REMSYN053CMAN  10004 BGXN3 46/// /2411 11010 21072 0260 92345;
0068997993999992011011001004+43050-070833FM-18+0003BGXN3V0202401N007219999999N9999999N1-00131-00721100901REMSYN059CMAN  10014 BGXN3 46/// /2414 11013 21072 40090 2030 90100;
0068997993999992011011002004+43050-070833FM-18+0003BGXN3V0202501N007219999999N9999999N1-00181-00751100901REMSYN059CMAN  10024 BGXN3 46/// /2514 11018 21075 40090 0000 90200;
0068997993999992011011003004+43050-070833FM-18+0003BGXN3V0202501N005719999999N9999999N1-00211-00701101001REMSYN059CMAN  10034 BGXN3 46/// /2511 11021 21070 40100 3010 90300;
0068997993999992011011004004+43050-070833FM-18+0003BGXN3V0202601N004119999999N9999999N1-00301-00791101001REMSYN059CMAN  10044 BGXN3 46/// /2608 11030 21079 40100 5000 90400;
0062997993999992011011005004+43050-070833FM-18+0003BGXN3V0202701N003619999999N9999999N1-00331-00911999999REMSYN053CMAN  10054 BGXN3 46/// /2707 11033 21091 40180 0445;
0114997993999992011011006004+43050-070833FM-18+0003BGXN3V0202701N004619999999N9999999N1-00401-01081999999REMSYN105CMAN  10064 BGXN3 46/// /2709 11040 21108 53007 90600 222// 001620229 50/// 55/// 94320 555 000260 10116;
0062997993999992011011007004+43050-070833FM-18+0003BGXN3V0202601N004119999999N9999999N1-00481-01101999999REMSYN053CMAN  10074 BGXN3 46/// /2608 11048 21110 0250 90645;
0000997993999992011011008004+43050-070833FM-18+0003BGXN3V0202601N003619999999N9999999N1-00531-01131999999
0062997993999992011011009004+43050-070833FM-18+0003BGXN3V0202601N004119999999N9999999N1-00581-01151999999REMSYN053CMAN  10094 BGXN3 46/// /2608 11058 21115 40190 0845;
0062997993999992011011010004+43050-070833FM-18+0003BGXN3V0202701N003619999999N9999999N1-00611-01181999999REMSYN053CMAN  10104 BGXN3 46/// /2707 11061 21118 0130 90945;
0103997993999992011011011004+43050-070833FM-18+0003BGXN3V0202501N005119999999N9999999N1-00611-01141999999REMSYN094CMAN  10114 BGXN3 46/// /2510 11061 21114 55000 91100 222// 00100 00113 10806 70030 555 1/047;
0062997993999992011011012004+43050-070833FM-18+0003BGXN3V0202601N004619999999N9999999N1-00581-01121999999REMSYN053CMAN  10124 BGXN3 46/// /2609 11058 21112 0220 91145;
0062997993999992011011013004+43050-070833FM-18+0003BGXN3V0202501N005119999999N9999999N1-00541-01101999999REMSYN053CMAN  10134 BGXN3 46/// /2510 11054 21110 0230 91245;
0084997993999992011011014004+43050-070833FM-18+0003BGXN3V0202501N005119999999N9999999N1-00511-01071999999REMSYN075CMAN  10144 BGXN3 46/// /2510 11051 21107 51023 91400 222// 0005 333 91201;
0062997993999992011011015004+43050-070833FM-18+0003BGXN3V0202501N005719999999N9999999N1-00381-01021999999REMSYN053CMAN  10154 BGXN3 46/// /2511 11038 21102 0160 91445;
0062997993999992011011016004+43050-070833FM-18+0003BGXN3V0202601N004119999999N9999999N1-00251-00941999999REMSYN053CMAN  10164 BGXN3 46/// /2608 11025 21094 0230 91545;
0062997993999992011011017004+43050-070833FM-18+0003BGXN3V0202601N003619999999N9999999N1-00141-00881999999REMSYN053CMAN  10174 BGXN3 46/// /2607 11014 21088 0150 91645;
0062997993999992011011018004+43050-070833FM-18+0003BGXN3V0202501N006219999999N9999999N1-00131-00831999999REMSYN053CMAN  10184 BGXN3 46/// /2512 11013 21083 0200 91745;
0000997993999992011011019004+43050-070833FM-18+0003BGXN3V0202501N006719999999N9999999N1-00081-00721999999
0000997993999992011011020004+43050-070833FM-18+0003BGXN3V0202601N004619999999N9999999N1-00051-00751999999
0000997993999992011011021004+43050-070833FM-18+0003BGXN3V0202501N006219999999N9999999N1-00111-00751999999
0062997993999992011011022004+43050-070833FM-18+0003BGXN3V0202501N003619999999N9999999N1-00191-00721999999REMSYN053CMAN  10224 BGXN3 46/// /2507 11019 21072 0180 92145;
0000997993999992011011023004+43050-070833FM-18+0003BGXN3V0202601N003119999999N9999999N1-00231-00721999999
0062997993999992011011100004+43050-070833FM-18+0003BGXN3V0202501N003619999999N9999999N1-00281-00751999999REMSYN053CMAN  11004 BGXN3 46/// /2507 11028 21075 0190 92345;
0068997993999992011011101004+43050-070833FM-18+0003BGXN3V0202601N003119999999N9999999N1-00351-00841102001REMSYN059CMAN  11014 BGXN3 46/// /2606 11035 21084 40200 2010 90100;
0068997993999992011011102004+43050-070833FM-18+0003BGXN3V0202501N004619999999N9999999N1-00411-00841102001REMSYN059CMAN  11024 BGXN3 46/// /2509 11041 21084 40200 1010 90200;
0068997993999992011011103004+43050-070833FM-18+0003BGXN3V0202601N002619999999N9999999N1-00511-00921102101REMSYN059CMAN  11034 BGXN3 46/// /2605 11051 21092 40210 4000 90300;
0068997993999992011011104004+43050-070833FM-18+0003BGXN3V0202701N001519999999N9999999N1-00601-00961102101REMSYN059CMAN  11044 BGXN3 46/// /2703 11060 21096 40210 4000 90400;
0062997993999992011011105004+43050-070833FM-18+0003BGXN3V0202701N001519999999N9999999N1-00651-00951999999REMSYN053CMAN  11054 BGXN3 46/// /2703 11065 21095 0190 90445;
0062997993999992011011106004+43050-070833FM-18+0003BGXN3V0203001N001019999999N9999999N1-00711-01011999999REMSYN053CMAN  11064 BGXN3 46/// /3002 11071 21101 0190 90545;
0084997993999992011011107004+43050-070833FM-18+0003BGXN3V0202801N000519999999N9999999N1-00911-01061999999REMSYN075CMAN  11074 BGXN3 46/// /2801 11091 21106 3005 90700 222// 00100 333 91202;
0000997993999992011011108004+43050-070833FM-18+0003BGXN3V0209999C000019999999N9999999N1-00961-01121999999
0079997993999992011011109004+43050-070833FM-18+0003BGXN3V0202701N000519999999N9999999N1-00861-00991999999REMSYN070CMAN  11094 BGXN3 46/// /2701 11086 21099 58017 90900 222// 001059016;
0103997993999992011011110004+43050-070833FM-18+0003BGXN3V0203201N000519999999N9999999N1-00901-01061999999REMSYN094CMAN  11104 BGXN3 46/// /3201 11090 21106 55007 91000 222// 00100 00113 10806 70031 555 1/034;
0062997993999992011011111004+43050-070833FM-18+0003BGXN3V0200401N000519999999N9999999N1-01131-01191999999REMSYN053CMAN  11114 BGXN3 46/// /0401 11113 21119 0210 91045;
0062997993999992011011112004+43050-070833FM-18+0003BGXN3V0209999C000019999999N9999999N1-01191-01231999999REMSYN053CMAN  11124 BGXN3 46/// /0000 11119 21123 0210 91145;
0062997993999992011011113004+43050-070833FM-18+0003BGXN3V0209999C000019999999N9999999N1-01231-01271999999REMSYN053CMAN  11134 BGXN3 46/// /0000 11123 21127 0210 91245;
0062997993999992011011114004+43050-070833FM-18+0003BGXN3V0202601N001019999999N9999999N1-00691-00901999999REMSYN053CMAN  11144 BGXN3 46/// /2602 11069 21090 0230 91345;
0062997993999992011011115004+43050-070833FM-18+0003BGXN3V0202401N001019999999N9999999N1-00551-00981999999REMSYN053CMAN  11154 BGXN3 46/// /2402 11055 21098 0230 91445;
0062997993999992011011116004+43050-070833FM-18+0003BGXN3V0202301N001519999999N9999999N1-00441-00921999999REMSYN053CMAN  11164 BGXN3 46/// /2303 11044 21092 0240 91545;
0099997993999992011011117004+43050-070833FM-18+0003BGXN3V0202301N001519999999N9999999N1-00271-00921999999REMSYN090CMAN  11174 BGXN3 46/// /2303 11027 21092 50004 91700 222// 00103 20803 308// 41101 70016;
0062997993999992011011118004+43050-070833FM-18+0003BGXN3V0202401N001019999999N9999999N1-00281-00951999999REMSYN053CMAN  11184 BGXN3 46/// /2402 11028 21095 0210 91745;
0062997993999992011011119004+43050-070833FM-18+0003BGXN3V0202101N000519999999N9999999N1-00181-00971999999REMSYN053CMAN  11194 BGXN3 46/// /2101 11018 21097 0210 91845;
0000997993999992011011120004+43050-070833FM-18+0003BGXN3V0202501N001019999999N9999999N1-00191-00931999999
0062997993999992011011121004+43050-070833FM-18+0003BGXN3V0200601N001019999999N9999999N1-00141-00861999999REMSYN053CMAN  11214 BGXN3 46/// /0602 11014 21086 0210 92045;
0000997993999992011011122004+43050-070833FM-18+0003BGXN3V0200801N001019999999N9999999N1-00221-00811999999
0062997993999992011011123004+43050-070833FM-18+0003BGXN3V0200501N000519999999N9999999N1-00241-00751999999REMSYN053CMAN  11234 BGXN3 46/// /0501 11024 21075 0220 92245;
0084997993999992011011200004+43050-070833FM-18+0003BGXN3V0200101N000519999999N9999999N1-00271-00671999999REMSYN075CMAN  12004 BGXN3 46/// /0101 11027 21067 56006 90000 222// 00040066 20006;
0068997993999992011011201004+43050-070833FM-18+0003BGXN3V0203601N001019999999N9999999N1-00201-00671102001REMSYN059CMAN  12014 BGXN3 46/// /3602 11020 21067 40200 3010 90100;
0068997993999992011011202004+43050-070833FM-18+0003BGXN3V0200101N001019999999N9999999N1-00191-00631101901REMSYN059CMAN  12024 BGXN3 46/// /0102 11019 21063 40190 2010 90200;
0068997993999992011011203004+43050-070833FM-18+0003BGXN3V0203501N001019999999N9999999N1-00161-00541101801REMSYN059CMAN  12034 BGXN3 46/// /3502 11016 21054 40180 1010 90300;
0068997993999992011011204004+43050-070833FM-18+0003BGXN3V0200201N002119999999N9999999N1-00121-00441101701REMSYN059CMAN  12044 BGXN3 46/// /0204 11012 21044 40170 8010 90400;
0062997993999992011011205004+43050-070833FM-18+0003BGXN3V0200301N002119999999N9999999N1-00011-00351999999REMSYN053CMAN  12054 BGXN3 46/// /0304 11001 21035 0220 90445;
0062997993999992011011206004+43050-070833FM-18+0003BGXN3V0200401N003119999999N9999999N1-00041-00411999999REMSYN053CMAN  12064 BGXN3 46/// /0406 11004 21041 0220 90545;
0062997993999992011011207004+43050-070833FM-18+0003BGXN3V0200401N003119999999N9999999N1-00011-00401999999REMSYN053CMAN  12074 BGXN3 46/// /0406 11001 21040 0220 90645;
0062997993999992011011208004+43050-070833FM-18+0003BGXN3V0200101N002619999999N9999999N1-00091-00411999999REMSYN053CMAN  12084 BGXN3 46/// /0105 11009 21041 0220 90745;
0062997993999992011011209004+43050-070833FM-18+0003BGXN3V0200201N003619999999N9999999N1-00161-00241999999REMSYN053CMAN  12094 BGXN3 46/// /0207 11016 21024 0220 90845;
0062997993999992011011210004+43050-070833FM-18+0003BGXN3V0203601N003119999999N9999999N1-00311-00311999999REMSYN053CMAN  12104 BGXN3 46/// /3606 11031 21031 0230 90945;
0062997993999992011011211004+43050-070833FM-18+0003BGXN3V0203601N004119999999N9999999N1-00381-00381999999REMSYN053CMAN  12114 BGXN3 46/// /3608 11038 21038 0230 91045;
0062997993999992011011212004+43050-070833FM-18+0003BGXN3V0203601N003619999999N9999999N1-00431-00431999999REMSYN053CMAN  12124 BGXN3 46/// /3607 11043 21043 0240 91145;
0062997993999992011011213004+43050-070833FM-18+0003BGXN3V0203601N003119999999N9999999N1-00411-00411999999REMSYN053CMAN  12134 BGXN3 46/// /3606 11041 21041 0250 91245;
0062997993999992011011214004+43050-070833FM-18+0003BGXN3V0203501N003119999999N9999999N1-00381-00381999999REMSYN053CMAN  12144 BGXN3 46/// /3506 11038 21038 0250 91345;
0062997993999992011011215004+43050-070833FM-18+0003BGXN3V0203401N004119999999N9999999N1-00351-00351999999REMSYN053CMAN  12154 BGXN3 46/// /3408 11035 21035 0260 91445;
0062997993999992011011216004+43050-070833FM-18+0003BGXN3V0203301N004619999999N9999999N1-00291-00291999999REMSYN053CMAN  12164 BGXN3 46/// /3309 11029 21029 0320 91545;
0062997993999992011011217004+43050-070833FM-18+0003BGXN3V0203301N005719999999N9999999N1-00221-00221999999REMSYN053CMAN  12174 BGXN3 46/// /3311 11022 21022 0240 91645;
0062997993999992011011218004+43050-070833FM-18+0003BGXN3V0203101N004119999999N9999999N1-00151-00151999999REMSYN053CMAN  12184 BGXN3 46/// /3108 11015 21015 0230 91745;
0068997993999992011011219004+43050-070833FM-18+0003BGXN3V0203201N005119999999N9999999N1-00081-00081099001REMSYN059CMAN  12194 BGXN3 46/// /3210 11008 21008 49900 7020 91900;
0062997993999992011011220004+43050-070833FM-18+0003BGXN3V0203101N004119999999N9999999N1-00031-00031999999REMSYN053CMAN  12204 BGXN3 46/// /3108 11003 21003 0230 91945;
0074997993999992011011221004+43050-070833FM-18+0003BGXN3V0203001N003619999999N9999999N1-00061-00061999999REMSYN065CMAN  12214 BGXN3 46/// /3007 11006 21006 54000 92100 222// 0017;
0062997993999992011011222004+43050-070833FM-18+0003BGXN3V0203101N004119999999N9999999N1-00081-00081999999REMSYN053CMAN  12224 BGXN3 46/// /3108 11008 21008 0240 92145;
0062997993999992011011223004+43050-070833FM-18+0003BGXN3V0202901N003119999999N9999999N1-00101-00101999999REMSYN053CMAN  12234 BGXN3 46/// /2906 11010 21010 0250 92245;
0062997993999992011011300004+43050-070833FM-18+0003BGXN3V0203001N004119999999N9999999N1-00121-00131999999REMSYN053CMAN  13004 BGXN3 46/// /3008 11012 21013 0260 92345;
0068997993999992011011301004+43050-070833FM-18+0003BGXN3V0202901N003619999999N9999999N1-00101-00161099701REMSYN059CMAN  13014 BGXN3 46/// /2907 11010 21016 49970 2030 90100;
0068997993999992011011302004+43050-070833FM-18+0003BGXN3V0202901N003119999999N9999999N1-00101-00141099901REMSYN059CMAN  13024 BGXN3 46/// /2906 11010 21014 49990 1020 90200;
0068997993999992011011303004+43050-070833FM-18+0003BGXN3V0202901N003619999999N9999999N1-00051-00221100001REMSYN059CMAN  13034 BGXN3 46/// /2907 11005 21022 40000 2020 90300;
0068997993999992011011304004+43050-070833FM-18+0003BGXN3V0202901N003619999999N9999999N1-00051-00241100101REMSYN059CMAN  13044 BGXN3 46/// /2907 11005 21024 40010 2010 90400;
0062997993999992011011305004+43050-070833FM-18+0003BGXN3V0202801N002619999999N9999999N1-00031-00281999999REMSYN053CMAN  13054 BGXN3 46/// /2805 11003 21028 0280 90445;
0062997993999992011011306004+43050-070833FM-18+0003BGXN3V0202801N003119999999N9999999N1+00001-00371999999REMSYN053CMAN  13064 BGXN3 46/// /2806 10000 21037 0280 90545;
0062997993999992011011307004+43050-070833FM-18+0003BGXN3V0202701N002619999999N9999999N1-00041-00411999999REMSYN053CMAN  13074 BGXN3 46/// /2705 11004 21041 0280 90645;
0062997993999992011011308004+43050-070833FM-18+0003BGXN3V0202601N002119999999N9999999N1-00161-00461999999REMSYN053CMAN  13084 BGXN3 46/// /2604 11016 21046 0290 90745;
0062997993999992011011309004+43050-070833FM-18+0003BGXN3V0202701N003119999999N9999999N1-00191-00611999999REMSYN053CMAN  13094 BGXN3 46/// /2706 11019 21061 0320 90845;
0062997993999992011011310004+43050-070833FM-18+0003BGXN3V0202601N002619999999N9999999N1-00281-00631999999REMSYN053CMAN  13104 BGXN3 46/// /2605 11028 21063 0290 90945;
0062997993999992011011311004+43050-070833FM-18+0003BGXN3V0202601N002619999999N9999999N1-00301-00701999999REMSYN053CMAN  13114 BGXN3 46/// /2605 11030 21070 0300 91045;
0062997993999992011011312004+43050-070833FM-18+0003BGXN3V0202601N002619999999N9999999N1-00391-00731999999REMSYN053CMAN  13124 BGXN3 46/// /2605 11039 21073 0300 91145;
0000997993999992011011313004+43050-070833FM-18+0003BGXN3V0202601N002619999999N9999999N1-00441-00781999999
0062997993999992011011314004+43050-070833FM-18+0003BGXN3V0202501N003119999999N9999999N1-00331-00801999999REMSYN053CMAN  13144 BGXN3 46/// /2506 11033 21080 0320 91345;
0085997993999992011011315004+43050-070833FM-18+0003BGXN3V0202501N003619999999N9999999N1-00261-00811999999REMSYN076CMAN  13154 BGXN3 46/// /2507 11026 21081 51021 91500 222// 001759008 83818;
0062997993999992011011316004+43050-070833FM-18+0003BGXN3V0202701N003119999999N9999999N1-00181-00831999999REMSYN053CMAN  13164 BGXN3 46/// /2706 11018 21083 0320 91545;
0000997993999992011011317004+43050-070833FM-18+0003BGXN3V0202601N003619999999N9999999N1-00131-00811999999
0062997993999992011011318004+43050-070833FM-18+0003BGXN3V0202501N003619999999N9999999N1-00111-00791999999REMSYN053CMAN  13184 BGXN3 46/// /2507 11011 21079 0300 91745;
0062997993999992011011319004+43050-070833FM-18+0003BGXN3V0202501N004619999999N9999999N1-00141-00821999999REMSYN053CMAN  13194 BGXN3 46/// /2509 11014 21082 0290 91845;
0062997993999992011011320004+43050-070833FM-18+0003BGXN3V0202501N004619999999N9999999N1-00161-00841999999REMSYN053CMAN  13204 BGXN3 46/// /2509 11016 21084 0280 91945;
0062997993999992011011321004+43050-070833FM-18+0003BGXN3V0202501N004619999999N9999999N1-00221-00851999999REMSYN053CMAN  13214 BGXN3 46/// /2509 11022 21085 0290 92045;
0062997993999992011011322004+43050-070833FM-18+0003BGXN3V0202601N003119999999N9999999N1-00351-00911999999REMSYN053CMAN  13224 BGXN3 46/// /2606 11035 21091 0290 92145;
0062997993999992011011323004+43050-070833FM-18+0003BGXN3V0202501N003619999999N9999999N1-00431-00931999999REMSYN053CMAN  13234 BGXN3 46/// /2507 11043 21093 0290 92245;
0062997993999992011011400004+43050-070833FM-18+0003BGXN3V0202601N002619999999N9999999N1-00521-00981999999REMSYN053CMAN  14004 BGXN3 46/// /2605 11052 21098 0300 92345;
0068997993999992011011401004+43050-070833FM-18+0003BGXN3V0202601N002119999999N9999999N1-00631-01041102101REMSYN059CMAN  14014 BGXN3 46/// /2604 11063 21104 40210 2010 90100;
0068997993999992011011402004+43050-070833FM-18+0003BGXN3V0202501N002119999999N9999999N1-00691-01081102101REMSYN059CMAN  14024 BGXN3 46/// /2504 11069 21108 40210 1010 90200;
0068997993999992011011403004+43050-070833FM-18+0003BGXN3V0202601N002619999999N9999999N1-00741-01091102201REMSYN059CMAN  14034 BGXN3 46/// /2605 11074 21109 40220 4000 90300;
0068997993999992011011404004+43050-070833FM-18+0003BGXN3V0202601N002119999999N9999999N1-00791-01141102201REMSYN059CMAN  14044 BGXN3 46/// /2604 11079 21114 40220 4000 90400;
0062997993999992011011405004+43050-070833FM-18+0003BGXN3V0202601N002119999999N9999999N1-00831-01161999999REMSYN053CMAN  14054 BGXN3 46/// /2604 11083 21116 0300 90445;
0062997993999992011011406004+43050-070833FM-18+0003BGXN3V0202501N002119999999N9999999N1-00871-01201999999REMSYN053CMAN  14064 BGXN3 46/// /2504 11087 21120 0300 90545;
0062997993999992011011407004+43050-070833FM-18+0003BGXN3V0202601N001519999999N9999999N1-00821-01171999999REMSYN053CMAN  14074 BGXN3 46/// /2603 11082 21117 0300 90645;
0062997993999992011011408004+43050-070833FM-18+0003BGXN3V0202701N001519999999N9999999N1-00821-01191999999REMSYN053CMAN  14084 BGXN3 46/// /2703 11082 21119 0300 90745;
0062997993999992011011409004+43050-070833FM-18+0003BGXN3V0202601N001519999999N9999999N1-00821-01171999999REMSYN053CMAN  14094 BGXN3 46/// /2603 11082 21117 0300 90845;
0000997993999992011011410004+43050-070833FM-18+0003BGXN3V0202701N001519999999N9999999N1-00811-01161999999
0062997993999992011011411004+43050-070833FM-18+0003BGXN3V0202501N001519999999N9999999N1-00811-01161999999REMSYN053CMAN  14114 BGXN3 46/// /2503 11081 21116 0300 91045;
0062997993999992011011412004+43050-070833FM-18+0003BGXN3V0202501N002119999999N9999999N1-00831-01181999999REMSYN053CMAN  14124 BGXN3 46/// /2504 11083 21118 0310 91145;
0000997993999992011011413004+43050-070833FM-18+0003BGXN3V0202501N002619999999N9999999N1-00821-01191999999
0062997993999992011011414004+43050-070833FM-18+0003BGXN3V0202501N002119999999N9999999N1-00771-01171999999REMSYN053CMAN  14144 BGXN3 46/// /2504 11077 21117 0310 91345;
0062997993999992011011415004+43050-070833FM-18+0003BGXN3V0202601N001519999999N9999999N1-00691-01171999999REMSYN053CMAN  14154 BGXN3 46/// /2603 11069 21117 0320 91445;
0000997993999992011011416004+43050-070833FM-18+0003BGXN3V0202501N001519999999N9999999N1-00621-01151999999
0062997993999992011011417004+43050-070833FM-18+0003BGXN3V0202401N002119999999N9999999N1-00521-01141999999REMSYN053CMAN  14174 BGXN3 46/// /2404 11052 21114 0310 91645;
0062997993999992011011418004+43050-070833FM-18+0003BGXN3V0202401N001519999999N9999999N1-00421-01081999999REMSYN053CMAN  14184 BGXN3 46/// /2403 11042 21108 0300 91745;
0062997993999992011011419004+43050-070833FM-18+0003BGXN3V0202401N002119999999N9999999N1-00351-01021999999REMSYN053CMAN  14194 BGXN3 46/// /2404 11035 21102 0290 91845;
0062997993999992011011420004+43050-070833FM-18+0003BGXN3V0202501N003119999999N9999999N1-00371-00971999999REMSYN053CMAN  14204 BGXN3 46/// /2506 11037 21097 0280 91945;
0062997993999992011011421004+43050-070833FM-18+0003BGXN3V0202601N001519999999N9999999N1-00391-00971999999REMSYN053CMAN  14214 BGXN3 46/// /2603 11039 21097 0280 92045;
0062997993999992011011422004+43050-070833FM-18+0003BGXN3V0202601N002619999999N9999999N1-00561-01061999999REMSYN053CMAN  14224 BGXN3 46/// /2605 11056 21106 0280 92145;
0000997993999992011011423004+43050-070833FM-18+0003BGXN3V0202201N002619999999N9999999N1-00631-01141999999
0062997993999992011011500004+43050-070833FM-18+0003BGXN3V0202501N003619999999N9999999N1-00691-01131999999REMSYN053CMAN  15004 BGXN3 46/// /2507 11069 21113 0290 92345;
0068997993999992011011501004+43050-070833FM-18+0003BGXN3V0202401N002619999999N9999999N1-00841-01191102401REMSYN059CMAN  15014 BGXN3 46/// /2405 11084 21119 40240 5000 90100;
0068997993999992011011502004+43050-070833FM-18+0003BGXN3V0202601N001519999999N9999999N1-00951-01231102401REMSYN059CMAN  15024 BGXN3 46/// /2603 11095 21123 40240 1010 90200;
0068997993999992011011503004+43050-070833FM-18+0003BGXN3V0202701N001019999999N9999999N1-01021-01241102401REMSYN059CMAN  15034 BGXN3 46/// /2702 11102 21124 40240 4000 90300;
0068997993999992011011504004+43050-070833FM-18+0003BGXN3V0202601N000519999999N9999999N1-01071-01291102401REMSYN059CMAN  15044 BGXN3 46/// /2601 11107 21129 40240 8010 90400;
0062997993999992011011505004+43050-070833FM-18+0003BGXN3V0209999C000019999999N9999999N1-01251-01421999999REMSYN053CMAN  15054 BGXN3 46/// /0000 11125 21142 0280 90445;
0062997993999992011011506004+43050-070833FM-18+0003BGXN3V0209999C000019999999N9999999N1-01351-01471999999REMSYN053CMAN  15064 BGXN3 46/// /0000 11135 21147 0270 90545;
0062997993999992011011507004+43050-070833FM-18+0003BGXN3V0209999C000019999999N9999999N1-01621-01721999999REMSYN053CMAN  15074 BGXN3 46/// /0000 11162 21172 0270 90645;
0062997993999992011011508004+43050-070833FM-18+0003BGXN3V0209999C000019999999N9999999N1-01721-01791999999REMSYN053CMAN  15084 BGXN3 46/// /0000 11172 21179 0270 90745;
0062997993999992011011509004+43050-070833FM-18+0003BGXN3V0202401N001019999999N9999999N1-01721-01791999999REMSYN053CMAN  15094 BGXN3 46/// /2402 11172 21179 0260 90845;
0084997993999992011011510004+43050-070833FM-18+0003BGXN3V0209999C000019999999N9999999N1-01871-01981999999REMSYN075CMAN  15104 BGXN3 46/// /0000 11187 21198 51016 91000 222// 0006 333 91207;
0062997993999992011011511004+43050-070833FM-18+0003BGXN3V0200701N000519999999N9999999N1-01951-02071999999REMSYN053CMAN  15114 BGXN3 46/// /0701 11195 21207 0260 91045;
0062997993999992011011512004+43050-070833FM-18+0003BGXN3V0209999C000019999999N9999999N1-01981-02101999999REMSYN053CMAN  15124 BGXN3 46/// /0000 11198 21210 0260 91145;
0062997993999992011011513004+43050-070833FM-18+0003BGXN3V0209999C000019999999N9999999N1-01971-02111999999REMSYN053CMAN  15134 BGXN3 46/// /0000 11197 21211 0260 91245;
0125997993999992011011514004+43050-070833FM-18+0003BGXN3V0209999C000019999999N9999999N1-01661-01791999999REMSYN116CMAN  15144 BGXN3 46/// /0000 11166 21179 57003 91400 222// 001187824 91011 91111 555 376// 50042 60040 70030 80013;
0062997993999992011011515004+43050-070833FM-18+0003BGXN3V0202301N000519999999N9999999N1-01011-01241999999REMSYN053CMAN  15154 BGXN3 46/// /2301 11101 21124 0270 91445;
0062997993999992011011516004+43050-070833FM-18+0003BGXN3V0202501N001019999999N9999999N1-00911-01241999999REMSYN053CMAN  15164 BGXN3 46/// /2502 11091 21124 0270 91545;
0062997993999992011011517004+43050-070833FM-18+0003BGXN3V0202601N000519999999N9999999N1-00541-01221999999REMSYN053CMAN  15174 BGXN3 46/// /2601 11054 21122 0260 91645;
0078997993999992011011518004+43050-070833FM-18+0003BGXN3V0202201N001019999999N9999999N1-00251-01261999999REMSYN069CMAN  15184 BGXN3 46/// /2202 11025 21126 53003 91800 222// 00111100;
0062997993999992011011519004+43050-070833FM-18+0003BGXN3V0202301N001019999999N9999999N1-00311-01261999999REMSYN053CMAN  15194 BGXN3 46/// /2302 11031 21126 0230 91845;
0062997993999992011011520004+43050-070833FM-18+0003BGXN3V0201801N002119999999N9999999N1-00361-01211999999REMSYN053CMAN  15204 BGXN3 46/// /1804 11036 21121 0220 91945;
0062997993999992011011521004+43050-070833FM-18+0003BGXN3V0201601N001519999999N9999999N1-00391-01161999999REMSYN053CMAN  15214 BGXN3 46/// /1603 11039 21116 0220 92045;
0062997993999992011011522004+43050-070833FM-18+0003BGXN3V0201401N001519999999N9999999N1-00461-01041999999REMSYN053CMAN  15224 BGXN3 46/// /1403 11046 21104 0220 92145;
0056997993999992011011523004+43050-070833FM-18+0003BGXN3V0201401N001019999999N9999999N1-00461-00921999999REMSYN047CMAN  15234 BGXN3 46/// /1402 11046 21092 2245;
0062997993999992011011600004+43050-070833FM-18+0003BGXN3V0201801N001019999999N9999999N1-00441-00771999999REMSYN053CMAN  16004 BGXN3 46/// /1802 11044 21077 0220 92345;
0068997993999992011011601004+43050-070833FM-18+0003BGXN3V0209999C000019999999N9999999N1-00471-00671101201REMSYN059CMAN  16014 BGXN3 46/// /0000 11047 21067 40120 5000 90100;
0068997993999992011011602004+43050-070833FM-18+0003BGXN3V0202601N000519999999N9999999N1-00491-00661101101REMSYN059CMAN  16024 BGXN3 46/// /2601 11049 21066 40110 1010 90200;
0068997993999992011011603004+43050-070833FM-18+0003BGXN3V0202201N001019999999N9999999N1-00631-00721101001REMSYN059CMAN  16034 BGXN3 46/// /2202 11063 21072 40100 4000 90300;
0068997993999992011011604004+43050-070833FM-18+0003BGXN3V0202101N001019999999N9999999N1-00521-00571101001REMSYN059CMAN  16044 BGXN3 46/// /2102 11052 21057 40100 4000 90400;
0062997993999992011011605004+43050-070833FM-18+0003BGXN3V0202201N001519999999N9999999N1-00351-00481999999REMSYN053CMAN  16054 BGXN3 46/// /2203 11035 21048 0220 90445;
0062997993999992011011606004+43050-070833FM-18+0003BGXN3V0202201N002119999999N9999999N1-00381-00511999999REMSYN053CMAN  16064 BGXN3 46/// /2204 11038 21051 0210 90545;
0062997993999992011011607004+43050-070833FM-18+0003BGXN3V0202101N002119999999N9999999N1-00391-00521999999REMSYN053CMAN  16074 BGXN3 46/// /2104 11039 21052 0210 90645;
0068997993999992011011608004+43050-070833FM-18+0003BGXN3V0201901N002119999999N9999999N1-00291-00521999999REMSYN059CMAN  16084 BGXN3 46/// /1904 11029 21052 53010 90800 0700;
0000997993999992011011609004+43050-070833FM-18+0003BGXN3V0202001N002119999999N9999999N1-00311-00541999999
0084997993999992011011610004+43050-070833FM-18+0003BGXN3V0202001N002119999999N9999999N1-00261-00561999999REMSYN075CMAN  16104 BGXN3 46/// /2004 11026 21056 53024 91000 22// 00110 333 91205;
0062997993999992011011611004+43050-070833FM-18+0003BGXN3V0202201N003619999999N9999999N1-00291-00621999999REMSYN053CMAN  16114 BGXN3 46/// /2207 11029 21062 0200 91045;
0116997993999992011011612004+43050-070833FM-18+0003BGXN3V0202201N002619999999N9999999N1-00371-00701999999REMSYN107CMAN  16124 BGXN3 46/// /2205 11037 21070 53032 91200 2004 70111 8271/ 22224 00326 2//06 399// 40305 80250;
0062997993999992011011613004+43050-070833FM-18+0003BGXN3V0202201N002119999999N9999999N1-00411-00791999999REMSYN053CMAN  16134 BGXN3 46/// /2204 11041 21079 0210 91245;
0062997993999992011011614004+43050-070833FM-18+0003BGXN3V0202401N004119999999N9999999N1-00341-00741999999REMSYN053CMAN  16144 BGXN3 46/// /2408 11034 21074 0210 91345;
0093997993999992011011615004+43050-070833FM-18+0003BGXN3V0202501N005719999999N9999999N1-00191-00781999999REMSYN084CMAN  16154 BGXN3 46/// /2511 11019 21078 51023 91500 52020 22200 00091 10808 70040;
0062997993999992011011616004+43050-070833FM-18+0003BGXN3V0202601N004119999999N9999999N1-00151-00721999999REMSYN053CMAN  16164 BGXN3 46/// /2608 11015 21072 0220 91545;
0000997993999992011011617004+43050-070833FM-18+0003BGXN3V0202501N004619999999N9999999N1-00091-00811999999
0068997993999992011011618004+43050-070833FM-18+0003BGXN3V0202601N002619999999N9999999N1-00081-00831999999REMSYN059CMAN  16184 BGXN3 46/// /2605 11008 21083 57014 91800 1700;
0134997993999992011011619004+43050-070833FM-18+0003BGXN3V0202601N002619999999N9999999N1-00041-00911999999REMSYN125CMAN  16194 BGXN3 46/// /2605 11004 21091 56010 91900 0064 40135 54000 70311 887// 22273 04137 20806 3//// 4//// 5//// 80100;
0000997993999992011011620004+43050-070833FM-18+0003BGXN3V0202601N002119999999N9999999N1-00031-01001999999
0062997993999992011011621004+43050-070833FM-18+0003BGXN3V0202501N005119999999N9999999N1-00111-01021999999REMSYN053CMAN  16214 BGXN3 46/// /2510 11011 21102 0180 92045;
0068997993999992011011622004+43050-070833FM-18+0003BGXN3V0202401N004119999999N9999999N1-00281-00951999999REMSYN059CMAN  16224 BGXN3 46/// /2408 11028 21095 52020 92200 2100;
0000997993999992011011623004+43050-070833FM-18+0003BGXN3V0202601N001019999999N9999999N1-00401-01131999999
0062997993999992011011700004+43050-070833FM-18+0003BGXN3V0202401N002119999999N9999999N1-00591-01071999999REMSYN053CMAN  17004 BGXN3 46/// /2404 11059 21107 0190 92345;
0068997993999992011011701004+43050-070833FM-18+0003BGXN3V0202101N001519999999N9999999N1-00821-01291101901REMSYN059CMAN  17014 BGXN3 46/// /2103 11082 21129 40190 3010 90100;
0068997993999992011011702004+43050-070833FM-18+0003BGXN3V0202301N002619999999N9999999N1-00611-01161102001REMSYN059CMAN  17024 BGXN3 46/// /2305 11061 21116 40200 2010 90200;
0068997993999992011011703004+43050-070833FM-18+0003BGXN3V0202401N004119999999N9999999N1-00561-01061102001REMSYN059CMAN  17034 BGXN3 46/// /2408 11056 21106 40200 1010 90300;
0068997993999992011011704004+43050-070833FM-18+0003BGXN3V0202301N002619999999N9999999N1-00721-01231102101REMSYN059CMAN  17044 BGXN3 46/// /2305 11072 21123 40210 4000 90400;
0062997993999992011011705004+43050-070833FM-18+0003BGXN3V0202601N001019999999N9999999N1-00731-01261999999REMSYN053CMAN  17054 BGXN3 46/// /2602 11073 21126 0190 90445;
0134997993999992011011706004+43050-070833FM-18+0003BGXN3V0202401N003119999999N9999999N1-00841-01271999999REMSYN125CMAN  17064 BGXN3 46/// /2406 11084 21127 54000 90600 0090 70302 851/2 22243 00320 1//// 20403 31414 40403 5//// 6//// 80260;
0093997993999992011011707004+43050-070833FM-18+0003BGXN3V0202601N002619999999N9999999N1-00871-01391999999REMSYN084CMAN  17074 BGXN3 46/// /2605 11087 21139 53006 90700 52014 22200 00114 11106 70030;
0062997993999992011011708004+43050-070833FM-18+0003BGXN3V0202601N002119999999N9999999N1-00971-01451999999REMSYN053CMAN  17084 BGXN3 46/// /2604 11097 21145 0180 90745;
0090997993999992011011709004+43050-070833FM-18+0003BGXN3V0202501N003619999999N9999999N1-01031-01641999999REMSYN081CMAN  17094 BGXN3 46/// /2507 11103 21164 51017 90900 3017 70540 333 60007 92415;
0062997993999992011011710004+43050-070833FM-18+0003BGXN3V0202401N003119999999N9999999N1-01111-01701999999REMSYN053CMAN  17104 BGXN3 46/// /2406 11111 21170 0180 90945;
0093997993999992011011711004+43050-070833FM-18+0003BGXN3V0202401N003619999999N9999999N1-01141-01691999999REMSYN084CMAN  17114 BGXN3 46/// /2407 11114 21169 52011 91100 52008 22200 00114 11106 70032;
0109997993999992011011712004+43050-070833FM-18+0003BGXN3V0202601N002619999999N9999999N1-01221-01711999999REMSYN100CMAN  17124 BGXN3 46/// /2605 11122 21171 51014 91200 53002 22200 00082 10703 70014 333 90710 91136;
0096997993999992011011713004+43050-070833FM-18+0003BGXN3V0202601N002619999999N9999999N1-01291-01761999999REMSYN087CMAN  17134 BGXN3 46/// /2605 11129 21176 53013 91300 8009 83037 333 55307 83360 88273;
0000997993999992011011714004+43050-070833FM-18+0003BGXN3V0202401N004119999999N9999999N1-01201-01831999999
0079997993999992011011715004+43050-070833FM-18+0003BGXN3V0202501N002619999999N9999999N1-01121-01831999999REMSYN070CMAN  17154 BGXN3 46/// /2505 11112 21183 51017 91500 333 5//// 84075;
0062997993999992011011716004+43050-070833FM-18+0003BGXN3V0202501N002619999999N9999999N1-01001-01881999999REMSYN053CMAN  17164 BGXN3 46/// /2505 11100 21188 0170 91545;
0084997993999992011011717004+43050-070833FM-18+0003BGXN3V0202601N002119999999N9999999N1-00871-01911999999REMSYN075CMAN  17174 BGXN3 46/// /2604 11087 21191 3010 91700 222// 00111 333 91204;
0062997993999992011011718004+43050-070833FM-18+0003BGXN3V0202201N001519999999N9999999N1-00691-01861999999REMSYN053CMAN  17184 BGXN3 46/// /2203 11069 21186 0160 91745;
0062997993999992011011719004+43050-070833FM-18+0003BGXN3V0202101N001019999999N9999999N1-00601-01881999999REMSYN053CMAN  17194 BGXN3 46/// /2102 11060 21188 0140 91845;
0062997993999992011011720004+43050-070833FM-18+0003BGXN3V0202101N000519999999N9999999N1-00541-02041999999REMSYN053CMAN  17204 BGXN3 46/// /2101 11054 21204 0130 91945;
0062997993999992011011721004+43050-070833FM-18+0003BGXN3V0209999C000019999999N9999999N1-00581-02041999999REMSYN053CMAN  17214 BGXN3 46/// /0000 11058 21204 0120 92045;
0062997993999992011011722004+43050-070833FM-18+0003BGXN3V0200501N000519999999N9999999N1-01061-01931999999REMSYN053CMAN  17224 BGXN3 46/// /0501 11106 21193 0120 92145;
0000997993999992011011723004+43050-070833FM-18+0003BGXN3V0209999C000019999999N9999999N1-01411-02031999999
0062997993999992011011800004+43050-070833FM-18+0003BGXN3V0200401N000519999999N9999999N1-01571-02031999999REMSYN053CMAN  18004 BGXN3 46/// /0401 11157 21203 0120 92345;
0068997993999992011011801004+43050-070833FM-18+0003BGXN3V0209999C000019999999N9999999N1-01691-02051102901REMSYN059CMAN  18014 BGXN3 46/// /0000 11169 21205 40290 4000 90100;
0068997993999992011011802004+43050-070833FM-18+0003BGXN3V0200401N000519999999N9999999N1-01821-02101102901REMSYN059CMAN  18024 BGXN3 46/// /0401 11182 21210 40290 4000 90200;
0068997993999992011011803004+43050-070833FM-18+0003BGXN3V0209999C000019999999N9999999N1-01811-02071102901REMSYN059CMAN  18034 BGXN3 46/// /0000 11181 21207 40290 8010 90300;
0068997993999992011011804004+43050-070833FM-18+0003BGXN3V0209999C000019999999N9999999N1-01811-02061102901REMSYN059CMAN  18044 BGXN3 46/// /0000 11181 21206 40290 7010 90400;
0062997993999992011011805004+43050-070833FM-18+0003BGXN3V0209999C000019999999N9999999N1-01801-01991999999REMSYN053CMAN  18054 BGXN3 46/// /0000 11180 21199 0110 90445;
0062997993999992011011806004+43050-070833FM-18+0003BGXN3V0200101N000519999999N9999999N1-01731-01921999999REMSYN053CMAN  18064 BGXN3 46/// /0101 11173 21192 0100 90545;
0062997993999992011011807004+43050-070833FM-18+0003BGXN3V0202901N000519999999N9999999N1-01301-01611999999REMSYN053CMAN  18074 BGXN3 46/// /2901 11130 21161 0100 90645;
0062997993999992011011808004+43050-070833FM-18+0003BGXN3V0202701N000519999999N9999999N1-01231-01591999999REMSYN053CMAN  18084 BGXN3 46/// /2701 11123 21159 0100 90745;
0062997993999992011011809004+43050-070833FM-18+0003BGXN3V0203501N000519999999N9999999N1-01181-01601999999REMSYN053CMAN  18094 BGXN3 46/// /3501 11118 21160 0100 90845;
0062997993999992011011810004+43050-070833FM-18+0003BGXN3V0202801N000519999999N9999999N1-01081-01561102701REMSYN053CMAN 18104 BGXN3 46/// /2801 11108 21156 40270 90945;
0062997993999992011011811004+43050-070833FM-18+0003BGXN3V0209999C000019999999N9999999N1-01041-01581999999REMSYN053CMAN  18114 BGXN3 46/// /0000 11104 21158 0100 91045;
0062997993999992011011812004+43050-070833FM-18+0003BGXN3V0203301N000519999999N9999999N1-01011-01571999999REMSYN053CMAN  18124 BGXN3 46/// /3301 11101 21157 0110 91145;
0062997993999992011011813004+43050-070833FM-18+0003BGXN3V0203001N000519999999N9999999N1-00991-01291999999REMSYN053CMAN  18134 BGXN3 46/// /3001 11099 21129 0130 91245;
0062997993999992011011814004+43050-070833FM-18+0003BGXN3V0202901N001019999999N9999999N1-00961-01121999999REMSYN053CMAN  18144 BGXN3 46/// /2902 11096 21112 0120 91345;
0102997993999992011011815004+43050-070833FM-18+0003BGXN3V0203101N001019999999N9999999N1-00931-01061999999REMSYN093CMAN  18154 BGXN3 46/// /3102 11093 21106 57017 91500 222// 0007 83040 333 60005 91003 91103;
0062997993999992011011816004+43050-070833FM-18+0003BGXN3V0203101N001519999999N9999999N1-00831-00971999999REMSYN053CMAN  18164 BGXN3 46/// /3103 11083 21097 0130 91545;
0062997993999992011011817004+43050-070833FM-18+0003BGXN3V0203101N001019999999N9999999N1-00771-00891999999REMSYN053CMAN  18174 BGXN3 46/// /3102 11077 21089 0120 91645;
0062997993999992011011818004+43050-070833FM-18+0003BGXN3V0203501N001519999999N9999999N1-00711-00831999999REMSYN053CMAN  18184 BGXN3 46/// /3503 11071 21083 0120 91745;
0062997993999992011011819004+43050-070833FM-18+0003BGXN3V0200101N002119999999N9999999N1-00591-00711999999REMSYN053CMAN  18194 BGXN3 46/// /0104 11059 21071 0120 91845;
0062997993999992011011820004+43050-070833FM-18+0003BGXN3V0200101N001019999999N9999999N1-00491-00591999999REMSYN053CMAN  18204 BGXN3 46/// /0102 11049 21059 0110 91945;
0062997993999992011011821004+43050-070833FM-18+0003BGXN3V0203601N001519999999N9999999N1-00431-00501999999REMSYN053CMAN  18214 BGXN3 46/// /3603 11043 21050 0120 92045;
0062997993999992011011822004+43050-070833FM-18+0003BGXN3V0203601N002119999999N9999999N1-00301-00341999999REMSYN053CMAN  18224 BGXN3 46/// /3604 11030 21034 0120 92145;
0062997993999992011011823004+43050-070833FM-18+0003BGXN3V0202801N001019999999N9999999N1-00121-00151101101REMSYN053CMAN 18234 BGXN3 46/// /2802 11012 21015 40110 92245;
0068997993999992011011908004+43050-070833FM-18+0003BGXN3V0202801N001019999999N9999999N1+00061+00051999999REMSYN059CMAN  19084 BGXN3 46/// /2802 10006 20005 40110 6020 90800;
0062997993999992011011909004+43050-070833FM-18+0003BGXN3V0202601N001519999999N9999999N1+00081+00071999999REMSYN053CMAN  19094 BGXN3 46/// /2603 10008 20007 0110 90845;
0062997993999992011011910004+43050-070833FM-18+0003BGXN3V0202401N001019999999N9999999N1+00051+00041999999REMSYN053CMAN  19104 BGXN3 46/// /2402 10005 20004 0100 90945;
0062997993999992011011911004+43050-070833FM-18+0003BGXN3V0202501N000519999999N9999999N1+00051+00051999999REMSYN053CMAN  19114 BGXN3 46/// /2501 10005 20005 0100 91045;
0062997993999992011011912004+43050-070833FM-18+0003BGXN3V0209999C000019999999N9999999N1+00081+00081999999REMSYN053CMAN  19124 BGXN3 46/// /0000 10008 20008 0110 91145;
0062997993999992011011913004+43050-070833FM-18+0003BGXN3V0202401N000519999999N9999999N1+00081+00081999999REMSYN053CMAN  19134 BGXN3 46/// /2401 10008 20008 0120 91245;
0062997993999992011011914004+43050-070833FM-18+0003BGXN3V0202501N001019999999N9999999N1+00121+00121999999REMSYN053CMAN  19144 BGXN3 46/// /2502 10012 20012 0130 91345;
0084997993999992011011915004+43050-070833FM-18+0003BGXN3V0202501N001519999999N9999999N1+00161+00151999999REMSYN075CMAN  19154 BGXN3 46/// /2503 10016 20015 53010 91500 222// 0007 333 91202;
0062997993999992011011916004+43050-070833FM-18+0003BGXN3V0202401N001019999999N9999999N1+00181+00171999999REMSYN053CMAN  19164 BGXN3 46/// /2402 10018 20017 0140 91545;
0062997993999992011011917004+43050-070833FM-18+0003BGXN3V0202201N001019999999N9999999N1+00311+00281999999REMSYN053CMAN  19174 BGXN3 46/// /2202 10031 20028 0140 91645;
0062997993999992011011918004+43050-070833FM-18+0003BGXN3V0202501N001519999999N9999999N1+00181+00151999999REMSYN053CMAN  19184 BGXN3 46/// /2503 10018 20015 0140 91745;
0062997993999992011011919004+43050-070833FM-18+0003BGXN3V0202401N002119999999N9999999N1+00161+00131999999REMSYN053CMAN  19194 BGXN3 46/// /2404 10016 20013 0140 91845;
0102997993999992011011920004+43050-070833FM-18+0003BGXN3V0209999C000019999999N9999999N1+00221+00191999999REMSYN093CMAN  19204 BGXN3 46/// /0000 10022 20019 50000 92000 222// 0010 333 55300 20000 30000 81822;
0062997993999992011011921004+43050-070833FM-18+0003BGXN3V0202701N000519999999N9999999N1+00171+00131999999REMSYN053CMAN  19214 BGXN3 46/// /2701 10017 20013 0140 92045;
0062997993999992011011922004+43050-070833FM-18+0003BGXN3V0209999C000019999999N9999999N1+00101+00071999999REMSYN053CMAN  19224 BGXN3 46/// /0000 10010 20007 0140 92145;
0062997993999992011011923004+43050-070833FM-18+0003BGXN3V0209999C000019999999N9999999N1+00041+00011999999REMSYN053CMAN  19234 BGXN3 46/// /0000 10004 20001 0150 92245;
0062997993999992011012000004+43050-070833FM-18+0003BGXN3V0202601N000519999999N9999999N1+00011+00001999999REMSYN053CMAN  20004 BGXN3 46/// /2601 10001 20000 0160 92345;
0068997993999992011012001004+43050-070833FM-18+0003BGXN3V0202801N000519999999N9999999N1+00011+00001100701REMSYN059CMAN  20014 BGXN3 46/// /2801 10001 20000 40070 2010 90100;
0068997993999992011012002004+43050-070833FM-18+0003BGXN3V0200301N000519999999N9999999N1+00011+00001100801REMSYN059CMAN  20024 BGXN3 46/// /0301 10001 20000 40080 2020 90200;
0068997993999992011012003004+43050-070833FM-18+0003BGXN3V0200301N001019999999N9999999N1-00011-00021100801REMSYN059CMAN  20034 BGXN3 46/// /0302 11001 21002 40080 2010 90300;
0068997993999992011012004004+43050-070833FM-18+0003BGXN3V0200501N001019999999N9999999N1-00071-00101100901REMSYN059CMAN  20044 BGXN3 46/// /0502 11007 21010 40090 2020 90400;
0062997993999992011012005004+43050-070833FM-18+0003BGXN3V0200501N001019999999N9999999N1-00101-00131999999REMSYN053CMAN  20054 BGXN3 46/// /0502 11010 21013 0180 90445;
0062997993999992011012006004+43050-070833FM-18+0003BGXN3V0200501N001019999999N9999999N1-00121-00151999999REMSYN053CMAN  20064 BGXN3 46/// /0502 11012 21015 0180 90545;
0134997993999992011012007004+43050-070833FM-18+0003BGXN3V0200201N000519999999N9999999N1-00151-00191999999REMSYN125CMAN  20074 BGXN3 46/// /0201 11015 21019 58016 90700 0017 40371 53000 70211 8/1// 22200 04057 20601 300// 4//// 5//// 80025;
0062997993999992011012008004+43050-070833FM-18+0003BGXN3V0202401N002619999999N9999999N1-00201-00241999999REMSYN053CMAN  20084 BGXN3 46/// /2405 11020 21024 0180 90745;
0062997993999992011012009004+43050-070833FM-18+0003BGXN3V0202301N002619999999N9999999N1-00231-00311999999REMSYN053CMAN  20094 BGXN3 46/// /2305 11023 21031 0180 90845;
0099997993999992011012010004+43050-070833FM-18+0003BGXN3V0202401N003619999999N9999999N1-00321-00481999999REMSYN090CMAN  20104 BGXN3 46/// /2407 11032 21048 55000 91000 222// 00085 21003 328// 41404 70025;
0000997993999992011012011004+43050-070833FM-18+0003BGXN3V0202501N003119999999N9999999N1-00381-00581999999
0062997993999992011012012004+43050-070833FM-18+0003BGXN3V0202601N001519999999N9999999N1-00521-00701999999REMSYN053CMAN  20124 BGXN3 46/// /2603 11052 21070 0190 91145;
0062997993999992011012013004+43050-070833FM-18+0003BGXN3V0202401N002619999999N9999999N1-00601-00801999999REMSYN053CMAN  20134 BGXN3 46/// /2405 11060 21080 0190 91245;
0062997993999992011012014004+43050-070833FM-18+0003BGXN3V0202501N002619999999N9999999N1-00541-00831999999REMSYN053CMAN  20144 BGXN3 46/// /2505 11054 21083 0190 91345;
0062997993999992011012015004+43050-070833FM-18+0003BGXN3V0202401N002619999999N9999999N1-00391-00791999999REMSYN053CMAN  20154 BGXN3 46/// /2405 11039 21079 0190 91445;
0062997993999992011012016004+43050-070833FM-18+0003BGXN3V0202601N002119999999N9999999N1-00351-00711999999REMSYN053CMAN  20164 BGXN3 46/// /2604 11035 21071 0200 91545;
0062997993999992011012017004+43050-070833FM-18+0003BGXN3V0202501N001519999999N9999999N1-00261-00701999999REMSYN053CMAN  20174 BGXN3 46/// /2503 11026 21070 0190 91645;
0062997993999992011012018004+43050-070833FM-18+0003BGXN3V0202401N005719999999N9999999N1-00231-00701999999REMSYN053CMAN  20184 BGXN3 46/// /2411 11023 21070 0170 91745;
0062997993999992011012019004+43050-070833FM-18+0003BGXN3V0202401N004619999999N9999999N1-00221-00671999999REMSYN053CMAN  20194 BGXN3 46/// /2409 11022 21067 0150 91845;
0062997993999992011012020004+43050-070833FM-18+0003BGXN3V0202401N003619999999N9999999N1-00201-00711999999REMSYN053CMAN  20204 BGXN3 46/// /2407 11020 21071 0150 91945;
0068997993999992011012021004+43050-070833FM-18+0003BGXN3V0202401N002619999999N9999999N1-00321-00791101401REMSYN059CMAN  20214 BGXN3 46/// /2405 11032 21079 40140 6020 92100;
0068997993999992011012022004+43050-070833FM-18+0003BGXN3V0209999C000019999999N9999999N1-00581-00871101401REMSYN059CMAN  20224 BGXN3 46/// /0000 11058 21087 40140 7020 92200;
0068997993999992011012023004+43050-070833FM-18+0003BGXN3V0200801N000519999999N9999999N1-00771-00931101501REMSYN059CMAN  20234 BGXN3 46/// /0801 11077 21093 40150 7010 92300;
0062997993999992011012100004+43050-070833FM-18+0003BGXN3V0209999C000019999999N9999999N1-00911-01001999999REMSYN053CMAN  21004 BGXN3 46/// /0000 11091 21100 40150 2345;
0068997993999992011012101004+43050-070833FM-18+0003BGXN3V0209999C000019999999N9999999N1-00851-00921101401REMSYN059CMAN  21014 BGXN3 46/// /0000 11085 21092 40140 7010 90100;
0068997993999992011012102004+43050-070833FM-18+0003BGXN3V0200801N000519999999N9999999N1-00761-00841101301REMSYN059CMAN  21024 BGXN3 46/// /0801 11076 21084 40130 7020 90200;
0068997993999992011012103004+43050-070833FM-18+0003BGXN3V0209999C000019999999N9999999N1-00751-00831101301REMSYN059CMAN  21034 BGXN3 46/// /0000 11075 21083 40130 7010 90300;
0085997993999992011012104004+43050-070833FM-18+0003BGXN3V0209999C000019999999N9999999N1-00681-00761101201ADDMD1710201+9999REMSYN059CMAN 21044 BGXN3 46/// /0000 11068 21076 40120 57020 90400;
0062997993999992011012105004+43050-070833FM-18+0003BGXN3V0200301N000519999999N9999999N1-00681-00761999999REMSYN053CMAN  21054 BGXN3 46/// /0301 11068 21076 0120 90445;
0062997993999992011012106004+43050-070833FM-18+0003BGXN3V0209999C000019999999N9999999N1-00781-00851999999REMSYN053CMAN  21064 BGXN3 46/// /0000 11078 21085 0110 90545;
0062997993999992011012107004+43050-070833FM-18+0003BGXN3V0209999C000019999999N9999999N1-00691-00741999999REMSYN053CMAN  21074 BGXN3 46/// /0000 11069 21074 0100 90645;
0000997993999992011012108004+43050-070833FM-18+0003BGXN3V0201901N001019999999N9999999N1-00611-00661999999
0062997993999992011012109004+43050-070833FM-18+0003BGXN3V0203301N000519999999N9999999N1-00581-00631999999REMSYN053CMAN  21094 BGXN3 46/// /3301 11058 21063 0090 90845;
0062997993999992011012110004+43050-070833FM-18+0003BGXN3V0200501N000519999999N9999999N1-00561-00631999999REMSYN053CMAN  21104 BGXN3 46/// /0501 11056 21063 0110 90945;
0000997993999992011012111004+43050-070833FM-18+0003BGXN3V0209999C000019999999N9999999N1-00561-00611999999
0062997993999992011012112004+43050-070833FM-18+0003BGXN3V0209999C000019999999N9999999N1-00551-00621100201REMSYN053CMAN 21124 BGXN3 46/// /0000 11055 21062 40020 91145;
0062997993999992011012113004+43050-070833FM-18+0003BGXN3V0203101N001019999999N9999999N1-00541-00591999999REMSYN053CMAN  21134 BGXN3 46/// /3102 11054 21059 0110 91245;
0095997993999992011012114004+43050-070833FM-18+0003BGXN3V0203101N002119999999N9999999N1-00511-00561999999REMSYN086CMAN  21144 BGXN3 46/// /3104 11051 21056 56020 91400 222// 000791103 91202 555 53042;
0062997993999992011012115004+43050-070833FM-18+0003BGXN3V0203001N001519999999N9999999N1-00481-00531999999REMSYN053CMAN  21154 BGXN3 46/// /3003 11048 21053 0120 91445;
0085997993999992011012116004+43050-070833FM-18+0003BGXN3V0202701N001519999999N9999999N1-00451-00501999999REMSYN076CMAN  21164 BGXN3 46/// /2703 11045 21050 58024 91600 222// 001790710 91124;
0062997993999992011012117004+43050-070833FM-18+0003BGXN3V0202501N002619999999N9999999N1-00501-00571999999REMSYN053CMAN  21174 BGXN3 46/// /2505 11050 21057 0120 91645;
0062997993999992011012118004+43050-070833FM-18+0003BGXN3V0202601N002619999999N9999999N1-00351-00431999999REMSYN053CMAN  21184 BGXN3 46/// /2605 11035 21043 0110 91745;
0062997993999992011012119004+43050-070833FM-18+0003BGXN3V0202501N003619999999N9999999N1-00351-00461999999REMSYN053CMAN  21194 BGXN3 46/// /2507 11035 21046 0110 91845;
0062997993999992011012120004+43050-070833FM-18+0003BGXN3V0202501N006219999999N9999999N1-00311-00591999999REMSYN053CMAN  21204 BGXN3 46/// /2512 11031 21059 0100 91945;
0062997993999992011012121004+43050-070833FM-18+0003BGXN3V0202501N006719999999N9999999N1-00381-00811999999REMSYN053CMAN  21214 BGXN3 46/// /2513 11038 21081 0100 92045;
0062997993999992011012122004+43050-070833FM-18+0003BGXN3V0202501N007219999999N9999999N1-00431-00971999999REMSYN053CMAN  21224 BGXN3 46/// /2514 11043 21097 0100 92145;
0062997993999992011012123004+43050-070833FM-18+0003BGXN3V0202501N005119999999N9999999N1-00491-01011999999REMSYN053CMAN  21234 BGXN3 46/// /2510 11049 21101 0110 92245;
0062997993999992011012200004+43050-070833FM-18+0003BGXN3V0202501N004619999999N9999999N1-00541-01041999999REMSYN053CMAN  22004 BGXN3 46/// /2509 11054 21104 0110 92345;
0068997993999992011012201004+43050-070833FM-18+0003BGXN3V0202501N002619999999N9999999N1-00691-01111100201REMSYN059CMAN  22014 BGXN3 46/// /2505 11069 21111 40020 2020 90100;
0068997993999992011012202004+43050-070833FM-18+0003BGXN3V0202501N005719999999N9999999N1-00691-01171100301REMSYN059CMAN  22024 BGXN3 46/// /2511 11069 21117 40030 2010 90200;
0068997993999992011012203004+43050-070833FM-18+0003BGXN3V0202501N005119999999N9999999N1-00731-01151100401REMSYN059CMAN  22034 BGXN3 46/// /2510 11073 21115 40040 1010 90300;
0068997993999992011012204004+43050-070833FM-18+0003BGXN3V0202501N004619999999N9999999N1-00761-01201100501REMSYN059CMAN  22044 BGXN3 46/// /2509 11076 21120 40050 8010 90400;
0062997993999992011012205004+43050-070833FM-18+0003BGXN3V0202301N003119999999N9999999N1-00831-01201999999REMSYN053CMAN  22054 BGXN3 46/// /2306 11083 21120 0110 90445;
0062997993999992011012206004+43050-070833FM-18+0003BGXN3V0202201N001519999999N9999999N1-01191-01421999999REMSYN053CMAN  22064 BGXN3 46/// /2203 11119 21142 0110 90545;
0062997993999992011012207004+43050-070833FM-18+0003BGXN3V0202601N001019999999N9999999N1-01201-01371999999REMSYN053CMAN  22074 BGXN3 46/// /2602 11120 21137 0100 90645;
0062997993999992011012208004+43050-070833FM-18+0003BGXN3V0202601N002119999999N9999999N1-01031-01311999999REMSYN053CMAN  22084 BGXN3 46/// /2604 11103 21131 0100 90745;
0062997993999992011012209004+43050-070833FM-18+0003BGXN3V0202401N004119999999N9999999N1-01021-01321999999REMSYN053CMAN  22094 BGXN3 46/// /2408 11102 21132 0100 90845;
0062997993999992011012210004+43050-070833FM-18+0003BGXN3V0201601N000519999999N9999999N1-01481-01651999999REMSYN053CMAN  22104 BGXN3 46/// /1601 11148 21165 0090 90945;
0062997993999992011012211004+43050-070833FM-18+0003BGXN3V0202401N003119999999N9999999N1-01131-01391999999REMSYN053CMAN  22114 BGXN3 46/// /2406 11113 21139 0090 91045;
0062997993999992011012212004+43050-070833FM-18+0003BGXN3V0202301N001519999999N9999999N1-01251-01531999999REMSYN053CMAN  22124 BGXN3 46/// /2303 11125 21153 0090 91145;
0062997993999992011012213004+43050-070833FM-18+0003BGXN3V0202601N003119999999N9999999N1-01171-01481999999REMSYN053CMAN  22134 BGXN3 46/// /2606 11117 21148 0100 91245;
0062997993999992011012214004+43050-070833FM-18+0003BGXN3V0202501N003619999999N9999999N1-01031-01491999999REMSYN053CMAN  22144 BGXN3 46/// /2507 11103 21149 0100 91345;
0062997993999992011012215004+43050-070833FM-18+0003BGXN3V0202501N004119999999N9999999N1-00881-01501999999REMSYN053CMAN  22154 BGXN3 46/// /2508 11088 21150 0110 91445;
0068997993999992011012216004+43050-070833FM-18+0003BGXN3V0202501N005119999999N9999999N1-00761-01431999999REMSYN059CMAN  22164 BGXN3 46/// /2510 11076 21143 0160 50000 91600;
0062997993999992011012217004+43050-070833FM-18+0003BGXN3V0202401N004119999999N9999999N1-00651-01391999999REMSYN053CMAN  22174 BGXN3 46/// /2408 11065 21139 0160 91645;
0062997993999992011012218004+43050-070833FM-18+0003BGXN3V0202301N002619999999N9999999N1-00491-01381999999REMSYN053CMAN  22184 BGXN3 46/// /2305 11049 21138 0110 91745;
0062997993999992011012219004+43050-070833FM-18+0003BGXN3V0202401N002619999999N9999999N1-00501-01391999999REMSYN053CMAN  22194 BGXN3 46/// /2405 11050 21139 0100 91845;
0062997993999992011012220004+43050-070833FM-18+0003BGXN3V0202501N001519999999N9999999N1-00501-01391999999REMSYN053CMAN  22204 BGXN3 46/// /2503 11050 21139 0100 91945;
0062997993999992011012221004+43050-070833FM-18+0003BGXN3V0202001N000519999999N9999999N1-00491-01351999999REMSYN053CMAN  22214 BGXN3 46/// /2001 11049 21135 0100 92045;
0062997993999992011012222004+43050-070833FM-18+0003BGXN3V0201801N000519999999N9999999N1-00831-01541999999REMSYN053CMAN  22224 BGXN3 46/// /1801 11083 21154 0110 92145;
0062997993999992011012223004+43050-070833FM-18+0003BGXN3V0200701N001019999999N9999999N1-01161-01471999999REMSYN053CMAN  22234 BGXN3 46/// /0702 11116 21147 0120 92245;
0062997993999992011012300004+43050-070833FM-18+0003BGXN3V0200501N000519999999N9999999N1-01371-01561999999REMSYN053CMAN  23004 BGXN3 46/// /0501 11137 21156 0160 92345;
0068997993999992011012301004+43050-070833FM-18+0003BGXN3V0209999C000019999999N9999999N1-01551-01681101301REMSYN059CMAN  23014 BGXN3 46/// /0000 11155 21168 40130 2040 90100;
0068997993999992011012302004+43050-070833FM-18+0003BGXN3V0209999C000019999999N9999999N1-01711-01851101301REMSYN059CMAN  23024 BGXN3 46/// /0000 11171 21185 40130 1040 90200;
0068997993999992011012303004+43050-070833FM-18+0003BGXN3V0200901N001019999999N9999999N1-01721-01831101201REMSYN059CMAN  23034 BGXN3 46/// /0902 11172 21183 40120 1020 90300;
0068997993999992011012304004+43050-070833FM-18+0003BGXN3V0209999C000019999999N9999999N1-01851-01991101101REMSYN059CMAN  23044 BGXN3 46/// /0000 11185 21199 40110 2020 90400;
0062997993999992011012305004+43050-070833FM-18+0003BGXN3V0209999C000019999999N9999999N1-01871-02021999999REMSYN053CMAN  23054 BGXN3 46/// /0000 11187 21202 0170 90445;
0062997993999992011012306004+43050-070833FM-18+0003BGXN3V0202601N000519999999N9999999N1-01861-02011999999REMSYN053CMAN  23064 BGXN3 46/// /2601 11186 21201 0160 90545;
0062997993999992011012307004+43050-070833FM-18+0003BGXN3V0209999C000019999999N9999999N1-01941-02091999999REMSYN053CMAN  23074 BGXN3 46/// /0000 11194 21209 0160 90645;
0062997993999992011012308004+43050-070833FM-18+0003BGXN3V0209999C000019999999N9999999N1-01851-02031999999REMSYN053CMAN  23084 BGXN3 46/// /0000 11185 21203 0170 90745;
0081997993999992011012309004+43050-070833FM-18+0003BGXN3V0209999C000019999999N9999999N1-01861-02041999999REMSYN072CMAN  23094 BGXN3 46/// /0000 11186 21204 53004 90900 222// 00105 70023;
0062997993999992011012310004+43050-070833FM-18+0003BGXN3V0209999C000019999999N9999999N1-01791-01941999999REMSYN053CMAN  23104 BGXN3 46/// /0000 11179 21194 0200 90945;
0062997993999992011012311004+43050-070833FM-18+0003BGXN3V0202601N000519999999N9999999N1-01711-01851999999REMSYN053CMAN  23114 BGXN3 46/// /2601 11171 21185 0190 91045;
0062997993999992011012312004+43050-070833FM-18+0003BGXN3V0209999C000019999999N9999999N1-01371-01491999999REMSYN053CMAN  23124 BGXN3 46/// /0000 11137 21149 0200 91145;
0062997993999992011012313004+43050-070833FM-18+0003BGXN3V0202501N000519999999N9999999N1-01261-01391999999REMSYN053CMAN  23134 BGXN3 46/// /2501 11126 21139 0210 91245;
0084997993999992011012314004+43050-070833FM-18+0003BGXN3V0202901N001019999999N9999999N1-01101-01381999999REMSYN075CMAN  23144 BGXN3 46/// /2902 11110 21138 53023 91400 222// 0001 333 91202;
0062997993999992011012315004+43050-070833FM-18+0003BGXN3V0203301N002619999999N9999999N1-00951-01511999999REMSYN053CMAN  23154 BGXN3 46/// /3305 11095 21151 0230 91445;
0062997993999992011012316004+43050-070833FM-18+0003BGXN3V0202701N001519999999N9999999N1-00771-01441999999REMSYN053CMAN  23164 BGXN3 46/// /2703 11077 21144 0220 91545;
0000997993999992011012317004+43050-070833FM-18+0003BGXN3V0202801N001519999999N9999999N1-00661-01311999999
0062997993999992011012318004+43050-070833FM-18+0003BGXN3V0202701N002619999999N9999999N1-00531-01371999999REMSYN053CMAN  23184 BGXN3 46/// /2705 11053 21137 0210 91745;
0062997993999992011012319004+43050-070833FM-18+0003BGXN3V0202701N002619999999N9999999N1-00561-01521999999REMSYN053CMAN  23194 BGXN3 46/// /2705 11056 21152 0200 91845;
0062997993999992011012320004+43050-070833FM-18+0003BGXN3V0202601N003619999999N9999999N1-00661-01541999999REMSYN053CMAN  23204 BGXN3 46/// /2607 11066 21154 0210 91945;
0062997993999992011012321004+43050-070833FM-18+0003BGXN3V0202601N004119999999N9999999N1-00791-01781999999REMSYN053CMAN  23214 BGXN3 46/// /2608 11079 21178 0200 92045;
0056997993999992011012322004+43050-070833FM-18+0003BGXN3V0202701N002619999999N9999999N1-00931-02001999999REMSYN047CMAN  23224 BGXN3 46/// /2705 11093 21200 2145;
0062997993999992011012323004+43050-070833FM-18+0003BGXN3V0202701N003619999999N9999999N1-01071-02071999999REMSYN053CMAN  23234 BGXN3 46/// /2707 11107 21207 0210 92245;
0062997993999992011012400004+43050-070833FM-18+0003BGXN3V0202701N003619999999N9999999N1-01251-02261999999REMSYN053CMAN  24004 BGXN3 46/// /2707 11125 21226 0220 92345;
0068997993999992011012401004+43050-070833FM-18+0003BGXN3V0202601N003619999999N9999999N1-01481-02331102101REMSYN059CMAN  24014 BGXN3 46/// /2607 11148 21233 40210 2020 90100;
0068997993999992011012402004+43050-070833FM-18+0003BGXN3V0202601N003619999999N9999999N1-01591-02531102201REMSYN059CMAN  24024 BGXN3 46/// /2607 11159 21253 40220 2010 90200;
0068997993999992011012403004+43050-070833FM-18+0003BGXN3V0202501N005119999999N9999999N1-01691-02481102201REMSYN059CMAN  24034 BGXN3 46/// /2510 11169 21248 40220 2020 90300;
0068997993999992011012404004+43050-070833FM-18+0003BGXN3V0202601N004119999999N9999999N1-01771-02621102301REMSYN059CMAN  24044 BGXN3 46/// /2608 11177 21262 40230 2010 90400;
0062997993999992011012405004+43050-070833FM-18+0003BGXN3V0202601N004119999999N9999999N1-01831-02681999999REMSYN053CMAN  24054 BGXN3 46/// /2608 11183 21268 0240 90445;
0062997993999992011012406004+43050-070833FM-18+0003BGXN3V0202501N007219999999N9999999N1-01891-02691999999REMSYN053CMAN  24064 BGXN3 46/// /2514 11189 21269 0240 90545;
0000997993999992011012407004+43050-070833FM-18+0003BGXN3V0202501N005719999999N9999999N1-02001-02751999999
0062997993999992011012408004+43050-070833FM-18+0003BGXN3V0202501N006219999999N9999999N1-02041-02811999999REMSYN053CMAN  24084 BGXN3 46/// /2512 11204 21281 0240 90745;
0062997993999992011012409004+43050-070833FM-18+0003BGXN3V0202401N006719999999N9999999N1-02071-02771999999REMSYN053CMAN  24094 BGXN3 46/// /2413 11207 21277 0240 90845;
0062997993999992011012410004+43050-070833FM-18+0003BGXN3V0202401N006719999999N9999999N1-02101-02861999999REMSYN053CMAN  24104 BGXN3 46/// /2413 11210 21286 0240 90945;
0093997993999992011012411004+43050-070833FM-18+0003BGXN3V0202501N005119999999N9999999N1-02141-02901999999REMSYN084CMAN  24114 BGXN3 46/// /2510 11214 21290 58010 91100 222// 00100 00111 10603 70015;
0091997993999992011012412004+43050-070833FM-18+0003BGXN3V0202501N004619999999N9999999N1-02171-02911999999REMSYN082CMAN  24124 BGXN3 46/// /2509 11217 21291 53008 91200 222// 000421094 4/045 70000;
0000997993999992011012413004+43050-070833FM-18+0003BGXN3V0202501N004619999999N9999999N1-02181-02941999999
0062997993999992011012414004+43050-070833FM-18+0003BGXN3V0202501N004619999999N9999999N1-02071-02901999999REMSYN053CMAN  24144 BGXN3 46/// /2509 11207 21290 0240 91345;
0062997993999992011012415004+43050-070833FM-18+0003BGXN3V0202501N003619999999N9999999N1-01941-02951999999REMSYN053CMAN  24154 BGXN3 46/// /2507 11194 21295 0270 91445;
0084997993999992011012416004+43050-070833FM-18+0003BGXN3V0202501N004119999999N9999999N1-01751-02811999999REMSYN075CMAN  24164 BGXN3 46/// /2508 11175 21281 51010 91600 222// 0005 333 91204;
0062997993999992011012417004+43050-070833FM-18+0003BGXN3V0202501N004119999999N9999999N1-01591-02631999999REMSYN053CMAN  24174 BGXN3 46/// /2508 11159 21263 0260 91645;
0062997993999992011012418004+43050-070833FM-18+0003BGXN3V0202501N004619999999N9999999N1-01451-02561999999REMSYN053CMAN  24184 BGXN3 46/// /2509 11145 21256 0250 91745;
0074997993999992011012419004+43050-070833FM-18+0003BGXN3V0202501N004619999999N9999999N1-01371-02461999999REMSYN065CMAN  24194 BGXN3 46/// /2509 11137 21246 55000 91900 222// 0017;
0084997993999992011012420004+43050-070833FM-18+0003BGXN3V0202501N004119999999N9999999N1-01281-02491999999REMSYN075CMAN  24204 BGXN3 46/// /2508 11128 21249 56015 92000 222// 0005 333 91204;
0062997993999992011012421004+43050-070833FM-18+0003BGXN3V0202501N003119999999N9999999N1-01301-02451999999REMSYN053CMAN  24214 BGXN3 46/// /2506 11130 21245 0240 92045;
0062997993999992011012422004+43050-070833FM-18+0003BGXN3V0202501N002619999999N9999999N1-01411-02491999999REMSYN053CMAN  24224 BGXN3 46/// /2505 11141 21249 0240 92145;
0062997993999992011012423004+43050-070833FM-18+0003BGXN3V0202501N003119999999N9999999N1-01451-02501999999REMSYN053CMAN  24234 BGXN3 46/// /2506 11145 21250 0240 92245;
0062997993999992011012500004+43050-070833FM-18+0003BGXN3V0202201N002119999999N9999999N1-01511-02591999999REMSYN053CMAN  25004 BGXN3 46/// /2204 11151 21259 0240 92345;
0068997993999992011012501004+43050-070833FM-18+0003BGXN3V0202501N001519999999N9999999N1-01701-02471103001REMSYN059CMAN  25014 BGXN3 46/// /2503 11170 21247 40300 4000 90100;
0068997993999992011012502004+43050-070833FM-18+0003BGXN3V0202801N001019999999N9999999N1-01591-02451103001REMSYN059CMAN  25024 BGXN3 46/// /2802 11159 21245 40300 4000 90200;
0068997993999992011012503004+43050-070833FM-18+0003BGXN3V0200701N000519999999N9999999N1-01871-02411103001REMSYN059CMAN  25034 BGXN3 46/// /0701 11187 21241 40300 4000 90300;
0068997993999992011012504004+43050-070833FM-18+0003BGXN3V0209999C000019999999N9999999N1-01831-02321103001REMSYN059CMAN  25044 BGXN3 46/// /0000 11183 21232 40300 8010 90400;
0062997993999992011012505004+43050-070833FM-18+0003BGXN3V0209999C000019999999N9999999N1-01761-02231999999REMSYN053CMAN  25054 BGXN3 46/// /0000 11176 21223 0230 90445;
0062997993999992011012506004+43050-070833FM-18+0003BGXN3V0209999C000019999999N9999999N1-01741-02201999999REMSYN053CMAN  25064 BGXN3 46/// /0000 11174 21220 58010 9060;
0062997993999992011012507004+43050-070833FM-18+0003BGXN3V0209999C000019999999N9999999N1-01701-02161999999REMSYN053CMAN  25074 BGXN3 46/// /0000 11170 21216 0220 90645;
0062997993999992011012508004+43050-070833FM-18+0003BGXN3V0209999C000019999999N9999999N1-01591-02201999999REMSYN053CMAN  25084 BGXN3 46/// /0000 11159 21220 0170 90745;
0102997993999992011012509004+43050-070833FM-18+0003BGXN3V0201501N000519999999N9999999N1-01531-02121999999REMSYN093CMAN  25094 BGXN3 46/// /1501 11153 21212 56020 90900 222// 0005 90800 22200 00132 333 91204;
0062997993999992011012510004+43050-070833FM-18+0003BGXN3V0209999C000019999999N9999999N1-01541-01901999999REMSYN053CMAN  25104 BGXN3 46/// /0000 11154 21190 0210 90945;
0000997993999992011012511004+43050-070833FM-18+0003BGXN3V0209999C000019999999N9999999N1-01491-01761999999
0062997993999992011012512004+43050-070833FM-18+0003BGXN3V0202501N001019999999N9999999N1-01411-01611999999REMSYN053CMAN  25124 BGXN3 46/// /2502 11141 21161 55000 9120;
0062997993999992011012513004+43050-070833FM-18+0003BGXN3V0202601N001019999999N9999999N1-01381-01551999999REMSYN053CMAN  25134 BGXN3 46/// /2602 11138 21155 0210 91245;
0068997993999992011012514004+43050-070833FM-18+0003BGXN3V0202401N001019999999N9999999N1-01341-01511102301REMSYN059CMAN  25144 BGXN3 46/// /2402 11134 21151 40230 0000 91400;
0083997993999992011012515004+43050-070833FM-18+0003BGXN3V0202401N001519999999N9999999N1-01261-01431999999REMSYN074CMAN  25154 BGXN3 46/// /2403 11126 21143 50004 91500 222// 0010009 22011;
0068997993999992011012516004+43050-070833FM-18+0003BGXN3V0202401N001519999999N9999999N1-01151-01321102101REMSYN059CMAN  25164 BGXN3 46/// /2403 11115 21132 40210 7020 91600;
0078997993999992011012517004+43050-070833FM-18+0003BGXN3V0202601N001019999999N9999999N1-01021-01211999999REMSYN069CMAN  25174 BGXN3 46/// /2602 11102 21121 58012 91700 222// 00051212;
0062997993999992011012518004+43050-070833FM-18+0003BGXN3V0202401N001519999999N9999999N1-00891-01101999999REMSYN053CMAN  25184 BGXN3 46/// /2403 11089 21110 0160 91745;
0062997993999992011012519004+43050-070833FM-18+0003BGXN3V0202401N002119999999N9999999N1-00841-01061999999REMSYN053CMAN  25194 BGXN3 46/// /2404 11084 21106 0150 91845;
0062997993999992011012520004+43050-070833FM-18+0003BGXN3V0202401N001519999999N9999999N1-00731-01031999999REMSYN053CMAN  25204 BGXN3 46/// /2403 11073 21103 0150 91945;
0062997993999992011012521004+43050-070833FM-18+0003BGXN3V0202401N000519999999N9999999N1-00681-00971999999REMSYN053CMAN  25214 BGXN3 46/// /2401 11068 21097 0150 92045;
0068997993999992011012522004+43050-070833FM-18+0003BGXN3V0209999C000019999999N9999999N1-00841-01091101901REMSYN059CMAN  25224 BGXN3 46/// /0000 11084 21109 40190 8020 92200;
0062997993999992011012523004+43050-070833FM-18+0003BGXN3V0200301N001019999999N9999999N1-01131-01261999999REMSYN053CMAN  25234 BGXN3 46/// /0302 11113 21126 0120 92245;
0062997993999992011012600004+43050-070833FM-18+0003BGXN3V0209999C000019999999N9999999N1-01371-01491999999REMSYN053CMAN  26004 BGXN3 46/// /0000 11137 21149 0110 92345;
0068997993999992011012601004+43050-070833FM-18+0003BGXN3V0209999C000019999999N9999999N1-01551-01691102001REMSYN059CMAN  26014 BGXN3 46/// /0000 11155 21169 40200 8050 90100;
0068997993999992011012602004+43050-070833FM-18+0003BGXN3V0200701N000519999999N9999999N1-01631-01761102101REMSYN059CMAN  26024 BGXN3 46/// /0701 11163 21176 40210 5030 90200;
0068997993999992011012603004+43050-070833FM-18+0003BGXN3V0209999C000019999999N9999999N1-01731-01871102101REMSYN059CMAN  26034 BGXN3 46/// /0000 11173 21187 40210 6020 90300;
0068997993999992011012604004+43050-070833FM-18+0003BGXN3V0209999C000019999999N9999999N1-01791-01971102101REMSYN059CMAN  26044 BGXN3 46/// /0000 11179 21197 40210 2030 90400;
