0062997993999992012010104004+43050-070833FM-18+0003BGXN3V0209999C000019999999N9999999N1-00151+99999999999REMSYN053CMAN  01044 BGXN3 46/// /0000 11015 0131 40230 90415;
0074997993999992012010105004+43050-070833FM-18+0003BGXN3V0202301N001019999999N9999999N1-00191+99999999999REMSYN065CMAN  01054 BGXN3 46/// /2302 11019 40211 51012 90500 222// 0012;
0074997993999992012010106004+43050-070833FM-18+0003BGXN3V0202501N001019999999N9999999N1-00141+99999999999REMSYN065CMAN  01064 BGXN3 46/// /2502 11014 20119 58010 90600 222// 0004;
0084997993999992012010107004+43050-070833FM-18+0003BGXN3V0200601N000519999999N9999999N1-00111+99999999999REMSYN075CMAN  01074 BGXN3 46/// /0601 11011 20109 4000 90700 222// 00111 333 91206;
0062997993999992012010108004+43050-070833FM-18+0003BGXN3V0202101N001019999999N9999999N1-00161+99999999999REMSYN053CMAN  01084 BGXN3 46/// /2102 11016 0107 40220 90745;
0068997993999992012010109004+43050-070833FM-18+0003BGXN3V0209999C000019999999N9999999N1+00031+99999101401REMSYN059CMAN  01094 BGXN3 46/// /0000 10003 40140 0220 57010 90900;
0068997993999992012010110004+43050-070833FM-18+0003BGXN3V0202401N001019999999N9999999N1+00021+99999101501REMSYN059CMAN  01104 BGXN3 46/// /2402 10002 40150 0230 55000 91000;
0084997993999992012010111004+43050-070833FM-18+0003BGXN3V0202601N000519999999N9999999N1+00081+99999999999REMSYN075CMAN  01114 BGXN3 46/// /2601 10008 20090 58016 91100 222// 0010 333 91203;
0062997993999992012010112004+43050-070833FM-18+0003BGXN3V0202401N000519999999N9999999N1-00021+99999999999REMSYN053CMAN  01124 BGXN3 46/// /2401 11002 0090 40230 91145;
0062997993999992012010113004+43050-070833FM-18+0003BGXN3V0209999C000019999999N9999999N1-00151+99999999999REMSYN053CMAN  01134 BGXN3 46/// /0000 11015 0094 40240 91245;
0062997993999992012010114004+43050-070833FM-18+0003BGXN3V0209999C000019999999N9999999N1+00331+99999999999REMSYN053CMAN  01144 BGXN3 46/// /0000 10033 0109 40250 91345;
0062997993999992012010115004+43050-070833FM-18+0003BGXN3V0202401N001019999999N9999999N1+00431+99999999999REMSYN053CMAN  01154 BGXN3 46/// /2402 10043 0157 40260 91445;
0062997993999992012010116004+43050-070833FM-18+0003BGXN3V0202301N001519999999N9999999N1+00651+99999999999REMSYN053CMAN  01164 BGXN3 46/// /2303 10065 0166 40250 91545;
0062997993999992012010117004+43050-070833FM-18+0003BGXN3V0202301N001019999999N9999999N1+00781+99999999999REMSYN053CMAN  01174 BGXN3 46/// /2302 10078 0176 40250 91645;
0062997993999992012010118004+43050-070833FM-18+0003BGXN3V0202201N001519999999N9999999N1+00861+99999999999REMSYN053CMAN  01184 BGXN3 46/// /2203 10086 0180 40240 91745;
0062997993999992012010119004+43050-070833FM-18+0003BGXN3V0201401N001519999999N9999999N1+01021+99999999999REMSYN053CMAN  01194 BGXN3 46/// /1403 10102 0178 40220 91845;
0062997993999992012010120004+43050-070833FM-18+0003BGXN3V0201001N001019999999N9999999N1+01031+99999999999REMSYN053CMAN  01204 BGXN3 46/// /1002 10103 0181 40220 91945;
0062997993999992012010121004+43050-070833FM-18+0003BGXN3V0200801N001519999999N9999999N1+00751+99999999999REMSYN053CMAN  01214 BGXN3 46/// /0803 10075 0158 40220 92045;
0062997993999992012010122004+43050-070833FM-18+0003BGXN3V0200701N002119999999N9999999N1+00581+99999999999REMSYN053CMAN  01224 BGXN3 46/// /0704 10058 0166 40220 92145;
0062997993999992012010123004+43050-070833FM-18+0003BGXN3V0200901N001519999999N9999999N1+00611+99999999999REMSYN053CMAN  01234 BGXN3 46/// /0903 10061 0169 40220 92245;
0056997993999992012010200004+43050-070833FM-18+0003BGXN3V0201001N002119999999N9999999N1+00651+99999101101REMSYN047CMAN 02004 BGXN3 46/// /1004 10065 40110 92345;
0062997993999992012010201004+43050-070833FM-18+0003BGXN3V0200901N001519999999N9999999N1+00691+99999999999REMSYN053CMAN  02014 BGXN3 46/// /0903 10069 0171 40210 90045;
0062997993999992012010202004+43050-070833FM-18+0003BGXN3V0201201N002119999999N9999999N1+00701+99999999999REMSYN053CMAN  02024 BGXN3 46/// /1204 10070 0161 40220 90145;
0062997993999992012010203004+43050-070833FM-18+0003BGXN3V0201101N001019999999N9999999N1+00681+99999999999REMSYN053CMAN  02034 BGXN3 46/// /1102 10068 0168 40220 90245;
0062997993999992012010204004+43050-070833FM-18+0003BGXN3V0201001N002119999999N9999999N1+00661+99999999999REMSYN053CMAN  02044 BGXN3 46/// /1004 10066 0168 40220 90345;
0062997993999992012010205004+43050-070833FM-18+0003BGXN3V0200901N001519999999N9999999N1+00671+99999999999REMSYN053CMAN  02054 BGXN3 46/// /0903 10067 0127 40220 90445;
0062997993999992012010206004+43050-070833FM-18+0003BGXN3V0201201N001519999999N9999999N1+00701+99999999999REMSYN053CMAN  02064 BGXN3 46/// /1203 10070 0068 40230 90545;
0062997993999992012010207004+43050-070833FM-18+0003BGXN3V0201201N001519999999N9999999N1+00681+99999999999REMSYN053CMAN  02074 BGXN3 46/// /1203 10068 0050 40230 90645;
0062997993999992012010208004+43050-070833FM-18+0003BGXN3V0201301N002119999999N9999999N1+00701+99999999999REMSYN053CMAN  02084 BGXN3 46/// /1304 10070 0043 40230 90745;
0062997993999992012010209004+43050-070833FM-18+0003BGXN3V0201601N002119999999N9999999N1+00731+99999999999REMSYN053CMAN  02094 BGXN3 46/// /1604 10073 0036 40230 90845;
0084997993999992012010210004+43050-070833FM-18+0003BGXN3V0202101N005119999999N9999999N1+00711+99999999999REMSYN075CMAN  02104 BGXN3 46/// /2110 10071 20031 3015 91000 222// 00038 333 91218;
0062997993999992012010211004+43050-070833FM-18+0003BGXN3V0202201N004119999999N9999999N1+00481+99999999999REMSYN053CMAN  02114 BGXN3 46/// /2208 10048 0023 40240 91045;
0062997993999992012010212004+43050-070833FM-18+0003BGXN3V0202101N003119999999N9999999N1+00421+99999999999REMSYN053CMAN  02124 BGXN3 46/// /2106 10042 0019 40250 91145;
0084997993999992012010213004+43050-070833FM-18+0003BGXN3V0201801N002119999999N9999999N1+00281+99999999999REMSYN075CMAN  02134 BGXN3 46/// /1804 10028 40202 53010 91300 222// 0019 333 91208;
0062997993999992012010214004+43050-070833FM-18+0003BGXN3V0202101N003619999999N9999999N1+00431+99999999999REMSYN053CMAN  02144 BGXN3 46/// /2107 10043 0013 40260 91345;
0062997993999992012010215004+43050-070833FM-18+0003BGXN3V0202101N004119999999N9999999N1+00421+99999999999REMSYN053CMAN  02154 BGXN3 46/// /2108 10042 0005 40270 91445;
0056997993999992012010216004+43050-070833FM-18+0003BGXN3V0202101N004619999999N9999999N1+00491+99999100101REMSYN047CMAN 02164 BGXN3 46/// /2109 10049 40010 91545;
0062997993999992012010217004+43050-070833FM-18+0003BGXN3V0202201N006719999999N9999999N1+00501+99999999999REMSYN053CMAN  02174 BGXN3 46/// /2213 10050 1031 40270 91645;
0062997993999992012010218004+43050-070833FM-18+0003BGXN3V0202101N005719999999N9999999N1+00581+99999999999REMSYN053CMAN  02184 BGXN3 46/// /2111 10058 1030 40260 91745;
0056997993999992012010219004+43050-070833FM-18+0003BGXN3V0202201N007219999999N9999999N1+00551+99999999999REMSYN047CMAN  02194 BGXN3 46/// /2214 10055 0250 91845;
0056997993999992012010220004+43050-070833FM-18+0003BGXN3V0202001N004619999999N9999999N1+00521+99999999999REMSYN047CMAN  02204 BGXN3 46/// /2009 10052 0240 91945;
0056997993999992012010221004+43050-070833FM-18+0003BGXN3V0202101N005119999999N9999999N1+00431+99999100201REMSYN047CMAN 02214 BGXN3 46/// /2110 10043 40020 92045;
0056997993999992012010222004+43050-070833FM-18+0003BGXN3V0202101N002619999999N9999999N1+00291+99999999999REMSYN047CMAN  02224 BGXN3 46/// /2105 10029 0250 92145;
0056997993999992012010223004+43050-070833FM-18+0003BGXN3V0201901N003619999999N9999999N1+00201+99999999999REMSYN047CMAN  02234 BGXN3 46/// /1907 10020 0240 92245;
0056997993999992012010300004+43050-070833FM-18+0003BGXN3V0201901N002619999999N9999999N1+00151+99999999999REMSYN047CMAN  03004 BGXN3 46/// /1905 10015 0250 92345;
0062997993999992012010301004+43050-070833FM-18+0003BGXN3V0201901N002619999999N9999999N1+00121+99999999999REMSYN053CMAN  03014 BGXN3 46/// /1905 10012 1029 40250 90045;
0084997993999992012010302004+43050-070833FM-18+0003BGXN3V0201901N003619999999N9999999N1+00071+99999999999REMSYN075CMAN  03024 BGXN3 46/// /1907 10007 21051 5000 90200 222// 00035 333 91202;
0062997993999992012010303004+43050-070833FM-18+0003BGXN3V0201901N002119999999N9999999N1+00011+99999999999REMSYN053CMAN  03034 BGXN3 46/// /1904 10001 1043 40260 90245;
0062997993999992012010304004+43050-070833FM-18+0003BGXN3V0201801N002619999999N9999999N1-00061+99999999999REMSYN053CMAN  03044 BGXN3 46/// /1805 11006 1062 40260 90345;
0074997993999992012010305004+43050-070833FM-18+0003BGXN3V0201901N002619999999N9999999N1-00061+99999999999REMSYN065CMAN  03054 BGXN3 46/// /1905 11006 21076 52009 90500 222// 0003;
0068997993999992012010306004+43050-070833FM-18+0003BGXN3V0201801N002619999999N9999999N1-00131+99999999999REMSYN059CMAN  03064 BGXN3 46/// /1805 11013 21106 0080 54000 90600;
0084997993999992012010307004+43050-070833FM-18+0003BGXN3V0202001N002619999999N9999999N1-00161+99999999999REMSYN075CMAN  03074 BGXN3 46/// /2005 11016 21101 53005 90700 222// 0011 333 91203;
0062997993999992012010308004+43050-070833FM-18+0003BGXN3V0202201N003619999999N9999999N1-00141+99999999999REMSYN053CMAN  03084 BGXN3 46/// /2207 11014 1111 40280 90745;
0062997993999992012010309004+43050-070833FM-18+0003BGXN3V0202301N004619999999N9999999N1-00161+99999999999REMSYN053CMAN  03094 BGXN3 46/// /2309 11016 1114 40290 90845;
0062997993999992012010310004+43050-070833FM-18+0003BGXN3V0202201N004119999999N9999999N1-00221+99999999999REMSYN053CMAN  03104 BGXN3 46/// /2208 11022 1113 40290 90945;
0062997993999992012010311004+43050-070833FM-18+0003BGXN3V0202501N002119999999N9999999N1-00281+99999999999REMSYN053CMAN  03114 BGXN3 46/// /2504 11028 1128 40300 91045;
0062997993999992012010312004+43050-070833FM-18+0003BGXN3V0202401N002619999999N9999999N1-00341+99999999999REMSYN053CMAN  03124 BGXN3 46/// /2405 11034 1103 40310 91145;
0085997993999992012010313004+43050-070833FM-18+0003BGXN3V0202401N004619999999N9999999N1-00391+99999999999REMSYN076CMAN  03134 BGXN3 46/// /2409 11039 40175 53032 91300 222// 001092322 92428;
0062997993999992012010314004+43050-070833FM-18+0003BGXN3V0202501N003119999999N9999999N1-00371+99999999999REMSYN053CMAN  03144 BGXN3 46/// /2506 11037 1123 40320 91345;
0062997993999992012010315004+43050-070833FM-18+0003BGXN3V0202501N003119999999N9999999N1-00381+99999999999REMSYN053CMAN  03154 BGXN3 46/// /2506 11038 1129 40330 91445;
0056997993999992012010316004+43050-070833FM-18+0003BGXN3V0202501N003619999999N9999999N1-00371+99999101001REMSYN047CMAN 03164 BGXN3 46/// /2507 11037 40100 91545;
0074997993999992012010317004+43050-070833FM-18+0003BGXN3V0202401N005119999999N9999999N1-00391+99999999999REMSYN065CMAN  03174 BGXN3 46/// /2410 11039 40173 58011 91700 222// 0009;
0062997993999992012010318004+43050-070833FM-18+0003BGXN3V0202501N004119999999N9999999N1-00401+99999999999REMSYN053CMAN  03184 BGXN3 46/// /2508 11040 1118 40310 91745;
0062997993999992012010319004+43050-070833FM-18+0003BGXN3V0202601N003119999999N9999999N1-00451+99999999999REMSYN053CMAN  03194 BGXN3 46/// /2606 11045 1115 40290 91845;
0062997993999992012010320004+43050-070833FM-18+0003BGXN3V0202401N003619999999N9999999N1-00481-01421101101REMSYN053CMAN 03204 BGXN3 46/// /2407 11048 21142 40110 91945;
0062997993999992012010321004+43050-070833FM-18+0003BGXN3V0202401N003119999999N9999999N1-00551-01411999999REMSYN053CMAN  03214 BGXN3 46/// /2406 11055 21141 0290 92045;
0000997993999992012010322004+43050-070833FM-18+0003BGXN3V0202501N003119999999N9999999N1-00701-01621999999
0084997993999992012010323004+43050-070833FM-18+0003BGXN3V0202601N003619999999N9999999N1-00781-01601999999REMSYN075CMAN  03234 BGXN3 46/// /2607 11078 21160 56012 92300 222// 0011 333 91211;
0062997993999992012010400004+43050-070833FM-18+0003BGXN3V0202601N003119999999N9999999N1-00881-01771999999REMSYN053CMAN  04004 BGXN3 46/// /2606 11088 21177 0300 92345;
0062997993999992012010401004+43050-070833FM-18+0003BGXN3V0202601N003119999999N9999999N1-01001-01951999999REMSYN053CMAN  04014 BGXN3 46/// /2606 11100 21195 0300 90045;
0062997993999992012010402004+43050-070833FM-18+0003BGXN3V0202601N003119999999N9999999N1-01051-01791999999REMSYN053CMAN  04024 BGXN3 46/// /2606 11105 21179 0310 90145;
0062997993999992012010403004+43050-070833FM-18+0003BGXN3V0202501N003119999999N9999999N1-01121-01771999999REMSYN053CMAN  04034 BGXN3 46/// /2506 11112 21177 0310 90245;
0062997993999992012010404004+43050-070833FM-18+0003BGXN3V0202601N003119999999N9999999N1-01201-01811999999REMSYN053CMAN  04044 BGXN3 46/// /2606 11120 21181 0310 90345;
0062997993999992012010405004+43050-070833FM-18+0003BGXN3V0202501N003119999999N9999999N1-01211-01721999999REMSYN053CMAN  04054 BGXN3 46/// /2506 11121 21172 0310 90445;
0062997993999992012010406004+43050-070833FM-18+0003BGXN3V0202501N002619999999N9999999N1-01261-01821999999REMSYN053CMAN  04064 BGXN3 46/// /2505 11126 21182 0310 90545;
0084997993999992012010407004+43050-070833FM-18+0003BGXN3V0202501N002119999999N9999999N1-01291-01831999999REMSYN075CMAN  04074 BGXN3 46/// /2504 11129 21183 53012 90700 222// 0019 333 91203;
0062997993999992012010408004+43050-070833FM-18+0003BGXN3V0202401N003119999999N9999999N1-01311-01821999999REMSYN053CMAN  04084 BGXN3 46/// /2406 11131 21182 0310 90745;
0084997993999992012010409004+43050-070833FM-18+0003BGXN3V0202501N003119999999N9999999N1-01321-01831999999REMSYN075CMAN  04094 BGXN3 46/// /2506 11132 21183 52016 90900 222// 0019 333 91205;
0084997993999992012010410004+43050-070833FM-18+0003BGXN3V0202401N003619999999N9999999N1-01331-01821999999REMSYN075CMAN  04104 BGXN3 46/// /2407 11133 21182 6010 91000 222// 00088 333 91206;
0062997993999992012010411004+43050-070833FM-18+0003BGXN3V0202401N002619999999N9999999N1-01361-01831999999REMSYN053CMAN  04114 BGXN3 46/// /2405 11136 21183 0310 91045;
0062997993999992012010412004+43050-070833FM-18+0003BGXN3V0202401N003119999999N9999999N1-01371-01801999999REMSYN053CMAN  04124 BGXN3 46/// /2406 11137 21180 0310 91145;
0062997993999992012010413004+43050-070833FM-18+0003BGXN3V0202401N004119999999N9999999N1-01371-01801999999REMSYN053CMAN  04134 BGXN3 46/// /2408 11137 21180 0310 91245;
0062997993999992012010414004+43050-070833FM-18+0003BGXN3V0202401N003619999999N9999999N1-01221-01771999999REMSYN053CMAN  04144 BGXN3 46/// /2407 11122 21177 0320 91345;
0062997993999992012010415004+43050-070833FM-18+0003BGXN3V0202401N004119999999N9999999N1-01061-01771999999REMSYN053CMAN  04154 BGXN3 46/// /2408 11106 21177 0330 91445;
0062997993999992012010416004+43050-070833FM-18+0003BGXN3V0202301N004619999999N9999999N1-00871-01731999999REMSYN053CMAN  04164 BGXN3 46/// /2309 11087 21173 0330 91545;
0084997993999992012010417004+43050-070833FM-18+0003BGXN3V0202401N003619999999N9999999N1-00681-01741999999REMSYN075CMAN  04174 BGXN3 46/// /2407 11068 21174 57004 91700 222// 0018 333 91213;
0062997993999992012010418004+43050-070833FM-18+0003BGXN3V0202301N004619999999N9999999N1-00541-01791999999REMSYN053CMAN  04184 BGXN3 46/// /2309 11054 21179 0300 91745;
0062997993999992012010419004+43050-070833FM-18+0003BGXN3V0202301N004619999999N9999999N1-00481-01801999999REMSYN053CMAN  04194 BGXN3 46/// /2309 11048 21180 0290 91845;
0062997993999992012010420004+43050-070833FM-18+0003BGXN3V0202101N004119999999N9999999N1-00451-01851999999REMSYN053CMAN  04204 BGXN3 46/// /2108 11045 21185 0280 91945;
0062997993999992012010421004+43050-070833FM-18+0003BGXN3V0202301N003119999999N9999999N1-00511-01761999999REMSYN053CMAN  04214 BGXN3 46/// /2306 11051 21176 0280 92045;
0062997993999992012010422004+43050-070833FM-18+0003BGXN3V0202201N001019999999N9999999N1-00611-01731999999REMSYN053CMAN  04224 BGXN3 46/// /2202 11061 21173 0280 92145;
0090997993999992012010423004+43050-070833FM-18+0003BGXN3V0202101N001519999999N9999999N1-00611-01461999999REMSYN081CMAN  04234 BGXN3 46/// /2103 11061 21146 53020 92300 222// 0018 80001 333 70000;
0062997993999992012010500004+43050-070833FM-18+0003BGXN3V0201801N001019999999N9999999N1-00531-01601999999REMSYN053CMAN  05004 BGXN3 46/// /1802 11053 21160 0280 92345;
0062997993999992012010501004+43050-070833FM-18+0003BGXN3V0209999C000019999999N9999999N1-00551-01431999999REMSYN053CMAN  05014 BGXN3 46/// /0000 11055 21143 0280 90045;
0062997993999992012010502004+43050-070833FM-18+0003BGXN3V0201701N000519999999N9999999N1-00511-01501999999REMSYN053CMAN  05024 BGXN3 46/// /1701 11051 21150 0280 90145;
0074997993999992012010503004+43050-070833FM-18+0003BGXN3V0201901N001519999999N9999999N1-00461-01481999999REMSYN065CMAN  05034 BGXN3 46/// /1903 11046 21148 57003 90300 222// 0008;
0062997993999992012010504004+43050-070833FM-18+0003BGXN3V0201901N002119999999N9999999N1-00431-01451999999REMSYN053CMAN  05044 BGXN3 46/// /1904 11043 21145 0270 90345;
0062997993999992012010505004+43050-070833FM-18+0003BGXN3V0202201N003119999999N9999999N1-00431-01401999999REMSYN053CMAN  05054 BGXN3 46/// /2206 11043 21140 0270 90445;
0062997993999992012010506004+43050-070833FM-18+0003BGXN3V0202001N001519999999N9999999N1-00431-01371999999REMSYN053CMAN  05064 BGXN3 46/// /2003 11043 21137 0270 90545;
0062997993999992012010507004+43050-070833FM-18+0003BGXN3V0201901N001519999999N9999999N1-00431-01371999999REMSYN053CMAN  05074 BGXN3 46/// /1903 11043 21137 0260 90645;
0062997993999992012010508004+43050-070833FM-18+0003BGXN3V0201801N001519999999N9999999N1-00441-01381999999REMSYN053CMAN  05084 BGXN3 46/// /1803 11044 21138 0260 90745;
0062997993999992012010509004+43050-070833FM-18+0003BGXN3V0202001N002119999999N9999999N1-00431-01351999999REMSYN053CMAN  05094 BGXN3 46/// /2004 11043 21135 0260 90845;
0062997993999992012010510004+43050-070833FM-18+0003BGXN3V0201901N001019999999N9999999N1-00441-01311999999REMSYN053CMAN  05104 BGXN3 46/// /1902 11044 21131 0250 90945;
0062997993999992012010511004+43050-070833FM-18+0003BGXN3V0201901N001519999999N9999999N1-00471-01291999999REMSYN053CMAN  05114 BGXN3 46/// /1903 11047 21129 0250 91045;
0062997993999992012010512004+43050-070833FM-18+0003BGXN3V0202101N001519999999N9999999N1-00471-01221999999REMSYN053CMAN  05124 BGXN3 46/// /2103 11047 21122 0250 91145;
0062997993999992012010513004+43050-070833FM-18+0003BGXN3V0201801N001519999999N9999999N1-00451-01201999999REMSYN053CMAN  05134 BGXN3 46/// /1803 11045 21120 0250 91245;
0062997993999992012010514004+43050-070833FM-18+0003BGXN3V0202001N001519999999N9999999N1-00361-01091999999REMSYN053CMAN  05144 BGXN3 46/// /2003 11036 21109 0260 91345;
0062997993999992012010515004+43050-070833FM-18+0003BGXN3V0202101N002119999999N9999999N1-00241-01001999999REMSYN053CMAN  05154 BGXN3 46/// /2104 11024 21100 0260 91445;
0062997993999992012010516004+43050-070833FM-18+0003BGXN3V0201901N002119999999N9999999N1-00081-00921999999REMSYN053CMAN  05164 BGXN3 46/// /1904 11008 21092 0260 91545;
0062997993999992012010517004+43050-070833FM-18+0003BGXN3V0202201N003119999999N9999999N1-00031-00761999999REMSYN053CMAN  05174 BGXN3 46/// /2206 11003 21076 0260 91645;
0062997993999992012010518004+43050-070833FM-18+0003BGXN3V0202301N003619999999N9999999N1+00111-00621999999REMSYN053CMAN  05184 BGXN3 46/// /2307 10011 21062 0250 91745;
0062997993999992012010519004+43050-070833FM-18+0003BGXN3V0202201N004619999999N9999999N1+00101-00661999999REMSYN053CMAN  05194 BGXN3 46/// /2209 10010 21066 0240 91845;
0062997993999992012010520004+43050-070833FM-18+0003BGXN3V0202301N005119999999N9999999N1+00231-00561999999REMSYN053CMAN  05204 BGXN3 46/// /2310 10023 21056 0230 91945;
0062997993999992012010521004+43050-070833FM-18+0003BGXN3V0202201N004619999999N9999999N1+00151-00631999999REMSYN053CMAN  05214 BGXN3 46/// /2209 10015 21063 0220 92045;
0062997993999992012010522004+43050-070833FM-18+0003BGXN3V0202301N004119999999N9999999N1+00061-00521999999REMSYN053CMAN  05224 BGXN3 46/// /2308 10006 21052 0220 92145;
0062997993999992012010523004+43050-070833FM-18+0003BGXN3V0202401N001519999999N9999999N1-00041-00451999999REMSYN053CMAN  05234 BGXN3 46/// /2403 11004 21045 0220 92245;
0062997993999992012010600004+43050-070833FM-18+0003BGXN3V0202601N002619999999N9999999N1-00051-00731999999REMSYN053CMAN  06004 BGXN3 46/// /2605 11005 21073 0230 92345;
0062997993999992012010601004+43050-070833FM-18+0003BGXN3V0202501N002619999999N9999999N1-00191-01051999999REMSYN053CMAN  06014 BGXN3 46/// /2505 11019 21105 0230 90045;
0062997993999992012010602004+43050-070833FM-18+0003BGXN3V0202601N001519999999N9999999N1-00271-01101999999REMSYN053CMAN  06024 BGXN3 46/// /2603 11027 21110 0230 90145;
0062997993999992012010603004+43050-070833FM-18+0003BGXN3V0202501N002119999999N9999999N1-00301-01101999999REMSYN053CMAN  06034 BGXN3 46/// /2504 11030 21110 0230 90245;
0062997993999992012010604004+43050-070833FM-18+0003BGXN3V0202501N002119999999N9999999N1-00351-01061999999REMSYN053CMAN  06044 BGXN3 46/// /2504 11035 21106 0230 90345;
0062997993999992012010605004+43050-070833FM-18+0003BGXN3V0202401N002619999999N9999999N1-00401-01061999999REMSYN053CMAN  06054 BGXN3 46/// /2405 11040 21106 0230 90445;
0062997993999992012010606004+43050-070833FM-18+0003BGXN3V0202201N002619999999N9999999N1-00431-01071999999REMSYN053CMAN  06064 BGXN3 46/// /2205 11043 21107 0220 90545;
0084997993999992012010607004+43050-070833FM-18+0003BGXN3V0202301N002619999999N9999999N1-00411-01031999999REMSYN075CMAN  06074 BGXN3 46/// /2305 11041 21103 58004 90700 222// 0003 333 91206;
0062997993999992012010608004+43050-070833FM-18+0003BGXN3V0202101N002119999999N9999999N1-00391-01051999999REMSYN053CMAN  06084 BGXN3 46/// /2104 11039 21105 0220 90745;
0062997993999992012010609004+43050-070833FM-18+0003BGXN3V0202001N001019999999N9999999N1-00391-00991999999REMSYN053CMAN  06094 BGXN3 46/// /2002 11039 21099 0220 90845;
0062997993999992012010610004+43050-070833FM-18+0003BGXN3V0202001N001519999999N9999999N1-00381-00981999999REMSYN053CMAN  06104 BGXN3 46/// /2003 11038 21098 0220 90945;
0062997993999992012010611004+43050-070833FM-18+0003BGXN3V0209999C000019999999N9999999N1-00381-00921999999REMSYN053CMAN  06114 BGXN3 46/// /0000 11038 21092 0220 91045;
0062997993999992012010612004+43050-070833FM-18+0003BGXN3V0209999C000019999999N9999999N1-00381-00851999999REMSYN053CMAN  06124 BGXN3 46/// /0000 11038 21085 0220 91145;
0062997993999992012010613004+43050-070833FM-18+0003BGXN3V0200801N000519999999N9999999N1-00411-00741999999REMSYN053CMAN  06134 BGXN3 46/// /0801 11041 21074 0230 91245;
0062997993999992012010614004+43050-070833FM-18+0003BGXN3V0203601N000519999999N9999999N1-00341-00671999999REMSYN053CMAN  06144 BGXN3 46/// /3601 11034 21067 0230 91345;
0062997993999992012010615004+43050-070833FM-18+0003BGXN3V0209999C000019999999N9999999N1-00211-00541999999REMSYN053CMAN  06154 BGXN3 46/// /0000 11021 21054 0240 91445;
0062997993999992012010616004+43050-070833FM-18+0003BGXN3V0209999C000019999999N9999999N1-00161-00431999999REMSYN053CMAN  06164 BGXN3 46/// /0000 11016 21043 0240 91545;
0062997993999992012010617004+43050-070833FM-18+0003BGXN3V0202401N001019999999N9999999N1-00061-00381999999REMSYN053CMAN  06174 BGXN3 46/// /2402 11006 21038 0240 91645;
0062997993999992012010618004+43050-070833FM-18+0003BGXN3V0202201N001019999999N9999999N1+00171-00341999999REMSYN053CMAN  06184 BGXN3 46/// /2202 10017 21034 0230 91745;
0068997993999992012010619004+43050-070833FM-18+0003BGXN3V0202301N001519999999N9999999N1+00231-00281999999REMSYN059CMAN  06194 BGXN3 46/// /2303 10023 21028 0050 56040 91900;
0068997993999992012010620004+43050-070833FM-18+0003BGXN3V0202401N001019999999N9999999N1+00431-00271999999REMSYN059CMAN  06204 BGXN3 46/// /2402 10043 21027 0040 57030 92000;
0062997993999992012010621004+43050-070833FM-18+0003BGXN3V0203101N001019999999N9999999N1+00351-00261999999REMSYN053CMAN  06214 BGXN3 46/// /3102 10035 21026 0210 92045;
0062997993999992012010622004+43050-070833FM-18+0003BGXN3V0202901N000519999999N9999999N1-00021-00291999999REMSYN053CMAN  06224 BGXN3 46/// /2901 11002 21029 0210 92145;
0062997993999992012010623004+43050-070833FM-18+0003BGXN3V0209999C000019999999N9999999N1-00091-00291999999REMSYN053CMAN  06234 BGXN3 46/// /0000 11009 21029 0210 92245;
0068997993999992012010700004+43050-070833FM-18+0003BGXN3V0202801N000519999999N9999999N1-00121-00291999999REMSYN059CMAN  07004 BGXN3 46/// /2801 11012 21029 0060 53010 90000;
0062997993999992012010701004+43050-070833FM-18+0003BGXN3V0203101N001019999999N9999999N1-00091-00341999999REMSYN053CMAN  07014 BGXN3 46/// /3102 11009 21034 0210 90045;
0062997993999992012010702004+43050-070833FM-18+0003BGXN3V0202801N000519999999N9999999N1-00111-00361999999REMSYN053CMAN  07024 BGXN3 46/// /2801 11011 21036 0210 90145;
0062997993999992012010703004+43050-070833FM-18+0003BGXN3V0209999C000019999999N9999999N1-00171-00371999999REMSYN053CMAN  07034 BGXN3 46/// /0000 11017 21037 0210 90245;
0062997993999992012010704004+43050-070833FM-18+0003BGXN3V0209999C000019999999N9999999N1-00281-00411999999REMSYN053CMAN  07044 BGXN3 46/// /0000 11028 21041 0210 90345;
0062997993999992012010705004+43050-070833FM-18+0003BGXN3V0209999C000019999999N9999999N1-00291-00391100801REMSYN053CMAN 07054 BGXN3 46/// /0000 11029 21039 40080 90445;
0062997993999992012010706004+43050-070833FM-18+0003BGXN3V0209999C000019999999N9999999N1-00301-00381999999REMSYN053CMAN  07064 BGXN3 46/// /0000 11030 21038 0200 90545;
0062997993999992012010707004+43050-070833FM-18+0003BGXN3V0209999C000019999999N9999999N1-00361-00431999999REMSYN053CMAN  07074 BGXN3 46/// /0000 11036 21043 0200 90645;
0062997993999992012010708004+43050-070833FM-18+0003BGXN3V0209999C000019999999N9999999N1-00271-00351999999REMSYN053CMAN  07084 BGXN3 46/// /0000 11027 21035 0200 90745;
0062997993999992012010709004+43050-070833FM-18+0003BGXN3V0209999C000019999999N9999999N1-00321-00391999999REMSYN053CMAN  07094 BGXN3 46/// /0000 11032 21039 0200 90845;
0062997993999992012010710004+43050-070833FM-18+0003BGXN3V0209999C000019999999N9999999N1-00241-00311999999REMSYN053CMAN  07104 BGXN3 46/// /0000 11024 21031 0200 90945;
0062997993999992012010711004+43050-070833FM-18+0003BGXN3V0209999C000019999999N9999999N1-00301-00381999999REMSYN053CMAN  07114 BGXN3 46/// /0000 11030 21038 0200 91045;
0062997993999992012010712004+43050-070833FM-18+0003BGXN3V0200201N000519999999N9999999N1-00471-00521999999REMSYN053CMAN  07124 BGXN3 46/// /0201 11047 21052 0210 91145;
0000997993999992012010713004+43050-070833FM-18+0003BGXN3V0202701N000519999999N9999999N1-00441-00471999999
0062997993999992012010714004+43050-070833FM-18+0003BGXN3V0202201N000519999999N9999999N1-00071-00291999999REMSYN053CMAN  07144 BGXN3 46/// /2201 11007 21029 0220 91345;
0056997993999992012010715004+43050-070833FM-18+0003BGXN3V0202201N001519999999N9999999N1+00011-00311999999REMSYN047CMAN  07154 BGXN3 46/// /2203 10001 21031 1445;
0062997993999992012010716004+43050-070833FM-18+0003BGXN3V0201901N001019999999N9999999N1+00171-00221999999REMSYN053CMAN  07164 BGXN3 46/// /1902 10017 21022 0230 91545;
0062997993999992012010717004+43050-070833FM-18+0003BGXN3V0202301N001019999999N9999999N1+00361-00131999999REMSYN053CMAN  07174 BGXN3 46/// /2302 10036 21013 0230 91645;
0074997993999992012010718004+43050-070833FM-18+0003BGXN3V0202201N001519999999N9999999N1+00411-00031999999REMSYN065CMAN  07184 BGXN3 46/// /2203 10041 21003 52003 91800 222// 0003;
0062997993999992012010719004+43050-070833FM-18+0003BGXN3V0202301N001019999999N9999999N1+00611-00021999999REMSYN053CMAN  07194 BGXN3 46/// /2302 10061 21002 0200 91845;
0062997993999992012010720004+43050-070833FM-18+0003BGXN3V0200501N001019999999N9999999N1+00741+00251999999REMSYN053CMAN  07204 BGXN3 46/// /0502 10074 20025 0200 91945;
0062997993999992012010721004+43050-070833FM-18+0003BGXN3V0209999C000019999999N9999999N1+00581+00231999999REMSYN053CMAN  07214 BGXN3 46/// /0000 10058 20023 0210 92045;
0062997993999992012010722004+43050-070833FM-18+0003BGXN3V0209999C000019999999N9999999N1+00381+00121999999REMSYN053CMAN  07224 BGXN3 46/// /0000 10038 20012 0210 92145;
0062997993999992012010723004+43050-070833FM-18+0003BGXN3V0209999C000019999999N9999999N1+00171-00011999999REMSYN053CMAN  07234 BGXN3 46/// /0000 10017 21001 0210 92245;
0062997993999992012010800004+43050-070833FM-18+0003BGXN3V0209999C000019999999N9999999N1+00001-00071999999REMSYN053CMAN  08004 BGXN3 46/// /0000 10000 21007 0210 92345;
0062997993999992012010801004+43050-070833FM-18+0003BGXN3V0209999C000019999999N9999999N1-00101-00141999999REMSYN053CMAN  08014 BGXN3 46/// /0000 11010 21014 0210 90045;
0000997993999992012010802004+43050-070833FM-18+0003BGXN3V0209999C000019999999N9999999N1-00161-00201999999
0062997993999992012010803004+43050-070833FM-18+0003BGXN3V0209999C000019999999N9999999N1-00161-00191999999REMSYN053CMAN  08034 BGXN3 46/// /0000 11016 21019 0220 90245;
0062997993999992012010804004+43050-070833FM-18+0003BGXN3V0202201N003119999999N9999999N1+00091-00021999999REMSYN053CMAN  08044 BGXN3 46/// /2206 10009 21002 0220 90345;
0114997993999992012010805004+43050-070833FM-18+0003BGXN3V0203001N000519999999N9999999N1+00121-00191999999REMSYN105CMAN  08054 BGXN3 46/// /3001 10012 21019 56009 90500 222// 0019 333 55300 20000 30000 87640 91114 91211;
0062997993999992012010806004+43050-070833FM-18+0003BGXN3V0202201N000519999999N9999999N1-00071-00211999999REMSYN053CMAN  08064 BGXN3 46/// /2201 11007 21021 0220 90545;
0062997993999992012010807004+43050-070833FM-18+0003BGXN3V0200701N001019999999N9999999N1-00071-00291999999REMSYN053CMAN  08074 BGXN3 46/// /0702 11007 21029 0220 90645;
0062997993999992012010808004+43050-070833FM-18+0003BGXN3V0203501N000519999999N9999999N1-00051-00301999999REMSYN053CMAN  08084 BGXN3 46/// /3501 11005 21030 0220 90745;
0062997993999992012010809004+43050-070833FM-18+0003BGXN3V0203501N000519999999N9999999N1-00271-00401999999REMSYN053CMAN  08094 BGXN3 46/// /3501 11027 21040 0220 90845;
0062997993999992012010810004+43050-070833FM-18+0003BGXN3V0209999C000019999999N9999999N1-00221-00361999999REMSYN053CMAN  08104 BGXN3 46/// /0000 11022 21036 0210 90945;
0062997993999992012010811004+43050-070833FM-18+0003BGXN3V0209999C000019999999N9999999N1-00231-00311999999REMSYN053CMAN  08114 BGXN3 46/// /0000 11023 21031 0220 91045;
0062997993999992012010812004+43050-070833FM-18+0003BGXN3V0209999C000019999999N9999999N1-00311-00381999999REMSYN053CMAN  08124 BGXN3 46/// /0000 11031 21038 0220 91145;
0109997993999992012010813004+43050-070833FM-18+0003BGXN3V0203501N000519999999N9999999N1-00371-00451999999REMSYN100CMAN  08134 BGXN3 46/// /3501 11037 21045 51020 91300 222// 0025700// 91310 22200 00047 10907 70037;
0062997993999992012010814004+43050-070833FM-18+0003BGXN3V0202201N001519999999N9999999N1+00191-00221999999REMSYN053CMAN  08144 BGXN3 46/// /2203 10019 21022 0230 91345;
0062997993999992012010815004+43050-070833FM-18+0003BGXN3V0202201N001519999999N9999999N1+00401-00301999999REMSYN053CMAN  08154 BGXN3 46/// /2203 10040 21030 0240 91445;
0062997993999992012010816004+43050-070833FM-18+0003BGXN3V0202301N004619999999N9999999N1+00411-00271999999REMSYN053CMAN  08164 BGXN3 46/// /2309 10041 21027 0250 91545;
0062997993999992012010817004+43050-070833FM-18+0003BGXN3V0202401N003119999999N9999999N1+00421-00351999999REMSYN053CMAN  08174 BGXN3 46/// /2406 10042 21035 0240 91645;
0062997993999992012010818004+43050-070833FM-18+0003BGXN3V0202601N002119999999N9999999N1+00511-00371999999REMSYN053CMAN  08184 BGXN3 46/// /2604 10051 21037 0230 91745;
0062997993999992012010819004+43050-070833FM-18+0003BGXN3V0202501N002619999999N9999999N1+00411-00431999999REMSYN053CMAN  08194 BGXN3 46/// /2505 10041 21043 0230 91845;
0062997993999992012010820004+43050-070833FM-18+0003BGXN3V0202501N002119999999N9999999N1+00341-00481999999REMSYN053CMAN  08204 BGXN3 46/// /2504 10034 21048 0220 91945;
0062997993999992012010821004+43050-070833FM-18+0003BGXN3V0202601N001519999999N9999999N1+00281-00531999999REMSYN053CMAN  08214 BGXN3 46/// /2603 10028 21053 0220 92045;
0062997993999992012010822004+43050-070833FM-18+0003BGXN3V0202701N001519999999N9999999N1+00191-00591999999REMSYN053CMAN  08224 BGXN3 46/// /2703 10019 21059 0230 92145;
0079997993999992012010823004+43050-070833FM-18+0003BGXN3V0203101N001019999999N9999999N1+00131-00601999999REMSYN070CMAN  08234 BGXN3 46/// /3102 10013 21060 53007 92300 222// 001920000;
0062997993999992012010900004+43050-070833FM-18+0003BGXN3V0202801N001019999999N9999999N1+00071-00681999999REMSYN053CMAN  09004 BGXN3 46/// /2802 10007 21068 0230 92345;
0062997993999992012010901004+43050-070833FM-18+0003BGXN3V0202501N002619999999N9999999N1+00011-00631999999REMSYN053CMAN  09014 BGXN3 46/// /2505 10001 21063 0230 90045;
0062997993999992012010902004+43050-070833FM-18+0003BGXN3V0202501N002619999999N9999999N1-00111-00791999999REMSYN053CMAN  09024 BGXN3 46/// /2505 11011 21079 0230 90145;
0062997993999992012010903004+43050-070833FM-18+0003BGXN3V0202501N002619999999N9999999N1-00191-00781999999REMSYN053CMAN  09034 BGXN3 46/// /2505 11019 21078 0230 90245;
0062997993999992012010904004+43050-070833FM-18+0003BGXN3V0202601N002619999999N9999999N1-00241-00951999999REMSYN053CMAN  09044 BGXN3 46/// /2605 11024 21095 0230 90345;
0062997993999992012010905004+43050-070833FM-18+0003BGXN3V0202701N001519999999N9999999N1-00321-00971999999REMSYN053CMAN  09054 BGXN3 46/// /2703 11032 21097 0230 90445;
0062997993999992012010906004+43050-070833FM-18+0003BGXN3V0202501N001519999999N9999999N1-00371-00951999999REMSYN053CMAN  09064 BGXN3 46/// /2503 11037 21095 0220 90545;
0085997993999992012010907004+43050-070833FM-18+0003BGXN3V0202501N001519999999N9999999N1-00431-00901999999REMSYN076CMAN  09074 BGXN3 46/// /2503 11043 21090 57006 90700 222// 001922241 00032;
0062997993999992012010908004+43050-070833FM-18+0003BGXN3V0202501N001519999999N9999999N1-00471-00951999999REMSYN053CMAN  09084 BGXN3 46/// /2503 11047 21095 0220 90745;
0068997993999992012010909004+43050-070833FM-18+0003BGXN3V0202501N001019999999N9999999N1-00511-00991999999REMSYN059CMAN  09094 BGXN3 46/// /2502 11051 21099 0260 58010 90900;
0062997993999992012010910004+43050-070833FM-18+0003BGXN3V0202301N002119999999N9999999N1-00511-01011999999REMSYN053CMAN  09104 BGXN3 46/// /2304 11051 21101 0220 90945;
0062997993999992012010911004+43050-070833FM-18+0003BGXN3V0202301N002119999999N9999999N1-00531-01031999999REMSYN053CMAN  09114 BGXN3 46/// /2304 11053 21103 0220 91045;
0062997993999992012010912004+43050-070833FM-18+0003BGXN3V0202001N001019999999N9999999N1-00531-00991999999REMSYN053CMAN  09124 BGXN3 46/// /2002 11053 21099 0220 91145;
0062997993999992012010913004+43050-070833FM-18+0003BGXN3V0201901N001519999999N9999999N1-00511-01031999999REMSYN053CMAN  09134 BGXN3 46/// /1903 11051 21103 0230 91245;
0062997993999992012010914004+43050-070833FM-18+0003BGXN3V0202101N002119999999N9999999N1-00341-01011999999REMSYN053CMAN  09144 BGXN3 46/// /2104 11034 21101 0230 91345;
0062997993999992012010915004+43050-070833FM-18+0003BGXN3V0202301N001519999999N9999999N1-00301-01011999999REMSYN053CMAN  09154 BGXN3 46/// /2303 11030 21101 0240 91445;
0062997993999992012010916004+43050-070833FM-18+0003BGXN3V0202201N001519999999N9999999N1-00231-00991999999REMSYN053CMAN  09164 BGXN3 46/// /2203 11023 21099 0230 91545;
0062997993999992012010917004+43050-070833FM-18+0003BGXN3V0202101N001019999999N9999999N1-00031-00971999999REMSYN053CMAN  09174 BGXN3 46/// /2102 11003 21097 0230 91645;
0062997993999992012010918004+43050-070833FM-18+0003BGXN3V0202101N001519999999N9999999N1+00051-01011999999REMSYN053CMAN  09184 BGXN3 46/// /2103 10005 21101 0220 91745;
0062997993999992012010919004+43050-070833FM-18+0003BGXN3V0201701N001019999999N9999999N1+00171-01081999999REMSYN053CMAN  09194 BGXN3 46/// /1702 10017 21108 0210 91845;
0062997993999992012010920004+43050-070833FM-18+0003BGXN3V0201701N002119999999N9999999N1+00351-01171999999REMSYN053CMAN  09204 BGXN3 46/// /1704 10035 21117 0210 91945;
0062997993999992012010921004+43050-070833FM-18+0003BGXN3V0201801N002119999999N9999999N1+00251-01181999999REMSYN053CMAN  09214 BGXN3 46/// /1804 10025 21118 0210 92045;
0062997993999992012010922004+43050-070833FM-18+0003BGXN3V0201501N000519999999N9999999N1-00141-01021999999REMSYN053CMAN  09224 BGXN3 46/// /1501 11014 21102 0210 92145;
0062997993999992012010923004+43050-070833FM-18+0003BGXN3V0200601N000519999999N9999999N1-00351-00881999999REMSYN053CMAN  09234 BGXN3 46/// /0601 11035 21088 0200 92245;
0062997993999992012011000004+43050-070833FM-18+0003BGXN3V0200801N000519999999N9999999N1-00351-00861999999REMSYN053CMAN  10004 BGXN3 46/// /0801 11035 21086 0200 92345;
0062997993999992012011001004+43050-070833FM-18+0003BGXN3V0200401N000519999999N9999999N1-00441-00771999999REMSYN053CMAN  10014 BGXN3 46/// /0401 11044 21077 0200 90045;
0062997993999992012011002004+43050-070833FM-18+0003BGXN3V0201601N001019999999N9999999N1-00111-00881999999REMSYN053CMAN  10024 BGXN3 46/// /1602 11011 21088 0200 90145;
0062997993999992012011003004+43050-070833FM-18+0003BGXN3V0201701N001519999999N9999999N1-00101-00991999999REMSYN053CMAN  10034 BGXN3 46/// /1703 11010 21099 0200 90245;
0068997993999992012011004004+43050-070833FM-18+0003BGXN3V0201601N001519999999N9999999N1-00061-01001999999REMSYN059CMAN  10044 BGXN3 46/// /1603 11006 21100 0150 57030 90400;
0062997993999992012011005004+43050-070833FM-18+0003BGXN3V0201601N001519999999N9999999N1-00091-00981999999REMSYN053CMAN  10054 BGXN3 46/// /1603 11009 21098 0190 90445;
0062997993999992012011006004+43050-070833FM-18+0003BGXN3V0209999C000019999999N9999999N1-00171-00821999999REMSYN053CMAN  10064 BGXN3 46/// /0000 11017 21082 0190 90545;
0062997993999992012011007004+43050-070833FM-18+0003BGXN3V0201701N001019999999N9999999N1+00011-00811999999REMSYN053CMAN  10074 BGXN3 46/// /1702 10001 21081 0190 90645;
0062997993999992012011008004+43050-070833FM-18+0003BGXN3V0201701N001519999999N9999999N1+00051-00661999999REMSYN053CMAN  10084 BGXN3 46/// /1703 10005 21066 0180 90745;
0062997993999992012011009004+43050-070833FM-18+0003BGXN3V0201801N001519999999N9999999N1+00041-00541999999REMSYN053CMAN  10094 BGXN3 46/// /1803 10004 21054 0180 90845;
0062997993999992012011010004+43050-070833FM-18+0003BGXN3V0201501N002119999999N9999999N1+00021-00301999999REMSYN053CMAN  10104 BGXN3 46/// /1504 10002 21030 0180 90945;
0062997993999992012011011004+43050-070833FM-18+0003BGXN3V0201401N001519999999N9999999N1-00021-00311999999REMSYN053CMAN  10114 BGXN3 46/// /1403 11002 21031 0180 91045;
0062997993999992012011012004+43050-070833FM-18+0003BGXN3V0209999C000019999999N9999999N1-00201-00361999999REMSYN053CMAN  10124 BGXN3 46/// /0000 11020 21036 0180 91145;
0062997993999992012011013004+43050-070833FM-18+0003BGXN3V0209999C000019999999N9999999N1-00371-00441999999REMSYN053CMAN  10134 BGXN3 46/// /0000 11037 21044 0180 91245;
0062997993999992012011014004+43050-070833FM-18+0003BGXN3V0201801N000519999999N9999999N1-00011-00281999999REMSYN053CMAN  10144 BGXN3 46/// /1801 11001 21028 0180 91345;
0056997993999992012011015004+43050-070833FM-18+0003BGXN3V0201101N000519999999N9999999N1+00081-00331999999REMSYN047CMAN  10154 BGXN3 46/// /1101 10008 21033 1445;
0062997993999992012011016004+43050-070833FM-18+0003BGXN3V0201801N001019999999N9999999N1+00161-00351999999REMSYN053CMAN  10164 BGXN3 46/// /1802 10016 21035 0180 91545;
0062997993999992012011017004+43050-070833FM-18+0003BGXN3V0202101N002119999999N9999999N1+00301-00351999999REMSYN053CMAN  10174 BGXN3 46/// /2104 10030 21035 0170 91645;
0062997993999992012011018004+43050-070833FM-18+0003BGXN3V0202201N003619999999N9999999N1+00561-00341999999REMSYN053CMAN  10184 BGXN3 46/// /2207 10056 21034 0160 91745;
0062997993999992012011019004+43050-070833FM-18+0003BGXN3V0202301N003119999999N9999999N1+00591-00241999999REMSYN053CMAN  10194 BGXN3 46/// /2306 10059 21024 0150 91845;
0062997993999992012011020004+43050-070833FM-18+0003BGXN3V0202301N004119999999N9999999N1+00621-00161999999REMSYN053CMAN  10204 BGXN3 46/// /2308 10062 21016 0150 91945;
0062997993999992012011021004+43050-070833FM-18+0003BGXN3V0202401N003119999999N9999999N1+00381-00171999999REMSYN053CMAN  10214 BGXN3 46/// /2406 10038 21017 0150 92045;
0062997993999992012011022004+43050-070833FM-18+0003BGXN3V0202501N001519999999N9999999N1+00171-00191999999REMSYN053CMAN  10224 BGXN3 46/// /2503 10017 21019 0150 92145;
0000997993999992012011023004+43050-070833FM-18+0003BGXN3V0202401N002619999999N9999999N1+00281-00171999999
0062997993999992012011100004+43050-070833FM-18+0003BGXN3V0202401N001019999999N9999999N1+00171-00171999999REMSYN053CMAN  11004 BGXN3 46/// /2402 10017 21017 0150 92345;
0062997993999992012011101004+43050-070833FM-18+0003BGXN3V0202301N002119999999N9999999N1+00041-00251999999REMSYN053CMAN  11014 BGXN3 46/// /2304 10004 21025 0140 90045;
0062997993999992012011102004+43050-070833FM-18+0003BGXN3V0202301N003619999999N9999999N1+00151-00281999999REMSYN053CMAN  11024 BGXN3 46/// /2307 10015 21028 0130 90145;
0062997993999992012011103004+43050-070833FM-18+0003BGXN3V0202401N001519999999N9999999N1-00011-00251999999REMSYN053CMAN  11034 BGXN3 46/// /2403 11001 21025 0120 90245;
0062997993999992012011104004+43050-070833FM-18+0003BGXN3V0202401N003119999999N9999999N1+00101-00401999999REMSYN053CMAN  11044 BGXN3 46/// /2406 10010 21040 0110 90345;
0062997993999992012011105004+43050-070833FM-18+0003BGXN3V0202501N001519999999N9999999N1-00141-00471999999REMSYN053CMAN  11054 BGXN3 46/// /2503 11014 21047 0100 90445;
0062997993999992012011106004+43050-070833FM-18+0003BGXN3V0203001N001019999999N9999999N1-00131-00551999999REMSYN053CMAN  11064 BGXN3 46/// /3002 11013 21055 0100 90545;
0062997993999992012011107004+43050-070833FM-18+0003BGXN3V0202501N001019999999N9999999N1-00381-00611999999REMSYN053CMAN  11074 BGXN3 46/// /2502 11038 21061 0090 90645;
0062997993999992012011108004+43050-070833FM-18+0003BGXN3V0209999C000019999999N9999999N1-00451-00681999999REMSYN053CMAN  11084 BGXN3 46/// /0000 11045 21068 0090 90745;
0062997993999992012011109004+43050-070833FM-18+0003BGXN3V0202601N001019999999N9999999N1-00221-00711999999REMSYN053CMAN  11094 BGXN3 46/// /2602 11022 21071 0080 90845;
0074997993999992012011110004+43050-070833FM-18+0003BGXN3V0202401N001519999999N9999999N1-00291-00651999999REMSYN065CMAN  11104 BGXN3 46/// /2403 11029 21065 58013 91000 222// 0011;
0062997993999992012011111004+43050-070833FM-18+0003BGXN3V0202501N001519999999N9999999N1-00331-00641999999REMSYN053CMAN  11114 BGXN3 46/// /2503 11033 21064 0060 91045;
0062997993999992012011112004+43050-070833FM-18+0003BGXN3V0202501N001519999999N9999999N1-00341-00671999999REMSYN053CMAN  11124 BGXN3 46/// /2503 11034 21067 0080 91145;
0062997993999992012011113004+43050-070833FM-18+0003BGXN3V0200201N001019999999N9999999N1-00481-00771999999REMSYN053CMAN  11134 BGXN3 46/// /0202 11048 21077 0080 91245;
0062997993999992012011114004+43050-070833FM-18+0003BGXN3V0200201N001019999999N9999999N1-00141-00981999999REMSYN053CMAN  11144 BGXN3 46/// /0202 11014 21098 0090 91345;
0062997993999992012011115004+43050-070833FM-18+0003BGXN3V0202301N001519999999N9999999N1-00081-01051999999REMSYN053CMAN  11154 BGXN3 46/// /2303 11008 21105 0100 91445;
0056997993999992012011116004+43050-070833FM-18+0003BGXN3V0202301N001519999999N9999999N1-00031-00951999999REMSYN047CMAN  11164 BGXN3 46/// /2303 11003 21095 1545;
0062997993999992012011117004+43050-070833FM-18+0003BGXN3V0200301N001519999999N9999999N1+00171-00931999999REMSYN053CMAN  11174 BGXN3 46/// /0303 10017 21093 0090 91645;
0062997993999992012011118004+43050-070833FM-18+0003BGXN3V0200501N002119999999N9999999N1+00111-00841999999REMSYN053CMAN  11184 BGXN3 46/// /0504 10011 21084 0090 91745;
0062997993999992012011119004+43050-070833FM-18+0003BGXN3V0200701N002119999999N9999999N1+00131-00821999999REMSYN053CMAN  11194 BGXN3 46/// /0704 10013 21082 0080 91845;
0062997993999992012011120004+43050-070833FM-18+0003BGXN3V0200401N002619999999N9999999N1+00061-00741999999REMSYN053CMAN  11204 BGXN3 46/// /0405 10006 21074 0080 91945;
0062997993999992012011121004+43050-070833FM-18+0003BGXN3V0200501N002119999999N9999999N1+00001-00661999999REMSYN053CMAN  11214 BGXN3 46/// /0504 10000 21066 0080 92045;
0062997993999992012011122004+43050-070833FM-18+0003BGXN3V0200501N002119999999N9999999N1-00021-00581999999REMSYN053CMAN  11224 BGXN3 46/// /0504 11002 21058 0080 92145;
0000997993999992012011123004+43050-070833FM-18+0003BGXN3V0200401N001519999999N9999999N1+00001-00481999999
0056997993999992012011200004+43050-070833FM-18+0003BGXN3V0200401N002119999999N9999999N1+00051-00401999999REMSYN047CMAN  12004 BGXN3 46/// /0404 10005 21040 2345;
0056997993999992012011201004+43050-070833FM-18+0003BGXN3V0200501N002619999999N9999999N1+00071-00361999999REMSYN047CMAN  12014 BGXN3 46/// /0505 10007 21036 0045;
0056997993999992012011202004+43050-070833FM-18+0003BGXN3V0200501N002619999999N9999999N1+00081-00311999999REMSYN047CMAN  12024 BGXN3 46/// /0505 10008 21031 0145;
0056997993999992012011203004+43050-070833FM-18+0003BGXN3V0200501N002619999999N9999999N1+00111-00281999999REMSYN047CMAN  12034 BGXN3 46/// /0505 10011 21028 0245;
0078997993999992012011204004+43050-070833FM-18+0003BGXN3V0200501N002619999999N9999999N1+00151-00231999999REMSYN069CMAN  12044 BGXN3 46/// /0505 10015 21023 58006 90400 222// 00191624;
0062997993999992012011205004+43050-070833FM-18+0003BGXN3V0200501N002619999999N9999999N1+00191-00201999999REMSYN053CMAN  12054 BGXN3 46/// /0505 10019 21020 0100 90445;
0062997993999992012011206004+43050-070833FM-18+0003BGXN3V0200501N003119999999N9999999N1+00191-00151999999REMSYN053CMAN  12064 BGXN3 46/// /0506 10019 21015 0100 90545;
0062997993999992012011207004+43050-070833FM-18+0003BGXN3V0200401N003119999999N9999999N1+00221-00181999999REMSYN053CMAN  12074 BGXN3 46/// /0406 10022 21018 0100 90645;
0062997993999992012011208004+43050-070833FM-18+0003BGXN3V0200401N003619999999N9999999N1+00251-00201999999REMSYN053CMAN  12084 BGXN3 46/// /0407 10025 21020 0100 90745;
0062997993999992012011209004+43050-070833FM-18+0003BGXN3V0200401N003619999999N9999999N1+00241-00231999999REMSYN053CMAN  12094 BGXN3 46/// /0407 10024 21023 0100 90845;
0062997993999992012011210004+43050-070833FM-18+0003BGXN3V0200401N004119999999N9999999N1+00251-00241999999REMSYN053CMAN  12104 BGXN3 46/// /0408 10025 21024 0110 90945;
0062997993999992012011211004+43050-070833FM-18+0003BGXN3V0200301N004119999999N9999999N1+00171-00101999999REMSYN053CMAN  12114 BGXN3 46/// /0308 10017 21010 0110 91045;
0068997993999992012011213004+43050-070833FM-18+0003BGXN3V0200201N003619999999N9999999N1+00051+00011101401REMSYN059CMAN  12134 BGXN3 46/// /0207 10005 20001 40140 4000 91300;
0062997993999992012011214004+43050-070833FM-18+0003BGXN3V0200301N004119999999N9999999N1+00071+00031999999REMSYN053CMAN  12144 BGXN3 46/// /0308 10007 20003 0120 91345;
0084997993999992012011215004+43050-070833FM-18+0003BGXN3V0200201N004619999999N9999999N1+00091+00031999999REMSYN075CMAN  12154 BGXN3 46/// /0209 10009 20003 52004 91500 222// 0010 333 91224;
0062997993999992012011216004+43050-070833FM-18+0003BGXN3V0200101N004119999999N9999999N1+00101+00041999999REMSYN053CMAN  12164 BGXN3 46/// /0108 10010 20004 0120 91545;
0062997993999992012011217004+43050-070833FM-18+0003BGXN3V0200101N004119999999N9999999N1+00101+00041999999REMSYN053CMAN  12174 BGXN3 46/// /0108 10010 20004 0120 91645;
0062997993999992012011220004+43050-070833FM-18+0003BGXN3V0203401N002619999999N9999999N1-00051-00081999999REMSYN053CMAN  12204 BGXN3 46/// /3405 11005 21008 0100 92015;
0062997993999992012011221004+43050-070833FM-18+0003BGXN3V0203601N004619999999N9999999N1+00181+00171999999REMSYN053CMAN  12214 BGXN3 46/// /3609 10018 20017 0090 92045;
0062997993999992012011222004+43050-070833FM-18+0003BGXN3V0203101N003119999999N9999999N1+00091+00061999999REMSYN053CMAN  12224 BGXN3 46/// /3106 10009 20006 0100 92145;
0062997993999992012011223004+43050-070833FM-18+0003BGXN3V0203201N002619999999N9999999N1-00011-00041999999REMSYN053CMAN  12234 BGXN3 46/// /3205 11001 21004 0100 92245;
0062997993999992012011300004+43050-070833FM-18+0003BGXN3V0203001N002619999999N9999999N1-00081-00121999999REMSYN053CMAN  13004 BGXN3 46/// /3005 11008 21012 0110 92345;
0062997993999992012011301004+43050-070833FM-18+0003BGXN3V0203101N002619999999N9999999N1-00121-00191999999REMSYN053CMAN  13014 BGXN3 46/// /3105 11012 21019 0120 90045;
0062997993999992012011302004+43050-070833FM-18+0003BGXN3V0202901N002119999999N9999999N1-00111-00221999999REMSYN053CMAN  13024 BGXN3 46/// /2904 11011 21022 0140 90145;
0062997993999992012011303004+43050-070833FM-18+0003BGXN3V0202901N002119999999N9999999N1-00131-00261999999REMSYN053CMAN  13034 BGXN3 46/// /2904 11013 21026 0160 90245;
0062997993999992012011304004+43050-070833FM-18+0003BGXN3V0202801N001019999999N9999999N1-00141-00251999999REMSYN053CMAN  13044 BGXN3 46/// /2802 11014 21025 0170 90345;
0062997993999992012011305004+43050-070833FM-18+0003BGXN3V0202701N000519999999N9999999N1-00151-00261999999REMSYN053CMAN  13054 BGXN3 46/// /2701 11015 21026 0180 90445;
0062997993999992012011306004+43050-070833FM-18+0003BGXN3V0202401N000519999999N9999999N1-00161-00291999999REMSYN053CMAN  13064 BGXN3 46/// /2401 11016 21029 0180 90545;
0062997993999992012011307004+43050-070833FM-18+0003BGXN3V0200301N000519999999N9999999N1-00151-00281999999REMSYN053CMAN  13074 BGXN3 46/// /0301 11015 21028 0190 90645;
0062997993999992012011308004+43050-070833FM-18+0003BGXN3V0203301N000519999999N9999999N1-00171-00301999999REMSYN053CMAN  13084 BGXN3 46/// /3301 11017 21030 0190 90745;
0062997993999992012011309004+43050-070833FM-18+0003BGXN3V0203501N001519999999N9999999N1-00191-00321999999REMSYN053CMAN  13094 BGXN3 46/// /3503 11019 21032 0200 90845;
0062997993999992012011310004+43050-070833FM-18+0003BGXN3V0203601N001019999999N9999999N1-00201-00311999999REMSYN053CMAN  13104 BGXN3 46/// /3602 11020 21031 0200 90945;
0062997993999992012011311004+43050-070833FM-18+0003BGXN3V0203601N001519999999N9999999N1-00221-00291999999REMSYN053CMAN  13114 BGXN3 46/// /3603 11022 21029 0210 91045;
0062997993999992012011312004+43050-070833FM-18+0003BGXN3V0200101N002119999999N9999999N1-00221-00261999999REMSYN053CMAN  13124 BGXN3 46/// /0104 11022 21026 0220 91145;
0062997993999992012011313004+43050-070833FM-18+0003BGXN3V0200101N001519999999N9999999N1-00181-00221999999REMSYN053CMAN  13134 BGXN3 46/// /0103 11018 21022 0230 91245;
0068997993999992012011314004+43050-070833FM-18+0003BGXN3V0200201N002619999999N9999999N1+00041+00011099501REMSYN059CMAN  13144 BGXN3 46/// /0205 10004 20001 49950 2030 91400;
0074997993999992012011315004+43050-070833FM-18+0003BGXN3V0203401N001019999999N9999999N1+00101+00071999999REMSYN065CMAN  13154 BGXN3 46/// /3402 10010 20007 52003 91500 222// 0010;
0084997993999992012011316004+43050-070833FM-18+0003BGXN3V0202801N001519999999N9999999N1+00031+00001999999REMSYN075CMAN  13164 BGXN3 46/// /2803 10003 20000 52007 9160 222// 00095 333 91206;
0062997993999992012011317004+43050-070833FM-18+0003BGXN3V0209999C000019999999N9999999N1+00141+00111999999REMSYN053CMAN  13174 BGXN3 46/// /0000 10014 20011 0240 91645;
0062997993999992012011318004+43050-070833FM-18+0003BGXN3V0202101N001519999999N9999999N1+00291+00161999999REMSYN053CMAN  13184 BGXN3 46/// /2103 10029 20016 0230 91745;
0062997993999992012011319004+43050-070833FM-18+0003BGXN3V0201801N004619999999N9999999N1+00571+00181999999REMSYN053CMAN  13194 BGXN3 46/// /1809 10057 20018 0230 91845;
0062997993999992012011320004+43050-070833FM-18+0003BGXN3V0202201N007719999999N9999999N1+00261+00001999999REMSYN053CMAN  13204 BGXN3 46/// /2215 10026 20000 0220 91945;
0062997993999992012011321004+43050-070833FM-18+0003BGXN3V0202101N005719999999N9999999N1+00221-00091999999REMSYN053CMAN  13214 BGXN3 46/// /2111 10022 21009 0210 92045;
0062997993999992012011322004+43050-070833FM-18+0003BGXN3V0202001N006719999999N9999999N1+00141-00361999999REMSYN053CMAN  13224 BGXN3 46/// /2013 10014 21036 0220 92145;
0084997993999992012011323004+43050-070833FM-18+0003BGXN3V0202101N005719999999N9999999N1+00081-00481999999REMSYN075CMAN  13234 BGXN3 46/// /2111 10008 21048 51022 92300 222// 0019 333 91211;
0062997993999992012011400004+43050-070833FM-18+0003BGXN3V0202001N007219999999N9999999N1-00011-00591099401REMSYN053CMAN 14004 BGXN3 46/// /2014 11001 21059 49940 92345;
0062997993999992012011401004+43050-070833FM-18+0003BGXN3V0202001N006719999999N9999999N1-00091-00731999999REMSYN053CMAN  14014 BGXN3 46/// /2013 11009 21073 0240 90045;
0062997993999992012011402004+43050-070833FM-18+0003BGXN3V0202001N005719999999N9999999N1-00131-00571999999REMSYN053CMAN  14024 BGXN3 46/// /2011 11013 21057 0250 90145;
0062997993999992012011403004+43050-070833FM-18+0003BGXN3V0202001N005119999999N9999999N1-00171-00631999999REMSYN053CMAN  14034 BGXN3 46/// /2010 11017 21063 0250 90245;
0062997993999992012011404004+43050-070833FM-18+0003BGXN3V0202001N005119999999N9999999N1-00121-00581999999REMSYN053CMAN  14044 BGXN3 46/// /2010 11012 21058 0260 90345;
0062997993999992012011405004+43050-070833FM-18+0003BGXN3V0202001N004119999999N9999999N1-00091-00531999999REMSYN053CMAN  14054 BGXN3 46/// /2008 11009 21053 0260 90445;
0062997993999992012011406004+43050-070833FM-18+0003BGXN3V0201901N003619999999N9999999N1-00071-00531999999REMSYN053CMAN  14064 BGXN3 46/// /1907 11007 21053 0270 90545;
0062997993999992012011407004+43050-070833FM-18+0003BGXN3V0202001N004119999999N9999999N1-00051-00531999999REMSYN053CMAN  14074 BGXN3 46/// /2008 11005 21053 0270 90645;
0062997993999992012011408004+43050-070833FM-18+0003BGXN3V0201901N004119999999N9999999N1-00041-00561999999REMSYN053CMAN  14084 BGXN3 46/// /1908 11004 21056 0260 90745;
0062997993999992012011409004+43050-070833FM-18+0003BGXN3V0201901N003619999999N9999999N1-00051-00591999999REMSYN053CMAN  14094 BGXN3 46/// /1907 11005 21059 0260 90845;
0062997993999992012011410004+43050-070833FM-18+0003BGXN3V0202001N003119999999N9999999N1-00101-00601999999REMSYN053CMAN  14104 BGXN3 46/// /2006 11010 21060 0270 90945;
0062997993999992012011411004+43050-070833FM-18+0003BGXN3V0202101N003119999999N9999999N1-00131-00611100401REMSYN053CMAN 14114 BGXN3 46/// /2106 11013 21061 40040 91045;
0084997993999992012011412004+43050-070833FM-18+0003BGXN3V0202101N003619999999N9999999N1-00161-00621999999REMSYN075CMAN  14124 BGXN3 46/// /2107 11016 21062 52020 91200 222// 0008 333 91209;
0084997993999992012011413004+43050-070833FM-18+0003BGXN3V0201901N003119999999N9999999N1-00201-00641999999REMSYN075CMAN  14134 BGXN3 46/// /1906 11020 21064 51007 91300 222// 0019 333 91203;
0062997993999992012011414004+43050-070833FM-18+0003BGXN3V0202001N003119999999N9999999N1-00051-00631999999REMSYN053CMAN  14144 BGXN3 46/// /2006 11005 21063 0290 91345;
0062997993999992012011415004+43050-070833FM-18+0003BGXN3V0202301N006719999999N9999999N1-00091-00771999999REMSYN053CMAN  14154 BGXN3 46/// /2313 11009 21077 0300 91445;
0062997993999992012011416004+43050-070833FM-18+0003BGXN3V0202301N006219999999N9999999N1-00101-00781999999REMSYN053CMAN  14164 BGXN3 46/// /2312 11010 21078 0310 91545;
0056997993999992012011417004+43050-070833FM-18+0003BGXN3V0202401N004119999999N9999999N1-00151-00761999999REMSYN047CMAN  14174 BGXN3 46/// /2408 11015 21076 1645;
0056997993999992012011418004+43050-070833FM-18+0003BGXN3V0202401N005119999999N9999999N1-00171-00801999999REMSYN047CMAN  14184 BGXN3 46/// /2410 11017 21080 1745;
0056997993999992012011419004+43050-070833FM-18+0003BGXN3V0202401N004119999999N9999999N1-00261-00891999999REMSYN047CMAN  14194 BGXN3 46/// /2408 11026 21089 1845;
0056997993999992012011420004+43050-070833FM-18+0003BGXN3V0202401N005119999999N9999999N1-00251-00991999999REMSYN047CMAN  14204 BGXN3 46/// /2410 11025 21099 1945;
0056997993999992012011421004+43050-070833FM-18+0003BGXN3V0202401N003119999999N9999999N1-00301-01061999999REMSYN047CMAN  14214 BGXN3 46/// /2406 11030 21106 2045;
0056997993999992012011422004+43050-070833FM-18+0003BGXN3V0202601N003119999999N9999999N1-00421-01131999999REMSYN047CMAN  14224 BGXN3 46/// /2606 11042 21113 2145;
0056997993999992012011423004+43050-070833FM-18+0003BGXN3V0202601N002619999999N9999999N1-00531-01231999999REMSYN047CMAN  14234 BGXN3 46/// /2605 11053 21123 2245;
0056997993999992012011500004+43050-070833FM-18+0003BGXN3V0202601N002619999999N9999999N1-00661-01271999999REMSYN047CMAN  15004 BGXN3 46/// /2605 11066 21127 2345;
0056997993999992012011501004+43050-070833FM-18+0003BGXN3V0202601N002619999999N9999999N1-00751-01361999999REMSYN047CMAN  15014 BGXN3 46/// /2605 11075 21136 0045;
0056997993999992012011502004+43050-070833FM-18+0003BGXN3V0202401N003619999999N9999999N1-00861-01421999999REMSYN047CMAN  15024 BGXN3 46/// /2407 11086 21142 0145;
0056997993999992012011503004+43050-070833FM-18+0003BGXN3V0202401N005119999999N9999999N1-00941-01501999999REMSYN047CMAN  15034 BGXN3 46/// /2410 11094 21150 0245;
0056997993999992012011504004+43050-070833FM-18+0003BGXN3V0202401N005119999999N9999999N1-01051-01661999999REMSYN047CMAN  15044 BGXN3 46/// /2410 11105 21166 0345;
0056997993999992012011505004+43050-070833FM-18+0003BGXN3V0202301N007219999999N9999999N1-01121-01731999999REMSYN047CMAN  15054 BGXN3 46/// /2314 11112 21173 0445;
0056997993999992012011506004+43050-070833FM-18+0003BGXN3V0202601N003119999999N9999999N1-01261-01941999999REMSYN047CMAN  15064 BGXN3 46/// /2606 11126 21194 0545;
0056997993999992012011507004+43050-070833FM-18+0003BGXN3V0202401N003619999999N9999999N1-01371-02011999999REMSYN047CMAN  15074 BGXN3 46/// /2407 11137 21201 0645;
0056997993999992012011508004+43050-070833FM-18+0003BGXN3V0202401N004619999999N9999999N1-01441-02031999999REMSYN047CMAN  15084 BGXN3 46/// /2409 11144 21203 0745;
0062997993999992012011509004+43050-070833FM-18+0003BGXN3V0202501N003619999999N9999999N1-01521-02131999999REMSYN053CMAN  15094 BGXN3 46/// /2507 11152 21213 0280 90845;
0062997993999992012011510004+43050-070833FM-18+0003BGXN3V0202501N003619999999N9999999N1-01561-02071999999REMSYN053CMAN  15104 BGXN3 46/// /2507 11156 21207 0280 90945;
0062997993999992012011511004+43050-070833FM-18+0003BGXN3V0202501N003119999999N9999999N1-01591-02121999999REMSYN053CMAN  15114 BGXN3 46/// /2506 11159 21212 0290 91045;
0062997993999992012011512004+43050-070833FM-18+0003BGXN3V0202601N002119999999N9999999N1-01631-02181999999REMSYN053CMAN  15124 BGXN3 46/// /2604 11163 21218 3040 91200;
0062997993999992012011513004+43050-070833FM-18+0003BGXN3V0202501N002619999999N9999999N1-01591-02071999999REMSYN053CMAN  15134 BGXN3 46/// /2505 11159 21207 0300 91245;
0062997993999992012011514004+43050-070833FM-18+0003BGXN3V0202401N002619999999N9999999N1-01481-02051999999REMSYN053CMAN  15144 BGXN3 46/// /2405 11148 21205 0290 91430;
0056997993999992012011515004+43050-070833FM-18+0003BGXN3V0202401N002619999999N9999999N1-01351-02071999999REMSYN047CMAN  15154 BGXN3 46/// /2405 11135 21207 1445;
0056997993999992012011516004+43050-070833FM-18+0003BGXN3V0202501N002619999999N9999999N1-01221-02061999999REMSYN047CMAN  15164 BGXN3 46/// /2505 11122 21206 1545;
0056997993999992012011517004+43050-070833FM-18+0003BGXN3V0202401N003619999999N9999999N1-01101-01971999999REMSYN047CMAN  15174 BGXN3 46/// /2407 11110 21197 1645;
0056997993999992012011518004+43050-070833FM-18+0003BGXN3V0202401N003619999999N9999999N1-01001-01901999999REMSYN047CMAN  15184 BGXN3 46/// /2407 11100 21190 1745;
0056997993999992012011519004+43050-070833FM-18+0003BGXN3V0202401N004119999999N9999999N1-00951-01781999999REMSYN047CMAN  15194 BGXN3 46/// /2408 11095 21178 1845;
0074997993999992012011520004+43050-070833FM-18+0003BGXN3V0202401N004119999999N9999999N1-00981-01841999999REMSYN065CMAN  15204 BGXN3 46/// /2408 11098 21184 53015 92000 222// 0009;
0062997993999992012011521004+43050-070833FM-18+0003BGXN3V0202401N003619999999N9999999N1-01061-01891999999REMSYN053CMAN  15214 BGXN3 46/// /2407 11106 21189 0300 92045;
0062997993999992012011522004+43050-070833FM-18+0003BGXN3V0202601N004119999999N9999999N1-01201-02021999999REMSYN053CMAN  15224 BGXN3 46/// /2608 11120 21202 0310 92145;
0062997993999992012011523004+43050-070833FM-18+0003BGXN3V0202501N003619999999N9999999N1-01241-01951999999REMSYN053CMAN  15234 BGXN3 46/// /2507 11124 21195 0310 92245;
0062997993999992012011600004+43050-070833FM-18+0003BGXN3V0202401N003619999999N9999999N1-01291-01951999999REMSYN053CMAN  16004 BGXN3 46/// /2407 11129 21195 0310 92345;
0062997993999992012011601004+43050-070833FM-18+0003BGXN3V0202401N003619999999N9999999N1-01311-01911999999REMSYN053CMAN  16014 BGXN3 46/// /2407 11131 21191 0310 90045;
0074997993999992012011602004+43050-070833FM-18+0003BGXN3V0202501N002619999999N9999999N1-01351-01971999999REMSYN065CMAN  16024 BGXN3 46/// /2505 11135 21197 51022 90200 222// 0009;
0056997993999992012011603004+43050-070833FM-18+0003BGXN3V0202401N002619999999N9999999N1-01341-01981999999REMSYN047CMAN  16034 BGXN3 46/// /2405 11134 21198 0245;
0056997993999992012011604004+43050-070833FM-18+0003BGXN3V0202401N003119999999N9999999N1-01341-01941999999REMSYN047CMAN  16044 BGXN3 46/// /2406 11134 21194 0345;
0062997993999992012011605004+43050-070833FM-18+0003BGXN3V0202401N002619999999N9999999N1-01351-01931999999REMSYN053CMAN  16054 BGXN3 46/// /2405 11135 21193 0310 90445;
0074997993999992012011606004+43050-070833FM-18+0003BGXN3V0202501N001519999999N9999999N1-01371-01971999999REMSYN065CMAN  16064 BGXN3 46/// /2503 11137 21197 52006 90600 222// 0009;
0062997993999992012011607004+43050-070833FM-18+0003BGXN3V0202401N003619999999N9999999N1-01361-01941999999REMSYN053CMAN  16074 BGXN3 46/// /2407 11136 21194 0310 90645;
0084997993999992012011608004+43050-070833FM-18+0003BGXN3V0202401N003119999999N9999999N1-01371-01951999999REMSYN075CMAN  16084 BGXN3 46/// /2406 11137 21195 53011 90800 222// 0018 333 91207;
0062997993999992012011609004+43050-070833FM-18+0003BGXN3V0202401N003119999999N9999999N1-01361-01901999999REMSYN053CMAN  16094 BGXN3 46/// /2406 11136 21190 0310 90845;
0062997993999992012011610004+43050-070833FM-18+0003BGXN3V0202401N002619999999N9999999N1-01351-01871999999REMSYN053CMAN  16104 BGXN3 46/// /2405 11135 21187 0310 90945;
0062997993999992012011611004+43050-070833FM-18+0003BGXN3V0202201N003119999999N9999999N1-01401-01891999999REMSYN053CMAN  16114 BGXN3 46/// /2206 11140 21189 0310 91045;
0062997993999992012011612004+43050-070833FM-18+0003BGXN3V0202201N002119999999N9999999N1-01441-01891999999REMSYN053CMAN  16124 BGXN3 46/// /2204 11144 21189 0310 91145;
0062997993999992012011613004+43050-070833FM-18+0003BGXN3V0201901N001519999999N9999999N1-01441-01871103501REMSYN053CMAN 16134 BGXN3 46/// /1903 11144 21187 40350 91245;
0084997993999992012011614004+43050-070833FM-18+0003BGXN3V0202201N002119999999N9999999N1-01241-01861999999REMSYN075CMAN  16144 BGXN3 46/// /2204 11124 21186 57037 9140 222// 00094 333 91209;
0056997993999992012011615004+43050-070833FM-18+0003BGXN3V0202301N002119999999N9999999N1-01101-01811999999REMSYN047CMAN  16154 BGXN3 46/// /2304 11110 21181 1445;
0056997993999992012011616004+43050-070833FM-18+0003BGXN3V0202501N001019999999N9999999N1-00931-01761999999REMSYN047CMAN  16164 BGXN3 46/// /2502 11093 21176 1545;
0074997993999992012011617004+43050-070833FM-18+0003BGXN3V0202401N001019999999N9999999N1-00611-01671999999REMSYN065CMAN  16174 BGXN3 46/// /2402 11061 21167 58019 91700 222// 0008;
0062997993999992012011618004+43050-070833FM-18+0003BGXN3V0202301N001019999999N9999999N1-00451-01551999999REMSYN053CMAN  16184 BGXN3 46/// /2302 11045 21155 0310 91745;
0074997993999992012011619004+43050-070833FM-18+0003BGXN3V0201701N002119999999N9999999N1-00231-01611999999REMSYN065CMAN  16194 BGXN3 46/// /1704 11023 21161 58024 91900 222// 0010;
0056997993999992012011620004+43050-070833FM-18+0003BGXN3V0201701N002119999999N9999999N1-00251-01561999999REMSYN047CMAN  16204 BGXN3 46/// /1704 11025 21156 1945;
0062997993999992012011621004+43050-070833FM-18+0003BGXN3V0201401N001019999999N9999999N1-00291-01561999999REMSYN053CMAN  16214 BGXN3 46/// /1402 11029 21156 0290 92045;
0062997993999992012011622004+43050-070833FM-18+0003BGXN3V0201201N001019999999N9999999N1-00301-01601999999REMSYN053CMAN  16224 BGXN3 46/// /1202 11030 21160 0280 92145;
0062997993999992012011623004+43050-070833FM-18+0003BGXN3V0201301N001519999999N9999999N1-00301-01481999999REMSYN053CMAN  16234 BGXN3 46/// /1303 11030 21148 0290 92245;
0056997993999992012011700004+43050-070833FM-18+0003BGXN3V0201401N001519999999N9999999N1-00271-01541999999REMSYN047CMAN  17004 BGXN3 46/// /1403 11027 21154 2345;
0000997993999992012011701004+43050-070833FM-18+0003BGXN3V0201601N003119999999N9999999N1-00261-01471999999
0056997993999992012011702004+43050-070833FM-18+0003BGXN3V0201701N002119999999N9999999N1-00221-01031999999REMSYN047CMAN  17024 BGXN3 46/// /1704 11022 21103 0145;
0056997993999992012011703004+43050-070833FM-18+0003BGXN3V0201701N002119999999N9999999N1-00201-00731999999REMSYN047CMAN  17034 BGXN3 46/// /1704 11020 21073 0245;
0099997993999992012011704004+43050-070833FM-18+0003BGXN3V0201801N003119999999N9999999N1-00211-00441999999REMSYN090CMAN  17044 BGXN3 46/// /1806 11021 21044 58010 90400 222// 00112 20702 324// 41501 70011;
0056997993999992012011705004+43050-070833FM-18+0003BGXN3V0201801N002119999999N9999999N1-00221-00331999999REMSYN047CMAN  17054 BGXN3 46/// /1804 11022 21033 0445;
0056997993999992012011706004+43050-070833FM-18+0003BGXN3V0201801N002119999999N9999999N1-00171-00271999999REMSYN047CMAN  17064 BGXN3 46/// /1804 11017 21027 0545;
0056997993999992012011707004+43050-070833FM-18+0003BGXN3V0201801N002119999999N9999999N1-00131-00201999999REMSYN047CMAN  17074 BGXN3 46/// /1804 11013 21020 0645;
0148997993999992012011708004+43050-070833FM-18+0003BGXN3V0202001N001519999999N9999999N1-00081-00191999999REMSYN139CMAN  17084 BGXN3 46/// /2003 11008 21019 56020 90800 222// 00090001 21048 4/029 70000 90768 93100 555 7//// 8//// 11105 500/0 ///// /////;
0056997993999992012011709004+43050-070833FM-18+0003BGXN3V0201601N000519999999N9999999N1-00071-00181999999REMSYN047CMAN  17094 BGXN3 46/// /1601 11007 21018 0845;
0056997993999992012011710004+43050-070833FM-18+0003BGXN3V0201501N000519999999N9999999N1-00061-00171999999REMSYN047CMAN  17104 BGXN3 46/// /1501 11006 21017 0945;
0056997993999992012011711004+43050-070833FM-18+0003BGXN3V0201601N001019999999N9999999N1-00061-00131999999REMSYN047CMAN  17114 BGXN3 46/// /1602 11006 21013 1045;
0056997993999992012011712004+43050-070833FM-18+0003BGXN3V0209999C000019999999N9999999N1-00061-00101999999REMSYN047CMAN  17124 BGXN3 46/// /0000 11006 21010 1145;
0091997993999992012011713004+43050-070833FM-18+0003BGXN3V0209999C000019999999N9999999N1-00041-00081999999REMSYN082CMAN  17134 BGXN3 46/// /0000 11004 21008 57005 91300 222// 000921303 4/016 70000;
0096997993999992012011714004+43050-070833FM-18+0003BGXN3V0209999C000019999999N9999999N1+00091+00031999999REMSYN087CMAN  17144 BGXN3 46/// /0000 10009 20003 57003 91400 222// 0009 333 11315 21354 70000;
0056997993999992012011715004+43050-070833FM-18+0003BGXN3V0209999C000019999999N9999999N1+00211-00011999999REMSYN047CMAN  17154 BGXN3 46/// /0000 10021 21001 1445;
0056997993999992012011716004+43050-070833FM-18+0003BGXN3V0202401N001019999999N9999999N1+00241-00021999999REMSYN047CMAN  17164 BGXN3 46/// /2402 10024 21002 1545;
0056997993999992012011717004+43050-070833FM-18+0003BGXN3V0202501N001519999999N9999999N1+00411+00031999999REMSYN047CMAN  17174 BGXN3 46/// /2503 10041 20003 1645;
0056997993999992012011718004+43050-070833FM-18+0003BGXN3V0202801N000519999999N9999999N1+00511+00051999999REMSYN047CMAN  17184 BGXN3 46/// /2801 10051 20005 1745;
0056997993999992012011719004+43050-070833FM-18+0003BGXN3V0202801N000519999999N9999999N1+00641+00081999999REMSYN047CMAN  17194 BGXN3 46/// /2801 10064 20008 1845;
0085997993999992012011720004+43050-070833FM-18+0003BGXN3V0200901N002119999999N9999999N1+00471+00101999999REMSYN076CMAN  17204 BGXN3 46/// /0904 10047 20010 56044 92000 222// 002621298 70000;
0063997993999992012011721004+43050-070833FM-18+0003BGXN3V0200501N001519999999N9999999N1+00341+00181999999REMSYN054CMAN  17214 BGXN3 46/// /0503 10034 20018 40040 80001;
0056997993999992012011722004+43050-070833FM-18+0003BGXN3V0201201N001019999999N9999999N1+00321+00251999999REMSYN047CMAN  17224 BGXN3 46/// /1202 10032 20025 2145;
0056997993999992012011723004+43050-070833FM-18+0003BGXN3V0200701N000519999999N9999999N1+00251+00191999999REMSYN047CMAN  17234 BGXN3 46/// /0701 10025 20019 2245;
0056997993999992012011800004+43050-070833FM-18+0003BGXN3V0200901N001519999999N9999999N1+00341+00311999999REMSYN047CMAN  18004 BGXN3 46/// /0903 10034 20031 2345;
0079997993999992012011801004+43050-070833FM-18+0003BGXN3V0201301N001019999999N9999999N1+00361+00321999999REMSYN070CMAN  18014 BGXN3 46/// /1302 10036 20032 50000 90100 222// 00197////;
0056997993999992012011802004+43050-070833FM-18+0003BGXN3V0201501N001019999999N9999999N1+00361+00321999999REMSYN047CMAN  18024 BGXN3 46/// /1502 10036 20032 0145;
0056997993999992012011803004+43050-070833FM-18+0003BGXN3V0201701N001519999999N9999999N1+00421+00391999999REMSYN047CMAN  18034 BGXN3 46/// /1703 10042 20039 0245;
0056997993999992012011804004+43050-070833FM-18+0003BGXN3V0201601N001519999999N9999999N1+00461+00421999999REMSYN047CMAN  18044 BGXN3 46/// /1603 10046 20042 0345;
0056997993999992012011805004+43050-070833FM-18+0003BGXN3V0201401N001519999999N9999999N1+00531+00491999999REMSYN047CMAN  18054 BGXN3 46/// /1403 10053 20049 0445;
0056997993999992012011806004+43050-070833FM-18+0003BGXN3V0201501N002619999999N9999999N1+00631+00561999999REMSYN047CMAN  18064 BGXN3 46/// /1505 10063 20056 0545;
0056997993999992012011807004+43050-070833FM-18+0003BGXN3V0201701N003119999999N9999999N1+00651+00561999999REMSYN047CMAN  18074 BGXN3 46/// /1706 10065 20056 0645;
0056997993999992012011808004+43050-070833FM-18+0003BGXN3V0201801N003119999999N9999999N1+00681+00561999999REMSYN047CMAN  18084 BGXN3 46/// /1806 10068 20056 0745;
0056997993999992012011809004+43050-070833FM-18+0003BGXN3V0202101N006719999999N9999999N1+00701+00521999999REMSYN047CMAN  18094 BGXN3 46/// /2113 10070 20052 0845;
0062997993999992012011810004+43050-070833FM-18+0003BGXN3V0202201N009319999999N9999999N1+00581-00161999999REMSYN053CMAN  18104 BGXN3 46/// /2218 10058 21016 0180 90945;
0056997993999992012011811004+43050-070833FM-18+0003BGXN3V0202101N007719999999N9999999N1+00481-00441999999REMSYN047CMAN  18114 BGXN3 46/// /2115 10048 21044 1045;
0056997993999992012011812004+43050-070833FM-18+0003BGXN3V0202201N007219999999N9999999N1+00341-00551999999REMSYN047CMAN  18124 BGXN3 46/// /2214 10034 21055 1145;
0056997993999992012011813004+43050-070833FM-18+0003BGXN3V0202201N007219999999N9999999N1+00241-00671999999REMSYN047CMAN  18134 BGXN3 46/// /2214 10024 21067 1245;
0056997993999992012011814004+43050-070833FM-18+0003BGXN3V0202201N008219999999N9999999N1+00251-00691999999REMSYN047CMAN  18144 BGXN3 46/// /2216 10025 21069 1345;
0056997993999992012011815004+43050-070833FM-18+0003BGXN3V0202301N007719999999N9999999N1+00201-00711999999REMSYN047CMAN  18154 BGXN3 46/// /2315 10020 21071 1445;
0056997993999992012011816004+43050-070833FM-18+0003BGXN3V0202401N008219999999N9999999N1+00171-00791999999REMSYN047CMAN  18164 BGXN3 46/// /2416 10017 21079 1545;
0056997993999992012011817004+43050-070833FM-18+0003BGXN3V0202301N008719999999N9999999N1+00121-00861999999REMSYN047CMAN  18174 BGXN3 46/// /2317 10012 21086 1645;
0056997993999992012011818004+43050-070833FM-18+0003BGXN3V0202301N008719999999N9999999N1+00121-00831999999REMSYN047CMAN  18184 BGXN3 46/// /2317 10012 21083 1745;
0056997993999992012011819004+43050-070833FM-18+0003BGXN3V0202401N006219999999N9999999N1+00071-00911999999REMSYN047CMAN  18194 BGXN3 46/// /2412 10007 21091 1845;
0056997993999992012011820004+43050-070833FM-18+0003BGXN3V0202301N008219999999N9999999N1-00021-00961999999REMSYN047CMAN  18204 BGXN3 46/// /2316 11002 21096 1945;
0056997993999992012011821004+43050-070833FM-18+0003BGXN3V0202301N008219999999N9999999N1-00141-01161999999REMSYN047CMAN  18214 BGXN3 46/// /2316 11014 21116 2045;
0062997993999992012011822004+43050-070833FM-18+0003BGXN3V0202501N005119999999N9999999N1-00261-01441999999REMSYN053CMAN  18224 BGXN3 46/// /2510 11026 21144 0180 92145;
0062997993999992012011823004+43050-070833FM-18+0003BGXN3V0202501N004619999999N9999999N1-00381-01551999999REMSYN053CMAN  18234 BGXN3 46/// /2509 11038 21155 0180 92245;
0062997993999992012011900004+43050-070833FM-18+0003BGXN3V0202501N004119999999N9999999N1-00481-01551999999REMSYN053CMAN  19004 BGXN3 46/// /2508 11048 21155 0190 92345;
0062997993999992012011901004+43050-070833FM-18+0003BGXN3V0202501N004619999999N9999999N1-00581-01591999999REMSYN053CMAN  19014 BGXN3 46/// /2509 11058 21159 0200 90045;
0056997993999992012011902004+43050-070833FM-18+0003BGXN3V0202501N003119999999N9999999N1-00671-01671999999REMSYN047CMAN  19024 BGXN3 46/// /2506 11067 21167 0145;
0056997993999992012011903004+43050-070833FM-18+0003BGXN3V0202401N003119999999N9999999N1-00721-01571999999REMSYN047CMAN  19034 BGXN3 46/// /2406 11072 21157 0245;
0062997993999992012011904004+43050-070833FM-18+0003BGXN3V0202401N003619999999N9999999N1-00781-01601999999REMSYN053CMAN  19044 BGXN3 46/// /2407 11078 21160 0200 90345;
0056997993999992012011905004+43050-070833FM-18+0003BGXN3V0202501N002119999999N9999999N1-00851-01711999999REMSYN047CMAN  19054 BGXN3 46/// /2504 11085 21171 0445;
0056997993999992012011906004+43050-070833FM-18+0003BGXN3V0202601N001519999999N9999999N1-00901-01691999999REMSYN047CMAN  19064 BGXN3 46/// /2603 11090 21169 0545;
0056997993999992012011907004+43050-070833FM-18+0003BGXN3V0202501N001019999999N9999999N1-00951-01651999999REMSYN047CMAN  19074 BGXN3 46/// /2502 11095 21165 0645;
0056997993999992012011908004+43050-070833FM-18+0003BGXN3V0202901N001019999999N9999999N1-00991-01691999999REMSYN047CMAN  19084 BGXN3 46/// /2902 11099 21169 0745;
0056997993999992012011909004+43050-070833FM-18+0003BGXN3V0209999C000019999999N9999999N1-01181-01491999999REMSYN047CMAN  19094 BGXN3 46/// /0000 11118 21149 0845;
0056997993999992012011910004+43050-070833FM-18+0003BGXN3V0202201N002619999999N9999999N1-01051-01601999999REMSYN047CMAN  19104 BGXN3 46/// /2205 11105 21160 0945;
0056997993999992012011911004+43050-070833FM-18+0003BGXN3V0202801N001019999999N9999999N1-01081-01601999999REMSYN047CMAN  19114 BGXN3 46/// /2802 11108 21160 1045;
0056997993999992012011912004+43050-070833FM-18+0003BGXN3V0209999C000019999999N9999999N1-01121-01601999999REMSYN047CMAN  19124 BGXN3 46/// /0000 11112 21160 1145;
0056997993999992012011913004+43050-070833FM-18+0003BGXN3V0202501N000519999999N9999999N1-01151-01571999999REMSYN047CMAN  19134 BGXN3 46/// /2501 11115 21157 1245;
0056997993999992012011914004+43050-070833FM-18+0003BGXN3V0202501N001019999999N9999999N1-00941-01521999999REMSYN047CMAN  19144 BGXN3 46/// /2502 11094 21152 1345;
0056997993999992012011915004+43050-070833FM-18+0003BGXN3V0203101N002119999999N9999999N1-00791-01611999999REMSYN047CMAN  19154 BGXN3 46/// /3104 11079 21161 1445;
0056997993999992012011916004+43050-070833FM-18+0003BGXN3V0203601N002119999999N9999999N1-00451-01391999999REMSYN047CMAN  19164 BGXN3 46/// /3604 11045 21139 1545;
0056997993999992012011917004+43050-070833FM-18+0003BGXN3V0203501N001519999999N9999999N1-00261-01191999999REMSYN047CMAN  19174 BGXN3 46/// /3503 11026 21119 1645;
0056997993999992012011918004+43050-070833FM-18+0003BGXN3V0200401N002619999999N9999999N1-00351-00881999999REMSYN047CMAN  19184 BGXN3 46/// /0405 11035 21088 1745;
0056997993999992012011919004+43050-070833FM-18+0003BGXN3V0200701N003119999999N9999999N1-00291-00921999999REMSYN047CMAN  19194 BGXN3 46/// /0706 11029 21092 1845;
0062997993999992012011920004+43050-070833FM-18+0003BGXN3V0200701N003619999999N9999999N1-00251-00901999999REMSYN053CMAN  19204 BGXN3 46/// /0707 11025 21090 0210 91945;
0056997993999992012011921004+43050-070833FM-18+0003BGXN3V0200601N003119999999N9999999N1-00311-00801999999REMSYN047CMAN  19214 BGXN3 46/// /0606 11031 21080 2045;
0056997993999992012011922004+43050-070833FM-18+0003BGXN3V0200401N002619999999N9999999N1-00361-00671999999REMSYN047CMAN  19224 BGXN3 46/// /0405 11036 21067 2145;
0056997993999992012011923004+43050-070833FM-18+0003BGXN3V0200601N002119999999N9999999N1-00321-00721999999REMSYN047CMAN  19234 BGXN3 46/// /0604 11032 21072 2245;
0056997993999992012012000004+43050-070833FM-18+0003BGXN3V0200601N002119999999N9999999N1-00231-00681999999REMSYN047CMAN  20004 BGXN3 46/// /0604 11023 21068 2345;
0056997993999992012012001004+43050-070833FM-18+0003BGXN3V0200901N001519999999N9999999N1-00171-00681999999REMSYN047CMAN  20014 BGXN3 46/// /0903 11017 21068 0045;
0056997993999992012012002004+43050-070833FM-18+0003BGXN3V0201001N001019999999N9999999N1-00111-00621999999REMSYN047CMAN  20024 BGXN3 46/// /1002 11011 21062 0145;
0056997993999992012012003004+43050-070833FM-18+0003BGXN3V0201101N002119999999N9999999N1-00111-00461999999REMSYN047CMAN  20034 BGXN3 46/// /1104 11011 21046 0245;
0056997993999992012012004004+43050-070833FM-18+0003BGXN3V0200901N001019999999N9999999N1-00161-00231999999REMSYN047CMAN  20044 BGXN3 46/// /0902 11016 21023 0345;
0056997993999992012012005004+43050-070833FM-18+0003BGXN3V0201101N001519999999N9999999N1-00071-00201999999REMSYN047CMAN  20054 BGXN3 46/// /1103 11007 21020 0445;
0056997993999992012012006004+43050-070833FM-18+0003BGXN3V0201601N001019999999N9999999N1-00111-00171999999REMSYN047CMAN  20064 BGXN3 46/// /1602 11011 21017 0545;
0056997993999992012012007004+43050-070833FM-18+0003BGXN3V0201401N001019999999N9999999N1-00111-00141999999REMSYN047CMAN  20074 BGXN3 46/// /1402 11011 21014 0645;
0056997993999992012012008004+43050-070833FM-18+0003BGXN3V0202401N001519999999N9999999N1-00251-00291999999REMSYN047CMAN  20084 BGXN3 46/// /2403 11025 21029 0745;
0056997993999992012012009004+43050-070833FM-18+0003BGXN3V0209999C000019999999N9999999N1-00411-00451999999REMSYN047CMAN  20094 BGXN3 46/// /0000 11041 21045 0845;
0056997993999992012012010004+43050-070833FM-18+0003BGXN3V0209999C000019999999N9999999N1-00631-00671999999REMSYN047CMAN  20104 BGXN3 46/// /0000 11063 21067 0945;
0056997993999992012012011004+43050-070833FM-18+0003BGXN3V0202601N001019999999N9999999N1-00651-00691999999REMSYN047CMAN  20114 BGXN3 46/// /2602 11065 21069 1045;
0056997993999992012012012004+43050-070833FM-18+0003BGXN3V0201801N000519999999N9999999N1-00681-00751999999REMSYN047CMAN  20124 BGXN3 46/// /1801 11068 21075 1145;
0056997993999992012012013004+43050-070833FM-18+0003BGXN3V0202201N002619999999N9999999N1-00601-00631999999REMSYN047CMAN  20134 BGXN3 46/// /2205 11060 21063 1245;
0056997993999992012012014004+43050-070833FM-18+0003BGXN3V0202201N003119999999N9999999N1-00431-00581999999REMSYN047CMAN  20144 BGXN3 46/// /2206 11043 21058 1345;
0056997993999992012012015004+43050-070833FM-18+0003BGXN3V0202401N004619999999N9999999N1-00311-00801999999REMSYN047CMAN  20154 BGXN3 46/// /2409 11031 21080 1445;
0056997993999992012012016004+43050-070833FM-18+0003BGXN3V0202301N006219999999N9999999N1-00291-00921999999REMSYN047CMAN  20164 BGXN3 46/// /2312 11029 21092 1545;
0056997993999992012012017004+43050-070833FM-18+0003BGXN3V0202501N003619999999N9999999N1-00251-01011999999REMSYN047CMAN  20174 BGXN3 46/// /2507 11025 21101 1645;
0056997993999992012012018004+43050-070833FM-18+0003BGXN3V0202401N006219999999N9999999N1-00271-01121999999REMSYN047CMAN  20184 BGXN3 46/// /2412 11027 21112 1745;
0056997993999992012012019004+43050-070833FM-18+0003BGXN3V0202301N008219999999N9999999N1-00271-01151999999REMSYN047CMAN  20194 BGXN3 46/// /2316 11027 21115 1845;
0056997993999992012012020004+43050-070833FM-18+0003BGXN3V0202401N005719999999N9999999N1-00271-01201999999REMSYN047CMAN  20204 BGXN3 46/// /2411 11027 21120 1945;
0056997993999992012012021004+43050-070833FM-18+0003BGXN3V0202301N006219999999N9999999N1-00331-01251999999REMSYN047CMAN  20214 BGXN3 46/// /2312 11033 21125 2045;
0000997993999992012012022004+43050-070833FM-18+0003BGXN3V0202501N002119999999N9999999N1-00451-01361999999
0056997993999992012012023004+43050-070833FM-18+0003BGXN3V0202401N001519999999N9999999N1-00541-01351999999REMSYN047CMAN  20234 BGXN3 46/// /2403 11054 21135 2245;
0056997993999992012012100004+43050-070833FM-18+0003BGXN3V0202301N003619999999N9999999N1-00551-01341999999REMSYN047CMAN  21004 BGXN3 46/// /2307 11055 21134 2345;
0056997993999992012012101004+43050-070833FM-18+0003BGXN3V0202401N001519999999N9999999N1-00641-01331999999REMSYN047CMAN  21014 BGXN3 46/// /2403 11064 21133 0045;
0056997993999992012012102004+43050-070833FM-18+0003BGXN3V0202601N001519999999N9999999N1-00731-01481999999REMSYN047CMAN  21024 BGXN3 46/// /2603 11073 21148 0145;
0056997993999992012012103004+43050-070833FM-18+0003BGXN3V0202601N001519999999N9999999N1-00701-01531999999REMSYN047CMAN  21034 BGXN3 46/// /2603 11070 21153 0245;
0056997993999992012012104004+43050-070833FM-18+0003BGXN3V0202601N001519999999N9999999N1-00741-01561999999REMSYN047CMAN  21044 BGXN3 46/// /2603 11074 21156 0345;
0056997993999992012012105004+43050-070833FM-18+0003BGXN3V0202401N001519999999N9999999N1-00811-01651999999REMSYN047CMAN  21054 BGXN3 46/// /2403 11081 21165 0445;
0056997993999992012012106004+43050-070833FM-18+0003BGXN3V0202501N001519999999N9999999N1-00871-01691999999REMSYN047CMAN  21064 BGXN3 46/// /2503 11087 21169 0545;
0056997993999992012012107004+43050-070833FM-18+0003BGXN3V0201901N002119999999N9999999N1-00901-01651999999REMSYN047CMAN  21074 BGXN3 46/// /1904 11090 21165 0645;
0056997993999992012012108004+43050-070833FM-18+0003BGXN3V0202301N002619999999N9999999N1-00851-01641999999REMSYN047CMAN  21084 BGXN3 46/// /2305 11085 21164 0745;
0056997993999992012012109004+43050-070833FM-18+0003BGXN3V0202201N002119999999N9999999N1-00861-01681999999REMSYN047CMAN  21094 BGXN3 46/// /2204 11086 21168 0845;
0000997993999992012012110004+43050-070833FM-18+0003BGXN3V0202001N002119999999N9999999N1-00891-01731999999
0056997993999992012012111004+43050-070833FM-18+0003BGXN3V0202201N001519999999N9999999N1-00901-01741999999REMSYN047CMAN  21114 BGXN3 46/// /2203 11090 21174 1045;
0056997993999992012012112004+43050-070833FM-18+0003BGXN3V0202801N001019999999N9999999N1-00911-01721999999REMSYN047CMAN  21124 BGXN3 46/// /2802 11091 21172 1145;
0056997993999992012012113004+43050-070833FM-18+0003BGXN3V0202801N001019999999N9999999N1-00901-01621999999REMSYN047CMAN  21134 BGXN3 46/// /2802 11090 21162 1245;
0056997993999992012012114004+43050-070833FM-18+0003BGXN3V0202701N000519999999N9999999N1-00991-01231999999REMSYN047CMAN  21144 BGXN3 46/// /2701 11099 21123 1345;
0056997993999992012012115004+43050-070833FM-18+0003BGXN3V0202801N001519999999N9999999N1-00961-01141999999REMSYN047CMAN  21154 BGXN3 46/// /2803 11096 21114 1445;
0056997993999992012012116004+43050-070833FM-18+0003BGXN3V0202601N001019999999N9999999N1-00901-01061999999REMSYN047CMAN  21164 BGXN3 46/// /2602 11090 21106 1545;
0056997993999992012012117004+43050-070833FM-18+0003BGXN3V0203101N001019999999N9999999N1-00861-01011999999REMSYN047CMAN  21174 BGXN3 46/// /3102 11086 21101 1645;
0056997993999992012012118004+43050-070833FM-18+0003BGXN3V0203101N001519999999N9999999N1-00811-00961999999REMSYN047CMAN  21184 BGXN3 46/// /3103 11081 21096 1745;
0056997993999992012012119004+43050-070833FM-18+0003BGXN3V0203301N001019999999N9999999N1-00791-00951999999REMSYN047CMAN  21194 BGXN3 46/// /3302 11079 21095 1845;
0056997993999992012012120004+43050-070833FM-18+0003BGXN3V0203101N002119999999N9999999N1-00801-00991999999REMSYN047CMAN  21204 BGXN3 46/// /3104 11080 21099 1945;
0056997993999992012012121004+43050-070833FM-18+0003BGXN3V0203201N001519999999N9999999N1-00771-00961999999REMSYN047CMAN  21214 BGXN3 46/// /3203 11077 21096 2045;
0056997993999992012012122004+43050-070833FM-18+0003BGXN3V0203201N001519999999N9999999N1-00771-00991999999REMSYN047CMAN  21224 BGXN3 46/// /3203 11077 21099 2145;
0056997993999992012012123004+43050-070833FM-18+0003BGXN3V0203301N001019999999N9999999N1-00801-01011999999REMSYN047CMAN  21234 BGXN3 46/// /3302 11080 21101 2245;
0056997993999992012012200004+43050-070833FM-18+0003BGXN3V0203101N002119999999N9999999N1-00821-01061999999REMSYN047CMAN  22004 BGXN3 46/// /3104 11082 21106 2345;
0056997993999992012012201004+43050-070833FM-18+0003BGXN3V0203201N001519999999N9999999N1-00851-01181999999REMSYN047CMAN  22014 BGXN3 46/// /3203 11085 21118 0045;
0056997993999992012012202004+43050-070833FM-18+0003BGXN3V0203101N002119999999N9999999N1-00981-01311999999REMSYN047CMAN  22024 BGXN3 46/// /3104 11098 21131 0145;
0056997993999992012012203004+43050-070833FM-18+0003BGXN3V0203101N002619999999N9999999N1-01021-01331999999REMSYN047CMAN  22034 BGXN3 46/// /3105 11102 21133 0245;
0056997993999992012012204004+43050-070833FM-18+0003BGXN3V0203201N002119999999N9999999N1-01061-01371999999REMSYN047CMAN  22044 BGXN3 46/// /3204 11106 21137 0345;
0056997993999992012012205004+43050-070833FM-18+0003BGXN3V0203101N001019999999N9999999N1-01131-01421999999REMSYN047CMAN  22054 BGXN3 46/// /3102 11113 21142 0445;
0056997993999992012012206004+43050-070833FM-18+0003BGXN3V0209999C000019999999N9999999N1-01221-01451999999REMSYN047CMAN  22064 BGXN3 46/// /0000 11122 21145 0545;
0056997993999992012012207004+43050-070833FM-18+0003BGXN3V0209999C000019999999N9999999N1-01331-01491999999REMSYN047CMAN  22074 BGXN3 46/// /0000 11133 21149 0645;
0056997993999992012012208004+43050-070833FM-18+0003BGXN3V0209999C000019999999N9999999N1-01451-01581999999REMSYN047CMAN  22084 BGXN3 46/// /0000 11145 21158 0745;
0056997993999992012012209004+43050-070833FM-18+0003BGXN3V0209999C000019999999N9999999N1-01411-01551999999REMSYN047CMAN  22094 BGXN3 46/// /0000 11141 21155 0845;
0056997993999992012012210004+43050-070833FM-18+0003BGXN3V0209999C000019999999N9999999N1-01561-01671999999REMSYN047CMAN  22104 BGXN3 46/// /0000 11156 21167 0945;
0056997993999992012012211004+43050-070833FM-18+0003BGXN3V0209999C000019999999N9999999N1-01621-01711999999REMSYN047CMAN  22114 BGXN3 46/// /0000 11162 21171 1045;
0144997993999992012012212004+43050-070833FM-18+0003BGXN3V0209999C000019999999N9999999N1-01751-01891999999REMSYN135CMAN  22124 BGXN3 46/// /0000 11175 21189 53009 91200 222// 0018 77187 333 44029 55300 69937 91122 91215 96049 96041 96038 96277 96486;
0056997993999992012012213004+43050-070833FM-18+0003BGXN3V0209999C000019999999N9999999N1-01621-01731999999REMSYN047CMAN  22134 BGXN3 46/// /0000 11162 21173 1245;
0056997993999992012012214004+43050-070833FM-18+0003BGXN3V0202401N001019999999N9999999N1-01121-01401999999REMSYN047CMAN  22144 BGXN3 46/// /2402 11112 21140 1345;
0056997993999992012012215004+43050-070833FM-18+0003BGXN3V0202901N001019999999N9999999N1-00791-01391999999REMSYN047CMAN  22154 BGXN3 46/// /2902 11079 21139 1445;
0056997993999992012012216004+43050-070833FM-18+0003BGXN3V0203101N001019999999N9999999N1-00511-01351999999REMSYN047CMAN  22164 BGXN3 46/// /3102 11051 21135 1545;
0056997993999992012012217004+43050-070833FM-18+0003BGXN3V0202001N001519999999N9999999N1-00221-01181999999REMSYN047CMAN  22174 BGXN3 46/// /2003 11022 21118 1645;
0079997993999992012012218004+43050-070833FM-18+0003BGXN3V0202701N001019999999N9999999N1-00271-01101999999REMSYN070CMAN  22184 BGXN3 46/// /2702 11027 21110 58008 91800 222// 001058007;
0056997993999992012012219004+43050-070833FM-18+0003BGXN3V0200801N001019999999N9999999N1-00081-01051999999REMSYN047CMAN  22194 BGXN3 46/// /0802 11008 21105 1845;
0056997993999992012012220004+43050-070833FM-18+0003BGXN3V0203201N000519999999N9999999N1-00161-01071999999REMSYN047CMAN  22204 BGXN3 46/// /3201 11016 21107 1945;
0056997993999992012012221004+43050-070833FM-18+0003BGXN3V0200601N001019999999N9999999N1-00351-00971999999REMSYN047CMAN  22214 BGXN3 46/// /0602 11035 21097 2045;
0056997993999992012012222004+43050-070833FM-18+0003BGXN3V0209999C000019999999N9999999N1-00471-00951999999REMSYN047CMAN  22224 BGXN3 46/// /0000 11047 21095 2145;
0056997993999992012012223004+43050-070833FM-18+0003BGXN3V0209999C000019999999N9999999N1-00831-01041999999REMSYN047CMAN  22234 BGXN3 46/// /0000 11083 21104 2245;
0056997993999992012012300004+43050-070833FM-18+0003BGXN3V0209999C000019999999N9999999N1-00811-00971999999REMSYN047CMAN  23004 BGXN3 46/// /0000 11081 21097 2345;
0056997993999992012012301004+43050-070833FM-18+0003BGXN3V0209999C000019999999N9999999N1-00661-00841999999REMSYN047CMAN  23014 BGXN3 46/// /0000 11066 21084 0045;
0056997993999992012012302004+43050-070833FM-18+0003BGXN3V0209999C000019999999N9999999N1-00531-00811999999REMSYN047CMAN  23024 BGXN3 46/// /0000 11053 21081 0145;
0056997993999992012012303004+43050-070833FM-18+0003BGXN3V0209999C000019999999N9999999N1-00521-00781999999REMSYN047CMAN  23034 BGXN3 46/// /0000 11052 21078 0245;
0068997993999992012012304004+43050-070833FM-18+0003BGXN3V0202301N000519999999N9999999N1-00491-00771103501REMSYN059CMAN  23044 BGXN3 46/// /2301 11049 21077 40350 0000 90400;
0062997993999992012012305004+43050-070833FM-18+0003BGXN3V0202301N000519999999N9999999N1-00461-00701999999REMSYN053CMAN  23054 BGXN3 46/// /2301 11046 21070 0200 90445;
0056997993999992012012306004+43050-070833FM-18+0003BGXN3V0209999C000019999999N9999999N1-00461-00701999999REMSYN047CMAN  23064 BGXN3 46/// /0000 11046 21070 0545;
0056997993999992012012307004+43050-070833FM-18+0003BGXN3V0202301N001019999999N9999999N1-00441-00701999999REMSYN047CMAN  23074 BGXN3 46/// /2302 11044 21070 0645;
0056997993999992012012308004+43050-070833FM-18+0003BGXN3V0209999C000019999999N9999999N1-00421-00681999999REMSYN047CMAN  23084 BGXN3 46/// /0000 11042 21068 0745;
0056997993999992012012309004+43050-070833FM-18+0003BGXN3V0200601N000519999999N9999999N1-00401-00651999999REMSYN047CMAN  23094 BGXN3 46/// /0601 11040 21065 0845;
0056997993999992012012310004+43050-070833FM-18+0003BGXN3V0200301N001019999999N9999999N1-00381-00611999999REMSYN047CMAN  23104 BGXN3 46/// /0302 11038 21061 0945;
0056997993999992012012311004+43050-070833FM-18+0003BGXN3V0209999C000019999999N9999999N1-00331-00561999999REMSYN047CMAN  23114 BGXN3 46/// /0000 11033 21056 1045;
0056997993999992012012312004+43050-070833FM-18+0003BGXN3V0202301N001519999999N9999999N1-00301-00521999999REMSYN047CMAN  23124 BGXN3 46/// /2303 11030 21052 1145;
0056997993999992012012313004+43050-070833FM-18+0003BGXN3V0209999C000019999999N9999999N1-00281-00481999999REMSYN047CMAN  23134 BGXN3 46/// /0000 11028 21048 1245;
0056997993999992012012314004+43050-070833FM-18+0003BGXN3V0202201N000519999999N9999999N1-00241-00521999999REMSYN047CMAN  23144 BGXN3 46/// /2201 11024 21052 1345;
0056997993999992012012315004+43050-070833FM-18+0003BGXN3V0203501N001019999999N9999999N1+00071-00361999999REMSYN047CMAN  23154 BGXN3 46/// /3502 10007 21036 1445;
0056997993999992012012316004+43050-070833FM-18+0003BGXN3V0202301N001019999999N9999999N1+00041-00251999999REMSYN047CMAN  23164 BGXN3 46/// /2302 10004 21025 1545;
0056997993999992012012317004+43050-070833FM-18+0003BGXN3V0202401N001019999999N9999999N1+00011-00241999999REMSYN047CMAN  23174 BGXN3 46/// /2402 10001 21024 1645;
0056997993999992012012318004+43050-070833FM-18+0003BGXN3V0202801N001019999999N9999999N1+00141-00171999999REMSYN047CMAN  23184 BGXN3 46/// /2802 10014 21017 1745;
0056997993999992012012319004+43050-070833FM-18+0003BGXN3V0202201N001019999999N9999999N1+00111-00111999999REMSYN047CMAN  23194 BGXN3 46/// /2202 10011 21011 1845;
0056997993999992012012320004+43050-070833FM-18+0003BGXN3V0209999C000019999999N9999999N1+00161-00061999999REMSYN047CMAN  23204 BGXN3 46/// /0000 10016 21006 1945;
0056997993999992012012321004+43050-070833FM-18+0003BGXN3V0200201N000519999999N9999999N1+00161+00061999999REMSYN047CMAN  23214 BGXN3 46/// /0201 10016 20006 2045;
0056997993999992012012322004+43050-070833FM-18+0003BGXN3V0202101N001019999999N9999999N1+00091+00001999999REMSYN047CMAN  23224 BGXN3 46/// /2102 10009 20000 2145;
0056997993999992012012323004+43050-070833FM-18+0003BGXN3V0209999C000019999999N9999999N1+00061+00021999999REMSYN047CMAN  23234 BGXN3 46/// /0000 10006 20002 2245;
0056997993999992012012400004+43050-070833FM-18+0003BGXN3V0209999C000019999999N9999999N1+00061+00021999999REMSYN047CMAN  24004 BGXN3 46/// /0000 10006 20002 2345;
0056997993999992012012401004+43050-070833FM-18+0003BGXN3V0200701N001019999999N9999999N1+00461+00451999999REMSYN047CMAN  24014 BGXN3 46/// /0702 10046 20045 0045;
0056997993999992012012402004+43050-070833FM-18+0003BGXN3V0200801N002119999999N9999999N1+00601+00591999999REMSYN047CMAN  24024 BGXN3 46/// /0804 10060 20059 0145;
0056997993999992012012403004+43050-070833FM-18+0003BGXN3V0200801N001519999999N9999999N1+00661+00651999999REMSYN047CMAN  24034 BGXN3 46/// /0803 10066 20065 0245;
0056997993999992012012404004+43050-070833FM-18+0003BGXN3V0200801N002619999999N9999999N1+00721+00711999999REMSYN047CMAN  24044 BGXN3 46/// /0805 10072 20071 0345;
0056997993999992012012405004+43050-070833FM-18+0003BGXN3V0201101N002119999999N9999999N1+00741+00731999999REMSYN047CMAN  24054 BGXN3 46/// /1104 10074 20073 0445;
0056997993999992012012406004+43050-070833FM-18+0003BGXN3V0201001N001519999999N9999999N1+00751+00741999999REMSYN047CMAN  24064 BGXN3 46/// /1003 10075 20074 0545;
0056997993999992012012407004+43050-070833FM-18+0003BGXN3V0201201N001519999999N9999999N1+00801+00801999999REMSYN047CMAN  24074 BGXN3 46/// /1203 10080 20080 0645;
0056997993999992012012408004+43050-070833FM-18+0003BGXN3V0201501N002119999999N9999999N1+00961+00961999999REMSYN047CMAN  24084 BGXN3 46/// /1504 10096 20096 0745;
0056997993999992012012409004+43050-070833FM-18+0003BGXN3V0201901N002119999999N9999999N1+00951+00941999999REMSYN047CMAN  24094 BGXN3 46/// /1904 10095 20094 0845;
0056997993999992012012410004+43050-070833FM-18+0003BGXN3V0202301N001519999999N9999999N1+00691+00621999999REMSYN047CMAN  24104 BGXN3 46/// /2303 10069 20062 0945;
0056997993999992012012411004+43050-070833FM-18+0003BGXN3V0209999C000019999999N9999999N1+00531+00501999999REMSYN047CMAN  24114 BGXN3 46/// /0000 10053 20050 1045;
0062997993999992012012412004+43050-070833FM-18+0003BGXN3V0209999C000019999999N9999999N1+00511+00501101101REMSYN053CMAN  24124 BGXN3 46/// /0000 10051 20050 40110 1200;
0056997993999992012012413004+43050-070833FM-18+0003BGXN3V0202101N001019999999N9999999N1+00671+00661999999REMSYN047CMAN  24134 BGXN3 46/// /2102 10067 20066 1245;
0056997993999992012012414004+43050-070833FM-18+0003BGXN3V0201801N000519999999N9999999N1+00671+00661999999REMSYN047CMAN  24144 BGXN3 46/// /1801 10067 20066 1345;
0056997993999992012012415004+43050-070833FM-18+0003BGXN3V0201901N002119999999N9999999N1+01031+00791999999REMSYN047CMAN  24154 BGXN3 46/// /1904 10103 20079 1445;
0056997993999992012012416004+43050-070833FM-18+0003BGXN3V0202101N002619999999N9999999N1+01001+00641999999REMSYN047CMAN  24164 BGXN3 46/// /2105 10100 20064 1545;
0056997993999992012012417004+43050-070833FM-18+0003BGXN3V0202201N004619999999N9999999N1+00991+00471999999REMSYN047CMAN  24174 BGXN3 46/// /2209 10099 20047 1645;
0056997993999992012012418004+43050-070833FM-18+0003BGXN3V0202201N003619999999N9999999N1+00991+00391999999REMSYN047CMAN  24184 BGXN3 46/// /2207 10099 20039 1745;
0056997993999992012012419004+43050-070833FM-18+0003BGXN3V0202401N002619999999N9999999N1+00901+00351999999REMSYN047CMAN  24194 BGXN3 46/// /2405 10090 20035 1845;
0062997993999992012012420004+43050-070833FM-18+0003BGXN3V0202401N002619999999N9999999N1+00801+00291999999REMSYN053CMAN  24204 BGXN3 46/// /2405 10080 20029 0210 91945;
0056997993999992012012421004+43050-070833FM-18+0003BGXN3V0202401N002119999999N9999999N1+00681+00211999999REMSYN047CMAN  24214 BGXN3 46/// /2404 10068 20021 2045;
0056997993999992012012422004+43050-070833FM-18+0003BGXN3V0202401N003119999999N9999999N1+00561+00121999999REMSYN047CMAN  24224 BGXN3 46/// /2406 10056 20012 2145;
0056997993999992012012423004+43050-070833FM-18+0003BGXN3V0202501N002119999999N9999999N1+00561+00041999999REMSYN047CMAN  24234 BGXN3 46/// /2504 10056 20004 2245;
0056997993999992012012500004+43050-070833FM-18+0003BGXN3V0202501N001519999999N9999999N1+00541+00021999999REMSYN047CMAN  25004 BGXN3 46/// /2503 10054 20002 2345;
0056997993999992012012501004+43050-070833FM-18+0003BGXN3V0202501N000519999999N9999999N1+00291+00011999999REMSYN047CMAN  25014 BGXN3 46/// /2501 10029 20001 0045;
0056997993999992012012502004+43050-070833FM-18+0003BGXN3V0202301N003119999999N9999999N1+00331-00031999999REMSYN047CMAN  25024 BGXN3 46/// /2306 10033 21003 0145;
0056997993999992012012503004+43050-070833FM-18+0003BGXN3V0202201N001519999999N9999999N1+00211-00011999999REMSYN047CMAN  25034 BGXN3 46/// /2203 10021 21001 0245;
0074997993999992012012504004+43050-070833FM-18+0003BGXN3V0202301N004619999999N9999999N1+00371-00101999999REMSYN065CMAN  25044 BGXN3 46/// /2309 10037 21010 51020 90400 222// 0014;
0056997993999992012012505004+43050-070833FM-18+0003BGXN3V0202301N005119999999N9999999N1+00321-00211999999REMSYN047CMAN  25054 BGXN3 46/// /2310 10032 21021 0445;
0056997993999992012012506004+43050-070833FM-18+0003BGXN3V0202301N003119999999N9999999N1+00201-00211999999REMSYN047CMAN  25064 BGXN3 46/// /2306 10020 21021 0545;
0056997993999992012012507004+43050-070833FM-18+0003BGXN3V0202201N003119999999N9999999N1+00201-00291999999REMSYN047CMAN  25074 BGXN3 46/// /2206 10020 21029 0645;
0056997993999992012012508004+43050-070833FM-18+0003BGXN3V0202101N002619999999N9999999N1+00121-00311999999REMSYN047CMAN  25084 BGXN3 46/// /2105 10012 21031 0745;
0056997993999992012012509004+43050-070833FM-18+0003BGXN3V0202101N002619999999N9999999N1+00171-00321999999REMSYN047CMAN  25094 BGXN3 46/// /2105 10017 21032 0845;
0056997993999992012012510004+43050-070833FM-18+0003BGXN3V0202201N003119999999N9999999N1+00201-00311999999REMSYN047CMAN  25104 BGXN3 46/// /2206 10020 21031 0945;
0056997993999992012012511004+43050-070833FM-18+0003BGXN3V0202201N004119999999N9999999N1+00211-00321999999REMSYN047CMAN  25114 BGXN3 46/// /2208 10021 21032 1045;
0056997993999992012012512004+43050-070833FM-18+0003BGXN3V0202201N003619999999N9999999N1+00211-00341999999REMSYN047CMAN  25124 BGXN3 46/// /2207 10021 21034 1145;
0056997993999992012012513004+43050-070833FM-18+0003BGXN3V0202301N003619999999N9999999N1+00131-00261999999REMSYN047CMAN  25134 BGXN3 46/// /2307 10013 21026 1245;
0056997993999992012012514004+43050-070833FM-18+0003BGXN3V0202301N005719999999N9999999N1+00261-00331999999REMSYN047CMAN  25144 BGXN3 46/// /2311 10026 21033 1345;
0056997993999992012012515004+43050-070833FM-18+0003BGXN3V0202301N005119999999N9999999N1+00261-00371999999REMSYN047CMAN  25154 BGXN3 46/// /2310 10026 21037 1445;
0056997993999992012012516004+43050-070833FM-18+0003BGXN3V0202401N003619999999N9999999N1+00361-00321999999REMSYN047CMAN  25164 BGXN3 46/// /2407 10036 21032 1545;
0056997993999992012012517004+43050-070833FM-18+0003BGXN3V0202301N006219999999N9999999N1+00281-00331999999REMSYN047CMAN  25174 BGXN3 46/// /2312 10028 21033 1645;
0056997993999992012012518004+43050-070833FM-18+0003BGXN3V0202301N006719999999N9999999N1+00371-00311999999REMSYN047CMAN  25184 BGXN3 46/// /2313 10037 21031 1745;
0056997993999992012012519004+43050-070833FM-18+0003BGXN3V0202301N008219999999N9999999N1+00321-00341999999REMSYN047CMAN  25194 BGXN3 46/// /2316 10032 21034 1845;
0056997993999992012012520004+43050-070833FM-18+0003BGXN3V0202401N006219999999N9999999N1+00331-00351999999REMSYN047CMAN  25204 BGXN3 46/// /2412 10033 21035 1945;
0056997993999992012012521004+43050-070833FM-18+0003BGXN3V0202301N005119999999N9999999N1+00271-00341999999REMSYN047CMAN  25214 BGXN3 46/// /2310 10027 21034 2045;
0056997993999992012012522004+43050-070833FM-18+0003BGXN3V0202301N004619999999N9999999N1+00191-00341999999REMSYN047CMAN  25224 BGXN3 46/// /2309 10019 21034 2145;
0056997993999992012012523004+43050-070833FM-18+0003BGXN3V0202201N003119999999N9999999N1+00141-00351999999REMSYN047CMAN  25234 BGXN3 46/// /2206 10014 21035 2245;
0056997993999992012012600004+43050-070833FM-18+0003BGXN3V0202101N002619999999N9999999N1+00111-00411999999REMSYN047CMAN  26004 BGXN3 46/// /2105 10011 21041 2345;
0056997993999992012012601004+43050-070833FM-18+0003BGXN3V0202101N003619999999N9999999N1+00091-00411999999REMSYN047CMAN  26014 BGXN3 46/// /2107 10009 21041 0045;
0062997993999992012012602004+43050-070833FM-18+0003BGXN3V0202201N003619999999N9999999N1+00071-00411999999REMSYN053CMAN  26024 BGXN3 46/// /2207 10007 21041 58003 9020;
0056997993999992012012603004+43050-070833FM-18+0003BGXN3V0202301N002619999999N9999999N1+00041-00301999999REMSYN047CMAN  26034 BGXN3 46/// /2305 10004 21030 0245;
0056997993999992012012604004+43050-070833FM-18+0003BGXN3V0202401N002619999999N9999999N1+00071-00361999999REMSYN047CMAN  26044 BGXN3 46/// /2405 10007 21036 0345;
0056997993999992012012605004+43050-070833FM-18+0003BGXN3V0202501N001519999999N9999999N1+00081-00501999999REMSYN047CMAN  26054 BGXN3 46/// /2503 10008 21050 0445;
