0097998015999992010010105004+43333-070550FM-18+0019WEXM1V0203201N003119999999N9999999N1-00321-00371999999REMSYN088CMAN  01054 WEXM1 46/// /3206 11032 21037 8007 90500 222// 00129 333 91203 555 TIDE1458;
0084998015999992010010106004+43333-070550FM-18+0019WEXM1V0203201N003619999999N9999999N1-00321-00361999999REMSYN075CMAN  01064 WEXM1 46/// /3207 11032 21036 58011 90600 222// 001891205 5220;
0096998015999992010010107004+43333-070550FM-18+0019WEXM1V0203101N004119999999N9999999N1-00331-00361999999REMSYN087CMAN  01074 WEXM1 46/// /3108 11033 21036 56012 90700 222// 00186999 82820 88358 98315;
0082998015999992010010108004+43333-070550FM-18+0019WEXM1V0203201N004119999999N9999999N1-00321-00351999999REMSYN073CMAN  01084 WEXM1 46/// /3208 11032 21035 57003 90800 206 5 000529 22032;
0068998015999992010010109004+43333-070550FM-18+0019WEXM1V0203201N003619999999N9999999N1-00301-00341101301REMSYN059CMAN  01094 WEXM1 46/// /3207 11030 21034 40130 8010 90900;
0062998015999992010010110004+43333-070550FM-18+0019WEXM1V0203201N003119999999N9999999N1-00281-00351101201REMSYN053CMAN  01104 WEXM1 46/// /3206 11028 21035 40120 1000;
0088998015999992010010111004+43333-070550FM-18+0019WEXM1V0203201N003119999999N9999999N1-00261-00341999999REMSYN079CMAN  01114 WEXM1 46/// /3206 11026 21034 91036 333 91214 5 333 91239 555 2002;
0097998015999992010010112004+43333-070550FM-18+0019WEXM1V0203201N002619999999N9999999N1-00231-00331101201REMSYN088CMAN  01124 WEXM1 46/// /3205 11023 21033 40120 1200 222// 00143 333 91208 555 TIDE1030;
0062998015999992010010113004+43333-070550FM-18+0019WEXM1V0203101N003119999999N9999999N1-00201-00311999999REMSYN053CMAN  01134 WEXM1 46/// /3106 11020 21031 0250 91245;
0062998015999992010010115004+43333-070550FM-18+0019WEXM1V0203301N002619999999N9999999N1-00091-00171101101REMSYN053CMAN 01154 WEXM1 46/// /3305 11009 21017 40110 91515;
0094998015999992010010116004+43333-070550FM-18+0019WEXM1V0203201N002119999999N9999999N1-00051-00131101001REMSYN085CMAN  01164 WEXM1 46/// /3204 11005 21013 40100 91600 222// 0027555 8 555 1003 22003;
0094998015999992010010117004+43333-070550FM-18+0019WEXM1V0203201N003619999999N9999999N1-00031-00111999999REMSYN085CMAN  01174 WEXM1 46/// /3207 11003 21011 56010 91700 222// 0027555 0 555 1002 22002;
0000998015999992010010118004+43333-070550FM-18+0019WEXM1V0203301N003619999999N9999999N1+00001-00061999999
0084998015999992010010119004+43333-070550FM-18+0019WEXM1V0203401N003119999999N9999999N1+00021+00011999999REMSYN075CMAN  01194 WEXM1 46/// /3406 10002 20001 91854 333 91216 555 09 555 60005;
0068998015999992010010120004+43333-070550FM-18+0019WEXM1V0203501N003119999999N9999999N1+00031+00031100801REMSYN059CMAN  01204 WEXM1 46/// /3506 10003 20003 40080 6030 92000;
0094998015999992010010121004+43333-070550FM-18+0019WEXM1V0203501N003619999999N9999999N1+00021+00021999999REMSYN085CMAN  01214 WEXM1 46/// /3507 10002 20002 40150 333 91224 555  91204 555 11003 22003;
0000998015999992010010122004+43333-070550FM-18+0019WEXM1V0203501N003119999999N9999999N1-00011-00011100801
0000998015999992010010123004+43333-070550FM-18+0019WEXM1V0203501N003619999999N9999999N1-00071-00071100801
0094998015999992010010200004+43333-070550FM-18+0019WEXM1V0203501N003119999999N9999999N1-00131-00131999999REMSYN085CMAN  02004 WEXM1 46/// /3506 11013 21013 58003 90000 222// 0027555 7 555 1002 22002;
0068998015999992010010201004+43333-070550FM-18+0019WEXM1V0203501N003119999999N9999999N1-00221-00221999999REMSYN059CMAN  02014 WEXM1 46/// /3506 11022 21022 40250 //// 90320;
0085998015999992010010202004+43333-070550FM-18+0019WEXM1V0203601N003119999999N9999999N1-00251-00251100601ADDMD1710201+9999REMSYN059CMAN 02024 WEXM1 46/// /3606 11025 21025 40060 57020 90200;
0085998015999992010010203004+43333-070550FM-18+0019WEXM1V0203601N004119999999N9999999N1-00291-00321100601ADDMD1710201+9999REMSYN059CMAN 02034 WEXM1 46/// /3608 11029 21032 40060 57020 90300;
0097998015999992010010204004+43333-070550FM-18+0019WEXM1V0203601N003119999999N9999999N1-00351-00381999999REMSYN088CMAN  02044 WEXM1 46/// /3606 11035 21038 53015 90400 333 91220 5333 91228 555 TIDE1298;
0091998015999992010010205004+43333-070550FM-18+0019WEXM1V0203601N003619999999N9999999N1-00381-00411100401REMSYN082CMAN  02054 WEXM1 46/// /3607 11038 21041 40040 333 91236 555  91227 555 TIDE1310;
0094998015999992010010206004+43333-070550FM-18+0019WEXM1V0203501N003619999999N9999999N1-00421-00451100401REMSYN085CMAN  02064 WEXM1 46/// /3507 11042 21045 40040 90600 555 / 00101204 555 11002 22002;
0096998015999992010010207004+43333-070550FM-18+0019WEXM1V0203501N003619999999N9999999N1-00461-00491100401REMSYN087CMAN  02074 WEXM1 46/// /3507 11046 21049 40040 90700 222// 0005 30175 90527 333 60000;
0088998015999992010010208004+43333-070550FM-18+0019WEXM1V0203501N004119999999N9999999N1-00481-00511100301REMSYN079CMAN  02084 WEXM1 46/// /3508 11048 21051 40030 90800 222// 0005555 6 555 2003;
0062998015999992010010210004+43333-070550FM-18+0019WEXM1V0203401N003619999999N9999999N1-00491-00521999999REMSYN053CMAN  02104 WEXM1 46/// /3407 11049 21052 40250 1030;
0068998015999992010010211004+43333-070550FM-18+0019WEXM1V0203401N004119999999N9999999N1-00501-00511999999REMSYN059CMAN  02114 WEXM1 46/// /3408 11050 21051 40210 2010 91100;
0084998015999992010010212004+43333-070550FM-18+0019WEXM1V0203401N004119999999N9999999N1-00491-00501999999REMSYN075CMAN  02124 WEXM1 46/// /3408 11049 21050 40210 1200 222// 00159 333 91221;
0084998015999992010010213004+43333-070550FM-18+0019WEXM1V0203401N004119999999N9999999N1-00491-00501999999REMSYN075CMAN  02134 WEXM1 46/// /3408 11049 21050 54000 91300 222// 0003 333 91217;
0094998015999992010010214004+43333-070550FM-18+0019WEXM1V0203401N005119999999N9999999N1-00511-00521999999REMSYN085CMAN  02144 WEXM1 46/// /3410 11051 21052 57008 91400 222// 002791211 555 1003 22003;
0091998015999992010010215004+43333-070550FM-18+0019WEXM1V0203401N004119999999N9999999N1-00491-00501999999REMSYN082CMAN  02154 WEXM1 46/// /3408 11049 21050 91448 333 91213 51237 555 2 555 5 87464;
0000998015999992010010216004+43333-070550FM-18+0019WEXM1V0203301N004119999999N9999999N1-00441-00451099801
0000998015999992010010217004+43333-070550FM-18+0019WEXM1V0203301N005119999999N9999999N1-00431-00441099701
0084998015999992010010218004+43333-070550FM-18+0019WEXM1V0203301N003619999999N9999999N1-00411-00411099601REMSYN075CMAN  02184 WEXM1 46/// /3307 11041 21041 49960 91800 222// 0010 333 91235;
0072998015999992010010219004+43333-070550FM-18+0019WEXM1V0203301N003619999999N9999999N1-00391-00391999999REMSYN063CMAN  02194 WEXM1 46/// /3307 11039 21039 40190 9190 333 91211;
0000998015999992010010220004+43333-070550FM-18+0019WEXM1V0203201N003619999999N9999999N1-00361-00361999999
0095998015999992010010221004+43333-070550FM-18+0019WEXM1V0203101N003619999999N9999999N1-00331-00331099401REMSYN086CMAN  02214 WEXM1 46/// /3107 11033 21033 49940 333 10253 20196 91005 555 20022 91021;
0062998015999992010010222004+43333-070550FM-18+0019WEXM1V0203101N006219999999N9999999N1-00321-00321999999REMSYN053CMAN  02224 WEXM1 46/// /3112 11032 21032 40190 2200;
0079998015999992010010223004+43333-070550FM-18+0019WEXM1V0203201N006219999999N9999999N1-00331-00331999999REMSYN070CMAN  02234 WEXM1 46/// /3212 11033 21033 40210 923091225 555 9 00116;
0000998015999992010010300004+43333-070550FM-18+0019WEXM1V0203001N005719999999N9999999N1-00411-00411099101
0062998015999992010010414004+43333-070550FM-18+0019WEXM1V0202701N002619999999N9999999N1-00101-00581999999REMSYN053CMAN  04144 WEXM1 46/// /2705 11010 21058 0220 91430;
0091998015999992010010415004+43333-070550FM-18+0019WEXM1V0202801N002619999999N9999999N1-00081-00561999999REMSYN082CMAN  04154 WEXM1 46/// /2805 11008 21056 1454 222// 00141 333 91213 555 TIDE0991;
0074998015999992010010416004+43333-070550FM-18+0019WEXM1V0202801N003119999999N9999999N1-00011-00551999999REMSYN065CMAN  04164 WEXM1 46/// /2806 11001 21055 55000 91600 222// 0027;
0062998015999992010010417004+43333-070550FM-18+0019WEXM1V0202801N002619999999N9999999N1+00101-00551999999REMSYN053CMAN  04174 WEXM1 46/// /2805 10010 21055 40220 1730;
0062998015999992010010418004+43333-070550FM-18+0019WEXM1V0202601N002619999999N9999999N1+00081-00541999999REMSYN053CMAN  04184 WEXM1 46/// /2605 10008 21054 40320 1745;
0084998015999992010010419004+43333-070550FM-18+0019WEXM1V0202601N003119999999N9999999N1+00011-00611999999REMSYN075CMAN  04194 WEXM1 46/// /2606 10001 21061 53005 91900 222// 002791227 555 ;
0062998015999992010010420004+43333-070550FM-18+0019WEXM1V0202801N002119999999N9999999N1+00051-00641999999REMSYN053CMAN  04204 WEXM1 46/// /2804 10005 21064 40220 2000;
0094998015999992010010421004+43333-070550FM-18+0019WEXM1V0202701N002119999999N9999999N1+00051-00641999999REMSYN085CMAN  04214 WEXM1 46/// /2704 10005 21064 92054 333 91211 555  91203 555 11002 22002;
0072998015999992010010422004+43333-070550FM-18+0019WEXM1V0202701N001519999999N9999999N1-00061-00641099801REMSYN063CMAN  04224 WEXM1 46/// /2703 11006 21064 49980 9220 333 91214;
0103998015999992010010423004+43333-070550FM-18+0019WEXM1V0202901N002119999999N9999999N1-00201-00691999999REMSYN094CMAN  04234 WEXM1 46/// /2904 11020 21069 40210 184 20091 30143 40169 52016 22200 04198 85131;
0062998015999992010010500004+43333-070550FM-18+0019WEXM1V0202901N002619999999N9999999N1-00211-00681999999REMSYN053CMAN  05004 WEXM1 46/// /2905 11021 21068 40180 2345;
0056998015999992010010502004+43333-070550FM-18+0019WEXM1V0202801N002619999999N9999999N1-00261-00701999999REMSYN047CMAN  05024 WEXM1 46/// /2805 11026 21070 0215;
0091998015999992010010503004+43333-070550FM-18+0019WEXM1V0202701N002119999999N9999999N1-00261-00701100001REMSYN082CMAN  05034 WEXM1 46/// /2704 11026 21070 40000 005 40115 52030 82040 22213 00040;
0056998015999992010010504004+43333-070550FM-18+0019WEXM1V0202701N001519999999N9999999N1-00271-00691999999REMSYN047CMAN  05044 WEXM1 46/// /2703 11027 21069 0345;
0056998015999992010010505004+43333-070550FM-18+0019WEXM1V0202701N002119999999N9999999N1-00271-00671999999REMSYN047CMAN  05054 WEXM1 46/// /2704 11027 21067 0445;
0089998015999992010010506004+43333-070550FM-18+0019WEXM1V0202701N001519999999N9999999N1-00291-00691999999REMSYN080CMAN  05064 WEXM1 46/// /2703 11029 21069 40190 333 20085 91010 555 10290 91023;
0094998015999992010010507004+43333-070550FM-18+0019WEXM1V0202701N001519999999N9999999N1-00291-00691999999REMSYN085CMAN  05074 WEXM1 46/// /2703 11029 21069 90642 333 91208 555  91205 555 11002 22002;
0000998015999992010010508004+43333-070550FM-18+0019WEXM1V0202701N002119999999N9999999N1-00301-00681999999
0068998015999992010010509004+43333-070550FM-18+0019WEXM1V0202701N001519999999N9999999N1-00301-00681999999REMSYN059CMAN  05094 WEXM1 46/// /2703 11030 21068 40320 4000 90900;
0091998015999992010010510004+43333-070550FM-18+0019WEXM1V0202901N002119999999N9999999N1-00311-00711999999REMSYN082CMAN  05104 WEXM1 46/// /2904 11031 21071 40200 91000 222// 001291212 555 0 80857;
0079998015999992010010511004+43333-070550FM-18+0019WEXM1V0202701N001519999999N9999999N1-00361-00721100001REMSYN070CMAN  05114 WEXM1 46/// /2703 11036 21072 40000 33 91200 555 TIDE1169;
0062998015999992010010512004+43333-070550FM-18+0019WEXM1V0202701N001519999999N9999999N1-00381-00741999999REMSYN053CMAN  05124 WEXM1 46/// /2703 11038 21074 40210 1145;
0096998015999992010010513004+43333-070550FM-18+0019WEXM1V0203001N002619999999N9999999N1-00371-00731100001REMSYN087CMAN  05134 WEXM1 46/// /3005 11037 21073 40000 91300 222// 000491214 555 28 333 60000;
0090998015999992010010514004+43333-070550FM-18+0019WEXM1V0202801N001519999999N9999999N1-00281-00701100001REMSYN081CMAN  05144 WEXM1 46/// /2803 11028 21070 40000 91400 222// 0027 333 90710 91105;
0079998015999992010010515004+43333-070550FM-18+0019WEXM1V0202801N001519999999N9999999N1-00111-00661100001REMSYN070CMAN  05154 WEXM1 46/// /2803 11011 21066 40000 333 91208 555 3 60005;
0084998015999992010010516004+43333-070550FM-18+0019WEXM1V0202901N001519999999N9999999N1+00021-00621100001REMSYN075CMAN  05164 WEXM1 46/// /2903 10002 21062 40000 91600 222// 0015 333 91219;
0084998015999992010010517004+43333-070550FM-18+0019WEXM1V0203001N002119999999N9999999N1+00141-00531099901REMSYN075CMAN  05174 WEXM1 46/// /3004 10014 21053 49990 00100 222// 001091208 555 ;
0091998015999992010010518004+43333-070550FM-18+0019WEXM1V0203001N002119999999N9999999N1+00121-00501099801REMSYN082CMAN  05184 WEXM1 46/// /3004 10012 21050 49980 91800 222// 001152015 22261 00131;
0096998015999992010010519004+43333-070550FM-18+0019WEXM1V0202601N001519999999N9999999N1+00121-00361099801REMSYN087CMAN  05194 WEXM1 46/// /2603 10012 21036 49980 91900 222// 002791205 555 00 333 60000;
0000998015999992010010520004+43333-070550FM-18+0019WEXM1V0202801N001519999999N9999999N1+00071-00321999999
0109998015999992010010521004+43333-070550FM-18+0019WEXM1V0203001N002619999999N9999999N1+00021-00321999999REMSYN100CMAN  05214 WEXM1 46/// /3005 10002 21032 54000 92100 222// 000591205 555 708 70042 333 90710 91136;
0104998015999992010010522004+43333-070550FM-18+0019WEXM1V0203001N002119999999N9999999N1-00031-00321999999REMSYN095CMAN  05224 WEXM1 46/// /3004 11003 21032 53023 92200 222// 000791206 555 00 00130 10603 70013;
0056998015999992010010601004+43333-070550FM-18+0019WEXM1V0203101N002619999999N9999999N1-00131-00431999999REMSYN047CMAN  06014 WEXM1 46/// /3105 11013 21043 0100;
0056998015999992010010602004+43333-070550FM-18+0019WEXM1V0203201N002119999999N9999999N1-00141-00441999999REMSYN047CMAN  06024 WEXM1 46/// /3204 11014 21044 0145;
0056998015999992010010603004+43333-070550FM-18+0019WEXM1V0203101N003119999999N9999999N1-00191-00661999999REMSYN047CMAN  06034 WEXM1 46/// /3106 11019 21066 0315;
0068998015999992010010604004+43333-070550FM-18+0019WEXM1V0203101N003119999999N9999999N1-00201-00661999999REMSYN059CMAN  06044 WEXM1 46/// /3106 11020 21066 40220 1010 90400;
0062998015999992010010605004+43333-070550FM-18+0019WEXM1V0203001N002119999999N9999999N1-00241-00621099901REMSYN053CMAN  06054 WEXM1 46/// /3004 11024 21062 49990 0445;
0085998015999992010010606004+43333-070550FM-18+0019WEXM1V0202801N001519999999N9999999N1-00331-00681099901REMSYN076CMAN  06064 WEXM1 46/// /2803 11033 21068 49990 90600 222// 001191212 555 3;
0084998015999992010010607004+43333-070550FM-18+0019WEXM1V0202701N001519999999N9999999N1-00421-00731099901REMSYN075CMAN  06074 WEXM1 46/// /2703 11042 21073 49990 333 91209 555 3 91206 555 ;
0114998015999992010010608004+43333-070550FM-18+0019WEXM1V0202701N002119999999N9999999N1-00501-00761099901REMSYN105CMAN  06084 WEXM1 46/// /2704 11050 21076 49990 90800 222// 0027 81602 333 55300 20000 30000 817// 85071;
0068998015999992010010609004+43333-070550FM-18+0019WEXM1V0202701N002119999999N9999999N1-00511-00771999999REMSYN059CMAN  06094 WEXM1 46/// /2704 11051 21077 40220 5000 90900;
0062998015999992010010610004+43333-070550FM-18+0019WEXM1V0202701N001519999999N9999999N1-00641-00841999999REMSYN053CMAN  06104 WEXM1 46/// /2703 11064 21084 40220 1000;
0094998015999992010010611004+43333-070550FM-18+0019WEXM1V0202701N001519999999N9999999N1-00651-00851099801REMSYN085CMAN  06114 WEXM1 46/// /2703 11065 21085 49980 91100 222// 002791214 555 1003 22003;
0096998015999992010010612004+43333-070550FM-18+0019WEXM1V0202701N002119999999N9999999N1-00641-00871099901REMSYN087CMAN  06124 WEXM1 46/// /2704 11064 21087 49990 56020 91200 333 91230 555  60007 92438;
0056998015999992010010613004+43333-070550FM-18+0019WEXM1V0202601N002119999999N9999999N1-00561-00831999999REMSYN047CMAN  06134 WEXM1 46/// /2604 11056 21083 1245;
0094998015999992010010614004+43333-070550FM-18+0019WEXM1V0202801N002119999999N9999999N1-00471-00811999999REMSYN085CMAN  06144 WEXM1 46/// /2804 11047 21081 91354 333 91207 5 333 91215 555 1002 22002;
0114998015999992010010615004+43333-070550FM-18+0019WEXM1V0202801N002619999999N9999999N1-00231-00761099901REMSYN105CMAN  06154 WEXM1 46/// /2805 11023 21076 49990 55013 91500 333 91214 555  56000 57802 59003 82817 80858;
0068998015999992010010616004+43333-070550FM-18+0019WEXM1V0202901N003619999999N9999999N1-00121-00781099901REMSYN059CMAN  06164 WEXM1 46/// /2907 11012 21078 49990 52020 9160;
0000998015999992010010617004+43333-070550FM-18+0019WEXM1V0202801N003619999999N9999999N1-00071-00791099801
0084998015999992010010618004+43333-070550FM-18+0019WEXM1V0202701N002619999999N9999999N1+00011-00761099701REMSYN075CMAN  06184 WEXM1 46/// /2705 10001 21076 49970 91800 222// 001191242 555 ;
0094998015999992010010619004+43333-070550FM-18+0019WEXM1V0202601N002619999999N9999999N1+00021-00751099701REMSYN085CMAN  06194 WEXM1 46/// /2605 10002 21075 49970 91900 222// 00111243 555 11032 22034;
0097998015999992010010620004+43333-070550FM-18+0019WEXM1V0202601N003119999999N9999999N1+00011-00741999999REMSYN088CMAN  06204 WEXM1 46/// /2606 10001 21074 56009 920091203 555 083 10706 70031 333 91216;
0085998015999992010010621004+43333-070550FM-18+0019WEXM1V0202701N002119999999N9999999N1-00111-00771099701REMSYN076CMAN  06214 WEXM1 46/// /2704 11011 21077 49970 92100 222// 002658006 83620;
0097998015999992010010622004+43333-070550FM-18+0019WEXM1V0202701N002619999999N9999999N1-00211-00781099801REMSYN088CMAN  06224 WEXM1 46/// /2705 11021 21078 49980 92200 333 91207 5 10706 70030 333 91216;
0097998015999992010010623004+43333-070550FM-18+0019WEXM1V0202601N002119999999N9999999N1-00301-00811099801REMSYN088CMAN  06234 WEXM1 46/// /2604 11030 21081 49980 333 91204 5 0010555 706 70030 333 91216;
0062998015999992010010700004+43333-070550FM-18+0019WEXM1V0202701N002119999999N9999999N1-00281-00771099901REMSYN053CMAN  07004 WEXM1 46/// /2704 11028 21077 49990 0000;
0068998015999992010010701004+43333-070550FM-18+0019WEXM1V0202801N002619999999N9999999N1-00251-00701999999REMSYN059CMAN  07014 WEXM1 46/// /2805 11025 21070 40200 2010 90100;
0068998015999992010010702004+43333-070550FM-18+0019WEXM1V0202701N002119999999N9999999N1-00261-00711099901REMSYN059CMAN  07024 WEXM1 46/// /2704 11026 21071 49990 1010 90200;
0068998015999992010010703004+43333-070550FM-18+0019WEXM1V0202701N001519999999N9999999N1-00301-00811099901REMSYN059CMAN  07034 WEXM1 46/// /2703 11030 21081 49990 3010 90300;
0068998015999992010010704004+43333-070550FM-18+0019WEXM1V0202801N002119999999N9999999N1-00331-00841999999REMSYN059CMAN  07044 WEXM1 46/// /2804 11033 21084 40210 1010 90200;
0091998015999992010010705004+43333-070550FM-18+0019WEXM1V0202701N001019999999N9999999N1-00411-00951100001REMSYN082CMAN  07054 WEXM1 46/// /2702 11041 21095 40000 333 91201 555 3 91209 555 IDE1057;
0075998015999992010010706004+43333-070550FM-18+0019WEXM1V0202601N001019999999N9999999N1-00451-00991100001REMSYN066CMAN  07064 WEXM1 46/// /2602 11045 21099 40000 90600 222// 00270;
0085998015999992010010707004+43333-070550FM-18+0019WEXM1V0202701N002119999999N9999999N1-00421-00941100001REMSYN076CMAN  07074 WEXM1 46/// /2704 11042 21094 40000 0700 333 91201 555 TIDE1108;
0068998015999992010010708004+43333-070550FM-18+0019WEXM1V0202801N002119999999N9999999N1-00441-00891999999REMSYN059CMAN  07084 WEXM1 46/// /2804 11044 21089 40200 4000 90800;
0000998015999992010010709004+43333-070550FM-18+0019WEXM1V0202701N002119999999N9999999N1-00451-00881100101
0088998015999992010010710004+43333-070550FM-18+0019WEXM1V0202601N002119999999N9999999N1-00451-00881999999REMSYN079CMAN  07104 WEXM1 46/// /2604 11045 21088 90948 333 91202 555  555 11006 22007;
0096998015999992010010711004+43333-070550FM-18+0019WEXM1V0202701N001519999999N9999999N1-00491-00881999999REMSYN087CMAN  07114 WEXM1 46/// /2703 11049 21088 51003 91100 222// 0027 39891 91004 333 60000;
0097998015999992010010712004+43333-070550FM-18+0019WEXM1V0202801N002119999999N9999999N1-00371-00861100201REMSYN088CMAN  07124 WEXM1 46/// /2804 11037 21086 40020 91200 222// 001191240 555 0 94919 95839;
0068998015999992010010713004+43333-070550FM-18+0019WEXM1V0202801N002119999999N9999999N1-00311-00821999999REMSYN059CMAN  07134 WEXM1 46/// /2804 11031 21082 40200 2020 91300;
0134998015999992010010714004+43333-070550FM-18+0019WEXM1V0202801N003119999999N9999999N1-00221-00791999999REMSYN125CMAN  07144 WEXM1 46/// /2806 11022 21079 91354 333 91205 540080 54000 75858 8872/ 22254 04167 20303 32321 40303 50502 80155;
0000998015999992010010715004+43333-070550FM-18+0019WEXM1V0202701N002119999999N9999999N1-00071-00731999999
0084998015999992010010716004+43333-070550FM-18+0019WEXM1V0202501N002619999999N9999999N1+00021-00711999999REMSYN075CMAN  07164 WEXM1 46/// /2505 10002 21071 58005 91600 333 91204 5333 91212;
0084998015999992010010717004+43333-070550FM-18+0019WEXM1V0202701N003119999999N9999999N1+00081-00721100301REMSYN075CMAN  07174 WEXM1 46/// /2706 10008 21072 40030 333 91202 5 0011 333 91212;
0068998015999992010010718004+43333-070550FM-18+0019WEXM1V0202801N003119999999N9999999N1+00171-00711100201REMSYN059CMAN  07184 WEXM1 46/// /2806 10017 21071 40020 7020 91800;
0100998015999992010010719004+43333-070550FM-18+0019WEXM1V0202701N002619999999N9999999N1+00231-00701100201REMSYN091CMAN  07194 WEXM1 46/// /2705 10023 21070 40020 91900 222// 0011 877// 333 87708 999 00406;
0000998015999992010010720004+43333-070550FM-18+0019WEXM1V0202601N002619999999N9999999N1+00221-00691999999
0093998015999992010010721004+43333-070550FM-18+0019WEXM1V0202601N002619999999N9999999N1+00141-00691100301REMSYN084CMAN  07214 WEXM1 46/// /2605 10014 21069 40030 92100 222// 000591234 555 603 70014;
0097998015999992010010722004+43333-070550FM-18+0019WEXM1V0202701N002619999999N9999999N1+00041-00691999999REMSYN088CMAN  07224 WEXM1 46/// /2705 10004 21069 58007 92200 222// 000591216 555 029 333 91214;
0088998015999992010010723004+43333-070550FM-18+0019WEXM1V0202701N003619999999N9999999N1-00041-00641100501REMSYN079CMAN  07234 WEXM1 46/// /2707 11004 21064 40050 92300 222// 001191204 58 22009;
0084998015999992010010800004+43333-070550FM-18+0019WEXM1V0202801N002119999999N9999999N1-00091-00661100501REMSYN075CMAN  08004 WEXM1 46/// /2804 11009 21066 40050 90000 222// 0014 333 91207;
0085998015999992010010801004+43333-070550FM-18+0019WEXM1V0202901N002619999999N9999999N1-00141-00691100501ADDMD1110101+9999REMSYN059CMAN 08014 WEXM1 46/// /2905 11014 21069 40050 51010 90100;
0085998015999992010010802004+43333-070550FM-18+0019WEXM1V0202801N002119999999N9999999N1-00231-00721100601ADDMD1310101+9999REMSYN059CMAN 08024 WEXM1 46/// /2804 11023 21072 40060 53010 90200;
0062998015999992010010803004+43333-070550FM-18+0019WEXM1V0203001N002619999999N9999999N1-00331-00841100601REMSYN053CMAN 08034 WEXM1 46/// /3005 11033 21084 40060 90315;
0097998015999992010010804004+43333-070550FM-18+0019WEXM1V0202801N001519999999N9999999N1-00411-00901100601REMSYN088CMAN  08044 WEXM1 46/// /2803 11041 21090 40060 0400 222// 00157 333 91203 555 TIDE1084;
0091998015999992010010805004+43333-070550FM-18+0019WEXM1V0202801N001519999999N9999999N1-00491-00951100601REMSYN082CMAN  08054 WEXM1 46/// /2803 11049 21095 40060 22// 00149 333 91206 555 TIDE1056;
0084998015999992010010806004+43333-070550FM-18+0019WEXM1V0202801N001519999999N9999999N1-00551-01011999999REMSYN075CMAN  08064 WEXM1 46/// /2803 11055 21101 57010 90600 222// 0013 333 91206;
0068998015999992010010807004+43333-070550FM-18+0019WEXM1V0202601N001019999999N9999999N1-00631-01071999999REMSYN059CMAN  08074 WEXM1 46/// /2602 11063 21107 40320 204 555 00;
0078998015999992010010808004+43333-070550FM-18+0019WEXM1V0202601N001019999999N9999999N1-00721-01071100601REMSYN069CMAN  08084 WEXM1 46/// /2602 11072 21107 40060 90800 222// 00112021;
0088998015999992010010809004+43333-070550FM-18+0019WEXM1V0202701N001019999999N9999999N1-00761-01111100601REMSYN079CMAN  08094 WEXM1 46/// /2702 11076 21111 40060 57010 909091223 555 1005 22005;
0088998015999992010010810004+43333-070550FM-18+0019WEXM1V0202901N001019999999N9999999N1-00791-01121100501REMSYN079CMAN  08104 WEXM1 46/// /2902 11079 21112 40050 91000 222// 001055 11004 22004;
0062998015999992010011211004+43333-070550FM-18+0019WEXM1V0202501N001019999999N9999999N1-00371-00751999999REMSYN053CMAN  12114 WEXM1 46/// /2502 11037 21075 0250 91115;
0062998015999992010011212004+43333-070550FM-18+0019WEXM1V0202601N001019999999N9999999N1-00361-00741999999REMSYN053CMAN  12124 WEXM1 46/// /2602 11036 21074 0250 91145;
0062998015999992010011213004+43333-070550FM-18+0019WEXM1V0203001N001019999999N9999999N1-00411-00741999999REMSYN053CMAN  12134 WEXM1 46/// /3002 11041 21074 0280 91330;
0062998015999992010011214004+43333-070550FM-18+0019WEXM1V0203101N001519999999N9999999N1-00321-00721101301REMSYN053CMAN 12144 WEXM1 46/// /3103 11032 21072 40130 91400;
0062998015999992010011215004+43333-070550FM-18+0019WEXM1V0203001N001019999999N9999999N1-00221-00751101301REMSYN053CMAN  12154 WEXM1 46/// /3002 11022 21075 40130 1445;
0088998015999992010011216004+43333-070550FM-18+0019WEXM1V0203401N001519999999N9999999N1-00181-00831101201REMSYN079CMAN  12164 WEXM1 46/// /3403 11018 21083 40120 91600 222// 000355 11005 22006;
0062998015999992010011217004+43333-070550FM-18+0019WEXM1V0202701N002119999999N9999999N1-00081-00871101101REMSYN053CMAN  12174 WEXM1 46/// /2704 11008 21087 40110 1545;
0068998015999992010011218004+43333-070550FM-18+0019WEXM1V0203001N004119999999N9999999N1-00191-01121101001REMSYN059CMAN  12184 WEXM1 46/// /3008 11019 21112 40100 222// 0005;
0068998015999992010011219004+43333-070550FM-18+0019WEXM1V0202701N003619999999N9999999N1-00201-01181100901REMSYN059CMAN  12194 WEXM1 46/// /2707 11020 21118 40090 8020 91900;
0000998015999992010011220004+43333-070550FM-18+0019WEXM1V0202701N004119999999N9999999N1-00261-01271999999
0096998015999992010011221004+43333-070550FM-18+0019WEXM1V0202801N003119999999N9999999N1-00421-01501999999REMSYN087CMAN  12214 WEXM1 46/// /2806 11042 21150 53004 92100 222// 000291233 555 01 333 60000;
0097998015999992010011222004+43333-070550FM-18+0019WEXM1V0202701N002619999999N9999999N1-00591-01471999999REMSYN088CMAN  12224 WEXM1 46/// /2705 11059 21147 57004 92200 333 91207 5 11104 70022 333 91212;
0090998015999992010011223004+43333-070550FM-18+0019WEXM1V0202901N002119999999N9999999N1-00691-01541101201REMSYN081CMAN  12234 WEXM1 46/// /2904 11069 21154 40120 00100 222// 0003 84600 333 83708;
0068998015999992010011300004+43333-070550FM-18+0019WEXM1V0203001N002119999999N9999999N1-00781-01601101301REMSYN059CMAN  13004 WEXM1 46/// /3004 11078 21160 40130 2030 90000;
0062998015999992010011314004+43333-070550FM-18+0019WEXM1V0202901N001519999999N9999999N1-00961-01971999999REMSYN053CMAN  13144 WEXM1 46/// /2903 11096 21197 0280 91430;
0062998015999992010011315004+43333-070550FM-18+0019WEXM1V0202801N001519999999N9999999N1-00651-02021999999REMSYN053CMAN  13154 WEXM1 46/// /2803 11065 21202 0280 91500;
0062998015999992010011316004+43333-070550FM-18+0019WEXM1V0202901N002619999999N9999999N1-00511-02091999999REMSYN053CMAN  13164 WEXM1 46/// /2905 11051 21209 0200 91545;
0062998015999992010011317004+43333-070550FM-18+0019WEXM1V0202801N002119999999N9999999N1-00321-02111101601REMSYN053CMAN 13174 WEXM1 46/// /2804 11032 21211 40160 91645;
0000998015999992010011318004+43333-070550FM-18+0019WEXM1V0202801N002619999999N9999999N1-00231-02241101501
0068998015999992010011319004+43333-070550FM-18+0019WEXM1V0202901N003619999999N9999999N1-00231-02241101501REMSYN059CMAN  13194 WEXM1 46/// /2907 11023 21224 40150 7040 91900;
0068998015999992010011320004+43333-070550FM-18+0019WEXM1V0202901N002619999999N9999999N1-00221-02171101501REMSYN059CMAN  13204 WEXM1 46/// /2905 11022 21217 40150 0020 91900;
0088998015999992010011321004+43333-070550FM-18+0019WEXM1V0202701N002619999999N9999999N1-00341-02171999999REMSYN079CMAN  13214 WEXM1 46/// /2705 11034 21217 92054 333 91207 5 333 91228 555 2003;
0062998015999992010011322004+43333-070550FM-18+0019WEXM1V0202801N002119999999N9999999N1-00441-02071999999REMSYN053CMAN  13224 WEXM1 46/// /2804 11044 21207 40270 2145;
0075998015999992010011323004+43333-070550FM-18+0019WEXM1V0202901N001519999999N9999999N1-00501-01891101601REMSYN066CMAN  13234 WEXM1 46/// /2903 11050 21189 40160 92300 222// 0008/;
0097998015999992010011400004+43333-070550FM-18+0019WEXM1V0203001N001519999999N9999999N1-00511-01731101701REMSYN088CMAN  14004 WEXM1 46/// /3003 11051 21173 40170 333 91204 5 333 91211 555 / 70000 84830;
0068998015999992010011401004+43333-070550FM-18+0019WEXM1V0202901N001519999999N9999999N1-00571-01481999999REMSYN059CMAN  14014 WEXM1 46/// /2903 11057 21148 40220 1010 90100;
0068998015999992010011402004+43333-070550FM-18+0019WEXM1V0203301N001019999999N9999999N1-00681-01461101801REMSYN059CMAN  14024 WEXM1 46/// /3302 11068 21146 40180 4000 90200;
0068998015999992010011403004+43333-070550FM-18+0019WEXM1V0203101N001519999999N9999999N1-00781-01401101801REMSYN059CMAN  14034 WEXM1 46/// /3103 11078 21140 40180 4000 90300;
0062998015999992010011404004+43333-070550FM-18+0019WEXM1V0201701N000519999999N9999999N1-00901-01461999999REMSYN053CMAN  14044 WEXM1 46/// /1701 11090 21146 40250 0345;
0000998015999992010011405004+43333-070550FM-18+0019WEXM1V0202201N001019999999N9999999N1-00931-01411999999
0000998015999992010011406004+43333-070550FM-18+0019WEXM1V0203001N001519999999N9999999N1-00981-01361999999
0056998015999992010011413004+43333-070550FM-18+0019WEXM1V0203201N002619999999N9999999N1-01121-01461999999REMSYN047CMAN  14134 WEXM1 46/// /3205 11112 21146 1245;
0062998015999992010011414004+43333-070550FM-18+0019WEXM1V0203201N002619999999N9999999N1-00971-01381999999REMSYN053CMAN  14144 WEXM1 46/// /3205 11097 21138 0280 91345;
0092998015999992010011415004+43333-070550FM-18+0019WEXM1V0203201N001519999999N9999999N1-00681-01331999999REMSYN083CMAN  14154 WEXM1 46/// /3203 11068 21133 40027 333 91219 555 3 91203 555 01 85120;
0096998015999992010011416004+43333-070550FM-18+0019WEXM1V0200201N001019999999N9999999N1-00381-01151999999REMSYN087CMAN  14164 WEXM1 46/// /0202 11038 21115 40280 52020 91600 333 91226 555 06 333 60000;
0068998015999992010011417004+43333-070550FM-18+0019WEXM1V0201101N001019999999N9999999N1-00191-00891102301REMSYN059CMAN  14174 WEXM1 46/// /1102 11019 21089 40230 8010 91700;
0062998015999992010011418004+43333-070550FM-18+0019WEXM1V0201101N001519999999N9999999N1-00131-00761999999REMSYN053CMAN  14184 WEXM1 46/// /1103 11013 21076 40270 1745;
0096998015999992010011420004+43333-070550FM-18+0019WEXM1V0201601N002619999999N9999999N1+00001-00731999999REMSYN087CMAN  14204 WEXM1 46/// /1605 10000 21073 40260 1603 10250 29088 30081 91927 333 60000;
0094998015999992010011421004+43333-070550FM-18+0019WEXM1V0201801N003619999999N9999999N1-00071-00631102201REMSYN085CMAN  14214 WEXM1 46/// /1807 11007 21063 40220 333 91207 5 333 91216 555 1004 22004;
0096998015999992010011422004+43333-070550FM-18+0019WEXM1V0202001N002619999999N9999999N1-00191-00611999999REMSYN087CMAN  14224 WEXM1 46/// /2005 11019 21061 40250 92200 222// 0011 30117 92206 333 60000;
0084998015999992010011423004+43333-070550FM-18+0019WEXM1V0202101N001519999999N9999999N1-00241-00641999999REMSYN075CMAN  14234 WEXM1 46/// /2103 11024 21064 92240 333 91210 555 3 91211 555 ;
0096998015999992010011500004+43333-070550FM-18+0019WEXM1V0202001N002119999999N9999999N1-00261-00701999999REMSYN087CMAN  15004 WEXM1 46/// /2004 11026 21070 40260 90000 222// 0009 39958 92323 333 60000;
0056998015999992010011501004+43333-070550FM-18+0019WEXM1V0202001N003119999999N9999999N1-00221-00491999999REMSYN047CMAN  15014 WEXM1 46/// /2006 11022 21049 0045;
0097998015999992010011502004+43333-070550FM-18+0019WEXM1V0202001N003619999999N9999999N1-00191-00461102001REMSYN088CMAN  15024 WEXM1 46/// /2007 11019 21046 40200 0400 222// 00140 333 91203 555 TIDE1334;
0000998015999992010011503004+43333-070550FM-18+0019WEXM1V0202001N003119999999N9999999N1-00191-00611101901
0097998015999992010011504004+43333-070550FM-18+0019WEXM1V0202001N004619999999N9999999N1-00151-00501999999REMSYN088CMAN  15044 WEXM1 46/// /2009 11015 21050 0008 90400 222// 00140 333 91203 555 TIDE1334;
0091998015999992010011505004+43333-070550FM-18+0019WEXM1V0202101N004119999999N9999999N1-00151-00471999999REMSYN082CMAN  15054 WEXM1 46/// /2108 11015 21047 40260 22// 00143 333 91202 555 TIDE1327;
0091998015999992010011506004+43333-070550FM-18+0019WEXM1V0202001N004619999999N9999999N1-00121-00371999999REMSYN082CMAN  15064 WEXM1 46/// /2009 11012 21037 90554 333 91202 555 3 91213 555 0 82362;
0072998015999992010011507004+43333-070550FM-18+0019WEXM1V0202101N002119999999N9999999N1-00171-00391999999REMSYN063CMAN  15074 WEXM1 46/// /2104 11017 21039 40260 9070 333 91202;
0072998015999992010011508004+43333-070550FM-18+0019WEXM1V0202301N000519999999N9999999N1-00271-00431999999REMSYN063CMAN  15084 WEXM1 46/// /2301 11027 21043 53003 908091201 5220;
0062998015999992010011509004+43333-070550FM-18+0019WEXM1V0202001N002119999999N9999999N1-00251-00451101501REMSYN053CMAN  15094 WEXM1 46/// /2004 11025 21045 40150 0900;
0062998015999992010011510004+43333-070550FM-18+0019WEXM1V0202301N001519999999N9999999N1-00231-00431999999REMSYN053CMAN  15104 WEXM1 46/// /2303 11023 21043 40250 0945;
0000998015999992010011511004+43333-070550FM-18+0019WEXM1V0202301N002619999999N9999999N1-00121-00441999999
0092998015999992010011512004+43333-070550FM-18+0019WEXM1V0202401N003619999999N9999999N1-00061-00431101401REMSYN083CMAN  15124 WEXM1 46/// /2407 11006 21043 40140 91300 222// 0014 22223 00217 1////;
0092998015999992010011513004+43333-070550FM-18+0019WEXM1V0202401N003619999999N9999999N1+00011-00421101401REMSYN083CMAN  15134 WEXM1 46/// /2407 10001 21042 40140 91300 222// 0001 22223 00217 1////;
0094998015999992010011514004+43333-070550FM-18+0019WEXM1V0202401N003619999999N9999999N1+00021-00411999999REMSYN085CMAN  15144 WEXM1 46/// /2407 10002 21041 57014 91400 222// 00261209 555 11004 22004;
0092998015999992010011515004+43333-070550FM-18+0019WEXM1V0202501N002619999999N9999999N1+00141-00361999999REMSYN083CMAN  15154 WEXM1 46/// /2505 10014 21036 91440 333 91207 555 14 22236 04202 85172;
0094998015999992010011516004+43333-070550FM-18+0019WEXM1V0202501N003119999999N9999999N1+00511-00271999999REMSYN085CMAN  15164 WEXM1 46/// /2506 10051 21027 91554 333 91208 5 333 91213 555 1006 22007;
0068998015999992010011517004+43333-070550FM-18+0019WEXM1V0202601N003119999999N9999999N1+00661-00201999999REMSYN059CMAN  15174 WEXM1 46/// /2606 10066 21020 40220 4000 91700;
0062998015999992010011518004+43333-070550FM-18+0019WEXM1V0202501N003119999999N9999999N1+00681-00181999999REMSYN053CMAN  15184 WEXM1 46/// /2506 10068 21018 40270 1745;
0068998015999992010011519004+43333-070550FM-18+0019WEXM1V0202501N003119999999N9999999N1+00691-00071999999REMSYN059CMAN  15194 WEXM1 46/// /2506 10069 21007 40220 7020 91900;
0068998015999992010011520004+43333-070550FM-18+0019WEXM1V0202501N002619999999N9999999N1+00691-00051999999REMSYN059CMAN  15204 WEXM1 46/// /2505 10069 21005 40220 7010 92000;
0062998015999992010011521004+43333-070550FM-18+0019WEXM1V0202501N003119999999N9999999N1+00581-00071999999REMSYN053CMAN  15214 WEXM1 46/// /2506 10058 21007 40090 2045;
0094998015999992010011522004+43333-070550FM-18+0019WEXM1V0202601N001519999999N9999999N1+00491-00051999999REMSYN085CMAN  15224 WEXM1 46/// /2603 10049 21005 92148 333 91206 555  91208 555 11004 22004;
0084998015999992010011523004+43333-070550FM-18+0019WEXM1V0202401N002619999999N9999999N1+00451-00031101501REMSYN075CMAN  15234 WEXM1 46/// /2405 10045 21003 40150 92300 222// 0011 333 91230;
0068998015999992010011600004+43333-070550FM-18+0019WEXM1V0202501N002119999999N9999999N1+00411-00051101501REMSYN059CMAN  16004 WEXM1 46/// /2504 10041 21005 40150 8010 90000;
0062998015999992010011601004+43333-070550FM-18+0019WEXM1V0202501N002119999999N9999999N1+00311-00091101501REMSYN053CMAN 16014 WEXM1 46/// /2504 10031 21009 40150 90115;
0085998015999992010011602004+43333-070550FM-18+0019WEXM1V0202501N002119999999N9999999N1+00261-00121101601ADDMD1210101+9999REMSYN059CMAN 16024 WEXM1 46/// /2504 10026 21012 40160 52010 90200;
0085998015999992010011603004+43333-070550FM-18+0019WEXM1V0202601N001519999999N9999999N1+00221-00141101601ADDMD1210101+9999REMSYN059CMAN 16034 WEXM1 46/// /2603 10022 21014 40160 52010 90300;
0097998015999992010011604004+43333-070550FM-18+0019WEXM1V0202501N001019999999N9999999N1+00061-00191999999REMSYN088CMAN  16044 WEXM1 46/// /2502 10006 21019 8003 90400 222// 00123 333 91212 555 TIDE1360;
0091998015999992010011605004+43333-070550FM-18+0019WEXM1V0202701N001019999999N9999999N1-00011-00201101601REMSYN082CMAN  16054 WEXM1 46/// /2702 11001 21020 40160 222// 0011 333 91212 555 TIDE1352;
0000998015999992010011606004+43333-070550FM-18+0019WEXM1V0202701N001019999999N9999999N1+00071-00171101601
0000998015999992010011607004+43333-070550FM-18+0019WEXM1V0202401N001519999999N9999999N1+00091-00181999999
0000998015999992010011608004+43333-070550FM-18+0019WEXM1V0201501N000519999999N9999999N1-00121-00251101601
0106998015999992010011609004+43333-070550FM-18+0019WEXM1V0202301N001019999999N9999999N1-00171-00251999999REMSYN097CMAN  16094 WEXM1 46/// /2302 11017 21025 58010 90900 222// 0005 333 82817 87275 92418 555 82640;
0076998015999992010011610004+43333-070550FM-18+0019WEXM1V0202101N001519999999N9999999N1-00231-00301999999REMSYN067CMAN  16104 WEXM1 46/// /2103 11023 21030 51015 91000 222// 002708;
0084998015999992010011611004+43333-070550FM-18+0019WEXM1V0202001N002619999999N9999999N1-00261-00341999999REMSYN075CMAN  16114 WEXM1 46/// /2005 11026 21034 51008 91100 222// 00271003 22004;
0094998015999992010011612004+43333-070550FM-18+0019WEXM1V0202201N003119999999N9999999N1-00101-00261999999REMSYN085CMAN  16124 WEXM1 46/// /2206 11010 21026 91142 333 91205 5 00241212 555 11003 22004;
0062998015999992010011613004+43333-070550FM-18+0019WEXM1V0202301N002119999999N9999999N1+00021-00251999999REMSYN053CMAN  16134 WEXM1 46/// /2304 10002 21025 40150 1300;
0072998015999992010011614004+43333-070550FM-18+0019WEXM1V0202501N002119999999N9999999N1+00131-00241999999REMSYN063CMAN  16144 WEXM1 46/// /2504 10013 21024 54000 9140 333 91205;
0068998015999992010011615004+43333-070550FM-18+0019WEXM1V0202401N002619999999N9999999N1+00481-00251999999REMSYN059CMAN  16154 WEXM1 46/// /2405 10048 21025 40140 2020 91500;
0000998015999992010011616004+43333-070550FM-18+0019WEXM1V0202401N003119999999N9999999N1+00561-00271999999
0000998015999992010011617004+43333-070550FM-18+0019WEXM1V0202501N003119999999N9999999N1+00671-00291999999
0150998015999992010011618004+43333-070550FM-18+0019WEXM1V0202501N002619999999N9999999N1+00761-00321999999REMSYN141CMAN  16184 WEXM1 46/// /2505 10076 21032 56027 91800 222// 000591231 555 // 333 11010 21020 3/102 44007 55300 20000 30000 41068 87613 91115;
0084998015999992010011619004+43333-070550FM-18+0019WEXM1V0202901N003119999999N9999999N1+00821-00391999999REMSYN075CMAN  16194 WEXM1 46/// /2906 10082 21039 56026 91900 222// 000591233 555 ;
0000998015999992010011620004+43333-070550FM-18+0019WEXM1V0202701N002619999999N9999999N1+00831-00411999999
0150998015999992010011621004+43333-070550FM-18+0019WEXM1V0202801N002119999999N9999999N1+00751-00361101301REMSYN141CMAN  16214 WEXM1 46/// /2804 10075 21036 40130 00110 222// 0004 54/// 7//// 8/19/ 22233 0//// 2//// 3//// 4//// 5//// 6//// 80250 ICE /////;
0094998015999992010011622004+43333-070550FM-18+0019WEXM1V0202801N001519999999N9999999N1+00621-00341999999REMSYN085CMAN  16224 WEXM1 46/// /2803 10062 21034 58011 92200 222// 000591239 555 1007 22008;
0000998015999992010011623004+43333-070550FM-18+0019WEXM1V0202601N001519999999N9999999N1+00481-00321101501
0088998015999992010011700004+43333-070550FM-18+0019WEXM1V0202701N001519999999N9999999N1+00401-00301101601REMSYN079CMAN  17004 WEXM1 46/// /2703 10040 21030 40160 333 91205 5 001555 11006 22007;
0056998015999992010011701004+43333-070550FM-18+0019WEXM1V0203101N002119999999N9999999N1+00191-00321999999REMSYN047CMAN  17014 WEXM1 46/// /3104 10019 21032 0130;
0097998015999992010011702004+43333-070550FM-18+0019WEXM1V0202601N001019999999N9999999N1+00171-00321101701REMSYN088CMAN  17024 WEXM1 46/// /2602 10017 21032 40170 5//// 22200 00078 11217 70084 333 91227;
0000998015999992010011703004+43333-070550FM-18+0019WEXM1V0203201N002119999999N9999999N1+00041-00331101701
0056998015999992010011704004+43333-070550FM-18+0019WEXM1V0203301N001519999999N9999999N1-00021-00361999999REMSYN047CMAN  17044 WEXM1 46/// /3303 11002 21036 0345;
0097998015999992010011705004+43333-070550FM-18+0019WEXM1V0202801N001519999999N9999999N1-00011-00311999999REMSYN088CMAN  17054 WEXM1 46/// /2803 11001 21031 90440 333 91230 555 078 11217 70084 333 91227;
0086998015999992010011706004+43333-070550FM-18+0019WEXM1V0202901N001019999999N9999999N1-00061-00331999999REMSYN077CMAN  17064 WEXM1 46/// /2902 11006 21033 52004 90600 222// 000491253 555 00;
0150998015999992010011707004+43333-070550FM-18+0019WEXM1V0202901N001519999999N9999999N1-00091-00331999999REMSYN141CMAN  17074 WEXM1 46/// /2903 11009 21033 51009 90700 222// 0003 54/// 7//22 8626/ 22225 04250 20203 3//// 4//// 5//// 6//// 80230 ICE /////;
0068998015999992010011708004+43333-070550FM-18+0019WEXM1V0202901N001519999999N9999999N1-00081-00301999999REMSYN059CMAN  17084 WEXM1 46/// /2903 11008 21030 40130 7020 90800;
0094998015999992010011709004+43333-070550FM-18+0019WEXM1V0203201N002119999999N9999999N1-00101-00301999999REMSYN085CMAN  17094 WEXM1 46/// /3204 11010 21030 90854 333 91210 5 333 91229 555 1008 22010;
0000998015999992010011710004+43333-070550FM-18+0019WEXM1V0202701N001019999999N9999999N1-00091-00291101901
0085998015999992010011711004+43333-070550FM-18+0019WEXM1V0203001N001019999999N9999999N1-00191-00331999999REMSYN076CMAN  17114 WEXM1 46/// /3002 11019 21033 3003 91100 333 91208 555 TIDE1188;
0084998015999992010011712004+43333-070550FM-18+0019WEXM1V0203001N001019999999N9999999N1-00341-00421999999REMSYN075CMAN  17124 WEXM1 46/// /3002 11034 21042 91154 333 91210 555 1291226 555 ;
0134998015999992010011713004+43333-070550FM-18+0019WEXM1V0203001N001519999999N9999999N1-00251-00361999999REMSYN125CMAN  17134 WEXM1 46/// /3003 11025 21036 58023 91300 222// 000491241 555 // 8/4/5 22254 04142 20808 326// 4//09 5//// 80110;
0000998015999992010011714004+43333-070550FM-18+0019WEXM1V0203301N001519999999N9999999N1-00181-00341999999
0068998015999992010011715004+43333-070550FM-18+0019WEXM1V0200201N002619999999N9999999N1+00001-00211999999REMSYN059CMAN  17154 WEXM1 46/// /0205 10000 21021 0100 51010 91500;
0072998015999992010011716004+43333-070550FM-18+0019WEXM1V0200601N003619999999N9999999N1+00241-00021102101REMSYN063CMAN  17164 WEXM1 46/// /0607 10024 21002 40210 9160 333 91210;
0096998015999992010011717004+43333-070550FM-18+0019WEXM1V0200801N004119999999N9999999N1+00231-00011999999REMSYN087CMAN  17174 WEXM1 46/// /0808 10023 21001 40080 56023 91700 333 91239 555 07 333 60000;
0099998015999992010011718004+43333-070550FM-18+0019WEXM1V0200801N004119999999N9999999N1+00191+00011999999REMSYN090CMAN  17184 WEXM1 46/// /0808 10019 20001 56007 91800 222// 00261 21001 324// 41401 70006;
0072998015999992010011719004+43333-070550FM-18+0019WEXM1V0200801N004119999999N9999999N1+00141+00041999999REMSYN063CMAN  17194 WEXM1 46/// /0808 10014 20004 40070 9190 333 91205;
0084998015999992010011720004+43333-070550FM-18+0019WEXM1V0200701N003619999999N9999999N1+00121+00021101801REMSYN075CMAN  17204 WEXM1 46/// /0707 10012 20002 40180 56014 92000 555  333 91211;
0068998015999992010011721004+43333-070550FM-18+0019WEXM1V0200801N004119999999N9999999N1+00181+00031101901REMSYN059CMAN  17214 WEXM1 46/// /0808 10018 20003 40190 7030 92000;
0088998015999992010011722004+43333-070550FM-18+0019WEXM1V0200901N003619999999N9999999N1+00211+00051999999REMSYN079CMAN  17224 WEXM1 46/// /0907 10021 20005 53017 92200 222// 002691208 555 2007;
0084998015999992010011723004+43333-070550FM-18+0019WEXM1V0200901N003619999999N9999999N1+00241+00121101701REMSYN075CMAN  17234 WEXM1 46/// /0907 10024 20012 40170 92300 222// 0020 333 91223;
0082998015999992010011800004+43333-070550FM-18+0019WEXM1V0200901N004619999999N9999999N1+00261+00131999999REMSYN073CMAN  18004 WEXM1 46/// /0909 10026 20013 40090 00111211 555 11007 22008;
0068998015999992010011801004+43333-070550FM-18+0019WEXM1V0200901N004119999999N9999999N1+00291+00101999999REMSYN059CMAN  18014 WEXM1 46/// /0908 10029 20010 40100 2020 90100;
0068998015999992010011802004+43333-070550FM-18+0019WEXM1V0200801N004619999999N9999999N1+00301+00091101501REMSYN059CMAN  18024 WEXM1 46/// /0809 10030 20009 40150 2010 90200;
0068998015999992010011803004+43333-070550FM-18+0019WEXM1V0200701N004119999999N9999999N1+00231+00111101401REMSYN059CMAN  18034 WEXM1 46/// /0708 10023 20011 40140 1010 90300;
0068998015999992010011804004+43333-070550FM-18+0019WEXM1V0200101N002119999999N9999999N1-00071-00111999999REMSYN059CMAN  18044 WEXM1 46/// /0104 11007 21011 40090 3010 90400;
0062998015999992010011805004+43333-070550FM-18+0019WEXM1V0203401N003119999999N9999999N1-00141-00141999999REMSYN053CMAN  18054 WEXM1 46/// /3406 11014 21014 40120 0445;
0000998015999992010011806004+43333-070550FM-18+0019WEXM1V0203501N003619999999N9999999N1-00181-00181999999
0084998015999992010011807004+43333-070550FM-18+0019WEXM1V0203601N003619999999N9999999N1-00191-00191100901REMSYN075CMAN  18074 WEXM1 46/// /3607 11019 21019 40090 0700 222// 00154 333 91209;
0000998015999992010011808004+43333-070550FM-18+0019WEXM1V0203601N005119999999N9999999N1-00271-00271100801
0072998015999992010011809004+43333-070550FM-18+0019WEXM1V0203601N004619999999N9999999N1-00331-00331999999REMSYN063CMAN  18094 WEXM1 46/// /3609 11033 21033 40130 9090 333 91205;
0062998015999992010011810004+43333-070550FM-18+0019WEXM1V0203501N005719999999N9999999N1-00381-00381999999REMSYN053CMAN  18104 WEXM1 46/// /3511 11038 21038 40140 0945;
0072998015999992010011811004+43333-070550FM-18+0019WEXM1V0203501N005719999999N9999999N1-00391-00391999999REMSYN063CMAN  18114 WEXM1 46/// /3511 11039 21039 40150 9110 333 91208;
0000998015999992010011812004+43333-070550FM-18+0019WEXM1V0203601N005719999999N9999999N1-00411-00411999999
0068998015999992010011813004+43333-070550FM-18+0019WEXM1V0203401N006219999999N9999999N1-00421-00421100601REMSYN059CMAN  18134 WEXM1 46/// /3412 11042 21042 40060 2030 91300;
0094998015999992010011814004+43333-070550FM-18+0019WEXM1V0203501N006219999999N9999999N1-00391-00391999999REMSYN085CMAN  18144 WEXM1 46/// /3512 11039 21039 58005 91400 222// 002691207 555 1002 22003;
0063998015999992010011815004+43333-070550FM-18+0019WEXM1V0203501N005719999999N9999999N1-00351-00351999999REMSYN054CMAN  18154 WEXM1 46/// /3511 11035 21035 40180 91430;
0068998015999992010011816004+43333-070550FM-18+0019WEXM1V0203501N005719999999N9999999N1-00291-00291100701REMSYN059CMAN  18164 WEXM1 46/// /3511 11029 21029 40070 8040 91600;
0097998015999992010011817004+43333-070550FM-18+0019WEXM1V0203401N006219999999N9999999N1-00261-00261100701REMSYN088CMAN  18174 WEXM1 46/// /3412 11026 21026 40070 333 91215 5 000391216 555 013 333 91213;
0000998015999992010011818004+43333-070550FM-18+0019WEXM1V0203401N005119999999N9999999N1-00251-00251999999
0062998015999992010011819004+43333-070550FM-18+0019WEXM1V0203401N004119999999N9999999N1-00211-00211999999REMSYN053CMAN  18194 WEXM1 46/// /3408 11021 21021 56015 9190;
0000998015999992010011820004+43333-070550FM-18+0019WEXM1V0203501N004119999999N9999999N1-00201-00201999999
0082998015999992010011821004+43333-070550FM-18+0019WEXM1V0200101N003619999999N9999999N1-00201-00201999999REMSYN073CMAN  18214 WEXM1 46/// /0107 11020 21020 52021 92100 222// 000619 22022;
0068998015999992010011822004+43333-070550FM-18+0019WEXM1V0203501N002619999999N9999999N1-00241-00241100901REMSYN059CMAN  18224 WEXM1 46/// /3505 11024 21024 40090 2010 92200;
0097998015999992010011823004+43333-070550FM-18+0019WEXM1V0203301N002119999999N9999999N1-00251-00251999999REMSYN088CMAN  18234 WEXM1 46/// /3304 11025 21025 92242 333 91205 5 333 91215 555 035 333 91206;
0094998015999992010011900004+43333-070550FM-18+0019WEXM1V0203501N001519999999N9999999N1-00251-00251999999REMSYN085CMAN  19004 WEXM1 46/// /3503 11025 21025 58010 90000 222// 00201206 555 11004 22004;
0062998015999992010011901004+43333-070550FM-18+0019WEXM1V0203501N002119999999N9999999N1-00261-00261101201REMSYN053CMAN 19014 WEXM1 46/// /3504 11026 21026 40120 90115;
0085998015999992010011902004+43333-070550FM-18+0019WEXM1V0200101N002119999999N9999999N1-00271-00271101201ADDMD1210201+9999REMSYN059CMAN 19024 WEXM1 46/// /0104 11027 21027 40120 52020 90200;
0085998015999992010011903004+43333-070550FM-18+0019WEXM1V0203601N002119999999N9999999N1-00291-00291101201ADDMD1210101+9999REMSYN059CMAN 19034 WEXM1 46/// /3604 11029 21029 40120 52010 90300;
0085998015999992010011904004+43333-070550FM-18+0019WEXM1V0203501N002119999999N9999999N1-00311-00311999999REMSYN076CMAN  19044 WEXM1 46/// /3504 11031 21031 2007 90400 333 91201 555 TIDE1147;
0062998015999992010011905004+43333-070550FM-18+0019WEXM1V0203301N001519999999N9999999N1-00311-00311101301REMSYN053CMAN  19054 WEXM1 46/// /3303 11031 21031 40130 0115;
0116998015999992010011906004+43333-070550FM-18+0019WEXM1V0203401N001519999999N9999999N1-00321-00321999999REMSYN107CMAN  19064 WEXM1 46/// /3403 11032 21032 90554 333 91200 5 001091204 555 00 8/14/ 22264 329// 4//05 80210;
0000998015999992010011907004+43333-070550FM-18+0019WEXM1V0203101N001519999999N9999999N1-00331-00331101401
0120998015999992010011908004+43333-070550FM-18+0019WEXM1V0203401N001519999999N9999999N1-00331-00331101301REMSYN111CMAN  19084 WEXM1 46/// /3403 11033 21033 40130 90800 222// 0014 876// 333 55300 20000 30000 69947 87704 98020;
0097998015999992010011909004+43333-070550FM-18+0019WEXM1V0203301N002119999999N9999999N1-00341-00341101401REMSYN088CMAN  19094 WEXM1 46/// /3304 11034 21034 40140 57005 22200 00075 11203 70017 333 91204;
0068998015999992010011910004+43333-070550FM-18+0019WEXM1V0203401N001519999999N9999999N1-00351-00351101401REMSYN059CMAN  19104 WEXM1 46/// /3403 11035 21035 40140 6010 91000;
0084998015999992010011911004+43333-070550FM-18+0019WEXM1V0203501N001519999999N9999999N1-00341-00341999999REMSYN075CMAN  19114 WEXM1 46/// /3503 11034 21034 40180 91100 222// 0010 333 91205;
0000998015999992010011912004+43333-070550FM-18+0019WEXM1V0203301N002119999999N9999999N1-00331-00331999999
0068998015999992010011913004+43333-070550FM-18+0019WEXM1V0203301N002119999999N9999999N1-00321-00321101401REMSYN059CMAN  19134 WEXM1 46/// /3304 11032 21032 40140 8030 91200;
0000998015999992010011914004+43333-070550FM-18+0019WEXM1V0203401N002119999999N9999999N1-00311-00311999999
0068998015999992010011915004+43333-070550FM-18+0019WEXM1V0203401N001519999999N9999999N1-00271-00271999999REMSYN059CMAN  19154 WEXM1 46/// /3403 11027 21027 40200 2010 91500;
0068998015999992010011916004+43333-070550FM-18+0019WEXM1V0203101N002119999999N9999999N1-00221-00221101401REMSYN059CMAN  19164 WEXM1 46/// /3104 11022 21022 40140 1010 91600;
0084998015999992010011917004+43333-070550FM-18+0019WEXM1V0203301N002119999999N9999999N1-00191-00191999999REMSYN075CMAN  19174 WEXM1 46/// /3304 11019 21019 40190 91700 222// 0027 333 91208;
0084998015999992010011918004+43333-070550FM-18+0019WEXM1V0203501N001519999999N9999999N1-00141-00141999999REMSYN075CMAN  19184 WEXM1 46/// /3503 11014 21014 58017 91800 222// 0026 333 91104;
0068998015999992010011919004+43333-070550FM-18+0019WEXM1V0200101N001519999999N9999999N1-00121-00121101201REMSYN059CMAN  19194 WEXM1 46/// /0103 11012 21012 40120 8030 91900;
0000998015999992010011920004+43333-070550FM-18+0019WEXM1V0200201N002119999999N9999999N1-00111-00111101101
0068998015999992010011921004+43333-070550FM-18+0019WEXM1V0203501N002119999999N9999999N1-00121-00121999999REMSYN059CMAN  19214 WEXM1 46/// /3504 11012 21012 49960 6010 92100;
0068998015999992010011922004+43333-070550FM-18+0019WEXM1V0203401N002119999999N9999999N1-00141-00141101101REMSYN059CMAN  19224 WEXM1 46/// /3404 11014 21014 40110 4000 92200;
0056998015999992010011923004+43333-070550FM-18+0019WEXM1V0203401N002619999999N9999999N1-00141-00141999999REMSYN047CMAN  19234 WEXM1 46/// /3405 11014 21014 2245;
0000998015999992010012000004+43333-070550FM-18+0019WEXM1V0203401N003119999999N9999999N1-00161-00161999999
0056998015999992010012001004+43333-070550FM-18+0019WEXM1V0203301N003119999999N9999999N1-00181-00181999999REMSYN047CMAN  20014 WEXM1 46/// /3306 11018 21018 0115;
0062998015999992010012002004+43333-070550FM-18+0019WEXM1V0203301N003619999999N9999999N1-00181-00181101001REMSYN053CMAN  20024 WEXM1 46/// /3307 11018 21018 40100 0000;
0062998015999992010012003004+43333-070550FM-18+0019WEXM1V0203301N004119999999N9999999N1-00201-00201100901REMSYN053CMAN  20034 WEXM1 46/// /3308 11020 21020 40090 0000;
0097998015999992010012004004+43333-070550FM-18+0019WEXM1V0203301N003619999999N9999999N1-00191-00191999999REMSYN088CMAN  20044 WEXM1 46/// /3307 11019 21019 49970 0400 222// 00184 333 91200 555 TIDE1133;
0091998015999992010012005004+43333-070550FM-18+0019WEXM1V0203301N003619999999N9999999N1-00201-00201999999REMSYN082CMAN  20054 WEXM1 46/// /3307 11020 21020 40170 22// 00184 333 91201 555 TIDE1190;
0094998015999992010012006004+43333-070550FM-18+0019WEXM1V0203201N003119999999N9999999N1-00211-00211999999REMSYN085CMAN  20064 WEXM1 46/// /3206 11021 21021 90554 333 91201 555 3 91200 55 11002 22003;
0097998015999992010012007004+43333-070550FM-18+0019WEXM1V0203001N002619999999N9999999N1-00241-00241999999REMSYN088CMAN  20074 WEXM1 46/// /3005 11024 21024 90648 333 91201 5 00075 11003 70014 333 91213;
0085998015999992010012008004+43333-070550FM-18+0019WEXM1V0203201N003619999999N9999999N1-00251-00251100801ADDMD1010001+9999REMSYN059CMAN 20084 WEXM1 46/// /3207 11025 21025 40080 50000 90800;
0068998015999992010012010004+43333-070550FM-18+0019WEXM1V0202901N001519999999N9999999N1-00331-00331100801REMSYN059CMAN  20104 WEXM1 46/// /2903 11033 21033 40080 4000 91000;
0097998015999992010012011004+43333-070550FM-18+0019WEXM1V0203001N003119999999N9999999N1-00311-00311100801REMSYN088CMAN  20114 WEXM1 46/// /3006 11031 21031 40080 70182 878// 333 10309 569// 85824 84650;
0094998015999992010012012004+43333-070550FM-18+0019WEXM1V0202701N001519999999N9999999N1-00341-00341999999REMSYN085CMAN  20124 WEXM1 46/// /2703 11034 21034 53016 912091202 5 333 91223 555 1002 22003;
0084998015999992010012013004+43333-070550FM-18+0019WEXM1V0203101N003119999999N9999999N1-00331-00331999999REMSYN075CMAN  20134 WEXM1 46/// /3106 11033 21033 53005 91300 222// 0002 333 91218;
0074998015999992010012014004+43333-070550FM-18+0019WEXM1V0203101N003119999999N9999999N1-00191-00191999999REMSYN065CMAN  20144 WEXM1 46/// /3106 11019 21019 52011 91400 222// 0002;
0062998015999992010012015004+43333-070550FM-18+0019WEXM1V0203301N003119999999N9999999N1-00041-00041999999REMSYN053CMAN  20154 WEXM1 46/// /3306 11004 21004 40190 1445;
0062998015999992010012016004+43333-070550FM-18+0019WEXM1V0203301N003619999999N9999999N1+00011+00001999999REMSYN053CMAN  20164 WEXM1 46/// /3307 10001 20000 40190 1545;
0062998015999992010012017004+43333-070550FM-18+0019WEXM1V0203201N003119999999N9999999N1+00021-00011100801REMSYN053CMAN  20174 WEXM1 46/// /3206 10002 21001 40080 1730;
0000998015999992010012018004+43333-070550FM-18+0019WEXM1V0203201N003119999999N9999999N1+00041+00001999999
0000998015999992010012019004+43333-070550FM-18+0019WEXM1V0203001N002619999999N9999999N1+00081-00021999999
0134998015999992010012020004+43333-070550FM-18+0019WEXM1V0203101N002119999999N9999999N1+00061+00021999999REMSYN125CMAN  20204 WEXM1 46/// /3104 10006 20002 51017 92000 222// 002691206 555 22 83242 22283 00280 20601 31400 40402 5//// 80270;
0000998015999992010012021004+43333-070550FM-18+0019WEXM1V0203201N003119999999N9999999N1+00021+00011999999
0000998015999992010012022004+43333-070550FM-18+0019WEXM1V0203101N003119999999N9999999N1-00011-00011101001
0096998015999992010012023004+43333-070550FM-18+0019WEXM1V0203101N002619999999N9999999N1-00051-00061101101REMSYN087CMAN  20234 WEXM1 46/// /3105 11005 21006 40110 92300 222// 002691208 555 08 333 60000;
0085998015999992010012100004+43333-070550FM-18+0019WEXM1V0203101N003119999999N9999999N1-00081-00121999999REMSYN076CMAN  21004 WEXM1 46/// /3106 11008 21012 92354 333 91203 5 333 91202 50000;
0062998015999992010012101004+43333-070550FM-18+0019WEXM1V0203001N002119999999N9999999N1-00141-00171999999REMSYN053CMAN  21014 WEXM1 46/// /3004 11014 21017 49880 ////;
0062998015999992010012102004+43333-070550FM-18+0019WEXM1V0203001N002619999999N9999999N1-00171-00181999999REMSYN053CMAN  21024 WEXM1 46/// /3005 11017 21018 49880 0145;
0085998015999992010012103004+43333-070550FM-18+0019WEXM1V0202601N001519999999N9999999N1-00201-00271101301ADDMD1210201+9999REMSYN059CMAN 21034 WEXM1 46/// /2603 11020 21027 40130 52020 90300;
0097998015999992010012104004+43333-070550FM-18+0019WEXM1V0202701N002119999999N9999999N1-00261-00331999999REMSYN088CMAN  21044 WEXM1 46/// /2704 11026 21033 8011 90400 222// 00189 333 91203 555 TIDE1119;
0091998015999992010012105004+43333-070550FM-18+0019WEXM1V0203001N002619999999N9999999N1-00251-00381999999REMSYN082CMAN  21054 WEXM1 46/// /3005 11025 21038 40150 22// 00189 333 91204 555 TIDE1170;
0062998015999992010012106004+43333-070550FM-18+0019WEXM1V0202901N001519999999N9999999N1-00301-00461101501REMSYN053CMAN  21064 WEXM1 46/// /2903 11030 21046 40150 0545;
0097998015999992010012107004+43333-070550FM-18+0019WEXM1V0202901N002119999999N9999999N1-00361-00511101601REMSYN088CMAN  21074 WEXM1 46/// /2904 11036 21051 40160 333 91205 5 00042 11406 70028 333 91206;
0000998015999992010012108004+43333-070550FM-18+0019WEXM1V0202901N002119999999N9999999N1-00461-00581101601
0000998015999992010012109004+43333-070550FM-18+0019WEXM1V0202901N001519999999N9999999N1-00471-00591999999
0097998015999992010012110004+43333-070550FM-18+0019WEXM1V0202901N002119999999N9999999N1-00461-00611999999REMSYN088CMAN  21104 WEXM1 46/// /2904 11046 21061 51019 91000 222// 00258751/ 22213 00020 20503;
0099998015999992010012111004+43333-070550FM-18+0019WEXM1V0202901N001519999999N9999999N1-00451-00621101701REMSYN090CMAN  21114 WEXM1 46/// /2903 11045 21062 40170 91100 222// 00067 20906 300// 41103 70033;
0094998015999992010012112004+43333-070550FM-18+0019WEXM1V0202901N002119999999N9999999N1-00471-00621101801REMSYN085CMAN  21124 WEXM1 46/// /2904 11047 21062 40180 333 91209 5 333 91243 555 1002 22003;
0000998015999992010012113004+43333-070550FM-18+0019WEXM1V0202901N002619999999N9999999N1-00421-00591999999
0076998015999992010012114004+43333-070550FM-18+0019WEXM1V0202701N001519999999N9999999N1-00221-00471101901REMSYN067CMAN  21144 WEXM1 46/// /2703 11022 21047 40190 91400 222// 000602;
0085998015999992010012115004+43333-070550FM-18+0019WEXM1V0202901N001519999999N9999999N1+00001-00341101901ADDMD1210101+9999REMSYN059CMAN 21154 WEXM1 46/// /2903 10000 21034 40190 52010 91500;
0076998015999992010012116004+43333-070550FM-18+0019WEXM1V0202801N002119999999N9999999N1+00081-00281999999REMSYN067CMAN  21164 WEXM1 46/// /2804 10008 21028 40110 91600 222// 002712;
0097998015999992010012117004+43333-070550FM-18+0019WEXM1V0202801N002619999999N9999999N1+00181-00251101901REMSYN088CMAN  21174 WEXM1 46/// /2805 10018 21025 40190 91700 222// 00150 333 84835 90760 91106;
0138998015999992010012118004+43333-070550FM-18+0019WEXM1V0202601N002619999999N9999999N1+00171-00341999999REMSYN129CMAN  21184 WEXM1 46/// /2605 10017 21034 91754 333 91222 5 333 91220 555 // 333 11037 21047 34104 41998 55300 20000 30000 87707;
0104998015999992010012119004+43333-070550FM-18+0019WEXM1V0202701N002119999999N9999999N1+00221-00411999999REMSYN095CMAN  21194 WEXM1 46/// /2704 10022 21041 56019 91900 222// 000691216 555 00 00125 10702 70008;
0103998015999992010012120004+43333-070550FM-18+0019WEXM1V0202701N002119999999N9999999N1+00191-00481999999REMSYN094CMAN  21204 WEXM1 46/// /2704 10019 21048 58010 92000 222// 000691212 555 0 22200 10706 70030;
0078998015999992010012121004+43333-070550FM-18+0019WEXM1V0202501N002119999999N9999999N1+00161-00471999999REMSYN069CMAN  21214 WEXM1 46/// /2504 10016 21047 40060 00200 222// 00250203;
0000998015999992010012122004+43333-070550FM-18+0019WEXM1V0202701N002119999999N9999999N1-00041-00561101901
0080998015999992010012123004+43333-070550FM-18+0019WEXM1V0202901N002119999999N9999999N1-00141-00581999999REMSYN071CMAN  21234 WEXM1 46/// /2904 11014 21058 40080 92300 222// 0011 80002;
0062998015999992010012200004+43333-070550FM-18+0019WEXM1V0202801N002119999999N9999999N1-00211-00611999999REMSYN053CMAN  22004 WEXM1 46/// /2804 11021 21061 40080 2345;
0068998015999992010012201004+43333-070550FM-18+0019WEXM1V0203001N002619999999N9999999N1-00311-00641101801REMSYN059CMAN  22014 WEXM1 46/// /3005 11031 21064 40180 1010 90100;
0068998015999992010012202004+43333-070550FM-18+0019WEXM1V0202501N001519999999N9999999N1-00421-00681999999REMSYN059CMAN  22024 WEXM1 46/// /2503 11042 21068 49810 2010 90200;
0068998015999992010012203004+43333-070550FM-18+0019WEXM1V0202601N001519999999N9999999N1-00421-00681101801REMSYN059CMAN  22034 WEXM1 46/// /2603 11042 21068 40180 1010 90300;
0062998015999992010012204004+43333-070550FM-18+0019WEXM1V0202601N001519999999N9999999N1-00461-00721101701REMSYN053CMAN  22044 WEXM1 46/// /2603 11046 21072 40170 0345;
0092998015999992010012205004+43333-070550FM-18+0019WEXM1V0202601N001519999999N9999999N1-00441-00721999999REMSYN083CMAN  22054 WEXM1 46/// /2603 11044 21072 49830 0079 40102 57017 22224 04285 85235;
0062998015999992010012206004+43333-070550FM-18+0019WEXM1V0202601N001519999999N9999999N1-00541-00751999999REMSYN053CMAN  22064 WEXM1 46/// /2603 11054 21075 58004 9060;
0062998015999992010012219004+43333-070550FM-18+0019WEXM1V0200301N003119999999N9999999N1+00111-00621999999REMSYN053CMAN  22194 WEXM1 46/// /0306 10011 21062 0110 91900;
0056998015999992010012220004+43333-070550FM-18+0019WEXM1V0200301N003119999999N9999999N1+00111-00601999999REMSYN047CMAN  22204 WEXM1 46/// /0306 10011 21060 1945;
0062998015999992010012221004+43333-070550FM-18+0019WEXM1V0200301N002619999999N9999999N1+00061-00541999999REMSYN053CMAN  22214 WEXM1 46/// /0305 10006 21054 0120 92045;
0082998015999992010012222004+43333-070550FM-18+0019WEXM1V0200101N002619999999N9999999N1+00001-00751999999REMSYN073CMAN  22224 WEXM1 46/// /0105 10000 21075 52019 92200 222// 001791207 59;
0062998015999992010012223004+43333-070550FM-18+0019WEXM1V0203501N001519999999N9999999N1-00171-00741101601REMSYN053CMAN  22234 WEXM1 46/// /3503 11017 21074 40160 2245;
0078998015999992010012300004+43333-070550FM-18+0019WEXM1V0203401N001519999999N9999999N1-00261-00731101701REMSYN069CMAN  23004 WEXM1 46/// /3403 11026 21073 40170 90000 222// 00120000;
0062998015999992010012301004+43333-070550FM-18+0019WEXM1V0203401N002119999999N9999999N1-00341-00771101701REMSYN053CMAN  23014 WEXM1 46/// /3404 11034 21077 40170 0045;
0062998015999992010012302004+43333-070550FM-18+0019WEXM1V0203301N001519999999N9999999N1-00401-00851101801REMSYN053CMAN  23024 WEXM1 46/// /3303 11040 21085 40180 0200;
0090998015999992010012306004+43333-070550FM-18+0019WEXM1V0203401N002619999999N9999999N1-00661-01151999999REMSYN081CMAN  23064 WEXM1 46/// /3405 11066 21115 54000 90600 333 91203 5 333 91207 5072;
0109998015999992010012307004+43333-070550FM-18+0019WEXM1V0203501N002619999999N9999999N1-00681-01171999999REMSYN100CMAN  23074 WEXM1 46/// /3505 11068 21117 54000 90700 222// 001491210 555 3 91206 555 50115 70656 8;
0168998015999992010012308004+43333-070550FM-18+0019WEXM1V0203301N002119999999N9999999N1-00781-01221999999REMSYN159CMAN  23084 WEXM1 46/// /3304 11078 21122 40095 90800 333 91206 555 288 333 91208 555 50121 70740 821057 34106 4/998 55029 55300 20000 30000 79999 87709 98045;
0215998015999992010012309004+43333-070550FM-18+0019WEXM1V0203501N003119999999N9999999N1-00781-01331999999REMSYN206CMAN  23094 WEXM1 46/// /3506 11078 21133 51015 90900 222// 000291236 555 3 91210 555 11008 22009 30959 404010 60959 036008 030007 029006 027007 020849 301040 306038 304038 303040 303042 302042 83005 90803;
0091998015999992010012310004+43333-070550FM-18+0019WEXM1V0203301N002619999999N9999999N1-00811-01281102101REMSYN082CMAN  23104 WEXM1 46/// /3305 11081 21128 40210 222// 0006/ 001491215 555 8 85070;
0109998015999992010012311004+43333-070550FM-18+0019WEXM1V0203101N003119999999N9999999N1-00951-01191102201REMSYN100CMAN  23114 WEXM1 46/// /3106 11095 21119 40220 91100 333 91203 555 288 333 91207 555 50128 71100 8;
0095998015999992010012312004+43333-070550FM-18+0019WEXM1V0203201N002119999999N9999999N1-00971-01221999999REMSYN086CMAN  23124 WEXM1 46/// /3204 11097 21122 56009 91200 222// 000391210 555 3 555 60005;
0095998015999992010012315004+43333-070550FM-18+0019WEXM1V0203601N001519999999N9999999N1-00421-01131102401REMSYN086CMAN  23154 WEXM1 46/// /3603 11042 21113 40240 91500 222// 002591233 555 0 555 92315;
0092998015999992010012317004+43333-070550FM-18+0019WEXM1V0200901N000519999999N9999999N1-00061-01291999999REMSYN083CMAN  23174 WEXM1 46/// /0901 11006 21129 40140 91700 222// 00169 333 91216 520080;
0084998015999992010012318004+43333-070550FM-18+0019WEXM1V0201601N002119999999N9999999N1-00041-00961102201REMSYN075CMAN  23184 WEXM1 46/// /1604 11004 21096 40220 91800 222// 0018 333 91217;
0062998015999992010012319004+43333-070550FM-18+0019WEXM1V0201701N002619999999N9999999N1-00051-00771999999REMSYN053CMAN  23194 WEXM1 46/// /1705 11005 21077 40170 1900;
0000998015999992010012320004+43333-070550FM-18+0019WEXM1V0201601N001519999999N9999999N1-00011-00761999999
0084998015999992010012321004+43333-070550FM-18+0019WEXM1V0201801N001519999999N9999999N1-00021-00641102101REMSYN075CMAN  23214 WEXM1 46/// /1803 11002 21064 40210 92100 222// 000391203 555 ;
0097998015999992010012322004+43333-070550FM-18+0019WEXM1V0202101N001519999999N9999999N1-00091-00641999999REMSYN088CMAN  23224 WEXM1 46/// /2103 11009 21064 40180 222// 00185 333 91212 57650 91104 91202;
0056998015999992010012401004+43333-070550FM-18+0019WEXM1V0200301N001519999999N9999999N1-00631-00861999999REMSYN047CMAN  24014 WEXM1 46/// /0303 11063 21086 0100;
0056998015999992010012402004+43333-070550FM-18+0019WEXM1V0209999C000019999999N9999999N1-00611-00851999999REMSYN047CMAN  24024 WEXM1 46/// /0000 11061 21085 0145;
0056998015999992010012403004+43333-070550FM-18+0019WEXM1V02099999999999999999N9999999N1-00581+99999999999REMSYN047CMAN  24034 WEXM1 46/// ///// 11058 0075 90245;
0096998015999992010012405004+43333-070550FM-18+0019WEXM1V0202601N001519999999N9999999N1-00731-01031102301REMSYN087CMAN  24054 WEXM1 46/// /2603 11073 21103 40230 333 91208 555 3 91233 555 00 333 60000;
0062998015999992010012406004+43333-070550FM-18+0019WEXM1V0203001N001519999999N9999999N1-00781-01051999999REMSYN053CMAN  24064 WEXM1 46/// /3003 11078 21105 0160 90600;
0000998015999992010012407004+43333-070550FM-18+0019WEXM1V0203001N001519999999N9999999N1-00681-01071999999
0068998015999992010012408004+43333-070550FM-18+0019WEXM1V0203101N001519999999N9999999N1-00761-01131999999REMSYN059CMAN  24084 WEXM1 46/// /3103 11076 21113 0220 52010 90800;
0123998015999992010012409004+43333-070550FM-18+0019WEXM1V0203201N001519999999N9999999N1-00911-01131102301REMSYN114CMAN  24094 WEXM1 46/// /3203 11091 21113 40230 90900 222// 002791227 555 273 04240 20201 30000 40000 50000 80225;
0085998015999992010012412004+43333-070550FM-18+0019WEXM1V0202901N001019999999N9999999N1-00721-01091999999REMSYN076CMAN  24124 WEXM1 46/// /2902 11072 21109 91136 222// 00171 333 91212 51056;
0000998015999992010012414004+43333-070550FM-18+0019WEXM1V0202001N000519999999N9999999N1-00451-00951999999
0073998015999992010012415004+43333-070550FM-18+0019WEXM1V0202201N001019999999N9999999N1-00141-00841102201REMSYN064CMAN  24154 WEXM1 46/// /2202 11014 21084 40220 333 91211 555 5;
0062998015999992010012417004+43333-070550FM-18+0019WEXM1V0202201N002619999999N9999999N1+00401-00841999999REMSYN053CMAN  24174 WEXM1 46/// /2205 10040 21084 40230 1715;
0000998015999992010012418004+43333-070550FM-18+0019WEXM1V0202101N004619999999N9999999N1+00371-00771999999
0000998015999992010012421004+43333-070550FM-18+0019WEXM1V0201801N002619999999N9999999N1+00251-00451101901
0000998015999992010012423004+43333-070550FM-18+0019WEXM1V0202101N001019999999N9999999N1+00191-00261999999
0068998015999992010012505004+43333-070550FM-18+0019WEXM1V0200601N002119999999N9999999N1+00391+00391999999REMSYN059CMAN  25054 WEXM1 46/// /0604 10039 20039 0210 52010 90500;
0122998015999992010012506004+43333-070550FM-18+0019WEXM1V0200701N002619999999N9999999N1+00421+00421999999REMSYN113CMAN  25064 WEXM1 46/// /0705 10042 20042 40030 0175 52010 70200 80000 22200 04258 29901 300// 4//// 5//// 80185;
0062998015999992010012507004+43333-070550FM-18+0019WEXM1V0200601N001019999999N9999999N1+00461+00461999999REMSYN053CMAN  25074 WEXM1 46/// /0602 10046 20046 40200 0715;
0000998015999992010012508004+43333-070550FM-18+0019WEXM1V0200601N001019999999N9999999N1+00441+00441999999
0000998015999992010012509004+43333-070550FM-18+0019WEXM1V0203601N001019999999N9999999N1+00431+00431101301
0096998015999992010012511004+43333-070550FM-18+0019WEXM1V0201301N001019999999N9999999N1+00341+00341999999REMSYN087CMAN  25114 WEXM1 46/// /1302 10034 20034 40190 1401 11171 29074 39929 91100 333 60000;
0000998015999992010012512004+43333-070550FM-18+0019WEXM1V0201501N001019999999N9999999N1+00361+00361999999
0000998015999992010012513004+43333-070550FM-18+0019WEXM1V0201701N002619999999N9999999N1+00551+00551999999
0086998015999992010012514004+43333-070550FM-18+0019WEXM1V0201701N003119999999N9999999N1+00601+00601999999REMSYN077CMAN  25144 WEXM1 46/// /1706 10060 20060 54000 91400 222// 002691236 555 27;
0094998015999992010012518004+43333-070550FM-18+0019WEXM1V0201401N006219999999N9999999N1+00761+00691999999REMSYN085CMAN  25184 WEXM1 46/// /1412 10076 20069 91754 333 91215 555  91203 555 11001 22001;
0000998015999992010012519004+43333-070550FM-18+0019WEXM1V0201401N007219999999N9999999N1+00781+00741999999
0096998015999992010012520004+43333-070550FM-18+0019WEXM1V0201401N006219999999N9999999N1+00781+00771999999REMSYN087CMAN  25204 WEXM1 46/// /1412 10078 20077 53018 92000 222// 002591238 555 00 333 60030;
0068998015999992010012521004+43333-070550FM-18+0019WEXM1V0201301N006719999999N9999999N1+00821+00821999999REMSYN059CMAN  25214 WEXM1 46/// /1313 10082 20082 40140 7040 92100;
0084998015999992010012522004+43333-070550FM-18+0019WEXM1V0201301N007719999999N9999999N1+00841+00841099301REMSYN075CMAN  25224 WEXM1 46/// /1315 10084 20084 49930 222// 00198 333 91217 5212;
0068998015999992010012600004+43333-070550FM-18+0019WEXM1V0201601N006219999999N9999999N1+00841+00841999999REMSYN059CMAN  26004 WEXM1 46/// /1612 10084 20084 0070 52030 90000;
0062998015999992010012601004+43333-070550FM-18+0019WEXM1V02099999999999999999N9999999N1+00791+99999999999REMSYN053CMAN  26014 WEXM1 46/// ///// 10079 20077 40110 0045;
0062998015999992010012604004+43333-070550FM-18+0019WEXM1V0201801N002619999999N9999999N1+00751+00751999999REMSYN053CMAN  26044 WEXM1 46/// /1805 10075 20075 40120 0345;
0000998015999992010012608004+43333-070550FM-18+0019WEXM1V0202601N001519999999N9999999N1+00631+00481999999
0062998015999992010012610004+43333-070550FM-18+0019WEXM1V0202601N002619999999N9999999N1+00431+00101999999REMSYN053CMAN  26104 WEXM1 46/// /2605 10043 20010 40120 0303;
0084998015999992010012611004+43333-070550FM-18+0019WEXM1V0202401N004119999999N9999999N1+00431+00061099301REMSYN075CMAN  26114 WEXM1 46/// /2408 10043 20006 49930 555  222// 00122 333 91203;
0000998015999992010012618004+43333-070550FM-18+0019WEXM1V0202401N005119999999N9999999N1+00631-00591999999
0000998015999992010012619004+43333-070550FM-18+0019WEXM1V0202401N005119999999N9999999N1+00671-00561999999
0056998015999992010012621004+43333-070550FM-18+0019WEXM1V0202401N004119999999N9999999N1+00561-00541999999REMSYN047CMAN  26214 WEXM1 46/// /2408 10056 21054 2045;
0099998015999992010012622004+43333-070550FM-18+0019WEXM1V0202301N003619999999N9999999N1+00471-00451999999REMSYN090CMAN  26224 WEXM1 46/// /2307 10047 21045 51046 92200 222// 00046 21004 328// 41105 70032;
0000998015999992010012623004+43333-070550FM-18+0019WEXM1V0202201N003119999999N9999999N1+00331-00561999999
0084998015999992010012700004+43333-070550FM-18+0019WEXM1V0202201N002619999999N9999999N1+00231-00561999999REMSYN075CMAN  27004 WEXM1 46/// /2205 10023 21056 92348 333 91201 5 0014 333 91208;
0068998015999992010012701004+43333-070550FM-18+0019WEXM1V0202301N003119999999N9999999N1+00181-00581100301REMSYN059CMAN  27014 WEXM1 46/// /2306 10018 21058 40030 8010 90100;
0085998015999992010012702004+43333-070550FM-18+0019WEXM1V0202301N004119999999N9999999N1+00181-00531100301ADDMD1110201+9999REMSYN059CMAN 27024 WEXM1 46/// /2308 10018 21053 40030 51020 90200;
0085998015999992010012703004+43333-070550FM-18+0019WEXM1V0202401N002619999999N9999999N1+00131-00501100301ADDMD1110101+9999REMSYN059CMAN 27034 WEXM1 46/// /2405 10013 21050 40030 51010 90300;
0000998015999992010012704004+43333-070550FM-18+0019WEXM1V0202301N003619999999N9999999N1+00081-00481100401
0128998015999992010012706004+43333-070550FM-18+0019WEXM1V0202401N002619999999N9999999N1+00021-00541999999REMSYN119CMAN  27064 WEXM1 46/// /2405 10002 21054 90554 333 91201 540100 54000 7//00 8//// 22254 29903 3//// 4//04 5/////3D/20;
0062998015999992010012707004+43333-070550FM-18+0019WEXM1V0202501N002119999999N9999999N1-00021-00541999999REMSYN053CMAN  27074 WEXM1 46/// /2504 11002 21054 0210 90645;
0000998015999992010012708004+43333-070550FM-18+0019WEXM1V0202401N002119999999N9999999N1-00081-00541999999
0166998015999992010012709004+43333-070550FM-18+0019WEXM1V0202401N002619999999N9999999N1-00081-00541100701REMSYN157CMAN  27094 WEXM1 46/// /2405 11008 21054 40070 90900 222// 002691233 555  21131 3/113 55308 20536 30344 82364 91120 91218 90328 91218 95182 958/6 444 26106;
0068998015999992010012710004+43333-070550FM-18+0019WEXM1V0202501N002619999999N9999999N1-00091-00531999999REMSYN059CMAN  27104 WEXM1 46/// /2505 11009 21053 40150 1010 91000;
0114998015999992010012711004+43333-070550FM-18+0019WEXM1V0202501N002619999999N9999999N1-00101-00521100801REMSYN105CMAN  27114 WEXM1 46/// /2505 11010 21052 40080 91100 222// 002691228 555 // 333 47006 55300 69907 87710;
0072998015999992010012712004+43333-070550FM-18+0019WEXM1V0202601N002119999999N9999999N1-00111-00511999999REMSYN063CMAN  27124 WEXM1 46/// /2604 11011 21051 53015 9120 333 91223;
0062998015999992010012718004+43333-070550FM-18+0019WEXM1V0202801N003119999999N9999999N1+00531-00591999999REMSYN053CMAN  27184 WEXM1 46/// /2806 10053 21059 40170 1800;
0068998015999992010012719004+43333-070550FM-18+0019WEXM1V0202901N002119999999N9999999N1+00511-00581999999REMSYN059CMAN  27194 WEXM1 46/// /2904 10051 21058 40260 555  91900;
0097998015999992010012720004+43333-070550FM-18+0019WEXM1V0202901N002619999999N9999999N1+00441-00561999999REMSYN088CMAN  27204 WEXM1 46/// /2905 10044 21056 40170 2000 222// 00144 333 91210 555 TIDE1168;
0084998015999992010012721004+43333-070550FM-18+0019WEXM1V0202801N002619999999N9999999N1+00411-00541999999REMSYN075CMAN  27214 WEXM1 46/// /2805 10041 21054 53026 92100 222// 0003 333 91214;
0108998015999992010012722004+43333-070550FM-18+0019WEXM1V0202401N001519999999N9999999N1+00331-00611101401REMSYN099CMAN  27224 WEXM1 46/// /2403 10033 21061 40140 92200 222// 000391246 555 95 10605 70027 333 91216;
0062998015999992010012802004+43333-070550FM-18+0019WEXM1V0202501N002119999999N9999999N1-00021-00581999999REMSYN053CMAN  28024 WEXM1 46/// /2504 11002 21058 40160 0130;
0062998015999992010012803004+43333-070550FM-18+0019WEXM1V0202401N002119999999N9999999N1-00061-00561999999REMSYN053CMAN  28034 WEXM1 46/// /2404 11006 21056 40270 0245;
0062998015999992010012804004+43333-070550FM-18+0019WEXM1V0202501N002619999999N9999999N1-00041-00601999999REMSYN053CMAN  28044 WEXM1 46/// /2505 11004 21060 40260 0400;
0000998015999992010012805004+43333-070550FM-18+0019WEXM1V0202501N002619999999N9999999N1-00061-00601999999
0000998015999992010012810004+43333-070550FM-18+0019WEXM1V0202401N002119999999N9999999N1-00301-00701999999
0099998015999992010012811004+43333-070550FM-18+0019WEXM1V0202101N001519999999N9999999N1-00401-00711999999REMSYN090CMAN  28114 WEXM1 46/// /2103 11040 21071 58011 91100 222// 000691242 555 1// 41507 70038;
0084998015999992010012812004+43333-070550FM-18+0019WEXM1V0202301N002119999999N9999999N1-00381-00671999999REMSYN075CMAN  28124 WEXM1 46/// /2304 11038 21067 58013 91200 222// 0004 333 91216;
0084998015999992010012813004+43333-070550FM-18+0019WEXM1V0202401N002119999999N9999999N1-00191-00651101501REMSYN075CMAN  28134 WEXM1 46/// /2404 11019 21065 40150 91300 222// 000491236 555 ;
0000998015999992010012814004+43333-070550FM-18+0019WEXM1V0202101N001519999999N9999999N1-00081-00601101501
0092998015999992010012815004+43333-070550FM-18+0019WEXM1V0201901N002619999999N9999999N1+00081-00561101401REMSYN083CMAN  28154 WEXM1 46/// /1905 10008 21056 40140 91500 222// 0006 22244 04241 85204;
0062998015999992010012817004+43333-070550FM-18+0019WEXM1V0201801N005719999999N9999999N1+00141-00461999999REMSYN053CMAN  28174 WEXM1 46/// /1811 10014 21046 40250 ////;
0062998015999992010012818004+43333-070550FM-18+0019WEXM1V0202101N004119999999N9999999N1+00041-00331999999REMSYN053CMAN  28184 WEXM1 46/// /2108 10004 21033 40260 ////;
0104998015999992010012819004+43333-070550FM-18+0019WEXM1V0201801N002619999999N9999999N1+00021-00151999999REMSYN095CMAN  28194 WEXM1 46/// /1805 10002 21015 56044 91900 222// 0007 52002 22200 00126 11004 70019;
0062998015999992010012820004+43333-070550FM-18+0019WEXM1V0201801N003619999999N9999999N1-00031-00171999999REMSYN053CMAN  28204 WEXM1 46/// /1807 11003 21017 0180 91945;
0000998015999992010012821004+43333-070550FM-18+0019WEXM1V0202101N002619999999N9999999N1+00001-00141100701
0000998015999992010012822004+43333-070550FM-18+0019WEXM1V0201901N002119999999N9999999N1-00021-00131999999
0062998015999992010012823004+43333-070550FM-18+0019WEXM1V0202101N001519999999N9999999N1-00121-00161999999REMSYN053CMAN  28234 WEXM1 46/// /2103 11012 21016 40240 2245;
0062998015999992010012901004+43333-070550FM-18+0019WEXM1V0202601N004619999999N9999999N1-00211-00841100601REMSYN053CMAN 29014 WEXM1 46/// /2609 11021 21084 40060 90115;
0085998015999992010012902004+43333-070550FM-18+0019WEXM1V0202601N005719999999N9999999N1-00341-01451100701ADDMD1210201+9999REMSYN059CMAN 29024 WEXM1 46/// /2611 11034 21145 40070 52020 90200;
0062998015999992010012903004+43333-070550FM-18+0019WEXM1V0202601N003119999999N9999999N1-00511-01641100801REMSYN053CMAN 29034 WEXM1 46/// /2606 11051 21164 40080 90315;
0056998015999992010012904004+43333-070550FM-18+0019WEXM1V0202601N006219999999N9999999N1-00561-01661999999REMSYN047CMAN  29044 WEXM1 46/// /2612 11056 21166 0345;
0094998015999992010012905004+43333-070550FM-18+0019WEXM1V0202601N003619999999N9999999N1-00711-01491999999REMSYN085CMAN  29054 WEXM1 46/// /2607 11071 21149 40230 53010 90500 333 91215 555 1005 22006;
0094998015999992010012906004+43333-070550FM-18+0019WEXM1V0202601N005119999999N9999999N1-00831-02302100901REMSYN085CMAN  29064 WEXM1 46/// /2610 11083 21230 40090 906091202 5 333 91206 555 1001 22001;
0000998015999992010012907004+43333-070550FM-18+0019WEXM1V0202601N004619999999N9999999N1-00921-02201999999
0077998015999992010012908004+43333-070550FM-18+0019WEXM1V0202601N004119999999N9999999N1-01001-02151999999REMSYN068CMAN  29084 WEXM1 46/// /2608 11100 21215 90754 333 91204 555 60005;
0078998015999992010012909004+43333-070550FM-18+0019WEXM1V0202501N003619999999N9999999N1-01061-02061999999REMSYN069CMAN  29094 WEXM1 46/// /2507 11106 21206 51028 90900 222// 0004///1;
0097998015999992010012910004+43333-070550FM-18+0019WEXM1V0202701N004619999999N9999999N1-01091-01961999999REMSYN088CMAN  29104 WEXM1 46/// /2709 11109 21196 90954 333 91202 5 333 91218 555 038 333 91218;
0094998015999992010012911004+43333-070550FM-18+0019WEXM1V0202701N005119999999N9999999N1-01131-01881999999REMSYN085CMAN  29114 WEXM1 46/// /2710 11113 21188 91054 333 91205 5 333 91221 555 1003 22003;
0096998015999992010012912004+43333-070550FM-18+0019WEXM1V0202701N005119999999N9999999N1-01201-02001101001REMSYN087CMAN  29124 WEXM1 46/// /2710 11120 21200 40100 333 91232 555 3 91207 555  84730 84460;
0094998015999992010012913004+43333-070550FM-18+0019WEXM1V0202701N004119999999N9999999N1-01171-02011999999REMSYN085CMAN  29134 WEXM1 46/// /2708 11117 21201 54000 91300 222// 0024555  555 11002 22002;
0094998015999992010012914004+43333-070550FM-18+0019WEXM1V0202601N006219999999N9999999N1-01101-02051999999REMSYN085CMAN  29144 WEXM1 46/// /2612 11110 21205 91354 333 91204 5 333 91230 555 1004 22004;
0062998015999992010012915004+43333-070550FM-18+0019WEXM1V0202701N005719999999N9999999N1-00981-02161999999REMSYN053CMAN  29154 WEXM1 46/// /2711 11098 21216 40230 1445;
0062998015999992010012916004+43333-070550FM-18+0019WEXM1V0202701N006719999999N9999999N1-00921-02301999999REMSYN053CMAN  29164 WEXM1 46/// /2713 11092 21230 40230 1545;
0068998015999992010012918004+43333-070550FM-18+0019WEXM1V0202701N006219999999N9999999N1-00911-02491999999REMSYN059CMAN  29184 WEXM1 46/// /2712 11091 21249 40170 7010 91800;
0000998015999992010012919004+43333-070550FM-18+0019WEXM1V0202601N006719999999N9999999N1-00911-02581999999
0099998015999992010012920004+43333-070550FM-18+0019WEXM1V0202601N007219999999N9999999N1-00951-02571999999REMSYN090CMAN  29204 WEXM1 46/// /2614 11095 21257 91954 333 91211 5 001491235 555 4// 41304 70026;
0062998015999992010012921004+43333-070550FM-18+0019WEXM1V0202701N007219999999N9999999N1-01021-02591999999REMSYN053CMAN  29214 WEXM1 46/// /2714 11102 21259 40200 9210;
0094998015999992010012922004+43333-070550FM-18+0019WEXM1V0202701N006719999999N9999999N1-01121-02631101301REMSYN085CMAN  29224 WEXM1 46/// /2713 11112 21263 40130 92200 222// 00181205 555 11003 22004;
0000998015999992010012923004+43333-070550FM-18+0019WEXM1V0202701N006219999999N9999999N1-01171-02601999999
0056998015999992010013001004+43333-070550FM-18+0019WEXM1V0202701N006219999999N9999999N1-01311-02551999999REMSYN047CMAN  30014 WEXM1 46/// /2712 11131 21255 0100;
0000998015999992010013002004+43333-070550FM-18+0019WEXM1V0202701N005119999999N9999999N1-01331-02541101301
0056998015999992010013003004+43333-070550FM-18+0019WEXM1V0202701N005119999999N9999999N1-01391-02591999999REMSYN047CMAN  30034 WEXM1 46/// /2710 11139 21259 0300;
0068998015999992010013004004+43333-070550FM-18+0019WEXM1V0202701N004619999999N9999999N1-01431-02601999999REMSYN059CMAN  30044 WEXM1 46/// /2709 11143 21260 40140 4000 90400;
0062998015999992010013005004+43333-070550FM-18+0019WEXM1V0202801N004119999999N9999999N1-01461-02571999999REMSYN053CMAN  30054 WEXM1 46/// /2808 11146 21257 0160 90445;
0094998015999992010013006004+43333-070550FM-18+0019WEXM1V0202701N003619999999N9999999N1-01501-02581999999REMSYN085CMAN  30064 WEXM1 46/// /2707 11150 21258 90554 333 91202 5333 91207 555 11005 22006;
0094998015999992010013007004+43333-070550FM-18+0019WEXM1V0202601N003619999999N9999999N1-01551-02571999999REMSYN085CMAN  30074 WEXM1 46/// /2607 11155 21257 90654 333 91201 5333 91204 555 11002 22003;
0108998015999992010013008004+43333-070550FM-18+0019WEXM1V0202601N003619999999N9999999N1-01591-02531101601REMSYN099CMAN  30084 WEXM1 46/// /2607 11159 21253 40160 90800 222// 002691236 555  42997 81358 92611 92770;
0000998015999992010013009004+43333-070550FM-18+0019WEXM1V0202801N002619999999N9999999N1-01621-02481101701
0000998015999992010013010004+43333-070550FM-18+0019WEXM1V0202801N003119999999N9999999N1-01661-02471101701
0062998015999992010013011004+43333-070550FM-18+0019WEXM1V0202601N002119999999N9999999N1-01701-02471101801REMSYN053CMAN  30114 WEXM1 46/// /2604 11170 21247 40180 0900;
0000998015999992010013012004+43333-070550FM-18+0019WEXM1V0202701N002119999999N9999999N1-01701-02421101801
0084998015999992010013013004+43333-070550FM-18+0019WEXM1V02099999999999999999N9999999N1-01601-02391101901REMSYN075CMAN  30134 WEXM1 46/// ///05 11160 21239 40190 91300 222// 0019 333 91223;
0000998015999992010013014004+43333-070550FM-18+0019WEXM1V0202801N003119999999N9999999N1-01441-02341102001
0000998015999992010013015004+43333-070550FM-18+0019WEXM1V0202901N002619999999N9999999N1-01221-02241102001
0074998015999992010013016004+43333-070550FM-18+0019WEXM1V0202801N002619999999N9999999N1-00971-02091101901REMSYN065CMAN  30164 WEXM1 46/// /2805 11097 21209 40190 91600 222// 0017;
0091998015999992010013017004+43333-070550FM-18+0019WEXM1V0202701N002119999999N9999999N1-00741-01971999999REMSYN082CMAN  30174 WEXM1 46/// /2704 11074 21197 40170 91700 222// 00159 333 91212 53358;
0062998015999992010013018004+43333-070550FM-18+0019WEXM1V0203001N002119999999N9999999N1-00651-01961999999REMSYN053CMAN  30184 WEXM1 46/// /3004 11065 21196 0180 91745;
0000998015999992010013019004+43333-070550FM-18+0019WEXM1V0203001N002619999999N9999999N1-00561-01941101701
0091998015999992010013020004+43333-070550FM-18+0019WEXM1V0202501N001519999999N9999999N1-00491-01921999999REMSYN082CMAN  30204 WEXM1 46/// /2503 11049 21192 55027 92000 222// 000591205 555 2 20405;
0096998015999992010013021004+43333-070550FM-18+0019WEXM1V0202801N001019999999N9999999N1-00511-01861101701REMSYN087CMAN  30214 WEXM1 46/// /2802 11051 21186 40170 92100 222// 0016 30091 91907 333 60000;
0068998015999992010013022004+43333-070550FM-18+0019WEXM1V0202701N001019999999N9999999N1-00611-01821101701REMSYN059CMAN  30224 WEXM1 46/// /2702 11061 21182 40170 3020 92200;
0068998015999992010013023004+43333-070550FM-18+0019WEXM1V0203101N002119999999N9999999N1-00751-01751999999REMSYN059CMAN  30234 WEXM1 46/// /3104 11075 21175 40160 4000 92300;
0091998015999992010013100004+43333-070550FM-18+0019WEXM1V0203101N002119999999N9999999N1-00821-01731101801REMSYN082CMAN  31004 WEXM1 46/// /3104 11082 21173 40180 333 91209 5333 91209 555 TIDE1165;
0062998015999992010013101004+43333-070550FM-18+0019WEXM1V0203201N002119999999N9999999N1-00911-01751999999REMSYN053CMAN  31014 WEXM1 46/// /3204 11091 21175 40160 0130;
0068998015999992010013102004+43333-070550FM-18+0019WEXM1V0203301N002119999999N9999999N1-00961-01751999999REMSYN059CMAN  31024 WEXM1 46/// /3304 11096 21175 40150 2030 90200;
0062998015999992010013103004+43333-070550FM-18+0019WEXM1V0203301N002119999999N9999999N1-00991-01731101601REMSYN053CMAN  31034 WEXM1 46/// /3304 11099 21173 40160 0245;
0062998015999992010013104004+43333-070550FM-18+0019WEXM1V0203201N002619999999N9999999N1-01071-01741999999REMSYN053CMAN  31044 WEXM1 46/// /3205 11107 21174 40160 0345;
0091998015999992010013105004+43333-070550FM-18+0019WEXM1V0203401N003119999999N9999999N1-01101-01811101501REMSYN082CMAN  31054 WEXM1 46/// /3406 11110 21181 40150 22// 00194 333 91223 555 TIDE1451;
0082998015999992010013106004+43333-070550FM-18+0019WEXM1V0203401N003119999999N9999999N1-01131-01821101401REMSYN073CMAN  31064 WEXM1 46/// /3406 11113 21182 40140 90600 222// 002619 22022;
0000998015999992010013107004+43333-070550FM-18+0019WEXM1V0203301N002619999999N9999999N1-01191-01841101401
0149998015999992010013108004+43333-070550FM-18+0019WEXM1V0203101N002119999999N9999999N1-01251-01851999999REMSYN140CMAN  31084 WEXM1 46/// /3104 11125 21185 40170 90800 222// 001452003 70322 861/1 22283 0//// 20201 32630 40804 50602 6//// 80100 ICE /////;
0084998015999992010013109004+43333-070550FM-18+0019WEXM1V0203101N002619999999N9999999N1-01311-01911999999REMSYN075CMAN  31094 WEXM1 46/// /3105 11131 21191 53013 90900 222// 002691210 555 ;
0000998015999992010013110004+43333-070550FM-18+0019WEXM1V0202701N001019999999N9999999N1-01401-01891999999
0097998015999992010013111004+43333-070550FM-18+0019WEXM1V0202801N001019999999N9999999N1-01451-01921101401REMSYN088CMAN  31114 WEXM1 46/// /2802 11145 21192 40140 91100 222// 002691210 555 0 58011 85707;
0000998015999992010013112004+43333-070550FM-18+0019WEXM1V0202801N001019999999N9999999N1-01491-01941999999
0110998015999992010013113004+43333-070550FM-18+0019WEXM1V0202901N001519999999N9999999N1-01371-01931101501REMSYN101CMAN  31134 WEXM1 46/// /2903 11137 21193 40150 91300 222// 0026 00151 11404 21002 327// 41404 70020;
0062998015999992010013114004+43333-070550FM-18+0019WEXM1V0202901N001519999999N9999999N1-01141-02031101501REMSYN053CMAN  31144 WEXM1 46/// /2903 11114 21203 40150 9140;
0091998015999992010013115004+43333-070550FM-18+0019WEXM1V0203101N002119999999N9999999N1-00921-02041101501REMSYN082CMAN  31154 WEXM1 46/// /3104 11092 21204 40150 22// 00175 333 91214 555 TIDE1043;
0097998015999992010013116004+43333-070550FM-18+0019WEXM1V0202901N001519999999N9999999N1-00751-01951999999REMSYN088CMAN  31164 WEXM1 46/// /2903 11075 21195 57004 91600 222// 000591204 555 008 333 91202;
0103998015999992010013117004+43333-070550FM-18+0019WEXM1V0202301N002619999999N9999999N1-00551-01831101301REMSYN094CMAN  31174 WEXM1 46/// /2305 11055 21183 40130 91700 222// 00040 00126 10605 70025 555 1/032;
0000998015999992010013118004+43333-070550FM-18+0019WEXM1V0202901N003119999999N9999999N1-00381-01681101201
0119998015999992010013119004+43333-070550FM-18+0019WEXM1V0202501N003119999999N9999999N1-00291-01631101101REMSYN110CMAN  31194 WEXM1 46/// /2506 11029 21163 40110 91900 222// 001691214 5 10501 70007 333 91207 555 11045 22048;
0068998015999992010013120004+43333-070550FM-18+0019WEXM1V0202801N004119999999N9999999N1-00281-01551101101REMSYN059CMAN  31204 WEXM1 46/// /2808 11028 21155 40110 7010 92000;
0072998015999992010013121004+43333-070550FM-18+0019WEXM1V0202701N003619999999N9999999N1-00331-01531101201REMSYN063CMAN  31214 WEXM1 46/// /2707 11033 21153 40120 2100 333 91232;
0062998015999992010013122004+43333-070550FM-18+0019WEXM1V0202601N003619999999N9999999N1-00431-01511101301REMSYN053CMAN  31224 WEXM1 46/// /2607 11043 21151 40130 2100;
0062998015999992010013123004+43333-070550FM-18+0019WEXM1V0202701N001019999999N9999999N1-00551-01511101301REMSYN053CMAN  31234 WEXM1 46/// /2702 11055 21151 40130 9230;
0068998015999992010020100004+43333-070550FM-18+0019WEXM1V0202301N002119999999N9999999N1-00701-01481101301REMSYN059CMAN  01004 WEXM1 46/// /2304 11070 21148 40130 3020 90000;
0068998015999992010020101004+43333-070550FM-18+0019WEXM1V0202401N002619999999N9999999N1-00641-01451999999REMSYN059CMAN  01014 WEXM1 46/// /2405 11064 21145 40150 4000 90100;
0062998015999992010020102004+43333-070550FM-18+0019WEXM1V0202301N002119999999N9999999N1-00701-01431101301REMSYN053CMAN  01024 WEXM1 46/// /2304 11070 21143 40130 0145;
0068998015999992010020103004+43333-070550FM-18+0019WEXM1V0202201N002619999999N9999999N1-00671-01381101301REMSYN059CMAN  01034 WEXM1 46/// /2205 11067 21138 40130 4000 90300;
0056998015999992010020104004+43333-070550FM-18+0019WEXM1V0202301N003119999999N9999999N1-00641-01381999999REMSYN047CMAN  01044 WEXM1 46/// /2306 11064 21138 0345;
0062998015999992010020105004+43333-070550FM-18+0019WEXM1V0202301N003119999999N9999999N1-00651-01341999999REMSYN053CMAN  01054 WEXM1 46/// /2306 11065 21134 40260 0445;
0072998015999992010020106004+43333-070550FM-18+0019WEXM1V0202301N003119999999N9999999N1-00601-01321999999REMSYN063CMAN  01064 WEXM1 46/// /2306 11060 21132 53018 906091209 5221;
0000998015999992010020107004+43333-070550FM-18+0019WEXM1V0202301N004119999999N9999999N1-00571-01311999999
0000998015999992010020108004+43333-070550FM-18+0019WEXM1V0202401N003619999999N9999999N1-00601-01301999999
0093998015999992010020109004+43333-070550FM-18+0019WEXM1V0202401N003119999999N9999999N1-00631-01281101301REMSYN084CMAN  01094 WEXM1 46/// /2406 11063 21128 40130 222// 00113 333 91211 5 10706 70028;
0000998015999992010020110004+43333-070550FM-18+0019WEXM1V0202301N003119999999N9999999N1-00651-01261101301
0000998015999992010020111004+43333-070550FM-18+0019WEXM1V0202301N003119999999N9999999N1-00691-01261999999
0000998015999992010020112004+43333-070550FM-18+0019WEXM1V0202301N003619999999N9999999N1-00721-01231999999
0000998015999992010020113004+43333-070550FM-18+0019WEXM1V0202301N002119999999N9999999N1-00651-01201999999
0062998015999992010020114004+43333-070550FM-18+0019WEXM1V0202201N003119999999N9999999N1-00511-01151999999REMSYN053CMAN  01144 WEXM1 46/// /2206 11051 21115 0140 91345;
0103998015999992010020115004+43333-070550FM-18+0019WEXM1V0202601N004619999999N9999999N1-00291-01561101701REMSYN094CMAN  01154 WEXM1 46/// /2609 11029 21156 40170 56003 91500 333 91207 555 / 56050 58007 81360;
0062998015999992010020116004+43333-070550FM-18+0019WEXM1V0202701N004119999999N9999999N1-00271-01651999999REMSYN053CMAN  01164 WEXM1 46/// /2708 11027 21165 40260 1600;
0062998015999992010020117004+43333-070550FM-18+0019WEXM1V0202801N004119999999N9999999N1-00271-01721999999REMSYN053CMAN  01174 WEXM1 46/// /2808 11027 21172 50000 9170;
0089998015999992010020118004+43333-070550FM-18+0019WEXM1V0202901N003619999999N9999999N1-00221-01641999999REMSYN080CMAN  01184 WEXM1 46/// /2907 11022 21164 40250 91800 222// 002558000 555 10005;
0062998015999992010020119004+43333-070550FM-18+0019WEXM1V0202601N003619999999N9999999N1-00101-01651999999REMSYN053CMAN  01194 WEXM1 46/// /2607 11010 21165 40230 1900;
0062998015999992010020120004+43333-070550FM-18+0019WEXM1V0202601N003619999999N9999999N1-00011-01941999999REMSYN053CMAN  01204 WEXM1 46/// /2607 11001 21194 40140 2000;
0096998015999992010020121004+43333-070550FM-18+0019WEXM1V0202601N004119999999N9999999N1-00041-02021999999REMSYN087CMAN  01214 WEXM1 46/// /2608 11004 21202 53012 92100 222// 0024 30058 92039 333 60000;
0096998015999992010020122004+43333-070550FM-18+0019WEXM1V0202801N002119999999N9999999N1-00151-01911999999REMSYN087CMAN  01224 WEXM1 46/// /2804 11015 21191 40230 00110 222// 0011555 26 92100 333 60000;
0068998015999992010020123004+43333-070550FM-18+0019WEXM1V0202901N002119999999N9999999N1-00271-01881999999REMSYN059CMAN  01234 WEXM1 46/// /2904 11027 21188 40230 6020 92100;
0094998015999992010020200004+43333-070550FM-18+0019WEXM1V0203001N002619999999N9999999N1-00381-01941999999REMSYN085CMAN  02004 WEXM1 46/// /3005 11038 21194 40220 00120 222// 00021203 555 11002 22003;
0056998015999992010020201004+43333-070550FM-18+0019WEXM1V0202301N002119999999N9999999N1-00421-01821999999REMSYN047CMAN  02014 WEXM1 46/// /2304 11042 21182 0130;
0068998015999992010020202004+43333-070550FM-18+0019WEXM1V0202701N001019999999N9999999N1-00511-01861101901REMSYN059CMAN  02024 WEXM1 46/// /2702 11051 21186 40190 2010 90000;
0000998015999992010020203004+43333-070550FM-18+0019WEXM1V0202301N001019999999N9999999N1-00591-01711101901
0056998015999992010020204004+43333-070550FM-18+0019WEXM1V0202201N003119999999N9999999N1-00641-01541999999REMSYN047CMAN  02044 WEXM1 46/// /2206 11064 21154 0345;
0068998015999992010020205004+43333-070550FM-18+0019WEXM1V0202301N003619999999N9999999N1-00641-01421101901REMSYN059CMAN  02054 WEXM1 46/// /2307 11064 21142 40190 2010 90000;
0068998015999992010020206004+43333-070550FM-18+0019WEXM1V0202101N002119999999N9999999N1-00721-01371999999REMSYN059CMAN  02064 WEXM1 46/// /2104 11072 21137 40190 7020 90600;
0000998015999992010020207004+43333-070550FM-18+0019WEXM1V0202201N002619999999N9999999N1-00701-01331999999
0062998015999992010020208004+43333-070550FM-18+0019WEXM1V0202401N002119999999N9999999N1-00711-01281999999REMSYN053CMAN  02084 WEXM1 46/// /2404 11071 21128 40130 0800;
0088998015999992010020209004+43333-070550FM-18+0019WEXM1V0202401N002119999999N9999999N1-00761-01291102101REMSYN079CMAN  02094 WEXM1 46/// /2404 11076 21129 40210 90900 222// 002555 11001 22001;
0082998015999992010020210004+43333-070550FM-18+0019WEXM1V0202301N002119999999N9999999N1-00831-01281999999REMSYN073CMAN  02104 WEXM1 46/// /2304 11083 21128 51010 91000 222// 002503 22003;
0072998015999992010020211004+43333-070550FM-18+0019WEXM1V0202601N001019999999N9999999N1-00841-01271999999REMSYN063CMAN  02114 WEXM1 46/// /2602 11084 21127 40150 9110 333 91203;
0062998015999992010020212004+43333-070550FM-18+0019WEXM1V0202601N001019999999N9999999N1-00871-01271999999REMSYN053CMAN  02124 WEXM1 46/// /2602 11087 21127 40120 1215;
0072998015999992010020213004+43333-070550FM-18+0019WEXM1V0202501N001519999999N9999999N1-00741-01231102301REMSYN063CMAN  02134 WEXM1 46/// /2503 11074 21123 40230 9130 333 91203;
0088998015999992010020214004+43333-070550FM-18+0019WEXM1V0202401N002119999999N9999999N1-00551-01171999999REMSYN079CMAN  02144 WEXM1 46/// /2404 11055 21117 40140 56007 91400 333 91212 555 2001;
0063998015999992010020215004+43333-070550FM-18+0019WEXM1V0202801N002119999999N9999999N1-00381-01231999999REMSYN054CMAN  02154 WEXM1 46/// /2804 11038 21123 40150 83030;
0068998015999992010020216004+43333-070550FM-18+0019WEXM1V0202801N003119999999N9999999N1-00291-01381102301REMSYN059CMAN  02164 WEXM1 46/// /2806 11029 21138 40230 9905 58033;
0000998015999992010020217004+43333-070550FM-18+0019WEXM1V0203001N002619999999N9999999N1-00271-01391999999
0084998015999992010020218004+43333-070550FM-18+0019WEXM1V0202901N002619999999N9999999N1-00191-01441999999REMSYN075CMAN  02184 WEXM1 46/// /2905 11019 21144 54000 91800 222// 0004 333 87/19;
0094998015999992010020219004+43333-070550FM-18+0019WEXM1V0202601N001519999999N9999999N1-00101-01461999999REMSYN085CMAN  02194 WEXM1 46/// /2603 11010 21146 40130 50000 91900 333 91209 555 1001 22001;
0062998015999992010020220004+43333-070550FM-18+0019WEXM1V0201601N002619999999N9999999N1-00091-01161999999REMSYN053CMAN  02204 WEXM1 46/// /1605 11009 21116 40130 2000;
0062998015999992010020221004+43333-070550FM-18+0019WEXM1V0201501N002119999999N9999999N1-00111-00951999999REMSYN053CMAN  02214 WEXM1 46/// /1504 11011 21095 40140 2045;
0072998015999992010020222004+43333-070550FM-18+0019WEXM1V0201901N004619999999N9999999N1-00251-00961102101REMSYN063CMAN  02224 WEXM1 46/// /1909 11025 21096 40210 9220 333 91206;
0062998015999992010020223004+43333-070550FM-18+0019WEXM1V0202001N002619999999N9999999N1-00281-00911999999REMSYN053CMAN  02234 WEXM1 46/// /2005 11028 21091 40100 2300;
0068998015999992010020300004+43333-070550FM-18+0019WEXM1V0202101N002119999999N9999999N1-00371-00891102101REMSYN059CMAN  03004 WEXM1 46/// /2104 11037 21089 40210 3020 90000;
0056998015999992010020301004+43333-070550FM-18+0019WEXM1V0202301N001019999999N9999999N1-00371-00991999999REMSYN047CMAN  03014 WEXM1 46/// /2302 11037 21099 0100;
0056998015999992010020302004+43333-070550FM-18+0019WEXM1V0202301N001019999999N9999999N1-00411-01011999999REMSYN047CMAN  03024 WEXM1 46/// /2302 11041 21101 0145;
0068998015999992010020303004+43333-070550FM-18+0019WEXM1V0202301N001019999999N9999999N1-00391-01051102001REMSYN059CMAN  03034 WEXM1 46/// /2302 11039 21105 40200 4000 90400;
0068998015999992010020304004+43333-070550FM-18+0019WEXM1V0202401N001019999999N9999999N1-00411-01071999999REMSYN059CMAN  03044 WEXM1 46/// /2402 11041 21107 0100 54000 90400;
0068998015999992010020305004+43333-070550FM-18+0019WEXM1V0202401N001019999999N9999999N1-00481-01061999999REMSYN059CMAN  03054 WEXM1 46/// /2402 11048 21106 40180 4000 90400;
0075998015999992010020306004+43333-070550FM-18+0019WEXM1V0202701N001019999999N9999999N1-00571-01051101801REMSYN066CMAN  03064 WEXM1 46/// /2702 11057 21105 40180 222// 00132 82278;
0062998015999992010020307004+43333-070550FM-18+0019WEXM1V0202801N001019999999N9999999N1-00601-01021999999REMSYN053CMAN  03074 WEXM1 46/// /2802 11060 21102 40190 0645;
0072998015999992010020308004+43333-070550FM-18+0019WEXM1V0203001N001519999999N9999999N1-00701-01021999999REMSYN063CMAN  03084 WEXM1 46/// /3003 11070 21102 53011 9080 333 91205;
0068998015999992010020309004+43333-070550FM-18+0019WEXM1V0203001N002119999999N9999999N1-00621-00991101801REMSYN059CMAN  03094 WEXM1 46/// /3004 11062 21099 40180 4000 90900;
0000998015999992010020310004+43333-070550FM-18+0019WEXM1V0203101N002119999999N9999999N1-00671-01011999999
0068998015999992010020311004+43333-070550FM-18+0019WEXM1V0203301N002619999999N9999999N1-00641-00991101701REMSYN059CMAN  03114 WEXM1 46/// /3305 11064 21099 40170 2010 91100;
0000998015999992010020312004+43333-070550FM-18+0019WEXM1V0203301N002619999999N9999999N1-00641-00991999999
0096998015999992010020313004+43333-070550FM-18+0019WEXM1V0203201N002619999999N9999999N1-00661-00961999999REMSYN087CMAN  03134 WEXM1 46/// /3205 11066 21096 52019 91300 222// 0016 30005 91300 333 60000;
0094998015999992010020314004+43333-070550FM-18+0019WEXM1V0203201N003119999999N9999999N1-00531-00871101701REMSYN085CMAN  03144 WEXM1 46/// /3206 11053 21087 40170 58010 91400 333 91211 555 1002 22003;
0068998015999992010020315004+43333-070550FM-18+0019WEXM1V0203201N002619999999N9999999N1-00461-00721999999REMSYN059CMAN  03154 WEXM1 46/// /3205 11046 21072 40220 2020 91300;
