0062998015999992011010104004+43333-070550FM-18+0019WEXM1V0202101N002119999999N9999999N1+00271+99999999999REMSYN053CMAN  01044 WEXM1 46/// /2104 10027 20106 0230 90400;
0097998015999992011010105004+43333-070550FM-18+0019WEXM1V0202401N002119999999N9999999N1+00311+99999999999REMSYN088CMAN  01054 WEXM1 46/// /2404 10031 20110 30088 40095 51007 90500 333 91236 555 3 91209;
0000998015999992011010106004+43333-070550FM-18+0019WEXM1V0202501N001519999999N9999999N1+00481+99999999999
0062998015999992011010107004+43333-070550FM-18+0019WEXM1V0200401N000519999999N9999999N1+00111+99999999999REMSYN053CMAN  01074 WEXM1 46/// /0401 10011 20015 0180 90645;
0097998015999992011010108004+43333-070550FM-18+0019WEXM1V0209999C000019999999N9999999N1+00161+99999999999REMSYN088CMAN  01084 WEXM1 46/// /0000 10016 21057 51016 90800 222// 00130 333 91228 555 3 91209;
0097998015999992011010109004+43333-070550FM-18+0019WEXM1V0202101N001519999999N9999999N1+00341+99999999999REMSYN088CMAN  01094 WEXM1 46/// /2103 10034 21067 40210 90900 222// 000256600 57963 81625 81945;
0094998015999992011010110004+43333-070550FM-18+0019WEXM1V0201901N001019999999N9999999N1+00311+99999999999REMSYN085CMAN  01104 WEXM1 46/// /1902 10031 40130 51014 91000 222// 00250 333 91217 555 2032;
0062998015999992011010111004+43333-070550FM-18+0019WEXM1V0202501N001019999999N9999999N1+00331+99999999999REMSYN053CMAN  01114 WEXM1 46/// /2502 10033 20132 40150 1045;
0091998015999992011010112004+43333-070550FM-18+0019WEXM1V0202301N000519999999N9999999N1+00331+99999999999REMSYN082CMAN  01124 WEXM1 46/// /2301 10033 40199 54000 91200 222// 001520190 30/// 58001;
0062998015999992011010113004+43333-070550FM-18+0019WEXM1V0203601N000519999999N9999999N1+00301+99999999999REMSYN053CMAN  01134 WEXM1 46/// /3601 10030 21077 0220 91245;
0100998015999992011010114004+43333-070550FM-18+0019WEXM1V0202301N001519999999N9999999N1+00391+99999999999REMSYN091CMAN  01144 WEXM1 46/// /2303 10039 40210 53009 91400 222// 001591208 555 2 555 1010 22012;
0000998015999992011010115004+43333-070550FM-18+0019WEXM1V0200701N000519999999N9999999N1+00711+99999999999
0099998015999992011010116004+43333-070550FM-18+0019WEXM1V0201101N001019999999N9999999N1+00771+99999999999REMSYN090CMAN  01164 WEXM1 46/// /1102 10077 40078 58004 91600 222// 000591232 555 6 555 201 70012;
0084998015999992011010117004+43333-070550FM-18+0019WEXM1V0201101N001019999999N9999999N1+00621+99999999999REMSYN075CMAN  01174 WEXM1 46/// /1102 10062 21068 40210 91700 222// 0008 333 91211;
0062998015999992011010118004+43333-070550FM-18+0019WEXM1V0200301N000519999999N9999999N1+00901+99999999999REMSYN053CMAN  01184 WEXM1 46/// /0301 10090 20030 40210 1745;
0062998015999992011010119004+43333-070550FM-18+0019WEXM1V0200901N000519999999N9999999N1+00991+99999999999REMSYN053CMAN  01194 WEXM1 46/// /0901 10099 20027 0180 91845;
0100998015999992011010120004+43333-070550FM-18+0019WEXM1V0209999C000019999999N9999999N1+00711+99999999999REMSYN091CMAN  01204 WEXM1 46/// /0000 10071 40126 53013 92000 222// 00240 333 91212 555 1005 22006;
0062998015999992011010121004+43333-070550FM-18+0019WEXM1V0201801N001519999999N9999999N1+00621+99999999999REMSYN053CMAN  01214 WEXM1 46/// /1803 10062 20049 0180 92045;
0062998015999992011010122004+43333-070550FM-18+0019WEXM1V0201101N000519999999N9999999N1+00501+99999999999REMSYN053CMAN  01224 WEXM1 46/// /1101 10050 20035 0180 92145;
0000998015999992011010123004+43333-070550FM-18+0019WEXM1V0200501N001019999999N9999999N1+00471+99999999999
0062998015999992011010200004+43333-070550FM-18+0019WEXM1V0200501N001019999999N9999999N1+00441+99999999999REMSYN053CMAN  02004 WEXM1 46/// /0502 10044 20058 58010 9000;
0062998015999992011010201004+43333-070550FM-18+0019WEXM1V0203501N001019999999N9999999N1+00471+99999999999REMSYN053CMAN  02014 WEXM1 46/// /3502 10047 0170 56010 90100;
0062998015999992011010202004+43333-070550FM-18+0019WEXM1V0203601N001519999999N9999999N1+00481+99999999999REMSYN053CMAN  02024 WEXM1 46/// /3603 10048 0160 58010 90200;
0062998015999992011010203004+43333-070550FM-18+0019WEXM1V0200701N001519999999N9999999N1+00531+99999999999REMSYN053CMAN  02034 WEXM1 46/// /0703 10053 0160 57010 90300;
0062998015999992011010204004+43333-070550FM-18+0019WEXM1V0203601N001019999999N9999999N1+00511+99999999999REMSYN053CMAN  02044 WEXM1 46/// /3602 10051 0160 56010 90400;
0000998015999992011010205004+43333-070550FM-18+0019WEXM1V0203101N001519999999N9999999N1+00461+99999999999
0100998015999992011010206004+43333-070550FM-18+0019WEXM1V0203101N001519999999N9999999N1+00401+99999999999REMSYN091CMAN  02064 WEXM1 46/// /3103 10040 40207 55000 90600 222// 001691208 555 6 555 1004 22004;
0062998015999992011010207004+43333-070550FM-18+0019WEXM1V0203201N001519999999N9999999N1+00391+99999999999REMSYN053CMAN  02074 WEXM1 46/// /3203 10039 20043 40250 0645;
0000998015999992011010208004+43333-070550FM-18+0019WEXM1V0202901N001019999999N9999999N1+00381+99999999999
0132998015999992011010209004+43333-070550FM-18+0019WEXM1V0203401N002119999999N9999999N1+00361+99999999999REMSYN123CMAN  02094 WEXM1 46/// /3404 10036 20041 40260 50004 90900 333 91224 555 8 555  3/103 4/047 55300 20111 30111 69907 88704;
0090998015999992011010210004+43333-070550FM-18+0019WEXM1V0202601N001019999999N9999999N1+00371+99999999999REMSYN081CMAN  02104 WEXM1 46/// /2602 10037 21051 40180 52003 91000 333 91225 555 6 555 ;
0000998015999992011010211004+43333-070550FM-18+0019WEXM1V0202801N000519999999N9999999N1+00371+99999999999
0091998015999992011010212004+43333-070550FM-18+0019WEXM1V0200701N001019999999N9999999N1+00321+99999999999REMSYN082CMAN  02124 WEXM1 46/// /0702 10032 21051 91154 333 91211 5 91200 333 91212 555 3;
0109998015999992011010213004+43333-070550FM-18+0019WEXM1V0203201N001019999999N9999999N1+00271+99999999999REMSYN100CMAN  02134 WEXM1 46/// /3202 10027 40123 56005 91300 222// 00250 333 91227 555 5 81812 83362 80856;
0062998015999992011010214004+43333-070550FM-18+0019WEXM1V0203201N001519999999N9999999N1+00421+99999999999REMSYN053CMAN  02144 WEXM1 46/// /3203 10042 20048 0120 91345;
0100998015999992011010215004+43333-070550FM-18+0019WEXM1V0202901N000519999999N9999999N1+00491+99999999999REMSYN091CMAN  02154 WEXM1 46/// /2901 10049 21046 91454 333 91204 5 91500 333 91210 555 1028 22030;
0062998015999992011010216004+43333-070550FM-18+0019WEXM1V0209999C000019999999N9999999N1+00561+99999999999REMSYN053CMAN  02164 WEXM1 46/// /0000 10056 21022 0140 91545;
0062998015999992011010217004+43333-070550FM-18+0019WEXM1V0200801N001019999999N9999999N1+00541+99999999999REMSYN053CMAN  02174 WEXM1 46/// /0802 10054 0077 40120 91645;
0100998015999992011010218004+43333-070550FM-18+0019WEXM1V0202901N000519999999N9999999N1+00641+99999999999REMSYN091CMAN  02184 WEXM1 46/// /2901 10064 21027 30200 40207 51004 91800 555 91235 555 1005 22006;
0099998015999992011010219004+43333-070550FM-18+0019WEXM1V0209999C000019999999N9999999N1+00681+99999999999REMSYN090CMAN  02194 WEXM1 46/// /0000 10068 20148 40170 51006 91900 333 91227 555 5 555 201 70009;
0062998015999992011010220004+43333-070550FM-18+0019WEXM1V0209999C000019999999N9999999N1+00681+99999999999REMSYN053CMAN  02204 WEXM1 46/// /0000 10068 20063 0130 91945;
0100998015999992011010221004+43333-070550FM-18+0019WEXM1V0209999C000019999999N9999999N1+00581+99999999999REMSYN091CMAN  02214 WEXM1 46/// /0000 10058 40181 56011 92100 222// 001691207 555  555 11029 22031;
0000998015999992011010222004+43333-070550FM-18+0019WEXM1V0202201N001019999999N9999999N1+00521+99999999999
0084998015999992011010223004+43333-070550FM-18+0019WEXM1V0202701N000519999999N9999999N1+00431+99999999999REMSYN075CMAN  02234 WEXM1 46/// /2701 10043 20085 92317 222// 00084 10702 70011205;
0084998015999992011010300004+43333-070550FM-18+0019WEXM1V0203101N001519999999N9999999N1+00241+99999999999REMSYN075CMAN  03004 WEXM1 46/// /3103 10024 20136 40190 90000 222// 0013 333 91205;
0062998015999992011010301004+43333-070550FM-18+0019WEXM1V0202801N001019999999N9999999N1+00251+99999999999REMSYN053CMAN  03014 WEXM1 46/// /2802 10025 40090 40150 0130;
0068998015999992011010302004+43333-070550FM-18+0019WEXM1V0203101N001019999999N9999999N1+00251+99999999999REMSYN059CMAN  03024 WEXM1 46/// /3102 10025 40080 40150 2020 90200;
0068998015999992011010303004+43333-070550FM-18+0019WEXM1V0202701N001019999999N9999999N1+00251+99999999999REMSYN059CMAN  03034 WEXM1 46/// /2702 10025 40080 40150 2020 90300;
0086998015999992011010304004+43333-070550FM-18+0019WEXM1V0202201N001519999999N9999999N1+00311+99999999999REMSYN077CMAN  03044 WEXM1 46/// /2203 10031 40070 40160 90400 333 91204 557008 22200;
0097998015999992011010305004+43333-070550FM-18+0019WEXM1V0202501N002619999999N9999999N1+00281+99999999999REMSYN088CMAN  03054 WEXM1 46/// /2505 10028 20106 90454 333 91206 5 00066 11406 70032 333 91212;
0076998015999992011010306004+43333-070550FM-18+0019WEXM1V0202801N003619999999N9999999N1+00251+99999999999REMSYN067CMAN  03064 WEXM1 46/// /2807 10025 40190 58008 90600 222// 001616;
0100998015999992011010307004+43333-070550FM-18+0019WEXM1V0202901N003619999999N9999999N1+00131+99999999999REMSYN091CMAN  03074 WEXM1 46/// /2907 10013 20105 0149 40156 57013 90700 333 91236 555 11030 22033;
0000998015999992011010308004+43333-070550FM-18+0019WEXM1V0202901N004119999999N9999999N1+00071+99999999999
0091998015999992011010309004+43333-070550FM-18+0019WEXM1V0203001N003619999999N9999999N1-00041+99999999999REMSYN082CMAN  03094 WEXM1 46/// /3007 11004 20099 40240 40156 56003 90900 333 91234 555 2;
0000998015999992011010310004+43333-070550FM-18+0019WEXM1V0202901N003119999999N9999999N1-00121+99999999999
0100998015999992011010311004+43333-070550FM-18+0019WEXM1V0202801N003119999999N9999999N1-00151+99999999999REMSYN091CMAN  03114 WEXM1 46/// /2806 11015 20099 30167 40170 91044 333 91208 555 6 555 1003 22004;
0102998015999992011010312004+43333-070550FM-18+0019WEXM1V0203001N003119999999N9999999N1-00201+99999999999REMSYN093CMAN  03124 WEXM1 46/// /3006 11020 20102 40230 40142 56014 91200 333 91234 555  40302 52000;
0072998015999992011010313004+43333-070550FM-18+0019WEXM1V0202801N002119999999N9999999N1-00241+99999999999REMSYN063CMAN  03134 WEXM1 46/// /2804 11024 20098 91254 333 91205 5316;
0062998015999992011010314004+43333-070550FM-18+0019WEXM1V0202801N002619999999N9999999N1-00181+99999999999REMSYN053CMAN  03144 WEXM1 46/// /2805 11018 20009 0160 91345;
0000998015999992011010315004+43333-070550FM-18+0019WEXM1V0202901N004619999999N9999999N1-00111+99999999999
0100998015999992011010316004+43333-070550FM-18+0019WEXM1V0202601N005119999999N9999999N1-00061+99999999999REMSYN091CMAN  03164 WEXM1 46/// /2610 11006 40134 56012 91600 222// 002591209 555 3 555 1003 22004;
0000998015999992011010317004+43333-070550FM-18+0019WEXM1V0202801N004619999999N9999999N1-00041+99999999999
0091998015999992011010318004+43333-070550FM-18+0019WEXM1V0202801N003619999999N9999999N1+00001+99999999999REMSYN082CMAN  03184 WEXM1 46/// /2807 10000 20113 40240 22// 00185 333 91212 555 TIDE1192;
0100998015999992011010319004+43333-070550FM-18+0019WEXM1V0202801N005119999999N9999999N1-00011+99999999999REMSYN091CMAN  03194 WEXM1 46/// /2810 11001 20108 30080 40091 56014 91900 333 91231 555 1003 22004;
0100998015999992011010320004+43333-070550FM-18+0019WEXM1V0203001N005119999999N9999999N1-00021+99999999999REMSYN091CMAN  03204 WEXM1 46/// /3010 11002 20109 30098 40105 57014 92000 333 91231 555 1002 22003;
0062998015999992011010321004+43333-070550FM-18+0019WEXM1V0202801N003119999999N9999999N1-00071+99999999999REMSYN053CMAN  03214 WEXM1 46/// /2806 11007 20059 0170 92045;
0099998015999992011010322004+43333-070550FM-18+0019WEXM1V0202901N003119999999N9999999N1-00161+99999999999REMSYN090CMAN  03224 WEXM1 46/// /2906 11016 49976 58028 92200 222// 00030 333 91232 555 103 70023;
0097998015999992011010323004+43333-070550FM-18+0019WEXM1V0202801N003119999999N9999999N1-00191+99999999999REMSYN088CMAN  03234 WEXM1 46/// /2806 11019 20107 30081 40088 57017 92300 333 91226 555 3 912//;
0097998015999992011010400004+43333-070550FM-18+0019WEXM1V0202601N002619999999N9999999N1-00231+99999999999REMSYN088CMAN  04004 WEXM1 46/// /2605 11023 20108 92354 333 91203 5 333 20216 569// 79990 82823;
0056998015999992011010401004+43333-070550FM-18+0019WEXM1V0203001N001019999999N9999999N1-00291-01291999999REMSYN047CMAN 04014 WEXM1 46/// /3002 11029 21129 90115;
0062998015999992011010402004+43333-070550FM-18+0019WEXM1V0209999C000019999999N9999999N1-00421+99999999999REMSYN053CMAN  04024 WEXM1 46/// /0000 11042 0180 53010 90200;
0062998015999992011010403004+43333-070550FM-18+0019WEXM1V0202601N002119999999N9999999N1-00341+99999999999REMSYN053CMAN  04034 WEXM1 46/// /2604 11034 0180 52010 90300;
0097998015999992011010404004+43333-070550FM-18+0019WEXM1V0202501N001519999999N9999999N1-00441+99999999999REMSYN088CMAN  04044 WEXM1 46/// /2503 11044 40180 50000 9040 222// 00192 333 91205 555 TIDE1326;
0110998015999992011010405004+43333-070550FM-18+0019WEXM1V0202901N001019999999N9999999N1-00431+99999999999REMSYN101CMAN  04054 WEXM1 46/// /2902 11043 40237 57010 90500 333 91202 555 3 91222 555 50136 70435 80456 82;
0000998015999992011010406004+43333-070550FM-18+0019WEXM1V0202401N001519999999N9999999N1-00541+99999999999
0100998015999992011010407004+43333-070550FM-18+0019WEXM1V0202301N002619999999N9999999N1-00541+99999999999REMSYN091CMAN  04074 WEXM1 46/// /2305 11054 20090 40180 40027 57020 90700 333 91210 555 1008 22010;
0062998015999992011010408004+43333-070550FM-18+0019WEXM1V0202401N002619999999N9999999N1-00621+99999999999REMSYN053CMAN  04084 WEXM1 46/// /2405 11062 20022 0210 90745;
0097998015999992011010409004+43333-070550FM-18+0019WEXM1V0202401N002119999999N9999999N1-00641+99999999999REMSYN088CMAN  04094 WEXM1 46/// /2404 11064 20086 40210 00150 222// 00130 333 91243 555 7 87620;
0100998015999992011010410004+43333-070550FM-18+0019WEXM1V0202401N001519999999N9999999N1-00681+99999999999REMSYN091CMAN  04104 WEXM1 46/// /2403 11068 20076 0003 40010 56017 91000 333 91214 555 11008 22009;
0000998015999992011010411004+43333-070550FM-18+0019WEXM1V0202501N001019999999N9999999N1-00641+99999999999
0062998015999992011010412004+43333-070550FM-18+0019WEXM1V0202501N001519999999N9999999N1-00571+99999999999REMSYN053CMAN  04124 WEXM1 46/// /2503 11057 20014 40180 1145;
0084998015999992011010413004+43333-070550FM-18+0019WEXM1V0202401N003619999999N9999999N1-00601+99999999999REMSYN075CMAN  04134 WEXM1 46/// /2407 11060 20054 40200 91300 222// 0012 333 91207;
0056998015999992011010414004+43333-070550FM-18+0019WEXM1V0202401N003119999999N9999999N1-00481+99999999999REMSYN047CMAN  04144 WEXM1 46/// /2406 11048 0160 91345;
0068998015999992011010415004+43333-070550FM-18+0019WEXM1V0202301N003119999999N9999999N1-00211+99999999999REMSYN059CMAN  04154 WEXM1 46/// /2306 11021 40150 40190 5000 91500;
0000998015999992011010416004+43333-070550FM-18+0019WEXM1V0202301N002119999999N9999999N1-00191+99999999999
0000998015999992011010417004+43333-070550FM-18+0019WEXM1V0202401N001519999999N9999999N1-00061+99999999999
0079998015999992011010418004+43333-070550FM-18+0019WEXM1V0202201N002619999999N9999999N1-00011+99999999999REMSYN070CMAN  04184 WEXM1 46/// /2205 11001 40207 53018 91800 222// 0009555 0;
0000998015999992011010419004+43333-070550FM-18+0019WEXM1V0202501N001519999999N9999999N1+00041+99999999999
0000998015999992011010420004+43333-070550FM-18+0019WEXM1V0203001N001519999999N9999999N1+00001+99999999999
0000998015999992011010421004+43333-070550FM-18+0019WEXM1V0203201N002119999999N9999999N1-00071+99999999999
0000998015999992011010422004+43333-070550FM-18+0019WEXM1V0203301N001019999999N9999999N1-00141+99999999999
0104998015999992011010423004+43333-070550FM-18+0019WEXM1V0203401N001019999999N9999999N1-00201+99999999999REMSYN095CMAN  04234 WEXM1 46/// /3402 11020 40166 51008 92300 222// 002491233 555 3 555 28 10402 70008;
0000998015999992011010500004+43333-070550FM-18+0019WEXM1V0203101N001019999999N9999999N1-00301+99999999999
0062998015999992011010501004+43333-070550FM-18+0019WEXM1V0203001N001019999999N9999999N1-00431+99999999999REMSYN053CMAN  05014 WEXM1 46/// /3002 11043 40070 40190 0115;
0068998015999992011010502004+43333-070550FM-18+0019WEXM1V0203101N001519999999N9999999N1-00441+99999999999REMSYN059CMAN  05024 WEXM1 46/// /3103 11044 40070 40200 2010 90200;
0068998015999992011010503004+43333-070550FM-18+0019WEXM1V0209999C000019999999N9999999N1-00621+99999999999REMSYN059CMAN  05034 WEXM1 46/// /0000 11062 40070 40200 4000 90300;
0062998015999992011010504004+43333-070550FM-18+0019WEXM1V0209999C000019999999N9999999N1-00721+99999999999REMSYN053CMAN  05044 WEXM1 46/// /0000 11072 40060 40190 0345;
0091998015999992011010505004+43333-070550FM-18+0019WEXM1V0202901N000519999999N9999999N1-00731+99999999999REMSYN082CMAN  05054 WEXM1 46/// /2901 11073 20085 90454 333 91202 5 90500 333 91217 555 9;
0096998015999992011010506004+43333-070550FM-18+0019WEXM1V0203301N000519999999N9999999N1-00801+99999999999REMSYN087CMAN  05064 WEXM1 46/// /3301 11080 40123 56007 90600 222// 00010 333 91215 555  91110;
0099998015999992011010507004+43333-070550FM-18+0019WEXM1V0202901N001019999999N9999999N1-00701+99999999999REMSYN090CMAN  05074 WEXM1 46/// /2902 11070 20008 53011 90700 222// 00263 20901 329// 41403 70017;
0062998015999992011010508004+43333-070550FM-18+0019WEXM1V0202701N001019999999N9999999N1-00521+99999999999REMSYN053CMAN  05084 WEXM1 46/// /2702 11052 20016 0190 90745;
0084998015999992011010509004+43333-070550FM-18+0019WEXM1V0202901N000519999999N9999999N1-00571+99999999999REMSYN075CMAN  05094 WEXM1 46/// /2901 11057 40160 52014 90900 222// 0025 333 91202;
0088998015999992011010510004+43333-070550FM-18+0019WEXM1V0202701N001519999999N9999999N1-00451+99999999999REMSYN079CMAN  05104 WEXM1 46/// /2703 11045 20019 40170 91000 222// 001155 19999 29999;
0100998015999992011010511004+43333-070550FM-18+0019WEXM1V0202501N001519999999N9999999N1-00491+99999999999REMSYN091CMAN  05114 WEXM1 46/// /2503 11049 20004 30037 40044 50000 91100 333 91238 555 1005 22006;
0097998015999992011010512004+43333-070550FM-18+0019WEXM1V0202601N002119999999N9999999N1-00551+99999999999REMSYN088CMAN  05124 WEXM1 46/// /2604 11055 40173 55000 91200 222// 001691209 555 1 555 3 91217;
0100998015999992011010513004+43333-070550FM-18+0019WEXM1V0202501N002119999999N9999999N1-00481+99999999999REMSYN091CMAN  05134 WEXM1 46/// /2504 11048 20009 0024 40031 58016 91300 333 91228 555 11019 22022;
0100998015999992011010514004+43333-070550FM-18+0019WEXM1V0202701N002119999999N9999999N1-00301+99999999999REMSYN091CMAN  05144 WEXM1 46/// /2704 11030 40161 54000 91400 222// 002491207 555 1 555 1006 22007;
0062998015999992011010515004+43333-070550FM-18+0019WEXM1V0202601N002619999999N9999999N1-00061+99999999999REMSYN053CMAN  05154 WEXM1 46/// /2605 11006 20009 0250 91445;
0100998015999992011010516004+43333-070550FM-18+0019WEXM1V0202501N002619999999N9999999N1+00041+99999999999REMSYN091CMAN  05164 WEXM1 46/// /2505 10004 20008 53025 91600 222// 000391203 555  555 11012 22014;
0100998015999992011010517004+43333-070550FM-18+0019WEXM1V0202601N003619999999N9999999N1+00111+99999999999REMSYN091CMAN  05174 WEXM1 46/// /2607 10011 40153 56008 91700 222// 00240 333 91209 555 1014 22016;
0091998015999992011010518004+43333-070550FM-18+0019WEXM1V0202801N002619999999N9999999N1+00101+99999999999REMSYN082CMAN  05184 WEXM1 46/// /2805 10010 20024 39943 49947 91744 333 91213 555 3 555 3;
0062998015999992011010519004+43333-070550FM-18+0019WEXM1V0202901N001019999999N9999999N1+00041+99999999999REMSYN053CMAN  05194 WEXM1 46/// /2902 10004 20043 0070 91845;
0130998015999992011010520004+43333-070550FM-18+0019WEXM1V0202901N002619999999N9999999N1-00051+99999999999REMSYN121CMAN  05204 WEXM1 46/// /2905 11005 40159 56026 92000 222// 001630 57030 7//11 8214/ 22272 04272 20403 307// 40604 80230;
0084998015999992011010521004+43333-070550FM-18+0019WEXM1V0202601N003119999999N9999999N1-00041+99999999999REMSYN075CMAN  05214 WEXM1 46/// /2606 11004 20034 56028 92100 222// 00260710 91129;
0091998015999992011010522004+43333-070550FM-18+0019WEXM1V0202601N002119999999N9999999N1-00141+99999999999REMSYN082CMAN  05224 WEXM1 46/// /2604 11014 20092 39888 49895 92200 333 91239 555 7 84612;
0062998015999992011010523004+43333-070550FM-18+0019WEXM1V0202601N001019999999N9999999N1-00231+99999999999REMSYN053CMAN  05234 WEXM1 46/// /2602 11023 20086 0080 92245;
0062998015999992011010600004+43333-070550FM-18+0019WEXM1V0202401N002119999999N9999999N1-00261+99999999999REMSYN053CMAN  06004 WEXM1 46/// /2404 11026 20033 40230 2345;
0068998015999992011010601004+43333-070550FM-18+0019WEXM1V0203001N002619999999N9999999N1-00341+99999999999REMSYN059CMAN  06014 WEXM1 46/// /3005 11034 40070 40180 6010 90100;
0068998015999992011010602004+43333-070550FM-18+0019WEXM1V0202701N002119999999N9999999N1-00391+99999999999REMSYN059CMAN  06024 WEXM1 46/// /2704 11039 40070 40180 8010 90200;
0068998015999992011010603004+43333-070550FM-18+0019WEXM1V0202601N001019999999N9999999N1-00421+99999999999REMSYN059CMAN  06034 WEXM1 46/// /2602 11042 40070 40180 7020 90300;
0062998015999992011010604004+43333-070550FM-18+0019WEXM1V0202501N003619999999N9999999N1-00501+99999999999REMSYN053CMAN  06044 WEXM1 46/// /2507 11050 40070 40180 0400;
0091998015999992011010605004+43333-070550FM-18+0019WEXM1V0202501N002119999999N9999999N1-00561+99999999999REMSYN082CMAN  06054 WEXM1 46/// /2504 11056 20072 90454 333 91207 5 90500 333 91228 555 3;
0097998015999992011010606004+43333-070550FM-18+0019WEXM1V0202601N002119999999N9999999N1-00611+99999999999REMSYN088CMAN  06064 WEXM1 46/// /2604 11061 40144 55000 90600 222// 002591236 555 6 555 1 19009;
0000998015999992011010607004+43333-070550FM-18+0019WEXM1V0202701N002119999999N9999999N1-00641+99999999999
0062998015999992011010608004+43333-070550FM-18+0019WEXM1V0202701N001519999999N9999999N1-00701+99999999999REMSYN053CMAN  06084 WEXM1 46/// /2703 11070 20039 40180 0745;
0056998015999992011010609004+43333-070550FM-18+0019WEXM1V0202601N002119999999N9999999N1-00731+99999999999REMSYN047CMAN  06094 WEXM1 46/// /2604 11073 20015 0845;
0062998015999992011010610004+43333-070550FM-18+0019WEXM1V0202601N002119999999N9999999N1-00761+99999999999REMSYN053CMAN  06104 WEXM1 46/// /2604 11076 21011 0230 90945;
0062998015999992011010611004+43333-070550FM-18+0019WEXM1V0202601N001519999999N9999999N1-00841+99999999999REMSYN053CMAN  06114 WEXM1 46/// /2603 11084 21006 0070 91045;
0097998015999992011010612004+43333-070550FM-18+0019WEXM1V0202501N000519999999N9999999N1-00861+99999999999REMSYN088CMAN  06124 WEXM1 46/// /2501 11086 40057 55000 91200 222// 00010 333 91223 555 3 91206;
0099998015999992011010613004+43333-070550FM-18+0019WEXM1V0202301N001019999999N9999999N1-00941+99999999999REMSYN090CMAN  06134 WEXM1 46/// /2302 11094 40148 56006 91300 222// 00240 333 91216 555 403 70014;
0100998015999992011010614004+43333-070550FM-18+0019WEXM1V0202401N002119999999N9999999N1-00651+99999999999REMSYN091CMAN  06144 WEXM1 46/// /2404 11065 21014 0071 40078 52027 91400 333 91227 555 11020 22023;
0000998015999992011010615004+43333-070550FM-18+0019WEXM1V0202301N001519999999N9999999N1-00491+99999999999
0076998015999992011010616004+43333-070550FM-18+0019WEXM1V0202401N001519999999N9999999N1-00321+99999999999REMSYN067CMAN  06164 WEXM1 46/// /2403 11032 20018 40080 00110 222// 001207;
0062998015999992011010617004+43333-070550FM-18+0019WEXM1V0202201N001519999999N9999999N1-00271+99999999999REMSYN053CMAN  06174 WEXM1 46/// /2203 11027 0013 40190 91645;
0062998015999992011010618004+43333-070550FM-18+0019WEXM1V0202601N001519999999N9999999N1-00191+99999999999REMSYN053CMAN  06184 WEXM1 46/// /2603 11019 49967 58014 9180;
0100998015999992011010619004+43333-070550FM-18+0019WEXM1V0203101N002119999999N9999999N1-00221+99999999999REMSYN091CMAN  06194 WEXM1 46/// /3104 11022 20080 0118 40125 52030 91900 333 91232 555 11024 22026;
0000998015999992011010620004+43333-070550FM-18+0019WEXM1V0203001N002119999999N9999999N1-00211+99999999999
0100998015999992011010621004+43333-070550FM-18+0019WEXM1V0203001N001519999999N9999999N1-00281+99999999999REMSYN091CMAN  06214 WEXM1 46/// /3003 11028 20092 92054 333 91212 5 92100 333 91214 555 1026 22029;
0090998015999992011010622004+43333-070550FM-18+0019WEXM1V0202801N000519999999N9999999N1-00361+99999999999REMSYN081CMAN  06224 WEXM1 46/// /2801 11036 20089 40180 40139 51014 92200 333 91230 555 ;
0000998015999992011010623004+43333-070550FM-18+0019WEXM1V0202901N000519999999N9999999N1-00491+99999999999
0074998015999992011010700004+43333-070550FM-18+0019WEXM1V0203101N001519999999N9999999N1-00571+99999999999REMSYN065CMAN  07004 WEXM1 46/// /3103 11057 20094 53007 90000 222// 0008;
0068998015999992011010701004+43333-070550FM-18+0019WEXM1V0203301N002119999999N9999999N1-00801+99999999999REMSYN059CMAN  07014 WEXM1 46/// /3304 11080 40030 40170 7010 90100;
0068998015999992011010702004+43333-070550FM-18+0019WEXM1V0203301N002119999999N9999999N1-00711+99999999999REMSYN059CMAN  07024 WEXM1 46/// /3304 11071 40030 40180 6010 90200;
0068998015999992011010703004+43333-070550FM-18+0019WEXM1V0203301N002619999999N9999999N1-00831+99999999999REMSYN059CMAN  07034 WEXM1 46/// /3305 11083 40020 40180 2020 90300;
0097998015999992011010704004+43333-070550FM-18+0019WEXM1V0203401N003119999999N9999999N1-00861+99999999999REMSYN088CMAN  07044 WEXM1 46/// /3406 11086 0106 53011 90400 222// 00162 333 91223 555 TIDE1279;
0091998015999992011010705004+43333-070550FM-18+0019WEXM1V0203501N002619999999N9999999N1-00891+99999999999REMSYN082CMAN  07054 WEXM1 46/// /3505 11089 40034 90440 333 91206 555  91223 555 TIDE1307;
0000998015999992011010706004+43333-070550FM-18+0019WEXM1V0203301N002619999999N9999999N1-00911+99999999999
0114998015999992011010707004+43333-070550FM-18+0019WEXM1V0203301N003619999999N9999999N1-00941+99999999999REMSYN105CMAN  07074 WEXM1 46/// /3307 11094 20087 40170 40173 53014 90700 333 91215 555 14 10805 70023 555 1/028;
0000998015999992011010708004+43333-070550FM-18+0019WEXM1V0203301N003619999999N9999999N1-00951+99999999999
0100998015999992011010709004+43333-070550FM-18+0019WEXM1V0203401N003619999999N9999999N1-00951+99999999999REMSYN091CMAN  07094 WEXM1 46/// /3407 11095 20096 30148 40159 51007 90900 333 91219 555 1001 22001;
0100998015999992011010710004+43333-070550FM-18+0019WEXM1V0203301N003619999999N9999999N1-00961+99999999999REMSYN091CMAN  07104 WEXM1 46/// /3307 11096 20096 30169 40176 53003 91000 333 91217 555 1005 22006;
0000998015999992011010711004+43333-070550FM-18+0019WEXM1V0203401N003119999999N9999999N1-00961+99999999999
0000998015999992011010712004+43333-070550FM-18+0019WEXM1V0203401N003619999999N9999999N1-00921+99999999999
0100998015999992011010713004+43333-070550FM-18+0019WEXM1V0203301N003619999999N9999999N1-00901+99999999999REMSYN091CMAN  07134 WEXM1 46/// /3307 11090 20079 0173 40180 53004 91300 333 91222 555 11018 22020;
0090998015999992011010714004+43333-070550FM-18+0019WEXM1V0203401N004119999999N9999999N1-00811+99999999999REMSYN081CMAN  07144 WEXM1 46/// /3408 11081 40125 58006 91400 222// 00240 333 91208 555 ;
0100998015999992011010715004+43333-070550FM-18+0019WEXM1V0203501N003119999999N9999999N1-00661+99999999999REMSYN091CMAN  07154 WEXM1 46/// /3506 11066 20024 40150 54000 91500 333 91220 555 5 555 1010 22012;
0109998015999992011010716004+43333-070550FM-18+0019WEXM1V0203601N003619999999N9999999N1-00471+99999999999REMSYN100CMAN  07164 WEXM1 46/// /3607 11047 40120 56009 91600 222// 00240 333 91237 555 5 90710 91106 93100;
0000998015999992011010717004+43333-070550FM-18+0019WEXM1V0203601N003119999999N9999999N1-00371+99999999999
0000998015999992011010718004+43333-070550FM-18+0019WEXM1V0200101N003119999999N9999999N1-00311+99999999999
0000998015999992011010719004+43333-070550FM-18+0019WEXM1V0200101N003619999999N9999999N1-00241+99999999999
0099998015999992011010720004+43333-070550FM-18+0019WEXM1V0200101N004119999999N9999999N1-00221+99999999999REMSYN090CMAN  07204 WEXM1 46/// /0108 11022 49962 55009 92000 222// 000191222 555 1 555 402 70009;
0090998015999992011010721004+43333-070550FM-18+0019WEXM1V0200101N003619999999N9999999N1-00311+99999999999REMSYN081CMAN  07214 WEXM1 46/// /0107 11031 20106 40000 92100 222// 0007 333 58013 85080;
0000998015999992011010722004+43333-070550FM-18+0019WEXM1V0203601N002619999999N9999999N1-00371+99999999999
0100998015999992011010723004+43333-070550FM-18+0019WEXM1V0203501N003119999999N9999999N1-00441+99999999999REMSYN091CMAN  07234 WEXM1 46/// /3506 11044 20105 0203 40210 51017 92300 333 91244 555 11034 22037;
0000998015999992011010800004+43333-070550FM-18+0019WEXM1V0203501N003119999999N9999999N1-00501+99999999999
0068998015999992011010801004+43333-070550FM-18+0019WEXM1V0203501N003619999999N9999999N1-00491+99999999999REMSYN059CMAN  08014 WEXM1 46/// /3507 11049 49950 40150 8010 90100;
0068998015999992011010802004+43333-070550FM-18+0019WEXM1V0203501N004119999999N9999999N1-00501+99999999999REMSYN059CMAN  08024 WEXM1 46/// /3508 11050 49960 40140 7010 90200;
0068998015999992011010803004+43333-070550FM-18+0019WEXM1V0203601N003619999999N9999999N1-00521+99999999999REMSYN059CMAN  08034 WEXM1 46/// /3607 11052 49960 40140 6010 90300;
0097998015999992011010804004+43333-070550FM-18+0019WEXM1V0203401N003119999999N9999999N1-00591+99999999999REMSYN088CMAN  08044 WEXM1 46/// /3406 11059 49950 40140 0400 222// 00170 333 91213 555 TIDE1264;
0091998015999992011010805004+43333-070550FM-18+0019WEXM1V0203401N003119999999N9999999N1-00671+99999999999REMSYN082CMAN  08054 WEXM1 46/// /3406 11067 49983 90450 333 91202 555  91212 555 TIDE1309;
0000998015999992011010806004+43333-070550FM-18+0019WEXM1V0203501N003619999999N9999999N1-00671+99999999999
0000998015999992011010807004+43333-070550FM-18+0019WEXM1V0203401N003119999999N9999999N1-00701+99999999999
0103998015999992011010808004+43333-070550FM-18+0019WEXM1V0203301N002619999999N9999999N1-00741+99999999999REMSYN094CMAN  08084 WEXM1 46/// /3305 11074 20077 90754 333 91207 5 555 0 333 91243 555 1 00183 1////;
0000998015999992011010809004+43333-070550FM-18+0019WEXM1V0203301N002619999999N9999999N1-00741+99999999999
0000998015999992011010810004+43333-070550FM-18+0019WEXM1V0203201N001519999999N9999999N1-00771+99999999999
0000998015999992011010811004+43333-070550FM-18+0019WEXM1V0203201N002119999999N9999999N1-00681+99999999999
0000998015999992011010812004+43333-070550FM-18+0019WEXM1V0203301N001519999999N9999999N1-00631+99999999999
0062998015999992011010813004+43333-070550FM-18+0019WEXM1V0203301N003119999999N9999999N1-00571+99999999999REMSYN053CMAN  08134 WEXM1 46/// /3306 11057 20022 9970 91245;
0062998015999992011010814004+43333-070550FM-18+0019WEXM1V0203501N003119999999N9999999N1-00491+99999999999REMSYN053CMAN  08144 WEXM1 46/// /3506 11049 20065 40110 1345;
0100998015999992011010815004+43333-070550FM-18+0019WEXM1V0203501N002619999999N9999999N1-00381+99999999999REMSYN091CMAN  08154 WEXM1 46/// /3505 11038 20067 40120 40301 51013 91500 333 91252 555 1008 22009;
0100998015999992011010816004+43333-070550FM-18+0019WEXM1V0200101N003119999999N9999999N1-00281+99999999999REMSYN091CMAN  08164 WEXM1 46/// /0106 11028 20074 0305 40312 53017 91600 333 91250 555 11037 22040;
0062998015999992011010817004+43333-070550FM-18+0019WEXM1V0200201N002619999999N9999999N1-00121+99999999999REMSYN053CMAN  08174 WEXM1 46/// /0205 11012 1025 49960 91645;
0080998015999992011010818004+43333-070550FM-18+0019WEXM1V0203601N002619999999N9999999N1-00091+99999999999REMSYN071CMAN  08184 WEXM1 46/// /3605 11009 40105 55000 91800 222// 0003 8808/;
0000998015999992011010819004+43333-070550FM-18+0019WEXM1V0203601N001519999999N9999999N1-00061+99999999999
0000998015999992011010820004+43333-070550FM-18+0019WEXM1V0200101N002119999999N9999999N1-00041+99999999999
0000998015999992011010821004+43333-070550FM-18+0019WEXM1V0200301N002119999999N9999999N1-00051+99999999999
0100998015999992011010822004+43333-070550FM-18+0019WEXM1V0200101N000519999999N9999999N1-00081+99999999999REMSYN091CMAN  08224 WEXM1 46/// /0101 11008 40124 51016 92200 222// 00250 333 91235 555 1007 22008;
0100998015999992011010823004+43333-070550FM-18+0019WEXM1V0203601N002619999999N9999999N1-00071+99999999999REMSYN091CMAN  08234 WEXM1 46/// /3605 11007 20077 40090 40356 52017 92300 333 91244 555 1007 22008;
0084998015999992011010900004+43333-070550FM-18+0019WEXM1V0203601N002619999999N9999999N1-00091+99999999999REMSYN075CMAN  09004 WEXM1 46/// /3605 11009 20074 40090 00120 222// 0013 333 91205;
0068998015999992011010901004+43333-070550FM-18+0019WEXM1V0203501N003119999999N9999999N1-00191+99999999999REMSYN059CMAN  09014 WEXM1 46/// /3506 11019 49910 0140 54000 90100;
0068998015999992011010902004+43333-070550FM-18+0019WEXM1V0203401N003119999999N9999999N1-00201+99999999999REMSYN059CMAN  09024 WEXM1 46/// /3406 11020 49910 0140 54000 90200;
0068998015999992011010903004+43333-070550FM-18+0019WEXM1V0203401N004119999999N9999999N1-00151+99999999999REMSYN059CMAN  09034 WEXM1 46/// /3408 11015 49900 0140 54000 90300;
0097998015999992011010904004+43333-070550FM-18+0019WEXM1V0203401N003619999999N9999999N1-00151+99999999999REMSYN088CMAN  09044 WEXM1 46/// /3407 11015 49900 40140 0400 222// 00165 333 91216 555 TIDE1160;
0000998015999992011010905004+43333-070550FM-18+0019WEXM1V0203401N004119999999N9999999N1-00161+99999999999
0100998015999992011010906004+43333-070550FM-18+0019WEXM1V0203401N004119999999N9999999N1-00171+99999999999REMSYN091CMAN  09064 WEXM1 46/// /3408 11017 20073 40070 40362 53003 90600 333 91244 555 1002 22002;
0100998015999992011010907004+43333-070550FM-18+0019WEXM1V0203401N004619999999N9999999N1-00121+99999999999REMSYN091CMAN  09074 WEXM1 46/// /3409 11012 20073 0355 40362 52003 90700 333 91248 555 11039 22042;
0094998015999992011010908004+43333-070550FM-18+0019WEXM1V0203501N004119999999N9999999N1-00101+99999999999REMSYN085CMAN  09084 WEXM1 46/// /3508 11010 20071 30346 40350 90744 555 0 333 91250 555 2003;
0096998015999992011010909004+43333-070550FM-18+0019WEXM1V0203401N002619999999N9999999N1-00061+99999999999REMSYN087CMAN  09094 WEXM1 46/// /3405 11006 20077 40170 00120 222// 00070 333 91224 555  83840;
0100998015999992011010910004+43333-070550FM-18+0019WEXM1V0203201N002619999999N9999999N1-00071+99999999999REMSYN091CMAN  09104 WEXM1 46/// /3205 11007 20074 0369 40376 51014 91000 333 91247 555 11025 22027;
0000998015999992011010911004+43333-070550FM-18+0019WEXM1V0203101N003119999999N9999999N1-00091+99999999999
0000998015999992011010912004+43333-070550FM-18+0019WEXM1V0202901N002119999999N9999999N1-00191+99999999999
0000998015999992011010913004+43333-070550FM-18+0019WEXM1V0202801N002119999999N9999999N1-00291+99999999999
0000998015999992011010914004+43333-070550FM-18+0019WEXM1V0202801N002119999999N9999999N1-00231+99999999999
0062998015999992011010915004+43333-070550FM-18+0019WEXM1V0202701N002619999999N9999999N1-00061+99999999999REMSYN053CMAN  09154 WEXM1 46/// /2705 11006 20010 0030 91445;
0097998015999992011010916004+43333-070550FM-18+0019WEXM1V0202601N003119999999N9999999N1+00071+99999999999REMSYN088CMAN  09164 WEXM1 46/// /2606 10007 20076 53006 91600 222// 00030 333 91243 555 3 91206;
0062998015999992011010917004+43333-070550FM-18+0019WEXM1V0202701N003619999999N9999999N1+00111+99999999999REMSYN053CMAN  09174 WEXM1 46/// /2707 10011 20006 0190 91645;
0000998015999992011010918004+43333-070550FM-18+0019WEXM1V0202801N004619999999N9999999N1+00171+99999999999
0084998015999992011010919004+43333-070550FM-18+0019WEXM1V0202901N005719999999N9999999N1+00131+99999999999REMSYN075CMAN  09194 WEXM1 46/// /2911 10013 20078 40230 91900 222// 0011 333 91221;
0084998015999992011010920004+43333-070550FM-18+0019WEXM1V0202901N004619999999N9999999N1+00071+99999999999REMSYN075CMAN  09204 WEXM1 46/// /2909 10007 20076 91948 333 91207 5 0016 333 91226;
0062998015999992011010921004+43333-070550FM-18+0019WEXM1V0202701N004119999999N9999999N1+00011+99999999999REMSYN053CMAN  09214 WEXM1 46/// /2708 10001 20013 0070 92045;
0108998015999992011010922004+43333-070550FM-18+0019WEXM1V0202701N003619999999N9999999N1-00091+99999999999REMSYN099CMAN  09224 WEXM1 46/// /2707 11009 40099 51008 92200 222// 0007 333 56000 57803 82818 85460 80857;
0000998015999992011010923004+43333-070550FM-18+0019WEXM1V0202701N003619999999N9999999N1-00121+99999999999
0062998015999992011011000004+43333-070550FM-18+0019WEXM1V0202701N004119999999N9999999N1-00151+99999999999REMSYN053CMAN  10004 WEXM1 46/// /2708 11015 20069 40110 2345;
0062998015999992011011001004+43333-070550FM-18+0019WEXM1V0202701N002119999999N9999999N1-00231+99999999999REMSYN053CMAN  10014 WEXM1 46/// /2704 11023 0100 51040 90100;
0062998015999992011011002004+43333-070550FM-18+0019WEXM1V0202701N003119999999N9999999N1-00291+99999999999REMSYN053CMAN  10024 WEXM1 46/// /2706 11029 0100 51020 90200;
0068998015999992011011003004+43333-070550FM-18+0019WEXM1V0202701N003619999999N9999999N1-00311+99999999999REMSYN059CMAN  10034 WEXM1 46/// /2707 11031 40110 40140 3010 90300;
0068998015999992011011004004+43333-070550FM-18+0019WEXM1V0202801N004619999999N9999999N1-00401+99999999999REMSYN059CMAN  10044 WEXM1 46/// /2809 11040 40110 40150 2010 90400;
0083998015999992011011005004+43333-070550FM-18+0019WEXM1V0202901N003619999999N9999999N1-00471+99999999999REMSYN074CMAN  10054 WEXM1 46/// /2907 11047 20084 40230 141 7//// 555 33024 40181;
0000998015999992011011006004+43333-070550FM-18+0019WEXM1V0202801N003119999999N9999999N1-00521+99999999999
0062998015999992011011007004+43333-070550FM-18+0019WEXM1V0202801N003119999999N9999999N1-00561+99999999999REMSYN053CMAN  10074 WEXM1 46/// /2806 11056 20084 0210 90645;
0000998015999992011011008004+43333-070550FM-18+0019WEXM1V0202701N003119999999N9999999N1-00591+99999999999
0000998015999992011011009004+43333-070550FM-18+0019WEXM1V0202801N003619999999N9999999N1-00631+99999999999
0062998015999992011011010004+43333-070550FM-18+0019WEXM1V0202801N003619999999N9999999N1-00661+99999999999REMSYN053CMAN  10104 WEXM1 46/// /2807 11066 21013 0140 90945;
0062998015999992011011011004+43333-070550FM-18+0019WEXM1V0202701N002619999999N9999999N1-00651+99999999999REMSYN053CMAN  10114 WEXM1 46/// /2705 11065 20085 0210 91045;
0129998015999992011011012004+43333-070550FM-18+0019WEXM1V0202801N002619999999N9999999N1-00571+99999999999REMSYN120CMAN  10124 WEXM1 46/// /2805 11057 40268 50008 91200 222// 00010 333 91239 555 001 22200 06020 20504 320// 40807 80036;
0090998015999992011011013004+43333-070550FM-18+0019WEXM1V0202701N003119999999N9999999N1-00541+99999999999REMSYN081CMAN  10134 WEXM1 46/// /2706 11054 20081 30372 40379 58007 91300 333 91242 555 ;
0000998015999992011011014004+43333-070550FM-18+0019WEXM1V0202801N002619999999N9999999N1-00491+99999999999
0000998015999992011011015004+43333-070550FM-18+0019WEXM1V0202901N002619999999N9999999N1-00361+99999999999
0062998015999992011011016004+43333-070550FM-18+0019WEXM1V0202701N003119999999N9999999N1-00191+99999999999REMSYN053CMAN  10164 WEXM1 46/// /2706 11019 20070 40180 1545;
0097998015999992011011017004+43333-070550FM-18+0019WEXM1V0202801N003619999999N9999999N1-00111+99999999999REMSYN088CMAN  10174 WEXM1 46/// /2807 11011 40274 58003 91700 222// 000391226 555 7 555 3 91206;
0084998015999992011011018004+43333-070550FM-18+0019WEXM1V0202601N003119999999N9999999N1-00071+99999999999REMSYN075CMAN  10184 WEXM1 46/// /2606 11007 20068 91736 333 91206 5 333 91224 555 ;
0097998015999992011011019004+43333-070550FM-18+0019WEXM1V0202701N004119999999N9999999N1-00021+99999999999REMSYN088CMAN  10194 WEXM1 46/// /2708 11002 40080 51010 91900 222// 00240 333 91240 555 3 91209;
0074998015999992011011020004+43333-070550FM-18+0019WEXM1V0202901N003619999999N9999999N1-00021+99999999999REMSYN065CMAN  10204 WEXM1 46/// /2907 11002 20075 56010 92000 222// 0002;
0000998015999992011011021004+43333-070550FM-18+0019WEXM1V0202701N003119999999N9999999N1-00071+99999999999
0000998015999992011011022004+43333-070550FM-18+0019WEXM1V0202701N002619999999N9999999N1-00201+99999999999
0000998015999992011011023004+43333-070550FM-18+0019WEXM1V0202601N002119999999N9999999N1-00281+99999999999
0091998015999992011011100004+43333-070550FM-18+0019WEXM1V0202701N002119999999N9999999N1-00351+99999999999REMSYN082CMAN  11004 WEXM1 46/// /2704 11035 40089 58004 90000 222// 002411160 21278 70011;
0068998015999992011011101004+43333-070550FM-18+0019WEXM1V0202701N001519999999N9999999N1-00441+99999999999REMSYN059CMAN  11014 WEXM1 46/// /2703 11044 40180 40170 4000 90100;
0068998015999992011011102004+43333-070550FM-18+0019WEXM1V0203001N001519999999N9999999N1-00531+99999999999REMSYN059CMAN  11024 WEXM1 46/// /3003 11053 40190 40170 4000 90200;
0068998015999992011011103004+43333-070550FM-18+0019WEXM1V0203001N001019999999N9999999N1-00611+99999999999REMSYN059CMAN  11034 WEXM1 46/// /3002 11061 40190 40180 4000 90300;
0097998015999992011011104004+43333-070550FM-18+0019WEXM1V0202301N002119999999N9999999N1-00701+99999999999REMSYN088CMAN  11044 WEXM1 46/// /2304 11070 40200 40180 90400 333 91202 5 10704 70019 333 91212;
0000998015999992011011105004+43333-070550FM-18+0019WEXM1V0203101N002619999999N9999999N1-00681+99999999999
0092998015999992011011106004+43333-070550FM-18+0019WEXM1V0203201N002619999999N9999999N1-00761+99999999999REMSYN083CMAN  11064 WEXM1 46/// /3205 11076 20075 90548 333 91209 5 333 91203 555 7 555 41;
0062998015999992011011107004+43333-070550FM-18+0019WEXM1V0202801N001019999999N9999999N1-00861+99999999999REMSYN053CMAN  11074 WEXM1 46/// /2802 11086 20017 0220 90645;
0000998015999992011011108004+43333-070550FM-18+0019WEXM1V0202501N001519999999N9999999N1-00891+99999999999
0094998015999992011011109004+43333-070550FM-18+0019WEXM1V0202701N001019999999N9999999N1-00911+99999999999REMSYN085CMAN  11094 WEXM1 46/// /2702 11091 21051 30281 40288 56007 90900 333 91243 555 2003;
0000998015999992011011110004+43333-070550FM-18+0019WEXM1V0202801N001019999999N9999999N1-00981+99999999999
0000998015999992011011111004+43333-070550FM-18+0019WEXM1V0202901N001519999999N9999999N1-00991+99999999999
0103998015999992011011112004+43333-070550FM-18+0019WEXM1V0203001N002119999999N9999999N1-01011+99999999999REMSYN094CMAN  11124 WEXM1 46/// /3004 11101 21016 91148 333 91208 5 333 91222 555 8 555 2 83645 88460;
0000998015999992011011113004+43333-070550FM-18+0019WEXM1V0203101N002619999999N9999999N1-00961+99999999999
0000998015999992011011114004+43333-070550FM-18+0019WEXM1V0203001N002119999999N9999999N1-00831+99999999999
0091998015999992011011115004+43333-070550FM-18+0019WEXM1V0203301N002119999999N9999999N1-00541+99999999999REMSYN082CMAN  11154 WEXM1 46/// /3304 11054 40081 58008 91500 222// 002591207 555 9 555 0;
0097998015999992011011116004+43333-070550FM-18+0019WEXM1V0202901N001019999999N9999999N1-00381+99999999999REMSYN088CMAN  11164 WEXM1 46/// /2902 11038 21010 30277 40284 54000 91600 333 91252 555 3 91206;
0097998015999992011011117004+43333-070550FM-18+0019WEXM1V0200101N001019999999N9999999N1-00301+99999999999REMSYN088CMAN  11174 WEXM1 46/// /0102 11030 21012 30284 40291 53007 91700 333 91247 555 3 91207;
0133998015999992011011118004+43333-070550FM-18+0019WEXM1V0202701N000519999999N9999999N1-00161+99999999999REMSYN124CMAN  11184 WEXM1 46/// /2701 11016 40083 54000 91800 222// 00250 333 91250 555 0 22223 00276 20000 300// 4//// 5//// 80238;
0117998015999992011011119004+43333-070550FM-18+0019WEXM1V0201201N002119999999N9999999N1-00211+99999999999REMSYN108CMAN  11194 WEXM1 46/// /1204 11021 21048 30291 40298 51014 91900 333 91246 555 301 3//// 4//// 5//// 80242;
0100998015999992011011120004+43333-070550FM-18+0019WEXM1V0201201N001019999999N9999999N1-00211+99999999999REMSYN091CMAN  11204 WEXM1 46/// /1202 11021 40094 53011 92000 222// 002591224 555 9 555 1011 22012;
0000998015999992011011121004+43333-070550FM-18+0019WEXM1V0200401N001019999999N9999999N1-00241+99999999999
0000998015999992011011122004+43333-070550FM-18+0019WEXM1V0200301N001519999999N9999999N1-00261+99999999999
0000998015999992011011123004+43333-070550FM-18+0019WEXM1V0200101N001019999999N9999999N1-00271+99999999999
0000998015999992011011200004+43333-070550FM-18+0019WEXM1V0200201N002119999999N9999999N1-00281+99999999999
0068998015999992011011201004+43333-070550FM-18+0019WEXM1V0203601N001519999999N9999999N1-00261+99999999999REMSYN059CMAN  12014 WEXM1 46/// /3603 11026 40180 0190 52010 90100;
0056998015999992011011202004+43333-070550FM-18+0019WEXM1V0200201N002619999999N9999999N1-00251-00881999999REMSYN047CMAN 12024 WEXM1 46/// /0205 11025 21088 90145;
0056998015999992011011203004+43333-070550FM-18+0019WEXM1V0200201N002619999999N9999999N1-00231-00801999999REMSYN047CMAN 12034 WEXM1 46/// /0205 11023 21080 90245;
0097998015999992011011204004+43333-070550FM-18+0019WEXM1V0203601N002619999999N9999999N1-00241+99999999999REMSYN088CMAN  12044 WEXM1 46/// /3605 11024 0251 53004 90400 222// 00147 333 91227 555 TIDE1051;
0091998015999992011011205004+43333-070550FM-18+0019WEXM1V0200101N002619999999N9999999N1-00241+99999999999REMSYN082CMAN  12054 WEXM1 46/// /0105 11024 40186 90440 333 91215 555  91224 555 TIDE1053;
0085998015999992011011206004+43333-070550FM-18+0019WEXM1V0200301N004619999999N9999999N1-00241+99999999999REMSYN076CMAN  12064 WEXM1 46/// /0309 11024 40085 53009 90600 222// 002521337 7////;
0097998015999992011011207004+43333-070550FM-18+0019WEXM1V0200101N003119999999N9999999N1-00261+99999999999REMSYN088CMAN  12074 WEXM1 46/// /0106 11026 20055 40240 00080 222// 00109 10803 70016 333 91210;
0062998015999992011011208004+43333-070550FM-18+0019WEXM1V0200101N004119999999N9999999N1-00321+99999999999REMSYN053CMAN  12084 WEXM1 46/// /0108 11032 20030 0250 90745;
0101998015999992011011209004+43333-070550FM-18+0019WEXM1V0200201N006219999999N9999999N1-00361+99999999999REMSYN092CMAN  12094 WEXM1 46/// /0212 11036 20036 40240 90900 222// 000521114 3//// 555 795// 0/109;
0000998015999992011011210004+43333-070550FM-18+0019WEXM1V0200101N005119999999N9999999N1-00441+99999999999
0000998015999992011011211004+43333-070550FM-18+0019WEXM1V0203601N005119999999N9999999N1-00471+99999999999
0100998015999992011011212004+43333-070550FM-18+0019WEXM1V0200101N006219999999N9999999N1-00511+99999999999REMSYN091CMAN  12124 WEXM1 46/// /0112 11051 20012 30147 40150 91144 333 91263 555 3 555 1017 22017;
0100998015999992011011213004+43333-070550FM-18+0019WEXM1V0203601N006219999999N9999999N1-00461+99999999999REMSYN091CMAN  12134 WEXM1 46/// /3612 11046 20027 0233 40240 58011 91300 333 91268 555 11052 22055;
0084998015999992011011214004+43333-070550FM-18+0019WEXM1V0203601N005119999999N9999999N1-00431+99999999999REMSYN075CMAN  12144 WEXM1 46/// /3610 11043 20014 40270 91400 222// 0006 333 91211;
0079998015999992011011215004+43333-070550FM-18+0019WEXM1V0203601N006219999999N9999999N1-00371+99999999999REMSYN070CMAN  12154 WEXM1 46/// /3612 11037 40077 58017 91500 222// 002584075;
0108998015999992011011216004+43333-070550FM-18+0019WEXM1V0203501N007219999999N9999999N1-00331+99999999999REMSYN099CMAN  12164 WEXM1 46/// /3514 11033 21007 40400 40234 55006 91600 333 91272 555  30300 82711 87460;
0000998015999992011011217004+43333-070550FM-18+0019WEXM1V0203501N006219999999N9999999N1-00261+99999999999
0100998015999992011011218004+43333-070550FM-18+0019WEXM1V0203501N007219999999N9999999N1-00201+99999999999REMSYN091CMAN  12184 WEXM1 46/// /3514 11020 20021 91754 333 91215 5 333 91237 555 7 555 1017 22017;
0068998015999992011011219004+43333-070550FM-18+0019WEXM1V0203501N008219999999N9999999N1-00091+99999999999REMSYN059CMAN  12194 WEXM1 46/// /3516 11009 0034 40240 51020 91900;
0062998015999992011011220004+43333-070550FM-18+0019WEXM1V0203401N007719999999N9999999N1-00091+99999999999REMSYN053CMAN  12204 WEXM1 46/// /3415 11009 1018 49940 91945;
0000998015999992011011221004+43333-070550FM-18+0019WEXM1V0203501N008219999999N9999999N1-00111+99999999999
0100998015999992011011222004+43333-070550FM-18+0019WEXM1V0203501N006719999999N9999999N1-00131+99999999999REMSYN091CMAN  12224 WEXM1 46/// /3513 11013 20078 30237 40244 53010 92200 333 91274 555 1016 22016;
0100998015999992011011223004+43333-070550FM-18+0019WEXM1V0203401N006719999999N9999999N1-00161+99999999999REMSYN091CMAN  12234 WEXM1 46/// /3413 11016 20095 0237 40244 51007 92300 333 91273 555 11047 22050;
0079998015999992011011300004+43333-070550FM-18+0019WEXM1V0203301N006719999999N9999999N1-00141+99999999999REMSYN070CMAN  13004 WEXM1 46/// /3313 11014 40250 53015 90000 222// 001620148;
0068998015999992011011301004+43333-070550FM-18+0019WEXM1V0203401N006219999999N9999999N1-00161+99999999999REMSYN059CMAN  13014 WEXM1 46/// /3412 11016 49970 40210 4000 90100;
0068998015999992011011302004+43333-070550FM-18+0019WEXM1V0203401N006219999999N9999999N1-00111+99999999999REMSYN059CMAN  13024 WEXM1 46/// /3412 11011 49970 40210 4000 90200;
0068998015999992011011303004+43333-070550FM-18+0019WEXM1V0203401N006219999999N9999999N1-00101+99999999999REMSYN059CMAN  13034 WEXM1 46/// /3412 11010 49980 40210 4000 90300;
0068998015999992011011304004+43333-070550FM-18+0019WEXM1V0203301N005719999999N9999999N1-00111+99999999999REMSYN059CMAN  13044 WEXM1 46/// /3311 11011 49990 40210 4000 90400;
0091998015999992011011305004+43333-070550FM-18+0019WEXM1V0203301N005119999999N9999999N1-00101+99999999999REMSYN082CMAN  13054 WEXM1 46/// /3310 11010 21206 40207 90440 555  333 91222 555 TIDE0984;
0097998015999992011011306004+43333-070550FM-18+0019WEXM1V0203201N005719999999N9999999N1-00091+99999999999REMSYN088CMAN  13064 WEXM1 46/// /3211 11009 40070 53003 90600 222// 002591212 555 1 555 0 95990;
0097998015999992011011307004+43333-070550FM-18+0019WEXM1V0203201N005119999999N9999999N1-00071+99999999999REMSYN088CMAN  13074 WEXM1 46/// /3210 11007 20054 40360 90700 222// 00149 11104 70018 333 91212;
0113998015999992011011308004+43333-070550FM-18+0019WEXM1V0203201N005719999999N9999999N1-00071+99999999999REMSYN104CMAN  13084 WEXM1 46/// /3211 11007 20063 30257 40264 51007 90800 333 91230 555 3 94300 555 00023 10017;
0145998015999992011011309004+43333-070550FM-18+0019WEXM1V0203201N005719999999N9999999N1-00061+99999999999REMSYN136CMAN  13094 WEXM1 46/// /3211 11006 20050 40360 51013 90900 333 91214 555 4 555 0 20026 30026 60097 837// 87806 91120 91211 96241 98265;
0062998015999992011011310004+43333-070550FM-18+0019WEXM1V0203101N005119999999N9999999N1-00091+99999999999REMSYN053CMAN  13104 WEXM1 46/// /3110 11009 20044 40360 0945;
0062998015999992011011311004+43333-070550FM-18+0019WEXM1V0203101N005119999999N9999999N1-00151+99999999999REMSYN053CMAN  13114 WEXM1 46/// /3110 11015 20048 0280 91045;
0100998015999992011011312004+43333-070550FM-18+0019WEXM1V0203101N005119999999N9999999N1-00241+99999999999REMSYN091CMAN  13124 WEXM1 46/// /3110 11024 20045 30232 40236 91144 333 91236 555 9 555 1010 22011;
0000998015999992011011313004+43333-070550FM-18+0019WEXM1V0203001N005719999999N9999999N1-00281+99999999999
0100998015999992011011314004+43333-070550FM-18+0019WEXM1V0203101N005719999999N9999999N1-00241+99999999999REMSYN091CMAN  13144 WEXM1 46/// /3111 11024 20038 30229 40232 91344 555 555 3 91262 555 1011 22012;
0062998015999992011011315004+43333-070550FM-18+0019WEXM1V0203101N004619999999N9999999N1-00121+99999999999REMSYN053CMAN  13154 WEXM1 46/// /3109 11012 20062 40370 1445;
0078998015999992011011316004+43333-070550FM-18+0019WEXM1V0202901N003119999999N9999999N1-00081+99999999999REMSYN069CMAN  13164 WEXM1 46/// /2906 11008 20038 40320 00060 222// 00099014;
0000998015999992011011317004+43333-070550FM-18+0019WEXM1V0203001N005119999999N9999999N1-00041+99999999999
0000998015999992011011318004+43333-070550FM-18+0019WEXM1V0203101N005119999999N9999999N1-00031+99999999999
0094998015999992011011319004+43333-070550FM-18+0019WEXM1V0203001N004119999999N9999999N1+00011+99999999999REMSYN085CMAN  13194 WEXM1 46/// /3008 10001 20084 30175 40186 57004 91900 333 91259 555 2015;
0000998015999992011011320004+43333-070550FM-18+0019WEXM1V0202801N002619999999N9999999N1-00031+99999999999
0094998015999992011011321004+43333-070550FM-18+0019WEXM1V0202701N002619999999N9999999N1-00071+99999999999REMSYN085CMAN  13214 WEXM1 46/// /2705 11007 20101 30257 40264 52003 92100 333 91260 555 2009;
0000998015999992011011322004+43333-070550FM-18+0019WEXM1V0202701N002119999999N9999999N1-00221+99999999999
0062998015999992011011323004+43333-070550FM-18+0019WEXM1V0202701N002119999999N9999999N1-00351+99999999999REMSYN053CMAN  13234 WEXM1 46/// /2704 11035 20108 40330 2245;
0062998015999992011011400004+43333-070550FM-18+0019WEXM1V0202701N001519999999N9999999N1-00471+99999999999REMSYN053CMAN  14004 WEXM1 46/// /2703 11047 20097 40330 2345;
0068998015999992011011401004+43333-070550FM-18+0019WEXM1V0202901N001519999999N9999999N1-00611+99999999999REMSYN059CMAN  14014 WEXM1 46/// /2903 11061 40200 40190 0000 90100;
0068998015999992011011402004+43333-070550FM-18+0019WEXM1V0202901N001519999999N9999999N1-00671+99999999999REMSYN059CMAN  14024 WEXM1 46/// /2903 11067 40200 40190 0000 90200;
0068998015999992011011403004+43333-070550FM-18+0019WEXM1V0202801N001519999999N9999999N1-00751+99999999999REMSYN059CMAN  14034 WEXM1 46/// /2803 11075 40200 40190 6010 90300;
0068998015999992011011404004+43333-070550FM-18+0019WEXM1V0202901N002619999999N9999999N1-00801+99999999999REMSYN059CMAN  14044 WEXM1 46/// /2905 11080 40210 40190 3010 90400;
0091998015999992011011405004+43333-070550FM-18+0019WEXM1V0202901N002619999999N9999999N1-00841+99999999999REMSYN082CMAN  14054 WEXM1 46/// /2905 11084 21228 40221 90440 555  333 91211 555 TIDE0998;
0062998015999992011011406004+43333-070550FM-18+0019WEXM1V0202901N002619999999N9999999N1-00851+99999999999REMSYN053CMAN  14064 WEXM1 46/// /2905 11085 20106 0280 90545;
0091998015999992011011407004+43333-070550FM-18+0019WEXM1V0203001N003119999999N9999999N1-00871+99999999999REMSYN082CMAN  14074 WEXM1 46/// /3006 11087 40259 56009 90700 222// 00150 333 91263 555 9;
0084998015999992011011408004+43333-070550FM-18+0019WEXM1V0203001N003119999999N9999999N1-00881+99999999999REMSYN075CMAN  14084 WEXM1 46/// /3006 11088 20065 40290 90800 222// 0010 333 91221;
0100998015999992011011409004+43333-070550FM-18+0019WEXM1V0203001N003619999999N9999999N1-00901+99999999999REMSYN091CMAN  14094 WEXM1 46/// /3007 11090 20063 0274 40281 52003 90900 333 91261 555 11043 22046;
0100998015999992011011410004+43333-070550FM-18+0019WEXM1V0202901N002119999999N9999999N1-00901+99999999999REMSYN091CMAN  14104 WEXM1 46/// /2904 11090 20062 30253 40256 90944 333 91234 555 0 555 1009 22009;
0100998015999992011011411004+43333-070550FM-18+0019WEXM1V0203101N002119999999N9999999N1-00881+99999999999REMSYN091CMAN  14114 WEXM1 46/// /3104 11088 20067 0274 40281 55000 91100 333 91260 555 11047 22050;
0095998015999992011011412004+43333-070550FM-18+0019WEXM1V0202801N001019999999N9999999N1-00881+99999999999REMSYN086CMAN  14124 WEXM1 46/// /2802 11088 40301 53006 91200 222// 00050 333 91263 555 60005;
0090998015999992011011413004+43333-070550FM-18+0019WEXM1V0203001N002119999999N9999999N1-00871+99999999999REMSYN081CMAN  14134 WEXM1 46/// /3004 11087 20059 40270 40274 50000 91300 333 91264 555 ;
0100998015999992011011414004+43333-070550FM-18+0019WEXM1V0202801N001019999999N9999999N1-00811+99999999999REMSYN091CMAN  14144 WEXM1 46/// /2802 11081 20070 30264 40271 56010 91400 333 91260 555 1011 22012;
0091998015999992011011415004+43333-070550FM-18+0019WEXM1V0203201N001519999999N9999999N1-00711+99999999999REMSYN082CMAN  14154 WEXM1 46/// /3203 11071 20058 40270 40261 58013 91500 333 91262 555 2;
0094998015999992011011416004+43333-070550FM-18+0019WEXM1V0203501N001519999999N9999999N1-00571+99999999999REMSYN085CMAN  14164 WEXM1 46/// /3503 11057 20060 30232 40236 91544 333 91256 555 0 555 2013;
0000998015999992011011417004+43333-070550FM-18+0019WEXM1V0203201N001019999999N9999999N1-00461+99999999999
0110998015999992011011418004+43333-070550FM-18+0019WEXM1V0202401N001019999999N9999999N1-00311+99999999999REMSYN101CMAN  14184 WEXM1 46/// /2402 11031 40093 53010 91800 222// 00250 333 91274 555 48 22243 20401 80170;
0100998015999992011011419004+43333-070550FM-18+0019WEXM1V0202801N001019999999N9999999N1-00321+99999999999REMSYN091CMAN  14194 WEXM1 46/// /2802 11032 20058 30233 40240 57011 91900 333 91274 555 1018 22018;
0000998015999992011011420004+43333-070550FM-18+0019WEXM1V0202701N000519999999N9999999N1-00311+99999999999
0000998015999992011011421004+43333-070550FM-18+0019WEXM1V0202901N001519999999N9999999N1-00371+99999999999
0062998015999992011011422004+43333-070550FM-18+0019WEXM1V0203101N002119999999N9999999N1-00451+99999999999REMSYN053CMAN  14224 WEXM1 46/// /3104 11045 20100 0250 92145;
0100998015999992011011423004+43333-070550FM-18+0019WEXM1V0202701N002119999999N9999999N1-00491+99999999999REMSYN091CMAN  14234 WEXM1 46/// /2704 11049 20106 40220 40224 56020 92300 333 91276 555 1054 22058;
0084998015999992011011500004+43333-070550FM-18+0019WEXM1V0202801N001519999999N9999999N1-00601+99999999999REMSYN075CMAN  15004 WEXM1 46/// /2803 11060 40297 54000 90000 222// 0004 333 58002;
0062998015999992011011501004+43333-070550FM-18+0019WEXM1V0202701N001519999999N9999999N1-00831+99999999999REMSYN053CMAN  15014 WEXM1 46/// /2703 11083 0230 52010 90100;
0062998015999992011011502004+43333-070550FM-18+0019WEXM1V0202801N001019999999N9999999N1-00871+99999999999REMSYN053CMAN  15024 WEXM1 46/// /2802 11087 0230 51010 90200;
0068998015999992011011503004+43333-070550FM-18+0019WEXM1V0202901N001519999999N9999999N1-01001+99999999999REMSYN059CMAN  15034 WEXM1 46/// /2903 11100 40230 0180 54000 90300;
0097998015999992011011504004+43333-070550FM-18+0019WEXM1V0203001N002119999999N9999999N1-01111+99999999999REMSYN088CMAN  15044 WEXM1 46/// /3004 11111 40230 40180 0400 222// 00130 333 91206 555 TIDE1083;
0091998015999992011011505004+43333-070550FM-18+0019WEXM1V0202901N001519999999N9999999N1-01131+99999999999REMSYN082CMAN  15054 WEXM1 46/// /2903 11113 20096 40270 22// 00129 333 91206 555 TIDE1041;
0115998015999992011011506004+43333-070550FM-18+0019WEXM1V0203001N001519999999N9999999N1-01131+99999999999REMSYN106CMAN  15064 WEXM1 46/// /3003 11113 40103 55000 90600 222// 002591244 555 1 8497/ 22223 00170 20501 80130;
0062998015999992011011507004+43333-070550FM-18+0019WEXM1V0203001N002119999999N9999999N1-01231+99999999999REMSYN053CMAN  15074 WEXM1 46/// /3004 11123 20094 0240 90645;
0100998015999992011011508004+43333-070550FM-18+0019WEXM1V0203001N002619999999N9999999N1-01311+99999999999REMSYN091CMAN  15084 WEXM1 46/// /3005 11131 20084 0217 40224 52011 90800 333 91278 555 11057 22061;
0000998015999992011011509004+43333-070550FM-18+0019WEXM1V0203001N001519999999N9999999N1-01381+99999999999
0000998015999992011011510004+43333-070550FM-18+0019WEXM1V0202901N001519999999N9999999N1-01411+99999999999
0100998015999992011011511004+43333-070550FM-18+0019WEXM1V0202901N001519999999N9999999N1-01391+99999999999REMSYN091CMAN  15114 WEXM1 46/// /2903 11139 20038 0223 40230 53006 91100 333 91276 555 11052 22055;
0000998015999992011011512004+43333-070550FM-18+0019WEXM1V0203101N001519999999N9999999N1-01491+99999999999
0127998015999992011011513004+43333-070550FM-18+0019WEXM1V0203101N002119999999N9999999N1-01551+99999999999REMSYN118CMAN  15134 WEXM1 46/// /3104 11155 40192 50000 91300 222// 00040 555 10308 56009 57901 58008 60067 82919 83820 80980;
0100998015999992011011514004+43333-070550FM-18+0019WEXM1V0203001N001519999999N9999999N1-01351+99999999999REMSYN091CMAN  15144 WEXM1 46/// /3003 11135 20026 40220 91407 91400 333 91208 555 4 555 1010 22011;
0100998015999992011011515004+43333-070550FM-18+0019WEXM1V0202901N001019999999N9999999N1-00951+99999999999REMSYN091CMAN  15154 WEXM1 46/// /2902 11095 20038 91454 333 91205 5 333 91233 555 0 555 1010 22011;
0062998015999992011011516004+43333-070550FM-18+0019WEXM1V0209999C000019999999N9999999N1-00601+99999999999REMSYN053CMAN  15164 WEXM1 46/// /0000 11060 20015 40260 1545;
0062998015999992011011517004+43333-070550FM-18+0019WEXM1V0201901N001019999999N9999999N1-00491+99999999999REMSYN053CMAN  15174 WEXM1 46/// /1902 11049 20021 40250 1645;
0109998015999992011011518004+43333-070550FM-18+0019WEXM1V0201601N001519999999N9999999N1-00441+99999999999REMSYN100CMAN  15184 WEXM1 46/// /1603 11044 20017 30168 40172 91744 555 91208 555 2 555 3 70098 90983 93102;
0100998015999992011011519004+43333-070550FM-18+0019WEXM1V0201601N002619999999N9999999N1-00421+99999999999REMSYN091CMAN  15194 WEXM1 46/// /1605 11042 20067 91854 333 91205 5 91900 333 91252 555 1011 22012;
0062998015999992011011520004+43333-070550FM-18+0019WEXM1V0201701N003119999999N9999999N1-00431+99999999999REMSYN053CMAN  15204 WEXM1 46/// /1706 11043 20063 0170 91945;
0062998015999992011011521004+43333-070550FM-18+0019WEXM1V0201901N003119999999N9999999N1-00491+99999999999REMSYN053CMAN  15214 WEXM1 46/// /1906 11049 20060 0230 92045;
0098998015999992011011522004+43333-070550FM-18+0019WEXM1V0201901N003619999999N9999999N1-00521+99999999999REMSYN089CMAN  15224 WEXM1 46/// /1907 11052 20035 30138 40141 92144 333 91216 555 4 555 01 70007;
0100998015999992011011523004+43333-070550FM-18+0019WEXM1V0202001N003619999999N9999999N1-00491+99999999999REMSYN091CMAN  15234 WEXM1 46/// /2007 11049 20028 30166 40173 56027 92300 333 91266 555 1006 22006;
0062998015999992011011600004+43333-070550FM-18+0019WEXM1V0202201N002619999999N9999999N1-00471+99999999999REMSYN053CMAN  16004 WEXM1 46/// /2205 11047 20091 0230 92345;
0068998015999992011011601004+43333-070550FM-18+0019WEXM1V0202101N003119999999N9999999N1-00441+99999999999REMSYN059CMAN  16014 WEXM1 46/// /2106 11044 40120 0160 50000 90100;
0068998015999992011011602004+43333-070550FM-18+0019WEXM1V0202201N002619999999N9999999N1-00421+99999999999REMSYN059CMAN  16024 WEXM1 46/// /2205 11042 40120 0160 57010 90200;
0068998015999992011011603004+43333-070550FM-18+0019WEXM1V0202301N003619999999N9999999N1-00401+99999999999REMSYN059CMAN  16034 WEXM1 46/// /2307 11040 40120 0160 56010 90300;
0097998015999992011011604004+43333-070550FM-18+0019WEXM1V0202401N004119999999N9999999N1-00371+99999999999REMSYN088CMAN  16044 WEXM1 46/// /2408 11037 40110 40170 0400 222// 00135 333 91211 555 TIDE1174;
0091998015999992011011605004+43333-070550FM-18+0019WEXM1V0202401N004119999999N9999999N1-00381+99999999999REMSYN082CMAN  16054 WEXM1 46/// /2408 11038 20048 40210 90500 333 91205 555  555 TIDE1123;
0062998015999992011011606004+43333-070550FM-18+0019WEXM1V0202301N004119999999N9999999N1-00461+99999999999REMSYN053CMAN  16064 WEXM1 46/// /2308 11046 20017 40170 0545;
0062998015999992011011607004+43333-070550FM-18+0019WEXM1V0202301N003619999999N9999999N1-00461+99999999999REMSYN053CMAN  16074 WEXM1 46/// /2307 11046 20045 40210 555 ;
0000998015999992011011608004+43333-070550FM-18+0019WEXM1V0202301N003119999999N9999999N1-00451+99999999999
0000998015999992011011609004+43333-070550FM-18+0019WEXM1V0202301N003119999999N9999999N1-00411+99999999999
0062998015999992011011610004+43333-070550FM-18+0019WEXM1V0202201N002619999999N9999999N1-00421+99999999999REMSYN053CMAN  16104 WEXM1 46/// /2205 11042 21012 40200 0945;
0099998015999992011011611004+43333-070550FM-18+0019WEXM1V0202401N002119999999N9999999N1-00491+99999999999REMSYN090CMAN  16114 WEXM1 46/// /2404 11049 40172 53023 91100 222// 000091206 555 4 555 202 70013;
0097998015999992011011612004+43333-070550FM-18+0019WEXM1V0202401N002619999999N9999999N1-00551+99999999999REMSYN088CMAN  16124 WEXM1 46/// /2405 11055 20026 30020 40027 58034 91200 333 91278 555 / 4////;
0000998015999992011011613004+43333-070550FM-18+0019WEXM1V0202301N001019999999N9999999N1-00601+99999999999
0083998015999992011011614004+43333-070550FM-18+0019WEXM1V0202501N002119999999N9999999N1-00481+99999999999REMSYN074CMAN  16144 WEXM1 46/// /2504 11048 40198 51033 91400 222// 0000243 04147;
0062998015999992011011615004+43333-070550FM-18+0019WEXM1V0202801N003119999999N9999999N1-00241+99999999999REMSYN053CMAN  16154 WEXM1 46/// /2806 11024 20038 40220 1445;
0100998015999992011011616004+43333-070550FM-18+0019WEXM1V0202801N003619999999N9999999N1-00191+99999999999REMSYN091CMAN  16164 WEXM1 46/// /2807 11019 20026 40220 40000 56024 91600 333 91273 555 1018 22019;
0062998015999992011011617004+43333-070550FM-18+0019WEXM1V0202601N005119999999N9999999N1-00181+99999999999REMSYN053CMAN  16174 WEXM1 46/// /2610 11018 20030 40210 1645;
0091998015999992011011618004+43333-070550FM-18+0019WEXM1V0202801N004119999999N9999999N1-00181+99999999999REMSYN082CMAN  16184 WEXM1 46/// /2808 11018 40191 58014 91800 222// 00000 333 91242 555 6;
0062998015999992011011619004+43333-070550FM-18+0019WEXM1V0202901N003619999999N9999999N1-00171+99999999999REMSYN053CMAN  16194 WEXM1 46/// /2907 11017 20064 40180 1845;
0099998015999992011011620004+43333-070550FM-18+0019WEXM1V0202901N003619999999N9999999N1-00171+99999999999REMSYN090CMAN  16204 WEXM1 46/// /2907 11017 20007 58010 92000 222// 001091213 555 9 555 802 70015;
0062998015999992011011621004+43333-070550FM-18+0019WEXM1V0203001N003119999999N9999999N1-00211+99999999999REMSYN053CMAN  16214 WEXM1 46/// /3006 11021 20090 40130 2045;
0100998015999992011011622004+43333-070550FM-18+0019WEXM1V0202901N001519999999N9999999N1-00301+99999999999REMSYN091CMAN  16224 WEXM1 46/// /2903 11030 20086 49905 53010 92200 333 91215 555 2 555 1017 22017;
0100998015999992011011623004+43333-070550FM-18+0019WEXM1V0203001N001519999999N9999999N1-00401+99999999999REMSYN091CMAN  16234 WEXM1 46/// /3003 11040 20074 49909 53011 92300 333 91212 555 0 555 1011 22012;
0090998015999992011011700004+43333-070550FM-18+0019WEXM1V0203001N001519999999N9999999N1-00501+99999999999REMSYN081CMAN  17004 WEXM1 46/// /3003 11050 40226 53007 90000 222// 000091212 555 9 555 ;
0068998015999992011011701004+43333-070550FM-18+0019WEXM1V0202801N000519999999N9999999N1-00681+99999999999REMSYN059CMAN  17014 WEXM1 46/// /2801 11068 40180 40140 1010 90100;
0068998015999992011011702004+43333-070550FM-18+0019WEXM1V0202901N001019999999N9999999N1-00691+99999999999REMSYN059CMAN  17024 WEXM1 46/// /2902 11069 40190 40140 4000 90200;
0068998015999992011011703004+43333-070550FM-18+0019WEXM1V0202601N001019999999N9999999N1-00741+99999999999REMSYN059CMAN  17034 WEXM1 46/// /2602 11074 40200 40150 4000 90300;
0097998015999992011011704004+43333-070550FM-18+0019WEXM1V0202901N002119999999N9999999N1-00821+99999999999REMSYN088CMAN  17044 WEXM1 46/// /2904 11082 40200 40150 90400 333 91202 5333 91203 555 TIDE1264;
0091998015999992011011705004+43333-070550FM-18+0019WEXM1V0202901N001519999999N9999999N1-00851+99999999999REMSYN082CMAN  17054 WEXM1 46/// /2903 11085 40196 90450 333 91202 555 500 333 91230 555 9;
0134998015999992011011706004+43333-070550FM-18+0019WEXM1V0202701N001519999999N9999999N1-00911+99999999999REMSYN125CMAN  17064 WEXM1 46/// /2703 11091 40242 53006 90600 222// 000091224 555 2 555 20 1//// 20403 31414 40403 5//// 6//// 80260;
0062998015999992011011707004+43333-070550FM-18+0019WEXM1V0202701N001019999999N9999999N1-00971+99999999999REMSYN053CMAN  17074 WEXM1 46/// /2702 11097 20077 40170 0645;
0062998015999992011011708004+43333-070550FM-18+0019WEXM1V0202701N001019999999N9999999N1-01121+99999999999REMSYN053CMAN  17084 WEXM1 46/// /2702 11112 20069 40170 0745;
0090998015999992011011709004+43333-070550FM-18+0019WEXM1V0202701N001019999999N9999999N1-01221+99999999999REMSYN081CMAN  17094 WEXM1 46/// /2702 11122 40258 51009 90900 222// 0000 333 60007 92415;
0062998015999992011011710004+43333-070550FM-18+0019WEXM1V0202701N001019999999N9999999N1-01301+99999999999REMSYN053CMAN  17104 WEXM1 46/// /2702 11130 20082 40140 0945;
0100998015999992011011711004+43333-070550FM-18+0019WEXM1V0202901N001019999999N9999999N1-01431+99999999999REMSYN091CMAN  17114 WEXM1 46/// /2902 11143 20084 40160 51058 91100 333 91221 555 1 555 1003 22003;
0100998015999992011011712004+43333-070550FM-18+0019WEXM1V0203001N002119999999N9999999N1-01441+99999999999REMSYN091CMAN  17124 WEXM1 46/// /3004 11144 20077 0088 40095 52024 91200 333 91212 555 11006 22006;
0096998015999992011011713004+43333-070550FM-18+0019WEXM1V0203001N002119999999N9999999N1-01411+99999999999REMSYN087CMAN  17134 WEXM1 46/// /3004 11141 40279 53013 91300 222// 00000 333 91238 555  88273;
0100998015999992011011714004+43333-070550FM-18+0019WEXM1V0203101N002619999999N9999999N1-01311+99999999999REMSYN091CMAN  17144 WEXM1 46/// /3105 11131 20085 30101 40108 91400 555 0 333 91248 555 1019 22021;
0000998015999992011011715004+43333-070550FM-18+0019WEXM1V0202901N001519999999N9999999N1-01171+99999999999
0119998015999992011011716004+43333-070550FM-18+0019WEXM1V0202901N001519999999N9999999N1-01051+99999999999REMSYN110CMAN  17164 WEXM1 46/// /2903 11105 40037 57007 91600 333 91217 555 3 91238 555 335// 50001 60006 70007 80005;
0099998015999992011011717004+43333-070550FM-18+0019WEXM1V0203301N002119999999N9999999N1-00961+99999999999REMSYN090CMAN  17174 WEXM1 46/// /3304 11096 40225 58014 91700 222// 000191210 555 8// 41302 70017;
0062998015999992011011718004+43333-070550FM-18+0019WEXM1V0203201N001019999999N9999999N1-00831+99999999999REMSYN053CMAN  17184 WEXM1 46/// /3202 11083 20098 40140 1745;
0069998015999992011011719004+43333-070550FM-18+0019WEXM1V0200701N001019999999N9999999N1-00781+99999999999REMSYN060CMAN  17194 WEXM1 46/// /0702 11078 20100 222// 00140 875//;
0062998015999992011011720004+43333-070550FM-18+0019WEXM1V0200401N001019999999N9999999N1-00761+99999999999REMSYN053CMAN  17204 WEXM1 46/// /0402 11076 20112 40090 1945;
0100998015999992011011721004+43333-070550FM-18+0019WEXM1V0202901N001019999999N9999999N1-00761+99999999999REMSYN091CMAN  17214 WEXM1 46/// /2902 11076 20097 30139 40146 51007 92100 333 91215 555 1004 22004;
0000998015999992011011722004+43333-070550FM-18+0019WEXM1V0209999C000019999999N9999999N1-00851+99999999999
0062998015999992011011723004+43333-070550FM-18+0019WEXM1V0202501N000519999999N9999999N1-01111+99999999999REMSYN053CMAN  17234 WEXM1 46/// /2501 11111 20087 40110 0009;
0062998015999992011011800004+43333-070550FM-18+0019WEXM1V0203201N000519999999N9999999N1-01171+99999999999REMSYN053CMAN  18004 WEXM1 46/// /3201 11117 20113 40100 2345;
0062998015999992011011801004+43333-070550FM-18+0019WEXM1V0203201N001519999999N9999999N1-01361+99999999999REMSYN053CMAN  18014 WEXM1 46/// /3203 11136 0280 52010 90100;
0068998015999992011011802004+43333-070550FM-18+0019WEXM1V0203001N001519999999N9999999N1-01341+99999999999REMSYN059CMAN  18024 WEXM1 46/// /3003 11134 40280 0110 58010 90200;
0068998015999992011011803004+43333-070550FM-18+0019WEXM1V0203201N001519999999N9999999N1-01471+99999999999REMSYN059CMAN  18034 WEXM1 46/// /3203 11147 40280 0120 55000 90300;
0097998015999992011011804004+43333-070550FM-18+0019WEXM1V0203301N002119999999N9999999N1-01511+99999999999REMSYN088CMAN  18044 WEXM1 46/// /3304 11151 40280 40120 0400 222// 00152 333 91203 555 TIDE1348;
0092998015999992011011805004+43333-070550FM-18+0019WEXM1V0203301N002619999999N9999999N1-01441+99999999999REMSYN083CMAN  18054 WEXM1 46/// /3305 11144 40139 90440 333 91207 555 3 91213 555 IDE1 333;
0062998015999992011011806004+43333-070550FM-18+0019WEXM1V0203001N002119999999N9999999N1-01471+99999999999REMSYN053CMAN  18064 WEXM1 46/// /3004 11147 21101 0200 90545;
0100998015999992011011807004+43333-070550FM-18+0019WEXM1V0203101N002619999999N9999999N1-01431+99999999999REMSYN091CMAN  18074 WEXM1 46/// /3105 11143 20103 30128 40135 57004 90700 333 91212 555 1002 22003;
0094998015999992011011808004+43333-070550FM-18+0019WEXM1V0203101N002119999999N9999999N1-01301+99999999999REMSYN085CMAN  18084 WEXM1 46/// /3104 11130 20104 90754 333 91202 5 333 91211 555 1008 22008;
0100998015999992011011809004+43333-070550FM-18+0019WEXM1V0203401N002619999999N9999999N1-01271+99999999999REMSYN091CMAN  18094 WEXM1 46/// /3405 11127 20096 56006 90900 90842 333 91210 555  555 11008 22008;
0062998015999992011011810004+43333-070550FM-18+0019WEXM1V0203401N003119999999N9999999N1-01201+99999999999REMSYN053CMAN  18104 WEXM1 46/// /3406 11120 20101 0240 90945;
0062998015999992011011811004+43333-070550FM-18+0019WEXM1V0203401N002619999999N9999999N1-01151+99999999999REMSYN053CMAN  18114 WEXM1 46/// /3405 11115 20086 40060 1045;
0090998015999992011011812004+43333-070550FM-18+0019WEXM1V0203301N002619999999N9999999N1-01131+99999999999REMSYN081CMAN  18124 WEXM1 46/// /3305 11113 40125 50000 91200 222// 002591215 555 1 555 ;
0096998015999992011011813004+43333-070550FM-18+0019WEXM1V0203301N003119999999N9999999N1-01091+99999999999REMSYN087CMAN  18134 WEXM1 46/// /3306 11109 20098 91248 333 91201 5 333 91211 555 8 555  91202;
0000998015999992011011814004+43333-070550FM-18+0019WEXM1V0203301N003619999999N9999999N1-01071+99999999999
0100998015999992011011815004+43333-070550FM-18+0019WEXM1V0203301N004119999999N9999999N1-01001+99999999999REMSYN091CMAN  18154 WEXM1 46/// /3308 11100 20093 40120 91500 222// 0025 333 91240 555 11021 22023;
0062998015999992011011816004+43333-070550FM-18+0019WEXM1V0203301N004619999999N9999999N1-00941+99999999999REMSYN053CMAN  18164 WEXM1 46/// /3309 11094 20075 0180 91545;
0090998015999992011011817004+43333-070550FM-18+0019WEXM1V0203301N004119999999N9999999N1-00891+99999999999REMSYN081CMAN  18174 WEXM1 46/// /3308 11089 20113 0122 40129 53017 91700 555 11007 22008;
0100998015999992011011818004+43333-070550FM-18+0019WEXM1V0203401N003619999999N9999999N1-00861+99999999999REMSYN091CMAN  18184 WEXM1 46/// /3407 11086 20127 91754 333 91213 591800 333 91225 555 11019 22020;
0000998015999992011011819004+43333-070550FM-18+0019WEXM1V0203501N003119999999N9999999N1-00801+99999999999
0000998015999992011011820004+43333-070550FM-18+0019WEXM1V0203501N002619999999N9999999N1-00681+99999999999
0114998015999992011011821004+43333-070550FM-18+0019WEXM1V0203501N002619999999N9999999N1-00651+99999999999REMSYN105CMAN  18214 WEXM1 46/// /3505 11065 40123 53014 92100 222// 0024 876// 333 55300 20000 30000 41113 87705;
0062998015999992011011822004+43333-070550FM-18+0019WEXM1V0203501N004119999999N9999999N1-00621+99999999999REMSYN053CMAN  18224 WEXM1 46/// /3508 11062 20134 0190 92145;
0062998015999992011011823004+43333-070550FM-18+0019WEXM1V0203601N003119999999N9999999N1-00511+99999999999REMSYN053CMAN  18234 WEXM1 46/// /3606 11051 20136 0160 92245;
0000998015999992011011900004+43333-070550FM-18+0019WEXM1V0203501N003119999999N9999999N1-00391+99999999999
0068998015999992011011901004+43333-070550FM-18+0019WEXM1V0203401N002119999999N9999999N1-00311+99999999999REMSYN059CMAN  19014 WEXM1 46/// /3404 11031 40000 0120 52010 90100;
0068998015999992011011902004+43333-070550FM-18+0019WEXM1V0203401N002119999999N9999999N1-00291+99999999999REMSYN059CMAN  19024 WEXM1 46/// /3404 11029 49980 40110 4000 90200;
0068998015999992011011903004+43333-070550FM-18+0019WEXM1V0203501N001519999999N9999999N1-00201+99999999999REMSYN059CMAN  19034 WEXM1 46/// /3503 11020 49960 40120 4000 90300;
0056998015999992011011904004+43333-070550FM-18+0019WEXM1V0203501N001519999999N9999999N1-00171-00171999999REMSYN047CMAN 19044 WEXM1 46/// /3503 11017 21017 90345;
0068998015999992011011906004+43333-070550FM-18+0019WEXM1V0203301N001519999999N9999999N1-00061+99999999999REMSYN059CMAN  19064 WEXM1 46/// /3303 11006 49960 40120 4000 90600;
0100998015999992011011907004+43333-070550FM-18+0019WEXM1V0203301N001519999999N9999999N1-00051+99999999999REMSYN091CMAN  19074 WEXM1 46/// /3303 11005 20071 40220 54000 90700 333 91217 555  555 11013 22014;
0098998015999992011011908004+43333-070550FM-18+0019WEXM1V0203301N001019999999N9999999N1-00041+99999999999REMSYN089CMAN  19084 WEXM1 46/// /3302 11004 40214 55000 90800 222// 000391204 555 5 555 02 70012;
0100998015999992011011909004+43333-070550FM-18+0019WEXM1V0203301N001519999999N9999999N1+00031+99999999999REMSYN091CMAN  19094 WEXM1 46/// /3303 10003 40220 53016 90900 222// 00030 333 91237 555 1017 22018;
0062998015999992011011910004+43333-070550FM-18+0019WEXM1V0203201N004619999999N9999999N1+00081+99999999999REMSYN053CMAN  19104 WEXM1 46/// /3209 10008 20067 40180 0945;
0100998015999992011011911004+43333-070550FM-18+0019WEXM1V0203201N004119999999N9999999N1+00141+99999999999REMSYN091CMAN  19114 WEXM1 46/// /3208 10014 20097 30221 40225 91044 333 91203 555 1 555 1002 22002;
0097998015999992011011912004+43333-070550FM-18+0019WEXM1V0203301N003619999999N9999999N1+00181+99999999999REMSYN088CMAN  19124 WEXM1 46/// /3307 10018 40159 53014 91200 222// 001691205 555 8 555 0 87461;
0100998015999992011011913004+43333-070550FM-18+0019WEXM1V0203101N001519999999N9999999N1+00191+99999999999REMSYN091CMAN  19134 WEXM1 46/// /3103 10019 20097 30230 40237 50007 91300 333 91238 555 1002 22002;
0100998015999992011011914004+43333-070550FM-18+0019WEXM1V0202501N001019999999N9999999N1+00221+99999999999REMSYN091CMAN  19144 WEXM1 46/// /2502 10022 20084 0230 40237 57007 91400 333 91236 555 11028 22030;
0094998015999992011011915004+43333-070550FM-18+0019WEXM1V0203001N001519999999N9999999N1+00291+99999999999REMSYN085CMAN  19154 WEXM1 46/// /3003 10029 20101 30218 40221 91444 333 91209 555 4 555 2002;
0100998015999992011011916004+43333-070550FM-18+0019WEXM1V0209999C000019999999N9999999N1+00411+99999999999REMSYN091CMAN  19164 WEXM1 46/// /0000 10041 20100 91536 333 91212 5 333 91209 555 9 555 1002 22002;
0074998015999992011011917004+43333-070550FM-18+0019WEXM1V0202801N001019999999N9999999N1+00381+99999999999REMSYN065CMAN  19174 WEXM1 46/// /2802 10038 20129 222// 91700 222// 0002;
0097998015999992011011918004+43333-070550FM-18+0019WEXM1V0203401N001519999999N9999999N1+00351+99999999999REMSYN088CMAN  19184 WEXM1 46/// /3403 10035 20132 91754 333 91211 5 91800 333 91223 555 3 91207;
0103998015999992011011919004+43333-070550FM-18+0019WEXM1V0203501N001519999999N9999999N1+00291+99999999999REMSYN094CMAN  19194 WEXM1 46/// /3503 10029 20068 40170 55004 91900 333 91225 555 5 555 012 555 1/025;
0000998015999992011011920004+43333-070550FM-18+0019WEXM1V0203601N000519999999N9999999N1+00251+99999999999
0115998015999992011011921004+43333-070550FM-18+0019WEXM1V0200301N002119999999N9999999N1+00141+99999999999REMSYN106CMAN  19214 WEXM1 46/// /0304 10014 20084 56004 92100 222// 00260 333 91222 555 / 22284 00180 20000 80118;
0100998015999992011011922004+43333-070550FM-18+0019WEXM1V0200101N001519999999N9999999N1+00041+99999999999REMSYN091CMAN  19224 WEXM1 46/// /0103 10004 20124 30145 40152 58058 92200 333 91224 555 1008 22009;
0000998015999992011011923004+43333-070550FM-18+0019WEXM1V0200101N001019999999N9999999N1+00011+99999999999
0084998015999992011012000004+43333-070550FM-18+0019WEXM1V0203601N003119999999N9999999N1-00041+99999999999REMSYN075CMAN  20004 WEXM1 46/// /3606 11004 20122 92354 333 91204 581101 333 58006;
0068998015999992011012001004+43333-070550FM-18+0019WEXM1V0203601N002619999999N9999999N1-00141+99999999999REMSYN059CMAN  20014 WEXM1 46/// /3605 11014 20120 40110 4000 90100;
0068998015999992011012002004+43333-070550FM-18+0019WEXM1V0200101N002619999999N9999999N1-00161+99999999999REMSYN059CMAN  20024 WEXM1 46/// /0105 11016 20120 40110 4000 90200;
0068998015999992011012003004+43333-070550FM-18+0019WEXM1V0203601N002119999999N9999999N1-00211+99999999999REMSYN059CMAN  20034 WEXM1 46/// /3604 11021 0120 40120 53010 90300;
0068998015999992011012004004+43333-070550FM-18+0019WEXM1V0200101N001519999999N9999999N1-00211+99999999999REMSYN059CMAN  20044 WEXM1 46/// /0103 11021 0118 40120 52010 90400;
0088998015999992011012005004+43333-070550FM-18+0019WEXM1V0200201N002619999999N9999999N1-00251+99999999999REMSYN079CMAN  20054 WEXM1 46/// /0205 11025 40169 90450 333 91205 555  555 11002 22002;
0100998015999992011012006004+43333-070550FM-18+0019WEXM1V0200201N002619999999N9999999N1-00331+99999999999REMSYN091CMAN  20064 WEXM1 46/// /0205 11033 20120 90542 333 91203 5 333 91212 555 0 555 1016 22016;
0000998015999992011012007004+43333-070550FM-18+0019WEXM1V0203601N002119999999N9999999N1-00341+99999999999
0000998015999992011012008004+43333-070550FM-18+0019WEXM1V0203601N001519999999N9999999N1-00361+99999999999
0000998015999992011012009004+43333-070550FM-18+0019WEXM1V0200101N001019999999N9999999N1-00371+99999999999
0068998015999992011012010004+43333-070550FM-18+0019WEXM1V0200101N000519999999N9999999N1-00411+99999999999REMSYN059CMAN  20104 WEXM1 46/// /0101 11041 40110 0140 53010 91000;
0000998015999992011012011004+43333-070550FM-18+0019WEXM1V0209999C000019999999N9999999N1-00401+99999999999
0139998015999992011012012004+43333-070550FM-18+0019WEXM1V0203401N001019999999N9999999N1-00381+99999999999REMSYN130CMAN  20124 WEXM1 46/// /3402 11038 20106 40110 49997 51007 91200 333 91219 555 / 22213 04069 21608 30000 40000 50000 60000 00000;
0062998015999992011012013004+43333-070550FM-18+0019WEXM1V0203401N001019999999N9999999N1-00381+99999999999REMSYN053CMAN  20134 WEXM1 46/// /3402 11038 20025 0190 91245;
0000998015999992011012014004+43333-070550FM-18+0019WEXM1V0203001N001519999999N9999999N1-00391+99999999999
0100998015999992011012015004+43333-070550FM-18+0019WEXM1V0200401N000519999999N9999999N1-00291+99999999999REMSYN091CMAN  20154 WEXM1 46/// /0401 11029 20101 0003 40010 52013 91500 333 91221 555 11010 22011;
0100998015999992011012016004+43333-070550FM-18+0019WEXM1V0202901N001019999999N9999999N1-00171+99999999999REMSYN091CMAN  20164 WEXM1 46/// /2902 11017 20090 30007 40014 91600 333 91219 555 2 555 1006 22007;
0097998015999992011012017004+43333-070550FM-18+0019WEXM1V0202801N001019999999N9999999N1-00271+99999999999REMSYN088CMAN  20174 WEXM1 46/// /2802 11027 20116 30010 40017 51017 91700 333 91217 555 3 91203;
0097998015999992011012018004+43333-070550FM-18+0019WEXM1V0202401N001019999999N9999999N1-00211+99999999999REMSYN088CMAN  20184 WEXM1 46/// /2402 11021 40115 55000 91800 222// 00240 333 91240 555 3 91205;
0100998015999992011012019004+43333-070550FM-18+0019WEXM1V0202401N002119999999N9999999N1-00251+99999999999REMSYN091CMAN  20194 WEXM1 46/// /2404 11025 20119 30038 40042 91844 333 91204 555 3 555 1009 22011;
0097998015999992011012020004+43333-070550FM-18+0019WEXM1V0202501N003119999999N9999999N1-00261+99999999999REMSYN088CMAN  20204 WEXM1 46/// /2506 11026 40152 56023 92000 222// 001691203 555 1 555 3 91215;
0062998015999992011012021004+43333-070550FM-18+0019WEXM1V0202701N001519999999N9999999N1-00321+99999999999REMSYN053CMAN  20214 WEXM1 46/// /2703 11032 0140 54000 92100;
0068998015999992011012022004+43333-070550FM-18+0019WEXM1V0202401N002119999999N9999999N1-00481+99999999999REMSYN059CMAN  20224 WEXM1 46/// /2404 11048 40140 40160 8020 92200;
0062998015999992011012023004+43333-070550FM-18+0019WEXM1V0202401N000519999999N9999999N1-00541+99999999999REMSYN053CMAN  20234 WEXM1 46/// /2401 11054 0140 54000 92300;
0056998015999992011012100004+43333-070550FM-18+0019WEXM1V0202601N001019999999N9999999N1-00571-00801999999REMSYN047CMAN 21004 WEXM1 46/// /2602 11057 21080 92345;
0062998015999992011012101004+43333-070550FM-18+0019WEXM1V0202001N001019999999N9999999N1-00631+99999999999REMSYN053CMAN  21014 WEXM1 46/// /2002 11063 0130 57010 90100;
0068998015999992011012102004+43333-070550FM-18+0019WEXM1V0209999C000019999999N9999999N1-00611+99999999999REMSYN059CMAN  21024 WEXM1 46/// /0000 11061 40130 0160 54000 90200;
0062998015999992011012103004+43333-070550FM-18+0019WEXM1V0209999C000019999999N9999999N1-00661+99999999999REMSYN053CMAN  21034 WEXM1 46/// /0000 11066 0120 58010 90300;
0072998015999992011012104004+43333-070550FM-18+0019WEXM1V0203201N000519999999N9999999N1-00661+99999999999REMSYN063CMAN  21044 WEXM1 46/// /3201 11066 40110 40160 0400 333 91206;
0000998015999992011012105004+43333-070550FM-18+0019WEXM1V0203201N001519999999N9999999N1-00631+99999999999
0174998015999992011012106004+43333-070550FM-18+0019WEXM1V0203201N001519999999N9999999N1-00661+99999999999REMSYN165CMAN  21064 WEXM1 46/// /3203 11066 21025 30027 40034 58017 90600 333 91236 555  10005 21019 36103 4/001 546// 55000 ///// 55300 ///// 70003 87625 90760 91005 91109;
0091998015999992011012107004+43333-070550FM-18+0019WEXM1V0203301N001519999999N9999999N1-00621+99999999999REMSYN082CMAN  21074 WEXM1 46/// /3303 11062 40132 58019 90700 222// 001656009 59006 87275;
0062998015999992011012108004+43333-070550FM-18+0019WEXM1V0203301N002119999999N9999999N1-00651+99999999999REMSYN053CMAN  21084 WEXM1 46/// /3304 11065 20059 40240 0745;
0062998015999992011012109004+43333-070550FM-18+0019WEXM1V0203301N001019999999N9999999N1-00671+99999999999REMSYN053CMAN  21094 WEXM1 46/// /3302 11067 20051 40230 0845;
0094998015999992011012110004+43333-070550FM-18+0019WEXM1V0203601N002619999999N9999999N1-00661+99999999999REMSYN085CMAN  21104 WEXM1 46/// /3605 11066 21046 30007 40011 90942 333 91211 555 2 555 2027;
0062998015999992011012111004+43333-070550FM-18+0019WEXM1V0203101N003119999999N9999999N1-00631+99999999999REMSYN053CMAN  21114 WEXM1 46/// /3106 11063 20035 40220 1045;
0062998015999992011012112004+43333-070550FM-18+0019WEXM1V0203401N002619999999N9999999N1-00651+99999999999REMSYN053CMAN  21124 WEXM1 46/// /3405 11065 21044 40110 1145;
0092998015999992011012113004+43333-070550FM-18+0019WEXM1V0203301N003619999999N9999999N1-00651+99999999999REMSYN083CMAN  21134 WEXM1 46/// /3307 11065 21053 39953 49957 91244 333 91204 555 8 555 //;
0062998015999992011012114004+43333-070550FM-18+0019WEXM1V0203301N004619999999N9999999N1-00651+99999999999REMSYN053CMAN  21144 WEXM1 46/// /3309 11065 20017 40220 1345;
0000998015999992011012115004+43333-070550FM-18+0019WEXM1V0203301N004119999999N9999999N1-00641+99999999999
0062998015999992011012116004+43333-070550FM-18+0019WEXM1V0203301N004119999999N9999999N1-00661+99999999999REMSYN053CMAN  21164 WEXM1 46/// /3308 11066 21043 0190 91545;
0000998015999992011012117004+43333-070550FM-18+0019WEXM1V0203101N005719999999N9999999N1-00641+99999999999
0062998015999992011012118004+43333-070550FM-18+0019WEXM1V0203101N005719999999N9999999N1-00561+99999999999REMSYN053CMAN  21184 WEXM1 46/// /3111 11056 20059 0200 91745;
0068998015999992011012119004+43333-070550FM-18+0019WEXM1V0202901N004119999999N9999999N1-00421+99999999999REMSYN059CMAN  21194 WEXM1 46/// /2908 11042 20075 40170 5000 91900;
0114998015999992011012120004+43333-070550FM-18+0019WEXM1V0202901N003119999999N9999999N1-00361+99999999999REMSYN105CMAN  21204 WEXM1 46/// /2906 11036 21065 91954 333 91210 5 00120 333 91208 555  30000 89/00 96251 98004;
0062998015999992011012121004+43333-070550FM-18+0019WEXM1V0202701N004119999999N9999999N1-00431+99999999999REMSYN053CMAN  21214 WEXM1 46/// /2708 11043 20076 0180 92045;
0000998015999992011012122004+43333-070550FM-18+0019WEXM1V0202701N005719999999N9999999N1-00601+99999999999
0092998015999992011012123004+43333-070550FM-18+0019WEXM1V0202601N004119999999N9999999N1-00651+99999999999REMSYN083CMAN  21234 WEXM1 46/// /2608 11065 40153 58010 92300 222// 0011 22283 00206 1////;
0097998015999992011012200004+43333-070550FM-18+0019WEXM1V0202701N004619999999N9999999N1-00701+99999999999REMSYN088CMAN  22004 WEXM1 46/// /2709 11070 40146 50000 90000 222// 002491243 555 6 555 3 91208;
0068998015999992011012201004+43333-070550FM-18+0019WEXM1V0202701N003119999999N9999999N1-00781+99999999999REMSYN059CMAN  22014 WEXM1 46/// /2706 11078 40140 0180 56010 90100;
0068998015999992011012202004+43333-070550FM-18+0019WEXM1V0202701N003119999999N9999999N1-00811+99999999999REMSYN059CMAN  22024 WEXM1 46/// /2706 11081 20028 40140 4000 90200;
0068998015999992011012203004+43333-070550FM-18+0019WEXM1V0202701N002619999999N9999999N1-00861+99999999999REMSYN059CMAN  22034 WEXM1 46/// /2705 11086 20035 40140 4000 90300;
0068998015999992011012204004+43333-070550FM-18+0019WEXM1V0202901N003119999999N9999999N1-00891+99999999999REMSYN059CMAN  22044 WEXM1 46/// /2906 11089 20083 40140 4000 90400;
0091998015999992011012205004+43333-070550FM-18+0019WEXM1V0202701N003119999999N9999999N1-00891+99999999999REMSYN082CMAN  22054 WEXM1 46/// /2706 11089 20100 40100 40044 50003 90500 333 91217 555 4;
0091998015999992011012206004+43333-070550FM-18+0019WEXM1V0202601N003119999999N9999999N1-00891+99999999999REMSYN082CMAN  22064 WEXM1 46/// /2606 11089 40131 54000 90600 222// 002491213 555 8 83645;
0084998015999992011012207004+43333-070550FM-18+0019WEXM1V0202601N001519999999N9999999N1-00981+99999999999REMSYN075CMAN  22074 WEXM1 46/// /2603 11098 90636 222// 00090 222// 0009 333 91203;
0100998015999992011012208004+43333-070550FM-18+0019WEXM1V0202701N003119999999N9999999N1-00961+99999999999REMSYN091CMAN  22084 WEXM1 46/// /2706 11096 40135 52006 90800 222// 002491225 555 8 555 1008 22010;
0100998015999992011012209004+43333-070550FM-18+0019WEXM1V0202801N002619999999N9999999N1-00981+99999999999REMSYN091CMAN  22094 WEXM1 46/// /2805 11098 20043 39973 49980 90900 333 91247 555 6 555 1003 22004;
0100998015999992011012210004+43333-070550FM-18+0019WEXM1V0202701N002619999999N9999999N1-01001+99999999999REMSYN091CMAN  22104 WEXM1 46/// /2705 11100 20035 90954 333 91206 5 000391221 555 3 555 1019 22022;
0062998015999992011012211004+43333-070550FM-18+0019WEXM1V0202601N003119999999N9999999N1-01021+99999999999REMSYN053CMAN  22114 WEXM1 46/// /2606 11102 0063 40170 91045;
0100998015999992011012212004+43333-070550FM-18+0019WEXM1V0202701N002619999999N9999999N1-01051+99999999999REMSYN091CMAN  22124 WEXM1 46/// /2705 11105 40176 52008 91200 222// 000291223 555 7 555 1036 22039;
0000998015999992011012213004+43333-070550FM-18+0019WEXM1V0202901N002119999999N9999999N1-01041+99999999999
0100998015999992011012214004+43333-070550FM-18+0019WEXM1V0202701N001519999999N9999999N1-00951+99999999999REMSYN091CMAN  22144 WEXM1 46/// /2703 11095 40140 56009 91400 222// 00240 333 91229 555 1036 22039;
0100998015999992011012215004+43333-070550FM-18+0019WEXM1V0202801N003619999999N9999999N1-00861+99999999999REMSYN091CMAN  22154 WEXM1 46/// /2807 11086 40114 51023 91500 222// 001591237 555  555 11038 22041;
0062998015999992011012216004+43333-070550FM-18+0019WEXM1V0202601N002119999999N9999999N1-00701+99999999999REMSYN053CMAN  22164 WEXM1 46/// /2604 11070 21002 40100 1545;
0000998015999992011012217004+43333-070550FM-18+0019WEXM1V0202901N002619999999N9999999N1-00651+99999999999
0062998015999992011012218004+43333-070550FM-18+0019WEXM1V0202801N002119999999N9999999N1-00591+99999999999REMSYN053CMAN  22184 WEXM1 46/// /2804 11059 20085 0160 91745;
0062998015999992011012219004+43333-070550FM-18+0019WEXM1V0202501N002119999999N9999999N1-00491+99999999999REMSYN053CMAN  22194 WEXM1 46/// /2504 11049 20106 0130 91845;
0000998015999992011012220004+43333-070550FM-18+0019WEXM1V0202601N002119999999N9999999N1-00461+99999999999
0084998015999992011012221004+43333-070550FM-18+0019WEXM1V0202301N002119999999N9999999N1-00481+99999999999REMSYN075CMAN  22214 WEXM1 46/// /2304 11048 40152 53018 92100 222// 00231/// 91103;
0100998015999992011012222004+43333-070550FM-18+0019WEXM1V0202201N002119999999N9999999N1-00651+99999999999REMSYN091CMAN  22224 WEXM1 46/// /2204 11065 40120 53018 92200 222// 001691219 555  555 11039 22043;
0100998015999992011012223004+43333-070550FM-18+0019WEXM1V0202601N000519999999N9999999N1-00751+99999999999REMSYN091CMAN  22234 WEXM1 46/// /2601 11075 20076 39928 49939 53037 92300 333 91265 555 1018 22020;
0134998015999992011012300004+43333-070550FM-18+0019WEXM1V0202401N001019999999N9999999N1-00791+99999999999REMSYN125CMAN  23004 WEXM1 46/// /2402 11079 40117 51004 90000 222// 0000 58015 70100 84100 22213 04240 20603 334// 41205 5//// 80177;
0068998015999992011012301004+43333-070550FM-18+0019WEXM1V0203201N001019999999N9999999N1-01061+99999999999REMSYN059CMAN  23014 WEXM1 46/// /3202 11106 0127 40120 58010 90100;
0068998015999992011012302004+43333-070550FM-18+0019WEXM1V0203301N001019999999N9999999N1-01211+99999999999REMSYN059CMAN  23024 WEXM1 46/// /3302 11121 20116 40120 4000 90200;
0068998015999992011012303004+43333-070550FM-18+0019WEXM1V0203001N001019999999N9999999N1-01201+99999999999REMSYN059CMAN  23034 WEXM1 46/// /3002 11120 20095 40120 3010 90300;
0097998015999992011012304004+43333-070550FM-18+0019WEXM1V0203301N002619999999N9999999N1-01381+99999999999REMSYN088CMAN  23044 WEXM1 46/// /3305 11138 20112 40130 0400 222// 00155 333 91223 555 TIDE1100;
0091998015999992011012305004+43333-070550FM-18+0019WEXM1V0203301N003119999999N9999999N1-01341+99999999999REMSYN082CMAN  23054 WEXM1 46/// /3306 11134 20103 30014 40018 90442 333 91211 555 7 555 8;
0062998015999992011012306004+43333-070550FM-18+0019WEXM1V0203201N003619999999N9999999N1-01321+99999999999REMSYN053CMAN  23064 WEXM1 46/// /3207 11132 20088 40160 0545;
0099998015999992011012307004+43333-070550FM-18+0019WEXM1V0203201N003119999999N9999999N1-01281+99999999999REMSYN090CMAN  23074 WEXM1 46/// /3206 11128 20069 30038 40041 90642 333 91214 555 4 555 801 70006;
0056998015999992011012308004+43333-070550FM-18+0019WEXM1V0203201N002119999999N9999999N1-01281-01701999999REMSYN047CMAN 23084 WEXM1 46/// /3204 11128 21170 90745;
0097998015999992011012309004+43333-070550FM-18+0019WEXM1V0203201N003119999999N9999999N1-01271+99999999999REMSYN088CMAN  23094 WEXM1 46/// /3206 11127 20064 30040 40047 51047 90900 333 91242 555 3 91203;
0000998015999992011012310004+43333-070550FM-18+0019WEXM1V0203201N003119999999N9999999N1-01301+99999999999
0062998015999992011012311004+43333-070550FM-18+0019WEXM1V0203201N003119999999N9999999N1-01321+99999999999REMSYN053CMAN  23114 WEXM1 46/// /3206 11132 20018 0150 91045;
0068998015999992011012504004+43333-070550FM-18+0019WEXM1V0203101N001519999999N9999999N1-01731+99999999999REMSYN059CMAN  25044 WEXM1 46/// /3103 11173 20086 40160 3010 90400;
0000998015999992011012505004+43333-070550FM-18+0019WEXM1V0202901N000519999999N9999999N1-01731+99999999999
0133998015999992011012506004+43333-070550FM-18+0019WEXM1V0203201N001019999999N9999999N1-01791+99999999999REMSYN124CMAN  25064 WEXM1 46/// /3202 11179 20042 30011 40014 90542 333 91214 555 1 555 1 55000 55300 69937 70009 83/12 87/42 87/49;
0126998015999992011012507004+43333-070550FM-18+0019WEXM1V0203401N001019999999N9999999N1-01831+99999999999REMSYN117CMAN  25074 WEXM1 46/// /3402 11183 20024 40200 00100 222// 0011 77077 333 21035 3/103 47008 83610 83630 86658 93106;
0100998015999992011012508004+43333-070550FM-18+0019WEXM1V0203101N001019999999N9999999N1-01701+99999999999REMSYN091CMAN  25084 WEXM1 46/// /3102 11170 20023 9979 49986 56011 90800 333 91233 555 11030 22033;
0093998015999992011012509004+43333-070550FM-18+0019WEXM1V0202901N001019999999N9999999N1-01631+99999999999REMSYN084CMAN  25094 WEXM1 46/// /2902 11163 20018 222// 00120 222// 00110 333 91234 555 008;
0062998015999992011012510004+43333-070550FM-18+0019WEXM1V0203101N000519999999N9999999N1-01611+99999999999REMSYN053CMAN  25104 WEXM1 46/// /3101 11161 20065 40160 0945;
0100998015999992011012511004+43333-070550FM-18+0019WEXM1V0203501N000519999999N9999999N1-01641+99999999999REMSYN091CMAN  25114 WEXM1 46/// /3501 11164 20014 40190 91100 222// 0000 333 91239 555 11029 22032;
0062998015999992011012512004+43333-070550FM-18+0019WEXM1V0203101N002119999999N9999999N1-01631+99999999999REMSYN053CMAN  25124 WEXM1 46/// /3104 11163 20061 40170 1145;
0062998015999992011012513004+43333-070550FM-18+0019WEXM1V0203101N001519999999N9999999N1-01571+99999999999REMSYN053CMAN  25134 WEXM1 46/// /3103 11157 20005 40180 1245;
0100998015999992011012514004+43333-070550FM-18+0019WEXM1V0203201N000519999999N9999999N1-01451+99999999999REMSYN091CMAN  25144 WEXM1 46/// /3201 11145 21003 40129 53004 91400 333 91230 555 4 555 1007 22008;
0140998015999992011012515004+43333-070550FM-18+0019WEXM1V0202801N001519999999N9999999N1-01211+99999999999REMSYN131CMAN  25154 WEXM1 46/// /2803 11121 21012 40190 91504 91500 333 91230 555 7 555 /// 22200 0//// 1//// 2//// 3//// 70// 81053 91019;
0045998015999992011012516004+43333-070550FM-18+0019WEXM1V0202301N004019999999N9999999N1-00891-01051999999REMSYN036WEXM1 46/// /2304 11089 21105 91600;
0045998015999992011012517004+43333-070550FM-18+0019WEXM1V0202601N002019999999N9999999N1-00791-00951999999REMSYN036WEXM1 46/// /2602 11079 21095 91645;
0197998015999992011012518004+43333-070550FM-18+0019WEXM1V0202301N002119999999N9999999N1-00791+99999999999REMSYN188CMAN  25184 WEXM1 46/// /2304 11079 20011 91754 333 91213 5 91800 333 91216 555 401 3//// 41304 70023 333 91206 555 11054 22056 31659 41207 61749 121051 118048 112050 115048 112052 114052;
0083998015999992011012519004+43333-070550FM-18+0019WEXM1V0202701N001019999999N9999999N1-00751+99999999999REMSYN074CMAN  25194 WEXM1 46/// /2702 11075 20033 51011 91900 222// 0025555 0////;
0121998015999992011012520004+43333-070550FM-18+0019WEXM1V0202701N001019999999N9999999N1-00721+99999999999REMSYN112CMAN  25204 WEXM1 46/// /2702 11072 20083 40180 40037 51006 92000 333 91246 555 6 30/// 56900 59019 81820 92044;
0100998015999992011012521004+43333-070550FM-18+0019WEXM1V0202901N001019999999N9999999N1-00701+99999999999REMSYN091CMAN  25214 WEXM1 46/// /2902 11070 40133 56021 92100 222// 001691217 555  555 11030 22033;
0100998015999992011012522004+43333-070550FM-18+0019WEXM1V0202501N000519999999N9999999N1-00761+99999999999REMSYN091CMAN  25224 WEXM1 46/// /2501 11076 20023 40081 58041 92200 333 91246 555 2 555 1003 22004;
0062998015999992011012523004+43333-070550FM-18+0019WEXM1V0200101N001019999999N9999999N1-00971+99999999999REMSYN053CMAN  25234 WEXM1 46/// /0102 11097 20106 40180 2245;
0100998015999992011012600004+43333-070550FM-18+0019WEXM1V0203501N001519999999N9999999N1-01081+99999999999REMSYN091CMAN  26004 WEXM1 46/// /3503 11108 20098 92354 333 91204 5 333 91238 555 4 555 1002 22003;
0072998015999992011012601004+43333-070550FM-18+0019WEXM1V0203401N002119999999N9999999N1-01201+99999999999REMSYN063CMAN  26014 WEXM1 46/// /3404 11120 40190 22// 00159 333 91226;
0068998015999992011012602004+43333-070550FM-18+0019WEXM1V0203301N002119999999N9999999N1-01231+99999999999REMSYN059CMAN  26024 WEXM1 46/// /3304 11123 40190 0270 57010 90200;
0068998015999992011012603004+43333-070550FM-18+0019WEXM1V0203101N002119999999N9999999N1-01241+99999999999REMSYN059CMAN  26034 WEXM1 46/// /3104 11124 40200 40270 7010 90300;
0062998015999992011012604004+43333-070550FM-18+0019WEXM1V0203001N001519999999N9999999N1-01301+99999999999REMSYN053CMAN  26044 WEXM1 46/// /3003 11130 40200 0190 90400;
0159998015999992011012605004+43333-070550FM-18+0019WEXM1V0203201N003119999999N9999999N1-01321+99999999999REMSYN150CMAN  26054 WEXM1 46/// /3206 11132 20068 40270 90500 333 91204 555 3 10006 21002 3/101 47004 70018 86806 83618 87644 555 20004 50032 999 02406 21011;
0101998015999992011012606004+43333-070550FM-18+0019WEXM1V0203401N002619999999N9999999N1-01391+99999999999REMSYN092CMAN  26064 WEXM1 46/// /3405 11139 20073 39977 49980 90542 333 91213 555 6 555 30019 40041;
0000998015999992011012607004+43333-070550FM-18+0019WEXM1V0203301N003119999999N9999999N1-01451+99999999999
0062998015999992011012608004+43333-070550FM-18+0019WEXM1V0203301N003119999999N9999999N1-01481+99999999999REMSYN053CMAN  26084 WEXM1 46/// /3306 11148 20043 0200 90745;
0094998015999992011012609004+43333-070550FM-18+0019WEXM1V0203201N003119999999N9999999N1-01491+99999999999REMSYN085CMAN  26094 WEXM1 46/// /3206 11149 20032 39921 49932 58004 90900 333 91229 555 2008;
0100998015999992011012610004+43333-070550FM-18+0019WEXM1V0203201N003619999999N9999999N1-01391+99999999999REMSYN091CMAN  26104 WEXM1 46/// /3207 11139 20021 39921 49932 57004 91000 333 91233 555 1003 22004;
0000998015999992011012611004+43333-070550FM-18+0019WEXM1V0203201N003119999999N9999999N1-01341+99999999999
0100998015999992011012612004+43333-070550FM-18+0019WEXM1V0203301N004119999999N9999999N1-01321+99999999999REMSYN091CMAN  26124 WEXM1 46/// /3308 11132 20026 39960 49963 91142 333 91217 555  555 11023 22026;
0099998015999992011012613004+43333-070550FM-18+0019WEXM1V0203301N004119999999N9999999N1-01281+99999999999REMSYN090CMAN  26134 WEXM1 46/// /3308 11128 40150 58007 91300 222// 00253 21001 328// 41402 70013;
0074998015999992011012614004+43333-070550FM-18+0019WEXM1V0203401N004119999999N9999999N1-01191+99999999999REMSYN065CMAN  26144 WEXM1 46/// /3408 11119 20008 40080 91400 222// 0012;
0097998015999992011012615004+43333-070550FM-18+0019WEXM1V0203301N003619999999N9999999N1-01081+99999999999REMSYN088CMAN  26154 WEXM1 46/// /3307 11108 21001 56029 91500 222// 00030 333 91237 555 3 91205;
0000998015999992011012616004+43333-070550FM-18+0019WEXM1V0203201N004119999999N9999999N1-00981+99999999999
0103998015999992011012617004+43333-070550FM-18+0019WEXM1V0203201N002619999999N9999999N1-00791+99999999999REMSYN094CMAN  26174 WEXM1 46/// /3205 11079 49926 53007 91700 222// 000491214 555 3 555 017 555 1/030;
0000998015999992011012618004+43333-070550FM-18+0019WEXM1V0203401N002619999999N9999999N1-00711+99999999999
