0078998252999992012010100004+44400-068200FM-18+0003ATGM1V0202701N003619999999N9999999N1+00731+99999100751REMSYN069CMAN  01004 ATGM1 46/// /2707 10073 40075 92336 222// 0005 333 91209;
0078998252999992012010101004+44400-068200FM-18+0003ATGM1V0202501N004119999999N9999999N1+00621+99999100731REMSYN069CMAN  01014 ATGM1 46/// /2508 10062 40073 90036 222// 0005 333 91206;
0068998252999992012010102004+44400-068200FM-18+0003ATGM1V0202601N006719999999N9999999N1+00451+99999100711REMSYN059CMAN  01024 ATGM1 46/// /2613 10045 40071 90136 222// 0005;
0068998252999992012010103004+44400-068200FM-18+0003ATGM1V0202501N006719999999N9999999N1+00331+99999100791REMSYN059CMAN  01034 ATGM1 46/// /2513 10033 40079 90236 222// 0005;
0078998252999992012010104004+44400-068200FM-18+0003ATGM1V0202401N007719999999N9999999N1+00291+99999100821REMSYN069CMAN  01044 ATGM1 46/// /2415 10029 40082 90336 222// 0005 333 91209;
0068998252999992012010105004+44400-068200FM-18+0003ATGM1V0202501N007719999999N9999999N1+00261+99999100841REMSYN059CMAN  01054 ATGM1 46/// /2515 10026 40084 90436 222// 0005;
0078998252999992012010106004+44400-068200FM-18+0003ATGM1V0202501N007719999999N9999999N1+00271+99999100871REMSYN069CMAN  01064 ATGM1 46/// /2515 10027 40087 90536 222// 0005 333 91204;
0068998252999992012010107004+44400-068200FM-18+0003ATGM1V0202501N006219999999N9999999N1+00261+99999100961REMSYN059CMAN  01074 ATGM1 46/// /2512 10026 40096 90636 222// 0005;
0068998252999992012010108004+44400-068200FM-18+0003ATGM1V0202601N005719999999N9999999N1+00251+99999101011REMSYN059CMAN  01084 ATGM1 46/// /2611 10025 40101 90736 222// 0005;
0068998252999992012010109004+44400-068200FM-18+0003ATGM1V0202601N007719999999N9999999N1+00251+99999101071REMSYN059CMAN  01094 ATGM1 46/// /2615 10025 40107 90836 222// 0005;
0091998252999992012010110004+44400-068200FM-18+0003ATGM1V0202601N008219999999N9999999N1+00191+99999101181ADDMD1310201+9999REMSYN065CMAN  01104 ATGM1 46/// /2616 10019 40118 53020 91000 222// 0005;
0078998252999992012010111004+44400-068200FM-18+0003ATGM1V0202501N007219999999N9999999N1+00181+99999101241REMSYN069CMAN  01114 ATGM1 46/// /2514 10018 40124 91036 222// 0005 333 91205;
0078998252999992012010112004+44400-068200FM-18+0003ATGM1V0202301N006219999999N9999999N1+00121+99999101341REMSYN069CMAN  01124 ATGM1 46/// /2312 10012 40134 91136 222// 0005 333 91206;
0068998252999992012010113004+44400-068200FM-18+0003ATGM1V0202501N008219999999N9999999N1+00111+99999101481REMSYN059CMAN  01134 ATGM1 46/// /2516 10011 40148 91236 222// 0005;
0078998252999992012010114004+44400-068200FM-18+0003ATGM1V0202601N006719999999N9999999N1+00121+99999101571REMSYN069CMAN  01144 ATGM1 46/// /2613 10012 40157 91336 222// 0005 333 91202;
0068998252999992012010115004+44400-068200FM-18+0003ATGM1V0202601N006719999999N9999999N1+00141+99999101571REMSYN059CMAN  01154 ATGM1 46/// /2613 10014 40157 91436 222// 0005;
0078998252999992012010116004+44400-068200FM-18+0003ATGM1V0202701N004119999999N9999999N1+00181+99999101571REMSYN069CMAN  01164 ATGM1 46/// /2708 10018 40157 91536 222// 0005 333 91206;
0078998252999992012010117004+44400-068200FM-18+0003ATGM1V0202901N003619999999N9999999N1+00231+99999101551REMSYN069CMAN  01174 ATGM1 46/// /2907 10023 40155 91636 222// 0005 333 91205;
0068998252999992012010118004+44400-068200FM-18+0003ATGM1V0202601N003619999999N9999999N1+00291+99999101491REMSYN059CMAN  01184 ATGM1 46/// /2607 10029 40149 91736 222// 0005;
0078998252999992012010119004+44400-068200FM-18+0003ATGM1V0201501N000519999999N9999999N1+00431+99999101421REMSYN069CMAN  01194 ATGM1 46/// /1501 10043 40142 91836 222// 0005 333 91205;
0068998252999992012010120004+44400-068200FM-18+0003ATGM1V0200701N004119999999N9999999N1+00301+99999101441REMSYN059CMAN  01204 ATGM1 46/// /0708 10030 40144 91936 222// 0005;
0068998252999992012010121004+44400-068200FM-18+0003ATGM1V0200801N001519999999N9999999N1+00231+99999101471REMSYN059CMAN  01214 ATGM1 46/// /0803 10023 40147 92036 222// 0005;
0078998252999992012010122004+44400-068200FM-18+0003ATGM1V0200701N003619999999N9999999N1+00241+99999101441REMSYN069CMAN  01224 ATGM1 46/// /0707 10024 40144 92136 222// 0005 333 91204;
0099998252999992012010123004+44400-068200FM-18+0003ATGM1V0200801N002119999999N9999999N1+00261+99999101381REMSYN090CMAN  01234 ATGM1 46/// /0804 10026 40138 92236 222// 00052 11004 21003 306// 41102 70018;
0078998252999992012010200004+44400-068200FM-18+0003ATGM1V0200701N004619999999N9999999N1+00291+99999101371REMSYN069CMAN  02004 ATGM1 46/// /0709 10029 40137 92336 222// 0005 333 91205;
0078998252999992012010201004+44400-068200FM-18+0003ATGM1V0200801N005719999999N9999999N1+00331+99999101201REMSYN069CMAN  02014 ATGM1 46/// /0811 10033 40120 90036 222// 0005 333 91205;
0078998252999992012010202004+44400-068200FM-18+0003ATGM1V0200901N003119999999N9999999N1+00401+99999101151REMSYN069CMAN  02024 ATGM1 46/// /0906 10040 40115 90136 222// 0005 333 91205;
0078998252999992012010203004+44400-068200FM-18+0003ATGM1V0201001N003619999999N9999999N1+00521+99999101011REMSYN069CMAN  02034 ATGM1 46/// /1007 10052 40101 90236 222// 0005 333 91203;
0078998252999992012010204004+44400-068200FM-18+0003ATGM1V0201401N002119999999N9999999N1+00621+99999100881REMSYN069CMAN  02044 ATGM1 46/// /1404 10062 40088 90336 222// 0005 333 91203;
0085998252999992012010205004+44400-068200FM-18+0003ATGM1V0200901N003119999999N9999999N1+00701+99999100691REMSYN076CMAN  02054 ATGM1 46/// /0906 10070 40069 90436 222// 00051204 555 TIDE1097;
0072998252999992012010206004+44400-068200FM-18+0003ATGM1V0201101N002119999999N9999999N1+00721+99999100551REMSYN063CMAN  02064 ATGM1 46/// /1104 10072 40055 90536 222// 00051202;
0078998252999992012010207004+44400-068200FM-18+0003ATGM1V0200901N005719999999N9999999N1+00771+99999100371REMSYN069CMAN  02074 ATGM1 46/// /0911 10077 40037 90636 222// 0005 333 91203;
0078998252999992012010208004+44400-068200FM-18+0003ATGM1V0201001N006219999999N9999999N1+00781+99999100211REMSYN069CMAN  02084 ATGM1 46/// /1012 10078 40021 90736 222// 0005 333 91203;
0068998252999992012010209004+44400-068200FM-18+0003ATGM1V0201001N004119999999N9999999N1+00811+99999100051REMSYN059CMAN  02094 ATGM1 46/// /1008 10081 40005 90836 222// 0005;
0099998252999992012010210004+44400-068200FM-18+0003ATGM1V0201201N003119999999N9999999N1+00861+99999099901REMSYN090CMAN  02104 ATGM1 46/// /1206 10086 49990 90936 222// 00058 11302 21001 324// 41302 70011;
0078998252999992012010211004+44400-068200FM-18+0003ATGM1V0201201N003619999999N9999999N1+00881+99999099751REMSYN069CMAN  02114 ATGM1 46/// /1207 10088 49975 91036 222// 0005 333 91203;
0078998252999992012010212004+44400-068200FM-18+0003ATGM1V0201301N004119999999N9999999N1+00921+99999099721REMSYN069CMAN  02124 ATGM1 46/// /1308 10092 49972 91136 222// 0005 333 91204;
0068998252999992012010213004+44400-068200FM-18+0003ATGM1V0201701N004119999999N9999999N1+00971+99999099641REMSYN059CMAN  02134 ATGM1 46/// /1708 10097 49964 91236 222// 0005;
0072998252999992012010214004+44400-068200FM-18+0003ATGM1V0201801N003619999999N9999999N1+00931+99999099591REMSYN063CMAN  02144 ATGM1 46/// /1807 10093 49959 91336 222// 00051217;
0078998252999992012010215004+44400-068200FM-18+0003ATGM1V0201801N005119999999N9999999N1+00921+99999099581REMSYN069CMAN  02154 ATGM1 46/// /1810 10092 49958 91436 222// 0005 333 91208;
0078998252999992012010216004+44400-068200FM-18+0003ATGM1V0201901N004619999999N9999999N1+00861+99999099501REMSYN069CMAN  02164 ATGM1 46/// /1909 10086 49950 91542 222// 0005 333 91206;
0068998252999992012010217004+44400-068200FM-18+0003ATGM1V0201801N005119999999N9999999N1+00741+99999099491REMSYN059CMAN  02174 ATGM1 46/// /1810 10074 49949 91636 222// 0005;
0068998252999992012010218004+44400-068200FM-18+0003ATGM1V0201801N005119999999N9999999N1+00711+99999099511REMSYN059CMAN  02184 ATGM1 46/// /1810 10071 49951 91736 222// 0005;
0078998252999992012010219004+44400-068200FM-18+0003ATGM1V0201801N003619999999N9999999N1+00691+99999099561REMSYN069CMAN  02194 ATGM1 46/// /1807 10069 49956 91836 222// 0005 333 91208;
0068998252999992012010220004+44400-068200FM-18+0003ATGM1V0201701N005719999999N9999999N1+00601+99999099611REMSYN059CMAN  02204 ATGM1 46/// /1711 10060 49961 91936 222// 0005;
0072998252999992012010221004+44400-068200FM-18+0003ATGM1V0201901N004119999999N9999999N1+00401+99999099711REMSYN063CMAN  02214 ATGM1 46/// /1908 10040 49971 92036 222// 00051208;
0078998252999992012010222004+44400-068200FM-18+0003ATGM1V0202001N003119999999N9999999N1+00401+99999099811REMSYN069CMAN  02224 ATGM1 46/// /2006 10040 49981 92136 222// 0005 333 91203;
0068998252999992012010223004+44400-068200FM-18+0003ATGM1V0201901N004119999999N9999999N1+00401+99999099911REMSYN059CMAN  02234 ATGM1 46/// /1908 10040 49991 92236 222// 0005;
0078998252999992012010300004+44400-068200FM-18+0003ATGM1V0201901N005119999999N9999999N1+00371+99999100021REMSYN069CMAN  03004 ATGM1 46/// /1910 10037 40002 92336 222// 0005 333 91205;
0068998252999992012010301004+44400-068200FM-18+0003ATGM1V0202001N005119999999N9999999N1+00331+99999100091REMSYN059CMAN  03014 ATGM1 46/// /2010 10033 40009 90036 222// 0005;
0078998252999992012010302004+44400-068200FM-18+0003ATGM1V0202001N005119999999N9999999N1+00301+99999100101REMSYN069CMAN  03024 ATGM1 46/// /2010 10030 40010 90136 222// 0005 333 91203;
0068998252999992012010303004+44400-068200FM-18+0003ATGM1V0202001N004119999999N9999999N1+00231+99999100141REMSYN059CMAN  03034 ATGM1 46/// /2008 10023 40014 90236 222// 0005;
0078998252999992012010304004+44400-068200FM-18+0003ATGM1V0202001N003619999999N9999999N1+00211+99999100141REMSYN069CMAN  03044 ATGM1 46/// /2007 10021 40014 90336 222// 0005 333 91203;
0078998252999992012010305004+44400-068200FM-18+0003ATGM1V0202001N004119999999N9999999N1+00181+99999100151REMSYN069CMAN  03054 ATGM1 46/// /2008 10018 40015 90436 222// 0005 333 91202;
0068998252999992012010306004+44400-068200FM-18+0003ATGM1V0202001N003619999999N9999999N1+00151+99999100161REMSYN059CMAN  03064 ATGM1 46/// /2007 10015 40016 90536 222// 0005;
0079998252999992012010307004+44400-068200FM-18+0003ATGM1V0201801N002619999999N9999999N1+00051+99999100231REMSYN070CMAN  03074 ATGM1 46/// /1805 10005 40023 90636 222// 00052 555 10093;
0078998252999992012010308004+44400-068200FM-18+0003ATGM1V0202101N003119999999N9999999N1+00021+99999100301REMSYN069CMAN  03084 ATGM1 46/// /2106 10002 40030 90736 222// 0005 333 91201;
0068998252999992012010309004+44400-068200FM-18+0003ATGM1V0202201N004119999999N9999999N1-00051+99999100331REMSYN059CMAN  03094 ATGM1 46/// /2208 11005 40033 90836 222// 0005;
0068998252999992012010310004+44400-068200FM-18+0003ATGM1V0202001N003619999999N9999999N1-00111+99999100371REMSYN059CMAN  03104 ATGM1 46/// /2007 11011 40037 90936 222// 0005;
0078998252999992012010311004+44400-068200FM-18+0003ATGM1V0202301N006219999999N9999999N1-00131+99999100421REMSYN069CMAN  03114 ATGM1 46/// /2312 11013 40042 91036 222// 0004 333 91202;
0072998252999992012010312004+44400-068200FM-18+0003ATGM1V0202301N007219999999N9999999N1-00181+99999100501REMSYN063CMAN  03124 ATGM1 46/// /2314 11018 40050 91136 222// 00041214;
0068998252999992012010313004+44400-068200FM-18+0003ATGM1V0202401N007219999999N9999999N1-00251+99999100621REMSYN059CMAN  03134 ATGM1 46/// /2414 11025 40062 91236 222// 0005;
0078998252999992012010314004+44400-068200FM-18+0003ATGM1V0202401N007719999999N9999999N1-00281+99999100721REMSYN069CMAN  03144 ATGM1 46/// /2415 11028 40072 91336 222// 0004 333 91202;
0068998252999992012010315004+44400-068200FM-18+0003ATGM1V0202701N007219999999N9999999N1-00371+99999100771REMSYN059CMAN  03154 ATGM1 46/// /2714 11037 40077 91436 222// 0004;
0072998252999992012010316004+44400-068200FM-18+0003ATGM1V0202601N008719999999N9999999N1-00451+99999100721REMSYN063CMAN  03164 ATGM1 46/// /2617 11045 40072 91536 222// 00041212;
0068998252999992012010317004+44400-068200FM-18+0003ATGM1V0202601N007219999999N9999999N1-00511+99999100711REMSYN059CMAN  03174 ATGM1 46/// /2614 11051 40071 91636 222// 0004;
0078998252999992012010318004+44400-068200FM-18+0003ATGM1V0202501N007719999999N9999999N1-00531+99999100731REMSYN069CMAN  03184 ATGM1 46/// /2515 11053 40073 91736 222// 0004 333 91214;
0078998252999992012010319004+44400-068200FM-18+0003ATGM1V0202701N006219999999N9999999N1-00611+99999100771REMSYN069CMAN  03194 ATGM1 46/// /2712 11061 40077 91836 222// 0004 333 91216;
0068998252999992012010320004+44400-068200FM-18+0003ATGM1V0202701N006719999999N9999999N1-00631+99999100851REMSYN059CMAN  03204 ATGM1 46/// /2713 11063 40085 91936 222// 0004;
0078998252999992012010321004+44400-068200FM-18+0003ATGM1V0202501N009319999999N9999999N1-00691+99999100971REMSYN069CMAN  03214 ATGM1 46/// /2518 11069 40097 92036 222// 0004 333 91205;
0068998252999992012010322004+44400-068200FM-18+0003ATGM1V0202401N009319999999N9999999N1-00771+99999101031REMSYN059CMAN  03224 ATGM1 46/// /2418 11077 40103 92136 222// 0004;
0068998252999992012010323004+44400-068200FM-18+0003ATGM1V0202601N008719999999N9999999N1-00791+99999101081REMSYN059CMAN  03234 ATGM1 46/// /2617 11079 40108 92236 222// 0003;
0078998252999992012010400004+44400-068200FM-18+0003ATGM1V0202601N009819999999N9999999N1-00841+99999101151REMSYN069CMAN  04004 ATGM1 46/// /2619 11084 40115 92336 222// 0003 333 91204;
0078998252999992012010401004+44400-068200FM-18+0003ATGM1V0202601N008719999999N9999999N1-00941+99999101331REMSYN069CMAN  04014 ATGM1 46/// /2617 11094 40133 90036 222// 0003 333 91204;
0078998252999992012010402004+44400-068200FM-18+0003ATGM1V0202501N010319999999N9999999N1-01061+99999101391REMSYN069CMAN  04024 ATGM1 46/// /2520 11106 40139 90136 222// 0003 333 91201;
0078998252999992012010403004+44400-068200FM-18+0003ATGM1V0202901N007719999999N9999999N1-01161+99999101421REMSYN069CMAN  04034 ATGM1 46/// /2915 11116 40142 90236 222// 0003 333 91201;
0068998252999992012010404004+44400-068200FM-18+0003ATGM1V0202701N007719999999N9999999N1-01211+99999101301REMSYN059CMAN  04044 ATGM1 46/// /2715 11121 40130 90336 222// 0003;
0078998252999992012010405004+44400-068200FM-18+0003ATGM1V0203001N007719999999N9999999N1-01291+99999101291REMSYN069CMAN  04054 ATGM1 46/// /3015 11129 40129 90436 222// 0003 333 91202;
0078998252999992012010406004+44400-068200FM-18+0003ATGM1V0202901N009319999999N9999999N1-01331+99999101431REMSYN069CMAN  04064 ATGM1 46/// /2918 11133 40143 90536 222// 0003 333 91201;
0068998252999992012010407004+44400-068200FM-18+0003ATGM1V0202701N007719999999N9999999N1-01301+99999101471REMSYN059CMAN  04074 ATGM1 46/// /2715 11130 40147 90636 222// 0002;
0068998252999992012010408004+44400-068200FM-18+0003ATGM1V0202701N011319999999N9999999N1-01341+99999101381REMSYN059CMAN  04084 ATGM1 46/// /2722 11134 40138 90736 222// 0002;
0078998252999992012010409004+44400-068200FM-18+0003ATGM1V0202701N009319999999N9999999N1-01321+99999101371REMSYN069CMAN  04094 ATGM1 46/// /2718 11132 40137 90836 222// 0002 333 91202;
0078998252999992012010410004+44400-068200FM-18+0003ATGM1V0202701N008719999999N9999999N1-01351+99999101421REMSYN069CMAN  04104 ATGM1 46/// /2717 11135 40142 90936 222// 0003 333 91201;
0078998252999992012010411004+44400-068200FM-18+0003ATGM1V0202501N009319999999N9999999N1-01341+99999101431REMSYN069CMAN  04114 ATGM1 46/// /2518 11134 40143 91036 222// 0001 333 91201;
0078998252999992012010412004+44400-068200FM-18+0003ATGM1V0202601N009819999999N9999999N1-01381+99999101441REMSYN069CMAN  04124 ATGM1 46/// /2619 11138 40144 91136 222// 0001 333 91203;
0078998252999992012010413004+44400-068200FM-18+0003ATGM1V0202601N010319999999N9999999N1-01381+99999101481REMSYN069CMAN  04134 ATGM1 46/// /2620 11138 40148 91236 222// 0001 333 91204;
0078998252999992012010414004+44400-068200FM-18+0003ATGM1V0202401N009819999999N9999999N1-01371+99999101531REMSYN069CMAN  04144 ATGM1 46/// /2419 11137 40153 91336 222// 0002 333 91204;
0078998252999992012010415004+44400-068200FM-18+0003ATGM1V0202701N006719999999N9999999N1-01311+99999101521REMSYN069CMAN  04154 ATGM1 46/// /2713 11131 40152 91436 222// 0001 333 91205;
0068998252999992012010416004+44400-068200FM-18+0003ATGM1V0202601N007719999999N9999999N1-01231+99999101421REMSYN059CMAN  04164 ATGM1 46/// /2615 11123 40142 91536 222// 0001;
0078998252999992012010417004+44400-068200FM-18+0003ATGM1V0202601N006219999999N9999999N1-01121+99999101311REMSYN069CMAN  04174 ATGM1 46/// /2612 11112 40131 91636 222// 0001 333 91211;
0078998252999992012010418004+44400-068200FM-18+0003ATGM1V0202501N006719999999N9999999N1-00981+99999101231REMSYN069CMAN  04184 ATGM1 46/// /2513 11098 40123 91736 222// 0002 333 91206;
0078998252999992012010419004+44400-068200FM-18+0003ATGM1V0202401N006719999999N9999999N1-00841+99999101231REMSYN069CMAN  04194 ATGM1 46/// /2413 11084 40123 91836 222// 0002 333 91202;
0078998252999992012010420004+44400-068200FM-18+0003ATGM1V0202201N004619999999N9999999N1-00771+99999101231REMSYN069CMAN  04204 ATGM1 46/// /2209 11077 40123 91936 222// 0002 333 91203;
0078998252999992012010421004+44400-068200FM-18+0003ATGM1V0202101N003119999999N9999999N1-00741+99999101281REMSYN069CMAN  04214 ATGM1 46/// /2106 11074 40128 92036 222// 0002 333 91202;
0078998252999992012010422004+44400-068200FM-18+0003ATGM1V0202201N003619999999N9999999N1-00691+99999101301REMSYN069CMAN  04224 ATGM1 46/// /2207 11069 40130 92136 222// 0003 333 91203;
0068998252999992012010423004+44400-068200FM-18+0003ATGM1V0202301N004619999999N9999999N1-00701+99999101331REMSYN059CMAN  04234 ATGM1 46/// /2309 11070 40133 92236 222// 0002;
0078998252999992012010500004+44400-068200FM-18+0003ATGM1V0202001N003619999999N9999999N1-00731+99999101381REMSYN069CMAN  05004 ATGM1 46/// /2007 11073 40138 92336 222// 0003 333 91202;
0078998252999992012010501004+44400-068200FM-18+0003ATGM1V0202101N003619999999N9999999N1-00681+99999101301REMSYN069CMAN  05014 ATGM1 46/// /2107 11068 40130 90036 222// 0003 333 91201;
0078998252999992012010502004+44400-068200FM-18+0003ATGM1V0201901N001519999999N9999999N1-00641+99999101271REMSYN069CMAN  05024 ATGM1 46/// /1903 11064 40127 90136 222// 0003 333 91203;
0078998252999992012010503004+44400-068200FM-18+0003ATGM1V0201901N001019999999N9999999N1-00571+99999101191REMSYN069CMAN  05034 ATGM1 46/// /1902 11057 40119 90236 222// 0003 333 91205;
0068998252999992012010504004+44400-068200FM-18+0003ATGM1V0202001N002619999999N9999999N1-00561+99999101151REMSYN059CMAN  05044 ATGM1 46/// /2005 11056 40115 90336 222// 0003;
0078998252999992012010505004+44400-068200FM-18+0003ATGM1V0202001N003619999999N9999999N1-00511+99999101101REMSYN069CMAN  05054 ATGM1 46/// /2007 11051 40110 90436 222// 0003 333 91203;
0078998252999992012010506004+44400-068200FM-18+0003ATGM1V0202001N001519999999N9999999N1-00461+99999101091REMSYN069CMAN  05064 ATGM1 46/// /2003 11046 40109 90536 222// 0003 333 91203;
0078998252999992012010507004+44400-068200FM-18+0003ATGM1V0201801N002619999999N9999999N1-00461+99999101001REMSYN069CMAN  05074 ATGM1 46/// /1805 11046 40100 90636 222// 0003 333 91209;
0078998252999992012010508004+44400-068200FM-18+0003ATGM1V0202001N003619999999N9999999N1-00481+99999100951REMSYN069CMAN  05084 ATGM1 46/// /2007 11048 40095 90736 222// 0003 333 91204;
0078998252999992012010509004+44400-068200FM-18+0003ATGM1V0202301N003619999999N9999999N1-00361+99999100891REMSYN069CMAN  05094 ATGM1 46/// /2307 11036 40089 90836 222// 0004 333 91204;
0078998252999992012010510004+44400-068200FM-18+0003ATGM1V0202001N002619999999N9999999N1-00431+99999100851REMSYN069CMAN  05104 ATGM1 46/// /2005 11043 40085 90936 222// 0004 333 91203;
0078998252999992012010511004+44400-068200FM-18+0003ATGM1V0202301N003119999999N9999999N1-00401+99999100811REMSYN069CMAN  05114 ATGM1 46/// /2306 11040 40081 91036 222// 0004 333 91202;
0078998252999992012010512004+44400-068200FM-18+0003ATGM1V0202501N002619999999N9999999N1-00381+99999100801REMSYN069CMAN  05124 ATGM1 46/// /2505 11038 40080 91136 222// 0003 333 91220;
0068998252999992012010513004+44400-068200FM-18+0003ATGM1V0202001N001019999999N9999999N1-00351+99999100761REMSYN059CMAN  05134 ATGM1 46/// /2002 11035 40076 91236 222// 0003;
0078998252999992012010514004+44400-068200FM-18+0003ATGM1V0202201N001519999999N9999999N1-00241+99999100751REMSYN069CMAN  05144 ATGM1 46/// /2203 11024 40075 91336 222// 0003 333 91203;
0078998252999992012010515004+44400-068200FM-18+0003ATGM1V0202301N004119999999N9999999N1-00241+99999100761REMSYN069CMAN  05154 ATGM1 46/// /2308 11024 40076 91436 222// 0003 333 91202;
0068998252999992012010516004+44400-068200FM-18+0003ATGM1V0202101N001519999999N9999999N1-00221+99999100671REMSYN059CMAN  05164 ATGM1 46/// /2103 11022 40067 91536 222// 0003;
0078998252999992012010517004+44400-068200FM-18+0003ATGM1V0201801N002619999999N9999999N1-00111+99999100531REMSYN069CMAN  05174 ATGM1 46/// /1805 11011 40053 91636 222// 0003 333 91205;
0078998252999992012010518004+44400-068200FM-18+0003ATGM1V0202001N004619999999N9999999N1-00051+99999100411REMSYN069CMAN 05184 ATGM1 46/// /2009 11005 40041 91736 222// 00039 333 91213;
0068998252999992012010519004+44400-068200FM-18+0003ATGM1V0201901N001519999999N9999999N1+00001+99999100381REMSYN059CMAN  05194 ATGM1 46/// /1903 10000 40038 91836 222// 0003;
0068998252999992012010520004+44400-068200FM-18+0003ATGM1V0202101N004119999999N9999999N1-00011+99999100451REMSYN059CMAN  05204 ATGM1 46/// /2108 11001 40045 91936 222// 0003;
0068998252999992012010521004+44400-068200FM-18+0003ATGM1V0202301N004619999999N9999999N1-00041+99999100521REMSYN059CMAN  05214 ATGM1 46/// /2309 11004 40052 92036 222// 0004;
0068998252999992012010522004+44400-068200FM-18+0003ATGM1V0202201N003119999999N9999999N1-00081+99999100571REMSYN059CMAN  05224 ATGM1 46/// /2206 11008 40057 92136 222// 0004;
0078998252999992012010523004+44400-068200FM-18+0003ATGM1V0202201N004619999999N9999999N1-00141+99999100651REMSYN069CMAN  05234 ATGM1 46/// /2209 11014 40065 92236 222// 0004 333 91204;
0078998252999992012010600004+44400-068200FM-18+0003ATGM1V0202401N009819999999N9999999N1-00151+99999100731REMSYN069CMAN  06004 ATGM1 46/// /2419 11015 40073 92336 222// 0004 333 91204;
0078998252999992012010601004+44400-068200FM-18+0003ATGM1V0202501N008219999999N9999999N1-00221+99999100861REMSYN069CMAN  06014 ATGM1 46/// /2516 11022 40086 90036 222// 0003 333 91208;
0078998252999992012010602004+44400-068200FM-18+0003ATGM1V0202401N006219999999N9999999N1-00301+99999100931REMSYN069CMAN  06024 ATGM1 46/// /2412 11030 40093 90136 222// 0003 333 91208;
0078998252999992012010603004+44400-068200FM-18+0003ATGM1V0202301N005719999999N9999999N1-00371+99999100941REMSYN069CMAN  06034 ATGM1 46/// /2311 11037 40094 90236 222// 0003 333 91207;
0078998252999992012010604004+44400-068200FM-18+0003ATGM1V0202201N004619999999N9999999N1-00451+99999101011REMSYN069CMAN  06044 ATGM1 46/// /2209 11045 40101 90336 222// 0003 333 91207;
0078998252999992012010605004+44400-068200FM-18+0003ATGM1V0202301N006719999999N9999999N1-00481+99999100991REMSYN069CMAN  06054 ATGM1 46/// /2313 11048 40099 90436 222// 0003 333 91205;
0078998252999992012010606004+44400-068200FM-18+0003ATGM1V0202301N007219999999N9999999N1-00521+99999101051REMSYN069CMAN  06064 ATGM1 46/// /2314 11052 40105 90536 222// 0003 333 91204;
0078998252999992012010607004+44400-068200FM-18+0003ATGM1V0202301N007219999999N9999999N1-00571+99999101151REMSYN069CMAN  06074 ATGM1 46/// /2314 11057 40115 90636 222// 0003 333 91207;
0078998252999992012010608004+44400-068200FM-18+0003ATGM1V0202301N004619999999N9999999N1-00581+99999101201REMSYN069CMAN  06084 ATGM1 46/// /2309 11058 40120 90736 222// 0003 333 91207;
0078998252999992012010609004+44400-068200FM-18+0003ATGM1V0202001N003119999999N9999999N1-00661+99999101211REMSYN069CMAN  06094 ATGM1 46/// /2006 11066 40121 90836 222// 0003 333 91208;
0078998252999992012010610004+44400-068200FM-18+0003ATGM1V0202601N003619999999N9999999N1-00601+99999101251REMSYN069CMAN  06104 ATGM1 46/// /2607 11060 40125 90936 222// 0003 333 91204;
0078998252999992012010611004+44400-068200FM-18+0003ATGM1V0203001N002619999999N9999999N1-00651+99999101311REMSYN069CMAN  06114 ATGM1 46/// /3005 11065 40131 91036 222// 0003 333 91202;
0078998252999992012010612004+44400-068200FM-18+0003ATGM1V0203101N002619999999N9999999N1-00681+99999101391REMSYN069CMAN  06124 ATGM1 46/// /3105 11068 40139 91136 222// 0003 333 91202;
0078998252999992012010613004+44400-068200FM-18+0003ATGM1V0202801N001519999999N9999999N1-00671+99999101451REMSYN069CMAN  06134 ATGM1 46/// /2803 11067 40145 91236 222// 0002 333 91208;
0078998252999992012010614004+44400-068200FM-18+0003ATGM1V0200301N002119999999N9999999N1-00641+99999101511REMSYN069CMAN  06144 ATGM1 46/// /0304 11064 40151 91336 222// 0003 333 91205;
0078998252999992012010615004+44400-068200FM-18+0003ATGM1V0200401N002119999999N9999999N1-00641+99999101511REMSYN069CMAN  06154 ATGM1 46/// /0404 11064 40151 91436 222// 0003 333 91206;
0078998252999992012010616004+44400-068200FM-18+0003ATGM1V0200701N002619999999N9999999N1-00521+99999101441REMSYN069CMAN  06164 ATGM1 46/// /0705 11052 40144 91536 222// 0003 333 91204;
0078998252999992012010617004+44400-068200FM-18+0003ATGM1V0200201N004119999999N9999999N1-00471+99999101321REMSYN069CMAN  06174 ATGM1 46/// /0208 11047 40132 91636 222// 0003 333 91204;
0078998252999992012010618004+44400-068200FM-18+0003ATGM1V0200501N003619999999N9999999N1-00421+99999101201REMSYN069CMAN  06184 ATGM1 46/// /0507 11042 40120 91736 222// 0003 333 91205;
0078998252999992012010619004+44400-068200FM-18+0003ATGM1V0200301N005719999999N9999999N1-00411+99999101171REMSYN069CMAN  06194 ATGM1 46/// /0311 11041 40117 91836 222// 0003 333 91204;
0078998252999992012010620004+44400-068200FM-18+0003ATGM1V0200701N005119999999N9999999N1-00211+99999101091REMSYN069CMAN  06204 ATGM1 46/// /0710 11021 40109 91936 222// 0003 333 91206;
0068998252999992012010621004+44400-068200FM-18+0003ATGM1V0200901N003119999999N9999999N1-00131+99999101021REMSYN059CMAN  06214 ATGM1 46/// /0906 11013 40102 92036 222// 0003;
0078998252999992012010622004+44400-068200FM-18+0003ATGM1V0200901N002619999999N9999999N1-00031+99999100961REMSYN069CMAN  06224 ATGM1 46/// /0905 11003 40096 92136 222// 0003 333 91207;
0078998252999992012010623004+44400-068200FM-18+0003ATGM1V0200801N003119999999N9999999N1+00081+99999100891REMSYN069CMAN  06234 ATGM1 46/// /0806 10008 40089 92236 222// 0003 333 91204;
0078998252999992012010700004+44400-068200FM-18+0003ATGM1V0200801N004119999999N9999999N1+00161+99999100831REMSYN069CMAN  07004 ATGM1 46/// /0808 10016 40083 92336 222// 0003 333 91204;
0078998252999992012010701004+44400-068200FM-18+0003ATGM1V0201001N001519999999N9999999N1+00271+99999100771REMSYN069CMAN  07014 ATGM1 46/// /1003 10027 40077 90036 222// 0003 333 91205;
0078998252999992012010702004+44400-068200FM-18+0003ATGM1V0201501N001019999999N9999999N1+00401+99999100701REMSYN069CMAN  07024 ATGM1 46/// /1502 10040 40070 90136 222// 0003 333 91203;
0078998252999992012010703004+44400-068200FM-18+0003ATGM1V0202701N003619999999N9999999N1+00071+99999100711REMSYN069CMAN  07034 ATGM1 46/// /2707 10007 40071 90236 222// 0003 333 91202;
0078998252999992012010704004+44400-068200FM-18+0003ATGM1V0202501N003119999999N9999999N1+00011+99999100711REMSYN069CMAN  07044 ATGM1 46/// /2506 10001 40071 90336 222// 0003 333 91202;
0078998252999992012010705004+44400-068200FM-18+0003ATGM1V0202601N004119999999N9999999N1-00051+99999100651REMSYN069CMAN  07054 ATGM1 46/// /2608 11005 40065 90436 222// 0003 333 91202;
0078998252999992012010706004+44400-068200FM-18+0003ATGM1V0202501N003619999999N9999999N1-00061+99999100641REMSYN069CMAN  07064 ATGM1 46/// /2507 11006 40064 90536 222// 0003 333 91202;
0078998252999992012010707004+44400-068200FM-18+0003ATGM1V0202501N004119999999N9999999N1-00151+99999100691REMSYN069CMAN  07074 ATGM1 46/// /2508 11015 40069 90636 222// 0003 333 91202;
0078998252999992012010708004+44400-068200FM-18+0003ATGM1V0202401N003619999999N9999999N1-00201+99999100721REMSYN069CMAN  07084 ATGM1 46/// /2407 11020 40072 90736 222// 0003 333 91202;
0068998252999992012010709004+44400-068200FM-18+0003ATGM1V0202501N003119999999N9999999N1-00191+99999100731REMSYN059CMAN  07094 ATGM1 46/// /2506 11019 40073 90836 222// 0003;
0078998252999992012010710004+44400-068200FM-18+0003ATGM1V0202401N002619999999N9999999N1-00171+99999100771REMSYN069CMAN  07104 ATGM1 46/// /2405 11017 40077 90936 222// 0004 333 91204;
0078998252999992012010711004+44400-068200FM-18+0003ATGM1V0202401N001519999999N9999999N1-00141+99999100751REMSYN069CMAN  07114 ATGM1 46/// /2403 11014 40075 91036 222// 0004 333 91202;
0078998252999992012010712004+44400-068200FM-18+0003ATGM1V0202001N000519999999N9999999N1-00121+99999100761REMSYN069CMAN  07124 ATGM1 46/// /2001 11012 40076 91136 222// 0004 333 91202;
0078998252999992012010713004+44400-068200FM-18+0003ATGM1V0201001N001519999999N9999999N1-00081+99999100751REMSYN069CMAN  07134 ATGM1 46/// /1003 11008 40075 91236 222// 0004 333 91201;
0078998252999992012010714004+44400-068200FM-18+0003ATGM1V0201901N001019999999N9999999N1+00101+99999100821REMSYN069CMAN  07144 ATGM1 46/// /1902 10010 40082 91336 222// 0004 333 91202;
0078998252999992012010715004+44400-068200FM-18+0003ATGM1V0209999C000019999999N9999999N1+00161+99999100801REMSYN069CMAN  07154 ATGM1 46/// /0000 10016 40080 91436 222// 0004 333 91202;
0078998252999992012010716004+44400-068200FM-18+0003ATGM1V0202501N002119999999N9999999N1+00191+99999100731REMSYN069CMAN  07164 ATGM1 46/// /2504 10019 40073 91536 222// 0004 333 91203;
0078998252999992012010717004+44400-068200FM-18+0003ATGM1V0202601N001519999999N9999999N1+00191+99999100591REMSYN069CMAN  07174 ATGM1 46/// /2603 10019 40059 91636 222// 0004 333 91204;
0078998252999992012010718004+44400-068200FM-18+0003ATGM1V0202301N002119999999N9999999N1+00171+99999100491REMSYN069CMAN  07184 ATGM1 46/// /2304 10017 40049 91736 222// 0004 333 91204;
0078998252999992012010719004+44400-068200FM-18+0003ATGM1V0202401N001519999999N9999999N1+00241+99999100441REMSYN069CMAN  07194 ATGM1 46/// /2403 10024 40044 91836 222// 0004 333 91211;
0068998252999992012010720004+44400-068200FM-18+0003ATGM1V02099999999999999999N9999999N1+00331+99999100431REMSYN059CMAN  07204 ATGM1 46/// ///// 10033 40043 91936 222// 0007;
0068998252999992012010721004+44400-068200FM-18+0003ATGM1V0202801N001019999999N9999999N1+00311+99999100401REMSYN059CMAN  07214 ATGM1 46/// /2802 10031 40040 92036 222// 0004;
0078998252999992012010722004+44400-068200FM-18+0003ATGM1V0202401N003119999999N9999999N1+00311+99999100431REMSYN069CMAN  07224 ATGM1 46/// /2406 10031 40043 92136 222// 0004 333 91213;
0078998252999992012010723004+44400-068200FM-18+0003ATGM1V0202401N000519999999N9999999N1+00311+99999100461REMSYN069CMAN  07234 ATGM1 46/// /2401 10031 40046 92236 222// 0004 333 91216;
0078998252999992012010800004+44400-068200FM-18+0003ATGM1V0202301N003119999999N9999999N1+00241+99999100551REMSYN069CMAN  08004 ATGM1 46/// /2306 10024 40055 92336 222// 0004 333 91215;
0078998252999992012010801004+44400-068200FM-18+0003ATGM1V0202301N003119999999N9999999N1+00211+99999100561REMSYN069CMAN  08014 ATGM1 46/// /2306 10021 40056 90036 222// 0004 333 91210;
0078998252999992012010802004+44400-068200FM-18+0003ATGM1V0202401N004119999999N9999999N1+00151+99999100651REMSYN069CMAN  08024 ATGM1 46/// /2408 10015 40065 90136 222// 0004 333 91211;
0078998252999992012010803004+44400-068200FM-18+0003ATGM1V0202101N001519999999N9999999N1+00131+99999100671REMSYN069CMAN  08034 ATGM1 46/// /2103 10013 40067 90236 222// 0004 333 91206;
0078998252999992012010804004+44400-068200FM-18+0003ATGM1V0202301N002619999999N9999999N1+00121+99999100761REMSYN069CMAN  08044 ATGM1 46/// /2305 10012 40076 90336 222// 0004 333 91214;
0078998252999992012010805004+44400-068200FM-18+0003ATGM1V0202301N002619999999N9999999N1+00101+99999100791REMSYN069CMAN  08054 ATGM1 46/// /2305 10010 40079 90436 222// 0004 333 91210;
0068998252999992012010806004+44400-068200FM-18+0003ATGM1V0202101N001519999999N9999999N1+00161+99999100831REMSYN059CMAN  08064 ATGM1 46/// /2103 10016 40083 90536 222// 0004;
0078998252999992012010807004+44400-068200FM-18+0003ATGM1V0202101N004119999999N9999999N1+00271+99999100911REMSYN069CMAN  08074 ATGM1 46/// /2108 10027 40091 90636 222// 0004 333 91204;
0078998252999992012010808004+44400-068200FM-18+0003ATGM1V0202001N004619999999N9999999N1+00271+99999101001REMSYN069CMAN  08084 ATGM1 46/// /2009 10027 40100 90736 222// 0004 333 91202;
0068998252999992012010809004+44400-068200FM-18+0003ATGM1V0202101N002119999999N9999999N1+00191+99999101051REMSYN059CMAN  08094 ATGM1 46/// /2104 10019 40105 90836 222// 0004;
0078998252999992012010810004+44400-068200FM-18+0003ATGM1V0201901N003119999999N9999999N1+00171+99999101151REMSYN069CMAN  08104 ATGM1 46/// /1906 10017 40115 90936 222// 0004 333 91203;
0078998252999992012010811004+44400-068200FM-18+0003ATGM1V0201901N003619999999N9999999N1+00201+99999101241REMSYN069CMAN  08114 ATGM1 46/// /1907 10020 40124 91036 222// 0004 333 91205;
0078998252999992012010812004+44400-068200FM-18+0003ATGM1V0201901N003119999999N9999999N1+00211+99999101351REMSYN069CMAN  08124 ATGM1 46/// /1906 10021 40135 91136 222// 0004 333 91205;
0078998252999992012010813004+44400-068200FM-18+0003ATGM1V0202001N004619999999N9999999N1+00231+99999101451REMSYN069CMAN  08134 ATGM1 46/// /2009 10023 40145 91236 222// 0005 333 91203;
0078998252999992012010814004+44400-068200FM-18+0003ATGM1V0202001N004119999999N9999999N1+00231+99999101591REMSYN069CMAN  08144 ATGM1 46/// /2008 10023 40159 91336 222// 0004 333 91215;
0068998252999992012010815004+44400-068200FM-18+0003ATGM1V0202301N006219999999N9999999N1+00241+99999101691REMSYN059CMAN  08154 ATGM1 46/// /2312 10024 40169 91436 222// 0004;
0078998252999992012010816004+44400-068200FM-18+0003ATGM1V0202401N007219999999N9999999N1+00261+99999101701REMSYN069CMAN  08164 ATGM1 46/// /2414 10026 40170 91536 222// 0004 333 91209;
0078998252999992012010817004+44400-068200FM-18+0003ATGM1V0202601N008219999999N9999999N1+00281+99999101621REMSYN069CMAN  08174 ATGM1 46/// /2616 10028 40162 91636 222// 0004 333 91209;
0078998252999992012010818004+44400-068200FM-18+0003ATGM1V0202401N007719999999N9999999N1+00291+99999101651REMSYN069CMAN  08184 ATGM1 46/// /2415 10029 40165 91736 222// 0004 333 91206;
0078998252999992012010819004+44400-068200FM-18+0003ATGM1V0202601N004119999999N9999999N1+00311+99999101731REMSYN069CMAN  08194 ATGM1 46/// /2608 10031 40173 91836 222// 0004 333 91208;
0078998252999992012010820004+44400-068200FM-18+0003ATGM1V0202601N005719999999N9999999N1+00321+99999101791REMSYN069CMAN  08204 ATGM1 46/// /2611 10032 40179 91936 222// 0004 333 91212;
0078998252999992012010821004+44400-068200FM-18+0003ATGM1V0202901N002619999999N9999999N1+00251+99999101821REMSYN069CMAN  08214 ATGM1 46/// /2905 10025 40182 92036 222// 0004 333 91204;
0078998252999992012010822004+44400-068200FM-18+0003ATGM1V0202701N003119999999N9999999N1+00221+99999101921REMSYN069CMAN  08224 ATGM1 46/// /2706 10022 40192 92136 222// 0004 333 91204;
0078998252999992012010823004+44400-068200FM-18+0003ATGM1V0203101N003619999999N9999999N1+00061+99999102051REMSYN069CMAN  08234 ATGM1 46/// /3107 10006 40205 92236 222// 0004 333 91206;
0078998252999992012010900004+44400-068200FM-18+0003ATGM1V0202801N004619999999N9999999N1-00011+99999102151REMSYN069CMAN  09004 ATGM1 46/// /2809 11001 40215 92336 222// 0004 333 91205;
0078998252999992012010901004+44400-068200FM-18+0003ATGM1V0202601N005119999999N9999999N1-00061+99999102181REMSYN069CMAN  09014 ATGM1 46/// /2610 11006 40218 90036 222// 0004 333 91203;
0078998252999992012010902004+44400-068200FM-18+0003ATGM1V0202601N006219999999N9999999N1-00111+99999102201REMSYN069CMAN  09024 ATGM1 46/// /2612 11011 40220 90136 222// 0004 333 91204;
0078998252999992012010903004+44400-068200FM-18+0003ATGM1V0202701N006219999999N9999999N1-00161+99999102221REMSYN069CMAN  09034 ATGM1 46/// /2712 11016 40222 90236 222// 0003 333 91205;
0068998252999992012010904004+44400-068200FM-18+0003ATGM1V0202601N007219999999N9999999N1-00191+99999102241REMSYN059CMAN  09044 ATGM1 46/// /2614 11019 40224 90336 222// 0003;
0078998252999992012010905004+44400-068200FM-18+0003ATGM1V0202601N007719999999N9999999N1-00261+99999102241REMSYN069CMAN  09054 ATGM1 46/// /2615 11026 40224 90436 222// 0003 333 91205;
0078998252999992012010906004+44400-068200FM-18+0003ATGM1V0202601N005119999999N9999999N1-00321+99999102261REMSYN069CMAN  09064 ATGM1 46/// /2610 11032 40226 90536 222// 0003 333 91206;
0068998252999992012010907004+44400-068200FM-18+0003ATGM1V0202501N006219999999N9999999N1-00351+99999102341REMSYN059CMAN  09074 ATGM1 46/// /2512 11035 40234 90636 222// 0003;
0068998252999992012010908004+44400-068200FM-18+0003ATGM1V0202601N006219999999N9999999N1-00441+99999102351REMSYN059CMAN  09084 ATGM1 46/// /2612 11044 40235 90736 222// 0003;
0078998252999992012010909004+44400-068200FM-18+0003ATGM1V0202601N006219999999N9999999N1-00461+99999102351REMSYN069CMAN  09094 ATGM1 46/// /2612 11046 40235 90836 222// 0003 333 91207;
0078998252999992012010910004+44400-068200FM-18+0003ATGM1V0202501N007719999999N9999999N1-00551+99999102381REMSYN069CMAN  09104 ATGM1 46/// /2515 11055 40238 90936 222// 0003 333 91204;
0000998252999992012010911004+44400-068200FM-18+0003ATGM1V0202501N006719999999N9999999N1-00621+99999102411
0078998252999992012010912004+44400-068200FM-18+0003ATGM1V0202301N005719999999N9999999N1-00711+99999102451REMSYN069CMAN  09124 ATGM1 46/// /2311 11071 40245 91136 222// 0003 333 91204;
0078998252999992012010913004+44400-068200FM-18+0003ATGM1V0202101N002619999999N9999999N1-00741+99999102441REMSYN069CMAN  09134 ATGM1 46/// /2105 11074 40244 91236 222// 0003 333 91203;
0078998252999992012010914004+44400-068200FM-18+0003ATGM1V0202801N003119999999N9999999N1-00611+99999102471REMSYN069CMAN  09144 ATGM1 46/// /2806 11061 40247 91336 222// 0003 333 91202;
0068998252999992012010915004+44400-068200FM-18+0003ATGM1V0202701N002119999999N9999999N1-00571+99999102461REMSYN059CMAN  09154 ATGM1 46/// /2704 11057 40246 91436 222// 0003;
0000998252999992012010916004+44400-068200FM-18+0003ATGM1V0202501N003119999999N9999999N1-00471+99999102381
0078998252999992012010917004+44400-068200FM-18+0003ATGM1V0202501N003619999999N9999999N1-00351+99999102251REMSYN069CMAN  09174 ATGM1 46/// /2507 11035 40225 91636 222// 0003 333 91204;
0078998252999992012010918004+44400-068200FM-18+0003ATGM1V0202201N003119999999N9999999N1-00251+99999102161REMSYN069CMAN  09184 ATGM1 46/// /2206 11025 40216 91736 222// 0003 333 91203;
0078998252999992012010919004+44400-068200FM-18+0003ATGM1V0200701N002619999999N9999999N1-00211+99999102101REMSYN069CMAN  09194 ATGM1 46/// /0705 11021 40210 91836 222// 0003 333 91203;
0078998252999992012010920004+44400-068200FM-18+0003ATGM1V0203601N001519999999N9999999N1-00161+99999102051REMSYN069CMAN  09204 ATGM1 46/// /3603 11016 40205 91936 222// 0003 333 91202;
0078998252999992012010921004+44400-068200FM-18+0003ATGM1V0201801N002119999999N9999999N1-00141+99999102021REMSYN069CMAN  09214 ATGM1 46/// /1804 11014 40202 92036 222// 0003 333 91202;
0078998252999992012010922004+44400-068200FM-18+0003ATGM1V0201401N001019999999N9999999N1-00221+99999101991REMSYN069CMAN  09224 ATGM1 46/// /1402 11022 40199 92136 222// 0003 333 91205;
0078998252999992012010923004+44400-068200FM-18+0003ATGM1V0201001N001019999999N9999999N1-00231+99999101991REMSYN069CMAN  09234 ATGM1 46/// /1002 11023 40199 92236 222// 0003 333 91203;
0078998252999992012011000004+44400-068200FM-18+0003ATGM1V0201101N001019999999N9999999N1-00191+99999101921REMSYN069CMAN  10004 ATGM1 46/// /1102 11019 40192 92336 222// 0003 333 91204;
0078998252999992012011001004+44400-068200FM-18+0003ATGM1V0201601N002119999999N9999999N1-00031+99999101851REMSYN069CMAN  10014 ATGM1 46/// /1604 11003 40185 90036 222// 0004 333 91204;
0078998252999992012011002004+44400-068200FM-18+0003ATGM1V0201701N003619999999N9999999N1+00081+99999101781REMSYN069CMAN  10024 ATGM1 46/// /1707 10008 40178 90136 222// 0004 333 91205;
0078998252999992012011003004+44400-068200FM-18+0003ATGM1V0201801N001019999999N9999999N1+00131+99999101691REMSYN069CMAN  10034 ATGM1 46/// /1802 10013 40169 90236 222// 0004 333 91204;
0068998252999992012011004004+44400-068200FM-18+0003ATGM1V0201801N001519999999N9999999N1+00051+99999101611REMSYN059CMAN  10044 ATGM1 46/// /1803 10005 40161 90336 222// 0004;
0068998252999992012011005004+44400-068200FM-18+0003ATGM1V0202101N000519999999N9999999N1+00051+99999101481REMSYN059CMAN  10054 ATGM1 46/// /2101 10005 40148 90436 222// 0003;
0078998252999992012011006004+44400-068200FM-18+0003ATGM1V0202001N001519999999N9999999N1+00151+99999101361REMSYN069CMAN  10064 ATGM1 46/// /2003 10015 40136 90536 222// 0004 333 91204;
0068998252999992012011007004+44400-068200FM-18+0003ATGM1V0201801N004119999999N9999999N1+00281+99999101271REMSYN059CMAN  10074 ATGM1 46/// /1808 10028 40127 90636 222// 0004;
0078998252999992012011008004+44400-068200FM-18+0003ATGM1V0201801N004619999999N9999999N1+00321+99999101201REMSYN069CMAN  10084 ATGM1 46/// /1809 10032 40120 90736 222// 0003 333 91203;
0068998252999992012011009004+44400-068200FM-18+0003ATGM1V0201701N001519999999N9999999N1+00331+99999101101REMSYN059CMAN  10094 ATGM1 46/// /1703 10033 40110 90836 222// 0004;
0078998252999992012011010004+44400-068200FM-18+0003ATGM1V0201701N004619999999N9999999N1+00351+99999101051REMSYN069CMAN  10104 ATGM1 46/// /1709 10035 40105 90936 222// 0004 333 91205;
0078998252999992012011011004+44400-068200FM-18+0003ATGM1V0201501N003619999999N9999999N1+00351+99999101001REMSYN069CMAN  10114 ATGM1 46/// /1507 10035 40100 91036 222// 0004 333 91205;
0078998252999992012011012004+44400-068200FM-18+0003ATGM1V0201801N005119999999N9999999N1+00371+99999100921REMSYN069CMAN  10124 ATGM1 46/// /1810 10037 40092 91136 222// 0004 333 91206;
0068998252999992012011013004+44400-068200FM-18+0003ATGM1V0201701N002119999999N9999999N1+00351+99999100851REMSYN059CMAN  10134 ATGM1 46/// /1704 10035 40085 91236 222// 0004;
0078998252999992012011014004+44400-068200FM-18+0003ATGM1V0201301N004119999999N9999999N1+00301+99999100801REMSYN069CMAN  10144 ATGM1 46/// /1308 10030 40080 91336 222// 0004 333 91202;
0068998252999992012011015004+44400-068200FM-18+0003ATGM1V0201701N003619999999N9999999N1+00271+99999100811REMSYN059CMAN  10154 ATGM1 46/// /1707 10027 40081 91436 222// 0004;
0078998252999992012011016004+44400-068200FM-18+0003ATGM1V0201601N005119999999N9999999N1+00281+99999100721REMSYN069CMAN  10164 ATGM1 46/// /1610 10028 40072 91536 222// 0004 333 91202;
0078998252999992012011017004+44400-068200FM-18+0003ATGM1V0201601N002619999999N9999999N1+00321+99999100601REMSYN069CMAN  10174 ATGM1 46/// /1605 10032 40060 91636 222// 0004 333 91203;
0078998252999992012011018004+44400-068200FM-18+0003ATGM1V0201901N005719999999N9999999N1+00371+99999100491REMSYN069CMAN  10184 ATGM1 46/// /1911 10037 40049 91736 222// 0004 333 91205;
0078998252999992012011019004+44400-068200FM-18+0003ATGM1V0202201N004119999999N9999999N1+00361+99999100451REMSYN069CMAN  10194 ATGM1 46/// /2208 10036 40045 91836 222// 0004 333 91203;
0078998252999992012011020004+44400-068200FM-18+0003ATGM1V0201901N004119999999N9999999N1+00361+99999100461REMSYN069CMAN  10204 ATGM1 46/// /1908 10036 40046 91936 222// 0004 333 91205;
0078998252999992012011021004+44400-068200FM-18+0003ATGM1V0202101N003619999999N9999999N1+00371+99999100461REMSYN069CMAN  10214 ATGM1 46/// /2107 10037 40046 92036 222// 0004 333 91205;
0078998252999992012011022004+44400-068200FM-18+0003ATGM1V0202001N004119999999N9999999N1+00301+99999100501REMSYN069CMAN  10224 ATGM1 46/// /2008 10030 40050 92136 222// 0004 333 91205;
0068998252999992012011023004+44400-068200FM-18+0003ATGM1V0202101N003619999999N9999999N1+00261+99999100611REMSYN059CMAN  10234 ATGM1 46/// /2107 10026 40061 92236 222// 0004;
0078998252999992012011100004+44400-068200FM-18+0003ATGM1V0202101N004619999999N9999999N1+00251+99999100681REMSYN069CMAN  11004 ATGM1 46/// /2109 10025 40068 92336 222// 0004 333 91205;
0078998252999992012011101004+44400-068200FM-18+0003ATGM1V0202101N004619999999N9999999N1+00221+99999100761REMSYN069CMAN  11014 ATGM1 46/// /2109 10022 40076 90036 222// 0004 333 91206;
0078998252999992012011102004+44400-068200FM-18+0003ATGM1V0202101N003119999999N9999999N1+00241+99999100811REMSYN069CMAN  11024 ATGM1 46/// /2106 10024 40081 90136 222// 0004 333 91204;
0078998252999992012011103004+44400-068200FM-18+0003ATGM1V0202301N009319999999N9999999N1+00181+99999100851REMSYN069CMAN  11034 ATGM1 46/// /2318 10018 40085 90236 222// 0004 333 91205;
0078998252999992012011104004+44400-068200FM-18+0003ATGM1V0202301N009819999999N9999999N1+00041+99999100951REMSYN069CMAN  11044 ATGM1 46/// /2319 10004 40095 90336 222// 0003 333 91203;
0068998252999992012011105004+44400-068200FM-18+0003ATGM1V0202701N008719999999N9999999N1-00151+99999101121REMSYN059CMAN  11054 ATGM1 46/// /2717 11015 40112 90436 222// 0004;
0078998252999992012011106004+44400-068200FM-18+0003ATGM1V0202801N006719999999N9999999N1-00401+99999101251REMSYN069CMAN  11064 ATGM1 46/// /2813 11040 40125 90536 222// 0003 333 91202;
0078998252999992012011107004+44400-068200FM-18+0003ATGM1V0202601N008219999999N9999999N1-00541+99999101391REMSYN069CMAN  11074 ATGM1 46/// /2616 11054 40139 90636 222// 0003 333 91205;
0078998252999992012011108004+44400-068200FM-18+0003ATGM1V0202601N008719999999N9999999N1-00651+99999101511REMSYN069CMAN  11084 ATGM1 46/// /2617 11065 40151 90736 222// 0003 333 91204;
0078998252999992012011109004+44400-068200FM-18+0003ATGM1V0202601N008219999999N9999999N1-00741+99999101591REMSYN069CMAN  11094 ATGM1 46/// /2616 11074 40159 90836 222// 0003 333 91200;
0078998252999992012011110004+44400-068200FM-18+0003ATGM1V0202701N008219999999N9999999N1-00811+99999101681REMSYN069CMAN  11104 ATGM1 46/// /2716 11081 40168 90936 222// 0003 333 91203;
0078998252999992012011111004+44400-068200FM-18+0003ATGM1V0202701N006219999999N9999999N1-00851+99999101771REMSYN069CMAN  11114 ATGM1 46/// /2712 11085 40177 91036 222// 0003 333 91202;
0078998252999992012011112004+44400-068200FM-18+0003ATGM1V0202701N007719999999N9999999N1-00951+99999101871REMSYN069CMAN  11124 ATGM1 46/// /2715 11095 40187 91136 222// 0003 333 91201;
0078998252999992012011113004+44400-068200FM-18+0003ATGM1V0202801N006219999999N9999999N1-01021+99999101991REMSYN069CMAN  11134 ATGM1 46/// /2812 11102 40199 91236 222// 0002 333 91203;
0078998252999992012011114004+44400-068200FM-18+0003ATGM1V0202801N005719999999N9999999N1-01021+99999102061REMSYN069CMAN  11144 ATGM1 46/// /2811 11102 40206 91336 222// 0003 333 91202;
0068998252999992012011115004+44400-068200FM-18+0003ATGM1V0202801N006219999999N9999999N1-01001+99999102091REMSYN059CMAN  11154 ATGM1 46/// /2812 11100 40209 91436 222// 0003;
0068998252999992012011116004+44400-068200FM-18+0003ATGM1V0202901N006219999999N9999999N1-00961+99999102111REMSYN059CMAN  11164 ATGM1 46/// /2912 11096 40211 91536 222// 0003;
0078998252999992012011117004+44400-068200FM-18+0003ATGM1V0202801N003619999999N9999999N1-00831+99999102011REMSYN069CMAN  11174 ATGM1 46/// /2807 11083 40201 91636 222// 0002 333 91202;
0078998252999992012011118004+44400-068200FM-18+0003ATGM1V0202601N004619999999N9999999N1-00751+99999102041REMSYN069CMAN  11184 ATGM1 46/// /2609 11075 40204 91736 222// 0002 333 91202;
0000998252999992012011119004+44400-068200FM-18+0003ATGM1V0202401N004619999999N9999999N1-00691+99999102151
0068998252999992012011120004+44400-068200FM-18+0003ATGM1V0202901N003619999999N9999999N1-00611+99999102121REMSYN059CMAN  11204 ATGM1 46/// /2907 11061 40212 91936 222// 0002;
0078998252999992012011121004+44400-068200FM-18+0003ATGM1V0203001N003119999999N9999999N1-00591+99999102151REMSYN069CMAN  11214 ATGM1 46/// /3006 11059 40215 92036 222// 0002 333 91203;
0078998252999992012011122004+44400-068200FM-18+0003ATGM1V0202801N002619999999N9999999N1-00591+99999102311REMSYN069CMAN  11224 ATGM1 46/// /2805 11059 40231 92136 222// 0002 333 91203;
0078998252999992012011123004+44400-068200FM-18+0003ATGM1V0202801N002119999999N9999999N1-00581+99999102321REMSYN069CMAN  11234 ATGM1 46/// /2804 11058 40232 92236 222// 0002 333 91205;
0068998252999992012011200004+44400-068200FM-18+0003ATGM1V0203201N003119999999N9999999N1-00601+99999102311REMSYN059CMAN  12004 ATGM1 46/// /3206 11060 40231 92336 222// 0002;
0078998252999992012011201004+44400-068200FM-18+0003ATGM1V0203601N004619999999N9999999N1-00641+99999102311REMSYN069CMAN  12014 ATGM1 46/// /3609 11064 40231 90036 222// 0002 333 91204;
0078998252999992012011202004+44400-068200FM-18+0003ATGM1V0200101N003619999999N9999999N1-00671+99999102321REMSYN069CMAN 12024 ATGM1 46/// /0107 11067 40232 90136 222// 00031 333 91210;
0068998252999992012011203004+44400-068200FM-18+0003ATGM1V0200301N004119999999N9999999N1-00721+99999102341REMSYN059CMAN  12034 ATGM1 46/// /0308 11072 40234 90236 222// 0002;
0078998252999992012011204004+44400-068200FM-18+0003ATGM1V0200201N002619999999N9999999N1-00721+99999102321REMSYN069CMAN  12044 ATGM1 46/// /0205 11072 40232 90336 222// 0003 333 91206;
0078998252999992012011205004+44400-068200FM-18+0003ATGM1V0203601N003119999999N9999999N1-00721+99999102331REMSYN069CMAN  12054 ATGM1 46/// /3606 11072 40233 90436 222// 0003 333 91205;
0078998252999992012011206004+44400-068200FM-18+0003ATGM1V0200101N002119999999N9999999N1-00701+99999102331REMSYN069CMAN  12064 ATGM1 46/// /0104 11070 40233 90536 222// 0003 333 91203;
0068998252999992012011207004+44400-068200FM-18+0003ATGM1V0200101N001519999999N9999999N1-00701+99999102401REMSYN059CMAN  12074 ATGM1 46/// /0103 11070 40240 90636 222// 0002;
0078998252999992012011208004+44400-068200FM-18+0003ATGM1V0200101N002119999999N9999999N1-00681+99999102281REMSYN069CMAN  12084 ATGM1 46/// /0104 11068 40228 90736 222// 0002 333 91202;
0078998252999992012011209004+44400-068200FM-18+0003ATGM1V0200101N002619999999N9999999N1-00711+99999102281REMSYN069CMAN  12094 ATGM1 46/// /0105 11071 40228 90836 222// 0002 333 91204;
0078998252999992012011210004+44400-068200FM-18+0003ATGM1V0200101N002619999999N9999999N1-00711+99999102241REMSYN069CMAN  12104 ATGM1 46/// /0105 11071 40224 90936 222// 0002 333 91204;
0068998252999992012011211004+44400-068200FM-18+0003ATGM1V0200101N002619999999N9999999N1-00641+99999102171REMSYN059CMAN  12114 ATGM1 46/// /0105 11064 40217 91036 222// 0002;
0068998252999992012011212004+44400-068200FM-18+0003ATGM1V0200401N002619999999N9999999N1-00571+99999102151REMSYN059CMAN  12124 ATGM1 46/// /0405 11057 40215 91136 222// 0002;
0078998252999992012011213004+44400-068200FM-18+0003ATGM1V0200101N006719999999N9999999N1-00511+99999102021REMSYN069CMAN  12134 ATGM1 46/// /0113 11051 40202 91236 222// 0002 333 91206;
0078998252999992012011214004+44400-068200FM-18+0003ATGM1V0200101N006219999999N9999999N1-00371+99999101981REMSYN069CMAN  12144 ATGM1 46/// /0112 11037 40198 91336 222// 0002 333 91203;
0078998252999992012011215004+44400-068200FM-18+0003ATGM1V0200101N007219999999N9999999N1-00241+99999101851REMSYN069CMAN  12154 ATGM1 46/// /0114 11024 40185 91436 222// 0002 333 91203;
0078998252999992012011216004+44400-068200FM-18+0003ATGM1V0200501N010819999999N9999999N1+00151+99999101711REMSYN069CMAN  12164 ATGM1 46/// /0521 10015 40171 91536 222// 0002 333 91200;
0068998252999992012011217004+44400-068200FM-18+0003ATGM1V0200501N010319999999N9999999N1+00031+99999101521REMSYN059CMAN  12174 ATGM1 46/// /0520 10003 40152 91636 222// 0002;
0078998252999992012011218004+44400-068200FM-18+0003ATGM1V0200301N012919999999N9999999N1-00041+99999101261REMSYN069CMAN  12184 ATGM1 46/// /0325 11004 40126 91736 222// 0002 333 91207;
0068998252999992012011219004+44400-068200FM-18+0003ATGM1V0200301N014419999999N9999999N1-00031+99999101051REMSYN059CMAN  12194 ATGM1 46/// /0328 11003 40105 91836 222// 0003;
0068998252999992012011220004+44400-068200FM-18+0003ATGM1V0200401N013919999999N9999999N1-00021+99999100931REMSYN059CMAN  12204 ATGM1 46/// /0427 11002 40093 91936 222// 0002;
0078998252999992012011221004+44400-068200FM-18+0003ATGM1V0200401N014919999999N9999999N1-00031+99999100841REMSYN069CMAN  12214 ATGM1 46/// /0429 11003 40084 92036 222// 0003 333 91206;
0078998252999992012011222004+44400-068200FM-18+0003ATGM1V0200301N014919999999N9999999N1-00021+99999100691REMSYN069CMAN  12224 ATGM1 46/// /0329 11002 40069 92136 222// 0002 333 91205;
0078998252999992012011223004+44400-068200FM-18+0003ATGM1V0200201N010819999999N9999999N1-00021+99999100571REMSYN069CMAN  12234 ATGM1 46/// /0221 11002 40057 92236 222// 0003 333 91205;
0078998252999992012011300004+44400-068200FM-18+0003ATGM1V0200301N011319999999N9999999N1+00001+99999100441REMSYN069CMAN  13004 ATGM1 46/// /0322 10000 40044 92336 222// 0002 333 91202;
0078998252999992012011301004+44400-068200FM-18+0003ATGM1V0200301N008719999999N9999999N1+00081+99999100311REMSYN069CMAN  13014 ATGM1 46/// /0317 10008 40031 90036 222// 0002 333 91207;
0068998252999992012011302004+44400-068200FM-18+0003ATGM1V0200401N007719999999N9999999N1+00171+99999100181REMSYN059CMAN  13024 ATGM1 46/// /0415 10017 40018 90136 222// 0003;
0079998252999992012011303004+44400-068200FM-18+0003ATGM1V0200201N005719999999N9999999N1+00191+99999100081REMSYN070CMAN  13034 ATGM1 46/// /0211 10019 40008 90236 222// 000355 TIDE1143;
0068998252999992012011304004+44400-068200FM-18+0003ATGM1V0203501N003119999999N9999999N1+00171+99999099941REMSYN059CMAN  13044 ATGM1 46/// /3506 10017 49994 90336 222// 0004;
0078998252999992012011305004+44400-068200FM-18+0003ATGM1V0203501N003119999999N9999999N1+00151+99999099831REMSYN069CMAN  13054 ATGM1 46/// /3506 10015 49983 90436 222// 0004 333 91202;
0078998252999992012011306004+44400-068200FM-18+0003ATGM1V0203101N003119999999N9999999N1+00171+99999099781REMSYN069CMAN  13064 ATGM1 46/// /3106 10017 49978 90536 222// 0004 333 91203;
0078998252999992012011307004+44400-068200FM-18+0003ATGM1V0202701N004119999999N9999999N1+00181+99999099861REMSYN069CMAN  13074 ATGM1 46/// /2708 10018 49986 90636 222// 0003 333 91205;
0078998252999992012011308004+44400-068200FM-18+0003ATGM1V0202601N005119999999N9999999N1-00151+99999099941REMSYN069CMAN  13084 ATGM1 46/// /2610 11015 49994 90736 222// 0003 333 91203;
0078998252999992012011309004+44400-068200FM-18+0003ATGM1V0202501N004119999999N9999999N1-00171+99999099971REMSYN069CMAN  13094 ATGM1 46/// /2508 11017 49997 90836 222// 0003 333 91201;
0078998252999992012011310004+44400-068200FM-18+0003ATGM1V0202601N003119999999N9999999N1-00181+99999099961REMSYN069CMAN  13104 ATGM1 46/// /2606 11018 49996 90936 222// 0003 333 91203;
0078998252999992012011311004+44400-068200FM-18+0003ATGM1V0202301N002119999999N9999999N1-00191+99999100011REMSYN069CMAN  13114 ATGM1 46/// /2304 11019 40001 91036 222// 0003 333 91204;
0068998252999992012011312004+44400-068200FM-18+0003ATGM1V0202501N001519999999N9999999N1-00171+99999100081REMSYN059CMAN  13124 ATGM1 46/// /2503 11017 40008 91136 222// 0003;
0000998252999992012011313004+44400-068200FM-18+0003ATGM1V0202801N000519999999N9999999N1-00141+99999100001
0078998252999992012011314004+44400-068200FM-18+0003ATGM1V0200901N001019999999N9999999N1+00101+99999099871REMSYN069CMAN  13144 ATGM1 46/// /0902 10010 49987 91424 222// 0004 333 91205;
0078998252999992012011315004+44400-068200FM-18+0003ATGM1V0200701N002119999999N9999999N1+00121+99999099791REMSYN069CMAN  13154 ATGM1 46/// /0704 10012 49979 91436 222// 0004 333 91200;
0078998252999992012011316004+44400-068200FM-18+0003ATGM1V0200501N003119999999N9999999N1+00241+99999099581REMSYN069CMAN  13164 ATGM1 46/// /0506 10024 49958 91536 222// 0004 333 91201;
0068998252999992012011317004+44400-068200FM-18+0003ATGM1V0200801N003119999999N9999999N1+00451+99999099381REMSYN059CMAN  13174 ATGM1 46/// /0806 10045 49938 91636 222// 0004;
0068998252999992012011318004+44400-068200FM-18+0003ATGM1V0200701N005119999999N9999999N1+00501+99999099061REMSYN059CMAN  13184 ATGM1 46/// /0710 10050 49906 91736 222// 0004;
0068998252999992012011319004+44400-068200FM-18+0003ATGM1V0201101N002119999999N9999999N1+00571+99999098761REMSYN059CMAN  13194 ATGM1 46/// /1104 10057 49876 91836 222// 0004;
0068998252999992012011320004+44400-068200FM-18+0003ATGM1V0201101N004619999999N9999999N1+00821+99999098551REMSYN059CMAN  13204 ATGM1 46/// /1109 10082 49855 91936 222// 0003;
0068998252999992012011321004+44400-068200FM-18+0003ATGM1V0201301N009319999999N9999999N1+00881+99999098511REMSYN059CMAN  13214 ATGM1 46/// /1318 10088 49851 92036 222// 0004;
0078998252999992012011322004+44400-068200FM-18+0003ATGM1V0201701N006719999999N9999999N1+00671+99999098581REMSYN069CMAN  13224 ATGM1 46/// /1713 10067 49858 92136 222// 0004 333 91204;
0078998252999992012011323004+44400-068200FM-18+0003ATGM1V0201701N005719999999N9999999N1+00531+99999098651REMSYN069CMAN  13234 ATGM1 46/// /1711 10053 49865 92236 222// 0004 333 91204;
0068998252999992012011400004+44400-068200FM-18+0003ATGM1V0201901N008219999999N9999999N1+00441+99999098681REMSYN059CMAN  14004 ATGM1 46/// /1916 10044 49868 92336 222// 0004;
0077998252999992012011401004+44400-068200FM-18+0003ATGM1V0201801N008219999999N9999999N1+00351+99999098731REMSYN068CMAN  14014 ATGM1 46/// /1816 10035 49873 90036 222// 0004010 22274;
0078998252999992012011402004+44400-068200FM-18+0003ATGM1V0201801N010819999999N9999999N1+00191+99999098811REMSYN069CMAN  14024 ATGM1 46/// /1821 10019 49881 90136 222// 0004 333 91201;
0078998252999992012011403004+44400-068200FM-18+0003ATGM1V0202001N008219999999N9999999N1+00041+99999098891REMSYN069CMAN  14034 ATGM1 46/// /2016 10004 49889 90236 222// 0004 333 91202;
0000998252999992012011404004+44400-068200FM-18+0003ATGM1V0201901N008719999999N9999999N1-00011+99999099011
0078998252999992012011405004+44400-068200FM-18+0003ATGM1V0201901N007719999999N9999999N1-00101+99999099111REMSYN069CMAN  14054 ATGM1 46/// /1915 11010 49911 90436 222// 0004 333 91202;
0078998252999992012011406004+44400-068200FM-18+0003ATGM1V0201901N009319999999N9999999N1-00021+99999099221REMSYN069CMAN  14064 ATGM1 46/// /1918 11002 49922 90536 222// 0004 333 91204;
0078998252999992012011407004+44400-068200FM-18+0003ATGM1V0202001N008219999999N9999999N1+00031+99999099441REMSYN069CMAN  14074 ATGM1 46/// /2016 10003 49944 90636 222// 0004 333 91201;
0078998252999992012011408004+44400-068200FM-18+0003ATGM1V0201901N006719999999N9999999N1+00031+99999099601REMSYN069CMAN  14084 ATGM1 46/// /1913 10003 49960 90736 222// 0004 333 91204;
0078998252999992012011409004+44400-068200FM-18+0003ATGM1V0202101N006219999999N9999999N1+00041+99999099741REMSYN069CMAN  14094 ATGM1 46/// /2112 10004 49974 90836 222// 0004 333 91204;
0078998252999992012011410004+44400-068200FM-18+0003ATGM1V0202201N006219999999N9999999N1+00051+99999099891REMSYN069CMAN  14104 ATGM1 46/// /2212 10005 49989 90936 222// 0004 333 91205;
0078998252999992012011411004+44400-068200FM-18+0003ATGM1V0202101N004619999999N9999999N1+00001+99999100031REMSYN069CMAN  14114 ATGM1 46/// /2109 10000 40003 91036 222// 0004 333 91206;
0078998252999992012011412004+44400-068200FM-18+0003ATGM1V0202301N006719999999N9999999N1-00101+99999100121REMSYN069CMAN  14124 ATGM1 46/// /2313 11010 40012 91136 222// 0004 333 91204;
0078998252999992012011413004+44400-068200FM-18+0003ATGM1V0202201N007719999999N9999999N1-00211+99999100241REMSYN069CMAN  14134 ATGM1 46/// /2215 11021 40024 91236 222// 0004 333 91204;
0078998252999992012011414004+44400-068200FM-18+0003ATGM1V0202201N004619999999N9999999N1-00291+99999100371REMSYN069CMAN  14144 ATGM1 46/// /2209 11029 40037 91336 222// 0003 333 91203;
0068998252999992012011415004+44400-068200FM-18+0003ATGM1V0202401N008719999999N9999999N1-00371+99999100441REMSYN059CMAN  14154 ATGM1 46/// /2417 11037 40044 91436 222// 0003;
0078998252999992012011416004+44400-068200FM-18+0003ATGM1V0202301N008719999999N9999999N1-00431+99999100461REMSYN069CMAN  14164 ATGM1 46/// /2317 11043 40046 91536 222// 0003 333 91201;
0078998252999992012011417004+44400-068200FM-18+0003ATGM1V0202401N008219999999N9999999N1-00441+99999100421REMSYN069CMAN  14174 ATGM1 46/// /2416 11044 40042 91636 222// 0004 333 91202;
0078998252999992012011418004+44400-068200FM-18+0003ATGM1V0202501N009819999999N9999999N1-00461+99999100411REMSYN069CMAN  14184 ATGM1 46/// /2519 11046 40041 91736 222// 0003 333 91202;
0068998252999992012011419004+44400-068200FM-18+0003ATGM1V0202601N009819999999N9999999N1-00501+99999100441REMSYN059CMAN  14194 ATGM1 46/// /2619 11050 40044 91836 222// 0003;
0068998252999992012011420004+44400-068200FM-18+0003ATGM1V0202701N007719999999N9999999N1-00531+99999100511REMSYN059CMAN  14204 ATGM1 46/// /2715 11053 40051 91936 222// 0003;
0068998252999992012011421004+44400-068200FM-18+0003ATGM1V0202601N008719999999N9999999N1-00571+99999100611REMSYN059CMAN  14214 ATGM1 46/// /2617 11057 40061 92036 222// 0003;
0078998252999992012011422004+44400-068200FM-18+0003ATGM1V0202401N007219999999N9999999N1-00611+99999100731REMSYN069CMAN  14224 ATGM1 46/// /2414 11061 40073 92136 222// 0003 333 91206;
0068998252999992012011423004+44400-068200FM-18+0003ATGM1V0202501N008719999999N9999999N1-00681+99999100831REMSYN059CMAN  14234 ATGM1 46/// /2517 11068 40083 92236 222// 0003;
0078998252999992012011500004+44400-068200FM-18+0003ATGM1V0202601N009319999999N9999999N1-00841+99999100941REMSYN069CMAN  15004 ATGM1 46/// /2618 11084 40094 92336 222// 0003 333 91205;
0078998252999992012011501004+44400-068200FM-18+0003ATGM1V0202501N009319999999N9999999N1-01021+99999101051REMSYN069CMAN  15014 ATGM1 46/// /2518 11102 40105 90036 222// 0002 333 91204;
0078998252999992012011502004+44400-068200FM-18+0003ATGM1V0202401N010319999999N9999999N1-01191+99999101151REMSYN069CMAN  15024 ATGM1 46/// /2420 11119 40115 90136 222// 0002 333 91206;
0068998252999992012011503004+44400-068200FM-18+0003ATGM1V0202401N009319999999N9999999N1-01271+99999101231REMSYN059CMAN  15034 ATGM1 46/// /2418 11127 40123 90236 222// 0002;
0078998252999992012011504004+44400-068200FM-18+0003ATGM1V0202601N007219999999N9999999N1-01391+99999101351REMSYN069CMAN  15044 ATGM1 46/// /2614 11139 40135 90336 222// 0002 333 91203;
0078998252999992012011505004+44400-068200FM-18+0003ATGM1V0202601N008219999999N9999999N1-01461+99999101411REMSYN069CMAN  15054 ATGM1 46/// /2616 11146 40141 90436 222// 0002 333 91204;
0078998252999992012011506004+44400-068200FM-18+0003ATGM1V0202601N009319999999N9999999N1-01481+99999101451REMSYN069CMAN  15064 ATGM1 46/// /2618 11148 40145 90536 222// 0002 333 91202;
0078998252999992012011507004+44400-068200FM-18+0003ATGM1V0202701N009319999999N9999999N1-01551+99999101561REMSYN069CMAN  15074 ATGM1 46/// /2718 11155 40156 90636 222// 0001 333 91202;
0068998252999992012011508004+44400-068200FM-18+0003ATGM1V0202601N007719999999N9999999N1-01571+99999101631REMSYN059CMAN  15084 ATGM1 46/// /2615 11157 40163 90736 222// 0002;
0078998252999992012011509004+44400-068200FM-18+0003ATGM1V0202601N008719999999N9999999N1-01601+99999101701REMSYN069CMAN  15094 ATGM1 46/// /2617 11160 40170 90836 222// 0001 333 91205;
0078998252999992012011510004+44400-068200FM-18+0003ATGM1V0202601N008719999999N9999999N1-01631+99999101821REMSYN069CMAN  15104 ATGM1 46/// /2617 11163 40182 90936 222// 0002 333 91206;
0068998252999992012011511004+44400-068200FM-18+0003ATGM1V0202501N008719999999N9999999N1-01671+99999101921REMSYN059CMAN  15114 ATGM1 46/// /2517 11167 40192 91036 222// 0001;
0078998252999992012011512004+44400-068200FM-18+0003ATGM1V0202601N007719999999N9999999N1-01691+99999101981REMSYN069CMAN  15124 ATGM1 46/// /2615 11169 40198 91136 222// 0001 333 91206;
0078998252999992012011513004+44400-068200FM-18+0003ATGM1V0202601N008219999999N9999999N1-01681+99999102041REMSYN069CMAN  15134 ATGM1 46/// /2616 11168 40204 91236 222// 0001 333 91207;
0078998252999992012011514004+44400-068200FM-18+0003ATGM1V0202601N007719999999N9999999N1-01701+99999102131REMSYN069CMAN  15144 ATGM1 46/// /2615 11170 40213 91336 222// 0001 333 91207;
0078998252999992012011515004+44400-068200FM-18+0003ATGM1V0202701N006719999999N9999999N1-01571+99999102211REMSYN069CMAN  15154 ATGM1 46/// /2713 11157 40221 91436 222// 0001 333 91206;
0078998252999992012011516004+44400-068200FM-18+0003ATGM1V0202901N006719999999N9999999N1-01501+99999102231REMSYN069CMAN  15164 ATGM1 46/// /2913 11150 40223 91536 222// 0000 333 91208;
0078998252999992012011517004+44400-068200FM-18+0003ATGM1V0202601N006719999999N9999999N1-01411+99999102191REMSYN069CMAN  15174 ATGM1 46/// /2613 11141 40219 91636 222// 0002 333 91210;
0078998252999992012011518004+44400-068200FM-18+0003ATGM1V0202701N006219999999N9999999N1-01351+99999102161REMSYN069CMAN  15184 ATGM1 46/// /2712 11135 40216 91736 222// 0001 333 91205;
0068998252999992012011519004+44400-068200FM-18+0003ATGM1V0202601N008719999999N9999999N1-01281+99999102181REMSYN059CMAN  15194 ATGM1 46/// /2617 11128 40218 91836 222// 0001;
0078998252999992012011520004+44400-068200FM-18+0003ATGM1V0202701N006219999999N9999999N1-01191+99999102261REMSYN069CMAN  15204 ATGM1 46/// /2712 11119 40226 91936 222// 0001 333 91210;
0068998252999992012011521004+44400-068200FM-18+0003ATGM1V0202601N009819999999N9999999N1-01201+99999102351REMSYN059CMAN  15214 ATGM1 46/// /2619 11120 40235 92036 222// 0001;
0078998252999992012011522004+44400-068200FM-18+0003ATGM1V0202501N010319999999N9999999N1-01251+99999102431REMSYN069CMAN  15224 ATGM1 46/// /2520 11125 40243 92136 222// 0001 333 91212;
0068998252999992012011523004+44400-068200FM-18+0003ATGM1V0202501N010819999999N9999999N1-01281+99999102511REMSYN059CMAN  15234 ATGM1 46/// /2521 11128 40251 92236 222// 0001;
0078998252999992012011600004+44400-068200FM-18+0003ATGM1V0202501N007719999999N9999999N1-01331+99999102611REMSYN069CMAN  16004 ATGM1 46/// /2515 11133 40261 92336 222// 0001 333 91219;
0078998252999992012011601004+44400-068200FM-18+0003ATGM1V0202301N008719999999N9999999N1-01391+99999102651REMSYN069CMAN  16014 ATGM1 46/// /2317 11139 40265 90036 222// 0000 333 91220;
0078998252999992012011602004+44400-068200FM-18+0003ATGM1V0202301N007219999999N9999999N1-01441+99999102731REMSYN069CMAN  16024 ATGM1 46/// /2314 11144 40273 90136 222// 0000 333 91212;
0078998252999992012011603004+44400-068200FM-18+0003ATGM1V0202401N008219999999N9999999N1-01431+99999102771REMSYN069CMAN  16034 ATGM1 46/// /2416 11143 40277 90236 222// 0000 333 91212;
0068998252999992012011604004+44400-068200FM-18+0003ATGM1V0202501N007719999999N9999999N1-01451+99999102871REMSYN059CMAN  16044 ATGM1 46/// /2515 11145 40287 90336 222// 0000;
0068998252999992012011605004+44400-068200FM-18+0003ATGM1V0202501N009319999999N9999999N1-01471+99999102851REMSYN059CMAN  16054 ATGM1 46/// /2518 11147 40285 90436 222// 0000;
0078998252999992012011606004+44400-068200FM-18+0003ATGM1V0202401N008219999999N9999999N1-01461+99999102901REMSYN069CMAN  16064 ATGM1 46/// /2416 11146 40290 90536 222// 0001 333 91213;
0078998252999992012011607004+44400-068200FM-18+0003ATGM1V0202401N008219999999N9999999N1-01451+99999103001REMSYN069CMAN  16074 ATGM1 46/// /2416 11145 40300 90636 222// 0001 333 91210;
0078998252999992012011608004+44400-068200FM-18+0003ATGM1V0202301N007219999999N9999999N1-01451+99999103091REMSYN069CMAN  16084 ATGM1 46/// /2314 11145 40309 90736 222// 0000 333 91210;
0068998252999992012011609004+44400-068200FM-18+0003ATGM1V0202201N004119999999N9999999N1-01491+99999103121REMSYN059CMAN  16094 ATGM1 46/// /2208 11149 40312 90836 222// 0000;
0068998252999992012011610004+44400-068200FM-18+0003ATGM1V0202401N006219999999N9999999N1-01421+99999103111REMSYN059CMAN  16104 ATGM1 46/// /2412 11142 40311 90936 222// 0000;
0078998252999992012011611004+44400-068200FM-18+0003ATGM1V0202001N004119999999N9999999N1-01481+99999103141REMSYN069CMAN  16114 ATGM1 46/// /2008 11148 40314 91036 222// 0000 333 91217;
0068998252999992012011612004+44400-068200FM-18+0003ATGM1V0202201N005719999999N9999999N1-01401+99999103211REMSYN059CMAN  16124 ATGM1 46/// /2211 11140 40321 91136 222// 0000;
0078998252999992012011613004+44400-068200FM-18+0003ATGM1V0202101N003119999999N9999999N1-01401+99999103241REMSYN069CMAN  16134 ATGM1 46/// /2106 11140 40324 91236 222// 0000 333 91210;
0078998252999992012011614004+44400-068200FM-18+0003ATGM1V0202301N004619999999N9999999N1-01291+99999103331REMSYN069CMAN  16144 ATGM1 46/// /2309 11129 40333 91336 222// 0000 333 91211;
0068998252999992012011615004+44400-068200FM-18+0003ATGM1V0202201N004119999999N9999999N1-01181+99999103291REMSYN059CMAN  16154 ATGM1 46/// /2208 11118 40329 91436 222// 0000;
0068998252999992012011616004+44400-068200FM-18+0003ATGM1V0202201N001519999999N9999999N1-01031+99999103251REMSYN059CMAN  16164 ATGM1 46/// /2203 11103 40325 91536 222// 0000;
0078998252999992012011617004+44400-068200FM-18+0003ATGM1V0202301N002619999999N9999999N1-00781+99999103131REMSYN069CMAN  16174 ATGM1 46/// /2305 11078 40313 91636 222// 0001 333 91211;
0078998252999992012011618004+44400-068200FM-18+0003ATGM1V0200101N001519999999N9999999N1-00741+99999102961REMSYN069CMAN  16184 ATGM1 46/// /0103 11074 40296 91736 222// 0001 333 91211;
0078998252999992012011619004+44400-068200FM-18+0003ATGM1V0203501N001519999999N9999999N1-00631+99999102891REMSYN069CMAN  16194 ATGM1 46/// /3503 11063 40289 91836 222// 0001 333 91207;
0078998252999992012011620004+44400-068200FM-18+0003ATGM1V0201901N002619999999N9999999N1-00561+99999102891REMSYN069CMAN  16204 ATGM1 46/// /1905 11056 40289 91936 222// 0001 333 91208;
0068998252999992012011621004+44400-068200FM-18+0003ATGM1V0202101N002619999999N9999999N1-00581+99999102801REMSYN059CMAN  16214 ATGM1 46/// /2105 11058 40280 92036 222// 0001;
0068998252999992012011622004+44400-068200FM-18+0003ATGM1V0201001N001019999999N9999999N1-00631+99999102771REMSYN059CMAN  16224 ATGM1 46/// /1002 11063 40277 92136 222// 0001;
0078998252999992012011623004+44400-068200FM-18+0003ATGM1V0201701N002119999999N9999999N1-00491+99999102641REMSYN069CMAN  16234 ATGM1 46/// /1704 11049 40264 92236 222// 0001 333 91205;
0078998252999992012011700004+44400-068200FM-18+0003ATGM1V0201101N001519999999N9999999N1-00371+99999102531REMSYN069CMAN  17004 ATGM1 46/// /1103 11037 40253 92336 222// 0001 333 91205;
0078998252999992012011701004+44400-068200FM-18+0003ATGM1V0201201N003119999999N9999999N1-00151+99999102361REMSYN069CMAN  17014 ATGM1 46/// /1206 11015 40236 90036 222// 0001 333 91211;
0068998252999992012011702004+44400-068200FM-18+0003ATGM1V0201201N004619999999N9999999N1-00021+99999102211REMSYN059CMAN  17024 ATGM1 46/// /1209 11002 40221 90136 222// 0001;
0068998252999992012011703004+44400-068200FM-18+0003ATGM1V0201501N004119999999N9999999N1+00081+99999102071REMSYN059CMAN  17034 ATGM1 46/// /1508 10008 40207 90236 222// 0001;
0078998252999992012011704004+44400-068200FM-18+0003ATGM1V0201701N006219999999N9999999N1+00121+99999101981REMSYN069CMAN  17044 ATGM1 46/// /1712 10012 40198 90336 222// 0002 333 91204;
0078998252999992012011705004+44400-068200FM-18+0003ATGM1V0201801N004619999999N9999999N1+00211+99999101821REMSYN069CMAN  17054 ATGM1 46/// /1809 10021 40182 90436 222// 0002 333 91203;
0078998252999992012011706004+44400-068200FM-18+0003ATGM1V0201801N008719999999N9999999N1+00251+99999101681REMSYN069CMAN  17064 ATGM1 46/// /1817 10025 40168 90536 222// 0002 333 91205;
0078998252999992012011707004+44400-068200FM-18+0003ATGM1V0202001N005719999999N9999999N1+00221+99999101621REMSYN069CMAN  17074 ATGM1 46/// /2011 10022 40162 90636 222// 0003 333 91204;
0078998252999992012011708004+44400-068200FM-18+0003ATGM1V0202001N005119999999N9999999N1+00141+99999101591REMSYN069CMAN  17084 ATGM1 46/// /2010 10014 40159 90736 222// 0003 333 91204;
0078998252999992012011709004+44400-068200FM-18+0003ATGM1V0202001N005719999999N9999999N1+00091+99999101461REMSYN069CMAN  17094 ATGM1 46/// /2011 10009 40146 90836 222// 0003 333 91202;
0078998252999992012011710004+44400-068200FM-18+0003ATGM1V0202001N006719999999N9999999N1+00001+99999101411REMSYN069CMAN  17104 ATGM1 46/// /2013 10000 40141 90936 222// 0003 333 91205;
0078998252999992012011711004+44400-068200FM-18+0003ATGM1V0202101N006219999999N9999999N1+00011+99999101391REMSYN069CMAN  17114 ATGM1 46/// /2112 10001 40139 91036 222// 0003 333 91200;
0078998252999992012011712004+44400-068200FM-18+0003ATGM1V0202201N002119999999N9999999N1+00001+99999101401REMSYN069CMAN  17124 ATGM1 46/// /2204 10000 40140 91136 222// 0003 333 91203;
0068998252999992012011713004+44400-068200FM-18+0003ATGM1V0202401N003119999999N9999999N1-00021+99999101381REMSYN059CMAN  17134 ATGM1 46/// /2406 11002 40138 91236 222// 0002;
0068998252999992012011714004+44400-068200FM-18+0003ATGM1V0202301N002619999999N9999999N1-00011+99999101351REMSYN059CMAN  17144 ATGM1 46/// /2305 11001 40135 91336 222// 0002;
0078998252999992012011715004+44400-068200FM-18+0003ATGM1V0201701N001519999999N9999999N1-00021+99999101341REMSYN069CMAN  17154 ATGM1 46/// /1703 11002 40134 91436 222// 0002 333 91205;
0078998252999992012011716004+44400-068200FM-18+0003ATGM1V0202901N002619999999N9999999N1-00031+99999101261REMSYN069CMAN  17164 ATGM1 46/// /2905 11003 40126 91536 222// 0002 333 91205;
0068998252999992012011717004+44400-068200FM-18+0003ATGM1V0203201N002119999999N9999999N1+00011+99999101151REMSYN059CMAN  17174 ATGM1 46/// /3204 10001 40115 91636 222// 0003;
0068998252999992012011718004+44400-068200FM-18+0003ATGM1V0203601N001519999999N9999999N1+00031+99999101051REMSYN059CMAN  17184 ATGM1 46/// /3603 10003 40105 91736 222// 0003;
0068998252999992012011719004+44400-068200FM-18+0003ATGM1V0200101N000519999999N9999999N1+00071+99999101001REMSYN059CMAN  17194 ATGM1 46/// /0101 10007 40100 91836 222// 0003;
0078998252999992012011720004+44400-068200FM-18+0003ATGM1V0200701N000519999999N9999999N1+00091+99999100981REMSYN069CMAN  17204 ATGM1 46/// /0701 10009 40098 91936 222// 0003 333 91205;
0078998252999992012011721004+44400-068200FM-18+0003ATGM1V0200701N002119999999N9999999N1+00121+99999100951REMSYN069CMAN  17214 ATGM1 46/// /0704 10012 40095 92036 222// 0003 333 91205;
0078998252999992012011722004+44400-068200FM-18+0003ATGM1V0200501N002119999999N9999999N1+00171+99999100901REMSYN069CMAN  17224 ATGM1 46/// /0504 10017 40090 92136 222// 0003 333 91207;
0078998252999992012011723004+44400-068200FM-18+0003ATGM1V0200701N002619999999N9999999N1+00191+99999100811REMSYN069CMAN  17234 ATGM1 46/// /0705 10019 40081 92236 222// 0003 333 91206;
0068998252999992012011800004+44400-068200FM-18+0003ATGM1V0200601N005719999999N9999999N1+00221+99999100571REMSYN059CMAN  18004 ATGM1 46/// /0611 10022 40057 92336 222// 0003;
0068998252999992012011801004+44400-068200FM-18+0003ATGM1V0200501N007219999999N9999999N1+00311+99999100411REMSYN059CMAN  18014 ATGM1 46/// /0514 10031 40041 90036 222// 0003;
0078998252999992012011802004+44400-068200FM-18+0003ATGM1V0200801N002619999999N9999999N1+00381+99999100281REMSYN069CMAN  18024 ATGM1 46/// /0805 10038 40028 90136 222// 0003 333 91210;
0078998252999992012011803004+44400-068200FM-18+0003ATGM1V0200801N001019999999N9999999N1+00451+99999100091REMSYN069CMAN  18034 ATGM1 46/// /0802 10045 40009 90236 222// 0003 333 91209;
0078998252999992012011804004+44400-068200FM-18+0003ATGM1V0200801N002119999999N9999999N1+00521+99999099931REMSYN069CMAN  18044 ATGM1 46/// /0804 10052 49993 90336 222// 0003 333 91204;
0078998252999992012011805004+44400-068200FM-18+0003ATGM1V0200901N001519999999N9999999N1+00591+99999099691REMSYN069CMAN  18054 ATGM1 46/// /0903 10059 49969 90436 222// 0003 333 91204;
0078998252999992012011806004+44400-068200FM-18+0003ATGM1V0201801N005119999999N9999999N1+00691+99999099551REMSYN069CMAN  18064 ATGM1 46/// /1810 10069 49955 90536 222// 0003 333 91202;
0078998252999992012011807004+44400-068200FM-18+0003ATGM1V0201801N009319999999N9999999N1+00691+99999099411REMSYN069CMAN  18074 ATGM1 46/// /1818 10069 49941 90636 222// 0003 333 91202;
0078998252999992012011808004+44400-068200FM-18+0003ATGM1V0201801N006219999999N9999999N1+00721+99999099371REMSYN069CMAN  18084 ATGM1 46/// /1812 10072 49937 90736 222// 0003 333 91205;
0078998252999992012011809004+44400-068200FM-18+0003ATGM1V0201801N005719999999N9999999N1+00821+99999099291REMSYN069CMAN  18094 ATGM1 46/// /1811 10082 49929 90836 222// 0003 333 91205;
0078998252999992012011810004+44400-068200FM-18+0003ATGM1V0201801N006719999999N9999999N1+00811+99999099291REMSYN069CMAN  18104 ATGM1 46/// /1813 10081 49929 90936 222// 0003 333 91204;
0078998252999992012011811004+44400-068200FM-18+0003ATGM1V0201901N007719999999N9999999N1+00761+99999099331REMSYN069CMAN  18114 ATGM1 46/// /1915 10076 49933 91036 222// 0003 333 91203;
0078998252999992012011812004+44400-068200FM-18+0003ATGM1V0202001N006719999999N9999999N1+00681+99999099391REMSYN069CMAN  18124 ATGM1 46/// /2013 10068 49939 91136 222// 0003 333 91204;
0078998252999992012011813004+44400-068200FM-18+0003ATGM1V0202001N006719999999N9999999N1+00481+99999099521REMSYN069CMAN  18134 ATGM1 46/// /2013 10048 49952 91236 222// 0003 333 91203;
0078998252999992012011814004+44400-068200FM-18+0003ATGM1V0202001N007719999999N9999999N1+00471+99999099651REMSYN069CMAN  18144 ATGM1 46/// /2015 10047 49965 91336 222// 0003 333 91205;
0078998252999992012011815004+44400-068200FM-18+0003ATGM1V0202101N008719999999N9999999N1+00451+99999099801REMSYN069CMAN  18154 ATGM1 46/// /2117 10045 49980 91436 222// 0003 333 91203;
0068998252999992012011816004+44400-068200FM-18+0003ATGM1V0202201N007219999999N9999999N1+00311+99999099931REMSYN059CMAN  18164 ATGM1 46/// /2214 10031 49993 91536 222// 0003;
0068998252999992012011817004+44400-068200FM-18+0003ATGM1V0202301N012319999999N9999999N1+00201+99999099981REMSYN059CMAN  18174 ATGM1 46/// /2324 10020 49998 91636 222// 0003;
0078998252999992012011818004+44400-068200FM-18+0003ATGM1V0202201N010819999999N9999999N1+00071+99999100081REMSYN069CMAN  18184 ATGM1 46/// /2221 10007 40008 91736 222// 0003 333 91207;
0078998252999992012011819004+44400-068200FM-18+0003ATGM1V0202301N010319999999N9999999N1-00041+99999100251REMSYN069CMAN  18194 ATGM1 46/// /2320 11004 40025 91836 222// 0003 333 91208;
0078998252999992012011820004+44400-068200FM-18+0003ATGM1V0202201N012919999999N9999999N1-00231+99999100411REMSYN069CMAN  18204 ATGM1 46/// /2225 11023 40041 91936 222// 0003 333 91207;
0078998252999992012011821004+44400-068200FM-18+0003ATGM1V0202301N008719999999N9999999N1-00301+99999100581REMSYN069CMAN  18214 ATGM1 46/// /2317 11030 40058 92036 222// 0003 333 91206;
0078998252999992012011822004+44400-068200FM-18+0003ATGM1V0202501N010819999999N9999999N1-00381+99999100811REMSYN069CMAN  18224 ATGM1 46/// /2521 11038 40081 92136 222// 0003 333 91207;
0078998252999992012011823004+44400-068200FM-18+0003ATGM1V0202501N014419999999N9999999N1-00521+99999101001REMSYN069CMAN  18234 ATGM1 46/// /2528 11052 40100 92236 222// 0003 333 91205;
0078998252999992012011900004+44400-068200FM-18+0003ATGM1V0202401N014919999999N9999999N1-00681+99999101191REMSYN069CMAN  19004 ATGM1 46/// /2429 11068 40119 92336 222// 0003 333 91204;
0078998252999992012011901004+44400-068200FM-18+0003ATGM1V0202401N012919999999N9999999N1-00781+99999101361REMSYN069CMAN  19014 ATGM1 46/// /2425 11078 40136 90036 222// 0003 333 91204;
0078998252999992012011902004+44400-068200FM-18+0003ATGM1V0202401N013919999999N9999999N1-00821+99999101471REMSYN069CMAN  19024 ATGM1 46/// /2427 11082 40147 90136 222// 0002 333 91203;
0068998252999992012011903004+44400-068200FM-18+0003ATGM1V0202401N011319999999N9999999N1-00831+99999101581REMSYN059CMAN  19034 ATGM1 46/// /2422 11083 40158 90236 222// 0002;
0075998252999992012011904004+44400-068200FM-18+0003ATGM1V0202501N014419999999N9999999N1-00881+99999101661REMSYN066CMAN  19044 ATGM1 46/// /2528 11088 40166 90336 222// 0002IDE1184;
0000998252999992012011905004+44400-068200FM-18+0003ATGM1V0202501N011819999999N9999999N1-00911+99999101781
0068998252999992012011906004+44400-068200FM-18+0003ATGM1V0202501N009319999999N9999999N1-00941+99999101871REMSYN059CMAN  19064 ATGM1 46/// /2518 11094 40187 90536 222// 0001;
0078998252999992012011907004+44400-068200FM-18+0003ATGM1V0202601N008719999999N9999999N1-01021+99999101981REMSYN069CMAN  19074 ATGM1 46/// /2617 11102 40198 90636 222// 0001 333 91204;
0078998252999992012011908004+44400-068200FM-18+0003ATGM1V0202601N007219999999N9999999N1-01051+99999102031REMSYN069CMAN  19084 ATGM1 46/// /2614 11105 40203 90736 222// 0002 333 91203;
0085998252999992012011909004+44400-068200FM-18+0003ATGM1V0202501N006219999999N9999999N1-01061+99999102131REMSYN076CMAN  19094 ATGM1 46/// /2512 11106 40213 90836 222// 00031212 555 TIDE0991;
0078998252999992012011910004+44400-068200FM-18+0003ATGM1V0202701N004619999999N9999999N1-01111+99999102161REMSYN069CMAN  19104 ATGM1 46/// /2709 11111 40216 90936 222// 0003 333 91206;
0078998252999992012011911004+44400-068200FM-18+0003ATGM1V0203001N003619999999N9999999N1-01151+99999102321REMSYN069CMAN  19114 ATGM1 46/// /3007 11115 40232 91036 222// 0002 333 91208;
0078998252999992012011912004+44400-068200FM-18+0003ATGM1V0202801N003619999999N9999999N1-01201+99999102481REMSYN069CMAN  19124 ATGM1 46/// /2807 11120 40248 91136 222// 0001 333 91207;
0078998252999992012011913004+44400-068200FM-18+0003ATGM1V0201701N001519999999N9999999N1-01211+99999102671REMSYN069CMAN  19134 ATGM1 46/// /1703 11121 40267 91236 222// 0001 333 91207;
0100998252999992012011914004+44400-068200FM-18+0003ATGM1V0203501N002619999999N9999999N1-01141+99999102771REMSYN091CMAN  19144 ATGM1 46/// /3505 11114 40277 91336 222// 0001 74622 886// 333 88702 555 6//97;
0078998252999992012011915004+44400-068200FM-18+0003ATGM1V0203301N003619999999N9999999N1-01151+99999102791REMSYN069CMAN  19154 ATGM1 46/// /3307 11115 40279 91436 222// 0001 333 91211;
0078998252999992012011916004+44400-068200FM-18+0003ATGM1V0202801N004119999999N9999999N1-01091+99999102731REMSYN069CMAN  19164 ATGM1 46/// /2808 11109 40273 91536 222// 0001 333 91210;
0078998252999992012011917004+44400-068200FM-18+0003ATGM1V0203301N004119999999N9999999N1-01011+99999102601REMSYN069CMAN  19174 ATGM1 46/// /3308 11101 40260 91636 222// 0001 333 91208;
0078998252999992012011918004+44400-068200FM-18+0003ATGM1V0202901N004619999999N9999999N1-00901+99999102371REMSYN069CMAN  19184 ATGM1 46/// /2909 11090 40237 91736 222// 0001 333 91206;
0078998252999992012011919004+44400-068200FM-18+0003ATGM1V0203301N006219999999N9999999N1-00801+99999102181REMSYN069CMAN  19194 ATGM1 46/// /3312 11080 40218 91836 222// 0001 333 91210;
0078998252999992012011920004+44400-068200FM-18+0003ATGM1V0203201N004619999999N9999999N1-00751+99999102121REMSYN069CMAN  19204 ATGM1 46/// /3209 11075 40212 91936 222// 0001 333 91210;
0078998252999992012011921004+44400-068200FM-18+0003ATGM1V0200401N002119999999N9999999N1-00691+99999102331REMSYN069CMAN  19214 ATGM1 46/// /0404 11069 40233 92036 222// 0002 333 91211;
0078998252999992012011922004+44400-068200FM-18+0003ATGM1V0201801N001519999999N9999999N1-00751+99999102371REMSYN069CMAN  19224 ATGM1 46/// /1803 11075 40237 92136 222// 0002 333 91214;
0078998252999992012011923004+44400-068200FM-18+0003ATGM1V0200201N005719999999N9999999N1-00661+99999102281REMSYN069CMAN  19234 ATGM1 46/// /0211 11066 40228 92236 222// 0002 333 91213;
0078998252999992012012000004+44400-068200FM-18+0003ATGM1V0203501N003119999999N9999999N1-00691+99999102261REMSYN069CMAN  20004 ATGM1 46/// /3506 11069 40226 92336 222// 0002 333 91215;
0078998252999992012012001004+44400-068200FM-18+0003ATGM1V0203301N002619999999N9999999N1-00741+99999102201REMSYN069CMAN  20014 ATGM1 46/// /3305 11074 40220 90036 222// 0002 333 91215;
0102998252999992012012002004+44400-068200FM-18+0003ATGM1V0203601N002619999999N9999999N1-00721+99999102131REMSYN093CMAN  20024 ATGM1 46/// /3605 11072 40213 90136 222// 0002 878// 333 84820 85628 87657 91114;
0078998252999992012012003004+44400-068200FM-18+0003ATGM1V0202901N001019999999N9999999N1-00721+99999102071REMSYN069CMAN  20034 ATGM1 46/// /2902 11072 40207 90236 222// 0002 333 91217;
0078998252999992012012004004+44400-068200FM-18+0003ATGM1V0203501N003119999999N9999999N1-00741+99999102041REMSYN069CMAN  20044 ATGM1 46/// /3506 11074 40204 90336 222// 0002 333 91215;
0078998252999992012012005004+44400-068200FM-18+0003ATGM1V0200101N003119999999N9999999N1-00721+99999101991REMSYN069CMAN  20054 ATGM1 46/// /0106 11072 40199 90436 222// 0002 333 91214;
0078998252999992012012006004+44400-068200FM-18+0003ATGM1V0203201N001519999999N9999999N1-00711+99999101941REMSYN069CMAN  20064 ATGM1 46/// /3203 11071 40194 90536 222// 0002 333 91215;
0000998252999992012012007004+44400-068200FM-18+0003ATGM1V0200601N002619999999N9999999N1-00661+99999101731
0068998252999992012012008004+44400-068200FM-18+0003ATGM1V0209999C000019999999N9999999N1-00591+99999101601REMSYN059CMAN  20084 ATGM1 46/// /0000 11059 40160 90736 222// 0001;
0078998252999992012012009004+44400-068200FM-18+0003ATGM1V0201601N000519999999N9999999N1-00561+99999101571REMSYN069CMAN  20094 ATGM1 46/// /1601 11056 40157 90836 222// 0002 333 91214;
0078998252999992012012010004+44400-068200FM-18+0003ATGM1V0209999C000019999999N9999999N1-00531+99999101511REMSYN069CMAN  20104 ATGM1 46/// /0000 11053 40151 90936 222// 0002 333 91214;
0078998252999992012012011004+44400-068200FM-18+0003ATGM1V0200901N002619999999N9999999N1-00161+99999101391REMSYN069CMAN  20114 ATGM1 46/// /0905 11016 40139 91036 222// 0002 333 91216;
0078998252999992012012012004+44400-068200FM-18+0003ATGM1V0200601N010319999999N9999999N1+00011+99999101251REMSYN069CMAN  20124 ATGM1 46/// /0620 10001 40125 91136 222// 0002 333 91212;
0068998252999992012012013004+44400-068200FM-18+0003ATGM1V0200701N009819999999N9999999N1+00091+99999101161REMSYN059CMAN  20134 ATGM1 46/// /0719 10009 40116 91236 222// 0002;
0068998252999992012012014004+44400-068200FM-18+0003ATGM1V0201701N003119999999N9999999N1+00001+99999101171REMSYN059CMAN  20144 ATGM1 46/// /1706 10000 40117 91336 222// 0002;
0078998252999992012012015004+44400-068200FM-18+0003ATGM1V0202001N003619999999N9999999N1-00011+99999101091REMSYN069CMAN  20154 ATGM1 46/// /2007 11001 40109 91436 222// 0002 333 91212;
0078998252999992012012016004+44400-068200FM-18+0003ATGM1V0202201N005119999999N9999999N1-00211+99999101151REMSYN069CMAN  20164 ATGM1 46/// /2210 11021 40115 91536 222// 0002 333 91212;
0078998252999992012012017004+44400-068200FM-18+0003ATGM1V0202301N006219999999N9999999N1-00371+99999101201REMSYN069CMAN  20174 ATGM1 46/// /2312 11037 40120 91636 222// 0002 333 91213;
0078998252999992012012018004+44400-068200FM-18+0003ATGM1V0202401N009819999999N9999999N1-00381+99999101291REMSYN069CMAN  20184 ATGM1 46/// /2419 11038 40129 91736 222// 0002 333 91211;
0078998252999992012012019004+44400-068200FM-18+0003ATGM1V0202401N009319999999N9999999N1-00331+99999101381REMSYN069CMAN  20194 ATGM1 46/// /2418 11033 40138 91836 222// 0002 333 91216;
0078998252999992012012020004+44400-068200FM-18+0003ATGM1V0202401N006719999999N9999999N1-00251+99999101501REMSYN069CMAN  20204 ATGM1 46/// /2413 11025 40150 91936 222// 0002 333 91211;
0078998252999992012012021004+44400-068200FM-18+0003ATGM1V0202501N007719999999N9999999N1-00241+99999101611REMSYN069CMAN  20214 ATGM1 46/// /2515 11024 40161 92036 222// 0002 333 91219;
0078998252999992012012022004+44400-068200FM-18+0003ATGM1V0202601N007219999999N9999999N1-00311+99999101761REMSYN069CMAN  20224 ATGM1 46/// /2614 11031 40176 92136 222// 0002 333 91217;
0078998252999992012012023004+44400-068200FM-18+0003ATGM1V0202301N007219999999N9999999N1-00421+99999101941REMSYN069CMAN  20234 ATGM1 46/// /2314 11042 40194 92236 222// 0002 333 91217;
0078998252999992012012100004+44400-068200FM-18+0003ATGM1V0202301N006719999999N9999999N1-00581+99999102051REMSYN069CMAN  21004 ATGM1 46/// /2313 11058 40205 92336 222// 0002 333 91216;
0078998252999992012012101004+44400-068200FM-18+0003ATGM1V0202301N005719999999N9999999N1-00681+99999102141REMSYN069CMAN  21014 ATGM1 46/// /2311 11068 40214 90036 222// 0002 333 91219;
0078998252999992012012102004+44400-068200FM-18+0003ATGM1V0202401N006719999999N9999999N1-00701+99999102191REMSYN069CMAN  21024 ATGM1 46/// /2413 11070 40219 90136 222// 0002 333 91219;
0078998252999992012012103004+44400-068200FM-18+0003ATGM1V0202201N003619999999N9999999N1-00841+99999102321REMSYN069CMAN  21034 ATGM1 46/// /2207 11084 40232 90236 222// 0002 333 91215;
0078998252999992012012104004+44400-068200FM-18+0003ATGM1V0202201N005119999999N9999999N1-00911+99999102361REMSYN069CMAN  21044 ATGM1 46/// /2210 11091 40236 90336 222// 0002 333 91218;
0078998252999992012012105004+44400-068200FM-18+0003ATGM1V0202201N006719999999N9999999N1-00991+99999102331REMSYN069CMAN  21054 ATGM1 46/// /2213 11099 40233 90436 222// 0002 333 91225;
0078998252999992012012106004+44400-068200FM-18+0003ATGM1V0202401N007719999999N9999999N1-01041+99999102381REMSYN069CMAN  21064 ATGM1 46/// /2415 11104 40238 90536 222// 0002 333 91219;
0078998252999992012012107004+44400-068200FM-18+0003ATGM1V0202201N006719999999N9999999N1-01191+99999102441REMSYN069CMAN  21074 ATGM1 46/// /2213 11119 40244 90636 222// 0001 333 91220;
0078998252999992012012108004+44400-068200FM-18+0003ATGM1V0202201N005719999999N9999999N1-01251+99999102411REMSYN069CMAN  21084 ATGM1 46/// /2211 11125 40241 90736 222// 0001 333 91220;
0068998252999992012012109004+44400-068200FM-18+0003ATGM1V0202201N004119999999N9999999N1-01321+99999102421REMSYN059CMAN  21094 ATGM1 46/// /2208 11132 40242 90836 222// 0001;
0078998252999992012012110004+44400-068200FM-18+0003ATGM1V0202301N005719999999N9999999N1-01281+99999102441REMSYN069CMAN  21104 ATGM1 46/// /2311 11128 40244 90936 222// 0002 333 91210;
0078998252999992012012111004+44400-068200FM-18+0003ATGM1V0202201N005119999999N9999999N1-01291+99999102491REMSYN069CMAN  21114 ATGM1 46/// /2210 11129 40249 91036 222// 0002 333 91215;
0078998252999992012012112004+44400-068200FM-18+0003ATGM1V0202301N004119999999N9999999N1-01251+99999102531REMSYN069CMAN  21124 ATGM1 46/// /2308 11125 40253 91136 222// 0002 333 91213;
0078998252999992012012113004+44400-068200FM-18+0003ATGM1V0202901N003119999999N9999999N1-01241+99999102501REMSYN069CMAN  21134 ATGM1 46/// /2906 11124 40250 91236 222// 0002 333 91212;
0078998252999992012012114004+44400-068200FM-18+0003ATGM1V0202801N002619999999N9999999N1-01231+99999102541REMSYN069CMAN  21144 ATGM1 46/// /2805 11123 40254 91336 222// 0000 333 91213;
0078998252999992012012115004+44400-068200FM-18+0003ATGM1V0202801N002119999999N9999999N1-01211+99999102591REMSYN069CMAN  21154 ATGM1 46/// /2804 11121 40259 91436 222// 0001 333 91212;
0078998252999992012012116004+44400-068200FM-18+0003ATGM1V0203001N002119999999N9999999N1-01161+99999102481REMSYN069CMAN  21164 ATGM1 46/// /3004 11116 40248 91536 222// 0001 333 91215;
0078998252999992012012117004+44400-068200FM-18+0003ATGM1V0203001N001519999999N9999999N1-01141+99999102381REMSYN069CMAN  21174 ATGM1 46/// /3003 11114 40238 91636 222// 0001 333 91218;
0000998252999992012012118004+44400-068200FM-18+0003ATGM1V0203001N002619999999N9999999N1-01121+99999102321
0078998252999992012012119004+44400-068200FM-18+0003ATGM1V0203001N002619999999N9999999N1-01101+99999102321REMSYN069CMAN  21194 ATGM1 46/// /3005 11110 40232 91836 222// 0001 333 91226;
0068998252999992012012120004+44400-068200FM-18+0003ATGM1V0202801N004119999999N9999999N1-01101+99999102361REMSYN059CMAN  21204 ATGM1 46/// /2808 11110 40236 91936 222// 0001;
0068998252999992012012121004+44400-068200FM-18+0003ATGM1V0202801N004119999999N9999999N1-01051+99999102411REMSYN059CMAN  21214 ATGM1 46/// /2808 11105 40241 92036 222// 0001;
0068998252999992012012122004+44400-068200FM-18+0003ATGM1V0202901N003619999999N9999999N1-01031+99999102411REMSYN059CMAN  21224 ATGM1 46/// /2907 11103 40241 92136 222// 0001;
0068998252999992012012123004+44400-068200FM-18+0003ATGM1V0203101N004119999999N9999999N1-01031+99999102441REMSYN059CMAN  21234 ATGM1 46/// /3108 11103 40244 92236 222// 0001;
0078998252999992012012200004+44400-068200FM-18+0003ATGM1V0203201N005719999999N9999999N1-01031+99999102481REMSYN069CMAN  22004 ATGM1 46/// /3211 11103 40248 92336 222// 0001 333 91216;
0078998252999992012012201004+44400-068200FM-18+0003ATGM1V0203001N005119999999N9999999N1-01081+99999102521REMSYN069CMAN  22014 ATGM1 46/// /3010 11108 40252 90036 222// 0001 333 91213;
0078998252999992012012202004+44400-068200FM-18+0003ATGM1V0203101N004119999999N9999999N1-01101+99999102601REMSYN069CMAN  22024 ATGM1 46/// /3108 11110 40260 90136 222// 0001 333 91212;
0078998252999992012012203004+44400-068200FM-18+0003ATGM1V0202901N004119999999N9999999N1-01111+99999102641REMSYN069CMAN  22034 ATGM1 46/// /2908 11111 40264 90236 222// 0000 333 91203;
0078998252999992012012204004+44400-068200FM-18+0003ATGM1V0202901N004119999999N9999999N1-01121+99999102691REMSYN069CMAN  22044 ATGM1 46/// /2908 11112 40269 90336 222// 0001 333 91202;
0078998252999992012012205004+44400-068200FM-18+0003ATGM1V0202701N004619999999N9999999N1-01181+99999102751REMSYN069CMAN  22054 ATGM1 46/// /2709 11118 40275 90436 222// 0001 333 91204;
0078998252999992012012206004+44400-068200FM-18+0003ATGM1V0202701N004619999999N9999999N1-01211+99999102811REMSYN069CMAN  22064 ATGM1 46/// /2709 11121 40281 90536 222// 0000 333 91204;
0078998252999992012012207004+44400-068200FM-18+0003ATGM1V0202601N004619999999N9999999N1-01201+99999102881REMSYN069CMAN  22074 ATGM1 46/// /2609 11120 40288 90636 222// 0000 333 91205;
0078998252999992012012208004+44400-068200FM-18+0003ATGM1V0202601N005719999999N9999999N1-01161+99999102971REMSYN069CMAN  22084 ATGM1 46/// /2611 11116 40297 90736 222// 0000 333 91209;
0078998252999992012012209004+44400-068200FM-18+0003ATGM1V0202701N004619999999N9999999N1-01151+99999103041REMSYN069CMAN  22094 ATGM1 46/// /2709 11115 40304 90836 222// 0000 333 91210;
0078998252999992012012210004+44400-068200FM-18+0003ATGM1V0202701N005119999999N9999999N1-01191+99999103131REMSYN069CMAN  22104 ATGM1 46/// /2710 11119 40313 90936 222// 0000 333 91211;
0078998252999992012012211004+44400-068200FM-18+0003ATGM1V0202201N002119999999N9999999N1-01281+99999103231REMSYN069CMAN  22114 ATGM1 46/// /2204 11128 40323 91036 222// 0001 333 91208;
0078998252999992012012212004+44400-068200FM-18+0003ATGM1V0202201N004119999999N9999999N1-01261+99999103321REMSYN069CMAN  22124 ATGM1 46/// /2208 11126 40332 91136 222// 0001 333 91204;
0078998252999992012012213004+44400-068200FM-18+0003ATGM1V0202401N002619999999N9999999N1-01201+99999103431REMSYN069CMAN  22134 ATGM1 46/// /2405 11120 40343 91236 222// 0002 333 91210;
0078998252999992012012214004+44400-068200FM-18+0003ATGM1V0202601N003119999999N9999999N1-01151+99999103551REMSYN069CMAN  22144 ATGM1 46/// /2606 11115 40355 91336 222// 0002 333 91213;
0078998252999992012012215004+44400-068200FM-18+0003ATGM1V0202401N002619999999N9999999N1-01061+99999103621REMSYN069CMAN  22154 ATGM1 46/// /2405 11106 40362 91436 222// 0000 333 91212;
0078998252999992012012216004+44400-068200FM-18+0003ATGM1V0202601N002119999999N9999999N1-00971+99999103581REMSYN069CMAN  22164 ATGM1 46/// /2604 11097 40358 91536 222// 0000 333 91211;
0078998252999992012012217004+44400-068200FM-18+0003ATGM1V0202701N002119999999N9999999N1-00891+99999103531REMSYN069CMAN  22174 ATGM1 46/// /2704 11089 40353 91636 222// 0000 333 91209;
0078998252999992012012218004+44400-068200FM-18+0003ATGM1V0202501N002119999999N9999999N1-00841+99999103451REMSYN069CMAN  22184 ATGM1 46/// /2504 11084 40345 91736 222// 0001 333 91209;
0078998252999992012012219004+44400-068200FM-18+0003ATGM1V0202201N001019999999N9999999N1-00681+99999103421REMSYN069CMAN  22194 ATGM1 46/// /2202 11068 40342 91836 222// 0001 333 91208;
0078998252999992012012220004+44400-068200FM-18+0003ATGM1V0202701N001519999999N9999999N1-00631+99999103491REMSYN069CMAN  22204 ATGM1 46/// /2703 11063 40349 91936 222// 0001 333 91213;
0078998252999992012012221004+44400-068200FM-18+0003ATGM1V0202401N001019999999N9999999N1-00581+99999103471REMSYN069CMAN  22214 ATGM1 46/// /2402 11058 40347 92036 222// 0001 333 91215;
0078998252999992012012222004+44400-068200FM-18+0003ATGM1V0201501N002119999999N9999999N1-00621+99999103461REMSYN069CMAN  22224 ATGM1 46/// /1504 11062 40346 92136 222// 0001 333 91223;
0078998252999992012012223004+44400-068200FM-18+0003ATGM1V0201301N002119999999N9999999N1-00711+99999103481REMSYN069CMAN  22234 ATGM1 46/// /1304 11071 40348 92236 222// 0001 333 91221;
0068998252999992012012300004+44400-068200FM-18+0003ATGM1V0201501N002119999999N9999999N1-00661+99999103511REMSYN059CMAN  23004 ATGM1 46/// /1504 11066 40351 92336 222// 0001;
0078998252999992012012301004+44400-068200FM-18+0003ATGM1V0201501N001019999999N9999999N1-00671+99999103501REMSYN069CMAN  23014 ATGM1 46/// /1502 11067 40350 90036 222// 0002 333 91221;
0078998252999992012012302004+44400-068200FM-18+0003ATGM1V0201801N002119999999N9999999N1-00701+99999103551REMSYN069CMAN  23024 ATGM1 46/// /1804 11070 40355 90136 222// 0002 333 91222;
0078998252999992012012303004+44400-068200FM-18+0003ATGM1V0202001N001019999999N9999999N1-00691+99999103551REMSYN069CMAN  23034 ATGM1 46/// /2002 11069 40355 90236 222// 0002 333 91225;
0078998252999992012012304004+44400-068200FM-18+0003ATGM1V0201401N002119999999N9999999N1-00551+99999103491REMSYN069CMAN  23044 ATGM1 46/// /1404 11055 40349 90336 222// 0002 333 91225;
0078998252999992012012305004+44400-068200FM-18+0003ATGM1V0202001N001019999999N9999999N1-00521+99999103421REMSYN069CMAN  23054 ATGM1 46/// /2002 11052 40342 90436 222// 0001 333 91222;
0078998252999992012012306004+44400-068200FM-18+0003ATGM1V0201701N001019999999N9999999N1-00521+99999103391REMSYN069CMAN  23064 ATGM1 46/// /1702 11052 40339 90536 222// 0001 333 91221;
0078998252999992012012307004+44400-068200FM-18+0003ATGM1V0201601N001019999999N9999999N1-00501+99999103371REMSYN069CMAN  23074 ATGM1 46/// /1602 11050 40337 90636 222// 0001 333 91222;
0078998252999992012012308004+44400-068200FM-18+0003ATGM1V0202001N000519999999N9999999N1-00441+99999103311REMSYN069CMAN  23084 ATGM1 46/// /2001 11044 40331 90736 222// 0001 333 91222;
0078998252999992012012309004+44400-068200FM-18+0003ATGM1V0201401N001519999999N9999999N1-00171+99999103241REMSYN069CMAN  23094 ATGM1 46/// /1403 11017 40324 90836 222// 0001 333 91222;
0078998252999992012012310004+44400-068200FM-18+0003ATGM1V0201501N000519999999N9999999N1-00051+99999103171REMSYN069CMAN  23104 ATGM1 46/// /1501 11005 40317 90936 222// 0001 333 91222;
0068998252999992012012311004+44400-068200FM-18+0003ATGM1V0201401N001019999999N9999999N1+00021+99999103101REMSYN059CMAN  23114 ATGM1 46/// /1402 10002 40310 91036 222// 0001;
0078998252999992012012312004+44400-068200FM-18+0003ATGM1V0202701N003119999999N9999999N1-00191+99999103051REMSYN069CMAN  23124 ATGM1 46/// /2706 11019 40305 91136 222// 0001 333 91219;
0078998252999992012012313004+44400-068200FM-18+0003ATGM1V0203301N003119999999N9999999N1-00291+99999103031REMSYN069CMAN  23134 ATGM1 46/// /3306 11029 40303 91236 222// 0001 333 91217;
0078998252999992012012314004+44400-068200FM-18+0003ATGM1V0209999C000019999999N9999999N1-00171+99999103011REMSYN069CMAN  23144 ATGM1 46/// /0000 11017 40301 91336 222// 0001 333 91215;
0078998252999992012012315004+44400-068200FM-18+0003ATGM1V0200701N003619999999N9999999N1+00061+99999102891REMSYN069CMAN  23154 ATGM1 46/// /0707 10006 40289 91436 222// 0002 333 91213;
0126998252999992012012316004+44400-068200FM-18+0003ATGM1V0200901N002119999999N9999999N1+00271+99999102861REMSYN117CMAN  23164 ATGM1 46/// /0904 10027 40286 91536 222// 0002 60011 72162 85271 333 10290 56000 57801 59009 85816 80860;
0078998252999992012012317004+44400-068200FM-18+0003ATGM1V0201101N004119999999N9999999N1+00291+99999102751REMSYN069CMAN  23174 ATGM1 46/// /1108 10029 40275 91636 222// 0001 333 91215;
0078998252999992012012318004+44400-068200FM-18+0003ATGM1V0201001N002119999999N9999999N1+00291+99999102691REMSYN069CMAN  23184 ATGM1 46/// /1004 10029 40269 91736 222// 0001 333 91211;
0099998252999992012012319004+44400-068200FM-18+0003ATGM1V0200901N003119999999N9999999N1+00361+99999102631REMSYN090CMAN  23194 ATGM1 46/// /0906 10036 40263 91836 222// 00029 11309 21005 328// 41307 70046;
0078998252999992012012320004+44400-068200FM-18+0003ATGM1V0200801N003119999999N9999999N1+00361+99999102561REMSYN069CMAN  23204 ATGM1 46/// /0806 10036 40256 91936 222// 0002 333 91206;
0078998252999992012012321004+44400-068200FM-18+0003ATGM1V0200801N004119999999N9999999N1+00391+99999102431REMSYN069CMAN  23214 ATGM1 46/// /0808 10039 40243 92036 222// 0002 333 91204;
0078998252999992012012322004+44400-068200FM-18+0003ATGM1V0200901N002619999999N9999999N1+00491+99999102381REMSYN069CMAN  23224 ATGM1 46/// /0905 10049 40238 92136 222// 0002 333 91203;
0078998252999992012012323004+44400-068200FM-18+0003ATGM1V0200801N002619999999N9999999N1+00531+99999102331REMSYN069CMAN  23234 ATGM1 46/// /0805 10053 40233 92236 222// 0002 333 91205;
