0000998252999992011010100004+44400-068200FM-18+0003ATGM1V0209999C000019999999N9999999N1+00411+99999101651
0000998252999992011010101004+44400-068200FM-18+0003ATGM1V0201901N000519999999N9999999N1+00381+99999101671
0078998252999992011010102004+44400-068200FM-18+0003ATGM1V0201701N002619999999N9999999N1+00591+99999101631REMSYN069CMAN  01024 ATGM1 46/// /1705 10059 40163 90136 222// 0006 333 91205;
0078998252999992011010103004+44400-068200FM-18+0003ATGM1V0202401N002119999999N9999999N1+00671+99999101571REMSYN069CMAN  01034 ATGM1 46/// /2404 10067 40157 90236 222// 0006 333 91203;
0078998252999992011010104004+44400-068200FM-18+0003ATGM1V0203301N003119999999N9999999N1+00641+99999101541REMSYN069CMAN  01044 ATGM1 46/// /3306 10064 40154 90336 222// 0006 333 91205;
0078998252999992011010105004+44400-068200FM-18+0003ATGM1V0201101N001519999999N9999999N1+00491+99999101491REMSYN069CMAN  01054 ATGM1 46/// /1103 10049 40149 90436 222// 0006 333 91204;
0078998252999992011010106004+44400-068200FM-18+0003ATGM1V0201801N003619999999N9999999N1+00731+99999101451REMSYN069CMAN  01064 ATGM1 46/// /1807 10073 40145 90536 222// 0006 333 91205;
0078998252999992011010107004+44400-068200FM-18+0003ATGM1V0202301N001519999999N9999999N1+00791+99999101461REMSYN069CMAN  01074 ATGM1 46/// /2303 10079 40146 90636 222// 0006 333 91207;
0078998252999992011010108004+44400-068200FM-18+0003ATGM1V0202201N002119999999N9999999N1+00531+99999101481REMSYN069CMAN  01084 ATGM1 46/// /2204 10053 40148 90736 222// 0006 333 91209;
0078998252999992011010109004+44400-068200FM-18+0003ATGM1V0202501N002619999999N9999999N1+00431+99999101521REMSYN069CMAN  01094 ATGM1 46/// /2505 10043 40152 90836 222// 0006 333 91210;
0078998252999992011010110004+44400-068200FM-18+0003ATGM1V0202401N002619999999N9999999N1+00481+99999101541REMSYN069CMAN  01104 ATGM1 46/// /2405 10048 40154 90936 222// 0006 333 91211;
0078998252999992011010111004+44400-068200FM-18+0003ATGM1V0202601N004119999999N9999999N1+00611+99999101581REMSYN069CMAN  01114 ATGM1 46/// /2608 10061 40158 91036 222// 0007 333 91213;
0078998252999992011010112004+44400-068200FM-18+0003ATGM1V0203101N000519999999N9999999N1+00551+99999101601REMSYN069CMAN  01124 ATGM1 46/// /3101 10055 40160 91136 222// 0006 333 91212;
0078998252999992011010113004+44400-068200FM-18+0003ATGM1V02099999999999999999N9999999N1+00421+99999101671REMSYN069CMAN  01134 ATGM1 46/// /25// 10042 40167 91236 222// 0005 333 91206;
0000998252999992011010114004+44400-068200FM-18+0003ATGM1V0203601N001519999999N9999999N1+00401+99999101691
0078998252999992011010115004+44400-068200FM-18+0003ATGM1V0209999C000019999999N9999999N1+00481+99999101741REMSYN069CMAN  01154 ATGM1 46/// /0000 10048 40174 91436 222// 0006 333 91205;
0078998252999992011010116004+44400-068200FM-18+0003ATGM1V0200501N002119999999N9999999N1+00541+99999101771REMSYN069CMAN  01164 ATGM1 46/// /0504 10054 40177 91536 222// 0006 333 91210;
0078998252999992011010117004+44400-068200FM-18+0003ATGM1V0200701N002119999999N9999999N1+00761+99999101711REMSYN069CMAN  01174 ATGM1 46/// /0704 10076 40171 91636 222// 0006 333 91209;
0078998252999992011010118004+44400-068200FM-18+0003ATGM1V0200901N001019999999N9999999N1+00811+99999101741REMSYN069CMAN  01184 ATGM1 46/// /0902 10081 40174 91736 222// 0006 333 91209;
0078998252999992011010119004+44400-068200FM-18+0003ATGM1V0200701N002619999999N9999999N1+00791+99999101741REMSYN069CMAN  01194 ATGM1 46/// /0705 10079 40174 91836 222// 0006 333 91205;
0078998252999992011010120004+44400-068200FM-18+0003ATGM1V0200801N002119999999N9999999N1+00791+99999101791REMSYN069CMAN  01204 ATGM1 46/// /0804 10079 40179 91936 222// 0006 333 91214;
0078998252999992011010121004+44400-068200FM-18+0003ATGM1V0200901N001519999999N9999999N1+00771+99999101761REMSYN069CMAN  01214 ATGM1 46/// /0903 10077 40176 92036 222// 0006 333 91209;
0078998252999992011010122004+44400-068200FM-18+0003ATGM1V0201501N000519999999N9999999N1+00681+99999101801REMSYN069CMAN  01224 ATGM1 46/// /1501 10068 40180 92136 222// 0006 333 91212;
0078998252999992011010123004+44400-068200FM-18+0003ATGM1V0200701N002119999999N9999999N1+00611+99999101791REMSYN069CMAN  01234 ATGM1 46/// /0704 10061 40179 92236 222// 0006 333 91216;
0078998252999992011010200004+44400-068200FM-18+0003ATGM1V0203501N002619999999N9999999N1+00601+99999101871REMSYN069CMAN  02004 ATGM1 46/// /3505 10060 40187 92336 222// 0007 333 91212;
0078998252999992011010201004+44400-068200FM-18+0003ATGM1V0209999C000019999999N9999999N1+00531+99999101801REMSYN069CMAN  02014 ATGM1 46/// /0000 10053 40180 90036 222// 0007 333 91205;
0078998252999992011010202004+44400-068200FM-18+0003ATGM1V0200301N001519999999N9999999N1+00541+99999101801REMSYN069CMAN  02024 ATGM1 46/// /0303 10054 40180 90136 222// 0007 333 91215;
0078998252999992011010203004+44400-068200FM-18+0003ATGM1V0200901N002119999999N9999999N1+00601+99999101761REMSYN069CMAN 02034 ATGM1 46/// /0904 10060 40176 90236 222// 00071 333 91205;
0078998252999992011010204004+44400-068200FM-18+0003ATGM1V0200901N002619999999N9999999N1+00591+99999101711REMSYN069CMAN  02044 ATGM1 46/// /0905 10059 40171 90336 222// 0007 333 91204;
0078998252999992011010205004+44400-068200FM-18+0003ATGM1V0200701N004119999999N9999999N1+00651+99999101611REMSYN069CMAN  02054 ATGM1 46/// /0708 10065 40161 90436 222// 0007 333 91201;
0078998252999992011010206004+44400-068200FM-18+0003ATGM1V0200701N004619999999N9999999N1+00681+99999101621REMSYN069CMAN  02064 ATGM1 46/// /0709 10068 40162 90536 222// 0007 333 91204;
0078998252999992011010207004+44400-068200FM-18+0003ATGM1V0200801N003119999999N9999999N1+00631+99999101611REMSYN069CMAN  02074 ATGM1 46/// /0806 10063 40161 90636 222// 0007 333 91204;
0087998252999992011010208004+44400-068200FM-18+0003ATGM1V0200801N003119999999N9999999N1+00621+99999101511REMSYN078CMAN  02084 ATGM1 46/// /0806 10062 40151 90736 222// 00070 555 1 20301 70005;
0078998252999992011010209004+44400-068200FM-18+0003ATGM1V0200701N003619999999N9999999N1+00601+99999101371REMSYN069CMAN  02094 ATGM1 46/// /0707 10060 40137 90836 222// 0007 333 91204;
0078998252999992011010210004+44400-068200FM-18+0003ATGM1V0200701N005119999999N9999999N1+00611+99999101321REMSYN069CMAN  02104 ATGM1 46/// /0710 10061 40132 90936 222// 0007 333 91203;
0078998252999992011010211004+44400-068200FM-18+0003ATGM1V0200701N002619999999N9999999N1+00571+99999101281REMSYN069CMAN  02114 ATGM1 46/// /0705 10057 40128 91036 222// 0007 333 91209;
0078998252999992011010212004+44400-068200FM-18+0003ATGM1V0200401N003619999999N9999999N1+00601+99999101231REMSYN069CMAN  02124 ATGM1 46/// /0407 10060 40123 91136 222// 0007 333 91204;
0078998252999992011010213004+44400-068200FM-18+0003ATGM1V0200801N001019999999N9999999N1+00581+99999101201REMSYN069CMAN  02134 ATGM1 46/// /0802 10058 40120 91236 222// 0007 333 91205;
0078998252999992011010214004+44400-068200FM-18+0003ATGM1V0202501N001019999999N9999999N1+00491+99999101201REMSYN069CMAN  02144 ATGM1 46/// /2502 10049 40120 91336 222// 0007 333 91205;
0080998252999992011010215004+44400-068200FM-18+0003ATGM1V0202401N002119999999N9999999N1+00471+99999101201REMSYN071CMAN  02154 ATGM1 46/// /2404 10047 40120 91436 222// 0007 71022 86050;
0078998252999992011010216004+44400-068200FM-18+0003ATGM1V0202401N002119999999N9999999N1+00511+99999101141REMSYN069CMAN  02164 ATGM1 46/// /2404 10051 40114 91536 222// 0007 333 91206;
0078998252999992011010217004+44400-068200FM-18+0003ATGM1V0202401N002619999999N9999999N1+00531+99999101111REMSYN069CMAN  02174 ATGM1 46/// /2405 10053 40111 91636 222// 0007 333 91206;
0078998252999992011010218004+44400-068200FM-18+0003ATGM1V0202801N002119999999N9999999N1+00501+99999101041REMSYN069CMAN  02184 ATGM1 46/// /2804 10050 40104 91736 222// 0007 333 91205;
0078998252999992011010219004+44400-068200FM-18+0003ATGM1V0202301N002619999999N9999999N1+00471+99999101001REMSYN069CMAN  02194 ATGM1 46/// /2305 10047 40100 91836 222// 0007 333 91205;
0078998252999992011010220004+44400-068200FM-18+0003ATGM1V0202601N001019999999N9999999N1+00491+99999100941REMSYN069CMAN 02204 ATGM1 46/// /2602 10049 40094 91936 222// 00072 333 91203;
0078998252999992011010221004+44400-068200FM-18+0003ATGM1V0203301N002119999999N9999999N1+00471+99999100961REMSYN069CMAN  02214 ATGM1 46/// /3304 10047 40096 92036 222// 0007 333 91204;
0072998252999992011010222004+44400-068200FM-18+0003ATGM1V0203301N003119999999N9999999N1+00451+99999100961REMSYN063CMAN  02224 ATGM1 46/// /3306 10045 40096 92136 222// 00071232;
0078998252999992011010223004+44400-068200FM-18+0003ATGM1V0203101N002619999999N9999999N1+00431+99999100881REMSYN069CMAN  02234 ATGM1 46/// /3105 10043 40088 92236 222// 0007 333 91205;
0078998252999992011010300004+44400-068200FM-18+0003ATGM1V0202701N003119999999N9999999N1+00401+99999100951REMSYN069CMAN  03004 ATGM1 46/// /2706 10040 40095 92336 222// 0007 333 91205;
0115998252999992011010301004+44400-068200FM-18+0003ATGM1V0202901N002619999999N9999999N1+00391+99999100831REMSYN106CMAN  03014 ATGM1 46/// /2905 10039 40083 90036 222// 00072 84572 333 20204 50150 55064 56300 58014 84619;
0078998252999992011010302004+44400-068200FM-18+0003ATGM1V0203201N002619999999N9999999N1+00381+99999100691REMSYN069CMAN  03024 ATGM1 46/// /3205 10038 40069 90136 222// 0007 333 91202;
0078998252999992011010303004+44400-068200FM-18+0003ATGM1V0202601N001019999999N9999999N1+00371+99999100691REMSYN069CMAN  03034 ATGM1 46/// /2602 10037 40069 90236 222// 0007 333 91217;
0078998252999992011010304004+44400-068200FM-18+0003ATGM1V0202801N001519999999N9999999N1+00341+99999100661REMSYN069CMAN  03044 ATGM1 46/// /2803 10034 40066 90336 222// 0007 333 91208;
0078998252999992011010305004+44400-068200FM-18+0003ATGM1V0202501N003119999999N9999999N1+00341+99999100711REMSYN069CMAN  03054 ATGM1 46/// /2506 10034 40071 90436 222// 0007 333 91204;
0078998252999992011010306004+44400-068200FM-18+0003ATGM1V0202801N002619999999N9999999N1+00321+99999100561REMSYN069CMAN  03064 ATGM1 46/// /2805 10032 40056 90536 222// 0007 333 91203;
0078998252999992011010307004+44400-068200FM-18+0003ATGM1V0202801N004119999999N9999999N1+00191+99999100501REMSYN069CMAN  03074 ATGM1 46/// /2808 10019 40050 90636 222// 0007 333 91205;
0078998252999992011010308004+44400-068200FM-18+0003ATGM1V0202501N009319999999N9999999N1+00091+99999100611REMSYN069CMAN  03084 ATGM1 46/// /2518 10009 40061 90736 222// 0007 333 91203;
0078998252999992011010309004+44400-068200FM-18+0003ATGM1V0202601N010319999999N9999999N1+00011+99999100621REMSYN069CMAN  03094 ATGM1 46/// /2620 10001 40062 90836 222// 0006 333 91201;
0078998252999992011010310004+44400-068200FM-18+0003ATGM1V0202601N010819999999N9999999N1-00061+99999100691REMSYN069CMAN  03104 ATGM1 46/// /2621 11006 40069 90936 222// 0006 333 91230;
0078998252999992011010311004+44400-068200FM-18+0003ATGM1V0202501N011319999999N9999999N1-00131+99999100711REMSYN069CMAN  03114 ATGM1 46/// /2522 11013 40071 91036 222// 0006 333 91205;
0078998252999992011010312004+44400-068200FM-18+0003ATGM1V0202501N009819999999N9999999N1-00141+99999100751REMSYN069CMAN  03124 ATGM1 46/// /2519 11014 40075 91136 222// 0006 333 91203;
0078998252999992011010313004+44400-068200FM-18+0003ATGM1V0202401N011319999999N9999999N1-00171+99999100841REMSYN069CMAN  03134 ATGM1 46/// /2422 11017 40084 91236 222// 0006 333 91203;
0099998252999992011010314004+44400-068200FM-18+0003ATGM1V0202501N009819999999N9999999N1-00171+99999100881REMSYN090CMAN  03144 ATGM1 46/// /2519 11017 40088 91336 222// 00063 11402 21001 326// 41402 70012;
0078998252999992011010315004+44400-068200FM-18+0003ATGM1V0202401N010819999999N9999999N1-00161+99999100951REMSYN069CMAN  03154 ATGM1 46/// /2421 11016 40095 91436 222// 0006 333 91202;
0078998252999992011010316004+44400-068200FM-18+0003ATGM1V0202601N010819999999N9999999N1-00111+99999100941REMSYN069CMAN  03164 ATGM1 46/// /2621 11011 40094 91536 222// 0006 333 91205;
0078998252999992011010317004+44400-068200FM-18+0003ATGM1V0202501N012919999999N9999999N1-00131+99999100911REMSYN069CMAN  03174 ATGM1 46/// /2525 11013 40091 91636 222// 0006 333 91204;
0080998252999992011010318004+44400-068200FM-18+0003ATGM1V0202601N011319999999N9999999N1-00101+99999100901REMSYN071CMAN  03184 ATGM1 46/// /2622 11010 40090 91736 222// 0006 22200 00072;
0072998252999992011010319004+44400-068200FM-18+0003ATGM1V0202401N009819999999N9999999N1-00131+99999100921REMSYN063CMAN  03194 ATGM1 46/// /2419 11013 40092 91836 222// 00061207;
0078998252999992011010320004+44400-068200FM-18+0003ATGM1V0202501N012319999999N9999999N1-00151+99999100971REMSYN069CMAN  03204 ATGM1 46/// /2524 11015 40097 91936 222// 0006 333 91204;
0078998252999992011010321004+44400-068200FM-18+0003ATGM1V0202501N011819999999N9999999N1-00151+99999101021REMSYN069CMAN  03214 ATGM1 46/// /2523 11015 40102 92036 222// 0006 333 91205;
0078998252999992011010322004+44400-068200FM-18+0003ATGM1V0202401N007719999999N9999999N1-00201+99999101081REMSYN069CMAN  03224 ATGM1 46/// /2415 11020 40108 92136 222// 0006 333 91204;
0078998252999992011010323004+44400-068200FM-18+0003ATGM1V0202301N009319999999N9999999N1-00231+99999101151REMSYN069CMAN  03234 ATGM1 46/// /2318 11023 40115 92236 222// 0006 333 91204;
0078998252999992011010400004+44400-068200FM-18+0003ATGM1V0202301N010819999999N9999999N1-00251+99999101171REMSYN069CMAN  04004 ATGM1 46/// /2321 11025 40117 92336 222// 0006 333 91206;
0078998252999992011010401004+44400-068200FM-18+0003ATGM1V0202301N007719999999N9999999N1-00291+99999101211REMSYN069CMAN  04014 ATGM1 46/// /2315 11029 40121 90036 222// 0006 333 91205;
0078998252999992011010402004+44400-068200FM-18+0003ATGM1V0202401N009319999999N9999999N1-00291+99999101251REMSYN069CMAN  04024 ATGM1 46/// /2418 11029 40125 90136 222// 0006 333 91205;
0072998252999992011010403004+44400-068200FM-18+0003ATGM1V0202201N007719999999N9999999N1-00321+99999101231REMSYN063CMAN  04034 ATGM1 46/// /2215 11032 40123 90236 222// 00061217;
0127998252999992011010404004+44400-068200FM-18+0003ATGM1V0202201N005119999999N9999999N1-00321+99999101241REMSYN118CMAN  04044 ATGM1 46/// /2210 11032 40124 90336 222// 00060 22200 00242 11505 20804 329// 41504 70027 555 11096 22101;
0078998252999992011010405004+44400-068200FM-18+0003ATGM1V0202301N006719999999N9999999N1-00351+99999101191REMSYN069CMAN  04054 ATGM1 46/// /2313 11035 40119 90436 222// 0005 333 91204;
0078998252999992011010406004+44400-068200FM-18+0003ATGM1V0202201N006219999999N9999999N1-00391+99999101181REMSYN069CMAN  04064 ATGM1 46/// /2212 11039 40118 90536 222// 0005 333 91207;
0072998252999992011010407004+44400-068200FM-18+0003ATGM1V0202201N006219999999N9999999N1-00401+99999101201REMSYN063CMAN  04074 ATGM1 46/// /2212 11040 40120 90636 222// 00051211;
0078998252999992011010408004+44400-068200FM-18+0003ATGM1V0202201N005119999999N9999999N1-00421+99999101201REMSYN069CMAN  04084 ATGM1 46/// /2210 11042 40120 90736 222// 0005 333 91204;
0078998252999992011010409004+44400-068200FM-18+0003ATGM1V0202201N006219999999N9999999N1-00431+99999101171REMSYN069CMAN  04094 ATGM1 46/// /2212 11043 40117 90836 222// 0005 333 91201;
0078998252999992011010410004+44400-068200FM-18+0003ATGM1V0202201N006219999999N9999999N1-00451+99999101181REMSYN069CMAN  04104 ATGM1 46/// /2212 11045 40118 90936 222// 0006 333 91203;
0078998252999992011010411004+44400-068200FM-18+0003ATGM1V0202201N006219999999N9999999N1-00431+99999101201REMSYN069CMAN  04114 ATGM1 46/// /2212 11043 40120 91036 222// 0006 333 91203;
0078998252999992011010412004+44400-068200FM-18+0003ATGM1V0202201N007219999999N9999999N1-00421+99999101211REMSYN069CMAN  04124 ATGM1 46/// /2214 11042 40121 91136 222// 0006 333 91202;
0078998252999992011010413004+44400-068200FM-18+0003ATGM1V0202401N005719999999N9999999N1-00451+99999101191REMSYN069CMAN  04134 ATGM1 46/// /2411 11045 40119 91236 222// 0006 333 91214;
0078998252999992011010414004+44400-068200FM-18+0003ATGM1V0202301N006219999999N9999999N1-00361+99999101161REMSYN069CMAN  04144 ATGM1 46/// /2312 11036 40116 91336 222// 0006 333 91205;
0069998252999992011010415004+44400-068200FM-18+0003ATGM1V0202201N008219999999N9999999N1-00261+99999101091REMSYN060CMAN  04154 ATGM1 46/// /2216 11026 40109 91506 222// 00064;
0078998252999992011010416004+44400-068200FM-18+0003ATGM1V0202301N007719999999N9999999N1-00231+99999101011REMSYN069CMAN  04164 ATGM1 46/// /2315 11023 40101 91542 222// 0006 333 91203;
0078998252999992011010417004+44400-068200FM-18+0003ATGM1V0202401N008219999999N9999999N1-00201+99999100921REMSYN069CMAN  04174 ATGM1 46/// /2416 11020 40092 91636 222// 0006 333 91204;
0078998252999992011010418004+44400-068200FM-18+0003ATGM1V0202001N005719999999N9999999N1-00131+99999100831REMSYN069CMAN  04184 ATGM1 46/// /2011 11013 40083 91736 222// 0006 333 91204;
0078998252999992011010419004+44400-068200FM-18+0003ATGM1V0202201N004119999999N9999999N1-00081+99999100781REMSYN069CMAN  04194 ATGM1 46/// /2208 11008 40078 91836 222// 0006 333 91204;
0078998252999992011010420004+44400-068200FM-18+0003ATGM1V0202001N004119999999N9999999N1-00051+99999100721REMSYN069CMAN  04204 ATGM1 46/// /2008 11005 40072 91936 222// 0006 333 91213;
0078998252999992011010421004+44400-068200FM-18+0003ATGM1V0202001N003119999999N9999999N1-00081+99999100681REMSYN069CMAN  04214 ATGM1 46/// /2006 11008 40068 92036 222// 0005 333 91205;
0078998252999992011010422004+44400-068200FM-18+0003ATGM1V0202101N003619999999N9999999N1-00131+99999100661REMSYN069CMAN  04224 ATGM1 46/// /2107 11013 40066 92136 222// 0005 333 91205;
0068998252999992011010423004+44400-068200FM-18+0003ATGM1V0202001N004119999999N9999999N1-00121+99999100641REMSYN059CMAN  04234 ATGM1 46/// /2008 11012 40064 92236 222// 0006;
0068998252999992011010500004+44400-068200FM-18+0003ATGM1V0201901N003619999999N9999999N1-00111+99999100611REMSYN059CMAN  05004 ATGM1 46/// /1907 11011 40061 92336 222// 0006;
0078998252999992011010501004+44400-068200FM-18+0003ATGM1V0202001N002619999999N9999999N1-00111+99999100571REMSYN069CMAN  05014 ATGM1 46/// /2005 11011 40057 90036 222// 0006 333 91205;
0068998252999992011010502004+44400-068200FM-18+0003ATGM1V0202001N003119999999N9999999N1-00131+99999100521REMSYN059CMAN  05024 ATGM1 46/// /2006 11013 40052 90136 222// 0006;
0078998252999992011010503004+44400-068200FM-18+0003ATGM1V0202001N003619999999N9999999N1-00181+99999100471REMSYN069CMAN 05034 ATGM1 46/// /2007 11018 40047 90236 222// 00063 333 91210;
0078998252999992011010504004+44400-068200FM-18+0003ATGM1V0202201N003619999999N9999999N1-00181+99999100461REMSYN069CMAN  05044 ATGM1 46/// /2207 11018 40046 90336 222// 0006 333 91201;
0078998252999992011010505004+44400-068200FM-18+0003ATGM1V0202101N002619999999N9999999N1-00281+99999100391REMSYN069CMAN  05054 ATGM1 46/// /2105 11028 40039 90436 222// 0005 333 91202;
0068998252999992011010506004+44400-068200FM-18+0003ATGM1V0202201N003119999999N9999999N1-00331+99999100351REMSYN059CMAN  05064 ATGM1 46/// /2206 11033 40035 90536 222// 0006;
0078998252999992011010507004+44400-068200FM-18+0003ATGM1V0202201N002619999999N9999999N1-00421+99999100331REMSYN069CMAN  05074 ATGM1 46/// /2205 11042 40033 90636 222// 0005 333 91203;
0078998252999992011010508004+44400-068200FM-18+0003ATGM1V0202201N003119999999N9999999N1-00451+99999100311REMSYN069CMAN  05084 ATGM1 46/// /2206 11045 40031 90736 222// 0005 333 91202;
0000998252999992011010509004+44400-068200FM-18+0003ATGM1V0202201N003619999999N9999999N1-00471+99999100291
0078998252999992011010510004+44400-068200FM-18+0003ATGM1V0202001N004119999999N9999999N1-00501+99999100281REMSYN069CMAN  05104 ATGM1 46/// /2008 11050 40028 90936 222// 0005 333 91202;
0078998252999992011010511004+44400-068200FM-18+0003ATGM1V0202201N003119999999N9999999N1-00461+99999100281REMSYN069CMAN  05114 ATGM1 46/// /2206 11046 40028 91036 222// 0006 333 91203;
0078998252999992011010512004+44400-068200FM-18+0003ATGM1V0202001N004119999999N9999999N1-00491+99999100291REMSYN069CMAN  05124 ATGM1 46/// /2008 11049 40029 91136 222// 0006 333 91202;
0078998252999992011010513004+44400-068200FM-18+0003ATGM1V0202101N004119999999N9999999N1-00451+99999100291REMSYN069CMAN  05134 ATGM1 46/// /2108 11045 40029 91236 222// 0006 333 91209;
0078998252999992011010514004+44400-068200FM-18+0003ATGM1V0202101N005119999999N9999999N1-00411+99999100321REMSYN069CMAN  05144 ATGM1 46/// /2110 11041 40032 91336 222// 0006 333 91208;
0078998252999992011010515004+44400-068200FM-18+0003ATGM1V0202301N008719999999N9999999N1-00361+99999100321REMSYN069CMAN  05154 ATGM1 46/// /2317 11036 40032 91436 222// 0005 333 91202;
0078998252999992011010516004+44400-068200FM-18+0003ATGM1V0202301N009819999999N9999999N1-00291+99999100261REMSYN069CMAN  05164 ATGM1 46/// /2319 11029 40026 91536 222// 0005 333 91202;
0078998252999992011010517004+44400-068200FM-18+0003ATGM1V0202301N007219999999N9999999N1-00211+99999100191REMSYN069CMAN  05174 ATGM1 46/// /2314 11021 40019 91636 222// 0006 333 91202;
0068998252999992011010518004+44400-068200FM-18+0003ATGM1V0202401N009819999999N9999999N1-00121+99999100151REMSYN059CMAN  05184 ATGM1 46/// /2419 11012 40015 91736 222// 0006;
0078998252999992011010519004+44400-068200FM-18+0003ATGM1V0202401N008719999999N9999999N1-00081+99999100151REMSYN069CMAN  05194 ATGM1 46/// /2417 11008 40015 91836 222// 0006 333 91204;
0078998252999992011010520004+44400-068200FM-18+0003ATGM1V0202301N005719999999N9999999N1-00021+99999100151REMSYN069CMAN  05204 ATGM1 46/// /2311 11002 40015 91936 222// 0006 333 91205;
0078998252999992011010521004+44400-068200FM-18+0003ATGM1V0202201N005119999999N9999999N1-00041+99999100191REMSYN069CMAN  05214 ATGM1 46/// /2210 11004 40019 92036 222// 0006 333 91205;
0078998252999992011010522004+44400-068200FM-18+0003ATGM1V0202201N005119999999N9999999N1-00091+99999100231REMSYN069CMAN  05224 ATGM1 46/// /2210 11009 40023 92136 222// 0006 333 91205;
0078998252999992011010523004+44400-068200FM-18+0003ATGM1V0202301N008219999999N9999999N1-00131+99999100251REMSYN069CMAN  05234 ATGM1 46/// /2316 11013 40025 92236 222// 0006 333 91208;
0078998252999992011010600004+44400-068200FM-18+0003ATGM1V0202201N006719999999N9999999N1-00191+99999100291REMSYN069CMAN  06004 ATGM1 46/// /2213 11019 40029 92336 222// 0005 333 91206;
0078998252999992011010601004+44400-068200FM-18+0003ATGM1V0202201N007719999999N9999999N1-00251+99999100321REMSYN069CMAN  06014 ATGM1 46/// /2215 11025 40032 90036 222// 0005 333 91205;
0078998252999992011010602004+44400-068200FM-18+0003ATGM1V0202101N005119999999N9999999N1-00311+99999100341REMSYN069CMAN  06024 ATGM1 46/// /2110 11031 40034 90136 222// 0006 333 91204;
0078998252999992011010603004+44400-068200FM-18+0003ATGM1V0202301N006219999999N9999999N1-00371+99999100341REMSYN069CMAN  06034 ATGM1 46/// /2312 11037 40034 90236 222// 0006 333 91204;
0068998252999992011010604004+44400-068200FM-18+0003ATGM1V0202201N004619999999N9999999N1-00431+99999100361REMSYN059CMAN  06044 ATGM1 46/// /2209 11043 40036 90336 222// 0005;
0078998252999992011010605004+44400-068200FM-18+0003ATGM1V0202101N003119999999N9999999N1-00481+99999100351REMSYN069CMAN  06054 ATGM1 46/// /2106 11048 40035 90436 222// 0005 333 91202;
0078998252999992011010606004+44400-068200FM-18+0003ATGM1V0202001N004619999999N9999999N1-00501+99999100371REMSYN069CMAN  06064 ATGM1 46/// /2009 11050 40037 90536 222// 0005 333 91203;
0000998252999992011010607004+44400-068200FM-18+0003ATGM1V0202201N002619999999N9999999N1-00491+99999100381
0078998252999992011010608004+44400-068200FM-18+0003ATGM1V0202301N005719999999N9999999N1-00481+99999100381REMSYN069CMAN  06084 ATGM1 46/// /2311 11048 40038 90736 222// 0005 333 91205;
0078998252999992011010609004+44400-068200FM-18+0003ATGM1V0202201N005119999999N9999999N1-00541+99999100401REMSYN069CMAN  06094 ATGM1 46/// /2210 11054 40040 90836 222// 0005 333 91205;
0078998252999992011010610004+44400-068200FM-18+0003ATGM1V0202201N002619999999N9999999N1-00611+99999100421REMSYN069CMAN  06104 ATGM1 46/// /2205 11061 40042 90936 222// 0005 333 91202;
0078998252999992011010611004+44400-068200FM-18+0003ATGM1V0202001N003619999999N9999999N1-00661+99999100441REMSYN069CMAN  06114 ATGM1 46/// /2007 11066 40044 91036 222// 0005 333 91205;
0078998252999992011010612004+44400-068200FM-18+0003ATGM1V0201701N002619999999N9999999N1-00711+99999100501REMSYN069CMAN  06124 ATGM1 46/// /1705 11071 40050 91136 222// 0005 333 91203;
0078998252999992011010613004+44400-068200FM-18+0003ATGM1V0201701N001519999999N9999999N1-00671+99999100501REMSYN069CMAN  06134 ATGM1 46/// /1703 11067 40050 91236 222// 0005 333 91204;
0000998252999992011010614004+44400-068200FM-18+0003ATGM1V0201801N001519999999N9999999N1-00591+99999100521
0078998252999992011010615004+44400-068200FM-18+0003ATGM1V0202001N004619999999N9999999N1-00501+99999100521REMSYN069CMAN  06154 ATGM1 46/// /2009 11050 40052 91436 222// 0005 333 91202;
0078998252999992011010616004+44400-068200FM-18+0003ATGM1V0202001N003619999999N9999999N1-00451+99999100471REMSYN069CMAN  06164 ATGM1 46/// /2007 11045 40047 91536 222// 0005 333 91204;
0078998252999992011010617004+44400-068200FM-18+0003ATGM1V0202401N003119999999N9999999N1-00451+99999100381REMSYN069CMAN  06174 ATGM1 46/// /2406 11045 40038 91636 222// 0005 333 91211;
0078998252999992011010618004+44400-068200FM-18+0003ATGM1V0202201N003619999999N9999999N1-00411+99999100341REMSYN069CMAN  06184 ATGM1 46/// /2207 11041 40034 91736 222// 0005 333 91205;
0068998252999992011010619004+44400-068200FM-18+0003ATGM1V0201201N001519999999N9999999N1-00311+99999100341REMSYN059CMAN  06194 ATGM1 46/// /1203 11031 40034 91836 222// 0005;
0078998252999992011010620004+44400-068200FM-18+0003ATGM1V0202401N004119999999N9999999N1-00331+99999100351REMSYN069CMAN  06204 ATGM1 46/// /2408 11033 40035 91936 222// 0005 333 91205;
0078998252999992011010621004+44400-068200FM-18+0003ATGM1V0202401N002619999999N9999999N1-00311+99999100381REMSYN069CMAN  06214 ATGM1 46/// /2405 11031 40038 92036 222// 0005 333 91205;
0078998252999992011010622004+44400-068200FM-18+0003ATGM1V0201701N001019999999N9999999N1-00351+99999100421REMSYN069CMAN  06224 ATGM1 46/// /1702 11035 40042 92136 222// 0005 333 91210;
0078998252999992011010623004+44400-068200FM-18+0003ATGM1V02099999999999999999N9999999N1-00441+99999100411REMSYN069CMAN  06234 ATGM1 46/// /27// 11044 40041 92236 222// 0005 333 91206;
0078998252999992011010700004+44400-068200FM-18+0003ATGM1V0201801N001519999999N9999999N1-00471+99999100431REMSYN069CMAN  07004 ATGM1 46/// /1803 11047 40043 92336 222// 0005 333 91206;
0078998252999992011010701004+44400-068200FM-18+0003ATGM1V0202201N000519999999N9999999N1-00471+99999100431REMSYN069CMAN  07014 ATGM1 46/// /2201 11047 40043 90036 222// 0005 333 91205;
0078998252999992011010702004+44400-068200FM-18+0003ATGM1V0203601N003119999999N9999999N1-00351+99999100411REMSYN069CMAN  07024 ATGM1 46/// /3606 11035 40041 90136 222// 0005 333 91207;
0078998252999992011010703004+44400-068200FM-18+0003ATGM1V0203601N001519999999N9999999N1-00351+99999100441REMSYN069CMAN  07034 ATGM1 46/// /3603 11035 40044 90236 222// 0005 333 91205;
0078998252999992011010704004+44400-068200FM-18+0003ATGM1V0203601N002619999999N9999999N1-00381+99999100431REMSYN069CMAN  07044 ATGM1 46/// /3605 11038 40043 90336 222// 0005 333 91205;
0078998252999992011010705004+44400-068200FM-18+0003ATGM1V0203601N003119999999N9999999N1-00421+99999100391REMSYN069CMAN  07054 ATGM1 46/// /3606 11042 40039 90436 222// 0005 333 91205;
0078998252999992011010706004+44400-068200FM-18+0003ATGM1V0203501N003119999999N9999999N1-00411+99999100341REMSYN069CMAN  07064 ATGM1 46/// /3506 11041 40034 90536 222// 0005 333 91205;
0078998252999992011010707004+44400-068200FM-18+0003ATGM1V0203301N003119999999N9999999N1-00471+99999100351REMSYN069CMAN  07074 ATGM1 46/// /3306 11047 40035 90636 222// 0005 333 91205;
0078998252999992011010708004+44400-068200FM-18+0003ATGM1V0202701N001519999999N9999999N1-00521+99999100371REMSYN069CMAN  07084 ATGM1 46/// /2703 11052 40037 90736 222// 0005 333 91205;
0078998252999992011010709004+44400-068200FM-18+0003ATGM1V0202501N002619999999N9999999N1-00671+99999100351REMSYN069CMAN  07094 ATGM1 46/// /2505 11067 40035 90836 222// 0005 333 91205;
0078998252999992011010710004+44400-068200FM-18+0003ATGM1V0202101N002619999999N9999999N1-00761+99999100381REMSYN069CMAN  07104 ATGM1 46/// /2105 11076 40038 90936 222// 0005 333 91205;
0078998252999992011010711004+44400-068200FM-18+0003ATGM1V0203201N002619999999N9999999N1-00621+99999100381REMSYN069CMAN  07114 ATGM1 46/// /3205 11062 40038 91036 222// 0005 333 91205;
0068998252999992011010712004+44400-068200FM-18+0003ATGM1V0203401N005719999999N9999999N1-00601+99999100351REMSYN059CMAN  07124 ATGM1 46/// /3411 11060 40035 91136 222// 0005;
0078998252999992011010713004+44400-068200FM-18+0003ATGM1V0203401N003119999999N9999999N1-00651+99999100381REMSYN069CMAN  07134 ATGM1 46/// /3406 11065 40038 91236 222// 0005 333 91205;
0078998252999992011010714004+44400-068200FM-18+0003ATGM1V0203301N001019999999N9999999N1-00641+99999100381REMSYN069CMAN  07144 ATGM1 46/// /3302 11064 40038 91336 222// 0005 333 91206;
0078998252999992011010715004+44400-068200FM-18+0003ATGM1V0202701N002619999999N9999999N1-00631+99999100351REMSYN069CMAN  07154 ATGM1 46/// /2705 11063 40035 91436 222// 0005 333 91203;
0078998252999992011010716004+44400-068200FM-18+0003ATGM1V0202501N002619999999N9999999N1-00581+99999100231REMSYN069CMAN  07164 ATGM1 46/// /2505 11058 40023 91536 222// 0005 333 91202;
0078998252999992011010717004+44400-068200FM-18+0003ATGM1V0202701N003119999999N9999999N1-00421+99999100051REMSYN069CMAN  07174 ATGM1 46/// /2706 11042 40005 91636 222// 0005 333 91204;
0068998252999992011010718004+44400-068200FM-18+0003ATGM1V0202801N003119999999N9999999N1-00271+99999100001REMSYN059CMAN  07184 ATGM1 46/// /2806 11027 40000 91736 222// 0006;
0078998252999992011010719004+44400-068200FM-18+0003ATGM1V0202701N003619999999N9999999N1-00201+99999100031REMSYN069CMAN  07194 ATGM1 46/// /2707 11020 40003 91836 222// 0005 333 91203;
0078998252999992011010720004+44400-068200FM-18+0003ATGM1V0203001N002619999999N9999999N1-00191+99999100011REMSYN069CMAN  07204 ATGM1 46/// /3005 11019 40001 91936 222// 0005 333 91206;
0078998252999992011010721004+44400-068200FM-18+0003ATGM1V0203101N004119999999N9999999N1-00211+99999099971REMSYN069CMAN  07214 ATGM1 46/// /3108 11021 49997 92036 222// 0005 333 91205;
0078998252999992011010722004+44400-068200FM-18+0003ATGM1V0202701N002619999999N9999999N1-00261+99999099981REMSYN069CMAN  07224 ATGM1 46/// /2705 11026 49998 92136 222// 0005 333 91205;
0078998252999992011010723004+44400-068200FM-18+0003ATGM1V0202801N003119999999N9999999N1-00301+99999099951REMSYN069CMAN  07234 ATGM1 46/// /2806 11030 49995 92236 222// 0005 333 91211;
0078998252999992011010800004+44400-068200FM-18+0003ATGM1V0202601N004619999999N9999999N1-00331+99999099911REMSYN069CMAN  08004 ATGM1 46/// /2609 11033 49991 92336 222// 0005 333 91205;
0078998252999992011010801004+44400-068200FM-18+0003ATGM1V0202901N003619999999N9999999N1-00331+99999099881REMSYN069CMAN  08014 ATGM1 46/// /2907 11033 49988 90036 222// 0005 333 91205;
0068998252999992011010802004+44400-068200FM-18+0003ATGM1V0202601N003619999999N9999999N1-00321+99999099831REMSYN059CMAN  08024 ATGM1 46/// /2607 11032 49983 90142 222// 0005;
0078998252999992011010803004+44400-068200FM-18+0003ATGM1V0202701N003619999999N9999999N1-00331+99999099741REMSYN069CMAN  08034 ATGM1 46/// /2707 11033 49974 90236 222// 0005 333 91205;
0078998252999992011010804004+44400-068200FM-18+0003ATGM1V0202601N003119999999N9999999N1-00321+99999099811REMSYN069CMAN  08044 ATGM1 46/// /2606 11032 49981 90336 222// 0005 333 91204;
0078998252999992011010805004+44400-068200FM-18+0003ATGM1V0202401N003619999999N9999999N1-00321+99999099741REMSYN069CMAN  08054 ATGM1 46/// /2407 11032 49974 90436 222// 0005 333 91203;
0078998252999992011010806004+44400-068200FM-18+0003ATGM1V0202601N004119999999N9999999N1-00351+99999099711REMSYN069CMAN  08064 ATGM1 46/// /2608 11035 49971 90536 222// 0005 333 91202;
0078998252999992011010807004+44400-068200FM-18+0003ATGM1V0202601N004619999999N9999999N1-00301+99999099701REMSYN069CMAN  08074 ATGM1 46/// /2609 11030 49970 90636 222// 0005 333 91203;
0078998252999992011010808004+44400-068200FM-18+0003ATGM1V0202501N004119999999N9999999N1-00291+99999099691REMSYN069CMAN  08084 ATGM1 46/// /2508 11029 49969 90736 222// 0005 333 91203;
0078998252999992011010809004+44400-068200FM-18+0003ATGM1V0202601N004119999999N9999999N1-00271+99999099711REMSYN069CMAN  08094 ATGM1 46/// /2608 11027 49971 90836 222// 0005 333 91203;
0078998252999992011010810004+44400-068200FM-18+0003ATGM1V0202601N005119999999N9999999N1-00261+99999099671REMSYN069CMAN  08104 ATGM1 46/// /2610 11026 49967 90936 222// 0005 333 91204;
0078998252999992011010811004+44400-068200FM-18+0003ATGM1V0202701N003119999999N9999999N1-00251+99999099701REMSYN069CMAN  08114 ATGM1 46/// /2706 11025 49970 91036 222// 0005 333 91205;
0068998252999992011010812004+44400-068200FM-18+0003ATGM1V0202601N003119999999N9999999N1-00251+99999099721REMSYN059CMAN  08124 ATGM1 46/// /2606 11025 49972 91136 222// 0005;
0078998252999992011010813004+44400-068200FM-18+0003ATGM1V0202701N004119999999N9999999N1-00241+99999099751REMSYN069CMAN  08134 ATGM1 46/// /2708 11024 49975 91236 222// 0005 333 91206;
0068998252999992011010814004+44400-068200FM-18+0003ATGM1V0202701N003619999999N9999999N1-00231+99999099791REMSYN059CMAN  08144 ATGM1 46/// /2707 11023 49979 91336 222// 0005;
0078998252999992011010815004+44400-068200FM-18+0003ATGM1V0202701N003119999999N9999999N1-00221+99999099831REMSYN069CMAN  08154 ATGM1 46/// /2706 11022 49983 91436 222// 0005 333 91203;
0078998252999992011010816004+44400-068200FM-18+0003ATGM1V0202501N004119999999N9999999N1-00191+99999099831REMSYN069CMAN  08164 ATGM1 46/// /2508 11019 49983 91536 222// 0005 333 91203;
0078998252999992011010817004+44400-068200FM-18+0003ATGM1V0202401N003619999999N9999999N1-00171+99999099761REMSYN069CMAN  08174 ATGM1 46/// /2407 11017 49976 91636 222// 0005 333 91205;
0078998252999992011010818004+44400-068200FM-18+0003ATGM1V0202601N003619999999N9999999N1-00181+99999099741REMSYN069CMAN  08184 ATGM1 46/// /2607 11018 49974 91736 222// 0005 333 91205;
0078998252999992011010819004+44400-068200FM-18+0003ATGM1V0202601N004119999999N9999999N1-00131+99999099721REMSYN069CMAN  08194 ATGM1 46/// /2608 11013 49972 91836 222// 0005 333 91203;
0078998252999992011010820004+44400-068200FM-18+0003ATGM1V0202501N004119999999N9999999N1-00121+99999099741REMSYN069CMAN  08204 ATGM1 46/// /2508 11012 49974 91936 222// 0005 333 91205;
0078998252999992011010821004+44400-068200FM-18+0003ATGM1V0202401N003119999999N9999999N1-00111+99999099771REMSYN069CMAN  08214 ATGM1 46/// /2406 11011 49977 92036 222// 0005 333 91202;
0078998252999992011010822004+44400-068200FM-18+0003ATGM1V0202601N004119999999N9999999N1-00121+99999099731REMSYN069CMAN  08224 ATGM1 46/// /2608 11012 49973 92136 222// 0005 333 91205;
0078998252999992011010823004+44400-068200FM-18+0003ATGM1V0202501N003119999999N9999999N1-00071+99999099681REMSYN069CMAN  08234 ATGM1 46/// /2506 11007 49968 92236 222// 0005 333 91203;
0078998252999992011010900004+44400-068200FM-18+0003ATGM1V0203601N005119999999N9999999N1+00091+99999099691REMSYN069CMAN  09004 ATGM1 46/// /3610 10009 49969 92336 222// 0005 333 91204;
0078998252999992011010901004+44400-068200FM-18+0003ATGM1V0203501N007719999999N9999999N1+00081+99999099551REMSYN069CMAN  09014 ATGM1 46/// /3515 10008 49955 90036 222// 0005 333 91203;
0068998252999992011010902004+44400-068200FM-18+0003ATGM1V0203601N005119999999N9999999N1+00051+99999099551REMSYN059CMAN  09024 ATGM1 46/// /3610 10005 49955 90136 222// 0005;
0078998252999992011010903004+44400-068200FM-18+0003ATGM1V0203501N006219999999N9999999N1+00031+99999099501REMSYN069CMAN  09034 ATGM1 46/// /3512 10003 49950 90236 222// 0005 333 91203;
0078998252999992011010904004+44400-068200FM-18+0003ATGM1V0203401N007219999999N9999999N1-00021+99999099551REMSYN069CMAN  09044 ATGM1 46/// /3414 11002 49955 90336 222// 0005 333 91204;
0078998252999992011010905004+44400-068200FM-18+0003ATGM1V0203301N007219999999N9999999N1-00111+99999099461REMSYN069CMAN  09054 ATGM1 46/// /3314 11011 49946 90436 222// 0005 333 91204;
0078998252999992011010906004+44400-068200FM-18+0003ATGM1V0203201N008219999999N9999999N1-00161+99999099391REMSYN069CMAN  09064 ATGM1 46/// /3216 11016 49939 90536 222// 0005 333 91206;
0068998252999992011010907004+44400-068200FM-18+0003ATGM1V0203101N003619999999N9999999N1-00171+99999099321REMSYN059CMAN  09074 ATGM1 46/// /3107 11017 49932 90636 222// 0005;
0078998252999992011010908004+44400-068200FM-18+0003ATGM1V0203101N007219999999N9999999N1-00201+99999099251REMSYN069CMAN  09084 ATGM1 46/// /3114 11020 49925 90736 222// 0005 333 91205;
0078998252999992011010909004+44400-068200FM-18+0003ATGM1V0203201N005719999999N9999999N1-00221+99999099391REMSYN069CMAN  09094 ATGM1 46/// /3211 11022 49939 90836 222// 0005 333 91205;
0078998252999992011010910004+44400-068200FM-18+0003ATGM1V0202901N004119999999N9999999N1-00251+99999099331REMSYN069CMAN  09104 ATGM1 46/// /2908 11025 49933 90936 222// 0005 333 91205;
0078998252999992011010911004+44400-068200FM-18+0003ATGM1V0203101N004619999999N9999999N1-00261+99999099321REMSYN069CMAN  09114 ATGM1 46/// /3109 11026 49932 91036 222// 0005 333 91206;
0078998252999992011010912004+44400-068200FM-18+0003ATGM1V0202801N006219999999N9999999N1-00241+99999099341REMSYN069CMAN  09124 ATGM1 46/// /2812 11024 49934 91136 222// 0004 333 91206;
0078998252999992011010913004+44400-068200FM-18+0003ATGM1V0202801N006719999999N9999999N1-00261+99999099401REMSYN069CMAN  09134 ATGM1 46/// /2813 11026 49940 91236 222// 0004 333 91205;
0000998252999992011010914004+44400-068200FM-18+0003ATGM1V0202601N007219999999N9999999N1-00261+99999099441
0078998252999992011010915004+44400-068200FM-18+0003ATGM1V0202601N008219999999N9999999N1-00181+99999099451REMSYN069CMAN  09154 ATGM1 46/// /2616 11018 49945 91436 222// 0004 333 91206;
0068998252999992011010916004+44400-068200FM-18+0003ATGM1V0202601N010319999999N9999999N1-00161+99999099431REMSYN059CMAN  09164 ATGM1 46/// /2620 11016 49943 91536 222// 0004;
0078998252999992011010917004+44400-068200FM-18+0003ATGM1V0202701N009319999999N9999999N1-00111+99999099441REMSYN069CMAN  09174 ATGM1 46/// /2718 11011 49944 91636 222// 0004 333 91201;
0078998252999992011010918004+44400-068200FM-18+0003ATGM1V0202601N010819999999N9999999N1-00051+99999099471REMSYN069CMAN  09184 ATGM1 46/// /2621 11005 49947 91736 222// 0004 333 91205;
0078998252999992011010919004+44400-068200FM-18+0003ATGM1V0202601N008219999999N9999999N1+00041+99999099561REMSYN069CMAN  09194 ATGM1 46/// /2616 10004 49956 91836 222// 0004 333 91205;
0078998252999992011010920004+44400-068200FM-18+0003ATGM1V0202601N009819999999N9999999N1+00061+99999099681REMSYN069CMAN  09204 ATGM1 46/// /2619 10006 49968 91936 222// 0004 333 91205;
0068998252999992011010921004+44400-068200FM-18+0003ATGM1V0202501N009319999999N9999999N1+00061+99999099801REMSYN059CMAN  09214 ATGM1 46/// /2518 10006 49980 92036 222// 0004;
0078998252999992011010922004+44400-068200FM-18+0003ATGM1V0202601N010319999999N9999999N1-00021+99999099931REMSYN069CMAN  09224 ATGM1 46/// /2620 11002 49993 92136 222// 0004 333 91205;
0078998252999992011010923004+44400-068200FM-18+0003ATGM1V0202401N009319999999N9999999N1-00081+99999100021REMSYN069CMAN  09234 ATGM1 46/// /2418 11008 40002 92236 222// 0004 333 91205;
0000998252999992011011000004+44400-068200FM-18+0003ATGM1V0202401N008719999999N9999999N1-00091+99999100141
0078998252999992011011001004+44400-068200FM-18+0003ATGM1V0202301N006719999999N9999999N1-00161+99999100211REMSYN069CMAN  10014 ATGM1 46/// /2313 11016 40021 90036 222// 0004 333 91205;
0078998252999992011011002004+44400-068200FM-18+0003ATGM1V0202301N008719999999N9999999N1-00181+99999100261REMSYN069CMAN  10024 ATGM1 46/// /2317 11018 40026 90136 222// 0005 333 91204;
0078998252999992011011003004+44400-068200FM-18+0003ATGM1V0202301N010319999999N9999999N1-00201+99999100311REMSYN069CMAN  10034 ATGM1 46/// /2320 11020 40031 90236 222// 0005 333 91202;
0078998252999992011011004004+44400-068200FM-18+0003ATGM1V0202301N011819999999N9999999N1-00241+99999100381REMSYN069CMAN  10044 ATGM1 46/// /2323 11024 40038 90336 222// 0005 333 91202;
0078998252999992011011005004+44400-068200FM-18+0003ATGM1V0202301N011319999999N9999999N1-00301+99999100411REMSYN069CMAN  10054 ATGM1 46/// /2322 11030 40041 90436 222// 0005 333 91204;
0078998252999992011011006004+44400-068200FM-18+0003ATGM1V0202301N011319999999N9999999N1-00341+99999100471REMSYN069CMAN  10064 ATGM1 46/// /2322 11034 40047 90536 222// 0004 333 91202;
0078998252999992011011007004+44400-068200FM-18+0003ATGM1V0202201N007219999999N9999999N1-00391+99999100541REMSYN069CMAN  10074 ATGM1 46/// /2214 11039 40054 90636 222// 0004 333 91201;
0078998252999992011011008004+44400-068200FM-18+0003ATGM1V0202301N006219999999N9999999N1-00401+99999100591REMSYN069CMAN  10084 ATGM1 46/// /2312 11040 40059 90736 222// 0004 333 91201;
0078998252999992011011009004+44400-068200FM-18+0003ATGM1V0202301N009319999999N9999999N1-00411+99999100611REMSYN069CMAN  10094 ATGM1 46/// /2318 11041 40061 90836 222// 0004 333 91205;
0078998252999992011011010004+44400-068200FM-18+0003ATGM1V0202401N008219999999N9999999N1-00361+99999100631REMSYN069CMAN  10104 ATGM1 46/// /2416 11036 40063 90936 222// 0004 333 91204;
0078998252999992011011011004+44400-068200FM-18+0003ATGM1V0202301N007719999999N9999999N1-00361+99999100651REMSYN069CMAN  10114 ATGM1 46/// /2315 11036 40065 91036 222// 0004 333 91205;
0078998252999992011011012004+44400-068200FM-18+0003ATGM1V0202301N007719999999N9999999N1-00341+99999100721REMSYN069CMAN  10124 ATGM1 46/// /2315 11034 40072 91136 222// 0004 333 91202;
0078998252999992011011013004+44400-068200FM-18+0003ATGM1V0202401N009319999999N9999999N1-00311+99999100811REMSYN069CMAN  10134 ATGM1 46/// /2418 11031 40081 91236 222// 0004 333 91205;
0078998252999992011011014004+44400-068200FM-18+0003ATGM1V0202301N010319999999N9999999N1-00311+99999100861REMSYN069CMAN  10144 ATGM1 46/// /2320 11031 40086 91336 222// 0004 333 91205;
0078998252999992011011015004+44400-068200FM-18+0003ATGM1V0202401N009319999999N9999999N1-00281+99999100931REMSYN069CMAN  10154 ATGM1 46/// /2418 11028 40093 91436 222// 0004 333 91205;
0068998252999992011011016004+44400-068200FM-18+0003ATGM1V0202401N009319999999N9999999N1-00221+99999100911REMSYN059CMAN  10164 ATGM1 46/// /2418 11022 40091 91536 222// 0004;
0068998252999992011011017004+44400-068200FM-18+0003ATGM1V0202401N009819999999N9999999N1-00071+99999100881REMSYN059CMAN  10174 ATGM1 46/// /2419 11007 40088 91636 222// 0005;
0078998252999992011011018004+44400-068200FM-18+0003ATGM1V0202501N010819999999N9999999N1+00041+99999100851REMSYN069CMAN  10184 ATGM1 46/// /2521 10004 40085 91736 222// 0004 333 91205;
0078998252999992011011019004+44400-068200FM-18+0003ATGM1V0202501N009319999999N9999999N1+00101+99999100901REMSYN069CMAN  10194 ATGM1 46/// /2518 10010 40090 91836 222// 0005 333 91208;
0078998252999992011011020004+44400-068200FM-18+0003ATGM1V0202501N009319999999N9999999N1+00081+99999101031REMSYN069CMAN  10204 ATGM1 46/// /2518 10008 40103 91936 222// 0005 333 91208;
0078998252999992011011021004+44400-068200FM-18+0003ATGM1V0202501N011319999999N9999999N1+00071+99999101121REMSYN069CMAN  10214 ATGM1 46/// /2522 10007 40112 92036 222// 0005 333 91204;
0078998252999992011011022004+44400-068200FM-18+0003ATGM1V0202501N009319999999N9999999N1+00001+99999101221REMSYN069CMAN  10224 ATGM1 46/// /2518 10000 40122 92136 222// 0005 333 91206;
0078998252999992011011023004+44400-068200FM-18+0003ATGM1V0202501N009319999999N9999999N1-00061+99999101351REMSYN069CMAN  10234 ATGM1 46/// /2518 11006 40135 92236 222// 0005 333 91207;
0078998252999992011011100004+44400-068200FM-18+0003ATGM1V0202501N006719999999N9999999N1-00141+99999101501REMSYN069CMAN  11004 ATGM1 46/// /2513 11014 40150 92336 222// 0005 333 91206;
0078998252999992011011101004+44400-068200FM-18+0003ATGM1V0202501N009319999999N9999999N1-00261+99999101591REMSYN069CMAN  11014 ATGM1 46/// /2518 11026 40159 90036 222// 0004 333 91205;
0090998252999992011011102004+44400-068200FM-18+0003ATGM1V0202401N009819999999N9999999N1-00341+99999101651REMSYN081CMAN  11024 ATGM1 46/// /2419 11034 40165 90136 222// 0004 71022 886// 333 88701;
0078998252999992011011103004+44400-068200FM-18+0003ATGM1V0202401N008719999999N9999999N1-00411+99999101711REMSYN069CMAN  11034 ATGM1 46/// /2417 11041 40171 90236 222// 0004 333 91203;
0068998252999992011011104004+44400-068200FM-18+0003ATGM1V0202401N007719999999N9999999N1-00431+99999101731REMSYN059CMAN  11044 ATGM1 46/// /2415 11043 40173 90336 222// 0004;
0078998252999992011011105004+44400-068200FM-18+0003ATGM1V0202301N005719999999N9999999N1-00471+99999101731REMSYN069CMAN  11054 ATGM1 46/// /2311 11047 40173 90436 222// 0005 333 91203;
0078998252999992011011106004+44400-068200FM-18+0003ATGM1V0202301N005719999999N9999999N1-00471+99999101841REMSYN069CMAN  11064 ATGM1 46/// /2311 11047 40184 90536 222// 0005 333 91205;
0068998252999992011011107004+44400-068200FM-18+0003ATGM1V0202301N006219999999N9999999N1-00491+99999101911REMSYN059CMAN  11074 ATGM1 46/// /2312 11049 40191 90636 222// 0005;
0078998252999992011011108004+44400-068200FM-18+0003ATGM1V0202401N007719999999N9999999N1-00481+99999101981REMSYN069CMAN  11084 ATGM1 46/// /2415 11048 40198 90736 222// 0004 333 91204;
0078998252999992011011109004+44400-068200FM-18+0003ATGM1V0202301N005719999999N9999999N1-00531+99999102001REMSYN069CMAN  11094 ATGM1 46/// /2311 11053 40200 90836 222// 0004 333 91203;
0078998252999992011011110004+44400-068200FM-18+0003ATGM1V0202401N006219999999N9999999N1-00551+99999102021REMSYN069CMAN  11104 ATGM1 46/// /2412 11055 40202 90936 222// 0004 333 91204;
0078998252999992011011111004+44400-068200FM-18+0003ATGM1V0202401N006219999999N9999999N1-00501+99999102051REMSYN069CMAN  11114 ATGM1 46/// /2412 11050 40205 91036 222// 0004 333 91205;
0078998252999992011011112004+44400-068200FM-18+0003ATGM1V0202601N006719999999N9999999N1-00511+99999102111REMSYN069CMAN  11124 ATGM1 46/// /2613 11051 40211 91136 222// 0004 333 91204;
0078998252999992011011113004+44400-068200FM-18+0003ATGM1V0202201N005119999999N9999999N1-00531+99999102211REMSYN069CMAN  11134 ATGM1 46/// /2210 11053 40221 91236 222// 0004 333 91203;
0078998252999992011011114004+44400-068200FM-18+0003ATGM1V0202601N005119999999N9999999N1-00521+99999102231REMSYN069CMAN  11144 ATGM1 46/// /2610 11052 40223 91336 222// 0004 333 91203;
0078998252999992011011115004+44400-068200FM-18+0003ATGM1V0202501N004119999999N9999999N1-00471+99999102271REMSYN069CMAN  11154 ATGM1 46/// /2508 11047 40227 91436 222// 0004 333 91205;
0078998252999992011011116004+44400-068200FM-18+0003ATGM1V0202601N004119999999N9999999N1-00371+99999102231REMSYN069CMAN  11164 ATGM1 46/// /2608 11037 40223 91536 222// 0004 333 91202;
0078998252999992011011117004+44400-068200FM-18+0003ATGM1V0202701N003619999999N9999999N1-00321+99999102131REMSYN069CMAN  11174 ATGM1 46/// /2707 11032 40213 91636 222// 0004 333 91202;
0078998252999992011011118004+44400-068200FM-18+0003ATGM1V0202501N004619999999N9999999N1-00311+99999102091REMSYN069CMAN  11184 ATGM1 46/// /2509 11031 40209 91736 222// 0004 333 91204;
0078998252999992011011119004+44400-068200FM-18+0003ATGM1V0202401N003619999999N9999999N1-00281+99999102101REMSYN069CMAN  11194 ATGM1 46/// /2407 11028 40210 91836 222// 0004 333 91202;
0078998252999992011011120004+44400-068200FM-18+0003ATGM1V0202701N003619999999N9999999N1-00251+99999102161REMSYN069CMAN  11204 ATGM1 46/// /2707 11025 40216 91936 222// 0004 333 91203;
0078998252999992011011121004+44400-068200FM-18+0003ATGM1V0202601N002619999999N9999999N1-00251+99999102131REMSYN069CMAN  11214 ATGM1 46/// /2605 11025 40213 92036 222// 0004 333 91203;
0078998252999992011011122004+44400-068200FM-18+0003ATGM1V0202701N002619999999N9999999N1-00231+99999102121REMSYN069CMAN  11224 ATGM1 46/// /2705 11023 40212 92136 222// 0004 333 91214;
0078998252999992011011123004+44400-068200FM-18+0003ATGM1V0202901N002119999999N9999999N1-00231+99999102151REMSYN069CMAN  11234 ATGM1 46/// /2904 11023 40215 92236 222// 0004 333 91204;
0078998252999992011011200004+44400-068200FM-18+0003ATGM1V0202101N002119999999N9999999N1-00251+99999102141REMSYN069CMAN  12004 ATGM1 46/// /2104 11025 40214 92336 222// 0004 333 91203;
0068998252999992011011201004+44400-068200FM-18+0003ATGM1V0202301N001519999999N9999999N1-00261+99999102081REMSYN059CMAN  12014 ATGM1 46/// /2303 11026 40208 90036 222// 0004;
0078998252999992011011202004+44400-068200FM-18+0003ATGM1V0202001N001019999999N9999999N1-00271+99999102061REMSYN069CMAN  12024 ATGM1 46/// /2002 11027 40206 90136 222// 0004 333 91203;
0078998252999992011011203004+44400-068200FM-18+0003ATGM1V0202201N001019999999N9999999N1-00281+99999101991REMSYN069CMAN  12034 ATGM1 46/// /2202 11028 40199 90236 222// 0004 333 91203;
0078998252999992011011204004+44400-068200FM-18+0003ATGM1V0202501N003119999999N9999999N1-00281+99999101881REMSYN069CMAN  12044 ATGM1 46/// /2506 11028 40188 90336 222// 0004 333 91202;
0078998252999992011011205004+44400-068200FM-18+0003ATGM1V0202701N002619999999N9999999N1-00281+99999101811REMSYN069CMAN  12054 ATGM1 46/// /2705 11028 40181 90436 222// 0004 333 91203;
0078998252999992011011206004+44400-068200FM-18+0003ATGM1V0203301N002619999999N9999999N1-00261+99999101711REMSYN069CMAN  12064 ATGM1 46/// /3305 11026 40171 90536 222// 0005 333 91202;
0084998252999992011011207004+44400-068200FM-18+0003ATGM1V0203401N002619999999N9999999N1-00241+99999101691REMSYN075CMAN  12074 ATGM1 46/// /3405 11024 40169 90636 222// 0005 555 11004 22004;
0078998252999992011011208004+44400-068200FM-18+0003ATGM1V0200201N001019999999N9999999N1-00261+99999101601REMSYN069CMAN  12084 ATGM1 46/// /0202 11026 40160 90736 222// 0005 333 91203;
0078998252999992011011209004+44400-068200FM-18+0003ATGM1V0201601N000519999999N9999999N1-00261+99999101421REMSYN069CMAN  12094 ATGM1 46/// /1601 11026 40142 90836 222// 0005 333 91200;
0078998252999992011011210004+44400-068200FM-18+0003ATGM1V0200101N006219999999N9999999N1-00221+99999101271REMSYN069CMAN  12104 ATGM1 46/// /0112 11022 40127 90936 222// 0005 333 91202;
0078998252999992011011211004+44400-068200FM-18+0003ATGM1V0203601N007719999999N9999999N1-00261+99999101021REMSYN069CMAN  12114 ATGM1 46/// /3615 11026 40102 91036 222// 0005 333 91204;
0068998252999992011011212004+44400-068200FM-18+0003ATGM1V0200101N006719999999N9999999N1-00181+99999100821REMSYN059CMAN  12124 ATGM1 46/// /0113 11018 40082 91136 222// 0004;
0078998252999992011011213004+44400-068200FM-18+0003ATGM1V0200301N011819999999N9999999N1+00181+99999100721REMSYN069CMAN  12134 ATGM1 46/// /0323 10018 40072 91236 222// 0004 333 91204;
0078998252999992011011214004+44400-068200FM-18+0003ATGM1V0200401N014919999999N9999999N1+00091+99999100421REMSYN069CMAN  12144 ATGM1 46/// /0429 10009 40042 91336 222// 0004 333 91205;
0078998252999992011011215004+44400-068200FM-18+0003ATGM1V0200301N015419999999N9999999N1+00071+99999100251REMSYN069CMAN  12154 ATGM1 46/// /0330 10007 40025 91436 222// 0004 333 91205;
0078998252999992011011216004+44400-068200FM-18+0003ATGM1V0200201N012319999999N9999999N1+00021+99999099941REMSYN069CMAN  12164 ATGM1 46/// /0224 10002 49994 91536 222// 0004 333 91224;
0078998252999992011011217004+44400-068200FM-18+0003ATGM1V0200101N010319999999N9999999N1-00011+99999099801REMSYN069CMAN  12174 ATGM1 46/// /0120 11001 49980 91636 222// 0004 333 91205;
0078998252999992011011218004+44400-068200FM-18+0003ATGM1V0200101N011819999999N9999999N1+00011+99999099581REMSYN069CMAN  12184 ATGM1 46/// /0123 10001 49958 91736 222// 0004 333 91215;
0078998252999992011011219004+44400-068200FM-18+0003ATGM1V0203601N012319999999N9999999N1+00001+99999099441REMSYN069CMAN  12194 ATGM1 46/// /3624 10000 49944 91836 222// 0004 333 91204;
0078998252999992011011220004+44400-068200FM-18+0003ATGM1V0203601N012919999999N9999999N1-00011+99999099331REMSYN069CMAN  12204 ATGM1 46/// /3625 11001 49933 91936 222// 0004 333 91205;
0000998252999992011011221004+44400-068200FM-18+0003ATGM1V0203501N013419999999N9999999N1-00091+99999099181
0078998252999992011011222004+44400-068200FM-18+0003ATGM1V0203601N014419999999N9999999N1-00101+99999099151REMSYN069CMAN  12224 ATGM1 46/// /3628 11010 49915 92136 222// 0005 333 91205;
0068998252999992011011223004+44400-068200FM-18+0003ATGM1V0203501N012319999999N9999999N1-00101+99999099231REMSYN059CMAN  12234 ATGM1 46/// /3524 11010 49923 92236 222// 0005;
0078998252999992011011300004+44400-068200FM-18+0003ATGM1V0203501N014919999999N9999999N1-00121+99999099261REMSYN069CMAN  13004 ATGM1 46/// /3529 11012 49926 92336 222// 0004 333 91205;
0078998252999992011011301004+44400-068200FM-18+0003ATGM1V0203401N014419999999N9999999N1-00091+99999099291REMSYN069CMAN  13014 ATGM1 46/// /3428 11009 49929 90036 222// 0004 333 91204;
0078998252999992011011302004+44400-068200FM-18+0003ATGM1V0203301N013919999999N9999999N1-00091+99999099311REMSYN069CMAN  13024 ATGM1 46/// /3327 11009 49931 90136 222// 0004 333 91204;
0078998252999992011011303004+44400-068200FM-18+0003ATGM1V0203301N011319999999N9999999N1-00061+99999099311REMSYN069CMAN  13034 ATGM1 46/// /3322 11006 49931 90236 222// 0004 333 91204;
0078998252999992011011304004+44400-068200FM-18+0003ATGM1V0203201N009819999999N9999999N1-00041+99999099371REMSYN069CMAN  13044 ATGM1 46/// /3219 11004 49937 90336 222// 0004 333 91203;
0078998252999992011011305004+44400-068200FM-18+0003ATGM1V0203101N007719999999N9999999N1-00011+99999099451REMSYN069CMAN  13054 ATGM1 46/// /3115 11001 49945 90436 222// 0004 333 91204;
0068998252999992011011306004+44400-068200FM-18+0003ATGM1V0202801N006719999999N9999999N1-00061+99999099561REMSYN059CMAN  13064 ATGM1 46/// /2813 11006 49956 90536 222// 0004;
0068998252999992011011307004+44400-068200FM-18+0003ATGM1V0202801N005719999999N9999999N1-00041+99999099711REMSYN059CMAN  13074 ATGM1 46/// /2811 11004 49971 90636 222// 0004;
0068998252999992011011308004+44400-068200FM-18+0003ATGM1V0202701N008219999999N9999999N1-00091+99999099851REMSYN059CMAN  13084 ATGM1 46/// /2716 11009 49985 90736 222// 0004;
0078998252999992011011309004+44400-068200FM-18+0003ATGM1V0202701N009319999999N9999999N1-00101+99999099961REMSYN069CMAN  13094 ATGM1 46/// /2718 11010 49996 90836 222// 0004 333 91203;
0068998252999992011011310004+44400-068200FM-18+0003ATGM1V0202701N011819999999N9999999N1-00121+99999100061REMSYN059CMAN  13104 ATGM1 46/// /2723 11012 40006 90936 222// 0004;
0078998252999992011011311004+44400-068200FM-18+0003ATGM1V0202601N011319999999N9999999N1-00151+99999100191REMSYN069CMAN  13114 ATGM1 46/// /2622 11015 40019 91036 222// 0004 333 91203;
0078998252999992011011312004+44400-068200FM-18+0003ATGM1V0202601N011819999999N9999999N1-00131+99999100321REMSYN069CMAN  13124 ATGM1 46/// /2623 11013 40032 91136 222// 0004 333 91213;
0090998252999992011011313004+44400-068200FM-18+0003ATGM1V0202501N010819999999N9999999N1-00151+99999100461REMSYN081CMAN  13134 ATGM1 46/// /2521 11015 40046 91236 222// 0004 82600 91250 333 81711;
0078998252999992011011314004+44400-068200FM-18+0003ATGM1V0202501N010819999999N9999999N1-00131+99999100611REMSYN069CMAN  13144 ATGM1 46/// /2521 11013 40061 91336 222// 0004 333 91205;
0078998252999992011011315004+44400-068200FM-18+0003ATGM1V0202501N011319999999N9999999N1-00081+99999100691REMSYN069CMAN  13154 ATGM1 46/// /2522 11008 40069 91436 222// 0004 333 91205;
0078998252999992011011316004+44400-068200FM-18+0003ATGM1V0202601N011819999999N9999999N1+00001+99999100741REMSYN069CMAN  13164 ATGM1 46/// /2623 10000 40074 91536 222// 0004 333 91205;
0078998252999992011011317004+44400-068200FM-18+0003ATGM1V0202601N010319999999N9999999N1+00051+99999100781REMSYN069CMAN  13174 ATGM1 46/// /2620 10005 40078 91636 222// 0004 333 91205;
0078998252999992011011318004+44400-068200FM-18+0003ATGM1V0202601N010819999999N9999999N1+00091+99999100871REMSYN069CMAN  13184 ATGM1 46/// /2621 10009 40087 91736 222// 0004 333 91203;
0078998252999992011011319004+44400-068200FM-18+0003ATGM1V0202601N009819999999N9999999N1+00131+99999100961REMSYN069CMAN  13194 ATGM1 46/// /2619 10013 40096 91836 222// 0004 333 91205;
0068998252999992011011320004+44400-068200FM-18+0003ATGM1V0202601N009319999999N9999999N1+00141+99999101091REMSYN059CMAN  13204 ATGM1 46/// /2618 10014 40109 91936 222// 0005;
0078998252999992011011321004+44400-068200FM-18+0003ATGM1V0202601N008219999999N9999999N1+00131+99999101231REMSYN069CMAN  13214 ATGM1 46/// /2616 10013 40123 92036 222// 0005 333 91206;
0078998252999992011011322004+44400-068200FM-18+0003ATGM1V0202401N007219999999N9999999N1+00031+99999101351REMSYN069CMAN  13224 ATGM1 46/// /2414 10003 40135 92136 222// 0005 333 91202;
0078998252999992011011323004+44400-068200FM-18+0003ATGM1V0202501N009819999999N9999999N1-00061+99999101491REMSYN069CMAN  13234 ATGM1 46/// /2519 11006 40149 92236 222// 0005 333 91204;
0078998252999992011011400004+44400-068200FM-18+0003ATGM1V0202601N009319999999N9999999N1-00101+99999101571REMSYN069CMAN  14004 ATGM1 46/// /2618 11010 40157 92336 222// 0005 333 91206;
0078998252999992011011401004+44400-068200FM-18+0003ATGM1V0202601N007719999999N9999999N1-00131+99999101651REMSYN069CMAN  14014 ATGM1 46/// /2615 11013 40165 90036 222// 0005 333 91202;
0191998252999992011011402004+44400-068200FM-18+0003ATGM1V0202501N008219999999N9999999N1-00141+99999101711REMSYN182CMAN  14024 ATGM1 46/// /2516 11014 40171 90136 222// 0005/ 00156 10401 70005 333 91218 555 11013 2201217 555 11147 22155 30128 40617 60149 067139 068139 066140 071138 066133 068130;
0078998252999992011011403004+44400-068200FM-18+0003ATGM1V0202501N007719999999N9999999N1-00201+99999101741REMSYN069CMAN  14034 ATGM1 46/// /2515 11020 40174 90236 222// 0005 333 91203;
0000998252999992011011404004+44400-068200FM-18+0003ATGM1V0202501N008219999999N9999999N1-00211+99999101801
0068998252999992011011405004+44400-068200FM-18+0003ATGM1V0202301N006719999999N9999999N1-00301+99999101831REMSYN059CMAN  14054 ATGM1 46/// /2313 11030 40183 90436 222// 0004;
0078998252999992011011406004+44400-068200FM-18+0003ATGM1V0202301N004619999999N9999999N1-00361+99999101881REMSYN069CMAN  14064 ATGM1 46/// /2309 11036 40188 90536 222// 0004 333 91202;
0078998252999992011011407004+44400-068200FM-18+0003ATGM1V0202101N003619999999N9999999N1-00401+99999101971REMSYN069CMAN  14074 ATGM1 46/// /2107 11040 40197 90636 222// 0005 333 91203;
0078998252999992011011408004+44400-068200FM-18+0003ATGM1V0202401N005719999999N9999999N1-00411+99999102021REMSYN069CMAN  14084 ATGM1 46/// /2411 11041 40202 90736 222// 0005 333 91204;
0078998252999992011011409004+44400-068200FM-18+0003ATGM1V0202201N003619999999N9999999N1-00451+99999102061REMSYN069CMAN  14094 ATGM1 46/// /2207 11045 40206 90836 222// 0005 333 91205;
0078998252999992011011410004+44400-068200FM-18+0003ATGM1V0202401N006219999999N9999999N1-00431+99999102051REMSYN069CMAN  14104 ATGM1 46/// /2412 11043 40205 90936 222// 0004 333 91205;
0078998252999992011011411004+44400-068200FM-18+0003ATGM1V0202301N004619999999N9999999N1-00461+99999102071REMSYN069CMAN  14114 ATGM1 46/// /2309 11046 40207 91036 222// 0004 333 91205;
0078998252999992011011412004+44400-068200FM-18+0003ATGM1V0202601N004619999999N9999999N1-00461+99999102121REMSYN069CMAN  14124 ATGM1 46/// /2609 11046 40212 91136 222// 0004 333 91205;
0078998252999992011011413004+44400-068200FM-18+0003ATGM1V0202501N004119999999N9999999N1-00481+99999102191REMSYN069CMAN  14134 ATGM1 46/// /2508 11048 40219 91236 222// 0004 333 91203;
0078998252999992011011414004+44400-068200FM-18+0003ATGM1V0202401N004119999999N9999999N1-00481+99999102251REMSYN069CMAN  14144 ATGM1 46/// /2408 11048 40225 91336 222// 0004 333 91202;
0078998252999992011011415004+44400-068200FM-18+0003ATGM1V0202401N004619999999N9999999N1-00471+99999102301REMSYN069CMAN  14154 ATGM1 46/// /2409 11047 40230 91436 222// 0004 333 91205;
0072998252999992011011416004+44400-068200FM-18+0003ATGM1V0202501N004619999999N9999999N1-00471+99999102271REMSYN063CMAN  14164 ATGM1 46/// /2509 11047 40227 91536 222// 00041219;
0078998252999992011011417004+44400-068200FM-18+0003ATGM1V0202601N002619999999N9999999N1-00421+99999102181REMSYN069CMAN  14174 ATGM1 46/// /2605 11042 40218 91636 222// 0004 333 91204;
0078998252999992011011418004+44400-068200FM-18+0003ATGM1V0202801N002619999999N9999999N1-00381+99999102111REMSYN069CMAN  14184 ATGM1 46/// /2805 11038 40211 91736 222// 0004 333 91205;
0078998252999992011011419004+44400-068200FM-18+0003ATGM1V0202601N003119999999N9999999N1-00341+99999102101REMSYN069CMAN  14194 ATGM1 46/// /2606 11034 40210 91836 222// 0004 333 91205;
0078998252999992011011420004+44400-068200FM-18+0003ATGM1V0202401N003619999999N9999999N1-00301+99999102131REMSYN069CMAN  14204 ATGM1 46/// /2407 11030 40213 91936 222// 0005 333 91205;
0078998252999992011011421004+44400-068200FM-18+0003ATGM1V0202701N003119999999N9999999N1-00301+99999102151REMSYN069CMAN  14214 ATGM1 46/// /2706 11030 40215 92036 222// 0005 333 91204;
0078998252999992011011422004+44400-068200FM-18+0003ATGM1V0202301N002119999999N9999999N1-00311+99999102171REMSYN069CMAN  14224 ATGM1 46/// /2304 11031 40217 92136 222// 0005 333 91205;
0078998252999992011011423004+44400-068200FM-18+0003ATGM1V0202101N001519999999N9999999N1-00331+99999102191REMSYN069CMAN  14234 ATGM1 46/// /2103 11033 40219 92236 222// 0005 333 91205;
0078998252999992011011500004+44400-068200FM-18+0003ATGM1V0202001N002119999999N9999999N1-00381+99999102191REMSYN069CMAN  15004 ATGM1 46/// /2004 11038 40219 92336 222// 0005 333 91205;
0078998252999992011011501004+44400-068200FM-18+0003ATGM1V0202201N003119999999N9999999N1-00411+99999102171REMSYN069CMAN  15014 ATGM1 46/// /2206 11041 40217 90036 222// 0004 333 91205;
0078998252999992011011502004+44400-068200FM-18+0003ATGM1V0202501N005119999999N9999999N1-00431+99999102171REMSYN069CMAN  15024 ATGM1 46/// /2510 11043 40217 90136 222// 0004 333 91204;
0078998252999992011011503004+44400-068200FM-18+0003ATGM1V0202501N005719999999N9999999N1-00571+99999102171REMSYN069CMAN  15034 ATGM1 46/// /2511 11057 40217 90236 222// 0004 333 91204;
0078998252999992011011504004+44400-068200FM-18+0003ATGM1V0202201N003619999999N9999999N1-00671+99999102161REMSYN069CMAN  15044 ATGM1 46/// /2207 11067 40216 90336 222// 0004 333 91202;
0078998252999992011011505004+44400-068200FM-18+0003ATGM1V0202401N005119999999N9999999N1-00791+99999102201REMSYN069CMAN  15054 ATGM1 46/// /2410 11079 40220 90436 222// 0004 333 91201;
0078998252999992011011506004+44400-068200FM-18+0003ATGM1V0202001N002619999999N9999999N1-00891+99999102171REMSYN069CMAN  15064 ATGM1 46/// /2005 11089 40217 90536 222// 0004 333 91202;
0078998252999992011011507004+44400-068200FM-18+0003ATGM1V0202201N002619999999N9999999N1-00931+99999102181REMSYN069CMAN  15074 ATGM1 46/// /2205 11093 40218 90636 222// 0004 333 91205;
0078998252999992011011508004+44400-068200FM-18+0003ATGM1V0202201N004119999999N9999999N1-00961+99999102171REMSYN069CMAN  15084 ATGM1 46/// /2208 11096 40217 90736 222// 0005 333 91202;
0078998252999992011011509004+44400-068200FM-18+0003ATGM1V0202201N004619999999N9999999N1-01031+99999102151REMSYN069CMAN  15094 ATGM1 46/// /2209 11103 40215 90836 222// 0005 333 91203;
0078998252999992011011510004+44400-068200FM-18+0003ATGM1V0202501N004619999999N9999999N1-00981+99999102101REMSYN069CMAN  15104 ATGM1 46/// /2509 11098 40210 90936 222// 0005 333 91204;
0078998252999992011011511004+44400-068200FM-18+0003ATGM1V0202101N003119999999N9999999N1-01071+99999102141REMSYN069CMAN  15114 ATGM1 46/// /2106 11107 40214 91036 222// 0004 333 91204;
0068998252999992011011512004+44400-068200FM-18+0003ATGM1V0202201N003619999999N9999999N1-01111+99999102161REMSYN059CMAN  15124 ATGM1 46/// /2207 11111 40216 91136 222// 0004;
0078998252999992011011513004+44400-068200FM-18+0003ATGM1V0201801N002619999999N9999999N1-01111+99999102161REMSYN069CMAN  15134 ATGM1 46/// /1805 11111 40216 91236 222// 0004 333 91204;
0078998252999992011011514004+44400-068200FM-18+0003ATGM1V0202101N002119999999N9999999N1-00981+99999102161REMSYN069CMAN  15144 ATGM1 46/// /2104 11098 40216 91336 222// 0004 333 91205;
0078998252999992011011515004+44400-068200FM-18+0003ATGM1V0202501N002619999999N9999999N1-00931+99999102141REMSYN069CMAN  15154 ATGM1 46/// /2505 11093 40214 91436 222// 0004 333 91204;
0078998252999992011011516004+44400-068200FM-18+0003ATGM1V0202401N002619999999N9999999N1-00881+99999102021REMSYN069CMAN  15164 ATGM1 46/// /2405 11088 40202 91536 222// 0004 333 91205;
0078998252999992011011517004+44400-068200FM-18+0003ATGM1V0203001N002119999999N9999999N1-00801+99999101911REMSYN069CMAN  15174 ATGM1 46/// /3004 11080 40191 91636 222// 0004 333 91205;
0078998252999992011011518004+44400-068200FM-18+0003ATGM1V0202701N002619999999N9999999N1-00721+99999101821REMSYN069CMAN  15184 ATGM1 46/// /2705 11072 40182 91736 222// 0004 333 91204;
0078998252999992011011519004+44400-068200FM-18+0003ATGM1V0200401N001519999999N9999999N1-00611+99999101761REMSYN069CMAN  15194 ATGM1 46/// /0403 11061 40176 91836 222// 0004 333 91205;
0078998252999992011011520004+44400-068200FM-18+0003ATGM1V0201801N001519999999N9999999N1-00571+99999101701REMSYN069CMAN  15204 ATGM1 46/// /1803 11057 40170 91936 222// 0004 333 91205;
0078998252999992011011521004+44400-068200FM-18+0003ATGM1V0201201N001519999999N9999999N1-00571+99999101641REMSYN069CMAN  15214 ATGM1 46/// /1203 11057 40164 92036 222// 0004 333 91205;
0078998252999992011011522004+44400-068200FM-18+0003ATGM1V0201101N001519999999N9999999N1-00531+99999101491REMSYN069CMAN  15224 ATGM1 46/// /1103 11053 40149 92136 222// 0004 333 91205;
0078998252999992011011523004+44400-068200FM-18+0003ATGM1V0201101N001019999999N9999999N1-00461+99999101411REMSYN069CMAN  15234 ATGM1 46/// /1102 11046 40141 92236 222// 0004 333 91205;
0078998252999992011011600004+44400-068200FM-18+0003ATGM1V0201001N002119999999N9999999N1-00331+99999101251REMSYN069CMAN  16004 ATGM1 46/// /1004 11033 40125 92336 222// 0004 333 91205;
0078998252999992011011601004+44400-068200FM-18+0003ATGM1V0201201N004119999999N9999999N1-00211+99999101161REMSYN069CMAN  16014 ATGM1 46/// /1208 11021 40116 90036 222// 0004 333 91205;
0078998252999992011011602004+44400-068200FM-18+0003ATGM1V0201701N003119999999N9999999N1-00201+99999101091REMSYN069CMAN  16024 ATGM1 46/// /1706 11020 40109 90136 222// 0004 333 91205;
0078998252999992011011603004+44400-068200FM-18+0003ATGM1V0202001N001519999999N9999999N1-00231+99999101021REMSYN069CMAN  16034 ATGM1 46/// /2003 11023 40102 90236 222// 0004 333 91205;
0078998252999992011011604004+44400-068200FM-18+0003ATGM1V0202001N001019999999N9999999N1-00251+99999100891REMSYN069CMAN  16044 ATGM1 46/// /2002 11025 40089 90336 222// 0004 333 91205;
0078998252999992011011605004+44400-068200FM-18+0003ATGM1V0202101N004119999999N9999999N1-00171+99999100761REMSYN069CMAN  16054 ATGM1 46/// /2108 11017 40076 90436 222// 0004 333 91203;
0068998252999992011011713004+44400-068200FM-18+0003ATGM1V0202201N004619999999N9999999N1-01201+99999102531REMSYN059CMAN  17134 ATGM1 46/// /2209 11120 40253 91324 222// 0003;
0068998252999992011011714004+44400-068200FM-18+0003ATGM1V0202501N006219999999N9999999N1-01181+99999102581REMSYN059CMAN  17144 ATGM1 46/// /2512 11118 40258 91424 222// 0003;
0078998252999992011011715004+44400-068200FM-18+0003ATGM1V0202401N004619999999N9999999N1-01111+99999102601REMSYN069CMAN  17154 ATGM1 46/// /2409 11111 40260 91524 222// 0003 333 91208;
0078998252999992011011716004+44400-068200FM-18+0003ATGM1V0202301N004119999999N9999999N1-01071+99999102591REMSYN069CMAN  17164 ATGM1 46/// /2308 11107 40259 91536 222// 0003 333 91204;
0068998252999992011011717004+44400-068200FM-18+0003ATGM1V0202501N004119999999N9999999N1-01001+99999102571REMSYN059CMAN  17174 ATGM1 46/// /2508 11100 40257 91636 222// 0003;
0078998252999992011011718004+44400-068200FM-18+0003ATGM1V0202801N003119999999N9999999N1-00911+99999102531REMSYN069CMAN  17184 ATGM1 46/// /2806 11091 40253 91736 222// 0003 333 91203;
0078998252999992011011719004+44400-068200FM-18+0003ATGM1V0202501N003119999999N9999999N1-00861+99999102561REMSYN069CMAN  17194 ATGM1 46/// /2506 11086 40256 91836 222// 0003 333 91202;
0078998252999992011011720004+44400-068200FM-18+0003ATGM1V0202301N004119999999N9999999N1-00811+99999102601REMSYN069CMAN  17204 ATGM1 46/// /2308 11081 40260 91936 222// 0003 333 91205;
0078998252999992011011721004+44400-068200FM-18+0003ATGM1V0202701N003119999999N9999999N1-00801+99999102651REMSYN069CMAN  17214 ATGM1 46/// /2706 11080 40265 92036 222// 0003 333 91206;
0078998252999992011011722004+44400-068200FM-18+0003ATGM1V0202001N001519999999N9999999N1-00891+99999102771REMSYN069CMAN  17224 ATGM1 46/// /2003 11089 40277 92136 222// 0003 333 91205;
0078998252999992011011723004+44400-068200FM-18+0003ATGM1V0202101N002619999999N9999999N1-00921+99999102821REMSYN069CMAN  17234 ATGM1 46/// /2105 11092 40282 92236 222// 0003 333 91205;
0078998252999992011011800004+44400-068200FM-18+0003ATGM1V0202001N001519999999N9999999N1-00991+99999102901REMSYN069CMAN  18004 ATGM1 46/// /2003 11099 40290 92336 222// 0003 333 91205;
0068998252999992011011801004+44400-068200FM-18+0003ATGM1V0202201N001019999999N9999999N1-01041+99999102931REMSYN059CMAN  18014 ATGM1 46/// /2202 11104 40293 90048 222// 0003;
0078998252999992011011802004+44400-068200FM-18+0003ATGM1V0201701N002119999999N9999999N1-01041+99999102971REMSYN069CMAN  18024 ATGM1 46/// /1704 11104 40297 90136 222// 0003 333 91205;
0078998252999992011011803004+44400-068200FM-18+0003ATGM1V0202001N002119999999N9999999N1-01101+99999102971REMSYN069CMAN  18034 ATGM1 46/// /2004 11110 40297 90236 222// 0003 333 91205;
0078998252999992011011804004+44400-068200FM-18+0003ATGM1V0202201N001519999999N9999999N1-01081+99999102991REMSYN069CMAN  18044 ATGM1 46/// /2203 11108 40299 90336 222// 0003 333 91205;
0068998252999992011011805004+44400-068200FM-18+0003ATGM1V0201701N001019999999N9999999N1-01111+99999102891REMSYN059CMAN  18054 ATGM1 46/// /1702 11111 40289 90442 222// 0003;
0078998252999992011011806004+44400-068200FM-18+0003ATGM1V0201801N002119999999N9999999N1-01051+99999102931REMSYN069CMAN  18064 ATGM1 46/// /1804 11105 40293 90536 222// 0003 333 91209;
0078998252999992011011807004+44400-068200FM-18+0003ATGM1V0202101N001519999999N9999999N1-01021+99999102961REMSYN069CMAN  18074 ATGM1 46/// /2103 11102 40296 90636 222// 0003 333 91205;
0078998252999992011011808004+44400-068200FM-18+0003ATGM1V0201701N001519999999N9999999N1-01051+99999102911REMSYN069CMAN  18084 ATGM1 46/// /1703 11105 40291 90736 222// 0003 333 91205;
0078998252999992011011809004+44400-068200FM-18+0003ATGM1V0202301N000519999999N9999999N1-00971+99999102891REMSYN069CMAN  18094 ATGM1 46/// /2301 11097 40289 90836 222// 0003 333 91206;
0078998252999992011011810004+44400-068200FM-18+0003ATGM1V0201801N000519999999N9999999N1-00961+99999102811REMSYN069CMAN  18104 ATGM1 46/// /1801 11096 40281 90936 222// 0003 333 91205;
0000998252999992011011811004+44400-068200FM-18+0003ATGM1V0202001N001019999999N9999999N1-00961+99999102721
0068998252999992011011812004+44400-068200FM-18+0003ATGM1V0203401N001519999999N9999999N1-00831+99999102671REMSYN059CMAN  18124 ATGM1 46/// /3403 11083 40267 91136 222// 0004;
0141998252999992011011813004+44400-068200FM-18+0003ATGM1V0201401N001019999999N9999999N1-00831+99999102681REMSYN132CMAN  18134 ATGM1 46/// /1402 11083 40268 91236 222// 0004011 70211 811// 22273 00287 20604 332// 41009 5//// 6//// 80250 ICE /////;
0078998252999992011011814004+44400-068200FM-18+0003ATGM1V0201301N001019999999N9999999N1-00771+99999102601REMSYN069CMAN  18144 ATGM1 46/// /1302 11077 40260 91336 222// 0004 333 91203;
0078998252999992011011815004+44400-068200FM-18+0003ATGM1V0201001N001019999999N9999999N1-00491+99999102501REMSYN069CMAN  18154 ATGM1 46/// /1002 11049 40250 91436 222// 0004 333 91203;
0078998252999992011011816004+44400-068200FM-18+0003ATGM1V0200801N003119999999N9999999N1+00061+99999102341REMSYN069CMAN  18164 ATGM1 46/// /0806 10006 40234 91536 222// 0004 333 91202;
0078998252999992011011817004+44400-068200FM-18+0003ATGM1V0200801N004119999999N9999999N1+00181+99999102171REMSYN069CMAN  18174 ATGM1 46/// /0808 10018 40217 91636 222// 0003 333 91205;
0078998252999992011011818004+44400-068200FM-18+0003ATGM1V0200901N003619999999N9999999N1+00251+99999101991REMSYN069CMAN  18184 ATGM1 46/// /0907 10025 40199 91736 222// 0004 333 91210;
0078998252999992011011819004+44400-068200FM-18+0003ATGM1V0201201N001519999999N9999999N1+00291+99999101941REMSYN069CMAN  18194 ATGM1 46/// /1203 10029 40194 91836 222// 0004 333 91206;
0078998252999992011011820004+44400-068200FM-18+0003ATGM1V0201101N004119999999N9999999N1+00141+99999101921REMSYN069CMAN  18204 ATGM1 46/// /1108 10014 40192 91936 222// 0004 333 91205;
0078998252999992011011821004+44400-068200FM-18+0003ATGM1V0200701N001519999999N9999999N1+00131+99999101811REMSYN069CMAN  18214 ATGM1 46/// /0703 10013 40181 92036 222// 0004 333 91210;
0078998252999992011011822004+44400-068200FM-18+0003ATGM1V0200801N003619999999N9999999N1+00201+99999101691REMSYN069CMAN  18224 ATGM1 46/// /0807 10020 40169 92136 222// 0004 333 91205;
0078998252999992011011823004+44400-068200FM-18+0003ATGM1V0200801N006219999999N9999999N1+00251+99999101551REMSYN069CMAN  18234 ATGM1 46/// /0812 10025 40155 92236 222// 0004 333 91205;
0078998252999992011011900004+44400-068200FM-18+0003ATGM1V0200701N006219999999N9999999N1+00291+99999101451REMSYN069CMAN  19004 ATGM1 46/// /0712 10029 40145 92336 222// 0004 333 91205;
0078998252999992011011901004+44400-068200FM-18+0003ATGM1V0200701N006719999999N9999999N1+00341+99999101261REMSYN069CMAN  19014 ATGM1 46/// /0713 10034 40126 90036 222// 0004 333 91204;
0078998252999992011011902004+44400-068200FM-18+0003ATGM1V0200601N005719999999N9999999N1+00401+99999101071REMSYN069CMAN  19024 ATGM1 46/// /0611 10040 40107 90136 222// 0004 333 91205;
0078998252999992011011903004+44400-068200FM-18+0003ATGM1V0200601N007719999999N9999999N1+00461+99999100841REMSYN069CMAN  19034 ATGM1 46/// /0615 10046 40084 90236 222// 0005 333 91205;
0078998252999992011011904004+44400-068200FM-18+0003ATGM1V0200501N008219999999N9999999N1+00491+99999100631REMSYN069CMAN  19044 ATGM1 46/// /0516 10049 40063 90336 222// 0005 333 91205;
0078998252999992011011905004+44400-068200FM-18+0003ATGM1V0200501N008219999999N9999999N1+00511+99999100461REMSYN069CMAN  19054 ATGM1 46/// /0516 10051 40046 90436 222// 0005 333 91203;
0078998252999992011011906004+44400-068200FM-18+0003ATGM1V0200401N008219999999N9999999N1+00471+99999100211REMSYN069CMAN  19064 ATGM1 46/// /0416 10047 40021 90536 222// 0005 333 91201;
0078998252999992011011907004+44400-068200FM-18+0003ATGM1V0200301N005119999999N9999999N1+00441+99999100021REMSYN069CMAN  19074 ATGM1 46/// /0310 10044 40002 90636 222// 0005 333 91202;
0078998252999992011011908004+44400-068200FM-18+0003ATGM1V0203501N002119999999N9999999N1+00441+99999099891REMSYN069CMAN  19084 ATGM1 46/// /3504 10044 49989 90736 222// 0005 333 91203;
0078998252999992011011909004+44400-068200FM-18+0003ATGM1V0203101N003619999999N9999999N1+00351+99999099741REMSYN069CMAN  19094 ATGM1 46/// /3107 10035 49974 90836 222// 0005 333 91204;
0078998252999992011011910004+44400-068200FM-18+0003ATGM1V0202501N001519999999N9999999N1+00351+99999099641REMSYN069CMAN  19104 ATGM1 46/// /2503 10035 49964 90936 222// 0005 333 91203;
0078998252999992011011911004+44400-068200FM-18+0003ATGM1V0202601N006219999999N9999999N1+00281+99999099611REMSYN069CMAN  19114 ATGM1 46/// /2612 10028 49961 91036 222// 0005 333 91204;
0078998252999992011011912004+44400-068200FM-18+0003ATGM1V0202601N006219999999N9999999N1+00251+99999099641REMSYN069CMAN  19124 ATGM1 46/// /2612 10025 49964 91136 222// 0005 333 91201;
0078998252999992011011913004+44400-068200FM-18+0003ATGM1V0202501N007219999999N9999999N1+00251+99999099751REMSYN069CMAN  19134 ATGM1 46/// /2514 10025 49975 91236 222// 0005 333 91203;
0078998252999992011011914004+44400-068200FM-18+0003ATGM1V0202601N008219999999N9999999N1+00221+99999099881REMSYN069CMAN  19144 ATGM1 46/// /2616 10022 49988 91336 222// 0005 333 91204;
0078998252999992011011915004+44400-068200FM-18+0003ATGM1V0202701N007219999999N9999999N1+00231+99999099941REMSYN069CMAN  19154 ATGM1 46/// /2714 10023 49994 91436 222// 0005 333 91203;
0078998252999992011011916004+44400-068200FM-18+0003ATGM1V0202801N007719999999N9999999N1+00231+99999099991REMSYN069CMAN  19164 ATGM1 46/// /2815 10023 49999 91536 222// 0005 333 91200;
0068998252999992011011917004+44400-068200FM-18+0003ATGM1V0202701N008219999999N9999999N1+00151+99999100071REMSYN059CMAN  19174 ATGM1 46/// /2716 10015 40007 91636 222// 0005;
0078998252999992011011918004+44400-068200FM-18+0003ATGM1V0202601N006719999999N9999999N1+00121+99999100141REMSYN069CMAN  19184 ATGM1 46/// /2613 10012 40014 91736 222// 0005 333 91206;
0078998252999992011011919004+44400-068200FM-18+0003ATGM1V0202801N006219999999N9999999N1+00131+99999100241REMSYN069CMAN  19194 ATGM1 46/// /2812 10013 40024 91836 222// 0005 333 91208;
0078998252999992011011920004+44400-068200FM-18+0003ATGM1V0202801N005119999999N9999999N1+00071+99999100301REMSYN069CMAN  19204 ATGM1 46/// /2810 10007 40030 91936 222// 0005 333 91207;
0078998252999992011011921004+44400-068200FM-18+0003ATGM1V0202701N008219999999N9999999N1-00051+99999100341REMSYN069CMAN  19214 ATGM1 46/// /2716 11005 40034 92036 222// 0005 333 91205;
0078998252999992011011922004+44400-068200FM-18+0003ATGM1V0202701N006719999999N9999999N1-00161+99999100431REMSYN069CMAN  19224 ATGM1 46/// /2713 11016 40043 92136 222// 0005 333 91215;
0078998252999992011011923004+44400-068200FM-18+0003ATGM1V0202701N006219999999N9999999N1-00231+99999100511REMSYN069CMAN  19234 ATGM1 46/// /2712 11023 40051 92236 222// 0005 333 91206;
0068998252999992011012000004+44400-068200FM-18+0003ATGM1V0202701N007219999999N9999999N1-00291+99999100601REMSYN059CMAN  20004 ATGM1 46/// /2714 11029 40060 92336 222// 0005;
0078998252999992011012001004+44400-068200FM-18+0003ATGM1V0203101N004119999999N9999999N1-00331+99999100671REMSYN069CMAN  20014 ATGM1 46/// /3108 11033 40067 90036 222// 0005 333 91205;
0078998252999992011012002004+44400-068200FM-18+0003ATGM1V0202701N005719999999N9999999N1-00411+99999100731REMSYN069CMAN  20024 ATGM1 46/// /2711 11041 40073 90136 222// 0005 333 91204;
0078998252999992011012003004+44400-068200FM-18+0003ATGM1V0202901N005719999999N9999999N1-00451+99999100771REMSYN069CMAN  20034 ATGM1 46/// /2911 11045 40077 90236 222// 0005 333 91203;
0078998252999992011012004004+44400-068200FM-18+0003ATGM1V0202801N006219999999N9999999N1-00511+99999100811REMSYN069CMAN  20044 ATGM1 46/// /2812 11051 40081 90336 222// 0005 333 91202;
0078998252999992011012005004+44400-068200FM-18+0003ATGM1V0202901N004119999999N9999999N1-00531+99999100831REMSYN069CMAN  20054 ATGM1 46/// /2908 11053 40083 90436 222// 0005 333 91203;
0078998252999992011012006004+44400-068200FM-18+0003ATGM1V0202801N005119999999N9999999N1-00581+99999100851REMSYN069CMAN  20064 ATGM1 46/// /2810 11058 40085 90536 222// 0005 333 91203;
0078998252999992011012007004+44400-068200FM-18+0003ATGM1V0202701N006219999999N9999999N1-00641+99999100921REMSYN069CMAN  20074 ATGM1 46/// /2712 11064 40092 90636 222// 0005 333 91203;
0078998252999992011012008004+44400-068200FM-18+0003ATGM1V0202701N006719999999N9999999N1-00681+99999100971REMSYN069CMAN  20084 ATGM1 46/// /2713 11068 40097 90736 222// 0005 333 91204;
0078998252999992011012009004+44400-068200FM-18+0003ATGM1V0202701N006719999999N9999999N1-00681+99999101041REMSYN069CMAN  20094 ATGM1 46/// /2713 11068 40104 90836 222// 0005 333 91203;
0078998252999992011012010004+44400-068200FM-18+0003ATGM1V0202501N005719999999N9999999N1-00681+99999101061REMSYN069CMAN  20104 ATGM1 46/// /2511 11068 40106 90936 222// 0005 333 91201;
0078998252999992011012011004+44400-068200FM-18+0003ATGM1V0202701N006719999999N9999999N1-00731+99999101121REMSYN069CMAN  20114 ATGM1 46/// /2713 11073 40112 91036 222// 0005 333 91205;
0078998252999992011012012004+44400-068200FM-18+0003ATGM1V0202801N005719999999N9999999N1-00761+99999101151REMSYN069CMAN  20124 ATGM1 46/// /2811 11076 40115 91136 222// 0005 333 91205;
0078998252999992011012013004+44400-068200FM-18+0003ATGM1V0202801N005719999999N9999999N1-00791+99999101221REMSYN069CMAN  20134 ATGM1 46/// /2811 11079 40122 91236 222// 0005 333 91205;
0078998252999992011012014004+44400-068200FM-18+0003ATGM1V0202601N007719999999N9999999N1-00821+99999101341REMSYN069CMAN  20144 ATGM1 46/// /2615 11082 40134 91336 222// 0004 333 91208;
0078998252999992011012015004+44400-068200FM-18+0003ATGM1V0202701N005719999999N9999999N1-00791+99999101311REMSYN069CMAN  20154 ATGM1 46/// /2711 11079 40131 91436 222// 0004 333 91205;
0078998252999992011012016004+44400-068200FM-18+0003ATGM1V0202601N005719999999N9999999N1-00771+99999101321REMSYN069CMAN  20164 ATGM1 46/// /2611 11077 40132 91536 222// 0005 333 91205;
0068998252999992011012017004+44400-068200FM-18+0003ATGM1V0202601N006719999999N9999999N1-00691+99999101231REMSYN059CMAN  20174 ATGM1 46/// /2613 11069 40123 91636 222// 0004;
0078998252999992011012018004+44400-068200FM-18+0003ATGM1V0202701N005119999999N9999999N1-00641+99999101161REMSYN069CMAN  20184 ATGM1 46/// /2710 11064 40116 91736 222// 0004 333 91206;
0078998252999992011012019004+44400-068200FM-18+0003ATGM1V0202501N005119999999N9999999N1-00581+99999101181REMSYN069CMAN  20194 ATGM1 46/// /2510 11058 40118 91836 222// 0004 333 91206;
0078998252999992011012020004+44400-068200FM-18+0003ATGM1V0202601N005719999999N9999999N1-00531+99999101281REMSYN069CMAN  20204 ATGM1 46/// /2611 11053 40128 91936 222// 0004 333 91205;
0078998252999992011012021004+44400-068200FM-18+0003ATGM1V0202401N006719999999N9999999N1-00501+99999101331REMSYN069CMAN  20214 ATGM1 46/// /2413 11050 40133 92036 222// 0004 333 91205;
0078998252999992011012022004+44400-068200FM-18+0003ATGM1V0202201N002619999999N9999999N1-00561+99999101381REMSYN069CMAN  20224 ATGM1 46/// /2205 11056 40138 92136 222// 0004 333 91206;
0078998252999992011012023004+44400-068200FM-18+0003ATGM1V0202101N001019999999N9999999N1-00591+99999101391REMSYN069CMAN  20234 ATGM1 46/// /2102 11059 40139 92236 222// 0005 333 91205;
0078998252999992011012100004+44400-068200FM-18+0003ATGM1V0201701N002119999999N9999999N1-00661+99999101401REMSYN069CMAN  21004 ATGM1 46/// /1704 11066 40140 92336 222// 0005 333 91205;
0078998252999992011012101004+44400-068200FM-18+0003ATGM1V0201801N001019999999N9999999N1-00691+99999101371REMSYN069CMAN  21014 ATGM1 46/// /1802 11069 40137 90036 222// 0005 333 91202;
0078998252999992011012102004+44400-068200FM-18+0003ATGM1V0202101N001019999999N9999999N1-00721+99999101361REMSYN069CMAN  21024 ATGM1 46/// /2102 11072 40136 90136 222// 0005 333 91205;
0078998252999992011012103004+44400-068200FM-18+0003ATGM1V0200801N001019999999N9999999N1-00641+99999101301REMSYN069CMAN  21034 ATGM1 46/// /0802 11064 40130 90236 222// 0005 333 91204;
0078998252999992011012104004+44400-068200FM-18+0003ATGM1V0200301N002619999999N9999999N1-00541+99999101251REMSYN069CMAN  21044 ATGM1 46/// /0305 11054 40125 90336 222// 0005 333 91204;
0078998252999992011012105004+44400-068200FM-18+0003ATGM1V0200101N002619999999N9999999N1-00571+99999101231REMSYN069CMAN  21054 ATGM1 46/// /0105 11057 40123 90436 222// 0005 333 91205;
0078998252999992011012106004+44400-068200FM-18+0003ATGM1V0200101N003119999999N9999999N1-00571+99999101151REMSYN069CMAN  21064 ATGM1 46/// /0106 11057 40115 90536 222// 0005 333 91205;
0078998252999992011012107004+44400-068200FM-18+0003ATGM1V0200201N004119999999N9999999N1-00571+99999101131REMSYN069CMAN  21074 ATGM1 46/// /0208 11057 40113 90636 222// 0005 333 91206;
0078998252999992011012108004+44400-068200FM-18+0003ATGM1V0200201N005119999999N9999999N1-00581+99999101041REMSYN069CMAN  21084 ATGM1 46/// /0210 11058 40104 90736 222// 0005 333 91205;
0078998252999992011012109004+44400-068200FM-18+0003ATGM1V0200501N002619999999N9999999N1-00601+99999100951REMSYN069CMAN  21094 ATGM1 46/// /0505 11060 40095 90836 222// 0004 333 91205;
0000998252999992011012110004+44400-068200FM-18+0003ATGM1V0200101N004119999999N9999999N1-00601+99999100831
0078998252999992011012111004+44400-068200FM-18+0003ATGM1V0203501N002119999999N9999999N1-00501+99999100681REMSYN069CMAN  21114 ATGM1 46/// /3504 11050 40068 91036 222// 0004 333 91201;
0078998252999992011012112004+44400-068200FM-18+0003ATGM1V0200601N009819999999N9999999N1-00081+99999100401REMSYN069CMAN  21124 ATGM1 46/// /0619 11008 40040 91136 222// 0004 333 91203;
0078998252999992011012113004+44400-068200FM-18+0003ATGM1V0200501N010319999999N9999999N1-00061+99999100261REMSYN069CMAN  21134 ATGM1 46/// /0520 11006 40026 91236 222// 0004 333 91204;
0078998252999992011012114004+44400-068200FM-18+0003ATGM1V0200501N009319999999N9999999N1-00081+99999100161REMSYN069CMAN  21144 ATGM1 46/// /0518 11008 40016 91336 222// 0004 333 91202;
0078998252999992011012115004+44400-068200FM-18+0003ATGM1V0200501N010819999999N9999999N1-00051+99999099971REMSYN069CMAN  21154 ATGM1 46/// /0521 11005 49997 91436 222// 0004 333 91211;
0078998252999992011012116004+44400-068200FM-18+0003ATGM1V0200401N009819999999N9999999N1-00031+99999099821REMSYN069CMAN  21164 ATGM1 46/// /0419 11003 49982 91536 222// 0004 333 91202;
0078998252999992011012117004+44400-068200FM-18+0003ATGM1V0200301N011319999999N9999999N1-00051+99999099381REMSYN069CMAN  21174 ATGM1 46/// /0322 11005 49938 91636 222// 0005 333 91201;
0078998252999992011012118004+44400-068200FM-18+0003ATGM1V0200201N007719999999N9999999N1-00051+99999098951REMSYN069CMAN  21184 ATGM1 46/// /0215 11005 49895 91736 222// 0004 333 91202;
0078998252999992011012119004+44400-068200FM-18+0003ATGM1V0203501N006219999999N9999999N1-00181+99999098651REMSYN069CMAN  21194 ATGM1 46/// /3512 11018 49865 91836 222// 0004 333 91201;
0078998252999992011012120004+44400-068200FM-18+0003ATGM1V0202901N008719999999N9999999N1-00381+99999098431REMSYN069CMAN  21204 ATGM1 46/// /2917 11038 49843 91936 222// 0004 333 91203;
0078998252999992011012121004+44400-068200FM-18+0003ATGM1V0202601N012919999999N9999999N1-00581+99999098491REMSYN069CMAN  21214 ATGM1 46/// /2625 11058 49849 92036 222// 0004 333 91208;
0078998252999992011012122004+44400-068200FM-18+0003ATGM1V0202501N012919999999N9999999N1-00631+99999098641REMSYN069CMAN  21224 ATGM1 46/// /2525 11063 49864 92136 222// 0004 333 91204;
0078998252999992011012123004+44400-068200FM-18+0003ATGM1V0202401N012919999999N9999999N1-00721+99999098891REMSYN069CMAN  21234 ATGM1 46/// /2425 11072 49889 92236 222// 0003 333 91202;
0078998252999992011012200004+44400-068200FM-18+0003ATGM1V0202301N010819999999N9999999N1-00631+99999099021REMSYN069CMAN  22004 ATGM1 46/// /2321 11063 49902 92336 222// 0003 333 91205;
0078998252999992011012201004+44400-068200FM-18+0003ATGM1V0202301N012319999999N9999999N1-00691+99999099181REMSYN069CMAN  22014 ATGM1 46/// /2324 11069 49918 90036 222// 0004 333 91204;
0078998252999992011012202004+44400-068200FM-18+0003ATGM1V0202301N010819999999N9999999N1-00661+99999099331REMSYN069CMAN  22024 ATGM1 46/// /2321 11066 49933 90136 222// 0004 333 91205;
0078998252999992011012203004+44400-068200FM-18+0003ATGM1V0202301N009319999999N9999999N1-00651+99999099481REMSYN069CMAN  22034 ATGM1 46/// /2318 11065 49948 90236 222// 0004 333 91203;
0078998252999992011012204004+44400-068200FM-18+0003ATGM1V0202301N011319999999N9999999N1-00691+99999099671REMSYN069CMAN  22044 ATGM1 46/// /2322 11069 49967 90336 222// 0003 333 91203;
0078998252999992011012205004+44400-068200FM-18+0003ATGM1V0202201N009819999999N9999999N1-00801+99999099801REMSYN069CMAN  22054 ATGM1 46/// /2219 11080 49980 90436 222// 0003 333 91203;
0072998252999992011012206004+44400-068200FM-18+0003ATGM1V0202201N007219999999N9999999N1-00871+99999099921REMSYN063CMAN  22064 ATGM1 46/// /2214 11087 49992 90536 222// 00031204;
0068998252999992011012207004+44400-068200FM-18+0003ATGM1V0202201N007219999999N9999999N1-00891+99999100071REMSYN059CMAN  22074 ATGM1 46/// /2214 11089 40007 90636 222// 0003;
0078998252999992011012208004+44400-068200FM-18+0003ATGM1V0202201N007219999999N9999999N1-00941+99999100201REMSYN069CMAN  22084 ATGM1 46/// /2214 11094 40020 90736 222// 0003 333 91206;
0078998252999992011012209004+44400-068200FM-18+0003ATGM1V0202301N008719999999N9999999N1-01001+99999100281REMSYN069CMAN  22094 ATGM1 46/// /2317 11100 40028 90836 222// 0003 333 91202;
0078998252999992011012210004+44400-068200FM-18+0003ATGM1V0202301N006719999999N9999999N1-01041+99999100371REMSYN069CMAN  22104 ATGM1 46/// /2313 11104 40037 90936 222// 0003 333 91205;
0078998252999992011012211004+44400-068200FM-18+0003ATGM1V0202301N007719999999N9999999N1-01091+99999100431REMSYN069CMAN 22114 ATGM1 46/// /2315 11109 40043 91036 222// 00036 333 91218;
0078998252999992011012212004+44400-068200FM-18+0003ATGM1V0202301N003119999999N9999999N1-01151+99999100621REMSYN069CMAN  22124 ATGM1 46/// /2306 11115 40062 91136 222// 0003 333 91204;
0078998252999992011012213004+44400-068200FM-18+0003ATGM1V0202301N005119999999N9999999N1-01151+99999100761REMSYN069CMAN  22134 ATGM1 46/// /2310 11115 40076 91236 222// 0003 333 91203;
0078998252999992011012214004+44400-068200FM-18+0003ATGM1V0202201N006219999999N9999999N1-01091+99999100871REMSYN069CMAN  22144 ATGM1 46/// /2212 11109 40087 91336 222// 0004 333 91206;
0078998252999992011012215004+44400-068200FM-18+0003ATGM1V0202301N008219999999N9999999N1-01011+99999100981REMSYN069CMAN  22154 ATGM1 46/// /2316 11101 40098 91436 222// 0004 333 91206;
0078998252999992011012216004+44400-068200FM-18+0003ATGM1V0202301N008719999999N9999999N1-00921+99999101041REMSYN069CMAN  22164 ATGM1 46/// /2317 11092 40104 91536 222// 0003 333 91203;
0078998252999992011012217004+44400-068200FM-18+0003ATGM1V0202201N007719999999N9999999N1-00861+99999101021REMSYN069CMAN  22174 ATGM1 46/// /2215 11086 40102 91636 222// 0003 333 91208;
0078998252999992011012218004+44400-068200FM-18+0003ATGM1V0202301N006219999999N9999999N1-00791+99999101021REMSYN069CMAN  22184 ATGM1 46/// /2312 11079 40102 91736 222// 0003 333 91203;
0078998252999992011012219004+44400-068200FM-18+0003ATGM1V0202401N006219999999N9999999N1-00731+99999101051REMSYN069CMAN  22194 ATGM1 46/// /2412 11073 40105 91836 222// 0003 333 91203;
0078998252999992011012220004+44400-068200FM-18+0003ATGM1V0202501N006219999999N9999999N1-00691+99999101061REMSYN069CMAN  22204 ATGM1 46/// /2512 11069 40106 91936 222// 0003 333 91205;
0078998252999992011012221004+44400-068200FM-18+0003ATGM1V0202601N004119999999N9999999N1-00681+99999101181REMSYN069CMAN  22214 ATGM1 46/// /2608 11068 40118 92036 222// 0003 333 91205;
0078998252999992011012222004+44400-068200FM-18+0003ATGM1V0202001N002119999999N9999999N1-00761+99999101231REMSYN069CMAN  22224 ATGM1 46/// /2004 11076 40123 92136 222// 0003 333 91205;
0078998252999992011012223004+44400-068200FM-18+0003ATGM1V0201601N001519999999N9999999N1-00841+99999101281REMSYN069CMAN  22234 ATGM1 46/// /1603 11084 40128 92236 222// 0003 333 91203;
0078998252999992011012300004+44400-068200FM-18+0003ATGM1V0201701N002119999999N9999999N1-00871+99999101321REMSYN069CMAN  23004 ATGM1 46/// /1704 11087 40132 92336 222// 0003 333 91205;
0078998252999992011012301004+44400-068200FM-18+0003ATGM1V02099999999999999999N9999999N1-00921+99999101301REMSYN069CMAN  23014 ATGM1 46/// /21// 11092 40130 90036 222// 0010 333 91205;
0078998252999992011012302004+44400-068200FM-18+0003ATGM1V0201701N000519999999N9999999N1-00891+99999101281REMSYN069CMAN  23024 ATGM1 46/// /1701 11089 40128 90136 222// 0004 333 91203;
0078998252999992011012303004+44400-068200FM-18+0003ATGM1V0201801N001519999999N9999999N1-00861+99999101331REMSYN069CMAN  23034 ATGM1 46/// /1803 11086 40133 90236 222// 0004 333 91201;
0078998252999992011012304004+44400-068200FM-18+0003ATGM1V0202101N000519999999N9999999N1-00911+99999101211REMSYN069CMAN  23044 ATGM1 46/// /2101 11091 40121 90336 222// 0005 333 91205;
0078998252999992011012305004+44400-068200FM-18+0003ATGM1V0202101N001519999999N9999999N1-00971+99999101111REMSYN069CMAN  23054 ATGM1 46/// /2103 11097 40111 90436 222// 0005 333 91205;
0078998252999992011012306004+44400-068200FM-18+0003ATGM1V0202301N002619999999N9999999N1-00841+99999101091REMSYN069CMAN  23064 ATGM1 46/// /2305 11084 40109 90536 222// 0005 333 91206;
0078998252999992011012307004+44400-068200FM-18+0003ATGM1V0202201N001519999999N9999999N1-00831+99999101131REMSYN069CMAN  23074 ATGM1 46/// /2203 11083 40113 90636 222// 0004 333 91206;
0078998252999992011012308004+44400-068200FM-18+0003ATGM1V0202601N002619999999N9999999N1-00851+99999101101REMSYN069CMAN  23084 ATGM1 46/// /2605 11085 40110 90736 222// 0004 333 91203;
0078998252999992011012309004+44400-068200FM-18+0003ATGM1V0203501N004119999999N9999999N1-00881+99999101071REMSYN069CMAN  23094 ATGM1 46/// /3508 11088 40107 90836 222// 0004 333 91205;
0078998252999992011012310004+44400-068200FM-18+0003ATGM1V0203401N005719999999N9999999N1-01001+99999101051REMSYN069CMAN  23104 ATGM1 46/// /3411 11100 40105 90936 222// 0004 333 91205;
0078998252999992011012311004+44400-068200FM-18+0003ATGM1V0203201N004119999999N9999999N1-01021+99999101061REMSYN069CMAN  23114 ATGM1 46/// /3208 11102 40106 91036 222// 0003 333 91205;
0068998252999992011012312004+44400-068200FM-18+0003ATGM1V0203101N004119999999N9999999N1-01051+99999101081REMSYN059CMAN  23124 ATGM1 46/// /3108 11105 40108 91136 222// 0003;
0078998252999992011012313004+44400-068200FM-18+0003ATGM1V0203301N006219999999N9999999N1-01101+99999101071REMSYN069CMAN  23134 ATGM1 46/// /3312 11110 40107 91236 222// 0003 333 91205;
0078998252999992011012314004+44400-068200FM-18+0003ATGM1V0203101N003119999999N9999999N1-01141+99999101091REMSYN069CMAN  23144 ATGM1 46/// /3106 11114 40109 91336 222// 0003 333 91205;
0078998252999992011012315004+44400-068200FM-18+0003ATGM1V0203001N004119999999N9999999N1-01131+99999101161REMSYN069CMAN  23154 ATGM1 46/// /3008 11113 40116 91436 222// 0004 333 91205;
0078998252999992011012316004+44400-068200FM-18+0003ATGM1V0202901N006219999999N9999999N1-01151+99999101141REMSYN069CMAN  23164 ATGM1 46/// /2912 11115 40114 91536 222// 0004 333 91204;
0078998252999992011012317004+44400-068200FM-18+0003ATGM1V0202801N005119999999N9999999N1-01131+99999101061REMSYN069CMAN  23174 ATGM1 46/// /2810 11113 40106 91636 222// 0004 333 91205;
0078998252999992011012318004+44400-068200FM-18+0003ATGM1V0202701N006719999999N9999999N1-01101+99999101021REMSYN069CMAN  23184 ATGM1 46/// /2713 11110 40102 91736 222// 0003 333 91205;
0078998252999992011012319004+44400-068200FM-18+0003ATGM1V0202801N006219999999N9999999N1-01081+99999101021REMSYN069CMAN  23194 ATGM1 46/// /2812 11108 40102 91836 222// 0003 333 91203;
0078998252999992011012320004+44400-068200FM-18+0003ATGM1V0203101N004619999999N9999999N1-01071+99999101071REMSYN069CMAN  23204 ATGM1 46/// /3109 11107 40107 91936 222// 0003 333 91203;
0078998252999992011012321004+44400-068200FM-18+0003ATGM1V0202701N007719999999N9999999N1-01051+99999101151REMSYN069CMAN  23214 ATGM1 46/// /2715 11105 40115 92036 222// 0003 333 91202;
0068998252999992011012322004+44400-068200FM-18+0003ATGM1V0202701N006219999999N9999999N1-01041+99999101231REMSYN059CMAN  23224 ATGM1 46/// /2712 11104 40123 92136 222// 0003;
0078998252999992011012323004+44400-068200FM-18+0003ATGM1V0202501N008719999999N9999999N1-01161+99999101351REMSYN069CMAN  23234 ATGM1 46/// /2517 11116 40135 92236 222// 0003 333 91205;
0078998252999992011012400004+44400-068200FM-18+0003ATGM1V0202301N009319999999N9999999N1-01231+99999101441REMSYN069CMAN  24004 ATGM1 46/// /2318 11123 40144 92336 222// 0002 333 91205;
0078998252999992011012401004+44400-068200FM-18+0003ATGM1V0202601N009319999999N9999999N1-01381+99999101591REMSYN069CMAN  24014 ATGM1 46/// /2618 11138 40159 90036 222// 0002 333 91205;
0068998252999992011012402004+44400-068200FM-18+0003ATGM1V0202401N009319999999N9999999N1-01511+99999101671REMSYN059CMAN  24024 ATGM1 46/// /2418 11151 40167 90136 222// 0002;
0078998252999992011012403004+44400-068200FM-18+0003ATGM1V0202301N009319999999N9999999N1-01701+99999101731REMSYN069CMAN  24034 ATGM1 46/// /2318 11170 40173 90236 222// 0002 333 91205;
0078998252999992011012404004+44400-068200FM-18+0003ATGM1V0202401N009819999999N9999999N1-01841+99999101811REMSYN069CMAN  24044 ATGM1 46/// /2419 11184 40181 90336 222// 0003 333 91205;
0078998252999992011012405004+44400-068200FM-18+0003ATGM1V0202401N010319999999N9999999N1-01891+99999101881REMSYN069CMAN  24054 ATGM1 46/// /2420 11189 40188 90436 222// 0002 333 91210;
0068998252999992011012406004+44400-068200FM-18+0003ATGM1V0202401N011319999999N9999999N1-01961+99999101931REMSYN059CMAN  24064 ATGM1 46/// /2422 11196 40193 90536 222// 0002;
0078998252999992011012407004+44400-068200FM-18+0003ATGM1V0202301N008219999999N9999999N1-02001+99999102001REMSYN069CMAN  24074 ATGM1 46/// /2316 11200 40200 90636 222// 0002 333 91205;
0078998252999992011012408004+44400-068200FM-18+0003ATGM1V0202301N011319999999N9999999N1-01971+99999102031REMSYN069CMAN  24084 ATGM1 46/// /2322 11197 40203 90736 222// 0002 333 91203;
0078998252999992011012409004+44400-068200FM-18+0003ATGM1V0202301N009319999999N9999999N1-02011+99999102061REMSYN069CMAN  24094 ATGM1 46/// /2318 11201 40206 90836 222// 0002 333 91205;
0078998252999992011012410004+44400-068200FM-18+0003ATGM1V0202301N009819999999N9999999N1-02011+99999102081REMSYN069CMAN  24104 ATGM1 46/// /2319 11201 40208 90936 222// 0002 333 91211;
0078998252999992011012411004+44400-068200FM-18+0003ATGM1V0202301N011819999999N9999999N1-02051+99999102131REMSYN069CMAN  24114 ATGM1 46/// /2323 11205 40213 91036 222// 0002 333 91205;
0078998252999992011012412004+44400-068200FM-18+0003ATGM1V0202301N013919999999N9999999N1-02101+99999102151REMSYN069CMAN  24124 ATGM1 46/// /2327 11210 40215 91136 222// 0001 333 91208;
0068998252999992011012413004+44400-068200FM-18+0003ATGM1V0202301N010819999999N9999999N1-02111+99999102281REMSYN059CMAN  24134 ATGM1 46/// /2321 11211 40228 91236 222// 0001;
0078998252999992011012414004+44400-068200FM-18+0003ATGM1V0202301N009819999999N9999999N1-02061+99999102391REMSYN069CMAN  24144 ATGM1 46/// /2319 11206 40239 91336 222// 0001 333 91203;
0078998252999992011012415004+44400-068200FM-18+0003ATGM1V0202401N008219999999N9999999N1-01951+99999102421REMSYN069CMAN  24154 ATGM1 46/// /2416 11195 40242 91436 222// 0001 333 91205;
0078998252999992011012416004+44400-068200FM-18+0003ATGM1V0202301N007719999999N9999999N1-01811+99999102401REMSYN069CMAN  24164 ATGM1 46/// /2315 11181 40240 91536 222// 0002 333 91202;
0078998252999992011012417004+44400-068200FM-18+0003ATGM1V0202301N012319999999N9999999N1-01701+99999102331REMSYN069CMAN  24174 ATGM1 46/// /2324 11170 40233 91636 222// 0003 333 91205;
0068998252999992011012418004+44400-068200FM-18+0003ATGM1V0202301N009319999999N9999999N1-01571+99999102331REMSYN059CMAN  24184 ATGM1 46/// /2318 11157 40233 91736 222// 0002;
0078998252999992011012419004+44400-068200FM-18+0003ATGM1V0202401N011319999999N9999999N1-01441+99999102321REMSYN069CMAN  24194 ATGM1 46/// /2422 11144 40232 91836 222// 0002 333 91203;
0078998252999992011012420004+44400-068200FM-18+0003ATGM1V0202501N009819999999N9999999N1-01351+99999102351REMSYN069CMAN  24204 ATGM1 46/// /2519 11135 40235 91936 222// 0002 333 91203;
0078998252999992011012421004+44400-068200FM-18+0003ATGM1V0202401N010319999999N9999999N1-01301+99999102401REMSYN069CMAN  24214 ATGM1 46/// /2420 11130 40240 92036 222// 0002 333 91203;
0078998252999992011012422004+44400-068200FM-18+0003ATGM1V0202401N007219999999N9999999N1-01391+99999102511REMSYN069CMAN  24224 ATGM1 46/// /2414 11139 40251 92136 222// 0002 333 91203;
0078998252999992011012423004+44400-068200FM-18+0003ATGM1V0202301N006719999999N9999999N1-01461+99999102581REMSYN069CMAN  24234 ATGM1 46/// /2313 11146 40258 92236 222// 0002 333 91205;
0078998252999992011012500004+44400-068200FM-18+0003ATGM1V0202301N006719999999N9999999N1-01471+99999102661REMSYN069CMAN  25004 ATGM1 46/// /2313 11147 40266 92336 222// 0001 333 91204;
0068998252999992011012501004+44400-068200FM-18+0003ATGM1V0202301N008219999999N9999999N1-01501+99999102731REMSYN059CMAN  25014 ATGM1 46/// /2316 11150 40273 90036 222// 0001;
0078998252999992011012502004+44400-068200FM-18+0003ATGM1V0202301N007219999999N9999999N1-01571+99999102741REMSYN069CMAN  25024 ATGM1 46/// /2314 11157 40274 90136 222// 0001 333 91204;
0078998252999992011012503004+44400-068200FM-18+0003ATGM1V0202301N006719999999N9999999N1-01601+99999102741REMSYN069CMAN  25034 ATGM1 46/// /2313 11160 40274 90236 222// 0001 333 91203;
