0096998252999992010010100004+44400-068200FM-18+0003ATGM1V0200901N002619999999N9999999N1+00061+99999102141REMSYN087CMAN  01004 ATGM1 46/// /0905 10006 40214 92336 222// 0003 29085 30216 90000 333 60000;
0072998252999992010010101004+44400-068200FM-18+0003ATGM1V0201001N002119999999N9999999N1+00111+99999102081REMSYN063CMAN  01014 ATGM1 46/// /1004 10011 40208 90036 222// 00031210;
0078998252999992010010102004+44400-068200FM-18+0003ATGM1V0201001N002619999999N9999999N1+00201+99999102001REMSYN069CMAN  01024 ATGM1 46/// /1005 10020 40200 90136 222// 0004 333 91203;
0078998252999992010010103004+44400-068200FM-18+0003ATGM1V0200701N005119999999N9999999N1+00301+99999101911REMSYN069CMAN  01034 ATGM1 46/// /0710 10030 40191 90236 222// 0004 333 91203;
0078998252999992010010104004+44400-068200FM-18+0003ATGM1V0200501N006719999999N9999999N1+00281+99999101851REMSYN069CMAN  01044 ATGM1 46/// /0513 10028 40185 90336 222// 0004 333 91203;
0078998252999992010010105004+44400-068200FM-18+0003ATGM1V0200601N006719999999N9999999N1+00351+99999101751REMSYN069CMAN  01054 ATGM1 46/// /0613 10035 40175 90436 222// 0003 333 91202;
0078998252999992010010106004+44400-068200FM-18+0003ATGM1V0200501N007219999999N9999999N1+00341+99999101651REMSYN069CMAN  01064 ATGM1 46/// /0514 10034 40165 90536 222// 0003 333 91202;
0078998252999992010010107004+44400-068200FM-18+0003ATGM1V0200501N007219999999N9999999N1+00321+99999101631REMSYN069CMAN  01074 ATGM1 46/// /0514 10032 40163 90636 222// 0003 333 91205;
0078998252999992010010108004+44400-068200FM-18+0003ATGM1V0200401N006719999999N9999999N1+00251+99999101601REMSYN069CMAN  01084 ATGM1 46/// /0413 10025 40160 90736 222// 0003 333 91209;
0078998252999992010010109004+44400-068200FM-18+0003ATGM1V0200301N007719999999N9999999N1+00151+99999101571REMSYN069CMAN  01094 ATGM1 46/// /0315 10015 40157 90836 222// 0003 333 91207;
0078998252999992010010110004+44400-068200FM-18+0003ATGM1V0200201N005119999999N9999999N1+00071+99999101481REMSYN069CMAN  01104 ATGM1 46/// /0210 10007 40148 90936 222// 0003 333 91207;
0078998252999992010010111004+44400-068200FM-18+0003ATGM1V0200301N006719999999N9999999N1+00061+99999101461REMSYN069CMAN  01114 ATGM1 46/// /0313 10006 40146 91042 222// 0003 333 91204;
0078998252999992010010112004+44400-068200FM-18+0003ATGM1V0200101N004619999999N9999999N1+00031+99999101461REMSYN069CMAN  01124 ATGM1 46/// /0109 10003 40146 91136 222// 0003 333 91204;
0078998252999992010010113004+44400-068200FM-18+0003ATGM1V0200201N006219999999N9999999N1-00051+99999101451REMSYN069CMAN  01134 ATGM1 46/// /0212 11005 40145 91236 222// 0004 333 91201;
0078998252999992010010114004+44400-068200FM-18+0003ATGM1V0200201N006719999999N9999999N1-00091+99999101431REMSYN069CMAN  01144 ATGM1 46/// /0213 11009 40143 91336 222// 0004 333 91203;
0000998252999992010010115004+44400-068200FM-18+0003ATGM1V0200301N006719999999N9999999N1-00111+99999101401
0078998252999992010010116004+44400-068200FM-18+0003ATGM1V0200101N004119999999N9999999N1-00141+99999101311REMSYN069CMAN  01164 ATGM1 46/// /0108 11014 40131 91542 222// 0004 333 91205;
0078998252999992010010117004+44400-068200FM-18+0003ATGM1V0200101N003619999999N9999999N1-00151+99999101231REMSYN069CMAN  01174 ATGM1 46/// /0107 11015 40123 91636 222// 0003 333 91208;
0099998252999992010010118004+44400-068200FM-18+0003ATGM1V0203501N004119999999N9999999N1-00161+99999101191REMSYN090CMAN  01184 ATGM1 46/// /3508 11016 40119 91742 222// 00035 11007 21006 324// 41102 70034;
0072998252999992010010119004+44400-068200FM-18+0003ATGM1V0203601N006219999999N9999999N1-00181+99999101131REMSYN063CMAN  01194 ATGM1 46/// /3612 11018 40113 91836 222// 00031219;
0078998252999992010010120004+44400-068200FM-18+0003ATGM1V0203601N006219999999N9999999N1-00211+99999101101REMSYN069CMAN  01204 ATGM1 46/// /3612 11021 40110 91936 222// 0003 333 91203;
0078998252999992010010121004+44400-068200FM-18+0003ATGM1V0203401N005119999999N9999999N1-00241+99999101141REMSYN069CMAN 01214 ATGM1 46/// /3410 11024 40114 92036 222// 00039 333 91212;
0078998252999992010010122004+44400-068200FM-18+0003ATGM1V0203601N005119999999N9999999N1-00341+99999101131REMSYN069CMAN  01224 ATGM1 46/// /3610 11034 40113 92136 222// 0003 333 91208;
0078998252999992010010123004+44400-068200FM-18+0003ATGM1V0203401N006219999999N9999999N1-00381+99999101101REMSYN069CMAN  01234 ATGM1 46/// /3412 11038 40110 92236 222// 0003 333 91203;
0072998252999992010010200004+44400-068200FM-18+0003ATGM1V0203401N005119999999N9999999N1-00391+99999101111REMSYN063CMAN  02004 ATGM1 46/// /3410 11039 40111 92336 222// 00031218;
0078998252999992010010201004+44400-068200FM-18+0003ATGM1V0203401N005719999999N9999999N1-00411+99999101051REMSYN069CMAN 02014 ATGM1 46/// /3411 11041 40105 90036 222// 00036 333 91214;
0078998252999992010010202004+44400-068200FM-18+0003ATGM1V0203401N006719999999N9999999N1-00421+99999100981REMSYN069CMAN  02024 ATGM1 46/// /3413 11042 40098 90136 222// 0003 333 91201;
0078998252999992010010203004+44400-068200FM-18+0003ATGM1V0203301N005119999999N9999999N1-00411+99999100891REMSYN069CMAN  02034 ATGM1 46/// /3310 11041 40089 90236 222// 0004 333 91202;
0078998252999992010010204004+44400-068200FM-18+0003ATGM1V0203301N007219999999N9999999N1-00431+99999100791REMSYN069CMAN  02044 ATGM1 46/// /3314 11043 40079 90336 222// 0003 333 91204;
0078998252999992010010205004+44400-068200FM-18+0003ATGM1V0203301N006219999999N9999999N1-00421+99999100751REMSYN069CMAN  02054 ATGM1 46/// /3312 11042 40075 90436 222// 0003 333 91202;
0078998252999992010010206004+44400-068200FM-18+0003ATGM1V0203301N006719999999N9999999N1-00421+99999100581REMSYN069CMAN  02064 ATGM1 46/// /3313 11042 40058 90542 222// 0003 333 91203;
0000998252999992010010207004+44400-068200FM-18+0003ATGM1V0203301N005719999999N9999999N1-00401+99999100591
0078998252999992010010208004+44400-068200FM-18+0003ATGM1V0203301N005719999999N9999999N1-00421+99999100571REMSYN069CMAN  02084 ATGM1 46/// /3311 11042 40057 90736 222// 0003 333 91201;
0078998252999992010010209004+44400-068200FM-18+0003ATGM1V0203201N005719999999N9999999N1-00401+99999100441REMSYN069CMAN  02094 ATGM1 46/// /3211 11040 40044 90836 222// 0003 333 91202;
0078998252999992010010210004+44400-068200FM-18+0003ATGM1V0203301N007219999999N9999999N1-00371+99999100361REMSYN069CMAN  02104 ATGM1 46/// /3314 11037 40036 90936 222// 0003 333 91203;
0078998252999992010010211004+44400-068200FM-18+0003ATGM1V0203201N007219999999N9999999N1-00401+99999100261REMSYN069CMAN  02114 ATGM1 46/// /3214 11040 40026 91036 222// 0002 333 91205;
0078998252999992010010212004+44400-068200FM-18+0003ATGM1V0203201N008219999999N9999999N1-00381+99999100181REMSYN069CMAN  02124 ATGM1 46/// /3216 11038 40018 91136 222// 0002 333 91207;
0078998252999992010010213004+44400-068200FM-18+0003ATGM1V0203201N007719999999N9999999N1-00411+99999100091REMSYN069CMAN  02134 ATGM1 46/// /3215 11041 40009 91236 222// 0003 333 91205;
0078998252999992010010214004+44400-068200FM-18+0003ATGM1V0203201N007219999999N9999999N1-00421+99999100011REMSYN069CMAN  02144 ATGM1 46/// /3214 11042 40001 91336 222// 0003 333 91201;
0078998252999992010010215004+44400-068200FM-18+0003ATGM1V0203201N007219999999N9999999N1-00401+99999099921REMSYN069CMAN  02154 ATGM1 46/// /3214 11040 49992 91436 222// 0003 333 91203;
0000998252999992010010216004+44400-068200FM-18+0003ATGM1V0203101N006219999999N9999999N1-00411+99999099761
0078998252999992010010217004+44400-068200FM-18+0003ATGM1V0203101N004619999999N9999999N1-00361+99999099621REMSYN069CMAN  02174 ATGM1 46/// /3109 11036 49962 91636 222// 0003 333 91202;
0078998252999992010010218004+44400-068200FM-18+0003ATGM1V0202801N006719999999N9999999N1-00371+99999099441REMSYN069CMAN  02184 ATGM1 46/// /2813 11037 49944 91736 222// 0003 333 91202;
0085998252999992010010219004+44400-068200FM-18+0003ATGM1V0202801N006219999999N9999999N1-00391+99999099321REMSYN076CMAN  02194 ATGM1 46/// /2812 11039 49932 91836 222// 000356900 59022 84610;
0078998252999992010010220004+44400-068200FM-18+0003ATGM1V0202701N007719999999N9999999N1-00421+99999099201REMSYN069CMAN  02204 ATGM1 46/// /2715 11042 49920 91936 222// 0003 333 91205;
0078998252999992010010221004+44400-068200FM-18+0003ATGM1V0202701N008719999999N9999999N1-00401+99999099081REMSYN069CMAN  02214 ATGM1 46/// /2717 11040 49908 92036 222// 0002 333 91207;
0080998252999992010010222004+44400-068200FM-18+0003ATGM1V0202701N009819999999N9999999N1-00441+99999098911REMSYN071CMAN  02224 ATGM1 46/// /2719 11044 49891 92136 222// 0002 22220 00019;
0078998252999992010010223004+44400-068200FM-18+0003ATGM1V0202601N009819999999N9999999N1-00441+99999098731REMSYN069CMAN  02234 ATGM1 46/// /2619 11044 49873 92236 222// 0002 333 91209;
0078998252999992010010300004+44400-068200FM-18+0003ATGM1V0202601N008719999999N9999999N1-00421+99999098561REMSYN069CMAN  03004 ATGM1 46/// /2617 11042 49856 92336 222// 0002 333 91204;
0000998252999992010010301004+44400-068200FM-18+0003ATGM1V0202501N010819999999N9999999N1-00401+99999098311
0078998252999992010010302004+44400-068200FM-18+0003ATGM1V0202601N011319999999N9999999N1-00321+99999098031REMSYN069CMAN  03024 ATGM1 46/// /2622 11032 49803 90142 222// 0002 333 91203;
0090998252999992010010303004+44400-068200FM-18+0003ATGM1V0202501N011319999999N9999999N1-00331+99999097811REMSYN081CMAN  03034 ATGM1 46/// /2522 11033 49781 90236 222// 0001 69901 333 91113 91210;
0078998252999992010010304004+44400-068200FM-18+0003ATGM1V0202501N009319999999N9999999N1-00261+99999097651REMSYN069CMAN  03044 ATGM1 46/// /2518 11026 49765 90336 222// 0003 333 91202;
0078998252999992010010305004+44400-068200FM-18+0003ATGM1V0202501N007219999999N9999999N1-00231+99999097481REMSYN069CMAN  03054 ATGM1 46/// /2514 11023 49748 90436 222// 0002 333 91202;
0078998252999992010010306004+44400-068200FM-18+0003ATGM1V0202501N005719999999N9999999N1-00211+99999097431REMSYN069CMAN  03064 ATGM1 46/// /2511 11021 49743 90536 222// 0003 333 91205;
0078998252999992010010307004+44400-068200FM-18+0003ATGM1V0202301N004619999999N9999999N1-00181+99999097471REMSYN069CMAN  03074 ATGM1 46/// /2309 11018 49747 90636 222// 0002 333 91204;
0078998252999992010010308004+44400-068200FM-18+0003ATGM1V0202201N003119999999N9999999N1-00161+99999097531REMSYN069CMAN  03084 ATGM1 46/// /2206 11016 49753 90736 222// 0003 333 91204;
0078998252999992010010309004+44400-068200FM-18+0003ATGM1V0203101N001019999999N9999999N1-00061+99999097701REMSYN069CMAN  03094 ATGM1 46/// /3102 11006 49770 90836 222// 0002 333 91203;
0078998252999992010010310004+44400-068200FM-18+0003ATGM1V0203601N005719999999N9999999N1+00101+99999097781REMSYN069CMAN  03104 ATGM1 46/// /3611 10010 49778 90936 222// 0002 333 91203;
0072998252999992010010311004+44400-068200FM-18+0003ATGM1V0200101N008719999999N9999999N1+00131+99999097901REMSYN063CMAN  03114 ATGM1 46/// /0117 10013 49790 91036 222// 00011220;
0078998252999992010010312004+44400-068200FM-18+0003ATGM1V0200101N007219999999N9999999N1+00101+99999098071REMSYN069CMAN  03124 ATGM1 46/// /0114 10010 49807 91136 222// 0002 333 91205;
0078998252999992010010313004+44400-068200FM-18+0003ATGM1V0200101N006219999999N9999999N1+00131+99999098201REMSYN069CMAN  03134 ATGM1 46/// /0112 10013 49820 91236 222// 0002 333 91203;
0078998252999992010010314004+44400-068200FM-18+0003ATGM1V0203501N003619999999N9999999N1+00121+99999098331REMSYN069CMAN  03144 ATGM1 46/// /3507 10012 49833 91336 222// 0002 333 91205;
0078998252999992010010315004+44400-068200FM-18+0003ATGM1V0203501N006719999999N9999999N1+00151+99999098441REMSYN069CMAN  03154 ATGM1 46/// /3513 10015 49844 91442 222// 0003 333 91204;
0078998252999992010010316004+44400-068200FM-18+0003ATGM1V0203401N006219999999N9999999N1+00171+99999098391REMSYN069CMAN  03164 ATGM1 46/// /3412 10017 49839 91536 222// 0003 333 91205;
0078998252999992010010317004+44400-068200FM-18+0003ATGM1V0203401N005119999999N9999999N1+00211+99999098391REMSYN069CMAN  03174 ATGM1 46/// /3410 10021 49839 91642 222// 0003 333 91203;
0089998252999992010010318004+44400-068200FM-18+0003ATGM1V0203101N004619999999N9999999N1+00171+99999098401REMSYN080CMAN  03184 ATGM1 46/// /3109 10017 49840 91736 222// 000256199 70003 555 90318;
0078998252999992010010319004+44400-068200FM-18+0003ATGM1V0203201N005119999999N9999999N1+00141+99999098451REMSYN069CMAN  03194 ATGM1 46/// /3210 10014 49845 91836 222// 0002 333 91203;
0078998252999992010010320004+44400-068200FM-18+0003ATGM1V0203101N005119999999N9999999N1+00171+99999098501REMSYN069CMAN  03204 ATGM1 46/// /3110 10017 49850 91936 222// 0002 333 91204;
0150998252999992010010321004+44400-068200FM-18+0003ATGM1V0203201N007219999999N9999999N1+00191+99999098561REMSYN141CMAN  03214 ATGM1 46/// /3214 10019 49856 92036 222// 0003 40290 54/// 70322 889// 2225/ 00080 20502 31212 40502 50502 6//// 80030 ICE /////;
0078998252999992010010322004+44400-068200FM-18+0003ATGM1V0203201N008719999999N9999999N1+00231+99999098591REMSYN069CMAN  03224 ATGM1 46/// /3217 10023 49859 92136 222// 0002 333 91204;
0072998252999992010010323004+44400-068200FM-18+0003ATGM1V0203201N006719999999N9999999N1+00191+99999098651REMSYN063CMAN  03234 ATGM1 46/// /3213 10019 49865 92236 222// 00021215;
0078998252999992010010400004+44400-068200FM-18+0003ATGM1V0202901N006719999999N9999999N1+00181+99999098701REMSYN069CMAN  04004 ATGM1 46/// /2913 10018 49870 92336 222// 0002 333 91203;
0114998252999992010010401004+44400-068200FM-18+0003ATGM1V0202701N005119999999N9999999N1+00151+99999098721REMSYN105CMAN  04014 ATGM1 46/// /2710 10015 49872 90036 222// 0002 60001 875// 333 46997 55300 81610 86635 87657;
0078998252999992010010402004+44400-068200FM-18+0003ATGM1V0202801N005719999999N9999999N1+00171+99999098701REMSYN069CMAN  04024 ATGM1 46/// /2811 10017 49870 90136 222// 0003 333 91208;
0078998252999992010010403004+44400-068200FM-18+0003ATGM1V0202601N006719999999N9999999N1+00191+99999098691REMSYN069CMAN  04034 ATGM1 46/// /2613 10019 49869 90236 222// 0003 333 91203;
0078998252999992010010404004+44400-068200FM-18+0003ATGM1V0202701N006719999999N9999999N1+00181+99999098681REMSYN069CMAN  04044 ATGM1 46/// /2713 10018 49868 90336 222// 0003 333 91202;
0078998252999992010010405004+44400-068200FM-18+0003ATGM1V0202601N009819999999N9999999N1+00201+99999098651REMSYN069CMAN  04054 ATGM1 46/// /2619 10020 49865 90436 222// 0003 333 91202;
0078998252999992010010406004+44400-068200FM-18+0003ATGM1V0202601N009819999999N9999999N1+00181+99999098661REMSYN069CMAN  04064 ATGM1 46/// /2619 10018 49866 90536 222// 0002 333 91202;
0078998252999992010010407004+44400-068200FM-18+0003ATGM1V0202601N010319999999N9999999N1+00191+99999098691REMSYN069CMAN  04074 ATGM1 46/// /2620 10019 49869 90636 222// 0003 333 91206;
0078998252999992010010408004+44400-068200FM-18+0003ATGM1V0202501N010819999999N9999999N1+00141+99999098721REMSYN069CMAN  04084 ATGM1 46/// /2521 10014 49872 90736 222// 0003 333 91205;
0078998252999992010010409004+44400-068200FM-18+0003ATGM1V0202601N010819999999N9999999N1+00091+99999098731REMSYN069CMAN  04094 ATGM1 46/// /2621 10009 49873 90836 222// 0003 333 91204;
0078998252999992010010410004+44400-068200FM-18+0003ATGM1V0202501N009819999999N9999999N1+00111+99999098771REMSYN069CMAN  04104 ATGM1 46/// /2519 10011 49877 90942 222// 0003 333 91202;
0000998252999992010010411004+44400-068200FM-18+0003ATGM1V0202501N008719999999N9999999N1+00161+99999098831
0078998252999992010010412004+44400-068200FM-18+0003ATGM1V0202601N009319999999N9999999N1+00181+99999098911REMSYN069CMAN  04124 ATGM1 46/// /2618 10018 49891 91136 222// 0003 333 91205;
0078998252999992010010413004+44400-068200FM-18+0003ATGM1V0202501N008719999999N9999999N1+00131+99999098981REMSYN069CMAN  04134 ATGM1 46/// /2517 10013 49898 91236 222// 0003 333 91202;
0078998252999992010010414004+44400-068200FM-18+0003ATGM1V0202601N008719999999N9999999N1+00201+99999099091REMSYN069CMAN  04144 ATGM1 46/// /2617 10020 49909 91336 222// 0003 333 91204;
0078998252999992010010415004+44400-068200FM-18+0003ATGM1V0202601N007719999999N9999999N1+00191+99999099191REMSYN069CMAN  04154 ATGM1 46/// /2615 10019 49919 91436 222// 0003 333 91204;
0078998252999992010010416004+44400-068200FM-18+0003ATGM1V0202601N006219999999N9999999N1+00211+99999099251REMSYN069CMAN  04164 ATGM1 46/// /2612 10021 49925 91536 222// 0003 333 91202;
0078998252999992010010417004+44400-068200FM-18+0003ATGM1V0202601N007219999999N9999999N1+00261+99999099261REMSYN069CMAN  04174 ATGM1 46/// /2614 10026 49926 91636 222// 0003 333 91202;
0078998252999992010010418004+44400-068200FM-18+0003ATGM1V0202401N004619999999N9999999N1+00211+99999099281REMSYN069CMAN  04184 ATGM1 46/// /2409 10021 49928 91736 222// 0003 333 91204;
0000998252999992010010419004+44400-068200FM-18+0003ATGM1V0202501N005119999999N9999999N1+00291+99999099331
0090998252999992010010420004+44400-068200FM-18+0003ATGM1V0202401N004619999999N9999999N1+00261+99999099421REMSYN081CMAN  04204 ATGM1 46/// /2409 10026 49942 91936 222// 0003 72842 876// 333 87702;
0000998252999992010010421004+44400-068200FM-18+0003ATGM1V0202501N005119999999N9999999N1+00231+99999099521
0099998252999992010010422004+44400-068200FM-18+0003ATGM1V0202401N005119999999N9999999N1+00221+99999099541REMSYN090CMAN  04224 ATGM1 46/// /2410 10022 49954 92136 222// 00034 10805 20805 326// 41701 70026;
0078998252999992010010423004+44400-068200FM-18+0003ATGM1V0202401N005119999999N9999999N1+00191+99999099611REMSYN069CMAN  04234 ATGM1 46/// /2410 10019 49961 92236 222// 0003 333 91205;
0078998252999992010010500004+44400-068200FM-18+0003ATGM1V0202301N004619999999N9999999N1+00151+99999099661REMSYN069CMAN  05004 ATGM1 46/// /2309 10015 49966 92336 222// 0003 333 91204;
0078998252999992010010501004+44400-068200FM-18+0003ATGM1V0202201N004119999999N9999999N1+00111+99999099721REMSYN069CMAN  05014 ATGM1 46/// /2208 10011 49972 90036 222// 0003 333 91203;
0078998252999992010010502004+44400-068200FM-18+0003ATGM1V0202201N004119999999N9999999N1+00041+99999099751REMSYN069CMAN  05024 ATGM1 46/// /2208 10004 49975 90136 222// 0003 333 91203;
0078998252999992010010503004+44400-068200FM-18+0003ATGM1V0202201N004619999999N9999999N1+00041+99999099751REMSYN069CMAN  05034 ATGM1 46/// /2209 10004 49975 90236 222// 0003 333 91202;
0078998252999992010010504004+44400-068200FM-18+0003ATGM1V0202201N004119999999N9999999N1+00031+99999099771REMSYN069CMAN  05044 ATGM1 46/// /2208 10003 49977 90336 222// 0003 333 91201;
0078998252999992010010505004+44400-068200FM-18+0003ATGM1V0202201N004119999999N9999999N1+00021+99999099761REMSYN069CMAN  05054 ATGM1 46/// /2208 10002 49976 90436 222// 0003 333 91205;
0078998252999992010010506004+44400-068200FM-18+0003ATGM1V0202301N005119999999N9999999N1+00001+99999099731REMSYN069CMAN  05064 ATGM1 46/// /2310 10000 49973 90536 222// 0003 333 91201;
0078998252999992010010507004+44400-068200FM-18+0003ATGM1V0202401N006219999999N9999999N1-00021+99999099761REMSYN069CMAN  05074 ATGM1 46/// /2412 11002 49976 90636 222// 0003 333 91202;
0078998252999992010010508004+44400-068200FM-18+0003ATGM1V0202301N005719999999N9999999N1-00071+99999099771REMSYN069CMAN  05084 ATGM1 46/// /2311 11007 49977 90736 222// 0003 333 91203;
0078998252999992010010509004+44400-068200FM-18+0003ATGM1V0202301N005719999999N9999999N1-00111+99999099751REMSYN069CMAN  05094 ATGM1 46/// /2311 11011 49975 90836 222// 0003 333 91201;
0078998252999992010010510004+44400-068200FM-18+0003ATGM1V0202301N005719999999N9999999N1-00121+99999099731REMSYN069CMAN  05104 ATGM1 46/// /2311 11012 49973 90936 222// 0003 333 91203;
0078998252999992010010511004+44400-068200FM-18+0003ATGM1V0202301N005119999999N9999999N1-00131+99999099761REMSYN069CMAN  05114 ATGM1 46/// /2310 11013 49976 91036 222// 0003 333 91207;
0078998252999992010010512004+44400-068200FM-18+0003ATGM1V0202101N003619999999N9999999N1-00141+99999099801REMSYN069CMAN  05124 ATGM1 46/// /2107 11014 49980 91136 222// 0003 333 91202;
0078998252999992010010513004+44400-068200FM-18+0003ATGM1V0202201N004619999999N9999999N1-00131+99999099831REMSYN069CMAN  05134 ATGM1 46/// /2209 11013 49983 91236 222// 0003 333 91204;
0078998252999992010010514004+44400-068200FM-18+0003ATGM1V0202401N006719999999N9999999N1-00121+99999099831REMSYN069CMAN  05144 ATGM1 46/// /2413 11012 49983 91336 222// 0003 333 91204;
0072998252999992010010515004+44400-068200FM-18+0003ATGM1V0202401N005119999999N9999999N1-00091+99999099881REMSYN063CMAN  05154 ATGM1 46/// /2410 11009 49988 91436 222// 00031223;
0078998252999992010010516004+44400-068200FM-18+0003ATGM1V0202301N004619999999N9999999N1-00021+99999099841REMSYN069CMAN  05164 ATGM1 46/// /2309 11002 49984 91536 222// 0003 333 91202;
0078998252999992010010517004+44400-068200FM-18+0003ATGM1V0202401N006219999999N9999999N1+00091+99999099801REMSYN069CMAN  05174 ATGM1 46/// /2412 10009 49980 91636 222// 0003 333 91203;
0152998252999992010010518004+44400-068200FM-18+0003ATGM1V0202401N006719999999N9999999N1+00131+99999099741REMSYN143CMAN  05184 ATGM1 46/// /2413 10013 49974 91736 222// 0003// 40167 5//// 70222 8//// 22233 00040 2//02 3//// 4//// 5//// 6//// 8//// ICE /////;
0078998252999992010010519004+44400-068200FM-18+0003ATGM1V0202501N005119999999N9999999N1+00161+99999099731REMSYN069CMAN  05194 ATGM1 46/// /2510 10016 49973 91836 222// 0003 333 91205;
0078998252999992010010520004+44400-068200FM-18+0003ATGM1V0202601N005719999999N9999999N1+00161+99999099731REMSYN069CMAN  05204 ATGM1 46/// /2611 10016 49973 91936 222// 0003 333 91203;
0078998252999992010010521004+44400-068200FM-18+0003ATGM1V0202401N004619999999N9999999N1+00151+99999099711REMSYN069CMAN  05214 ATGM1 46/// /2409 10015 49971 92036 222// 0003 333 91206;
0078998252999992010010522004+44400-068200FM-18+0003ATGM1V0202201N004119999999N9999999N1+00101+99999099711REMSYN069CMAN  05224 ATGM1 46/// /2208 10010 49971 92142 222// 0003 333 91207;
0072998252999992010010523004+44400-068200FM-18+0003ATGM1V0202401N006219999999N9999999N1+00101+99999099701REMSYN063CMAN  05234 ATGM1 46/// /2412 10010 49970 92236 222// 00031222;
0078998252999992010010600004+44400-068200FM-18+0003ATGM1V0202401N006719999999N9999999N1+00041+99999099731REMSYN069CMAN  06004 ATGM1 46/// /2413 10004 49973 92336 222// 0003 333 91206;
0078998252999992010010601004+44400-068200FM-18+0003ATGM1V0202401N006719999999N9999999N1-00021+99999099761REMSYN069CMAN  06014 ATGM1 46/// /2413 11002 49976 90036 222// 0003 333 91206;
0078998252999992010010602004+44400-068200FM-18+0003ATGM1V0202601N005119999999N9999999N1-00061+99999099751REMSYN069CMAN  06024 ATGM1 46/// /2610 11006 49975 90136 222// 0003 333 91205;
0078998252999992010010603004+44400-068200FM-18+0003ATGM1V0202301N005719999999N9999999N1-00081+99999099751REMSYN069CMAN  06034 ATGM1 46/// /2311 11008 49975 90242 222// 0003 333 91206;
0078998252999992010010604004+44400-068200FM-18+0003ATGM1V0202401N005119999999N9999999N1-00101+99999099721REMSYN069CMAN  06044 ATGM1 46/// /2410 11010 49972 90336 222// 0003 333 91205;
0078998252999992010010605004+44400-068200FM-18+0003ATGM1V0202401N007219999999N9999999N1-00131+99999099671REMSYN069CMAN  06054 ATGM1 46/// /2414 11013 49967 90436 222// 0003 333 91204;
0078998252999992010010606004+44400-068200FM-18+0003ATGM1V0202401N005719999999N9999999N1-00141+99999099641REMSYN069CMAN  06064 ATGM1 46/// /2411 11014 49964 90536 222// 0003 333 91203;
0078998252999992010010607004+44400-068200FM-18+0003ATGM1V0202401N006719999999N9999999N1-00161+99999099651REMSYN069CMAN  06074 ATGM1 46/// /2413 11016 49965 90636 222// 0003 333 91205;
0078998252999992010010608004+44400-068200FM-18+0003ATGM1V0202401N006719999999N9999999N1-00171+99999099651REMSYN069CMAN  06084 ATGM1 46/// /2413 11017 49965 90736 222// 0003 333 91207;
0072998252999992010010609004+44400-068200FM-18+0003ATGM1V0202301N005719999999N9999999N1-00171+99999099631REMSYN063CMAN  06094 ATGM1 46/// /2311 11017 49963 90836 222// 00031217;
0078998252999992010010610004+44400-068200FM-18+0003ATGM1V0202301N004619999999N9999999N1-00171+99999099611REMSYN069CMAN  06104 ATGM1 46/// /2309 11017 49961 90936 222// 0003 333 91202;
0078998252999992010010611004+44400-068200FM-18+0003ATGM1V0202301N006219999999N9999999N1-00191+99999099591REMSYN069CMAN  06114 ATGM1 46/// /2312 11019 49959 91036 222// 0002 333 91204;
0078998252999992010010612004+44400-068200FM-18+0003ATGM1V0202301N006219999999N9999999N1-00211+99999099611REMSYN069CMAN  06124 ATGM1 46/// /2312 11021 49961 91136 222// 0003 333 91205;
0078998252999992010010613004+44400-068200FM-18+0003ATGM1V0202301N004619999999N9999999N1-00251+99999099631REMSYN069CMAN  06134 ATGM1 46/// /2309 11025 49963 91236 222// 0003 333 91203;
0078998252999992010010614004+44400-068200FM-18+0003ATGM1V0202301N006219999999N9999999N1-00201+99999099641REMSYN069CMAN  06144 ATGM1 46/// /2312 11020 49964 91336 222// 0003 333 91205;
0078998252999992010010615004+44400-068200FM-18+0003ATGM1V0202301N006719999999N9999999N1-00171+99999099621REMSYN069CMAN  06154 ATGM1 46/// /2313 11017 49962 91436 222// 0003 333 91202;
0078998252999992010010616004+44400-068200FM-18+0003ATGM1V0202301N007719999999N9999999N1-00121+99999099601REMSYN069CMAN  06164 ATGM1 46/// /2315 11012 49960 91536 222// 0003 333 91204;
0078998252999992010010617004+44400-068200FM-18+0003ATGM1V0202201N006219999999N9999999N1-00081+99999099531REMSYN069CMAN  06174 ATGM1 46/// /2212 11008 49953 91636 222// 0003 333 91205;
0078998252999992010010618004+44400-068200FM-18+0003ATGM1V0202401N007219999999N9999999N1-00011+99999099481REMSYN069CMAN  06184 ATGM1 46/// /2414 11001 49948 91736 222// 0003 333 91205;
0078998252999992010010619004+44400-068200FM-18+0003ATGM1V0202401N007219999999N9999999N1+00031+99999099461REMSYN069CMAN  06194 ATGM1 46/// /2414 10003 49946 91836 222// 0003 333 91205;
0078998252999992010010620004+44400-068200FM-18+0003ATGM1V0202301N006719999999N9999999N1+00111+99999099431REMSYN069CMAN  06204 ATGM1 46/// /2313 10011 49943 91936 222// 0003 333 91206;
0078998252999992010010621004+44400-068200FM-18+0003ATGM1V0202301N007219999999N9999999N1+00031+99999099501REMSYN069CMAN  06214 ATGM1 46/// /2314 10003 49950 92036 222// 0003 333 91205;
0000998252999992010010622004+44400-068200FM-18+0003ATGM1V0202201N004119999999N9999999N1-00041+99999099551
0078998252999992010010623004+44400-068200FM-18+0003ATGM1V0202301N007219999999N9999999N1-00011+99999099581REMSYN069CMAN  06234 ATGM1 46/// /2314 11001 49958 92236 222// 0003 333 91207;
0078998252999992010010700004+44400-068200FM-18+0003ATGM1V0202501N008219999999N9999999N1-00011+99999099611REMSYN069CMAN  07004 ATGM1 46/// /2516 11001 49961 92336 222// 0003 333 91208;
0078998252999992010010701004+44400-068200FM-18+0003ATGM1V0202501N011819999999N9999999N1-00071+99999099621REMSYN069CMAN  07014 ATGM1 46/// /2523 11007 49962 90036 222// 0003 333 91208;
0078998252999992010010702004+44400-068200FM-18+0003ATGM1V0202501N007219999999N9999999N1-00101+99999099641REMSYN069CMAN  07024 ATGM1 46/// /2514 11010 49964 90136 222// 0002 333 91206;
0078998252999992010010703004+44400-068200FM-18+0003ATGM1V0202401N008719999999N9999999N1-00161+99999099651REMSYN069CMAN  07034 ATGM1 46/// /2417 11016 49965 90236 222// 0002 333 91209;
0000998252999992010010704004+44400-068200FM-18+0003ATGM1V0202301N006219999999N9999999N1-00211+99999099721
0078998252999992010010705004+44400-068200FM-18+0003ATGM1V0202201N005719999999N9999999N1-00271+99999099711REMSYN069CMAN  07054 ATGM1 46/// /2211 11027 49971 90436 222// 0003 333 91206;
0078998252999992010010706004+44400-068200FM-18+0003ATGM1V0202201N006219999999N9999999N1-00281+99999099701REMSYN069CMAN  07064 ATGM1 46/// /2212 11028 49970 90536 222// 0003 333 91206;
0078998252999992010010707004+44400-068200FM-18+0003ATGM1V0202201N006719999999N9999999N1-00311+99999099741REMSYN069CMAN  07074 ATGM1 46/// /2213 11031 49974 90636 222// 0003 333 91202;
0000998252999992010010708004+44400-068200FM-18+0003ATGM1V0202301N006719999999N9999999N1-00301+99999099781
0078998252999992010010709004+44400-068200FM-18+0003ATGM1V0202301N006719999999N9999999N1-00291+99999099801REMSYN069CMAN  07094 ATGM1 46/// /2313 11029 49980 90836 222// 0002 333 91204;
0078998252999992010010710004+44400-068200FM-18+0003ATGM1V0202401N006219999999N9999999N1-00271+99999099831REMSYN069CMAN  07104 ATGM1 46/// /2412 11027 49983 90936 222// 0002 333 91205;
0078998252999992010010711004+44400-068200FM-18+0003ATGM1V0202301N005719999999N9999999N1-00321+99999099861REMSYN069CMAN  07114 ATGM1 46/// /2311 11032 49986 91036 222// 0002 333 91204;
0097998252999992010010712004+44400-068200FM-18+0003ATGM1V0202301N006719999999N9999999N1-00341+99999099931REMSYN088CMAN  07124 ATGM1 46/// /2313 11034 49993 91136 222// 00028 333 10315 566/9 82820 86280;
0078998252999992010010713004+44400-068200FM-18+0003ATGM1V0202201N005719999999N9999999N1-00341+99999099991REMSYN069CMAN  07134 ATGM1 46/// /2211 11034 49999 91236 222// 0002 333 91206;
0078998252999992010010714004+44400-068200FM-18+0003ATGM1V0202301N007219999999N9999999N1-00291+99999100011REMSYN069CMAN  07144 ATGM1 46/// /2314 11029 40001 91336 222// 0002 333 91205;
0000998252999992010010715004+44400-068200FM-18+0003ATGM1V0202401N008219999999N9999999N1-00231+99999100081
0078998252999992010010716004+44400-068200FM-18+0003ATGM1V0202401N008719999999N9999999N1-00181+99999100061REMSYN069CMAN  07164 ATGM1 46/// /2417 11018 40006 91536 222// 0002 333 91210;
0099998252999992010010717004+44400-068200FM-18+0003ATGM1V0202401N010319999999N9999999N1-00111+99999100011REMSYN090CMAN  07174 ATGM1 46/// /2420 11011 40001 91636 222// 00026 11104 21003 324// 41102 70019;
0074998252999992010010718004+44400-068200FM-18+0003ATGM1V0202501N010819999999N9999999N1-00091+99999099971REMSYN065CMAN  07184 ATGM1 46/// /2521 11009 49997 91736 222// 0003 85050;
0078998252999992010010719004+44400-068200FM-18+0003ATGM1V0202501N009319999999N9999999N1-00051+99999099961REMSYN069CMAN  07194 ATGM1 46/// /2518 11005 49996 91836 222// 0003 333 91206;
0078998252999992010010720004+44400-068200FM-18+0003ATGM1V0202601N009319999999N9999999N1-00011+99999100071REMSYN069CMAN  07204 ATGM1 46/// /2618 11001 40007 91936 222// 0002 333 91204;
0078998252999992010010721004+44400-068200FM-18+0003ATGM1V0202401N008719999999N9999999N1-00051+99999100121REMSYN069CMAN  07214 ATGM1 46/// /2417 11005 40012 92036 222// 0002 333 91209;
0078998252999992010010722004+44400-068200FM-18+0003ATGM1V0202401N007219999999N9999999N1-00091+99999100181REMSYN069CMAN  07224 ATGM1 46/// /2414 11009 40018 92136 222// 0002 333 91207;
0078998252999992010010723004+44400-068200FM-18+0003ATGM1V0202501N007219999999N9999999N1-00161+99999100271REMSYN069CMAN  07234 ATGM1 46/// /2514 11016 40027 92236 222// 0002 333 91211;
0078998252999992010010800004+44400-068200FM-18+0003ATGM1V0202301N005719999999N9999999N1-00251+99999100371REMSYN069CMAN  08004 ATGM1 46/// /2311 11025 40037 92336 222// 0002 333 91209;
0078998252999992010010801004+44400-068200FM-18+0003ATGM1V0202301N006219999999N9999999N1-00311+99999100411REMSYN069CMAN  08014 ATGM1 46/// /2312 11031 40041 90036 222// 0002 333 91209;
0078998252999992010010802004+44400-068200FM-18+0003ATGM1V0202201N004619999999N9999999N1-00381+99999100451REMSYN069CMAN  08024 ATGM1 46/// /2209 11038 40045 90136 222// 0002 333 91209;
0078998252999992010010803004+44400-068200FM-18+0003ATGM1V0202201N005119999999N9999999N1-00451+99999100481REMSYN069CMAN  08034 ATGM1 46/// /2210 11045 40048 90242 222// 0002 333 91209;
0078998252999992010010804004+44400-068200FM-18+0003ATGM1V0202201N005119999999N9999999N1-00471+99999100501REMSYN069CMAN  08044 ATGM1 46/// /2210 11047 40050 90336 222// 0003 333 91206;
0078998252999992010010805004+44400-068200FM-18+0003ATGM1V0202201N004619999999N9999999N1-00501+99999100511REMSYN069CMAN  08054 ATGM1 46/// /2209 11050 40051 90436 222// 0003 333 91205;
0078998252999992010010806004+44400-068200FM-18+0003ATGM1V0202101N003119999999N9999999N1-00521+99999100521REMSYN069CMAN  08064 ATGM1 46/// /2106 11052 40052 90536 222// 0003 333 91219;
0078998252999992010010807004+44400-068200FM-18+0003ATGM1V0202001N004119999999N9999999N1-00561+99999100551REMSYN069CMAN  08074 ATGM1 46/// /2008 11056 40055 90636 222// 0003 333 91204;
0078998252999992010010808004+44400-068200FM-18+0003ATGM1V0202001N004619999999N9999999N1-00591+99999100561REMSYN069CMAN  08084 ATGM1 46/// /2009 11059 40056 90736 222// 0003 333 91207;
0078998252999992010010809004+44400-068200FM-18+0003ATGM1V0202001N003619999999N9999999N1-00611+99999100571REMSYN069CMAN  08094 ATGM1 46/// /2007 11061 40057 90836 222// 0003 333 91207;
0078998252999992010010810004+44400-068200FM-18+0003ATGM1V0202301N004619999999N9999999N1-00601+99999100531REMSYN069CMAN  08104 ATGM1 46/// /2309 11060 40053 90936 222// 0003 333 91204;
0078998252999992010010811004+44400-068200FM-18+0003ATGM1V0201901N002619999999N9999999N1-00661+99999100541REMSYN069CMAN  08114 ATGM1 46/// /1905 11066 40054 91036 222// 0002 333 91205;
0078998252999992010010812004+44400-068200FM-18+0003ATGM1V0202001N003619999999N9999999N1-00661+99999100561REMSYN069CMAN  08124 ATGM1 46/// /2007 11066 40056 91142 222// 0002 333 91205;
0078998252999992010010813004+44400-068200FM-18+0003ATGM1V0202101N002619999999N9999999N1-00631+99999100581REMSYN069CMAN  08134 ATGM1 46/// /2105 11063 40058 91236 222// 0002 333 91205;
0078998252999992010010814004+44400-068200FM-18+0003ATGM1V0202201N003119999999N9999999N1-00601+99999100601REMSYN069CMAN  08144 ATGM1 46/// /2206 11060 40060 91336 222// 0002 333 91207;
0000998252999992010010815004+44400-068200FM-18+0003ATGM1V0202401N002619999999N9999999N1-00571+99999100631
0078998252999992010010816004+44400-068200FM-18+0003ATGM1V0202201N001519999999N9999999N1-00531+99999100561REMSYN069CMAN 08164 ATGM1 46/// /2203 11053 40056 91536 222// 00028 333 91208;
0078998252999992010010817004+44400-068200FM-18+0003ATGM1V0202901N002119999999N9999999N1-00511+99999100421REMSYN069CMAN  08174 ATGM1 46/// /2904 11051 40042 91636 222// 0002 333 91203;
0078998252999992010010818004+44400-068200FM-18+0003ATGM1V0202701N002119999999N9999999N1-00451+99999100291REMSYN069CMAN  08184 ATGM1 46/// /2704 11045 40029 91736 222// 0002 333 91206;
0078998252999992010010819004+44400-068200FM-18+0003ATGM1V0202701N002619999999N9999999N1-00371+99999100221REMSYN069CMAN  08194 ATGM1 46/// /2705 11037 40022 91836 222// 0002 333 91212;
0099998252999992010010820004+44400-068200FM-18+0003ATGM1V0202501N003619999999N9999999N1-00321+99999100201REMSYN090CMAN  08204 ATGM1 46/// /2507 11032 40020 91936 222// 00036 11406 21004 326// 41404 70029;
0078998252999992010010821004+44400-068200FM-18+0003ATGM1V0202801N002619999999N9999999N1-00291+99999100201REMSYN069CMAN  08214 ATGM1 46/// /2805 11029 40020 92036 222// 0002 333 91209;
0078998252999992010010822004+44400-068200FM-18+0003ATGM1V0202601N004619999999N9999999N1-00331+99999100231REMSYN069CMAN  08224 ATGM1 46/// /2609 11033 40023 92136 222// 0002 333 91210;
0078998252999992010010823004+44400-068200FM-18+0003ATGM1V0202701N005119999999N9999999N1-00341+99999100251REMSYN069CMAN  08234 ATGM1 46/// /2710 11034 40025 92236 222// 0002 333 91205;
0078998252999992010010900004+44400-068200FM-18+0003ATGM1V0202601N004619999999N9999999N1-00401+99999100261REMSYN069CMAN  09004 ATGM1 46/// /2609 11040 40026 92336 222// 0002 333 91204;
0078998252999992010010901004+44400-068200FM-18+0003ATGM1V0202701N005719999999N9999999N1-00341+99999100261REMSYN069CMAN  09014 ATGM1 46/// /2711 11034 40026 90036 222// 0002 333 91208;
0078998252999992010010902004+44400-068200FM-18+0003ATGM1V0202901N007719999999N9999999N1-00351+99999100281REMSYN069CMAN  09024 ATGM1 46/// /2915 11035 40028 90136 222// 0002 333 91205;
0078998252999992010010903004+44400-068200FM-18+0003ATGM1V0202801N006219999999N9999999N1-00361+99999100281REMSYN069CMAN  09034 ATGM1 46/// /2812 11036 40028 90236 222// 0002 333 91207;
0000998252999992010010904004+44400-068200FM-18+0003ATGM1V0202701N006719999999N9999999N1-00351+99999100271
0078998252999992010010905004+44400-068200FM-18+0003ATGM1V0202701N008219999999N9999999N1-00381+99999100271REMSYN069CMAN  09054 ATGM1 46/// /2716 11038 40027 90436 222// 0002 333 91203;
0078998252999992010010906004+44400-068200FM-18+0003ATGM1V0202601N008719999999N9999999N1-00371+99999100261REMSYN069CMAN  09064 ATGM1 46/// /2617 11037 40026 90536 222// 0002 333 91202;
0068998252999992010010907004+44400-068200FM-18+0003ATGM1V0202601N007719999999N9999999N1-00371+99999100331REMSYN059CMAN  09074 ATGM1 46/// /2615 11037 40033 90636 222// 0002;
0099998252999992010010908004+44400-068200FM-18+0003ATGM1V0202601N008219999999N9999999N1-00411+99999100381REMSYN090CMAN  09084 ATGM1 46/// /2616 11041 40038 90736 222// 000291211 5 20805 326// 41404 70033;
0078998252999992010010909004+44400-068200FM-18+0003ATGM1V0202601N008219999999N9999999N1-00381+99999100411REMSYN069CMAN  09094 ATGM1 46/// /2616 11038 40041 90836 222// 0002 333 91202;
0000998252999992010010910004+44400-068200FM-18+0003ATGM1V0202501N008719999999N9999999N1-00391+99999100491
0078998252999992010010911004+44400-068200FM-18+0003ATGM1V0202501N007719999999N9999999N1-00431+99999100551REMSYN069CMAN  09114 ATGM1 46/// /2515 11043 40055 91036 222// 0001 333 91201;
0078998252999992010010912004+44400-068200FM-18+0003ATGM1V0202801N008219999999N9999999N1-00381+99999100631REMSYN069CMAN  09124 ATGM1 46/// /2816 11038 40063 91136 222// 0001 333 91204;
0078998252999992010010913004+44400-068200FM-18+0003ATGM1V0202701N008219999999N9999999N1-00431+99999100761REMSYN069CMAN  09134 ATGM1 46/// /2716 11043 40076 91236 222// 0002 333 91207;
0078998252999992010010914004+44400-068200FM-18+0003ATGM1V0202801N008719999999N9999999N1-00441+99999100811REMSYN069CMAN  09144 ATGM1 46/// /2817 11044 40081 91336 222// 0001 333 91205;
0078998252999992010010915004+44400-068200FM-18+0003ATGM1V0202801N007719999999N9999999N1-00491+99999100911REMSYN069CMAN  09154 ATGM1 46/// /2815 11049 40091 91436 222// 0001 333 91202;
0078998252999992010010916004+44400-068200FM-18+0003ATGM1V0202401N008219999999N9999999N1-00531+99999100921REMSYN069CMAN  09164 ATGM1 46/// /2416 11053 40092 91536 222// 0001 333 91202;
0078998252999992010010917004+44400-068200FM-18+0003ATGM1V0202801N007719999999N9999999N1-00531+99999100901REMSYN069CMAN  09174 ATGM1 46/// /2815 11053 40090 91636 222// 0001 333 91204;
0078998252999992010010918004+44400-068200FM-18+0003ATGM1V0202701N008219999999N9999999N1-00531+99999100911REMSYN069CMAN  09184 ATGM1 46/// /2716 11053 40091 91736 222// 0001 333 91206;
0078998252999992010010919004+44400-068200FM-18+0003ATGM1V0202801N006719999999N9999999N1-00541+99999100961REMSYN069CMAN  09194 ATGM1 46/// /2813 11054 40096 91836 222// 0001 333 91206;
0000998252999992010010920004+44400-068200FM-18+0003ATGM1V0202701N006719999999N9999999N1-00541+99999101021
0078998252999992010010921004+44400-068200FM-18+0003ATGM1V0202601N010819999999N9999999N1-00571+99999101091REMSYN069CMAN  09214 ATGM1 46/// /2621 11057 40109 92036 222// 0002 333 91205;
0078998252999992010010922004+44400-068200FM-18+0003ATGM1V0202701N007719999999N9999999N1-00611+99999101211REMSYN069CMAN  09224 ATGM1 46/// /2715 11061 40121 92136 222// 0002 333 91205;
0078998252999992010010923004+44400-068200FM-18+0003ATGM1V0202501N008719999999N9999999N1-00681+99999101311REMSYN069CMAN  09234 ATGM1 46/// /2517 11068 40131 92236 222// 0001 333 91206;
0000998252999992010011000004+44400-068200FM-18+0003ATGM1V0202601N007719999999N9999999N1-00701+99999101391
0078998252999992010011001004+44400-068200FM-18+0003ATGM1V0202701N006219999999N9999999N1-00761+99999101461REMSYN069CMAN  10014 ATGM1 46/// /2712 11076 40146 90036 222// 0001 333 91204;
0078998252999992010011002004+44400-068200FM-18+0003ATGM1V0202801N005719999999N9999999N1-00821+99999101511REMSYN069CMAN  10024 ATGM1 46/// /2811 11082 40151 90136 222// 0001 333 91205;
0078998252999992010011003004+44400-068200FM-18+0003ATGM1V0202501N008719999999N9999999N1-00901+99999101541REMSYN069CMAN  10034 ATGM1 46/// /2517 11090 40154 90236 222// 0001 333 91205;
0078998252999992010011004004+44400-068200FM-18+0003ATGM1V0202601N007219999999N9999999N1-00931+99999101601REMSYN069CMAN  10044 ATGM1 46/// /2614 11093 40160 90336 222// 0001 333 91205;
0078998252999992010011005004+44400-068200FM-18+0003ATGM1V0202801N006719999999N9999999N1-00941+99999101601REMSYN069CMAN  10054 ATGM1 46/// /2813 11094 40160 90436 222// 0001 333 91204;
0078998252999992010011006004+44400-068200FM-18+0003ATGM1V0202601N008719999999N9999999N1-00951+99999101601REMSYN069CMAN  10064 ATGM1 46/// /2617 11095 40160 90536 222// 0001 333 91203;
0078998252999992010011007004+44400-068200FM-18+0003ATGM1V0202301N007719999999N9999999N1-01071+99999101621REMSYN069CMAN  10074 ATGM1 46/// /2315 11107 40162 90636 222// 0001 333 91201;
0078998252999992010011008004+44400-068200FM-18+0003ATGM1V0202501N008219999999N9999999N1-01071+99999101641REMSYN069CMAN  10084 ATGM1 46/// /2516 11107 40164 90736 222// 0001 333 91203;
0078998252999992010011009004+44400-068200FM-18+0003ATGM1V0202501N008719999999N9999999N1-01081+99999101641REMSYN069CMAN  10094 ATGM1 46/// /2517 11108 40164 90836 222// 0001 333 91204;
0078998252999992010011010004+44400-068200FM-18+0003ATGM1V0202601N007719999999N9999999N1-01081+99999101681REMSYN069CMAN  10104 ATGM1 46/// /2615 11108 40168 90936 222// 0001 333 91205;
0078998252999992010011011004+44400-068200FM-18+0003ATGM1V0202801N006719999999N9999999N1-01071+99999101721REMSYN069CMAN  10114 ATGM1 46/// /2813 11107 40172 91036 222// 0000 333 91206;
0078998252999992010011012004+44400-068200FM-18+0003ATGM1V0202601N007219999999N9999999N1-01101+99999101801REMSYN069CMAN  10124 ATGM1 46/// /2614 11110 40180 91136 222// 0000 333 91206;
0000998252999992010011013004+44400-068200FM-18+0003ATGM1V0202501N007719999999N9999999N1-01191+99999101841
0078998252999992010011014004+44400-068200FM-18+0003ATGM1V0202601N005719999999N9999999N1-01221+99999101881REMSYN069CMAN  10144 ATGM1 46/// /2611 11122 40188 91336 222// 0001 333 91205;
0078998252999992010011015004+44400-068200FM-18+0003ATGM1V0202501N006219999999N9999999N1-01181+99999101871REMSYN069CMAN  10154 ATGM1 46/// /2512 11118 40187 91436 222// 0001 333 91204;
0114998252999992010011016004+44400-068200FM-18+0003ATGM1V0202601N007719999999N9999999N1-01101+99999101811REMSYN105CMAN  10164 ATGM1 46/// /2615 11110 40181 91536 222// 0000 76166 885/2 91550 333 83612 87618 90710 91129;
0078998252999992010011017004+44400-068200FM-18+0003ATGM1V0202601N006719999999N9999999N1-01001+99999101721REMSYN069CMAN  10174 ATGM1 46/// /2613 11100 40172 91636 222// 0000 333 91205;
0078998252999992010011018004+44400-068200FM-18+0003ATGM1V0202701N007719999999N9999999N1-00931+99999101641REMSYN069CMAN  10184 ATGM1 46/// /2715 11093 40164 91736 222// 0000 333 91206;
0078998252999992010011019004+44400-068200FM-18+0003ATGM1V0202601N006719999999N9999999N1-00811+99999101591REMSYN069CMAN  10194 ATGM1 46/// /2613 11081 40159 91836 222// 0000 333 91203;
0078998252999992010011020004+44400-068200FM-18+0003ATGM1V0202501N007719999999N9999999N1-00731+99999101571REMSYN069CMAN  10204 ATGM1 46/// /2515 11073 40157 91936 222// 0001 333 91204;
0078998252999992010011021004+44400-068200FM-18+0003ATGM1V0202501N007719999999N9999999N1-00731+99999101571REMSYN069CMAN  10214 ATGM1 46/// /2515 11073 40157 92036 222// 0001 333 91207;
0078998252999992010011022004+44400-068200FM-18+0003ATGM1V0202301N005119999999N9999999N1-00721+99999101601REMSYN069CMAN  10224 ATGM1 46/// /2310 11072 40160 92136 222// 0001 333 91207;
0078998252999992010011023004+44400-068200FM-18+0003ATGM1V0202301N004619999999N9999999N1-00711+99999101621REMSYN069CMAN  10234 ATGM1 46/// /2309 11071 40162 92236 222// 0001 333 91206;
0078998252999992010011100004+44400-068200FM-18+0003ATGM1V0202401N006719999999N9999999N1-00751+99999101611REMSYN069CMAN  11004 ATGM1 46/// /2413 11075 40161 92336 222// 0002 333 91206;
0000998252999992010011103004+44400-068200FM-18+0003ATGM1V0202301N004619999999N9999999N1-00781+99999101611
0078998252999992010011104004+44400-068200FM-18+0003ATGM1V0202301N003119999999N9999999N1-00761+99999101611REMSYN069CMAN  11044 ATGM1 46/// /2306 11076 40161 90336 222// 0001 333 91206;
0078998252999992010011105004+44400-068200FM-18+0003ATGM1V0202201N003619999999N9999999N1-00751+99999101561REMSYN069CMAN  11054 ATGM1 46/// /2207 11075 40156 90436 222// 0001 333 91207;
0078998252999992010011106004+44400-068200FM-18+0003ATGM1V0202101N002619999999N9999999N1-00781+99999101501REMSYN069CMAN  11064 ATGM1 46/// /2105 11078 40150 90536 222// 0001 333 91202;
0078998252999992010011107004+44400-068200FM-18+0003ATGM1V0202001N004119999999N9999999N1-00771+99999101471REMSYN069CMAN  11074 ATGM1 46/// /2008 11077 40147 90642 222// 0001 333 91204;
0068998252999992010011108004+44400-068200FM-18+0003ATGM1V0202001N003119999999N9999999N1-00801+99999101441REMSYN059CMAN  11084 ATGM1 46/// /2006 11080 40144 90742 222// 0002;
0078998252999992010011109004+44400-068200FM-18+0003ATGM1V0201901N003119999999N9999999N1-00791+99999101431REMSYN069CMAN  11094 ATGM1 46/// /1906 11079 40143 90836 222// 0002 333 91207;
0078998252999992010011110004+44400-068200FM-18+0003ATGM1V0201901N003619999999N9999999N1-00781+99999101391REMSYN069CMAN  11104 ATGM1 46/// /1907 11078 40139 90936 222// 0002 333 91206;
0068998252999992010011111004+44400-068200FM-18+0003ATGM1V0201901N003119999999N9999999N1-00741+99999101401REMSYN059CMAN  11114 ATGM1 46/// /1906 11074 40140 91036 222// 0002;
0078998252999992010011112004+44400-068200FM-18+0003ATGM1V0202001N002119999999N9999999N1-00711+99999101421REMSYN069CMAN  11124 ATGM1 46/// /2004 11071 40142 91136 222// 0002 333 91207;
0078998252999992010011113004+44400-068200FM-18+0003ATGM1V0201901N003119999999N9999999N1-00681+99999101401REMSYN069CMAN  11134 ATGM1 46/// /1906 11068 40140 91236 222// 0002 333 91205;
0068998252999992010011114004+44400-068200FM-18+0003ATGM1V0202101N003619999999N9999999N1-00501+99999101391REMSYN059CMAN  11144 ATGM1 46/// /2107 11050 40139 91336 222// 0001;
0078998252999992010011115004+44400-068200FM-18+0003ATGM1V0202001N004619999999N9999999N1-00381+99999101351REMSYN069CMAN  11154 ATGM1 46/// /2009 11038 40135 91436 222// 0001 333 91207;
0078998252999992010011116004+44400-068200FM-18+0003ATGM1V0202101N005119999999N9999999N1-00251+99999101321REMSYN069CMAN  11164 ATGM1 46/// /2110 11025 40132 91536 222// 0002 333 91206;
0074998252999992010011117004+44400-068200FM-18+0003ATGM1V0202101N006219999999N9999999N1-00211+99999101241REMSYN065CMAN  11174 ATGM1 46/// /2112 11021 40124 91636 222// 0001 91610;
0078998252999992010011118004+44400-068200FM-18+0003ATGM1V0202201N006219999999N9999999N1-00141+99999101151REMSYN069CMAN  11184 ATGM1 46/// /2212 11014 40115 91736 222// 0001 333 91206;
0000998252999992010011119004+44400-068200FM-18+0003ATGM1V0202301N004619999999N9999999N1-00131+99999101121
0078998252999992010011120004+44400-068200FM-18+0003ATGM1V0202301N006719999999N9999999N1-00151+99999101121REMSYN069CMAN  11204 ATGM1 46/// /2313 11015 40112 91936 222// 0002 333 91205;
0078998252999992010011121004+44400-068200FM-18+0003ATGM1V0202201N002619999999N9999999N1-00141+99999101111REMSYN069CMAN  11214 ATGM1 46/// /2205 11014 40111 92036 222// 0002 333 91206;
0078998252999992010011122004+44400-068200FM-18+0003ATGM1V0202201N003119999999N9999999N1-00151+99999101111REMSYN069CMAN  11224 ATGM1 46/// /2206 11015 40111 92136 222// 0002 333 91207;
0078998252999992010011123004+44400-068200FM-18+0003ATGM1V0202101N004119999999N9999999N1-00181+99999101131REMSYN069CMAN  11234 ATGM1 46/// /2108 11018 40113 92236 222// 0002 333 91209;
0078998252999992010011200004+44400-068200FM-18+0003ATGM1V0202101N004619999999N9999999N1-00181+99999101151REMSYN069CMAN  12004 ATGM1 46/// /2109 11018 40115 92336 222// 0003 333 91207;
0078998252999992010011201004+44400-068200FM-18+0003ATGM1V0202001N004619999999N9999999N1-00221+99999101171REMSYN069CMAN  12014 ATGM1 46/// /2009 11022 40117 90036 222// 0002 333 91208;
0078998252999992010011202004+44400-068200FM-18+0003ATGM1V0202301N005119999999N9999999N1-00211+99999101181REMSYN069CMAN  12024 ATGM1 46/// /2310 11021 40118 90136 222// 0002 333 91205;
0072998252999992010011203004+44400-068200FM-18+0003ATGM1V0202301N006719999999N9999999N1-00211+99999101181REMSYN063CMAN  12034 ATGM1 46/// /2313 11021 40118 90236 222// 00021216;
0078998252999992010011204004+44400-068200FM-18+0003ATGM1V0202301N008719999999N9999999N1-00221+99999101171REMSYN069CMAN  12044 ATGM1 46/// /2317 11022 40117 90336 222// 0002 333 91205;
0078998252999992010011205004+44400-068200FM-18+0003ATGM1V0202301N007719999999N9999999N1-00271+99999101161REMSYN069CMAN  12054 ATGM1 46/// /2315 11027 40116 90436 222// 0002 333 91203;
0072998252999992010011206004+44400-068200FM-18+0003ATGM1V0202501N008219999999N9999999N1-00341+99999101141REMSYN063CMAN  12064 ATGM1 46/// /2516 11034 40114 90536 222// 00021217;
0078998252999992010011207004+44400-068200FM-18+0003ATGM1V0202501N008719999999N9999999N1-00431+99999101161REMSYN069CMAN  12074 ATGM1 46/// /2517 11043 40116 90636 222// 0002 333 91210;
0078998252999992010011208004+44400-068200FM-18+0003ATGM1V0202301N006219999999N9999999N1-00561+99999101191REMSYN069CMAN  12084 ATGM1 46/// /2312 11056 40119 90736 222// 0001 333 91207;
0078998252999992010011209004+44400-068200FM-18+0003ATGM1V0202201N005719999999N9999999N1-00641+99999101211REMSYN069CMAN  12094 ATGM1 46/// /2211 11064 40121 90836 222// 0002 333 91208;
0078998252999992010011210004+44400-068200FM-18+0003ATGM1V0202301N006219999999N9999999N1-00641+99999101211REMSYN069CMAN  12104 ATGM1 46/// /2312 11064 40121 90936 222// 0002 333 91206;
0078998252999992010011211004+44400-068200FM-18+0003ATGM1V0202401N005719999999N9999999N1-00631+99999101211REMSYN069CMAN  12114 ATGM1 46/// /2411 11063 40121 91036 222// 0002 333 91223;
0078998252999992010011212004+44400-068200FM-18+0003ATGM1V0202601N007219999999N9999999N1-00641+99999101241REMSYN069CMAN  12124 ATGM1 46/// /2614 11064 40124 91136 222// 0002 333 91203;
0078998252999992010011213004+44400-068200FM-18+0003ATGM1V0202401N006219999999N9999999N1-00651+99999101231REMSYN069CMAN  12134 ATGM1 46/// /2412 11065 40123 91236 222// 0001 333 91203;
0078998252999992010011214004+44400-068200FM-18+0003ATGM1V0202501N007719999999N9999999N1-00651+99999101201REMSYN069CMAN  12144 ATGM1 46/// /2515 11065 40120 91336 222// 0001 333 91205;
0068998252999992010011215004+44400-068200FM-18+0003ATGM1V0202401N008719999999N9999999N1-00611+99999101171REMSYN059CMAN  12154 ATGM1 46/// /2417 11061 40117 91436 222// 0001;
0078998252999992010011216004+44400-068200FM-18+0003ATGM1V0202501N011819999999N9999999N1-00591+99999101111REMSYN069CMAN  12164 ATGM1 46/// /2523 11059 40111 91536 222// 0001 333 91215;
0078998252999992010011217004+44400-068200FM-18+0003ATGM1V0202601N009319999999N9999999N1-00641+99999101041REMSYN069CMAN  12174 ATGM1 46/// /2618 11064 40104 91636 222// 0001 333 91213;
0078998252999992010011218004+44400-068200FM-18+0003ATGM1V0202601N009819999999N9999999N1-00611+99999100951REMSYN069CMAN 12184 ATGM1 46/// /2619 11061 40095 91736 222// 00014 333 91224;
0078998252999992010011219004+44400-068200FM-18+0003ATGM1V0202401N010319999999N9999999N1-00671+99999100881REMSYN069CMAN  12194 ATGM1 46/// /2420 11067 40088 91836 222// 0001 333 91209;
0078998252999992010011220004+44400-068200FM-18+0003ATGM1V0202501N009819999999N9999999N1-00691+99999100891REMSYN069CMAN  12204 ATGM1 46/// /2519 11069 40089 91936 222// 0001 333 91211;
0078998252999992010011221004+44400-068200FM-18+0003ATGM1V0202501N007719999999N9999999N1-00691+99999100911REMSYN069CMAN  12214 ATGM1 46/// /2515 11069 40091 92036 222// 0001 333 91214;
0078998252999992010011222004+44400-068200FM-18+0003ATGM1V0202301N006719999999N9999999N1-00711+99999100941REMSYN069CMAN  12224 ATGM1 46/// /2313 11071 40094 92136 222// 0001 333 91210;
0078998252999992010011223004+44400-068200FM-18+0003ATGM1V0202501N008719999999N9999999N1-00781+99999101001REMSYN069CMAN  12234 ATGM1 46/// /2517 11078 40100 92236 222// 0002 333 91207;
0078998252999992010011300004+44400-068200FM-18+0003ATGM1V0202501N008719999999N9999999N1-00881+99999101121REMSYN069CMAN  13004 ATGM1 46/// /2517 11088 40112 92336 222// 0001 333 91213;
0078998252999992010011301004+44400-068200FM-18+0003ATGM1V0202601N009319999999N9999999N1-00931+99999101151REMSYN069CMAN  13014 ATGM1 46/// /2618 11093 40115 90036 222// 0000 333 91207;
0078998252999992010011302004+44400-068200FM-18+0003ATGM1V0202501N009319999999N9999999N1-00961+99999101191REMSYN069CMAN  13024 ATGM1 46/// /2518 11096 40119 90136 222// 0001 333 91213;
0078998252999992010011303004+44400-068200FM-18+0003ATGM1V0202501N008719999999N9999999N1-00981+99999101201REMSYN069CMAN  13034 ATGM1 46/// /2517 11098 40120 90236 222// 0000 333 91210;
0078998252999992010011304004+44400-068200FM-18+0003ATGM1V0202501N009319999999N9999999N1-00991+99999101211REMSYN069CMAN  13044 ATGM1 46/// /2518 11099 40121 90336 222// 0001 333 91211;
0078998252999992010011305004+44400-068200FM-18+0003ATGM1V0202501N009819999999N9999999N1-01001+99999101181REMSYN069CMAN  13054 ATGM1 46/// /2519 11100 40118 90442 222// 0000 333 91214;
0078998252999992010011306004+44400-068200FM-18+0003ATGM1V0202501N010319999999N9999999N1-01011+99999101191REMSYN069CMAN 13064 ATGM1 46/// /2520 11101 40119 90536 222// 00006 333 91224;
0078998252999992010011307004+44400-068200FM-18+0003ATGM1V0202501N009819999999N9999999N1-01041+99999101241REMSYN069CMAN  13074 ATGM1 46/// /2519 11104 40124 90636 222// 0000 333 91221;
0000998252999992010011308004+44400-068200FM-18+0003ATGM1V0202501N008719999999N9999999N1-01071+99999101231
0078998252999992010011309004+44400-068200FM-18+0003ATGM1V0202401N007219999999N9999999N1-01131+99999101241REMSYN069CMAN  13094 ATGM1 46/// /2414 11113 40124 90836 222// 0000 333 91218;
0078998252999992010011310004+44400-068200FM-18+0003ATGM1V0202301N006219999999N9999999N1-01211+99999101291REMSYN069CMAN 13104 ATGM1 46/// /2312 11121 40129 90936 222// 00008 333 91214;
0078998252999992010011311004+44400-068200FM-18+0003ATGM1V0202301N006719999999N9999999N1-01241+99999101341REMSYN069CMAN  13114 ATGM1 46/// /2313 11124 40134 91036 222// 0001 333 91211;
0078998252999992010011312004+44400-068200FM-18+0003ATGM1V0202301N006219999999N9999999N1-01281+99999101411REMSYN069CMAN  13124 ATGM1 46/// /2312 11128 40141 91136 222// 0001 333 91211;
0078998252999992010011313004+44400-068200FM-18+0003ATGM1V0202201N005719999999N9999999N1-01271+99999101481REMSYN069CMAN  13134 ATGM1 46/// /2211 11127 40148 91236 222// 0001 333 91206;
0078998252999992010011314004+44400-068200FM-18+0003ATGM1V0202401N006219999999N9999999N1-01171+99999101541REMSYN069CMAN  13144 ATGM1 46/// /2412 11117 40154 91336 222// 0000 333 91210;
0078998252999992010011315004+44400-068200FM-18+0003ATGM1V0202501N008219999999N9999999N1-01121+99999101561REMSYN069CMAN  13154 ATGM1 46/// /2516 11112 40156 91436 222// 0000 333 91211;
0078998252999992010011316004+44400-068200FM-18+0003ATGM1V0202601N006719999999N9999999N1-01001+99999101511REMSYN069CMAN  13164 ATGM1 46/// /2613 11100 40151 91536 222// 0000 333 91204;
0078998252999992010011317004+44400-068200FM-18+0003ATGM1V0202501N008219999999N9999999N1-00891+99999101401REMSYN069CMAN  13174 ATGM1 46/// /2516 11089 40140 91636 222// 0000 333 91203;
0078998252999992010011318004+44400-068200FM-18+0003ATGM1V0202701N006219999999N9999999N1-00741+99999101351REMSYN069CMAN  13184 ATGM1 46/// /2712 11074 40135 91736 222// 0000 333 91202;
0078998252999992010011319004+44400-068200FM-18+0003ATGM1V0202601N006219999999N9999999N1-00641+99999101331REMSYN069CMAN  13194 ATGM1 46/// /2612 11064 40133 91836 222// 0000 333 91202;
0078998252999992010011320004+44400-068200FM-18+0003ATGM1V0202701N006719999999N9999999N1-00551+99999101341REMSYN069CMAN  13204 ATGM1 46/// /2713 11055 40134 91936 222// 0000 333 91203;
0078998252999992010011321004+44400-068200FM-18+0003ATGM1V0202501N007219999999N9999999N1-00501+99999101391REMSYN069CMAN  13214 ATGM1 46/// /2514 11050 40139 92036 222// 0000 333 91207;
0078998252999992010011322004+44400-068200FM-18+0003ATGM1V0202501N006719999999N9999999N1-00511+99999101461REMSYN069CMAN  13224 ATGM1 46/// /2513 11051 40146 92142 222// 0001 333 91205;
0078998252999992010011323004+44400-068200FM-18+0003ATGM1V0202501N006719999999N9999999N1-00521+99999101541REMSYN069CMAN  13234 ATGM1 46/// /2513 11052 40154 92236 222// 0001 333 91208;
0078998252999992010011400004+44400-068200FM-18+0003ATGM1V0202501N006719999999N9999999N1-00581+99999101631REMSYN069CMAN  14004 ATGM1 46/// /2513 11058 40163 92336 222// 0001 333 91208;
0078998252999992010011401004+44400-068200FM-18+0003ATGM1V0202601N006719999999N9999999N1-00651+99999101691REMSYN069CMAN  14014 ATGM1 46/// /2613 11065 40169 90036 222// 0001 333 91208;
0078998252999992010011402004+44400-068200FM-18+0003ATGM1V0202601N005719999999N9999999N1-00701+99999101751REMSYN069CMAN 14024 ATGM1 46/// /2611 11070 40175 90136 222// 00013 333 91214;
0078998252999992010011403004+44400-068200FM-18+0003ATGM1V0202501N004119999999N9999999N1-00751+99999101831REMSYN069CMAN  14034 ATGM1 46/// /2508 11075 40183 90236 222// 0000 333 91204;
0078998252999992010011404004+44400-068200FM-18+0003ATGM1V0202201N003619999999N9999999N1-00851+99999101891REMSYN069CMAN  14044 ATGM1 46/// /2207 11085 40189 90336 222// 0000 333 91204;
0078998252999992010011405004+44400-068200FM-18+0003ATGM1V0202301N005119999999N9999999N1-00871+99999101941REMSYN069CMAN  14054 ATGM1 46/// /2310 11087 40194 90436 222// 0001 333 91202;
0078998252999992010011406004+44400-068200FM-18+0003ATGM1V0202701N004119999999N9999999N1-00841+99999101981REMSYN069CMAN  14064 ATGM1 46/// /2708 11084 40198 90536 222// 0000 333 91203;
0078998252999992010011407004+44400-068200FM-18+0003ATGM1V0202901N005119999999N9999999N1-00861+99999102041REMSYN069CMAN  14074 ATGM1 46/// /2910 11086 40204 90636 222// 0000 333 91203;
0078998252999992010011408004+44400-068200FM-18+0003ATGM1V0202701N004619999999N9999999N1-00921+99999102101REMSYN069CMAN  14084 ATGM1 46/// /2709 11092 40210 90736 222// 0000 333 91205;
0078998252999992010011409004+44400-068200FM-18+0003ATGM1V0202801N005119999999N9999999N1-00991+99999102161REMSYN069CMAN 14094 ATGM1 46/// /2810 11099 40216 90836 222// 00003 333 91216;
0078998252999992010011410004+44400-068200FM-18+0003ATGM1V0202801N005119999999N9999999N1-00991+99999102211REMSYN069CMAN  14104 ATGM1 46/// /2810 11099 40221 90942 222// 0000 333 91204;
0078998252999992010011411004+44400-068200FM-18+0003ATGM1V0202601N004619999999N9999999N1-01001+99999102251REMSYN069CMAN  14114 ATGM1 46/// /2609 11100 40225 91036 222// 0000 333 91206;
0078998252999992010011412004+44400-068200FM-18+0003ATGM1V0202701N006219999999N9999999N1-00981+99999102361REMSYN069CMAN  14124 ATGM1 46/// /2712 11098 40236 91206 222// 0000 333 91203;
0078998252999992010011413004+44400-068200FM-18+0003ATGM1V0202601N003619999999N9999999N1-01031+99999102401REMSYN069CMAN  14134 ATGM1 46/// /2607 11103 40240 91236 222// 0000 333 91202;
0078998252999992010011414004+44400-068200FM-18+0003ATGM1V0202901N004119999999N9999999N1-00981+99999102441REMSYN069CMAN  14144 ATGM1 46/// /2908 11098 40244 91336 222// 0000 333 91204;
0078998252999992010011415004+44400-068200FM-18+0003ATGM1V0202501N003119999999N9999999N1-00921+99999102471REMSYN069CMAN  14154 ATGM1 46/// /2506 11092 40247 91436 222// 0000 333 91204;
0078998252999992010011416004+44400-068200FM-18+0003ATGM1V0202501N004119999999N9999999N1-00821+99999102481REMSYN069CMAN  14164 ATGM1 46/// /2508 11082 40248 91536 222// 0000 333 91205;
0078998252999992010011417004+44400-068200FM-18+0003ATGM1V0202401N003119999999N9999999N1-00721+99999102381REMSYN069CMAN  14174 ATGM1 46/// /2406 11072 40238 91636 222// 0000 333 91208;
0078998252999992010011418004+44400-068200FM-18+0003ATGM1V0202801N002619999999N9999999N1-00591+99999102321REMSYN069CMAN  14184 ATGM1 46/// /2805 11059 40232 91736 222// 0000 333 91204;
0078998252999992010011419004+44400-068200FM-18+0003ATGM1V0202401N002119999999N9999999N1-00461+99999102311REMSYN069CMAN  14194 ATGM1 46/// /2404 11046 40231 91836 222// 0000 333 91202;
0108998252999992010011420004+44400-068200FM-18+0003ATGM1V0201801N002119999999N9999999N1-00261+99999102301REMSYN099CMAN  14204 ATGM1 46/// /1804 11026 40230 91936 222// 0000 73600 80001 333 55300 20000 30000 81070;
0078998252999992010011421004+44400-068200FM-18+0003ATGM1V0201801N002119999999N9999999N1-00271+99999102291REMSYN069CMAN  14214 ATGM1 46/// /1804 11027 40229 92036 222// 0000 333 91205;
0078998252999992010011422004+44400-068200FM-18+0003ATGM1V0201801N001519999999N9999999N1-00381+99999102251REMSYN069CMAN  14224 ATGM1 46/// /1803 11038 40225 92136 222// 0001 333 91205;
0078998252999992010011423004+44400-068200FM-18+0003ATGM1V0201301N001019999999N9999999N1-00491+99999102211REMSYN069CMAN  14234 ATGM1 46/// /1302 11049 40221 92236 222// 0001 333 91203;
0183998252999992010011500004+44400-068200FM-18+0003ATGM1V0201601N001019999999N9999999N1-00441+99999102201REMSYN174CMAN  15004 ATGM1 46/// /1602 11044 40220 92336 222// 0001/ 92050 333 0//// 30/// 4//// 54/// 56/// 57/// 59008 60007 8//// 8//// 8//// 9//// 9//// 9//// 444 ///// 555 30301;
0080998252999992010011501004+44400-068200FM-18+0003ATGM1V0201301N000519999999N9999999N1-00381+99999102141REMSYN071CMAN  15014 ATGM1 46/// /1301 11038 40214 90036 222// 0001 22220 00034;
0078998252999992010011502004+44400-068200FM-18+0003ATGM1V0200901N001519999999N9999999N1-00231+99999102081REMSYN069CMAN  15024 ATGM1 46/// /0903 11023 40208 90136 222// 0001 333 91203;
0078998252999992010011503004+44400-068200FM-18+0003ATGM1V0200801N001019999999N9999999N1-00131+99999102021REMSYN069CMAN  15034 ATGM1 46/// /0802 11013 40202 90236 222// 0001 333 91204;
0078998252999992010011504004+44400-068200FM-18+0003ATGM1V0201401N002119999999N9999999N1+00021+99999101931REMSYN069CMAN  15044 ATGM1 46/// /1404 10002 40193 90336 222// 0000 333 91204;
0072998252999992010011505004+44400-068200FM-18+0003ATGM1V0201501N003119999999N9999999N1+00131+99999101811REMSYN063CMAN  15054 ATGM1 46/// /1506 10013 40181 90436 222// 00001205;
0078998252999992010011506004+44400-068200FM-18+0003ATGM1V0201501N003619999999N9999999N1+00201+99999101731REMSYN069CMAN  15064 ATGM1 46/// /1507 10020 40173 90536 222// 0001 333 91207;
0078998252999992010011507004+44400-068200FM-18+0003ATGM1V0201601N002119999999N9999999N1+00211+99999101681REMSYN069CMAN  15074 ATGM1 46/// /1604 10021 40168 90636 222// 0001 333 91202;
0078998252999992010011508004+44400-068200FM-18+0003ATGM1V0201601N003619999999N9999999N1+00241+99999101611REMSYN069CMAN  15084 ATGM1 46/// /1607 10024 40161 90736 222// 0001 333 91204;
0078998252999992010011509004+44400-068200FM-18+0003ATGM1V0201701N002619999999N9999999N1+00251+99999101511REMSYN069CMAN  15094 ATGM1 46/// /1705 10025 40151 90836 222// 0001 333 91201;
0099998252999992010011510004+44400-068200FM-18+0003ATGM1V0201701N003119999999N9999999N1+00271+99999101441REMSYN090CMAN  15104 ATGM1 46/// /1706 10027 40144 90936 222// 00012 11307 21006 325// 41304 70037;
0078998252999992010011511004+44400-068200FM-18+0003ATGM1V0201801N003619999999N9999999N1+00231+99999101371REMSYN069CMAN  15114 ATGM1 46/// /1807 10023 40137 91036 222// 0002 333 91201;
0078998252999992010011512004+44400-068200FM-18+0003ATGM1V0201801N004119999999N9999999N1+00221+99999101321REMSYN069CMAN  15124 ATGM1 46/// /1808 10022 40132 91142 222// 0002 333 91202;
0078998252999992010011513004+44400-068200FM-18+0003ATGM1V0201901N004119999999N9999999N1+00201+99999101311REMSYN069CMAN  15134 ATGM1 46/// /1908 10020 40131 91236 222// 0002 333 91202;
0078998252999992010011514004+44400-068200FM-18+0003ATGM1V0202001N004619999999N9999999N1+00301+99999101301REMSYN069CMAN  15144 ATGM1 46/// /2009 10030 40130 91336 222// 0002 333 91204;
0078998252999992010011515004+44400-068200FM-18+0003ATGM1V0201901N006219999999N9999999N1+00281+99999101311REMSYN069CMAN  15154 ATGM1 46/// /1912 10028 40131 91436 222// 0002 333 91208;
0000998252999992010011516004+44400-068200FM-18+0003ATGM1V0201901N005119999999N9999999N1+00251+99999101251
0078998252999992010011517004+44400-068200FM-18+0003ATGM1V0202001N004619999999N9999999N1+00281+99999101161REMSYN069CMAN  15174 ATGM1 46/// /2009 10028 40116 91636 222// 0002 333 91203;
0078998252999992010011518004+44400-068200FM-18+0003ATGM1V0202501N004619999999N9999999N1+00371+99999101121REMSYN069CMAN  15184 ATGM1 46/// /2509 10037 40112 91736 222// 0002 333 91206;
0078998252999992010011519004+44400-068200FM-18+0003ATGM1V0202501N004619999999N9999999N1+00371+99999101091REMSYN069CMAN  15194 ATGM1 46/// /2509 10037 40109 91836 222// 0002 333 91202;
0078998252999992010011520004+44400-068200FM-18+0003ATGM1V0202301N001519999999N9999999N1+00411+99999101131REMSYN069CMAN  15204 ATGM1 46/// /2303 10041 40113 91936 222// 0002 333 91208;
0078998252999992010011521004+44400-068200FM-18+0003ATGM1V0202001N002119999999N9999999N1+00411+99999101181REMSYN069CMAN  15214 ATGM1 46/// /2004 10041 40118 92036 222// 0002 333 91209;
0082998252999992010011522004+44400-068200FM-18+0003ATGM1V0201901N003619999999N9999999N1+00371+99999101231REMSYN073CMAN  15224 ATGM1 46/// /1907 10037 40123 92136 222// 000201 52001 92125;
0078998252999992010011523004+44400-068200FM-18+0003ATGM1V0202001N004119999999N9999999N1+00421+99999101261REMSYN069CMAN  15234 ATGM1 46/// /2008 10042 40126 92236 222// 0002 333 91206;
0078998252999992010011600004+44400-068200FM-18+0003ATGM1V0202101N004119999999N9999999N1+00421+99999101291REMSYN069CMAN 16004 ATGM1 46/// /2108 10042 40129 92336 222// 00025 333 91212;
0078998252999992010011601004+44400-068200FM-18+0003ATGM1V0202301N005119999999N9999999N1+00391+99999101371REMSYN069CMAN  16014 ATGM1 46/// /2310 10039 40137 90036 222// 0002 333 91205;
0078998252999992010011602004+44400-068200FM-18+0003ATGM1V0202301N004119999999N9999999N1+00361+99999101411REMSYN069CMAN  16024 ATGM1 46/// /2308 10036 40141 90136 222// 0002 333 91204;
0078998252999992010011603004+44400-068200FM-18+0003ATGM1V0202401N005119999999N9999999N1+00361+99999101421REMSYN069CMAN  16034 ATGM1 46/// /2410 10036 40142 90236 222// 0002 333 91203;
0078998252999992010011604004+44400-068200FM-18+0003ATGM1V0202201N005119999999N9999999N1+00341+99999101481REMSYN069CMAN  16044 ATGM1 46/// /2210 10034 40148 90342 222// 0002 333 91202;
0072998252999992010011605004+44400-068200FM-18+0003ATGM1V0202101N003619999999N9999999N1+00321+99999101491REMSYN063CMAN  16054 ATGM1 46/// /2107 10032 40149 90436 222// 00021205;
0078998252999992010011606004+44400-068200FM-18+0003ATGM1V0202101N003119999999N9999999N1+00271+99999101491REMSYN069CMAN  16064 ATGM1 46/// /2106 10027 40149 90536 222// 0002 333 91205;
0078998252999992010011607004+44400-068200FM-18+0003ATGM1V0202001N003619999999N9999999N1+00241+99999101511REMSYN069CMAN  16074 ATGM1 46/// /2007 10024 40151 90636 222// 0002 333 91205;
0078998252999992010011608004+44400-068200FM-18+0003ATGM1V0201901N003119999999N9999999N1+00181+99999101521REMSYN069CMAN  16084 ATGM1 46/// /1906 10018 40152 90736 222// 0002 333 91205;
0072998252999992010011609004+44400-068200FM-18+0003ATGM1V0202001N004119999999N9999999N1+00151+99999101441REMSYN063CMAN  16094 ATGM1 46/// /2008 10015 40144 90836 222// 00021208;
0078998252999992010011610004+44400-068200FM-18+0003ATGM1V0202001N004619999999N9999999N1+00151+99999101391REMSYN069CMAN  16104 ATGM1 46/// /2009 10015 40139 90936 222// 0002 333 91204;
0078998252999992010011611004+44400-068200FM-18+0003ATGM1V0201901N004119999999N9999999N1+00131+99999101441REMSYN069CMAN  16114 ATGM1 46/// /1908 10013 40144 91036 222// 0002 333 91204;
0078998252999992010011612004+44400-068200FM-18+0003ATGM1V0201901N002119999999N9999999N1+00161+99999101421REMSYN069CMAN  16124 ATGM1 46/// /1904 10016 40142 91136 222// 0002 333 91207;
0099998252999992010011613004+44400-068200FM-18+0003ATGM1V0201801N003619999999N9999999N1+00161+99999101421REMSYN090CMAN  16134 ATGM1 46/// /1807 10016 40142 91236 222// 00029 11106 21005 325// 41104 70031;
0078998252999992010011614004+44400-068200FM-18+0003ATGM1V0201801N002119999999N9999999N1+00221+99999101381REMSYN069CMAN  16144 ATGM1 46/// /1804 10022 40138 91336 222// 0002 333 91203;
0090998252999992010011615004+44400-068200FM-18+0003ATGM1V0202201N004619999999N9999999N1+00331+99999101461REMSYN081CMAN  16154 ATGM1 46/// /2209 10033 40146 91442 222// 0002 333 58011 82816 83635;
0078998252999992010011616004+44400-068200FM-18+0003ATGM1V0202301N005719999999N9999999N1+00371+99999101391REMSYN069CMAN  16164 ATGM1 46/// /2311 10037 40139 91536 222// 0002 333 91204;
0000998252999992010011617004+44400-068200FM-18+0003ATGM1V0202201N005119999999N9999999N1+00411+99999101361
0078998252999992010011618004+44400-068200FM-18+0003ATGM1V0202301N005119999999N9999999N1+00361+99999101271REMSYN069CMAN  16184 ATGM1 46/// /2310 10036 40127 91736 222// 0002 333 91206;
0078998252999992010011619004+44400-068200FM-18+0003ATGM1V0202501N003619999999N9999999N1+00371+99999101221REMSYN069CMAN  16194 ATGM1 46/// /2507 10037 40122 91836 222// 0002 333 91205;
0078998252999992010011620004+44400-068200FM-18+0003ATGM1V0202501N004619999999N9999999N1+00441+99999101231REMSYN069CMAN  16204 ATGM1 46/// /2509 10044 40123 91936 222// 0002 333 91206;
0078998252999992010011621004+44400-068200FM-18+0003ATGM1V0202401N004619999999N9999999N1+00491+99999101301REMSYN069CMAN  16214 ATGM1 46/// /2409 10049 40130 92036 222// 0002 333 91204;
0078998252999992010011622004+44400-068200FM-18+0003ATGM1V0202401N005119999999N9999999N1+00461+99999101371REMSYN069CMAN  16224 ATGM1 46/// /2410 10046 40137 92136 222// 0002 333 91205;
0078998252999992010011623004+44400-068200FM-18+0003ATGM1V0202201N004619999999N9999999N1+00411+99999101401REMSYN069CMAN  16234 ATGM1 46/// /2209 10041 40140 92236 222// 0002 333 91203;
0078998252999992010011700004+44400-068200FM-18+0003ATGM1V0202101N004619999999N9999999N1+00381+99999101471REMSYN069CMAN  17004 ATGM1 46/// /2109 10038 40147 92336 222// 0002 333 91204;
0090998252999992010011701004+44400-068200FM-18+0003ATGM1V0202101N004119999999N9999999N1+00341+99999101531REMSYN081CMAN  17014 ATGM1 46/// /2108 10034 40153 90042 222// 0002 76664 886// 333 88705;
0068998252999992010011702004+44400-068200FM-18+0003ATGM1V0202001N005119999999N9999999N1+00331+99999101601REMSYN059CMAN  17024 ATGM1 46/// /2010 10033 40160 90136 222// 0002;
0078998252999992010011703004+44400-068200FM-18+0003ATGM1V0202001N004619999999N9999999N1+00321+99999101621REMSYN069CMAN  17034 ATGM1 46/// /2009 10032 40162 90236 222// 0002 333 91205;
0078998252999992010011704004+44400-068200FM-18+0003ATGM1V0202101N005119999999N9999999N1+00321+99999101671REMSYN069CMAN  17044 ATGM1 46/// /2110 10032 40167 90336 222// 0002 333 91205;
0078998252999992010011705004+44400-068200FM-18+0003ATGM1V0202201N003619999999N9999999N1+00301+99999101651REMSYN069CMAN  17054 ATGM1 46/// /2207 10030 40165 90436 222// 0002 333 91206;
0078998252999992010011706004+44400-068200FM-18+0003ATGM1V0202201N005119999999N9999999N1+00291+99999101691REMSYN069CMAN  17064 ATGM1 46/// /2210 10029 40169 90536 222// 0002 333 91209;
0078998252999992010011707004+44400-068200FM-18+0003ATGM1V0203001N005119999999N9999999N1+00221+99999101831REMSYN069CMAN  17074 ATGM1 46/// /3010 10022 40183 90636 222// 0002 333 91207;
0078998252999992010011708004+44400-068200FM-18+0003ATGM1V0203301N006719999999N9999999N1+00041+99999101941REMSYN069CMAN  17084 ATGM1 46/// /3313 10004 40194 90736 222// 0002 333 91204;
0085998252999992010011709004+44400-068200FM-18+0003ATGM1V0203201N004119999999N9999999N1-00081+99999102011REMSYN076CMAN  17094 ATGM1 46/// /3208 11008 40201 90836 222// 00020 333 81650 87272;
0078998252999992010011710004+44400-068200FM-18+0003ATGM1V0203201N006719999999N9999999N1-00341+99999102191REMSYN069CMAN  17104 ATGM1 46/// /3213 11034 40219 90936 222// 0002 333 91205;
0078998252999992010011711004+44400-068200FM-18+0003ATGM1V0203101N004619999999N9999999N1-00471+99999102321REMSYN069CMAN  17114 ATGM1 46/// /3109 11047 40232 91042 222// 0002 333 91204;
0078998252999992010011712004+44400-068200FM-18+0003ATGM1V0203201N005119999999N9999999N1-00581+99999102301REMSYN069CMAN  17124 ATGM1 46/// /3210 11058 40230 91136 222// 0002 333 91201;
0078998252999992010011713004+44400-068200FM-18+0003ATGM1V0203101N002619999999N9999999N1-00661+99999102351REMSYN069CMAN  17134 ATGM1 46/// /3105 11066 40235 91236 222// 0002 333 91203;
0078998252999992010011714004+44400-068200FM-18+0003ATGM1V0203301N005719999999N9999999N1-00711+99999102331REMSYN069CMAN  17144 ATGM1 46/// /3311 11071 40233 91336 222// 0002 333 91204;
0078998252999992010011715004+44400-068200FM-18+0003ATGM1V0203501N003119999999N9999999N1-00721+99999102411REMSYN069CMAN  17154 ATGM1 46/// /3506 11072 40241 91436 222// 0002 333 91204;
0099998252999992010011716004+44400-068200FM-18+0003ATGM1V0202701N002119999999N9999999N1-00661+99999102461REMSYN090CMAN  17164 ATGM1 46/// /2704 11066 40246 91536 222// 00022 11007 21006 326// 41103 70033;
0078998252999992010011717004+44400-068200FM-18+0003ATGM1V0202701N001519999999N9999999N1-00581+99999102361REMSYN069CMAN  17174 ATGM1 46/// /2703 11058 40236 91636 222// 0002 333 91204;
0078998252999992010011718004+44400-068200FM-18+0003ATGM1V0203301N001019999999N9999999N1-00501+99999102201REMSYN069CMAN  17184 ATGM1 46/// /3302 11050 40220 91742 222// 0001 333 91205;
0078998252999992010011719004+44400-068200FM-18+0003ATGM1V0209999C000019999999N9999999N1-00401+99999102141REMSYN069CMAN  17194 ATGM1 46/// /0000 11040 40214 91836 222// 0002 333 91206;
0078998252999992010011720004+44400-068200FM-18+0003ATGM1V0200801N001519999999N9999999N1-00381+99999102181REMSYN069CMAN 17204 ATGM1 46/// /0803 11038 40218 91936 222// 00021 333 91204;
0078998252999992010011721004+44400-068200FM-18+0003ATGM1V0200801N001519999999N9999999N1-00381+99999102221REMSYN069CMAN  17214 ATGM1 46/// /0803 11038 40222 92036 222// 0002 333 91222;
0078998252999992010011722004+44400-068200FM-18+0003ATGM1V0200401N003619999999N9999999N1-00361+99999102201REMSYN069CMAN  17224 ATGM1 46/// /0407 11036 40220 92136 222// 0002 333 91220;
0078998252999992010011723004+44400-068200FM-18+0003ATGM1V0200401N003619999999N9999999N1-00371+99999102181REMSYN069CMAN  17234 ATGM1 46/// /0407 11037 40218 92236 222// 0002 333 91219;
0078998252999992010011800004+44400-068200FM-18+0003ATGM1V0200401N005119999999N9999999N1-00311+99999102131REMSYN069CMAN  18004 ATGM1 46/// /0410 11031 40213 92336 222// 0002 333 91220;
0078998252999992010011801004+44400-068200FM-18+0003ATGM1V0200501N005719999999N9999999N1-00261+99999102021REMSYN069CMAN  18014 ATGM1 46/// /0511 11026 40202 90036 222// 0002 333 91219;
0078998252999992010011802004+44400-068200FM-18+0003ATGM1V0200601N005719999999N9999999N1-00191+99999101931REMSYN069CMAN  18024 ATGM1 46/// /0611 11019 40193 90136 222// 0002 333 91222;
0078998252999992010011803004+44400-068200FM-18+0003ATGM1V0200601N005719999999N9999999N1-00111+99999101851REMSYN069CMAN  18034 ATGM1 46/// /0611 11011 40185 90236 222// 0002 333 91220;
0000998252999992010011804004+44400-068200FM-18+0003ATGM1V0200501N006719999999N9999999N1-00061+99999101801
0078998252999992010011805004+44400-068200FM-18+0003ATGM1V0200401N004619999999N9999999N1-00021+99999101731REMSYN069CMAN  18054 ATGM1 46/// /0409 11002 40173 90436 222// 0002 333 91222;
0078998252999992010011806004+44400-068200FM-18+0003ATGM1V0200101N004619999999N9999999N1-00061+99999101591REMSYN069CMAN  18064 ATGM1 46/// /0109 11006 40159 90536 222// 0002 333 91224;
0078998252999992010011807004+44400-068200FM-18+0003ATGM1V0200101N005119999999N9999999N1-00081+99999101491REMSYN069CMAN  18074 ATGM1 46/// /0110 11008 40149 90636 222// 0002 333 91222;
0078998252999992010011808004+44400-068200FM-18+0003ATGM1V0200101N005119999999N9999999N1-00111+99999101391REMSYN069CMAN  18084 ATGM1 46/// /0110 11011 40139 90736 222// 0002 333 91220;
0078998252999992010011809004+44400-068200FM-18+0003ATGM1V0200501N008719999999N9999999N1+00051+99999101261REMSYN069CMAN  18094 ATGM1 46/// /0517 10005 40126 90836 222// 0002 333 91220;
0078998252999992010011810004+44400-068200FM-18+0003ATGM1V0200501N008719999999N9999999N1-00011+99999101171REMSYN069CMAN  18104 ATGM1 46/// /0517 11001 40117 90936 222// 0002 333 91222;
0072998252999992010011811004+44400-068200FM-18+0003ATGM1V0200301N006219999999N9999999N1-00161+99999101101REMSYN063CMAN  18114 ATGM1 46/// /0312 11016 40110 91036 222// 00021206;
0078998252999992010011812004+44400-068200FM-18+0003ATGM1V0200301N007219999999N9999999N1-00121+99999101031REMSYN069CMAN  18124 ATGM1 46/// /0314 11012 40103 91136 222// 0001 333 91223;
0078998252999992010011813004+44400-068200FM-18+0003ATGM1V0200301N008719999999N9999999N1-00151+99999101051REMSYN069CMAN  18134 ATGM1 46/// /0317 11015 40105 91236 222// 0001 333 91203;
0069998252999992010011814004+44400-068200FM-18+0003ATGM1V0200101N007719999999N9999999N1-00191+99999101091REMSYN060CMAN  18144 ATGM1 46/// /0115 11019 40109 91336 222// 00022;
0078998252999992010011815004+44400-068200FM-18+0003ATGM1V0203501N004119999999N9999999N1-00241+99999101061REMSYN069CMAN  18154 ATGM1 46/// /3508 11024 40106 91436 222// 0002 333 91222;
0078998252999992010011816004+44400-068200FM-18+0003ATGM1V0203501N005719999999N9999999N1-00271+99999101021REMSYN069CMAN  18164 ATGM1 46/// /3511 11027 40102 91536 222// 0002 333 91219;
0078998252999992010011817004+44400-068200FM-18+0003ATGM1V0203601N006219999999N9999999N1-00271+99999100991REMSYN069CMAN  18174 ATGM1 46/// /3612 11027 40099 91636 222// 0002 333 91220;
0078998252999992010011818004+44400-068200FM-18+0003ATGM1V0203601N005119999999N9999999N1-00231+99999100901REMSYN069CMAN  18184 ATGM1 46/// /3610 11023 40090 91736 222// 0002 333 91225;
0078998252999992010011819004+44400-068200FM-18+0003ATGM1V0203601N004619999999N9999999N1-00191+99999100861REMSYN069CMAN  18194 ATGM1 46/// /3609 11019 40086 91836 222// 0001 333 91237;
0078998252999992010011820004+44400-068200FM-18+0003ATGM1V0203501N005119999999N9999999N1-00221+99999100891REMSYN069CMAN  18204 ATGM1 46/// /3510 11022 40089 91936 222// 0002 333 91224;
0078998252999992010011821004+44400-068200FM-18+0003ATGM1V0203201N005719999999N9999999N1-00261+99999100971REMSYN069CMAN  18214 ATGM1 46/// /3211 11026 40097 92036 222// 0001 333 91226;
0078998252999992010011822004+44400-068200FM-18+0003ATGM1V0203201N005719999999N9999999N1-00321+99999101041REMSYN069CMAN  18224 ATGM1 46/// /3211 11032 40104 92136 222// 0001 333 91222;
0099998252999992010011823004+44400-068200FM-18+0003ATGM1V0203601N006219999999N9999999N1-00331+99999101071REMSYN090CMAN  18234 ATGM1 46/// /3612 11033 40107 92236 222// 00014 11308 20904 325// 41307 70042;
0083998252999992010011900004+44400-068200FM-18+0003ATGM1V0202801N002619999999N9999999N1-00311+99999101131REMSYN074CMAN  19004 ATGM1 46/// /2805 11031 40113 92348 222// 000191117 555 60005;
0090998252999992010011901004+44400-068200FM-18+0003ATGM1V0202901N003619999999N9999999N1-00311+99999101161REMSYN081CMAN  19014 ATGM1 46/// /2907 11031 40116 90036 222// 0001 71022 886// 333 88702;
0078998252999992010011902004+44400-068200FM-18+0003ATGM1V0202901N003619999999N9999999N1-00281+99999101231REMSYN069CMAN  19024 ATGM1 46/// /2907 11028 40123 90136 222// 0001 333 91213;
0078998252999992010011903004+44400-068200FM-18+0003ATGM1V0203201N004119999999N9999999N1-00291+99999101321REMSYN069CMAN  19034 ATGM1 46/// /3208 11029 40132 90236 222// 0002 333 91215;
0078998252999992010011904004+44400-068200FM-18+0003ATGM1V0203101N003619999999N9999999N1-00301+99999101341REMSYN069CMAN  19044 ATGM1 46/// /3107 11030 40134 90336 222// 0002 333 91217;
0078998252999992010011905004+44400-068200FM-18+0003ATGM1V0203101N003619999999N9999999N1-00251+99999101351REMSYN069CMAN  19054 ATGM1 46/// /3107 11025 40135 90436 222// 0001 333 91217;
0078998252999992010011906004+44400-068200FM-18+0003ATGM1V0203301N004619999999N9999999N1-00291+99999101331REMSYN069CMAN  19064 ATGM1 46/// /3309 11029 40133 90536 222// 0001 333 91220;
0080998252999992010011907004+44400-068200FM-18+0003ATGM1V0202601N003119999999N9999999N1-00331+99999101441REMSYN071CMAN  19074 ATGM1 46/// /2606 11033 40144 90636 222// 0001 22250 00017;
0078998252999992010011908004+44400-068200FM-18+0003ATGM1V0202901N001019999999N9999999N1-00341+99999101431REMSYN069CMAN  19084 ATGM1 46/// /2902 11034 40143 90736 222// 0001 333 91216;
0078998252999992010011909004+44400-068200FM-18+0003ATGM1V0203601N002119999999N9999999N1-00311+99999101441REMSYN069CMAN  19094 ATGM1 46/// /3604 11031 40144 90836 222// 0001 333 91221;
0078998252999992010011910004+44400-068200FM-18+0003ATGM1V0203501N003119999999N9999999N1-00341+99999101471REMSYN069CMAN  19104 ATGM1 46/// /3506 11034 40147 90936 222// 0001 333 91225;
0078998252999992010011911004+44400-068200FM-18+0003ATGM1V0203301N001519999999N9999999N1-00341+99999101511REMSYN069CMAN  19114 ATGM1 46/// /3303 11034 40151 91036 222// 0001 333 91228;
0078998252999992010011912004+44400-068200FM-18+0003ATGM1V0200201N001519999999N9999999N1-00331+99999101531REMSYN069CMAN  19124 ATGM1 46/// /0203 11033 40153 91136 222// 0001 333 91232;
0078998252999992010011913004+44400-068200FM-18+0003ATGM1V0200101N001519999999N9999999N1-00321+99999101551REMSYN069CMAN  19134 ATGM1 46/// /0103 11032 40155 91236 222// 0001 333 91229;
0078998252999992010011914004+44400-068200FM-18+0003ATGM1V0200401N001519999999N9999999N1-00301+99999101551REMSYN069CMAN  19144 ATGM1 46/// /0403 11030 40155 91336 222// 0002 333 91229;
0078998252999992010011915004+44400-068200FM-18+0003ATGM1V0200301N000519999999N9999999N1-00261+99999101551REMSYN069CMAN  19154 ATGM1 46/// /0301 11026 40155 91436 222// 0002 333 91237;
0072998252999992010011916004+44400-068200FM-18+0003ATGM1V0200501N000519999999N9999999N1-00211+99999101531REMSYN063CMAN  19164 ATGM1 46/// /0501 11021 40153 91536 222// 00021209;
0078998252999992010011917004+44400-068200FM-18+0003ATGM1V0203201N001519999999N9999999N1-00221+99999101481REMSYN069CMAN  19174 ATGM1 46/// /3203 11022 40148 91642 222// 0002 333 91229;
0078998252999992010011918004+44400-068200FM-18+0003ATGM1V0202701N000519999999N9999999N1-00191+99999101441REMSYN069CMAN  19184 ATGM1 46/// /2701 11019 40144 91742 222// 0002 333 91227;
0078998252999992010011919004+44400-068200FM-18+0003ATGM1V0202701N000519999999N9999999N1-00161+99999101441REMSYN069CMAN  19194 ATGM1 46/// /2701 11016 40144 91836 222// 0001 333 91222;
0078998252999992010011920004+44400-068200FM-18+0003ATGM1V0209999C000019999999N9999999N1-00131+99999101441REMSYN069CMAN 19204 ATGM1 46/// /0000 11013 40144 91936 222// 00018 333 91201;
0078998252999992010011921004+44400-068200FM-18+0003ATGM1V0201901N000519999999N9999999N1-00131+99999101431REMSYN069CMAN  19214 ATGM1 46/// /1901 11013 40143 92036 222// 0002 333 91222;
0078998252999992010011922004+44400-068200FM-18+0003ATGM1V0209999C000019999999N9999999N1-00091+99999101401REMSYN069CMAN  19224 ATGM1 46/// /0000 11009 40140 92136 222// 0002 333 91217;
0078998252999992010011923004+44400-068200FM-18+0003ATGM1V0200301N001519999999N9999999N1-00021+99999101351REMSYN069CMAN  19234 ATGM1 46/// /0303 11002 40135 92242 222// 0002 333 91219;
0090998252999992010012000004+44400-068200FM-18+0003ATGM1V0200801N002619999999N9999999N1+00101+99999101341REMSYN081CMAN  20004 ATGM1 46/// /0805 10010 40134 92336 222// 0002 71022 875// 333 87610;
0078998252999992010012001004+44400-068200FM-18+0003ATGM1V0200701N006219999999N9999999N1+00131+99999101321REMSYN069CMAN  20014 ATGM1 46/// /0712 10013 40132 90036 222// 0002 333 91212;
0078998252999992010012002004+44400-068200FM-18+0003ATGM1V0200601N007219999999N9999999N1+00151+99999101281REMSYN069CMAN  20024 ATGM1 46/// /0614 10015 40128 90136 222// 0002 333 91221;
0078998252999992010012003004+44400-068200FM-18+0003ATGM1V0200601N006219999999N9999999N1+00181+99999101241REMSYN069CMAN  20034 ATGM1 46/// /0612 10018 40124 90236 222// 0002 333 91221;
0078998252999992010012004004+44400-068200FM-18+0003ATGM1V0200601N007719999999N9999999N1+00161+99999101201REMSYN069CMAN  20044 ATGM1 46/// /0615 10016 40120 90336 222// 0002 333 91216;
0078998252999992010012005004+44400-068200FM-18+0003ATGM1V0200701N006219999999N9999999N1+00181+99999101141REMSYN069CMAN  20054 ATGM1 46/// /0712 10018 40114 90436 222// 0002 333 91212;
0078998252999992010012006004+44400-068200FM-18+0003ATGM1V0200501N008219999999N9999999N1+00141+99999101071REMSYN069CMAN  20064 ATGM1 46/// /0516 10014 40107 90536 222// 0002 333 91211;
0078998252999992010012007004+44400-068200FM-18+0003ATGM1V0200501N006219999999N9999999N1+00121+99999101051REMSYN069CMAN  20074 ATGM1 46/// /0512 10012 40105 90636 222// 0002 333 91216;
0078998252999992010012008004+44400-068200FM-18+0003ATGM1V0200401N005719999999N9999999N1+00061+99999101011REMSYN069CMAN  20084 ATGM1 46/// /0411 10006 40101 90736 222// 0002 333 91214;
0078998252999992010012009004+44400-068200FM-18+0003ATGM1V0200301N004119999999N9999999N1+00041+99999100961REMSYN069CMAN  20094 ATGM1 46/// /0308 10004 40096 90836 222// 0001 333 91219;
0078998252999992010012010004+44400-068200FM-18+0003ATGM1V0200201N004619999999N9999999N1+00071+99999100911REMSYN069CMAN  20104 ATGM1 46/// /0209 10007 40091 90936 222// 0002 333 91221;
0078998252999992010012011004+44400-068200FM-18+0003ATGM1V0200101N005119999999N9999999N1+00071+99999100871REMSYN069CMAN  20114 ATGM1 46/// /0110 10007 40087 91036 222// 0001 333 91203;
0078998252999992010012012004+44400-068200FM-18+0003ATGM1V0203401N005119999999N9999999N1+00021+99999100831REMSYN069CMAN  20124 ATGM1 46/// /3410 10002 40083 91136 222// 0001 333 91225;
0078998252999992010012013004+44400-068200FM-18+0003ATGM1V0203401N006219999999N9999999N1+00051+99999100821REMSYN069CMAN  20134 ATGM1 46/// /3412 10005 40082 91236 222// 0001 333 91232;
0078998252999992010012014004+44400-068200FM-18+0003ATGM1V0203301N006219999999N9999999N1-00021+99999100821REMSYN069CMAN  20144 ATGM1 46/// /3312 11002 40082 91336 222// 0001 333 91229;
0072998252999992010012015004+44400-068200FM-18+0003ATGM1V0203201N004619999999N9999999N1-00081+99999100841REMSYN063CMAN  20154 ATGM1 46/// /3209 11008 40084 91436 222// 00011202;
0078998252999992010012016004+44400-068200FM-18+0003ATGM1V0203101N004119999999N9999999N1-00111+99999100791REMSYN069CMAN  20164 ATGM1 46/// /3108 11011 40079 91536 222// 0001 333 91236;
0078998252999992010012017004+44400-068200FM-18+0003ATGM1V0203101N004119999999N9999999N1-00121+99999100721REMSYN069CMAN  20174 ATGM1 46/// /3108 11012 40072 91636 222// 0002 333 91237;
0078998252999992010012018004+44400-068200FM-18+0003ATGM1V0203101N005719999999N9999999N1-00071+99999100661REMSYN069CMAN  20184 ATGM1 46/// /3111 11007 40066 91736 222// 0002 333 91215;
0078998252999992010012019004+44400-068200FM-18+0003ATGM1V0203001N004619999999N9999999N1-00021+99999100641REMSYN069CMAN  20194 ATGM1 46/// /3009 11002 40064 91836 222// 0002 333 91222;
0078998252999992010012020004+44400-068200FM-18+0003ATGM1V0203101N005719999999N9999999N1-00011+99999100681REMSYN069CMAN  20204 ATGM1 46/// /3111 11001 40068 91936 222// 0001 333 91221;
0078998252999992010012021004+44400-068200FM-18+0003ATGM1V0203201N005119999999N9999999N1-00051+99999100731REMSYN069CMAN  20214 ATGM1 46/// /3210 11005 40073 92036 222// 0001 333 91219;
0078998252999992010012022004+44400-068200FM-18+0003ATGM1V0203001N003619999999N9999999N1-00071+99999100801REMSYN069CMAN  20224 ATGM1 46/// /3007 11007 40080 92136 222// 0001 333 91220;
0078998252999992010012023004+44400-068200FM-18+0003ATGM1V0202701N004619999999N9999999N1-00151+99999100851REMSYN069CMAN  20234 ATGM1 46/// /2709 11015 40085 92236 222// 0002 333 91216;
0078998252999992010012100004+44400-068200FM-18+0003ATGM1V0203001N005119999999N9999999N1-00161+99999100931REMSYN069CMAN  21004 ATGM1 46/// /3010 11016 40093 92336 222// 0001 333 91223;
0078998252999992010012101004+44400-068200FM-18+0003ATGM1V0202801N005119999999N9999999N1-00181+99999100991REMSYN069CMAN  21014 ATGM1 46/// /2810 11018 40099 90036 222// 0001 333 91221;
0071998252999992010012102004+44400-068200FM-18+0003ATGM1V0202901N005119999999N9999999N1-00161+99999101081REMSYN062CMAN  21024 ATGM1 46/// /2910 11016 40108 90136 222// 0001/20;
0078998252999992010012103004+44400-068200FM-18+0003ATGM1V0202601N006219999999N9999999N1-00181+99999101131REMSYN069CMAN  21034 ATGM1 46/// /2612 11018 40113 90236 222// 0002 333 91221;
0078998252999992010012104004+44400-068200FM-18+0003ATGM1V0202701N007219999999N9999999N1-00181+99999101161REMSYN069CMAN  21044 ATGM1 46/// /2714 11018 40116 90336 222// 0002 333 91223;
0078998252999992010012105004+44400-068200FM-18+0003ATGM1V0202701N007219999999N9999999N1-00201+99999101201REMSYN069CMAN  21054 ATGM1 46/// /2714 11020 40120 90436 222// 0001 333 91218;
0078998252999992010012106004+44400-068200FM-18+0003ATGM1V0202601N007219999999N9999999N1-00221+99999101221REMSYN069CMAN  21064 ATGM1 46/// /2614 11022 40122 90536 222// 0001 333 91219;
0078998252999992010012107004+44400-068200FM-18+0003ATGM1V0202601N007719999999N9999999N1-00271+99999101321REMSYN069CMAN  21074 ATGM1 46/// /2615 11027 40132 90636 222// 0001 333 91218;
0078998252999992010012108004+44400-068200FM-18+0003ATGM1V0202501N008219999999N9999999N1-00291+99999101391REMSYN069CMAN  21084 ATGM1 46/// /2516 11029 40139 90736 222// 0001 333 91219;
0078998252999992010012109004+44400-068200FM-18+0003ATGM1V0202501N009819999999N9999999N1-00321+99999101441REMSYN069CMAN  21094 ATGM1 46/// /2519 11032 40144 90836 222// 0001 333 91223;
0078998252999992010012110004+44400-068200FM-18+0003ATGM1V0202601N007219999999N9999999N1-00371+99999101521REMSYN069CMAN  21104 ATGM1 46/// /2614 11037 40152 90936 222// 0001 333 91215;
0078998252999992010012111004+44400-068200FM-18+0003ATGM1V0202501N006719999999N9999999N1-00411+99999101571REMSYN069CMAN  21114 ATGM1 46/// /2513 11041 40157 91036 222// 0001 333 91212;
0078998252999992010012112004+44400-068200FM-18+0003ATGM1V0202401N007219999999N9999999N1-00451+99999101641REMSYN069CMAN  21124 ATGM1 46/// /2414 11045 40164 91142 222// 0001 333 91215;
0078998252999992010012113004+44400-068200FM-18+0003ATGM1V0202301N006719999999N9999999N1-00421+99999101671REMSYN069CMAN  21134 ATGM1 46/// /2313 11042 40167 91236 222// 0001 333 91207;
0078998252999992010012114004+44400-068200FM-18+0003ATGM1V0202401N008219999999N9999999N1-00371+99999101731REMSYN069CMAN  21144 ATGM1 46/// /2416 11037 40173 91336 222// 0001 333 91208;
0078998252999992010012115004+44400-068200FM-18+0003ATGM1V0202401N005119999999N9999999N1-00261+99999101791REMSYN069CMAN  21154 ATGM1 46/// /2410 11026 40179 91436 222// 0001 333 91204;
0078998252999992010012116004+44400-068200FM-18+0003ATGM1V0202301N005719999999N9999999N1-00181+99999101771REMSYN069CMAN  21164 ATGM1 46/// /2311 11018 40177 91536 222// 0001 333 91207;
0078998252999992010012117004+44400-068200FM-18+0003ATGM1V0202301N005719999999N9999999N1-00131+99999101691REMSYN069CMAN  21174 ATGM1 46/// /2311 11013 40169 91636 222// 0002 333 91205;
0000998252999992010012118004+44400-068200FM-18+0003ATGM1V0202701N005719999999N9999999N1-00071+99999101651
0078998252999992010012119004+44400-068200FM-18+0003ATGM1V0202401N005119999999N9999999N1-00041+99999101671REMSYN069CMAN  21194 ATGM1 46/// /2410 11004 40167 91836 222// 0002 333 91208;
0078998252999992010012120004+44400-068200FM-18+0003ATGM1V0202401N006219999999N9999999N1-00011+99999101691REMSYN069CMAN  21204 ATGM1 46/// /2412 11001 40169 91936 222// 0001 333 91209;
0078998252999992010012121004+44400-068200FM-18+0003ATGM1V0202201N003119999999N9999999N1-00011+99999101701REMSYN069CMAN  21214 ATGM1 46/// /2206 11001 40170 92036 222// 0001 333 91209;
0078998252999992010012122004+44400-068200FM-18+0003ATGM1V0202001N002119999999N9999999N1-00071+99999101731REMSYN069CMAN  21224 ATGM1 46/// /2004 11007 40173 92136 222// 0001 333 91211;
0078998252999992010012123004+44400-068200FM-18+0003ATGM1V0202101N004119999999N9999999N1-00041+99999101731REMSYN069CMAN  21234 ATGM1 46/// /2108 11004 40173 92236 222// 0002 333 91217;
0078998252999992010012200004+44400-068200FM-18+0003ATGM1V0202101N005119999999N9999999N1-00041+99999101741REMSYN069CMAN  22004 ATGM1 46/// /2110 11004 40174 92336 222// 0002 333 91209;
0078998252999992010012201004+44400-068200FM-18+0003ATGM1V0202301N004119999999N9999999N1-00091+99999101711REMSYN069CMAN  22014 ATGM1 46/// /2308 11009 40171 90036 222// 0002 333 91208;
0078998252999992010012202004+44400-068200FM-18+0003ATGM1V0202101N004619999999N9999999N1-00181+99999101661REMSYN069CMAN  22024 ATGM1 46/// /2109 11018 40166 90136 222// 0002 333 91208;
0078998252999992010012203004+44400-068200FM-18+0003ATGM1V0202201N004619999999N9999999N1-00231+99999101631REMSYN069CMAN  22034 ATGM1 46/// /2209 11023 40163 90236 222// 0002 333 91207;
0078998252999992010012204004+44400-068200FM-18+0003ATGM1V0202201N005119999999N9999999N1-00291+99999101591REMSYN069CMAN  22044 ATGM1 46/// /2210 11029 40159 90336 222// 0002 333 91215;
0078998252999992010012205004+44400-068200FM-18+0003ATGM1V0202101N004119999999N9999999N1-00321+99999101541REMSYN069CMAN  22054 ATGM1 46/// /2108 11032 40154 90436 222// 0002 333 91208;
0078998252999992010012206004+44400-068200FM-18+0003ATGM1V0202101N004619999999N9999999N1-00301+99999101461REMSYN069CMAN  22064 ATGM1 46/// /2109 11030 40146 90536 222// 0002 333 91206;
0078998252999992010012207004+44400-068200FM-18+0003ATGM1V0201901N007219999999N9999999N1-00381+99999101531REMSYN069CMAN  22074 ATGM1 46/// /1914 11038 40153 90636 222// 0002 333 91207;
0078998252999992010012208004+44400-068200FM-18+0003ATGM1V0202001N005119999999N9999999N1-00351+99999101591REMSYN069CMAN  22084 ATGM1 46/// /2010 11035 40159 90736 222// 0002 333 91207;
0078998252999992010012209004+44400-068200FM-18+0003ATGM1V0202501N004119999999N9999999N1-00311+99999101581REMSYN069CMAN  22094 ATGM1 46/// /2508 11031 40158 90836 222// 0002 333 91211;
0078998252999992010012210004+44400-068200FM-18+0003ATGM1V0202401N004119999999N9999999N1-00381+99999101581REMSYN069CMAN  22104 ATGM1 46/// /2408 11038 40158 90936 222// 0001 333 91207;
0078998252999992010012211004+44400-068200FM-18+0003ATGM1V0202501N004119999999N9999999N1-00441+99999101581REMSYN069CMAN  22114 ATGM1 46/// /2508 11044 40158 91036 222// 0001 333 91207;
0078998252999992010012212004+44400-068200FM-18+0003ATGM1V0202301N004619999999N9999999N1-00521+99999101571REMSYN069CMAN  22124 ATGM1 46/// /2309 11052 40157 91136 222// 0001 333 91210;
0078998252999992010012213004+44400-068200FM-18+0003ATGM1V0202801N003119999999N9999999N1-00481+99999101651REMSYN069CMAN  22134 ATGM1 46/// /2806 11048 40165 91236 222// 0001 333 91214;
0078998252999992010012214004+44400-068200FM-18+0003ATGM1V0202401N002119999999N9999999N1-00411+99999101831REMSYN069CMAN  22144 ATGM1 46/// /2404 11041 40183 91336 222// 0001 333 91211;
0000998252999992010012215004+44400-068200FM-18+0003ATGM1V0202801N004119999999N9999999N1-00391+99999101741
0078998252999992010012216004+44400-068200FM-18+0003ATGM1V0203001N005119999999N9999999N1-00371+99999101671REMSYN069CMAN  22164 ATGM1 46/// /3010 11037 40167 91536 222// 0001 333 91220;
0076998252999992010012217004+44400-068200FM-18+0003ATGM1V0202701N004619999999N9999999N1-00291+99999101561REMSYN067CMAN  22174 ATGM1 46/// /2709 11029 40156 91636 222// 000199 57002;
0078998252999992010012218004+44400-068200FM-18+0003ATGM1V0202801N005719999999N9999999N1-00221+99999101481REMSYN069CMAN 22184 ATGM1 46/// /2811 11022 40148 91736 222// 00017 333 91214;
0078998252999992010012219004+44400-068200FM-18+0003ATGM1V0202701N003119999999N9999999N1-00161+99999101511REMSYN069CMAN  22194 ATGM1 46/// /2706 11016 40151 91836 222// 0001 333 91217;
0078998252999992010012220004+44400-068200FM-18+0003ATGM1V0202901N003619999999N9999999N1-00131+99999101571REMSYN069CMAN 22204 ATGM1 46/// /2907 11013 40157 91936 222// 00017 333 91211;
0078998252999992010012221004+44400-068200FM-18+0003ATGM1V0202901N004119999999N9999999N1-00141+99999101651REMSYN069CMAN  22214 ATGM1 46/// /2908 11014 40165 92036 222// 0001 333 91204;
0078998252999992010012222004+44400-068200FM-18+0003ATGM1V0203101N004619999999N9999999N1-00181+99999101691REMSYN069CMAN  22224 ATGM1 46/// /3109 11018 40169 92142 222// 0001 333 91207;
0072998252999992010012223004+44400-068200FM-18+0003ATGM1V0203101N003119999999N9999999N1-00221+99999101741REMSYN063CMAN  22234 ATGM1 46/// /3106 11022 40174 92236 222// 00011204;
0078998252999992010012300004+44400-068200FM-18+0003ATGM1V0203101N003619999999N9999999N1-00271+99999101791REMSYN069CMAN  23004 ATGM1 46/// /3107 11027 40179 92336 222// 0001 333 91206;
0078998252999992010012301004+44400-068200FM-18+0003ATGM1V0202901N003119999999N9999999N1-00321+99999101821REMSYN069CMAN  23014 ATGM1 46/// /2906 11032 40182 90036 222// 0001 333 91208;
0000998252999992010012302004+44400-068200FM-18+0003ATGM1V0203001N003619999999N9999999N1-00361+99999101881
0078998252999992010012303004+44400-068200FM-18+0003ATGM1V0203001N003119999999N9999999N1-00451+99999101911REMSYN069CMAN  23034 ATGM1 46/// /3006 11045 40191 90236 222// 0001 333 91211;
0078998252999992010012304004+44400-068200FM-18+0003ATGM1V0203201N005119999999N9999999N1-00571+99999101971REMSYN069CMAN  23044 ATGM1 46/// /3210 11057 40197 90336 222// 0001 333 91210;
0078998252999992010012305004+44400-068200FM-18+0003ATGM1V0203001N003119999999N9999999N1-00671+99999102041REMSYN069CMAN  23054 ATGM1 46/// /3006 11067 40204 90436 222// 0001 333 91211;
0078998252999992010012306004+44400-068200FM-18+0003ATGM1V0202701N003619999999N9999999N1-00741+99999102021REMSYN069CMAN  23064 ATGM1 46/// /2707 11074 40202 90536 222// 0001 333 91211;
0078998252999992010012307004+44400-068200FM-18+0003ATGM1V0202701N004619999999N9999999N1-00761+99999102061REMSYN069CMAN  23074 ATGM1 46/// /2709 11076 40206 90636 222// 0001 333 91212;
0101998252999992010012308004+44400-068200FM-18+0003ATGM1V0202901N004619999999N9999999N1-00851+99999102121ADDMD1210091+9999REMSYN075CMAN  23084 ATGM1 46/// /2909 11085 40212 52009 90800 222// 0000 333 91210;
0112998252999992010012309004+44400-068200FM-18+0003ATGM1V0202801N005119999999N9999999N1-00881+99999102131ADDMD1110091+9999REMSYN086CMAN  23094 ATGM1 46/// /2810 11088 40213 51009 90900 222// 00002//// 9//// 555 91016;
0101998252999992010012310004+44400-068200FM-18+0003ATGM1V0202901N005119999999N9999999N1-00921+99999102171ADDMD1310071+9999REMSYN075CMAN  23104 ATGM1 46/// /2910 11092 40217 53007 91000 222// 0000 333 91215;
0088998252999992010012311004+44400-068200FM-18+0003ATGM1V0202801N005719999999N9999999N1-00941+99999102191REMSYN079CMAN  23114 ATGM1 46/// /2811 11094 40219 91036 222// 0000555  555 11025 22026;
0101998252999992010012312004+44400-068200FM-18+0003ATGM1V0202701N006219999999N9999999N1-00971+99999102261ADDMD1310121+9999REMSYN075CMAN  23124 ATGM1 46/// /2712 11097 40226 53012 91200 222// 0000 333 91205;
0000998252999992010012313004+44400-068200FM-18+0003ATGM1V0202701N006219999999N9999999N1-00981+99999102281
0078998252999992010012314004+44400-068200FM-18+0003ATGM1V0202701N005119999999N9999999N1-00961+99999102371REMSYN069CMAN  23144 ATGM1 46/// /2710 11096 40237 91336 222// 0000 333 91211;
0078998252999992010012315004+44400-068200FM-18+0003ATGM1V0202601N006219999999N9999999N1-00881+99999102351REMSYN069CMAN  23154 ATGM1 46/// /2612 11088 40235 91436 222// 0000 333 91217;
0078998252999992010012316004+44400-068200FM-18+0003ATGM1V0202601N005719999999N9999999N1-00761+99999102321REMSYN069CMAN  23164 ATGM1 46/// /2611 11076 40232 91536 222// 0000 333 91210;
0078998252999992010012317004+44400-068200FM-18+0003ATGM1V0202601N005119999999N9999999N1-00681+99999102241REMSYN069CMAN  23174 ATGM1 46/// /2610 11068 40224 91636 222// 0000 333 91209;
0078998252999992010012318004+44400-068200FM-18+0003ATGM1V0202601N005119999999N9999999N1-00571+99999102131REMSYN069CMAN  23184 ATGM1 46/// /2610 11057 40213 91736 222// 0000 333 91212;
0078998252999992010012319004+44400-068200FM-18+0003ATGM1V0202501N006219999999N9999999N1-00441+99999102081REMSYN069CMAN  23194 ATGM1 46/// /2512 11044 40208 91836 222// 0000 333 91215;
0078998252999992010012320004+44400-068200FM-18+0003ATGM1V0202501N007719999999N9999999N1-00341+99999102081REMSYN069CMAN  23204 ATGM1 46/// /2515 11034 40208 91936 222// 0001 333 91210;
0078998252999992010012321004+44400-068200FM-18+0003ATGM1V0202401N004619999999N9999999N1-00291+99999102091REMSYN069CMAN  23214 ATGM1 46/// /2409 11029 40209 92036 222// 0000 333 91207;
0078998252999992010012322004+44400-068200FM-18+0003ATGM1V0202101N004619999999N9999999N1-00311+99999102071REMSYN069CMAN  23224 ATGM1 46/// /2109 11031 40207 92136 222// 0001 333 91206;
0078998252999992010012323004+44400-068200FM-18+0003ATGM1V0202101N003119999999N9999999N1-00301+99999102171REMSYN069CMAN  23234 ATGM1 46/// /2106 11030 40217 92236 222// 0001 333 91206;
0078998252999992010012400004+44400-068200FM-18+0003ATGM1V0202001N004119999999N9999999N1-00271+99999102231REMSYN069CMAN  24004 ATGM1 46/// /2008 11027 40223 92336 222// 0001 333 91203;
