0149066090999992011010100004+46550+007017FM-12+197299999V0200801N003619999999N9999999N1-00211-01621999999ADDMA1999999080011MD1710051+9999ME1314929OA149900721REMSYN088AAXX  01004 06609 33/// /0807 11021 21162 38001 48492 57005 333 55300 20000 91114 91209;
0149066090999992011010101004+46550+007017FM-12+197299999V0200401N004119999999N9999999N1-00221-01491999999ADDMA1999999079991MD1610071+9999ME1314909OA149900671REMSYN088AAXX  01014 06609 33/// /0408 11022 21149 37999 48490 56007 333 55300 20000 91113 91210;
0149066090999992011010102004+46550+007017FM-12+197299999V0200601N003119999999N9999999N1-00201-01561999999ADDMA1999999079981MD1610051+9999ME1314889OA149900671REMSYN088AAXX  01024 06609 33/// /0606 11020 21156 37998 48488 56005 333 55300 20000 91113 91210;
0149066090999992011010103004+46550+007017FM-12+197299999V0200601N002619999999N9999999N1-00151-01791999999ADDMA1999999079971MD1610041+9999ME1314879OA149900671REMSYN088AAXX  01034 06609 33/// /0605 11015 21179 37997 48487 56004 333 55300 20000 91113 91210;
0149066090999992011010104004+46550+007017FM-12+197299999V0200501N003119999999N9999999N1-00221-01801999999ADDMA1999999079951MD1610041+9999ME1314869OA149900571REMSYN088AAXX  01044 06609 33/// /0506 11022 21180 37995 48486 56004 333 55300 20000 91111 91206;
0149066090999992011010105004+46550+007017FM-12+197299999V0200301N003119999999N9999999N1-00231-01681999999ADDMA1999999079961MD1710021+9999ME1314879OA149900511REMSYN088AAXX  01054 06609 33/// /0306 11023 21168 37996 48487 57002 333 55300 20000 91110 91206;
0198066090999992011010106004+46550+007017FM-12+197299999V0200501N003619999999N9999999N1-00351-01631999999ADDAL19900091GJ104989KA1999N-00321MA1999999079951MD1710021+9999ME1314889OA149900671REMSYN106AAXX  01064 06609 33/// /0507 11035 21163 37995 48488 57002 333 21032 55083 55300 20000 70000 91113 91210;
0149066090999992011010107004+46550+007017FM-12+197299999V0200501N004119999999N9999999N1-00331-01691999999ADDMA1999999079961MD1210011+9999ME1314899OA149900511REMSYN088AAXX  01074 06609 33/// /0508 11033 21169 37996 48489 52001 333 55300 20000 91110 91208;
0149066090999992011010108004+46550+007017FM-12+197299999V0200601N004619999999N9999999N1-00281-01561999999ADDMA1999999079971MD1219999+9999ME1314899OA149900671REMSYN088AAXX  01084 06609 33/// /0609 11028 21156 37997 48489 52/// 333 55305 20083 91113 91209;
0096066090999992011010109004+46550+007017FM-12+197299999V0200701N003619999999N9999999N1-00191-01421999999ADDMA1999999079961ME1314869REMSYN060AAXX  01094 06609 43/// /0707 11019 21142 37996 48486 5////;
0096066090999992011010110004+46550+007017FM-12+197299999V0200401N003619999999N9999999N1-00251-01091999999ADDMA1999999079961ME1314879REMSYN060AAXX  01104 06609 43/// /0407 11025 21109 37996 48487 5////;
0149066090999992011010111004+46550+007017FM-12+197299999V0200701N003119999999N9999999N1-00221-01171999999ADDMA1999999079941MD1710031+9999ME1314859OA149900511REMSYN088AAXX  01114 06609 33/// /0706 11022 21117 37994 48485 57003 333 553// 2//// 91110 91208;
0096066090999992011010112004+46550+007017FM-12+197299999V0200601N002119999999N9999999N1-00251-01091999999ADDMA1999999079901ME1314819REMSYN060AAXX  01124 06609 43/// /0604 11025 21109 37990 48481 5////;
0096066090999992011010113004+46550+007017FM-12+197299999V0200701N003619999999N9999999N1-00241-01231999999ADDMA1999999079861ME1314779REMSYN060AAXX  01134 06609 43/// /0707 11024 21123 37986 48477 5////;
0096066090999992011010114004+46550+007017FM-12+197299999V0201001N001519999999N9999999N1-00191-01271999999ADDMA1999999079841ME1314749REMSYN060AAXX  01144 06609 43/// /1003 11019 21127 37984 48474 5////;
0096066090999992011010115004+46550+007017FM-12+197299999V0201201N001019999999N9999999N1-00181-01251999999ADDMA1999999079841ME1314749REMSYN060AAXX  01154 06609 43/// /1202 11018 21125 37984 48474 5////;
0096066090999992011010116004+46550+007017FM-12+197299999V0200201N002119999999N9999999N1-00271-01301999999ADDMA1999999079821ME1314749REMSYN060AAXX  01164 06609 43/// /0204 11027 21130 37982 48474 5////;
0096066090999992011010117004+46550+007017FM-12+197299999V0200501N003119999999N9999999N1-00331-01241999999ADDMA1999999079791ME1314729REMSYN060AAXX  01174 06609 43/// /0506 11033 21124 37979 48472 5////;
0096066090999992011010118004+46550+007017FM-12+197299999V0200201N003619999999N9999999N1-00411-01051999999ADDMA1999999079761ME1314709REMSYN060AAXX  01184 06609 43/// /0207 11041 21105 37976 48470 5////;
0112066090999992011010119004+46550+007017FM-12+197299999V0200301N005119999999N9999999N1-00451-01011999999ADDMA1999999079741ME1314699REMSYN076AAXX  01194 06609 33/// /0310 11045 21101 37974 48469 5//// 333 553// 20000;
0149066090999992011010120004+46550+007017FM-12+197299999V0200501N005119999999N9999999N1-00491-01041999999ADDMA1999999079741MD1610051+9999ME1314709OA149900671REMSYN088AAXX  01204 06609 33/// /0510 11049 21104 37974 48470 56005 333 55300 20000 91113 91210;
0149066090999992011010121004+46550+007017FM-12+197299999V0200701N004119999999N9999999N1-00451-01031999999ADDMA1999999079731MD1710031+9999ME1314689OA149900671REMSYN088AAXX  01214 06609 33/// /0708 11045 21103 37973 48468 57003 333 55300 20000 91113 91210;
0149066090999992011010122004+46550+007017FM-12+197299999V0200601N004119999999N9999999N1-00411-01121999999ADDMA1999999079701MD1710041+9999ME1314649OA149900671REMSYN088AAXX  01224 06609 33/// /0608 11041 21112 37970 48464 57004 333 55300 20000 91113 91209;
0149066090999992011010123004+46550+007017FM-12+197299999V0200701N004619999999N9999999N1-00391-01171999999ADDMA1999999079661MD1710081+9999ME1314609OA149900621REMSYN088AAXX  01234 06609 33/// /0709 11039 21117 37966 48460 57008 333 55300 20000 91112 91209;
0149066090999992011010200004+46550+007017FM-12+197299999V0201201N002119999999N9999999N1-00311-01071999999ADDMA1999999079601MD1810131+9999ME1314529OA149900671REMSYN088AAXX  02004 06609 33/// /1204 11031 21107 37960 48452 58013 333 55300 20000 91113 91210;
0149066090999992011010201004+46550+007017FM-12+197299999V0200201N003119999999N9999999N1-00371-01161999999ADDMA1999999079571MD1610131+9999ME1314509OA149900621REMSYN088AAXX  02014 06609 33/// /0206 11037 21116 37957 48450 56013 333 55300 20000 91112 91209;
0096066090999992011010202004+46550+007017FM-12+197299999V0200201N003619999999N9999999N1-00491-00991999999ADDMA1999999079591ME1314559REMSYN060AAXX  02024 06609 43/// /0207 11049 21099 37959 48455 5////;
0096066090999992011010203004+46550+007017FM-12+197299999V0200401N004619999999N9999999N1-00491-01011999999ADDMA1999999079561ME1314529REMSYN060AAXX  02034 06609 43/// /0409 11049 21101 37956 48452 5////;
0096066090999992011010204004+46550+007017FM-12+197299999V0200501N004119999999N9999999N1-00601-00971999999ADDMA1999999079531ME1314519REMSYN060AAXX  02044 06609 43/// /0508 11060 21097 37953 48451 5////;
0096066090999992011010205004+46550+007017FM-12+197299999V0200401N007219999999N9999999N1-00671-00921999999ADDMA1999999079521ME1314519REMSYN060AAXX  02054 06609 43/// /0414 11067 21092 37952 48451 5////;
0125066090999992011010206004+46550+007017FM-12+197299999V0200501N007219999999N9999999N1-00711-00891999999ADDKA1999N-00731MA1999999079501ME1314509REMSYN076AAXX  02064 06609 43/// /0514 11071 21089 37950 48450 5//// 333 21073 55083;
0149066090999992011010207004+46550+007017FM-12+197299999V0200801N004619999999N9999999N1-00631-00971999999ADDMA1999999079501MD1710031+9999ME1314499OA149900931REMSYN088AAXX  02074 06609 33/// /0809 11063 21097 37950 48449 57003 333 55300 20000 91118 91216;
0149066090999992011010208004+46550+007017FM-12+197299999V0200501N003619999999N9999999N1-00531-00931999999ADDMA1999999079541MD1310021+9999ME1314519OA149900821REMSYN088AAXX  02084 06609 33/// /0507 11053 21093 37954 48451 53002 333 55305 20083 91116 91214;
0149066090999992011010209004+46550+007017FM-12+197299999V0200401N006219999999N9999999N1-00881-00911999999ADDMA1999999079551MD1210051+9999ME1314599OA149900931REMSYN088AAXX  02094 06609 33/// /0412 11088 21091 37955 48459 52005 333 55308 20500 91118 91216;
0149066090999992011010210004+46550+007017FM-12+197299999V0200501N002119999999N9999999N1-00421-00811999999ADDMA1999999079581MD1210081+9999ME1314529OA149900881REMSYN088AAXX  02104 06609 33/// /0504 11042 21081 37958 48452 52008 333 55309 20986 91117 91212;
0149066090999992011010211004+46550+007017FM-12+197299999V0203101N000519999999N9999999N1-00341-01021999999ADDMA1999999079571MD1210031+9999ME1314509OA149900821REMSYN088AAXX  02114 06609 33/// /3101 11034 21102 37957 48450 52003 333 553// 2//// 91116 91211;
0149066090999992011010212004+46550+007017FM-12+197299999V0200501N001519999999N9999999N1-00541-00951999999ADDMA1999999079541MD1710011+9999ME1314519OA149900931REMSYN088AAXX  02124 06609 33/// /0503 11054 21095 37954 48451 57001 333 553// 2//// 91118 91216;
0149066090999992011010213004+46550+007017FM-12+197299999V0200401N005119999999N9999999N1-00891-00911999999ADDMA1999999079511MD1710071+9999ME1314559OA149900621REMSYN088AAXX  02134 06609 33/// /0410 11089 21091 37951 48455 57007 333 553// 2//// 91112 91210;
0112066090999992011010214004+46550+007017FM-12+197299999V0200401N005119999999N9999999N1-00881-00881999999ADDMA1999999079521ME1314569REMSYN076AAXX  02144 06609 33/// /0410 11088 21088 37952 48456 5//// 333 553// 2////;
0149066090999992011010215004+46550+007017FM-12+197299999V0200601N007719999999N9999999N1-00911-00911999999ADDMA1999999079521MD1510021+9999ME1314569OA149901081REMSYN088AAXX  02154 06609 33/// /0615 11091 21091 37952 48456 55002 333 55303 2//// 91121 91215;
0149066090999992011010216004+46550+007017FM-12+197299999V0200801N007219999999N9999999N1-00941-00941999999ADDMA1999999079531MD1210021+9999ME1314589OA149901241REMSYN088AAXX  02164 06609 33/// /0814 11094 21094 37953 48458 52002 333 55300 20335 91124 91216;
0149066090999992011010217004+46550+007017FM-12+197299999V0201601N001519999999N9999999N1-00971-00971999999ADDMA1999999079551MD1210031+9999ME1314609OA149901241REMSYN088AAXX  02174 06609 33/// /1603 11097 21097 37955 48460 52003 333 55300 20000 91124 91216;
0168066090999992011010218004+46550+007017FM-12+197299999V0201901N001519999999N9999999N1-01011-01011999999ADDKA1120M-00321MA1999999079571MD1210051+9999ME1314639OA149901241REMSYN094AAXX  02184 06609 33/// /1903 11101 21101 37957 48463 52005 333 11032 55300 20000 91124 91216;
0149066090999992011010219004+46550+007017FM-12+197299999V0201501N001019999999N9999999N1-01011-01051999999ADDMA1999999079581MD1210051+9999ME1314649OA149900881REMSYN088AAXX  02194 06609 33/// /1502 11101 21105 37958 48464 52005 333 55300 20000 91117 91204;
0149066090999992011010220004+46550+007017FM-12+197299999V0209999C000019999999N9999999N1-01061-01101999999ADDMA1999999079601MD1210051+9999ME1314679OA149900881REMSYN088AAXX  02204 06609 33/// /0000 11106 21110 37960 48467 52005 333 55300 20000 91117 91203;
0149066090999992011010221004+46550+007017FM-12+197299999V0202401N001019999999N9999999N1-01111-01271999999ADDMA1999999079631MD1210061+9999ME1314719OA149901241REMSYN088AAXX  02214 06609 33/// /2402 11111 21127 37963 48471 52006 333 55300 20000 91124 91216;
0149066090999992011010222004+46550+007017FM-12+197299999V0202801N001019999999N9999999N1-00821-02061999999ADDMA1999999079651MD1310071+9999ME1314679OA149900931REMSYN088AAXX  02224 06609 33/// /2802 11082 21206 37965 48467 53007 333 55300 20000 91118 91203;
0149066090999992011010223004+46550+007017FM-12+197299999V0201901N001019999999N9999999N1-00921-02041999999ADDMA1999999079651MD1210051+9999ME1314699OA149900771REMSYN088AAXX  02234 06609 33/// /1902 11092 21204 37965 48469 52005 333 55300 20000 91115 91203;
0149066090999992011010300004+46550+007017FM-12+197299999V0201801N001019999999N9999999N1-00851-02441999999ADDMA1999999079641MD1010011+9999ME1314679OA149901241REMSYN088AAXX  03004 06609 33/// /1802 11085 21244 37964 48467 50001 333 55300 20000 91124 91216;
0149066090999992011010301004+46550+007017FM-12+197299999V0201101N000519999999N9999999N1-00821-02731999999ADDMA1999999079621MD1710031+9999ME1314649OA149900821REMSYN088AAXX  03014 06609 33/// /1101 11082 21273 37962 48464 57003 333 55300 20000 91116 91208;
0149066090999992011010302004+46550+007017FM-12+197299999V0200301N002619999999N9999999N1-00841-02431999999ADDMA1999999079651MD1319999+9999ME1314689OA149900771REMSYN088AAXX  03024 06609 33/// /0305 11084 21243 37965 48468 53/// 333 55300 20000 91115 91207;
0096066090999992011010303004+46550+007017FM-12+197299999V0203401N001019999999N9999999N1-00821-02761999999ADDMA1999999079641ME1314669REMSYN060AAXX  03034 06609 43/// /3402 11082 21276 37964 48466 5////;
0149066090999992011010304004+46550+007017FM-12+197299999V0203301N001519999999N9999999N1-00831-02881999999ADDMA1999999079651MD1210031+9999ME1314679OA149900771REMSYN088AAXX  03044 06609 33/// /3303 11083 21288 37965 48467 52003 333 55300 20000 91115 91205;
0168066090999992011010305004+46550+007017FM-12+197299999V0200201N002119999999N9999999N1-00821-03161999999ADDMA1999999079651MD1410001+9999ME1314679OA149900881REMSYN088AAXX  03054 06609 33/// /0204 11082 21316 37965 48467 52000 333 55300 20000 91117 91207;EQDQ01+000022APCTEN
0217066090999992011010306004+46550+007017FM-12+197299999V0200501N001519999999N9999999N1-00831-03121999999ADDAL19900091GJ103789KA1999N-01141MA1999999079641MD1410001+9999ME1314669OA149900931REMSYN106AAXX  03064 06609 33/// /0503 11083 21312 37964 48466 57000 333 21114 55063 55300 20000 70000 91118 91208;EQDQ01+000072APCTEN
0149066090999992011010307004+46550+007017FM-12+197299999V0200601N005119999999N9999999N1-00761-03121999999ADDMA1999999079651MD1410001+9999ME1314669OA149900931REMSYN088AAXX  03074 06609 33/// /0610 11076 21312 37965 48466 54000 333 55300 20000 91118 91210;
0149066090999992011010308004+46550+007017FM-12+197299999V0200601N004619999999N9999999N1-00771-02761999999ADDMA1999999079651MD1410001+9999ME1314669OA149900821REMSYN088AAXX  03084 06609 33/// /0609 11077 21276 37965 48466 54/// 333 55305 20090 91116 91210;
0112066090999992011010309004+46550+007017FM-12+197299999V0200601N003119999999N9999999N1-00641-02911999999ADDMA1999999079681ME1314679REMSYN076AAXX  03094 06609 33/// /0606 11064 21291 37968 48467 5//// 333 553// 20551;
0149066090999992011010310004+46550+007017FM-12+197299999V0200701N004619999999N9999999N1-00541-02951999999ADDMA1999999079711MD1310061+9999ME1314689OA149900721REMSYN088AAXX  03104 06609 33/// /0709 11054 21295 37971 48468 53006 333 553// 2//// 91114 91210;
0149066090999992011010311004+46550+007017FM-12+197299999V0200401N003119999999N9999999N1-00521-03681999999ADDMA1999999079701MD1210051+9999ME1314669OA149900721REMSYN088AAXX  03114 06609 33/// /0406 11052 21368 37970 48466 52005 333 553// 2//// 91114 91210;
0149066090999992011010312004+46550+007017FM-12+197299999V0200401N001519999999N9999999N1-00481-03151999999ADDMA1999999079671MD1810011+9999ME1314639OA149900931REMSYN088AAXX  03124 06609 33/// /0403 11048 21315 37967 48463 58001 333 553// 2//// 91118 91210;
0149066090999992011010313004+46550+007017FM-12+197299999V0202801N000519999999N9999999N1-00431-03441999999ADDMA1999999079641MD1810071+9999ME1314599OA149900461REMSYN088AAXX  03134 06609 33/// /2801 11043 21344 37964 48459 58007 333 553// 2//// 91109 91206;
0112066090999992011010314004+46550+007017FM-12+197299999V0202401N001019999999N9999999N1-00471-02901999999ADDMA1999999079651ME1314609REMSYN076AAXX  03144 06609 33/// /2402 11047 21290 37965 48460 5//// 333 553// 2////;
0112066090999992011010315004+46550+007017FM-12+197299999V0202401N001519999999N9999999N1-00491-03631999999ADDMA1999999079661ME1314629REMSYN076AAXX  03154 06609 33/// /2403 11049 21363 37966 48462 5//// 333 553// 20648;
0149066090999992011010316004+46550+007017FM-12+197299999V0202901N002119999999N9999999N1-00581-03221999999ADDMA1999999079651MD1210011+9999ME1314639OA149900311REMSYN088AAXX  03164 06609 33/// /2904 11058 21322 37965 48463 52001 333 55308 20155 91106 91205;
0149066090999992011010317004+46550+007017FM-12+197299999V0202801N000519999999N9999999N1-00531-04342999999ADDMA1999999079651MD1410001+9999ME1314629OA149900311REMSYN088AAXX  03174 06609 33/// /2801 11053 21434 37965 48462 54000 333 55300 20000 91106 91205;
0168066090999992011010318004+46550+007017FM-12+197299999V0201701N000519999999N9999999N1-00511-04331999999ADDKA1120M-00361MA1999999079651MD1710011+9999ME1314619OA149900821REMSYN094AAXX  03184 06609 33/// /1701 11051 21433 37965 48461 57001 333 11036 55300 20000 91116 91210;
0149066090999992011010319004+46550+007017FM-12+197299999V0202201N002619999999N9999999N1-00561+99999999999ADDMA1999999079641MD1810011+9999ME1314619OA149900311REMSYN088AAXX  03194 06609 33/// /2205 11056 2//// 37964 48461 58001 333 55300 20000 91106 91205;
0149066090999992011010320004+46550+007017FM-12+197299999V0202401N005119999999N9999999N1-00571-03431999999ADDMA1999999079611MD1710041+9999ME1314589OA149900771REMSYN088AAXX  03204 06609 33/// /2410 11057 21343 37961 48458 57004 333 55300 20000 91115 91211;
0149066090999992011010321004+46550+007017FM-12+197299999V0202701N005719999999N9999999N1-00521-03411999999ADDMA1999999079601MD1710051+9999ME1314569OA149900821REMSYN088AAXX  03214 06609 33/// /2711 11052 21341 37960 48456 57005 333 55300 20000 91116 91212;
0149066090999992011010322004+46550+007017FM-12+197299999V0202701N005119999999N9999999N1-00611-02462999999ADDMA1999999079601MD1710041+9999ME1314589OA149900821REMSYN088AAXX  03224 06609 33/// /2710 11061 21246 37960 48458 57004 333 55300 20000 91116 91214;
0149066090999992011010323004+46550+007017FM-12+197299999V0202701N005119999999N9999999N1-00671-02971999999ADDMA1999999079601MD1510011+9999ME1314599OA149900821REMSYN088AAXX  03234 06609 33/// /2710 11067 21297 37960 48459 55001 333 55300 20000 91116 91214;
0168066090999992011010400004+46550+007017FM-12+197299999V0202701N008719999999N9999999N1-00801-01322999999ADDMA1999999079561MD1710041+9999ME1314589OA149901391REMSYN088AAXX  04004 06609 33/// /2717 11080 21132 37956 48458 57004 333 55300 20000 91127 91217;EQDQ01-001323ATOD  
0168066090999992011010401004+46550+007017FM-12+197299999V0202701N010319999999N9999999N1-00811+99999999999ADDMA1999999079501MD1710101+9999ME1314529OA149901601REMSYN088AAXX  04014 06609 33/// /2720 11081 21095 37950 48452 57010 333 55300 20000 91131 91222;EQDQ01-000953ATOD  
0168066090999992011010402004+46550+007017FM-12+197299999V0202601N012919999999N9999999N1-00771-00922999999ADDMA1999999079461MD1619999+9999ME1314479OA149901851REMSYN088AAXX  04024 06609 33/// /2625 11077 21092 37946 48447 56/// 333 55300 20000 91136 91226;EQDQ01-000923ATOD  
0149066090999992011010403004+46550+007017FM-12+197299999V0202501N016419999999N9999999N1-00741-00881999999ADDMA1999999079421MD1810141+9999ME1314439OA149902421REMSYN088AAXX  04034 06609 33/// /2532 11074 21088 37942 48443 58014 333 55300 20000 91147 91232;
0149066090999992011010404004+46550+007017FM-12+197299999V0202501N013919999999N9999999N1-00741-00981999999ADDMA1999999079401MD1810101+9999ME1314419OA149902421REMSYN088AAXX  04044 06609 33/// /2527 11074 21098 37940 48441 58010 333 55300 20000 91147 91232;
0149066090999992011010405004+46550+007017FM-12+197299999V0202501N012919999999N9999999N1-00771-01041999999ADDMA1999999079401MD1710061+9999ME1314419OA149902211REMSYN088AAXX  04054 06609 33/// /2525 11077 21104 37940 48441 57006 333 55300 20000 91143 91232;
0198066090999992011010406004+46550+007017FM-12+197299999V0202501N011319999999N9999999N1-00741-01011999999ADDAL19900091GJ104989KA1999N-00831MA1999999079391MD1710031+9999ME1314409OA149902421REMSYN106AAXX  04064 06609 33/// /2522 11074 21101 37939 48440 57003 333 21083 55083 55300 20000 70000 91147 91232;
0149066090999992011010407004+46550+007017FM-12+197299999V0202501N009819999999N9999999N1-00721-01051999999ADDMA1999999079391MD1710011+9999ME1314399OA149901851REMSYN088AAXX  04074 06609 33/// /2519 11072 21105 37939 48439 57001 333 55300 20000 91136 91228;
0149066090999992011010408004+46550+007017FM-12+197299999V0202301N007219999999N9999999N1-00751-01041999999ADDMA1999999079431MD1319999+9999ME1314449OA149901701REMSYN088AAXX  04084 06609 33/// /2314 11075 21104 37943 48444 53/// 333 55300 20004 91133 91223;
0112066090999992011010409004+46550+007017FM-12+197299999V0202401N007719999999N9999999N1-00721-01051999999ADDMA1999999079421ME1314429REMSYN076AAXX  04094 06609 33/// /2415 11072 21105 37942 48442 5//// 333 553// 20122;
0149066090999992011010410004+46550+007017FM-12+197299999V0202401N009319999999N9999999N1-00651-00971999999ADDMA1999999079421MD1210031+9999ME1314419OA149901341REMSYN088AAXX  04104 06609 33/// /2418 11065 21097 37942 48441 52003 333 55300 20576 91126 91219;
0149066090999992011010411004+46550+007017FM-12+197299999V0202401N010819999999N9999999N1-00611-00881999999ADDMA1999999079391MD1810041+9999ME1314379OA149901441REMSYN088AAXX  04114 06609 33/// /2421 11061 21088 37939 48437 58004 333 55304 20936 91128 91221;
0149066090999992011010412004+46550+007017FM-12+197299999V0202401N010819999999N9999999N1-00631-00801999999ADDMA1999999079351MD1710071+9999ME1314349OA149902421REMSYN088AAXX  04124 06609 33/// /2421 11063 21080 37935 48434 57007 333 55300 20594 91147 91232;
0149066090999992011010413004+46550+007017FM-12+197299999V0202401N009319999999N9999999N1-00621-00821999999ADDMA1999999079311MD1810111+9999ME1314299OA149901751REMSYN088AAXX  04134 06609 33/// /2418 11062 21082 37931 48429 58011 333 55301 20605 91134 91222;
0112066090999992011010414004+46550+007017FM-12+197299999V0202401N009319999999N9999999N1-00661-00821999999ADDMA1999999079291ME1314289REMSYN076AAXX  04144 06609 33/// /2418 11066 21082 37929 48428 5//// 333 553// 20428;
0096066090999992011010415004+46550+007017FM-12+197299999V0202401N010819999999N9999999N1-00621-00811999999ADDMA1999999079291ME1314279REMSYN060AAXX  04154 06609 43/// /2421 11062 21081 37929 48427 5////;
0149066090999992011010416004+46550+007017FM-12+197299999V0202501N009319999999N9999999N1-00671-00751999999ADDMA1999999079301MD1510011+9999ME1314299OA149901651REMSYN088AAXX  04164 06609 33/// /2518 11067 21075 37930 48429 55001 333 55300 20043 91132 91224;
0149066090999992011010417004+46550+007017FM-12+197299999V0202501N011319999999N9999999N1-00661-00791999999ADDMA1999999079291MD1010001+9999ME1314289OA149901491REMSYN088AAXX  04174 06609 33/// /2522 11066 21079 37929 48428 50000 333 55300 20000 91129 91222;
0168066090999992011010418004+46550+007017FM-12+197299999V0202501N011819999999N9999999N1-00701-00851999999ADDKA1120M-00601MA1999999079301MD1210011+9999ME1314309OA149901751REMSYN094AAXX  04184 06609 33/// /2523 11070 21085 37930 48430 52001 333 11060 55300 20000 91134 91224;
0149066090999992011010419004+46550+007017FM-12+197299999V0202401N011819999999N9999999N1-00661-00841999999ADDMA1999999079311MD1210011+9999ME1314309OA149901751REMSYN088AAXX  04194 06609 33/// /2423 11066 21084 37931 48430 52001 333 55300 20000 91134 91226;
0149066090999992011010420004+46550+007017FM-12+197299999V0202501N011819999999N9999999N1-00671-00841999999ADDMA1999999079281MD1810011+9999ME1314279OA149901751REMSYN088AAXX  04204 06609 33/// /2523 11067 21084 37928 48427 58001 333 55300 20000 91134 91226;
0149066090999992011010421004+46550+007017FM-12+197299999V0202501N009319999999N9999999N1-00731-00861999999ADDMA1999999079281MD1710021+9999ME1314299OA149901751REMSYN088AAXX  04214 06609 33/// /2518 11073 21086 37928 48429 57002 333 55300 20000 91134 91226;
0149066090999992011010422004+46550+007017FM-12+197299999V0202501N008719999999N9999999N1-00731-00841999999ADDMA1999999079291MD1510021+9999ME1314309OA149901441REMSYN088AAXX  04224 06609 33/// /2517 11073 21084 37929 48430 55002 333 55300 20000 91128 91221;
0149066090999992011010423004+46550+007017FM-12+197299999V0202501N009319999999N9999999N1-00811-00931999999ADDMA1999999079301MD1210021+9999ME1314329OA149901391REMSYN088AAXX  04234 06609 33/// /2518 11081 21093 37930 48432 52002 333 55300 20000 91127 91220;
0149066090999992011010500004+46550+007017FM-12+197299999V0202501N009819999999N9999999N1-00841-00961999999ADDMA1999999079281MD1010001+9999ME1314319OA149901751REMSYN088AAXX  05004 06609 33/// /2519 11084 21096 37928 48431 50000 333 55300 20000 91134 91226;
0149066090999992011010501004+46550+007017FM-12+197299999V0202501N008219999999N9999999N1-00831-00881999999ADDMA1999999079251MD1710041+9999ME1314289OA149901491REMSYN088AAXX  05014 06609 33/// /2516 11083 21088 37925 48428 57004 333 55300 20000 91129 91220;
0149066090999992011010502004+46550+007017FM-12+197299999V0202301N007719999999N9999999N1-00841-00911999999ADDMA1999999079251MD1710051+9999ME1314289OA149901491REMSYN088AAXX  05024 06609 33/// /2315 11084 21091 37925 48428 57005 333 55300 20000 91129 91220;
0096066090999992011010503004+46550+007017FM-12+197299999V0202301N008719999999N9999999N1-00781-00971999999ADDMA1999999079231ME1314259REMSYN060AAXX  05034 06609 43/// /2317 11078 21097 37923 48425 5////;
0149066090999992011010504004+46550+007017FM-12+197299999V0202501N012319999999N9999999N1-00681-01281999999ADDMA1999999079211MD1710041+9999ME1314219OA149901801REMSYN088AAXX  05044 06609 33/// /2524 11068 21128 37921 48421 57004 333 55300 20000 91135 91224;
0149066090999992011010505004+46550+007017FM-12+197299999V0202501N013919999999N9999999N1-00631-01511999999ADDMA1999999079201MD1710051+9999ME1314199OA149901901REMSYN088AAXX  05054 06609 33/// /2527 11063 21151 37920 48419 57005 333 55300 20000 91137 91229;
0198066090999992011010506004+46550+007017FM-12+197299999V0202501N010819999999N9999999N1-00651-01371999999ADDAL19900091GJ100309KA1999N-00851MA1999999079241MD1310011+9999ME1314239OA149901901REMSYN106AAXX  05064 06609 33/// /2521 11065 21137 37924 48423 53001 333 21085 55005 55300 20000 70000 91137 91229;
0149066090999992011010507004+46550+007017FM-12+197299999V0202401N011819999999N9999999N1-00591-01371999999ADDMA1999999079251MD1210041+9999ME1314239OA149901751REMSYN088AAXX  05074 06609 33/// /2423 11059 21137 37925 48423 52004 333 55300 20000 91134 91225;
0149066090999992011010508004+46550+007017FM-12+197299999V0202601N011819999999N9999999N1-00541-01351999999ADDMA1999999079281MD1219999+9999ME1314259OA149901601REMSYN088AAXX  05084 06609 33/// /2623 11054 21135 37928 48425 52/// 333 55305 20079 91131 91225;
0149066090999992011010509004+46550+007017FM-12+197299999V0202501N010319999999N9999999N1-00421-01341999999ADDMA1999999079311MD1210071+9999ME1314259OA149901901REMSYN088AAXX  05094 06609 33/// /2520 11042 21134 37931 48425 52007 333 553// 20529 91137 91229;
0149066090999992011010510004+46550+007017FM-12+197299999V0202301N008219999999N9999999N1-00331-01321999999ADDMA1999999079321MD1210071+9999ME1314249OA149901651REMSYN088AAXX  05104 06609 33/// /2316 11033 21132 37932 48424 52007 333 553// 20968 91132 91224;
0149066090999992011010511004+46550+007017FM-12+197299999V0202201N010319999999N9999999N1-00251-01261999999ADDMA1999999079291MD1010011+9999ME1314209OA149901541REMSYN088AAXX  05114 06609 33/// /2220 11025 21126 37929 48420 50001 333 553// 2//// 91130 91222;
0112066090999992011010512004+46550+007017FM-12+197299999V0202201N009319999999N9999999N1-00201-01291999999ADDMA1999999079271ME1314179REMSYN076AAXX  05124 06609 33/// /2218 11020 21129 37927 48417 5//// 333 553// 2////;
0149066090999992011010513004+46550+007017FM-12+197299999V0202501N009319999999N9999999N1-00351-01241999999ADDMA1999999079261MD1710061+9999ME1314199OA149901341REMSYN088AAXX  05134 06609 33/// /2518 11035 21124 37926 48419 57006 333 553// 2//// 91126 91220;
0096066090999992011010514004+46550+007017FM-12+197299999V0202201N012919999999N9999999N1-00241-01201999999ADDMA1999999079231ME1314139REMSYN060AAXX  05144 06609 43/// /2225 11024 21120 37923 48413 5////;
0096066090999992011010515004+46550+007017FM-12+197299999V0202201N012319999999N9999999N1-00301-01111999999ADDMA1999999079251ME1314179REMSYN060AAXX  05154 06609 43/// /2224 11030 21111 37925 48417 5////;
0149066090999992011010516004+46550+007017FM-12+197299999V0202201N012919999999N9999999N1-00301-01021999999ADDMA1999999079241MD1710021+9999ME1314169OA149901601REMSYN088AAXX  05164 06609 33/// /2225 11030 21102 37924 48416 57002 333 55300 20054 91131 91225;
0149066090999992011010517004+46550+007017FM-12+197299999V0202101N012319999999N9999999N1-00261-00791999999ADDMA1999999079231MD1010001+9999ME1314149OA149901701REMSYN088AAXX  05174 06609 33/// /2124 11026 21079 37923 48414 50000 333 55300 20000 91133 91228;
0168066090999992011010518004+46550+007017FM-12+197299999V0202301N013419999999N9999999N1-00281-00841999999ADDKA1120M-00201MA1999999079201MD1719999+9999ME1314119OA149901701REMSYN094AAXX  05184 06609 33/// /2326 11028 21084 37920 48411 57/// 333 11020 55300 20000 91133 91228;
0149066090999992011010519004+46550+007017FM-12+197299999V0202301N012319999999N9999999N1-00321-00841999999ADDMA1999999079191MD1710051+9999ME1314119OA149901651REMSYN088AAXX  05194 06609 33/// /2324 11032 21084 37919 48411 57005 333 55300 20000 91132 91228;
0149066090999992011010520004+46550+007017FM-12+197299999V0202301N014419999999N9999999N1-00251-00721999999ADDMA1999999079161MD1719999+9999ME1314069OA149901901REMSYN088AAXX  05204 06609 33/// /2328 11025 21072 37916 48406 57/// 333 55300 20000 91137 91228;
0112066090999992011010521004+46550+007017FM-12+197299999V0202201N016419999999N9999999N1-00161-00791999999ADDMA1999999079151ME1314039REMSYN076AAXX  05214 06609 33/// /2232 11016 21079 37915 48403 5//// 333 553// 20000;
0149066090999992011010522004+46550+007017FM-12+197299999V0202201N014419999999N9999999N1-00111-01031999999ADDMA1999999079161MD1510031+9999ME1314039OA149902211REMSYN088AAXX  05224 06609 33/// /2228 11011 21103 37916 48403 55003 333 55300 20000 91143 91234;
0149066090999992011010523004+46550+007017FM-12+197299999V0202201N013919999999N9999999N1-00091-01191999999ADDMA1999999079151MD1219999+9999ME1314029OA149902111REMSYN088AAXX  05234 06609 33/// /2227 11009 21119 37915 48402 52/// 333 55300 20000 91141 91229;
0096066090999992011010600004+46550+007017FM-12+197299999V0202201N015419999999N9999999N1-00041-01291999999ADDMA1999999079101ME1313969REMSYN060AAXX  06004 06609 43/// /2230 11004 21129 37910 48396 5////;
0096066090999992011010601004+46550+007017FM-12+197299999V0202301N014419999999N9999999N1-00011-01281999999ADDMA1999999079101ME1313959REMSYN060AAXX  06014 06609 43/// /2328 11001 21128 37910 48395 5////;
0096066090999992011010602004+46550+007017FM-12+197299999V0202201N014419999999N9999999N1-00041-01041999999ADDMA1999999079131ME1313999REMSYN060AAXX  06024 06609 43/// /2228 11004 21104 37913 48399 5////;
0096066090999992011010603004+46550+007017FM-12+197299999V0202201N017519999999N9999999N1-00321-00391999999ADDMA1999999079071ME1313999REMSYN060AAXX  06034 06609 43/// /2234 11032 21039 37907 48399 5////;
0096066090999992011010604004+46550+007017FM-12+197299999V0202401N017019999999N9999999N1-00071-00141999999ADDMA1999999079041ME1313909REMSYN060AAXX  06044 06609 43/// /2433 11007 21014 37904 48390 5////;
0096066090999992011010605004+46550+007017FM-12+197299999V0202401N015919999999N9999999N1-00041-00091999999ADDMA1999999079081ME1313949REMSYN060AAXX  06054 06609 43/// /2431 11004 21009 37908 48394 5////;
0125066090999992011010606004+46550+007017FM-12+197299999V0202301N014919999999N9999999N1-00051-00121999999ADDKA1999N-00341MA1999999079121ME1313989REMSYN076AAXX  06064 06609 43/// /2329 11005 21012 37912 48398 5//// 333 21034 55065;
0096066090999992011010607004+46550+007017FM-12+197299999V0202301N016419999999N9999999N1+00001-00131999999ADDMA1999999079091ME1313949REMSYN060AAXX  06074 06609 43/// /2332 10000 21013 37909 48394 5////;
0112066090999992011010608004+46550+007017FM-12+197299999V0202201N015919999999N9999999N1-00071-00111999999ADDMA1999999079151ME1314029REMSYN076AAXX  06084 06609 33/// /2231 11007 21011 37915 48402 5//// 333 553// 20040;
0096066090999992011010609004+46550+007017FM-12+197299999V0202201N017019999999N9999999N1-00031-00101999999ADDMA1999999079171ME1314039REMSYN060AAXX  06094 06609 43/// /2233 11003 21010 37917 48403 5////;
0149066090999992011010610004+46550+007017FM-12+197299999V0202201N017519999999N9999999N1+00021-00081999999ADDMA1999999079181MD1210091+9999ME1314039OA149902321REMSYN088AAXX  06104 06609 33/// /2234 10002 21008 37918 48403 52009 333 55300 20526 91145 91235;
0149066090999992011010611004+46550+007017FM-12+197299999V0202201N017019999999N9999999N1+00101-00081999999ADDMA1999999079201MD1210051+9999ME1314039OA149902321REMSYN088AAXX  06114 06609 33/// /2233 10010 21008 37920 48403 52005 333 55300 20331 91145 91235;
0149066090999992011010612004+46550+007017FM-12+197299999V0202201N015919999999N9999999N1+00151-00091999999ADDMA1999999079181MD1010011+9999ME1314009OA149902521REMSYN088AAXX  06124 06609 33/// /2231 10015 21009 37918 48400 50001 333 55301 20882 91149 91236;
0149066090999992011010613004+46550+007017FM-12+197299999V0202201N015419999999N9999999N1+00091-00051999999ADDMA1999999079181MD1510001+9999ME1314019OA149902471REMSYN088AAXX  06134 06609 33/// /2230 10009 21005 37918 48401 55000 333 55302 20724 91148 91234;
0096066090999992011010614004+46550+007017FM-12+197299999V0202301N016419999999N9999999N1+00091-00021999999ADDMA1999999079171ME1314009REMSYN060AAXX  06144 06609 43/// /2332 10009 21002 37917 48400 5////;
0096066090999992011010615004+46550+007017FM-12+197299999V0202301N018519999999N9999999N1+00101-00051999999ADDMA1999999079161ME1313999REMSYN060AAXX  06154 06609 43/// /2336 10010 21005 37916 48399 5////;
0149066090999992011010616004+46550+007017FM-12+197299999V0202301N017019999999N9999999N1+00131+00021999999ADDMA1999999079211MD1210031+9999ME1314039OA149902681REMSYN088AAXX  06164 06609 33/// /2333 10013 20002 37921 48403 52003 333 55300 20047 91152 91236;
0149066090999992011010617004+46550+007017FM-12+197299999V0202401N016419999999N9999999N1+00071+00031999999ADDMA1999999079251MD1210081+9999ME1314099OA149902681REMSYN088AAXX  06174 06609 33/// /2432 10007 20003 37925 48409 52008 333 55300 20000 91152 91235;
0168066090999992011010618004+46550+007017FM-12+197299999V0202501N015419999999N9999999N1+00111+00061999999ADDKA1120M+00171MA1999999079271MD1210111+9999ME1314109OA149902681REMSYN094AAXX  06184 06609 33/// /2530 10011 20006 37927 48410 52011 333 10017 55300 20000 91152 91236;
0149066090999992011010619004+46550+007017FM-12+197299999V0202401N013419999999N9999999N1+00131+00061999999ADDMA1999999079361MD1210151+9999ME1314199OA149902421REMSYN088AAXX  06194 06609 33/// /2426 10013 20006 37936 48419 52015 333 55300 20000 91147 91232;
0149066090999992011010620004+46550+007017FM-12+197299999V0202401N016419999999N9999999N1+00131+00071999999ADDMA1999999079331MD1219999+9999ME1314169OA149902881REMSYN088AAXX  06204 06609 33/// /2432 10013 20007 37933 48416 52/// 333 55300 20000 91156 91238;
0149066090999992011010621004+46550+007017FM-12+197299999V0202401N013919999999N9999999N1+00091+00051999999ADDMA1999999079421MD1219999+9999ME1314269OA149902991REMSYN088AAXX  06214 06609 33/// /2427 10009 20005 37942 48426 52/// 333 55300 20000 91158 91241;
0149066090999992011010622004+46550+007017FM-12+197299999V0202401N014419999999N9999999N1+00131+00081999999ADDMA1999999079451MD1310091+9999ME1314289OA149902991REMSYN088AAXX  06224 06609 33/// /2428 10013 20008 37945 48428 53009 333 55300 20000 91158 91241;
0112066090999992011010623004+46550+007017FM-12+197299999V0202301N014419999999N9999999N1+00141+00111999999ADDMA1999999079521ME1314359REMSYN076AAXX  06234 06609 33/// /2328 10014 20011 37952 48435 5//// 333 553// 20000;
0096066090999992011010700004+46550+007017FM-12+197299999V0202301N014919999999N9999999N1+00181+00131999999ADDMA1999999079531ME1314359REMSYN060AAXX  07004 06609 43/// /2329 10018 20013 37953 48435 5////;
0096066090999992011010701004+46550+007017FM-12+197299999V0202401N014419999999N9999999N1+00231+00161999999ADDMA1999999079531ME1314349REMSYN060AAXX  07014 06609 43/// /2428 10023 20016 37953 48434 5////;
0096066090999992011010702004+46550+007017FM-12+197299999V0202301N014919999999N9999999N1+00131+00101999999ADDMA1999999079591ME1314429REMSYN060AAXX  07024 06609 43/// /2329 10013 20010 37959 48442 5////;
0096066090999992011010703004+46550+007017FM-12+197299999V0202301N013919999999N9999999N1+00141+00121999999ADDMA1999999079591ME1314429REMSYN060AAXX  07034 06609 43/// /2327 10014 20012 37959 48442 5////;
0149066090999992011010704004+46550+007017FM-12+197299999V0202501N017519999999N9999999N1+00211+00131999999ADDMA1999999079561MD1010031+9999ME1314389OA149902321REMSYN088AAXX  07044 06609 33/// /2534 10021 20013 37956 48438 50003 333 55300 20000 91145 91234;
0149066090999992011010705004+46550+007017FM-12+197299999V0202201N015419999999N9999999N1+00261+00101999999ADDMA1999999079561MD1710031+9999ME1314379OA149902571REMSYN088AAXX  07054 06609 33/// /2230 10026 20010 37956 48437 57003 333 55300 20000 91150 91234;
0198066090999992011010706004+46550+007017FM-12+197299999V0202201N013919999999N9999999N1+00371+00011999999ADDAL19900091GJ100189KA1999N+00081MA1999999079581MD1710011+9999ME1314379OA149902991REMSYN106AAXX  07064 06609 33/// /2227 10037 20001 37958 48437 57001 333 20008 55003 55300 20000 70000 91158 91241;
0149066090999992011010707004+46550+007017FM-12+197299999V0202201N011819999999N9999999N1+00421-00061999999ADDMA1999999079631MD1210071+9999ME1314419OA149902011REMSYN088AAXX  07074 06609 33/// /2223 10042 21006 37963 48441 52007 333 55300 20000 91139 91229;
0112066090999992011010708004+46550+007017FM-12+197299999V0202201N014919999999N9999999N1+00501-00111999999ADDMA1999999079651ME1314419REMSYN076AAXX  07084 06609 33/// /2229 10050 21011 37965 48441 5//// 333 553// 20029;
0096066090999992011010709004+46550+007017FM-12+197299999V0202301N011819999999N9999999N1+00501-00051999999ADDMA1999999079711ME1314489REMSYN060AAXX  07094 06609 43/// /2323 10050 21005 37971 48448 5////;
0149066090999992011010710004+46550+007017FM-12+197299999V0202201N012919999999N9999999N1+00491-00051999999ADDMA1999999079711MD1210081+9999ME1314489OA149902111REMSYN088AAXX  07104 06609 33/// /2225 10049 21005 37971 48448 52008 333 553// 20803 91141 91230;
0149066090999992011010711004+46550+007017FM-12+197299999V0202301N012319999999N9999999N1+00531-00031999999ADDMA1999999079721MD1210071+9999ME1314489OA149901961REMSYN088AAXX  07114 06609 33/// /2324 10053 21003 37972 48448 52007 333 553// 2//// 91138 91228;
0149066090999992011010712004+46550+007017FM-12+197299999V0202201N010819999999N9999999N1+00461+00051999999ADDMA1999999079711MD1510001+9999ME1314489OA149902571REMSYN088AAXX  07124 06609 33/// /2221 10046 20005 37971 48448 55000 333 553// 2//// 91150 91234;
0149066090999992011010713004+46550+007017FM-12+197299999V0202101N011319999999N9999999N1+00521+00031999999ADDMA1999999079691MD1810021+9999ME1314459OA149901901REMSYN088AAXX  07134 06609 33/// /2122 10052 20003 37969 48445 58002 333 55309 2//// 91137 91231;
0096066090999992011010714004+46550+007017FM-12+197299999V0202201N009319999999N9999999N1+00481-00021999999ADDMA1999999079751ME1314529REMSYN060AAXX  07144 06609 43/// /2218 10048 21002 37975 48452 5////;
0096066090999992011010715004+46550+007017FM-12+197299999V0202201N010819999999N9999999N1+00471-00081999999ADDMA1999999079761ME1314539REMSYN060AAXX  07154 06609 43/// /2221 10047 21008 37976 48453 5////;
0149066090999992011010716004+46550+007017FM-12+197299999V0202201N011819999999N9999999N1+00471-00111999999ADDMA1999999079771MD1210081+9999ME1314549OA149901851REMSYN088AAXX  07164 06609 33/// /2223 10047 21011 37977 48454 52008 333 55300 20018 91136 91224;
0149066090999992011010717004+46550+007017FM-12+197299999V0202201N009319999999N9999999N1+00461-00151999999ADDMA1999999079791MD1210041+9999ME1314579OA149901851REMSYN088AAXX  07174 06609 33/// /2218 10046 21015 37979 48457 52004 333 55300 20000 91136 91224;
0131066090999992011010718004+46550+007017FM-12+197299999V0202201N008719999999N9999999N1+00411-00191999999ADDKA1120M+00551MA1999999079791ME1314589REMSYN082AAXX  07184 06609 33/// /2217 10041 21019 37979 48458 5//// 333 10055 553// 20000;
0149066090999992011010719004+46550+007017FM-12+197299999V0202101N010819999999N9999999N1+00401-00171999999ADDMA1999999079731MD1819999+9999ME1314529OA149901291REMSYN088AAXX  07194 06609 33/// /2121 10040 21017 37973 48452 58/// 333 55300 20000 91125 91221;
0096066090999992011010720004+46550+007017FM-12+197299999V0202101N009319999999N9999999N1+00441-00261999999ADDMA1999999079731ME1314519REMSYN060AAXX  07204 06609 43/// /2118 10044 21026 37973 48451 5////;
0096066090999992011010721004+46550+007017FM-12+197299999V0202101N009819999999N9999999N1+00371-00321999999ADDMA1999999079741ME1314539REMSYN060AAXX  07214 06609 43/// /2119 10037 21032 37974 48453 5////;
0149066090999992011010722004+46550+007017FM-12+197299999V0202201N007719999999N9999999N1+00351-00331999999ADDMA1999999079761MD1310031+9999ME1314569OA149901241REMSYN088AAXX  07224 06609 33/// /2215 10035 21033 37976 48456 53003 333 55300 20000 91124 91220;
0112066090999992011010723004+46550+007017FM-12+197299999V0202301N009319999999N9999999N1+00311-00331999999ADDMA1999999079791ME1314609REMSYN076AAXX  07234 06609 33/// /2318 10031 21033 37979 48460 5//// 333 553// 20000;
0112066090999992011010800004+46550+007017FM-12+197299999V0202201N008219999999N9999999N1+00371-00231999999ADDMA1999999079771ME1314569REMSYN076AAXX  08004 06609 33/// /2216 10037 21023 37977 48456 5//// 333 553// 20000;
0096066090999992011010801004+46550+007017FM-12+197299999V0202201N008719999999N9999999N1+00301-00221999999ADDMA1999999079731ME1314549REMSYN060AAXX  08014 06609 43/// /2217 10030 21022 37973 48454 5////;
0096066090999992011010802004+46550+007017FM-12+197299999V0202101N012319999999N9999999N1+00181-00131999999ADDMA1999999079691ME1314529REMSYN060AAXX  08024 06609 43/// /2124 10018 21013 37969 48452 5////;
0096066090999992011010803004+46550+007017FM-12+197299999V0202201N011319999999N9999999N1+00291-00201999999ADDMA1999999079711ME1314529REMSYN060AAXX  08034 06609 43/// /2222 10029 21020 37971 48452 5////;
0096066090999992011010804004+46550+007017FM-12+197299999V0202501N011319999999N9999999N1+00071+00021999999ADDMA1999999079731ME1314589REMSYN060AAXX  08044 06609 43/// /2522 10007 20002 37973 48458 5////;
0096066090999992011010805004+46550+007017FM-12+197299999V0202301N010819999999N9999999N1+00071+00041999999ADDMA1999999079741ME1314599REMSYN060AAXX  08054 06609 43/// /2321 10007 20004 37974 48459 5////;
0125066090999992011010806004+46550+007017FM-12+197299999V0202301N011819999999N9999999N1+00111+00021999999ADDKA1999N+00021MA1999999079721ME1314569REMSYN076AAXX  08064 06609 43/// /2323 10011 20002 37972 48456 5//// 333 20002 55047;
0096066090999992011010807004+46550+007017FM-12+197299999V0202401N010819999999N9999999N1+00161-00021999999ADDMA1999999079771ME1314609REMSYN060AAXX  08074 06609 43/// /2421 10016 21002 37977 48460 5////;
0112066090999992011010808004+46550+007017FM-12+197299999V0202401N011819999999N9999999N1+00191-00111999999ADDMA1999999079781ME1314619REMSYN076AAXX  08084 06609 33/// /2423 10019 21011 37978 48461 5//// 333 553// 20029;
0096066090999992011010809004+46550+007017FM-12+197299999V0202301N009819999999N9999999N1+00211-00111999999ADDMA1999999079821ME1314659REMSYN060AAXX  08094 06609 43/// /2319 10021 21011 37982 48465 5////;
0096066090999992011010810004+46550+007017FM-12+197299999V0202301N009319999999N9999999N1+00261-00131999999ADDMA1999999079861ME1314689REMSYN060AAXX  08104 06609 43/// /2318 10026 21013 37986 48468 5////;
0096066090999992011010811004+46550+007017FM-12+197299999V0202201N012319999999N9999999N1+00301-00201999999ADDMA1999999079841ME1314659REMSYN060AAXX  08114 06609 43/// /2224 10030 21020 37984 48465 5////;
0096066090999992011010812004+46550+007017FM-12+197299999V0202201N011319999999N9999999N1+00341-00261999999ADDMA1999999079811ME1314619REMSYN060AAXX  08124 06609 43/// /2222 10034 21026 37981 48461 5////;
0096066090999992011010813004+46550+007017FM-12+197299999V0202201N009819999999N9999999N1+00371-00261999999ADDMA1999999079801ME1314599REMSYN060AAXX  08134 06609 43/// /2219 10037 21026 37980 48459 5////;
0096066090999992011010814004+46550+007017FM-12+197299999V0202201N009319999999N9999999N1+00371-00331999999ADDMA1999999079791ME1314589REMSYN060AAXX  08144 06609 43/// /2218 10037 21033 37979 48458 5////;
0096066090999992011010815004+46550+007017FM-12+197299999V0202301N010819999999N9999999N1+00331-00391999999ADDMA1999999079811ME1314619REMSYN060AAXX  08154 06609 43/// /2321 10033 21039 37981 48461 5////;
0096066090999992011010816004+46550+007017FM-12+197299999V0202101N010319999999N9999999N1+00271-00421999999ADDMA1999999079811ME1314629REMSYN060AAXX  08164 06609 43/// /2120 10027 21042 37981 48462 5////;
0096066090999992011010817004+46550+007017FM-12+197299999V0202301N009319999999N9999999N1+00311-00501999999ADDMA1999999079791ME1314609REMSYN060AAXX  08174 06609 43/// /2318 10031 21050 37979 48460 5////;
0096066090999992011010818004+46550+007017FM-12+197299999V0202101N008219999999N9999999N1+00261-00481999999ADDMA1999999079781ME1314599REMSYN060AAXX  08184 06609 43/// /2116 10026 21048 37978 48459 5////;
0096066090999992011010819004+46550+007017FM-12+197299999V0202101N008719999999N9999999N1+00301-00661999999ADDMA1999999079761ME1314579REMSYN060AAXX  08194 06609 43/// /2117 10030 21066 37976 48457 5////;
0096066090999992011010820004+46550+007017FM-12+197299999V0202201N010819999999N9999999N1+00381-00831999999ADDMA1999999079741ME1314539REMSYN060AAXX  08204 06609 43/// /2221 10038 21083 37974 48453 5////;
0096066090999992011010821004+46550+007017FM-12+197299999V0202201N010819999999N9999999N1+00391-00891999999ADDMA1999999079741ME1314539REMSYN060AAXX  08214 06609 43/// /2221 10039 21089 37974 48453 5////;
0096066090999992011010822004+46550+007017FM-12+197299999V0202201N010819999999N9999999N1+00431-00951999999ADDMA1999999079721ME1314509REMSYN060AAXX  08224 06609 43/// /2221 10043 21095 37972 48450 5////;
0096066090999992011010823004+46550+007017FM-12+197299999V0202101N010319999999N9999999N1+00381-00871999999ADDMA1999999079741ME1314539REMSYN060AAXX  08234 06609 43/// /2120 10038 21087 37974 48453 5////;
0096066090999992011010900004+46550+007017FM-12+197299999V0202101N012319999999N9999999N1+00361-00841999999ADDMA1999999079731ME1314529REMSYN060AAXX  09004 06609 43/// /2124 10036 21084 37973 48452 5////;
0096066090999992011010901004+46550+007017FM-12+197299999V0202101N010319999999N9999999N1+00351-00881999999ADDMA1999999079711ME1314509REMSYN060AAXX  09014 06609 43/// /2120 10035 21088 37971 48450 5////;
0096066090999992011010902004+46550+007017FM-12+197299999V0202101N007219999999N9999999N1+00351-00941999999ADDMA1999999079721ME1314529REMSYN060AAXX  09024 06609 43/// /2114 10035 21094 37972 48452 5////;
0096066090999992011010903004+46550+007017FM-12+197299999V0202201N006719999999N9999999N1+00181-00821999999ADDMA1999999079691ME1314529REMSYN060AAXX  09034 06609 43/// /2213 10018 21082 37969 48452 5////;
0096066090999992011010904004+46550+007017FM-12+197299999V0202201N009819999999N9999999N1+00281-00921999999ADDMA1999999079651ME1314469REMSYN060AAXX  09044 06609 43/// /2219 10028 21092 37965 48446 5////;
0096066090999992011010905004+46550+007017FM-12+197299999V0202101N007719999999N9999999N1+00281-00891999999ADDMA1999999079631ME1314449REMSYN060AAXX  09054 06609 43/// /2115 10028 21089 37963 48444 5////;
0106066090999992011010906004+46550+007017FM-12+197299999V0202201N008219999999N9999999N1+00201-00841999999ADDMA1999999079631ME1314459REMSYN070AAXX  09064 06609 43/// /2216 10020 21084 37963 48445 5//// 333 55069;
0096066090999992011010907004+46550+007017FM-12+197299999V0202401N010319999999N9999999N1+00071-00671999999ADDMA1999999079631ME1314489REMSYN060AAXX  09074 06609 43/// /2420 10007 21067 37963 48448 5////;
0112066090999992011010908004+46550+007017FM-12+197299999V0202201N015419999999N9999999N1+00081-00601999999ADDMA1999999079641ME1314499REMSYN076AAXX  09084 06609 33/// /2230 10008 21060 37964 48449 5//// 333 553// 20040;
0112066090999992011010909004+46550+007017FM-12+197299999V0202201N014919999999N9999999N1+00021-00371999999ADDMA1999999079641ME1314509REMSYN076AAXX  09094 06609 33/// /2229 10002 21037 37964 48450 5//// 333 553// 20097;
0149066090999992011010910004+46550+007017FM-12+197299999V0202101N012919999999N9999999N1+00051-00371999999ADDMA1999999079691MD1210061+9999ME1314549OA149902321REMSYN088AAXX  09104 06609 33/// /2125 10005 21037 37969 48454 52006 333 55300 20259 91145 91229;
0149066090999992011010911004+46550+007017FM-12+197299999V0202201N012919999999N9999999N1+00001-00311999999ADDMA1999999079691MD1210051+9999ME1314559OA149902211REMSYN088AAXX  09114 06609 33/// /2225 10000 21031 37969 48455 52005 333 55300 20292 91143 91229;
0168066090999992011010912004+46550+007017FM-12+197299999V0202201N011319999999N9999999N1+00031-00201999999ADDMA1999999079641MD1410001+9999ME1314509OA149902321REMSYN088AAXX  09124 06609 33/// /2222 10003 21020 37964 48450 58000 333 55300 20382 91145 91232;EQDQ01+000082APCTEN
0149066090999992011010913004+46550+007017FM-12+197299999V0202201N012319999999N9999999N1-00011-00171999999ADDMA1999999079631MD1710061+9999ME1314499OA149901801REMSYN088AAXX  09134 06609 33/// /2224 11001 21017 37963 48449 57006 333 55300 20486 91135 91225;
0096066090999992011010914004+46550+007017FM-12+197299999V0202501N009319999999N9999999N1-00041-00111999999ADDMA1999999079661ME1314539REMSYN060AAXX  09144 06609 43/// /2518 11004 21011 37966 48453 5////;
0096066090999992011010915004+46550+007017FM-12+197299999V0202701N010319999999N9999999N1-00121-00121999999ADDMA1999999079701ME1314599REMSYN060AAXX  09154 06609 43/// /2720 11012 21012 37970 48459 5////;
0155066090999992011010916004+46550+007017FM-12+197299999V0202601N010319999999N9999999N1-00071-00141999999ADDMA1999999079731MD1210101+9999ME1314619OA149901701REMSYN094AAXX  09164 06609 23/// /2620 11007 21014 37973 48461 52010 333 55300 20014 69965 91133 91221;
0155066090999992011010917004+46550+007017FM-12+197299999V0202501N010319999999N9999999N1-00071-00081999999ADDMA1999999079761MD1210101+9999ME1314649OA149901701REMSYN094AAXX  09174 06609 23/// /2520 11007 21008 37976 48464 52010 333 55300 20000 69915 91133 91223;
0191066090999992011010918004+46550+007017FM-12+197299999V0202801N004619999999N9999999N1-00141-00161999999ADDAA112002091KA1120M+00221MA1999999079811MD1210111+9999ME1314709OA149902321REMSYN106AAXX  09184 06609 03/// /2809 11014 21016 37981 48470 52011 60022 333 10022 55300 20000 69995 91145 91232;
0155066090999992011010919004+46550+007017FM-12+197299999V0202701N007219999999N9999999N1-00121-00141999999ADDMA1999999079821MD1210091+9999ME1314719OA149901341REMSYN094AAXX  09194 06609 23/// /2714 11012 21014 37982 48471 52009 333 55300 20000 69945 91126 91216;
0155066090999992011010920004+46550+007017FM-12+197299999V0203001N007219999999N9999999N1-00171-00201999999ADDMA1999999079831MD1210071+9999ME1314739OA149901181REMSYN094AAXX  09204 06609 23/// /3014 11017 21020 37983 48473 52007 333 55300 20000 69935 91123 91216;
0155066090999992011010921004+46550+007017FM-12+197299999V0202801N004119999999N9999999N1-00141-00161999999ADDMA1999999079861MD1210051+9999ME1314759OA149901701REMSYN094AAXX  09214 06609 23/// /2808 11014 21016 37986 48475 52005 333 55300 20000 60015 91133 91223;
0155066090999992011010922004+46550+007017FM-12+197299999V0202901N003619999999N9999999N1-00181-00201999999ADDMA1999999079891MD1110071+9999ME1314799OA149900881REMSYN094AAXX  09224 06609 23/// /2907 11018 21020 37989 48479 51007 333 55300 20000 69955 91117 91210;
0155066090999992011010923004+46550+007017FM-12+197299999V0202601N005119999999N9999999N1-00181-00231999999ADDMA1999999079901MD1210071+9999ME1314809OA149900821REMSYN094AAXX  09234 06609 23/// /2610 11018 21023 37990 48480 52007 333 55300 20000 69945 91116 91210;
0172066090999992011011000004+46550+007017FM-12+197299999V0202701N004619999999N9999999N1-00181-00241999999ADDAA106003091MA1999999079901MD1210041+9999ME1314809OA149901701REMSYN100AAXX  10004 06609 03/// /2709 11018 21024 37990 48480 52004 60031 333 55300 20000 60005 91133 91224;
0155066090999992011011001004+46550+007017FM-12+197299999V0202701N004119999999N9999999N1-00211-00241999999ADDMA1999999079921MD1210031+9999ME1314839OA149900821REMSYN094AAXX  10014 06609 23/// /2708 11021 21024 37992 48483 52003 333 55300 20000 69925 91116 91209;
0118066090999992011011002004+46550+007017FM-12+197299999V0202701N003619999999N9999999N1-00231-00251999999ADDMA1999999079921ME1314839REMSYN082AAXX  10024 06609 23/// /2707 11023 21025 37992 48483 5//// 333 553// 20000 69915;
0096066090999992011011003004+46550+007017FM-12+197299999V0202801N003119999999N9999999N1-00251-00301999999ADDMA1999999079921ME1314839REMSYN060AAXX  10034 06609 43/// /2806 11025 21030 37992 48483 5////;
0118066090999992011011004004+46550+007017FM-12+197299999V0202701N002119999999N9999999N1-00281-00331999999ADDMA1999999079911ME1314839REMSYN082AAXX  10044 06609 23/// /2704 11028 21033 37991 48483 5//// 333 553// 20000 69925;
0149066090999992011011005004+46550+007017FM-12+197299999V0202701N001519999999N9999999N1-00291-00321999999ADDMA1999999079891MD1619999+9999ME1314819OA149900361REMSYN088AAXX  10054 06609 33/// /2703 11029 21032 37989 48481 56/// 333 55300 20000 91107 91205;
0150066090999992011011006004+46550+007017FM-12+197299999V0202301N000519999999N9999999N1-00321-00321999999ADDAA124005691GJ100009KA1999N-00331MA1999999079901ME1314839REMSYN082AAXX  10064 06609 43/// /2301 11032 21032 37990 48483 5//// 333 21033 55000 70056;
0149066090999992011011007004+46550+007017FM-12+197299999V0201501N001019999999N9999999N1-00301-00311999999ADDMA1999999079921MD1310011+9999ME1314849OA149900261REMSYN088AAXX  10074 06609 33/// /1502 11030 21031 37992 48484 53001 333 55300 20000 91105 91203;
0096066090999992011011008004+46550+007017FM-12+197299999V0201701N002119999999N9999999N1-00291-00311999999ADDMA1999999079941ME1314869REMSYN060AAXX  10084 06609 43/// /1704 11029 21031 37994 48486 5////;
0096066090999992011011009004+46550+007017FM-12+197299999V0202301N000519999999N9999999N1-00321-00321999999ADDMA1999999079941ME1314879REMSYN060AAXX  10094 06609 43/// /2301 11032 21032 37994 48487 5////;
0149066090999992011011010004+46550+007017FM-12+197299999V0202501N000519999999N9999999N1-00321-00321999999ADDMA1999999079961MD1110041+9999ME1314899OA149900261REMSYN088AAXX  10104 06609 33/// /2501 11032 21032 37996 48489 51004 333 55300 20454 91105 91204;
0149066090999992011011011004+46550+007017FM-12+197299999V0202701N001519999999N9999999N1-00271-00301999999ADDMA1999999079941MD1019999+9999ME1314869OA149900261REMSYN088AAXX  10114 06609 33/// /2703 11027 21030 37994 48486 50/// 333 55300 20529 91105 91205;
0154066090999992011011012004+46550+007017FM-12+197299999V0202301N001519999999N9999999N1-00291-00291999999ADDAA106000091MA1999999079891ME1314819REMSYN088AAXX  10124 06609 03/// /2303 11029 21029 37989 48481 5//// 69911 333 553// 20886 69915;EQDQ01  00002PRCP06
0096066090999992011011013004+46550+007017FM-12+197299999V0201701N003619999999N9999999N1-00231-00231999999ADDMA1999999079831ME1314749REMSYN060AAXX  10134 06609 43/// /1707 11023 21023 37983 48474 5////;
0096066090999992011011014004+46550+007017FM-12+197299999V0201901N002619999999N9999999N1-00121-00301999999ADDMA1999999079801ME1314699REMSYN060AAXX  10144 06609 43/// /1905 11012 21030 37980 48469 5////;
0096066090999992011011015004+46550+007017FM-12+197299999V0202301N001519999999N9999999N1-00161-00411999999ADDMA1999999079801ME1314709REMSYN060AAXX  10154 06609 43/// /2303 11016 21041 37980 48470 5////;
0096066090999992011011016004+46550+007017FM-12+197299999V0202401N001019999999N9999999N1-00131-00551999999ADDMA1999999079771ME1314669REMSYN060AAXX  10164 06609 43/// /2402 11013 21055 37977 48466 5////;
0096066090999992011011017004+46550+007017FM-12+197299999V0202601N001519999999N9999999N1-00211-00461999999ADDMA1999999079761ME1314669REMSYN060AAXX  10174 06609 43/// /2603 11021 21046 37976 48466 5////;
0119066090999992011011018004+46550+007017FM-12+197299999V0202601N001519999999N9999999N1-00151-00571999999ADDKA1999M-00071MA1999999079741ME1314639REMSYN070AAXX  10184 06609 43/// /2603 11015 21057 37974 48463 5//// 333 11007;
0096066090999992011011019004+46550+007017FM-12+197299999V0201901N004619999999N9999999N1-00191-00521999999ADDMA1999999079731ME1314639REMSYN060AAXX  10194 06609 43/// /1909 11019 21052 37973 48463 5////;
0096066090999992011011020004+46550+007017FM-12+197299999V0202201N005119999999N9999999N1-00171-00571999999ADDMA1999999079721ME1314629REMSYN060AAXX  10204 06609 43/// /2210 11017 21057 37972 48462 5////;
0096066090999992011011021004+46550+007017FM-12+197299999V0202301N007219999999N9999999N1-00161-00601999999ADDMA1999999079701ME1314599REMSYN060AAXX  10214 06609 43/// /2314 11016 21060 37970 48459 5////;
0096066090999992011011022004+46550+007017FM-12+197299999V0202301N005719999999N9999999N1-00201-00601999999ADDMA1999999079701ME1314609REMSYN060AAXX  10224 06609 43/// /2311 11020 21060 37970 48460 5////;
0096066090999992011011023004+46550+007017FM-12+197299999V0202301N008219999999N9999999N1-00181-00601999999ADDMA1999999079671ME1314579REMSYN060AAXX  10234 06609 43/// /2316 11018 21060 37967 48457 5////;
0096066090999992011011100004+46550+007017FM-12+197299999V0202301N007719999999N9999999N1-00191-00611999999ADDMA1999999079621ME1314529REMSYN060AAXX  11004 06609 43/// /2315 11019 21061 37962 48452 5////;
0096066090999992011011101004+46550+007017FM-12+197299999V0202301N008219999999N9999999N1-00251-00671999999ADDMA1999999079571ME1314489REMSYN060AAXX  11014 06609 43/// /2316 11025 21067 37957 48448 5////;
0096066090999992011011102004+46550+007017FM-12+197299999V0202401N009319999999N9999999N1-00201-00761999999ADDMA1999999079541ME1314449REMSYN060AAXX  11024 06609 43/// /2418 11020 21076 37954 48444 5////;
0096066090999992011011103004+46550+007017FM-12+197299999V0202301N008719999999N9999999N1-00201-00801999999ADDMA1999999079511ME1314419REMSYN060AAXX  11034 06609 43/// /2317 11020 21080 37951 48441 5////;
0096066090999992011011104004+46550+007017FM-12+197299999V0202301N010819999999N9999999N1-00251-00781999999ADDMA1999999079451ME1314369REMSYN060AAXX  11044 06609 43/// /2321 11025 21078 37945 48436 5////;
0096066090999992011011105004+46550+007017FM-12+197299999V0202301N010319999999N9999999N1-00271-00731999999ADDMA1999999079421ME1314339REMSYN060AAXX  11054 06609 43/// /2320 11027 21073 37942 48433 5////;
0106066090999992011011106004+46550+007017FM-12+197299999V0202301N012919999999N9999999N1-00251-00841999999ADDMA1999999079371ME1314289REMSYN070AAXX  11064 06609 43/// /2325 11025 21084 37937 48428 5//// 333 55031;
0149066090999992011011107004+46550+007017FM-12+197299999V0202401N012319999999N9999999N1-00211-01081999999ADDMA1999999079341MD1719999+9999ME1314249OA149901901REMSYN088AAXX  11074 06609 33/// /2424 11021 21108 37934 48424 57/// 333 55300 20000 91137 91227;
0112066090999992011011108004+46550+007017FM-12+197299999V0202301N010819999999N9999999N1-00171-01261999999ADDMA1999999079341ME1314239REMSYN076AAXX  11084 06609 33/// /2321 11017 21126 37934 48423 5//// 333 553// 20104;
0096066090999992011011109004+46550+007017FM-12+197299999V0202301N012319999999N9999999N1-00091-01841999999ADDMA1999999079321ME1314199REMSYN060AAXX  11094 06609 43/// /2324 11009 21184 37932 48419 5////;
0149066090999992011011110004+46550+007017FM-12+197299999V0202201N012919999999N9999999N1-00131-01581999999ADDMA1999999079311MD1710031+9999ME1314199OA149901701REMSYN088AAXX  11104 06609 33/// /2225 11013 21158 37931 48419 57003 333 55303 20698 91133 91226;
0149066090999992011011111004+46550+007017FM-12+197299999V0202301N012919999999N9999999N1-00171-01531999999ADDMA1999999079241MD1710101+9999ME1314139OA149901901REMSYN088AAXX  11114 06609 33/// /2325 11017 21153 37924 48413 57010 333 55300 20583 91137 91226;
0112066090999992011011112004+46550+007017FM-12+197299999V0202201N014419999999N9999999N1-00431-00731999999ADDMA1999999079151ME1314099REMSYN076AAXX  11124 06609 33/// /2228 11043 21073 37915 48409 5//// 333 553// 20400;
0149066090999992011011113004+46550+007017FM-12+197299999V0202201N014919999999N9999999N1-00451-00551999999ADDMA1999999079111MD1710201+9999ME1314069OA149902211REMSYN088AAXX  11134 06609 33/// /2229 11045 21055 37911 48406 57020 333 55300 20403 91143 91230;
0096066090999992011011114004+46550+007017FM-12+197299999V0202501N015419999999N9999999N1-00291-00291999999ADDMA1999999079111ME1314029REMSYN060AAXX  11144 06609 43/// /2530 11029 21029 37911 48402 5////;
0096066090999992011011115004+46550+007017FM-12+197299999V0202601N016419999999N9999999N1-00241-00241999999ADDMA1999999079181ME1314089REMSYN060AAXX  11154 06609 43/// /2632 11024 21024 37918 48408 5////;
0149066090999992011011116004+46550+007017FM-12+197299999V0202601N010819999999N9999999N1-00181-00181999999ADDMA1999999079331MD1210221+9999ME1314229OA149902261REMSYN088AAXX  11164 06609 33/// /2621 11018 21018 37933 48422 52022 333 55300 20130 91144 91234;
0149066090999992011011117004+46550+007017FM-12+197299999V0202801N008219999999N9999999N1-00231-00231999999ADDMA1999999079401MD1110301+9999ME1314309OA149902261REMSYN088AAXX  11174 06609 33/// /2816 11023 21023 37940 48430 51030 333 55300 20000 91144 91232;
0168066090999992011011118004+46550+007017FM-12+197299999V0202601N007719999999N9999999N1-00301-00321999999ADDKA1120M-00081MA1999999079481MD1210301+9999ME1314409OA149902261REMSYN094AAXX  11184 06609 33/// /2615 11030 21032 37948 48440 52030 333 11008 55300 20000 91144 91234;
0149066090999992011011119004+46550+007017FM-12+197299999V0203101N008719999999N9999999N1-00301-00301999999ADDMA1999999079551MD1210221+9999ME1314479OA149901491REMSYN088AAXX  11194 06609 33/// /3117 11030 21030 37955 48447 52022 333 55300 20000 91129 91219;
0155066090999992011011120004+46550+007017FM-12+197299999V0203101N008719999999N9999999N1-00371-00551999999ADDMA1999999079631MD1210231+9999ME1314569OA149901541REMSYN094AAXX  11204 06609 23/// /3117 11037 21055 37963 48456 52023 333 55300 20000 69925 91130 91217;
0155066090999992011011121004+46550+007017FM-12+197299999V0203001N007219999999N9999999N1-00311-00311999999ADDMA1999999079711MD1110231+9999ME1314639OA149902261REMSYN094AAXX  11214 06609 23/// /3014 11031 21031 37971 48463 51023 333 55300 20000 69925 91144 91232;
0149066090999992011011122004+46550+007017FM-12+197299999V0203101N006719999999N9999999N1-00421-00471999999ADDMA1999999079811MD1310261+9999ME1314769OA149901291REMSYN088AAXX  11224 06609 33/// /3113 11042 21047 37981 48476 53026 333 55300 20000 91125 91218;
0149066090999992011011123004+46550+007017FM-12+197299999V0202901N005119999999N9999999N1-00391-00451999999ADDMA1999999079851MD1110221+9999ME1314799OA149900931REMSYN088AAXX  11234 06609 33/// /2910 11039 21045 37985 48479 51022 333 55300 20000 91118 91215;
0172066090999992011011200004+46550+007017FM-12+197299999V0203001N005119999999N9999999N1-00391-00421999999ADDAA106000591MA1999999079891MD1110181+9999ME1314839OA149902261REMSYN100AAXX  12004 06609 03/// /3010 11039 21042 37989 48483 51018 69941 333 55300 20000 60005 91144 91234;
0149066090999992011011201004+46550+007017FM-12+197299999V0203001N006219999999N9999999N1-00341-00411999999ADDMA1999999079931MD1110121+9999ME1314869OA149900771REMSYN088AAXX  12014 06609 33/// /3012 11034 21041 37993 48486 51012 333 55300 20000 91115 91212;
0112066090999992011011202004+46550+007017FM-12+197299999V0202901N008719999999N9999999N1-00341-00421999999ADDMA1999999079981ME1314919REMSYN076AAXX  12024 06609 33/// /2917 11034 21042 37998 48491 5//// 333 553// 20000;
0096066090999992011011203004+46550+007017FM-12+197299999V0202801N005719999999N9999999N1-00361-00431999999ADDMA1999999080051ME1314989REMSYN060AAXX  12034 06609 43/// /2811 11036 21043 38005 48498 5////;
0096066090999992011011204004+46550+007017FM-12+197299999V0202701N006719999999N9999999N1-00351-00421999999ADDMA1999999080071ME1315009REMSYN060AAXX  12044 06609 43/// /2713 11035 21042 38007 48500 5////;
0112066090999992011011205004+46550+007017FM-12+197299999V0202801N005119999999N9999999N1-00361-00411999999ADDMA1999999080121ME1315059REMSYN076AAXX  12054 06609 33/// /2810 11036 21041 38012 48505 5//// 333 553// 20000;
0150066090999992011011206004+46550+007017FM-12+197299999V0202401N006219999999N9999999N1-00381-00451999999ADDAA124000591GJ101149KA1999N-00441MA1999999080161ME1315109REMSYN082AAXX  12064 06609 43/// /2412 11038 21045 38016 48510 5//// 333 21044 55019 70004;
0149066090999992011011207004+46550+007017FM-12+197299999V0202401N007719999999N9999999N1-00421-00501999999ADDMA1999999080161MD1210091+9999ME1315109OA149901181REMSYN088AAXX  12074 06609 33/// /2415 11042 21050 38016 48510 52009 333 55300 20000 91123 91216;
0096066090999992011011208004+46550+007017FM-12+197299999V0202301N007219999999N9999999N1-00431-00491999999ADDMA1999999080181ME1315139REMSYN060AAXX  12084 06609 43/// /2314 11043 21049 38018 48513 5////;
0096066090999992011011209004+46550+007017FM-12+197299999V0202401N008719999999N9999999N1-00291-00671999999ADDMA1999999080231ME1315159REMSYN060AAXX  12094 06609 43/// /2417 11029 21067 38023 48515 5////;
0149066090999992011011210004+46550+007017FM-12+197299999V0202601N008219999999N9999999N1-00261-01151999999ADDMA1999999080251MD1219999+9999ME1315179OA149901241REMSYN088AAXX  12104 06609 33/// /2616 11026 21115 38025 48517 52/// 333 55300 20335 91124 91218;
0149066090999992011011211004+46550+007017FM-12+197299999V0202901N008719999999N9999999N1-00231-01561999999ADDMA1999999080291MD1210111+9999ME1315209OA149901341REMSYN088AAXX  12114 06609 33/// /2917 11023 21156 38029 48520 52011 333 55300 20446 91126 91218;
0096066090999992011011212004+46550+007017FM-12+197299999V0202901N006219999999N9999999N1-00141-01201999999ADDMA1999999080291ME1315199REMSYN060AAXX  12124 06609 43/// /2912 11014 21120 38029 48519 5////;
0096066090999992011011213004+46550+007017FM-12+197299999V0202501N005119999999N9999999N1-00191-01111999999ADDMA1999999080281ME1315189REMSYN060AAXX  12134 06609 43/// /2510 11019 21111 38028 48518 5////;
0096066090999992011011214004+46550+007017FM-12+197299999V0202401N008219999999N9999999N1-00341-00651999999ADDMA1999999080281ME1315219REMSYN060AAXX  12144 06609 43/// /2416 11034 21065 38028 48521 5////;
0096066090999992011011215004+46550+007017FM-12+197299999V0202601N008719999999N9999999N1-00161-00541999999ADDMA1999999080261ME1315169REMSYN060AAXX  12154 06609 43/// /2617 11016 21054 38026 48516 5////;
0149066090999992011011216004+46550+007017FM-12+197299999V0203001N013919999999N9999999N1+00031+00001999999ADDMA1999999080271MD1510011+9999ME1315149OA149901851REMSYN088AAXX  12164 06609 33/// /3027 10003 20000 38027 48514 55001 333 55300 20043 91136 91227;
0149066090999992011011217004+46550+007017FM-12+197299999V0203001N012319999999N9999999N1+00121+00091999999ADDMA1999999080341MD1210061+9999ME1315199OA149901851REMSYN088AAXX  12174 06609 33/// /3024 10012 20009 38034 48519 52006 333 55300 20000 91136 91227;
0168066090999992011011218004+46550+007017FM-12+197299999V0203001N011819999999N9999999N1+00061+00021999999ADDKA1120M+00161MA1999999080371MD1210111+9999ME1315239OA149901901REMSYN094AAXX  12184 06609 33/// /3023 10006 20002 38037 48523 52011 333 10016 55300 20000 91137 91227;
0149066090999992011011219004+46550+007017FM-12+197299999V0202901N009819999999N9999999N1+00051-00011999999ADDMA1999999080391MD1210121+9999ME1315259OA149901961REMSYN088AAXX  12194 06609 33/// /2919 10005 21001 38039 48525 52012 333 55300 20000 91138 91226;
0149066090999992011011220004+46550+007017FM-12+197299999V0202901N008719999999N9999999N1+00111+00061999999ADDMA1999999080421MD1210081+9999ME1315279OA149901961REMSYN088AAXX  12204 06609 33/// /2917 10011 20006 38042 48527 52008 333 55300 20000 91138 91224;
0149066090999992011011221004+46550+007017FM-12+197299999V0202601N010819999999N9999999N1+00111+00071999999ADDMA1999999080411MD1010041+9999ME1315269OA149901961REMSYN088AAXX  12214 06609 33/// /2621 10011 20007 38041 48526 50004 333 55300 20000 91138 91227;
0149066090999992011011222004+46550+007017FM-12+197299999V0202701N011319999999N9999999N1+00111+00051999999ADDMA1999999080401MD1810011+9999ME1315259OA149901801REMSYN088AAXX  12224 06609 33/// /2722 10011 20005 38040 48525 58001 333 55300 20000 91135 91224;
0155066090999992011011223004+46550+007017FM-12+197299999V0203001N011819999999N9999999N1+00101+00071999999ADDMA1999999080451MD1310031+9999ME1315319OA149902011REMSYN094AAXX  12234 06609 23/// /3023 10010 20007 38045 48531 53003 333 55300 20000 69935 91139 91224;
0172066090999992011011300004+46550+007017FM-12+197299999V0203001N012919999999N9999999N1+00121+00091999999ADDAA106001091MA1999999080451MD1210041+9999ME1315309OA149902061REMSYN100AAXX  13004 06609 03/// /3025 10012 20009 38045 48530 52004 69991 333 55300 20000 69965 91140 91227;
0155066090999992011011301004+46550+007017FM-12+197299999V0203001N012319999999N9999999N1+00101+00061999999ADDMA1999999080441MD1210041+9999ME1315309OA149902061REMSYN094AAXX  13014 06609 23/// /3024 10010 20006 38044 48530 52004 333 55300 20000 69935 91140 91226;
0155066090999992011011302004+46550+007017FM-12+197299999V0203001N013419999999N9999999N1+00131+00101999999ADDMA1999999080441MD1719999+9999ME1315299OA149902161REMSYN094AAXX  13024 06609 23/// /3026 10013 20010 38044 48529 57/// 333 55300 20000 69925 91142 91226;
0096066090999992011011303004+46550+007017FM-12+197299999V0203001N012319999999N9999999N1+00111+00061999999ADDMA1999999080401ME1315259REMSYN060AAXX  13034 06609 43/// /3024 10011 20006 38040 48525 5////;
0149066090999992011011304004+46550+007017FM-12+197299999V0202901N013919999999N9999999N1+00161+00071999999ADDMA1999999080371MD1719999+9999ME1315229OA149902211REMSYN088AAXX  13044 06609 33/// /2927 10016 20007 38037 48522 57/// 333 55300 20000 91143 91227;
0112066090999992011011305004+46550+007017FM-12+197299999V0202901N009819999999N9999999N1+00131+00071999999ADDMA1999999080411ME1315269REMSYN076AAXX  13054 06609 33/// /2919 10013 20007 38041 48526 5//// 333 553// 20000;
0221066090999992011011306004+46550+007017FM-12+197299999V0202701N010319999999N9999999N1+00141+00101999999ADDAA112002091AL13600191GJ100009KA1999N+00051MA1999999080421MD1310021+9999ME1315279OA149902211REMSYN118AAXX  13064 06609 03/// /2720 10014 20010 38042 48527 53002 60022 333 20005 55000 55300 20000 60005 70016 91143 91227;
0096066090999992011011307004+46550+007017FM-12+197299999V0202601N009819999999N9999999N1+00131+00071999999ADDMA1999999080431ME1315289REMSYN060AAXX  13074 06609 43/// /2619 10013 20007 38043 48528 5////;
0096066090999992011011308004+46550+007017FM-12+197299999V0202601N010819999999N9999999N1+00111+00051999999ADDMA1999999080471ME1315329REMSYN060AAXX  13084 06609 43/// /2621 10011 20005 38047 48532 5////;
0096066090999992011011309004+46550+007017FM-12+197299999V0202601N010819999999N9999999N1+00111+00031999999ADDMA1999999080491ME1315359REMSYN060AAXX  13094 06609 43/// /2621 10011 20003 38049 48535 5////;
0096066090999992011011310004+46550+007017FM-12+197299999V0202701N009819999999N9999999N1+00121+00031999999ADDMA1999999080511ME1315369REMSYN060AAXX  13104 06609 43/// /2719 10012 20003 38051 48536 5////;
0096066090999992011011311004+46550+007017FM-12+197299999V0202701N011819999999N9999999N1+00081-00011999999ADDMA1999999080481ME1315349REMSYN060AAXX  13114 06609 43/// /2723 10008 21001 38048 48534 5////;
0096066090999992011011312004+46550+007017FM-12+197299999V0202601N010819999999N9999999N1+00091+00001999999ADDMA1999999080461ME1315329REMSYN060AAXX  13124 06609 43/// /2621 10009 20000 38046 48532 5////;
0096066090999992011011313004+46550+007017FM-12+197299999V0202801N007219999999N9999999N1+00201+00021999999ADDMA1999999080471ME1315319REMSYN060AAXX  13134 06609 43/// /2814 10020 20002 38047 48531 5////;
0096066090999992011011314004+46550+007017FM-12+197299999V0203001N009819999999N9999999N1+00161+00101999999ADDMA1999999080461ME1315319REMSYN060AAXX  13144 06609 43/// /3019 10016 20010 38046 48531 5////;
0096066090999992011011315004+46550+007017FM-12+197299999V0202901N008719999999N9999999N1+00211+00151999999ADDMA1999999080471ME1315319REMSYN060AAXX  13154 06609 43/// /2917 10021 20015 38047 48531 5////;
0096066090999992011011316004+46550+007017FM-12+197299999V0202701N005719999999N9999999N1+00201+00171999999ADDMA1999999080501ME1315349REMSYN060AAXX  13164 06609 43/// /2711 10020 20017 38050 48534 5////;
0149066090999992011011317004+46550+007017FM-12+197299999V0202801N007719999999N9999999N1+00201+00161999999ADDMA1999999080501MD1310041+9999ME1315349OA149901491REMSYN088AAXX  13174 06609 33/// /2815 10020 20016 38050 48534 53004 333 55300 20000 91129 91222;
0168066090999992011011318004+46550+007017FM-12+197299999V0202701N006219999999N9999999N1+00211+00181999999ADDKA1120M+00301MA1999999080491MD1210011+9999ME1315339OA149901751REMSYN094AAXX  13184 06609 33/// /2712 10021 20018 38049 48533 52001 333 10030 55300 20000 91134 91224;
0149066090999992011011319004+46550+007017FM-12+197299999V0202701N006719999999N9999999N1+00211+00181999999ADDMA1999999080471MD1710031+9999ME1315319OA149901031REMSYN088AAXX  13194 06609 33/// /2713 10021 20018 38047 48531 57003 333 55300 20000 91120 91215;
0149066090999992011011320004+46550+007017FM-12+197299999V0202401N006219999999N9999999N1+00211+00161999999ADDMA1999999080461MD1710041+9999ME1315309OA149901031REMSYN088AAXX  13204 06609 33/// /2412 10021 20016 38046 48530 57004 333 55300 20000 91120 91215;
0149066090999992011011321004+46550+007017FM-12+197299999V0202401N005119999999N9999999N1+00151+00121999999ADDMA1999999080461MD1710031+9999ME1315319OA149901491REMSYN088AAXX  13214 06609 33/// /2410 10015 20012 38046 48531 57003 333 55300 20000 91129 91222;
0149066090999992011011322004+46550+007017FM-12+197299999V0202401N007219999999N9999999N1+00151+00091999999ADDMA1999999080421MD1710051+9999ME1315279OA149900931REMSYN088AAXX  13224 06609 33/// /2414 10015 20009 38042 48527 57005 333 55300 20000 91118 91214;
0149066090999992011011323004+46550+007017FM-12+197299999V0202401N006219999999N9999999N1+00121+00081999999ADDMA1999999080411MD1710051+9999ME1315269OA149900931REMSYN088AAXX  13234 06609 33/// /2412 10012 20008 38041 48526 57005 333 55300 20000 91118 91215;
0149066090999992011011400004+46550+007017FM-12+197299999V0202401N005119999999N9999999N1+00081+00061999999ADDMA1999999080421MD1710041+9999ME1315289OA149901601REMSYN088AAXX  14004 06609 33/// /2410 10008 20006 38042 48528 57004 333 55300 20000 91131 91222;
0149066090999992011011401004+46550+007017FM-12+197299999V0202601N004119999999N9999999N1+00081+00041999999ADDMA1999999080401MD1710021+9999ME1315269OA149900881REMSYN088AAXX  14014 06609 33/// /2608 10008 20004 38040 48526 57002 333 55300 20000 91117 91212;
0112066090999992011011402004+46550+007017FM-12+197299999V0202601N005719999999N9999999N1+00281-00311999999ADDMA1999999080421ME1315259REMSYN076AAXX  14024 06609 33/// /2611 10028 21031 38042 48525 5//// 333 553// 20000;
0149066090999992011011403004+46550+007017FM-12+197299999V0202601N005119999999N9999999N1+00211-00281999999ADDMA1999999080411MD1510011+9999ME1315259OA149900931REMSYN088AAXX  14034 06609 33/// /2610 10021 21028 38041 48525 55001 333 55300 20000 91118 91215;
0149066090999992011011404004+46550+007017FM-12+197299999V0202501N006219999999N9999999N1+00361-00651999999ADDMA1999999080371MD1810031+9999ME1315189OA149900821REMSYN088AAXX  14044 06609 33/// /2512 10036 21065 38037 48518 58003 333 55300 20000 91116 91212;
0149066090999992011011405004+46550+007017FM-12+197299999V0202501N006219999999N9999999N1+00331-00591999999ADDMA1999999080381MD1710041+9999ME1315209OA149900821REMSYN088AAXX  14054 06609 33/// /2512 10033 21059 38038 48520 57004 333 55300 20000 91116 91213;
0198066090999992011011406004+46550+007017FM-12+197299999V0202601N006219999999N9999999N1+00311-00611999999ADDAL19900091GJ100129KA1999N+00031MA1999999080391MD1510021+9999ME1315219OA149901031REMSYN106AAXX  14064 06609 33/// /2612 10031 21061 38039 48521 55002 333 20003 55002 55300 20000 70000 91120 91215;
0149066090999992011011407004+46550+007017FM-12+197299999V0202601N005719999999N9999999N1+00341-00871999999ADDMA1999999080391MD1210021+9999ME1315219OA149900771REMSYN088AAXX  14074 06609 33/// /2611 10034 21087 38039 48521 52002 333 55300 20000 91115 91212;
0096066090999992011011408004+46550+007017FM-12+197299999V0202501N006719999999N9999999N1+00381-00861999999ADDMA1999999080391ME1315209REMSYN060AAXX  14084 06609 43/// /2513 10038 21086 38039 48520 5////;
0096066090999992011011409004+46550+007017FM-12+197299999V0202501N007219999999N9999999N1+00471-00951999999ADDMA1999999080391ME1315189REMSYN060AAXX  14094 06609 43/// /2514 10047 21095 38039 48518 5////;
0096066090999992011011410004+46550+007017FM-12+197299999V0202501N008219999999N9999999N1+00561-00981999999ADDMA1999999080371ME1315159REMSYN060AAXX  14104 06609 43/// /2516 10056 21098 38037 48515 5////;
0149066090999992011011411004+46550+007017FM-12+197299999V0202501N008219999999N9999999N1+00601-00951999999ADDMA1999999080361MD1710031+9999ME1315139OA149901081REMSYN088AAXX  14114 06609 33/// /2516 10060 21095 38036 48513 57003 333 553// 2//// 91121 91217;
0149066090999992011011412004+46550+007017FM-12+197299999V0202601N008219999999N9999999N1+00601-01091999999ADDMA1999999080341MD1710051+9999ME1315119OA149901081REMSYN088AAXX  14124 06609 33/// /2616 10060 21109 38034 48511 57005 333 553// 2//// 91121 91217;
0149066090999992011011413004+46550+007017FM-12+197299999V0202501N011319999999N9999999N1+00601-01181999999ADDMA1999999080291MD1710081+9999ME1315069OA149901601REMSYN088AAXX  14134 06609 33/// /2522 10060 21118 38029 48506 57008 333 553// 2//// 91131 91222;
0112066090999992011011414004+46550+007017FM-12+197299999V0202601N009819999999N9999999N1+00531-01091999999ADDMA1999999080301ME1315089REMSYN076AAXX  14144 06609 33/// /2619 10053 21109 38030 48508 5//// 333 553// 2////;
0149066090999992011011415004+46550+007017FM-12+197299999V0202501N012919999999N9999999N1+00571-01261999999ADDMA1999999080301MD1510041+9999ME1315079OA149901901REMSYN088AAXX  14154 06609 33/// /2525 10057 21126 38030 48507 55004 333 55307 20565 91137 91226;
0149066090999992011011416004+46550+007017FM-12+197299999V0202501N011819999999N9999999N1+00531-01331999999ADDMA1999999080311MD1210021+9999ME1315099OA149901901REMSYN088AAXX  14164 06609 33/// /2523 10053 21133 38031 48509 52002 333 55304 20209 91137 91227;
0149066090999992011011417004+46550+007017FM-12+197299999V0202501N012319999999N9999999N1+00561-01511999999ADDMA1999999080271MD1710031+9999ME1315049OA149901801REMSYN088AAXX  14174 06609 33/// /2524 10056 21151 38027 48504 57003 333 55300 20000 91135 91227;
0168066090999992011011418004+46550+007017FM-12+197299999V0202501N011819999999N9999999N1+00571-01611999999ADDKA1120M+00631MA1999999080271MD1810031+9999ME1315049OA149901901REMSYN094AAXX  14184 06609 33/// /2523 10057 21161 38027 48504 58003 333 10063 55300 20000 91137 91227;
0149066090999992011011419004+46550+007017FM-12+197299999V0202501N011819999999N9999999N1+00521-01541999999ADDMA1999999080291MD1510021+9999ME1315079OA149901651REMSYN088AAXX  14194 06609 33/// /2523 10052 21154 38029 48507 55002 333 55300 20000 91132 91225;
0149066090999992011011420004+46550+007017FM-12+197299999V0202501N015919999999N9999999N1+00231-00831999999ADDMA1999999080251MD1810021+9999ME1315089OA149902111REMSYN088AAXX  14204 06609 33/// /2531 10023 21083 38025 48508 58002 333 55300 20000 91141 91231;
0149066090999992011011421004+46550+007017FM-12+197299999V0202501N015919999999N9999999N1+00081-00591999999ADDMA1999999080281MD1510011+9999ME1315149OA149902681REMSYN088AAXX  14214 06609 33/// /2531 10008 21059 38028 48514 55001 333 55300 20000 91152 91234;
0149066090999992011011422004+46550+007017FM-12+197299999V0202701N013919999999N9999999N1-00071-00301999999ADDMA1999999080321MD1310031+9999ME1315209OA149902681REMSYN088AAXX  14224 06609 33/// /2727 11007 21030 38032 48520 53003 333 55300 20000 91152 91234;
0149066090999992011011423004+46550+007017FM-12+197299999V0202701N011819999999N9999999N1-00081-00131999999ADDMA1999999080411MD1210161+9999ME1315309OA149902681REMSYN088AAXX  14234 06609 33/// /2723 11008 21013 38041 48530 52016 333 55300 20000 91152 91230;
0149066090999992011011500004+46550+007017FM-12+197299999V0202801N009319999999N9999999N1-00101-00131999999ADDMA1999999080461MD1210181+9999ME1315359OA149902681REMSYN088AAXX  15004 06609 33/// /2818 11010 21013 38046 48535 52018 333 55300 20000 91152 91234;
0149066090999992011011501004+46550+007017FM-12+197299999V0202701N007219999999N9999999N1-00121-00121999999ADDMA1999999080511MD1210191+9999ME1315409OA149902161REMSYN088AAXX  15014 06609 33/// /2714 11012 21012 38051 48540 52019 333 55300 20000 91142 91227;
0155066090999992011011502004+46550+007017FM-12+197299999V0203101N008719999999N9999999N1-00121-00121999999ADDMA1999999080481MD1219999+9999ME1315379OA149901851REMSYN094AAXX  15024 06609 23/// /3117 11012 21012 38048 48537 52/// 333 55300 20000 69915 91136 91222;
0118066090999992011011503004+46550+007017FM-12+197299999V0203101N010319999999N9999999N1-00121-00121999999ADDMA1999999080561ME1315459REMSYN082AAXX  15034 06609 23/// /3120 11012 21012 38056 48545 5//// 333 553// 20000 60025;
0155066090999992011011504004+46550+007017FM-12+197299999V0202901N007719999999N9999999N1-00111-00171999999ADDMA1999999080611MD1210101+9999ME1315509OA149902111REMSYN094AAXX  15044 06609 23/// /2915 11011 21017 38061 48550 52010 333 55300 20000 69955 91141 91223;
0149066090999992011011505004+46550+007017FM-12+197299999V0202701N008719999999N9999999N1-00181-00291999999ADDMA1999999080651MD1210171+9999ME1315559OA149901961REMSYN088AAXX  15054 06609 33/// /2717 11018 21029 38065 48555 52017 333 55300 20000 91138 91223;
0221066090999992011011506004+46550+007017FM-12+197299999V0202601N007219999999N9999999N1-00231-00291999999ADDAA112003091AL13600291GJ104269KA1999N-00231MA1999999080681MD1210121+9999ME1315599OA149902681REMSYN118AAXX  15064 06609 03/// /2614 11023 21029 38068 48559 52012 60032 333 21023 55071 55300 20000 60005 70026 91152 91234;
0149066090999992011011507004+46550+007017FM-12+197299999V0202201N008719999999N9999999N1-00211-00251999999ADDMA1999999080701MD1210091+9999ME1315619OA149901241REMSYN088AAXX  15074 06609 33/// /2217 11021 21025 38070 48561 52009 333 55300 20000 91124 91217;
0149066090999992011011508004+46550+007017FM-12+197299999V0202301N006719999999N9999999N1-00041-00701999999ADDMA1999999080701MD1019999+9999ME1315589OA149901081REMSYN088AAXX  15084 06609 33/// /2313 11004 21070 38070 48558 50/// 333 55306 20115 91121 91217;
0149066090999992011011509004+46550+007017FM-12+197299999V0202401N006219999999N9999999N1+00131-01421999999ADDMA1999999080761MD1310081+9999ME1315619OA149901961REMSYN088AAXX  15094 06609 33/// /2412 10013 21142 38076 48561 53008 333 553// 20587 91138 91223;
0149066090999992011011510004+46550+007017FM-12+197299999V0202401N004619999999N9999999N1+00181-01471999999ADDMA1999999080791MD1210091+9999ME1315649OA149900881REMSYN088AAXX  15104 06609 33/// /2409 10018 21147 38079 48564 52009 333 553// 2//// 91117 91213;
0149066090999992011011511004+46550+007017FM-12+197299999V0202301N003619999999N9999999N1+00291-01731999999ADDMA1999999080771MD1010071+9999ME1315609OA149900671REMSYN088AAXX  15114 06609 33/// /2307 10029 21173 38077 48560 50007 333 553// 2//// 91113 91210;
0168066090999992011011512004+46550+007017FM-12+197299999V0202501N004119999999N9999999N1+00361-01791999999ADDMA1999999080761MD1410001+9999ME1315589OA149902111REMSYN088AAXX  15124 06609 33/// /2508 10036 21179 38076 48558 57000 333 553// 2//// 91141 91223;EQDQ01+000072APCTEN
0112066090999992011011513004+46550+007017FM-12+197299999V0202801N005119999999N9999999N1+00301-01751999999ADDMA1999999080751ME1315589REMSYN076AAXX  15134 06609 33/// /2810 10030 21175 38075 48558 5//// 333 553// 2////;
0096066090999992011011514004+46550+007017FM-12+197299999V0202901N003619999999N9999999N1+00331-02001999999ADDMA1999999080791ME1315619REMSYN060AAXX  15144 06609 43/// /2907 10033 21200 38079 48561 5////;
0096066090999992011011515004+46550+007017FM-12+197299999V0203301N002119999999N9999999N1+00261-01911999999ADDMA1999999080831ME1315679REMSYN060AAXX  15154 06609 43/// /3304 10026 21191 38083 48567 5////;
0096066090999992011011516004+46550+007017FM-12+197299999V0202801N003119999999N9999999N1+00241-02091999999ADDMA1999999080871ME1315719REMSYN060AAXX  15164 06609 43/// /2806 10024 21209 38087 48571 5////;
0112066090999992011011517004+46550+007017FM-12+197299999V0202601N003119999999N9999999N1+00261-02121999999ADDMA1999999080881ME1315729REMSYN076AAXX  15174 06609 33/// /2606 10026 21212 38088 48572 5//// 333 553// 20004;
0119066090999992011011518004+46550+007017FM-12+197299999V0202901N004619999999N9999999N1+00401-02361999999ADDKA1999M+00361MA1999999080901ME1315719REMSYN070AAXX  15184 06609 43/// /2909 10040 21236 38090 48571 5//// 333 10036;
0096066090999992011011519004+46550+007017FM-12+197299999V0203001N005119999999N9999999N1+00461-02601999999ADDMA1999999080911ME1315729REMSYN060AAXX  15194 06609 43/// /3010 10046 21260 38091 48572 5////;
0096066090999992011011520004+46550+007017FM-12+197299999V0203001N004119999999N9999999N1+00441-02491999999ADDMA1999999080941ME1315759REMSYN060AAXX  15204 06609 43/// /3008 10044 21249 38094 48575 5////;
0149066090999992011011521004+46550+007017FM-12+197299999V0202701N003119999999N9999999N1+00511-02791999999ADDMA1999999080951MD1110051+9999ME1315759OA149900721REMSYN088AAXX  15214 06609 33/// /2706 10051 21279 38095 48575 51005 333 55300 20000 91114 91212;
0149066090999992011011522004+46550+007017FM-12+197299999V0202401N004119999999N9999999N1+00611-03381999999ADDMA1999999080961MD1110051+9999ME1315749OA149900461REMSYN088AAXX  15224 06609 33/// /2408 10061 21338 38096 48574 51005 333 55300 20000 91109 91208;
0168066090999992011011523004+46550+007017FM-12+197299999V0202301N005119999999N9999999N1+00711-01912999999ADDMA1999999080951MD1210011+9999ME1315729OA149900621REMSYN088AAXX  15234 06609 33/// /2310 10071 21191 38095 48572 52001 333 55300 20000 91112 91210;EQDQ01-001913ATOD  
0149066090999992011011600004+46550+007017FM-12+197299999V0202401N005719999999N9999999N1+00761-01461999999ADDMA1999999080931MD1810021+9999ME1315699OA149900771REMSYN088AAXX  16004 06609 33/// /2411 10076 21146 38093 48569 58002 333 55300 20000 91115 91212;
0149066090999992011011601004+46550+007017FM-12+197299999V0202501N006219999999N9999999N1+00731-00871999999ADDMA1999999080921MD1610041+9999ME1315699OA149900771REMSYN088AAXX  16014 06609 33/// /2512 10073 21087 38092 48569 56004 333 55300 20000 91115 91212;
0149066090999992011011602004+46550+007017FM-12+197299999V0202701N005119999999N9999999N1+00771-00701999999ADDMA1999999080921MD1619999+9999ME1315689OA149900771REMSYN088AAXX  16024 06609 33/// /2710 10077 21070 38092 48568 56/// 333 55300 20000 91115 91213;
0096066090999992011011603004+46550+007017FM-12+197299999V0202601N005119999999N9999999N1+00741-00691999999ADDMA1999999080931ME1315699REMSYN060AAXX  16034 06609 43/// /2610 10074 21069 38093 48569 5////;
0149066090999992011011604004+46550+007017FM-12+197299999V0202601N005719999999N9999999N1+00841-00781999999ADDMA1999999080921MD1410001+9999ME1315679OA149900931REMSYN088AAXX  16044 06609 33/// /2611 10084 21078 38092 48567 54000 333 55300 20000 91118 91212;
0149066090999992011011605004+46550+007017FM-12+197299999V0202301N005719999999N9999999N1+00801-00841999999ADDMA1999999080911MD1710011+9999ME1315669OA149900931REMSYN088AAXX  16054 06609 33/// /2311 10080 21084 38091 48566 57001 333 55300 20000 91118 91212;
0198066090999992011011606004+46550+007017FM-12+197299999V0202601N006219999999N9999999N1+00821-00871999999ADDAL19900091GJ104689KA1999N+00351MA1999999080921MD1710011+9999ME1315679OA149900931REMSYN106AAXX  16064 06609 33/// /2612 10082 21087 38092 48567 57001 333 20035 55078 55300 20000 70000 91118 91213;
0168066090999992011011607004+46550+007017FM-12+197299999V0202401N007719999999N9999999N1+00811-00911999999ADDMA1999999080921MD1410001+9999ME1315679OA149900981REMSYN088AAXX  16074 06609 33/// /2415 10081 21091 38092 48567 52000 333 55300 20000 91119 91215;EQDQ01+000022APCTEN
0149066090999992011011608004+46550+007017FM-12+197299999V0202401N006219999999N9999999N1+00741-00891999999ADDMA1999999080941MD1219999+9999ME1315709OA149900981REMSYN088AAXX  16084 06609 33/// /2412 10074 21089 38094 48570 52/// 333 55306 20112 91119 91215;
0149066090999992011011609004+46550+007017FM-12+197299999V0202401N005119999999N9999999N1+00741-00921999999ADDMA1999999080961MD1210041+9999ME1315739OA149900981REMSYN088AAXX  16094 06609 33/// /2410 10074 21092 38096 48573 52004 333 553// 20598 91119 91215;
0149066090999992011011610004+46550+007017FM-12+197299999V0202501N006719999999N9999999N1+00801-00931999999ADDMA1999999080981MD1110061+9999ME1315749OA149900881REMSYN088AAXX  16104 06609 33/// /2513 10080 21093 38098 48574 51006 333 553// 2//// 91117 91213;
0149066090999992011011611004+46550+007017FM-12+197299999V0202601N009319999999N9999999N1+00791-01061999999ADDMA1999999080961MD1010021+9999ME1315729OA149901291REMSYN088AAXX  16114 06609 33/// /2618 10079 21106 38096 48572 50002 333 553// 2//// 91125 91218;
0149066090999992011011612004+46550+007017FM-12+197299999V0202601N008719999999N9999999N1+00831-01451999999ADDMA1999999080951MD1810011+9999ME1315709OA149901341REMSYN088AAXX  16124 06609 33/// /2617 10083 21145 38095 48570 58001 333 553// 2//// 91126 91219;
0149066090999992011011613004+46550+007017FM-12+197299999V0202401N005119999999N9999999N1+00841-00911999999ADDMA1999999080931MD1710051+9999ME1315689OA149901341REMSYN088AAXX  16134 06609 33/// /2410 10084 21091 38093 48568 57005 333 553// 2//// 91126 91219;
0149066090999992011011614004+46550+007017FM-12+197299999V0202501N005119999999N9999999N1+00871-00901999999ADDMA1999999080921MD1719999+9999ME1315669OA149901241REMSYN088AAXX  16144 06609 33/// /2510 10087 21090 38092 48566 57/// 333 553// 2//// 91124 91218;
0149066090999992011011615004+46550+007017FM-12+197299999V0202501N006219999999N9999999N1+00711-00891999999ADDMA1999999080921MD1710031+9999ME1315699OA149901341REMSYN088AAXX  16154 06609 33/// /2512 10071 21089 38092 48569 57003 333 553// 20788 91126 91219;
0149066090999992011011616004+46550+007017FM-12+197299999V0202601N008219999999N9999999N1+00741-01491999999ADDMA1999999080921MD1510011+9999ME1315689OA149901081REMSYN088AAXX  16164 06609 33/// /2616 10074 21149 38092 48568 55001 333 553// 20277 91121 91216;
0149066090999992011011617004+46550+007017FM-12+197299999V0202501N007719999999N9999999N1+00701-01571999999ADDMA1999999080931MD1210011+9999ME1315709OA149901181REMSYN088AAXX  16174 06609 33/// /2515 10070 21157 38093 48570 52001 333 55302 20004 91123 91218;
0168066090999992011011618004+46550+007017FM-12+197299999V0202301N006719999999N9999999N1+00631-01181999999ADDKA1120M+00871MA1999999080941MD1210021+9999ME1315729OA149901341REMSYN094AAXX  16184 06609 33/// /2313 10063 21118 38094 48572 52002 333 10087 55300 20000 91126 91219;
0149066090999992011011619004+46550+007017FM-12+197299999V0202401N008719999999N9999999N1+00681-01421999999ADDMA1999999080931MD1010011+9999ME1315709OA149901131REMSYN088AAXX  16194 06609 33/// /2417 10068 21142 38093 48570 50001 333 55300 20000 91122 91217;
0149066090999992011011620004+46550+007017FM-12+197299999V0202501N007219999999N9999999N1+00571-01311999999ADDMA1999999080951MD1210021+9999ME1315749OA149901181REMSYN088AAXX  16204 06609 33/// /2514 10057 21131 38095 48574 52002 333 55300 20000 91123 91217;
0149066090999992011011621004+46550+007017FM-12+197299999V0202501N009319999999N9999999N1+00581-00881999999ADDMA1999999080941MD1010001+9999ME1315739OA149901341REMSYN088AAXX  16214 06609 33/// /2518 10058 21088 38094 48573 50000 333 55300 20000 91126 91218;
0149066090999992011011622004+46550+007017FM-12+197299999V0202601N007219999999N9999999N1+00561-00831999999ADDMA1999999080941MD1010011+9999ME1315739OA149901341REMSYN088AAXX  16224 06609 33/// /2614 10056 21083 38094 48573 50001 333 55300 20000 91126 91218;
0149066090999992011011623004+46550+007017FM-12+197299999V0202501N005719999999N9999999N1+00561-00791999999ADDMA1999999080941MD1710011+9999ME1315739OA149901241REMSYN088AAXX  16234 06609 33/// /2511 10056 21079 38094 48573 57001 333 55300 20000 91124 91217;
0149066090999992011011700004+46550+007017FM-12+197299999V0202501N003119999999N9999999N1+00551-00921999999ADDMA1999999080941MD1410001+9999ME1315739OA149901341REMSYN088AAXX  17004 06609 33/// /2506 10055 21092 38094 48573 54000 333 55300 20000 91126 91218;
0149066090999992011011701004+46550+007017FM-12+197299999V0202501N005119999999N9999999N1+00541-01231999999ADDMA1999999080891MD1710051+9999ME1315689OA149900821REMSYN088AAXX  17014 06609 33/// /2510 10054 21123 38089 48568 57005 333 55300 20000 91116 91210;
0149066090999992011011702004+46550+007017FM-12+197299999V0202501N004619999999N9999999N1+00481-01161999999ADDMA1999999080871MD1719999+9999ME1315679OA149900721REMSYN088AAXX  17024 06609 33/// /2509 10048 21116 38087 48567 57/// 333 55300 20000 91114 91210;
0112066090999992011011703004+46550+007017FM-12+197299999V0202401N002619999999N9999999N1+00481-01241999999ADDMA1999999080861ME1315669REMSYN076AAXX  17034 06609 33/// /2405 10048 21124 38086 48566 5//// 333 553// 20000;
0149066090999992011011704004+46550+007017FM-12+197299999V0202301N003619999999N9999999N1+00511-01261999999ADDMA1999999080821MD1810071+9999ME1315629OA149900571REMSYN088AAXX  17044 06609 33/// /2307 10051 21126 38082 48562 58007 333 55300 20000 91111 91208;
0149066090999992011011705004+46550+007017FM-12+197299999V0202501N005719999999N9999999N1+00511-01101999999ADDMA1999999080791MD1810081+9999ME1315599OA149900821REMSYN088AAXX  17054 06609 33/// /2511 10051 21110 38079 48559 58008 333 55300 20000 91116 91211;
0198066090999992011011706004+46550+007017FM-12+197299999V0202501N005719999999N9999999N1+00451-01081999999ADDAL19900091GJ105289KA1999N+00431MA1999999080761MD1810101+9999ME1315569OA149901341REMSYN106AAXX  17064 06609 33/// /2511 10045 21108 38076 48556 58010 333 20043 55088 55300 20000 70000 91126 91218;
0149066090999992011011707004+46550+007017FM-12+197299999V0202501N004619999999N9999999N1+00391-01071999999ADDMA1999999080741MD1610081+9999ME1315559OA149900881REMSYN088AAXX  17074 06609 33/// /2509 10039 21107 38074 48555 56008 333 55300 20000 91117 91213;
0096066090999992011011708004+46550+007017FM-12+197299999V0202301N002619999999N9999999N1+00421-01161999999ADDMA1999999080741ME1315559REMSYN060AAXX  17084 06609 43/// /2305 10042 21116 38074 48555 5////;
0096066090999992011011709004+46550+007017FM-12+197299999V0202201N004119999999N9999999N1+00471-01171999999ADDMA1999999080731ME1315539REMSYN060AAXX  17094 06609 43/// /2208 10047 21117 38073 48553 5////;
0149066090999992011011710004+46550+007017FM-12+197299999V0202601N005719999999N9999999N1+00441-00991999999ADDMA1999999080781MD1210041+9999ME1315599OA149900771REMSYN088AAXX  17104 06609 33/// /2611 10044 21099 38078 48559 52004 333 553// 2//// 91115 91211;
0149066090999992011011711004+46550+007017FM-12+197299999V0202501N007719999999N9999999N1+00531-01101999999ADDMA1999999080771MD1210031+9999ME1315569OA149901181REMSYN088AAXX  17114 06609 33/// /2515 10053 21110 38077 48556 52003 333 553// 2//// 91123 91215;
0149066090999992011011712004+46550+007017FM-12+197299999V0202401N009319999999N9999999N1+00481-01091999999ADDMA1999999080751MD1010021+9999ME1315559OA149901491REMSYN088AAXX  17124 06609 33/// /2418 10048 21109 38075 48555 50002 333 553// 2//// 91129 91218;
0149066090999992011011713004+46550+007017FM-12+197299999V0202501N011319999999N9999999N1+00431-00931999999ADDMA1999999080721MD1710061+9999ME1315539OA149901751REMSYN088AAXX  17134 06609 33/// /2522 10043 21093 38072 48553 57006 333 553// 2//// 91134 91222;
0096066090999992011011714004+46550+007017FM-12+197299999V0202501N010819999999N9999999N1+00341-00771999999ADDMA1999999080731ME1315559REMSYN060AAXX  17144 06609 43/// /2521 10034 21077 38073 48555 5////;
0096066090999992011011715004+46550+007017FM-12+197299999V0202601N011319999999N9999999N1+00211-00701999999ADDMA1999999080751ME1315599REMSYN060AAXX  17154 06609 43/// /2622 10021 21070 38075 48559 5////;
0149066090999992011011716004+46550+007017FM-12+197299999V0202601N009319999999N9999999N1+00211-00831999999ADDMA1999999080771MD1310051+9999ME1315619OA149901651REMSYN088AAXX  17164 06609 33/// /2618 10021 21083 38077 48561 53005 333 55309 20292 91132 91224;
0149066090999992011011717004+46550+007017FM-12+197299999V0202701N007719999999N9999999N1+00091-00681999999ADDMA1999999080791MD1310061+9999ME1315659OA149901601REMSYN088AAXX  17174 06609 33/// /2715 10009 21068 38079 48565 53006 333 55301 20007 91131 91223;
0168066090999992011011718004+46550+007017FM-12+197299999V0202601N006219999999N9999999N1+00171-00751999999ADDKA1120M+00531MA1999999080801MD1110051+9999ME1315659OA149901901REMSYN094AAXX  17184 06609 33/// /2612 10017 21075 38080 48565 51005 333 10053 55300 20000 91137 91224;
0149066090999992011011719004+46550+007017FM-12+197299999V0202701N006219999999N9999999N1+00111-00731999999ADDMA1999999080821MD1110051+9999ME1315689OA149900981REMSYN088AAXX  17194 06609 33/// /2712 10011 21073 38082 48568 51005 333 55300 20000 91119 91215;
0149066090999992011011720004+46550+007017FM-12+197299999V0202601N006219999999N9999999N1+00161-00761999999ADDMA1999999080811MD1210021+9999ME1315669OA149900821REMSYN088AAXX  17204 06609 33/// /2612 10016 21076 38081 48566 52002 333 55300 20000 91116 91212;
0149066090999992011011721004+46550+007017FM-12+197299999V0202701N006219999999N9999999N1+00141-00801999999ADDMA1999999080811MD1010011+9999ME1315669OA149901601REMSYN088AAXX  17214 06609 33/// /2712 10014 21080 38081 48566 50001 333 55300 20000 91131 91223;
0149066090999992011011722004+46550+007017FM-12+197299999V0202601N006719999999N9999999N1+00121-00761999999ADDMA1999999080801MD1710021+9999ME1315669OA149901031REMSYN088AAXX  17224 06609 33/// /2613 10012 21076 38080 48566 57002 333 55300 20000 91120 91213;
0149066090999992011011723004+46550+007017FM-12+197299999V0202801N006219999999N9999999N1+00091-00681999999ADDMA1999999080811MD1410001+9999ME1315679OA149901031REMSYN088AAXX  17234 06609 33/// /2812 10009 21068 38081 48567 52000 333 55300 20000 91120 91213;
0149066090999992011011800004+46550+007017FM-12+197299999V0202701N005119999999N9999999N1+00011-00621999999ADDMA1999999080781MD1710031+9999ME1315659OA149901901REMSYN088AAXX  18004 06609 33/// /2710 10001 21062 38078 48565 57003 333 55300 20000 91137 91224;
0149066090999992011011801004+46550+007017FM-12+197299999V0202401N004619999999N9999999N1+00021-00621999999ADDMA1999999080761MD1719999+9999ME1315639OA149900821REMSYN088AAXX  18014 06609 33/// /2409 10002 21062 38076 48563 57/// 333 55300 20000 91116 91211;
0096066090999992011011802004+46550+007017FM-12+197299999V0202601N003619999999N9999999N1+00001-00651999999ADDMA1999999080741ME1315619REMSYN060AAXX  18024 06609 43/// /2607 10000 21065 38074 48561 5////;
0096066090999992011011803004+46550+007017FM-12+197299999V0202201N003619999999N9999999N1+00001-00631999999ADDMA1999999080721ME1315599REMSYN060AAXX  18034 06609 43/// /2207 10000 21063 38072 48559 5////;
0112066090999992011011804004+46550+007017FM-12+197299999V0202301N004119999999N9999999N1+00021-00661999999ADDMA1999999080661ME1315539REMSYN076AAXX  18044 06609 33/// /2308 10002 21066 38066 48553 5//// 333 553// 20000;
0149066090999992011011805004+46550+007017FM-12+197299999V0202801N003119999999N9999999N1-00031-00661999999ADDMA1999999080651MD1710091+9999ME1315539OA149900571REMSYN088AAXX  18054 06609 33/// /2806 11003 21066 38065 48553 57009 333 55300 20000 91111 91209;
0198066090999992011011806004+46550+007017FM-12+197299999V0203001N005719999999N9999999N1-00091-00451999999ADDAL19900091GJ105049KA1999N-00101MA1999999080651MD1510071+9999ME1315549OA149901031REMSYN106AAXX  18064 06609 33/// /3011 11009 21045 38065 48554 55007 333 21010 55084 55300 20000 70000 91120 91213;
0149066090999992011011807004+46550+007017FM-12+197299999V0203001N003619999999N9999999N1-00101-00311999999ADDMA1999999080661MD1010001+9999ME1315559OA149900821REMSYN088AAXX  18074 06609 33/// /3007 11010 21031 38066 48555 50000 333 55300 20000 91116 91211;
0096066090999992011011808004+46550+007017FM-12+197299999V0202501N002619999999N9999999N1-00071-00251999999ADDMA1999999080671ME1315569REMSYN060AAXX  18084 06609 43/// /2505 11007 21025 38067 48556 5////;
0096066090999992011011809004+46550+007017FM-12+197299999V0202701N003119999999N9999999N1-00031-00311999999ADDMA1999999080671ME1315559REMSYN060AAXX  18094 06609 43/// /2706 11003 21031 38067 48555 5////;
