0074066045999992010010106504+47083+006783FM-15+1027LSGC V0209999C000019999999Y0099001N1-00301-00301999999ADDMA1098821999999REMMET047METAR LSGC 010650Z 00000KT CAVOK M03/M03 Q0988;
0074066045999992010010107204+47083+006783FM-15+1027LSGC V0209999C000019999999Y0099001N1-00201-00201999999ADDMA1098821999999REMMET047METAR LSGC 010720Z 00000KT CAVOK M02/M02 Q0988;
0074066045999992010010107504+47083+006783FM-15+1027LSGC V0209999C000019999999Y0099001N1-00201-00201999999ADDMA1098821999999REMMET047METAR LSGC 010750Z 00000KT CAVOK M02/M02 Q0988;
0145066045999992010010108204+47083+006783FM-15+1027LSGC V0200701N000510108019N0112651N1-00101-00101999999ADDGA1071+010801999GA2071+060001999GF107991999999999999999999MA1098821999999REMMET060METAR LSGC 010820Z 07001KT 9999 BKN036 BKN200 M01/M01 Q0988;
0145066045999992010010108504+47083+006783FM-15+1027LSGC V0209999C000010111019N0112651N1-00101-00101999999ADDGA1071+011101999GA2071+060001999GF107991999999999999999999MA1098921999999REMMET060METAR LSGC 010850Z 00000KT 9999 BKN037 BKN200 M01/M01 Q0989;
0145066045999992010010109204+47083+006783FM-15+1027LSGC V0202201N001510111019N0112651N1+00001+00001999999ADDGA1071+011101999GA2071+060001999GF107991999999999999999999MA1098921999999REMMET060METAR LSGC 010920Z 22003KT 9999 BKN037 BKN200 M00/M00 Q0989;
0143066045999992010010109504+47083+006783FM-15+1027LSGC V0202401N001510111019N0112651N1+00001+00001999999ADDGA1071+011101999GA2071+060001999GF107991999999999999999999MA1098981999999REMMET058METAR LSGC 010950Z 24003KT 9999 BKN037 BKN200 00/00 Q0990;
0143066045999992010010110204+47083+006783FM-15+1027LSGC V0209999V001010111019N0112651N1+00101+00101999999ADDGA1071+011101999GA2071+060001999GF107991999999999999999999MA1098981999999REMMET058METAR LSGC 011020Z VRB02KT 9999 BKN037 BKN200 01/01 Q0990;
0166066045999992010010111204+47083+006783FM-15+1027LSGC V0209999C000010033019N0070001N1+00201+00201999999ADDGA1041+001801999GA2071+003301999GA3071+024001999GF107991999999999999999999MA1098981999999REMMET065METAR LSGC 011120Z 00000KT 7000 SCT006 BKN011 BKN080 02/02 Q0990;
0175066045999992010010111504+47083+006783FM-15+1027LSGC V0202201N001510027019N0050001N1+00201+00201999999ADDGA1041+001801999GA2071+002701999GA3071+010501999GF107991999999999999999999MA1098981999999MW1101REMMET068METAR LSGC 011150Z 22003KT 5000 BR SCT006 BKN009 BKN035 02/02 Q0990;
0153066045999992010010113204+47083+006783FM-15+1027LSGC V0209999V000510027019N0030001N1+00101+00101999999ADDGA1041+000901999GA2081+002701999GF108991999999999999999999MA1099091999999MW1711REMMET062METAR LSGC 011320Z VRB01KT 3000 -SN SCT003 OVC009 01/01 Q0991;
0160066045999992010010113504+47083+006783FM-15+1027LSGC V0202201N001510027019N0020001N1+00101+00001999999ADDGA1041+000901999GA2081+002701999GF108991999999999999999999MA1099191999999MW1731REMMET069METAR LSGC 011350Z 22003KT 170V300 2000 SN SCT003 OVC009 01/00 Q0992;
0160066045999992010010114204+47083+006783FM-15+1027LSGC V0209999V001510030019N0012001N1+00001+00001999999ADDGA1041+001501999GA2081+003001999GF108991999999999999999999MA1099291999999MW1731REMMET069METAR LSGC 011420Z VRB03KT 1200 SN SCT005 OVC010 00/M00 Q0993 SNOCLO;
0169066045999992010010114504+47083+006783FM-15+1027LSGC V0202401N001510030019N0012001N1+00001-00101999999ADDGA1041+001501999GA2081+003001999GF108991999999999999999999MA1099391999999MW1731REMMET078METAR LSGC 011450Z 24003KT 190V310 1200 SN SCT005 OVC010 M00/M01 Q0994 SNOCLO;
0161066045999992010010115204+47083+006783FM-15+1027LSGC V0209999V001510036019N0018001N1-00101-00101999999ADDGA1041+001501999GA2081+003601999GF108991999999999999999999MA1099391999999MW1731REMMET070METAR LSGC 011520Z VRB03KT 1800 SN SCT005 OVC012 M01/M01 Q0994 SNOCLO;
0162066045999992010010207204+47083+006783FM-15+1027LSGC V0209999V001510045019N0040001N1-00701-00901999999ADDGA1041+003001999GA2081+004501999GF108991999999999999999999MA1101021999999MW1711REMMET071METAR LSGC 020720Z VRB03KT 4000 -SN SCT010 OVC015 M07/M09 Q1010 SNOCLO;
0162066045999992010010207504+47083+006783FM-15+1027LSGC V0209999V001510045019N0040001N1-00701-00901999999ADDGA1041+003001999GA2081+004501999GF108991999999999999999999MA1101081999999MW1711REMMET071METAR LSGC 020750Z VRB03KT 4000 -SN SCT010 OVC015 M07/M09 Q1011 SNOCLO;
0162066045999992010010208204+47083+006783FM-15+1027LSGC V0209999V001510048019N0050001N1-00701-00901999999ADDGA1041+003001999GA2071+004801999GF107991999999999999999999MA1101081999999MW1711REMMET071METAR LSGC 020820Z VRB03KT 5000 -SN SCT010 BKN016 M07/M09 Q1011 SNOCLO;
0162066045999992010010209204+47083+006783FM-15+1027LSGC V0209999V001510048019N0050001N1-00801-00901999999ADDGA1041+003001999GA2071+004801999GF107991999999999999999999MA1101291999999MW1711REMMET071METAR LSGC 020920Z VRB03KT 5000 -SN SCT010 BKN016 M08/M09 Q1013 SNOCLO;
0137066045999992010010210504+47083+006783FM-15+1027LSGC V0202701N003110033019N0060001N1-00801-01001999999ADDGA1071+003301999GF107991999999999999999999MA1101291999999REMMET068METAR LSGC 021050Z 27006KT 220V310 6000 BKN011 M08/M10 Q1013 SNOCLO;
0129066045999992010010211204+47083+006783FM-15+1027LSGC V0209999V001010033019N0060001N1-00801-01001999999ADDGA1071+003301999GF107991999999999999999999MA1101391999999REMMET060METAR LSGC 021120Z VRB02KT 6000 BKN011 M08/M10 Q1014 SNOCLO;
0129066045999992010010211504+47083+006783FM-15+1027LSGC V0209999V002110033019N0060001N1-00701-01001999999ADDGA1071+003301999GF107991999999999999999999MA1101391999999REMMET060METAR LSGC 021150Z VRB04KT 6000 BKN011 M07/M10 Q1014 SNOCLO;
0129066045999992010010212204+47083+006783FM-15+1027LSGC V0209999V001010033019N0060001N1-00701-01001999999ADDGA1071+003301999GF107991999999999999999999MA1101391999999REMMET060METAR LSGC 021220Z VRB02KT 6000 BKN011 M07/M10 Q1014 SNOCLO;
0130066045999992010010213504+47083+006783FM-15+1027LSGC V0202801N002110039019N0080001N1-00701-00901999999ADDGA1071+003901999GF107991999999999999999999MA1101491999999REMMET061METAR LSGC 021350Z 28004KT 210V320 8000 BKN013 M07/M09 Q1015;
0122066045999992010010215204+47083+006783FM-15+1027LSGC V0202201N002110039019N0080001N1-00801-01001999999ADDGA1071+003901999GF107991999999999999999999MA1101591999999REMMET053METAR LSGC 021520Z 22004KT 8000 BKN013 M08/M10 Q1016;
0122066045999992010010215504+47083+006783FM-15+1027LSGC V0202701N001010048019N0112651N1-00801-01001999999ADDGA1071+004801999GF107991999999999999999999MA1101691999999REMMET053METAR LSGC 021550Z 27002KT 9999 BKN016 M08/M10 Q1017;
0074066045999992010010306504+47083+006783FM-15+1027LSGC V0209999C000019999999Y0099001N1-01301-01501999999ADDMA1101591999999REMMET047METAR LSGC 030650Z 00000KT CAVOK M13/M15 Q1016;
0074066045999992010010307204+47083+006783FM-15+1027LSGC V0209999C000019999999Y0099001N1-01401-01501999999ADDMA1101591999999REMMET047METAR LSGC 030720Z 00000KT CAVOK M14/M15 Q1016;
0074066045999992010010307504+47083+006783FM-15+1027LSGC V0209999C000019999999Y0099001N1-01401-01601999999ADDMA1101591999999REMMET047METAR LSGC 030750Z 00000KT CAVOK M14/M16 Q1016;
0074066045999992010010308204+47083+006783FM-15+1027LSGC V0202701N000519999999Y0099001N1-01401-01501999999ADDMA1101691999999REMMET047METAR LSGC 030820Z 27001KT CAVOK M14/M15 Q1017;
0074066045999992010010308504+47083+006783FM-15+1027LSGC V0209999V001019999999Y0099001N1-01201-01301999999ADDMA1101691999999REMMET047METAR LSGC 030850Z VRB02KT CAVOK M12/M13 Q1017;
0074066045999992010010309204+47083+006783FM-15+1027LSGC V0209999C000019999999Y0099001N1-01201-01301999999ADDMA1101591999999REMMET047METAR LSGC 030920Z 00000KT CAVOK M12/M13 Q1016;
0074066045999992010010309504+47083+006783FM-15+1027LSGC V0209999C000019999999Y0099001N1-01001-01101999999ADDMA1101591999999REMMET047METAR LSGC 030950Z 00000KT CAVOK M10/M11 Q1016;
0074066045999992010010310204+47083+006783FM-15+1027LSGC V0209999C000019999999Y0099001N1-01001-01101999999ADDMA1101591999999REMMET047METAR LSGC 031020Z 00000KT CAVOK M10/M11 Q1016;
0074066045999992010010310504+47083+006783FM-15+1027LSGC V0209999C000019999999Y0099001N1-00801-00901999999ADDMA1101591999999REMMET047METAR LSGC 031050Z 00000KT CAVOK M08/M09 Q1016;
0074066045999992010010311204+47083+006783FM-15+1027LSGC V0209999C000019999999Y0099001N1-00801-00901999999ADDMA1101591999999REMMET047METAR LSGC 031120Z 00000KT CAVOK M08/M09 Q1016;
0074066045999992010010311504+47083+006783FM-15+1027LSGC V0209999C000019999999Y0099001N1-00701-00801999999ADDMA1101491999999REMMET047METAR LSGC 031150Z 00000KT CAVOK M07/M08 Q1015;
0074066045999992010010312204+47083+006783FM-15+1027LSGC V0209999C000019999999Y0099001N1-00701-00801999999ADDMA1101491999999REMMET047METAR LSGC 031220Z 00000KT CAVOK M07/M08 Q1015;
0074066045999992010010312504+47083+006783FM-15+1027LSGC V0209999C000019999999Y0099001N1-00601-00801999999ADDMA1101491999999REMMET047METAR LSGC 031250Z 00000KT CAVOK M06/M08 Q1015;
0074066045999992010010313204+47083+006783FM-15+1027LSGC V0209999C000019999999Y0099001N1-00601-00901999999ADDMA1101491999999REMMET047METAR LSGC 031320Z 00000KT CAVOK M06/M09 Q1015;
0074066045999992010010313504+47083+006783FM-15+1027LSGC V0202401N000519999999Y0099001N1-00701-00901999999ADDMA1101491999999REMMET047METAR LSGC 031350Z 24001KT CAVOK M07/M09 Q1015;
0074066045999992010010314204+47083+006783FM-15+1027LSGC V0202501N001019999999Y0099001N1-00701-00901999999ADDMA1101491999999REMMET047METAR LSGC 031420Z 25002KT CAVOK M07/M09 Q1015;
0074066045999992010010314504+47083+006783FM-15+1027LSGC V0209999V000519999999Y0099001N1-00901-01101999999ADDMA1101491999999REMMET047METAR LSGC 031450Z VRB01KT CAVOK M09/M11 Q1015;
0074066045999992010010315204+47083+006783FM-15+1027LSGC V0209999V000519999999Y0099001N1-01001-01101999999ADDMA1101491999999REMMET047METAR LSGC 031520Z VRB01KT CAVOK M10/M11 Q1015;
0074066045999992010010315504+47083+006783FM-15+1027LSGC V0209999V000519999999Y0099001N1-01301-01401999999ADDMA1101491999999REMMET047METAR LSGC 031550Z VRB01KT CAVOK M13/M14 Q1015;
0074066045999992010010316204+47083+006783FM-15+1027LSGC V0209999C000019999999Y0099001N1-01201-01301999999ADDMA1101491999999REMMET047METAR LSGC 031620Z 00000KT CAVOK M12/M13 Q1015;
0074066045999992010010406204+47083+006783FM-15+1027LSGC V0209999V000519999999Y0099001N1-01201-01301999999ADDMA1100911999999REMMET047METAR LSGC 040620Z VRB01KT CAVOK M12/M13 Q1009;
0074066045999992010010406504+47083+006783FM-15+1027LSGC V0209999C000019999999Y0099001N1-01301-01401999999ADDMA1101021999999REMMET047METAR LSGC 040650Z 00000KT CAVOK M13/M14 Q1010;
0074066045999992010010407204+47083+006783FM-15+1027LSGC V0200501N000519999999Y0099001N1-01301-01401999999ADDMA1101021999999REMMET047METAR LSGC 040720Z 05001KT CAVOK M13/M14 Q1010;
0074066045999992010010407504+47083+006783FM-15+1027LSGC V0209999C000019999999Y0099001N1-01201-01401999999ADDMA1101021999999REMMET047METAR LSGC 040750Z 00000KT CAVOK M12/M14 Q1010;
0074066045999992010010408204+47083+006783FM-15+1027LSGC V0209999C000019999999Y0099001N1-01201-01301999999ADDMA1101021999999REMMET047METAR LSGC 040820Z 00000KT CAVOK M12/M13 Q1010;
0074066045999992010010409204+47083+006783FM-15+1027LSGC V0209999C000019999999Y0099001N1-01101-01201999999ADDMA1101021999999REMMET047METAR LSGC 040920Z 00000KT CAVOK M11/M12 Q1010;
0074066045999992010010409504+47083+006783FM-15+1027LSGC V0209999C000019999999Y0099001N1-01001-01101999999ADDMA1100911999999REMMET047METAR LSGC 040950Z 00000KT CAVOK M10/M11 Q1009;
0074066045999992010010410504+47083+006783FM-15+1027LSGC V0209999C000019999999Y0099001N1-01101-01201999999ADDMA1100911999999REMMET047METAR LSGC 041050Z 00000KT CAVOK M11/M12 Q1009;
0074066045999992010010411204+47083+006783FM-15+1027LSGC V0209999V000519999999Y0099001N1-00801-00901999999ADDMA1100811999999REMMET047METAR LSGC 041120Z VRB01KT CAVOK M08/M09 Q1008;
0074066045999992010010412204+47083+006783FM-15+1027LSGC V0209999V000519999999Y0099001N1-01001-01101999999ADDMA1100811999999REMMET047METAR LSGC 041220Z VRB01KT CAVOK M10/M11 Q1008;
0074066045999992010010412504+47083+006783FM-15+1027LSGC V0209999C000019999999Y0099001N1-00801-01001999999ADDMA1100711999999REMMET047METAR LSGC 041250Z 00000KT CAVOK M08/M10 Q1007;
0074066045999992010010413204+47083+006783FM-15+1027LSGC V0209999C000019999999Y0099001N1-00801-01001999999ADDMA1100711999999REMMET047METAR LSGC 041320Z 00000KT CAVOK M08/M10 Q1007;
0074066045999992010010414204+47083+006783FM-15+1027LSGC V0209999C000019999999Y0099001N1-00701-00901999999ADDMA1100711999999REMMET047METAR LSGC 041420Z 00000KT CAVOK M07/M09 Q1007;
0074066045999992010010414504+47083+006783FM-15+1027LSGC V0202401N000519999999Y0099001N1-00901-01101999999ADDMA1100711999999REMMET047METAR LSGC 041450Z 24001KT CAVOK M09/M11 Q1007;
0074066045999992010010415204+47083+006783FM-15+1027LSGC V0202401N001019999999Y0099001N1-00801-01001999999ADDMA1100711999999REMMET047METAR LSGC 041520Z 24002KT CAVOK M08/M10 Q1007;
0074066045999992010010415504+47083+006783FM-15+1027LSGC V0202601N000519999999Y0099001N1-01001-01101999999ADDMA1100711999999REMMET047METAR LSGC 041550Z 26001KT CAVOK M10/M11 Q1007;
0074066045999992010010416204+47083+006783FM-15+1027LSGC V0209999C000019999999Y0099001N1-01001-01101999999ADDMA1100711999999REMMET047METAR LSGC 041620Z 00000KT CAVOK M10/M11 Q1007;
0074066045999992010010416504+47083+006783FM-15+1027LSGC V0209999V000519999999Y0099001N1-01001-01101999999ADDMA1100711999999REMMET047METAR LSGC 041650Z VRB01KT CAVOK M10/M11 Q1007;
0074066045999992010010417204+47083+006783FM-15+1027LSGC V0209999C000019999999Y0099001N1-01101-01201999999ADDMA1100711999999REMMET047METAR LSGC 041720Z 00000KT CAVOK M11/M12 Q1007;
0074066045999992010010417504+47083+006783FM-15+1027LSGC V0209999V000519999999Y0099001N1-01101-01201999999ADDMA1100711999999REMMET047METAR LSGC 041750Z VRB01KT CAVOK M11/M12 Q1007;
0145066045999992010010506204+47083+006783FM-15+1027LSGC V0209999C000010180019N0112651N1-00601-00701999999ADDGA1041+003601999GA2071+018001999GF107991999999999999999999MA1100101999999REMMET060METAR LSGC 050620Z 00000KT 9999 SCT012 BKN060 M06/M07 Q1001;
0145066045999992010010506504+47083+006783FM-15+1027LSGC V0209999V001010180019N0112651N1-00501-00601999999ADDGA1041+003601999GA2071+018001999GF107991999999999999999999MA1100101999999REMMET060METAR LSGC 050650Z VRB02KT 9999 SCT012 BKN060 M05/M06 Q1001;
0145066045999992010010507204+47083+006783FM-15+1027LSGC V0209999C000010060019N0112651N1-00501-00601999999ADDGA1041+003001999GA2071+006001999GF107991999999999999999999MA1100101999999REMMET060METAR LSGC 050720Z 00000KT 9999 SCT010 BKN020 M05/M06 Q1001;
0145066045999992010010507504+47083+006783FM-15+1027LSGC V0209999V000510060019N0112651N1-00401-00501999999ADDGA1041+003001999GA2071+006001999GF107991999999999999999999MA1100001999999REMMET060METAR LSGC 050750Z VRB01KT 9999 SCT010 BKN020 M04/M05 Q1000;
0145066045999992010010508204+47083+006783FM-15+1027LSGC V0209999V000510060019N0112651N1-00301-00401999999ADDGA1041+003001999GA2071+006001999GF107991999999999999999999MA1100001999999REMMET060METAR LSGC 050820Z VRB01KT 9999 SCT010 BKN020 M03/M04 Q1000;
0145066045999992010010508504+47083+006783FM-15+1027LSGC V0209999V001010060019N0112651N1-00401-00501999999ADDGA1041+003001999GA2071+006001999GF107991999999999999999999MA1100001999999REMMET060METAR LSGC 050850Z VRB02KT 9999 SCT010 BKN020 M04/M05 Q1000;
0145066045999992010010509204+47083+006783FM-15+1027LSGC V0209999C000010060019N0112651N1-00301-00401999999ADDGA1041+002701999GA2071+006001999GF107991999999999999999999MA1100001999999REMMET060METAR LSGC 050920Z 00000KT 9999 SCT009 BKN020 M03/M04 Q1000;
0145066045999992010010509504+47083+006783FM-15+1027LSGC V0209999V000510027019N0090001N1-00201-00401999999ADDGA1071+002701999GA2081+006001999GF108991999999999999999999MA1100001999999REMMET060METAR LSGC 050950Z VRB01KT 9000 BKN009 OVC020 M02/M04 Q1000;
0145066045999992010010510204+47083+006783FM-15+1027LSGC V0209999C000010033019N0090001N1-00201-00301999999ADDGA1071+003301999GA2081+006001999GF108991999999999999999999MA1100001999999REMMET060METAR LSGC 051020Z 00000KT 9000 BKN011 OVC020 M02/M03 Q1000;
0155066045999992010010510504+47083+006783FM-15+1027LSGC V0209999C000010045019N0090001N1-00101-00301999999ADDGA1041+003001999GA2071+004501999GF107991999999999999999999MA1099901999999MW1711REMMET064METAR LSGC 051050Z 00000KT 9000 -SN SCT010 BKN015 M01/M03 Q0999;
0155066045999992010010511504+47083+006783FM-15+1027LSGC V0209999V000510060019N0090001N1-00101-00301999999ADDGA1041+003001999GA2071+006001999GF107991999999999999999999MA1099801999999MW1711REMMET064METAR LSGC 051150Z VRB01KT 9000 -SN SCT010 BKN020 M01/M03 Q0998;
0155066045999992010010512204+47083+006783FM-15+1027LSGC V0209999C000010051019N0090001N1+00001-00201999999ADDGA1041+003001999GA2081+005101999GF108991999999999999999999MA1099801999999MW1711REMMET064METAR LSGC 051220Z 00000KT 9000 -SN SCT010 OVC017 M00/M02 Q0998;
0155066045999992010010512504+47083+006783FM-15+1027LSGC V0202101N001010051019N0090001N1+00001-00201999999ADDGA1041+003001999GA2081+005101999GF108991999999999999999999MA1099701999999MW1711REMMET064METAR LSGC 051250Z 21002KT 9000 -SN SCT010 OVC017 M00/M02 Q0997;
0174066045999992010010513204+47083+006783FM-15+1027LSGC V0209999C000010030019N0080001N1+00001-00201999999ADDGA1021+001501999GA2071+003001999GA3081+006001999GF108991999999999999999999MA1099701999999REMMET073METAR LSGC 051320Z 00000KT 8000 -SHSN FEW005 BKN010 OVC020 M00/M02 Q0997;
0168066045999992010010513504+47083+006783FM-15+1027LSGC V0209999V000510030019N0080001N1+00001-00201999999ADDGA1021+001501999GA2071+003001999GA3081+006001999GF108991999999999999999999MA1099701999999REMMET067METAR LSGC 051350Z VRB01KT 8000 FEW005 BKN010 OVC020 M00/M02 Q0997;
0174066045999992010010514504+47083+006783FM-15+1027LSGC V0202301N000510030019N0070001N1+00001-00201999999ADDGA1021+001501999GA2071+003001999GA3081+006001999GF108991999999999999999999MA1099701999999REMMET073METAR LSGC 051450Z 23001KT 7000 -SHSN FEW005 BKN010 OVC020 M00/M02 Q0997;
0151066045999992010010515204+47083+006783FM-15+1027LSGC V0209999V001010030019N0070001N1-00101-00201999999ADDGA1041+001501999GA2081+003001999GF108991999999999999999999MA1099701999999REMMET066METAR LSGC 051520Z VRB02KT 7000 -SHSN SCT005 OVC010 M01/M02 Q0997;
0178066045999992010010515504+47083+006783FM-15+1027LSGC V0209999V001010030019N0070001N1-00101-00301999999ADDGA1041+001501999GA2071+003001999GA3081+006001999GF108991999999999999999999MA1099701999999MW1711REMMET071METAR LSGC 051550Z VRB02KT 7000 -SN SCT005 BKN010 OVC020 M01/M03 Q0997;
0147066045999992010010606204+47083+006783FM-15+1027LSGC V0202401N003110012019N0020001N1-00601-00701999999ADDGA1081+001201999GF108991999999999999999999MA1099591999999MW1711REMMET072METAR LSGC 060620Z 24006KT 200V260 2000 -SN OVC004 M06/M07 Q0996 SNOCLO;
0139066045999992010010606504+47083+006783FM-15+1027LSGC V0202401N004110012019N0020001N1-00601-00701999999ADDGA1081+001201999GF108991999999999999999999MA1099701999999MW1711REMMET064METAR LSGC 060650Z 24008KT 2000 -SN OVC004 M06/M07 Q0997 SNOCLO;
0147066045999992010010607204+47083+006783FM-15+1027LSGC V0202501N003610027019N0040001N1-00601-00701999999ADDGA1081+002701999GF108991999999999999999999MA1099701999999MW1711REMMET072METAR LSGC 060720Z 25007KT 200V270 4000 -SN OVC009 M06/M07 Q0997 SNOCLO;
0139066045999992010010607504+47083+006783FM-15+1027LSGC V0202401N002110027019N0040001N1-00601-00701999999ADDGA1081+002701999GF108991999999999999999999MA1099701999999MW1711REMMET064METAR LSGC 060750Z 24004KT 4000 -SN OVC009 M06/M07 Q0997 SNOCLO;
0140066045999992010010608204+47083+006783FM-15+1027LSGC V0209999V001510027019N0060001N1-00601-00701999999ADDGA1081+002701999GF108991999999999999999999MA1099701999999MW1161REMMET065METAR LSGC 060820Z VRB03KT 6000 VCSH OVC009 M06/M07 Q0997 SNOCLO;
0153066045999992010010608504+47083+006783FM-15+1027LSGC V0202201N001510024019N0070001N1-00601-00701999999ADDGA1071+002401999GA2081+003601999GF108991999999999999999999MA1099701999999REMMET068METAR LSGC 060850Z 22003KT 180V260 7000 BKN008 OVC012 M06/M07 Q0997;
0159066045999992010010609204+47083+006783FM-15+1027LSGC V0202201N002610024019N0060001N1-00501-00701999999ADDGA1071+002401999GA2081+003601999GF108991999999999999999999MA1099701999999REMMET074METAR LSGC 060920Z 22005KT 190V250 6000 -SHSN BKN008 OVC012 M05/M07 Q0997;
0159066045999992010010609504+47083+006783FM-15+1027LSGC V0202301N002110027019N0060001N1-00501-00701999999ADDGA1071+002701999GA2081+004501999GF108991999999999999999999MA1099801999999REMMET074METAR LSGC 060950Z 23004KT 190V260 6000 -SHSN BKN009 OVC015 M05/M07 Q0998;
0164066045999992010010610204+47083+006783FM-15+1027LSGC V0202401N002610027019N0060001N1-00501-00701999999ADDGA1071+002701999GA2081+004501999GF108991999999999999999999MA1099801999999MW1161REMMET073METAR LSGC 061020Z 24005KT 190V270 6000 VCSH BKN009 OVC015 M05/M07 Q0998;
0176066045999992010010610504+47083+006783FM-15+1027LSGC V0202401N002110036019N0060001N1-00501-00601999999ADDGA1041+001801999GA2071+003601999GA3071+006001999GF107991999999999999999999MA1099701999999REMMET075METAR LSGC 061050Z 24004KT 190V270 6000 SCT006 BKN012 BKN020 M05/M06 Q0997;
0176066045999992010010611204+47083+006783FM-15+1027LSGC V0202201N001510036019N0060001N1-00501-00601999999ADDGA1041+001801999GA2071+003601999GA3081+007501999GF108991999999999999999999MA1099701999999REMMET075METAR LSGC 061120Z 22003KT 180V260 6000 SCT006 BKN012 OVC025 M05/M06 Q0997;
0176066045999992010010611504+47083+006783FM-15+1027LSGC V0202001N002110036019N0112651N1-00501-00601999999ADDGA1041+001801999GA2071+003601999GA3081+007501999GF108991999999999999999999MA1099701999999REMMET075METAR LSGC 061150Z 20004KT 170V230 9999 SCT006 BKN012 OVC025 M05/M06 Q0997;
0176066045999992010010612204+47083+006783FM-15+1027LSGC V0202201N002110036019N0080001N1-00501-00601999999ADDGA1041+001801999GA2071+003601999GA3081+007501999GF108991999999999999999999MA1099701999999REMMET075METAR LSGC 061220Z 22004KT 180V270 8000 SCT006 BKN012 OVC025 M05/M06 Q0997;
0176066045999992010010612504+47083+006783FM-15+1027LSGC V0202501N002110036019N0070001N1-00501-00601999999ADDGA1041+001801999GA2071+003601999GA3081+007501999GF108991999999999999999999MA1099701999999REMMET075METAR LSGC 061250Z 25004KT 220V290 7000 SCT006 BKN012 OVC025 M05/M06 Q0997;
0176066045999992010010613204+47083+006783FM-15+1027LSGC V0202601N002110036019N0070001N1-00501-00601999999ADDGA1041+002401999GA2071+003601999GA3081+007501999GF108991999999999999999999MA1099701999999REMMET075METAR LSGC 061320Z 26004KT 210V310 7000 SCT008 BKN012 OVC025 M05/M06 Q0997;
0176066045999992010010613504+47083+006783FM-15+1027LSGC V0202501N002110036019N0070001N1-00501-00601999999ADDGA1041+002101999GA2071+003601999GA3081+007501999GF108991999999999999999999MA1099701999999REMMET075METAR LSGC 061350Z 25004KT 200V300 7000 SCT007 BKN012 OVC025 M05/M06 Q0997;
0176066045999992010010614204+47083+006783FM-15+1027LSGC V0202401N001510030019N0070001N1-00501-00601999999ADDGA1041+002101999GA2071+003001999GA3071+006001999GF107991999999999999999999MA1099701999999REMMET075METAR LSGC 061420Z 24003KT 200V270 7000 SCT007 BKN010 BKN020 M05/M06 Q0997;
0168066045999992010010614504+47083+006783FM-15+1027LSGC V0202101N002110030019N0070001N1-00601-00701999999ADDGA1041+002101999GA2071+003001999GA3071+006001999GF107991999999999999999999MA1099801999999REMMET067METAR LSGC 061450Z 21004KT 7000 SCT007 BKN010 BKN020 M06/M07 Q0998;
0145066045999992010010615204+47083+006783FM-15+1027LSGC V0209999V001010510019N0070001N1-00601-00701999999ADDGA1021+003001999GA2071+051001999GF107991999999999999999999MA1099801999999REMMET060METAR LSGC 061520Z VRB02KT 7000 FEW010 BKN170 M06/M07 Q0998;
0145066045999992010010615504+47083+006783FM-15+1027LSGC V0209999C000012200019N0090001N1-00801-00901999999ADDGA1021+003001999GA2041+051001999GF104991999999999999999999MA1099801999999REMMET060METAR LSGC 061550Z 00000KT 9000 FEW010 SCT170 M08/M09 Q0998;
0081066045999992010010706204+47083+006783FM-15+1027LSGC V0209999V001019999999Y0099001N1-01101-01201999999ADDMA1100101999999REMMET054METAR LSGC 070620Z VRB02KT CAVOK M11/M12 Q1001 SNOCLO;
0081066045999992010010707204+47083+006783FM-15+1027LSGC V0209999V000519999999Y0099001N1-00801-00901999999ADDMA1100201999999REMMET054METAR LSGC 070720Z VRB01KT CAVOK M08/M09 Q1002 SNOCLO;
0081066045999992010010707504+47083+006783FM-15+1027LSGC V0209999C000019999999Y0099001N1-00701-00801999999ADDMA1100201999999REMMET054METAR LSGC 070750Z 00000KT CAVOK M07/M08 Q1002 SNOCLO;
0122066045999992010010708204+47083+006783FM-15+1027LSGC V0209999V000510135019N0112651N1-00601-00701999999ADDGA1071+013501999GF107991999999999999999999MA1100201999999REMMET053METAR LSGC 070820Z VRB01KT 9999 BKN045 M06/M07 Q1002;
0074066045999992010010708504+47083+006783FM-15+1027LSGC V0209999V001019999999Y0099001N1-00601-00701999999ADDMA1100201999999REMMET047METAR LSGC 070850Z VRB02KT CAVOK M06/M07 Q1002;
0074066045999992010010709504+47083+006783FM-15+1027LSGC V0209999C000019999999Y0099001N1-00401-00701999999ADDMA1100311999999REMMET047METAR LSGC 070950Z 00000KT CAVOK M04/M07 Q1003;
0074066045999992010010710204+47083+006783FM-15+1027LSGC V0209999V001519999999Y0099001N1-00401-00701999999ADDMA1100311999999REMMET047METAR LSGC 071020Z VRB03KT CAVOK M04/M07 Q1003;
0074066045999992010010710504+47083+006783FM-15+1027LSGC V0201601N000519999999Y0099001N1-00401-00701999999ADDMA1100311999999REMMET047METAR LSGC 071050Z 16001KT CAVOK M04/M07 Q1003;
0145066045999992010010711204+47083+006783FM-15+1027LSGC V0209999V001510240019N0112651N1-00301-00701999999ADDGA1021+009601999GA2071+024001999GF107991999999999999999999MA1100311999999REMMET060METAR LSGC 071120Z VRB03KT 9999 FEW032 BKN080 M03/M07 Q1003;
0153066045999992010010711504+47083+006783FM-15+1027LSGC V0202101N001510180019N0112651N1-00301-00701999999ADDGA1021+009001999GA2071+018001999GF107991999999999999999999MA1100311999999REMMET068METAR LSGC 071150Z 21003KT 180V250 9999 FEW030 BKN060 M03/M07 Q1003;
0145066045999992010010712204+47083+006783FM-15+1027LSGC V0209999V001010180019N0112651N1-00301-00701999999ADDGA1021+009001999GA2071+018001999GF107991999999999999999999MA1100311999999REMMET060METAR LSGC 071220Z VRB02KT 9999 FEW030 BKN060 M03/M07 Q1003;
0153066045999992010010712504+47083+006783FM-15+1027LSGC V0202101N002110180019N0112651N1-00301-00701999999ADDGA1021+009001999GA2071+018001999GF107991999999999999999999MA1100311999999REMMET068METAR LSGC 071250Z 21004KT 190V250 9999 FEW030 BKN065 M03/M07 Q1003;
0145066045999992010010713204+47083+006783FM-15+1027LSGC V0209999V001010180019N0112651N1-00301-00701999999ADDGA1021+007501999GA2071+018001999GF107991999999999999999999MA1100311999999REMMET060METAR LSGC 071320Z VRB02KT 9999 FEW025 BKN060 M03/M07 Q1003;
0153066045999992010010713504+47083+006783FM-15+1027LSGC V0202501N002110069019N0112651N1-00301-00701999999ADDGA1071+006901999GA2071+018001999GF107991999999999999999999MA1100311999999REMMET068METAR LSGC 071350Z 25004KT 190V280 9999 BKN023 BKN060 M03/M07 Q1003;
0176066045999992010010714204+47083+006783FM-15+1027LSGC V0202501N003110090019N0112651N1-00301-00701999999ADDGA1021+007501999GA2071+009001999GA3071+018001999GF107991999999999999999999MA1100311999999REMMET075METAR LSGC 071420Z 25006KT 210V300 9999 FEW025 BKN030 BKN060 M03/M07 Q1003;
0153066045999992010010714504+47083+006783FM-15+1027LSGC V0202601N002610069019N0112651N1-00301-00701999999ADDGA1071+006901999GA2071+009001999GF107991999999999999999999MA1100411999999REMMET068METAR LSGC 071450Z 26005KT 230V310 9999 BKN023 BKN030 M03/M07 Q1004;
0176066045999992010010715204+47083+006783FM-15+1027LSGC V0202301N001510075019N0112651N1-00301-00601999999ADDGA1021+006001999GA2071+007501999GA3071+012001999GF107991999999999999999999MA1100411999999REMMET075METAR LSGC 071520Z 23003KT 200V270 9999 FEW020 BKN025 BKN040 M03/M06 Q1004;
0145066045999992010010716204+47083+006783FM-15+1027LSGC V0209999V000510180019N0112651N1-00401-00601999999ADDGA1021+007501999GA2071+018001999GF107991999999999999999999MA1100411999999REMMET060METAR LSGC 071620Z VRB01KT 9999 FEW025 BKN060 M04/M06 Q1004;
0145066045999992010010717204+47083+006783FM-15+1027LSGC V0209999C000010180019N0080001N1-00401-00601999999ADDGA1041+007501999GA2071+018001999GF107991999999999999999999MA1100511999999REMMET060METAR LSGC 071720Z 00000KT 8000 SCT025 BKN060 M04/M06 Q1005;
0163066045999992010010806204+47083+006783FM-15+1027LSGC V0200601N004110180019N0030001N1-00501-00601999999ADDGA1041+007501999GA2071+018001999GF107991999999999999999999MA1100201999999MW1711REMMET072METAR LSGC 080620Z 06008KT 030V120 3000 -SN SCT025 BKN060 M05/M06 Q1002;
0162066045999992010010806504+47083+006783FM-15+1027LSGC V0200501N005110180019N0030001N1-00501-00601999999ADDGA1041+003001999GA2071+018001999GF107991999999999999999999MA1100201999999MW1711REMMET071METAR LSGC 080650Z 05010KT 3000 -SN SCT010 BKN060 M05/M06 Q1002 SNOCLO;
0162066045999992010010807204+47083+006783FM-15+1027LSGC V0200501N005710045019N0030001N1-00501-00601999999ADDGA1071+004501999GA2081+012001999GF108991999999999999999999MA1100101999999MW1711REMMET071METAR LSGC 080720Z 05011KT 3000 -SN BKN015 OVC040 M05/M06 Q1001 SNOCLO;
0170066045999992010010807504+47083+006783FM-15+1027LSGC V0200501N005110045019N0030001N1-00501-00601999999ADDGA1071+004501999GA2081+012001999GF108991999999999999999999MA1100101999999MW1711REMMET079METAR LSGC 080750Z 05010KT 030V120 3000 -SN BKN015 OVC040 M05/M06 Q1001 SNOCLO;
0169066045999992010010808204+47083+006783FM-15+1027LSGC V0200601N004610030019N0015001N1-00501-00601999999ADDGA1071+003001999GA2081+007501999GF108991999999999999999999MA1100101999999MW1731REMMET078METAR LSGC 080820Z 06009KT 020V120 1500 SN BKN010 OVC025 M05/M06 Q1001 SNOCLO;
0170066045999992010010808504+47083+006783FM-15+1027LSGC V0200601N004610045019N0025001N1-00501-00601999999ADDGA1071+004501999GA2081+009001999GF108991999999999999999999MA1100101999999MW1711REMMET079METAR LSGC 080850Z 06009KT 020V080 2500 -SN BKN015 OVC030 M05/M06 Q1001 SNOCLO;
0161066045999992010010809204+47083+006783FM-15+1027LSGC V0200501N005710045019N0025001N1-00501-00601999999ADDGA1071+004501999GA2081+009001999GF108991999999999999999999MA1100001999999MW1731REMMET070METAR LSGC 080920Z 05011KT 2500 SN BKN015 OVC030 M05/M06 Q1000 SNOCLO;
0184066045999992010010809504+47083+006783FM-15+1027LSGC V0200601N005110030019N0015001N1-00501-00701999999ADDGA1021+002401999GA2071+003001999GA3081+006001999GF108991999999999999999999MA1100001999999MW1731REMMET077METAR LSGC 080950Z 06010KT 1500 SN FEW008 BKN010 OVC020 M05/M07 Q1000 SNOCLO;
0192066045999992010010810204+47083+006783FM-15+1027LSGC V0200501N006210030019N0020001N1-00501-00701999999ADDGA1021+002401999GA2071+003001999GA3081+006001999GF108991999999999999999999MA1100001999999MW1731REMMET085METAR LSGC 081020Z 05012KT 020V110 2000 SN FEW008 BKN010 OVC020 M05/M07 Q1000 SNOCLO;
0184066045999992010010811204+47083+006783FM-15+1027LSGC V0200401N007210030019N0015001N1-00601-00701999999ADDGA1021+002401999GA2071+003001999GA3081+006001999GF108991999999999999999999MA1099901999999MW1731REMMET077METAR LSGC 081120Z 04014KT 1500 SN FEW008 BKN010 OVC020 M06/M07 Q0999 SNOCLO;
0184066045999992010010811504+47083+006783FM-15+1027LSGC V0200401N005710030019N0010001N1-00601-00701999999ADDGA1021+002401999GA2071+003001999GA3081+006001999GF108991999999999999999999MA1099901999999MW1731REMMET077METAR LSGC 081150Z 04011KT 1000 SN FEW008 BKN010 OVC020 M06/M07 Q0999 SNOCLO;
0193066045999992010010812204+47083+006783FM-15+1027LSGC V0200501N006710030019N0015001N1-00601-00701999999ADDGA1021+001801999GA2071+003001999GA3081+006001999GF108991999999999999999999MA1099901999999MW1711REMMET086METAR LSGC 081220Z 05013KT 030V090 1500 -SN FEW006 BKN010 OVC020 M06/M07 Q0999 SNOCLO;
0193066045999992010010813204+47083+006783FM-15+1027LSGC V0200401N006210030019N0020001N1-00601-00701999999ADDGA1041+001501999GA2071+003001999GA3081+006001999GF108991999999999999999999MA1099801999999MW1711REMMET086METAR LSGC 081320Z 04012KT 010V070 2000 -SN SCT005 BKN010 OVC020 M06/M07 Q0998 SNOCLO;
0162066045999992010010813504+47083+006783FM-15+1027LSGC V0200401N006710015019N0015001N1-00601-00701999999ADDGA1071+001501999GA2081+003001999GF108991999999999999999999MA1099801999999MW1711REMMET071METAR LSGC 081350Z 04013KT 1500 -SN BKN005 OVC010 M06/M07 Q0998 SNOCLO;
0193066045999992010010814204+47083+006783FM-15+1027LSGC V0200501N006210015019N0015001N1-00601-00701999999ADDGA1021+000901999GA2071+001501999GA3081+003001999GF108991999999999999999999MA1099901999999MW1711REMMET086METAR LSGC 081420Z 05012KT 020V080 1500 -SN FEW003 BKN005 OVC010 M06/M07 Q0999 SNOCLO;
0193066045999992010010814504+47083+006783FM-15+1027LSGC V0200401N006710006019N0010001N1-00601-00701999999ADDGA1021+000301999GA2071+000601999GA3081+001501999GF108991999999999999999999MA1099901999999MW1711REMMET086METAR LSGC 081450Z 04013KT 350V080 1000 -SN FEW001 BKN002 OVC005 M06/M07 Q0999 SNOCLO;
0193066045999992010010815204+47083+006783FM-15+1027LSGC V0200401N006710006019N0008001N1-00701-00701999999ADDGA1021+000301999GA2071+000601999GA3081+001201999GF108991999999999999999999MA1099901999999MW1711REMMET086METAR LSGC 081520Z 04013KT 020V080 0800 -SN FEW001 BKN002 OVC004 M07/M07 Q0999 SNOCLO;
0185066045999992010010815504+47083+006783FM-15+1027LSGC V0200401N006710006019N0010001N1-00701-00701999999ADDGA1021+000301999GA2071+000601999GA3081+001201999GF108991999999999999999999MA1099901999999MW1711REMMET078METAR LSGC 081550Z 04013KT 1000 -SN FEW001 BKN002 OVC004 M07/M07 Q0999 SNOCLO;
0138066045999992010010906504+47083+006783FM-15+1027LSGC V0200401N004610006019N0020001N1-01001-01101999999ADDGA1081+000601999GF108991999999999999999999MA1099801999999MW1101REMMET063METAR LSGC 090650Z 04009KT 2000 BR OVC002 M10/M11 Q0998 SNOCLO;
0138066045999992010010907204+47083+006783FM-15+1027LSGC V0200401N004110009019N0020001N1-01001-01001999999ADDGA1081+000901999GF108991999999999999999999MA1099801999999MW1101REMMET063METAR LSGC 090720Z 04008KT 2000 BR OVC003 M10/M10 Q0998 SNOCLO;
0138066045999992010010907504+47083+006783FM-15+1027LSGC V0200401N004610009019N0020001N1-01001-01101999999ADDGA1081+000901999GF108991999999999999999999MA1099901999999MW1101REMMET063METAR LSGC 090750Z 04009KT 2000 BR OVC003 M10/M11 Q0999 SNOCLO;
0138066045999992010010908504+47083+006783FM-15+1027LSGC V0200401N003610012019N0020001N1-01001-01101999999ADDGA1081+001201999GF108991999999999999999999MA1099901999999MW1101REMMET063METAR LSGC 090850Z 04007KT 2000 BR OVC004 M10/M11 Q0999 SNOCLO;
0138066045999992010010909504+47083+006783FM-15+1027LSGC V0200501N003610012019N0020001N1-01001-01101999999ADDGA1081+001201999GF108991999999999999999999MA1099901999999MW1101REMMET063METAR LSGC 090950Z 05007KT 2000 BR OVC004 M10/M11 Q0999 SNOCLO;
0139066045999992010010910204+47083+006783FM-15+1027LSGC V0200301N002610024019N0030001N1-01001-01101999999ADDGA1081+002401999GF108991999999999999999999MA1099901999999MW1711REMMET064METAR LSGC 091020Z 03005KT 3000 -SN OVC008 M10/M11 Q0999 SNOCLO;
0147066045999992010010910504+47083+006783FM-15+1027LSGC V0200301N002610027019N0025001N1-01001-01101999999ADDGA1081+002701999GF108991999999999999999999MA1099901999999MW1711REMMET072METAR LSGC 091050Z 03005KT 350V060 2500 -SN OVC009 M10/M11 Q0999 SNOCLO;
0139066045999992010010911204+47083+006783FM-15+1027LSGC V0200401N002610024019N0025001N1-01001-01101999999ADDGA1081+002401999GF108991999999999999999999MA1099901999999MW1711REMMET064METAR LSGC 091120Z 04005KT 2500 -SN OVC008 M10/M11 Q0999 SNOCLO;
0147066045999992010010911504+47083+006783FM-15+1027LSGC V0200401N002110024019N0025001N1-01001-01101999999ADDGA1081+002401999GF108991999999999999999999MA1099901999999MW1711REMMET072METAR LSGC 091150Z 04004KT 010V090 2500 -SN OVC008 M10/M11 Q0999 SNOCLO;
0152066045999992010010912504+47083+006783FM-15+1027LSGC V0200401N003110015019N0025001N1-01001-01101999999ADDGA1071+001501999GA2081+003001999GF108991999999999999999999MA1099901999999REMMET067METAR LSGC 091250Z 04006KT 2500 BKN005 OVC010 M10/M11 Q0999 SNOCLO;
0139066045999992010010914504+47083+006783FM-15+1027LSGC V0200301N003610012019N0010001N1-01001-01101999999ADDGA1081+001201999GF108991999999999999999999MA1099901999999MW1711REMMET064METAR LSGC 091450Z 03007KT 1000 -SN OVC004 M10/M11 Q0999 SNOCLO;
0147066045999992010010915504+47083+006783FM-15+1027LSGC V0200401N002610012019N0010001N1-00901-01001999999ADDGA1081+001201999GF108991999999999999999999MA1099901999999MW1711REMMET072METAR LSGC 091550Z 04005KT 350V080 1000 -SN OVC004 M09/M10 Q0999 SNOCLO;
0110066045999992010011007204+47083+006783FM-15+1027LSGC V0209999C000012200019N0070001N1-01001-01101999999ADDGF100991999999999999999999MA1100511999999REMMET057METAR LSGC 100720Z 00000KT 7000 NSC M10/M11 Q1005 SNOCLO;
0110066045999992010011008504+47083+006783FM-15+1027LSGC V0209999V000512200019N0060001N1-01001-01101999999ADDGF100991999999999999999999MA1100611999999REMMET057METAR LSGC 100850Z VRB01KT 6000 NSC M10/M11 Q1006 SNOCLO;
0103066045999992010011009204+47083+006783FM-15+1027LSGC V0201901N000512200019N0060001N1-01001-01101999999ADDGF100991999999999999999999MA1100711999999REMMET050METAR LSGC 100920Z 19001KT 6000 NSC M10/M11 Q1007;
0103066045999992010011009504+47083+006783FM-15+1027LSGC V0209999C000012200019N0060001N1-00901-01101999999ADDGF100991999999999999999999MA1100711999999REMMET050METAR LSGC 100950Z 00000KT 6000 NSC M09/M11 Q1007;
0103066045999992010011010204+47083+006783FM-15+1027LSGC V0209999C000012200019N0070001N1-00801-01001999999ADDGF100991999999999999999999MA1100711999999REMMET050METAR LSGC 101020Z 00000KT 7000 NSC M08/M10 Q1007;
0122066045999992010011010504+47083+006783FM-15+1027LSGC V0209999V000512200019N0080001N1-00701-00901999999ADDGA1041+004501999GF104991999999999999999999MA1100711999999REMMET053METAR LSGC 101050Z VRB01KT 8000 SCT015 M07/M09 Q1007;
0122066045999992010011011204+47083+006783FM-15+1027LSGC V0201901N001512200019N0080001N1-00701-00901999999ADDGA1041+004501999GF104991999999999999999999MA1100711999999REMMET053METAR LSGC 101120Z 19003KT 8000 SCT015 M07/M09 Q1007;
0122066045999992010011011504+47083+006783FM-15+1027LSGC V0209999V001010042019N0070001N1-00701-01001999999ADDGA1071+004201999GF107991999999999999999999MA1100711999999REMMET053METAR LSGC 101150Z VRB02KT 7000 BKN014 M07/M10 Q1007;
0145066045999992010011012204+47083+006783FM-15+1027LSGC V0202001N001510048019N0070001N1-00701-01001999999ADDGA1041+002401999GA2071+004801999GF107991999999999999999999MA1100811999999REMMET060METAR LSGC 101220Z 20003KT 7000 SCT008 BKN016 M07/M10 Q1008;
0153066045999992010011012504+47083+006783FM-15+1027LSGC V0202201N001510048019N0070001N1-00701-00901999999ADDGA1041+002401999GA2071+004801999GF107991999999999999999999MA1100811999999REMMET068METAR LSGC 101250Z 22003KT 180V250 7000 SCT008 BKN016 M07/M09 Q1008;
0122066045999992010011013504+47083+006783FM-15+1027LSGC V0209999V000510048019N0070001N1-00701-01001999999ADDGA1071+004801999GF107991999999999999999999MA1100811999999REMMET053METAR LSGC 101350Z VRB01KT 7000 BKN016 M07/M10 Q1008;
0122066045999992010011014204+47083+006783FM-15+1027LSGC V0202001N001010045019N0070001N1-00701-01001999999ADDGA1071+004501999GF107991999999999999999999MA1100811999999REMMET053METAR LSGC 101420Z 20002KT 7000 BKN015 M07/M10 Q1008;
0122066045999992010011014504+47083+006783FM-15+1027LSGC V0209999V001010045019N0070001N1-00701-00901999999ADDGA1071+004501999GF107991999999999999999999MA1100811999999REMMET053METAR LSGC 101450Z VRB02KT 7000 BKN015 M07/M09 Q1008;
0122066045999992010011015204+47083+006783FM-15+1027LSGC V0209999V001010045019N0070001N1-00701-01001999999ADDGA1071+004501999GF107991999999999999999999MA1100911999999REMMET053METAR LSGC 101520Z VRB02KT 7000 BKN015 M07/M10 Q1009;
0122066045999992010011015504+47083+006783FM-15+1027LSGC V0209999V000510045019N0070001N1-00701-01001999999ADDGA1071+004501999GF107991999999999999999999MA1100911999999REMMET053METAR LSGC 101550Z VRB01KT 7000 BKN015 M07/M10 Q1009;
0074066045999992010011106204+47083+006783FM-15+1027LSGC V0209999C000019999999Y0099001N1-01501-01601999999ADDMA1100911999999REMMET047METAR LSGC 110620Z 00000KT CAVOK M15/M16 Q1009;
0074066045999992010011106504+47083+006783FM-15+1027LSGC V0209999C000019999999Y0099001N1-01401-01501999999ADDMA1100911999999REMMET047METAR LSGC 110650Z 00000KT CAVOK M14/M15 Q1009;
0074066045999992010011107204+47083+006783FM-15+1027LSGC V0209999C000019999999Y0099001N1-01401-01601999999ADDMA1100911999999REMMET047METAR LSGC 110720Z 00000KT CAVOK M14/M16 Q1009;
0074066045999992010011107504+47083+006783FM-15+1027LSGC V0209999C000019999999Y0099001N1-01301-01401999999ADDMA1101021999999REMMET047METAR LSGC 110750Z 00000KT CAVOK M13/M14 Q1010;
0074066045999992010011108204+47083+006783FM-15+1027LSGC V0202401N000519999999Y0099001N1-01201-01301999999ADDMA1101021999999REMMET047METAR LSGC 110820Z 24001KT CAVOK M12/M13 Q1010;
0074066045999992010011108504+47083+006783FM-15+1027LSGC V0209999C000019999999Y0099001N1-01301-01401999999ADDMA1101021999999REMMET047METAR LSGC 110850Z 00000KT CAVOK M13/M14 Q1010;
0074066045999992010011109204+47083+006783FM-15+1027LSGC V0202501N001019999999Y0099001N1-01001-01101999999ADDMA1101021999999REMMET047METAR LSGC 110920Z 25002KT CAVOK M10/M11 Q1010;
0074066045999992010011109504+47083+006783FM-15+1027LSGC V0202301N001519999999Y0099001N1-01001-01101999999ADDMA1101021999999REMMET047METAR LSGC 110950Z 23003KT CAVOK M10/M11 Q1010;
0074066045999992010011110204+47083+006783FM-15+1027LSGC V0202401N001519999999Y0099001N1-00801-01001999999ADDMA1101081999999REMMET047METAR LSGC 111020Z 24003KT CAVOK M08/M10 Q1011;
0074066045999992010011110504+47083+006783FM-15+1027LSGC V0209999V001019999999Y0099001N1-00701-00901999999ADDMA1101081999999REMMET047METAR LSGC 111050Z VRB02KT CAVOK M07/M09 Q1011;
0074066045999992010011111204+47083+006783FM-15+1027LSGC V0202501N001019999999Y0099001N1-00601-00901999999ADDMA1101081999999REMMET047METAR LSGC 111120Z 25002KT CAVOK M06/M09 Q1011;
0082066045999992010011111504+47083+006783FM-15+1027LSGC V0202101N002119999999Y0099001N1-00501-00801999999ADDMA1101021999999REMMET055METAR LSGC 111150Z 21004KT 190V270 CAVOK M05/M08 Q1010;
0074066045999992010011112204+47083+006783FM-15+1027LSGC V0202101N001519999999Y0099001N1-00501-00701999999ADDMA1101021999999REMMET047METAR LSGC 111220Z 21003KT CAVOK M05/M07 Q1010;
0074066045999992010011112504+47083+006783FM-15+1027LSGC V0202101N002119999999Y0099001N1-00401-00701999999ADDMA1101021999999REMMET047METAR LSGC 111250Z 21004KT CAVOK M04/M07 Q1010;
0074066045999992010011113204+47083+006783FM-15+1027LSGC V0202101N002619999999Y0099001N1-00401-00701999999ADDMA1101021999999REMMET047METAR LSGC 111320Z 21005KT CAVOK M04/M07 Q1010;
0082066045999992010011113504+47083+006783FM-15+1027LSGC V0202101N002619999999Y0099001N1-00501-00801999999ADDMA1101021999999REMMET055METAR LSGC 111350Z 21005KT 190V260 CAVOK M05/M08 Q1010;
0074066045999992010011115504+47083+006783FM-15+1027LSGC V0209999V000519999999Y0099001N1-00701-00901999999ADDMA1101081999999REMMET047METAR LSGC 111550Z VRB01KT CAVOK M07/M09 Q1011;
0074066045999992010011116204+47083+006783FM-15+1027LSGC V0209999V000519999999Y0099001N1-00901-01001999999ADDMA1101081999999REMMET047METAR LSGC 111620Z VRB01KT CAVOK M09/M10 Q1011;
0074066045999992010011116504+47083+006783FM-15+1027LSGC V0209999C000019999999Y0099001N1-00901-01101999999ADDMA1101191999999REMMET047METAR LSGC 111650Z 00000KT CAVOK M09/M11 Q1012;
0074066045999992010011117204+47083+006783FM-15+1027LSGC V0209999C000019999999Y0099001N1-01001-01101999999ADDMA1101191999999REMMET047METAR LSGC 111720Z 00000KT CAVOK M10/M11 Q1012;
0103066045999992010011206204+47083+006783FM-15+1027LSGC V0209999C000012200019N0070001N1-00801-00901999999ADDGF100991999999999999999999MA1101081999999REMMET050METAR LSGC 120620Z 00000KT 7000 NSC M08/M09 Q1011;
0103066045999992010011206504+47083+006783FM-15+1027LSGC V0200101N000512200019N0070001N1-00801-00901999999ADDGF100991999999999999999999MA1101021999999REMMET050METAR LSGC 120650Z 01001KT 7000 NSC M08/M09 Q1010;
0103066045999992010011207204+47083+006783FM-15+1027LSGC V0200401N000512200019N0080001N1-00801-01001999999ADDGF100991999999999999999999MA1101021999999REMMET050METAR LSGC 120720Z 04001KT 8000 NSC M08/M10 Q1010;
0074066045999992010011207504+47083+006783FM-15+1027LSGC V0209999C000019999999Y0099001N1-00901-01001999999ADDMA1101021999999REMMET047METAR LSGC 120750Z 00000KT CAVOK M09/M10 Q1010;
0074066045999992010011208204+47083+006783FM-15+1027LSGC V0200401N000519999999Y0099001N1-00901-01001999999ADDMA1101021999999REMMET047METAR LSGC 120820Z 04001KT CAVOK M09/M10 Q1010;
0074066045999992010011208504+47083+006783FM-15+1027LSGC V0209999C000019999999Y0099001N1-01101-01201999999ADDMA1100911999999REMMET047METAR LSGC 120850Z 00000KT CAVOK M11/M12 Q1009;
0122066045999992010011209204+47083+006783FM-15+1027LSGC V0209999C000012200019N0080001N1-00901-01001999999ADDGA1021+003001999GF102991999999999999999999MA1100911999999REMMET053METAR LSGC 120920Z 00000KT 8000 FEW010 M09/M10 Q1009;
0122066045999992010011209504+47083+006783FM-15+1027LSGC V0209999C000012200019N0080001N1-00701-00901999999ADDGA1021+003001999GF102991999999999999999999MA1100911999999REMMET053METAR LSGC 120950Z 00000KT 8000 FEW010 M07/M09 Q1009;
0122066045999992010011210204+47083+006783FM-15+1027LSGC V0209999V000512200019N0080001N1-00501-00701999999ADDGA1021+003001999GF102991999999999999999999MA1100811999999REMMET053METAR LSGC 121020Z VRB01KT 8000 FEW010 M05/M07 Q1008;
0122066045999992010011210504+47083+006783FM-15+1027LSGC V0209999C000012200019N0080001N1-00501-00701999999ADDGA1021+003001999GF102991999999999999999999MA1100811999999REMMET053METAR LSGC 121050Z 00000KT 8000 FEW010 M05/M07 Q1008;
0130066045999992010011211204+47083+006783FM-15+1027LSGC V0202301N001512200019N0080001N1-00401-00601999999ADDGA1021+003001999GF102991999999999999999999MA1100711999999REMMET061METAR LSGC 121120Z 23003KT 160V290 8000 FEW010 M04/M06 Q1007;
0130066045999992010011211504+47083+006783FM-15+1027LSGC V0202101N001512200019N0080001N1-00301-00501999999ADDGA1021+003001999GF102991999999999999999999MA1100711999999REMMET061METAR LSGC 121150Z 21003KT 180V250 8000 FEW010 M03/M05 Q1007;
0122066045999992010011212204+47083+006783FM-15+1027LSGC V0209999V001512200019N0090001N1-00201-00601999999ADDGA1021+003001999GF102991999999999999999999MA1100711999999REMMET053METAR LSGC 121220Z VRB03KT 9000 FEW010 M02/M06 Q1007;
0130066045999992010011212504+47083+006783FM-15+1027LSGC V0202401N001512200019N0090001N1-00201-00601999999ADDGA1021+003001999GF102991999999999999999999MA1100611999999REMMET061METAR LSGC 121250Z 24003KT 190V280 9000 FEW010 M02/M06 Q1006;
0130066045999992010011213204+47083+006783FM-15+1027LSGC V0202301N002612200019N0090001N1-00201-00601999999ADDGA1021+003001999GF102991999999999999999999MA1100511999999REMMET061METAR LSGC 121320Z 23005KT 200V260 9000 FEW010 M02/M06 Q1005;
0130066045999992010011213504+47083+006783FM-15+1027LSGC V0202501N002612200019N0090001N1-00201-00601999999ADDGA1021+003001999GF102991999999999999999999MA1100511999999REMMET061METAR LSGC 121350Z 25005KT 210V290 9000 FEW010 M02/M06 Q1005;
0130066045999992010011214204+47083+006783FM-15+1027LSGC V0202101N003112200019N0080001N1-00201-00701999999ADDGA1021+003001999GF102991999999999999999999MA1100511999999REMMET061METAR LSGC 121420Z 21006KT 180V260 8000 FEW010 M02/M07 Q1005;
0130066045999992010011214504+47083+006783FM-15+1027LSGC V0202401N001512200019N0080001N1-00201-00701999999ADDGA1021+003001999GF102991999999999999999999MA1100411999999REMMET061METAR LSGC 121450Z 24003KT 190V340 8000 FEW010 M02/M07 Q1004;
0130066045999992010011215204+47083+006783FM-15+1027LSGC V0202101N002112200019N0080001N1-00301-00701999999ADDGA1021+003001999GF102991999999999999999999MA1100411999999REMMET061METAR LSGC 121520Z 21004KT 170V250 8000 FEW010 M03/M07 Q1004;
0122066045999992010011215504+47083+006783FM-15+1027LSGC V0209999V000512200019N0080001N1-00601-00801999999ADDGA1021+003001999GF102991999999999999999999MA1100311999999REMMET053METAR LSGC 121550Z VRB01KT 8000 FEW010 M06/M08 Q1003;
0122066045999992010011216504+47083+006783FM-15+1027LSGC V0209999V000512200019N0080001N1-00701-00901999999ADDGA1021+003001999GF102991999999999999999999MA1100311999999REMMET053METAR LSGC 121650Z VRB01KT 8000 FEW010 M07/M09 Q1003;
0146066045999992010011306204+47083+006783FM-15+1027LSGC V0202301N003610030019N0020001N1-00101-00301999999ADDGA1081+003001999GF108991999999999999999999MA1100101999999MW1731REMMET071METAR LSGC 130620Z 23007KT 190V270 2000 SN OVC010 M01/M03 Q1001 SNOCLO;
0169066045999992010011306504+47083+006783FM-15+1027LSGC V0202201N002610030019N0020001N1-00101-00201999999ADDGA1071+003001999GA2081+007201999GF108991999999999999999999MA1100101999999MW1731REMMET078METAR LSGC 130650Z 22005KT 180V250 2000 SN BKN010 OVC024 M01/M02 Q1001 SNOCLO;
0169066045999992010011307504+47083+006783FM-15+1027LSGC V0202301N001510030019N0020001N1-00101-00201999999ADDGA1071+003001999GA2081+003901999GF108991999999999999999999MA1100201999999MW1731REMMET078METAR LSGC 130750Z 23003KT 190V260 2000 SN BKN010 OVC013 M01/M02 Q1002 SNOCLO;
0192066045999992010011308204+47083+006783FM-15+1027LSGC V0202101N001510030019N0020001N1-00101-00201999999ADDGA1021+002401999GA2071+003001999GA3081+003901999GF108991999999999999999999MA1100201999999MW1731REMMET085METAR LSGC 130820Z 21003KT 170V260 2000 SN FEW008 BKN010 OVC013 M01/M02 Q1002 SNOCLO;
0192066045999992010011308504+47083+006783FM-15+1027LSGC V0202301N002110036019N0020001N1-00101-00201999999ADDGA1021+002401999GA2071+003601999GA3081+005401999GF108991999999999999999999MA1100201999999MW1731REMMET085METAR LSGC 130850Z 23004KT 190V260 2000 SN FEW008 BKN012 OVC018 M01/M02 Q1002 SNOCLO;
0192066045999992010011309504+47083+006783FM-15+1027LSGC V0202301N002110036019N0012001N1+00001-00101999999ADDGA1021+002401999GA2071+003601999GA3081+006001999GF108991999999999999999999MA1100311999999MW1731REMMET085METAR LSGC 130950Z 23004KT 200V260 1200 SN FEW008 BKN012 OVC020 M00/M01 Q1003 SNOCLO;
0192066045999992010011310204+47083+006783FM-15+1027LSGC V0202201N002110036019N0012001N1+00001-00101999999ADDGA1021+002401999GA2071+003601999GA3081+006001999GF108991999999999999999999MA1100311999999MW1731REMMET085METAR LSGC 131020Z 22004KT 180V250 1200 SN FEW008 BKN012 OVC020 M00/M01 Q1003 SNOCLO;
0161066045999992010011310504+47083+006783FM-15+1027LSGC V0202201N002610024019N0020001N1+00001-00101999999ADDGA1071+002401999GA2081+004501999GF108991999999999999999999MA1100311999999MW1711REMMET070METAR LSGC 131050Z 22005KT 2000 -SN BKN008 OVC015 00/M01 Q1003 SNOCLO;
0168066045999992010011311204+47083+006783FM-15+1027LSGC V0202201N002610024019N0020001N1+00001-00101999999ADDGA1071+002401999GA2081+004501999GF108991999999999999999999MA1100311999999MW1731REMMET077METAR LSGC 131120Z 22005KT 190V260 2000 SN BKN008 OVC015 00/M01 Q1003 SNOCLO;
0168066045999992010011311504+47083+006783FM-15+1027LSGC V0202201N002610024019N0020001N1+00001+00001999999ADDGA1071+002401999GA2081+004501999GF108991999999999999999999MA1100311999999MW1731REMMET077METAR LSGC 131150Z 22005KT 190V270 2000 SN BKN008 OVC015 00/M00 Q1003 SNOCLO;
0168066045999992010011312204+47083+006783FM-15+1027LSGC V0202201N003110018019N0020001N1+00001+00001999999ADDGA1071+001801999GA2081+003601999GF108991999999999999999999MA1100311999999MW1731REMMET077METAR LSGC 131220Z 22006KT 190V260 2000 SN BKN006 OVC012 00/M00 Q1003 SNOCLO;
0168066045999992010011313504+47083+006783FM-15+1027LSGC V0202201N003110018019N0020001N1+00101+00001999999ADDGA1071+001801999GA2081+003601999GF108991999999999999999999MA1100411999999MW1731REMMET077METAR LSGC 131350Z 22006KT 190V260 2000 SN BKN006 OVC012 01/M00 Q1004 SNOCLO;
0161066045999992010011314204+47083+006783FM-15+1027LSGC V0202201N002610018019N0020001N1+00101+00001999999ADDGA1071+001801999GA2081+003601999GF108991999999999999999999MA1100411999999MW1711REMMET070METAR LSGC 131420Z 22005KT 190V250 2000 -SN BKN006 OVC012 01/00 Q1004;
0161066045999992010011314504+47083+006783FM-15+1027LSGC V0202301N003110018019N0010001N1+00101+00001999999ADDGA1071+001801999GA2081+003601999GF108991999999999999999999MA1100411999999MW1731REMMET070METAR LSGC 131450Z 23006KT 190V260 1000 SN BKN006 OVC012 01/M00 Q1004;
0184066045999992010011315204+47083+006783FM-15+1027LSGC V0202301N003610024019N0015001N1+00101+00001999999ADDGA1021+001501999GA2071+002401999GA3081+004801999GF108991999999999999999999MA1100511999999MW1731REMMET077METAR LSGC 131520Z 23007KT 200V260 1500 SN FEW005 BKN008 OVC016 01/M00 Q1005;
0185066045999992010011315504+47083+006783FM-15+1027LSGC V0202301N003110030019N0015001N1+00001+00001999999ADDGA1021+002401999GA2071+003001999GA3081+006001999GF108991999999999999999999MA1100511999999MW1711REMMET078METAR LSGC 131550Z 23006KT 200V270 1500 -SN FEW008 BKN010 OVC020 00/M00 Q1005;
0185066045999992010011316204+47083+006783FM-15+1027LSGC V0202301N003610030019N0015001N1+00001+00001999999ADDGA1021+001801999GA2071+003001999GA3081+006001999GF108991999999999999999999MA1100511999999MW1711REMMET078METAR LSGC 131620Z 23007KT 190V270 1500 -SN FEW006 BKN010 OVC020 00/M00 Q1005;
0137066045999992010011406204+47083+006783FM-15+1027LSGC V0200201N002112200019N0112651N1-00401-00401999999ADDGA1021+003001999GF102991999999999999999999MA1100201999999REMMET068METAR LSGC 140620Z 02004KT 350V050 9999 FEW010 M04/M04 Q1002 SNOCLO;
0129066045999992010011407204+47083+006783FM-15+1027LSGC V0209999V001512200019N0112651N1-00401-00501999999ADDGA1021+003001999GF102991999999999999999999MA1100201999999REMMET060METAR LSGC 140720Z VRB03KT 9999 FEW010 M04/M05 Q1002 SNOCLO;
0122066045999992010011408504+47083+006783FM-15+1027LSGC V0209999C000012200019N0112651N1-00401-00401999999ADDGA1021+003001999GF102991999999999999999999MA1100201999999REMMET053METAR LSGC 140850Z 00000KT 9999 FEW010 M04/M04 Q1002;
0074066045999992010011409204+47083+006783FM-15+1027LSGC V0200401N004119999999Y0099001N1-00101-00201999999ADDMA1100101999999REMMET047METAR LSGC 140920Z 04008KT CAVOK M01/M02 Q1001;
0082066045999992010011409504+47083+006783FM-15+1027LSGC V0200401N002119999999Y0099001N1+00001-00301999999ADDMA1100101999999REMMET055METAR LSGC 140950Z 04004KT 360V070 CAVOK M00/M03 Q1001;
0081066045999992010011410504+47083+006783FM-15+1027LSGC V0200401N002119999999Y0099001N1+00201-00301999999ADDMA1100101999999REMMET054METAR LSGC 141050Z 04004KT 010V110 CAVOK 02/M03 Q1001;
0081066045999992010011411204+47083+006783FM-15+1027LSGC V0200501N002619999999Y0099001N1+00101-00301999999ADDMA1100101999999REMMET054METAR LSGC 141120Z 05005KT 030V090 CAVOK 01/M03 Q1001;
0081066045999992010011412204+47083+006783FM-15+1027LSGC V0200501N002119999999Y0099001N1+00201-00301999999ADDMA1100101999999REMMET054METAR LSGC 141220Z 05004KT 020V120 CAVOK 02/M03 Q1001;
0073066045999992010011412504+47083+006783FM-15+1027LSGC V0200301N001519999999Y0099001N1+00201-00301999999ADDMA1100101999999REMMET046METAR LSGC 141250Z 03003KT CAVOK 02/M03 Q1001;
0073066045999992010011413204+47083+006783FM-15+1027LSGC V0209999V001519999999Y0099001N1+00201-00201999999ADDMA1100101999999REMMET046METAR LSGC 141320Z VRB03KT CAVOK 02/M02 Q1001;
0073066045999992010011413504+47083+006783FM-15+1027LSGC V0209999V001019999999Y0099001N1+00201-00301999999ADDMA1100101999999REMMET046METAR LSGC 141350Z VRB02KT CAVOK 02/M03 Q1001;
0073066045999992010011414204+47083+006783FM-15+1027LSGC V0209999V001019999999Y0099001N1+00101-00201999999ADDMA1100101999999REMMET046METAR LSGC 141420Z VRB02KT CAVOK 01/M02 Q1001;
0073066045999992010011414504+47083+006783FM-15+1027LSGC V0209999V001019999999Y0099001N1+00001-00201999999ADDMA1100101999999REMMET046METAR LSGC 141450Z VRB02KT CAVOK 00/M02 Q1001;
0073066045999992010011415204+47083+006783FM-15+1027LSGC V0200501N000519999999Y0099001N1+00001-00201999999ADDMA1100101999999REMMET046METAR LSGC 141520Z 05001KT CAVOK 00/M02 Q1001;
0074066045999992010011415504+47083+006783FM-15+1027LSGC V0209999C000019999999Y0099001N1+00001-00201999999ADDMA1100101999999REMMET047METAR LSGC 141550Z 00000KT CAVOK M00/M02 Q1001;
0074066045999992010011416204+47083+006783FM-15+1027LSGC V0209999V000519999999Y0099001N1-00101-00201999999ADDMA1100201999999REMMET047METAR LSGC 141620Z VRB01KT CAVOK M01/M02 Q1002;
0122066045999992010011506504+47083+006783FM-15+1027LSGC V0209999V001512200019N0112651N1-00401-00401999999ADDGA1021+002401999GF102991999999999999999999MA1101391999999REMMET053METAR LSGC 150650Z VRB03KT 9999 FEW008 M04/M04 Q1014;
0122066045999992010011507204+47083+006783FM-15+1027LSGC V0202501N001512200019N0090001N1-00301-00401999999ADDGA1041+001801999GF104991999999999999999999MA1101491999999REMMET053METAR LSGC 150720Z 25003KT 9000 SCT006 M03/M04 Q1015;
0145066045999992010011507504+47083+006783FM-15+1027LSGC V0202301N001012200019N0090001N1-00301-00301999999ADDGA1021+002401999GA2041+033001999GF104991999999999999999999MA1101491999999REMMET060METAR LSGC 150750Z 23002KT 9000 FEW008 SCT110 M03/M03 Q1015;
0145066045999992010011508204+47083+006783FM-15+1027LSGC V0209999V001012200019N0090001N1-00501-00501999999ADDGA1021+002401999GA2041+024001999GF104991999999999999999999MA1101591999999REMMET060METAR LSGC 150820Z VRB02KT 9000 FEW008 SCT080 M05/M05 Q1016;
0122066045999992010011508504+47083+006783FM-15+1027LSGC V0202501N001512200019N0090001N1-00301-00301999999ADDGA1021+003001999GF102991999999999999999999MA1101591999999REMMET053METAR LSGC 150850Z 25003KT 9000 FEW010 M03/M03 Q1016;
0074066045999992010011509204+47083+006783FM-15+1027LSGC V0202201N001519999999Y0099001N1-00201-00301999999ADDMA1101691999999REMMET047METAR LSGC 150920Z 22003KT CAVOK M02/M03 Q1017;
0074066045999992010011509504+47083+006783FM-15+1027LSGC V0202401N002119999999Y0099001N1-00201-00301999999ADDMA1101691999999REMMET047METAR LSGC 150950Z 24004KT CAVOK M02/M03 Q1017;
0074066045999992010011510204+47083+006783FM-15+1027LSGC V0202401N001019999999Y0099001N1-00101-00201999999ADDMA1101691999999REMMET047METAR LSGC 151020Z 24002KT CAVOK M01/M02 Q1017;
0074066045999992010011510504+47083+006783FM-15+1027LSGC V0202301N001519999999Y0099001N1+00001-00201999999ADDMA1101691999999REMMET047METAR LSGC 151050Z 23003KT CAVOK M00/M02 Q1017;
0081066045999992010011511204+47083+006783FM-15+1027LSGC V0202201N001519999999Y0099001N1+00101-00101999999ADDMA1101691999999REMMET054METAR LSGC 151120Z 22003KT 180V250 CAVOK 01/M01 Q1017;
0081066045999992010011511504+47083+006783FM-15+1027LSGC V0202101N002119999999Y0099001N1+00201-00101999999ADDMA1101801999999REMMET054METAR LSGC 151150Z 21004KT 180V260 CAVOK 02/M01 Q1018;
0073066045999992010011512204+47083+006783FM-15+1027LSGC V0209999V001519999999Y0099001N1+00201-00101999999ADDMA1101801999999REMMET046METAR LSGC 151220Z VRB03KT CAVOK 02/M01 Q1018;
0073066045999992010011512504+47083+006783FM-15+1027LSGC V0209999V001519999999Y0099001N1+00201-00101999999ADDMA1101801999999REMMET046METAR LSGC 151250Z VRB03KT CAVOK 02/M01 Q1018;
0073066045999992010011514504+47083+006783FM-15+1027LSGC V0209999V000519999999Y0099001N1+00101-00101999999ADDMA1101901999999REMMET046METAR LSGC 151450Z VRB01KT CAVOK 01/M01 Q1019;
0073066045999992010011515204+47083+006783FM-15+1027LSGC V0202401N000519999999Y0099001N1+00101-00101999999ADDMA1101901999999REMMET046METAR LSGC 151520Z 24001KT CAVOK 01/M01 Q1019;
0074066045999992010011515504+47083+006783FM-15+1027LSGC V0209999C000019999999Y0099001N1-00101-00301999999ADDMA1102001999999REMMET047METAR LSGC 151550Z 00000KT CAVOK M01/M03 Q1020;
0074066045999992010011516204+47083+006783FM-15+1027LSGC V0209999C000019999999Y0099001N1-00201-00301999999ADDMA1102001999999REMMET047METAR LSGC 151620Z 00000KT CAVOK M02/M03 Q1020;
0082066045999992010011606204+47083+006783FM-15+1027LSGC V0202801N001519999999Y0099001N1-00201-00601999999ADDMA1101691999999REMMET055METAR LSGC 160620Z 28003KT 210V030 CAVOK M02/M06 Q1017;
0074066045999992010011606504+47083+006783FM-15+1027LSGC V0209999V001519999999Y0099001N1-00201-00601999999ADDMA1101691999999REMMET047METAR LSGC 160650Z VRB03KT CAVOK M02/M06 Q1017;
0074066045999992010011607204+47083+006783FM-15+1027LSGC V0209999V002619999999Y0099001N1+00001-00601999999ADDMA1101691999999REMMET047METAR LSGC 160720Z VRB05KT CAVOK M00/M06 Q1017;
0074066045999992010011607504+47083+006783FM-15+1027LSGC V0209999V001519999999Y0099001N1-00101-00601999999ADDMA1101691999999REMMET047METAR LSGC 160750Z VRB03KT CAVOK M01/M06 Q1017;
0073066045999992010011608204+47083+006783FM-15+1027LSGC V0209999V003619999999Y0099001N1+00001-00701999999ADDMA1101591999999REMMET046METAR LSGC 160820Z VRB07KT CAVOK 00/M07 Q1016;
0073066045999992010011608504+47083+006783FM-15+1027LSGC V0209999V000519999999Y0099001N1+00101-00701999999ADDMA1101591999999REMMET046METAR LSGC 160850Z VRB01KT CAVOK 01/M07 Q1016;
0073066045999992010011609204+47083+006783FM-15+1027LSGC V0209999V001019999999Y0099001N1+00201-00601999999ADDMA1101591999999REMMET046METAR LSGC 160920Z VRB02KT CAVOK 02/M06 Q1016;
0073066045999992010011610204+47083+006783FM-15+1027LSGC V0209999V000519999999Y0099001N1+00101-00601999999ADDMA1101591999999REMMET046METAR LSGC 161020Z VRB01KT CAVOK 01/M06 Q1016;
0073066045999992010011611204+47083+006783FM-15+1027LSGC V0209999V000519999999Y0099001N1+00201-00401999999ADDMA1101591999999REMMET046METAR LSGC 161120Z VRB01KT CAVOK 02/M04 Q1016;
0073066045999992010011611504+47083+006783FM-15+1027LSGC V0209999V001019999999Y0099001N1+00301-00401999999ADDMA1101491999999REMMET046METAR LSGC 161150Z VRB02KT CAVOK 03/M04 Q1015;
0073066045999992010011612204+47083+006783FM-15+1027LSGC V0209999V000519999999Y0099001N1+00201-00401999999ADDMA1101491999999REMMET046METAR LSGC 161220Z VRB01KT CAVOK 02/M04 Q1015;
0081066045999992010011612504+47083+006783FM-15+1027LSGC V0202301N002619999999Y0099001N1+00301-00301999999ADDMA1101391999999REMMET054METAR LSGC 161250Z 23005KT 160V280 CAVOK 03/M03 Q1014;
0081066045999992010011613204+47083+006783FM-15+1027LSGC V0202201N003119999999Y0099001N1+00401-00401999999ADDMA1101391999999REMMET054METAR LSGC 161320Z 22006KT 190V260 CAVOK 04/M04 Q1014;
0081066045999992010011613504+47083+006783FM-15+1027LSGC V0202201N003619999999Y0099001N1+00401-00301999999ADDMA1101391999999REMMET054METAR LSGC 161350Z 22007KT 190V260 CAVOK 04/M03 Q1014;
0081066045999992010011614204+47083+006783FM-15+1027LSGC V0202201N003119999999Y0099001N1+00301-00301999999ADDMA1101391999999REMMET054METAR LSGC 161420Z 22006KT 190V250 CAVOK 03/M03 Q1014;
0073066045999992010011615204+47083+006783FM-15+1027LSGC V0202101N003619999999Y0099001N1+00401-00301999999ADDMA1101391999999REMMET046METAR LSGC 161520Z 21007KT CAVOK 04/M03 Q1014;
0073066045999992010011616204+47083+006783FM-15+1027LSGC V0202201N001519999999Y0099001N1+00301-00201999999ADDMA1101391999999REMMET046METAR LSGC 161620Z 22003KT CAVOK 03/M02 Q1014;
0073066045999992010011616504+47083+006783FM-15+1027LSGC V0202501N001519999999Y0099001N1+00301-00101999999ADDMA1101391999999REMMET046METAR LSGC 161650Z 25003KT CAVOK 03/M01 Q1014;
0152066045999992010011707204+47083+006783FM-15+1027LSGC V0202401N005710033019N0060001N1+00201+00101999999ADDGA1041+002701999GA2081+003301999GF108991999999999999999999MA1101491999999MW1631REMMET061METAR LSGC 170720Z 24011KT 6000 RA SCT009 OVC011 02/01 Q1015;
0160066045999992010011707504+47083+006783FM-15+1027LSGC V0202301N005710033019N0060001N1+00201+00201999999ADDGA1041+002701999GA2081+003301999GF108991999999999999999999MA1101591999999MW1631REMMET069METAR LSGC 170750Z 23011KT 200V260 6000 RA SCT009 OVC011 02/02 Q1016;
0160066045999992010011708204+47083+006783FM-15+1027LSGC V0202401N005110033019N0060001N1+00201+00101999999ADDGA1041+002701999GA2081+003301999GF108991999999999999999999MA1101691999999MW1631REMMET069METAR LSGC 170820Z 24010KT 210V280 6000 RA SCT009 OVC011 02/01 Q1017;
0187066045999992010011708504+47083+006783FM-15+1027LSGC V0202301N004610039019N0040001N1+00101+00001999999ADDGA1041+003001999GA2071+003901999GA3081+006601999GF108991999999999999999999MA1101691999999MW1841REMMET080METAR LSGC 170850Z 23009KT 200V260 4000 SHRASN SCT010 BKN013 OVC022 01/00 Q1017;
0187066045999992010011709204+47083+006783FM-15+1027LSGC V0202301N003610039019N0040001N1+00101+00001999999ADDGA1041+003001999GA2071+003901999GA3081+006601999GF108991999999999999999999MA1101801999999MW1841REMMET080METAR LSGC 170920Z 23007KT 200V260 4000 SHRASN SCT010 BKN013 OVC022 01/00 Q1018;
0187066045999992010011709504+47083+006783FM-15+1027LSGC V0202301N003610039019N0040001N1+00101+00001999999ADDGA1041+003001999GA2071+003901999GA3081+006601999GF108991999999999999999999MA1101801999999MW1841REMMET080METAR LSGC 170950Z 23007KT 200V260 4000 SHRASN SCT010 BKN013 OVC022 01/00 Q1018;
0187066045999992010011710204+47083+006783FM-15+1027LSGC V0202401N004610039019N0040001N1+00101+00001999999ADDGA1041+003001999GA2071+003901999GA3081+006601999GF108991999999999999999999MA1101901999999MW1841REMMET080METAR LSGC 171020Z 24009KT 210V270 4000 SHRASN SCT010 BKN013 OVC022 01/00 Q1019;
0179066045999992010011710504+47083+006783FM-15+1027LSGC V0202401N004110039019N0040001N1+00101+00001999999ADDGA1041+003001999GA2071+003901999GA3081+006601999GF108991999999999999999999MA1101901999999MW1841REMMET072METAR LSGC 171050Z 24008KT 4000 SHRASN SCT010 BKN013 OVC022 01/00 Q1019;
0187066045999992010011711204+47083+006783FM-15+1027LSGC V0202301N003610039019N0040001N1+00101+00001999999ADDGA1041+003001999GA2071+003901999GA3081+006601999GF108991999999999999999999MA1102001999999MW1841REMMET080METAR LSGC 171120Z 23007KT 200V270 4000 SHRASN SCT010 BKN013 OVC022 01/00 Q1020;
0164066045999992010011711504+47083+006783FM-15+1027LSGC V0202501N004110036019N0060001N1+00101+00001999999ADDGA1041+003001999GA2071+003601999GF107991999999999999999999MA1102001999999MW1841REMMET073METAR LSGC 171150Z 25008KT 210V330 6000 SHRASN SCT010 BKN012 01/00 Q1020;
0162066045999992010011712204+47083+006783FM-15+1027LSGC V0202301N005710036019N0070001N1+00101+00001999999ADDGA1041+003001999GA2071+003601999GF107991999999999999999999MA1102001999999MW1161REMMET071METAR LSGC 171220Z 23011KT 200V270 7000 VCSH SCT010 BKN012 01/00 Q1020;
0163066045999992010011712504+47083+006783FM-15+1027LSGC V0202501N005710036019N0070001N1+00101-00101999999ADDGA1041+003001999GA2071+003601999GF107991999999999999999999MA1102001999999MW1161REMMET072METAR LSGC 171250Z 25011KT 200V310 7000 VCSH SCT010 BKN012 01/M01 Q1020;
0163066045999992010011713204+47083+006783FM-15+1027LSGC V0202301N003610051019N0070001N1+00101+00001999999ADDGA1041+003301999GA2071+005101999GF107991999999999999999999MA1102001999999MW1161REMMET072METAR LSGC 171320Z 23007KT 200V290 7000 VCSH SCT011 BKN017 01/M00 Q1020;
0186066045999992010011713504+47083+006783FM-15+1027LSGC V0202301N002610051019N0070001N1+00101+00001999999ADDGA1041+003301999GA2071+005101999GA3071+009901999GF107991999999999999999999MA1102101999999MW1161REMMET079METAR LSGC 171350Z 23005KT 180V270 7000 VCSH SCT011 BKN017 BKN033 01/M00 Q1021;
0175066045999992010011714204+47083+006783FM-15+1027LSGC V0202301N003110051019N0080001N1+00101+00001999999ADDGA1041+003901999GA2071+005101999GA3071+009901999GF107991999999999999999999MA1102101999999REMMET074METAR LSGC 171420Z 23006KT 200V270 8000 SCT013 BKN017 BKN033 01/M00 Q1021;
0180066045999992010011714504+47083+006783FM-15+1027LSGC V0202401N002610051019N0080001N1+00101+00001999999ADDGA1041+003901999GA2071+005101999GA3071+009901999GF107991999999999999999999MA1102101999999REMMET079METAR LSGC 171450Z 24005KT 190V270 8000 SHSN SCT013 BKN017 BKN033 01/M00 Q1021;
0180066045999992010011715204+47083+006783FM-15+1027LSGC V0202401N002610051019N0080001N1+00101+00001999999ADDGA1041+003901999GA2071+005101999GA3071+009901999GF107991999999999999999999MA1102201999999REMMET079METAR LSGC 171520Z 24005KT 200V270 8000 SHSN SCT013 BKN017 BKN033 01/M00 Q1022;
0163066045999992010011715504+47083+006783FM-15+1027LSGC V0202301N002610069019N0080001N1+00101+00001999999ADDGA1041+003901999GA2071+006901999GF107991999999999999999999MA1102201999999MW1161REMMET072METAR LSGC 171550Z 23005KT 190V280 8000 VCSH SCT013 BKN023 01/M00 Q1022;
0152066045999992010011716204+47083+006783FM-15+1027LSGC V0202301N002110069019N0080001N1+00101+00001999999ADDGA1041+003901999GA2071+006901999GF107991999999999999999999MA1102201999999REMMET067METAR LSGC 171620Z 23004KT 190V270 8000 SCT013 BKN023 01/M00 Q1022;
0138066045999992010011806204+47083+006783FM-15+1027LSGC V0202301N000510024019N0040001N1-00101-00101999999ADDGA1081+002401999GF108991999999999999999999MA1102401999999MW1101REMMET063METAR LSGC 180620Z 23001KT 4000 BR OVC008 M01/M01 Q1024 SNOCLO;
0138066045999992010011806504+47083+006783FM-15+1027LSGC V0202501N000510024019N0040001N1-00101-00101999999ADDGA1081+002401999GF108991999999999999999999MA1102401999999MW1101REMMET063METAR LSGC 180650Z 25001KT 4000 BR OVC008 M01/M01 Q1024 SNOCLO;
0129066045999992010011807504+47083+006783FM-15+1027LSGC V0202801N000510036019N0060001N1-00101-00101999999ADDGA1071+003601999GF107991999999999999999999MA1102401999999REMMET060METAR LSGC 180750Z 28001KT 6000 BKN012 M01/M01 Q1024 SNOCLO;
0122066045999992010011808204+47083+006783FM-15+1027LSGC V0209999C000010036019N0060001N1-00101-00101999999ADDGA1071+003601999GF107991999999999999999999MA1102401999999REMMET053METAR LSGC 180820Z 00000KT 6000 BKN012 M01/M01 Q1024;
0133066045999992010011808504+47083+006783FM-15+1027LSGC V0209999V000512200019N0060001N1-00201-00201999999ADDGA1041+003601999GF104991999999999999999999MA1102511999999MW1401REMMET058METAR LSGC 180850Z VRB01KT 6000 VCFG SCT012 M02/M02 Q1025;
0133066045999992010011809204+47083+006783FM-15+1027LSGC V0209999C000012200019N0050001N1-00101-00201999999ADDGA1041+002401999GF104991999999999999999999MA1102511999999MW1411REMMET058METAR LSGC 180920Z 00000KT 5000 PRFG SCT008 M01/M02 Q1025;
0156066045999992010011810204+47083+006783FM-15+1027LSGC V0209999V000512200019N0060001N1+00001-00101999999ADDGA1021+001201999GA2041+003001999GF104991999999999999999999MA1102511999999MW1401REMMET065METAR LSGC 181020Z VRB01KT 6000 VCFG FEW004 SCT010 M00/M01 Q1025;
0163066045999992010011810504+47083+006783FM-15+1027LSGC V0200801N001510030019N0070001N1+00001-00101999999ADDGA1041+001501999GA2071+003001999GF107991999999999999999999MA1102401999999MW1401REMMET072METAR LSGC 181050Z 08003KT 030V150 7000 VCFG SCT005 BKN010 00/M01 Q1024;
0144066045999992010011811204+47083+006783FM-15+1027LSGC V0209999V001510030019N0070001N1+00001-00201999999ADDGA1041+001501999GA2071+003001999GF107991999999999999999999MA1102401999999REMMET059METAR LSGC 181120Z VRB03KT 7000 SCT005 BKN010 00/M02 Q1024;
0144066045999992010011811504+47083+006783FM-15+1027LSGC V0209999V001510030019N0070001N1+00001-00201999999ADDGA1041+001501999GA2071+003001999GF107991999999999999999999MA1102401999999REMMET059METAR LSGC 181150Z VRB03KT 7000 SCT005 BKN010 00/M02 Q1024;
0121066045999992010011812204+47083+006783FM-15+1027LSGC V0209999V000510021019N0080001N1+00001-00201999999ADDGA1071+002101999GF107991999999999999999999MA1102301999999REMMET052METAR LSGC 181220Z VRB01KT 8000 BKN007 00/M02 Q1023;
0121066045999992010011812504+47083+006783FM-15+1027LSGC V0209999V001012200019N0080001N1+00101-00201999999ADDGA1041+003001999GF104991999999999999999999MA1102301999999REMMET052METAR LSGC 181250Z VRB02KT 8000 SCT010 01/M02 Q1023;
0121066045999992010011813204+47083+006783FM-15+1027LSGC V0201401N000512200019N0090001N1+00101-00201999999ADDGA1041+003001999GF104991999999999999999999MA1102301999999REMMET052METAR LSGC 181320Z 14001KT 9000 SCT010 01/M02 Q1023;
0121066045999992010011813504+47083+006783FM-15+1027LSGC V0209999V000512200019N0090001N1+00101-00201999999ADDGA1021+003001999GF102991999999999999999999MA1102201999999REMMET052METAR LSGC 181350Z VRB01KT 9000 FEW010 01/M02 Q1022;
0121066045999992010011814204+47083+006783FM-15+1027LSGC V0209999V000512200019N0090001N1+00101-00201999999ADDGA1021+003001999GF102991999999999999999999MA1102201999999REMMET052METAR LSGC 181420Z VRB01KT 9000 FEW010 01/M02 Q1022;
0135066045999992010011814504+47083+006783FM-15+1027LSGC V0200601N002112200019N0090001N1+00101-00101999999ADDGA1021+001801999GF102991999999999999999999MA1102301999999REMMET066METAR LSGC 181450Z 06004KT 030V090 9000 4000E FEW006 01/M01 Q1023;
0131066045999992010011815204+47083+006783FM-15+1027LSGC V0200401N002610015019N0040001N1+00001-00101999999ADDGA1071+001501999GF107991999999999999999999MA1102301999999MW1101REMMET056METAR LSGC 181520Z 04005KT 4000 BR BKN005 M00/M01 Q1023;
0139066045999992010011815504+47083+006783FM-15+1027LSGC V0200301N002110012019N0035001N1-00101-00101999999ADDGA1081+001201999GF108991999999999999999999MA1102301999999MW1101REMMET064METAR LSGC 181550Z 03004KT 350V090 3500 BR OVC004 M01/M01 Q1023;
0074066045999992010011906204+47083+006783FM-15+1027LSGC V0202301N001019999999Y0099001N1-00801-00801999999ADDMA1102001999999REMMET047METAR LSGC 190620Z 23002KT CAVOK M08/M08 Q1020;
0074066045999992010011906504+47083+006783FM-15+1027LSGC V0209999V000519999999Y0099001N1-00901-01001999999ADDMA1101901999999REMMET047METAR LSGC 190650Z VRB01KT CAVOK M09/M10 Q1019;
0074066045999992010011907204+47083+006783FM-15+1027LSGC V0209999C000019999999Y0099001N1-01001-01101999999ADDMA1101901999999REMMET047METAR LSGC 190720Z 00000KT CAVOK M10/M11 Q1019;
0074066045999992010011907504+47083+006783FM-15+1027LSGC V0209999V000519999999Y0099001N1-00901-01001999999ADDMA1101901999999REMMET047METAR LSGC 190750Z VRB01KT CAVOK M09/M10 Q1019;
0074066045999992010011908204+47083+006783FM-15+1027LSGC V0202701N000519999999Y0099001N1-00801-00801999999ADDMA1101901999999REMMET047METAR LSGC 190820Z 27001KT CAVOK M08/M08 Q1019;
0074066045999992010011908504+47083+006783FM-15+1027LSGC V0200601N001019999999Y0099001N1-00701-00801999999ADDMA1101901999999REMMET047METAR LSGC 190850Z 06002KT CAVOK M07/M08 Q1019;
0074066045999992010011909204+47083+006783FM-15+1027LSGC V0209999C000019999999Y0099001N1-00601-00701999999ADDMA1101901999999REMMET047METAR LSGC 190920Z 00000KT CAVOK M06/M07 Q1019;
0074066045999992010011909504+47083+006783FM-15+1027LSGC V0209999C000019999999Y0099001N1-00501-00501999999ADDMA1101901999999REMMET047METAR LSGC 190950Z 00000KT CAVOK M05/M05 Q1019;
0074066045999992010011910204+47083+006783FM-15+1027LSGC V0209999C000019999999Y0099001N1-00201-00301999999ADDMA1101901999999REMMET047METAR LSGC 191020Z 00000KT CAVOK M02/M03 Q1019;
0074066045999992010011910504+47083+006783FM-15+1027LSGC V0209999C000019999999Y0099001N1-00201-00301999999ADDMA1101901999999REMMET047METAR LSGC 191050Z 00000KT CAVOK M02/M03 Q1019;
0073066045999992010011911204+47083+006783FM-15+1027LSGC V0209999C000019999999Y0099001N1+00101-00401999999ADDMA1101801999999REMMET046METAR LSGC 191120Z 00000KT CAVOK 01/M04 Q1018;
0073066045999992010011911504+47083+006783FM-15+1027LSGC V0209999C000019999999Y0099001N1+00201-00401999999ADDMA1101801999999REMMET046METAR LSGC 191150Z 00000KT CAVOK 02/M04 Q1018;
0073066045999992010011912204+47083+006783FM-15+1027LSGC V0209999C000019999999Y0099001N1+00301-00401999999ADDMA1101691999999REMMET046METAR LSGC 191220Z 00000KT CAVOK 03/M04 Q1017;
0073066045999992010011912504+47083+006783FM-15+1027LSGC V0209999C000019999999Y0099001N1+00301-00501999999ADDMA1101691999999REMMET046METAR LSGC 191250Z 00000KT CAVOK 03/M05 Q1017;
0073066045999992010011913504+47083+006783FM-15+1027LSGC V0202301N001019999999Y0099001N1+00301-00401999999ADDMA1101691999999REMMET046METAR LSGC 191350Z 23002KT CAVOK 03/M04 Q1017;
0081066045999992010011914204+47083+006783FM-15+1027LSGC V0202101N002619999999Y0099001N1+00201-00401999999ADDMA1101691999999REMMET054METAR LSGC 191420Z 21005KT 130V260 CAVOK 02/M04 Q1017;
0073066045999992010011914504+47083+006783FM-15+1027LSGC V0202101N002619999999Y0099001N1+00201-00401999999ADDMA1101691999999REMMET046METAR LSGC 191450Z 21005KT CAVOK 02/M04 Q1017;
0073066045999992010011915204+47083+006783FM-15+1027LSGC V0202101N002119999999Y0099001N1+00201-00401999999ADDMA1101691999999REMMET046METAR LSGC 191520Z 21004KT CAVOK 02/M04 Q1017;
0074066045999992010011915504+47083+006783FM-15+1027LSGC V0209999V000519999999Y0099001N1-00101-00401999999ADDMA1101691999999REMMET047METAR LSGC 191550Z VRB01KT CAVOK M01/M04 Q1017;
0074066045999992010011916204+47083+006783FM-15+1027LSGC V0209999C000019999999Y0099001N1-00201-00501999999ADDMA1101591999999REMMET047METAR LSGC 191620Z 00000KT CAVOK M02/M05 Q1016;
0074066045999992010011916504+47083+006783FM-15+1027LSGC V0209999C000019999999Y0099001N1-00301-00501999999ADDMA1101591999999REMMET047METAR LSGC 191650Z 00000KT CAVOK M03/M05 Q1016;
0074066045999992010011917204+47083+006783FM-15+1027LSGC V0209999C000019999999Y0099001N1-00401-00601999999ADDMA1101591999999REMMET047METAR LSGC 191720Z 00000KT CAVOK M04/M06 Q1016;
0074066045999992010011917504+47083+006783FM-15+1027LSGC V0209999C000019999999Y0099001N1-00501-00701999999ADDMA1101591999999REMMET047METAR LSGC 191750Z 00000KT CAVOK M05/M07 Q1016;
0074066045999992010012006204+47083+006783FM-15+1027LSGC V0209999C000019999999Y0099001N1-01001-01101999999ADDMA1101081999999REMMET047METAR LSGC 200620Z 00000KT CAVOK M10/M11 Q1011;
0074066045999992010012006504+47083+006783FM-15+1027LSGC V0209999C000019999999Y0099001N1-01101-01201999999ADDMA1101081999999REMMET047METAR LSGC 200650Z 00000KT CAVOK M11/M12 Q1011;
0074066045999992010012007204+47083+006783FM-15+1027LSGC V0209999C000019999999Y0099001N1-00901-01001999999ADDMA1101081999999REMMET047METAR LSGC 200720Z 00000KT CAVOK M09/M10 Q1011;
0074066045999992010012007504+47083+006783FM-15+1027LSGC V0209999C000019999999Y0099001N1-01001-01101999999ADDMA1101081999999REMMET047METAR LSGC 200750Z 00000KT CAVOK M10/M11 Q1011;
0074066045999992010012008204+47083+006783FM-15+1027LSGC V0209999C000019999999Y0099001N1-00901-01101999999ADDMA1101081999999REMMET047METAR LSGC 200820Z 00000KT CAVOK M09/M11 Q1011;
0074066045999992010012009204+47083+006783FM-15+1027LSGC V0209999C000019999999Y0099001N1-00501-00701999999ADDMA1101081999999REMMET047METAR LSGC 200920Z 00000KT CAVOK M05/M07 Q1011;
0074066045999992010012009504+47083+006783FM-15+1027LSGC V0209999C000019999999Y0099001N1-00401-00701999999ADDMA1101081999999REMMET047METAR LSGC 200950Z 00000KT CAVOK M04/M07 Q1011;
0074066045999992010012010204+47083+006783FM-15+1027LSGC V0209999C000019999999Y0099001N1-00101-00501999999ADDMA1101081999999REMMET047METAR LSGC 201020Z 00000KT CAVOK M01/M05 Q1011;
0074066045999992010012010504+47083+006783FM-15+1027LSGC V0209999V000519999999Y0099001N1-00101-00501999999ADDMA1101021999999REMMET047METAR LSGC 201050Z VRB01KT CAVOK M01/M05 Q1010;
0144066045999992010012012204+47083+006783FM-15+1027LSGC V0202101N002610540019N0112651N1+00201-00501999999ADDGA1041+006601999GA2071+054001999GF107991999999999999999999MA1101021999999REMMET059METAR LSGC 201220Z 21005KT 9999 SCT022 BKN180 02/M05 Q1010;
0152066045999992010012012504+47083+006783FM-15+1027LSGC V0202101N002110540019N0112651N1+00301-00401999999ADDGA1041+007501999GA2071+054001999GF107991999999999999999999MA1101021999999REMMET067METAR LSGC 201250Z 21004KT 170V240 9999 SCT025 BKN180 03/M04 Q1010;
0152066045999992010012013204+47083+006783FM-15+1027LSGC V0202201N002110540019N0112651N1+00301-00401999999ADDGA1041+009001999GA2071+054001999GF107991999999999999999999MA1100911999999REMMET067METAR LSGC 201320Z 22004KT 180V260 9999 SCT030 BKN180 03/M04 Q1009;
0152066045999992010012013504+47083+006783FM-15+1027LSGC V0202201N003110540019N0112651N1+00301-00401999999ADDGA1041+009001999GA2071+054001999GF107991999999999999999999MA1100911999999REMMET067METAR LSGC 201350Z 22006KT 180V260 9999 SCT030 BKN180 03/M04 Q1009;
0167066045999992010012014204+47083+006783FM-15+1027LSGC V0202201N00151010501CN0112651N1+00201-00401999999ADDGA1021+007501999GA2041+010501999GA3071+036001999GF107991999999999999999999MA1100911999999REMMET066METAR LSGC 201420Z 22003KT 9999 FEW025 SCT035 BKN120 02/M04 Q1009;
0161066045999992010012014504+47083+006783FM-15+1027LSGC V0202201N003110300019N0050001N1+00201-00301999999ADDGA1041+006001999GA2071+030001999GF107991999999999999999999MA1100911999999MW1731REMMET070METAR LSGC 201450Z 22006KT 190V250 5000 SN SCT020 BKN100 02/M03 Q1009;
0176066045999992010012015204+47083+006783FM-15+1027LSGC V0202201N00151001501CN0015001N1+00001-00101999999ADDGA1021+001201999GA2041+001501999GA3071+006001999GF107991999999999999999999MA1101021999999MW1731REMMET069METAR LSGC 201520Z 22003KT 1500 SN FEW004 SCT005 BKN020 00/M01 Q1010;
0185066045999992010012015504+47083+006783FM-15+1027LSGC V0202101N001010015019N0015001N1+00001-00101999999ADDGA1021+001201999GA2071+001501999GA3071+003001999GF107991999999999999999999MA1101021999999MW1731REMMET078METAR LSGC 201550Z 21002KT 1500 SN FEW004 BKN005 BKN010 00/M01 Q1010 R/SNOCLO;
0131066045999992010012106204+47083+006783FM-15+1027LSGC V0202301N001010030019N0060001N1-00101-00101999999ADDGA1071+003001999GF107991999999999999999999MA1101691999999REMMET062METAR LSGC 210620Z 23002KT 6000 BKN010 M01/M01 Q1017 R/SNOCLO;
0131066045999992010012106504+47083+006783FM-15+1027LSGC V0202201N001010030019N0060001N1-00201-00201999999ADDGA1071+003001999GF107991999999999999999999MA1101801999999REMMET062METAR LSGC 210650Z 22002KT 6000 BKN010 M02/M02 Q1018 R/SNOCLO;
0154066045999992010012107204+47083+006783FM-15+1027LSGC V0202201N001010030019N0060001N1-00201-00201999999ADDGA1041+001501999GA2071+003001999GF107991999999999999999999MA1101801999999REMMET069METAR LSGC 210720Z 22002KT 6000 SCT005 BKN010 M02/M02 Q1018 R/SNOCLO;
0131066045999992010012107504+47083+006783FM-15+1027LSGC V0209999V001010030019N0080001N1-00201-00201999999ADDGA1071+003001999GF107991999999999999999999MA1101801999999REMMET062METAR LSGC 210750Z VRB02KT 8000 BKN010 M02/M02 Q1018 R/SNOCLO;
0131066045999992010012108204+47083+006783FM-15+1027LSGC V0209999V000510030019N0080001N1-00201-00301999999ADDGA1071+003001999GF107991999999999999999999MA1101901999999REMMET062METAR LSGC 210820Z VRB01KT 8000 BKN010 M02/M03 Q1019 R/SNOCLO;
0131066045999992010012108504+47083+006783FM-15+1027LSGC V0209999C000012200019N0112651N1-00201-00301999999ADDGA1021+003001999GF102991999999999999999999MA1101901999999REMMET062METAR LSGC 210850Z 00000KT 9999 FEW010 M02/M03 Q1019 R/SNOCLO;
0122066045999992010012109204+47083+006783FM-15+1027LSGC V0209999C000012200019N0112651N1-00201-00301999999ADDGA1021+004501999GF102991999999999999999999MA1101901999999REMMET053METAR LSGC 210920Z 00000KT 9999 FEW015 M02/M03 Q1019;
0122066045999992010012109504+47083+006783FM-15+1027LSGC V0202201N000512200019N0112651N1-00101-00201999999ADDGA1041+013501999GF104991999999999999999999MA1101901999999REMMET053METAR LSGC 210950Z 22001KT 9999 SCT045 M01/M02 Q1019;
0122066045999992010012110204+47083+006783FM-15+1027LSGC V0202401N001012200019N0112651N1-00101-00201999999ADDGA1041+009001999GF104991999999999999999999MA1101901999999REMMET053METAR LSGC 211020Z 24002KT 9999 SCT030 M01/M02 Q1019;
0144066045999992010012110504+47083+006783FM-15+1027LSGC V0202401N000512200019N0112651N1+00101-00201999999ADDGA1021+002401999GA2041+009001999GF104991999999999999999999MA1101901999999REMMET059METAR LSGC 211050Z 24001KT 9999 FEW008 SCT030 01/M02 Q1019;
0121066045999992010012111204+47083+006783FM-15+1027LSGC V0209999C000012200019N0112651N1+00101-00101999999ADDGA1021+003001999GF102991999999999999999999MA1101901999999REMMET052METAR LSGC 211120Z 00000KT 9999 FEW010 01/M01 Q1019;
0121066045999992010012111504+47083+006783FM-15+1027LSGC V0202001N000512200019N0112651N1+00201-00101999999ADDGA1021+003001999GF102991999999999999999999MA1101901999999REMMET052METAR LSGC 211150Z 20001KT 9999 FEW010 02/M01 Q1019;
0121066045999992010012112204+47083+006783FM-15+1027LSGC V0201901N001012200019N0112651N1+00201-00101999999ADDGA1021+003001999GF102991999999999999999999MA1101901999999REMMET052METAR LSGC 211220Z 19002KT 9999 FEW010 02/M01 Q1019;
0144066045999992010012112504+47083+006783FM-15+1027LSGC V0209999V001012200019N0112651N1+00301-00201999999ADDGA1021+003001999GA2041+007501999GF104991999999999999999999MA1101901999999REMMET059METAR LSGC 211250Z VRB02KT 9999 FEW010 SCT025 03/M02 Q1019;
0152066045999992010012113204+47083+006783FM-15+1027LSGC V0202601N002610090019N0112651N1+00201-00201999999ADDGA1021+004501999GA2071+009001999GF107991999999999999999999MA1101901999999REMMET067METAR LSGC 211320Z 26005KT 220V290 9999 FEW015 BKN030 02/M02 Q1019;
0152066045999992010012113504+47083+006783FM-15+1027LSGC V0202501N003110090019N0112651N1+00201-00101999999ADDGA1021+004501999GA2071+009001999GF107991999999999999999999MA1101901999999REMMET067METAR LSGC 211350Z 25006KT 210V280 9999 FEW015 BKN030 02/M01 Q1019;
0152066045999992010012114204+47083+006783FM-15+1027LSGC V0202501N002110120019N0112651N1+00201-00201999999ADDGA1021+006001999GA2071+012001999GF107991999999999999999999MA1101901999999REMMET067METAR LSGC 211420Z 25004KT 200V300 9999 FEW020 BKN040 02/M02 Q1019;
0144066045999992010012114504+47083+006783FM-15+1027LSGC V0202101N003110120019N0112651N1+00101-00101999999ADDGA1021+006001999GA2071+012001999GF107991999999999999999999MA1101901999999REMMET059METAR LSGC 211450Z 21006KT 9999 FEW020 BKN040 01/M01 Q1019;
0163066045999992010012115204+47083+006783FM-15+1027LSGC V0202501N002610120019N0112651N1+00001-00201999999ADDGA1041+006001999GA2071+012001999GF107991999999999999999999MA1101901999999MW1161REMMET072METAR LSGC 211520Z 25005KT 220V300 9999 VCSH SCT020 BKN040 00/M02 Q1019;
0164066045999992010012115504+47083+006783FM-15+1027LSGC V0202801N002610045019N0112651N1+00001-00201999999ADDGA1071+004501999GA2071+009001999GF107991999999999999999999MA1102001999999MW1161REMMET073METAR LSGC 211550Z 28005KT 240V320 9999 VCSH BKN015 BKN030 M00/M02 Q1020;
0145066045999992010012116204+47083+006783FM-15+1027LSGC V0209999V001010045019N0112651N1+00001-00201999999ADDGA1071+004501999GA2071+012001999GF107991999999999999999999MA1102001999999REMMET060METAR LSGC 211620Z VRB02KT 9999 BKN015 BKN040 M00/M02 Q1020;
0145066045999992010012116504+47083+006783FM-15+1027LSGC V0202301N001510045019N0112651N1+00001-00201999999ADDGA1071+004501999GA2071+012001999GF107991999999999999999999MA1102001999999REMMET060METAR LSGC 211650Z 23003KT 9999 BKN015 BKN040 M00/M02 Q1020;
0145066045999992010012117204+47083+006783FM-15+1027LSGC V0202101N001010057019N0112651N1+00001-00201999999ADDGA1071+005701999GA2071+012001999GF107991999999999999999999MA1102001999999REMMET060METAR LSGC 211720Z 21002KT 9999 BKN019 BKN040 M00/M02 Q1020;
0130066045999992010012206204+47083+006783FM-15+1027LSGC V0209999V000510003019N0008001N1-00601-00701999999ADDGA1091+000301999GF109991999999000251999999MA1101901999999MW1451REMMET055METAR LSGC 220620Z VRB01KT 0800 FG VV001 M06/M07 Q1019;
0130066045999992010012206504+47083+006783FM-15+1027LSGC V0200201N000510003019N0008001N1-00501-00501999999ADDGA1091+000301999GF109991999999000251999999MA1101901999999MW1451REMMET055METAR LSGC 220650Z 02001KT 0800 FG VV001 M05/M05 Q1019;
0133066045999992010012207204+47083+006783FM-15+1027LSGC V0209999V001010006019N0020001N1-00601-00601999999ADDGA1071+000601999GF107991999999999999999999MA1101901999999MW1401REMMET058METAR LSGC 220720Z VRB02KT 2000 VCFG BKN002 M06/M06 Q1019;
0133066045999992010012207504+47083+006783FM-15+1027LSGC V0209999V000512200019N0070001N1-00601-00601999999ADDGA1021+001201999GF102991999999999999999999MA1101901999999MW1401REMMET058METAR LSGC 220750Z VRB01KT 7000 VCFG FEW004 M06/M06 Q1019;
0133066045999992010012208204+47083+006783FM-15+1027LSGC V0209999V000512200019N0060001N1-00501-00601999999ADDGA1021+001201999GF102991999999999999999999MA1101901999999MW1401REMMET058METAR LSGC 220820Z VRB01KT 6000 VCFG FEW004 M05/M06 Q1019;
0133066045999992010012208504+47083+006783FM-15+1027LSGC V0209999V000512200019N0090001N1-00501-00601999999ADDGA1021+001201999GF102991999999999999999999MA1101901999999MW1401REMMET058METAR LSGC 220850Z VRB01KT 9000 VCFG FEW004 M05/M06 Q1019;
0122066045999992010012209204+47083+006783FM-15+1027LSGC V0209999V001012200019N0090001N1-00401-00401999999ADDGA1021+001801999GF102991999999999999999999MA1101901999999REMMET053METAR LSGC 220920Z VRB02KT 9000 FEW006 M04/M04 Q1019;
0122066045999992010012209504+47083+006783FM-15+1027LSGC V0209999V000512200019N0112651N1-00201-00301999999ADDGA1021+001801999GF102991999999999999999999MA1102001999999REMMET053METAR LSGC 220950Z VRB01KT 9999 FEW006 M02/M03 Q1020;
0122066045999992010012210204+47083+006783FM-15+1027LSGC V0209999V001012200019N0112651N1-00201-00301999999ADDGA1021+001801999GF102991999999999999999999MA1102001999999REMMET053METAR LSGC 221020Z VRB02KT 9999 FEW006 M02/M03 Q1020;
0074066045999992010012210504+47083+006783FM-15+1027LSGC V0209999V000519999999Y0099001N1-00101-00301999999ADDMA1102001999999REMMET047METAR LSGC 221050Z VRB01KT CAVOK M01/M03 Q1020;
0081066045999992010012211204+47083+006783FM-15+1027LSGC V0200601N001519999999Y0099001N1+00101-00501999999ADDMA1101901999999REMMET054METAR LSGC 221120Z 06003KT 010V110 CAVOK 01/M05 Q1019;
0073066045999992010012211504+47083+006783FM-15+1027LSGC V0209999V001019999999Y0099001N1+00201-00501999999ADDMA1101901999999REMMET046METAR LSGC 221150Z VRB02KT CAVOK 02/M05 Q1019;
0081066045999992010012212204+47083+006783FM-15+1027LSGC V0200601N001519999999Y0099001N1+00101-00501999999ADDMA1101901999999REMMET054METAR LSGC 221220Z 06003KT 020V120 CAVOK 01/M05 Q1019;
0081066045999992010012213504+47083+006783FM-15+1027LSGC V0200701N002619999999Y0099001N1+00101-00601999999ADDMA1101801999999REMMET054METAR LSGC 221350Z 07005KT 030V110 CAVOK 01/M06 Q1018;
0081066045999992010012214204+47083+006783FM-15+1027LSGC V0200701N002119999999Y0099001N1+00101-00601999999ADDMA1101901999999REMMET054METAR LSGC 221420Z 07004KT 040V120 CAVOK 01/M06 Q1019;
0081066045999992010012214504+47083+006783FM-15+1027LSGC V0200701N002119999999Y0099001N1+00101-00601999999ADDMA1101901999999REMMET054METAR LSGC 221450Z 07004KT 020V140 CAVOK 01/M06 Q1019;
0073066045999992010012215204+47083+006783FM-15+1027LSGC V0209999V001019999999Y0099001N1+00101-00601999999ADDMA1101901999999REMMET046METAR LSGC 221520Z VRB02KT CAVOK 01/M06 Q1019;
0074066045999992010012215504+47083+006783FM-15+1027LSGC V0209999C000019999999Y0099001N1+00001-00501999999ADDMA1101901999999REMMET047METAR LSGC 221550Z 00000KT CAVOK M00/M05 Q1019;
0074066045999992010012216204+47083+006783FM-15+1027LSGC V0209999C000019999999Y0099001N1-00301-00601999999ADDMA1101901999999REMMET047METAR LSGC 221620Z 00000KT CAVOK M03/M06 Q1019;
0074066045999992010012306504+47083+006783FM-15+1027LSGC V0209999C000019999999Y0099001N1-00801-00901999999ADDMA1101801999999REMMET047METAR LSGC 230650Z 00000KT CAVOK M08/M09 Q1018;
0074066045999992010012307204+47083+006783FM-15+1027LSGC V0209999C000019999999Y0099001N1-01001-01001999999ADDMA1101801999999REMMET047METAR LSGC 230720Z 00000KT CAVOK M10/M10 Q1018;
0074066045999992010012307504+47083+006783FM-15+1027LSGC V0209999V000519999999Y0099001N1-00901-01001999999ADDMA1101801999999REMMET047METAR LSGC 230750Z VRB01KT CAVOK M09/M10 Q1018;
0074066045999992010012308204+47083+006783FM-15+1027LSGC V0209999C000019999999Y0099001N1-00901-01001999999ADDMA1101801999999REMMET047METAR LSGC 230820Z 00000KT CAVOK M09/M10 Q1018;
0074066045999992010012308504+47083+006783FM-15+1027LSGC V0209999C000019999999Y0099001N1-00701-00801999999ADDMA1101901999999REMMET047METAR LSGC 230850Z 00000KT CAVOK M07/M08 Q1019;
0074066045999992010012309504+47083+006783FM-15+1027LSGC V0209999C000019999999Y0099001N1-00501-00601999999ADDMA1101901999999REMMET047METAR LSGC 230950Z 00000KT CAVOK M05/M06 Q1019;
0074066045999992010012310204+47083+006783FM-15+1027LSGC V0202401N000519999999Y0099001N1-00401-00501999999ADDMA1101901999999REMMET047METAR LSGC 231020Z 24001KT CAVOK M04/M05 Q1019;
0074066045999992010012310504+47083+006783FM-15+1027LSGC V0209999C000019999999Y0099001N1-00201-00501999999ADDMA1101801999999REMMET047METAR LSGC 231050Z 00000KT CAVOK M02/M05 Q1018;
0074066045999992010012311204+47083+006783FM-15+1027LSGC V0209999C000019999999Y0099001N1-00101-00401999999ADDMA1101801999999REMMET047METAR LSGC 231120Z 00000KT CAVOK M01/M04 Q1018;
0073066045999992010012311504+47083+006783FM-15+1027LSGC V0202601N001019999999Y0099001N1+00101-00401999999ADDMA1101801999999REMMET046METAR LSGC 231150Z 26002KT CAVOK 01/M04 Q1018;
0073066045999992010012312204+47083+006783FM-15+1027LSGC V0209999V000519999999Y0099001N1+00201-00401999999ADDMA1101801999999REMMET046METAR LSGC 231220Z VRB01KT CAVOK 02/M04 Q1018;
0081066045999992010012312504+47083+006783FM-15+1027LSGC V0202101N002119999999Y0099001N1+00301-00401999999ADDMA1101801999999REMMET054METAR LSGC 231250Z 21004KT 190V260 CAVOK 03/M04 Q1018;
0073066045999992010012313204+47083+006783FM-15+1027LSGC V0202101N002619999999Y0099001N1+00301-00401999999ADDMA1101801999999REMMET046METAR LSGC 231320Z 21005KT CAVOK 03/M04 Q1018;
0073066045999992010012313504+47083+006783FM-15+1027LSGC V0202201N000519999999Y0099001N1+00301-00401999999ADDMA1101801999999REMMET046METAR LSGC 231350Z 22001KT CAVOK 03/M04 Q1018;
0073066045999992010012314204+47083+006783FM-15+1027LSGC V0209999C000019999999Y0099001N1+00201-00301999999ADDMA1101801999999REMMET046METAR LSGC 231420Z 00000KT CAVOK 02/M03 Q1018;
0074066045999992010012315204+47083+006783FM-15+1027LSGC V0209999C000019999999Y0099001N1+00001-00401999999ADDMA1101801999999REMMET047METAR LSGC 231520Z 00000KT CAVOK M00/M04 Q1018;
0074066045999992010012315504+47083+006783FM-15+1027LSGC V0209999C000019999999Y0099001N1-00201-00401999999ADDMA1101801999999REMMET047METAR LSGC 231550Z 00000KT CAVOK M02/M04 Q1018;
0074066045999992010012316204+47083+006783FM-15+1027LSGC V0209999C000019999999Y0099001N1-00301-00501999999ADDMA1101801999999REMMET047METAR LSGC 231620Z 00000KT CAVOK M03/M05 Q1018;
0074066045999992010012406504+47083+006783FM-15+1027LSGC V0202301N000519999999Y0099001N1-00801-00901999999ADDMA1101901999999REMMET047METAR LSGC 240650Z 23001KT CAVOK M08/M09 Q1019;
0074066045999992010012407204+47083+006783FM-15+1027LSGC V0202601N000519999999Y0099001N1-00701-00801999999ADDMA1101901999999REMMET047METAR LSGC 240720Z 26001KT CAVOK M07/M08 Q1019;
0074066045999992010012407504+47083+006783FM-15+1027LSGC V0202301N001019999999Y0099001N1-00601-00701999999ADDMA1101901999999REMMET047METAR LSGC 240750Z 23002KT CAVOK M06/M07 Q1019;
0074066045999992010012408204+47083+006783FM-15+1027LSGC V0202401N002119999999Y0099001N1-00501-00601999999ADDMA1101901999999REMMET047METAR LSGC 240820Z 24004KT CAVOK M05/M06 Q1019;
0074066045999992010012408504+47083+006783FM-15+1027LSGC V0202401N001519999999Y0099001N1-00301-00501999999ADDMA1102001999999REMMET047METAR LSGC 240850Z 24003KT CAVOK M03/M05 Q1020;
0074066045999992010012409204+47083+006783FM-15+1027LSGC V0202401N001519999999Y0099001N1-00401-00501999999ADDMA1102001999999REMMET047METAR LSGC 240920Z 24003KT CAVOK M04/M05 Q1020;
0153066045999992010012409504+47083+006783FM-15+1027LSGC V0202301N002110570019N0112651N1-00101-00401999999ADDGA1021+006001999GA2071+057001999GF107991999999999999999999MA1102001999999REMMET068METAR LSGC 240950Z 23004KT 190V260 9999 FEW020 BKN190 M01/M04 Q1020;
0152066045999992010012410504+47083+006783FM-15+1027LSGC V0202301N002610540019N0112651N1+00101-00201999999ADDGA1041+003901999GA2071+054001999GF107991999999999999999999MA1102001999999REMMET067METAR LSGC 241050Z 23005KT 190V270 9999 SCT013 BKN180 01/M02 Q1020;
0152066045999992010012411204+47083+006783FM-15+1027LSGC V0202501N003610660019N0112651N1+00201-00101999999ADDGA1021+003901999GA2071+066001999GF107991999999999999999999MA1102001999999REMMET067METAR LSGC 241120Z 25007KT 200V280 9999 FEW013 BKN220 02/M01 Q1020;
0152066045999992010012411504+47083+006783FM-15+1027LSGC V0202301N002110660019N0112651N1+00201-00101999999ADDGA1021+003901999GA2071+066001999GF107991999999999999999999MA1102001999999REMMET067METAR LSGC 241150Z 23004KT 190V270 9999 FEW013 BKN220 02/M01 Q1020;
0073066045999992010012412204+47083+006783FM-15+1027LSGC V0202401N003119999999Y0099001N1+00101-00101999999ADDMA1101901999999REMMET046METAR LSGC 241220Z 24006KT CAVOK 01/M01 Q1019;
0073066045999992010012412504+47083+006783FM-15+1027LSGC V0202001N002119999999Y0099001N1+00101-00101999999ADDMA1101901999999REMMET046METAR LSGC 241250Z 20004KT CAVOK 01/M01 Q1019;
0073066045999992010012413204+47083+006783FM-15+1027LSGC V0202101N001019999999Y0099001N1+00101-00101999999ADDMA1101901999999REMMET046METAR LSGC 241320Z 21002KT CAVOK 01/M01 Q1019;
0073066045999992010012413504+47083+006783FM-15+1027LSGC V0202101N001519999999Y0099001N1+00101-00101999999ADDMA1101901999999REMMET046METAR LSGC 241350Z 21003KT CAVOK 01/M01 Q1019;
0073066045999992010012414204+47083+006783FM-15+1027LSGC V0202001N001519999999Y0099001N1+00101-00101999999ADDMA1101901999999REMMET046METAR LSGC 241420Z 20003KT CAVOK 01/M01 Q1019;
0073066045999992010012414504+47083+006783FM-15+1027LSGC V0202101N001019999999Y0099001N1+00101-00101999999ADDMA1101901999999REMMET046METAR LSGC 241450Z 21002KT CAVOK 01/M01 Q1019;
0073066045999992010012415204+47083+006783FM-15+1027LSGC V0202401N000519999999Y0099001N1+00101-00101999999ADDMA1101901999999REMMET046METAR LSGC 241520Z 24001KT CAVOK 01/M01 Q1019;
0073066045999992010012415504+47083+006783FM-15+1027LSGC V0209999V000519999999Y0099001N1+00001-00201999999ADDMA1101901999999REMMET046METAR LSGC 241550Z VRB01KT CAVOK 00/M02 Q1019;
0074066045999992010012416204+47083+006783FM-15+1027LSGC V0209999C000019999999Y0099001N1+00001-00201999999ADDMA1101901999999REMMET047METAR LSGC 241620Z 00000KT CAVOK M00/M02 Q1019;
0074066045999992010012416504+47083+006783FM-15+1027LSGC V0209999C000019999999Y0099001N1-00101-00201999999ADDMA1101901999999REMMET047METAR LSGC 241650Z 00000KT CAVOK M01/M02 Q1019;
0074066045999992010012417204+47083+006783FM-15+1027LSGC V0209999C000019999999Y0099001N1-00201-00301999999ADDMA1102001999999REMMET047METAR LSGC 241720Z 00000KT CAVOK M02/M03 Q1020;
0074066045999992010012417504+47083+006783FM-15+1027LSGC V0209999C000019999999Y0099001N1-00201-00301999999ADDMA1102001999999REMMET047METAR LSGC 241750Z 00000KT CAVOK M02/M03 Q1020;
0164066045999992010012506204+47083+006783FM-15+1027LSGC V0209999V001010030019N0030001N1-00201-00201999999ADDGA1071+003001999GA2081+006001999GF108991999999999999999999MA1102001999999MW1711REMMET073METAR LSGC 250620Z VRB02KT 3000 -SN BKN010 OVC020 M02/M02 Q1020 R/SNOCLO;
0164066045999992010012506504+47083+006783FM-15+1027LSGC V0209999V001510030019N0030001N1-00201-00301999999ADDGA1071+003001999GA2081+006001999GF108991999999999999999999MA1102101999999MW1711REMMET073METAR LSGC 250650Z VRB03KT 3000 -SN BKN010 OVC020 M02/M03 Q1021 R/SNOCLO;
0164066045999992010012507504+47083+006783FM-15+1027LSGC V0202301N001510030019N0030001N1-00201-00301999999ADDGA1071+003001999GA2081+006001999GF108991999999999999999999MA1102101999999MW1711REMMET073METAR LSGC 250750Z 23003KT 3000 -SN BKN010 OVC020 M02/M03 Q1021 R/SNOCLO;
0187066045999992010012508504+47083+006783FM-15+1027LSGC V0209999V001010030019N0040001N1-00201-00301999999ADDGA1021+001501999GA2071+003001999GA3081+006001999GF108991999999999999999999MA1102201999999MW1711REMMET080METAR LSGC 250850Z VRB02KT 4000 -SN FEW005 BKN010 OVC020 M02/M03 Q1022 R/SNOCLO;
0186066045999992010012509504+47083+006783FM-15+1027LSGC V0202801N001510030019N0050001N1-00201-00301999999ADDGA1021+001501999GA2071+003001999GA3081+006001999GF108991999999999999999999MA1102201999999MW1711REMMET079METAR LSGC 250950Z 28003KT 250V310 5000 -SN FEW005 BKN010 OVC020 M02/M03 Q1022;
0178066045999992010012510204+47083+006783FM-15+1027LSGC V0209999V001510030019N0050001N1-00201-00301999999ADDGA1021+001501999GA2071+003001999GA3081+006001999GF108991999999999999999999MA1102201999999MW1711REMMET071METAR LSGC 251020Z VRB03KT 5000 -SN FEW005 BKN010 OVC020 M02/M03 Q1022;
0178066045999992010012510504+47083+006783FM-15+1027LSGC V0209999V000510021019N0050001N1-00201-00301999999ADDGA1021+001501999GA2071+002101999GA3081+004201999GF108991999999999999999999MA1102201999999MW1711REMMET071METAR LSGC 251050Z VRB01KT 5000 -SN FEW005 BKN007 OVC014 M02/M03 Q1022;
0154066045999992010012511204+47083+006783FM-15+1027LSGC V0209999V000510021019N0035001N1-00201-00301999999ADDGA1071+002101999GA2081+002701999GF108991999999999999999999MA1102201999999MW1101REMMET063METAR LSGC 251120Z VRB01KT 3500 BR BKN007 OVC009 M02/M03 Q1022;
0154066045999992010012511504+47083+006783FM-15+1027LSGC V0209999V000510021019N0035001N1-00201-00301999999ADDGA1071+002101999GA2081+002701999GF108991999999999999999999MA1102201999999MW1101REMMET063METAR LSGC 251150Z VRB01KT 3500 BR BKN007 OVC009 M02/M03 Q1022;
0154066045999992010012513204+47083+006783FM-15+1027LSGC V0209999V001010021019N0045001N1-00201-00301999999ADDGA1071+002101999GA2081+002701999GF108991999999999999999999MA1102201999999MW1101REMMET063METAR LSGC 251320Z VRB02KT 4500 BR BKN007 OVC009 M02/M03 Q1022;
0153066045999992010012513504+47083+006783FM-15+1027LSGC V0200401N001510021019N0060001N1-00101-00301999999ADDGA1071+002101999GA2081+003001999GF108991999999999999999999MA1102201999999REMMET068METAR LSGC 251350Z 04003KT 340V070 6000 BKN007 OVC010 M01/M03 Q1022;
