0128066010999992010010100004+47550+007583FM-12+031699999V0201101N002119999999N9999999N1+00451+00371099271ADDMA1999999095491MD1710111+9999OA149900621REMSYN076AAXX  01004 06601 33/// /1104 10045 20037 39549 49927 57011 333 91112 91208;
0128066010999992010010101004+47550+007583FM-12+031699999V0201101N002119999999N9999999N1+00451+00371099241ADDMA1999999095461MD1710111+9999OA149900461REMSYN076AAXX  01014 06601 33/// /1104 10045 20037 39546 49924 57011 333 91109 91205;
0128066010999992010010102004+47550+007583FM-12+031699999V0201401N001019999999N9999999N1+00401+00331099201ADDMA1999999095421MD1719999+9999OA149900461REMSYN076AAXX  01024 06601 33/// /1402 10040 20033 39542 49920 57/// 333 91109 91205;
0087066010999992010010103004+47550+007583FM-12+031699999V0201101N002119999999N9999999N1+00391+00341099161ADDMA1999999095381REMSYN060AAXX  01034 06601 43/// /1104 10039 20034 39538 49916 5////;
0087066010999992010010104004+47550+007583FM-12+031699999V0201101N001019999999N9999999N1+00311+00281099141ADDMA1999999095351REMSYN060AAXX  01044 06601 33/// /1102 10031 20028 39535 49914 5////;
0128066010999992010010105004+47550+007583FM-12+031699999V0201001N002119999999N9999999N1+00351+00291099121ADDMA1999999095331MD1610091+9999OA149900361REMSYN076AAXX  01054 06601 33/// /1004 10035 20029 39533 49912 56009 333 91107 91204;
0332066010999992010010106004+47550+007583FM-12+031699999V0201301N001010330019N0080001N1+00391+00311099091ADDAA124005691AL14200591AL29900091AY111061AY211061GA1021+001801071GA2071+033001031GF108991999999001501999999GJ100069IA1099IA2999+00109KA1999N+00311MA1999999095311MD1610071+9999MW1401OA149900461REMSYN130AAXX  01064 06601 31258 81302 10039 20031 39531 49909 56007 74011 333 20031 31001 55001 70057 82706 87361 90768 93100 91109 91205;
0128066010999992010010107004+47550+007583FM-12+031699999V0201901N001519999999N9999999N1+00291+00231099131ADDMA1999999095331MD1510021+9999OA149900361REMSYN076AAXX  01074 06601 33/// /1903 10029 20023 39533 49913 55002 333 91107 91204;
0128066010999992010010108004+47550+007583FM-12+031699999V0202201N001519999999N9999999N1+00271+00221099181ADDMA1999999095381MD1310051+9999OA149900211REMSYN076AAXX  01084 06601 33/// /2203 10027 20022 39538 49918 53005 333 91104 91203;
0128066010999992010010109004+47550+007583FM-12+031699999V0201901N001519999999N9999999N1+00321+00271099241ADDMA1999999095441MD1210131+9999OA149900361REMSYN076AAXX  01094 06601 33/// /1903 10032 20027 39544 49924 52013 333 91107 91204;
0128066010999992010010110004+47550+007583FM-12+031699999V0202101N001019999999N9999999N1+00361+00321099321ADDMA1999999095531MD1310201+9999OA149900311REMSYN076AAXX  01104 06601 33/// /2102 10036 20032 39553 49932 53020 333 91106 91204;
0128066010999992010010111004+47550+007583FM-12+031699999V0203101N000519999999N9999999N1+00391+00321099341ADDMA1999999095551MD1110171+9999OA149900211REMSYN076AAXX  01114 06601 33/// /3101 10039 20032 39555 49934 51017 333 91104 91203;
0204066010999992010010112004+47550+007583FM-12+031699999V0202901N001010018019N0015001N1+00441+00361099321ADDAY141061AY221061GA1081+001801071GF108991999999001501999999MA1999999095541MD1210101+9999MW1101OA149900461REMSYN088AAXX  01124 06601 31215 82902 10044 20036 39554 49932 52010 71042 333 88706 91109 91205;
0128066010999992010010113004+47550+007583FM-12+031699999V0203201N001019999999N9999999N1+00441+00351099371ADDMA1999999095591MD1210061+9999OA149900211REMSYN076AAXX  01134 06601 33/// /3202 10044 20035 39559 49937 52006 333 91104 91202;
0145066010999992010010114004+47550+007583FM-12+031699999V0202901N001519999999N9999999N1+00481+00381099471ADDAA101001091MA1999999095691MD1219999+9999OA149900411REMSYN082AAXX  01144 06601 23/// /2903 10048 20038 39569 49947 52/// 333 69995 91108 91204;
0145066010999992010010115004+47550+007583FM-12+031699999V0202701N003119999999N9999999N1+00451+00341099621ADDAA101002091MA1999999095831MD1310291+9999OA149900571REMSYN082AAXX  01154 06601 23/// /2706 10045 20034 39583 49962 53029 333 60025 91111 91206;
0145066010999992010010116004+47550+007583FM-12+031699999V0202601N002119999999N9999999N1+00331+00221099801ADDAA101001091MA1999999095981MD1310391+9999OA149900571REMSYN082AAXX  01164 06601 23/// /2604 10033 20022 39598 49980 53039 333 60015 91111 91206;
0145066010999992010010117004+47550+007583FM-12+031699999V0202701N003619999999N9999999N1+00211+00091099961ADDAA101001091MA1999999096121MD1210431+9999OA149900771REMSYN082AAXX  01174 06601 23/// /2707 10021 20009 39612 49996 52043 333 60015 91115 91207;
0280066010999992010010118004+47550+007583FM-12+031699999V0202701N003610018019N0050001N1+00181+00051100131ADDAA112005191AL19900091AY161061AY221061GA1081+001801051GF108991999999001501999999IA1119KA1120M+00481MA1999999096281MD1210451+9999MW1631OA149900881REMSYN124AAXX  01184 06601 01250 82707 10018 20005 39628 40013 52045 60052 76362 333 10048 32/// 69955 88506 90766 93100 91117 91207;
0145066010999992010010119004+47550+007583FM-12+031699999V0202601N004619999999N9999999N1+00161-00041100301ADDAA101000021MA1999999096441MD1210461+9999OA149900981REMSYN082AAXX  01194 06601 23/// /2609 10016 21004 39644 40030 52046 333 69915 91119 91210;
0128066010999992010010120004+47550+007583FM-12+031699999V0202601N004619999999N9999999N1+00121-00081100471ADDMA1999999096601MD1210481+9999OA149901181REMSYN076AAXX  01204 06601 33/// /2609 10012 21008 39660 40047 52048 333 91123 91212;
0128066010999992010010121004+47550+007583FM-12+031699999V0202601N005119999999N9999999N1+00051-00131100661ADDMA1999999096771MD1210491+9999OA149901181REMSYN076AAXX  01214 06601 33/// /2610 10005 21013 39677 40066 52049 333 91123 91212;
0128066010999992010010122004+47550+007583FM-12+031699999V0202701N004119999999N9999999N1+00031-00211100801ADDMA1999999096901MD1210461+9999OA149901131REMSYN076AAXX  01224 06601 33/// /2708 10003 21021 39690 40080 52046 333 91122 91211;
0128066010999992010010123004+47550+007583FM-12+031699999V0202601N003619999999N9999999N1-00011-00241100901ADDMA1999999096991MD1110391+9999OA149901131REMSYN076AAXX  01234 06601 33/// /2607 11001 21024 39699 40090 51039 333 91122 91211;
0151066010999992010010200004+47550+007583FM-12+031699999V0202701N003619999999N9999999N1-00031-00211100971ADDAA106000021MA1999999097061MD1110291+9999OA149901181REMSYN088AAXX  02004 06601 03/// /2707 11003 21021 39706 40097 51029 69911 333 60005 91123 91212;
0145066010999992010010201004+47550+007583FM-12+031699999V0202501N002619999999N9999999N1-00081-00271101081ADDAA101000021MA1999999097161MD1310261+9999OA149900881REMSYN082AAXX  02014 06601 23/// /2505 11008 21027 39716 40108 53026 333 69925 91117 91208;
0087066010999992010010202004+47550+007583FM-12+031699999V0202601N003119999999N9999999N1-00061-00351101181ADDMA1999999097261REMSYN060AAXX  02024 06601 33/// /2606 11006 21035 39726 40118 5////;
0128066010999992010010203004+47550+007583FM-12+031699999V0202601N003119999999N9999999N1-00061-00331101271ADDMA1999999097341MD1210281+9999OA149901131REMSYN076AAXX  02034 06601 33/// /2606 11006 21033 39734 40127 52028 333 91122 91211;
0128066010999992010010204004+47550+007583FM-12+031699999V0202601N006219999999N9999999N1-00081-00381101341ADDMA1999999097411MD1210251+9999OA149901241REMSYN076AAXX  02044 06601 33/// /2612 11008 21038 39741 40134 52025 333 91124 91212;
0128066010999992010010205004+47550+007583FM-12+031699999V0202601N004119999999N9999999N1-00101-00471101461ADDMA1999999097521MD1310261+9999OA149901241REMSYN076AAXX  02054 06601 33/// /2608 11010 21047 39752 40146 53026 333 91124 91212;
0378066010999992010010206004+47550+007583FM-12+031699999V0202601N003110210019N0250001N1-00121-00471101541ADDAA112000391AA224005691AJ100019199999999AL13600591AL29900191AY171061AY221061GA1071+021001061GA2061+033001031GF107991999999022501999999GJ100009IA1229IA2999-00209KA1999N-00111MA1999999097591MD1310251+9999MW1021OA149901241REMSYN148AAXX  02064 06601 01875 72606 11012 21047 39759 40154 53025 69932 70272 333 21011 3/102 46001 55000 60005 70056 87657 86361 90768 93101 91124 91212;
0128066010999992010010207004+47550+007583FM-12+031699999V0202501N002619999999N9999999N1-00131-00461101631ADDMA1999999097681MD1110271+9999OA149901081REMSYN076AAXX  02074 06601 33/// /2505 11013 21046 39768 40163 51027 333 91121 91209;
0087066010999992010010208004+47550+007583FM-12+031699999V0202701N002619999999N9999999N1-00151-00481101751ADDMA1999999097791REMSYN060AAXX  02084 06601 33/// /2705 11015 21048 39779 40175 5////;
0128066010999992010010209004+47550+007583FM-12+031699999V0202601N003619999999N9999999N1-00171-00511101871ADDMA1999999097901MD1310311+9999OA149901241REMSYN076AAXX  02094 06601 33/// /2607 11017 21051 39790 40187 53031 333 91124 91212;
0128066010999992010010210004+47550+007583FM-12+031699999V0202501N002619999999N9999999N1-00101-00561101951ADDMA1999999097991MD1110311+9999OA149900721REMSYN076AAXX  02104 06601 33/// /2505 11010 21056 39799 40195 51031 333 91114 91207;
0128066010999992010010211004+47550+007583FM-12+031699999V0202401N004119999999N9999999N1-00061-00601101981ADDMA1999999098021MD1110231+9999OA149900721REMSYN076AAXX  02114 06601 33/// /2408 11006 21060 39802 40198 51023 333 91114 91208;
0176066010999992010010212004+47550+007583FM-12+031699999V0202701N003112200019N0300001N1-00021-00641102021ADDGA1011+006901061GF101991999999008001999999MA1999999098071MD1110171+9999OA149901241REMSYN082AAXX  02124 06601 32580 12706 11002 21064 39807 40202 51017 333 81623 91124 91212;
0128066010999992010010213004+47550+007583FM-12+031699999V0202601N003619999999N9999999N1-00011-00671102091ADDMA1999999098141MD1310151+9999OA149900771REMSYN076AAXX  02134 06601 33/// /2607 11001 21067 39814 40209 53015 333 91115 91208;
0128066010999992010010214004+47550+007583FM-12+031699999V0203001N003119999999N9999999N1-00031-00671102161ADDMA1999999098201MD1319999+9999OA149900771REMSYN076AAXX  02144 06601 33/// /3006 11003 21067 39820 40216 53/// 333 91115 91208;
0128066010999992010010215004+47550+007583FM-12+031699999V0202401N002619999999N9999999N1-00061-00701102261ADDMA1999999098291MD1210221+9999OA149900771REMSYN076AAXX  02154 06601 33/// /2405 11006 21070 39829 40226 52022 333 91115 91208;
0128066010999992010010216004+47550+007583FM-12+031699999V0202301N002119999999N9999999N1-00151-00691102321ADDMA1999999098341MD1310201+9999OA149900721REMSYN076AAXX  02164 06601 33/// /2304 11015 21069 39834 40232 53020 333 91114 91208;
0128066010999992010010217004+47550+007583FM-12+031699999V0202101N002619999999N9999999N1-00251-00661102401ADDMA1999999098401MD1110201+9999OA149900621REMSYN076AAXX  02174 06601 33/// /2105 11025 21066 39840 40240 51020 333 91112 91208;
0265066010999992010010218004+47550+007583FM-12+031699999V0201901N002612200019N0250001N1-00251-00691102431ADDAJ199992999999999AL19900091GA1011+006901061GF101991999999008001999999IA1219KA1120M+00041MA1999999098431MD1210141+9999OA149900981REMSYN106AAXX  02184 06601 32575 11905 11025 21069 39843 40243 52014 333 10004 45998 81623 90766 93100 91119 91209;EQDQ01  09982SNDP  
0128066010999992010010219004+47550+007583FM-12+031699999V0201801N003619999999N9999999N1-00281-00721102461ADDMA1999999098451MD1210111+9999OA149900511REMSYN076AAXX  02194 06601 33/// /1807 11028 21072 39845 40246 52011 333 91110 91207;
0128066010999992010010220004+47550+007583FM-12+031699999V0201801N003119999999N9999999N1-00321-00741102451ADDMA1999999098441MD1210041+9999OA149900571REMSYN076AAXX  02204 06601 33/// /1806 11032 21074 39844 40245 52004 333 91111 91208;
0128066010999992010010221004+47550+007583FM-12+031699999V0201801N003119999999N9999999N1-00341-00761102431ADDMA1999999098421MD1710011+9999OA149900621REMSYN076AAXX  02214 06601 33/// /1806 11034 21076 39842 40243 57001 333 91112 91208;
0128066010999992010010222004+47550+007583FM-12+031699999V0201001N001019999999N9999999N1-00351-00721102481ADDMA1999999098461MD1310011+9999OA149900411REMSYN076AAXX  02224 06601 33/// /1002 11035 21072 39846 40248 53001 333 91108 91206;
0128066010999992010010223004+47550+007583FM-12+031699999V0201101N000519999999N9999999N1-00391-00731102501ADDMA1999999098481MD1210041+9999OA149900311REMSYN076AAXX  02234 06601 33/// /1101 11039 21073 39848 40250 52004 333 91106 91204;
0128066010999992010010300004+47550+007583FM-12+031699999V0201201N001019999999N9999999N1-00431-00761102491ADDMA1999999098461MD1010041+9999OA149900771REMSYN076AAXX  03004 06601 33/// /1202 11043 21076 39846 40249 50004 333 91115 91208;
0128066010999992010010301004+47550+007583FM-12+031699999V0201201N001019999999N9999999N1-00461-00771102511ADDMA1999999098471MD1510011+9999OA149900211REMSYN076AAXX  03014 06601 33/// /1202 11046 21077 39847 40251 55001 333 91104 91203;
0087066010999992010010302004+47550+007583FM-12+031699999V0201001N001519999999N9999999N1-00511-00751102501ADDMA1999999098461REMSYN060AAXX  03024 06601 33/// /1003 11051 21075 39846 40250 5////;
0087066010999992010010303004+47550+007583FM-12+031699999V0201101N001519999999N9999999N1-00541-00791102491ADDMA1999999098441REMSYN060AAXX  03034 06601 33/// /1103 11054 21079 39844 40249 5////;
0128066010999992010010304004+47550+007583FM-12+031699999V0201001N001519999999N9999999N1-00551-00791102471ADDMA1999999098421MD1710051+9999OA149900361REMSYN076AAXX  03044 06601 33/// /1003 11055 21079 39842 40247 57005 333 91107 91203;
0128066010999992010010305004+47550+007583FM-12+031699999V0201001N002119999999N9999999N1-00571-00781102471ADDMA1999999098421MD1519999+9999OA149900411REMSYN076AAXX  03054 06601 33/// /1004 11057 21078 39842 40247 55/// 333 91108 91204;
0330066010999992010010306004+47550+007583FM-12+031699999V0201101N002110720019N0300001N1-00571-00791102401ADDAA124000091AJ199992999999999AL19900091GA1071+072001021GF107991999999999999999999GJ103129IA1259IA2999-00809KA1999N-00571MA1999999098351MD1810091+9999OA149900571REMSYN124AAXX  03064 06601 32980 71104 11057 21079 39835 40240 58009 333 21057 3/108 41998 55052 70000 87274 90768 93100 91111 91208;EQDQ01  00002PRCP24Q02  09982SNDP  
0128066010999992010010307004+47550+007583FM-12+031699999V0201001N002119999999N9999999N1-00581-00801102391ADDMA1999999098341MD1710081+9999OA149900411REMSYN076AAXX  03074 06601 33/// /1004 11058 21080 39834 40239 57008 333 91108 91204;
0128066010999992010010308004+47550+007583FM-12+031699999V0201101N002119999999N9999999N1-00581-00791102431ADDMA1999999098381MD1519999+9999OA149900411REMSYN076AAXX  03084 06601 33/// /1104 11058 21079 39838 40243 55/// 333 91108 91204;
0128066010999992010010309004+47550+007583FM-12+031699999V0201101N002619999999N9999999N1-00481-00741102441ADDMA1999999098401MD1210051+9999OA149900411REMSYN076AAXX  03094 06601 33/// /1105 11048 21074 39840 40244 52005 333 91108 91205;
0128066010999992010010310004+47550+007583FM-12+031699999V0201001N002119999999N9999999N1-00351-00731102411ADDMA1999999098391MD1010051+9999OA149900411REMSYN076AAXX  03104 06601 33/// /1004 11035 21073 39839 40241 50005 333 91108 91205;
0128066010999992010010311004+47550+007583FM-12+031699999V0201101N002119999999N9999999N1-00201-00691102271ADDMA1999999098281MD1810101+9999OA149900361REMSYN076AAXX  03114 06601 33/// /1104 11020 21069 39828 40227 58010 333 91107 91204;
0176066010999992010010312004+47550+007583FM-12+031699999V0201101N001012200019N0400001N1-00021-00601102201ADDGA1011+005701061GF101991999999004501999999MA1999999098241MD1710161+9999OA149900411REMSYN082AAXX  03124 06601 32482 11102 11002 21060 39824 40220 57016 333 81619 91108 91205;
0128066010999992010010313004+47550+007583FM-12+031699999V0201101N001019999999N9999999N1+00061-00621102131ADDMA1999999098191MD1710201+9999OA149900361REMSYN076AAXX  03134 06601 33/// /1102 10006 21062 39819 40213 57020 333 91107 91204;
0128066010999992010010314004+47550+007583FM-12+031699999V0201001N001019999999N9999999N1+00111-00651102111ADDMA1999999098171MD1710111+9999OA149900211REMSYN076AAXX  03144 06601 33/// /1002 10011 21065 39817 40211 57011 333 91104 91202;
0128066010999992010010315004+47550+007583FM-12+031699999V0201101N001519999999N9999999N1+00041-00621102111ADDMA1999999098161MD1710081+9999OA149900361REMSYN076AAXX  03154 06601 33/// /1103 10004 21062 39816 40211 57008 333 91107 91204;
0128066010999992010010316004+47550+007583FM-12+031699999V0201101N002119999999N9999999N1-00061-00631102101ADDMA1999999098141MD1710051+9999OA149900311REMSYN076AAXX  03164 06601 33/// /1104 11006 21063 39814 40210 57005 333 91106 91204;
0128066010999992010010317004+47550+007583FM-12+031699999V0201101N002119999999N9999999N1-00131-00651102081ADDMA1999999098111MD1710061+9999OA149900361REMSYN076AAXX  03174 06601 33/// /1104 11013 21065 39811 40208 57006 333 91107 91204;
0265066010999992010010318004+47550+007583FM-12+031699999V0201201N002112200019N0250001N1-00181-00611102101ADDAJ199992999999999AL19900091GA1011+066001001GF101991999999999999999999IA1259KA1120M+00111MA1999999098121MD1710041+9999OA149900411REMSYN106AAXX  03184 06601 32975 11204 11018 21061 39812 40210 57004 333 10011 41998 81072 90766 93100 91108 91205;EQDQ01  09982SNDP  
0128066010999992010010319004+47550+007583FM-12+031699999V0201001N002119999999N9999999N1-00251-00641102091ADDMA1999999098101MD1710041+9999OA149900361REMSYN076AAXX  03194 06601 33/// /1004 11025 21064 39810 40209 57004 333 91107 91204;
0128066010999992010010320004+47550+007583FM-12+031699999V0201101N002119999999N9999999N1-00321-00651102081ADDMA1999999098081MD1810031+9999OA149900411REMSYN076AAXX  03204 06601 33/// /1104 11032 21065 39808 40208 58003 333 91108 91204;
0128066010999992010010321004+47550+007583FM-12+031699999V0201101N002119999999N9999999N1-00371-00701102061ADDMA1999999098061MD1710061+9999OA149900411REMSYN076AAXX  03214 06601 33/// /1104 11037 21070 39806 40206 57006 333 91108 91204;
0128066010999992010010322004+47550+007583FM-12+031699999V0201201N001519999999N9999999N1-00411-00751102041ADDMA1999999098031MD1710071+9999OA149900411REMSYN076AAXX  03224 06601 33/// /1203 11041 21075 39803 40204 57007 333 91108 91205;
0128066010999992010010323004+47550+007583FM-12+031699999V0201101N001519999999N9999999N1-00471-00781102031ADDMA1999999098011MD1710071+9999OA149900411REMSYN076AAXX  03234 06601 33/// /1103 11047 21078 39801 40203 57007 333 91108 91205;
0128066010999992010010400004+47550+007583FM-12+031699999V0201001N001519999999N9999999N1-00501-00781101971ADDMA1999999097951MD1710111+9999OA149900411REMSYN076AAXX  04004 06601 33/// /1003 11050 21078 39795 40197 57011 333 91108 91205;
0128066010999992010010401004+47550+007583FM-12+031699999V0201101N002619999999N9999999N1-00501-00781101921ADDMA1999999097901MD1710131+9999OA149900511REMSYN076AAXX  04014 06601 33/// /1105 11050 21078 39790 40192 57013 333 91110 91206;
0128066010999992010010402004+47550+007583FM-12+031699999V0201301N001019999999N9999999N1-00611-00831101911ADDMA1999999097881MD1710131+9999OA149900511REMSYN076AAXX  04024 06601 33/// /1302 11061 21083 39788 40191 57013 333 91110 91206;
0128066010999992010010403004+47550+007583FM-12+031699999V0201801N000519999999N9999999N1-00731-00861101911ADDMA1999999097861MD1719999+9999OA149900511REMSYN076AAXX  04034 06601 33/// /1801 11073 21086 39786 40191 57/// 333 91110 91206;
0128066010999992010010404004+47550+007583FM-12+031699999V0201201N000519999999N9999999N1-00691-00851101861ADDMA1999999097821MD1710081+9999OA149900261REMSYN076AAXX  04044 06601 33/// /1201 11069 21085 39782 40186 57008 333 91105 91203;
0128066010999992010010405004+47550+007583FM-12+031699999V0201601N000519999999N9999999N1-00771-00901101881ADDMA1999999097821MD1710061+9999OA149900151REMSYN076AAXX  04054 06601 33/// /1601 11077 21090 39782 40188 57006 333 91103 91202;
0352066010999992010010406004+47550+007583FM-12+031699999V0201901N002110720019N0250001N1-00751-00931101911ADDAA124000091AJ199992999999999AL19900091GA1011+002701071GA2061+072001001GF106991999999002501999999GJ103789IA1259IA2999-01009KA1999N-00801MA1999999097851MD1510011+9999OA149900511REMSYN130AAXX  04064 06601 32375 61904 11075 21093 39785 40191 55001 333 21080 3/110 41998 55063 70000 81709 86074 90768 93100 91110 91206;EQDQ01  00002PRCP24Q02  09982SNDP  
0128066010999992010010407004+47550+007583FM-12+031699999V0201701N000519999999N9999999N1-00811-00951101871ADDMA1999999097811MD1810011+9999OA149900261REMSYN076AAXX  04074 06601 33/// /1701 11081 21095 39781 40187 58001 333 91105 91204;
0163066010999992010010408004+47550+007583FM-12+031699999V0201001N000519999999N9999999N1-00731-00891101871ADDMA1999999097821MD1710011+9999OA149900261REMSYN076AAXX  04084 06601 33/// /1001 11073 21089 39782 40187 57000 333 91105 91203;EQDQ01+000072APCTENQ02+000002APC3  
0128066010999992010010409004+47550+007583FM-12+031699999V0201401N000519999999N9999999N1-00701-00901101891ADDMA1999999097841MD1510011+9999OA149900261REMSYN076AAXX  04094 06601 33/// /1401 11070 21090 39784 40189 55001 333 91105 91204;
0128066010999992010010410004+47550+007583FM-12+031699999V0209999C000019999999N9999999N1-00551-00851101841ADDMA1999999097821MD1010011+9999OA149900211REMSYN076AAXX  04104 06601 33/// /0000 11055 21085 39782 40184 50001 333 91104 91203;
0128066010999992010010411004+47550+007583FM-12+031699999V0209999C000019999999N9999999N1-00391-00721101731ADDMA1999999097741MD1710081+9999OA149900151REMSYN076AAXX  04114 06601 33/// /0000 11039 21072 39774 40173 57008 333 91103 91202;
0176066010999992010010412004+47550+007583FM-12+031699999V0203001N001512200019N0160001N1-00321-00671101641ADDGA1021+002701081GF102991999999002501999999MA1999999097661MD1810181+9999OA149900511REMSYN082AAXX  04124 06601 32366 23003 11032 21067 39766 40164 58018 333 82809 91110 91206;
0128066010999992010010413004+47550+007583FM-12+031699999V0203101N001519999999N9999999N1-00371-00621101601ADDMA1999999097611MD1610211+9999OA149900361REMSYN076AAXX  04134 06601 33/// /3103 11037 21062 39761 40160 56021 333 91107 91204;
0128066010999992010010414004+47550+007583FM-12+031699999V0203401N001519999999N9999999N1-00361-00581101561ADDMA1999999097581MD1619999+9999OA149900361REMSYN076AAXX  04144 06601 33/// /3403 11036 21058 39758 40156 56/// 333 91107 91204;
0128066010999992010010415004+47550+007583FM-12+031699999V0203301N001519999999N9999999N1-00351-00621101541ADDMA1999999097561MD1610101+9999OA149900361REMSYN076AAXX  04154 06601 33/// /3303 11035 21062 39756 40154 56010 333 91107 91204;
0128066010999992010010416004+47550+007583FM-12+031699999V0203201N001019999999N9999999N1-00361-00651101551ADDMA1999999097571MD1710041+9999OA149900361REMSYN076AAXX  04164 06601 33/// /3202 11036 21065 39757 40155 57004 333 91107 91203;
0128066010999992010010417004+47550+007583FM-12+031699999V0203201N001019999999N9999999N1-00351-00611101541ADDMA1999999097561MD1719999+9999OA149900361REMSYN076AAXX  04174 06601 33/// /3202 11035 21061 39756 40154 57/// 333 91107 91203;
0293066010999992010010418004+47550+007583FM-12+031699999V0203001N001510039019N0060001N1-00361-00621101531ADDAJ199992999999999AL19900091AY111061AY211061GA1081+003901061GF108991999999004501999999IA1219KA1120M-00311MA1999999097551MD1810011+9999MW1101OA149900361REMSYN112AAXX  04184 06601 31456 83003 11036 21062 39755 40153 58001 71011 333 11031 45998 88613 90766 93100 91107 91204;EQDQ01  09982SNDP  
0128066010999992010010419004+47550+007583FM-12+031699999V0203101N001019999999N9999999N1-00361-00641101521ADDMA1999999097541MD1710031+9999OA149900361REMSYN076AAXX  04194 06601 33/// /3102 11036 21064 39754 40152 57003 333 91107 91203;
0128066010999992010010420004+47550+007583FM-12+031699999V0202901N001019999999N9999999N1-00351-00631101471ADDMA1999999097491MD1710071+9999OA149900311REMSYN076AAXX  04204 06601 33/// /2902 11035 21063 39749 40147 57007 333 91106 91203;
0128066010999992010010421004+47550+007583FM-12+031699999V0203401N000519999999N9999999N1-00361-00581101451ADDMA1999999097471MD1710081+9999OA149900361REMSYN076AAXX  04214 06601 33/// /3401 11036 21058 39747 40145 57008 333 91107 91203;
0128066010999992010010422004+47550+007583FM-12+031699999V0202901N000519999999N9999999N1-00371-00581101431ADDMA1999999097451MD1610091+9999OA149900211REMSYN076AAXX  04224 06601 33/// /2901 11037 21058 39745 40143 56009 333 91104 91202;
0128066010999992010010423004+47550+007583FM-12+031699999V0200901N001019999999N9999999N1-00351-00681101381ADDMA1999999097411MD1810081+9999OA149900211REMSYN076AAXX  04234 06601 33/// /0902 11035 21068 39741 40138 58008 333 91104 91202;
0128066010999992010010500004+47550+007583FM-12+031699999V0200901N000519999999N9999999N1-00371-00721101331ADDMA1999999097351MD1810121+9999OA149900361REMSYN076AAXX  05004 06601 33/// /0901 11037 21072 39735 40133 58012 333 91107 91204;
0128066010999992010010501004+47550+007583FM-12+031699999V0200601N001519999999N9999999N1-00391-00721101281ADDMA1999999097301MD1810151+9999OA149900311REMSYN076AAXX  05014 06601 33/// /0603 11039 21072 39730 40128 58015 333 91106 91203;
0128066010999992010010502004+47550+007583FM-12+031699999V0201301N001019999999N9999999N1-00511-00721101251ADDMA1999999097261MD1610151+9999OA149900211REMSYN076AAXX  05024 06601 33/// /1302 11051 21072 39726 40125 56015 333 91104 91203;
0128066010999992010010503004+47550+007583FM-12+031699999V0201101N001519999999N9999999N1-00601-00771101221ADDMA1999999097211MD1810141+9999OA149900311REMSYN076AAXX  05034 06601 33/// /1103 11060 21077 39721 40122 58014 333 91106 91203;
0128066010999992010010504004+47550+007583FM-12+031699999V0201001N001519999999N9999999N1-00661-00831101151ADDMA1999999097141MD1810161+9999OA149900311REMSYN076AAXX  05044 06601 33/// /1003 11066 21083 39714 40115 58016 333 91106 91203;
0128066010999992010010505004+47550+007583FM-12+031699999V0201001N000519999999N9999999N1-00691-00851101081ADDMA1999999097071MD1610191+9999OA149900311REMSYN076AAXX  05054 06601 33/// /1001 11069 21085 39707 40108 56019 333 91106 91203;
0380066010999992010010506004+47550+007583FM-12+031699999V0201001N001010210019N0120001N1-00681-00861101021ADDAA124000091AJ199992999999999AL19900091AY111061AY211061GA1021+001801071GA2041+021001031GF106991999999001501999999GJ102229IA1259IA2999-00909KA1999N-00711MA1999999097011MD1710201+9999MW1101OA149900311REMSYN136AAXX  05064 06601 31262 61002 11068 21086 39701 40102 57020 71011 333 21071 3/109 41998 55037 70000 82706 84357 90768 93100 91106 91203;EQDQ01  00002PRCP24Q02  09982SNDP  
0128066010999992010010507004+47550+007583FM-12+031699999V0201101N000519999999N9999999N1-00681-00881100991ADDMA1999999096981MD1710161+9999OA149900211REMSYN076AAXX  05074 06601 33/// /1101 11068 21088 39698 40099 57016 333 91104 91202;
0128066010999992010010508004+47550+007583FM-12+031699999V0201201N000519999999N9999999N1-00621-00861100961ADDMA1999999096961MD1710111+9999OA149900211REMSYN076AAXX  05084 06601 33/// /1201 11062 21086 39696 40096 57011 333 91104 91203;
0128066010999992010010509004+47550+007583FM-12+031699999V0202901N001019999999N9999999N1-00551-00811100921ADDMA1999999096931MD1710081+9999OA149900311REMSYN076AAXX  05094 06601 33/// /2902 11055 21081 39693 40092 57008 333 91106 91203;
0128066010999992010010510004+47550+007583FM-12+031699999V0203201N001019999999N9999999N1-00431-00741100851ADDMA1999999096881MD1710101+9999OA149900211REMSYN076AAXX  05104 06601 33/// /3202 11043 21074 39688 40085 57010 333 91104 91203;
0128066010999992010010511004+47550+007583FM-12+031699999V0200701N001019999999N9999999N1-00261-00771100721ADDMA1999999096781MD1810181+9999OA149900211REMSYN076AAXX  05114 06601 33/// /0702 11026 21077 39678 40072 58018 333 91104 91203;
0226066010999992010010512004+47550+007583FM-12+031699999V0200701N003119999999N0100001N1-00231-00821100621ADDAY121061AY221061GA1041+033001031GA2021+033001041GF106991999999999999999999MA1999999096691MD1810241+9999MW1051OA149900671REMSYN094AAXX  05124 06601 31960 60706 11023 21082 39669 40062 58024 70522 333 84361 82461 91113 91206;
0128066010999992010010513004+47550+007583FM-12+031699999V0200801N001519999999N9999999N1-00191-00761100511ADDMA1999999096591MD1710291+9999OA149900671REMSYN076AAXX  05134 06601 33/// /0803 11019 21076 39659 40051 57029 333 91113 91206;
0087066010999992010010514004+47550+007583FM-12+031699999V0200501N001519999999N9999999N1-00181-00731100461ADDMA1999999096551REMSYN060AAXX  05144 06601 33/// /0503 11018 21073 39655 40046 5////;
0128066010999992010010515004+47550+007583FM-12+031699999V0203201N001019999999N9999999N1-00261-00661100461ADDMA1999999096531MD1710161+9999OA149900671REMSYN076AAXX  05154 06601 33/// /3202 11026 21066 39653 40046 57016 333 91113 91206;
0128066010999992010010516004+47550+007583FM-12+031699999V0200701N002119999999N9999999N1-00221-00671100431ADDMA1999999096511MD1710081+9999OA149900361REMSYN076AAXX  05164 06601 33/// /0704 11022 21067 39651 40043 57008 333 91107 91204;
0128066010999992010010517004+47550+007583FM-12+031699999V0200701N002119999999N9999999N1-00231-00651100411ADDMA1999999096491MD1610061+9999OA149900461REMSYN076AAXX  05174 06601 33/// /0704 11023 21065 39649 40041 56006 333 91109 91205;
0293066010999992010010518004+47550+007583FM-12+031699999V0200901N002110069019N0100001N1-00251-00691100391ADDAJ199992999999999AL19900091AY121061AY221061GA1081+006901071GF108991999999008001999999IA1259KA1120M-00151MA1999999096471MD1810061+9999MW1101OA149900671REMSYN112AAXX  05184 06601 31560 80904 11025 21069 39647 40039 58006 71022 333 11015 41998 88723 90766 93100 91113 91206;EQDQ01  09982SNDP  
0128066010999992010010519004+47550+007583FM-12+031699999V0200701N001019999999N9999999N1-00251-00681100391ADDMA1999999096471MD1710041+9999OA149900461REMSYN076AAXX  05194 06601 33/// /0702 11025 21068 39647 40039 57004 333 91109 91205;
0128066010999992010010520004+47550+007583FM-12+031699999V0200801N002619999999N9999999N1-00261-00671100351ADDMA1999999096431MD1710061+9999OA149900511REMSYN076AAXX  05204 06601 33/// /0805 11026 21067 39643 40035 57006 333 91110 91205;
0128066010999992010010521004+47550+007583FM-12+031699999V0200801N002119999999N9999999N1-00301-00661100331ADDMA1999999096401MD1710071+9999OA149900571REMSYN076AAXX  05214 06601 33/// /0804 11030 21066 39640 40033 57007 333 91111 91206;
0128066010999992010010522004+47550+007583FM-12+031699999V0200801N001519999999N9999999N1-00301-00641100291ADDMA1999999096371MD1810101+9999OA149900571REMSYN076AAXX  05224 06601 33/// /0803 11030 21064 39637 40029 58010 333 91111 91206;
0128066010999992010010523004+47550+007583FM-12+031699999V0200801N001519999999N9999999N1-00331-00571100291ADDMA1999999096361MD1710071+9999OA149900461REMSYN076AAXX  05234 06601 33/// /0803 11033 21057 39636 40029 57007 333 91109 91205;
0170066010999992010010600004+47550+007583FM-12+031699999V0200901N001019999999N9999999N1-00361-00501100251ADDAA106000091MA1999999096321MD1710081+9999OA149900571REMSYN088AAXX  06004 06601 03/// /0902 11036 21050 39632 40025 57008 69921 333 69925 91111 91206;EQDQ01  00002PRCP06
0145066010999992010010601004+47550+007583FM-12+031699999V0200801N002119999999N9999999N1-00361-00511100201ADDAA101000021MA1999999096271MD1710101+9999OA149900411REMSYN082AAXX  06014 06601 23/// /0804 11036 21051 39627 40020 57010 333 69925 91108 91204;
0128066010999992010010602004+47550+007583FM-12+031699999V0200801N001019999999N9999999N1-00381-00561100251ADDMA1999999096321MD1510041+9999OA149900411REMSYN076AAXX  06024 06601 33/// /0802 11038 21056 39632 40025 55004 333 91108 91204;
0128066010999992010010603004+47550+007583FM-12+031699999V0203001N001019999999N9999999N1-00371-00511100301ADDMA1999999096361MD1210041+9999OA149900461REMSYN076AAXX  06034 06601 33/// /3002 11037 21051 39636 40030 52004 333 91109 91205;
0128066010999992010010604004+47550+007583FM-12+031699999V0203001N001019999999N9999999N1-00381-00491100311ADDMA1999999096371MD1210101+9999OA149900211REMSYN076AAXX  06044 06601 33/// /3002 11038 21049 39637 40031 52010 333 91104 91202;
0128066010999992010010605004+47550+007583FM-12+031699999V0209999C000019999999N9999999N1-00381-00491100321ADDMA1999999096381MD1210061+9999OA149900211REMSYN076AAXX  06054 06601 33/// /0000 11038 21049 39638 40032 52006 333 91104 91202;
0229066010999992010010606004+47550+007583FM-12+031699999V0201701N000519999999N9999999N1-00361-00501100351ADDAA112000591AA224000591AL12400091GJ102649IA2999-00409KA1999N-00401MA1999999096411MD1210051+9999OA149900571REMSYN112AAXX  06064 06601 03/// /1701 11036 21050 39641 40035 52005 69942 333 21040 3/104 55044 60005 70004 91111 91206;
0128066010999992010010607004+47550+007583FM-12+031699999V0202601N000519999999N9999999N1-00321-00531100361ADDMA1999999096431MD1210061+9999OA149900151REMSYN076AAXX  06074 06601 33/// /2601 11032 21053 39643 40036 52006 333 91103 91201;
0128066010999992010010608004+47550+007583FM-12+031699999V0202901N000519999999N9999999N1-00301-00491100411ADDMA1999999096481MD1310101+9999OA149900211REMSYN076AAXX  06084 06601 33/// /2901 11030 21049 39648 40041 53010 333 91104 91202;
0128066010999992010010609004+47550+007583FM-12+031699999V0202901N000519999999N9999999N1-00251-00451100431ADDMA1999999096511MD1310101+9999OA149900211REMSYN076AAXX  06094 06601 33/// /2901 11025 21045 39651 40043 53010 333 91104 91202;
0145066010999992010010610004+47550+007583FM-12+031699999V0203201N001019999999N9999999N1-00231-00441100461ADDAA101000021MA1999999096541MD1110111+9999OA149900151REMSYN082AAXX  06104 06601 23/// /3202 11023 21044 39654 40046 51011 333 69915 91103 91202;
0128066010999992010010611004+47550+007583FM-12+031699999V0203201N000519999999N9999999N1-00221-00441100451ADDMA1999999096531MD1219999+9999OA149900151REMSYN076AAXX  06114 06601 33/// /3201 11022 21044 39653 40045 52/// 333 91103 91202;
0246066010999992010010612004+47550+007583FM-12+031699999V0203401N001010027019N0040001N1-00211-00411100421ADDAA106000091AY171061AY221061GA1081+002701071GF108991999999002501999999MA1999999096501MD1810011+9999MW1101OA149900411REMSYN100AAXX  06124 06601 01340 83402 11021 21041 39650 40042 58001 69911 71072 333 60005 88709 91108 91204;EQDQ01  00002PRCP06
0128066010999992010010613004+47550+007583FM-12+031699999V0203501N001019999999N9999999N1-00211-00391100431ADDMA1999999096511MD1710031+9999OA149900261REMSYN076AAXX  06134 06601 33/// /3502 11021 21039 39651 40043 57003 333 91105 91202;
0128066010999992010010614004+47550+007583FM-12+031699999V0203601N000519999999N9999999N1-00201-00371100451ADDMA1999999096531MD1319999+9999OA149900211REMSYN076AAXX  06144 06601 33/// /3601 11020 21037 39653 40045 53/// 333 91104 91202;
0134066010999992010010615004+47550+007583FM-12+031699999V0201801N000519999999N9999999N1-00171-00391100461ADDMA1999999096551MD1219999+9999OA149900261REMSYN082AAXX  06154 06601 33/// /1801 11017 21039 39655 40046 52/// 91440 333 91105 91202;
0128066010999992010010616004+47550+007583FM-12+031699999V0203201N001019999999N9999999N1-00181-00421100511ADDMA1999999096591MD1110081+9999OA149900151REMSYN076AAXX  06164 06601 33/// /3202 11018 21042 39659 40051 51008 333 91103 91202;
0128066010999992010010617004+47550+007583FM-12+031699999V0200401N000519999999N9999999N1-00171-00401100541ADDMA1999999096621MD1110091+9999OA149900211REMSYN076AAXX  06174 06601 33/// /0401 11017 21040 39662 40054 51009 333 91104 91202;
0332066010999992010010618004+47550+007583FM-12+031699999V0200601N000510027019N0050001N1-00181-00421100591ADDAA112000091AJ199992999999999AL19900091AY131061AY221061GA1081+002701071GF108991999999002501999999IA1239KA1120M-00171MA1999999096671MD1310111+9999MW1101OA149900261REMSYN124AAXX  06184 06601 01350 80601 11018 21042 39667 40059 53011 69912 71032 333 11017 47998 60005 88709 90766 93100 91105 91202;EQDQ01  00002PRCP12Q02  09982SNDP  
0128066010999992010010619004+47550+007583FM-12+031699999V0200801N001019999999N9999999N1-00191-00481100611ADDMA1999999096691MD1210101+9999OA149900261REMSYN076AAXX  06194 06601 33/// /0802 11019 21048 39669 40061 52010 333 91105 91203;
0128066010999992010010620004+47550+007583FM-12+031699999V0200701N000519999999N9999999N1-00191-00491100651ADDMA1999999096731MD1210111+9999OA149900261REMSYN076AAXX  06204 06601 33/// /0701 11019 21049 39673 40065 52011 333 91105 91203;
0128066010999992010010621004+47550+007583FM-12+031699999V0203001N001019999999N9999999N1-00221-00441100691ADDMA1999999096761MD1210091+9999OA149900261REMSYN076AAXX  06214 06601 33/// /3002 11022 21044 39676 40069 52009 333 91105 91203;
0128066010999992010010622004+47550+007583FM-12+031699999V0203201N000519999999N9999999N1-00251-00441100751ADDMA1999999096811MD1110121+9999OA149900151REMSYN076AAXX  06224 06601 33/// /3201 11025 21044 39681 40075 51012 333 91103 91202;
0128066010999992010010623004+47550+007583FM-12+031699999V0201401N001019999999N9999999N1-00221-00401100721ADDMA1999999096791MD1210061+9999OA149900151REMSYN076AAXX  06234 06601 33/// /1402 11022 21040 39679 40072 52006 333 91103 91202;
0128066010999992010010700004+47550+007583FM-12+031699999V0201101N001019999999N9999999N1-00231-00381100751ADDMA1999999096821MD1210061+9999OA149900261REMSYN076AAXX  07004 06601 33/// /1102 11023 21038 39682 40075 52006 333 91105 91203;
0128066010999992010010701004+47550+007583FM-12+031699999V0201001N001519999999N9999999N1-00201-00381100761ADDMA1999999096831MD1210021+9999OA149900311REMSYN076AAXX  07014 06601 33/// /1003 11020 21038 39683 40076 52002 333 91106 91203;
0128066010999992010010702004+47550+007583FM-12+031699999V0201001N002119999999N9999999N1-00281-00431100781ADDMA1999999096841MD1219999+9999OA149900411REMSYN076AAXX  07024 06601 33/// /1004 11028 21043 39684 40078 52/// 333 91108 91204;
0128066010999992010010703004+47550+007583FM-12+031699999V0201101N001519999999N9999999N1-00321-00451100791ADDMA1999999096841MD1210021+9999OA149900461REMSYN076AAXX  07034 06601 33/// /1103 11032 21045 39684 40079 52002 333 91109 91204;
0128066010999992010010704004+47550+007583FM-12+031699999V0201501N001019999999N9999999N1-00461-00601100801ADDMA1999999096831MD1010001+9999OA149900461REMSYN076AAXX  07044 06601 33/// /1502 11046 21060 39683 40080 50000 333 91109 91204;
0128066010999992010010705004+47550+007583FM-12+031699999V0201501N002119999999N9999999N1-00491-00661100821ADDMA1999999096851MD1210011+9999OA149900311REMSYN076AAXX  07054 06601 33/// /1504 11049 21066 39685 40082 52001 333 91106 91204;
0364066010999992010010706004+47550+007583FM-12+031699999V0201301N001510630019N0120001N1-00481-00631100861ADDAA124000091AJ100029199999999AL19900091AY111061AY211061GA1011+008701071GA2061+063001001GF106991999999008001999999GJ100009IA1239IA2999-01009KA1999N-00601MA1999999096891MD1210051+9999MW1101OA149900461REMSYN136AAXX  07064 06601 31562 61303 11048 21063 39689 40086 52005 71011 333 21060 3/110 47002 55000 70001 81729 86071 90768 93100 91109 91204;EQDQ01  00002PRCP24
0128066010999992010010707004+47550+007583FM-12+031699999V0201101N002619999999N9999999N1-00491-00641100881ADDMA1999999096901MD1110071+9999OA149900411REMSYN076AAXX  07074 06601 33/// /1105 11049 21064 39690 40088 51007 333 91108 91205;
0128066010999992010010708004+47550+007583FM-12+031699999V0201301N001519999999N9999999N1-00421-00611100931ADDMA1999999096961MD1319999+9999OA149900461REMSYN076AAXX  07084 06601 33/// /1303 11042 21061 39696 40093 53/// 333 91109 91205;
0128066010999992010010709004+47550+007583FM-12+031699999V0201101N003119999999N9999999N1-00341-00531100951ADDMA1999999096991MD1110101+9999OA149900621REMSYN076AAXX  07094 06601 33/// /1106 11034 21053 39699 40095 51010 333 91112 91206;
0128066010999992010010710004+47550+007583FM-12+031699999V0201001N002119999999N9999999N1-00211-00461100981ADDMA1999999097041MD1310141+9999OA149900621REMSYN076AAXX  07104 06601 33/// /1004 11021 21046 39704 40098 53014 333 91112 91206;
0128066010999992010010711004+47550+007583FM-12+031699999V0201201N001519999999N9999999N1-00081-00401100981ADDMA1999999097061MD1210101+9999OA149900621REMSYN076AAXX  07114 06601 33/// /1203 11008 21040 39706 40098 52010 333 91112 91206;
0204066010999992010010712004+47550+007583FM-12+031699999V0200901N002610210019N0140001N1+00001-00351100931ADDAY121061AY221061GA1061+021001031GF107991999999022501999999MA1999999097021MD1010031+9999MW1101OA149900621REMSYN088AAXX  07124 06601 31864 70905 10000 21035 39702 40093 50003 71022 333 86357 91112 91206;
0128066010999992010010713004+47550+007583FM-12+031699999V0200901N001519999999N9999999N1+00031-00321100911ADDMA1999999097011MD1719999+9999OA149900571REMSYN076AAXX  07134 06601 33/// /0903 10003 21032 39701 40091 57/// 333 91111 91205;
0087066010999992010010715004+47550+007583FM-12+031699999V0201101N001019999999N9999999N1+00061-00311100971ADDMA1999999097071REMSYN060AAXX  07154 06601 43/// /1102 10006 21031 39707 40097 5////;
0128066010999992010010716004+47550+007583FM-12+031699999V0203401N000519999999N9999999N1+00021-00321101041ADDMA1999999097131MD1219999+9999OA149900261REMSYN076AAXX  07164 06601 33/// /3401 10002 21032 39713 40104 52/// 333 91105 91203;
0128066010999992010010717004+47550+007583FM-12+031699999V0201101N001019999999N9999999N1+00001-00311101051ADDMA1999999097141MD1219999+9999OA149900211REMSYN076AAXX  07174 06601 33/// /1102 10000 21031 39714 40105 52/// 333 91104 91202;
0274066010999992010010718004+47550+007583FM-12+031699999V0201201N001510087019N0120001N1-00011-00311101121ADDAJ100029199999999AL19900091AY121061AY221061GA1081+008701061GF108991999999008001999999IA1309KA1120M+00071MA1999999097201MD1219999+9999MW1101OA149900621REMSYN112AAXX  07184 06601 31562 81203 11001 21031 39720 40112 52/// 71022 333 10007 42002 88629 90766 93100 91112 91206;
0128066010999992010010719004+47550+007583FM-12+031699999V0200901N001019999999N9999999N1-00051-00321101151ADDMA1999999097231MD1210101+9999OA149900311REMSYN076AAXX  07194 06601 33/// /0902 11005 21032 39723 40115 52010 333 91106 91203;
0128066010999992010010720004+47550+007583FM-12+031699999V0201201N001519999999N9999999N1-00021-00331101161ADDMA1999999097241MD1110101+9999OA149900311REMSYN076AAXX  07204 06601 33/// /1203 11002 21033 39724 40116 51010 333 91106 91203;
0128066010999992010010721004+47550+007583FM-12+031699999V0203101N001019999999N9999999N1-00061-00281101201ADDMA1999999097271MD1310071+9999OA149900311REMSYN076AAXX  07214 06601 33/// /3102 11006 21028 39727 40120 53007 333 91106 91203;
0128066010999992010010722004+47550+007583FM-12+031699999V0202601N000519999999N9999999N1-00111-00291101181ADDMA1999999097251MD1210021+9999OA149900211REMSYN076AAXX  07224 06601 33/// /2601 11011 21029 39725 40118 52002 333 91104 91203;
0128066010999992010010723004+47550+007583FM-12+031699999V0203101N001519999999N9999999N1-00171-00321101221ADDMA1999999097281MD1210041+9999OA149900261REMSYN076AAXX  07234 06601 33/// /3103 11017 21032 39728 40122 52004 333 91105 91203;
0128066010999992010010800004+47550+007583FM-12+031699999V0202901N001519999999N9999999N1-00171-00311101231ADDMA1999999097291MD1210021+9999OA149900571REMSYN076AAXX  08004 06601 33/// /2903 11017 21031 39729 40123 52002 333 91111 91205;
0147066010999992010010801004+47550+007583FM-12+031699999V0203001N001519999999N9999999N1-00201-00281101201ADDMA1999999097251MD1810021+9999OA149900361REMSYN076AAXX  08014 06601 33/// /3003 11020 21028 39725 40120 58000 333 91107 91204;EQDQ01+000002APC3  
0145066010999992010010802004+47550+007583FM-12+031699999V0203101N001019999999N9999999N1-00201-00291101191ADDAA101000021MA1999999097241MD1719999+9999OA149900361REMSYN082AAXX  08024 06601 23/// /3102 11020 21029 39724 40119 57/// 333 69925 91107 91204;
0145066010999992010010803004+47550+007583FM-12+031699999V0202801N001019999999N9999999N1-00201-00261101161ADDAA101000391MA1999999097221MD1719999+9999OA149900361REMSYN082AAXX  08034 06601 23/// /2802 11020 21026 39722 40116 57/// 333 69935 91107 91204;
0145066010999992010010804004+47550+007583FM-12+031699999V0203201N001519999999N9999999N1-00201-00281101121ADDAA101000021MA1999999097181MD1810071+9999OA149900361REMSYN082AAXX  08044 06601 23/// /3203 11020 21028 39718 40112 58007 333 69915 91107 91203;
0145066010999992010010805004+47550+007583FM-12+031699999V0203301N001019999999N9999999N1-00201-00281101071ADDAA101000021MA1999999097131MD1810111+9999OA149900361REMSYN082AAXX  08054 06601 23/// /3302 11020 21028 39713 40107 58011 333 69915 91107 91203;
0356066010999992010010806004+47550+007583FM-12+031699999V0203601N002610039019N0005001N1-00231-00331101041ADDAA112000891AA224000891AJ100039199999999AL14200091AL29900191AY171061AY221061GA1081+003901071GF108991999999004501999999GJ100369IA1239IA2999-00309KA1999N-00221MA1999999097101MD1810121+9999MW1711OA149900511REMSYN142AAXX  08064 06601 01405 83605 11023 21033 39710 40104 58012 69972 77172 333 21022 3/103 47003 55006 60005 70007 88713 90768 93101 91110 91205;
0145066010999992010010807004+47550+007583FM-12+031699999V0203401N001519999999N9999999N1-00241-00321101011ADDAA101000391MA1999999097071MD1610111+9999OA149900511REMSYN082AAXX  08074 06601 23/// /3403 11024 21032 39707 40101 56011 333 69935 91110 91205;
0145066010999992010010808004+47550+007583FM-12+031699999V0203501N001519999999N9999999N1-00251-00331100981ADDAA101000591MA1999999097041MD1810091+9999OA149900461REMSYN082AAXX  08084 06601 23/// /3503 11025 21033 39704 40098 58009 333 69955 91109 91205;
0145066010999992010010809004+47550+007583FM-12+031699999V0203501N002119999999N9999999N1-00261-00361100951ADDAA101000891MA1999999097011MD1710091+9999OA149900511REMSYN082AAXX  08094 06601 23/// /3504 11026 21036 39701 40095 57009 333 69975 91110 91205;
0145066010999992010010810004+47550+007583FM-12+031699999V0203401N001019999999N9999999N1-00221-00321100921ADDAA101000021MA1999999096981MD1710091+9999OA149900461REMSYN082AAXX  08104 06601 23/// /3402 11022 21032 39698 40092 57009 333 69925 91109 91204;
0128066010999992010010811004+47550+007583FM-12+031699999V0203401N001519999999N9999999N1-00211-00331100841ADDMA1999999096911MD1710131+9999OA149900361REMSYN076AAXX  08114 06601 33/// /3403 11021 21033 39691 40084 57013 333 91107 91203;
0227066010999992010010812004+47550+007583FM-12+031699999V0200101N002110027019N0060001N1-00171-00321100721ADDAA106002091AY171061AY221061GA1081+002701071GF108991999999002501999999MA1999999096801MD1810211+9999MW1701OA149900671REMSYN100AAXX  08124 06601 01356 80104 11017 21032 39680 40072 58021 60021 77072 333 60005 88709 91113 91206;
0128066010999992010010813004+47550+007583FM-12+031699999V0203601N001519999999N9999999N1-00191-00331100671ADDMA1999999096751MD1710231+9999OA149900671REMSYN076AAXX  08134 06601 33/// /3603 11019 21033 39675 40067 57023 333 91113 91206;
0128066010999992010010814004+47550+007583FM-12+031699999V0203501N002619999999N9999999N1-00251-00401100661ADDMA1999999096731MD1619999+9999OA149900821REMSYN076AAXX  08144 06601 33/// /3505 11025 21040 39673 40066 56/// 333 91116 91206;
0128066010999992010010815004+47550+007583FM-12+031699999V0203501N003119999999N9999999N1-00301-00441100721ADDMA1999999096781MD1510021+9999OA149900821REMSYN076AAXX  08154 06601 33/// /3506 11030 21044 39678 40072 55002 333 91116 91207;
0128066010999992010010816004+47550+007583FM-12+031699999V0203501N002619999999N9999999N1-00341-00491100761ADDMA1999999096811MD1210061+9999OA149900881REMSYN076AAXX  08164 06601 33/// /3505 11034 21049 39681 40076 52006 333 91117 91207;
0145066010999992010010817004+47550+007583FM-12+031699999V0209999C002619999999N9999999N1-00351-00481100801ADDAA101000021MA1999999096851MD1119999+9999OA149900881REMSYN082AAXX  08174 06601 23/// /0005 11035 21048 39685 40080 51/// 333 69925 91117 91207;
0297066010999992010010818004+47550+007583FM-12+031699999V0200101N002110018019N0040001N1-00361-00491100821ADDAA112002091AJ100089199999999AL11200591AY171061AY221061GA1081+001801051GF108991999999001501999999IA1239KA1120M-00171MA1999999096871MD1210091+9999MW1681OA149900881REMSYN124AAXX  08184 06601 01240 80104 11036 21049 39687 40082 52009 60022 76872 333 11017 47008 69945 88506 90766 93105 91117 91207;
0145066010999992010010819004+47550+007583FM-12+031699999V0200201N003119999999N9999999N1-00371-00471100821ADDAA101000591MA1999999096861MD1210051+9999OA149900721REMSYN082AAXX  08194 06601 23/// /0206 11037 21047 39686 40082 52005 333 69945 91114 91206;
0145066010999992010010820004+47550+007583FM-12+031699999V0200101N003619999999N9999999N1-00381-00501100831ADDAA101000591MA1999999096871MD1010021+9999OA149900721REMSYN082AAXX  08204 06601 23/// /0107 11038 21050 39687 40083 50002 333 69965 91114 91207;
0145066010999992010010821004+47550+007583FM-12+031699999V0200101N002619999999N9999999N1-00431-00561100871ADDAA101000591MA1999999096901MD1210031+9999OA149900881REMSYN082AAXX  08214 06601 23/// /0105 11043 21056 39690 40087 52003 333 69965 91117 91207;
0145066010999992010010822004+47550+007583FM-12+031699999V0200101N002119999999N9999999N1-00451-00601100871ADDAA101000391MA1999999096901MD1210041+9999OA149900771REMSYN082AAXX  08224 06601 23/// /0104 11045 21060 39690 40087 52004 333 69935 91115 91206;
0145066010999992010010823004+47550+007583FM-12+031699999V0203501N002119999999N9999999N1-00481-00651100921ADDAA101000391MA1999999096941MD1210071+9999OA149900771REMSYN082AAXX  08234 06601 23/// /3504 11048 21065 39694 40092 52007 333 69935 91115 91206;
0151066010999992010010900004+47550+007583FM-12+031699999V0203401N001519999999N9999999N1-00511-00661100901ADDAA106002091MA1999999096921MD1210021+9999OA149900881REMSYN088AAXX  09004 06601 03/// /3403 11051 21066 39692 40090 52002 60021 333 60005 91117 91207;
0164066010999992010010901004+47550+007583FM-12+031699999V0203301N001519999999N9999999N1-00501-00671100881ADDAA101000021MA1999999096901MD1810011+9999OA149900621REMSYN082AAXX  09014 06601 23/// /3303 11050 21067 39690 40088 58000 333 69915 91112 91204;EQDQ01+000002APC3  
0128066010999992010010902004+47550+007583FM-12+031699999V0203301N001019999999N9999999N1-00521-00671100901ADDMA1999999096921MD1519999+9999OA149900621REMSYN076AAXX  09024 06601 33/// /3302 11052 21067 39692 40090 55/// 333 91112 91204;
0128066010999992010010903004+47550+007583FM-12+031699999V0202901N001019999999N9999999N1-00501-00741100921ADDMA1999999096941MD1219999+9999OA149900771REMSYN076AAXX  09034 06601 33/// /2902 11050 21074 39694 40092 52/// 333 91115 91206;
0128066010999992010010904004+47550+007583FM-12+031699999V0203101N001519999999N9999999N1-00521-00731100861ADDMA1999999096881MD1810021+9999OA149900361REMSYN076AAXX  09044 06601 33/// /3103 11052 21073 39688 40086 58002 333 91107 91204;
0128066010999992010010905004+47550+007583FM-12+031699999V0203101N001519999999N9999999N1-00521-00771100831ADDMA1999999096851MD1810071+9999OA149900361REMSYN076AAXX  09054 06601 33/// /3103 11052 21077 39685 40083 58007 333 91107 91204;
0356066010999992010010906004+47550+007583FM-12+031699999V0203201N002110087019N0080001N1-00541-00711100801ADDAA112002091AA224004691AJ100069199999999AL13600491AL29900691AY171061AY221061GA1081+008701071GF108991999999008001999999GJ100009IA1239IA2999-00509KA1999N-00531MA1999999096821MD1710121+9999MW1101OA149900771REMSYN142AAXX  09064 06601 01558 83204 11054 21071 39682 40080 57012 60022 71072 333 21053 3/105 47006 55000 60005 70046 88729 90768 93106 91115 91207;
0128066010999992010010907004+47550+007583FM-12+031699999V0203401N001519999999N9999999N1-00521-00711100771ADDMA1999999096791MD1710091+9999OA149900461REMSYN076AAXX  09074 06601 33/// /3403 11052 21071 39679 40077 57009 333 91109 91204;
0128066010999992010010908004+47550+007583FM-12+031699999V0203101N001519999999N9999999N1-00541-00721100811ADDMA1999999096831MD1510021+9999OA149900461REMSYN076AAXX  09084 06601 33/// /3103 11054 21072 39683 40081 55002 333 91109 91204;
0128066010999992010010909004+47550+007583FM-12+031699999V0203101N002119999999N9999999N1-00511-00721100831ADDMA1999999096851MD1210031+9999OA149900461REMSYN076AAXX  09094 06601 33/// /3104 11051 21072 39685 40083 52003 333 91109 91204;
0128066010999992010010910004+47550+007583FM-12+031699999V0203201N001519999999N9999999N1-00501-00711100831ADDMA1999999096851MD1210061+9999OA149900411REMSYN076AAXX  09104 06601 33/// /3203 11050 21071 39685 40083 52006 333 91108 91204;
0128066010999992010010911004+47550+007583FM-12+031699999V0203301N001519999999N9999999N1-00481-00691100771ADDMA1999999096801MD1810031+9999OA149900461REMSYN076AAXX  09114 06601 33/// /3303 11048 21069 39680 40077 58003 333 91109 91204;
0204066010999992010010912004+47550+007583FM-12+031699999V0203301N001010027019N0060001N1-00451-00681100731ADDAY121061AY221061GA1081+002701071GF108991999999002501999999MA1999999096771MD1710081+9999MW1101OA149900621REMSYN088AAXX  09124 06601 31356 83302 11045 21068 39677 40073 57008 71022 333 88709 91112 91204;
0128066010999992010010913004+47550+007583FM-12+031699999V0203201N001519999999N9999999N1-00431-00671100691ADDMA1999999096731MD1710121+9999OA149900461REMSYN076AAXX  09134 06601 33/// /3203 11043 21067 39673 40069 57012 333 91109 91204;
0128066010999992010010914004+47550+007583FM-12+031699999V0203201N002119999999N9999999N1-00431-00661100701ADDMA1999999096741MD1710061+9999OA149900461REMSYN076AAXX  09144 06601 33/// /3204 11043 21066 39674 40070 57006 333 91109 91204;
0147066010999992010010915004+47550+007583FM-12+031699999V0203201N001519999999N9999999N1-00431-00651100731ADDMA1999999096771MD1410001+9999OA149900461REMSYN076AAXX  09154 06601 33/// /3203 11043 21065 39677 40073 53000 333 91109 91204;EQDQ01+000032APCTEN
0128066010999992010010916004+47550+007583FM-12+031699999V0203301N001519999999N9999999N1-00431-00651100751ADDMA1999999096791MD1210061+9999OA149900411REMSYN076AAXX  09164 06601 33/// /3303 11043 21065 39679 40075 52006 333 91108 91204;
0128066010999992010010917004+47550+007583FM-12+031699999V0203201N001519999999N9999999N1-00441-00641100761ADDMA1999999096801MD1210061+9999OA149900461REMSYN076AAXX  09174 06601 33/// /3203 11044 21064 39680 40076 52006 333 91109 91204;
0274066010999992010010918004+47550+007583FM-12+031699999V0203301N001510027019N0060001N1-00441-00631100761ADDAJ100069199999999AL19900091AY121061AY221061GA1081+002701071GF108991999999002501999999IA1239KA1120M-00421MA1999999096801MD1210031+9999MW1101OA149900461REMSYN112AAXX  09184 06601 31356 83303 11044 21063 39680 40076 52003 71022 333 11042 47006 88709 90766 93100 91109 91204;
0128066010999992010010919004+47550+007583FM-12+031699999V0203101N001519999999N9999999N1-00441-00631100811ADDMA1999999096841MD1210051+9999OA149900411REMSYN076AAXX  09194 06601 33/// /3103 11044 21063 39684 40081 52005 333 91108 91203;
0145066010999992010010920004+47550+007583FM-12+031699999V0203001N001519999999N9999999N1-00451-00621100831ADDAA101000021MA1999999096861MD1310061+9999OA149900361REMSYN082AAXX  09204 06601 23/// /3003 11045 21062 39686 40083 53006 333 69915 91107 91203;
0145066010999992010010921004+47550+007583FM-12+031699999V0203001N001019999999N9999999N1-00441-00561100871ADDAA101002091MA1999999096901MD1110101+9999OA149900461REMSYN082AAXX  09214 06601 23/// /3002 11044 21056 39690 40087 51010 333 60025 91109 91204;
0145066010999992010010922004+47550+007583FM-12+031699999V0202401N001519999999N9999999N1-00441-00561100901ADDAA101001091MA1999999096931MD1210091+9999OA149900261REMSYN082AAXX  09224 06601 23/// /2403 11044 21056 39693 40090 52009 333 60015 91105 91203;
0145066010999992010010923004+47550+007583FM-12+031699999V0202401N001019999999N9999999N1-00461-00551100911ADDAA101000891MA1999999096941MD1210081+9999OA149900261REMSYN082AAXX  09234 06601 23/// /2402 11046 21055 39694 40091 52008 333 69975 91105 91203;
0151066010999992010011000004+47550+007583FM-12+031699999V0202401N001019999999N9999999N1-00441-00551100931ADDAA106004191MA1999999096961MD1210061+9999OA149900461REMSYN088AAXX  10004 06601 03/// /2402 11044 21055 39696 40093 52006 60041 333 69945 91109 91204;
0145066010999992010011001004+47550+007583FM-12+031699999V0202501N001019999999N9999999N1-00461-00561100981ADDAA101000021MA1999999097001MD1210071+9999OA149900211REMSYN082AAXX  10014 06601 23/// /2502 11046 21056 39700 40098 52007 333 69925 91104 91203;
0108066010999992010011002004+47550+007583FM-12+031699999V0203001N000519999999N9999999N1-00411-00521101021ADDAA101000021MA1999999097051REMSYN070AAXX  10024 06601 23/// /3001 11041 21052 39705 40102 5//// 333 69915;
0087066010999992010011003004+47550+007583FM-12+031699999V0202701N001019999999N9999999N1-00401-00531101051ADDMA1999999097081REMSYN060AAXX  10034 06601 43/// /2702 11040 21053 39708 40105 5////;
0128066010999992010011004004+47550+007583FM-12+031699999V0202901N000519999999N9999999N1-00421-00521101111ADDMA1999999097141MD1210141+9999OA149900211REMSYN076AAXX  10044 06601 33/// /2901 11042 21052 39714 40111 52014 333 91104 91202;
0128066010999992010011005004+47550+007583FM-12+031699999V0202901N000519999999N9999999N1-00421-00521101151ADDMA1999999097171MD1110121+9999OA149900151REMSYN076AAXX  10054 06601 33/// /2901 11042 21052 39717 40115 51012 333 91103 91202;
0356066010999992010011006004+47550+007583FM-12+031699999V0203201N000510027019N0060001N1-00411-00541101221ADDAA112005192AA224004692AJ100129199999999AL13600491AL29900791AY171061AY221061GA1081+002701071GF108991999999002501999999GJ100009IA1239IA2999-00409KA1999N-00461MA1999999097241MD1210161+9999MW1101OA149900361REMSYN142AAXX  10064 06601 01356 83201 11041 21054 39724 40122 52016 60052 71072 333 21046 3/104 47012 55000 60005 70046 88709 90768 93107 91107 91203;
0128066010999992010011007004+47550+007583FM-12+031699999V0202501N000519999999N9999999N1-00421-00561101281ADDMA1999999097301MD1310161+9999OA149900151REMSYN076AAXX  10074 06601 33/// /2501 11042 21056 39730 40128 53016 333 91103 91202;
0128066010999992010011008004+47550+007583FM-12+031699999V0202301N001019999999N9999999N1-00411-00501101361ADDMA1999999097381MD1219999+9999OA149900211REMSYN076AAXX  10084 06601 33/// /2302 11041 21050 39738 40136 52/// 333 91104 91202;
0128066010999992010011009004+47550+007583FM-12+031699999V0202601N000519999999N9999999N1-00371-00521101441ADDMA1999999097461MD1310221+9999OA149900211REMSYN076AAXX  10094 06601 33/// /2601 11037 21052 39746 40144 53022 333 91104 91202;
0128066010999992010011010004+47550+007583FM-12+031699999V0202101N001019999999N9999999N1-00361-00531101481ADDMA1999999097501MD1110201+9999OA149900211REMSYN076AAXX  10104 06601 33/// /2102 11036 21053 39750 40148 51020 333 91104 91202;
0128066010999992010011011004+47550+007583FM-12+031699999V0203101N001019999999N9999999N1-00311-00571101521ADDMA1999999097551MD1110171+9999OA149900211REMSYN076AAXX  10114 06601 33/// /3102 11031 21057 39755 40152 51017 333 91104 91202;
0204066010999992010011012004+47550+007583FM-12+031699999V0201901N000510027019N0060001N1-00281-00731101531ADDAY121061AY221061GA1071+002701071GF107991999999002501999999MA1999999097561MD1210101+9999MW1101OA149900211REMSYN088AAXX  10124 06601 31356 71901 11028 21073 39756 40153 52010 71022 333 87709 91104 91203;
0128066010999992010011013004+47550+007583FM-12+031699999V0209999C000019999999N9999999N1-00291-00701101541ADDMA1999999097571MD1210071+9999OA149900151REMSYN076AAXX  10134 06601 33/// /0000 11029 21070 39757 40154 52007 333 91103 91202;
0128066010999992010011014004+47550+007583FM-12+031699999V0203001N000519999999N9999999N1-00251-00691101601ADDMA1999999097631MD1219999+9999OA149900151REMSYN076AAXX  10144 06601 33/// /3001 11025 21069 39763 40160 52/// 333 91103 91201;
0128066010999992010011015004+47550+007583FM-12+031699999V0203201N000519999999N9999999N1-00261-00681101631ADDMA1999999097661MD1310101+9999OA149900211REMSYN076AAXX  10154 06601 33/// /3201 11026 21068 39766 40163 53010 333 91104 91202;
0128066010999992010011016004+47550+007583FM-12+031699999V0202901N001519999999N9999999N1-00331-00701101711ADDMA1999999097731MD1210161+9999OA149900361REMSYN076AAXX  10164 06601 33/// /2903 11033 21070 39773 40171 52016 333 91107 91203;
0128066010999992010011017004+47550+007583FM-12+031699999V0203001N001519999999N9999999N1-00351-00711101761ADDMA1999999097771MD1110141+9999OA149900361REMSYN076AAXX  10174 06601 33/// /3003 11035 21071 39777 40176 51014 333 91107 91204;
0274066010999992010011018004+47550+007583FM-12+031699999V0209999C000010027019N0060001N1-00381-00701101811ADDAJ100119199999999AL19900091AY121061AY221061GA1081+002701071GF108991999999002501999999IA1239KA1120M-00251MA1999999097811MD1110151+9999MW1101OA149900361REMSYN112AAXX  10184 06601 31356 80000 11038 21070 39781 40181 51015 71022 333 11025 47011 88709 90766 93100 91107 91204;
0128066010999992010011019004+47550+007583FM-12+031699999V0202001N000519999999N9999999N1-00391-00701101801ADDMA1999999097801MD1210071+9999OA149900261REMSYN076AAXX  10194 06601 33/// /2001 11039 21070 39780 40180 52007 333 91105 91203;
0128066010999992010011020004+47550+007583FM-12+031699999V0202001N000519999999N9999999N1-00391-00671101821ADDMA1999999097821MD1210051+9999OA149900151REMSYN076AAXX  10204 06601 33/// /2001 11039 21067 39782 40182 52005 333 91103 91201;
0128066010999992010011021004+47550+007583FM-12+031699999V0209999C000019999999N9999999N1-00351-00681101831ADDMA1999999097841MD1210031+9999OA149900361REMSYN076AAXX  10214 06601 33/// /0000 11035 21068 39784 40183 52003 333 91107 91204;
0128066010999992010011022004+47550+007583FM-12+031699999V0200901N000519999999N9999999N1-00381-00611101831ADDMA1999999097831MD1210031+9999OA149900151REMSYN076AAXX  10224 06601 33/// /0901 11038 21061 39783 40183 52003 333 91103 91202;
0128066010999992010011023004+47550+007583FM-12+031699999V0201201N001019999999N9999999N1-00371-00621101811ADDMA1999999097821MD1010001+9999OA149900151REMSYN076AAXX  10234 06601 33/// /1202 11037 21062 39782 40181 50000 333 91103 91202;
0128066010999992010011100004+47550+007583FM-12+031699999V0202201N001519999999N9999999N1-00481-00671101841ADDMA1999999097831MD1010011+9999OA149900361REMSYN076AAXX  11004 06601 33/// /2203 11048 21067 39783 40184 50001 333 91107 91204;
0128066010999992010011101004+47550+007583FM-12+031699999V0209999C000019999999N9999999N1-00471-00621101841ADDMA1999999097831MD1010001+9999OA149900151REMSYN076AAXX  11014 06601 33/// /0000 11047 21062 39783 40184 50000 333 91103 91203;
0128066010999992010011102004+47550+007583FM-12+031699999V0202101N001019999999N9999999N1-00481-00651101841ADDMA1999999097831MD1019999+9999OA149900151REMSYN076AAXX  11024 06601 33/// /2102 11048 21065 39783 40184 50/// 333 91103 91202;
0128066010999992010011103004+47550+007583FM-12+031699999V0201201N000519999999N9999999N1-00491-00641101821ADDMA1999999097811MD1819999+9999OA149900151REMSYN076AAXX  11034 06601 33/// /1201 11049 21064 39781 40182 58/// 333 91103 91203;
0128066010999992010011104004+47550+007583FM-12+031699999V0201101N001019999999N9999999N1-00421-00601101811ADDMA1999999097811MD1710021+9999OA149900211REMSYN076AAXX  11044 06601 33/// /1102 11042 21060 39781 40181 57002 333 91104 91203;
0128066010999992010011105004+47550+007583FM-12+031699999V0202201N001019999999N9999999N1-00521-00671101821ADDMA1999999097801MD1710031+9999OA149900211REMSYN076AAXX  11054 06601 33/// /2202 11052 21067 39780 40182 57003 333 91104 91203;
0342066010999992010011106004+47550+007583FM-12+031699999V0202301N001510048019N0080001N1-00521-00681101811ADDAA124000091AJ100109199999999AL19900091AY121061AY221061GA1081+004801071GF108991999999004501999999GJ100009IA1239IA2999-00809KA1999N-00551MA1999999097791MD1710021+9999MW1101OA149900211REMSYN130AAXX  11064 06601 31458 82303 11052 21068 39779 40181 57002 71022 333 21055 3/108 47010 55000 70000 88716 90768 93100 91104 91203;EQDQ01  00002PRCP24
0128066010999992010011107004+47550+007583FM-12+031699999V0202101N001519999999N9999999N1-00541-00711101821ADDMA1999999097801MD1510011+9999OA149900211REMSYN076AAXX  11074 06601 33/// /2103 11054 21071 39780 40182 55001 333 91104 91203;
0128066010999992010011108004+47550+007583FM-12+031699999V0202201N001519999999N9999999N1-00541-00731101831ADDMA1999999097811MD1319999+9999OA149900211REMSYN076AAXX  11084 06601 33/// /2203 11054 21073 39781 40183 53/// 333 91104 91203;
0128066010999992010011109004+47550+007583FM-12+031699999V0202201N001519999999N9999999N1-00461-00661101841ADDMA1999999097831MD1210041+9999OA149900211REMSYN076AAXX  11094 06601 33/// /2203 11046 21066 39783 40184 52004 333 91104 91203;
0128066010999992010011110004+47550+007583FM-12+031699999V0202201N001019999999N9999999N1-00391-00621101841ADDMA1999999097841MD1219999+9999OA149900211REMSYN076AAXX  11104 06601 33/// /2202 11039 21062 39784 40184 52/// 333 91104 91204;
0128066010999992010011111004+47550+007583FM-12+031699999V0202301N000519999999N9999999N1-00311-00581101821ADDMA1999999097831MD1010021+9999OA149900211REMSYN076AAXX  11114 06601 33/// /2301 11031 21058 39783 40182 50002 333 91104 91204;
0204066010999992010011112004+47550+007583FM-12+031699999V0202801N000510048019N0080001N1-00241-00591101781ADDAY121061AY221061GA1081+004801071GF108991999999004501999999MA1999999097811MD1710021+9999MW1101OA149900211REMSYN088AAXX  11124 06601 31458 82801 11024 21059 39781 40178 57002 71022 333 88716 91104 91204;
0128066010999992010011113004+47550+007583FM-12+031699999V0202101N000519999999N9999999N1-00201-00631101761ADDMA1999999097791MD1810051+9999OA149900151REMSYN076AAXX  11134 06601 33/// /2101 11020 21063 39779 40176 58005 333 91103 91201;
0087066010999992010011114004+47550+007583FM-12+031699999V0202201N001019999999N9999999N1-00211-00641101771ADDMA1999999097801REMSYN060AAXX  11144 06601 33/// /2202 11021 21064 39780 40177 5////;
0128066010999992010011115004+47550+007583FM-12+031699999V0203301N000519999999N9999999N1-00201-00641101821ADDMA1999999097851MD1310041+9999OA149900211REMSYN076AAXX  11154 06601 33/// /3301 11020 21064 39785 40182 53004 333 91104 91204;
0128066010999992010011116004+47550+007583FM-12+031699999V0203001N000519999999N9999999N1-00251-00521101851ADDMA1999999097871MD1310081+9999OA149900151REMSYN076AAXX  11164 06601 33/// /3001 11025 21052 39787 40185 53008 333 91103 91202;
0128066010999992010011117004+47550+007583FM-12+031699999V0201101N000519999999N9999999N1-00271-00451101891ADDMA1999999097911MD1110111+9999OA149900151REMSYN076AAXX  11174 06601 33/// /1101 11027 21045 39791 40189 51011 333 91103 91202;
0274066010999992010011118004+47550+007583FM-12+031699999V0202001N000510012019N0030001N1-00251-00441101921ADDAJ100119199999999AL11200191AY171061AY221061GA1081+001201071GF108991999999001501999999IA1279KA1120M-00191MA1999999097941MD1310091+9999MW1701OA149900211REMSYN112AAXX  11184 06601 31230 82001 11025 21044 39794 40192 53009 77072 333 11019 43011 88704 90766 93101 91104 91204;
0128066010999992010011119004+47550+007583FM-12+031699999V0202001N000519999999N9999999N1-00281-00491101951ADDMA1999999097961MD1210091+9999OA149900151REMSYN076AAXX  11194 06601 33/// /2001 11028 21049 39796 40195 52009 333 91103 91202;
0128066010999992010011120004+47550+007583FM-12+031699999V0203001N000519999999N9999999N1-00271-00501101981ADDMA1999999097991MD1210081+9999OA149900151REMSYN076AAXX  11204 06601 33/// /3001 11027 21050 39799 40198 52008 333 91103 91202;
0128066010999992010011121004+47550+007583FM-12+031699999V0209999C000019999999N9999999N1-00261-00511101961ADDMA1999999097981MD1210041+9999OA149900151REMSYN076AAXX  11214 06601 33/// /0000 11026 21051 39798 40196 52004 333 91103 91202;
0128066010999992010011122004+47550+007583FM-12+031699999V0209999C000019999999N9999999N1-00271-00501101981ADDMA1999999097991MD1010031+9999OA149900051REMSYN076AAXX  11224 06601 33/// /0000 11027 21050 39799 40198 50003 333 91101 91201;
0128066010999992010011123004+47550+007583FM-12+031699999V0209999C000019999999N9999999N1-00281-00521102001ADDMA1999999098011MD1310021+9999OA149900151REMSYN076AAXX  11234 06601 33/// /0000 11028 21052 39801 40200 53002 333 91103 91201;
0151066010999992010011200004+47550+007583FM-12+031699999V0201001N000519999999N9999999N1-00271-00381101991ADDAA106000021MA1999999098001MD1210021+9999OA149900151REMSYN088AAXX  12004 06601 03/// /1001 11027 21038 39800 40199 52002 69911 333 69915 91103 91202;
0145066010999992010011201004+47550+007583FM-12+031699999V0201601N000519999999N9999999N1-00281-00401101981ADDAA101000021MA1999999097991MD1010001+9999OA149900101REMSYN082AAXX  12014 06601 23/// /1601 11028 21040 39799 40198 50000 333 69915 91102 91201;
0128066010999992010011202004+47550+007583FM-12+031699999V0201601N000519999999N9999999N1-00251-00481101971ADDMA1999999097991MD1719999+9999OA149900101REMSYN076AAXX  12024 06601 33/// /1601 11025 21048 39799 40197 57/// 333 91102 91202;
0128066010999992010011203004+47550+007583FM-12+031699999V0209999C000019999999N9999999N1-00281-00551101961ADDMA1999999097971MD1710031+9999OA149900151REMSYN076AAXX  12034 06601 33/// /0000 11028 21055 39797 40196 57003 333 91103 91202;
0128066010999992010011204004+47550+007583FM-12+031699999V0209999C000019999999N9999999N1-00281-00491101951ADDMA1999999097961MD1810031+9999OA149900101REMSYN076AAXX  12044 06601 33/// /0000 11028 21049 39796 40195 58003 333 91102 91202;
0128066010999992010011205004+47550+007583FM-12+031699999V0201201N000519999999N9999999N1-00281-00441101931ADDMA1999999097941MD1610051+9999OA149900101REMSYN076AAXX  12054 06601 33/// /1201 11028 21044 39794 40193 56005 333 91102 91202;
0356066010999992010011206004+47550+007583FM-12+031699999V0201101N001010039019N0080001N1-00291-00401101881ADDAA112000021AA224000391AJ100119199999999AL11200091AL29900191AY171061AY221061GA1081+003901071GF108991999999004501999999GJ100009IA1239IA2999-00409KA1999N-00321MA1999999097891MD1810081+9999MW1101OA149900211REMSYN142AAXX  12064 06601 01458 81102 11029 21040 39789 40188 58008 69922 71072 333 21032 3/104 47011 55000 60005 70002 88713 90768 93101 91104 91202;
0128066010999992010011207004+47550+007583FM-12+031699999V0201001N002119999999N9999999N1-00291-00461101811ADDMA1999999097831MD1810131+9999OA149900361REMSYN076AAXX  12074 06601 33/// /1004 11029 21046 39783 40181 58013 333 91107 91204;
0128066010999992010011208004+47550+007583FM-12+031699999V0200901N002119999999N9999999N1-00281-00451101771ADDMA1999999097791MD1719999+9999OA149900361REMSYN076AAXX  12084 06601 33/// /0904 11028 21045 39779 40177 57/// 333 91107 91204;
0128066010999992010011209004+47550+007583FM-12+031699999V0200901N002119999999N9999999N1-00251-00461101691ADDMA1999999097721MD1610171+9999OA149900411REMSYN076AAXX  12094 06601 33/// /0904 11025 21046 39772 40169 56017 333 91108 91204;
0128066010999992010011210004+47550+007583FM-12+031699999V0201001N001519999999N9999999N1-00211-00511101621ADDMA1999999097661MD1810171+9999OA149900411REMSYN076AAXX  12104 06601 33/// /1003 11021 21051 39766 40162 58017 333 91108 91204;
0128066010999992010011211004+47550+007583FM-12+031699999V0200901N002119999999N9999999N1-00141-00461101501ADDMA1999999097551MD1810241+9999OA149900461REMSYN076AAXX  12114 06601 33/// /0904 11014 21046 39755 40150 58024 333 91109 91204;
0204066010999992010011212004+47550+007583FM-12+031699999V0200901N002112200019N0050001N1-00061-00461101391ADDAY171061AY211061GA1031+004801061GF103991999999004501999999MA1999999097461MD1810261+9999MW1101OA149900571REMSYN088AAXX  12124 06601 31450 30904 11006 21046 39746 40139 58026 71071 333 83616 91111 91205;
0128066010999992010011213004+47550+007583FM-12+031699999V0201101N003619999999N9999999N1-00061-00481101291ADDMA1999999097361MD1710301+9999OA149900721REMSYN076AAXX  12134 06601 33/// /1107 11006 21048 39736 40129 57030 333 91114 91207;
0087066010999992010011214004+47550+007583FM-12+031699999V0201001N004619999999N9999999N1-00081-00471101171ADDMA1999999097241REMSYN060AAXX  12144 06601 33/// /1009 11008 21047 39724 40117 5////;
0128066010999992010011215004+47550+007583FM-12+031699999V0200901N004119999999N9999999N1-00091-00451101121ADDMA1999999097191MD1710271+9999OA149900931REMSYN076AAXX  12154 06601 33/// /0908 11009 21045 39719 40112 57027 333 91118 91210;
0128066010999992010011216004+47550+007583FM-12+031699999V0201001N004119999999N9999999N1-00121-00461101031ADDMA1999999097101MD1610261+9999OA149900931REMSYN076AAXX  12164 06601 33/// /1008 11012 21046 39710 40103 56026 333 91118 91210;
0128066010999992010011217004+47550+007583FM-12+031699999V0200901N004119999999N9999999N1-00141-00481100981ADDMA1999999097051MD1610191+9999OA149901081REMSYN076AAXX  12174 06601 33/// /0908 11014 21048 39705 40098 56019 333 91121 91210;
0274066010999992010011218004+47550+007583FM-12+031699999V0200901N004610027019N0080001N1-00161-00481100941ADDAJ100099199999999AL19900091AY111061AY211061GA1061+002701071GF106991999999002501999999IA1239KA1120M-00031MA1999999097011MD1610181+9999MW1101OA149901081REMSYN112AAXX  12184 06601 31358 60909 11016 21048 39701 40094 56018 71011 333 11003 47009 86709 90766 93100 91121 91210;
0128066010999992010011219004+47550+007583FM-12+031699999V0201001N005719999999N9999999N1-00151-00451100891ADDMA1999999096961MD1810141+9999OA149900981REMSYN076AAXX  12194 06601 33/// /1011 11015 21045 39696 40089 58014 333 91119 91211;
0128066010999992010011220004+47550+007583FM-12+031699999V0201001N004119999999N9999999N1-00141-00431100831ADDMA1999999096911MD1610141+9999OA149901031REMSYN076AAXX  12204 06601 33/// /1008 11014 21043 39691 40083 56014 333 91120 91211;
0128066010999992010011221004+47550+007583FM-12+031699999V0201001N003619999999N9999999N1-00141-00431100781ADDMA1999999096861MD1810151+9999OA149901081REMSYN076AAXX  12214 06601 33/// /1007 11014 21043 39686 40078 58015 333 91121 91211;
0128066010999992010011222004+47550+007583FM-12+031699999V0201001N004119999999N9999999N1-00111-00441100721ADDMA1999999096811MD1710151+9999OA149900931REMSYN076AAXX  12224 06601 33/// /1008 11011 21044 39681 40072 57015 333 91118 91209;
0128066010999992010011223004+47550+007583FM-12+031699999V0201001N002119999999N9999999N1-00111-00431100771ADDMA1999999096851MD1510061+9999OA149900931REMSYN076AAXX  12234 06601 33/// /1004 11011 21043 39685 40077 55006 333 91118 91209;
0128066010999992010011300004+47550+007583FM-12+031699999V0201201N001519999999N9999999N1-00151-00431100811ADDMA1999999096891MD1310031+9999OA149901081REMSYN076AAXX  13004 06601 33/// /1203 11015 21043 39689 40081 53003 333 91121 91211;
0128066010999992010011301004+47550+007583FM-12+031699999V0201001N003119999999N9999999N1-00121-00421100751ADDMA1999999096831MD1010021+9999OA149900621REMSYN076AAXX  13014 06601 33/// /1006 11012 21042 39683 40075 50002 333 91112 91207;
0128066010999992010011302004+47550+007583FM-12+031699999V0201001N003619999999N9999999N1-00121-00411100671ADDMA1999999096761MD1719999+9999OA149900821REMSYN076AAXX  13024 06601 33/// /1007 11012 21041 39676 40067 57/// 333 91116 91208;
0128066010999992010011303004+47550+007583FM-12+031699999V0201001N004119999999N9999999N1-00131-00371100621ADDMA1999999096711MD1619999+9999OA149900931REMSYN076AAXX  13034 06601 33/// /1008 11013 21037 39671 40062 56/// 333 91118 91209;
0128066010999992010011304004+47550+007583FM-12+031699999V0201001N004619999999N9999999N1-00131-00401100581ADDMA1999999096671MD1710161+9999OA149901031REMSYN076AAXX  13044 06601 33/// /1009 11013 21040 39667 40058 57016 333 91120 91210;
0128066010999992010011305004+47550+007583FM-12+031699999V0201001N003119999999N9999999N1-00151-00371100571ADDMA1999999096661MD1710101+9999OA149901031REMSYN076AAXX  13054 06601 33/// /1006 11015 21037 39666 40057 57010 333 91120 91210;
0342066010999992010011306004+47550+007583FM-12+031699999V0201001N002110027019N0030001N1-00111-00331100631ADDAA124000091AJ100099199999999AL19900091AY111061AY211061GA1071+002701071GF108991999999002501999999GJ102769IA1239IA2999-00309KA1999N-00261MA1999999096721MD1310011+9999MW1101OA149901031REMSYN130AAXX  13064 06601 31330 81004 11011 21033 39672 40063 53001 71011 333 21026 3/103 47009 55046 70000 87709 90768 93100 91120 91211;EQDQ01  00002PRCP24
0128066010999992010011307004+47550+007583FM-12+031699999V0201001N003619999999N9999999N1-00111-00301100671ADDMA1999999096761MD1210091+9999OA149900621REMSYN076AAXX  13074 06601 33/// /1007 11011 21030 39676 40067 52009 333 91112 91207;
0145066010999992010011308004+47550+007583FM-12+031699999V0201001N003619999999N9999999N1-00111-00261100701ADDAA101000391MA1999999096791MD1210131+9999OA149900821REMSYN082AAXX  13084 06601 23/// /1007 11011 21026 39679 40070 52013 333 69935 91116 91208;
0145066010999992010011309004+47550+007583FM-12+031699999V0201001N004619999999N9999999N1-00091-00211100741ADDAA101000891MA1999999096831MD1210111+9999OA149901031REMSYN082AAXX  13094 06601 23/// /1009 11009 21021 39683 40074 52011 333 69975 91120 91210;
0145066010999992010011310004+47550+007583FM-12+031699999V0201001N004619999999N9999999N1-00061-00191100771ADDAA101000391MA1999999096861MD1110101+9999OA149900821REMSYN082AAXX  13104 06601 23/// /1009 11006 21019 39686 40077 51010 333 69935 91116 91209;
0128066010999992010011311004+47550+007583FM-12+031699999V0201001N003619999999N9999999N1+00001-00151100761ADDMA1999999096861MD1210071+9999OA149900821REMSYN076AAXX  13114 06601 33/// /1007 10000 21015 39686 40076 52007 333 91116 91209;
0227066010999992010011312004+47550+007583FM-12+031699999V0201001N003610069019N0030001N1+00031-00141100741ADDAA106001091AY171061AY261061GA1081+006901051GF108991999999008001999999MA1999999096851MD1010021+9999MW1601OA149901031REMSYN100AAXX  13124 06601 01530 81007 10003 21014 39685 40074 50002 60011 76076 333 60005 88523 91120 91210;
0128066010999992010011313004+47550+007583FM-12+031699999V0201001N003119999999N9999999N1+00081-00121100741ADDMA1999999096851MD1710011+9999OA149900721REMSYN076AAXX  13134 06601 33/// /1006 10008 21012 39685 40074 57001 333 91114 91208;
0145066010999992010011314004+47550+007583FM-12+031699999V0201001N003119999999N9999999N1+00081-00071100781ADDAA101000021MA1999999096891MD1319999+9999OA149900721REMSYN082AAXX  13144 06601 23/// /1006 10008 21007 39689 40078 53/// 333 69915 91114 91208;
0145066010999992010011315004+47550+007583FM-12+031699999V0201101N003119999999N9999999N1+00081-00031100811ADDAA101000021MA1999999096921MD1210071+9999OA149900821REMSYN082AAXX  13154 06601 23/// /1106 10008 21003 39692 40081 52007 333 69915 91116 91209;
0145066010999992010011316004+47550+007583FM-12+031699999V0201001N002619999999N9999999N1+00091+00011100871ADDAA101000021MA1999999096981MD1310131+9999OA149900571REMSYN082AAXX  13164 06601 23/// /1005 10009 20001 39698 40087 53013 333 69925 91111 91206;
0128066010999992010011317004+47550+007583FM-12+031699999V0201001N002619999999N9999999N1+00091+00011100911ADDMA1999999097021MD1310131+9999OA149900571REMSYN076AAXX  13174 06601 33/// /1005 10009 20001 39702 40091 53013 333 91111 91206;
0297066010999992010011318004+47550+007583FM-12+031699999V0201001N002610048019N0060001N1+00101+00031100971ADDAA112002091AJ100089199999999AL19900091AY161061AY221061GA1081+004801071GF108991999999004501999999IA1279KA1120M+00101MA1999999097081MD1210161+9999MW1101OA149900821REMSYN124AAXX  13184 06601 01456 81005 10010 20003 39708 40097 52016 60022 71062 333 10010 43008 60005 88716 90766 93100 91116 91209;
0128066010999992010011319004+47550+007583FM-12+031699999V0201001N002119999999N9999999N1+00091+00031101021ADDMA1999999097121MD1110141+9999OA149900461REMSYN076AAXX  13194 06601 33/// /1004 10009 20003 39712 40102 51014 333 91109 91205;
0087066010999992010011400004+47550+007583FM-12+031699999V0201101N002119999999N9999999N1+00071+00011100921ADDMA1999999097021REMSYN060AAXX  14004 06601 43/// /1104 10007 20001 39702 40092 5////;
0128066010999992010011401004+47550+007583FM-12+031699999V0201001N002619999999N9999999N1+00061+00001100841ADDMA1999999096951MD1819999+9999OA149900571REMSYN076AAXX  14014 06601 33/// /1005 10006 20000 39695 40084 58/// 333 91111 91206;
0128066010999992010011402004+47550+007583FM-12+031699999V0201001N002119999999N9999999N1+00021-00031100861ADDMA1999999096961MD1719999+9999OA149900621REMSYN076AAXX  14024 06601 33/// /1004 10002 21003 39696 40086 57/// 333 91112 91206;
0087066010999992010011403004+47550+007583FM-12+031699999V0201101N002619999999N9999999N1+00051-00051100841ADDMA1999999096941REMSYN060AAXX  14034 06601 33/// /1105 10005 21005 39694 40084 5////;
0128066010999992010011404004+47550+007583FM-12+031699999V0201001N003119999999N9999999N1+00091-00021100801ADDMA1999999096911MD1710041+9999OA149900721REMSYN076AAXX  14044 06601 33/// /1006 10009 21002 39691 40080 57004 333 91114 91207;
0128066010999992010011405004+47550+007583FM-12+031699999V0201101N003119999999N9999999N1+00151+00031100761ADDMA1999999096881MD1710081+9999OA149900671REMSYN076AAXX  14054 06601 33/// /1106 10015 20003 39688 40076 57008 333 91113 91208;
0333066010999992010011406004+47550+007583FM-12+031699999V0200901N003612200019N0120001N1+00151+00021100731ADDAA124001891AJ100079199999999AL14200191AL29900091AY111061AY211061GA1041+004801071GF104991999999004501999999GJ100009IA1279IA2999-00109KA1999N+00011MA1999999096851MD1710091+9999MW1101OA149900771REMSYN130AAXX  14064 06601 31462 40907 10015 20002 39685 40073 57009 71011 333 20001 3/101 43007 55000 70017 84716 90768 93100 91115 91208;
0128066010999992010011407004+47550+007583FM-12+031699999V0200901N003119999999N9999999N1+00171+00031100701ADDMA1999999096831MD1710081+9999OA149900771REMSYN076AAXX  14074 06601 33/// /0906 10017 20003 39683 40070 57008 333 91115 91208;
0128066010999992010011408004+47550+007583FM-12+031699999V0200901N002619999999N9999999N1+00171+00031100701ADDMA1999999096831MD1719999+9999OA149900671REMSYN076AAXX  14084 06601 33/// /0905 10017 20003 39683 40070 57/// 333 91113 91207;
0128066010999992010011409004+47550+007583FM-12+031699999V0200801N003619999999N9999999N1+00161+00021100741ADDMA1999999096861MD1310011+9999OA149900771REMSYN076AAXX  14094 06601 33/// /0807 10016 20002 39686 40074 53001 333 91115 91208;
0128066010999992010011410004+47550+007583FM-12+031699999V0200701N004619999999N9999999N1+00191+00001100731ADDMA1999999096861MD1210031+9999OA149900821REMSYN076AAXX  14104 06601 33/// /0709 10019 20000 39686 40073 52003 333 91116 91209;
0128066010999992010011411004+47550+007583FM-12+031699999V0201001N003119999999N9999999N1+00221-00031100691ADDMA1999999096821MD1810011+9999OA149900881REMSYN076AAXX  14114 06601 33/// /1006 10022 21003 39682 40069 58001 333 91117 91209;
0176066010999992010011412004+47550+007583FM-12+031699999V0200801N002110027019N0250001N1+00281-00021100621ADDGA1071+002701061GF107991999999002501999999MA1999999096771MD1710091+9999OA149900881REMSYN082AAXX  14124 06601 32375 70804 10028 21002 39677 40062 57009 333 87609 91117 91209;
0128066010999992010011413004+47550+007583FM-12+031699999V0203201N002119999999N9999999N1+00081-00031100661ADDMA1999999096781MD1710081+9999OA149900721REMSYN076AAXX  14134 06601 33/// /3204 10008 21003 39678 40066 57008 333 91114 91207;
0147066010999992010011414004+47550+007583FM-12+031699999V0203001N001519999999N9999999N1+00061-00071100711ADDMA1999999096821MD1310021+9999OA149900411REMSYN076AAXX  14144 06601 33/// /3003 10006 21007 39682 40071 53000 333 91108 91205;EQDQ01+000002APC3  
0128066010999992010011415004+47550+007583FM-12+031699999V0203001N002119999999N9999999N1+00061-00061100711ADDMA1999999096821MD1210051+9999OA149900881REMSYN076AAXX  14154 06601 33/// /3004 10006 21006 39682 40071 52005 333 91117 91209;
0128066010999992010011416004+47550+007583FM-12+031699999V0203101N002119999999N9999999N1+00001-00071100761ADDMA1999999096861MD1210081+9999OA149900461REMSYN076AAXX  14164 06601 33/// /3104 10000 21007 39686 40076 52008 333 91109 91204;
0128066010999992010011417004+47550+007583FM-12+031699999V0203101N003119999999N9999999N1-00031-00061100831ADDMA1999999096921MD1210101+9999OA149900511REMSYN076AAXX  14174 06601 33/// /3106 11003 21006 39692 40083 52010 333 91110 91206;
0274066010999992010011418004+47550+007583FM-12+031699999V0203101N002110009019N0020001N1-00031-00061100931ADDAJ100069199999999AL19900091AY121061AY221061GA1081+000901071GF108991999999000751999999IA1279KA1120M+00301MA1999999097021MD1210201+9999MW1101OA149900881REMSYN112AAXX  14184 06601 31120 83104 11003 21006 39702 40093 52020 71022 333 10030 43006 88703 90766 93100 91117 91209;
0128066010999992010011419004+47550+007583FM-12+031699999V0203101N001519999999N9999999N1-00051-00051101031ADDMA1999999097111MD1210251+9999OA149900411REMSYN076AAXX  14194 06601 33/// /3103 11005 21005 39711 40103 52025 333 91108 91206;
0128066010999992010011420004+47550+007583FM-12+031699999V0203101N001519999999N9999999N1-00061-00091101101ADDMA1999999097181MD1210261+9999OA149900361REMSYN076AAXX  14204 06601 33/// /3103 11006 21009 39718 40110 52026 333 91107 91204;
0128066010999992010011421004+47550+007583FM-12+031699999V0203101N001019999999N9999999N1-00081-00091101191ADDMA1999999097261MD1110241+9999OA149900511REMSYN076AAXX  14214 06601 33/// /3102 11008 21009 39726 40119 51024 333 91110 91206;
0128066010999992010011422004+47550+007583FM-12+031699999V0203101N001519999999N9999999N1-00061-00101101281ADDMA1999999097351MD1310241+9999OA149900261REMSYN076AAXX  14224 06601 33/// /3103 11006 21010 39735 40128 53024 333 91105 91203;
0128066010999992010011423004+47550+007583FM-12+031699999V0203101N001019999999N9999999N1-00061-00091101351ADDMA1999999097421MD1210241+9999OA149900261REMSYN076AAXX  14234 06601 33/// /3102 11006 21009 39742 40135 52024 333 91105 91203;
0128066010999992010011500004+47550+007583FM-12+031699999V0203101N001019999999N9999999N1-00071-00081101401ADDMA1999999097471MD1110211+9999OA149900511REMSYN076AAXX  15004 06601 33/// /3102 11007 21008 39747 40140 51021 333 91110 91206;
0128066010999992010011501004+47550+007583FM-12+031699999V0203101N001019999999N9999999N1-00061-00091101471ADDMA1999999097531MD1110181+9999OA149900211REMSYN076AAXX  15014 06601 33/// /3102 11006 21009 39753 40147 51018 333 91104 91203;
0128066010999992010011502004+47550+007583FM-12+031699999V0203101N001019999999N9999999N1-00031-00091101571ADDMA1999999097631MD1310211+9999OA149900211REMSYN076AAXX  15024 06601 33/// /3102 11003 21009 39763 40157 53021 333 91104 91203;
0087066010999992010011503004+47550+007583FM-12+031699999V0203101N001019999999N9999999N1-00021-00101101651ADDMA1999999097711REMSYN060AAXX  15034 06601 33/// /3102 11002 21010 39771 40165 5////;
0128066010999992010011504004+47550+007583FM-12+031699999V0203101N001019999999N9999999N1-00031-00101101731ADDMA1999999097791MD1210261+9999OA149900151REMSYN076AAXX  15044 06601 33/// /3102 11003 21010 39779 40173 52026 333 91103 91202;
0128066010999992010011505004+47550+007583FM-12+031699999V0203101N000519999999N9999999N1-00021-00101101811ADDMA1999999097871MD1210241+9999OA149900151REMSYN076AAXX  15054 06601 33/// /3101 11002 21010 39787 40181 52024 333 91103 91202;
0342066010999992010011506004+47550+007583FM-12+031699999V0203101N000510018019N0014001N1+00001-00101101941ADDAA124000091AJ100059199999999AL19900091AY111061AY211061GA1081+001801071GF108991999999001501999999GJ100009IA1279IA2999-00109KA1999N-00081MA1999999097991MD1310281+9999MW1101OA149900361REMSYN130AAXX  15064 06601 31214 83101 10000 21010 39799 40194 53028 71011 333 21008 3/101 43005 55000 70000 88706 90768 93100 91107 91204;EQDQ01  00002PRCP24
0128066010999992010011507004+47550+007583FM-12+031699999V0203101N001019999999N9999999N1+00011-00081102031ADDMA1999999098081MD1210291+9999OA149900151REMSYN076AAXX  15074 06601 33/// /3102 10001 21008 39808 40203 52029 333 91103 91202;
0128066010999992010011508004+47550+007583FM-12+031699999V0203101N000519999999N9999999N1+00011-00081102131ADDMA1999999098181MD1219999+9999OA149900151REMSYN076AAXX  15084 06601 33/// /3101 10001 21008 39818 40213 52/// 333 91103 91202;
0128066010999992010011509004+47550+007583FM-12+031699999V0202401N000519999999N9999999N1+00051-00071102191ADDMA1999999098241MD1110251+9999OA149900151REMSYN076AAXX  15094 06601 33/// /2401 10005 21007 39824 40219 51025 333 91103 91202;
0128066010999992010011510004+47550+007583FM-12+031699999V0209999C000019999999N9999999N1+00101-00051102261ADDMA1999999098321MD1110241+9999OA149900051REMSYN076AAXX  15104 06601 33/// /0000 10010 21005 39832 40226 51024 333 91101 91201;
0128066010999992010011511004+47550+007583FM-12+031699999V0203301N001019999999N9999999N1+00131-00031102281ADDMA1999999098341MD1110161+9999OA149900151REMSYN076AAXX  15114 06601 33/// /3302 10013 21003 39834 40228 51016 333 91103 91202;
0128066010999992010011512004+47550+007583FM-12+031699999V0203301N000519999999N9999999N1+00111-00041102351ADDMA1999999098401MD1110161+9999OA149900211REMSYN076AAXX  15124 06601 33/// /3301 10011 21004 39840 40235 51016 333 91104 91203;
0128066010999992010011513004+47550+007583FM-12+031699999V0203201N000519999999N9999999N1+00141-00051102401ADDMA1999999098461MD1310141+9999OA149900261REMSYN076AAXX  15134 06601 33/// /3201 10014 21005 39846 40240 53014 333 91105 91202;
0128066010999992010011514004+47550+007583FM-12+031699999V0203001N001019999999N9999999N1+00171-00081102451ADDMA1999999098511MD1310171+9999OA149900311REMSYN076AAXX  15144 06601 33/// /3002 10017 21008 39851 40245 53017 333 91106 91203;
0128066010999992010011515004+47550+007583FM-12+031699999V0203101N001019999999N9999999N1+00161-00081102501ADDMA1999999098561MD1310161+9999OA149900311REMSYN076AAXX  15154 06601 33/// /3102 10016 21008 39856 40250 53016 333 91106 91203;
0128066010999992010011516004+47550+007583FM-12+031699999V0203001N001519999999N9999999N1+00131-00091102591ADDMA1999999098641MD1310181+9999OA149900261REMSYN076AAXX  15164 06601 33/// /3003 10013 21009 39864 40259 53018 333 91105 91203;
0128066010999992010011517004+47550+007583FM-12+031699999V0203401N001019999999N9999999N1+00111-00091102651ADDMA1999999098691MD1110181+9999OA149900261REMSYN076AAXX  15174 06601 33/// /3402 10011 21009 39869 40265 51018 333 91105 91203;
0274066010999992010011518004+47550+007583FM-12+031699999V0203001N001010027019N0050001N1+00101-00091102681ADDAJ100049199999999AL19900091AY121061AY221061GA1081+002701071GF108991999999002501999999IA1279KA1120M+00171MA1999999098721MD1110161+9999MW1101OA149900311REMSYN112AAXX  15184 06601 31350 83002 10010 21009 39872 40268 51016 71022 333 10017 43004 88709 90766 93100 91106 91203;
0128066010999992010011519004+47550+007583FM-12+031699999V0202201N001019999999N9999999N1+00071-00091102691ADDMA1999999098731MD1210091+9999OA149900311REMSYN076AAXX  15194 06601 33/// /2202 10007 21009 39873 40269 52009 333 91106 91203;
0128066010999992010011520004+47550+007583FM-12+031699999V0202201N001019999999N9999999N1+00081-00101102681ADDMA1999999098721MD1210031+9999OA149900311REMSYN076AAXX  15204 06601 33/// /2202 10008 21010 39872 40268 52003 333 91106 91203;
0128066010999992010011521004+47550+007583FM-12+031699999V0200701N001519999999N9999999N1+00101-00111102681ADDMA1999999098721MD1010001+9999OA149900311REMSYN076AAXX  15214 06601 33/// /0703 10010 21011 39872 40268 50000 333 91106 91203;
0128066010999992010011522004+47550+007583FM-12+031699999V0201201N001019999999N9999999N1+00091-00111102681ADDMA1999999098721MD1510011+9999OA149900261REMSYN076AAXX  15224 06601 33/// /1202 10009 21011 39872 40268 55001 333 91105 91203;
0128066010999992010011523004+47550+007583FM-12+031699999V0200901N000519999999N9999999N1+00091-00101102691ADDMA1999999098731MD1210011+9999OA149900311REMSYN076AAXX  15234 06601 33/// /0901 10009 21010 39873 40269 52001 333 91106 91203;
0128066010999992010011600004+47550+007583FM-12+031699999V0200901N001519999999N9999999N1+00111-00131102641ADDMA1999999098681MD1810041+9999OA149900361REMSYN076AAXX  16004 06601 33/// /0903 10011 21013 39868 40264 58004 333 91107 91203;
0128066010999992010011601004+47550+007583FM-12+031699999V0200901N002119999999N9999999N1+00111-00131102601ADDMA1999999098641MD1710081+9999OA149900511REMSYN076AAXX  16014 06601 33/// /0904 10011 21013 39864 40260 57008 333 91110 91204;
0128066010999992010011602004+47550+007583FM-12+031699999V0200801N002119999999N9999999N1+00121-00131102551ADDMA1999999098601MD1710131+9999OA149900621REMSYN076AAXX  16024 06601 33/// /0804 10012 21013 39860 40255 57013 333 91112 91206;
0128066010999992010011603004+47550+007583FM-12+031699999V0200901N002119999999N9999999N1+00121-00131102531ADDMA1999999098581MD1719999+9999OA149900621REMSYN076AAXX  16034 06601 33/// /0904 10012 21013 39858 40253 57/// 333 91112 91206;
0128066010999992010011604004+47550+007583FM-12+031699999V0201001N002619999999N9999999N1+00111-00141102471ADDMA1999999098521MD1710121+9999OA149900571REMSYN076AAXX  16044 06601 33/// /1005 10011 21014 39852 40247 57012 333 91111 91206;
0128066010999992010011605004+47550+007583FM-12+031699999V0201001N002119999999N9999999N1+00101-00141102401ADDMA1999999098451MD1810151+9999OA149900721REMSYN076AAXX  16054 06601 33/// /1004 10010 21014 39845 40240 58015 333 91114 91207;
0342066010999992010011606004+47550+007583FM-12+031699999V0201001N002610048019N0060001N1+00101-00161102331ADDAA124000091AJ100059199999999AL19900091AY121061AY221061GA1071+004801071GF107991999999004501999999GJ100009IA1279IA2999+00109KA1999N+00061MA1999999098381MD1710201+9999MW1101OA149900721REMSYN130AAXX  16064 06601 31456 71005 10010 21016 39838 40233 57020 71022 333 20006 3/001 43005 55000 70000 87716 90768 93100 91114 91207;EQDQ01  00002PRCP24
0128066010999992010011607004+47550+007583FM-12+031699999V0201001N004119999999N9999999N1+00091-00191102251ADDMA1999999098311MD1710211+9999OA149900981REMSYN076AAXX  16074 06601 33/// /1008 10009 21019 39831 40225 57021 333 91119 91209;
0128066010999992010011608004+47550+007583FM-12+031699999V0201101N004619999999N9999999N1+00051-00231102231ADDMA1999999098281MD1710171+9999OA149900981REMSYN076AAXX  16084 06601 33/// /1109 10005 21023 39828 40223 57017 333 91119 91209;
0128066010999992010011609004+47550+007583FM-12+031699999V0201101N004619999999N9999999N1+00081-00251102151ADDMA1999999098211MD1610171+9999OA149900981REMSYN076AAXX  16094 06601 33/// /1109 10008 21025 39821 40215 56017 333 91119 91210;
0128066010999992010011610004+47550+007583FM-12+031699999V0201101N004119999999N9999999N1+00151-00251102141ADDMA1999999098211MD1710101+9999OA149900931REMSYN076AAXX  16104 06601 33/// /1108 10015 21025 39821 40214 57010 333 91118 91210;
0128066010999992010011611004+47550+007583FM-12+031699999V0200901N003619999999N9999999N1+00201-00251102121ADDMA1999999098201MD1710081+9999OA149900881REMSYN076AAXX  16114 06601 33/// /0907 10020 21025 39820 40212 57008 333 91117 91210;
0226066010999992010011612004+47550+007583FM-12+031699999V0200901N003610360019N0070001N1+00181-00231102041ADDAY111061AY211061GA1051+036001041GA2031+057001021GF107991999999999999999999MA1999999098121MD1710091+9999MW1101OA149900981REMSYN094AAXX  16124 06601 31957 70907 10018 21023 39812 40204 57009 71011 333 85462 83269 91119 91210;
0128066010999992010011613004+47550+007583FM-12+031699999V0200901N004619999999N9999999N1+00151-00241101921ADDMA1999999098001MD1710211+9999OA149900981REMSYN076AAXX  16134 06601 33/// /0909 10015 21024 39800 40192 57021 333 91119 91210;
0128066010999992010011614004+47550+007583FM-12+031699999V0200901N004119999999N9999999N1+00151-00241101831ADDMA1999999097911MD1819999+9999OA149900981REMSYN076AAXX  16144 06601 33/// /0908 10015 21024 39791 40183 58/// 333 91119 91210;
0128066010999992010011615004+47550+007583FM-12+031699999V0201001N004619999999N9999999N1+00121-00211101811ADDMA1999999097891MD1710231+9999OA149900981REMSYN076AAXX  16154 06601 33/// /1009 10012 21021 39789 40181 57023 333 91119 91210;
0128066010999992010011616004+47550+007583FM-12+031699999V0201001N004119999999N9999999N1+00101-00211101811ADDMA1999999097881MD1710121+9999OA149901031REMSYN076AAXX  16164 06601 33/// /1008 10010 21021 39788 40181 57012 333 91120 91210;
0128066010999992010011617004+47550+007583FM-12+031699999V0201001N003619999999N9999999N1+00081-00211101831ADDMA1999999097901MD1510011+9999OA149901031REMSYN076AAXX  16174 06601 33/// /1007 10008 21021 39790 40183 55001 333 91120 91210;
0246066010999992010011618004+47550+007583FM-12+031699999V0201001N003610360019N0160001N1+00081-00221101791ADDAJ100049199999999AL19900091GA1081+036001041GF108991999999999999999999IA1279KA1120M+00211MA1999999097861MD1010031+9999OA149901031REMSYN106AAXX  16184 06601 32966 81007 10008 21022 39786 40179 50003 333 10021 43004 88462 90766 93100 91120 91210;
0164066010999992010011619004+47550+007583FM-12+031699999V0201001N003119999999N9999999N1+00081-00131101811ADDAA101000391MA1999999097881MD1410001+9999OA149900821REMSYN082AAXX  16194 06601 23/// /1006 10008 21013 39788 40181 57000 333 69935 91116 91207;EQDQ01+000072APCTEN
0145066010999992010011620004+47550+007583FM-12+031699999V0201001N004119999999N9999999N1+00061-00071101701ADDAA101000891MA1999999097771MD1710131+9999OA149900671REMSYN082AAXX  16204 06601 23/// /1008 10006 21007 39777 40170 57013 333 69985 91113 91208;
0145066010999992010011621004+47550+007583FM-12+031699999V0201001N004119999999N9999999N1+00091-00021101611ADDAA101001091MA1999999097691MD1710171+9999OA149901031REMSYN082AAXX  16214 06601 23/// /1008 10009 21002 39769 40161 57017 333 60015 91120 91210;
0145066010999992010011622004+47550+007583FM-12+031699999V0201101N003619999999N9999999N1+00101+00011101641ADDAA101002091MA1999999097721MD1510161+9999OA149900981REMSYN082AAXX  16224 06601 23/// /1107 10010 20001 39772 40164 55016 333 60025 91119 91210;
0145066010999992010011623004+47550+007583FM-12+031699999V0201001N003619999999N9999999N1+00121+00041101621ADDAA101000891MA1999999097701MD1710071+9999OA149900771REMSYN082AAXX  16234 06601 23/// /1007 10012 20004 39770 40162 57007 333 69985 91115 91209;
0151066010999992010011700004+47550+007583FM-12+031699999V0201001N001019999999N9999999N1+00171+00051101661ADDAA106005191MA1999999097751MD1210061+9999OA149901031REMSYN088AAXX  17004 06601 03/// /1002 10017 20005 39775 40166 52006 60051 333 69915 91120 91210;
0128066010999992010011701004+47550+007583FM-12+031699999V0201001N001019999999N9999999N1+00191+00121101591ADDMA1999999097691MD1810031+9999OA149900511REMSYN076AAXX  17014 06601 33/// /1002 10019 20012 39769 40159 58003 333 91110 91206;
0145066010999992010011702004+47550+007583FM-12+031699999V0200901N002119999999N9999999N1+00231+00131101581ADDAA101000391MA1999999097681MD1819999+9999OA149900461REMSYN082AAXX  17024 06601 23/// /0904 10023 20013 39768 40158 58/// 333 69935 91109 91205;
0087066010999992010011703004+47550+007583FM-12+031699999V0201101N001519999999N9999999N1+00261+00181101581ADDMA1999999097691REMSYN060AAXX  17034 06601 43/// /1103 10026 20018 39769 40158 5////;
0128066010999992010011704004+47550+007583FM-12+031699999V0201301N001019999999N9999999N1+00261+00191101541ADDMA1999999097651MD1710041+9999OA149900461REMSYN076AAXX  17044 06601 33/// /1302 10026 20019 39765 40154 57004 333 91109 91205;
0128066010999992010011705004+47550+007583FM-12+031699999V0202201N004119999999N9999999N1+00741+00281101451ADDMA1999999097631MD1719999+9999OA149900931REMSYN076AAXX  17054 06601 33/// /2208 10074 20028 39763 40145 57/// 333 91118 91210;
0356066010999992010011706004+47550+007583FM-12+031699999V0202401N003610330019N0300001N1+00781+00321101471ADDAA112007191AA224007191AJ100039199999999AL11200791AL29900091AY161061AY221061GA1071+033001031GF107991999999999999999999GJ101809IA1279IA2999+00009KA1999N+00061MA1999999097651MD1510041+9999MW1021OA149900981REMSYN142AAXX  17064 06601 01980 72407 10078 20032 39765 40147 55004 60072 70262 333 20006 3/100 43003 55030 60005 70072 87361 90768 93100 91119 91210;
0128066010999992010011707004+47550+007583FM-12+031699999V0202401N005119999999N9999999N1+00781+00361101571ADDMA1999999097751MD1210101+9999OA149901031REMSYN076AAXX  17074 06601 33/// /2410 10078 20036 39775 40157 52010 333 91120 91211;
0128066010999992010011708004+47550+007583FM-12+031699999V0202601N005119999999N9999999N1+00661+00451101731ADDMA1999999097891MD1319999+9999OA149901181REMSYN076AAXX  17084 06601 33/// /2610 10066 20045 39789 40173 53/// 333 91123 91211;
0128066010999992010011709004+47550+007583FM-12+031699999V0202501N005119999999N9999999N1+00671+00331101871ADDMA1999999098021MD1210371+9999OA149901181REMSYN076AAXX  17094 06601 33/// /2510 10067 20033 39802 40187 52037 333 91123 91211;
0128066010999992010011710004+47550+007583FM-12+031699999V0202601N006219999999N9999999N1+00631+00361101991ADDMA1999999098131MD1110381+9999OA149901391REMSYN076AAXX  17104 06601 33/// /2612 10063 20036 39813 40199 51038 333 91127 91212;
0145066010999992010011711004+47550+007583FM-12+031699999V0202501N006719999999N9999999N1+00671+00271102051ADDAA101000021MA1999999098201MD1110311+9999OA149901391REMSYN082AAXX  17114 06601 23/// /2513 10067 20027 39820 40205 51031 333 69915 91127 91213;
0249066010999992010011712004+47550+007583FM-12+031699999V0202501N005110270019N0350001N1+00751+00241102131ADDAA106000021AY181061AY261061GA1041+018001061GA2041+027001031GF105991999999017501999999MA1999999098281MD1110261+9999MW1251OA149901391REMSYN106AAXX  17124 06601 01781 52510 10075 20024 39828 40213 51026 69911 72586 333 60005 84656 84359 91127 91214;
0128066010999992010011713004+47550+007583FM-12+031699999V0202801N004619999999N9999999N1+00651+00201102201ADDMA1999999098341MD1310211+9999OA149901291REMSYN076AAXX  17134 06601 33/// /2809 10065 20020 39834 40220 53021 333 91125 91214;
0128066010999992010011714004+47550+007583FM-12+031699999V0202601N005119999999N9999999N1+00541+00151102311ADDMA1999999098431MD1319999+9999OA149901291REMSYN076AAXX  17144 06601 33/// /2610 10054 20015 39843 40231 53/// 333 91125 91211;
