0135066045999992011010100204+47083+006783AUTO +1027LSGC V0202401N000510003019N0010001N1-00701-00801999999ADDAW1101GA1091+000301999GF109991999999000251999999MA1101901999999REMMET060METAR LSGC 010020Z AUTO 24001KT 1000 BR VV001 M07/M08 Q1019;
0136066045999992011010100504+47083+006783AUTO +1027LSGC V0202401N000512200019N0003501N1-00801-00901999999ADDAW1301GA1041+000301999GF104991999999999999999999MA1101901999999REMMET061METAR LSGC 010050Z AUTO 24001KT 0350 FG SCT001 M08/M09 Q1019;
0135066045999992011010101204+47083+006783AUTO +1027LSGC V0202501N001010003019N0090001N1-00701-00801999999ADDAW1301GA1091+000301999GF109991999999000251999999MA1101901999999REMMET060METAR LSGC 010120Z AUTO 25002KT 9000 FG VV001 M07/M08 Q1019;
0136066045999992011010101504+47083+006783AUTO +1027LSGC V0202401N001010021019N0039001N1-00501-00601999999ADDAW1101GA1071+002101999GF107991999999999999999999MA1101901999999REMMET061METAR LSGC 010150Z AUTO 24002KT 3900 BR BKN007 M05/M06 Q1019;
0127066045999992011010102204+47083+006783AUTO +1027LSGC V0202601N000512200019N0112651N1-00501-00501999999ADDGA1041+000901999GF104991999999999999999999MA1101801999999REMMET058METAR LSGC 010220Z AUTO 26001KT 9999 SCT003 M05/M05 Q1018;
0136066045999992011010102504+47083+006783AUTO +1027LSGC V0209999C000010006019N0008001N1-00501-00601999999ADDAW1101GA1081+000601999GF108991999999999999999999MA1101801999999REMMET061METAR LSGC 010250Z AUTO 00000KT 0800 BR OVC002 M05/M06 Q1018;
0135066045999992011010103204+47083+006783AUTO +1027LSGC V0202601N001010003019N0001001N1-00401-00501999999ADDAW1301GA1091+000301999GF109991999999000251999999MA1101801999999REMMET060METAR LSGC 010320Z AUTO 26002KT 0100 FG VV001 M04/M05 Q1018;
0135066045999992011010103504+47083+006783AUTO +1027LSGC V0202501N000510003019N0020001N1-00601-00601999999ADDAW1301GA1091+000301999GF109991999999000251999999MA1101801999999REMMET060METAR LSGC 010350Z AUTO 25001KT 2000 FG VV001 M06/M06 Q1018;
0127066045999992011010104204+47083+006783AUTO +1027LSGC V0202401N000512200019N0112651N1-00601-00601999999ADDGA1021+001501999GF102991999999999999999999MA1101801999999REMMET058METAR LSGC 010420Z AUTO 24001KT 9999 FEW005 M06/M06 Q1018;
0127066045999992011010104504+47083+006783AUTO +1027LSGC V0202601N000510012019N0112651N1-00601-00701999999ADDGA1081+001201999GF108991999999999999999999MA1101801999999REMMET058METAR LSGC 010450Z AUTO 26001KT 9999 OVC004 M06/M07 Q1018;
0127066045999992011010105204+47083+006783AUTO +1027LSGC V0202501N000510009019N0112651N1-00501-00601999999ADDGA1081+000901999GF108991999999999999999999MA1101801999999REMMET058METAR LSGC 010520Z AUTO 25001KT 9999 OVC003 M05/M06 Q1018;
0127066045999992011010105504+47083+006783AUTO +1027LSGC V0202501N001010012019N0112651N1-00601-00601999999ADDGA1081+001201999GF108991999999999999999999MA1101801999999REMMET058METAR LSGC 010550Z AUTO 25002KT 9999 OVC004 M06/M06 Q1018;
0127066045999992011010106204+47083+006783AUTO +1027LSGC V0202501N001010009019N0112651N1-00601-00701999999ADDGA1071+000901999GF107991999999999999999999MA1101801999999REMMET058METAR LSGC 010620Z AUTO 25002KT 9999 BKN003 M06/M07 Q1018;
0080066045999992011010107204+47083+006783FM-15+1027LSGC V0202501N001019999999Y0099001N1-00601-00701999999ADDMA1101901999999REMMET053METAR LSGC 010720Z 25002KT CAVOK M06/M07 Q1019 NOSIG;
0080066045999992011010107504+47083+006783FM-15+1027LSGC V0202401N001019999999Y0099001N1-00601-00701999999ADDMA1101901999999REMMET053METAR LSGC 010750Z 24002KT CAVOK M06/M07 Q1019 NOSIG;
0139066045999992011010108504+47083+006783FM-15+1027LSGC V0202501N001012200019N0050001N1-00601-00701999999ADDGA1041+001201999GF104991999999999999999999MA1101901999999MW1401REMMET064METAR LSGC 010850Z 25002KT 5000 VCFG SCT004 M06/M07 Q1019 NOSIG;
0080066045999992011010109204+47083+006783FM-15+1027LSGC V0202601N001019999999Y0099001N1-00401-00501999999ADDMA1101901999999REMMET053METAR LSGC 010920Z 26002KT CAVOK M04/M05 Q1019 NOSIG;
0080066045999992011010110204+47083+006783FM-15+1027LSGC V0202501N001019999999Y0099001N1-00401-00401999999ADDMA1101801999999REMMET053METAR LSGC 011020Z 25002KT CAVOK M04/M04 Q1018 NOSIG;
0080066045999992011010110504+47083+006783FM-15+1027LSGC V0202401N001019999999Y0099001N1-00301-00401999999ADDMA1101801999999REMMET053METAR LSGC 011050Z 24002KT CAVOK M03/M04 Q1018 NOSIG;
0080066045999992011010111504+47083+006783FM-15+1027LSGC V0202501N001519999999Y0099001N1-00101-00201999999ADDMA1101801999999REMMET053METAR LSGC 011150Z 25003KT CAVOK M01/M02 Q1018 NOSIG;
0079066045999992011010112504+47083+006783FM-15+1027LSGC V0209999V001019999999Y0099001N1+00101-00201999999ADDMA1101691999999REMMET052METAR LSGC 011250Z VRB02KT CAVOK 01/M02 Q1017 NOSIG;
0079066045999992011010113504+47083+006783FM-15+1027LSGC V0202201N002619999999Y0099001N1+00201-00101999999ADDMA1101691999999REMMET052METAR LSGC 011350Z 22005KT CAVOK 02/M01 Q1017 NOSIG;
0079066045999992011010114204+47083+006783FM-15+1027LSGC V0202201N002119999999Y0099001N1+00201-00101999999ADDMA1101591999999REMMET052METAR LSGC 011420Z 22004KT CAVOK 02/M01 Q1016 NOSIG;
0079066045999992011010115204+47083+006783FM-15+1027LSGC V0209999V001519999999Y0099001N1+00101-00201999999ADDMA1101691999999REMMET052METAR LSGC 011520Z VRB03KT CAVOK 01/M02 Q1017 NOSIG;
0079066045999992011010115504+47083+006783FM-15+1027LSGC V0209999V000519999999Y0099001N1+00001-00101999999ADDMA1101691999999REMMET052METAR LSGC 011550Z VRB01KT CAVOK 00/M01 Q1017 NOSIG;
0128066045999992011010116204+47083+006783FM-15+1027LSGC V0202601N000510024019N0060001N1-00201-00301999999ADDGA1071+002401999GF107991999999999999999999MA1101691999999REMMET059METAR LSGC 011620Z 26001KT 6000 BKN008 M02/M03 Q1017 NOSIG;
0127066045999992011010116504+47083+006783AUTO +1027LSGC V0209999V000510009019N0112651N1+00001-00101999999ADDGA1071+000901999GF107991999999999999999999MA1101691999999REMMET058METAR LSGC 011650Z AUTO VRB01KT 9999 BKN003 M00/M01 Q1017;
0127066045999992011010117204+47083+006783AUTO +1027LSGC V0209999V001010009019N0112651N1-00101-00101999999ADDGA1081+000901999GF108991999999999999999999MA1101691999999REMMET058METAR LSGC 011720Z AUTO VRB02KT 9999 OVC003 M01/M01 Q1017;
0127066045999992011010117504+47083+006783AUTO +1027LSGC V0202601N000510006019N0112651N1-00101-00201999999ADDGA1081+000601999GF108991999999999999999999MA1101591999999REMMET058METAR LSGC 011750Z AUTO 26001KT 9999 OVC002 M01/M02 Q1016;
0127066045999992011010118204+47083+006783AUTO +1027LSGC V0209999V001010009019N0112651N1-00101-00201999999ADDGA1081+000901999GF108991999999999999999999MA1101591999999REMMET058METAR LSGC 011820Z AUTO VRB02KT 9999 OVC003 M01/M02 Q1016;
0127066045999992011010118504+47083+006783AUTO +1027LSGC V0209999V001010009019N0112651N1-00201-00201999999ADDGA1081+000901999GF108991999999999999999999MA1101591999999REMMET058METAR LSGC 011850Z AUTO VRB02KT 9999 OVC003 M02/M02 Q1016;
0127066045999992011010119204+47083+006783AUTO +1027LSGC V0209999V000510012019N0112651N1-00201-00201999999ADDGA1081+001201999GF108991999999999999999999MA1101591999999REMMET058METAR LSGC 011920Z AUTO VRB01KT 9999 OVC004 M02/M02 Q1016;
0127066045999992011010119504+47083+006783AUTO +1027LSGC V0209999V001010012019N0112651N1-00201-00301999999ADDGA1081+001201999GF108991999999999999999999MA1101691999999REMMET058METAR LSGC 011950Z AUTO VRB02KT 9999 OVC004 M02/M03 Q1017;
0127066045999992011010120204+47083+006783AUTO +1027LSGC V0209999V000510009019N0112651N1-00201-00301999999ADDGA1081+000901999GF108991999999999999999999MA1101691999999REMMET058METAR LSGC 012020Z AUTO VRB01KT 9999 OVC003 M02/M03 Q1017;
0127066045999992011010120504+47083+006783AUTO +1027LSGC V0209999V001010012019N0112651N1-00201-00301999999ADDGA1081+001201999GF108991999999999999999999MA1101591999999REMMET058METAR LSGC 012050Z AUTO VRB02KT 9999 OVC004 M02/M03 Q1016;
0127066045999992011010121204+47083+006783AUTO +1027LSGC V0209999V000510009019N0090001N1-00201-00301999999ADDGA1081+000901999GF108991999999999999999999MA1101591999999REMMET058METAR LSGC 012120Z AUTO VRB01KT 9000 OVC003 M02/M03 Q1016;
0127066045999992011010121504+47083+006783AUTO +1027LSGC V0209999C000010009019N0060001N1-00201-00301999999ADDGA1081+000901999GF108991999999999999999999MA1101591999999REMMET058METAR LSGC 012150Z AUTO 00000KT 6000 OVC003 M02/M03 Q1016;
0135066045999992011010122204+47083+006783AUTO +1027LSGC V0209999V000510009019N0048001N1-00201-00301999999ADDAW1101GA1091+000901999GF109991999999000251999999MA1101591999999REMMET060METAR LSGC 012220Z AUTO VRB01KT 4800 BR VV003 M02/M03 Q1016;
0136066045999992011010122504+47083+006783AUTO +1027LSGC V0209999V000510006019N0017001N1-00301-00301999999ADDAW1301GA1071+000601999GF107991999999999999999999MA1101591999999REMMET061METAR LSGC 012250Z AUTO VRB01KT 1700 FG BKN002 M03/M03 Q1016;
0136066045999992011010123204+47083+006783AUTO +1027LSGC V0200501N003110006019N0008001N1-00301-00301999999ADDAW1101GA1071+000601999GF107991999999999999999999MA1101591999999REMMET061METAR LSGC 012320Z AUTO 05006KT 0800 BR BKN002 M03/M03 Q1016;
0143066045999992011010123504+47083+006783AUTO +1027LSGC V0200601N002610006019N0004001N1-00301-00301999999ADDAW1301GA1091+000601999GF109991999999000251999999MA1101491999999REMMET068METAR LSGC 012350Z AUTO 06005KT 030V120 0400 FG VV002 M03/M03 Q1015;
0136066045999992011010200204+47083+006783AUTO +1027LSGC V0200301N003610006019N0008001N1-00401-00401999999ADDAW1101GA1081+000601999GF108991999999999999999999MA1101491999999REMMET061METAR LSGC 020020Z AUTO 03007KT 0800 BR OVC002 M04/M04 Q1015;
0135066045999992011010200504+47083+006783AUTO +1027LSGC V0200501N004610009019N0112651N1-00401-00401999999ADDGA1081+000901999GF108991999999999999999999MA1101491999999REMMET066METAR LSGC 020050Z AUTO 05009KT 020V080 9999 OVC003 M04/M04 Q1015;
0127066045999992011010201204+47083+006783AUTO +1027LSGC V0200501N002610015019N0112651N1-00401-00401999999ADDGA1081+001501999GF108991999999999999999999MA1101491999999REMMET058METAR LSGC 020120Z AUTO 05005KT 9999 OVC005 M04/M04 Q1015;
0135066045999992011010201504+47083+006783AUTO +1027LSGC V0200401N003610015019N0112651N1-00401-00501999999ADDGA1081+001501999GF108991999999999999999999MA1101591999999REMMET066METAR LSGC 020150Z AUTO 04007KT 350V070 9999 OVC005 M04/M05 Q1016;
0135066045999992011010202204+47083+006783AUTO +1027LSGC V0200501N003610015019N0112651N1-00401-00401999999ADDGA1081+001501999GF108991999999999999999999MA1101491999999REMMET066METAR LSGC 020220Z AUTO 05007KT 010V080 9999 OVC005 M04/M04 Q1015;
0127066045999992011010202504+47083+006783AUTO +1027LSGC V0200501N003110036019N0112651N1-00401-00401999999ADDGA1071+003601999GF107991999999999999999999MA1101491999999REMMET058METAR LSGC 020250Z AUTO 05006KT 9999 BKN012 M04/M04 Q1015;
0150066045999992011010203204+47083+006783AUTO +1027LSGC V0200501N003110045019N0112651N1-00301-00401999999ADDGA1021+002401999GA2081+004501999GF108991999999999999999999MA1101491999999REMMET065METAR LSGC 020320Z AUTO 05006KT 9999 FEW008 OVC015 M03/M04 Q1015;
0135066045999992011010203504+47083+006783AUTO +1027LSGC V0200501N002610051019N0112651N1-00301-00401999999ADDGA1071+005101999GF107991999999999999999999MA1101491999999REMMET066METAR LSGC 020350Z AUTO 05005KT 030V100 9999 BKN017 M03/M04 Q1015;
0158066045999992011010204204+47083+006783AUTO +1027LSGC V0200601N003610057019N0112651N1-00301-00401999999ADDGA1021+002101999GA2081+005701999GF108991999999999999999999MA1101491999999REMMET073METAR LSGC 020420Z AUTO 06007KT 010V090 9999 FEW007 OVC019 M03/M04 Q1015;
0158066045999992011010204504+47083+006783AUTO +1027LSGC V0200501N003110015019N0112651N1-00301-00401999999ADDGA1071+001501999GA2071+005401999GF107991999999999999999999MA1101591999999REMMET073METAR LSGC 020450Z AUTO 05006KT 020V090 9999 BKN005 BKN018 M03/M04 Q1016;
0150066045999992011010205204+47083+006783AUTO +1027LSGC V0200501N002610015019N0112651N1-00301-00401999999ADDGA1071+001501999GA2071+005701999GF107991999999999999999999MA1101491999999REMMET065METAR LSGC 020520Z AUTO 05005KT 9999 BKN005 BKN019 M03/M04 Q1015;
0150066045999992011010205504+47083+006783AUTO +1027LSGC V0200401N002610051019N0112651N1-00301-00401999999ADDGA1041+001801999GA2081+005101999GF108991999999999999999999MA1101491999999REMMET065METAR LSGC 020550Z AUTO 04005KT 9999 SCT006 OVC017 M03/M04 Q1015;
0135066045999992011010206204+47083+006783AUTO +1027LSGC V0200501N002610021019N0112651N1-00301-00401999999ADDGA1071+002101999GF107991999999999999999999MA1101491999999REMMET066METAR LSGC 020620Z AUTO 05005KT 030V100 9999 BKN007 M03/M04 Q1015;
0127066045999992011010206504+47083+006783AUTO +1027LSGC V0200401N003110018019N0112651N1-00301-00401999999ADDGA1081+001801999GF108991999999999999999999MA1101591999999REMMET058METAR LSGC 020650Z AUTO 04006KT 9999 OVC006 M03/M04 Q1016;
0127066045999992011010207204+47083+006783AUTO +1027LSGC V0200601N003110015019N0112651N1-00301-00401999999ADDGA1081+001501999GF108991999999999999999999MA1101591999999REMMET058METAR LSGC 020720Z AUTO 06006KT 9999 OVC005 M03/M04 Q1016;
0136066045999992011010207504+47083+006783FM-15+1027LSGC V0200401N004610015019N0060001N1-00301-00401999999ADDGA1071+001501999GF107991999999999999999999MA1101591999999REMMET067METAR LSGC 020750Z 04009KT 010V070 6000 BKN005 M03/M04 Q1016 NOSIG;
0137066045999992011010208504+47083+006783FM-15+1027LSGC V0200501N006210015019N0045001N1-00401-00401999999ADDGA1071+001501999GF107991999999999999999999MA1101591999999MW1101REMMET062METAR LSGC 020850Z 05012KT 4500 BR BKN005 M04/M04 Q1016 NOSIG;
0145066045999992011010209204+47083+006783FM-15+1027LSGC V0200501N004610015019N0050001N1-00301-00401999999ADDGA1071+001501999GF107991999999999999999999MA1101691999999MW1101REMMET070METAR LSGC 020920Z 05009KT 020V080 5000 BR BKN005 M03/M04 Q1017 NOSIG;
0137066045999992011010209504+47083+006783FM-15+1027LSGC V0200401N005110015019N0050001N1-00301-00401999999ADDGA1071+001501999GF107991999999999999999999MA1101691999999MW1101REMMET062METAR LSGC 020950Z 04010KT 5000 BR BKN005 M03/M04 Q1017 NOSIG;
0145066045999992011010210204+47083+006783FM-15+1027LSGC V0200501N004110012019N0050001N1-00301-00401999999ADDGA1071+001201999GF107991999999999999999999MA1101691999999MW1101REMMET070METAR LSGC 021020Z 05008KT 030V100 5000 BR BKN004 M03/M04 Q1017 NOSIG;
0138066045999992011010210504+47083+006783FM-15+1027LSGC V0200501N004110015019N0035001N1-00301-00401999999ADDGA1071+001501999GF107991999999999999999999MA1101691999999MW1771REMMET063METAR LSGC 021050Z 05008KT 3500 -SG BKN005 M03/M04 Q1017 NOSIG;
0138066045999992011010211204+47083+006783FM-15+1027LSGC V0200401N004110015019N0035001N1-00301-00501999999ADDGA1071+001501999GF107991999999999999999999MA1101691999999MW1771REMMET063METAR LSGC 021120Z 04008KT 3500 -SG BKN005 M03/M05 Q1017 NOSIG;
0128066045999992011010211504+47083+006783FM-15+1027LSGC V0200501N005710030019N0060001N1-00401-00501999999ADDGA1071+003001999GF107991999999999999999999MA1101691999999REMMET059METAR LSGC 021150Z 05011KT 6000 BKN010 M04/M05 Q1017 NOSIG;
0151066045999992011010213204+47083+006783FM-15+1027LSGC V0200401N005710063019N0070001N1-00401-00601999999ADDGA1041+003301999GA2071+006301999GF107991999999999999999999MA1101691999999REMMET066METAR LSGC 021320Z 04011KT 7000 SCT011 BKN021 M04/M06 Q1017 NOSIG;
0159066045999992011010213504+47083+006783FM-15+1027LSGC V0200401N006210063019N0070001N1-00401-00701999999ADDGA1041+004201999GA2071+006301999GF107991999999999999999999MA1101691999999REMMET074METAR LSGC 021350Z 04012KT 010V080 7000 SCT014 BKN021 M04/M07 Q1017 NOSIG;
0151066045999992011010214204+47083+006783FM-15+1027LSGC V0200401N005710072019N0080001N1-00401-00701999999ADDGA1041+004501999GA2071+007201999GF107991999999999999999999MA1101691999999REMMET066METAR LSGC 021420Z 04011KT 8000 SCT015 BKN024 M04/M07 Q1017 NOSIG;
0151066045999992011010214504+47083+006783FM-15+1027LSGC V0200401N005710072019N0080001N1-00401-00701999999ADDGA1041+004501999GA2071+007201999GF107991999999999999999999MA1101691999999REMMET066METAR LSGC 021450Z 04011KT 8000 SCT015 BKN024 M04/M07 Q1017 NOSIG;
0159066045999992011010215204+47083+006783FM-15+1027LSGC V0200401N005110072019N0080001N1-00401-00701999999ADDGA1041+004501999GA2071+007201999GF107991999999999999999999MA1101691999999REMMET074METAR LSGC 021520Z 04010KT 010V070 8000 SCT015 BKN024 M04/M07 Q1017 NOSIG;
0160066045999992011010216204+47083+006783AUTO +1027LSGC V0200501N004610039019N0112651N1-00501-00701999999ADDAW1711GA1071+003901999GA2071+006001999GF107991999999999999999999MA1101801999999REMMET069METAR LSGC 021620Z AUTO 05009KT 9999 -SN BKN013 BKN020 M05/M07 Q1018;
0160066045999992011010216504+47083+006783AUTO +1027LSGC V0200401N005110054019N0112651N1-00501-00701999999ADDAW1711GA1041+003901999GA2071+005401999GF107991999999999999999999MA1101801999999REMMET069METAR LSGC 021650Z AUTO 04010KT 9999 -SN SCT013 BKN018 M05/M07 Q1018;
0161066045999992011010217204+47083+006783AUTO +1027LSGC V0200401N00461003601CN0112651N1-00501-00701999999ADDAW1711GA1071+003601999GA2041+005101999MA1101801999999REMMET077METAR LSGC 021720Z AUTO 04009KT 010V080 9999 -SN BKN012 SCT017 M05/M07 Q1018;EQDQ01+000042SCOTCV
0135066045999992011010217504+47083+006783AUTO +1027LSGC V0200501N004610036019N0112651N1-00501-00701999999ADDGA1081+003601999GF108991999999999999999999MA1101801999999REMMET066METAR LSGC 021750Z AUTO 05009KT 030V090 9999 OVC012 M05/M07 Q1018;
0127066045999992011010218204+47083+006783AUTO +1027LSGC V0200501N004110036019N0112651N1-00501-00701999999ADDGA1071+003601999GF107991999999999999999999MA1101801999999REMMET058METAR LSGC 021820Z AUTO 05008KT 9999 BKN012 M05/M07 Q1018;
0150066045999992011010218504+47083+006783AUTO +1027LSGC V0200401N003610060019N0112651N1-00501-00701999999ADDGA1041+004501999GA2071+006001999GF107991999999999999999999MA1101801999999REMMET065METAR LSGC 021850Z AUTO 04007KT 9999 SCT015 BKN020 M05/M07 Q1018;
0161066045999992011010219204+47083+006783AUTO +1027LSGC V0200501N00411003001CN0112651N1-00501-00701999999ADDAW1711GA1071+003001999GA2041+004801999MA1101801999999REMMET077METAR LSGC 021920Z AUTO 05008KT 010V070 9999 -SN BKN010 SCT016 M05/M07 Q1018;EQDQ01+000042SCOTCV
0150066045999992011010219504+47083+006783AUTO +1027LSGC V0200401N004110054019N0112651N1-00501-00701999999ADDGA1041+003601999GA2071+005401999GF107991999999999999999999MA1101801999999REMMET065METAR LSGC 021950Z AUTO 04008KT 9999 SCT012 BKN018 M05/M07 Q1018;
0158066045999992011010220204+47083+006783AUTO +1027LSGC V0200501N004610045019N0112651N1-00401-00701999999ADDGA1071+004501999GA2071+006001999GF107991999999999999999999MA1101801999999REMMET073METAR LSGC 022020Z AUTO 05009KT 010V090 9999 BKN015 BKN020 M04/M07 Q1018;
0135066045999992011010220504+47083+006783AUTO +1027LSGC V0200601N003610036019N0112651N1-00501-00701999999ADDGA1071+003601999GF107991999999999999999999MA1101801999999REMMET066METAR LSGC 022050Z AUTO 06007KT 030V110 9999 BKN012 M05/M07 Q1018;
0135066045999992011010221204+47083+006783AUTO +1027LSGC V0200701N004110036019N0112651N1-00501-00801999999ADDGA1071+003601999GF107991999999999999999999MA1101901999999REMMET066METAR LSGC 022120Z AUTO 07008KT 040V110 9999 BKN012 M05/M08 Q1019;
0135066045999992011010221504+47083+006783AUTO +1027LSGC V0200701N003610039019N0112651N1-00601-00801999999ADDGA1071+003901999GF107991999999999999999999MA1101901999999REMMET066METAR LSGC 022150Z AUTO 07007KT 030V110 9999 BKN013 M06/M08 Q1019;
0135066045999992011010222204+47083+006783AUTO +1027LSGC V0200701N003112200019N0112651N1-00601-00801999999ADDGA1021+004201999GF102991999999999999999999MA1101901999999REMMET066METAR LSGC 022220Z AUTO 07006KT 040V100 9999 FEW014 M06/M08 Q1019;
0127066045999992011010222504+47083+006783AUTO +1027LSGC V0200601N004610036019N0112651N1-00601-00901999999ADDGA1071+003601999GF107991999999999999999999MA1101901999999REMMET058METAR LSGC 022250Z AUTO 06009KT 9999 BKN012 M06/M09 Q1019;
0135066045999992011010223204+47083+006783AUTO +1027LSGC V0200701N003112200019N0112651N1-00601-00801999999ADDGA1021+003301999GF102991999999999999999999MA1101901999999REMMET066METAR LSGC 022320Z AUTO 07006KT 040V110 9999 FEW011 M06/M08 Q1019;
0127066045999992011010223504+47083+006783AUTO +1027LSGC V0200601N004610030019N0112651N1-00701-00901999999ADDGA1071+003001999GF107991999999999999999999MA1101801999999REMMET058METAR LSGC 022350Z AUTO 06009KT 9999 BKN010 M07/M09 Q1018;
0135066045999992011010300204+47083+006783AUTO +1027LSGC V0200601N004110021019N0112651N1-00701-00901999999ADDGA1071+002101999GF107991999999999999999999MA1101801999999REMMET066METAR LSGC 030020Z AUTO 06008KT 040V110 9999 BKN007 M07/M09 Q1018;
0127066045999992011010300504+47083+006783AUTO +1027LSGC V0200501N004610021019N0112651N1-00701-00801999999ADDGA1071+002101999GF107991999999999999999999MA1101801999999REMMET058METAR LSGC 030050Z AUTO 05009KT 9999 BKN007 M07/M08 Q1018;
0127066045999992011010301204+47083+006783AUTO +1027LSGC V0200601N003612200019N0112651N1-00701-00901999999ADDGA1021+002401999GF102991999999999999999999MA1101801999999REMMET058METAR LSGC 030120Z AUTO 06007KT 9999 FEW008 M07/M09 Q1018;
0087066045999992011010301504+47083+006783AUTO +1027LSGC V0200601N003119999999Y0099001N1-00801-00901999999ADDMA1101801999999REMMET060METAR LSGC 030150Z AUTO 06006KT 030V090 CAVOK M08/M09 Q1018;
0079066045999992011010302204+47083+006783AUTO +1027LSGC V0200601N002619999999Y0099001N1-00801-01001999999ADDMA1101901999999REMMET052METAR LSGC 030220Z AUTO 06005KT CAVOK M08/M10 Q1019;
0087066045999992011010302504+47083+006783AUTO +1027LSGC V0200501N002119999999Y0099001N1-00801-01001999999ADDMA1101901999999REMMET060METAR LSGC 030250Z AUTO 05004KT 020V090 CAVOK M08/M10 Q1019;
0079066045999992011010303204+47083+006783AUTO +1027LSGC V0200501N001519999999Y0099001N1-00801-01001999999ADDMA1101801999999REMMET052METAR LSGC 030320Z AUTO 05003KT CAVOK M08/M10 Q1018;
0079066045999992011010303504+47083+006783AUTO +1027LSGC V0200401N001019999999Y0099001N1-00901-01001999999ADDMA1101801999999REMMET052METAR LSGC 030350Z AUTO 04002KT CAVOK M09/M10 Q1018;
0087066045999992011010304204+47083+006783AUTO +1027LSGC V0200201N002119999999Y0099001N1-00701-01101999999ADDMA1101801999999REMMET060METAR LSGC 030420Z AUTO 02004KT 320V050 CAVOK M07/M11 Q1018;
0079066045999992011010304504+47083+006783AUTO +1027LSGC V0209999V001519999999Y0099001N1-01001-01301999999ADDMA1101801999999REMMET052METAR LSGC 030450Z AUTO VRB03KT CAVOK M10/M13 Q1018;
0087066045999992011010305204+47083+006783AUTO +1027LSGC V0200301N002119999999Y0099001N1-00801-01101999999ADDMA1101801999999REMMET060METAR LSGC 030520Z AUTO 03004KT 340V060 CAVOK M08/M11 Q1018;
0087066045999992011010305504+47083+006783AUTO +1027LSGC V0200301N002619999999Y0099001N1-00801-01101999999ADDMA1101801999999REMMET060METAR LSGC 030550Z AUTO 03005KT 360V060 CAVOK M08/M11 Q1018;
0087066045999992011010306204+47083+006783AUTO +1027LSGC V0200501N002119999999Y0099001N1-00801-01101999999ADDMA1101801999999REMMET060METAR LSGC 030620Z AUTO 05004KT 010V090 CAVOK M08/M11 Q1018;
0088066045999992011010307504+47083+006783FM-15+1027LSGC V0200501N002619999999Y0099001N1-00901-01101999999ADDMA1101801999999REMMET061METAR LSGC 030750Z 05005KT 020V080 CAVOK M09/M11 Q1018 NOSIG;
0080066045999992011010308204+47083+006783FM-15+1027LSGC V0200401N001519999999Y0099001N1-01001-01201999999ADDMA1101801999999REMMET053METAR LSGC 030820Z 04003KT CAVOK M10/M12 Q1018 NOSIG;
0088066045999992011010308504+47083+006783FM-15+1027LSGC V0200801N001519999999Y0099001N1-00901-01201999999ADDMA1101801999999REMMET061METAR LSGC 030850Z 08003KT 040V130 CAVOK M09/M12 Q1018 NOSIG;
0088066045999992011010309204+47083+006783FM-15+1027LSGC V0200601N002119999999Y0099001N1-00601-01001999999ADDMA1101801999999REMMET061METAR LSGC 030920Z 06004KT 030V110 CAVOK M06/M10 Q1018 NOSIG;
0088066045999992011010309504+47083+006783FM-15+1027LSGC V0200701N002619999999Y0099001N1-00501-01101999999ADDMA1101801999999REMMET061METAR LSGC 030950Z 07005KT 030V100 CAVOK M05/M11 Q1018 NOSIG;
0088066045999992011010310204+47083+006783FM-15+1027LSGC V0200501N003619999999Y0099001N1-00501-01101999999ADDMA1101801999999REMMET061METAR LSGC 031020Z 05007KT 040V100 CAVOK M05/M11 Q1018 NOSIG;
0088066045999992011010310504+47083+006783FM-15+1027LSGC V0200601N003619999999Y0099001N1-00401-01101999999ADDMA1101801999999REMMET061METAR LSGC 031050Z 06007KT 020V090 CAVOK M04/M11 Q1018 NOSIG;
0088066045999992011010311504+47083+006783FM-15+1027LSGC V0200601N003119999999Y0099001N1-00401-01001999999ADDMA1101691999999REMMET061METAR LSGC 031150Z 06006KT 030V110 CAVOK M04/M10 Q1017 NOSIG;
0080066045999992011010312504+47083+006783FM-15+1027LSGC V0209999V001519999999Y0099001N1-00301-01001999999ADDMA1101691999999REMMET053METAR LSGC 031250Z VRB03KT CAVOK M03/M10 Q1017 NOSIG;
0088066045999992011010313204+47083+006783FM-15+1027LSGC V0200801N002119999999Y0099001N1-00401-01001999999ADDMA1101691999999REMMET061METAR LSGC 031320Z 08004KT 010V150 CAVOK M04/M10 Q1017 NOSIG;
0088066045999992011010313504+47083+006783FM-15+1027LSGC V0200701N002119999999Y0099001N1-00401-01001999999ADDMA1101691999999REMMET061METAR LSGC 031350Z 07004KT 040V130 CAVOK M04/M10 Q1017 NOSIG;
0088066045999992011010314204+47083+006783FM-15+1027LSGC V0200801N002119999999Y0099001N1-00401-01001999999ADDMA1101691999999REMMET061METAR LSGC 031420Z 08004KT 050V120 CAVOK M04/M10 Q1017 NOSIG;
0088066045999992011010314504+47083+006783FM-15+1027LSGC V0200901N001519999999Y0099001N1-00401-01001999999ADDMA1101691999999REMMET061METAR LSGC 031450Z 09003KT 040V140 CAVOK M04/M10 Q1017 NOSIG;
0080066045999992011010315204+47083+006783FM-15+1027LSGC V0209999V000519999999Y0099001N1-00501-01001999999ADDMA1101691999999REMMET053METAR LSGC 031520Z VRB01KT CAVOK M05/M10 Q1017 NOSIG;
0080066045999992011010315504+47083+006783FM-15+1027LSGC V0209999V001019999999Y0099001N1-00501-01001999999ADDMA1101691999999REMMET053METAR LSGC 031550Z VRB02KT CAVOK M05/M10 Q1017 NOSIG;
0088066045999992011010316204+47083+006783FM-15+1027LSGC V0200601N002119999999Y0099001N1-00601-01201999999ADDMA1101691999999REMMET061METAR LSGC 031620Z 06004KT 010V110 CAVOK M06/M12 Q1017 NOSIG;
0079066045999992011010316504+47083+006783AUTO +1027LSGC V0209999V000519999999Y0099001N1-00801-01201999999ADDMA1101691999999REMMET052METAR LSGC 031650Z AUTO VRB01KT CAVOK M08/M12 Q1017;
0079066045999992011010317204+47083+006783AUTO +1027LSGC V0209999C000019999999Y0099001N1-00901-01201999999ADDMA1101691999999REMMET052METAR LSGC 031720Z AUTO 00000KT CAVOK M09/M12 Q1017;
0079066045999992011010317504+47083+006783AUTO +1027LSGC V0209999C000019999999Y0099001N1-01001-01301999999ADDMA1101691999999REMMET052METAR LSGC 031750Z AUTO 00000KT CAVOK M10/M13 Q1017;
0079066045999992011010318204+47083+006783AUTO +1027LSGC V0209999V000519999999Y0099001N1-01101-01301999999ADDMA1101691999999REMMET052METAR LSGC 031820Z AUTO VRB01KT CAVOK M11/M13 Q1017;
0079066045999992011010318504+47083+006783AUTO +1027LSGC V0209999C000019999999Y0099001N1-01101-01401999999ADDMA1101691999999REMMET052METAR LSGC 031850Z AUTO 00000KT CAVOK M11/M14 Q1017;
0079066045999992011010319204+47083+006783AUTO +1027LSGC V0209999V000519999999Y0099001N1-01101-01301999999ADDMA1101591999999REMMET052METAR LSGC 031920Z AUTO VRB01KT CAVOK M11/M13 Q1016;
0079066045999992011010319504+47083+006783AUTO +1027LSGC V0209999V000519999999Y0099001N1-01101-01301999999ADDMA1101591999999REMMET052METAR LSGC 031950Z AUTO VRB01KT CAVOK M11/M13 Q1016;
0079066045999992011010320204+47083+006783AUTO +1027LSGC V0209999C000019999999Y0099001N1-01201-01401999999ADDMA1101591999999REMMET052METAR LSGC 032020Z AUTO 00000KT CAVOK M12/M14 Q1016;
0079066045999992011010320504+47083+006783AUTO +1027LSGC V0209999C000019999999Y0099001N1-01201-01401999999ADDMA1101591999999REMMET052METAR LSGC 032050Z AUTO 00000KT CAVOK M12/M14 Q1016;
0079066045999992011010321204+47083+006783AUTO +1027LSGC V0202501N000519999999Y0099001N1-01201-01401999999ADDMA1101591999999REMMET052METAR LSGC 032120Z AUTO 25001KT CAVOK M12/M14 Q1016;
0079066045999992011010321504+47083+006783AUTO +1027LSGC V0209999C000019999999Y0099001N1-01201-01501999999ADDMA1101591999999REMMET052METAR LSGC 032150Z AUTO 00000KT CAVOK M12/M15 Q1016;
0079066045999992011010322204+47083+006783AUTO +1027LSGC V0209999V000519999999Y0099001N1-01201-01501999999ADDMA1101591999999REMMET052METAR LSGC 032220Z AUTO VRB01KT CAVOK M12/M15 Q1016;
0079066045999992011010322504+47083+006783AUTO +1027LSGC V0202501N001519999999Y0099001N1-01101-01401999999ADDMA1101591999999REMMET052METAR LSGC 032250Z AUTO 25003KT CAVOK M11/M14 Q1016;
0079066045999992011010323204+47083+006783AUTO +1027LSGC V0209999V000519999999Y0099001N1-01201-01401999999ADDMA1101591999999REMMET052METAR LSGC 032320Z AUTO VRB01KT CAVOK M12/M14 Q1016;
0079066045999992011010323504+47083+006783AUTO +1027LSGC V0209999C000019999999Y0099001N1-01101-01401999999ADDMA1101591999999REMMET052METAR LSGC 032350Z AUTO 00000KT CAVOK M11/M14 Q1016;
0079066045999992011010400204+47083+006783AUTO +1027LSGC V0209999V001019999999Y0099001N1-01101-01401999999ADDMA1101591999999REMMET052METAR LSGC 040020Z AUTO VRB02KT CAVOK M11/M14 Q1016;
0079066045999992011010400504+47083+006783AUTO +1027LSGC V0202401N001519999999Y0099001N1-01101-01301999999ADDMA1101591999999REMMET052METAR LSGC 040050Z AUTO 24003KT CAVOK M11/M13 Q1016;
0079066045999992011010401204+47083+006783AUTO +1027LSGC V0209999V000519999999Y0099001N1-01001-01201999999ADDMA1101491999999REMMET052METAR LSGC 040120Z AUTO VRB01KT CAVOK M10/M12 Q1015;
0079066045999992011010401504+47083+006783AUTO +1027LSGC V0209999C000019999999Y0099001N1-01101-01301999999ADDMA1101491999999REMMET052METAR LSGC 040150Z AUTO 00000KT CAVOK M11/M13 Q1015;
0127066045999992011010402204+47083+006783AUTO +1027LSGC V0202201N000510054019N0112651N1-01001-01201999999ADDGA1081+005401999GF108991999999999999999999MA1101491999999REMMET058METAR LSGC 040220Z AUTO 22001KT 9999 OVC018 M10/M12 Q1015;
0127066045999992011010402504+47083+006783AUTO +1027LSGC V0209999C000010054019N0112651N1-01001-01201999999ADDGA1071+005401999GF107991999999999999999999MA1101491999999REMMET058METAR LSGC 040250Z AUTO 00000KT 9999 BKN018 M10/M12 Q1015;
0143066045999992011010403204+47083+006783AUTO +1027LSGC V0209999V00051220001CN0112651N1-00901-01101999999ADDGA1071+004501999GA2041+006901999MA1101491999999REMMET065METAR LSGC 040320Z AUTO VRB01KT 9999 BKN015 SCT023 M09/M11 Q1015;EQDQ01+000042SCOTCV
0127066045999992011010403504+47083+006783AUTO +1027LSGC V0202401N001010048019N0112651N1-00801-01101999999ADDGA1081+004801999GF108991999999999999999999MA1101391999999REMMET058METAR LSGC 040350Z AUTO 24002KT 9999 OVC016 M08/M11 Q1014;
0127066045999992011010404204+47083+006783AUTO +1027LSGC V0202201N001010042019N0112651N1-00801-01001999999ADDGA1081+004201999GF108991999999999999999999MA1101391999999REMMET058METAR LSGC 040420Z AUTO 22002KT 9999 OVC014 M08/M10 Q1014;
0143066045999992011010404504+47083+006783AUTO +1027LSGC V0202501N00101220001CN0112651N1-00701-00901999999ADDGA1071+003601999GA2041+006901999MA1101391999999REMMET065METAR LSGC 040450Z AUTO 25002KT 9999 BKN012 SCT023 M07/M09 Q1014;EQDQ01+000042SCOTCV
0127066045999992011010405204+47083+006783AUTO +1027LSGC V0209999V000510042019N0112651N1-00701-01001999999ADDGA1081+004201999GF108991999999999999999999MA1101391999999REMMET058METAR LSGC 040520Z AUTO VRB01KT 9999 OVC014 M07/M10 Q1014;
0127066045999992011010405504+47083+006783AUTO +1027LSGC V0209999V000510042019N0112651N1-00701-01001999999ADDGA1081+004201999GF108991999999999999999999MA1101391999999REMMET058METAR LSGC 040550Z AUTO VRB01KT 9999 OVC014 M07/M10 Q1014;
0174066045999992011010406504+47083+006783FM-15+1027LSGC V0209999C000010042019N0070001N1-00701-00901999999ADDGA1071+004201999GA2071+009001999GA3081+042001999GF108991999999999999999999MA1101391999999REMMET073METAR LSGC 040650Z 00000KT 7000 BKN014 BKN030 OVC140 M07/M09 Q1014 NOSIG;
0151066045999992011010407204+47083+006783FM-15+1027LSGC V0202501N000510036019N0090001N1-00701-00901999999ADDGA1071+003601999GA2081+009001999GF108991999999999999999999MA1101391999999REMMET066METAR LSGC 040720Z 25001KT 9000 BKN012 OVC030 M07/M09 Q1014 NOSIG;
0151066045999992011010407504+47083+006783FM-15+1027LSGC V0202601N001010039019N0090001N1-00701-00901999999ADDGA1071+003901999GA2081+009001999GF108991999999999999999999MA1101391999999REMMET066METAR LSGC 040750Z 26002KT 9000 BKN013 OVC030 M07/M09 Q1014 NOSIG;
0151066045999992011010408204+47083+006783FM-15+1027LSGC V0202701N000510039019N0090001N1-00601-00901999999ADDGA1071+003901999GA2081+009001999GF108991999999999999999999MA1101391999999REMMET066METAR LSGC 040820Z 27001KT 9000 BKN013 OVC030 M06/M09 Q1014 NOSIG;
0151066045999992011010408504+47083+006783FM-15+1027LSGC V0202601N000510039019N0090001N1-00601-00901999999ADDGA1071+003901999GA2081+009001999GF108991999999999999999999MA1101391999999REMMET066METAR LSGC 040850Z 26001KT 9000 BKN013 OVC030 M06/M09 Q1014 NOSIG;
0151066045999992011010409204+47083+006783FM-15+1027LSGC V0209999V000510039019N0090001N1-00601-00901999999ADDGA1071+003901999GA2071+009001999GF107991999999999999999999MA1101391999999REMMET066METAR LSGC 040920Z VRB01KT 9000 BKN013 BKN030 M06/M09 Q1014 NOSIG;
0159066045999992011010409504+47083+006783FM-15+1027LSGC V0202101N001510039019N0090001N1-00601-00801999999ADDGA1071+003901999GA2071+009001999GF107991999999999999999999MA1101391999999REMMET074METAR LSGC 040950Z 21003KT 170V240 9000 BKN013 BKN030 M06/M08 Q1014 NOSIG;
0151066045999992011010410204+47083+006783FM-15+1027LSGC V0202001N002110090019N0090001N1-00501-00801999999ADDGA1021+003901999GA2071+009001999GF107991999999999999999999MA1101391999999REMMET066METAR LSGC 041020Z 20004KT 9000 FEW013 BKN030 M05/M08 Q1014 NOSIG;
0151066045999992011010410504+47083+006783FM-15+1027LSGC V0209999V000510090019N0090001N1-00501-00801999999ADDGA1021+003901999GA2071+009001999GF107991999999999999999999MA1101291999999REMMET066METAR LSGC 041050Z VRB01KT 9000 FEW013 BKN030 M05/M08 Q1013 NOSIG;
0151066045999992011010411204+47083+006783FM-15+1027LSGC V0209999V001010090019N0090001N1-00401-00801999999ADDGA1021+003901999GA2071+009001999GF107991999999999999999999MA1101291999999REMMET066METAR LSGC 041120Z VRB02KT 9000 FEW013 BKN030 M04/M08 Q1013 NOSIG;
0151066045999992011010411504+47083+006783FM-15+1027LSGC V0209999V001010105019N0090001N1-00401-00801999999ADDGA1021+003901999GA2071+010501999GF107991999999999999999999MA1101291999999REMMET066METAR LSGC 041150Z VRB02KT 9000 FEW013 BKN035 M04/M08 Q1013 NOSIG;
0128066045999992011010412204+47083+006783FM-15+1027LSGC V0209999V000510087019N0090001N1-00401-00801999999ADDGA1071+008701999GF107991999999999999999999MA1101291999999REMMET059METAR LSGC 041220Z VRB01KT 9000 BKN029 M04/M08 Q1013 NOSIG;
0128066045999992011010412504+47083+006783FM-15+1027LSGC V0209999V001012200019N0080001N1-00301-00801999999ADDGA1041+008701999GF104991999999999999999999MA1101191999999REMMET059METAR LSGC 041250Z VRB02KT 8000 SCT029 M03/M08 Q1012 NOSIG;
0151066045999992011010413204+47083+006783FM-15+1027LSGC V0202101N002110096019N0090001N1-00401-00801999999ADDGA1021+003001999GA2071+009601999GF107991999999999999999999MA1101191999999REMMET066METAR LSGC 041320Z 21004KT 9000 FEW010 BKN032 M04/M08 Q1012 NOSIG;
0159066045999992011010413504+47083+006783FM-15+1027LSGC V0202301N002610096019N0090001N1-00401-00801999999ADDGA1021+003001999GA2071+009601999GF107991999999999999999999MA1101191999999REMMET074METAR LSGC 041350Z 23005KT 200V260 9000 FEW010 BKN032 M04/M08 Q1012 NOSIG;
0151066045999992011010414204+47083+006783FM-15+1027LSGC V0202101N002110120019N0080001N1-00401-00801999999ADDGA1021+004501999GA2071+012001999GF107991999999999999999999MA1101191999999REMMET066METAR LSGC 041420Z 21004KT 8000 FEW015 BKN040 M04/M08 Q1012 NOSIG;
0151066045999992011010414504+47083+006783FM-15+1027LSGC V0202001N002110105019N0080001N1-00401-00801999999ADDGA1021+003601999GA2071+010501999GF107991999999999999999999MA1101191999999REMMET066METAR LSGC 041450Z 20004KT 8000 FEW012 BKN035 M04/M08 Q1012 NOSIG;
0151066045999992011010415204+47083+006783FM-15+1027LSGC V0202201N002110117019N0080001N1-00401-00801999999ADDGA1021+003601999GA2071+011701999GF107991999999999999999999MA1101191999999REMMET066METAR LSGC 041520Z 22004KT 8000 FEW012 BKN039 M04/M08 Q1012 NOSIG;
0151066045999992011010415504+47083+006783FM-15+1027LSGC V0202501N002110123019N0080001N1-00501-00801999999ADDGA1021+003001999GA2071+012301999GF107991999999999999999999MA1101191999999REMMET066METAR LSGC 041550Z 25004KT 8000 FEW010 BKN041 M05/M08 Q1012 NOSIG;
0151066045999992011010416204+47083+006783FM-15+1027LSGC V0202501N002110117019N0080001N1-00501-00801999999ADDGA1041+004501999GA2071+011701999GF107991999999999999999999MA1101191999999REMMET066METAR LSGC 041620Z 25004KT 8000 SCT015 BKN039 M05/M08 Q1012 NOSIG;
0150066045999992011010416504+47083+006783AUTO +1027LSGC V0202501N002110114019N0112651N1-00601-00801999999ADDGA1041+003301999GA2071+011401999GF107991999999999999999999MA1101191999999REMMET065METAR LSGC 041650Z AUTO 25004KT 9999 SCT011 BKN038 M06/M08 Q1012;
0135066045999992011010417204+47083+006783AUTO +1027LSGC V0202601N003110024019N0112651N1-00601-00801999999ADDGA1081+002401999GF108991999999999999999999MA1101291999999REMMET066METAR LSGC 041720Z AUTO 26006KT 220V300 9999 OVC008 M06/M08 Q1013;
0135066045999992011010417504+47083+006783AUTO +1027LSGC V0202601N002610021019N0112651N1-00601-00801999999ADDGA1081+002101999GF108991999999999999999999MA1101291999999REMMET066METAR LSGC 041750Z AUTO 26005KT 220V290 9999 OVC007 M06/M08 Q1013;
0127066045999992011010418204+47083+006783AUTO +1027LSGC V0202501N002110021019N0112651N1-00701-00801999999ADDGA1081+002101999GF108991999999999999999999MA1101291999999REMMET058METAR LSGC 041820Z AUTO 25004KT 9999 OVC007 M07/M08 Q1013;
0127066045999992011010418504+47083+006783AUTO +1027LSGC V0209999V001012200019N0112651N1-00701-00801999999ADDGA1041+001801999GF104991999999999999999999MA1101191999999REMMET058METAR LSGC 041850Z AUTO VRB02KT 9999 SCT006 M07/M08 Q1012;
0108066045999992011010419204+47083+006783AUTO +1027LSGC V0209999V001012200019N0090001N1-00801-00901999999ADDGF100991999999999999999999MA1101191999999REMMET055METAR LSGC 041920Z AUTO VRB02KT 9000 NSC M08/M09 Q1012;
0079066045999992011010419504+47083+006783AUTO +1027LSGC V0209999V001019999999Y0099001N1-00801-01001999999ADDMA1101191999999REMMET052METAR LSGC 041950Z AUTO VRB02KT CAVOK M08/M10 Q1012;
0087066045999992011010420204+47083+006783AUTO +1027LSGC V0202801N001519999999Y0099001N1-00801-01001999999ADDMA1101191999999REMMET060METAR LSGC 042020Z AUTO 28003KT 250V310 CAVOK M08/M10 Q1012;
0079066045999992011010420504+47083+006783AUTO +1027LSGC V0209999V001019999999Y0099001N1-00901-01101999999ADDMA1101191999999REMMET052METAR LSGC 042050Z AUTO VRB02KT CAVOK M09/M11 Q1012;
0079066045999992011010421204+47083+006783AUTO +1027LSGC V0209999V001019999999Y0099001N1-01001-01301999999ADDMA1101191999999REMMET052METAR LSGC 042120Z AUTO VRB02KT CAVOK M10/M13 Q1012;
0079066045999992011010421504+47083+006783AUTO +1027LSGC V0209999V001019999999Y0099001N1-00901-01101999999ADDMA1101191999999REMMET052METAR LSGC 042150Z AUTO VRB02KT CAVOK M09/M11 Q1012;
0079066045999992011010422204+47083+006783AUTO +1027LSGC V0209999V001019999999Y0099001N1-01001-01201999999ADDMA1101191999999REMMET052METAR LSGC 042220Z AUTO VRB02KT CAVOK M10/M12 Q1012;
0079066045999992011010422504+47083+006783AUTO +1027LSGC V0209999V001019999999Y0099001N1-00801-01101999999ADDMA1101191999999REMMET052METAR LSGC 042250Z AUTO VRB02KT CAVOK M08/M11 Q1012;
0079066045999992011010423204+47083+006783AUTO +1027LSGC V0202701N000519999999Y0099001N1-01101-01401999999ADDMA1101191999999REMMET052METAR LSGC 042320Z AUTO 27001KT CAVOK M11/M14 Q1012;
0127066045999992011010423504+47083+006783AUTO +1027LSGC V0209999V001010090019N0112651N1-01101-01401999999ADDGA1081+009001999GF108991999999999999999999MA1101191999999REMMET058METAR LSGC 042350Z AUTO VRB02KT 9999 OVC030 M11/M14 Q1012;
0127066045999992011010500204+47083+006783AUTO +1027LSGC V0209999V000510087019N0112651N1-01001-01201999999ADDGA1071+008701999GF107991999999999999999999MA1101191999999REMMET058METAR LSGC 050020Z AUTO VRB01KT 9999 BKN029 M10/M12 Q1012;
0127066045999992011010500504+47083+006783AUTO +1027LSGC V0209999V000510090019N0112651N1-00901-01101999999ADDGA1071+009001999GF107991999999999999999999MA1101191999999REMMET058METAR LSGC 050050Z AUTO VRB01KT 9999 BKN030 M09/M11 Q1012;
0127066045999992011010501204+47083+006783AUTO +1027LSGC V0209999V001010096019N0112651N1-00901-01201999999ADDGA1071+009601999GF107991999999999999999999MA1101081999999REMMET058METAR LSGC 050120Z AUTO VRB02KT 9999 BKN032 M09/M12 Q1011;
0127066045999992011010501504+47083+006783AUTO +1027LSGC V0209999C000010084019N0112651N1-00901-01201999999ADDGA1071+008401999GF107991999999999999999999MA1101081999999REMMET058METAR LSGC 050150Z AUTO 00000KT 9999 BKN028 M09/M12 Q1011;
0127066045999992011010502204+47083+006783AUTO +1027LSGC V0209999V000510075019N0112651N1-00801-01101999999ADDGA1071+007501999GF107991999999999999999999MA1101081999999REMMET058METAR LSGC 050220Z AUTO VRB01KT 9999 BKN025 M08/M11 Q1011;
0127066045999992011010502504+47083+006783AUTO +1027LSGC V0202501N001010063019N0112651N1-00701-01001999999ADDGA1081+006301999GF108991999999999999999999MA1101081999999REMMET058METAR LSGC 050250Z AUTO 25002KT 9999 OVC021 M07/M10 Q1011;
0127066045999992011010503204+47083+006783AUTO +1027LSGC V0209999V000510060019N0112651N1-00701-01001999999ADDGA1081+006001999GF108991999999999999999999MA1101081999999REMMET058METAR LSGC 050320Z AUTO VRB01KT 9999 OVC020 M07/M10 Q1011;
0127066045999992011010503504+47083+006783AUTO +1027LSGC V0209999C000010060019N0112651N1-00701-00901999999ADDGA1081+006001999GF108991999999999999999999MA1101081999999REMMET058METAR LSGC 050350Z AUTO 00000KT 9999 OVC020 M07/M09 Q1011;
0127066045999992011010504204+47083+006783AUTO +1027LSGC V0209999V000512200019N0112651N1-00801-01001999999ADDGA1021+006601999GF102991999999999999999999MA1101081999999REMMET058METAR LSGC 050420Z AUTO VRB01KT 9999 FEW022 M08/M10 Q1011;
0079066045999992011010504504+47083+006783AUTO +1027LSGC V0209999V000519999999Y0099001N1-00701-00901999999ADDMA1101081999999REMMET052METAR LSGC 050450Z AUTO VRB01KT CAVOK M07/M09 Q1011;
0079066045999992011010505204+47083+006783AUTO +1027LSGC V0209999V000519999999Y0099001N1-00801-01001999999ADDMA1101081999999REMMET052METAR LSGC 050520Z AUTO VRB01KT CAVOK M08/M10 Q1011;
0079066045999992011010505504+47083+006783AUTO +1027LSGC V0209999V001019999999Y0099001N1-00701-00901999999ADDMA1101021999999REMMET052METAR LSGC 050550Z AUTO VRB02KT CAVOK M07/M09 Q1010;
0079066045999992011010506204+47083+006783AUTO +1027LSGC V0209999V001019999999Y0099001N1-00601-00801999999ADDMA1101021999999REMMET052METAR LSGC 050620Z AUTO VRB02KT CAVOK M06/M08 Q1010;
0088066045999992011010506504+47083+006783FM-15+1027LSGC V0202101N003619999999Y0099001N1-00401-00601999999ADDMA1101021999999REMMET061METAR LSGC 050650Z 21007KT 170V250 CAVOK M04/M06 Q1010 NOSIG;
0080066045999992011010507204+47083+006783FM-15+1027LSGC V0209999V001019999999Y0099001N1-00501-00801999999ADDMA1101021999999REMMET053METAR LSGC 050720Z VRB02KT CAVOK M05/M08 Q1010 NOSIG;
0080066045999992011010507504+47083+006783FM-15+1027LSGC V0209999V001019999999Y0099001N1-00501-00801999999ADDMA1101021999999REMMET053METAR LSGC 050750Z VRB02KT CAVOK M05/M08 Q1010 NOSIG;
0080066045999992011010508204+47083+006783FM-15+1027LSGC V0209999V001019999999Y0099001N1-00401-00701999999ADDMA1101021999999REMMET053METAR LSGC 050820Z VRB02KT CAVOK M04/M07 Q1010 NOSIG;
0088066045999992011010508504+47083+006783FM-15+1027LSGC V0202401N001519999999Y0099001N1-00201-00701999999ADDMA1101021999999REMMET061METAR LSGC 050850Z 24003KT 180V280 CAVOK M02/M07 Q1010 NOSIG;
0080066045999992011010509204+47083+006783FM-15+1027LSGC V0209999V001019999999Y0099001N1-00101-00701999999ADDMA1101021999999REMMET053METAR LSGC 050920Z VRB02KT CAVOK M01/M07 Q1010 NOSIG;
0080066045999992011010509504+47083+006783FM-15+1027LSGC V0209999V001519999999Y0099001N1+00001-00701999999ADDMA1101021999999REMMET053METAR LSGC 050950Z VRB03KT CAVOK M00/M07 Q1010 NOSIG;
0087066045999992011010510204+47083+006783FM-15+1027LSGC V0202001N004119999999Y0099001N1+00101-00701999999ADDMA1101021999999REMMET060METAR LSGC 051020Z 20008KT 160V240 CAVOK 01/M07 Q1010 NOSIG;
0087066045999992011010510504+47083+006783FM-15+1027LSGC V0202301N003119999999Y0099001N1+00201-00701999999ADDMA1101021999999REMMET060METAR LSGC 051050Z 23006KT 170V270 CAVOK 02/M07 Q1010 NOSIG;
0087066045999992011010511204+47083+006783FM-15+1027LSGC V0202401N003619999999Y0099001N1+00201-00601999999ADDMA1101021999999REMMET060METAR LSGC 051120Z 24007KT 200V270 CAVOK 02/M06 Q1010 NOSIG;
0087066045999992011010511504+47083+006783FM-15+1027LSGC V0202301N004619999999Y0099001N1+00301-00501999999ADDMA1100911999999REMMET060METAR LSGC 051150Z 23009KT 190V270 CAVOK 03/M05 Q1009 NOSIG;
0087066045999992011010512204+47083+006783FM-15+1027LSGC V0202201N003619999999Y0099001N1+00301-00501999999ADDMA1100911999999REMMET060METAR LSGC 051220Z 22007KT 190V260 CAVOK 03/M05 Q1009 NOSIG;
0086066045999992011010512504+47083+006783AUTO +1027LSGC V0202101N003119999999Y0099001N1+00401-00501999999ADDMA1100911999999REMMET059METAR LSGC 051250Z AUTO 21006KT 170V260 CAVOK 04/M05 Q1009;
0087066045999992011010513204+47083+006783FM-15+1027LSGC V0202201N003619999999Y0099001N1+00401-00501999999ADDMA1100911999999REMMET060METAR LSGC 051320Z 22007KT 180V270 CAVOK 04/M05 Q1009 NOSIG;
0079066045999992011010513504+47083+006783FM-15+1027LSGC V0202101N003619999999Y0099001N1+00401-00501999999ADDMA1100811999999REMMET052METAR LSGC 051350Z 21007KT CAVOK 04/M05 Q1008 NOSIG;
0094066045999992011010514204+47083+006783FM-15+1027LSGC V0202201N006719999999Y0099001N1+00301-00301999999ADDMA1100911999999REMMET067METAR LSGC 051420Z 22013KT 190V250 CAVOK 03/M03 Q1009 WS R24 NOSIG;
0086066045999992011010514504+47083+006783AUTO +1027LSGC V0202201N005119999999Y0099001N1+00201-00201999999ADDMA1100811999999REMMET059METAR LSGC 051450Z AUTO 22010KT 190V260 CAVOK 02/M02 Q1008;
0142066045999992011010515204+47083+006783FM-15+1027LSGC V0202301N004110120019N0112651N1+00201-00201999999ADDGA1071+012001999GF107991999999999999999999MA1100911999999REMMET073METAR LSGC 051520Z 23008KT 190V260 9999 BKN040 02/M02 Q1009 WS R24 NOSIG;
0157066045999992011010515504+47083+006783FM-15+1027LSGC V0202301N002110120019N0112651N1+00201-00201999999ADDGA1041+006001999GA2071+012001999GF107991999999999999999999MA1100911999999REMMET072METAR LSGC 051550Z 23004KT 9999 SCT020 BKN040 02/M02 Q1009 WS R24 NOSIG;
0086066045999992011010516204+47083+006783AUTO +1027LSGC V0202501N002119999999Y0099001N1+00201-00101999999ADDMA1100811999999REMMET059METAR LSGC 051620Z AUTO 25004KT 210V300 CAVOK 02/M01 Q1008;
0086066045999992011010516504+47083+006783AUTO +1027LSGC V0202101N005119999999Y0099001N1+00201-00101999999ADDMA1100811999999REMMET059METAR LSGC 051650Z AUTO 21010KT 180V250 CAVOK 02/M01 Q1008;
0149066045999992011010517204+47083+006783AUTO +1027LSGC V0202301N004110129019N0112651N1+00101-00201999999ADDGA1021+011401999GA2071+012901999GF107991999999999999999999MA1100811999999REMMET064METAR LSGC 051720Z AUTO 23008KT 9999 FEW038 BKN043 01/M02 Q1008;
0086066045999992011010517504+47083+006783AUTO +1027LSGC V0202301N003119999999Y0099001N1+00101-00201999999ADDMA1100911999999REMMET059METAR LSGC 051750Z AUTO 23006KT 200V260 CAVOK 01/M02 Q1009;
0078066045999992011010518204+47083+006783AUTO +1027LSGC V0202301N003119999999Y0099001N1+00101-00201999999ADDMA1100811999999REMMET051METAR LSGC 051820Z AUTO 23006KT CAVOK 01/M02 Q1008;
0078066045999992011010518504+47083+006783AUTO +1027LSGC V0202301N002619999999Y0099001N1+00001-00201999999ADDMA1100811999999REMMET051METAR LSGC 051850Z AUTO 23005KT CAVOK 00/M02 Q1008;
0078066045999992011010519204+47083+006783AUTO +1027LSGC V0202401N003119999999Y0099001N1+00101-00201999999ADDMA1100811999999REMMET051METAR LSGC 051920Z AUTO 24006KT CAVOK 01/M02 Q1008;
0086066045999992011010519504+47083+006783AUTO +1027LSGC V0202401N003119999999Y0099001N1+00101-00201999999ADDMA1100811999999REMMET059METAR LSGC 051950Z AUTO 24006KT 200V260 CAVOK 01/M02 Q1008;
0086066045999992011010520204+47083+006783AUTO +1027LSGC V0202401N003119999999Y0099001N1+00101-00301999999ADDMA1100711999999REMMET059METAR LSGC 052020Z AUTO 24006KT 210V280 CAVOK 01/M03 Q1007;
0086066045999992011010520504+47083+006783AUTO +1027LSGC V0202501N002119999999Y0099001N1+00201-00201999999ADDMA1100711999999REMMET059METAR LSGC 052050Z AUTO 25004KT 200V280 CAVOK 02/M02 Q1007;
0086066045999992011010521204+47083+006783AUTO +1027LSGC V0202501N003619999999Y0099001N1+00301-00201999999ADDMA1100711999999REMMET059METAR LSGC 052120Z AUTO 25007KT 200V290 CAVOK 03/M02 Q1007;
0097066045999992011010521504+47083+006783AUTO +1027LSGC V0202301N006219999999Y0099001N1+00401-00201999999ADDMA1100711999999OC101131REMMET062METAR LSGC 052150Z AUTO 23012G22KT 190V270 CAVOK 04/M02 Q1007;
0086066045999992011010522204+47083+006783AUTO +1027LSGC V0202201N006219999999Y0099001N1+00401-00201999999ADDMA1100711999999REMMET059METAR LSGC 052220Z AUTO 22012KT 180V270 CAVOK 04/M02 Q1007;
0086066045999992011010522504+47083+006783AUTO +1027LSGC V0202301N005719999999Y0099001N1+00401-00301999999ADDMA1100711999999REMMET059METAR LSGC 052250Z AUTO 23011KT 180V280 CAVOK 04/M03 Q1007;
0157066045999992011010523204+47083+006783AUTO +1027LSGC V0202201N006210270019N0112651N1+00401-00301999999ADDGA1021+013501999GA2081+027001999GF108991999999999999999999MA1100711999999REMMET072METAR LSGC 052320Z AUTO 22012KT 170V260 9999 FEW045 OVC090 04/M03 Q1007;
0086066045999992011010523504+47083+006783AUTO +1027LSGC V0202401N005719999999Y0099001N1+00401-00301999999ADDMA1100611999999REMMET059METAR LSGC 052350Z AUTO 24011KT 200V260 CAVOK 04/M03 Q1006;
0180066045999992011010600204+47083+006783AUTO +1027LSGC V0202201N008210138019N0112651N1+00401-00201999999ADDGA1071+013801999GA2041+027001999GA3071+033001999GF107991999999999999999999MA1100611999999REMMET079METAR LSGC 060020Z AUTO 22016KT 180V260 9999 BKN046 SCT090 BKN110 04/M02 Q1006;
0168066045999992011010600504+47083+006783AUTO +1027LSGC V0202201N006210105019N0112651N1+00401-00201999999ADDGA1071+010501999GA2081+014101999GF108991999999999999999999MA1100611999999OC101341REMMET075METAR LSGC 060050Z AUTO 22012G26KT 190V260 9999 BKN035 OVC047 04/M02 Q1006;
0144066045999992011010601204+47083+006783AUTO +1027LSGC V0202201N006210123019N0112651N1+00401-00101999999ADDAW1511GA1071+012301999GF107991999999999999999999MA1100611999999REMMET069METAR LSGC 060120Z AUTO 22012KT 180V270 9999 -DZ BKN041 04/M01 Q1006;
0166066045999992011010601504+47083+006783AUTO +1027LSGC V0202201N004110087019N0112651N1+00401+00001999999ADDAW1511GA1041+007201999GA2071+008701999GF107991999999999999999999MA1100611999999REMMET075METAR LSGC 060150Z AUTO 22008KT 180V260 9999 -DZ SCT024 BKN029 04/00 Q1006;
0143066045999992011010602204+47083+006783AUTO +1027LSGC V0202201N004610057019N0112651N1+00301+00101999999ADDAW1611GA1071+005701999GF107991999999999999999999MA1100611999999REMMET068METAR LSGC 060220Z AUTO 22009KT 180V270 9999 -RA BKN019 03/01 Q1006;
0159066045999992011010602504+47083+006783AUTO +1027LSGC V0202201N00511004501CN0112651N1+00301+00101999999ADDAW1611GA1071+004501999GA2041+006001999MA1100611999999REMMET075METAR LSGC 060250Z AUTO 22010KT 190V270 9999 -RA BKN015 SCT020 03/01 Q1006;EQDQ01+000042SCOTCV
0171066045999992011010603204+47083+006783AUTO +1027LSGC V0202201N005710048019N0112651N1+00301+00101999999ADDAW1611GA1071+004801999GA2071+006301999GF107991999999999999999999MA1100611999999REMMET080METAR LSGC 060320Z AUTO 22011KT 190V260 9999 -RA BKN016 BKN021 03/01 Q1006 REDZ;
0143066045999992011010603504+47083+006783AUTO +1027LSGC V0202301N003110036019N0112651N1+00301+00101999999ADDAW1611GA1071+003601999GF107991999999999999999999MA1100611999999REMMET068METAR LSGC 060350Z AUTO 23006KT 190V270 9999 -RA BKN012 03/01 Q1006;
0166066045999992011010604204+47083+006783AUTO +1027LSGC V0202301N003110042019N0112651N1+00301+00101999999ADDAW1611GA1071+004201999GA2071+005701999GF107991999999999999999999MA1100611999999REMMET075METAR LSGC 060420Z AUTO 23006KT 190V280 9999 -RA BKN014 BKN019 03/01 Q1006;
0156066045999992011010604504+47083+006783AUTO +1027LSGC V0202401N002110045019N0112651N1+00301+00101999999ADDGA1071+004501999GA2071+008701999GF107991999999999999999999MA1100611999999REMMET071METAR LSGC 060450Z AUTO 24004KT 160V310 9999 BKN015 BKN029 03/01 Q1006;
0158066045999992011010605204+47083+006783AUTO +1027LSGC V0209999V001010084019N0112651N1+00401+00201999999ADDAW1611GA1041+004501999GA2081+008401999GF108991999999999999999999MA1100611999999REMMET067METAR LSGC 060520Z AUTO VRB02KT 9999 -RA SCT015 OVC028 04/02 Q1006;
0158066045999992011010605504+47083+006783AUTO +1027LSGC V0209999V001510051019N0112651N1+00401+00201999999ADDAW1511GA1071+005101999GA2071+006601999GF107991999999999999999999MA1100611999999REMMET067METAR LSGC 060550Z AUTO VRB03KT 9999 -DZ BKN017 BKN022 04/02 Q1006;
0149066045999992011010606204+47083+006783AUTO +1027LSGC V0202001N00311004801CN0112651N1+00401+00201999999ADDGA1071+004801999GA2041+006301999MA1100611999999REMMET071METAR LSGC 060620Z AUTO 20006KT 160V230 9999 BKN016 SCT021 04/02 Q1006;EQDQ01+000042SCOTCV
0134066045999992011010606504+47083+006783FM-15+1027LSGC V0202201N003110060019N0112651N1+00401+00101999999ADDGA1071+006001999GF107991999999999999999999MA1100611999999REMMET065METAR LSGC 060650Z 22006KT 180V270 9999 BKN020 04/01 Q1006 NOSIG;
0166066045999992011010607204+47083+006783FM-15+1027LSGC V0202301N003110072019N0112651N1+00301+00101999999ADDGA1071+007201999GA2071+015001999GF107991999999999999999999MA1100611999999MW1531REMMET075METAR LSGC 060720Z 23006KT 200V260 9999 DZ BKN024 BKN050 03/01 Q1006 NOSIG;
0167066045999992011010607504+47083+006783FM-15+1027LSGC V0202401N005710060019N0080001N1+00401+00201999999ADDGA1071+006001999GA2071+013501999GF107991999999999999999999MA1100711999999MW1611REMMET076METAR LSGC 060750Z 24011KT 210V270 8000 -RA BKN020 BKN045 04/02 Q1007 NOSIG;
0197066045999992011010608204+47083+006783FM-15+1027LSGC V0202201N005710120019N0080001N1+00301+00101999999ADDGA1041+004501999GA2071+012001999GA3071+018001999GF107991999999999999999999MA1100711999999MW1611REMMET090METAR LSGC 060820Z 22011KT 190V260 8000 -RA SCT015 BKN040 BKN060 03/01 Q1007 WS R24 NOSIG;
0177066045999992011010608504+47083+006783AUTO +1027LSGC V0202301N005710111019N0112651N1+00301+00101999999ADDAW1611GA1021+003901999GA2071+011101999GF107991999999999999999999MA1100711999999OC101081REMMET078METAR LSGC 060850Z AUTO 23011G21KT 190V260 9999 -RA FEW013 BKN037 03/01 Q1007;
0174066045999992011010609204+47083+006783FM-15+1027LSGC V0202201N005110135019N0070001N1+00401+00201999999ADDGA1041+004501999GA2071+013501999GF107991999999999999999999MA1100711999999MW1611REMMET083METAR LSGC 060920Z 22010KT 190V260 7000 -RA SCT015 BKN045 04/02 Q1007 WS R24 NOSIG;
0208066045999992011010609504+47083+006783FM-15+1027LSGC V0202201N007710090019N0070001N1+00401+00201999999ADDGA1041+005401999GA2071+009001999GA3071+013501999GF107991999999999999999999MA1100711999999MW1611OC101391REMMET093METAR LSGC 060950Z 22015G27KT 180V260 7000 -RA SCT018 BKN030 BKN045 04/02 Q1007 WS R24 NOSIG;
0187066045999992011010610204+47083+006783FM-15+1027LSGC V0202201N003610075019N0090001N1+00401+00201999999ADDGA1041+005401999GA2071+007501999GA3071+013501999GF107991999999999999999999MA1100711999999REMMET086METAR LSGC 061020Z 22007KT 180V250 9000 SCT018 BKN025 BKN045 04/02 Q1007 WS R24 NOSIG;
0187066045999992011010610504+47083+006783FM-15+1027LSGC V0202201N002610075019N0112651N1+00501+00201999999ADDGA1041+005401999GA2071+007501999GA3071+013501999GF107991999999999999999999MA1100711999999REMMET086METAR LSGC 061050Z 22005KT 190V270 9999 SCT018 BKN025 BKN045 05/02 Q1007 WS R24 NOSIG;
0187066045999992011010611204+47083+006783FM-15+1027LSGC V0202201N002610075019N0112651N1+00601+00301999999ADDGA1041+005401999GA2071+007501999GA3071+013501999GF107991999999999999999999MA1100711999999REMMET086METAR LSGC 061120Z 22005KT 160V270 9999 SCT018 BKN025 BKN045 06/03 Q1007 WS R24 NOSIG;
0187066045999992011010611504+47083+006783FM-15+1027LSGC V0202101N004110075019N0112651N1+00601+00301999999ADDGA1041+005401999GA2071+007501999GA3071+013501999GF107991999999999999999999MA1100611999999REMMET086METAR LSGC 061150Z 21008KT 170V270 9999 SCT018 BKN025 BKN045 06/03 Q1006 WS R24 NOSIG;
0166066045999992011010612204+47083+006783AUTO +1027LSGC V0202101N004610060019N0112651N1+00601+00301999999ADDAW1511GA1071+006001999GA2071+007501999GF107991999999999999999999MA1100611999999REMMET075METAR LSGC 061220Z AUTO 21009KT 160V250 9999 -DZ BKN020 BKN025 06/03 Q1006;
0196066045999992011010612504+47083+006783FM-15+1027LSGC V0202201N005710075019N0112651N1+00601+00301999999ADDGA1041+006001999GA2071+007501999GA3071+010501999GF107991999999999999999999MA1100611999999MW1631REMMET089METAR LSGC 061250Z 22011KT 190V260 9999 RA SCT020 BKN025 BKN035 06/03 Q1006 WS R24 NOSIG;
0196066045999992011010613204+47083+006783FM-15+1027LSGC V0202201N004110075019N0070001N1+00501+00301999999ADDGA1041+006001999GA2071+007501999GA3071+012001999GF107991999999999999999999MA1100611999999MW1631REMMET089METAR LSGC 061320Z 22008KT 160V280 7000 RA SCT020 BKN025 BKN040 05/03 Q1006 WS R24 NOSIG;
0173066045999992011010613504+47083+006783FM-15+1027LSGC V0202201N004610060019N0070001N1+00501+00301999999ADDGA1071+006001999GA2071+012001999GF107991999999999999999999MA1100611999999MW1631REMMET082METAR LSGC 061350Z 22009KT 190V260 7000 RA BKN020 BKN040 05/03 Q1006 WS R24 NOSIG;
0173066045999992011010614204+47083+006783FM-15+1027LSGC V0202201N004610063019N0070001N1+00501+00301999999ADDGA1071+006301999GA2071+012601999GF107991999999999999999999MA1100611999999MW1631REMMET082METAR LSGC 061420Z 22009KT 170V250 7000 RA BKN021 BKN042 05/03 Q1006 WS R24 NOSIG;
0174066045999992011010614504+47083+006783FM-15+1027LSGC V0202201N005710060019N0080001N1+00601+00301999999ADDGA1071+006001999GA2081+012001999GF108991999999999999999999MA1100611999999MW1611REMMET083METAR LSGC 061450Z 22011KT 190V260 8000 -RA BKN020 OVC040 06/03 Q1006 WS R24 NOSIG;
0166066045999992011010615204+47083+006783AUTO +1027LSGC V0202201N004610075019N0112651N1+00601+00301999999ADDAW1611GA1071+007501999GA2071+009301999GF107991999999999999999999MA1100711999999REMMET075METAR LSGC 061520Z AUTO 22009KT 170V260 9999 -RA BKN025 BKN031 06/03 Q1007;
0189066045999992011010615504+47083+006783AUTO +1027LSGC V0202201N004610057019N0112651N1+00501+00401999999ADDAW1611GA1071+005701999GA2071+007201999GA3071+008701999GF107991999999999999999999MA1100711999999REMMET082METAR LSGC 061550Z AUTO 22009KT 180V270 9999 -RA BKN019 BKN024 BKN029 05/04 Q1007;
0174066045999992011010616204+47083+006783FM-15+1027LSGC V0202301N004110045019N0080001N1+00501+00401999999ADDGA1071+004501999GA2081+009001999GF108991999999999999999999MA1100711999999MW1611REMMET083METAR LSGC 061620Z 23008KT 200V270 8000 -RA BKN015 OVC030 05/04 Q1007 WS R24 NOSIG;
0156066045999992011010616504+47083+006783AUTO +1027LSGC V0202601N002610084019N0112651N1+00501+00401999999ADDGA1041+006001999GA2081+008401999GF108991999999999999999999MA1100711999999REMMET071METAR LSGC 061650Z AUTO 26005KT 210V300 9999 SCT020 OVC028 05/04 Q1007;
0166066045999992011010617204+47083+006783AUTO +1027LSGC V0202601N001510063019N0112651N1+00501+00401999999ADDAW1611GA1071+006301999GA2071+009301999GF107991999999999999999999MA1100711999999REMMET075METAR LSGC 061720Z AUTO 26003KT 220V310 9999 -RA BKN021 BKN031 05/04 Q1007;
0156066045999992011010617504+47083+006783AUTO +1027LSGC V0202401N003110099019N0112651N1+00601+00401999999ADDGA1021+007501999GA2081+009901999GF108991999999999999999999MA1100711999999REMMET071METAR LSGC 061750Z AUTO 24006KT 190V310 9999 FEW025 OVC033 06/04 Q1007;
0166066045999992011010618204+47083+006783AUTO +1027LSGC V0202401N003110057019N0112651N1+00501+00401999999ADDAW1611GA1071+005701999GA2071+007201999GF107991999999999999999999MA1100811999999REMMET075METAR LSGC 061820Z AUTO 24006KT 200V280 9999 -RA BKN019 BKN024 05/04 Q1008;
0166066045999992011010618504+47083+006783AUTO +1027LSGC V0202501N002610078019N0112651N1+00601+00401999999ADDAW1611GA1041+004801999GA2071+007801999GF107991999999999999999999MA1100811999999REMMET075METAR LSGC 061850Z AUTO 25005KT 190V290 9999 -RA SCT016 BKN026 06/04 Q1008;
0174066045999992011010619204+47083+006783FM-15+1027LSGC V0202701N002610045019N0080001N1+00601+00401999999ADDGA1071+004501999GA2081+009001999GF108991999999999999999999MA1100811999999MW1611REMMET083METAR LSGC 061920Z 27005KT 230V300 8000 -RA BKN015 OVC030 06/04 Q1008 WS R24 NOSIG;
0166066045999992011010619504+47083+006783AUTO +1027LSGC V0202501N002110054019N0112651N1+00501+00401999999ADDAW1611GA1071+005401999GA2071+008401999GF107991999999999999999999MA1100811999999REMMET075METAR LSGC 061950Z AUTO 25004KT 210V290 9999 -RA BKN018 BKN028 05/04 Q1008;
0166066045999992011010620204+47083+006783AUTO +1027LSGC V0202401N003110051019N0112651N1+00501+00401999999ADDAW1611GA1071+005101999GA2071+007501999GF107991999999999999999999MA1100911999999REMMET075METAR LSGC 062020Z AUTO 24006KT 200V280 9999 -RA BKN017 BKN025 05/04 Q1009;
0140066045999992011010620504+47083+006783AUTO +1027LSGC V0202501N00311003301CN0112651N1+00501+00401999999ADDAW1611GA1071+003301999GA2041+004801999MA1100911999999REMMET075METAR LSGC 062050Z AUTO 25006KT 210V290 9999 -RA BKN011 SCT016 05/04 Q1009;
0135066045999992011010621204+47083+006783AUTO +1027LSGC V0202501N003110036019N0112651N1+00501+00401999999ADDAW1611GA1081+003601999GF108991999999999999999999MA1100911999999REMMET060METAR LSGC 062120Z AUTO 25006KT 9999 -RA OVC012 05/04 Q1009;
0179066045999992011010621504+47083+006783AUTO +1027LSGC V0202301N003110042019N0112651N1+00601+00501999999ADDGA1071+004201999GA2041+005701999GA3071+009001999GF107991999999999999999999MA1100911999999REMMET078METAR LSGC 062150Z AUTO 23006KT 200V270 9999 BKN014 SCT019 BKN030 06/05 Q1009;
0130066045999992011010622204+47083+006783AUTO +1027LSGC V0202501N00311005101CN0112651N1+00601+00401999999ADDGA1071+005101999GA2041+008701999MA1101021999999REMMET071METAR LSGC 062220Z AUTO 25006KT 200V270 9999 BKN017 SCT029 06/04 Q1010;
0133066045999992011010622504+47083+006783AUTO +1027LSGC V0202501N002610051019N0112651N1+00501+00401999999ADDGA1081+005101999GF108991999999999999999999MA1101021999999REMMET064METAR LSGC 062250Z AUTO 25005KT 230V290 9999 OVC017 05/04 Q1010;
0140066045999992011010623204+47083+006783AUTO +1027LSGC V0202401N00261004501CN0112651N1+00601+00501999999ADDAW1511GA1071+004501999GA2041+006001999MA1101021999999REMMET075METAR LSGC 062320Z AUTO 24005KT 210V280 9999 -DZ BKN015 SCT020 06/05 Q1010;
0130066045999992011010623504+47083+006783AUTO +1027LSGC V0202401N00361004501CN0112651N1+00601+00501999999ADDGA1071+004501999GA2041+006601999MA1101021999999REMMET071METAR LSGC 062350Z AUTO 24007KT 190V270 9999 BKN015 SCT022 06/05 Q1010;
0125066045999992011010700204+47083+006783AUTO +1027LSGC V0202401N003610045019N0112651N1+00601+00401999999ADDGA1071+004501999GF107991999999999999999999MA1101021999999REMMET056METAR LSGC 070020Z AUTO 24007KT 9999 BKN015 06/04 Q1010;
0133066045999992011010700504+47083+006783AUTO +1027LSGC V0202401N003610039019N0112651N1+00601+00501999999ADDGA1081+003901999GF108991999999999999999999MA1101021999999REMMET064METAR LSGC 070050Z AUTO 24007KT 180V280 9999 OVC013 06/05 Q1010;
0159066045999992011010701204+47083+006783AUTO +1027LSGC V0202401N00211004201CN0112651N1+00601+00501999999ADDAW1611GA1071+004201999GA2041+005701999MA1101081999999REMMET075METAR LSGC 070120Z AUTO 24004KT 200V280 9999 -RA BKN014 SCT019 06/05 Q1011;EQDQ01+000042SCOTCV
0171066045999992011010701504+47083+006783AUTO +1027LSGC V0202801N002110060019N0112651N1+00701+00501999999ADDAW1611GA1041+004501999GA2071+006001999GF107991999999999999999999MA1101081999999REMMET080METAR LSGC 070150Z AUTO 28004KT 250V310 9999 -RA SCT015 BKN020 07/05 Q1011 REDZ;
0150066045999992011010702204+47083+006783AUTO +1027LSGC V0202401N00051003901CN0112651N1+00501+00401999999ADDAW1621GA1071+003901999GA2041+005401999MA1101081999999REMMET066METAR LSGC 070220Z AUTO 24001KT 9999 RA BKN013 SCT018 05/04 Q1011;EQDQ01+000042SCOTCV
0181066045999992011010702504+47083+006783AUTO +1027LSGC V0209999V00151005701CN0112651N1+00501+00401999999ADDAW1611GA1041+004201999GA2041+005701999GA3071+008701999GF107991999999999999999999MA1101081999999REMMET074METAR LSGC 070250Z AUTO VRB03KT 9999 -RA SCT014 SCT019 BKN029 05/04 Q1011;
0181066045999992011010703204+47083+006783AUTO +1027LSGC V0209999V00051006001CN0112651N1+00501+00501999999ADDAW1611GA1041+004501999GA2041+006001999GA3081+007501999GF108991999999999999999999MA1101081999999REMMET074METAR LSGC 070320Z AUTO VRB01KT 9999 -RA SCT015 SCT020 OVC025 05/05 Q1011;
0181066045999992011010703504+47083+006783AUTO +1027LSGC V0209999V00151005701CN0090001N1+00601+00501999999ADDAW1611GA1041+004201999GA2041+005701999GA3071+007201999GF107991999999999999999999MA1101081999999REMMET074METAR LSGC 070350Z AUTO VRB03KT 9000 -RA SCT014 SCT019 BKN024 06/05 Q1011;
0158066045999992011010704204+47083+006783AUTO +1027LSGC V0209999V001010057019N0090001N1+00601+00601999999ADDAW1611GA1041+003601999GA2081+005701999GF108991999999999999999999MA1101081999999REMMET067METAR LSGC 070420Z AUTO VRB02KT 9000 -RA SCT012 OVC019 06/06 Q1011;
0150066045999992011010704504+47083+006783AUTO +1027LSGC V0202601N00211004201CN0070001N1+00601+00501999999ADDAW1621GA1071+004201999GA2041+005701999MA1101081999999REMMET066METAR LSGC 070450Z AUTO 26004KT 7000 RA BKN014 SCT019 06/05 Q1011;EQDQ01+000042SCOTCV
0180066045999992011010705204+47083+006783AUTO +1027LSGC V0209999V00051006901CN0060001N1+00501+00401999999ADDAW1621GA1021+003301999GA2041+006901999GA3071+009301999GF107991999999999999999999MA1101081999999REMMET073METAR LSGC 070520Z AUTO VRB01KT 6000 RA FEW011 SCT023 BKN031 05/04 Q1011;
0158066045999992011010705504+47083+006783AUTO +1027LSGC V0209999C000010126019N0032001N1+00401+00401999999ADDAW1611GA1021+003301999GA2081+012601999GF108991999999999999999999MA1101081999999REMMET067METAR LSGC 070550Z AUTO 00000KT 3200 -RA FEW011 OVC042 04/04 Q1011;
0157066045999992011010706204+47083+006783AUTO +1027LSGC V0209999V000510210019N0112651N1+00501+00401999999ADDAW1101GA1041+014101999GA2071+021001999GF107991999999999999999999MA1101081999999REMMET066METAR LSGC 070620Z AUTO VRB01KT 9999 BR SCT047 BKN070 05/04 Q1011;
0086066045999992011010707204+47083+006783FM-15+1027LSGC V0202501N002119999999Y0099001N1+00701+00501999999ADDMA1101081999999REMMET059METAR LSGC 070720Z 25004KT 210V330 CAVOK 07/05 Q1011 NOSIG;
0086066045999992011010707504+47083+006783FM-15+1027LSGC V0202501N004619999999Y0099001N1+00701+00401999999ADDMA1101081999999REMMET059METAR LSGC 070750Z 25009KT 220V310 CAVOK 07/04 Q1011 NOSIG;
0086066045999992011010708204+47083+006783FM-15+1027LSGC V0202301N004119999999Y0099001N1+00801+00501999999ADDMA1101081999999REMMET059METAR LSGC 070820Z 23008KT 190V270 CAVOK 08/05 Q1011 NOSIG;
0093066045999992011010708504+47083+006783FM-15+1027LSGC V0202201N005719999999Y0099001N1+00901+00501999999ADDMA1101081999999REMMET066METAR LSGC 070850Z 22011KT 160V270 CAVOK 09/05 Q1011 WS R24 NOSIG;
0104066045999992011010709204+47083+006783FM-15+1027LSGC V0202201N006219999999Y0099001N1+00901+00501999999ADDMA1101081999999OC101231REMMET069METAR LSGC 070920Z 22012G24KT 180V260 CAVOK 09/05 Q1011 WS R24 NOSIG;
0104066045999992011010709504+47083+006783FM-15+1027LSGC V0202301N007219999999Y0099001N1+01001+00501999999ADDMA1101081999999OC101291REMMET069METAR LSGC 070950Z 23014G25KT 190V270 CAVOK 10/05 Q1011 WS R24 NOSIG;
0104066045999992011010710204+47083+006783FM-15+1027LSGC V0202201N007719999999Y0099001N1+01001+00501999999ADDMA1101081999999OC101391REMMET069METAR LSGC 071020Z 22015G27KT 180V280 CAVOK 10/05 Q1011 WS R24 NOSIG;
0104066045999992011010710504+47083+006783FM-15+1027LSGC V0202201N008719999999Y0099001N1+01101+00501999999ADDMA1101081999999OC101541REMMET069METAR LSGC 071050Z 22017G30KT 170V260 CAVOK 11/05 Q1011 WS R24 NOSIG;
0104066045999992011010711204+47083+006783FM-15+1027LSGC V0202201N008219999999Y0099001N1+01101+00501999999ADDMA1101081999999OC101541REMMET069METAR LSGC 071120Z 22016G30KT 180V260 CAVOK 11/05 Q1011 WS R24 NOSIG;
0104066045999992011010711504+47083+006783FM-15+1027LSGC V0202101N011819999999Y0099001N1+01101+00501999999ADDMA1101081999999OC102061REMMET069METAR LSGC 071150Z 21023G40KT 180V260 CAVOK 11/05 Q1011 WS R24 NOSIG;
0104066045999992011010712204+47083+006783FM-15+1027LSGC V0202201N007719999999Y0099001N1+01101+00501999999ADDMA1101021999999OC101491REMMET069METAR LSGC 071220Z 22015G29KT 170V260 CAVOK 11/05 Q1010 WS R24 NOSIG;
0104066045999992011010712504+47083+006783FM-15+1027LSGC V0202201N009319999999Y0099001N1+01101+00501999999ADDMA1101081999999OC101591REMMET069METAR LSGC 071250Z 22018G31KT 190V270 CAVOK 11/05 Q1011 WS R24 NOSIG;
0175066045999992011010713204+47083+006783FM-15+1027LSGC V0202201N007210180019N0112651N1+01101+00501999999ADDGA1041+011401999GA2071+018001999GF107991999999999999999999MA1101081999999OC101391REMMET082METAR LSGC 071320Z 22014G27KT 190V260 9999 SCT038 BKN068 11/05 Q1011 WS R24 NOSIG;
0198066045999992011010713504+47083+006783FM-15+1027LSGC V0202201N00871011701CN0112651N1+01101+00501999999ADDGA1021+004501999GA2041+011701999GA3071+018001999GF107991999999999999999999MA1101081999999OC101441REMMET089METAR LSGC 071350Z 22017G28KT 180V260 9999 FEW015 SCT039 BKN065 11/05 Q1011 WS R24 NOSIG;
0198066045999992011010714204+47083+006783FM-15+1027LSGC V0202201N00771010501CN0112651N1+01101+00501999999ADDGA1021+004501999GA2041+010501999GA3071+015001999GF107991999999999999999999MA1101081999999OC101341REMMET089METAR LSGC 071420Z 22015G26KT 180V270 9999 FEW015 SCT035 BKN055 11/05 Q1011 WS R24 NOSIG;
0164066045999992011010714504+47083+006783FM-15+1027LSGC V0202201N006710141019N0112651N1+01101+00501999999ADDGA1041+007501999GA2071+014101999GF107991999999999999999999MA1101081999999REMMET079METAR LSGC 071450Z 22013KT 190V260 9999 SCT025 BKN047 11/05 Q1011 WS R24 NOSIG;
0176066045999992011010715204+47083+006783FM-15+1027LSGC V0202301N005710150019N0112651N1+01001+00501999999ADDGA1041+007501999GA2081+015001999GF108991999999999999999999MA1101191999999MW1801REMMET085METAR LSGC 071520Z 23011KT 180V260 9999 -SHRA SCT025 OVC052 10/05 Q1012 WS R24 NOSIG;
0176066045999992011010715504+47083+006783FM-15+1027LSGC V0202401N004110150019N0090001N1+00901+00501999999ADDGA1041+007501999GA2081+015001999GF108991999999999999999999MA1101191999999MW1801REMMET085METAR LSGC 071550Z 24008KT 200V270 9000 -SHRA SCT025 OVC053 09/05 Q1012 WS R24 NOSIG;
0165066045999992011010716204+47083+006783AUTO +1027LSGC V0202401N003610144019N0112651N1+00901+00601999999ADDAW1621GA1041+012601999GA2071+014401999GF107991999999999999999999MA1101191999999REMMET074METAR LSGC 071620Z AUTO 24007KT 200V270 9999 RA SCT042 BKN048 09/06 Q1012;
0180066045999992011010716504+47083+006783AUTO +1027LSGC V0202401N002110120019N0080001N1+00801+00601999999ADDAW1621GA1021+010501999GA2071+012001999GA3071+013801999GF107991999999999999999999MA1101191999999REMMET073METAR LSGC 071650Z AUTO 24004KT 8000 RA FEW035 BKN040 BKN046 08/06 Q1012;
0135066045999992011010717204+47083+006783AUTO +1027LSGC V0209999V001010132019N0112651N1+00801+00601999999ADDAW1611GA1071+013201999GF107991999999999999999999MA1101191999999REMMET060METAR LSGC 071720Z AUTO VRB02KT 9999 -RA BKN044 08/06 Q1012;
0151066045999992011010717504+47083+006783AUTO +1027LSGC V0209999V00051013801CN0112651N1+00801+00601999999ADDAW1611GA1071+013801999GA2041+021001999MA1101191999999REMMET067METAR LSGC 071750Z AUTO VRB01KT 9999 -RA BKN046 SCT070 08/06 Q1012;EQDQ01+000042SCOTCV
0085066045999992011010718204+47083+006783AUTO +1027LSGC V0202401N002119999999Y0099001N1+00801+00501999999ADDMA1101191999999REMMET058METAR LSGC 071820Z AUTO 24004KT 190V310 CAVOK 08/05 Q1012;
0085066045999992011010718504+47083+006783AUTO +1027LSGC V0202301N003119999999Y0099001N1+00901+00501999999ADDMA1101191999999REMMET058METAR LSGC 071850Z AUTO 23006KT 170V300 CAVOK 09/05 Q1012;
0124066045999992011010719204+47083+006783AUTO +1027LSGC V0202501N002612200019N0112651N1+00901+00501999999ADDAW1611GF100991999999999999999999MA1101081999999REMMET065METAR LSGC 071920Z AUTO 25005KT 210V290 9999 -RA NSC 09/05 Q1011;
0085066045999992011010719504+47083+006783AUTO +1027LSGC V0202201N003619999999Y0099001N1+01001+00401999999ADDMA1101081999999REMMET058METAR LSGC 071950Z AUTO 22007KT 170V270 CAVOK 10/04 Q1011;
0085066045999992011010720204+47083+006783AUTO +1027LSGC V0202201N003119999999Y0099001N1+01001+00401999999ADDMA1101081999999REMMET058METAR LSGC 072020Z AUTO 22006KT 190V270 CAVOK 10/04 Q1011;
0085066045999992011010720504+47083+006783AUTO +1027LSGC V0202201N005119999999Y0099001N1+01001+00401999999ADDMA1101081999999REMMET058METAR LSGC 072050Z AUTO 22010KT 180V280 CAVOK 10/04 Q1011;
0124066045999992011010721204+47083+006783AUTO +1027LSGC V0202201N005712200019N0112651N1+01001+00401999999ADDAW1611GF100991999999999999999999MA1101081999999REMMET065METAR LSGC 072120Z AUTO 22011KT 180V260 9999 -RA NSC 10/04 Q1011;
0142066045999992011010721504+47083+006783AUTO +1027LSGC V0202201N003610138019N0112651N1+01001+00401999999ADDAW1611GA1091+013801999GF109991999999000251999999MA1101191999999REMMET067METAR LSGC 072150Z AUTO 22007KT 180V270 9999 -RA VV046 10/04 Q1012;
0166066045999992011010722204+47083+006783AUTO +1027LSGC V0202301N004610150019N0112651N1+00901+00401999999ADDAW1611GA1021+013201999GA2071+015001999GF107991999999999999999999MA1101191999999REMMET075METAR LSGC 072220Z AUTO 23009KT 200V270 9999 -RA FEW044 BKN050 09/04 Q1012;
0124066045999992011010722504+47083+006783AUTO +1027LSGC V0202201N005112200019N0112651N1+00901+00401999999ADDAW1611GF100991999999999999999999MA1101191999999REMMET065METAR LSGC 072250Z AUTO 22010KT 170V280 9999 -RA NSC 09/04 Q1012;
0085066045999992011010723204+47083+006783AUTO +1027LSGC V0202301N002619999999Y0099001N1+00901+00401999999ADDMA1101191999999REMMET058METAR LSGC 072320Z AUTO 23005KT 190V260 CAVOK 09/04 Q1012;
0085066045999992011010723504+47083+006783AUTO +1027LSGC V0202301N003119999999Y0099001N1+00901+00401999999ADDMA1101191999999REMMET058METAR LSGC 072350Z AUTO 23006KT 200V260 CAVOK 09/04 Q1012;
0085066045999992011010800204+47083+006783AUTO +1027LSGC V0202401N003619999999Y0099001N1+00901+00401999999ADDMA1101191999999REMMET058METAR LSGC 080020Z AUTO 24007KT 210V270 CAVOK 09/04 Q1012;
0124066045999992011010800504+47083+006783AUTO +1027LSGC V0202301N002612200019N0112651N1+00701+00401999999ADDAW1611GF100991999999999999999999MA1101191999999REMMET065METAR LSGC 080050Z AUTO 23005KT 190V270 9999 -RA NSC 07/04 Q1012;
0189066045999992011010801204+47083+006783AUTO +1027LSGC V0202101N001510132019N0112651N1+00701+00501999999ADDAW1611GA1041+011401999GA2071+013201999GA3071+015001999GF107991999999999999999999MA1101191999999REMMET082METAR LSGC 080120Z AUTO 21003KT 180V250 9999 -RA SCT038 BKN044 BKN050 07/05 Q1012;
0157066045999992011010801504+47083+006783AUTO +1027LSGC V0202501N000510117019N0112651N1+00701+00501999999ADDAW1621GA1041+010201999GA2071+011701999GF107991999999999999999999MA1101191999999REMMET066METAR LSGC 080150Z AUTO 25001KT 9999 RA SCT034 BKN039 07/05 Q1012;
0165066045999992011010802204+47083+006783AUTO +1027LSGC V0202501N003610060019N0045001N1+00701+00501999999ADDAW1621GA1041+004501999GA2071+006001999GF107991999999999999999999MA1101291999999REMMET074METAR LSGC 080220Z AUTO 25007KT 200V290 4500 RA SCT015 BKN020 07/05 Q1013;
0188066045999992011010802504+47083+006783AUTO +1027LSGC V0202301N003110018019N0060001N1+00701+00601999999ADDAW1621GA1071+001801999GA2041+003301999GA3071+006901999GF107991999999999999999999MA1101291999999REMMET081METAR LSGC 080250Z AUTO 23006KT 190V270 6000 RA BKN006 SCT011 BKN023 07/06 Q1013;
0189066045999992011010803204+47083+006783AUTO +1027LSGC V0202101N00261009901CN0112651N1+00601+00501999999ADDAW1611GA1021+003001999GA2041+009901999GA3081+012001999GF108991999999999999999999MA1101191999999REMMET082METAR LSGC 080320Z AUTO 21005KT 160V260 9999 -RA FEW010 SCT033 OVC040 06/05 Q1012;
0165066045999992011010803504+47083+006783AUTO +1027LSGC V0202201N004610090019N0112651N1+00701+00501999999ADDAW1521GA1071+009001999GA2071+010501999GF107991999999999999999999MA1101191999999REMMET074METAR LSGC 080350Z AUTO 22009KT 170V250 9999 DZ BKN030 BKN035 07/05 Q1012;
0179066045999992011010804204+47083+006783AUTO +1027LSGC V0202201N004110102019N0112651N1+00701+00401999999ADDGA1021+006901999GA2071+010201999GA3071+011701999GF107991999999999999999999MA1101191999999REMMET078METAR LSGC 080420Z AUTO 22008KT 190V260 9999 FEW023 BKN034 BKN039 07/04 Q1012;
0179066045999992011010804504+47083+006783AUTO +1027LSGC V0202301N002110105019N0112651N1+00701+00401999999ADDGA1021+009001999GA2071+010501999GA3071+015001999GF107991999999999999999999MA1101291999999REMMET078METAR LSGC 080450Z AUTO 23004KT 190V270 9999 FEW030 BKN035 BKN050 07/04 Q1013;
0171066045999992011010805204+47083+006783AUTO +1027LSGC V0209999V001510126019N0112651N1+00601+00401999999ADDGA1041+011101999GA2071+012601999GA3071+015001999GF107991999999999999999999MA1101291999999REMMET070METAR LSGC 080520Z AUTO VRB03KT 9999 SCT037 BKN042 BKN050 06/04 Q1013;
0156066045999992011010805504+47083+006783AUTO +1027LSGC V0202401N001510150019N0112651N1+00701+00501999999ADDGA1041+012901999GA2071+015001999GF107991999999999999999999MA1101291999999REMMET071METAR LSGC 080550Z AUTO 24003KT 180V290 9999 SCT043 BKN050 07/05 Q1013;
0077066045999992011010806204+47083+006783AUTO +1027LSGC V0209999V000519999999Y0099001N1+00601+00401999999ADDMA1101291999999REMMET050METAR LSGC 080620Z AUTO VRB01KT CAVOK 06/04 Q1013;
0077066045999992011010806504+47083+006783AUTO +1027LSGC V0209999V001019999999Y0099001N1+00701+00501999999ADDMA1101291999999REMMET050METAR LSGC 080650Z AUTO VRB02KT CAVOK 07/05 Q1013;
0149066045999992011010807204+47083+006783FM-15+1027LSGC V0209999V001010180019N0112651N1+00601+00401999999ADDGA1021+010501999GA2071+018001999GF107991999999999999999999MA1101291999999REMMET064METAR LSGC 080720Z VRB02KT 9999 FEW035 BKN065 06/04 Q1013 NOSIG;
0149066045999992011010807504+47083+006783FM-15+1027LSGC V0209999V001510180019N0112651N1+00701+00401999999ADDGA1021+009001999GA2071+018001999GF107991999999999999999999MA1101291999999REMMET064METAR LSGC 080750Z VRB03KT 9999 FEW030 BKN065 07/04 Q1013 NOSIG;
0149066045999992011010808204+47083+006783FM-15+1027LSGC V0209999V001010180019N0112651N1+00701+00401999999ADDGA1021+009001999GA2071+018001999GF107991999999999999999999MA1101291999999REMMET064METAR LSGC 080820Z VRB02KT 9999 FEW030 BKN065 07/04 Q1013 NOSIG;
0149066045999992011010808504+47083+006783FM-15+1027LSGC V0209999V001510180019N0112651N1+00701+00401999999ADDGA1021+009001999GA2071+018001999GF107991999999999999999999MA1101291999999REMMET064METAR LSGC 080850Z VRB03KT 9999 FEW030 BKN062 07/04 Q1013 NOSIG;
0157066045999992011010809204+47083+006783FM-15+1027LSGC V0202301N003110180019N0112651N1+00801+00401999999ADDGA1021+009001999GA2071+018001999GF107991999999999999999999MA1101291999999REMMET072METAR LSGC 080920Z 23006KT 180V280 9999 FEW030 BKN065 08/04 Q1013 NOSIG;
0157066045999992011010809504+47083+006783FM-15+1027LSGC V0202401N002610210019N0112651N1+00801+00401999999ADDGA1021+010501999GA2071+021001999GF107991999999999999999999MA1101391999999REMMET072METAR LSGC 080950Z 24005KT 190V280 9999 FEW035 BKN073 08/04 Q1014 NOSIG;
0157066045999992011010810204+47083+006783FM-15+1027LSGC V0202101N003110180019N0112651N1+00901+00401999999ADDGA1021+012001999GA2071+018001999GF107991999999999999999999MA1101291999999REMMET072METAR LSGC 081020Z 21006KT 160V250 9999 FEW040 BKN068 09/04 Q1013 NOSIG;
0157066045999992011010810504+47083+006783FM-15+1027LSGC V0202201N004610180019N0112651N1+00901+00401999999ADDGA1021+009001999GA2071+018001999GF107991999999999999999999MA1101291999999REMMET072METAR LSGC 081050Z 22009KT 190V270 9999 FEW030 BKN061 09/04 Q1013 NOSIG;
0164066045999992011010811204+47083+006783FM-15+1027LSGC V0202201N005110150019N0112651N1+01001+00401999999ADDGA1021+009001999GA2071+015001999GF107991999999999999999999MA1101291999999REMMET079METAR LSGC 081120Z 22010KT 190V260 9999 FEW030 BKN058 10/04 Q1013 WS R24 NOSIG;
0164066045999992011010811504+47083+006783FM-15+1027LSGC V0202201N004610180019N0112651N1+01001+00401999999ADDGA1021+009001999GA2071+018001999GF107991999999999999999999MA1101291999999REMMET079METAR LSGC 081150Z 22009KT 190V270 9999 FEW030 BKN061 10/04 Q1013 WS R24 NOSIG;
0164066045999992011010812204+47083+006783FM-15+1027LSGC V0202101N005110180019N0112651N1+01001+00301999999ADDGA1021+009001999GA2071+018001999GF107991999999999999999999MA1101291999999REMMET079METAR LSGC 081220Z 21010KT 180V240 9999 FEW030 BKN061 10/03 Q1013 WS R24 NOSIG;
0176066045999992011010812504+47083+006783FM-15+1027LSGC V0202101N003610180019N0112651N1+00901+00401999999ADDGA1021+009001999GA2071+018001999GF107991999999999999999999MA1101291999999MW1801REMMET085METAR LSGC 081250Z 21007KT 190V260 9999 -SHRA FEW030 BKN060 09/04 Q1013 WS R24 NOSIG;
0164066045999992011010813204+47083+006783FM-15+1027LSGC V0202201N003610150019N0112651N1+01001+00301999999ADDGA1021+009001999GA2071+015001999GF107991999999999999999999MA1101291999999REMMET079METAR LSGC 081320Z 22007KT 180V260 9999 FEW030 BKN054 10/03 Q1013 WS R24 NOSIG;
0187066045999992011010813504+47083+006783FM-15+1027LSGC V0202201N00571015001CN0112651N1+01101+00301999999ADDGA1021+009001999GA2041+015001999GA3071+045001999GF107991999999999999999999MA1101291999999REMMET086METAR LSGC 081350Z 22011KT 190V260 9999 FEW030 SCT055 BKN150 11/03 Q1013 WS R24 NOSIG;
0187066045999992011010814204+47083+006783FM-15+1027LSGC V0202301N00511015001CN0112651N1+01001+00201999999ADDGA1021+009001999GA2041+015001999GA3071+027001999GF107991999999999999999999MA1101291999999REMMET086METAR LSGC 081420Z 23010KT 190V260 9999 FEW030 SCT050 BKN090 10/02 Q1013 WS R24 NOSIG;
0187066045999992011010814504+47083+006783FM-15+1027LSGC V0202201N00311015001CN0112651N1+01001+00301999999ADDGA1021+009001999GA2041+015001999GA3071+030001999GF107991999999999999999999MA1101291999999REMMET086METAR LSGC 081450Z 22006KT 190V250 9999 FEW030 SCT050 BKN100 10/03 Q1013 WS R24 NOSIG;
0187066045999992011010815204+47083+006783FM-15+1027LSGC V0202101N00211015001CN0112651N1+00901+00201999999ADDGA1021+006001999GA2041+015001999GA3071+033001999GF107991999999999999999999MA1101291999999REMMET086METAR LSGC 081520Z 21004KT 170V250 9999 FEW020 SCT050 BKN110 09/02 Q1013 WS R24 NOSIG;
0180066045999992011010815504+47083+006783FM-15+1027LSGC V0202201N00261015001CN0112651N1+00901+00201999999ADDGA1021+006001999GA2041+015001999GA3071+033001999GF107991999999999999999999MA1101291999999REMMET079METAR LSGC 081550Z 22005KT 180V310 9999 FEW020 SCT050 BKN110 09/02 Q1013 NOSIG;
0077066045999992011010816204+47083+006783AUTO +1027LSGC V0209999V001519999999Y0099001N1+00801+00201999999ADDMA1101291999999REMMET050METAR LSGC 081620Z AUTO VRB03KT CAVOK 08/02 Q1013;
0085066045999992011010816504+47083+006783AUTO +1027LSGC V0202401N001519999999Y0099001N1+00801+00201999999ADDMA1101291999999REMMET058METAR LSGC 081650Z AUTO 24003KT 200V280 CAVOK 08/02 Q1013;
0077066045999992011010817204+47083+006783AUTO +1027LSGC V0202301N001519999999Y0099001N1+00801+00101999999ADDMA1101291999999REMMET050METAR LSGC 081720Z AUTO 23003KT CAVOK 08/01 Q1013;
0085066045999992011010817504+47083+006783AUTO +1027LSGC V0202301N002119999999Y0099001N1+00801+00101999999ADDMA1101191999999REMMET058METAR LSGC 081750Z AUTO 23004KT 190V270 CAVOK 08/01 Q1012;
0077066045999992011010818204+47083+006783AUTO +1027LSGC V0202701N001019999999Y0099001N1+00701+00101999999ADDMA1101191999999REMMET050METAR LSGC 081820Z AUTO 27002KT CAVOK 07/01 Q1012;
0077066045999992011010818504+47083+006783AUTO +1027LSGC V0202901N001019999999Y0099001N1+00401+00001999999ADDMA1101191999999REMMET050METAR LSGC 081850Z AUTO 29002KT CAVOK 04/00 Q1012;
0085066045999992011010819204+47083+006783AUTO +1027LSGC V0202401N001519999999Y0099001N1+00701+00101999999ADDMA1101191999999REMMET058METAR LSGC 081920Z AUTO 24003KT 200V290 CAVOK 07/01 Q1012;
0085066045999992011010819504+47083+006783AUTO +1027LSGC V0202401N003119999999Y0099001N1+00801+00101999999ADDMA1101191999999REMMET058METAR LSGC 081950Z AUTO 24006KT 200V270 CAVOK 08/01 Q1012;
0085066045999992011010820204+47083+006783AUTO +1027LSGC V0202301N004119999999Y0099001N1+00901+00201999999ADDMA1101191999999REMMET058METAR LSGC 082020Z AUTO 23008KT 200V270 CAVOK 09/02 Q1012;
0085066045999992011010820504+47083+006783AUTO +1027LSGC V0202301N004119999999Y0099001N1+00901+00101999999ADDMA1101191999999REMMET058METAR LSGC 082050Z AUTO 23008KT 190V270 CAVOK 09/01 Q1012;
0085066045999992011010821204+47083+006783AUTO +1027LSGC V0202201N004119999999Y0099001N1+00901+00101999999ADDMA1101191999999REMMET058METAR LSGC 082120Z AUTO 22008KT 180V260 CAVOK 09/01 Q1012;
0085066045999992011010821504+47083+006783AUTO +1027LSGC V0202301N003119999999Y0099001N1+00901+00101999999ADDMA1101191999999REMMET058METAR LSGC 082150Z AUTO 23006KT 180V290 CAVOK 09/01 Q1012;
0085066045999992011010822204+47083+006783AUTO +1027LSGC V0202201N004119999999Y0099001N1+00901+00101999999ADDMA1101191999999REMMET058METAR LSGC 082220Z AUTO 22008KT 180V260 CAVOK 09/01 Q1012;
0085066045999992011010822504+47083+006783AUTO +1027LSGC V0202201N006219999999Y0099001N1+00901+00101999999ADDMA1101191999999REMMET058METAR LSGC 082250Z AUTO 22012KT 180V280 CAVOK 09/01 Q1012;
0085066045999992011010823204+47083+006783AUTO +1027LSGC V0202301N005119999999Y0099001N1+00901+00001999999ADDMA1101191999999REMMET058METAR LSGC 082320Z AUTO 23010KT 180V260 CAVOK 09/00 Q1012;
0085066045999992011010823504+47083+006783AUTO +1027LSGC V0202301N003119999999Y0099001N1+00801+00101999999ADDMA1101191999999REMMET058METAR LSGC 082350Z AUTO 23006KT 190V260 CAVOK 08/01 Q1012;
0085066045999992011010900204+47083+006783AUTO +1027LSGC V0202501N002119999999Y0099001N1+00801+00001999999ADDMA1101191999999REMMET058METAR LSGC 090020Z AUTO 25004KT 210V330 CAVOK 08/00 Q1012;
0085066045999992011010900504+47083+006783AUTO +1027LSGC V0202501N002119999999Y0099001N1+00801+00001999999ADDMA1101191999999REMMET058METAR LSGC 090050Z AUTO 25004KT 170V310 CAVOK 08/00 Q1012;
0086066045999992011010901204+47083+006783AUTO +1027LSGC V0202901N002119999999Y0099001N1+00801-00101999999ADDMA1101191999999REMMET059METAR LSGC 090120Z AUTO 29004KT 250V340 CAVOK 08/M01 Q1012;
0077066045999992011010901504+47083+006783AUTO +1027LSGC V0209999V001019999999Y0099001N1+00701+00001999999ADDMA1101191999999REMMET050METAR LSGC 090150Z AUTO VRB02KT CAVOK 07/00 Q1012;
0078066045999992011010902204+47083+006783AUTO +1027LSGC V0209999V001019999999Y0099001N1+00601-00101999999ADDMA1101191999999REMMET051METAR LSGC 090220Z AUTO VRB02KT CAVOK 06/M01 Q1012;
0078066045999992011010902504+47083+006783AUTO +1027LSGC V0209999V001019999999Y0099001N1+00701+00001999999ADDMA1101191999999REMMET051METAR LSGC 090250Z AUTO VRB02KT CAVOK 07/M00 Q1012;
0078066045999992011010903204+47083+006783AUTO +1027LSGC V0209999V001019999999Y0099001N1+00701+00001999999ADDMA1101081999999REMMET051METAR LSGC 090320Z AUTO VRB02KT CAVOK 07/M00 Q1011;
0078066045999992011010903504+47083+006783AUTO +1027LSGC V0202701N001019999999Y0099001N1+00701+00001999999ADDMA1101081999999REMMET051METAR LSGC 090350Z AUTO 27002KT CAVOK 07/M00 Q1011;
0077066045999992011010904204+47083+006783AUTO +1027LSGC V0202601N001019999999Y0099001N1+00601+00001999999ADDMA1101081999999REMMET050METAR LSGC 090420Z AUTO 26002KT CAVOK 06/00 Q1011;
0078066045999992011010904504+47083+006783AUTO +1027LSGC V0202501N002619999999Y0099001N1+00701-00101999999ADDMA1101081999999REMMET051METAR LSGC 090450Z AUTO 25005KT CAVOK 07/M01 Q1011;
0086066045999992011010905204+47083+006783AUTO +1027LSGC V0202301N003119999999Y0099001N1+00801-00101999999ADDMA1101081999999REMMET059METAR LSGC 090520Z AUTO 23006KT 200V270 CAVOK 08/M01 Q1011;
0086066045999992011010905504+47083+006783AUTO +1027LSGC V0202401N004119999999Y0099001N1+00701-00101999999ADDMA1101081999999REMMET059METAR LSGC 090550Z AUTO 24008KT 200V260 CAVOK 07/M01 Q1011;
0086066045999992011010906204+47083+006783AUTO +1027LSGC V0202201N004619999999Y0099001N1+00701-00101999999ADDMA1101081999999REMMET059METAR LSGC 090620Z AUTO 22009KT 190V270 CAVOK 07/M01 Q1011;
0086066045999992011010906504+47083+006783AUTO +1027LSGC V0202301N004119999999Y0099001N1+00701+00001999999ADDMA1101081999999REMMET059METAR LSGC 090650Z AUTO 23008KT 200V270 CAVOK 07/M00 Q1011;
0093066045999992011010907204+47083+006783FM-15+1027LSGC V0202301N005119999999Y0099001N1+00701+00001999999ADDMA1101191999999REMMET066METAR LSGC 090720Z 23010KT 200V270 CAVOK 07/00 Q1012 WS R24 NOSIG;
0164066045999992011010907504+47083+006783FM-15+1027LSGC V0202301N005710150019N0112651N1+00701+00101999999ADDGA1021+006001999GA2081+015001999GF108991999999999999999999MA1101191999999REMMET079METAR LSGC 090750Z 23011KT 190V260 9999 FEW020 OVC055 07/01 Q1012 WS R24 NOSIG;
0176066045999992011010908204+47083+006783FM-15+1027LSGC V0202201N003610096019N0090001N1+00601+00101999999ADDGA1021+003001999GA2081+009601999GF108991999999999999999999MA1101291999999MW1801REMMET085METAR LSGC 090820Z 22007KT 190V260 9000 -SHRA FEW010 OVC032 06/01 Q1013 WS R24 NOSIG;
0199066045999992011010908504+47083+006783FM-15+1027LSGC V0202201N004610069019N0060001N1+00601+00201999999ADDGA1021+003001999GA2071+006901999GA3081+011401999GF108991999999999999999999MA1101291999999MW1801REMMET092METAR LSGC 090850Z 22009KT 180V260 6000 -SHRA FEW010 BKN023 OVC038 06/02 Q1013 WS R24 NOSIG;
0173066045999992011010909204+47083+006783FM-15+1027LSGC V0202301N001510060019N0070001N1+00501+00301999999ADDGA1071+006001999GA2081+010501999GF108991999999999999999999MA1101291999999MW1631REMMET082METAR LSGC 090920Z 23003KT 190V260 7000 RA BKN020 OVC035 05/03 Q1013 WS R24 NOSIG;
0173066045999992011010909504+47083+006783FM-15+1027LSGC V0202201N002110048019N0070001N1+00501+00401999999ADDGA1071+004801999GA2081+010501999GF108991999999999999999999MA1101291999999MW1631REMMET082METAR LSGC 090950Z 22004KT 190V270 7000 RA BKN016 OVC035 05/04 Q1013 WS R24 NOSIG;
0173066045999992011010910204+47083+006783FM-15+1027LSGC V0202201N005110066019N0070001N1+00601+00401999999ADDGA1071+006601999GA2081+010501999GF108991999999999999999999MA1101291999999MW1631REMMET082METAR LSGC 091020Z 22010KT 170V260 7000 RA BKN022 OVC035 06/04 Q1013 WS R24 NOSIG;
0196066045999992011010910504+47083+006783FM-15+1027LSGC V0202201N003110048019N0060001N1+00501+00401999999ADDGA1041+003901999GA2071+004801999GA3081+009001999GF108991999999999999999999MA1101291999999MW1631REMMET089METAR LSGC 091050Z 22006KT 180V260 6000 RA SCT013 BKN016 OVC030 05/04 Q1013 WS R24 NOSIG;
0196066045999992011010911204+47083+006783FM-15+1027LSGC V0202201N003110048019N0070001N1+00501+00401999999ADDGA1041+003001999GA2071+004801999GA3081+007501999GF108991999999999999999999MA1101291999999MW1631REMMET089METAR LSGC 091120Z 22006KT 190V260 7000 RA SCT010 BKN016 OVC025 05/04 Q1013 WS R24 NOSIG;
0196066045999992011010911504+47083+006783FM-15+1027LSGC V0202301N003110036019N0060001N1+00501+00401999999ADDGA1041+002401999GA2071+003601999GA3081+007501999GF108991999999999999999999MA1101291999999MW1631REMMET089METAR LSGC 091150Z 23006KT 180V260 6000 RA SCT008 BKN012 OVC025 05/04 Q1013 WS R24 NOSIG;
0196066045999992011010912204+47083+006783FM-15+1027LSGC V0202301N003610045019N0060001N1+00501+00401999999ADDGA1041+002401999GA2071+004501999GA3081+007501999GF108991999999999999999999MA1101291999999MW1631REMMET089METAR LSGC 091220Z 23007KT 170V280 6000 RA SCT008 BKN015 OVC025 05/04 Q1013 WS R24 NOSIG;
0196066045999992011010912504+47083+006783FM-15+1027LSGC V0202401N005110045019N0070001N1+00501+00301999999ADDGA1021+002401999GA2071+004501999GA3081+007501999GF108991999999999999999999MA1101291999999MW1631REMMET089METAR LSGC 091250Z 24010KT 200V270 7000 RA FEW008 BKN015 OVC025 05/03 Q1013 WS R24 NOSIG;
0196066045999992011010913204+47083+006783FM-15+1027LSGC V0202401N004110036019N0060001N1+00401+00301999999ADDGA1021+002101999GA2071+003601999GA3081+007501999GF108991999999999999999999MA1101291999999MW1631REMMET089METAR LSGC 091320Z 24008KT 200V270 6000 RA FEW007 BKN012 OVC025 04/03 Q1013 WS R24 NOSIG;
0196066045999992011010913504+47083+006783FM-15+1027LSGC V0202201N004610039019N0060001N1+00401+00301999999ADDGA1021+002101999GA2071+003901999GA3081+007501999GF108991999999999999999999MA1101291999999MW1631REMMET089METAR LSGC 091350Z 22009KT 180V260 6000 RA FEW007 BKN013 OVC025 04/03 Q1013 WS R24 NOSIG;
0196066045999992011010914204+47083+006783FM-15+1027LSGC V0202101N003610042019N0070001N1+00401+00201999999ADDGA1021+001801999GA2071+004201999GA3081+009001999GF108991999999999999999999MA1101291999999MW1631REMMET089METAR LSGC 091420Z 21007KT 180V260 7000 RA FEW006 BKN014 OVC030 04/02 Q1013 WS R24 NOSIG;
0197066045999992011010914504+47083+006783FM-15+1027LSGC V0202301N003110042019N0080001N1+00401+00201999999ADDGA1021+001801999GA2071+004201999GA3081+012001999GF108991999999999999999999MA1101291999999MW1611REMMET090METAR LSGC 091450Z 23006KT 200V260 8000 -RA FEW006 BKN014 OVC040 04/02 Q1013 WS R24 NOSIG;
0182066045999992011010915204+47083+006783FM-15+1027LSGC V0202401N002110036019N0080001N1+00401+00301999999ADDGA1021+001801999GA2071+003601999GA3081+012001999GF108991999999999999999999MA1101391999999MW1611REMMET075METAR LSGC 091520Z 24004KT 8000 -RA FEW006 BKN012 OVC040 04/03 Q1014 NOSIG;
0182066045999992011010915504+47083+006783FM-15+1027LSGC V0202501N002110042019N0080001N1+00401+00301999999ADDGA1021+002101999GA2071+004201999GA3081+010501999GF108991999999999999999999MA1101391999999MW1611REMMET075METAR LSGC 091550Z 25004KT 8000 -RA FEW007 BKN014 OVC035 04/03 Q1014 NOSIG;
0135066045999992011010916204+47083+006783AUTO +1027LSGC V0202501N002610036019N0112651N1+00401+00301999999ADDAW1611GA1071+003601999GF107991999999999999999999MA1101391999999REMMET060METAR LSGC 091620Z AUTO 25005KT 9999 -RA BKN012 04/03 Q1014;
0143066045999992011010916504+47083+006783AUTO +1027LSGC V0202301N002610036019N0080001N1+00401+00301999999ADDAW1611GA1071+003601999GF107991999999999999999999MA1101391999999REMMET068METAR LSGC 091650Z AUTO 23005KT 190V250 8000 -RA BKN012 04/03 Q1014;
0159066045999992011010917204+47083+006783AUTO +1027LSGC V0202301N00211002701CN0050001N1+00401+00301999999ADDAW1611GA1071+002701999GA2041+004201999MA1101391999999REMMET075METAR LSGC 091720Z AUTO 23004KT 200V270 5000 -RA BKN009 SCT014 04/03 Q1014;EQDQ01+000042SCOTCV
0135066045999992011010917504+47083+006783AUTO +1027LSGC V0209999V001510033019N0112651N1+00401+00301999999ADDAW1611GA1071+003301999GF107991999999999999999999MA1101491999999REMMET060METAR LSGC 091750Z AUTO VRB03KT 9999 -RA BKN011 04/03 Q1015;
0143066045999992011010918204+47083+006783AUTO +1027LSGC V0202501N001510027019N0080001N1+00401+00301999999ADDAW1611GA1081+002701999GF108991999999999999999999MA1101491999999REMMET068METAR LSGC 091820Z AUTO 25003KT 190V280 8000 -RA OVC009 04/03 Q1015;
0150066045999992011010918504+47083+006783AUTO +1027LSGC V0209999V00151002101CN0060001N1+00301+00301999999ADDAW1621GA1071+002101999GA2041+003901999MA1101491999999REMMET066METAR LSGC 091850Z AUTO VRB03KT 6000 RA BKN007 SCT013 03/03 Q1015;EQDQ01+000042SCOTCV
0143066045999992011010919204+47083+006783AUTO +1027LSGC V0202501N003110018019N0112651N1+00301+00201999999ADDAW1611GA1071+001801999GF107991999999999999999999MA1101491999999REMMET068METAR LSGC 091920Z AUTO 25006KT 200V300 9999 -RA BKN006 03/02 Q1015;
0143066045999992011010919504+47083+006783AUTO +1027LSGC V0202301N003110018019N0112651N1+00201+00101999999ADDAW1611GA1071+001801999GF107991999999999999999999MA1101591999999REMMET068METAR LSGC 091950Z AUTO 23006KT 190V250 9999 -RA BKN006 02/01 Q1016;
0142066045999992011010920204+47083+006783AUTO +1027LSGC V0202301N002612200019N0112651N1+00201+00101999999ADDAW1621GA1041+001501999GF104991999999999999999999MA1101591999999REMMET067METAR LSGC 092020Z AUTO 23005KT 190V270 9999 RA SCT005 02/01 Q1016;
0131066045999992011010920504+47083+006783AUTO +1027LSGC V0209999V00101001501CN0112651N1+00101+00101999999ADDAW1621GA1081+001501999GA2041+003601999MA1101591999999REMMET066METAR LSGC 092050Z AUTO VRB02KT 9999 RA OVC005 SCT012 01/01 Q1016;
0137066045999992011010921204+47083+006783AUTO +1027LSGC V0202201N001010012019N0112651N1+00101+00001999999ADDAW1671GA1071+001201999GF107991999999999999999999MA1101591999999REMMET062METAR LSGC 092120Z AUTO 22002KT 9999 -RASN BKN004 01/00 Q1016;
0137066045999992011010921504+47083+006783AUTO +1027LSGC V0202501N000510015019N0112651N1+00101+00001999999ADDAW1671GA1071+001501999GF107991999999999999999999MA1101691999999REMMET062METAR LSGC 092150Z AUTO 25001KT 9999 -RASN BKN005 01/00 Q1017;
0135066045999992011010922204+47083+006783AUTO +1027LSGC V0209999C000010018019N0112651N1+00101+00001999999ADDAW1611GA1081+001801999GF108991999999999999999999MA1101691999999REMMET060METAR LSGC 092220Z AUTO 00000KT 9999 -RA OVC006 01/00 Q1017;
0135066045999992011010922504+47083+006783AUTO +1027LSGC V0209999C000010021019N0112651N1+00101+00001999999ADDAW1611GA1071+002101999GF107991999999999999999999MA1101691999999REMMET060METAR LSGC 092250Z AUTO 00000KT 9999 -RA BKN007 01/00 Q1017;
0135066045999992011010923204+47083+006783AUTO +1027LSGC V0209999C000010018019N0112651N1+00101+00101999999ADDAW1611GA1081+001801999GF108991999999999999999999MA1101691999999REMMET060METAR LSGC 092320Z AUTO 00000KT 9999 -RA OVC006 01/01 Q1017;
0125066045999992011010923504+47083+006783AUTO +1027LSGC V0209999C000010018019N0112651N1+00101+00101999999ADDGA1081+001801999GF108991999999999999999999MA1101691999999REMMET056METAR LSGC 092350Z AUTO 00000KT 9999 OVC006 01/01 Q1017;
0134066045999992011011000204+47083+006783AUTO +1027LSGC V0209999C000010009019N0013001N1+00101+00101999999ADDAW1101GA1081+000901999GF108991999999999999999999MA1101691999999REMMET059METAR LSGC 100020Z AUTO 00000KT 1300 BR OVC003 01/01 Q1017;
0134066045999992011011000504+47083+006783AUTO +1027LSGC V0209999V000510009019N0013001N1+00101+00101999999ADDAW1101GA1071+000901999GF107991999999999999999999MA1101691999999REMMET059METAR LSGC 100050Z AUTO VRB01KT 1300 BR BKN003 01/01 Q1017;
0134066045999992011011001204+47083+006783AUTO +1027LSGC V0209999C000010030019N0030001N1+00101+00101999999ADDAW1611GA1091+003001999GF109991999999000251999999MA1101691999999REMMET059METAR LSGC 100120Z AUTO 00000KT 3000 -RA VV010 01/01 Q1017;
0135066045999992011011001504+47083+006783AUTO +1027LSGC V0209999C000010009019N0090001N1+00101+00101999999ADDAW1611GA1081+000901999GF108991999999999999999999MA1101691999999REMMET060METAR LSGC 100150Z AUTO 00000KT 9000 -RA OVC003 01/01 Q1017;
0135066045999992011011002204+47083+006783AUTO +1027LSGC V0209999C000010012019N0090001N1+00101+00101999999ADDAW1611GA1081+001201999GF108991999999999999999999MA1101801999999REMMET060METAR LSGC 100220Z AUTO 00000KT 9000 -RA OVC004 01/01 Q1018;
0151066045999992011011002504+47083+006783AUTO +1027LSGC V0209999V00051000901CN0112651N1+00101+00101999999ADDAW1611GA1071+000901999GA2041+002401999MA1101691999999REMMET067METAR LSGC 100250Z AUTO VRB01KT 9999 -RA BKN003 SCT008 01/01 Q1017;EQDQ01+000042SCOTCV
0137066045999992011011003204+47083+006783AUTO +1027LSGC V0209999V001510012019N0112651N1+00101+00101999999ADDAW1671GA1071+001201999GF107991999999999999999999MA1101691999999REMMET062METAR LSGC 100320Z AUTO VRB03KT 9999 -RASN BKN004 01/01 Q1017;
0135066045999992011011003504+47083+006783AUTO +1027LSGC V0209999V001010012019N0080001N1+00101+00001999999ADDAW1711GA1071+001201999GF107991999999999999999999MA1101691999999REMMET060METAR LSGC 100350Z AUTO VRB02KT 8000 -SN BKN004 01/00 Q1017;
0144066045999992011011004204+47083+006783AUTO +1027LSGC V0200601N001510009019N0031001N1+00001+00001999999ADDAW1711GA1071+000901999GF107991999999999999999999MA1101691999999REMMET069METAR LSGC 100420Z AUTO 06003KT 040V100 3100 -SN BKN003 00/M00 Q1017;
0159066045999992011011004504+47083+006783AUTO +1027LSGC V0209999V001510012019N0112651N1+00001+00001999999ADDAW1611GA1071+001201999GA2071+004201999GF107991999999999999999999MA1101691999999REMMET068METAR LSGC 100450Z AUTO VRB03KT 9999 -RA BKN004 BKN014 00/M00 Q1017;
0144066045999992011011005204+47083+006783AUTO +1027LSGC V0200701N001510009019N0112651N1+00001+00001999999ADDAW1611GA1081+000901999GF108991999999999999999999MA1101691999999REMMET069METAR LSGC 100520Z AUTO 07003KT 040V120 9999 -RA OVC003 00/M00 Q1017;
0136066045999992011011005504+47083+006783AUTO +1027LSGC V0200401N002110006019N0112651N1+00001+00001999999ADDAW1611GA1071+000601999GF107991999999999999999999MA1101691999999REMMET061METAR LSGC 100550Z AUTO 04004KT 9999 -RA BKN002 00/M00 Q1017;
0126066045999992011011006204+47083+006783AUTO +1027LSGC V0209999V001010006019N0112651N1+00001+00001999999ADDGA1071+000601999GF107991999999999999999999MA1101801999999REMMET057METAR LSGC 100620Z AUTO VRB02KT 9999 BKN002 00/M00 Q1018;
