0140066060999992011012414004+47050+007067FM-12+043199999V0200701N002119999999N9999999N1+00031+99999102491ADDMA1999999097141MD1610231+9999OA149900411REMSYN088AAXX  24144 06606 33/// /0704 10003 2//// 39714 40249 56023 333 553// 2//// 91108 91205;
0140066060999992011012415004+47050+007067FM-12+043199999V0201001N002119999999N9999999N1+00091+99999102451ADDMA1999999097111MD1710171+9999OA149900461REMSYN088AAXX  24154 06606 33/// /1004 10009 2//// 39711 40245 57017 333 553// 20742 91109 91205;
0140066060999992011012416004+47050+007067FM-12+043199999V0200801N002619999999N9999999N1+00081+99999102441ADDMA1999999097101MD1710091+9999OA149900461REMSYN088AAXX  24164 06606 33/// /0805 10008 2//// 39710 40244 57009 333 553// 20277 91109 91206;
0140066060999992011012417004+47050+007067FM-12+043199999V0200701N002119999999N9999999N1-00011+99999102461ADDMA1999999097101MD1710041+9999OA149900461REMSYN088AAXX  24174 06606 33/// /0704 11001 2//// 39710 40246 57004 333 553// 20004 91109 91207;
0159066060999992011012418004+47050+007067FM-12+043199999V0200201N001519999999N9999999N1-00091+99999102481ADDKA1120M+00111MA1999999097111MD1510001+9999OA149900461REMSYN094AAXX  24184 06606 33/// /0203 11009 2//// 39711 40248 55000 333 10011 553// 20000 91109 91207;
0140066060999992011012419004+47050+007067FM-12+043199999V0200501N001519999999N9999999N1-00221+99999102511ADDMA1999999097111MD1210011+9999OA149900311REMSYN088AAXX  24194 06606 33/// /0503 11022 2//// 39711 40251 52001 333 553// 20000 91106 91203;
0140066060999992011012420004+47050+007067FM-12+043199999V0200301N001519999999N9999999N1-00091+99999102461ADDMA1999999097091MD1710011+9999OA149900361REMSYN088AAXX  24204 06606 33/// /0303 11009 2//// 39709 40246 57001 333 553// 20000 91107 91204;
0140066060999992011012421004+47050+007067FM-12+043199999V0203301N001019999999N9999999N1-00281+99999102501ADDMA1999999097091MD1810021+9999OA149900461REMSYN088AAXX  24214 06606 33/// /3302 11028 2//// 39709 40250 58002 333 553// 20000 91109 91207;
0140066060999992011012422004+47050+007067FM-12+043199999V0200301N001519999999N9999999N1-00081+99999102401ADDMA1999999097031MD1710081+9999OA149900261REMSYN088AAXX  24224 06606 33/// /0303 11008 2//// 39703 40240 57008 333 553// 20000 91105 91203;
0140066060999992011012423004+47050+007067FM-12+043199999V0200201N000519999999N9999999N1-00061+99999102391ADDMA1999999097031MD1710061+9999OA149900261REMSYN088AAXX  24234 06606 33/// /0201 11006 2//// 39703 40239 57006 333 553// 20000 91105 91203;
0140066060999992011012500004+47050+007067FM-12+043199999V0202501N001019999999N9999999N1-00141+99999102391ADDMA1999999097011MD1710081+9999OA149900461REMSYN088AAXX  25004 06606 33/// /2502 11014 2//// 39701 40239 57008 333 553// 20000 91109 91207;
0140066060999992011012501004+47050+007067FM-12+043199999V0202701N001019999999N9999999N1-00161+99999102371ADDMA1999999096991MD1710041+9999OA149900211REMSYN088AAXX  25014 06606 33/// /2702 11016 2//// 39699 40237 57004 333 553// 20000 91104 91203;
0140066060999992011012502004+47050+007067FM-12+043199999V0202501N001019999999N9999999N1-00191+99999102361ADDMA1999999096971MD1710061+9999OA149900151REMSYN088AAXX  25024 06606 33/// /2502 11019 2//// 39697 40236 57006 333 553// 20000 91103 91202;
0140066060999992011012503004+47050+007067FM-12+043199999V0202701N001519999999N9999999N1-00181+99999102331ADDMA1999999096951MD1810061+9999OA149900261REMSYN088AAXX  25034 06606 33/// /2703 11018 2//// 39695 40233 58006 333 553// 20000 91105 91203;
0140066060999992011012504004+47050+007067FM-12+043199999V0201901N001019999999N9999999N1-00181+99999102311ADDMA1999999096931MD1810061+9999OA149900151REMSYN088AAXX  25044 06606 33/// /1902 11018 2//// 39693 40231 58006 333 553// 20000 91103 91203;
0140066060999992011012505004+47050+007067FM-12+043199999V0201901N000519999999N9999999N1-00191+99999102281ADDMA1999999096901MD1810071+9999OA149900151REMSYN088AAXX  25054 06606 33/// /1901 11019 2//// 39690 40228 58007 333 553// 20000 91103 91202;
0175066060999992011012506004+47050+007067FM-12+043199999V0202901N000519999999N9999999N1-00211+99999102281ADDAL19900091KA1999N-00291MA1999999096891MD1710061+9999OA149900361REMSYN100AAXX  25064 06606 33/// /2901 11021 2//// 39689 40228 57006 333 21029 553// 20000 70000 91107 91204;
0140066060999992011012507004+47050+007067FM-12+043199999V0209999C000019999999N9999999N1-00211+99999102281ADDMA1999999096891MD1710041+9999OA149900151REMSYN088AAXX  25074 06606 33/// /0000 11021 2//// 39689 40228 57004 333 553// 20000 91103 91202;
0140066060999992011012508004+47050+007067FM-12+043199999V0201301N000519999999N9999999N1-00151+99999102271ADDMA1999999096901MD1510001+9999OA149900151REMSYN088AAXX  25084 06606 33/// /1301 11015 2//// 39690 40227 55000 333 553// 20025 91103 91202;
0140066060999992011012509004+47050+007067FM-12+043199999V0209999C000019999999N9999999N1-00071+99999102241ADDMA1999999096881MD1810011+9999OA149900151REMSYN088AAXX  25094 06606 33/// /0000 11007 2//// 39688 40224 58001 333 553// 20162 91103 91202;
0140066060999992011012510004+47050+007067FM-12+043199999V0201701N000519999999N9999999N1+00001+99999102221ADDMA1999999096881MD1810011+9999OA149900101REMSYN088AAXX  25104 06606 33/// /1701 10000 2//// 39688 40222 58001 333 553// 20216 91102 91201;
0140066060999992011012511004+47050+007067FM-12+043199999V0202201N003119999999N9999999N1+00101+99999102131ADDMA1999999096811MD1710091+9999OA149900411REMSYN088AAXX  25114 06606 33/// /2206 10010 2//// 39681 40213 57009 333 553// 20439 91108 91206;
0103066060999992011012512004+47050+007067FM-12+043199999V0202201N003119999999N9999999N1+00151+99999102021ADDMA1999999096721REMSYN076AAXX  25124 06606 33/// /2206 10015 2//// 39672 40202 5//// 333 553// 20774;
0140066060999992011012513004+47050+007067FM-12+043199999V0202401N003119999999N9999999N1+00221+99999101891ADDMA1999999096611MD1819999+9999OA149900571REMSYN088AAXX  25134 06606 33/// /2406 10022 2//// 39661 40189 58/// 333 553// 20731 91111 91207;
0087066060999992011012514004+47050+007067FM-12+043199999V0202201N002619999999N9999999N1+00281+99999101831ADDMA1999999096561REMSYN060AAXX  25144 06606 43/// /2205 10028 2//// 39656 40183 5////;
0140066060999992011012515004+47050+007067FM-12+043199999V0202601N001519999999N9999999N1+00361+99999101781ADDMA1999999096531MD1619999+9999OA149900571REMSYN088AAXX  25154 06606 33/// /2603 10036 2//// 39653 40178 56/// 333 553// 20695 91111 91207;
0140066060999992011012516004+47050+007067FM-12+043199999V0202401N003119999999N9999999N1+00321+99999101761ADDMA1999999096501MD1610111+9999OA149900621REMSYN088AAXX  25164 06606 33/// /2406 10032 2//// 39650 40176 56011 333 553// 20130 91112 91206;
0140066060999992011012517004+47050+007067FM-12+043199999V0202501N004119999999N9999999N1+00301+99999101741ADDMA1999999096481MD1610081+9999OA149900821REMSYN088AAXX  25174 06606 33/// /2508 10030 2//// 39648 40174 56008 333 553// 20004 91116 91209;
0159066060999992011012518004+47050+007067FM-12+043199999V0202301N003119999999N9999999N1+00251+99999101721ADDKA1120M+00381MA1999999096451MD1710081+9999OA149900821REMSYN094AAXX  25184 06606 33/// /2306 10025 2//// 39645 40172 57008 333 10038 553// 20000 91116 91209;
0140066060999992011012519004+47050+007067FM-12+043199999V0202701N003619999999N9999999N1+00281+99999101701ADDMA1999999096441MD1710061+9999OA149900881REMSYN088AAXX  25194 06606 33/// /2707 10028 2//// 39644 40170 57006 333 553// 20000 91117 91210;
0140066060999992011012520004+47050+007067FM-12+043199999V0202401N003619999999N9999999N1+00151+99999101731ADDMA1999999096441MD1719999+9999OA149900931REMSYN088AAXX  25204 06606 33/// /2407 10015 2//// 39644 40173 57/// 333 553// 20000 91118 91211;
0140066060999992011012521004+47050+007067FM-12+043199999V0202101N003119999999N9999999N1+00091+99999101731ADDMA1999999096431MD1019999+9999OA149900931REMSYN088AAXX  25214 06606 33/// /2106 10009 2//// 39643 40173 50/// 333 553// 20000 91118 91211;
0140066060999992011012522004+47050+007067FM-12+043199999V0202701N001019999999N9999999N1+00091+99999101701ADDMA1999999096401MD1710041+9999OA149900511REMSYN088AAXX  25224 06606 33/// /2702 10009 2//// 39640 40170 57004 333 553// 20000 91110 91206;
0140066060999992011012523004+47050+007067FM-12+043199999V0202501N003119999999N9999999N1+00141+99999101671ADDMA1999999096381MD1710061+9999OA149900721REMSYN088AAXX  25234 06606 33/// /2506 10014 2//// 39638 40167 57006 333 553// 20000 91114 91209;
0140066060999992011012600004+47050+007067FM-12+043199999V0202401N002619999999N9999999N1+00081+99999101621ADDMA1999999096321MD1710111+9999OA149900931REMSYN088AAXX  26004 06606 33/// /2405 10008 2//// 39632 40162 57011 333 553// 20000 91118 91211;
0140066060999992011012601004+47050+007067FM-12+043199999V0202401N003619999999N9999999N1+00141+99999101541ADDMA1999999096261MD1710141+9999OA149900771REMSYN088AAXX  26014 06606 33/// /2407 10014 2//// 39626 40154 57014 333 553// 20000 91115 91210;
0140066060999992011012602004+47050+007067FM-12+043199999V0202301N002119999999N9999999N1+00101+99999101501ADDMA1999999096211MD1610171+9999OA149900511REMSYN088AAXX  26024 06606 33/// /2304 10010 2//// 39621 40150 56017 333 553// 20000 91110 91207;
0140066060999992011012603004+47050+007067FM-12+043199999V0202401N002619999999N9999999N1+00141+99999101451ADDMA1999999096171MD1610151+9999OA149900771REMSYN088AAXX  26034 06606 33/// /2405 10014 2//// 39617 40145 56015 333 553// 20000 91115 91210;
0140066060999992011012604004+47050+007067FM-12+043199999V0202501N002619999999N9999999N1+00111+99999101371ADDMA1999999096091MD1810171+9999OA149900671REMSYN088AAXX  26044 06606 33/// /2505 10011 2//// 39609 40137 58017 333 553// 20000 91113 91208;
0140066060999992011012605004+47050+007067FM-12+043199999V0202301N003619999999N9999999N1+00101+99999101291ADDMA1999999096021MD1810191+9999OA149900721REMSYN088AAXX  26054 06606 33/// /2307 10010 2//// 39602 40129 58019 333 553// 20000 91114 91209;
0175066060999992011012606004+47050+007067FM-12+043199999V0202301N003119999999N9999999N1+00121+99999101281ADDAL19900091KA1999N+00071MA1999999096011MD1610161+9999OA149900931REMSYN100AAXX  26064 06606 33/// /2306 10012 2//// 39601 40128 56016 333 20007 553// 20000 70000 91118 91211;
0140066060999992011012607004+47050+007067FM-12+043199999V0202501N001019999999N9999999N1+00141+99999101231ADDMA1999999095971MD1610121+9999OA149900671REMSYN088AAXX  26074 06606 33/// /2502 10014 2//// 39597 40123 56012 333 553// 20000 91113 91208;
0140066060999992011012608004+47050+007067FM-12+043199999V0202201N001019999999N9999999N1+00151+99999101191ADDMA1999999095931MD1810091+9999OA149900361REMSYN088AAXX  26084 06606 33/// /2202 10015 2//// 39593 40119 58009 333 553// 20083 91107 91204;
0140066060999992011012609004+47050+007067FM-12+043199999V0202201N003619999999N9999999N1+00171+99999101161ADDMA1999999095911MD1610101+9999OA149900721REMSYN088AAXX  26094 06606 33/// /2207 10017 2//// 39591 40116 56010 333 553// 20241 91114 91209;
0140066060999992011012610004+47050+007067FM-12+043199999V0202201N003119999999N9999999N1+00221+99999101141ADDMA1999999095901MD1610071+9999OA149900621REMSYN088AAXX  26104 06606 33/// /2206 10022 2//// 39590 40114 56007 333 553// 20547 91112 91207;
0140066060999992011012611004+47050+007067FM-12+043199999V0202301N003119999999N9999999N1+00251+99999101091ADDMA1999999095851MD1810081+9999OA149900571REMSYN088AAXX  26114 06606 33/// /2306 10025 2//// 39585 40109 58008 333 553// 20529 91111 91207;
0140066060999992011012612004+47050+007067FM-12+043199999V0202201N001519999999N9999999N1+00331+99999100991ADDMA1999999095771MD1810141+9999OA149900721REMSYN088AAXX  26124 06606 33/// /2203 10033 2//// 39577 40099 58014 333 553// 20922 91114 91209;
0140066060999992011012613004+47050+007067FM-12+043199999V0201001N001019999999N9999999N1+00411+99999100881ADDMA1999999095691MD1819999+9999OA149900411REMSYN088AAXX  26134 06606 33/// /1002 10041 2//// 39569 40088 58/// 333 553// 2//// 91108 91205;
0103066060999992011012614004+47050+007067FM-12+043199999V0201001N002619999999N9999999N1+00381+99999100851ADDMA1999999095651REMSYN076AAXX  26144 06606 33/// /1005 10038 2//// 39565 40085 5//// 333 553// 20889;
0140066060999992011012615004+47050+007067FM-12+043199999V0200601N001519999999N9999999N1+00381+99999100841ADDMA1999999095641MD1710131+9999OA149900571REMSYN088AAXX  26154 06606 33/// /0603 10038 2//// 39564 40084 57013 333 553// 20626 91111 91207;
0140066060999992011012616004+47050+007067FM-12+043199999V0201001N001019999999N9999999N1+00291+99999100851ADDMA1999999095631MD1719999+9999OA149900311REMSYN088AAXX  26164 06606 33/// /1002 10029 2//// 39563 40085 57/// 333 553// 20191 91106 91204;
0140066060999992011012617004+47050+007067FM-12+043199999V0200501N001019999999N9999999N1+00151+99999100881ADDMA1999999095641MD1510011+9999OA149900211REMSYN088AAXX  26174 06606 33/// /0502 10015 2//// 39564 40088 55001 333 553// 20007 91104 91203;
0159066060999992011012618004+47050+007067FM-12+043199999V0200901N002119999999N9999999N1+00181+99999100911ADDKA1120M+00431MA1999999095671MD1310031+9999OA149900621REMSYN094AAXX  26184 06606 33/// /0904 10018 2//// 39567 40091 53003 333 10043 553// 20000 91112 91207;
0140066060999992011012619004+47050+007067FM-12+043199999V0200901N002619999999N9999999N1+00131+99999100961ADDMA1999999095711MD1310081+9999OA149900361REMSYN088AAXX  26194 06606 33/// /0905 10013 2//// 39571 40096 53008 333 553// 20000 91107 91206;
0140066060999992011012620004+47050+007067FM-12+043199999V0200601N001519999999N9999999N1+00151+99999100991ADDMA1999999095741MD1310101+9999OA149900361REMSYN088AAXX  26204 06606 33/// /0603 10015 2//// 39574 40099 53010 333 553// 20000 91107 91206;
0140066060999992011012621004+47050+007067FM-12+043199999V0200201N001019999999N9999999N1-00051+99999101061ADDMA1999999095771MD1110101+9999OA149900361REMSYN088AAXX  26214 06606 33/// /0202 11005 2//// 39577 40106 51010 333 553// 20000 91107 91206;
0140066060999992011012622004+47050+007067FM-12+043199999V0200401N001519999999N9999999N1+00091+99999101041ADDMA1999999095781MD1210071+9999OA149900261REMSYN088AAXX  26224 06606 33/// /0403 10009 2//// 39578 40104 52007 333 553// 20000 91105 91203;
0140066060999992011012623004+47050+007067FM-12+043199999V0200501N002119999999N9999999N1+00061+99999101071ADDMA1999999095801MD1210061+9999OA149900311REMSYN088AAXX  26234 06606 33/// /0504 10006 2//// 39580 40107 52006 333 553// 20000 91106 91205;
0140066060999992011012700004+47050+007067FM-12+043199999V0200501N001519999999N9999999N1+00001+99999101091ADDMA1999999095811MD1310041+9999OA149900361REMSYN088AAXX  27004 06606 33/// /0503 10000 2//// 39581 40109 53004 333 553// 20000 91107 91206;
0140066060999992011012701004+47050+007067FM-12+043199999V0200601N003119999999N9999999N1+00021+99999101111ADDMA1999999095831MD1110051+9999OA149900411REMSYN088AAXX  27014 06606 33/// /0606 10002 2//// 39583 40111 51005 333 553// 20000 91108 91206;
0140066060999992011012702004+47050+007067FM-12+043199999V0200701N004119999999N9999999N1+00051+99999101151ADDMA1999999095871MD1310071+9999OA149900671REMSYN088AAXX  27024 06606 33/// /0708 10005 2//// 39587 40115 53007 333 553// 20000 91113 91208;
0140066060999992011012703004+47050+007067FM-12+043199999V0200801N006219999999N9999999N1+00081+99999101161ADDMA1999999095891MD1310081+9999OA149900881REMSYN088AAXX  27034 06606 33/// /0812 10008 2//// 39589 40116 53008 333 553// 20000 91117 91212;
0140066060999992011012704004+47050+007067FM-12+043199999V0200801N004119999999N9999999N1+00111+99999101181ADDMA1999999095911MD1110081+9999OA149900881REMSYN088AAXX  27044 06606 33/// /0808 10011 2//// 39591 40118 51008 333 553// 20000 91117 91212;
0140066060999992011012705004+47050+007067FM-12+043199999V0200601N002119999999N9999999N1+00141+99999101191ADDMA1999999095931MD1110061+9999OA149900771REMSYN088AAXX  27054 06606 33/// /0604 10014 2//// 39593 40119 51006 333 553// 20000 91115 91211;
0175066060999992011012706004+47050+007067FM-12+043199999V0200501N002119999999N9999999N1+00151+99999101241ADDAL19900091KA1999N-00101MA1999999095981MD1310091+9999OA149900881REMSYN100AAXX  27064 06606 33/// /0504 10015 2//// 39598 40124 53009 333 21010 553// 20000 70000 91117 91212;
0140066060999992011012707004+47050+007067FM-12+043199999V0200501N002619999999N9999999N1+00181+99999101291ADDMA1999999096031MD1310121+9999OA149900461REMSYN088AAXX  27074 06606 33/// /0505 10018 2//// 39603 40129 53012 333 553// 20000 91109 91205;
0140066060999992011012708004+47050+007067FM-12+043199999V0200401N002619999999N9999999N1+00191+99999101321ADDMA1999999096061MD1110131+9999OA149900511REMSYN088AAXX  27084 06606 33/// /0405 10019 2//// 39606 40132 51013 333 553// 20011 91110 91206;
0140066060999992011012709004+47050+007067FM-12+043199999V0200501N003619999999N9999999N1+00221+99999101341ADDMA1999999096091MD1110111+9999OA149900771REMSYN088AAXX  27094 06606 33/// /0507 10022 2//// 39609 40134 51011 333 553// 20083 91115 91211;
0140066060999992011012710004+47050+007067FM-12+043199999V0200601N003619999999N9999999N1+00261+99999101381ADDMA1999999096131MD1310101+9999OA149900571REMSYN088AAXX  27104 06606 33/// /0607 10026 2//// 39613 40138 53010 333 553// 20338 91111 91207;
0140066060999992011012711004+47050+007067FM-12+043199999V0200701N004619999999N9999999N1+00271+99999101401ADDMA1999999096151MD1210091+9999OA149900721REMSYN088AAXX  27114 06606 33/// /0709 10027 2//// 39615 40140 52009 333 553// 20439 91114 91209;
0140066060999992011012712004+47050+007067FM-12+043199999V0200701N005119999999N9999999N1+00301+99999101381ADDMA1999999096141MD1210051+9999OA149900881REMSYN088AAXX  27124 06606 33/// /0710 10030 2//// 39614 40138 52005 333 553// 20536 91117 91212;
0140066060999992011012713004+47050+007067FM-12+043199999V0200601N004119999999N9999999N1+00311+99999101341ADDMA1999999096101MD1810031+9999OA149900821REMSYN088AAXX  27134 06606 33/// /0608 10031 2//// 39610 40134 58003 333 553// 20500 91116 91210;
0140066060999992011012714004+47050+007067FM-12+043199999V0200601N004119999999N9999999N1+00321+99999101301ADDMA1999999096071MD1710081+9999OA149900721REMSYN088AAXX  27144 06606 33/// /0608 10032 2//// 39607 40130 57008 333 553// 20634 91114 91209;
0140066060999992011012715004+47050+007067FM-12+043199999V0200601N004619999999N9999999N1+00301+99999101311ADDMA1999999096071MD1710071+9999OA149900821REMSYN088AAXX  27154 06606 33/// /0609 10030 2//// 39607 40131 57007 333 553// 20295 91116 91210;
0140066060999992011012716004+47050+007067FM-12+043199999V0200501N004119999999N9999999N1+00261+99999101331ADDMA1999999096081MD1510021+9999OA149900671REMSYN088AAXX  27164 06606 33/// /0508 10026 2//// 39608 40133 55002 333 553// 20068 91113 91209;
0140066060999992011012717004+47050+007067FM-12+043199999V0200601N003619999999N9999999N1+00231+99999101341ADDMA1999999096091MD1210021+9999OA149900721REMSYN088AAXX  27174 06606 33/// /0607 10023 2//// 39609 40134 52002 333 553// 20000 91114 91209;
0159066060999992011012718004+47050+007067FM-12+043199999V0200501N005119999999N9999999N1+00231+99999101361ADDKA1120M+00331MA1999999096111MD1210041+9999OA149900821REMSYN094AAXX  27184 06606 33/// /0510 10023 2//// 39611 40136 52004 333 10033 553// 20000 91116 91210;
0140066060999992011012719004+47050+007067FM-12+043199999V0200501N004119999999N9999999N1+00221+99999101381ADDMA1999999096121MD1310041+9999OA149900821REMSYN088AAXX  27194 06606 33/// /0508 10022 2//// 39612 40138 53004 333 553// 20000 91116 91210;
0140066060999992011012720004+47050+007067FM-12+043199999V0200601N003119999999N9999999N1+00211+99999101401ADDMA1999999096141MD1310051+9999OA149900881REMSYN088AAXX  27204 06606 33/// /0606 10021 2//// 39614 40140 53005 333 553// 20000 91117 91209;
0140066060999992011012721004+47050+007067FM-12+043199999V0200501N004619999999N9999999N1+00181+99999101431ADDMA1999999096161MD1310051+9999OA149900881REMSYN088AAXX  27214 06606 33/// /0509 10018 2//// 39616 40143 53005 333 553// 20000 91117 91210;
0140066060999992011012722004+47050+007067FM-12+043199999V0200601N005119999999N9999999N1+00161+99999101411ADDMA1999999096141MD1010021+9999OA149900881REMSYN088AAXX  27224 06606 33/// /0610 10016 2//// 39614 40141 50002 333 553// 20000 91117 91210;
0140066060999992011012723004+47050+007067FM-12+043199999V0200501N005119999999N9999999N1+00141+99999101421ADDMA1999999096151MD1210011+9999OA149900881REMSYN088AAXX  27234 06606 33/// /0510 10014 2//// 39615 40142 52001 333 553// 20000 91117 91211;
0140066060999992011012800004+47050+007067FM-12+043199999V0200601N005719999999N9999999N1+00121+99999101431ADDMA1999999096151MD1510011+9999OA149900981REMSYN088AAXX  28004 06606 33/// /0611 10012 2//// 39615 40143 55001 333 553// 20000 91119 91212;
0140066060999992011012801004+47050+007067FM-12+043199999V0200601N005119999999N9999999N1+00111+99999101421ADDMA1999999096141MD1410001+9999OA149900981REMSYN088AAXX  28014 06606 33/// /0610 10011 2//// 39614 40142 54000 333 553// 20000 91119 91212;
0140066060999992011012802004+47050+007067FM-12+043199999V0200501N005719999999N9999999N1+00091+99999101431ADDMA1999999096151MD1410001+9999OA149900981REMSYN088AAXX  28024 06606 33/// /0511 10009 2//// 39615 40143 54000 333 553// 20000 91119 91211;
0161066060999992011012803004+47050+007067FM-12+043199999V0200501N005119999999N9999999N1+00081+99999101441ADDMA1999999096151OA149900981REMSYN088AAXX  28034 06606 33/// /0510 10008 2//// 39615 40144 52000 333 553// 20000 91119 91212;EQDQ01+000022APCTENQ02+000002APC3  
0140066060999992011012804004+47050+007067FM-12+043199999V0200601N003619999999N9999999N1+00081+99999101451ADDMA1999999096161MD1210021+9999OA149900931REMSYN088AAXX  28044 06606 33/// /0607 10008 2//// 39616 40145 52002 333 553// 20000 91118 91212;
0140066060999992011012805004+47050+007067FM-12+043199999V0200601N004119999999N9999999N1+00101+99999101441ADDMA1999999096161MD1210011+9999OA149900931REMSYN088AAXX  28054 06606 33/// /0608 10010 2//// 39616 40144 52001 333 553// 20000 91118 91211;
0175066060999992011012806004+47050+007067FM-12+043199999V0200701N005719999999N9999999N1+00091+99999101481ADDAL19900091KA1999N+00071MA1999999096191MD1210041+9999OA149900981REMSYN100AAXX  28064 06606 33/// /0711 10009 2//// 39619 40148 52004 333 20007 553// 20000 70000 91119 91212;
0140066060999992011012807004+47050+007067FM-12+043199999V0200601N005119999999N9999999N1+00081+99999101521ADDMA1999999096231MD1210071+9999OA149900981REMSYN088AAXX  28074 06606 33/// /0610 10008 2//// 39623 40152 52007 333 553// 20000 91119 91211;
0140066060999992011012808004+47050+007067FM-12+043199999V0200601N005119999999N9999999N1+00081+99999101571ADDMA1999999096281MD1210121+9999OA149900981REMSYN088AAXX  28084 06606 33/// /0610 10008 2//// 39628 40157 52012 333 553// 20032 91119 91211;
0140066060999992011012809004+47050+007067FM-12+043199999V0200601N005119999999N9999999N1+00091+99999101601ADDMA1999999096311MD1110121+9999OA149900981REMSYN088AAXX  28094 06606 33/// /0610 10009 2//// 39631 40160 51012 333 553// 20245 91119 91211;
0140066060999992011012810004+47050+007067FM-12+043199999V0200601N005119999999N9999999N1+00121+99999101651ADDMA1999999096361MD1310131+9999OA149900931REMSYN088AAXX  28104 06606 33/// /0610 10012 2//// 39636 40165 53013 333 553// 20446 91118 91211;
0140066060999992011012811004+47050+007067FM-12+043199999V0200601N005119999999N9999999N1+00151+99999101681ADDMA1999999096391MD1310111+9999OA149900931REMSYN088AAXX  28114 06606 33/// /0610 10015 2//// 39639 40168 53011 333 553// 20497 91118 91211;
0140066060999992011012812004+47050+007067FM-12+043199999V0200701N004619999999N9999999N1+00151+99999101661ADDMA1999999096381MD1010071+9999OA149900981REMSYN088AAXX  28124 06606 33/// /0709 10015 2//// 39638 40166 50007 333 553// 20526 91119 91212;
0140066060999992011012813004+47050+007067FM-12+043199999V0200801N005119999999N9999999N1+00141+99999101631ADDMA1999999096351MD1810011+9999OA149900881REMSYN088AAXX  28134 06606 33/// /0810 10014 2//// 39635 40163 58001 333 553// 20511 91117 91211;
0140066060999992011012814004+47050+007067FM-12+043199999V0200701N005119999999N9999999N1+00141+99999101631ADDMA1999999096351MD1710041+9999OA149900881REMSYN088AAXX  28144 06606 33/// /0710 10014 2//// 39635 40163 57004 333 553// 20724 91117 91210;
0140066060999992011012815004+47050+007067FM-12+043199999V0200701N005119999999N9999999N1+00101+99999101661ADDMA1999999096371MD1510011+9999OA149900931REMSYN088AAXX  28154 06606 33/// /0710 10010 2//// 39637 40166 55001 333 553// 20317 91118 91211;
0140066060999992011012816004+47050+007067FM-12+043199999V0200701N004619999999N9999999N1+00101+99999101691ADDMA1999999096391MD1210041+9999OA149900931REMSYN088AAXX  28164 06606 33/// /0709 10010 2//// 39639 40169 52004 333 553// 20191 91118 91211;
0140066060999992011012817004+47050+007067FM-12+043199999V0200401N003619999999N9999999N1+00091+99999101721ADDMA1999999096421MD1310071+9999OA149900881REMSYN088AAXX  28174 06606 33/// /0407 10009 2//// 39642 40172 53007 333 553// 20011 91117 91210;
0159066060999992011012818004+47050+007067FM-12+043199999V0200501N003619999999N9999999N1+00081+99999101751ADDKA1120M+00191MA1999999096451MD1310081+9999OA149900981REMSYN094AAXX  28184 06606 33/// /0507 10008 2//// 39645 40175 53008 333 10019 553// 20000 91119 91211;
0140066060999992011012819004+47050+007067FM-12+043199999V0200501N004619999999N9999999N1+00071+99999101771ADDMA1999999096461MD1210071+9999OA149900721REMSYN088AAXX  28194 06606 33/// /0509 10007 2//// 39646 40177 52007 333 553// 20000 91114 91209;
0140066060999992011012820004+47050+007067FM-12+043199999V0200501N005119999999N9999999N1+00041+99999101791ADDMA1999999096481MD1210061+9999OA149900771REMSYN088AAXX  28204 06606 33/// /0510 10004 2//// 39648 40179 52006 333 553// 20000 91115 91210;
0140066060999992011012821004+47050+007067FM-12+043199999V0200501N004119999999N9999999N1+00021+99999101801ADDMA1999999096481MD1210031+9999OA149900881REMSYN088AAXX  28214 06606 33/// /0508 10002 2//// 39648 40180 52003 333 553// 20000 91117 91210;
0140066060999992011012822004+47050+007067FM-12+043199999V0200501N004119999999N9999999N1+00011+99999101791ADDMA1999999096471MD1010011+9999OA149900671REMSYN088AAXX  28224 06606 33/// /0508 10001 2//// 39647 40179 50001 333 553// 20000 91113 91209;
0140066060999992011012823004+47050+007067FM-12+043199999V0200501N003119999999N9999999N1-00011+99999101831ADDMA1999999096511MD1210031+9999OA149900621REMSYN088AAXX  28234 06606 33/// /0506 11001 2//// 39651 40183 52003 333 553// 20000 91112 91209;
0140066060999992011012900004+47050+007067FM-12+043199999V0200501N002119999999N9999999N1-00021+99999101851ADDMA1999999096521MD1210041+9999OA149900931REMSYN088AAXX  29004 06606 33/// /0504 11002 2//// 39652 40185 52004 333 553// 20000 91118 91211;
0140066060999992011012901004+47050+007067FM-12+043199999V0203601N002119999999N9999999N1-00051+99999101841ADDMA1999999096511MD1210041+9999OA149900511REMSYN088AAXX  29014 06606 33/// /3604 11005 2//// 39651 40184 52004 333 553// 20000 91110 91206;
0140066060999992011012902004+47050+007067FM-12+043199999V0203401N003119999999N9999999N1-00091+99999101831ADDMA1999999096491MD1810021+9999OA149900411REMSYN088AAXX  29024 06606 33/// /3406 11009 2//// 39649 40183 58002 333 553// 20000 91108 91206;
0140066060999992011012903004+47050+007067FM-12+043199999V0209999C002119999999N9999999N1-00111+99999101781ADDMA1999999096441MD1810081+9999OA149900621REMSYN088AAXX  29034 06606 33/// /0004 11011 2//// 39644 40178 58008 333 553// 20000 91112 91209;
0140066060999992011012904004+47050+007067FM-12+043199999V0200201N001519999999N9999999N1-00111+99999101781ADDMA1999999096441MD1610071+9999OA149900411REMSYN088AAXX  29044 06606 33/// /0203 11011 2//// 39644 40178 56007 333 553// 20000 91108 91206;
0140066060999992011012905004+47050+007067FM-12+043199999V0200201N001519999999N9999999N1-00111+99999101761ADDMA1999999096421MD1610071+9999OA149900311REMSYN088AAXX  29054 06606 33/// /0203 11011 2//// 39642 40176 56007 333 553// 20000 91106 91205;
0175066060999992011012906004+47050+007067FM-12+043199999V0200101N001519999999N9999999N1-00121+99999101741ADDAL19900091KA1999N-00121MA1999999096401MD1810041+9999OA149900771REMSYN100AAXX  29064 06606 33/// /0103 11012 2//// 39640 40174 58004 333 21012 553// 20000 70000 91115 91210;
0140066060999992011012907004+47050+007067FM-12+043199999V0200201N003119999999N9999999N1-00171+99999101761ADDMA1999999096411MD1510031+9999OA149900461REMSYN088AAXX  29074 06606 33/// /0206 11017 2//// 39641 40176 55003 333 553// 20000 91109 91206;
0159066060999992011012908004+47050+007067FM-12+043199999V0200201N002119999999N9999999N1-00151+99999101771ADDMA1999999096421MD1310011+9999OA149900461REMSYN088AAXX  29084 06606 33/// /0204 11015 2//// 39642 40177 53000 333 553// 20029 91109 91206;EQDQ01+000002APC3  
0140066060999992011012909004+47050+007067FM-12+043199999V0200201N002619999999N9999999N1-00111+99999101751ADDMA1999999096411MD1010011+9999OA149900461REMSYN088AAXX  29094 06606 33/// /0205 11011 2//// 39641 40175 50001 333 553// 20205 91109 91206;
0140066060999992011012910004+47050+007067FM-12+043199999V0200201N001519999999N9999999N1-00071+99999101711ADDMA1999999096381MD1710031+9999OA149900361REMSYN088AAXX  29104 06606 33/// /0203 11007 2//// 39638 40171 57003 333 553// 20349 91107 91205;
0140066060999992011012911004+47050+007067FM-12+043199999V0200601N001519999999N9999999N1+00021+99999101661ADDMA1999999096351MD1710071+9999OA149900361REMSYN088AAXX  29114 06606 33/// /0603 10002 2//// 39635 40166 57007 333 553// 20785 91107 91205;
0140066060999992011012912004+47050+007067FM-12+043199999V0200801N002119999999N9999999N1+00141+99999101551ADDMA1999999096271MD1710141+9999OA149900461REMSYN088AAXX  29124 06606 33/// /0804 10014 2//// 39627 40155 57014 333 553// 2//// 91109 91206;
0140066060999992011012913004+47050+007067FM-12+043199999V0200801N002119999999N9999999N1+00191+99999101481ADDMA1999999096211MD1810171+9999OA149900361REMSYN088AAXX  29134 06606 33/// /0804 10019 2//// 39621 40148 58017 333 553// 2//// 91107 91204;
0140066060999992011012914004+47050+007067FM-12+043199999V0200701N002119999999N9999999N1+00251+99999101401ADDMA1999999096151MD1710201+9999OA149900361REMSYN088AAXX  29144 06606 33/// /0704 10025 2//// 39615 40140 57020 333 553// 2//// 91107 91204;
0140066060999992011012915004+47050+007067FM-12+043199999V0200801N002619999999N9999999N1+00281+99999101351ADDMA1999999096111MD1610161+9999OA149900411REMSYN088AAXX  29154 06606 33/// /0805 10028 2//// 39611 40135 56016 333 553// 20785 91108 91205;
0140066060999992011012916004+47050+007067FM-12+043199999V0200701N004119999999N9999999N1+00221+99999101371ADDMA1999999096111MD1710101+9999OA149900671REMSYN088AAXX  29164 06606 33/// /0708 10022 2//// 39611 40137 57010 333 553// 20313 91113 91208;
0140066060999992011012917004+47050+007067FM-12+043199999V0200701N005119999999N9999999N1+00121+99999101381ADDMA1999999096101MD1719999+9999OA149900821REMSYN088AAXX  29174 06606 33/// /0710 10012 2//// 39610 40138 57/// 333 553// 20018 91116 91210;
0159066060999992011012918004+47050+007067FM-12+043199999V0200501N004119999999N9999999N1+00051+99999101461ADDKA1120M+00281MA1999999096171MD1310061+9999OA149900821REMSYN094AAXX  29184 06606 33/// /0508 10005 2//// 39617 40146 53006 333 10028 553// 20000 91116 91210;
0140066060999992011012919004+47050+007067FM-12+043199999V0200601N006219999999N9999999N1+00001+99999101471ADDMA1999999096171MD1210061+9999OA149900881REMSYN088AAXX  29194 06606 33/// /0612 10000 2//// 39617 40147 52006 333 553// 20000 91117 91212;
0140066060999992011012920004+47050+007067FM-12+043199999V0200701N004619999999N9999999N1-00061+99999101461ADDMA1999999096151MD1019999+9999OA149900931REMSYN088AAXX  29204 06606 33/// /0709 11006 2//// 39615 40146 50/// 333 553// 20000 91118 91212;
0140066060999992011012921004+47050+007067FM-12+043199999V0200801N007719999999N9999999N1-00121+99999101481ADDMA1999999096151MD1710021+9999OA149901081REMSYN088AAXX  29214 06606 33/// /0815 11012 2//// 39615 40148 57002 333 553// 20000 91121 91214;
0140066060999992011012922004+47050+007067FM-12+043199999V0200701N004119999999N9999999N1-00131+99999101551ADDMA1999999096221MD1310051+9999OA149901081REMSYN088AAXX  29224 06606 33/// /0708 11013 2//// 39622 40155 53005 333 553// 20000 91121 91214;
0140066060999992011012923004+47050+007067FM-12+043199999V0200501N004119999999N9999999N1-00181+99999101531ADDMA1999999096191MD1210041+9999OA149900981REMSYN088AAXX  29234 06606 33/// /0508 11018 2//// 39619 40153 52004 333 553// 20000 91119 91213;
0140066060999992011013000004+47050+007067FM-12+043199999V0200601N004119999999N9999999N1-00181+99999101561ADDMA1999999096221MD1210071+9999OA149901081REMSYN088AAXX  30004 06606 33/// /0608 11018 2//// 39622 40156 52007 333 553// 20000 91121 91214;
0140066060999992011013001004+47050+007067FM-12+043199999V0200401N003619999999N9999999N1-00191+99999101511ADDMA1999999096171MD1710051+9999OA149900821REMSYN088AAXX  30014 06606 33/// /0407 11019 2//// 39617 40151 57005 333 553// 20000 91116 91210;
0140066060999992011013002004+47050+007067FM-12+043199999V0200801N004119999999N9999999N1-00211+99999101561ADDMA1999999096211MD1310021+9999OA149900821REMSYN088AAXX  30024 06606 33/// /0808 11021 2//// 39621 40156 53002 333 553// 20000 91116 91210;
0140066060999992011013003004+47050+007067FM-12+043199999V0200901N003619999999N9999999N1-00231+99999101551ADDMA1999999096201MD1519999+9999OA149900981REMSYN088AAXX  30034 06606 33/// /0907 11023 2//// 39620 40155 55/// 333 553// 20000 91119 91213;
0140066060999992011013004004+47050+007067FM-12+043199999V0200501N001519999999N9999999N1-00251+99999101541ADDMA1999999096181MD1010011+9999OA149900721REMSYN088AAXX  30044 06606 33/// /0503 11025 2//// 39618 40154 50001 333 553// 20000 91114 91208;
0140066060999992011013005004+47050+007067FM-12+043199999V0200401N002619999999N9999999N1-00251+99999101561ADDMA1999999096201MD1510011+9999OA149900671REMSYN088AAXX  30054 06606 33/// /0405 11025 2//// 39620 40156 55001 333 553// 20000 91113 91208;
0175066060999992011013006004+47050+007067FM-12+043199999V0209999C003119999999N9999999N1-00281+99999101561ADDAL19900091KA1999N-00261MA1999999096201MD1219999+9999OA149901081REMSYN100AAXX  30064 06606 33/// /0006 11028 2//// 39620 40156 52/// 333 21026 553// 20000 70000 91121 91214;
0140066060999992011013007004+47050+007067FM-12+043199999V0200301N003119999999N9999999N1-00271+99999101631ADDMA1999999096271MD1210091+9999OA149900511REMSYN088AAXX  30074 06606 33/// /0306 11027 2//// 39627 40163 52009 333 553// 20000 91110 91206;
0140066060999992011013008004+47050+007067FM-12+043199999V0200501N002119999999N9999999N1-00251+99999101671ADDMA1999999096311MD1210111+9999OA149900511REMSYN088AAXX  30084 06606 33/// /0504 11025 2//// 39631 40167 52011 333 553// 20004 91110 91206;
0140066060999992011013009004+47050+007067FM-12+043199999V0200201N003119999999N9999999N1-00261+99999101701ADDMA1999999096331MD1210131+9999OA149900671REMSYN088AAXX  30094 06606 33/// /0206 11026 2//// 39633 40170 52013 333 553// 20054 91113 91208;
0140066060999992011013010004+47050+007067FM-12+043199999V0201201N002619999999N9999999N1-00241+99999101701ADDMA1999999096341MD1210071+9999OA149900511REMSYN088AAXX  30104 06606 33/// /1205 11024 2//// 39634 40170 52007 333 553// 20180 91110 91207;
0140066060999992011013011004+47050+007067FM-12+043199999V0200801N003119999999N9999999N1-00231+99999101681ADDMA1999999096321MD1010011+9999OA149900461REMSYN088AAXX  30114 06606 33/// /0806 11023 2//// 39632 40168 50001 333 553// 20259 91109 91206;
0140066060999992011013012004+47050+007067FM-12+043199999V0201001N002119999999N9999999N1-00221+99999101661ADDMA1999999096301MD1810031+9999OA149900821REMSYN088AAXX  30124 06606 33/// /1004 11022 2//// 39630 40166 58003 333 553// 20335 91116 91210;
0140066060999992011013013004+47050+007067FM-12+043199999V0201001N002619999999N9999999N1-00211+99999101631ADDMA1999999096281MD1710061+9999OA149900461REMSYN088AAXX  30134 06606 33/// /1005 11021 2//// 39628 40163 57006 333 553// 20328 91109 91205;
0140066060999992011013014004+47050+007067FM-12+043199999V0200901N003119999999N9999999N1-00191+99999101641ADDMA1999999096291MD1710031+9999OA149900571REMSYN088AAXX  30144 06606 33/// /0906 11019 2//// 39629 40164 57003 333 553// 20234 91111 91206;
0140066060999992011013015004+47050+007067FM-12+043199999V0200801N002619999999N9999999N1-00191+99999101671ADDMA1999999096321MD1310021+9999OA149900571REMSYN088AAXX  30154 06606 33/// /0805 11019 2//// 39632 40167 53002 333 553// 20122 91111 91206;
0140066060999992011013016004+47050+007067FM-12+043199999V0200601N002619999999N9999999N1-00201+99999101711ADDMA1999999096361MD1210081+9999OA149900571REMSYN088AAXX  30164 06606 33/// /0605 11020 2//// 39636 40171 52008 333 553// 20054 91111 91208;
0140066060999992011013017004+47050+007067FM-12+043199999V0200801N002119999999N9999999N1-00221+99999101781ADDMA1999999096421MD1210131+9999OA149900571REMSYN088AAXX  30174 06606 33/// /0804 11022 2//// 39642 40178 52013 333 553// 20000 91111 91208;
0159066060999992011013018004+47050+007067FM-12+043199999V0200601N002619999999N9999999N1-00211+99999101841ADDKA1120M-00191MA1999999096481MD1210161+9999OA149900571REMSYN094AAXX  30184 06606 33/// /0605 11021 2//// 39648 40184 52016 333 11019 553// 20000 91111 91208;
0140066060999992011013019004+47050+007067FM-12+043199999V0200701N003119999999N9999999N1-00211+99999101911ADDMA1999999096541MD1210181+9999OA149900461REMSYN088AAXX  30194 06606 33/// /0706 11021 2//// 39654 40191 52018 333 553// 20000 91109 91206;
0140066060999992011013020004+47050+007067FM-12+043199999V0200601N003119999999N9999999N1-00211+99999101941ADDMA1999999096571MD1110151+9999OA149900571REMSYN088AAXX  30204 06606 33/// /0606 11021 2//// 39657 40194 51015 333 553// 20000 91111 91207;
0140066060999992011013021004+47050+007067FM-12+043199999V0200301N001519999999N9999999N1-00231+99999102001ADDMA1999999096621MD1210141+9999OA149900571REMSYN088AAXX  30214 06606 33/// /0303 11023 2//// 39662 40200 52014 333 553// 20000 91111 91208;
0140066060999992011013022004+47050+007067FM-12+043199999V0200401N001519999999N9999999N1-00231+99999102041ADDMA1999999096661MD1210121+9999OA149900461REMSYN088AAXX  30224 06606 33/// /0403 11023 2//// 39666 40204 52012 333 553// 20000 91109 91205;
0140066060999992011013023004+47050+007067FM-12+043199999V0200201N001519999999N9999999N1-00251+99999102071ADDMA1999999096691MD1110121+9999OA149900461REMSYN088AAXX  30234 06606 33/// /0203 11025 2//// 39669 40207 51012 333 553// 20000 91109 91205;
0140066060999992011013100004+47050+007067FM-12+043199999V0200601N001519999999N9999999N1-00241+99999102101ADDMA1999999096721MD1110101+9999OA149900571REMSYN088AAXX  31004 06606 33/// /0603 11024 2//// 39672 40210 51010 333 553// 20000 91111 91208;
0140066060999992011013101004+47050+007067FM-12+043199999V0201301N000519999999N9999999N1-00241+99999102091ADDMA1999999096711MD1210051+9999OA149900411REMSYN088AAXX  31014 06606 33/// /1301 11024 2//// 39671 40209 52005 333 553// 20000 91108 91204;
0140066060999992011013102004+47050+007067FM-12+043199999V0201901N001519999999N9999999N1-00261+99999102111ADDMA1999999096721MD1210031+9999OA149900411REMSYN088AAXX  31024 06606 33/// /1903 11026 2//// 39672 40211 52003 333 553// 20000 91108 91204;
0140066060999992011013103004+47050+007067FM-12+043199999V0201001N000519999999N9999999N1-00251+99999102091ADDMA1999999096711MD1010011+9999OA149900461REMSYN088AAXX  31034 06606 33/// /1001 11025 2//// 39671 40209 50001 333 553// 20000 91109 91205;
0140066060999992011013104004+47050+007067FM-12+043199999V0200401N001019999999N9999999N1-00251+99999102091ADDMA1999999096711MD1010001+9999OA149900211REMSYN088AAXX  31044 06606 33/// /0402 11025 2//// 39671 40209 50000 333 553// 20000 91104 91203;
0140066060999992011013105004+47050+007067FM-12+043199999V0200601N001519999999N9999999N1-00241+99999102111ADDMA1999999096731MD1210011+9999OA149900261REMSYN088AAXX  31054 06606 33/// /0603 11024 2//// 39673 40211 52001 333 553// 20000 91105 91203;
0175066060999992011013106004+47050+007067FM-12+043199999V0200201N002619999999N9999999N1-00261+99999102161ADDAL19900091KA1999N-00261MA1999999096771MD1310061+9999OA149900571REMSYN100AAXX  31064 06606 33/// /0205 11026 2//// 39677 40216 53006 333 21026 553// 20000 70000 91111 91207;
0140066060999992011013107004+47050+007067FM-12+043199999V0203501N001019999999N9999999N1-00251+99999102211ADDMA1999999096821MD1210111+9999OA149900411REMSYN088AAXX  31074 06606 33/// /3502 11025 2//// 39682 40221 52011 333 553// 20000 91108 91206;
0140066060999992011013108004+47050+007067FM-12+043199999V0200401N001519999999N9999999N1-00241+99999102271ADDMA1999999096881MD1210151+9999OA149900311REMSYN088AAXX  31084 06606 33/// /0403 11024 2//// 39688 40227 52015 333 553// 20004 91106 91204;
0140066060999992011013109004+47050+007067FM-12+043199999V0200201N002119999999N9999999N1-00251+99999102311ADDMA1999999096911MD1110141+9999OA149900411REMSYN088AAXX  31094 06606 33/// /0204 11025 2//// 39691 40231 51014 333 553// 20065 91108 91206;
0140066060999992011013110004+47050+007067FM-12+043199999V0200901N001519999999N9999999N1-00231+99999102341ADDMA1999999096951MD1110131+9999OA149900361REMSYN088AAXX  31104 06606 33/// /0903 11023 2//// 39695 40234 51013 333 553// 20158 91107 91205;
0140066060999992011013111004+47050+007067FM-12+043199999V0201001N001519999999N9999999N1-00231+99999102371ADDMA1999999096971MD1210091+9999OA149900361REMSYN088AAXX  31114 06606 33/// /1003 11023 2//// 39697 40237 52009 333 553// 20281 91107 91205;
0140066060999992011013112004+47050+007067FM-12+043199999V0201101N002119999999N9999999N1-00221+99999102361ADDMA1999999096971MD1210061+9999OA149900411REMSYN088AAXX  31124 06606 33/// /1104 11022 2//// 39697 40236 52006 333 553// 20418 91108 91206;
0140066060999992011013113004+47050+007067FM-12+043199999V0201001N002619999999N9999999N1-00211+99999102321ADDMA1999999096931MD1810021+9999OA149900511REMSYN088AAXX  31134 06606 33/// /1005 11021 2//// 39693 40232 58002 333 553// 20392 91110 91205;
0140066060999992011013114004+47050+007067FM-12+043199999V0201001N002119999999N9999999N1-00191+99999102301ADDMA1999999096921MD1810051+9999OA149900511REMSYN088AAXX  31144 06606 33/// /1004 11019 2//// 39692 40230 58005 333 553// 20342 91110 91205;
0140066060999992011013115004+47050+007067FM-12+043199999V0201001N002619999999N9999999N1-00191+99999102341ADDMA1999999096951MD1510021+9999OA149900511REMSYN088AAXX  31154 06606 33/// /1005 11019 2//// 39695 40234 55002 333 553// 20209 91110 91205;
0140066060999992011013116004+47050+007067FM-12+043199999V0201201N002119999999N9999999N1-00191+99999102381ADDMA1999999096991MD1210061+9999OA149900461REMSYN088AAXX  31164 06606 33/// /1204 11019 2//// 39699 40238 52006 333 553// 20065 91109 91206;
0140066060999992011013117004+47050+007067FM-12+043199999V0209999C001519999999N9999999N1-00191+99999102441ADDMA1999999097051MD1310131+9999OA149900461REMSYN088AAXX  31174 06606 33/// /0003 11019 2//// 39705 40244 53013 333 553// 20000 91109 91206;
0159066060999992011013118004+47050+007067FM-12+043199999V0200301N001519999999N9999999N1-00201+99999102501ADDKA1120M-00181MA1999999097101MD1310151+9999OA149900511REMSYN094AAXX  31184 06606 33/// /0303 11020 2//// 39710 40250 53015 333 11018 553// 20000 91110 91206;
0140066060999992011013119004+47050+007067FM-12+043199999V0200801N001019999999N9999999N1-00211+99999102551ADDMA1999999097151MD1110161+9999OA149900411REMSYN088AAXX  31194 06606 33/// /0802 11021 2//// 39715 40255 51016 333 553// 20000 91108 91204;
0140066060999992011013120004+47050+007067FM-12+043199999V0201001N002619999999N9999999N1-00251+99999102591ADDMA1999999097181MD1110131+9999OA149900461REMSYN088AAXX  31204 06606 33/// /1005 11025 2//// 39718 40259 51013 333 553// 20000 91109 91205;
0140066060999992011013121004+47050+007067FM-12+043199999V0201101N002619999999N9999999N1-00271+99999102641ADDMA1999999097221MD1310121+9999OA149900511REMSYN088AAXX  31214 06606 33/// /1105 11027 2//// 39722 40264 53012 333 553// 20000 91110 91206;
0140066060999992011013122004+47050+007067FM-12+043199999V0201101N002619999999N9999999N1-00281+99999102671ADDMA1999999097251MD1110101+9999OA149900511REMSYN088AAXX  31224 06606 33/// /1105 11028 2//// 39725 40267 51010 333 553// 20000 91110 91206;
0140066060999992011013123004+47050+007067FM-12+043199999V0201101N002119999999N9999999N1-00291+99999102671ADDMA1999999097251MD1210071+9999OA149900411REMSYN088AAXX  31234 06606 33/// /1104 11029 2//// 39725 40267 52007 333 553// 20000 91108 91205;
0140066060999992011020100004+47050+007067FM-12+043199999V0201601N001019999999N9999999N1-00311+99999102681ADDMA1999999097251MD1210031+9999OA149900511REMSYN088AAXX  01004 06606 33/// /1602 11031 2//// 39725 40268 52003 333 553// 20000 91110 91206;
0140066060999992011020101004+47050+007067FM-12+043199999V0200901N000519999999N9999999N1-00301+99999102681ADDMA1999999097251MD1410001+9999OA149900261REMSYN088AAXX  01014 06606 33/// /0901 11030 2//// 39725 40268 54000 333 553// 20000 91105 91203;
0140066060999992011020102004+47050+007067FM-12+043199999V0200201N001019999999N9999999N1-00301+99999102681ADDMA1999999097251MD1410001+9999OA149900261REMSYN088AAXX  01024 06606 33/// /0202 11030 2//// 39725 40268 54000 333 553// 20000 91105 91203;
0140066060999992011020103004+47050+007067FM-12+043199999V0200901N001019999999N9999999N1-00321+99999102681ADDMA1999999097251MD1410001+9999OA149900411REMSYN088AAXX  01034 06606 33/// /0902 11032 2//// 39725 40268 54000 333 553// 20000 91108 91205;
0140066060999992011020104004+47050+007067FM-12+043199999V0200701N001519999999N9999999N1-00331+99999102691ADDMA1999999097261MD1210011+9999OA149900411REMSYN088AAXX  01044 06606 33/// /0703 11033 2//// 39726 40269 52001 333 553// 20000 91108 91204;
0159066060999992011020105004+47050+007067FM-12+043199999V0203401N001519999999N9999999N1-00341+99999102681ADDMA1999999097251MD1410001+9999OA149900411REMSYN088AAXX  01054 06606 33/// /3403 11034 2//// 39725 40268 57000 333 553// 20000 91108 91204;EQDQ01+000072APCTEN
0175066060999992011020106004+47050+007067FM-12+043199999V0200201N001519999999N9999999N1-00341+99999102701ADDAL19900091KA1999N-00341MA1999999097271MD1210021+9999OA149900511REMSYN100AAXX  01064 06606 33/// /0203 11034 2//// 39727 40270 52002 333 21034 553// 20000 70000 91110 91206;
0140066060999992011020107004+47050+007067FM-12+043199999V0201301N001019999999N9999999N1-00341+99999102771ADDMA1999999097331MD1310071+9999OA149900311REMSYN088AAXX  01074 06606 33/// /1302 11034 2//// 39733 40277 53007 333 553// 20000 91106 91203;
0140066060999992011020108004+47050+007067FM-12+043199999V0200401N001519999999N9999999N1-00341+99999102821ADDMA1999999097381MD1310131+9999OA149900311REMSYN088AAXX  01084 06606 33/// /0403 11034 2//// 39738 40282 53013 333 553// 20011 91106 91204;
0140066060999992011020109004+47050+007067FM-12+043199999V0201101N001019999999N9999999N1-00321+99999102891ADDMA1999999097451MD1210181+9999OA149900411REMSYN088AAXX  01094 06606 33/// /1102 11032 2//// 39745 40289 52018 333 553// 20108 91108 91204;
0140066060999992011020110004+47050+007067FM-12+043199999V0200901N000519999999N9999999N1-00291+99999102941ADDMA1999999097501MD1110171+9999OA149900361REMSYN088AAXX  01104 06606 33/// /0901 11029 2//// 39750 40294 51017 333 553// 20162 91107 91204;
0140066060999992011020111004+47050+007067FM-12+043199999V0201301N001519999999N9999999N1-00291+99999102961ADDMA1999999097521MD1110141+9999OA149900311REMSYN088AAXX  01114 06606 33/// /1303 11029 2//// 39752 40296 51014 333 553// 20184 91106 91203;
0140066060999992011020112004+47050+007067FM-12+043199999V0201201N001519999999N9999999N1-00291+99999102941ADDMA1999999097501MD1010051+9999OA149900411REMSYN088AAXX  01124 06606 33/// /1203 11029 2//// 39750 40294 50005 333 553// 20212 91108 91204;
0140066060999992011020113004+47050+007067FM-12+043199999V0201101N002119999999N9999999N1-00271+99999102901ADDMA1999999097471MD1710031+9999OA149900311REMSYN088AAXX  01134 06606 33/// /1104 11027 2//// 39747 40290 57003 333 553// 20288 91106 91204;
0140066060999992011020114004+47050+007067FM-12+043199999V0201001N001519999999N9999999N1-00241+99999102861ADDMA1999999097441MD1610081+9999OA149900311REMSYN088AAXX  01144 06606 33/// /1003 11024 2//// 39744 40286 56008 333 553// 20288 91106 91204;
0140066060999992011020115004+47050+007067FM-12+043199999V0201301N002119999999N9999999N1-00251+99999102851ADDMA1999999097431MD1610071+9999OA149900311REMSYN088AAXX  01154 06606 33/// /1304 11025 2//// 39743 40285 56007 333 553// 20187 91106 91204;
0140066060999992011020116004+47050+007067FM-12+043199999V0200901N001019999999N9999999N1-00241+99999102881ADDMA1999999097461MD1510011+9999OA149900361REMSYN088AAXX  01164 06606 33/// /0902 11024 2//// 39746 40288 55001 333 553// 20061 91107 91204;
0140066060999992011020117004+47050+007067FM-12+043199999V0201701N001519999999N9999999N1-00271+99999102951ADDMA1999999097521MD1210081+9999OA149900361REMSYN088AAXX  01174 06606 33/// /1703 11027 2//// 39752 40295 52008 333 553// 20000 91107 91204;
0159066060999992011020118004+47050+007067FM-12+043199999V0200801N000519999999N9999999N1-00261+99999103001ADDKA1120M-00241MA1999999097571MD1310141+9999OA149900361REMSYN094AAXX  01184 06606 33/// /0801 11026 2//// 39757 40300 53014 333 11024 553// 20000 91107 91204;
0140066060999992011020119004+47050+007067FM-12+043199999V0201301N001519999999N9999999N1-00281+99999103071ADDMA1999999097631MD1310171+9999OA149900311REMSYN088AAXX  01194 06606 33/// /1303 11028 2//// 39763 40307 53017 333 553// 20000 91106 91203;
0140066060999992011020120004+47050+007067FM-12+043199999V0201301N000519999999N9999999N1-00281+99999103111ADDMA1999999097671MD1110151+9999OA149900311REMSYN088AAXX  01204 06606 33/// /1301 11028 2//// 39767 40311 51015 333 553// 20000 91106 91203;
0140066060999992011020121004+47050+007067FM-12+043199999V0201801N001019999999N9999999N1-00281+99999103131ADDMA1999999097681MD1210111+9999OA149900361REMSYN088AAXX  01214 06606 33/// /1802 11028 2//// 39768 40313 52011 333 553// 20000 91107 91204;
0140066060999992011020122004+47050+007067FM-12+043199999V0202701N001019999999N9999999N1-00281+99999103141ADDMA1999999097691MD1210061+9999OA149900311REMSYN088AAXX  01224 06606 33/// /2702 11028 2//// 39769 40314 52006 333 553// 20000 91106 91203;
0140066060999992011020123004+47050+007067FM-12+043199999V0201801N001519999999N9999999N1-00291+99999103161ADDMA1999999097711MD1210041+9999OA149900261REMSYN088AAXX  01234 06606 33/// /1803 11029 2//// 39771 40316 52004 333 553// 20000 91105 91203;
0087066060999992011020200004+47050+007067FM-12+043199999V0202901N001519999999N9999999N1-00291+99999103181ADDMA1999999097731REMSYN060AAXX  02004 06606 43/// /2903 11029 2//// 39773 40318 5////;
0087066060999992011020201004+47050+007067FM-12+043199999V0202501N001019999999N9999999N1-00311+99999103231ADDMA1999999097771REMSYN060AAXX  02014 06606 43/// /2502 11031 2//// 39777 40323 5////;
0087066060999992011020202004+47050+007067FM-12+043199999V0209999C000019999999N9999999N1-00291+99999103241ADDMA1999999097791REMSYN060AAXX  02024 06606 43/// /0000 11029 2//// 39779 40324 5////;
0087066060999992011020203004+47050+007067FM-12+043199999V0200201N001519999999N9999999N1-00301+99999103251ADDMA1999999097791REMSYN060AAXX  02034 06606 43/// /0203 11030 2//// 39779 40325 5////;
0087066060999992011020204004+47050+007067FM-12+043199999V0200201N002619999999N9999999N1-00351+99999103251ADDMA1999999097781REMSYN060AAXX  02044 06606 43/// /0205 11035 2//// 39778 40325 5////;
0087066060999992011020205004+47050+007067FM-12+043199999V0209999C003119999999N9999999N1-00381+99999103271ADDMA1999999097801REMSYN060AAXX  02054 06606 43/// /0006 11038 2//// 39780 40327 5////;
0127066060999992011020206004+47050+007067FM-12+043199999V0200301N001519999999N9999999N1-00391+99999103321ADDAA124000091MA1999999097841REMSYN070AAXX  02064 06606 43/// /0303 11039 2//// 39784 40332 5//// 333 70000;EQDQ01  00002PRCP24
0087066060999992011020207004+47050+007067FM-12+043199999V0200201N003119999999N9999999N1-00431+99999103341ADDMA1999999097851REMSYN060AAXX  02074 06606 43/// /0206 11043 2//// 39785 40334 5////;
0140066060999992011020208004+47050+007067FM-12+043199999V0209999C004119999999N9999999N1-00491+99999103371ADDMA1999999097871MD1210071+9999OA149900511REMSYN088AAXX  02084 06606 33/// /0008 11049 2//// 39787 40337 52007 333 553// 20047 91110 91207;
0140066060999992011020209004+47050+007067FM-12+043199999V0200401N003619999999N9999999N1-00361+99999103391ADDMA1999999097911MD1210071+9999OA149900571REMSYN088AAXX  02094 06606 33/// /0407 11036 2//// 39791 40339 52007 333 553// 20144 91111 91208;
0140066060999992011020210004+47050+007067FM-12+043199999V0200701N004119999999N9999999N1-00331+99999103401ADDMA1999999097931MD1210081+9999OA149900621REMSYN088AAXX  02104 06606 33/// /0708 11033 2//// 39793 40340 52008 333 553// 20353 91112 91208;
0140066060999992011020211004+47050+007067FM-12+043199999V0200901N004119999999N9999999N1-00241+99999103351ADDMA1999999097901MD1010031+9999OA149900721REMSYN088AAXX  02114 06606 33/// /0908 11024 2//// 39790 40335 50003 333 553// 2//// 91114 91208;
0140066060999992011020212004+47050+007067FM-12+043199999V0200701N004119999999N9999999N1-00141+99999103281ADDMA1999999097851MD1710061+9999OA149900721REMSYN088AAXX  02124 06606 33/// /0708 11014 2//// 39785 40328 57006 333 553// 2//// 91114 91208;
0140066060999992011020213004+47050+007067FM-12+043199999V0200801N003619999999N9999999N1-00071+99999103191ADDMA1999999097781MD1710151+9999OA149900621REMSYN088AAXX  02134 06606 33/// /0807 11007 2//// 39778 40319 57015 333 553// 2//// 91112 91208;
0103066060999992011020214004+47050+007067FM-12+043199999V0200801N004119999999N9999999N1+00031+99999103121ADDMA1999999097741REMSYN076AAXX  02144 06606 33/// /0808 10003 2//// 39774 40312 5//// 333 553// 2////;
0140066060999992011020215004+47050+007067FM-12+043199999V0200801N003119999999N9999999N1+00061+99999103101ADDMA1999999097721MD1610131+9999OA149900721REMSYN088AAXX  02154 06606 33/// /0806 10006 2//// 39772 40310 56013 333 553// 20853 91114 91208;
0140066060999992011020216004+47050+007067FM-12+043199999V0200801N003119999999N9999999N1+00021+99999103101ADDMA1999999097721MD1710061+9999OA149900571REMSYN088AAXX  02164 06606 33/// /0806 10002 2//// 39772 40310 57006 333 553// 20374 91111 91208;
0140066060999992011020217004+47050+007067FM-12+043199999V0200701N002619999999N9999999N1-00031+99999103151ADDMA1999999097751MD1310011+9999OA149900511REMSYN088AAXX  02174 06606 33/// /0705 11003 2//// 39775 40315 53001 333 553// 20029 91110 91207;
0159066060999992011020218004+47050+007067FM-12+043199999V0200701N004119999999N9999999N1-00061+99999103201ADDKA1120M+00061MA1999999097791MD1310071+9999OA149900721REMSYN094AAXX  02184 06606 33/// /0708 11006 2//// 39779 40320 53007 333 10006 553// 20000 91114 91209;
0140066060999992011020219004+47050+007067FM-12+043199999V0200701N004619999999N9999999N1-00131+99999103261ADDMA1999999097841MD1210121+9999OA149900721REMSYN088AAXX  02194 06606 33/// /0709 11013 2//// 39784 40326 52012 333 553// 20000 91114 91209;
0140066060999992011020220004+47050+007067FM-12+043199999V0200601N005119999999N9999999N1-00191+99999103291ADDMA1999999097851MD1110101+9999OA149900821REMSYN088AAXX  02204 06606 33/// /0610 11019 2//// 39785 40329 51010 333 553// 20000 91116 91211;
0140066060999992011020221004+47050+007067FM-12+043199999V0200501N003619999999N9999999N1-00231+99999103291ADDMA1999999097851MD1210061+9999OA149900821REMSYN088AAXX  02214 06606 33/// /0507 11023 2//// 39785 40329 52006 333 553// 20000 91116 91211;
0140066060999992011020222004+47050+007067FM-12+043199999V0200301N002619999999N9999999N1-00331+99999103301ADDMA1999999097841MD1010001+9999OA149900771REMSYN088AAXX  02224 06606 33/// /0305 11033 2//// 39784 40330 50000 333 553// 20000 91115 91211;
0140066060999992011020223004+47050+007067FM-12+043199999V0202801N000519999999N9999999N1-00521+99999103371ADDMA1999999097861MD1210011+9999OA149900621REMSYN088AAXX  02234 06606 33/// /2801 11052 2//// 39786 40337 52001 333 553// 20000 91112 91206;
0140066060999992011020300004+47050+007067FM-12+043199999V0202501N000519999999N9999999N1-00561+99999103361ADDMA1999999097851MD1410001+9999OA149900821REMSYN088AAXX  03004 06606 33/// /2501 11056 2//// 39785 40336 54000 333 553// 20000 91116 91211;
0140066060999992011020301004+47050+007067FM-12+043199999V0200101N000519999999N9999999N1-00571+99999103371ADDMA1999999097851MD1210011+9999OA149900151REMSYN088AAXX  03014 06606 33/// /0101 11057 2//// 39785 40337 52001 333 553// 20000 91103 91202;
0140066060999992011020302004+47050+007067FM-12+043199999V0202201N000519999999N9999999N1-00661+99999103401ADDMA1999999097861MD1510001+9999OA149900101REMSYN088AAXX  03024 06606 33/// /2201 11066 2//// 39786 40340 55000 333 553// 20000 91102 91201;
0140066060999992011020303004+47050+007067FM-12+043199999V0202401N000519999999N9999999N1-00661+99999103401ADDMA1999999097861MD1210011+9999OA149900621REMSYN088AAXX  03034 06606 33/// /2401 11066 2//// 39786 40340 52001 333 553// 20000 91112 91206;
0140066060999992011020304004+47050+007067FM-12+043199999V0201901N000519999999N9999999N1-00651+99999103391ADDMA1999999097861MD1210011+9999OA149900101REMSYN088AAXX  03044 06606 33/// /1901 11065 2//// 39786 40339 52001 333 553// 20000 91102 91201;
0140066060999992011020305004+47050+007067FM-12+043199999V0202101N000519999999N9999999N1-00791+99999103421ADDMA1999999097861MD1010001+9999OA149900101REMSYN088AAXX  03054 06606 33/// /2101 11079 2//// 39786 40342 50000 333 553// 20000 91102 91202;
0175066060999992011020306004+47050+007067FM-12+043199999V0209999C000019999999N9999999N1-00671+99999103421ADDAL19900091KA1999N-00801MA1999999097881MD1210021+9999OA149900821REMSYN100AAXX  03064 06606 33/// /0000 11067 2//// 39788 40342 52002 333 21080 553// 20000 70000 91116 91211;
0140066060999992011020307004+47050+007067FM-12+043199999V0203301N000519999999N9999999N1-00541+99999103421ADDMA1999999097911MD1210051+9999OA149900151REMSYN088AAXX  03074 06606 33/// /3301 11054 2//// 39791 40342 52005 333 553// 20000 91103 91202;
0140066060999992011020308004+47050+007067FM-12+043199999V0202501N000519999999N9999999N1-00461+99999103441ADDMA1999999097941MD1210081+9999OA149900151REMSYN088AAXX  03084 06606 33/// /2501 11046 2//// 39794 40344 52008 333 553// 20068 91103 91201;
0140066060999992011020309004+47050+007067FM-12+043199999V0202101N001019999999N9999999N1-00331+99999103431ADDMA1999999097961MD1210081+9999OA149900151REMSYN088AAXX  03094 06606 33/// /2102 11033 2//// 39796 40343 52008 333 553// 20238 91103 91202;
0140066060999992011020310004+47050+007067FM-12+043199999V0202201N001019999999N9999999N1-00251+99999103471ADDMA1999999098011MD1210101+9999OA149900151REMSYN088AAXX  03104 06606 33/// /2202 11025 2//// 39801 40347 52010 333 553// 20428 91103 91202;
0140066060999992011020311004+47050+007067FM-12+043199999V0202601N001019999999N9999999N1-00161+99999103441ADDMA1999999098001MD1210061+9999OA149900151REMSYN088AAXX  03114 06606 33/// /2602 11016 2//// 39800 40344 52006 333 553// 20544 91103 91202;
0175066060999992011020312004+47050+007067FM-12+043199999V0202401N001519999999N9999999N1-00101+99999103381ADDMA1999999097961MD1710051+9999OA149900211REMSYN088AAXX  03124 06606 33/// /2403 11010 2//// 39796 40338 58000 333 553// 20490 91104 91202;EQDQ01+000082APCTENQ02+000002APC3  
0146066060999992011020313004+47050+007067FM-12+043199999V0201501N000519999999N9999999N1-00071+99999103351ADDMA1999999097931MD1710081+9999OA149900211REMSYN094AAXX  03134 06606 23/// /1501 11007 2//// 39793 40335 57008 333 553// 20378 69915 91104 91202;
0146066060999992011020314004+47050+007067FM-12+043199999V0209999C000019999999N9999999N1-00031+99999103311ADDMA1999999097901MD1610101+9999OA149900151REMSYN094AAXX  03144 06606 23/// /0000 11003 2//// 39790 40331 56010 333 553// 20310 69925 91103 91202;
0140066060999992011020315004+47050+007067FM-12+043199999V0202001N000519999999N9999999N1+00011+99999103291ADDMA1999999097891MD1710071+9999OA149900211REMSYN088AAXX  03154 06606 33/// /2001 10001 2//// 39789 40329 57007 333 553// 20241 91104 91202;
0140066060999992011020316004+47050+007067FM-12+043199999V0201101N000519999999N9999999N1+00011+99999103301ADDMA1999999097901MD1510031+9999OA149900101REMSYN088AAXX  03164 06606 33/// /1101 10001 2//// 39790 40330 55003 333 553// 20176 91102 91201;
0140066060999992011020317004+47050+007067FM-12+043199999V0200701N000519999999N9999999N1-00011+99999103331ADDMA1999999097931MD1310031+9999OA149900101REMSYN088AAXX  03174 06606 33/// /0701 11001 2//// 39793 40333 53003 333 553// 20011 91102 91201;
0182066060999992011020318004+47050+007067FM-12+043199999V0209999C000019999999N9999999N1-00011+99999103371ADDAA112000391KA1120M+00021MA1999999097971MD1210081+9999OA149900211REMSYN106AAXX  03184 06606 03/// /0000 11001 2//// 39797 40337 52008 69932 333 10002 553// 20000 60005 91104 91202;
0140066060999992011020319004+47050+007067FM-12+043199999V0202601N000519999999N9999999N1+00001+99999103391ADDMA1999999097991MD1210091+9999OA149900101REMSYN088AAXX  03194 06606 33/// /2601 10000 2//// 39799 40339 52009 333 553// 20000 91102 91201;
0140066060999992011020320004+47050+007067FM-12+043199999V0200901N000519999999N9999999N1-00031+99999103401ADDMA1999999097991MD1010061+9999OA149900101REMSYN088AAXX  03204 06606 33/// /0901 11003 2//// 39799 40340 50006 333 553// 20000 91102 91202;
0140066060999992011020321004+47050+007067FM-12+043199999V0202301N000519999999N9999999N1-00031+99999103391ADDMA1999999097981MD1710011+9999OA149900101REMSYN088AAXX  03214 06606 33/// /2301 11003 2//// 39798 40339 57001 333 553// 20000 91102 91202;
0140066060999992011020322004+47050+007067FM-12+043199999V0209999C000019999999N9999999N1-00051+99999103351ADDMA1999999097941MD1810051+9999OA149900101REMSYN088AAXX  03224 06606 33/// /0000 11005 2//// 39794 40335 58005 333 553// 20000 91102 91201;
0140066060999992011020323004+47050+007067FM-12+043199999V0201301N001019999999N9999999N1-00041+99999103361ADDMA1999999097951MD1710041+9999OA149900101REMSYN088AAXX  03234 06606 33/// /1302 11004 2//// 39795 40336 57004 333 553// 20000 91102 91202;
0159066060999992011020400004+47050+007067FM-12+043199999V0202901N000519999999N9999999N1-00061+99999103401ADDMA1999999097981MD1310011+9999OA149900151REMSYN088AAXX  04004 06606 33/// /2901 11006 2//// 39798 40340 53000 333 553// 20000 91103 91202;EQDQ01+000002APC3  
0140066060999992011020401004+47050+007067FM-12+043199999V0200301N000519999999N9999999N1-00121+99999103411ADDMA1999999097981MD1210041+9999OA149900151REMSYN088AAXX  04014 06606 33/// /0301 11012 2//// 39798 40341 52004 333 553// 20000 91103 91201;
0140066060999992011020402004+47050+007067FM-12+043199999V0202901N000519999999N9999999N1-00201+99999103451ADDMA1999999098001MD1210051+9999OA149900151REMSYN088AAXX  04024 06606 33/// /2901 11020 2//// 39800 40345 52005 333 553// 20000 91103 91201;
0161066060999992011020403004+47050+007067FM-12+043199999V0202201N000519999999N9999999N1-00141+99999103411ADDMA1999999097981OA149900151REMSYN088AAXX  04034 06606 33/// /2201 11014 2//// 39798 40341 57000 333 553// 20000 91103 91202;EQDQ01+000072APCTENQ02+000002APC3  
0140066060999992011020404004+47050+007067FM-12+043199999V0203101N000519999999N9999999N1-00091+99999103391ADDMA1999999097971MD1710011+9999OA149900151REMSYN088AAXX  04044 06606 33/// /3101 11009 2//// 39797 40339 57001 333 553// 20000 91103 91202;
0140066060999992011020405004+47050+007067FM-12+043199999V0203401N000519999999N9999999N1-00171+99999103431ADDMA1999999097991MD1510011+9999OA149900151REMSYN088AAXX  04054 06606 33/// /3401 11017 2//// 39799 40343 55001 333 553// 20000 91103 91202;
0175066060999992011020406004+47050+007067FM-12+043199999V0201901N001019999999N9999999N1-00151+99999103451ADDAL11800091KA1999N-00201MA1999999098011MD1210031+9999OA149900151REMSYN100AAXX  04064 06606 33/// /1902 11015 2//// 39801 40345 52003 333 21020 553// 20000 70003 91103 91202;
0140066060999992011020407004+47050+007067FM-12+043199999V0203301N000519999999N9999999N1-00281+99999103521ADDMA1999999098051MD1310081+9999OA149900151REMSYN088AAXX  04074 06606 33/// /3301 11028 2//// 39805 40352 53008 333 553// 20000 91103 91202;
0140066060999992011020408004+47050+007067FM-12+043199999V0209999C000019999999N9999999N1-00111+99999103551ADDMA1999999098121MD1310131+9999OA149900151REMSYN088AAXX  04084 06606 33/// /0000 11011 2//// 39812 40355 53013 333 553// 20173 91103 91201;
0140066060999992011020409004+47050+007067FM-12+043199999V0202101N002119999999N9999999N1+00261+99999103511ADDMA1999999098151MD1210141+9999OA149900411REMSYN088AAXX  04094 06606 33/// /2104 10026 2//// 39815 40351 52014 333 553// 20598 91108 91203;
0140066060999992011020410004+47050+007067FM-12+043199999V0202101N003119999999N9999999N1+00471+99999103471ADDMA1999999098151MD1210101+9999OA149900671REMSYN088AAXX  04104 06606 33/// /2106 10047 2//// 39815 40347 52010 333 553// 2//// 91113 91207;
0140066060999992011020411004+47050+007067FM-12+043199999V0202301N005719999999N9999999N1+00671+99999103381ADDMA1999999098111MD1810011+9999OA149900881REMSYN088AAXX  04114 06606 33/// /2311 10067 2//// 39811 40338 58001 333 553// 2//// 91117 91211;
0140066060999992011020412004+47050+007067FM-12+043199999V0202101N006219999999N9999999N1+00711+99999103311ADDMA1999999098051MD1810101+9999OA149901031REMSYN088AAXX  04124 06606 33/// /2112 10071 2//// 39805 40331 58010 333 553// 2//// 91120 91212;
0140066060999992011020413004+47050+007067FM-12+043199999V0202501N005119999999N9999999N1+00891+99999103211ADDMA1999999097991MD1710161+9999OA149901031REMSYN088AAXX  04134 06606 33/// /2510 10089 2//// 39799 40321 57016 333 553// 2//// 91120 91212;
0140066060999992011020414004+47050+007067FM-12+043199999V0202701N005119999999N9999999N1+00951+99999103151ADDMA1999999097941MD1710171+9999OA149901031REMSYN088AAXX  04144 06606 33/// /2710 10095 2//// 39794 40315 57017 333 553// 2//// 91120 91212;
0140066060999992011020415004+47050+007067FM-12+043199999V0202601N006219999999N9999999N1+00841+99999103211ADDMA1999999097981MD1510071+9999OA149901131REMSYN088AAXX  04154 06606 33/// /2612 10084 2//// 39798 40321 55007 333 553// 20796 91122 91212;
0140066060999992011020416004+47050+007067FM-12+043199999V0202501N003119999999N9999999N1+00771+99999103281ADDMA1999999098031MD1310041+9999OA149901181REMSYN088AAXX  04164 06606 33/// /2506 10077 2//// 39803 40328 53004 333 553// 20407 91123 91213;
0140066060999992011020417004+47050+007067FM-12+043199999V0202501N005119999999N9999999N1+00721+99999103311ADDMA1999999098051MD1210111+9999OA149901181REMSYN088AAXX  04174 06606 33/// /2510 10072 2//// 39805 40331 52011 333 553// 20040 91123 91213;
0159066060999992011020418004+47050+007067FM-12+043199999V0202501N004119999999N9999999N1+00711+99999103371ADDKA1120M+00981MA1999999098101MD1210121+9999OA149901181REMSYN094AAXX  04184 06606 33/// /2508 10071 2//// 39810 40337 52012 333 10098 553// 20000 91123 91213;
0140066060999992011020419004+47050+007067FM-12+043199999V0202301N004119999999N9999999N1+00511+99999103401ADDMA1999999098091MD1010061+9999OA149901081REMSYN088AAXX  04194 06606 33/// /2308 10051 2//// 39809 40340 50006 333 553// 20000 91121 91210;
0140066060999992011020420004+47050+007067FM-12+043199999V0202201N004119999999N9999999N1+00481+99999103381ADDMA1999999098071MD1010021+9999OA149900881REMSYN088AAXX  04204 06606 33/// /2208 10048 2//// 39807 40338 50002 333 553// 20000 91117 91210;
0140066060999992011020421004+47050+007067FM-12+043199999V0202201N001519999999N9999999N1+00451+99999103391ADDMA1999999098071MD1710031+9999OA149901181REMSYN088AAXX  04214 06606 33/// /2203 10045 2//// 39807 40339 57003 333 553// 20000 91123 91213;
0140066060999992011020422004+47050+007067FM-12+043199999V0202501N001519999999N9999999N1+00341+99999103401ADDMA1999999098061MD1710031+9999OA149900511REMSYN088AAXX  04224 06606 33/// /2503 10034 2//// 39806 40340 57003 333 553// 20000 91110 91207;
0140066060999992011020423004+47050+007067FM-12+043199999V0202301N003119999999N9999999N1+00381+99999103441ADDMA1999999098111MD1310041+9999OA149900461REMSYN088AAXX  04234 06606 33/// /2306 10038 2//// 39811 40344 53004 333 553// 20000 91109 91206;
0140066060999992011020500004+47050+007067FM-12+043199999V0202501N002619999999N9999999N1+00381+99999103471ADDMA1999999098141MD1210071+9999OA149901181REMSYN088AAXX  05004 06606 33/// /2505 10038 2//// 39814 40347 52007 333 553// 20000 91123 91213;
0140066060999992011020501004+47050+007067FM-12+043199999V0202501N003119999999N9999999N1+00371+99999103481ADDMA1999999098141MD1210081+9999OA149900511REMSYN088AAXX  05014 06606 33/// /2506 10037 2//// 39814 40348 52008 333 553// 20000 91110 91206;
0140066060999992011020502004+47050+007067FM-12+043199999V0202501N003119999999N9999999N1+00311+99999103481ADDMA1999999098131MD1210021+9999OA149900571REMSYN088AAXX  05024 06606 33/// /2506 10031 2//// 39813 40348 52002 333 553// 20000 91111 91207;
0140066060999992011020503004+47050+007067FM-12+043199999V0202701N002619999999N9999999N1+00301+99999103441ADDMA1999999098091MD1710051+9999OA149900571REMSYN088AAXX  05034 06606 33/// /2705 10030 2//// 39809 40344 57005 333 553// 20000 91111 91207;
0140066060999992011020504004+47050+007067FM-12+043199999V0202501N002119999999N9999999N1+00301+99999103421ADDMA1999999098071MD1710071+9999OA149900511REMSYN088AAXX  05044 06606 33/// /2504 10030 2//// 39807 40342 57007 333 553// 20000 91110 91207;
0140066060999992011020505004+47050+007067FM-12+043199999V0202801N002119999999N9999999N1+00291+99999103411ADDMA1999999098061MD1710071+9999OA149900511REMSYN088AAXX  05054 06606 33/// /2804 10029 2//// 39806 40341 57007 333 553// 20000 91110 91206;
0175066060999992011020506004+47050+007067FM-12+043199999V0202601N002119999999N9999999N1+00311+99999103441ADDAL19900091KA1999N+00241MA1999999098091MD1510001+9999OA149900881REMSYN100AAXX  05064 06606 33/// /2604 10031 2//// 39809 40344 55000 333 20024 553// 20000 70000 91117 91210;
0140066060999992011020507004+47050+007067FM-12+043199999V0209999C000019999999N9999999N1+00121+99999103531ADDMA1999999098141MD1310071+9999OA149900511REMSYN088AAXX  05074 06606 33/// /0000 10012 2//// 39814 40353 53007 333 553// 20000 91110 91205;
0140066060999992011020508004+47050+007067FM-12+043199999V0202901N000519999999N9999999N1+00241+99999103581ADDMA1999999098211MD1210151+9999OA149900511REMSYN088AAXX  05084 06606 33/// /2901 10024 2//// 39821 40358 52015 333 553// 20176 91110 91205;
0140066060999992011020509004+47050+007067FM-12+043199999V0200901N001519999999N9999999N1+00421+99999103551ADDMA1999999098221MD1210131+9999OA149900511REMSYN088AAXX  05094 06606 33/// /0903 10042 2//// 39822 40355 52013 333 553// 20720 91110 91206;
0140066060999992011020510004+47050+007067FM-12+043199999V0200901N001019999999N9999999N1+00511+99999103541ADDMA1999999098231MD1210091+9999OA149900311REMSYN088AAXX  05104 06606 33/// /0902 10051 2//// 39823 40354 52009 333 553// 2//// 91106 91205;
0140066060999992011020511004+47050+007067FM-12+043199999V0202101N003119999999N9999999N1+00691+99999103451ADDMA1999999098181MD1810031+9999OA149900461REMSYN088AAXX  05114 06606 33/// /2106 10069 2//// 39818 40345 58003 333 553// 2//// 91109 91206;
0140066060999992011020512004+47050+007067FM-12+043199999V0202201N003619999999N9999999N1+00781+99999103361ADDMA1999999098111MD1810111+9999OA149900571REMSYN088AAXX  05124 06606 33/// /2207 10078 2//// 39811 40336 58011 333 553// 2//// 91111 91207;
0140066060999992011020513004+47050+007067FM-12+043199999V0202301N004119999999N9999999N1+00861+99999103241ADDMA1999999098011MD1710221+9999OA149900671REMSYN088AAXX  05134 06606 33/// /2308 10086 2//// 39801 40324 57022 333 553// 2//// 91113 91208;
0140066060999992011020514004+47050+007067FM-12+043199999V0202201N004119999999N9999999N1+00941+99999103171ADDMA1999999097961MD1610221+9999OA149900671REMSYN088AAXX  05144 06606 33/// /2208 10094 2//// 39796 40317 56022 333 553// 2//// 91113 91209;
0140066060999992011020515004+47050+007067FM-12+043199999V0202301N003619999999N9999999N1+00921+99999103171ADDMA1999999097951MD1610161+9999OA149900671REMSYN088AAXX  05154 06606 33/// /2307 10092 2//// 39795 40317 56016 333 553// 20990 91113 91209;
0140066060999992011020516004+47050+007067FM-12+043199999V0202301N002619999999N9999999N1+00861+99999103171ADDMA1999999097941MD1610071+9999OA149900621REMSYN088AAXX  05164 06606 33/// /2305 10086 2//// 39794 40317 56007 333 553// 20497 91112 91209;
0140066060999992011020517004+47050+007067FM-12+043199999V0202601N001019999999N9999999N1+00571+99999103261ADDMA1999999097971MD1310011+9999OA149900511REMSYN088AAXX  05174 06606 33/// /2602 10057 2//// 39797 40326 53001 333 553// 20061 91110 91207;
0159066060999992011020518004+47050+007067FM-12+043199999V0202501N001019999999N9999999N1+00291+99999103341ADDKA1120M+00941MA1999999098001MD1210051+9999OA149900671REMSYN094AAXX  05184 06606 33/// /2502 10029 2//// 39800 40334 52005 333 10094 553// 20000 91113 91209;
0140066060999992011020519004+47050+007067FM-12+043199999V0201601N000519999999N9999999N1+00111+99999103391ADDMA1999999098011MD1110071+9999OA149900211REMSYN088AAXX  05194 06606 33/// /1601 10011 2//// 39801 40339 51007 333 553// 20000 91104 91202;
0140066060999992011020520004+47050+007067FM-12+043199999V0209999C000019999999N9999999N1+00021+99999103421ADDMA1999999098021MD1210051+9999OA149900151REMSYN088AAXX  05204 06606 33/// /0000 10002 2//// 39802 40342 52005 333 553// 20000 91103 91202;
0140066060999992011020521004+47050+007067FM-12+043199999V0201501N000519999999N9999999N1-00041+99999103471ADDMA1999999098051MD1219999+9999OA149900511REMSYN088AAXX  05214 06606 33/// /1501 11004 2//// 39805 40347 52/// 333 553// 20000 91110 91207;
0140066060999992011020522004+47050+007067FM-12+043199999V0209999C000019999999N9999999N1-00151+99999103501ADDMA1999999098061MD1210051+9999OA149900151REMSYN088AAXX  05224 06606 33/// /0000 11015 2//// 39806 40350 52005 333 553// 20000 91103 91202;
0140066060999992011020523004+47050+007067FM-12+043199999V0202701N000519999999N9999999N1-00181+99999103521ADDMA1999999098071MD1210051+9999OA149900101REMSYN088AAXX  05234 06606 33/// /2701 11018 2//// 39807 40352 52005 333 553// 20000 91102 91201;
0140066060999992011020600004+47050+007067FM-12+043199999V0209999C000019999999N9999999N1-00221+99999103561ADDMA1999999098101MD1210051+9999OA149900671REMSYN088AAXX  06004 06606 33/// /0000 11022 2//// 39810 40356 52005 333 553// 20000 91113 91209;
0140066060999992011020601004+47050+007067FM-12+043199999V0200901N000519999999N9999999N1-00221+99999103561ADDMA1999999098101MD1210041+9999OA149900101REMSYN088AAXX  06014 06606 33/// /0901 11022 2//// 39810 40356 52004 333 553// 20000 91102 91202;
0140066060999992011020602004+47050+007067FM-12+043199999V0209999C000019999999N9999999N1-00251+99999103571ADDMA1999999098111MD1210041+9999OA149900151REMSYN088AAXX  06024 06606 33/// /0000 11025 2//// 39811 40357 52004 333 553// 20000 91103 91202;
0140066060999992011020603004+47050+007067FM-12+043199999V0201301N001019999999N9999999N1-00351+99999103561ADDMA1999999098081MD1710021+9999OA149900151REMSYN088AAXX  06034 06606 33/// /1302 11035 2//// 39808 40356 57002 333 553// 20000 91103 91202;
0140066060999992011020604004+47050+007067FM-12+043199999V0202601N000519999999N9999999N1-00421+99999103571ADDMA1999999098071MD1710031+9999OA149900101REMSYN088AAXX  06044 06606 33/// /2601 11042 2//// 39807 40357 57003 333 553// 20000 91102 91202;
0140066060999992011020605004+47050+007067FM-12+043199999V0202501N000519999999N9999999N1-00391+99999103561ADDMA1999999098071MD1710041+9999OA149900101REMSYN088AAXX  06054 06606 33/// /2501 11039 2//// 39807 40356 57004 333 553// 20000 91102 91202;
0175066060999992011020606004+47050+007067FM-12+043199999V0209999C000019999999N9999999N1-00471+99999103581ADDAL19900091KA1999N-00451MA1999999098071MD1710011+9999OA149900151REMSYN100AAXX  06064 06606 33/// /0000 11047 2//// 39807 40358 57001 333 21045 553// 20000 70000 91103 91202;
0140066060999992011020607004+47050+007067FM-12+043199999V0202001N000519999999N9999999N1-00481+99999103591ADDMA1999999098081MD1510011+9999OA149900101REMSYN088AAXX  06074 06606 33/// /2001 11048 2//// 39808 40359 55001 333 553// 20000 91102 91201;
0140066060999992011020608004+47050+007067FM-12+043199999V0209999C000019999999N9999999N1-00391+99999103591ADDMA1999999098101MD1210031+9999OA149900101REMSYN088AAXX  06084 06606 33/// /0000 11039 2//// 39810 40359 52003 333 553// 20104 91102 91202;
0140066060999992011020609004+47050+007067FM-12+043199999V0209999C000019999999N9999999N1-00051+99999103511ADDMA1999999098091MD1210021+9999OA149900101REMSYN088AAXX  06094 06606 33/// /0000 11005 2//// 39809 40351 52002 333 553// 20706 91102 91202;
0140066060999992011020610004+47050+007067FM-12+043199999V0202201N000519999999N9999999N1+00221+99999103421ADDMA1999999098061MD1810021+9999OA149900101REMSYN088AAXX  06104 06606 33/// /2201 10022 2//// 39806 40342 58002 333 553// 2//// 91102 91201;
0140066060999992011020611004+47050+007067FM-12+043199999V0201801N001019999999N9999999N1+00531+99999103311ADDMA1999999098011MD1810091+9999OA149900151REMSYN088AAXX  06114 06606 33/// /1802 10053 2//// 39801 40331 58009 333 553// 2//// 91103 91202;
0140066060999992011020612004+47050+007067FM-12+043199999V0202101N001019999999N9999999N1+00711+99999103161ADDMA1999999097901MD1810191+9999OA149900211REMSYN088AAXX  06124 06606 33/// /2102 10071 2//// 39790 40316 58019 333 553// 2//// 91104 91202;
0140066060999992011020613004+47050+007067FM-12+043199999V0202101N000519999999N9999999N1+00831+99999103051ADDMA1999999097821MD1810241+9999OA149900211REMSYN088AAXX  06134 06606 33/// /2101 10083 2//// 39782 40305 58024 333 553// 2//// 91104 91203;
0140066060999992011020614004+47050+007067FM-12+043199999V0202901N000519999999N9999999N1+00961+99999102951ADDMA1999999097751MD1710261+9999OA149900211REMSYN088AAXX  06144 06606 33/// /2901 10096 2//// 39775 40295 57026 333 553// 2//// 91104 91203;
0140066060999992011020615004+47050+007067FM-12+043199999V0202101N000519999999N9999999N1+01041+99999102891ADDMA1999999097711MD1610191+9999OA149900211REMSYN088AAXX  06154 06606 33/// /2101 10104 2//// 39771 40289 56019 333 553// 2//// 91104 91203;
0140066060999992011020616004+47050+007067FM-12+043199999V0201501N000519999999N9999999N1+00711+99999102921ADDMA1999999097681MD1610141+9999OA149900151REMSYN088AAXX  06164 06606 33/// /1501 10071 2//// 39768 40292 56014 333 553// 20536 91103 91202;
0140066060999992011020617004+47050+007067FM-12+043199999V0202101N001019999999N9999999N1+00391+99999103001ADDMA1999999097691MD1710061+9999OA149900151REMSYN088AAXX  06174 06606 33/// /2102 10039 2//// 39769 40300 57006 333 553// 20061 91103 91202;
0159066060999992011020618004+47050+007067FM-12+043199999V0209999C000019999999N9999999N1+00221+99999103061ADDKA1120M+01041MA1999999097721MD1310011+9999OA149900211REMSYN094AAXX  06184 06606 33/// /0000 10022 2//// 39772 40306 53001 333 10104 553// 20000 91104 91203;
0140066060999992011020619004+47050+007067FM-12+043199999V0209999C000019999999N9999999N1+00041+99999103101ADDMA1999999097721MD1210041+9999OA149900101REMSYN088AAXX  06194 06606 33/// /0000 10004 2//// 39772 40310 52004 333 553// 20000 91102 91201;
0140066060999992011020620004+47050+007067FM-12+043199999V0209999C000019999999N9999999N1-00071+99999103111ADDMA1999999097711MD1010021+9999OA149900101REMSYN088AAXX  06204 06606 33/// /0000 11007 2//// 39771 40311 50002 333 553// 20000 91102 91201;
0140066060999992011020621004+47050+007067FM-12+043199999V0203001N000519999999N9999999N1-00081+99999103121ADDMA1999999097711MD1710011+9999OA149900151REMSYN088AAXX  06214 06606 33/// /3001 11008 2//// 39771 40312 57001 333 553// 20000 91103 91202;
0140066060999992011020622004+47050+007067FM-12+043199999V0201401N000519999999N9999999N1-00141+99999103131ADDMA1999999097711MD1710011+9999OA149900101REMSYN088AAXX  06224 06606 33/// /1401 11014 2//// 39771 40313 57001 333 553// 20000 91102 91201;
0140066060999992011020623004+47050+007067FM-12+043199999V0209999C000019999999N9999999N1-00231+99999103141ADDMA1999999097701MD1710011+9999OA149900101REMSYN088AAXX  06234 06606 33/// /0000 11023 2//// 39770 40314 57001 333 553// 20000 91102 91201;
0140066060999992011020700004+47050+007067FM-12+043199999V0202101N000519999999N9999999N1-00241+99999103161ADDMA1999999097721MD1210011+9999OA149900211REMSYN088AAXX  07004 06606 33/// /2101 11024 2//// 39772 40316 52001 333 553// 20000 91104 91203;
0140066060999992011020701004+47050+007067FM-12+043199999V0202301N000519999999N9999999N1-00361+99999103171ADDMA1999999097711MD1010001+9999OA149900101REMSYN088AAXX  07014 06606 33/// /2301 11036 2//// 39771 40317 50000 333 553// 20000 91102 91201;
0140066060999992011020702004+47050+007067FM-12+043199999V0201801N000519999999N9999999N1-00361+99999103181ADDMA1999999097721MD1210021+9999OA149900151REMSYN088AAXX  07024 06606 33/// /1801 11036 2//// 39772 40318 52002 333 553// 20000 91103 91202;
0140066060999992011020703004+47050+007067FM-12+043199999V0201601N000519999999N9999999N1-00401+99999103171ADDMA1999999097701MD1810021+9999OA149900151REMSYN088AAXX  07034 06606 33/// /1601 11040 2//// 39770 40317 58002 333 553// 20000 91103 91202;
0140066060999992011020704004+47050+007067FM-12+043199999V0209999C000019999999N9999999N1-00391+99999103151ADDMA1999999097681MD1810031+9999OA149900151REMSYN088AAXX  07044 06606 33/// /0000 11039 2//// 39768 40315 58003 333 553// 20000 91103 91202;
0140066060999992011020705004+47050+007067FM-12+043199999V0200801N000519999999N9999999N1-00461+99999103131ADDMA1999999097651MD1810071+9999OA149900151REMSYN088AAXX  07054 06606 33/// /0801 11046 2//// 39765 40313 58007 333 553// 20000 91103 91202;
0175066060999992011020706004+47050+007067FM-12+043199999V0209999C000019999999N9999999N1-00441+99999103091ADDAL19900091KA1999N-00541MA1999999097611MD1810091+9999OA149900151REMSYN100AAXX  07064 06606 33/// /0000 11044 2//// 39761 40309 58009 333 21054 553// 20000 70000 91103 91202;
0140066060999992011020707004+47050+007067FM-12+043199999V0209999C000019999999N9999999N1-00561+99999103101ADDMA1999999097601MD1610081+9999OA149900151REMSYN088AAXX  07074 06606 33/// /0000 11056 2//// 39760 40310 56008 333 553// 20000 91103 91201;
0140066060999992011020708004+47050+007067FM-12+043199999V0203601N000519999999N9999999N1-00331+99999103051ADDMA1999999097601MD1710051+9999OA149900151REMSYN088AAXX  07084 06606 33/// /3601 11033 2//// 39760 40305 57005 333 553// 20187 91103 91203;
0140066060999992011020709004+47050+007067FM-12+043199999V0201801N000519999999N9999999N1-00081+99999102971ADDMA1999999097571MD1710041+9999OA149900151REMSYN088AAXX  07094 06606 33/// /1801 11008 2//// 39757 40297 57004 333 553// 20760 91103 91203;
0140066060999992011020710004+47050+007067FM-12+043199999V0202501N001019999999N9999999N1+00281+99999102851ADDMA1999999097531MD1710071+9999OA149900151REMSYN088AAXX  07104 06606 33/// /2502 10028 2//// 39753 40285 57007 333 553// 2//// 91103 91202;
0140066060999992011020711004+47050+007067FM-12+043199999V0202401N001019999999N9999999N1+00501+99999102751ADDMA1999999097481MD1710121+9999OA149900151REMSYN088AAXX  07114 06606 33/// /2402 10050 2//// 39748 40275 57012 333 553// 2//// 91103 91202;
0140066060999992011020712004+47050+007067FM-12+043199999V0202101N001019999999N9999999N1+00721+99999102611ADDMA1999999097381MD1710191+9999OA149900211REMSYN088AAXX  07124 06606 33/// /2102 10072 2//// 39738 40261 57019 333 553// 2//// 91104 91203;
0140066060999992011020713004+47050+007067FM-12+043199999V0200901N001519999999N9999999N1+00811+99999102491ADDMA1999999097291MD1810241+9999OA149900211REMSYN088AAXX  07134 06606 33/// /0903 10081 2//// 39729 40249 58024 333 553// 2//// 91104 91203;
0140066060999992011020714004+47050+007067FM-12+043199999V0200801N001519999999N9999999N1+00861+99999102431ADDMA1999999097241MD1610241+9999OA149900261REMSYN088AAXX  07144 06606 33/// /0803 10086 2//// 39724 40243 56024 333 553// 2//// 91105 91204;
0140066060999992011020715004+47050+007067FM-12+043199999V0200801N001019999999N9999999N1+00951+99999102361ADDMA1999999097191MD1610191+9999OA149900261REMSYN088AAXX  07154 06606 33/// /0802 10095 2//// 39719 40236 56019 333 553// 2//// 91105 91204;
0140066060999992011020716004+47050+007067FM-12+043199999V0200901N001019999999N9999999N1+00691+99999102401ADDMA1999999097181MD1710111+9999OA149900211REMSYN088AAXX  07164 06606 33/// /0902 10069 2//// 39718 40240 57011 333 553// 20515 91104 91203;
0140066060999992011020717004+47050+007067FM-12+043199999V0203301N000519999999N9999999N1+00391+99999102451ADDMA1999999097171MD1710071+9999OA149900211REMSYN088AAXX  07174 06606 33/// /3301 10039 2//// 39717 40245 57007 333 553// 20065 91104 91203;
0159066060999992011020718004+47050+007067FM-12+043199999V0209999C000019999999N9999999N1+00231+99999102511ADDKA1120M+00951MA1999999097201MD1510011+9999OA149900261REMSYN094AAXX  07184 06606 33/// /0000 10023 2//// 39720 40251 55001 333 10095 553// 20000 91105 91204;
0140066060999992011020719004+47050+007067FM-12+043199999V0209999C000019999999N9999999N1-00021+99999102541ADDMA1999999097181MD1010001+9999OA149900101REMSYN088AAXX  07194 06606 33/// /0000 11002 2//// 39718 40254 50000 333 553// 20000 91102 91201;
0087066060999992011020720004+47050+007067FM-12+043199999V0201101N000519999999N9999999N1-00041+99999102551ADDMA1999999097181REMSYN060AAXX  07204 06606 43/// /1101 11004 2//// 39718 40255 5////;
0140066060999992011020721004+47050+007067FM-12+043199999V0202201N001019999999N9999999N1-00161+99999102601ADDMA1999999097211MD1310011+9999OA149900211REMSYN088AAXX  07214 06606 33/// /2202 11016 2//// 39721 40260 53001 333 553// 20000 91104 91203;
0140066060999992011020722004+47050+007067FM-12+043199999V0202201N000519999999N9999999N1-00171+99999102621ADDMA1999999097221MD1210041+9999OA149900211REMSYN088AAXX  07224 06606 33/// /2201 11017 2//// 39722 40262 52004 333 553// 20000 91104 91202;
0140066060999992011020723004+47050+007067FM-12+043199999V0202101N000519999999N9999999N1-00281+99999102651ADDMA1999999097231MD1219999+9999OA149900211REMSYN088AAXX  07234 06606 33/// /2101 11028 2//// 39723 40265 52/// 333 553// 20000 91104 91202;
0140066060999992011020800004+47050+007067FM-12+043199999V0209999C000519999999N9999999N1-00281+99999102661ADDMA1999999097241MD1210031+9999OA149900261REMSYN088AAXX  08004 06606 33/// /0001 11028 2//// 39724 40266 52003 333 553// 20000 91105 91204;
0140066060999992011020801004+47050+007067FM-12+043199999V0200801N000519999999N9999999N1-00291+99999102631ADDMA1999999097211MD1810011+9999OA149900151REMSYN088AAXX  08014 06606 33/// /0801 11029 2//// 39721 40263 58001 333 553// 20000 91103 91201;
0140066060999992011020802004+47050+007067FM-12+043199999V0209999C000019999999N9999999N1-00361+99999102651ADDMA1999999097211MD1710021+9999OA149900151REMSYN088AAXX  08024 06606 33/// /0000 11036 2//// 39721 40265 57002 333 553// 20000 91103 91201;
0140066060999992011020803004+47050+007067FM-12+043199999V0209999C000019999999N9999999N1-00311+99999102601ADDMA1999999097181MD1710061+9999OA149900211REMSYN088AAXX  08034 06606 33/// /0000 11031 2//// 39718 40260 57006 333 553// 20000 91104 91202;
0140066060999992011020804004+47050+007067FM-12+043199999V0209999C000019999999N9999999N1-00351+99999102631ADDMA1999999097201MD1710011+9999OA149900151REMSYN088AAXX  08044 06606 33/// /0000 11035 2//// 39720 40263 57001 333 553// 20000 91103 91201;
0140066060999992011020805004+47050+007067FM-12+043199999V0203201N000519999999N9999999N1-00361+99999102661ADDMA1999999097221MD1310011+9999OA149900151REMSYN088AAXX  08054 06606 33/// /3201 11036 2//// 39722 40266 53001 333 553// 20000 91103 91201;
0175066060999992011020806004+47050+007067FM-12+043199999V0203301N000519999999N9999999N1-00441+99999102701ADDAL19900091KA1999N-00451MA1999999097251MD1210071+9999OA149900211REMSYN100AAXX  08064 06606 33/// /3301 11044 2//// 39725 40270 52007 333 21045 553// 20000 70000 91104 91202;
0140066060999992011020807004+47050+007067FM-12+043199999V0202501N000519999999N9999999N1-00491+99999102751ADDMA1999999097281MD1310081+9999OA149900151REMSYN088AAXX  08074 06606 33/// /2501 11049 2//// 39728 40275 53008 333 553// 20000 91103 91201;
0087066060999992011020808004+47050+007067FM-12+043199999V0201301N001019999999N9999999N1-00301+99999102711ADDMA1999999097281REMSYN060AAXX  08084 06606 43/// /1302 11030 2//// 39728 40271 5////;
0087066060999992011020809004+47050+007067FM-12+043199999V0201201N000519999999N9999999N1+00021+99999102671ADDMA1999999097311REMSYN060AAXX  08094 06606 43/// /1201 10002 2//// 39731 40267 5////;
0140066060999992011020810004+47050+007067FM-12+043199999V0200701N001519999999N9999999N1+00281+99999102631ADDMA1999999097321MD1210041+9999OA149900261REMSYN088AAXX  08104 06606 33/// /0703 10028 2//// 39732 40263 52004 333 553// 2//// 91105 91203;
0140066060999992011020811004+47050+007067FM-12+043199999V0200701N002119999999N9999999N1+00491+99999102571ADDMA1999999097301MD1010021+9999OA149900261REMSYN088AAXX  08114 06606 33/// /0704 10049 2//// 39730 40257 50002 333 553// 2//// 91105 91204;
0140066060999992011020812004+47050+007067FM-12+043199999V0200701N002619999999N9999999N1+00651+99999102461ADDMA1999999097231MD1710081+9999OA149900361REMSYN088AAXX  08124 06606 33/// /0705 10065 2//// 39723 40246 57008 333 553// 2//// 91107 91206;
0140066060999992011020813004+47050+007067FM-12+043199999V0200601N001019999999N9999999N1+00861+99999102381ADDMA1999999097191MD1710131+9999OA149900411REMSYN088AAXX  08134 06606 33/// /0602 10086 2//// 39719 40238 57013 333 553// 2//// 91108 91206;
0140066060999992011020814004+47050+007067FM-12+043199999V0201001N003619999999N9999999N1+01011+99999102271ADDMA1999999097121MD1810181+9999OA149900511REMSYN088AAXX  08144 06606 33/// /1007 10101 2//// 39712 40227 58018 333 553// 2//// 91110 91207;
0140066060999992011020815004+47050+007067FM-12+043199999V0201001N002619999999N9999999N1+01071+99999102251ADDMA1999999097111MD1610121+9999OA149900511REMSYN088AAXX  08154 06606 33/// /1005 10107 2//// 39711 40225 56012 333 553// 2//// 91110 91207;
0140066060999992011020816004+47050+007067FM-12+043199999V0200801N001019999999N9999999N1+00961+99999102261ADDMA1999999097101MD1710091+9999OA149900461REMSYN088AAXX  08164 06606 33/// /0802 10096 2//// 39710 40226 57009 333 553// 20497 91109 91206;
0140066060999992011020817004+47050+007067FM-12+043199999V0209999C000019999999N9999999N1+00621+99999102321ADDMA1999999097091MD1710031+9999OA149900361REMSYN088AAXX  08174 06606 33/// /0000 10062 2//// 39709 40232 57003 333 553// 20061 91107 91205;
0159066060999992011020818004+47050+007067FM-12+043199999V0200501N001519999999N9999999N1+00391+99999102411ADDKA1120M+01091MA1999999097131MD1310021+9999OA149900511REMSYN094AAXX  08184 06606 33/// /0503 10039 2//// 39713 40241 53002 333 10109 553// 20000 91110 91207;
0140066060999992011020819004+47050+007067FM-12+043199999V0200401N004619999999N9999999N1+00611+99999102361ADDMA1999999097131MD1210031+9999OA149900671REMSYN088AAXX  08194 06606 33/// /0409 10061 2//// 39713 40236 52003 333 553// 20000 91113 91209;
0087066060999992011020820004+47050+007067FM-12+043199999V0200401N001519999999N9999999N1+00431+99999102401ADDMA1999999097131REMSYN060AAXX  08204 06606 43/// /0403 10043 2//// 39713 40240 5////;
0140066060999992011020821004+47050+007067FM-12+043199999V0200601N003119999999N9999999N1+00411+99999102401ADDMA1999999097131MD1010001+9999OA149900671REMSYN088AAXX  08214 06606 33/// /0606 10041 2//// 39713 40240 50000 333 553// 20000 91113 91210;
0140066060999992011020822004+47050+007067FM-12+043199999V0201001N001519999999N9999999N1+00081+99999102461ADDMA1999999097121MD1710011+9999OA149900511REMSYN088AAXX  08224 06606 33/// /1003 10008 2//// 39712 40246 57001 333 553// 20000 91110 91207;
0140066060999992011020823004+47050+007067FM-12+043199999V0202301N000519999999N9999999N1-00121+99999102501ADDMA1999999097121MD1719999+9999OA149900511REMSYN088AAXX  08234 06606 33/// /2301 11012 2//// 39712 40250 57/// 333 553// 20000 91110 91205;
0140066060999992011020900004+47050+007067FM-12+043199999V0202601N000519999999N9999999N1-00141+99999102541ADDMA1999999097151MD1310021+9999OA149900671REMSYN088AAXX  09004 06606 33/// /2601 11014 2//// 39715 40254 53002 333 553// 20000 91113 91210;
0140066060999992011020901004+47050+007067FM-12+043199999V0209999C000019999999N9999999N1-00231+99999102521ADDMA1999999097121MD1010001+9999OA149900151REMSYN088AAXX  09014 06606 33/// /0000 11023 2//// 39712 40252 50000 333 553// 20000 91103 91202;
0140066060999992011020902004+47050+007067FM-12+043199999V0202301N000519999999N9999999N1-00281+99999102531ADDMA1999999097121MD1010001+9999OA149900101REMSYN088AAXX  09024 06606 33/// /2301 11028 2//// 39712 40253 50000 333 553// 20000 91102 91201;
0140066060999992011020903004+47050+007067FM-12+043199999V0200601N000519999999N9999999N1-00251+99999102521ADDMA1999999097111MD1710041+9999OA149900511REMSYN088AAXX  09034 06606 33/// /0601 11025 2//// 39711 40252 57004 333 553// 20000 91110 91205;
0101066060999992011020904004+47050+007067FM-12+043199999V0202101N000519999999N9999999N1-00301+99999102531ADDMA1999999097111MD1010011+9999REMSYN060AAXX  09044 06606 43/// /2101 11030 2//// 39711 40253 50001;
0140066060999992011020905004+47050+007067FM-12+043199999V0202601N000519999999N9999999N1-00341+99999102531ADDMA1999999097101MD1710021+9999OA149900101REMSYN088AAXX  09054 06606 33/// /2601 11034 2//// 39710 40253 57002 333 553// 20000 91102 91201;
0175066060999992011020906004+47050+007067FM-12+043199999V0209999C000019999999N9999999N1-00401+99999102541ADDAL19900091KA1999N-00391MA1999999097101MD1710011+9999OA149900671REMSYN100AAXX  09064 06606 33/// /0000 11040 2//// 39710 40254 57001 333 21039 553// 20000 70000 91113 91210;
0140066060999992011020907004+47050+007067FM-12+043199999V0202801N000519999999N9999999N1-00461+99999102601ADDMA1999999097151MD1210041+9999OA149900151REMSYN088AAXX  09074 06606 33/// /2801 11046 2//// 39715 40260 52004 333 553// 20000 91103 91202;
0108066060999992011020908004+47050+007067FM-12+043199999V02099999999999999999N9999999N1+99999+99999999999ADDMD1219999+9999REMSYN082AAXX  09084 06606 43/// ///// 1//// 2//// 3//// 52/// 333 553// 20068 91103 91202;
0140066060999992011020909004+47050+007067FM-12+043199999V0209999C000019999999N9999999N1-00051+99999102581ADDMA1999999097211MD1210111+9999OA149900151REMSYN088AAXX  09094 06606 33/// /0000 11005 2//// 39721 40258 52011 333 553// 20688 91103 91202;
0140066060999992011020910004+47050+007067FM-12+043199999V0200701N001019999999N9999999N1+00231+99999102521ADDMA1999999097211MD1210061+9999OA149900151REMSYN088AAXX  09104 06606 33/// /0702 10023 2//// 39721 40252 52006 333 553// 2//// 91103 91202;
0140066060999992011020911004+47050+007067FM-12+043199999V0200901N001519999999N9999999N1+00391+99999102471ADDMA1999999097191MD1819999+9999OA149900211REMSYN088AAXX  09114 06606 33/// /0903 10039 2//// 39719 40247 58/// 333 553// 2//// 91104 91203;
0140066060999992011020912004+47050+007067FM-12+043199999V0200701N002619999999N9999999N1+00501+99999102371ADDMA1999999097121MD1710091+9999OA149900311REMSYN088AAXX  09124 06606 33/// /0705 10050 2//// 39712 40237 57009 333 553// 2//// 91106 91205;
0140066060999992011020913004+47050+007067FM-12+043199999V0200701N002119999999N9999999N1+00661+99999102291ADDMA1999999097071MD1710141+9999OA149900311REMSYN088AAXX  09134 06606 33/// /0704 10066 2//// 39707 40229 57014 333 553// 2//// 91106 91205;
0140066060999992011020914004+47050+007067FM-12+043199999V0201001N001519999999N9999999N1+00731+99999102231ADDMA1999999097031MD1610161+9999OA149900311REMSYN088AAXX  09144 06606 33/// /1003 10073 2//// 39703 40223 56016 333 553// 2//// 91106 91205;
0140066060999992011020915004+47050+007067FM-12+043199999V0200801N002119999999N9999999N1+00771+99999102231ADDMA1999999097031MD1710091+9999OA149900311REMSYN088AAXX  09154 06606 33/// /0804 10077 2//// 39703 40223 57009 333 553// 2//// 91106 91205;
0140066060999992011020916004+47050+007067FM-12+043199999V0200801N001519999999N9999999N1+00691+99999102241ADDMA1999999097031MD1710041+9999OA149900261REMSYN088AAXX  09164 06606 33/// /0803 10069 2//// 39703 40224 57004 333 553// 20504 91105 91204;
0140066060999992011020917004+47050+007067FM-12+043199999V0209999C000019999999N9999999N1+00431+99999102301ADDMA1999999097041MD1210011+9999OA149900261REMSYN088AAXX  09174 06606 33/// /0000 10043 2//// 39704 40230 52001 333 553// 20068 91105 91204;
0159066060999992011020918004+47050+007067FM-12+043199999V0209999C000019999999N9999999N1+00201+99999102401ADDKA1120M+00781MA1999999097091MD1310061+9999OA149900311REMSYN094AAXX  09184 06606 33/// /0000 10020 2//// 39709 40240 53006 333 10078 553// 20000 91106 91205;
0140066060999992011020919004+47050+007067FM-12+043199999V0209999C000019999999N9999999N1+00141+99999102461ADDMA1999999097131MD1310101+9999OA149900151REMSYN088AAXX  09194 06606 33/// /0000 10014 2//// 39713 40246 53010 333 553// 20000 91103 91202;
0087066060999992011020920004+47050+007067FM-12+043199999V0209999C000019999999N9999999N1-00041+99999102511ADDMA1999999097141REMSYN060AAXX  09204 06606 43/// /0000 11004 2//// 39714 40251 5////;
0140066060999992011020921004+47050+007067FM-12+043199999V0202201N000519999999N9999999N1-00061+99999102551ADDMA1999999097181MD1110091+9999OA149900261REMSYN088AAXX  09214 06606 33/// /2201 11006 2//// 39718 40255 51009 333 553// 20000 91105 91204;
0140066060999992011020922004+47050+007067FM-12+043199999V0209999C000019999999N9999999N1-00231+99999102611ADDMA1999999097201MD1110071+9999OA149900051REMSYN088AAXX  09224 06606 33/// /0000 11023 2//// 39720 40261 51007 333 553// 20000 91101 91201;
0140066060999992011020923004+47050+007067FM-12+043199999V0209999C000019999999N9999999N1-00231+99999102641ADDMA1999999097231MD1110081+9999OA149900101REMSYN088AAXX  09234 06606 33/// /0000 11023 2//// 39723 40264 51008 333 553// 20000 91102 91201;
0140066060999992011021000004+47050+007067FM-12+043199999V0202601N000519999999N9999999N1-00311+99999102681ADDMA1999999097251MD1210071+9999OA149900311REMSYN088AAXX  10004 06606 33/// /2601 11031 2//// 39725 40268 52007 333 553// 20000 91106 91205;
0140066060999992011021001004+47050+007067FM-12+043199999V0209999C000019999999N9999999N1-00301+99999102691ADDMA1999999097261MD1210061+9999OA149900101REMSYN088AAXX  10014 06606 33/// /0000 11030 2//// 39726 40269 52006 333 553// 20000 91102 91201;
0140066060999992011021002004+47050+007067FM-12+043199999V0209999C000019999999N9999999N1-00381+99999102701ADDMA1999999097261MD1210031+9999OA149900101REMSYN088AAXX  10024 06606 33/// /0000 11038 2//// 39726 40270 52003 333 553// 20000 91102 91201;
0140066060999992011021003004+47050+007067FM-12+043199999V0209999C000019999999N9999999N1-00421+99999102701ADDMA1999999097251MD1010001+9999OA149900101REMSYN088AAXX  10034 06606 33/// /0000 11042 2//// 39725 40270 50000 333 553// 20000 91102 91201;
0140066060999992011021004004+47050+007067FM-12+043199999V0200301N000519999999N9999999N1-00421+99999102691ADDMA1999999097241MD1710021+9999OA149900051REMSYN088AAXX  10044 06606 33/// /0301 11042 2//// 39724 40269 57002 333 553// 20000 91101 91201;
0140066060999992011021005004+47050+007067FM-12+043199999V0209999C000019999999N9999999N1-00451+99999102731ADDMA1999999097271MD1310011+9999OA149900051REMSYN088AAXX  10054 06606 33/// /0000 11045 2//// 39727 40273 53001 333 553// 20000 91101 91201;
0175066060999992011021006004+47050+007067FM-12+043199999V0201901N000519999999N9999999N1-00511+99999102741ADDAL19900091KA1999N-00531MA1999999097271MD1210021+9999OA149900151REMSYN100AAXX  10064 06606 33/// /1901 11051 2//// 39727 40274 52002 333 21053 553// 20000 70000 91103 91202;
0140066060999992011021007004+47050+007067FM-12+043199999V0203001N000519999999N9999999N1-00531+99999102801ADDMA1999999097321MD1310081+9999OA149900101REMSYN088AAXX  10074 06606 33/// /3001 11053 2//// 39732 40280 53008 333 553// 20000 91102 91201;
0140066060999992011021008004+47050+007067FM-12+043199999V0209999C000019999999N9999999N1-00401+99999102801ADDMA1999999097351MD1310081+9999OA149900101REMSYN088AAXX  10084 06606 33/// /0000 11040 2//// 39735 40280 53008 333 553// 20191 91102 91201;
0140066060999992011021009004+47050+007067FM-12+043199999V0202001N000519999999N9999999N1-00151+99999102741ADDMA1999999097341MD1210071+9999OA149900101REMSYN088AAXX  10094 06606 33/// /2001 11015 2//// 39734 40274 52007 333 553// 20670 91102 91202;
0140066060999992011021010004+47050+007067FM-12+043199999V0201701N000519999999N9999999N1+00101+99999102661ADDMA1999999097311MD1810011+9999OA149900151REMSYN088AAXX  10104 06606 33/// /1701 10010 2//// 39731 40266 58001 333 553// 2//// 91103 91202;
