0110066050999992010010100004+47133+007067FM-12+159999999V0202601N005119999999N9999999N1-00051-00161999999ADDMA1999999081551MD1610111+9999ME1312639REMSYN060AAXX  01004 06605 33/// /2610 11005 21016 38155 48263 56011;
0137066050999992010010101004+47133+007067FM-12+159999999V0202401N005119999999N9999999N1-00091-00191999999ADDMA1999999081501MD1810121+9999ME1312589OA149900671REMSYN076AAXX  01014 06605 33/// /2410 11009 21019 38150 48258 58012 333 91113 91211;
0137066050999992010010102004+47133+007067FM-12+159999999V0202401N005119999999N9999999N1-00011-00191999999ADDMA1999999081471MD1819999+9999ME1312549OA149900621REMSYN076AAXX  01024 06605 33/// /2410 11001 21019 38147 48254 58/// 333 91112 91211;
0096066050999992010010103004+47133+007067FM-12+159999999V0202701N004619999999N9999999N1-00061-00181999999ADDMA1999999081421ME1312509REMSYN060AAXX  01034 06605 43/// /2709 11006 21018 38142 48250 5////;
0096066050999992010010104004+47133+007067FM-12+159999999V0202901N004619999999N9999999N1-00071-00211999999ADDMA1999999081381ME1312469REMSYN060AAXX  01044 06605 33/// /2909 11007 21021 38138 48246 5////;
0137066050999992010010105004+47133+007067FM-12+159999999V0203301N004619999999N9999999N1-00091-00201999999ADDMA1999999081361MD1610111+9999ME1312459OA149900621REMSYN076AAXX  01054 06605 33/// /3309 11009 21020 38136 48245 56011 333 91112 91211;
0164066050999992010010106004+47133+007067FM-12+159999999V0203301N003619999999N9999999N1-00061-00361999999ADDAA124004891GJ100249KA1999N-00121MA1999999081351MD1610071+9999ME1312439REMSYN082AAXX  01064 06605 33/// /3307 11006 21036 38135 48243 56007 333 21012 55004 70047;
0137066050999992010010107004+47133+007067FM-12+159999999V0203401N005119999999N9999999N1-00081-00361999999ADDMA1999999081341MD1610041+9999ME1312429OA149900671REMSYN076AAXX  01074 06605 33/// /3410 11008 21036 38134 48242 56004 333 91113 91212;
0137066050999992010010108004+47133+007067FM-12+159999999V0203401N003619999999N9999999N1-00061-00331999999ADDMA1999999081391MD1210031+9999ME1312479OA149900671REMSYN076AAXX  01084 06605 33/// /3407 11006 21033 38139 48247 52003 333 91113 91211;
0137066050999992010010109004+47133+007067FM-12+159999999V0209999C002119999999N9999999N1-00081-00321999999ADDMA1999999081431MD1210081+9999ME1312519OA149900671REMSYN076AAXX  01094 06605 33/// /0004 11008 21032 38143 48251 52008 333 91113 91212;
0137066050999992010010110004+47133+007067FM-12+159999999V0203501N001519999999N9999999N1-00141-00331999999ADDMA1999999081491MD1210151+9999ME1312589OA149900411REMSYN076AAXX  01104 06605 33/// /3503 11014 21033 38149 48258 52015 333 91108 91206;
0137066050999992010010111004+47133+007067FM-12+159999999V0203201N001519999999N9999999N1-00101-00131999999ADDMA1999999081501MD1210111+9999ME1312589OA149900411REMSYN076AAXX  01114 06605 33/// /3203 11010 21013 38150 48258 52011 333 91108 91207;
0137066050999992010010112004+47133+007067FM-12+159999999V0202101N000519999999N9999999N1-00101-00131999999ADDMA1999999081501MD1010071+9999ME1312589OA149900671REMSYN076AAXX  01124 06605 33/// /2101 11010 21013 38150 48258 50007 333 91113 91212;
0137066050999992010010113004+47133+007067FM-12+159999999V0203001N004119999999N9999999N1-00131-00131999999ADDMA1999999081541MD1210051+9999ME1312639OA149900571REMSYN076AAXX  01134 06605 33/// /3008 11013 21013 38154 48263 52005 333 91111 91209;
0154066050999992010010114004+47133+007067FM-12+159999999V0203101N009319999999N9999999N1-00261-00261999999ADDAA101000591MA1999999081591MD1319999+9999ME1312699OA149901131REMSYN082AAXX  01144 06605 23/// /3118 11026 21026 38159 48269 53/// 333 69965 91122 91218;
0154066050999992010010115004+47133+007067FM-12+159999999V0203101N013919999999N9999999N1-00391-00391999999ADDAA101002091MA1999999081661MD1310161+9999ME1312789OA149901651REMSYN082AAXX  01154 06605 23/// /3127 11039 21039 38166 48278 53016 333 60025 91132 91227;
0154066050999992010010116004+47133+007067FM-12+159999999V0203101N018519999999N9999999N1-00511-00511999999ADDAA101003091MA1999999081681MD1110141+9999ME1312819OA149902211REMSYN082AAXX  01164 06605 23/// /3136 11051 21051 38168 48281 51014 333 60035 91143 91236;
0154066050999992010010117004+47133+007067FM-12+159999999V0203201N018519999999N9999999N1-00541-00541999999ADDAA101002091MA1999999081771MD1310181+9999ME1312909OA149902631REMSYN082AAXX  01174 06605 23/// /3236 11054 21054 38177 48290 53018 333 60025 91151 91239;
0179066050999992010010118004+47133+007067FM-12+159999999V0203201N018019999999N9999999N1-00631-00631999999ADDAA112008991KA1120M-00041MA1999999081881MD1310221+9999ME1313029OA149902631REMSYN094AAXX  01184 06605 03/// /3235 11063 21063 38188 48302 53022 60092 333 11004 60015 91151 91239;
0154066050999992010010119004+47133+007067FM-12+159999999V0203001N019019999999N9999999N1-00681-00681999999ADDAA101000891MA1999999081991MD1210311+9999ME1313139OA149902321REMSYN082AAXX  01194 06605 23/// /3037 11068 21068 38199 48313 52031 333 69985 91145 91239;
0154066050999992010010120004+47133+007067FM-12+159999999V0202901N011319999999N9999999N1-00711-00741999999ADDAA101000021MA1999999082191MD1310421+9999ME1313339OA149902321REMSYN082AAXX  01204 06605 23/// /2922 11071 21074 38219 48333 53042 333 69915 91145 91239;
0137066050999992010010121004+47133+007067FM-12+159999999V0202901N012919999999N9999999N1-00801-01141999999ADDMA1999999082261MD1110381+9999ME1313409OA149902631REMSYN076AAXX  01214 06605 33/// /2925 11080 21114 38226 48340 51038 333 91151 91239;
0154066050999992010010122004+47133+007067FM-12+159999999V0202901N014419999999N9999999N1-00841-01241999999ADDAA101000021MA1999999082321MD1210331+9999ME1313469OA149902011REMSYN082AAXX  01224 06605 23/// /2928 11084 21124 38232 48346 52033 333 69925 91139 91230;
0154066050999992010010123004+47133+007067FM-12+159999999V0203001N018519999999N9999999N1-00901-00901999999ADDAA101000391MA1999999082341MD1210151+9999ME1313499OA149902371REMSYN082AAXX  01234 06605 23/// /3036 11090 21090 38234 48349 52015 333 69935 91146 91239;
0160066050999992010010200004+47133+007067FM-12+159999999V0203001N020619999999N9999999N1-00961-00961999999ADDAA106002091MA1999999082351MD1210091+9999ME1313509OA149902631REMSYN088AAXX  02004 06605 03/// /3040 11096 21096 38235 48350 52009 60021 333 69935 91151 91240;
0131066050999992010010201004+47133+007067FM-12+159999999V02099999999999999999N9999999N1-00941-00941999999ADDAA101000591MA1999999082411MD1210091+9999ME1313569REMSYN070AAXX  02014 06605 23/// ///// 11094 21094 38241 48356 52009 333 69955;
0117066050999992010010202004+47133+007067FM-12+159999999V02099999999999999999N9999999N1-01021-01021999999ADDAA101001091MA1999999082411ME1313569REMSYN070AAXX  02024 06605 23/// ///// 11102 21102 38241 48356 5//// 333 60015;
0131066050999992010010203004+47133+007067FM-12+159999999V02099999999999999999N9999999N1-00991-00991999999ADDAA101000891MA1999999082601MD1210251+9999ME1313749REMSYN070AAXX  02034 06605 23/// ///// 11099 21099 38260 48374 52025 333 69985;
0131066050999992010010204004+47133+007067FM-12+159999999V02099999999999999999N9999999N1-01031-01031999999ADDAA101000591MA1999999082681MD1210271+9999ME1313829REMSYN070AAXX  02044 06605 23/// ///// 11103 21103 38268 48382 52027 333 69945;
0110066050999992010010205004+47133+007067FM-12+159999999V02099999999999999999N9999999N1-01031-01031999999ADDMA1999999082761MD1210351+9999ME1313899REMSYN060AAXX  02054 06605 33/// ///// 11103 21103 38276 48389 52035;
0187066050999992010010206004+47133+007067FM-12+159999999V0203101N015919999999N9999999N1-01101-01101999999ADDAA112005191AA224013591GJ100249KA1999N-01081MA1999999082781MD1210181+9999ME1313929REMSYN094AAXX  02064 06605 03/// /3131 11110 21110 38278 48392 52018 60052 333 21108 55004 69935 70135;
0110066050999992010010207004+47133+007067FM-12+159999999V0203101N016419999999N9999999N1-01131-01131999999ADDMA1999999082851MD1210171+9999ME1313999REMSYN060AAXX  02074 06605 33/// /3132 11113 21113 38285 48399 52017;
0117066050999992010010208004+47133+007067FM-12+159999999V0203201N015919999999N9999999N1-01191-01211999999ADDAA101000021MA1999999082901ME1314049REMSYN070AAXX  02084 06605 23/// /3231 11119 21121 38290 48404 5//// 333 69915;
0131066050999992010010209004+47133+007067FM-12+159999999V0203301N015419999999N9999999N1-01191-01201999999ADDAA101000021MA1999999083001MD1210221+9999ME1314139REMSYN070AAXX  02094 06605 23/// /3330 11119 21120 38300 48413 52022 333 69915;
0154066050999992010010210004+47133+007067FM-12+159999999V0203301N013419999999N9999999N1-01211-01431999999ADDAA101000021MA1999999083111MD1210261+9999ME1314239OA149902011REMSYN082AAXX  02104 06605 23/// /3326 11121 21143 38311 48423 52026 333 69915 91139 91233;
0137066050999992010010211004+47133+007067FM-12+159999999V0203201N010819999999N9999999N1-01201-01331999999ADDMA1999999083181MD1110281+9999ME1314309OA149901851REMSYN076AAXX  02114 06605 33/// /3221 11120 21133 38318 48430 51028 333 91136 91232;
0137066050999992010010212004+47133+007067FM-12+159999999V0203101N011319999999N9999999N1-01191-01341999999ADDAA106000391MA1999999083231MD1210231+9999ME1314349REMSYN076AAXX  02124 06605 03/// /3122 11119 21134 38323 48434 52023 69931 333 60005;
0137066050999992010010213004+47133+007067FM-12+159999999V0203101N009319999999N9999999N1-01181-01401999999ADDMA1999999083311MD1210201+9999ME1314429OA149901601REMSYN076AAXX  02134 06605 33/// /3118 11118 21140 38331 48442 52020 333 91131 91224;
0137066050999992010010214004+47133+007067FM-12+159999999V0203101N011819999999N9999999N1-01201-01431999999ADDMA1999999083341MD1219999+9999ME1314449OA149901441REMSYN076AAXX  02144 06605 33/// /3123 11120 21143 38334 48444 52/// 333 91128 91223;
0137066050999992010010215004+47133+007067FM-12+159999999V0203101N007719999999N9999999N1-01241-01401999999ADDMA1999999083441MD1310211+9999ME1314549OA149901851REMSYN076AAXX  02154 06605 33/// /3115 11124 21140 38344 48454 53021 333 91136 91232;
0137066050999992010010216004+47133+007067FM-12+159999999V0203001N007719999999N9999999N1-01251-01511999999ADDMA1999999083501MD1310191+9999ME1314599OA149901291REMSYN076AAXX  02164 06605 33/// /3015 11125 21151 38350 48459 53019 333 91125 91221;
0137066050999992010010217004+47133+007067FM-12+159999999V0203001N007719999999N9999999N1-01281-01471999999ADDMA1999999083541MD1110201+9999ME1314639OA149900931REMSYN076AAXX  02174 06605 33/// /3015 11128 21147 38354 48463 51020 333 91118 91215;
0179066050999992010010218004+47133+007067FM-12+159999999V0202801N001519999999N9999999N1-01141-01771999999ADDAA112000391KA1120M-01091MA1999999083591MD1110151+9999ME1314679OA149902161REMSYN094AAXX  02184 06605 03/// /2803 11114 21177 38359 48467 51015 69932 333 11109 60005 91142 91235;
0137066050999992010010219004+47133+007067FM-12+159999999V0202101N001519999999N9999999N1-01241-01681999999ADDMA1999999083601MD1110101+9999ME1314699OA149900881REMSYN076AAXX  02194 06605 33/// /2103 11124 21168 38360 48469 51010 333 91117 91214;
0137066050999992010010220004+47133+007067FM-12+159999999V0201601N004119999999N9999999N1-01211-01711999999ADDMA1999999083581MD1010041+9999ME1314679OA149900461REMSYN076AAXX  02204 06605 33/// /1608 11121 21171 38358 48467 50004 333 91109 91208;
0137066050999992010010221004+47133+007067FM-12+159999999V0202001N003619999999N9999999N1-01191-01941999999ADDMA1999999083591MD1010001+9999ME1314679OA149900931REMSYN076AAXX  02214 06605 33/// /2007 11119 21194 38359 48467 50000 333 91118 91215;
0137066050999992010010222004+47133+007067FM-12+159999999V0202201N004619999999N9999999N1-01201-02391999999ADDMA1999999083611MD1310011+9999ME1314699OA149900621REMSYN076AAXX  02224 06605 33/// /2209 11120 21239 38361 48469 53001 333 91112 91210;
0137066050999992010010223004+47133+007067FM-12+159999999V0202201N005719999999N9999999N1-01181-02781999999ADDMA1999999083631MD1210051+9999ME1314719OA149900721REMSYN076AAXX  02234 06605 33/// /2211 11118 21278 38363 48471 52005 333 91114 91212;
0137066050999992010010300004+47133+007067FM-12+159999999V0202601N005119999999N9999999N1-01191-01941999999ADDMA1999999083601MD1010011+9999ME1314689OA149901441REMSYN076AAXX  03004 06605 33/// /2610 11119 21194 38360 48468 50001 333 91128 91223;
0137066050999992010010301004+47133+007067FM-12+159999999V0202901N004119999999N9999999N1-01141-01731999999ADDMA1999999083601MD1710011+9999ME1314689OA149900771REMSYN076AAXX  03014 06605 33/// /2908 11114 21173 38360 48468 57001 333 91115 91213;
0096066050999992010010302004+47133+007067FM-12+159999999V0202901N002119999999N9999999N1-01071-01671999999ADDMA1999999083621ME1314709REMSYN060AAXX  03024 06605 33/// /2904 11107 21167 38362 48470 5////;
0096066050999992010010303004+47133+007067FM-12+159999999V0202401N006219999999N9999999N1-01091-01941999999ADDMA1999999083591ME1314679REMSYN060AAXX  03034 06605 33/// /2412 11109 21194 38359 48467 5////;
0137066050999992010010304004+47133+007067FM-12+159999999V0202501N006219999999N9999999N1-01101-02541999999ADDMA1999999083571MD1810031+9999ME1314659OA149900721REMSYN076AAXX  03044 06605 33/// /2512 11110 21254 38357 48465 58003 333 91114 91214;
0137066050999992010010305004+47133+007067FM-12+159999999V0202601N006219999999N9999999N1-01071-02321999999ADDMA1999999083531MD1719999+9999ME1314619OA149900721REMSYN076AAXX  03054 06605 33/// /2612 11107 21232 38353 48461 57/// 333 91114 91214;
0197066050999992010010306004+47133+007067FM-12+159999999V0202601N005119999999N9999999N1-01061-02841999999ADDAA124000591AL12400091GJ101209KA1999N-01291MA1999999083501MD1710091+9999ME1314589OA149900771REMSYN094AAXX  03064 06605 33/// /2610 11106 21284 38350 48458 57009 333 21129 55020 70004 91115 91214;
0137066050999992010010307004+47133+007067FM-12+159999999V0202401N004119999999N9999999N1-01031-02801999999ADDMA1999999083511MD1710061+9999ME1314599OA149900621REMSYN076AAXX  03074 06605 33/// /2408 11103 21280 38351 48459 57006 333 91112 91211;
0137066050999992010010308004+47133+007067FM-12+159999999V0202201N006719999999N9999999N1-01011-02691999999ADDMA1999999083551MD1319999+9999ME1314639OA149900721REMSYN076AAXX  03084 06605 33/// /2213 11101 21269 38355 48463 53/// 333 91114 91213;
0137066050999992010010309004+47133+007067FM-12+159999999V0202501N006719999999N9999999N1-00811-02021999999ADDMA1999999083581MD1210081+9999ME1314659OA149900821REMSYN076AAXX  03094 06605 33/// /2513 11081 21202 38358 48465 52008 333 91116 91214;
0137066050999992010010310004+47133+007067FM-12+159999999V0202601N004119999999N9999999N1-00771-01911999999ADDMA1999999083561MD1010051+9999ME1314639OA149900821REMSYN076AAXX  03104 06605 33/// /2608 11077 21191 38356 48463 50005 333 91116 91214;
0137066050999992010010311004+47133+007067FM-12+159999999V0202901N004619999999N9999999N1-00771-01951999999ADDMA1999999083511MD1810041+9999ME1314589OA149900771REMSYN076AAXX  03114 06605 33/// /2909 11077 21195 38351 48458 58004 333 91115 91213;
0137066050999992010010312004+47133+007067FM-12+159999999V0202801N005119999999N9999999N1-00761-01911999999ADDMA1999999083481MD1710101+9999ME1314559OA149900821REMSYN076AAXX  03124 06605 33/// /2810 11076 21191 38348 48455 57010 333 91116 91214;
0137066050999992010010313004+47133+007067FM-12+159999999V0203101N004119999999N9999999N1-00781-01851999999ADDMA1999999083451MD1610111+9999ME1314529OA149900571REMSYN076AAXX  03134 06605 33/// /3108 11078 21185 38345 48452 56011 333 91111 91210;
0137066050999992010010314004+47133+007067FM-12+159999999V0203101N004119999999N9999999N1-00821-01881999999ADDMA1999999083461MD1710051+9999ME1314539OA149900571REMSYN076AAXX  03144 06605 33/// /3108 11082 21188 38346 48453 57005 333 91111 91210;
0137066050999992010010315004+47133+007067FM-12+159999999V0203301N005119999999N9999999N1-00871-01901999999ADDMA1999999083461MD1510021+9999ME1314549OA149900771REMSYN076AAXX  03154 06605 33/// /3310 11087 21190 38346 48454 55002 333 91115 91213;
0137066050999992010010316004+47133+007067FM-12+159999999V0203401N002119999999N9999999N1-00831-02121999999ADDMA1999999083441MD1810011+9999ME1314529OA149900571REMSYN076AAXX  03164 06605 33/// /3404 11083 21212 38344 48452 58001 333 91111 91211;
0137066050999992010010317004+47133+007067FM-12+159999999V0203001N002119999999N9999999N1-00781-02261999999ADDMA1999999083421MD1810041+9999ME1314499OA149900571REMSYN076AAXX  03174 06605 33/// /3004 11078 21226 38342 48449 58004 333 91111 91210;
0156066050999992010010318004+47133+007067FM-12+159999999V0203001N003119999999N9999999N1-00791-02631999999ADDKA1120M-00711MA1999999083431MD1710031+9999ME1314509OA149900821REMSYN082AAXX  03184 06605 33/// /3006 11079 21263 38343 48450 57003 333 11071 91116 91214;
0137066050999992010010319004+47133+007067FM-12+159999999V0201801N001019999999N9999999N1-00741-02321999999ADDMA1999999083391MD1710051+9999ME1314469OA149900361REMSYN076AAXX  03194 06605 33/// /1802 11074 21232 38339 48446 57005 333 91107 91206;
0137066050999992010010320004+47133+007067FM-12+159999999V0201701N001019999999N9999999N1-00741-02261999999ADDMA1999999083371MD1710051+9999ME1314459OA149900311REMSYN076AAXX  03204 06605 33/// /1702 11074 21226 38337 48445 57005 333 91106 91205;
0137066050999992010010321004+47133+007067FM-12+159999999V0201801N002619999999N9999999N1-00791-02691999999ADDMA1999999083351MD1710081+9999ME1314439OA149900571REMSYN076AAXX  03214 06605 33/// /1805 11079 21269 38335 48443 57008 333 91111 91210;
0137066050999992010010322004+47133+007067FM-12+159999999V0201801N002619999999N9999999N1-00671-03021999999ADDMA1999999083321MD1710071+9999ME1314399OA149900361REMSYN076AAXX  03224 06605 33/// /1805 11067 21302 38332 48439 57007 333 91107 91205;
0137066050999992010010323004+47133+007067FM-12+159999999V0202101N002619999999N9999999N1-00651-02971999999ADDMA1999999083311MD1610061+9999ME1314389OA149900361REMSYN076AAXX  03234 06605 33/// /2105 11065 21297 38331 48438 56006 333 91107 91205;
0137066050999992010010400004+47133+007067FM-12+159999999V0201801N002619999999N9999999N1-00681-02741999999ADDMA1999999083221MD1810131+9999ME1314309OA149900571REMSYN076AAXX  04004 06605 33/// /1805 11068 21274 38322 48430 58013 333 91111 91211;
0137066050999992010010401004+47133+007067FM-12+159999999V0202501N001519999999N9999999N1-00681-03101999999ADDMA1999999083161MD1810161+9999ME1314249OA149900411REMSYN076AAXX  04014 06605 33/// /2503 11068 21310 38316 48424 58016 333 91108 91207;
0137066050999992010010402004+47133+007067FM-12+159999999V0202101N001019999999N9999999N1-00671-03211999999ADDMA1999999083141MD1610171+9999ME1314229OA149900411REMSYN076AAXX  04024 06605 33/// /2102 11067 21321 38314 48422 56017 333 91108 91207;
0137066050999992010010403004+47133+007067FM-12+159999999V0201401N001019999999N9999999N1-00621-03391999999ADDMA1999999083101MD1719999+9999ME1314189OA149900411REMSYN076AAXX  04034 06605 33/// /1402 11062 21339 38310 48418 57/// 333 91108 91207;
0137066050999992010010404004+47133+007067FM-12+159999999V0201601N001519999999N9999999N1-00631-03251999999ADDMA1999999083061MD1710101+9999ME1314159OA149900261REMSYN076AAXX  04044 06605 33/// /1603 11063 21325 38306 48415 57010 333 91105 91204;
0137066050999992010010405004+47133+007067FM-12+159999999V0202301N001519999999N9999999N1-00581-03271999999ADDMA1999999083051MD1710091+9999ME1314139OA149900261REMSYN076AAXX  04054 06605 33/// /2303 11058 21327 38305 48413 57009 333 91105 91204;
0216066050999992010010406004+47133+007067FM-12+159999999V0202501N001519999999N9999999N1-00591-02961999999ADDAA124000091AL19900091GJ103729KA1999N-00831MA1999999083031MD1710071+9999ME1314119OA149900411REMSYN094AAXX  04064 06605 33/// /2503 11059 21296 38303 48411 57007 333 21083 55062 70000 91108 91207;EQDQ01  00002PRCP24
0137066050999992010010407004+47133+007067FM-12+159999999V0203501N001519999999N9999999N1-00831-02971999999ADDMA1999999083001MD1710061+9999ME1314109OA149900211REMSYN076AAXX  04074 06605 33/// /3503 11083 21297 38300 48410 57006 333 91104 91204;
0137066050999992010010408004+47133+007067FM-12+159999999V0201901N002619999999N9999999N1-00811-02881999999ADDMA1999999083011MD1710041+9999ME1314119OA149900361REMSYN076AAXX  04084 06605 33/// /1905 11081 21288 38301 48411 57004 333 91107 91206;
0137066050999992010010409004+47133+007067FM-12+159999999V0203101N000519999999N9999999N1-00711-02981999999ADDMA1999999083021MD1510011+9999ME1314119OA149900361REMSYN076AAXX  04094 06605 33/// /3101 11071 21298 38302 48411 55001 333 91107 91206;
0137066050999992010010410004+47133+007067FM-12+159999999V0203601N001519999999N9999999N1-00691-03261999999ADDMA1999999083011MD1210011+9999ME1314109OA149900311REMSYN076AAXX  04104 06605 33/// /3603 11069 21326 38301 48410 52001 333 91106 91205;
0137066050999992010010411004+47133+007067FM-12+159999999V0201701N001519999999N9999999N1-00651-02681999999ADDMA1999999082961MD1810051+9999ME1314059OA149900261REMSYN076AAXX  04114 06605 33/// /1703 11065 21268 38296 48405 58005 333 91105 91204;
0137066050999992010010412004+47133+007067FM-12+159999999V0202601N001519999999N9999999N1-00591-02621999999ADDMA1999999082901MD1810121+9999ME1313999OA149900411REMSYN076AAXX  04124 06605 33/// /2603 11059 21262 38290 48399 58012 333 91108 91207;
0137066050999992010010413004+47133+007067FM-12+159999999V0202901N001519999999N9999999N1-00501-03211999999ADDMA1999999082841MD1710171+9999ME1313939OA149900261REMSYN076AAXX  04134 06605 33/// /2903 11050 21321 38284 48393 57017 333 91105 91204;
0137066050999992010010414004+47133+007067FM-12+159999999V0203101N001519999999N9999999N1-00581-02921999999ADDMA1999999082821MD1619999+9999ME1313919OA149900261REMSYN076AAXX  04144 06605 33/// /3103 11058 21292 38282 48391 56/// 333 91105 91204;
0137066050999992010010415004+47133+007067FM-12+159999999V0202601N001519999999N9999999N1-00591-03581999999ADDMA1999999082811MD1610091+9999ME1313919OA149900261REMSYN076AAXX  04154 06605 33/// /2603 11059 21358 38281 48391 56009 333 91105 91204;
0137066050999992010010416004+47133+007067FM-12+159999999V0202901N001519999999N9999999N1-00641-03291999999ADDMA1999999082811MD1610031+9999ME1313919OA149900261REMSYN076AAXX  04164 06605 33/// /2903 11064 21329 38281 48391 56003 333 91105 91204;
0137066050999992010010417004+47133+007067FM-12+159999999V0203101N001019999999N9999999N1-00681-03121999999ADDMA1999999082791MD1810031+9999ME1313899OA149900261REMSYN076AAXX  04174 06605 33/// /3102 11068 21312 38279 48389 58003 333 91105 91204;
0191066050999992010010418004+47133+007067FM-12+159999999V0201801N002619999999N9999999N1-00791+99999999999ADDKA1120M-00501MA1999999082761MD1810051+9999ME1313879OA149900361REMSYN082AAXX  04184 06605 33/// /1805 11079 21151 38276 48387 58005 333 11050 91107 91206;EQDQ01-001513ATOD  Q02 -01513ATOD  
0137066050999992010010419004+47133+007067FM-12+159999999V0201701N002619999999N9999999N1-00671-02771999999ADDMA1999999082761MD1610051+9999ME1313869OA149900411REMSYN076AAXX  04194 06605 33/// /1705 11067 21277 38276 48386 56005 333 91108 91206;
0156066050999992010010420004+47133+007067FM-12+159999999V0201801N002619999999N9999999N1-00751-01202999999ADDMA1999999082741MD1610051+9999ME1313859OA149900411REMSYN076AAXX  04204 06605 33/// /1805 11075 21120 38274 48385 56005 333 91108 91206;EQDQ01-001203ATOD  
0137066050999992010010421004+47133+007067FM-12+159999999V0201801N003119999999N9999999N1-00761-01351999999ADDMA1999999082721MD1810041+9999ME1313839OA149900411REMSYN076AAXX  04214 06605 33/// /1806 11076 21135 38272 48383 58004 333 91108 91206;
0137066050999992010010422004+47133+007067FM-12+159999999V0202301N004619999999N9999999N1-00661-00931999999ADDMA1999999082691MD1810071+9999ME1313809OA149900621REMSYN076AAXX  04224 06605 33/// /2309 11066 21093 38269 48380 58007 333 91112 91209;
0137066050999992010010423004+47133+007067FM-12+159999999V0202101N004619999999N9999999N1-00701-00791999999ADDMA1999999082671MD1810071+9999ME1313789OA149900621REMSYN076AAXX  04234 06605 33/// /2109 11070 21079 38267 48378 58007 333 91112 91209;
0137066050999992010010500004+47133+007067FM-12+159999999V0202401N005119999999N9999999N1-00701-00731999999ADDMA1999999082621MD1810101+9999ME1313739OA149900671REMSYN076AAXX  05004 06605 33/// /2410 11070 21073 38262 48373 58010 333 91113 91211;
0137066050999992010010501004+47133+007067FM-12+159999999V0202601N006219999999N9999999N1-00661-00881999999ADDMA1999999082561MD1810131+9999ME1313679OA149900721REMSYN076AAXX  05014 06605 33/// /2612 11066 21088 38256 48367 58013 333 91114 91212;
0137066050999992010010502004+47133+007067FM-12+159999999V0202601N005119999999N9999999N1-00601-00661999999ADDMA1999999082541MD1610131+9999ME1313659OA149900771REMSYN076AAXX  05024 06605 33/// /2610 11060 21066 38254 48365 56013 333 91115 91213;
0137066050999992010010503004+47133+007067FM-12+159999999V0202501N005119999999N9999999N1-00601-00911999999ADDMA1999999082491MD1610131+9999ME1313609OA149900771REMSYN076AAXX  05034 06605 33/// /2510 11060 21091 38249 48360 56013 333 91115 91213;
0137066050999992010010504004+47133+007067FM-12+159999999V0202201N004619999999N9999999N1-00631-00661999999ADDMA1999999082441MD1810121+9999ME1313569OA149900621REMSYN076AAXX  05044 06605 33/// /2209 11063 21066 38244 48356 58012 333 91112 91211;
0137066050999992010010505004+47133+007067FM-12+159999999V0202501N004619999999N9999999N1-00451-00681999999ADDMA1999999082391MD1610151+9999ME1313499OA149900671REMSYN076AAXX  05054 06605 33/// /2509 11045 21068 38239 48349 56015 333 91113 91211;
0216066050999992010010506004+47133+007067FM-12+159999999V0202401N005119999999N9999999N1-00481-00481999999ADDAA124000091AL19900091GJ102589KA1999N-00841MA1999999082341MD1610151+9999ME1313459OA149900771REMSYN094AAXX  05064 06605 33/// /2410 11048 21048 38234 48345 56015 333 21084 55043 70000 91115 91213;EQDQ01  00002PRCP24
0137066050999992010010507004+47133+007067FM-12+159999999V0201901N004119999999N9999999N1-00631-00631999999ADDMA1999999082321MD1710121+9999ME1313449OA149900621REMSYN076AAXX  05074 06605 33/// /1908 11063 21063 38232 48344 57012 333 91112 91210;
0137066050999992010010508004+47133+007067FM-12+159999999V0202401N004119999999N9999999N1-00571-00661999999ADDMA1999999082301MD1710091+9999ME1313429OA149900621REMSYN076AAXX  05084 06605 33/// /2408 11057 21066 38230 48342 57009 333 91112 91211;
0137066050999992010010509004+47133+007067FM-12+159999999V0202201N006219999999N9999999N1-00541-00621999999ADDMA1999999082291MD1710051+9999ME1313409OA149900721REMSYN076AAXX  05094 06605 33/// /2212 11054 21062 38229 48340 57005 333 91114 91212;
0137066050999992010010510004+47133+007067FM-12+159999999V0202201N004619999999N9999999N1-00511-00541999999ADDMA1999999082251MD1710071+9999ME1313369OA149900881REMSYN076AAXX  05104 06605 33/// /2209 11051 21054 38225 48336 57007 333 91117 91213;
0137066050999992010010511004+47133+007067FM-12+159999999V0202301N006719999999N9999999N1-00391-00581999999ADDMA1999999082211MD1710091+9999ME1313319OA149900881REMSYN076AAXX  05114 06605 33/// /2313 11039 21058 38221 48331 57009 333 91117 91213;
0137066050999992010010512004+47133+007067FM-12+159999999V0202201N006719999999N9999999N1-00441-00491999999ADDMA1999999082141MD1810151+9999ME1313259OA149900881REMSYN076AAXX  05124 06605 33/// /2213 11044 21049 38214 48325 58015 333 91117 91213;
0137066050999992010010513004+47133+007067FM-12+159999999V0202301N005119999999N9999999N1-00381-00451999999ADDMA1999999082071MD1810181+9999ME1313189OA149900931REMSYN076AAXX  05134 06605 33/// /2310 11038 21045 38207 48318 58018 333 91118 91215;
0096066050999992010010514004+47133+007067FM-12+159999999V0202501N005719999999N9999999N1-00381-00641999999ADDMA1999999082051ME1313169REMSYN060AAXX  05144 06605 33/// /2511 11038 21064 38205 48316 5////;
0137066050999992010010515004+47133+007067FM-12+159999999V0202501N006219999999N9999999N1-00351-00351999999ADDMA1999999082031MD1710111+9999ME1313139OA149900931REMSYN076AAXX  05154 06605 33/// /2512 11035 21035 38203 48313 57011 333 91118 91215;
0137066050999992010010516004+47133+007067FM-12+159999999V0202601N005719999999N9999999N1-00371-00371999999ADDMA1999999082021MD1710051+9999ME1313139OA149900881REMSYN076AAXX  05164 06605 33/// /2611 11037 21037 38202 48313 57005 333 91117 91213;
0137066050999992010010517004+47133+007067FM-12+159999999V0202401N005119999999N9999999N1-00411-00521999999ADDMA1999999082001MD1710051+9999ME1313119OA149900771REMSYN076AAXX  05174 06605 33/// /2410 11041 21052 38200 48311 57005 333 91115 91212;
0156066050999992010010518004+47133+007067FM-12+159999999V0202301N004119999999N9999999N1-00471-00471999999ADDKA1120M-00321MA1999999081991MD1710041+9999ME1313119OA149900931REMSYN082AAXX  05184 06605 33/// /2308 11047 21047 38199 48311 57004 333 11032 91118 91215;
0137066050999992010010519004+47133+007067FM-12+159999999V0202301N006719999999N9999999N1-00401-00421999999ADDMA1999999081981MD1710041+9999ME1313099OA149900721REMSYN076AAXX  05194 06605 33/// /2313 11040 21042 38198 48309 57004 333 91114 91213;
0137066050999992010010520004+47133+007067FM-12+159999999V0202301N006219999999N9999999N1-00411-00461999999ADDMA1999999081951MD1710051+9999ME1313069OA149900771REMSYN076AAXX  05204 06605 33/// /2312 11041 21046 38195 48306 57005 333 91115 91213;
0137066050999992010010521004+47133+007067FM-12+159999999V0202401N007719999999N9999999N1-00361-00621999999ADDMA1999999081921MD1610071+9999ME1313039OA149900931REMSYN076AAXX  05214 06605 33/// /2415 11036 21062 38192 48303 56007 333 91118 91215;
0137066050999992010010522004+47133+007067FM-12+159999999V0202401N007219999999N9999999N1-00351-00351999999ADDMA1999999081891MD1610091+9999ME1313009OA149900931REMSYN076AAXX  05224 06605 33/// /2414 11035 21035 38189 48300 56009 333 91118 91215;
0137066050999992010010523004+47133+007067FM-12+159999999V0202701N006719999999N9999999N1-00431-00681999999ADDMA1999999081881MD1610071+9999ME1313009OA149900931REMSYN076AAXX  05234 06605 33/// /2713 11043 21068 38188 48300 56007 333 91118 91215;
0137066050999992010010600004+47133+007067FM-12+159999999V0202901N006219999999N9999999N1-00471-00471999999ADDMA1999999081861MD1610061+9999ME1312989OA149900931REMSYN076AAXX  06004 06605 33/// /2912 11047 21047 38186 48298 56006 333 91118 91215;
0137066050999992010010601004+47133+007067FM-12+159999999V0202801N007219999999N9999999N1-00491-00801999999ADDMA1999999081841MD1710051+9999ME1312969OA149900931REMSYN076AAXX  06014 06605 33/// /2814 11049 21080 38184 48296 57005 333 91118 91215;
0137066050999992010010602004+47133+007067FM-12+159999999V0202901N007719999999N9999999N1-00551-00551999999ADDMA1999999081861MD1510021+9999ME1312999OA149901031REMSYN076AAXX  06024 06605 33/// /2915 11055 21055 38186 48299 55002 333 91120 91215;
0137066050999992010010603004+47133+007067FM-12+159999999V0202901N006719999999N9999999N1-00671-00841999999ADDMA1999999081851MD1510011+9999ME1312999OA149901131REMSYN076AAXX  06034 06605 33/// /2913 11067 21084 38185 48299 55001 333 91122 91216;
0137066050999992010010604004+47133+007067FM-12+159999999V0202901N008219999999N9999999N1-00701-00811999999ADDMA1999999081831MD1010011+9999ME1312989OA149901131REMSYN076AAXX  06044 06605 33/// /2916 11070 21081 38183 48298 50001 333 91122 91217;
0137066050999992010010605004+47133+007067FM-12+159999999V0202901N006719999999N9999999N1-00801-00811999999ADDMA1999999081841MD1510021+9999ME1313009OA149901081REMSYN076AAXX  06054 06605 33/// /2913 11080 21081 38184 48300 55002 333 91121 91217;
0216066050999992010010606004+47133+007067FM-12+159999999V0202801N006219999999N9999999N1-00881-01061999999ADDAA124000091AL19900091GJ100009KA1999N-00841MA1999999081841MD1510011+9999ME1313019OA149901131REMSYN094AAXX  06064 06605 33/// /2812 11088 21106 38184 48301 55001 333 21084 55000 70000 91122 91217;EQDQ01  00002PRCP24
0137066050999992010010607004+47133+007067FM-12+159999999V0202801N006719999999N9999999N1-00921-01001999999ADDMA1999999081861MD1210031+9999ME1313039OA149901081REMSYN076AAXX  06074 06605 33/// /2813 11092 21100 38186 48303 52003 333 91121 91217;
0137066050999992010010608004+47133+007067FM-12+159999999V0202601N005719999999N9999999N1-00921-01011999999ADDMA1999999081891MD1210051+9999ME1313069OA149900981REMSYN076AAXX  06084 06605 33/// /2611 11092 21101 38189 48306 52005 333 91119 91215;
0137066050999992010010609004+47133+007067FM-12+159999999V0202301N007219999999N9999999N1-00821-00861999999ADDMA1999999081921MD1310081+9999ME1313089OA149901181REMSYN076AAXX  06094 06605 33/// /2314 11082 21086 38192 48308 53008 333 91123 91217;
0137066050999992010010610004+47133+007067FM-12+159999999V0202201N007719999999N9999999N1-00841-00991999999ADDMA1999999081951MD1210091+9999ME1313119OA149901241REMSYN076AAXX  06104 06605 33/// /2215 11084 21099 38195 48311 52009 333 91124 91216;
0137066050999992010010611004+47133+007067FM-12+159999999V0202101N008719999999N9999999N1-00841-00941999999ADDMA1999999081941MD1219999+9999ME1313109OA149901291REMSYN076AAXX  06114 06605 33/// /2117 11084 21094 38194 48310 52/// 333 91125 91217;
0156066050999992010010612004+47133+007067FM-12+159999999V0202001N007719999999N9999999N1-00851-00941999999ADDMA1999999081921MD1410001+9999ME1313089OA149901291REMSYN076AAXX  06124 06605 33/// /2015 11085 21094 38192 48308 58000 333 91125 91218;EQDQ01+000082APCTEN
0137066050999992010010613004+47133+007067FM-12+159999999V0202001N006219999999N9999999N1-00841-00931999999ADDMA1999999081941MD1510011+9999ME1313109OA149901241REMSYN076AAXX  06134 06605 33/// /2012 11084 21093 38194 48310 55001 333 91124 91217;
0137066050999992010010614004+47133+007067FM-12+159999999V0202401N006219999999N9999999N1-00841-00991999999ADDMA1999999081961MD1219999+9999ME1313129OA149901131REMSYN076AAXX  06144 06605 33/// /2412 11084 21099 38196 48312 52/// 333 91122 91215;
0137066050999992010010615004+47133+007067FM-12+159999999V0202001N006219999999N9999999N1-00891-00981999999ADDMA1999999081981MD1219999+9999ME1313149OA149901291REMSYN076AAXX  06154 06605 33/// /2012 11089 21098 38198 48314 52/// 333 91125 91218;
0137066050999992010010616004+47133+007067FM-12+159999999V0202301N007719999999N9999999N1-00971-01421999999ADDMA1999999082031MD1210091+9999ME1313209OA149901031REMSYN076AAXX  06164 06605 33/// /2315 11097 21142 38203 48320 52009 333 91120 91215;
0137066050999992010010617004+47133+007067FM-12+159999999V0202201N006219999999N9999999N1-00961-01131999999ADDMA1999999082071MD1110111+9999ME1313249OA149901031REMSYN076AAXX  06174 06605 33/// /2212 11096 21113 38207 48324 51011 333 91120 91215;
0156066050999992010010618004+47133+007067FM-12+159999999V0202501N009319999999N9999999N1-01011-01591999999ADDKA1120M-00781MA1999999082101MD1219999+9999ME1313279OA149901341REMSYN082AAXX  06184 06605 33/// /2518 11101 21159 38210 48327 52/// 333 11078 91126 91220;
0137066050999992010010619004+47133+007067FM-12+159999999V0202301N008219999999N9999999N1-00831-01041999999ADDMA1999999082121MD1210091+9999ME1313279OA149901341REMSYN076AAXX  06194 06605 33/// /2316 11083 21104 38212 48327 52009 333 91126 91220;
0137066050999992010010620004+47133+007067FM-12+159999999V0202301N009819999999N9999999N1-00901-01111999999ADDMA1999999082141MD1210071+9999ME1313309OA149901291REMSYN076AAXX  06204 06605 33/// /2319 11090 21111 38214 48330 52007 333 91125 91219;
0137066050999992010010621004+47133+007067FM-12+159999999V0202401N008719999999N9999999N1-00901-01011999999ADDMA1999999082171MD1210071+9999ME1313339OA149901341REMSYN076AAXX  06214 06605 33/// /2417 11090 21101 38217 48333 52007 333 91126 91220;
0154066050999992010010622004+47133+007067FM-12+159999999V0202501N008719999999N9999999N1-00961-01071999999ADDAA101000021MA1999999082191MD1210071+9999ME1313359OA149901341REMSYN082AAXX  06224 06605 23/// /2517 11096 21107 38219 48335 52007 333 69915 91126 91223;
0137066050999992010010623004+47133+007067FM-12+159999999V0202501N006719999999N9999999N1-01021-01121999999ADDMA1999999082211MD1210071+9999ME1313389OA149901341REMSYN076AAXX  06234 06605 33/// /2513 11102 21112 38221 48338 52007 333 91126 91223;
0179066050999992010010700004+47133+007067FM-12+159999999V0202201N009319999999N9999999N1-01021-01181999999ADDAA106000091MA1999999082211MD1210041+9999ME1313389OA149901341REMSYN088AAXX  07004 06605 03/// /2218 11102 21118 38221 48338 52004 69911 333 60005 91126 91223;EQDQ01  00002PRCP06
0137066050999992010010701004+47133+007067FM-12+159999999V0202201N011319999999N9999999N1-00951-01161999999ADDMA1999999082231MD1310041+9999ME1313399OA149901391REMSYN076AAXX  07014 06605 33/// /2222 11095 21116 38223 48339 53004 333 91127 91222;
0137066050999992010010702004+47133+007067FM-12+159999999V0202301N010819999999N9999999N1-00941-01211999999ADDMA1999999082261MD1319999+9999ME1313419OA149901491REMSYN076AAXX  07024 06605 33/// /2321 11094 21121 38226 48341 53/// 333 91129 91222;
0137066050999992010010703004+47133+007067FM-12+159999999V0202101N009319999999N9999999N1-00961-01051999999ADDMA1999999082241MD1010031+9999ME1313409OA149901491REMSYN076AAXX  07034 06605 33/// /2118 11096 21105 38224 48340 50003 333 91129 91223;
0137066050999992010010704004+47133+007067FM-12+159999999V0202101N011319999999N9999999N1-00931-01021999999ADDMA1999999082221MD1810011+9999ME1313389OA149901391REMSYN076AAXX  07044 06605 33/// /2122 11093 21102 38222 48338 58001 333 91127 91222;
0137066050999992010010705004+47133+007067FM-12+159999999V0202101N011319999999N9999999N1-00931-01061999999ADDMA1999999082241MD1710021+9999ME1313399OA149901391REMSYN076AAXX  07054 06605 33/// /2122 11093 21106 38224 48339 57002 333 91127 91222;
0255066050999992010010706004+47133+007067FM-12+159999999V0202001N008219999999N9999999N1-00951-01041999999ADDAA112000091AA224000091AL10600091GJ100009KA1999N-01051MA1999999082271MD1310031+9999ME1313439OA149901601REMSYN106AAXX  07064 06605 03/// /2016 11095 21104 38227 48343 53003 69912 333 21105 55000 60005 70001 91131 91228;EQDQ01  00002PRCP24Q02  00002PRCP12
0137066050999992010010707004+47133+007067FM-12+159999999V0202101N010819999999N9999999N1-00941-00991999999ADDMA1999999082311MD1310091+9999ME1313469OA149901601REMSYN076AAXX  07074 06605 33/// /2121 11094 21099 38231 48346 53009 333 91131 91228;
0137066050999992010010708004+47133+007067FM-12+159999999V0202101N010319999999N9999999N1-00881-01051999999ADDMA1999999082361MD1319999+9999ME1313509OA149901541REMSYN076AAXX  07084 06605 33/// /2120 11088 21105 38236 48350 53/// 333 91130 91221;
0137066050999992010010709004+47133+007067FM-12+159999999V0202301N009319999999N9999999N1-00851-01091999999ADDMA1999999082411MD1210141+9999ME1313559OA149901601REMSYN076AAXX  07094 06605 33/// /2318 11085 21109 38241 48355 52014 333 91131 91228;
0137066050999992010010710004+47133+007067FM-12+159999999V0202201N007719999999N9999999N1-00801-01061999999ADDMA1999999082471MD1310161+9999ME1313609OA149901541REMSYN076AAXX  07104 06605 33/// /2215 11080 21106 38247 48360 53016 333 91130 91224;
0137066050999992010010711004+47133+007067FM-12+159999999V0202201N009319999999N9999999N1-00771-01311999999ADDMA1999999082481MD1110121+9999ME1313619OA149901241REMSYN076AAXX  07114 06605 33/// /2218 11077 21131 38248 48361 51012 333 91124 91218;
0137066050999992010010712004+47133+007067FM-12+159999999V0202401N007719999999N9999999N1-00771-01281999999ADDMA1999999082461MD1010051+9999ME1313599OA149901601REMSYN076AAXX  07124 06605 33/// /2415 11077 21128 38246 48359 50005 333 91131 91228;
0137066050999992010010713004+47133+007067FM-12+159999999V0202601N008219999999N9999999N1-00791-01121999999ADDMA1999999082481MD1210011+9999ME1313619OA149901131REMSYN076AAXX  07134 06605 33/// /2616 11079 21112 38248 48361 52001 333 91122 91216;
0096066050999992010010715004+47133+007067FM-12+159999999V0202701N005119999999N9999999N1-00801-00961999999ADDMA1999999082541ME1313679REMSYN060AAXX  07154 06605 43/// /2710 11080 21096 38254 48367 5////;
0137066050999992010010716004+47133+007067FM-12+159999999V0202401N005719999999N9999999N1-00781-00981999999ADDMA1999999082571MD1110091+9999ME1313699OA149900821REMSYN076AAXX  07164 06605 33/// /2411 11078 21098 38257 48369 51009 333 91116 91213;
0137066050999992010010717004+47133+007067FM-12+159999999V0202501N005719999999N9999999N1-00741-00951999999ADDMA1999999082601MD1219999+9999ME1313729OA149900671REMSYN076AAXX  07174 06605 33/// /2511 11074 21095 38260 48372 52/// 333 91113 91212;
0156066050999992010010718004+47133+007067FM-12+159999999V0202801N005119999999N9999999N1-00821-00921999999ADDKA1120M-00731MA1999999082631MD1219999+9999ME1313759OA149901541REMSYN082AAXX  07184 06605 33/// /2810 11082 21092 38263 48375 52/// 333 11073 91130 91224;
0137066050999992010010719004+47133+007067FM-12+159999999V0202801N004119999999N9999999N1-00791-00961999999ADDMA1999999082651MD1210081+9999ME1313779OA149900721REMSYN076AAXX  07194 06605 33/// /2808 11079 21096 38265 48377 52008 333 91114 91213;
0137066050999992010010720004+47133+007067FM-12+159999999V0203001N003119999999N9999999N1-00811-00961999999ADDMA1999999082661MD1210061+9999ME1313789OA149900621REMSYN076AAXX  07204 06605 33/// /3006 11081 21096 38266 48378 52006 333 91112 91210;
0137066050999992010010721004+47133+007067FM-12+159999999V0203301N001519999999N9999999N1-00811-00991999999ADDMA1999999082651MD1210021+9999ME1313779OA149900721REMSYN076AAXX  07214 06605 33/// /3303 11081 21099 38265 48377 52002 333 91114 91213;
0137066050999992010010722004+47133+007067FM-12+159999999V0200701N002619999999N9999999N1-00811-00981999999ADDMA1999999082621MD1710031+9999ME1313749OA149900361REMSYN076AAXX  07224 06605 33/// /0705 11081 21098 38262 48374 57003 333 91107 91206;
0137066050999992010010723004+47133+007067FM-12+159999999V0200901N005119999999N9999999N1-00811-00921999999ADDMA1999999082621MD1710041+9999ME1313749OA149900621REMSYN076AAXX  07234 06605 33/// /0910 11081 21092 38262 48374 57004 333 91112 91210;
0137066050999992010010800004+47133+007067FM-12+159999999V0200901N005119999999N9999999N1-00811-00971999999ADDMA1999999082601MD1710051+9999ME1313729OA149901031REMSYN076AAXX  08004 06605 33/// /0910 11081 21097 38260 48372 57005 333 91120 91216;
0137066050999992010010801004+47133+007067FM-12+159999999V0200801N004619999999N9999999N1-00761-00981999999ADDMA1999999082561MD1710061+9999ME1313689OA149900721REMSYN076AAXX  08014 06605 33/// /0809 11076 21098 38256 48368 57006 333 91114 91210;
0137066050999992010010802004+47133+007067FM-12+159999999V0200901N008719999999N9999999N1-00821-00911999999ADDMA1999999082531MD1719999+9999ME1313669OA149901031REMSYN076AAXX  08024 06605 33/// /0917 11082 21091 38253 48366 57/// 333 91120 91217;
0137066050999992010010803004+47133+007067FM-12+159999999V0200801N008719999999N9999999N1-00821-00901999999ADDMA1999999082491MD1719999+9999ME1313629OA149901131REMSYN076AAXX  08034 06605 33/// /0817 11082 21090 38249 48362 57/// 333 91122 91217;
0137066050999992010010804004+47133+007067FM-12+159999999V0200801N009819999999N9999999N1-00841-00921999999ADDMA1999999082441MD1710121+9999ME1313589OA149901291REMSYN076AAXX  08044 06605 33/// /0819 11084 21092 38244 48358 57012 333 91125 91219;
0137066050999992010010805004+47133+007067FM-12+159999999V0200801N009819999999N9999999N1-00851-00971999999ADDMA1999999082391MD1710141+9999ME1313539OA149901441REMSYN076AAXX  08054 06605 33/// /0819 11085 21097 38239 48353 57014 333 91128 91221;
0216066050999992010010806004+47133+007067FM-12+159999999V0200701N010319999999N9999999N1-00861-00971999999ADDAA124000091AL19900091GJ101269KA1999N-00871MA1999999082341MD1610151+9999ME1313489OA149901491REMSYN094AAXX  08064 06605 33/// /0720 11086 21097 38234 48348 56015 333 21087 55021 70000 91129 91221;EQDQ01  00002PRCP24
0137066050999992010010807004+47133+007067FM-12+159999999V0200701N011319999999N9999999N1-00841-00961999999ADDMA1999999082301MD1710141+9999ME1313449OA149901651REMSYN076AAXX  08074 06605 33/// /0722 11084 21096 38230 48344 57014 333 91132 91222;
0154066050999992010010808004+47133+007067FM-12+159999999V0200601N013419999999N9999999N1-00841-00951999999ADDAA101000021MA1999999082251MD1610141+9999ME1313409OA149901851REMSYN082AAXX  08084 06605 23/// /0626 11084 21095 38225 48340 56014 333 69915 91136 91226;
0154066050999992010010809004+47133+007067FM-12+159999999V0200601N013919999999N9999999N1-00881-00991999999ADDAA101000021MA1999999082211MD1710131+9999ME1313369OA149901961REMSYN082AAXX  08094 06605 23/// /0627 11088 21099 38221 48336 57013 333 69915 91138 91228;
0137066050999992010010810004+47133+007067FM-12+159999999V0200501N015919999999N9999999N1-00941-01071999999ADDMA1999999082161MD1710141+9999ME1313329OA149901961REMSYN076AAXX  08104 06605 33/// /0531 11094 21107 38216 48332 57014 333 91138 91231;
0137066050999992010010811004+47133+007067FM-12+159999999V0200401N015919999999N9999999N1-00961-01021999999ADDMA1999999082091MD1710161+9999ME1313269OA149901961REMSYN076AAXX  08114 06605 33/// /0431 11096 21102 38209 48326 57016 333 91138 91232;
0179066050999992010010812004+47133+007067FM-12+159999999V0200401N015419999999N9999999N1-00971-01221999999ADDAA106000091MA1999999082041MD1710171+9999ME1313219OA149901961REMSYN088AAXX  08124 06605 03/// /0430 11097 21122 38204 48321 57017 69921 333 60005 91138 91232;EQDQ01  00002PRCP06
0137066050999992010010813004+47133+007067FM-12+159999999V0200501N014419999999N9999999N1-00981-01071999999ADDMA1999999081981MD1610181+9999ME1313159OA149902011REMSYN076AAXX  08134 06605 33/// /0528 11098 21107 38198 48315 56018 333 91139 91233;
0110066050999992010010814004+47133+007067FM-12+159999999V0200401N013919999999N9999999N1-00951-00951999999ADDMA1999999081971MD1719999+9999ME1313149REMSYN060AAXX  08144 06605 33/// /0427 11095 21095 38197 48314 57///;
0110066050999992010010815004+47133+007067FM-12+159999999V0200401N010319999999N9999999N1-01021-01041999999ADDMA1999999082031MD1310011+9999ME1313219REMSYN060AAXX  08154 06605 33/// /0420 11102 21104 38203 48321 53001;
0137066050999992010010816004+47133+007067FM-12+159999999V0200601N009319999999N9999999N1-01041-01101999999ADDMA1999999082061MD1210081+9999ME1313249OA149901901REMSYN076AAXX  08164 06605 33/// /0618 11104 21110 38206 48324 52008 333 91137 91226;
0154066050999992010010817004+47133+007067FM-12+159999999V0200701N009819999999N9999999N1-00991-00991999999ADDAA101000021MA1999999082031MD1019999+9999ME1313209OA149901491REMSYN082AAXX  08174 06605 23/// /0719 11099 21099 38203 48320 50/// 333 69925 91129 91220;
0179066050999992010010818004+47133+007067FM-12+159999999V0200701N010319999999N9999999N1-00981-00981999999ADDAA112000891KA1120M-00821MA1999999082021MD1710011+9999ME1313199OA149902011REMSYN094AAXX  08184 06605 03/// /0720 11098 21098 38202 48319 57001 69982 333 11082 69945 91139 91233;
0154066050999992010010819004+47133+007067FM-12+159999999V0200701N011819999999N9999999N1-01111-01261999999ADDAA101000021MA1999999082021MD1510041+9999ME1313219OA149901601REMSYN082AAXX  08194 06605 23/// /0723 11111 21126 38202 48321 55004 333 69925 91131 91223;
0154066050999992010010820004+47133+007067FM-12+159999999V0200601N011319999999N9999999N1-01141-01261999999ADDAA101000021MA1999999082041MD1310011+9999ME1313239OA149901601REMSYN082AAXX  08204 06605 23/// /0622 11114 21126 38204 48323 53001 333 69915 91131 91223;
0154066050999992010010821004+47133+007067FM-12+159999999V0200801N007719999999N9999999N1-01151-01261999999ADDAA101000021MA1999999082061MD1210041+9999ME1313259OA149901601REMSYN082AAXX  08214 06605 23/// /0815 11115 21126 38206 48325 52004 333 69915 91131 91223;
0137066050999992010010822004+47133+007067FM-12+159999999V0200701N006719999999N9999999N1-01201-01281999999ADDMA1999999082081MD1110061+9999ME1313279OA149901391REMSYN076AAXX  08224 06605 33/// /0713 11120 21128 38208 48327 51006 333 91127 91221;
0137066050999992010010823004+47133+007067FM-12+159999999V0200801N009819999999N9999999N1-01111-01261999999ADDMA1999999082081MD1210041+9999ME1313269OA149901241REMSYN076AAXX  08234 06605 33/// /0819 11111 21126 38208 48326 52004 333 91124 91219;
0160066050999992010010900004+47133+007067FM-12+159999999V0200701N008719999999N9999999N1-01251-01411999999ADDAA106000591MA1999999082051MD1810011+9999ME1313259OA149902011REMSYN088AAXX  09004 06605 03/// /0717 11125 21141 38205 48325 58001 69941 333 60005 91139 91233;
0137066050999992010010901004+47133+007067FM-12+159999999V0201001N010819999999N9999999N1-01151-01221999999ADDMA1999999082031MD1710051+9999ME1313229OA149901291REMSYN076AAXX  09014 06605 33/// /1021 11115 21122 38203 48322 57005 333 91125 91221;
0137066050999992010010902004+47133+007067FM-12+159999999V0200801N009819999999N9999999N1-01091-01221999999ADDMA1999999082021MD1719999+9999ME1313209OA149901391REMSYN076AAXX  09024 06605 33/// /0819 11109 21122 38202 48320 57/// 333 91127 91223;
0137066050999992010010903004+47133+007067FM-12+159999999V0201001N010319999999N9999999N1-01111-01221999999ADDMA1999999082041MD1219999+9999ME1313229OA149901391REMSYN076AAXX  09034 06605 33/// /1020 11111 21122 38204 48322 52/// 333 91127 91223;
0137066050999992010010904004+47133+007067FM-12+159999999V0201001N010819999999N9999999N1-01081-01211999999ADDMA1999999081991MD1810041+9999ME1313179OA149901291REMSYN076AAXX  09044 06605 33/// /1021 11108 21121 38199 48317 58004 333 91125 91221;
0137066050999992010010905004+47133+007067FM-12+159999999V0201101N010319999999N9999999N1-01121-01231999999ADDMA1999999081961MD1710061+9999ME1313159OA149901241REMSYN076AAXX  09054 06605 33/// /1120 11112 21123 38196 48315 57006 333 91124 91221;
0220066050999992010010906004+47133+007067FM-12+159999999V0200901N009319999999N9999999N1-01041-01151999999ADDAA112000591AA224001391AL11200191GJ100009KA1999N-01251MA1999999081911MD1810131+9999ME1313099OA149901601REMSYN106AAXX  09064 06605 03/// /0918 11104 21115 38191 48309 58013 69942 333 21125 55000 60005 70012 91131 91223;
0137066050999992010010907004+47133+007067FM-12+159999999V0200901N010319999999N9999999N1-01161-01271999999ADDMA1999999081911MD1710081+9999ME1313119OA149901341REMSYN076AAXX  09074 06605 33/// /0920 11116 21127 38191 48311 57008 333 91126 91222;
0110066050999992010010908004+47133+007067FM-12+159999999V02099999999999999999N9999999N1-01191-01311999999ADDMA1999999081921MD1510041+9999ME1313129REMSYN060AAXX  09084 06605 33/// /08// 11119 21131 38192 48312 55004;
0110066050999992010010909004+47133+007067FM-12+159999999V0200501N007719999999N9999999N1-01291-01381999999ADDMA1999999081981MD1210071+9999ME1313199REMSYN060AAXX  09094 06605 33/// /0515 11129 21138 38198 48319 52007;
0110066050999992010010910004+47133+007067FM-12+159999999V0200501N006719999999N9999999N1-01291-01381999999ADDMA1999999081991MD1210081+9999ME1313209REMSYN060AAXX  09104 06605 33/// /0513 11129 21138 38199 48320 52008;
0110066050999992010010911004+47133+007067FM-12+159999999V0200401N006719999999N9999999N1-01321-01411999999ADDMA1999999081941MD1010021+9999ME1313159REMSYN060AAXX  09114 06605 33/// /0413 11132 21141 38194 48315 50002;
0110066050999992010010912004+47133+007067FM-12+159999999V0200501N007219999999N9999999N1-01301-01431999999ADDMA1999999081951MD1710031+9999ME1313169REMSYN060AAXX  09124 06605 33/// /0514 11130 21143 38195 48316 57003;
0137066050999992010010913004+47133+007067FM-12+159999999V0200301N006219999999N9999999N1-01341-01421999999ADDMA1999999081941MD1710051+9999ME1313159OA149901081REMSYN076AAXX  09134 06605 33/// /0312 11134 21142 38194 48315 57005 333 91121 91215;
0156066050999992010010914004+47133+007067FM-12+159999999V0200101N006719999999N9999999N1-01331-01441999999ADDMA1999999081941MD1410001+9999ME1313159OA149900981REMSYN076AAXX  09144 06605 33/// /0113 11133 21144 38194 48315 57000 333 91119 91215;EQDQ01+000072APCTEN
0110066050999992010010915004+47133+007067FM-12+159999999V0200201N006719999999N9999999N1-01321-01421999999ADDMA1999999081971MD1210021+9999ME1313189REMSYN060AAXX  09154 06605 33/// /0213 11132 21142 38197 48318 52002;
0137066050999992010010916004+47133+007067FM-12+159999999V0200201N005719999999N9999999N1-01341-01441999999ADDMA1999999081991MD1210051+9999ME1313209OA149900881REMSYN076AAXX  09164 06605 33/// /0211 11134 21144 38199 48320 52005 333 91117 91213;
0137066050999992010010917004+47133+007067FM-12+159999999V0200101N006219999999N9999999N1-01341-01431999999ADDMA1999999081991MD1210051+9999ME1313209OA149900881REMSYN076AAXX  09174 06605 33/// /0112 11134 21143 38199 48320 52005 333 91117 91213;
0133066050999992010010918004+47133+007067FM-12+159999999V0200101N004619999999N9999999N1-01331-01441999999ADDKA1999M-01031MA1999999082011MD1110041+9999ME1313229REMSYN070AAXX  09184 06605 33/// /0109 11133 21144 38201 48322 51004 333 11103;
0154066050999992010010919004+47133+007067FM-12+159999999V0200301N005119999999N9999999N1-01331-01511999999ADDAA101000391MA1999999082061MD1310071+9999ME1313279OA149900821REMSYN082AAXX  09194 06605 23/// /0310 11133 21151 38206 48327 53007 333 69935 91116 91212;
0154066050999992010010920004+47133+007067FM-12+159999999V0200401N006219999999N9999999N1-01291-01491999999ADDAA101000591MA1999999082091MD1310101+9999ME1313299OA149900821REMSYN082AAXX  09204 06605 23/// /0412 11129 21149 38209 48329 53010 333 69965 91116 91212;
0154066050999992010010921004+47133+007067FM-12+159999999V0200601N004619999999N9999999N1-01291-01461999999ADDAA101000021MA1999999082121MD1210111+9999ME1313329OA149900881REMSYN082AAXX  09214 06605 23/// /0609 11129 21146 38212 48332 52011 333 69915 91117 91213;
0154066050999992010010922004+47133+007067FM-12+159999999V0200601N005719999999N9999999N1-01291-01471999999ADDAA101000021MA1999999082141MD1210081+9999ME1313349OA149900821REMSYN082AAXX  09224 06605 23/// /0611 11129 21147 38214 48334 52008 333 69915 91116 91212;
0154066050999992010010923004+47133+007067FM-12+159999999V0200301N004619999999N9999999N1-01351-01541999999ADDAA101000591MA1999999082171MD1210081+9999ME1313379OA149900771REMSYN082AAXX  09234 06605 23/// /0309 11135 21154 38217 48337 52008 333 69945 91115 91212;
0160066050999992010011000004+47133+007067FM-12+159999999V0200401N003619999999N9999999N1-01331-01511999999ADDAA106002091MA1999999082201MD1210081+9999ME1313409OA149900981REMSYN088AAXX  10004 06605 03/// /0407 11133 21151 38220 48340 52008 60021 333 69955 91119 91215;
0154066050999992010011001004+47133+007067FM-12+159999999V0200201N004119999999N9999999N1-01331-01521999999ADDAA101000591MA1999999082231MD1110091+9999ME1313429OA149900571REMSYN082AAXX  10014 06605 23/// /0208 11133 21152 38223 48342 51009 333 69965 91111 91209;
0117066050999992010011002004+47133+007067FM-12+159999999V0200401N003619999999N9999999N1-01301-01481999999ADDAA101000021MA1999999082281ME1313479REMSYN070AAXX  10024 06605 23/// /0407 11130 21148 38228 48347 5//// 333 69925;
0096066050999992010011003004+47133+007067FM-12+159999999V0200401N001019999999N9999999N1-01251-01471999999ADDMA1999999082321ME1313509REMSYN060AAXX  10034 06605 43/// /0402 11125 21147 38232 48350 5////;
0137066050999992010011004004+47133+007067FM-12+159999999V0203401N001519999999N9999999N1-01181-01441999999ADDMA1999999082361MD1210131+9999ME1313539OA149900461REMSYN076AAXX  10044 06605 33/// /3403 11118 21144 38236 48353 52013 333 91109 91207;
0137066050999992010011005004+47133+007067FM-12+159999999V0203501N001519999999N9999999N1-01171-01441999999ADDMA1999999082401MD1310121+9999ME1313579OA149900261REMSYN076AAXX  10054 06605 33/// /3503 11117 21144 38240 48357 53012 333 91105 91204;
0220066050999992010011006004+47133+007067FM-12+159999999V0203101N001519999999N9999999N1-01231-01451999999ADDAA112003092AA224002892AL14800291GJ100009KA1999N-01371MA1999999082421MD1110101+9999ME1313599OA149900821REMSYN106AAXX  10064 06605 03/// /3103 11123 21145 38242 48359 51010 60032 333 21137 55000 60005 70029 91116 91212;
0137066050999992010011007004+47133+007067FM-12+159999999V0202801N002119999999N9999999N1-01201-01481999999ADDMA1999999082501MD1310141+9999ME1313669OA149900261REMSYN076AAXX  10074 06605 33/// /2804 11120 21148 38250 48366 53014 333 91105 91204;
0137066050999992010011008004+47133+007067FM-12+159999999V0202801N003119999999N9999999N1-01201-01441999999ADDMA1999999082561MD1319999+9999ME1313729OA149900361REMSYN076AAXX  10084 06605 33/// /2806 11120 21144 38256 48372 53/// 333 91107 91206;
0137066050999992010011009004+47133+007067FM-12+159999999V0202701N003119999999N9999999N1-01251-01441999999ADDMA1999999082621MD1210201+9999ME1313789OA149900361REMSYN076AAXX  10094 06605 33/// /2706 11125 21144 38262 48378 52020 333 91107 91207;
0137066050999992010011010004+47133+007067FM-12+159999999V0202801N002619999999N9999999N1-01181-01341999999ADDMA1999999082671MD1110171+9999ME1313829OA149900411REMSYN076AAXX  10104 06605 33/// /2805 11118 21134 38267 48382 51017 333 91108 91207;
0137066050999992010011011004+47133+007067FM-12+159999999V0202601N002619999999N9999999N1-01141-01351999999ADDMA1999999082711MD1110151+9999ME1313869OA149900411REMSYN076AAXX  10114 06605 33/// /2605 11114 21135 38271 48386 51015 333 91108 91207;
0137066050999992010011012004+47133+007067FM-12+159999999V0203101N003619999999N9999999N1-01151-01341999999ADDMA1999999082731MD1210111+9999ME1313889OA149900511REMSYN076AAXX  10124 06605 33/// /3107 11115 21134 38273 48388 52011 333 91110 91208;
0137066050999992010011013004+47133+007067FM-12+159999999V0202601N002619999999N9999999N1-01231-01411999999ADDMA1999999082751MD1210081+9999ME1313909OA149900411REMSYN076AAXX  10134 06605 33/// /2605 11123 21141 38275 48390 52008 333 91108 91207;
0137066050999992010011014004+47133+007067FM-12+159999999V0202201N002119999999N9999999N1-01161-01161999999ADDMA1999999082791MD1219999+9999ME1313939OA149900411REMSYN076AAXX  10144 06605 33/// /2204 11116 21116 38279 48393 52/// 333 91108 91206;
0137066050999992010011015004+47133+007067FM-12+159999999V0201801N002619999999N9999999N1-01191-01191999999ADDMA1999999082831MD1110101+9999ME1313979OA149900411REMSYN076AAXX  10154 06605 33/// /1805 11119 21119 38283 48397 51010 333 91108 91207;
0137066050999992010011016004+47133+007067FM-12+159999999V0202301N001519999999N9999999N1-01061-01391999999ADDMA1999999082861MD1110111+9999ME1313999OA149900411REMSYN076AAXX  10164 06605 33/// /2303 11106 21139 38286 48399 51011 333 91108 91206;
0137066050999992010011017004+47133+007067FM-12+159999999V0202801N001519999999N9999999N1-01221-01271999999ADDMA1999999082891MD1110101+9999ME1314039OA149900411REMSYN076AAXX  10174 06605 33/// /2803 11122 21127 38289 48403 51010 333 91108 91206;
0156066050999992010011018004+47133+007067FM-12+159999999V0202801N001019999999N9999999N1-01001-01441999999ADDKA1120M-00941MA1999999082931MD1110101+9999ME1314059OA149900411REMSYN082AAXX  10184 06605 33/// /2802 11100 21144 38293 48405 51010 333 11094 91108 91207;
0137066050999992010011019004+47133+007067FM-12+159999999V0202101N001519999999N9999999N1-01261-01321999999ADDMA1999999082941MD1210081+9999ME1314089OA149900361REMSYN076AAXX  10194 06605 33/// /2103 11126 21132 38294 48408 52008 333 91107 91203;
0137066050999992010011020004+47133+007067FM-12+159999999V0201501N003119999999N9999999N1-00941-01351999999ADDMA1999999082951MD1210061+9999ME1314069OA149900461REMSYN076AAXX  10204 06605 33/// /1506 11094 21135 38295 48406 52006 333 91109 91206;
0137066050999992010011021004+47133+007067FM-12+159999999V0201601N003119999999N9999999N1-00891-01411999999ADDMA1999999082951MD1210021+9999ME1314069OA149900461REMSYN076AAXX  10214 06605 33/// /1606 11089 21141 38295 48406 52002 333 91109 91207;
0137066050999992010011022004+47133+007067FM-12+159999999V0201701N003619999999N9999999N1-00561-01121999999ADDMA1999999082951MD1210011+9999ME1314049OA149900511REMSYN076AAXX  10224 06605 33/// /1707 11056 21112 38295 48404 52001 333 91110 91209;
0137066050999992010011023004+47133+007067FM-12+159999999V0201801N003119999999N9999999N1-00601-01131999999ADDMA1999999082981MD1210031+9999ME1314079OA149900511REMSYN076AAXX  10234 06605 33/// /1806 11060 21113 38298 48407 52003 333 91110 91209;
0137066050999992010011100004+47133+007067FM-12+159999999V0202001N004119999999N9999999N1-00681-01171999999ADDMA1999999083001MD1210051+9999ME1314099OA149900511REMSYN076AAXX  11004 06605 33/// /2008 11068 21117 38300 48409 52005 333 91110 91209;
0137066050999992010011101004+47133+007067FM-12+159999999V0202201N003119999999N9999999N1-00681-01131999999ADDMA1999999083001MD1210051+9999ME1314099OA149900461REMSYN076AAXX  11014 06605 33/// /2206 11068 21113 38300 48409 52005 333 91109 91209;
0137066050999992010011102004+47133+007067FM-12+159999999V0201801N003119999999N9999999N1-00361-01091999999ADDMA1999999083031MD1219999+9999ME1314109OA149900671REMSYN076AAXX  11024 06605 33/// /1806 11036 21109 38303 48410 52/// 333 91113 91212;
0137066050999992010011103004+47133+007067FM-12+159999999V0202301N003619999999N9999999N1-00351-01121999999ADDMA1999999083011MD1019999+9999ME1314089OA149900671REMSYN076AAXX  11034 06605 33/// /2307 11035 21112 38301 48408 50/// 333 91113 91212;
0156066050999992010011104004+47133+007067FM-12+159999999V0202801N005119999999N9999999N1-00561-01121999999ADDMA1999999083001MD1410001+9999ME1314089OA149900621REMSYN076AAXX  11044 06605 33/// /2810 11056 21112 38300 48408 58000 333 91112 91211;EQDQ01+000082APCTEN
0137066050999992010011105004+47133+007067FM-12+159999999V0202001N003119999999N9999999N1-00431-01101999999ADDMA1999999083001MD1710031+9999ME1314079OA149900621REMSYN076AAXX  11054 06605 33/// /2006 11043 21110 38300 48407 57003 333 91112 91211;
0216066050999992010011106004+47133+007067FM-12+159999999V0201801N004619999999N9999999N1-00541-01121999999ADDAA124000091AL19900091GJ101269KA1999N-01311MA1999999082981MD1810031+9999ME1314069OA149900671REMSYN094AAXX  11064 06605 33/// /1809 11054 21112 38298 48406 58003 333 21131 55021 70000 91113 91212;EQDQ01  00002PRCP24
0137066050999992010011107004+47133+007067FM-12+159999999V0201801N004119999999N9999999N1-00401-01031999999ADDMA1999999083001MD1510001+9999ME1314079OA149900511REMSYN076AAXX  11074 06605 33/// /1808 11040 21103 38300 48407 55000 333 91110 91209;
0137066050999992010011108004+47133+007067FM-12+159999999V0202101N002619999999N9999999N1-00411-00931999999ADDMA1999999083031MD1219999+9999ME1314109OA149900511REMSYN076AAXX  11084 06605 33/// /2105 11041 21093 38303 48410 52/// 333 91110 91209;
0137066050999992010011109004+47133+007067FM-12+159999999V0202501N003619999999N9999999N1-00301-01021999999ADDMA1999999083061MD1310081+9999ME1314129OA149900621REMSYN076AAXX  11094 06605 33/// /2507 11030 21102 38306 48412 53008 333 91112 91211;
0137066050999992010011110004+47133+007067FM-12+159999999V0202801N005719999999N9999999N1-00541-01131999999ADDMA1999999083081MD1119999+9999ME1314169OA149900621REMSYN076AAXX  11104 06605 33/// /2811 11054 21113 38308 48416 51/// 333 91112 91211;
0137066050999992010011111004+47133+007067FM-12+159999999V0202801N005719999999N9999999N1-00501-01161999999ADDMA1999999083081MD1110051+9999ME1314169OA149900671REMSYN076AAXX  11114 06605 33/// /2811 11050 21116 38308 48416 51005 333 91113 91211;
0156066050999992010011112004+47133+007067FM-12+159999999V0203101N005719999999N9999999N1-00521-01121999999ADDMA1999999083061MD1410001+9999ME1314149OA149900671REMSYN076AAXX  11124 06605 33/// /3111 11052 21112 38306 48414 58000 333 91113 91212;EQDQ01+000082APCTEN
0137066050999992010011113004+47133+007067FM-12+159999999V0203101N006719999999N9999999N1-00681-01241999999ADDMA1999999083051MD1710031+9999ME1314149OA149900771REMSYN076AAXX  11134 06605 33/// /3113 11068 21124 38305 48414 57003 333 91115 91213;
0096066050999992010011114004+47133+007067FM-12+159999999V0203101N009319999999N9999999N1-00691-01221999999ADDMA1999999083051ME1314149REMSYN060AAXX  11144 06605 33/// /3118 11069 21122 38305 48414 5////;
0137066050999992010011115004+47133+007067FM-12+159999999V0203101N009819999999N9999999N1-00731-01291999999ADDMA1999999083081MD1310021+9999ME1314179OA149901131REMSYN076AAXX  11154 06605 33/// /3119 11073 21129 38308 48417 53002 333 91122 91219;
0137066050999992010011116004+47133+007067FM-12+159999999V0203201N009319999999N9999999N1-00741-01261999999ADDMA1999999083101MD1110051+9999ME1314199OA149901131REMSYN076AAXX  11164 06605 33/// /3218 11074 21126 38310 48419 51005 333 91122 91219;
0137066050999992010011117004+47133+007067FM-12+159999999V0203101N008219999999N9999999N1-00841-01291999999ADDMA1999999083131MD1310081+9999ME1314239OA149901131REMSYN076AAXX  11174 06605 33/// /3116 11084 21129 38313 48423 53008 333 91122 91219;
0156066050999992010011118004+47133+007067FM-12+159999999V0203101N006719999999N9999999N1-00911-01381999999ADDKA1120M-00301MA1999999083161MD1310081+9999ME1314269OA149901131REMSYN082AAXX  11184 06605 33/// /3113 11091 21138 38316 48426 53008 333 11030 91122 91219;
0137066050999992010011119004+47133+007067FM-12+159999999V0203101N002619999999N9999999N1-00801-01271999999ADDMA1999999083201MD1110101+9999ME1314299OA149900821REMSYN076AAXX  11194 06605 33/// /3105 11080 21127 38320 48429 51010 333 91116 91215;
0137066050999992010011120004+47133+007067FM-12+159999999V0202201N003119999999N9999999N1-00641-01211999999ADDMA1999999083221MD1110091+9999ME1314309OA149900771REMSYN076AAXX  11204 06605 33/// /2206 11064 21121 38322 48430 51009 333 91115 91211;
0137066050999992010011121004+47133+007067FM-12+159999999V0202601N005119999999N9999999N1-00601-01081999999ADDMA1999999083241MD1110081+9999ME1314319OA149901131REMSYN076AAXX  11214 06605 33/// /2610 11060 21108 38324 48431 51008 333 91122 91219;
0137066050999992010011122004+47133+007067FM-12+159999999V0202701N006219999999N9999999N1-00621-00941999999ADDMA1999999083231MD1210031+9999ME1314319OA149900721REMSYN076AAXX  11224 06605 33/// /2712 11062 21094 38323 48431 52003 333 91114 91213;
0137066050999992010011123004+47133+007067FM-12+159999999V0202501N006719999999N9999999N1-00641-01031999999ADDMA1999999083241MD1210021+9999ME1314329OA149900771REMSYN076AAXX  11234 06605 33/// /2513 11064 21103 38324 48432 52002 333 91115 91214;
0137066050999992010011200004+47133+007067FM-12+159999999V0202601N006719999999N9999999N1-00721-00881999999ADDMA1999999083231MD1010011+9999ME1314319OA149901131REMSYN076AAXX  12004 06605 33/// /2613 11072 21088 38323 48431 50001 333 91122 91219;
0137066050999992010011201004+47133+007067FM-12+159999999V0202801N006719999999N9999999N1-00631-00821999999ADDMA1999999083221MD1710011+9999ME1314309OA149900821REMSYN076AAXX  12014 06605 33/// /2813 11063 21082 38322 48430 57001 333 91116 91215;
0137066050999992010011202004+47133+007067FM-12+159999999V0203001N006719999999N9999999N1-00681-00801999999ADDMA1999999083211MD1719999+9999ME1314299OA149900821REMSYN076AAXX  12024 06605 33/// /3013 11068 21080 38321 48429 57/// 333 91116 91214;
0137066050999992010011203004+47133+007067FM-12+159999999V0203001N006219999999N9999999N1-00571-00801999999ADDMA1999999083211MD1710021+9999ME1314289OA149900821REMSYN076AAXX  12034 06605 33/// /3012 11057 21080 38321 48428 57002 333 91116 91215;
0137066050999992010011204004+47133+007067FM-12+159999999V0203001N005719999999N9999999N1-00591-00911999999ADDMA1999999083181MD1710041+9999ME1314269OA149900771REMSYN076AAXX  12044 06605 33/// /3011 11059 21091 38318 48426 57004 333 91115 91213;
0137066050999992010011205004+47133+007067FM-12+159999999V0202901N004119999999N9999999N1-00551-00891999999ADDMA1999999083171MD1710041+9999ME1314249OA149900671REMSYN076AAXX  12054 06605 33/// /2908 11055 21089 38317 48424 57004 333 91113 91212;
0216066050999992010011206004+47133+007067FM-12+159999999V0202701N003119999999N9999999N1-00521-00881999999ADDAA124000091AL19900091GJ104509KA1999N-00921MA1999999083131MD1810081+9999ME1314219OA149900821REMSYN094AAXX  12064 06605 33/// /2706 11052 21088 38313 48421 58008 333 21092 55075 70000 91116 91215;EQDQ01  00002PRCP24
0137066050999992010011207004+47133+007067FM-12+159999999V0202401N002619999999N9999999N1-00501-00881999999ADDMA1999999083101MD1810081+9999ME1314189OA149900511REMSYN076AAXX  12074 06605 33/// /2405 11050 21088 38310 48418 58008 333 91110 91208;
0137066050999992010011208004+47133+007067FM-12+159999999V0201901N003119999999N9999999N1-00501-00881999999ADDMA1999999083051MD1819999+9999ME1314139OA149900361REMSYN076AAXX  12084 06605 33/// /1906 11050 21088 38305 48413 58/// 333 91107 91207;
0137066050999992010011209004+47133+007067FM-12+159999999V0201601N005119999999N9999999N1-00561-00761999999ADDMA1999999083001MD1810131+9999ME1314089OA149900671REMSYN076AAXX  12094 06605 33/// /1610 11056 21076 38300 48408 58013 333 91113 91212;
0137066050999992010011210004+47133+007067FM-12+159999999V0201601N005119999999N9999999N1-00441-00821999999ADDMA1999999082971MD1810131+9999ME1314059OA149900671REMSYN076AAXX  12104 06605 33/// /1610 11044 21082 38297 48405 58013 333 91113 91210;
0137066050999992010011211004+47133+007067FM-12+159999999V0201601N005719999999N9999999N1-00311-00871999999ADDMA1999999082901MD1810151+9999ME1313979OA149900721REMSYN076AAXX  12114 06605 33/// /1611 11031 21087 38290 48397 58015 333 91114 91211;
0137066050999992010011212004+47133+007067FM-12+159999999V0201701N005719999999N9999999N1-00271-00851999999ADDMA1999999082861MD1610141+9999ME1313939OA149900821REMSYN076AAXX  12124 06605 33/// /1711 11027 21085 38286 48393 56014 333 91116 91214;
0137066050999992010011213004+47133+007067FM-12+159999999V0201601N005719999999N9999999N1-00221-00931999999ADDMA1999999082801MD1710171+9999ME1313879OA149900671REMSYN076AAXX  12134 06605 33/// /1611 11022 21093 38280 48387 57017 333 91113 91211;
0096066050999992010011214004+47133+007067FM-12+159999999V0201801N006719999999N9999999N1-00281-01201999999ADDMA1999999082711ME1313799REMSYN060AAXX  12144 06605 33/// /1813 11028 21120 38271 48379 5////;
0137066050999992010011215004+47133+007067FM-12+159999999V0201901N006719999999N9999999N1-00381-01221999999ADDMA1999999082681MD1610181+9999ME1313769OA149900881REMSYN076AAXX  12154 06605 33/// /1913 11038 21122 38268 48376 56018 333 91117 91213;
0137066050999992010011216004+47133+007067FM-12+159999999V0201901N007219999999N9999999N1-00381-01411999999ADDMA1999999082591MD1810211+9999ME1313689OA149900931REMSYN076AAXX  12164 06605 33/// /1914 11038 21141 38259 48368 58021 333 91118 91215;
0137066050999992010011217004+47133+007067FM-12+159999999V0202101N009819999999N9999999N1-00261-01521999999ADDMA1999999082561MD1610151+9999ME1313649OA149901131REMSYN076AAXX  12174 06605 33/// /2119 11026 21152 38256 48364 56015 333 91122 91219;
0156066050999992010011218004+47133+007067FM-12+159999999V0201801N007719999999N9999999N1-00411-01411999999ADDKA1120M-00211MA1999999082521MD1610161+9999ME1313619OA149901131REMSYN082AAXX  12184 06605 33/// /1815 11041 21141 38252 48361 56016 333 11021 91122 91219;
0137066050999992010011219004+47133+007067FM-12+159999999V0201601N007219999999N9999999N1-00371-01251999999ADDMA1999999082491MD1610101+9999ME1313589OA149901131REMSYN076AAXX  12194 06605 33/// /1614 11037 21125 38249 48358 56010 333 91122 91220;
0137066050999992010011220004+47133+007067FM-12+159999999V0201401N007719999999N9999999N1-00421-01151999999ADDMA1999999082431MD1710131+9999ME1313539OA149901131REMSYN076AAXX  12204 06605 33/// /1415 11042 21115 38243 48353 57013 333 91122 91220;
0137066050999992010011221004+47133+007067FM-12+159999999V0201501N009819999999N9999999N1-00441-01041999999ADDMA1999999082391MD1710131+9999ME1313499OA149901181REMSYN076AAXX  12214 06605 33/// /1519 11044 21104 38239 48349 57013 333 91123 91220;
0137066050999992010011222004+47133+007067FM-12+159999999V0201501N007219999999N9999999N1-00341-01131999999ADDMA1999999082391MD1710101+9999ME1313489OA149901391REMSYN076AAXX  12224 06605 33/// /1514 11034 21113 38239 48348 57010 333 91127 91220;
0137066050999992010011223004+47133+007067FM-12+159999999V0202001N010319999999N9999999N1-00441-01161999999ADDMA1999999082461MD1310031+9999ME1313569OA149901441REMSYN076AAXX  12234 06605 33/// /2020 11044 21116 38246 48356 53003 333 91128 91223;
0137066050999992010011300004+47133+007067FM-12+159999999V0201901N011819999999N9999999N1-00591-00821999999ADDMA1999999082411MD1210021+9999ME1313529OA149901601REMSYN076AAXX  13004 06605 33/// /1923 11059 21082 38241 48352 52002 333 91131 91223;
0137066050999992010011301004+47133+007067FM-12+159999999V0201801N014419999999N9999999N1-00611-00671999999ADDMA1999999082341MD1810051+9999ME1313469OA149901961REMSYN076AAXX  13014 06605 33/// /1828 11061 21067 38234 48346 58005 333 91138 91229;
0137066050999992010011302004+47133+007067FM-12+159999999V0201801N013919999999N9999999N1-00471-00551999999ADDMA1999999082311MD1719999+9999ME1313429OA149901961REMSYN076AAXX  13024 06605 33/// /1827 11047 21055 38231 48342 57/// 333 91138 91229;
0137066050999992010011303004+47133+007067FM-12+159999999V0201501N010819999999N9999999N1-00481-00531999999ADDMA1999999082281MD1719999+9999ME1313399OA149901961REMSYN076AAXX  13034 06605 33/// /1521 11048 21053 38228 48339 57/// 333 91138 91229;
0154066050999992010011304004+47133+007067FM-12+159999999V0201501N010319999999N9999999N1-00471-00531999999ADDAA101000021MA1999999082271MD1710071+9999ME1313389OA149901541REMSYN082AAXX  13044 06605 23/// /1520 11047 21053 38227 48338 57007 333 69915 91130 91225;
0154066050999992010011305004+47133+007067FM-12+159999999V0201801N009819999999N9999999N1-00521-00601999999ADDAA101000391MA1999999082311MD1510001+9999ME1313429OA149901491REMSYN082AAXX  13054 06605 23/// /1819 11052 21060 38231 48342 55000 333 69935 91129 91223;
0220066050999992010011306004+47133+007067FM-12+159999999V0201901N010819999999N9999999N1-00501-00591999999ADDAA112000591AA224000591AL13600091GJ104329KA1999N-00611MA1999999082341MD1210061+9999ME1313459OA149901961REMSYN106AAXX  13064 06605 03/// /1921 11050 21059 38234 48345 52006 69962 333 21061 55072 69925 70006 91138 91229;
0137066050999992010011307004+47133+007067FM-12+159999999V0201901N009819999999N9999999N1-00511-00591999999ADDMA1999999082391MD1110121+9999ME1313509OA149901601REMSYN076AAXX  13074 06605 33/// /1919 11051 21059 38239 48350 51012 333 91131 91225;
0154066050999992010011308004+47133+007067FM-12+159999999V0202101N015419999999N9999999N1-00371-00481999999ADDAA101000021MA1999999082441MD1310131+9999ME1313539OA149901751REMSYN082AAXX  13084 06605 23/// /2130 11037 21048 38244 48353 53013 333 69915 91134 91230;
0137066050999992010011309004+47133+007067FM-12+159999999V0202101N015919999999N9999999N1-00381-00491999999ADDMA1999999082491MD1110151+9999ME1313589OA149902061REMSYN076AAXX  13094 06605 33/// /2131 11038 21049 38249 48358 51015 333 91140 91231;
0137066050999992010011310004+47133+007067FM-12+159999999V0202101N018019999999N9999999N1-00321-00421999999ADDMA1999999082541MD1310151+9999ME1313629OA149902061REMSYN076AAXX  13104 06605 33/// /2135 11032 21042 38254 48362 53015 333 91140 91237;
0110066050999992010011311004+47133+007067FM-12+159999999V02099999999999999999N9999999N1-00321-00421999999ADDMA1999999082561MD1110121+9999ME1313649REMSYN060AAXX  13114 06605 33/// ///// 11032 21042 38256 48364 51012;
0156066050999992010011312004+47133+007067FM-12+159999999V02099999999999999999N9999999N1-00351-00441999999ADDAA106000091MA1999999082571MD1210081+9999ME1313669REMSYN076AAXX  13124 06605 03/// ///// 11035 21044 38257 48366 52008 69911 333 60005;EQDQ01  00002PRCP06
0110066050999992010011313004+47133+007067FM-12+159999999V0202201N010819999999N9999999N1-00381-00431999999ADDMA1999999082591MD1210051+9999ME1313689REMSYN060AAXX  13134 06605 33/// /2221 11038 21043 38259 48368 52005;
0110066050999992010011314004+47133+007067FM-12+159999999V0202401N011319999999N9999999N1-00291-00451999999ADDMA1999999082621MD1319999+9999ME1313709REMSYN060AAXX  13144 06605 33/// /2422 11029 21045 38262 48370 53///;
0110066050999992010011315004+47133+007067FM-12+159999999V0202401N010319999999N9999999N1-00271-00381999999ADDMA1999999082671MD1310101+9999ME1313759REMSYN060AAXX  13154 06605 33/// /2420 11027 21038 38267 48375 53010;
0154066050999992010011316004+47133+007067FM-12+159999999V0202601N010319999999N9999999N1-00291-00291999999ADDAA101000021MA1999999082711MD1310121+9999ME1313799OA149901391REMSYN082AAXX  13164 06605 23/// /2620 11029 21029 38271 48379 53012 333 69925 91127 91222;
0154066050999992010011317004+47133+007067FM-12+159999999V0202701N010319999999N9999999N1-00281-00321999999ADDAA101000021MA1999999082741MD1110121+9999ME1313819OA149901441REMSYN082AAXX  13174 06605 23/// /2720 11028 21032 38274 48381 51012 333 69915 91128 91221;
0156066050999992010011318004+47133+007067FM-12+159999999V0202601N009319999999N9999999N1-00331-00351999999ADDAA112000591KA1120M-00271MA1999999082781MD1110111+9999ME1313869REMSYN082AAXX  13184 06605 03/// /2618 11033 21035 38278 48386 51011 69942 333 11027 60005;
0137066050999992010011319004+47133+007067FM-12+159999999V0202401N008219999999N9999999N1-00341-00661999999ADDMA1999999082811MD1310101+9999ME1313899OA149901241REMSYN076AAXX  13194 06605 33/// /2416 11034 21066 38281 48389 53010 333 91124 91220;
0137066050999992010011320004+47133+007067FM-12+159999999V0202501N006219999999N9999999N1-00331-00351999999ADDMA1999999082811MD1110071+9999ME1313899OA149901181REMSYN076AAXX  13204 06605 33/// /2512 11033 21035 38281 48389 51007 333 91123 91218;
0137066050999992010011321004+47133+007067FM-12+159999999V0202301N008219999999N9999999N1-00431-00471999999ADDMA1999999082791MD1010011+9999ME1313879OA149901441REMSYN076AAXX  13214 06605 33/// /2316 11043 21047 38279 48387 50001 333 91128 91221;
0137066050999992010011322004+47133+007067FM-12+159999999V0202101N008219999999N9999999N1-00401-00551999999ADDMA1999999082761MD1710051+9999ME1313849OA149901031REMSYN076AAXX  13224 06605 33/// /2116 11040 21055 38276 48384 57005 333 91120 91217;
0137066050999992010011323004+47133+007067FM-12+159999999V0202101N007719999999N9999999N1-00391-00551999999ADDMA1999999082731MD1710081+9999ME1313819OA149901031REMSYN076AAXX  13234 06605 33/// /2115 11039 21055 38273 48381 57008 333 91120 91217;
0137066050999992010011400004+47133+007067FM-12+159999999V0201901N005119999999N9999999N1-00431-00431999999ADDMA1999999082691MD1810101+9999ME1313789OA149901541REMSYN076AAXX  14004 06605 33/// /1910 11043 21043 38269 48378 58010 333 91130 91224;
0137066050999992010011401004+47133+007067FM-12+159999999V0201601N005119999999N9999999N1-00421-00461999999ADDMA1999999082631MD1810131+9999ME1313729OA149900821REMSYN076AAXX  14014 06605 33/// /1610 11042 21046 38263 48372 58013 333 91116 91214;
0137066050999992010011402004+47133+007067FM-12+159999999V0201601N005719999999N9999999N1-00431-00471999999ADDMA1999999082621MD1619999+9999ME1313719OA149900771REMSYN076AAXX  14024 06605 33/// /1611 11043 21047 38262 48371 56/// 333 91115 91212;
0096066050999992010011403004+47133+007067FM-12+159999999V0201701N005119999999N9999999N1-00481-00521999999ADDMA1999999082601ME1313709REMSYN060AAXX  14034 06605 33/// /1710 11048 21052 38260 48370 5////;
0137066050999992010011404004+47133+007067FM-12+159999999V0201701N005719999999N9999999N1-00491-00541999999ADDMA1999999082561MD1810071+9999ME1313669OA149900771REMSYN076AAXX  14044 06605 33/// /1711 11049 21054 38256 48366 58007 333 91115 91213;
0137066050999992010011405004+47133+007067FM-12+159999999V0201301N006219999999N9999999N1-00481-00541999999ADDMA1999999082521MD1810101+9999ME1313629OA149900821REMSYN076AAXX  14054 06605 33/// /1312 11048 21054 38252 48362 58010 333 91116 91213;
0197066050999992010011406004+47133+007067FM-12+159999999V0201301N006719999999N9999999N1-00431-00611999999ADDAA124000591AL12400091GJ100009KA1999N-00521MA1999999082491MD1610111+9999ME1313599OA149901181REMSYN094AAXX  14064 06605 33/// /1313 11043 21061 38249 48359 56011 333 21052 55000 70004 91123 91218;
0137066050999992010011407004+47133+007067FM-12+159999999V0201201N005719999999N9999999N1-00371-00621999999ADDMA1999999082481MD1610081+9999ME1313579OA149901031REMSYN076AAXX  14074 06605 33/// /1211 11037 21062 38248 48357 56008 333 91120 91214;
0137066050999992010011408004+47133+007067FM-12+159999999V0201101N006219999999N9999999N1-00341-00531999999ADDMA1999999082481MD1719999+9999ME1313579OA149901031REMSYN076AAXX  14084 06605 33/// /1112 11034 21053 38248 48357 57/// 333 91120 91214;
0137066050999992010011409004+47133+007067FM-12+159999999V0201001N005719999999N9999999N1-00311-00501999999ADDMA1999999082471MD1710021+9999ME1313569OA149901031REMSYN076AAXX  14094 06605 33/// /1011 11031 21050 38247 48356 57002 333 91120 91214;
0137066050999992010011410004+47133+007067FM-12+159999999V0201001N006719999999N9999999N1-00211-00721999999ADDMA1999999082471MD1010011+9999ME1313559OA149901131REMSYN076AAXX  14104 06605 33/// /1013 11021 21072 38247 48355 50001 333 91122 91214;
0137066050999992010011411004+47133+007067FM-12+159999999V0201001N006219999999N9999999N1-00251-00701999999ADDMA1999999082451MD1710031+9999ME1313539OA149901131REMSYN076AAXX  14114 06605 33/// /1012 11025 21070 38245 48353 57003 333 91122 91214;
0137066050999992010011412004+47133+007067FM-12+159999999V0201001N006719999999N9999999N1-00071-01151999999ADDMA1999999082421MD1710051+9999ME1313499OA149901131REMSYN076AAXX  14124 06605 33/// /1013 11007 21115 38242 48349 57005 333 91122 91214;
0137066050999992010011413004+47133+007067FM-12+159999999V0201101N005719999999N9999999N1+00021-01401999999ADDMA1999999082431MD1510041+9999ME1313499OA149900881REMSYN076AAXX  14134 06605 33/// /1111 10002 21140 38243 48349 55004 333 91117 91214;
0137066050999992010011414004+47133+007067FM-12+159999999V0201001N004619999999N9999999N1-00011-01191999999ADDMA1999999082451MD1510001+9999ME1313519OA149900721REMSYN076AAXX  14144 06605 33/// /1009 11001 21119 38245 48351 55000 333 91114 91213;
0137066050999992010011415004+47133+007067FM-12+159999999V0201001N004119999999N9999999N1+00011-01351999999ADDMA1999999082461MD1310041+9999ME1313529OA149901131REMSYN076AAXX  14154 06605 33/// /1008 10001 21135 38246 48352 53004 333 91122 91214;
0137066050999992010011416004+47133+007067FM-12+159999999V0201001N003119999999N9999999N1+00101-01651999999ADDMA1999999082501MD1310071+9999ME1313559OA149900511REMSYN076AAXX  14164 06605 33/// /1006 10010 21165 38250 48355 53007 333 91110 91209;
0137066050999992010011417004+47133+007067FM-12+159999999V0201001N004119999999N9999999N1+00141-01671999999ADDMA1999999082561MD1310111+9999ME1313609OA149900461REMSYN076AAXX  14174 06605 33/// /1008 10014 21167 38256 48360 53011 333 91109 91208;
0156066050999992010011418004+47133+007067FM-12+159999999V0200701N003619999999N9999999N1+00181-01831999999ADDKA1120M+00151MA1999999082631MD1310171+9999ME1313679OA149901131REMSYN082AAXX  14184 06605 33/// /0707 10018 21183 38263 48367 53017 333 10015 91122 91214;
0137066050999992010011419004+47133+007067FM-12+159999999V0200601N002619999999N9999999N1+00151-01761999999ADDMA1999999082701MD1310201+9999ME1313749OA149900461REMSYN076AAXX  14194 06605 33/// /0605 10015 21176 38270 48374 53020 333 91109 91208;
0137066050999992010011420004+47133+007067FM-12+159999999V0200401N003619999999N9999999N1+00061-01481999999ADDMA1999999082761MD1110201+9999ME1313819OA149900461REMSYN076AAXX  14204 06605 33/// /0407 10006 21148 38276 48381 51020 333 91109 91207;
0137066050999992010011421004+47133+007067FM-12+159999999V0202901N003619999999N9999999N1-00071-01261999999ADDMA1999999082851MD1310221+9999ME1313909OA149900571REMSYN076AAXX  14214 06605 33/// /2907 11007 21126 38285 48390 53022 333 91111 91208;
0137066050999992010011422004+47133+007067FM-12+159999999V0202601N005119999999N9999999N1-00101-01111999999ADDMA1999999082921MD1310221+9999ME1313979OA149900721REMSYN076AAXX  14224 06605 33/// /2610 11010 21111 38292 48397 53022 333 91114 91211;
0137066050999992010011423004+47133+007067FM-12+159999999V0202801N006219999999N9999999N1-00101-01041999999ADDMA1999999082981MD1110221+9999ME1314039OA149900721REMSYN076AAXX  14234 06605 33/// /2812 11010 21104 38298 48403 51022 333 91114 91212;
0137066050999992010011500004+47133+007067FM-12+159999999V0202801N007719999999N9999999N1-00251-00981999999ADDMA1999999083021MD1110171+9999ME1314089OA149900931REMSYN076AAXX  15004 06605 33/// /2815 11025 21098 38302 48408 51017 333 91118 91215;
0137066050999992010011501004+47133+007067FM-12+159999999V0203001N009819999999N9999999N1-00321-00741999999ADDMA1999999083051MD1110131+9999ME1314129OA149901241REMSYN076AAXX  15014 06605 33/// /3019 11032 21074 38305 48412 51013 333 91124 91219;
0137066050999992010011502004+47133+007067FM-12+159999999V0203001N010319999999N9999999N1-00341-00721999999ADDMA1999999083121MD1310141+9999ME1314189OA149901241REMSYN076AAXX  15024 06605 33/// /3020 11034 21072 38312 48418 53014 333 91124 91220;
0096066050999992010011503004+47133+007067FM-12+159999999V0203001N010819999999N9999999N1-00441-00641999999ADDMA1999999083171ME1314249REMSYN060AAXX  15034 06605 33/// /3021 11044 21064 38317 48424 5////;
0137066050999992010011504004+47133+007067FM-12+159999999V0203001N008719999999N9999999N1-00411-00621999999ADDMA1999999083261MD1210211+9999ME1314329OA149901391REMSYN076AAXX  15044 06605 33/// /3017 11041 21062 38326 48432 52021 333 91127 91222;
0137066050999992010011505004+47133+007067FM-12+159999999V0203201N003619999999N9999999N1-00231-00991999999ADDMA1999999083361MD1310241+9999ME1314419OA149901341REMSYN076AAXX  15054 06605 33/// /3207 11023 21099 38336 48441 53024 333 91126 91222;
0216066050999992010011506004+47133+007067FM-12+159999999V0203201N006219999999N9999999N1-00321-00781999999ADDAA124000091AL19900091GJ101689KA1999N-00471MA1999999083441MD1110271+9999ME1314499OA149901391REMSYN094AAXX  15064 06605 33/// /3212 11032 21078 38344 48449 51027 333 21047 55028 70000 91127 91222;EQDQ01  00002PRCP24
0137066050999992010011507004+47133+007067FM-12+159999999V0203301N006719999999N9999999N1-00211-00941999999ADDMA1999999083531MD1210271+9999ME1314579OA149900721REMSYN076AAXX  15074 06605 33/// /3313 11021 21094 38353 48457 52027 333 91114 91213;
0137066050999992010011508004+47133+007067FM-12+159999999V0203201N005719999999N9999999N1-00301-00761999999ADDMA1999999083611MD1219999+9999ME1314659OA149900721REMSYN076AAXX  15084 06605 33/// /3211 11030 21076 38361 48465 52/// 333 91114 91213;
0137066050999992010011509004+47133+007067FM-12+159999999V0203101N005119999999N9999999N1-00151-00821999999ADDMA1999999083691MD1210251+9999ME1314729OA149901341REMSYN076AAXX  15094 06605 33/// /3110 11015 21082 38369 48472 52025 333 91126 91222;
0137066050999992010011510004+47133+007067FM-12+159999999V0203201N007719999999N9999999N1-00131-00841999999ADDMA1999999083751MD1110221+9999ME1314779OA149900881REMSYN076AAXX  15104 06605 33/// /3215 11013 21084 38375 48477 51022 333 91117 91215;
0137066050999992010011511004+47133+007067FM-12+159999999V0203401N006719999999N9999999N1-00101-00851999999ADDMA1999999083781MD1110171+9999ME1314809OA149900881REMSYN076AAXX  15114 06605 33/// /3413 11010 21085 38378 48480 51017 333 91117 91215;
0137066050999992010011512004+47133+007067FM-12+159999999V0203301N010819999999N9999999N1-00081-00701999999ADDMA1999999083791MD1210101+9999ME1314819OA149901391REMSYN076AAXX  15124 06605 33/// /3321 11008 21070 38379 48481 52010 333 91127 91222;
0137066050999992010011513004+47133+007067FM-12+159999999V0203401N012319999999N9999999N1-00101-00641999999ADDMA1999999083821MD1210071+9999ME1314849OA149901541REMSYN076AAXX  15134 06605 33/// /3424 11010 21064 38382 48484 52007 333 91130 91224;
0137066050999992010011514004+47133+007067FM-12+159999999V0203401N011819999999N9999999N1-00171-00651999999ADDMA1999999083871MD1210091+9999ME1314899OA149901541REMSYN076AAXX  15144 06605 33/// /3423 11017 21065 38387 48489 52009 333 91130 91225;
0137066050999992010011515004+47133+007067FM-12+159999999V0209999C009319999999N9999999N1-00151-00721999999ADDMA1999999083951MD1210161+9999ME1314979OA149901541REMSYN076AAXX  15154 06605 33/// /0018 11015 21072 38395 48497 52016 333 91130 91225;
0137066050999992010011516004+47133+007067FM-12+159999999V0200101N008219999999N9999999N1-00271-00801999999ADDMA1999999084001MD1110181+9999ME1315029OA149901291REMSYN076AAXX  15164 06605 33/// /0116 11027 21080 38400 48502 51018 333 91125 91222;
0137066050999992010011517004+47133+007067FM-12+159999999V0200201N008219999999N9999999N1-00301-00851999999ADDMA1999999084051MD1110181+9999ME1315079OA149900981REMSYN076AAXX  15174 06605 33/// /0216 11030 21085 38405 48507 51018 333 91119 91218;
0156066050999992010011518004+47133+007067FM-12+159999999V0200401N006219999999N9999999N1-00341-00941999999ADDKA1120M-00031MA1999999084071MD1210121+9999ME1315099OA149901541REMSYN082AAXX  15184 06605 33/// /0412 11034 21094 38407 48509 52012 333 11003 91130 91225;
0137066050999992010011519004+47133+007067FM-12+159999999V0200701N006219999999N9999999N1-00161-01071999999ADDMA1999999084081MD1210081+9999ME1315099OA149900881REMSYN076AAXX  15194 06605 33/// /0712 11016 21107 38408 48509 52008 333 91117 91215;
0137066050999992010011520004+47133+007067FM-12+159999999V0200901N005719999999N9999999N1-00151-00771999999ADDMA1999999084071MD1210021+9999ME1315089OA149900721REMSYN076AAXX  15204 06605 33/// /0911 11015 21077 38407 48508 52002 333 91114 91213;
0137066050999992010011521004+47133+007067FM-12+159999999V0201101N005719999999N9999999N1-00181-00861999999ADDMA1999999084061MD1710011+9999ME1315079OA149900981REMSYN076AAXX  15214 06605 33/// /1111 11018 21086 38406 48507 57001 333 91119 91218;
0137066050999992010011522004+47133+007067FM-12+159999999V0201101N006219999999N9999999N1-00161-00941999999ADDMA1999999084061MD1510021+9999ME1315079OA149900721REMSYN076AAXX  15224 06605 33/// /1112 11016 21094 38406 48507 55002 333 91114 91214;
0137066050999992010011523004+47133+007067FM-12+159999999V0201201N005719999999N9999999N1-00141-00891999999ADDMA1999999084091MD1210021+9999ME1315109OA149900621REMSYN076AAXX  15234 06605 33/// /1211 11014 21089 38409 48510 52002 333 91112 91212;
0137066050999992010011600004+47133+007067FM-12+159999999V0201201N005719999999N9999999N1-00111-00851999999ADDMA1999999084061MD1010001+9999ME1315079OA149901541REMSYN076AAXX  16004 06605 33/// /1211 11011 21085 38406 48507 50000 333 91130 91225;
0137066050999992010011601004+47133+007067FM-12+159999999V0201301N006219999999N9999999N1-00221-00941999999ADDMA1999999084011MD1710051+9999ME1315039OA149900721REMSYN076AAXX  16014 06605 33/// /1312 11022 21094 38401 48503 57005 333 91114 91212;
0137066050999992010011602004+47133+007067FM-12+159999999V0201401N006719999999N9999999N1-00201-00961999999ADDMA1999999083991MD1610101+9999ME1315019OA149900771REMSYN076AAXX  16024 06605 33/// /1413 11020 21096 38399 48501 56010 333 91115 91213;
0137066050999992010011603004+47133+007067FM-12+159999999V0201401N005119999999N9999999N1-00151-01071999999ADDMA1999999083991MD1719999+9999ME1315009OA149900771REMSYN076AAXX  16034 06605 33/// /1410 11015 21107 38399 48500 57/// 333 91115 91213;
0137066050999992010011604004+47133+007067FM-12+159999999V0201401N005719999999N9999999N1-00121-01101999999ADDMA1999999083941MD1710071+9999ME1314959OA149900771REMSYN076AAXX  16044 06605 33/// /1411 11012 21110 38394 48495 57007 333 91115 91213;
0137066050999992010011605004+47133+007067FM-12+159999999V0201401N006719999999N9999999N1-00171-01251999999ADDMA1999999083881MD1710111+9999ME1314909OA149900771REMSYN076AAXX  16054 06605 33/// /1413 11017 21125 38388 48490 57011 333 91115 91213;
0216066050999992010011606004+47133+007067FM-12+159999999V0201601N007219999999N9999999N1-00121-01251999999ADDAA124000091AL19900091GJ102529KA1999N-00381MA1999999083851MD1710141+9999ME1314879OA149900931REMSYN094AAXX  16064 06605 33/// /1614 11012 21125 38385 48487 57014 333 21038 55042 70000 91118 91216;EQDQ01  00002PRCP24
0137066050999992010011607004+47133+007067FM-12+159999999V0201801N008719999999N9999999N1+00041-01541999999ADDMA1999999083821MD1710121+9999ME1314839OA149901081REMSYN076AAXX  16074 06605 33/// /1817 10004 21154 38382 48483 57012 333 91121 91217;
0137066050999992010011608004+47133+007067FM-12+159999999V0202001N011319999999N9999999N1+00061-01381999999ADDMA1999999083791MD1710091+9999ME1314809OA149901341REMSYN076AAXX  16084 06605 33/// /2022 10006 21138 38379 48480 57009 333 91126 91222;
0137066050999992010011609004+47133+007067FM-12+159999999V0201901N011319999999N9999999N1-00101-01201999999ADDMA1999999083771MD1710081+9999ME1314799OA149901541REMSYN076AAXX  16094 06605 33/// /1922 11010 21120 38377 48479 57008 333 91130 91224;
0137066050999992010011610004+47133+007067FM-12+159999999V0202201N011819999999N9999999N1+00261-01181999999ADDMA1999999083791MD1510031+9999ME1314809OA149901541REMSYN076AAXX  16104 06605 33/// /2223 10026 21118 38379 48480 55003 333 91130 91224;
0137066050999992010011611004+47133+007067FM-12+159999999V0202501N008719999999N9999999N1+00191-01061999999ADDMA1999999083781MD1510011+9999ME1314799OA149901541REMSYN076AAXX  16114 06605 33/// /2517 10019 21106 38378 48479 55001 333 91130 91225;
0137066050999992010011612004+47133+007067FM-12+159999999V0202201N014919999999N9999999N1+00181-00911999999ADDMA1999999083721MD1710051+9999ME1314739OA149901751REMSYN076AAXX  16124 06605 33/// /2229 10018 21091 38372 48473 57005 333 91134 91229;
0137066050999992010011613004+47133+007067FM-12+159999999V0202101N018019999999N9999999N1+00021-00751999999ADDMA1999999083631MD1710161+9999ME1314659OA149902261REMSYN076AAXX  16134 06605 33/// /2135 10002 21075 38363 48465 57016 333 91144 91236;
0137066050999992010011614004+47133+007067FM-12+159999999V0202101N021119999999N9999999N1+00071-00691999999ADDMA1999999083561MD1719999+9999ME1314589OA149902521REMSYN076AAXX  16144 06605 33/// /2141 10007 21069 38356 48458 57/// 333 91149 91241;
0137066050999992010011615004+47133+007067FM-12+159999999V0202101N019519999999N9999999N1+00101-00831999999ADDMA1999999083551MD1710171+9999ME1314579OA149902521REMSYN076AAXX  16154 06605 33/// /2138 10010 21083 38355 48457 57017 333 91149 91242;
0137066050999992010011616004+47133+007067FM-12+159999999V0202301N015919999999N9999999N1+00011-00731999999ADDMA1999999083581MD1710051+9999ME1314609OA149902471REMSYN076AAXX  16164 06605 33/// /2331 10001 21073 38358 48460 57005 333 91148 91242;
0137066050999992010011617004+47133+007067FM-12+159999999V0202301N015919999999N9999999N1+00031-00601999999ADDMA1999999083581MD1010021+9999ME1314609OA149902421REMSYN076AAXX  16174 06605 33/// /2331 10003 21060 38358 48460 50002 333 91147 91239;
0156066050999992010011618004+47133+007067FM-12+159999999V0202101N022619999999N9999999N1-00181-00181999999ADDKA1120M+00301MA1999999083521MD1810031+9999ME1314569OA149902931REMSYN082AAXX  16184 06605 33/// /2144 11018 21018 38352 48456 58003 333 10030 91157 91244;
0137066050999992010011619004+47133+007067FM-12+159999999V0202101N022119999999N9999999N1-00231-00231999999ADDMA1999999083481MD1710101+9999ME1314529OA149902931REMSYN076AAXX  16194 06605 33/// /2143 11023 21023 38348 48452 57010 333 91157 91244;
0154066050999992010011620004+47133+007067FM-12+159999999V0202101N023619999999N9999999N1-00211-00211999999ADDAA101000021MA1999999083421MD1710161+9999ME1314469OA149902991REMSYN082AAXX  16204 06605 23/// /2146 11021 21021 38342 48446 57016 333 69925 91158 91246;
0154066050999992010011621004+47133+007067FM-12+159999999V0202101N021619999999N9999999N1-00181-00181999999ADDAA101000021MA1999999083411MD1710111+9999ME1314459OA149902991REMSYN082AAXX  16214 06605 23/// /2142 11018 21018 38341 48445 57011 333 69915 91158 91246;
0154066050999992010011622004+47133+007067FM-12+159999999V0202101N017519999999N9999999N1-00071-00071999999ADDAA101000021MA1999999083481MD1410001+9999ME1314519OA149902991REMSYN082AAXX  16224 06605 23/// /2134 11007 21007 38348 48451 53000 333 69925 91158 91245;
0154066050999992010011623004+47133+007067FM-12+159999999V0202101N014419999999N9999999N1-00091-00091999999ADDAA101000391MA1999999083531MD1210111+9999ME1314569OA149902991REMSYN082AAXX  16234 06605 23/// /2128 11009 21009 38353 48456 52011 333 69935 91158 91244;
0160066050999992010011700004+47133+007067FM-12+159999999V0202101N014919999999N9999999N1-00111-00111999999ADDAA106000891MA1999999083551MD1210141+9999ME1314589OA149902991REMSYN088AAXX  17004 06605 03/// /2129 11011 21011 38355 48458 52014 69981 333 60005 91158 91246;
0137066050999992010011701004+47133+007067FM-12+159999999V0202101N017519999999N9999999N1-00061-00131999999ADDMA1999999083541MD1010061+9999ME1314579OA149902211REMSYN076AAXX  17014 06605 33/// /2134 11006 21013 38354 48457 50006 333 91143 91234;
0154066050999992010011702004+47133+007067FM-12+159999999V0202101N017019999999N9999999N1-00081-00121999999ADDAA101000021MA1999999083511MD1819999+9999ME1314549OA149902521REMSYN082AAXX  17024 06605 23/// /2133 11008 21012 38351 48454 58/// 333 69915 91149 91237;
0096066050999992010011703004+47133+007067FM-12+159999999V0202201N011819999999N9999999N1-00051-00091999999ADDMA1999999083521ME1314559REMSYN060AAXX  17034 06605 43/// /2223 11005 21009 38352 48455 5////;
0154066050999992010011704004+47133+007067FM-12+159999999V0202401N014919999999N9999999N1+00021-00071999999ADDAA101000021MA1999999083521MD1510021+9999ME1314559OA149904171REMSYN082AAXX  17044 06605 23/// /2429 10002 21007 38352 48455 55002 333 69925 91181 91235;
0154066050999992010011705004+47133+007067FM-12+159999999V0202501N014419999999N9999999N1+00051-00041999999ADDAA101000021MA1999999083491MD1819999+9999ME1314529OA149902371REMSYN082AAXX  17054 06605 23/// /2528 10005 21004 38349 48452 58/// 333 69915 91146 91229;
0220066050999992010011706004+47133+007067FM-12+159999999V0202401N011319999999N9999999N1+00031-00051999999ADDAA112002092AA224001392AL11800191GJ101329KA1999N-00241MA1999999083521MD1510001+9999ME1314559OA149904171REMSYN106AAXX  17064 06605 03/// /2422 10003 21005 38352 48455 55000 60022 333 21024 55022 69925 70013 91181 91246;
0154066050999992010011707004+47133+007067FM-12+159999999V0202501N010319999999N9999999N1-00101-00101999999ADDAA101000591MA1999999083591MD1310071+9999ME1314629OA149902211REMSYN082AAXX  17074 06605 23/// /2520 11010 21010 38359 48462 53007 333 69955 91143 91229;
0154066050999992010011708004+47133+007067FM-12+159999999V0202701N012919999999N9999999N1-00081-00091999999ADDAA101000591MA1999999083651MD1219999+9999ME1314689OA149901961REMSYN082AAXX  17084 06605 23/// /2725 11008 21009 38365 48468 52/// 333 69955 91138 91228;
0154066050999992010011709004+47133+007067FM-12+159999999V0202901N014419999999N9999999N1-00101-00101999999ADDAA101001091MA1999999083721MD1210201+9999ME1314749OA149902371REMSYN082AAXX  17094 06605 23/// /2928 11010 21010 38372 48474 52020 333 69995 91146 91229;
0154066050999992010011710004+47133+007067FM-12+159999999V0202901N013419999999N9999999N1-00111-00111999999ADDAA101000891MA1999999083791MD1310201+9999ME1314819OA149902261REMSYN082AAXX  17104 06605 23/// /2926 11011 21011 38379 48481 53020 333 69985 91144 91230;
0154066050999992010011711004+47133+007067FM-12+159999999V0202901N012319999999N9999999N1-00181-00181999999ADDAA101001091MA1999999083871MD1210221+9999ME1314899OA149902161REMSYN082AAXX  17114 06605 23/// /2924 11018 21018 38387 48489 52022 333 60015 91142 91230;
0160066050999992010011712004+47133+007067FM-12+159999999V0203001N015919999999N9999999N1-00291-00291999999ADDAA106004191MA1999999083881MD1210161+9999ME1314909OA149904171REMSYN088AAXX  17124 06605 03/// /3031 11029 21029 38388 48490 52016 60041 333 69955 91181 91237;
0154066050999992010011713004+47133+007067FM-12+159999999V0203001N012319999999N9999999N1-00271-00381999999ADDAA101000891MA1999999083941MD1210151+9999ME1314969OA149902261REMSYN082AAXX  17134 06605 23/// /3024 11027 21038 38394 48496 52015 333 69985 91144 91231;
0154066050999992010011714004+47133+007067FM-12+159999999V0203001N015919999999N9999999N1-00341-00341999999ADDAA101000021MA1999999083951MD1219999+9999ME1314979OA149902211REMSYN082AAXX  17144 06605 23/// /3031 11034 21034 38395 48497 52/// 333 69915 91143 91234;
0154066050999992010011715004+47133+007067FM-12+159999999V0202901N013419999999N9999999N1-00301-00301999999ADDAA101000021MA1999999084031MD1210151+9999ME1315059OA149902261REMSYN082AAXX  17154 06605 23/// /2926 11030 21030 38403 48505 52015 333 69915 91144 91234;
0137066050999992010011716004+47133+007067FM-12+159999999V0203001N010819999999N9999999N1-00341-00341999999ADDMA1999999084121MD1210181+9999ME1315139OA149901901REMSYN076AAXX  17164 06605 33/// /3021 11034 21034 38412 48513 52018 333 91137 91229;
0137066050999992010011717004+47133+007067FM-12+159999999V0202901N009819999999N9999999N1-00341-00351999999ADDMA1999999084161MD1110211+9999ME1315179OA149901851REMSYN076AAXX  17174 06605 33/// /2919 11034 21035 38416 48517 51021 333 91136 91227;
0179066050999992010011718004+47133+007067FM-12+159999999V0203001N009319999999N9999999N1-00331-00331999999ADDAA112005191KA1120M+00031MA1999999084221MD1110191+9999ME1315239OA149902261REMSYN094AAXX  17184 06605 03/// /3018 11033 21033 38422 48523 51019 60052 333 10003 60005 91144 91234;
0137066050999992010011719004+47133+007067FM-12+159999999V0203001N011819999999N9999999N1-00361-00371999999ADDMA1999999084211MD1210091+9999ME1315229OA149901651REMSYN076AAXX  17194 06605 33/// /3023 11036 21037 38421 48522 52009 333 91132 91224;
0137066050999992010011720004+47133+007067FM-12+159999999V0202801N007719999999N9999999N1-00421-00641999999ADDMA1999999084271MD1210111+9999ME1315289OA149901651REMSYN076AAXX  17204 06605 33/// /2815 11042 21064 38427 48528 52011 333 91132 91224;
