0119066099999992011010305504+47400+008650AUTO +0448LSMD V0209999C000012200019N0050001N1-00601-00701999999ADDGF100991999999999999999999MA1102301999999REMMET066METAR LSMD 030550Z AUTO 00000KT 5000NDV NCD M06/M07 Q1023 RMK GRN;
0119066099999992011010306504+47400+008650AUTO +0448LSMD V0209999C000012200019N0050001N1-00601-00701999999ADDGF100991999999999999999999MA1102301999999REMMET066METAR LSMD 030650Z AUTO 00000KT 5000NDV NCD M06/M07 Q1023 RMK GRN;
0127066099999992011010309504+47400+008650AUTO +0448LSMD V0202801N001512200019N0090001N1-00401-00501999999ADDGF100991999999999999999999MA1102301999999REMMET074METAR LSMD 030950Z AUTO 28003KT 250V340 9000NDV NCD M04/M05 Q1023 RMK BLU;
0146066099999992011010310504+47400+008650AUTO +0448LSMD V0200201N001512200019N0112651N1-00301-00501999999ADDGA1021+003301999GF102991999999999999999999MA1102301999999REMMET077METAR LSMD 031050Z AUTO 02003KT 320V100 9999NDV FEW011 M03/M05 Q1023 RMK BLU;
0130066099999992011010311504+47400+008650FM-15+0448LSMD V0209999V002112200019N0112651N1-00101-00401999999ADDGA1021+004501999GF102991999999999999999999MA1102201999999REMMET061METAR LSMD 031150Z VRB04KT 9999 FEW015 M01/M04 Q1022 RMK BLU;
0138066099999992011010312504+47400+008650FM-15+0448LSMD V0200401N002112200019N0112651N1-00101-00401999999ADDGA1021+004201999GF102991999999999999999999MA1102201999999REMMET069METAR LSMD 031250Z 04004KT 340V140 9999 FEW014 M01/M04 Q1022 RMK BLU;
0082066099999992011010313504+47400+008650FM-15+0448LSMD V0200801N004119999999Y0099001N1-00101-00501999999ADDMA1102101999999REMMET055METAR LSMD 031350Z 08008KT CAVOK M01/M05 Q1021 RMK BLU;
0090066099999992011010314504+47400+008650FM-15+0448LSMD V0200901N002619999999Y0099001N1-00101-00501999999ADDMA1102101999999REMMET063METAR LSMD 031450Z 09005KT 070V140 CAVOK M01/M05 Q1021 RMK BLU;
0127066099999992011010315504+47400+008650AUTO +0448LSMD V0200701N001512200019N0112651N1-00201-00501999999ADDGF100991999999999999999999MA1102101999999REMMET074METAR LSMD 031550Z AUTO 07003KT 020V110 9999NDV NCD M02/M05 Q1021 RMK BLU;
0119066099999992011010317504+47400+008650AUTO +0448LSMD V0209999V001012200019N0112651N1-00401-00601999999ADDGF100991999999999999999999MA1102101999999REMMET066METAR LSMD 031750Z AUTO VRB02KT 9999NDV NCD M04/M06 Q1021 RMK BLU;
0138066099999992011010318504+47400+008650AUTO +0448LSMD V0209999V000512200019N0112651N1-00401-00701999999ADDGA1021+054001999GF102991999999999999999999MA1102101999999REMMET069METAR LSMD 031850Z AUTO VRB01KT 9999NDV FEW180 M04/M07 Q1021 RMK BLU;
0119066099999992011010319504+47400+008650AUTO +0448LSMD V0202901N001012200019N0060001N1-00601-00801999999ADDGF100991999999999999999999MA1102101999999REMMET066METAR LSMD 031950Z AUTO 29002KT 6000NDV NCD M06/M08 Q1021 RMK GRN;
0119066099999992011010320504+47400+008650AUTO +0448LSMD V0209999V000512200019N0070001N1-00601-00701999999ADDGF100991999999999999999999MA1102101999999REMMET066METAR LSMD 032050Z AUTO VRB01KT 7000NDV NCD M06/M07 Q1021 RMK GRN;
0138066099999992011010322504+47400+008650AUTO +0448LSMD V0209999C000012200019N0060001N1-00601-00701999999ADDGA1021+042001999GF102991999999999999999999MA1102001999999REMMET069METAR LSMD 032250Z AUTO 00000KT 6000NDV FEW140 M06/M07 Q1020 RMK GRN;
0138066099999992011010323504+47400+008650AUTO +0448LSMD V0209999C000012200019N0070001N1-00601-00701999999ADDGA1041+042001999GF104991999999999999999999MA1102001999999REMMET069METAR LSMD 032350Z AUTO 00000KT 7000NDV SCT140 M06/M07 Q1020 RMK GRN;
0138066099999992011010401504+47400+008650AUTO +0448LSMD V0201001N001012200019N0070001N1-00601-00801999999ADDGA1041+045001999GF104991999999999999999999MA1102001999999REMMET069METAR LSMD 040150Z AUTO 10002KT 7000NDV SCT150 M06/M08 Q1020 RMK GRN;
0161066099999992011010402504+47400+008650AUTO +0448LSMD V0201201N001010075019N0060001N1-00601-00701999999ADDGA1041+005401999GA2071+007501999GF107991999999999999999999MA1102001999999REMMET076METAR LSMD 040250Z AUTO 12002KT 6000NDV SCT018 BKN025 M06/M07 Q1020 RMK GRN;
0161066099999992011010403504+47400+008650AUTO +0448LSMD V0209999V000510075019N0070001N1-00601-00701999999ADDGA1021+006601999GA2071+007501999GF107991999999999999999999MA1101901999999REMMET076METAR LSMD 040350Z AUTO VRB01KT 7000NDV FEW022 BKN025 M06/M07 Q1019 RMK GRN;
0161066099999992011010404504+47400+008650AUTO +0448LSMD V0200901N001510069019N0070001N1-00501-00601999999ADDGA1021+003901999GA2081+006901999GF108991999999999999999999MA1101901999999REMMET076METAR LSMD 040450Z AUTO 09003KT 7000NDV FEW013 OVC023 M05/M06 Q1019 RMK GRN;
0130066099999992011010405504+47400+008650FM-15+0448LSMD V0209999V000510069019N0080001N1-00501-00701999999ADDGA1071+006901999GF107991999999999999999999MA1101901999999REMMET061METAR LSMD 040550Z VRB01KT 8000 BKN023 M05/M07 Q1019 RMK WHT;
0153066099999992011010406504+47400+008650FM-15+0448LSMD V0209999C000012200019N0060001N1-00601-00701999999ADDGA1021+004801999GA2041+006301999GF104991999999999999999999MA1101801999999REMMET068METAR LSMD 040650Z 00000KT 6000 FEW016 SCT021 M06/M07 Q1018 RMK GRN;
0176066099999992011010407504+47400+008650FM-15+0448LSMD V0209999V00051011101CN0060001N1-00501-00601999999ADDGA1021+005101999GA2041+011101999GA3071+013201999GF107991999999999999999999MA1101801999999REMMET075METAR LSMD 040750Z VRB01KT 6000 FEW017 SCT037 BKN044 M05/M06 Q1018 RMK GRN;
0130066099999992011010408504+47400+008650FM-15+0448LSMD V0209999C000010114019N0060001N1-00401-00601999999ADDGA1081+011401999GF108991999999999999999999MA1101801999999REMMET061METAR LSMD 040850Z 00000KT 6000 OVC038 M04/M06 Q1018 RMK GRN;
0153066099999992011010409504+47400+008650FM-15+0448LSMD V0209999V000510099019N0060001N1-00401-00601999999ADDGA1071+009901999GA2081+013201999GF108991999999999999999999MA1101801999999REMMET068METAR LSMD 040950Z VRB01KT 6000 BKN033 OVC044 M04/M06 Q1018 RMK GRN;
0153066099999992011010410504+47400+008650FM-15+0448LSMD V0209999V000510099019N0090001N1-00301-00601999999ADDGA1071+009901999GA2081+012601999GF108991999999999999999999MA1101801999999REMMET068METAR LSMD 041050Z VRB01KT 9000 BKN033 OVC042 M03/M06 Q1018 RMK WHT;
0161066099999992011010411504+47400+008650AUTO +0448LSMD V0209999V000510096019N0080001N1-00201-00501999999ADDGA1071+009601999GA2081+018001999GF108991999999999999999999MA1101691999999REMMET076METAR LSMD 041150Z AUTO VRB01KT 8000NDV BKN032 OVC062 M02/M05 Q1017 RMK WHT;
0153066099999992011010412504+47400+008650FM-15+0448LSMD V0209999V001010132019N0080001N1-00201-00501999999ADDGA1071+013201999GA2071+018001999GF107991999999999999999999MA1101691999999REMMET068METAR LSMD 041250Z VRB02KT 8000 BKN044 BKN064 M02/M05 Q1017 RMK WHT;
0153066099999992011010413504+47400+008650FM-15+0448LSMD V0209999C000010135019N0080001N1-00201-00501999999ADDGA1071+013501999GA2081+018001999GF108991999999999999999999MA1101591999999REMMET068METAR LSMD 041350Z 00000KT 8000 BKN045 OVC065 M02/M05 Q1016 RMK WHT;
0176066099999992011010414504+47400+008650FM-15+0448LSMD V0209999V000510120019N0070001N1-00201-00501999999ADDGA1071+012001999GA2071+013801999GA3081+015001999GF108991999999999999999999MA1101591999999REMMET075METAR LSMD 041450Z VRB01KT 7000 BKN040 BKN046 OVC053 M02/M05 Q1016 RMK GRN;
0130066099999992011010415504+47400+008650FM-15+0448LSMD V0209999V000510123019N0070001N1-00201-00501999999ADDGA1081+012301999GF108991999999999999999999MA1101591999999REMMET061METAR LSMD 041550Z VRB01KT 7000 OVC041 M02/M05 Q1016 RMK GRN;
0138066099999992011010416504+47400+008650AUTO +0448LSMD V0209999C000010117019N0060001N1-00201-00401999999ADDGA1081+011701999GF108991999999999999999999MA1101591999999REMMET069METAR LSMD 041650Z AUTO 00000KT 6000NDV OVC039 M02/M04 Q1016 RMK GRN;
0146066099999992011010417504+47400+008650AUTO +0448LSMD V0203301N001510111019N0060001N1-00201-00401999999ADDGA1081+011101999GF108991999999999999999999MA1101591999999REMMET077METAR LSMD 041750Z AUTO 33003KT 300V360 6000NDV OVC037 M02/M04 Q1016 RMK GRN;
0150066099999992011010418504+47400+008650AUTO +0448LSMD V0209999V000510105019N0060001N1-00201-00401999999ADDAW1851GA1081+010501999GF108991999999999999999999MA1101591999999REMMET075METAR LSMD 041850Z AUTO VRB01KT 6000NDV -SHSN OVC035 M02/M04 Q1016 RMK GRN;
0161066099999992011010419504+47400+008650AUTO +0448LSMD V0209999V000510099019N0060001N1-00201-00401999999ADDGA1071+009901999GA2081+013801999GF108991999999999999999999MA1101591999999REMMET076METAR LSMD 041950Z AUTO VRB01KT 6000NDV BKN033 OVC046 M02/M04 Q1016 RMK GRN;
0184066099999992011010420504+47400+008650AUTO +0448LSMD V0209999V000510048019N0050001N1-00201-00401999999ADDGA1021+004201999GA2071+004801999GA3081+015001999GF108991999999999999999999MA1101591999999REMMET083METAR LSMD 042050Z AUTO VRB01KT 5000NDV FEW014 BKN016 OVC051 M02/M04 Q1016 RMK GRN;
0193066099999992011010421504+47400+008650AUTO +0448LSMD V0203301N002110051019N0050001N1-00201-00401999999ADDAW1101GA1021+003601999GA2071+005101999GA3081+015001999GF108991999999999999999999MA1101591999999REMMET086METAR LSMD 042150Z AUTO 33004KT 5000NDV BR FEW012 BKN017 OVC055 M02/M04 Q1016 RMK GRN;
0161066099999992011010422504+47400+008650AUTO +0448LSMD V0209999V000510150019N0060001N1-00301-00501999999ADDGA1041+004801999GA2081+015001999GF108991999999999999999999MA1101591999999REMMET076METAR LSMD 042250Z AUTO VRB01KT 6000NDV SCT016 OVC054 M03/M05 Q1016 RMK GRN;
0170066099999992011010423504+47400+008650AUTO +0448LSMD V0209999C000010042019N0050001N1-00301-00501999999ADDAW1101GA1071+004201999GA2081+015001999GF108991999999999999999999MA1101491999999REMMET079METAR LSMD 042350Z AUTO 00000KT 5000NDV BR BKN014 OVC055 M03/M05 Q1015 RMK GRN;
0170066099999992011010500504+47400+008650AUTO +0448LSMD V0209999C000010150019N0048001N1-00301-00501999999ADDAW1101GA1021+003901999GA2081+015001999GF108991999999999999999999MA1101491999999REMMET079METAR LSMD 050050Z AUTO 00000KT 4800NDV BR FEW013 OVC052 M03/M05 Q1015 RMK GRN;
0193066099999992011010501504+47400+008650AUTO +0448LSMD V0209999C000010036019N0050001N1-00301-00501999999ADDAW1101GA1041+002701999GA2071+003601999GA3081+014701999GF108991999999999999999999MA1101491999999REMMET086METAR LSMD 050150Z AUTO 00000KT 5000NDV BR SCT009 BKN012 OVC049 M03/M05 Q1015 RMK GRN;
0138066099999992011010502504+47400+008650AUTO +0448LSMD V0209999V001010147019N0050001N1-00301-00601999999ADDGA1081+014701999GF108991999999999999999999MA1101491999999REMMET069METAR LSMD 050250Z AUTO VRB02KT 5000NDV OVC049 M03/M06 Q1015 RMK GRN;
0138066099999992011010503504+47400+008650AUTO +0448LSMD V0209999V001010147019N0112651N1-00301-00601999999ADDGA1081+014701999GF108991999999999999999999MA1101491999999REMMET069METAR LSMD 050350Z AUTO VRB02KT 9999NDV OVC049 M03/M06 Q1015 RMK WHT;
0138066099999992011010504504+47400+008650AUTO +0448LSMD V0209999V001010144019N0112651N1-00201-00601999999ADDGA1081+014401999GF108991999999999999999999MA1101391999999REMMET069METAR LSMD 050450Z AUTO VRB02KT 9999NDV OVC048 M02/M06 Q1014 RMK WHT;
0130066099999992011010506004+47400+008650FM-15+0448LSMD V0209999C000010135019N0112651N1-00301-00601999999ADDGA1081+013501999GF108991999999999999999999MA1101491999999REMMET061METAR LSMD 050555Z 00000KT 9999 OVC045 M03/M06 Q1015 RMK WHT;
0130066099999992011010506504+47400+008650FM-15+0448LSMD V0201201N001010132019N0112651N1-00301-00601999999ADDGA1081+013201999GF108991999999999999999999MA1101491999999REMMET061METAR LSMD 050650Z 12002KT 9999 OVC044 M03/M06 Q1015 RMK WHT;
0130066099999992011010507504+47400+008650FM-15+0448LSMD V0201101N002610117019N0112651N1-00301-00601999999ADDGA1071+011701999GF107991999999999999999999MA1101391999999REMMET061METAR LSMD 050750Z 11005KT 9999 BKN039 M03/M06 Q1014 RMK WHT;
0082066099999992011010508504+47400+008650FM-15+0448LSMD V0209999V001019999999Y0099001N1-00101-00701999999ADDMA1101391999999REMMET055METAR LSMD 050850Z VRB02KT CAVOK M01/M07 Q1014 RMK BLU;
0082066099999992011010509504+47400+008650FM-15+0448LSMD V0209999V001019999999Y0099001N1+00001-00601999999ADDMA1101391999999REMMET055METAR LSMD 050950Z VRB02KT CAVOK M00/M06 Q1014 RMK BLU;
0089066099999992011010510504+47400+008650FM-15+0448LSMD V0201201N001519999999Y0099001N1+00101-00801999999ADDMA1101391999999REMMET062METAR LSMD 051050Z 12003KT 080V170 CAVOK 01/M08 Q1014 RMK BLU;
0126066099999992011010511504+47400+008650AUTO +0448LSMD V0201901N002112200019N0112651N1+00201-00801999999ADDGF100991999999999999999999MA1101291999999REMMET073METAR LSMD 051150Z AUTO 19004KT 150V230 9999NDV NCD 02/M08 Q1013 RMK BLU;
0081066099999992011010512504+47400+008650FM-15+0448LSMD V0209999V000519999999Y0099001N1+00301-00701999999ADDMA1101191999999REMMET054METAR LSMD 051250Z VRB01KT CAVOK 03/M07 Q1012 RMK BLU;
0081066099999992011010513504+47400+008650FM-15+0448LSMD V0209999V001019999999Y0099001N1+00301-00701999999ADDMA1101191999999REMMET054METAR LSMD 051350Z VRB02KT CAVOK 03/M07 Q1012 RMK BLU;
0089066099999992011010514504+47400+008650FM-15+0448LSMD V0201401N001519999999Y0099001N1+00301-00501999999ADDMA1101191999999REMMET062METAR LSMD 051450Z 14003KT 100V200 CAVOK 03/M05 Q1012 RMK BLU;
0089066099999992011010515504+47400+008650FM-15+0448LSMD V0201401N002119999999Y0099001N1+00201-00601999999ADDMA1101081999999REMMET062METAR LSMD 051550Z 14004KT 110V180 CAVOK 02/M06 Q1011 RMK BLU;
0119066099999992011010516504+47400+008650AUTO +0448LSMD V0201101N001512200019N0112651N1+00001-00601999999ADDGF100991999999999999999999MA1101081999999REMMET066METAR LSMD 051650Z AUTO 11003KT 9999NDV NCD M00/M06 Q1011 RMK BLU;
0138066099999992011010517504+47400+008650AUTO +0448LSMD V0201301N001510210019N0112651N1-00101-00501999999ADDGA1071+021001999GF107991999999999999999999MA1101081999999REMMET069METAR LSMD 051750Z AUTO 13003KT 9999NDV BKN072 M01/M05 Q1011 RMK WHT;
0119066099999992011010519504+47400+008650AUTO +0448LSMD V0201201N001512200019N0112651N1-00101-00601999999ADDGF100991999999999999999999MA1101081999999REMMET066METAR LSMD 051950Z AUTO 12003KT 9999NDV NCD M01/M06 Q1011 RMK BLU;
0119066099999992011010520504+47400+008650AUTO +0448LSMD V0201001N001512200019N0112651N1-00201-00601999999ADDGF100991999999999999999999MA1101021999999REMMET066METAR LSMD 052050Z AUTO 10003KT 9999NDV NCD M02/M06 Q1010 RMK BLU;
0119066099999992011010521504+47400+008650AUTO +0448LSMD V0201201N002112200019N0112651N1-00101-00701999999ADDGF100991999999999999999999MA1101021999999REMMET066METAR LSMD 052150Z AUTO 12004KT 9999NDV NCD M01/M07 Q1010 RMK BLU;
0119066099999992011010522504+47400+008650AUTO +0448LSMD V0201101N002612200019N0112651N1-00101-00601999999ADDGF100991999999999999999999MA1100911999999REMMET066METAR LSMD 052250Z AUTO 11005KT 9999NDV NCD M01/M06 Q1009 RMK BLU;
0138066099999992011010523504+47400+008650AUTO +0448LSMD V0201001N002112200019N0112651N1-00101-00701999999ADDGA1021+069001999GF102991999999999999999999MA1100911999999REMMET069METAR LSMD 052350Z AUTO 10004KT 9999NDV FEW230 M01/M07 Q1009 RMK BLU;
0169066099999992011010601504+47400+008650AUTO +0448LSMD V0201201N002110240019N0112651N1-00201-00501999999ADDGA1071+024001999GA2081+036001999GF108991999999999999999999MA1100811999999REMMET084METAR LSMD 060150Z AUTO 12004KT 080V150 9999NDV BKN089 OVC120 M02/M05 Q1008 RMK WHT;
0145066099999992011010602504+47400+008650AUTO +0448LSMD V0201401N001510210019N0112651N1+00101-00601999999ADDGA1081+021001999GF108991999999999999999999MA1100811999999REMMET076METAR LSMD 060250Z AUTO 14003KT 110V210 9999NDV OVC075 01/M06 Q1008 RMK WHT;
0138066099999992011010603504+47400+008650AUTO +0448LSMD V0209999V000510210019N0112651N1-00101-00401999999ADDGA1081+021001999GF108991999999999999999999MA1100811999999REMMET069METAR LSMD 060350Z AUTO VRB01KT 9999NDV OVC076 M01/M04 Q1008 RMK WHT;
0149066099999992011010604504+47400+008650AUTO +0448LSMD V0201101N001010150019N0112651N1+00001-00501999999ADDAW1811GA1081+015001999GF108991999999999999999999MA1100811999999REMMET074METAR LSMD 060450Z AUTO 11002KT 9999NDV -SHRA OVC058 00/M05 Q1008 RMK WHT;
0141066099999992011010605504+47400+008650FM-15+0448LSMD V0201101N002110150019N0112651N1+00201-00401999999ADDGA1081+015001999GF108991999999999999999999MA1100811999999MW1801REMMET066METAR LSMD 060550Z 11004KT 9999 -SHRA OVC050 02/M04 Q1008 RMK WHT;
0129066099999992011010606504+47400+008650FM-15+0448LSMD V0209999V001010150019N0112651N1+00201-00401999999ADDGA1081+015001999GF108991999999999999999999MA1100811999999REMMET060METAR LSMD 060650Z VRB02KT 9999 OVC053 02/M04 Q1008 RMK WHT;
0137066099999992011010607504+47400+008650FM-15+0448LSMD V0201201N001510180019N0112651N1+00201-00301999999ADDGA1071+018001999GF107991999999999999999999MA1100811999999REMMET068METAR LSMD 060750Z 12003KT 090V150 9999 BKN060 02/M03 Q1008 RMK WHT;
0129066099999992011010608504+47400+008650FM-15+0448LSMD V0201001N001510240019N0112651N1+00301-00301999999ADDGA1071+024001999GF107991999999999999999999MA1100811999999REMMET060METAR LSMD 060850Z 10003KT 9999 BKN085 03/M03 Q1008 RMK WHT;
0137066099999992011010609504+47400+008650FM-15+0448LSMD V0201401N001512200019N0112651N1+00701+00001999999ADDGA1021+018001999GF102991999999999999999999MA1100811999999REMMET068METAR LSMD 060950Z 14003KT 070V240 9999 FEW060 07/M00 Q1008 RMK BLU;
0182066099999992011010610504+47400+008650AUTO +0448LSMD V0209999V001510270019N0112651N1+00801+00101999999ADDGA1021+010501999GA2071+027001999GA3071+033001999GF107991999999999999999999MA1100811999999REMMET081METAR LSMD 061050Z AUTO VRB03KT 9999NDV FEW035 BKN091 BKN110 08/01 Q1008 RMK WHT;
0137066099999992011010611504+47400+008650AUTO +0448LSMD V0209999V001010180019N0112651N1+00701-00101999999ADDGA1081+018001999GF108991999999999999999999MA1100811999999REMMET068METAR LSMD 061150Z AUTO VRB02KT 9999NDV OVC066 07/M01 Q1008 RMK WHT;
0137066099999992011010612504+47400+008650AUTO +0448LSMD V0209999V001010180019N0112651N1+00701-00101999999ADDGA1081+018001999GF108991999999999999999999MA1100711999999REMMET068METAR LSMD 061250Z AUTO VRB02KT 9999NDV OVC064 07/M01 Q1007 RMK WHT;
0160066099999992011010613504+47400+008650AUTO +0448LSMD V0209999V000510180019N0112651N1+00701-00101999999ADDGA1071+018001999GA2071+021001999GF107991999999999999999999MA1100711999999REMMET075METAR LSMD 061350Z AUTO VRB01KT 9999NDV BKN068 BKN078 07/M01 Q1007 RMK WHT;
0151066099999992011010614504+47400+008650FM-15+0448LSMD V0209999V001010180019N0112651N1+00701+00001999999ADDGA1071+018001999GA2081+021001999GF108991999999999999999999MA1100711999999REMMET066METAR LSMD 061450Z VRB02KT 9999 BKN064 OVC073 07/00 Q1007 RMK WHT;
0148066099999992011010615504+47400+008650AUTO +0448LSMD V0201001N002610150019N0112651N1+00501+00101999999ADDAW1811GA1081+015001999GF108991999999999999999999MA1100711999999REMMET073METAR LSMD 061550Z AUTO 10005KT 9999NDV -SHRA OVC059 05/01 Q1007 RMK WHT;
0148066099999992011010616504+47400+008650AUTO +0448LSMD V0209999C000010180019N0112651N1+00501+00101999999ADDAW1811GA1081+018001999GF108991999999999999999999MA1100811999999REMMET073METAR LSMD 061650Z AUTO 00000KT 9999NDV -SHRA OVC067 05/01 Q1008 RMK WHT;
0154066099999992011010617504+47400+008650AUTO +0448LSMD V0201001N002610150019N0080001N1+00401+00201999999ADDAW1611GA1081+015001999GF108991999999999999999999MA1100811999999REMMET079METAR LSMD 061750Z AUTO 10005KT 080V140 8000NDV -RA OVC054 04/02 Q1008 RMK WHT;
0148066099999992011010618504+47400+008650AUTO +0448LSMD V0201401N002110150019N0112651N1+00401+00301999999ADDAW1811GA1081+015001999GF108991999999999999999999MA1100911999999REMMET073METAR LSMD 061850Z AUTO 14004KT 9999NDV -SHRA OVC052 04/03 Q1009 RMK WHT;
0178066099999992011010619504+47400+008650AUTO +0448LSMD V0201101N001510150019N0060001N1+00401+00201999999ADDAW1821GA1071+015001999GA2081+015001999GF108991999999999999999999MA1100911999999REMMET087METAR LSMD 061950Z AUTO 11003KT 070V140 6000NDV SHRA BKN052 OVC059 04/02 Q1009 RMK GRN;
0178066099999992011010620504+47400+008650AUTO +0448LSMD V0209999V000510150019N0112651N1+00401+00301999999ADDAW1811GA1071+015001999GA2081+018001999GF108991999999999999999999MA1101021999999REMMET087METAR LSMD 062050Z AUTO VRB01KT 9999NDV -SHRA BKN051 OVC063 04/03 Q1010 RESHRA RMK WHT;
0159066099999992011010621504+47400+008650AUTO +0448LSMD V0201001N002610150019N0112651N1+00401+00301999999ADDGA1071+015001999GA2081+018001999GF108991999999999999999999MA1101021999999REMMET074METAR LSMD 062150Z AUTO 10005KT 9999NDV BKN054 OVC069 04/03 Q1010 RMK WHT;
0191066099999992011010622504+47400+008650AUTO +0448LSMD V0201001N001010150019N0080001N1+00401+00301999999ADDAW1621GA1071+015001999GA2071+018001999GA3081+021001999GF108991999999999999999999MA1101021999999REMMET084METAR LSMD 062250Z AUTO 10002KT 8000NDV RA BKN052 BKN066 OVC077 04/03 Q1010 RMK WHT;
0182066099999992011010623504+47400+008650AUTO +0448LSMD V0209999V001010180019N0112651N1+00401+00301999999ADDGA1021+015001999GA2071+018001999GA3071+024001999GF107991999999999999999999MA1101081999999REMMET081METAR LSMD 062350Z AUTO VRB02KT 9999NDV FEW052 BKN064 BKN082 04/03 Q1011 RMK WHT;
0182066099999992011010700504+47400+008650AUTO +0448LSMD V0209999V001510150019N0112651N1+00401+00301999999ADDGA1071+015001999GA2071+024001999GA3081+036001999GF108991999999999999999999MA1101081999999REMMET081METAR LSMD 070050Z AUTO VRB03KT 9999NDV BKN053 BKN081 OVC120 04/03 Q1011 RMK WHT;
0167066099999992011010701504+47400+008650AUTO +0448LSMD V0201201N002110150019N0112651N1+00401+00301999999ADDGA1071+015001999GA2081+021001999GF108991999999999999999999MA1101081999999REMMET082METAR LSMD 070150Z AUTO 12004KT 100V160 9999NDV BKN054 OVC075 04/03 Q1011 RMK WHT;
0144066099999992011010702504+47400+008650AUTO +0448LSMD V0201201N002110150019N0112651N1+00501+00401999999ADDGA1081+015001999GF108991999999999999999999MA1101081999999REMMET075METAR LSMD 070250Z AUTO 12004KT 080V170 9999NDV OVC051 05/04 Q1011 RMK WHT;
0194066099999992011010703504+47400+008650AUTO +0448LSMD V0209999V00101015001CN0112651N1+00501+00401999999ADDAW1811GA1021+006901999GA2041+015001999GA3081+018001999GF108991999999999999999999MA1101191999999REMMET087METAR LSMD 070350Z AUTO VRB02KT 9999NDV -SHRA FEW023 SCT051 OVC064 05/04 Q1012 RMK WHT;
0169066099999992011010704504+47400+008650AUTO +0448LSMD V0201201N001510150019N0070001N1+00501+00401999999ADDAW1611GA1071+015001999GA2081+018001999GF108991999999999999999999MA1101191999999REMMET078METAR LSMD 070450Z AUTO 12003KT 7000NDV -RA BKN055 OVC062 05/04 Q1012 RMK GRN;
0137066099999992011010705504+47400+008650FM-15+0448LSMD V0200901N001010150019N0050001N1+00501+00401999999ADDGA1081+015001999GF108991999999999999999999MA1101291999999MW1631REMMET062METAR LSMD 070550Z 09002KT 5000 RA OVC054 05/04 Q1013 RMK GRN;
0184066099999992011010706504+47400+008650FM-15+0448LSMD V0201101N001010210019N0112651N1+00501+00501999999ADDGA1041+018001999GA2071+021001999GA3081+024001999GF108991999999999999999999MA1101191999999MW1611REMMET077METAR LSMD 070650Z 11002KT 9999 -RA SCT062 BKN071 OVC089 05/05 Q1012 RMK GRN;
0151066099999992011010707504+47400+008650FM-15+0448LSMD V0209999V000510180019N0112651N1+00501+00401999999ADDGA1021+012301999GA2081+018001999GF108991999999999999999999MA1101191999999REMMET066METAR LSMD 070750Z VRB01KT 9999 FEW041 OVC069 05/04 Q1012 RMK YLO;
0159066099999992011010708504+47400+008650FM-15+0448LSMD V0202901N001510270019N0112651N1+00501+00401999999ADDGA1021+012901999GA2081+027001999GF108991999999999999999999MA1101191999999REMMET074METAR LSMD 070850Z 29003KT 260V320 9999 FEW043 OVC091 05/04 Q1012 RMK YLO;
0151066099999992011010709504+47400+008650FM-15+0448LSMD V0209999C000010300019N0090001N1+00701+00601999999ADDGA1071+030001999GA2071+042001999GF107991999999999999999999MA1101191999999REMMET066METAR LSMD 070950Z 00000KT 9000 BKN100 BKN140 07/06 Q1012 RMK WHT;
0136066099999992011010710504+47400+008650FM-15+0448LSMD V0202801N002110270019N0112651N1+00901+00601999999ADDGA1071+027001999GF107991999999999999999999MA1101191999999REMMET067METAR LSMD 071050Z 28004KT 260V320 9999 BKN091 09/06 Q1012 RMK WHT;
0136066099999992011010711504+47400+008650AUTO +0448LSMD V0209999C000010300019N0112651N1+00901+00601999999ADDGA1081+030001999GF108991999999999999999999MA1101191999999REMMET067METAR LSMD 071150Z AUTO 00000KT 9999NDV OVC100 09/06 Q1012 RMK WHT;
0136066099999992011010712504+47400+008650AUTO +0448LSMD V0209999C000010330019N0112651N1+01001+00601999999ADDGA1071+033001999GF107991999999999999999999MA1101191999999REMMET067METAR LSMD 071250Z AUTO 00000KT 9999NDV BKN110 10/06 Q1012 RMK WHT;
0117066099999992011010713504+47400+008650AUTO +0448LSMD V0209999V001012200019N0112651N1+01101+00701999999ADDGF100991999999999999999999MA1101081999999REMMET064METAR LSMD 071350Z AUTO VRB02KT 9999NDV NCD 11/07 Q1011 RMK BLU;
0151066099999992011010714504+47400+008650FM-15+0448LSMD V0209999C000010330019N0112651N1+01101+00701999999ADDGA1071+033001999GA2071+054001999GF107991999999999999999999MA1101081999999REMMET066METAR LSMD 071450Z 00000KT 9999 BKN110 BKN180 11/07 Q1011 RMK WHT;
0136066099999992011010715504+47400+008650AUTO +0448LSMD V0201301N001010300019N0112651N1+00901+00701999999ADDGA1071+030001999GF107991999999999999999999MA1101191999999REMMET067METAR LSMD 071550Z AUTO 13002KT 9999NDV BKN100 09/07 Q1012 RMK WHT;
0159066099999992011010716504+47400+008650AUTO +0448LSMD V0209999V001010360019N0112651N1+00701+00601999999ADDGA1041+030001999GA2081+036001999GF108991999999999999999999MA1101191999999REMMET074METAR LSMD 071650Z AUTO VRB02KT 9999NDV SCT100 OVC120 07/06 Q1012 RMK WHT;
0159066099999992011010717504+47400+008650AUTO +0448LSMD V0201101N002610510019N0112651N1+00601+00501999999ADDGA1021+036001999GA2081+051001999GF108991999999999999999999MA1101191999999REMMET074METAR LSMD 071750Z AUTO 11005KT 9999NDV FEW120 OVC170 06/05 Q1012 RMK WHT;
0190066099999992011010718504+47400+008650AUTO +0448LSMD V0201301N001510360019N0112651N1+00601+00501999999ADDGA1021+030001999GA2071+036001999GA3081+045001999GF108991999999999999999999MA1101191999999REMMET089METAR LSMD 071850Z AUTO 13003KT 080V170 9999NDV FEW100 BKN120 OVC150 06/05 Q1012 RMK WHT;
0159066099999992011010719504+47400+008650AUTO +0448LSMD V0201101N002610450019N0112651N1+00601+00401999999ADDGA1071+045001999GA2081+060001999GF108991999999999999999999MA1101191999999REMMET074METAR LSMD 071950Z AUTO 11005KT 9999NDV BKN150 OVC200 06/04 Q1012 RMK WHT;
0159066099999992011010720504+47400+008650AUTO +0448LSMD V0201001N001510450019N0112651N1+00601+00401999999ADDGA1071+045001999GA2081+051001999GF108991999999999999999999MA1101191999999REMMET074METAR LSMD 072050Z AUTO 10003KT 9999NDV BKN150 OVC170 06/04 Q1012 RMK WHT;
0144066099999992011010721504+47400+008650AUTO +0448LSMD V0201701N001510390019N0112651N1+00701+00401999999ADDGA1081+039001999GF108991999999999999999999MA1101191999999REMMET075METAR LSMD 072150Z AUTO 17003KT 100V260 9999NDV OVC130 07/04 Q1012 RMK WHT;
0159066099999992011010722504+47400+008650AUTO +0448LSMD V0209999V000510420019N0112651N1+00501+00401999999ADDGA1041+036001999GA2081+042001999GF108991999999999999999999MA1101191999999REMMET074METAR LSMD 072250Z AUTO VRB01KT 9999NDV SCT120 OVC140 05/04 Q1012 RMK WHT;
0159066099999992011010723504+47400+008650AUTO +0448LSMD V0209999C000010450019N0090001N1+00401+00301999999ADDGA1021+036001999GA2081+045001999GF108991999999999999999999MA1101191999999REMMET074METAR LSMD 072350Z AUTO 00000KT 9000NDV FEW120 OVC150 04/03 Q1012 RMK WHT;
0136066099999992011010800504+47400+008650AUTO +0448LSMD V0201201N001010330019N0112651N1+00501+00401999999ADDGA1081+033001999GF108991999999999999999999MA1101291999999REMMET067METAR LSMD 080050Z AUTO 12002KT 9999NDV OVC110 05/04 Q1013 RMK WHT;
0182066099999992011010801504+47400+008650AUTO +0448LSMD V0209999V00101024001CN0112651N1+00501+00401999999ADDGA1041+021001999GA2041+024001999GA3081+027001999GF108991999999999999999999MA1101291999999REMMET081METAR LSMD 080150Z AUTO VRB02KT 9999NDV SCT076 SCT087 OVC099 05/04 Q1013 RMK WHT;
0182066099999992011010802504+47400+008650AUTO +0448LSMD V0209999C00001024001CN0112651N1+00501+00401999999ADDGA1021+021001999GA2041+024001999GA3081+033001999GF108991999999999999999999MA1101291999999REMMET081METAR LSMD 080250Z AUTO 00000KT 9999NDV FEW073 SCT088 OVC110 05/04 Q1013 RMK WHT;
0159066099999992011010803504+47400+008650AUTO +0448LSMD V0209999C000010210019N0112651N1+00401+00301999999ADDGA1071+021001999GA2081+027001999GF108991999999999999999999MA1101291999999REMMET074METAR LSMD 080350Z AUTO 00000KT 9999NDV BKN076 OVC090 04/03 Q1013 RMK WHT;
0179066099999992011010804504+47400+008650AUTO +0448LSMD V0202901N002110210019N0080001N1+00501+00401999999ADDAW1811GA1021+018001999GA2081+021001999GF108991999999999999999999MA1101291999999REMMET088METAR LSMD 080450Z AUTO 29004KT 270V340 8000NDV -SHRA FEW065 OVC074 05/04 Q1013 RMK WHT;
0194066099999992011010805504+47400+008650AUTO +0448LSMD V0209999V000510126019N0050001N1+00501+00401999999ADDAW1811GA1041+003601999GA2071+012601999GA3081+015001999GF108991999999999999999999MA1101391999999REMMET087METAR LSMD 080550Z AUTO VRB01KT 5000NDV -SHRA SCT012 BKN042 OVC056 05/04 Q1014 RMK GRN;
0177066099999992011010806504+47400+008650AUTO +0448LSMD V0201501N001510150019N0070001N1+00501+00401999999ADDAW1611GA1021+005701999GA2081+015001999GF108991999999999999999999MA1101391999999REMMET086METAR LSMD 080650Z AUTO 15003KT 100V210 7000NDV -RA FEW019 OVC051 05/04 Q1014 RMK GRN;
0182066099999992011010807504+47400+008650AUTO +0448LSMD V0201201N002610150019N0112651N1+00601+00501999999ADDAW1611GA1071+015001999GA2081+030001999GF108991999999999999999999MA1101391999999REMMET091METAR LSMD 080750Z AUTO 12005KT 100V160 9999NDV -RA BKN056 OVC100 06/05 Q1014 RERA RMK WHT;
0159066099999992011010808504+47400+008650AUTO +0448LSMD V0209999V001010300019N0090001N1+00701+00601999999ADDGA1021+018001999GA2071+030001999GF107991999999999999999999MA1101391999999REMMET074METAR LSMD 080850Z AUTO VRB02KT 9000NDV FEW060 BKN100 07/06 Q1014 RMK WHT;
0136066099999992011010809504+47400+008650AUTO +0448LSMD V0201001N002112200019N0112651N1+00801+00601999999ADDGA1021+030001999GF102991999999999999999999MA1101391999999REMMET067METAR LSMD 080950Z AUTO 10004KT 9999NDV FEW100 08/06 Q1014 RMK BLU;
0167066099999992011010810504+47400+008650AUTO +0448LSMD V0201101N001510270019N0112651N1+01001+00701999999ADDGA1021+015001999GA2071+027001999GF107991999999999999999999MA1101391999999REMMET082METAR LSMD 081050Z AUTO 11003KT 070V140 9999NDV FEW058 BKN098 10/07 Q1014 RMK WHT;
0144066099999992011010811504+47400+008650AUTO +0448LSMD V0201701N001510270019N0112651N1+01301+00701999999ADDGA1071+027001999GF107991999999999999999999MA1101291999999REMMET075METAR LSMD 081150Z AUTO 17003KT 110V210 9999NDV BKN095 13/07 Q1013 RMK WHT;
0167066099999992011010812504+47400+008650AUTO +0448LSMD V0202901N003110390019N0112651N1+01301+00601999999ADDGA1021+027001999GA2071+039001999GF107991999999999999999999MA1101291999999REMMET082METAR LSMD 081250Z AUTO 29006KT 260V320 9999NDV FEW090 BKN130 13/06 Q1013 RMK WHT;
0136066099999992011010813504+47400+008650AUTO +0448LSMD V0202701N002112200019N0112651N1+01401+00601999999ADDGA1021+021001999GF102991999999999999999999MA1101291999999REMMET067METAR LSMD 081350Z AUTO 27004KT 9999NDV FEW075 14/06 Q1013 RMK BLU;
0136066099999992011010814504+47400+008650AUTO +0448LSMD V0202001N001012200019N0112651N1+01301+00601999999ADDGA1021+024001999GF102991999999999999999999MA1101291999999REMMET067METAR LSMD 081450Z AUTO 20002KT 9999NDV FEW085 13/06 Q1013 RMK BLU;
0159066099999992011010815504+47400+008650AUTO +0448LSMD V0201101N001010420019N0112651N1+01101+00701999999ADDGA1021+036001999GA2071+042001999GF107991999999999999999999MA1101291999999REMMET074METAR LSMD 081550Z AUTO 11002KT 9999NDV FEW120 BKN140 11/07 Q1013 RMK WHT;
0136066099999992011010816504+47400+008650AUTO +0448LSMD V0201201N001510360019N0112651N1+00901+00601999999ADDGA1081+036001999GF108991999999999999999999MA1101291999999REMMET067METAR LSMD 081650Z AUTO 12003KT 9999NDV OVC120 09/06 Q1013 RMK WHT;
0136066099999992011010817504+47400+008650AUTO +0448LSMD V0201101N002110390019N0112651N1+00801+00501999999ADDGA1071+039001999GF107991999999999999999999MA1101291999999REMMET067METAR LSMD 081750Z AUTO 11004KT 9999NDV BKN130 08/05 Q1013 RMK WHT;
0136066099999992011010818504+47400+008650AUTO +0448LSMD V0209999C000010390019N0112651N1+00501+00301999999ADDGA1071+039001999GF107991999999999999999999MA1101291999999REMMET067METAR LSMD 081850Z AUTO 00000KT 9999NDV BKN130 05/03 Q1013 RMK WHT;
0136066099999992011010819504+47400+008650AUTO +0448LSMD V0201101N002112200019N0112651N1+00601+00401999999ADDGA1021+042001999GF102991999999999999999999MA1101291999999REMMET067METAR LSMD 081950Z AUTO 11004KT 9999NDV FEW140 06/04 Q1013 RMK BLU;
0136066099999992011010820504+47400+008650AUTO +0448LSMD V0201201N001512200019N0112651N1+00701+00301999999ADDGA1041+036001999GF104991999999999999999999MA1101291999999REMMET067METAR LSMD 082050Z AUTO 12003KT 9999NDV SCT120 07/03 Q1013 RMK BLU;
0159066099999992011010821504+47400+008650AUTO +0448LSMD V0201201N001510360019N0112651N1+00501+00301999999ADDGA1071+036001999GA2081+042001999GF108991999999999999999999MA1101191999999REMMET074METAR LSMD 082150Z AUTO 12003KT 9999NDV BKN120 OVC140 05/03 Q1012 RMK WHT;
0159066099999992011010822504+47400+008650AUTO +0448LSMD V0209999V001010420019N0112651N1+00301+00101999999ADDGA1041+036001999GA2071+042001999GF107991999999999999999999MA1101191999999REMMET074METAR LSMD 082250Z AUTO VRB02KT 9999NDV SCT120 BKN140 03/01 Q1012 RMK WHT;
0136066099999992011010823504+47400+008650AUTO +0448LSMD V0209999C000010360019N0112651N1+00301+00201999999ADDGA1071+036001999GF107991999999999999999999MA1101191999999REMMET067METAR LSMD 082350Z AUTO 00000KT 9999NDV BKN120 03/02 Q1012 RMK WHT;
0139066099999992011010900504+47400+008650AUTO +0448LSMD V0209999C000012200019N0010001N1+00201+00101999999ADDED129U20009GF100991999999999999999999MA1101191999999REMMET075METAR LSMD 090050Z AUTO 00000KT 1000NDV R29/P2000N NCD 02/01 Q1012 RMK RED;
0144066099999992011010901504+47400+008650AUTO +0448LSMD V0201301N002112200019N0112651N1+00301+00101999999ADDGA1021+036001999GF102991999999999999999999MA1101191999999REMMET075METAR LSMD 090150Z AUTO 13004KT 100V200 9999NDV FEW120 03/01 Q1012 RMK BLU;
0144066099999992011010902504+47400+008650AUTO +0448LSMD V0201301N002112200019N0112651N1+00301+00101999999ADDGA1021+036001999GF102991999999999999999999MA1101191999999REMMET075METAR LSMD 090250Z AUTO 13004KT 100V190 9999NDV FEW120 03/01 Q1012 RMK BLU;
0136066099999992011010903504+47400+008650AUTO +0448LSMD V0201101N002112200019N0112651N1+00201+00001999999ADDGA1021+042001999GF102991999999999999999999MA1101191999999REMMET067METAR LSMD 090350Z AUTO 11004KT 9999NDV FEW140 02/00 Q1012 RMK BLU;
0136066099999992011010904504+47400+008650AUTO +0448LSMD V0201001N003110510019N0112651N1+00201+00001999999ADDGA1071+051001999GF107991999999999999999999MA1101191999999REMMET067METAR LSMD 090450Z AUTO 10006KT 9999NDV BKN170 02/00 Q1012 RMK WHT;
0136066099999992011010905504+47400+008650AUTO +0448LSMD V0201101N002612200019N0112651N1+00201+00001999999ADDGA1041+048001999GF104991999999999999999999MA1101191999999REMMET067METAR LSMD 090550Z AUTO 11005KT 9999NDV SCT160 02/00 Q1012 RMK BLU;
0136066099999992011010906504+47400+008650AUTO +0448LSMD V0209999V001010390019N0112651N1+00301+00101999999ADDGA1081+039001999GF108991999999999999999999MA1101191999999REMMET067METAR LSMD 090650Z AUTO VRB02KT 9999NDV OVC130 03/01 Q1012 RMK WHT;
0136066099999992011010907504+47400+008650AUTO +0448LSMD V0209999V000510390019N0112651N1+00301+00101999999ADDGA1081+039001999GF108991999999999999999999MA1101191999999REMMET067METAR LSMD 090750Z AUTO VRB01KT 9999NDV OVC130 03/01 Q1012 RMK WHT;
0136066099999992011010908504+47400+008650AUTO +0448LSMD V0201101N001510360019N0112651N1+00301+00201999999ADDGA1081+036001999GF108991999999999999999999MA1101291999999REMMET067METAR LSMD 090850Z AUTO 11003KT 9999NDV OVC120 03/02 Q1013 RMK WHT;
0136066099999992011010909504+47400+008650AUTO +0448LSMD V0209999C000012200019N0112651N1+00501+00301999999ADDGA1041+030001999GF104991999999999999999999MA1101391999999REMMET067METAR LSMD 090950Z AUTO 00000KT 9999NDV SCT100 05/03 Q1014 RMK BLU;
0136066099999992011010910504+47400+008650AUTO +0448LSMD V0209999C000010210019N0112651N1+00701+00301999999ADDGA1071+021001999GF107991999999999999999999MA1101291999999REMMET067METAR LSMD 091050Z AUTO 00000KT 9999NDV BKN071 07/03 Q1013 RMK WHT;
0159066099999992011010911504+47400+008650AUTO +0448LSMD V0209999V001010180019N0112651N1+01101+00401999999ADDGA1041+015001999GA2071+018001999GF107991999999999999999999MA1101291999999REMMET074METAR LSMD 091150Z AUTO VRB02KT 9999NDV SCT055 BKN065 11/04 Q1013 RMK WHT;
0167066099999992011010912504+47400+008650AUTO +0448LSMD V0203401N001510150019N0112651N1+01001+00501999999ADDGA1021+004801999GA2071+015001999GF107991999999999999999999MA1101291999999REMMET082METAR LSMD 091250Z AUTO 34003KT 260V050 9999NDV FEW016 BKN056 10/05 Q1013 RMK WHT;
0202066099999992011010913504+47400+008650AUTO +0448LSMD V0200101N003110069019N0112651N1+00901+00501999999ADDAW1811GA1021+003001999GA2071+006901999GA3081+015001999GF108991999999999999999999MA1101391999999REMMET095METAR LSMD 091350Z AUTO 01006KT 340V050 9999NDV -SHRA FEW010 BKN023 OVC056 09/05 Q1014 RMK WHT;
0182066099999992011010914504+47400+008650AUTO +0448LSMD V0203401N00211006001CN0112651N1+00801+00501999999ADDGA1021+004801999GA2041+006001999GA3071+024001999GF107991999999999999999999MA1101391999999REMMET081METAR LSMD 091450Z AUTO 34004KT 9999NDV FEW016 SCT020 BKN082 08/05 Q1014 RMK WHT;
0182066099999992011010915504+47400+008650AUTO +0448LSMD V0209999V00051006601CN0112651N1+00901+00501999999ADDGA1021+005401999GA2041+006601999GA3081+013801999GF108991999999999999999999MA1101391999999REMMET081METAR LSMD 091550Z AUTO VRB01KT 9999NDV FEW018 SCT022 OVC046 09/05 Q1014 RMK WHT;
0202066099999992011010916504+47400+008650AUTO +0448LSMD V0203101N00151013501CN0112651N1+00801+00501999999ADDAW1811GA1021+006601999GA2041+013501999GA3081+015001999GF108991999999999999999999MA1101491999999REMMET095METAR LSMD 091650Z AUTO 31003KT 260V020 9999NDV -SHRA FEW022 SCT045 OVC051 08/05 Q1015 RMK WHT;
0182066099999992011010917504+47400+008650AUTO +0448LSMD V0203201N002110150019N0112651N1+00801+00501999999ADDAW1611GA1021+006301999GA2081+015001999GF108991999999999999999999MA1101491999999REMMET091METAR LSMD 091750Z AUTO 32004KT 280V040 9999NDV -RA FEW021 OVC050 08/05 Q1015 RERA RMK WHT;
0192066099999992011010918504+47400+008650AUTO +0448LSMD V0203401N00211005701CN0112651N1+00801+00601999999ADDAW1611GA1021+003001999GA2041+005701999GA3081+015001999GF108991999999999999999999MA1101591999999REMMET085METAR LSMD 091850Z AUTO 34004KT 9999NDV -RA FEW010 SCT019 OVC052 08/06 Q1016 RMK WHT;
0199066099999992011010919504+47400+008650AUTO +0448LSMD V0203301N002110120019N0112651N1+00801+00601999999ADDAW1621GA1021+004801999GA2071+012001999GA3081+015001999GF108991999999999999999999MA1101591999999REMMET092METAR LSMD 091950Z AUTO 33004KT 290V360 9999NDV RA FEW016 BKN040 OVC050 08/06 Q1016 RMK WHT;
0168066099999992011010920504+47400+008650AUTO +0448LSMD V0209999V001010123019N0112651N1+00701+00501999999ADDAW1621GA1021+005701999GA2081+012301999GF108991999999999999999999MA1101691999999REMMET077METAR LSMD 092050Z AUTO VRB02KT 9999NDV RA FEW019 OVC041 07/05 Q1017 RMK WHT;
0145066099999992011010921504+47400+008650AUTO +0448LSMD V0209999V000510132019N0112651N1+00701+00501999999ADDAW1621GA1081+013201999GF108991999999999999999999MA1101691999999REMMET070METAR LSMD 092150Z AUTO VRB01KT 9999NDV RA OVC044 07/05 Q1017 RMK WHT;
0191066099999992011010922504+47400+008650AUTO +0448LSMD V0209999V00101008101CN0112651N1+00601+00401999999ADDAW1621GA1041+006001999GA2041+008101999GA3081+010201999GF108991999999999999999999MA1101801999999REMMET084METAR LSMD 092250Z AUTO VRB02KT 9999NDV RA SCT020 SCT027 OVC034 06/04 Q1018 RMK WHT;
0199066099999992011010923504+47400+008650AUTO +0448LSMD V0202701N00211006901CN0090001N1+00601+00401999999ADDAW1621GA1021+005701999GA2041+006901999GA3081+009601999GF108991999999999999999999MA1101801999999REMMET092METAR LSMD 092350Z AUTO 27004KT 250V320 9000NDV RA FEW019 SCT023 OVC032 06/04 Q1018 RMK WHT;
0168066099999992011011000504+47400+008650AUTO +0448LSMD V0209999C000010069019N0112651N1+00501+00301999999ADDAW1621GA1021+005401999GA2081+006901999GF108991999999999999999999MA1101901999999REMMET077METAR LSMD 100050Z AUTO 00000KT 9999NDV RA FEW018 OVC023 05/03 Q1019 RMK WHT;
0191066099999992011011001504+47400+008650AUTO +0448LSMD V0209999V000510066019N0112651N1+00501+00301999999ADDAW1621GA1021+004501999GA2071+006601999GA3081+008101999GF108991999999999999999999MA1101901999999REMMET084METAR LSMD 100150Z AUTO VRB01KT 9999NDV RA FEW015 BKN022 OVC027 05/03 Q1019 RMK WHT;
0192066099999992011011002504+47400+008650AUTO +0448LSMD V0201201N001510060019N0112651N1+00401+00301999999ADDAW1611GA1021+004501999GA2071+006001999GA3081+008101999GF108991999999999999999999MA1101901999999REMMET085METAR LSMD 100250Z AUTO 12003KT 9999NDV -RA FEW015 BKN020 OVC027 04/03 Q1019 RMK WHT;
0192066099999992011011003504+47400+008650AUTO +0448LSMD V0201201N001010042019N0090001N1+00401+00301999999ADDAW1611GA1041+003601999GA2071+004201999GA3081+006301999GF108991999999999999999999MA1101901999999REMMET085METAR LSMD 100350Z AUTO 12002KT 9000NDV -RA SCT012 BKN014 OVC021 04/03 Q1019 RMK GRN;
0192066099999992011011004504+47400+008650AUTO +0448LSMD V0209999V001010018019N0112651N1+00401+00301999999ADDAW1611GA1041+001201999GA2071+001801999GA3081+003001999GF108991999999999999999999MA1102001999999REMMET085METAR LSMD 100450Z AUTO VRB02KT 9999NDV -RA SCT004 BKN006 OVC010 04/03 Q1020 RMK YLO;
0169066099999992011011005504+47400+008650FM-15+0448LSMD V0200401N002610036019N0112651N1+00401+00201999999ADDGA1041+003001999GA2081+003601999GF108991999999999999999999MA1102001999999MW1611REMMET078METAR LSMD 100550Z 04005KT 350V100 9999 -RA SCT010 OVC012 04/02 Q1020 RMK GRN;
0169066099999992011011006504+47400+008650FM-15+0448LSMD V0200501N002610036019N0112651N1+00301+00201999999ADDGA1021+001801999GA2081+003601999GF108991999999999999999999MA1102001999999MW1611REMMET078METAR LSMD 100650Z 05005KT 350V100 9999 -RA FEW006 OVC012 03/02 Q1020 RMK GRN;
0159066099999992011011007504+47400+008650FM-15+0448LSMD V0202801N001510042019N0112651N1+00301+00201999999ADDGA1041+001801999GA2081+004201999GF108991999999999999999999MA1102001999999REMMET074METAR LSMD 100750Z 28003KT 240V020 9999 SCT006 OVC014 03/02 Q1020 RMK GRN;
0159066099999992011011008504+47400+008650FM-15+0448LSMD V0203001N001510045019N0112651N1+00301+00201999999ADDGA1041+001501999GA2081+004501999GF108991999999999999999999MA1102101999999REMMET074METAR LSMD 100850Z 30003KT 270V360 9999 SCT005 OVC015 03/02 Q1021 RMK YLO;
0159066099999992011011009504+47400+008650FM-15+0448LSMD V0202801N001510030019N0070001N1+00301+00201999999ADDGA1041+001501999GA2081+003001999GF108991999999999999999999MA1102101999999REMMET074METAR LSMD 100950Z 28003KT 210V330 7000 SCT005 OVC010 03/02 Q1021 RMK GRN;
0151066099999992011011010504+47400+008650FM-15+0448LSMD V0209999V001010021019N0070001N1+00301+00201999999ADDGA1041+001501999GA2081+002101999GF108991999999999999999999MA1102101999999REMMET066METAR LSMD 101050Z VRB02KT 7000 SCT005 OVC007 03/02 Q1021 RMK YLO;
0182066099999992011011011504+47400+008650AUTO +0448LSMD V0209999V001010027019N0112651N1+00401+00201999999ADDGA1071+002701999GA2071+004501999GA3071+024001999GF107991999999999999999999MA1102001999999REMMET081METAR LSMD 101150Z AUTO VRB02KT 9999NDV BKN009 BKN015 BKN088 04/02 Q1020 RMK YLO;
0171066099999992011011012504+47400+008650FM-15+0448LSMD V0200301N001510030019N0112651N1+00401+00201999999ADDGA1071+003001999GA2081+004201999GF108991999999999999999999MA1102001999999MW1801REMMET080METAR LSMD 101250Z 03003KT 330V100 9999 -SHRA BKN010 OVC014 04/02 Q1020 RMK GRN;
0159066099999992011011013504+47400+008650FM-15+0448LSMD V0200501N002110045019N0112651N1+00401+00201999999ADDGA1041+003001999GA2081+004501999GF108991999999999999999999MA1101901999999REMMET074METAR LSMD 101350Z 05004KT 340V100 9999 SCT010 OVC015 04/02 Q1019 RMK GRN;
0159066099999992011011014504+47400+008650FM-15+0448LSMD V0200701N001510036019N0112651N1+00401+00201999999ADDGA1041+003001999GA2081+003601999GF108991999999999999999999MA1101901999999REMMET074METAR LSMD 101450Z 07003KT 020V110 9999 SCT010 OVC012 04/02 Q1019 RMK GRN;
0182066099999992011011015504+47400+008650FM-15+0448LSMD V0200301N00151003901CN0112651N1+00301+00101999999ADDGA1021+003001999GA2041+003901999GA3081+005401999GF108991999999999999999999MA1101801999999REMMET081METAR LSMD 101550Z 03003KT 320V100 9999 FEW010 SCT013 OVC018 03/01 Q1018 RMK GRN;
0159066099999992011011017504+47400+008650FM-15+0448LSMD V0200301N002110042019N0112651N1+00301+00201999999ADDGA1041+003001999GA2081+004201999GF108991999999999999999999MA1101801999999REMMET074METAR LSMD 101750Z 03004KT 340V080 9999 SCT010 OVC014 03/02 Q1018 RMK GRN;
0159066099999992011011018504+47400+008650AUTO +0448LSMD V0209999V001010039019N0090001N1+00301+00101999999ADDGA1021+002101999GA2081+003901999GF108991999999999999999999MA1101801999999REMMET074METAR LSMD 101850Z AUTO VRB02KT 9000NDV FEW007 OVC013 03/01 Q1018 RMK GRN;
0159066099999992011011019504+47400+008650AUTO +0448LSMD V0209999V001010021019N0070001N1+00301+00101999999ADDGA1071+002101999GA2081+003901999GF108991999999999999999999MA1101691999999REMMET074METAR LSMD 101950Z AUTO VRB02KT 7000NDV BKN007 OVC013 03/01 Q1017 RMK YLO;
0191066099999992011011020504+47400+008650AUTO +0448LSMD V0209999V000510030019N0050001N1+00301+00101999999ADDAW1101GA1041+002101999GA2071+003001999GA3081+003601999GF108991999999999999999999MA1101691999999REMMET084METAR LSMD 102050Z AUTO VRB01KT 5000NDV BR SCT007 BKN010 OVC012 03/01 Q1017 RMK GRN;
0191066099999992011011021504+47400+008650AUTO +0448LSMD V0209999V000510021019N0049001N1+00301+00101999999ADDAW1101GA1021+001501999GA2071+002101999GA3081+004201999GF108991999999999999999999MA1101691999999REMMET084METAR LSMD 102150Z AUTO VRB01KT 4900NDV BR FEW005 BKN007 OVC014 03/01 Q1017 RMK YLO;
0191066099999992011011022504+47400+008650AUTO +0448LSMD V0209999V00101002701CN0042001N1+00301+00201999999ADDAW1101GA1021+001501999GA2041+002701999GA3081+004501999GF108991999999999999999999MA1101691999999REMMET084METAR LSMD 102250Z AUTO VRB02KT 4200NDV BR FEW005 SCT009 OVC015 03/02 Q1017 RMK GRN;
0191066099999992011011023504+47400+008650AUTO +0448LSMD V0209999C000010036019N0039001N1+00301+00201999999ADDAW1101GA1041+001201999GA2071+003601999GA3081+004201999GF108991999999999999999999MA1101591999999REMMET084METAR LSMD 102350Z AUTO 00000KT 3900NDV BR SCT004 BKN012 OVC014 03/02 Q1016 RMK GRN;
0191066099999992011011100504+47400+008650AUTO +0448LSMD V0200901N001010030019N0039001N1+00201+00101999999ADDAW1101GA1021+001801999GA2071+003001999GA3081+004801999GF108991999999999999999999MA1101591999999REMMET084METAR LSMD 110050Z AUTO 09002KT 3900NDV BR FEW006 BKN010 OVC016 02/01 Q1016 RMK GRN;
0145066099999992011011101504+47400+008650AUTO +0448LSMD V0209999V000510048019N0042001N1+00301+00201999999ADDAW1101GA1081+004801999GF108991999999999999999999MA1101491999999REMMET070METAR LSMD 110150Z AUTO VRB01KT 4200NDV BR OVC016 03/02 Q1015 RMK GRN;
0136066099999992011011102504+47400+008650AUTO +0448LSMD V0201301N001510066019N0050001N1+00301+00201999999ADDGA1081+006601999GF108991999999999999999999MA1101491999999REMMET067METAR LSMD 110250Z AUTO 13003KT 5000NDV OVC022 03/02 Q1015 RMK GRN;
0136066099999992011011103504+47400+008650AUTO +0448LSMD V0209999V001010057019N0070001N1+00301+00101999999ADDGA1081+005701999GF108991999999999999999999MA1101391999999REMMET067METAR LSMD 110350Z AUTO VRB02KT 7000NDV OVC019 03/01 Q1014 RMK GRN;
0144066099999992011011104504+47400+008650AUTO +0448LSMD V0201401N002610057019N0070001N1+00301+00101999999ADDGA1081+005701999GF108991999999999999999999MA1101391999999REMMET075METAR LSMD 110450Z AUTO 14005KT 100V210 7000NDV OVC019 03/01 Q1014 RMK GRN;
0136066099999992011011105504+47400+008650FM-15+0448LSMD V0201601N002110063019N0090001N1+00301+00101999999ADDGA1081+006301999GF108991999999999999999999MA1101291999999REMMET067METAR LSMD 110550Z 16004KT 110V220 9000 OVC021 03/01 Q1013 RMK WHT;
0136066099999992011011106504+47400+008650FM-15+0448LSMD V0201501N002610063019N0112651N1+00301+00101999999ADDGA1081+006301999GF108991999999999999999999MA1101291999999REMMET067METAR LSMD 110650Z 15005KT 100V200 9999 OVC021 03/01 Q1013 RMK WHT;
0136066099999992011011107504+47400+008650FM-15+0448LSMD V0201501N002110066019N0112651N1+00301+00101999999ADDGA1081+006601999GF108991999999999999999999MA1101191999999REMMET067METAR LSMD 110750Z 15004KT 110V190 9999 OVC022 03/01 Q1012 RMK WHT;
0136066099999992011011108504+47400+008650FM-15+0448LSMD V0201601N002110060019N0112651N1+00301+00101999999ADDGA1071+006001999GF107991999999999999999999MA1101191999999REMMET067METAR LSMD 110850Z 16004KT 110V240 9999 BKN020 03/01 Q1012 RMK WHT;
0136066099999992011011109504+47400+008650FM-15+0448LSMD V0201501N001510057019N0112651N1+00401+00201999999ADDGA1081+005701999GF108991999999999999999999MA1101191999999REMMET067METAR LSMD 110950Z 15003KT 100V210 9999 OVC019 04/02 Q1012 RMK GRN;
0128066099999992011011111504+47400+008650FM-15+0448LSMD V0209999V001510051019N0112651N1+00501+00101999999ADDGA1081+005101999GF108991999999999999999999MA1101021999999REMMET059METAR LSMD 111150Z VRB03KT 9999 OVC017 05/01 Q1010 RMK GRN;
0128066099999992011011112504+47400+008650FM-15+0448LSMD V0209999V001012200019N0112651N1+00501+00101999999ADDGA1021+005101999GF102991999999999999999999MA1100911999999REMMET059METAR LSMD 111250Z VRB02KT 9999 FEW017 05/01 Q1009 RMK BLU;
0136066099999992011011113504+47400+008650FM-15+0448LSMD V0201601N002112200019N0112651N1+00501+00101999999ADDGA1021+033001999GF102991999999999999999999MA1101021999999REMMET067METAR LSMD 111350Z 16004KT 110V210 9999 FEW110 05/01 Q1010 RMK BLU;
0138066099999992011011114504+47400+008650FM-15+0448LSMD V0209999V001510054019N0112651N1+00501+00101999999ADDGA1081+005401999GF108991999999999999999999MA1101021999999MW1611REMMET063METAR LSMD 111450Z VRB03KT 9999 -RA OVC018 05/01 Q1010 RMK GRN;
0197066099999992011011115504+47400+008650AUTO +0448LSMD V0209999C00001007201CN0060001N1+00501+00201999999ADDAW1611GA1021+005101999GA2041+007201999GA3081+008101999GF108991999999999999999999MA1101081999999REMMET090METAR LSMD 111550Z AUTO 00000KT 6000NDV -RA FEW017 SCT024 OVC027 05/02 Q1011 RERA RMK GRN;
0200066099999992011011116504+47400+008650AUTO +0448LSMD V0202601N002110081019N0090001N1+00401+00201999999ADDAW1611GA1041+003601999GA2071+008101999GA3081+011101999GF108991999999999999999999MA1101191999999REMMET093METAR LSMD 111650Z AUTO 26004KT 220V300 9000NDV -RA SCT012 BKN027 OVC037 04/02 Q1012 RMK WHT;
0192066099999992011011117504+47400+008650AUTO +0448LSMD V0209999V001010078019N0090001N1+00401+00201999999ADDAW1611GA1021+003301999GA2071+007801999GA3081+009301999GF108991999999999999999999MA1101291999999REMMET085METAR LSMD 111750Z AUTO VRB02KT 9000NDV -RA FEW011 BKN026 OVC031 04/02 Q1013 RMK WHT;
0202066099999992011011118504+47400+008650AUTO +0448LSMD V0201201N002110045019N0112651N1+00301+00201999999ADDAW1811GA1041+002701999GA2071+004501999GA3081+007501999GF108991999999999999999999MA1101391999999REMMET095METAR LSMD 111850Z AUTO 12004KT 090V150 9999NDV -SHRA SCT009 BKN015 OVC025 03/02 Q1014 RMK GRN;
0200066099999992011011119504+47400+008650AUTO +0448LSMD V0201301N00151004501CN0060001N1+00401+00201999999ADDAW1611GA1021+002401999GA2041+004501999GA3081+005101999GF108991999999999999999999MA1101491999999REMMET093METAR LSMD 111950Z AUTO 13003KT 100V160 6000NDV -RA FEW008 SCT015 OVC017 04/02 Q1015 RMK GRN;
0182066099999992011011120504+47400+008650AUTO +0448LSMD V0209999V00101008101CN0112651N1+00401+00201999999ADDGA1021+003601999GA2041+008101999GA3081+009601999GF108991999999999999999999MA1101491999999REMMET081METAR LSMD 112050Z AUTO VRB02KT 9999NDV FEW012 SCT027 OVC032 04/02 Q1015 RMK WHT;
0169066099999992011011121504+47400+008650AUTO +0448LSMD V0209999V001010078019N0080001N1+00401+00201999999ADDAW1611GA1041+005101999GA2081+007801999GF108991999999999999999999MA1101591999999REMMET078METAR LSMD 112150Z AUTO VRB02KT 8000NDV -RA SCT017 OVC026 04/02 Q1016 RMK WHT;
0194066099999992011011122504+47400+008650AUTO +0448LSMD V0201201N00101004801CN0070001N1+00401+00301999999ADDAW1811GA1021+003601999GA2041+004801999GA3081+008701999GF108991999999999999999999MA1101691999999REMMET087METAR LSMD 112250Z AUTO 12002KT 7000NDV -SHRA FEW012 SCT016 OVC029 04/03 Q1017 RMK GRN;
0182066099999992011011123504+47400+008650AUTO +0448LSMD V0209999V000510090019N0112651N1+00501+00301999999ADDGA1021+005101999GA2071+009001999GA3081+011401999GF108991999999999999999999MA1101691999999REMMET081METAR LSMD 112350Z AUTO VRB01KT 9999NDV FEW017 BKN030 OVC038 05/03 Q1017 RMK WHT;
0182066099999992011011200504+47400+008650AUTO +0448LSMD V0209999V00101006001CN0070001N1+00401+00301999999ADDGA1021+004501999GA2041+006001999GA3081+012901999GF108991999999999999999999MA1101691999999REMMET081METAR LSMD 120050Z AUTO VRB02KT 7000NDV FEW015 SCT020 OVC043 04/03 Q1017 RMK GRN;
0192066099999992011011201504+47400+008650AUTO +0448LSMD V0209999C00001008101CN0112651N1+00501+00301999999ADDAW1611GA1041+006001999GA2041+008101999GA3081+009901999GF108991999999999999999999MA1101801999999REMMET085METAR LSMD 120150Z AUTO 00000KT 9999NDV -RA SCT020 SCT027 OVC033 05/03 Q1018 RMK WHT;
0202066099999992011011202504+47400+008650AUTO +0448LSMD V0202601N00311009601CN0112651N1+00501+00301999999ADDAW1811GA1021+005401999GA2041+009601999GA3081+010801999GF108991999999999999999999MA1101901999999REMMET095METAR LSMD 120250Z AUTO 26006KT 190V290 9999NDV -SHRA FEW018 SCT032 OVC036 05/03 Q1019 RMK WHT;
0159066099999992011011203504+47400+008650AUTO +0448LSMD V0209999V001510096019N0112651N1+00601+00301999999ADDGA1021+005701999GA2081+009601999GF108991999999999999999999MA1101901999999REMMET074METAR LSMD 120350Z AUTO VRB03KT 9999NDV FEW019 OVC032 06/03 Q1019 RMK WHT;
0177066099999992011011204504+47400+008650AUTO +0448LSMD V0202701N004110048019N0112651N1+00601+00301999999ADDAW1511GA1071+004801999GA2081+010201999GF108991999999999999999999MA1102001999999REMMET086METAR LSMD 120450Z AUTO 27008KT 230V300 9999NDV -DZ BKN016 OVC034 06/03 Q1020 RMK GRN;
0186066099999992011011205514+47400+008650FM-15+0448LSMD V0202801N003610051019N0112651N1+00501+00301999999ADDGA1021+004201999GA2071+005101999GA3081+007801999GF108991999999999999999999MA1102101999999MW1801REMMET079METAR LSMD 120551Z 28007KT 9999 -SHRA FEW014 BKN017 OVC026 05/03 Q1021 RMK GRN;
0182066099999992011011206504+47400+008650FM-15+0448LSMD V0202701N001510039019N0112651N1+00501+00301999999ADDGA1071+003901999GA2071+005101999GA3081+006601999GF108991999999999999999999MA1102201999999REMMET081METAR LSMD 120650Z 27003KT 240V300 9999 BKN013 BKN017 OVC022 05/03 Q1022 RMK GRN;
0151066099999992011011207504+47400+008650FM-15+0448LSMD V0202801N003110060019N0112651N1+00501+00201999999ADDGA1071+006001999GA2081+007501999GF108991999999999999999999MA1102201999999REMMET066METAR LSMD 120750Z 28006KT 9999 BKN020 OVC025 05/02 Q1022 RMK WHT;
0151066099999992011011208504+47400+008650FM-15+0448LSMD V0202901N003110045019N0112651N1+00501+00301999999ADDGA1021+003901999GA2081+004501999GF108991999999999999999999MA1102201999999REMMET066METAR LSMD 120850Z 29006KT 9999 FEW013 OVC015 05/03 Q1022 RMK GRN;
0159066099999992011011209504+47400+008650FM-15+0448LSMD V0202501N001510063019N0112651N1+00501+00301999999ADDGA1071+006301999GA2071+008101999GF107991999999999999999999MA1102301999999REMMET074METAR LSMD 120950Z 25003KT 190V330 9999 BKN021 BKN027 05/03 Q1023 RMK WHT;
0151066099999992011011212504+47400+008650FM-15+0448LSMD V0209999V001010150019N0112651N1+00601+00301999999ADDGA1021+005701999GA2071+015001999GF107991999999999999999999MA1102101999999REMMET066METAR LSMD 121250Z VRB02KT 9999 FEW019 BKN054 06/03 Q1021 RMK WHT;
0182066099999992011011213504+47400+008650FM-15+0448LSMD V0202501N002110150019N0112651N1+00701+00201999999ADDGA1021+008701999GA2071+015001999GA3081+018001999GF108991999999999999999999MA1102201999999REMMET081METAR LSMD 121350Z 25004KT 220V290 9999 FEW029 BKN053 OVC067 07/02 Q1022 RMK WHT;
0169066099999992011011214504+47400+008650FM-15+0448LSMD V0202601N002610069019N0112651N1+00601+00301999999ADDGA1071+006901999GA2081+008101999GF108991999999999999999999MA1102201999999MW1611REMMET078METAR LSMD 121450Z 26005KT 190V330 9999 -RA BKN023 OVC027 06/03 Q1022 RMK WHT;
0192066099999992011011215504+47400+008650FM-15+0448LSMD V0202501N002610126019N0112651N1+00601+00201999999ADDGA1041+007501999GA2071+012601999GA3081+014701999GF108991999999999999999999MA1102201999999MW1611REMMET085METAR LSMD 121550Z 25005KT 210V280 9999 -RA SCT025 BKN042 OVC049 06/02 Q1022 RMK WHT;
0169066099999992011011216504+47400+008650AUTO +0448LSMD V0209999V001010138019N0112651N1+00601+00301999999ADDAW1611GA1021+005701999GA2081+013801999GF108991999999999999999999MA1102101999999REMMET078METAR LSMD 121650Z AUTO VRB02KT 9999NDV -RA FEW019 OVC046 06/03 Q1021 RMK WHT;
0177066099999992011011217504+47400+008650AUTO +0448LSMD V0201501N001510123019N0112651N1+00601+00301999999ADDAW1611GA1021+009301999GA2081+012301999GF108991999999999999999999MA1102201999999REMMET086METAR LSMD 121750Z AUTO 15003KT 110V230 9999NDV -RA FEW031 OVC041 06/03 Q1022 RMK WHT;
0159066099999992011011218504+47400+008650AUTO +0448LSMD V0209999V001010123019N0112651N1+00501+00301999999ADDGA1021+006301999GA2081+012301999GF108991999999999999999999MA1102201999999REMMET074METAR LSMD 121850Z AUTO VRB02KT 9999NDV FEW021 OVC041 05/03 Q1022 RMK WHT;
0154066099999992011011219504+47400+008650AUTO +0448LSMD V0201601N001510117019N0112651N1+00601+00301999999ADDAW1611GA1081+011701999GF108991999999999999999999MA1102101999999REMMET079METAR LSMD 121950Z AUTO 16003KT 110V220 9999NDV -RA OVC039 06/03 Q1021 RMK WHT;
0148066099999992011011220504+47400+008650AUTO +0448LSMD V0209999V000510114019N0112651N1+00601+00301999999ADDAW1811GA1081+011401999GF108991999999999999999999MA1102201999999REMMET073METAR LSMD 122050Z AUTO VRB01KT 9999NDV -SHRA OVC038 06/03 Q1022 RMK WHT;
0191066099999992011011221504+47400+008650AUTO +0448LSMD V0209999V001010084019N0060001N1+00501+00401999999ADDAW1621GA1041+005401999GA2071+008401999GA3081+009901999GF108991999999999999999999MA1102101999999REMMET084METAR LSMD 122150Z AUTO VRB02KT 6000NDV RA SCT018 BKN028 OVC033 05/04 Q1021 RMK GRN;
0205066099999992011011222504+47400+008650AUTO +0448LSMD V0201301N001510036019N0060001N1+00501+00401999999ADDAW1611GA1041+002701999GA2071+003601999GA3081+004801999GF108991999999999999999999MA1102101999999REMMET098METAR LSMD 122250Z AUTO 13003KT 100V160 6000NDV -RA SCT009 BKN012 OVC016 05/04 Q1021 RERA RMK GRN;
0208066099999992011011223504+47400+008650AUTO +0448LSMD V0201301N001510045019N0050001N1+00501+00401999999ADDAW1101AW2621GA1021+002701999GA2071+004501999GA3081+005401999GF108991999999999999999999MA1102101999999REMMET095METAR LSMD 122350Z AUTO 13003KT 090V160 5000NDV RA BR FEW009 BKN015 OVC018 05/04 Q1021 RMK GRN;
0174066099999992011011300504+47400+008650AUTO +0448LSMD V0201301N003110042019N0112651N1+00601+00501999999ADDAW1611GA1041+003601999GA2081+004201999GF108991999999999999999999MA1102101999999REMMET083METAR LSMD 130050Z AUTO 13006KT 9999NDV -RA SCT012 OVC014 06/05 Q1021 RERA RMK GRN;
0192066099999992011011301504+47400+008650AUTO +0448LSMD V0209999V001010048019N0112651N1+00601+00501999999ADDAW1611GA1021+003601999GA2071+004801999GA3081+005401999GF108991999999999999999999MA1102001999999REMMET085METAR LSMD 130150Z AUTO VRB02KT 9999NDV -RA FEW012 BKN016 OVC018 06/05 Q1020 RMK GRN;
0192066099999992011011302504+47400+008650AUTO +0448LSMD V0209999V001010066019N0090001N1+00601+00501999999ADDAW1611GA1021+005101999GA2071+006601999GA3081+009601999GF108991999999999999999999MA1102001999999REMMET085METAR LSMD 130250Z AUTO VRB02KT 9000NDV -RA FEW017 BKN022 OVC032 06/05 Q1020 RMK WHT;
0200066099999992011011303504+47400+008650AUTO +0448LSMD V0201001N00151006001CN0050001N1+00601+00501999999ADDAW1611GA1021+005101999GA2041+006001999GA3081+006901999GF108991999999999999999999MA1102001999999REMMET093METAR LSMD 130350Z AUTO 10003KT 070V150 5000NDV -RA FEW017 SCT020 OVC023 06/05 Q1020 RMK GRN;
0191066099999992011011304504+47400+008650AUTO +0448LSMD V0209999V00051005701CN0060001N1+00701+00601999999ADDAW1621GA1021+004501999GA2041+005701999GA3081+006901999GF108991999999999999999999MA1102001999999REMMET084METAR LSMD 130450Z AUTO VRB01KT 6000NDV RA FEW015 SCT019 OVC023 07/06 Q1020 RMK GRN;
0192066099999992011011305504+47400+008650FM-15+0448LSMD V0202301N00211006301CN0090001N1+00901+00701999999ADDGA1021+005101999GA2041+006301999GA3071+010201999GF107991999999999999999999MA1102001999999MW1611REMMET085METAR LSMD 130550Z 23004KT 190V290 9000 -RA FEW017 SCT021 BKN034 09/07 Q1020 RMK WHT;
0151066099999992011011306504+47400+008650FM-15+0448LSMD V0209999V001010090019N0112651N1+00901+00701999999ADDGA1041+006301999GA2071+009001999GF107991999999999999999999MA1102001999999REMMET066METAR LSMD 130650Z VRB02KT 9999 SCT021 BKN030 09/07 Q1020 RMK WHT;
0184066099999992011011307504+47400+008650FM-15+0448LSMD V0209999V002610111019N0112651N1+01001+00701999999ADDGA1021+007501999GA2071+011101999GA3081+015001999GF108991999999999999999999MA1102001999999MW1611REMMET077METAR LSMD 130750Z VRB05KT 9999 -RA FEW025 BKN037 OVC053 10/07 Q1020 RMK WHT;
0191066099999992011011308504+47400+008650FM-15+0448LSMD V0202401N003610123019N0050001N1+01001+00701999999ADDGA1021+007501999GA2071+012301999GA3081+014101999GF108991999999999999999999MA1102001999999MW1631REMMET084METAR LSMD 130850Z 24007KT 200V280 5000 RA FEW025 BKN041 OVC047 10/07 Q1020 RMK WHT;
0169066099999992011011309504+47400+008650FM-15+0448LSMD V0202901N002110123019N0112651N1+01001+00701999999ADDGA1021+006901999GA2081+012301999GF108991999999999999999999MA1102101999999MW1611REMMET078METAR LSMD 130950Z 29004KT 240V330 9999 -RA FEW023 OVC041 10/07 Q1021 RMK WHT;
0161066099999992011011310504+47400+008650FM-15+0448LSMD V0209999V000510135019N0112651N1+01001+00801999999ADDGA1021+009901999GA2081+013501999GF108991999999999999999999MA1102101999999MW1611REMMET070METAR LSMD 131050Z VRB01KT 9999 -RA FEW033 OVC045 10/08 Q1021 RMK WHT;
0136066099999992011011311504+47400+008650AUTO +0448LSMD V0209999C000010141019N0112651N1+01001+00801999999ADDGA1081+014101999GF108991999999999999999999MA1102001999999REMMET067METAR LSMD 131150Z AUTO 00000KT 9999NDV OVC047 10/08 Q1020 RMK WHT;
0174066099999992011011312504+47400+008650FM-15+0448LSMD V0209999V00101012901CN0112651N1+01101+00801999999ADDGA1021+008701999GA2041+012901999GA3071+036001999GF107991999999999999999999MA1102001999999REMMET073METAR LSMD 131250Z VRB02KT 9999 FEW029 SCT043 BKN120 11/08 Q1020 RMK WHT;
0159066099999992011011313504+47400+008650FM-15+0448LSMD V0202701N003610360019N0112651N1+01201+00701999999ADDGA1021+009601999GA2071+036001999GF107991999999999999999999MA1102001999999REMMET074METAR LSMD 131350Z 27007KT 230V300 9999 FEW032 BKN120 12/07 Q1020 RMK WHT;
0159066099999992011011314504+47400+008650FM-15+0448LSMD V0202701N004610390019N0112651N1+01201+00701999999ADDGA1041+011701999GA2071+039001999GF107991999999999999999999MA1102001999999REMMET074METAR LSMD 131450Z 27009KT 240V300 9999 SCT039 BKN130 12/07 Q1020 RMK WHT;
0190066099999992011011316504+47400+008650AUTO +0448LSMD V0202901N004110240019N0112651N1+01201+00701999999ADDGA1021+013201999GA2071+024001999GA3081+045001999GF108991999999999999999999MA1102001999999REMMET089METAR LSMD 131650Z AUTO 29008KT 260V320 9999NDV FEW044 BKN082 OVC150 12/07 Q1020 RMK WHT;
0190066099999992011011317504+47400+008650AUTO +0448LSMD V0202801N00571012901CN0112651N1+01201+00701999999ADDGA1021+010801999GA2041+012901999GA3081+033001999GF108991999999999999999999MA1102001999999REMMET089METAR LSMD 131750Z AUTO 28011KT 240V320 9999NDV FEW036 SCT043 OVC110 12/07 Q1020 RMK WHT;
0190066099999992011011318504+47400+008650AUTO +0448LSMD V0202801N003110180019N0112651N1+01101+00801999999ADDGA1041+012601999GA2071+018001999GA3081+021001999GF108991999999999999999999MA1102001999999REMMET089METAR LSMD 131850Z AUTO 28006KT 240V330 9999NDV SCT042 BKN063 OVC076 11/08 Q1020 RMK WHT;
0144066099999992011011319504+47400+008650AUTO +0448LSMD V0202701N003110096019N0112651N1+01101+00701999999ADDGA1081+009601999GF108991999999999999999999MA1102101999999REMMET075METAR LSMD 131950Z AUTO 27006KT 230V300 9999NDV OVC032 11/07 Q1021 RMK WHT;
0167066099999992011011320504+47400+008650AUTO +0448LSMD V0202901N003110087019N0112651N1+01101+00701999999ADDGA1071+008701999GA2081+010201999GF108991999999999999999999MA1102101999999REMMET082METAR LSMD 132050Z AUTO 29006KT 250V310 9999NDV BKN029 OVC034 11/07 Q1021 RMK WHT;
0169066099999992011011321504+47400+008650AUTO +0448LSMD V0203201N002110096019N0112651N1+01101+00701999999ADDAW1611GA1021+007201999GA2081+009601999GF108991999999999999999999MA1102101999999REMMET078METAR LSMD 132150Z AUTO 32004KT 9999NDV -RA FEW024 OVC032 11/07 Q1021 RMK WHT;
0194066099999992011011322504+47400+008650AUTO +0448LSMD V0209999C00001008401CN0112651N1+01001+00701999999ADDAW1811GA1021+006301999GA2041+008401999GA3081+011101999GF108991999999999999999999MA1102101999999REMMET087METAR LSMD 132250Z AUTO 00000KT 9999NDV -SHRA FEW021 SCT028 OVC037 10/07 Q1021 RMK WHT;
0190066099999992011011323504+47400+008650AUTO +0448LSMD V0202101N001510099019N0112651N1+01001+00701999999ADDGA1021+008101999GA2071+009901999GA3081+018001999GF108991999999999999999999MA1102101999999REMMET089METAR LSMD 132350Z AUTO 21003KT 150V280 9999NDV FEW027 BKN033 OVC063 10/07 Q1021 RMK WHT;
0182066099999992011011400504+47400+008650AUTO +0448LSMD V0209999V001010093019N0112651N1+01001+00701999999ADDGA1021+006601999GA2071+009301999GA3081+010801999GF108991999999999999999999MA1102101999999REMMET081METAR LSMD 140050Z AUTO VRB02KT 9999NDV FEW022 BKN031 OVC036 10/07 Q1021 RMK WHT;
0167066099999992011011401504+47400+008650AUTO +0448LSMD V0201601N001510150019N0112651N1+00901+00701999999ADDGA1021+008101999GA2081+015001999GF108991999999999999999999MA1102101999999REMMET082METAR LSMD 140150Z AUTO 16003KT 100V210 9999NDV FEW027 OVC058 09/07 Q1021 RMK WHT;
0182066099999992011011402504+47400+008650AUTO +0448LSMD V0209999V00051009601CN0112651N1+01001+00701999999ADDGA1021+007201999GA2041+009601999GA3081+011701999GF108991999999999999999999MA1102101999999REMMET081METAR LSMD 140250Z AUTO VRB01KT 9999NDV FEW024 SCT032 OVC039 10/07 Q1021 RMK WHT;
0159066099999992011011403504+47400+008650AUTO +0448LSMD V0201601N001010105019N0112651N1+01001+00701999999ADDGA1021+009001999GA2081+010501999GF108991999999999999999999MA1102101999999REMMET074METAR LSMD 140350Z AUTO 16002KT 9999NDV FEW030 OVC035 10/07 Q1021 RMK WHT;
0136066099999992011011404504+47400+008650AUTO +0448LSMD V0209999V001010114019N0112651N1+00901+00701999999ADDGA1081+011401999GF108991999999999999999999MA1102101999999REMMET067METAR LSMD 140450Z AUTO VRB02KT 9999NDV OVC038 09/07 Q1021 RMK WHT;
0128066099999992011011405504+47400+008650FM-15+0448LSMD V0209999V001010111019N0112651N1+00901+00701999999ADDGA1081+011101999GF108991999999999999999999MA1102101999999REMMET059METAR LSMD 140550Z VRB02KT 9999 OVC037 09/07 Q1021 RMK WHT;
0128066099999992011011406504+47400+008650FM-15+0448LSMD V0209999V001010108019N0112651N1+01001+00601999999ADDGA1081+010801999GF108991999999999999999999MA1102201999999REMMET059METAR LSMD 140650Z VRB02KT 9999 OVC036 10/06 Q1022 RMK WHT;
0136066099999992011011407504+47400+008650FM-15+0448LSMD V0202401N002110105019N0112651N1+01101+00501999999ADDGA1081+010501999GF108991999999999999999999MA1102101999999REMMET067METAR LSMD 140750Z 24004KT 170V280 9999 OVC035 11/05 Q1021 RMK WHT;
0136066099999992011011408504+47400+008650FM-15+0448LSMD V0202701N003610102019N0112651N1+01101+00501999999ADDGA1081+010201999GF108991999999999999999999MA1102201999999REMMET067METAR LSMD 140850Z 27007KT 240V300 9999 OVC034 11/05 Q1022 RMK WHT;
0151066099999992011011409504+47400+008650FM-15+0448LSMD V0202601N003110108019N0112651N1+01101+00501999999ADDGA1021+009601999GA2071+010801999GF107991999999999999999999MA1102101999999REMMET066METAR LSMD 140950Z 26006KT 9999 FEW032 BKN036 11/05 Q1021 RMK WHT;
0136066099999992011011410504+47400+008650FM-15+0448LSMD V0202501N003110102019N0112651N1+01101+00501999999ADDGA1071+010201999GF107991999999999999999999MA1102101999999REMMET067METAR LSMD 141050Z 25006KT 210V280 9999 BKN034 11/05 Q1021 RMK WHT;
0144066099999992011011411504+47400+008650AUTO +0448LSMD V0202401N002610099019N0112651N1+01201+00501999999ADDGA1081+009901999GF108991999999999999999999MA1102101999999REMMET075METAR LSMD 141150Z AUTO 24005KT 200V320 9999NDV OVC033 12/05 Q1021 RMK WHT;
0136066099999992011011412504+47400+008650FM-15+0448LSMD V0203201N003110096019N0112651N1+01101+00601999999ADDGA1081+009601999GF108991999999999999999999MA1102001999999REMMET067METAR LSMD 141250Z 32006KT 290V360 9999 OVC032 11/06 Q1020 RMK WHT;
0136066099999992011011413504+47400+008650FM-15+0448LSMD V0203201N002610102019N0112651N1+01101+00601999999ADDGA1081+010201999GF108991999999999999999999MA1102001999999REMMET067METAR LSMD 141350Z 32005KT 290V350 9999 OVC034 11/06 Q1020 RMK WHT;
0136066099999992011011414504+47400+008650AUTO +0448LSMD V0203101N001510105019N0112651N1+01001+00601999999ADDGA1081+010501999GF108991999999999999999999MA1102001999999REMMET067METAR LSMD 141450Z AUTO 31003KT 9999NDV OVC035 10/06 Q1020 RMK WHT;
0136066099999992011011415504+47400+008650AUTO +0448LSMD V0209999C000010105019N0112651N1+01001+00501999999ADDGA1071+010501999GF107991999999999999999999MA1102001999999REMMET067METAR LSMD 141550Z AUTO 00000KT 9999NDV BKN035 10/05 Q1020 RMK WHT;
0136066099999992011011416504+47400+008650AUTO +0448LSMD V0201101N001010096019N0112651N1+00901+00501999999ADDGA1071+009601999GF107991999999999999999999MA1102001999999REMMET067METAR LSMD 141650Z AUTO 11002KT 9999NDV BKN032 09/05 Q1020 RMK WHT;
0117066099999992011011417504+47400+008650AUTO +0448LSMD V0201101N001512200019N0112651N1+00601+00501999999ADDGF100991999999999999999999MA1101901999999REMMET064METAR LSMD 141750Z AUTO 11003KT 9999NDV NCD 06/05 Q1019 RMK BLU;
0117066099999992011011418504+47400+008650AUTO +0448LSMD V0201201N001512200019N0112651N1+00601+00401999999ADDGF100991999999999999999999MA1101901999999REMMET064METAR LSMD 141850Z AUTO 12003KT 9999NDV NCD 06/04 Q1019 RMK BLU;
0136066099999992011011419504+47400+008650AUTO +0448LSMD V0201101N001512200019N0112651N1+00401+00301999999ADDGA1021+066001999GF102991999999999999999999MA1101901999999REMMET067METAR LSMD 141950Z AUTO 11003KT 9999NDV FEW220 04/03 Q1019 RMK BLU;
0136066099999992011011420504+47400+008650AUTO +0448LSMD V0201201N002110081019N0112651N1+00501+00401999999ADDGA1081+008101999GF108991999999999999999999MA1101901999999REMMET067METAR LSMD 142050Z AUTO 12004KT 9999NDV OVC027 05/04 Q1019 RMK WHT;
0136066099999992011011421504+47400+008650AUTO +0448LSMD V0201001N001010087019N0112651N1+00601+00501999999ADDGA1081+008701999GF108991999999999999999999MA1102001999999REMMET067METAR LSMD 142150Z AUTO 10002KT 9999NDV OVC029 06/05 Q1020 RMK WHT;
0167066099999992011011422504+47400+008650AUTO +0448LSMD V0202501N002110141019N0112651N1+00901+00501999999ADDGA1021+006901999GA2071+014101999GF107991999999999999999999MA1102101999999REMMET082METAR LSMD 142250Z AUTO 25004KT 200V320 9999NDV FEW023 BKN047 09/05 Q1021 RMK WHT;
0190066099999992011011423504+47400+008650AUTO +0448LSMD V0202001N001510120019N0112651N1+00901+00501999999ADDGA1021+008401999GA2071+012001999GA3081+015001999GF108991999999999999999999MA1102101999999REMMET089METAR LSMD 142350Z AUTO 20003KT 150V250 9999NDV FEW028 BKN040 OVC053 09/05 Q1021 RMK WHT;
0169066099999992011011500504+47400+008650AUTO +0448LSMD V0202601N004610123019N0112651N1+01001+00401999999ADDAW1611GA1071+012301999GA2081+015001999GF108991999999999999999999MA1102201999999REMMET078METAR LSMD 150050Z AUTO 26009KT 9999NDV -RA BKN041 OVC053 10/04 Q1022 RMK WHT;
0199066099999992011011501504+47400+008650AUTO +0448LSMD V0202801N00461010501CN0112651N1+00801+00501999999ADDAW1621GA1021+009001999GA2041+010501999GA3081+012001999GF108991999999999999999999MA1102301999999REMMET092METAR LSMD 150150Z AUTO 28009KT 250V320 9999NDV RA FEW030 SCT035 OVC040 08/05 Q1023 RMK WHT;
0209066099999992011011502504+47400+008650AUTO +0448LSMD V0202801N00261008401CN0112651N1+00801+00601999999ADDAW1811GA1021+006001999GA2041+008401999GA3081+009601999GF108991999999999999999999MA1102401999999REMMET102METAR LSMD 150250Z AUTO 28005KT 240V320 9999NDV -SHRA FEW020 SCT028 OVC032 08/06 Q1024 RESHRA RMK WHT;
0202066099999992011011503504+47400+008650AUTO +0448LSMD V0202701N00361011401CN0112651N1+00801+00501999999ADDAW1811GA1021+004801999GA2041+011401999GA3071+014101999GF107991999999999999999999MA1102511999999REMMET095METAR LSMD 150350Z AUTO 27007KT 240V300 9999NDV -SHRA FEW016 SCT038 BKN047 08/05 Q1025 RMK WHT;
0136066099999992011011504504+47400+008650AUTO +0448LSMD V0202801N003112200019N0112651N1+00601+00401999999ADDGA1021+007501999GF102991999999999999999999MA1102511999999REMMET067METAR LSMD 150450Z AUTO 28006KT 9999NDV FEW025 06/04 Q1025 RMK BLU;
0136066099999992011011505504+47400+008650AUTO +0448LSMD V0209999V001012200019N0112651N1+00501+00401999999ADDGA1021+021001999GF102991999999999999999999MA1102711999999REMMET067METAR LSMD 150550Z AUTO VRB02KT 9999NDV FEW075 05/04 Q1027 RMK BLU;
0144066099999992011011506504+47400+008650AUTO +0448LSMD V0201201N001512200019N0112651N1+00401+00301999999ADDGA1021+018001999GF102991999999999999999999MA1102811999999REMMET075METAR LSMD 150650Z AUTO 12003KT 100V170 9999NDV FEW065 04/03 Q1028 RMK BLU;
0117066099999992011011507504+47400+008650AUTO +0448LSMD V0201001N001512200019N0112651N1+00301+00201999999ADDGF100991999999999999999999MA1102811999999REMMET064METAR LSMD 150750Z AUTO 10003KT 9999NDV NCD 03/02 Q1028 RMK BLU;
0117066099999992011011508504+47400+008650AUTO +0448LSMD V0201501N001012200019N0112651N1+00501+00401999999ADDGF100991999999999999999999MA1102811999999REMMET064METAR LSMD 150850Z AUTO 15002KT 9999NDV NCD 05/04 Q1028 RMK BLU;
0136066099999992011011509504+47400+008650AUTO +0448LSMD V0209999V001012200019N0112651N1+00901+00501999999ADDGA1021+013201999GF102991999999999999999999MA1102811999999REMMET067METAR LSMD 150950Z AUTO VRB02KT 9999NDV FEW044 09/05 Q1028 RMK BLU;
0136066099999992011011510504+47400+008650AUTO +0448LSMD V0209999V001012200019N0112651N1+01001+00401999999ADDGA1021+011401999GF102991999999999999999999MA1102811999999REMMET067METAR LSMD 151050Z AUTO VRB02KT 9999NDV FEW038 10/04 Q1028 RMK BLU;
0144066099999992011011511504+47400+008650AUTO +0448LSMD V0202901N002112200019N0112651N1+01001+00401999999ADDGA1021+008701999GF102991999999999999999999MA1102811999999REMMET075METAR LSMD 151150Z AUTO 29004KT 260V320 9999NDV FEW029 10/04 Q1028 RMK BLU;
0167066099999992011011512504+47400+008650AUTO +0448LSMD V0202801N002110090019N0112651N1+01001+00401999999ADDGA1071+009001999GA2071+010801999GF107991999999999999999999MA1102711999999REMMET082METAR LSMD 151250Z AUTO 28004KT 240V310 9999NDV BKN030 BKN036 10/04 Q1027 RMK WHT;
0159066099999992011011513504+47400+008650AUTO +0448LSMD V0209999V000510108019N0112651N1+01001+00401999999ADDGA1021+009601999GA2071+010801999GF107991999999999999999999MA1102711999999REMMET074METAR LSMD 151350Z AUTO VRB01KT 9999NDV FEW032 BKN036 10/04 Q1027 RMK WHT;
0136066099999992011011514504+47400+008650AUTO +0448LSMD V0209999C000010105019N0112651N1+01101+00301999999ADDGA1071+010501999GF107991999999999999999999MA1102811999999REMMET067METAR LSMD 151450Z AUTO 00000KT 9999NDV BKN035 11/03 Q1028 RMK WHT;
0117066099999992011011516504+47400+008650AUTO +0448LSMD V0209999V000512200019N0112651N1+00701+00401999999ADDGF100991999999999999999999MA1102811999999REMMET064METAR LSMD 151650Z AUTO VRB01KT 9999NDV NCD 07/04 Q1028 RMK BLU;
0117066099999992011011517504+47400+008650AUTO +0448LSMD V0201001N001012200019N0112651N1+00601+00301999999ADDGF100991999999999999999999MA1102811999999REMMET064METAR LSMD 151750Z AUTO 10002KT 9999NDV NCD 06/03 Q1028 RMK BLU;
0117066099999992011011518504+47400+008650AUTO +0448LSMD V0209999C000012200019N0112651N1+00401+00201999999ADDGF100991999999999999999999MA1102811999999REMMET064METAR LSMD 151850Z AUTO 00000KT 9999NDV NCD 04/02 Q1028 RMK BLU;
0117066099999992011011519504+47400+008650AUTO +0448LSMD V0201101N001512200019N0112651N1+00501+00301999999ADDGF100991999999999999999999MA1102811999999REMMET064METAR LSMD 151950Z AUTO 11003KT 9999NDV NCD 05/03 Q1028 RMK BLU;
0117066099999992011011520504+47400+008650AUTO +0448LSMD V0201001N001512200019N0112651N1+00301+00201999999ADDGF100991999999999999999999MA1102811999999REMMET064METAR LSMD 152050Z AUTO 10003KT 9999NDV NCD 03/02 Q1028 RMK BLU;
0117066099999992011011521504+47400+008650AUTO +0448LSMD V0201101N002112200019N0112651N1+00301+00101999999ADDGF100991999999999999999999MA1102811999999REMMET064METAR LSMD 152150Z AUTO 11004KT 9999NDV NCD 03/01 Q1028 RMK BLU;
0117066099999992011011522504+47400+008650AUTO +0448LSMD V0209999V000512200019N0050001N1+00201+00101999999ADDGF100991999999999999999999MA1102811999999REMMET064METAR LSMD 152250Z AUTO VRB01KT 5000NDV NCD 02/01 Q1028 RMK GRN;
0117066099999992011011523504+47400+008650AUTO +0448LSMD V0201101N002112200019N0080001N1+00201+00101999999ADDGF100991999999999999999999MA1102811999999REMMET064METAR LSMD 152350Z AUTO 11004KT 8000NDV NCD 02/01 Q1028 RMK BLU;
0118066099999992011011600504+47400+008650AUTO +0448LSMD V0209999C000012200019N0112651N1+00201-00101999999ADDGF100991999999999999999999MA1102711999999REMMET065METAR LSMD 160050Z AUTO 00000KT 9999NDV NCD 02/M01 Q1027 RMK BLU;
0117066099999992011011601504+47400+008650AUTO +0448LSMD V0209999C000012200019N0031001N1+00101+00001999999ADDGF100991999999999999999999MA1102811999999REMMET064METAR LSMD 160150Z AUTO 00000KT 3100NDV NCD 01/00 Q1028 RMK GRN;
0117066099999992011011602504+47400+008650AUTO +0448LSMD V0201201N001512200019N0080001N1+00101+00001999999ADDGF100991999999999999999999MA1102711999999REMMET064METAR LSMD 160250Z AUTO 12003KT 8000NDV NCD 01/00 Q1027 RMK BLU;
0140066099999992011011603504+47400+008650AUTO +0448LSMD V0209999V000512200019N0011001N1+00101+00001999999ADDED129U20009GF100991999999999999999999MA1102711999999REMMET076METAR LSMD 160350Z AUTO VRB01KT 1100NDV R29/P2000N NCD 01/M00 Q1027 RMK RED;
0141066099999992011011604504+47400+008650AUTO +0448LSMD V0209999V000512200019N0005501N1+00001-00101999999ADDED129U20009GF100991999999999999999999MA1102711999999REMMET077METAR LSMD 160450Z AUTO VRB01KT 0550NDV R29/P2000N NCD M00/M01 Q1027 RMK RED;
0138066099999992011011605504+47400+008650AUTO +0448LSMD V0209999C000012200019N0090001N1+00001-00101999999ADDGA1021+000601999GF102991999999999999999999MA1102811999999REMMET069METAR LSMD 160550Z AUTO 00000KT 9000NDV FEW002 M00/M01 Q1028 RMK BLU;
0160066099999992011011606504+47400+008650AUTO +0448LSMD V0209999V001012200019N0002501N1-00101-00201999999ADDED129U20009GA1041+000301999GF104991999999999999999999MA1102811999999REMMET080METAR LSMD 160650Z AUTO VRB02KT 0250NDV R29/P2000N SCT001 M01/M02 Q1028 RMK RED;
0160066099999992011011607504+47400+008650AUTO +0448LSMD V0201001N001012200019N0007001N1+00001-00101999999ADDED129U20009GA1041+000601999GF104991999999999999999999MA1102911999999REMMET080METAR LSMD 160750Z AUTO 10002KT 0700NDV R29/P2000U SCT002 M00/M01 Q1029 RMK RED;
0149066099999992011011608504+47400+008650AUTO +0448LSMD V0209999V000512200019N0002001N1+00101-00101999999ADDAW1101ED129U20009GF100991999999999999999999MA1102911999999REMMET079METAR LSMD 160850Z AUTO VRB01KT 0200NDV R29/P2000D BR NCD 01/M01 Q1029 RMK RED;
0171066099999992011011609504+47400+008650AUTO +0448LSMD V0202901N002112200019N0003501N1+00101+00001999999ADDAW1301ED129U04009GA1041+000301999GF104991999999999999999999MA1102911999999REMMET085METAR LSMD 160950Z AUTO 29004KT 0350NDV R29/0400V0550N FG SCT001 01/00 Q1029 RMK RED;
0144066099999992011011610504+47400+008650AUTO +0448LSMD V0202901N002112200019N0050001N1+00301+00201999999ADDGA1021+000301999GF102991999999999999999999MA1102811999999REMMET075METAR LSMD 161050Z AUTO 29004KT 260V320 5000NDV FEW001 03/02 Q1028 RMK GRN;
0125066099999992011011611504+47400+008650AUTO +0448LSMD V0202801N001512200019N0112651N1+00601+00301999999ADDGF100991999999999999999999MA1102811999999REMMET072METAR LSMD 161150Z AUTO 28003KT 250V320 9999NDV NCD 06/03 Q1028 RMK BLU;
0117066099999992011011612504+47400+008650AUTO +0448LSMD V0203001N001512200019N0112651N1+00701+00301999999ADDGF100991999999999999999999MA1102711999999REMMET064METAR LSMD 161250Z AUTO 30003KT 9999NDV NCD 07/03 Q1027 RMK BLU;
0117066099999992011011613504+47400+008650AUTO +0448LSMD V0209999V001012200019N0112651N1+00901+00301999999ADDGF100991999999999999999999MA1102711999999REMMET064METAR LSMD 161350Z AUTO VRB02KT 9999NDV NCD 09/03 Q1027 RMK BLU;
0125066099999992011011614504+47400+008650AUTO +0448LSMD V0202901N001512200019N0112651N1+00901+00401999999ADDGF100991999999999999999999MA1102611999999REMMET072METAR LSMD 161450Z AUTO 29003KT 200V310 9999NDV NCD 09/04 Q1026 RMK BLU;
0117066099999992011011615504+47400+008650AUTO +0448LSMD V0202901N003112200019N0112651N1+00401+00201999999ADDGF100991999999999999999999MA1102611999999REMMET064METAR LSMD 161550Z AUTO 29006KT 9999NDV NCD 04/02 Q1026 RMK BLU;
0117066099999992011011616504+47400+008650AUTO +0448LSMD V0203001N001012200019N0060001N1+00201+00101999999ADDGF100991999999999999999999MA1102711999999REMMET064METAR LSMD 161650Z AUTO 30002KT 6000NDV NCD 02/01 Q1027 RMK GRN;
0126066099999992011011617504+47400+008650AUTO +0448LSMD V0209999C000012200019N0015001N1+00201+00101999999ADDAW1101GF100991999999999999999999MA1102711999999REMMET067METAR LSMD 161750Z AUTO 00000KT 1500NDV BR NCD 02/01 Q1027 RMK AMB;
0117066099999992011011618504+47400+008650AUTO +0448LSMD V0201001N001012200019N0060001N1+00201+00101999999ADDGF100991999999999999999999MA1102711999999REMMET064METAR LSMD 161850Z AUTO 10002KT 6000NDV NCD 02/01 Q1027 RMK GRN;
0153066099999992011011619504+47400+008650AUTO +0448LSMD V0209999C000012200019N0004501N1+00101+00001999999ADDAW1301ED129U10009GF100991999999999999999999MA1102711999999REMMET083METAR LSMD 161950Z AUTO 00000KT 0450NDV R29/1000VP2000D FG NCD 01/00 Q1027 RMK RED;
0150066099999992011011620504+47400+008650AUTO +0448LSMD V0209999C000012200019N0012001N1+00001-00101999999ADDAW1101ED129U20009GF100991999999999999999999MA1102711999999REMMET080METAR LSMD 162050Z AUTO 00000KT 1200NDV R29/P2000N BR NCD M00/M01 Q1027 RMK RED;
0149066099999992011011621504+47400+008650AUTO +0448LSMD V0209999C000012200019N0003001N1-00101-00101999999ADDAW1301ED129U05009GF100991999999999999999999MA1102811999999REMMET079METAR LSMD 162150Z AUTO 00000KT 0300NDV R29/0500D FG NCD M01/M01 Q1028 RMK RED;
0169066099999992011011622504+47400+008650AUTO +0448LSMD V0201101N001512200019N0006501N1-00101-00101999999ADDAW1101ED129U20009GA1041+000601999GF104991999999999999999999MA1102811999999REMMET083METAR LSMD 162250Z AUTO 11003KT 0650NDV R29/P2000N BR SCT002 M01/M01 Q1028 RMK RED;
0172066099999992011011623504+47400+008650AUTO +0448LSMD V0201301N001010003019N0003001N1+00001-00101999999ADDAW1301ED129U02759GA1091+000301999GF109991999999000251999999MA1102811999999REMMET086METAR LSMD 162350Z AUTO 13002KT 0300NDV R29/0275V0550U FG VV001 M00/M01 Q1028 RMK RED;
0172066099999992011011700504+47400+008650AUTO +0448LSMD V0209999C000010003019N0002501N1-00101-00101999999ADDAW1301ED129U02759GA1091+000301999GF109991999999000251999999MA1102711999999REMMET086METAR LSMD 170050Z AUTO 00000KT 0250NDV R29/0275V0400N FG VV001 M01/M01 Q1027 RMK RED;
0172066099999992011011701504+47400+008650AUTO +0448LSMD V0209999C000010001519N0004001N1-00201-00201999999ADDAW1301ED129U05009GA1091+000151999GF109991999999000251999999MA1102711999999REMMET086METAR LSMD 170150Z AUTO 00000KT 0400NDV R29/0500V0700N FG VV000 M02/M02 Q1027 RMK RED;
0170066099999992011011702504+47400+008650AUTO +0448LSMD V0209999C000012200019N0003001N1-00301-00301999999ADDAW1351ED129U06509GA1041+000301999GF104991999999999999999999MA1102711999999REMMET084METAR LSMD 170250Z AUTO 00000KT 0300NDV R29/0650N FZFG SCT001 M03/M03 Q1027 RMK RED;
0175066099999992011011703504+47400+008650AUTO +0448LSMD V0202901N001010003019N0003501N1-00301-00301999999ADDAW1351ED129U04509GA1071+000301999GF107991999999999999999999MA1102711999999REMMET089METAR LSMD 170350Z AUTO 29002KT 0350NDV R29/0450V0550D FZFG BKN001 M03/M03 Q1027 RMK RED;
0172066099999992011011704504+47400+008650AUTO +0448LSMD V0209999C000010003019N0003001N1-00201-00301999999ADDAW1301ED129U04509GA1091+000301999GF109991999999000251999999MA1102711999999REMMET086METAR LSMD 170450Z AUTO 00000KT 0300NDV R29/0450V0550N FG VV001 M02/M03 Q1027 RMK RED;
0161066099999992011011705504+47400+008650FM-15+0448LSMD V0209999C000010003019N0003001N1-00201-00201999999ADDED129U04009GA1091+000301999GF109991999999000251999999MA1102711999999MW1491REMMET075METAR LSMD 170550Z 00000KT 0300 R29/0400N FZFG VV001 M02/M02 Q1027 RMK RED;
0161066099999992011011706504+47400+008650FM-15+0448LSMD V0202901N001010003019N0003501N1-00201-00201999999ADDED129U04509GA1091+000301999GF109991999999000251999999MA1102711999999MW1491REMMET075METAR LSMD 170650Z 29002KT 0350 R29/0450N FZFG VV001 M02/M02 Q1027 RMK RED;
0159066099999992011011707504+47400+008650FM-15+0448LSMD V0209999C000010003019N0002001N1-00201-00301999999ADDED111U02759GA1091+000301999GF109991999999000251999999MA1102711999999MW1451REMMET073METAR LSMD 170750Z 00000KT 0200 R11/0275N FG VV001 M02/M03 Q1027 RMK RED;
0134066099999992011011708504+47400+008650FM-15+0448LSMD V0203001N001512200019N0002001N1-00201-00201999999ADDED111U03009MA1102601999999REMMET096METAR LSMD 170850Z 30003KT 270V330 0200 R11/0300V0375N R29/0225N FG VV001 M02/M02 Q1026 RMK RED;
0169066099999992011011709504+47400+008650FM-15+0448LSMD V0203101N001010003019N0002001N1-00101-00101999999ADDED111U05509GA1091+000301999GF109991999999000251999999MA1102611999999MW1451REMMET083METAR LSMD 170950Z 31002KT 0200 R11/0550N R29/0300N FG VV001 M01/M01 Q1026 RMK RED;
0169066099999992011011710504+47400+008650FM-15+0448LSMD V0209999V000510003019N0002001N1+00001-00101999999ADDED111U03009GA1091+000301999GF109991999999000251999999MA1102611999999MW1451REMMET083METAR LSMD 171050Z VRB01KT 0200 R11/0300N R29/0250N FG VV001 M00/M01 Q1026 RMK RED;
0143066099999992011011711504+47400+008650FM-15+0448LSMD V0209999V000512200019N0003001N1+00101+00101999999ADDAW1101ED111U05509MA1102601999999REMMET099METAR LSMD 171150Z AUTO VRB01KT 0300NDV R11/0550V0900U R29/0800V1400D BR VV001 01/01 Q1026 RMK RED;
0137066099999992011011712504+47400+008650FM-15+0448LSMD V0209999C000012200019N0024001N1+00301+00301999999ADDGA1021+000301999GF102991999999999999999999MA1102611999999MW1101REMMET062METAR LSMD 171250Z 00000KT 2400 BR FEW001 03/03 Q1026 RMK YLO;
0080066099999992011011713504+47400+008650FM-15+0448LSMD V0209999V000519999999Y0099001N1+00701+00401999999ADDMA1102611999999REMMET053METAR LSMD 171350Z VRB01KT CAVOK 07/04 Q1026 RMK BLU;
0080066099999992011011714504+47400+008650FM-15+0448LSMD V0209999V000519999999Y0099001N1+00701+00301999999ADDMA1102611999999REMMET053METAR LSMD 171450Z VRB01KT CAVOK 07/03 Q1026 RMK BLU;
0117066099999992011011716504+47400+008650AUTO +0448LSMD V0209999V000512200019N0112651N1+00401+00201999999ADDGF100991999999999999999999MA1102711999999REMMET064METAR LSMD 171650Z AUTO VRB01KT 9999NDV NCD 04/02 Q1027 RMK BLU;
0117066099999992011011717504+47400+008650AUTO +0448LSMD V0209999V000512200019N0090001N1+00301+00101999999ADDGF100991999999999999999999MA1102711999999REMMET064METAR LSMD 171750Z AUTO VRB01KT 9000NDV NCD 03/01 Q1027 RMK BLU;
0117066099999992011011718504+47400+008650AUTO +0448LSMD V0209999C000012200019N0070001N1+00301+00201999999ADDGF100991999999999999999999MA1102711999999REMMET064METAR LSMD 171850Z AUTO 00000KT 7000NDV NCD 03/02 Q1027 RMK GRN;
0117066099999992011011719504+47400+008650AUTO +0448LSMD V0209999C000012200019N0048001N1+00101+00001999999ADDGF100991999999999999999999MA1102711999999REMMET064METAR LSMD 171950Z AUTO 00000KT 4800NDV NCD 01/00 Q1027 RMK GRN;
0146066099999992011011720504+47400+008650AUTO +0448LSMD V0209999C000012200019N0040001N1+00001+00001999999ADDAW1101GA1021+024001999GF102991999999999999999999MA1102711999999REMMET071METAR LSMD 172050Z AUTO 00000KT 4000NDV BR FEW080 00/M00 Q1027 RMK GRN;
0136066099999992011011721504+47400+008650AUTO +0448LSMD V0201101N001012200019N0060001N1+00101+00001999999ADDGA1041+021001999GF104991999999999999999999MA1102711999999REMMET067METAR LSMD 172150Z AUTO 11002KT 6000NDV SCT078 01/00 Q1027 RMK GRN;
0184066099999992011011722504+47400+008650AUTO +0448LSMD V0209999C000012200019N0040001N1-00101-00101999999ADDAW1301ED111U05509GA1021+021001999GF102991999999999999999999MA1102711999999REMMET098METAR LSMD 172250Z AUTO 00000KT 4000NDV R11/0550D R29/1300VP2000N FG FEW079 M01/M01 Q1027 RMK GRN;
0161066099999992011011723504+47400+008650AUTO +0448LSMD V0209999C000010630019N0045001N1+00001-00101999999ADDGA1041+018001999GA2071+063001999GF107991999999999999999999MA1102711999999REMMET076METAR LSMD 172350Z AUTO 00000KT 4500NDV SCT068 BKN210 M00/M01 Q1027 RMK GRN;
0170066099999992011011800504+47400+008650AUTO +0448LSMD V0209999C000010210019N0037001N1+00001-00101999999ADDAW1101GA1041+018001999GA2071+021001999GF107991999999999999999999MA1102711999999REMMET079METAR LSMD 180050Z AUTO 00000KT 3700NDV BR SCT065 BKN078 M00/M01 Q1027 RMK GRN;
0137066099999992011011801504+47400+008650AUTO +0448LSMD V0201301N001512200019N0042001N1+00001+00001999999ADDGA1041+024001999GF104991999999999999999999MA1102811999999REMMET068METAR LSMD 180150Z AUTO 13003KT 4200NDV SCT080 00/M00 Q1028 RMK GRN;
0127066099999992011011802504+47400+008650AUTO +0448LSMD V0201001N001512200019N0060001N1+00001-00101999999ADDGF100991999999999999999999MA1102711999999REMMET074METAR LSMD 180250Z AUTO 10003KT 070V130 6000NDV NCD M00/M01 Q1027 RMK GRN;
0138066099999992011011803504+47400+008650AUTO +0448LSMD V0201101N001012200019N0050001N1+00001-00101999999ADDGA1021+024001999GF102991999999999999999999MA1102711999999REMMET069METAR LSMD 180350Z AUTO 11002KT 5000NDV FEW080 M00/M01 Q1027 RMK GRN;
0128066099999992011011804504+47400+008650AUTO +0448LSMD V0209999C000012200019N0042001N1-00101-00201999999ADDAW1101GF100991999999999999999999MA1102611999999REMMET069METAR LSMD 180450Z AUTO 00000KT 4200NDV BR NCD M01/M02 Q1026 RMK GRN;
0139066099999992011011805504+47400+008650FM-15+0448LSMD V0209999C000012200019N0025001N1-00101-00201999999ADDGA1021+018001999GF102991999999999999999999MA1102711999999MW1101REMMET064METAR LSMD 180550Z 00000KT 2500 BR FEW067 M01/M02 Q1027 RMK YLO;
0141066099999992011011806504+47400+008650FM-15+0448LSMD V0201301N001012200019N0112651N1-00101-00101999999ADDGA1021+027001999GF102991999999999999999999MA1102711999999MW1411REMMET066METAR LSMD 180650Z 13002KT 9999 BCFG FEW092 M01/M01 Q1027 RMK GRN;
0129066099999992011011807504+47400+008650FM-15+0448LSMD V0201201N002110210019N0050001N1+00001-00101999999ADDGA1071+021001999GF107991999999999999999999MA1102711999999REMMET060METAR LSMD 180750Z 12004KT 5000 BKN072 00/M01 Q1027 RMK GRN;
0175066099999992011011808504+47400+008650FM-15+0448LSMD V0201201N001510117019N0090001N1+00201+00001999999ADDGA1071+011701999GA2071+013501999GA3071+024001999GF107991999999999999999999MA1102711999999REMMET074METAR LSMD 180850Z 12003KT 9000 BKN039 BKN045 BKN089 02/M00 Q1027 RMK WHT;
0128066099999992011011809504+47400+008650FM-15+0448LSMD V0209999C000010120019N0112651N1+00301+00001999999ADDGA1071+012001999GF107991999999999999999999MA1102711999999REMMET059METAR LSMD 180950Z 00000KT 9999 BKN040 03/00 Q1027 RMK WHT;
0136066099999992011011810504+47400+008650FM-15+0448LSMD V0203201N001510270019N0112651N1+00401+00101999999ADDGA1071+027001999GF107991999999999999999999MA1102611999999REMMET067METAR LSMD 181050Z 32003KT 290V360 9999 BKN095 04/01 Q1026 RMK WHT;
0159066099999992011011811504+47400+008650AUTO +0448LSMD V0209999V001012200019N0112651N1+00501+00201999999ADDGA1021+013801999GA2041+027001999GF104991999999999999999999MA1102611999999REMMET074METAR LSMD 181150Z AUTO VRB02KT 9999NDV FEW046 SCT099 05/02 Q1026 RMK BLU;
0151066099999992011011812504+47400+008650FM-15+0448LSMD V0203101N002110144019N0112651N1+00601+00201999999ADDGA1071+014401999GA2071+015001999GF107991999999999999999999MA1102511999999REMMET066METAR LSMD 181250Z 31004KT 9999 BKN048 BKN054 06/02 Q1025 RMK WHT;
0136066099999992011011813504+47400+008650FM-15+0448LSMD V0203001N001512200019N0112651N1+00701+00201999999ADDGA1021+014401999GF102991999999999999999999MA1102511999999REMMET067METAR LSMD 181350Z 30003KT 280V360 9999 FEW048 07/02 Q1025 RMK BLU;
0174066099999992011011814504+47400+008650FM-15+0448LSMD V0209999C00001021001CN0112651N1+00701+00301999999ADDGA1021+015001999GA2041+021001999GA3071+030001999GF107991999999999999999999MA1102511999999REMMET073METAR LSMD 181450Z 00000KT 9999 FEW055 SCT073 BKN100 07/03 Q1025 RMK WHT;
0159066099999992011011815504+47400+008650AUTO +0448LSMD V0209999C000010150019N0112651N1+00701+00301999999ADDGA1071+015001999GA2081+030001999GF108991999999999999999999MA1102511999999REMMET074METAR LSMD 181550Z AUTO 00000KT 9999NDV BKN051 OVC100 07/03 Q1025 RMK WHT;
0159066099999992011011816504+47400+008650AUTO +0448LSMD V0203301N000510135019N0112651N1+00501+00301999999ADDGA1041+010501999GA2081+013501999GF108991999999999999999999MA1102611999999REMMET074METAR LSMD 181650Z AUTO 33001KT 9999NDV SCT035 OVC045 05/03 Q1026 RMK WHT;
0182066099999992011011817504+47400+008650AUTO +0448LSMD V0209999C000010117019N0112651N1+00601+00201999999ADDGA1021+007201999GA2071+011701999GA3081+015001999GF108991999999999999999999MA1102611999999REMMET081METAR LSMD 181750Z AUTO 00000KT 9999NDV FEW024 BKN039 OVC054 06/02 Q1026 RMK WHT;
0159066099999992011011818504+47400+008650AUTO +0448LSMD V0201101N001510150019N0112651N1+00501+00201999999ADDGA1021+012901999GA2071+015001999GF107991999999999999999999MA1102611999999REMMET074METAR LSMD 181850Z AUTO 11003KT 9999NDV FEW043 BKN055 05/02 Q1026 RMK WHT;
0159066099999992011011819504+47400+008650AUTO +0448LSMD V0201201N001010132019N0112651N1+00601+00201999999ADDGA1021+011401999GA2081+013201999GF108991999999999999999999MA1102611999999REMMET074METAR LSMD 181950Z AUTO 12002KT 9999NDV FEW038 OVC044 06/02 Q1026 RMK WHT;
0182066099999992011011820504+47400+008650AUTO +0448LSMD V0209999C00001014401CN0112651N1+00501+00301999999ADDGA1021+007801999GA2041+014401999GA3081+018001999GF108991999999999999999999MA1102611999999REMMET081METAR LSMD 182050Z AUTO 00000KT 9999NDV FEW026 SCT048 OVC063 05/03 Q1026 RMK WHT;
0159066099999992011011821504+47400+008650AUTO +0448LSMD V0209999V000510150019N0090001N1+00401+00201999999ADDGA1021+008401999GA2081+015001999GF108991999999999999999999MA1102611999999REMMET074METAR LSMD 182150Z AUTO VRB01KT 9000NDV FEW028 OVC058 04/02 Q1026 RMK WHT;
0159066099999992011011822504+47400+008650AUTO +0448LSMD V0209999C000010180019N0080001N1+00401+00201999999ADDGA1021+009001999GA2081+018001999GF108991999999999999999999MA1102611999999REMMET074METAR LSMD 182250Z AUTO 00000KT 8000NDV FEW030 OVC068 04/02 Q1026 RMK WHT;
0159066099999992011011823504+47400+008650AUTO +0448LSMD V0209999C000010180019N0060001N1+00401+00201999999ADDGA1041+015001999GA2071+018001999GF107991999999999999999999MA1102611999999REMMET074METAR LSMD 182350Z AUTO 00000KT 6000NDV SCT052 BKN068 04/02 Q1026 RMK GRN;
0168066099999992011011900504+47400+008650AUTO +0448LSMD V0209999C000010105019N0045001N1+00201+00101999999ADDAW1101GA1071+010501999GA2081+018001999GF108991999999999999999999MA1102611999999REMMET077METAR LSMD 190050Z AUTO 00000KT 4500NDV BR BKN035 OVC069 02/01 Q1026 RMK GRN;
0159066099999992011011901504+47400+008650AUTO +0448LSMD V0209999C000010210019N0080001N1+00301+00201999999ADDGA1041+012601999GA2081+021001999GF108991999999999999999999MA1102611999999REMMET074METAR LSMD 190150Z AUTO 00000KT 8000NDV SCT042 OVC072 03/02 Q1026 RMK WHT;
0159066099999992011011902504+47400+008650AUTO +0448LSMD V0209999V001012200019N0060001N1+00201+00101999999ADDGA1021+010801999GA2041+018001999GF104991999999999999999999MA1102611999999REMMET074METAR LSMD 190250Z AUTO VRB02KT 6000NDV FEW036 SCT067 02/01 Q1026 RMK GRN;
0144066099999992011011903504+47400+008650AUTO +0448LSMD V0201001N001510180019N0060001N1+00101+00001999999ADDGA1071+018001999GF107991999999999999999999MA1102611999999REMMET075METAR LSMD 190350Z AUTO 10003KT 010V120 6000NDV BKN067 01/00 Q1026 RMK GRN;
0137066099999992011011904504+47400+008650AUTO +0448LSMD V0209999V000510210019N0060001N1+00101+00001999999ADDGA1081+021001999GF108991999999999999999999MA1102611999999REMMET068METAR LSMD 190450Z AUTO VRB01KT 6000NDV OVC078 01/M00 Q1026 RMK GRN;
0174066099999992011011905504+47400+008650FM-15+0448LSMD V0209999C000010210019N0080001N1+00201+00101999999ADDGA1021+006001999GA2071+021001999GA3081+027001999GF108991999999999999999999MA1102611999999REMMET073METAR LSMD 190550Z 00000KT 8000 FEW020 BKN074 OVC090 02/01 Q1026 RMK WHT;
0128066099999992011011906504+47400+008650FM-15+0448LSMD V0209999C000010060019N0112651N1+00201+00101999999ADDGA1071+006001999GF107991999999999999999999MA1102611999999REMMET059METAR LSMD 190650Z 00000KT 9999 BKN020 02/01 Q1026 RMK GRN;
0152066099999992011011907504+47400+008650FM-15+0448LSMD V0200201N002110027019N0042001N1+00201+00001999999ADDGA1091+002701999GF109991999999000251999999MA1102711999999MW1631MW2731REMMET071METAR LSMD 190750Z 02004KT 300V110 4200 RASN VV009 02/00 Q1027 RMK YLO;
0161066099999992011011908504+47400+008650FM-15+0448LSMD V0209999C000010078019N0112651N1+00101+00001999999ADDGA1021+001501999GA2081+007801999GF108991999999999999999999MA1102711999999MW1611REMMET070METAR LSMD 190850Z 00000KT 9999 -RA FEW005 OVC026 01/00 Q1027 RMK WHT;
0192066099999992011011909504+47400+008650FM-15+0448LSMD V0209999V001010033019N0060001N1+00101+00001999999ADDGA1041+001501999GA2071+003301999GA3081+004801999GF108991999999999999999999MA1102811999999MW1611MW2711REMMET079METAR LSMD 190950Z VRB02KT 6000 -RASN SCT005 BKN011 OVC016 01/00 Q1028 RMK GRN;
0184066099999992011011910504+47400+008650FM-15+0448LSMD V0209999C000010063019N0112651N1+00201+00101999999ADDGA1021+000901999GA2071+006301999GA3081+007201999GF108991999999999999999999MA1102811999999MW1611REMMET077METAR LSMD 191050Z 00000KT 9999 -RA FEW003 BKN021 OVC024 02/01 Q1028 RMK WHT;
0194066099999992011011911504+47400+008650AUTO +0448LSMD V0209999C00001006901CN0112651N1+00201+00101999999ADDAW1811GA1021+002101999GA2041+006901999GA3081+008401999GF108991999999999999999999MA1102811999999REMMET087METAR LSMD 191150Z AUTO 00000KT 9999NDV -SHRA FEW007 SCT023 OVC028 02/01 Q1028 RMK WHT;
0186066099999992011011912504+47400+008650FM-15+0448LSMD V0209999C00001008401CN0090001N1+00201+00001999999ADDGA1021+003301999GA2041+008401999GA3081+010201999GF108991999999999999999999MA1102711999999MW1801REMMET079METAR LSMD 191250Z 00000KT 9000 -SHRA FEW011 SCT028 OVC034 02/00 Q1027 RMK WHT;
0151066099999992011011913504+47400+008650FM-15+0448LSMD V0209999C000010102019N0112651N1+00301+00001999999ADDGA1071+010201999GA2081+018001999GF108991999999999999999999MA1102711999999REMMET066METAR LSMD 191350Z 00000KT 9999 BKN034 OVC061 03/00 Q1027 RMK WHT;
0175066099999992011011914504+47400+008650FM-15+0448LSMD V0209999V001010144019N0112651N1+00301+00001999999ADDGA1021+006901999GA2071+014401999GA3071+018001999GF107991999999999999999999MA1102711999999REMMET074METAR LSMD 191450Z VRB02KT 9999 FEW023 BKN048 BKN061 03/M00 Q1027 RMK WHT;
0152066099999992011011915504+47400+008650FM-15+0448LSMD V0209999V001010150019N0112651N1+00301-00101999999ADDGA1021+006901999GA2081+015001999GF108991999999999999999999MA1102711999999REMMET067METAR LSMD 191550Z VRB02KT 9999 FEW023 OVC058 03/M01 Q1027 RMK WHT;
0137066099999992011011916504+47400+008650AUTO +0448LSMD V0209999C000010180019N0112651N1+00201-00101999999ADDGA1081+018001999GF108991999999999999999999MA1102711999999REMMET068METAR LSMD 191650Z AUTO 00000KT 9999NDV OVC061 02/M01 Q1027 RMK WHT;
0160066099999992011011917504+47400+008650AUTO +0448LSMD V0209999C000010180019N0112651N1+00101-00101999999ADDGA1021+011701999GA2081+018001999GF108991999999999999999999MA1102811999999REMMET075METAR LSMD 191750Z AUTO 00000KT 9999NDV FEW039 OVC066 01/M01 Q1028 RMK WHT;
0195066099999992011011918504+47400+008650AUTO +0448LSMD V0203301N00311005701CN0050001N1+00101-00101999999ADDAW1671GA1021+003901999GA2041+005701999GA3081+008101999GF108991999999999999999999MA1102811999999REMMET088METAR LSMD 191850Z AUTO 33006KT 5000NDV -RASN FEW013 SCT019 OVC027 01/M01 Q1028 RMK GRN;
0201066099999992011011919504+47400+008650AUTO +0448LSMD V0200601N001510084019N0060001N1+00101-00101999999ADDAW1711GA1021+003601999GA2071+008401999GA3081+021001999GF108991999999999999999999MA1102811999999REMMET094METAR LSMD 191950Z AUTO 06003KT 010V090 6000NDV -SN FEW012 BKN028 OVC077 01/M01 Q1028 RMK GRN;
