0128066040999992010010100004+47000+006950FM-12+0487LSGN V0200901N000519999999N9999999N1+00551+00481099281ADDMA1999999093571MD1710111+9999OA149900411REMSYN076AAXX  01004 06604 33/// /0901 10055 20048 39357 49928 57011 333 91108 91204;
0128066040999992010010101004+47000+006950FM-12+0487LSGN V0209999C000019999999N9999999N1+00551+00481099211ADDMA1999999093511MD1710131+9999OA149900101REMSYN076AAXX  01014 06604 33/// /0000 10055 20048 39351 49921 57013 333 91102 91202;
0128066040999992010010102004+47000+006950FM-12+0487LSGN V0200801N000519999999N9999999N1+00541+00501099201ADDMA1999999093491MD1719999+9999OA149900151REMSYN076AAXX  01024 06604 33/// /0801 10054 20050 39349 49920 57/// 333 91103 91202;
0087066040999992010010103004+47000+006950FM-12+0487LSGN V0200601N000519999999N9999999N1+00511+00451099121ADDMA1999999093411REMSYN060AAXX  01034 06604 43/// /0601 10051 20045 39341 49912 5////;
0087066040999992010010104004+47000+006950FM-12+0487LSGN V0201101N001519999999N9999999N1+00511+00471099071ADDMA1999999093371REMSYN060AAXX  01044 06604 33/// /1103 10051 20047 39337 49907 5////;
0128066040999992010010105004+47000+006950FM-12+0487LSGN V0200701N000519999999N9999999N1+00501+00461099071ADDMA1999999093361MD1710131+9999OA149900261REMSYN076AAXX  01054 06604 33/// /0701 10050 20046 39336 49907 57013 333 91105 91203;
0206066040999992010010106004+47000+006950FM-12+0487LSGN V0201401N000519999999N9999999N1+00481+00441099061ADDAA124009791AL13600991GJ100129IA2999+00409KA1999N+00481MA1999999093351MD1710061+9999OA149900261REMSYN100AAXX  01064 06604 33/// /1401 10048 20044 39335 49906 57006 333 20048 3/004 55002 70096 91105 91203;
0128066040999992010010107004+47000+006950FM-12+0487LSGN V0200901N001019999999N9999999N1+00391+00391099071ADDMA1999999093341MD1710031+9999OA149900151REMSYN076AAXX  01074 06604 33/// /0902 10039 20039 39334 49907 57003 333 91103 91202;
0128066040999992010010108004+47000+006950FM-12+0487LSGN V0200601N000519999999N9999999N1+00381+00361099131ADDMA1999999093401MD1310041+9999OA149900211REMSYN076AAXX  01084 06604 33/// /0601 10038 20036 39340 49913 53004 333 91104 91202;
0128066040999992010010109004+47000+006950FM-12+0487LSGN V0200901N001519999999N9999999N1+00381+00361099191ADDMA1999999093451MD1210101+9999OA149900261REMSYN076AAXX  01094 06604 33/// /0903 10038 20036 39345 49919 52010 333 91105 91203;
0128066040999992010010110004+47000+006950FM-12+0487LSGN V0201101N001019999999N9999999N1+00361+00361099271ADDMA1999999093521MD1210181+9999OA149900261REMSYN076AAXX  01104 06604 33/// /1102 10036 20036 39352 49927 52018 333 91105 91203;
0128066040999992010010111004+47000+006950FM-12+0487LSGN V0201101N001019999999N9999999N1+00381+00371099261ADDMA1999999093521MD1210121+9999OA149900261REMSYN076AAXX  01114 06604 33/// /1102 10038 20037 39352 49926 52012 333 91105 91203;
0128066040999992010010112004+47000+006950FM-12+0487LSGN V0201401N001019999999N9999999N1+00391+00361099281ADDMA1999999093541MD1210091+9999OA149900261REMSYN076AAXX  01124 06604 33/// /1402 10039 20036 39354 49928 52009 333 91105 91203;
0128066040999992010010113004+47000+006950FM-12+0487LSGN V0200801N001019999999N9999999N1+00421+00381099321ADDMA1999999093581MD1310061+9999OA149900211REMSYN076AAXX  01134 06604 33/// /0802 10042 20038 39358 49932 53006 333 91104 91203;
0128066040999992010010114004+47000+006950FM-12+0487LSGN V0202001N000519999999N9999999N1+00441+00391099401ADDMA1999999093661MD1219999+9999OA149900151REMSYN076AAXX  01144 06604 33/// /2001 10044 20039 39366 49940 52/// 333 91103 91202;
0145066040999992010010115004+47000+006950FM-12+0487LSGN V0203201N007219999999N9999999N1+00431+00111099521ADDAA101002091MA1999999093771MD1310231+9999OA149901541REMSYN082AAXX  01154 06604 23/// /3214 10043 20011 39377 49952 53023 333 60025 91130 91214;
0145066040999992010010116004+47000+006950FM-12+0487LSGN V0203201N010319999999N9999999N1+00391-00051099611ADDAA101000391MA1999999093851MD1110271+9999OA149901901REMSYN082AAXX  01164 06604 23/// /3220 10039 21005 39385 49961 51027 333 69935 91137 91220;
0128066040999992010010117004+47000+006950FM-12+0487LSGN V0202801N008219999999N9999999N1+00361-00101099871ADDMA1999999094091MD1310431+9999OA149901901REMSYN076AAXX  01174 06604 33/// /2816 10036 21010 39409 49987 53043 333 91137 91220;
0170066040999992010010118004+47000+006950FM-12+0487LSGN V0202501N003619999999N9999999N1+00281-00131100141ADDAA112002091KA1120M+00481MA1999999094331MD1310561+9999OA149901901REMSYN094AAXX  01184 06604 03/// /2507 10028 21013 39433 40014 53056 60022 333 10048 60005 91137 91220;
0128066040999992010010119004+47000+006950FM-12+0487LSGN V0202601N004119999999N9999999N1+00221-00241100321ADDMA1999999094481MD1110631+9999OA149901291REMSYN076AAXX  01194 06604 33/// /2608 10022 21024 39448 40032 51063 333 91125 91216;
0128066040999992010010120004+47000+006950FM-12+0487LSGN V0202501N003119999999N9999999N1+00191-00251100471ADDMA1999999094621MD1110531+9999OA149901081REMSYN076AAXX  01204 06604 33/// /2506 10019 21025 39462 40047 51053 333 91121 91210;
0128066040999992010010121004+47000+006950FM-12+0487LSGN V0202301N004119999999N9999999N1+00161-00281100601ADDMA1999999094731MD1210401+9999OA149901901REMSYN076AAXX  01214 06604 33/// /2308 10016 21028 39473 40060 52040 333 91137 91220;
0128066040999992010010122004+47000+006950FM-12+0487LSGN V0203101N007219999999N9999999N1+00071-00431100661ADDMA1999999094771MD1210291+9999OA149901651REMSYN076AAXX  01224 06604 33/// /3114 10007 21043 39477 40066 52029 333 91132 91218;
0128066040999992010010123004+47000+006950FM-12+0487LSGN V0203001N007219999999N9999999N1+00011-00551100791ADDMA1999999094881MD1210261+9999OA149901651REMSYN076AAXX  01234 06604 33/// /3014 10001 21055 39488 40079 52026 333 91132 91218;
0128066040999992010010200004+47000+006950FM-12+0487LSGN V0203001N008719999999N9999999N1+00011-00571100851ADDMA1999999094941MD1210211+9999OA149901901REMSYN076AAXX  02004 06604 33/// /3017 10001 21057 39494 40085 52021 333 91137 91220;
0128066040999992010010201004+47000+006950FM-12+0487LSGN V0202901N008719999999N9999999N1-00011-00651100981ADDMA1999999095061MD1310291+9999OA149901901REMSYN076AAXX  02014 06604 33/// /2917 11001 21065 39506 40098 53029 333 91137 91219;
0087066040999992010010202004+47000+006950FM-12+0487LSGN V0202901N007719999999N9999999N1-00011-00781101091ADDMA1999999095161REMSYN060AAXX  02024 06604 33/// /2915 11001 21078 39516 40109 5////;
0128066040999992010010203004+47000+006950FM-12+0487LSGN V0203001N006719999999N9999999N1-00071-00741101261ADDMA1999999095311MD1310371+9999OA149901901REMSYN076AAXX  02034 06604 33/// /3013 11007 21074 39531 40126 53037 333 91137 91219;
0128066040999992010010204004+47000+006950FM-12+0487LSGN V0202901N004619999999N9999999N1-00101-00581101391ADDMA1999999095421MD1110361+9999OA149901491REMSYN076AAXX  02044 06604 33/// /2909 11010 21058 39542 40139 51036 333 91129 91213;
0128066040999992010010205004+47000+006950FM-12+0487LSGN V0203001N003619999999N9999999N1-00131-00621101461ADDMA1999999095481MD1110321+9999OA149901031REMSYN076AAXX  02054 06604 33/// /3007 11013 21062 39548 40146 51032 333 91120 91211;
0206066040999992010010206004+47000+006950FM-12+0487LSGN V0202901N002119999999N9999999N1-00141-00551101561ADDAA124002091AL10600291GJ100009IA2999-00309KA1999N-00161MA1999999095571MD1210261+9999OA149901901REMSYN100AAXX  02064 06604 33/// /2904 11014 21055 39557 40156 52026 333 21016 3/103 55000 70021 91137 91219;
0128066040999992010010207004+47000+006950FM-12+0487LSGN V0202601N003119999999N9999999N1-00131-00791101651ADDMA1999999095661MD1310241+9999OA149900881REMSYN076AAXX  02074 06604 33/// /2606 11013 21079 39566 40165 53024 333 91117 91209;
0087066040999992010010208004+47000+006950FM-12+0487LSGN V0202601N001019999999N9999999N1-00151-00901101741ADDMA1999999095741REMSYN060AAXX  02084 06604 33/// /2602 11015 21090 39574 40174 5////;
0128066040999992010010209004+47000+006950FM-12+0487LSGN V0202401N001019999999N9999999N1-00101-00961101871ADDMA1999999095871MD1210301+9999OA149901031REMSYN076AAXX  02094 06604 33/// /2402 11010 21096 39587 40187 52030 333 91120 91211;
0128066040999992010010210004+47000+006950FM-12+0487LSGN V0203101N001519999999N9999999N1-00021-00851101931ADDMA1999999095951MD1210291+9999OA149900771REMSYN076AAXX  02104 06604 33/// /3103 11002 21085 39595 40193 52029 333 91115 91208;
0128066040999992010010211004+47000+006950FM-12+0487LSGN V0202901N002619999999N9999999N1-00061-00871101981ADDMA1999999095991MD1210251+9999OA149900881REMSYN076AAXX  02114 06604 33/// /2905 11006 21087 39599 40198 52025 333 91117 91209;
0128066040999992010010212004+47000+006950FM-12+0487LSGN V0203001N001519999999N9999999N1-00031-00991102021ADDMA1999999096031MD1210161+9999OA149901751REMSYN076AAXX  02124 06604 33/// /3003 11003 21099 39603 40202 52016 333 91134 91217;
0128066040999992010010213004+47000+006950FM-12+0487LSGN V0202801N003619999999N9999999N1-00011-01051102071ADDMA1999999096081MD1210131+9999OA149900771REMSYN076AAXX  02134 06604 33/// /2807 11001 21105 39608 40207 52013 333 91115 91208;
0128066040999992010010214004+47000+006950FM-12+0487LSGN V0202601N002619999999N9999999N1-00051-01061102121ADDMA1999999096121MD1219999+9999OA149900881REMSYN076AAXX  02144 06604 33/// /2605 11005 21106 39612 40212 52/// 333 91117 91207;
0128066040999992010010215004+47000+006950FM-12+0487LSGN V0202701N003619999999N9999999N1-00091-01001102251ADDMA1999999096231MD1310201+9999OA149900881REMSYN076AAXX  02154 06604 33/// /2707 11009 21100 39623 40225 53020 333 91117 91209;
0128066040999992010010216004+47000+006950FM-12+0487LSGN V0203201N003119999999N9999999N1-00191-00971102341ADDMA1999999096301MD1310221+9999OA149900771REMSYN076AAXX  02164 06604 33/// /3206 11019 21097 39630 40234 53022 333 91115 91209;
0128066040999992010010217004+47000+006950FM-12+0487LSGN V0203201N003619999999N9999999N1-00231-01021102401ADDMA1999999096341MD1110221+9999OA149900821REMSYN076AAXX  02174 06604 33/// /3207 11023 21102 39634 40240 51022 333 91116 91209;
0147066040999992010010218004+47000+006950FM-12+0487LSGN V0203401N001519999999N9999999N1-00241-01061102441ADDKA1120M+00041MA1999999096381MD1110151+9999OA149900881REMSYN082AAXX  02184 06604 33/// /3403 11024 21106 39638 40244 51015 333 10004 91117 91209;
0128066040999992010010219004+47000+006950FM-12+0487LSGN V0203201N001519999999N9999999N1-00261-01001102461ADDMA1999999096391MD1210091+9999OA149900571REMSYN076AAXX  02194 06604 33/// /3203 11026 21100 39639 40246 52009 333 91111 91206;
0128066040999992010010220004+47000+006950FM-12+0487LSGN V0203101N001019999999N9999999N1-00321-00901102461ADDMA1999999096381MD1210041+9999OA149900571REMSYN076AAXX  02204 06604 33/// /3102 11032 21090 39638 40246 52004 333 91111 91206;
0128066040999992010010221004+47000+006950FM-12+0487LSGN V0203101N001519999999N9999999N1-00331-00951102461ADDMA1999999096381MD1710021+9999OA149900821REMSYN076AAXX  02214 06604 33/// /3103 11033 21095 39638 40246 57000 333 91116 91209;
0128066040999992010010222004+47000+006950FM-12+0487LSGN V0203501N001519999999N9999999N1-00411-00881102511ADDMA1999999096411MD1310021+9999OA149900311REMSYN076AAXX  02224 06604 33/// /3503 11041 21088 39641 40251 53002 333 91106 91204;
0128066040999992010010223004+47000+006950FM-12+0487LSGN V0203501N001019999999N9999999N1-00441-00891102561ADDMA1999999096451MD1310071+9999OA149900311REMSYN076AAXX  02234 06604 33/// /3502 11044 21089 39645 40256 53007 333 91106 91204;
0128066040999992010010300004+47000+006950FM-12+0487LSGN V0202901N001519999999N9999999N1-00481-00861102541ADDMA1999999096421MD1010041+9999OA149900881REMSYN076AAXX  03004 06604 33/// /2903 11048 21086 39642 40254 50004 333 91117 91209;
0128066040999992010010301004+47000+006950FM-12+0487LSGN V0200101N001019999999N9999999N1-00471-00881102541ADDMA1999999096421MD1810011+9999OA149900211REMSYN076AAXX  03014 06604 33/// /0102 11047 21088 39642 40254 58001 333 91104 91203;
0087066040999992010010302004+47000+006950FM-12+0487LSGN V0200401N001519999999N9999999N1-00491-00831102571ADDMA1999999096451REMSYN060AAXX  03024 06604 33/// /0403 11049 21083 39645 40257 5////;
0087066040999992010010303004+47000+006950FM-12+0487LSGN V0200501N001519999999N9999999N1-00501-00821102531ADDMA1999999096411REMSYN060AAXX  03034 06604 33/// /0503 11050 21082 39641 40253 5////;
0128066040999992010010304004+47000+006950FM-12+0487LSGN V0203301N001019999999N9999999N1-00511-00841102531ADDMA1999999096401MD1810021+9999OA149900261REMSYN076AAXX  03044 06604 33/// /3302 11051 21084 39640 40253 58002 333 91105 91204;
0128066040999992010010305004+47000+006950FM-12+0487LSGN V0200201N001019999999N9999999N1-00551-00871102471ADDMA1999999096341MD1719999+9999OA149900261REMSYN076AAXX  03054 06604 33/// /0202 11055 21087 39634 40247 57/// 333 91105 91204;
0225066040999992010010306004+47000+006950FM-12+0487LSGN V0200401N001019999999N9999999N1-00531-00841102451ADDAA124000091AL19900091GJ104329IA2999-00809KA1999N-00571MA1999999096321MD1710091+9999OA149900571REMSYN100AAXX  03064 06604 33/// /0402 11053 21084 39632 40245 57009 333 21057 3/108 55072 70000 91111 91206;EQDQ01  00002PRCP24
0128066040999992010010307004+47000+006950FM-12+0487LSGN V0200501N001019999999N9999999N1-00551-00861102461ADDMA1999999096331MD1510071+9999OA149900211REMSYN076AAXX  03074 06604 33/// /0502 11055 21086 39633 40246 55007 333 91104 91203;
0128066040999992010010308004+47000+006950FM-12+0487LSGN V0200501N001019999999N9999999N1-00511-00811102491ADDMA1999999096371MD1319999+9999OA149900211REMSYN076AAXX  03084 06604 33/// /0502 11051 21081 39637 40249 53/// 333 91104 91203;
0128066040999992010010309004+47000+006950FM-12+0487LSGN V0200601N001019999999N9999999N1-00451-00771102491ADDMA1999999096381MD1210061+9999OA149900261REMSYN076AAXX  03094 06604 33/// /0602 11045 21077 39638 40249 52006 333 91105 91204;
0128066040999992010010310004+47000+006950FM-12+0487LSGN V0201201N001519999999N9999999N1-00271-00691102411ADDMA1999999096341MD1010011+9999OA149900261REMSYN076AAXX  03104 06604 33/// /1203 11027 21069 39634 40241 50001 333 91105 91203;
0128066040999992010010311004+47000+006950FM-12+0487LSGN V0201301N001519999999N9999999N1-00251-00691102351ADDMA1999999096291MD1710081+9999OA149900311REMSYN076AAXX  03114 06604 33/// /1303 11025 21069 39629 40235 57008 333 91106 91203;
0128066040999992010010312004+47000+006950FM-12+0487LSGN V0201301N001019999999N9999999N1-00231-00721102261ADDMA1999999096211MD1710171+9999OA149900311REMSYN076AAXX  03124 06604 33/// /1302 11023 21072 39621 40226 57017 333 91106 91204;
0128066040999992010010313004+47000+006950FM-12+0487LSGN V0201401N001019999999N9999999N1-00261-00711102211ADDMA1999999096161MD1710181+9999OA149900311REMSYN076AAXX  03134 06604 33/// /1402 11026 21071 39616 40221 57018 333 91106 91203;
0128066040999992010010314004+47000+006950FM-12+0487LSGN V0202201N001019999999N9999999N1-00231-00631102231ADDMA1999999096181MD1710111+9999OA149900261REMSYN076AAXX  03144 06604 33/// /2202 11023 21063 39618 40223 57011 333 91105 91203;
0128066040999992010010315004+47000+006950FM-12+0487LSGN V0202301N001019999999N9999999N1-00241-00611102231ADDMA1999999096181MD1710031+9999OA149900311REMSYN076AAXX  03154 06604 33/// /2302 11024 21061 39618 40223 57003 333 91106 91203;
0128066040999992010010316004+47000+006950FM-12+0487LSGN V0203401N001019999999N9999999N1-00301-00621102201ADDMA1999999096141MD1810021+9999OA149900211REMSYN076AAXX  03164 06604 33/// /3402 11030 21062 39614 40220 58002 333 91104 91203;
0128066040999992010010317004+47000+006950FM-12+0487LSGN V0203201N001519999999N9999999N1-00381-00671102191ADDMA1999999096111MD1710071+9999OA149900211REMSYN076AAXX  03174 06604 33/// /3203 11038 21067 39611 40219 57007 333 91104 91203;
0147066040999992010010318004+47000+006950FM-12+0487LSGN V0203001N001519999999N9999999N1-00431-00701102211ADDKA1120M-00201MA1999999096121MD1710061+9999OA149900311REMSYN082AAXX  03184 06604 33/// /3003 11043 21070 39612 40221 57006 333 11020 91106 91203;
0128066040999992010010319004+47000+006950FM-12+0487LSGN V0200301N001519999999N9999999N1-00461-00741102161ADDMA1999999096071MD1710071+9999OA149900261REMSYN076AAXX  03194 06604 33/// /0303 11046 21074 39607 40216 57007 333 91105 91203;
0128066040999992010010320004+47000+006950FM-12+0487LSGN V0200301N001019999999N9999999N1-00501-00811102161ADDMA1999999096061MD1710051+9999OA149900261REMSYN076AAXX  03204 06604 33/// /0302 11050 21081 39606 40216 57005 333 91105 91203;
0128066040999992010010321004+47000+006950FM-12+0487LSGN V0200101N001019999999N9999999N1-00541-00911102131ADDMA1999999096021MD1710101+9999OA149900261REMSYN076AAXX  03214 06604 33/// /0102 11054 21091 39602 40213 57010 333 91105 91203;
0128066040999992010010322004+47000+006950FM-12+0487LSGN V0203301N000519999999N9999999N1-00541-00951102121ADDMA1999999096011MD1710061+9999OA149900311REMSYN076AAXX  03224 06604 33/// /3301 11054 21095 39601 40212 57006 333 91106 91205;
0128066040999992010010323004+47000+006950FM-12+0487LSGN V0200601N002119999999N9999999N1-00521-00931102071ADDMA1999999095971MD1710091+9999OA149900311REMSYN076AAXX  03234 06604 33/// /0604 11052 21093 39597 40207 57009 333 91106 91205;
0128066040999992010010400004+47000+006950FM-12+0487LSGN V0200501N001519999999N9999999N1-00561-00871102021ADDMA1999999095911MD1710111+9999OA149900311REMSYN076AAXX  04004 06604 33/// /0503 11056 21087 39591 40202 57011 333 91106 91205;
0128066040999992010010401004+47000+006950FM-12+0487LSGN V0200701N001019999999N9999999N1-00601-00891101931ADDMA1999999095821MD1710191+9999OA149900311REMSYN076AAXX  04014 06604 33/// /0702 11060 21089 39582 40193 57019 333 91106 91204;
0128066040999992010010402004+47000+006950FM-12+0487LSGN V0200301N002119999999N9999999N1-00581-00811101921ADDMA1999999095811MD1710161+9999OA149900311REMSYN076AAXX  04024 06604 33/// /0304 11058 21081 39581 40192 57016 333 91106 91204;
0128066040999992010010403004+47000+006950FM-12+0487LSGN V0200101N000519999999N9999999N1-00541-00841101861ADDMA1999999095771MD1719999+9999OA149900311REMSYN076AAXX  04034 06604 33/// /0101 11054 21084 39577 40186 57/// 333 91106 91205;
0128066040999992010010404004+47000+006950FM-12+0487LSGN V0200501N001019999999N9999999N1-00501-00751101801ADDMA1999999095721MD1710101+9999OA149900211REMSYN076AAXX  04044 06604 33/// /0502 11050 21075 39572 40180 57010 333 91104 91203;
0128066040999992010010405004+47000+006950FM-12+0487LSGN V0200401N000519999999N9999999N1-00511-00711101811ADDMA1999999095731MD1710081+9999OA149900211REMSYN076AAXX  04054 06604 33/// /0401 11051 21071 39573 40181 57008 333 91104 91203;
0225066040999992010010406004+47000+006950FM-12+0487LSGN V0200601N001019999999N9999999N1-00491-00721101781ADDAA124000091AL19900091GJ102709IA2999-00909KA1999N-00641MA1999999095701MD1710071+9999OA149900311REMSYN100AAXX  04064 06604 33/// /0602 11049 21072 39570 40178 57007 333 21064 3/109 55045 70000 91106 91205;EQDQ01  00002PRCP24
0128066040999992010010407004+47000+006950FM-12+0487LSGN V0200601N001519999999N9999999N1-00481-00731101761ADDMA1999999095691MD1710031+9999OA149900311REMSYN076AAXX  04074 06604 33/// /0603 11048 21073 39569 40176 57003 333 91106 91203;
0128066040999992010010408004+47000+006950FM-12+0487LSGN V0200601N001019999999N9999999N1-00441-00721101751ADDMA1999999095691MD1710041+9999OA149900311REMSYN076AAXX  04084 06604 33/// /0602 11044 21072 39569 40175 57004 333 91106 91203;
0128066040999992010010409004+47000+006950FM-12+0487LSGN V0200901N001019999999N9999999N1-00381-00601101741ADDMA1999999095691MD1710011+9999OA149900311REMSYN076AAXX  04094 06604 33/// /0902 11038 21060 39569 40174 57001 333 91106 91203;
0128066040999992010010410004+47000+006950FM-12+0487LSGN V0200701N000519999999N9999999N1-00351-00611101711ADDMA1999999095671MD1710021+9999OA149900211REMSYN076AAXX  04104 06604 33/// /0701 11035 21061 39567 40171 57002 333 91104 91202;
0128066040999992010010411004+47000+006950FM-12+0487LSGN V0200701N001019999999N9999999N1-00321-00631101641ADDMA1999999095611MD1710081+9999OA149900151REMSYN076AAXX  04114 06604 33/// /0702 11032 21063 39561 40164 57008 333 91103 91202;
0128066040999992010010412004+47000+006950FM-12+0487LSGN V0200801N002119999999N9999999N1-00281-00681101561ADDMA1999999095541MD1810151+9999OA149900411REMSYN076AAXX  04124 06604 33/// /0804 11028 21068 39554 40156 58015 333 91108 91205;
0128066040999992010010413004+47000+006950FM-12+0487LSGN V0200901N002119999999N9999999N1-00231-00901101461ADDMA1999999095461MD1610211+9999OA149900461REMSYN076AAXX  04134 06604 33/// /0904 11023 21090 39546 40146 56021 333 91109 91206;
0128066040999992010010414004+47000+006950FM-12+0487LSGN V0200701N001519999999N9999999N1-00231-00861101421ADDMA1999999095421MD1619999+9999OA149900461REMSYN076AAXX  04144 06604 33/// /0703 11023 21086 39542 40142 56/// 333 91109 91206;
0128066040999992010010415004+47000+006950FM-12+0487LSGN V0200601N001519999999N9999999N1-00241-00841101431ADDMA1999999095431MD1710111+9999OA149900461REMSYN076AAXX  04154 06604 33/// /0603 11024 21084 39543 40143 57011 333 91109 91206;
0128066040999992010010416004+47000+006950FM-12+0487LSGN V0200501N001519999999N9999999N1-00251-00821101391ADDMA1999999095391MD1710071+9999OA149900361REMSYN076AAXX  04164 06604 33/// /0503 11025 21082 39539 40139 57007 333 91107 91205;
0128066040999992010010417004+47000+006950FM-12+0487LSGN V0200701N001519999999N9999999N1-00251-00841101381ADDMA1999999095381MD1710041+9999OA149900361REMSYN076AAXX  04174 06604 33/// /0703 11025 21084 39538 40138 57004 333 91107 91205;
0147066040999992010010418004+47000+006950FM-12+0487LSGN V0200601N001519999999N9999999N1-00261-00761101361ADDKA1120M-00231MA1999999095361MD1810071+9999OA149900461REMSYN082AAXX  04184 06604 33/// /0603 11026 21076 39536 40136 58007 333 11023 91109 91206;
0128066040999992010010419004+47000+006950FM-12+0487LSGN V0200601N001519999999N9999999N1-00251-00811101361ADDMA1999999095361MD1710031+9999OA149900411REMSYN076AAXX  04194 06604 33/// /0603 11025 21081 39536 40136 57003 333 91108 91205;
0128066040999992010010420004+47000+006950FM-12+0487LSGN V0200601N003119999999N9999999N1-00231-00811101321ADDMA1999999095331MD1710051+9999OA149900511REMSYN076AAXX  04204 06604 33/// /0606 11023 21081 39533 40132 57005 333 91110 91206;
0128066040999992010010421004+47000+006950FM-12+0487LSGN V0200701N003619999999N9999999N1-00251-00741101321ADDMA1999999095321MD1710041+9999OA149900571REMSYN076AAXX  04214 06604 33/// /0707 11025 21074 39532 40132 57004 333 91111 91207;
0128066040999992010010422004+47000+006950FM-12+0487LSGN V0200601N002119999999N9999999N1-00261-00701101301ADDMA1999999095301MD1710061+9999OA149900571REMSYN076AAXX  04224 06604 33/// /0604 11026 21070 39530 40130 57006 333 91111 91207;
0128066040999992010010423004+47000+006950FM-12+0487LSGN V0200601N002619999999N9999999N1-00271-00831101271ADDMA1999999095271MD1710061+9999OA149900461REMSYN076AAXX  04234 06604 33/// /0605 11027 21083 39527 40127 57006 333 91109 91206;
0128066040999992010010500004+47000+006950FM-12+0487LSGN V0200701N003119999999N9999999N1-00321-00811101231ADDMA1999999095221MD1710101+9999OA149900571REMSYN076AAXX  05004 06604 33/// /0706 11032 21081 39522 40123 57010 333 91111 91207;
0128066040999992010010501004+47000+006950FM-12+0487LSGN V0200901N003119999999N9999999N1-00321-00761101161ADDMA1999999095161MD1710141+9999OA149900571REMSYN076AAXX  05014 06604 33/// /0906 11032 21076 39516 40116 57014 333 91111 91207;
0128066040999992010010502004+47000+006950FM-12+0487LSGN V0200701N003619999999N9999999N1-00341-00741101121ADDMA1999999095121MD1710151+9999OA149900571REMSYN076AAXX  05024 06604 33/// /0707 11034 21074 39512 40112 57015 333 91111 91207;
0128066040999992010010503004+47000+006950FM-12+0487LSGN V0200701N003119999999N9999999N1-00361-00701101091ADDMA1999999095081MD1710141+9999OA149900621REMSYN076AAXX  05034 06604 33/// /0706 11036 21070 39508 40109 57014 333 91112 91208;
0128066040999992010010504004+47000+006950FM-12+0487LSGN V0200701N001519999999N9999999N1-00371-00721101001ADDMA1999999095001MD1710161+9999OA149900621REMSYN076AAXX  05044 06604 33/// /0703 11037 21072 39500 40100 57016 333 91112 91208;
0128066040999992010010505004+47000+006950FM-12+0487LSGN V0200701N002619999999N9999999N1-00371-00701100931ADDMA1999999094931MD1710191+9999OA149900571REMSYN076AAXX  05054 06604 33/// /0705 11037 21070 39493 40093 57019 333 91111 91207;
0225066040999992010010506004+47000+006950FM-12+0487LSGN V0200701N002119999999N9999999N1-00381-00691100881ADDAA124000091AL19900091GJ100009IA2999-00409KA1999N-00391MA1999999094881MD1710201+9999OA149900621REMSYN100AAXX  05064 06604 33/// /0704 11038 21069 39488 40088 57020 333 21039 3/104 55000 70000 91112 91208;EQDQ01  00002PRCP24
0128066040999992010010507004+47000+006950FM-12+0487LSGN V0200701N002619999999N9999999N1-00371-00681100841ADDMA1999999094851MD1610151+9999OA149900461REMSYN076AAXX  05074 06604 33/// /0705 11037 21068 39485 40084 56015 333 91109 91205;
0128066040999992010010508004+47000+006950FM-12+0487LSGN V0200801N002119999999N9999999N1-00351-00641100801ADDMA1999999094811MD1610121+9999OA149900411REMSYN076AAXX  05084 06604 33/// /0804 11035 21064 39481 40080 56012 333 91108 91205;
0128066040999992010010509004+47000+006950FM-12+0487LSGN V0200601N003119999999N9999999N1-00331-00631100791ADDMA1999999094811MD1710071+9999OA149900571REMSYN076AAXX  05094 06604 33/// /0606 11033 21063 39481 40079 57007 333 91111 91207;
0128066040999992010010510004+47000+006950FM-12+0487LSGN V0200801N002619999999N9999999N1-00311-00641100741ADDMA1999999094761MD1710091+9999OA149900621REMSYN076AAXX  05104 06604 33/// /0805 11031 21064 39476 40074 57009 333 91112 91207;
0128066040999992010010511004+47000+006950FM-12+0487LSGN V0200801N003119999999N9999999N1-00281-00631100651ADDMA1999999094691MD1710121+9999OA149900621REMSYN076AAXX  05114 06604 33/// /0806 11028 21063 39469 40065 57012 333 91112 91207;
0128066040999992010010512004+47000+006950FM-12+0487LSGN V0200801N003119999999N9999999N1-00321-00591100581ADDMA1999999094611MD1810201+9999OA149900621REMSYN076AAXX  05124 06604 33/// /0806 11032 21059 39461 40058 58020 333 91112 91208;
0128066040999992010010513004+47000+006950FM-12+0487LSGN V0200801N003119999999N9999999N1-00261-00481100471ADDMA1999999094521MD1810241+9999OA149900511REMSYN076AAXX  05134 06604 33/// /0806 11026 21048 39452 40047 58024 333 91110 91207;
0087066040999992010010514004+47000+006950FM-12+0487LSGN V0200801N002619999999N9999999N1-00261-00481100441ADDMA1999999094491REMSYN060AAXX  05144 06604 33/// /0805 11026 21048 39449 40044 5////;
0128066040999992010010515004+47000+006950FM-12+0487LSGN V0200801N002119999999N9999999N1-00241-00461100391ADDMA1999999094451MD1710161+9999OA149900621REMSYN076AAXX  05154 06604 33/// /0804 11024 21046 39445 40039 57016 333 91112 91207;
0128066040999992010010516004+47000+006950FM-12+0487LSGN V0200701N002619999999N9999999N1-00251-00481100371ADDMA1999999094431MD1710091+9999OA149900411REMSYN076AAXX  05164 06604 33/// /0705 11025 21048 39443 40037 57009 333 91108 91205;
0128066040999992010010517004+47000+006950FM-12+0487LSGN V0200701N002119999999N9999999N1-00231-00461100361ADDMA1999999094421MD1610071+9999OA149900411REMSYN076AAXX  05174 06604 33/// /0704 11023 21046 39442 40036 56007 333 91108 91205;
0147066040999992010010518004+47000+006950FM-12+0487LSGN V0200501N001519999999N9999999N1-00231-00501100331ADDKA1120M-00231MA1999999094401MD1810051+9999OA149900621REMSYN082AAXX  05184 06604 33/// /0503 11023 21050 39440 40033 58005 333 11023 91112 91207;
0128066040999992010010519004+47000+006950FM-12+0487LSGN V0200701N001519999999N9999999N1-00241-00481100311ADDMA1999999094381MD1710051+9999OA149900411REMSYN076AAXX  05194 06604 33/// /0703 11024 21048 39438 40031 57005 333 91108 91205;
0128066040999992010010520004+47000+006950FM-12+0487LSGN V0200601N001019999999N9999999N1-00231-00421100281ADDMA1999999094351MD1710071+9999OA149900411REMSYN076AAXX  05204 06604 33/// /0602 11023 21042 39435 40028 57007 333 91108 91204;
0128066040999992010010521004+47000+006950FM-12+0487LSGN V0200701N002119999999N9999999N1-00261-00431100271ADDMA1999999094331MD1710071+9999OA149900411REMSYN076AAXX  05214 06604 33/// /0704 11026 21043 39433 40027 57007 333 91108 91205;
0128066040999992010010522004+47000+006950FM-12+0487LSGN V0200701N002119999999N9999999N1-00281-00411100241ADDMA1999999094301MD1710081+9999OA149900411REMSYN076AAXX  05224 06604 33/// /0704 11028 21041 39430 40024 57008 333 91108 91205;
0128066040999992010010523004+47000+006950FM-12+0487LSGN V0200601N002119999999N9999999N1-00271-00391100201ADDMA1999999094271MD1710081+9999OA149900411REMSYN076AAXX  05234 06604 33/// /0604 11027 21039 39427 40020 57008 333 91108 91205;
0128066040999992010010600004+47000+006950FM-12+0487LSGN V0200701N002119999999N9999999N1-00281-00381100201ADDMA1999999094261MD1710071+9999OA149900511REMSYN076AAXX  06004 06604 33/// /0704 11028 21038 39426 40020 57007 333 91110 91206;
0128066040999992010010601004+47000+006950FM-12+0487LSGN V0200401N001519999999N9999999N1-00281-00371100191ADDMA1999999094251MD1710051+9999OA149900361REMSYN076AAXX  06014 06604 33/// /0403 11028 21037 39425 40019 57005 333 91107 91205;
0128066040999992010010602004+47000+006950FM-12+0487LSGN V0200801N001519999999N9999999N1-00261-00371100211ADDMA1999999094281MD1310011+9999OA149900311REMSYN076AAXX  06024 06604 33/// /0803 11026 21037 39428 40021 53001 333 91106 91203;
0128066040999992010010603004+47000+006950FM-12+0487LSGN V0200701N000519999999N9999999N1-00251-00391100191ADDMA1999999094261MD1510001+9999OA149900411REMSYN076AAXX  06034 06604 33/// /0701 11025 21039 39426 40019 55000 333 91108 91205;
0128066040999992010010604004+47000+006950FM-12+0487LSGN V0200601N000519999999N9999999N1-00261-00391100181ADDMA1999999094251MD1010001+9999OA149900261REMSYN076AAXX  06044 06604 33/// /0601 11026 21039 39425 40018 50000 333 91105 91203;
0128066040999992010010605004+47000+006950FM-12+0487LSGN V0200701N001519999999N9999999N1-00261-00391100181ADDMA1999999094251MD1510031+9999OA149900211REMSYN076AAXX  06054 06604 33/// /0703 11026 21039 39425 40018 55003 333 91104 91203;
0225066040999992010010606004+47000+006950FM-12+0487LSGN V0200601N000519999999N9999999N1-00241-00391100211ADDAA124000091AL19900091GJ100009IA2999-00409KA1999N-00291MA1999999094281MD1210021+9999OA149900411REMSYN100AAXX  06064 06604 33/// /0601 11024 21039 39428 40021 52002 333 21029 3/104 55000 70000 91108 91205;EQDQ01  00002PRCP24
0128066040999992010010607004+47000+006950FM-12+0487LSGN V0200601N001019999999N9999999N1-00221-00361100251ADDMA1999999094321MD1210071+9999OA149900211REMSYN076AAXX  06074 06604 33/// /0602 11022 21036 39432 40025 52007 333 91104 91203;
0128066040999992010010608004+47000+006950FM-12+0487LSGN V0200701N001519999999N9999999N1-00211-00331100291ADDMA1999999094361MD1210111+9999OA149900311REMSYN076AAXX  06084 06604 33/// /0703 11021 21033 39436 40029 52011 333 91106 91204;
0128066040999992010010609004+47000+006950FM-12+0487LSGN V0200701N002119999999N9999999N1-00211-00351100351ADDMA1999999094421MD1310141+9999OA149900411REMSYN076AAXX  06094 06604 33/// /0704 11021 21035 39442 40035 53014 333 91108 91205;
0128066040999992010010610004+47000+006950FM-12+0487LSGN V0200701N002119999999N9999999N1-00181-00361100381ADDMA1999999094451MD1210131+9999OA149900411REMSYN076AAXX  06104 06604 33/// /0704 11018 21036 39445 40038 52013 333 91108 91206;
0128066040999992010010611004+47000+006950FM-12+0487LSGN V0200701N002619999999N9999999N1-00181-00361100361ADDMA1999999094441MD1219999+9999OA149900411REMSYN076AAXX  06114 06604 33/// /0705 11018 21036 39444 40036 52/// 333 91108 91206;
0128066040999992010010612004+47000+006950FM-12+0487LSGN V0200801N002119999999N9999999N1-00131-00331100311ADDMA1999999094401MD1810021+9999OA149900411REMSYN076AAXX  06124 06604 33/// /0804 11013 21033 39440 40031 58002 333 91108 91206;
0128066040999992010010613004+47000+006950FM-12+0487LSGN V0200801N002119999999N9999999N1-00081-00311100311ADDMA1999999094411MD1710041+9999OA149900411REMSYN076AAXX  06134 06604 33/// /0804 11008 21031 39441 40031 57004 333 91108 91205;
0128066040999992010010614004+47000+006950FM-12+0487LSGN V0200701N002619999999N9999999N1-00081-00321100311ADDMA1999999094411MD1719999+9999OA149900361REMSYN076AAXX  06144 06604 33/// /0705 11008 21032 39441 40031 57/// 333 91107 91205;
0128066040999992010010615004+47000+006950FM-12+0487LSGN V0200701N002619999999N9999999N1-00091-00331100351ADDMA1999999094451MD1219999+9999OA149900411REMSYN076AAXX  06154 06604 33/// /0705 11009 21033 39445 40035 52/// 333 91108 91206;
0128066040999992010010616004+47000+006950FM-12+0487LSGN V0200701N002119999999N9999999N1-00101-00331100411ADDMA1999999094501MD1210091+9999OA149900411REMSYN076AAXX  06164 06604 33/// /0704 11010 21033 39450 40041 52009 333 91108 91205;
0128066040999992010010617004+47000+006950FM-12+0487LSGN V0200401N001519999999N9999999N1-00131-00331100471ADDMA1999999094551MD1110141+9999OA149900311REMSYN076AAXX  06174 06604 33/// /0403 11013 21033 39455 40047 51014 333 91106 91204;
0147066040999992010010618004+47000+006950FM-12+0487LSGN V0200301N001519999999N9999999N1-00171-00331100531ADDKA1120M-00071MA1999999094601MD1219999+9999OA149900411REMSYN082AAXX  06184 06604 33/// /0303 11017 21033 39460 40053 52/// 333 11007 91108 91206;
0128066040999992010010619004+47000+006950FM-12+0487LSGN V0200601N001519999999N9999999N1-00131-00301100561ADDMA1999999094631MD1310131+9999OA149900261REMSYN076AAXX  06194 06604 33/// /0603 11013 21030 39463 40056 53013 333 91105 91203;
0128066040999992010010620004+47000+006950FM-12+0487LSGN V0203401N000519999999N9999999N1-00121-00311100561ADDMA1999999094641MD1110091+9999OA149900261REMSYN076AAXX  06204 06604 33/// /3401 11012 21031 39464 40056 51009 333 91105 91203;
0128066040999992010010621004+47000+006950FM-12+0487LSGN V0202701N003619999999N9999999N1-00141-00391100631ADDMA1999999094701MD1310101+9999OA149900621REMSYN076AAXX  06214 06604 33/// /2707 11014 21039 39470 40063 53010 333 91112 91207;
0145066040999992010010622004+47000+006950FM-12+0487LSGN V0202501N001519999999N9999999N1-00171-00431100671ADDAA101000021MA1999999094731MD1210101+9999OA149900621REMSYN082AAXX  06224 06604 23/// /2503 11017 21043 39473 40067 52010 333 69915 91112 91207;
0128066040999992010010623004+47000+006950FM-12+0487LSGN V0202501N001519999999N9999999N1-00221-00511100701ADDMA1999999094751MD1210111+9999OA149900511REMSYN076AAXX  06234 06604 33/// /2503 11022 21051 39475 40070 52011 333 91110 91206;
0170066040999992010010700004+47000+006950FM-12+0487LSGN V0202901N002619999999N9999999N1-00231-00601100711ADDAA106000091MA1999999094751MD1210051+9999OA149900621REMSYN088AAXX  07004 06604 03/// /2905 11023 21060 39475 40071 52005 69911 333 60005 91112 91207;EQDQ01  00002PRCP06
0128066040999992010010701004+47000+006950FM-12+0487LSGN V0202901N003119999999N9999999N1-00241-00471100721ADDMA1999999094761MD1210031+9999OA149900411REMSYN076AAXX  07014 06604 33/// /2906 11024 21047 39476 40072 52003 333 91108 91206;
0128066040999992010010702004+47000+006950FM-12+0487LSGN V0203101N001019999999N9999999N1-00231-00441100751ADDMA1999999094791MD1219999+9999OA149900411REMSYN076AAXX  07024 06604 33/// /3102 11023 21044 39479 40075 52/// 333 91108 91206;
0128066040999992010010703004+47000+006950FM-12+0487LSGN V0200401N001019999999N9999999N1-00181-00431100731ADDMA1999999094781MD1210031+9999OA149900511REMSYN076AAXX  07034 06604 33/// /0402 11018 21043 39478 40073 52003 333 91110 91206;
0128066040999992010010704004+47000+006950FM-12+0487LSGN V0200601N001519999999N9999999N1-00191-00331100731ADDMA1999999094781MD1010021+9999OA149900361REMSYN076AAXX  07044 06604 33/// /0603 11019 21033 39478 40073 50002 333 91107 91204;
0128066040999992010010705004+47000+006950FM-12+0487LSGN V0200601N001519999999N9999999N1-00171-00341100721ADDMA1999999094781MD1710011+9999OA149900361REMSYN076AAXX  07054 06604 33/// /0603 11017 21034 39478 40072 57001 333 91107 91204;
0264066040999992010010706004+47000+006950FM-12+0487LSGN V0200601N001519999999N9999999N1-00181-00291100781ADDAA112000091AA224000091AL10600091GJ100009IA2999-00609KA1999N-00281MA1999999094831MD1210051+9999OA149900621REMSYN112AAXX  07064 06604 03/// /0603 11018 21029 39483 40078 52005 69912 333 21028 3/106 55000 60005 70001 91112 91207;EQDQ01  00002PRCP24Q02  00002PRCP12
0128066040999992010010707004+47000+006950FM-12+0487LSGN V0200701N001519999999N9999999N1-00171-00291100821ADDMA1999999094871MD1110091+9999OA149900361REMSYN076AAXX  07074 06604 33/// /0703 11017 21029 39487 40082 51009 333 91107 91204;
0128066040999992010010708004+47000+006950FM-12+0487LSGN V0200901N002619999999N9999999N1-00171-00301100881ADDMA1999999094931MD1319999+9999OA149900411REMSYN076AAXX  07084 06604 33/// /0905 11017 21030 39493 40088 53/// 333 91108 91205;
0128066040999992010010709004+47000+006950FM-12+0487LSGN V0200601N002119999999N9999999N1-00201-00441100951ADDMA1999999094991MD1310161+9999OA149900411REMSYN076AAXX  07094 06604 33/// /0604 11020 21044 39499 40095 53016 333 91108 91205;
0128066040999992010010710004+47000+006950FM-12+0487LSGN V0200401N002119999999N9999999N1-00151-00381100991ADDMA1999999095031MD1210161+9999OA149900361REMSYN076AAXX  07104 06604 33/// /0404 11015 21038 39503 40099 52016 333 91107 91204;
0128066040999992010010711004+47000+006950FM-12+0487LSGN V0200901N001519999999N9999999N1-00121-00341101001ADDMA1999999095051MD1210121+9999OA149900361REMSYN076AAXX  07114 06604 33/// /0903 11012 21034 39505 40100 52012 333 91107 91204;
0128066040999992010010712004+47000+006950FM-12+0487LSGN V0200801N001519999999N9999999N1-00071-00321100961ADDMA1999999095021MD1010031+9999OA149900411REMSYN076AAXX  07124 06604 33/// /0803 11007 21032 39502 40096 50003 333 91108 91206;
0128066040999992010010713004+47000+006950FM-12+0487LSGN V0200801N001019999999N9999999N1-00051-00421100951ADDMA1999999095021MD1719999+9999OA149900311REMSYN076AAXX  07134 06604 33/// /0802 11005 21042 39502 40095 57/// 333 91106 91204;
0087066040999992010010715004+47000+006950FM-12+0487LSGN V0200301N001019999999N9999999N1-00031-00401101001ADDMA1999999095071REMSYN060AAXX  07154 06604 43/// /0302 11003 21040 39507 40100 5////;
0128066040999992010010716004+47000+006950FM-12+0487LSGN V0200501N001519999999N9999999N1-00041-00391101031ADDMA1999999095101MD1219999+9999OA149900261REMSYN076AAXX  07164 06604 33/// /0503 11004 21039 39510 40103 52/// 333 91105 91203;
0128066040999992010010717004+47000+006950FM-12+0487LSGN V0200501N001519999999N9999999N1-00041-00381101081ADDMA1999999095141MD1219999+9999OA149900261REMSYN076AAXX  07174 06604 33/// /0503 11004 21038 39514 40108 52/// 333 91105 91203;
0147066040999992010010718004+47000+006950FM-12+0487LSGN V0200501N000519999999N9999999N1-00051-00371101101ADDKA1120M+00001MA1999999095161MD1219999+9999OA149900411REMSYN082AAXX  07184 06604 33/// /0501 11005 21037 39516 40110 52/// 333 10000 91108 91205;
0128066040999992010010719004+47000+006950FM-12+0487LSGN V0200401N001519999999N9999999N1-00061-00381101121ADDMA1999999095181MD1210081+9999OA149900261REMSYN076AAXX  07194 06604 33/// /0403 11006 21038 39518 40112 52008 333 91105 91203;
0128066040999992010010720004+47000+006950FM-12+0487LSGN V0200401N001019999999N9999999N1-00101-00421101121ADDMA1999999095171MD1210031+9999OA149900261REMSYN076AAXX  07204 06604 33/// /0402 11010 21042 39517 40112 52003 333 91105 91203;
0128066040999992010010721004+47000+006950FM-12+0487LSGN V0200601N001019999999N9999999N1-00121-00391101121ADDMA1999999095161MD1010001+9999OA149900261REMSYN076AAXX  07214 06604 33/// /0602 11012 21039 39516 40112 50000 333 91105 91203;
0128066040999992010010722004+47000+006950FM-12+0487LSGN V0200601N001519999999N9999999N1-00091-00411101081ADDMA1999999095131MD1810051+9999OA149900311REMSYN076AAXX  07224 06604 33/// /0603 11009 21041 39513 40108 58005 333 91106 91203;
0128066040999992010010723004+47000+006950FM-12+0487LSGN V0200601N002619999999N9999999N1-00091-00391101101ADDMA1999999095151MD1510021+9999OA149900461REMSYN076AAXX  07234 06604 33/// /0605 11009 21039 39515 40110 55002 333 91109 91205;
0128066040999992010010800004+47000+006950FM-12+0487LSGN V0200601N002619999999N9999999N1-00081-00471101041ADDMA1999999095101MD1710061+9999OA149900571REMSYN076AAXX  08004 06604 33/// /0605 11008 21047 39510 40104 57006 333 91111 91206;
0128066040999992010010801004+47000+006950FM-12+0487LSGN V0200601N002619999999N9999999N1-00071-00461100991ADDMA1999999095051MD1810081+9999OA149900571REMSYN076AAXX  08014 06604 33/// /0605 11007 21046 39505 40099 58008 333 91111 91206;
0128066040999992010010802004+47000+006950FM-12+0487LSGN V0200701N004619999999N9999999N1-00081-00391101011ADDMA1999999095071MD1719999+9999OA149900771REMSYN076AAXX  08024 06604 33/// /0709 11008 21039 39507 40101 57/// 333 91115 91209;
0128066040999992010010803004+47000+006950FM-12+0487LSGN V0200601N004119999999N9999999N1-00141-00301100981ADDMA1999999095031MD1719999+9999OA149900771REMSYN076AAXX  08034 06604 33/// /0608 11014 21030 39503 40098 57/// 333 91115 91209;
0145066040999992010010804004+47000+006950FM-12+0487LSGN V0200601N004119999999N9999999N1-00151-00301100921ADDAA101000021MA1999999094971MD1710081+9999OA149900981REMSYN082AAXX  08044 06604 23/// /0608 11015 21030 39497 40092 57008 333 69915 91119 91209;
0128066040999992010010805004+47000+006950FM-12+0487LSGN V0200601N003619999999N9999999N1-00131-00331100861ADDMA1999999094921MD1810151+9999OA149900981REMSYN076AAXX  08054 06604 33/// /0607 11013 21033 39492 40086 58015 333 91119 91209;
0264066040999992010010806004+47000+006950FM-12+0487LSGN V0200701N004119999999N9999999N1-00151-00281100801ADDAA112000091AA224000091AL10600091GJ100009IA2999-00309KA1999N-00151MA1999999094861MD1610171+9999OA149900981REMSYN112AAXX  08064 06604 03/// /0708 11015 21028 39486 40080 56017 69912 333 21015 3/103 55000 60005 70001 91119 91209;EQDQ01  00002PRCP24Q02  00002PRCP12
0145066040999992010010807004+47000+006950FM-12+0487LSGN V0200601N003619999999N9999999N1-00141-00241100771ADDAA101000021MA1999999094831MD1710141+9999OA149900881REMSYN082AAXX  08074 06604 23/// /0607 11014 21024 39483 40077 57014 333 69915 91117 91209;
0145066040999992010010808004+47000+006950FM-12+0487LSGN V0200601N003619999999N9999999N1-00151-00251100721ADDAA101000591MA1999999094781MD1710141+9999OA149900771REMSYN082AAXX  08084 06604 23/// /0607 11015 21025 39478 40072 57014 333 69945 91115 91208;
0145066040999992010010809004+47000+006950FM-12+0487LSGN V0200701N004619999999N9999999N1-00121-00261100661ADDAA101000021MA1999999094731MD1810131+9999OA149900981REMSYN082AAXX  08094 06604 23/// /0709 11012 21026 39473 40066 58013 333 69915 91119 91209;
0145066040999992010010810004+47000+006950FM-12+0487LSGN V0200801N006719999999N9999999N1-00141-00321100641ADDAA101000021MA1999999094711MD1710121+9999OA149901131REMSYN082AAXX  08104 06604 23/// /0813 11014 21032 39471 40064 57012 333 69915 91122 91213;
0128066040999992010010811004+47000+006950FM-12+0487LSGN V0200701N004619999999N9999999N1-00151-00371100591ADDMA1999999094661MD1710121+9999OA149901341REMSYN076AAXX  08114 06604 33/// /0709 11015 21037 39466 40059 57012 333 91126 91214;
0151066040999992010010812004+47000+006950FM-12+0487LSGN V0200701N004619999999N9999999N1-00171-00451100531ADDAA106000891MA1999999094601MD1710131+9999OA149901341REMSYN088AAXX  08124 06604 03/// /0709 11017 21045 39460 40053 57013 69971 333 60005 91126 91214;
0128066040999992010010813004+47000+006950FM-12+0487LSGN V0200601N004619999999N9999999N1-00171-00451100481ADDMA1999999094551MD1610161+9999OA149901031REMSYN076AAXX  08134 06604 33/// /0609 11017 21045 39455 40048 56016 333 91120 91211;
0134066040999992010010814004+47000+006950FM-12+0487LSGN V0200601N004119999999N9999999N1-00161-00421100461ADDMA1999999094531MD1719999+9999OA149900931REMSYN082AAXX  08144 06604 33/// /0608 11016 21042 39453 40046 57/// 91340 333 91118 91210;
0128066040999992010010815004+47000+006950FM-12+0487LSGN V0200701N005119999999N9999999N1-00161-00411100511ADDMA1999999094581MD1510021+9999OA149901341REMSYN076AAXX  08154 06604 33/// /0710 11016 21041 39458 40051 55002 333 91126 91214;
0128066040999992010010816004+47000+006950FM-12+0487LSGN V0200701N005119999999N9999999N1-00141-00421100541ADDMA1999999094611MD1210061+9999OA149900881REMSYN076AAXX  08164 06604 33/// /0710 11014 21042 39461 40054 52006 333 91117 91210;
0145066040999992010010817004+47000+006950FM-12+0487LSGN V0200601N004619999999N9999999N1-00231-00371100561ADDAA101001091MA1999999094611MD1210081+9999OA149900931REMSYN082AAXX  08174 06604 23/// /0609 11023 21037 39461 40056 52008 333 60015 91118 91210;
0170066040999992010010818004+47000+006950FM-12+0487LSGN V0200501N005719999999N9999999N1-00251-00391100551ADDAA112003091KA1120M-00111MA1999999094601MD1010021+9999OA149901341REMSYN094AAXX  08184 06604 03/// /0511 11025 21039 39460 40055 50002 60032 333 11011 60015 91126 91214;
0145066040999992010010819004+47000+006950FM-12+0487LSGN V0200501N005119999999N9999999N1-00281-00461100581ADDAA101000891MA1999999094621MD1210011+9999OA149901031REMSYN082AAXX  08194 06604 23/// /0510 11028 21046 39462 40058 52001 333 69985 91120 91211;
0128066040999992010010820004+47000+006950FM-12+0487LSGN V0200701N003619999999N9999999N1-00261-00551100591ADDMA1999999094631MD1210021+9999OA149900931REMSYN076AAXX  08204 06604 33/// /0707 11026 21055 39463 40059 52002 333 91118 91210;
0145066040999992010010821004+47000+006950FM-12+0487LSGN V0200601N004119999999N9999999N1-00291-00601100611ADDAA101000021MA1999999094651MD1210051+9999OA149901031REMSYN082AAXX  08214 06604 23/// /0608 11029 21060 39465 40061 52005 333 69915 91120 91211;
0128066040999992010010822004+47000+006950FM-12+0487LSGN V0200701N003619999999N9999999N1-00301-00601100641ADDMA1999999094671MD1210051+9999OA149900771REMSYN076AAXX  08224 06604 33/// /0707 11030 21060 39467 40064 52005 333 91115 91209;
0128066040999992010010823004+47000+006950FM-12+0487LSGN V0200701N003619999999N9999999N1-00321-00591100651ADDMA1999999094681MD1210051+9999OA149900721REMSYN076AAXX  08234 06604 33/// /0707 11032 21059 39468 40065 52005 333 91114 91209;
0151066040999992010010900004+47000+006950FM-12+0487LSGN V0200701N005119999999N9999999N1-00321-00641100581ADDAA106001091MA1999999094611MD1810041+9999OA149901031REMSYN088AAXX  09004 06604 03/// /0710 11032 21064 39461 40058 58004 69991 333 60005 91120 91212;
0128066040999992010010901004+47000+006950FM-12+0487LSGN V0200601N004119999999N9999999N1-00281-00771100621ADDMA1999999094661MD1710011+9999OA149900981REMSYN076AAXX  09014 06604 33/// /0608 11028 21077 39466 40062 57001 333 91119 91210;
0128066040999992010010902004+47000+006950FM-12+0487LSGN V0200601N003619999999N9999999N1-00291-00771100611ADDMA1999999094651MD1519999+9999OA149900881REMSYN076AAXX  09024 06604 33/// /0607 11029 21077 39465 40061 55/// 333 91117 91209;
0128066040999992010010903004+47000+006950FM-12+0487LSGN V0200601N004619999999N9999999N1-00301-00761100641ADDMA1999999094671MD1219999+9999OA149900981REMSYN076AAXX  09034 06604 33/// /0609 11030 21076 39467 40064 52/// 333 91119 91210;
0128066040999992010010904004+47000+006950FM-12+0487LSGN V0200601N006219999999N9999999N1-00321-00721100571ADDMA1999999094601MD1810061+9999OA149901031REMSYN076AAXX  09044 06604 33/// /0612 11032 21072 39460 40057 58006 333 91120 91212;
0128066040999992010010905004+47000+006950FM-12+0487LSGN V0200601N004119999999N9999999N1-00351-00671100551ADDMA1999999094581MD1710071+9999OA149901031REMSYN076AAXX  09054 06604 33/// /0608 11035 21067 39458 40055 57007 333 91120 91212;
0229066040999992010010906004+47000+006950FM-12+0487LSGN V0200501N003619999999N9999999N1-00361-00681100501ADDAA112001091AA224003891AL14800391GJ100009IA2999-00509KA1999N-00361MA1999999094531MD1710141+9999OA149901031REMSYN112AAXX  09064 06604 03/// /0507 11036 21068 39453 40050 57014 69992 333 21036 3/105 55000 60005 70038 91120 91212;
0128066040999992010010907004+47000+006950FM-12+0487LSGN V0200601N003619999999N9999999N1-00361-00651100541ADDMA1999999094571MD1710031+9999OA149900931REMSYN076AAXX  09074 06604 33/// /0607 11036 21065 39457 40054 57003 333 91118 91210;
0128066040999992010010908004+47000+006950FM-12+0487LSGN V0200601N003619999999N9999999N1-00371-00671100571ADDMA1999999094591MD1310011+9999OA149900821REMSYN076AAXX  09084 06604 33/// /0607 11037 21067 39459 40057 53001 333 91116 91209;
0128066040999992010010909004+47000+006950FM-12+0487LSGN V0200601N003619999999N9999999N1-00381-00651100591ADDMA1999999094611MD1210081+9999OA149901031REMSYN076AAXX  09094 06604 33/// /0607 11038 21065 39461 40059 52008 333 91120 91212;
0128066040999992010010910004+47000+006950FM-12+0487LSGN V0200801N003119999999N9999999N1-00361-00611100611ADDMA1999999094631MD1210061+9999OA149900721REMSYN076AAXX  09104 06604 33/// /0806 11036 21061 39463 40061 52006 333 91114 91208;
0128066040999992010010911004+47000+006950FM-12+0487LSGN V0200901N003619999999N9999999N1-00381-00661100561ADDMA1999999094581MD1810011+9999OA149900671REMSYN076AAXX  09114 06604 33/// /0907 11038 21066 39458 40056 58001 333 91113 91207;
0128066040999992010010912004+47000+006950FM-12+0487LSGN V0200701N003119999999N9999999N1-00381-00681100561ADDMA1999999094581MD1710031+9999OA149901031REMSYN076AAXX  09124 06604 33/// /0706 11038 21068 39458 40056 57003 333 91120 91212;
0128066040999992010010913004+47000+006950FM-12+0487LSGN V0200601N002619999999N9999999N1-00391-00701100541ADDMA1999999094561MD1710071+9999OA149900671REMSYN076AAXX  09134 06604 33/// /0605 11039 21070 39456 40054 57007 333 91113 91208;
0128066040999992010010914004+47000+006950FM-12+0487LSGN V0200701N002119999999N9999999N1-00381-00731100551ADDMA1999999094571MD1710011+9999OA149900621REMSYN076AAXX  09144 06604 33/// /0704 11038 21073 39457 40055 57001 333 91112 91207;
0128066040999992010010915004+47000+006950FM-12+0487LSGN V0200601N002619999999N9999999N1-00351-00751100571ADDMA1999999094601MD1310021+9999OA149900671REMSYN076AAXX  09154 06604 33/// /0605 11035 21075 39460 40057 53002 333 91113 91208;
0128066040999992010010916004+47000+006950FM-12+0487LSGN V0200701N002619999999N9999999N1-00371-00771100601ADDMA1999999094621MD1210061+9999OA149900721REMSYN076AAXX  09164 06604 33/// /0705 11037 21077 39462 40060 52006 333 91114 91207;
0128066040999992010010917004+47000+006950FM-12+0487LSGN V0200301N002119999999N9999999N1-00421-00851100621ADDMA1999999094631MD1210061+9999OA149900721REMSYN076AAXX  09174 06604 33/// /0304 11042 21085 39463 40062 52006 333 91114 91208;
0147066040999992010010918004+47000+006950FM-12+0487LSGN V0203601N003619999999N9999999N1-00431-00871100621ADDKA1120M-00351MA1999999094631MD1210031+9999OA149900821REMSYN082AAXX  09184 06604 33/// /3607 11043 21087 39463 40062 52003 333 11035 91116 91209;
0128066040999992010010919004+47000+006950FM-12+0487LSGN V0200601N001519999999N9999999N1-00421-00731100711ADDMA1999999094711MD1210091+9999OA149900821REMSYN076AAXX  09194 06604 33/// /0603 11042 21073 39471 40071 52009 333 91116 91208;
0128066040999992010010920004+47000+006950FM-12+0487LSGN V0200801N001019999999N9999999N1-00461-00611100751ADDMA1999999094741MD1310111+9999OA149900821REMSYN076AAXX  09204 06604 33/// /0802 11046 21061 39474 40075 53011 333 91116 91208;
0128066040999992010010921004+47000+006950FM-12+0487LSGN V0202201N000519999999N9999999N1-00461-00651100791ADDMA1999999094781MD1110151+9999OA149900821REMSYN076AAXX  09214 06604 33/// /2201 11046 21065 39478 40079 51015 333 91116 91208;
0145066040999992010010922004+47000+006950FM-12+0487LSGN V0203501N000519999999N9999999N1-00461-00631100821ADDAA101000021MA1999999094811MD1110101+9999OA149900211REMSYN082AAXX  09224 06604 23/// /3501 11046 21063 39481 40082 51010 333 69915 91104 91202;
0145066040999992010010923004+47000+006950FM-12+0487LSGN V0200801N000519999999N9999999N1-00471-00601100871ADDAA101000021MA1999999094851MD1310111+9999OA149900151REMSYN082AAXX  09234 06604 23/// /0801 11047 21060 39485 40087 53011 333 69915 91103 91202;
0151066040999992010011000004+47000+006950FM-12+0487LSGN V0203501N000519999999N9999999N1-00471-00611100901ADDAA106000591MA1999999094881MD1110101+9999OA149900821REMSYN088AAXX  10004 06604 03/// /3501 11047 21061 39488 40090 51010 69951 333 69935 91116 91208;
0145066040999992010011001004+47000+006950FM-12+0487LSGN V0209999C000019999999N9999999N1-00491-00621100951ADDAA101000391MA1999999094921MD1110111+9999OA149900151REMSYN082AAXX  10014 06604 23/// /0000 11049 21062 39492 40095 51011 333 69935 91103 91202;
0108066040999992010011002004+47000+006950FM-12+0487LSGN V0209999C000019999999N9999999N1-00471-00641101001ADDAA101000021MA1999999094971REMSYN070AAXX  10024 06604 23/// /0000 11047 21064 39497 40100 5//// 333 69925;
0087066040999992010011003004+47000+006950FM-12+0487LSGN V0203401N000519999999N9999999N1-00491-00671101041ADDMA1999999095011REMSYN060AAXX  10034 06604 43/// /3401 11049 21067 39501 40104 5////;
0128066040999992010011004004+47000+006950FM-12+0487LSGN V0200501N001019999999N9999999N1-00481-00641101081ADDMA1999999095051MD1110131+9999OA149900151REMSYN076AAXX  10044 06604 33/// /0502 11048 21064 39505 40108 51013 333 91103 91202;
0128066040999992010011005004+47000+006950FM-12+0487LSGN V0200201N000519999999N9999999N1-00501-00651101151ADDMA1999999095111MD1310141+9999OA149900151REMSYN076AAXX  10054 06604 33/// /0201 11050 21065 39511 40115 53014 333 91103 91202;
0229066040999992010011006004+47000+006950FM-12+0487LSGN V0209999C000019999999N9999999N1-00481-00661101171ADDAA112001091AA224001091AL10600191GJ100009IA2999-00609KA1999N-00511MA1999999095131MD1110121+9999OA149900821REMSYN112AAXX  10064 06604 03/// /0000 11048 21066 39513 40117 51012 60012 333 21051 3/106 55000 60005 70011 91116 91208;
0128066040999992010011007004+47000+006950FM-12+0487LSGN V0200801N000519999999N9999999N1-00441-00581101251ADDMA1999999095221MD1310171+9999OA149900151REMSYN076AAXX  10074 06604 33/// /0801 11044 21058 39522 40125 53017 333 91103 91202;
0128066040999992010011008004+47000+006950FM-12+0487LSGN V0200501N001519999999N9999999N1-00451-00621101331ADDMA1999999095291MD1319999+9999OA149900211REMSYN076AAXX  10084 06604 33/// /0503 11045 21062 39529 40133 53/// 333 91104 91203;
0128066040999992010011009004+47000+006950FM-12+0487LSGN V0200601N001019999999N9999999N1-00411-00671101391ADDMA1999999095351MD1110221+9999OA149900261REMSYN076AAXX  10094 06604 33/// /0602 11041 21067 39535 40139 51022 333 91105 91203;
0128066040999992010011010004+47000+006950FM-12+0487LSGN V0200601N001019999999N9999999N1-00381-00671101451ADDMA1999999095421MD1110201+9999OA149900261REMSYN076AAXX  10104 06604 33/// /0602 11038 21067 39542 40145 51020 333 91105 91203;
0128066040999992010011011004+47000+006950FM-12+0487LSGN V0201101N000519999999N9999999N1-00381-00591101481ADDMA1999999095451MD1110161+9999OA149900211REMSYN076AAXX  10114 06604 33/// /1101 11038 21059 39545 40148 51016 333 91104 91203;
0128066040999992010011012004+47000+006950FM-12+0487LSGN V0200601N001019999999N9999999N1-00361-00651101501ADDMA1999999095471MD1110121+9999OA149900261REMSYN076AAXX  10124 06604 33/// /0602 11036 21065 39547 40150 51012 333 91105 91203;
0128066040999992010011013004+47000+006950FM-12+0487LSGN V0200901N001519999999N9999999N1-00281-00611101501ADDMA1999999095491MD1110071+9999OA149900261REMSYN076AAXX  10134 06604 33/// /0903 11028 21061 39549 40150 51007 333 91105 91203;
0128066040999992010011014004+47000+006950FM-12+0487LSGN V0200501N001019999999N9999999N1-00301-00681101561ADDMA1999999095541MD1319999+9999OA149900311REMSYN076AAXX  10144 06604 33/// /0502 11030 21068 39554 40156 53/// 333 91106 91203;
0128066040999992010011015004+47000+006950FM-12+0487LSGN V0200801N001519999999N9999999N1-00321-00651101601ADDMA1999999095571MD1310101+9999OA149900311REMSYN076AAXX  10154 06604 33/// /0803 11032 21065 39557 40160 53010 333 91106 91204;
0128066040999992010011016004+47000+006950FM-12+0487LSGN V0200601N001519999999N9999999N1-00321-00621101641ADDMA1999999095611MD1110121+9999OA149900311REMSYN076AAXX  10164 06604 33/// /0603 11032 21062 39561 40164 51012 333 91106 91204;
0128066040999992010011017004+47000+006950FM-12+0487LSGN V0200601N001519999999N9999999N1-00321-00591101671ADDMA1999999095641MD1310101+9999OA149900311REMSYN076AAXX  10174 06604 33/// /0603 11032 21059 39564 40167 53010 333 91106 91204;
0147066040999992010011018004+47000+006950FM-12+0487LSGN V0200701N001519999999N9999999N1-00331-00621101711ADDKA1120M-00261MA1999999095671MD1110101+9999OA149900311REMSYN082AAXX  10184 06604 33/// /0703 11033 21062 39567 40171 51010 333 11026 91106 91204;
0128066040999992010011019004+47000+006950FM-12+0487LSGN V0200401N002119999999N9999999N1-00321-00611101731ADDMA1999999095691MD1110081+9999OA149900311REMSYN076AAXX  10194 06604 33/// /0404 11032 21061 39569 40173 51008 333 91106 91204;
0128066040999992010011020004+47000+006950FM-12+0487LSGN V0200501N002619999999N9999999N1-00321-00611101701ADDMA1999999095671MD1010031+9999OA149900361REMSYN076AAXX  10204 06604 33/// /0505 11032 21061 39567 40170 50003 333 91107 91205;
0128066040999992010011021004+47000+006950FM-12+0487LSGN V0200401N002119999999N9999999N1-00331-00641101721ADDMA1999999095681MD1010011+9999OA149900411REMSYN076AAXX  10214 06604 33/// /0404 11033 21064 39568 40172 50001 333 91108 91205;
0128066040999992010011022004+47000+006950FM-12+0487LSGN V0200501N002119999999N9999999N1-00321-00661101701ADDMA1999999095671MD1710021+9999OA149900461REMSYN076AAXX  10224 06604 33/// /0504 11032 21066 39567 40170 57002 333 91109 91205;
0128066040999992010011023004+47000+006950FM-12+0487LSGN V0200301N002119999999N9999999N1-00321-00711101741ADDMA1999999095701MD1310031+9999OA149900461REMSYN076AAXX  10234 06604 33/// /0304 11032 21071 39570 40174 53003 333 91109 91205;
0128066040999992010011100004+47000+006950FM-12+0487LSGN V0200601N001519999999N9999999N1-00321-00711101761ADDMA1999999095721MD1210041+9999OA149900461REMSYN076AAXX  11004 06604 33/// /0603 11032 21071 39572 40176 52004 333 91109 91205;
0128066040999992010011101004+47000+006950FM-12+0487LSGN V0200801N002619999999N9999999N1-00331-00601101781ADDMA1999999095741MD1110071+9999OA149900411REMSYN076AAXX  11014 06604 33/// /0805 11033 21060 39574 40178 51007 333 91108 91205;
0128066040999992010011102004+47000+006950FM-12+0487LSGN V0200701N002119999999N9999999N1-00361-00631101771ADDMA1999999095721MD1019999+9999OA149900411REMSYN076AAXX  11024 06604 33/// /0704 11036 21063 39572 40177 50/// 333 91108 91205;
0128066040999992010011103004+47000+006950FM-12+0487LSGN V0200701N002119999999N9999999N1-00371-00661101771ADDMA1999999095721MD1019999+9999OA149900461REMSYN076AAXX  11034 06604 33/// /0704 11037 21066 39572 40177 50/// 333 91109 91205;
0128066040999992010011104004+47000+006950FM-12+0487LSGN V0200601N001519999999N9999999N1-00381-00631101771ADDMA1999999095721MD1510021+9999OA149900361REMSYN076AAXX  11044 06604 33/// /0603 11038 21063 39572 40177 55002 333 91107 91204;
0128066040999992010011105004+47000+006950FM-12+0487LSGN V0200601N001519999999N9999999N1-00411-00661101771ADDMA1999999095711MD1710011+9999OA149900311REMSYN076AAXX  11054 06604 33/// /0603 11041 21066 39571 40177 57001 333 91106 91204;
0225066040999992010011106004+47000+006950FM-12+0487LSGN V0200601N001519999999N9999999N1-00441-00671101741ADDAA124000091AL19900091GJ100189IA2999-00509KA1999N-00431MA1999999095681MD1719999+9999OA149900461REMSYN100AAXX  11064 06604 33/// /0603 11044 21067 39568 40174 57/// 333 21043 3/105 55003 70000 91109 91205;EQDQ01  00002PRCP24
0128066040999992010011107004+47000+006950FM-12+0487LSGN V0200601N002119999999N9999999N1-00381-00631101741ADDMA1999999095691MD1710031+9999OA149900361REMSYN076AAXX  11074 06604 33/// /0604 11038 21063 39569 40174 57003 333 91107 91204;
0128066040999992010011108004+47000+006950FM-12+0487LSGN V0200401N001519999999N9999999N1-00371-00681101781ADDMA1999999095731MD1319999+9999OA149900361REMSYN076AAXX  11084 06604 33/// /0403 11037 21068 39573 40178 53/// 333 91107 91204;
0128066040999992010011109004+47000+006950FM-12+0487LSGN V0200301N001519999999N9999999N1-00351-00781101821ADDMA1999999095771MD1219999+9999OA149900361REMSYN076AAXX  11094 06604 33/// /0303 11035 21078 39577 40182 52/// 333 91107 91204;
0128066040999992010011110004+47000+006950FM-12+0487LSGN V0202201N000519999999N9999999N1-00321-00791101841ADDMA1999999095801MD1119999+9999OA149900361REMSYN076AAXX  11104 06604 33/// /2201 11032 21079 39580 40184 51/// 333 91107 91204;
0128066040999992010011111004+47000+006950FM-12+0487LSGN V0201401N000519999999N9999999N1-00291-00731101831ADDMA1999999095791MD1210061+9999OA149900311REMSYN076AAXX  11114 06604 33/// /1401 11029 21073 39579 40183 52006 333 91106 91203;
0128066040999992010011112004+47000+006950FM-12+0487LSGN V0201601N001019999999N9999999N1-00281-00701101771ADDMA1999999095741MD1810031+9999OA149900411REMSYN076AAXX  11124 06604 33/// /1602 11028 21070 39574 40177 58003 333 91108 91205;
0128066040999992010011113004+47000+006950FM-12+0487LSGN V0202301N001019999999N9999999N1-00241-00671101731ADDMA1999999095711MD1710091+9999OA149900261REMSYN076AAXX  11134 06604 33/// /2302 11024 21067 39571 40173 57009 333 91105 91203;
0087066040999992010011114004+47000+006950FM-12+0487LSGN V0202201N001519999999N9999999N1-00211-00641101741ADDMA1999999095731REMSYN060AAXX  11144 06604 33/// /2203 11021 21064 39573 40174 5////;
0128066040999992010011115004+47000+006950FM-12+0487LSGN V0202701N001019999999N9999999N1-00221-00621101781ADDMA1999999095761MD1310021+9999OA149900311REMSYN076AAXX  11154 06604 33/// /2702 11022 21062 39576 40178 53002 333 91106 91203;
0128066040999992010011116004+47000+006950FM-12+0487LSGN V0200601N001019999999N9999999N1-00271-00641101811ADDMA1999999095781MD1110071+9999OA149900311REMSYN076AAXX  11164 06604 33/// /0602 11027 21064 39578 40181 51007 333 91106 91203;
0128066040999992010011117004+47000+006950FM-12+0487LSGN V0200201N001519999999N9999999N1-00371-00661101881ADDMA1999999095821MD1310091+9999OA149900261REMSYN076AAXX  11174 06604 33/// /0203 11037 21066 39582 40188 53009 333 91105 91204;
0147066040999992010011118004+47000+006950FM-12+0487LSGN V0200101N001519999999N9999999N1-00431-00681101941ADDKA1120M-00211MA1999999095871MD1310111+9999OA149900361REMSYN082AAXX  11184 06604 33/// /0103 11043 21068 39587 40194 53011 333 11021 91107 91204;
0128066040999992010011119004+47000+006950FM-12+0487LSGN V0200201N001519999999N9999999N1-00501-00711101961ADDMA1999999095871MD1210091+9999OA149900261REMSYN076AAXX  11194 06604 33/// /0203 11050 21071 39587 40196 52009 333 91105 91203;
0128066040999992010011120004+47000+006950FM-12+0487LSGN V0200401N001019999999N9999999N1-00391-00621101971ADDMA1999999095901MD1210081+9999OA149900211REMSYN076AAXX  11204 06604 33/// /0402 11039 21062 39590 40197 52008 333 91104 91203;
0128066040999992010011121004+47000+006950FM-12+0487LSGN V0200201N000519999999N9999999N1-00331-00561101971ADDMA1999999095921MD1219999+9999OA149900261REMSYN076AAXX  11214 06604 33/// /0201 11033 21056 39592 40197 52/// 333 91105 91204;
0128066040999992010011122004+47000+006950FM-12+0487LSGN V0202801N001019999999N9999999N1-00281-00561101971ADDMA1999999095931MD1210061+9999OA149900211REMSYN076AAXX  11224 06604 33/// /2802 11028 21056 39593 40197 52006 333 91104 91202;
0128066040999992010011123004+47000+006950FM-12+0487LSGN V0202601N002119999999N9999999N1-00241-00541101941ADDMA1999999095911MD1010011+9999OA149900361REMSYN076AAXX  11234 06604 33/// /2604 11024 21054 39591 40194 50001 333 91107 91204;
0128066040999992010011200004+47000+006950FM-12+0487LSGN V0202301N001519999999N9999999N1-00231-00511101941ADDMA1999999095911MD1819999+9999OA149900361REMSYN076AAXX  12004 06604 33/// /2303 11023 21051 39591 40194 58/// 333 91107 91204;
0128066040999992010011201004+47000+006950FM-12+0487LSGN V0202901N000519999999N9999999N1-00241-00511101931ADDMA1999999095901MD1710031+9999OA149900361REMSYN076AAXX  12014 06604 33/// /2901 11024 21051 39590 40193 57003 333 91107 91204;
0128066040999992010011202004+47000+006950FM-12+0487LSGN V0200201N000519999999N9999999N1-00251-00461101911ADDMA1999999095881MD1719999+9999OA149900261REMSYN076AAXX  12024 06604 33/// /0201 11025 21046 39588 40191 57/// 333 91105 91203;
0128066040999992010011203004+47000+006950FM-12+0487LSGN V0200401N000519999999N9999999N1-00291-00481101921ADDMA1999999095881MD1710031+9999OA149900361REMSYN076AAXX  12034 06604 33/// /0401 11029 21048 39588 40192 57003 333 91107 91204;
0128066040999992010011204004+47000+006950FM-12+0487LSGN V0200501N001019999999N9999999N1-00301-00491101901ADDMA1999999095861MD1710041+9999OA149900211REMSYN076AAXX  12044 06604 33/// /0502 11030 21049 39586 40190 57004 333 91104 91203;
0128066040999992010011205004+47000+006950FM-12+0487LSGN V0200701N001519999999N9999999N1-00301-00511101881ADDMA1999999095841MD1710041+9999OA149900261REMSYN076AAXX  12054 06604 33/// /0703 11030 21051 39584 40188 57004 333 91105 91203;
0225066040999992010011206004+47000+006950FM-12+0487LSGN V0200501N001519999999N9999999N1-00281-00491101831ADDAA124000091AL19900091GJ100009IA2999-00709KA1999N-00501MA1999999095801MD1710081+9999OA149900361REMSYN100AAXX  12064 06604 33/// /0503 11028 21049 39580 40183 57008 333 21050 3/107 55000 70000 91107 91204;EQDQ01  00002PRCP24
0128066040999992010011207004+47000+006950FM-12+0487LSGN V0200701N001519999999N9999999N1-00271-00461101791ADDMA1999999095761MD1710101+9999OA149900261REMSYN076AAXX  12074 06604 33/// /0703 11027 21046 39576 40179 57010 333 91105 91204;
0128066040999992010011208004+47000+006950FM-12+0487LSGN V0200501N001519999999N9999999N1-00261-00441101731ADDMA1999999095711MD1819999+9999OA149900261REMSYN076AAXX  12084 06604 33/// /0503 11026 21044 39571 40173 58/// 333 91105 91203;
0128066040999992010011209004+47000+006950FM-12+0487LSGN V0200701N001519999999N9999999N1-00261-00441101681ADDMA1999999095661MD1710141+9999OA149900261REMSYN076AAXX  12094 06604 33/// /0703 11026 21044 39566 40168 57014 333 91105 91204;
0128066040999992010011210004+47000+006950FM-12+0487LSGN V0200601N001519999999N9999999N1-00251-00421101621ADDMA1999999095611MD1810151+9999OA149900311REMSYN076AAXX  12104 06604 33/// /0603 11025 21042 39561 40162 58015 333 91106 91203;
0128066040999992010011211004+47000+006950FM-12+0487LSGN V0200601N000519999999N9999999N1-00201-00401101521ADDMA1999999095521MD1810191+9999OA149900311REMSYN076AAXX  12114 06604 33/// /0601 11020 21040 39552 40152 58019 333 91106 91203;
0128066040999992010011212004+47000+006950FM-12+0487LSGN V0200801N000519999999N9999999N1-00191-00421101451ADDMA1999999095461MD1810201+9999OA149900311REMSYN076AAXX  12124 06604 33/// /0801 11019 21042 39546 40145 58020 333 91106 91204;
0128066040999992010011213004+47000+006950FM-12+0487LSGN V0200701N001019999999N9999999N1-00221-00421101361ADDMA1999999095371MD1710241+9999OA149900211REMSYN076AAXX  12134 06604 33/// /0702 11022 21042 39537 40136 57024 333 91104 91202;
0087066040999992010011214004+47000+006950FM-12+0487LSGN V0200501N001519999999N9999999N1-00201-00421101271ADDMA1999999095291REMSYN060AAXX  12144 06604 33/// /0503 11020 21042 39529 40127 5////;
0128066040999992010011215004+47000+006950FM-12+0487LSGN V0200601N002619999999N9999999N1-00211-00441101181ADDMA1999999095201MD1710261+9999OA149900361REMSYN076AAXX  12154 06604 33/// /0605 11021 21044 39520 40118 57026 333 91107 91205;
0128066040999992010011216004+47000+006950FM-12+0487LSGN V0200501N001019999999N9999999N1-00231-00461101101ADDMA1999999095121MD1810251+9999OA149900411REMSYN076AAXX  12164 06604 33/// /0502 11023 21046 39512 40110 58025 333 91108 91205;
0128066040999992010011217004+47000+006950FM-12+0487LSGN V0200501N002619999999N9999999N1-00251-00451101051ADDMA1999999095071MD1710221+9999OA149900461REMSYN076AAXX  12174 06604 33/// /0505 11025 21045 39507 40105 57022 333 91109 91205;
0147066040999992010011218004+47000+006950FM-12+0487LSGN V0200601N001519999999N9999999N1-00261-00461101041ADDKA1120M-00191MA1999999095061MD1710141+9999OA149900511REMSYN082AAXX  12184 06604 33/// /0603 11026 21046 39506 40104 57014 333 11019 91110 91205;
0128066040999992010011219004+47000+006950FM-12+0487LSGN V0200701N002119999999N9999999N1-00291-00461101031ADDMA1999999095041MD1710081+9999OA149900511REMSYN076AAXX  12194 06604 33/// /0704 11029 21046 39504 40103 57008 333 91110 91206;
0128066040999992010011220004+47000+006950FM-12+0487LSGN V0200501N001519999999N9999999N1-00311-00481100981ADDMA1999999094991MD1710081+9999OA149900411REMSYN076AAXX  12204 06604 33/// /0503 11031 21048 39499 40098 57008 333 91108 91206;
0128066040999992010011221004+47000+006950FM-12+0487LSGN V0200601N001519999999N9999999N1-00311-00481100921ADDMA1999999094931MD1710131+9999OA149900511REMSYN076AAXX  12214 06604 33/// /0603 11031 21048 39493 40092 57013 333 91110 91206;
0128066040999992010011222004+47000+006950FM-12+0487LSGN V0200401N001019999999N9999999N1-00311-00501100881ADDMA1999999094901MD1710141+9999OA149900361REMSYN076AAXX  12224 06604 33/// /0402 11031 21050 39490 40088 57014 333 91107 91205;
0128066040999992010011223004+47000+006950FM-12+0487LSGN V0200401N000519999999N9999999N1-00301-00481100931ADDMA1999999094951MD1510041+9999OA149900261REMSYN076AAXX  12234 06604 33/// /0401 11030 21048 39495 40093 55004 333 91105 91203;
0128066040999992010011300004+47000+006950FM-12+0487LSGN V0200301N000519999999N9999999N1-00291-00481100921ADDMA1999999094941MD1310011+9999OA149900511REMSYN076AAXX  13004 06604 33/// /0301 11029 21048 39494 40092 53001 333 91110 91206;
0128066040999992010011301004+47000+006950FM-12+0487LSGN V0200501N001519999999N9999999N1-00301-00441100871ADDMA1999999094891MD1810011+9999OA149900261REMSYN076AAXX  13014 06604 33/// /0503 11030 21044 39489 40087 58001 333 91105 91203;
0145066040999992010011302004+47000+006950FM-12+0487LSGN V0200601N002119999999N9999999N1-00331-00421100841ADDAA101000391MA1999999094851MD1719999+9999OA149900411REMSYN082AAXX  13024 06604 23/// /0604 11033 21042 39485 40084 57/// 333 69935 91108 91205;
0145066040999992010011303004+47000+006950FM-12+0487LSGN V0200601N001019999999N9999999N1-00341-00421100781ADDAA101000591MA1999999094801MD1719999+9999OA149900411REMSYN082AAXX  13034 06604 23/// /0602 11034 21042 39480 40078 57/// 333 69945 91108 91205;
0145066040999992010011304004+47000+006950FM-12+0487LSGN V0200201N001019999999N9999999N1-00321-00391100771ADDAA101001091MA1999999094791MD1710101+9999OA149900361REMSYN082AAXX  13044 06604 23/// /0202 11032 21039 39479 40077 57010 333 69995 91107 91205;
0145066040999992010011305004+47000+006950FM-12+0487LSGN V0200501N000519999999N9999999N1-00301-00381100761ADDAA101001091MA1999999094791MD1510061+9999OA149900151REMSYN082AAXX  13054 06604 23/// /0501 11030 21038 39479 40076 55006 333 60015 91103 91202;
0229066040999992010011306004+47000+006950FM-12+0487LSGN V0209999C000019999999N9999999N1-00271-00351100781ADDAA112003091AA224003091AL19900391GJ100009IA2999-00409KA1999N-00341MA1999999094811MD1310011+9999OA149900411REMSYN112AAXX  13064 06604 03/// /0000 11027 21035 39481 40078 53001 60032 333 21034 3/104 55000 69965 70030 91108 91206;
0145066040999992010011307004+47000+006950FM-12+0487LSGN V0200601N001019999999N9999999N1-00271-00351100841ADDAA101000591MA1999999094871MD1310081+9999OA149900151REMSYN082AAXX  13074 06604 23/// /0602 11027 21035 39487 40084 53008 333 69965 91103 91202;
0145066040999992010011308004+47000+006950FM-12+0487LSGN V0200601N000519999999N9999999N1-00261-00341100891ADDAA101000591MA1999999094921MD1310131+9999OA149900151REMSYN082AAXX  13084 06604 23/// /0601 11026 21034 39492 40089 53013 333 69965 91103 91202;
0145066040999992010011309004+47000+006950FM-12+0487LSGN V0200501N000519999999N9999999N1-00221-00321100961ADDAA101000591MA1999999094991MD1310181+9999OA149900151REMSYN082AAXX  13094 06604 23/// /0501 11022 21032 39499 40096 53018 333 69965 91103 91202;
0145066040999992010011310004+47000+006950FM-12+0487LSGN V0200701N000519999999N9999999N1-00191-00271100991ADDAA101000591MA1999999095031MD1210161+9999OA149900101REMSYN082AAXX  13104 06604 23/// /0701 11019 21027 39503 40099 52016 333 69945 91102 91201;
0145066040999992010011311004+47000+006950FM-12+0487LSGN V0200801N000519999999N9999999N1-00151-00241101001ADDAA101000591MA1999999095041MD1210121+9999OA149900101REMSYN082AAXX  13114 06604 23/// /0801 11015 21024 39504 40100 52012 333 69965 91102 91201;
0151066040999992010011312004+47000+006950FM-12+0487LSGN V0200701N000519999999N9999999N1-00141-00211100971ADDAA106003091MA1999999095021MD1010031+9999OA149900411REMSYN088AAXX  13124 06604 03/// /0701 11014 21021 39502 40097 50003 60031 333 69945 91108 91205;
0145066040999992010011313004+47000+006950FM-12+0487LSGN V0209999C000019999999N9999999N1-00111-00171100951ADDAA101000021MA1999999095011MD1710021+9999OA149900101REMSYN082AAXX  13134 06604 23/// /0000 11011 21017 39501 40095 57002 333 69925 91102 91201;
0145066040999992010011314004+47000+006950FM-12+0487LSGN V0202301N001019999999N9999999N1+00041-00041100941ADDAA101000021MA1999999095031MD1519999+9999OA149900151REMSYN082AAXX  13144 06604 23/// /2302 10004 21004 39503 40094 55/// 333 69915 91103 91202;
0145066040999992010011315004+47000+006950FM-12+0487LSGN V0202501N001519999999N9999999N1+00141+00051100951ADDAA101000021MA1999999095061MD1210041+9999OA149900411REMSYN082AAXX  13154 06604 23/// /2503 10014 20005 39506 40095 52004 333 69925 91108 91203;
0145066040999992010011316004+47000+006950FM-12+0487LSGN V0202601N003119999999N9999999N1+00161+00041100981ADDAA101000391MA1999999095091MD1110081+9999OA149900511REMSYN082AAXX  13164 06604 23/// /2606 10016 20004 39509 40098 51008 333 69935 91110 91206;
0128066040999992010011317004+47000+006950FM-12+0487LSGN V0202601N002619999999N9999999N1+00171+00051101031ADDMA1999999095141MD1310111+9999OA149900571REMSYN076AAXX  13174 06604 33/// /2605 10017 20005 39514 40103 53011 333 91111 91206;
0170066040999992010011318004+47000+006950FM-12+0487LSGN V0202701N003619999999N9999999N1+00181+00081101051ADDAA112004191KA1120M+00191MA1999999095161MD1310101+9999OA149900671REMSYN094AAXX  13184 06604 03/// /2707 10018 20008 39516 40105 53010 60042 333 10019 60005 91113 91208;
0128066040999992010011319004+47000+006950FM-12+0487LSGN V0202601N001519999999N9999999N1+00181+00091101061ADDMA1999999095171MD1110081+9999OA149900671REMSYN076AAXX  13194 06604 33/// /2603 10018 20009 39517 40106 51008 333 91113 91208;
0128066040999992010011320004+47000+006950FM-12+0487LSGN V0202801N002619999999N9999999N1+00201+00081101051ADDMA1999999095171MD1110031+9999OA149900511REMSYN076AAXX  13204 06604 33/// /2805 10020 20008 39517 40105 51003 333 91110 91206;
0128066040999992010011321004+47000+006950FM-12+0487LSGN V0202901N000519999999N9999999N1+00171+00081101051ADDMA1999999095161MD1010001+9999OA149900671REMSYN076AAXX  13214 06604 33/// /2901 10017 20008 39516 40105 50000 333 91113 91208;
0128066040999992010011322004+47000+006950FM-12+0487LSGN V0202101N001019999999N9999999N1+00191+00111101001ADDMA1999999095121MD1810051+9999OA149900411REMSYN076AAXX  13224 06604 33/// /2102 10019 20011 39512 40100 58005 333 91108 91205;
0128066040999992010011323004+47000+006950FM-12+0487LSGN V0200901N001019999999N9999999N1+00141+00081100981ADDMA1999999095091MD1710081+9999OA149900361REMSYN076AAXX  13234 06604 33/// /0902 10014 20008 39509 40098 57008 333 91107 91203;
0128066040999992010011400004+47000+006950FM-12+0487LSGN V0200601N001519999999N9999999N1+00131+00061100941ADDMA1999999095051MD1710111+9999OA149900671REMSYN076AAXX  14004 06604 33/// /0603 10013 20006 39505 40094 57011 333 91113 91208;
0128066040999992010011401004+47000+006950FM-12+0487LSGN V0200601N000519999999N9999999N1+00121+00051100901ADDMA1999999095011MD1710111+9999OA149900311REMSYN076AAXX  14014 06604 33/// /0601 10012 20005 39501 40090 57011 333 91106 91203;
0128066040999992010011402004+47000+006950FM-12+0487LSGN V0201901N000519999999N9999999N1+00141+00061100901ADDMA1999999095011MD1719999+9999OA149900311REMSYN076AAXX  14024 06604 33/// /1901 10014 20006 39501 40090 57/// 333 91106 91203;
0087066040999992010011403004+47000+006950FM-12+0487LSGN V0200601N001519999999N9999999N1+00101+00031100891ADDMA1999999094991REMSYN060AAXX  14034 06604 33/// /0603 10010 20003 39499 40089 5////;
0128066040999992010011404004+47000+006950FM-12+0487LSGN V0200601N000519999999N9999999N1+00101+00061100831ADDMA1999999094941MD1710071+9999OA149900261REMSYN076AAXX  14044 06604 33/// /0601 10010 20006 39494 40083 57007 333 91105 91203;
0128066040999992010011405004+47000+006950FM-12+0487LSGN V0200401N001019999999N9999999N1+00081+00041100791ADDMA1999999094901MD1710111+9999OA149900211REMSYN076AAXX  14054 06604 33/// /0402 10008 20004 39490 40079 57011 333 91104 91202;
0206066040999992010011406004+47000+006950FM-12+0487LSGN V0200701N001519999999N9999999N1+00091+00041100761ADDAA124004391AL11200491GJ100009IA2999+00009KA1999N+00081MA1999999094871MD1610121+9999OA149900511REMSYN100AAXX  14064 06604 33/// /0703 10009 20004 39487 40076 56012 333 20008 3/000 55000 70042 91110 91206;
0128066040999992010011407004+47000+006950FM-12+0487LSGN V0200701N002119999999N9999999N1+00091+00041100721ADDMA1999999094831MD1610111+9999OA149900511REMSYN076AAXX  14074 06604 33/// /0704 10009 20004 39483 40072 56011 333 91110 91205;
0128066040999992010011408004+47000+006950FM-12+0487LSGN V0200701N002619999999N9999999N1+00091+00041100721ADDMA1999999094831MD1719999+9999OA149900511REMSYN076AAXX  14084 06604 33/// /0705 10009 20004 39483 40072 57/// 333 91110 91205;
0128066040999992010011409004+47000+006950FM-12+0487LSGN V0200701N003119999999N9999999N1+00101+00021100691ADDMA1999999094811MD1710061+9999OA149900511REMSYN076AAXX  14094 06604 33/// /0706 10010 20002 39481 40069 57006 333 91110 91206;
0128066040999992010011410004+47000+006950FM-12+0487LSGN V0200701N004119999999N9999999N1+00071-00021100711ADDMA1999999094821MD1010011+9999OA149900881REMSYN076AAXX  14104 06604 33/// /0708 10007 21002 39482 40071 50001 333 91117 91209;
0128066040999992010011411004+47000+006950FM-12+0487LSGN V0200801N003619999999N9999999N1+00101-00051100681ADDMA1999999094801MD1710031+9999OA149900881REMSYN076AAXX  14114 06604 33/// /0807 10010 21005 39480 40068 57003 333 91117 91209;
0128066040999992010011412004+47000+006950FM-12+0487LSGN V0200701N002619999999N9999999N1+00101-00041100671ADDMA1999999094791MD1810021+9999OA149900881REMSYN076AAXX  14124 06604 33/// /0705 10010 21004 39479 40067 58002 333 91117 91209;
0128066040999992010011413004+47000+006950FM-12+0487LSGN V0200601N002119999999N9999999N1+00121-00031100651ADDMA1999999094771MD1710051+9999OA149900621REMSYN076AAXX  14134 06604 33/// /0604 10012 21003 39477 40065 57005 333 91112 91207;
0128066040999992010011414004+47000+006950FM-12+0487LSGN V0200701N002619999999N9999999N1+00121-00021100641ADDMA1999999094761MD1710041+9999OA149900511REMSYN076AAXX  14144 06604 33/// /0705 10012 21002 39476 40064 57004 333 91110 91206;
0128066040999992010011415004+47000+006950FM-12+0487LSGN V0200601N003119999999N9999999N1+00111-00041100641ADDMA1999999094761MD1710031+9999OA149900881REMSYN076AAXX  14154 06604 33/// /0606 10011 21004 39476 40064 57003 333 91117 91209;
0128066040999992010011416004+47000+006950FM-12+0487LSGN V0200701N002119999999N9999999N1+00101-00031100681ADDMA1999999094801MD1310031+9999OA149900571REMSYN076AAXX  14164 06604 33/// /0704 10010 21003 39480 40068 53003 333 91111 91207;
0128066040999992010011417004+47000+006950FM-12+0487LSGN V0200501N002119999999N9999999N1+00111-00041100751ADDMA1999999094861MD1210101+9999OA149900571REMSYN076AAXX  14174 06604 33/// /0504 10011 21004 39486 40075 52010 333 91111 91206;
0147066040999992010011418004+47000+006950FM-12+0487LSGN V0200601N002619999999N9999999N1+00151-00061100831ADDKA1120M+00141MA1999999094951MD1310191+9999OA149900881REMSYN082AAXX  14184 06604 33/// /0605 10015 21006 39495 40083 53019 333 10014 91117 91209;
0128066040999992010011419004+47000+006950FM-12+0487LSGN V0200301N002119999999N9999999N1+00161-00071100911ADDMA1999999095031MD1310231+9999OA149900621REMSYN076AAXX  14194 06604 33/// /0304 10016 21007 39503 40091 53023 333 91112 91206;
0128066040999992010011420004+47000+006950FM-12+0487LSGN V0200501N001519999999N9999999N1+00171-00071101011ADDMA1999999095121MD1210261+9999OA149900511REMSYN076AAXX  14204 06604 33/// /0503 10017 21007 39512 40101 52026 333 91110 91205;
0128066040999992010011421004+47000+006950FM-12+0487LSGN V0200601N001019999999N9999999N1+00181-00061101111ADDMA1999999095221MD1310271+9999OA149900621REMSYN076AAXX  14214 06604 33/// /0602 10018 21006 39522 40111 53027 333 91112 91206;
0128066040999992010011422004+47000+006950FM-12+0487LSGN V0203501N000519999999N9999999N1+00131-00011101221ADDMA1999999095311MD1210281+9999OA149900361REMSYN076AAXX  14224 06604 33/// /3501 10013 21001 39531 40122 52028 333 91107 91203;
0128066040999992010011423004+47000+006950FM-12+0487LSGN V0200201N000519999999N9999999N1+00151+00001101291ADDMA1999999095381MD1210261+9999OA149900151REMSYN076AAXX  14234 06604 33/// /0201 10015 20000 39538 40129 52026 333 91103 91202;
0128066040999992010011500004+47000+006950FM-12+0487LSGN V0203201N000519999999N9999999N1+00131+00011101361ADDMA1999999095441MD1110221+9999OA149900621REMSYN076AAXX  15004 06604 33/// /3201 10013 20001 39544 40136 51022 333 91112 91207;
0128066040999992010011501004+47000+006950FM-12+0487LSGN V0203001N001019999999N9999999N1+00161+00001101401ADDMA1999999095491MD1210181+9999OA149900211REMSYN076AAXX  15014 06604 33/// /3002 10016 20000 39549 40140 52018 333 91104 91202;
0128066040999992010011502004+47000+006950FM-12+0487LSGN V0209999C000019999999N9999999N1+00191+00001101501ADDMA1999999095591MD1210211+9999OA149900211REMSYN076AAXX  15024 06604 33/// /0000 10019 20000 39559 40150 52021 333 91104 91202;
0087066040999992010011503004+47000+006950FM-12+0487LSGN V0203501N000519999999N9999999N1+00161+00031101571ADDMA1999999095651REMSYN060AAXX  15034 06604 33/// /3501 10016 20003 39565 40157 5////;
0128066040999992010011504004+47000+006950FM-12+0487LSGN V0202001N001519999999N9999999N1+00161+00031101661ADDMA1999999095731MD1110241+9999OA149900411REMSYN076AAXX  15044 06604 33/// /2003 10016 20003 39573 40166 51024 333 91108 91204;
0128066040999992010011505004+47000+006950FM-12+0487LSGN V0202001N003119999999N9999999N1+00141+00001101751ADDMA1999999095811MD1310221+9999OA149900511REMSYN076AAXX  15054 06604 33/// /2006 10014 20000 39581 40175 53022 333 91110 91206;
0225066040999992010011506004+47000+006950FM-12+0487LSGN V0202201N000519999999N9999999N1+00141-00011101861ADDAA124000091AL19900091GJ100009IA2999+00109KA1999N+00121MA1999999095921MD1310271+9999OA149900511REMSYN100AAXX  15064 06604 33/// /2201 10014 21001 39592 40186 53027 333 20012 3/001 55000 70000 91110 91206;EQDQ01  00002PRCP24
0128066040999992010011507004+47000+006950FM-12+0487LSGN V0202001N001519999999N9999999N1+00091-00021101981ADDMA1999999096021MD1210291+9999OA149900461REMSYN076AAXX  15074 06604 33/// /2003 10009 21002 39602 40198 52029 333 91109 91205;
0128066040999992010011508004+47000+006950FM-12+0487LSGN V0202101N001019999999N9999999N1+00101-00011102081ADDMA1999999096111MD1219999+9999OA149900361REMSYN076AAXX  15084 06604 33/// /2102 10010 21001 39611 40208 52/// 333 91107 91204;
0128066040999992010011509004+47000+006950FM-12+0487LSGN V0201801N001519999999N9999999N1+00141+00001102141ADDMA1999999096181MD1110261+9999OA149900511REMSYN076AAXX  15094 06604 33/// /1803 10014 20000 39618 40214 51026 333 91110 91206;
0128066040999992010011510004+47000+006950FM-12+0487LSGN V0200901N000519999999N9999999N1+00141-00021102231ADDMA1999999096261MD1110241+9999OA149900311REMSYN076AAXX  15104 06604 33/// /0901 10014 21002 39626 40223 51024 333 91106 91203;
0128066040999992010011511004+47000+006950FM-12+0487LSGN V0201801N001019999999N9999999N1+00181-00011102241ADDMA1999999096281MD1210171+9999OA149900211REMSYN076AAXX  15114 06604 33/// /1802 10018 21001 39628 40224 52017 333 91104 91202;
0128066040999992010011512004+47000+006950FM-12+0487LSGN V0202201N001019999999N9999999N1+00201+00021102261ADDMA1999999096311MD1210131+9999OA149900511REMSYN076AAXX  15124 06604 33/// /2202 10020 20002 39631 40226 52013 333 91110 91206;
0128066040999992010011513004+47000+006950FM-12+0487LSGN V0202201N000519999999N9999999N1+00181+00021102301ADDMA1999999096341MD1210081+9999OA149900211REMSYN076AAXX  15134 06604 33/// /2201 10018 20002 39634 40230 52008 333 91104 91202;
0128066040999992010011514004+47000+006950FM-12+0487LSGN V0201001N001019999999N9999999N1+00201+00021102361ADDMA1999999096401MD1210121+9999OA149900211REMSYN076AAXX  15144 06604 33/// /1002 10020 20002 39640 40236 52012 333 91104 91202;
0128066040999992010011515004+47000+006950FM-12+0487LSGN V0201201N001519999999N9999999N1+00181+00021102441ADDMA1999999096471MD1210161+9999OA149900211REMSYN076AAXX  15154 06604 33/// /1203 10018 20002 39647 40244 52016 333 91104 91203;
0128066040999992010011516004+47000+006950FM-12+0487LSGN V0200201N001019999999N9999999N1+00151+00001102501ADDMA1999999096521MD1210181+9999OA149900311REMSYN076AAXX  15164 06604 33/// /0202 10015 20000 39652 40250 52018 333 91106 91203;
0128066040999992010011517004+47000+006950FM-12+0487LSGN V0200301N001019999999N9999999N1+00121-00021102551ADDMA1999999096561MD1110161+9999OA149900311REMSYN076AAXX  15174 06604 33/// /0302 10012 21002 39656 40255 51016 333 91106 91203;
0147066040999992010011518004+47000+006950FM-12+0487LSGN V0200501N001019999999N9999999N1+00111-00031102581ADDKA1120M+00221MA1999999096591MD1210121+9999OA149900361REMSYN082AAXX  15184 06604 33/// /0502 10011 21003 39659 40258 52012 333 10022 91107 91204;
0128066040999992010011519004+47000+006950FM-12+0487LSGN V0200801N002119999999N9999999N1+00101-00031102621ADDMA1999999096621MD1210101+9999OA149900361REMSYN076AAXX  15194 06604 33/// /0804 10010 21003 39662 40262 52010 333 91107 91204;
0128066040999992010011520004+47000+006950FM-12+0487LSGN V0200701N002619999999N9999999N1+00081-00031102611ADDMA1999999096611MD1210051+9999OA149900461REMSYN076AAXX  15204 06604 33/// /0705 10008 21003 39661 40261 52005 333 91109 91205;
0128066040999992010011521004+47000+006950FM-12+0487LSGN V0200701N001519999999N9999999N1+00081-00051102621ADDMA1999999096621MD1210031+9999OA149900511REMSYN076AAXX  15214 06604 33/// /0703 10008 21005 39662 40262 52003 333 91110 91207;
0128066040999992010011522004+47000+006950FM-12+0487LSGN V0200501N001519999999N9999999N1+00081-00071102631ADDMA1999999096631MD1210011+9999OA149900511REMSYN076AAXX  15224 06604 33/// /0503 10008 21007 39663 40263 52001 333 91110 91207;
0128066040999992010011523004+47000+006950FM-12+0487LSGN V0200901N001519999999N9999999N1+00081-00051102661ADDMA1999999096661MD1210051+9999OA149900361REMSYN076AAXX  15234 06604 33/// /0903 10008 21005 39666 40266 52005 333 91107 91204;
0128066040999992010011600004+47000+006950FM-12+0487LSGN V0200701N001019999999N9999999N1+00081-00071102641ADDMA1999999096641MD1010021+9999OA149900511REMSYN076AAXX  16004 06604 33/// /0702 10008 21007 39664 40264 50002 333 91110 91207;
0147066040999992010011601004+47000+006950FM-12+0487LSGN V0201201N001519999999N9999999N1+00051-00091102641ADDMA1999999096631MD1710011+9999OA149900361REMSYN076AAXX  16014 06604 33/// /1203 10005 21009 39663 40264 57000 333 91107 91204;EQDQ01+000002APC3  
0128066040999992010011602004+47000+006950FM-12+0487LSGN V0200301N001019999999N9999999N1+00031-00111102621ADDMA1999999096611MD1710051+9999OA149900411REMSYN076AAXX  16024 06604 33/// /0302 10003 21011 39661 40262 57005 333 91108 91204;
0128066040999992010011603004+47000+006950FM-12+0487LSGN V0203501N001519999999N9999999N1+00031-00111102591ADDMA1999999096581MD1719999+9999OA149900411REMSYN076AAXX  16034 06604 33/// /3503 10003 21011 39658 40259 57/// 333 91108 91204;
0128066040999992010011604004+47000+006950FM-12+0487LSGN V0203301N001019999999N9999999N1+00011-00151102551ADDMA1999999096541MD1710091+9999OA149900311REMSYN076AAXX  16044 06604 33/// /3302 10001 21015 39654 40255 57009 333 91106 91203;
0128066040999992010011605004+47000+006950FM-12+0487LSGN V0209999C001519999999N9999999N1+00001-00161102481ADDMA1999999096471MD1710141+9999OA149900311REMSYN076AAXX  16054 06604 33/// /0003 10000 21016 39647 40248 57014 333 91106 91203;
0225066040999992010011606004+47000+006950FM-12+0487LSGN V0200301N001019999999N9999999N1-00011-00181102441ADDAA124000091AL19900091GJ100009IA2999+00009KA1999N-00011MA1999999096431MD1610151+9999OA149900511REMSYN100AAXX  16064 06604 33/// /0302 11001 21018 39643 40244 56015 333 21001 3/100 55000 70000 91110 91207;EQDQ01  00002PRCP24
0128066040999992010011607004+47000+006950FM-12+0487LSGN V0200501N001519999999N9999999N1-00021-00171102401ADDMA1999999096391MD1710151+9999OA149900311REMSYN076AAXX  16074 06604 33/// /0503 11002 21017 39639 40240 57015 333 91106 91203;
0128066040999992010011608004+47000+006950FM-12+0487LSGN V0200401N001519999999N9999999N1-00021-00181102371ADDMA1999999096361MD1710111+9999OA149900311REMSYN076AAXX  16084 06604 33/// /0403 11002 21018 39636 40237 57011 333 91106 91204;
0128066040999992010011609004+47000+006950FM-12+0487LSGN V0200901N000519999999N9999999N1-00031-00181102321ADDMA1999999096311MD1710121+9999OA149900311REMSYN076AAXX  16094 06604 33/// /0901 11003 21018 39631 40232 57012 333 91106 91204;
0128066040999992010011610004+47000+006950FM-12+0487LSGN V0200901N000519999999N9999999N1-00021-00151102321ADDMA1999999096311MD1710081+9999OA149900211REMSYN076AAXX  16104 06604 33/// /0901 11002 21015 39631 40232 57008 333 91104 91202;
0128066040999992010011611004+47000+006950FM-12+0487LSGN V0202001N000519999999N9999999N1+00001-00151102291ADDMA1999999096291MD1710071+9999OA149900211REMSYN076AAXX  16114 06604 33/// /2001 10000 21015 39629 40229 57007 333 91104 91202;
0128066040999992010011612004+47000+006950FM-12+0487LSGN V0202101N001519999999N9999999N1+00061-00191102221ADDMA1999999096241MD1710071+9999OA149900411REMSYN076AAXX  16124 06604 33/// /2103 10006 21019 39624 40222 57007 333 91108 91204;
0128066040999992010011613004+47000+006950FM-12+0487LSGN V0202201N001519999999N9999999N1+00061-00171102151ADDMA1999999096171MD1710141+9999OA149900361REMSYN076AAXX  16134 06604 33/// /2203 10006 21017 39617 40215 57014 333 91107 91204;
0128066040999992010011614004+47000+006950FM-12+0487LSGN V0202201N001019999999N9999999N1+00091-00171102051ADDMA1999999096081MD1819999+9999OA149900361REMSYN076AAXX  16144 06604 33/// /2202 10009 21017 39608 40205 58/// 333 91107 91204;
0128066040999992010011615004+47000+006950FM-12+0487LSGN V0202601N000519999999N9999999N1+00111-00181102011ADDMA1999999096051MD1610191+9999OA149900411REMSYN076AAXX  16154 06604 33/// /2601 10011 21018 39605 40201 56019 333 91108 91204;
0128066040999992010011616004+47000+006950FM-12+0487LSGN V0202701N001019999999N9999999N1+00121-00141101971ADDMA1999999096021MD1610151+9999OA149900411REMSYN076AAXX  16164 06604 33/// /2702 10012 21014 39602 40197 56015 333 91108 91203;
0128066040999992010011617004+47000+006950FM-12+0487LSGN V0202801N001519999999N9999999N1+00131-00151102031ADDMA1999999096071MD1510011+9999OA149900261REMSYN076AAXX  16174 06604 33/// /2803 10013 21015 39607 40203 55001 333 91105 91203;
0170066040999992010011618004+47000+006950FM-12+0487LSGN V0202301N001519999999N9999999N1+00081-00041102021ADDAA112000391KA1120M+00151MA1999999096051MD1010001+9999OA149900411REMSYN094AAXX  16184 06604 03/// /2303 10008 21004 39605 40202 50000 69932 333 10015 69935 91108 91204;
0145066040999992010011619004+47000+006950FM-12+0487LSGN V0202301N001519999999N9999999N1+00081+00031101961ADDAA101001091MA1999999096001MD1810021+9999OA149900411REMSYN082AAXX  16194 06604 23/// /2303 10008 20003 39600 40196 58002 333 60015 91108 91204;
0145066040999992010011620004+47000+006950FM-12+0487LSGN V0202501N002619999999N9999999N1+00251+00161101851ADDAA101001091MA1999999095931MD1710141+9999OA149900671REMSYN082AAXX  16204 06604 23/// /2505 10025 20016 39593 40185 57014 333 60015 91113 91206;
0145066040999992010011621004+47000+006950FM-12+0487LSGN V0202601N005119999999N9999999N1+00371+00241101741ADDAA101000891MA1999999095851MD1810201+9999OA149901031REMSYN082AAXX  16214 06604 23/// /2610 10037 20024 39585 40174 58020 333 69975 91120 91211;
0145066040999992010011622004+47000+006950FM-12+0487LSGN V0202501N005719999999N9999999N1+00421+00281101771ADDAA101001091MA1999999095891MD1510111+9999OA149901601REMSYN082AAXX  16224 06604 23/// /2511 10042 20028 39589 40177 55011 333 60015 91131 91216;
0145066040999992010011623004+47000+006950FM-12+0487LSGN V0202401N007219999999N9999999N1+00431+00281101821ADDAA101002091MA1999999095941MD1310011+9999OA149901601REMSYN082AAXX  16234 06604 23/// /2414 10043 20028 39594 40182 53001 333 60025 91131 91216;
0151066040999992010011700004+47000+006950FM-12+0487LSGN V0202401N007219999999N9999999N1+00421+00251101851ADDAA106007191MA1999999095971MD1210121+9999OA149901601REMSYN088AAXX  17004 06604 03/// /2414 10042 20025 39597 40185 52012 60071 333 69925 91131 91217;
0128066040999992010011701004+47000+006950FM-12+0487LSGN V0202501N007719999999N9999999N1+00461+00201101831ADDMA1999999095961MD1210071+9999OA149901601REMSYN076AAXX  17014 06604 33/// /2515 10046 20020 39596 40183 52007 333 91131 91217;
0145066040999992010011702004+47000+006950FM-12+0487LSGN V0202401N005719999999N9999999N1+00491+00271101771ADDAA101000021MA1999999095911MD1819999+9999OA149901601REMSYN082AAXX  17024 06604 23/// /2411 10049 20027 39591 40177 58/// 333 69915 91131 91216;
0087066040999992010011703004+47000+006950FM-12+0487LSGN V0202301N005719999999N9999999N1+00421+00301101781ADDMA1999999095901REMSYN060AAXX  17034 06604 43/// /2311 10042 20030 39590 40178 5////;
0145066040999992010011704004+47000+006950FM-12+0487LSGN V0202301N005119999999N9999999N1+00431+00311101781ADDAA101000021MA1999999095901MD1610061+9999OA149901441REMSYN082AAXX  17044 06604 23/// /2310 10043 20031 39590 40178 56006 333 69915 91128 91214;
0145066040999992010011705004+47000+006950FM-12+0487LSGN V0202401N006219999999N9999999N1+00511+00351101731ADDAA101000021MA1999999095871MD1819999+9999OA149901241REMSYN082AAXX  17054 06604 23/// /2412 10051 20035 39587 40173 58/// 333 69915 91124 91212;
0229066040999992010011706004+47000+006950FM-12+0487LSGN V0202501N005719999999N9999999N1+00491+00371101771ADDAA112007191AA224007491AL12400791GJ100009IA2999+00009KA1999N+00051MA1999999095911MD1210011+9999OA149901601REMSYN112AAXX  17064 06604 03/// /2511 10049 20037 39591 40177 52001 60072 333 20005 3/000 55000 69915 70074 91131 91217;
0145066040999992010011707004+47000+006950FM-12+0487LSGN V0202601N005719999999N9999999N1+00471+00371101841ADDAA101001091MA1999999095971MD1310071+9999OA149901341REMSYN082AAXX  17074 06604 23/// /2611 10047 20037 39597 40184 53007 333 69995 91126 91215;
0145066040999992010011708004+47000+006950FM-12+0487LSGN V0202501N005119999999N9999999N1+00511+00391101961ADDAA101001091MA1999999096091MD1319999+9999OA149901241REMSYN082AAXX  17084 06604 23/// /2510 10051 20039 39609 40196 53/// 333 60015 91124 91213;
0145066040999992010011709004+47000+006950FM-12+0487LSGN V0202601N005719999999N9999999N1+00521+00371102051ADDAA101000021MA1999999096181MD1310271+9999OA149901491REMSYN082AAXX  17094 06604 23/// /2611 10052 20037 39618 40205 53027 333 69915 91129 91215;
0145066040999992010011710004+47000+006950FM-12+0487LSGN V0202801N006719999999N9999999N1+00591+00261102111ADDAA101000021MA1999999096251MD1110281+9999OA149901491REMSYN082AAXX  17104 06604 23/// /2813 10059 20026 39625 40211 51028 333 69915 91129 91214;
0128066040999992010011711004+47000+006950FM-12+0487LSGN V0202701N005119999999N9999999N1+00731+00181102191ADDMA1999999096351MD1210261+9999OA149901131REMSYN076AAXX  17114 06604 33/// /2710 10073 20018 39635 40219 52026 333 91122 91214;
0151066040999992010011712004+47000+006950FM-12+0487LSGN V0202801N004619999999N9999999N1+00661+00291102261ADDAA106002091MA1999999096401MD1210221+9999OA149901601REMSYN088AAXX  17124 06604 03/// /2809 10066 20029 39640 40226 52022 60021 333 60005 91131 91216;
0128066040999992010011713004+47000+006950FM-12+0487LSGN V0202301N003619999999N9999999N1+00701+00121102271ADDMA1999999096421MD1210171+9999OA149901291REMSYN076AAXX  17134 06604 33/// /2307 10070 20012 39642 40227 52017 333 91125 91215;
0128066040999992010011714004+47000+006950FM-12+0487LSGN V0202401N004119999999N9999999N1+00661-00061102331ADDMA1999999096471MD1219999+9999OA149900881REMSYN076AAXX  17144 06604 33/// /2408 10066 21006 39647 40233 52/// 333 91117 91210;
0128066040999992010011715004+47000+006950FM-12+0487LSGN V0202501N002619999999N9999999N1+00671-00011102411ADDMA1999999096551MD1310151+9999OA149901291REMSYN076AAXX  17154 06604 33/// /2505 10067 21001 39655 40241 53015 333 91125 91215;
0128066040999992010011716004+47000+006950FM-12+0487LSGN V0202501N002619999999N9999999N1+00591-00031102531ADDMA1999999096641MD1310221+9999OA149900721REMSYN076AAXX  17164 06604 33/// /2505 10059 21003 39664 40253 53022 333 91114 91208;
0128066040999992010011717004+47000+006950FM-12+0487LSGN V0202901N003119999999N9999999N1+00451-00021102591ADDMA1999999096671MD1210201+9999OA149900721REMSYN076AAXX  17174 06604 33/// /2906 10045 21002 39667 40259 52020 333 91114 91207;
0170066040999992010011718004+47000+006950FM-12+0487LSGN V0203101N004119999999N9999999N1+00441-00051102631ADDAA112002091KA1120M+00751MA1999999096711MD1210161+9999OA149901491REMSYN094AAXX  17184 06604 03/// /3108 10044 21005 39671 40263 52016 60022 333 10075 60005 91129 91215;
0128066040999992010011719004+47000+006950FM-12+0487LSGN V0203101N005119999999N9999999N1+00511-00081102661ADDMA1999999096751MD1210111+9999OA149900931REMSYN076AAXX  17194 06604 33/// /3110 10051 21008 39675 40266 52011 333 91118 91210;
0128066040999992010011720004+47000+006950FM-12+0487LSGN V0203301N002119999999N9999999N1+00471-00141102691ADDMA1999999096771MD1210101+9999OA149901081REMSYN076AAXX  17204 06604 33/// /3304 10047 21014 39677 40269 52010 333 91121 91212;
0128066040999992010011721004+47000+006950FM-12+0487LSGN V0202701N002619999999N9999999N1+00431+00011102751ADDMA1999999096821MD1210111+9999OA149901081REMSYN076AAXX  17214 06604 33/// /2705 10043 20001 39682 40275 52011 333 91121 91212;
0128066040999992010011722004+47000+006950FM-12+0487LSGN V0202001N000519999999N9999999N1+00441+00031102731ADDMA1999999096801MD1210051+9999OA149900461REMSYN076AAXX  17224 06604 33/// /2001 10044 20003 39680 40273 52005 333 91109 91206;
0128066040999992010011723004+47000+006950FM-12+0487LSGN V0202901N000519999999N9999999N1+00301+00041102781ADDMA1999999096821MD1210051+9999OA149900411REMSYN076AAXX  17234 06604 33/// /2901 10030 20004 39682 40278 52005 333 91108 91205;
0128066040999992010011800004+47000+006950FM-12+0487LSGN V0200601N001519999999N9999999N1+00301+00111102751ADDMA1999999096791MD1710031+9999OA149901081REMSYN076AAXX  18004 06604 33/// /0603 10030 20011 39679 40275 57003 333 91121 91212;
0128066040999992010011801004+47000+006950FM-12+0487LSGN V0200301N001019999999N9999999N1+00191+00021102801ADDMA1999999096811MD1210011+9999OA149900261REMSYN076AAXX  18014 06604 33/// /0302 10019 20002 39681 40280 52001 333 91105 91204;
0087066040999992010011802004+47000+006950FM-12+0487LSGN V0200701N001519999999N9999999N1+00181+00001102801ADDMA1999999096811REMSYN060AAXX  18024 06604 33/// /0703 10018 20000 39681 40280 5////;
0087066040999992010011803004+47000+006950FM-12+0487LSGN V0200301N000519999999N9999999N1+00211+00041102811ADDMA1999999096831REMSYN060AAXX  18034 06604 33/// /0301 10021 20004 39683 40281 5////;
0128066040999992010011804004+47000+006950FM-12+0487LSGN V0200601N000519999999N9999999N1+00221+00061102791ADDMA1999999096811MD1010001+9999OA149900211REMSYN076AAXX  18044 06604 33/// /0601 10022 20006 39681 40279 50000 333 91104 91203;
0128066040999992010011805004+47000+006950FM-12+0487LSGN V0200801N001019999999N9999999N1+00211+00061102791ADDMA1999999096811MD1010001+9999OA149900151REMSYN076AAXX  18054 06604 33/// /0802 10021 20006 39681 40279 50000 333 91103 91202;
0206066040999992010011806004+47000+006950FM-12+0487LSGN V0200701N001019999999N9999999N1+00171+00031102841ADDAA124002391AL11800291GJ101269IA2999+00009KA1999N+00161MA1999999096851MD1310021+9999OA149901081REMSYN100AAXX  18064 06604 33/// /0702 10017 20003 39685 40284 53002 333 20016 3/000 55021 70023 91121 91212;
0128066040999992010011807004+47000+006950FM-12+0487LSGN V0201001N000519999999N9999999N1+00181-00031102871ADDMA1999999096881MD1210071+9999OA149900211REMSYN076AAXX  18074 06604 33/// /1001 10018 21003 39688 40287 52007 333 91104 91203;
0128066040999992010011808004+47000+006950FM-12+0487LSGN V0200901N000519999999N9999999N1+00251+00011102871ADDMA1999999096891MD1219999+9999OA149900151REMSYN076AAXX  18084 06604 33/// /0901 10025 20001 39689 40287 52/// 333 91103 91202;
0128066040999992010011809004+47000+006950FM-12+0487LSGN V0201001N001019999999N9999999N1+00301-00071102881ADDMA1999999096911MD1210061+9999OA149900211REMSYN076AAXX  18094 06604 33/// /1002 10030 21007 39691 40288 52006 333 91104 91203;
