0137066090999992010010100004+46550+007017FM-12+197299999V0202401N004119999999N9999999N1-00141-00351999999ADDMA1999999077791MD1610111+9999ME1312639OA149901491REMSYN076AAXX  01004 06609 33/// /2408 11014 21035 37779 48263 56011 333 91129 91214;
0137066090999992010010101004+46550+007017FM-12+197299999V0203101N002119999999N9999999N1-00161-00441999999ADDMA1999999077741MD1810121+9999ME1312589OA149900671REMSYN076AAXX  01014 06609 33/// /3104 11016 21044 37774 48258 58012 333 91113 91208;
0137066090999992010010102004+46550+007017FM-12+197299999V0202601N003619999999N9999999N1-00121-00511999999ADDMA1999999077701MD1819999+9999ME1312539OA149900511REMSYN076AAXX  01024 06609 33/// /2607 11012 21051 37770 48253 58/// 333 91110 91207;
0096066090999992010010103004+46550+007017FM-12+197299999V0202601N003119999999N9999999N1-00131-00531999999ADDMA1999999077641ME1312479REMSYN060AAXX  01034 06609 43/// /2606 11013 21053 37764 48247 5////;
0096066090999992010010104004+46550+007017FM-12+197299999V0202401N002119999999N9999999N1-00111-00561999999ADDMA1999999077601ME1312429REMSYN060AAXX  01044 06609 33/// /2404 11011 21056 37760 48242 5////;
0137066090999992010010105004+46550+007017FM-12+197299999V0200501N001019999999N9999999N1-00171-00561999999ADDMA1999999077581MD1610121+9999ME1312429OA149900411REMSYN076AAXX  01054 06609 33/// /0502 11017 21056 37758 48242 56012 333 91108 91206;
0216066090999992010010106004+46550+007017FM-12+197299999V0200301N002119999999N9999999N1-00231-00461999999ADDAA124000091AL10600091GJ100309KA1999N-00211MA1999999077561MD1610081+9999ME1312419OA149901241REMSYN094AAXX  01064 06609 33/// /0304 11023 21046 37756 48241 56008 333 21021 55005 70001 91124 91209;EQDQ01  00002PRCP24
0137066090999992010010107004+46550+007017FM-12+197299999V0200301N003619999999N9999999N1-00291-00291999999ADDMA1999999077551MD1610051+9999ME1312429OA149900411REMSYN076AAXX  01074 06609 33/// /0307 11029 21029 37755 48242 56005 333 91108 91207;
0137066090999992010010108004+46550+007017FM-12+197299999V0200201N002619999999N9999999N1-00321-00611999999ADDMA1999999077601MD1310021+9999ME1312489OA149900461REMSYN076AAXX  01084 06609 33/// /0205 11032 21061 37760 48248 53002 333 91109 91207;
0137066090999992010010109004+46550+007017FM-12+197299999V0200401N002619999999N9999999N1-00201-00201999999ADDMA1999999077641MD1210081+9999ME1312499OA149900461REMSYN076AAXX  01094 06609 33/// /0405 11020 21020 37764 48249 52008 333 91109 91207;
0137066090999992010010110004+46550+007017FM-12+197299999V0200301N003119999999N9999999N1-00271-00541999999ADDMA1999999077701MD1110151+9999ME1312579OA149900361REMSYN076AAXX  01104 06609 33/// /0306 11027 21054 37770 48257 51015 333 91107 91206;
0137066090999992010010111004+46550+007017FM-12+197299999V0200301N002619999999N9999999N1-00281-00341999999ADDMA1999999077711MD1110111+9999ME1312589OA149900411REMSYN076AAXX  01114 06609 33/// /0305 11028 21034 37771 48258 51011 333 91108 91206;
0137066090999992010010112004+46550+007017FM-12+197299999V0200401N002619999999N9999999N1-00241-00381999999ADDMA1999999077711MD1210071+9999ME1312579OA149900511REMSYN076AAXX  01124 06609 33/// /0405 11024 21038 37771 48257 52007 333 91110 91207;
0154066090999992010010113004+46550+007017FM-12+197299999V0202901N001519999999N9999999N1-00301-00301999999ADDAA101000021MA1999999077751MD1210051+9999ME1312639OA149900361REMSYN082AAXX  01134 06609 23/// /2903 11030 21030 37775 48263 52005 333 69915 91107 91206;
0137066090999992010010114004+46550+007017FM-12+197299999V0202701N004119999999N9999999N1-00331-00381999999ADDMA1999999077801MD1219999+9999ME1312699OA149900621REMSYN076AAXX  01144 06609 33/// /2708 11033 21038 37780 48269 52/// 333 91112 91208;
0154066090999992010010115004+46550+007017FM-12+197299999V0202701N006219999999N9999999N1-00371-00371999999ADDAA101001091MA1999999077891MD1310181+9999ME1312799OA149900881REMSYN082AAXX  01154 06609 23/// /2712 11037 21037 37789 48279 53018 333 69995 91117 91212;
0154066090999992010010116004+46550+007017FM-12+197299999V0202701N005119999999N9999999N1-00521-00521999999ADDAA101000591MA1999999077991MD1310241+9999ME1312939OA149901131REMSYN082AAXX  01164 06609 23/// /2710 11052 21052 37799 48293 53024 333 69955 91122 91213;
0154066090999992010010117004+46550+007017FM-12+197299999V0202801N007719999999N9999999N1-00551-00551999999ADDAA101001091MA1999999078121MD1310321+9999ME1313089OA149901131REMSYN082AAXX  01174 06609 23/// /2815 11055 21055 37812 48308 53032 333 60015 91122 91215;
0179066090999992010010118004+46550+007017FM-12+197299999V0202701N007219999999N9999999N1-00531-00531999999ADDAA112003091KA1120M-00191MA1999999078241MD1210351+9999ME1313199OA149901241REMSYN094AAXX  01184 06609 03/// /2714 11053 21053 37824 48319 52035 60032 333 11019 69925 91124 91218;
0154066090999992010010119004+46550+007017FM-12+197299999V0202701N007219999999N9999999N1-00561-00561999999ADDAA101000391MA1999999078341MD1210351+9999ME1313309OA149901341REMSYN082AAXX  01194 06609 23/// /2714 11056 21056 37834 48330 52035 333 69935 91126 91218;
0154066090999992010010120004+46550+007017FM-12+197299999V0202801N005719999999N9999999N1-00731-00731999999ADDAA101000591MA1999999078431MD1110311+9999ME1313449OA149901341REMSYN082AAXX  01204 06609 23/// /2811 11073 21073 37843 48344 51031 333 69955 91126 91218;
0154066090999992010010121004+46550+007017FM-12+197299999V0202701N007719999999N9999999N1-00741-00741999999ADDAA101000021MA1999999078481MD1110241+9999ME1313499OA149901601REMSYN082AAXX  01214 06609 23/// /2715 11074 21074 37848 48349 51024 333 69915 91131 91218;
0137066090999992010010122004+46550+007017FM-12+197299999V0202701N007219999999N9999999N1-00851-01271999999ADDMA1999999078511MD1210171+9999ME1313549OA149901601REMSYN076AAXX  01224 06609 33/// /2714 11085 21127 37851 48354 52017 333 91131 91217;
0137066090999992010010123004+46550+007017FM-12+197299999V0202701N006719999999N9999999N1-00901-01251999999ADDMA1999999078551MD1210121+9999ME1313609OA149901441REMSYN076AAXX  01234 06609 33/// /2713 11090 21125 37855 48360 52012 333 91128 91217;
0160066090999992010010200004+46550+007017FM-12+197299999V0202701N005719999999N9999999N1-01021-01021999999ADDAA106001091MA1999999078601MD1210121+9999ME1313689OA149901601REMSYN088AAXX  02004 06609 03/// /2711 11102 21102 37860 48368 52012 69991 333 60005 91131 91218;
0154066090999992010010201004+46550+007017FM-12+197299999V0202701N007219999999N9999999N1-01061-01511999999ADDAA101000021MA1999999078641MD1110131+9999ME1313729OA149901181REMSYN082AAXX  02014 06609 23/// /2714 11106 21151 37864 48372 51013 333 69915 91123 91214;
0117066090999992010010202004+46550+007017FM-12+197299999V0202801N008219999999N9999999N1-01111-01111999999ADDAA101000021MA1999999078731ME1313839REMSYN070AAXX  02024 06609 23/// /2816 11111 21111 37873 48383 5//// 333 69925;
0154066090999992010010203004+46550+007017FM-12+197299999V0202701N007219999999N9999999N1-01171-01171999999ADDAA101000021MA1999999078801MD1310201+9999ME1313919OA149901441REMSYN082AAXX  02034 06609 23/// /2714 11117 21117 37880 48391 53020 333 69915 91128 91217;
0110066090999992010010204004+46550+007017FM-12+197299999V0202701N004119999999N9999999N1-01241-01241999999ADDMA1999999078861MD1110221+9999ME1313989REMSYN060AAXX  02044 06609 33/// /2708 11124 21124 37886 48398 51022;
0131066090999992010010205004+46550+007017FM-12+197299999V0202801N004619999999N9999999N1-01311-01311999999ADDAA101000021MA1999999078871MD1210141+9999ME1314019REMSYN070AAXX  02054 06609 23/// /2809 11131 21131 37887 48401 52014 333 69915;
0220066090999992010010206004+46550+007017FM-12+197299999V0202801N004119999999N9999999N1-01341-01341999999ADDAA112002091AA224004391AL11800491GJ100249KA1999N-01321MA1999999078911MD1210111+9999ME1314059OA149901601REMSYN106AAXX  02064 06609 03/// /2808 11134 21134 37891 48405 52011 60022 333 21132 55004 69935 70043 91131 91218;
0137066090999992010010207004+46550+007017FM-12+197299999V0202801N004119999999N9999999N1-01361-01851999999ADDMA1999999078981MD1210121+9999ME1314139OA149900771REMSYN076AAXX  02074 06609 33/// /2808 11136 21185 37898 48413 52012 333 91115 91209;
0096066090999992010010208004+46550+007017FM-12+197299999V0202901N001519999999N9999999N1-01321-01321999999ADDMA1999999079011ME1314159REMSYN060AAXX  02084 06609 33/// /2903 11132 21132 37901 48415 5////;
0137066090999992010010209004+46550+007017FM-12+197299999V0202801N003619999999N9999999N1-01291-01291999999ADDMA1999999079091MD1210181+9999ME1314229OA149900931REMSYN076AAXX  02094 06609 33/// /2807 11129 21129 37909 48422 52018 333 91118 91212;
0137066090999992010010210004+46550+007017FM-12+197299999V0202901N002619999999N9999999N1-01351-01731999999ADDMA1999999079161MD1310181+9999ME1314309OA149900671REMSYN076AAXX  02104 06609 33/// /2905 11135 21173 37916 48430 53018 333 91113 91207;
0154066090999992010010211004+46550+007017FM-12+197299999V0202801N003619999999N9999999N1-01331-01331999999ADDAA101000021MA1999999079201MD1110191+9999ME1314349OA149900771REMSYN082AAXX  02114 06609 23/// /2807 11133 21133 37920 48434 51019 333 69915 91115 91211;
0179066090999992010010212004+46550+007017FM-12+197299999V0203501N002119999999N9999999N1-01331-01331999999ADDAA106000091MA1999999079251MD1110161+9999ME1314389OA149901341REMSYN088AAXX  02124 06609 03/// /3504 11133 21133 37925 48438 51016 69911 333 60005 91126 91217;EQDQ01  00002PRCP06
0137066090999992010010213004+46550+007017FM-12+197299999V0203201N001519999999N9999999N1-01351-01351999999ADDMA1999999079291MD1310131+9999ME1314439OA149900571REMSYN076AAXX  02134 06609 33/// /3203 11135 21135 37929 48443 53013 333 91111 91207;
0137066090999992010010214004+46550+007017FM-12+197299999V0200101N002119999999N9999999N1-01351-01351999999ADDMA1999999079341MD1319999+9999ME1314489OA149900771REMSYN076AAXX  02144 06609 33/// /0104 11135 21135 37934 48448 53/// 333 91115 91205;
0137066090999992010010215004+46550+007017FM-12+197299999V0200101N002619999999N9999999N1-01441-01631999999ADDMA1999999079421MD1310171+9999ME1314579OA149900771REMSYN076AAXX  02154 06609 33/// /0105 11144 21163 37942 48457 53017 333 91115 91211;
0137066090999992010010216004+46550+007017FM-12+197299999V0209999C001519999999N9999999N1-01481-01651999999ADDMA1999999079471MD1210181+9999ME1314639OA149900671REMSYN076AAXX  02164 06609 33/// /0003 11148 21165 37947 48463 52018 333 91113 91206;
0137066090999992010010217004+46550+007017FM-12+197299999V0200601N001519999999N9999999N1-01551-01891999999ADDMA1999999079521MD1110181+9999ME1314699OA149900511REMSYN076AAXX  02174 06609 33/// /0603 11155 21189 37952 48469 51018 333 91110 91205;
0198066090999992010010218004+46550+007017FM-12+197299999V0200801N003119999999N9999999N1-01431-01641999999ADDAA112000091KA1120M-01221MA1999999079551MD1110131+9999ME1314709OA149900771REMSYN094AAXX  02184 06609 03/// /0806 11143 21164 37955 48470 51013 69912 333 11122 60005 91115 91211;EQDQ01  00002PRCP12
0137066090999992010010219004+46550+007017FM-12+197299999V0201101N002119999999N9999999N1-01461-01961999999ADDMA1999999079561MD1210091+9999ME1314719OA149900411REMSYN076AAXX  02194 06609 33/// /1104 11146 21196 37956 48471 52009 333 91108 91206;
0137066090999992010010220004+46550+007017FM-12+197299999V0200301N002119999999N9999999N1-01451-02101999999ADDMA1999999079571MD1210051+9999ME1314729OA149900511REMSYN076AAXX  02204 06609 33/// /0304 11145 21210 37957 48472 52005 333 91110 91206;
0156066090999992010010221004+46550+007017FM-12+197299999V0200501N004619999999N9999999N1-01481+99999999999ADDMA1999999079541MD1710011+9999ME1314709OA149900571REMSYN076AAXX  02214 06609 33/// /0509 11148 21204 37954 48470 57001 333 91111 91209;EQDQ01-002043ATOD  
0137066090999992010010222004+46550+007017FM-12+197299999V0200701N002619999999N9999999N1-01431-02871999999ADDMA1999999079591MD1310031+9999ME1314749OA149900571REMSYN076AAXX  02224 06609 33/// /0705 11143 21287 37959 48474 53003 333 91111 91210;
0137066090999992010010223004+46550+007017FM-12+197299999V0201101N001519999999N9999999N1-01331-02671999999ADDMA1999999079621MD1210051+9999ME1314749OA149900571REMSYN076AAXX  02234 06609 33/// /1103 11133 21267 37962 48474 52005 333 91111 91210;
0137066090999992010010300004+46550+007017FM-12+197299999V0201901N001019999999N9999999N1-01281-02761999999ADDMA1999999079591MD1010051+9999ME1314719OA149900771REMSYN076AAXX  03004 06609 33/// /1902 11128 21276 37959 48471 50005 333 91115 91210;
0137066090999992010010301004+46550+007017FM-12+197299999V0201401N002619999999N9999999N1-01321-02961999999ADDMA1999999079581MD1810011+9999ME1314709OA149900361REMSYN076AAXX  03014 06609 33/// /1405 11132 21296 37958 48470 58001 333 91107 91205;
0096066090999992010010302004+46550+007017FM-12+197299999V0201701N003119999999N9999999N1-01311-02261999999ADDMA1999999079611ME1314739REMSYN060AAXX  03024 06609 33/// /1706 11131 21226 37961 48473 5////;
0096066090999992010010303004+46550+007017FM-12+197299999V0201601N004119999999N9999999N1-01291-02831999999ADDMA1999999079581ME1314709REMSYN060AAXX  03034 06609 33/// /1608 11129 21283 37958 48470 5////;
0137066090999992010010304004+46550+007017FM-12+197299999V0202001N002619999999N9999999N1-01181-02391999999ADDMA1999999079581MD1010001+9999ME1314689OA149900511REMSYN076AAXX  03044 06609 33/// /2005 11118 21239 37958 48468 50000 333 91110 91208;
0137066090999992010010305004+46550+007017FM-12+197299999V0200501N001519999999N9999999N1-01061-02511999999ADDMA1999999079541MD1719999+9999ME1314619OA149900461REMSYN076AAXX  03054 06609 33/// /0503 11106 21251 37954 48461 57/// 333 91109 91208;
0197066090999992010010306004+46550+007017FM-12+197299999V0209999C000019999999N9999999N1-01081-02911999999ADDAA124000391AL11200091GJ102709KA1999N-01491MA1999999079521MD1710061+9999ME1314609OA149900571REMSYN094AAXX  03064 06609 33/// /0000 11108 21291 37952 48460 57006 333 21149 55045 70002 91111 91210;
0137066090999992010010307004+46550+007017FM-12+197299999V0202101N001519999999N9999999N1-01011-03171999999ADDMA1999999079541MD1510041+9999ME1314609OA149900261REMSYN076AAXX  03074 06609 33/// /2103 11101 21317 37954 48460 55004 333 91105 91203;
0137066090999992010010308004+46550+007017FM-12+197299999V0202501N002119999999N9999999N1-00941-02901999999ADDMA1999999079561MD1319999+9999ME1314619OA149900261REMSYN076AAXX  03084 06609 33/// /2504 11094 21290 37956 48461 53/// 333 91105 91204;
0137066090999992010010309004+46550+007017FM-12+197299999V0202601N002619999999N9999999N1-00901-02781999999ADDMA1999999079591MD1210071+9999ME1314639OA149900461REMSYN076AAXX  03094 06609 33/// /2605 11090 21278 37959 48463 52007 333 91109 91208;
0137066090999992010010310004+46550+007017FM-12+197299999V0202701N002619999999N9999999N1-00871-03231999999ADDMA1999999079581MD1010041+9999ME1314629OA149900461REMSYN076AAXX  03104 06609 33/// /2705 11087 21323 37958 48462 50004 333 91109 91206;
0156066090999992010010311004+46550+007017FM-12+197299999V0202601N003619999999N9999999N1-00871-02811999999ADDMA1999999079561MD1410001+9999ME1314609OA149900621REMSYN076AAXX  03114 06609 33/// /2607 11087 21281 37956 48460 57000 333 91112 91207;EQDQ01+000072APCTEN
0137066090999992010010312004+46550+007017FM-12+197299999V0202501N003119999999N9999999N1-00841-03201999999ADDMA1999999079511MD1710081+9999ME1314549OA149900621REMSYN076AAXX  03124 06609 33/// /2506 11084 21320 37951 48454 57008 333 91112 91208;
0137066090999992010010313004+46550+007017FM-12+197299999V0202601N003119999999N9999999N1-00831-03071999999ADDMA1999999079491MD1710091+9999ME1314529OA149900511REMSYN076AAXX  03134 06609 33/// /2606 11083 21307 37949 48452 57009 333 91110 91207;
0137066090999992010010314004+46550+007017FM-12+197299999V0202701N003619999999N9999999N1-00861-03051999999ADDMA1999999079501MD1710061+9999ME1314539OA149900671REMSYN076AAXX  03144 06609 33/// /2707 11086 21305 37950 48453 57006 333 91113 91209;
0137066090999992010010315004+46550+007017FM-12+197299999V0202701N003619999999N9999999N1-00861-03301999999ADDMA1999999079521MD1210011+9999ME1314559OA149900671REMSYN076AAXX  03154 06609 33/// /2707 11086 21330 37952 48455 52001 333 91113 91209;
0156066090999992010010316004+46550+007017FM-12+197299999V0202501N002119999999N9999999N1-00881-02541999999ADDMA1999999079491MD1410001+9999ME1314539OA149900511REMSYN076AAXX  03164 06609 33/// /2504 11088 21254 37949 48453 58000 333 91110 91207;EQDQ01+000082APCTEN
0137066090999992010010317004+46550+007017FM-12+197299999V0202501N002119999999N9999999N1-00851-02721999999ADDMA1999999079461MD1810041+9999ME1314499OA149900461REMSYN076AAXX  03174 06609 33/// /2504 11085 21272 37946 48449 58004 333 91109 91207;
0156066090999992010010318004+46550+007017FM-12+197299999V0202401N002119999999N9999999N1-00841-02761999999ADDKA1120M-00811MA1999999079481MD1510041+9999ME1314519OA149900671REMSYN082AAXX  03184 06609 33/// /2404 11084 21276 37948 48451 55004 333 11081 91113 91209;
0137066090999992010010319004+46550+007017FM-12+197299999V0202101N002619999999N9999999N1-00841-03081999999ADDMA1999999079441MD1710051+9999ME1314479OA149900311REMSYN076AAXX  03194 06609 33/// /2105 11084 21308 37944 48447 57005 333 91106 91206;
0137066090999992010010320004+46550+007017FM-12+197299999V0202001N003619999999N9999999N1-00831-03001999999ADDMA1999999079421MD1710041+9999ME1314459OA149900411REMSYN076AAXX  03204 06609 33/// /2007 11083 21300 37942 48445 57004 333 91108 91207;
0137066090999992010010321004+46550+007017FM-12+197299999V0202801N004119999999N9999999N1-00841-02641999999ADDMA1999999079381MD1710101+9999ME1314419OA149900721REMSYN076AAXX  03214 06609 33/// /2808 11084 21264 37938 48441 57010 333 91114 91208;
0137066090999992010010322004+46550+007017FM-12+197299999V0202801N004119999999N9999999N1-00801-02671999999ADDMA1999999079371MD1710071+9999ME1314399OA149900771REMSYN076AAXX  03224 06609 33/// /2808 11080 21267 37937 48439 57007 333 91115 91209;
0137066090999992010010323004+46550+007017FM-12+197299999V0202501N004119999999N9999999N1-00831-02121999999ADDMA1999999079351MD1710071+9999ME1314389OA149900771REMSYN076AAXX  03234 06609 33/// /2508 11083 21212 37935 48438 57007 333 91115 91209;
0137066090999992010010400004+46550+007017FM-12+197299999V0202801N001519999999N9999999N1-00811-02221999999ADDMA1999999079271MD1710111+9999ME1314309OA149900771REMSYN076AAXX  04004 06609 33/// /2803 11081 21222 37927 48430 57011 333 91115 91209;
0137066090999992010010401004+46550+007017FM-12+197299999V0202201N001519999999N9999999N1-00811-02061999999ADDMA1999999079231MD1710141+9999ME1314269OA149900511REMSYN076AAXX  04014 06609 33/// /2203 11081 21206 37923 48426 57014 333 91110 91206;
0137066090999992010010402004+46550+007017FM-12+197299999V0202001N002619999999N9999999N1-00811-01721999999ADDMA1999999079201MD1610151+9999ME1314239OA149900511REMSYN076AAXX  04024 06609 33/// /2005 11081 21172 37920 48423 56015 333 91110 91207;
0137066090999992010010403004+46550+007017FM-12+197299999V0202301N001019999999N9999999N1-00921-01511999999ADDMA1999999079151MD1619999+9999ME1314209OA149900771REMSYN076AAXX  04034 06609 33/// /2302 11092 21151 37915 48420 56/// 333 91115 91209;
0154066090999992010010404004+46550+007017FM-12+197299999V0202501N003619999999N9999999N1-00741-01031999999ADDAA101000021MA1999999079081MD1810151+9999ME1314099OA149900671REMSYN082AAXX  04044 06609 23/// /2507 11074 21103 37908 48409 58015 333 69915 91113 91209;
0154066090999992010010405004+46550+007017FM-12+197299999V0202501N004119999999N9999999N1-00781-00981999999ADDAA101000021MA1999999079091MD1710111+9999ME1314119OA149900721REMSYN082AAXX  04054 06609 23/// /2508 11078 21098 37909 48411 57011 333 69925 91114 91210;
0220066090999992010010406004+46550+007017FM-12+197299999V0202601N004119999999N9999999N1-00771-00951999999ADDAA112000591AA224000591AL13000091GJ100009KA1999N-00921MA1999999079071MD1710081+9999ME1314099OA149900771REMSYN106AAXX  04064 06609 03/// /2608 11077 21095 37907 48409 57008 69962 333 21092 55000 69935 70005 91115 91210;
0154066090999992010010407004+46550+007017FM-12+197299999V0202601N006219999999N9999999N1-00721-00811999999ADDAA101000021MA1999999079051MD1710031+9999ME1314069OA149901031REMSYN082AAXX  04074 06609 23/// /2612 11072 21081 37905 48406 57003 333 69925 91120 91212;
0137066090999992010010408004+46550+007017FM-12+197299999V0202501N005119999999N9999999N1-00681-00681999999ADDMA1999999079061MD1710031+9999ME1314069OA149901031REMSYN076AAXX  04084 06609 33/// /2510 11068 21068 37906 48406 57003 333 91120 91213;
0154066090999992010010409004+46550+007017FM-12+197299999V0202401N006219999999N9999999N1-00751-01111999999ADDAA101000021MA1999999079061MD1510011+9999ME1314079OA149901081REMSYN082AAXX  04094 06609 23/// /2412 11075 21111 37906 48407 55001 333 69915 91121 91213;
0137066090999992010010410004+46550+007017FM-12+197299999V0202401N006719999999N9999999N1-00641-00641999999ADDMA1999999079061MD1010011+9999ME1314059OA149901081REMSYN076AAXX  04104 06609 33/// /2413 11064 21064 37906 48405 50001 333 91121 91213;
0137066090999992010010411004+46550+007017FM-12+197299999V0202401N008219999999N9999999N1-00691-00911999999ADDMA1999999079001MD1710061+9999ME1314009OA149901241REMSYN076AAXX  04114 06609 33/// /2416 11069 21091 37900 48400 57006 333 91124 91216;
0160066090999992010010412004+46550+007017FM-12+197299999V0202401N007219999999N9999999N1-00571-00611999999ADDAA106000391MA1999999078951MD1710111+9999ME1313929OA149901241REMSYN088AAXX  04124 06609 03/// /2414 11057 21061 37895 48392 57011 69931 333 60005 91124 91216;
0137066090999992010010413004+46550+007017FM-12+197299999V0202501N005119999999N9999999N1-00621-00681999999ADDMA1999999078901MD1810161+9999ME1313889OA149901391REMSYN076AAXX  04134 06609 33/// /2510 11062 21068 37890 48388 58016 333 91127 91216;
0137066090999992010010414004+46550+007017FM-12+197299999V0202401N007219999999N9999999N1-00681-01151999999ADDMA1999999078881MD1619999+9999ME1313889OA149901391REMSYN076AAXX  04144 06609 33/// /2414 11068 21115 37888 48388 56/// 333 91127 91214;
0137066090999992010010415004+46550+007017FM-12+197299999V0202501N006219999999N9999999N1-00611-00611999999ADDMA1999999078891MD1710061+9999ME1313879OA149901391REMSYN076AAXX  04154 06609 33/// /2512 11061 21061 37889 48387 57006 333 91127 91216;
0137066090999992010010416004+46550+007017FM-12+197299999V0202601N005119999999N9999999N1-00651-00981999999ADDMA1999999078891MD1510011+9999ME1313889OA149901391REMSYN076AAXX  04164 06609 33/// /2610 11065 21098 37889 48388 55001 333 91127 91215;
0137066090999992010010417004+46550+007017FM-12+197299999V0202701N004619999999N9999999N1-00601-00661999999ADDMA1999999078861MD1810021+9999ME1313849OA149901181REMSYN076AAXX  04174 06609 33/// /2709 11060 21066 37886 48384 58002 333 91123 91213;
0179066090999992010010418004+46550+007017FM-12+197299999V0202601N006219999999N9999999N1-00591-00721999999ADDAA112000591KA1120M-00561MA1999999078861MD1710031+9999ME1313849OA149901391REMSYN094AAXX  04184 06609 03/// /2612 11059 21072 37886 48384 57003 69942 333 11056 69915 91127 91216;
0137066090999992010010419004+46550+007017FM-12+197299999V0202501N006219999999N9999999N1-00621-00731999999ADDMA1999999078851MD1710041+9999ME1313839OA149901181REMSYN076AAXX  04194 06609 33/// /2512 11062 21073 37885 48383 57004 333 91123 91213;
0137066090999992010010420004+46550+007017FM-12+197299999V0202601N007219999999N9999999N1-00611-00651999999ADDMA1999999078821MD1710041+9999ME1313809OA149901241REMSYN076AAXX  04204 06609 33/// /2614 11061 21065 37882 48380 57004 333 91124 91214;
0137066090999992010010421004+46550+007017FM-12+197299999V0202601N007219999999N9999999N1-00541-00641999999ADDMA1999999078811MD1710051+9999ME1313789OA149901341REMSYN076AAXX  04214 06609 33/// /2614 11054 21064 37881 48378 57005 333 91126 91216;
0137066090999992010010422004+46550+007017FM-12+197299999V0202501N006719999999N9999999N1-00561-00761999999ADDMA1999999078791MD1710061+9999ME1313769OA149901341REMSYN076AAXX  04224 06609 33/// /2513 11056 21076 37879 48376 57006 333 91126 91216;
0137066090999992010010423004+46550+007017FM-12+197299999V0202501N007219999999N9999999N1-00531-00591999999ADDMA1999999078771MD1710051+9999ME1313739OA149901341REMSYN076AAXX  04234 06609 33/// /2514 11053 21059 37877 48373 57005 333 91126 91215;
0137066090999992010010500004+46550+007017FM-12+197299999V0202601N005119999999N9999999N1-00531-00531999999ADDMA1999999078741MD1810071+9999ME1313709OA149901391REMSYN076AAXX  05004 06609 33/// /2610 11053 21053 37874 48370 58007 333 91127 91216;
0154066090999992010010501004+46550+007017FM-12+197299999V0202401N006719999999N9999999N1-00601-00681999999ADDAA101000021MA1999999078691MD1810101+9999ME1313679OA149901291REMSYN082AAXX  05014 06609 23/// /2413 11060 21068 37869 48367 58010 333 69915 91125 91214;
0137066090999992010010502004+46550+007017FM-12+197299999V0202601N004119999999N9999999N1-00511-00511999999ADDMA1999999078661MD1710111+9999ME1313629OA149901181REMSYN076AAXX  05024 06609 33/// /2608 11051 21051 37866 48362 57011 333 91123 91213;
0137066090999992010010503004+46550+007017FM-12+197299999V0202501N005719999999N9999999N1-00531-00791999999ADDMA1999999078621MD1710121+9999ME1313589OA149901341REMSYN076AAXX  05034 06609 33/// /2511 11053 21079 37862 48358 57012 333 91126 91215;
0154066090999992010010504004+46550+007017FM-12+197299999V0202501N006219999999N9999999N1-00491-00491999999ADDAA101000021MA1999999078561MD1710131+9999ME1313519OA149901031REMSYN082AAXX  05044 06609 23/// /2512 11049 21049 37856 48351 57013 333 69915 91120 91212;
0137066090999992010010505004+46550+007017FM-12+197299999V0202801N003119999999N9999999N1-00541-00801999999ADDMA1999999078511MD1810151+9999ME1313479OA149900981REMSYN076AAXX  05054 06609 33/// /2806 11054 21080 37851 48347 58015 333 91119 91212;
0239066090999992010010506004+46550+007017FM-12+197299999V0202401N004119999999N9999999N1-00561-00611999999ADDAA112000091AA224000891AL14200091GJ100009KA1999N-00631MA1999999078481MD1710141+9999ME1313459OA149901341REMSYN106AAXX  05064 06609 03/// /2408 11056 21061 37848 48345 57014 69922 333 21063 55000 60005 70007 91126 91216;EQDQ01  00002PRCP12
0154066090999992010010507004+46550+007017FM-12+197299999V0202401N005119999999N9999999N1-00581-00581999999ADDAA101000021MA1999999078451MD1610111+9999ME1313429OA149900981REMSYN082AAXX  05074 06609 23/// /2410 11058 21058 37845 48342 56011 333 69915 91119 91210;
0137066090999992010010508004+46550+007017FM-12+197299999V0202501N005119999999N9999999N1-00581-00911999999ADDMA1999999078431MD1710081+9999ME1313409OA149900981REMSYN076AAXX  05084 06609 33/// /2510 11058 21091 37843 48340 57008 333 91119 91210;
0137066090999992010010509004+46550+007017FM-12+197299999V0202301N006219999999N9999999N1-00571-00651999999ADDMA1999999078421MD1710061+9999ME1313399OA149900981REMSYN076AAXX  05094 06609 33/// /2312 11057 21065 37842 48339 57006 333 91119 91212;
0137066090999992010010510004+46550+007017FM-12+197299999V0202401N005719999999N9999999N1-00581-00601999999ADDMA1999999078401MD1710051+9999ME1313379OA149900981REMSYN076AAXX  05104 06609 33/// /2411 11058 21060 37840 48337 57005 333 91119 91212;
0137066090999992010010511004+46550+007017FM-12+197299999V0202501N004619999999N9999999N1-00521-00681999999ADDMA1999999078341MD1710091+9999ME1313299OA149901131REMSYN076AAXX  05114 06609 33/// /2509 11052 21068 37834 48329 57009 333 91122 91213;
0179066090999992010010512004+46550+007017FM-12+197299999V0202601N004119999999N9999999N1-00511-00681999999ADDAA106000091MA1999999078291MD1710131+9999ME1313249OA149901181REMSYN088AAXX  05124 06609 03/// /2608 11051 21068 37829 48324 57013 69911 333 60005 91123 91213;EQDQ01  00002PRCP06
0137066090999992010010513004+46550+007017FM-12+197299999V0202901N003619999999N9999999N1-00471-00731999999ADDMA1999999078221MD1810181+9999ME1313169OA149900981REMSYN076AAXX  05134 06609 33/// /2907 11047 21073 37822 48316 58018 333 91119 91210;
0096066090999992010010514004+46550+007017FM-12+197299999V0202901N003619999999N9999999N1-00511-00721999999ADDMA1999999078201ME1313159REMSYN060AAXX  05144 06609 33/// /2907 11051 21072 37820 48315 5////;
0137066090999992010010515004+46550+007017FM-12+197299999V0203101N002119999999N9999999N1-00521-00801999999ADDMA1999999078201MD1710091+9999ME1313159OA149901131REMSYN076AAXX  05154 06609 33/// /3104 11052 21080 37820 48315 57009 333 91122 91213;
0137066090999992010010516004+46550+007017FM-12+197299999V0202801N005119999999N9999999N1-00501-00781999999ADDMA1999999078171MD1710051+9999ME1313119OA149900821REMSYN076AAXX  05164 06609 33/// /2810 11050 21078 37817 48311 57005 333 91116 91210;
0137066090999992010010517004+46550+007017FM-12+197299999V0202301N004119999999N9999999N1-00541-00841999999ADDMA1999999078171MD1710031+9999ME1313129OA149900821REMSYN076AAXX  05174 06609 33/// /2308 11054 21084 37817 48312 57003 333 91116 91210;
0198066090999992010010518004+46550+007017FM-12+197299999V0202901N002619999999N9999999N1-00531-00731999999ADDAA112000091KA1120M-00461MA1999999078151MD1710051+9999ME1313109OA149901131REMSYN094AAXX  05184 06609 03/// /2905 11053 21073 37815 48310 57005 69912 333 11046 60005 91122 91213;EQDQ01  00002PRCP12
0137066090999992010010519004+46550+007017FM-12+197299999V0202401N004619999999N9999999N1-00561-00821999999ADDMA1999999078151MD1710021+9999ME1313119OA149900821REMSYN076AAXX  05194 06609 33/// /2409 11056 21082 37815 48311 57002 333 91116 91209;
0137066090999992010010520004+46550+007017FM-12+197299999V0202901N003619999999N9999999N1-00571-00971999999ADDMA1999999078101MD1710071+9999ME1313069OA149901031REMSYN076AAXX  05204 06609 33/// /2907 11057 21097 37810 48306 57007 333 91120 91210;
0137066090999992010010521004+46550+007017FM-12+197299999V0202701N003619999999N9999999N1-00601-01021999999ADDMA1999999078081MD1710071+9999ME1313059OA149901031REMSYN076AAXX  05214 06609 33/// /2707 11060 21102 37808 48305 57007 333 91120 91210;
0137066090999992010010522004+46550+007017FM-12+197299999V0202401N005119999999N9999999N1-00561-00561999999ADDMA1999999078051MD1610101+9999ME1313019OA149900931REMSYN076AAXX  05224 06609 33/// /2410 11056 21056 37805 48301 56010 333 91118 91210;
0154066090999992010010523004+46550+007017FM-12+197299999V0202601N004619999999N9999999N1-00581-00861999999ADDAA101000021MA1999999078041MD1810061+9999ME1313009OA149900981REMSYN082AAXX  05234 06609 23/// /2609 11058 21086 37804 48300 58006 333 69925 91119 91210;
0160066090999992010010600004+46550+007017FM-12+197299999V0202801N005119999999N9999999N1-00591-00611999999ADDAA106000591MA1999999078021MD1610061+9999ME1312989OA149901031REMSYN088AAXX  06004 06609 03/// /2810 11059 21061 37802 48298 56006 69941 333 69925 91120 91210;
0137066090999992010010601004+46550+007017FM-12+197299999V0202601N005719999999N9999999N1-00631-00801999999ADDMA1999999078011MD1710041+9999ME1312989OA149901181REMSYN076AAXX  06014 06609 33/// /2611 11063 21080 37801 48298 57004 333 91123 91212;
0137066090999992010010602004+46550+007017FM-12+197299999V0202601N007719999999N9999999N1-00641-00711999999ADDMA1999999078011MD1710031+9999ME1312999OA149901541REMSYN076AAXX  06024 06609 33/// /2615 11064 21071 37801 48299 57003 333 91130 91215;
0137066090999992010010603004+46550+007017FM-12+197299999V0202901N003619999999N9999999N1-00721-01041999999ADDMA1999999078011MD1710011+9999ME1313019OA149901541REMSYN076AAXX  06034 06609 33/// /2907 11072 21104 37801 48301 57001 333 91130 91215;
0137066090999992010010604004+46550+007017FM-12+197299999V0202701N004119999999N9999999N1-00761-00761999999ADDMA1999999077971MD1710041+9999ME1312989OA149901391REMSYN076AAXX  06044 06609 33/// /2708 11076 21076 37797 48298 57004 333 91127 91215;
0137066090999992010010605004+46550+007017FM-12+197299999V0202601N003119999999N9999999N1-00791-01031999999ADDMA1999999077981MD1710031+9999ME1312999OA149901131REMSYN076AAXX  06054 06609 33/// /2606 11079 21103 37798 48299 57003 333 91122 91210;
0220066090999992010010606004+46550+007017FM-12+197299999V0202301N003619999999N9999999N1-00841-00841999999ADDAA112000591AA224000591AL13000091GJ100009KA1999N-00791MA1999999077971MD1710041+9999ME1313009OA149901541REMSYN106AAXX  06064 06609 03/// /2307 11084 21084 37797 48300 57004 69942 333 21079 55000 60005 70005 91130 91215;
0137066090999992010010607004+46550+007017FM-12+197299999V0202401N003619999999N9999999N1-00861-01101999999ADDMA1999999077991MD1210021+9999ME1313029OA149900721REMSYN076AAXX  06074 06609 33/// /2407 11086 21110 37799 48302 52002 333 91114 91211;
0137066090999992010010608004+46550+007017FM-12+197299999V0202901N004119999999N9999999N1-00901-00901999999ADDMA1999999078011MD1310031+9999ME1313059OA149900771REMSYN076AAXX  06084 06609 33/// /2908 11090 21090 37801 48305 53003 333 91115 91208;
0137066090999992010010609004+46550+007017FM-12+197299999V0202201N003119999999N9999999N1-00881-00881999999ADDMA1999999078051MD1210081+9999ME1313099OA149901131REMSYN076AAXX  06094 06609 33/// /2206 11088 21088 37805 48309 52008 333 91122 91211;
0137066090999992010010610004+46550+007017FM-12+197299999V0202301N004619999999N9999999N1-00891-01161999999ADDMA1999999078071MD1210081+9999ME1313119OA149900821REMSYN076AAXX  06104 06609 33/// /2309 11089 21116 37807 48311 52008 333 91116 91209;
0137066090999992010010611004+46550+007017FM-12+197299999V0202001N004619999999N9999999N1-00891-00891999999ADDMA1999999078071MD1219999+9999ME1313119OA149900881REMSYN076AAXX  06114 06609 33/// /2009 11089 21089 37807 48311 52/// 333 91117 91212;
0137066090999992010010612004+46550+007017FM-12+197299999V0202101N006719999999N9999999N1-00921-01131999999ADDMA1999999078051MD1010001+9999ME1313109OA149901541REMSYN076AAXX  06124 06609 33/// /2113 11092 21113 37805 48310 50000 333 91130 91215;
0137066090999992010010613004+46550+007017FM-12+197299999V0202501N005719999999N9999999N1-00931-01091999999ADDMA1999999078031MD1710041+9999ME1313089OA149901131REMSYN076AAXX  06134 06609 33/// /2511 11093 21109 37803 48308 57004 333 91122 91213;
0137066090999992010010614004+46550+007017FM-12+197299999V0202501N007219999999N9999999N1-00941-01271999999ADDMA1999999078041MD1719999+9999ME1313099OA149901241REMSYN076AAXX  06144 06609 33/// /2514 11094 21127 37804 48309 57/// 333 91124 91214;
0137066090999992010010615004+46550+007017FM-12+197299999V0202901N006719999999N9999999N1-01001-01581999999ADDMA1999999078081MD1219999+9999ME1313159OA149901241REMSYN076AAXX  06154 06609 33/// /2913 11100 21158 37808 48315 52/// 333 91124 91214;
0137066090999992010010616004+46550+007017FM-12+197299999V0202701N007719999999N9999999N1-01081-01441999999ADDMA1999999078131MD1210101+9999ME1313229OA149901131REMSYN076AAXX  06164 06609 33/// /2715 11108 21144 37813 48322 52010 333 91122 91215;
0137066090999992010010617004+46550+007017FM-12+197299999V0202701N008219999999N9999999N1-01091-02001999999ADDMA1999999078161MD1210121+9999ME1313259OA149901181REMSYN076AAXX  06174 06609 33/// /2716 11109 21200 37816 48325 52012 333 91123 91217;
0156066090999992010010618004+46550+007017FM-12+197299999V0202501N009319999999N9999999N1-01161-01681999999ADDKA1120M-00791MA1999999078191MD1319999+9999ME1313309OA149901241REMSYN082AAXX  06184 06609 33/// /2518 11116 21168 37819 48330 53/// 333 11079 91124 91219;
0137066090999992010010619004+46550+007017FM-12+197299999V0202601N008219999999N9999999N1-01151-01861999999ADDMA1999999078231MD1310101+9999ME1313349OA149901241REMSYN076AAXX  06194 06609 33/// /2616 11115 21186 37823 48334 53010 333 91124 91219;
0137066090999992010010620004+46550+007017FM-12+197299999V0203001N004619999999N9999999N1-01041-01081999999ADDMA1999999078241MD1110081+9999ME1313329OA149901241REMSYN076AAXX  06204 06609 33/// /3009 11104 21108 37824 48332 51008 333 91124 91218;
0137066090999992010010621004+46550+007017FM-12+197299999V0202601N004619999999N9999999N1-01051-01621999999ADDMA1999999078261MD1210071+9999ME1313349OA149901241REMSYN076AAXX  06214 06609 33/// /2609 11105 21162 37826 48334 52007 333 91124 91219;
0137066090999992010010622004+46550+007017FM-12+197299999V0202701N006719999999N9999999N1-01031-01031999999ADDMA1999999078291MD1210061+9999ME1313379OA149901241REMSYN076AAXX  06224 06609 33/// /2713 11103 21103 37829 48337 52006 333 91124 91213;
0137066090999992010010623004+46550+007017FM-12+197299999V0202601N007219999999N9999999N1-01061-01241999999ADDMA1999999078311MD1210071+9999ME1313409OA149901341REMSYN076AAXX  06234 06609 33/// /2614 11106 21124 37831 48340 52007 333 91126 91214;
0137066090999992010010700004+46550+007017FM-12+197299999V0202601N005719999999N9999999N1-01031-01111999999ADDMA1999999078311MD1010051+9999ME1313399OA149901341REMSYN076AAXX  07004 06609 33/// /2611 11103 21111 37831 48339 50005 333 91126 91219;
0137066090999992010010701004+46550+007017FM-12+197299999V0202401N005119999999N9999999N1-01081-01511999999ADDMA1999999078321MD1210031+9999ME1313419OA149901341REMSYN076AAXX  07014 06609 33/// /2410 11108 21151 37832 48341 52003 333 91126 91212;
0137066090999992010010702004+46550+007017FM-12+197299999V0202401N005719999999N9999999N1-01091-01451999999ADDMA1999999078341MD1219999+9999ME1313439OA149901181REMSYN076AAXX  07024 06609 33/// /2411 11109 21145 37834 48343 52/// 333 91123 91211;
0137066090999992010010703004+46550+007017FM-12+197299999V0202401N007219999999N9999999N1-01091-01511999999ADDMA1999999078311MD1010001+9999ME1313409OA149901341REMSYN076AAXX  07034 06609 33/// /2414 11109 21151 37831 48340 50000 333 91126 91215;
0137066090999992010010704004+46550+007017FM-12+197299999V0202501N007719999999N9999999N1-01101-01791999999ADDMA1999999078301MD1810021+9999ME1313399OA149901291REMSYN076AAXX  07044 06609 33/// /2515 11110 21179 37830 48339 58002 333 91125 91216;
0137066090999992010010705004+46550+007017FM-12+197299999V0202501N004119999999N9999999N1-01061-01851999999ADDMA1999999078351MD1310011+9999ME1313449OA149901291REMSYN076AAXX  07054 06609 33/// /2508 11106 21185 37835 48344 53001 333 91125 91216;
0216066090999992010010706004+46550+007017FM-12+197299999V0202401N006719999999N9999999N1-01021-01941999999ADDAA124000091AL19900091GJ101329KA1999N-01161MA1999999078361MD1210051+9999ME1313449OA149901341REMSYN094AAXX  07064 06609 33/// /2413 11102 21194 37836 48344 52005 333 21116 55022 70000 91126 91218;EQDQ01  00002PRCP24
0137066090999992010010707004+46550+007017FM-12+197299999V0202401N007219999999N9999999N1-01011-02131999999ADDMA1999999078401MD1110101+9999ME1313479OA149901241REMSYN076AAXX  07074 06609 33/// /2414 11101 21213 37840 48347 51010 333 91124 91215;
0137066090999992010010708004+46550+007017FM-12+197299999V0202501N006219999999N9999999N1-00961-02101999999ADDMA1999999078451MD1319999+9999ME1313519OA149901291REMSYN076AAXX  07084 06609 33/// /2512 11096 21210 37845 48351 53/// 333 91125 91215;
0137066090999992010010709004+46550+007017FM-12+197299999V0202401N005119999999N9999999N1-00891-02081999999ADDMA1999999078511MD1310151+9999ME1313559OA149901291REMSYN076AAXX  07094 06609 33/// /2410 11089 21208 37851 48355 53015 333 91125 91216;
0137066090999992010010710004+46550+007017FM-12+197299999V0202501N005119999999N9999999N1-00911-01891999999ADDMA1999999078561MD1210161+9999ME1313619OA149901181REMSYN076AAXX  07104 06609 33/// /2510 11091 21189 37856 48361 52016 333 91123 91213;
0137066090999992010010711004+46550+007017FM-12+197299999V0202401N005719999999N9999999N1-00891-02011999999ADDMA1999999078561MD1210111+9999ME1313609OA149901081REMSYN076AAXX  07114 06609 33/// /2411 11089 21201 37856 48360 52011 333 91121 91212;
0137066090999992010010712004+46550+007017FM-12+197299999V0203001N005119999999N9999999N1-00911-02051999999ADDMA1999999078541MD1010031+9999ME1313599OA149901291REMSYN076AAXX  07124 06609 33/// /3010 11091 21205 37854 48359 50003 333 91125 91216;
0137066090999992010010713004+46550+007017FM-12+197299999V0202801N008219999999N9999999N1-00971-02021999999ADDMA1999999078531MD1710031+9999ME1313599OA149901241REMSYN076AAXX  07134 06609 33/// /2816 11097 21202 37853 48359 57003 333 91124 91216;
0096066090999992010010715004+46550+007017FM-12+197299999V0202701N007219999999N9999999N1-01051-02041999999ADDMA1999999078591ME1313679REMSYN060AAXX  07154 06609 43/// /2714 11105 21204 37859 48367 5////;
0137066090999992010010716004+46550+007017FM-12+197299999V0202701N005719999999N9999999N1-01011-01931999999ADDMA1999999078631MD1319999+9999ME1313709OA149901081REMSYN076AAXX  07164 06609 43/// /2711 11101 21193 37863 48370 53/// 333 91121 91215;
0137066090999992010010717004+46550+007017FM-12+197299999V0202301N002119999999N9999999N1-01001-01781999999ADDMA1999999078671MD1119999+9999ME1313749OA149900981REMSYN076AAXX  07174 06609 33/// /2304 11100 21178 37867 48374 51/// 333 91119 91214;
0156066090999992010010718004+46550+007017FM-12+197299999V0202501N003119999999N9999999N1-00991-01811999999ADDKA1120M-00881MA1999999078691MD1119999+9999ME1313769OA149901291REMSYN082AAXX  07184 06609 33/// /2506 11099 21181 37869 48376 51/// 333 11088 91125 91217;
0137066090999992010010719004+46550+007017FM-12+197299999V0202201N003619999999N9999999N1-00941-01151999999ADDMA1999999078691MD1219999+9999ME1313759OA149900511REMSYN076AAXX  07194 06609 33/// /2207 11094 21115 37869 48375 52/// 333 91110 91207;
0137066090999992010010720004+46550+007017FM-12+197299999V0201601N002619999999N9999999N1-00971-01631999999ADDMA1999999078691MD1010021+9999ME1313759OA149900511REMSYN076AAXX  07204 06609 33/// /1605 11097 21163 37869 48375 50002 333 91110 91207;
0137066090999992010010721004+46550+007017FM-12+197299999V0201301N003119999999N9999999N1-00921-01661999999ADDMA1999999078661MD1710031+9999ME1313719OA149900981REMSYN076AAXX  07214 06609 33/// /1306 11092 21166 37866 48371 57003 333 91119 91214;
0137066090999992010010722004+46550+007017FM-12+197299999V0201101N002619999999N9999999N1-00961-01371999999ADDMA1999999078651MD1810041+9999ME1313719OA149900511REMSYN076AAXX  07224 06609 33/// /1105 11096 21137 37865 48371 58004 333 91110 91206;
0137066090999992010010723004+46550+007017FM-12+197299999V0200501N003119999999N9999999N1-00941-01171999999ADDMA1999999078651MD1610041+9999ME1313719OA149900511REMSYN076AAXX  07234 06609 33/// /0506 11094 21117 37865 48371 56004 333 91110 91207;
0160066090999992010010800004+46550+007017FM-12+197299999V0200401N003619999999N9999999N1-00941-01211999999ADDAA106000391MA1999999078591MD1810071+9999ME1313659OA149901241REMSYN088AAXX  08004 06609 03/// /0407 11094 21121 37859 48365 58007 69931 333 69935 91124 91217;
0154066090999992010010801004+46550+007017FM-12+197299999V0200301N004119999999N9999999N1-00961-01041999999ADDAA101000391MA1999999078531MD1810121+9999ME1313599OA149900721REMSYN082AAXX  08014 06609 23/// /0308 11096 21104 37853 48359 58012 333 69935 91114 91209;
0154066090999992010010802004+46550+007017FM-12+197299999V0200401N006219999999N9999999N1-00911-01101999999ADDAA101000391MA1999999078511MD1719999+9999ME1313569OA149900881REMSYN082AAXX  08024 06609 23/// /0412 11091 21110 37851 48356 57/// 333 69935 91117 91212;
0154066090999992010010803004+46550+007017FM-12+197299999V0200401N006719999999N9999999N1-00911-01031999999ADDAA101000591MA1999999078461MD1719999+9999ME1313519OA149900981REMSYN082AAXX  08034 06609 23/// /0413 11091 21103 37846 48351 57/// 333 69965 91119 91213;
0154066090999992010010804004+46550+007017FM-12+197299999V0200501N008219999999N9999999N1-00931-01111999999ADDAA101000391MA1999999078391MD1710141+9999ME1313449OA149901131REMSYN082AAXX  08044 06609 23/// /0516 11093 21111 37839 48344 57014 333 69935 91122 91216;
0137066090999992010010805004+46550+007017FM-12+197299999V0200601N005719999999N9999999N1-00961-01241999999ADDMA1999999078351MD1610161+9999ME1313419OA149901181REMSYN076AAXX  08054 06609 33/// /0611 11096 21124 37835 48341 56016 333 91123 91216;
0220066090999992010010806004+46550+007017FM-12+197299999V0200401N009319999999N9999999N1-00971-00971999999ADDAA112002092AA224001892AL14800191GJ101689KA1999N-01021MA1999999078291MD1610171+9999ME1313359OA149901181REMSYN106AAXX  08064 06609 03/// /0418 11097 21097 37829 48335 56017 60022 333 21102 55028 60005 70018 91123 91218;
0154066090999992010010807004+46550+007017FM-12+197299999V0200401N008719999999N9999999N1-01001-01001999999ADDAA101000021MA1999999078251MD1810141+9999ME1313329OA149901241REMSYN082AAXX  08074 06609 23/// /0417 11100 21100 37825 48332 58014 333 69915 91124 91220;
0137066090999992010010808004+46550+007017FM-12+197299999V0200601N009319999999N9999999N1-00871-00971999999ADDMA1999999078221MD1610131+9999ME1313269OA149901241REMSYN076AAXX  08084 06609 33/// /0618 11087 21097 37822 48326 56013 333 91124 91220;
0137066090999992010010809004+46550+007017FM-12+197299999V0200501N008719999999N9999999N1-00861-01031999999ADDMA1999999078161MD1810131+9999ME1313199OA149901241REMSYN076AAXX  08094 06609 33/// /0517 11086 21103 37816 48319 58013 333 91124 91220;
0137066090999992010010810004+46550+007017FM-12+197299999V0200501N005719999999N9999999N1-00771-00971999999ADDMA1999999078141MD1610111+9999ME1313159OA149901181REMSYN076AAXX  08104 06609 33/// /0511 11077 21097 37814 48315 56011 333 91123 91219;
0137066090999992010010811004+46550+007017FM-12+197299999V0200501N004619999999N9999999N1-00581-00961999999ADDMA1999999078101MD1810121+9999ME1313069OA149901081REMSYN076AAXX  08114 06609 33/// /0509 11058 21096 37810 48306 58012 333 91121 91214;
0179066090999992010010812004+46550+007017FM-12+197299999V0200601N004119999999N9999999N1-00461-00941999999ADDAA106000091MA1999999078051MD1810111+9999ME1312989OA149901241REMSYN088AAXX  08124 06609 03/// /0608 11046 21094 37805 48298 58011 69911 333 60005 91124 91220;EQDQ01  00002PRCP06
0137066090999992010010813004+46550+007017FM-12+197299999V0200501N002119999999N9999999N1-00401-00931999999ADDMA1999999078011MD1810131+9999ME1312929OA149900671REMSYN076AAXX  08134 06609 33/// /0504 11040 21093 37801 48292 58013 333 91113 91208;
0143066090999992010010814004+46550+007017FM-12+197299999V0202801N001519999999N9999999N1-00571-01201999999ADDMA1999999078011MD1619999+9999ME1312979OA149900511REMSYN082AAXX  08144 06609 33/// /2803 11057 21120 37801 48297 56/// 91340 333 91110 91207;
0137066090999992010010815004+46550+007017FM-12+197299999V0202501N003119999999N9999999N1-00671-01011999999ADDMA1999999078041MD1510011+9999ME1313029OA149901081REMSYN076AAXX  08154 06609 33/// /2506 11067 21101 37804 48302 55001 333 91121 91214;
0137066090999992010010816004+46550+007017FM-12+197299999V0202401N003619999999N9999999N1-00781-00901999999ADDMA1999999078061MD1210051+9999ME1313079OA149900571REMSYN076AAXX  08164 06609 33/// /2407 11078 21090 37806 48307 52005 333 91111 91208;
0137066090999992010010817004+46550+007017FM-12+197299999V0202801N002619999999N9999999N1-00521-00521999999ADDMA1999999078071MD1210061+9999ME1313029OA149900571REMSYN076AAXX  08174 06609 33/// /2805 11052 21052 37807 48302 52006 333 91111 91208;
0198066090999992010010818004+46550+007017FM-12+197299999V0209999C002119999999N9999999N1-00471-00781999999ADDAA112000091KA1120M-00391MA1999999078071MD1010031+9999ME1313009OA149901241REMSYN094AAXX  08184 06609 03/// /0004 11047 21078 37807 48300 50003 69912 333 11039 60005 91124 91220;EQDQ01  00002PRCP12
0154066090999992010010819004+46550+007017FM-12+197299999V0200401N001519999999N9999999N1-00491-00701999999ADDAA101000021MA1999999078101MD1310041+9999ME1313049OA149900311REMSYN082AAXX  08194 06609 23/// /0403 11049 21070 37810 48304 53004 333 69915 91106 91205;
0137066090999992010010820004+46550+007017FM-12+197299999V0203401N000519999999N9999999N1-00461-00461999999ADDMA1999999078121MD1110051+9999ME1313059OA149900261REMSYN076AAXX  08204 06609 33/// /3401 11046 21046 37812 48305 51005 333 91105 91204;
0154066090999992010010821004+46550+007017FM-12+197299999V0202501N000519999999N9999999N1-00471-00711999999ADDAA101000391MA1999999078141MD1110071+9999ME1313089OA149900571REMSYN082AAXX  08214 06609 23/// /2501 11047 21071 37814 48308 51007 333 69935 91111 91208;
0154066090999992010010822004+46550+007017FM-12+197299999V0209999C000019999999N9999999N1-00501-00541999999ADDAA101000021MA1999999078161MD1210061+9999ME1313109OA149900151REMSYN082AAXX  08224 06609 23/// /0000 11050 21054 37816 48310 52006 333 69915 91103 91202;
0137066090999992010010823004+46550+007017FM-12+197299999V0201301N001019999999N9999999N1-00371-00621999999ADDMA1999999078141MD1210021+9999ME1313059OA149900211REMSYN076AAXX  08234 06609 33/// /1302 11037 21062 37814 48305 52002 333 91104 91203;
0160066090999992010010900004+46550+007017FM-12+197299999V0200301N002619999999N9999999N1-00431-00431999999ADDAA106000591MA1999999078131MD1010011+9999ME1313069OA149900571REMSYN088AAXX  09004 06609 03/// /0305 11043 21043 37813 48306 50001 69951 333 60005 91111 91208;
0137066090999992010010901004+46550+007017FM-12+197299999V0203401N001519999999N9999999N1-00561-00701999999ADDMA1999999078131MD1510031+9999ME1313099OA149900361REMSYN076AAXX  09014 06609 33/// /3403 11056 21070 37813 48309 55003 333 91107 91205;
0137066090999992010010902004+46550+007017FM-12+197299999V0200701N002119999999N9999999N1-00621-00631999999ADDMA1999999078131MD1719999+9999ME1313109OA149900361REMSYN076AAXX  09024 06609 33/// /0704 11062 21063 37813 48310 57/// 333 91107 91205;
0137066090999992010010903004+46550+007017FM-12+197299999V0200601N003119999999N9999999N1-00411-00781999999ADDMA1999999078121MD1719999+9999ME1313049OA149900461REMSYN076AAXX  09034 06609 33/// /0606 11041 21078 37812 48304 57/// 333 91109 91207;
0137066090999992010010904004+46550+007017FM-12+197299999V0200501N004119999999N9999999N1-00491-00651999999ADDMA1999999078091MD1810041+9999ME1313039OA149900511REMSYN076AAXX  09044 06609 33/// /0508 11049 21065 37809 48303 58004 333 91110 91208;
0137066090999992010010905004+46550+007017FM-12+197299999V0200301N004119999999N9999999N1-00611-00971999999ADDMA1999999078061MD1710071+9999ME1313039OA149900671REMSYN076AAXX  09054 06609 33/// /0308 11061 21097 37806 48303 57007 333 91113 91209;
0220066090999992010010906004+46550+007017FM-12+197299999V0200301N005119999999N9999999N1-00671-00881999999ADDAA112000591AA224000591AL13600091GJ100069KA1999N-00671MA1999999078001MD1710121+9999ME1312989OA149900881REMSYN106AAXX  09064 06609 03/// /0310 11067 21088 37800 48298 57012 69952 333 21067 55001 60005 70006 91117 91210;
0137066090999992010010907004+46550+007017FM-12+197299999V0200401N005119999999N9999999N1-00511-00731999999ADDMA1999999077991MD1710101+9999ME1312939OA149900881REMSYN076AAXX  09074 06609 33/// /0410 11051 21073 37799 48293 57010 333 91117 91212;
0137066090999992010010908004+46550+007017FM-12+197299999V0200501N005719999999N9999999N1-00591-00701999999ADDMA1999999078011MD1510051+9999ME1312979OA149900821REMSYN076AAXX  09084 06609 33/// /0511 11059 21070 37801 48297 55005 333 91116 91212;
0137066090999992010010909004+46550+007017FM-12+197299999V0200401N004619999999N9999999N1-00531-00841999999ADDMA1999999078011MD1310011+9999ME1312969OA149900881REMSYN076AAXX  09094 06609 33/// /0409 11053 21084 37801 48296 53001 333 91117 91212;
0137066090999992010010910004+46550+007017FM-12+197299999V0200301N005119999999N9999999N1-00611-00851999999ADDMA1999999077971MD1810021+9999ME1312949OA149900771REMSYN076AAXX  09104 06609 33/// /0310 11061 21085 37797 48294 58002 333 91115 91211;
0137066090999992010010911004+46550+007017FM-12+197299999V0200301N004619999999N9999999N1-00841-01081999999ADDMA1999999077951MD1810061+9999ME1312989OA149900721REMSYN076AAXX  09114 06609 33/// /0309 11084 21108 37795 48298 58006 333 91114 91211;
0137066090999992010010912004+46550+007017FM-12+197299999V0202601N001519999999N9999999N1-01131-01211999999ADDMA1999999077931MD1610081+9999ME1313039OA149900881REMSYN076AAXX  09124 06609 33/// /2603 11113 21121 37793 48303 56008 333 91117 91212;
0137066090999992010010913004+46550+007017FM-12+197299999V0202701N001519999999N9999999N1-01101-01361999999ADDMA1999999077921MD1710051+9999ME1313019OA149900571REMSYN076AAXX  09134 06609 33/// /2703 11110 21136 37792 48301 57005 333 91111 91209;
0137066090999992010010914004+46550+007017FM-12+197299999V0202101N001519999999N9999999N1-01201-01201999999ADDMA1999999077931MD1710021+9999ME1313059OA149900311REMSYN076AAXX  09144 06609 33/// /2103 11120 21120 37793 48305 57002 333 91106 91204;
0137066090999992010010915004+46550+007017FM-12+197299999V0202101N001519999999N9999999N1-01201-01401999999ADDMA1999999077941MD1510011+9999ME1313069OA149900721REMSYN076AAXX  09154 06609 33/// /2103 11120 21140 37794 48306 55001 333 91114 91211;
0137066090999992010010916004+46550+007017FM-12+197299999V0202401N001519999999N9999999N1-01191-01191999999ADDMA1999999077961MD1210041+9999ME1313089OA149900211REMSYN076AAXX  09164 06609 33/// /2403 11119 21119 37796 48308 52004 333 91104 91203;
0137066090999992010010917004+46550+007017FM-12+197299999V0202801N001519999999N9999999N1-01241-01841999999ADDMA1999999077961MD1210031+9999ME1313099OA149900261REMSYN076AAXX  09174 06609 33/// /2803 11124 21184 37796 48309 52003 333 91105 91203;
0156066090999992010010918004+46550+007017FM-12+197299999V0202601N001519999999N9999999N1-01241-01241999999ADDKA1120M-00451MA1999999077981MD1210041+9999ME1313119OA149900821REMSYN082AAXX  09184 06609 33/// /2603 11124 21124 37798 48311 52004 333 11045 91116 91212;
0137066090999992010010919004+46550+007017FM-12+197299999V0202401N001519999999N9999999N1-01251-01821999999ADDMA1999999078041MD1210081+9999ME1313179OA149900261REMSYN076AAXX  09194 06609 33/// /2403 11125 21182 37804 48317 52008 333 91105 91204;
0137066090999992010010920004+46550+007017FM-12+197299999V0202301N002119999999N9999999N1-01231-01231999999ADDMA1999999078071MD1210111+9999ME1313209OA149900311REMSYN076AAXX  09204 06609 33/// /2304 11123 21123 37807 48320 52011 333 91106 91204;
0137066090999992010010921004+46550+007017FM-12+197299999V0202201N002119999999N9999999N1-01281-01781999999ADDMA1999999078101MD1110121+9999ME1313249OA149900361REMSYN076AAXX  09214 06609 33/// /2204 11128 21178 37810 48324 51012 333 91107 91206;
0137066090999992010010922004+46550+007017FM-12+197299999V0202301N002619999999N9999999N1-01261-01261999999ADDMA1999999078131MD1110091+9999ME1313279OA149900361REMSYN076AAXX  09224 06609 33/// /2305 11126 21126 37813 48327 51009 333 91107 91206;
0154066090999992010010923004+46550+007017FM-12+197299999V0202401N002619999999N9999999N1-01291-01601999999ADDAA101000021MA1999999078171MD1310101+9999ME1313319OA149900411REMSYN082AAXX  09234 06609 23/// /2405 11129 21160 37817 48331 53010 333 69915 91108 91206;
0179066090999992010011000004+46550+007017FM-12+197299999V0202601N002619999999N9999999N1-01241-01331999999ADDAA106000091MA1999999078201MD1310101+9999ME1313339OA149900411REMSYN088AAXX  10004 06609 03/// /2605 11124 21133 37820 48333 53010 69911 333 60005 91108 91206;EQDQ01  00002PRCP06
0137066090999992010011001004+46550+007017FM-12+197299999V0202701N002619999999N9999999N1-01271-01271999999ADDMA1999999078241MD1110111+9999ME1313389OA149900411REMSYN076AAXX  10014 06609 33/// /2705 11127 21127 37824 48338 51011 333 91108 91206;
0096066090999992010011002004+46550+007017FM-12+197299999V0202601N003619999999N9999999N1-01321-01451999999ADDMA1999999078291ME1313449REMSYN060AAXX  10024 06609 33/// /2607 11132 21145 37829 48344 5////;
0096066090999992010011003004+46550+007017FM-12+197299999V0201801N001519999999N9999999N1-01261-01361999999ADDMA1999999078331ME1313469REMSYN060AAXX  10034 06609 43/// /1803 11126 21136 37833 48346 5////;
0137066090999992010011004004+46550+007017FM-12+197299999V0202001N001519999999N9999999N1-01381-01381999999ADDMA1999999078361MD1110121+9999ME1313529OA149900411REMSYN076AAXX  10044 06609 33/// /2003 11138 21138 37836 48352 51012 333 91108 91207;
0137066090999992010011005004+46550+007017FM-12+197299999V0201801N001519999999N9999999N1-01371-01401999999ADDMA1999999078411MD1310121+9999ME1313579OA149900261REMSYN076AAXX  10054 06609 33/// /1803 11137 21140 37841 48357 53012 333 91105 91204;
0255066090999992010011006004+46550+007017FM-12+197299999V0201701N002119999999N9999999N1-01211-01561999999ADDAA112000091AA224000091AL10600091GJ100009KA1999N-01411MA1999999078441MD1110111+9999ME1313569OA149900511REMSYN106AAXX  10064 06609 03/// /1704 11121 21156 37844 48356 51011 69912 333 21141 55000 60005 70001 91110 91209;EQDQ01  00002PRCP24Q02  00002PRCP12
0137066090999992010011007004+46550+007017FM-12+197299999V0201301N001019999999N9999999N1-01381-01571999999ADDMA1999999078511MD1310151+9999ME1313679OA149900261REMSYN076AAXX  10074 06609 33/// /1302 11138 21157 37851 48367 53015 333 91105 91204;
0137066090999992010011008004+46550+007017FM-12+197299999V0201901N001519999999N9999999N1-01341-01341999999ADDMA1999999078571MD1319999+9999ME1313729OA149900261REMSYN076AAXX  10084 06609 33/// /1903 11134 21134 37857 48372 53/// 333 91105 91204;
0137066090999992010011009004+46550+007017FM-12+197299999V0202001N001519999999N9999999N1-01251-01331999999ADDMA1999999078631MD1110191+9999ME1313769OA149900261REMSYN076AAXX  10094 06609 33/// /2003 11125 21133 37863 48376 51019 333 91105 91204;
0137066090999992010011010004+46550+007017FM-12+197299999V0202701N000519999999N9999999N1-01381-01381999999ADDMA1999999078681MD1110171+9999ME1313849OA149900261REMSYN076AAXX  10104 06609 33/// /2701 11138 21138 37868 48384 51017 333 91105 91204;
0137066090999992010011011004+46550+007017FM-12+197299999V0202301N003119999999N9999999N1-01261-01261999999ADDMA1999999078711MD1110141+9999ME1313849OA149900361REMSYN076AAXX  10114 06609 33/// /2306 11126 21126 37871 48384 51014 333 91107 91206;
0137066090999992010011012004+46550+007017FM-12+197299999V0202301N002119999999N9999999N1-01151-01201999999ADDMA1999999078731MD1110101+9999ME1313839OA149900511REMSYN076AAXX  10124 06609 33/// /2304 11115 21120 37873 48383 51010 333 91110 91209;
0137066090999992010011013004+46550+007017FM-12+197299999V0202201N001519999999N9999999N1-00931-01151999999ADDMA1999999078751MD1310071+9999ME1313809OA149900411REMSYN076AAXX  10134 06609 33/// /2203 11093 21115 37875 48380 53007 333 91108 91207;
0137066090999992010011014004+46550+007017FM-12+197299999V0202301N003119999999N9999999N1-00891-01071999999ADDMA1999999078811MD1319999+9999ME1313859OA149900511REMSYN076AAXX  10144 06609 33/// /2306 11089 21107 37881 48385 53/// 333 91110 91206;
0137066090999992010011015004+46550+007017FM-12+197299999V0201501N002619999999N9999999N1-00721-01041999999ADDMA1999999078851MD1310121+9999ME1313869OA149900571REMSYN076AAXX  10154 06609 33/// /1505 11072 21104 37885 48386 53012 333 91111 91209;
0137066090999992010011016004+46550+007017FM-12+197299999V0202001N003619999999N9999999N1-00841-01101999999ADDMA1999999078901MD1110151+9999ME1313939OA149900571REMSYN076AAXX  10164 06609 33/// /2007 11084 21110 37890 48393 51015 333 91111 91209;
0137066090999992010011017004+46550+007017FM-12+197299999V0202001N002619999999N9999999N1-00761-01081999999ADDMA1999999078941MD1110131+9999ME1313969OA149900571REMSYN076AAXX  10174 06609 33/// /2005 11076 21108 37894 48396 51013 333 91111 91210;
0156066090999992010011018004+46550+007017FM-12+197299999V0201501N001519999999N9999999N1-00771-01031999999ADDKA1120M-00651MA1999999078981MD1110131+9999ME1314009OA149900571REMSYN082AAXX  10184 06609 33/// /1503 11077 21103 37898 48400 51013 333 11065 91111 91210;
0137066090999992010011019004+46550+007017FM-12+197299999V0201701N003619999999N9999999N1-00571-01051999999ADDMA1999999079001MD1310101+9999ME1313979OA149900411REMSYN076AAXX  10194 06609 33/// /1707 11057 21105 37900 48397 53010 333 91108 91207;
0137066090999992010011020004+46550+007017FM-12+197299999V0201501N004119999999N9999999N1-00661-01061999999ADDMA1999999079011MD1210071+9999ME1314009OA149900511REMSYN076AAXX  10204 06609 33/// /1508 11066 21106 37901 48400 52007 333 91110 91208;
0137066090999992010011021004+46550+007017FM-12+197299999V0202101N001519999999N9999999N1-00491-01021999999ADDMA1999999079041MD1210061+9999ME1314009OA149900571REMSYN076AAXX  10214 06609 33/// /2103 11049 21102 37904 48400 52006 333 91111 91210;
0137066090999992010011022004+46550+007017FM-12+197299999V0202701N001519999999N9999999N1-00511-01031999999ADDMA1999999079051MD1210051+9999ME1314019OA149900511REMSYN076AAXX  10224 06609 33/// /2703 11051 21103 37905 48401 52005 333 91110 91209;
0137066090999992010011023004+46550+007017FM-12+197299999V0202701N002619999999N9999999N1-00601-01041999999ADDMA1999999079071MD1210061+9999ME1314059OA149900311REMSYN076AAXX  10234 06609 33/// /2705 11060 21104 37907 48405 52006 333 91106 91205;
0137066090999992010011100004+46550+007017FM-12+197299999V0202801N001519999999N9999999N1-00611-01031999999ADDMA1999999079081MD1110041+9999ME1314069OA149900571REMSYN076AAXX  11004 06609 33/// /2803 11061 21103 37908 48406 51004 333 91111 91210;
0137066090999992010011101004+46550+007017FM-12+197299999V0202501N005119999999N9999999N1-00611-01061999999ADDMA1999999079081MD1210031+9999ME1314069OA149900671REMSYN076AAXX  11014 06609 33/// /2510 11061 21106 37908 48406 52003 333 91113 91210;
0137066090999992010011102004+46550+007017FM-12+197299999V0202601N002619999999N9999999N1-00601-01141999999ADDMA1999999079121MD1219999+9999ME1314109OA149900671REMSYN076AAXX  11024 06609 33/// /2605 11060 21114 37912 48410 52/// 333 91113 91210;
0137066090999992010011103004+46550+007017FM-12+197299999V0202601N002119999999N9999999N1-00591-00891999999ADDMA1999999079131MD1219999+9999ME1314119OA149900671REMSYN076AAXX  11034 06609 33/// /2604 11059 21089 37913 48411 52/// 333 91113 91210;
0137066090999992010011104004+46550+007017FM-12+197299999V0201801N000519999999N9999999N1-00621-00951999999ADDMA1999999079111MD1010031+9999ME1314109OA149900411REMSYN076AAXX  11044 06609 33/// /1801 11062 21095 37911 48410 50003 333 91108 91206;
0137066090999992010011105004+46550+007017FM-12+197299999V0201201N001019999999N9999999N1-00541-01041999999ADDMA1999999079091MD1710031+9999ME1314069OA149900151REMSYN076AAXX  11054 06609 33/// /1202 11054 21104 37909 48406 57003 333 91103 91202;
0216066090999992010011106004+46550+007017FM-12+197299999V0200901N001519999999N9999999N1-00591-01081999999ADDAA124000091AL19900091GJ104329KA1999N-00771MA1999999079081MD1710051+9999ME1314069OA149900671REMSYN094AAXX  11064 06609 33/// /0903 11059 21108 37908 48406 57005 333 21077 55072 70000 91113 91210;EQDQ01  00002PRCP24
0137066090999992010011107004+46550+007017FM-12+197299999V0200401N002119999999N9999999N1-00631-01041999999ADDMA1999999079091MD1510021+9999ME1314089OA149900361REMSYN076AAXX  11074 06609 33/// /0404 11063 21104 37909 48408 55002 333 91107 91206;
0137066090999992010011108004+46550+007017FM-12+197299999V0200201N002119999999N9999999N1-00631-00981999999ADDMA1999999079111MD1319999+9999ME1314109OA149900361REMSYN076AAXX  11084 06609 33/// /0204 11063 21098 37911 48410 53/// 333 91107 91206;
0137066090999992010011109004+46550+007017FM-12+197299999V0209999C000519999999N9999999N1-00581-01231999999ADDMA1999999079151MD1210071+9999ME1314139OA149900361REMSYN076AAXX  11094 06609 33/// /0001 11058 21123 37915 48413 52007 333 91107 91206;
0137066090999992010011110004+46550+007017FM-12+197299999V0202801N003119999999N9999999N1-00691-01081999999ADDMA1999999079191MD1319999+9999ME1314199OA149900361REMSYN076AAXX  11104 06609 33/// /2806 11069 21108 37919 48419 53/// 333 91107 91207;
0137066090999992010011111004+46550+007017FM-12+197299999V0202901N001019999999N9999999N1-00651-00841999999ADDMA1999999079201MD1210091+9999ME1314199OA149900361REMSYN076AAXX  11114 06609 33/// /2902 11065 21084 37920 48419 52009 333 91107 91207;
0137066090999992010011112004+46550+007017FM-12+197299999V0202501N001019999999N9999999N1-00661-00841999999ADDMA1999999079171MD1010021+9999ME1314169OA149900671REMSYN076AAXX  11124 06609 33/// /2502 11066 21084 37917 48416 50002 333 91113 91210;
0137066090999992010011113004+46550+007017FM-12+197299999V0202801N002619999999N9999999N1-00561-01041999999ADDMA1999999079161MD1710031+9999ME1314139OA149900311REMSYN076AAXX  11134 06609 33/// /2805 11056 21104 37916 48413 57003 333 91106 91205;
0096066090999992010011114004+46550+007017FM-12+197299999V0202701N002119999999N9999999N1-00691-01181999999ADDMA1999999079191ME1314199REMSYN060AAXX  11144 06609 33/// /2704 11069 21118 37919 48419 5////;
0137066090999992010011115004+46550+007017FM-12+197299999V0202601N002119999999N9999999N1-00701-01201999999ADDMA1999999079211MD1210041+9999ME1314219OA149900361REMSYN076AAXX  11154 06609 33/// /2604 11070 21120 37921 48421 52004 333 91107 91207;
0137066090999992010011116004+46550+007017FM-12+197299999V0202801N002119999999N9999999N1-00721-01151999999ADDMA1999999079231MD1110071+9999ME1314249OA149900311REMSYN076AAXX  11164 06609 33/// /2804 11072 21115 37923 48424 51007 333 91106 91205;
0137066090999992010011117004+46550+007017FM-12+197299999V0203601N001519999999N9999999N1-00731-01491999999ADDMA1999999079241MD1110051+9999ME1314259OA149900261REMSYN076AAXX  11174 06609 33/// /3603 11073 21149 37924 48425 51005 333 91105 91204;
0156066090999992010011118004+46550+007017FM-12+197299999V0202601N000519999999N9999999N1-00711-00921999999ADDKA1120M-00501MA1999999079271MD1110061+9999ME1314279OA149900361REMSYN082AAXX  11184 06609 33/// /2601 11071 21092 37927 48427 51006 333 11050 91107 91207;
0137066090999992010011119004+46550+007017FM-12+197299999V0203201N000519999999N9999999N1-00731-01311999999ADDMA1999999079291MD1110061+9999ME1314309OA149900211REMSYN076AAXX  11194 06609 33/// /3201 11073 21131 37929 48430 51006 333 91104 91203;
0137066090999992010011120004+46550+007017FM-12+197299999V0203401N001019999999N9999999N1-00641-01191999999ADDMA1999999079311MD1110071+9999ME1314309OA149900151REMSYN076AAXX  11204 06609 33/// /3402 11064 21119 37931 48430 51007 333 91103 91202;
0137066090999992010011121004+46550+007017FM-12+197299999V0200101N001519999999N9999999N1-00631-01161999999ADDMA1999999079321MD1210051+9999ME1314319OA149900261REMSYN076AAXX  11214 06609 33/// /0103 11063 21116 37932 48431 52005 333 91105 91204;
0137066090999992010011122004+46550+007017FM-12+197299999V0200401N000519999999N9999999N1-00631-00851999999ADDMA1999999079341MD1210051+9999ME1314339OA149900211REMSYN076AAXX  11224 06609 33/// /0401 11063 21085 37934 48433 52005 333 91104 91203;
0137066090999992010011123004+46550+007017FM-12+197299999V0200601N000519999999N9999999N1-00601-00961999999ADDMA1999999079341MD1210031+9999ME1314329OA149900211REMSYN076AAXX  11234 06609 33/// /0601 11060 21096 37934 48432 52003 333 91104 91203;
0137066090999992010011200004+46550+007017FM-12+197299999V0200301N001019999999N9999999N1-00581-01031999999ADDMA1999999079331MD1010011+9999ME1314319OA149900311REMSYN076AAXX  12004 06609 33/// /0302 11058 21103 37933 48431 50001 333 91106 91205;
0137066090999992010011201004+46550+007017FM-12+197299999V0200901N000519999999N9999999N1-00601-01031999999ADDMA1999999079301MD1810041+9999ME1314289OA149900151REMSYN076AAXX  12014 06609 33/// /0901 11060 21103 37930 48428 58004 333 91103 91202;
0137066090999992010011202004+46550+007017FM-12+197299999V0201401N000519999999N9999999N1-00571-01051999999ADDMA1999999079291MD1819999+9999ME1314279OA149900151REMSYN076AAXX  12024 06609 33/// /1401 11057 21105 37929 48427 58/// 333 91103 91201;
0137066090999992010011203004+46550+007017FM-12+197299999V0201201N001519999999N9999999N1-00561-01041999999ADDMA1999999079291MD1710041+9999ME1314269OA149900211REMSYN076AAXX  12034 06609 33/// /1203 11056 21104 37929 48426 57004 333 91104 91203;
0137066090999992010011204004+46550+007017FM-12+197299999V0202001N001519999999N9999999N1-00561-01111999999ADDMA1999999079271MD1710031+9999ME1314249OA149900261REMSYN076AAXX  12044 06609 33/// /2003 11056 21111 37927 48424 57003 333 91105 91204;
0137066090999992010011205004+46550+007017FM-12+197299999V0202601N001519999999N9999999N1-00491-01161999999ADDMA1999999079251MD1710041+9999ME1314219OA149900261REMSYN076AAXX  12054 06609 33/// /2603 11049 21116 37925 48421 57004 333 91105 91204;
0216066090999992010011206004+46550+007017FM-12+197299999V0202901N002119999999N9999999N1-00511-01141999999ADDAA124000091AL19900091GJ104989KA1999N-00741MA1999999079231MD1610061+9999ME1314199OA149900261REMSYN094AAXX  12064 06609 33/// /2904 11051 21114 37923 48419 56006 333 21074 55083 70000 91105 91204;EQDQ01  00002PRCP24
0137066090999992010011207004+46550+007017FM-12+197299999V0203001N000519999999N9999999N1-00521-01561999999ADDMA1999999079201MD1810071+9999ME1314169OA149900261REMSYN076AAXX  12074 06609 33/// /3001 11052 21156 37920 48416 58007 333 91105 91204;
0137066090999992010011208004+46550+007017FM-12+197299999V0201101N001019999999N9999999N1-00401-01091999999ADDMA1999999079161MD1819999+9999ME1314109OA149900261REMSYN076AAXX  12084 06609 33/// /1102 11040 21109 37916 48410 58/// 333 91105 91204;
0137066090999992010011209004+46550+007017FM-12+197299999V0201701N002119999999N9999999N1-00311-00931999999ADDMA1999999079121MD1810111+9999ME1314049OA149900261REMSYN076AAXX  12094 06609 33/// /1704 11031 21093 37912 48404 58011 333 91105 91204;
0137066090999992010011210004+46550+007017FM-12+197299999V0202001N002619999999N9999999N1-00201-00961999999ADDMA1999999079091MD1610111+9999ME1313989OA149900261REMSYN076AAXX  12104 06609 33/// /2005 11020 21096 37909 48398 56011 333 91105 91205;
0137066090999992010011211004+46550+007017FM-12+197299999V0202201N004619999999N9999999N1-00221-01111999999ADDMA1999999079051MD1810111+9999ME1313959OA149900571REMSYN076AAXX  12114 06609 33/// /2209 11022 21111 37905 48395 58011 333 91111 91209;
0137066090999992010011212004+46550+007017FM-12+197299999V0203001N004119999999N9999999N1-00251-01211999999ADDMA1999999079001MD1810121+9999ME1313909OA149900981REMSYN076AAXX  12124 06609 33/// /3008 11025 21121 37900 48390 58012 333 91119 91212;
0137066090999992010011213004+46550+007017FM-12+197299999V0202801N003119999999N9999999N1-00241-01391999999ADDMA1999999078931MD1810161+9999ME1313839OA149901131REMSYN076AAXX  12134 06609 33/// /2806 11024 21139 37893 48383 58016 333 91122 91212;
0096066090999992010011214004+46550+007017FM-12+197299999V0202301N003119999999N9999999N1-00261-01311999999ADDMA1999999078871ME1313779REMSYN060AAXX  12144 06609 33/// /2306 11026 21131 37887 48377 5////;
0137066090999992010011215004+46550+007017FM-12+197299999V0202201N005119999999N9999999N1-00251-01401999999ADDMA1999999078811MD1710191+9999ME1313719OA149901131REMSYN076AAXX  12154 06609 33/// /2210 11025 21140 37881 48371 57019 333 91122 91212;
0137066090999992010011216004+46550+007017FM-12+197299999V0202401N006219999999N9999999N1-00321-01491999999ADDMA1999999078731MD1710201+9999ME1313649OA149901081REMSYN076AAXX  12164 06609 33/// /2412 11032 21149 37873 48364 57020 333 91121 91212;
0137066090999992010011217004+46550+007017FM-12+197299999V0202201N005719999999N9999999N1-00291-01571999999ADDMA1999999078721MD1710151+9999ME1313639OA149901131REMSYN076AAXX  12174 06609 33/// /2211 11029 21157 37872 48363 57015 333 91122 91213;
0156066090999992010011218004+46550+007017FM-12+197299999V0202401N005719999999N9999999N1-00251-01621999999ADDKA1120M-00181MA1999999078691MD1710121+9999ME1313599OA149901131REMSYN082AAXX  12184 06609 33/// /2411 11025 21162 37869 48359 57012 333 11018 91122 91213;
0137066090999992010011219004+46550+007017FM-12+197299999V0202401N005719999999N9999999N1-00231-02281999999ADDMA1999999078671MD1710061+9999ME1313569OA149901181REMSYN076AAXX  12194 06609 33/// /2411 11023 21228 37867 48356 57006 333 91123 91213;
0137066090999992010011220004+46550+007017FM-12+197299999V0202301N006719999999N9999999N1-00201-01881999999ADDMA1999999078601MD1710121+9999ME1313489OA149901241REMSYN076AAXX  12204 06609 33/// /2313 11020 21188 37860 48348 57012 333 91124 91216;
0137066090999992010011221004+46550+007017FM-12+197299999V0202001N007719999999N9999999N1-00231-01781999999ADDMA1999999078561MD1710131+9999ME1313459OA149901241REMSYN076AAXX  12214 06609 33/// /2015 11023 21178 37856 48345 57013 333 91124 91216;
0137066090999992010011222004+46550+007017FM-12+197299999V0202101N005119999999N9999999N1-00201-01881999999ADDMA1999999078551MD1710121+9999ME1313439OA149901081REMSYN076AAXX  12224 06609 33/// /2110 11020 21188 37855 48343 57012 333 91121 91216;
0137066090999992010011223004+46550+007017FM-12+197299999V0202901N005119999999N9999999N1-00381-01551999999ADDMA1999999078551MD1510051+9999ME1313479OA149901341REMSYN076AAXX  12234 06609 33/// /2910 11038 21155 37855 48347 55005 333 91126 91213;
0156066090999992010011300004+46550+007017FM-12+197299999V0202201N008219999999N9999999N1-00511-01091999999ADDMA1999999078561MD1410001+9999ME1313519OA149901491REMSYN076AAXX  13004 06609 33/// /2216 11051 21109 37856 48351 52000 333 91129 91216;EQDQ01+000022APCTEN
0137066090999992010011301004+46550+007017FM-12+197299999V0201801N008719999999N9999999N1-00641-00721999999ADDMA1999999078501MD1810051+9999ME1313489OA149901541REMSYN076AAXX  13014 06609 33/// /1817 11064 21072 37850 48348 58005 333 91130 91219;
0137066090999992010011302004+46550+007017FM-12+197299999V0201901N009819999999N9999999N1-00571-00651999999ADDMA1999999078461MD1719999+9999ME1313439OA149901601REMSYN076AAXX  13024 06609 33/// /1919 11057 21065 37846 48343 57/// 333 91131 91219;
0137066090999992010011303004+46550+007017FM-12+197299999V0202201N009319999999N9999999N1-00531-00581999999ADDMA1999999078431MD1719999+9999ME1313399OA149901601REMSYN076AAXX  13034 06609 33/// /2218 11053 21058 37843 48339 57/// 333 91131 91221;
0137066090999992010011304004+46550+007017FM-12+197299999V0202501N009319999999N9999999N1-00371-00431999999ADDMA1999999078411MD1710091+9999ME1313339OA149901751REMSYN076AAXX  13044 06609 33/// /2518 11037 21043 37841 48333 57009 333 91134 91221;
0137066090999992010011305004+46550+007017FM-12+197299999V0202601N007719999999N9999999N1-00351-00351999999ADDMA1999999078431MD1510031+9999ME1313349OA149901751REMSYN076AAXX  13054 06609 33/// /2615 11035 21035 37843 48334 55003 333 91134 91218;
0216066090999992010011306004+46550+007017FM-12+197299999V0202901N009819999999N9999999N1-00321-00321999999ADDAA124000091AL19900091GJ104809KA1999N-00641MA1999999078401MD1710031+9999ME1313319OA149902111REMSYN094AAXX  13064 06609 33/// /2919 11032 21032 37840 48331 57003 333 21064 55080 70000 91141 91221;EQDQ01  00002PRCP24
0137066090999992010011307004+46550+007017FM-12+197299999V0202901N010319999999N9999999N1-00321-00351999999ADDMA1999999078471MD1310061+9999ME1313389OA149902111REMSYN076AAXX  13074 06609 33/// /2920 11032 21035 37847 48338 53006 333 91141 91220;
0137066090999992010011308004+46550+007017FM-12+197299999V0203001N008219999999N9999999N1-00311-00311999999ADDMA1999999078551MD1210121+9999ME1313469OA149902111REMSYN076AAXX  13084 06609 33/// /3016 11031 21031 37855 48346 52012 333 91141 91220;
0137066090999992010011309004+46550+007017FM-12+197299999V0202901N008219999999N9999999N1-00301-00351999999ADDMA1999999078641MD1310241+9999ME1313559OA149902111REMSYN076AAXX  13094 06609 33/// /2916 11030 21035 37864 48355 53024 333 91141 91220;
0137066090999992010011310004+46550+007017FM-12+197299999V0202901N008219999999N9999999N1-00361-00381999999ADDMA1999999078681MD1210211+9999ME1313609OA149902061REMSYN076AAXX  13104 06609 33/// /2916 11036 21038 37868 48360 52021 333 91140 91218;
0137066090999992010011311004+46550+007017FM-12+197299999V0202901N007219999999N9999999N1-00381-00411999999ADDMA1999999078731MD1210181+9999ME1313669OA149902061REMSYN076AAXX  13114 06609 33/// /2914 11038 21041 37873 48366 52018 333 91140 91218;
0137066090999992010011312004+46550+007017FM-12+197299999V0202901N005719999999N9999999N1-00371-00371999999ADDMA1999999078741MD1210101+9999ME1313679OA149902111REMSYN076AAXX  13124 06609 33/// /2911 11037 21037 37874 48367 52010 333 91141 91221;
0137066090999992010011313004+46550+007017FM-12+197299999V0202801N004619999999N9999999N1-00381-00381999999ADDMA1999999078761MD1210081+9999ME1313699OA149901851REMSYN076AAXX  13134 06609 33/// /2809 11038 21038 37876 48369 52008 333 91136 91212;
0137066090999992010011314004+46550+007017FM-12+197299999V0202801N005119999999N9999999N1-00411-00411999999ADDMA1999999078791MD1219999+9999ME1313739OA149901851REMSYN076AAXX  13144 06609 33/// /2810 11041 21041 37879 48373 52/// 333 91136 91215;
0137066090999992010011315004+46550+007017FM-12+197299999V0202801N009319999999N9999999N1-00331-00331999999ADDMA1999999078821MD1210081+9999ME1313749OA149902061REMSYN076AAXX  13154 06609 33/// /2818 11033 21033 37882 48374 52008 333 91140 91218;
0137066090999992010011316004+46550+007017FM-12+197299999V0202701N009819999999N9999999N1-00341-00341999999ADDMA1999999078871MD1210111+9999ME1313799OA149901541REMSYN076AAXX  13164 06609 33/// /2719 11034 21034 37887 48379 52011 333 91130 91220;
0154066090999992010011317004+46550+007017FM-12+197299999V0202601N005719999999N9999999N1-00431-00431999999ADDAA101000021MA1999999078931MD1310141+9999ME1313879OA149901601REMSYN082AAXX  13174 06609 23/// /2611 11043 21043 37893 48387 53014 333 69915 91131 91220;
0198066090999992010011318004+46550+007017FM-12+197299999V0202801N005719999999N9999999N1-00421-00421999999ADDAA112000091KA1120M-00291MA1999999078951MD1110131+9999ME1313899OA149902111REMSYN094AAXX  13184 06609 03/// /2811 11042 21042 37895 48389 51013 69922 333 11029 69915 91141 91220;EQDQ01  00002PRCP12
0154066090999992010011319004+46550+007017FM-12+197299999V0202701N002619999999N9999999N1-00471-00471999999ADDAA101000021MA1999999078961MD1210091+9999ME1313919OA149901081REMSYN082AAXX  13194 06609 23/// /2705 11047 21047 37896 48391 52009 333 69915 91121 91212;
0137066090999992010011320004+46550+007017FM-12+197299999V0202201N004119999999N9999999N1-00561-00821999999ADDMA1999999078951MD1010021+9999ME1313929OA149901031REMSYN076AAXX  13204 06609 33/// /2208 11056 21082 37895 48392 50002 333 91120 91212;
0137066090999992010011321004+46550+007017FM-12+197299999V0202301N005719999999N9999999N1-00521-00601999999ADDMA1999999078921MD1710031+9999ME1313889OA149901601REMSYN076AAXX  13214 06609 33/// /2311 11052 21060 37892 48388 57003 333 91131 91220;
0137066090999992010011322004+46550+007017FM-12+197299999V0202301N004619999999N9999999N1-00461-00861999999ADDMA1999999078881MD1810081+9999ME1313839OA149900881REMSYN076AAXX  13224 06609 33/// /2309 11046 21086 37888 48383 58008 333 91117 91213;
0137066090999992010011323004+46550+007017FM-12+197299999V0202301N005719999999N9999999N1-00471-00821999999ADDMA1999999078851MD1810101+9999ME1313809OA149900931REMSYN076AAXX  13234 06609 33/// /2311 11047 21082 37885 48380 58010 333 91118 91213;
0179066090999992010011400004+46550+007017FM-12+197299999V0202301N005119999999N9999999N1-00481-01041999999ADDAA106000091MA1999999078801MD1810121+9999ME1313759OA149901851REMSYN088AAXX  14004 06609 03/// /2310 11048 21104 37880 48375 58012 69911 333 60005 91136 91220;EQDQ01  00002PRCP06
0137066090999992010011401004+46550+007017FM-12+197299999V0202401N005119999999N9999999N1-00461-01081999999ADDMA1999999078741MD1810141+9999ME1313699OA149900931REMSYN076AAXX  14014 06609 33/// /2410 11046 21108 37874 48369 58014 333 91118 91212;
0137066090999992010011402004+46550+007017FM-12+197299999V0202301N005119999999N9999999N1-00501-01111999999ADDMA1999999078751MD1719999+9999ME1313719OA149900981REMSYN076AAXX  14024 06609 33/// /2310 11050 21111 37875 48371 57/// 333 91119 91212;
0096066090999992010011403004+46550+007017FM-12+197299999V0202201N006219999999N9999999N1-00471-01231999999ADDMA1999999078721ME1313679REMSYN060AAXX  14034 06609 33/// /2212 11047 21123 37872 48367 5////;
0137066090999992010011404004+46550+007017FM-12+197299999V0202301N004119999999N9999999N1-00431-01351999999ADDMA1999999078681MD1710061+9999ME1313629OA149900821REMSYN076AAXX  14044 06609 33/// /2308 11043 21135 37868 48362 57006 333 91116 91212;
0137066090999992010011405004+46550+007017FM-12+197299999V0202001N004119999999N9999999N1-00341-01451999999ADDMA1999999078681MD1610071+9999ME1313609OA149900821REMSYN076AAXX  14054 06609 33/// /2008 11034 21145 37868 48360 56007 333 91116 91210;
0239066090999992010011406004+46550+007017FM-12+197299999V0201301N002619999999N9999999N1-00301-01491999999ADDAA112000091AA224000391AL11800091GJ100009KA1999N-00571MA1999999078651MD1610071+9999ME1313569OA149901031REMSYN106AAXX  14064 06609 03/// /1305 11030 21149 37865 48356 56007 69912 333 21057 55000 60005 70003 91120 91213;EQDQ01  00002PRCP12
0137066090999992010011407004+46550+007017FM-12+197299999V0201201N003619999999N9999999N1-00281-01601999999ADDMA1999999078621MD1810061+9999ME1313529OA149900621REMSYN076AAXX  14074 06609 33/// /1207 11028 21160 37862 48352 58006 333 91112 91208;
0137066090999992010011408004+46550+007017FM-12+197299999V0201301N002619999999N9999999N1-00241-01571999999ADDMA1999999078621MD1719999+9999ME1313519OA149900621REMSYN076AAXX  14084 06609 33/// /1305 11024 21157 37862 48351 57/// 333 91112 91208;
0137066090999992010011409004+46550+007017FM-12+197299999V0201201N004619999999N9999999N1-00131-01641999999ADDMA1999999078611MD1710041+9999ME1313489OA149900821REMSYN076AAXX  14094 06609 33/// /1209 11013 21164 37861 48348 57004 333 91116 91210;
0137066090999992010011410004+46550+007017FM-12+197299999V0201101N003619999999N9999999N1-00141-01601999999ADDMA1999999078621MD1010001+9999ME1313499OA149900721REMSYN076AAXX  14104 06609 33/// /1107 11014 21160 37862 48349 50000 333 91114 91209;
0137066090999992010011411004+46550+007017FM-12+197299999V0200901N001519999999N9999999N1-00101-01641999999ADDMA1999999078611MD1710011+9999ME1313479OA149900511REMSYN076AAXX  14114 06609 33/// /0903 11010 21164 37861 48347 57001 333 91110 91208;
0137066090999992010011412004+46550+007017FM-12+197299999V0202401N002119999999N9999999N1-00171-01211999999ADDMA1999999078631MD1210021+9999ME1313519OA149900981REMSYN076AAXX  14124 06609 33/// /2404 11017 21121 37863 48351 52002 333 91119 91212;
0137066090999992010011413004+46550+007017FM-12+197299999V0201001N002619999999N9999999N1-00241-00971999999ADDMA1999999078621MD1010001+9999ME1313519OA149900411REMSYN076AAXX  14134 06609 33/// /1005 11024 21097 37862 48351 50000 333 91108 91205;
0137066090999992010011414004+46550+007017FM-12+197299999V0201101N005719999999N9999999N1-00171-01251999999ADDMA1999999078591MD1810021+9999ME1313469OA149900771REMSYN076AAXX  14144 06609 33/// /1111 11017 21125 37859 48346 58002 333 91115 91211;
0137066090999992010011415004+46550+007017FM-12+197299999V0201201N004619999999N9999999N1-00251-01241999999ADDMA1999999078601MD1710031+9999ME1313499OA149900821REMSYN076AAXX  14154 06609 33/// /1209 11025 21124 37860 48349 57003 333 91116 91211;
0137066090999992010011416004+46550+007017FM-12+197299999V0201401N003619999999N9999999N1-00281-00861999999ADDMA1999999078641MD1310021+9999ME1313549OA149900881REMSYN076AAXX  14164 06609 33/// /1407 11028 21086 37864 48354 53002 333 91117 91211;
0137066090999992010011417004+46550+007017FM-12+197299999V0201201N001519999999N9999999N1-00181-00561999999ADDMA1999999078701MD1310111+9999ME1313589OA149900881REMSYN076AAXX  14174 06609 33/// /1203 11018 21056 37870 48358 53011 333 91117 91210;
0156066090999992010011418004+46550+007017FM-12+197299999V0203501N001519999999N9999999N1-00181-00751999999ADDKA1120M-00091MA1999999078771MD1310171+9999ME1313659OA149900881REMSYN082AAXX  14184 06609 33/// /3503 11018 21075 37877 48365 53017 333 11009 91117 91211;
0137066090999992010011419004+46550+007017FM-12+197299999V0200401N001519999999N9999999N1-00161-01191999999ADDMA1999999078861MD1310221+9999ME1313749OA149900261REMSYN076AAXX  14194 06609 33/// /0403 11016 21119 37886 48374 53022 333 91105 91203;
0137066090999992010011420004+46550+007017FM-12+197299999V0200201N001519999999N9999999N1-00181-01131999999ADDMA1999999078921MD1110221+9999ME1313819OA149900261REMSYN076AAXX  14204 06609 33/// /0203 11018 21113 37892 48381 51022 333 91105 91204;
0137066090999992010011421004+46550+007017FM-12+197299999V0203001N002119999999N9999999N1-00261-01161999999ADDMA1999999078991MD1210221+9999ME1313909OA149900881REMSYN076AAXX  14214 06609 33/// /3004 11026 21116 37899 48390 52022 333 91117 91210;
0137066090999992010011422004+46550+007017FM-12+197299999V0203301N002119999999N9999999N1-00241-01091999999ADDMA1999999079071MD1310211+9999ME1313979OA149900261REMSYN076AAXX  14224 06609 33/// /3304 11024 21109 37907 48397 53021 333 91105 91205;
0137066090999992010011423004+46550+007017FM-12+197299999V0202901N002619999999N9999999N1-00211-01111999999ADDMA1999999079141MD1210221+9999ME1314049OA149900311REMSYN076AAXX  14234 06609 33/// /2905 11021 21111 37914 48404 52022 333 91106 91205;
0137066090999992010011500004+46550+007017FM-12+197299999V0202401N003619999999N9999999N1-00371-01001999999ADDMA1999999079181MD1110191+9999ME1314119OA149900881REMSYN076AAXX  15004 06609 33/// /2407 11037 21100 37918 48411 51019 333 91117 91211;
0137066090999992010011501004+46550+007017FM-12+197299999V0202201N004119999999N9999999N1-00331-00821999999ADDMA1999999079241MD1110171+9999ME1314169OA149900721REMSYN076AAXX  15014 06609 33/// /2208 11033 21082 37924 48416 51017 333 91114 91210;
0137066090999992010011502004+46550+007017FM-12+197299999V0202201N002619999999N9999999N1-00291-00871999999ADDMA1999999079311MD1310171+9999ME1314239OA149900721REMSYN076AAXX  15024 06609 33/// /2205 11029 21087 37931 48423 53017 333 91114 91210;
0096066090999992010011503004+46550+007017FM-12+197299999V0202601N002619999999N9999999N1-00381-00521999999ADDMA1999999079361ME1314309REMSYN060AAXX  15034 06609 33/// /2605 11038 21052 37936 48430 5////;
0137066090999992010011504004+46550+007017FM-12+197299999V0202801N002119999999N9999999N1-00521-01101999999ADDMA1999999079421MD1110181+9999ME1314399OA149900411REMSYN076AAXX  15044 06609 33/// /2804 11052 21110 37942 48439 51018 333 91108 91206;
0137066090999992010011505004+46550+007017FM-12+197299999V0202301N000519999999N9999999N1-00461-01011999999ADDMA1999999079481MD1310171+9999ME1314439OA149900361REMSYN076AAXX  15054 06609 33/// /2301 11046 21101 37948 48443 53017 333 91107 91205;
0216066090999992010011506004+46550+007017FM-12+197299999V0203601N001019999999N9999999N1-00461-01201999999ADDAA124000091AL19900091GJ101389KA1999N-00541MA1999999079551MD1310191+9999ME1314509OA149900721REMSYN094AAXX  15064 06609 33/// /3602 11046 21120 37955 48450 53019 333 21054 55023 70000 91114 91210;EQDQ01  00002PRCP24
0137066090999992010011507004+46550+007017FM-12+197299999V0203201N001519999999N9999999N1-00541-00831999999ADDMA1999999079651MD1310231+9999ME1314629OA149900261REMSYN076AAXX  15074 06609 33/// /3203 11054 21083 37965 48462 53023 333 91105 91203;
0137066090999992010011508004+46550+007017FM-12+197299999V0209999C002619999999N9999999N1-00351-01071999999ADDMA1999999079721MD1219999+9999ME1314659OA149900361REMSYN076AAXX  15084 06609 33/// /0005 11035 21107 37972 48465 52/// 333 91107 91205;
0137066090999992010011509004+46550+007017FM-12+197299999V0200201N002619999999N9999999N1-00271-01111999999ADDMA1999999079801MD1110251+9999ME1314729OA149900411REMSYN076AAXX  15094 06609 33/// /0205 11027 21111 37980 48472 51025 333 91108 91206;
0137066090999992010011510004+46550+007017FM-12+197299999V0200301N001519999999N9999999N1-00291-01051999999ADDMA1999999079871MD1110221+9999ME1314799OA149900411REMSYN076AAXX  15104 06609 33/// /0303 11029 21105 37987 48479 51022 333 91108 91206;
0137066090999992010011511004+46550+007017FM-12+197299999V0200101N002619999999N9999999N1-00211-01011999999ADDMA1999999079901MD1110181+9999ME1314819OA149900411REMSYN076AAXX  15114 06609 33/// /0105 11021 21101 37990 48481 51018 333 91108 91205;
0137066090999992010011512004+46550+007017FM-12+197299999V0200301N002619999999N9999999N1-00311-00931999999ADDMA1999999079931MD1110131+9999ME1314869OA149900721REMSYN076AAXX  15124 06609 33/// /0305 11031 21093 37993 48486 51013 333 91114 91210;
0137066090999992010011513004+46550+007017FM-12+197299999V0200201N002619999999N9999999N1-00261-01041999999ADDMA1999999079971MD1310101+9999ME1314899OA149900461REMSYN076AAXX  15134 06609 33/// /0205 11026 21104 37997 48489 53010 333 91109 91205;
0137066090999992010011514004+46550+007017FM-12+197299999V0200201N002119999999N9999999N1-00321-00981999999ADDMA1999999080011MD1210111+9999ME1314949OA149900511REMSYN076AAXX  15144 06609 33/// /0204 11032 21098 38001 48494 52011 333 91110 91207;
0137066090999992010011515004+46550+007017FM-12+197299999V0200501N005119999999N9999999N1-00341-01041999999ADDMA1999999080051MD1210121+9999ME1314989OA149900621REMSYN076AAXX  15154 06609 33/// /0510 11034 21104 38005 48498 52012 333 91112 91210;
0137066090999992010011516004+46550+007017FM-12+197299999V0200401N005119999999N9999999N1-00421-01161999999ADDMA1999999080061MD1210091+9999ME1315019OA149900621REMSYN076AAXX  15164 06609 33/// /0410 11042 21116 38006 48501 52009 333 91112 91210;
0137066090999992010011517004+46550+007017FM-12+197299999V0200401N005119999999N9999999N1-00491-00851999999ADDMA1999999080091MD1210081+9999ME1315059OA149900721REMSYN076AAXX  15174 06609 33/// /0410 11049 21085 38009 48505 52008 333 91114 91212;
0156066090999992010011518004+46550+007017FM-12+197299999V0200401N005119999999N9999999N1-00451-00881999999ADDKA1120M-00201MA1999999080111MD1210061+9999ME1315069OA149900721REMSYN082AAXX  15184 06609 33/// /0410 11045 21088 38011 48506 52006 333 11020 91114 91212;
0137066090999992010011519004+46550+007017FM-12+197299999V0200501N005119999999N9999999N1-00431-01291999999ADDMA1999999080121MD1210061+9999ME1315079OA149900671REMSYN076AAXX  15194 06609 33/// /0510 11043 21129 38012 48507 52006 333 91113 91211;
0137066090999992010011520004+46550+007017FM-12+197299999V0200501N005719999999N9999999N1-00381-01171999999ADDMA1999999080121MD1010031+9999ME1315069OA149900671REMSYN076AAXX  15204 06609 33/// /0511 11038 21117 38012 48506 50003 333 91113 91211;
0137066090999992010011521004+46550+007017FM-12+197299999V0200401N003619999999N9999999N1-00271-01321999999ADDMA1999999080131MD1210021+9999ME1315059OA149900721REMSYN076AAXX  15214 06609 33/// /0407 11027 21132 38013 48505 52002 333 91114 91212;
0137066090999992010011522004+46550+007017FM-12+197299999V0200301N003119999999N9999999N1-00241-01451999999ADDMA1999999080131MD1010011+9999ME1315049OA149900571REMSYN076AAXX  15224 06609 33/// /0306 11024 21145 38013 48504 50001 333 91111 91210;
0137066090999992010011523004+46550+007017FM-12+197299999V0200401N003619999999N9999999N1-00201-02091999999ADDMA1999999080161MD1310041+9999ME1315079OA149900511REMSYN076AAXX  15234 06609 33/// /0407 11020 21209 38016 48507 53004 333 91110 91209;
0137066090999992010011600004+46550+007017FM-12+197299999V0200301N002619999999N9999999N1-00061-02161999999ADDMA1999999080161MD1210031+9999ME1315049OA149900721REMSYN076AAXX  16004 06609 33/// /0305 11006 21216 38016 48504 52003 333 91114 91212;
0156066090999992010011601004+46550+007017FM-12+197299999V0200601N002119999999N9999999N1-00071-02241999999ADDMA1999999080131MD1410001+9999ME1315019OA149900411REMSYN076AAXX  16014 06609 33/// /0604 11007 21224 38013 48501 58000 333 91108 91207;EQDQ01+000082APCTEN
0137066090999992010011602004+46550+007017FM-12+197299999V0201201N001519999999N9999999N1+00051-02341999999ADDMA1999999080131MD1710031+9999ME1314999OA149900411REMSYN076AAXX  16024 06609 33/// /1203 10005 21234 38013 48499 57003 333 91108 91207;
0137066090999992010011603004+46550+007017FM-12+197299999V0202101N002619999999N9999999N1+00001-02371999999ADDMA1999999080121MD1719999+9999ME1314999OA149900511REMSYN076AAXX  16034 06609 33/// /2105 10000 21237 38012 48499 57/// 333 91110 91209;
0137066090999992010011604004+46550+007017FM-12+197299999V0202201N004119999999N9999999N1+00051-02181999999ADDMA1999999080091MD1710041+9999ME1314959OA149900461REMSYN076AAXX  16044 06609 33/// /2208 10005 21218 38009 48495 57004 333 91109 91208;
0137066090999992010011605004+46550+007017FM-12+197299999V0202401N004619999999N9999999N1+00041-01741999999ADDMA1999999080041MD1710091+9999ME1314909OA149900771REMSYN076AAXX  16054 06609 33/// /2409 10004 21174 38004 48490 57009 333 91115 91209;
0216066090999992010011606004+46550+007017FM-12+197299999V0202401N005719999999N9999999N1+00071-01651999999ADDAA124000091AL19900091GJ104509KA1999N-00451MA1999999080021MD1710101+9999ME1314889OA149900931REMSYN094AAXX  16064 06609 33/// /2411 10007 21165 38002 48488 57010 333 21045 55075 70000 91118 91212;EQDQ01  00002PRCP24
0137066090999992010011607004+46550+007017FM-12+197299999V0203001N004619999999N9999999N1+00171-02061999999ADDMA1999999079991MD1710101+9999ME1314839OA149900981REMSYN076AAXX  16074 06609 33/// /3009 10017 21206 37999 48483 57010 333 91119 91213;
0137066090999992010011608004+46550+007017FM-12+197299999V0203201N004119999999N9999999N1+00241-02281999999ADDMA1999999079981MD1710061+9999ME1314819OA149900981REMSYN076AAXX  16084 06609 33/// /3208 10024 21228 37998 48481 57006 333 91119 91213;
0137066090999992010011609004+46550+007017FM-12+197299999V0202401N006219999999N9999999N1+00331-02551999999ADDMA1999999079951MD1710071+9999ME1314769OA149901031REMSYN076AAXX  16094 06609 33/// /2412 10033 21255 37995 48476 57007 333 91120 91213;
0137066090999992010011610004+46550+007017FM-12+197299999V0202201N007219999999N9999999N1+00411-02941999999ADDMA1999999079981MD1510011+9999ME1314779OA149901031REMSYN076AAXX  16104 06609 33/// /2214 10041 21294 37998 48477 55001 333 91120 91215;
0137066090999992010011611004+46550+007017FM-12+197299999V0202501N004619999999N9999999N1+00471-02791999999ADDMA1999999079971MD1510011+9999ME1314759OA149901031REMSYN076AAXX  16114 06609 33/// /2509 10047 21279 37997 48475 55001 333 91120 91215;
0137066090999992010011612004+46550+007017FM-12+197299999V0203001N006719999999N9999999N1+00291-02331999999ADDMA1999999079911MD1710041+9999ME1314729OA149901341REMSYN076AAXX  16124 06609 33/// /3013 10029 21233 37991 48472 57004 333 91126 91217;
0137066090999992010011613004+46550+007017FM-12+197299999V0202701N005119999999N9999999N1+00271-02251999999ADDMA1999999079871MD1710111+9999ME1314699OA149901341REMSYN076AAXX  16134 06609 33/// /2710 10027 21225 37987 48469 57011 333 91126 91217;
0137066090999992010011614004+46550+007017FM-12+197299999V0202801N006719999999N9999999N1+00281-02041999999ADDMA1999999079761MD1719999+9999ME1314579OA149901801REMSYN076AAXX  16144 06609 33/// /2813 10028 21204 37976 48457 57/// 333 91135 91215;
0137066090999992010011615004+46550+007017FM-12+197299999V0202401N009819999999N9999999N1+00231-01961999999ADDMA1999999079761MD1710151+9999ME1314589OA149901801REMSYN076AAXX  16154 06609 33/// /2419 10023 21196 37976 48458 57015 333 91135 91219;
0137066090999992010011616004+46550+007017FM-12+197299999V0202501N007719999999N9999999N1+00191-01901999999ADDMA1999999079761MD1710111+9999ME1314599OA149901751REMSYN076AAXX  16164 06609 33/// /2515 10019 21190 37976 48459 57011 333 91134 91219;
0137066090999992010011617004+46550+007017FM-12+197299999V0202701N006719999999N9999999N1+00161-01721999999ADDMA1999999079761MD1510001+9999ME1314609OA149901751REMSYN076AAXX  16174 06609 33/// /2713 10016 21172 37976 48460 55000 333 91134 91218;
0156066090999992010011618004+46550+007017FM-12+197299999V0202101N015919999999N9999999N1-00131-00671999999ADDKA1120M+00511MA1999999079651MD1810111+9999ME1314549OA149902471REMSYN082AAXX  16184 06609 33/// /2131 11013 21067 37965 48454 58011 333 10051 91148 91232;
0137066090999992010011619004+46550+007017FM-12+197299999V0202201N015919999999N9999999N1-00231-00381999999ADDMA1999999079611MD1710151+9999ME1314529OA149902471REMSYN076AAXX  16194 06609 33/// /2231 11023 21038 37961 48452 57015 333 91148 91232;
0137066090999992010011620004+46550+007017FM-12+197299999V0202201N012319999999N9999999N1-00211-00231999999ADDMA1999999079621MD1710141+9999ME1314529OA149902471REMSYN076AAXX  16204 06609 33/// /2224 11021 21023 37962 48452 57014 333 91148 91232;
0137066090999992010011621004+46550+007017FM-12+197299999V0202201N013919999999N9999999N1-00211-00251999999ADDMA1999999079531MD1710121+9999ME1314439OA149902521REMSYN076AAXX  16214 06609 33/// /2227 11021 21025 37953 48443 57012 333 91149 91232;
0137066090999992010011622004+46550+007017FM-12+197299999V0202301N014419999999N9999999N1-00061-00171999999ADDMA1999999079541MD1710071+9999ME1314419OA149902571REMSYN076AAXX  16224 06609 33/// /2328 11006 21017 37954 48441 57007 333 91150 91230;
0137066090999992010011623004+46550+007017FM-12+197299999V0203001N009819999999N9999999N1-00191-00191999999ADDMA1999999079601MD1510021+9999ME1314509OA149902831REMSYN076AAXX  16234 06609 33/// /3019 11019 21019 37960 48450 55002 333 91155 91230;
0137066090999992010011700004+46550+007017FM-12+197299999V0203101N012319999999N9999999N1-00221-00221999999ADDMA1999999079631MD1210101+9999ME1314549OA149902831REMSYN076AAXX  17004 06609 33/// /3124 11022 21022 37963 48454 52010 333 91155 91232;
0137066090999992010011701004+46550+007017FM-12+197299999V0202901N009319999999N9999999N1-00241-00241999999ADDMA1999999079711MD1210171+9999ME1314629OA149902521REMSYN076AAXX  17014 06609 33/// /2918 11024 21024 37971 48462 52017 333 91149 91225;
0137066090999992010011702004+46550+007017FM-12+197299999V0202501N010319999999N9999999N1-00201-00201999999ADDMA1999999079681MD1219999+9999ME1314589OA149902521REMSYN076AAXX  17024 06609 33/// /2520 11020 21020 37968 48458 52/// 333 91149 91225;
0096066090999992010011703004+46550+007017FM-12+197299999V0202801N007719999999N9999999N1-00211-00211999999ADDMA1999999079651ME1314569REMSYN060AAXX  17034 06609 43/// /2815 11021 21021 37965 48456 5////;
0137066090999992010011704004+46550+007017FM-12+197299999V0202701N010819999999N9999999N1-00051-00051999999ADDMA1999999079681MD1510031+9999ME1314559OA149902321REMSYN076AAXX  17044 06609 33/// /2721 11005 21005 37968 48455 55003 333 91145 91223;
0137066090999992010011705004+46550+007017FM-12+197299999V0202601N013419999999N9999999N1-00041-00041999999ADDMA1999999079681MD1219999+9999ME1314559OA149902321REMSYN076AAXX  17054 06609 33/// /2626 11004 21004 37968 48455 52/// 333 91145 91227;
0216066090999992010011706004+46550+007017FM-12+197299999V0202701N009319999999N9999999N1-00091-00101999999ADDAA124000091AL19900091GJ101809KA1999N-00261MA1999999079721MD1210071+9999ME1314609OA149902831REMSYN094AAXX  17064 06609 33/// /2718 11009 21010 37972 48460 52007 333 21026 55030 70000 91155 91232;EQDQ01  00002PRCP24
0137066090999992010011707004+46550+007017FM-12+197299999V0202601N009819999999N9999999N1-00151-00151999999ADDMA1999999079791MD1210111+9999ME1314699OA149901961REMSYN076AAXX  17074 06609 33/// /2619 11015 21015 37979 48469 52011 333 91138 91224;
0137066090999992010011708004+46550+007017FM-12+197299999V0202601N009319999999N9999999N1-00241-00241999999ADDMA1999999079871MD1219999+9999ME1314789OA149901961REMSYN076AAXX  17084 06609 33/// /2618 11024 21024 37987 48478 52/// 333 91138 91221;
0137066090999992010011709004+46550+007017FM-12+197299999V0202701N009819999999N9999999N1-00261-00261999999ADDMA1999999079941MD1210221+9999ME1314869OA149902321REMSYN076AAXX  17094 06609 33/// /2719 11026 21026 37994 48486 52022 333 91145 91227;
0154066090999992010011710004+46550+007017FM-12+197299999V0202701N007219999999N9999999N1-00281-00281999999ADDAA101000891MA1999999080041MD1210251+9999ME1314969OA149901801REMSYN082AAXX  17104 06609 23/// /2714 11028 21028 38004 48496 52025 333 69985 91135 91221;
0154066090999992010011711004+46550+007017FM-12+197299999V0202601N008219999999N9999999N1-00501-00811999999ADDAA101000021MA1999999080051MD1210181+9999ME1315019OA149901651REMSYN082AAXX  17114 06609 23/// /2616 11050 21081 38005 48501 52018 333 69925 91132 91221;
0160066090999992010011712004+46550+007017FM-12+197299999V0202601N008719999999N9999999N1-00471-00471999999ADDAA106001091MA1999999080071MD1210131+9999ME1315039OA149902521REMSYN088AAXX  17124 06609 03/// /2617 11047 21047 38007 48503 52013 60011 333 60005 91149 91227;
0137066090999992010011713004+46550+007017FM-12+197299999V0202601N008219999999N9999999N1-00401-00761999999ADDMA1999999080091MD1210051+9999ME1315039OA149901491REMSYN076AAXX  17134 06609 33/// /2616 11040 21076 38009 48503 52005 333 91129 91218;
0137066090999992010011714004+46550+007017FM-12+197299999V0202701N006219999999N9999999N1-00491-00811999999ADDMA1999999080131MD1219999+9999ME1315099OA149901441REMSYN076AAXX  17144 06609 33/// /2712 11049 21081 38013 48509 52/// 333 91128 91218;
0137066090999992010011715004+46550+007017FM-12+197299999V0202701N005719999999N9999999N1-00321-00371999999ADDMA1999999080191MD1210121+9999ME1315129OA149901651REMSYN076AAXX  17154 06609 33/// /2711 11032 21037 38019 48512 52012 333 91132 91221;
0137066090999992010011716004+46550+007017FM-12+197299999V0202601N004619999999N9999999N1-00571-01051999999ADDMA1999999080251MD1310161+9999ME1315229OA149901081REMSYN076AAXX  17164 06609 33/// /2609 11057 21105 38025 48522 53016 333 91121 91213;
0137066090999992010011717004+46550+007017FM-12+197299999V0202601N004619999999N9999999N1-00431-00471999999ADDMA1999999080271MD1210141+9999ME1315229OA149901031REMSYN076AAXX  17174 06609 33/// /2609 11043 21047 38027 48522 52014 333 91120 91211;
