0138066099999992010010408504+47400+008650AUTO +0448LSMD V0209999C000012200019N0112651N1-00801-01001999999ADDGA1021+027001999GF102991999999999999999999MA1101391999999REMMET069METAR LSMD 040850Z AUTO 00000KT 9999NDV FEW090 M08/M10 Q1014 RMK BLU;
0119066099999992010010409504+47400+008650AUTO +0448LSMD V0209999V000512200019N0112651N1-00801-01001999999ADDGF100991999999999999999999MA1101391999999REMMET066METAR LSMD 040950Z AUTO VRB01KT 9999NDV NCD M08/M10 Q1014 RMK BLU;
0127066099999992010010410504+47400+008650AUTO +0448LSMD V0202901N002112200019N0112651N1-00601-00801999999ADDGF100991999999999999999999MA1101391999999REMMET074METAR LSMD 041050Z AUTO 29004KT 270V330 9999NDV NCD M06/M08 Q1014 RMK BLU;
0090066099999992010010411504+47400+008650FM-15+0448LSMD V0202601N001519999999Y0099001N1-00401-00701999999ADDMA1101191999999REMMET063METAR LSMD 041150Z 26003KT 230V290 CAVOK M04/M07 Q1012 RMK BLU;
0082066099999992010010413504+47400+008650FM-15+0448LSMD V0209999V000519999999Y0099001N1-00201-00701999999ADDMA1101081999999REMMET055METAR LSMD 041350Z VRB01KT CAVOK M02/M07 Q1011 RMK BLU;
0082066099999992010010415504+47400+008650FM-15+0448LSMD V0209999C000019999999Y0099001N1-00301-00701999999ADDMA1101081999999REMMET055METAR LSMD 041550Z 00000KT CAVOK M03/M07 Q1011 RMK BLU;
0119066099999992010010417504+47400+008650AUTO +0448LSMD V0209999C000012200019N0112651N1-00601-00701999999ADDGF100991999999999999999999MA1101081999999REMMET066METAR LSMD 041750Z AUTO 00000KT 9999NDV NCD M06/M07 Q1011 RMK BLU;
0119066099999992010010418504+47400+008650AUTO +0448LSMD V0209999C000012200019N0080001N1-00701-00801999999ADDGF100991999999999999999999MA1101081999999REMMET066METAR LSMD 041850Z AUTO 00000KT 8000NDV NCD M07/M08 Q1011 RMK BLU;
0138066099999992010010419504+47400+008650AUTO +0448LSMD V0209999C000010240019N0070001N1-00701-00801999999ADDGA1071+024001999GF107991999999999999999999MA1101081999999REMMET069METAR LSMD 041950Z AUTO 00000KT 7000NDV BKN085 M07/M08 Q1011 RMK GRN;
0138066099999992010010420504+47400+008650AUTO +0448LSMD V0209999V000510210019N0070001N1-00701-00801999999ADDGA1071+021001999GF107991999999999999999999MA1101081999999REMMET069METAR LSMD 042050Z AUTO VRB01KT 7000NDV BKN078 M07/M08 Q1011 RMK GRN;
0138066099999992010010421504+47400+008650AUTO +0448LSMD V0209999V000512200019N0060001N1-00801-00901999999ADDGA1021+021001999GF102991999999999999999999MA1101021999999REMMET069METAR LSMD 042150Z AUTO VRB01KT 6000NDV FEW072 M08/M09 Q1010 RMK GRN;
0138066099999992010010422504+47400+008650AUTO +0448LSMD V0209999V001010210019N0060001N1-00701-00801999999ADDGA1081+021001999GF108991999999999999999999MA1101021999999REMMET069METAR LSMD 042250Z AUTO VRB02KT 6000NDV OVC072 M07/M08 Q1010 RMK GRN;
0161066099999992010010423504+47400+008650AUTO +0448LSMD V0209999C000010270019N0060001N1-00701-00901999999ADDGA1021+018001999GA2071+027001999GF107991999999999999999999MA1101021999999REMMET076METAR LSMD 042350Z AUTO 00000KT 6000NDV FEW069 BKN094 M07/M09 Q1010 RMK GRN;
0161066099999992010010501504+47400+008650AUTO +0448LSMD V0203101N001010210019N0060001N1-00701-00801999999ADDGA1041+012901999GA2081+021001999GF108991999999999999999999MA1100911999999REMMET076METAR LSMD 050150Z AUTO 31002KT 6000NDV SCT043 OVC070 M07/M08 Q1009 RMK GRN;
0192066099999992010010502504+47400+008650AUTO +0448LSMD V0202901N001510180019N0060001N1-00701-00801999999ADDGA1041+010801999GA2071+018001999GA3081+024001999GF108991999999999999999999MA1100811999999REMMET091METAR LSMD 050250Z AUTO 29003KT 260V330 6000NDV SCT036 BKN065 OVC083 M07/M08 Q1008 RMK GRN;
0184066099999992010010503504+47400+008650AUTO +0448LSMD V0209999V00101018001CN0070001N1-00601-00801999999ADDGA1021+010201999GA2041+018001999GA3081+024001999GF108991999999999999999999MA1100711999999REMMET083METAR LSMD 050350Z AUTO VRB02KT 7000NDV FEW034 SCT064 OVC081 M06/M08 Q1007 RMK GRN;
0171066099999992010010504504+47400+008650AUTO +0448LSMD V0202901N002110180019N0060001N1-00601-00801999999ADDAW1711GA1071+018001999GA2081+024001999GF108991999999999999999999MA1100711999999REMMET080METAR LSMD 050450Z AUTO 29004KT 6000NDV -SN BKN061 OVC088 M06/M08 Q1007 RMK GRN;
0184066099999992010010505504+47400+008650FM-15+0448LSMD V0203301N002110150019N0060001N1-00601-00801999999ADDGA1021+002401999GA2071+015001999GA3081+024001999GF108991999999999999999999MA1100611999999REMMET083METAR LSMD 050550Z 33004KT 290V350 6000 FEW008 BKN058 OVC082 M06/M08 Q1006 RMK GRN;
0184066099999992010010506504+47400+008650FM-15+0448LSMD V0203001N00151008701CN0060001N1-00601-00801999999ADDGA1021+004201999GA2041+008701999GA3081+021001999GF108991999999999999999999MA1100611999999REMMET083METAR LSMD 050650Z 30003KT 280V340 6000 FEW014 SCT029 OVC077 M06/M08 Q1006 RMK GRN;
0176066099999992010010507504+47400+008650FM-15+0448LSMD V0209999C00001018001CN0070001N1-00601-00801999999ADDGA1021+002701999GA2041+018001999GA3081+027001999GF108991999999999999999999MA1100511999999REMMET075METAR LSMD 050750Z 00000KT 7000 FEW009 SCT065 OVC093 M06/M08 Q1005 RMK GRN;
0182066099999992010010508504+47400+008650FM-15+0448LSMD V0209999V001010084019N0060001N1-00601-00701999999ADDGA1041+002701999GA2071+008401999GA3081+024001999GF108991999999999999999999MA1100511999999REMMET081METAR LSMD 050850Z VRB02KT 6000 -SHSN SCT009 BKN028 OVC086 M06/M07 Q1005 RMK GRN;
0159066099999992010010509504+47400+008650FM-15+0448LSMD V0209999V000510045019N0060001N1-00501-00701999999ADDGA1021+002701999GA2081+004501999GF108991999999999999999999MA1100511999999REMMET074METAR LSMD 050950Z VRB01KT 6000 -SHSN FEW009 OVC015 M05/M07 Q1005 RMK GRN;
0163066099999992010010510504+47400+008650FM-15+0448LSMD V0209999V001010042019N0044001N1-00401-00601999999ADDGA1021+003301999GA2081+004201999GF108991999999999999999999MA1100411999999MW1711REMMET072METAR LSMD 051050Z VRB02KT 4400 -SN FEW011 OVC014 M04/M06 Q1004 RMK GRN;
0130066099999992010010511504+47400+008650FM-15+0448LSMD V0209999V001010039019N0060001N1-00401-00701999999ADDGA1081+003901999GF108991999999999999999999MA1100311999999REMMET061METAR LSMD 051150Z VRB02KT 6000 OVC013 M04/M07 Q1003 RMK GRN;
0194066099999992010010512504+47400+008650FM-15+0448LSMD V0200301N001510042019N0024001N1-00401-00601999999ADDGA1041+003301999GA2071+004201999GA3081+007801999GF108991999999999999999999MA1100201999999MW1711REMMET087METAR LSMD 051250Z 03003KT 320V090 2400 -SN SCT011 BKN014 OVC026 M04/M06 Q1002 RMK YLO;
0195066099999992010010513504+47400+008650FM-15+0448LSMD V0209999V001010045019N0033001N1-00401-00601999999ADDGA1021+002701999GA2071+004501999GA3081+014701999GF108991999999999999999999MA1100201999999MW1101MW2711REMMET082METAR LSMD 051350Z VRB02KT 3300 -SN BR FEW009 BKN015 OVC049 M04/M06 Q1002 RMK GRN;
0159066099999992010010514504+47400+008650FM-15+0448LSMD V0209999V000510138019N0060001N1-00401-00601999999ADDGA1021+004801999GA2081+013801999GF108991999999999999999999MA1100201999999REMMET074METAR LSMD 051450Z VRB01KT 6000 -SHSN FEW016 OVC046 M04/M06 Q1002 RMK GRN;
0173066099999992010010516504+47400+008650AUTO +0448LSMD V0209999V001010240019N0060001N1-00401-00601999999ADDAW1851GA1041+013801999GA2081+024001999GF108991999999999999999999MA1100101999999REMMET082METAR LSMD 051650Z AUTO VRB02KT 6000NDV -SHSN SCT046 OVC087 M04/M06 Q1001 RMK GRN;
0173066099999992010010517504+47400+008650AUTO +0448LSMD V0209999V001010270019N0060001N1-00401-00601999999ADDAW1851GA1021+004501999GA2081+027001999GF108991999999999999999999MA1100101999999REMMET082METAR LSMD 051750Z AUTO VRB02KT 6000NDV -SHSN FEW015 OVC091 M04/M06 Q1001 RMK GRN;
0203066099999992010010519504+47400+008650AUTO +0448LSMD V0202801N001510042019N0046001N1-00501-00601999999ADDAW1101AW2711GA1021+002101999GA2071+004201999GA3081+005101999GF108991999999999999999999MA1100001999999REMMET090METAR LSMD 051950Z AUTO 28003KT 4600NDV -SN BR FEW007 BKN014 OVC017 M05/M06 Q1000 RMK GRN;
0169066099999992010010520504+47400+008650AUTO +0448LSMD V0203201N001510048019N0060001N1-00401-00601999999ADDGA1041+004201999GA2081+004801999GF108991999999999999999999MA1100001999999REMMET084METAR LSMD 052050Z AUTO 32003KT 290V350 6000NDV SCT014 OVC016 M04/M06 Q1000 RMK GRN;
0138066099999992010010521504+47400+008650AUTO +0448LSMD V0209999V001010042019N0060001N1-00401-00601999999ADDGA1081+004201999GF108991999999999999999999MA1100001999999REMMET069METAR LSMD 052150Z AUTO VRB02KT 6000NDV OVC014 M04/M06 Q1000 RMK GRN;
0182066099999992010010523504+47400+008650AUTO +0448LSMD V0209999V001010036019N0050001N1-00401-00601999999ADDAW1101AW2851GA1041+003001999GA2081+003601999GF108991999999999999999999MA1099901999999REMMET085METAR LSMD 052350Z AUTO VRB02KT 5000NDV -SHSN BR SCT010 OVC012 M04/M06 Q0999 RMK GRN;
0147066099999992010010600504+47400+008650AUTO +0448LSMD V0209999V000510036019N0050001N1-00401-00601999999ADDAW1101GA1081+003601999GF108991999999999999999999MA1099901999999REMMET072METAR LSMD 060050Z AUTO VRB01KT 5000NDV BR OVC012 M04/M06 Q0999 RMK GRN;
0170066099999992010010601504+47400+008650AUTO +0448LSMD V0209999V000510033019N0050001N1-00401-00601999999ADDAW1101GA1071+003301999GA2081+009601999GF108991999999999999999999MA1099901999999REMMET079METAR LSMD 060150Z AUTO VRB01KT 5000NDV BR BKN011 OVC032 M04/M06 Q0999 RMK GRN;
0188066099999992010010602504+47400+008650AUTO +0448LSMD V0203301N001510033019N0050001N1-00401-00601999999ADDAW1101AW2711GA1071+003301999GA2081+009301999GF108991999999999999999999MA1099901999999REMMET091METAR LSMD 060250Z AUTO 33003KT 290V010 5000NDV -SN BR BKN011 OVC031 M04/M06 Q0999 RMK GRN;
0180066099999992010010603504+47400+008650AUTO +0448LSMD V0209999C000010090019N0047001N1-00401-00601999999ADDAW1101AW2711GA1071+009001999GA2081+010201999GF108991999999999999999999MA1099901999999REMMET083METAR LSMD 060350Z AUTO 00000KT 4700NDV -SN BR BKN030 OVC034 M04/M06 Q0999 RMK GRN;
0180066099999992010010604504+47400+008650AUTO +0448LSMD V0209999C000010069019N0044001N1-00401-00601999999ADDAW1101AW2711GA1071+006901999GA2081+008101999GF108991999999999999999999MA1099901999999REMMET083METAR LSMD 060450Z AUTO 00000KT 4400NDV -SN BR BKN023 OVC027 M04/M06 Q0999 RMK GRN;
0195066099999992010010605504+47400+008650FM-15+0448LSMD V0209999V001010063019N0043001N1-00401-00601999999ADDGA1021+004501999GA2071+006301999GA3081+011401999GF108991999999999999999999MA1099901999999MW1101MW2711REMMET082METAR LSMD 060550Z VRB02KT 4300 -SN BR FEW015 BKN021 OVC038 M04/M06 Q0999 RMK GRN;
0191066099999992010010606504+47400+008650FM-15+0448LSMD V0209999V001010069019N0047001N1-00401-00501999999ADDGA1071+006901999GA2071+008701999GA3081+013801999GF108991999999999999999999MA1100001999999MW1101REMMET084METAR LSMD 060650Z VRB02KT 4700 -SHSN BR BKN023 BKN029 OVC046 M04/M05 Q1000 RMK GRN;
0153066099999992010010607504+47400+008650FM-15+0448LSMD V0209999V001010042019N0050001N1-00301-00501999999ADDGA1071+004201999GA2081+008401999GF108991999999999999999999MA1100001999999REMMET068METAR LSMD 060750Z VRB02KT 5000 BKN014 OVC028 M03/M05 Q1000 RMK GRN;
0176066099999992010010608504+47400+008650FM-15+0448LSMD V0203001N003110045019N0050001N1-00301-00501999999ADDGA1021+003901999GA2071+004501999GA3081+005701999GF108991999999999999999999MA1100101999999REMMET075METAR LSMD 060850Z 30006KT 5000 FEW013 BKN015 OVC019 M03/M05 Q1001 RMK GRN;
0190066099999992010010610504+47400+008650FM-15+0448LSMD V0209999V000510045019N0050001N1-00201-00501999999ADDGA1071+004501999GA2071+006901999GA3081+008101999GF108991999999999999999999MA1100101999999MW1831REMMET083METAR LSMD 061050Z VRB01KT 5000 -SHRASN BKN015 BKN023 OVC027 M02/M05 Q1001 RMK GRN;
0153066099999992010010611504+47400+008650FM-15+0448LSMD V0209999C000010042019N0060001N1-00201-00501999999ADDGA1071+004201999GA2081+006301999GF108991999999999999999999MA1100001999999REMMET068METAR LSMD 061150Z 00000KT 6000 BKN014 OVC021 M02/M05 Q1000 RMK GRN;
0176066099999992010010612504+47400+008650FM-15+0448LSMD V0209999V00101004801CN0060001N1-00201-00501999999ADDGA1021+004201999GA2041+004801999GA3081+006001999GF108991999999999999999999MA1100101999999REMMET075METAR LSMD 061250Z VRB02KT 6000 FEW014 SCT016 OVC020 M02/M05 Q1001 RMK GRN;
0153066099999992010010613504+47400+008650FM-15+0448LSMD V0209999C000010060019N0060001N1-00201-00501999999ADDGA1071+006001999GA2081+008101999GF108991999999999999999999MA1100101999999REMMET068METAR LSMD 061350Z 00000KT 6000 BKN020 OVC027 M02/M05 Q1001 RMK GRN;
0176066099999992010010614504+47400+008650FM-15+0448LSMD V0209999C000010054019N0060001N1-00201-00501999999ADDGA1021+004501999GA2071+005401999GA3081+006601999GF108991999999999999999999MA1100101999999REMMET075METAR LSMD 061450Z 00000KT 6000 FEW015 BKN018 OVC022 M02/M05 Q1001 RMK GRN;
0161066099999992010010615504+47400+008650AUTO +0448LSMD V0209999C000010063019N0060001N1-00201-00401999999ADDGA1041+005101999GA2081+006301999GF108991999999999999999999MA1100101999999REMMET076METAR LSMD 061550Z AUTO 00000KT 6000NDV SCT017 OVC021 M02/M04 Q1001 RMK GRN;
0184066099999992010010616504+47400+008650AUTO +0448LSMD V0209999C000010051019N0060001N1-00201-00401999999ADDGA1071+005101999GA2071+006301999GA3081+011101999GF108991999999999999999999MA1100201999999REMMET083METAR LSMD 061650Z AUTO 00000KT 6000NDV BKN017 BKN021 OVC037 M02/M04 Q1002 RMK GRN;
0193066099999992010010618504+47400+008650AUTO +0448LSMD V0209999C000010126019N0043001N1-00301-00501999999ADDAW1101GA1041+006001999GA2071+012601999GA3071+048001999GF107991999999999999999999MA1100311999999REMMET086METAR LSMD 061850Z AUTO 00000KT 4300NDV BR SCT020 BKN042 BKN160 M03/M05 Q1003 RMK GRN;
0170066099999992010010619504+47400+008650AUTO +0448LSMD V0209999C000010120019N0047001N1-00401-00501999999ADDAW1101GA1021+003001999GA2081+012001999GF108991999999999999999999MA1100311999999REMMET079METAR LSMD 061950Z AUTO 00000KT 4700NDV BR FEW010 OVC040 M04/M05 Q1003 RMK GRN;
0147066099999992010010620504+47400+008650AUTO +0448LSMD V0200901N001010360019N0043001N1-00501-00601999999ADDAW1101GA1081+036001999GF108991999999999999999999MA1100311999999REMMET072METAR LSMD 062050Z AUTO 09002KT 4300NDV BR OVC120 M05/M06 Q1003 RMK GRN;
0193066099999992010010622504+47400+008650AUTO +0448LSMD V0209999C000010150019N0050001N1-00401-00501999999ADDAW1101GA1021+003001999GA2071+015001999GA3081+018001999GF108991999999999999999999MA1100411999999REMMET086METAR LSMD 062250Z AUTO 00000KT 5000NDV BR FEW010 BKN054 OVC062 M04/M05 Q1004 RMK GRN;
0193066099999992010010623504+47400+008650AUTO +0448LSMD V0201101N001010150019N0046001N1-00401-00501999999ADDAW1101GA1021+003901999GA2071+015001999GA3081+027001999GF108991999999999999999999MA1100411999999REMMET086METAR LSMD 062350Z AUTO 11002KT 4600NDV BR FEW013 BKN059 OVC096 M04/M05 Q1004 RMK GRN;
0180066099999992010010701504+47400+008650AUTO +0448LSMD V0209999C000010090019N0035001N1-00301-00401999999ADDAW1101AW2711GA1021+003001999GA2081+009001999GF108991999999999999999999MA1100511999999REMMET083METAR LSMD 070150Z AUTO 00000KT 3500NDV -SN BR FEW010 OVC030 M03/M04 Q1005 RMK GRN;
0193066099999992010010703504+47400+008650AUTO +0448LSMD V0200901N001510090019N0036001N1-00501-00501999999ADDAW1101GA1021+004801999GA2071+009001999GA3071+010201999GF107991999999999999999999MA1100511999999REMMET086METAR LSMD 070350Z AUTO 09003KT 3600NDV BR FEW016 BKN030 BKN034 M05/M05 Q1005 RMK GRN;
0170066099999992010010704504+47400+008650AUTO +0448LSMD V0209999C000010057019N0031001N1-00501-00601999999ADDAW1101GA1021+000601999GA2071+005701999GF107991999999999999999999MA1100511999999REMMET079METAR LSMD 070450Z AUTO 00000KT 3100NDV BR FEW002 BKN019 M05/M06 Q1005 RMK GRN;
0185066099999992010010706504+47400+008650FM-15+0448LSMD V0201101N00211009001CN0041001N1-00601-00701999999ADDGA1041+000601999GA2041+009001999GA3071+012301999GF107991999999999999999999MA1100511999999MW1101REMMET078METAR LSMD 070650Z 11004KT 4100 BR SCT002 SCT030 BKN041 M06/M07 Q1005 RMK GRN;
0157066099999992010010707504+47400+008650FM-15+0448LSMD V0201001N002610003019N0002001N1-00601-00701999999ADDGA1081+000301999GF108991999999999999999999MA1100611999999MW1441REMMET082METAR LSMD 070750Z 10005KT 0200 R11///// R29///// FG OVC001 M06/M07 Q1006 RMK YLO;
0159066099999992010010708504+47400+008650FM-15+0448LSMD V0209999C000012200019N0030001N1-00501-00601999999ADDED199U20009GF100991999999999999999999MA1100611999999MW1101REMMET089METAR LSMD 070850Z 00000KT 3000 1000S R11/P2000D R29/P2000U BR NSC M05/M06 Q1006 RMK YLO;
0139066099999992010010709504+47400+008650FM-15+0448LSMD V0202801N002112200019N0033001N1-00301-00401999999ADDGA1021+024001999GF102991999999999999999999MA1100711999999MW1101REMMET064METAR LSMD 070950Z 28004KT 3300 BR FEW085 M03/M04 Q1007 RMK GRN;
0153066099999992010010710504+47400+008650FM-15+0448LSMD V0209999C000010330019N0060001N1+00001-00401999999ADDGA1021+024001999GA2071+033001999GF107991999999999999999999MA1100711999999REMMET068METAR LSMD 071050Z 00000KT 6000 FEW089 BKN110 M00/M04 Q1007 RMK GRN;
0110066099999992010010711504+47400+008650FM-15+0448LSMD V0209999C000012200019N0070001N1+00101-00401999999ADDGF100991999999999999999999MA1100711999999REMMET057METAR LSMD 071150Z 00000KT 7000 NSC 01/M04 Q1007 RMK GRN;
0110066099999992010010712504+47400+008650FM-15+0448LSMD V0209999V001012200019N0080001N1+00001-00401999999ADDGF100991999999999999999999MA1100711999999REMMET057METAR LSMD 071250Z VRB02KT 8000 NSC 00/M04 Q1007 RMK BLU;
0129066099999992010010714504+47400+008650FM-15+0448LSMD V0209999C000012200019N0080001N1+00001-00401999999ADDGA1021+024001999GF102991999999999999999999MA1100711999999REMMET060METAR LSMD 071450Z 00000KT 8000 FEW089 00/M04 Q1007 RMK BLU;
0138066099999992010010717504+47400+008650AUTO +0448LSMD V0201001N001010300019N0070001N1-00201-00401999999ADDGA1081+030001999GF108991999999999999999999MA1100811999999REMMET069METAR LSMD 071750Z AUTO 10002KT 7000NDV OVC100 M02/M04 Q1008 RMK GRN;
0161066099999992010010718504+47400+008650AUTO +0448LSMD V0201101N001010300019N0060001N1-00201-00401999999ADDGA1021+024001999GA2071+030001999GF107991999999999999999999MA1100911999999REMMET076METAR LSMD 071850Z AUTO 11002KT 6000NDV FEW086 BKN100 M02/M04 Q1009 RMK GRN;
0138066099999992010010719504+47400+008650AUTO +0448LSMD V0201101N001012200019N0050001N1-00301-00401999999ADDGA1041+027001999GF104991999999999999999999MA1100911999999REMMET069METAR LSMD 071950Z AUTO 11002KT 5000NDV SCT094 M03/M04 Q1009 RMK GRN;
0170066099999992010010720504+47400+008650AUTO +0448LSMD V0209999C000010330019N0050001N1-00301-00401999999ADDAW1101GA1071+033001999GA2071+039001999GF107991999999999999999999MA1100911999999REMMET079METAR LSMD 072050Z AUTO 00000KT 5000NDV BR BKN110 BKN130 M03/M04 Q1009 RMK GRN;
0147066099999992010010722504+47400+008650AUTO +0448LSMD V0209999C000010270019N0050001N1-00301-00401999999ADDAW1101GA1081+027001999GF108991999999999999999999MA1100911999999REMMET072METAR LSMD 072250Z AUTO 00000KT 5000NDV BR OVC091 M03/M04 Q1009 RMK GRN;
0138066099999992010010723504+47400+008650AUTO +0448LSMD V0209999V001010240019N0060001N1-00201-00401999999ADDGA1081+024001999GF108991999999999999999999MA1100811999999REMMET069METAR LSMD 072350Z AUTO VRB02KT 6000NDV OVC087 M02/M04 Q1008 RMK GRN;
0184066099999992010010800504+47400+008650AUTO +0448LSMD V0209999V000510210019N0070001N1-00201-00401999999ADDGA1021+003901999GA2071+021001999GA3081+024001999GF108991999999999999999999MA1100811999999REMMET083METAR LSMD 080050Z AUTO VRB01KT 7000NDV FEW013 BKN075 OVC089 M02/M04 Q1008 RMK GRN;
0138066099999992010010801504+47400+008650AUTO +0448LSMD V0209999V000510180019N0060001N1-00201-00401999999ADDGA1081+018001999GF108991999999999999999999MA1100811999999REMMET069METAR LSMD 080150Z AUTO VRB01KT 6000NDV OVC060 M02/M04 Q1008 RMK GRN;
0203066099999992010010803504+47400+008650AUTO +0448LSMD V0209999V001010150019N0049001N1-00201-00301999999ADDAW1101AW2711GA1041+002701999GA2041+015001999GA3081+015001999GF108991999999999999999999MA1100811999999REMMET090METAR LSMD 080350Z AUTO VRB02KT 4900NDV -SN BR SCT009 SCT051 OVC059 M02/M03 Q1008 RMK GRN;
0203066099999992010010804504+47400+008650AUTO +0448LSMD V0209999V00101003601CN0045001N1-00201-00401999999ADDAW1101AW2711GA1021+002401999GA2041+003601999GA3071+004201999GF107991999999999999999999MA1100711999999REMMET090METAR LSMD 080450Z AUTO VRB02KT 4500NDV -SN BR FEW008 SCT012 BKN014 M02/M04 Q1007 RMK GRN;
0162066099999992010010805504+47400+008650FM-15+0448LSMD V0209999V001010036019N0050001N1-00201-00401999999ADDGA1021+002701999GA2081+003601999GF108991999999999999999999MA1100611999999MW1101REMMET071METAR LSMD 080550Z VRB02KT 5000 BR FEW009 OVC012 M02/M04 Q1006 RMK GRN;
0176066099999992010010806504+47400+008650FM-15+0448LSMD V0200501N001510033019N0050001N1-00201-00401999999ADDGA1041+002701999GA2081+003301999GF108991999999999999999999MA1100611999999MW1101REMMET085METAR LSMD 080650Z 05003KT 330V120 5000 -SHSN BR SCT009 OVC011 M02/M04 Q1006 RMK GRN;
0161066099999992010010807504+47400+008650FM-15+0448LSMD V0200701N005110042019N0050001N1-00201-00401999999ADDGA1041+003301999GA2081+004201999GF108991999999999999999999MA1100611999999REMMET076METAR LSMD 080750Z 07010KT 020V120 5000 SCT011 OVC014 M02/M04 Q1006 RMK GRN;
0138066099999992010010809504+47400+008650FM-15+0448LSMD V0200801N003110048019N0070001N1-00201-00501999999ADDGA1081+004801999GF108991999999999999999999MA1100511999999REMMET069METAR LSMD 080950Z 08006KT 030V140 7000 OVC016 M02/M05 Q1005 RMK GRN;
0138066099999992010010810504+47400+008650FM-15+0448LSMD V0200801N004110048019N0080001N1-00201-00501999999ADDGA1081+004801999GF108991999999999999999999MA1100411999999REMMET069METAR LSMD 081050Z 08008KT 010V120 8000 OVC016 M02/M05 Q1004 RMK GRN;
0149066099999992010010811504+47400+008650FM-15+0448LSMD V0200701N005110045019N0070001N1-00201-00501999999ADDGA1081+004501999GF108991999999999999999999MA1100311999999OC101131REMMET072METAR LSMD 081150Z 07010G22KT 030V110 7000 OVC015 M02/M05 Q1003 RMK GRN;
0138066099999992010010812504+47400+008650FM-15+0448LSMD V0200701N004110042019N0060001N1-00201-00501999999ADDGA1081+004201999GF108991999999999999999999MA1100311999999REMMET069METAR LSMD 081250Z 07008KT 030V110 6000 OVC014 M02/M05 Q1003 RMK GRN;
0149066099999992010010813504+47400+008650FM-15+0448LSMD V0200701N005110039019N0060001N1-00201-00401999999ADDGA1081+003901999GF108991999999999999999999MA1100311999999OC101131REMMET072METAR LSMD 081350Z 07010G22KT 340V120 6000 OVC013 M02/M04 Q1003 RMK GRN;
0146066099999992010010814504+47400+008650AUTO +0448LSMD V0200801N004110036019N0060001N1-00201-00501999999ADDGA1081+003601999GF108991999999999999999999MA1100311999999REMMET077METAR LSMD 081450Z AUTO 08008KT 010V100 6000NDV OVC012 M02/M05 Q1003 RMK GRN;
0146066099999992010010815504+47400+008650AUTO +0448LSMD V0200701N003110039019N0060001N1-00201-00401999999ADDGA1081+003901999GF108991999999999999999999MA1100311999999REMMET077METAR LSMD 081550Z AUTO 07006KT 020V130 6000NDV OVC013 M02/M04 Q1003 RMK GRN;
0146066099999992010010816504+47400+008650AUTO +0448LSMD V0200601N002110039019N0070001N1-00201-00401999999ADDGA1081+003901999GF108991999999999999999999MA1100311999999REMMET077METAR LSMD 081650Z AUTO 06004KT 340V110 7000NDV OVC013 M02/M04 Q1003 RMK GRN;
0146066099999992010010817504+47400+008650AUTO +0448LSMD V0200601N002110033019N0070001N1-00201-00401999999ADDGA1081+003301999GF108991999999999999999999MA1100411999999REMMET077METAR LSMD 081750Z AUTO 06004KT 330V110 7000NDV OVC011 M02/M04 Q1004 RMK GRN;
0156066099999992010010818504+47400+008650AUTO +0448LSMD V0200701N002610036019N0060001N1-00201-00401999999ADDAW1711GA1081+003601999GF108991999999999999999999MA1100411999999REMMET081METAR LSMD 081850Z AUTO 07005KT 010V110 6000NDV -SN OVC012 M02/M04 Q1004 RMK GRN;
0211066099999992010010819504+47400+008650AUTO +0448LSMD V0200601N002610039019N0033001N1-00301-00401999999ADDAW1101AW2711GA1021+003001999GA2071+003901999GA3081+005701999GF108991999999999999999999MA1100411999999REMMET098METAR LSMD 081950Z AUTO 06005KT 010V110 3300NDV -SN BR FEW010 BKN013 OVC019 M03/M04 Q1004 RMK GRN;
0213066099999992010010820504+47400+008650AUTO +0448LSMD V0200501N00151003001CN0048001N1-00301-00401999999ADDAW1101AW2851GA1021+002401999GA2041+003001999GA3081+003601999GF108991999999999999999999MA1100411999999REMMET100METAR LSMD 082050Z AUTO 05003KT 330V100 4800NDV -SHSN BR FEW008 SCT010 OVC012 M03/M04 Q1004 RMK GRN;
0178066099999992010010821504+47400+008650AUTO +0448LSMD V0200501N002610036019N0050001N1-00301-00401999999ADDAW1101GA1041+003001999GA2081+003601999GF108991999999999999999999MA1100411999999REMMET087METAR LSMD 082150Z AUTO 05005KT 330V110 5000NDV BR SCT010 OVC012 M03/M04 Q1004 RMK GRN;
0180066099999992010011000504+47400+008650AUTO +0448LSMD V0203101N001510066019N0050001N1-00501-00601999999ADDAW1101AW2711GA1071+006601999GA2081+012901999GF108991999999999999999999MA1100511999999REMMET083METAR LSMD 100050Z AUTO 31003KT 5000NDV -SN BR BKN022 OVC043 M05/M06 Q1005 RMK GRN;
0138066099999992010011111504+47400+008650FM-15+0448LSMD V0203001N001510054019N0070001N1-00201-00601999999ADDGA1081+005401999GF108991999999999999999999MA1101391999999REMMET069METAR LSMD 111150Z 30003KT 260V340 7000 OVC018 M02/M06 Q1014 RMK GRN;
0130066099999992010011112504+47400+008650FM-15+0448LSMD V0202901N002110057019N0070001N1-00301-00601999999ADDGA1081+005701999GF108991999999999999999999MA1101391999999REMMET061METAR LSMD 111250Z 29004KT 7000 OVC019 M03/M06 Q1014 RMK GRN;
0138066099999992010011113504+47400+008650FM-15+0448LSMD V0202501N001510057019N0060001N1-00201-00601999999ADDGA1081+005701999GF108991999999999999999999MA1101391999999REMMET069METAR LSMD 111350Z 25003KT 200V280 6000 OVC019 M02/M06 Q1014 RMK GRN;
0144066099999992010011114504+47400+008650FM-15+0448LSMD V0202501N001510057019N0050001N1-00301-00601999999ADDGA1081+005701999GF108991999999999999999999MA1101391999999REMMET075METAR LSMD 111450Z 25003KT 200V290 5000 -SHSN OVC019 M03/M06 Q1014 RMK GRN;
0203066099999992010011115504+47400+008650AUTO +0448LSMD V0209999V00051003601CN0019001N1-00401-00501999999ADDAW1101AW2711GA1021+002401999GA2041+003601999GA3081+004501999GF108991999999999999999999MA1101491999999REMMET090METAR LSMD 111550Z AUTO VRB01KT 1900NDV -SN BR FEW008 SCT012 OVC015 M04/M05 Q1015 RMK AMB;
0202066099999992010011116504+47400+008650AUTO +0448LSMD V0209999C000010033019N0024001N1-00401-00501999999ADDAW1101AW2721GA1021+001801999GA2071+003301999GA3071+004801999GF107991999999999999999999MA1101491999999REMMET089METAR LSMD 111650Z AUTO 00000KT 2400NDV SN BR FEW006 BKN011 BKN016 M04/M05 Q1015 RMK YLO;
0185066099999992010011117504+47400+008650AUTO +0448LSMD V0209999C000010042019N0021001N1-00401-00501999999ADDAW1101AW2711GA1021+001801999GA2071+004201999GF107991999999999999999999MA1101591999999REMMET088METAR LSMD 111750Z AUTO 00000KT 2100NDV -SN BR FEW006 BKN014 M04/M05 Q1016 RESN RMK YLO;
0180066099999992010011118504+47400+008650AUTO +0448LSMD V0209999C000010057019N0024001N1-00401-00501999999ADDAW1101AW2711GA1021+004801999GA2081+005701999GF108991999999999999999999MA1101591999999REMMET083METAR LSMD 111850Z AUTO 00000KT 2400NDV -SN BR FEW016 OVC019 M04/M05 Q1016 RMK YLO;
0203066099999992010011119504+47400+008650AUTO +0448LSMD V0201101N000510063019N0022001N1-00401-00501999999ADDAW1101AW2711GA1041+004501999GA2071+006301999GA3081+009001999GF108991999999999999999999MA1101591999999REMMET090METAR LSMD 111950Z AUTO 11001KT 2200NDV -SN BR SCT015 BKN021 OVC030 M04/M05 Q1016 RMK YLO;
0203066099999992010011120504+47400+008650AUTO +0448LSMD V0200901N001010150019N0034001N1-00401-00501999999ADDAW1101AW2711GA1041+003601999GA2071+015001999GA3081+021001999GF108991999999999999999999MA1101591999999REMMET090METAR LSMD 112050Z AUTO 09002KT 3400NDV -SN BR SCT012 BKN059 OVC071 M04/M05 Q1016 RMK GRN;
0208066099999992010011121504+47400+008650AUTO +0448LSMD V0209999V00101003301CN0021001N1-00401-00401999999ADDAW1101AW2711GA1021+002101999GA2041+003301999GA3081+004801999GF108991999999999999999999MA1101591999999REMMET095METAR LSMD 112150Z AUTO VRB02KT 2100NDV -SN BR FEW007 SCT011 OVC016 M04/M04 Q1016 RESN RMK YLO;
0155066099999992010011122504+47400+008650AUTO +0448LSMD V0201201N000510018019N0017001N1-00401-00401999999ADDAW1101AW2721GA1091+001801999GF109991999999000251999999MA1101591999999REMMET074METAR LSMD 112250Z AUTO 12001KT 1700NDV SN BR VV006 M04/M04 Q1016 RMK AMB;
0155066099999992010011123504+47400+008650AUTO +0448LSMD V0209999C000010018019N0017001N1-00401-00401999999ADDAW1101AW2721GA1091+001801999GF109991999999000251999999MA1101591999999REMMET074METAR LSMD 112350Z AUTO 00000KT 1700NDV SN BR VV006 M04/M04 Q1016 RMK AMB;
0203066099999992010011201504+47400+008650AUTO +0448LSMD V0209999C00001015001CN0021001N1-00401-00401999999ADDAW1101AW2711GA1021+002101999GA2041+015001999GA3081+018001999GF108991999999999999999999MA1101591999999REMMET090METAR LSMD 120150Z AUTO 00000KT 2100NDV -SN BR FEW007 SCT053 OVC061 M04/M04 Q1016 RMK YLO;
0205066099999992010011202504+47400+008650AUTO +0448LSMD V0209999C000010150019N0022001N1-00401-00401999999ADDAW1101AW2671GA1041+002701999GA2071+015001999GA3081+015001999GF108991999999999999999999MA1101591999999REMMET092METAR LSMD 120250Z AUTO 00000KT 2200NDV -RASN BR SCT009 BKN050 OVC058 M04/M04 Q1016 RMK YLO;
0184066099999992010011203504+47400+008650AUTO +0448LSMD V0209999C000010054019N0027001N1-00401-00401999999ADDAW1101AW2801GA1021+003901999GA2081+005401999GF108991999999999999999999MA1101591999999REMMET087METAR LSMD 120350Z AUTO 00000KT 2700NDV -SHRASN BR FEW013 OVC018 M04/M04 Q1016 RMK YLO;
0182066099999992010011204504+47400+008650AUTO +0448LSMD V0209999C000010057019N0030001N1-00401-00401999999ADDAW1101AW2851GA1041+004801999GA2081+005701999GF108991999999999999999999MA1101591999999REMMET085METAR LSMD 120450Z AUTO 00000KT 3000NDV -SHSN BR SCT016 OVC019 M04/M04 Q1016 RMK GRN;
0180066099999992010011205504+47400+008650AUTO +0448LSMD V0209999C000010051019N0026001N1-00301-00401999999ADDAW1101AW2711GA1071+005101999GA2081+015001999GF108991999999999999999999MA1101591999999REMMET083METAR LSMD 120550Z AUTO 00000KT 2600NDV -SN BR BKN017 OVC051 M03/M04 Q1016 RMK YLO;
0117066099999992010011206504+47400+008650FM-15+0448LSMD V0209999V001012200019N0033001N1-00301-00401999999ADDMA1101501999999REMMET090METAR LSMD 120650Z VRB02KT 3300 -SHFZRA -SN BR FEW043 BKN050 OVC096 M03/M04 Q1015 RMK GRN;
0191066099999992010011207504+47400+008650FM-15+0448LSMD V0200901N000510150019N0022001N1-00301-00401999999ADDGA1041+004201999GA2071+015001999GA3081+027001999GF108991999999999999999999MA1101391999999MW1101REMMET084METAR LSMD 120750Z 09001KT 2200 -SHSN BR SCT014 BKN054 OVC095 M03/M04 Q1014 RMK YLO;
0185066099999992010011208504+47400+008650FM-15+0448LSMD V0209999C00001004801CN0029001N1-00301-00401999999ADDGA1021+003901999GA2041+004801999GA3081+027001999GF108991999999999999999999MA1101391999999MW1101REMMET078METAR LSMD 120850Z 00000KT 2900 BR FEW013 SCT016 OVC092 M03/M04 Q1014 RMK YLO;
0153066099999992010011209504+47400+008650FM-15+0448LSMD V0209999V001010240019N0050001N1-00201-00401999999ADDGA1041+004501999GA2081+024001999GF108991999999999999999999MA1101291999999REMMET068METAR LSMD 120950Z VRB02KT 5000 SCT015 OVC085 M02/M04 Q1013 RMK GRN;
0130066099999992010011210504+47400+008650FM-15+0448LSMD V0203301N002612200019N0050001N1-00201-00401999999ADDGA1021+005101999GF102991999999999999999999MA1101191999999REMMET061METAR LSMD 121050Z 33005KT 5000 FEW017 M02/M04 Q1012 RMK GRN;
0162066099999992010011211504+47400+008650FM-15+0448LSMD V0203401N001510048019N0042001N1-00201-00401999999ADDGA1021+003301999GA2081+004801999GF108991999999999999999999MA1101081999999MW1101REMMET071METAR LSMD 121150Z 34003KT 4200 BR FEW011 OVC016 M02/M04 Q1011 RMK GRN;
0130066099999992010011212504+47400+008650FM-15+0448LSMD V0209999V001010045019N0048001N1-00101-00401999999ADDGA1081+004501999GF108991999999999999999999MA1101081999999REMMET061METAR LSMD 121250Z VRB02KT 4800 OVC015 M01/M04 Q1011 RMK GRN;
0130066099999992010011213504+47400+008650FM-15+0448LSMD V0209999C000010042019N0060001N1-00101-00401999999ADDGA1081+004201999GF108991999999999999999999MA1101021999999REMMET061METAR LSMD 121350Z 00000KT 6000 OVC014 M01/M04 Q1010 RMK GRN;
0138066099999992010011214504+47400+008650FM-15+0448LSMD V0200701N002110039019N0050001N1-00101-00401999999ADDGA1081+003901999GF108991999999999999999999MA1100911999999REMMET069METAR LSMD 121450Z 07004KT 030V110 5000 OVC013 M01/M04 Q1009 RMK GRN;
0138066099999992010011215504+47400+008650FM-15+0448LSMD V0200601N002610039019N0047001N1-00201-00401999999ADDGA1081+003901999GF108991999999999999999999MA1100811999999REMMET069METAR LSMD 121550Z 06005KT 020V100 4700 OVC013 M02/M04 Q1008 RMK GRN;
0155066099999992010011216504+47400+008650AUTO +0448LSMD V0200501N002110036019N0050001N1-00201-00401999999ADDAW1101GA1081+003601999GF108991999999999999999999MA1100811999999REMMET080METAR LSMD 121650Z AUTO 05004KT 340V090 5000NDV BR OVC012 M02/M04 Q1008 RMK GRN;
0155066099999992010011217504+47400+008650AUTO +0448LSMD V0200801N002110039019N0050001N1-00201-00401999999ADDAW1101GA1081+003901999GF108991999999999999999999MA1100711999999REMMET080METAR LSMD 121750Z AUTO 08004KT 050V120 5000NDV BR OVC013 M02/M04 Q1007 RMK GRN;
0147066099999992010011218504+47400+008650AUTO +0448LSMD V0200901N001510042019N0048001N1-00201-00401999999ADDAW1101GA1081+004201999GF108991999999999999999999MA1100711999999REMMET072METAR LSMD 121850Z AUTO 09003KT 4800NDV BR OVC014 M02/M04 Q1007 RMK GRN;
0147066099999992010011219504+47400+008650AUTO +0448LSMD V0209999V001010042019N0050001N1-00201-00401999999ADDAW1101GA1081+004201999GF108991999999999999999999MA1100611999999REMMET072METAR LSMD 121950Z AUTO VRB02KT 5000NDV BR OVC014 M02/M04 Q1006 RMK GRN;
0170066099999992010011220504+47400+008650AUTO +0448LSMD V0209999C000010039019N0040001N1-00401-00501999999ADDAW1101GA1071+003901999GA2071+005101999GF107991999999999999999999MA1100611999999REMMET079METAR LSMD 122050Z AUTO 00000KT 4000NDV BR BKN013 BKN017 M04/M05 Q1006 RMK GRN;
0164066099999992010011221504+47400+008650AUTO +0448LSMD V0209999C000012200019N0002501N1-00602-00701999999ADDAW1311MA1100501999999REMMET112METAR LSMD 122150Z AUTO 00000KT 0250NDV R11/0250V0600N R29/1000VP2000D BCFG SCT009 BKN016 M06/M07 Q1005 RMK RED;EQDQ01+000903ATOT  
0138066099999992010011222504+47400+008650AUTO +0448LSMD V0209999C000019999999N0002501N1-00601-00701999999ADDAW1101MA1100501999999REMMET105METAR LSMD 122250Z AUTO 00000KT 0250NDV R11/0450V0650D R29/P2000N BR FEW008 BKN013 M06/M07 Q1005 RMK RED;
0189066099999992010011223504+47400+008650AUTO +0448LSMD V0209999C000010570019N0018001N1-00602-00601999999ADDAW1101GA1021+002401999GA2081+057001999GF108991999999999999999999MA1100411999999REMMET079METAR LSMD 122350Z AUTO 00000KT 1800NDV BR FEW008 OVC190 M06/M06 Q1004 RMK AMB;EQDQ01-000603ATOT  
0155066099999992010011300504+47400+008650AUTO +0448LSMD V0202801N002110027019N0039001N1-00301-00401999999ADDAW1101GA1081+002701999GF108991999999999999999999MA1100611999999REMMET080METAR LSMD 130050Z AUTO 28004KT 240V300 3900NDV BR OVC009 M03/M04 Q1006 RMK YLO;
0147066099999992010011301504+47400+008650AUTO +0448LSMD V0209999V000510030019N0039001N1-00201-00401999999ADDAW1101GA1081+003001999GF108991999999999999999999MA1100611999999REMMET072METAR LSMD 130150Z AUTO VRB01KT 3900NDV BR OVC010 M02/M04 Q1006 RMK GRN;
0155066099999992010011302504+47400+008650AUTO +0448LSMD V0201201N002110030019N0037001N1-00301-00401999999ADDAW1101GA1081+003001999GF108991999999999999999999MA1100511999999REMMET080METAR LSMD 130250Z AUTO 12004KT 100V160 3700NDV BR OVC010 M03/M04 Q1005 RMK GRN;
0170066099999992010011303504+47400+008650AUTO +0448LSMD V0209999C000010270019N0035001N1-00301-00401999999ADDAW1101GA1021+003001999GA2081+027001999GF108991999999999999999999MA1100411999999REMMET079METAR LSMD 130350Z AUTO 00000KT 3500NDV BR FEW010 OVC093 M03/M04 Q1004 RMK GRN;
0178066099999992010011304504+47400+008650AUTO +0448LSMD V0203301N002110210019N0040001N1-00301-00401999999ADDAW1101GA1071+021001999GA2081+024001999GF108991999999999999999999MA1100411999999REMMET087METAR LSMD 130450Z AUTO 33004KT 290V360 4000NDV BR BKN071 OVC080 M03/M04 Q1004 RMK GRN;
0170066099999992010011305504+47400+008650FM-15+0448LSMD V0203101N001510210019N0040001N1-00201-00401999999ADDGA1041+018001999GA2081+021001999GF108991999999999999999999MA1100411999999MW1101REMMET079METAR LSMD 130550Z 31003KT 280V350 4000 BR SCT066 OVC075 M02/M04 Q1004 RMK GRN;
0185066099999992010011306504+47400+008650FM-15+0448LSMD V0203201N001010270019N0039001N1-00301-00401999999ADDGA1041+021001999GA2071+027001999GA3081+033001999GF108991999999999999999999MA1100411999999MW1101REMMET078METAR LSMD 130650Z 32002KT 3900 BR SCT076 BKN094 OVC110 M03/M04 Q1004 RMK GRN;
0162066099999992010011307504+47400+008650FM-15+0448LSMD V0203101N002110180019N0028001N1-00201-00401999999ADDGA1021+002401999GA2081+018001999GF108991999999999999999999MA1100511999999MW1101REMMET071METAR LSMD 130750Z 31004KT 2800 BR FEW008 OVC065 M02/M04 Q1005 RMK YLO;
0159066099999992010011308504+47400+008650FM-15+0448LSMD V0209999V000510114019N0025001N1-00201-00401999999ADDGA1071+011401999GA2081+012901999GF108991999999999999999999MA1100611999999REMMET074METAR LSMD 130850Z VRB01KT 2500 -SHSN BKN038 OVC043 M02/M04 Q1006 RMK YLO;
0203066099999992010011309504+47400+008650FM-15+0448LSMD V0209999C00001004501CN0016001N1-00101-00301999999ADDGA1041+002401999GA2041+004501999GA3071+006901999GF107991999999999999999999MA1100611999999MW1101MW2611MW3711REMMET084METAR LSMD 130950Z 00000KT 1600 -RASN BR SCT008 SCT015 BKN023 M01/M03 Q1006 RMK AMB;
0180066099999992010011310504+47400+008650FM-15+0448LSMD V0201201N002110024019N0010001N1-00101-00201999999ADDED199U10009GA1071+002401999GF107991999999999999999999MA1100611999999MW1101MW2711REMMET088METAR LSMD 131050Z 12004KT 1000 R11/1000U R29/1400N -SN BR BKN008 M01/M02 Q1006 RMK RED;
0203066099999992010011311504+47400+008650FM-15+0448LSMD V0201401N00211002701CN0018001N1-00101-00201999999ADDGA1021+001501999GA2041+002701999GA3071+007801999GF107991999999999999999999MA1100611999999MW1101MW2711REMMET090METAR LSMD 131150Z 14004KT 110V170 1800 -SN BR FEW005 SCT009 BKN026 M01/M02 Q1006 RMK AMB;
0203066099999992010011312504+47400+008650FM-15+0448LSMD V0201301N00151003301CN0018001N1+00001-00101999999ADDGA1021+002701999GA2041+003301999GA3071+008401999GF107991999999999999999999MA1100611999999MW1101MW2711REMMET090METAR LSMD 131250Z 13003KT 110V170 1800 -SN BR FEW009 SCT011 BKN028 M00/M01 Q1006 RMK AMB;
0226066099999992010011313504+47400+008650FM-15+0448LSMD V0209999V001010033019N0012001N1+00001-00101999999ADDED199U16009GA1021+002401999GA2071+003301999GA3071+006901999GF107991999999999999999999MA1100611999999MW1101MW2711REMMET102METAR LSMD 131350Z VRB02KT 1200 R11/1600N R29/1600U -SN BR FEW008 BKN011 BKN023 M00/M01 Q1006 RMK RED;
0209066099999992010011314504+47400+008650FM-15+0448LSMD V0201301N001510024019N0010001N1+00001-00101999999ADDED199U15009GA1071+002401999GA2071+003601999GF107991999999999999999999MA1100611999999MW1101MW2731REMMET101METAR LSMD 131450Z 13003KT 090V150 1000 R11/1500N R29/1400N SN BR BKN008 BKN012 00/M01 Q1006 RMK RED;
0240066099999992010011315504+47400+008650AUTO +0448LSMD V0201401N002610039019N0014001N1+00001-00101999999ADDAW1101AW2711ED199U20009GA1021+003301999GA2071+003901999GA3071+006601999GF107991999999999999999999MA1100711999999REMMET116METAR LSMD 131550Z AUTO 14005KT 1400NDV R11/P2000N R29/P2000U -SN BR FEW011 BKN013 BKN022 00/M01 Q1007 RESN RMK RED;
0202066099999992010011316504+47400+008650AUTO +0448LSMD V0201401N001510045019N0035001N1+00101+00001999999ADDAW1101AW2611GA1021+003001999GA2071+004501999GA3081+009001999GF108991999999999999999999MA1100711999999REMMET089METAR LSMD 131650Z AUTO 14003KT 3500NDV -RA BR FEW010 BKN015 OVC030 01/M00 Q1007 RMK GRN;
0201066099999992010011317504+47400+008650AUTO +0448LSMD V0209999V001010036019N0041001N1+00101+00001999999ADDAW1101AW2611GA1071+003601999GA2071+005101999GA3071+006301999GF107991999999999999999999MA1100811999999REMMET088METAR LSMD 131750Z AUTO VRB02KT 4100NDV -RA BR BKN012 BKN017 BKN021 01/00 Q1008 RMK GRN;
0180066099999992010011318504+47400+008650AUTO +0448LSMD V0209999V001010042019N0043001N1+00101+00001999999ADDAW1101AW2671GA1041+003301999GA2071+004201999GF107991999999999999999999MA1100811999999REMMET083METAR LSMD 131850Z AUTO VRB02KT 4300NDV -RASN BR SCT011 BKN014 01/00 Q1008 RMK GRN;
0180066099999992010011319504+47400+008650AUTO +0448LSMD V0209999V001010039019N0037001N1+00101+00001999999ADDAW1101AW2671GA1021+003001999GA2081+003901999GF108991999999999999999999MA1100811999999REMMET083METAR LSMD 131950Z AUTO VRB02KT 3700NDV -RASN BR FEW010 OVC013 01/00 Q1008 RMK GRN;
0178066099999992010011320504+47400+008650AUTO +0448LSMD V0201301N001010039019N0033001N1+00101+00001999999ADDAW1101AW2611GA1041+002701999GA2081+003901999GF108991999999999999999999MA1100811999999REMMET081METAR LSMD 132050Z AUTO 13002KT 3300NDV -RA BR SCT009 OVC013 01/00 Q1008 RMK GRN;
0191066099999992010011321504+47400+008650AUTO +0448LSMD V0201201N001510039019N0035001N1+00101+00001999999ADDAW1101GA1021+002701999GA2071+003901999GA3081+005401999GF108991999999999999999999MA1100811999999REMMET084METAR LSMD 132150Z AUTO 12003KT 3500NDV BR FEW009 BKN013 OVC018 01/00 Q1008 RMK GRN;
0191066099999992010011322504+47400+008650AUTO +0448LSMD V0201301N00101003901CN0047001N1+00101+00001999999ADDAW1101GA1021+000601999GA2041+003901999GA3081+006301999GF108991999999999999999999MA1100811999999REMMET084METAR LSMD 132250Z AUTO 13002KT 4700NDV BR FEW002 SCT013 OVC021 01/00 Q1008 RMK GRN;
0191066099999992010011323504+47400+008650AUTO +0448LSMD V0200901N001510051019N0048001N1+00101+00001999999ADDAW1101GA1041+004201999GA2071+005101999GA3081+009901999GF108991999999999999999999MA1100711999999REMMET084METAR LSMD 132350Z AUTO 09003KT 4800NDV BR SCT014 BKN017 OVC033 01/00 Q1007 RMK GRN;
0169066099999992010011400504+47400+008650AUTO +0448LSMD V0209999V000510009019N0022001N1+00001+00001999999ADDAW1101GA1071+000901999GA2071+009001999GF107991999999999999999999MA1100711999999REMMET078METAR LSMD 140050Z AUTO VRB01KT 2200NDV BR BKN003 BKN030 00/M00 Q1007 RMK AMB;
0128066099999992010011401504+47400+008650FM-15+0448LSMD V0209999V000512200019N0005501N1+00001+00001999999ADDAW1301MA1100701999999REMMET095METAR LSMD 140150Z AUTO VRB01KT 0550NDV R11/0800V1400N R29/0700N FG VV001 00/M00 Q1007 RMK RED;
0177066099999992010011402504+47400+008650AUTO +0448LSMD V0202701N001010003019N0004001N1+00001-00101999999ADDAW1301ED199U05009GA1091+000301999GF109991999999000251999999MA1100611999999REMMET091METAR LSMD 140250Z AUTO 27002KT 0400NDV R11/0500D R29/0550N FG VV001 M00/M01 Q1006 RMK RED;
0186066099999992010011403504+47400+008650AUTO +0448LSMD V0203001N001510009019N0006001N1+00001+00001999999ADDAW1301ED199U20009GA1081+000901999GF108991999999999999999999MA1100611999999REMMET100METAR LSMD 140350Z AUTO 30003KT 260V350 0600NDV R11/P2000N R29/0900N FG OVC003 00/M00 Q1006 RMK RED;
0184066099999992010011404504+47400+008650AUTO +0448LSMD V0203201N001010006019N0013001N1+00001+00001999999ADDAW1301ED199U20009GA1081+000601999GF108991999999999999999999MA1100611999999REMMET098METAR LSMD 140450Z AUTO 32002KT 1300NDV R11/P2000N R29/1500VP2000D FG OVC002 00/M00 Q1006 RMK RED;
0137066099999992010011405504+47400+008650FM-15+0448LSMD V0201201N001510009019N0040001N1+00001+00001999999ADDGA1081+000901999GF108991999999999999999999MA1100611999999MW1101REMMET062METAR LSMD 140550Z 12003KT 4000 BR OVC003 00/00 Q1006 RMK AMB;
0176066099999992010011406504+47400+008650FM-15+0448LSMD V0201101N001510009019N0060001N1+00001+00001999999ADDGA1071+000901999GA2071+001501999GA3081+002101999GF108991999999999999999999MA1100611999999REMMET075METAR LSMD 140650Z 11003KT 6000 BKN003 BKN005 OVC007 M00/M00 Q1006 RMK AMB;
0138066099999992010011407504+47400+008650FM-15+0448LSMD V0209999C000010015019N0040001N1+00001+00001999999ADDGA1081+001501999GF108991999999999999999999MA1100611999999MW1101REMMET063METAR LSMD 140750Z 00000KT 4000 BR OVC005 00/M00 Q1006 RMK YLO;
0182066099999992010011408504+47400+008650AUTO +0448LSMD V0209999C000010021019N0050001N1+00101+00001999999ADDGA1021+000901999GA2071+002101999GA3081+003001999GF108991999999999999999999MA1100511999999REMMET081METAR LSMD 140850Z AUTO 00000KT 5000NDV FEW003 BKN007 OVC010 01/00 Q1005 RMK YLO;
0128066099999992010011409504+47400+008650FM-15+0448LSMD V0201001N001510027019N0080001N1+00201+00001999999ADDGA1081+002701999GF108991999999999999999999MA1100511999999REMMET059METAR LSMD 140950Z 10003KT 8000 OVC009 02/00 Q1005 RMK YLO;
0160066099999992010011410504+47400+008650FM-15+0448LSMD V0200801N003610030019N0070001N1+00201+00001999999ADDGA1021+001801999GA2071+003001999GF107991999999999999999999MA1100511999999REMMET075METAR LSMD 141050Z 08007KT 030V130 7000 FEW006 BKN010 02/M00 Q1005 RMK GRN;
0136066099999992010011411504+47400+008650AUTO +0448LSMD V0209999V001010027019N0112651N1+00201+00001999999ADDGA1081+002701999GF108991999999999999999999MA1100411999999REMMET067METAR LSMD 141150Z AUTO VRB02KT 9999NDV OVC009 02/00 Q1004 RMK YLO;
0144066099999992010011412504+47400+008650AUTO +0448LSMD V0200701N001510027019N0112651N1+00301+00001999999ADDGA1071+002701999GF107991999999999999999999MA1100411999999REMMET075METAR LSMD 141250Z AUTO 07003KT 360V140 9999NDV BKN009 03/00 Q1004 RMK YLO;
0145066099999992010011413504+47400+008650AUTO +0448LSMD V0200701N002610030019N0112651N1+00201+00001999999ADDGA1071+003001999GF107991999999999999999999MA1100411999999REMMET076METAR LSMD 141350Z AUTO 07005KT 030V110 9999NDV BKN010 02/M00 Q1004 RMK GRN;
0151066099999992010011414504+47400+008650FM-15+0448LSMD V0209999V001010036019N0112651N1+00201+00001999999ADDGA1071+003601999GA2071+004801999GF107991999999999999999999MA1100411999999REMMET066METAR LSMD 141450Z VRB02KT 9999 BKN012 BKN016 02/00 Q1004 RMK GRN;
0136066099999992010011415504+47400+008650AUTO +0448LSMD V0200101N001010042019N0080001N1+00201+00001999999ADDGA1081+004201999GF108991999999999999999999MA1100511999999REMMET067METAR LSMD 141550Z AUTO 01002KT 8000NDV OVC014 02/00 Q1005 RMK GRN;
0159066099999992010011416504+47400+008650AUTO +0448LSMD V0209999V001010045019N0060001N1+00201+00001999999ADDGA1041+003601999GA2081+004501999GF108991999999999999999999MA1100511999999REMMET074METAR LSMD 141650Z AUTO VRB02KT 6000NDV SCT012 OVC015 02/00 Q1005 RMK GRN;
0136066099999992010011417504+47400+008650AUTO +0448LSMD V0209999V001010042019N0060001N1+00101+00001999999ADDGA1081+004201999GF108991999999999999999999MA1100611999999REMMET067METAR LSMD 141750Z AUTO VRB02KT 6000NDV OVC014 01/00 Q1006 RMK GRN;
0137066099999992010011418504+47400+008650AUTO +0448LSMD V0209999V001010039019N0050001N1+00101+00001999999ADDGA1081+003901999GF108991999999999999999999MA1100711999999REMMET068METAR LSMD 141850Z AUTO VRB02KT 5000NDV OVC013 01/M00 Q1007 RMK GRN;
0169066099999992010011419504+47400+008650AUTO +0448LSMD V0209999V001010033019N0050001N1+00101+00001999999ADDAW1101GA1041+002701999GA2081+003301999GF108991999999999999999999MA1100711999999REMMET078METAR LSMD 141950Z AUTO VRB02KT 5000NDV BR SCT009 OVC011 01/M00 Q1007 RMK GRN;
0169066099999992010011420504+47400+008650AUTO +0448LSMD V0209999V001010036019N0048001N1+00101+00001999999ADDAW1101GA1041+002401999GA2081+003601999GF108991999999999999999999MA1100811999999REMMET078METAR LSMD 142050Z AUTO VRB02KT 4800NDV BR SCT008 OVC012 01/M00 Q1008 RMK GRN;
0169066099999992010011421504+47400+008650AUTO +0448LSMD V0209999V001010030019N0046001N1+00101-00101999999ADDAW1101GA1041+002401999GA2081+003001999GF108991999999999999999999MA1100911999999REMMET078METAR LSMD 142150Z AUTO VRB02KT 4600NDV BR SCT008 OVC010 01/M01 Q1009 RMK GRN;
0177066099999992010011422504+47400+008650AUTO +0448LSMD V0200101N001510039019N0044001N1+00101-00101999999ADDAW1101GA1021+002401999GA2081+003901999GF108991999999999999999999MA1101021999999REMMET086METAR LSMD 142250Z AUTO 01003KT 320V050 4400NDV BR FEW008 OVC013 01/M01 Q1010 RMK GRN;
0200066099999992010011423504+47400+008650AUTO +0448LSMD V0203201N001510024019N0043001N1+00101-00101999999ADDAW1101GA1021+001801999GA2071+002401999GA3081+003601999GF108991999999999999999999MA1101081999999REMMET093METAR LSMD 142350Z AUTO 32003KT 270V360 4300NDV BR FEW006 BKN008 OVC012 01/M01 Q1011 RMK YLO;
0192066099999992010011500504+47400+008650AUTO +0448LSMD V0203301N001510024019N0043001N1+00001-00101999999ADDAW1101GA1021+001801999GA2071+002401999GA3081+004201999GF108991999999999999999999MA1101191999999REMMET085METAR LSMD 150050Z AUTO 33003KT 4300NDV BR FEW006 BKN008 OVC014 00/M01 Q1012 RMK YLO;
0200066099999992010011501504+47400+008650AUTO +0448LSMD V0200301N001510036019N0040001N1+00001-00101999999ADDAW1101GA1021+001801999GA2071+003601999GA3081+004801999GF108991999999999999999999MA1101191999999REMMET093METAR LSMD 150150Z AUTO 03003KT 340V070 4000NDV BR FEW006 BKN012 OVC016 00/M01 Q1012 RMK GRN;
0192066099999992010011502504+47400+008650AUTO +0448LSMD V0209999C000010051019N0040001N1+00001-00101999999ADDAW1101GA1021+002101999GA2071+005101999GA3081+006001999GF108991999999999999999999MA1101291999999REMMET085METAR LSMD 150250Z AUTO 00000KT 4000NDV BR FEW007 BKN017 OVC020 00/M01 Q1013 RMK GRN;
0192066099999992010011503504+47400+008650AUTO +0448LSMD V0209999C000010036019N0039001N1+00001-00101999999ADDAW1101GA1021+001801999GA2071+003601999GA3081+005701999GF108991999999999999999999MA1101391999999REMMET085METAR LSMD 150350Z AUTO 00000KT 3900NDV BR FEW006 BKN012 OVC019 00/M01 Q1014 RMK GRN;
0192066099999992010011504504+47400+008650AUTO +0448LSMD V0209999C00001003001CN0037001N1+00001-00101999999ADDAW1101GA1021+002401999GA2041+003001999GA3081+004501999GF108991999999999999999999MA1101491999999REMMET085METAR LSMD 150450Z AUTO 00000KT 3700NDV BR FEW008 SCT010 OVC015 00/M01 Q1015 RMK GRN;
0184066099999992010011505504+47400+008650FM-15+0448LSMD V0209999V000510042019N0034001N1+00001-00101999999ADDGA1021+003301999GA2071+004201999GA3081+004801999GF108991999999999999999999MA1101591999999MW1101REMMET077METAR LSMD 150550Z VRB01KT 3400 BR FEW011 BKN014 OVC016 00/M01 Q1016 RMK GRN;
0138066099999992010011506504+47400+008650FM-15+0448LSMD V0209999V001010051019N0038001N1+00001-00101999999ADDGA1081+005101999GF108991999999999999999999MA1101691999999MW1101REMMET063METAR LSMD 150650Z VRB02KT 3800 BR OVC017 00/M01 Q1017 RMK GRN;
0138066099999992010011507504+47400+008650FM-15+0448LSMD V0201401N001510051019N0050001N1+00101-00101999999ADDGA1081+005101999GF108991999999999999999999MA1101801999999MW1101REMMET063METAR LSMD 150750Z 14003KT 5000 BR OVC017 01/M01 Q1018 RMK GRN;
0137066099999992010011509504+47400+008650FM-15+0448LSMD V0201801N002110045019N0090001N1+00201-00201999999ADDGA1081+004501999GF108991999999999999999999MA1102001999999REMMET068METAR LSMD 150950Z 18004KT 160V220 9000 OVC015 02/M02 Q1020 RMK GRN;
0145066099999992010011510504+47400+008650AUTO +0448LSMD V0201901N001510045019N0090001N1+00201-00201999999ADDGA1081+004501999GF108991999999999999999999MA1102001999999REMMET076METAR LSMD 151050Z AUTO 19003KT 160V230 9000NDV OVC015 02/M02 Q1020 RMK GRN;
0137066099999992010011511504+47400+008650AUTO +0448LSMD V0209999V001010045019N0112651N1+00201-00201999999ADDGA1081+004501999GF108991999999999999999999MA1102001999999REMMET068METAR LSMD 151150Z AUTO VRB02KT 9999NDV OVC015 02/M02 Q1020 RMK GRN;
0137066099999992010011512504+47400+008650AUTO +0448LSMD V0209999V001010045019N0112651N1+00201-00101999999ADDGA1081+004501999GF108991999999999999999999MA1102101999999REMMET068METAR LSMD 151250Z AUTO VRB02KT 9999NDV OVC015 02/M01 Q1021 RMK GRN;
0137066099999992010011513504+47400+008650AUTO +0448LSMD V0209999V001010048019N0080001N1+00201-00101999999ADDGA1081+004801999GF108991999999999999999999MA1102101999999REMMET068METAR LSMD 151350Z AUTO VRB02KT 8000NDV OVC016 02/M01 Q1021 RMK GRN;
0137066099999992010011514504+47400+008650AUTO +0448LSMD V0209999V001010048019N0080001N1+00201-00101999999ADDGA1081+004801999GF108991999999999999999999MA1102201999999REMMET068METAR LSMD 151450Z AUTO VRB02KT 8000NDV OVC016 02/M01 Q1022 RMK GRN;
0137066099999992010011515504+47400+008650AUTO +0448LSMD V0209999V001010048019N0080001N1+00201-00101999999ADDGA1081+004801999GF108991999999999999999999MA1102301999999REMMET068METAR LSMD 151550Z AUTO VRB02KT 8000NDV OVC016 02/M01 Q1023 RMK GRN;
0137066099999992010011516504+47400+008650AUTO +0448LSMD V0209999V000510045019N0070001N1+00201-00101999999ADDGA1081+004501999GF108991999999999999999999MA1102301999999REMMET068METAR LSMD 151650Z AUTO VRB01KT 7000NDV OVC015 02/M01 Q1023 RMK GRN;
0137066099999992010011517504+47400+008650AUTO +0448LSMD V0209999V001010045019N0070001N1+00201-00101999999ADDGA1081+004501999GF108991999999999999999999MA1102401999999REMMET068METAR LSMD 151750Z AUTO VRB02KT 7000NDV OVC015 02/M01 Q1024 RMK GRN;
0137066099999992010011518504+47400+008650AUTO +0448LSMD V0209999C000010042019N0060001N1+00201-00101999999ADDGA1081+004201999GF108991999999999999999999MA1102401999999REMMET068METAR LSMD 151850Z AUTO 00000KT 6000NDV OVC014 02/M01 Q1024 RMK GRN;
0137066099999992010011520504+47400+008650AUTO +0448LSMD V0209999V000510039019N0070001N1+00101-00101999999ADDGA1081+003901999GF108991999999999999999999MA1102401999999REMMET068METAR LSMD 152050Z AUTO VRB01KT 7000NDV OVC013 01/M01 Q1024 RMK GRN;
0137066099999992010011521504+47400+008650AUTO +0448LSMD V0209999V001010036019N0060001N1+00101-00101999999ADDGA1081+003601999GF108991999999999999999999MA1102401999999REMMET068METAR LSMD 152150Z AUTO VRB02KT 6000NDV OVC012 01/M01 Q1024 RMK GRN;
0160066099999992010011522504+47400+008650AUTO +0448LSMD V0209999V001510033019N0060001N1+00101-00201999999ADDGA1071+003301999GA2081+004201999GF108991999999999999999999MA1102401999999REMMET075METAR LSMD 152250Z AUTO VRB03KT 6000NDV BKN011 OVC014 01/M02 Q1024 RMK GRN;
0137066099999992010011523504+47400+008650AUTO +0448LSMD V0209999C000010039019N0060001N1+00101-00201999999ADDGA1081+003901999GF108991999999999999999999MA1102401999999REMMET068METAR LSMD 152350Z AUTO 00000KT 6000NDV OVC013 01/M02 Q1024 RMK GRN;
0137066099999992010011600504+47400+008650AUTO +0448LSMD V0209999C000010039019N0060001N1+00101-00201999999ADDGA1081+003901999GF108991999999999999999999MA1102401999999REMMET068METAR LSMD 160050Z AUTO 00000KT 6000NDV OVC013 01/M02 Q1024 RMK GRN;
0160066099999992010011601504+47400+008650AUTO +0448LSMD V0201201N001010036019N0050001N1+00001-00201999999ADDGA1071+003601999GA2081+004501999GF108991999999999999999999MA1102401999999REMMET075METAR LSMD 160150Z AUTO 12002KT 5000NDV BKN012 OVC015 00/M02 Q1024 RMK GRN;
0154066099999992010011602504+47400+008650AUTO +0448LSMD V0201301N001510036019N0050001N1+00001-00201999999ADDAW1101GA1081+003601999GF108991999999999999999999MA1102301999999REMMET079METAR LSMD 160250Z AUTO 13003KT 100V170 5000NDV BR OVC012 00/M02 Q1023 RMK GRN;
0137066099999992010011603504+47400+008650AUTO +0448LSMD V0200901N002110039019N0060001N1+00001-00201999999ADDGA1081+003901999GF108991999999999999999999MA1102301999999REMMET068METAR LSMD 160350Z AUTO 09004KT 6000NDV OVC013 00/M02 Q1023 RMK GRN;
0138066099999992010011604504+47400+008650AUTO +0448LSMD V0200901N002110030019N0060001N1+00001-00201999999ADDGA1081+003001999GF108991999999999999999999MA1102301999999REMMET069METAR LSMD 160450Z AUTO 09004KT 6000NDV OVC010 M00/M02 Q1023 RMK GRN;
0146066099999992010011605504+47400+008650AUTO +0448LSMD V0201401N001510039019N0070001N1+00001-00301999999ADDGA1081+003901999GF108991999999999999999999MA1102201999999REMMET077METAR LSMD 160550Z AUTO 14003KT 110V170 7000NDV OVC013 M00/M03 Q1022 RMK GRN;
0146066099999992010011606504+47400+008650AUTO +0448LSMD V0201701N001510039019N0080001N1-00101-00301999999ADDGA1081+003901999GF108991999999999999999999MA1102201999999REMMET077METAR LSMD 160650Z AUTO 17003KT 140V210 8000NDV OVC013 M01/M03 Q1022 RMK GRN;
0146066099999992010011607504+47400+008650AUTO +0448LSMD V0201501N001510036019N0070001N1-00101-00301999999ADDGA1081+003601999GF108991999999999999999999MA1102101999999REMMET077METAR LSMD 160750Z AUTO 15003KT 120V200 7000NDV OVC012 M01/M03 Q1021 RMK GRN;
0161066099999992010011608504+47400+008650AUTO +0448LSMD V0209999C000010036019N0060001N1-00101-00301999999ADDGA1041+003001999GA2081+003601999GF108991999999999999999999MA1102101999999REMMET076METAR LSMD 160850Z AUTO 00000KT 6000NDV SCT010 OVC012 M01/M03 Q1021 RMK GRN;
0146066099999992010011609504+47400+008650AUTO +0448LSMD V0201101N001510033019N0060001N1-00101-00301999999ADDGA1071+003301999GF107991999999999999999999MA1102001999999REMMET077METAR LSMD 160950Z AUTO 11003KT 080V140 6000NDV BKN011 M01/M03 Q1020 RMK GRN;
0138066099999992010011610504+47400+008650AUTO +0448LSMD V0202801N001510039019N0060001N1+00001-00301999999ADDGA1071+003901999GF107991999999999999999999MA1102001999999REMMET069METAR LSMD 161050Z AUTO 28003KT 6000NDV BKN013 M00/M03 Q1020 RMK GRN;
0137066099999992010011611504+47400+008650AUTO +0448LSMD V0203101N001512200019N0070001N1+00001-00401999999ADDGA1041+004501999GF104991999999999999999999MA1101901999999REMMET068METAR LSMD 161150Z AUTO 31003KT 7000NDV SCT015 00/M04 Q1019 RMK GRN;
0137066099999992010011612504+47400+008650AUTO +0448LSMD V0209999V001010048019N0070001N1+00101-00301999999ADDGA1071+004801999GF107991999999999999999999MA1101901999999REMMET068METAR LSMD 161250Z AUTO VRB02KT 7000NDV BKN016 01/M03 Q1019 RMK GRN;
0145066099999992010011613504+47400+008650AUTO +0448LSMD V0202001N002112200019N0070001N1+00001-00301999999ADDGA1021+004201999GF102991999999999999999999MA1101801999999REMMET076METAR LSMD 161350Z AUTO 20004KT 170V240 7000NDV FEW014 00/M03 Q1018 RMK GRN;
0151066099999992010011806504+47400+008650FM-15+0448LSMD V0209999C000010210019N0112651N1+00201+00001999999ADDGA1041+015001999GA2081+021001999GF108991999999999999999999MA1102611999999REMMET066METAR LSMD 180650Z 00000KT 9999 SCT053 OVC075 02/00 Q1026 RMK WHT;
0128066099999992010011807504+47400+008650FM-15+0448LSMD V0209999C000010210019N0112651N1+00201+00001999999ADDGA1081+021001999GF108991999999999999999999MA1102611999999REMMET059METAR LSMD 180750Z 00000KT 9999 OVC076 02/00 Q1026 RMK WHT;
0151066099999992010011808504+47400+008650FM-15+0448LSMD V0209999C000010210019N0112651N1+00201+00001999999ADDGA1021+014401999GA2071+021001999GF107991999999999999999999MA1102711999999REMMET066METAR LSMD 180850Z 00000KT 9999 FEW048 BKN076 02/00 Q1027 RMK WHT;
0174066099999992010011809504+47400+008650FM-15+0448LSMD V0209999C000010150019N0112651N1+00401+00101999999ADDGA1021+006601999GA2071+015001999GA3071+021001999GF107991999999999999999999MA1102711999999REMMET073METAR LSMD 180950Z 00000KT 9999 FEW022 BKN050 BKN074 04/01 Q1027 RMK WHT;
0174066099999992010011810504+47400+008650FM-15+0448LSMD V0209999C00001007801CN0112651N1+00501+00101999999ADDGA1021+006601999GA2041+007801999GA3071+015001999GF107991999999999999999999MA1102711999999REMMET073METAR LSMD 181050Z 00000KT 9999 FEW022 SCT026 BKN050 05/01 Q1027 RMK WHT;
0136066099999992010011811504+47400+008650FM-15+0448LSMD V0203101N003110063019N0112651N1+00501+00101999999ADDGA1071+006301999GF107991999999999999999999MA1102611999999REMMET067METAR LSMD 181150Z 31006KT 280V340 9999 BKN021 05/01 Q1026 RMK WHT;
0137066099999992010011817504+47400+008650AUTO +0448LSMD V0209999C000012200019N0112651N1+00101-00101999999ADDGA1041+009301999GF104991999999999999999999MA1102611999999REMMET068METAR LSMD 181750Z AUTO 00000KT 9999NDV SCT031 01/M01 Q1026 RMK BLU;
0137066099999992010011818504+47400+008650AUTO +0448LSMD V0209999C000010099019N0112651N1+00101-00101999999ADDGA1071+009901999GF107991999999999999999999MA1102611999999REMMET068METAR LSMD 181850Z AUTO 00000KT 9999NDV BKN033 01/M01 Q1026 RMK WHT;
0137066099999992010011820504+47400+008650AUTO +0448LSMD V0209999C000010090019N0112651N1+00001-00101999999ADDGA1071+009001999GF107991999999999999999999MA1102511999999REMMET068METAR LSMD 182050Z AUTO 00000KT 9999NDV BKN030 00/M01 Q1025 RMK WHT;
0119066099999992010011821504+47400+008650AUTO +0448LSMD V0209999V001012200019N0050001N1-00101-00101999999ADDGF100991999999999999999999MA1102511999999REMMET066METAR LSMD 182150Z AUTO VRB02KT 5000NDV NCD M01/M01 Q1025 RMK GRN;
0128066099999992010011822504+47400+008650AUTO +0448LSMD V0201101N001012200019N0035001N1-00101-00201999999ADDAW1101GF100991999999999999999999MA1102511999999REMMET069METAR LSMD 182250Z AUTO 11002KT 3500NDV BR NCD M01/M02 Q1025 RMK GRN;
0147066099999992010011823504+47400+008650AUTO +0448LSMD V0209999C000019999999N0011001N1-00201-00301999999ADDAW1101MA1102501999999REMMET095METAR LSMD 182350Z AUTO 00000KT 1100NDV R11/0500V1600D R29/P2000N BR NCD M02/M03 Q1025 RMK RED;EQDQ01+000903ATOT  
0132066099999992010011900504+47400+008650AUTO +0448LSMD V0209999V000519999999N0005001N1-00301-00301999999ADDAW1101MA1102401999999REMMET099METAR LSMD 190050Z AUTO VRB01KT 0500NDV R11/0700VP2000U R29/P2000N BR FEW002 M03/M03 Q1024 RMK RED;
0138066099999992010011901504+47400+008650AUTO +0448LSMD V0209999C000019999999N0003501N1-00301-00301999999ADDAW1101MA1102401999999REMMET105METAR LSMD 190150Z AUTO 00000KT 0350NDV R11/0375V0700D R29/P2000N BR FEW004 BKN140 M03/M03 Q1024 RMK RED;
0170066099999992010011902504+47400+008650AUTO +0448LSMD V0209999C000010006019N0041001N1-00201-00301999999ADDAW1101GA1071+000601999GA2081+042001999GF108991999999999999999999MA1102401999999REMMET079METAR LSMD 190250Z AUTO 00000KT 4100NDV BR BKN002 OVC140 M02/M03 Q1024 RMK AMB;
0177066099999992010011903504+47400+008650AUTO +0448LSMD V0209999V000510003019N0003001N1-00201-00201999999ADDAW1301ED199U05509GA1091+000301999GF109991999999000251999999MA1102301999999REMMET091METAR LSMD 190350Z AUTO VRB01KT 0300NDV R11/0550D R29/0350N FG VV001 M02/M02 Q1023 RMK RED;
0179066099999992010011904504+47400+008650AUTO +0448LSMD V0209999V000510001519N0002501N1-00201-00301999999ADDAW1351ED199U03759GA1091+000151999GF109991999999000251999999MA1102301999999REMMET093METAR LSMD 190450Z AUTO VRB01KT 0250NDV R11/0375N R29/0350N FZFG VV000 M02/M03 Q1023 RMK RED;
0171066099999992010011905504+47400+008650FM-15+0448LSMD V0209999C000010003019N0003501N1-00301-00301999999ADDED199U04509GA1091+000301999GF109991999999000251999999MA1102301999999MW1491REMMET085METAR LSMD 190550Z 00000KT 0350 R11/0450N R29/0400N FZFG VV001 M03/M03 Q1023 RMK RED;
0171066099999992010011906504+47400+008650FM-15+0448LSMD V0209999C000010003019N0003501N1-00301-00301999999ADDED199U04509GA1091+000301999GF109991999999000251999999MA1102201999999MW1491REMMET085METAR LSMD 190650Z 00000KT 0350 R11/0450N R29/0450N FZFG VV001 M03/M03 Q1022 RMK RED;
0171066099999992010011907504+47400+008650FM-15+0448LSMD V0209999V000510003019N0003501N1-00301-00301999999ADDED199U05009GA1091+000301999GF109991999999000251999999MA1102301999999MW1491REMMET085METAR LSMD 190750Z VRB01KT 0350 R11/0500D R29/0600U FZFG VV001 M03/M03 Q1023 RMK RED;
0171066099999992010011908504+47400+008650FM-15+0448LSMD V0209999V001010003019N0002501N1-00301-00301999999ADDED199U03259GA1091+000301999GF109991999999000251999999MA1102301999999MW1491REMMET085METAR LSMD 190850Z VRB02KT 0250 R11/0325N R29/0400N FZFG VV001 M03/M03 Q1023 RMK RED;
0171066099999992010011909504+47400+008650FM-15+0448LSMD V0202701N002110003019N0002501N1-00201-00301999999ADDED199U06509GA1091+000301999GF109991999999000251999999MA1102301999999MW1491REMMET085METAR LSMD 190950Z 27004KT 0250 R11/0650N R29/0400N FZFG VV001 M02/M03 Q1023 RMK RED;
0174066099999992010011910504+47400+008650FM-15+0448LSMD V0209999V001010006019N0006001N1-00201-00301999999ADDED199U15009GA1081+000601999GF108991999999999999999999MA1102201999999MW1481REMMET088METAR LSMD 191050Z VRB02KT 0600 R11/1500U R29/1000N FZFG OVC002 M02/M03 Q1022 RMK RED Y;
0139066099999992010011911504+47400+008650FM-15+0448LSMD V0209999V000510009019N0023001N1-00201-00201999999ADDGA1081+000901999GF108991999999999999999999MA1102101999999MW1101REMMET064METAR LSMD 191150Z VRB01KT 2300 BR OVC003 M02/M02 Q1021 RMK AMB;
0147066099999992010011912504+47400+008650FM-15+0448LSMD V0203201N001510009019N0023001N1-00201-00201999999ADDGA1081+000901999GF108991999999999999999999MA1102101999999MW1101REMMET072METAR LSMD 191250Z 32003KT 260V040 2300 BR OVC003 M02/M02 Q1021 RMK AMB;
0139066099999992010011913504+47400+008650FM-15+0448LSMD V0209999V001010012019N0029001N1-00201-00201999999ADDGA1081+001201999GF108991999999999999999999MA1102001999999MW1101REMMET064METAR LSMD 191350Z VRB02KT 2900 BR OVC004 M02/M02 Q1020 RMK AMB;
0139066099999992010011914504+47400+008650FM-15+0448LSMD V0209999C000010012019N0021001N1-00201-00201999999ADDGA1081+001201999GF108991999999999999999999MA1102001999999MW1101REMMET064METAR LSMD 191450Z 00000KT 2100 BR OVC004 M02/M02 Q1020 RMK AMB;
0147066099999992010011915504+47400+008650AUTO +0448LSMD V0209999V000510012019N0028001N1-00201-00201999999ADDAW1101GA1081+001201999GF108991999999999999999999MA1102001999999REMMET072METAR LSMD 191550Z AUTO VRB01KT 2800NDV BR OVC004 M02/M02 Q1020 RMK AMB;
0155066099999992010011916504+47400+008650AUTO +0448LSMD V0202801N001510012019N0032001N1-00201-00201999999ADDAW1101GA1081+001201999GF108991999999999999999999MA1102001999999REMMET080METAR LSMD 191650Z AUTO 28003KT 240V300 3200NDV BR OVC004 M02/M02 Q1020 RMK AMB;
0147066099999992010011917504+47400+008650AUTO +0448LSMD V0209999C000010009019N0028001N1-00201-00301999999ADDAW1101GA1081+000901999GF108991999999999999999999MA1101901999999REMMET072METAR LSMD 191750Z AUTO 00000KT 2800NDV BR OVC003 M02/M03 Q1019 RMK AMB;
0147066099999992010011918504+47400+008650AUTO +0448LSMD V0209999C000010009019N0033001N1-00201-00301999999ADDAW1101GA1081+000901999GF108991999999999999999999MA1101901999999REMMET072METAR LSMD 191850Z AUTO 00000KT 3300NDV BR OVC003 M02/M03 Q1019 RMK AMB;
0147066099999992010011919504+47400+008650AUTO +0448LSMD V0209999V001010009019N0031001N1-00201-00301999999ADDAW1101GA1081+000901999GF108991999999999999999999MA1101901999999REMMET072METAR LSMD 191950Z AUTO VRB02KT 3100NDV BR OVC003 M02/M03 Q1019 RMK AMB;
0147066099999992010012008504+47400+008650FM-15+0448LSMD V0201101N001510018019N0040001N1-00301-00401999999ADDGA1081+001801999GF108991999999999999999999MA1101491999999MW1101REMMET072METAR LSMD 200850Z 11003KT 020V140 4000 BR OVC006 M03/M04 Q1015 RMK YLO;
0130066099999992010012009504+47400+008650FM-15+0448LSMD V0209999V001010018019N0050001N1-00401-00501999999ADDGA1081+001801999GF108991999999999999999999MA1101491999999REMMET061METAR LSMD 200950Z VRB02KT 5000 OVC006 M04/M05 Q1015 RMK YLO;
0139066099999992010012010504+47400+008650FM-15+0448LSMD V0209999V001010021019N0049001N1-00301-00401999999ADDGA1081+002101999GF108991999999999999999999MA1101391999999MW1101REMMET064METAR LSMD 201050Z VRB02KT 4900 BR OVC007 M03/M04 Q1014 RMK YLO;
0130066099999992010012011504+47400+008650FM-15+0448LSMD V0209999V001010024019N0050001N1-00301-00401999999ADDGA1081+002401999GF108991999999999999999999MA1101391999999REMMET061METAR LSMD 201150Z VRB02KT 5000 OVC008 M03/M04 Q1014 RMK YLO;
0130066099999992010012012504+47400+008650FM-15+0448LSMD V0209999V001010027019N0050001N1-00201-00401999999ADDGA1081+002701999GF108991999999999999999999MA1101391999999REMMET061METAR LSMD 201250Z VRB02KT 5000 OVC009 M02/M04 Q1014 RMK YLO;
0130066099999992010012013504+47400+008650FM-15+0448LSMD V0209999V001010030019N0050001N1-00201-00401999999ADDGA1081+003001999GF108991999999999999999999MA1101291999999REMMET061METAR LSMD 201350Z VRB02KT 5000 OVC010 M02/M04 Q1013 RMK GRN;
0147066099999992010012014504+47400+008650FM-15+0448LSMD V0201401N001510033019N0050001N1-00201-00401999999ADDGA1081+003301999GF108991999999999999999999MA1101291999999MW1101REMMET072METAR LSMD 201450Z 14003KT 100V200 5000 BR OVC011 M02/M04 Q1013 RMK GRN;
0161066099999992010012015504+47400+008650AUTO +0448LSMD V0201201N001510036019N0050001N1-00201-00401999999ADDGA1041+003001999GA2081+003601999GF108991999999999999999999MA1101391999999REMMET076METAR LSMD 201550Z AUTO 12003KT 5000NDV SCT010 OVC012 M02/M04 Q1014 RMK GRN;
0193066099999992010012016504+47400+008650AUTO +0448LSMD V0209999V001010033019N0050001N1-00201-00401999999ADDAW1101GA1021+002401999GA2071+003301999GA3071+015001999GF107991999999999999999999MA1101391999999REMMET086METAR LSMD 201650Z AUTO VRB02KT 5000NDV BR FEW008 BKN011 BKN050 M02/M04 Q1014 RMK GRN;
0138066099999992010012018504+47400+008650AUTO +0448LSMD V0200901N000510120019N0060001N1-00201-00401999999ADDGA1081+012001999GF108991999999999999999999MA1101391999999REMMET069METAR LSMD 201850Z AUTO 09001KT 6000NDV OVC040 M02/M04 Q1014 RMK GRN;
0203066099999992010012019504+47400+008650AUTO +0448LSMD V0201101N001010096019N0039001N1-00201-00301999999ADDAW1101AW2711GA1021+006301999GA2071+009601999GA3081+015001999GF108991999999999999999999MA1101491999999REMMET090METAR LSMD 201950Z AUTO 11002KT 3900NDV -SN BR FEW021 BKN032 OVC059 M02/M03 Q1015 RMK GRN;
0180066099999992010012020504+47400+008650AUTO +0448LSMD V0201201N001510048019N0023001N1-00201-00301999999ADDAW1101AW2711GA1021+001501999GA2071+004801999GF107991999999999999999999MA1101491999999REMMET083METAR LSMD 202050Z AUTO 12003KT 2300NDV -SN BR FEW005 BKN016 M02/M03 Q1015 RMK YLO;
0216066099999992010012021504+47400+008650AUTO +0448LSMD V0201301N002110033019N0019001N1-00201-00201999999ADDAW1101AW2711GA1071+003301999GA2071+003901999GA3081+004801999GF108991999999999999999999MA1101591999999REMMET103METAR LSMD 202150Z AUTO 13004KT 100V170 1900NDV -SN BR BKN011 BKN013 OVC016 M02/M02 Q1016 RESN RMK AMB;
0202066099999992010012022504+47400+008650AUTO +0448LSMD V0201201N002610039019N0018001N1-00201-00201999999ADDAW1101AW2721GA1041+002101999GA2071+003901999GA3081+004801999GF108991999999999999999999MA1101591999999REMMET089METAR LSMD 202250Z AUTO 12005KT 1800NDV SN BR SCT007 BKN013 OVC016 M02/M02 Q1016 RMK AMB;
0160066099999992010012107504+47400+008650FM-15+0448LSMD V0209999V001010069019N0039001N1+00101+00001999999ADDGA1041+005701999GA2071+006901999GF107991999999999999999999MA1102001999999MW1101REMMET069METAR LSMD 210750Z VRB02KT 3900 BR SCT019 BKN023 01/00 Q1020 RMK GRN;
0128066099999992010012108504+47400+008650FM-15+0448LSMD V0209999C000010051019N0060001N1+00201+00101999999ADDGA1081+005101999GF108991999999999999999999MA1102001999999REMMET059METAR LSMD 210850Z 00000KT 6000 OVC017 02/01 Q1020 RMK GRN;
0137066099999992010012109504+47400+008650FM-15+0448LSMD V0209999C000010051019N0036001N1+00201+00101999999ADDGA1081+005101999GF108991999999999999999999MA1102101999999MW1101REMMET062METAR LSMD 210950Z 00000KT 3600 BR OVC017 02/01 Q1021 RMK GRN;
0137066099999992010012110504+47400+008650FM-15+0448LSMD V0209999C000010060019N0043001N1+00301+00101999999ADDGA1071+006001999GF107991999999999999999999MA1102201999999MW1101REMMET062METAR LSMD 211050Z 00000KT 4300 BR BKN020 03/01 Q1022 RMK GRN;
0151066099999992010012111504+47400+008650FM-15+0448LSMD V0209999V001010180019N0060001N1+00501+00201999999ADDGA1021+007201999GA2071+018001999GF107991999999999999999999MA1102101999999REMMET066METAR LSMD 211150Z VRB02KT 6000 FEW024 BKN064 05/02 Q1021 RMK GRN;
0136066099999992010012112504+47400+008650FM-15+0448LSMD V0202101N001512200019N0112651N1+00601+00201999999ADDGA1021+006901999GF102991999999999999999999MA1102001999999REMMET067METAR LSMD 211250Z 21003KT 160V290 9999 FEW023 06/02 Q1020 RMK BLU;
0136066099999992010012113504+47400+008650FM-15+0448LSMD V0202001N001510210019N0112651N1+00701+00201999999ADDGA1071+021001999GF107991999999999999999999MA1102001999999REMMET067METAR LSMD 211350Z 20003KT 170V230 9999 BKN071 07/02 Q1020 RMK WHT;
0159066099999992010012114504+47400+008650FM-15+0448LSMD V0201801N002112200019N0112651N1+00601+00101999999ADDGA1021+007201999GA2041+021001999GF104991999999999999999999MA1102101999999REMMET074METAR LSMD 211450Z 18004KT 150V230 9999 FEW024 SCT071 06/01 Q1021 RMK BLU;
0136066099999992010012116504+47400+008650AUTO +0448LSMD V0201201N001012200019N0112651N1+00301+00101999999ADDGA1041+015001999GF104991999999999999999999MA1102201999999REMMET067METAR LSMD 211650Z AUTO 12002KT 9999NDV SCT057 03/01 Q1022 RMK BLU;
0137066099999992010012117504+47400+008650AUTO +0448LSMD V0209999C000010180019N0080001N1+00101+00001999999ADDGA1071+018001999GF107991999999999999999999MA1102201999999REMMET068METAR LSMD 211750Z AUTO 00000KT 8000NDV BKN061 01/M00 Q1022 RMK WHT;
0136066099999992010012118504+47400+008650AUTO +0448LSMD V0209999C000010180019N0080001N1+00101+00001999999ADDGA1071+018001999GF107991999999999999999999MA1102201999999REMMET067METAR LSMD 211850Z AUTO 00000KT 8000NDV BKN063 01/00 Q1022 RMK WHT;
0137066099999992010012119504+47400+008650AUTO +0448LSMD V0201101N001010180019N0060001N1+00101+00001999999ADDGA1071+018001999GF107991999999999999999999MA1102201999999REMMET068METAR LSMD 211950Z AUTO 11002KT 6000NDV BKN063 01/M00 Q1022 RMK GRN;
0137066099999992010012120504+47400+008650AUTO +0448LSMD V0209999C000010180019N0060001N1+00101+00001999999ADDGA1081+018001999GF108991999999999999999999MA1102201999999REMMET068METAR LSMD 212050Z AUTO 00000KT 6000NDV OVC062 01/M00 Q1022 RMK GRN;
0137066099999992010012121504+47400+008650AUTO +0448LSMD V0209999C000010180019N0050001N1+00101+00001999999ADDGA1081+018001999GF108991999999999999999999MA1102201999999REMMET068METAR LSMD 212150Z AUTO 00000KT 5000NDV OVC061 01/M00 Q1022 RMK GRN;
0137066099999992010012122504+47400+008650AUTO +0448LSMD V0209999C000010150019N0050001N1+00101+00001999999ADDGA1081+015001999GF108991999999999999999999MA1102201999999REMMET068METAR LSMD 212250Z AUTO 00000KT 5000NDV OVC059 01/M00 Q1022 RMK GRN;
0146066099999992010012123504+47400+008650AUTO +0448LSMD V0201001N001010150019N0050001N1+00101+00001999999ADDAW1101GA1081+015001999GF108991999999999999999999MA1102201999999REMMET071METAR LSMD 212350Z AUTO 10002KT 5000NDV BR OVC058 01/M00 Q1022 RMK GRN;
0192066099999992010012200504+47400+008650AUTO +0448LSMD V0201101N00101006001CN0050001N1+00101+00001999999ADDAW1101GA1021+005101999GA2041+006001999GA3081+015001999GF108991999999999999999999MA1102201999999REMMET085METAR LSMD 220050Z AUTO 11002KT 5000NDV BR FEW017 SCT020 OVC058 01/M00 Q1022 RMK GRN;
0169066099999992010012201504+47400+008650AUTO +0448LSMD V0201101N001010150019N0046001N1+00101+00001999999ADDAW1101GA1021+005701999GA2081+015001999GF108991999999999999999999MA1102201999999REMMET078METAR LSMD 220150Z AUTO 11002KT 4600NDV BR FEW019 OVC059 01/M00 Q1022 RMK GRN;
0146066099999992010012202504+47400+008650AUTO +0448LSMD V0201101N001010150019N0044001N1+00101+00001999999ADDAW1101GA1081+015001999GF108991999999999999999999MA1102201999999REMMET071METAR LSMD 220250Z AUTO 11002KT 4400NDV BR OVC059 01/M00 Q1022 RMK GRN;
0146066099999992010012203504+47400+008650AUTO +0448LSMD V0209999C000010150019N0037001N1+00101+00001999999ADDAW1101GA1081+015001999GF108991999999999999999999MA1102201999999REMMET071METAR LSMD 220350Z AUTO 00000KT 3700NDV BR OVC058 01/M00 Q1022 RMK GRN;
0146066099999992010012204504+47400+008650AUTO +0448LSMD V0209999C000010150019N0036001N1+00001-00101999999ADDAW1101GA1081+015001999GF108991999999999999999999MA1102201999999REMMET071METAR LSMD 220450Z AUTO 00000KT 3600NDV BR OVC057 00/M01 Q1022 RMK GRN;
0138066099999992010012205504+47400+008650FM-15+0448LSMD V0209999C000010150019N0044001N1+00001-00101999999ADDGA1081+015001999GF108991999999999999999999MA1102201999999MW1101REMMET063METAR LSMD 220550Z 00000KT 4400 BR OVC055 00/M01 Q1022 RMK GRN;
0140066099999992010012206504+47400+008650FM-15+0448LSMD V0209999C000010150019N0060001N1+00001-00101999999ADDGA1071+015001999GF107991999999999999999999MA1102201999999MW1121REMMET065METAR LSMD 220650Z 00000KT 6000 MIFG BKN053 00/M01 Q1022 RMK GRN;
0139066099999992010012207504+47400+008650FM-15+0448LSMD V0209999C000012200019N0036001N1-00101-00101999999ADDGA1041+003301999GF104991999999999999999999MA1102201999999MW1101REMMET064METAR LSMD 220750Z 00000KT 3600 BR SCT011 M01/M01 Q1022 RMK GRN;
0184066099999992010012208504+47400+008650FM-15+0448LSMD V0209999V00051003301CN0033001N1+00001+00001999999ADDGA1021+000301999GA2041+003301999GA3081+003901999GF108991999999999999999999MA1102301999999MW1101REMMET077METAR LSMD 220850Z VRB01KT 3300 BR FEW001 SCT011 OVC013 00/M00 Q1023 RMK GRN;
0152066099999992010012209504+47400+008650FM-15+0448LSMD V0209999V001010024019N0060001N1+00201+00001999999ADDGA1071+002401999GA2081+003001999GF108991999999999999999999MA1102301999999REMMET067METAR LSMD 220950Z VRB02KT 6000 BKN008 OVC010 02/M00 Q1023 RMK YLO;
0137066099999992010012210504+47400+008650AUTO +0448LSMD V0209999V001510027019N0070001N1+00201+00001999999ADDGA1081+002701999GF108991999999999999999999MA1102301999999REMMET068METAR LSMD 221050Z AUTO VRB03KT 7000NDV OVC009 02/M00 Q1023 RMK YLO;
0137066099999992010012211504+47400+008650AUTO +0448LSMD V0209999V001510033019N0112651N1+00201-00101999999ADDGA1071+003301999GF107991999999999999999999MA1102201999999REMMET068METAR LSMD 221150Z AUTO VRB03KT 9999NDV BKN011 02/M01 Q1022 RMK GRN;
0137066099999992010012212504+47400+008650FM-15+0448LSMD V0200301N002110048019N0090001N1+00301-00101999999ADDGA1071+004801999GF107991999999999999999999MA1102201999999REMMET068METAR LSMD 221250Z 03004KT 320V090 9000 BKN016 03/M01 Q1022 RMK GRN;
0137066099999992010012213504+47400+008650FM-15+0448LSMD V0203501N001512200019N0112651N1+00401+00001999999ADDGA1021+005701999GF102991999999999999999999MA1102201999999REMMET068METAR LSMD 221350Z 35003KT 300V070 9999 FEW019 04/M00 Q1022 RMK BLU;
0137066099999992010012214504+47400+008650FM-15+0448LSMD V0200801N003112200019N0112651N1+00401-00101999999ADDGA1041+005701999GF104991999999999999999999MA1102201999999REMMET068METAR LSMD 221450Z 08006KT 020V110 9999 SCT019 04/M01 Q1022 RMK BLU;
0145066099999992010012215504+47400+008650AUTO +0448LSMD V0200601N001512200019N0112651N1+00301-00101999999ADDGA1041+006001999GF104991999999999999999999MA1102201999999REMMET076METAR LSMD 221550Z AUTO 06003KT 320V120 9999NDV SCT020 03/M01 Q1022 RMK BLU;
0137066099999992010012216504+47400+008650AUTO +0448LSMD V0209999V001010060019N0112651N1+00201-00201999999ADDGA1071+006001999GF107991999999999999999999MA1102201999999REMMET068METAR LSMD 221650Z AUTO VRB02KT 9999NDV BKN020 02/M02 Q1022 RMK WHT;
0145066099999992010012217504+47400+008650AUTO +0448LSMD V0200701N001512200019N0112651N1+00201-00201999999ADDGA1021+005101999GF102991999999999999999999MA1102301999999REMMET076METAR LSMD 221750Z AUTO 07003KT 030V120 9999NDV FEW017 02/M02 Q1023 RMK BLU;
0137066099999992010012218504+47400+008650AUTO +0448LSMD V0209999C000012200019N0112651N1+00101-00201999999ADDGA1021+004801999GF102991999999999999999999MA1102301999999REMMET068METAR LSMD 221850Z AUTO 00000KT 9999NDV FEW016 01/M02 Q1023 RMK BLU;
0119066099999992010012219504+47400+008650AUTO +0448LSMD V0209999C000012200019N0080001N1+00001-00201999999ADDGF100991999999999999999999MA1102301999999REMMET066METAR LSMD 221950Z AUTO 00000KT 8000NDV NCD M00/M02 Q1023 RMK BLU;
0138066099999992010012220504+47400+008650AUTO +0448LSMD V0209999C000012200019N0060001N1-00101-00201999999ADDGA1021+004501999GF102991999999999999999999MA1102301999999REMMET069METAR LSMD 222050Z AUTO 00000KT 6000NDV FEW015 M01/M02 Q1023 RMK GRN;
0170066099999992010012221504+47400+008650AUTO +0448LSMD V0209999C000010057019N0050001N1-00101-00301999999ADDAW1101GA1021+004201999GA2071+005701999GF107991999999999999999999MA1102301999999REMMET079METAR LSMD 222150Z AUTO 00000KT 5000NDV BR FEW014 BKN019 M01/M03 Q1023 RMK GRN;
0193066099999992010012222504+47400+008650AUTO +0448LSMD V0209999V001010048019N0050001N1-00101-00201999999ADDAW1101GA1021+004201999GA2071+004801999GA3081+006001999GF108991999999999999999999MA1102401999999REMMET086METAR LSMD 222250Z AUTO VRB02KT 5000NDV BR FEW014 BKN016 OVC020 M01/M02 Q1024 RMK GRN;
0138066099999992010012223504+47400+008650AUTO +0448LSMD V0209999C000010054019N0060001N1-00101-00201999999ADDGA1081+005401999GF108991999999999999999999MA1102301999999REMMET069METAR LSMD 222350Z AUTO 00000KT 6000NDV OVC018 M01/M02 Q1023 RMK GRN;
0147066099999992010012300504+47400+008650AUTO +0448LSMD V0209999V001010054019N0050001N1+00001-00201999999ADDAW1101GA1081+005401999GF108991999999999999999999MA1102301999999REMMET072METAR LSMD 230050Z AUTO VRB02KT 5000NDV BR OVC018 M00/M02 Q1023 RMK GRN;
0147066099999992010012301504+47400+008650AUTO +0448LSMD V0209999V001010051019N0047001N1-00101-00201999999ADDAW1101GA1081+005101999GF108991999999999999999999MA1102301999999REMMET072METAR LSMD 230150Z AUTO VRB02KT 4700NDV BR OVC017 M01/M02 Q1023 RMK GRN;
0147066099999992010012302504+47400+008650AUTO +0448LSMD V0209999C000010051019N0047001N1-00101-00201999999ADDAW1101GA1081+005101999GF108991999999999999999999MA1102301999999REMMET072METAR LSMD 230250Z AUTO 00000KT 4700NDV BR OVC017 M01/M02 Q1023 RMK GRN;
0138066099999992010012303504+47400+008650AUTO +0448LSMD V0209999V001010051019N0050001N1-00101-00201999999ADDGA1081+005101999GF108991999999999999999999MA1102301999999REMMET069METAR LSMD 230350Z AUTO VRB02KT 5000NDV OVC017 M01/M02 Q1023 RMK GRN;
0138066099999992010012304504+47400+008650AUTO +0448LSMD V0201701N001010048019N0050001N1-00101-00301999999ADDGA1081+004801999GF108991999999999999999999MA1102201999999REMMET069METAR LSMD 230450Z AUTO 17002KT 5000NDV OVC016 M01/M03 Q1022 RMK GRN;
0146066099999992010012305504+47400+008650AUTO +0448LSMD V0201401N001510045019N0060001N1-00101-00301999999ADDGA1081+004501999GF108991999999999999999999MA1102201999999REMMET077METAR LSMD 230550Z AUTO 14003KT 110V190 6000NDV OVC015 M01/M03 Q1022 RMK GRN;
0138066099999992010012306504+47400+008650AUTO +0448LSMD V0209999C000010045019N0060001N1-00101-00301999999ADDGA1081+004501999GF108991999999999999999999MA1102201999999REMMET069METAR LSMD 230650Z AUTO 00000KT 6000NDV OVC015 M01/M03 Q1022 RMK GRN;
0138066099999992010012307504+47400+008650AUTO +0448LSMD V0209999C000010042019N0090001N1-00101-00401999999ADDGA1081+004201999GF108991999999999999999999MA1102201999999REMMET069METAR LSMD 230750Z AUTO 00000KT 9000NDV OVC014 M01/M04 Q1022 RMK GRN;
0146066099999992010012308504+47400+008650AUTO +0448LSMD V0201101N002110042019N0080001N1-00101-00401999999ADDGA1081+004201999GF108991999999999999999999MA1102201999999REMMET077METAR LSMD 230850Z AUTO 11004KT 080V140 8000NDV OVC014 M01/M04 Q1022 RMK GRN;
0146066099999992010012309504+47400+008650AUTO +0448LSMD V0201801N002110042019N0090001N1-00101-00401999999ADDGA1081+004201999GF108991999999999999999999MA1102201999999REMMET077METAR LSMD 230950Z AUTO 18004KT 160V220 9000NDV OVC014 M01/M04 Q1022 RMK GRN;
0161066099999992010012310504+47400+008650AUTO +0448LSMD V0209999V000510045019N0090001N1+00001-00401999999ADDGA1021+003901999GA2071+004501999GF107991999999999999999999MA1102201999999REMMET076METAR LSMD 231050Z AUTO VRB01KT 9000NDV FEW013 BKN015 M00/M04 Q1022 RMK GRN;
0137066099999992010012311504+47400+008650AUTO +0448LSMD V0209999V001010048019N0090001N1+00101-00301999999ADDGA1081+004801999GF108991999999999999999999MA1102201999999REMMET068METAR LSMD 231150Z AUTO VRB02KT 9000NDV OVC016 01/M03 Q1022 RMK GRN;
0137066099999992010012312504+47400+008650AUTO +0448LSMD V0209999V001012200019N0112651N1+00201-00401999999ADDGA1021+005101999GF102991999999999999999999MA1102101999999REMMET068METAR LSMD 231250Z AUTO VRB02KT 9999NDV FEW017 02/M04 Q1021 RMK BLU;
0118066099999992010012313504+47400+008650AUTO +0448LSMD V0209999C000012200019N0112651N1+00201-00401999999ADDGF100991999999999999999999MA1102101999999REMMET065METAR LSMD 231350Z AUTO 00000KT 9999NDV NCD 02/M04 Q1021 RMK BLU;
0118066099999992010012315504+47400+008650AUTO +0448LSMD V0209999V001012200019N0090001N1+00101-00401999999ADDGF100991999999999999999999MA1102101999999REMMET065METAR LSMD 231550Z AUTO VRB02KT 9000NDV NCD 01/M04 Q1021 RMK BLU;
0118066099999992010012316504+47400+008650AUTO +0448LSMD V0209999V000512200019N0070001N1+00001-00401999999ADDGF100991999999999999999999MA1102101999999REMMET065METAR LSMD 231650Z AUTO VRB01KT 7000NDV NCD 00/M04 Q1021 RMK GRN;
0119066099999992010012317504+47400+008650AUTO +0448LSMD V0201001N001512200019N0060001N1-00101-00401999999ADDGF100991999999999999999999MA1102201999999REMMET066METAR LSMD 231750Z AUTO 10003KT 6000NDV NCD M01/M04 Q1022 RMK GRN;
0128066099999992010012318504+47400+008650AUTO +0448LSMD V0201101N001012200019N0050001N1-00201-00401999999ADDAW1101GF100991999999999999999999MA1102201999999REMMET069METAR LSMD 231850Z AUTO 11002KT 5000NDV BR NCD M02/M04 Q1022 RMK GRN;
0128066099999992010012319504+47400+008650AUTO +0448LSMD V0201101N000512200019N0050001N1-00201-00401999999ADDAW1101GF100991999999999999999999MA1102201999999REMMET069METAR LSMD 231950Z AUTO 11001KT 5000NDV BR NCD M02/M04 Q1022 RMK GRN;
0128066099999992010012320504+47400+008650AUTO +0448LSMD V0201101N001012200019N0046001N1-00301-00401999999ADDAW1101GF100991999999999999999999MA1102201999999REMMET069METAR LSMD 232050Z AUTO 11002KT 4600NDV BR NCD M03/M04 Q1022 RMK GRN;
0128066099999992010012321504+47400+008650AUTO +0448LSMD V0209999V000512200019N0041001N1-00301-00401999999ADDAW1101GF100991999999999999999999MA1102101999999REMMET069METAR LSMD 232150Z AUTO VRB01KT 4100NDV BR NCD M03/M04 Q1021 RMK GRN;
0128066099999992010012322504+47400+008650AUTO +0448LSMD V0209999C000012200019N0043001N1-00301-00401999999ADDAW1101GF100991999999999999999999MA1102101999999REMMET069METAR LSMD 232250Z AUTO 00000KT 4300NDV BR NCD M03/M04 Q1021 RMK GRN;
0147066099999992010012323504+47400+008650AUTO +0448LSMD V0209999C000012200019N0039001N1-00401-00501999999ADDAW1101GA1021+021001999GF102991999999999999999999MA1102101999999REMMET072METAR LSMD 232350Z AUTO 00000KT 3900NDV BR FEW072 M04/M05 Q1021 RMK GRN;
0128066099999992010012400504+47400+008650AUTO +0448LSMD V0201101N001012200019N0038001N1-00401-00501999999ADDAW1101GF100991999999999999999999MA1102101999999REMMET069METAR LSMD 240050Z AUTO 11002KT 3800NDV BR NCD M04/M05 Q1021 RMK GRN;
0128066099999992010012401504+47400+008650AUTO +0448LSMD V0201101N000512200019N0038001N1-00401-00501999999ADDAW1101GF100991999999999999999999MA1102201999999REMMET069METAR LSMD 240150Z AUTO 11001KT 3800NDV BR NCD M04/M05 Q1022 RMK GRN;
0147066099999992010012402504+47400+008650AUTO +0448LSMD V0201201N001512200019N0039001N1-00501-00501999999ADDAW1101GA1021+000601999GF102991999999999999999999MA1102201999999REMMET072METAR LSMD 240250Z AUTO 12003KT 3900NDV BR FEW002 M05/M05 Q1022 RMK GRN;
0147066099999992010012404504+47400+008650AUTO +0448LSMD V0209999C000012200019N0028001N1-00501-00601999999ADDAW1101GA1021+001501999GF102991999999999999999999MA1102201999999REMMET072METAR LSMD 240450Z AUTO 00000KT 2800NDV BR FEW005 M05/M06 Q1022 RMK YLO;
0170066099999992010012405504+47400+008650AUTO +0448LSMD V0209999C000012200019N0037001N1-00501-00601999999ADDAW1101GA1021+001201999GA2041+002101999GF104991999999999999999999MA1102201999999REMMET079METAR LSMD 240550Z AUTO 00000KT 3700NDV BR FEW004 SCT007 M05/M06 Q1022 RMK GRN;
0170066099999992010012406504+47400+008650AUTO +0448LSMD V0201001N000512200019N0042001N1-00501-00601999999ADDAW1101GA1041+001801999GA2041+004201999GF104991999999999999999999MA1102201999999REMMET079METAR LSMD 240650Z AUTO 10001KT 4200NDV BR SCT006 SCT014 M05/M06 Q1022 RMK GRN;
0147066099999992010012407504+47400+008650AUTO +0448LSMD V0209999C000012200019N0028001N1-00501-00601999999ADDAW1101GA1021+000901999GF102991999999999999999999MA1102201999999REMMET072METAR LSMD 240750Z AUTO 00000KT 2800NDV BR FEW003 M05/M06 Q1022 RMK YLO;
0147066099999992010012408504+47400+008650AUTO +0448LSMD V0209999C000010009019N0034001N1-00401-00501999999ADDAW1101GA1071+000901999GF107991999999999999999999MA1102201999999REMMET072METAR LSMD 240850Z AUTO 00000KT 3400NDV BR BKN003 M04/M05 Q1022 RMK AMB;
0155066099999992010012409504+47400+008650AUTO +0448LSMD V0203001N002112200019N0023001N1-00301-00401999999ADDAW1101GA1041+001201999GF104991999999999999999999MA1102301999999REMMET080METAR LSMD 240950Z AUTO 30004KT 260V330 2300NDV BR SCT004 M03/M04 Q1023 RMK YLO;
0186066099999992010012410504+47400+008650AUTO +0448LSMD V0202701N001512200019N0013001N1-00201-00301999999ADDAW1101ED199U16009GA1041+000901999GF104991999999999999999999MA1102301999999REMMET100METAR LSMD 241050Z AUTO 27003KT 240V320 1300NDV R11/1600N R29/1700N BR SCT003 M02/M03 Q1023 RMK RED;
0147066099999992010012411504+47400+008650AUTO +0448LSMD V0209999V001012200019N0022001N1-00101-00201999999ADDAW1101GA1021+000601999GF102991999999999999999999MA1102201999999REMMET072METAR LSMD 241150Z AUTO VRB02KT 2200NDV BR FEW002 M01/M02 Q1022 RMK YLO;
0127066099999992010012412504+47400+008650AUTO +0448LSMD V0209999V001012200019N0034001N1+00101-00201999999ADDAW1101GF100991999999999999999999MA1102201999999REMMET068METAR LSMD 241250Z AUTO VRB02KT 3400NDV BR NCD 01/M02 Q1022 RMK GRN;
0137066099999992010012413504+47400+008650AUTO +0448LSMD V0209999V001012200019N0043001N1+00101-00301999999ADDGA1041+033001999GF104991999999999999999999MA1102201999999REMMET068METAR LSMD 241350Z AUTO VRB02KT 4300NDV SCT110 01/M03 Q1022 RMK GRN;
0146066099999992010012414504+47400+008650AUTO +0448LSMD V0209999C000012200019N0045001N1+00101-00301999999ADDAW1101GA1021+030001999GF102991999999999999999999MA1102101999999REMMET071METAR LSMD 241450Z AUTO 00000KT 4500NDV BR FEW100 01/M03 Q1021 RMK GRN;
0137066099999992010012415504+47400+008650AUTO +0448LSMD V0202901N000512200019N0047001N1+00101-00301999999ADDGA1021+042001999GF102991999999999999999999MA1102101999999REMMET068METAR LSMD 241550Z AUTO 29001KT 4700NDV FEW140 01/M03 Q1021 RMK GRN;
0192066099999992010012416504+47400+008650AUTO +0448LSMD V0209999C000010390019N0049001N1+00001-00301999999ADDAW1101GA1041+033001999GA2071+039001999GA3071+048001999GF107991999999999999999999MA1102201999999REMMET085METAR LSMD 241650Z AUTO 00000KT 4900NDV BR SCT110 BKN130 BKN160 00/M03 Q1022 RMK GRN;
0147066099999992010012417504+47400+008650AUTO +0448LSMD V0209999C000012200019N0040001N1+00001-00201999999ADDAW1101GA1041+036001999GF104991999999999999999999MA1102201999999REMMET072METAR LSMD 241750Z AUTO 00000KT 4000NDV BR SCT120 M00/M02 Q1022 RMK GRN;
0170066099999992010012418504+47400+008650AUTO +0448LSMD V0209999C000010390019N0036001N1-00101-00201999999ADDAW1101GA1041+009301999GA2081+039001999GF108991999999999999999999MA1102201999999REMMET079METAR LSMD 241850Z AUTO 00000KT 3600NDV BR SCT031 OVC130 M01/M02 Q1022 RMK GRN;
0147066099999992010012419504+47400+008650AUTO +0448LSMD V0209999C000010087019N0043001N1+00001-00201999999ADDAW1101GA1081+008701999GF108991999999999999999999MA1102201999999REMMET072METAR LSMD 241950Z AUTO 00000KT 4300NDV BR OVC029 M00/M02 Q1022 RMK GRN;
0147066099999992010012420504+47400+008650AUTO +0448LSMD V0209999C000010087019N0041001N1+00001-00201999999ADDAW1101GA1081+008701999GF108991999999999999999999MA1102201999999REMMET072METAR LSMD 242050Z AUTO 00000KT 4100NDV BR OVC029 M00/M02 Q1022 RMK GRN;
0169066099999992010012421504+47400+008650AUTO +0448LSMD V0209999C000010087019N0047001N1+00001-00201999999ADDAW1101GA1071+008701999GA2081+010201999GF108991999999999999999999MA1102201999999REMMET078METAR LSMD 242150Z AUTO 00000KT 4700NDV BR BKN029 OVC034 00/M02 Q1022 RMK GRN;
0147066099999992010012422504+47400+008650AUTO +0448LSMD V0209999C000010108019N0045001N1+00001-00201999999ADDAW1101GA1081+010801999GF108991999999999999999999MA1102201999999REMMET072METAR LSMD 242250Z AUTO 00000KT 4500NDV BR OVC036 M00/M02 Q1022 RMK GRN;
0193066099999992010012423504+47400+008650AUTO +0448LSMD V0201101N00051012001CN0042001N1-00101-00201999999ADDAW1101GA1041+010501999GA2041+012001999GA3081+036001999GF108991999999999999999999MA1102201999999REMMET086METAR LSMD 242350Z AUTO 11001KT 4200NDV BR SCT035 SCT040 OVC120 M01/M02 Q1022 RMK GRN;
0193066099999992010012500504+47400+008650AUTO +0448LSMD V0209999C00001030001CN0041001N1-00101-00201999999ADDAW1101GA1021+011101999GA2041+030001999GA3081+036001999GF108991999999999999999999MA1102201999999REMMET086METAR LSMD 250050Z AUTO 00000KT 4100NDV BR FEW037 SCT100 OVC120 M01/M02 Q1022 RMK GRN;
0147066099999992010012501504+47400+008650AUTO +0448LSMD V0209999V000510330019N0039001N1-00101-00201999999ADDAW1101GA1081+033001999GF108991999999999999999999MA1102201999999REMMET072METAR LSMD 250150Z AUTO VRB01KT 3900NDV BR OVC110 M01/M02 Q1022 RMK GRN;
0170066099999992010012502504+47400+008650AUTO +0448LSMD V0209999V001010054019N0035001N1-00101-00201999999ADDAW1101GA1071+005401999GA2081+030001999GF108991999999999999999999MA1102201999999REMMET079METAR LSMD 250250Z AUTO VRB02KT 3500NDV BR BKN018 OVC100 M01/M02 Q1022 RMK GRN;
0205066099999992010012503504+47400+008650AUTO +0448LSMD V0209999C000010045019N0025001N1-00101-00201999999ADDAW1101AW2671GA1071+004501999GA2071+005701999GA3081+009301999GF108991999999999999999999MA1102201999999REMMET092METAR LSMD 250350Z AUTO 00000KT 2500NDV -RASN BR BKN015 BKN019 OVC031 M01/M02 Q1022 RMK YLO;
0203066099999992010012504504+47400+008650AUTO +0448LSMD V0209999C000010048019N0021001N1-00101-00101999999ADDAW1101AW2711GA1021+003301999GA2071+004801999GA3071+007201999GF107991999999999999999999MA1102201999999REMMET090METAR LSMD 250450Z AUTO 00000KT 2100NDV -SN BR FEW011 BKN016 BKN024 M01/M01 Q1022 RMK YLO;
0195066099999992010012505504+47400+008650FM-15+0448LSMD V0209999C00001003601CN0017001N1+00001-00101999999ADDGA1021+002701999GA2041+003601999GA3081+004501999GF108991999999999999999999MA1102201999999MW1101MW2711REMMET082METAR LSMD 250550Z 00000KT 1700 -SN BR FEW009 SCT012 OVC015 M00/M01 Q1022 RMK AMB;
0186066099999992010012506504+47400+008650FM-15+0448LSMD V0201101N00101003901CN0020001N1+00001-00101999999ADDGA1021+002101999GA2041+003901999GA3071+005101999GF107991999999999999999999MA1102301999999MW1711REMMET079METAR LSMD 250650Z 11002KT 2000 -SN FEW007 SCT013 BKN017 M00/M01 Q1023 RMK AMB;
0186066099999992010012507504+47400+008650FM-15+0448LSMD V0209999C00001001801CN0015001N1+00001-00101999999ADDGA1021+000601999GA2041+001801999GA3071+002701999GF107991999999999999999999MA1102401999999MW1711REMMET079METAR LSMD 250750Z 00000KT 1500 -SN FEW002 SCT006 BKN009 M00/M01 Q1024 RMK RED;
0216066099999992010012508504+47400+008650FM-15+0448LSMD V0209999C00001002401CN0012001N1+00001-00101999999ADDED199U17009GA1021+001801999GA2041+002401999GA3081+003301999GF108991999999999999999999MA1102401999999MW1711REMMET098METAR LSMD 250850Z 00000KT 1200 R11/1700N R29/1700N -SN FEW006 SCT008 OVC011 00/M01 Q1024 RMK RED;
0185066099999992010012509504+47400+008650FM-15+0448LSMD V0209999V00101003001CN0015001N1+00101+00001999999ADDGA1021+000601999GA2041+003001999GA3071+008401999GF107991999999999999999999MA1102511999999MW1711REMMET078METAR LSMD 250950Z VRB02KT 1500 -SN FEW002 SCT010 BKN028 01/M00 Q1025 RMK RED;
0184066099999992010012510504+47400+008650FM-15+0448LSMD V0209999V00051003601CN0020001N1+00101+00001999999ADDGA1021+000901999GA2041+003601999GA3081+004201999GF108991999999999999999999MA1102511999999MW1101REMMET077METAR LSMD 251050Z VRB01KT 2000 BR FEW003 SCT012 OVC014 01/M00 Q1025 RMK YLO;
0161066099999992010012511504+47400+008650FM-15+0448LSMD V0209999V001010024019N0016001N1+00101+00001999999ADDGA1021+000901999GA2081+002401999GF108991999999999999999999MA1102401999999MW1101REMMET070METAR LSMD 251150Z VRB02KT 1600 BR FEW003 OVC008 01/M00 Q1024 RMK AMB;
0160066099999992010012512504+47400+008650FM-15+0448LSMD V0203001N002110096019N0112651N1+00201-00101999999ADDGA1021+003601999GA2081+009601999GF108991999999999999999999MA1102401999999REMMET075METAR LSMD 251250Z 30004KT 280V340 9999 FEW012 OVC032 02/M01 Q1024 RMK WHT;
0160066099999992010012513504+47400+008650FM-15+0448LSMD V0203101N001510039019N0112651N1+00201+00001999999ADDGA1041+003301999GA2081+003901999GF108991999999999999999999MA1102511999999REMMET075METAR LSMD 251350Z 31003KT 270V340 9999 SCT011 OVC013 02/M00 Q1025 RMK GRN;
0175066099999992010012514504+47400+008650FM-15+0448LSMD V0209999C00001004201CN0112651N1+00201+00001999999ADDGA1021+003601999GA2041+004201999GA3081+005101999GF108991999999999999999999MA1102511999999REMMET074METAR LSMD 251450Z 00000KT 9999 FEW012 SCT014 OVC017 02/M00 Q1025 RMK GRN;
0152066099999992010012515504+47400+008650FM-15+0448LSMD V0209999C000010042019N0112651N1+00201+00001999999ADDGA1041+003601999GA2081+004201999GF108991999999999999999999MA1102611999999REMMET067METAR LSMD 251550Z 00000KT 9999 SCT012 OVC014 02/M00 Q1026 RMK GRN;
0159066099999992010012516504+47400+008650AUTO +0448LSMD V0209999C000010033019N0050001N1+00201+00001999999ADDGA1021+002101999GA2081+003301999GF108991999999999999999999MA1102611999999REMMET074METAR LSMD 251650Z AUTO 00000KT 5000NDV FEW007 OVC011 02/00 Q1026 RMK GRN;
0159066099999992010012517504+47400+008650AUTO +0448LSMD V0209999C000010066019N0070001N1+00201+00001999999ADDGA1021+002701999GA2081+006601999GF108991999999999999999999MA1102711999999REMMET074METAR LSMD 251750Z AUTO 00000KT 7000NDV FEW009 OVC022 02/00 Q1027 RMK GRN;
0182066099999992010012518504+47400+008650AUTO +0448LSMD V0209999C000010051019N0090001N1+00101+00001999999ADDGA1021+003301999GA2071+005101999GA3081+006301999GF108991999999999999999999MA1102711999999REMMET081METAR LSMD 251850Z AUTO 00000KT 9000NDV FEW011 BKN017 OVC021 01/00 Q1027 RMK GRN;
0136066099999992010012519504+47400+008650AUTO +0448LSMD V0209999C000010063019N0090001N1+00101+00001999999ADDGA1081+006301999GF108991999999999999999999MA1102711999999REMMET067METAR LSMD 251950Z AUTO 00000KT 9000NDV OVC021 01/00 Q1027 RMK WHT;
0159066099999992010012520504+47400+008650AUTO +0448LSMD V0203201N001010066019N0080001N1+00101+00001999999ADDGA1021+001801999GA2081+006601999GF108991999999999999999999MA1102811999999REMMET074METAR LSMD 252050Z AUTO 32002KT 8000NDV FEW006 OVC022 01/00 Q1028 RMK WHT;
0160066099999992010012521504+47400+008650AUTO +0448LSMD V0209999C000010072019N0050001N1+00101+00001999999ADDGA1021+002101999GA2081+007201999GF108991999999999999999999MA1102811999999REMMET075METAR LSMD 252150Z AUTO 00000KT 5000NDV FEW007 OVC024 01/M00 Q1028 RMK GRN;
0146066099999992010012522504+47400+008650AUTO +0448LSMD V0209999C000010069019N0050001N1+00101+00001999999ADDAW1101GA1081+006901999GF108991999999999999999999MA1102811999999REMMET071METAR LSMD 252250Z AUTO 00000KT 5000NDV BR OVC023 01/M00 Q1028 RMK GRN;
0192066099999992010012523504+47400+008650AUTO +0448LSMD V0203001N00051003901CN0046001N1+00101+00001999999ADDAW1101GA1021+003301999GA2041+003901999GA3081+006901999GF108991999999999999999999MA1102811999999REMMET085METAR LSMD 252350Z AUTO 30001KT 4600NDV BR FEW011 SCT013 OVC023 01/M00 Q1028 RMK GRN;
0183066099999992010012600504+47400+008650AUTO +0448LSMD V0203201N002110048019N0070001N1+00101+00001999999ADDGA1041+004201999GA2071+004801999GA3081+006001999GF108991999999999999999999MA1102811999999REMMET082METAR LSMD 260050Z AUTO 32004KT 7000NDV SCT014 BKN016 OVC020 01/M00 Q1028 RMK GRN;
0183066099999992010012601504+47400+008650AUTO +0448LSMD V0203001N00101004201CN0060001N1+00101+00001999999ADDGA1021+003301999GA2041+004201999GA3081+005401999GF108991999999999999999999MA1102811999999REMMET082METAR LSMD 260150Z AUTO 30002KT 6000NDV FEW011 SCT014 OVC018 01/M00 Q1028 RMK GRN;
0160066099999992010012602504+47400+008650AUTO +0448LSMD V0203001N002110048019N0060001N1+00101-00101999999ADDGA1041+003601999GA2081+004801999GF108991999999999999999999MA1102811999999REMMET075METAR LSMD 260250Z AUTO 30004KT 6000NDV SCT012 OVC016 01/M01 Q1028 RMK GRN;
0160066099999992010012603504+47400+008650AUTO +0448LSMD V0203101N002610039019N0060001N1+00101-00101999999ADDGA1041+003301999GA2081+003901999GF108991999999999999999999MA1102811999999REMMET075METAR LSMD 260350Z AUTO 31005KT 6000NDV SCT011 OVC013 01/M01 Q1028 RMK GRN;
0160066099999992010012604504+47400+008650AUTO +0448LSMD V0203101N003110036019N0060001N1+00001-00101999999ADDGA1021+002701999GA2081+003601999GF108991999999999999999999MA1102811999999REMMET075METAR LSMD 260450Z AUTO 31006KT 6000NDV FEW009 OVC012 00/M01 Q1028 RMK GRN;
0162066099999992010012605504+47400+008650FM-15+0448LSMD V0203201N003110036019N0060001N1+00001-00201999999ADDGA1041+002701999GA2081+003601999GF108991999999999999999999MA1102811999999MW1711REMMET071METAR LSMD 260550Z 32006KT 6000 -SN SCT009 OVC012 00/M02 Q1028 RMK GRN;
0171066099999992010012606504+47400+008650FM-15+0448LSMD V0203101N002610033019N0015001N1+00001-00101999999ADDGA1071+003301999GA2081+004501999GF108991999999999999999999MA1102811999999MW1101MW2731REMMET074METAR LSMD 260650Z 31005KT 1500 SN BR BKN011 OVC015 M00/M01 Q1028 RMK YLO;
0186066099999992010012607504+47400+008650FM-15+0448LSMD V0203301N002110012019N0011001N1-00101-00101999999ADDED199U17009GA1091+001201999GF109991999999000251999999MA1102811999999MW1101MW2731REMMET094METAR LSMD 260750Z 33004KT 290V350 1100 R11/1700D R29/1600N SN BR VV004 M01/M01 Q1028 RMK RED;
0200066099999992010012608504+47400+008650FM-15+0448LSMD V0203001N00151003301CN0040001N1-00101-00101999999ADDGA1021+002101999GA2041+003301999GA3081+006601999GF108991999999999999999999MA1102911999999MW1101MW2711REMMET087METAR LSMD 260850Z 30003KT 4000 -SN BR FEW007 SCT011 OVC022 M01/M01 Q1029 RESN RMK YLO;
0218066099999992010012609504+47400+008650FM-15+0448LSMD V0203301N001510036019N0015001N1-00101-00101999999ADDED199U20009GA1021+002401999GA2081+003601999GF108991999999999999999999MA1102911999999MW1101MW2731REMMET110METAR LSMD 260950Z 33003KT 310V020 1500 1300SE R11/P2000D R29/1800D SN BR FEW008 OVC012 M01/M01 Q1029 RMK RED;
