0140066040999992011010100004+47000+006950FM-12+0487LSGN V0203001N001519999999N9999999N1-00071-00101102471ADDMA1999999096471MD1710061+9999OA149900311REMSYN088AAXX  01004 06604 33/// /3003 11007 21010 39647 40247 57006 333 55300 20000 91106 91204;
0140066040999992011010101004+47000+006950FM-12+0487LSGN V0209999C000019999999N9999999N1-00081-00081102441ADDMA1999999096441MD1710091+9999OA149900211REMSYN088AAXX  01014 06604 33/// /0000 11008 21008 39644 40244 57009 333 55300 20000 91104 91203;
0140066040999992011010102004+47000+006950FM-12+0487LSGN V0202901N001019999999N9999999N1-00051-00051102411ADDMA1999999096421MD1610091+9999OA149900211REMSYN088AAXX  01024 06604 33/// /2902 11005 21005 39642 40241 56009 333 55300 20000 91104 91203;
0140066040999992011010103004+47000+006950FM-12+0487LSGN V0202601N001019999999N9999999N1-00041-00061102401ADDMA1999999096411MD1610061+9999OA149900261REMSYN088AAXX  01034 06604 33/// /2602 11004 21006 39641 40240 56006 333 55300 20000 91105 91203;
0140066040999992011010104004+47000+006950FM-12+0487LSGN V0202601N001519999999N9999999N1-00021-00051102351ADDMA1999999096371MD1810071+9999OA149900261REMSYN088AAXX  01044 06604 33/// /2603 11002 21005 39637 40235 58007 333 55300 20000 91105 91203;
0140066040999992011010105004+47000+006950FM-12+0487LSGN V0202801N001519999999N9999999N1-00051-00081102381ADDMA1999999096391MD1710031+9999OA149900311REMSYN088AAXX  01054 06604 33/// /2803 11005 21008 39639 40238 57003 333 55300 20000 91106 91204;
0207066040999992011010106004+47000+006950FM-12+0487LSGN V0202801N003119999999N9999999N1-00031-00081102371ADDAL19900091GJ100009IA2999-00109KA1999N-00101MA1999999096381MD1710031+9999OA149900511REMSYN112AAXX  01064 06604 33/// /2806 11003 21008 39638 40237 57003 333 21010 3/101 55000 55300 20000 70000 91110 91207;
0140066040999992011010107004+47000+006950FM-12+0487LSGN V0202801N002619999999N9999999N1-00011-00081102391ADDMA1999999096411MD1210041+9999OA149900511REMSYN088AAXX  01074 06604 33/// /2805 11001 21008 39641 40239 52004 333 55300 20000 91110 91207;
0140066040999992011010108004+47000+006950FM-12+0487LSGN V0202701N001519999999N9999999N1+00021-00091102401ADDMA1999999096421MD1219999+9999OA149900461REMSYN088AAXX  01084 06604 33/// /2703 10002 21009 39642 40240 52/// 333 55300 20025 91109 91206;
0087066040999992011010109004+47000+006950FM-12+0487LSGN V0202701N002119999999N9999999N1+00081-00061102381ADDMA1999999096421REMSYN060AAXX  01094 06604 43/// /2704 10008 21006 39642 40238 5////;
0087066040999992011010110004+47000+006950FM-12+0487LSGN V0202701N001519999999N9999999N1+00141-00031102361ADDMA1999999096411REMSYN060AAXX  01104 06604 43/// /2703 10014 21003 39641 40236 5////;
0140066040999992011010111004+47000+006950FM-12+0487LSGN V0200901N001019999999N9999999N1+00081+00051102331ADDMA1999999096371MD1710051+9999OA149900361REMSYN088AAXX  01114 06604 33/// /0902 10008 20005 39637 40233 57005 333 55300 20335 91107 91204;
0087066040999992011010112004+47000+006950FM-12+0487LSGN V0201001N000519999999N9999999N1+00081+00061102281ADDMA1999999096321REMSYN060AAXX  01124 06604 43/// /1001 10008 20006 39632 40228 5////;
0087066040999992011010113004+47000+006950FM-12+0487LSGN V0200701N001019999999N9999999N1+00111+00071102191ADDMA1999999096241REMSYN060AAXX  01134 06604 43/// /0702 10011 20007 39624 40219 5////;
0087066040999992011010114004+47000+006950FM-12+0487LSGN V0202301N000519999999N9999999N1+00151-00041102161ADDMA1999999096221REMSYN060AAXX  01144 06604 43/// /2301 10015 21004 39622 40216 5////;
0087066040999992011010115004+47000+006950FM-12+0487LSGN V0203401N000519999999N9999999N1+00151+00001102151ADDMA1999999096211REMSYN060AAXX  01154 06604 43/// /3401 10015 20000 39621 40215 5////;
0087066040999992011010116004+47000+006950FM-12+0487LSGN V0202901N000519999999N9999999N1+00131-00011102131ADDMA1999999096191REMSYN060AAXX  01164 06604 43/// /2901 10013 21001 39619 40213 5////;
0087066040999992011010117004+47000+006950FM-12+0487LSGN V0200701N001019999999N9999999N1+00111-00011102141ADDMA1999999096201REMSYN060AAXX  01174 06604 43/// /0702 10011 21001 39620 40214 5////;
0087066040999992011010118004+47000+006950FM-12+0487LSGN V0200601N002119999999N9999999N1+00081-00021102141ADDMA1999999096191REMSYN060AAXX  01184 06604 43/// /0604 10008 21002 39619 40214 5////;
0103066040999992011010119004+47000+006950FM-12+0487LSGN V0200501N002119999999N9999999N1+00051-00061102171ADDMA1999999096211REMSYN076AAXX  01194 06604 33/// /0504 10005 21006 39621 40217 5//// 333 553// 20000;
0140066040999992011010120004+47000+006950FM-12+0487LSGN V0200501N001519999999N9999999N1+00041-00041102181ADDMA1999999096221MD1210021+9999OA149900361REMSYN088AAXX  01204 06604 33/// /0503 10004 21004 39622 40218 52002 333 55300 20000 91107 91204;
0140066040999992011010121004+47000+006950FM-12+0487LSGN V0200801N002119999999N9999999N1+00081-00041102171ADDMA1999999096221MD1210031+9999OA149900361REMSYN088AAXX  01214 06604 33/// /0804 10008 21004 39622 40217 52003 333 55300 20000 91107 91204;
0140066040999992011010122004+47000+006950FM-12+0487LSGN V0200701N003119999999N9999999N1+00041-00031102151ADDMA1999999096191MD1810021+9999OA149900461REMSYN088AAXX  01224 06604 33/// /0706 10004 21003 39619 40215 58002 333 55300 20000 91109 91206;
0140066040999992011010123004+47000+006950FM-12+0487LSGN V0200501N001519999999N9999999N1+00041-00051102101ADDMA1999999096141MD1710081+9999OA149900461REMSYN088AAXX  01234 06604 33/// /0503 10004 21005 39614 40210 57008 333 55300 20000 91109 91206;
0140066040999992011010200004+47000+006950FM-12+0487LSGN V0200701N001019999999N9999999N1+00031-00061102071ADDMA1999999096111MD1610111+9999OA149900461REMSYN088AAXX  02004 06604 33/// /0702 10003 21006 39611 40207 56011 333 55300 20000 91109 91206;
0140066040999992011010201004+47000+006950FM-12+0487LSGN V0200801N001519999999N9999999N1+00031-00081102071ADDMA1999999096111MD1710081+9999OA149900311REMSYN088AAXX  02014 06604 33/// /0803 10003 21008 39611 40207 57008 333 55300 20000 91106 91204;
0087066040999992011010202004+47000+006950FM-12+0487LSGN V0200801N001519999999N9999999N1+00041-00161102101ADDMA1999999096141REMSYN060AAXX  02024 06604 43/// /0803 10004 21016 39614 40210 5////;
0087066040999992011010203004+47000+006950FM-12+0487LSGN V0200501N001519999999N9999999N1+00031-00171102091ADDMA1999999096131REMSYN060AAXX  02034 06604 43/// /0503 10003 21017 39613 40209 5////;
0087066040999992011010204004+47000+006950FM-12+0487LSGN V0200501N001519999999N9999999N1+00021-00151102091ADDMA1999999096131REMSYN060AAXX  02044 06604 43/// /0503 10002 21015 39613 40209 5////;
0087066040999992011010205004+47000+006950FM-12+0487LSGN V0200501N002119999999N9999999N1+00031-00181102101ADDMA1999999096141REMSYN060AAXX  02054 06604 43/// /0504 10003 21018 39614 40210 5////;
0134066040999992011010206004+47000+006950FM-12+0487LSGN V0200701N002119999999N9999999N1+00011-00231102091ADDIA2999+00009KA1999N+00011MA1999999096131REMSYN082AAXX  02064 06604 43/// /0704 10001 21023 39613 40209 5//// 333 20001 3/100 55000;
0159066040999992011010207004+47000+006950FM-12+0487LSGN V0200601N002119999999N9999999N1+00041-00231102091ADDMA1999999096131MD1410001+9999OA149900461REMSYN088AAXX  02074 06604 33/// /0604 10004 21023 39613 40209 57000 333 55300 20000 91109 91205;EQDQ01+000072APCTEN
0140066040999992011010208004+47000+006950FM-12+0487LSGN V0200601N001519999999N9999999N1+00061-00261102131ADDMA1999999096181MD1310041+9999OA149900461REMSYN088AAXX  02084 06604 33/// /0603 10006 21026 39618 40213 53004 333 55300 20011 91109 91205;
0140066040999992011010209004+47000+006950FM-12+0487LSGN V0200801N002119999999N9999999N1+00091-00201102171ADDMA1999999096221MD1310091+9999OA149900461REMSYN088AAXX  02094 06604 33/// /0804 10009 21020 39622 40217 53009 333 55300 20097 91109 91205;
0140066040999992011010210004+47000+006950FM-12+0487LSGN V0200901N003619999999N9999999N1+00071-00161102211ADDMA1999999096251MD1210121+9999OA149900621REMSYN088AAXX  02104 06604 33/// /0907 10007 21016 39625 40221 52012 333 55300 20209 91112 91207;
0140066040999992011010211004+47000+006950FM-12+0487LSGN V0200701N002619999999N9999999N1+00091-00091102191ADDMA1999999096241MD1210061+9999OA149900621REMSYN088AAXX  02114 06604 33/// /0705 10009 21009 39624 40219 52006 333 55300 20256 91112 91208;
0140066040999992011010212004+47000+006950FM-12+0487LSGN V0200701N003119999999N9999999N1+00161-00161102131ADDMA1999999096201MD1810021+9999OA149900621REMSYN088AAXX  02124 06604 33/// /0706 10016 21016 39620 40213 58002 333 55300 20461 91112 91208;
0140066040999992011010213004+47000+006950FM-12+0487LSGN V0200401N003619999999N9999999N1+00141-00201102141ADDMA1999999096201MD1610051+9999OA149900771REMSYN088AAXX  02134 06604 33/// /0407 10014 21020 39620 40214 56005 333 55300 20400 91115 91208;
0103066040999992011010214004+47000+006950FM-12+0487LSGN V0200601N003619999999N9999999N1+00131-00381102161ADDMA1999999096221REMSYN076AAXX  02144 06604 33/// /0607 10013 21038 39622 40216 5//// 333 553// 20263;
0140066040999992011010215004+47000+006950FM-12+0487LSGN V0200701N004619999999N9999999N1+00111-00471102221ADDMA1999999096271MD1310071+9999OA149900931REMSYN088AAXX  02154 06604 33/// /0709 10011 21047 39627 40222 53007 333 55300 20097 91118 91209;
0140066040999992011010216004+47000+006950FM-12+0487LSGN V0200301N003119999999N9999999N1+00071-00461102261ADDMA1999999096301MD1310101+9999OA149900981REMSYN088AAXX  02164 06604 33/// /0306 10007 21046 39630 40226 53010 333 55300 20036 91119 91210;
0140066040999992011010217004+47000+006950FM-12+0487LSGN V0200401N005719999999N9999999N1+00061-00561102281ADDMA1999999096321MD1210101+9999OA149900981REMSYN088AAXX  02174 06604 33/// /0411 10006 21056 39632 40228 52010 333 55300 20000 91119 91211;
0159066040999992011010218004+47000+006950FM-12+0487LSGN V0200301N004619999999N9999999N1+00031-00471102321ADDKA1120M+00171MA1999999096351MD1210081+9999OA149901081REMSYN094AAXX  02184 06604 33/// /0309 10003 21047 39635 40232 52008 333 10017 55300 20000 91121 91211;
0140066040999992011010219004+47000+006950FM-12+0487LSGN V0200401N004619999999N9999999N1+00001-00521102361ADDMA1999999096381MD1210081+9999OA149901081REMSYN088AAXX  02194 06604 33/// /0409 10000 21052 39638 40236 52008 333 55300 20000 91121 91211;
0140066040999992011010220004+47000+006950FM-12+0487LSGN V0200401N004119999999N9999999N1-00041-00601102401ADDMA1999999096411MD1310091+9999OA149900981REMSYN088AAXX  02204 06604 33/// /0408 11004 21060 39641 40240 53009 333 55300 20000 91119 91210;
0140066040999992011010221004+47000+006950FM-12+0487LSGN V0200301N005719999999N9999999N1-00031-00711102401ADDMA1999999096411MD1110061+9999OA149901081REMSYN088AAXX  02214 06604 33/// /0311 11003 21071 39641 40240 51006 333 55300 20000 91121 91211;
0140066040999992011010222004+47000+006950FM-12+0487LSGN V0200401N005119999999N9999999N1-00051-00711102431ADDMA1999999096431MD1110051+9999OA149901131REMSYN088AAXX  02224 06604 33/// /0410 11005 21071 39643 40243 51005 333 55300 20000 91122 91211;
0140066040999992011010223004+47000+006950FM-12+0487LSGN V0200401N005119999999N9999999N1-00081-00791102441ADDMA1999999096441MD1210031+9999OA149901131REMSYN088AAXX  02234 06604 33/// /0410 11008 21079 39644 40244 52003 333 55300 20000 91122 91211;
0140066040999992011010300004+47000+006950FM-12+0487LSGN V0200501N005119999999N9999999N1-00121-00801102461ADDMA1999999096451MD1210041+9999OA149901131REMSYN088AAXX  03004 06604 33/// /0510 11012 21080 39645 40246 52004 333 55300 20000 91122 91211;
0140066040999992011010301004+47000+006950FM-12+0487LSGN V0200701N002619999999N9999999N1-00171-00801102481ADDMA1999999096461MD1210031+9999OA149901031REMSYN088AAXX  03014 06604 33/// /0705 11017 21080 39646 40248 52003 333 55300 20000 91120 91210;
0140066040999992011010302004+47000+006950FM-12+0487LSGN V0200601N002619999999N9999999N1-00211-00821102501ADDMA1999999096471MD1319999+9999OA149900821REMSYN088AAXX  03024 06604 33/// /0605 11021 21082 39647 40250 53/// 333 55300 20000 91116 91209;
0087066040999992011010303004+47000+006950FM-12+0487LSGN V0200601N002619999999N9999999N1-00251-00851102511ADDMA1999999096471REMSYN060AAXX  03034 06604 43/// /0605 11025 21085 39647 40251 5////;
0140066040999992011010304004+47000+006950FM-12+0487LSGN V0200501N002619999999N9999999N1-00231-00871102501ADDMA1999999096461MD1010001+9999OA149900511REMSYN088AAXX  03044 06604 33/// /0505 11023 21087 39646 40250 50000 333 55300 20000 91110 91206;
0140066040999992011010305004+47000+006950FM-12+0487LSGN V0200401N004119999999N9999999N1-00191-00861102471ADDMA1999999096441MD1710031+9999OA149900671REMSYN088AAXX  03054 06604 33/// /0408 11019 21086 39644 40247 57003 333 55300 20000 91113 91208;
0207066040999992011010306004+47000+006950FM-12+0487LSGN V0200501N003619999999N9999999N1-00191-00881102461ADDAL19900091GJ100009IA2999-00609KA1999N-00321MA1999999096431MD1610041+9999OA149901131REMSYN112AAXX  03064 06604 33/// /0507 11019 21088 39643 40246 56004 333 21032 3/106 55000 55300 20000 70000 91122 91211;
0140066040999992011010307004+47000+006950FM-12+0487LSGN V0200501N001019999999N9999999N1-00221-00881102451ADDMA1999999096421MD1610041+9999OA149900771REMSYN088AAXX  03074 06604 33/// /0502 11022 21088 39642 40245 56004 333 55300 20000 91115 91209;
0140066040999992011010308004+47000+006950FM-12+0487LSGN V0200601N003619999999N9999999N1-00181-00881102461ADDMA1999999096431MD1719999+9999OA149900821REMSYN088AAXX  03084 06604 33/// /0607 11018 21088 39643 40246 57/// 333 55304 20065 91116 91208;
0103066040999992011010309004+47000+006950FM-12+0487LSGN V0200801N004119999999N9999999N1-00131-00561102441ADDMA1999999096431REMSYN076AAXX  03094 06604 33/// /0808 11013 21056 39643 40244 5//// 333 553// 20461;
0140066040999992011010310004+47000+006950FM-12+0487LSGN V0200801N004619999999N9999999N1-00071-00611102471ADDMA1999999096471MD1210051+9999OA149900771REMSYN088AAXX  03104 06604 33/// /0809 11007 21061 39647 40247 52005 333 553// 20900 91115 91210;
0140066040999992011010311004+47000+006950FM-12+0487LSGN V0200801N005719999999N9999999N1-00031-00621102431ADDMA1999999096441MD1010011+9999OA149900881REMSYN088AAXX  03114 06604 33/// /0811 11003 21062 39644 40243 50001 333 553// 2//// 91117 91211;
0140066040999992011010312004+47000+006950FM-12+0487LSGN V0200701N006219999999N9999999N1+00041-00691102341ADDMA1999999096371MD1810061+9999OA149901031REMSYN088AAXX  03124 06604 33/// /0712 10004 21069 39637 40234 58006 333 553// 2//// 91120 91212;
0140066040999992011010313004+47000+006950FM-12+0487LSGN V0200701N005119999999N9999999N1+00061-00681102311ADDMA1999999096351MD1610121+9999OA149901031REMSYN088AAXX  03134 06604 33/// /0710 10006 21068 39635 40231 56012 333 553// 2//// 91120 91212;
0103066040999992011010314004+47000+006950FM-12+0487LSGN V0200701N005119999999N9999999N1+00021-00811102321ADDMA1999999096351REMSYN076AAXX  03144 06604 33/// /0710 10002 21081 39635 40232 5//// 333 553// 20968;
0103066040999992011010315004+47000+006950FM-12+0487LSGN V0200701N003619999999N9999999N1-00021-00691102321ADDMA1999999096341REMSYN076AAXX  03154 06604 33/// /0707 11002 21069 39634 40232 5//// 333 553// 20554;
0140066040999992011010316004+47000+006950FM-12+0487LSGN V0200701N001519999999N9999999N1-00111-00711102331ADDMA1999999096331MD1810021+9999OA149900881REMSYN088AAXX  03164 06604 33/// /0703 11011 21071 39633 40233 58002 333 55305 20119 91117 91210;
0140066040999992011010317004+47000+006950FM-12+0487LSGN V0200401N001019999999N9999999N1-00191-00701102361ADDMA1999999096341MD1710011+9999OA149900621REMSYN088AAXX  03174 06604 33/// /0402 11019 21070 39634 40236 57001 333 55300 20000 91112 91206;
0159066040999992011010318004+47000+006950FM-12+0487LSGN V0200501N002119999999N9999999N1-00211-00771102381ADDKA1120M+00091MA1999999096351MD1210011+9999OA149901031REMSYN094AAXX  03184 06604 33/// /0504 11021 21077 39635 40238 52001 333 10009 55300 20000 91120 91212;
0140066040999992011010319004+47000+006950FM-12+0487LSGN V0200601N001519999999N9999999N1-00271-00801102371ADDMA1999999096331MD1010001+9999OA149900571REMSYN088AAXX  03194 06604 33/// /0603 11027 21080 39633 40237 50000 333 55300 20000 91111 91204;
0140066040999992011010320004+47000+006950FM-12+0487LSGN V0203601N000519999999N9999999N1-00371-00731102381ADDMA1999999096321MD1710021+9999OA149900571REMSYN088AAXX  03204 06604 33/// /3601 11037 21073 39632 40238 57002 333 55300 20000 91111 91204;
0140066040999992011010321004+47000+006950FM-12+0487LSGN V0200401N001019999999N9999999N1-00351-00721102361ADDMA1999999096301MD1710051+9999OA149900621REMSYN088AAXX  03214 06604 33/// /0402 11035 21072 39630 40236 57005 333 55300 20000 91112 91206;
0140066040999992011010322004+47000+006950FM-12+0487LSGN V0200201N000519999999N9999999N1-00301-00621102361ADDMA1999999096311MD1510021+9999OA149900211REMSYN088AAXX  03224 06604 33/// /0201 11030 21062 39631 40236 55002 333 55300 20000 91104 91202;
0140066040999992011010323004+47000+006950FM-12+0487LSGN V0200701N000519999999N9999999N1-00311-00541102381ADDMA1999999096331MD1310011+9999OA149900101REMSYN088AAXX  03234 06604 33/// /0701 11031 21054 39633 40238 53001 333 55300 20000 91102 91201;
0140066040999992011010400004+47000+006950FM-12+0487LSGN V0200701N001519999999N9999999N1-00381-00521102351ADDMA1999999096291MD1810011+9999OA149900931REMSYN088AAXX  04004 06604 33/// /0703 11038 21052 39629 40235 58001 333 55300 20000 91118 91211;
0140066040999992011010401004+47000+006950FM-12+0487LSGN V0203401N001019999999N9999999N1-00321-00571102301ADDMA1999999096251MD1810061+9999OA149900311REMSYN088AAXX  04014 06604 33/// /3402 11032 21057 39625 40230 58006 333 55300 20000 91106 91203;
0140066040999992011010402004+47000+006950FM-12+0487LSGN V0200601N001019999999N9999999N1-00441-00631102291ADDMA1999999096221MD1619999+9999OA149900361REMSYN088AAXX  04024 06604 33/// /0602 11044 21063 39622 40229 56/// 333 55300 20000 91107 91204;
0140066040999992011010403004+47000+006950FM-12+0487LSGN V0200501N002119999999N9999999N1-00411-00611102231ADDMA1999999096171MD1810121+9999OA149900361REMSYN088AAXX  04034 06604 33/// /0504 11041 21061 39617 40223 58012 333 55300 20000 91107 91204;
0140066040999992011010404004+47000+006950FM-12+0487LSGN V0200601N001019999999N9999999N1-00381-00611102191ADDMA1999999096141MD1810111+9999OA149900311REMSYN088AAXX  04044 06604 33/// /0602 11038 21061 39614 40219 58011 333 55300 20000 91106 91204;
0140066040999992011010405004+47000+006950FM-12+0487LSGN V0200501N001519999999N9999999N1-00361-00571102161ADDMA1999999096111MD1610111+9999OA149900311REMSYN088AAXX  04054 06604 33/// /0503 11036 21057 39611 40216 56011 333 55300 20000 91106 91204;
0207066040999992011010406004+47000+006950FM-12+0487LSGN V0200701N002119999999N9999999N1-00331-00561102121ADDAL19900091GJ104749IA2999-00609KA1999N-00441MA1999999096081MD1810091+9999OA149900571REMSYN112AAXX  04064 06604 33/// /0704 11033 21056 39608 40212 58009 333 21044 3/106 55079 55300 20000 70000 91111 91204;
0140066040999992011010407004+47000+006950FM-12+0487LSGN V0200601N001519999999N9999999N1-00361-00511102131ADDMA1999999096081MD1710061+9999OA149900361REMSYN088AAXX  04074 06604 33/// /0603 11036 21051 39608 40213 57006 333 55300 20000 91107 91204;
0140066040999992011010408004+47000+006950FM-12+0487LSGN V0200701N001519999999N9999999N1-00341-00511102121ADDMA1999999096081MD1719999+9999OA149900361REMSYN088AAXX  04084 06604 33/// /0703 11034 21051 39608 40212 57/// 333 55300 20011 91107 91204;
0103066040999992011010409004+47000+006950FM-12+0487LSGN V0200301N001019999999N9999999N1-00341-00531102111ADDMA1999999096071REMSYN076AAXX  04094 06604 33/// /0302 11034 21053 39607 40211 5//// 333 553// 20036;
0140066040999992011010410004+47000+006950FM-12+0487LSGN V0200801N001019999999N9999999N1-00301-00521102131ADDMA1999999096101MD1210021+9999OA149900311REMSYN088AAXX  04104 06604 33/// /0802 11030 21052 39610 40213 52002 333 55300 20194 91106 91203;
0140066040999992011010411004+47000+006950FM-12+0487LSGN V0200801N002119999999N9999999N1-00251-00501102061ADDMA1999999096041MD1710041+9999OA149900361REMSYN088AAXX  04114 06604 33/// /0804 11025 21050 39604 40206 57004 333 55300 20432 91107 91204;
0140066040999992011010412004+47000+006950FM-12+0487LSGN V0200801N001019999999N9999999N1-00241-00531101991ADDMA1999999095981MD1710091+9999OA149900411REMSYN088AAXX  04124 06604 33/// /0802 11024 21053 39598 40199 57009 333 55300 20389 91108 91205;
0140066040999992011010413004+47000+006950FM-12+0487LSGN V0201001N001519999999N9999999N1-00221-00551101921ADDMA1999999095921MD1610181+9999OA149900411REMSYN088AAXX  04134 06604 33/// /1003 11022 21055 39592 40192 56018 333 55300 20482 91108 91205;
0103066040999992011010414004+47000+006950FM-12+0487LSGN V0201101N001019999999N9999999N1-00201-00531101881ADDMA1999999095881REMSYN076AAXX  04144 06604 33/// /1102 11020 21053 39588 40188 5//// 333 553// 20274;
0087066040999992011010415004+47000+006950FM-12+0487LSGN V0201001N001019999999N9999999N1-00201-00531101881ADDMA1999999095881REMSYN060AAXX  04154 06604 43/// /1002 11020 21053 39588 40188 5////;
0140066040999992011010416004+47000+006950FM-12+0487LSGN V0200801N000519999999N9999999N1-00201-00541101891ADDMA1999999095891MD1510031+9999OA149900261REMSYN088AAXX  04164 06604 33/// /0801 11020 21054 39589 40189 55003 333 55300 20022 91105 91203;
0140066040999992011010417004+47000+006950FM-12+0487LSGN V0209999C000019999999N9999999N1-00211-00551101891ADDMA1999999095891MD1510011+9999OA149900261REMSYN088AAXX  04174 06604 33/// /0000 11021 21055 39589 40189 55001 333 55300 20000 91105 91203;
0159066040999992011010418004+47000+006950FM-12+0487LSGN V0200301N000519999999N9999999N1-00221-00541101911ADDKA1120M-00171MA1999999095911MD1210031+9999OA149900411REMSYN094AAXX  04184 06604 33/// /0301 11022 21054 39591 40191 52003 333 11017 55300 20000 91108 91205;
0140066040999992011010419004+47000+006950FM-12+0487LSGN V0200501N000519999999N9999999N1-00261-00511101911ADDMA1999999095901MD1210011+9999OA149900151REMSYN088AAXX  04194 06604 33/// /0501 11026 21051 39590 40191 52001 333 55300 20000 91103 91203;
0140066040999992011010420004+47000+006950FM-12+0487LSGN V0209999C000019999999N9999999N1-00281-00541101881ADDMA1999999095871MD1810021+9999OA149900151REMSYN088AAXX  04204 06604 33/// /0000 11028 21054 39587 40188 58002 333 55300 20000 91103 91203;
0140066040999992011010421004+47000+006950FM-12+0487LSGN V0200201N001019999999N9999999N1-00331-00551101871ADDMA1999999095851MD1710061+9999OA149900261REMSYN088AAXX  04214 06604 33/// /0202 11033 21055 39585 40187 57006 333 55300 20000 91105 91203;
0140066040999992011010422004+47000+006950FM-12+0487LSGN V0209999C000519999999N9999999N1-00361-00601101881ADDMA1999999095851MD1710051+9999OA149900151REMSYN088AAXX  04224 06604 33/// /0001 11036 21060 39585 40188 57005 333 55300 20000 91103 91202;
0159066040999992011010423004+47000+006950FM-12+0487LSGN V0200501N000519999999N9999999N1-00321-00551101891ADDMA1999999095871MD1310011+9999OA149900151REMSYN088AAXX  04234 06604 33/// /0501 11032 21055 39587 40189 53000 333 55300 20000 91103 91202;EQDQ01+000002APC3  
0140066040999992011010500004+47000+006950FM-12+0487LSGN V0200501N001019999999N9999999N1-00301-00511101841ADDMA1999999095821MD1810031+9999OA149900311REMSYN088AAXX  05004 06604 33/// /0502 11030 21051 39582 40184 58003 333 55300 20000 91106 91203;
0140066040999992011010501004+47000+006950FM-12+0487LSGN V0203301N001019999999N9999999N1-00391-00601101851ADDMA1999999095811MD1710041+9999OA149900211REMSYN088AAXX  05014 06604 33/// /3302 11039 21060 39581 40185 57004 333 55300 20000 91104 91203;
0140066040999992011010502004+47000+006950FM-12+0487LSGN V0200601N001519999999N9999999N1-00281-00521101811ADDMA1999999095801MD1710071+9999OA149900211REMSYN088AAXX  05024 06604 33/// /0603 11028 21052 39580 40181 57007 333 55300 20000 91104 91203;
0087066040999992011010503004+47000+006950FM-12+0487LSGN V0200401N001019999999N9999999N1-00281-00461101791ADDMA1999999095781REMSYN060AAXX  05034 06604 43/// /0402 11028 21046 39578 40179 5////;
0140066040999992011010504004+47000+006950FM-12+0487LSGN V0200401N001519999999N9999999N1-00261-00501101751ADDMA1999999095751MD1710061+9999OA149900311REMSYN088AAXX  05044 06604 33/// /0403 11026 21050 39575 40175 57006 333 55300 20000 91106 91204;
0140066040999992011010505004+47000+006950FM-12+0487LSGN V0200301N001519999999N9999999N1-00341-00521101771ADDMA1999999095751MD1710051+9999OA149900311REMSYN088AAXX  05054 06604 33/// /0303 11034 21052 39575 40177 57005 333 55300 20000 91106 91204;
0207066040999992011010506004+47000+006950FM-12+0487LSGN V0209999C000019999999N9999999N1-00221-00501101751ADDAL19900091GJ100009IA2999-00609KA1999N-00401MA1999999095761MD1510021+9999OA149900311REMSYN112AAXX  05064 06604 33/// /0000 11022 21050 39576 40175 55002 333 21040 3/106 55000 55300 20000 70000 91106 91204;
0140066040999992011010507004+47000+006950FM-12+0487LSGN V0200401N000519999999N9999999N1-00221-00481101751ADDMA1999999095761MD1210011+9999OA149900261REMSYN088AAXX  05074 06604 33/// /0401 11022 21048 39576 40175 52001 333 55300 20000 91105 91203;
0140066040999992011010508004+47000+006950FM-12+0487LSGN V0200701N000519999999N9999999N1-00241-00471101781ADDMA1999999095781MD1219999+9999OA149900211REMSYN088AAXX  05084 06604 33/// /0701 11024 21047 39578 40178 52/// 333 55300 20025 91104 91203;
0140066040999992011010509004+47000+006950FM-12+0487LSGN V0200801N001019999999N9999999N1-00201-00461101741ADDMA1999999095751MD1010011+9999OA149900311REMSYN088AAXX  05094 06604 33/// /0802 11020 21046 39575 40174 50001 333 55300 20137 91106 91204;
0140066040999992011010510004+47000+006950FM-12+0487LSGN V0200801N001519999999N9999999N1-00171-00471101711ADDMA1999999095731MD1710031+9999OA149900211REMSYN088AAXX  05104 06604 33/// /0803 11017 21047 39573 40171 57003 333 55300 20252 91104 91203;
0140066040999992011010511004+47000+006950FM-12+0487LSGN V0200901N001019999999N9999999N1-00151-00461101661ADDMA1999999095691MD1710091+9999OA149900261REMSYN088AAXX  05114 06604 33/// /0902 11015 21046 39569 40166 57009 333 55300 20421 91105 91203;
0103066040999992011010512004+47000+006950FM-12+0487LSGN V0200901N001019999999N9999999N1-00061-00361101551ADDMA1999999095601REMSYN076AAXX  05124 06604 33/// /0902 11006 21036 39560 40155 5//// 333 553// 20616;
0140066040999992011010513004+47000+006950FM-12+0487LSGN V0201401N000519999999N9999999N1+00031-00301101501ADDMA1999999095581MD1610151+9999OA149900211REMSYN088AAXX  05134 06604 33/// /1401 10003 21030 39558 40150 56015 333 553// 2//// 91104 91202;
0087066040999992011010514004+47000+006950FM-12+0487LSGN V0202201N000519999999N9999999N1+00061-00271101441ADDMA1999999095531REMSYN060AAXX  05144 06604 43/// /2201 10006 21027 39553 40144 5////;
0087066040999992011010515004+47000+006950FM-12+0487LSGN V0202101N001019999999N9999999N1+00081-00231101411ADDMA1999999095501REMSYN060AAXX  05154 06604 43/// /2102 10008 21023 39550 40141 5////;
0140066040999992011010516004+47000+006950FM-12+0487LSGN V0202301N001019999999N9999999N1+00071-00231101391ADDMA1999999095481MD1710101+9999OA149900211REMSYN088AAXX  05164 06604 33/// /2302 10007 21023 39548 40139 57010 333 55301 20072 91104 91202;
0140066040999992011010517004+47000+006950FM-12+0487LSGN V0200701N001019999999N9999999N1+00001-00241101381ADDMA1999999095461MD1710071+9999OA149900211REMSYN088AAXX  05174 06604 33/// /0702 10000 21024 39546 40138 57007 333 55300 20000 91104 91202;
0159066040999992011010518004+47000+006950FM-12+0487LSGN V0209999C000019999999N9999999N1-00031-00241101361ADDKA1120M+00091MA1999999095431MD1719999+9999OA149900261REMSYN094AAXX  05184 06604 33/// /0000 11003 21024 39543 40136 57/// 333 10009 55300 20000 91105 91203;
0140066040999992011010519004+47000+006950FM-12+0487LSGN V0200501N000519999999N9999999N1-00081-00271101341ADDMA1999999095401MD1710081+9999OA149900211REMSYN088AAXX  05194 06604 33/// /0501 11008 21027 39540 40134 57008 333 55300 20000 91104 91203;
0140066040999992011010520004+47000+006950FM-12+0487LSGN V0200401N001519999999N9999999N1-00091-00291101301ADDMA1999999095361MD1719999+9999OA149900311REMSYN088AAXX  05204 06604 33/// /0403 11009 21029 39536 40130 57/// 333 55300 20000 91106 91205;
0103066040999992011010521004+47000+006950FM-12+0487LSGN V0200501N001519999999N9999999N1-00021-00281101251ADDMA1999999095331REMSYN076AAXX  05214 06604 33/// /0503 11002 21028 39533 40125 5//// 333 553// 20000;
0140066040999992011010522004+47000+006950FM-12+0487LSGN V0200401N003119999999N9999999N1-00051-00261101251ADDMA1999999095321MD1710081+9999OA149900411REMSYN088AAXX  05224 06604 33/// /0406 11005 21026 39532 40125 57008 333 55300 20000 91108 91206;
0140066040999992011010523004+47000+006950FM-12+0487LSGN V0200801N001519999999N9999999N1-00071-00201101231ADDMA1999999095301MD1719999+9999OA149900411REMSYN088AAXX  05234 06604 33/// /0803 11007 21020 39530 40123 57/// 333 55300 20000 91108 91206;
0087066040999992011010600004+47000+006950FM-12+0487LSGN V0200601N002119999999N9999999N1-00061-00201101151ADDMA1999999095231REMSYN060AAXX  06004 06604 43/// /0604 11006 21020 39523 40115 5////;
0087066040999992011010601004+47000+006950FM-12+0487LSGN V0200601N000519999999N9999999N1-00021-00171101101ADDMA1999999095191REMSYN060AAXX  06014 06604 43/// /0601 11002 21017 39519 40110 5////;
0087066040999992011010602004+47000+006950FM-12+0487LSGN V0200601N001019999999N9999999N1-00061-00151101121ADDMA1999999095201REMSYN060AAXX  06024 06604 43/// /0602 11006 21015 39520 40112 5////;
0087066040999992011010603004+47000+006950FM-12+0487LSGN V0202301N002119999999N9999999N1+00131+00041101071ADDMA1999999095191REMSYN060AAXX  06034 06604 43/// /2304 10013 20004 39519 40107 5////;
0087066040999992011010604004+47000+006950FM-12+0487LSGN V0202701N003119999999N9999999N1+00341+00171101021ADDMA1999999095191REMSYN060AAXX  06044 06604 43/// /2706 10034 20017 39519 40102 5////;
0087066040999992011010605004+47000+006950FM-12+0487LSGN V0202601N004119999999N9999999N1+00461+00271100971ADDMA1999999095171REMSYN060AAXX  06054 06604 43/// /2608 10046 20027 39517 40097 5////;
0159066040999992011010606004+47000+006950FM-12+0487LSGN V0202701N003619999999N9999999N1+00451+00291100961ADDAA124000591GJ101869IA2999-00309KA1999N-00151MA1999999095161REMSYN088AAXX  06064 06604 43/// /2707 10045 20029 39516 40096 5//// 333 21015 3/103 55031 70005;
0087066040999992011010607004+47000+006950FM-12+0487LSGN V0202701N004119999999N9999999N1+00531+00251100941ADDMA1999999095151REMSYN060AAXX  06074 06604 43/// /2708 10053 20025 39515 40094 5////;
0103066040999992011010608004+47000+006950FM-12+0487LSGN V0202501N005719999999N9999999N1+00591+00361100951ADDMA1999999095181REMSYN076AAXX  06084 06604 33/// /2511 10059 20036 39518 40095 5//// 333 553// 20007;
0087066040999992011010609004+47000+006950FM-12+0487LSGN V0202701N005119999999N9999999N1+00501+00431101001ADDMA1999999095201REMSYN060AAXX  06094 06604 43/// /2710 10050 20043 39520 40100 5////;
0146066040999992011010610004+47000+006950FM-12+0487LSGN V0202701N003619999999N9999999N1+00511+00431101011ADDMA1999999095221MD1210071+9999OA149901241REMSYN094AAXX  06104 06604 23/// /2707 10051 20043 39522 40101 52007 333 55300 20184 69935 91124 91213;
0146066040999992011010611004+47000+006950FM-12+0487LSGN V0202801N006219999999N9999999N1+00541+00441100981ADDMA1999999095191MD1010011+9999OA149901081REMSYN094AAXX  06114 06604 23/// /2812 10054 20044 39519 40098 50001 333 55300 20256 69925 91121 91213;
0163066040999992011010612004+47000+006950FM-12+0487LSGN V0202701N006719999999N9999999N1+00631+00481100891ADDAA106001091MA1999999095131MD1810071+9999OA149901241REMSYN100AAXX  06124 06604 03/// /2713 10063 20048 39513 40089 58007 60011 333 55300 20328 69915 91124 91215;
0140066040999992011010613004+47000+006950FM-12+0487LSGN V0202601N005119999999N9999999N1+00661+00491100861ADDMA1999999095111MD1810111+9999OA149901131REMSYN088AAXX  06134 06604 33/// /2610 10066 20049 39511 40086 58011 333 55300 20270 91122 91215;
0087066040999992011010614004+47000+006950FM-12+0487LSGN V0202501N003619999999N9999999N1+00661+00551100881ADDMA1999999095121REMSYN060AAXX  06144 06604 43/// /2507 10066 20055 39512 40088 5////;
0087066040999992011010615004+47000+006950FM-12+0487LSGN V0202601N003119999999N9999999N1+00661+00541100901ADDMA1999999095141REMSYN060AAXX  06154 06604 43/// /2606 10066 20054 39514 40090 5////;
0146066040999992011010616004+47000+006950FM-12+0487LSGN V0202601N004119999999N9999999N1+00651+00601100941ADDMA1999999095181MD1210071+9999OA149900821REMSYN094AAXX  06164 06604 23/// /2608 10065 20060 39518 40094 52007 333 55300 20007 60025 91116 91208;
0146066040999992011010617004+47000+006950FM-12+0487LSGN V0202601N003119999999N9999999N1+00671+00631100961ADDMA1999999095201MD1210081+9999OA149900721REMSYN094AAXX  06174 06604 23/// /2606 10067 20063 39520 40096 52008 333 55300 20000 69935 91114 91208;
0182066040999992011010618004+47000+006950FM-12+0487LSGN V0202801N003619999999N9999999N1+00701+00621100991ADDAA112004191KA1120M+00701MA1999999095241MD1210101+9999OA149901241REMSYN106AAXX  06184 06604 03/// /2807 10070 20062 39524 40099 52010 60042 333 10070 55300 20000 69915 91124 91215;
0146066040999992011010619004+47000+006950FM-12+0487LSGN V0202601N002619999999N9999999N1+00701+00631101051ADDMA1999999095291MD1310111+9999OA149900671REMSYN094AAXX  06194 06604 23/// /2605 10070 20063 39529 40105 53011 333 55300 20000 69945 91113 91207;
0146066040999992011010620004+47000+006950FM-12+0487LSGN V0202601N003619999999N9999999N1+00691+00611101091ADDMA1999999095331MD1119999+9999OA149900771REMSYN094AAXX  06204 06604 23/// /2607 10069 20061 39533 40109 51/// 333 55300 20000 69915 91115 91207;
0146066040999992011010621004+47000+006950FM-12+0487LSGN V0202501N003119999999N9999999N1+00711+00621101131ADDMA1999999095371MD1119999+9999OA149900771REMSYN094AAXX  06214 06604 23/// /2506 10071 20062 39537 40113 51/// 333 55300 20000 69925 91115 91208;
0146066040999992011010622004+47000+006950FM-12+0487LSGN V0202401N003619999999N9999999N1+00731+00631101171ADDMA1999999095411MD1210121+9999OA149900771REMSYN094AAXX  06224 06604 23/// /2407 10073 20063 39541 40117 52012 333 55300 20000 69915 91115 91208;
0103066040999992011010623004+47000+006950FM-12+0487LSGN V0202601N003619999999N9999999N1+00711+00631101221ADDMA1999999095461REMSYN076AAXX  06234 06604 33/// /2607 10071 20063 39546 40122 5//// 333 553// 20000;
0087066040999992011010700004+47000+006950FM-12+0487LSGN V0202701N004119999999N9999999N1+00711+00631101221ADDMA1999999095461REMSYN060AAXX  07004 06604 43/// /2708 10071 20063 39546 40122 5////;
0087066040999992011010701004+47000+006950FM-12+0487LSGN V0202701N006719999999N9999999N1+00741+00631101221ADDMA1999999095461REMSYN060AAXX  07014 06604 43/// /2713 10074 20063 39546 40122 5////;
0087066040999992011010702004+47000+006950FM-12+0487LSGN V0202601N005719999999N9999999N1+00771+00651101251ADDMA1999999095501REMSYN060AAXX  07024 06604 43/// /2611 10077 20065 39550 40125 5////;
0087066040999992011010703004+47000+006950FM-12+0487LSGN V0202501N003119999999N9999999N1+00711+00661101321ADDMA1999999095551REMSYN060AAXX  07034 06604 43/// /2506 10071 20066 39555 40132 5////;
0146066040999992011010704004+47000+006950FM-12+0487LSGN V0202601N004619999999N9999999N1+00771+00701101311ADDMA1999999095551MD1210091+9999OA149901131REMSYN094AAXX  07044 06604 23/// /2609 10077 20070 39555 40131 52009 333 55300 20000 69975 91122 91212;
0146066040999992011010705004+47000+006950FM-12+0487LSGN V0202601N003119999999N9999999N1+00731+00711101271ADDMA1999999095511MD1010011+9999OA149901131REMSYN094AAXX  07054 06604 23/// /2606 10073 20071 39551 40127 50001 333 55300 20000 60015 91122 91212;
0230066040999992011010706004+47000+006950FM-12+0487LSGN V0202601N004119999999N9999999N1+00781+00701101231ADDAA112004191AL11800791GJ100009IA2999+00609KA1999N+00671MA1999999095481MD1710071+9999OA149901181REMSYN124AAXX  07064 06604 03/// /2608 10078 20070 39548 40123 57007 60042 333 20067 3/006 55000 55300 20000 69925 70073 91123 91213;
0146066040999992011010707004+47000+006950FM-12+0487LSGN V0201401N000519999999N9999999N1+00651+00631101321ADDMA1999999095541MD1510011+9999OA149900721REMSYN094AAXX  07074 06604 23/// /1401 10065 20063 39554 40132 55001 333 55300 20000 69915 91114 91208;
0103066040999992011010708004+47000+006950FM-12+0487LSGN V0200301N001019999999N9999999N1+00641+00641101351ADDMA1999999095561REMSYN076AAXX  07084 06604 33/// /0302 10064 20064 39556 40135 5//// 333 553// 20011;
0087066040999992011010709004+47000+006950FM-12+0487LSGN V0200201N000519999999N9999999N1+00681+00661101361ADDMA1999999095581REMSYN060AAXX  07094 06604 43/// /0201 10068 20066 39558 40136 5////;
0140066040999992011010710004+47000+006950FM-12+0487LSGN V0200901N001519999999N9999999N1+00561+00551101411ADDMA1999999095601MD1210061+9999OA149900261REMSYN088AAXX  07104 06604 33/// /0903 10056 20055 39560 40141 52006 333 55300 20292 91105 91203;
0140066040999992011010711004+47000+006950FM-12+0487LSGN V0200301N001519999999N9999999N1+00651+00621101381ADDMA1999999095591MD1210031+9999OA149900311REMSYN088AAXX  07114 06604 33/// /0303 10065 20062 39559 40138 52003 333 55300 20378 91106 91203;
0182066040999992011010712004+47000+006950FM-12+0487LSGN V0200801N001019999999N9999999N1+00731+00641101311ADDAA106000091MA1999999095541MD1810041+9999OA149901181REMSYN100AAXX  07124 06604 03/// /0802 10073 20064 39554 40131 58004 69911 333 55300 20544 60005 91123 91213;EQDQ01  00002PRCP06
0140066040999992011010713004+47000+006950FM-12+0487LSGN V0200601N001519999999N9999999N1+00811+00651101261ADDMA1999999095511MD1710091+9999OA149900311REMSYN088AAXX  07134 06604 33/// /0603 10081 20065 39551 40126 57009 333 55300 20630 91106 91204;
0087066040999992011010714004+47000+006950FM-12+0487LSGN V0201001N000519999999N9999999N1+00821+00701101241ADDMA1999999095501REMSYN060AAXX  07144 06604 43/// /1001 10082 20070 39550 40124 5////;
0087066040999992011010715004+47000+006950FM-12+0487LSGN V0200701N001519999999N9999999N1+00821+00711101281ADDMA1999999095531REMSYN060AAXX  07154 06604 43/// /0703 10082 20071 39553 40128 5////;
0140066040999992011010716004+47000+006950FM-12+0487LSGN V0200401N001019999999N9999999N1+00811+00721101301ADDMA1999999095551MD1210041+9999OA149900261REMSYN088AAXX  07164 06604 33/// /0402 10081 20072 39555 40130 52004 333 55300 20022 91105 91204;
0146066040999992011010717004+47000+006950FM-12+0487LSGN V0200301N000519999999N9999999N1+00811+00751101321ADDMA1999999095571MD1210071+9999OA149900261REMSYN094AAXX  07174 06604 23/// /0301 10081 20075 39557 40132 52007 333 55300 20000 69925 91105 91204;
0145066040999992011010718004+47000+006950FM-12+0487LSGN V0200601N000519999999N9999999N1+00741+00731101321ADDAA112000591KA1120M+00851MA1999999095561REMSYN094AAXX  07184 06604 03/// /0601 10074 20073 39556 40132 5//// 69952 333 10085 553// 20000 69925;
0146066040999992011010719004+47000+006950FM-12+0487LSGN V0209999C000019999999N9999999N1+00751+00741101301ADDMA1999999095541MD1819999+9999OA149900211REMSYN094AAXX  07194 06604 23/// /0000 10075 20074 39554 40130 58/// 333 55300 20000 69915 91104 91202;
0087066040999992011010720004+47000+006950FM-12+0487LSGN V0200401N001019999999N9999999N1+00841+00751101251ADDMA1999999095511REMSYN060AAXX  07204 06604 43/// /0402 10084 20075 39551 40125 5////;
0087066040999992011010721004+47000+006950FM-12+0487LSGN V0200201N000519999999N9999999N1+00721+00711101301ADDMA1999999095531REMSYN060AAXX  07214 06604 43/// /0201 10072 20071 39553 40130 5////;
0140066040999992011010722004+47000+006950FM-12+0487LSGN V0201101N000519999999N9999999N1+00661+00661101351ADDMA1999999095571MD1310031+9999OA149900151REMSYN088AAXX  07224 06604 33/// /1101 10066 20066 39557 40135 53003 333 55300 20000 91103 91202;
0109066040999992011010723004+47000+006950FM-12+0487LSGN V0201001N001019999999N9999999N1+00641+00641101371ADDMA1999999095581REMSYN082AAXX  07234 06604 23/// /1002 10064 20064 39558 40137 5//// 333 553// 20000 69925;
0126066040999992011010800004+47000+006950FM-12+0487LSGN V0202401N001019999999N9999999N1+00621+00621101371ADDAA106000591MA1999999095581REMSYN088AAXX  08004 06604 03/// /2402 10062 20062 39558 40137 5//// 69941 333 553// 20000 69915;
0087066040999992011010801004+47000+006950FM-12+0487LSGN V0200401N000519999999N9999999N1+00561+00561101411ADDMA1999999095601REMSYN060AAXX  08014 06604 43/// /0401 10056 20056 39560 40141 5////;
0087066040999992011010802004+47000+006950FM-12+0487LSGN V0202401N000519999999N9999999N1+00541+00541101421ADDMA1999999095611REMSYN060AAXX  08024 06604 43/// /2401 10054 20054 39561 40142 5////;
0087066040999992011010803004+47000+006950FM-12+0487LSGN V0202801N000519999999N9999999N1+00571+00571101451ADDMA1999999095641REMSYN060AAXX  08034 06604 43/// /2801 10057 20057 39564 40145 5////;
0087066040999992011010804004+47000+006950FM-12+0487LSGN V0202501N000519999999N9999999N1+00591+00591101481ADDMA1999999095681REMSYN060AAXX  08044 06604 43/// /2501 10059 20059 39568 40148 5////;
0087066040999992011010805004+47000+006950FM-12+0487LSGN V0200401N001519999999N9999999N1+00551+00551101531ADDMA1999999095711REMSYN060AAXX  08054 06604 43/// /0403 10055 20055 39571 40153 5////;
0134066040999992011010806004+47000+006950FM-12+0487LSGN V0200801N001519999999N9999999N1+00591+00591101501ADDIA2999+00509KA1999N+00541MA1999999095691REMSYN082AAXX  08064 06604 43/// /0803 10059 20059 39569 40150 5//// 333 20054 3/005 55000;
0087066040999992011010807004+47000+006950FM-12+0487LSGN V0200301N001519999999N9999999N1+00711+00681101481ADDMA1999999095701REMSYN060AAXX  08074 06604 43/// /0303 10071 20068 39570 40148 5////;
0103066040999992011010808004+47000+006950FM-12+0487LSGN V0200601N001519999999N9999999N1+00551+00551101571ADDMA1999999095751REMSYN076AAXX  08084 06604 33/// /0603 10055 20055 39575 40157 5//// 333 553// 20050;
0087066040999992011010809004+47000+006950FM-12+0487LSGN V0209999C000019999999N9999999N1+00651+00641101561ADDMA1999999095761REMSYN060AAXX  08094 06604 43/// /0000 10065 20064 39576 40156 5////;
0087066040999992011010810004+47000+006950FM-12+0487LSGN V0200901N001019999999N9999999N1+00681+00661101571ADDMA1999999095781REMSYN060AAXX  08104 06604 43/// /0902 10068 20066 39578 40157 5////;
0087066040999992011010811004+47000+006950FM-12+0487LSGN V0200901N001019999999N9999999N1+00881+00701101471ADDMA1999999095731REMSYN060AAXX  08114 06604 43/// /0902 10088 20070 39573 40147 5////;
0087066040999992011010812004+47000+006950FM-12+0487LSGN V0202201N001019999999N9999999N1+01081+00731101391ADDMA1999999095691REMSYN060AAXX  08124 06604 43/// /2202 10108 20073 39569 40139 5////;
0087066040999992011010813004+47000+006950FM-12+0487LSGN V0202701N002119999999N9999999N1+01131+00681101311ADDMA1999999095631REMSYN060AAXX  08134 06604 43/// /2704 10113 20068 39563 40131 5////;
0087066040999992011010814004+47000+006950FM-12+0487LSGN V0202401N001519999999N9999999N1+01201+00661101281ADDMA1999999095611REMSYN060AAXX  08144 06604 43/// /2403 10120 20066 39561 40128 5////;
0087066040999992011010815004+47000+006950FM-12+0487LSGN V0202201N002119999999N9999999N1+01081+00621101301ADDMA1999999095611REMSYN060AAXX  08154 06604 43/// /2204 10108 20062 39561 40130 5////;
0087066040999992011010816004+47000+006950FM-12+0487LSGN V0201801N000519999999N9999999N1+01051+00671101311ADDMA1999999095611REMSYN060AAXX  08164 06604 43/// /1801 10105 20067 39561 40131 5////;
0087066040999992011010817004+47000+006950FM-12+0487LSGN V0200201N001019999999N9999999N1+01031+00631101311ADDMA1999999095611REMSYN060AAXX  08174 06604 43/// /0202 10103 20063 39561 40131 5////;
0087066040999992011010818004+47000+006950FM-12+0487LSGN V0202701N001019999999N9999999N1+00991+00611101301ADDMA1999999095591REMSYN060AAXX  08184 06604 43/// /2702 10099 20061 39559 40130 5////;
0087066040999992011010819004+47000+006950FM-12+0487LSGN V0200101N000519999999N9999999N1+00831+00591101341ADDMA1999999095591REMSYN060AAXX  08194 06604 43/// /0101 10083 20059 39559 40134 5////;
0087066040999992011010820004+47000+006950FM-12+0487LSGN V0201501N000519999999N9999999N1+00741+00591101371ADDMA1999999095601REMSYN060AAXX  08204 06604 43/// /1501 10074 20059 39560 40137 5////;
0087066040999992011010821004+47000+006950FM-12+0487LSGN V0202301N000519999999N9999999N1+00801+00611101331ADDMA1999999095581REMSYN060AAXX  08214 06604 43/// /2301 10080 20061 39558 40133 5////;
0087066040999992011010822004+47000+006950FM-12+0487LSGN V0200401N002119999999N9999999N1+00761+00641101361ADDMA1999999095601REMSYN060AAXX  08224 06604 43/// /0404 10076 20064 39560 40136 5////;
0087066040999992011010823004+47000+006950FM-12+0487LSGN V0202901N000519999999N9999999N1+00701+00581101381ADDMA1999999095601REMSYN060AAXX  08234 06604 43/// /2901 10070 20058 39560 40138 5////;
0087066040999992011010900004+47000+006950FM-12+0487LSGN V0200501N000519999999N9999999N1+00501+00501101431ADDMA1999999095611REMSYN060AAXX  09004 06604 43/// /0501 10050 20050 39561 40143 5////;
0087066040999992011010901004+47000+006950FM-12+0487LSGN V0200501N000519999999N9999999N1+00621+00551101381ADDMA1999999095591REMSYN060AAXX  09014 06604 43/// /0501 10062 20055 39559 40138 5////;
0087066040999992011010902004+47000+006950FM-12+0487LSGN V0202501N001519999999N9999999N1+00611+00521101381ADDMA1999999095591REMSYN060AAXX  09024 06604 43/// /2503 10061 20052 39559 40138 5////;
0087066040999992011010903004+47000+006950FM-12+0487LSGN V0202201N000519999999N9999999N1+00411+00401101401ADDMA1999999095561REMSYN060AAXX  09034 06604 43/// /2201 10041 20040 39556 40140 5////;
0087066040999992011010904004+47000+006950FM-12+0487LSGN V0200601N002619999999N9999999N1+00521+00431101351ADDMA1999999095541REMSYN060AAXX  09044 06604 43/// /0605 10052 20043 39554 40135 5////;
0087066040999992011010905004+47000+006950FM-12+0487LSGN V0201501N000519999999N9999999N1+00481+00411101341ADDMA1999999095521REMSYN060AAXX  09054 06604 43/// /1501 10048 20041 39552 40134 5////;
0097066040999992011010906004+47000+006950FM-12+0487LSGN V0200701N002119999999N9999999N1+00531+00421101351ADDMA1999999095541REMSYN070AAXX  09064 06604 43/// /0704 10053 20042 39554 40135 5//// 333 55028;
0087066040999992011010907004+47000+006950FM-12+0487LSGN V0202901N000519999999N9999999N1+00451+00381101391ADDMA1999999095561REMSYN060AAXX  09074 06604 43/// /2901 10045 20038 39556 40139 5////;
0103066040999992011010908004+47000+006950FM-12+0487LSGN V0203501N000519999999N9999999N1+00411+00401101521ADDMA1999999095681REMSYN076AAXX  09084 06604 33/// /3501 10041 20040 39568 40152 5//// 333 553// 20018;
0109066040999992011010909004+47000+006950FM-12+0487LSGN V0202601N003119999999N9999999N1+00431+00391101541ADDMA1999999095701REMSYN082AAXX  09094 06604 23/// /2606 10043 20039 39570 40154 5//// 333 553// 20083 69935;
0146066040999992011010910004+47000+006950FM-12+0487LSGN V0202701N004619999999N9999999N1+00721+00561101501ADDMA1999999095721MD1110161+9999OA149900821REMSYN094AAXX  09104 06604 23/// /2709 10072 20056 39572 40150 51016 333 55300 20144 60015 91116 91209;
0146066040999992011010911004+47000+006950FM-12+0487LSGN V0202701N005119999999N9999999N1+00771+00651101481ADDMA1999999095711MD1210031+9999OA149900821REMSYN094AAXX  09114 06604 23/// /2710 10077 20065 39571 40148 52003 333 55300 20144 60015 91116 91210;
0163066040999992011010912004+47000+006950FM-12+0487LSGN V0202501N003619999999N9999999N1+00781+00691101461ADDAA106004191MA1999999095701MD1010001+9999OA149900821REMSYN100AAXX  09124 06604 03/// /2507 10078 20069 39570 40146 50000 60041 333 55300 20133 60015 91116 91210;
0146066040999992011010913004+47000+006950FM-12+0487LSGN V0202501N003119999999N9999999N1+00751+00701101451ADDMA1999999095681MD1710041+9999OA149900821REMSYN094AAXX  09134 06604 23/// /2506 10075 20070 39568 40145 57004 333 55300 20068 60025 91116 91209;
0087066040999992011010914004+47000+006950FM-12+0487LSGN V0202601N002619999999N9999999N1+00741+00641101481ADDMA1999999095711REMSYN060AAXX  09144 06604 43/// /2605 10074 20064 39571 40148 5////;
0087066040999992011010915004+47000+006950FM-12+0487LSGN V0202501N002119999999N9999999N1+00711+00561101551ADDMA1999999095771REMSYN060AAXX  09154 06604 43/// /2504 10071 20056 39577 40155 5////;
0146066040999992011010916004+47000+006950FM-12+0487LSGN V0202501N001519999999N9999999N1+00631+00561101631ADDMA1999999095831MD1310151+9999OA149900571REMSYN094AAXX  09164 06604 23/// /2503 10063 20056 39583 40163 53015 333 55300 20004 69995 91111 91206;
0146066040999992011010917004+47000+006950FM-12+0487LSGN V0202601N003119999999N9999999N1+00691+00601101671ADDMA1999999095881MD1110171+9999OA149900621REMSYN094AAXX  09174 06604 23/// /2606 10069 20060 39588 40167 51017 333 55300 20000 69965 91112 91207;
0182066040999992011010918004+47000+006950FM-12+0487LSGN V0202501N003619999999N9999999N1+00651+00561101731ADDAA112011991KA1120M+00791MA1999999095921MD1110151+9999OA149900821REMSYN106AAXX  09184 06604 03/// /2507 10065 20056 39592 40173 51015 60122 333 10079 55300 20000 60015 91116 91210;
0146066040999992011010919004+47000+006950FM-12+0487LSGN V0202501N004119999999N9999999N1+00631+00561101781ADDMA1999999095971MD1210141+9999OA149900931REMSYN094AAXX  09194 06604 23/// /2508 10063 20056 39597 40178 52014 333 55300 20000 60015 91118 91209;
0146066040999992011010920004+47000+006950FM-12+0487LSGN V0202601N003619999999N9999999N1+00601+00541101841ADDMA1999999096021MD1210141+9999OA149900931REMSYN094AAXX  09204 06604 23/// /2607 10060 20054 39602 40184 52014 333 55300 20000 60025 91118 91209;
0146066040999992011010921004+47000+006950FM-12+0487LSGN V0202501N002619999999N9999999N1+00571+00531101901ADDMA1999999096071MD1210151+9999OA149900931REMSYN094AAXX  09214 06604 23/// /2505 10057 20053 39607 40190 52015 333 55300 20000 60025 91118 91209;
0146066040999992011010922004+47000+006950FM-12+0487LSGN V0202501N003119999999N9999999N1+00541+00461101951ADDMA1999999096111MD1210141+9999OA149900621REMSYN094AAXX  09224 06604 23/// /2506 10054 20046 39611 40195 52014 333 55300 20000 60015 91112 91207;
0146066040999992011010923004+47000+006950FM-12+0487LSGN V0202601N002119999999N9999999N1+00501+00451101991ADDMA1999999096141MD1110121+9999OA149900671REMSYN094AAXX  09234 06604 23/// /2604 10050 20045 39614 40199 51012 333 55300 20000 69975 91113 91206;
0163066040999992011011000004+47000+006950FM-12+0487LSGN V0202501N002119999999N9999999N1+00531+00451101991ADDAA106006191MA1999999096141MD1210071+9999OA149900931REMSYN100AAXX  10004 06604 03/// /2504 10053 20045 39614 40199 52007 60061 333 55300 20000 69915 91118 91209;
0140066040999992011011001004+47000+006950FM-12+0487LSGN V0202301N000519999999N9999999N1+00501+00451102001ADDMA1999999096151MD1210041+9999OA149900411REMSYN088AAXX  10014 06604 33/// /2301 10050 20045 39615 40200 52004 333 55300 20000 91108 91205;
0109066040999992011011002004+47000+006950FM-12+0487LSGN V0202401N001019999999N9999999N1+00501+00461102051ADDMA1999999096191REMSYN082AAXX  10024 06604 23/// /2402 10050 20046 39619 40205 5//// 333 553// 20000 69925;
0087066040999992011011003004+47000+006950FM-12+0487LSGN V0200201N001019999999N9999999N1+00491+00461102041ADDMA1999999096181REMSYN060AAXX  10034 06604 43/// /0202 10049 20046 39618 40204 5////;
0103066040999992011011004004+47000+006950FM-12+0487LSGN V0201601N000519999999N9999999N1+00491+00471102041ADDMA1999999096181REMSYN076AAXX  10044 06604 33/// /1601 10049 20047 39618 40204 5//// 333 553// 20000;
0140066040999992011011005004+47000+006950FM-12+0487LSGN V0200601N001019999999N9999999N1+00481+00441102041ADDMA1999999096181MD1019999+9999OA149900151REMSYN088AAXX  10054 06604 33/// /0602 10048 20044 39618 40204 50/// 333 55300 20000 91103 91202;
0159066040999992011011006004+47000+006950FM-12+0487LSGN V0200601N001519999999N9999999N1+00471+00451102051ADDAA124017891GJ100009IA2999+00409KA1999N+00461MA1999999096191REMSYN088AAXX  10064 06604 43/// /0603 10047 20045 39619 40205 5//// 333 20046 3/004 55000 70177;
0146066040999992011011007004+47000+006950FM-12+0487LSGN V0200501N001519999999N9999999N1+00491+00431102081ADDMA1999999096221MD1210041+9999OA149900411REMSYN094AAXX  10074 06604 23/// /0503 10049 20043 39622 40208 52004 333 55300 20000 69915 91108 91204;
0087066040999992011011008004+47000+006950FM-12+0487LSGN V0200401N002619999999N9999999N1+00441+00371102141ADDMA1999999096271REMSYN060AAXX  10084 06604 43/// /0405 10044 20037 39627 40214 5////;
0087066040999992011011009004+47000+006950FM-12+0487LSGN V0200601N003619999999N9999999N1+00401+00311102171ADDMA1999999096291REMSYN060AAXX  10094 06604 43/// /0607 10040 20031 39629 40217 5////;
0140066040999992011011010004+47000+006950FM-12+0487LSGN V0200501N003119999999N9999999N1+00411+00311102171ADDMA1999999096291MD1210071+9999OA149900671REMSYN088AAXX  10104 06604 33/// /0506 10041 20031 39629 40217 52007 333 55300 20191 91113 91207;
0140066040999992011011011004+47000+006950FM-12+0487LSGN V0200601N003119999999N9999999N1+00431+00231102151ADDMA1999999096271MD1819999+9999OA149900721REMSYN088AAXX  10114 06604 33/// /0606 10043 20023 39627 40215 58/// 333 55300 20281 91114 91208;
0145066040999992011011012004+47000+006950FM-12+0487LSGN V0200701N004619999999N9999999N1+00471+00221102061ADDAA106000091MA1999999096201REMSYN088AAXX  10124 06604 03/// /0709 10047 20022 39620 40206 5//// 69911 333 553// 20526 60005;EQDQ01  00002PRCP06
0087066040999992011011013004+47000+006950FM-12+0487LSGN V0200601N004119999999N9999999N1+00511+00261101981ADDMA1999999096131REMSYN060AAXX  10134 06604 43/// /0608 10051 20026 39613 40198 5////;
0087066040999992011011014004+47000+006950FM-12+0487LSGN V0200601N003619999999N9999999N1+00501+00251101951ADDMA1999999096101REMSYN060AAXX  10144 06604 43/// /0607 10050 20025 39610 40195 5////;
0087066040999992011011015004+47000+006950FM-12+0487LSGN V0200701N003619999999N9999999N1+00451+00251101931ADDMA1999999096071REMSYN060AAXX  10154 06604 43/// /0707 10045 20025 39607 40193 5////;
0087066040999992011011016004+47000+006950FM-12+0487LSGN V0200601N004119999999N9999999N1+00421+00231101931ADDMA1999999096061REMSYN060AAXX  10164 06604 43/// /0608 10042 20023 39606 40193 5////;
0087066040999992011011017004+47000+006950FM-12+0487LSGN V0200501N003619999999N9999999N1+00421+00201101891ADDMA1999999096031REMSYN060AAXX  10174 06604 43/// /0507 10042 20020 39603 40189 5////;
0110066040999992011011018004+47000+006950FM-12+0487LSGN V0200601N002619999999N9999999N1+00411+00201101901ADDKA1999M+00511MA1999999096031REMSYN070AAXX  10184 06604 43/// /0605 10041 20020 39603 40190 5//// 333 10051;
0087066040999992011011019004+47000+006950FM-12+0487LSGN V0200601N002619999999N9999999N1+00391+00221101891ADDMA1999999096021REMSYN060AAXX  10194 06604 43/// /0605 10039 20022 39602 40189 5////;
0087066040999992011011020004+47000+006950FM-12+0487LSGN V0201101N001519999999N9999999N1+00371+00261101881ADDMA1999999096011REMSYN060AAXX  10204 06604 43/// /1103 10037 20026 39601 40188 5////;
0087066040999992011011021004+47000+006950FM-12+0487LSGN V0201001N001519999999N9999999N1+00351+00241101861ADDMA1999999095981REMSYN060AAXX  10214 06604 43/// /1003 10035 20024 39598 40186 5////;
0087066040999992011011022004+47000+006950FM-12+0487LSGN V0201101N000519999999N9999999N1+00331+00241101861ADDMA1999999095981REMSYN060AAXX  10224 06604 43/// /1101 10033 20024 39598 40186 5////;
0087066040999992011011023004+47000+006950FM-12+0487LSGN V0201001N001019999999N9999999N1+00321+00211101831ADDMA1999999095951REMSYN060AAXX  10234 06604 43/// /1002 10032 20021 39595 40183 5////;
0087066040999992011011100004+47000+006950FM-12+0487LSGN V0200301N000519999999N9999999N1+00331+00211101741ADDMA1999999095871REMSYN060AAXX  11004 06604 43/// /0301 10033 20021 39587 40174 5////;
0087066040999992011011101004+47000+006950FM-12+0487LSGN V0200301N001019999999N9999999N1+00331+00231101701ADDMA1999999095831REMSYN060AAXX  11014 06604 43/// /0302 10033 20023 39583 40170 5////;
0087066040999992011011102004+47000+006950FM-12+0487LSGN V0200701N000519999999N9999999N1+00331+00231101671ADDMA1999999095801REMSYN060AAXX  11024 06604 43/// /0701 10033 20023 39580 40167 5////;
0087066040999992011011103004+47000+006950FM-12+0487LSGN V0200901N000519999999N9999999N1+00331+00251101631ADDMA1999999095761REMSYN060AAXX  11034 06604 43/// /0901 10033 20025 39576 40163 5////;
0087066040999992011011104004+47000+006950FM-12+0487LSGN V0200501N000519999999N9999999N1+00321+00241101581ADDMA1999999095711REMSYN060AAXX  11044 06604 43/// /0501 10032 20024 39571 40158 5////;
0087066040999992011011105004+47000+006950FM-12+0487LSGN V0200901N001019999999N9999999N1+00331+00241101501ADDMA1999999095641REMSYN060AAXX  11054 06604 43/// /0902 10033 20024 39564 40150 5////;
0097066040999992011011106004+47000+006950FM-12+0487LSGN V0201001N001019999999N9999999N1+00341+00251101471ADDMA1999999095611REMSYN070AAXX  11064 06604 43/// /1002 10034 20025 39561 40147 5//// 333 55000;
0140066040999992011011107004+47000+006950FM-12+0487LSGN V0200901N000519999999N9999999N1+00361+00241101411ADDMA1999999095561MD1619999+9999OA149900211REMSYN088AAXX  11074 06604 33/// /0901 10036 20024 39556 40141 56/// 333 55300 20000 91104 91203;
0103066040999992011011108004+47000+006950FM-12+0487LSGN V0202301N002619999999N9999999N1+00431+00251101371ADDMA1999999095541REMSYN076AAXX  11084 06604 33/// /2305 10043 20025 39554 40137 5//// 333 553// 20029;
0087066040999992011011109004+47000+006950FM-12+0487LSGN V0202301N005119999999N9999999N1+00481+00201101341ADDMA1999999095521REMSYN060AAXX  11094 06604 43/// /2310 10048 20020 39552 40134 5////;
0140066040999992011011110004+47000+006950FM-12+0487LSGN V0202501N004119999999N9999999N1+00511+00231101311ADDMA1999999095501MD1610061+9999OA149900931REMSYN088AAXX  11104 06604 33/// /2508 10051 20023 39550 40131 56006 333 55302 20619 91118 91210;
0140066040999992011011111004+47000+006950FM-12+0487LSGN V0202401N003119999999N9999999N1+00481+00251101231ADDMA1999999095421MD1810121+9999OA149900931REMSYN088AAXX  11114 06604 33/// /2406 10048 20025 39542 40123 58012 333 55300 20374 91118 91209;
0103066040999992011011112004+47000+006950FM-12+0487LSGN V0202501N004119999999N9999999N1+00511+00231101181ADDMA1999999095381REMSYN076AAXX  11124 06604 33/// /2508 10051 20023 39538 40118 5//// 333 553// 20220;
0140066040999992011011113004+47000+006950FM-12+0487LSGN V0202501N006719999999N9999999N1+00491+00201101161ADDMA1999999095351MD1710151+9999OA149901241REMSYN088AAXX  11134 06604 33/// /2513 10049 20020 39535 40116 57015 333 55300 20126 91124 91213;
0087066040999992011011114004+47000+006950FM-12+0487LSGN V0202501N005719999999N9999999N1+00381+00251101211ADDMA1999999095381REMSYN060AAXX  11144 06604 43/// /2511 10038 20025 39538 40121 5////;
0087066040999992011011115004+47000+006950FM-12+0487LSGN V0202401N005119999999N9999999N1+00351+00281101301ADDMA1999999095461REMSYN060AAXX  11154 06604 43/// /2410 10035 20028 39546 40130 5////;
0146066040999992011011116004+47000+006950FM-12+0487LSGN V0202501N004619999999N9999999N1+00431+00291101341ADDMA1999999095511MD1210161+9999OA149901391REMSYN094AAXX  11164 06604 23/// /2509 10043 20029 39551 40134 52016 333 55300 20032 69925 91127 91212;
0146066040999992011011117004+47000+006950FM-12+0487LSGN V0202401N004619999999N9999999N1+00441+00301101431ADDMA1999999095601MD1310201+9999OA149901131REMSYN094AAXX  11174 06604 23/// /2409 10044 20030 39560 40143 53020 333 55300 20000 69925 91122 91211;
0182066040999992011011118004+47000+006950FM-12+0487LSGN V0202601N003119999999N9999999N1+00431+00321101531ADDAA112002091KA1120M+00531MA1999999095691MD1310231+9999OA149901391REMSYN106AAXX  11184 06604 03/// /2606 10043 20032 39569 40153 53023 60022 333 10053 55300 20000 69925 91127 91214;
0146066040999992011011119004+47000+006950FM-12+0487LSGN V0202601N002619999999N9999999N1+00421+00341101631ADDMA1999999095781MD1210271+9999OA149900931REMSYN094AAXX  11194 06604 23/// /2605 10042 20034 39578 40163 52027 333 55300 20000 69925 91118 91209;
0146066040999992011011120004+47000+006950FM-12+0487LSGN V0202501N003619999999N9999999N1+00421+00341101701ADDMA1999999095851MD1210251+9999OA149900771REMSYN094AAXX  11204 06604 23/// /2507 10042 20034 39585 40170 52025 333 55300 20000 69955 91115 91207;
0146066040999992011011121004+47000+006950FM-12+0487LSGN V0202701N003119999999N9999999N1+00421+00341101801ADDMA1999999095941MD1210251+9999OA149901131REMSYN094AAXX  11214 06604 23/// /2706 10042 20034 39594 40180 52025 333 55300 20000 69915 91122 91211;
0140066040999992011011122004+47000+006950FM-12+0487LSGN V0202401N001019999999N9999999N1+00451+00341101911ADDMA1999999096051MD1310271+9999OA149900571REMSYN088AAXX  11224 06604 33/// /2402 10045 20034 39605 40191 53027 333 55300 20000 91111 91206;
0140066040999992011011123004+47000+006950FM-12+0487LSGN V0202601N003619999999N9999999N1+00451+00351101951ADDMA1999999096091MD1110241+9999OA149900671REMSYN088AAXX  11234 06604 33/// /2607 10045 20035 39609 40195 51024 333 55300 20000 91113 91207;
0163066040999992011011200004+47000+006950FM-12+0487LSGN V0202601N004119999999N9999999N1+00471+00331102001ADDAA106001091MA1999999096141MD1110201+9999OA149901391REMSYN100AAXX  12004 06604 03/// /2608 10047 20033 39614 40200 51020 60011 333 55300 20000 69925 91127 91214;
0140066040999992011011201004+47000+006950FM-12+0487LSGN V0202601N002619999999N9999999N1+00451+00351102061ADDMA1999999096191MD1310141+9999OA149900931REMSYN088AAXX  12014 06604 33/// /2605 10045 20035 39619 40206 53014 333 55300 20000 91118 91210;
0103066040999992011011202004+47000+006950FM-12+0487LSGN V0202601N004619999999N9999999N1+00461+00331102131ADDMA1999999096261REMSYN076AAXX  12024 06604 33/// /2609 10046 20033 39626 40213 5//// 333 553// 20000;
0087066040999992011011203004+47000+006950FM-12+0487LSGN V0202701N003619999999N9999999N1+00471+00341102211ADDMA1999999096341REMSYN060AAXX  12034 06604 43/// /2707 10047 20034 39634 40221 5////;
0087066040999992011011204004+47000+006950FM-12+0487LSGN V0202601N001519999999N9999999N1+00441+00341102261ADDMA1999999096381REMSYN060AAXX  12044 06604 43/// /2603 10044 20034 39638 40226 5////;
0103066040999992011011205004+47000+006950FM-12+0487LSGN V0202701N004619999999N9999999N1+00481+00311102291ADDMA1999999096421REMSYN076AAXX  12054 06604 33/// /2709 10048 20031 39642 40229 5//// 333 553// 20000;
0159066040999992011011206004+47000+006950FM-12+0487LSGN V0202801N004119999999N9999999N1+00511+00241102351ADDAA124002891GJ100129IA2999+00309KA1999N+00401MA1999999096481REMSYN088AAXX  12064 06604 43/// /2808 10051 20024 39648 40235 5//// 333 20040 3/003 55002 70027;
0140066040999992011011207004+47000+006950FM-12+0487LSGN V0202501N003119999999N9999999N1+00521+00211102381ADDMA1999999096511MD1210131+9999OA149900721REMSYN088AAXX  12074 06604 33/// /2506 10052 20021 39651 40238 52013 333 55300 20000 91114 91209;
0087066040999992011011208004+47000+006950FM-12+0487LSGN V0202401N002119999999N9999999N1+00471+00241102411ADDMA1999999096531REMSYN060AAXX  12084 06604 43/// /2404 10047 20024 39653 40241 5////;
0087066040999992011011209004+47000+006950FM-12+0487LSGN V0202501N003619999999N9999999N1+00491+00321102441ADDMA1999999096561REMSYN060AAXX  12094 06604 43/// /2507 10049 20032 39656 40244 5////;
0140066040999992011011210004+47000+006950FM-12+0487LSGN V0202601N003119999999N9999999N1+00541+00311102431ADDMA1999999096561MD1219999+9999OA149900671REMSYN088AAXX  12104 06604 33/// /2606 10054 20031 39656 40243 52/// 333 55300 20328 91113 91207;
0140066040999992011011211004+47000+006950FM-12+0487LSGN V0202501N004119999999N9999999N1+00571+00321102401ADDMA1999999096541MD1010011+9999OA149900671REMSYN088AAXX  12114 06604 33/// /2508 10057 20032 39654 40240 50001 333 55300 20360 91113 91208;
0087066040999992011011212004+47000+006950FM-12+0487LSGN V0202501N003119999999N9999999N1+00571+00311102361ADDMA1999999096501REMSYN060AAXX  12124 06604 43/// /2506 10057 20031 39650 40236 5////;
0087066040999992011011213004+47000+006950FM-12+0487LSGN V0202401N003619999999N9999999N1+00561+00341102361ADDMA1999999096501REMSYN060AAXX  12134 06604 43/// /2407 10056 20034 39650 40236 5////;
0087066040999992011011214004+47000+006950FM-12+0487LSGN V0202601N002619999999N9999999N1+00561+00391102391ADDMA1999999096531REMSYN060AAXX  12144 06604 43/// /2605 10056 20039 39653 40239 5////;
0087066040999992011011215004+47000+006950FM-12+0487LSGN V0202601N003119999999N9999999N1+00571+00401102401ADDMA1999999096541REMSYN060AAXX  12154 06604 43/// /2606 10057 20040 39654 40240 5////;
0140066040999992011011216004+47000+006950FM-12+0487LSGN V0202501N001519999999N9999999N1+00561+00351102401ADDMA1999999096541MD1210041+9999OA149900721REMSYN088AAXX  12164 06604 33/// /2503 10056 20035 39654 40240 52004 333 55300 20022 91114 91208;
0146066040999992011011217004+47000+006950FM-12+0487LSGN V0202601N004619999999N9999999N1+00541+00361102461ADDMA1999999096591MD1210061+9999OA149900931REMSYN094AAXX  12174 06604 23/// /2609 10054 20036 39659 40246 52006 333 55300 20000 69915 91118 91210;
0201066040999992011011218004+47000+006950FM-12+0487LSGN V0202601N003619999999N9999999N1+00531+00421102441ADDAA112000091KA1120M+00581MA1999999096571MD1210031+9999OA149900931REMSYN106AAXX  12184 06604 03/// /2607 10053 20042 39657 40244 52003 69912 333 10058 55300 20000 60005 91118 91210;EQDQ01  00002PRCP12
0140066040999992011011219004+47000+006950FM-12+0487LSGN V0202601N003619999999N9999999N1+00571+00331102471ADDMA1999999096601MD1210061+9999OA149900771REMSYN088AAXX  12194 06604 33/// /2607 10057 20033 39660 40247 52006 333 55300 20000 91115 91209;
0140066040999992011011220004+47000+006950FM-12+0487LSGN V0202601N005119999999N9999999N1+00581+00311102431ADDMA1999999096571MD1710021+9999OA149901081REMSYN088AAXX  12204 06604 33/// /2610 10058 20031 39657 40243 57002 333 55300 20000 91121 91210;
0146066040999992011011221004+47000+006950FM-12+0487LSGN V0202501N003619999999N9999999N1+00551+00421102461ADDMA1999999096591MD1210021+9999OA149901081REMSYN094AAXX  12214 06604 23/// /2507 10055 20042 39659 40246 52002 333 55300 20000 69915 91121 91210;
0146066040999992011011222004+47000+006950FM-12+0487LSGN V0202301N003119999999N9999999N1+00581+00401102451ADDMA1999999096591MD1710011+9999OA149900981REMSYN094AAXX  12224 06604 23/// /2306 10058 20040 39659 40245 57001 333 55300 20000 69915 91119 91210;
0146066040999992011011223004+47000+006950FM-12+0487LSGN V0202401N004119999999N9999999N1+00571+00461102451ADDMA1999999096591MD1210021+9999OA149900981REMSYN094AAXX  12234 06604 23/// /2408 10057 20046 39659 40245 52002 333 55300 20000 69945 91119 91210;
0163066040999992011011300004+47000+006950FM-12+0487LSGN V0202601N003119999999N9999999N1+00561+00501102451ADDAA106001091MA1999999096581MD1010011+9999OA149901081REMSYN100AAXX  13004 06604 03/// /2606 10056 20050 39658 40245 50001 60011 333 55300 20000 69965 91121 91210;
0146066040999992011011301004+47000+006950FM-12+0487LSGN V0202601N002119999999N9999999N1+00591+00501102421ADDMA1999999096561MD1710031+9999OA149900721REMSYN094AAXX  13014 06604 23/// /2604 10059 20050 39656 40242 57003 333 55300 20000 69965 91114 91208;
0146066040999992011011302004+47000+006950FM-12+0487LSGN V0202601N004119999999N9999999N1+00591+00521102391ADDMA1999999096531MD1719999+9999OA149900771REMSYN094AAXX  13024 06604 23/// /2608 10059 20052 39653 40239 57/// 333 55300 20000 69965 91115 91209;
0087066040999992011011303004+47000+006950FM-12+0487LSGN V0202401N004119999999N9999999N1+00631+00541102361ADDMA1999999096511REMSYN060AAXX  13034 06604 43/// /2408 10063 20054 39651 40236 5////;
0146066040999992011011304004+47000+006950FM-12+0487LSGN V0202601N003619999999N9999999N1+00641+00611102311ADDMA1999999096471MD1719999+9999OA149900881REMSYN094AAXX  13044 06604 23/// /2607 10064 20061 39647 40231 57/// 333 55300 20000 69955 91117 91208;
0109066040999992011011305004+47000+006950FM-12+0487LSGN V0202501N004119999999N9999999N1+00741+00631102301ADDMA1999999096481REMSYN082AAXX  13054 06604 23/// /2508 10074 20063 39648 40230 5//// 333 553// 20000 69915;
0230066040999992011011306004+47000+006950FM-12+0487LSGN V0202001N005119999999N9999999N1+00651+00571102321ADDAA112004191AL14200391GJ100009IA2999+00509KA1999N+00531MA1999999096481MD1510031+9999OA149901131REMSYN124AAXX  13064 06604 03/// /2010 10065 20057 39648 40232 55003 60042 333 20053 3/005 55000 55300 20000 69915 70037 91122 91210;
0087066040999992011011307004+47000+006950FM-12+0487LSGN V0202601N003119999999N9999999N1+00661+00581102371ADDMA1999999096531REMSYN060AAXX  13074 06604 43/// /2606 10066 20058 39653 40237 5////;
0087066040999992011011308004+47000+006950FM-12+0487LSGN V0202501N002119999999N9999999N1+00661+00591102411ADDMA1999999096571REMSYN060AAXX  13084 06604 43/// /2504 10066 20059 39657 40241 5////;
0087066040999992011011309004+47000+006950FM-12+0487LSGN V0202401N004119999999N9999999N1+00721+00631102401ADDMA1999999096571REMSYN060AAXX  13094 06604 43/// /2408 10072 20063 39657 40240 5////;
0087066040999992011011310004+47000+006950FM-12+0487LSGN V0202601N004119999999N9999999N1+00831+00671102401ADDMA1999999096591REMSYN060AAXX  13104 06604 43/// /2608 10083 20067 39659 40240 5////;
0087066040999992011011311004+47000+006950FM-12+0487LSGN V0202501N004619999999N9999999N1+00951+00701102341ADDMA1999999096561REMSYN060AAXX  13114 06604 43/// /2509 10095 20070 39656 40234 5////;
0087066040999992011011312004+47000+006950FM-12+0487LSGN V0202501N004619999999N9999999N1+00981+00691102271ADDMA1999999096501REMSYN060AAXX  13124 06604 43/// /2509 10098 20069 39650 40227 5////;
0087066040999992011011313004+47000+006950FM-12+0487LSGN V0202501N004119999999N9999999N1+01011+00731102221ADDMA1999999096461REMSYN060AAXX  13134 06604 43/// /2508 10101 20073 39646 40222 5////;
0087066040999992011011314004+47000+006950FM-12+0487LSGN V0202501N002119999999N9999999N1+00951+00711102211ADDMA1999999096441REMSYN060AAXX  13144 06604 43/// /2504 10095 20071 39644 40221 5////;
0087066040999992011011315004+47000+006950FM-12+0487LSGN V0202401N002619999999N9999999N1+00991+00701102201ADDMA1999999096441REMSYN060AAXX  13154 06604 43/// /2405 10099 20070 39644 40220 5////;
0087066040999992011011316004+47000+006950FM-12+0487LSGN V0202601N002619999999N9999999N1+00951+00771102231ADDMA1999999096461REMSYN060AAXX  13164 06604 43/// /2605 10095 20077 39646 40223 5////;
0146066040999992011011317004+47000+006950FM-12+0487LSGN V0202501N004619999999N9999999N1+00941+00791102251ADDMA1999999096471MD1210031+9999OA149900881REMSYN094AAXX  13174 06604 23/// /2509 10094 20079 39647 40225 52003 333 55300 20000 69915 91117 91209;
0201066040999992011011318004+47000+006950FM-12+0487LSGN V0202601N005119999999N9999999N1+00981+00791102191ADDAA112000091KA1120M+01061MA1999999096431MD1810011+9999OA149901131REMSYN106AAXX  13184 06604 03/// /2610 10098 20079 39643 40219 58001 69912 333 10106 55300 20000 60005 91122 91212;EQDQ01  00002PRCP12
0140066040999992011011319004+47000+006950FM-12+0487LSGN V0202401N002619999999N9999999N1+01001+00751102211ADDMA1999999096451MD1510011+9999OA149901081REMSYN088AAXX  13194 06604 33/// /2405 10100 20075 39645 40221 55001 333 55300 20000 91121 91212;
0140066040999992011011320004+47000+006950FM-12+0487LSGN V0202201N001019999999N9999999N1+00881+00681102271ADDMA1999999096481MD1310011+9999OA149900881REMSYN088AAXX  13204 06604 33/// /2202 10088 20068 39648 40227 53001 333 55300 20000 91117 91211;
0140066040999992011011321004+47000+006950FM-12+0487LSGN V0202401N001519999999N9999999N1+00861+00671102271ADDMA1999999096481MD1210051+9999OA149901081REMSYN088AAXX  13214 06604 33/// /2403 10086 20067 39648 40227 52005 333 55300 20000 91121 91212;
0140066040999992011011322004+47000+006950FM-12+0487LSGN V0202701N001519999999N9999999N1+00861+00671102251ADDMA1999999096461MD1010011+9999OA149900511REMSYN088AAXX  13224 06604 33/// /2703 10086 20067 39646 40225 50001 333 55300 20000 91110 91206;
0140066040999992011011323004+47000+006950FM-12+0487LSGN V0202401N002619999999N9999999N1+00911+00671102231ADDMA1999999096451MD1710031+9999OA149900361REMSYN088AAXX  13234 06604 33/// /2405 10091 20067 39645 40223 57003 333 55300 20000 91107 91205;
0140066040999992011011400004+47000+006950FM-12+0487LSGN V0202501N001519999999N9999999N1+00771+00641102261ADDMA1999999096451MD1710031+9999OA149901131REMSYN088AAXX  14004 06604 33/// /2503 10077 20064 39645 40226 57003 333 55300 20000 91122 91212;
0140066040999992011011401004+47000+006950FM-12+0487LSGN V0202501N002119999999N9999999N1+00771+00631102251ADDMA1999999096441MD1710021+9999OA149900361REMSYN088AAXX  14014 06604 33/// /2504 10077 20063 39644 40225 57002 333 55300 20000 91107 91204;
0103066040999992011011402004+47000+006950FM-12+0487LSGN V0202601N003119999999N9999999N1+00911+00651102261ADDMA1999999096481REMSYN076AAXX  14024 06604 33/// /2606 10091 20065 39648 40226 5//// 333 553// 20000;
0140066040999992011011403004+47000+006950FM-12+0487LSGN V0202401N002119999999N9999999N1+00891+00621102271ADDMA1999999096481MD1210031+9999OA149900621REMSYN088AAXX  14034 06604 33/// /2404 10089 20062 39648 40227 52003 333 55300 20000 91112 91206;
0140066040999992011011404004+47000+006950FM-12+0487LSGN V0202501N002619999999N9999999N1+00891+00571102241ADDMA1999999096451MD1010011+9999OA149900771REMSYN088AAXX  14044 06604 33/// /2505 10089 20057 39645 40224 50001 333 55300 20000 91115 91206;
0140066040999992011011405004+47000+006950FM-12+0487LSGN V0203001N005719999999N9999999N1+01021+00431102221ADDMA1999999096461MD1710021+9999OA149900981REMSYN088AAXX  14054 06604 33/// /3011 10102 20043 39646 40222 57002 333 55300 20000 91119 91211;
0207066040999992011011406004+47000+006950FM-12+0487LSGN V0202801N003619999999N9999999N1+00971+00461102231ADDAL10600091GJ100549IA2999+00709KA1999N+00761MA1999999096461MD1510021+9999OA149900981REMSYN112AAXX  14064 06604 33/// /2807 10097 20046 39646 40223 55002 333 20076 3/007 55009 55300 20000 70001 91119 91211;
0140066040999992011011407004+47000+006950FM-12+0487LSGN V0202901N004619999999N9999999N1+01001+00431102241ADDMA1999999096481MD1210031+9999OA149900931REMSYN088AAXX  14074 06604 33/// /2909 10100 20043 39648 40224 52003 333 55300 20000 91118 91211;
0087066040999992011011408004+47000+006950FM-12+0487LSGN V0202801N002619999999N9999999N1+01031+00421102231ADDMA1999999096471REMSYN060AAXX  14084 06604 43/// /2805 10103 20042 39647 40223 5////;
0087066040999992011011409004+47000+006950FM-12+0487LSGN V0202501N001019999999N9999999N1+00891+00531102261ADDMA1999999096471REMSYN060AAXX  14094 06604 43/// /2502 10089 20053 39647 40226 5////;
0087066040999992011011410004+47000+006950FM-12+0487LSGN V0203001N001519999999N9999999N1+01061+00441102181ADDMA1999999096431REMSYN060AAXX  14104 06604 43/// /3003 10106 20044 39643 40218 5////;
0140066040999992011011411004+47000+006950FM-12+0487LSGN V0202501N002119999999N9999999N1+01051+00411102181ADDMA1999999096431MD1710041+9999OA149900461REMSYN088AAXX  14114 06604 33/// /2504 10105 20041 39643 40218 57004 333 55300 20446 91109 91205;
0140066040999992011011412004+47000+006950FM-12+0487LSGN V0202301N002119999999N9999999N1+01131+00481102101ADDMA1999999096371MD1710101+9999OA149900981REMSYN088AAXX  14124 06604 33/// /2304 10113 20048 39637 40210 57010 333 55304 20882 91119 91211;
0140066040999992011011413004+47000+006950FM-12+0487LSGN V0202401N002119999999N9999999N1+01011+00491102071ADDMA1999999096321MD1710111+9999OA149900571REMSYN088AAXX  14134 06604 33/// /2404 10101 20049 39632 40207 57011 333 55302 20835 91111 91207;
0103066040999992011011414004+47000+006950FM-12+0487LSGN V0202301N001519999999N9999999N1+01001+00461102041ADDMA1999999096291REMSYN076AAXX  14144 06604 33/// /2303 10100 20046 39629 40204 5//// 333 553// 20554;
0140066040999992011011415004+47000+006950FM-12+0487LSGN V0202401N000519999999N9999999N1+01021+00431102041ADDMA1999999096291MD1710081+9999OA149900571REMSYN088AAXX  14154 06604 33/// /2401 10102 20043 39629 40204 57008 333 55303 20461 91111 91207;
0140066040999992011011416004+47000+006950FM-12+0487LSGN V0202601N000519999999N9999999N1+00951+00491102041ADDMA1999999096281MD1710041+9999OA149900211REMSYN088AAXX  14164 06604 33/// /2601 10095 20049 39628 40204 57004 333 55300 20119 91104 91203;
0140066040999992011011417004+47000+006950FM-12+0487LSGN V0202801N001019999999N9999999N1+00841+00501102061ADDMA1999999096271MD1710021+9999OA149900211REMSYN088AAXX  14174 06604 33/// /2802 10084 20050 39627 40206 57002 333 55300 20000 91104 91203;
0159066040999992011011418004+47000+006950FM-12+0487LSGN V0202801N002119999999N9999999N1+00811+00471102041ADDKA1120M+01141MA1999999096251MD1710041+9999OA149900881REMSYN094AAXX  14184 06604 33/// /2804 10081 20047 39625 40204 57004 333 10114 55300 20000 91117 91209;
0140066040999992011011419004+47000+006950FM-12+0487LSGN V0202701N001019999999N9999999N1+00821+00471102041ADDMA1999999096251MD1710031+9999OA149900411REMSYN088AAXX  14194 06604 33/// /2702 10082 20047 39625 40204 57003 333 55300 20000 91108 91204;
0140066040999992011011420004+47000+006950FM-12+0487LSGN V0202701N001519999999N9999999N1+00691+00441102111ADDMA1999999096291MD1310021+9999OA149900411REMSYN088AAXX  14204 06604 33/// /2703 10069 20044 39629 40211 53002 333 55300 20000 91108 91204;
0140066040999992011011421004+47000+006950FM-12+0487LSGN V0202601N002619999999N9999999N1+00751+00481102181ADDMA1999999096371MD1210121+9999OA149900571REMSYN088AAXX  14214 06604 33/// /2605 10075 20048 39637 40218 52012 333 55300 20000 91111 91207;
0140066040999992011011422004+47000+006950FM-12+0487LSGN V0202501N004619999999N9999999N1+00911+00431102191ADDMA1999999096411MD1210161+9999OA149900881REMSYN088AAXX  14224 06604 33/// /2509 10091 20043 39641 40219 52016 333 55300 20000 91117 91209;
0140066040999992011011423004+47000+006950FM-12+0487LSGN V0202301N005119999999N9999999N1+01021+00351102251ADDMA1999999096491MD1210201+9999OA149901341REMSYN088AAXX  14234 06604 33/// /2310 10102 20035 39649 40225 52020 333 55300 20000 91126 91212;
0140066040999992011011500004+47000+006950FM-12+0487LSGN V0202501N004619999999N9999999N1+00981+00471102351ADDMA1999999096581MD1210211+9999OA149901341REMSYN088AAXX  15004 06604 33/// /2509 10098 20047 39658 40235 52021 333 55300 20000 91126 91214;
0146066040999992011011501004+47000+006950FM-12+0487LSGN V0202601N003119999999N9999999N1+00841+00641102441ADDMA1999999096631MD1210221+9999OA149901341REMSYN094AAXX  15014 06604 23/// /2606 10084 20064 39663 40244 52022 333 55300 20000 69935 91126 91214;
0146066040999992011011502004+47000+006950FM-12+0487LSGN V0202301N003119999999N9999999N1+00881+00471102511ADDMA1999999096711MD1119999+9999OA149900981REMSYN094AAXX  15024 06604 23/// /2306 10088 20047 39671 40251 51/// 333 55300 20000 69915 91119 91208;
0103066040999992011011503004+47000+006950FM-12+0487LSGN V0202801N002119999999N9999999N1+00851+00561102601ADDMA1999999096791REMSYN076AAXX  15034 06604 33/// /2804 10085 20056 39679 40260 5//// 333 553// 20000;
0140066040999992011011504004+47000+006950FM-12+0487LSGN V0202701N003619999999N9999999N1+00781+00321102671ADDMA1999999096841MD1210211+9999OA149900671REMSYN088AAXX  15044 06604 33/// /2707 10078 20032 39684 40267 52021 333 55300 20000 91113 91208;
0140066040999992011011505004+47000+006950FM-12+0487LSGN V0202401N002619999999N9999999N1+00751+00321102781ADDMA1999999096931MD1210221+9999OA149900721REMSYN088AAXX  15054 06604 33/// /2405 10075 20032 39693 40278 52022 333 55300 20000 91114 91208;
0230066040999992011011506004+47000+006950FM-12+0487LSGN V0202801N002619999999N9999999N1+00761+00301102821ADDAA112000591AL12400091GJ100609IA2999+00409KA1999N+00691MA1999999096971MD1210181+9999OA149901341REMSYN124AAXX  15064 06604 03/// /2805 10076 20030 39697 40282 52018 69942 333 20069 3/004 55010 55300 20000 60005 70004 91126 91214;
0140066040999992011011507004+47000+006950FM-12+0487LSGN V0202601N002119999999N9999999N1+00671+00331102851ADDMA1999999096981MD1210141+9999OA149900621REMSYN088AAXX  15074 06604 33/// /2604 10067 20033 39698 40285 52014 333 55300 20000 91112 91208;
0140066040999992011011508004+47000+006950FM-12+0487LSGN V0202901N004119999999N9999999N1+00811+00281102831ADDMA1999999096991MD1219999+9999OA149900621REMSYN088AAXX  15084 06604 33/// /2908 10081 20028 39699 40283 52/// 333 55305 20108 91112 91208;
0140066040999992011011509004+47000+006950FM-12+0487LSGN V0200601N001519999999N9999999N1+00811+00421102881ADDMA1999999097041MD1310071+9999OA149900721REMSYN088AAXX  15094 06604 33/// /0603 10081 20042 39704 40288 53007 333 553// 20475 91114 91208;
0140066040999992011011510004+47000+006950FM-12+0487LSGN V0200201N000519999999N9999999N1+00891+00401102881ADDMA1999999097061MD1210081+9999OA149900571REMSYN088AAXX  15104 06604 33/// /0201 10089 20040 39706 40288 52008 333 553// 20904 91111 91207;
0140066040999992011011511004+47000+006950FM-12+0487LSGN V0202201N001519999999N9999999N1+00951+00541102831ADDMA1999999097021MD1010031+9999OA149900511REMSYN088AAXX  15114 06604 33/// /2203 10095 20054 39702 40283 50003 333 553// 2//// 91110 91205;
0140066040999992011011512004+47000+006950FM-12+0487LSGN V0202201N002119999999N9999999N1+00911+00311102771ADDMA1999999096961MD1810081+9999OA149900981REMSYN088AAXX  15124 06604 33/// /2204 10091 20031 39696 40277 58008 333 55309 2//// 91119 91208;
0103066040999992011011513004+47000+006950FM-12+0487LSGN V0202101N001019999999N9999999N1+01021+00301102721ADDMA1999999096931REMSYN076AAXX  15134 06604 33/// /2102 10102 20030 39693 40272 5//// 333 553// 2////;
0087066040999992011011514004+47000+006950FM-12+0487LSGN V0201501N001019999999N9999999N1+00961+00231102741ADDMA1999999096941REMSYN060AAXX  15144 06604 43/// /1502 10096 20023 39694 40274 5////;
0087066040999992011011515004+47000+006950FM-12+0487LSGN V0200701N001019999999N9999999N1+00991+00211102801ADDMA1999999097001REMSYN060AAXX  15154 06604 43/// /0702 10099 20021 39700 40280 5////;
0087066040999992011011516004+47000+006950FM-12+0487LSGN V0203401N000519999999N9999999N1+00891+00321102831ADDMA1999999097011REMSYN060AAXX  15164 06604 43/// /3401 10089 20032 39701 40283 5////;
0103066040999992011011517004+47000+006950FM-12+0487LSGN V0203601N000519999999N9999999N1+00711+00251102881ADDMA1999999097021REMSYN076AAXX  15174 06604 33/// /3601 10071 20025 39702 40288 5//// 333 553// 20004;
0110066040999992011011518004+47000+006950FM-12+0487LSGN V0209999C000019999999N9999999N1+00651+00211102921ADDKA1999M+01051MA1999999097051REMSYN070AAXX  15184 06604 43/// /0000 10065 20021 39705 40292 5//// 333 10105;
0087066040999992011011519004+47000+006950FM-12+0487LSGN V0209999C000019999999N9999999N1+00601+00251102961ADDMA1999999097071REMSYN060AAXX  15194 06604 43/// /0000 10060 20025 39707 40296 5////;
0087066040999992011011520004+47000+006950FM-12+0487LSGN V0203101N000519999999N9999999N1+00541+00241102991ADDMA1999999097091REMSYN060AAXX  15204 06604 43/// /3101 10054 20024 39709 40299 5////;
0140066040999992011011521004+47000+006950FM-12+0487LSGN V0202901N000519999999N9999999N1+00501+00221102991ADDMA1999999097081MD1210031+9999OA149900261REMSYN088AAXX  15214 06604 33/// /2901 10050 20022 39708 40299 52003 333 55300 20000 91105 91203;
0140066040999992011011522004+47000+006950FM-12+0487LSGN V0200601N001019999999N9999999N1+00451+00231103011ADDMA1999999097091MD1210021+9999OA149900261REMSYN088AAXX  15224 06604 33/// /0602 10045 20023 39709 40301 52002 333 55300 20000 91105 91203;
0140066040999992011011523004+47000+006950FM-12+0487LSGN V0200301N000519999999N9999999N1+00431+00291102971ADDMA1999999097051MD1710041+9999OA149900151REMSYN088AAXX  15234 06604 33/// /0301 10043 20029 39705 40297 57004 333 55300 20000 91103 91202;
0140066040999992011011600004+47000+006950FM-12+0487LSGN V0209999C000019999999N9999999N1+00371+00241102961ADDMA1999999097021MD1710061+9999OA149900311REMSYN088AAXX  16004 06604 33/// /0000 10037 20024 39702 40296 57006 333 55300 20000 91106 91203;
0140066040999992011011601004+47000+006950FM-12+0487LSGN V0200701N000519999999N9999999N1+00281+00231102971ADDMA1999999097011MD1710081+9999OA149900151REMSYN088AAXX  16014 06604 33/// /0701 10028 20023 39701 40297 57008 333 55300 20000 91103 91203;
0140066040999992011011602004+47000+006950FM-12+0487LSGN V0200201N000519999999N9999999N1+00291+00191102941ADDMA1999999096991MD1719999+9999OA149900151REMSYN088AAXX  16024 06604 33/// /0201 10029 20019 39699 40294 57/// 333 55300 20000 91103 91202;
0087066040999992011011603004+47000+006950FM-12+0487LSGN V0200201N000519999999N9999999N1+00251+00161102971ADDMA1999999097011REMSYN060AAXX  16034 06604 43/// /0201 10025 20016 39701 40297 5////;
0140066040999992011011604004+47000+006950FM-12+0487LSGN V0202601N001019999999N9999999N1+00251+00161102951ADDMA1999999096991MD1710021+9999OA149900151REMSYN088AAXX  16044 06604 33/// /2602 10025 20016 39699 40295 57002 333 55300 20000 91103 91202;
0140066040999992011011605004+47000+006950FM-12+0487LSGN V0209999C000019999999N9999999N1+00181+00121102991ADDMA1999999097011MD1210021+9999OA149900151REMSYN088AAXX  16054 06604 33/// /0000 10018 20012 39701 40299 52002 333 55300 20000 91103 91202;
0207066040999992011011606004+47000+006950FM-12+0487LSGN V0202201N000519999999N9999999N1+00161+00161103041ADDAL19900091GJ104749IA2999-00109KA1999N+00151MA1999999097051MD1210041+9999OA149900261REMSYN112AAXX  16064 06604 33/// /2201 10016 20016 39705 40304 52004 333 20015 3/101 55079 55300 20000 70000 91105 91203;
0140066040999992011011607004+47000+006950FM-12+0487LSGN V0209999C000019999999N9999999N1+00141+00121103071ADDMA1999999097081MD1310091+9999OA149900151REMSYN088AAXX  16074 06604 33/// /0000 10014 20012 39708 40307 53009 333 55300 20000 91103 91202;
0140066040999992011011608004+47000+006950FM-12+0487LSGN V0200801N000519999999N9999999N1+00161+00161103101ADDMA1999999097111MD1319999+9999OA149900151REMSYN088AAXX  16084 06604 33/// /0801 10016 20016 39711 40310 53/// 333 55300 20036 91103 91202;
0140066040999992011011609004+47000+006950FM-12+0487LSGN V0200701N001019999999N9999999N1+00121+00121103121ADDMA1999999097121MD1210071+9999OA149900261REMSYN088AAXX  16094 06604 33/// /0702 10012 20012 39712 40312 52007 333 55300 20144 91105 91202;
0140066040999992011011610004+47000+006950FM-12+0487LSGN V0201001N001019999999N9999999N1+00111+00111103131ADDMA1999999097131MD1210051+9999OA149900261REMSYN088AAXX  16104 06604 33/// /1002 10011 20011 39713 40313 52005 333 55300 20385 91105 91202;
0140066040999992011011611004+47000+006950FM-12+0487LSGN V0209999C000019999999N9999999N1+00161+00161103101ADDMA1999999097111MD1010001+9999OA149900211REMSYN088AAXX  16114 06604 33/// /0000 10016 20016 39711 40310 50000 333 55300 20598 91104 91202;
0140066040999992011011612004+47000+006950FM-12+0487LSGN V0201501N001019999999N9999999N1+00161+00161103041ADDMA1999999097051MD1710071+9999OA149900261REMSYN088AAXX  16124 06604 33/// /1502 10016 20016 39705 40304 57007 333 55300 20907 91105 91202;
0140066040999992011011613004+47000+006950FM-12+0487LSGN V0202001N001019999999N9999999N1+00151+00151102971ADDMA1999999096991MD1810141+9999OA149900151REMSYN088AAXX  16134 06604 33/// /2002 10015 20015 39699 40297 58014 333 55303 20932 91103 91202;
0140066040999992011011614004+47000+006950FM-12+0487LSGN V0202801N000519999999N9999999N1+00191+00191102911ADDMA1999999096941MD1619999+9999OA149900151REMSYN088AAXX  16144 06604 33/// /2801 10019 20019 39694 40291 56/// 333 55308 20979 91103 91202;
0140066040999992011011615004+47000+006950FM-12+0487LSGN V0209999C000019999999N9999999N1+00151+00151102931ADDMA1999999096951MD1710101+9999OA149900211REMSYN088AAXX  16154 06604 33/// /0000 10015 20015 39695 40293 57010 333 55305 20493 91104 91202;
0140066040999992011011616004+47000+006950FM-12+0487LSGN V0209999C000019999999N9999999N1+00111+00111102931ADDMA1999999096941MD1710051+9999OA149900151REMSYN088AAXX  16164 06604 33/// /0000 10011 20011 39694 40293 57005 333 55301 20148 91103 91202;
0140066040999992011011617004+47000+006950FM-12+0487LSGN V0202301N000519999999N9999999N1+00081+00081102951ADDMA1999999096951MD1210011+9999OA149900151REMSYN088AAXX  16174 06604 33/// /2301 10008 20008 39695 40295 52001 333 55300 20004 91103 91202;
0159066040999992011011618004+47000+006950FM-12+0487LSGN V0202701N000519999999N9999999N1+00051+00051103001ADDKA1120M+00281MA1999999096991MD1310041+9999OA149900261REMSYN094AAXX  16184 06604 33/// /2701 10005 20005 39699 40300 53004 333 10028 55300 20000 91105 91202;
0140066040999992011011619004+47000+006950FM-12+0487LSGN V0209999C000519999999N9999999N1+00001+00001103031ADDMA1999999097011MD1110071+9999OA149900101REMSYN088AAXX  16194 06604 33/// /0001 10000 20000 39701 40303 51007 333 55300 20000 91102 91201;
0140066040999992011011620004+47000+006950FM-12+0487LSGN V0202601N001019999999N9999999N1+00001+00001103051ADDMA1999999097031MD1110081+9999OA149900151REMSYN088AAXX  16204 06604 33/// /2602 10000 20000 39703 40305 51008 333 55300 20000 91103 91202;
0140066040999992011011621004+47000+006950FM-12+0487LSGN V0209999C000019999999N9999999N1-00051-00051103071ADDMA1999999097041MD1110051+9999OA149900151REMSYN088AAXX  16214 06604 33/// /0000 11005 21005 39704 40307 51005 333 55300 20000 91103 91202;
0140066040999992011011622004+47000+006950FM-12+0487LSGN V0209999C000019999999N9999999N1-00071-00071103071ADDMA1999999097031MD1210021+9999OA149900101REMSYN088AAXX  16224 06604 33/// /0000 11007 21007 39703 40307 52002 333 55300 20000 91102 91201;
0140066040999992011011623004+47000+006950FM-12+0487LSGN V0203001N000519999999N9999999N1-00091-00091103081ADDMA1999999097041MD1210011+9999OA149900101REMSYN088AAXX  16234 06604 33/// /3001 11009 21009 39704 40308 52001 333 55300 20000 91102 91201;
0140066040999992011011700004+47000+006950FM-12+0487LSGN V0203001N000519999999N9999999N1-00091-00091103071ADDMA1999999097031MD1010011+9999OA149900151REMSYN088AAXX  17004 06604 33/// /3001 11009 21009 39703 40307 50001 333 55300 20000 91103 91202;
0140066040999992011011701004+47000+006950FM-12+0487LSGN V0202801N000519999999N9999999N1-00111-00111103061ADDMA1999999097011MD1810021+9999OA149900101REMSYN088AAXX  17014 06604 33/// /2801 11011 21011 39701 40306 58002 333 55300 20000 91102 91201;
0140066040999992011011702004+47000+006950FM-12+0487LSGN V0202201N000519999999N9999999N1-00041-00041103051ADDMA1999999097021MD1719999+9999OA149900101REMSYN088AAXX  17024 06604 33/// /2201 11004 21004 39702 40305 57/// 333 55300 20000 91102 91202;
0103066040999992011011703004+47000+006950FM-12+0487LSGN V0203201N000519999999N9999999N1-00051-00051103041ADDMA1999999097011REMSYN076AAXX  17034 06604 33/// /3201 11005 21005 39701 40304 5//// 333 553// 20000;
0140066040999992011011704004+47000+006950FM-12+0487LSGN V0209999C000019999999N9999999N1-00041-00041103011ADDMA1999999096981MD1710031+9999OA149900101REMSYN088AAXX  17044 06604 33/// /0000 11004 21004 39698 40301 57003 333 55300 20000 91102 91201;
0140066040999992011011705004+47000+006950FM-12+0487LSGN V0202601N000519999999N9999999N1-00021-00021102971ADDMA1999999096951MD1710071+9999OA149900211REMSYN088AAXX  17054 06604 33/// /2601 11002 21002 39695 40297 57007 333 55300 20000 91104 91202;
0207066040999992011011706004+47000+006950FM-12+0487LSGN V0202201N001019999999N9999999N1-00081-00081102961ADDAL19900091GJ101029IA2999-00209KA1999N-00111MA1999999096931MD1710081+9999OA149900211REMSYN112AAXX  17064 06604 33/// /2202 11008 21008 39693 40296 57008 333 21011 3/102 55017 55300 20000 70000 91104 91202;
0140066040999992011011707004+47000+006950FM-12+0487LSGN V0202201N000519999999N9999999N1-00091-00091102971ADDMA1999999096931MD1710051+9999OA149900151REMSYN088AAXX  17074 06604 33/// /2201 11009 21009 39693 40297 57005 333 55300 20000 91103 91202;
0087066040999992011011708004+47000+006950FM-12+0487LSGN V0209999C000019999999N9999999N1-00081-00081102971ADDMA1999999096941REMSYN060AAXX  17084 06604 43/// /0000 11008 21008 39694 40297 5////;
0087066040999992011011709004+47000+006950FM-12+0487LSGN V0201501N000519999999N9999999N1-00041-00041102961ADDMA1999999096941REMSYN060AAXX  17094 06604 43/// /1501 11004 21004 39694 40296 5////;
0140066040999992011011710004+47000+006950FM-12+0487LSGN V0202001N000519999999N9999999N1+00081+00061102971ADDMA1999999096971MD1210041+9999OA149900211REMSYN088AAXX  17104 06604 33/// /2001 10008 20006 39697 40297 52004 333 55301 20529 91104 91202;
0140066040999992011011711004+47000+006950FM-12+0487LSGN V0202101N001519999999N9999999N1+00131+00131102951ADDMA1999999096961MD1010021+9999OA149900261REMSYN088AAXX  17114 06604 33/// /2103 10013 20013 39696 40295 50002 333 55303 20990 91105 91203;
0140066040999992011011712004+47000+006950FM-12+0487LSGN V0202501N002119999999N9999999N1+00301+00231102871ADDMA1999999096921MD1810021+9999OA149900461REMSYN088AAXX  17124 06604 33/// /2504 10030 20023 39692 40287 58002 333 55304 2//// 91109 91204;
0140066040999992011011713004+47000+006950FM-12+0487LSGN V0202201N001519999999N9999999N1+00351+00301102831ADDMA1999999096901MD1710071+9999OA149900621REMSYN088AAXX  17134 06604 33/// /2203 10035 20030 39690 40283 57007 333 553// 2//// 91112 91205;
0087066040999992011011714004+47000+006950FM-12+0487LSGN V0202401N002619999999N9999999N1+00721+00371102741ADDMA1999999096891REMSYN060AAXX  17144 06604 43/// /2405 10072 20037 39689 40274 5////;
0087066040999992011011715004+47000+006950FM-12+0487LSGN V0202301N000519999999N9999999N1+00561+00391102801ADDMA1999999096911REMSYN060AAXX  17154 06604 43/// /2301 10056 20039 39691 40280 5////;
0140066040999992011011716004+47000+006950FM-12+0487LSGN V0202001N000519999999N9999999N1+00491+00431102831ADDMA1999999096931MD1210031+9999OA149900461REMSYN088AAXX  17164 06604 33/// /2001 10049 20043 39693 40283 52003 333 55303 20191 91109 91204;
0140066040999992011011717004+47000+006950FM-12+0487LSGN V0209999C000019999999N9999999N1+00381+00381102881ADDMA1999999096951MD1210061+9999OA149900311REMSYN088AAXX  17174 06604 33/// /0000 10038 20038 39695 40288 52006 333 55300 20007 91106 91203;
0159066040999992011011718004+47000+006950FM-12+0487LSGN V0203501N000519999999N9999999N1+00391+00381102911ADDKA1120M+00721MA1999999096981MD1310071+9999OA149900621REMSYN094AAXX  17184 06604 33/// /3501 10039 20038 39698 40291 53007 333 10072 55300 20000 91112 91205;
0140066040999992011011719004+47000+006950FM-12+0487LSGN V0200701N001019999999N9999999N1+00341+00341102941ADDMA1999999097001MD1310071+9999OA149900151REMSYN088AAXX  17194 06604 33/// /0702 10034 20034 39700 40294 53007 333 55300 20000 91103 91202;
0140066040999992011011720004+47000+006950FM-12+0487LSGN V0201001N001019999999N9999999N1+00321+00321102961ADDMA1999999097011MD1210061+9999OA149900151REMSYN088AAXX  17204 06604 33/// /1002 10032 20032 39701 40296 52006 333 55300 20000 91103 91202;
0140066040999992011011721004+47000+006950FM-12+0487LSGN V0209999C000019999999N9999999N1+00291+00291102951ADDMA1999999097001MD1210021+9999OA149900311REMSYN088AAXX  17214 06604 33/// /0000 10029 20029 39700 40295 52002 333 55300 20000 91106 91203;
0140066040999992011011722004+47000+006950FM-12+0487LSGN V0201101N001019999999N9999999N1+00271+00271102981ADDMA1999999097021MD1210021+9999OA149900151REMSYN088AAXX  17224 06604 33/// /1102 10027 20027 39702 40298 52002 333 55300 20000 91103 91202;
0140066040999992011011723004+47000+006950FM-12+0487LSGN V0200901N000519999999N9999999N1+00231+00231103001ADDMA1999999097031MD1310021+9999OA149900151REMSYN088AAXX  17234 06604 33/// /0901 10023 20023 39703 40300 53002 333 55300 20000 91103 91202;
0140066040999992011011800004+47000+006950FM-12+0487LSGN V0201001N000519999999N9999999N1+00211+00211102991ADDMA1999999097021MD1010021+9999OA149900621REMSYN088AAXX  18004 06604 33/// /1001 10021 20021 39702 40299 50002 333 55300 20000 91112 91205;
0140066040999992011011801004+47000+006950FM-12+0487LSGN V0200701N000519999999N9999999N1+00211+00211102971ADDMA1999999097001MD1719999+9999OA149900151REMSYN088AAXX  18014 06604 33/// /0701 10021 20021 39700 40297 57/// 333 55300 20000 91103 91202;
0087066040999992011011802004+47000+006950FM-12+0487LSGN V0209999C000019999999N9999999N1+00181+00181102991ADDMA1999999097011REMSYN060AAXX  18024 06604 43/// /0000 10018 20018 39701 40299 5////;
0087066040999992011011803004+47000+006950FM-12+0487LSGN V0201301N001019999999N9999999N1+00161+00161102961ADDMA1999999096981REMSYN060AAXX  18034 06604 43/// /1302 10016 20016 39698 40296 5////;
0103066040999992011011804004+47000+006950FM-12+0487LSGN V0200701N001019999999N9999999N1+00141+00141102931ADDMA1999999096951REMSYN076AAXX  18044 06604 33/// /0702 10014 20014 39695 40293 5//// 333 553// 20000;
0140066040999992011011805004+47000+006950FM-12+0487LSGN V0209999C000019999999N9999999N1+00151+00151102921ADDMA1999999096941MD1710071+9999OA149900151REMSYN088AAXX  18054 06604 33/// /0000 10015 20015 39694 40292 57007 333 55300 20000 91103 91202;
0207066040999992011011806004+47000+006950FM-12+0487LSGN V0200801N001019999999N9999999N1+00181+00181102951ADDAL19900091GJ102469IA2999+00109KA1999N+00131MA1999999096971MD1510011+9999OA149900261REMSYN112AAXX  18064 06604 33/// /0802 10018 20018 39697 40295 55001 333 20013 3/001 55041 55300 20000 70000 91105 91203;
0140066040999992011011807004+47000+006950FM-12+0487LSGN V0200901N001019999999N9999999N1+00101+00101102961ADDMA1999999096971MD1310021+9999OA149900311REMSYN088AAXX  18074 06604 33/// /0902 10010 20010 39697 40296 53002 333 55300 20000 91106 91204;
0087066040999992011011808004+47000+006950FM-12+0487LSGN V0200701N001019999999N9999999N1+00121+00121102991ADDMA1999999097001REMSYN060AAXX  18084 06604 43/// /0702 10012 20012 39700 40299 5////;
0087066040999992011011809004+47000+006950FM-12+0487LSGN V0201101N000519999999N9999999N1+00101+00101103001ADDMA1999999097001REMSYN060AAXX  18094 06604 43/// /1101 10010 20010 39700 40300 5////;
0175066040999992011011810004+47000+006950FM-12+0487LSGN V0201501N000519999999N9999999N1+00181+00181102951ADDMA1999999096971MD1710011+9999OA149900151REMSYN088AAXX  18104 06604 33/// /1501 10018 20018 39697 40295 58000 333 55300 20220 91103 91202;EQDQ01+000082APCTENQ02+000002APC3  
0140066040999992011011811004+47000+006950FM-12+0487LSGN V0200901N000519999999N9999999N1+00181+00181102901ADDMA1999999096931MD1710071+9999OA149900151REMSYN088AAXX  18114 06604 33/// /0901 10018 20018 39693 40290 57007 333 55300 20234 91103 91201;
0140066040999992011011812004+47000+006950FM-12+0487LSGN V0209999C000019999999N9999999N1+00221+00221102821ADDMA1999999096861MD1719999+9999OA149900311REMSYN088AAXX  18124 06604 33/// /0000 10022 20022 39686 40282 57/// 333 55300 20353 91106 91204;
0103066040999992011011813004+47000+006950FM-12+0487LSGN V0201501N001019999999N9999999N1+00231+00231102761ADDMA1999999096811REMSYN076AAXX  18134 06604 33/// /1502 10023 20023 39681 40276 5//// 333 553// 20281;
0087066040999992011011814004+47000+006950FM-12+0487LSGN V0201401N001019999999N9999999N1+00231+00231102741ADDMA1999999096791REMSYN060AAXX  18144 06604 43/// /1402 10023 20023 39679 40274 5////;
0087066040999992011011815004+47000+006950FM-12+0487LSGN V0201801N000519999999N9999999N1+00251+00251102761ADDMA1999999096811REMSYN060AAXX  18154 06604 43/// /1801 10025 20025 39681 40276 5////;
0140066040999992011011816004+47000+006950FM-12+0487LSGN V0200801N000519999999N9999999N1+00221+00221102781ADDMA1999999096821MD1210011+9999OA149900151REMSYN088AAXX  18164 06604 33/// /0801 10022 20022 39682 40278 52001 333 55300 20151 91103 91201;
0140066040999992011011817004+47000+006950FM-12+0487LSGN V0200701N000519999999N9999999N1+00211+00211102821ADDMA1999999096861MD1210071+9999OA149900151REMSYN088AAXX  18174 06604 33/// /0701 10021 20021 39686 40282 52007 333 55300 20004 91103 91201;
0159066040999992011011818004+47000+006950FM-12+0487LSGN V0201001N000519999999N9999999N1+00211+00211102841ADDKA1120M+00261MA1999999096881MD1210071+9999OA149900311REMSYN094AAXX  18184 06604 33/// /1001 10021 20021 39688 40284 52007 333 10026 55300 20000 91106 91204;
0140066040999992011011819004+47000+006950FM-12+0487LSGN V0209999C000019999999N9999999N1+00171+00171102841ADDMA1999999096871MD1210051+9999OA149900151REMSYN088AAXX  18194 06604 33/// /0000 10017 20017 39687 40284 52005 333 55300 20000 91103 91202;
0140066040999992011011820004+47000+006950FM-12+0487LSGN V0202501N000519999999N9999999N1+00161+00161102841ADDMA1999999096871MD1010011+9999OA149900151REMSYN088AAXX  18204 06604 33/// /2501 10016 20016 39687 40284 50001 333 55300 20000 91103 91202;
0140066040999992011011821004+47000+006950FM-12+0487LSGN V0200501N000519999999N9999999N1+00121+00121102851ADDMA1999999096871MD1710011+9999OA149900261REMSYN088AAXX  18214 06604 33/// /0501 10012 20012 39687 40285 57001 333 55300 20000 91105 91203;
0140066040999992011011822004+47000+006950FM-12+0487LSGN V0209999C000019999999N9999999N1+00071+00071102881ADDMA1999999096881MD1210011+9999OA149900261REMSYN088AAXX  18224 06604 33/// /0000 10007 20007 39688 40288 52001 333 55300 20000 91105 91203;
0140066040999992011011823004+47000+006950FM-12+0487LSGN V0203501N001019999999N9999999N1+00121+00121102891ADDMA1999999096901MD1210031+9999OA149900261REMSYN088AAXX  18234 06604 33/// /3502 10012 20012 39690 40289 52003 333 55300 20000 91105 91203;
