0126066010999992012010100004+47550+007583FM-12+031699999V0202301N003119999999N9999999N1+01081+00861101921ADDAA106002091MA1999999098131REMSYN088AAXX  01004 06601 03/// /2306 10108 20086 39813 40192 5//// 60021 333 553// 20000 60005;
0103066010999992012010101004+47550+007583FM-12+031699999V0202401N002619999999N9999999N1+01091+00831101911ADDMA1999999098121REMSYN076AAXX  01014 06601 33/// /2405 10109 20083 39812 40191 5//// 333 553// 20000;
0103066010999992012010102004+47550+007583FM-12+031699999V0202401N003119999999N9999999N1+01091+00801101931ADDMA1999999098141REMSYN076AAXX  01024 06601 33/// /2406 10109 20080 39814 40193 5//// 333 553// 20000;
0103066010999992012010103004+47550+007583FM-12+031699999V0202301N002119999999N9999999N1+01101+00771101901ADDMA1999999098111REMSYN076AAXX  01034 06601 33/// /2304 10110 20077 39811 40190 5//// 333 553// 20000;
0103066010999992012010104004+47550+007583FM-12+031699999V0202501N001019999999N9999999N1+01131+00781101911ADDMA1999999098121REMSYN076AAXX  01044 06601 33/// /2502 10113 20078 39812 40191 5//// 333 553// 20000;
0103066010999992012010105004+47550+007583FM-12+031699999V0201101N001019999999N9999999N1+00951+00801101961ADDMA1999999098151REMSYN076AAXX  01054 06601 33/// /1102 10095 20080 39815 40196 5//// 333 553// 20000;
0235066010999992012010106004+47550+007583FM-12+031699999V0209999C000010069019N0180001N1+00971+00791101981ADDAA124007691AL14200791GA1081+006901061GF108991999999008001999999GJ100009IA1099IA2999+00609KA1999N+00931MA1999999098171REMSYN106AAXX  01064 06601 42568 80000 10097 20079 39817 40198 5//// 333 20093 31006 55000 70077 88623 90768 93100;
0103066010999992012010107004+47550+007583FM-12+031699999V0202301N001519999999N9999999N1+01031+00791102001ADDMA1999999098201REMSYN076AAXX  01074 06601 33/// /2303 10103 20079 39820 40200 5//// 333 553// 20000;
0103066010999992012010108004+47550+007583FM-12+031699999V0200601N000519999999N9999999N1+01001+00811102041ADDMA1999999098231REMSYN076AAXX  01084 06601 33/// /0601 10100 20081 39823 40204 5//// 333 553// 20058;
0140066010999992012010109004+47550+007583FM-12+031699999V0202301N003119999999N9999999N1+01231+00771102041ADDMA1999999098261MD1219999+9999OA149900621REMSYN088AAXX  01094 06601 33/// /2306 10123 20077 39826 40204 52/// 333 55300 20317 91112 91206;
0140066010999992012010110004+47550+007583FM-12+031699999V0202401N001519999999N9999999N1+01301+00771102031ADDMA1999999098261MD1010061+9999OA149900621REMSYN088AAXX  01104 06601 33/// /2403 10130 20077 39826 40203 50006 333 55300 20410 91112 91206;
0140066010999992012010111004+47550+007583FM-12+031699999V0202401N003619999999N9999999N1+01361+00771101981ADDMA1999999098221MD1810011+9999OA149900621REMSYN088AAXX  01114 06601 33/// /2407 10136 20077 39822 40198 58001 333 55300 20508 91112 91207;
0210066010999992012010112004+47550+007583FM-12+031699999V0202301N00311008701CN0500001N1+01411+00801101911ADDGA1011+003901081GA2071+008701061GF108991999999004501999999MA1999999098161MD1710101+9999OA149900671REMSYN100AAXX  01124 06601 32484 82306 10141 20080 39816 40191 57010 333 55300 20504 81813 87629 91113 91207;
0140066010999992012010113004+47550+007583FM-12+031699999V0202201N003619999999N9999999N1+01401+00841101831ADDMA1999999098081MD1819999+9999OA149901031REMSYN088AAXX  01134 06601 33/// /2207 10140 20084 39808 40183 58/// 333 55300 20450 91120 91209;
0103066010999992012010114004+47550+007583FM-12+031699999V0202201N001019999999N9999999N1+01361+00921101821ADDMA1999999098071REMSYN076AAXX  01144 06601 33/// /2202 10136 20092 39807 40182 5//// 333 553// 20288;
0140066010999992012010115004+47550+007583FM-12+031699999V0202401N002619999999N9999999N1+01411+00811101801ADDMA1999999098061MD1710101+9999OA149901031REMSYN088AAXX  01154 06601 33/// /2405 10141 20081 39806 40180 57010 333 55300 20184 91120 91209;
0140066010999992012010116004+47550+007583FM-12+031699999V0202601N001519999999N9999999N1+01271+00781101831ADDMA1999999098071MD1210011+9999OA149900671REMSYN088AAXX  01164 06601 33/// /2603 10127 20078 39807 40183 52001 333 55300 20040 91113 91206;
0140066010999992012010117004+47550+007583FM-12+031699999V0201101N000519999999N9999999N1+01041+00771101871ADDMA1999999098071MD1219999+9999OA149900361REMSYN088AAXX  01174 06601 33/// /1101 10104 20077 39807 40187 52/// 333 55300 20000 91107 91203;
0263066010999992012010118004+47550+007583FM-12+031699999V0201901N00151007801CN0500001N1+01131+00731101841ADDAL19900091GA1011+002701081GA2061+007801061GF107991999999002501999999IA1099KA1120M+01441MA1999999098061MD1710041+9999OA149901031REMSYN124AAXX  01184 06601 32384 71903 10113 20073 39806 40184 57000 333 10144 31/// 55300 20000 81809 86626 90766 93100 91120 91209;
0140066010999992012010119004+47550+007583FM-12+031699999V0209999C000019999999N9999999N1+01161+00711101811ADDMA1999999098031MD1710041+9999OA149900311REMSYN088AAXX  01194 06601 33/// /0000 10116 20071 39803 40181 57004 333 55300 20000 91106 91205;
0103066010999992012010120004+47550+007583FM-12+031699999V0202401N001519999999N9999999N1+01251+00711101761ADDMA1999999098001REMSYN076AAXX  01204 06601 33/// /2403 10125 20071 39800 40176 5//// 333 553// 20000;
0103066010999992012010121004+47550+007583FM-12+031699999V0200701N001519999999N9999999N1+00971+00781101721ADDMA1999999097921REMSYN076AAXX  01214 06601 33/// /0703 10097 20078 39792 40172 5//// 333 553// 20000;
0103066010999992012010122004+47550+007583FM-12+031699999V0201101N002119999999N9999999N1+00921+00731101641ADDMA1999999097841REMSYN076AAXX  01224 06601 33/// /1104 10092 20073 39784 40164 5//// 333 553// 20000;
0103066010999992012010123004+47550+007583FM-12+031699999V0201001N003119999999N9999999N1+00861+00731101591ADDMA1999999097781REMSYN076AAXX  01234 06601 33/// /1006 10086 20073 39778 40159 5//// 333 553// 20000;
0140066010999992012010200004+47550+007583FM-12+031699999V0201101N002619999999N9999999N1+00831+00671101541ADDMA1999999097731MD1610191+9999OA149900621REMSYN088AAXX  02004 06601 33/// /1105 10083 20067 39773 40154 56019 333 55300 20000 91112 91206;
0140066010999992012010201004+47550+007583FM-12+031699999V0201001N003119999999N9999999N1+00811+00691101481ADDMA1999999097671MD1719999+9999OA149900571REMSYN088AAXX  02014 06601 33/// /1006 10081 20069 39767 40148 57/// 333 55300 20000 91111 91206;
0103066010999992012010202004+47550+007583FM-12+031699999V0201101N003619999999N9999999N1+00811+00671101441ADDMA1999999097631REMSYN076AAXX  02024 06601 33/// /1107 10081 20067 39763 40144 5//// 333 553// 20000;
0140066010999992012010203004+47550+007583FM-12+031699999V0201101N002119999999N9999999N1+00771+00661101411ADDMA1999999097591MD1619999+9999OA149900721REMSYN088AAXX  02034 06601 33/// /1104 10077 20066 39759 40141 56/// 333 55300 20000 91114 91208;
0140066010999992012010204004+47550+007583FM-12+031699999V0201201N002119999999N9999999N1+00791+00661101341ADDMA1999999097531MD1819999+9999OA149900411REMSYN088AAXX  02044 06601 33/// /1204 10079 20066 39753 40134 58/// 333 55300 20000 91108 91204;
0140066010999992012010205004+47550+007583FM-12+031699999V0201101N003119999999N9999999N1+00801+00651101261ADDMA1999999097451MD1810181+9999OA149900571REMSYN088AAXX  02054 06601 33/// /1106 10080 20065 39745 40126 58018 333 55300 20000 91111 91206;
0295066010999992012010206004+47550+007583FM-12+031699999V0201101N00211033001CN0250001N1+00831+00641101211ADDAL19900091GA1011+008701061GA2081+033001031GF108991999999008001999999GJ100009IA1099IA2999+00609KA1999N+00771MA1999999097411MD1610181+9999OA149900721REMSYN136AAXX  02064 06601 32575 81104 10083 20064 39741 40121 56018 333 20077 31006 55000 55300 20000 70000 81629 88361 90768 93100 91114 91208;
0140066010999992012010207004+47550+007583FM-12+031699999V0200901N002619999999N9999999N1+00791+00651101211ADDMA1999999097401MD1710131+9999OA149900461REMSYN088AAXX  02074 06601 33/// /0905 10079 20065 39740 40121 57013 333 55300 20000 91109 91206;
0103066010999992012010208004+47550+007583FM-12+031699999V0200901N001519999999N9999999N1+00801+00651101231ADDMA1999999097421REMSYN076AAXX  02084 06601 33/// /0903 10080 20065 39742 40123 5//// 333 553// 20007;
0146066010999992012010209004+47550+007583FM-12+031699999V0201001N001519999999N9999999N1+00801+00691101301ADDMA1999999097491MD1310081+9999OA149900461REMSYN094AAXX  02094 06601 23/// /1003 10080 20069 39749 40130 53008 333 55300 20076 69935 91109 91206;
0146066010999992012010210004+47550+007583FM-12+031699999V0202801N002619999999N9999999N1+01051+00761101341ADDMA1999999097561MD1310161+9999OA149900981REMSYN094AAXX  02104 06601 23/// /2805 10105 20076 39756 40134 53016 333 55300 20115 69975 91119 91209;
0146066010999992012010211004+47550+007583FM-12+031699999V0202401N005719999999N9999999N1+00931+00661101381ADDMA1999999097591MD1210171+9999OA149901181REMSYN094AAXX  02114 06601 23/// /2411 10093 20066 39759 40138 52017 333 55300 20140 69995 91123 91211;
0239066010999992012010212004+47550+007583FM-12+031699999V0202601N00461006901CN0080001N1+00781+00531101531ADDAA106003091AY161061AY221061GA1081+006901051GF108991999999008001999999MA1999999097711MD1219999+9999MW1631OA149901601REMSYN112AAXX  02124 06601 01558 82609 10078 20053 39771 40153 52/// 60031 76362 333 55300 20119 60025 88523 91131 91212;
0146066010999992012010213004+47550+007583FM-12+031699999V0202201N003119999999N9999999N1+00791+00591101561ADDMA1999999097741MD1219999+9999OA149900881REMSYN094AAXX  02134 06601 23/// /2206 10079 20059 39774 40156 52/// 333 55300 20212 69915 91117 91210;
0109066010999992012010214004+47550+007583FM-12+031699999V0202301N005719999999N9999999N1+00731+00531101691ADDMA1999999097861REMSYN082AAXX  02144 06601 23/// /2311 10073 20053 39786 40169 5//// 333 553// 20144 69915;
0146066010999992012010215004+47550+007583FM-12+031699999V0202401N004119999999N9999999N1+00681+00481101821ADDMA1999999097981MD1210271+9999OA149900881REMSYN094AAXX  02154 06601 23/// /2408 10068 20048 39798 40182 52027 333 55300 20050 69955 91117 91211;
0146066010999992012010216004+47550+007583FM-12+031699999V0202101N002619999999N9999999N1+00631+00471101881ADDMA1999999098031MD1110291+9999OA149900571REMSYN094AAXX  02164 06601 23/// /2105 10063 20047 39803 40188 51029 333 55300 20014 69915 91111 91206;
0140066010999992012010217004+47550+007583FM-12+031699999V0202601N001519999999N9999999N1+00681+00461101951ADDMA1999999098101MD1110241+9999OA149900411REMSYN088AAXX  02174 06601 33/// /2603 10068 20046 39810 40195 51024 333 55300 20000 91108 91204;
0292066010999992012010218004+47550+007583FM-12+031699999V0202301N00461006901CN0080001N1+00581+00321102051ADDAA112004191AL19900091AY161061AY251061GA1081+006901051GF108991999999008001999999IA1119KA1120M+01121MA1999999098181MD1310201+9999MW1501OA149901131REMSYN136AAXX  02184 06601 01558 82309 10058 20032 39818 40205 53020 60042 75065 333 10112 32/// 55300 20000 69915 88523 90766 93100 91122 91211;
0140066010999992012010219004+47550+007583FM-12+031699999V0202101N004619999999N9999999N1+00581+00291102111ADDMA1999999098241MD1119999+9999OA149900671REMSYN088AAXX  02194 06601 33/// /2109 10058 20029 39824 40211 51/// 333 55300 20000 91113 91209;
0140066010999992012010220004+47550+007583FM-12+031699999V0202201N003119999999N9999999N1+00591+00281102191ADDMA1999999098321MD1319999+9999OA149900571REMSYN088AAXX  02204 06601 33/// /2206 10059 20028 39832 40219 53/// 333 55300 20000 91111 91207;
0140066010999992012010221004+47550+007583FM-12+031699999V0202301N003119999999N9999999N1+00621+00311102261ADDMA1999999098391MD1319999+9999OA149900671REMSYN088AAXX  02214 06601 33/// /2306 10062 20031 39839 40226 53/// 333 55300 20000 91113 91209;
0140066010999992012010222004+47550+007583FM-12+031699999V0203301N001519999999N9999999N1+00581+00341102361ADDMA1999999098481MD1210241+9999OA149900461REMSYN088AAXX  02224 06601 33/// /3303 10058 20034 39848 40236 52024 333 55300 20000 91109 91205;
0146066010999992012010223004+47550+007583FM-12+031699999V0202301N004619999999N9999999N1+00441+00271102451ADDMA1999999098551MD1219999+9999OA149901131REMSYN094AAXX  02234 06601 23/// /2309 10044 20027 39855 40245 52/// 333 55300 20000 60035 91122 91209;
0163066010999992012010300004+47550+007583FM-12+031699999V0202201N002619999999N9999999N1+00471+00291102551ADDAA106003091MA1999999098651MD1210261+9999OA149901131REMSYN100AAXX  03004 06601 03/// /2205 10047 20029 39865 40255 52026 60031 333 55300 20000 60005 91122 91209;
0140066010999992012010301004+47550+007583FM-12+031699999V0202801N001519999999N9999999N1+00501+00311102631ADDMA1999999098731MD1219999+9999OA149900571REMSYN088AAXX  03014 06601 33/// /2803 10050 20031 39873 40263 52/// 333 55300 20000 91111 91206;
0103066010999992012010302004+47550+007583FM-12+031699999V0202501N002119999999N9999999N1+00491+00241102731ADDMA1999999098821REMSYN076AAXX  03024 06601 33/// /2504 10049 20024 39882 40273 5//// 333 553// 20000;
0140066010999992012010303004+47550+007583FM-12+031699999V0202601N002619999999N9999999N1+00481+00211102771ADDMA1999999098861MD1210211+9999OA149900621REMSYN088AAXX  03034 06601 33/// /2605 10048 20021 39886 40277 52021 333 55300 20000 91112 91206;
0140066010999992012010304004+47550+007583FM-12+031699999V0202401N002119999999N9999999N1+00351+00171102801ADDMA1999999098871MD1210141+9999OA149900361REMSYN088AAXX  03044 06601 33/// /2404 10035 20017 39887 40280 52014 333 55300 20000 91107 91204;
0140066010999992012010305004+47550+007583FM-12+031699999V0201501N002119999999N9999999N1+00261+00131102841ADDMA1999999098901MD1219999+9999OA149900311REMSYN088AAXX  03054 06601 33/// /1504 10026 20013 39890 40284 52/// 333 55300 20000 91106 91204;
0334066010999992012010306004+47550+007583FM-12+031699999V0209999C000012200019N0100001N1+00221+00101102831ADDAA112003091AL13000791AL29900091AY161061AY211061GA1031+027001031GF103991999999999999999999GJ100009IA1099IA2999-00109KA1999N+00241MA1999999098881MD1019999+9999MW1101OA149900621REMSYN148AAXX  03064 06601 01960 30000 10022 20010 39888 40283 50/// 60032 71061 333 20024 31101 55000 55300 20000 60005 70075 83359 90768 93100 91112 91206;
0140066010999992012010307004+47550+007583FM-12+031699999V0201001N001019999999N9999999N1+00171+00101102801ADDMA1999999098851MD1719999+9999OA149900261REMSYN088AAXX  03074 06601 33/// /1002 10017 20010 39885 40280 57/// 333 55300 20000 91105 91203;
0103066010999992012010308004+47550+007583FM-12+031699999V0201101N001519999999N9999999N1+00241+00131102761ADDMA1999999098821REMSYN076AAXX  03084 06601 33/// /1103 10024 20013 39882 40276 5//// 333 553// 20061;
0140066010999992012010309004+47550+007583FM-12+031699999V0201101N001519999999N9999999N1+00311+00161102771ADDMA1999999098841MD1510041+9999OA149900411REMSYN088AAXX  03094 06601 33/// /1103 10031 20016 39884 40277 55004 333 55303 20302 91108 91204;
0140066010999992012010310004+47550+007583FM-12+031699999V0201101N002119999999N9999999N1+00401+00161102681ADDMA1999999098761MD1710091+9999OA149900361REMSYN088AAXX  03104 06601 33/// /1104 10040 20016 39876 40268 57009 333 55307 20630 91107 91204;
0140066010999992012010311004+47550+007583FM-12+031699999V0201101N002119999999N9999999N1+00621+00151102551ADDMA1999999098671MD1710151+9999OA149900411REMSYN088AAXX  03114 06601 33/// /1104 10062 20015 39867 40255 57015 333 55310 21026 91108 91205;
0188066010999992012010312004+47550+007583FM-12+031699999V0200801N002119999999N0550001N1+00791+00191102421ADDGA1031+033001031GF105991999999999999999999MA1999999098571MD1810271+9999OA149900411REMSYN094AAXX  03124 06601 32985 50804 10079 20019 39857 40242 58027 333 55310 21130 83361 91108 91205;
0140066010999992012010313004+47550+007583FM-12+031699999V0202501N002619999999N9999999N1+00981-00131102311ADDMA1999999098491MD1710271+9999OA149900721REMSYN088AAXX  03134 06601 33/// /2505 10098 21013 39849 40231 57027 333 55303 20788 91114 91206;
0103066010999992012010314004+47550+007583FM-12+031699999V0201701N001019999999N9999999N1+00911+00011102281ADDMA1999999098451REMSYN076AAXX  03144 06601 33/// /1702 10091 20001 39845 40228 5//// 333 553// 20317;
0140066010999992012010315004+47550+007583FM-12+031699999V0202501N003119999999N9999999N1+01011+00021102251ADDMA1999999098431MD1719999+9999OA149900721REMSYN088AAXX  03154 06601 33/// /2506 10101 20002 39843 40225 57/// 333 55300 20259 91114 91206;
0140066010999992012010316004+47550+007583FM-12+031699999V0202301N005119999999N9999999N1+01001+00231102251ADDMA1999999098431MD1710061+9999OA149901341REMSYN088AAXX  03164 06601 33/// /2310 10100 20023 39843 40225 57006 333 55300 20072 91126 91214;
0140066010999992012010317004+47550+007583FM-12+031699999V0202501N003619999999N9999999N1+00971+00321102221ADDMA1999999098401MD1710051+9999OA149901031REMSYN088AAXX  03174 06601 33/// /2507 10097 20032 39840 40222 57005 333 55300 20000 91120 91211;
0241066010999992012010318004+47550+007583FM-12+031699999V0202401N00671008701CN0250001N1+01071+00351102131ADDAL19900091GA1061+008701061GF108991999999008001999999IA1099KA1120M+01071MA1999999098331MD1710101+9999OA149901601REMSYN118AAXX  03184 06601 32575 82413 10107 20035 39833 40213 57010 333 10107 31/// 55300 20000 86629 90766 93100 91131 91214;
0103066010999992012010319004+47550+007583FM-12+031699999V0202401N006719999999N9999999N1+01101+00341101981ADDMA1999999098191REMSYN076AAXX  03194 06601 33/// /2413 10110 20034 39819 40198 5//// 333 553// 20000;
0140066010999992012010320004+47550+007583FM-12+031699999V0202701N001519999999N9999999N1+01151+00331101911ADDMA1999999098131MD1710271+9999OA149901541REMSYN088AAXX  03204 06601 33/// /2703 10115 20033 39813 40191 57027 333 55300 20000 91130 91214;
0103066010999992012010321004+47550+007583FM-12+031699999V0202201N005719999999N9999999N1+01161+00321101851ADDMA1999999098071REMSYN076AAXX  03214 06601 33/// /2211 10116 20032 39807 40185 5//// 333 553// 20000;
0140066010999992012010322004+47550+007583FM-12+031699999V0202201N007219999999N9999999N1+01181+00381101781ADDMA1999999098011MD1719999+9999OA149901341REMSYN088AAXX  03224 06601 33/// /2214 10118 20038 39801 40178 57/// 333 55300 20000 91126 91214;
0140066010999992012010323004+47550+007583FM-12+031699999V0202201N008219999999N9999999N1+01221+00491101691ADDMA1999999097921MD1819999+9999OA149901491REMSYN088AAXX  03234 06601 33/// /2216 10122 20049 39792 40169 58/// 333 55300 20000 91129 91216;
0140066010999992012010400004+47550+007583FM-12+031699999V0202301N007719999999N9999999N1+01231+00511101611ADDMA1999999097851MD1819999+9999OA149901541REMSYN088AAXX  04004 06601 33/// /2315 10123 20051 39785 40161 58/// 333 55300 20000 91130 91217;
0140066010999992012010401004+47550+007583FM-12+031699999V0202201N008219999999N9999999N1+01171+00541101471ADDMA1999999097711MD1819999+9999OA149901541REMSYN088AAXX  04014 06601 33/// /2216 10117 20054 39771 40147 58/// 333 55300 20000 91130 91217;
0109066010999992012010402004+47550+007583FM-12+031699999V0202301N009319999999N9999999N1+01101+00621101451ADDMA1999999097681REMSYN082AAXX  04024 06601 23/// /2318 10110 20062 39768 40145 5//// 333 553// 20000 69945;
0146066010999992012010403004+47550+007583FM-12+031699999V0202101N006719999999N9999999N1+01051+00641101411ADDMA1999999097631MD1710221+9999OA149901541REMSYN094AAXX  04034 06601 23/// /2113 10105 20064 39763 40141 57022 333 55300 20000 69965 91130 91218;
0146066010999992012010404004+47550+007583FM-12+031699999V0202801N005119999999N9999999N1+00771+00611101651ADDMA1999999097821MD1310111+9999OA149901541REMSYN094AAXX  04044 06601 23/// /2810 10077 20061 39782 40165 53011 333 55300 20000 60025 91130 91215;
0146066010999992012010405004+47550+007583FM-12+031699999V0202801N006719999999N9999999N1+00591+00371101881ADDMA1999999098021MD1210341+9999OA149901751REMSYN094AAXX  04054 06601 23/// /2813 10059 20037 39802 40188 52034 333 55300 20000 60035 91134 91215;
0334066010999992012010406004+47550+007583FM-12+031699999V0202301N00571005401CN0080001N1+00551+00341101971ADDAA112007191AL19900791AL29900091AY161061AY261061GA1061+005401071GF108991999999004501999999GJ102049IA1099IA2999+00409KA1999N+00531MA1999999098101MD1110471+9999MW1631OA149901751REMSYN148AAXX  04064 06601 01458 82311 10055 20034 39810 40197 51047 60072 76366 333 20053 31004 55034 55300 20000 60025 70070 86718 90768 93100 91134 91218;
0146066010999992012010407004+47550+007583FM-12+031699999V0202701N004119999999N9999999N1+00601+00401102071ADDMA1999999098201MD1119999+9999OA149900881REMSYN094AAXX  04074 06601 23/// /2708 10060 20040 39820 40207 51/// 333 55300 20000 69915 91117 91210;
0109066010999992012010408004+47550+007583FM-12+031699999V0202601N005119999999N9999999N1+00641+00341102281ADDMA1999999098411REMSYN082AAXX  04084 06601 23/// /2610 10064 20034 39841 40228 5//// 333 553// 20014 69915;
0146066010999992012010409004+47550+007583FM-12+031699999V0202601N005119999999N9999999N1+00671+00251102441ADDMA1999999098571MD1210471+9999OA149901341REMSYN094AAXX  04094 06601 23/// /2610 10067 20025 39857 40244 52047 333 55302 20191 69925 91126 91213;
0146066010999992012010410004+47550+007583FM-12+031699999V0202601N006219999999N9999999N1+00551+00221102571ADDMA1999999098681MD1110481+9999OA149901541REMSYN094AAXX  04104 06601 23/// /2612 10055 20022 39868 40257 51048 333 55304 20439 69925 91130 91214;
0140066010999992012010411004+47550+007583FM-12+031699999V0202901N004119999999N9999999N1+00761+00151102501ADDMA1999999098641MD1219999+9999OA149901241REMSYN088AAXX  04114 06601 33/// /2908 10076 20015 39864 40250 52/// 333 55309 21030 91124 91210;
0261066010999992012010412004+47550+007583FM-12+031699999V0202701N00411008701CN0500001N1+00661-00031102561ADDAA106000591AY161061AY211061GA1021+006901081GA2041+008701061GF105991999999008001999999MA1999999098681MD1219999+9999MW1151OA149901601REMSYN118AAXX  04124 06601 01584 52708 10066 21003 39868 40256 52/// 69961 71561 333 55304 20684 60005 82823 84629 91131 91214;
0140066010999992012010413004+47550+007583FM-12+031699999V0202601N004119999999N9999999N1+00651+00081102611ADDMA1999999098731MD1219999+9999OA149901081REMSYN088AAXX  04134 06601 33/// /2608 10065 20008 39873 40261 52/// 333 55303 20558 91121 91210;
0103066010999992012010414004+47550+007583FM-12+031699999V0202601N003119999999N9999999N1+00651+00051102611ADDMA1999999098731REMSYN076AAXX  04144 06601 33/// /2606 10065 20005 39873 40261 5//// 333 553// 20698;
0140066010999992012010415004+47550+007583FM-12+031699999V0202501N002619999999N9999999N1+00651+00041102701ADDMA1999999098821MD1210141+9999OA149901081REMSYN088AAXX  04154 06601 33/// /2505 10065 20004 39882 40270 52014 333 55301 20234 91121 91210;
0140066010999992012010416004+47550+007583FM-12+031699999V0202301N002619999999N9999999N1+00501-00031102741ADDMA1999999098841MD1219999+9999OA149900621REMSYN088AAXX  04164 06601 33/// /2305 10050 21003 39884 40274 52/// 333 55300 20065 91112 91207;
0140066010999992012010417004+47550+007583FM-12+031699999V0202401N004119999999N9999999N1+00501-00051102731ADDMA1999999098831MD1019999+9999OA149900721REMSYN088AAXX  04174 06601 33/// /2408 10050 21005 39883 40273 50/// 333 55300 20000 91114 91208;
0314066010999992012010418004+47550+007583FM-12+031699999V0202301N003112200019N0300001N1+00481-00081102771ADDAA112000591AL19900091AY161061AY211061GA1021+018001081GA2031+057001001GF103991999999017501999999IA1099KA1120M+00761MA1999999098861MD1310041+9999MW1021OA149901081REMSYN142AAXX  04184 06601 01780 32306 10048 21008 39886 40277 53004 69962 70261 333 10076 31/// 55300 20000 60005 82856 83069 90766 93100 91121 91210;
0103066010999992012010419004+47550+007583FM-12+031699999V0202301N003119999999N9999999N1+00521-00071102711ADDMA1999999098811REMSYN076AAXX  04194 06601 33/// /2306 10052 21007 39881 40271 5//// 333 553// 20000;
0140066010999992012010420004+47550+007583FM-12+031699999V0202301N005719999999N9999999N1+00571-00151102681ADDMA1999999098791MD1819999+9999OA149901081REMSYN088AAXX  04204 06601 33/// /2311 10057 21015 39879 40268 58/// 333 55300 20000 91121 91211;
0103066010999992012010421004+47550+007583FM-12+031699999V0202301N005119999999N9999999N1+00611-00241102521ADDMA1999999098641REMSYN076AAXX  04214 06601 33/// /2310 10061 21024 39864 40252 5//// 333 553// 20000;
0140066010999992012010422004+47550+007583FM-12+031699999V0202301N006219999999N9999999N1+00631-00231102371ADDMA1999999098501MD1719999+9999OA149901341REMSYN088AAXX  04224 06601 33/// /2312 10063 21023 39850 40237 57/// 333 55300 20000 91126 91214;
0140066010999992012010423004+47550+007583FM-12+031699999V0202501N006219999999N9999999N1+00671-00241102261ADDMA1999999098401MD1719999+9999OA149901391REMSYN088AAXX  04234 06601 33/// /2512 10067 21024 39840 40226 57/// 333 55300 20000 91127 91212;
0140066010999992012010500004+47550+007583FM-12+031699999V0202501N005119999999N9999999N1+00671-00181102071ADDMA1999999098211MD1710431+9999OA149901391REMSYN088AAXX  05004 06601 33/// /2510 10067 21018 39821 40207 57043 333 55300 20000 91127 91214;
0140066010999992012010501004+47550+007583FM-12+031699999V0202401N007719999999N9999999N1+00701-00121101911ADDMA1999999098061MD1710441+9999OA149901241REMSYN088AAXX  05014 06601 33/// /2415 10070 21012 39806 40191 57044 333 55300 20000 91124 91215;
0103066010999992012010502004+47550+007583FM-12+031699999V0202301N007719999999N9999999N1+00721-00061101851ADDMA1999999098011REMSYN076AAXX  05024 06601 33/// /2315 10072 21006 39801 40185 5//// 333 553// 20000;
0146066010999992012010503004+47550+007583FM-12+031699999V0202301N008219999999N9999999N1+00661+00151101631ADDMA1999999097791MD1719999+9999OA149901751REMSYN094AAXX  05034 06601 23/// /2316 10066 20015 39779 40163 57/// 333 55300 20000 69915 91134 91218;
0140066010999992012010504004+47550+007583FM-12+031699999V0202201N006219999999N9999999N1+00761+00141101391ADDMA1999999097571MD1710491+9999OA149901601REMSYN088AAXX  05044 06601 33/// /2212 10076 20014 39757 40139 57049 333 55300 20000 91131 91216;
0140066010999992012010505004+47550+007583FM-12+031699999V0202301N008219999999N9999999N1+00771+00211101261ADDMA1999999097451MD1710561+9999OA149901851REMSYN088AAXX  05054 06601 33/// /2316 10077 20021 39745 40126 57056 333 55300 20000 91136 91217;
0346066010999992012010506004+47550+007583FM-12+031699999V0202301N01031006901CN0220001N1+00811+00201101061ADDAA112000021AL19900091AY161061AY221061GA1011+002701071GA2081+006901061GF108991999999002501999999GJ101749IA1099IA2999+00309KA1999N+00411MA1999999097261MD1710531+9999MW1611OA149901851REMSYN154AAXX  05064 06601 01372 82320 10081 20020 39726 40106 57053 69912 76162 333 20041 31003 55029 55300 20000 60005 70009 81709 88623 90768 93100 91136 91220;
0140066010999992012010507004+47550+007583FM-12+031699999V0202401N008219999999N9999999N1+00821+00231100961ADDMA1999999097171MD1719999+9999OA149901961REMSYN088AAXX  05074 06601 33/// /2416 10082 20023 39717 40096 57/// 333 55300 20000 91138 91219;
0109066010999992012010508004+47550+007583FM-12+031699999V0202301N011319999999N9999999N1+00741+00301100851ADDMA1999999097051REMSYN082AAXX  05084 06601 23/// /2322 10074 20030 39705 40085 5//// 333 553// 20000 69925;
0146066010999992012010509004+47550+007583FM-12+031699999V0202401N007719999999N9999999N1+00771+00281100781ADDMA1999999096991MD1819999+9999OA149902211REMSYN094AAXX  05094 06601 23/// /2415 10077 20028 39699 40078 58/// 333 55300 20029 69925 91143 91222;
0146066010999992012010510004+47550+007583FM-12+031699999V0202401N008219999999N9999999N1+00771+00361100651ADDMA1999999096861MD1719999+9999OA149901961REMSYN094AAXX  05104 06601 23/// /2416 10077 20036 39686 40065 57/// 333 55300 20119 69925 91138 91217;
0096066010999992012010511004+47550+007583FM-12+031699999V02099999999999999999N9999999N1+99999+99999999999ADDMD1719999+9999REMSYN070AAXX  05114 06601 43/// ///// 1//// 2//// 3//// 57/// 333 553// 20302;
0208066010999992012010512004+47550+007583FM-12+031699999V0202501N011319999999N0500001N1+00961+00341100091ADDAA106000891AY161061AY221061GA1021+006901061GF108991999999008001999999MA1999999096351MW1011REMSYN106AAXX  05124 06601 01584 82522 10096 20034 39635 40009 5//// 69971 70162 333 553// 20580 69915 82623 87461;
0140066010999992012010513004+47550+007583FM-12+031699999V0202501N011319999999N9999999N1+01031+00401099991ADDMA1999999096261MD1619999+9999OA149902321REMSYN088AAXX  05134 06601 33/// /2522 10103 20040 39626 49999 56/// 333 55302 20562 91145 91224;
0123066010999992012010514004+47550+007583FM-12+031699999V0202501N012319999999N9999999N1+00911+00581099891ADDMA1999999096151MD1719999+9999REMSYN082AAXX  05144 06601 23/// /2524 10091 20058 39615 49989 57/// 333 553// 20396 69945;
0109066010999992012010515004+47550+007583FM-12+031699999V0202601N008219999999N9999999N1+00861+00621099941ADDMA1999999096191REMSYN082AAXX  05154 06601 23/// /2616 10086 20062 39619 49994 5//// 333 553// 20162 69965;
0146066010999992012010516004+47550+007583FM-12+031699999V0203001N005119999999N9999999N1+00411+00241100361ADDMA1999999096531MD1319999+9999OA149902371REMSYN094AAXX  05164 06601 23/// /3010 10041 20024 39653 40036 53/// 333 55300 20014 60095 91146 91217;
0140066010999992012010517004+47550+007583FM-12+031699999V0202401N005719999999N9999999N1+00411+00241100451ADDMA1999999096621MD1219999+9999OA149901081REMSYN088AAXX  05174 06601 33/// /2411 10041 20024 39662 40045 52/// 333 55300 20000 91121 91215;
0314066010999992012010518004+47550+007583FM-12+031699999V0202501N00721014701CN0180001N1+00541+00281100571ADDAA112009991AL19900091AY161061AY221061GA1041+011701061GA2061+014701041GF106991999999012501999999IA1019KA1120M+01051MA1999999096751MD1119999+9999MW1021OA149902631REMSYN142AAXX  05184 06601 01668 62514 10054 20028 39675 40057 51/// 60102 70262 333 10105 30/// 55300 20000 60005 84639 86449 90766 93100 91151 91226;
0103066010999992012010519004+47550+007583FM-12+031699999V0202501N006719999999N9999999N1+00531+00201100641ADDMA1999999096821REMSYN076AAXX  05194 06601 33/// /2513 10053 20020 39682 40064 5//// 333 553// 20000;
0140066010999992012010520004+47550+007583FM-12+031699999V0202601N006219999999N9999999N1+00531+00231100671ADDMA1999999096851MD1219999+9999OA149901801REMSYN088AAXX  05204 06601 33/// /2612 10053 20023 39685 40067 52/// 333 55300 20000 91135 91217;
0103066010999992012010521004+47550+007583FM-12+031699999V0202501N005719999999N9999999N1+00461+00171100841ADDMA1999999097001REMSYN076AAXX  05214 06601 33/// /2511 10046 20017 39700 40084 5//// 333 553// 20000;
0140066010999992012010522004+47550+007583FM-12+031699999V0202501N005119999999N9999999N1+00441+00201100841ADDMA1999999097001MD1219999+9999OA149901241REMSYN088AAXX  05224 06601 33/// /2510 10044 20020 39700 40084 52/// 333 55300 20000 91124 91213;
0146066010999992012010523004+47550+007583FM-12+031699999V0202601N004619999999N9999999N1+00391+00211100891ADDMA1999999097041MD1219999+9999OA149901241REMSYN094AAXX  05234 06601 23/// /2609 10039 20021 39704 40089 52/// 333 55300 20000 69925 91124 91212;
0182066010999992012010600004+47550+007583FM-12+031699999V0203101N003619999999N9999999N1+00441+00141101051ADDAA106000091MA1999999097201MD1319999+9999OA149901801REMSYN100AAXX  06004 06601 03/// /3107 10044 20014 39720 40105 53/// 69921 333 55300 20000 60005 91135 91217;EQDQ01  00002PRCP06
0146066010999992012010601004+47550+007583FM-12+031699999V0203101N006219999999N9999999N1+00231+00081101281ADDMA1999999097391MD1219999+9999OA149901341REMSYN094AAXX  06014 06601 23/// /3112 10023 20008 39739 40128 52/// 333 55300 20000 69975 91126 91212;
0103066010999992012010602004+47550+007583FM-12+031699999V0202201N002619999999N9999999N1+00241+00111101411ADDMA1999999097521REMSYN076AAXX  06024 06601 33/// /2205 10024 20011 39752 40141 5//// 333 553// 20000;
0140066010999992012010603004+47550+007583FM-12+031699999V0202501N004619999999N9999999N1+00301+00041101451ADDMA1999999097571MD1110371+9999OA149901341REMSYN088AAXX  06034 06601 33/// /2509 10030 20004 39757 40145 51037 333 55300 20000 91126 91212;
0140066010999992012010604004+47550+007583FM-12+031699999V0202501N005719999999N9999999N1+00301-00051101531ADDMA1999999097641MD1210251+9999OA149901031REMSYN088AAXX  06044 06601 33/// /2511 10030 21005 39764 40153 52025 333 55300 20000 91120 91211;
0140066010999992012010605004+47550+007583FM-12+031699999V0202601N004119999999N9999999N1+00301-00081101641ADDMA1999999097751MD1219999+9999OA149901031REMSYN088AAXX  06054 06601 33/// /2608 10030 21008 39775 40164 52/// 333 55300 20000 91120 91211;
0334066010999992012010606004+47550+007583FM-12+031699999V0202501N00411005701CN0250001N1+00311-00081101731ADDAA112001091AL11201191AL29900091AY161061AY221061GA1081+005701071GF108991999999004501999999GJ100189IA1099IA2999+00109KA1999N+00211MA1999999097841MD1219999+9999MW1021OA149901341REMSYN148AAXX  06064 06601 01475 82508 10031 21008 39784 40173 52/// 69992 70262 333 20021 31001 55003 55300 20000 60005 70112 88719 90768 93100 91126 91212;
0140066010999992012010607004+47550+007583FM-12+031699999V0202601N003619999999N9999999N1+00311-00071101871ADDMA1999999097971MD1219999+9999OA149900821REMSYN088AAXX  06074 06601 33/// /2607 10031 21007 39797 40187 52/// 333 55300 20000 91116 91208;
0109066010999992012010608004+47550+007583FM-12+031699999V0202601N004119999999N9999999N1+00221+00071101981ADDMA1999999098061REMSYN082AAXX  06084 06601 23/// /2608 10022 20007 39806 40198 5//// 333 553// 20050 69915;
0140066010999992012010609004+47550+007583FM-12+031699999V0202601N003619999999N9999999N1+00331+00001102051ADDMA1999999098151MD1219999+9999OA149900981REMSYN088AAXX  06094 06601 33/// /2607 10033 20000 39815 40205 52/// 333 55301 20263 91119 91210;
0140066010999992012010610004+47550+007583FM-12+031699999V0202601N004119999999N9999999N1+00371+00021102131ADDMA1999999098231MD1219999+9999OA149901081REMSYN088AAXX  06104 06601 33/// /2608 10037 20002 39823 40213 52/// 333 55300 20331 91121 91211;
0087066010999992012010611004+47550+007583FM-12+031699999V0202601N004619999999N9999999N1+00411-00031102191ADDMA1999999098291REMSYN060AAXX  06114 06601 43/// /2609 10041 21003 39829 40219 5////;
0258066010999992012010612004+47550+007583FM-12+031699999V0202601N00461004801CN0250001N1+00421+00021102221ADDAA106000091AY121061AY221061GA1071+004801061GF107991999999004501999999MA1999999098321MD1219999+9999MW1151OA149901081REMSYN112AAXX  06124 06601 01475 72609 10042 20002 39832 40222 52/// 69911 71522 333 55300 20198 60005 87616 91121 91211;EQDQ01  00002PRCP06
0140066010999992012010613004+47550+007583FM-12+031699999V0202501N005119999999N9999999N1+00431+00031102271ADDMA1999999098371MD1219999+9999OA149901031REMSYN088AAXX  06134 06601 33/// /2510 10043 20003 39837 40227 52/// 333 55300 20158 91120 91210;
0103066010999992012010614004+47550+007583FM-12+031699999V0202501N004619999999N9999999N1+00421+00031102381ADDMA1999999098481REMSYN076AAXX  06144 06601 33/// /2509 10042 20003 39848 40238 5//// 333 553// 20040;
0140066010999992012010615004+47550+007583FM-12+031699999V0202601N005719999999N9999999N1+00431+00051102501ADDMA1999999098591MD1319999+9999OA149901181REMSYN088AAXX  06154 06601 33/// /2611 10043 20005 39859 40250 53/// 333 55300 20047 91123 91211;
0146066010999992012010616004+47550+007583FM-12+031699999V0202501N004619999999N9999999N1+00381+00101102641ADDMA1999999098721MD1210351+9999OA149901181REMSYN094AAXX  06164 06601 23/// /2509 10038 20010 39872 40264 52035 333 55300 20014 69915 91123 91210;
0140066010999992012010617004+47550+007583FM-12+031699999V0202601N004619999999N9999999N1+00391+00071102711ADDMA1999999098791MD1119999+9999OA149901291REMSYN088AAXX  06174 06601 33/// /2609 10039 20007 39879 40271 51/// 333 55300 20000 91125 91210;
0236066010999992012010618004+47550+007583FM-12+031699999V0202601N00411008701CN0250001N1+00401+00071102791ADDAA112000091GA1071+008701061GF107991999999008001999999IA1099KA1120M+00441MA1999999098871REMSYN118AAXX  06184 06601 02575 72608 10040 20007 39887 40279 5//// 69922 333 10044 31/// 553// 20000 60005 87629 90766 93100;EQDQ01  00002PRCP12
0087066010999992012010619004+47550+007583FM-12+031699999V0202501N004119999999N9999999N1+00391+00081102821ADDMA1999999098901REMSYN060AAXX  06194 06601 43/// /2508 10039 20008 39890 40282 5////;
0103066010999992012010620004+47550+007583FM-12+031699999V0202501N003119999999N9999999N1+00391+00041102891ADDMA1999999098961REMSYN076AAXX  06204 06601 33/// /2506 10039 20004 39896 40289 5//// 333 553// 20000;
0103066010999992012010621004+47550+007583FM-12+031699999V0202401N003119999999N9999999N1+00381+00031102891ADDMA1999999098961REMSYN076AAXX  06214 06601 33/// /2406 10038 20003 39896 40289 5//// 333 553// 20000;
0140066010999992012010622004+47550+007583FM-12+031699999V0202301N001519999999N9999999N1+00381+00011102911ADDMA1999999098981MD1219999+9999OA149900461REMSYN088AAXX  06224 06601 33/// /2303 10038 20001 39898 40291 52/// 333 55300 20000 91109 91204;
0103066010999992012010623004+47550+007583FM-12+031699999V0202501N002119999999N9999999N1+00361-00021102921ADDMA1999999098991REMSYN076AAXX  06234 06601 33/// /2504 10036 21002 39899 40292 5//// 333 553// 20000;
0117066010999992012010700004+47550+007583FM-12+031699999V0202301N001519999999N9999999N1+00251-00051102941ADDMA1999999098991MD1019999+9999REMSYN076AAXX  07004 06601 33/// /2303 10025 21005 39899 40294 50/// 333 553// 20000;
0103066010999992012010701004+47550+007583FM-12+031699999V0202401N002119999999N9999999N1+00181-00091102921ADDMA1999999098961REMSYN076AAXX  07014 06601 33/// /2404 10018 21009 39896 40292 5//// 333 553// 20000;
0103066010999992012010702004+47550+007583FM-12+031699999V0202301N002619999999N9999999N1+00191-00121102921ADDMA1999999098961REMSYN076AAXX  07024 06601 33/// /2305 10019 21012 39896 40292 5//// 333 553// 20000;
0103066010999992012010703004+47550+007583FM-12+031699999V0202201N002619999999N9999999N1+00131-00211102871ADDMA1999999098911REMSYN076AAXX  07034 06601 33/// /2205 10013 21021 39891 40287 5//// 333 553// 20000;
0103066010999992012010704004+47550+007583FM-12+031699999V0202201N003119999999N9999999N1+00091-00241102851ADDMA1999999098881REMSYN076AAXX  07044 06601 33/// /2206 10009 21024 39888 40285 5//// 333 553// 20000;
0087066010999992012010705004+47550+007583FM-12+031699999V0201801N003119999999N9999999N1+00231-00211102761ADDMA1999999098821REMSYN060AAXX  07054 06601 43/// /1806 10023 21021 39882 40276 5////;
0273066010999992012010706004+47550+007583FM-12+031699999V0202001N00261009901CN0300001N1+00291-00261102771ADDAL19900091GA1081+009901071GF108991999999008001999999GJ100069IA1099IA2999-00109KA1999N+00071MA1999999098831MD1719999+9999OA149900461REMSYN130AAXX  07064 06601 32580 82005 10029 21026 39883 40277 57/// 333 20007 31101 55001 55300 20000 70002 88733 90768 93100 91109 91206;
0103066010999992012010707004+47550+007583FM-12+031699999V0202101N003619999999N9999999N1+00351-00241102681ADDMA1999999098761REMSYN076AAXX  07074 06601 33/// /2107 10035 21024 39876 40268 5//// 333 553// 20000;
0103066010999992012010708004+47550+007583FM-12+031699999V0201801N001519999999N9999999N1+00371-00211102651ADDMA1999999098731REMSYN076AAXX  07084 06601 33/// /1803 10037 21021 39873 40265 5//// 333 553// 20011;
0103066010999992012010709004+47550+007583FM-12+031699999V0209999C000019999999N9999999N1+00511-00221102591ADDMA1999999098691REMSYN076AAXX  07094 06601 33/// /0000 10051 21022 39869 40259 5//// 333 553// 20133;
0103066010999992012010710004+47550+007583FM-12+031699999V0202301N001019999999N9999999N1+00591-00051102541ADDMA1999999098661REMSYN076AAXX  07104 06601 33/// /2302 10059 21005 39866 40254 5//// 333 553// 20173;
0140066010999992012010711004+47550+007583FM-12+031699999V0200701N001019999999N9999999N1+00501+00041102501ADDMA1999999098601MD1719999+9999OA149900411REMSYN088AAXX  07114 06601 33/// /0702 10050 20004 39860 40250 57/// 333 55300 20090 91108 91205;
0135066010999992012010712004+47550+007583FM-12+031699999V0200901N000519999999N0500001N1+00481+00111102431ADDGF107991999999004501999999MA1999999098531REMSYN082AAXX  07124 06601 32484 70901 10048 20011 39853 40243 5//// 333 553// 20083 87616;
0103066010999992012010713004+47550+007583FM-12+031699999V0202401N001019999999N9999999N1+00721+00261102321ADDMA1999999098461REMSYN076AAXX  07134 06601 33/// /2402 10072 20026 39846 40232 5//// 333 553// 20133;
0087066010999992012010714004+47550+007583FM-12+031699999V0202501N003619999999N9999999N1+00761+00291102291ADDMA1999999098441REMSYN060AAXX  07144 06601 43/// /2507 10076 20029 39844 40229 5////;
0103066010999992012010715004+47550+007583FM-12+031699999V0202501N002119999999N9999999N1+00711+00331102321ADDMA1999999098461REMSYN076AAXX  07154 06601 33/// /2504 10071 20033 39846 40232 5//// 333 553// 20137;
0103066010999992012010716004+47550+007583FM-12+031699999V0202501N004619999999N9999999N1+00691+00411102341ADDMA1999999098481REMSYN076AAXX  07164 06601 33/// /2509 10069 20041 39848 40234 5//// 333 553// 20022;
0146066010999992012010717004+47550+007583FM-12+031699999V0202401N004119999999N9999999N1+00691+00411102321ADDMA1999999098461MD1210021+9999OA149900821REMSYN094AAXX  07174 06601 23/// /2408 10069 20041 39846 40232 52002 333 55300 20000 69925 91116 91209;
0292066010999992012010718004+47550+007583FM-12+031699999V0202601N00361002701CN0300001N1+00681+00471102351ADDAA112000591AL19900091AY161061AY221061GA1081+002701071GF108991999999002501999999IA1099KA1120M+00781MA1999999098491MD1210031+9999MW1581OA149901081REMSYN136AAXX  07184 06601 01380 82607 10068 20047 39849 40235 52003 69942 75862 333 10078 31/// 55300 20000 69925 88709 90766 93100 91121 91210;
0103066010999992012010719004+47550+007583FM-12+031699999V0202501N004119999999N9999999N1+00711+00451102371ADDMA1999999098511REMSYN076AAXX  07194 06601 33/// /2508 10071 20045 39851 40237 5//// 333 553// 20000;
0146066010999992012010720004+47550+007583FM-12+031699999V0202801N002619999999N9999999N1+00721+00511102361ADDMA1999999098501MD1010041+9999OA149900821REMSYN094AAXX  07204 06601 23/// /2805 10072 20051 39850 40236 50004 333 55300 20000 69935 91116 91208;
0109066010999992012010721004+47550+007583FM-12+031699999V0202901N003619999999N9999999N1+00661+00471102411ADDMA1999999098541REMSYN082AAXX  07214 06601 23/// /2907 10066 20047 39854 40241 5//// 333 553// 20000 60015;
0140066010999992012010722004+47550+007583FM-12+031699999V0202601N002119999999N9999999N1+00601+00451102451ADDMA1999999098571MD1219999+9999OA149900771REMSYN088AAXX  07224 06601 33/// /2604 10060 20045 39857 40245 52/// 333 55300 20000 91115 91207;
0140066010999992012010723004+47550+007583FM-12+031699999V0202501N005119999999N9999999N1+00551+00391102441ADDMA1999999098551MD1219999+9999OA149900821REMSYN088AAXX  07234 06601 33/// /2510 10055 20039 39855 40244 52/// 333 55300 20000 91116 91210;
0163066010999992012010800004+47550+007583FM-12+031699999V0202401N003119999999N9999999N1+00521+00331102471ADDAA106001091MA1999999098581MD1219999+9999OA149900931REMSYN100AAXX  08004 06601 03/// /2406 10052 20033 39858 40247 52/// 60011 333 55300 20000 60005 91118 91210;
0103066010999992012010801004+47550+007583FM-12+031699999V0202501N002619999999N9999999N1+00511+00311102491ADDMA1999999098601REMSYN076AAXX  08014 06601 33/// /2505 10051 20031 39860 40249 5//// 333 553// 20000;
0103066010999992012010802004+47550+007583FM-12+031699999V0202401N003619999999N9999999N1+00491+00241102511ADDMA1999999098611REMSYN076AAXX  08024 06601 33/// /2407 10049 20024 39861 40251 5//// 333 553// 20000;
0103066010999992012010803004+47550+007583FM-12+031699999V0202501N003619999999N9999999N1+00491+00251102521ADDMA1999999098621REMSYN076AAXX  08034 06601 33/// /2507 10049 20025 39862 40252 5//// 333 553// 20000;
0087066010999992012010804004+47550+007583FM-12+031699999V0202501N004119999999N9999999N1+00511+00201102501ADDMA1999999098611REMSYN060AAXX  08044 06601 43/// /2508 10051 20020 39861 40250 5////;
0103066010999992012010805004+47550+007583FM-12+031699999V0202501N003619999999N9999999N1+00491+00181102461ADDMA1999999098561REMSYN076AAXX  08054 06601 33/// /2507 10049 20018 39856 40246 5//// 333 553// 20000;
0306066010999992012010806004+47550+007583FM-12+031699999V0202601N00311005701CN0350001N1+00521+00141102401ADDAA112001091AL14800191AL29900091GA1071+005701061GF107991999999004501999999GJ100009IA1099IA2999+00309KA1999N+00471MA1999999098511MD1710111+9999OA149900881REMSYN142AAXX  08064 06601 02481 72606 10052 20014 39851 40240 57011 60012 333 20047 31003 55000 55300 20000 60005 70018 87619 90768 93100 91117 91210;
0140066010999992012010807004+47550+007583FM-12+031699999V0202701N002619999999N9999999N1+00561+00131102391ADDMA1999999098511MD1719999+9999OA149900511REMSYN088AAXX  08074 06601 33/// /2705 10056 20013 39851 40239 57/// 333 55300 20000 91110 91205;
0140066010999992012010808004+47550+007583FM-12+031699999V0202701N003619999999N9999999N1+00611+00201102441ADDMA1999999098561MD1319999+9999OA149900721REMSYN088AAXX  08084 06601 33/// /2707 10061 20020 39856 40244 53/// 333 55300 20007 91114 91207;
0140066010999992012010809004+47550+007583FM-12+031699999V0202601N005119999999N9999999N1+00621+00291102451ADDMA1999999098571MD1210061+9999OA149901131REMSYN088AAXX  08094 06601 33/// /2610 10062 20029 39857 40245 52006 333 55300 20097 91122 91210;
0140066010999992012010810004+47550+007583FM-12+031699999V0202701N004619999999N9999999N1+00621+00291102501ADDMA1999999098621MD1219999+9999OA149901181REMSYN088AAXX  08104 06601 33/// /2709 10062 20029 39862 40250 52/// 333 55300 20245 91123 91210;
0140066010999992012010811004+47550+007583FM-12+031699999V0202801N003619999999N9999999N1+00611+00291102491ADDMA1999999098611MD1210051+9999OA149901081REMSYN088AAXX  08114 06601 33/// /2807 10061 20029 39861 40249 52005 333 55300 20101 91121 91211;
0216066010999992012010812004+47550+007583FM-12+031699999V0202901N00311002701CN0180001N1+00591+00311102471ADDAY121061AY221061GA1071+002701061GF107991999999002501999999MA1999999098591MD1019999+9999MW1161OA149901181REMSYN100AAXX  08124 06601 31368 72906 10059 20031 39859 40247 50/// 71622 333 55300 20112 87609 91123 91211;
0140066010999992012010813004+47550+007583FM-12+031699999V0202801N003119999999N9999999N1+00621+00281102471ADDMA1999999098591MD1719999+9999OA149900981REMSYN088AAXX  08134 06601 33/// /2806 10062 20028 39859 40247 57/// 333 55300 20382 91119 91210;
0103066010999992012010814004+47550+007583FM-12+031699999V0202801N003619999999N9999999N1+00621+00251102521ADDMA1999999098641REMSYN076AAXX  08144 06601 33/// /2807 10062 20025 39864 40252 5//// 333 553// 20288;
0140066010999992012010815004+47550+007583FM-12+031699999V0202701N002119999999N9999999N1+00581+00231102581ADDMA1999999098691MD1210101+9999OA149901131REMSYN088AAXX  08154 06601 33/// /2704 10058 20023 39869 40258 52010 333 55300 20108 91122 91210;
0140066010999992012010816004+47550+007583FM-12+031699999V0202501N003619999999N9999999N1+00541+00221102651ADDMA1999999098751MD1310161+9999OA149900771REMSYN088AAXX  08164 06601 33/// /2507 10054 20022 39875 40265 53016 333 55300 20054 91115 91209;
0140066010999992012010817004+47550+007583FM-12+031699999V0202501N002619999999N9999999N1+00521+00221102711ADDMA1999999098811MD1310171+9999OA149900571REMSYN088AAXX  08174 06601 33/// /2505 10052 20022 39881 40271 53017 333 55300 20000 91111 91206;
0241066010999992012010818004+47550+007583FM-12+031699999V0202401N00311003901CN0250001N1+00491+00201102731ADDAL19900091GA1071+003901061GF107991999999004501999999IA1099KA1120M+00631MA1999999098821MD1210131+9999OA149901131REMSYN118AAXX  08184 06601 32475 72406 10049 20020 39882 40273 52013 333 10063 31/// 55300 20000 87613 90766 93100 91122 91210;
0140066010999992012010819004+47550+007583FM-12+031699999V0202401N003119999999N9999999N1+00511+00231102761ADDMA1999999098861MD1210111+9999OA149900571REMSYN088AAXX  08194 06601 33/// /2406 10051 20023 39886 40276 52011 333 55300 20000 91111 91207;
0140066010999992012010820004+47550+007583FM-12+031699999V0202501N004119999999N9999999N1+00491+00221102831ADDMA1999999098921MD1219999+9999OA149900771REMSYN088AAXX  08204 06601 33/// /2508 10049 20022 39892 40283 52/// 333 55300 20000 91115 91208;
0140066010999992012010821004+47550+007583FM-12+031699999V0202601N003119999999N9999999N1+00471+00171102851ADDMA1999999098941MD1119999+9999OA149900771REMSYN088AAXX  08214 06601 33/// /2606 10047 20017 39894 40285 51/// 333 55300 20000 91115 91208;
0140066010999992012010822004+47550+007583FM-12+031699999V0202401N002619999999N9999999N1+00451+00231102891ADDMA1999999098971MD1119999+9999OA149900771REMSYN088AAXX  08224 06601 33/// /2405 10045 20023 39897 40289 51/// 333 55300 20000 91115 91206;
0140066010999992012010823004+47550+007583FM-12+031699999V0202401N002619999999N9999999N1+00441+00221102911ADDMA1999999098991MD1219999+9999OA149900671REMSYN088AAXX  08234 06601 33/// /2405 10044 20022 39899 40291 52/// 333 55300 20000 91113 91206;
0140066010999992012010900004+47550+007583FM-12+031699999V0202601N002119999999N9999999N1+00471+00231102961ADDMA1999999099041MD1210101+9999OA149900771REMSYN088AAXX  09004 06601 33/// /2604 10047 20023 39904 40296 52010 333 55300 20000 91115 91208;
0140066010999992012010901004+47550+007583FM-12+031699999V0202501N001519999999N9999999N1+00471+00221102981ADDMA1999999099061MD1219999+9999OA149900511REMSYN088AAXX  09014 06601 33/// /2503 10047 20022 39906 40298 52/// 333 55300 20000 91110 91204;
0103066010999992012010902004+47550+007583FM-12+031699999V0202401N001519999999N9999999N1+00471+00221103041ADDMA1999999099121REMSYN076AAXX  09024 06601 33/// /2403 10047 20022 39912 40304 5//// 333 553// 20000;
0140066010999992012010903004+47550+007583FM-12+031699999V0202101N001519999999N9999999N1+00431+00221103091ADDMA1999999099161MD1110121+9999OA149900511REMSYN088AAXX  09034 06601 33/// /2103 10043 20022 39916 40309 51012 333 55300 20000 91110 91204;
0103066010999992012010904004+47550+007583FM-12+031699999V0202001N001519999999N9999999N1+00381+00201103101ADDMA1999999099161REMSYN076AAXX  09044 06601 33/// /2003 10038 20020 39916 40310 5//// 333 553// 20000;
0140066010999992012010905004+47550+007583FM-12+031699999V0201901N000519999999N9999999N1+00351+00161103101ADDMA1999999099161MD1210041+9999OA149900311REMSYN088AAXX  09054 06601 33/// /1901 10035 20016 39916 40310 52004 333 55300 20000 91106 91204;
0295066010999992012010906004+47550+007583FM-12+031699999V0202101N00051036001CN0500001N1+00351+00151103131ADDAL19900091GA1011+008701061GA2071+036001031GF108991999999008001999999GJ100009IA1099IA2999+00009KA1999N+00321MA1999999099191MD1319999+9999OA149900511REMSYN136AAXX  09064 06601 32584 82101 10035 20015 39919 40313 53/// 333 20032 31000 55000 55300 20000 70000 81629 87362 90768 93100 91110 91204;
0103066010999992012010907004+47550+007583FM-12+031699999V0202101N001019999999N9999999N1+00361+00161103171ADDMA1999999099231REMSYN076AAXX  09074 06601 33/// /2102 10036 20016 39923 40317 5//// 333 553// 20000;
0103066010999992012010908004+47550+007583FM-12+031699999V0202301N000519999999N9999999N1+00401+00171103201ADDMA1999999099261REMSYN076AAXX  09084 06601 33/// /2301 10040 20017 39926 40320 5//// 333 553// 20032;
0140066010999992012010909004+47550+007583FM-12+031699999V0202101N001519999999N9999999N1+00381+00171103241ADDMA1999999099301MD1310111+9999OA149900261REMSYN088AAXX  09094 06601 33/// /2103 10038 20017 39930 40324 53011 333 55300 20176 91105 91203;
0140066010999992012010910004+47550+007583FM-12+031699999V0202201N001519999999N9999999N1+00561+00221103271ADDMA1999999099351MD1319999+9999OA149900311REMSYN088AAXX  09104 06601 33/// /2203 10056 20022 39935 40327 53/// 333 55301 20590 91106 91203;
0140066010999992012010911004+47550+007583FM-12+031699999V0202401N003619999999N9999999N1+00611+00211103231ADDMA1999999099321MD1010061+9999OA149900511REMSYN088AAXX  09114 06601 33/// /2407 10061 20021 39932 40323 50006 333 55300 20544 91110 91207;
0210066010999992012010912004+47550+007583FM-12+031699999V0202601N00211027001CN0300001N1+00661+00161103211ADDGA1031+006901081GA2061+027001031GF108991999999008001999999MA1999999099311MD1019999+9999OA149900671REMSYN100AAXX  09124 06601 32580 82604 10066 20016 39931 40321 50/// 333 55300 20472 83823 86359 91113 91207;
0103066010999992012010913004+47550+007583FM-12+031699999V0202501N003619999999N9999999N1+00671+00161103211ADDMA1999999099311REMSYN076AAXX  09134 06601 33/// /2507 10067 20016 39931 40321 5//// 333 553// 20443;
0103066010999992012010914004+47550+007583FM-12+031699999V0202701N002619999999N9999999N1+00621+00221103231ADDMA1999999099321REMSYN076AAXX  09144 06601 33/// /2705 10062 20022 39932 40323 5//// 333 553// 20274;
0140066010999992012010915004+47550+007583FM-12+031699999V0202401N003119999999N9999999N1+00541+00251103261ADDMA1999999099341MD1310031+9999OA149900721REMSYN088AAXX  09154 06601 33/// /2406 10054 20025 39934 40326 53003 333 55300 20079 91114 91207;
0140066010999992012010916004+47550+007583FM-12+031699999V0202301N001519999999N9999999N1+00541+00251103301ADDMA1999999099381MD1319999+9999OA149900511REMSYN088AAXX  09164 06601 33/// /2303 10054 20025 39938 40330 53/// 333 55300 20018 91110 91206;
0146066010999992012010917004+47550+007583FM-12+031699999V0201901N001019999999N9999999N1+00511+00291103361ADDMA1999999099431MD1310111+9999OA149900311REMSYN094AAXX  09174 06601 23/// /1902 10051 20029 39943 40336 53011 333 55300 20000 69915 91106 91203;
0314066010999992012010918004+47550+007583FM-12+031699999V0202101N00101003901CN0300001N1+00511+00301103421ADDAA112000021AL19900091AY161061AY221061GA1061+003901071GA2071+006901061GF108991999999004501999999IA1099KA1120M+00671MA1999999099491MD1210151+9999MW1211OA149900721REMSYN142AAXX  09184 06601 01480 82102 10051 20030 39949 40342 52015 69912 72162 333 10067 31/// 55300 20000 60005 86713 87623 90766 93100 91114 91207;
0103066010999992012010919004+47550+007583FM-12+031699999V0202501N002119999999N9999999N1+00571+00281103431ADDMA1999999099511REMSYN076AAXX  09194 06601 33/// /2504 10057 20028 39951 40343 5//// 333 553// 20000;
0103066010999992012010920004+47550+007583FM-12+031699999V0202201N001519999999N9999999N1+00551+00311103411ADDMA1999999099491REMSYN076AAXX  09204 06601 33/// /2203 10055 20031 39949 40341 5//// 333 553// 20000;
0103066010999992012010921004+47550+007583FM-12+031699999V0202301N000519999999N9999999N1+00541+00321103481ADDMA1999999099551REMSYN076AAXX  09214 06601 33/// /2301 10054 20032 39955 40348 5//// 333 553// 20000;
0103066010999992012010922004+47550+007583FM-12+031699999V0202001N002119999999N9999999N1+00601+00321103461ADDMA1999999099541REMSYN076AAXX  09224 06601 33/// /2004 10060 20032 39954 40346 5//// 333 553// 20000;
0140066010999992012010923004+47550+007583FM-12+031699999V0201801N002119999999N9999999N1+00551+00321103471ADDMA1999999099541MD1219999+9999OA149900311REMSYN088AAXX  09234 06601 33/// /1804 10055 20032 39954 40347 52/// 333 55300 20000 91106 91204;
0140066010999992012011000004+47550+007583FM-12+031699999V0209999C000019999999N9999999N1+00571+00291103471ADDMA1999999099551MD1010001+9999OA149900671REMSYN088AAXX  10004 06601 33/// /0000 10057 20029 39955 40347 50000 333 55300 20000 91113 91207;
0103066010999992012011001004+47550+007583FM-12+031699999V0201501N001019999999N9999999N1+00561+00321103451ADDMA1999999099531REMSYN076AAXX  10014 06601 33/// /1502 10056 20032 39953 40345 5//// 333 553// 20000;
0103066010999992012011002004+47550+007583FM-12+031699999V0201801N000519999999N9999999N1+00541+00361103531ADDMA1999999099601REMSYN076AAXX  10024 06601 33/// /1801 10054 20036 39960 40353 5//// 333 553// 20000;
0140066010999992012011003004+47550+007583FM-12+031699999V0201101N000519999999N9999999N1+00531+00401103491ADDMA1999999099561MD1010011+9999OA149900211REMSYN088AAXX  10034 06601 33/// /1101 10053 20040 39956 40349 50001 333 55300 20000 91104 91202;
0103066010999992012011004004+47550+007583FM-12+031699999V0201101N001019999999N9999999N1+00531+00391103491ADDMA1999999099561REMSYN076AAXX  10044 06601 33/// /1102 10053 20039 39956 40349 5//// 333 553// 20000;
0140066010999992012011005004+47550+007583FM-12+031699999V0202001N000519999999N9999999N1+00501+00371103491ADDMA1999999099561MD1710041+9999OA149900151REMSYN088AAXX  10054 06601 33/// /2001 10050 20037 39956 40349 57004 333 55300 20000 91103 91202;
0324066010999992012011006004+47550+007583FM-12+031699999V0201501N00101002701CN0050001N1+00561+00401103491ADDAA112000021AL19900091AY151061AY221061GA1061+002701071GF107991999999002501999999GJ100069IA1099IA2999+00409KA1999N+00501MA1999999099571MD1210011+9999MW1501OA149900311REMSYN148AAXX  10064 06601 01350 71502 10056 20040 39957 40349 52001 69912 75052 333 20050 31004 55001 55300 20000 69915 70001 86709 90768 93100 91106 91203;
0140066010999992012011007004+47550+007583FM-12+031699999V0201001N001019999999N9999999N1+00561+00421103531ADDMA1999999099601MD1219999+9999OA149900211REMSYN088AAXX  10074 06601 33/// /1002 10056 20042 39960 40353 52/// 333 55300 20000 91104 91203;
0103066010999992012011008004+47550+007583FM-12+031699999V0201301N001019999999N9999999N1+00561+00471103561ADDMA1999999099631REMSYN076AAXX  10084 06601 33/// /1302 10056 20047 39963 40356 5//// 333 553// 20011;
0140066010999992012011009004+47550+007583FM-12+031699999V0200701N001019999999N9999999N1+00591+00471103601ADDMA1999999099681MD1219999+9999OA149900261REMSYN088AAXX  10094 06601 33/// /0702 10059 20047 39968 40360 52/// 333 55300 20086 91105 91203;
0140066010999992012011010004+47550+007583FM-12+031699999V0201001N001019999999N9999999N1+00641+00501103621ADDMA1999999099701MD1219999+9999OA149900261REMSYN088AAXX  10104 06601 33/// /1002 10064 20050 39970 40362 52/// 333 55300 20230 91105 91203;
0096066010999992012011011004+47550+007583FM-12+031699999V02099999999999999999N9999999N1+99999+99999999999ADDMD1019999+9999REMSYN070AAXX  10114 06601 43/// ///// 1//// 2//// 3//// 50/// 333 553// 20662;
0216066010999992012011012004+47550+007583FM-12+031699999V0202101N00051008701CN0080001N1+00741+00481103551ADDAY151061AY221061GA1071+008701061GF107991999999008001999999MA1999999099651MD1719999+9999MW1101OA149900261REMSYN100AAXX  10124 06601 31558 72101 10074 20048 39965 40355 57/// 71052 333 55300 20360 87629 91105 91203;
0103066010999992012011013004+47550+007583FM-12+031699999V0201701N000519999999N9999999N1+00781+00501103531ADDMA1999999099631REMSYN076AAXX  10134 06601 33/// /1701 10078 20050 39963 40353 5//// 333 553// 20482;
0103066010999992012011014004+47550+007583FM-12+031699999V0200801N001019999999N9999999N1+00821+00501103511ADDMA1999999099621REMSYN076AAXX  10144 06601 33/// /0802 10082 20050 39962 40351 5//// 333 553// 20504;
0103066010999992012011015004+47550+007583FM-12+031699999V0200801N000519999999N9999999N1+00811+00461103521ADDMA1999999099631REMSYN076AAXX  10154 06601 33/// /0801 10081 20046 39963 40352 5//// 333 553// 20310;
0140066010999992012011016004+47550+007583FM-12+031699999V0201101N001019999999N9999999N1+00691+00501103551ADDMA1999999099641MD1219999+9999OA149900211REMSYN088AAXX  10164 06601 33/// /1102 10069 20050 39964 40355 52/// 333 553// 20104 91104 91202;
0103066010999992012011017004+47550+007583FM-12+031699999V0201301N001019999999N9999999N1+00511+00421103561ADDMA1999999099631REMSYN076AAXX  10174 06601 33/// /1302 10051 20042 39963 40356 5//// 333 553// 20000;
0269066010999992012011018004+47550+007583FM-12+031699999V0201101N001012200019N0070001N1+00431+00361103581ADDAL19900091AY151061AY211061GA1021+000901071GF103991999999000751999999IA1099KA1120M+00831MA1999999099631MD1019999+9999MW1101OA149900211REMSYN124AAXX  10184 06601 31157 31102 10043 20036 39963 40358 50/// 71051 333 10083 31/// 55300 20000 82703 90766 93100 91104 91202;
0103066010999992012011019004+47550+007583FM-12+031699999V0209999C000019999999N9999999N1+00351+00301103571ADDMA1999999099611REMSYN076AAXX  10194 06601 33/// /0000 10035 20030 39961 40357 5//// 333 553// 20000;
0117066010999992012011020004+47550+007583FM-12+031699999V0201101N001519999999N9999999N1+00401+00331103581ADDMA1999999099631MD1219999+9999REMSYN076AAXX  10204 06601 33/// /1103 10040 20033 39963 40358 52/// 333 553// 20000;
0103066010999992012011021004+47550+007583FM-12+031699999V0201001N001019999999N9999999N1+00221+00191103611ADDMA1999999099631REMSYN076AAXX  10214 06601 33/// /1002 10022 20019 39963 40361 5//// 333 553// 20000;
0103066010999992012011022004+47550+007583FM-12+031699999V0201201N001019999999N9999999N1+00291+00221103611ADDMA1999999099641REMSYN076AAXX  10224 06601 33/// /1202 10029 20022 39964 40361 5//// 333 553// 20000;
0103066010999992012011023004+47550+007583FM-12+031699999V0201001N000519999999N9999999N1+00101+00061103641ADDMA1999999099641REMSYN076AAXX  10234 06601 33/// /1001 10010 20006 39964 40364 5//// 333 553// 20000;
0140066010999992012011100004+47550+007583FM-12+031699999V0201601N001019999999N9999999N1+00061+00031103631ADDMA1999999099631MD1019999+9999OA149900261REMSYN088AAXX  11004 06601 33/// /1602 10006 20003 39963 40363 50/// 333 55300 20000 91105 91203;
0103066010999992012011101004+47550+007583FM-12+031699999V0201201N001519999999N9999999N1+00141+00091103601ADDMA1999999099611REMSYN076AAXX  11014 06601 33/// /1203 10014 20009 39961 40360 5//// 333 553// 20000;
0103066010999992012011102004+47550+007583FM-12+031699999V0201101N002119999999N9999999N1+00081+00081103621ADDMA1999999099621REMSYN076AAXX  11024 06601 33/// /1104 10008 20008 39962 40362 5//// 333 553// 20000;
0103066010999992012011103004+47550+007583FM-12+031699999V0201001N002619999999N9999999N1+00141+00121103601ADDMA1999999099611REMSYN076AAXX  11034 06601 33/// /1005 10014 20012 39961 40360 5//// 333 553// 20000;
0103066010999992012011104004+47550+007583FM-12+031699999V0201001N001019999999N9999999N1+00181+00151103601ADDMA1999999099621REMSYN076AAXX  11044 06601 33/// /1002 10018 20015 39962 40360 5//// 333 553// 20000;
0103066010999992012011105004+47550+007583FM-12+031699999V0201401N001019999999N9999999N1+00151+00131103601ADDMA1999999099611REMSYN076AAXX  11054 06601 33/// /1402 10015 20013 39961 40360 5//// 333 553// 20000;
0207066010999992012011106004+47550+007583FM-12+031699999V0201401N001019999999N9999999N1+00091+00051103621ADDAL10600091GJ100189IA2999-00309KA1999N+00001MA1999999099621MD1219999+9999OA149900411REMSYN112AAXX  11064 06601 33/// /1402 10009 20005 39962 40362 52/// 333 20000 3/103 55003 55300 20000 70001 91108 91205;
0103066010999992012011107004+47550+007583FM-12+031699999V0201601N001019999999N9999999N1+00031-00011103651ADDMA1999999099641REMSYN076AAXX  11074 06601 33/// /1602 10003 21001 39964 40365 5//// 333 553// 20000;
0103066010999992012011108004+47550+007583FM-12+031699999V0201401N001519999999N9999999N1+00201+00131103701ADDMA1999999099721REMSYN076AAXX  11084 06601 33/// /1403 10020 20013 39972 40370 5//// 333 553// 20040;
0140066010999992012011109004+47550+007583FM-12+031699999V0201701N001519999999N9999999N1+00231+00151103771ADDMA1999999099791MD1219999+9999OA149900311REMSYN088AAXX  11094 06601 33/// /1703 10023 20015 39979 40377 52/// 333 55300 20169 91106 91204;
0140066010999992012011110004+47550+007583FM-12+031699999V0201701N001519999999N9999999N1+00321+00221103781ADDMA1999999099811MD1119999+9999OA149900361REMSYN088AAXX  11104 06601 33/// /1703 10032 20022 39981 40378 51/// 333 55300 20400 91107 91205;
0103066010999992012011111004+47550+007583FM-12+031699999V0201401N000519999999N9999999N1+00361+00181103761ADDMA1999999099801REMSYN076AAXX  11114 06601 33/// /1401 10036 20018 39980 40376 5//// 333 553// 20479;
0216066010999992012011112004+47550+007583FM-12+031699999V0201701N00101002701CN0060001N1+00411+00211103701ADDAY121061AY221061GA1071+002701071GF107991999999002501999999MA1999999099751MD1810041+9999MW1101OA149900361REMSYN100AAXX  11124 06601 31356 71702 10041 20021 39975 40370 58004 71022 333 55300 20544 87709 91107 91205;
0140066010999992012011113004+47550+007583FM-12+031699999V0201201N001019999999N9999999N1+00451+00221103651ADDMA1999999099701MD1819999+9999OA149900211REMSYN088AAXX  11134 06601 33/// /1202 10045 20022 39970 40365 58/// 333 55300 20407 91104 91202;
0103066010999992012011114004+47550+007583FM-12+031699999V0200901N001019999999N9999999N1+00461+00221103641ADDMA1999999099701REMSYN076AAXX  11144 06601 33/// /0902 10046 20022 39970 40364 5//// 333 553// 20299;
0140066010999992012011115004+47550+007583FM-12+031699999V0201001N001519999999N9999999N1+00481+00201103651ADDMA1999999099711MD1510041+9999OA149900311REMSYN088AAXX  11154 06601 33/// /1003 10048 20020 39971 40365 55004 333 55300 20202 91106 91203;
0140066010999992012011116004+47550+007583FM-12+031699999V0200901N002119999999N9999999N1+00431+00211103651ADDMA1999999099701MD1019999+9999OA149900511REMSYN088AAXX  11164 06601 33/// /0904 10043 20021 39970 40365 50/// 333 55300 20072 91110 91205;
0140066010999992012011117004+47550+007583FM-12+031699999V0201001N002119999999N9999999N1+00341+00181103651ADDMA1999999099691MD1819999+9999OA149900461REMSYN088AAXX  11174 06601 33/// /1004 10034 20018 39969 40365 58/// 333 55300 20000 91109 91205;
0222066010999992012011118004+47550+007583FM-12+031699999V0201001N00211004801CN0070001N1+00301+00131103681ADDAY121061AY221061GA1051+004801061GF105991999999004501999999IA1099KA1120M+00481MA1999999099711MW1101REMSYN112AAXX  11184 06601 31457 51004 10030 20013 39971 40368 5//// 71022 333 10048 31/// 553// 20000 85616 90766 93100;
0103066010999992012011119004+47550+007583FM-12+031699999V0201101N003119999999N9999999N1+00301+00111103681ADDMA1999999099711REMSYN076AAXX  11194 06601 33/// /1106 10030 20011 39971 40368 5//// 333 553// 20000;
0103066010999992012011120004+47550+007583FM-12+031699999V0201101N003119999999N9999999N1+00291+00091103681ADDMA1999999099711REMSYN076AAXX  11204 06601 33/// /1106 10029 20009 39971 40368 5//// 333 553// 20000;
0103066010999992012011121004+47550+007583FM-12+031699999V0200901N003119999999N9999999N1+00261+00051103651ADDMA1999999099681REMSYN076AAXX  11214 06601 33/// /0906 10026 20005 39968 40365 5//// 333 553// 20000;
0140066010999992012011122004+47550+007583FM-12+031699999V0201001N002619999999N9999999N1+00231+00031103611ADDMA1999999099631MD1719999+9999OA149900571REMSYN088AAXX  11224 06601 33/// /1005 10023 20003 39963 40361 57/// 333 55300 20000 91111 91206;
0103066010999992012011123004+47550+007583FM-12+031699999V0200801N002119999999N9999999N1+00231+00021103561ADDMA1999999099591REMSYN076AAXX  11234 06601 33/// /0804 10023 20002 39959 40356 5//// 333 553// 20000;
0140066010999992012011200004+47550+007583FM-12+031699999V0200901N002619999999N9999999N1+00231+00051103531ADDMA1999999099561MD1610121+9999OA149900571REMSYN088AAXX  12004 06601 33/// /0905 10023 20005 39956 40353 56012 333 55300 20000 91111 91206;
0140066010999992012011201004+47550+007583FM-12+031699999V0200901N003619999999N9999999N1+00231+00041103471ADDMA1999999099501MD1810131+9999OA149900671REMSYN088AAXX  12014 06601 33/// /0907 10023 20004 39950 40347 58013 333 55300 20000 91113 91207;
0103066010999992012011202004+47550+007583FM-12+031699999V0201001N002619999999N9999999N1+00171+00001103441ADDMA1999999099461REMSYN076AAXX  12024 06601 33/// /1005 10017 20000 39946 40344 5//// 333 553// 20000;
0140066010999992012011203004+47550+007583FM-12+031699999V0201101N002119999999N9999999N1+00141-00021103391ADDMA1999999099411MD1619999+9999OA149900671REMSYN088AAXX  12034 06601 33/// /1104 10014 21002 39941 40339 56/// 333 55300 20000 91113 91207;
0140066010999992012011204004+47550+007583FM-12+031699999V0201201N002119999999N9999999N1+00111-00021103331ADDMA1999999099351MD1810151+9999OA149900411REMSYN088AAXX  12044 06601 33/// /1204 10011 21002 39935 40333 58015 333 55300 20000 91108 91205;
0140066010999992012011205004+47550+007583FM-12+031699999V0201601N002119999999N9999999N1+00001-00101103301ADDMA1999999099301MD1810161+9999OA149900411REMSYN088AAXX  12054 06601 33/// /1604 10000 21010 39930 40330 58016 333 55300 20000 91108 91205;
0301066010999992012011206004+47550+007583FM-12+031699999V0201601N002612200019N0120001N1-00021-00111103261ADDAL19900091AY101061AY201061GA1031+003901071GF103991999999004501999999GJ100009IA1149IA2999-00209KA1999N-00031MA1999999099261MD1610151+9999MW1101OA149900671REMSYN136AAXX  12064 06601 31462 31605 11002 21011 39926 40326 56015 71000 333 21003 34102 55000 55300 20000 70000 83713 90768 93100 91113 91207;
0140066010999992012011207004+47550+007583FM-12+031699999V0201701N002119999999N9999999N1-00061-00131103231ADDMA1999999099231MD1610121+9999OA149900361REMSYN088AAXX  12074 06601 33/// /1704 11006 21013 39923 40323 56012 333 55300 20000 91107 91205;
0103066010999992012011208004+47550+007583FM-12+031699999V0201801N003119999999N9999999N1-00061-00151103271ADDMA1999999099261REMSYN076AAXX  12084 06601 33/// /1806 11006 21015 39926 40327 5//// 333 553// 20050;
0140066010999992012011209004+47550+007583FM-12+031699999V0202001N002619999999N9999999N1+00011-00121103271ADDMA1999999099271MD1310011+9999OA149900511REMSYN088AAXX  12094 06601 33/// /2005 10001 21012 39927 40327 53001 333 55309 20389 91110 91207;
0140066010999992012011210004+47550+007583FM-12+031699999V0201901N001519999999N9999999N1+00181-00051103241ADDMA1999999099271MD1210041+9999OA149900311REMSYN088AAXX  12104 06601 33/// /1903 10018 21005 39927 40324 52004 333 55310 20828 91106 91205;
0140066010999992012011211004+47550+007583FM-12+031699999V0202301N001519999999N9999999N1+00251-00021103151ADDMA1999999099191MD1810071+9999OA149900261REMSYN088AAXX  12114 06601 33/// /2303 10025 21002 39919 40315 58007 333 55310 21087 91105 91204;
0210066010999992012011212004+47550+007583FM-12+031699999V0209999C000012200019N0120001N1+00401+00031103041ADDAY101061AY201061GA1001+999999999GF100991001001999999001001MA1999999099111MD1719999+9999MW1101OA149900511REMSYN094AAXX  12124 06601 31/62 00000 10040 20003 39911 40304 57/// 71000 333 55310 21195 91110 91207;
0140066010999992012011213004+47550+007583FM-12+031699999V0203401N001019999999N9999999N1+00461+00081102991ADDMA1999999099071MD1619999+9999OA149900261REMSYN088AAXX  12134 06601 33/// /3402 10046 20008 39907 40299 56/// 333 55310 21112 91105 91203;
0103066010999992012011214004+47550+007583FM-12+031699999V0203401N002119999999N9999999N1+00361+00001102991ADDMA1999999099061REMSYN076AAXX  12144 06601 33/// /3404 10036 20000 39906 40299 5//// 333 553// 20868;
0140066010999992012011215004+47550+007583FM-12+031699999V0202501N003619999999N9999999N1+00191-00121103051ADDMA1999999099091MD1510021+9999OA149900821REMSYN088AAXX  12154 06601 33/// /2507 10019 21012 39909 40305 55002 333 55306 20382 91116 91207;
0140066010999992012011216004+47550+007583FM-12+031699999V0202501N002619999999N9999999N1+00121-00091103041ADDMA1999999099071MD1019999+9999OA149900721REMSYN088AAXX  12164 06601 33/// /2505 10012 21009 39907 40304 50/// 333 55300 20133 91114 91208;
0140066010999992012011217004+47550+007583FM-12+031699999V0202601N002119999999N9999999N1+00161-00071103091ADDMA1999999099121MD1219999+9999OA149900671REMSYN088AAXX  12174 06601 33/// /2604 10016 21007 39912 40309 52/// 333 55300 20000 91113 91206;
0269066010999992012011218004+47550+007583FM-12+031699999V0202401N00311007801CN0100001N1+00191-00061103141ADDAL19900091AY111061AY211061GA1061+007801071GF106991999999008001999999IA1099KA1120M+00481MA1999999099181MD1210091+9999MW1101OA149900821REMSYN124AAXX  12184 06601 31560 62406 10019 21006 39918 40314 52009 71011 333 10048 31/// 55300 20000 86726 90766 93100 91116 91208;
0140066010999992012011219004+47550+007583FM-12+031699999V0202301N004119999999N9999999N1+00201-00081103151ADDMA1999999099191MD1219999+9999OA149900721REMSYN088AAXX  12194 06601 33/// /2308 10020 21008 39919 40315 52/// 333 55300 20000 91114 91210;
0103066010999992012011220004+47550+007583FM-12+031699999V0202101N003619999999N9999999N1+00151-00101103141ADDMA1999999099171REMSYN076AAXX  12204 06601 33/// /2107 10015 21010 39917 40314 5//// 333 553// 20000;
0103066010999992012011221004+47550+007583FM-12+031699999V0201201N000519999999N9999999N1+00131-00111103171ADDMA1999999099201REMSYN076AAXX  12214 06601 33/// /1201 10013 21011 39920 40317 5//// 333 553// 20000;
0140066010999992012011222004+47550+007583FM-12+031699999V0201501N001519999999N9999999N1+00241-00061103131ADDMA1999999099171MD1719999+9999OA149900411REMSYN088AAXX  12224 06601 33/// /1503 10024 21006 39917 40313 57/// 333 55300 20000 91108 91205;
0103066010999992012011223004+47550+007583FM-12+031699999V0200701N000519999999N9999999N1+00281-00041103111ADDMA1999999099161REMSYN076AAXX  12234 06601 33/// /0701 10028 21004 39916 40311 5//// 333 553// 20000;
0140066010999992012011300004+47550+007583FM-12+031699999V0201101N001019999999N9999999N1+00241+00021103061ADDMA1999999099111MD1719999+9999OA149900721REMSYN088AAXX  13004 06601 33/// /1102 10024 20002 39911 40306 57/// 333 55300 20000 91114 91210;
0140066010999992012011301004+47550+007583FM-12+031699999V0201001N001019999999N9999999N1+00241+00061103041ADDMA1999999099091MD1719999+9999OA149900151REMSYN088AAXX  13014 06601 33/// /1002 10024 20006 39909 40304 57/// 333 55300 20000 91103 91202;
0109066010999992012011302004+47550+007583FM-12+031699999V0200901N001019999999N9999999N1+00201+00141103051ADDMA1999999099091REMSYN082AAXX  13024 06601 23/// /0902 10020 20014 39909 40305 5//// 333 553// 20000 60015;
0103066010999992012011303004+47550+007583FM-12+031699999V0200501N000519999999N9999999N1+00221+00151103071ADDMA1999999099111REMSYN076AAXX  13034 06601 33/// /0501 10022 20015 39911 40307 5//// 333 553// 20000;
0140066010999992012011304004+47550+007583FM-12+031699999V0201001N001519999999N9999999N1+00221+00151103051ADDMA1999999099091MD1519999+9999OA149900211REMSYN088AAXX  13044 06601 33/// /1003 10022 20015 39909 40305 55/// 333 55300 20000 91104 91203;
0146066010999992012011305004+47550+007583FM-12+031699999V0201001N001019999999N9999999N1+00251+00191103031ADDMA1999999099081MD1719999+9999OA149900261REMSYN094AAXX  13054 06601 23/// /1002 10025 20019 39908 40303 57/// 333 55300 20000 69915 91105 91202;
0334066010999992012011306004+47550+007583FM-12+031699999V0200301N00051004801CN0180001N1+00311+00201102991ADDAA112001091AL11200191AL29900091AY161061AY221061GA1081+004801071GF108991999999004501999999GJ104029IA1099IA2999-00309KA1999N+00091MA1999999099051MD1719999+9999MW1021OA149900311REMSYN148AAXX  13064 06601 01468 80301 10031 20020 39905 40299 57/// 60012 70262 333 20009 31103 55067 55300 20000 60005 70012 88716 90768 93100 91106 91204;
0140066010999992012011307004+47550+007583FM-12+031699999V0202801N001519999999N9999999N1+00341+00211103021ADDMA1999999099081MD1519999+9999OA149900411REMSYN088AAXX  13074 06601 33/// /2803 10034 20021 39908 40302 55/// 333 55300 20000 91108 91203;
0103066010999992012011308004+47550+007583FM-12+031699999V0203501N000519999999N9999999N1+00321+00211103041ADDMA1999999099101REMSYN076AAXX  13084 06601 33/// /3501 10032 20021 39910 40304 5//// 333 553// 20018;
0140066010999992012011309004+47550+007583FM-12+031699999V0202501N001019999999N9999999N1+00351+00211103061ADDMA1999999099121MD1210071+9999OA149900411REMSYN088AAXX  13094 06601 33/// /2502 10035 20021 39912 40306 52007 333 55300 20119 91108 91203;
0140066010999992012011310004+47550+007583FM-12+031699999V0203101N001519999999N9999999N1+00351+00181103081ADDMA1999999099141MD1210061+9999OA149900361REMSYN088AAXX  13104 06601 33/// /3103 10035 20018 39914 40308 52006 333 55300 20176 91107 91203;
0140066010999992012011311004+47550+007583FM-12+031699999V0202801N002119999999N9999999N1+00391+00151103031ADDMA1999999099101MD1819999+9999OA149900411REMSYN088AAXX  13114 06601 33/// /2804 10039 20015 39910 40303 58/// 333 55300 20266 91108 91204;
0216066010999992012011312004+47550+007583FM-12+031699999V0203001N00101004801CN0120001N1+00461+00191102951ADDAY121061AY221061GA1071+004801061GF107991999999004501999999MA1999999099031MD1819999+9999MW1101OA149900411REMSYN100AAXX  13124 06601 31462 73002 10046 20019 39903 40295 58/// 71022 333 55300 20468 87616 91108 91204;
0103066010999992012011313004+47550+007583FM-12+031699999V0203001N002619999999N9999999N1+00501+00101102901ADDMA1999999098991REMSYN076AAXX  13134 06601 33/// /3005 10050 20010 39899 40290 5//// 333 553// 20436;
0103066010999992012011314004+47550+007583FM-12+031699999V0202901N002119999999N9999999N1+00501+00041102891ADDMA1999999098981REMSYN076AAXX  13144 06601 33/// /2904 10050 20004 39898 40289 5//// 333 553// 20450;
0140066010999992012011315004+47550+007583FM-12+031699999V0203001N001519999999N9999999N1+00461+00011102941ADDMA1999999099021MD1519999+9999OA149900511REMSYN088AAXX  13154 06601 33/// /3003 10046 20001 39902 40294 55/// 333 55300 20241 91110 91205;
0140066010999992012011316004+47550+007583FM-12+031699999V0202501N001519999999N9999999N1+00341-00011102961ADDMA1999999099021MD1210031+9999OA149900361REMSYN088AAXX  13164 06601 33/// /2503 10034 21001 39902 40296 52003 333 55300 20054 91107 91204;
0140066010999992012011317004+47550+007583FM-12+031699999V0202201N002619999999N9999999N1+00161-00051103001ADDMA1999999099041MD1219999+9999OA149900311REMSYN088AAXX  13174 06601 33/// /2205 10016 21005 39904 40300 52/// 333 55300 20000 91106 91205;
0241066010999992012011318004+47550+007583FM-12+031699999V0202301N001512200019N0300001N1+00181-00091103021ADDAL19900091GA1041+018001061GF104991999999017501999999IA1099KA1120M+00531MA1999999099061MD1210041+9999OA149900511REMSYN118AAXX  13184 06601 32780 42303 10018 21009 39906 40302 52004 333 10053 31/// 55300 20000 84656 90766 93100 91110 91205;
0103066010999992012011319004+47550+007583FM-12+031699999V0202401N001019999999N9999999N1+00061-00121103061ADDMA1999999099081REMSYN076AAXX  13194 06601 33/// /2402 10006 21012 39908 40306 5//// 333 553// 20000;
0103066010999992012011320004+47550+007583FM-12+031699999V0202301N001019999999N9999999N1+00061-00101103061ADDMA1999999099081REMSYN076AAXX  13204 06601 33/// /2302 10006 21010 39908 40306 5//// 333 553// 20000;
0103066010999992012011321004+47550+007583FM-12+031699999V0202001N002119999999N9999999N1+00001-00131103061ADDMA1999999099071REMSYN076AAXX  13214 06601 33/// /2004 10000 21013 39907 40306 5//// 333 553// 20000;
0140066010999992012011322004+47550+007583FM-12+031699999V0202201N001019999999N9999999N1-00041-00161103051ADDMA1999999099061MD1719999+9999OA149900211REMSYN088AAXX  13224 06601 33/// /2202 11004 21016 39906 40305 57/// 333 55300 20000 91104 91203;
0103066010999992012011323004+47550+007583FM-12+031699999V0201801N001519999999N9999999N1-00141-00231103031ADDMA1999999099021REMSYN076AAXX  13234 06601 33/// /1803 11014 21023 39902 40303 5//// 333 553// 20000;
0140066010999992012011400004+47550+007583FM-12+031699999V0201301N000519999999N9999999N1-00091-00181103021ADDMA1999999099021MD1719999+9999OA149900311REMSYN088AAXX  14004 06601 33/// /1301 11009 21018 39902 40302 57/// 333 55300 20000 91106 91205;
0103066010999992012011401004+47550+007583FM-12+031699999V0202101N000519999999N9999999N1-00091-00181103001ADDMA1999999099001REMSYN076AAXX  14014 06601 33/// /2101 11009 21018 39900 40300 5//// 333 553// 20000;
0103066010999992012011402004+47550+007583FM-12+031699999V0201001N001019999999N9999999N1-00101-00101103041ADDMA1999999099041REMSYN076AAXX  14024 06601 33/// /1002 11010 21010 39904 40304 5//// 333 553// 20000;
0103066010999992012011403004+47550+007583FM-12+031699999V0201001N000519999999N9999999N1-00081-00101103021ADDMA1999999099021REMSYN076AAXX  14034 06601 33/// /1001 11008 21010 39902 40302 5//// 333 553// 20000;
0103066010999992012011404004+47550+007583FM-12+031699999V0201201N000519999999N9999999N1-00141-00161102991ADDMA1999999098981REMSYN076AAXX  14044 06601 33/// /1201 11014 21016 39898 40299 5//// 333 553// 20000;
0103066010999992012011405004+47550+007583FM-12+031699999V0201101N001519999999N9999999N1-00161-00171102971ADDMA1999999098961REMSYN076AAXX  14054 06601 33/// /1103 11016 21017 39896 40297 5//// 333 553// 20000;
0258066010999992012011406004+47550+007583FM-12+031699999V0201301N001010001519N0001001N1-00181-00211102961ADDAL19900091AY141061AY211061GA1091+999999999GF109991091999999999999999GJ100129IA1099IA2999-00609KA1999N-00201MA1999999098951MW1491REMSYN118AAXX  14064 06601 31/01 91302 11018 21021 39895 40296 5//// 74941 333 21020 31106 55002 553// 20000 70000 90768 93100;
0140066010999992012011407004+47550+007583FM-12+031699999V0201101N001019999999N9999999N1-00221-00231102971ADDMA1999999098951MD1719999+9999OA149900261REMSYN088AAXX  14074 06601 33/// /1102 11022 21023 39895 40297 57/// 333 55300 20000 91105 91202;
0103066010999992012011408004+47550+007583FM-12+031699999V0201301N001019999999N9999999N1-00251-00301102971ADDMA1999999098951REMSYN076AAXX  14084 06601 33/// /1302 11025 21030 39895 40297 5//// 333 553// 20047;
0103066010999992012011409004+47550+007583FM-12+031699999V0201101N001019999999N9999999N1-00251-00301102971ADDMA1999999098951REMSYN076AAXX  14094 06601 33/// /1102 11025 21030 39895 40297 5//// 333 553// 20212;
0103066010999992012011410004+47550+007583FM-12+031699999V0200801N000519999999N9999999N1-00171-00271102941ADDMA1999999098931REMSYN076AAXX  14104 06601 33/// /0801 11017 21027 39893 40294 5//// 333 553// 20752;
0103066010999992012011411004+47550+007583FM-12+031699999V0201201N000519999999N9999999N1-00091-00241102871ADDMA1999999098881REMSYN076AAXX  14114 06601 33/// /1201 11009 21024 39888 40287 5//// 333 553// 21026;
0163066010999992012011412004+47550+007583FM-12+031699999V0203201N000512200019N0080001N1+00151-00141102771ADDAY171061AY241061GF101991999999000751999999MA1999999098811MW1101REMSYN088AAXX  14124 06601 31158 13201 10015 21014 39881 40277 5//// 71074 333 553// 21235 81703;
0103066010999992012011413004+47550+007583FM-12+031699999V0203101N001519999999N9999999N1+00221-00201102681ADDMA1999999098741REMSYN076AAXX  14134 06601 33/// /3103 10022 21020 39874 40268 5//// 333 553// 21134;
0087066010999992012011414004+47550+007583FM-12+031699999V0203101N001519999999N9999999N1+00251-00191102641ADDMA1999999098701REMSYN060AAXX  14144 06601 43/// /3103 10025 21019 39870 40264 5////;
0087066010999992012011415004+47550+007583FM-12+031699999V0203201N001019999999N9999999N1+00251-00131102641ADDMA1999999098701REMSYN060AAXX  14154 06601 43/// /3202 10025 21013 39870 40264 5////;
0140066010999992012011416004+47550+007583FM-12+031699999V0203201N001019999999N9999999N1+00161-00151102661ADDMA1999999098711MD1510031+9999OA149900261REMSYN088AAXX  14164 06601 33/// /3202 10016 21015 39871 40266 55003 333 55303 20126 91105 91203;
0140066010999992012011417004+47550+007583FM-12+031699999V0202201N001019999999N9999999N1+00091-00161102681ADDMA1999999098721MD1219999+9999OA149900211REMSYN088AAXX  14174 06601 33/// /2202 10009 21016 39872 40268 52/// 333 55300 20000 91104 91202;
0263066010999992012011418004+47550+007583FM-12+031699999V0202401N001512200019N0120001N1-00061-00201102691ADDAL19900091AY101061AY201061GA1001+999999999GF100991001001999999001001IA1099KA1120M+00261MA1999999098711MD1019999+9999MW1101OA149900361REMSYN118AAXX  14184 06601 31/62 02403 11006 21020 39871 40269 50/// 71000 333 10026 31/// 55300 20000 90766 93100 91107 91203;
0103066010999992012011419004+47550+007583FM-12+031699999V0202401N000519999999N9999999N1-00061-00211102681ADDMA1999999098701REMSYN076AAXX  14194 06601 33/// /2401 11006 21021 39870 40268 5//// 333 553// 20000;
0140066010999992012011420004+47550+007583FM-12+031699999V0203101N000519999999N9999999N1-00161-00261102711ADDMA1999999098711MD1519999+9999OA149900151REMSYN088AAXX  14204 06601 33/// /3101 11016 21026 39871 40271 55/// 333 55300 20000 91103 91202;
0103066010999992012011421004+47550+007583FM-12+031699999V0202801N001019999999N9999999N1-00151-00241102701ADDMA1999999098701REMSYN076AAXX  14214 06601 33/// /2802 11015 21024 39870 40270 5//// 333 553// 20000;
0140066010999992012011422004+47550+007583FM-12+031699999V0202301N001519999999N9999999N1-00241-00321102661ADDMA1999999098651MD1719999+9999OA149900211REMSYN088AAXX  14224 06601 33/// /2303 11024 21032 39865 40266 57/// 333 55300 20000 91104 91203;
0103066010999992012011423004+47550+007583FM-12+031699999V0202601N001019999999N9999999N1-00271-00341102661ADDMA1999999098651REMSYN076AAXX  14234 06601 33/// /2602 11027 21034 39865 40266 5//// 333 553// 20000;
0140066010999992012011500004+47550+007583FM-12+031699999V0202101N001019999999N9999999N1-00301-00361102631ADDMA1999999098611MD1719999+9999OA149900211REMSYN088AAXX  15004 06601 33/// /2102 11030 21036 39861 40263 57/// 333 55300 20000 91104 91203;
0103066010999992012011501004+47550+007583FM-12+031699999V0202701N001019999999N9999999N1-00371-00431102621ADDMA1999999098591REMSYN076AAXX  15014 06601 33/// /2702 11037 21043 39859 40262 5//// 333 553// 20000;
0103066010999992012011502004+47550+007583FM-12+031699999V0209999C000019999999N9999999N1-00401-00461102601ADDMA1999999098571REMSYN076AAXX  15024 06601 33/// /0000 11040 21046 39857 40260 5//// 333 553// 20000;
0103066010999992012011503004+47550+007583FM-12+031699999V0202501N001019999999N9999999N1-00411-00491102581ADDMA1999999098551REMSYN076AAXX  15034 06601 33/// /2502 11041 21049 39855 40258 5//// 333 553// 20000;
0087066010999992012011504004+47550+007583FM-12+031699999V0202501N000519999999N9999999N1-00421-00511102571ADDMA1999999098541REMSYN060AAXX  15044 06601 43/// /2501 11042 21051 39854 40257 5////;
0103066010999992012011505004+47550+007583FM-12+031699999V0209999C000019999999N9999999N1-00431-00531102551ADDMA1999999098521REMSYN076AAXX  15054 06601 33/// /0000 11043 21053 39852 40255 5//// 333 553// 20000;
0301066010999992012011506004+47550+007583FM-12+031699999V0209999C00001078001CN0120001N1-00431-00501102571ADDAL19900091AY111061AY211061GA1061+078001001GF106991999999999999999999GJ103369IA1149IA2999-00809KA1999N-00491MA1999999098541MD1519999+9999MW1101OA149900151REMSYN136AAXX  15064 06601 31962 60000 11043 21050 39854 40257 55/// 71011 333 21049 34108 55056 55300 20000 70000 86076 90768 93100 91103 91202;
0140066010999992012011507004+47550+007583FM-12+031699999V0202401N001019999999N9999999N1-00511-00611102601ADDMA1999999098551MD1310011+9999OA149900151REMSYN088AAXX  15074 06601 33/// /2402 11051 21061 39855 40260 53001 333 55300 20000 91103 91202;
0103066010999992012011508004+47550+007583FM-12+031699999V0209999C000019999999N9999999N1-00481-00571102591ADDMA1999999098551REMSYN076AAXX  15084 06601 33/// /0000 11048 21057 39855 40259 5//// 333 553// 20061;
0140066010999992012011509004+47550+007583FM-12+031699999V0202901N001019999999N9999999N1-00261-00401102551ADDMA1999999098541MD1019999+9999OA149900151REMSYN088AAXX  15094 06601 33/// /2902 11026 21040 39854 40255 50/// 333 55310 20428 91103 91202;
0140066010999992012011510004+47550+007583FM-12+031699999V0202901N000519999999N9999999N1-00091-00341102491ADDMA1999999098511MD1710041+9999OA149900211REMSYN088AAXX  15104 06601 33/// /2901 11009 21034 39851 40249 57004 333 55310 20842 91104 91203;
0140066010999992012011511004+47550+007583FM-12+031699999V0200801N004119999999N9999999N1+00211-00371102371ADDMA1999999098441MD1819999+9999OA149900771REMSYN088AAXX  15114 06601 33/// /0808 10021 21037 39844 40237 58/// 333 55310 21123 91115 91208;
0135066010999992012011512004+47550+007583FM-12+031699999V0200901N002612200019N0220001N1+00301-00361102291ADDGF101991999999999999999999MA1999999098371REMSYN082AAXX  15124 06601 32972 10905 10030 21036 39837 40229 5//// 333 553// 21249 81076;
0140066010999992012011513004+47550+007583FM-12+031699999V0200701N002619999999N9999999N1+00371-00501102201ADDMA1999999098301MD1619999+9999OA149900771REMSYN088AAXX  15134 06601 33/// /0705 10037 21050 39830 40220 56/// 333 55310 21181 91115 91206;
0103066010999992012011514004+47550+007583FM-12+031699999V0203401N001519999999N9999999N1+00241-00451102211ADDMA1999999098291REMSYN076AAXX  15144 06601 33/// /3403 10024 21045 39829 40221 5//// 333 553// 20904;
0140066010999992012011515004+47550+007583FM-12+031699999V0203101N001519999999N9999999N1+00211-00361102211ADDMA1999999098281MD1719999+9999OA149900771REMSYN088AAXX  15154 06601 33/// /3103 10021 21036 39828 40221 57/// 333 55307 20511 91115 91206;
0159066010999992012011516004+47550+007583FM-12+031699999V0202901N000519999999N9999999N1+00151-00381102241ADDMA1999999098301MD1310041+9999OA149900261REMSYN088AAXX  15164 06601 33/// /2901 10015 21038 39830 40224 53000 333 55305 20140 91105 91202;EQDQ01+000002APC3  
0140066010999992012011517004+47550+007583FM-12+031699999V0201001N002119999999N9999999N1+00171-00601102241ADDMA1999999098311MD1310021+9999OA149900511REMSYN088AAXX  15174 06601 33/// /1004 10017 21060 39831 40224 53002 333 55300 20000 91110 91205;
0235066010999992012011518004+47550+007583FM-12+031699999V0200901N002112200019N0200001N1+00141-00591102261ADDAL19900091GA1001+999999999GF100991001001999999001001IA1099KA1120M+00371MA1999999098321MD1110041+9999OA149900771REMSYN112AAXX  15184 06601 32/70 00904 10014 21059 39832 40226 51004 333 10037 31/// 55300 20000 90766 93100 91115 91206;
0140066010999992012011519004+47550+007583FM-12+031699999V0200901N002119999999N9999999N1+00071-00631102291ADDMA1999999098341MD1319999+9999OA149900461REMSYN088AAXX  15194 06601 33/// /0904 10007 21063 39834 40229 53/// 333 55300 20000 91109 91205;
0103066010999992012011520004+47550+007583FM-12+031699999V0200801N002619999999N9999999N1+00061-00631102301ADDMA1999999098351REMSYN076AAXX  15204 06601 33/// /0805 10006 21063 39835 40230 5//// 333 553// 20000;
0103066010999992012011521004+47550+007583FM-12+031699999V0200701N002619999999N9999999N1+00011-00621102331ADDMA1999999098371REMSYN076AAXX  15214 06601 33/// /0705 10001 21062 39837 40233 5//// 333 553// 20000;
0140066010999992012011522004+47550+007583FM-12+031699999V0200501N001519999999N9999999N1-00061-00601102331ADDMA1999999098361MD1219999+9999OA149900461REMSYN088AAXX  15224 06601 33/// /0503 11006 21060 39836 40233 52/// 333 55300 20000 91109 91205;
0103066010999992012011523004+47550+007583FM-12+031699999V0203101N001519999999N9999999N1-00221-00331102361ADDMA1999999098371REMSYN076AAXX  15234 06601 33/// /3103 11022 21033 39837 40236 5//// 333 553// 20000;
0140066010999992012011600004+47550+007583FM-12+031699999V0203101N001519999999N9999999N1-00261-00351102371ADDMA1999999098371MD1010001+9999OA149900571REMSYN088AAXX  16004 06601 33/// /3103 11026 21035 39837 40237 50000 333 55300 20000 91111 91205;
0140066010999992012011601004+47550+007583FM-12+031699999V0202901N001519999999N9999999N1-00331-00401102361ADDMA1999999098351MD1819999+9999OA149900261REMSYN088AAXX  16014 06601 33/// /2903 11033 21040 39835 40236 58/// 333 55300 20000 91105 91203;
0103066010999992012011602004+47550+007583FM-12+031699999V0203301N000519999999N9999999N1-00331-00421102371ADDMA1999999098361REMSYN076AAXX  16024 06601 33/// /3301 11033 21042 39836 40237 5//// 333 553// 20000;
0140066010999992012011603004+47550+007583FM-12+031699999V0202801N001019999999N9999999N1-00381-00461102391ADDMA1999999098371MD1519999+9999OA149900311REMSYN088AAXX  16034 06601 33/// /2802 11038 21046 39837 40239 55/// 333 55300 20000 91106 91203;
0140066010999992012011604004+47550+007583FM-12+031699999V0203001N001019999999N9999999N1-00401-00481102421ADDMA1999999098401MD1219999+9999OA149900261REMSYN088AAXX  16044 06601 33/// /3002 11040 21048 39840 40242 52/// 333 55300 20000 91105 91203;
0140066010999992012011605004+47550+007583FM-12+031699999V0202901N001019999999N9999999N1-00421-00511102451ADDMA1999999098421MD1219999+9999OA149900311REMSYN088AAXX  16054 06601 33/// /2902 11042 21051 39842 40245 52/// 333 55300 20000 91106 91202;
0273066010999992012011606004+47550+007583FM-12+031699999V0203101N001012200019N0180001N1-00481-00561102481ADDAL19900091GA1011+072001001GF101991999999999999999999GJ104389IA1149IA2999-00809KA1999N-00451MA1999999098441MD1210071+9999OA149900311REMSYN130AAXX  16064 06601 32968 13102 11048 21056 39844 40248 52007 333 21045 34108 55073 55300 20000 70000 81074 90768 93100 91106 91203;
0140066010999992012011607004+47550+007583FM-12+031699999V0203101N001519999999N9999999N1-00451-00531102501ADDMA1999999098471MD1310071+9999OA149900261REMSYN088AAXX  16074 06601 33/// /3103 11045 21053 39847 40250 53007 333 55300 20000 91105 91203;
0103066010999992012011608004+47550+007583FM-12+031699999V0203101N001019999999N9999999N1-00461-00531102551ADDMA1999999098511REMSYN076AAXX  16084 06601 33/// /3102 11046 21053 39851 40255 5//// 333 553// 20058;
0140066010999992012011609004+47550+007583FM-12+031699999V0203101N001519999999N9999999N1-00331-00441102551ADDMA1999999098531MD1119999+9999OA149900261REMSYN088AAXX  16094 06601 33/// /3103 11033 21044 39853 40255 51/// 333 55310 20450 91105 91203;
0140066010999992012011610004+47550+007583FM-12+031699999V0203301N001019999999N9999999N1-00191-00401102571ADDMA1999999098571MD1319999+9999OA149900261REMSYN088AAXX  16104 06601 33/// /3302 11019 21040 39857 40257 53/// 333 55310 20864 91105 91203;
0140066010999992012011611004+47550+007583FM-12+031699999V0203401N001519999999N9999999N1-00081-00331102531ADDMA1999999098551MD1219999+9999OA149900361REMSYN088AAXX  16114 06601 33/// /3403 11008 21033 39855 40253 52/// 333 55310 21127 91107 91203;
0145066010999992012011612004+47550+007583FM-12+031699999V0203301N001512200019N0220001N1+00071-00371102461ADDGA1001+999999999GF100991001001999999001001MA1999999098501REMSYN076AAXX  16124 06601 32/72 03303 10007 21037 39850 40246 5//// 333 553// 21235;
0140066010999992012011613004+47550+007583FM-12+031699999V0203501N001519999999N9999999N1+00091-00481102411ADDMA1999999098461MD1819999+9999OA149900461REMSYN088AAXX  16134 06601 33/// /3503 10009 21048 39846 40241 58/// 333 55310 21156 91109 91203;
0103066010999992012011614004+47550+007583FM-12+031699999V0203201N001519999999N9999999N1+00131-00381102431ADDMA1999999098481REMSYN076AAXX  16144 06601 33/// /3203 10013 21038 39848 40243 5//// 333 553// 20896;
0140066010999992012011615004+47550+007583FM-12+031699999V0203501N001519999999N9999999N1+00081-00511102461ADDMA1999999098511MD1319999+9999OA149900461REMSYN088AAXX  16154 06601 33/// /3503 10008 21051 39851 40246 53/// 333 55308 20515 91109 91204;
0140066010999992012011616004+47550+007583FM-12+031699999V0203201N001019999999N9999999N1+00001-00481102551ADDMA1999999098581MD1319999+9999OA149900411REMSYN088AAXX  16164 06601 33/// /3202 10000 21048 39858 40255 53/// 333 55305 20137 91108 91203;
0140066010999992012011617004+47550+007583FM-12+031699999V0202301N001519999999N9999999N1-00131-00431102621ADDMA1999999098631MD1319999+9999OA149900211REMSYN088AAXX  16174 06601 33/// /2303 11013 21043 39863 40262 53/// 333 55300 20000 91104 91203;
0235066010999992012011618004+47550+007583FM-12+031699999V0202301N001012200019N0240001N1-00221-00451102701ADDAL19900091GA1001+999999999GF100991001001999999001001IA1099KA1120M+00151MA1999999098691MD1219999+9999OA149900461REMSYN112AAXX  16184 06601 32/74 02302 11022 21045 39869 40270 52/// 333 10015 31/// 55300 20000 90766 93100 91109 91204;
0103066010999992012011619004+47550+007583FM-12+031699999V0202301N001019999999N9999999N1-00201-00421102761ADDMA1999999098751REMSYN076AAXX  16194 06601 33/// /2302 11020 21042 39875 40276 5//// 333 553// 20000;
0103066010999992012011620004+47550+007583FM-12+031699999V0202401N001519999999N9999999N1-00341-00471102841ADDMA1999999098811REMSYN076AAXX  16204 06601 33/// /2403 11034 21047 39881 40284 5//// 333 553// 20000;
0103066010999992012011621004+47550+007583FM-12+031699999V0202501N001019999999N9999999N1-00321-00471102871ADDMA1999999098841REMSYN076AAXX  16214 06601 33/// /2502 11032 21047 39884 40287 5//// 333 553// 20000;
0103066010999992012011622004+47550+007583FM-12+031699999V0202001N000519999999N9999999N1-00341-00491102901ADDMA1999999098871REMSYN076AAXX  16224 06601 33/// /2001 11034 21049 39887 40290 5//// 333 553// 20000;
0103066010999992012011623004+47550+007583FM-12+031699999V0201201N001019999999N9999999N1-00271-00641102921ADDMA1999999098901REMSYN076AAXX  16234 06601 33/// /1202 11027 21064 39890 40292 5//// 333 553// 20000;
0140066010999992012011700004+47550+007583FM-12+031699999V0203001N001019999999N9999999N1-00431-00541102951ADDMA1999999098901MD1219999+9999OA149900211REMSYN088AAXX  17004 06601 33/// /3002 11043 21054 39890 40295 52/// 333 55300 20000 91104 91203;
0103066010999992012011701004+47550+007583FM-12+031699999V0203101N001519999999N9999999N1-00411-00531102971ADDMA1999999098921REMSYN076AAXX  17014 06601 33/// /3103 11041 21053 39892 40297 5//// 333 553// 20000;
0103066010999992012011702004+47550+007583FM-12+031699999V0202801N001019999999N9999999N1-00461-00571103011ADDMA1999999098951REMSYN076AAXX  17024 06601 33/// /2802 11046 21057 39895 40301 5//// 333 553// 20000;
0103066010999992012011703004+47550+007583FM-12+031699999V0202801N001019999999N9999999N1-00481-00591103051ADDMA1999999098991REMSYN076AAXX  17034 06601 33/// /2802 11048 21059 39899 40305 5//// 333 553// 20000;
0103066010999992012011704004+47550+007583FM-12+031699999V0201201N002119999999N9999999N1-00341-00641103051ADDMA1999999099011REMSYN076AAXX  17044 06601 33/// /1204 11034 21064 39901 40305 5//// 333 553// 20000;
0140066010999992012011705004+47550+007583FM-12+031699999V0201201N002119999999N9999999N1-00341-00661103081ADDMA1999999099041MD1219999+9999OA149900411REMSYN088AAXX  17054 06601 33/// /1204 11034 21066 39904 40308 52/// 333 55300 20000 91108 91204;
0295066010999992012011706004+47550+007583FM-12+031699999V0201101N001012200019N0060001N1-00371-00671103111ADDAL19900091AY101061AY201061GA1001+999999999GF100991001001999999001001GJ104509IA1149IA2999-00909KA1999N-00491MA1999999099061MD1119999+9999MW1101OA149900411REMSYN130AAXX  17064 06601 31/56 01102 11037 21067 39906 40311 51/// 71000 333 21049 34109 55075 55300 20000 70000 90768 93100 91108 91204;
0103066010999992012011707004+47550+007583FM-12+031699999V0201201N001519999999N9999999N1-00381-00681103121ADDMA1999999099071REMSYN076AAXX  17074 06601 33/// /1203 11038 21068 39907 40312 5//// 333 553// 20000;
0103066010999992012011708004+47550+007583FM-12+031699999V0201101N001519999999N9999999N1-00381-00671103191ADDMA1999999099141REMSYN076AAXX  17084 06601 33/// /1103 11038 21067 39914 40319 5//// 333 553// 20047;
0103066010999992012011709004+47550+007583FM-12+031699999V0201501N001519999999N9999999N1-00301-00651103211ADDMA1999999099171REMSYN076AAXX  17094 06601 33/// /1503 11030 21065 39917 40321 5//// 333 553// 20421;
0140066010999992012011710004+47550+007583FM-12+031699999V0201101N001519999999N9999999N1-00091-00541103191ADDMA1999999099181MD1219999+9999OA149900361REMSYN088AAXX  17104 06601 33/// /1103 11009 21054 39918 40319 52/// 333 55310 20857 91107 91204;
0140066010999992012011711004+47550+007583FM-12+031699999V0201201N001519999999N9999999N1+00061-00541103151ADDMA1999999099171MD1019999+9999OA149900461REMSYN088AAXX  17114 06601 33/// /1203 10006 21054 39917 40315 50/// 333 55310 21127 91109 91204;
0163066010999992012011712004+47550+007583FM-12+031699999V0201101N001012200019N0080001N1+00191-00521103121ADDAY101061AY201061GF101991999999999999999999MA1999999099161MW1051REMSYN088AAXX  17124 06601 31958 11102 10019 21052 39916 40312 5//// 70500 333 553// 21235 81076;
0103066010999992012011713004+47550+007583FM-12+031699999V0200901N001019999999N9999999N1+00321-00481103061ADDMA1999999099121REMSYN076AAXX  17134 06601 33/// /0902 10032 21048 39912 40306 5//// 333 553// 21166;
0103066010999992012011714004+47550+007583FM-12+031699999V0201101N000519999999N9999999N1+00391-00451103051ADDMA1999999099121REMSYN076AAXX  17144 06601 33/// /1101 10039 21045 39912 40305 5//// 333 553// 20889;
0103066010999992012011715004+47550+007583FM-12+031699999V0201201N001019999999N9999999N1+00351-00501103091ADDMA1999999099151REMSYN076AAXX  17154 06601 33/// /1202 10035 21050 39915 40309 5//// 333 553// 20490;
0103066010999992012011716004+47550+007583FM-12+031699999V0201601N001019999999N9999999N1+00171-00421103171ADDMA1999999099201REMSYN076AAXX  17164 06601 33/// /1602 10017 21042 39920 40317 5//// 333 553// 20155;
0103066010999992012011717004+47550+007583FM-12+031699999V0201001N001019999999N9999999N1+00131-00431103151ADDMA1999999099181REMSYN076AAXX  17174 06601 33/// /1002 10013 21043 39918 40315 5//// 333 553// 20004;
0222066010999992012011718004+47550+007583FM-12+031699999V0200901N002112200019N0120001N1+00071-00431103191ADDAY101061AY201061GA1011+000901071GF101991999999000751999999IA1149KA1120M+00391MA1999999099211MW1101REMSYN112AAXX  17184 06601 31162 10904 10007 21043 39921 40319 5//// 71000 333 10039 34/// 553// 20000 81703 90766 93100;
0103066010999992012011719004+47550+007583FM-12+031699999V0200901N001019999999N9999999N1+00001-00421103251ADDMA1999999099251REMSYN076AAXX  17194 06601 33/// /0902 10000 21042 39925 40325 5//// 333 553// 20000;
0103066010999992012011720004+47550+007583FM-12+031699999V0201701N001019999999N9999999N1-00211-00441103311ADDMA1999999099281REMSYN076AAXX  17204 06601 33/// /1702 11021 21044 39928 40331 5//// 333 553// 20000;
0103066010999992012011721004+47550+007583FM-12+031699999V0201101N001519999999N9999999N1-00111-00441103271ADDMA1999999099261REMSYN076AAXX  17214 06601 33/// /1103 11011 21044 39926 40327 5//// 333 553// 20000;
