0128066160999992010010100004+47433+006950FM-12+059799999V0203301N001019999999N9999999N1+00441+00301099211ADDMA1999999092251MD1810111+9999OA149900821REMSYN076AAXX  01004 06616 33/// /3302 10044 20030 39225 49921 58011 333 91116 91209;
0128066160999992010010101004+47433+006950FM-12+059799999V0200901N000519999999N9999999N1+00301+00231099201ADDMA1999999092211MD1710131+9999OA149900151REMSYN076AAXX  01014 06616 33/// /0901 10030 20023 39221 49920 57013 333 91103 91202;
0128066160999992010010102004+47433+006950FM-12+059799999V0200601N001019999999N9999999N1+00321+00241099171ADDMA1999999092181MD1719999+9999OA149900101REMSYN076AAXX  01024 06616 33/// /0602 10032 20024 39218 49917 57/// 333 91102 91202;
0087066160999992010010103004+47433+006950FM-12+059799999V0209999C000019999999N9999999N1+00311+00231099101ADDMA1999999092121REMSYN060AAXX  01034 06616 43/// /0000 10031 20023 39212 49910 5////;
0087066160999992010010104004+47433+006950FM-12+059799999V0209999C000019999999N9999999N1+00361+00281099071ADDMA1999999092101REMSYN060AAXX  01044 06616 33/// /0000 10036 20028 39210 49907 5////;
0128066160999992010010105004+47433+006950FM-12+059799999V0201101N001019999999N9999999N1+00181+00111099081ADDMA1999999092061MD1610121+9999OA149900151REMSYN076AAXX  01054 06616 33/// /1102 10018 20011 39206 49908 56012 333 91103 91202;
0206066160999992010010106004+47433+006950FM-12+059799999V0200901N002119999999N9999999N1+00351+00251099011ADDAA124001591AL13600191GJ100489IA2999-00309KA1999N+00141MA1999999092041MD1810081+9999OA149900361REMSYN100AAXX  01064 06616 33/// /0904 10035 20025 39204 49901 58008 333 20014 3/103 55008 70016 91107 91205;
0128066160999992010010107004+47433+006950FM-12+059799999V0209999C000019999999N9999999N1+00261+00211099061ADDMA1999999092071MD1510031+9999OA149900361REMSYN076AAXX  01074 06616 33/// /0000 10026 20021 39207 49906 55003 333 91107 91205;
0128066160999992010010108004+47433+006950FM-12+059799999V0200601N001019999999N9999999N1+00291+00271099111ADDMA1999999092121MD1210061+9999OA149900261REMSYN076AAXX  01084 06616 33/// /0602 10029 20027 39212 49911 52006 333 91105 91202;
0128066160999992010010109004+47433+006950FM-12+059799999V0200601N001019999999N9999999N1+00241+00201099201ADDMA1999999092191MD1310151+9999OA149900361REMSYN076AAXX  01094 06616 33/// /0602 10024 20020 39219 49920 53015 333 91107 91205;
0128066160999992010010110004+47433+006950FM-12+059799999V0201201N001019999999N9999999N1+00341+00241099281ADDMA1999999092291MD1310221+9999OA149900261REMSYN076AAXX  01104 06616 33/// /1202 10034 20024 39229 49928 53022 333 91105 91202;
0128066160999992010010111004+47433+006950FM-12+059799999V0200701N001519999999N9999999N1+00381+00271099281ADDMA1999999092301MD1210181+9999OA149900411REMSYN076AAXX  01114 06616 33/// /0703 10038 20027 39230 49928 52018 333 91108 91203;
0128066160999992010010112004+47433+006950FM-12+059799999V0203201N002619999999N9999999N1+00271+00201099341ADDMA1999999092331MD1210141+9999OA149900411REMSYN076AAXX  01124 06616 33/// /3205 10027 20020 39233 49934 52014 333 91108 91205;
0145066160999992010010113004+47433+006950FM-12+059799999V0202901N002119999999N9999999N1+00221+00111099431ADDAA101001091MA1999999092401MD1210111+9999OA149900571REMSYN082AAXX  01134 06616 23/// /2904 10022 20011 39240 49943 52011 333 60015 91111 91208;
0145066160999992010010114004+47433+006950FM-12+059799999V0202801N003119999999N9999999N1+00161+00061099581ADDAA101002091MA1999999092521MD1319999+9999OA149900621REMSYN082AAXX  01144 06616 23/// /2806 10016 20006 39252 49958 53/// 333 60025 91112 91208;
0145066160999992010010115004+47433+006950FM-12+059799999V0202701N003619999999N9999999N1+00051-00051099771ADDAA101001091MA1999999092671MD1310341+9999OA149900771REMSYN082AAXX  01154 06616 23/// /2707 10005 21005 39267 49977 53034 333 60015 91115 91208;
0145066160999992010010116004+47433+006950FM-12+059799999V0202601N004619999999N9999999N1+00011-00101099921ADDAA101001091MA1999999092801MD1210401+9999OA149900821REMSYN082AAXX  01164 06616 23/// /2609 10001 21010 39280 49992 52040 333 60015 91116 91209;
0145066160999992010010117004+47433+006950FM-12+059799999V0202601N003619999999N9999999N1-00011-00131100091ADDAA101000591MA1999999092951MD1210431+9999OA149900881REMSYN082AAXX  01174 06616 23/// /2607 11001 21013 39295 40009 52043 333 69955 91117 91209;
0170066160999992010010118004+47433+006950FM-12+059799999V0202601N004119999999N9999999N1-00041-00161100241ADDAA112006191KA1120M+00381MA1999999093091MD1210421+9999OA149901031REMSYN094AAXX  01184 06616 03/// /2608 11004 21016 39309 40024 52042 60062 333 10038 69925 91120 91210;
0145066160999992010010119004+47433+006950FM-12+059799999V0202801N005119999999N9999999N1-00111-00211100401ADDAA101000021MA1999999093221MD1210421+9999OA149901081REMSYN082AAXX  01194 06616 23/// /2810 11011 21021 39322 40040 52042 333 69915 91121 91213;
0128066160999992010010120004+47433+006950FM-12+059799999V0202701N005119999999N9999999N1-00171-00271100571ADDMA1999999093361MD1210411+9999OA149901181REMSYN076AAXX  01204 06616 33/// /2710 11017 21027 39336 40057 52041 333 91123 91213;
0128066160999992010010121004+47433+006950FM-12+059799999V0202701N005119999999N9999999N1-00201-00331100721ADDMA1999999093491MD1210401+9999OA149901181REMSYN076AAXX  01214 06616 33/// /2710 11020 21033 39349 40072 52040 333 91123 91213;
0128066160999992010010122004+47433+006950FM-12+059799999V0202701N005119999999N9999999N1-00231-00391100831ADDMA1999999093581MD1210361+9999OA149901181REMSYN076AAXX  01224 06616 33/// /2710 11023 21039 39358 40083 52036 333 91123 91212;
0128066160999992010010123004+47433+006950FM-12+059799999V0202701N004619999999N9999999N1-00221-00381100921ADDMA1999999093671MD1110311+9999OA149901131REMSYN076AAXX  01234 06616 33/// /2709 11022 21038 39367 40092 51031 333 91122 91212;
0170066160999992010010200004+47433+006950FM-12+059799999V0202701N004619999999N9999999N1-00251-00411101001ADDAA106000091MA1999999093741MD1110251+9999OA149901181REMSYN088AAXX  02004 06616 03/// /2709 11025 21041 39374 40100 51025 69921 333 69915 91123 91213;EQDQ01  00002PRCP06
0128066160999992010010201004+47433+006950FM-12+059799999V0202701N004619999999N9999999N1-00281-00501101111ADDMA1999999093831MD1310251+9999OA149901031REMSYN076AAXX  02014 06616 33/// /2709 11028 21050 39383 40111 53025 333 91120 91211;
0108066160999992010010202004+47433+006950FM-12+059799999V0202701N003619999999N9999999N1-00291-00431101241ADDAA101000591MA1999999093951REMSYN070AAXX  02024 06616 23/// /2707 11029 21043 39395 40124 5//// 333 69955;
0145066160999992010010203004+47433+006950FM-12+059799999V0202801N004119999999N9999999N1-00301-00471101351ADDAA101000021MA1999999094051MD1310311+9999OA149901131REMSYN082AAXX  02034 06616 23/// /2808 11030 21047 39405 40135 53031 333 69925 91122 91212;
0145066160999992010010204004+47433+006950FM-12+059799999V0202701N003619999999N9999999N1-00341-00541101431ADDAA101000021MA1999999094111MD1110281+9999OA149900821REMSYN082AAXX  02044 06616 23/// /2707 11034 21054 39411 40143 51028 333 69925 91116 91208;
0128066160999992010010205004+47433+006950FM-12+059799999V0202801N002119999999N9999999N1-00361-00541101531ADDMA1999999094201MD1110251+9999OA149900821REMSYN076AAXX  02054 06616 33/// /2804 11036 21054 39420 40153 51025 333 91116 91207;
0229066160999992010010206004+47433+006950FM-12+059799999V0203001N004619999999N9999999N1-00371-00561101591ADDAA112001091AA224007491AL11800791GJ100009IA2999-00309KA1999N-00371MA1999999094251MD1110201+9999OA149901181REMSYN112AAXX  02064 06616 03/// /3009 11037 21056 39425 40159 51020 60012 333 21037 3/103 55000 60005 70073 91123 91213;
0128066160999992010010207004+47433+006950FM-12+059799999V0202701N002119999999N9999999N1-00421-00601101721ADDMA1999999094361MD1310251+9999OA149900881REMSYN076AAXX  02074 06616 33/// /2704 11042 21060 39436 40172 53025 333 91117 91209;
0087066160999992010010208004+47433+006950FM-12+059799999V0202601N002619999999N9999999N1-00441-00641101831ADDMA1999999094461REMSYN060AAXX  02084 06616 33/// /2605 11044 21064 39446 40183 5////;
0128066160999992010010209004+47433+006950FM-12+059799999V0202501N001519999999N9999999N1-00441-00641101941ADDMA1999999094561MD1210311+9999OA149900881REMSYN076AAXX  02094 06616 33/// /2503 11044 21064 39456 40194 52031 333 91117 91209;
0128066160999992010010210004+47433+006950FM-12+059799999V0202501N001519999999N9999999N1-00401-00681102031ADDMA1999999094651MD1210291+9999OA149900411REMSYN076AAXX  02104 06616 33/// /2503 11040 21068 39465 40203 52029 333 91108 91205;
0128066160999992010010211004+47433+006950FM-12+059799999V0202701N003119999999N9999999N1-00361-00641102011ADDMA1999999094641MD1210181+9999OA149900511REMSYN076AAXX  02114 06616 33/// /2706 11036 21064 39464 40201 52018 333 91110 91206;
0128066160999992010010212004+47433+006950FM-12+059799999V0202701N002619999999N9999999N1-00311-00671102071ADDMA1999999094711MD1210151+9999OA149901031REMSYN076AAXX  02124 06616 33/// /2705 11031 21067 39471 40207 52015 333 91120 91211;
0128066160999992010010213004+47433+006950FM-12+059799999V0202601N002119999999N9999999N1-00371-00691102161ADDMA1999999094781MD1210131+9999OA149900621REMSYN076AAXX  02134 06616 33/// /2604 11037 21069 39478 40216 52013 333 91112 91206;
0128066160999992010010214004+47433+006950FM-12+059799999V0202501N002119999999N9999999N1-00371-00621102191ADDMA1999999094811MD1219999+9999OA149900621REMSYN076AAXX  02144 06616 33/// /2504 11037 21062 39481 40219 52/// 333 91112 91206;
0128066160999992010010215004+47433+006950FM-12+059799999V0202301N002619999999N9999999N1-00361-00661102261ADDMA1999999094881MD1210171+9999OA149900621REMSYN076AAXX  02154 06616 33/// /2305 11036 21066 39488 40226 52017 333 91112 91206;
0128066160999992010010216004+47433+006950FM-12+059799999V0202301N001519999999N9999999N1-00581-00801102391ADDMA1999999094941MD1210161+9999OA149900511REMSYN076AAXX  02164 06616 33/// /2303 11058 21080 39494 40239 52016 333 91110 91205;
0128066160999992010010217004+47433+006950FM-12+059799999V0202201N001019999999N9999999N1-00631-00821102461ADDMA1999999094991MD1210181+9999OA149900411REMSYN076AAXX  02174 06616 33/// /2202 11063 21082 39499 40246 52018 333 91108 91205;
0147066160999992010010218004+47433+006950FM-12+059799999V0201901N002119999999N9999999N1-00561-00801102451ADDKA1120M-00241MA1999999095001MD1210121+9999OA149900721REMSYN082AAXX  02184 06616 33/// /1904 11056 21080 39500 40245 52012 333 11024 91114 91207;
0128066160999992010010219004+47433+006950FM-12+059799999V0201901N002619999999N9999999N1-00611-00911102501ADDMA1999999095031MD1210091+9999OA149900411REMSYN076AAXX  02194 06616 33/// /1905 11061 21091 39503 40250 52009 333 91108 91205;
0128066160999992010010220004+47433+006950FM-12+059799999V0201901N001519999999N9999999N1-00641-00921102491ADDMA1999999095011MD1210021+9999OA149900411REMSYN076AAXX  02204 06616 33/// /1903 11064 21092 39501 40249 52002 333 91108 91205;
0128066160999992010010221004+47433+006950FM-12+059799999V0202001N002119999999N9999999N1-00661-00991102481ADDMA1999999095001MD1710031+9999OA149900411REMSYN076AAXX  02214 06616 33/// /2004 11066 21099 39500 40248 57000 333 91108 91205;
0128066160999992010010222004+47433+006950FM-12+059799999V0202001N002619999999N9999999N1-00751-01041102541ADDMA1999999095031MD1210041+9999OA149900411REMSYN076AAXX  02224 06616 33/// /2005 11075 21104 39503 40254 52000 333 91108 91205;
0128066160999992010010223004+47433+006950FM-12+059799999V0202001N003119999999N9999999N1-00691-01161102541ADDMA1999999095051MD1210041+9999OA149900511REMSYN076AAXX  02234 06616 33/// /2006 11069 21116 39505 40254 52004 333 91110 91206;
0128066160999992010010300004+47433+006950FM-12+059799999V0202101N003119999999N9999999N1-00751-01061102531ADDMA1999999095021MD1010021+9999OA149900621REMSYN076AAXX  03004 06616 33/// /2106 11075 21106 39502 40253 50002 333 91112 91208;
0128066160999992010010301004+47433+006950FM-12+059799999V0202001N003119999999N9999999N1-00751-01311102511ADDMA1999999095001MD1710031+9999OA149900621REMSYN076AAXX  03014 06616 33/// /2006 11075 21131 39500 40251 57003 333 91112 91208;
0087066160999992010010302004+47433+006950FM-12+059799999V0202001N002619999999N9999999N1-00741-01261102531ADDMA1999999095021REMSYN060AAXX  03024 06616 33/// /2005 11074 21126 39502 40253 5////;
0087066160999992010010303004+47433+006950FM-12+059799999V0202001N002619999999N9999999N1-00711-01021102491ADDMA1999999094991REMSYN060AAXX  03034 06616 33/// /2005 11071 21102 39499 40249 5////;
0128066160999992010010304004+47433+006950FM-12+059799999V0202001N003119999999N9999999N1-00691-01031102461ADDMA1999999094971MD1710031+9999OA149900461REMSYN076AAXX  03044 06616 33/// /2006 11069 21103 39497 40246 57003 333 91109 91207;
0128066160999992010010305004+47433+006950FM-12+059799999V0201901N001519999999N9999999N1-00651-01001102411ADDMA1999999094941MD1719999+9999OA149900411REMSYN076AAXX  03054 06616 33/// /1903 11065 21100 39494 40241 57/// 333 91108 91206;
0225066160999992010010306004+47433+006950FM-12+059799999V0202001N002119999999N9999999N1-00681-01011102361ADDAA124000091AL19900091GJ101569IA2999-01209KA1999N-00781MA1999999094881MD1710111+9999OA149900621REMSYN100AAXX  03064 06616 33/// /2004 11068 21101 39488 40236 57011 333 21078 3/112 55026 70000 91112 91208;EQDQ01  00002PRCP24
0128066160999992010010307004+47433+006950FM-12+059799999V0201901N001519999999N9999999N1-00631-00981102351ADDMA1999999094891MD1710081+9999OA149900311REMSYN076AAXX  03074 06616 33/// /1903 11063 21098 39489 40235 57008 333 91106 91204;
0128066160999992010010308004+47433+006950FM-12+059799999V0201401N000519999999N9999999N1-00691-01151102401ADDMA1999999094921MD1519999+9999OA149900311REMSYN076AAXX  03084 06616 33/// /1401 11069 21115 39492 40240 55/// 333 91106 91204;
0128066160999992010010309004+47433+006950FM-12+059799999V0202001N002119999999N9999999N1-00581-00941102391ADDMA1999999094941MD1210061+9999OA149900411REMSYN076AAXX  03094 06616 33/// /2004 11058 21094 39494 40239 52006 333 91108 91206;
0128066160999992010010310004+47433+006950FM-12+059799999V0200901N000519999999N9999999N1-00411-00811102311ADDMA1999999094911MD1010021+9999OA149900261REMSYN076AAXX  03104 06616 33/// /0901 11041 21081 39491 40231 50002 333 91105 91204;
0128066160999992010010311004+47433+006950FM-12+059799999V0201701N001519999999N9999999N1-00321-00771102241ADDMA1999999094871MD1810051+9999OA149900261REMSYN076AAXX  03114 06616 33/// /1703 11032 21077 39487 40224 58005 333 91105 91204;
0128066160999992010010312004+47433+006950FM-12+059799999V0202101N000519999999N9999999N1-00231-00801102171ADDMA1999999094831MD1710111+9999OA149900461REMSYN076AAXX  03124 06616 33/// /2101 11023 21080 39483 40217 57011 333 91109 91207;
0128066160999992010010313004+47433+006950FM-12+059799999V0201501N000519999999N9999999N1-00191-00771102111ADDMA1999999094781MD1710131+9999OA149900151REMSYN076AAXX  03134 06616 33/// /1501 11019 21077 39478 40211 57013 333 91103 91202;
0128066160999992010010314004+47433+006950FM-12+059799999V0209999C000019999999N9999999N1-00161-00721102091ADDMA1999999094771MD1610101+9999OA149900151REMSYN076AAXX  03144 06616 33/// /0000 11016 21072 39477 40209 56010 333 91103 91202;
0128066160999992010010315004+47433+006950FM-12+059799999V0201501N000519999999N9999999N1-00211-00681102101ADDMA1999999094771MD1710061+9999OA149900261REMSYN076AAXX  03154 06616 33/// /1501 11021 21068 39477 40210 57006 333 91105 91204;
0128066160999992010010316004+47433+006950FM-12+059799999V0201401N001019999999N9999999N1-00411-00711102111ADDMA1999999094721MD1810061+9999OA149900151REMSYN076AAXX  03164 06616 33/// /1402 11041 21071 39472 40211 58006 333 91103 91202;
0128066160999992010010317004+47433+006950FM-12+059799999V0200601N001519999999N9999999N1-00471-00641102091ADDMA1999999094691MD1710081+9999OA149900151REMSYN076AAXX  03174 06616 33/// /0603 11047 21064 39469 40209 57008 333 91103 91203;
0147066160999992010010318004+47433+006950FM-12+059799999V0201101N001019999999N9999999N1-00501-00781102121ADDKA1120M-00151MA1999999094711MD1510061+9999OA149900311REMSYN082AAXX  03184 06616 33/// /1102 11050 21078 39471 40212 55006 333 11015 91106 91204;
0128066160999992010010319004+47433+006950FM-12+059799999V0201201N001519999999N9999999N1-00711-00821102141ADDMA1999999094671MD1710051+9999OA149900261REMSYN076AAXX  03194 06616 33/// /1203 11071 21082 39467 40214 57005 333 91105 91203;
0128066160999992010010320004+47433+006950FM-12+059799999V0201201N001519999999N9999999N1-00721-00871102091ADDMA1999999094621MD1710071+9999OA149900261REMSYN076AAXX  03204 06616 33/// /1203 11072 21087 39462 40209 57007 333 91105 91203;
0128066160999992010010321004+47433+006950FM-12+059799999V0201101N001519999999N9999999N1-00691-00871102071ADDMA1999999094611MD1710101+9999OA149900261REMSYN076AAXX  03214 06616 33/// /1103 11069 21087 39461 40207 57010 333 91105 91203;
0128066160999992010010322004+47433+006950FM-12+059799999V0201101N001519999999N9999999N1-00731-00881102051ADDMA1999999094581MD1710091+9999OA149900211REMSYN076AAXX  03224 06616 33/// /1103 11073 21088 39458 40205 57009 333 91104 91204;
0128066160999992010010323004+47433+006950FM-12+059799999V0201201N002119999999N9999999N1-00661-00891102001ADDMA1999999094551MD1710071+9999OA149900261REMSYN076AAXX  03234 06616 33/// /1204 11066 21089 39455 40200 57007 333 91105 91204;
0128066160999992010010400004+47433+006950FM-12+059799999V0201301N001519999999N9999999N1-00801-00991101961ADDMA1999999094481MD1810131+9999OA149900261REMSYN076AAXX  04004 06616 33/// /1303 11080 21099 39448 40196 58013 333 91105 91204;
0128066160999992010010401004+47433+006950FM-12+059799999V0201001N002119999999N9999999N1-00911-01061101931ADDMA1999999094421MD1610161+9999OA149900261REMSYN076AAXX  04014 06616 33/// /1004 11091 21106 39442 40193 56016 333 91105 91204;
0128066160999992010010402004+47433+006950FM-12+059799999V0200801N002119999999N9999999N1-00731-00941101871ADDMA1999999094411MD1710141+9999OA149900361REMSYN076AAXX  04024 06616 33/// /0804 11073 21094 39441 40187 57014 333 91107 91205;
0128066160999992010010403004+47433+006950FM-12+059799999V0201001N002119999999N9999999N1-00751-01061101831ADDMA1999999094371MD1719999+9999OA149900361REMSYN076AAXX  04034 06616 33/// /1004 11075 21106 39437 40183 57/// 333 91107 91205;
0128066160999992010010404004+47433+006950FM-12+059799999V0200801N002619999999N9999999N1-00611-01131101731ADDMA1999999094321MD1710101+9999OA149900461REMSYN076AAXX  04044 06616 33/// /0805 11061 21113 39432 40173 57010 333 91109 91205;
0128066160999992010010405004+47433+006950FM-12+059799999V0200901N002619999999N9999999N1-00771-01021101791ADDMA1999999094331MD1710081+9999OA149900461REMSYN076AAXX  04054 06616 33/// /0905 11077 21102 39433 40179 57008 333 91109 91206;
0225066160999992010010406004+47433+006950FM-12+059799999V0201001N003619999999N9999999N1-00881-01071101841ADDAA124000091AL19900091GJ104209IA2999-01209KA1999N-00951MA1999999094351MD1510021+9999OA149900511REMSYN100AAXX  04064 06616 33/// /1007 11088 21107 39435 40184 55002 333 21095 3/112 55070 70000 91110 91207;EQDQ01  00002PRCP24
0128066160999992010010407004+47433+006950FM-12+059799999V0200901N003619999999N9999999N1-00731-00941101771ADDMA1999999094321MD1010001+9999OA149900571REMSYN076AAXX  04074 06616 33/// /0907 11073 21094 39432 40177 50000 333 91111 91207;
0128066160999992010010408004+47433+006950FM-12+059799999V0200801N002619999999N9999999N1-00701-00901101761ADDMA1999999094321MD1710011+9999OA149900571REMSYN076AAXX  04084 06616 33/// /0805 11070 21090 39432 40176 57001 333 91111 91207;
0163066160999992010010409004+47433+006950FM-12+059799999V0200801N003619999999N9999999N1-00651-00761101781ADDMA1999999094351MD1710061+9999OA149900621REMSYN076AAXX  04094 06616 33/// /0807 11065 21076 39435 40178 53000 333 91112 91208;EQDQ01+000032APCTENQ02+000002APC3  
0128066160999992010010410004+47433+006950FM-12+059799999V0200801N002619999999N9999999N1-00611-00711101741ADDMA1999999094331MD1010011+9999OA149900671REMSYN076AAXX  04104 06616 33/// /0805 11061 21071 39433 40174 50001 333 91113 91209;
0128066160999992010010411004+47433+006950FM-12+059799999V0200701N002619999999N9999999N1-00531-00691101661ADDMA1999999094271MD1810051+9999OA149900671REMSYN076AAXX  04114 06616 33/// /0705 11053 21069 39427 40166 58005 333 91113 91209;
0128066160999992010010412004+47433+006950FM-12+059799999V0200801N003119999999N9999999N1-00591-00791101601ADDMA1999999094201MD1810151+9999OA149900671REMSYN076AAXX  04124 06616 33/// /0806 11059 21079 39420 40160 58015 333 91113 91209;
0128066160999992010010413004+47433+006950FM-12+059799999V0200801N003619999999N9999999N1-00571-00711101541ADDMA1999999094151MD1610181+9999OA149900671REMSYN076AAXX  04134 06616 33/// /0807 11057 21071 39415 40154 56018 333 91113 91207;
0128066160999992010010414004+47433+006950FM-12+059799999V0200701N002619999999N9999999N1-00551-00671101491ADDMA1999999094111MD1619999+9999OA149900671REMSYN076AAXX  04144 06616 33/// /0705 11055 21067 39411 40149 56/// 333 91113 91207;
0128066160999992010010415004+47433+006950FM-12+059799999V0200801N002119999999N9999999N1-00561-00711101491ADDMA1999999094111MD1710091+9999OA149900671REMSYN076AAXX  04154 06616 33/// /0804 11056 21071 39411 40149 57009 333 91113 91209;
0128066160999992010010416004+47433+006950FM-12+059799999V0200601N003119999999N9999999N1-00601-00751101501ADDMA1999999094111MD1710041+9999OA149900621REMSYN076AAXX  04164 06616 33/// /0606 11060 21075 39411 40150 57004 333 91112 91208;
0128066160999992010010417004+47433+006950FM-12+059799999V0200901N003119999999N9999999N1-00601-00771101501ADDMA1999999094111MD1010001+9999OA149900571REMSYN076AAXX  04174 06616 33/// /0906 11060 21077 39411 40150 50000 333 91111 91207;
0147066160999992010010418004+47433+006950FM-12+059799999V0200801N003119999999N9999999N1-00611-00771101481ADDKA1120M-00491MA1999999094091MD1710021+9999OA149900671REMSYN082AAXX  04184 06616 33/// /0806 11061 21077 39409 40148 57002 333 11049 91113 91209;
0128066160999992010010419004+47433+006950FM-12+059799999V0200901N003619999999N9999999N1-00631-00811101481ADDMA1999999094081MD1610031+9999OA149900671REMSYN076AAXX  04194 06616 33/// /0907 11063 21081 39408 40148 56003 333 91113 91207;
0128066160999992010010420004+47433+006950FM-12+059799999V0200801N003119999999N9999999N1-00621-00781101441ADDMA1999999094051MD1810061+9999OA149900721REMSYN076AAXX  04204 06616 33/// /0806 11062 21078 39405 40144 58006 333 91114 91207;
0128066160999992010010421004+47433+006950FM-12+059799999V0200801N002619999999N9999999N1-00621-00801101401ADDMA1999999094011MD1810081+9999OA149900721REMSYN076AAXX  04214 06616 33/// /0805 11062 21080 39401 40140 58008 333 91114 91208;
0128066160999992010010422004+47433+006950FM-12+059799999V0200801N002119999999N9999999N1-00611-00801101381ADDMA1999999093991MD1610091+9999OA149900721REMSYN076AAXX  04224 06616 33/// /0804 11061 21080 39399 40138 56009 333 91114 91208;
0128066160999992010010423004+47433+006950FM-12+059799999V0200901N002619999999N9999999N1-00631-00811101331ADDMA1999999093941MD1810111+9999OA149900621REMSYN076AAXX  04234 06616 33/// /0905 11063 21081 39394 40133 58011 333 91112 91207;
0128066160999992010010500004+47433+006950FM-12+059799999V0200901N002619999999N9999999N1-00651-00841101271ADDMA1999999093881MD1810131+9999OA149900721REMSYN076AAXX  05004 06616 33/// /0905 11065 21084 39388 40127 58013 333 91114 91208;
0128066160999992010010501004+47433+006950FM-12+059799999V0200901N003119999999N9999999N1-00651-00841101211ADDMA1999999093821MD1710171+9999OA149900671REMSYN076AAXX  05014 06616 33/// /0906 11065 21084 39382 40121 57017 333 91113 91208;
0128066160999992010010502004+47433+006950FM-12+059799999V0200901N002619999999N9999999N1-00631-00821101161ADDMA1999999093781MD1710161+9999OA149900821REMSYN076AAXX  05024 06616 33/// /0905 11063 21082 39378 40116 57016 333 91116 91208;
0128066160999992010010503004+47433+006950FM-12+059799999V0200801N004119999999N9999999N1-00651-00821101101ADDMA1999999093721MD1610161+9999OA149900821REMSYN076AAXX  05034 06616 33/// /0808 11065 21082 39372 40110 56016 333 91116 91208;
0128066160999992010010504004+47433+006950FM-12+059799999V0200801N004619999999N9999999N1-00691-00871101011ADDMA1999999093631MD1810191+9999OA149900821REMSYN076AAXX  05044 06616 33/// /0809 11069 21087 39363 40101 58019 333 91116 91210;
0128066160999992010010505004+47433+006950FM-12+059799999V0200901N004119999999N9999999N1-00701-00891100951ADDMA1999999093571MD1610211+9999OA149900821REMSYN076AAXX  05054 06616 33/// /0908 11070 21089 39357 40095 56021 333 91116 91210;
0225066160999992010010506004+47433+006950FM-12+059799999V0200801N005119999999N9999999N1-00701-00861100901ADDAA124000091AL19900091GJ100069IA2999-00809KA1999N-00711MA1999999093521MD1610201+9999OA149900881REMSYN100AAXX  05064 06616 33/// /0810 11070 21086 39352 40090 56020 333 21071 3/108 55001 70000 91117 91210;EQDQ01  00002PRCP24
0128066160999992010010507004+47433+006950FM-12+059799999V0200801N004119999999N9999999N1-00741-00891100861ADDMA1999999093481MD1710151+9999OA149900881REMSYN076AAXX  05074 06616 33/// /0808 11074 21089 39348 40086 57015 333 91117 91210;
0128066160999992010010508004+47433+006950FM-12+059799999V0200801N005119999999N9999999N1-00731-00891100841ADDMA1999999093461MD1710111+9999OA149900881REMSYN076AAXX  05084 06616 33/// /0810 11073 21089 39346 40084 57011 333 91117 91210;
0128066160999992010010509004+47433+006950FM-12+059799999V0200801N003619999999N9999999N1-00711-00891100811ADDMA1999999093441MD1710081+9999OA149900881REMSYN076AAXX  05094 06616 33/// /0807 11071 21089 39344 40081 57008 333 91117 91210;
0128066160999992010010510004+47433+006950FM-12+059799999V0200801N003619999999N9999999N1-00661-00851100741ADDMA1999999093391MD1710091+9999OA149900821REMSYN076AAXX  05104 06616 33/// /0807 11066 21085 39339 40074 57009 333 91116 91210;
0128066160999992010010511004+47433+006950FM-12+059799999V0200801N003619999999N9999999N1-00581-00801100671ADDMA1999999093341MD1810121+9999OA149900771REMSYN076AAXX  05114 06616 33/// /0807 11058 21080 39334 40067 58012 333 91115 91209;
0128066160999992010010512004+47433+006950FM-12+059799999V0200801N003619999999N9999999N1-00581-00801100561ADDMA1999999093241MD1810201+9999OA149900881REMSYN076AAXX  05124 06616 33/// /0807 11058 21080 39324 40056 58020 333 91117 91210;
0128066160999992010010513004+47433+006950FM-12+059799999V0200801N002119999999N9999999N1-00521-00761100441ADDMA1999999093151MD1810241+9999OA149900671REMSYN076AAXX  05134 06616 33/// /0804 11052 21076 39315 40044 58024 333 91113 91208;
0087066160999992010010514004+47433+006950FM-12+059799999V0200801N003119999999N9999999N1-00471-00711100411ADDMA1999999093131REMSYN060AAXX  05144 06616 33/// /0806 11047 21071 39313 40041 5////;
0128066160999992010010515004+47433+006950FM-12+059799999V0200701N003619999999N9999999N1-00511-00681100401ADDMA1999999093111MD1710131+9999OA149900771REMSYN076AAXX  05154 06616 33/// /0707 11051 21068 39311 40040 57013 333 91115 91209;
0128066160999992010010516004+47433+006950FM-12+059799999V0200801N002619999999N9999999N1-00511-00701100381ADDMA1999999093091MD1710061+9999OA149900671REMSYN076AAXX  05164 06616 33/// /0805 11051 21070 39309 40038 57006 333 91113 91208;
0128066160999992010010517004+47433+006950FM-12+059799999V0200801N003119999999N9999999N1-00531-00711100361ADDMA1999999093071MD1710061+9999OA149900671REMSYN076AAXX  05174 06616 33/// /0806 11053 21071 39307 40036 57006 333 91113 91207;
0147066160999992010010518004+47433+006950FM-12+059799999V0200801N004119999999N9999999N1-00521-00711100341ADDKA1120M-00461MA1999999093051MD1610061+9999OA149900881REMSYN082AAXX  05184 06616 33/// /0808 11052 21071 39305 40034 56006 333 11046 91117 91210;
0128066160999992010010519004+47433+006950FM-12+059799999V0200801N003619999999N9999999N1-00531-00701100331ADDMA1999999093041MD1710051+9999OA149900671REMSYN076AAXX  05194 06616 33/// /0807 11053 21070 39304 40033 57005 333 91113 91208;
0128066160999992010010520004+47433+006950FM-12+059799999V0200701N003119999999N9999999N1-00541-00701100291ADDMA1999999093001MD1710071+9999OA149900671REMSYN076AAXX  05204 06616 33/// /0706 11054 21070 39300 40029 57007 333 91113 91208;
0128066160999992010010521004+47433+006950FM-12+059799999V0200801N002619999999N9999999N1-00541-00701100261ADDMA1999999092971MD1710081+9999OA149900671REMSYN076AAXX  05214 06616 33/// /0805 11054 21070 39297 40026 57008 333 91113 91208;
0128066160999992010010522004+47433+006950FM-12+059799999V0200701N003119999999N9999999N1-00531-00691100231ADDMA1999999092951MD1710091+9999OA149900621REMSYN076AAXX  05224 06616 33/// /0706 11053 21069 39295 40023 57009 333 91112 91207;
0128066160999992010010523004+47433+006950FM-12+059799999V0200701N002119999999N9999999N1-00531-00691100231ADDMA1999999092951MD1710051+9999OA149900571REMSYN076AAXX  05234 06616 33/// /0704 11053 21069 39295 40023 57005 333 91111 91207;
0128066160999992010010600004+47433+006950FM-12+059799999V0200801N002119999999N9999999N1-00531-00681100191ADDMA1999999092911MD1710061+9999OA149900671REMSYN076AAXX  06004 06616 33/// /0804 11053 21068 39291 40019 57006 333 91113 91208;
0145066160999992010010601004+47433+006950FM-12+059799999V0203401N000519999999N9999999N1-00551-00691100211ADDAA101000021MA1999999092921MD1710031+9999OA149900411REMSYN082AAXX  06014 06616 23/// /3401 11055 21069 39292 40021 57003 333 69915 91108 91205;
0145066160999992010010602004+47433+006950FM-12+059799999V0202601N000519999999N9999999N1-00531-00681100281ADDAA101000021MA1999999092991MD1310041+9999OA149900261REMSYN082AAXX  06024 06616 23/// /2601 11053 21068 39299 40028 53004 333 69925 91105 91203;
0145066160999992010010603004+47433+006950FM-12+059799999V0202601N001519999999N9999999N1-00531-00651100281ADDAA101000021MA1999999092991MD1210081+9999OA149900571REMSYN082AAXX  06034 06616 23/// /2603 11053 21065 39299 40028 52008 333 69915 91111 91207;
0128066160999992010010604004+47433+006950FM-12+059799999V0202801N001519999999N9999999N1-00501-00641100271ADDMA1999999092991MD1210071+9999OA149900311REMSYN076AAXX  06044 06616 33/// /2803 11050 21064 39299 40027 52007 333 91106 91204;
0128066160999992010010605004+47433+006950FM-12+059799999V0202701N001519999999N9999999N1-00491-00621100291ADDMA1999999093011MD1210021+9999OA149900361REMSYN076AAXX  06054 06616 33/// /2703 11049 21062 39301 40029 52002 333 91107 91204;
0229066160999992010010606004+47433+006950FM-12+059799999V0202801N002119999999N9999999N1-00471-00601100291ADDAA112000591AA224000591AL13000091GJ100069IA2999-00609KA1999N-00571MA1999999093021MD1210031+9999OA149900671REMSYN112AAXX  06064 06616 03/// /2804 11047 21060 39302 40029 52003 69952 333 21057 3/106 55001 69915 70005 91113 91208;
0128066160999992010010607004+47433+006950FM-12+059799999V0202601N002619999999N9999999N1-00441-00581100321ADDMA1999999093061MD1210071+9999OA149900461REMSYN076AAXX  06074 06616 33/// /2605 11044 21058 39306 40032 52007 333 91109 91205;
0128066160999992010010608004+47433+006950FM-12+059799999V0202701N001519999999N9999999N1-00461-00561100361ADDMA1999999093091MD1210081+9999OA149900461REMSYN076AAXX  06084 06616 33/// /2703 11046 21056 39309 40036 52008 333 91109 91205;
0128066160999992010010609004+47433+006950FM-12+059799999V0202901N001019999999N9999999N1-00441-00551100401ADDMA1999999093131MD1310111+9999OA149900461REMSYN076AAXX  06094 06616 33/// /2902 11044 21055 39313 40040 53011 333 91109 91205;
0128066160999992010010610004+47433+006950FM-12+059799999V0202801N001519999999N9999999N1-00431-00521100431ADDMA1999999093161MD1110101+9999OA149900261REMSYN076AAXX  06104 06616 33/// /2803 11043 21052 39316 40043 51010 333 91105 91203;
0128066160999992010010611004+47433+006950FM-12+059799999V0202401N001019999999N9999999N1-00421-00531100411ADDMA1999999093141MD1019999+9999OA149900261REMSYN076AAXX  06114 06616 33/// /2402 11042 21053 39314 40041 50/// 333 91105 91203;
0128066160999992010010612004+47433+006950FM-12+059799999V0202901N001519999999N9999999N1-00381-00521100371ADDMA1999999093121MD1810011+9999OA149900461REMSYN076AAXX  06124 06616 33/// /2903 11038 21052 39312 40037 58001 333 91109 91205;
0128066160999992010010613004+47433+006950FM-12+059799999V0202901N001519999999N9999999N1-00381-00521100391ADDMA1999999093141MD1510021+9999OA149900361REMSYN076AAXX  06134 06616 33/// /2903 11038 21052 39314 40039 55002 333 91107 91204;
0128066160999992010010614004+47433+006950FM-12+059799999V0202801N001519999999N9999999N1-00411-00561100401ADDMA1999999093141MD1319999+9999OA149900361REMSYN076AAXX  06144 06616 33/// /2803 11041 21056 39314 40040 53/// 333 91107 91204;
0128066160999992010010615004+47433+006950FM-12+059799999V0203101N001519999999N9999999N1-00421-00591100441ADDMA1999999093171MD1219999+9999OA149900361REMSYN076AAXX  06154 06616 33/// /3103 11042 21059 39317 40044 52/// 333 91107 91204;
0128066160999992010010616004+47433+006950FM-12+059799999V0200501N000519999999N9999999N1-00531-00641100501ADDMA1999999093201MD1210061+9999OA149900261REMSYN076AAXX  06164 06616 33/// /0501 11053 21064 39320 40050 52006 333 91105 91203;
0128066160999992010010617004+47433+006950FM-12+059799999V0209999C000019999999N9999999N1-00511-00631100551ADDMA1999999093251MD1310111+9999OA149900151REMSYN076AAXX  06174 06616 33/// /0000 11051 21063 39325 40055 53011 333 91103 91203;
0147066160999992010010618004+47433+006950FM-12+059799999V0201101N000519999999N9999999N1-00541-00671100571ADDKA1120M-00351MA1999999093261MD1119999+9999OA149900461REMSYN082AAXX  06184 06616 33/// /1101 11054 21067 39326 40057 51/// 333 11035 91109 91205;
0128066160999992010010619004+47433+006950FM-12+059799999V0202601N000519999999N9999999N1-00531-00661100631ADDMA1999999093321MD1210121+9999OA149900151REMSYN076AAXX  06194 06616 33/// /2601 11053 21066 39332 40063 52012 333 91103 91201;
0145066160999992010010620004+47433+006950FM-12+059799999V0202101N000519999999N9999999N1-00481-00631100661ADDAA101000021MA1999999093361MD1210111+9999OA149900101REMSYN082AAXX  06204 06616 23/// /2101 11048 21063 39336 40066 52011 333 69915 91102 91202;
0145066160999992010010621004+47433+006950FM-12+059799999V0202001N000519999999N9999999N1-00511-00621100691ADDAA101000391MA1999999093381MD1210121+9999OA149900151REMSYN082AAXX  06214 06616 23/// /2001 11051 21062 39338 40069 52012 333 69935 91103 91203;
0128066160999992010010622004+47433+006950FM-12+059799999V0202301N001019999999N9999999N1-00421-00641100691ADDMA1999999093401MD1210081+9999OA149900261REMSYN076AAXX  06224 06616 33/// /2302 11042 21064 39340 40069 52008 333 91105 91203;
0128066160999992010010623004+47433+006950FM-12+059799999V0202201N001519999999N9999999N1-00381-00621100691ADDMA1999999093411MD1210051+9999OA149900311REMSYN076AAXX  06234 06616 33/// /2203 11038 21062 39341 40069 52005 333 91106 91203;
0151066160999992010010700004+47433+006950FM-12+059799999V0202301N001019999999N9999999N1-00401-00641100701ADDAA106000591MA1999999093421MD1210041+9999OA149900361REMSYN088AAXX  07004 06616 03/// /2302 11040 21064 39342 40070 52004 69941 333 60005 91107 91204;
0128066160999992010010701004+47433+006950FM-12+059799999V0202501N000519999999N9999999N1-00451-00671100721ADDMA1999999093421MD1210021+9999OA149900261REMSYN076AAXX  07014 06616 33/// /2501 11045 21067 39342 40072 52002 333 91105 91203;
0128066160999992010010702004+47433+006950FM-12+059799999V0201501N000519999999N9999999N1-00601-00711100781ADDMA1999999093441MD1219999+9999OA149900151REMSYN076AAXX  07024 06616 33/// /1501 11060 21071 39344 40078 52/// 333 91103 91202;
0128066160999992010010703004+47433+006950FM-12+059799999V0201401N001019999999N9999999N1-00621-00761100801ADDMA1999999093451MD1310031+9999OA149900311REMSYN076AAXX  07034 06616 33/// /1402 11062 21076 39345 40080 53003 333 91106 91203;
0128066160999992010010704004+47433+006950FM-12+059799999V0201001N001019999999N9999999N1-00721-00821100801ADDMA1999999093431MD1010011+9999OA149900151REMSYN076AAXX  07044 06616 33/// /1002 11072 21082 39343 40080 50001 333 91103 91202;
0128066160999992010010705004+47433+006950FM-12+059799999V0201001N001019999999N9999999N1-00761-00861100831ADDMA1999999093441MD1010001+9999OA149900151REMSYN076AAXX  07054 06616 33/// /1002 11076 21086 39344 40083 50000 333 91103 91202;
0229066160999992010010706004+47433+006950FM-12+059799999V0201201N002119999999N9999999N1-00661-00821100801ADDAA112000591AA224000591AL12400091GJ100009IA2999-01209KA1999N-00871MA1999999093441MD1510011+9999OA149900311REMSYN112AAXX  07064 06616 03/// /1204 11066 21082 39344 40080 55001 69942 333 21087 3/112 55000 60005 70004 91106 91204;
0128066160999992010010707004+47433+006950FM-12+059799999V0200901N001519999999N9999999N1-00631-00791100831ADDMA1999999093481MD1210051+9999OA149900361REMSYN076AAXX  07074 06616 33/// /0903 11063 21079 39348 40083 52005 333 91107 91205;
0128066160999992010010708004+47433+006950FM-12+059799999V0201201N001019999999N9999999N1-00541-00711100841ADDMA1999999093511MD1319999+9999OA149900361REMSYN076AAXX  07084 06616 33/// /1202 11054 21071 39351 40084 53/// 333 91107 91205;
0128066160999992010010709004+47433+006950FM-12+059799999V0202701N000519999999N9999999N1-00371-00681100871ADDMA1999999093581MD1310141+9999OA149900361REMSYN076AAXX  07094 06616 33/// /2701 11037 21068 39358 40087 53014 333 91107 91205;
0128066160999992010010710004+47433+006950FM-12+059799999V0202001N001019999999N9999999N1-00311-00651100921ADDMA1999999093651MD1310171+9999OA149900151REMSYN076AAXX  07104 06616 33/// /2002 11031 21065 39365 40092 53017 333 91103 91202;
0128066160999992010010711004+47433+006950FM-12+059799999V0209999C000019999999N9999999N1-00251-00511100911ADDMA1999999093651MD1210141+9999OA149900151REMSYN076AAXX  07114 06616 33/// /0000 11025 21051 39365 40091 52014 333 91103 91202;
0128066160999992010010712004+47433+006950FM-12+059799999V0201101N001019999999N9999999N1-00141-00501100841ADDMA1999999093621MD1010041+9999OA149900361REMSYN076AAXX  07124 06616 33/// /1102 11014 21050 39362 40084 50004 333 91107 91205;
0128066160999992010010713004+47433+006950FM-12+059799999V0201101N001019999999N9999999N1-00141-00431100851ADDMA1999999093631MD1510021+9999OA149900211REMSYN076AAXX  07134 06616 33/// /1102 11014 21043 39363 40085 55002 333 91104 91202;
0087066160999992010010715004+47433+006950FM-12+059799999V0209999C000019999999N9999999N1-00161-00421100961ADDMA1999999093721REMSYN060AAXX  07154 06616 43/// /0000 11016 21042 39372 40096 5////;
0087066160999992010010716004+47433+006950FM-12+059799999V0201101N000519999999N9999999N1-00181-00391100991ADDMA1999999093751REMSYN060AAXX  07164 06616 33/// /1101 11018 21039 39375 40099 5/012;
0128066160999992010010717004+47433+006950FM-12+059799999V0201201N001019999999N9999999N1-00201-00421101031ADDMA1999999093781MD1119999+9999OA149900261REMSYN076AAXX  07174 06616 33/// /1202 11020 21042 39378 40103 51/// 333 91105 91204;
0147066160999992010010718004+47433+006950FM-12+059799999V0200701N000519999999N9999999N1-00231-00391101081ADDKA1120M-00121MA1999999093821MD1319999+9999OA149900361REMSYN082AAXX  07184 06616 33/// /0701 11023 21039 39382 40108 53/// 333 11012 91107 91205;
0128066160999992010010719004+47433+006950FM-12+059799999V0203201N001519999999N9999999N1-00291-00461101131ADDMA1999999093851MD1110101+9999OA149900211REMSYN076AAXX  07194 06616 33/// /3203 11029 21046 39385 40113 51010 333 91104 91203;
0128066160999992010010720004+47433+006950FM-12+059799999V0200801N001019999999N9999999N1-00341-00491101171ADDMA1999999093871MD1110091+9999OA149900211REMSYN076AAXX  07204 06616 33/// /0802 11034 21049 39387 40117 51009 333 91104 91203;
0128066160999992010010721004+47433+006950FM-12+059799999V0201201N002119999999N9999999N1-00301-00461101161ADDMA1999999093871MD1210051+9999OA149900261REMSYN076AAXX  07214 06616 33/// /1204 11030 21046 39387 40116 52005 333 91105 91204;
0128066160999992010010722004+47433+006950FM-12+059799999V0200801N001019999999N9999999N1-00351-00471101161ADDMA1999999093861MD1010011+9999OA149900261REMSYN076AAXX  07224 06616 33/// /0802 11035 21047 39386 40116 50001 333 91105 91204;
0128066160999992010010723004+47433+006950FM-12+059799999V0200601N001519999999N9999999N1-00381-00501101181ADDMA1999999093871MD1010001+9999OA149900261REMSYN076AAXX  07234 06616 33/// /0603 11038 21050 39387 40118 50000 333 91105 91204;
0128066160999992010010800004+47433+006950FM-12+059799999V0200601N003119999999N9999999N1-00331-00421101171ADDMA1999999093871MD1010001+9999OA149900511REMSYN076AAXX  08004 06616 33/// /0606 11033 21042 39387 40117 50000 333 91110 91206;
0145066160999992010010801004+47433+006950FM-12+059799999V0200701N003119999999N9999999N1-00331-00451101121ADDAA101000021MA1999999093831MD1810031+9999OA149900571REMSYN082AAXX  08014 06616 23/// /0706 11033 21045 39383 40112 58003 333 69915 91111 91206;
0145066160999992010010802004+47433+006950FM-12+059799999V0200601N003619999999N9999999N1-00351-00481101121ADDAA101000021MA1999999093821MD1719999+9999OA149900621REMSYN082AAXX  08024 06616 23/// /0607 11035 21048 39382 40112 57/// 333 69915 91112 91207;
0128066160999992010010803004+47433+006950FM-12+059799999V0200801N003619999999N9999999N1-00351-00481101081ADDMA1999999093781MD1719999+9999OA149900621REMSYN076AAXX  08034 06616 33/// /0807 11035 21048 39378 40108 57/// 333 91112 91207;
0145066160999992010010804004+47433+006950FM-12+059799999V0200801N003619999999N9999999N1-00361-00491101051ADDAA101000021MA1999999093751MD1710081+9999OA149900771REMSYN082AAXX  08044 06616 23/// /0807 11036 21049 39375 40105 57008 333 69925 91115 91207;
0128066160999992010010805004+47433+006950FM-12+059799999V0200701N004619999999N9999999N1-00381-00531101001ADDMA1999999093701MD1810121+9999OA149900771REMSYN076AAXX  08054 06616 33/// /0709 11038 21053 39370 40100 58012 333 91115 91210;
0229066160999992010010806004+47433+006950FM-12+059799999V0200801N003619999999N9999999N1-00391-00521100971ADDAA112000591AA224000591AL13000091GJ100369IA2999-00509KA1999N-00401MA1999999093671MD1610111+9999OA149900821REMSYN112AAXX  08064 06616 03/// /0807 11039 21052 39367 40097 56011 69952 333 21040 3/105 55006 69915 70005 91116 91210;
0128066160999992010010807004+47433+006950FM-12+059799999V0200701N004119999999N9999999N1-00441-00561100931ADDMA1999999093621MD1710131+9999OA149900821REMSYN076AAXX  08074 06616 33/// /0708 11044 21056 39362 40093 57013 333 91116 91210;
0145066160999992010010808004+47433+006950FM-12+059799999V0200701N004119999999N9999999N1-00461-00571100921ADDAA101000021MA1999999093611MD1710091+9999OA149901081REMSYN082AAXX  08084 06616 23/// /0708 11046 21057 39361 40092 57009 333 69915 91121 91211;
0145066160999992010010809004+47433+006950FM-12+059799999V0200701N005119999999N9999999N1-00441-00621100891ADDAA101000591MA1999999093581MD1710091+9999OA149901081REMSYN082AAXX  08094 06616 23/// /0710 11044 21062 39358 40089 57009 333 69945 91121 91211;
0145066160999992010010810004+47433+006950FM-12+059799999V0200701N005119999999N9999999N1-00421-00601100841ADDAA101000021MA1999999093541MD1710081+9999OA149900981REMSYN082AAXX  08104 06616 23/// /0710 11042 21060 39354 40084 57008 333 69925 91119 91210;
0145066160999992010010811004+47433+006950FM-12+059799999V0200601N005719999999N9999999N1-00391-00541100761ADDAA101000021MA1999999093481MD1810131+9999OA149900981REMSYN082AAXX  08114 06616 23/// /0611 11039 21054 39348 40076 58013 333 69925 91119 91211;
0151066160999992010010812004+47433+006950FM-12+059799999V0200701N006719999999N9999999N1-00401-00571100681ADDAA106001091MA1999999093401MD1810181+9999OA149901131REMSYN088AAXX  08124 06616 03/// /0713 11040 21057 39340 40068 58018 60011 333 69945 91122 91213;
0145066160999992010010813004+47433+006950FM-12+059799999V0200601N004619999999N9999999N1-00421-00581100641ADDAA101000591MA1999999093361MD1610181+9999OA149901181REMSYN082AAXX  08134 06616 23/// /0609 11042 21058 39336 40064 56018 333 69965 91123 91213;
0128066160999992010010814004+47433+006950FM-12+059799999V0200601N007219999999N9999999N1-00501-00641100641ADDMA1999999093341MD1619999+9999OA149901181REMSYN076AAXX  08144 06616 33/// /0614 11050 21064 39334 40064 56/// 333 91123 91214;
0145066160999992010010815004+47433+006950FM-12+059799999V0200701N004619999999N9999999N1-00531-00671100711ADDAA101000591MA1999999093391MD1510011+9999OA149901291REMSYN082AAXX  08154 06616 23/// /0709 11053 21067 39339 40071 55001 333 69945 91125 91214;
0145066160999992010010816004+47433+006950FM-12+059799999V0200701N006219999999N9999999N1-00591-00741100761ADDAA101000391MA1999999093421MD1210061+9999OA149901291REMSYN082AAXX  08164 06616 23/// /0712 11059 21074 39342 40076 52006 333 69935 91125 91213;
0145066160999992010010817004+47433+006950FM-12+059799999V0200801N004619999999N9999999N1-00591-00781100761ADDAA101000891MA1999999093421MD1219999+9999OA149901291REMSYN082AAXX  08174 06616 23/// /0809 11059 21078 39342 40076 52/// 333 69985 91125 91213;
0170066160999992010010818004+47433+006950FM-12+059799999V0200701N004119999999N9999999N1-00611-00781100781ADDAA112004191KA1120M-00381MA1999999093441MD1210051+9999OA149901291REMSYN094AAXX  08184 06616 03/// /0708 11061 21078 39344 40078 52005 60042 333 11038 69995 91125 91214;
0145066160999992010010819004+47433+006950FM-12+059799999V0200701N005719999999N9999999N1-00591-00771100781ADDAA101001091MA1999999093441MD1310021+9999OA149901241REMSYN082AAXX  08194 06616 23/// /0711 11059 21077 39344 40078 53002 333 60015 91124 91211;
0145066160999992010010820004+47433+006950FM-12+059799999V0200701N004619999999N9999999N1-00601-00791100801ADDAA101000891MA1999999093461MD1210041+9999OA149901241REMSYN082AAXX  08204 06616 23/// /0709 11060 21079 39346 40080 52004 333 69975 91124 91211;
0145066160999992010010821004+47433+006950FM-12+059799999V0200701N005719999999N9999999N1-00631-00811100831ADDAA101000021MA1999999093481MD1210041+9999OA149901291REMSYN082AAXX  08214 06616 23/// /0711 11063 21081 39348 40083 52004 333 69925 91125 91213;
0145066160999992010010822004+47433+006950FM-12+059799999V0200701N004119999999N9999999N1-00671-00821100871ADDAA101000021MA1999999093501MD1210061+9999OA149901081REMSYN082AAXX  08224 06616 23/// /0708 11067 21082 39350 40087 52006 333 69925 91121 91212;
0145066160999992010010823004+47433+006950FM-12+059799999V0200701N004119999999N9999999N1-00691-00861100911ADDAA101000391MA1999999093541MD1210081+9999OA149901081REMSYN082AAXX  08234 06616 23/// /0708 11069 21086 39354 40091 52008 333 69935 91121 91212;
0151066160999992010010900004+47433+006950FM-12+059799999V0200701N003619999999N9999999N1-00731-00881100891ADDAA106003091MA1999999093511MD1010031+9999OA149901291REMSYN088AAXX  09004 06616 03/// /0707 11073 21088 39351 40089 50003 60031 333 69925 91125 91214;
0128066160999992010010901004+47433+006950FM-12+059799999V0200701N004619999999N9999999N1-00741-00871100861ADDMA1999999093481MD1810021+9999OA149900981REMSYN076AAXX  09014 06616 33/// /0709 11074 21087 39348 40086 58002 333 91119 91210;
0128066160999992010010902004+47433+006950FM-12+059799999V0200801N003619999999N9999999N1-00741-00861100911ADDMA1999999093521MD1519999+9999OA149900981REMSYN076AAXX  09024 06616 33/// /0807 11074 21086 39352 40091 55/// 333 91119 91210;
0128066160999992010010903004+47433+006950FM-12+059799999V0200801N003119999999N9999999N1-00721-00851100911ADDMA1999999093531MD1219999+9999OA149901081REMSYN076AAXX  09034 06616 33/// /0806 11072 21085 39353 40091 52/// 333 91121 91212;
0128066160999992010010904004+47433+006950FM-12+059799999V0200701N004619999999N9999999N1-00731-00851100821ADDMA1999999093441MD1810041+9999OA149900981REMSYN076AAXX  09044 06616 33/// /0709 11073 21085 39344 40082 58004 333 91119 91211;
0128066160999992010010905004+47433+006950FM-12+059799999V0200701N004119999999N9999999N1-00751-00861100791ADDMA1999999093411MD1710111+9999OA149901081REMSYN076AAXX  09054 06616 33/// /0708 11075 21086 39341 40079 57011 333 91121 91211;
0229066160999992010010906004+47433+006950FM-12+059799999V0200601N004119999999N9999999N1-00761-00871100781ADDAA112003091AA224007191AL19900791GJ100009IA2999-00309KA1999N-00751MA1999999093401MD1710131+9999OA149901241REMSYN112AAXX  09064 06616 03/// /0608 11076 21087 39340 40078 57013 60032 333 21075 3/103 55000 60005 70070 91124 91212;
0128066160999992010010907004+47433+006950FM-12+059799999V0200701N003119999999N9999999N1-00771-00871100771ADDMA1999999093381MD1710061+9999OA149900821REMSYN076AAXX  09074 06616 33/// /0706 11077 21087 39338 40077 57006 333 91116 91209;
0128066160999992010010908004+47433+006950FM-12+059799999V0200601N004119999999N9999999N1-00751-00861100791ADDMA1999999093411MD1510001+9999OA149900821REMSYN076AAXX  09084 06616 33/// /0608 11075 21086 39341 40079 55000 333 91116 91209;
0128066160999992010010909004+47433+006950FM-12+059799999V0200701N002619999999N9999999N1-00751-00861100821ADDMA1999999093441MD1210041+9999OA149901081REMSYN076AAXX  09094 06616 33/// /0705 11075 21086 39344 40082 52004 333 91121 91211;
0128066160999992010010910004+47433+006950FM-12+059799999V0200701N002119999999N9999999N1-00731-00841100831ADDMA1999999093451MD1210071+9999OA149900571REMSYN076AAXX  09104 06616 33/// /0704 11073 21084 39345 40083 52007 333 91111 91206;
0128066160999992010010911004+47433+006950FM-12+059799999V0200501N002119999999N9999999N1-00711-00831100761ADDMA1999999093391MD1810021+9999OA149900571REMSYN076AAXX  09114 06616 33/// /0504 11071 21083 39339 40076 58002 333 91111 91206;
0128066160999992010010912004+47433+006950FM-12+059799999V0200601N002619999999N9999999N1-00681-00801100731ADDMA1999999093371MD1710071+9999OA149901081REMSYN076AAXX  09124 06616 33/// /0605 11068 21080 39337 40073 57007 333 91121 91211;
0128066160999992010010913004+47433+006950FM-12+059799999V0200601N001519999999N9999999N1-00691-00801100721ADDMA1999999093361MD1710091+9999OA149900621REMSYN076AAXX  09134 06616 33/// /0603 11069 21080 39336 40072 57009 333 91112 91206;
0128066160999992010010914004+47433+006950FM-12+059799999V0200501N002119999999N9999999N1-00671-00791100731ADDMA1999999093371MD1710021+9999OA149900571REMSYN076AAXX  09144 06616 33/// /0504 11067 21079 39337 40073 57002 333 91111 91206;
0128066160999992010010915004+47433+006950FM-12+059799999V0200701N002619999999N9999999N1-00661-00801100751ADDMA1999999093401MD1310031+9999OA149900621REMSYN076AAXX  09154 06616 33/// /0705 11066 21080 39340 40075 53003 333 91112 91206;
0128066160999992010010916004+47433+006950FM-12+059799999V0200601N002119999999N9999999N1-00661-00791100751ADDMA1999999093401MD1110041+9999OA149900571REMSYN076AAXX  09164 06616 33/// /0604 11066 21079 39340 40075 51004 333 91111 91205;
0128066160999992010010917004+47433+006950FM-12+059799999V0200501N002119999999N9999999N1-00681-00801100781ADDMA1999999093421MD1210051+9999OA149900461REMSYN076AAXX  09174 06616 33/// /0504 11068 21080 39342 40078 52005 333 91109 91205;
0147066160999992010010918004+47433+006950FM-12+059799999V0200501N001519999999N9999999N1-00661-00781100781ADDKA1120M-00661MA1999999093421MD1210021+9999OA149900821REMSYN082AAXX  09184 06616 33/// /0503 11066 21078 39342 40078 52002 333 11066 91116 91209;
0128066160999992010010919004+47433+006950FM-12+059799999V0200601N001519999999N9999999N1-00651-00751100831ADDMA1999999093471MD1210071+9999OA149900411REMSYN076AAXX  09194 06616 33/// /0603 11065 21075 39347 40083 52007 333 91108 91204;
0128066160999992010010920004+47433+006950FM-12+059799999V0200601N001019999999N9999999N1-00631-00731100841ADDMA1999999093491MD1210071+9999OA149900411REMSYN076AAXX  09204 06616 33/// /0602 11063 21073 39349 40084 52007 333 91108 91204;
0145066160999992010010921004+47433+006950FM-12+059799999V0200701N001019999999N9999999N1-00611-00761100871ADDAA101001091MA1999999093521MD1110101+9999OA149900461REMSYN082AAXX  09214 06616 23/// /0702 11061 21076 39352 40087 51010 333 60015 91109 91205;
0145066160999992010010922004+47433+006950FM-12+059799999V0200801N000519999999N9999999N1-00631-00771100891ADDAA101001091MA1999999093531MD1110061+9999OA149900311REMSYN082AAXX  09224 06616 23/// /0801 11063 21077 39353 40089 51006 333 60015 91106 91203;
0145066160999992010010923004+47433+006950FM-12+059799999V0202501N000519999999N9999999N1-00651-00801100921ADDAA101000891MA1999999093561MD1310071+9999OA149900151REMSYN082AAXX  09234 06616 23/// /2501 11065 21080 39356 40092 53007 333 69975 91103 91202;
0151066160999992010011000004+47433+006950FM-12+059799999V0202701N000519999999N9999999N1-00641-00791100941ADDAA106004191MA1999999093581MD1110061+9999OA149900571REMSYN088AAXX  10004 06616 03/// /2701 11064 21079 39358 40094 51006 60041 333 69975 91111 91206;
0145066160999992010011001004+47433+006950FM-12+059799999V0202701N000519999999N9999999N1-00641-00791100991ADDAA101000891MA1999999093621MD1310091+9999OA149900101REMSYN082AAXX  10014 06616 23/// /2701 11064 21079 39362 40099 53009 333 69985 91102 91201;
0108066160999992010011002004+47433+006950FM-12+059799999V0202501N000519999999N9999999N1-00651-00791101031ADDAA101000591MA1999999093661REMSYN070AAXX  10024 06616 23/// /2501 11065 21079 39366 40103 5//// 333 69955;
0087066160999992010011003004+47433+006950FM-12+059799999V0202101N000519999999N9999999N1-00661-00801101071ADDMA1999999093691REMSYN060AAXX  10034 06616 43/// /2101 11066 21080 39369 40107 5////;
0145066160999992010011004004+47433+006950FM-12+059799999V0201801N000519999999N9999999N1-00681-00811101121ADDAA101000591MA1999999093731MD1310111+9999OA149900101REMSYN082AAXX  10044 06616 23/// /1801 11068 21081 39373 40112 53011 333 69955 91102 91201;
0128066160999992010011005004+47433+006950FM-12+059799999V0202701N000519999999N9999999N1-00671-00801101171ADDMA1999999093781MD1110121+9999OA149900101REMSYN076AAXX  10054 06616 33/// /2701 11067 21080 39378 40117 51012 333 91102 91201;
0229066160999992010011006004+47433+006950FM-12+059799999V0202101N000519999999N9999999N1-00661-00791101221ADDAA112006192AA224005692AL13600591GJ100009IA2999-00209KA1999N-00681MA1999999093831MD1210141+9999OA149900411REMSYN112AAXX  10064 06616 03/// /2101 11066 21079 39383 40122 52014 60062 333 21068 3/102 55000 60005 70056 91108 91204;
0128066160999992010011007004+47433+006950FM-12+059799999V0209999C000019999999N9999999N1-00661-00791101281ADDMA1999999093891MD1310161+9999OA149900101REMSYN076AAXX  10074 06616 33/// /0000 11066 21079 39389 40128 53016 333 91102 91201;
0128066160999992010011008004+47433+006950FM-12+059799999V0209999C000019999999N9999999N1-00681-00801101361ADDMA1999999093961MD1119999+9999OA149900051REMSYN076AAXX  10084 06616 33/// /0000 11068 21080 39396 40136 51/// 333 91101 91201;
0128066160999992010011009004+47433+006950FM-12+059799999V0209999C000019999999N9999999N1-00671-00841101431ADDMA1999999094021MD1310191+9999OA149900101REMSYN076AAXX  10094 06616 33/// /0000 11067 21084 39402 40143 53019 333 91102 91201;
0128066160999992010011010004+47433+006950FM-12+059799999V0203001N001019999999N9999999N1-00631-00811101481ADDMA1999999094081MD1110191+9999OA149900101REMSYN076AAXX  10104 06616 33/// /3002 11063 21081 39408 40148 51019 333 91102 91202;
0128066160999992010011011004+47433+006950FM-12+059799999V0203201N001519999999N9999999N1-00601-00761101511ADDMA1999999094121MD1110161+9999OA149900211REMSYN076AAXX  10114 06616 33/// /3203 11060 21076 39412 40151 51016 333 91104 91203;
0128066160999992010011012004+47433+006950FM-12+059799999V0203401N001019999999N9999999N1-00581-00741101541ADDMA1999999094151MD1110131+9999OA149900211REMSYN076AAXX  10124 06616 33/// /3402 11058 21074 39415 40154 51013 333 91104 91203;
0128066160999992010011013004+47433+006950FM-12+059799999V0203001N001019999999N9999999N1-00571-00751101551ADDMA1999999094161MD1110081+9999OA149900211REMSYN076AAXX  10134 06616 33/// /3002 11057 21075 39416 40155 51008 333 91104 91203;
0128066160999992010011014004+47433+006950FM-12+059799999V0203001N000519999999N9999999N1-00581-00771101621ADDMA1999999094221MD1319999+9999OA149900211REMSYN076AAXX  10144 06616 33/// /3001 11058 21077 39422 40162 53/// 333 91104 91203;
0128066160999992010011015004+47433+006950FM-12+059799999V0202901N001019999999N9999999N1-00571-00781101661ADDMA1999999094261MD1310111+9999OA149900211REMSYN076AAXX  10154 06616 33/// /2902 11057 21078 39426 40166 53011 333 91104 91203;
0128066160999992010011016004+47433+006950FM-12+059799999V0203001N001019999999N9999999N1-00621-00791101701ADDMA1999999094291MD1110131+9999OA149900211REMSYN076AAXX  10164 06616 33/// /3002 11062 21079 39429 40170 51013 333 91104 91203;
0128066160999992010011017004+47433+006950FM-12+059799999V0209999C000019999999N9999999N1-00631-00791101751ADDMA1999999094331MD1110111+9999OA149900211REMSYN076AAXX  10174 06616 33/// /0000 11063 21079 39433 40175 51011 333 91104 91203;
0147066160999992010011018004+47433+006950FM-12+059799999V0201501N000519999999N9999999N1-00621-00771101781ADDKA1120M-00561MA1999999094361MD1310101+9999OA149900211REMSYN082AAXX  10184 06616 33/// /1501 11062 21077 39436 40178 53010 333 11056 91104 91203;
0128066160999992010011019004+47433+006950FM-12+059799999V0209999C000019999999N9999999N1-00651-00781101811ADDMA1999999094381MD1110091+9999OA149900101REMSYN076AAXX  10194 06616 33/// /0000 11065 21078 39438 40181 51009 333 91102 91201;
0128066160999992010011020004+47433+006950FM-12+059799999V0200701N000519999999N9999999N1-00661-00801101821ADDMA1999999094391MD1210061+9999OA149900101REMSYN076AAXX  10204 06616 33/// /0701 11066 21080 39439 40182 52006 333 91102 91201;
0128066160999992010011021004+47433+006950FM-12+059799999V0201501N000519999999N9999999N1-00621-00791101791ADDMA1999999094371MD1210011+9999OA149900211REMSYN076AAXX  10214 06616 33/// /1501 11062 21079 39437 40179 52001 333 91104 91203;
0128066160999992010011022004+47433+006950FM-12+059799999V0200901N000519999999N9999999N1-00661-00811101801ADDMA1999999094371MD1710011+9999OA149900101REMSYN076AAXX  10224 06616 33/// /0901 11066 21081 39437 40180 57001 333 91102 91201;
0128066160999992010011023004+47433+006950FM-12+059799999V0201001N001019999999N9999999N1-00621-00811101811ADDMA1999999094391MD1710011+9999OA149900151REMSYN076AAXX  10234 06616 33/// /1002 11062 21081 39439 40181 52000 333 91103 91202;
0128066160999992010011100004+47433+006950FM-12+059799999V0200701N001019999999N9999999N1-00651-00811101841ADDMA1999999094411MD1210041+9999OA149900211REMSYN076AAXX  11004 06616 33/// /0702 11065 21081 39441 40184 52004 333 91104 91203;
0128066160999992010011101004+47433+006950FM-12+059799999V0201101N000519999999N9999999N1-00641-00791101811ADDMA1999999094381MD1010011+9999OA149900101REMSYN076AAXX  11014 06616 33/// /1101 11064 21079 39438 40181 50001 333 91102 91202;
0128066160999992010011102004+47433+006950FM-12+059799999V0201101N000519999999N9999999N1-00641-00821101781ADDMA1999999094361MD1719999+9999OA149900151REMSYN076AAXX  11024 06616 33/// /1101 11064 21082 39436 40178 57/// 333 91103 91202;
0128066160999992010011103004+47433+006950FM-12+059799999V0200901N001019999999N9999999N1-00711-00891101791ADDMA1999999094351MD1719999+9999OA149900211REMSYN076AAXX  11034 06616 33/// /0902 11071 21089 39435 40179 57/// 333 91104 91203;
0128066160999992010011104004+47433+006950FM-12+059799999V0201101N001019999999N9999999N1-00781-00921101831ADDMA1999999094361MD1510021+9999OA149900211REMSYN076AAXX  11044 06616 33/// /1102 11078 21092 39436 40183 55002 333 91104 91203;
0128066160999992010011105004+47433+006950FM-12+059799999V0200701N001019999999N9999999N1-00991-01091101861ADDMA1999999094331MD1810031+9999OA149900151REMSYN076AAXX  11054 06616 33/// /0702 11099 21109 39433 40186 58003 333 91103 91203;
0225066160999992010011106004+47433+006950FM-12+059799999V0200901N001019999999N9999999N1-00921-01071101821ADDAA124000091AL19900091GJ100909IA2999-00209KA1999N-01081MA1999999094321MD1710031+9999OA149900211REMSYN100AAXX  11064 06616 33/// /0902 11092 21107 39432 40182 57003 333 21108 3/102 55015 70000 91104 91203;EQDQ01  00002PRCP24
0128066160999992010011107004+47433+006950FM-12+059799999V0201001N001019999999N9999999N1-00961-01101101851ADDMA1999999094331MD1710031+9999OA149900151REMSYN076AAXX  11074 06616 33/// /1002 11096 21110 39433 40185 57003 333 91103 91203;
0128066160999992010011108004+47433+006950FM-12+059799999V0200901N001019999999N9999999N1-00811-00921101821ADDMA1999999094351MD1319999+9999OA149900151REMSYN076AAXX  11084 06616 33/// /0902 11081 21092 39435 40182 53/// 333 91103 91203;
0128066160999992010011109004+47433+006950FM-12+059799999V0200901N000519999999N9999999N1-00721-00861101841ADDMA1999999094391MD1210071+9999OA149900151REMSYN076AAXX  11094 06616 33/// /0901 11072 21086 39439 40184 52007 333 91103 91203;
0128066160999992010011110004+47433+006950FM-12+059799999V0201101N000519999999N9999999N1-00591-00771101821ADDMA1999999094411MD1119999+9999OA149900151REMSYN076AAXX  11104 06616 33/// /1101 11059 21077 39441 40182 51/// 333 91103 91202;
0128066160999992010011111004+47433+006950FM-12+059799999V0209999C000019999999N9999999N1-00541-00761101821ADDMA1999999094421MD1210071+9999OA149900151REMSYN076AAXX  11114 06616 33/// /0000 11054 21076 39442 40182 52007 333 91103 91201;
0163066160999992010011112004+47433+006950FM-12+059799999V0202001N000519999999N9999999N1-00491-00801101771ADDMA1999999094391MD1710071+9999OA149900211REMSYN076AAXX  11124 06616 33/// /2001 11049 21080 39439 40177 58000 333 91104 91203;EQDQ01+000082APCTENQ02+000002APC3  
0128066160999992010011113004+47433+006950FM-12+059799999V0202601N001019999999N9999999N1-00391-00681101721ADDMA1999999094371MD1710041+9999OA149900261REMSYN076AAXX  11134 06616 33/// /2602 11039 21068 39437 40172 57004 333 91105 91202;
0087066160999992010011114004+47433+006950FM-12+059799999V0202801N000519999999N9999999N1-00471-00701101781ADDMA1999999094401REMSYN060AAXX  11144 06616 33/// /2801 11047 21070 39440 40178 5////;
0128066160999992010011115004+47433+006950FM-12+059799999V0202701N001519999999N9999999N1-00411-00681101791ADDMA1999999094431MD1210041+9999OA149900261REMSYN076AAXX  11154 06616 33/// /2703 11041 21068 39443 40179 52004 333 91105 91203;
0128066160999992010011116004+47433+006950FM-12+059799999V0203001N001019999999N9999999N1-00461-00671101851ADDMA1999999094471MD1310101+9999OA149900261REMSYN076AAXX  11164 06616 33/// /3002 11046 21067 39447 40185 53010 333 91105 91203;
0128066160999992010011117004+47433+006950FM-12+059799999V0202401N001019999999N9999999N1-00491-00691101881ADDMA1999999094491MD1110091+9999OA149900211REMSYN076AAXX  11174 06616 33/// /2402 11049 21069 39449 40188 51009 333 91104 91203;
0147066160999992010011118004+47433+006950FM-12+059799999V0202701N001019999999N9999999N1-00501-00681101941ADDKA1120M-00391MA1999999094541MD1310111+9999OA149900261REMSYN082AAXX  11184 06616 33/// /2702 11050 21068 39454 40194 53011 333 11039 91105 91203;
0128066160999992010011119004+47433+006950FM-12+059799999V0202501N001019999999N9999999N1-00511-00691101951ADDMA1999999094551MD1210081+9999OA149900151REMSYN076AAXX  11194 06616 33/// /2502 11051 21069 39455 40195 52008 333 91103 91202;
0128066160999992010011120004+47433+006950FM-12+059799999V0202501N001019999999N9999999N1-00501-00711101981ADDMA1999999094581MD1210091+9999OA149900151REMSYN076AAXX  11204 06616 33/// /2502 11050 21071 39458 40198 52009 333 91103 91202;
0128066160999992010011121004+47433+006950FM-12+059799999V0202601N001019999999N9999999N1-00511-00711101981ADDMA1999999094581MD1210041+9999OA149900211REMSYN076AAXX  11214 06616 33/// /2602 11051 21071 39458 40198 52004 333 91104 91203;
0128066160999992010011122004+47433+006950FM-12+059799999V0202801N000519999999N9999999N1-00521-00711102001ADDMA1999999094591MD1210041+9999OA149900211REMSYN076AAXX  11224 06616 33/// /2801 11052 21071 39459 40200 52004 333 91104 91202;
0128066160999992010011123004+47433+006950FM-12+059799999V0202501N000519999999N9999999N1-00511-00731101991ADDMA1999999094591MD1210011+9999OA149900151REMSYN076AAXX  11234 06616 33/// /2501 11051 21073 39459 40199 52001 333 91103 91202;
0128066160999992010011200004+47433+006950FM-12+059799999V0202501N000519999999N9999999N1-00511-00691101981ADDMA1999999094581MD1010001+9999OA149900261REMSYN076AAXX  12004 06616 33/// /2501 11051 21069 39458 40198 50000 333 91105 91203;
0128066160999992010011201004+47433+006950FM-12+059799999V0202801N001019999999N9999999N1-00501-00701101981ADDMA1999999094581MD1710011+9999OA149900151REMSYN076AAXX  12014 06616 33/// /2802 11050 21070 39458 40198 57001 333 91103 91202;
0128066160999992010011202004+47433+006950FM-12+059799999V0203101N000519999999N9999999N1-00531-00701101981ADDMA1999999094571MD1719999+9999OA149900151REMSYN076AAXX  12024 06616 33/// /3101 11053 21070 39457 40198 57/// 333 91103 91202;
0128066160999992010011203004+47433+006950FM-12+059799999V0202501N001019999999N9999999N1-00541-00711101971ADDMA1999999094561MD1710021+9999OA149900151REMSYN076AAXX  12034 06616 33/// /2502 11054 21071 39456 40197 57002 333 91103 91202;
0128066160999992010011204004+47433+006950FM-12+059799999V0202501N001019999999N9999999N1-00541-00731101941ADDMA1999999094531MD1710051+9999OA149900151REMSYN076AAXX  12044 06616 33/// /2502 11054 21073 39453 40194 57005 333 91103 91202;
0128066160999992010011205004+47433+006950FM-12+059799999V0202301N000519999999N9999999N1-00551-00731101931ADDMA1999999094521MD1710051+9999OA149900151REMSYN076AAXX  12054 06616 33/// /2301 11055 21073 39452 40193 57005 333 91103 91202;
0225066160999992010011206004+47433+006950FM-12+059799999V0201801N001019999999N9999999N1-00511-00751101831ADDAA124000091AL19900091GJ100009IA2999-00109KA1999N-00561MA1999999094441MD1710121+9999OA149900211REMSYN100AAXX  12064 06616 33/// /1802 11051 21075 39444 40183 57012 333 21056 3/101 55000 70000 91104 91202;EQDQ01  00002PRCP24
0128066160999992010011207004+47433+006950FM-12+059799999V0202901N000519999999N9999999N1-00571-00751101801ADDMA1999999094391MD1710141+9999OA149900151REMSYN076AAXX  12074 06616 33/// /2901 11057 21075 39439 40180 57014 333 91103 91202;
0128066160999992010011208004+47433+006950FM-12+059799999V0201201N000519999999N9999999N1-00591-00711101751ADDMA1999999094341MD1619999+9999OA149900151REMSYN076AAXX  12084 06616 33/// /1201 11059 21071 39434 40175 56/// 333 91103 91202;
0128066160999992010011209004+47433+006950FM-12+059799999V0201001N001019999999N9999999N1-00521-00721101661ADDMA1999999094281MD1810161+9999OA149900151REMSYN076AAXX  12094 06616 33/// /1002 11052 21072 39428 40166 58016 333 91103 91202;
0128066160999992010011210004+47433+006950FM-12+059799999V0200801N001019999999N9999999N1-00481-00701101581ADDMA1999999094211MD1610181+9999OA149900211REMSYN076AAXX  12104 06616 33/// /0802 11048 21070 39421 40158 56018 333 91104 91203;
0128066160999992010011211004+47433+006950FM-12+059799999V0200801N001519999999N9999999N1-00381-00671101431ADDMA1999999094101MD1810241+9999OA149900361REMSYN076AAXX  12114 06616 33/// /0803 11038 21067 39410 40143 58024 333 91107 91204;
0128066160999992010011212004+47433+006950FM-12+059799999V0200701N002119999999N9999999N1-00331-00601101331ADDMA1999999094021MD1710261+9999OA149900461REMSYN076AAXX  12124 06616 33/// /0704 11033 21060 39402 40133 57026 333 91109 91205;
0128066160999992010011213004+47433+006950FM-12+059799999V0200801N002119999999N9999999N1-00291-00551101191ADDMA1999999093901MD1710311+9999OA149900461REMSYN076AAXX  12134 06616 33/// /0804 11029 21055 39390 40119 57031 333 91109 91205;
0087066160999992010011214004+47433+006950FM-12+059799999V0200801N002619999999N9999999N1-00261-00511101061ADDMA1999999093791REMSYN060AAXX  12144 06616 33/// /0805 11026 21051 39379 40106 5////;
0128066160999992010011215004+47433+006950FM-12+059799999V0200801N002619999999N9999999N1-00331-00531101011ADDMA1999999093721MD1710301+9999OA149900461REMSYN076AAXX  12154 06616 33/// /0805 11033 21053 39372 40101 57030 333 91109 91206;
0128066160999992010011216004+47433+006950FM-12+059799999V0200801N002619999999N9999999N1-00411-00581100921ADDMA1999999093621MD1710281+9999OA149900411REMSYN076AAXX  12164 06616 33/// /0805 11041 21058 39362 40092 57028 333 91108 91205;
0128066160999992010011217004+47433+006950FM-12+059799999V0200701N003119999999N9999999N1-00511-00651100931ADDMA1999999093601MD1710191+9999OA149900461REMSYN076AAXX  12174 06616 33/// /0706 11051 21065 39360 40093 57019 333 91109 91206;
0147066160999992010011218004+47433+006950FM-12+059799999V0200801N003119999999N9999999N1-00551-00691100861ADDKA1120M-00261MA1999999093531MD1710191+9999OA149900511REMSYN082AAXX  12184 06616 33/// /0806 11055 21069 39353 40086 57019 333 11026 91110 91207;
0128066160999992010011219004+47433+006950FM-12+059799999V0200801N002119999999N9999999N1-00601-00731100871ADDMA1999999093521MD1710101+9999OA149900511REMSYN076AAXX  12194 06616 33/// /0804 11060 21073 39352 40087 57010 333 91110 91207;
0128066160999992010011220004+47433+006950FM-12+059799999V0200901N002619999999N9999999N1-00621-00761100811ADDMA1999999093461MD1710141+9999OA149900461REMSYN076AAXX  12204 06616 33/// /0905 11062 21076 39346 40081 57014 333 91109 91206;
0128066160999992010011221004+47433+006950FM-12+059799999V0200901N002119999999N9999999N1-00621-00771100751ADDMA1999999093411MD1710121+9999OA149900511REMSYN076AAXX  12214 06616 33/// /0904 11062 21077 39341 40075 57012 333 91110 91207;
0128066160999992010011222004+47433+006950FM-12+059799999V0200901N001519999999N9999999N1-00661-00801100781ADDMA1999999093421MD1710101+9999OA149900411REMSYN076AAXX  12224 06616 33/// /0903 11066 21080 39342 40078 57010 333 91108 91205;
0128066160999992010011223004+47433+006950FM-12+059799999V0201001N001519999999N9999999N1-00641-00781100821ADDMA1999999093471MD1310011+9999OA149900411REMSYN076AAXX  12234 06616 33/// /1003 11064 21078 39347 40082 53001 333 91108 91205;
0128066160999992010011300004+47433+006950FM-12+059799999V0200801N002119999999N9999999N1-00511-00661100751ADDMA1999999093441MD1010031+9999OA149900511REMSYN076AAXX  13004 06616 33/// /0804 11051 21066 39344 40075 50003 333 91110 91207;
0128066160999992010011301004+47433+006950FM-12+059799999V0200901N002619999999N9999999N1-00451-00621100651ADDMA1999999093361MD1810061+9999OA149900411REMSYN076AAXX  13014 06616 33/// /0905 11045 21062 39336 40065 58006 333 91108 91205;
0145066160999992010011302004+47433+006950FM-12+059799999V0200801N002119999999N9999999N1-00401-00511100571ADDAA101000021MA1999999093301MD1719999+9999OA149900411REMSYN082AAXX  13024 06616 23/// /0804 11040 21051 39330 40057 57/// 333 69915 91108 91205;
0128066160999992010011303004+47433+006950FM-12+059799999V0200601N002619999999N9999999N1-00361-00481100521ADDMA1999999093261MD1619999+9999OA149900411REMSYN076AAXX  13034 06616 33/// /0605 11036 21048 39326 40052 56/// 333 91108 91205;
0145066160999992010011304004+47433+006950FM-12+059799999V0200801N002119999999N9999999N1-00341-00471100521ADDAA101000021MA1999999093271MD1710091+9999OA149900411REMSYN082AAXX  13044 06616 23/// /0804 11034 21047 39327 40052 57009 333 69925 91108 91205;
0145066160999992010011305004+47433+006950FM-12+059799999V0200901N001519999999N9999999N1-00321-00451100521ADDAA101000591MA1999999093271MD1710031+9999OA149900361REMSYN082AAXX  13054 06616 23/// /0903 11032 21045 39327 40052 57003 333 69965 91107 91205;
0229066160999992010011306004+47433+006950FM-12+059799999V0201001N001519999999N9999999N1-00031-00171100441ADDAA112001091AA224001091AL10600191GJ103549IA2999-00209KA1999N-00721MA1999999093271MD1210011+9999OA149900461REMSYN112AAXX  13064 06616 03/// /1003 11003 21017 39327 40044 52001 60012 333 21072 3/102 55059 69925 70011 91109 91206;
0145066160999992010011307004+47433+006950FM-12+059799999V0201801N000519999999N9999999N1+00041-00081100481ADDAA101000021MA1999999093331MD1210061+9999OA149900311REMSYN082AAXX  13074 06616 23/// /1801 10004 21008 39333 40048 52006 333 69925 91106 91204;
0145066160999992010011308004+47433+006950FM-12+059799999V0202001N001019999999N9999999N1+00121-00031100511ADDAA101000021MA1999999093381MD1210111+9999OA149900311REMSYN082AAXX  13084 06616 23/// /2002 10012 21003 39338 40051 52011 333 69925 91106 91203;
0145066160999992010011309004+47433+006950FM-12+059799999V0202201N002619999999N9999999N1+00181-00011100541ADDAA101000391MA1999999093421MD1110151+9999OA149900461REMSYN082AAXX  13094 06616 23/// /2205 10018 21001 39342 40054 51015 333 69935 91109 91205;
0145066160999992010011310004+47433+006950FM-12+059799999V0202301N001519999999N9999999N1+00191+00031100601ADDAA101000021MA1999999093481MD1210151+9999OA149900571REMSYN082AAXX  13104 06616 23/// /2303 10019 20003 39348 40060 52015 333 69915 91111 91207;
0145066160999992010011311004+47433+006950FM-12+059799999V0202501N001519999999N9999999N1+00231+00101100611ADDAA101000021MA1999999093501MD1210121+9999OA149900571REMSYN082AAXX  13114 06616 23/// /2503 10023 20010 39350 40061 52012 333 69915 91111 91207;
0151066160999992010011312004+47433+006950FM-12+059799999V0202301N004119999999N9999999N1+00251+00081100601ADDAA106001091MA1999999093491MD1010071+9999OA149900671REMSYN088AAXX  13124 06616 03/// /2308 10025 20008 39349 40060 50007 60011 333 69935 91113 91208;
0128066160999992010011313004+47433+006950FM-12+059799999V0202401N003119999999N9999999N1+00281+00091100611ADDMA1999999093511MD1210031+9999OA149900771REMSYN076AAXX  13134 06616 33/// /2406 10028 20009 39351 40061 52003 333 91115 91208;
0128066160999992010011314004+47433+006950FM-12+059799999V0202401N003119999999N9999999N1+00281+00101100651ADDMA1999999093551MD1319999+9999OA149900821REMSYN076AAXX  13144 06616 33/// /2406 10028 20010 39355 40065 53/// 333 91116 91208;
0128066160999992010011315004+47433+006950FM-12+059799999V0202401N004119999999N9999999N1+00281+00071100691ADDMA1999999093591MD1210101+9999OA149900881REMSYN076AAXX  13154 06616 33/// /2408 10028 20007 39359 40069 52010 333 91117 91208;
0128066160999992010011316004+47433+006950FM-12+059799999V0202301N004119999999N9999999N1+00251+00051100761ADDMA1999999093641MD1310131+9999OA149900931REMSYN076AAXX  13164 06616 33/// /2308 10025 20005 39364 40076 53013 333 91118 91209;
0128066160999992010011317004+47433+006950FM-12+059799999V0202401N003119999999N9999999N1+00251+00101100821ADDMA1999999093701MD1110151+9999OA149900931REMSYN076AAXX  13174 06616 33/// /2406 10025 20010 39370 40082 51015 333 91118 91209;
0170066160999992010011318004+47433+006950FM-12+059799999V0202301N002119999999N9999999N1+00251+00111100891ADDAA112001091KA1120M+00291MA1999999093761MD1210171+9999OA149900931REMSYN094AAXX  13184 06616 03/// /2304 10025 20011 39376 40089 52017 60012 333 10029 60005 91118 91209;
0128066160999992010011319004+47433+006950FM-12+059799999V0202101N002619999999N9999999N1+00231+00061100911ADDMA1999999093781MD1110141+9999OA149900571REMSYN076AAXX  13194 06616 33/// /2105 10023 20006 39378 40091 51014 333 91111 91207;
0128066160999992010011320004+47433+006950FM-12+059799999V0202201N003119999999N9999999N1+00271+00071100921ADDMA1999999093801MD1110101+9999OA149900511REMSYN076AAXX  13204 06616 33/// /2206 10027 20007 39380 40092 51010 333 91110 91206;
0128066160999992010011321004+47433+006950FM-12+059799999V0201901N001519999999N9999999N1+00241+00051100901ADDMA1999999093771MD1010011+9999OA149900931REMSYN076AAXX  13214 06616 33/// /1903 10024 20005 39377 40090 50001 333 91118 91209;
0128066160999992010011322004+47433+006950FM-12+059799999V0201701N001019999999N9999999N1+00281+00011100871ADDMA1999999093751MD1710031+9999OA149900461REMSYN076AAXX  13224 06616 33/// /1702 10028 20001 39375 40087 57003 333 91109 91206;
0128066160999992010011323004+47433+006950FM-12+059799999V0201601N001019999999N9999999N1+00191-00031100851ADDMA1999999093711MD1810091+9999OA149900311REMSYN076AAXX  13234 06616 33/// /1602 10019 21003 39371 40085 58009 333 91106 91204;
0128066160999992010011400004+47433+006950FM-12+059799999V0201001N001019999999N9999999N1+00071-00051100821ADDMA1999999093651MD1810121+9999OA149900931REMSYN076AAXX  14004 06616 33/// /1002 10007 21005 39365 40082 58012 333 91118 91209;
0128066160999992010011401004+47433+006950FM-12+059799999V0201301N002119999999N9999999N1+00111-00061100741ADDMA1999999093591MD1810161+9999OA149900311REMSYN076AAXX  14014 06616 33/// /1304 10011 21006 39359 40074 58016 333 91106 91205;
0128066160999992010011402004+47433+006950FM-12+059799999V0201401N002119999999N9999999N1+00001-00141100761ADDMA1999999093581MD1719999+9999OA149900311REMSYN076AAXX  14024 06616 33/// /1404 10000 21014 39358 40076 57/// 333 91106 91205;
0087066160999992010011403004+47433+006950FM-12+059799999V0201201N002119999999N9999999N1+00011-00181100741ADDMA1999999093561REMSYN060AAXX  14034 06616 33/// /1204 10001 21018 39356 40074 5////;
0128066160999992010011404004+47433+006950FM-12+059799999V0201201N002119999999N9999999N1+00021-00201100691ADDMA1999999093521MD1710071+9999OA149900311REMSYN076AAXX  14044 06616 33/// /1204 10002 21020 39352 40069 57007 333 91106 91204;
0128066160999992010011405004+47433+006950FM-12+059799999V0201101N001519999999N9999999N1+00011-00261100631ADDMA1999999093461MD1810121+9999OA149900461REMSYN076AAXX  14054 06616 33/// /1103 10001 21026 39346 40063 58012 333 91109 91205;
0206066160999992010011406004+47433+006950FM-12+059799999V0200601N001519999999N9999999N1-00141-00261100661ADDAA124001391AL11200191GJ100009IA2999-00309KA1999N-00171MA1999999093451MD1710111+9999OA149900511REMSYN100AAXX  14064 06616 33/// /0603 11014 21026 39345 40066 57011 333 21017 3/103 55000 70012 91110 91206;
0128066160999992010011407004+47433+006950FM-12+059799999V0200601N002619999999N9999999N1-00191-00281100651ADDMA1999999093431MD1710091+9999OA149900311REMSYN076AAXX  14074 06616 33/// /0605 11019 21028 39343 40065 57009 333 91106 91205;
0128066160999992010011408004+47433+006950FM-12+059799999V0200901N003119999999N9999999N1-00341-00411100681ADDMA1999999093421MD1719999+9999OA149900511REMSYN076AAXX  14084 06616 33/// /0906 11034 21041 39342 40068 57/// 333 91110 91206;
0128066160999992010011409004+47433+006950FM-12+059799999V0200701N004119999999N9999999N1-00191-00271100641ADDMA1999999093421MD1710031+9999OA149900621REMSYN076AAXX  14094 06616 33/// /0708 11019 21027 39342 40064 57003 333 91112 91208;
0128066160999992010011410004+47433+006950FM-12+059799999V0200701N003619999999N9999999N1-00041-00151100611ADDMA1999999093431MD1410001+9999OA149900771REMSYN076AAXX  14104 06616 33/// /0707 11004 21015 39343 40061 54000 333 91115 91209;
0128066160999992010011411004+47433+006950FM-12+059799999V0200701N003619999999N9999999N1+00031-00081100561ADDMA1999999093401MD1710021+9999OA149900821REMSYN076AAXX  14114 06616 33/// /0707 10003 21008 39340 40056 57002 333 91116 91209;
0128066160999992010011412004+47433+006950FM-12+059799999V0200701N004119999999N9999999N1+00061-00081100521ADDMA1999999093371MD1710051+9999OA149900881REMSYN076AAXX  14124 06616 33/// /0708 10006 21008 39337 40052 57005 333 91117 91209;
0128066160999992010011413004+47433+006950FM-12+059799999V0200801N004119999999N9999999N1+00071-00081100521ADDMA1999999093371MD1710061+9999OA149900881REMSYN076AAXX  14134 06616 33/// /0808 10007 21008 39337 40052 57006 333 91117 91209;
0128066160999992010011414004+47433+006950FM-12+059799999V0200701N004619999999N9999999N1+00071-00111100541ADDMA1999999093391MD1510011+9999OA149900771REMSYN076AAXX  14144 06616 33/// /0709 10007 21011 39339 40054 55001 333 91115 91209;
0128066160999992010011415004+47433+006950FM-12+059799999V0200701N005119999999N9999999N1+00041-00111100561ADDMA1999999093401MD1210031+9999OA149900881REMSYN076AAXX  14154 06616 33/// /0710 10004 21011 39340 40056 52003 333 91117 91210;
0128066160999992010011416004+47433+006950FM-12+059799999V0200801N004119999999N9999999N1+00041-00121100621ADDMA1999999093461MD1210091+9999OA149900931REMSYN076AAXX  14164 06616 33/// /0808 10004 21012 39346 40062 52009 333 91118 91210;
0128066160999992010011417004+47433+006950FM-12+059799999V0200801N004119999999N9999999N1-00031-00141100691ADDMA1999999093511MD1310121+9999OA149900931REMSYN076AAXX  14174 06616 33/// /0808 11003 21014 39351 40069 53012 333 91118 91210;
0147066160999992010011418004+47433+006950FM-12+059799999V0200801N003619999999N9999999N1-00061-00151100791ADDKA1120M+00071MA1999999093591MD1310191+9999OA149900931REMSYN082AAXX  14184 06616 33/// /0807 11006 21015 39359 40079 53019 333 10007 91118 91210;
0128066160999992010011419004+47433+006950FM-12+059799999V0200901N003119999999N9999999N1-00071-00161100891ADDMA1999999093681MD1310221+9999OA149900771REMSYN076AAXX  14194 06616 33/// /0906 11007 21016 39368 40089 53022 333 91115 91208;
0128066160999992010011420004+47433+006950FM-12+059799999V0200701N003119999999N9999999N1-00091-00181100981ADDMA1999999093761MD1210251+9999OA149900671REMSYN076AAXX  14204 06616 33/// /0706 11009 21018 39376 40098 52025 333 91113 91208;
0128066160999992010011421004+47433+006950FM-12+059799999V0200901N002119999999N9999999N1-00111-00201101071ADDMA1999999093841MD1310251+9999OA149900931REMSYN076AAXX  14214 06616 33/// /0904 11011 21020 39384 40107 53025 333 91118 91210;
0128066160999992010011422004+47433+006950FM-12+059799999V0200801N002119999999N9999999N1-00151-00241101171ADDMA1999999093921MD1310241+9999OA149900621REMSYN076AAXX  14224 06616 33/// /0804 11015 21024 39392 40117 53024 333 91112 91207;
0128066160999992010011423004+47433+006950FM-12+059799999V0200801N002119999999N9999999N1-00161-00251101261ADDMA1999999094001MD1210241+9999OA149900511REMSYN076AAXX  14234 06616 33/// /0804 11016 21025 39400 40126 52024 333 91110 91206;
0128066160999992010011500004+47433+006950FM-12+059799999V0200901N002619999999N9999999N1-00191-00251101351ADDMA1999999094081MD1210241+9999OA149900931REMSYN076AAXX  15004 06616 33/// /0905 11019 21025 39408 40135 52024 333 91118 91210;
0128066160999992010011501004+47433+006950FM-12+059799999V0200701N002119999999N9999999N1-00241-00271101421ADDMA1999999094131MD1110211+9999OA149900511REMSYN076AAXX  15014 06616 33/// /0704 11024 21027 39413 40142 51021 333 91110 91206;
0128066160999992010011502004+47433+006950FM-12+059799999V0201001N002119999999N9999999N1-00241-00301101531ADDMA1999999094231MD1310231+9999OA149900511REMSYN076AAXX  15024 06616 33/// /1004 11024 21030 39423 40153 53023 333 91110 91206;
0087066160999992010011503004+47433+006950FM-12+059799999V0201101N001519999999N9999999N1-00231-00291101631ADDMA1999999094331REMSYN060AAXX  15034 06616 33/// /1103 11023 21029 39433 40163 5////;
0128066160999992010011504004+47433+006950FM-12+059799999V0201201N001519999999N9999999N1-00241-00241101701ADDMA1999999094391MD1110261+9999OA149900361REMSYN076AAXX  15044 06616 33/// /1203 11024 21024 39439 40170 51026 333 91107 91204;
0128066160999992010011505004+47433+006950FM-12+059799999V0201201N000519999999N9999999N1-00201-00271101791ADDMA1999999094481MD1210251+9999OA149900211REMSYN076AAXX  15054 06616 33/// /1201 11020 21027 39448 40179 52025 333 91104 91203;
0225066160999992010011506004+47433+006950FM-12+059799999V0209999C000019999999N9999999N1-00201-00231101911ADDAA124000091AL19900091GJ100009IA2999-00109KA1999N-00311MA1999999094591MD1310261+9999OA149900671REMSYN100AAXX  15064 06616 33/// /0000 11020 21023 39459 40191 53026 333 21031 3/101 55000 70000 91113 91208;EQDQ01  00002PRCP24
0128066160999992010011507004+47433+006950FM-12+059799999V0202301N000519999999N9999999N1-00171-00211102001ADDMA1999999094691MD1210301+9999OA149900101REMSYN076AAXX  15074 06616 33/// /2301 11017 21021 39469 40200 52030 333 91102 91201;
0128066160999992010011508004+47433+006950FM-12+059799999V0209999C000019999999N9999999N1-00151-00151102091ADDMA1999999094771MD1219999+9999OA149900101REMSYN076AAXX  15084 06616 33/// /0000 11015 21015 39477 40209 52/// 333 91102 91201;
0128066160999992010011509004+47433+006950FM-12+059799999V0203301N000519999999N9999999N1-00101-00141102151ADDMA1999999094841MD1110251+9999OA149900211REMSYN076AAXX  15094 06616 33/// /3301 11010 21014 39484 40215 51025 333 91104 91203;
0128066160999992010011510004+47433+006950FM-12+059799999V0202701N002119999999N9999999N1-00021-00121102201ADDMA1999999094911MD1210221+9999OA149900311REMSYN076AAXX  15104 06616 33/// /2704 11002 21012 39491 40220 52022 333 91106 91204;
0128066160999992010011511004+47433+006950FM-12+059799999V0202601N000519999999N9999999N1-00031-00111102261ADDMA1999999094961MD1210191+9999OA149900311REMSYN076AAXX  15114 06616 33/// /2601 11003 21011 39496 40226 52019 333 91106 91204;
0128066160999992010011512004+47433+006950FM-12+059799999V0203101N002619999999N9999999N1+00001-00131102321ADDMA1999999095031MD1210191+9999OA149900511REMSYN076AAXX  15124 06616 33/// /3105 10000 21013 39503 40232 52019 333 91110 91206;
0128066160999992010011513004+47433+006950FM-12+059799999V0202601N002619999999N9999999N1-00021-00121102371ADDMA1999999095071MD1310161+9999OA149900461REMSYN076AAXX  15134 06616 33/// /2605 11002 21012 39507 40237 53016 333 91109 91205;
0128066160999992010011514004+47433+006950FM-12+059799999V0202201N001519999999N9999999N1+00011-00101102401ADDMA1999999095101MD1210141+9999OA149900461REMSYN076AAXX  15144 06616 33/// /2203 10001 21010 39510 40240 52014 333 91109 91205;
0128066160999992010011515004+47433+006950FM-12+059799999V0202801N001019999999N9999999N1+00011-00121102461ADDMA1999999095161MD1210131+9999OA149900461REMSYN076AAXX  15154 06616 33/// /2802 10001 21012 39516 40246 52013 333 91109 91205;
0128066160999992010011516004+47433+006950FM-12+059799999V0203301N001519999999N9999999N1-00031-00131102541ADDMA1999999095221MD1210151+9999OA149900261REMSYN076AAXX  15164 06616 33/// /3303 11003 21013 39522 40254 52015 333 91105 91203;
0128066160999992010011517004+47433+006950FM-12+059799999V0200101N000519999999N9999999N1-00051-00141102601ADDMA1999999095271MD1210171+9999OA149900261REMSYN076AAXX  15174 06616 33/// /0101 11005 21014 39527 40260 52017 333 91105 91203;
0147066160999992010011518004+47433+006950FM-12+059799999V0201101N001019999999N9999999N1-00031-00111102601ADDKA1120M+00031MA1999999095281MD1210121+9999OA149900461REMSYN082AAXX  15184 06616 33/// /1102 11003 21011 39528 40260 52012 333 10003 91109 91205;
0128066160999992010011519004+47433+006950FM-12+059799999V0200701N001519999999N9999999N1-00061-00131102631ADDMA1999999095301MD1210081+9999OA149900261REMSYN076AAXX  15194 06616 33/// /0703 11006 21013 39530 40263 52008 333 91105 91203;
0128066160999992010011520004+47433+006950FM-12+059799999V0200701N000519999999N9999999N1-00101-00151102621ADDMA1999999095281MD1010011+9999OA149900261REMSYN076AAXX  15204 06616 33/// /0701 11010 21015 39528 40262 50001 333 91105 91203;
0128066160999992010011521004+47433+006950FM-12+059799999V0200901N002119999999N9999999N1-00111-00161102621ADDMA1999999095281MD1810021+9999OA149900411REMSYN076AAXX  15214 06616 33/// /0904 11011 21016 39528 40262 58000 333 91108 91204;
0128066160999992010011522004+47433+006950FM-12+059799999V0200801N002619999999N9999999N1-00131-00191102611ADDMA1999999095261MD1710041+9999OA149900461REMSYN076AAXX  15224 06616 33/// /0805 11013 21019 39526 40261 57004 333 91109 91206;
0128066160999992010011523004+47433+006950FM-12+059799999V0200901N002119999999N9999999N1-00131-00191102631ADDMA1999999095281MD1010001+9999OA149900461REMSYN076AAXX  15234 06616 33/// /0904 11013 21019 39528 40263 50000 333 91109 91206;
0128066160999992010011600004+47433+006950FM-12+059799999V0200701N002619999999N9999999N1-00141-00211102581ADDMA1999999095231MD1810051+9999OA149900571REMSYN076AAXX  16004 06616 33/// /0705 11014 21021 39523 40258 58005 333 91111 91206;
0128066160999992010011601004+47433+006950FM-12+059799999V0200901N002619999999N9999999N1-00161-00231102531ADDMA1999999095181MD1710081+9999OA149900571REMSYN076AAXX  16014 06616 33/// /0905 11016 21023 39518 40253 57008 333 91111 91206;
0128066160999992010011602004+47433+006950FM-12+059799999V0200901N003619999999N9999999N1-00161-00251102501ADDMA1999999095151MD1710131+9999OA149900621REMSYN076AAXX  16024 06616 33/// /0907 11016 21025 39515 40250 57013 333 91112 91207;
0128066160999992010011603004+47433+006950FM-12+059799999V0200801N002619999999N9999999N1-00171-00261102471ADDMA1999999095121MD1719999+9999OA149900621REMSYN076AAXX  16034 06616 33/// /0805 11017 21026 39512 40247 57/// 333 91112 91208;
0128066160999992010011604004+47433+006950FM-12+059799999V0200901N002619999999N9999999N1-00191-00281102421ADDMA1999999095071MD1710111+9999OA149900621REMSYN076AAXX  16044 06616 33/// /0905 11019 21028 39507 40242 57011 333 91112 91208;
0128066160999992010011605004+47433+006950FM-12+059799999V0200901N003619999999N9999999N1-00181-00291102291ADDMA1999999094951MD1810201+9999OA149900671REMSYN076AAXX  16054 06616 33/// /0907 11018 21029 39495 40229 58020 333 91113 91207;
0225066160999992010011606004+47433+006950FM-12+059799999V0200901N004619999999N9999999N1-00211-00311102231ADDAA124000091AL19900091GJ100009IA2999-00109KA1999N-00211MA1999999094891MD1710231+9999OA149900771REMSYN100AAXX  16064 06616 33/// /0909 11021 21031 39489 40223 57023 333 21021 3/101 55000 70000 91115 91209;EQDQ01  00002PRCP24
0128066160999992010011607004+47433+006950FM-12+059799999V0200801N003619999999N9999999N1-00221-00331102181ADDMA1999999094841MD1610231+9999OA149900821REMSYN076AAXX  16074 06616 33/// /0807 11022 21033 39484 40218 56023 333 91116 91209;
0128066160999992010011608004+47433+006950FM-12+059799999V0200901N003119999999N9999999N1-00211-00321102131ADDMA1999999094801MD1710151+9999OA149900821REMSYN076AAXX  16084 06616 33/// /0906 11021 21032 39480 40213 57015 333 91116 91209;
0128066160999992010011609004+47433+006950FM-12+059799999V0200701N002619999999N9999999N1-00231-00341102111ADDMA1999999094771MD1710121+9999OA149900821REMSYN076AAXX  16094 06616 33/// /0705 11023 21034 39477 40211 57012 333 91116 91209;
0128066160999992010011610004+47433+006950FM-12+059799999V0200501N000519999999N9999999N1-00191-00311102161ADDMA1999999094831MD1510011+9999OA149900571REMSYN076AAXX  16104 06616 33/// /0501 11019 21031 39483 40216 55001 333 91111 91207;
0128066160999992010011611004+47433+006950FM-12+059799999V0209999C000019999999N9999999N1-00171-00311102131ADDMA1999999094811MD1310011+9999OA149900511REMSYN076AAXX  16114 06616 33/// /0000 11017 21031 39481 40213 53001 333 91110 91206;
0128066160999992010011612004+47433+006950FM-12+059799999V0200901N001519999999N9999999N1-00081-00261102011ADDMA1999999094721MD1810051+9999OA149900821REMSYN076AAXX  16124 06616 33/// /0903 11008 21026 39472 40201 58005 333 91116 91209;
0128066160999992010011613004+47433+006950FM-12+059799999V0200801N001519999999N9999999N1-00051-00241101851ADDMA1999999094581MD1710251+9999OA149900411REMSYN076AAXX  16134 06616 33/// /0803 11005 21024 39458 40185 57025 333 91108 91205;
0128066160999992010011614004+47433+006950FM-12+059799999V0201001N001019999999N9999999N1-00041-00241101801ADDMA1999999094531MD1719999+9999OA149900411REMSYN076AAXX  16144 06616 33/// /1002 11004 21024 39453 40180 57/// 333 91108 91205;
0128066160999992010011615004+47433+006950FM-12+059799999V0201201N001019999999N9999999N1-00041-00251101781ADDMA1999999094521MD1710201+9999OA149900511REMSYN076AAXX  16154 06616 33/// /1202 11004 21025 39452 40178 57020 333 91110 91206;
0128066160999992010011616004+47433+006950FM-12+059799999V0201301N002119999999N9999999N1-00011-00241101751ADDMA1999999094501MD1710081+9999OA149900311REMSYN076AAXX  16164 06616 33/// /1304 11001 21024 39450 40175 57008 333 91106 91204;
0128066160999992010011617004+47433+006950FM-12+059799999V0201201N000519999999N9999999N1+00021-00191101751ADDMA1999999094501MD1710031+9999OA149900311REMSYN076AAXX  16174 06616 33/// /1201 10002 21019 39450 40175 57003 333 91106 91205;
0166066160999992010011618004+47433+006950FM-12+059799999V0202401N004619999999N9999999N1+00481-00121101631ADDKA1120M+99999MA1999999094511MD1710011+9999OA149900821REMSYN082AAXX  16184 06616 33/// /2409 10048 21012 39451 40163 57001 333 10010 91116 91209;EQDQ01 +00102ATMX  
0145066160999992010011619004+47433+006950FM-12+059799999V0202501N002619999999N9999999N1+00341+00191101651ADDAA101001091MA1999999094491MD1710011+9999OA149900771REMSYN082AAXX  16194 06616 23/// /2505 10034 20019 39449 40165 57001 333 69995 91115 91209;
0145066160999992010011620004+47433+006950FM-12+059799999V0202201N004619999999N9999999N1+00381+00161101491ADDAA101000891MA1999999094351MD1810151+9999OA149901131REMSYN082AAXX  16204 06616 23/// /2209 10038 20016 39435 40149 58015 333 69975 91122 91212;
0145066160999992010011621004+47433+006950FM-12+059799999V0202401N003619999999N9999999N1+00431+00231101461ADDAA101001091MA1999999094341MD1710171+9999OA149901131REMSYN082AAXX  16214 06616 23/// /2407 10043 20023 39434 40146 57017 333 69995 91122 91212;
0145066160999992010011622004+47433+006950FM-12+059799999V0202401N005719999999N9999999N1+00461+00211101451ADDAA101001091MA1999999094341MD1510151+9999OA149901241REMSYN082AAXX  16224 06616 23/// /2411 10046 20021 39434 40145 55015 333 69995 91124 91211;
0128066160999992010011623004+47433+006950FM-12+059799999V0202301N007219999999N9999999N1+00441+00181101521ADDMA1999999094401MD1210051+9999OA149901291REMSYN076AAXX  16234 06616 33/// /2314 10044 20018 39440 40152 52005 333 91125 91214;
0151066160999992010011700004+47433+006950FM-12+059799999V0202301N006219999999N9999999N1+00481+00151101531ADDAA106003091MA1999999094421MD1210081+9999OA149901701REMSYN088AAXX  17004 06616 03/// /2312 10048 20015 39442 40153 52008 60031 333 60005 91133 91215;
0128066160999992010011701004+47433+006950FM-12+059799999V0202201N004619999999N9999999N1+00491+00171101461ADDMA1999999094351MD1010011+9999OA149901701REMSYN076AAXX  17014 06616 33/// /2209 10049 20017 39435 40146 50001 333 91133 91215;
0145066160999992010011702004+47433+006950FM-12+059799999V0202401N004119999999N9999999N1+00531+00261101481ADDAA101000021MA1999999094381MD1819999+9999OA149901081REMSYN082AAXX  17024 06616 23/// /2408 10053 20026 39438 40148 58/// 333 69915 91121 91213;
0087066160999992010011703004+47433+006950FM-12+059799999V0202301N006219999999N9999999N1+00511+00281101491ADDMA1999999094391REMSYN060AAXX  17034 06616 43/// /2312 10051 20028 39439 40149 5////;
0128066160999992010011704004+47433+006950FM-12+059799999V0202301N006719999999N9999999N1+00541+00271101461ADDMA1999999094371MD1010021+9999OA149901441REMSYN076AAXX  17044 06616 33/// /2313 10054 20027 39437 40146 50002 333 91128 91214;
0128066160999992010011705004+47433+006950FM-12+059799999V0202401N006219999999N9999999N1+00531+00251101461ADDMA1999999094361MD1819999+9999OA149901491REMSYN076AAXX  17054 06616 33/// /2412 10053 20025 39436 40146 58/// 333 91129 91216;
0229066160999992010011706004+47433+006950FM-12+059799999V0202401N006219999999N9999999N1+00541+00321101521ADDAA112004192AA224003892AL14800391GJ100009IA2999-00109KA1999N+00281MA1999999094421MD1310031+9999OA149901701REMSYN112AAXX  17064 06616 03/// /2412 10054 20032 39442 40152 53003 60042 333 20028 3/101 55000 69915 70039 91133 91216;
0145066160999992010011707004+47433+006950FM-12+059799999V0202501N004619999999N9999999N1+00501+00371101641ADDAA101000021MA1999999094521MD1210151+9999OA149901291REMSYN082AAXX  17074 06616 23/// /2509 10050 20037 39452 40164 52015 333 69925 91125 91213;
0145066160999992010011708004+47433+006950FM-12+059799999V0202501N004619999999N9999999N1+00421+00281101831ADDAA101000021MA1999999094681MD1319999+9999OA149901541REMSYN082AAXX  17084 06616 23/// /2509 10042 20028 39468 40183 53/// 333 69925 91130 91214;
0145066160999992010011709004+47433+006950FM-12+059799999V0202501N005719999999N9999999N1+00391+00251101961ADDAA101000021MA1999999094791MD1210371+9999OA149901541REMSYN082AAXX  17094 06616 23/// /2511 10039 20025 39479 40196 52037 333 69925 91130 91216;
0145066160999992010011710004+47433+006950FM-12+059799999V0202501N005119999999N9999999N1+00371+00201102081ADDAA101000021MA1999999094901MD1110381+9999OA149901241REMSYN082AAXX  17104 06616 23/// /2510 10037 20020 39490 40208 51038 333 69925 91124 91211;
0128066160999992010011711004+47433+006950FM-12+059799999V0202401N005119999999N9999999N1+00371+00181102181ADDMA1999999094991MD1210311+9999OA149901241REMSYN076AAXX  17114 06616 33/// /2410 10037 20018 39499 40218 52031 333 91124 91211;
0151066160999992010011712004+47433+006950FM-12+059799999V0202501N004119999999N9999999N1+00471+00151102201ADDAA106000891MA1999999095041MD1210251+9999OA149901541REMSYN088AAXX  17124 06616 03/// /2508 10047 20015 39504 40220 52025 69981 333 60005 91130 91216;
0128066160999992010011713004+47433+006950FM-12+059799999V0202401N005119999999N9999999N1+00431+00131102261ADDMA1999999095081MD1210181+9999OA149901031REMSYN076AAXX  17134 06616 33/// /2410 10043 20013 39508 40226 52018 333 91120 91210;
0128066160999992010011714004+47433+006950FM-12+059799999V0202601N003119999999N9999999N1+00451+00111102331ADDMA1999999095151MD1319999+9999OA149901031REMSYN076AAXX  17144 06616 33/// /2606 10045 20011 39515 40233 53/// 333 91120 91210;
0128066160999992010011715004+47433+006950FM-12+059799999V0202501N002619999999N9999999N1+00441+00041102401ADDMA1999999095221MD1310181+9999OA149901241REMSYN076AAXX  17154 06616 33/// /2505 10044 20004 39522 40240 53018 333 91124 91211;
0128066160999992010011716004+47433+006950FM-12+059799999V0202401N002119999999N9999999N1+00381+00071102511ADDMA1999999095301MD1210221+9999OA149900721REMSYN076AAXX  17164 06616 33/// /2404 10038 20007 39530 40251 52022 333 91114 91207;
0128066160999992010011717004+47433+006950FM-12+059799999V0202401N001519999999N9999999N1+00301+00061102591ADDMA1999999095361MD1210211+9999OA149900721REMSYN076AAXX  17174 06616 33/// /2403 10030 20006 39536 40259 52021 333 91114 91206;
0170066160999992010011718004+47433+006950FM-12+059799999V0202201N002119999999N9999999N1+00301+00041102641ADDAA112000891KA1120M+00561MA1999999095401MD1110181+9999OA149901541REMSYN094AAXX  17184 06616 03/// /2204 10030 20004 39540 40264 51018 69982 333 10056 60005 91130 91214;
0128066160999992010011719004+47433+006950FM-12+059799999V0202201N003119999999N9999999N1+00271-00011102651ADDMA1999999095401MD1210101+9999OA149900511REMSYN076AAXX  17194 06616 33/// /2206 10027 21001 39540 40265 52010 333 91110 91206;
0128066160999992010011720004+47433+006950FM-12+059799999V0202001N001019999999N9999999N1+00281-00031102671ADDMA1999999095431MD1210071+9999OA149900511REMSYN076AAXX  17204 06616 33/// /2002 10028 21003 39543 40267 52007 333 91110 91207;
0128066160999992010011721004+47433+006950FM-12+059799999V0202001N003119999999N9999999N1+00241-00021102721ADDMA1999999095461MD1210061+9999OA149900721REMSYN076AAXX  17214 06616 33/// /2006 10024 21002 39546 40272 52006 333 91114 91207;
0128066160999992010011722004+47433+006950FM-12+059799999V0202201N001519999999N9999999N1+00261-00061102721ADDMA1999999095471MD1210071+9999OA149900461REMSYN076AAXX  17224 06616 33/// /2203 10026 21006 39547 40272 52007 333 91109 91206;
0128066160999992010011723004+47433+006950FM-12+059799999V0202201N002119999999N9999999N1+00261-00061102761ADDMA1999999095501MD1210071+9999OA149900461REMSYN076AAXX  17234 06616 33/// /2204 10026 21006 39550 40276 52007 333 91109 91205;
0128066160999992010011800004+47433+006950FM-12+059799999V0202401N002619999999N9999999N1+00231-00081102741ADDMA1999999095481MD1010021+9999OA149901031REMSYN076AAXX  18004 06616 33/// /2405 10023 21008 39548 40274 50002 333 91120 91210;
0147066160999992010011801004+47433+006950FM-12+059799999V0202301N001519999999N9999999N1+00171-00041102751ADDMA1999999095471MD1710031+9999OA149900571REMSYN076AAXX  18014 06616 33/// /2303 10017 21004 39547 40275 57000 333 91111 91206;EQDQ01+000002APC3  
0108066160999992010011802004+47433+006950FM-12+059799999V0203401N001019999999N9999999N1+00171+00001102791ADDAA101000021MA1999999095511REMSYN070AAXX  18024 06616 23/// /3402 10017 20000 39551 40279 5//// 333 69915;
0108066160999992010011803004+47433+006950FM-12+059799999V0201801N001019999999N9999999N1+00211+00041102771ADDAA101000591MA1999999095501REMSYN070AAXX  18034 06616 23/// /1802 10021 20004 39550 40277 5//// 333 69945;
0128066160999992010011804004+47433+006950FM-12+059799999V0202001N002119999999N9999999N1+00151+00031102781ADDMA1999999095491MD1010021+9999OA149900311REMSYN076AAXX  18044 06616 33/// /2004 10015 20003 39549 40278 50002 333 91106 91205;
0164066160999992010011805004+47433+006950FM-12+059799999V0202701N000519999999N9999999N1+00171+00061102791ADDAA101000591MA1999999095511MD1410001+9999OA149900311REMSYN082AAXX  18054 06616 23/// /2701 10017 20006 39551 40279 53000 333 69955 91106 91205;EQDQ01+000032APCTEN
0229066160999992010011806004+47433+006950FM-12+059799999V0202501N001519999999N9999999N1+00191+00081102791ADDAA112001091AA224002091AL10600291GJ100189IA2999-00109KA1999N+00151MA1999999095511MD1510011+9999OA149900571REMSYN112AAXX  18064 06616 03/// /2503 10019 20008 39551 40279 55001 60012 333 20015 3/101 55003 69925 70021 91111 91207;
0128066160999992010011807004+47433+006950FM-12+059799999V0202401N001519999999N9999999N1+00191+00101102831ADDMA1999999095551MD1210061+9999OA149900311REMSYN076AAXX  18074 06616 33/// /2403 10019 20010 39555 40283 52006 333 91106 91204;
