0149066120999992011010100004+47083+006800FM-12+101999999V0202401N000519999999N9999999N1-00771-00771999999ADDMA1999999090231MD1710071+9999ME1314819OA149900411REMSYN088AAXX  01004 06612 33/// /2401 11077 21077 39023 48481 57007 333 55300 20000 91108 91204;
0149066120999992011010101004+47083+006800FM-12+101999999V0202401N000519999999N9999999N1-00781-00811999999ADDMA1999999090211MD1610081+9999ME1314799OA149900101REMSYN088AAXX  01014 06612 33/// /2401 11078 21081 39021 48479 56008 333 55300 20000 91102 91202;
0149066120999992011010102004+47083+006800FM-12+101999999V0202501N001019999999N9999999N1-00431-00521999999ADDMA1999999090191MD1710071+9999ME1314839OA149900151REMSYN088AAXX  01024 06612 33/// /2502 11043 21052 39019 48483 57007 333 55300 20000 91103 91203;
0149066120999992011010103004+47083+006800FM-12+101999999V0202601N000519999999N9999999N1-00581-00581999999ADDMA1999999090171MD1710061+9999ME1314799OA149900151REMSYN088AAXX  01034 06612 33/// /2601 11058 21058 39017 48479 57006 333 55300 20000 91103 91203;
0149066120999992011010104004+47083+006800FM-12+101999999V0202401N001019999999N9999999N1-00511-00601999999ADDMA1999999090161MD1710051+9999ME1314799OA149900101REMSYN088AAXX  01044 06612 33/// /2402 11051 21060 39016 48479 57005 333 55300 20000 91102 91202;
0149066120999992011010105004+47083+006800FM-12+101999999V0202801N000519999999N9999999N1-00601-00701999999ADDMA1999999090171MD1510021+9999ME1314789OA149900151REMSYN088AAXX  01054 06612 33/// /2801 11060 21070 39017 48478 55002 333 55300 20000 91103 91202;
0333066120999992011010106004+47083+006800FM-12+101999999V0202501N001012200019N0080001N1-00491-00611999999ADDAJ100099199999999AL19900091AY101061AY201061GA1021+002701071GF102991999999002501999999GJ101329IA1279IA2999-01109KA1999N-00811MA1999999090171MD1510001+9999ME1314809MW1101OA149900151REMSYN142AAXX  01064 06612 31358 22502 11049 21061 39017 48480 55000 71000 333 21081 3/111 43009 55022 55300 20000 70000 82709 90768 93100 91103 91203;
0149066120999992011010107004+47083+006800FM-12+101999999V0202501N001019999999N9999999N1-00581-00711999999ADDMA1999999090191MD1210031+9999ME1314809OA149900151REMSYN088AAXX  01074 06612 33/// /2502 11058 21071 39019 48480 52003 333 55300 20000 91103 91202;
0149066120999992011010108004+47083+006800FM-12+101999999V0202401N001019999999N9999999N1-00611-00751999999ADDMA1999999090211MD1219999+9999ME1314829OA149900151REMSYN088AAXX  01084 06612 33/// /2402 11061 21075 39021 48482 52/// 333 55300 20032 91103 91202;
0096066120999992011010109004+47083+006800FM-12+101999999V0202601N001019999999N9999999N1-00481-00641999999ADDMA1999999090211ME1314849REMSYN060AAXX  01094 06612 43/// /2602 11048 21064 39021 48484 5////;
0096066120999992011010110004+47083+006800FM-12+101999999V0202401N001019999999N9999999N1-00331-00501999999ADDMA1999999090191ME1314859REMSYN060AAXX  01104 06612 43/// /2402 11033 21050 39019 48485 5////;
0149066120999992011010111004+47083+006800FM-12+101999999V0202401N001019999999N9999999N1-00161-00401999999ADDMA1999999090151MD1710061+9999ME1314849OA149900151REMSYN088AAXX  01114 06612 33/// /2402 11016 21040 39015 48484 57006 333 553// 2//// 91103 91202;
0138066120999992011010112004+47083+006800FM-12+101999999V0202401N001512200019N0300001N1+00041-00291999999ADDGA1001+999999999GF100991001001999999001001MA1999999090101ME1314849REMSYN060AAXX  01124 06612 42/80 02403 10004 21029 39010 48484 5////;
0096066120999992011010113004+47083+006800FM-12+101999999V0202301N001019999999N9999999N1+00191-00191999999ADDMA1999999090041ME1314819REMSYN060AAXX  01134 06612 43/// /2302 10019 21019 39004 48481 5////;
0096066120999992011010114004+47083+006800FM-12+101999999V0202201N002619999999N9999999N1+00211-00151999999ADDMA1999999090031ME1314809REMSYN060AAXX  01144 06612 43/// /2205 10021 21015 39003 48480 5////;
0096066120999992011010115004+47083+006800FM-12+101999999V0202201N001519999999N9999999N1+00101-00151999999ADDMA1999999090011ME1314779REMSYN060AAXX  01154 06612 43/// /2203 10010 21015 39001 48477 5////;
0096066120999992011010116004+47083+006800FM-12+101999999V0202801N001019999999N9999999N1+00001-00171999999ADDMA1999999090021ME1314769REMSYN060AAXX  01164 06612 43/// /2802 10000 21017 39002 48476 5////;
0096066120999992011010117004+47083+006800FM-12+101999999V0203601N000519999999N9999999N1-00031-00131999999ADDMA1999999090041ME1314779REMSYN060AAXX  01174 06612 43/// /3601 11003 21013 39004 48477 5////;
0221066120999992011010118004+47083+006800FM-12+101999999V0202401N001010001519N0000001N1-00101-00181999999ADDAJ100099199999999AL10600091AY141061AY211061GA1091+999999999GF109991091999999999999999IA1279MA1999999090001ME1314729MW1471REMSYN088AAXX  01184 06612 41/00 92402 11010 21018 39000 48472 5//// 74741 333 43009 90766 93100;
0112066120999992011010119004+47083+006800FM-12+101999999V0202901N001019999999N9999999N1-00141-00281999999ADDMA1999999090001ME1314729REMSYN076AAXX  01194 06612 33/// /2902 11014 21028 39000 48472 5//// 333 553// 20000;
0149066120999992011010120004+47083+006800FM-12+101999999V0203501N000519999999N9999999N1-00181-00291999999ADDMA1999999090011MD1510031+9999ME1314729OA149900211REMSYN088AAXX  01204 06612 33/// /3501 11018 21029 39001 48472 55003 333 55300 20000 91104 91203;
0149066120999992011010121004+47083+006800FM-12+101999999V0203001N001019999999N9999999N1-00171-00281999999ADDMA1999999089971MD1710031+9999ME1314699OA149900261REMSYN088AAXX  01214 06612 33/// /3002 11017 21028 38997 48469 57003 333 55300 20000 91105 91203;
0149066120999992011010122004+47083+006800FM-12+101999999V0200701N000519999999N9999999N1-00191-00281999999ADDMA1999999089971MD1810031+9999ME1314689OA149900211REMSYN088AAXX  01224 06612 33/// /0701 11019 21028 38997 48468 58003 333 55300 20000 91104 91202;
0149066120999992011010123004+47083+006800FM-12+101999999V0200801N001019999999N9999999N1-00221-00281999999ADDMA1999999089931MD1710081+9999ME1314649OA149900361REMSYN088AAXX  01234 06612 33/// /0802 11022 21028 38993 48464 57008 333 55300 20000 91107 91204;
0149066120999992011010200004+47083+006800FM-12+101999999V0200701N003119999999N9999999N1-00281-00361999999ADDMA1999999089911MD1810061+9999ME1314619OA149900461REMSYN088AAXX  02004 06612 33/// /0706 11028 21036 38991 48461 58006 333 55300 20000 91109 91206;
0149066120999992011010201004+47083+006800FM-12+101999999V0200601N004119999999N9999999N1-00351-00491999999ADDMA1999999089911MD1710061+9999ME1314609OA149900671REMSYN088AAXX  02014 06612 33/// /0608 11035 21049 38991 48460 57006 333 55300 20000 91113 91208;
0096066120999992011010202004+47083+006800FM-12+101999999V0200501N004619999999N9999999N1-00351-00501999999ADDMA1999999089931ME1314629REMSYN060AAXX  02024 06612 43/// /0509 11035 21050 38993 48462 5////;
0096066120999992011010203004+47083+006800FM-12+101999999V0200601N002619999999N9999999N1-00281-00471999999ADDMA1999999089911ME1314619REMSYN060AAXX  02034 06612 43/// /0605 11028 21047 38991 48461 5////;
0096066120999992011010204004+47083+006800FM-12+101999999V0200601N002619999999N9999999N1-00281-00461999999ADDMA1999999089911ME1314619REMSYN060AAXX  02044 06612 43/// /0605 11028 21046 38991 48461 5////;
0096066120999992011010205004+47083+006800FM-12+101999999V0200501N002619999999N9999999N1-00281-00441999999ADDMA1999999089921ME1314629REMSYN060AAXX  02054 06612 43/// /0505 11028 21044 38992 48462 5////;
0278066120999992011010206004+47083+006800FM-12+101999999V0200501N002610033019N0050001N1-00281-00441999999ADDAJ100099199999999AL10600091AY141061AY221061GA1081+003301071GF108991999999004501999999GJ104029IA1279IA2999-00409KA1999N-00361MA1999999089921ME1314629MW1101REMSYN112AAXX  02064 06612 41450 80505 11028 21044 38992 48462 5//// 71042 333 21036 3/104 43009 55067 88711 90768 93100;
0149066120999992011010207004+47083+006800FM-12+101999999V0200401N003119999999N9999999N1-00291-00451999999ADDMA1999999089941MD1210031+9999ME1314649OA149900461REMSYN088AAXX  02074 06612 33/// /0406 11029 21045 38994 48464 52003 333 55300 20000 91109 91206;
0149066120999992011010208004+47083+006800FM-12+101999999V0200601N004619999999N9999999N1-00281-00411999999ADDMA1999999089981MD1310061+9999ME1314689OA149900671REMSYN088AAXX  02084 06612 33/// /0609 11028 21041 38998 48468 53006 333 55300 20007 91113 91210;
0149066120999992011010209004+47083+006800FM-12+101999999V0200501N005119999999N9999999N1-00301-00431999999ADDMA1999999090021MD1310101+9999ME1314719OA149900821REMSYN088AAXX  02094 06612 33/// /0510 11030 21043 39002 48471 53010 333 55300 20083 91116 91212;
0149066120999992011010210004+47083+006800FM-12+101999999V0200601N004119999999N9999999N1-00301-00441999999ADDMA1999999090051MD1210111+9999ME1314739OA149900821REMSYN088AAXX  02104 06612 33/// /0608 11030 21044 39005 48473 52011 333 55300 20220 91116 91212;
0149066120999992011010211004+47083+006800FM-12+101999999V0200401N004119999999N9999999N1-00291-00451999999ADDMA1999999090041MD1210061+9999ME1314739OA149900721REMSYN088AAXX  02114 06612 33/// /0408 11029 21045 39004 48473 52006 333 55300 20263 91114 91210;
0225066120999992011010212004+47083+006800FM-12+101999999V0200401N00571002701CN0040001N1-00361-00631999999ADDAY171061AY221061GA1081+002701071GF108991999999002501999999MA1999999090041MD1010021+9999ME1314719MW1701OA149900931REMSYN100AAXX  02124 06612 31340 80411 11036 21063 39004 48471 50002 77072 333 55300 20194 88709 91118 91212;
0149066120999992011010213004+47083+006800FM-12+101999999V0200401N005719999999N9999999N1-00351-00621999999ADDMA1999999090031MD1710021+9999ME1314719OA149900931REMSYN088AAXX  02134 06612 33/// /0411 11035 21062 39003 48471 57002 333 55300 20396 91118 91212;
0112066120999992011010214004+47083+006800FM-12+101999999V0200401N005719999999N9999999N1-00391-00741999999ADDMA1999999090051ME1314729REMSYN076AAXX  02144 06612 33/// /0411 11039 21074 39005 48472 5//// 333 553// 20306;
0149066120999992011010215004+47083+006800FM-12+101999999V0200401N005119999999N9999999N1-00421-00761999999ADDMA1999999090091MD1210051+9999ME1314759OA149901031REMSYN088AAXX  02154 06612 33/// /0410 11042 21076 39009 48475 52005 333 55300 20220 91120 91213;
0149066120999992011010216004+47083+006800FM-12+101999999V0200501N004619999999N9999999N1-00431-00741999999ADDMA1999999090111MD1310081+9999ME1314769OA149900931REMSYN088AAXX  02164 06612 33/// /0509 11043 21074 39011 48476 53008 333 55300 20032 91118 91212;
0149066120999992011010217004+47083+006800FM-12+101999999V0200401N005119999999N9999999N1-00441-00731999999ADDMA1999999090131MD1110081+9999ME1314789OA149900821REMSYN088AAXX  02174 06612 33/// /0410 11044 21073 39013 48478 51008 333 55300 20000 91116 91210;
0295066120999992011010218004+47083+006800FM-12+101999999V0200501N004612200019N0050001N1-00451-00731999999ADDAJ100099199999999AL19900091AY171061AY211061GA1031+002701071GF103991999999002501999999IA1279KA1120M-00271MA1999999090141MD1110051+9999ME1314789MW1101OA149901031REMSYN124AAXX  02184 06612 31350 30509 11045 21073 39014 48478 51005 71071 333 11027 43009 55300 20000 83709 90766 93100 91120 91213;
0149066120999992011010219004+47083+006800FM-12+101999999V0200501N004119999999N9999999N1-00451-00701999999ADDMA1999999090161MD1110051+9999ME1314809OA149900771REMSYN088AAXX  02194 06612 33/// /0508 11045 21070 39016 48480 51005 333 55300 20000 91115 91210;
0149066120999992011010220004+47083+006800FM-12+101999999V0200401N004619999999N9999999N1-00441-00751999999ADDMA1999999090171MD1110041+9999ME1314819OA149900771REMSYN088AAXX  02204 06612 33/// /0409 11044 21075 39017 48481 51004 333 55300 20000 91115 91209;
0149066120999992011010221004+47083+006800FM-12+101999999V0200801N003119999999N9999999N1-00461-00711999999ADDMA1999999090191MD1310051+9999ME1314839OA149900821REMSYN088AAXX  02214 06612 33/// /0806 11046 21071 39019 48483 53005 333 55300 20000 91116 91210;
0149066120999992011010222004+47083+006800FM-12+101999999V0200601N003119999999N9999999N1-00551-00851999999ADDMA1999999090221MD1110061+9999ME1314849OA149900771REMSYN088AAXX  02224 06612 33/// /0606 11055 21085 39022 48484 51006 333 55300 20000 91115 91209;
0149066120999992011010223004+47083+006800FM-12+101999999V0200701N003619999999N9999999N1-00601-00871999999ADDMA1999999090221MD1110051+9999ME1314839OA149900821REMSYN088AAXX  02234 06612 33/// /0707 11060 21087 39022 48483 51005 333 55300 20000 91116 91210;
0149066120999992011010300004+47083+006800FM-12+101999999V0200601N004619999999N9999999N1-00621-00861999999ADDMA1999999090191MD1010001+9999ME1314809OA149901031REMSYN088AAXX  03004 06612 33/// /0609 11062 21086 39019 48480 50000 333 55300 20000 91120 91213;
0149066120999992011010301004+47083+006800FM-12+101999999V0200601N003619999999N9999999N1-00651-00861999999ADDMA1999999090181MD1610041+9999ME1314789OA149900721REMSYN088AAXX  03014 06612 33/// /0607 11065 21086 39018 48478 56004 333 55300 20000 91114 91210;
0149066120999992011010302004+47083+006800FM-12+101999999V0200501N003619999999N9999999N1-00781-00961999999ADDMA1999999090191MD1719999+9999ME1314779OA149900721REMSYN088AAXX  03024 06612 33/// /0507 11078 21096 39019 48477 57/// 333 55300 20000 91114 91210;
0096066120999992011010303004+47083+006800FM-12+101999999V0200501N002619999999N9999999N1-00851-01051999999ADDMA1999999090191ME1314769REMSYN060AAXX  03034 06612 43/// /0505 11085 21105 39019 48476 5////;
0149066120999992011010304004+47083+006800FM-12+101999999V0200401N001019999999N9999999N1-00911-01131999999ADDMA1999999090171MD1710011+9999ME1314739OA149900461REMSYN088AAXX  03044 06612 33/// /0402 11091 21113 39017 48473 57001 333 55300 20000 91109 91206;
0149066120999992011010305004+47083+006800FM-12+101999999V0200501N001519999999N9999999N1-01031-01301999999ADDMA1999999090161MD1710031+9999ME1314709OA149900411REMSYN088AAXX  03054 06612 33/// /0503 11103 21130 39016 48470 57003 333 55300 20000 91108 91205;
0327066120999992011010306004+47083+006800FM-12+101999999V0200301N002612200019N0080001N1-00841-01191999999ADDAJ100099199999999AL19900091AY101061AY201061GA1001+999999999GF100991001001999999001001GJ100009IA1279IA2999-01309KA1999N-01031MA1999999090141MD1710051+9999ME1314729MW1101OA149900821REMSYN136AAXX  03064 06612 31/58 00305 11084 21119 39014 48472 57005 71000 333 21103 3/113 43009 55000 55300 20000 70000 90768 93100 91116 91210;
0149066120999992011010307004+47083+006800FM-12+101999999V0200601N002119999999N9999999N1-00851-01171999999ADDMA1999999090131MD1710041+9999ME1314719OA149900511REMSYN088AAXX  03074 06612 33/// /0604 11085 21117 39013 48471 57004 333 55300 20000 91110 91206;
0149066120999992011010308004+47083+006800FM-12+101999999V0200501N001519999999N9999999N1-00911-01151999999ADDMA1999999090151MD1519999+9999ME1314719OA149900461REMSYN088AAXX  03084 06612 33/// /0503 11091 21115 39015 48471 55/// 333 55301 20036 91109 91206;
0112066120999992011010309004+47083+006800FM-12+101999999V0200601N002119999999N9999999N1-00681-01081999999ADDMA1999999090151ME1314759REMSYN076AAXX  03094 06612 33/// /0604 11068 21108 39015 48475 5//// 333 553// 20446;
0149066120999992011010310004+47083+006800FM-12+101999999V0200501N003619999999N9999999N1-00451-01101999999ADDMA1999999090171MD1310041+9999ME1314819OA149900511REMSYN088AAXX  03104 06612 33/// /0507 11045 21110 39017 48481 53004 333 553// 20893 91110 91207;
0149066120999992011010311004+47083+006800FM-12+101999999V0200601N003119999999N9999999N1-00381-01101999999ADDMA1999999090141MD1810011+9999ME1314809OA149900621REMSYN088AAXX  03114 06612 33/// /0606 11038 21110 39014 48480 58001 333 553// 2//// 91112 91207;
0191066120999992011010312004+47083+006800FM-12+101999999V0200601N002612200019N0400001N1-00331-01021999999ADDGA1001+999999999GF100991001001999999001001MA1999999090091MD1710061+9999ME1314769OA149900721REMSYN088AAXX  03124 06612 32/82 00605 11033 21102 39009 48476 57006 333 553// 2//// 91114 91210;
0149066120999992011010313004+47083+006800FM-12+101999999V0200901N001519999999N9999999N1-00341-01081999999ADDMA1999999090091MD1710081+9999ME1314769OA149900571REMSYN088AAXX  03134 06612 33/// /0903 11034 21108 39009 48476 57008 333 553// 2//// 91111 91207;
0112066120999992011010314004+47083+006800FM-12+101999999V0200801N001519999999N9999999N1-00371-01051999999ADDMA1999999090071ME1314749REMSYN076AAXX  03144 06612 33/// /0803 11037 21105 39007 48474 5//// 333 553// 20994;
0112066120999992011010315004+47083+006800FM-12+101999999V0201101N001019999999N9999999N1-00441-01081999999ADDMA1999999090081ME1314739REMSYN076AAXX  03154 06612 33/// /1102 11044 21108 39008 48473 5//// 333 553// 20587;
0149066120999992011010316004+47083+006800FM-12+101999999V0200401N001019999999N9999999N1-00571-01081999999ADDMA1999999090061MD1710031+9999ME1314699OA149900411REMSYN088AAXX  03164 06612 33/// /0402 11057 21108 39006 48469 57003 333 55304 20101 91108 91204;
0168066120999992011010317004+47083+006800FM-12+101999999V0201701N000519999999N9999999N1-00801-01231999999ADDMA1999999090071MD1410001+9999ME1314669OA149900361REMSYN088AAXX  03174 06612 33/// /1701 11080 21123 39007 48466 57000 333 55300 20000 91107 91203;EQDQ01+000072APCTEN
0168066120999992011010318004+47083+006800FM-12+101999999V0209999C000019999999N9999999N1-01111-01381999999ADDKA1120M-00321MA1999999090071MD1510011+9999ME1314619OA149900621REMSYN094AAXX  03184 06612 33/// /0000 11111 21138 39007 48461 55001 333 11032 55300 20000 91112 91207;
0149066120999992011010319004+47083+006800FM-12+101999999V0209999C000019999999N9999999N1-01151-01391999999ADDMA1999999090021MD1810041+9999ME1314569OA149900101REMSYN088AAXX  03194 06612 33/// /0000 11115 21139 39002 48456 58004 333 55300 20000 91102 91200;
0149066120999992011010320004+47083+006800FM-12+101999999V0209999C000019999999N9999999N1-01091-01401999999ADDMA1999999089991MD1710081+9999ME1314559OA149900151REMSYN088AAXX  03204 06612 33/// /0000 11109 21140 38999 48455 57008 333 55300 20000 91103 91201;
0149066120999992011010321004+47083+006800FM-12+101999999V0209999C000019999999N9999999N1-01211-01481999999ADDMA1999999089951MD1810121+9999ME1314499OA149900361REMSYN088AAXX  03214 06612 33/// /0000 11121 21148 38995 48449 58012 333 55300 20000 91107 91203;
0149066120999992011010322004+47083+006800FM-12+101999999V0209999C000019999999N9999999N1-01261-01581999999ADDMA1999999089961MD1710061+9999ME1314499OA149900101REMSYN088AAXX  03224 06612 33/// /0000 11126 21158 38996 48449 57006 333 55300 20000 91102 91201;
0149066120999992011010323004+47083+006800FM-12+101999999V0202501N001019999999N9999999N1-01191-01881999999ADDMA1999999090001MD1310011+9999ME1314549OA149900211REMSYN088AAXX  03234 06612 33/// /2502 11119 21188 39000 48454 53001 333 55300 20000 91104 91203;
0149066120999992011010400004+47083+006800FM-12+101999999V0209999C000019999999N9999999N1-01211-01491999999ADDMA1999999089951MD1010001+9999ME1314499OA149900461REMSYN088AAXX  04004 06612 33/// /0000 11121 21149 38995 48449 50000 333 55300 20000 91109 91205;
0149066120999992011010401004+47083+006800FM-12+101999999V0202301N002119999999N9999999N1-01071-01341999999ADDMA1999999089931MD1810031+9999ME1314509OA149900261REMSYN088AAXX  04014 06612 33/// /2304 11107 21134 38993 48450 58003 333 55300 20000 91105 91204;
0149066120999992011010402004+47083+006800FM-12+101999999V0209999C000019999999N9999999N1-01081-01331999999ADDMA1999999089881MD1719999+9999ME1314459OA149900261REMSYN088AAXX  04024 06612 33/// /0000 11108 21133 38988 48445 57/// 333 55300 20000 91105 91204;
0149066120999992011010403004+47083+006800FM-12+101999999V0202701N000519999999N9999999N1-00851-01131999999ADDMA1999999089861MD1710091+9999ME1314489OA149900261REMSYN088AAXX  04034 06612 33/// /2701 11085 21113 38986 48448 57009 333 55300 20000 91105 91204;
0149066120999992011010404004+47083+006800FM-12+101999999V0202501N001019999999N9999999N1-00761-01081999999ADDMA1999999089811MD1810121+9999ME1314459OA149900151REMSYN088AAXX  04044 06612 33/// /2502 11076 21108 38981 48445 58012 333 55300 20000 91103 91202;
0149066120999992011010405004+47083+006800FM-12+101999999V0202401N001019999999N9999999N1-00711-01011999999ADDMA1999999089781MD1810101+9999ME1314439OA149900151REMSYN088AAXX  04054 06612 33/// /2402 11071 21101 38978 48443 58010 333 55300 20000 91103 91202;
0333066120999992011010406004+47083+006800FM-12+101999999V0209999C00001005701CN0060001N1-00711-00981999999ADDAJ100099199999999AL19900091AY111061AY211061GA1081+005701071GF108991999999004501999999GJ104449IA1279IA2999-01609KA1999N-01321MA1999999089751MD1610111+9999ME1314409MW1101OA149900261REMSYN142AAXX  04064 06612 31456 80000 11071 21098 38975 48440 56011 71011 333 21132 3/116 43009 55074 55300 20000 70000 88719 90768 93100 91105 91204;
0149066120999992011010407004+47083+006800FM-12+101999999V0202101N000519999999N9999999N1-00641-00921999999ADDMA1999999089751MD1710061+9999ME1314429OA149900151REMSYN088AAXX  04074 06612 33/// /2101 11064 21092 38975 48442 57006 333 55300 20000 91103 91201;
0149066120999992011010408004+47083+006800FM-12+101999999V0202501N000519999999N9999999N1-00641-00911999999ADDMA1999999089771MD1519999+9999ME1314439OA149900151REMSYN088AAXX  04084 06612 33/// /2501 11064 21091 38977 48443 55/// 333 55300 20011 91103 91202;
0112066120999992011010409004+47083+006800FM-12+101999999V0202701N000519999999N9999999N1-00581-00921999999ADDMA1999999089761ME1314439REMSYN076AAXX  04094 06612 33/// /2701 11058 21092 38976 48443 5//// 333 553// 20040;
0149066120999992011010410004+47083+006800FM-12+101999999V0202201N001519999999N9999999N1-00551-00871999999ADDMA1999999089791MD1210041+9999ME1314479OA149900311REMSYN088AAXX  04104 06612 33/// /2203 11055 21087 38979 48447 52004 333 55300 20382 91106 91203;
0149066120999992011010411004+47083+006800FM-12+101999999V0202001N000519999999N9999999N1-00471-00831999999ADDMA1999999089731MD1710041+9999ME1314439OA149900311REMSYN088AAXX  04114 06612 33/// /2001 11047 21083 38973 48443 57004 333 55300 20720 91106 91204;
0197066120999992011010412004+47083+006800FM-12+101999999V0201801N00051006901CN0160001N1-00421-00821999999ADDGA1051+006901061GF105991999999008001999999MA1999999089661MD1710101+9999ME1314379OA149900311REMSYN094AAXX  04124 06612 32566 51801 11042 21082 38966 48437 57010 333 55304 2//// 85623 91106 91204;
0149066120999992011010413004+47083+006800FM-12+101999999V0202001N001019999999N9999999N1-00301-00781999999ADDMA1999999089611MD1710181+9999ME1314359OA149900211REMSYN088AAXX  04134 06612 33/// /2002 11030 21078 38961 48435 57018 333 55306 2//// 91104 91203;
0112066120999992011010414004+47083+006800FM-12+101999999V0202201N002619999999N9999999N1-00351-00811999999ADDMA1999999089601ME1314339REMSYN076AAXX  04144 06612 33/// /2205 11035 21081 38960 48433 5//// 333 553// 20540;
0096066120999992011010415004+47083+006800FM-12+101999999V0202001N002119999999N9999999N1-00401-00791999999ADDMA1999999089601ME1314329REMSYN060AAXX  04154 06612 43/// /2004 11040 21079 38960 48432 5////;
0149066120999992011010416004+47083+006800FM-12+101999999V0202401N002119999999N9999999N1-00471-00801999999ADDMA1999999089621MD1310011+9999ME1314339OA149900361REMSYN088AAXX  04164 06612 33/// /2404 11047 21080 38962 48433 53001 333 55300 20065 91107 91205;
0149066120999992011010417004+47083+006800FM-12+101999999V0202601N002119999999N9999999N1-00561-00791999999ADDMA1999999089651MD1210051+9999ME1314349OA149900361REMSYN088AAXX  04174 06612 33/// /2604 11056 21079 38965 48434 52005 333 55300 20000 91107 91205;
0295066120999992011010418004+47083+006800FM-12+101999999V0202601N00261002701CN0025001N1-00601-00821999999ADDAJ100099199999999AL19900091AY111061AY211061GA1081+002701071GF108991999999002501999999IA1279KA1120M-00301MA1999999089661MD1210061+9999ME1314349MW1101OA149900461REMSYN124AAXX  04184 06612 31325 82605 11060 21082 38966 48434 52006 71011 333 11030 43009 55300 20000 88709 90766 93100 91109 91205;
0149066120999992011010419004+47083+006800FM-12+101999999V0202301N001519999999N9999999N1-00711-00871999999ADDMA1999999089631MD1010011+9999ME1314309OA149900461REMSYN088AAXX  04194 06612 33/// /2303 11071 21087 38963 48430 50001 333 55300 20000 91109 91205;
0149066120999992011010420004+47083+006800FM-12+101999999V0202801N001019999999N9999999N1-00791-01021999999ADDMA1999999089611MD1710041+9999ME1314279OA149900361REMSYN088AAXX  04204 06612 33/// /2802 11079 21102 38961 48427 57004 333 55300 20000 91107 91205;
0149066120999992011010421004+47083+006800FM-12+101999999V0202701N001019999999N9999999N1-00821-01111999999ADDMA1999999089591MD1610071+9999ME1314259OA149900461REMSYN088AAXX  04214 06612 33/// /2702 11082 21111 38959 48425 56007 333 55300 20000 91109 91205;
0149066120999992011010422004+47083+006800FM-12+101999999V0202701N001519999999N9999999N1-00851-01121999999ADDMA1999999089601MD1510031+9999ME1314259OA149900261REMSYN088AAXX  04224 06612 33/// /2703 11085 21112 38960 48425 55003 333 55300 20000 91105 91203;
0149066120999992011010423004+47083+006800FM-12+101999999V0202701N001019999999N9999999N1-01021-01341999999ADDMA1999999089621MD1210011+9999ME1314249OA149900211REMSYN088AAXX  04234 06612 33/// /2702 11102 21134 38962 48424 52001 333 55300 20000 91104 91203;
0149066120999992011010500004+47083+006800FM-12+101999999V0202301N000519999999N9999999N1-01041-01291999999ADDMA1999999089601MD1010011+9999ME1314229OA149900461REMSYN088AAXX  05004 06612 33/// /2301 11104 21129 38960 48422 50001 333 55300 20000 91109 91205;
0149066120999992011010501004+47083+006800FM-12+101999999V0202201N001019999999N9999999N1-00991-01271999999ADDMA1999999089561MD1810041+9999ME1314209OA149900151REMSYN088AAXX  05014 06612 33/// /2202 11099 21127 38956 48420 58004 333 55300 20000 91103 91202;
0149066120999992011010502004+47083+006800FM-12+101999999V0203001N001019999999N9999999N1-00681-01111999999ADDMA1999999089551MD1710071+9999ME1314249OA149900151REMSYN088AAXX  05024 06612 33/// /3002 11068 21111 38955 48424 57007 333 55300 20000 91103 91202;
0096066120999992011010503004+47083+006800FM-12+101999999V0202301N000519999999N9999999N1-00681-01021999999ADDMA1999999089531ME1314229REMSYN060AAXX  05034 06612 43/// /2301 11068 21102 38953 48422 5////;
0149066120999992011010504004+47083+006800FM-12+101999999V0200901N000519999999N9999999N1-00651-00961999999ADDMA1999999089501MD1710061+9999ME1314209OA149900151REMSYN088AAXX  05044 06612 33/// /0901 11065 21096 38950 48420 57006 333 55300 20000 91103 91202;
0149066120999992011010505004+47083+006800FM-12+101999999V0200501N001019999999N9999999N1-00741-00951999999ADDMA1999999089481MD1710071+9999ME1314179OA149900101REMSYN088AAXX  05054 06612 33/// /0502 11074 21095 38948 48417 57007 333 55300 20000 91102 91202;
0216066120999992011010506004+47083+006800FM-12+101999999V0202401N000519999999N9999999N1-00901-01041999999ADDAL19900091GJ100669IA2999-01309KA1999N-01071MA1999999089461MD1710071+9999ME1314139OA149900361REMSYN112AAXX  05064 06612 33/// /2401 11090 21104 38946 48413 57007 333 21107 3/113 55011 55300 20000 70000 91107 91205;
0149066120999992011010507004+47083+006800FM-12+101999999V0202301N002119999999N9999999N1-00421-00711999999ADDMA1999999089451MD1710051+9999ME1314199OA149900721REMSYN088AAXX  05074 06612 33/// /2304 11042 21071 38945 48419 57005 333 55300 20000 91114 91207;
0149066120999992011010508004+47083+006800FM-12+101999999V0202801N000519999999N9999999N1-00361-00701999999ADDMA1999999089461MD1519999+9999ME1314219OA149900721REMSYN088AAXX  05084 06612 33/// /2801 11036 21070 38946 48421 55/// 333 55301 20040 91114 91207;
0149066120999992011010509004+47083+006800FM-12+101999999V0202201N001019999999N9999999N1-00201-00711999999ADDMA1999999089451MD1710011+9999ME1314229OA149900721REMSYN088AAXX  05094 06612 33/// /2202 11020 21071 38945 48422 57001 333 553// 20436 91114 91207;
0149066120999992011010510004+47083+006800FM-12+101999999V0202101N003119999999N9999999N1+00081-00731999999ADDMA1999999089431MD1810021+9999ME1314259OA149900621REMSYN088AAXX  05104 06612 33/// /2106 10008 21073 38943 48425 58002 333 553// 20853 91112 91206;
0149066120999992011010511004+47083+006800FM-12+101999999V0202201N003119999999N9999999N1+00211-00671999999ADDMA1999999089401MD1710061+9999ME1314249OA149900671REMSYN088AAXX  05114 06612 33/// /2206 10021 21067 38940 48424 57006 333 553// 2//// 91113 91208;
0112066120999992011010512004+47083+006800FM-12+101999999V0202301N003619999999N9999999N1+00301-00501999999ADDMA1999999089351ME1314219REMSYN076AAXX  05124 06612 33/// /2307 10030 21050 38935 48421 5//// 333 553// 2////;
0149066120999992011010513004+47083+006800FM-12+101999999V0202101N002619999999N9999999N1+00371-00501999999ADDMA1999999089311MD1810121+9999ME1314199OA149900821REMSYN088AAXX  05134 06612 33/// /2105 10037 21050 38931 48419 58012 333 553// 2//// 91116 91209;
0096066120999992011010514004+47083+006800FM-12+101999999V0202101N005119999999N9999999N1+00351-00411999999ADDMA1999999089281ME1314169REMSYN060AAXX  05144 06612 43/// /2110 10035 21041 38928 48416 5////;
0096066120999992011010515004+47083+006800FM-12+101999999V0202201N005119999999N9999999N1+00221-00251999999ADDMA1999999089291ME1314159REMSYN060AAXX  05154 06612 43/// /2210 10022 21025 38929 48415 5////;
0149066120999992011010516004+47083+006800FM-12+101999999V0202401N001519999999N9999999N1+00151-00181999999ADDMA1999999089291MD1710021+9999ME1314139OA149901131REMSYN088AAXX  05164 06612 33/// /2403 10015 21018 38929 48413 57002 333 55300 20076 91122 91212;
0168066120999992011010517004+47083+006800FM-12+101999999V0202201N004619999999N9999999N1+00201-00151999999ADDMA1999999089281MD1410001+9999ME1314139OA149900981REMSYN088AAXX  05174 06612 33/// /2209 10020 21015 38928 48413 58000 333 55300 20000 91119 91211;EQDQ01+000082APCTEN
0295066120999992011010518004+47083+006800FM-12+101999999V0202301N003112200019N0100001N1+00111-00191999999ADDAJ100089199999999AL19900091AY111061AY211061GA1021+007801061GF102991999999008001999999IA1279KA1120M+00431MA1999999089281MD1719999+9999ME1314129MW1101OA149901131REMSYN124AAXX  05184 06612 31560 22306 10011 21019 38928 48412 57/// 71011 333 10043 43008 55300 20000 82626 90766 93100 91122 91212;
0149066120999992011010519004+47083+006800FM-12+101999999V0202301N002619999999N9999999N1+00051-00221999999ADDMA1999999089251MD1710041+9999ME1314089OA149900881REMSYN088AAXX  05194 06612 33/// /2305 10005 21022 38925 48408 57004 333 55300 20000 91117 91208;
0149066120999992011010520004+47083+006800FM-12+101999999V0202301N003119999999N9999999N1+00071-00251999999ADDMA1999999089211MD1719999+9999ME1314059OA149900571REMSYN088AAXX  05204 06612 33/// /2306 10007 21025 38921 48405 57/// 333 55300 20000 91111 91206;
0112066120999992011010521004+47083+006800FM-12+101999999V0202501N002619999999N9999999N1+00171-00281999999ADDMA1999999089171ME1314039REMSYN076AAXX  05214 06612 33/// /2505 10017 21028 38917 48403 5//// 333 553// 20000;
0149066120999992011010522004+47083+006800FM-12+101999999V0202301N005119999999N9999999N1+00381-00261999999ADDMA1999999089161MD1710091+9999ME1314059OA149901131REMSYN088AAXX  05224 06612 33/// /2310 10038 21026 38916 48405 57009 333 55300 20000 91122 91212;
0149066120999992011010523004+47083+006800FM-12+101999999V0202201N005719999999N9999999N1+00431-00311999999ADDMA1999999089131MD1719999+9999ME1314039OA149901291REMSYN088AAXX  05234 06612 33/// /2211 10043 21031 38913 48403 57/// 333 55300 20000 91125 91212;
0096066120999992011010600004+47083+006800FM-12+101999999V0202301N005719999999N9999999N1+00431-00271999999ADDMA1999999089081ME1313999REMSYN060AAXX  06004 06612 43/// /2311 10043 21027 38908 48399 5////;
0096066120999992011010601004+47083+006800FM-12+101999999V0202201N004619999999N9999999N1+00421-00191999999ADDMA1999999089041ME1313959REMSYN060AAXX  06014 06612 43/// /2209 10042 21019 38904 48395 5////;
0096066120999992011010602004+47083+006800FM-12+101999999V0202201N005719999999N9999999N1+00351+00031999999ADDMA1999999089071ME1313979REMSYN060AAXX  06024 06612 43/// /2211 10035 20003 38907 48397 5////;
0096066120999992011010603004+47083+006800FM-12+101999999V0202201N005119999999N9999999N1+00311+00071999999ADDMA1999999089071ME1313969REMSYN060AAXX  06034 06612 43/// /2210 10031 20007 38907 48396 5////;
0096066120999992011010604004+47083+006800FM-12+101999999V0202301N003619999999N9999999N1+00311+00111999999ADDMA1999999089071ME1313969REMSYN060AAXX  06044 06612 43/// /2307 10031 20011 38907 48396 5////;
0096066120999992011010605004+47083+006800FM-12+101999999V0209999C000019999999N9999999N1+00361+00121999999ADDMA1999999089071ME1313979REMSYN060AAXX  06054 06612 43/// /0000 10036 20012 38907 48397 5////;
0300066120999992011010606004+47083+006800FM-12+101999999V0202101N002110150019N0050001N1+00381+00151999999ADDAJ100079199999999AL10600091AY161061AY211061GA1031+004801061GA2081+015001041GF108991999999004501999999GJ104269IA1279IA2999-00209KA1999N+00041MA1999999089091ME1313999MW1601REMSYN118AAXX  06064 06612 41450 82104 10038 20015 38909 48399 5//// 76061 333 20004 3/102 43007 55071 83616 88450 90768 93100;
0096066120999992011010607004+47083+006800FM-12+101999999V0202201N004619999999N9999999N1+00411+00121999999ADDMA1999999089071ME1313979REMSYN060AAXX  06074 06612 43/// /2209 10041 20012 38907 48397 5////;
0118066120999992011010608004+47083+006800FM-12+101999999V0202201N004619999999N9999999N1+00381+00151999999ADDMA1999999089131ME1314029REMSYN082AAXX  06084 06612 23/// /2209 10038 20015 38913 48402 5//// 333 553// 20011 69915;
0096066120999992011010609004+47083+006800FM-12+101999999V0202301N004619999999N9999999N1+00351+00141999999ADDMA1999999089131ME1314029REMSYN060AAXX  06094 06612 43/// /2309 10035 20014 38913 48402 5////;
0155066120999992011010610004+47083+006800FM-12+101999999V0202201N006219999999N9999999N1+00431+00191999999ADDMA1999999089141MD1210071+9999ME1314049OA149901541REMSYN094AAXX  06104 06612 23/// /2212 10043 20019 38914 48404 52007 333 55300 20216 69925 91130 91215;
0149066120999992011010611004+47083+006800FM-12+101999999V0202201N002119999999N9999999N1+00531+00241999999ADDMA1999999089121MD1710011+9999ME1314049OA149901541REMSYN088AAXX  06114 06612 33/// /2204 10053 20024 38912 48404 57001 333 55300 20364 91130 91215;
0172066120999992011010612004+47083+006800FM-12+101999999V0202001N005119999999N9999999N1+00611+00261999999ADDAA106000591MA1999999089081MD1710051+9999ME1314019OA149901541REMSYN100AAXX  06124 06612 03/// /2010 10061 20026 38908 48401 57005 69961 333 55301 2//// 60005 91130 91216;
0155066120999992011010613004+47083+006800FM-12+101999999V0202201N004619999999N9999999N1+00581+00311999999ADDMA1999999089081MD1710061+9999ME1314019OA149901031REMSYN094AAXX  06134 06612 23/// /2209 10058 20031 38908 48401 57006 333 55300 20464 69915 91120 91211;
0096066120999992011010614004+47083+006800FM-12+101999999V0202201N004119999999N9999999N1+00541+00321999999ADDMA1999999089091ME1314019REMSYN060AAXX  06144 06612 43/// /2208 10054 20032 38909 48401 5////;
0096066120999992011010615004+47083+006800FM-12+101999999V0202301N005719999999N9999999N1+00601+00331999999ADDMA1999999089091ME1314029REMSYN060AAXX  06154 06612 43/// /2311 10060 20033 38909 48402 5////;
0155066120999992011010616004+47083+006800FM-12+101999999V0202201N004119999999N9999999N1+00541+00361999999ADDMA1999999089151MD1210071+9999ME1314079OA149901341REMSYN094AAXX  06164 06612 23/// /2208 10054 20036 38915 48407 52007 333 55300 20007 60025 91126 91212;
0149066120999992011010617004+47083+006800FM-12+101999999V0202601N002119999999N9999999N1+00571+00391999999ADDMA1999999089161MD1210071+9999ME1314089OA149901131REMSYN088AAXX  06174 06612 33/// /2604 10057 20039 38916 48408 52007 333 55300 20000 91122 91210;
0191066120999992011010618004+47083+006800FM-12+101999999V0202501N002619999999N9999999N1+00571+00351999999ADDAA112003091KA1120M+00631MA1999999089201MD1210111+9999ME1314129OA149901541REMSYN106AAXX  06184 06612 03/// /2505 10057 20035 38920 48412 52011 60032 333 10063 55300 20000 60005 91130 91215;
0155066120999992011010619004+47083+006800FM-12+101999999V0202701N002619999999N9999999N1+00571+00411999999ADDMA1999999089261MD1310111+9999ME1314179OA149900721REMSYN094AAXX  06194 06612 23/// /2705 10057 20041 38926 48417 53011 333 55300 20000 69955 91114 91206;
0155066120999992011010620004+47083+006800FM-12+101999999V0202501N003119999999N9999999N1+00531+00381999999ADDMA1999999089281MD1219999+9999ME1314189OA149900721REMSYN094AAXX  06204 06612 23/// /2506 10053 20038 38928 48418 52/// 333 55300 20000 69975 91114 91206;
0155066120999992011010621004+47083+006800FM-12+101999999V0202601N002619999999N9999999N1+00561+00441999999ADDMA1999999089331MD1219999+9999ME1314239OA149901131REMSYN094AAXX  06214 06612 23/// /2605 10056 20044 38933 48423 52/// 333 55300 20000 69935 91122 91210;
0149066120999992011010622004+47083+006800FM-12+101999999V0202501N003119999999N9999999N1+00611+00441999999ADDMA1999999089351MD1210091+9999ME1314269OA149900571REMSYN088AAXX  06224 06612 33/// /2506 10061 20044 38935 48426 52009 333 55300 20000 91111 91206;
0112066120999992011010623004+47083+006800FM-12+101999999V0202501N002119999999N9999999N1+00611+00441999999ADDMA1999999089411ME1314319REMSYN076AAXX  06234 06612 33/// /2504 10061 20044 38941 48431 5//// 333 553// 20000;
0096066120999992011010700004+47083+006800FM-12+101999999V0202501N003619999999N9999999N1+00631+00451999999ADDMA1999999089431ME1314339REMSYN060AAXX  07004 06612 43/// /2507 10063 20045 38943 48433 5////;
0096066120999992011010701004+47083+006800FM-12+101999999V0202501N003119999999N9999999N1+00631+00461999999ADDMA1999999089451ME1314359REMSYN060AAXX  07014 06612 43/// /2506 10063 20046 38945 48435 5////;
0096066120999992011010702004+47083+006800FM-12+101999999V0202701N001519999999N9999999N1+00641+00481999999ADDMA1999999089491ME1314399REMSYN060AAXX  07024 06612 43/// /2703 10064 20048 38949 48439 5////;
0096066120999992011010703004+47083+006800FM-12+101999999V0202801N001019999999N9999999N1+00481+00401999999ADDMA1999999089511ME1314389REMSYN060AAXX  07034 06612 43/// /2802 10048 20040 38951 48438 5////;
0155066120999992011010704004+47083+006800FM-12+101999999V0202801N001019999999N9999999N1+00601+00501999999ADDMA1999999089531MD1210081+9999ME1314429OA149900211REMSYN094AAXX  07044 06612 23/// /2802 10060 20050 38953 48442 52008 333 55300 20000 69995 91104 91203;
0155066120999992011010705004+47083+006800FM-12+101999999V0202401N001019999999N9999999N1+00511+00441999999ADDMA1999999089501MD1810011+9999ME1314389OA149900361REMSYN094AAXX  07054 06612 23/// /2402 10051 20044 38950 48438 58001 333 55300 20000 60015 91107 91204;
0385066120999992011010706004+47083+006800FM-12+101999999V0203301N00051003901CN0040001N1+00431+00371999999ADDAA112006191AJ199992999999999AL10600991AL29900091AY161061AY221061GA1081+003901051GF108991999999004501999999GJ100129IA1259IA2999+00309KA1999N+00441MA1999999089491MD1710021+9999ME1314369MW1611OA149900721REMSYN154AAXX  07064 06612 01440 83301 10043 20037 38949 48436 57002 60062 76162 333 20044 3/003 41998 55002 55300 20000 60015 70091 88513 90768 93100 91114 91207;EQDQ01  09982SNDP  
0149066120999992011010707004+47083+006800FM-12+101999999V0202601N001519999999N9999999N1+00641+00441999999ADDMA1999999089461MD1710071+9999ME1314369OA149900411REMSYN088AAXX  07074 06612 33/// /2603 10064 20044 38946 48436 57007 333 55300 20000 91108 91203;
0112066120999992011010708004+47083+006800FM-12+101999999V0202301N005119999999N9999999N1+00811+00431999999ADDMA1999999089481ME1314419REMSYN076AAXX  07084 06612 33/// /2310 10081 20043 38948 48441 5//// 333 553// 20043;
0096066120999992011010709004+47083+006800FM-12+101999999V0202301N005719999999N9999999N1+00921+00451999999ADDMA1999999089481ME1314429REMSYN060AAXX  07094 06612 43/// /2311 10092 20045 38948 48442 5////;
0149066120999992011010710004+47083+006800FM-12+101999999V0202201N007719999999N9999999N1+01011+00481999999ADDMA1999999089511MD1210051+9999ME1314479OA149901441REMSYN088AAXX  07104 06612 33/// /2215 10101 20048 38951 48447 52005 333 55308 20691 91128 91215;
0149066120999992011010711004+47083+006800FM-12+101999999V0202201N008219999999N9999999N1+01041+00481999999ADDMA1999999089511MD1210031+9999ME1314479OA149902061REMSYN088AAXX  07114 06612 33/// /2216 10104 20048 38951 48447 52003 333 55304 20716 91140 91218;
0149066120999992011010712004+47083+006800FM-12+101999999V0202101N009319999999N9999999N1+01091+00441999999ADDMA1999999089491MD1010011+9999ME1314469OA149902161REMSYN088AAXX  07124 06612 33/// /2118 10109 20044 38949 48446 50001 333 55300 20547 91142 91222;
0149066120999992011010713004+47083+006800FM-12+101999999V0202201N007219999999N9999999N1+01141+00431999999ADDMA1999999089481MD1710031+9999ME1314469OA149902161REMSYN088AAXX  07134 06612 33/// /2214 10114 20043 38948 48446 57003 333 55300 20504 91142 91222;
0096066120999992011010714004+47083+006800FM-12+101999999V0202201N007719999999N9999999N1+01121+00441999999ADDMA1999999089491ME1314479REMSYN060AAXX  07144 06612 43/// /2215 10112 20044 38949 48447 5////;
0096066120999992011010715004+47083+006800FM-12+101999999V0202201N005719999999N9999999N1+01061+00451999999ADDMA1999999089551ME1314519REMSYN060AAXX  07154 06612 43/// /2211 10106 20045 38955 48451 5////;
0155066120999992011010716004+47083+006800FM-12+101999999V0202401N003619999999N9999999N1+00881+00581999999ADDMA1999999089611MD1310131+9999ME1314549OA149901391REMSYN094AAXX  07164 06612 23/// /2407 10088 20058 38961 48454 53013 333 55300 20007 69935 91127 91214;
0155066120999992011010717004+47083+006800FM-12+101999999V0202401N001519999999N9999999N1+00811+00641999999ADDMA1999999089631MD1110141+9999ME1314549OA149901031REMSYN094AAXX  07174 06612 23/// /2403 10081 20064 38963 48454 51014 333 55300 20000 60015 91120 91210;
0290066120999992011010718004+47083+006800FM-12+101999999V0202701N00051014701CN0090001N1+00791+00591999999ADDAA112002091AJ199992999999999AY161061AY221061GA1081+014701041GF108991999999012501999999IA1259KA1120M+01171MA1999999089601ME1314519MW1601REMSYN124AAXX  07184 06612 01659 82701 10079 20059 38960 48451 5//// 60022 76062 333 10117 41998 553// 20000 69955 88449 90766 93100;EQDQ01  09982SNDP  
0149066120999992011010719004+47083+006800FM-12+101999999V0202301N004119999999N9999999N1+00941+00421999999ADDMA1999999089551MD1819999+9999ME1314499OA149900771REMSYN088AAXX  07194 06612 33/// /2308 10094 20042 38955 48449 58/// 333 55300 20000 91115 91208;
0096066120999992011010720004+47083+006800FM-12+101999999V0202301N003619999999N9999999N1+00961+00371999999ADDMA1999999089531ME1314489REMSYN060AAXX  07204 06612 43/// /2307 10096 20037 38953 48448 5////;
0096066120999992011010721004+47083+006800FM-12+101999999V0202201N004119999999N9999999N1+00991+00351999999ADDMA1999999089541ME1314499REMSYN060AAXX  07214 06612 43/// /2208 10099 20035 38954 48449 5////;
0155066120999992011010722004+47083+006800FM-12+101999999V0202301N004619999999N9999999N1+00941+00401999999ADDMA1999999089591MD1310041+9999ME1314539OA149901241REMSYN094AAXX  07224 06612 23/// /2309 10094 20040 38959 48453 53004 333 55300 20000 69915 91124 91212;
0118066120999992011010723004+47083+006800FM-12+101999999V0202201N004619999999N9999999N1+00931+00391999999ADDMA1999999089571ME1314519REMSYN082AAXX  07234 06612 23/// /2209 10093 20039 38957 48451 5//// 333 553// 20000 69915;
0135066120999992011010800004+47083+006800FM-12+101999999V0202501N002619999999N9999999N1+00851+00361999999ADDAA106000021MA1999999089601ME1314529REMSYN088AAXX  08004 06612 03/// /2505 10085 20036 38960 48452 5//// 69921 333 553// 20000 60005;
0096066120999992011010801004+47083+006800FM-12+101999999V0202501N002119999999N9999999N1+00761+00451999999ADDMA1999999089611ME1314529REMSYN060AAXX  08014 06612 43/// /2504 10076 20045 38961 48452 5////;
0096066120999992011010802004+47083+006800FM-12+101999999V0202601N001019999999N9999999N1+00671+00511999999ADDMA1999999089621ME1314519REMSYN060AAXX  08024 06612 43/// /2602 10067 20051 38962 48451 5////;
0096066120999992011010803004+47083+006800FM-12+101999999V0202401N003619999999N9999999N1+00671+00541999999ADDMA1999999089681ME1314579REMSYN060AAXX  08034 06612 43/// /2407 10067 20054 38968 48457 5////;
0096066120999992011010804004+47083+006800FM-12+101999999V0202201N004619999999N9999999N1+00691+00471999999ADDMA1999999089641ME1314539REMSYN060AAXX  08044 06612 43/// /2209 10069 20047 38964 48453 5////;
0096066120999992011010805004+47083+006800FM-12+101999999V0202701N001519999999N9999999N1+00631+00431999999ADDMA1999999089661ME1314549REMSYN060AAXX  08054 06612 43/// /2703 10063 20043 38966 48454 5////;
0255066120999992011010806004+47083+006800FM-12+101999999V0202101N002610087019N0160001N1+00711+00431999999ADDAL10600091AY161061AY221061GA1071+008701061GF107991999999008001999999GJ101029IA1119IA2999+00509KA1999N+00631MA1999999089651ME1314559MW1011REMSYN106AAXX  08064 06612 41566 72105 10071 20043 38965 48455 5//// 70162 333 20063 32005 55017 87629 90768 93100;
0096066120999992011010807004+47083+006800FM-12+101999999V0202601N001019999999N9999999N1+00571+00381999999ADDMA1999999089661ME1314539REMSYN060AAXX  08074 06612 43/// /2602 10057 20038 38966 48453 5////;
0112066120999992011010808004+47083+006800FM-12+101999999V0202601N001019999999N9999999N1+00671+00401999999ADDMA1999999089701ME1314599REMSYN076AAXX  08084 06612 33/// /2602 10067 20040 38970 48459 5//// 333 553// 20043;
0096066120999992011010809004+47083+006800FM-12+101999999V0202301N002619999999N9999999N1+00741+00361999999ADDMA1999999089711ME1314619REMSYN060AAXX  08094 06612 43/// /2305 10074 20036 38971 48461 5////;
0096066120999992011010810004+47083+006800FM-12+101999999V0202201N002119999999N9999999N1+00821+00391999999ADDMA1999999089731ME1314649REMSYN060AAXX  08104 06612 43/// /2204 10082 20039 38973 48464 5////;
0096066120999992011010811004+47083+006800FM-12+101999999V0202201N004619999999N9999999N1+00931+00361999999ADDMA1999999089701ME1314639REMSYN060AAXX  08114 06612 43/// /2209 10093 20036 38970 48463 5////;
0148066120999992011010812004+47083+006800FM-12+101999999V0202101N004610150019N0210001N1+01031+00331999999ADDGA1071+015001031GF107991999999017501999999MA1999999089671ME1314629REMSYN070AAXX  08124 06612 42771 72109 10103 20033 38967 48462 5//// 333 87350;
0096066120999992011010813004+47083+006800FM-12+101999999V0202201N004119999999N9999999N1+00991+00301999999ADDMA1999999089651ME1314599REMSYN060AAXX  08134 06612 43/// /2208 10099 20030 38965 48459 5////;
0096066120999992011010814004+47083+006800FM-12+101999999V0202301N005119999999N9999999N1+01031+00201999999ADDMA1999999089671ME1314629REMSYN060AAXX  08144 06612 43/// /2310 10103 20020 38967 48462 5////;
0096066120999992011010815004+47083+006800FM-12+101999999V0202201N002619999999N9999999N1+00941+00221999999ADDMA1999999089681ME1314619REMSYN060AAXX  08154 06612 43/// /2205 10094 20022 38968 48461 5////;
0096066120999992011010816004+47083+006800FM-12+101999999V0202301N002119999999N9999999N1+00861+00191999999ADDMA1999999089661ME1314589REMSYN060AAXX  08164 06612 43/// /2304 10086 20019 38966 48458 5////;
0096066120999992011010817004+47083+006800FM-12+101999999V0202301N001019999999N9999999N1+00791+00131999999ADDMA1999999089651ME1314569REMSYN060AAXX  08174 06612 43/// /2302 10079 20013 38965 48456 5////;
0182066120999992011010818004+47083+006800FM-12+101999999V0202301N001512200019N0160001N1+00791+00081999999ADDAL10600091GA1021+014701031GF102991999999012501999999IA1119MA1999999089641ME1314559REMSYN088AAXX  08184 06612 42666 22303 10079 20008 38964 48455 5//// 333 32/// 82349 90766 93100;
0096066120999992011010819004+47083+006800FM-12+101999999V0202701N001019999999N9999999N1+00671+00061999999ADDMA1999999089611ME1314509REMSYN060AAXX  08194 06612 43/// /2702 10067 20006 38961 48450 5////;
0096066120999992011010820004+47083+006800FM-12+101999999V0202401N003119999999N9999999N1+00791+00151999999ADDMA1999999089611ME1314529REMSYN060AAXX  08204 06612 43/// /2406 10079 20015 38961 48452 5////;
0096066120999992011010821004+47083+006800FM-12+101999999V0202301N004119999999N9999999N1+00901+00061999999ADDMA1999999089571ME1314509REMSYN060AAXX  08214 06612 43/// /2308 10090 20006 38957 48450 5////;
0096066120999992011010822004+47083+006800FM-12+101999999V0202201N003619999999N9999999N1+00901+00031999999ADDMA1999999089561ME1314499REMSYN060AAXX  08224 06612 43/// /2207 10090 20003 38956 48449 5////;
0096066120999992011010823004+47083+006800FM-12+101999999V0202201N006219999999N9999999N1+00871+00031999999ADDMA1999999089571ME1314509REMSYN060AAXX  08234 06612 43/// /2212 10087 20003 38957 48450 5////;
0096066120999992011010900004+47083+006800FM-12+101999999V0202301N002619999999N9999999N1+00771+00031999999ADDMA1999999089581ME1314499REMSYN060AAXX  09004 06612 43/// /2305 10077 20003 38958 48449 5////;
0096066120999992011010901004+47083+006800FM-12+101999999V0202501N001519999999N9999999N1+00741-00021999999ADDMA1999999089561ME1314479REMSYN060AAXX  09014 06612 43/// /2503 10074 21002 38956 48447 5////;
0096066120999992011010902004+47083+006800FM-12+101999999V0202401N001019999999N9999999N1+00461+00021999999ADDMA1999999089581ME1314449REMSYN060AAXX  09024 06612 43/// /2402 10046 20002 38958 48444 5////;
0096066120999992011010903004+47083+006800FM-12+101999999V0202601N001519999999N9999999N1+00641-00041999999ADDMA1999999089571ME1314469REMSYN060AAXX  09034 06612 43/// /2603 10064 21004 38957 48446 5////;
0096066120999992011010904004+47083+006800FM-12+101999999V0202701N001019999999N9999999N1+00681-00021999999ADDMA1999999089521ME1314429REMSYN060AAXX  09044 06612 43/// /2702 10068 21002 38952 48442 5////;
0096066120999992011010905004+47083+006800FM-12+101999999V0202501N002119999999N9999999N1+00671-00081999999ADDMA1999999089501ME1314409REMSYN060AAXX  09054 06612 43/// /2504 10067 21008 38950 48440 5////;
0196066120999992011010906004+47083+006800FM-12+101999999V0202401N004612200019N0160001N1+00741-00131999999ADDAL10600091GA1021+024001031GF102991999999022501999999GJ100369IA1119MA1999999089521ME1314439REMSYN094AAXX  09064 06612 42866 22409 10074 21013 38952 48443 5//// 333 32/// 55006 82358 90768 93100;
0096066120999992011010907004+47083+006800FM-12+101999999V0202401N004119999999N9999999N1+00681-00021999999ADDMA1999999089561ME1314469REMSYN060AAXX  09074 06612 43/// /2408 10068 21002 38956 48446 5////;
0112066120999992011010908004+47083+006800FM-12+101999999V0202201N004619999999N9999999N1+00671+00101999999ADDMA1999999089641ME1314539REMSYN076AAXX  09084 06612 33/// /2209 10067 20010 38964 48453 5//// 333 553// 20004;
0118066120999992011010909004+47083+006800FM-12+101999999V0202201N003119999999N9999999N1+00531+00331999999ADDMA1999999089681ME1314549REMSYN082AAXX  09094 06612 23/// /2206 10053 20033 38968 48454 5//// 333 553// 20043 69945;
0155066120999992011010910004+47083+006800FM-12+101999999V0202201N004119999999N9999999N1+00561+00381999999ADDMA1999999089691MD1210131+9999ME1314569OA149901031REMSYN094AAXX  09104 06612 23/// /2208 10056 20038 38969 48456 52013 333 55300 20101 60015 91120 91210;
0155066120999992011010911004+47083+006800FM-12+101999999V0202201N003619999999N9999999N1+00561+00431999999ADDMA1999999089701MD1210061+9999ME1314579OA149900981REMSYN094AAXX  09114 06612 23/// /2207 10056 20043 38970 48457 52006 333 55300 20130 60015 91119 91210;
0172066120999992011010912004+47083+006800FM-12+101999999V0202301N004619999999N9999999N1+00551+00401999999ADDAA106004191MA1999999089681MD1010001+9999ME1314559OA149901181REMSYN100AAXX  09124 06612 03/// /2309 10055 20040 38968 48455 50000 60041 333 55300 20173 60015 91123 91212;
0155066120999992011010913004+47083+006800FM-12+101999999V0202401N005119999999N9999999N1+00461+00281999999ADDMA1999999089681MD1710011+9999ME1314539OA149901031REMSYN094AAXX  09134 06612 23/// /2410 10046 20028 38968 48453 57001 333 55300 20086 60015 91120 91210;
0096066120999992011010914004+47083+006800FM-12+101999999V0202201N004119999999N9999999N1+00391+00241999999ADDMA1999999089701ME1314549REMSYN060AAXX  09144 06612 43/// /2208 10039 20024 38970 48454 5////;
0096066120999992011010915004+47083+006800FM-12+101999999V0202301N002119999999N9999999N1+00381+00261999999ADDMA1999999089731ME1314569REMSYN060AAXX  09154 06612 43/// /2304 10038 20026 38973 48456 5////;
0155066120999992011010916004+47083+006800FM-12+101999999V0202401N002619999999N9999999N1+00411+00281999999ADDMA1999999089761MD1210081+9999ME1314609OA149900571REMSYN094AAXX  09164 06612 23/// /2405 10041 20028 38976 48460 52008 333 55300 20007 69965 91111 91207;
0155066120999992011010917004+47083+006800FM-12+101999999V0202301N002119999999N9999999N1+00411+00291999999ADDMA1999999089811MD1210111+9999ME1314649OA149900411REMSYN094AAXX  09174 06612 23/// /2304 10041 20029 38981 48464 52011 333 55300 20000 60015 91108 91205;
0301066120999992011010918004+47083+006800FM-12+101999999V0202601N00151003901CN0050001N1+00391+00271999999ADDAA112009991AL19900091AY161061AY221061GA1081+003901051GF108991999999004501999999IA1119KA1120M+00761MA1999999089851MD1310121+9999ME1314679MW1631OA149901181REMSYN136AAXX  09184 06612 01450 82603 10039 20027 38985 48467 53012 60102 76362 333 10076 32/// 55300 20000 60015 88513 90766 93100 91123 91212;
0155066120999992011010919004+47083+006800FM-12+101999999V0202201N001519999999N9999999N1+00371+00271999999ADDMA1999999089901MD1210141+9999ME1314729OA149900361REMSYN094AAXX  09194 06612 23/// /2203 10037 20027 38990 48472 52014 333 55300 20000 60015 91107 91204;
0155066120999992011010920004+47083+006800FM-12+101999999V0202301N002119999999N9999999N1+00261+00151999999ADDMA1999999089941MD1110131+9999ME1314739OA149900511REMSYN094AAXX  09204 06612 23/// /2304 10026 20015 38994 48473 51013 333 55300 20000 60015 91110 91206;
0155066120999992011010921004+47083+006800FM-12+101999999V0202201N001519999999N9999999N1+00151+00061999999ADDMA1999999089991MD1210141+9999ME1314769OA149900511REMSYN094AAXX  09214 06612 23/// /2203 10015 20006 38999 48476 52014 333 55300 20000 60015 91110 91206;
0155066120999992011010922004+47083+006800FM-12+101999999V0202701N000519999999N9999999N1+00091+00021999999ADDMA1999999090021MD1110121+9999ME1314779OA149900461REMSYN094AAXX  09224 06612 23/// /2701 10009 20002 39002 48477 51012 333 55300 20000 69965 91109 91205;
0155066120999992011010923004+47083+006800FM-12+101999999V0209999C000019999999N9999999N1+00111+00041999999ADDMA1999999090051MD1110111+9999ME1314809OA149900151REMSYN094AAXX  09234 06612 23/// /0000 10011 20004 39005 48480 51011 333 55300 20000 69925 91103 91202;
0172066120999992011011000004+47083+006800FM-12+101999999V0209999C000019999999N9999999N1+00161+00091999999ADDAA106005191MA1999999090061MD1110071+9999ME1314829OA149900881REMSYN100AAXX  10004 06612 03/// /0000 10016 20009 39006 48482 51007 60051 333 55300 20000 60005 91117 91210;
0155066120999992011011001004+47083+006800FM-12+101999999V0201801N000519999999N9999999N1+00181+00121999999ADDMA1999999090071MD1110051+9999ME1314839OA149900101REMSYN094AAXX  10014 06612 23/// /1801 10018 20012 39007 48483 51005 333 55300 20000 69915 91102 91201;
0118066120999992011011002004+47083+006800FM-12+101999999V0209999C000019999999N9999999N1+00161+00101999999ADDMA1999999090101ME1314869REMSYN082AAXX  10024 06612 23/// /0000 10016 20010 39010 48486 5//// 333 553// 20000 69935;
0096066120999992011011003004+47083+006800FM-12+101999999V0200101N001019999999N9999999N1+00151+00031999999ADDMA1999999090111ME1314869REMSYN060AAXX  10034 06612 43/// /0102 10015 20003 39011 48486 5////;
0112066120999992011011004004+47083+006800FM-12+101999999V0200501N001519999999N9999999N1+00091-00011999999ADDMA1999999090101ME1314849REMSYN076AAXX  10044 06612 33/// /0503 10009 21001 39010 48484 5//// 333 553// 20000;
0155066120999992011011005004+47083+006800FM-12+101999999V0200701N001019999999N9999999N1+00061-00031999999ADDMA1999999090091MD1719999+9999ME1314839OA149900311REMSYN094AAXX  10054 06612 23/// /0702 10006 21003 39009 48483 57/// 333 55300 20000 69915 91106 91204;
0308066120999992011011006004+47083+006800FM-12+101999999V0200401N002110001519N0001001N1+00041-00031999999ADDAA124015091AJ199992999999999AL19901591AY171061AY261061GA1091+999999999GF109991091999999999999999GJ100009IA1309IA2999+00009KA1999N+00051MA1999999090081ME1314829MW1471REMSYN112AAXX  10064 06612 41/01 90404 10004 21003 39008 48482 5//// 74776 333 20005 3/100 42998 55000 70150 90768 93100;EQDQ01  09982SNDP  
0149066120999992011011007004+47083+006800FM-12+101999999V0200401N001519999999N9999999N1+00071+00001999999ADDMA1999999090111MD1310011+9999ME1314859OA149900311REMSYN088AAXX  10074 06612 33/// /0403 10007 20000 39011 48485 53001 333 55300 20000 91106 91204;
0096066120999992011011008004+47083+006800FM-12+101999999V0200501N002119999999N9999999N1+00101+00031999999ADDMA1999999090151ME1314899REMSYN060AAXX  10084 06612 43/// /0504 10010 20003 39015 48489 5////;
0096066120999992011011009004+47083+006800FM-12+101999999V0200701N001519999999N9999999N1+00111+00041999999ADDMA1999999090161ME1314909REMSYN060AAXX  10094 06612 43/// /0703 10011 20004 39016 48490 5////;
0149066120999992011011010004+47083+006800FM-12+101999999V0200701N002119999999N9999999N1+00091+00041999999ADDMA1999999090151MD1210041+9999ME1314899OA149900411REMSYN088AAXX  10104 06612 33/// /0704 10009 20004 39015 48489 52004 333 55300 20169 91108 91204;
0149066120999992011011011004+47083+006800FM-12+101999999V0200601N001019999999N9999999N1+00151+00081999999ADDMA1999999090131MD1719999+9999ME1314889OA149900311REMSYN088AAXX  10114 06612 33/// /0602 10015 20008 39013 48488 57/// 333 55300 20367 91106 91204;
0172066120999992011011012004+47083+006800FM-12+101999999V0209999C000019999999N0040001N1+00241+00141999999ADDAY141061AY221061GF108991999999002501999999MA1999999090071ME1314849MW1101REMSYN088AAXX  10124 06612 31340 80000 10024 20014 39007 48484 5//// 71042 333 553// 20342 88708;
0096066120999992011011013004+47083+006800FM-12+101999999V0201501N001019999999N9999999N1+00291+00001999999ADDMA1999999090001ME1314799REMSYN060AAXX  10134 06612 43/// /1502 10029 20000 39000 48479 5////;
0096066120999992011011014004+47083+006800FM-12+101999999V0201701N001519999999N9999999N1+00281+00061999999ADDMA1999999089951ME1314749REMSYN060AAXX  10144 06612 43/// /1703 10028 20006 38995 48474 5////;
0096066120999992011011015004+47083+006800FM-12+101999999V0201701N002119999999N9999999N1+00221+00041999999ADDMA1999999089941ME1314739REMSYN060AAXX  10154 06612 43/// /1704 10022 20004 38994 48473 5////;
0096066120999992011011016004+47083+006800FM-12+101999999V0202101N001519999999N9999999N1+00161+00001999999ADDMA1999999089921ME1314709REMSYN060AAXX  10164 06612 43/// /2103 10016 20000 38992 48470 5////;
0096066120999992011011017004+47083+006800FM-12+101999999V0201701N001019999999N9999999N1+00151+00021999999ADDMA1999999089891ME1314679REMSYN060AAXX  10174 06612 43/// /1702 10015 20002 38989 48467 5////;
0229066120999992011011018004+47083+006800FM-12+101999999V0202001N002110027019N0030001N1+00111-00021999999ADDAL10600091AY121061AY221061GA1081+002701071GF108991999999002501999999IA1119KA1120M+00321MA1999999089881ME1314659MW1101REMSYN100AAXX  10184 06612 41330 82004 10011 21002 38988 48465 5//// 71022 333 10032 32/// 88709 90766 93100;
0096066120999992011011019004+47083+006800FM-12+101999999V0202001N001519999999N9999999N1+00101-00021999999ADDMA1999999089881ME1314659REMSYN060AAXX  10194 06612 43/// /2003 10010 21002 38988 48465 5////;
0096066120999992011011020004+47083+006800FM-12+101999999V0202201N001519999999N9999999N1+00081-00041999999ADDMA1999999089851ME1314629REMSYN060AAXX  10204 06612 43/// /2203 10008 21004 38985 48462 5////;
0096066120999992011011021004+47083+006800FM-12+101999999V0202601N001019999999N9999999N1+00071-00061999999ADDMA1999999089831ME1314609REMSYN060AAXX  10214 06612 43/// /2602 10007 21006 38983 48460 5////;
0096066120999992011011022004+47083+006800FM-12+101999999V0202201N002119999999N9999999N1+00121+00001999999ADDMA1999999089821ME1314609REMSYN060AAXX  10224 06612 43/// /2204 10012 20000 38982 48460 5////;
0096066120999992011011023004+47083+006800FM-12+101999999V0202101N002119999999N9999999N1+00101-00031999999ADDMA1999999089781ME1314569REMSYN060AAXX  10234 06612 43/// /2104 10010 21003 38978 48456 5////;
0096066120999992011011100004+47083+006800FM-12+101999999V0202201N001519999999N9999999N1+00081-00061999999ADDMA1999999089731ME1314529REMSYN060AAXX  11004 06612 43/// /2203 10008 21006 38973 48452 5////;
0096066120999992011011101004+47083+006800FM-12+101999999V0202101N002619999999N9999999N1+00091-00071999999ADDMA1999999089691ME1314489REMSYN060AAXX  11014 06612 43/// /2105 10009 21007 38969 48448 5////;
0096066120999992011011102004+47083+006800FM-12+101999999V0203101N000519999999N9999999N1+00061-00061999999ADDMA1999999089651ME1314449REMSYN060AAXX  11024 06612 43/// /3101 10006 21006 38965 48444 5////;
0096066120999992011011103004+47083+006800FM-12+101999999V0209999C000019999999N9999999N1-00061-00131999999ADDMA1999999089601ME1314389REMSYN060AAXX  11034 06612 43/// /0000 11006 21013 38960 48438 5////;
0096066120999992011011104004+47083+006800FM-12+101999999V0202301N002119999999N9999999N1+00071-00101999999ADDMA1999999089561ME1314369REMSYN060AAXX  11044 06612 43/// /2304 10007 21010 38956 48436 5////;
0096066120999992011011105004+47083+006800FM-12+101999999V0202201N004619999999N9999999N1+00101-00141999999ADDMA1999999089481ME1314309REMSYN060AAXX  11054 06612 43/// /2209 10010 21014 38948 48430 5////;
0224066120999992011011106004+47083+006800FM-12+101999999V0202101N004612200019N0080001N1+00151-00171999999ADDAL10600091AY111061AY211061GA1011+002701061GF101991999999002501999999GJ100009IA1119MA1999999089441ME1314279MW1101REMSYN100AAXX  11064 06612 41358 12109 10015 21017 38944 48427 5//// 71011 333 32/// 55000 81609 90768 93100;
0149066120999992011011107004+47083+006800FM-12+101999999V0202201N003119999999N9999999N1+00071-00211999999ADDMA1999999089411MD1619999+9999ME1314239OA149900931REMSYN088AAXX  11074 06612 33/// /2206 10007 21021 38941 48423 56/// 333 55300 20000 91118 91210;
0112066120999992011011108004+47083+006800FM-12+101999999V0202301N000519999999N9999999N1-00071-00281999999ADDMA1999999089391ME1314199REMSYN076AAXX  11084 06612 33/// /2301 11007 21028 38939 48419 5//// 333 553// 20065;
0096066120999992011011109004+47083+006800FM-12+101999999V0202101N001019999999N9999999N1+00231-00261999999ADDMA1999999089361ME1314219REMSYN060AAXX  11094 06612 43/// /2102 10023 21026 38936 48421 5////;
0149066120999992011011110004+47083+006800FM-12+101999999V0202101N005119999999N9999999N1+00331-00551999999ADDMA1999999089341MD1810071+9999ME1314219OA149900771REMSYN088AAXX  11104 06612 33/// /2110 10033 21055 38934 48421 58007 333 55302 20562 91115 91210;
0149066120999992011011111004+47083+006800FM-12+101999999V0202201N003619999999N9999999N1+00351-00491999999ADDMA1999999089291MD1810101+9999ME1314169OA149900981REMSYN088AAXX  11114 06612 33/// /2207 10035 21049 38929 48416 58010 333 55300 20461 91119 91210;
0172066120999992011011112004+47083+006800FM-12+101999999V0202101N005719999999N0120001N1+00221-00061999999ADDAY171061AY211061GF108991999999017501999999MA1999999089271ME1314139MW1701REMSYN088AAXX  11124 06612 31762 82111 10022 21006 38927 48413 5//// 77071 333 553// 20288 88450;
0155066120999992011011113004+47083+006800FM-12+101999999V0202301N002619999999N9999999N1+00131+00001999999ADDMA1999999089231MD1710111+9999ME1314089OA149901131REMSYN094AAXX  11134 06612 23/// /2305 10013 20000 38923 48408 57011 333 55300 20166 69945 91122 91211;
0096066120999992011011114004+47083+006800FM-12+101999999V0202101N001519999999N9999999N1+00101+00011999999ADDMA1999999089241ME1314089REMSYN060AAXX  11144 06612 43/// /2103 10010 20001 38924 48408 5////;
0096066120999992011011115004+47083+006800FM-12+101999999V0202301N002619999999N9999999N1+00151+00061999999ADDMA1999999089331ME1314179REMSYN060AAXX  11154 06612 43/// /2305 10015 20006 38933 48417 5////;
0155066120999992011011116004+47083+006800FM-12+101999999V0202301N001519999999N9999999N1+00131+00061999999ADDMA1999999089411MD1310181+9999ME1314249OA149900571REMSYN094AAXX  11164 06612 23/// /2303 10013 20006 38941 48424 53018 333 55300 20058 60015 91111 91206;
0155066120999992011011117004+47083+006800FM-12+101999999V0202201N001019999999N9999999N1+00111+00051999999ADDMA1999999089501MD1310241+9999ME1314329OA149900511REMSYN094AAXX  11174 06612 23/// /2202 10011 20005 38950 48432 53024 333 55300 20000 60015 91110 91206;
0318066120999992011011118004+47083+006800FM-12+101999999V0202401N00151002701CN0025001N1+00151+00081999999ADDAA112005191AJ100029199999999AL11200291AY171061AY251061GA1081+002701071GF108991999999002501999999IA1309KA1120M+00371MA1999999089591MD1310261+9999ME1314409MW1501OA149901131REMSYN136AAXX  11184 06612 01325 82403 10015 20008 38959 48440 53026 60052 75075 333 10037 42002 55300 20000 69915 88709 90766 93102 91122 91211;
0155066120999992011011119004+47083+006800FM-12+101999999V0202301N002119999999N9999999N1+00091+00021999999ADDMA1999999089701MD1310291+9999ME1314499OA149900361REMSYN094AAXX  11194 06612 23/// /2304 10009 20002 38970 48449 53029 333 55300 20000 60025 91107 91204;
0155066120999992011011120004+47083+006800FM-12+101999999V0202301N003119999999N9999999N1+00111+00021999999ADDMA1999999089761MD1110261+9999ME1314559OA149900511REMSYN094AAXX  11204 06612 23/// /2306 10011 20002 38976 48455 51026 333 55300 20000 69965 91110 91206;
0149066120999992011011121004+47083+006800FM-12+101999999V0202201N002119999999N9999999N1+00131+00071999999ADDMA1999999089861MD1310271+9999ME1314649OA149900511REMSYN088AAXX  11214 06612 33/// /2204 10013 20007 38986 48464 53027 333 55300 20000 91110 91206;
0149066120999992011011122004+47083+006800FM-12+101999999V0202501N001519999999N9999999N1+00141+00081999999ADDMA1999999089931MD1210231+9999ME1314709OA149900511REMSYN088AAXX  11224 06612 33/// /2503 10014 20008 38993 48470 52023 333 55300 20000 91110 91206;
0155066120999992011011123004+47083+006800FM-12+101999999V0202201N002119999999N9999999N1+00141+00081999999ADDMA1999999089981MD1110221+9999ME1314759OA149900361REMSYN094AAXX  11234 06612 23/// /2204 10014 20008 38998 48475 51022 333 55300 20000 69945 91107 91205;
0172066120999992011011200004+47083+006800FM-12+101999999V0202301N002119999999N9999999N1+00141+00071999999ADDAA106003091MA1999999090031MD1110171+9999ME1314799OA149900931REMSYN100AAXX  12004 06612 03/// /2304 10014 20007 39003 48479 51017 60031 333 55300 20000 69955 91118 91209;
0155066120999992011011201004+47083+006800FM-12+101999999V0202401N002119999999N9999999N1+00151+00051999999ADDMA1999999090081MD1310151+9999ME1314849OA149900511REMSYN094AAXX  12014 06612 23/// /2404 10015 20005 39008 48484 53015 333 55300 20000 69965 91110 91206;
0118066120999992011011202004+47083+006800FM-12+101999999V0202401N001519999999N9999999N1+00131+00051999999ADDMA1999999090181ME1314929REMSYN082AAXX  12024 06612 23/// /2403 10013 20005 39018 48492 5//// 333 553// 20000 69955;
0096066120999992011011203004+47083+006800FM-12+101999999V0202201N001519999999N9999999N1+00091+00021999999ADDMA1999999090231ME1314969REMSYN060AAXX  12034 06612 43/// /2203 10009 20002 39023 48496 5////;
0096066120999992011011204004+47083+006800FM-12+101999999V0202401N003119999999N9999999N1+00151+00071999999ADDMA1999999090271ME1315019REMSYN060AAXX  12044 06612 43/// /2406 10015 20007 39027 48501 5////;
0118066120999992011011205004+47083+006800FM-12+101999999V0202401N002619999999N9999999N1+00131+00021999999ADDMA1999999090331ME1315059REMSYN082AAXX  12054 06612 23/// /2405 10013 20002 39033 48505 5//// 333 553// 20000 69925;
0289066120999992011011206004+47083+006800FM-12+101999999V0202301N002110001519N0001001N1+00101+00001999999ADDAA124009991AJ100029199999999AL19901091AY171061AY251061GA1091+999999999GF109991091999999999999999GJ100789IA1279IA2999+00009KA1999N+00081MA1999999090381ME1315099MW1701REMSYN112AAXX  12064 06612 41/01 92304 10010 20000 39038 48509 5//// 77075 333 20008 3/000 43002 55013 70100 90768 93102;
0155066120999992011011207004+47083+006800FM-12+101999999V0202201N003119999999N9999999N1+00071+00001999999ADDMA1999999090411MD1210141+9999ME1315119OA149900511REMSYN094AAXX  12074 06612 23/// /2206 10007 20000 39041 48511 52014 333 55300 20000 69925 91110 91206;
0096066120999992011011208004+47083+006800FM-12+101999999V0202501N004119999999N9999999N1+00081-00061999999ADDMA1999999090421ME1315129REMSYN060AAXX  12084 06612 43/// /2508 10008 21006 39042 48512 5////;
0096066120999992011011209004+47083+006800FM-12+101999999V0202301N002619999999N9999999N1+00111-00041999999ADDMA1999999090451ME1315169REMSYN060AAXX  12094 06612 43/// /2305 10011 21004 39045 48516 5////;
0149066120999992011011210004+47083+006800FM-12+101999999V0202301N002619999999N9999999N1+00131-00051999999ADDMA1999999090431MD1219999+9999ME1315149OA149900511REMSYN088AAXX  12104 06612 33/// /2305 10013 21005 39043 48514 52/// 333 55300 20364 91110 91206;
0126066120999992011011211004+47083+006800FM-12+101999999V0202401N002119999999N9999999N1+00191+00031999999ADDMA1999999090411MD1010011+9999ME1315149REMSYN076AAXX  12114 06612 33/// /2404 10019 20003 39041 48514 50001 333 55300 20608;
0096066120999992011011212004+47083+006800FM-12+101999999V0202401N002119999999N9999999N1+00211+00001999999ADDMA1999999090381ME1315119REMSYN060AAXX  12124 06612 43/// /2404 10021 20000 39038 48511 5////;
0096066120999992011011213004+47083+006800FM-12+101999999V0202401N003619999999N9999999N1+00211+00001999999ADDMA1999999090371ME1315109REMSYN060AAXX  12134 06612 43/// /2407 10021 20000 39037 48510 5////;
0096066120999992011011214004+47083+006800FM-12+101999999V0202201N002619999999N9999999N1+00221-00051999999ADDMA1999999090381ME1315129REMSYN060AAXX  12144 06612 43/// /2205 10022 21005 39038 48512 5////;
0096066120999992011011215004+47083+006800FM-12+101999999V0202401N002619999999N9999999N1+00161-00071999999ADDMA1999999090401ME1315129REMSYN060AAXX  12154 06612 43/// /2405 10016 21007 39040 48512 5////;
0149066120999992011011216004+47083+006800FM-12+101999999V0202301N002119999999N9999999N1+00221-00061999999ADDMA1999999090401MD1210031+9999ME1315139OA149900461REMSYN088AAXX  12164 06612 33/// /2304 10022 21006 39040 48513 52003 333 55300 20036 91109 91205;
0155066120999992011011217004+47083+006800FM-12+101999999V0202301N002619999999N9999999N1+00201+00101999999ADDMA1999999090421MD1210041+9999ME1315159OA149900461REMSYN094AAXX  12174 06612 23/// /2305 10020 20010 39042 48515 52004 333 55300 20000 69915 91109 91205;
0318066120999992011011218004+47083+006800FM-12+101999999V0202301N00261002401CN0025001N1+00251+00161999999ADDAA112000591AJ100029199999999AL19900091AY171061AY261061GA1081+002401071GF108991999999002501999999IA1309KA1120M+00231MA1999999090441MD1210041+9999ME1315179MW1601OA149900671REMSYN136AAXX  12184 06612 01325 82305 10025 20016 39044 48517 52004 69962 76076 333 10023 42002 55300 20000 60005 88708 90766 93100 91113 91209;
0155066120999992011011219004+47083+006800FM-12+101999999V0202401N002619999999N9999999N1+00281+00201999999ADDMA1999999090461MD1210061+9999ME1315209OA149900621REMSYN094AAXX  12194 06612 23/// /2405 10028 20020 39046 48520 52006 333 55300 20000 69925 91112 91206;
0155066120999992011011220004+47083+006800FM-12+101999999V0202401N002619999999N9999999N1+00291+00221999999ADDMA1999999090451MD1210031+9999ME1315199OA149900621REMSYN094AAXX  12204 06612 23/// /2405 10029 20022 39045 48519 52003 333 55300 20000 69945 91112 91206;
0155066120999992011011221004+47083+006800FM-12+101999999V0202401N003119999999N9999999N1+00371+00301999999ADDMA1999999090471MD1210031+9999ME1315229OA149900621REMSYN094AAXX  12214 06612 23/// /2406 10037 20030 39047 48522 52003 333 55300 20000 60015 91112 91206;
0155066120999992011011222004+47083+006800FM-12+101999999V0202201N003119999999N9999999N1+00451+00371999999ADDMA1999999090471MD1010011+9999ME1315249OA149900621REMSYN094AAXX  12224 06612 23/// /2206 10045 20037 39047 48524 50001 333 55300 20000 60015 91112 91206;
0155066120999992011011223004+47083+006800FM-12+101999999V0202301N003619999999N9999999N1+00521+00441999999ADDMA1999999090481MD1310031+9999ME1315269OA149900881REMSYN094AAXX  12234 06612 23/// /2307 10052 20044 39048 48526 53003 333 55300 20000 60025 91117 91208;
0172066120999992011011300004+47083+006800FM-12+101999999V0202301N004619999999N9999999N1+00561+00451999999ADDAA106007191MA1999999090451MD1810021+9999ME1315249OA149900881REMSYN100AAXX  13004 06612 03/// /2309 10056 20045 39045 48524 58002 60071 333 55300 20000 60025 91117 91209;
0155066120999992011011301004+47083+006800FM-12+101999999V0202301N003619999999N9999999N1+00561+00471999999ADDMA1999999090431MD1810041+9999ME1315229OA149900821REMSYN094AAXX  13014 06612 23/// /2307 10056 20047 39043 48522 58004 333 55300 20000 60025 91116 91209;
0155066120999992011011302004+47083+006800FM-12+101999999V0202301N004619999999N9999999N1+00591+00501999999ADDMA1999999090411MD1719999+9999ME1315219OA149900931REMSYN094AAXX  13024 06612 23/// /2309 10059 20050 39041 48521 57/// 333 55300 20000 69995 91118 91210;
0096066120999992011011303004+47083+006800FM-12+101999999V0202201N003119999999N9999999N1+00581+00511999999ADDMA1999999090401ME1315209REMSYN060AAXX  13034 06612 43/// /2206 10058 20051 39040 48520 5////;
0155066120999992011011304004+47083+006800FM-12+101999999V0202301N003619999999N9999999N1+00591+00511999999ADDMA1999999090421MD1519999+9999ME1315229OA149900721REMSYN094AAXX  13044 06612 23/// /2307 10059 20051 39042 48522 55/// 333 55300 20000 69975 91114 91208;
0118066120999992011011305004+47083+006800FM-12+101999999V0202401N005119999999N9999999N1+00631+00531999999ADDMA1999999090441ME1315259REMSYN082AAXX  13054 06612 23/// /2410 10063 20053 39044 48525 5//// 333 553// 20000 69965;
0343066120999992011011306004+47083+006800FM-12+101999999V0202201N00361002701CN0020001N1+00621+00541999999ADDAA112011991AL13001291AL29900091AY161061AY251061GA1081+002701071GF108991999999002501999999GJ100009IA1119IA2999+00209KA1999N+00231MA1999999090441MD1210041+9999ME1315249MW1531OA149900931REMSYN148AAXX  13064 06612 01320 82207 10062 20054 39044 48524 52004 60122 75365 333 20023 32002 55000 55300 20000 69915 70125 88709 90768 93100 91118 91210;
0096066120999992011011307004+47083+006800FM-12+101999999V0202201N003619999999N9999999N1+00621+00531999999ADDMA1999999090471ME1315279REMSYN060AAXX  13074 06612 43/// /2207 10062 20053 39047 48527 5////;
0096066120999992011011308004+47083+006800FM-12+101999999V0202201N004119999999N9999999N1+00631+00521999999ADDMA1999999090501ME1315309REMSYN060AAXX  13084 06612 43/// /2208 10063 20052 39050 48530 5////;
0096066120999992011011309004+47083+006800FM-12+101999999V0202401N004619999999N9999999N1+00631+00531999999ADDMA1999999090521ME1315329REMSYN060AAXX  13094 06612 43/// /2409 10063 20053 39052 48532 5////;
0096066120999992011011310004+47083+006800FM-12+101999999V0202301N004119999999N9999999N1+00641+00541999999ADDMA1999999090551ME1315359REMSYN060AAXX  13104 06612 43/// /2308 10064 20054 39055 48535 5////;
0096066120999992011011311004+47083+006800FM-12+101999999V0202401N003619999999N9999999N1+00701+00581999999ADDMA1999999090521ME1315339REMSYN060AAXX  13114 06612 43/// /2407 10070 20058 39052 48533 5////;
0096066120999992011011312004+47083+006800FM-12+101999999V0202401N004119999999N9999999N1+00741+00631999999ADDMA1999999090461ME1315289REMSYN060AAXX  13124 06612 43/// /2408 10074 20063 39046 48528 5////;
0096066120999992011011313004+47083+006800FM-12+101999999V0202301N004119999999N9999999N1+00771+00661999999ADDMA1999999090441ME1315279REMSYN060AAXX  13134 06612 43/// /2308 10077 20066 39044 48527 5////;
0096066120999992011011314004+47083+006800FM-12+101999999V0202301N002119999999N9999999N1+00751+00671999999ADDMA1999999090431ME1315269REMSYN060AAXX  13144 06612 43/// /2304 10075 20067 39043 48526 5////;
0096066120999992011011315004+47083+006800FM-12+101999999V0202301N002119999999N9999999N1+00771+00671999999ADDMA1999999090451ME1315289REMSYN060AAXX  13154 06612 43/// /2304 10077 20067 39045 48528 5////;
0096066120999992011011316004+47083+006800FM-12+101999999V0202201N002119999999N9999999N1+00761+00691999999ADDMA1999999090471ME1315309REMSYN060AAXX  13164 06612 43/// /2204 10076 20069 39047 48530 5////;
0155066120999992011011317004+47083+006800FM-12+101999999V0202301N002619999999N9999999N1+00751+00661999999ADDMA1999999090491MD1210061+9999ME1315319OA149900511REMSYN094AAXX  13174 06612 23/// /2305 10075 20066 39049 48531 52006 333 55300 20000 60025 91110 91205;
0191066120999992011011318004+47083+006800FM-12+101999999V0202401N003619999999N9999999N1+00741+00651999999ADDAA112005191KA1120M+00771MA1999999090491MD1210041+9999ME1315319OA149900881REMSYN106AAXX  13184 06612 03/// /2407 10074 20065 39049 48531 52004 60052 333 10077 55300 20000 69915 91117 91210;
0149066120999992011011319004+47083+006800FM-12+101999999V0202401N004119999999N9999999N1+00731+00631999999ADDMA1999999090481MD1010011+9999ME1315309OA149900771REMSYN088AAXX  13194 06612 33/// /2408 10073 20063 39048 48530 50001 333 55300 20000 91115 91208;
0155066120999992011011320004+47083+006800FM-12+101999999V0202401N005719999999N9999999N1+00701+00601999999ADDMA1999999090451MD1710041+9999ME1315279OA149900931REMSYN094AAXX  13204 06612 23/// /2411 10070 20060 39045 48527 57004 333 55300 20000 69915 91118 91211;
0149066120999992011011321004+47083+006800FM-12+101999999V0202401N004619999999N9999999N1+00691+00581999999ADDMA1999999090461MD1710031+9999ME1315279OA149901131REMSYN088AAXX  13214 06612 33/// /2409 10069 20058 39046 48527 57003 333 55300 20000 91122 91212;
0149066120999992011011322004+47083+006800FM-12+101999999V0202301N003119999999N9999999N1+00691+00551999999ADDMA1999999090451MD1710031+9999ME1315279OA149901131REMSYN088AAXX  13224 06612 33/// /2306 10069 20055 39045 48527 57003 333 55300 20000 91122 91212;
0155066120999992011011323004+47083+006800FM-12+101999999V0202401N004119999999N9999999N1+00661+00541999999ADDMA1999999090461MD1210011+9999ME1315279OA149900881REMSYN094AAXX  13234 06612 23/// /2408 10066 20054 39046 48527 52001 333 55300 20000 69915 91117 91211;
0191066120999992011011400004+47083+006800FM-12+101999999V0202401N003619999999N9999999N1+00641+00491999999ADDAA106000091MA1999999090441MD1710021+9999ME1315259OA149901131REMSYN100AAXX  14004 06612 03/// /2407 10064 20049 39044 48525 57002 69921 333 55300 20000 60005 91122 91212;EQDQ01  00002PRCP06
0149066120999992011011401004+47083+006800FM-12+101999999V0202301N004119999999N9999999N1+00611+00471999999ADDMA1999999090441MD1710011+9999ME1315249OA149901081REMSYN088AAXX  14014 06612 33/// /2308 10061 20047 39044 48524 57001 333 55300 20000 91121 91209;
0112066120999992011011402004+47083+006800FM-12+101999999V0202401N004119999999N9999999N1+00591+00461999999ADDMA1999999090471ME1315269REMSYN076AAXX  14024 06612 33/// /2408 10059 20046 39047 48526 5//// 333 553// 20000;
0149066120999992011011403004+47083+006800FM-12+101999999V0202401N003119999999N9999999N1+00561+00411999999ADDMA1999999090461MD1010021+9999ME1315259OA149901081REMSYN088AAXX  14034 06612 33/// /2406 10056 20041 39046 48525 50002 333 55300 20000 91121 91211;
0168066120999992011011404004+47083+006800FM-12+101999999V0202401N001519999999N9999999N1+00541+00381999999ADDMA1999999090441MD1410001+9999ME1315239OA149900671REMSYN088AAXX  14044 06612 33/// /2403 10054 20038 39044 48523 58000 333 55300 20000 91113 91208;EQDQ01+000082APCTEN
0149066120999992011011405004+47083+006800FM-12+101999999V0202301N001519999999N9999999N1+00531+00381999999ADDMA1999999090461MD1510011+9999ME1315249OA149900621REMSYN088AAXX  14054 06612 33/// /2303 10053 20038 39046 48524 55001 333 55300 20000 91112 91206;
0362066120999992011011406004+47083+006800FM-12+101999999V0202301N00151003901CN0080001N1+00511+00391999999ADDAA112000091AL11800591AL29900091AY111061AY211061GA1081+003901071GF108991999999004501999999GJ100009IA1119IA2999+00509KA1999N+00521MA1999999090441MD1710021+9999ME1315229MW1101OA149901131REMSYN148AAXX  14064 06612 01458 82303 10051 20039 39044 48522 57002 69922 71011 333 20052 32005 55000 55300 20000 60005 70053 88713 90768 93100 91122 91212;EQDQ01  00002PRCP12
0149066120999992011011407004+47083+006800FM-12+101999999V0202401N001519999999N9999999N1+00511+00411999999ADDMA1999999090461MD1210021+9999ME1315249OA149900511REMSYN088AAXX  14074 06612 33/// /2403 10051 20041 39046 48524 52002 333 55300 20000 91110 91206;
0096066120999992011011408004+47083+006800FM-12+101999999V0202401N000519999999N9999999N1+00501+00411999999ADDMA1999999090441ME1315229REMSYN060AAXX  14084 06612 43/// /2401 10050 20041 39044 48522 5////;
0096066120999992011011409004+47083+006800FM-12+101999999V0202301N001519999999N9999999N1+00551+00421999999ADDMA1999999090431ME1315229REMSYN060AAXX  14094 06612 43/// /2303 10055 20042 39043 48522 5////;
0096066120999992011011410004+47083+006800FM-12+101999999V0202601N001519999999N9999999N1+00571+00411999999ADDMA1999999090411ME1315219REMSYN060AAXX  14104 06612 43/// /2603 10057 20041 39041 48521 5////;
0149066120999992011011411004+47083+006800FM-12+101999999V0202401N001519999999N9999999N1+00551+00371999999ADDMA1999999090411MD1710031+9999ME1315209OA149900361REMSYN088AAXX  14114 06612 33/// /2403 10055 20037 39041 48520 57003 333 55300 20238 91107 91204;
0197066120999992011011412004+47083+006800FM-12+101999999V0202501N00151003901CN0160001N1+00591+00401999999ADDGA1081+003901071GF108991999999004501999999MA1999999090361MD1710071+9999ME1315179OA149901081REMSYN094AAXX  14124 06612 32466 82503 10059 20040 39036 48517 57007 333 55300 20353 88713 91121 91209;
0149066120999992011011413004+47083+006800FM-12+101999999V0202801N002119999999N9999999N1+00581+00351999999ADDMA1999999090321MD1710091+9999ME1315139OA149900411REMSYN088AAXX  14134 06612 33/// /2804 10058 20035 39032 48513 57009 333 55300 20410 91108 91204;
0112066120999992011011414004+47083+006800FM-12+101999999V0202501N001519999999N9999999N1+00611+00351999999ADDMA1999999090271ME1315099REMSYN076AAXX  14144 06612 33/// /2503 10061 20035 39027 48509 5//// 333 553// 20439;
0149066120999992011011415004+47083+006800FM-12+101999999V0202401N001019999999N9999999N1+00611+00371999999ADDMA1999999090241MD1610121+9999ME1315069OA149900411REMSYN088AAXX  14154 06612 33/// /2402 10061 20037 39024 48506 56012 333 55307 20619 91108 91204;
0149066120999992011011416004+47083+006800FM-12+101999999V0203101N001019999999N9999999N1+00471+00331999999ADDMA1999999090221MD1610101+9999ME1315029OA149900361REMSYN088AAXX  14164 06612 33/// /3102 10047 20033 39022 48502 56010 333 55300 20137 91107 91204;
0149066120999992011011417004+47083+006800FM-12+101999999V0202701N000519999999N9999999N1+00311+00191999999ADDMA1999999090241MD1510031+9999ME1315019OA149900261REMSYN088AAXX  14174 06612 33/// /2701 10031 20019 39024 48501 55003 333 55300 20000 91105 91203;
0278066120999992011011418004+47083+006800FM-12+101999999V0202501N00151027001CN0100001N1+00261+00191999999ADDAL19900091AY121061AY221061GA1061+027001031GF106991999999999999999999IA1119KA1120M+00661MA1999999090251MD1310011+9999ME1315019MW1101OA149900411REMSYN124AAXX  14184 06612 31960 62503 10026 20019 39025 48501 53001 71022 333 10066 32/// 55300 20000 86359 90766 93100 91108 91204;
0149066120999992011011419004+47083+006800FM-12+101999999V0202301N001519999999N9999999N1+00211+00141999999ADDMA1999999090241MD1010021+9999ME1314999OA149900311REMSYN088AAXX  14194 06612 33/// /2303 10021 20014 39024 48499 50002 333 55300 20000 91106 91204;
0149066120999992011011420004+47083+006800FM-12+101999999V0202701N001519999999N9999999N1+00351+00181999999ADDMA1999999090291MD1210051+9999ME1315069OA149900311REMSYN088AAXX  14204 06612 33/// /2703 10035 20018 39029 48506 52005 333 55300 20000 91106 91204;
0149066120999992011011421004+47083+006800FM-12+101999999V0202401N005119999999N9999999N1+00511+00241999999ADDMA1999999090331MD1210081+9999ME1315129OA149900981REMSYN088AAXX  14214 06612 33/// /2410 10051 20024 39033 48512 52008 333 55300 20000 91119 91210;
0149066120999992011011422004+47083+006800FM-12+101999999V0202501N008719999999N9999999N1+00531+00271999999ADDMA1999999090381MD1210141+9999ME1315179OA149901751REMSYN088AAXX  14224 06612 33/// /2517 10053 20027 39038 48517 52014 333 55300 20000 91134 91217;
0149066120999992011011423004+47083+006800FM-12+101999999V0202401N005719999999N9999999N1+00491+00311999999ADDMA1999999090501MD1210211+9999ME1315279OA149901751REMSYN088AAXX  14234 06612 33/// /2411 10049 20031 39050 48527 52021 333 55300 20000 91134 91217;
0172066120999992011011500004+47083+006800FM-12+101999999V0202401N005119999999N9999999N1+00511+00381999999ADDAA106001091MA1999999090541MD1210211+9999ME1315319OA149901751REMSYN100AAXX  15004 06612 03/// /2410 10051 20038 39054 48531 52021 60011 333 55300 20000 60015 91134 91217;
0155066120999992011011501004+47083+006800FM-12+101999999V0202401N004119999999N9999999N1+00481+00361999999ADDMA1999999090591MD1210211+9999ME1315359OA149901291REMSYN094AAXX  15014 06612 23/// /2408 10048 20036 39059 48535 52021 333 55300 20000 69965 91125 91212;
0155066120999992011011502004+47083+006800FM-12+101999999V0202401N004119999999N9999999N1+00481+00341999999ADDMA1999999090651MD1319999+9999ME1315409OA149901131REMSYN094AAXX  15024 06612 23/// /2408 10048 20034 39065 48540 53/// 333 55300 20000 69925 91122 91212;
0112066120999992011011503004+47083+006800FM-12+101999999V0202801N003119999999N9999999N1+00391+00191999999ADDMA1999999090731ME1315469REMSYN076AAXX  15034 06612 33/// /2806 10039 20019 39073 48546 5//// 333 553// 20000;
0149066120999992011011504004+47083+006800FM-12+101999999V0202301N002119999999N9999999N1+00381+00231999999ADDMA1999999090791MD1110201+9999ME1315519OA149900981REMSYN088AAXX  15044 06612 33/// /2304 10038 20023 39079 48551 51020 333 55300 20000 91119 91211;
0155066120999992011011505004+47083+006800FM-12+101999999V0202301N001519999999N9999999N1+00371+00261999999ADDMA1999999090851MD1110201+9999ME1315569OA149900621REMSYN094AAXX  15054 06612 23/// /2303 10037 20026 39085 48556 51020 333 55300 20000 69915 91112 91206;
0343066120999992011011506004+47083+006800FM-12+101999999V0202101N00101003901CN0060001N1+00261+00181999999ADDAA112002091AL12400291AL29900091AY161061AY211061GA1051+003901071GF105991999999004501999999GJ100429IA1119IA2999+00109KA1999N+00191MA1999999090911MD1310181+9999ME1315599MW1601OA149901751REMSYN148AAXX  15064 06612 01456 52102 10026 20018 39091 48559 53018 60022 76061 333 20019 32001 55007 55300 20000 69915 70024 85713 90768 93100 91134 91217;
0149066120999992011011507004+47083+006800FM-12+101999999V0202501N001519999999N9999999N1+00221+00131999999ADDMA1999999090891MD1210101+9999ME1315569OA149900361REMSYN088AAXX  15074 06612 33/// /2503 10022 20013 39089 48556 52010 333 55300 20000 91107 91204;
0149066120999992011011508004+47083+006800FM-12+101999999V0202001N001019999999N9999999N1+00251+00161999999ADDMA1999999090931MD1219999+9999ME1315619OA149900311REMSYN088AAXX  15084 06612 33/// /2002 10025 20016 39093 48561 52/// 333 55300 20047 91106 91203;
0149066120999992011011509004+47083+006800FM-12+101999999V0202101N002619999999N9999999N1+00351+00201999999ADDMA1999999090981MD1310071+9999ME1315679OA149900621REMSYN088AAXX  15094 06612 33/// /2105 10035 20020 39098 48567 53007 333 55301 20234 91112 91206;
0149066120999992011011510004+47083+006800FM-12+101999999V0202501N003619999999N9999999N1+00491+00201999999ADDMA1999999090961MD1010071+9999ME1315689OA149900511REMSYN088AAXX  15104 06612 33/// /2507 10049 20020 39096 48568 50007 333 55309 20882 91110 91207;
0149066120999992011011511004+47083+006800FM-12+101999999V0202201N002619999999N9999999N1+00561+00081999999ADDMA1999999090931MD1010001+9999ME1315679OA149900571REMSYN088AAXX  15114 06612 33/// /2205 10056 20008 39093 48567 50000 333 553// 2//// 91111 91207;
0149066120999992011011512004+47083+006800FM-12+101999999V0202901N001519999999N9999999N1+00571+00161999999ADDMA1999999090901MD1710081+9999ME1315649OA149901131REMSYN088AAXX  15124 06612 33/// /2903 10057 20016 39090 48564 57008 333 553// 2//// 91122 91212;
0112066120999992011011513004+47083+006800FM-12+101999999V0202201N001519999999N9999999N1+00631+00211999999ADDMA1999999090871ME1315639REMSYN076AAXX  15134 06612 33/// /2203 10063 20021 39087 48563 5//// 333 553// 2////;
0096066120999992011011514004+47083+006800FM-12+101999999V0202101N002119999999N9999999N1+00701+00221999999ADDMA1999999090871ME1315649REMSYN060AAXX  15144 06612 43/// /2104 10070 20022 39087 48564 5////;
0096066120999992011011515004+47083+006800FM-12+101999999V0202201N001019999999N9999999N1+00641+00221999999ADDMA1999999090931ME1315689REMSYN060AAXX  15154 06612 43/// /2202 10064 20022 39093 48568 5////;
0096066120999992011011516004+47083+006800FM-12+101999999V0202601N001019999999N9999999N1+00431+00221999999ADDMA1999999090921ME1315639REMSYN060AAXX  15164 06612 43/// /2602 10043 20022 39092 48563 5////;
0112066120999992011011517004+47083+006800FM-12+101999999V0209999C000019999999N9999999N1+00201+00091999999ADDMA1999999090951ME1315619REMSYN076AAXX  15174 06612 33/// /0000 10020 20009 39095 48561 5//// 333 553// 20004;
0201066120999992011011518004+47083+006800FM-12+101999999V0203301N000512200019N0210001N1+00171+00041999999ADDAL10600091GA1031+036001031GF103991999999999999999999IA1119KA1120M+00701MA1999999090961ME1315629REMSYN094AAXX  15184 06612 42971 33301 10017 20004 39096 48562 5//// 333 10070 32/// 83362 90766 93100;
0096066120999992011011519004+47083+006800FM-12+101999999V0209999C000019999999N9999999N1+00061-00051999999ADDMA1999999090971ME1315609REMSYN060AAXX  15194 06612 43/// /0000 10006 21005 39097 48560 5////;
0096066120999992011011520004+47083+006800FM-12+101999999V0209999C000019999999N9999999N1-00011-00211999999ADDMA1999999090971ME1315599REMSYN060AAXX  15204 06612 43/// /0000 11001 21021 39097 48559 5////;
0149066120999992011011521004+47083+006800FM-12+101999999V0201701N000519999999N9999999N1-00031-00241999999ADDMA1999999090971MD1010011+9999ME1315589OA149900211REMSYN088AAXX  15214 06612 33/// /1701 11003 21024 39097 48558 50001 333 55300 20000 91104 91203;
0149066120999992011011522004+47083+006800FM-12+101999999V0202501N000519999999N9999999N1-00111-00271999999ADDMA1999999090951MD1710021+9999ME1315559OA149900151REMSYN088AAXX  15224 06612 33/// /2501 11011 21027 39095 48555 57002 333 55300 20000 91103 91201;
0149066120999992011011523004+47083+006800FM-12+101999999V0209999C000019999999N9999999N1+00081-00341999999ADDMA1999999090921MD1710051+9999ME1315569OA149900211REMSYN088AAXX  15234 06612 33/// /0000 10008 21034 39092 48556 57005 333 55300 20000 91104 91201;
0149066120999992011011600004+47083+006800FM-12+101999999V0209999C000019999999N9999999N1-00051-00281999999ADDMA1999999090881MD1810091+9999ME1315509OA149900411REMSYN088AAXX  16004 06612 33/// /0000 11005 21028 39088 48550 58009 333 55300 20000 91108 91205;
0149066120999992011011601004+47083+006800FM-12+101999999V0202401N001019999999N9999999N1-00081-00341999999ADDMA1999999090871MD1710081+9999ME1315499OA149900151REMSYN088AAXX  16014 06612 33/// /2402 11008 21034 39087 48549 57008 333 55300 20000 91103 91202;
0149066120999992011011602004+47083+006800FM-12+101999999V0209999C000019999999N9999999N1-00061-00341999999ADDMA1999999090891MD1519999+9999ME1315519OA149900261REMSYN088AAXX  16024 06612 33/// /0000 11006 21034 39089 48551 55/// 333 55300 20000 91105 91203;
0096066120999992011011603004+47083+006800FM-12+101999999V0209999C000019999999N9999999N1-00251-00401999999ADDMA1999999090891ME1315479REMSYN060AAXX  16034 06612 43/// /0000 11025 21040 39089 48547 5////;
0149066120999992011011604004+47083+006800FM-12+101999999V0202301N001019999999N9999999N1-00161-00331999999ADDMA1999999090911MD1210041+9999ME1315509OA149900211REMSYN088AAXX  16044 06612 33/// /2302 11016 21033 39091 48550 52004 333 55300 20000 91104 91203;
0149066120999992011011605004+47083+006800FM-12+101999999V0202401N001019999999N9999999N1-00231-00381999999ADDMA1999999090931MD1210041+9999ME1315519OA149900211REMSYN088AAXX  16054 06612 33/// /2402 11023 21038 39093 48551 52004 333 55300 20000 91104 91203;
0304066120999992011011606004+47083+006800FM-12+101999999V0209999C000012200019N0080001N1-00231-00341999999ADDAL19900091AY101061AY201061GA1001+999999999GF100991001001999999001001GJ103969IA1119IA2999-00509KA1999N-00351MA1999999090931MD1210041+9999ME1315519MW1101OA149900261REMSYN130AAXX  16064 06612 31/58 00000 11023 21034 39093 48551 52004 71000 333 21035 32105 55066 55300 20000 70000 90768 93100 91105 91203;
0149066120999992011011607004+47083+006800FM-12+101999999V0209999C000019999999N9999999N1-00161-00301999999ADDMA1999999090931MD1010021+9999ME1315529OA149900151REMSYN088AAXX  16074 06612 33/// /0000 11016 21030 39093 48552 50002 333 55300 20000 91103 91202;
0149066120999992011011608004+47083+006800FM-12+101999999V0202301N000519999999N9999999N1-00251-00411999999ADDMA1999999090921MD1719999+9999ME1315509OA149900151REMSYN088AAXX  16084 06612 33/// /2301 11025 21041 39092 48550 57/// 333 55302 20061 91103 91201;
0149066120999992011011609004+47083+006800FM-12+101999999V0202301N001019999999N9999999N1+00101-00191999999ADDMA1999999090911MD1710021+9999ME1315569OA149900211REMSYN088AAXX  16094 06612 33/// /2302 10010 21019 39091 48556 57002 333 553// 20500 91104 91203;
0149066120999992011011610004+47083+006800FM-12+101999999V0202101N000519999999N9999999N1+00451-00081999999ADDMA1999999090921MD1510011+9999ME1315649OA149900151REMSYN088AAXX  16104 06612 33/// /2101 10045 21008 39092 48564 55001 333 553// 20958 91103 91202;
0149066120999992011011611004+47083+006800FM-12+101999999V0202501N001519999999N9999999N1+00781-00231999999ADDMA1999999090911MD1010011+9999ME1315709OA149900261REMSYN088AAXX  16114 06612 33/// /2503 10078 21023 39091 48570 50001 333 553// 2//// 91105 91203;
0149066120999992011011612004+47083+006800FM-12+101999999V0202101N001519999999N9999999N1+01081-00061999999ADDMA1999999090881MD1710031+9999ME1315739OA149900261REMSYN088AAXX  16124 06612 33/// /2103 10108 21006 39088 48573 57003 333 553// 2//// 91105 91203;
0149066120999992011011613004+47083+006800FM-12+101999999V0202201N001019999999N9999999N1+01151-00431999999ADDMA1999999090841MD1810081+9999ME1315719OA149900211REMSYN088AAXX  16134 06612 33/// /2202 10115 21043 39084 48571 58008 333 553// 2//// 91104 91203;
0149066120999992011011614004+47083+006800FM-12+101999999V0202601N000519999999N9999999N1+01141-00141999999ADDMA1999999090821MD1719999+9999ME1315699OA149900261REMSYN088AAXX  16144 06612 33/// /2601 10114 21014 39082 48569 57/// 333 553// 2//// 91105 91203;
0149066120999992011011615004+47083+006800FM-12+101999999V0209999C000019999999N9999999N1+01001-00041999999ADDMA1999999090821MD1710061+9999ME1315669OA149900261REMSYN088AAXX  16154 06612 33/// /0000 10100 21004 39082 48566 57006 333 553// 20738 91105 91203;
0149066120999992011011616004+47083+006800FM-12+101999999V0209999C000019999999N9999999N1+00551-00161999999ADDMA1999999090831MD1510011+9999ME1315589OA149900151REMSYN088AAXX  16164 06612 33/// /0000 10055 21016 39083 48558 55001 333 55307 20238 91103 91201;
0149066120999992011011617004+47083+006800FM-12+101999999V0209999C000019999999N9999999N1+00331-00291999999ADDMA1999999090831MD1310011+9999ME1315539OA149900151REMSYN088AAXX  16174 06612 33/// /0000 10033 21029 39083 48553 53001 333 55300 20004 91103 91201;
0168066120999992011011618004+47083+006800FM-12+101999999V0202601N001019999999N9999999N1+00141-00351999999ADDKA1120M+01161MA1999999090881MD1210061+9999ME1315549OA149900261REMSYN094AAXX  16184 06612 33/// /2602 10014 21035 39088 48554 52006 333 10116 55300 20000 91105 91203;
0149066120999992011011619004+47083+006800FM-12+101999999V0202301N002119999999N9999999N1+00111-00311999999ADDMA1999999090901MD1210071+9999ME1315559OA149900311REMSYN088AAXX  16194 06612 33/// /2304 10011 21031 39090 48555 52007 333 55300 20000 91106 91204;
0149066120999992011011620004+47083+006800FM-12+101999999V0202301N001019999999N9999999N1+00101-00321999999ADDMA1999999090931MD1210101+9999ME1315579OA149900361REMSYN088AAXX  16204 06612 33/// /2302 10010 21032 39093 48557 52010 333 55300 20000 91107 91205;
0149066120999992011011621004+47083+006800FM-12+101999999V0202401N000519999999N9999999N1+00101-00441999999ADDMA1999999090921MD1210041+9999ME1315579OA149900361REMSYN088AAXX  16214 06612 33/// /2401 10010 21044 39092 48557 52004 333 55300 20000 91107 91205;
0149066120999992011011622004+47083+006800FM-12+101999999V0202301N001019999999N9999999N1+00121-00411999999ADDMA1999999090921MD1010021+9999ME1315579OA149900211REMSYN088AAXX  16224 06612 33/// /2302 10012 21041 39092 48557 50002 333 55300 20000 91104 91203;
0149066120999992011011623004+47083+006800FM-12+101999999V0202501N000519999999N9999999N1+00201-00341999999ADDMA1999999090931MD1410001+9999ME1315609OA149900211REMSYN088AAXX  16234 06612 33/// /2501 10020 21034 39093 48560 54000 333 55300 20000 91104 91203;
0149066120999992011011700004+47083+006800FM-12+101999999V0209999C000019999999N9999999N1+00011-00351999999ADDMA1999999090921MD1410001+9999ME1315559OA149900361REMSYN088AAXX  17004 06612 33/// /0000 10001 21035 39092 48555 54000 333 55300 20000 91107 91205;
0149066120999992011011701004+47083+006800FM-12+101999999V0209999C000019999999N9999999N1+00051-00361999999ADDMA1999999090901MD1710021+9999ME1315549OA149900101REMSYN088AAXX  17014 06612 33/// /0000 10005 21036 39090 48554 57002 333 55300 20000 91102 91201;
0149066120999992011011702004+47083+006800FM-12+101999999V0209999C000019999999N9999999N1+00111-00321999999ADDMA1999999090881MD1819999+9999ME1315539OA149900101REMSYN088AAXX  17024 06612 33/// /0000 10011 21032 39088 48553 58/// 333 55300 20000 91102 91201;
0112066120999992011011703004+47083+006800FM-12+101999999V0200601N000519999999N9999999N1-00211-00411999999ADDMA1999999090861ME1315459REMSYN076AAXX  17034 06612 33/// /0601 11021 21041 39086 48545 5//// 333 553// 20000;
0149066120999992011011704004+47083+006800FM-12+101999999V0209999C000019999999N9999999N1-00111-00371999999ADDMA1999999090821MD1810081+9999ME1315449OA149900101REMSYN088AAXX  17044 06612 33/// /0000 11011 21037 39082 48544 58008 333 55300 20000 91102 91201;
0149066120999992011011705004+47083+006800FM-12+101999999V0209999C000019999999N9999999N1-00181-00391999999ADDMA1999999090781MD1810101+9999ME1315399OA149900051REMSYN088AAXX  17054 06612 33/// /0000 11018 21039 39078 48539 58010 333 55300 20000 91101 91201;
0276066120999992011011706004+47083+006800FM-12+101999999V0202301N001512200019N0160001N1-00091-00341999999ADDAL19900091GA1001+999999999GF100991001001999999001001GJ104749IA1119IA2999-00509KA1999N-00231MA1999999090771MD1710091+9999ME1315409OA149900361REMSYN124AAXX  17064 06612 32/66 02303 11009 21034 39077 48540 57009 333 21023 32105 55079 55300 20000 70000 90768 93100 91107 91205;
0149066120999992011011707004+47083+006800FM-12+101999999V0202401N001019999999N9999999N1-00111-00371999999ADDMA1999999090751MD1710071+9999ME1315389OA149900311REMSYN088AAXX  17074 06612 33/// /2402 11011 21037 39075 48538 57007 333 55300 20000 91106 91204;
0096066120999992011011708004+47083+006800FM-12+101999999V0202401N001519999999N9999999N1-00061-00321999999ADDMA1999999090771ME1315409REMSYN060AAXX  17084 06612 43/// /2403 11006 21032 39077 48540 5////;
0096066120999992011011709004+47083+006800FM-12+101999999V0202301N001019999999N9999999N1+00191-00291999999ADDMA1999999090771ME1315459REMSYN060AAXX  17094 06612 43/// /2302 10019 21029 39077 48545 5////;
0149066120999992011011710004+47083+006800FM-12+101999999V0202501N001019999999N9999999N1+00381-00151999999ADDMA1999999090801MD1210051+9999ME1315529OA149900261REMSYN088AAXX  17104 06612 33/// /2502 10038 21015 39080 48552 52005 333 55308 20918 91105 91203;
0149066120999992011011711004+47083+006800FM-12+101999999V0202301N002119999999N9999999N1+00771-00131999999ADDMA1999999090791MD1210021+9999ME1315599OA149900461REMSYN088AAXX  17114 06612 33/// /2304 10077 21013 39079 48559 52002 333 553// 2//// 91109 91205;
0197066120999992011011712004+47083+006800FM-12+101999999V0202301N005112200019N0300001N1+00971-00071999999ADDGA1011+054001011GF101991999999999999999999MA1999999090751MD1810021+9999ME1315599OA149901181REMSYN094AAXX  17124 06612 32980 12310 10097 21007 39075 48559 58002 333 553// 2//// 81168 91123 91210;
0149066120999992011011713004+47083+006800FM-12+101999999V0202401N003619999999N9999999N1+01001+00071999999ADDMA1999999090751MD1710051+9999ME1315609OA149901181REMSYN088AAXX  17134 06612 33/// /2407 10100 20007 39075 48560 57005 333 553// 2//// 91123 91212;
0096066120999992011011714004+47083+006800FM-12+101999999V0202401N004119999999N9999999N1+00891+00091999999ADDMA1999999090791ME1315619REMSYN060AAXX  17144 06612 43/// /2408 10089 20009 39079 48561 5////;
0096066120999992011011715004+47083+006800FM-12+101999999V0202201N003619999999N9999999N1+00811+00081999999ADDMA1999999090831ME1315639REMSYN060AAXX  17154 06612 43/// /2207 10081 20008 39083 48563 5////;
0149066120999992011011716004+47083+006800FM-12+101999999V0202501N002619999999N9999999N1+00631+00071999999ADDMA1999999090861MD1110111+9999ME1315629OA149900721REMSYN088AAXX  17164 06612 33/// /2505 10063 20007 39086 48562 51011 333 55304 20245 91114 91208;
