0140066160999992011010100004+47433+006950FM-12+059799999V0200801N002119999999N9999999N1-00101-00201102411ADDMA1999999095071MD1710071+9999OA149900571REMSYN088AAXX  01004 06616 33/// /0804 11010 21020 39507 40241 57007 333 55300 20000 91111 91206;
0140066160999992011010101004+47433+006950FM-12+059799999V0200901N001019999999N9999999N1-00121-00201102361ADDMA1999999095021MD1710111+9999OA149900361REMSYN088AAXX  01014 06616 33/// /0902 11012 21020 39502 40236 57011 333 55300 20000 91107 91204;
0140066160999992011010102004+47433+006950FM-12+059799999V0201201N001019999999N9999999N1-00161-00211102361ADDMA1999999095011MD1710111+9999OA149900311REMSYN088AAXX  01024 06616 33/// /1202 11016 21021 39501 40236 57011 333 55300 20000 91106 91203;
0140066160999992011010103004+47433+006950FM-12+059799999V0209999C000019999999N9999999N1-00161-00231102331ADDMA1999999094981MD1710091+9999OA149900411REMSYN088AAXX  01034 06616 33/// /0000 11016 21023 39498 40233 57009 333 55300 20000 91108 91205;
0140066160999992011010104004+47433+006950FM-12+059799999V0203101N001019999999N9999999N1-00171-00221102341ADDMA1999999094991MD1710031+9999OA149900211REMSYN088AAXX  01044 06616 33/// /3102 11017 21022 39499 40234 57003 333 55300 20000 91104 91202;
0159066160999992011010105004+47433+006950FM-12+059799999V0209999C000019999999N9999999N1-00151-00201102361ADDMA1999999095011MD1410001+9999OA149900211REMSYN088AAXX  01054 06616 33/// /0000 11015 21020 39501 40236 53000 333 55300 20000 91104 91202;EQDQ01+000032APCTEN
0207066160999992011010106004+47433+006950FM-12+059799999V0201701N000519999999N9999999N1-00141-00181102351ADDAL19900091GJ100009IA2999-00209KA1999N-00191MA1999999095011MD1210031+9999OA149900511REMSYN112AAXX  01064 06616 33/// /1701 11014 21018 39501 40235 52003 333 21019 3/102 55000 55300 20000 70000 91110 91206;
0140066160999992011010107004+47433+006950FM-12+059799999V0202501N000519999999N9999999N1-00141-00201102371ADDMA1999999095031MD1210041+9999OA149900151REMSYN088AAXX  01074 06616 33/// /2501 11014 21020 39503 40237 52004 333 55300 20000 91103 91202;
0140066160999992011010108004+47433+006950FM-12+059799999V0201901N000519999999N9999999N1-00121-00181102401ADDMA1999999095061MD1219999+9999OA149900151REMSYN088AAXX  01084 06616 33/// /1901 11012 21018 39506 40240 52/// 333 55300 20000 91103 91202;
0087066160999992011010109004+47433+006950FM-12+059799999V0201101N000519999999N9999999N1-00061-00101102381ADDMA1999999095061REMSYN060AAXX  01094 06616 43/// /1101 11006 21010 39506 40238 5////;
0087066160999992011010110004+47433+006950FM-12+059799999V0201101N000519999999N9999999N1-00031-00121102381ADDMA1999999095061REMSYN060AAXX  01104 06616 43/// /1101 11003 21012 39506 40238 5////;
0140066160999992011010111004+47433+006950FM-12+059799999V0209999C000019999999N9999999N1-00041-00121102311ADDMA1999999095001MD1810061+9999OA149900151REMSYN088AAXX  01114 06616 33/// /0000 11004 21012 39500 40231 58006 333 55300 20274 91103 91201;
0087066160999992011010112004+47433+006950FM-12+059799999V0203101N001519999999N9999999N1-00041-00141102271ADDMA1999999094961REMSYN060AAXX  01124 06616 43/// /3103 11004 21014 39496 40227 5////;
0087066160999992011010113004+47433+006950FM-12+059799999V0209999C000019999999N9999999N1-00041-00061102221ADDMA1999999094911REMSYN060AAXX  01134 06616 43/// /0000 11004 21006 39491 40222 5////;
0087066160999992011010114004+47433+006950FM-12+059799999V0203501N001019999999N9999999N1-00011-00081102201ADDMA1999999094901REMSYN060AAXX  01144 06616 43/// /3502 11001 21008 39490 40220 5////;
0087066160999992011010115004+47433+006950FM-12+059799999V0203201N001019999999N9999999N1-00051-00171102221ADDMA1999999094911REMSYN060AAXX  01154 06616 43/// /3202 11005 21017 39491 40222 5////;
0087066160999992011010116004+47433+006950FM-12+059799999V0200401N000519999999N9999999N1-00091-00171102271ADDMA1999999094951REMSYN060AAXX  01164 06616 43/// /0401 11009 21017 39495 40227 5////;
0087066160999992011010117004+47433+006950FM-12+059799999V0200701N001519999999N9999999N1-00131-00181102291ADDMA1999999094951REMSYN060AAXX  01174 06616 43/// /0703 11013 21018 39495 40229 5////;
0087066160999992011010118004+47433+006950FM-12+059799999V0200601N002119999999N9999999N1-00141-00191102261ADDMA1999999094911REMSYN060AAXX  01184 06616 43/// /0604 11014 21019 39491 40226 5////;
0097066160999992011010119004+47433+006950FM-12+059799999V0200701N002119999999N9999999N1+99999+99999999999ADDMA1999999094951REMSYN070AAXX  01194 06616 33/// /0704 1//// 2//// 39495 5//// 333 553// 20000;
0134066160999992011010120004+47433+006950FM-12+059799999V0200901N001019999999N9999999N1+99999+99999999999ADDMA1999999094941MD1510011+9999OA149900361REMSYN082AAXX  01204 06616 33/// /0902 1//// 2//// 39494 55001 333 55300 20000 91107 91204;
0134066160999992011010121004+47433+006950FM-12+059799999V0201001N000519999999N9999999N1+99999+99999999999ADDMA1999999094921MD1010011+9999OA149900361REMSYN082AAXX  01214 06616 33/// /1001 1//// 2//// 39492 50001 333 55300 20000 91107 91204;
0134066160999992011010122004+47433+006950FM-12+059799999V0201101N000519999999N9999999N1+99999+99999999999ADDMA1999999094911MD1710041+9999OA149900211REMSYN082AAXX  01224 06616 33/// /1101 1//// 2//// 39491 57004 333 55300 20000 91104 91202;
0134066160999992011010123004+47433+006950FM-12+059799999V0200601N000519999999N9999999N1+99999+99999999999ADDMA1999999094881MD1710061+9999OA149900101REMSYN082AAXX  01234 06616 33/// /0601 1//// 2//// 39488 57006 333 55300 20000 91102 91201;
0134066160999992011010200004+47433+006950FM-12+059799999V0200601N001019999999N9999999N1+99999+99999999999ADDMA1999999094851MD1710071+9999OA149900361REMSYN082AAXX  02004 06616 33/// /0602 1//// 2//// 39485 57007 333 55300 20000 91107 91204;
0134066160999992011010201004+47433+006950FM-12+059799999V0201301N000519999999N9999999N1+99999+99999999999ADDMA1999999094801MD1810111+9999OA149900261REMSYN082AAXX  02014 06616 33/// /1301 1//// 2//// 39480 58011 333 55300 20000 91105 91203;
0081066160999992011010202004+47433+006950FM-12+059799999V0203501N000519999999N9999999N1+99999+99999999999ADDMA1999999094841REMSYN054AAXX  02024 06616 43/// /3501 1//// 2//// 39484 5////;
0081066160999992011010203004+47433+006950FM-12+059799999V0202301N000519999999N9999999N1+99999+99999999999ADDMA1999999094841REMSYN054AAXX  02034 06616 43/// /2301 1//// 2//// 39484 5////;
0081066160999992011010204004+47433+006950FM-12+059799999V0202201N000519999999N9999999N1+99999+99999999999ADDMA1999999094831REMSYN054AAXX  02044 06616 43/// /2201 1//// 2//// 39483 5////;
0081066160999992011010205004+47433+006950FM-12+059799999V0209999C000019999999N9999999N1+99999+99999999999ADDMA1999999094851REMSYN054AAXX  02054 06616 43/// /0000 1//// 2//// 39485 5////;
0109066160999992011010206004+47433+006950FM-12+059799999V0200701N000519999999N9999999N1+99999+99999999999ADDIA2999-00209MA1999999094851REMSYN070AAXX  02064 06616 43/// /0701 1//// 2//// 39485 5//// 333 3/102 55000;
0134066160999992011010207004+47433+006950FM-12+059799999V0200501N001519999999N9999999N1+99999+99999999999ADDMA1999999094891MD1210061+9999OA149900311REMSYN082AAXX  02074 06616 33/// /0503 1//// 2//// 39489 52006 333 55300 20000 91106 91203;
0134066160999992011010208004+47433+006950FM-12+059799999V0200801N002119999999N9999999N1+99999+99999999999ADDMA1999999094931MD1310081+9999OA149900411REMSYN082AAXX  02084 06616 33/// /0804 1//// 2//// 39493 53008 333 55300 20000 91108 91204;
0134066160999992011010209004+47433+006950FM-12+059799999V0200701N003619999999N9999999N1+99999+99999999999ADDMA1999999094981MD1110131+9999OA149900721REMSYN082AAXX  02094 06616 33/// /0707 1//// 2//// 39498 51013 333 55300 20000 91114 91207;
0134066160999992011010210004+47433+006950FM-12+059799999V0200701N004119999999N9999999N1+99999+99999999999ADDMA1999999095021MD1110131+9999OA149900771REMSYN082AAXX  02104 06616 33/// /0708 1//// 2//// 39502 51013 333 55300 20083 91115 91208;
0134066160999992011010211004+47433+006950FM-12+059799999V0200701N003119999999N9999999N1+99999+99999999999ADDMA1999999095031MD1110101+9999OA149900771REMSYN082AAXX  02114 06616 33/// /0706 1//// 2//// 39503 51010 333 55300 20191 91115 91209;
0134066160999992011010212004+47433+006950FM-12+059799999V0200701N003619999999N9999999N1+99999+99999999999ADDMA1999999095021MD1210041+9999OA149900771REMSYN082AAXX  02124 06616 33/// /0707 1//// 2//// 39502 52004 333 55300 20256 91115 91209;
0134066160999992011010213004+47433+006950FM-12+059799999V0200801N003119999999N9999999N1+99999+99999999999ADDMA1999999095011MD1710011+9999OA149900721REMSYN082AAXX  02134 06616 33/// /0806 1//// 2//// 39501 57001 333 55300 20371 91114 91208;
0097066160999992011010214004+47433+006950FM-12+059799999V0200701N002619999999N9999999N1+99999+99999999999ADDMA1999999095031REMSYN070AAXX  02144 06616 33/// /0705 1//// 2//// 39503 5//// 333 553// 20292;
0134066160999992011010215004+47433+006950FM-12+059799999V0200701N002619999999N9999999N1+99999+99999999999ADDMA1999999095061MD1210041+9999OA149900771REMSYN082AAXX  02154 06616 33/// /0705 1//// 2//// 39506 52004 333 55300 20176 91115 91209;
0134066160999992011010216004+47433+006950FM-12+059799999V0200701N002619999999N9999999N1+99999+99999999999ADDMA1999999095091MD1310081+9999OA149900621REMSYN082AAXX  02164 06616 33/// /0705 1//// 2//// 39509 53008 333 55300 20022 91112 91206;
0134066160999992011010217004+47433+006950FM-12+059799999V0200701N002619999999N9999999N1+99999+99999999999ADDMA1999999095111MD1110081+9999OA149900571REMSYN082AAXX  02174 06616 33/// /0705 1//// 2//// 39511 51008 333 55300 20000 91111 91206;
0134066160999992011010218004+47433+006950FM-12+059799999V0200701N002119999999N9999999N1+99999+99999999999ADDMA1999999095131MD1110071+9999OA149900771REMSYN082AAXX  02184 06616 33/// /0704 1//// 2//// 39513 51007 333 55300 20000 91115 91209;
0073066160999992011010306004+47433+006950FM-12+059799999V02099999999999999999N9999999N1+99999+99999999999REMSYN064AAXX  03064 06616 43/// ///// 1//// 2//// 3//// 5//// 333 55000;
0081066160999992011010308004+47433+006950FM-12+059799999V0200901N001519999999N9999999N1+99999+99999999999ADDMA1999999095151REMSYN054AAXX  03084 06616 43/// /0903 1//// 2//// 39515 5////;
0097066160999992011010309004+47433+006950FM-12+059799999V0201201N001019999999N9999999N1+99999+99999999999ADDMA1999999095161REMSYN070AAXX  03094 06616 33/// /1202 1//// 2//// 39516 5//// 333 553// 20558;
0120066160999992011010310004+47433+006950FM-12+059799999V0200901N001519999999N9999999N1+99999+99999999999ADDMA1999999095181OA149900261REMSYN082AAXX  03104 06616 33/// /0903 1//// 2//// 39518 5//// 333 553// 2//// 91105 91203;
0146066160999992011010311004+47433+006950FM-12+059799999V0200701N003119999999N9999999N1-00241-00261102531ADDMA1999999095151MD1019999+9999OA149900461REMSYN094AAXX  03114 06616 23/// /0706 11024 21026 39515 40253 50/// 333 553// 2//// 69915 91109 91206;
0129066160999992011010312004+47433+006950FM-12+059799999V0200701N002619999999N9999999N1-00181-00201102461ADDMA1999999095101MD1710061+9999REMSYN088AAXX  03124 06616 23/// /0705 11018 21020 39510 40246 57006 6///1 333 553// 2//// 60005;
0140066160999992011010313004+47433+006950FM-12+059799999V0200801N003119999999N9999999N1-00191-00211102431ADDMA1999999095071MD1710111+9999OA149900511REMSYN088AAXX  03134 06616 33/// /0806 11019 21021 39507 40243 57011 333 553// 2//// 91110 91206;
0103066160999992011010314004+47433+006950FM-12+059799999V0200701N002619999999N9999999N1-00191-00211102411ADDMA1999999095051REMSYN076AAXX  03144 06616 33/// /0705 11019 21021 39505 40241 5//// 333 553// 20954;
0103066160999992011010315004+47433+006950FM-12+059799999V0200801N001519999999N9999999N1-00251-00281102431ADDMA1999999095051REMSYN076AAXX  03154 06616 33/// /0803 11025 21028 39505 40243 5//// 333 553// 20540;
0140066160999992011010316004+47433+006950FM-12+059799999V0200601N001019999999N9999999N1-00451-00481102471ADDMA1999999095041MD1810031+9999OA149900411REMSYN088AAXX  03164 06616 33/// /0602 11045 21048 39504 40247 58003 333 55301 20076 91108 91204;
0159066160999992011010317004+47433+006950FM-12+059799999V0200501N000519999999N9999999N1-00671-00721102551ADDMA1999999095051MD1810141+9999OA149900261REMSYN088AAXX  03174 06616 33/// /0501 11067 21072 39505 40255 58000 333 55300 20007 91105 91203;EQDQ01+000002APC3  
0073066160999992011010406004+47433+006950FM-12+059799999V02099999999999999999N9999999N1+99999+99999999999REMSYN064AAXX  04064 06616 43/// ///// 1//// 2//// 3//// 5//// 333 55064;
0087066160999992011010410004+47433+006950FM-12+059799999V0200501N000519999999N9999999N1-00791-00861102241ADDMA1999999094731REMSYN060AAXX  04104 06616 43/// /0501 11079 21086 39473 40224 5////;
0109066160999992011010411004+47433+006950FM-12+059799999V0209999C000019999999N9999999N1-00361-00391102071ADDMA1999999094691REMSYN082AAXX  04114 06616 23/// /0000 11036 21039 39469 40207 5//// 333 55308 2//// 69915;
0115066160999992011010412004+47433+006950FM-12+059799999V0209999C000019999999N9999999N1-00281-00301101961ADDMA1999999094611REMSYN088AAXX  04124 06616 23/// /0000 11028 21030 39461 40196 5//// 6///1 333 55306 2//// 60005;
0140066160999992011010413004+47433+006950FM-12+059799999V0209999C000019999999N9999999N1-00281-00301101931ADDMA1999999094581MD1710151+9999OA149900151REMSYN088AAXX  04134 06616 33/// /0000 11028 21030 39458 40193 57015 333 55307 20832 91103 91202;
0103066160999992011010414004+47433+006950FM-12+059799999V0202601N001019999999N9999999N1-00341-00381101921ADDMA1999999094561REMSYN076AAXX  04144 06616 33/// /2602 11034 21038 39456 40192 5//// 333 553// 20756;
0087066160999992011010415004+47433+006950FM-12+059799999V0203001N001519999999N9999999N1-00461-00501101971ADDMA1999999094571REMSYN060AAXX  04154 06616 43/// /3003 11046 21050 39457 40197 5////;
0063066160999992011010508004+47433+006950FM-12+059799999V0202501N001519999999N9999999N1-00671-00721999999REMSYN054AAXX  05084 06616 43/// /2503 11067 21072 3//// 5////;
0103066160999992011010509004+47433+006950FM-12+059799999V0200701N001019999999N9999999N1-00351-00381101561ADDMA1999999094221REMSYN076AAXX  05094 06616 33/// /0702 11035 21038 39422 40156 5//// 333 55305 20547;
0126066160999992011010510004+47433+006950FM-12+059799999V0201101N001519999999N9999999N1-00261-00281101501ADDMA1999999094191OA149900261REMSYN088AAXX  05104 06616 33/// /1103 11026 21028 39419 40150 5//// 333 553// 20972 91105 91203;
0140066160999992011010511004+47433+006950FM-12+059799999V0201101N002119999999N9999999N1-00161-00191101451ADDMA1999999094171MD1719999+9999OA149900311REMSYN088AAXX  05114 06616 33/// /1104 11016 21019 39417 40145 57/// 333 553// 2//// 91106 91204;
0115066160999992011010512004+47433+006950FM-12+059799999V0200901N001019999999N9999999N1-00051-00091101351ADDMA1999999094101REMSYN088AAXX  05124 06616 23/// /0902 11005 21009 39410 40135 5//// 6///1 333 553// 2//// 60005;
0140066160999992011010513004+47433+006950FM-12+059799999V0203601N000519999999N9999999N1+00011-00041101311ADDMA1999999094081MD1719999+9999OA149900261REMSYN088AAXX  05134 06616 33/// /3601 10001 21004 39408 40131 57/// 333 55308 2//// 91105 91203;
0087066160999992011010514004+47433+006950FM-12+059799999V0201101N002619999999N9999999N1+00151-00261101151ADDMA1999999093971REMSYN060AAXX  05144 06616 43/// /1105 10015 21026 39397 40115 5////;
0087066160999992011010515004+47433+006950FM-12+059799999V0200901N001019999999N9999999N1+00141-00191101181ADDMA1999999093991REMSYN060AAXX  05154 06616 43/// /0902 10014 21019 39399 40118 5////;
0140066160999992011010516004+47433+006950FM-12+059799999V0201101N002119999999N9999999N1-00011-00261101201ADDMA1999999093971MD1719999+9999OA149900311REMSYN088AAXX  05164 06616 33/// /1104 11001 21026 39397 40120 57/// 333 55301 20036 91106 91204;
0140066160999992011010517004+47433+006950FM-12+059799999V0200501N001019999999N9999999N1-00021-00301101191ADDMA1999999093961MD1810011+9999OA149900261REMSYN088AAXX  05174 06616 33/// /0502 11002 21030 39396 40119 58001 333 55300 20000 91105 91204;
0140066160999992011010518004+47433+006950FM-12+059799999V0201801N001019999999N9999999N1+00041-00281101171ADDAA112999999MA1999999093961MD1519999+9999REMSYN088AAXX  05184 06616 23/// /1802 10004 21028 39396 40117 55/// 6///2 333 55300 20000 60005;
0140066160999992011010519004+47433+006950FM-12+059799999V0202001N002119999999N9999999N1+00311-00151101041ADDMA1999999093911MD1710061+9999OA149900461REMSYN088AAXX  05194 06616 33/// /2004 10031 21015 39391 40104 57006 333 55300 20000 91109 91206;
0140066160999992011010520004+47433+006950FM-12+059799999V0202101N003619999999N9999999N1+00441-00121100941ADDMA1999999093851MD1719999+9999OA149900621REMSYN088AAXX  05204 06616 33/// /2107 10044 21012 39385 40094 57/// 333 55300 20000 91112 91207;
0103066160999992011010521004+47433+006950FM-12+059799999V0202301N003619999999N9999999N1+00511-00181100861ADDMA1999999093791REMSYN076AAXX  05214 06616 33/// /2307 10051 21018 39379 40086 5//// 333 553// 20000;
0140066160999992011010522004+47433+006950FM-12+059799999V0202401N002619999999N9999999N1+00511-00211100831ADDMA1999999093761MD1710151+9999OA149900931REMSYN088AAXX  05224 06616 33/// /2405 10051 21021 39376 40083 57015 333 55300 20000 91118 91209;
0140066160999992011010523004+47433+006950FM-12+059799999V0202801N002619999999N9999999N1+00501-00221100811ADDMA1999999093741MD1719999+9999OA149900931REMSYN088AAXX  05234 06616 33/// /2805 10050 21022 39374 40081 57/// 333 55300 20000 91118 91209;
0087066160999992011010600004+47433+006950FM-12+059799999V0202501N002119999999N9999999N1+00661-00251100711ADDMA1999999093691REMSYN060AAXX  06004 06616 43/// /2504 10066 21025 39369 40071 5////;
0087066160999992011010601004+47433+006950FM-12+059799999V0202501N002119999999N9999999N1+00611-00221100671ADDMA1999999093641REMSYN060AAXX  06014 06616 43/// /2504 10061 21022 39364 40067 5////;
0087066160999992011010602004+47433+006950FM-12+059799999V0202301N002119999999N9999999N1+00581-00021100671ADDMA1999999093631REMSYN060AAXX  06024 06616 43/// /2304 10058 21002 39363 40067 5////;
0087066160999992011010603004+47433+006950FM-12+059799999V0202201N004619999999N9999999N1+00611+00261100621ADDMA1999999093591REMSYN060AAXX  06034 06616 43/// /2209 10061 20026 39359 40062 5////;
0087066160999992011010604004+47433+006950FM-12+059799999V0202301N004119999999N9999999N1+00641+00301100601ADDMA1999999093581REMSYN060AAXX  06044 06616 43/// /2308 10064 20030 39358 40060 5////;
0087066160999992011010605004+47433+006950FM-12+059799999V0202301N005719999999N9999999N1+00651+00251100571ADDMA1999999093561REMSYN060AAXX  06054 06616 43/// /2311 10065 20025 39356 40057 5////;
0128066160999992011010606004+47433+006950FM-12+059799999V0202301N005719999999N9999999N1+00721+00201100571ADDIA2999-00509KA1999N-00141MA1999999093571REMSYN076AAXX  06064 06616 43/// /2311 10072 20020 39357 40057 5//// 333 21014 3/105;
0087066160999992011010607004+47433+006950FM-12+059799999V0202301N005119999999N9999999N1+00741+00191100601ADDMA1999999093611REMSYN060AAXX  06074 06616 43/// /2310 10074 20019 39361 40060 5////;
0103066160999992011010608004+47433+006950FM-12+059799999V0202401N007219999999N9999999N1+00761+00181100661ADDMA1999999093671REMSYN076AAXX  06084 06616 33/// /2414 10076 20018 39367 40066 5//// 333 553// 20000;
0087066160999992011010609004+47433+006950FM-12+059799999V0202201N006219999999N9999999N1+00771+00251100651ADDMA1999999093661REMSYN060AAXX  06094 06616 43/// /2212 10077 20025 39366 40065 5////;
0146066160999992011010610004+47433+006950FM-12+059799999V0202101N008219999999N9999999N1+00771+00311100641ADDMA1999999093651MD1010041+9999OA149901601REMSYN094AAXX  06104 06616 23/// /2116 10077 20031 39365 40064 50004 333 55300 20295 69915 91131 91217;
0146066160999992011010611004+47433+006950FM-12+059799999V0202301N007219999999N9999999N1+00871+00371100591ADDMA1999999093631MD1510041+9999OA149901601REMSYN094AAXX  06114 06616 23/// /2314 10087 20037 39363 40059 55004 333 55300 20302 69935 91131 91217;
0163066160999992011010612004+47433+006950FM-12+059799999V0202301N006719999999N9999999N1+00961+00401100531ADDAA106000591MA1999999093601MD1810061+9999OA149901601REMSYN100AAXX  06124 06616 03/// /2313 10096 20040 39360 40053 58006 69941 333 55300 20378 60005 91131 91217;
0140066160999992011010613004+47433+006950FM-12+059799999V0202301N009819999999N9999999N1+00971+00441100521ADDMA1999999093591MD1610061+9999OA149901541REMSYN088AAXX  06134 06616 33/// /2319 10097 20044 39359 40052 56006 333 55300 20227 91130 91219;
0087066160999992011010614004+47433+006950FM-12+059799999V0202301N007219999999N9999999N1+00981+00441100501ADDMA1999999093571REMSYN060AAXX  06144 06616 43/// /2314 10098 20044 39357 40050 5////;
0087066160999992011010615004+47433+006950FM-12+059799999V0202201N008219999999N9999999N1+01021+00391100481ADDMA1999999093561REMSYN060AAXX  06154 06616 43/// /2216 10102 20039 39356 40048 5////;
0146066160999992011010616004+47433+006950FM-12+059799999V0202301N007219999999N9999999N1+00931+00551100611ADDMA1999999093661MD1310071+9999OA149901901REMSYN094AAXX  06164 06616 23/// /2314 10093 20055 39366 40061 53007 333 55300 20000 69935 91137 91218;
0140066160999992011010617004+47433+006950FM-12+059799999V0202301N005719999999N9999999N1+00931+00521100621ADDMA1999999093671MD1210101+9999OA149901391REMSYN088AAXX  06174 06616 33/// /2311 10093 20052 39367 40062 52010 333 55300 20000 91127 91215;
0182066160999992011010618004+47433+006950FM-12+059799999V0202301N006719999999N9999999N1+01031+00471100621ADDAA112000891KA1120M+01031MA1999999093701MD1210141+9999OA149901901REMSYN106AAXX  06184 06616 03/// /2313 10103 20047 39370 40062 52014 69982 333 10103 55300 20000 60005 91137 91219;
0140066160999992011010619004+47433+006950FM-12+059799999V0202301N008719999999N9999999N1+01041+00501100691ADDMA1999999093761MD1210101+9999OA149901601REMSYN088AAXX  06194 06616 33/// /2317 10104 20050 39376 40069 52010 333 55300 20000 91131 91218;
0146066160999992011010620004+47433+006950FM-12+059799999V0202301N008219999999N9999999N1+00971+00581100751ADDMA1999999093801MD1219999+9999OA149901601REMSYN094AAXX  06204 06616 23/// /2316 10097 20058 39380 40075 52/// 333 55300 20000 69925 91131 91218;
0140066160999992011010621004+47433+006950FM-12+059799999V0202301N006719999999N9999999N1+00981+00591100811ADDMA1999999093861MD1319999+9999OA149901601REMSYN088AAXX  06214 06616 33/// /2313 10098 20059 39386 40081 53/// 333 55300 20000 91131 91218;
0140066160999992011010622004+47433+006950FM-12+059799999V0202301N006719999999N9999999N1+01001+00581100841ADDMA1999999093891MD1110131+9999OA149901441REMSYN088AAXX  06224 06616 33/// /2313 10100 20058 39389 40084 51013 333 55300 20000 91128 91215;
0103066160999992011010623004+47433+006950FM-12+059799999V0202301N006719999999N9999999N1+01041+00551100891ADDMA1999999093951REMSYN076AAXX  06234 06616 33/// /2313 10104 20055 39395 40089 5//// 333 553// 20000;
0087066160999992011010700004+47433+006950FM-12+059799999V0202301N006219999999N9999999N1+00961+00651100971ADDMA1999999094011REMSYN060AAXX  07004 06616 43/// /2312 10096 20065 39401 40097 5////;
0087066160999992011010701004+47433+006950FM-12+059799999V0202301N006219999999N9999999N1+00991+00641100981ADDMA1999999094021REMSYN060AAXX  07014 06616 43/// /2312 10099 20064 39402 40098 5////;
0087066160999992011010702004+47433+006950FM-12+059799999V0202401N004619999999N9999999N1+00991+00651101011ADDMA1999999094051REMSYN060AAXX  07024 06616 43/// /2409 10099 20065 39405 40101 5////;
0087066160999992011010703004+47433+006950FM-12+059799999V0202301N005119999999N9999999N1+01041+00631101021ADDMA1999999094071REMSYN060AAXX  07034 06616 43/// /2310 10104 20063 39407 40102 5////;
0146066160999992011010704004+47433+006950FM-12+059799999V0202301N004119999999N9999999N1+00941+00731101101ADDMA1999999094121MD1210101+9999OA149901181REMSYN094AAXX  07044 06616 23/// /2308 10094 20073 39412 40110 52010 333 55300 20000 69985 91123 91214;
0146066160999992011010705004+47433+006950FM-12+059799999V0202301N002619999999N9999999N1+00921+00721101081ADDMA1999999094101MD1210051+9999OA149901131REMSYN094AAXX  07054 06616 23/// /2305 10092 20072 39410 40108 52005 333 55300 20000 69925 91122 91212;
0230066160999992011010706004+47433+006950FM-12+059799999V0202401N001519999999N9999999N1+00911+00761101101ADDAA112002091AL14800291GJ100009IA2999+00709KA1999N+00921MA1999999094111MD1210041+9999OA149901651REMSYN124AAXX  07064 06616 03/// /2403 10091 20076 39411 40110 52004 60022 333 20092 3/007 55000 55300 20000 60015 70028 91132 91218;
0146066160999992011010707004+47433+006950FM-12+059799999V0202601N000519999999N9999999N1+00871+00761101071ADDMA1999999094081MD1710041+9999OA149900721REMSYN094AAXX  07074 06616 23/// /2601 10087 20076 39408 40107 57004 333 55300 20000 69955 91114 91207;
0103066160999992011010708004+47433+006950FM-12+059799999V0200601N001019999999N9999999N1+00771+00701101111ADDMA1999999094091REMSYN076AAXX  07084 06616 33/// /0602 10077 20070 39409 40111 5//// 333 553// 20004;
0087066160999992011010709004+47433+006950FM-12+059799999V0200601N001519999999N9999999N1+00901+00801101081ADDMA1999999094091REMSYN060AAXX  07094 06616 43/// /0603 10090 20080 39409 40108 5////;
0140066160999992011010710004+47433+006950FM-12+059799999V0200701N001019999999N9999999N1+01001+00871101061ADDMA1999999094101MD1210021+9999OA149900261REMSYN088AAXX  07104 06616 33/// /0702 10100 20087 39410 40106 52002 333 55306 20626 91105 91204;
0140066160999992011010711004+47433+006950FM-12+059799999V0202501N001519999999N9999999N1+01281+00831100961ADDMA1999999094071MD1810021+9999OA149900261REMSYN088AAXX  07114 06616 33/// /2503 10128 20083 39407 40096 58002 333 55305 20972 91105 91204;
0163066160999992011010712004+47433+006950FM-12+059799999V0203001N001519999999N9999999N1+01111+00841100991ADDAA106000591MA1999999094061MD1710031+9999OA149901241REMSYN100AAXX  07124 06616 03/// /3003 10111 20084 39406 40099 57003 69951 333 55300 20317 60005 91124 91214;
0140066160999992011010713004+47433+006950FM-12+059799999V0209999C000019999999N9999999N1+01071+00811101011ADDMA1999999094071MD1710031+9999OA149900571REMSYN088AAXX  07134 06616 33/// /0000 10107 20081 39407 40101 57003 333 55300 20169 91111 91205;
0087066160999992011010714004+47433+006950FM-12+059799999V0209999C000019999999N9999999N1+01111+00831100991ADDMA1999999094061REMSYN060AAXX  07144 06616 43/// /0000 10111 20083 39406 40099 5////;
0087066160999992011010715004+47433+006950FM-12+059799999V0202001N000519999999N9999999N1+01091+00851101051ADDMA1999999094111REMSYN060AAXX  07154 06616 43/// /2001 10109 20085 39411 40105 5////;
0146066160999992011010716004+47433+006950FM-12+059799999V0202301N007219999999N9999999N1+01351+00641100991ADDMA1999999094121MD1110051+9999OA149901391REMSYN094AAXX  07164 06616 23/// /2314 10135 20064 39412 40099 51005 333 55300 20000 69915 91127 91214;
0140066160999992011010717004+47433+006950FM-12+059799999V0202201N006719999999N9999999N1+01211+00731101071ADDMA1999999094161MD1110101+9999OA149901601REMSYN088AAXX  07174 06616 33/// /2213 10121 20073 39416 40107 51010 333 55300 20000 91131 91217;
0145066160999992011010718004+47433+006950FM-12+059799999V0202201N004119999999N9999999N1+01191+00721101081ADDAA112000591KA1120M+01351MA1999999094161REMSYN094AAXX  07184 06616 03/// /2208 10119 20072 39416 40108 5//// 69962 333 10135 553// 20000 60005;
0140066160999992011010719004+47433+006950FM-12+059799999V0202501N001519999999N9999999N1+01201+00661101051ADDMA1999999094141MD1019999+9999OA149901081REMSYN088AAXX  07194 06616 33/// /2503 10120 20066 39414 40105 50/// 333 55300 20000 91121 91213;
0087066160999992011010720004+47433+006950FM-12+059799999V0202401N003119999999N9999999N1+01231+00571101021ADDMA1999999094121REMSYN060AAXX  07204 06616 43/// /2406 10123 20057 39412 40102 5////;
0087066160999992011010721004+47433+006950FM-12+059799999V0202601N003119999999N9999999N1+01231+00561101051ADDMA1999999094151REMSYN060AAXX  07214 06616 43/// /2606 10123 20056 39415 40105 5////;
0140066160999992011010722004+47433+006950FM-12+059799999V0202501N001019999999N9999999N1+01091+00651101141ADDMA1999999094201MD1210061+9999OA149900721REMSYN088AAXX  07224 06616 33/// /2502 10109 20065 39420 40114 52006 333 55300 20000 91114 91207;
0109066160999992011010723004+47433+006950FM-12+059799999V0202301N003119999999N9999999N1+01171+00601101101ADDMA1999999094181REMSYN082AAXX  07234 06616 23/// /2306 10117 20060 39418 40110 5//// 333 553// 20000 69935;
0126066160999992011010800004+47433+006950FM-12+059799999V0202401N002119999999N9999999N1+01161+00551101121ADDAA106000391MA1999999094191REMSYN088AAXX  08004 06616 03/// /2404 10116 20055 39419 40112 5//// 69931 333 553// 20000 60005;
0087066160999992011010801004+47433+006950FM-12+059799999V0202501N004619999999N9999999N1+01201+00551101131ADDMA1999999094211REMSYN060AAXX  08014 06616 43/// /2509 10120 20055 39421 40113 5////;
0087066160999992011010802004+47433+006950FM-12+059799999V0202501N003119999999N9999999N1+00941+00781101261ADDMA1999999094271REMSYN060AAXX  08024 06616 43/// /2506 10094 20078 39427 40126 5////;
0087066160999992011010803004+47433+006950FM-12+059799999V0202301N006719999999N9999999N1+00921+00681101281ADDMA1999999094281REMSYN060AAXX  08034 06616 43/// /2313 10092 20068 39428 40128 5////;
0087066160999992011010804004+47433+006950FM-12+059799999V0202101N005719999999N9999999N1+00971+00581101201ADDMA1999999094221REMSYN060AAXX  08044 06616 43/// /2111 10097 20058 39422 40120 5////;
0087066160999992011010805004+47433+006950FM-12+059799999V0202301N003619999999N9999999N1+00981+00571101221ADDMA1999999094241REMSYN060AAXX  08054 06616 43/// /2307 10098 20057 39424 40122 5////;
0134066160999992011010806004+47433+006950FM-12+059799999V0202301N003619999999N9999999N1+01041+00551101201ADDIA2999+00809KA1999N+00911MA1999999094241REMSYN082AAXX  08064 06616 43/// /2307 10104 20055 39424 40120 5//// 333 20091 3/008 55013;
0087066160999992011010807004+47433+006950FM-12+059799999V0202301N002119999999N9999999N1+01051+00511101221ADDMA1999999094261REMSYN060AAXX  08074 06616 43/// /2304 10105 20051 39426 40122 5////;
0103066160999992011010808004+47433+006950FM-12+059799999V0202501N002619999999N9999999N1+01061+00491101251ADDMA1999999094291REMSYN076AAXX  08084 06616 33/// /2505 10106 20049 39429 40125 5//// 333 553// 20000;
0087066160999992011010809004+47433+006950FM-12+059799999V0202301N002119999999N9999999N1+01081+00491101271ADDMA1999999094311REMSYN060AAXX  08094 06616 43/// /2304 10108 20049 39431 40127 5////;
0087066160999992011010810004+47433+006950FM-12+059799999V0202301N005719999999N9999999N1+01211+00501101231ADDMA1999999094311REMSYN060AAXX  08104 06616 43/// /2311 10121 20050 39431 40123 5////;
0087066160999992011010811004+47433+006950FM-12+059799999V0202401N004619999999N9999999N1+01251+00401101201ADDMA1999999094291REMSYN060AAXX  08114 06616 43/// /2409 10125 20040 39429 40120 5////;
0087066160999992011010812004+47433+006950FM-12+059799999V0202401N006719999999N9999999N1+01341+00361101131ADDMA1999999094251REMSYN060AAXX  08124 06616 43/// /2413 10134 20036 39425 40113 5////;
0087066160999992011010813004+47433+006950FM-12+059799999V0202301N005119999999N9999999N1+01341+00421101101ADDMA1999999094221REMSYN060AAXX  08134 06616 43/// /2310 10134 20042 39422 40110 5////;
0087066160999992011010814004+47433+006950FM-12+059799999V0202401N005119999999N9999999N1+01311+00371101121ADDMA1999999094231REMSYN060AAXX  08144 06616 43/// /2410 10131 20037 39423 40112 5////;
0087066160999992011010815004+47433+006950FM-12+059799999V0202401N004119999999N9999999N1+01311+00291101131ADDMA1999999094241REMSYN060AAXX  08154 06616 43/// /2408 10131 20029 39424 40113 5////;
0087066160999992011010816004+47433+006950FM-12+059799999V0202301N002619999999N9999999N1+01231+00331101151ADDMA1999999094241REMSYN060AAXX  08164 06616 43/// /2305 10123 20033 39424 40115 5////;
0087066160999992011010817004+47433+006950FM-12+059799999V0202301N002119999999N9999999N1+01121+00291101161ADDMA1999999094221REMSYN060AAXX  08174 06616 43/// /2304 10112 20029 39422 40116 5////;
0087066160999992011010818004+47433+006950FM-12+059799999V0202301N004619999999N9999999N1+01201+00241101131ADDMA1999999094211REMSYN060AAXX  08184 06616 43/// /2309 10120 20024 39421 40113 5////;
0087066160999992011010819004+47433+006950FM-12+059799999V0202201N003119999999N9999999N1+01171+00231101121ADDMA1999999094201REMSYN060AAXX  08194 06616 43/// /2206 10117 20023 39420 40112 5////;
0087066160999992011010820004+47433+006950FM-12+059799999V0202401N002619999999N9999999N1+01071+00301101131ADDMA1999999094181REMSYN060AAXX  08204 06616 43/// /2405 10107 20030 39418 40113 5////;
0087066160999992011010821004+47433+006950FM-12+059799999V0202801N001019999999N9999999N1+01071+00231101111ADDMA1999999094161REMSYN060AAXX  08214 06616 43/// /2802 10107 20023 39416 40111 5////;
0087066160999992011010822004+47433+006950FM-12+059799999V0202701N002119999999N9999999N1+01061+00181101101ADDMA1999999094151REMSYN060AAXX  08224 06616 43/// /2704 10106 20018 39415 40110 5////;
0087066160999992011010823004+47433+006950FM-12+059799999V0202201N001019999999N9999999N1+00921+00191101151ADDMA1999999094161REMSYN060AAXX  08234 06616 43/// /2202 10092 20019 39416 40115 5////;
0087066160999992011010900004+47433+006950FM-12+059799999V0202401N001519999999N9999999N1+00921+00191101141ADDMA1999999094151REMSYN060AAXX  09004 06616 43/// /2403 10092 20019 39415 40114 5////;
0087066160999992011010901004+47433+006950FM-12+059799999V0202401N002619999999N9999999N1+01091+00071101071ADDMA1999999094131REMSYN060AAXX  09014 06616 43/// /2405 10109 20007 39413 40107 5////;
0087066160999992011010902004+47433+006950FM-12+059799999V0202401N003619999999N9999999N1+01091+00101101101ADDMA1999999094161REMSYN060AAXX  09024 06616 43/// /2407 10109 20010 39416 40110 5////;
0087066160999992011010903004+47433+006950FM-12+059799999V0202201N005119999999N9999999N1+01121+00151101071ADDMA1999999094141REMSYN060AAXX  09034 06616 43/// /2210 10112 20015 39414 40107 5////;
0087066160999992011010904004+47433+006950FM-12+059799999V0202301N003119999999N9999999N1+01091+00181101061ADDMA1999999094121REMSYN060AAXX  09044 06616 43/// /2306 10109 20018 39412 40106 5////;
0087066160999992011010905004+47433+006950FM-12+059799999V0202401N004119999999N9999999N1+01131+00051101021ADDMA1999999094091REMSYN060AAXX  09054 06616 43/// /2408 10113 20005 39409 40102 5////;
0097066160999992011010906004+47433+006950FM-12+059799999V0202401N003619999999N9999999N1+01091+00021101061ADDMA1999999094121REMSYN070AAXX  09064 06616 43/// /2407 10109 20002 39412 40106 5//// 333 55012;
0087066160999992011010907004+47433+006950FM-12+059799999V0202401N006719999999N9999999N1+01081+00091101131ADDMA1999999094181REMSYN060AAXX  09074 06616 43/// /2413 10108 20009 39418 40113 5////;
0103066160999992011010908004+47433+006950FM-12+059799999V0202401N005719999999N9999999N1+00991+00261101221ADDMA1999999094251REMSYN076AAXX  09084 06616 33/// /2411 10099 20026 39425 40122 5//// 333 553// 20000;
0109066160999992011010909004+47433+006950FM-12+059799999V0202301N005719999999N9999999N1+00881+00431101331ADDMA1999999094321REMSYN082AAXX  09094 06616 23/// /2311 10088 20043 39432 40133 5//// 333 553// 20000 69945;
0146066160999992011010910004+47433+006950FM-12+059799999V0202301N005719999999N9999999N1+00791+00501101391ADDMA1999999094351MD1210171+9999OA149901181REMSYN094AAXX  09104 06616 23/// /2311 10079 20050 39435 40139 52017 333 55300 20040 69975 91123 91214;
0146066160999992011010911004+47433+006950FM-12+059799999V0202401N003619999999N9999999N1+00791+00581101411ADDMA1999999094371MD1210121+9999OA149901131REMSYN094AAXX  09114 06616 23/// /2407 10079 20058 39437 40141 52012 333 55300 20079 69935 91122 91214;
0163066160999992011010912004+47433+006950FM-12+059799999V0202401N002119999999N9999999N1+00791+00641101391ADDAA106002091MA1999999094351MD1219999+9999OA149901491REMSYN100AAXX  09124 06616 03/// /2404 10079 20064 39435 40139 52/// 60021 333 55300 20068 69975 91129 91214;
0146066160999992011010913004+47433+006950FM-12+059799999V0202401N005719999999N9999999N1+00781+00551101371ADDMA1999999094331MD1810021+9999OA149901241REMSYN094AAXX  09134 06616 23/// /2411 10078 20055 39433 40137 58002 333 55300 20101 69985 91124 91211;
0087066160999992011010914004+47433+006950FM-12+059799999V0202401N003619999999N9999999N1+00761+00561101401ADDMA1999999094361REMSYN060AAXX  09144 06616 43/// /2407 10076 20056 39436 40140 5////;
0087066160999992011010915004+47433+006950FM-12+059799999V0202401N002619999999N9999999N1+00721+00541101441ADDMA1999999094381REMSYN060AAXX  09154 06616 43/// /2405 10072 20054 39438 40144 5////;
0146066160999992011010916004+47433+006950FM-12+059799999V0202601N001519999999N9999999N1+00681+00551101511ADDMA1999999094441MD1210111+9999OA149900821REMSYN094AAXX  09164 06616 23/// /2603 10068 20055 39444 40151 52011 333 55300 20000 60025 91116 91208;
0146066160999992011010917004+47433+006950FM-12+059799999V0202401N002119999999N9999999N1+00681+00551101591ADDMA1999999094511MD1310151+9999OA149900461REMSYN094AAXX  09174 06616 23/// /2404 10068 20055 39451 40159 53015 333 55300 20000 60015 91109 91205;
0182066160999992011010918004+47433+006950FM-12+059799999V0202701N001519999999N9999999N1+00601+00491101691ADDAA112007991KA1120M+01121MA1999999094591MD1310201+9999OA149901491REMSYN106AAXX  09184 06616 03/// /2703 10060 20049 39459 40169 53020 60082 333 10112 55300 20000 60015 91129 91214;
0146066160999992011010919004+47433+006950FM-12+059799999V0202201N001019999999N9999999N1+00581+00481101741ADDMA1999999094631MD1110191+9999OA149900721REMSYN094AAXX  09194 06616 23/// /2202 10058 20048 39463 40174 51019 333 55300 20000 69925 91114 91206;
0146066160999992011010920004+47433+006950FM-12+059799999V0202801N001019999999N9999999N1+00571+00471101801ADDMA1999999094681MD1210171+9999OA149900311REMSYN094AAXX  09204 06616 23/// /2802 10057 20047 39468 40180 52017 333 55300 20000 69975 91106 91203;
0146066160999992011010921004+47433+006950FM-12+059799999V0203101N003619999999N9999999N1+00501+00391101881ADDMA1999999094741MD1110151+9999OA149900721REMSYN094AAXX  09214 06616 23/// /3107 10050 20039 39474 40188 51015 333 55300 20000 69995 91114 91207;
0146066160999992011010922004+47433+006950FM-12+059799999V0202801N001519999999N9999999N1+00431+00321101961ADDMA1999999094791MD1319999+9999OA149900721REMSYN094AAXX  09224 06616 23/// /2803 10043 20032 39479 40196 53/// 333 55300 20000 69965 91114 91209;
0146066160999992011010923004+47433+006950FM-12+059799999V0203201N002119999999N9999999N1+00391+00281102031ADDMA1999999094851MD1110171+9999OA149900721REMSYN094AAXX  09234 06616 23/// /3204 10039 20028 39485 40203 51017 333 55300 20000 69975 91114 91209;
0163066160999992011011000004+47433+006950FM-12+059799999V0203401N000519999999N9999999N1+00321+00231102091ADDAA106003091MA1999999094891MD1110151+9999OA149901241REMSYN100AAXX  10004 06616 03/// /3401 10032 20023 39489 40209 51015 60031 333 55300 20000 69925 91124 91211;
0146066160999992011011001004+47433+006950FM-12+059799999V0202801N000519999999N9999999N1+00301+00221102131ADDMA1999999094921MD1119999+9999OA149900261REMSYN094AAXX  10014 06616 23/// /2801 10030 20022 39492 40213 51/// 333 55300 20000 69945 91105 91203;
0109066160999992011011002004+47433+006950FM-12+059799999V0200801N002619999999N9999999N1+00231+00121102211ADDMA1999999094971REMSYN082AAXX  10024 06616 23/// /0805 10023 20012 39497 40221 5//// 333 553// 20000 69955;
0087066160999992011011003004+47433+006950FM-12+059799999V0200801N003119999999N9999999N1+00181+00061102241ADDMA1999999094991REMSYN060AAXX  10034 06616 43/// /0806 10018 20006 39499 40224 5////;
0103066160999992011011004004+47433+006950FM-12+059799999V0200901N002119999999N9999999N1+00151+00011102241ADDMA1999999094981REMSYN076AAXX  10044 06616 33/// /0904 10015 20001 39498 40224 5//// 333 553// 20000;
0140066160999992011011005004+47433+006950FM-12+059799999V0200901N002119999999N9999999N1+00141+00001102241ADDMA1999999094981MD1019999+9999OA149900621REMSYN088AAXX  10054 06616 33/// /0904 10014 20000 39498 40224 50/// 333 55300 20000 91112 91206;
0159066160999992011011006004+47433+006950FM-12+059799999V0200801N002619999999N9999999N1+00151+00001102241ADDAA124012491GJ100009IA2999+00109KA1999N+00131MA1999999094981REMSYN088AAXX  10064 06616 43/// /0805 10015 20000 39498 40224 5//// 333 20013 3/001 55000 70124;
0140066160999992011011007004+47433+006950FM-12+059799999V0200901N003119999999N9999999N1+00141-00011102281ADDMA1999999095021MD1310041+9999OA149900671REMSYN088AAXX  10074 06616 33/// /0906 10014 21001 39502 40228 53004 333 55300 20000 91113 91207;
0087066160999992011011008004+47433+006950FM-12+059799999V0200901N003119999999N9999999N1+00131-00021102331ADDMA1999999095061REMSYN060AAXX  10084 06616 43/// /0906 10013 21002 39506 40233 5////;
0087066160999992011011009004+47433+006950FM-12+059799999V0200801N002619999999N9999999N1+00141-00011102331ADDMA1999999095061REMSYN060AAXX  10094 06616 43/// /0805 10014 21001 39506 40233 5////;
0140066160999992011011010004+47433+006950FM-12+059799999V0200801N003119999999N9999999N1+00161-00021102321ADDMA1999999095061MD1210041+9999OA149900671REMSYN088AAXX  10104 06616 33/// /0806 10016 21002 39506 40232 52004 333 55300 20241 91113 91207;
0140066160999992011011011004+47433+006950FM-12+059799999V0200701N002619999999N9999999N1+00171-00031102281ADDMA1999999095021MD1719999+9999OA149900671REMSYN088AAXX  10114 06616 33/// /0705 10017 21003 39502 40228 57/// 333 55300 20227 91113 91207;
0103066160999992011011012004+47433+006950FM-12+059799999V0200901N003619999999N9999999N1+00181+00021102201ADDMA1999999094951REMSYN076AAXX  10124 06616 33/// /0907 10018 20002 39495 40220 5//// 333 553// 20320;
0087066160999992011011013004+47433+006950FM-12+059799999V0200801N003119999999N9999999N1+00171+00021102111ADDMA1999999094871REMSYN060AAXX  10134 06616 43/// /0806 10017 20002 39487 40211 5////;
0087066160999992011011014004+47433+006950FM-12+059799999V0200701N002619999999N9999999N1+00201+00061102041ADDMA1999999094811REMSYN060AAXX  10144 06616 43/// /0705 10020 20006 39481 40204 5////;
0087066160999992011011015004+47433+006950FM-12+059799999V0200701N002619999999N9999999N1+00191+00081102021ADDMA1999999094791REMSYN060AAXX  10154 06616 43/// /0705 10019 20008 39479 40202 5////;
0087066160999992011011016004+47433+006950FM-12+059799999V0200801N002619999999N9999999N1+00201+00111102001ADDMA1999999094771REMSYN060AAXX  10164 06616 43/// /0805 10020 20011 39477 40200 5////;
0087066160999992011011017004+47433+006950FM-12+059799999V0200801N002119999999N9999999N1+00211+00121101951ADDMA1999999094731REMSYN060AAXX  10174 06616 43/// /0804 10021 20012 39473 40195 5////;
0110066160999992011011018004+47433+006950FM-12+059799999V0200901N002119999999N9999999N1+00231+00131101931ADDKA1999M+00221MA1999999094711REMSYN070AAXX  10184 06616 43/// /0904 10023 20013 39471 40193 5//// 333 10022;
0087066160999992011011019004+47433+006950FM-12+059799999V0200801N001519999999N9999999N1+00231+00121101931ADDMA1999999094711REMSYN060AAXX  10194 06616 43/// /0803 10023 20012 39471 40193 5////;
0087066160999992011011020004+47433+006950FM-12+059799999V0200901N001519999999N9999999N1+00231+00121101861ADDMA1999999094651REMSYN060AAXX  10204 06616 43/// /0903 10023 20012 39465 40186 5////;
0087066160999992011011021004+47433+006950FM-12+059799999V0200701N001519999999N9999999N1+00231+00121101841ADDMA1999999094631REMSYN060AAXX  10214 06616 43/// /0703 10023 20012 39463 40184 5////;
0087066160999992011011022004+47433+006950FM-12+059799999V0201101N001519999999N9999999N1+00231+00101101821ADDMA1999999094611REMSYN060AAXX  10224 06616 43/// /1103 10023 20010 39461 40182 5////;
0087066160999992011011023004+47433+006950FM-12+059799999V0200501N000519999999N9999999N1+00231+00111101791ADDMA1999999094581REMSYN060AAXX  10234 06616 43/// /0501 10023 20011 39458 40179 5////;
0087066160999992011011100004+47433+006950FM-12+059799999V0201301N001019999999N9999999N1+00121+00061101751ADDMA1999999094521REMSYN060AAXX  11004 06616 43/// /1302 10012 20006 39452 40175 5////;
0087066160999992011011101004+47433+006950FM-12+059799999V0201101N001519999999N9999999N1-00031-00031101711ADDMA1999999094441REMSYN060AAXX  11014 06616 43/// /1103 11003 21003 39444 40171 5////;
0087066160999992011011102004+47433+006950FM-12+059799999V0200901N001019999999N9999999N1-00081-00171101711ADDMA1999999094431REMSYN060AAXX  11024 06616 43/// /0902 11008 21017 39443 40171 5////;
0087066160999992011011103004+47433+006950FM-12+059799999V0201101N001019999999N9999999N1-00081-00171101641ADDMA1999999094361REMSYN060AAXX  11034 06616 43/// /1102 11008 21017 39436 40164 5////;
0087066160999992011011104004+47433+006950FM-12+059799999V0201001N001519999999N9999999N1-00101-00181101581ADDMA1999999094301REMSYN060AAXX  11044 06616 43/// /1003 11010 21018 39430 40158 5////;
0087066160999992011011105004+47433+006950FM-12+059799999V0201301N001519999999N9999999N1+00061-00051101431ADDMA1999999094211REMSYN060AAXX  11054 06616 43/// /1303 10006 21005 39421 40143 5////;
0097066160999992011011106004+47433+006950FM-12+059799999V0201901N001019999999N9999999N1-00011-00161101401ADDMA1999999094161REMSYN070AAXX  11064 06616 43/// /1902 11001 21016 39416 40140 5//// 333 55000;
0140066160999992011011107004+47433+006950FM-12+059799999V0209999C000019999999N9999999N1+00051-00081101341ADDMA1999999094121MD1619999+9999OA149900261REMSYN088AAXX  11074 06616 33/// /0000 10005 21008 39412 40134 56/// 333 55300 20000 91105 91203;
0103066160999992011011108004+47433+006950FM-12+059799999V0200501N000519999999N9999999N1-00121-00211101361ADDMA1999999094091REMSYN076AAXX  11084 06616 33/// /0501 11012 21021 39409 40136 5//// 333 553// 20029;
0087066160999992011011109004+47433+006950FM-12+059799999V0209999C000019999999N9999999N1+00111-00011101251ADDMA1999999094051REMSYN060AAXX  11094 06616 43/// /0000 10011 21001 39405 40125 5////;
0140066160999992011011110004+47433+006950FM-12+059799999V0202101N000519999999N9999999N1+00281+00081101161ADDMA1999999094011MD1810111+9999OA149900361REMSYN088AAXX  11104 06616 33/// /2101 10028 20008 39401 40116 58011 333 55302 20439 91107 91204;
0140066160999992011011111004+47433+006950FM-12+059799999V0202401N001519999999N9999999N1+00441-00141101041ADDMA1999999093941MD1810151+9999OA149900361REMSYN088AAXX  11114 06616 33/// /2403 10044 21014 39394 40104 58015 333 55300 20360 91107 91204;
0103066160999992011011112004+47433+006950FM-12+059799999V0202501N004119999999N9999999N1+00441-00071101011ADDMA1999999093911REMSYN076AAXX  11124 06616 33/// /2508 10044 21007 39391 40101 5//// 333 553// 20187;
0146066160999992011011113004+47433+006950FM-12+059799999V0202301N004119999999N9999999N1+00401+00171101001ADDMA1999999093891MD1710121+9999OA149901341REMSYN094AAXX  11134 06616 23/// /2308 10040 20017 39389 40100 57012 333 55300 20068 69925 91126 91211;
0087066160999992011011114004+47433+006950FM-12+059799999V0202301N005119999999N9999999N1+00461+00221100981ADDMA1999999093891REMSYN060AAXX  11144 06616 43/// /2310 10046 20022 39389 40098 5////;
0087066160999992011011115004+47433+006950FM-12+059799999V0202401N003619999999N9999999N1+00471+00281101081ADDMA1999999093991REMSYN060AAXX  11154 06616 43/// /2407 10047 20028 39399 40108 5////;
0140066160999992011011116004+47433+006950FM-12+059799999V0202401N005119999999N9999999N1+00461+00281101191ADDMA1999999094091MD1210201+9999OA149901131REMSYN088AAXX  11164 06616 33/// /2410 10046 20028 39409 40119 52020 333 55300 20000 91122 91211;
0146066160999992011011117004+47433+006950FM-12+059799999V0202401N003619999999N9999999N1+00451+00311101321ADDMA1999999094201MD1310301+9999OA149901131REMSYN094AAXX  11174 06616 23/// /2407 10045 20031 39420 40132 53030 333 55300 20000 69925 91122 91210;
0182066160999992011011118004+47433+006950FM-12+059799999V0202501N002619999999N9999999N1+00451+00311101421ADDAA112001091KA1120M+00481MA1999999094301MD1210311+9999OA149901341REMSYN106AAXX  11184 06616 03/// /2505 10045 20031 39430 40142 52031 60012 333 10048 55300 20000 60005 91126 91212;
0140066160999992011011119004+47433+006950FM-12+059799999V0202501N003119999999N9999999N1+00461+00311101511ADDMA1999999094381MD1210291+9999OA149900571REMSYN088AAXX  11194 06616 33/// /2506 10046 20031 39438 40151 52029 333 55300 20000 91111 91206;
0146066160999992011011120004+47433+006950FM-12+059799999V0202501N003119999999N9999999N1+00461+00331101601ADDMA1999999094471MD1110271+9999OA149900721REMSYN094AAXX  11204 06616 23/// /2506 10046 20033 39447 40160 51027 333 55300 20000 69925 91114 91207;
0140066160999992011011121004+47433+006950FM-12+059799999V0202301N002619999999N9999999N1+00471+00321101711ADDMA1999999094571MD1310271+9999OA149901131REMSYN088AAXX  11214 06616 33/// /2305 10047 20032 39457 40171 53027 333 55300 20000 91122 91210;
0140066160999992011011122004+47433+006950FM-12+059799999V0202401N003119999999N9999999N1+00491+00351101781ADDMA1999999094641MD1210261+9999OA149900571REMSYN088AAXX  11224 06616 33/// /2406 10049 20035 39464 40178 52026 333 55300 20000 91111 91207;
0140066160999992011011123004+47433+006950FM-12+059799999V0202501N004119999999N9999999N1+00511+00341101821ADDMA1999999094681MD1110211+9999OA149900931REMSYN088AAXX  11234 06616 33/// /2508 10051 20034 39468 40182 51021 333 55300 20000 91118 91208;
0163066160999992011011200004+47433+006950FM-12+059799999V0202501N002619999999N9999999N1+00491+00381101891ADDAA106000891MA1999999094741MD1310171+9999OA149901131REMSYN100AAXX  12004 06616 03/// /2505 10049 20038 39474 40189 53017 69981 333 55300 20000 69965 91122 91212;
0146066160999992011011201004+47433+006950FM-12+059799999V0202501N003619999999N9999999N1+00491+00381101951ADDMA1999999094801MD1310161+9999OA149900881REMSYN094AAXX  12014 06616 23/// /2507 10049 20038 39480 40195 53016 333 55300 20000 69985 91117 91208;
0109066160999992011011202004+47433+006950FM-12+059799999V0202701N003119999999N9999999N1+00421+00301102101ADDMA1999999094921REMSYN082AAXX  12024 06616 23/// /2706 10042 20030 39492 40210 5//// 333 553// 20000 69975;
0087066160999992011011203004+47433+006950FM-12+059799999V0202601N003119999999N9999999N1+00361+00231102201ADDMA1999999095001REMSYN060AAXX  12034 06616 43/// /2606 10036 20023 39500 40220 5////;
0087066160999992011011204004+47433+006950FM-12+059799999V0202601N003119999999N9999999N1+00371+00251102241ADDMA1999999095041REMSYN060AAXX  12044 06616 43/// /2606 10037 20025 39504 40224 5////;
0103066160999992011011205004+47433+006950FM-12+059799999V0202601N004119999999N9999999N1+00361+00231102321ADDMA1999999095111REMSYN076AAXX  12054 06616 33/// /2608 10036 20023 39511 40232 5//// 333 553// 20000;
0159066160999992011011206004+47433+006950FM-12+059799999V0202501N002619999999N9999999N1+00341+00201102391ADDAA124004191GJ100849IA2999+00309KA1999N+00341MA1999999095171REMSYN088AAXX  12064 06616 43/// /2505 10034 20020 39517 40239 5//// 333 20034 3/003 55014 70040;
0140066160999992011011207004+47433+006950FM-12+059799999V0202301N002619999999N9999999N1+00321+00191102421ADDMA1999999095191MD1210151+9999OA149900671REMSYN088AAXX  12074 06616 33/// /2305 10032 20019 39519 40242 52015 333 55300 20000 91113 91207;
0087066160999992011011208004+47433+006950FM-12+059799999V0202401N002119999999N9999999N1+00321+00181102451ADDMA1999999095221REMSYN060AAXX  12084 06616 43/// /2404 10032 20018 39522 40245 5////;
0087066160999992011011209004+47433+006950FM-12+059799999V0202401N002619999999N9999999N1+00331+00151102461ADDMA1999999095231REMSYN060AAXX  12094 06616 43/// /2405 10033 20015 39523 40246 5////;
0140066160999992011011210004+47433+006950FM-12+059799999V0202401N002119999999N9999999N1+00381+00161102451ADDMA1999999095241MD1219999+9999OA149900671REMSYN088AAXX  12104 06616 33/// /2404 10038 20016 39524 40245 52/// 333 55300 20256 91113 91206;
0117066160999992011011211004+47433+006950FM-12+059799999V0202401N002619999999N9999999N1+00401+00101102391ADDMA1999999095191MD1710031+9999REMSYN076AAXX  12114 06616 33/// /2405 10040 20010 39519 40239 57003 333 55300 20248;
0087066160999992011011212004+47433+006950FM-12+059799999V0202501N003619999999N9999999N1+00411+00081102371ADDMA1999999095171REMSYN060AAXX  12124 06616 43/// /2507 10041 20008 39517 40237 5////;
0087066160999992011011213004+47433+006950FM-12+059799999V0202601N003119999999N9999999N1+00441+00091102331ADDMA1999999095141REMSYN060AAXX  12134 06616 43/// /2606 10044 20009 39514 40233 5////;
0087066160999992011011214004+47433+006950FM-12+059799999V0202301N004119999999N9999999N1+00461+00111102271ADDMA1999999095091REMSYN060AAXX  12144 06616 43/// /2308 10046 20011 39509 40227 5////;
0087066160999992011011215004+47433+006950FM-12+059799999V0202501N002619999999N9999999N1+00461+00091102281ADDMA1999999095101REMSYN060AAXX  12154 06616 43/// /2505 10046 20009 39510 40228 5////;
0140066160999992011011216004+47433+006950FM-12+059799999V0202501N002119999999N9999999N1+00481+00041102241ADDMA1999999095071MD1719999+9999OA149900671REMSYN088AAXX  12164 06616 33/// /2504 10048 20004 39507 40224 57/// 333 55300 20000 91113 91207;
0140066160999992011011217004+47433+006950FM-12+059799999V0202401N004119999999N9999999N1+00531+00061102231ADDMA1999999095071MD1710021+9999OA149900771REMSYN088AAXX  12174 06616 33/// /2408 10053 20006 39507 40223 57002 333 55300 20000 91115 91208;
0159066160999992011011218004+47433+006950FM-12+059799999V0202401N004119999999N9999999N1+00591+00311102201ADDKA1120M+00571MA1999999095061MD1810041+9999OA149900881REMSYN094AAXX  12184 06616 33/// /2408 10059 20031 39506 40220 58004 333 10057 55300 20000 91117 91209;
0140066160999992011011219004+47433+006950FM-12+059799999V0202301N005119999999N9999999N1+00581+00401102251ADDMA1999999095101MD1319999+9999OA149901031REMSYN088AAXX  12194 06616 33/// /2310 10058 20040 39510 40225 53/// 333 55300 20000 91120 91212;
0146066160999992011011220004+47433+006950FM-12+059799999V0202301N003619999999N9999999N1+00601+00501102251ADDMA1999999095111MD1310041+9999OA149901031REMSYN094AAXX  12204 06616 23/// /2307 10060 20050 39511 40225 53004 333 55300 20000 69995 91120 91212;
0146066160999992011011221004+47433+006950FM-12+059799999V0202401N004619999999N9999999N1+00691+00541102221ADDMA1999999095101MD1210041+9999OA149901031REMSYN094AAXX  12214 06616 23/// /2409 10069 20054 39510 40222 52004 333 55300 20000 60015 91120 91212;
0146066160999992011011222004+47433+006950FM-12+059799999V0202401N004119999999N9999999N1+00721+00581102221ADDMA1999999095111MD1010011+9999OA149901131REMSYN094AAXX  12224 06616 23/// /2408 10072 20058 39511 40222 50001 333 55300 20000 60015 91122 91210;
0146066160999992011011223004+47433+006950FM-12+059799999V0202401N003619999999N9999999N1+00751+00601102211ADDMA1999999095111MD1510001+9999OA149901131REMSYN094AAXX  12234 06616 23/// /2407 10075 20060 39511 40221 55000 333 55300 20000 69975 91122 91210;
0163066160999992011011300004+47433+006950FM-12+059799999V0202201N005119999999N9999999N1+00791+00631102151ADDAA106005191MA1999999095061MD1710041+9999OA149901131REMSYN100AAXX  13004 06616 03/// /2210 10079 20063 39506 40215 57004 60051 333 55300 20000 69985 91122 91212;
0146066160999992011011301004+47433+006950FM-12+059799999V0202301N005119999999N9999999N1+00811+00641102121ADDMA1999999095041MD1710071+9999OA149901181REMSYN094AAXX  13014 06616 23/// /2310 10081 20064 39504 40212 57007 333 55300 20000 69955 91123 91211;
0146066160999992011011302004+47433+006950FM-12+059799999V0202301N004619999999N9999999N1+00821+00671102111ADDMA1999999095031MD1719999+9999OA149901181REMSYN094AAXX  13024 06616 23/// /2309 10082 20067 39503 40211 57/// 333 55300 20000 69965 91123 91211;
0087066160999992011011303004+47433+006950FM-12+059799999V0202301N004119999999N9999999N1+00821+00681102111ADDMA1999999095031REMSYN060AAXX  13034 06616 43/// /2308 10082 20068 39503 40211 5////;
0146066160999992011011304004+47433+006950FM-12+059799999V0202301N005719999999N9999999N1+00841+00681102091ADDMA1999999095021MD1719999+9999OA149901031REMSYN094AAXX  13044 06616 23/// /2311 10084 20068 39502 40209 57/// 333 55300 20000 69925 91120 91211;
0109066160999992011011305004+47433+006950FM-12+059799999V0202301N007219999999N9999999N1+00861+00701102091ADDMA1999999095021REMSYN082AAXX  13054 06616 23/// /2314 10086 20070 39502 40209 5//// 333 553// 20000 69935;
0230066160999992011011306004+47433+006950FM-12+059799999V0202301N006219999999N9999999N1+00871+00711102111ADDAA112007191AL12400791GJ100009IA2999+00509KA1999N+00581MA1999999095041MD1210011+9999OA149901341REMSYN124AAXX  13064 06616 03/// /2312 10087 20071 39504 40211 52001 60072 333 20058 3/005 55000 55300 20000 60005 70074 91126 91214;
0087066160999992011011307004+47433+006950FM-12+059799999V0202201N006219999999N9999999N1+00881+00711102141ADDMA1999999095071REMSYN060AAXX  13074 06616 43/// /2212 10088 20071 39507 40214 5////;
0087066160999992011011308004+47433+006950FM-12+059799999V0202301N005119999999N9999999N1+00891+00731102181ADDMA1999999095111REMSYN060AAXX  13084 06616 43/// /2310 10089 20073 39511 40218 5////;
0087066160999992011011309004+47433+006950FM-12+059799999V0202301N004619999999N9999999N1+00881+00721102211ADDMA1999999095141REMSYN060AAXX  13094 06616 43/// /2309 10088 20072 39514 40221 5////;
0087066160999992011011310004+47433+006950FM-12+059799999V0202301N004619999999N9999999N1+00901+00751102241ADDMA1999999095171REMSYN060AAXX  13104 06616 43/// /2309 10090 20075 39517 40224 5////;
0087066160999992011011311004+47433+006950FM-12+059799999V0202301N005119999999N9999999N1+00931+00771102211ADDMA1999999095151REMSYN060AAXX  13114 06616 43/// /2310 10093 20077 39515 40221 5////;
0087066160999992011011312004+47433+006950FM-12+059799999V0202301N004619999999N9999999N1+00961+00801102161ADDMA1999999095111REMSYN060AAXX  13124 06616 43/// /2309 10096 20080 39511 40216 5////;
0087066160999992011011313004+47433+006950FM-12+059799999V0202301N003619999999N9999999N1+01001+00771102081ADDMA1999999095051REMSYN060AAXX  13134 06616 43/// /2307 10100 20077 39505 40208 5////;
0087066160999992011011314004+47433+006950FM-12+059799999V0202201N004619999999N9999999N1+00991+00801102111ADDMA1999999095071REMSYN060AAXX  13144 06616 43/// /2209 10099 20080 39507 40211 5////;
0087066160999992011011315004+47433+006950FM-12+059799999V0202201N003619999999N9999999N1+00971+00811102121ADDMA1999999095081REMSYN060AAXX  13154 06616 43/// /2207 10097 20081 39508 40212 5////;
0087066160999992011011316004+47433+006950FM-12+059799999V0202301N003119999999N9999999N1+00971+00841102151ADDMA1999999095111REMSYN060AAXX  13164 06616 43/// /2306 10097 20084 39511 40215 5////;
0146066160999992011011317004+47433+006950FM-12+059799999V0202401N004119999999N9999999N1+00981+00831102171ADDMA1999999095131MD1310061+9999OA149900771REMSYN094AAXX  13174 06616 23/// /2408 10098 20083 39513 40217 53006 333 55300 20000 69925 91115 91209;
0182066160999992011011318004+47433+006950FM-12+059799999V0202401N004119999999N9999999N1+00961+00841102181ADDAA112002091KA1120M+01011MA1999999095131MD1210041+9999OA149901341REMSYN106AAXX  13184 06616 03/// /2408 10096 20084 39513 40218 52004 60022 333 10101 55300 20000 69955 91126 91213;
0165066160999992011011319004+47433+006950FM-12+059799999V0202501N004119999999N9999999N1+00961+00841102161ADDMA1999999095111MD1710011+9999OA149900931REMSYN094AAXX  13194 06616 23/// /2508 10096 20084 39511 40216 57000 333 55300 20000 69915 91118 91209;EQDQ01+000002APC3  
0140066160999992011011320004+47433+006950FM-12+059799999V0202501N004119999999N9999999N1+00951+00811102171ADDMA1999999095121MD1810011+9999OA149900931REMSYN088AAXX  13204 06616 33/// /2508 10095 20081 39512 40217 58001 333 55300 20000 91118 91210;
0140066160999992011011321004+47433+006950FM-12+059799999V0202501N003119999999N9999999N1+00951+00801102171ADDMA1999999095121MD1710011+9999OA149900931REMSYN088AAXX  13214 06616 33/// /2506 10095 20080 39512 40217 57001 333 55300 20000 91118 91210;
0140066160999992011011322004+47433+006950FM-12+059799999V0202501N004119999999N9999999N1+00941+00761102161ADDMA1999999095111MD1510001+9999OA149900931REMSYN088AAXX  13224 06616 33/// /2508 10094 20076 39511 40216 55000 333 55300 20000 91118 91209;
0140066160999992011011323004+47433+006950FM-12+059799999V0202501N003619999999N9999999N1+00921+00711102191ADDMA1999999095131MD1210011+9999OA149900821REMSYN088AAXX  13234 06616 33/// /2507 10092 20071 39513 40219 52001 333 55300 20000 91116 91208;
0182066160999992011011400004+47433+006950FM-12+059799999V0202501N004119999999N9999999N1+00891+00691102191ADDAA106000091MA1999999095121MD1010001+9999OA149900931REMSYN100AAXX  14004 06616 03/// /2508 10089 20069 39512 40219 50000 69911 333 55300 20000 60005 91118 91210;EQDQ01  00002PRCP06
0159066160999992011011401004+47433+006950FM-12+059799999V0202401N005119999999N9999999N1+00861+00591102181ADDMA1999999095111MD1810021+9999OA149900931REMSYN088AAXX  14014 06616 33/// /2410 10086 20059 39511 40218 58000 333 55300 20000 91118 91210;EQDQ01+000002APC3  
0103066160999992011011402004+47433+006950FM-12+059799999V0202401N003619999999N9999999N1+00831+00591102231ADDMA1999999095151REMSYN076AAXX  14024 06616 33/// /2407 10083 20059 39515 40223 5//// 333 553// 20000;
0140066160999992011011403004+47433+006950FM-12+059799999V0202401N002619999999N9999999N1+00821+00611102241ADDMA1999999095151MD1210031+9999OA149901181REMSYN088AAXX  14034 06616 33/// /2405 10082 20061 39515 40224 52003 333 55300 20000 91123 91211;
0140066160999992011011404004+47433+006950FM-12+059799999V0202301N003119999999N9999999N1+00831+00621102211ADDMA1999999095131MD1010021+9999OA149900571REMSYN088AAXX  14044 06616 33/// /2306 10083 20062 39513 40221 50002 333 55300 20000 91111 91207;
0140066160999992011011405004+47433+006950FM-12+059799999V0202401N002619999999N9999999N1+00831+00631102211ADDMA1999999095131MD1710021+9999OA149900571REMSYN088AAXX  14054 06616 33/// /2405 10083 20063 39513 40221 57002 333 55300 20000 91111 91206;
0249066160999992011011406004+47433+006950FM-12+059799999V0202401N003119999999N9999999N1+00821+00621102231ADDAA112000091AL14200191GJ100009IA2999+00609KA1999N+00821MA1999999095141MD1510011+9999OA149901181REMSYN124AAXX  14064 06616 03/// /2406 10082 20062 39514 40223 55001 69912 333 20082 3/006 55000 55300 20000 60005 70017 91123 91211;EQDQ01  00002PRCP12
0146066160999992011011407004+47433+006950FM-12+059799999V0202301N002619999999N9999999N1+00771+00651102261ADDMA1999999095161MD1210031+9999OA149900571REMSYN094AAXX  14074 06616 23/// /2305 10077 20065 39516 40226 52003 333 55300 20000 69925 91111 91206;
0087066160999992011011408004+47433+006950FM-12+059799999V0202301N002119999999N9999999N1+00771+00671102271ADDMA1999999095171REMSYN060AAXX  14084 06616 43/// /2304 10077 20067 39517 40227 5////;
0087066160999992011011409004+47433+006950FM-12+059799999V0202301N002119999999N9999999N1+00771+00611102261ADDMA1999999095161REMSYN060AAXX  14094 06616 43/// /2304 10077 20061 39516 40226 5////;
0087066160999992011011410004+47433+006950FM-12+059799999V0202201N001519999999N9999999N1+00821+00601102231ADDMA1999999095141REMSYN060AAXX  14104 06616 43/// /2203 10082 20060 39514 40223 5////;
0140066160999992011011411004+47433+006950FM-12+059799999V0202201N002619999999N9999999N1+00871+00601102201ADDMA1999999095131MD1710041+9999OA149900411REMSYN088AAXX  14114 06616 33/// /2205 10087 20060 39513 40220 57004 333 55300 20292 91108 91205;
0163066160999992011011412004+47433+006950FM-12+059799999V0202201N003119999999N9999999N1+00881+00561102151ADDAA106000591MA1999999095081MD1710081+9999OA149901181REMSYN100AAXX  14124 06616 03/// /2206 10088 20056 39508 40215 57008 69951 333 55300 20371 60005 91123 91211;
0140066160999992011011413004+47433+006950FM-12+059799999V0202301N002619999999N9999999N1+00901+00511102101ADDMA1999999095041MD1810101+9999OA149900511REMSYN088AAXX  14134 06616 33/// /2305 10090 20051 39504 40210 58010 333 55300 20432 91110 91206;
0103066160999992011011414004+47433+006950FM-12+059799999V0202201N002119999999N9999999N1+00901+00521102041ADDMA1999999094991REMSYN076AAXX  14144 06616 33/// /2204 10090 20052 39499 40204 5//// 333 553// 20353;
0140066160999992011011415004+47433+006950FM-12+059799999V0202301N001519999999N9999999N1+00891+00441102021ADDMA1999999094971MD1610111+9999OA149900511REMSYN088AAXX  14154 06616 33/// /2303 10089 20044 39497 40202 56011 333 55300 20220 91110 91206;
0140066160999992011011416004+47433+006950FM-12+059799999V0202301N000519999999N9999999N1+00851+00431102011ADDMA1999999094951MD1610091+9999OA149900361REMSYN088AAXX  14164 06616 33/// /2301 10085 20043 39495 40201 56009 333 55300 20036 91107 91204;
0140066160999992011011417004+47433+006950FM-12+059799999V0202501N000519999999N9999999N1+00661+00411102081ADDMA1999999094961MD1710031+9999OA149900361REMSYN088AAXX  14174 06616 33/// /2501 10066 20041 39496 40208 57003 333 55300 20000 91107 91203;
0182066160999992011011418004+47433+006950FM-12+059799999V0202201N001019999999N9999999N1+00621+00411102091ADDAA112000591KA1120M+00921MA1999999094961MD1510011+9999OA149900571REMSYN106AAXX  14184 06616 03/// /2202 10062 20041 39496 40209 55001 69952 333 10092 55300 20000 60005 91111 91206;
0140066160999992011011419004+47433+006950FM-12+059799999V0202301N002619999999N9999999N1+00671+00481102051ADDMA1999999094941MD1010011+9999OA149900411REMSYN088AAXX  14194 06616 33/// /2305 10067 20048 39494 40205 50001 333 55300 20000 91108 91205;
0140066160999992011011420004+47433+006950FM-12+059799999V0202301N003119999999N9999999N1+00691+00481102071ADDMA1999999094961MD1510001+9999OA149900511REMSYN088AAXX  14204 06616 33/// /2306 10069 20048 39496 40207 55000 333 55300 20000 91110 91206;
0140066160999992011011421004+47433+006950FM-12+059799999V0202401N003119999999N9999999N1+00741+00491102131ADDMA1999999095031MD1310071+9999OA149900621REMSYN088AAXX  14214 06616 33/// /2406 10074 20049 39503 40213 53007 333 55300 20000 91112 91206;
0140066160999992011011422004+47433+006950FM-12+059799999V0202501N005719999999N9999999N1+00791+00431102131ADDMA1999999095041MD1110101+9999OA149901391REMSYN088AAXX  14224 06616 33/// /2511 10079 20043 39504 40213 51010 333 55300 20000 91127 91211;
0140066160999992011011423004+47433+006950FM-12+059799999V0202401N005119999999N9999999N1+00811+00391102221ADDMA1999999095131MD1310171+9999OA149901491REMSYN088AAXX  14234 06616 33/// /2410 10081 20039 39513 40222 53017 333 55300 20000 91129 91212;
0163066160999992011011500004+47433+006950FM-12+059799999V0202401N005119999999N9999999N1+00701+00531102361ADDAA106002091MA1999999095231MD1310201+9999OA149901491REMSYN100AAXX  15004 06616 03/// /2410 10070 20053 39523 40236 53020 60021 333 55300 20000 60025 91129 91213;
0146066160999992011011501004+47433+006950FM-12+059799999V0202601N005719999999N9999999N1+00731+00531102391ADDMA1999999095271MD1110231+9999OA149901491REMSYN094AAXX  15014 06616 23/// /2611 10073 20053 39527 40239 51023 333 55300 20000 69935 91129 91213;
0140066160999992011011502004+47433+006950FM-12+059799999V0202701N004119999999N9999999N1+00691+00501102541ADDMA1999999095401MD1319999+9999OA149901241REMSYN088AAXX  15024 06616 33/// /2708 10069 20050 39540 40254 53/// 333 55300 20000 91124 91212;
0103066160999992011011503004+47433+006950FM-12+059799999V0202601N003119999999N9999999N1+00671+00461102651ADDMA1999999095501REMSYN076AAXX  15034 06616 33/// /2606 10067 20046 39550 40265 5//// 333 553// 20000;
0146066160999992011011504004+47433+006950FM-12+059799999V0202401N002119999999N9999999N1+00621+00441102691ADDMA1999999095521MD1210251+9999OA149900931REMSYN094AAXX  15044 06616 23/// /2404 10062 20044 39552 40269 52025 333 55300 20000 69945 91118 91209;
0140066160999992011011505004+47433+006950FM-12+059799999V0202201N003119999999N9999999N1+00641+00411102751ADDMA1999999095581MD1210181+9999OA149900621REMSYN088AAXX  15054 06616 33/// /2206 10064 20041 39558 40275 52018 333 55300 20000 91112 91207;
0230066160999992011011506004+47433+006950FM-12+059799999V0202401N003619999999N9999999N1+00611+00361102821ADDAA112003091AL11200391GJ100009IA2999-00109KA1999N+00561MA1999999095641MD1210141+9999OA149901491REMSYN124AAXX  15064 06616 03/// /2407 10061 20036 39564 40282 52014 60032 333 20056 3/101 55000 55300 20000 60005 70032 91129 91213;
0140066160999992011011507004+47433+006950FM-12+059799999V0202201N002119999999N9999999N1+00531+00311102841ADDMA1999999095641MD1210121+9999OA149900621REMSYN088AAXX  15074 06616 33/// /2204 10053 20031 39564 40284 52012 333 55300 20000 91112 91207;
0140066160999992011011508004+47433+006950FM-12+059799999V0202401N002619999999N9999999N1+00541+00341102891ADDMA1999999095691MD1219999+9999OA149900571REMSYN088AAXX  15084 06616 33/// /2405 10054 20034 39569 40289 52/// 333 55300 20029 91111 91207;
0140066160999992011011509004+47433+006950FM-12+059799999V0202401N002119999999N9999999N1+00651+00411102931ADDMA1999999095751MD1310111+9999OA149900621REMSYN088AAXX  15094 06616 33/// /2404 10065 20041 39575 40293 53011 333 553// 20346 91112 91207;
0140066160999992011011510004+47433+006950FM-12+059799999V0202301N003619999999N9999999N1+00731+00401102901ADDMA1999999095741MD1210101+9999OA149900671REMSYN088AAXX  15104 06616 33/// /2307 10073 20040 39574 40290 52010 333 55309 20713 91113 91207;
0140066160999992011011511004+47433+006950FM-12+059799999V0202201N003619999999N9999999N1+00781+00371102851ADDMA1999999095711MD1010021+9999OA149900721REMSYN088AAXX  15114 06616 33/// /2207 10078 20037 39571 40285 50002 333 553// 2//// 91114 91209;
0140066160999992011011512004+47433+006950FM-12+059799999V0202301N003119999999N9999999N1+00821+00381102811ADDMA1999999095681MD1710071+9999OA149901241REMSYN088AAXX  15124 06616 33/// /2306 10082 20038 39568 40281 57007 333 55309 2//// 91124 91212;
0103066160999992011011513004+47433+006950FM-12+059799999V0202801N002119999999N9999999N1+00791+00321102791ADDMA1999999095661REMSYN076AAXX  15134 06616 33/// /2804 10079 20032 39566 40279 5//// 333 553// 20626;
0087066160999992011011514004+47433+006950FM-12+059799999V0203001N002119999999N9999999N1+00851+00331102791ADDMA1999999095671REMSYN060AAXX  15144 06616 43/// /3004 10085 20033 39567 40279 5////;
0087066160999992011011515004+47433+006950FM-12+059799999V0202501N001519999999N9999999N1+00851+00281102811ADDMA1999999095691REMSYN060AAXX  15154 06616 43/// /2503 10085 20028 39569 40281 5////;
0087066160999992011011516004+47433+006950FM-12+059799999V0202501N001019999999N9999999N1+00741+00301102841ADDMA1999999095691REMSYN060AAXX  15164 06616 43/// /2502 10074 20030 39569 40284 5////;
0103066160999992011011517004+47433+006950FM-12+059799999V0202701N001519999999N9999999N1+00621+00261102861ADDMA1999999095681REMSYN076AAXX  15174 06616 33/// /2703 10062 20026 39568 40286 5//// 333 553// 20000;
0110066160999992011011518004+47433+006950FM-12+059799999V0201101N001519999999N9999999N1+00451+00231102941ADDKA1999M+00881MA1999999095711REMSYN070AAXX  15184 06616 43/// /1103 10045 20023 39571 40294 5//// 333 10088;
0087066160999992011011519004+47433+006950FM-12+059799999V0202701N000519999999N9999999N1+00521+00241102941ADDMA1999999095731REMSYN060AAXX  15194 06616 43/// /2701 10052 20024 39573 40294 5////;
0087066160999992011011520004+47433+006950FM-12+059799999V0209999C000019999999N9999999N1+00371+00211102981ADDMA1999999095731REMSYN060AAXX  15204 06616 43/// /0000 10037 20021 39573 40298 5////;
0140066160999992011011521004+47433+006950FM-12+059799999V0201801N000519999999N9999999N1+00451+00221102951ADDMA1999999095721MD1010011+9999OA149900311REMSYN088AAXX  15214 06616 33/// /1801 10045 20022 39572 40295 50001 333 55300 20000 91106 91203;
0140066160999992011011522004+47433+006950FM-12+059799999V0201101N001019999999N9999999N1+00281+00141102981ADDMA1999999095701MD1719999+9999OA149900261REMSYN088AAXX  15224 06616 33/// /1102 10028 20014 39570 40298 57/// 333 55300 20000 91105 91203;
0140066160999992011011523004+47433+006950FM-12+059799999V0209999C000019999999N9999999N1+00441+00211102901ADDMA1999999095671MD1710061+9999OA149900211REMSYN088AAXX  15234 06616 33/// /0000 10044 20021 39567 40290 57006 333 55300 20000 91104 91203;
0140066160999992011011600004+47433+006950FM-12+059799999V0202301N000519999999N9999999N1+00351+00171102891ADDMA1999999095641MD1610081+9999OA149900511REMSYN088AAXX  16004 06616 33/// /2301 10035 20017 39564 40289 56008 333 55300 20000 91110 91206;
0140066160999992011011601004+47433+006950FM-12+059799999V0202001N001019999999N9999999N1+00291+00031102911ADDMA1999999095641MD1710061+9999OA149900211REMSYN088AAXX  16014 06616 33/// /2002 10029 20003 39564 40291 57006 333 55300 20000 91104 91203;
0140066160999992011011602004+47433+006950FM-12+059799999V0202001N002119999999N9999999N1+00251+00021102941ADDMA1999999095661MD1519999+9999OA149900311REMSYN088AAXX  16024 06616 33/// /2004 10025 20002 39566 40294 55/// 333 55300 20000 91106 91204;
0087066160999992011011603004+47433+006950FM-12+059799999V0201901N002119999999N9999999N1+00251+00021102961ADDMA1999999095681REMSYN060AAXX  16034 06616 43/// /1904 10025 20002 39568 40296 5////;
0140066160999992011011604004+47433+006950FM-12+059799999V0202001N002119999999N9999999N1+00191-00011102991ADDMA1999999095691MD1210051+9999OA149900311REMSYN088AAXX  16044 06616 33/// /2004 10019 21001 39569 40299 52005 333 55300 20000 91106 91204;
0140066160999992011011605004+47433+006950FM-12+059799999V0201701N002119999999N9999999N1+00361+00061102921ADDMA1999999095671MD1010011+9999OA149900511REMSYN088AAXX  16054 06616 33/// /1704 10036 20006 39567 40292 50001 333 55300 20000 91110 91205;
0207066160999992011011606004+47433+006950FM-12+059799999V0209999C000019999999N9999999N1+00301+00071102911ADDAL19900091GJ103309IA2999-00409KA1999N+00191MA1999999095641MD1810041+9999OA149900511REMSYN112AAXX  16064 06616 33/// /0000 10030 20007 39564 40291 58004 333 20019 3/104 55055 55300 20000 70000 91110 91205;
0140066160999992011011607004+47433+006950FM-12+059799999V0202301N000519999999N9999999N1+00381+00001102881ADDMA1999999095641MD1710051+9999OA149900411REMSYN088AAXX  16074 06616 33/// /2301 10038 20000 39564 40288 57005 333 55300 20000 91108 91204;
0140066160999992011011608004+47433+006950FM-12+059799999V0201201N000519999999N9999999N1+00261-00011102921ADDMA1999999095641MD1519999+9999OA149900151REMSYN088AAXX  16084 06616 33/// /1201 10026 21001 39564 40292 55/// 333 55304 20036 91103 91202;
0140066160999992011011609004+47433+006950FM-12+059799999V0201201N001019999999N9999999N1+00391+00081102891ADDMA1999999095651MD1210011+9999OA149900511REMSYN088AAXX  16094 06616 33/// /1202 10039 20008 39565 40289 52001 333 553// 20385 91110 91205;
0140066160999992011011610004+47433+006950FM-12+059799999V0201101N001019999999N9999999N1+00671+00221102831ADDMA1999999095661MD1210021+9999OA149900151REMSYN088AAXX  16104 06616 33/// /1102 10067 20022 39566 40283 52002 333 553// 20868 91103 91203;
0140066160999992011011611004+47433+006950FM-12+059799999V0201101N001019999999N9999999N1+00801+00261102791ADDMA1999999095661MD1210021+9999OA149900151REMSYN088AAXX  16114 06616 33/// /1102 10080 20026 39566 40279 52002 333 553// 2//// 91103 91203;
0140066160999992011011612004+47433+006950FM-12+059799999V0201901N000519999999N9999999N1+00851+00001102761ADDMA1999999095641MD1810011+9999OA149900511REMSYN088AAXX  16124 06616 33/// /1901 10085 20000 39564 40276 58001 333 553// 2//// 91110 91205;
0140066160999992011011613004+47433+006950FM-12+059799999V0200801N000519999999N9999999N1+00941+00221102691ADDMA1999999095601MD1810061+9999OA149900151REMSYN088AAXX  16134 06616 33/// /0801 10094 20022 39560 40269 58006 333 553// 2//// 91103 91202;
0140066160999992011011614004+47433+006950FM-12+059799999V0201201N002119999999N9999999N1+00961+00151102631ADDMA1999999095551MD1819999+9999OA149900261REMSYN088AAXX  16144 06616 33/// /1204 10096 20015 39555 40263 58/// 333 553// 2//// 91105 91204;
0140066160999992011011615004+47433+006950FM-12+059799999V0201201N001019999999N9999999N1+00901+00231102621ADDMA1999999095531MD1610111+9999OA149900261REMSYN088AAXX  16154 06616 33/// /1202 10090 20023 39553 40262 56011 333 553// 20626 91105 91204;
0140066160999992011011616004+47433+006950FM-12+059799999V0201201N001519999999N9999999N1+00711+00161102661ADDMA1999999095521MD1610081+9999OA149900261REMSYN088AAXX  16164 06616 33/// /1203 10071 20016 39552 40266 56008 333 55307 20133 91105 91203;
0140066160999992011011617004+47433+006950FM-12+059799999V0201001N002619999999N9999999N1+00541+00131102691ADDMA1999999095501MD1810051+9999OA149900311REMSYN088AAXX  16174 06616 33/// /1005 10054 20013 39550 40269 58005 333 55300 20000 91106 91205;
0159066160999992011011618004+47433+006950FM-12+059799999V0201201N001519999999N9999999N1+00501+00021102771ADDKA1120M+00991MA1999999095561MD1310031+9999OA149900311REMSYN094AAXX  16184 06616 33/// /1203 10050 20002 39556 40277 53003 333 10099 55300 20000 91106 91205;
0140066160999992011011619004+47433+006950FM-12+059799999V0201601N000519999999N9999999N1+00491+00031102791ADDMA1999999095581MD1210061+9999OA149900261REMSYN088AAXX  16194 06616 33/// /1601 10049 20003 39558 40279 52006 333 55300 20000 91105 91204;
0140066160999992011011620004+47433+006950FM-12+059799999V0201801N001019999999N9999999N1+00511-00121102821ADDMA1999999095611MD1210111+9999OA149900261REMSYN088AAXX  16204 06616 33/// /1802 10051 21012 39561 40282 52011 333 55300 20000 91105 91203;
0140066160999992011011621004+47433+006950FM-12+059799999V0201901N001519999999N9999999N1+00611-00231102771ADDMA1999999095591MD1010031+9999OA149900361REMSYN088AAXX  16214 06616 33/// /1903 10061 21023 39559 40277 50003 333 55300 20000 91107 91205;
0140066160999992011011622004+47433+006950FM-12+059799999V0201801N001519999999N9999999N1+00561-00341102781ADDMA1999999095591MD1010011+9999OA149900361REMSYN088AAXX  16224 06616 33/// /1803 10056 21034 39559 40278 50001 333 55300 20000 91107 91205;
0140066160999992011011623004+47433+006950FM-12+059799999V0201801N002119999999N9999999N1+00601-00411102771ADDMA1999999095591MD1610021+9999OA149900361REMSYN088AAXX  16234 06616 33/// /1804 10060 21041 39559 40277 56002 333 55300 20000 91107 91205;
0140066160999992011011700004+47433+006950FM-12+059799999V0201301N000519999999N9999999N1+00591-00461102771ADDMA1999999095591MD1410001+9999OA149900361REMSYN088AAXX  17004 06616 33/// /1301 10059 21046 39559 40277 54000 333 55300 20000 91107 91205;
0140066160999992011011701004+47433+006950FM-12+059799999V0200601N000519999999N9999999N1+00551-00421102791ADDMA1999999095601MD1210011+9999OA149900211REMSYN088AAXX  17014 06616 33/// /0601 10055 21042 39560 40279 52001 333 55300 20000 91104 91202;
0140066160999992011011702004+47433+006950FM-12+059799999V0203001N000519999999N9999999N1+00661-00101102761ADDMA1999999095601MD1219999+9999OA149900211REMSYN088AAXX  17024 06616 33/// /3001 10066 21010 39560 40276 52/// 333 55300 20000 91104 91202;
0103066160999992011011703004+47433+006950FM-12+059799999V0202701N000519999999N9999999N1+00541-00111102791ADDMA1999999095591REMSYN076AAXX  17034 06616 33/// /2701 10054 21011 39559 40279 5//// 333 553// 20000;
0140066160999992011011704004+47433+006950FM-12+059799999V0202501N000519999999N9999999N1+00491-00151102781ADDMA1999999095571MD1810031+9999OA149900101REMSYN088AAXX  17044 06616 33/// /2501 10049 21015 39557 40278 58003 333 55300 20000 91102 91201;
0140066160999992011011705004+47433+006950FM-12+059799999V0209999C000019999999N9999999N1+00411-00011102771ADDMA1999999095541MD1810061+9999OA149900101REMSYN088AAXX  17054 06616 33/// /0000 10041 21001 39554 40277 58006 333 55300 20000 91102 91202;
0207066160999992011011706004+47433+006950FM-12+059799999V0201501N001519999999N9999999N1+00181-00171102781ADDAL19900091GJ104869IA2999-00609KA1999N+00201MA1999999095491MD1810101+9999OA149900361REMSYN112AAXX  17064 06616 33/// /1503 10018 21017 39549 40278 58010 333 20020 3/106 55081 55300 20000 70000 91107 91205;
0140066160999992011011707004+47433+006950FM-12+059799999V0202601N000519999999N9999999N1+00361-00011102731ADDMA1999999095491MD1710081+9999OA149900211REMSYN088AAXX  17074 06616 33/// /2601 10036 21001 39549 40273 57008 333 55300 20000 91104 91203;
0087066160999992011011708004+47433+006950FM-12+059799999V0202701N000519999999N9999999N1+00431-00221102721ADDMA1999999095501REMSYN060AAXX  17084 06616 43/// /2701 10043 21022 39550 40272 5////;
0087066160999992011011709004+47433+006950FM-12+059799999V0202101N000519999999N9999999N1+00481-00161102731ADDMA1999999095521REMSYN060AAXX  17094 06616 43/// /2101 10048 21016 39552 40273 5////;
0140066160999992011011710004+47433+006950FM-12+059799999V0202301N001019999999N9999999N1+00661+00061102721ADDMA1999999095561MD1310071+9999OA149900211REMSYN088AAXX  17104 06616 33/// /2302 10066 20006 39556 40272 53007 333 553// 20796 91104 91202;
0140066160999992011011711004+47433+006950FM-12+059799999V0203001N002119999999N9999999N1+00731+00081102691ADDMA1999999095551MD1210051+9999OA149900361REMSYN088AAXX  17114 06616 33/// /3004 10073 20008 39555 40269 52005 333 553// 2//// 91107 91204;
0140066160999992011011712004+47433+006950FM-12+059799999V0203201N002619999999N9999999N1+00761+00231102671ADDMA1999999095541MD1010021+9999OA149900461REMSYN088AAXX  17124 06616 33/// /3205 10076 20023 39554 40267 50002 333 553// 2//// 91109 91206;
0140066160999992011011713004+47433+006950FM-12+059799999V0203001N002619999999N9999999N1+00821+00211102661ADDMA1999999095541MD1710021+9999OA149900511REMSYN088AAXX  17134 06616 33/// /3005 10082 20021 39554 40266 57002 333 553// 2//// 91110 91206;
0087066160999992011011714004+47433+006950FM-12+059799999V0203001N002119999999N9999999N1+00841+00331102671ADDMA1999999095561REMSYN060AAXX  17144 06616 43/// /3004 10084 20033 39556 40267 5////;
0087066160999992011011715004+47433+006950FM-12+059799999V0203101N001519999999N9999999N1+00781+00401102711ADDMA1999999095581REMSYN060AAXX  17154 06616 43/// /3103 10078 20040 39558 40271 5////;
0140066160999992011011716004+47433+006950FM-12+059799999V0202101N000519999999N9999999N1+00681+00341102761ADDMA1999999095601MD1210061+9999OA149900361REMSYN088AAXX  17164 06616 33/// /2101 10068 20034 39560 40276 52006 333 55300 20148 91107 91204;
0140066160999992011011717004+47433+006950FM-12+059799999V0201601N001019999999N9999999N1+00571+00321102781ADDMA1999999095591MD1010031+9999OA149900311REMSYN088AAXX  17174 06616 33/// /1602 10057 20032 39559 40278 50003 333 55300 20000 91106 91204;
0159066160999992011011718004+47433+006950FM-12+059799999V0202301N000519999999N9999999N1+00591+00281102791ADDKA1120M+00861MA1999999095611MD1310021+9999OA149900511REMSYN094AAXX  17184 06616 33/// /2301 10059 20028 39561 40279 53002 333 10086 55300 20000 91110 91206;
0140066160999992011011719004+47433+006950FM-12+059799999V0202001N001519999999N9999999N1+00631+00221102781ADDMA1999999095611MD1310011+9999OA149900261REMSYN088AAXX  17194 06616 33/// /2003 10063 20022 39561 40278 53001 333 55300 20000 91105 91203;
0140066160999992011011720004+47433+006950FM-12+059799999V0202301N001519999999N9999999N1+00671+00131102761ADDMA1999999095601MD1010011+9999OA149900311REMSYN088AAXX  17204 06616 33/// /2303 10067 20013 39560 40276 50001 333 55300 20000 91106 91204;
0140066160999992011011721004+47433+006950FM-12+059799999V0202601N001519999999N9999999N1+00731+00121102771ADDMA1999999095621MD1210011+9999OA149900411REMSYN088AAXX  17214 06616 33/// /2603 10073 20012 39562 40277 52001 333 55300 20000 91108 91204;
0140066160999992011011722004+47433+006950FM-12+059799999V0202801N001519999999N9999999N1+00611+00211102831ADDMA1999999095651MD1210041+9999OA149900411REMSYN088AAXX  17224 06616 33/// /2803 10061 20021 39565 40283 52004 333 55300 20000 91108 91204;
0140066160999992011011723004+47433+006950FM-12+059799999V0202501N001019999999N9999999N1+00521+00311102881ADDMA1999999095671MD1219999+9999OA149900311REMSYN088AAXX  17234 06616 33/// /2502 10052 20031 39567 40288 52/// 333 55300 20000 91106 91203;
0140066160999992011011800004+47433+006950FM-12+059799999V0202001N001519999999N9999999N1+00501+00221102841ADDMA1999999095631MD1010011+9999OA149900511REMSYN088AAXX  18004 06616 33/// /2003 10050 20022 39563 40284 50001 333 55300 20000 91110 91206;
0140066160999992011011801004+47433+006950FM-12+059799999V0202501N001519999999N9999999N1+00561+00191102811ADDMA1999999095621MD1819999+9999OA149900261REMSYN088AAXX  18014 06616 33/// /2503 10056 20019 39562 40281 58/// 333 55300 20000 91105 91203;
0087066160999992011011802004+47433+006950FM-12+059799999V0201701N000519999999N9999999N1+00481+00201102851ADDMA1999999095631REMSYN060AAXX  18024 06616 43/// /1701 10048 20020 39563 40285 5////;
0087066160999992011011803004+47433+006950FM-12+059799999V0202101N002119999999N9999999N1+00501+00171102801ADDMA1999999095591REMSYN060AAXX  18034 06616 43/// /2104 10050 20017 39559 40280 5////;
0103066160999992011011804004+47433+006950FM-12+059799999V0202201N001019999999N9999999N1+00431+00151102821ADDMA1999999095591REMSYN076AAXX  18044 06616 33/// /2202 10043 20015 39559 40282 5//// 333 553// 20000;
0140066160999992011011805004+47433+006950FM-12+059799999V0201901N003119999999N9999999N1+00471+00221102761ADDMA1999999095551MD1710081+9999OA149900361REMSYN088AAXX  18054 06616 33/// /1906 10047 20022 39555 40276 57008 333 55300 20000 91107 91206;
0207066160999992011011806004+47433+006950FM-12+059799999V0202201N002119999999N9999999N1+00521+00221102751ADDAL19900091GJ104389IA2999-00309KA1999N+00381MA1999999095551MD1710041+9999OA149900411REMSYN112AAXX  18064 06616 33/// /2204 10052 20022 39555 40275 57004 333 20038 3/103 55073 55300 20000 70000 91108 91206;
0140066160999992011011807004+47433+006950FM-12+059799999V0202001N002119999999N9999999N1+00531+00231102751ADDMA1999999095551MD1710041+9999OA149900411REMSYN088AAXX  18074 06616 33/// /2004 10053 20023 39555 40275 57004 333 55300 20000 91108 91206;
0087066160999992011011808004+47433+006950FM-12+059799999V0202101N002119999999N9999999N1+00551+00251102731ADDMA1999999095541REMSYN060AAXX  18084 06616 43/// /2104 10055 20025 39554 40273 5////;
0087066160999992011011809004+47433+006950FM-12+059799999V0202601N001019999999N9999999N1+00631+00241102721ADDMA1999999095551REMSYN060AAXX  18094 06616 43/// /2602 10063 20024 39555 40272 5////;
0140066160999992011011810004+47433+006950FM-12+059799999V0202601N001019999999N9999999N1+00681+00331102721ADDMA1999999095561MD1210011+9999OA149900361REMSYN088AAXX  18104 06616 33/// /2602 10068 20033 39556 40272 52001 333 55300 20263 91107 91204;
0140066160999992011011811004+47433+006950FM-12+059799999V0202401N003619999999N9999999N1+00741+00391102681ADDMA1999999095541MD1010001+9999OA149900671REMSYN088AAXX  18114 06616 33/// /2407 10074 20039 39554 40268 50000 333 55301 20608 91113 91208;
0140066160999992011011812004+47433+006950FM-12+059799999V0202401N003619999999N9999999N1+00831+00411102591ADDMA1999999095481MD1719999+9999OA149900671REMSYN088AAXX  18124 06616 33/// /2407 10083 20041 39548 40259 57/// 333 55301 20742 91113 91208;
0103066160999992011011813004+47433+006950FM-12+059799999V0202501N002619999999N9999999N1+00851+00411102541ADDMA1999999095441REMSYN076AAXX  18134 06616 33/// /2505 10085 20041 39544 40254 5//// 333 553// 20670;
0087066160999992011011814004+47433+006950FM-12+059799999V0202601N004119999999N9999999N1+00771+00291102571ADDMA1999999095451REMSYN060AAXX  18144 06616 43/// /2608 10077 20029 39545 40257 5////;
0087066160999992011011815004+47433+006950FM-12+059799999V0202701N003119999999N9999999N1+00681+00361102621ADDMA1999999095471REMSYN060AAXX  18154 06616 43/// /2706 10068 20036 39547 40262 5////;
0140066160999992011011816004+47433+006950FM-12+059799999V0202501N003619999999N9999999N1+00631+00271102681ADDMA1999999095511MD1310071+9999OA149900931REMSYN088AAXX  18164 06616 33/// /2507 10063 20027 39551 40268 53007 333 55300 20025 91118 91210;
0140066160999992011011817004+47433+006950FM-12+059799999V0202501N002619999999N9999999N1+00621+00211102711ADDMA1999999095541MD1310091+9999OA149900931REMSYN088AAXX  18174 06616 33/// /2505 10062 20021 39554 40271 53009 333 55300 20000 91118 91210;
0159066160999992011011818004+47433+006950FM-12+059799999V0202401N002619999999N9999999N1+00581+00221102741ADDKA1120M+00851MA1999999095561MD1110091+9999OA149900931REMSYN094AAXX  18184 06616 33/// /2405 10058 20022 39556 40274 51009 333 10085 55300 20000 91118 91210;
0140066160999992011011819004+47433+006950FM-12+059799999V0202401N002619999999N9999999N1+00541+00231102731ADDMA1999999095541MD1010031+9999OA149900621REMSYN088AAXX  18194 06616 33/// /2405 10054 20023 39554 40273 50003 333 55300 20000 91112 91205;
0140066160999992011011820004+47433+006950FM-12+059799999V0202401N002619999999N9999999N1+00551+00221102741ADDMA1999999095551MD1010011+9999OA149900511REMSYN088AAXX  18204 06616 33/// /2405 10055 20022 39555 40274 50001 333 55300 20000 91110 91206;
0140066160999992011011821004+47433+006950FM-12+059799999V0202501N001519999999N9999999N1+00541+00241102751ADDMA1999999095561MD1510001+9999OA149900931REMSYN088AAXX  18214 06616 33/// /2503 10054 20024 39556 40275 55000 333 55300 20000 91118 91210;
0146066160999992011011822004+47433+006950FM-12+059799999V0202601N001519999999N9999999N1+00411+00211102811ADDMA1999999095581MD1210041+9999OA149900671REMSYN094AAXX  18224 06616 23/// /2603 10041 20021 39558 40281 52004 333 55300 20000 69925 91113 91206;
0140066160999992011011823004+47433+006950FM-12+059799999V0202501N001519999999N9999999N1+00411+00181102841ADDMA1999999095611MD1210061+9999OA149900671REMSYN088AAXX  18234 06616 33/// /2503 10041 20018 39561 40284 52006 333 55300 20000 91113 91206;
0182066160999992011011900004+47433+006950FM-12+059799999V0202501N001019999999N9999999N1+00371+00181102851ADDAA106000091MA1999999095611MD1210051+9999OA149900931REMSYN100AAXX  19004 06616 03/// /2502 10037 20018 39561 40285 52005 69921 333 55300 20000 60005 91118 91210;EQDQ01  00002PRCP06
0140066160999992011011901004+47433+006950FM-12+059799999V0202501N001519999999N9999999N1+00381+00181102861ADDMA1999999095621MD1219999+9999OA149900411REMSYN088AAXX  19014 06616 33/// /2503 10038 20018 39562 40286 52/// 333 55300 20000 91108 91204;
0087066160999992011011902004+47433+006950FM-12+059799999V0202501N002119999999N9999999N1+00401+00211102851ADDMA1999999095611REMSYN060AAXX  19024 06616 43/// /2504 10040 20021 39561 40285 5////;
0087066160999992011011903004+47433+006950FM-12+059799999V0202901N003119999999N9999999N1+00351+00241102871ADDMA1999999095621REMSYN060AAXX  19034 06616 43/// /2906 10035 20024 39562 40287 5////;
0146066160999992011011904004+47433+006950FM-12+059799999V0202801N003119999999N9999999N1+00301+00201102891ADDMA1999999095621MD1519999+9999OA149900671REMSYN094AAXX  19044 06616 23/// /2806 10030 20020 39562 40289 55/// 333 55300 20000 69935 91113 91207;
0146066160999992011011905004+47433+006950FM-12+059799999V0202801N001519999999N9999999N1+00271+00201102921ADDMA1999999095641MD1219999+9999OA149900571REMSYN094AAXX  19054 06616 23/// /2803 10027 20020 39564 40292 52/// 333 55300 20000 69935 91111 91206;
0230066160999992011011906004+47433+006950FM-12+059799999V0202701N002619999999N9999999N1+00231+00111102941ADDAA112001091AL12400191GJ100189IA2999+00109KA1999N+00271MA1999999095651MD1210031+9999OA149900671REMSYN124AAXX  19064 06616 03/// /2705 10023 20011 39565 40294 52003 60012 333 20027 3/001 55003 55300 20000 60005 70014 91113 91207;
0140066160999992011011907004+47433+006950FM-12+059799999V0202801N002119999999N9999999N1+00201+00081102981ADDMA1999999095681MD1210061+9999OA149900571REMSYN088AAXX  19074 06616 33/// /2804 10020 20008 39568 40298 52006 333 55300 20000 91111 91206;
0087066160999992011011908004+47433+006950FM-12+059799999V0201301N001519999999N9999999N1+00061-00031103061ADDMA1999999095721REMSYN060AAXX  19084 06616 43/// /1303 10006 21003 39572 40306 5////;
0087066160999992011011909004+47433+006950FM-12+059799999V0201701N000519999999N9999999N1+00051-00051103101ADDMA1999999095751REMSYN060AAXX  19094 06616 43/// /1701 10005 21005 39575 40310 5////;
0146066160999992011011910004+47433+006950FM-12+059799999V0201101N001019999999N9999999N1+00061-00041103121ADDMA1999999095781MD1110101+9999OA149900311REMSYN094AAXX  19104 06616 23/// /1102 10006 21004 39578 40312 51010 333 55300 20036 60035 91106 91203;
0146066160999992011011911004+47433+006950FM-12+059799999V0201501N000519999999N9999999N1+00081-00061103101ADDMA1999999095761MD1010041+9999OA149900261REMSYN094AAXX  19114 06616 23/// /1501 10008 21006 39576 40310 50004 333 55300 20238 69955 91105 91202;
0163066160999992011011912004+47433+006950FM-12+059799999V0201201N001519999999N9999999N1+00131-00091103051ADDAA106005191MA1999999095731MD1810021+9999OA149900671REMSYN100AAXX  19124 06616 03/// /1203 10013 21009 39573 40305 58002 60051 333 55301 20842 60005 91113 91207;
0140066160999992011011913004+47433+006950FM-12+059799999V0200301N000519999999N9999999N1+00151-00031103011ADDMA1999999095701MD1810081+9999OA149900261REMSYN088AAXX  19134 06616 33/// /0301 10015 21003 39570 40301 58008 333 55300 20403 91105 91203;
0087066160999992011011914004+47433+006950FM-12+059799999V0203501N000519999999N9999999N1+00141-00111103021ADDMA1999999095701REMSYN060AAXX  19144 06616 43/// /3501 10014 21011 39570 40302 5////;
0087066160999992011011915004+47433+006950FM-12+059799999V0203301N001519999999N9999999N1+00121-00041103021ADDMA1999999095701REMSYN060AAXX  19154 06616 43/// /3303 10012 21004 39570 40302 5////;
0140066160999992011011916004+47433+006950FM-12+059799999V0209999C000519999999N9999999N1+00081-00081103021ADDMA1999999095691MD1710011+9999OA149900211REMSYN088AAXX  19164 06616 33/// /0001 10008 21008 39569 40302 57001 333 55300 20011 91104 91203;
0140066160999992011011917004+47433+006950FM-12+059799999V0200201N000519999999N9999999N1+00061-00111103051ADDMA1999999095711MD1210011+9999OA149900211REMSYN088AAXX  19174 06616 33/// /0201 10006 21011 39571 40305 52001 333 55300 20000 91104 91203;
0182066160999992011011918004+47433+006950FM-12+059799999V0200701N001519999999N9999999N1+00011-00201103071ADDAA112005191KA1120M+00251MA1999999095721MD1210021+9999OA149900571REMSYN106AAXX  19184 06616 03/// /0703 10001 21020 39572 40307 52002 60052 333 10025 55300 20000 60005 91111 91206;
0140066160999992011011919004+47433+006950FM-12+059799999V0200901N000519999999N9999999N1-00041-00181103071ADDMA1999999095701MD1019999+9999OA149900211REMSYN088AAXX  19194 06616 33/// /0901 11004 21018 39570 40307 50/// 333 55300 20000 91104 91203;
0087066160999992011011920004+47433+006950FM-12+059799999V0201001N001019999999N9999999N1-00081-00241103061ADDMA1999999095681REMSYN060AAXX  19204 06616 43/// /1002 11008 21024 39568 40306 5////;
0140066160999992011011921004+47433+006950FM-12+059799999V0201701N000519999999N9999999N1-00081-00291103041ADDMA1999999095661MD1710061+9999OA149900211REMSYN088AAXX  19214 06616 33/// /1701 11008 21029 39566 40304 57006 333 55300 20000 91104 91203;
0140066160999992011011922004+47433+006950FM-12+059799999V0202101N000519999999N9999999N1-00141-00251103011ADDMA1999999095621MD1810081+9999OA149900151REMSYN088AAXX  19224 06616 33/// /2101 11014 21025 39562 40301 58008 333 55300 20000 91103 91202;
0140066160999992011011923004+47433+006950FM-12+059799999V0202701N001019999999N9999999N1-00161-00301103001ADDMA1999999095611MD1619999+9999OA149900151REMSYN088AAXX  19234 06616 33/// /2702 11016 21030 39561 40300 56/// 333 55300 20000 91103 91202;
0140066160999992011012000004+47433+006950FM-12+059799999V0202501N001019999999N9999999N1-00201-00371102991ADDMA1999999095591MD1710071+9999OA149900211REMSYN088AAXX  20004 06616 33/// /2502 11020 21037 39559 40299 57007 333 55300 20000 91104 91203;
0140066160999992011012001004+47433+006950FM-12+059799999V0202401N001519999999N9999999N1-00221-00371102961ADDMA1999999095551MD1710071+9999OA149900211REMSYN088AAXX  20014 06616 33/// /2403 11022 21037 39555 40296 57007 333 55300 20000 91104 91203;
0087066160999992011012002004+47433+006950FM-12+059799999V0202101N001019999999N9999999N1-00311-00451102961ADDMA1999999095531REMSYN060AAXX  20024 06616 43/// /2102 11031 21045 39553 40296 5////;
0087066160999992011012003004+47433+006950FM-12+059799999V0202201N002119999999N9999999N1-00301-00441102911ADDMA1999999095481REMSYN060AAXX  20034 06616 43/// /2204 11030 21044 39548 40291 5////;
0103066160999992011012004004+47433+006950FM-12+059799999V0202301N001519999999N9999999N1-00261-00401102851ADDMA1999999095441REMSYN076AAXX  20044 06616 33/// /2303 11026 21040 39544 40285 5//// 333 553// 20000;
0087066160999992011012005004+47433+006950FM-12+059799999V0202501N001519999999N9999999N1-00231-00371102801ADDMA1999999095401REMSYN060AAXX  20054 06616 43/// /2503 11023 21037 39540 40280 5////;
0249066160999992011012006004+47433+006950FM-12+059799999V0202501N001019999999N9999999N1-00191-00301102771ADDAA112000091AL14200491GJ100069IA2999-01009KA1999N-00331MA1999999095381MD1710101+9999OA149900311REMSYN124AAXX  20064 06616 03/// /2502 11019 21030 39538 40277 57010 69912 333 21033 3/110 55001 55300 20000 69915 70047 91106 91204;EQDQ01  00002PRCP12
0146066160999992011012007004+47433+006950FM-12+059799999V0202401N001519999999N9999999N1-00171-00271102721ADDMA1999999095341MD1710101+9999OA149900261REMSYN094AAXX  20074 06616 23/// /2403 11017 21027 39534 40272 57010 333 55300 20000 69975 91105 91203;
0087066160999992011012008004+47433+006950FM-12+059799999V0202801N001519999999N9999999N1-00141-00251102711ADDMA1999999095341REMSYN060AAXX  20084 06616 43/// /2803 11014 21025 39534 40271 5////;
0087066160999992011012009004+47433+006950FM-12+059799999V0203101N001519999999N9999999N1-00151-00281102741ADDMA1999999095371REMSYN060AAXX  20094 06616 43/// /3103 11015 21028 39537 40274 5////;
0146066160999992011012010004+47433+006950FM-12+059799999V0200501N001019999999N9999999N1-00111-00261102771ADDMA1999999095411MD1310071+9999OA149900311REMSYN094AAXX  20104 06616 23/// /0502 11011 21026 39541 40277 53007 333 55300 20148 69935 91106 91204;
0140066160999992011012011004+47433+006950FM-12+059799999V0200601N002119999999N9999999N1-00111-00271102791ADDMA1999999095421MD1110081+9999OA149900571REMSYN088AAXX  20114 06616 33/// /0604 11011 21027 39542 40279 51008 333 55300 20367 91111 91206;
0163066160999992011012012004+47433+006950FM-12+059799999V0200601N002619999999N9999999N1-00121-00321102771ADDAA106001091MA1999999095401MD1010031+9999OA149900571REMSYN100AAXX  20124 06616 03/// /0605 11012 21032 39540 40277 50003 60011 333 55300 20389 60005 91111 91206;
0140066160999992011012013004+47433+006950FM-12+059799999V0200801N003119999999N9999999N1-00101-00371102741ADDMA1999999095381MD1710031+9999OA149900571REMSYN088AAXX  20134 06616 33/// /0806 11010 21037 39538 40274 57003 333 55300 20540 91111 91206;
0109066160999992011012014004+47433+006950FM-12+059799999V0200501N003119999999N9999999N1-00111-00341102731ADDMA1999999095371REMSYN082AAXX  20144 06616 23/// /0506 11011 21034 39537 40273 5//// 333 553// 20400 69915;
0087066160999992011012015004+47433+006950FM-12+059799999V0200601N005719999999N9999999N1-00191-00361102781ADDMA1999999095391REMSYN060AAXX  20154 06616 43/// /0611 11019 21036 39539 40278 5////;
0140066160999992011012016004+47433+006950FM-12+059799999V0200701N002619999999N9999999N1-00261-00431102801ADDMA1999999095391MD1210011+9999OA149901131REMSYN088AAXX  20164 06616 33/// /0705 11026 21043 39539 40280 52001 333 55300 20004 91122 91211;
0140066160999992011012017004+47433+006950FM-12+059799999V0200601N002119999999N9999999N1-00251-00391102831ADDMA1999999095421MD1210051+9999OA149900821REMSYN088AAXX  20174 06616 33/// /0604 11025 21039 39542 40283 52005 333 55300 20000 91116 91208;
0182066160999992011012018004+47433+006950FM-12+059799999V0200501N003119999999N9999999N1-00241-00351102861ADDAA112002091KA1120M-00071MA1999999095451MD1210061+9999OA149901131REMSYN106AAXX  20184 06616 03/// /0506 11024 21035 39545 40286 52006 60022 333 11007 55300 20000 60005 91122 91211;
0140066160999992011012019004+47433+006950FM-12+059799999V0200601N004119999999N9999999N1-00261-00351102881ADDMA1999999095471MD1219999+9999OA149900821REMSYN088AAXX  20194 06616 33/// /0608 11026 21035 39547 40288 52/// 333 55300 20000 91116 91208;
0087066160999992011012020004+47433+006950FM-12+059799999V0200501N004119999999N9999999N1-00221-00331102891ADDMA1999999095491REMSYN060AAXX  20204 06616 43/// /0508 11022 21033 39549 40289 5////;
0087066160999992011012021004+47433+006950FM-12+059799999V0200501N003619999999N9999999N1-00221-00331102901ADDMA1999999095501REMSYN060AAXX  20214 06616 43/// /0507 11022 21033 39550 40290 5////;
0103066160999992011012022004+47433+006950FM-12+059799999V0200601N004619999999N9999999N1-00231-00371102921ADDMA1999999095511REMSYN076AAXX  20224 06616 33/// /0609 11023 21037 39551 40292 5//// 333 553// 20000;
0087066160999992011012023004+47433+006950FM-12+059799999V0200601N005119999999N9999999N1-00251-00361102961ADDMA1999999095541REMSYN060AAXX  20234 06616 43/// /0610 11025 21036 39554 40296 5////;
