0210066100999992011010100004+46817+006950FM-12+0491LSMP V0203601N001010001519N0001001N1-00141-00141102521ADDAY151061AY241061GA1091+999999999GF109991091999999999999999MA1999999096441MD1710061+9999MW1511OA149900261REMSYN094AAXX  01004 06610 31/01 93602 11014 21014 39644 40252 57006 75154 333 55300 20000 91105 91204;
0140066100999992011010101004+46817+006950FM-12+0491LSMP V0201301N000519999999N9999999N1-00111-00111102491ADDMA1999999096421MD1810071+9999OA149900151REMSYN088AAXX  01014 06610 33/// /1301 11011 21011 39642 40249 58007 333 55300 20000 91103 91202;
0140066100999992011010102004+46817+006950FM-12+0491LSMP V0202301N000519999999N9999999N1-00071-00111102451ADDMA1999999096391MD1610091+9999OA149900101REMSYN088AAXX  01024 06610 33/// /2301 11007 21011 39639 40245 56009 333 55300 20000 91102 91201;
0140066100999992011010103004+46817+006950FM-12+0491LSMP V0202301N001019999999N9999999N1-00051-00101102441ADDMA1999999096381MD1810061+9999OA149900261REMSYN088AAXX  01034 06610 33/// /2302 11005 21010 39638 40244 58006 333 55300 20000 91105 91204;
0140066100999992011010104004+46817+006950FM-12+0491LSMP V0202401N001019999999N9999999N1-00061-00101102411ADDMA1999999096351MD1810071+9999OA149900151REMSYN088AAXX  01044 06610 33/// /2402 11006 21010 39635 40241 58007 333 55300 20000 91103 91202;
0140066100999992011010105004+46817+006950FM-12+0491LSMP V0200501N000519999999N9999999N1-00131-00131102441ADDMA1999999096371MD1710021+9999OA149900151REMSYN088AAXX  01054 06610 33/// /0501 11013 21013 39637 40244 57002 333 55300 20000 91103 91202;
0330066100999992011010106004+46817+006950FM-12+0491LSMP V0201001N000510021019N0008001N1-00111-00111102431ADDAJ100029199999999AL19900091AY151061AY241061GA1081+002101071GF108991081061002501999999GJ100009IA1309IA2999-00109KA1999N-00141MA1999999096361MD1510021+9999MW1441OA149900261REMSYN148AAXX  01064 06610 31308 81001 11011 21011 39636 40243 55002 74454 886// 333 21014 3/101 42002 55000 55300 20000 70000 88707 90768 93100 91105 91204;
0140066100999992011010107004+46817+006950FM-12+0491LSMP V0200901N000519999999N9999999N1-00091-00101102451ADDMA1999999096381MD1210031+9999OA149900101REMSYN088AAXX  01074 06610 33/// /0901 11009 21010 39638 40245 52003 333 55300 20000 91102 91201;
0140066100999992011010108004+46817+006950FM-12+0491LSMP V0200701N000519999999N9999999N1-00081-00101102451ADDMA1999999096391MD1219999+9999OA149900101REMSYN088AAXX  01084 06610 33/// /0701 11008 21010 39639 40245 52/// 333 55300 20029 91102 91202;
0173066100999992011010109004+46817+006950FM-12+0491LSMP V0200401N000510051019N0020001N1-00021-00091102451ADDAY141031AY221031GA1081+005101071GF108991081061004501999999MA1999999096401MW1101REMSYN082AAXX  01094 06610 41420 80401 11002 21009 39640 40245 5//// 71042 886// 333 88717;
0087066100999992011010110004+46817+006950FM-12+0491LSMP V0201101N000519999999N9999999N1+00001-00081102431ADDMA1999999096381REMSYN060AAXX  01104 06610 43/// /1101 10000 21008 39638 40243 5////;
0140066100999992011010111004+46817+006950FM-12+0491LSMP V0209999C000019999999N9999999N1+00051-00021102371ADDMA1999999096341MD1810051+9999OA149900101REMSYN088AAXX  01114 06610 33/// /0000 10005 21002 39634 40237 58005 333 55300 20439 91102 91202;
0173066100999992011010112004+46817+006950FM-12+0491LSMP V0209999C000010021019N0020001N1+00101+00011102311ADDAY141061AY221061GA1081+002101071GF108991081061002501999999MA1999999096291MW1101REMSYN082AAXX  01124 06610 41320 80000 10010 20001 39629 40231 5//// 71042 886// 333 88707;
0087066100999992011010113004+46817+006950FM-12+0491LSMP V0200801N000519999999N9999999N1+00131+00061102211ADDMA1999999096211REMSYN060AAXX  01134 06610 43/// /0801 10013 20006 39621 40221 5////;
0087066100999992011010114004+46817+006950FM-12+0491LSMP V0200801N000519999999N9999999N1+00141+00021102201ADDMA1999999096201REMSYN060AAXX  01144 06610 43/// /0801 10014 20002 39620 40220 5////;
0087066100999992011010115004+46817+006950FM-12+0491LSMP V0202901N001019999999N9999999N1+00161-00081102181ADDMA1999999096181REMSYN060AAXX  01154 06610 43/// /2902 10016 21008 39618 40218 5////;
0087066100999992011010116004+46817+006950FM-12+0491LSMP V0202201N001019999999N9999999N1+00121-00061102161ADDMA1999999096161REMSYN060AAXX  01164 06610 43/// /2202 10012 21006 39616 40216 5////;
0087066100999992011010117004+46817+006950FM-12+0491LSMP V0203501N001019999999N9999999N1+00111-00061102171ADDMA1999999096161REMSYN060AAXX  01174 06610 43/// /3502 10011 21006 39616 40217 5////;
0224066100999992011010118004+46817+006950FM-12+0491LSMP V0201301N001010027019N0045001N1+00081-00071102171ADDAJ100019199999999AL10600091AY121061AY221061GA1081+002701071GF108991081061002501999999IA1259MA1999999096161MW1101REMSYN100AAXX  01184 06610 41345 81302 10008 21007 39616 40217 5//// 71022 886// 333 41001 88709 90766 93100;
0103066100999992011010119004+46817+006950FM-12+0491LSMP V0200501N001019999999N9999999N1+00091-00041102171ADDMA1999999096161REMSYN076AAXX  01194 06610 33/// /0502 10009 21004 39616 40217 5//// 333 553// 20000;
0140066100999992011010120004+46817+006950FM-12+0491LSMP V0200801N001519999999N9999999N1+00081-00071102181ADDMA1999999096171MD1510011+9999OA149900261REMSYN088AAXX  01204 06610 33/// /0803 10008 21007 39617 40218 55001 333 55300 20000 91105 91203;
0222066100999992011010121004+46817+006950FM-12+0491LSMP V0200701N00261003601CN0050001N1+00051-00111102201ADDAY121031AY221031GA1081+003601071GF108991081061004501999999MA1999999096181MD1210021+9999MW1101OA149900411REMSYN106AAXX  01214 06610 31450 80705 10005 21011 39618 40220 52002 71022 886// 333 55300 20000 88712 91108 91205;
0140066100999992011010122004+46817+006950FM-12+0491LSMP V0200801N001519999999N9999999N1+00051-00121102161ADDMA1999999096141MD1810021+9999OA149900461REMSYN088AAXX  01224 06610 33/// /0803 10005 21012 39614 40216 58002 333 55300 20000 91109 91205;
0140066100999992011010123004+46817+006950FM-12+0491LSMP V0200701N002119999999N9999999N1+00041-00131102121ADDMA1999999096101MD1810071+9999OA149900461REMSYN088AAXX  01234 06610 33/// /0704 10004 21013 39610 40212 58007 333 55300 20000 91109 91205;
0222066100999992011010200004+46817+006950FM-12+0491LSMP V0200401N00101003001CN0050001N1+00031-00121102091ADDAY121061AY221061GA1081+003001071GF108991081061004501999999MA1999999096071MD1710111+9999MW1101OA149900461REMSYN106AAXX  02004 06610 31450 80402 10003 21012 39607 40209 57011 71022 886// 333 55300 20000 88710 91109 91205;
0140066100999992011010201004+46817+006950FM-12+0491LSMP V0200701N003119999999N9999999N1+00021-00141102081ADDMA1999999096061MD1610081+9999OA149900511REMSYN088AAXX  02014 06610 33/// /0706 10002 21014 39606 40208 56008 333 55300 20000 91110 91206;
0087066100999992011010202004+46817+006950FM-12+0491LSMP V0200601N002119999999N9999999N1+00021-00171102111ADDMA1999999096091REMSYN060AAXX  02024 06610 43/// /0604 10002 21017 39609 40211 5////;
0087066100999992011010203004+46817+006950FM-12+0491LSMP V0200701N001519999999N9999999N1+00021-00191102101ADDMA1999999096081REMSYN060AAXX  02034 06610 43/// /0703 10002 21019 39608 40210 5////;
0087066100999992011010204004+46817+006950FM-12+0491LSMP V0200601N001519999999N9999999N1+00021-00221102101ADDMA1999999096081REMSYN060AAXX  02044 06610 43/// /0603 10002 21022 39608 40210 5////;
0087066100999992011010205004+46817+006950FM-12+0491LSMP V0200401N001519999999N9999999N1+00001-00221102121ADDMA1999999096091REMSYN060AAXX  02054 06610 43/// /0403 10000 21022 39609 40212 5////;
0275066100999992011010206004+46817+006950FM-12+0491LSMP V0200401N002110072019N0050001N1-00021-00191102111ADDAJ100019199999999AL10600091AY121061AY221061GA1081+007201071GF108991081061008001999999GJ100009IA1259IA2999-00109KA1999N-00021MA1999999096081MW1101REMSYN118AAXX  02064 06610 41550 80404 11002 21019 39608 40211 5//// 71022 886// 333 21002 3/101 41001 55000 88724 90768 93100;
0140066100999992011010207004+46817+006950FM-12+0491LSMP V0200501N001519999999N9999999N1-00031-00181102121ADDMA1999999096091MD1210011+9999OA149900361REMSYN088AAXX  02074 06610 33/// /0503 11003 21018 39609 40212 52001 333 55300 20000 91107 91204;
0140066100999992011010208004+46817+006950FM-12+0491LSMP V0200401N003619999999N9999999N1-00011-00191102151ADDMA1999999096121MD1310031+9999OA149900511REMSYN088AAXX  02084 06610 33/// /0407 11001 21019 39612 40215 53003 333 55300 20018 91110 91207;
0216066100999992011010209004+46817+006950FM-12+0491LSMP V0200501N00261007201CN0180001N1+00001-00191102181ADDGA1021+003601071GA2081+007201071GF108991081061004501999999MA1999999096151MD1310071+9999OA149900571REMSYN106AAXX  02094 06610 32468 80505 10000 21019 39615 40218 53007 886// 333 55300 20137 82712 88724 91111 91207;
0140066100999992011010210004+46817+006950FM-12+0491LSMP V0200601N002619999999N9999999N1+00071-00201102211ADDMA1999999096191MD1110101+9999OA149900571REMSYN088AAXX  02104 06610 33/// /0605 10007 21020 39619 40221 51010 333 55300 20331 91111 91205;
0140066100999992011010211004+46817+006950FM-12+0491LSMP V0200401N003619999999N9999999N1+00121-00121102171ADDMA1999999096171MD1010051+9999OA149900671REMSYN088AAXX  02114 06610 33/// /0407 10012 21012 39617 40217 50005 333 55300 20583 91113 91207;
0229066100999992011010212004+46817+006950FM-12+0491LSMP V0200501N00361005101CN0180001N1+00121-00171102151ADDGA1081+005101071GF108991081061004501999999MA1999999096151MD1710031+9999OA149900721REMSYN100AAXX  02124 06610 32468 80507 10012 21017 39615 40215 58000 886// 333 55300 20446 88717 91114 91209;EQDQ01+000082APCTENQ02+000002APC3  
0140066100999992011010213004+46817+006950FM-12+0491LSMP V0200501N004119999999N9999999N1+00131-00191102141ADDMA1999999096141MD1710051+9999OA149900771REMSYN088AAXX  02134 06610 33/// /0508 10013 21019 39614 40214 57005 333 55300 20385 91115 91209;
0103066100999992011010214004+46817+006950FM-12+0491LSMP V0200501N003119999999N9999999N1+00121-00201102151ADDMA1999999096151REMSYN076AAXX  02144 06610 33/// /0506 10012 21020 39615 40215 5//// 333 553// 20324;
0140066100999992011010215004+46817+006950FM-12+0491LSMP V0200501N004619999999N9999999N1+00091-00331102211ADDMA1999999096201MD1310051+9999OA149900981REMSYN088AAXX  02154 06610 33/// /0509 10009 21033 39620 40221 53005 333 55300 20223 91119 91209;
0140066100999992011010216004+46817+006950FM-12+0491LSMP V0200501N003619999999N9999999N1+00051-00341102261ADDMA1999999096241MD1310101+9999OA149900981REMSYN088AAXX  02164 06610 33/// /0507 10005 21034 39624 40226 53010 333 55300 20047 91119 91210;
0140066100999992011010217004+46817+006950FM-12+0491LSMP V0200501N002619999999N9999999N1+00021-00371102301ADDMA1999999096271MD1110121+9999OA149900981REMSYN088AAXX  02174 06610 33/// /0505 10002 21037 39627 40230 51012 333 55300 20000 91119 91210;
0269066100999992011010218004+46817+006950FM-12+0491LSMP V0200501N003110150019N0200001N1+00001-00541102331ADDAL19900091GA1021+010201081GA2061+015001061GF107991071081012501999999IA1119KA1120M+00141MA1999999096291MD1110091+9999OA149900981REMSYN130AAXX  02184 06610 32670 70506 10000 21054 39629 40233 51009 878// 333 10014 32/// 55300 20000 82834 86650 90766 93100 91119 91210;
0140066100999992011010219004+46817+006950FM-12+0491LSMP V0200501N002119999999N9999999N1-00061-00521102361ADDMA1999999096311MD1110071+9999OA149900671REMSYN088AAXX  02194 06610 33/// /0504 11006 21052 39631 40236 51007 333 55300 20000 91113 91207;
0140066100999992011010220004+46817+006950FM-12+0491LSMP V0200501N001519999999N9999999N1-00131-00491102421ADDMA1999999096351MD1310081+9999OA149900621REMSYN088AAXX  02204 06610 33/// /0503 11013 21049 39635 40242 53008 333 55300 20000 91112 91207;
0194066100999992011010221004+46817+006950FM-12+0491LSMP V0200401N001012200019N0220001N1-00171-00511102461ADDGA1021+014701061GF102991021051012501001001MA1999999096381MD1310091+9999OA149900981REMSYN100AAXX  02214 06610 32672 20402 11017 21051 39638 40246 53009 82500 333 55300 20000 82649 91119 91210;
0140066100999992011010222004+46817+006950FM-12+0491LSMP V0200501N001519999999N9999999N1-00231-00541102501ADDMA1999999096401MD1110091+9999OA149900311REMSYN088AAXX  02224 06610 33/// /0503 11023 21054 39640 40250 51009 333 55300 20000 91106 91203;
0140066100999992011010223004+46817+006950FM-12+0491LSMP V0200601N002119999999N9999999N1-00261-00571102511ADDMA1999999096401MD1210051+9999OA149900311REMSYN088AAXX  02234 06610 33/// /0604 11026 21057 39640 40251 52005 333 55300 20000 91106 91204;
0194066100999992011010300004+46817+006950FM-12+0491LSMP V0200501N001512200019N0180001N1-00301-00591102511ADDGA1011+013201061GF101991011051012501001011MA1999999096391MD1010011+9999OA149900981REMSYN100AAXX  03004 06610 32668 10503 11030 21059 39639 40251 50001 81501 333 55300 20000 81644 91119 91210;
0140066100999992011010301004+46817+006950FM-12+0491LSMP V0200501N002119999999N9999999N1-00301-00581102511ADDMA1999999096391MD1710011+9999OA149900461REMSYN088AAXX  03014 06610 33/// /0504 11030 21058 39639 40251 57001 333 55300 20000 91109 91205;
0140066100999992011010302004+46817+006950FM-12+0491LSMP V0200501N002619999999N9999999N1-00341-00591102531ADDMA1999999096401MD1519999+9999OA149900461REMSYN088AAXX  03024 06610 33/// /0505 11034 21059 39640 40253 55/// 333 55300 20000 91109 91205;
0087066100999992011010303004+46817+006950FM-12+0491LSMP V0200501N002619999999N9999999N1-00381-00641102541ADDMA1999999096401REMSYN060AAXX  03034 06610 43/// /0505 11038 21064 39640 40254 5////;
0140066100999992011010304004+46817+006950FM-12+0491LSMP V0200901N000519999999N9999999N1-00581-00691102591ADDMA1999999096411MD1210021+9999OA149900621REMSYN088AAXX  03044 06610 33/// /0901 11058 21069 39641 40259 52002 333 55300 20000 91112 91207;
0140066100999992011010305004+46817+006950FM-12+0491LSMP V0200801N001019999999N9999999N1-00591-00741102591ADDMA1999999096401MD1410001+9999OA149900361REMSYN088AAXX  03054 06610 33/// /0802 11059 21074 39640 40259 54000 333 55300 20000 91107 91203;
0119066100999992011010305504+46817+006950AUTO +0491LSMP V0209999C000012200019N0112651N1-00601-00701999999ADDGF100991999999999999999999MA1102201999999REMMET066METAR LSMP 030550Z AUTO 00000KT 9999NDV NCD M06/M07 Q1022 RMK BLU;
0286066100999992011010306004+46817+006950FM-12+0491LSMP V0209999C000012200019N0250001N1-00711-00781102621ADDAL19900091GA1001+999999999GF100991001001999999001001GJ100009IA1099IA2999-00909KA1999N-00681MA1999999096401MD1710081+9999OA149900621REMSYN124AAXX  03064 06610 32975 00000 11071 21078 39640 40262 57000 333 21068 31109 55000 55300 20000 70000 90768 93100 91112 91207;EQDQ01+000002APC3  
0119066100999992011010306504+46817+006950AUTO +0491LSMP V0209999C000012200019N0112651N1-00601-00801999999ADDGF100991999999999999999999MA1102201999999REMMET066METAR LSMP 030650Z AUTO 00000KT 9999NDV NCD M06/M08 Q1022 RMK BLU;
0140066100999992011010307004+46817+006950FM-12+0491LSMP V0201901N000519999999N9999999N1-00681-00761102611ADDMA1999999096401MD1410001+9999OA149900211REMSYN088AAXX  03074 06610 33/// /1901 11068 21076 39640 40261 54001 333 55300 20000 91104 91202;
0141066100999992011010307504+46817+006950FM-15+0491LSMP V0209999V000512200019N0112651N1-00601-00801999999ADDMA1102201999999REMMET114METAR LSMP 030750Z VRB01KT 9999 M06/M08 Q1022 RMK BLUMETAR LSMP 030750Z VRB01KT 9999 NCD ////// M06/M08 Q1022 BLU;
0140066100999992011010308004+46817+006950FM-12+0491LSMP V0209999C000019999999N9999999N1-00681-00751102621ADDMA1999999096411MD1319999+9999OA149900151REMSYN088AAXX  03084 06610 33/// /0000 11068 21075 39641 40262 53/// 333 55300 20036 91103 91202;
0145066100999992011010309004+46817+006950FM-12+0491LSMP V0202101N000512200019N0250001N1-00461-00631102591ADDGA1001+999999999GF100991001001999999001001MA1999999096431REMSYN076AAXX  03094 06610 32975 02101 11046 21063 39643 40259 5//// 333 553// 20436;
0126066100999992011010309504+46817+006950FM-15+0491LSMP V0200801N002612200019N0112651N1-00301-00601999999ADDGF100991999999999999999999MA1102201999999REMMET073METAR LSMP 030950Z 08005KT 050V120 9999 NSC ////// M03/M06 Q1022 RMK BLU;
0140066100999992011010310004+46817+006950FM-12+0491LSMP V0202501N001019999999N9999999N1-00361-00631102591ADDMA1999999096461MD1210061+9999OA149900151REMSYN088AAXX  03104 06610 33/// /2502 11036 21063 39646 40259 52006 333 553// 20875 91103 91202;
0175066100999992011010311004+46817+006950FM-12+0491LSMP V0200901N000519999999N9999999N1-00251-00611102521ADDMA1999999096411MD1710101+9999OA149900211REMSYN088AAXX  03114 06610 33/// /0901 11025 21061 39641 40252 58000 333 553// 2//// 91104 91202;EQDQ01+000082APCTENQ02+000002APC3  
0126066100999992011010311504+46817+006950FM-15+0491LSMP V0200701N002112200019N0112651N1-00201-00501999999ADDGF100991999999999999999999MA1102101999999REMMET073METAR LSMP 031150Z 07004KT 030V110 9999 NSC ////// M02/M05 Q1021 RMK BLU;
0194066100999992011010312004+46817+006950FM-12+0491LSMP V0200101N001012200019N0260001N1-00201-00591102441ADDGA1011+013201081GF101991011011012501001001MA1999999096351MD1710081+9999OA149900621REMSYN100AAXX  03124 06610 32676 10102 11020 21059 39635 40244 57008 81100 333 553// 2//// 81844 91112 91207;
0126066100999992011010312504+46817+006950FM-15+0491LSMP V0200601N004612200019N0112651N1-00101-00401999999ADDGF100991999999999999999999MA1102101999999REMMET073METAR LSMP 031250Z 06009KT 040V100 9999 NSC ////// M01/M04 Q1021 RMK BLU;
0140066100999992011010313004+46817+006950FM-12+0491LSMP V0200401N002119999999N9999999N1-00111-00561102391ADDMA1999999096321MD1610141+9999OA149900411REMSYN088AAXX  03134 06610 33/// /0404 11011 21056 39632 40239 56014 333 553// 2//// 91108 91204;
0141066100999992011010313504+46817+006950FM-15+0491LSMP V0200501N004112200019N0112651N1+00001-00501999999ADDMA1102101999999REMMET114METAR LSMP 031350Z 05008KT 9999 M00/M05 Q1021 RMK BLUMETAR LSMP 031350Z 05008KT 9999 NSC ////// M00/M05 Q1021 BLU;
0103066100999992011010314004+46817+006950FM-12+0491LSMP V0200401N002619999999N9999999N1-00071-00561102381ADDMA1999999096321REMSYN076AAXX  03144 06610 33/// /0405 11007 21056 39632 40238 5//// 333 553// 20943;
0118066100999992011010314504+46817+006950FM-15+0491LSMP V0200601N002612200019N0112651N1+00001-00401999999ADDGF100991999999999999999999MA1102101999999REMMET065METAR LSMP 031450Z 06005KT 9999 NSC ////// M00/M04 Q1021 RMK BLU;
0103066100999992011010315004+46817+006950FM-12+0491LSMP V0200801N002119999999N9999999N1-00101-00611102371ADDMA1999999096311REMSYN076AAXX  03154 06610 33/// /0804 11010 21061 39631 40237 5//// 333 553// 20540;
0140066100999992011010316004+46817+006950FM-12+0491LSMP V0200901N001019999999N9999999N1-00191-00621102381ADDMA1999999096301MD1810021+9999OA149900411REMSYN088AAXX  03164 06610 33/// /0902 11019 21062 39630 40238 58002 333 55305 20112 91108 91205;
0140066100999992011010317004+46817+006950FM-12+0491LSMP V0201101N001019999999N9999999N1-00381-00611102441ADDMA1999999096311MD1710011+9999OA149900361REMSYN088AAXX  03174 06610 33/// /1102 11038 21061 39631 40244 57001 333 55300 20000 91107 91205;
0271066100999992011010318004+46817+006950FM-12+0491LSMP V0202301N000512200019N0250001N1-00421-00581102461ADDAJ199992999999999AL19900091GA1001+999999999GF100991001001999999001001IA1259KA1120M-00051MA1999999096321MD1310011+9999OA149900461REMSYN112AAXX  03184 06610 32975 02301 11042 21058 39632 40246 53001 333 11005 41998 55300 20000 90766 93100 91109 91205;EQDQ01  09982SNDP  
0140066100999992011010319004+46817+006950FM-12+0491LSMP V0202201N000519999999N9999999N1-00511-00691102461ADDMA1999999096301MD1010001+9999OA149900211REMSYN088AAXX  03194 06610 33/// /2201 11051 21069 39630 40246 50000 333 55300 20000 91104 91202;
0140066100999992011010320004+46817+006950FM-12+0491LSMP V0202001N001019999999N9999999N1-00581-00711102471ADDMA1999999096291MD1710021+9999OA149900261REMSYN088AAXX  03204 06610 33/// /2002 11058 21071 39629 40247 57002 333 55300 20000 91105 91204;
0210066100999992011010321004+46817+006950FM-12+0491LSMP V0202101N002112200019N0070001N1-00611-00761102451ADDAY101031AY201031GA1001+999999999GF100991001001999999001001MA1999999096271MD1710051+9999MW1101OA149900361REMSYN094AAXX  03214 06610 31957 02104 11061 21076 39627 40245 57005 71000 333 55300 20000 91107 91205;
0140066100999992011010322004+46817+006950FM-12+0491LSMP V0202001N001519999999N9999999N1-00631-00781102461ADDMA1999999096271MD1710031+9999OA149900261REMSYN088AAXX  03224 06610 33/// /2003 11063 21078 39627 40246 57003 333 55300 20000 91105 91204;
0140066100999992011010323004+46817+006950FM-12+0491LSMP V0202101N000519999999N9999999N1-00561-00691102461ADDMA1999999096291MD1710011+9999OA149900261REMSYN088AAXX  03234 06610 33/// /2101 11056 21069 39629 40246 53000 333 55300 20000 91105 91204;
0194066100999992011010400004+46817+006950FM-12+0491LSMP V0201801N00051008101CN0060001N1-00461-00641102401ADDGA1081+008101071GF108991081061008001999999MA1999999096251MD1810021+9999OA149900461REMSYN100AAXX  04004 06610 32556 81801 11046 21064 39625 40240 58002 886// 333 55300 20000 88727 91109 91205;
0140066100999992011010401004+46817+006950FM-12+0491LSMP V0209999C000019999999N9999999N1-00421-00611102351ADDMA1999999096221MD1810051+9999OA149900151REMSYN088AAXX  04014 06610 33/// /0000 11042 21061 39622 40235 58005 333 55300 20000 91103 91202;
0140066100999992011010402004+46817+006950FM-12+0491LSMP V0200901N000519999999N9999999N1-00421-00561102311ADDMA1999999096181MD1719999+9999OA149900151REMSYN088AAXX  04024 06610 33/// /0901 11042 21056 39618 40231 57/// 333 55300 20000 91103 91202;
0140066100999992011010403004+46817+006950FM-12+0491LSMP V0209999C000019999999N9999999N1-00401-00561102261ADDMA1999999096141MD1710111+9999OA149900261REMSYN088AAXX  04034 06610 33/// /0000 11040 21056 39614 40226 57011 333 55300 20000 91105 91204;
0140066100999992011010404004+46817+006950FM-12+0491LSMP V0200901N001019999999N9999999N1-00411-00531102211ADDMA1999999096091MD1610131+9999OA149900101REMSYN088AAXX  04044 06610 33/// /0902 11041 21053 39609 40221 56013 333 55300 20000 91102 91202;
0140066100999992011010405004+46817+006950FM-12+0491LSMP V0209999C000019999999N9999999N1-00371-00551102181ADDMA1999999096071MD1610111+9999OA149900101REMSYN088AAXX  04054 06610 33/// /0000 11037 21055 39607 40218 56011 333 55300 20000 91102 91202;
0184066100999992011010405504+46817+006950FM-15+0491LSMP V0200301N001510075019N0070001N1-00301-00501999999ADDGA1041+004501999GA2071+007501999GA3071+010501999GF107991999999999999999999MA1101801999999REMMET083METAR LSMP 040550Z 03003KT 350V050 7000 SCT015 BKN025 BKN035 M03/M05 Q1018 RMK GRN;
0307066100999992011010406004+46817+006950FM-12+0491LSMP V0209999C00101007201CN0030001N1-00381-00581102151ADDAL19900091AY121061AY221061GA1081+007201071GF108991081061008001999999GJ104509IA1099IA2999-00909KA1999N-00691MA1999999096041MD1810101+9999MW1101OA149900261REMSYN142AAXX  04064 06610 31530 80002 11038 21058 39604 40215 58010 71022 886// 333 21069 31109 55075 55300 20000 70000 88724 90768 93100 91105 91204;
0130066100999992011010406504+46817+006950FM-15+0491LSMP V0200601N001510060019N0070001N1-00301-00501999999ADDGA1081+006001999GF108991999999999999999999MA1101801999999REMMET061METAR LSMP 040650Z 06003KT 7000 OVC020 M03/M05 Q1018 RMK GRN;
0140066100999992011010407004+46817+006950FM-12+0491LSMP V0200301N001019999999N9999999N1-00381-00561102141ADDMA1999999096031MD1710061+9999OA149900151REMSYN088AAXX  04074 06610 33/// /0302 11038 21056 39603 40214 57006 333 55300 20000 91103 91202;
0138066100999992011010407504+46817+006950FM-15+0491LSMP V0200701N001510075019N0060001N1-00301-00501999999ADDGA1081+007501999GF108991999999999999999999MA1101801999999REMMET069METAR LSMP 040750Z 07003KT 040V110 6000 OVC025 M03/M05 Q1018 RMK GRN;
0140066100999992011010408004+46817+006950FM-12+0491LSMP V0201001N000519999999N9999999N1-00391-00571102161ADDMA1999999096041MD1519999+9999OA149900151REMSYN088AAXX  04084 06610 33/// /1001 11039 21057 39604 40216 55/// 333 55300 20004 91103 91202;
0130066100999992011010408504+46817+006950FM-15+0491LSMP V0200601N001010060019N0070001N1-00301-00601999999ADDGA1081+006001999GF108991999999999999999999MA1101801999999REMMET061METAR LSMP 040850Z 06002KT 7000 OVC020 M03/M06 Q1018 RMK GRN;
0169066100999992011010409004+46817+006950FM-12+0491LSMP V0202301N001010075019N0035001N1-00341-00541102141ADDAY121031AY221031GF108991081061008001999999MA1999999096041MW1101REMSYN094AAXX  04094 06610 31535 82302 11034 21054 39604 40214 5//// 71022 886// 333 553// 20101 88724;
0144066100999992011010409504+46817+006950FM-15+0491LSMP V0209999V000510060019N0060001N1-00301-00501999999ADDGA1081+006001999GF108991999999999999999999MA1101801999999MW1831REMMET069METAR LSMP 040950Z VRB01KT 6000 -SHRASN OVC020 M03/M05 Q1018 RMK GRN;
0140066100999992011010410004+46817+006950FM-12+0491LSMP V0202801N000519999999N9999999N1-00321-00501102161ADDMA1999999096061MD1310031+9999OA149900151REMSYN088AAXX  04104 06610 33/// /2801 11032 21050 39606 40216 53003 333 55300 20148 91103 91202;
0173066100999992011010410504+46817+006950AUTO +0491LSMP V0209999V000510054019N0060001N1-00201-00501999999ADDAW1851GA1071+005401999GA2071+006901999GF107991999999999999999999MA1101801999999REMMET082METAR LSMP 041050Z AUTO VRB01KT 6000NDV -SHSN BKN018 BKN023 M02/M05 Q1018 RMK GRN;
0140066100999992011010411004+46817+006950FM-12+0491LSMP V0209999C000019999999N9999999N1-00301-00541102101ADDMA1999999096011MD1710031+9999OA149900151REMSYN088AAXX  04114 06610 33/// /0000 11030 21054 39601 40210 57003 333 55300 20295 91103 91202;
0130066100999992011010411504+46817+006950FM-15+0491LSMP V0209999V000510060019N0060001N1-00201-00501999999ADDGA1071+006001999GF107991999999999999999999MA1101691999999REMMET061METAR LSMP 041150Z VRB01KT 6000 BKN020 M02/M05 Q1017 RMK GRN;
0222066100999992011010412004+46817+006950FM-12+0491LSMP V0200701N00051007201CN0040001N1-00261-00601102031ADDAY121061AY221061GA1081+007201071GF108991081061008001999999MA1999999095951MD1710091+9999MW1101OA149900151REMSYN106AAXX  04124 06610 31540 80701 11026 21060 39595 40203 57009 71022 886// 333 55300 20407 88724 91103 91202;
0153066100999992011010412504+46817+006950FM-15+0491LSMP V0209999V001010066019N0070001N1-00201-00501999999ADDGA1021+005401999GA2071+006601999GF107991999999999999999999MA1101591999999REMMET068METAR LSMP 041250Z VRB02KT 7000 FEW018 BKN022 M02/M05 Q1016 RMK GRN;
0140066100999992011010413004+46817+006950FM-12+0491LSMP V0200501N000519999999N9999999N1-00201-00551101941ADDMA1999999095881MD1710181+9999OA149900151REMSYN088AAXX  04134 06610 33/// /0501 11020 21055 39588 40194 57018 333 55300 20414 91103 91201;
0130066100999992011010413504+46817+006950FM-15+0491LSMP V0209999V000510060019N0060001N1-00201-00501999999ADDGA1081+006001999GF108991999999999999999999MA1101591999999REMMET061METAR LSMP 041350Z VRB01KT 6000 OVC020 M02/M05 Q1016 RMK GRN;
0103066100999992011010414004+46817+006950FM-12+0491LSMP V0209999C000019999999N9999999N1-00201-00481101911ADDMA1999999095851REMSYN076AAXX  04144 06610 33/// /0000 11020 21048 39585 40191 5//// 333 553// 20238;
0130066100999992011010414504+46817+006950FM-15+0491LSMP V0209999C000010060019N0060001N1-00201-00501999999ADDGA1071+006001999GF107991999999999999999999MA1101591999999REMMET061METAR LSMP 041450Z 00000KT 6000 BKN020 M02/M05 Q1016 RMK GRN;
0087066100999992011010415004+46817+006950FM-12+0491LSMP V0200501N000519999999N9999999N1-00191-00491101901ADDMA1999999095841REMSYN060AAXX  04154 06610 43/// /0501 11019 21049 39584 40190 5////;
0153066100999992011010415504+46817+006950FM-15+0491LSMP V0209999C000010060019N0060001N1-00101-00501999999ADDGA1071+006001999GA2071+015001999GF107991999999999999999999MA1101591999999REMMET068METAR LSMP 041550Z 00000KT 6000 BKN020 BKN050 M01/M05 Q1016 RMK GRN;
0140066100999992011010416004+46817+006950FM-12+0491LSMP V0200501N000519999999N9999999N1-00211-00491101901ADDMA1999999095841MD1510041+9999OA149900211REMSYN088AAXX  04164 06610 33/// /0501 11021 21049 39584 40190 55004 333 55300 20018 91104 91202;
0153066100999992011010416504+46817+006950FM-15+0491LSMP V0209999C000010150019N0080001N1-00101-00501999999ADDGA1021+006001999GA2071+015001999GF107991999999999999999999MA1101591999999REMMET068METAR LSMP 041650Z 00000KT 8000 FEW020 BKN050 M01/M05 Q1016 RMK WHT;
0140066100999992011010417004+46817+006950FM-12+0491LSMP V0209999C000019999999N9999999N1-00211-00501101911ADDMA1999999095851MD1510001+9999OA149900211REMSYN088AAXX  04174 06610 33/// /0000 11021 21050 39585 40191 55000 333 55300 20000 91104 91202;
0153066100999992011010417504+46817+006950FM-15+0491LSMP V0209999C000010180019N0080001N1-00101-00501999999ADDGA1041+006001999GA2071+018001999GF107991999999999999999999MA1101591999999REMMET068METAR LSMP 041750Z 00000KT 8000 SCT020 BKN065 M01/M05 Q1016 RMK WHT;
0311066100999992011010418004+46817+006950FM-12+0491LSMP V0201801N00051008101CN0070001N1-00211-00451101941ADDAJ199992999999999AL19900091AY171061AY221061GA1081+008101071GF108991081061008001999999IA1259KA1120M-00191MA1999999095881MD1210041+9999MW1101OA149900211REMSYN130AAXX  04184 06610 31557 81801 11021 21045 39588 40194 52004 71072 886// 333 11019 41998 55300 20000 88727 90766 93100 91104 91202;EQDQ01  09982SNDP  
0153066100999992011010418504+46817+006950FM-15+0491LSMP V0209999C000010060019N0080001N1-00201-00401999999ADDGA1071+006001999GA2071+018001999GF107991999999999999999999MA1101591999999REMMET068METAR LSMP 041850Z 00000KT 8000 BKN020 BKN060 M02/M04 Q1016 RMK WHT;
0140066100999992011010419004+46817+006950FM-12+0491LSMP V0201301N000519999999N9999999N1-00261-00441101931ADDMA1999999095861MD1010021+9999OA149900101REMSYN088AAXX  04194 06610 33/// /1301 11026 21044 39586 40193 50002 333 55300 20000 91102 91201;
0130066100999992011010419504+46817+006950FM-15+0491LSMP V0209999C000012200019N0080001N1-00201-00501999999ADDGA1041+015001999GF104991999999999999999999MA1101591999999REMMET061METAR LSMP 041950Z 00000KT 8000 SCT055 M02/M05 Q1016 RMK BLU;
0140066100999992011010420004+46817+006950FM-12+0491LSMP V0202901N000519999999N9999999N1-00261-00451101901ADDMA1999999095831MD1810021+9999OA149900101REMSYN088AAXX  04204 06610 33/// /2901 11026 21045 39583 40190 58002 333 55300 20000 91102 91201;
0170066100999992011010420504+46817+006950AUTO +0491LSMP V0209999C000012200019N0047001N1-00301-00401999999ADDAW1101GA1021+015001999GA2041+018001999GF104991999999999999999999MA1101491999999REMMET079METAR LSMP 042050Z AUTO 00000KT 4700NDV BR FEW052 SCT061 M03/M04 Q1015 RMK GRN;
0222066100999992011010421004+46817+006950FM-12+0491LSMP V0200901N00051005101CN0040001N1-00301-00391101891ADDAY121031AY221031GA1081+005101071GF108991081061004501999999MA1999999095811MD1710071+9999MW1101OA149900211REMSYN106AAXX  04214 06610 31440 80901 11030 21039 39581 40189 57007 71022 886// 333 55300 20000 88717 91104 91202;
0170066100999992011010421504+46817+006950AUTO +0491LSMP V0209999C000010150019N0044001N1-00301-00501999999ADDAW1101GA1021+004801999GA2071+015001999GF107991999999999999999999MA1101491999999REMMET079METAR LSMP 042150Z AUTO 00000KT 4400NDV BR FEW016 BKN052 M03/M05 Q1015 RMK GRN;
0140066100999992011010422004+46817+006950FM-12+0491LSMP V0203001N000519999999N9999999N1-00261-00411101881ADDMA1999999095811MD1710051+9999OA149900101REMSYN088AAXX  04224 06610 33/// /3001 11026 21041 39581 40188 57005 333 55300 20000 91102 91201;
0147066100999992011010422504+46817+006950AUTO +0491LSMP V0209999C000010150019N0045001N1-00301-00501999999ADDAW1101GA1071+015001999GF107991999999999999999999MA1101591999999REMMET072METAR LSMP 042250Z AUTO 00000KT 4500NDV BR BKN050 M03/M05 Q1016 RMK GRN;
0140066100999992011010423004+46817+006950FM-12+0491LSMP V0209999C000019999999N9999999N1-00261-00411101881ADDMA1999999095811MD1710021+9999OA149900101REMSYN088AAXX  04234 06610 33/// /0000 11026 21041 39581 40188 57002 333 55300 20000 91102 91201;
0147066100999992011010423504+46817+006950AUTO +0491LSMP V0209999C000010147019N0047001N1-00301-00401999999ADDAW1101GA1081+014701999GF108991999999999999999999MA1101491999999REMMET072METAR LSMP 042350Z AUTO 00000KT 4700NDV BR OVC049 M03/M04 Q1015 RMK GRN;
0222066100999992011010500004+46817+006950FM-12+0491LSMP V0202101N00051013201CN0020001N1-00281-00411101861ADDAY121061AY221061GA1081+013201071GF108991081061012501999999MA1999999095791MD1810021+9999MW1101OA149900211REMSYN106AAXX  05004 06610 31620 82101 11028 21041 39579 40186 58002 71022 886// 333 55300 20000 88744 91104 91202;
0147066100999992011010500504+46817+006950AUTO +0491LSMP V0209999C000010147019N0047001N1-00201-00401999999ADDAW1101GA1081+014701999GF108991999999999999999999MA1101491999999REMMET072METAR LSMP 050050Z AUTO 00000KT 4700NDV BR OVC049 M02/M04 Q1015 RMK GRN;
0140066100999992011010501004+46817+006950FM-12+0491LSMP V0203401N000519999999N9999999N1-00251-00391101821ADDMA1999999095761MD1710051+9999OA149900101REMSYN088AAXX  05014 06610 33/// /3401 11025 21039 39576 40182 57005 333 55300 20000 91102 91201;
0147066100999992011010501504+46817+006950AUTO +0491LSMP V0209999C000010138019N0047001N1-00201-00401999999ADDAW1101GA1081+013801999GF108991999999999999999999MA1101491999999REMMET072METAR LSMP 050150Z AUTO 00000KT 4700NDV BR OVC046 M02/M04 Q1015 RMK GRN;
0140066100999992011010502004+46817+006950FM-12+0491LSMP V0200601N000519999999N9999999N1-00261-00381101821ADDMA1999999095751MD1710061+9999OA149900101REMSYN088AAXX  05024 06610 33/// /0601 11026 21038 39575 40182 57006 333 55300 20000 91102 91202;
0147066100999992011010502504+46817+006950AUTO +0491LSMP V0209999C000010135019N0046001N1-00201-00401999999ADDAW1101GA1081+013501999GF108991999999999999999999MA1101491999999REMMET072METAR LSMP 050250Z AUTO 00000KT 4600NDV BR OVC045 M02/M04 Q1015 RMK GRN;
0087066100999992011010503004+46817+006950FM-12+0491LSMP V0209999C000019999999N9999999N1-00241-00371101791ADDMA1999999095731REMSYN060AAXX  05034 06610 43/// /0000 11024 21037 39573 40179 5////;
0147066100999992011010503504+46817+006950AUTO +0491LSMP V0200501N001012200019N0048001N1-00301-00401999999ADDAW1101GA1041+012601999GF104991999999999999999999MA1101391999999REMMET072METAR LSMP 050350Z AUTO 05002KT 4800NDV BR SCT042 M03/M04 Q1014 RMK GRN;
0140066100999992011010504004+46817+006950FM-12+0491LSMP V0201301N000519999999N9999999N1-00361-00421101801ADDMA1999999095711MD1710051+9999OA149900151REMSYN088AAXX  05044 06610 33/// /1301 11036 21042 39571 40180 57005 333 55300 20000 91103 91202;
0147066100999992011010504504+46817+006950AUTO +0491LSMP V0209999V001012200019N0037001N1-00501-00601999999ADDAW1101GA1021+007801999GF102991999999999999999999MA1101391999999REMMET072METAR LSMP 050450Z AUTO VRB02KT 3700NDV BR FEW026 M05/M06 Q1014 RMK GRN;
0140066100999992011010505004+46817+006950FM-12+0491LSMP V0202201N001019999999N9999999N1-00371-00471101801ADDMA1999999095711MD1710041+9999OA149900151REMSYN088AAXX  05054 06610 33/// /2202 11037 21047 39571 40180 57004 333 55300 20000 91103 91203;
0162066100999992011010505504+46817+006950FM-15+0491LSMP V0202001N000510090019N0040001N1-00201-00401999999ADDGA1021+004501999GA2081+009001999GF108991999999999999999999MA1101491999999MW1101REMMET071METAR LSMP 050550Z 20001KT 4000 BR FEW015 OVC030 M02/M04 Q1015 RMK GRN;
0326066100999992011010506004+46817+006950FM-12+0491LSMP V0201901N00051008101CN0016001N1-00311-00381101811ADDAL19900091AY121061AY221061GA1081+008101071GF108991081061008001999999GJ100009IA1099IA2999-00609KA1999N-00451MA1999999095731MD1310021+9999MW1101OA149900151REMSYN142AAXX  05064 06610 31516 81901 11031 21038 39573 40181 53000 71022 886// 333 21045 31106 55000 55300 20000 70000 88727 90768 93100 91103 91203;EQDQ01+000002APC3  
0139066100999992011010506504+46817+006950FM-15+0491LSMP V0201901N001510084019N0040001N1-00201-00401999999ADDGA1071+008401999GF107991999999999999999999MA1101491999999MW1101REMMET064METAR LSMP 050650Z 19003KT 4000 BR BKN028 M02/M04 Q1015 RMK GRN;
0140066100999992011010507004+46817+006950FM-12+0491LSMP V0202101N001019999999N9999999N1-00291-00391101801ADDMA1999999095731MD1210021+9999OA149900151REMSYN088AAXX  05074 06610 33/// /2102 11029 21039 39573 40180 52002 333 55300 20000 91103 91202;
0139066100999992011010507504+46817+006950FM-15+0491LSMP V0209999C000010075019N0030001N1-00201-00301999999ADDGA1071+007501999GF107991999999999999999999MA1101491999999MW1101REMMET064METAR LSMP 050750Z 00000KT 3000 BR BKN025 M02/M03 Q1015 RMK GRN;
0140066100999992011010508004+46817+006950FM-12+0491LSMP V0202201N000519999999N9999999N1-00261-00371101811ADDMA1999999095741MD1219999+9999OA149900151REMSYN088AAXX  05084 06610 33/// /2201 11026 21037 39574 40181 52/// 333 55300 20036 91103 91202;
0139066100999992011010508504+46817+006950FM-15+0491LSMP V0209999V000510054019N0033001N1-00201-00401999999ADDGA1071+005401999GF107991999999999999999999MA1101391999999MW1101REMMET064METAR LSMP 050850Z VRB01KT 3300 BR BKN018 M02/M04 Q1014 RMK GRN;
0222066100999992011010509004+46817+006950FM-12+0491LSMP V0202301N000510042019N0025001N1-00161-00361101761ADDAY121031AY221031GA1071+004201071GF107991071061004501999999MA1999999095721MD1810011+9999MW1101OA149900151REMSYN106AAXX  05094 06610 31425 72301 11016 21036 39572 40176 58001 71022 876// 333 55301 20310 87714 91103 91203;
0139066100999992011010509504+46817+006950FM-15+0491LSMP V0209999V001010060019N0038001N1-00101-00301999999ADDGA1071+006001999GF107991999999999999999999MA1101391999999MW1101REMMET064METAR LSMP 050950Z VRB02KT 3800 BR BKN020 M01/M03 Q1014 RMK GRN;
0140066100999992011010510004+46817+006950FM-12+0491LSMP V0200801N000519999999N9999999N1-00111-00321101721ADDMA1999999095691MD1710041+9999OA149900151REMSYN088AAXX  05104 06610 33/// /0801 11011 21032 39569 40172 57004 333 553// 20817 91103 91202;
0155066100999992011010510504+46817+006950AUTO +0491LSMP V0200501N001512200019N0042001N1+00001-00301999999ADDAW1101GA1041+005101999GF104991999999999999999999MA1101391999999REMMET080METAR LSMP 051050Z AUTO 05003KT 030V090 4200NDV BR SCT017 M00/M03 Q1014 RMK GRN;
0140066100999992011010511004+46817+006950FM-12+0491LSMP V0202301N000519999999N9999999N1-00011-00301101641ADDMA1999999095641MD1710101+9999OA149900101REMSYN088AAXX  05114 06610 33/// /2301 11001 21030 39564 40164 57010 333 553// 2//// 91102 91201;
0138066100999992011010511504+46817+006950FM-15+0491LSMP V0209999V000512200019N0035001N1+00001-00301999999ADDGA1021+003901999GF102991999999999999999999MA1101291999999MW1101REMMET063METAR LSMP 051150Z VRB01KT 3500 BR FEW013 00/M03 Q1013 RMK GRN;
0169066100999992011010512004+46817+006950FM-12+0491LSMP V0202901N000510042019N0040001N1+00031-00321101551ADDAY121061AY221061GF105991051061004501001011MA1999999095561MW1101REMSYN094AAXX  05124 06610 31440 52901 10003 21032 39556 40155 5//// 71022 85601 333 553// 2//// 85714;
0126066100999992011010512504+46817+006950FM-15+0491LSMP V0200801N001012200019N0040001N1+00101-00301999999ADDGF100991999999999999999999MA1101301999999MW1101REMMET067METAR LSMP 051250Z 08002KT 4000 BR NSC ////// 01/M03 Q1013 RMK GRN;
0140066100999992011010513004+46817+006950FM-12+0491LSMP V0209999C000019999999N9999999N1+00081-00261101521ADDMA1999999095551MD1710141+9999OA149900211REMSYN088AAXX  05134 06610 33/// /0000 10008 21026 39555 40152 57014 333 553// 2//// 91104 91202;
0138066100999992011010513504+46817+006950FM-15+0491LSMP V0209999V001012200019N0045001N1+00101-00201999999ADDGA1021+015001999GF102991999999999999999999MA1101191999999MW1101REMMET063METAR LSMP 051350Z VRB02KT 4500 BR FEW050 01/M02 Q1012 RMK GRN;
0087066100999992011010514004+46817+006950FM-12+0491LSMP V0203501N001019999999N9999999N1+00151-00261101441ADDMA1999999095491REMSYN060AAXX  05144 06610 43/// /3502 10015 21026 39549 40144 5////;
0138066100999992011010514504+46817+006950FM-15+0491LSMP V0209999C000012200019N0050001N1+00201-00201999999ADDGA1041+021001999GF104991999999999999999999MA1101191999999MW1101REMMET063METAR LSMP 051450Z 00000KT 5000 BR SCT070 02/M02 Q1012 RMK GRN;
0087066100999992011010515004+46817+006950FM-12+0491LSMP V0209999C000019999999N9999999N1+00101-00251101451ADDMA1999999095481REMSYN060AAXX  05154 06610 43/// /0000 10010 21025 39548 40145 5////;
0160066100999992011010515504+46817+006950AUTO +0491LSMP V0209999C000010135019N0050001N1+00101-00201999999ADDGA1071+013501999GA2071+021001999GF107991999999999999999999MA1101191999999REMMET075METAR LSMP 051550Z AUTO 00000KT 5000NDV BKN045 BKN075 01/M02 Q1012 RMK GRN;
0140066100999992011010516004+46817+006950FM-12+0491LSMP V0201101N001019999999N9999999N1+00001-00231101431ADDMA1999999095441MD1710111+9999OA149900211REMSYN088AAXX  05164 06610 33/// /1102 10000 21023 39544 40143 57011 333 55300 20058 91104 91202;
0160066100999992011010516504+46817+006950AUTO +0491LSMP V0209999C000010210019N0050001N1+00101-00201999999ADDGA1021+015001999GA2081+021001999GF108991999999999999999999MA1101081999999REMMET075METAR LSMP 051650Z AUTO 00000KT 5000NDV FEW051 OVC076 01/M02 Q1011 RMK GRN;
0140066100999992011010517004+46817+006950FM-12+0491LSMP V0202201N000519999999N9999999N1-00021-00211101421ADDMA1999999095431MD1710061+9999OA149900101REMSYN088AAXX  05174 06610 33/// /2201 11002 21021 39543 40142 57006 333 55300 20000 91102 91202;
0146066100999992011010517504+46817+006950AUTO +0491LSMP V0201701N001010150019N0040001N1+00001-00201999999ADDAW1101GA1081+015001999GF108991999999999999999999MA1101081999999REMMET071METAR LSMP 051750Z AUTO 17002KT 4000NDV BR OVC052 00/M02 Q1011 RMK GRN;
0311066100999992011010518004+46817+006950FM-12+0491LSMP V0200901N001012200019N0050001N1-00091-00241101401ADDAJ199992999999999AL19900091AY111061AY211061GA1041+018001061GF104991041051017501001001IA1259KA1120M+00151MA1999999095401MD1819999+9999MW1101OA149900211REMSYN130AAXX  05184 06610 31750 40902 11009 21024 39540 40140 58/// 71011 84500 333 10015 41998 55300 20000 84656 90766 93100 91104 91203;EQDQ01  09982SNDP  
0147066100999992011010518504+46817+006950AUTO +0491LSMP V0209999C000012200019N0046001N1-00101-00301999999ADDAW1101GA1021+013801999GF102991999999999999999999MA1101081999999REMMET072METAR LSMP 051850Z AUTO 00000KT 4600NDV BR FEW046 M01/M03 Q1011 RMK GRN;
0140066100999992011010519004+46817+006950FM-12+0491LSMP V0202901N000519999999N9999999N1-00081-00301101371ADDMA1999999095371MD1810071+9999OA149900151REMSYN088AAXX  05194 06610 33/// /2901 11008 21030 39537 40137 58007 333 55300 20000 91103 91202;
0128066100999992011010519504+46817+006950AUTO +0491LSMP V0209999C000012200019N0037001N1-00201-00301999999ADDAW1101GF100991999999999999999999MA1101021999999REMMET069METAR LSMP 051950Z AUTO 00000KT 3700NDV BR NCD M02/M03 Q1010 RMK GRN;
0140066100999992011010520004+46817+006950FM-12+0491LSMP V0203401N001019999999N9999999N1-00271-00351101361ADDMA1999999095321MD1819999+9999OA149900151REMSYN088AAXX  05204 06610 33/// /3402 11027 21035 39532 40136 58/// 333 55300 20000 91103 91202;
0128066100999992011010520504+46817+006950AUTO +0491LSMP V0209999C000012200019N0027001N1-00201-00301999999ADDAW1101GF100991999999999999999999MA1101021999999REMMET069METAR LSMP 052050Z AUTO 00000KT 2700NDV BR NCD M02/M03 Q1010 RMK YLO;
0173066100999992011010521004+46817+006950FM-12+0491LSMP V0209999C000012200019N0060001N1-00281-00411101341ADDAY111031AY211031GA1001+999999999GF100991001001999999001001MA1999999095301MW1101REMSYN082AAXX  05214 06610 31956 00000 11028 21041 39530 40134 5//// 71011 333 553// 20000;
0147066100999992011010521504+46817+006950AUTO +0491LSMP V0209999V000510420019N0032001N1-00201-00301999999ADDAW1101GA1071+042001999GF107991999999999999999999MA1101021999999REMMET072METAR LSMP 052150Z AUTO VRB01KT 3200NDV BR BKN140 M02/M03 Q1010 RMK GRN;
0140066100999992011010522004+46817+006950FM-12+0491LSMP V0209999C000019999999N9999999N1-00141-00321101291ADDMA1999999095281MD1710091+9999OA149900151REMSYN088AAXX  05224 06610 33/// /0000 11014 21032 39528 40129 57009 333 55300 20000 91103 91202;
0170066100999992011010522504+46817+006950AUTO +0491LSMP V0209999V000510390019N0036001N1-00201-00301999999ADDAW1101GA1021+027001999GA2071+039001999GF107991999999999999999999MA1101021999999REMMET079METAR LSMP 052250Z AUTO VRB01KT 3600NDV BR FEW092 BKN130 M02/M03 Q1010 RMK GRN;
0140066100999992011010523004+46817+006950FM-12+0491LSMP V0201001N001019999999N9999999N1-00111-00351101271ADDMA1999999095271MD1719999+9999OA149900151REMSYN088AAXX  05234 06610 33/// /1002 11011 21035 39527 40127 57/// 333 55300 20000 91103 91203;
0170066100999992011010523504+46817+006950AUTO +0491LSMP V0209999V001010450019N0041001N1-00201-00301999999ADDAW1101GA1041+033001999GA2071+045001999GF107991999999999999999999MA1100911999999REMMET079METAR LSMP 052350Z AUTO VRB02KT 4100NDV BR SCT110 BKN150 M02/M03 Q1009 RMK GRN;
0173066100999992011010600004+46817+006950FM-12+0491LSMP V0209999C000010330019N0060001N1-00151-00361101191ADDAY111061AY211061GA1071+033001031GF107991071001999999071999MA1999999095191MW1101REMSYN082AAXX  06004 06610 41956 70000 11015 21036 39519 40119 5//// 71011 8707/ 333 87361;
0087066100999992011010601004+46817+006950FM-12+0491LSMP V0202101N001019999999N9999999N1-00111-00291101141ADDMA1999999095151REMSYN060AAXX  06014 06610 43/// /2102 11011 21029 39515 40114 5////;
0184066100999992011010601504+46817+006950AUTO +0491LSMP V0209999V00051027001CN0060001N1-00101-00301999999ADDGA1041+021001999GA2041+027001999GA3071+036001999GF107991999999999999999999MA1100811999999REMMET083METAR LSMP 060150Z AUTO VRB01KT 6000NDV SCT071 SCT099 BKN120 M01/M03 Q1008 RMK GRN;
0087066100999992011010602004+46817+006950FM-12+0491LSMP V0202201N001019999999N9999999N1+00041-00271101121ADDMA1999999095161REMSYN060AAXX  06024 06610 43/// /2202 10004 21027 39516 40112 5////;
0147066100999992011010602504+46817+006950AUTO +0491LSMP V0209999V000510141019N0090001N1+00001-00201999999ADDAW1611GA1071+014101999GF107991999999999999999999MA1100911999999REMMET072METAR LSMP 060250Z AUTO VRB01KT 9000NDV -RA BKN047 00/M02 Q1009 RMK WHT;
0087066100999992011010603004+46817+006950FM-12+0491LSMP V0202101N005119999999N9999999N1+00421-00041101051ADDMA1999999095181REMSYN060AAXX  06034 06610 43/// /2110 10042 21004 39518 40105 5////;
0087066100999992011010604004+46817+006950FM-12+0491LSMP V0202301N003619999999N9999999N1+00371-00031101041ADDMA1999999095161REMSYN060AAXX  06044 06610 43/// /2307 10037 21003 39516 40104 5////;
0136066100999992011010604504+46817+006950AUTO +0491LSMP V0202401N003610150019N0112651N1+00401+00001999999ADDGA1081+015001999GF108991999999999999999999MA1100811999999REMMET067METAR LSMP 060450Z AUTO 24007KT 9999NDV OVC051 04/00 Q1008 RMK WHT;
0087066100999992011010605004+46817+006950FM-12+0491LSMP V0202201N006219999999N9999999N1+00411+00071101011ADDMA1999999095141REMSYN060AAXX  06054 06610 43/// /2212 10041 20007 39514 40101 5////;
0128066100999992011010605504+46817+006950FM-15+0491LSMP V0202101N002110150019N0112651N1+00401+00101999999ADDGA1081+015001999GF108991999999999999999999MA1100811999999REMMET059METAR LSMP 060550Z 21004KT 9999 OVC055 04/01 Q1008 RMK WHT;
0252066100999992011010606004+46817+006950FM-12+0491LSMP V0202301N003610132019N0130001N1+00431+00111100991ADDAL10600091AY121061AY221061GA1081+013201071GF108991081071012501999999GJ103609IA1099IA2999-00509KA1999N-00281MA1999999095121MW1101REMSYN112AAXX  06064 06610 41663 82307 10043 20011 39512 40099 5//// 71022 887// 333 21028 31105 55060 88744 90768 93100;
0151066100999992011010606504+46817+006950FM-15+0491LSMP V0209999V000510300019N0112651N1+00501+00101999999ADDGA1041+018001999GA2071+030001999GF107991999999999999999999MA1100811999999REMMET066METAR LSMP 060650Z VRB01KT 9999 SCT060 BKN100 05/01 Q1008 RMK WHT;
0087066100999992011010607004+46817+006950FM-12+0491LSMP V0202201N004119999999N9999999N1+00421+00051100971ADDMA1999999095101REMSYN060AAXX  06074 06610 43/// /2208 10042 20005 39510 40097 5////;
0163066100999992011010607504+46817+006950FM-15+0491LSMP V0202201N004110180019N0112651N1+00501+00101999999ADDGA1041+015001999GA2081+018001999GF108991999999999999999999MA1100811999999MW1801REMMET072METAR LSMP 060750Z 22008KT 9999 -SHRA SCT053 OVC064 05/01 Q1008 RMK WHT;
0103066100999992011010608004+46817+006950FM-12+0491LSMP V0202201N005119999999N9999999N1+00501+00071101031ADDMA1999999095171REMSYN076AAXX  06084 06610 33/// /2210 10050 20007 39517 40103 5//// 333 553// 20025;
0161066100999992011010608504+46817+006950FM-15+0491LSMP V0202101N004110150019N0112651N1+00501+00101999999ADDGA1021+012001999GA2071+015001999GF107991999999999999999999MA1100911999999MW1511REMMET070METAR LSMP 060850Z 21008KT 9999 -DZ FEW040 BKN058 05/01 Q1009 RMK WHT;
0173066100999992011010609004+46817+006950FM-12+0491LSMP V0202401N003610132019N0070001N1+00441+00191101051ADDAY161031AY221031GA1081+013201071GF108991081071012501999999MA1999999095181MW1601REMSYN082AAXX  06094 06610 41657 82407 10044 20019 39518 40105 5//// 76062 887// 333 88744;
0182066100999992011010609504+46817+006950FM-15+0491LSMP V0202301N003610150019N0112651N1+00501+00201999999ADDGA1021+012001999GA2071+015001999GA3071+018001999GF107991999999999999999999MA1100911999999REMMET081METAR LSMP 060950Z 23007KT 200V290 9999 FEW040 BKN055 BKN065 05/02 Q1009 RMK WHT;
0140066100999992011010610004+46817+006950FM-12+0491LSMP V0202501N003619999999N9999999N1+00511+00251101061ADDMA1999999095201MD1210101+9999OA149900931REMSYN088AAXX  06104 06610 33/// /2507 10051 20025 39520 40106 52010 333 55300 20302 91118 91211;
0171066100999992011010610504+46817+006950AUTO +0491LSMP V0202501N004610150019N0112651N1+00601+00301999999ADDAW1811GA1021+014101999GA2071+015001999GF107991999999999999999999MA1100911999999REMMET080METAR LSMP 061050Z AUTO 25009KT 9999NDV -SHRA FEW047 BKN056 06/03 Q1009 RMK WHT;
0140066100999992011010611004+46817+006950FM-12+0491LSMP V0202301N005119999999N9999999N1+00611+00301101011ADDMA1999999095181MD1010011+9999OA149900881REMSYN088AAXX  06114 06610 33/// /2310 10061 20030 39518 40101 50001 333 55300 20443 91117 91210;
0151066100999992011010611504+46817+006950FM-15+0491LSMP V0202301N004110240019N0112651N1+00701+00301999999ADDGA1021+015001999GA2071+024001999GF107991999999999999999999MA1100811999999REMMET066METAR LSMP 061150Z 23008KT 9999 FEW055 BKN085 07/03 Q1008 RMK WHT;
0244066100999992011010612004+46817+006950FM-12+0491LSMP V0202201N00461024001CN0230001N1+00691+00291100931ADDAY161061AY221061GA1041+015001061GA2051+024001031GF108991041051017501071999MA1999999095121MD1810061+9999MW1021OA149901081REMSYN112AAXX  06124 06610 31773 82209 10069 20029 39512 40093 58006 70262 8457/ 333 55300 20497 84650 85358 91121 91212;
0174066100999992011010612504+46817+006950FM-15+0491LSMP V0202101N00361018001CN0112651N1+00801+00401999999ADDGA1021+013501999GA2041+018001999GA3071+021001999GF107991999999999999999999MA1100811999999REMMET073METAR LSMP 061250Z 21007KT 9999 FEW045 SCT060 BKN070 08/04 Q1008 RMK WHT;
0140066100999992011010613004+46817+006950FM-12+0491LSMP V0202201N004619999999N9999999N1+00741+00351100901ADDMA1999999095101MD1610101+9999OA149901081REMSYN088AAXX  06134 06610 33/// /2209 10074 20035 39510 40090 56010 333 55302 20756 91121 91212;
0138066100999992011010613504+46817+006950FM-15+0491LSMP V0202001N003610180019N0112651N1+00701+00301999999ADDGA1071+018001999GF107991999999999999999999MA1100811999999MW1611REMMET063METAR LSMP 061350Z 20007KT 9999 -RA BKN060 07/03 Q1008 RMK WHT;
0087066100999992011010614004+46817+006950FM-12+0491LSMP V0202201N003619999999N9999999N1+00671+00401100921ADDMA1999999095111REMSYN060AAXX  06144 06610 43/// /2207 10067 20040 39511 40092 5////;
0136066100999992011010614504+46817+006950FM-15+0491LSMP V0202001N004610180019N0112651N1+00701+00401999999ADDGA1081+018001999GF108991999999999999999999MA1100811999999REMMET067METAR LSMP 061450Z 20009KT 170V230 9999 OVC065 07/04 Q1008 RMK WHT;
0087066100999992011010615004+46817+006950FM-12+0491LSMP V0202401N003619999999N9999999N1+00691+00391100941ADDMA1999999095131REMSYN060AAXX  06154 06610 43/// /2407 10069 20039 39513 40094 5////;
0146066100999992011010615504+46817+006950AUTO +0491LSMP V0202101N002110150019N0112651N1+00601+00401999999ADDAW1611GA1081+015001999GF108991999999999999999999MA1100811999999REMMET071METAR LSMP 061550Z AUTO 21004KT 9999NDV -RA OVC056 06/04 Q1008 RMK WHT;
0146066100999992011010616004+46817+006950FM-12+0491LSMP V0202301N005119999999N9999999N1+00671+00481100971ADDMA1999999095151MD1210051+9999OA149900881REMSYN094AAXX  06164 06610 23/// /2310 10067 20048 39515 40097 52005 333 55300 20014 69935 91117 91210;
0169066100999992011010616504+46817+006950AUTO +0491LSMP V0209999C000010150019N0112651N1+00701+00401999999ADDAW1611GA1021+005101999GA2071+015001999GF107991999999999999999999MA1100811999999REMMET078METAR LSMP 061650Z AUTO 00000KT 9999NDV -RA FEW017 BKN051 07/04 Q1008 RMK WHT;
0146066100999992011010617004+46817+006950FM-12+0491LSMP V0202201N003619999999N9999999N1+00681+00511100991ADDMA1999999095171MD1210061+9999OA149900881REMSYN094AAXX  06174 06610 23/// /2207 10068 20051 39517 40099 52006 333 55300 20000 69925 91117 91210;
0177066100999992011010617504+46817+006950AUTO +0491LSMP V0201601N001510150019N0112651N1+00701+00401999999ADDAW1611GA1021+005101999GA2071+015001999GF107991999999999999999999MA1100911999999REMMET086METAR LSMP 061750Z AUTO 16003KT 140V200 9999NDV -RA FEW017 BKN055 07/04 Q1009 RMK WHT;
0298066100999992011010618004+46817+006950FM-12+0491LSMP V0202201N00361018001CN0230001N1+00691+00501101031ADDAA112000591AL19900091AY161061AY221061GA1081+018001061GF108991081051017501999999IA1119KA1120M+00781MA1999999095211MD1210081+9999MW1021OA149901081REMSYN142AAXX  06184 06610 01773 82207 10069 20050 39521 40103 52008 69962 70262 885// 333 10078 32/// 55300 20000 69915 88656 90766 93100 91121 91212;
0171066100999992011010618504+46817+006950AUTO +0491LSMP V0202201N003610147019N0112651N1+00701+00501999999ADDAW1811GA1021+006001999GA2081+014701999GF108991999999999999999999MA1100911999999REMMET080METAR LSMP 061850Z AUTO 22007KT 9999NDV -SHRA FEW020 OVC049 07/05 Q1009 RMK WHT;
0146066100999992011010619004+46817+006950FM-12+0491LSMP V0202201N002119999999N9999999N1+00641+00431101091ADDMA1999999095261MD1210111+9999OA149900821REMSYN094AAXX  06194 06610 23/// /2204 10064 20043 39526 40109 52011 333 55300 20000 69935 91116 91208;
0144066100999992011010619504+46817+006950AUTO +0491LSMP V0202001N003610147019N0112651N1+00701+00401999999ADDGA1071+014701999GF107991999999999999999999MA1101021999999REMMET075METAR LSMP 061950Z AUTO 20007KT 170V230 9999NDV BKN049 07/04 Q1010 RMK WHT;
0140066100999992011010620004+46817+006950FM-12+0491LSMP V0202101N002619999999N9999999N1+00661+00461101131ADDMA1999999095301MD1219999+9999OA149900771REMSYN088AAXX  06204 06610 33/// /2105 10066 20046 39530 40113 52/// 333 55300 20000 91115 91208;
0179066100999992011010620504+46817+006950AUTO +0491LSMP V0202101N002110147019N0112651N1+00601+00401999999ADDAW1811GA1021+005701999GA2081+014701999GF108991999999999999999999MA1101021999999REMMET088METAR LSMP 062050Z AUTO 21004KT 180V240 9999NDV -SHRA FEW019 OVC049 06/04 Q1010 RMK WHT;
0222066100999992011010621004+46817+006950FM-12+0491LSMP V0202401N00311018001CN0230001N1+00641+00411101191ADDAY161031AY221031GA1081+018001061GF108991081051017501999999MA1999999095351MD1219999+9999MW1251OA149900881REMSYN106AAXX  06214 06610 31773 82406 10064 20041 39535 40119 52/// 72562 885// 333 55300 20000 88656 91117 91210;
0179066100999992011010621504+46817+006950AUTO +0491LSMP V0202001N003610147019N0112651N1+00701+00401999999ADDAW1811GA1021+005701999GA2081+014701999GF108991999999999999999999MA1101021999999REMMET088METAR LSMP 062150Z AUTO 20007KT 170V230 9999NDV -SHRA FEW019 OVC049 07/04 Q1010 RMK WHT;
0140066100999992011010622004+46817+006950FM-12+0491LSMP V0202201N003119999999N9999999N1+00651+00451101221ADDMA1999999095381MD1210121+9999OA149900771REMSYN088AAXX  06224 06610 33/// /2206 10065 20045 39538 40122 52012 333 55300 20000 91115 91209;
0148066100999992011010622504+46817+006950AUTO +0491LSMP V0209999V001010135019N0112651N1+00701+00501999999ADDAW1811GA1081+013501999GF108991999999999999999999MA1101081999999REMMET073METAR LSMP 062250Z AUTO VRB02KT 9999NDV -SHRA OVC045 07/05 Q1011 RMK WHT;
0103066100999992011010623004+46817+006950FM-12+0491LSMP V0202301N003119999999N9999999N1+00711+00491101261ADDMA1999999095431REMSYN076AAXX  06234 06610 33/// /2306 10071 20049 39543 40126 5//// 333 553// 20000;
0179066100999992011010623504+46817+006950AUTO +0491LSMP V0202201N002610135019N0112651N1+00701+00501999999ADDAW1811GA1071+013501999GA2081+015001999GF108991999999999999999999MA1101081999999REMMET088METAR LSMP 062350Z AUTO 22005KT 190V250 9999NDV -SHRA BKN045 OVC052 07/05 Q1011 RMK WHT;
0173066100999992011010700004+46817+006950FM-12+0491LSMP V0202301N003110141019N0250001N1+00691+00451101281ADDAY161061AY221061GA1081+014101071GF108991081061012501999999MA1999999095451MW1021REMSYN082AAXX  07004 06610 41675 82306 10069 20045 39545 40128 5//// 70262 886// 333 88747;
0167066100999992011010700504+46817+006950AUTO +0491LSMP V0202001N004610150019N0112651N1+00701+00401999999ADDGA1021+012301999GA2081+015001999GF108991999999999999999999MA1101081999999REMMET082METAR LSMP 070050Z AUTO 20009KT 170V240 9999NDV FEW041 OVC050 07/04 Q1011 RMK WHT;
0087066100999992011010701004+46817+006950FM-12+0491LSMP V0202201N004119999999N9999999N1+00711+00461101241ADDMA1999999095421REMSYN060AAXX  07014 06610 43/// /2208 10071 20046 39542 40124 5////;
0169066100999992011010701504+46817+006950AUTO +0491LSMP V0202001N003110150019N0112651N1+00701+00501999999ADDAW1611GA1071+015001999GA2081+021001999GF108991999999999999999999MA1101191999999REMMET078METAR LSMP 070150Z AUTO 20006KT 9999NDV -RA BKN059 OVC075 07/05 Q1012 RMK WHT;
0087066100999992011010702004+46817+006950FM-12+0491LSMP V0202301N004619999999N9999999N1+00711+00441101321ADDMA1999999095491REMSYN060AAXX  07024 06610 43/// /2309 10071 20044 39549 40132 5////;
0169066100999992011010702504+46817+006950AUTO +0491LSMP V0202201N005710180019N0112651N1+00801+00501999999ADDAW1611GA1071+018001999GA2081+021001999GF108991999999999999999999MA1101191999999REMMET078METAR LSMP 070250Z AUTO 22011KT 9999NDV -RA BKN064 OVC073 08/05 Q1012 RMK WHT;
0087066100999992011010703004+46817+006950FM-12+0491LSMP V0201901N003619999999N9999999N1+00631+00531101361ADDMA1999999095511REMSYN060AAXX  07034 06610 43/// /1907 10063 20053 39551 40136 5////;
0169066100999992011010703504+46817+006950AUTO +0491LSMP V0202201N002610150019N0112651N1+00601+00501999999ADDAW1611GA1071+015001999GA2081+018001999GF108991999999999999999999MA1101191999999REMMET078METAR LSMP 070350Z AUTO 22005KT 9999NDV -RA BKN052 OVC060 06/05 Q1012 RMK WHT;
0146066100999992011010704004+46817+006950FM-12+0491LSMP V0202201N005119999999N9999999N1+00691+00531101371ADDMA1999999095531MD1210111+9999OA149900821REMSYN094AAXX  07044 06610 23/// /2210 10069 20053 39553 40137 52011 333 55300 20000 69945 91116 91210;
0197066100999992011010704504+46817+006950AUTO +0491LSMP V0209999V000510144019N0050001N1+00701+00501999999ADDAW1611GA1021+001801999GA2071+014401999GA3081+015001999GF108991999999999999999999MA1101191999999REMMET090METAR LSMP 070450Z AUTO VRB01KT 5000NDV -RA FEW006 BKN048 OVC056 07/05 Q1012 RERA RMK GRN;
0146066100999992011010705004+46817+006950FM-12+0491LSMP V0202301N003119999999N9999999N1+00661+00541101311ADDMA1999999095471MD1810021+9999OA149900821REMSYN094AAXX  07054 06610 23/// /2306 10066 20054 39547 40131 58002 333 55300 20000 69955 91116 91210;
0128066100999992011010705504+46817+006950FM-15+0491LSMP V0209999V001010210019N0112651N1+00601+00501999999ADDGA1071+021001999GF107991999999999999999999MA1101081999999REMMET059METAR LSMP 070550Z VRB02KT 9999 BKN070 06/05 Q1011 RMK WHT;
0340066100999992011010706004+46817+006950FM-12+0491LSMP V0202401N00261018001CN0170001N1+00581+00461101341ADDAA112002091AL13000291AL29900091AY161061AY261061GA1081+018001071GF108991081071017501999999GJ100129IA1119IA2999+00509KA1999N+00601MA1999999095481MD1710031+9999MW1601OA149900821REMSYN154AAXX  07064 06610 01767 82405 10058 20046 39548 40134 57003 60022 76066 887// 333 20060 32005 55002 55300 20000 69915 70025 88756 90768 93100 91116 91210;
0182066100999992011010706504+46817+006950FM-15+0491LSMP V0200801N001510240019N0112651N1+00501+00401999999ADDGA1021+021001999GA2071+024001999GA3071+030001999GF107991999999999999999999MA1101191999999REMMET081METAR LSMP 070650Z 08003KT 030V110 9999 FEW075 BKN085 BKN100 05/04 Q1012 RMK WHT;
0140066100999992011010707004+46817+006950FM-12+0491LSMP V0201201N000519999999N9999999N1+00491+00451101381ADDMA1999999095501MD1510031+9999OA149900511REMSYN088AAXX  07074 06610 33/// /1201 10049 20045 39550 40138 55003 333 55300 20000 91110 91206;
0139066100999992011010707504+46817+006950FM-15+0491LSMP V0209999V000512200019N0112651N1+00401+00401999999ADDGA1041+024001999GF104991999999999999999999MA1101191999999MW1411REMMET064METAR LSMP 070750Z VRB01KT 9999 BCFG SCT085 04/04 Q1012 RMK WHT;
0103066100999992011010708004+46817+006950FM-12+0491LSMP V0201701N000519999999N9999999N1+00511+00391101401ADDMA1999999095521REMSYN076AAXX  07084 06610 33/// /1701 10051 20039 39552 40140 5//// 333 553// 20040;
0159066100999992011010708504+46817+006950FM-15+0491LSMP V0201101N001512200019N0112651N1+00601+00501999999ADDGA1041+003001999GA2041+021001999GF104991999999999999999999MA1101191999999REMMET074METAR LSMP 070850Z 11003KT 070V150 9999 SCT010 SCT070 06/05 Q1012 RMK BLU;
0201066100999992011010709004+46817+006950FM-12+0491LSMP V0200901N001010300019N0030001N1+00541+00471101421ADDAY161031AY221031GA1031+003001061GA2031+030001031GF107991031051004501031061MA1999999095551MW1101REMSYN094AAXX  07094 06610 41430 70902 10054 20047 39555 40142 5//// 71062 83536 333 83610 83360 85275;
0151066100999992011010709504+46817+006950FM-15+0491LSMP V0209999C000012200019N0112651N1+00701+00501999999ADDGA1021+002401999GA2041+003301999GF104991999999999999999999MA1101191999999REMMET066METAR LSMP 070950Z 00000KT 9999 FEW008 SCT011 07/05 Q1012 RMK BLU;
0140066100999992011010710004+46817+006950FM-12+0491LSMP V0200901N001019999999N9999999N1+00781+00621101381ADDMA1999999095561MD1210061+9999OA149900211REMSYN088AAXX  07104 06610 33/// /0902 10078 20062 39556 40138 52006 333 55309 20788 91104 91203;
0136066100999992011010710504+46817+006950AUTO +0491LSMP V0209999V001012200019N0112651N1+00801+00701999999ADDGA1021+024001999GF102991999999999999999999MA1101191999999REMMET067METAR LSMP 071050Z AUTO VRB02KT 9999NDV FEW089 08/07 Q1012 RMK BLU;
0140066100999992011010711004+46817+006950FM-12+0491LSMP V0203601N001019999999N9999999N1+00891+00671101341ADDMA1999999095551MD1210031+9999OA149900151REMSYN088AAXX  07114 06610 33/// /3602 10089 20067 39555 40134 52003 333 55309 2//// 91103 91203;
0128066100999992011010711504+46817+006950FM-15+0491LSMP V0209999V000510270019N0080001N1+01001+00701999999ADDGA1071+027001999GF107991999999999999999999MA1101191999999REMMET059METAR LSMP 071150Z VRB01KT 8000 BKN090 10/07 Q1012 RMK WHT;
0266066100999992011010712004+46817+006950FM-12+0491LSMP V0203401N00101075001CN0090001N1+00951+00651101261ADDAY161061AY221061GA1011+003001071GA2031+021001061GA3051+075001021GF107991041051004501031061MA1999999095481MD1710071+9999MW1101OA149900821REMSYN118AAXX  07124 06610 31459 73402 10095 20065 39548 40126 57007 71062 84536 333 55306 2//// 81710 83657 85275 91116 91210;
0136066100999992011010712504+46817+006950FM-15+0491LSMP V0202901N001512200019N0112651N1+01101+00701999999ADDGA1041+030001999GF104991999999999999999999MA1101081999999REMMET067METAR LSMP 071250Z 29003KT 250V360 9999 SCT100 11/07 Q1011 RMK BLU;
0140066100999992011010713004+46817+006950FM-12+0491LSMP V0200201N001519999999N9999999N1+01011+00721101221ADDMA1999999095461MD1810101+9999OA149900261REMSYN088AAXX  07134 06610 33/// /0203 10101 20072 39546 40122 58010 333 55308 2//// 91105 91203;
0128066100999992011010713504+46817+006950FM-15+0491LSMP V0209999V000510240019N0090001N1+01201+00701999999ADDGA1071+024001999GF107991999999999999999999MA1101081999999REMMET059METAR LSMP 071350Z VRB01KT 9000 BKN085 12/07 Q1011 RMK WHT;
0087066100999992011010714004+46817+006950FM-12+0491LSMP V0200801N001019999999N9999999N1+01001+00751101241ADDMA1999999095481REMSYN060AAXX  07144 06610 43/// /0802 10100 20075 39548 40124 5////;
0128066100999992011010714504+46817+006950FM-15+0491LSMP V0209999V001010240019N0112651N1+00901+00701999999ADDGA1081+024001999GF108991999999999999999999MA1101191999999REMMET059METAR LSMP 071450Z VRB02KT 9999 OVC085 09/07 Q1012 RMK WHT;
0087066100999992011010715004+46817+006950FM-12+0491LSMP V0200801N001019999999N9999999N1+00941+00741101271ADDMA1999999095491REMSYN060AAXX  07154 06610 43/// /0802 10094 20074 39549 40127 5////;
0144066100999992011010715504+46817+006950AUTO +0491LSMP V0200801N001510210019N0112651N1+00901+00701999999ADDGA1081+021001999GF108991999999999999999999MA1101191999999REMMET075METAR LSMP 071550Z AUTO 08003KT 060V120 9999NDV OVC073 09/07 Q1012 RMK WHT;
0140066100999992011010716004+46817+006950FM-12+0491LSMP V0200401N000519999999N9999999N1+00881+00741101311ADDMA1999999095521MD1210061+9999OA149900211REMSYN088AAXX  07164 06610 33/// /0401 10088 20074 39552 40131 52006 333 55300 20022 91104 91203;
0136066100999992011010716504+46817+006950AUTO +0491LSMP V0209999V000510180019N0112651N1+00801+00701999999ADDGA1081+018001999GF108991999999999999999999MA1101191999999REMMET067METAR LSMP 071650Z AUTO VRB01KT 9999NDV OVC069 08/07 Q1012 RMK WHT;
0140066100999992011010717004+46817+006950FM-12+0491LSMP V0200301N000519999999N9999999N1+00801+00681101351ADDMA1999999095541MD1210061+9999OA149900211REMSYN088AAXX  07174 06610 33/// /0301 10080 20068 39554 40135 52006 333 55300 20000 91104 91203;
0136066100999992011010717504+46817+006950AUTO +0491LSMP V0209999C000010210019N0080001N1+00801+00701999999ADDGA1081+021001999GF108991999999999999999999MA1101191999999REMMET067METAR LSMP 071750Z AUTO 00000KT 8000NDV OVC073 08/07 Q1012 RMK WHT;
0250066100999992011010718004+46817+006950FM-12+0491LSMP V0201901N00101033001CN0060001N1+00691+00641101381ADDAY161061AY221061GA1031+024001031GA2041+033001041GF107991061001022501071061IA1119KA1120M+01041MA1999999095541MW1251REMSYN124AAXX  07184 06610 31856 71902 10069 20064 39554 40138 5//// 72562 86076 333 10104 32/// 553// 20000 83358 84461 90766 93100;
0205066100999992011010718504+46817+006950AUTO +0491LSMP V0209999C00001045001CN0025001N1+00601+00501999999ADDAW1101ED105U09009GA1021+028501999GA2071+045001999GF108991999999999999999999MA1101201999999REMMET103METAR LSMP 071850Z AUTO 00000KT 2500NDV R05/0900V2000U R23/P2000N BR FEW095 BKN150 06/05 Q1012 RMK YLO;
0140066100999992011010719004+46817+006950FM-12+0491LSMP V0202801N001019999999N9999999N1+00631+00601101351ADDMA1999999095501MD1819999+9999OA149900211REMSYN088AAXX  07194 06610 33/// /2802 10063 20060 39550 40135 58/// 333 55300 20000 91104 91202;
0145066100999992011010719504+46817+006950AUTO +0491LSMP V0201501N001010330019N0026001N1+00601+00601999999ADDAW1101GA1071+033001999GF107991999999999999999999MA1101191999999REMMET070METAR LSMP 071950Z AUTO 15002KT 2600NDV BR BKN110 06/06 Q1012 RMK YLO;
0087066100999992011010720004+46817+006950FM-12+0491LSMP V0201801N000519999999N9999999N1+00541+00511101361ADDMA1999999095491REMSYN060AAXX  07204 06610 43/// /1801 10054 20051 39549 40136 5////;
0168066100999992011010720504+46817+006950AUTO +0491LSMP V0201501N001510360019N0038001N1+00601+00501999999ADDAW1101GA1041+030001999GA2071+036001999GF107991999999999999999999MA1101191999999REMMET077METAR LSMP 072050Z AUTO 15003KT 3800NDV BR SCT100 BKN120 06/05 Q1012 RMK GRN;
0173066100999992011010721004+46817+006950FM-12+0491LSMP V0202201N001010420019N0050001N1+00521+00501101371ADDAY121031AY221031GA1071+042001041GF107991061001999999011999MA1999999095501MW1101REMSYN082AAXX  07214 06610 41950 72202 10052 20050 39550 40137 5//// 71022 8601/ 333 87464;
0168066100999992011010721504+46817+006950AUTO +0491LSMP V0209999C000010360019N0020001N1+00501+00501999999ADDAW1101GA1041+030001999GA2081+036001999GF108991999999999999999999MA1101191999999REMMET077METAR LSMP 072150Z AUTO 00000KT 2000NDV BR SCT100 OVC120 05/05 Q1012 RMK YLO;
0140066100999992011010722004+46817+006950FM-12+0491LSMP V0209999C000019999999N9999999N1+00471+00461101431ADDMA1999999095541MD1210041+9999OA149900151REMSYN088AAXX  07224 06610 33/// /0000 10047 20046 39554 40143 52004 333 55300 20000 91103 91202;
0168066100999992011010722504+46817+006950AUTO +0491LSMP V0209999C000010210019N0027001N1+00501+00401999999ADDAW1101GA1071+021001999GA2081+027001999GF108991999999999999999999MA1101191999999REMMET077METAR LSMP 072250Z AUTO 00000KT 2700NDV BR BKN078 OVC096 05/04 Q1012 RMK YLO;
0103066100999992011010723004+46817+006950FM-12+0491LSMP V0200101N000519999999N9999999N1+00511+00481101441ADDMA1999999095561REMSYN076AAXX  07234 06610 33/// /0101 10051 20048 39556 40144 5//// 333 553// 20000;
0168066100999992011010723504+46817+006950AUTO +0491LSMP V0209999V001010240019N0032001N1+00501+00401999999ADDAW1101GA1021+000601999GA2081+024001999GF108991999999999999999999MA1101291999999REMMET077METAR LSMP 072350Z AUTO VRB02KT 3200NDV BR FEW002 OVC083 05/04 Q1013 RMK GRN;
0169066100999992011010800004+46817+006950FM-12+0491LSMP V0203101N000519999999N0020001N1+00491+00471101441ADDAY161061AY221061GF108991081001999999011999MA1999999095561MW1211REMSYN094AAXX  08004 06610 31920 83101 10049 20047 39556 40144 5//// 72162 8801/ 333 553// 20000 88458;
0190066100999992011010800504+46817+006950AUTO +0491LSMP V0201701N00151018001CN0032001N1+00501+00501999999ADDGA1021+000301999GA2041+018001999GA3071+027001999GF107991999999999999999999MA1101291999999REMMET089METAR LSMP 080050Z AUTO 17003KT 150V240 3200NDV FEW001 SCT069 BKN090 05/05 Q1013 RMK GRN;
0087066100999992011010801004+46817+006950FM-12+0491LSMP V0203001N000519999999N9999999N1+00571+00521101421ADDMA1999999095561REMSYN060AAXX  08014 06610 43/// /3001 10057 20052 39556 40142 5////;
0201066100999992011010801504+46817+006950AUTO +0491LSMP V0209999C00001015001CN0026001N1+00501+00401999999ADDAW1101AW2611GA1021+000301999GA2041+015001999GA3071+021001999GF107991999999999999999999MA1101291999999REMMET088METAR LSMP 080150Z AUTO 00000KT 2600NDV -RA BR FEW001 SCT059 BKN077 05/04 Q1013 RMK YLO;
0087066100999992011010802004+46817+006950FM-12+0491LSMP V0202301N001019999999N9999999N1+00471+00451101461ADDMA1999999095571REMSYN060AAXX  08024 06610 43/// /2302 10047 20045 39557 40146 5////;
0180066100999992011010802504+46817+006950AUTO +0491LSMP V0209999V000510180019N0033001N1+00501+00401999999ADDAW1101AW2811GA1071+018001999GA2071+021001999GF107991999999999999999999MA1101291999999REMMET083METAR LSMP 080250Z AUTO VRB01KT 3300NDV -SHRA BR BKN060 BKN070 05/04 Q1013 RMK GRN;
0087066100999992011010803004+46817+006950FM-12+0491LSMP V0201801N001019999999N9999999N1+00541+00501101511ADDMA1999999095631REMSYN060AAXX  08034 06610 43/// /1802 10054 20050 39563 40151 5////;
0203066100999992011010803504+46817+006950AUTO +0491LSMP V0209999V00051009901CN0021001N1+00501+00501999999ADDAW1101AW2671GA1021+000601999GA2041+009901999GA3081+012901999GF108991999999999999999999MA1101291999999REMMET090METAR LSMP 080350Z AUTO VRB01KT 2100NDV -RASN BR FEW002 SCT033 OVC043 05/05 Q1013 RMK YLO;
0087066100999992011010804004+46817+006950FM-12+0491LSMP V0202401N000519999999N9999999N1+00571+00531101531ADDMA1999999095661REMSYN060AAXX  08044 06610 43/// /2401 10057 20053 39566 40153 5////;
0157066100999992011010804504+46817+006950AUTO +0491LSMP V0209999V001010150019N0042001N1+00501+00501999999ADDAW1101AW2811GA1071+015001999GF107991999999999999999999MA1101291999999REMMET076METAR LSMP 080450Z AUTO VRB02KT 4200NDV -SHRA BR BKN052 05/05 Q1013 RMK GRN;
0087066100999992011010805004+46817+006950FM-12+0491LSMP V0202801N001519999999N9999999N1+00561+00521101531ADDMA1999999095661REMSYN060AAXX  08054 06610 43/// /2803 10056 20052 39566 40153 5////;
0199066100999992011010805504+46817+006950AUTO +0491LSMP V0200901N001510180019N0034001N1+00501+00501999999ADDAW1101GA1021+013201999GA2071+018001999GA3071+021001999GF107991999999999999999999MA1101391999999REMMET092METAR LSMP 080550Z AUTO 09003KT 030V120 3400NDV BR FEW044 BKN062 BKN072 05/05 Q1014 RMK GRN;
0274066100999992011010806004+46817+006950FM-12+0491LSMP V0201201N001010180019N0060001N1+00601+00571101521ADDAL10600091AY161061AY221061GA1031+015001071GA2051+018001061GF108991081051017501999999GJ102769IA1119IA2999+00309KA1999N+00431MA1999999095661MW1631REMSYN118AAXX  08064 06610 41756 81202 10060 20057 39566 40152 5//// 76362 885// 333 20043 32003 55046 83750 85656 90768 93100;
0191066100999992011010806504+46817+006950AUTO +0491LSMP V0200101N00051021001CN0021001N1+00501+00501999999ADDAW1101GA1021+006301999GA2041+021001999GA3071+024001999GF107991999999999999999999MA1101391999999REMMET084METAR LSMP 080650Z AUTO 01001KT 2100NDV BR FEW021 SCT075 BKN085 05/05 Q1014 RMK YLO;
0087066100999992011010807004+46817+006950FM-12+0491LSMP V0200801N000519999999N9999999N1+00531+00531101561ADDMA1999999095681REMSYN060AAXX  08074 06610 43/// /0801 10053 20053 39568 40156 5////;
0206066100999992011010807504+46817+006950AUTO +0491LSMP V0209999C00001020701CN0005501N1+00501+00501999999ADDAW1101ED105U08009GA1021+000601999GA2071+020701999GF108991999999999999999999MA1101401999999REMMET104METAR LSMP 080750Z AUTO 00000KT 0550NDV R05/0800VP2000D R23/P2000N BR FEW002 BKN069 05/05 Q1014 RMK RED;
0103066100999992011010808004+46817+006950FM-12+0491LSMP V0203201N002119999999N9999999N1+00491+00471101601ADDMA1999999095711REMSYN076AAXX  08084 06610 33/// /3204 10049 20047 39571 40160 5//// 333 553// 20043;
0136066100999992011010808504+46817+006950AUTO +0491LSMP V0209999V000510240019N0050001N1+00601+00601999999ADDGA1071+024001999GF107991999999999999999999MA1101391999999REMMET067METAR LSMP 080850Z AUTO VRB01KT 5000NDV BKN086 06/06 Q1014 RMK GRN;
0179066100999992011010809004+46817+006950FM-12+0491LSMP V0201101N00101036001CN0008001N1+00661+00651101601ADDAY161031AY241031GA1011+005101071GF107991011071004501051999MA1999999095741MW1421REMSYN088AAXX  08094 06610 41408 71102 10066 20065 39574 40160 5//// 74264 8175/ 333 81717 87359;
0159066100999992011010809504+46817+006950AUTO +0491LSMP V0209999C000010270019N0080001N1+00801+00701999999ADDGA1041+021001999GA2071+027001999GF107991999999999999999999MA1101491999999REMMET074METAR LSMP 080950Z AUTO 00000KT 8000NDV SCT079 BKN092 08/07 Q1015 RMK WHT;
0087066100999992011010810004+46817+006950FM-12+0491LSMP V0200901N000519999999N9999999N1+00791+00721101571ADDMA1999999095741REMSYN060AAXX  08104 06610 43/// /0901 10079 20072 39574 40157 5////;
0136066100999992011010810504+46817+006950AUTO +0491LSMP V0209999V000510270019N0112651N1+00901+00801999999ADDGA1071+027001999GF107991999999999999999999MA1101391999999REMMET067METAR LSMP 081050Z AUTO VRB01KT 9999NDV BKN092 09/08 Q1014 RMK WHT;
0087066100999992011010811004+46817+006950FM-12+0491LSMP V0209999C001019999999N9999999N1+00971+00791101481ADDMA1999999095701REMSYN060AAXX  08114 06610 43/// /0002 10097 20079 39570 40148 5////;
0136066100999992011010811504+46817+006950AUTO +0491LSMP V0209999V001012200019N0112651N1+01101+00701999999ADDGA1021+024001999GF102991999999999999999999MA1101291999999REMMET067METAR LSMP 081150Z AUTO VRB02KT 9999NDV FEW085 11/07 Q1013 RMK BLU;
0145066100999992011010812004+46817+006950FM-12+0491LSMP V0200201N001510900019N0180001N1+01081+00821101411ADDGA1021+018001061GF105991021051017501071021MA1999999095651REMSYN076AAXX  08124 06610 42768 50203 10108 20082 39565 40141 5//// 82572 333 82656;
0144066100999992011010812504+46817+006950AUTO +0491LSMP V0202901N002110240019N0112651N1+01201+00701999999ADDGA1071+024001999GF107991999999999999999999MA1101291999999REMMET075METAR LSMP 081250Z AUTO 29004KT 250V330 9999NDV BKN084 12/07 Q1013 RMK WHT;
0087066100999992011010813004+46817+006950FM-12+0491LSMP V0200201N001019999999N9999999N1+01181+00761101321ADDMA1999999095591REMSYN060AAXX  08134 06610 43/// /0202 10118 20076 39559 40132 5////;
0136066100999992011010813504+46817+006950AUTO +0491LSMP V0209999V001010210019N0112651N1+01301+00801999999ADDGA1071+021001999GF107991999999999999999999MA1101191999999REMMET067METAR LSMP 081350Z AUTO VRB02KT 9999NDV BKN079 13/08 Q1012 RMK WHT;
0087066100999992011010814004+46817+006950FM-12+0491LSMP V0202301N004119999999N9999999N1+01441+00451101251ADDMA1999999095571REMSYN060AAXX  08144 06610 43/// /2308 10144 20045 39557 40125 5////;
0159066100999992011010814504+46817+006950AUTO +0491LSMP V0209999C000012200019N0112651N1+01301+00801999999ADDGA1021+024001999GA2041+033001999GF104991999999999999999999MA1101191999999REMMET074METAR LSMP 081450Z AUTO 00000KT 9999NDV FEW084 SCT110 13/08 Q1012 RMK BLU;
0087066100999992011010815004+46817+006950FM-12+0491LSMP V0202001N003119999999N9999999N1+01341+00491101291ADDMA1999999095591REMSYN060AAXX  08154 06610 43/// /2006 10134 20049 39559 40129 5////;
0167066100999992011010815504+46817+006950AUTO +0491LSMP V0202001N002610390019N0112651N1+01301+00601999999ADDGA1041+024001999GA2071+039001999GF107991999999999999999999MA1101191999999REMMET082METAR LSMP 081550Z AUTO 20005KT 170V240 9999NDV SCT084 BKN130 13/06 Q1012 RMK WHT;
0087066100999992011010816004+46817+006950FM-12+0491LSMP V0201901N004119999999N9999999N1+01201+00471101301ADDMA1999999095571REMSYN060AAXX  08164 06610 43/// /1908 10120 20047 39557 40130 5////;
0136066100999992011010816504+46817+006950AUTO +0491LSMP V0209999V000512200019N0112651N1+01001+00501999999ADDGA1041+039001999GF104991999999999999999999MA1101291999999REMMET067METAR LSMP 081650Z AUTO VRB01KT 9999NDV SCT130 10/05 Q1013 RMK BLU;
0087066100999992011010817004+46817+006950FM-12+0491LSMP V0202201N002619999999N9999999N1+01161+00461101311ADDMA1999999095571REMSYN060AAXX  08174 06610 43/// /2205 10116 20046 39557 40131 5////;
0136066100999992011010817504+46817+006950AUTO +0491LSMP V0209999V001010390019N0112651N1+01001+00501999999ADDGA1071+039001999GF107991999999999999999999MA1101291999999REMMET067METAR LSMP 081750Z AUTO VRB02KT 9999NDV BKN130 10/05 Q1013 RMK WHT;
0179066100999992011010818004+46817+006950FM-12+0491LSMP V0202101N002612200019N0170001N1+01071+00441101311ADDAL10600091GA1021+066001001GF102991001001999999001021IA1099MA1999999095561REMSYN094AAXX  08184 06610 42967 22105 10107 20044 39556 40131 5//// 80002 333 31/// 82072 90766 93100;
0117066100999992011010818504+46817+006950AUTO +0491LSMP V0209999V000512200019N0112651N1+00701+00401999999ADDGF100991999999999999999999MA1101191999999REMMET064METAR LSMP 081850Z AUTO VRB01KT 9999NDV NCD 07/04 Q1012 RMK BLU;
0087066100999992011010819004+46817+006950FM-12+0491LSMP V0202201N002619999999N9999999N1+00751+00431101381ADDMA1999999095561REMSYN060AAXX  08194 06610 43/// /2205 10075 20043 39556 40138 5////;
0136066100999992011010819504+46817+006950AUTO +0491LSMP V0209999V000510360019N0112651N1+00701+00401999999ADDGA1071+036001999GF107991999999999999999999MA1101191999999REMMET067METAR LSMP 081950Z AUTO VRB01KT 9999NDV BKN120 07/04 Q1012 RMK WHT;
0087066100999992011010820004+46817+006950FM-12+0491LSMP V0201901N002619999999N9999999N1+00891+00361101351ADDMA1999999095561REMSYN060AAXX  08204 06610 43/// /1905 10089 20036 39556 40135 5////;
0136066100999992011010820504+46817+006950AUTO +0491LSMP V0209999V000512200019N0112651N1+00601+00501999999ADDGA1041+036001999GF104991999999999999999999MA1101191999999REMMET067METAR LSMP 082050Z AUTO VRB01KT 9999NDV SCT120 06/05 Q1012 RMK BLU;
0145066100999992011010821004+46817+006950FM-12+0491LSMP V0201701N001010360019N0170001N1+00791+00361101351ADDGA1061+036001031GF106991061001999999031999MA1999999095541REMSYN076AAXX  08214 06610 42967 61702 10079 20036 39554 40135 5//// 8603/ 333 86362;
0168066100999992011010821504+46817+006950AUTO +0491LSMP V0209999V001010360019N0050001N1+00501+00501999999ADDAW1101GA1071+036001999GA2071+054001999GF107991999999999999999999MA1101191999999REMMET077METAR LSMP 082150Z AUTO VRB02KT 5000NDV BR BKN120 BKN180 05/05 Q1012 RMK GRN;
0087066100999992011010822004+46817+006950FM-12+0491LSMP V0201301N000519999999N9999999N1+00661+00371101401ADDMA1999999095561REMSYN060AAXX  08224 06610 43/// /1301 10066 20037 39556 40140 5////;
0145066100999992011010822504+46817+006950AUTO +0491LSMP V0209999C000012200019N0042001N1+00501+00401999999ADDAW1101GA1021+033001999GF102991999999999999999999MA1101291999999REMMET070METAR LSMP 082250Z AUTO 00000KT 4200NDV BR FEW110 05/04 Q1013 RMK GRN;
0087066100999992011010823004+46817+006950FM-12+0491LSMP V0202001N000519999999N9999999N1+00561+00341101441ADDMA1999999095571REMSYN060AAXX  08234 06610 43/// /2001 10056 20034 39557 40144 5////;
0147066100999992011010823504+46817+006950AUTO +0491LSMP V0209999C000012200019N0041001N1+00301+00301999999ADDAW1311GA1021+045001999GF102991999999999999999999MA1101291999999REMMET072METAR LSMP 082350Z AUTO 00000KT 4100NDV BCFG FEW150 03/03 Q1013 RMK GRN;
0145066100999992011010900004+46817+006950FM-12+0491LSMP V0201501N000512200019N0170001N1+00471+00301101461ADDGA1011+036001031GF103991011001999999031021MA1999999095571REMSYN076AAXX  09004 06610 42967 31501 10047 20030 39557 40146 5//// 81032 333 81362;
0147066100999992011010900504+46817+006950AUTO +0491LSMP V0209999C000010330019N0036001N1+00301+00201999999ADDAW1311GA1071+033001999GF107991999999999999999999MA1101291999999REMMET072METAR LSMP 090050Z AUTO 00000KT 3600NDV BCFG BKN110 03/02 Q1013 RMK GRN;
0087066100999992011010901004+46817+006950FM-12+0491LSMP V0200801N000519999999N9999999N1+00611+00371101391ADDMA1999999095541REMSYN060AAXX  09014 06610 43/// /0801 10061 20037 39554 40139 5////;
0145066100999992011010901504+46817+006950AUTO +0491LSMP V0209999V001010360019N0037001N1+00301+00301999999ADDAW1101GA1071+036001999GF107991999999999999999999MA1101291999999REMMET070METAR LSMP 090150Z AUTO VRB02KT 3700NDV BR BKN120 03/03 Q1013 RMK GRN;
0087066100999992011010902004+46817+006950FM-12+0491LSMP V0203001N001019999999N9999999N1+00771+00461101381ADDMA1999999095561REMSYN060AAXX  09024 06610 43/// /3002 10077 20046 39556 40138 5////;
0145066100999992011010902504+46817+006950AUTO +0491LSMP V0209999V001012200019N0050001N1+00301+00201999999ADDAW1101GA1041+042001999GF104991999999999999999999MA1101191999999REMMET070METAR LSMP 090250Z AUTO VRB02KT 5000NDV BR SCT140 03/02 Q1012 RMK GRN;
0087066100999992011010903004+46817+006950FM-12+0491LSMP V0203001N001019999999N9999999N1+00731+00471101361ADDMA1999999095531REMSYN060AAXX  09034 06610 43/// /3002 10073 20047 39553 40136 5////;
0145066100999992011010903504+46817+006950AUTO +0491LSMP V0209999V001012200019N0042001N1+00201+00201999999ADDAW1101GA1041+045001999GF104991999999999999999999MA1101191999999REMMET070METAR LSMP 090350Z AUTO VRB02KT 4200NDV BR SCT150 02/02 Q1012 RMK GRN;
0087066100999992011010904004+46817+006950FM-12+0491LSMP V0200701N001019999999N9999999N1+00391+00271101401ADDMA1999999095501REMSYN060AAXX  09044 06610 43/// /0702 10039 20027 39550 40140 5////;
0145066100999992011010904504+46817+006950AUTO +0491LSMP V0209999V000512200019N0050001N1+00201+00201999999ADDAW1101GA1041+045001999GF104991999999999999999999MA1101191999999REMMET070METAR LSMP 090450Z AUTO VRB01KT 5000NDV BR SCT150 02/02 Q1012 RMK GRN;
0087066100999992011010905004+46817+006950FM-12+0491LSMP V0200901N001019999999N9999999N1+00331+00241101401ADDMA1999999095491REMSYN060AAXX  09054 06610 43/// /0902 10033 20024 39549 40140 5////;
0145066100999992011010905504+46817+006950AUTO +0491LSMP V0209999C000012200019N0028001N1+00201+00201999999ADDAW1101GA1021+036001999GF102991999999999999999999MA1101191999999REMMET070METAR LSMP 090550Z AUTO 00000KT 2800NDV BR FEW120 02/02 Q1012 RMK YLO;
0193066100999992011010906004+46817+006950FM-12+0491LSMP V0202801N001012200019N0130001N1+00251+00211101441ADDAL10600091GA1021+018001061GF104991021051017501031021GJ102949IA1119MA1999999095511REMSYN100AAXX  09064 06610 42763 42802 10025 20021 39551 40144 5//// 82532 333 32/// 55049 82656 90768 93100;
0145066100999992011010906504+46817+006950AUTO +0491LSMP V0209999V001012200019N0039001N1+00101+00101999999ADDAW1101GA1041+030001999GF104991999999999999999999MA1101191999999REMMET070METAR LSMP 090650Z AUTO VRB02KT 3900NDV BR SCT100 01/01 Q1012 RMK GRN;
0087066100999992011010907004+46817+006950FM-12+0491LSMP V0201901N000519999999N9999999N1+00371+00261101451ADDMA1999999095541REMSYN060AAXX  09074 06610 43/// /1901 10037 20026 39554 40145 5////;
0182066100999992011010907504+46817+006950AUTO +0491LSMP V0209999C000010210019N0060001N1+00201+00101999999ADDGA1021+018001999GA2071+021001999GA3071+027001999GF107991999999999999999999MA1101291999999REMMET081METAR LSMP 090750Z AUTO 00000KT 6000NDV FEW062 BKN070 BKN092 02/01 Q1013 RMK GRN;
0103066100999992011010908004+46817+006950FM-12+0491LSMP V0202401N000519999999N9999999N1+00331+00251101571ADDMA1999999095651REMSYN076AAXX  09084 06610 33/// /2401 10033 20025 39565 40157 5//// 333 553// 20018;
0200066100999992011010908504+46817+006950AUTO +0491LSMP V0201201N001510129019N0080001N1+00301+00201999999ADDAW1611GA1021+010201999GA2071+012901999GA3071+015001999GF107991999999999999999999MA1101391999999REMMET093METAR LSMP 090850Z AUTO 12003KT 080V140 8000NDV -RA FEW034 BKN043 BKN050 03/02 Q1014 RMK WHT;
0169066100999992011010909004+46817+006950FM-12+0491LSMP V0200801N002119999999N0110001N1+00421+00311101561ADDAY161031AY211031GF108991081001999999021999MA1999999095661MW1611REMSYN094AAXX  09094 06610 31961 80804 10042 20031 39566 40156 5//// 76161 8802/ 333 553// 20076 88561;
0169066100999992011010909504+46817+006950AUTO +0491LSMP V0209999V001010138019N0080001N1+00401+00301999999ADDAW1611GA1021+009301999GA2071+013801999GF107991999999999999999999MA1101391999999REMMET078METAR LSMP 090950Z AUTO VRB02KT 8000NDV -RA FEW031 BKN046 04/03 Q1014 RMK WHT;
0146066100999992011010910004+46817+006950FM-12+0491LSMP V0202201N002619999999N9999999N1+00851+00561101491ADDMA1999999095681MD1210141+9999OA149900411REMSYN094AAXX  09104 06610 23/// /2205 10085 20056 39568 40149 52014 333 55300 20162 69935 91108 91205;
0146066100999992011010910504+46817+006950AUTO +0491LSMP V0209999V001010141019N0112651N1+00501+00401999999ADDAW1611GA1071+014101999GF107991999999999999999999MA1101391999999REMMET071METAR LSMP 091050Z AUTO VRB02KT 9999NDV -RA BKN047 05/04 Q1014 RMK WHT;
0146066100999992011010911004+46817+006950FM-12+0491LSMP V0202101N003619999999N9999999N1+00901+00641101491ADDMA1999999095691MD1210041+9999OA149900621REMSYN094AAXX  09114 06610 23/// /2107 10090 20064 39569 40149 52004 333 55300 20223 69955 91112 91207;
0169066100999992011010911504+46817+006950AUTO +0491LSMP V0203101N001510138019N0112651N1+00701+00601999999ADDAW1611GA1021+006901999GA2071+013801999GF107991999999999999999999MA1101391999999REMMET078METAR LSMP 091150Z AUTO 31003KT 9999NDV -RA FEW023 BKN046 07/06 Q1014 RMK WHT;
0302066100999992011010912004+46817+006950FM-12+0491LSMP V0202001N00261013201CN0090001N1+00851+00681101471ADDAA106001091AY161061AY211061GA1041+010201071GA2041+013201051GF108991041071012501021999MA1999999095661MD1710091+9999MW1631OA149900721REMSYN124AAXX  09124 06610 01659 82005 10085 20068 39566 40147 58000 60011 76361 8472/ 333 55300 20173 69965 84734 84544 91114 91208;EQDQ01+000082APCTENQ02+000002APC3  
0169066100999992011010912504+46817+006950AUTO +0491LSMP V0209999V000510123019N0112651N1+00801+00601999999ADDAW1611GA1071+012301999GA2081+015001999GF108991999999999999999999MA1101291999999REMMET078METAR LSMP 091250Z AUTO VRB01KT 9999NDV -RA BKN041 OVC052 08/06 Q1013 RMK WHT;
0146066100999992011010913004+46817+006950FM-12+0491LSMP V0202001N001519999999N9999999N1+00821+00681101461ADDMA1999999095651MD1710031+9999OA149900721REMSYN094AAXX  09134 06610 23/// /2003 10082 20068 39565 40146 57003 333 55300 20112 69945 91114 91208;
0169066100999992011010913504+46817+006950AUTO +0491LSMP V0209999C000010132019N0112651N1+00801+00701999999ADDAW1611GA1021+004801999GA2081+013201999GF108991999999999999999999MA1101391999999REMMET078METAR LSMP 091350Z AUTO 00000KT 9999NDV -RA FEW016 OVC044 08/07 Q1014 RMK WHT;
0087066100999992011010914004+46817+006950FM-12+0491LSMP V0202001N002119999999N9999999N1+00811+00711101511ADDMA1999999095691REMSYN060AAXX  09144 06610 43/// /2004 10081 20071 39569 40151 5////;
0192066100999992011010914504+46817+006950AUTO +0491LSMP V0209999V00101010801CN0112651N1+00801+00701999999ADDAW1611GA1021+009601999GA2041+010801999GA3071+012901999GF107991999999999999999999MA1101391999999REMMET085METAR LSMP 091450Z AUTO VRB02KT 9999NDV -RA FEW032 SCT036 BKN043 08/07 Q1014 RMK WHT;
0087066100999992011010915004+46817+006950FM-12+0491LSMP V0202101N001519999999N9999999N1+00781+00721101581ADDMA1999999095751REMSYN060AAXX  09154 06610 43/// /2103 10078 20072 39575 40158 5////;
0146066100999992011010915504+46817+006950AUTO +0491LSMP V0202201N001510120019N0112651N1+00701+00601999999ADDAW1611GA1081+012001999GF108991999999999999999999MA1101491999999REMMET071METAR LSMP 091550Z AUTO 22003KT 9999NDV -RA OVC040 07/06 Q1015 RMK WHT;
0146066100999992011010916004+46817+006950FM-12+0491LSMP V0202201N003119999999N9999999N1+00741+00621101651ADDMA1999999095811MD1310161+9999OA149900511REMSYN094AAXX  09164 06610 23/// /2206 10074 20062 39581 40165 53016 333 55300 20007 60015 91110 91206;
0169066100999992011010916504+46817+006950AUTO +0491LSMP V0202101N004110123019N0112651N1+00701+00601999999ADDAW1611GA1021+009601999GA2081+012301999GF108991999999999999999999MA1101491999999REMMET078METAR LSMP 091650Z AUTO 21008KT 9999NDV -RA FEW032 OVC041 07/06 Q1015 RMK WHT;
0146066100999992011010917004+46817+006950FM-12+0491LSMP V0202001N005119999999N9999999N1+00741+00521101691ADDMA1999999095851MD1210161+9999OA149900821REMSYN094AAXX  09174 06610 23/// /2010 10074 20052 39585 40169 52016 333 55300 20000 69995 91116 91210;
0192066100999992011010917504+46817+006950AUTO +0491LSMP V0202401N00361009301CN0112651N1+00701+00501999999ADDAW1611GA1021+003901999GA2041+009301999GA3081+015001999GF108991999999999999999999MA1101591999999REMMET085METAR LSMP 091750Z AUTO 24007KT 9999NDV -RA FEW013 SCT031 OVC050 07/05 Q1016 RMK WHT;
0298066100999992011010918004+46817+006950FM-12+0491LSMP V0202301N00261010201CN0120001N1+00651+00501101761ADDAA112007191AL19900091AY161061AY221061GA1081+010201071GF108991081071012501999999IA1119KA1120M+00901MA1999999095891MD1110141+9999MW1601OA149900821REMSYN142AAXX  09184 06610 01662 82305 10065 20050 39589 40176 51014 60072 76062 887// 333 10090 32/// 55300 20000 69955 88734 90766 93100 91116 91210;
0192066100999992011010918504+46817+006950AUTO +0491LSMP V0202301N00311009001CN0112651N1+00701+00501999999ADDAW1611GA1021+007201999GA2041+009001999GA3081+013801999GF108991999999999999999999MA1101691999999REMMET085METAR LSMP 091850Z AUTO 23006KT 9999NDV -RA FEW024 SCT030 OVC046 07/05 Q1017 RMK WHT;
0146066100999992011010919004+46817+006950FM-12+0491LSMP V0202101N002619999999N9999999N1+00611+00461101831ADDMA1999999095951MD1310141+9999OA149900821REMSYN094AAXX  09194 06610 23/// /2105 10061 20046 39595 40183 53014 333 55300 20000 69965 91116 91210;
0168066100999992011010919504+46817+006950AUTO +0491LSMP V0202201N002110114019N0112651N1+00601+00401999999ADDAW1621GA1041+008701999GA2081+011401999GF108991999999999999999999MA1101691999999REMMET077METAR LSMP 091950Z AUTO 22004KT 9999NDV RA SCT029 OVC038 06/04 Q1017 RMK WHT;
0146066100999992011010920004+46817+006950FM-12+0491LSMP V0202201N001519999999N9999999N1+00551+00461101901ADDMA1999999096001MD1210151+9999OA149900571REMSYN094AAXX  09204 06610 23/// /2203 10055 20046 39600 40190 52015 333 55300 20000 60015 91111 91206;
0168066100999992011010920504+46817+006950AUTO +0491LSMP V0202501N002110099019N0112651N1+00601+00401999999ADDAW1621GA1021+007201999GA2081+009901999GF108991999999999999999999MA1101801999999REMMET077METAR LSMP 092050Z AUTO 25004KT 9999NDV RA FEW024 OVC033 06/04 Q1018 RMK WHT;
0228066100999992011010921004+46817+006950FM-12+0491LSMP V0202001N00151010201CN0080001N1+00531+00471101951ADDAY161031AY261031GA1081+010201071GF108991081071012501999999MA1999999096051MD1210161+9999MW1631OA149900821REMSYN112AAXX  09214 06610 21658 82003 10053 20047 39605 40195 52016 76366 887// 333 55300 20000 60025 88734 91116 91210;
0182066100999992011010921504+46817+006950AUTO +0491LSMP V0202101N001510090019N0112651N1+00501+00501999999ADDAW1611GA1021+007201999GA2081+009001999GF108991999999999999999999MA1101801999999REMMET091METAR LSMP 092150Z AUTO 21003KT 170V240 9999NDV -RA FEW024 OVC030 05/05 Q1018 RERA RMK WHT;
0146066100999992011010922004+46817+006950FM-12+0491LSMP V0202101N001519999999N9999999N1+00531+00461102001ADDMA1999999096091MD1110141+9999OA149900311REMSYN094AAXX  09224 06610 23/// /2103 10053 20046 39609 40200 51014 333 55300 20000 60015 91106 91203;
0169066100999992011010922504+46817+006950AUTO +0491LSMP V0209999C000010090019N0112651N1+00501+00401999999ADDAW1611GA1071+009001999GA2081+010201999GF108991999999999999999999MA1101801999999REMMET078METAR LSMP 092250Z AUTO 00000KT 9999NDV -RA BKN030 OVC034 05/04 Q1018 RMK WHT;
0146066100999992011010923004+46817+006950FM-12+0491LSMP V0202201N001019999999N9999999N1+00511+00441102021ADDMA1999999096111MD1110111+9999OA149900311REMSYN094AAXX  09234 06610 23/// /2202 10051 20044 39611 40202 51011 333 55300 20000 69975 91106 91203;
0169066100999992011010923504+46817+006950AUTO +0491LSMP V0201701N001512200019N0112651N1+00501+00401999999ADDAW1611GA1041+009901999GA2041+015001999GF104991999999999999999999MA1101801999999REMMET078METAR LSMP 092350Z AUTO 17003KT 9999NDV -RA SCT033 SCT050 05/04 Q1018 RMK BLU;
0245066100999992011011000004+46817+006950FM-12+0491LSMP V0201901N00151010201CN0140001N1+00501+00441102031ADDAA106006191AY161061AY221061GA1081+010201071GF108991081071012501999999MA1999999096121MD1110071+9999MW1021OA149900821REMSYN118AAXX  10004 06610 01664 81903 10050 20044 39612 40203 51007 60061 70262 887// 333 55300 20000 69915 88734 91116 91210;
0194066100999992011011000504+46817+006950AUTO +0491LSMP V0202101N001010132019N0112651N1+00501+00401999999ADDAW1811GA1021+010201999GA2071+013201999GA3081+015001999GF108991999999999999999999MA1101901999999REMMET087METAR LSMP 100050Z AUTO 21002KT 9999NDV -SHRA FEW034 BKN044 OVC051 05/04 Q1019 RMK WHT;
0146066100999992011011001004+46817+006950FM-12+0491LSMP V0202001N002119999999N9999999N1+00511+00421102041ADDMA1999999096131MD1210041+9999OA149900311REMSYN094AAXX  10014 06610 23/// /2004 10051 20042 39613 40204 52004 333 55300 20000 69925 91106 91204;
0169066100999992011011001504+46817+006950AUTO +0491LSMP V0202101N001010123019N0112651N1+00501+00401999999ADDAW1611GA1021+003301999GA2071+012301999GF107991999999999999999999MA1101901999999REMMET078METAR LSMP 100150Z AUTO 21002KT 9999NDV -RA FEW011 BKN041 05/04 Q1019 RMK WHT;
0109066100999992011011002004+46817+006950FM-12+0491LSMP V0202201N001019999999N9999999N1+00471+00441102071ADDMA1999999096151REMSYN082AAXX  10024 06610 23/// /2202 10047 20044 39615 40207 5//// 333 553// 20000 69915;
0169066100999992011011002504+46817+006950AUTO +0491LSMP V0209999C000012200019N0070001N1+00501+00401999999ADDAW1611GA1021+009601999GA2041+011401999GF104991999999999999999999MA1101901999999REMMET078METAR LSMP 100250Z AUTO 00000KT 7000NDV -RA FEW032 SCT038 05/04 Q1019 RMK GRN;
0087066100999992011011003004+46817+006950FM-12+0491LSMP V0202101N000519999999N9999999N1+00471+00431102081ADDMA1999999096161REMSYN060AAXX  10034 06610 43/// /2101 10047 20043 39616 40208 5////;
0194066100999992011011003504+46817+006950AUTO +0491LSMP V0209999C00001009901CN0060001N1+00501+00401999999ADDAW1811GA1021+003301999GA2041+009901999GA3071+012001999GF107991999999999999999999MA1101901999999REMMET087METAR LSMP 100350Z AUTO 00000KT 6000NDV -SHRA FEW011 SCT033 BKN040 05/04 Q1019 RMK GRN;
0109066100999992011011004004+46817+006950FM-12+0491LSMP V0202501N000519999999N9999999N1+00471+00431102061ADDMA1999999096141REMSYN082AAXX  10044 06610 23/// /2501 10047 20043 39614 40206 5//// 333 553// 20000 69945;
0192066100999992011011004504+46817+006950AUTO +0491LSMP V0209999C000010150019N0046001N1+00401+00401999999ADDAW1511GA1021+009001999GA2071+015001999GA3071+021001999GF107991999999999999999999MA1101901999999REMMET085METAR LSMP 100450Z AUTO 00000KT 4600NDV -DZ FEW030 BKN053 BKN071 04/04 Q1019 RMK GRN;
0146066100999992011011005004+46817+006950FM-12+0491LSMP V0200901N001019999999N9999999N1+00411+00411102071ADDMA1999999096131MD1719999+9999OA149900101REMSYN094AAXX  10054 06610 23/// /0902 10041 20041 39613 40207 57/// 333 55300 20000 69915 91102 91202;
0174066100999992011011005504+46817+006950FM-15+0491LSMP V0209999V001010075019N0050001N1+00401+00401999999ADDGA1041+006001999GA2071+007501999GA3081+015001999GF108991999999999999999999MA1101901999999REMMET073METAR LSMP 100550Z VRB02KT 5000 SCT020 BKN025 OVC055 04/04 Q1019 RMK GRN;
0291066100999992011011006004+46817+006950FM-12+0491LSMP V0201101N000510042019N0040001N1+00391+00391102091ADDAA124013591AL12401391AY161061AY221061GA1021+001201071GA2081+004201071GF108991081071001501999999GJ100009IA1119IA2999+00309KA1999N+00401MA1999999096151MW1101REMSYN124AAXX  10064 06610 41240 81101 10039 20039 39615 40209 5//// 71062 887// 333 20040 32003 55000 70134 82704 88714 90768 93100;
0183066100999992011011006504+46817+006950FM-15+0491LSMP V0209999V000510030019N0025001N1+00401+00401999999ADDGA1041+000601999GA2071+003001999GA3071+006001999GF107991999999999999999999MA1101901999999MW1101REMMET076METAR LSMP 100650Z VRB01KT 2500 BR SCT002 BKN010 BKN020 04/04 Q1019 RMK YLO;
0140066100999992011011007004+46817+006950FM-12+0491LSMP V0209999C000019999999N9999999N1+00391+00391102131ADDMA1999999096191MD1210051+9999OA149900151REMSYN088AAXX  10074 06610 33/// /0000 10039 20039 39619 40213 52005 333 55300 20000 91103 91202;
0160066100999992011011007504+46817+006950FM-15+0491LSMP V0209999C000010027019N0045001N1+00501+00401999999ADDGA1041+002101999GA2081+002701999GF108991999999999999999999MA1102001999999MW1101REMMET069METAR LSMP 100750Z 00000KT 4500 BR SCT007 OVC009 05/04 Q1020 RMK GRN;
0087066100999992011011008004+46817+006950FM-12+0491LSMP V0209999C000019999999N9999999N1+00441+00431102161ADDMA1999999096231REMSYN060AAXX  10084 06610 43/// /0000 10044 20043 39623 40216 5////;
0155066100999992011011008504+46817+006950FM-15+0491LSMP V0200301N002110030019N0020001N1+00501+00401999999ADDGA1081+003001999GF108991999999999999999999MA1102001999999MW1101MW2511REMMET074METAR LSMP 100850Z 03004KT 350V050 2000 -DZ BR OVC010 05/04 Q1020 RMK YLO;
0173066100999992011011009004+46817+006950FM-12+0491LSMP V0200501N002610012019N0012001N1+00401+00371102181ADDAY141031AY221031GA1081+001201071GF108991081061001501999999MA1999999096241MW1101REMSYN082AAXX  10094 06610 41212 80505 10040 20037 39624 40218 5//// 71042 886// 333 88704;
0191066100999992011011009504+46817+006950FM-15+0491LSMP V0200601N00361001801CN0060001N1+00401+00301999999ADDGA1021+001201999GA2041+001801999GA3081+002401999GF108991999999999999999999MA1102001999999MW1101REMMET084METAR LSMP 100950Z 06007KT 020V110 6000 BR FEW004 SCT006 OVC008 04/03 Q1020 RMK YLO;
0140066100999992011011010004+46817+006950FM-12+0491LSMP V0200301N002119999999N9999999N1+00391+00371102191ADDMA1999999096241MD1210051+9999OA149900461REMSYN088AAXX  10104 06610 33/// /0304 10039 20037 39624 40219 52005 333 55300 20176 91109 91205;
0144066100999992011011010504+46817+006950AUTO +0491LSMP V0200501N003610021019N0112651N1+00401+00301999999ADDGA1081+002101999GF108991999999999999999999MA1102001999999REMMET075METAR LSMP 101050Z AUTO 05007KT 010V080 9999NDV OVC007 04/03 Q1020 RMK YLO;
0140066100999992011011011004+46817+006950FM-12+0491LSMP V0200401N002619999999N9999999N1+00401+00321102171ADDMA1999999096231MD1019999+9999OA149900461REMSYN088AAXX  10114 06610 33/// /0405 10040 20032 39623 40217 50/// 333 55300 20209 91109 91205;
0163066100999992011011011504+46817+006950FM-15+0491LSMP V0200501N004110024019N0050001N1+00501+00301999999ADDGA1041+001801999GA2081+002401999GF108991999999999999999999MA1101901999999MW1801REMMET072METAR LSMP 101150Z 05008KT 5000 -SHRA SCT006 OVC008 05/03 Q1019 RMK YLO;
0169066100999992011011012004+46817+006950FM-12+0491LSMP V0200301N002610012019N0050001N1+00421+00341102111ADDAY141061AY221061GF108991081061001501999999MA1999999096171MW1101REMSYN094AAXX  10124 06610 31250 80305 10042 20034 39617 40211 5//// 71042 886// 333 553// 20277 88706;
0160066100999992011011012504+46817+006950FM-15+0491LSMP V0200601N003610036019N0070001N1+00501+00301999999ADDGA1041+002101999GA2081+003601999GF108991999999999999999999MA1101901999999MW1101REMMET069METAR LSMP 101250Z 06007KT 7000 BR SCT007 OVC012 05/03 Q1019 RMK GRN;
0087066100999992011011013004+46817+006950FM-12+0491LSMP V0200201N001519999999N9999999N1+00441+00381102031ADDMA1999999096101REMSYN060AAXX  10134 06610 43/// /0203 10044 20038 39610 40203 5////;
0160066100999992011011013504+46817+006950FM-15+0491LSMP V0200501N002610045019N0070001N1+00501+00301999999ADDGA1041+003001999GA2071+004501999GF107991999999999999999999MA1101801999999MW1101REMMET069METAR LSMP 101350Z 05005KT 7000 BR SCT010 BKN015 05/03 Q1018 RMK GRN;
0087066100999992011011014004+46817+006950FM-12+0491LSMP V0200101N001519999999N9999999N1+00461+00361101981ADDMA1999999096061REMSYN060AAXX  10144 06610 43/// /0103 10046 20036 39606 40198 5////;
