0137066190999992010010100004+46833+006583FM-12+120299999V0203401N001019999999N9999999N1-00091-00091999999ADDMA1999999085611MD1610121+9999ME1312649OA149900571REMSYN076AAXX  01004 06619 33/// /3402 11009 21009 38561 48264 56012 333 91111 91205;
0137066190999992010010101004+46833+006583FM-12+120299999V0201501N000519999999N9999999N1+00061+00061999999ADDMA1999999085561MD1710131+9999ME1312609OA149900261REMSYN076AAXX  01014 06619 33/// /1501 10006 20006 38556 48260 57013 333 91105 91204;
0137066190999992010010102004+46833+006583FM-12+120299999V0203401N001019999999N9999999N1+00031+00031999999ADDMA1999999085531MD1619999+9999ME1312579OA149900261REMSYN076AAXX  01024 06619 33/// /3402 10003 20003 38553 48257 56/// 333 91105 91204;
0096066190999992010010103004+46833+006583FM-12+120299999V0200101N000519999999N9999999N1+00011+00011999999ADDMA1999999085461ME1312509REMSYN060AAXX  01034 06619 43/// /0101 10001 20001 38546 48250 5////;
0096066190999992010010104004+46833+006583FM-12+120299999V0200101N001019999999N9999999N1+00031+00011999999ADDMA1999999085431ME1312479REMSYN060AAXX  01044 06619 33/// /0102 10003 20001 38543 48247 5////;
0137066190999992010010105004+46833+006583FM-12+120299999V0209999C000019999999N9999999N1+00011+00011999999ADDMA1999999085421MD1610111+9999ME1312469OA149900211REMSYN076AAXX  01054 06619 33/// /0000 10001 20001 38542 48246 56011 333 91104 91204;
0215066190999992010010106004+46833+006583FM-12+120299999V0203501N001019999999N9999999N1-00031-00031999999ADDAA124003391AL11200391GJ100309IA2999-00309KA1999N-00091MA1999999085411MD1610051+9999ME1312459OA149900361REMSYN100AAXX  01064 06619 33/// /3502 11003 21003 38541 48245 56005 333 21009 3/103 55005 70032 91107 91204;
0137066190999992010010107004+46833+006583FM-12+120299999V0203101N001019999999N9999999N1-00081-00081999999ADDMA1999999085391MD1810041+9999ME1312439OA149900261REMSYN076AAXX  01074 06619 33/// /3102 11008 21008 38539 48243 58004 333 91105 91202;
0137066190999992010010108004+46833+006583FM-12+120299999V0203501N000519999999N9999999N1-00041-00071999999ADDMA1999999085451MD1310031+9999ME1312499OA149900261REMSYN076AAXX  01084 06619 33/// /3501 11004 21007 38545 48249 53003 333 91105 91202;
0137066190999992010010109004+46833+006583FM-12+120299999V0203501N000519999999N9999999N1-00011-00011999999ADDMA1999999085491MD1210081+9999ME1312539OA149900261REMSYN076AAXX  01094 06619 33/// /3501 11001 21001 38549 48253 52008 333 91105 91204;
0137066190999992010010110004+46833+006583FM-12+120299999V0203401N000519999999N9999999N1+00181+00101999999ADDMA1999999085561MD1310171+9999ME1312609OA149900151REMSYN076AAXX  01104 06619 33/// /3401 10018 20010 38556 48260 53017 333 91103 91202;
0137066190999992010010111004+46833+006583FM-12+120299999V0201701N000519999999N9999999N1+00101+00101999999ADDMA1999999085561MD1210111+9999ME1312609OA149900101REMSYN076AAXX  01114 06619 33/// /1701 10010 20010 38556 48260 52011 333 91102 91202;
0137066190999992010010112004+46833+006583FM-12+120299999V0202101N000519999999N9999999N1+00191+00131999999ADDMA1999999085581MD1210091+9999ME1312629OA149900261REMSYN076AAXX  01124 06619 33/// /2101 10019 20013 38558 48262 52009 333 91105 91204;
0137066190999992010010113004+46833+006583FM-12+120299999V0209999C000019999999N9999999N1+00101+00041999999ADDMA1999999085621MD1210061+9999ME1312659OA149900261REMSYN076AAXX  01134 06619 33/// /0000 10010 20004 38562 48265 52006 333 91105 91202;
0154066190999992010010114004+46833+006583FM-12+120299999V0200201N002619999999N9999999N1-00021-00141999999ADDAA101000591MA1999999085691MD1219999+9999ME1312729OA149900621REMSYN082AAXX  01144 06619 23/// /0205 11002 21014 38569 48272 52/// 333 69955 91112 91205;
0154066190999992010010115004+46833+006583FM-12+120299999V0200301N004119999999N9999999N1-00131-00271999999ADDAA101001091MA1999999085731MD1210151+9999ME1312759OA149901131REMSYN082AAXX  01154 06619 23/// /0308 11013 21027 38573 48275 52015 333 60015 91122 91208;
0154066190999992010010116004+46833+006583FM-12+120299999V0200201N006219999999N9999999N1-00221-00311999999ADDAA101000391MA1999999085801MD1310181+9999ME1312819OA149901391REMSYN082AAXX  01164 06619 23/// /0212 11022 21031 38580 48281 53018 333 69935 91127 91212;
0137066190999992010010117004+46833+006583FM-12+120299999V0201401N001519999999N9999999N1-00261-00421999999ADDMA1999999086051MD1310361+9999ME1313049OA149901391REMSYN076AAXX  01174 06619 33/// /1403 11026 21042 38605 48304 53036 333 91127 91212;
0179066190999992010010118004+46833+006583FM-12+120299999V0201701N002119999999N9999999N1-00401-00411999999ADDAA112002091KA1120M+00211MA1999999086231MD1310501+9999ME1313209OA149901391REMSYN094AAXX  01184 06619 03/// /1704 11040 21041 38623 48320 53050 60022 333 10021 60005 91127 91212;
0137066190999992010010119004+46833+006583FM-12+120299999V0201801N001519999999N9999999N1-00451-00461999999ADDMA1999999086381MD1110581+9999ME1313349OA149900771REMSYN076AAXX  01194 06619 33/// /1803 11045 21046 38638 48334 51058 333 91115 91204;
0137066190999992010010120004+46833+006583FM-12+120299999V0202401N002119999999N9999999N1-00501-00501999999ADDMA1999999086491MD1110441+9999ME1313439OA149900821REMSYN076AAXX  01204 06619 33/// /2404 11050 21050 38649 48343 51044 333 91116 91204;
0137066190999992010010121004+46833+006583FM-12+120299999V0202301N002119999999N9999999N1-00531-00551999999ADDMA1999999086571MD1110341+9999ME1313509OA149901391REMSYN076AAXX  01214 06619 33/// /2304 11053 21055 38657 48350 51034 333 91127 91212;
0137066190999992010010122004+46833+006583FM-12+120299999V0209999C002619999999N9999999N1-00581-00621999999ADDMA1999999086611MD1210231+9999ME1313549OA149901341REMSYN076AAXX  01224 06619 33/// /0005 11058 21062 38661 48354 52023 333 91126 91205;
0137066190999992010010123004+46833+006583FM-12+120299999V0203301N002119999999N9999999N1-00631-00711999999ADDMA1999999086641MD1210151+9999ME1313569OA149901341REMSYN076AAXX  01234 06619 33/// /3304 11063 21071 38664 48356 52015 333 91126 91205;
0137066190999992010010200004+46833+006583FM-12+120299999V0200201N003119999999N9999999N1-00651-00741999999ADDMA1999999086621MD1210051+9999ME1313549OA149901541REMSYN076AAXX  02004 06619 33/// /0206 11065 21074 38662 48354 52005 333 91130 91212;
0137066190999992010010201004+46833+006583FM-12+120299999V0200301N002119999999N9999999N1-00681-00791999999ADDMA1999999086711MD1210101+9999ME1313629OA149901541REMSYN076AAXX  02014 06619 33/// /0304 11068 21079 38671 48362 52010 333 91130 91206;
0096066190999992010010202004+46833+006583FM-12+120299999V0203201N000519999999N9999999N1-00731-00841999999ADDMA1999999086911ME1313809REMSYN060AAXX  02024 06619 33/// /3201 11073 21084 38691 48380 5////;
0137066190999992010010203004+46833+006583FM-12+120299999V0202601N001519999999N9999999N1-00741-00851999999ADDMA1999999087041MD1310421+9999ME1313919OA149901541REMSYN076AAXX  02034 06619 33/// /2603 11074 21085 38704 48391 53042 333 91130 91206;
0154066190999992010010204004+46833+006583FM-12+120299999V0202201N001519999999N9999999N1-00771-00901999999ADDAA101000021MA1999999087091MD1110381+9999ME1313969OA149901341REMSYN082AAXX  02044 06619 23/// /2203 11077 21090 38709 48396 51038 333 69915 91126 91206;
0154066190999992010010205004+46833+006583FM-12+120299999V0201901N001019999999N9999999N1-00831-00961999999ADDAA101000021MA1999999087101MD1210191+9999ME1313969OA149900771REMSYN082AAXX  02054 06619 23/// /1902 11083 21096 38710 48396 52019 333 69915 91115 91206;
0257066190999992010010206004+46833+006583FM-12+120299999V0202201N001519999999N9999999N1-00781-00861999999ADDAA112000091AA224002091AL19900291GJ100009IA2999-01009KA1999N-00831MA1999999087171MD1210131+9999ME1314039OA149901541REMSYN112AAXX  02064 06619 03/// /2203 11078 21086 38717 48403 52013 69922 333 21083 3/110 55000 60005 70020 91130 91206;EQDQ01  00002PRCP12
0137066190999992010010207004+46833+006583FM-12+120299999V0201901N002119999999N9999999N1-00871-00971999999ADDMA1999999087231MD1210141+9999ME1314079OA149900881REMSYN076AAXX  02074 06619 33/// /1904 11087 21097 38723 48407 52014 333 91117 91205;
0096066190999992010010208004+46833+006583FM-12+120299999V0201801N002119999999N9999999N1-00901-01031999999ADDMA1999999087291ME1314129REMSYN060AAXX  02084 06619 33/// /1804 11090 21103 38729 48412 5////;
0137066190999992010010209004+46833+006583FM-12+120299999V0201301N000519999999N9999999N1-00931-01061999999ADDMA1999999087461MD1210291+9999ME1314279OA149900881REMSYN076AAXX  02094 06619 33/// /1301 11093 21106 38746 48427 52029 333 91117 91206;
0137066190999992010010210004+46833+006583FM-12+120299999V0202001N001019999999N9999999N1-00941-01051999999ADDMA1999999087521MD1210291+9999ME1314329OA149900671REMSYN076AAXX  02104 06619 33/// /2002 11094 21105 38752 48432 52029 333 91113 91203;
0137066190999992010010211004+46833+006583FM-12+120299999V0201501N001019999999N9999999N1-00881-01061999999ADDMA1999999087571MD1110281+9999ME1314379OA149900571REMSYN076AAXX  02114 06619 33/// /1502 11088 21106 38757 48437 51028 333 91111 91203;
0137066190999992010010212004+46833+006583FM-12+120299999V0200601N001519999999N9999999N1-00831-01121999999ADDMA1999999087621MD1110161+9999ME1314429OA149901341REMSYN076AAXX  02124 06619 33/// /0603 11083 21112 38762 48442 51016 333 91126 91206;
0137066190999992010010213004+46833+006583FM-12+120299999V0201501N000519999999N9999999N1-00781-01211999999ADDMA1999999087671MD1210151+9999ME1314479OA149900571REMSYN076AAXX  02134 06619 33/// /1501 11078 21121 38767 48447 52015 333 91111 91204;
0137066190999992010010214004+46833+006583FM-12+120299999V0202301N002119999999N9999999N1-00761-01051999999ADDMA1999999087711MD1219999+9999ME1314519OA149900511REMSYN076AAXX  02144 06619 33/// /2304 11076 21105 38771 48451 52/// 333 91110 91204;
0137066190999992010010215004+46833+006583FM-12+120299999V0201201N000519999999N9999999N1-00801-01161999999ADDMA1999999087791MD1210171+9999ME1314579OA149900571REMSYN076AAXX  02154 06619 33/// /1201 11080 21116 38779 48457 52017 333 91111 91204;
0137066190999992010010216004+46833+006583FM-12+120299999V0202201N001519999999N9999999N1-00911-01121999999ADDMA1999999087861MD1210191+9999ME1314629OA149900511REMSYN076AAXX  02164 06619 33/// /2203 11091 21112 38786 48462 52019 333 91110 91204;
0137066190999992010010217004+46833+006583FM-12+120299999V0203501N000519999999N9999999N1-00981-01101999999ADDMA1999999087901MD1110191+9999ME1314659OA149900511REMSYN076AAXX  02174 06619 33/// /3501 11098 21110 38790 48465 51019 333 91110 91204;
0156066190999992010010218004+46833+006583FM-12+120299999V0200101N001519999999N9999999N1-00991-01211999999ADDKA1120M-00751MA1999999087951MD1210161+9999ME1314699OA149900881REMSYN082AAXX  02184 06619 33/// /0103 11099 21121 38795 48469 52016 333 11075 91117 91206;
0137066190999992010010219004+46833+006583FM-12+120299999V0203401N001519999999N9999999N1-01091-01171999999ADDMA1999999087951MD1210091+9999ME1314689OA149900621REMSYN076AAXX  02194 06619 33/// /3403 11109 21117 38795 48468 52009 333 91112 91206;
0137066190999992010010220004+46833+006583FM-12+120299999V0203501N001519999999N9999999N1-01091-01201999999ADDMA1999999087941MD1210041+9999ME1314679OA149900311REMSYN076AAXX  02204 06619 33/// /3503 11109 21120 38794 48467 52004 333 91106 91204;
0137066190999992010010221004+46833+006583FM-12+120299999V0203301N001519999999N9999999N1-01091-01261999999ADDMA1999999087911MD1710041+9999ME1314659OA149900621REMSYN076AAXX  02214 06619 33/// /3303 11109 21126 38791 48465 57004 333 91112 91206;
0137066190999992010010222004+46833+006583FM-12+120299999V0203001N001519999999N9999999N1-01081-01221999999ADDMA1999999087961MD1310011+9999ME1314699OA149900261REMSYN076AAXX  02224 06619 33/// /3003 11108 21122 38796 48469 53001 333 91105 91203;
0137066190999992010010223004+46833+006583FM-12+120299999V0203101N001519999999N9999999N1-01051-01321999999ADDMA1999999087981MD1210041+9999ME1314719OA149900261REMSYN076AAXX  02234 06619 33/// /3103 11105 21132 38798 48471 52004 333 91105 91203;
0137066190999992010010300004+46833+006583FM-12+120299999V0203301N001519999999N9999999N1-01101-01321999999ADDMA1999999087941MD1010031+9999ME1314679OA149900621REMSYN076AAXX  03004 06619 33/// /3303 11110 21132 38794 48467 50003 333 91112 91206;
0137066190999992010010301004+46833+006583FM-12+120299999V0203101N000519999999N9999999N1-01101-01291999999ADDMA1999999087931MD1710031+9999ME1314679OA149900311REMSYN076AAXX  03014 06619 33/// /3101 11110 21129 38793 48467 57003 333 91106 91204;
0096066190999992010010302004+46833+006583FM-12+120299999V0202801N000519999999N9999999N1-01111-01251999999ADDMA1999999087961ME1314699REMSYN060AAXX  03024 06619 33/// /2801 11111 21125 38796 48469 5////;
0096066190999992010010303004+46833+006583FM-12+120299999V0202301N000519999999N9999999N1-01011-01281999999ADDMA1999999087911ME1314669REMSYN060AAXX  03034 06619 33/// /2301 11101 21128 38791 48466 5////;
0137066190999992010010304004+46833+006583FM-12+120299999V0202701N001019999999N9999999N1-01041-01211999999ADDMA1999999087891MD1810041+9999ME1314649OA149900311REMSYN076AAXX  03044 06619 33/// /2702 11104 21121 38789 48464 58004 333 91106 91203;
0137066190999992010010305004+46833+006583FM-12+120299999V0203101N000519999999N9999999N1-01041-01241999999ADDMA1999999087851MD1719999+9999ME1314609OA149900311REMSYN076AAXX  03054 06619 33/// /3101 11104 21124 38785 48460 57/// 333 91106 91204;
0234066190999992010010306004+46833+006583FM-12+120299999V0203301N000519999999N9999999N1-00961-01341999999ADDAA124000091AL19900091GJ101749IA2999-01609KA1999N-01141MA1999999087821MD1710091+9999ME1314589OA149900311REMSYN100AAXX  03064 06619 33/// /3301 11096 21134 38782 48458 57009 333 21114 3/116 55029 70000 91106 91204;EQDQ01  00002PRCP24
0137066190999992010010307004+46833+006583FM-12+120299999V0209999C000019999999N9999999N1-00961-01321999999ADDMA1999999087821MD1710071+9999ME1314589OA149900261REMSYN076AAXX  03074 06619 33/// /0000 11096 21132 38782 48458 57007 333 91105 91204;
0137066190999992010010308004+46833+006583FM-12+120299999V0203601N001019999999N9999999N1-00971-01211999999ADDMA1999999087871MD1319999+9999ME1314639OA149900261REMSYN076AAXX  03084 06619 33/// /3602 11097 21121 38787 48463 53/// 333 91105 91204;
0137066190999992010010309004+46833+006583FM-12+120299999V0201501N000519999999N9999999N1-00891-01141999999ADDMA1999999087881MD1210061+9999ME1314649OA149900311REMSYN076AAXX  03094 06619 33/// /1501 11089 21114 38788 48464 52006 333 91106 91204;
0137066190999992010010310004+46833+006583FM-12+120299999V0209999C000019999999N9999999N1-00991-01131999999ADDMA1999999087851MD1010031+9999ME1314619OA149900211REMSYN076AAXX  03104 06619 33/// /0000 11099 21113 38785 48461 50003 333 91104 91203;
0137066190999992010010311004+46833+006583FM-12+120299999V0203601N001019999999N9999999N1-00801-01091999999ADDMA1999999087821MD1710051+9999ME1314609OA149900211REMSYN076AAXX  03114 06619 33/// /3602 11080 21109 38782 48460 57005 333 91104 91203;
0137066190999992010010312004+46833+006583FM-12+120299999V0200901N000519999999N9999999N1-00751-01211999999ADDMA1999999087781MD1710101+9999ME1314579OA149900311REMSYN076AAXX  03124 06619 33/// /0901 11075 21121 38778 48457 57010 333 91106 91204;
0137066190999992010010313004+46833+006583FM-12+120299999V0203301N000519999999N9999999N1-00661-01251999999ADDMA1999999087741MD1710111+9999ME1314549OA149900151REMSYN076AAXX  03134 06619 33/// /3301 11066 21125 38774 48454 57011 333 91103 91203;
0137066190999992010010314004+46833+006583FM-12+120299999V0209999C000019999999N9999999N1-00741-01211999999ADDMA1999999087751MD1510071+9999ME1314549OA149900151REMSYN076AAXX  03144 06619 33/// /0000 11074 21121 38775 48454 55007 333 91103 91202;
0137066190999992010010315004+46833+006583FM-12+120299999V0203601N001519999999N9999999N1-00711-00991999999ADDMA1999999087761MD1510021+9999ME1314559OA149900211REMSYN076AAXX  03154 06619 33/// /3603 11071 21099 38776 48455 55002 333 91104 91203;
0137066190999992010010316004+46833+006583FM-12+120299999V0209999C001519999999N9999999N1-00801-01071999999ADDMA1999999087721MD1810021+9999ME1314519OA149900261REMSYN076AAXX  03164 06619 33/// /0003 11080 21107 38772 48451 58002 333 91105 91204;
0137066190999992010010317004+46833+006583FM-12+120299999V0203501N001019999999N9999999N1-00781-01511999999ADDMA1999999087701MD1710051+9999ME1314509OA149900261REMSYN076AAXX  03174 06619 33/// /3502 11078 21151 38770 48450 57005 333 91105 91204;
0156066190999992010010318004+46833+006583FM-12+120299999V0203501N002119999999N9999999N1-00811-01421999999ADDKA1120M-00661MA1999999087691MD1710071+9999ME1314489OA149900311REMSYN082AAXX  03184 06619 33/// /3504 11081 21142 38769 48448 57007 333 11066 91106 91204;
0137066190999992010010319004+46833+006583FM-12+120299999V0200101N001519999999N9999999N1-00771-01481999999ADDMA1999999087661MD1710061+9999ME1314469OA149900311REMSYN076AAXX  03194 06619 33/// /0103 11077 21148 38766 48446 57006 333 91106 91204;
0137066190999992010010320004+46833+006583FM-12+120299999V0200101N001019999999N9999999N1-00891-01371999999ADDMA1999999087651MD1710051+9999ME1314449OA149900311REMSYN076AAXX  03204 06619 33/// /0102 11089 21137 38765 48444 57005 333 91106 91204;
0137066190999992010010321004+46833+006583FM-12+120299999V0200101N000519999999N9999999N1-00791-01511999999ADDMA1999999087601MD1710091+9999ME1314419OA149900311REMSYN076AAXX  03214 06619 33/// /0101 11079 21151 38760 48441 57009 333 91106 91204;
0137066190999992010010322004+46833+006583FM-12+120299999V0203101N001019999999N9999999N1-00911-01381999999ADDMA1999999087601MD1710061+9999ME1314409OA149900211REMSYN076AAXX  03224 06619 33/// /3102 11091 21138 38760 48440 57006 333 91104 91204;
0137066190999992010010323004+46833+006583FM-12+120299999V0200301N000519999999N9999999N1-00731-01611999999ADDMA1999999087541MD1710111+9999ME1314369OA149900311REMSYN076AAXX  03234 06619 33/// /0301 11073 21161 38754 48436 57011 333 91106 91204;
0137066190999992010010400004+46833+006583FM-12+120299999V0203501N001019999999N9999999N1-00741-01521999999ADDMA1999999087481MD1710121+9999ME1314309OA149900311REMSYN076AAXX  04004 06619 33/// /3502 11074 21152 38748 48430 57012 333 91106 91204;
0137066190999992010010401004+46833+006583FM-12+120299999V0203401N000519999999N9999999N1-00761-01361999999ADDMA1999999087411MD1810191+9999ME1314249OA149900261REMSYN076AAXX  04014 06619 33/// /3401 11076 21136 38741 48424 58019 333 91105 91204;
0137066190999992010010402004+46833+006583FM-12+120299999V0209999C000019999999N9999999N1-00621-01491999999ADDMA1999999087391MD1710151+9999ME1314239OA149900261REMSYN076AAXX  04024 06619 33/// /0000 11062 21149 38739 48423 57015 333 91105 91204;
0137066190999992010010403004+46833+006583FM-12+120299999V0203101N000519999999N9999999N1-00661-01171999999ADDMA1999999087351MD1719999+9999ME1314209OA149900311REMSYN076AAXX  04034 06619 33/// /3101 11066 21117 38735 48420 57/// 333 91106 91204;
0137066190999992010010404004+46833+006583FM-12+120299999V0209999C000019999999N9999999N1-00671-01111999999ADDMA1999999087311MD1710101+9999ME1314169OA149900101REMSYN076AAXX  04044 06619 33/// /0000 11067 21111 38731 48416 57010 333 91102 91202;
0137066190999992010010405004+46833+006583FM-12+120299999V0203401N001019999999N9999999N1-00721-01081999999ADDMA1999999087311MD1710081+9999ME1314169OA149900151REMSYN076AAXX  04054 06619 33/// /3402 11072 21108 38731 48416 57008 333 91103 91202;
0234066190999992010010406004+46833+006583FM-12+120299999V0202601N000519999999N9999999N1-00721-01331999999ADDAA124000091AL19900091GJ100009IA2999-01409KA1999N-00961MA1999999087271MD1710081+9999ME1314129OA149900311REMSYN100AAXX  04064 06619 33/// /2601 11072 21133 38727 48412 57008 333 21096 3/114 55000 70000 91106 91204;EQDQ01  00002PRCP24
0137066190999992010010407004+46833+006583FM-12+120299999V0202801N000519999999N9999999N1-00711-01171999999ADDMA1999999087261MD1710051+9999ME1314119OA149900151REMSYN076AAXX  04074 06619 33/// /2801 11071 21117 38726 48411 57005 333 91103 91201;
0137066190999992010010408004+46833+006583FM-12+120299999V0202601N001019999999N9999999N1-00701-00871999999ADDMA1999999087271MD1710041+9999ME1314129OA149900261REMSYN076AAXX  04084 06619 33/// /2602 11070 21087 38727 48412 57004 333 91105 91202;
0156066190999992010010409004+46833+006583FM-12+120299999V0202001N000519999999N9999999N1-00641-00791999999ADDMA1999999087271MD1410001+9999ME1314139OA149900261REMSYN076AAXX  04094 06619 33/// /2001 11064 21079 38727 48413 57000 333 91105 91202;EQDQ01+000072APCTEN
0137066190999992010010410004+46833+006583FM-12+120299999V0209999C000019999999N9999999N1-00601-00721999999ADDMA1999999087261MD1010001+9999ME1314129OA149900211REMSYN076AAXX  04104 06619 33/// /0000 11060 21072 38726 48412 50000 333 91104 91202;
0137066190999992010010411004+46833+006583FM-12+120299999V0209999C000019999999N9999999N1-00521-00781999999ADDMA1999999087201MD1810071+9999ME1314079OA149900151REMSYN076AAXX  04114 06619 33/// /0000 11052 21078 38720 48407 58007 333 91103 91202;
0137066190999992010010412004+46833+006583FM-12+120299999V0209999C000019999999N9999999N1-00581-00671999999ADDMA1999999087141MD1810131+9999ME1314019OA149900261REMSYN076AAXX  04124 06619 33/// /0000 11058 21067 38714 48401 58013 333 91105 91204;
0137066190999992010010413004+46833+006583FM-12+120299999V0201701N000519999999N9999999N1-00641-00701999999ADDMA1999999087081MD1810181+9999ME1313969OA149900151REMSYN076AAXX  04134 06619 33/// /1701 11064 21070 38708 48396 58018 333 91103 91202;
0137066190999992010010414004+46833+006583FM-12+120299999V0201501N000519999999N9999999N1-00651-00731999999ADDMA1999999087051MD1719999+9999ME1313939OA149900151REMSYN076AAXX  04144 06619 33/// /1501 11065 21073 38705 48393 57/// 333 91103 91202;
0137066190999992010010415004+46833+006583FM-12+120299999V0200701N000519999999N9999999N1-00551-00761999999ADDMA1999999087041MD1710101+9999ME1313939OA149900151REMSYN076AAXX  04154 06619 33/// /0701 11055 21076 38704 48393 57010 333 91103 91202;
0137066190999992010010416004+46833+006583FM-12+120299999V0209999C000019999999N9999999N1-00631-00721999999ADDMA1999999087031MD1710051+9999ME1313919OA149900101REMSYN076AAXX  04164 06619 33/// /0000 11063 21072 38703 48391 57005 333 91102 91201;
0137066190999992010010417004+46833+006583FM-12+120299999V0201101N000519999999N9999999N1-00651-00691999999ADDMA1999999087011MD1810041+9999ME1313899OA149900101REMSYN076AAXX  04174 06619 33/// /1101 11065 21069 38701 48389 58004 333 91102 91201;
0156066190999992010010418004+46833+006583FM-12+120299999V0201101N000519999999N9999999N1-00631-00651999999ADDKA1120M-00521MA1999999087001MD1810041+9999ME1313899OA149900261REMSYN082AAXX  04184 06619 33/// /1101 11063 21065 38700 48389 58004 333 11052 91105 91202;
0137066190999992010010419004+46833+006583FM-12+120299999V0201201N000519999999N9999999N1-00621-00661999999ADDMA1999999086991MD1610041+9999ME1313889OA149900151REMSYN076AAXX  04194 06619 33/// /1201 11062 21066 38699 48388 56004 333 91103 91202;
0137066190999992010010420004+46833+006583FM-12+120299999V0200501N000519999999N9999999N1-00631-00651999999ADDMA1999999086971MD1810041+9999ME1313869OA149900101REMSYN076AAXX  04204 06619 33/// /0501 11063 21065 38697 48386 58004 333 91102 91201;
0137066190999992010010421004+46833+006583FM-12+120299999V0203401N000519999999N9999999N1-00581-00661999999ADDMA1999999086951MD1710051+9999ME1313849OA149900151REMSYN076AAXX  04214 06619 33/// /3401 11058 21066 38695 48384 57005 333 91103 91202;
0137066190999992010010422004+46833+006583FM-12+120299999V0209999C000019999999N9999999N1-00651-00701999999ADDMA1999999086921MD1710071+9999ME1313819OA149900151REMSYN076AAXX  04224 06619 33/// /0000 11065 21070 38692 48381 57007 333 91103 91201;
0137066190999992010010423004+46833+006583FM-12+120299999V0203201N001019999999N9999999N1-00651-00761999999ADDMA1999999086911MD1710061+9999ME1313809OA149900211REMSYN076AAXX  04234 06619 33/// /3202 11065 21076 38691 48380 57006 333 91104 91202;
0137066190999992010010500004+46833+006583FM-12+120299999V0209999C000019999999N9999999N1-00621-00691999999ADDMA1999999086851MD1710101+9999ME1313759OA149900211REMSYN076AAXX  05004 06619 33/// /0000 11062 21069 38685 48375 57010 333 91104 91202;
0137066190999992010010501004+46833+006583FM-12+120299999V0209999C000019999999N9999999N1-00721-00771999999ADDMA1999999086781MD1710141+9999ME1313689OA149900211REMSYN076AAXX  05014 06619 33/// /0000 11072 21077 38678 48368 57014 333 91104 91202;
0137066190999992010010502004+46833+006583FM-12+120299999V0209999C001519999999N9999999N1-00571-00661999999ADDMA1999999086731MD1610181+9999ME1313659OA149900151REMSYN076AAXX  05024 06619 33/// /0003 11057 21066 38673 48365 56018 333 91103 91203;
0137066190999992010010503004+46833+006583FM-12+120299999V0203301N002619999999N9999999N1-00691-00791999999ADDMA1999999086701MD1710151+9999ME1313619OA149900361REMSYN076AAXX  05034 06619 33/// /3305 11069 21079 38670 48361 57015 333 91107 91205;
0137066190999992010010504004+46833+006583FM-12+120299999V0202901N000519999999N9999999N1-00701-00811999999ADDMA1999999086641MD1710141+9999ME1313569OA149900361REMSYN076AAXX  05044 06619 33/// /2901 11070 21081 38664 48356 57014 333 91107 91205;
0137066190999992010010505004+46833+006583FM-12+120299999V0209999C000019999999N9999999N1-00571-00641999999ADDMA1999999086581MD1710151+9999ME1313519OA149900311REMSYN076AAXX  05054 06619 33/// /0000 11057 21064 38658 48351 57015 333 91106 91204;
0234066190999992010010506004+46833+006583FM-12+120299999V0209999C000019999999N9999999N1-00571-00621999999ADDAA124000091AL19900091GJ100009IA2999-00809KA1999N-00831MA1999999086541MD1710161+9999ME1313489OA149900361REMSYN100AAXX  05064 06619 33/// /0000 11057 21062 38654 48348 57016 333 21083 3/108 55000 70000 91107 91205;EQDQ01  00002PRCP24
0137066190999992010010507004+46833+006583FM-12+120299999V0200601N000519999999N9999999N1-00551-00601999999ADDMA1999999086511MD1710131+9999ME1313459OA149900261REMSYN076AAXX  05074 06619 33/// /0601 11055 21060 38651 48345 57013 333 91105 91202;
0137066190999992010010508004+46833+006583FM-12+120299999V0200301N000519999999N9999999N1-00571-00571999999ADDMA1999999086491MD1710091+9999ME1313439OA149900211REMSYN076AAXX  05084 06619 33/// /0301 11057 21057 38649 48343 57009 333 91104 91203;
0137066190999992010010509004+46833+006583FM-12+120299999V0209999C000019999999N9999999N1-00551-00551999999ADDMA1999999086471MD1710071+9999ME1313419OA149900311REMSYN076AAXX  05094 06619 33/// /0000 11055 21055 38647 48341 57007 333 91106 91204;
0137066190999992010010510004+46833+006583FM-12+120299999V0201301N000519999999N9999999N1-00521-00571999999ADDMA1999999086441MD1710071+9999ME1313399OA149900151REMSYN076AAXX  05104 06619 33/// /1301 11052 21057 38644 48339 57007 333 91103 91202;
0137066190999992010010511004+46833+006583FM-12+120299999V0203501N001519999999N9999999N1-00441-00521999999ADDMA1999999086381MD1710111+9999ME1313349OA149900211REMSYN076AAXX  05114 06619 33/// /3503 11044 21052 38638 48334 57011 333 91104 91203;
0137066190999992010010512004+46833+006583FM-12+120299999V0203101N000519999999N9999999N1-00351-00431999999ADDMA1999999086311MD1810161+9999ME1313289OA149900361REMSYN076AAXX  05124 06619 33/// /3101 11035 21043 38631 48328 58016 333 91107 91205;
0137066190999992010010513004+46833+006583FM-12+120299999V0201401N000519999999N9999999N1-00501-00571999999ADDMA1999999086231MD1810211+9999ME1313209OA149900261REMSYN076AAXX  05134 06619 33/// /1401 11050 21057 38623 48320 58021 333 91105 91202;
0096066190999992010010514004+46833+006583FM-12+120299999V0201501N000519999999N9999999N1-00561-00581999999ADDMA1999999086201ME1313179REMSYN060AAXX  05144 06619 33/// /1501 11056 21058 38620 48317 5////;
0137066190999992010010515004+46833+006583FM-12+120299999V0200501N001019999999N9999999N1-00491-00521999999ADDMA1999999086191MD1710121+9999ME1313169OA149900261REMSYN076AAXX  05154 06619 33/// /0502 11049 21052 38619 48316 57012 333 91105 91203;
0137066190999992010010516004+46833+006583FM-12+120299999V0200301N000519999999N9999999N1-00421-00471999999ADDMA1999999086171MD1710061+9999ME1313159OA149900261REMSYN076AAXX  05164 06619 33/// /0301 11042 21047 38617 48315 57006 333 91105 91202;
0137066190999992010010517004+46833+006583FM-12+120299999V0200101N000519999999N9999999N1-00401-00461999999ADDMA1999999086171MD1710031+9999ME1313159OA149900261REMSYN076AAXX  05174 06619 33/// /0101 11040 21046 38617 48315 57003 333 91105 91202;
0156066190999992010010518004+46833+006583FM-12+120299999V0203501N000519999999N9999999N1-00381-00411999999ADDKA1120M-00321MA1999999086141MD1810051+9999ME1313129OA149900261REMSYN082AAXX  05184 06619 33/// /3501 11038 21041 38614 48312 58005 333 11032 91105 91203;
0137066190999992010010519004+46833+006583FM-12+120299999V0209999C000019999999N9999999N1-00441-00481999999ADDMA1999999086141MD1710031+9999ME1313129OA149900211REMSYN076AAXX  05194 06619 33/// /0000 11044 21048 38614 48312 57003 333 91104 91203;
0137066190999992010010520004+46833+006583FM-12+120299999V0209999C000019999999N9999999N1-00431-00451999999ADDMA1999999086101MD1710071+9999ME1313089OA149900151REMSYN076AAXX  05204 06619 33/// /0000 11043 21045 38610 48308 57007 333 91103 91201;
0137066190999992010010521004+46833+006583FM-12+120299999V0209999C000019999999N9999999N1-00401-00421999999ADDMA1999999086081MD1710061+9999ME1313069OA149900261REMSYN076AAXX  05214 06619 33/// /0000 11040 21042 38608 48306 57006 333 91105 91203;
0137066190999992010010522004+46833+006583FM-12+120299999V0209999C000019999999N9999999N1-00461-00481999999ADDMA1999999086061MD1710081+9999ME1313049OA149900151REMSYN076AAXX  05224 06619 33/// /0000 11046 21048 38606 48304 57008 333 91103 91201;
0137066190999992010010523004+46833+006583FM-12+120299999V0209999C000019999999N9999999N1-00441-00461999999ADDMA1999999086041MD1710061+9999ME1313039OA149900151REMSYN076AAXX  05234 06619 33/// /0000 11044 21046 38604 48303 57006 333 91103 91202;
0137066190999992010010600004+46833+006583FM-12+120299999V0202201N001019999999N9999999N1-00631-00631999999ADDMA1999999086031MD1710051+9999ME1313019OA149900361REMSYN076AAXX  06004 06619 33/// /2202 11063 21063 38603 48301 57005 333 91107 91203;
0137066190999992010010601004+46833+006583FM-12+120299999V0203301N001019999999N9999999N1-00441-00521999999ADDMA1999999086031MD1710031+9999ME1313029OA149900361REMSYN076AAXX  06014 06619 33/// /3302 11044 21052 38603 48302 57003 333 91107 91202;
0137066190999992010010602004+46833+006583FM-12+120299999V0202701N001019999999N9999999N1-00401-00561999999ADDMA1999999086051MD1310011+9999ME1313049OA149900311REMSYN076AAXX  06024 06619 33/// /2702 11040 21056 38605 48304 53001 333 91106 91202;
0137066190999992010010603004+46833+006583FM-12+120299999V0201201N000519999999N9999999N1-00501-00641999999ADDMA1999999086041MD1210011+9999ME1313029OA149900461REMSYN076AAXX  06034 06619 33/// /1201 11050 21064 38604 48302 52001 333 91109 91202;
0137066190999992010010604004+46833+006583FM-12+120299999V0203601N001019999999N9999999N1-00571-00681999999ADDMA1999999086021MD1010011+9999ME1313009OA149900621REMSYN076AAXX  06044 06619 33/// /3602 11057 21068 38602 48300 50001 333 91112 91202;
0137066190999992010010605004+46833+006583FM-12+120299999V0209999C001519999999N9999999N1-00591-00711999999ADDMA1999999086031MD1510021+9999ME1313019OA149900771REMSYN076AAXX  06054 06619 33/// /0003 11059 21071 38603 48301 55002 333 91115 91203;
0234066190999992010010606004+46833+006583FM-12+120299999V0203401N001519999999N9999999N1-00631-00761999999ADDAA124000091AL19900091GJ100009IA2999-00709KA1999N-00641MA1999999086061MD1310021+9999ME1313049OA149900771REMSYN100AAXX  06064 06619 33/// /3403 11063 21076 38606 48304 53002 333 21064 3/107 55000 70000 91115 91203;EQDQ01  00002PRCP24
0137066190999992010010607004+46833+006583FM-12+120299999V0202501N001019999999N9999999N1-00631-00791999999ADDMA1999999086091MD1110071+9999ME1313079OA149900461REMSYN076AAXX  06074 06619 33/// /2502 11063 21079 38609 48307 51007 333 91109 91203;
0137066190999992010010608004+46833+006583FM-12+120299999V0202301N002119999999N9999999N1-00621-00831999999ADDMA1999999086121MD1110091+9999ME1313099OA149900671REMSYN076AAXX  06084 06619 33/// /2304 11062 21083 38612 48309 51009 333 91113 91205;
0137066190999992010010609004+46833+006583FM-12+120299999V0202201N002119999999N9999999N1-00611-00851999999ADDMA1999999086161MD1310101+9999ME1313139OA149900771REMSYN076AAXX  06094 06619 33/// /2204 11061 21085 38616 48313 53010 333 91115 91205;
0137066190999992010010610004+46833+006583FM-12+120299999V0202301N001019999999N9999999N1-00591-00811999999ADDMA1999999086201MD1310111+9999ME1313179OA149900511REMSYN076AAXX  06104 06619 33/// /2302 11059 21081 38620 48317 53011 333 91110 91204;
0137066190999992010010611004+46833+006583FM-12+120299999V0201901N001519999999N9999999N1-00541-00781999999ADDMA1999999086191MD1219999+9999ME1313169OA149900361REMSYN076AAXX  06114 06619 33/// /1903 11054 21078 38619 48316 52/// 333 91107 91204;
0137066190999992010010612004+46833+006583FM-12+120299999V0201901N001519999999N9999999N1-00611-00681999999ADDMA1999999086181MD1010021+9999ME1313159OA149900771REMSYN076AAXX  06124 06619 33/// /1903 11061 21068 38618 48315 50002 333 91115 91205;
0137066190999992010010613004+46833+006583FM-12+120299999V0202001N001519999999N9999999N1-00591-00631999999ADDMA1999999086171MD1710031+9999ME1313149OA149900311REMSYN076AAXX  06134 06619 33/// /2003 11059 21063 38617 48314 57003 333 91106 91204;
0137066190999992010010614004+46833+006583FM-12+120299999V0202001N001019999999N9999999N1-00571-00761999999ADDMA1999999086191MD1519999+9999ME1313169OA149900311REMSYN076AAXX  06144 06619 33/// /2002 11057 21076 38619 48316 55/// 333 91106 91204;
0137066190999992010010615004+46833+006583FM-12+120299999V0201601N000519999999N9999999N1-00551-00741999999ADDMA1999999086221MD1219999+9999ME1313199OA149900361REMSYN076AAXX  06154 06619 33/// /1601 11055 21074 38622 48319 52/// 333 91107 91204;
0137066190999992010010616004+46833+006583FM-12+120299999V0201801N001519999999N9999999N1-00601-00661999999ADDMA1999999086281MD1210111+9999ME1313249OA149900311REMSYN076AAXX  06164 06619 33/// /1803 11060 21066 38628 48324 52011 333 91106 91203;
0137066190999992010010617004+46833+006583FM-12+120299999V0203001N001019999999N9999999N1-00721-00871999999ADDMA1999999086331MD1110141+9999ME1313289OA149900311REMSYN076AAXX  06174 06619 33/// /3002 11072 21087 38633 48328 51014 333 91106 91203;
0156066190999992010010618004+46833+006583FM-12+120299999V0202501N001519999999N9999999N1-00681-01251999999ADDKA1120M-00531MA1999999086371MD1219999+9999ME1313329OA149900671REMSYN082AAXX  06184 06619 33/// /2503 11068 21125 38637 48332 52/// 333 11053 91113 91205;
0137066190999992010010619004+46833+006583FM-12+120299999V0202501N001519999999N9999999N1-00621-01461999999ADDMA1999999086391MD1310111+9999ME1313349OA149900311REMSYN076AAXX  06194 06619 33/// /2503 11062 21146 38639 48334 53011 333 91106 91203;
0137066190999992010010620004+46833+006583FM-12+120299999V0202301N002119999999N9999999N1-00671-00911999999ADDMA1999999086401MD1110071+9999ME1313349OA149900721REMSYN076AAXX  06204 06619 33/// /2304 11067 21091 38640 48334 51007 333 91114 91205;
0154066190999992010010621004+46833+006583FM-12+120299999V0202401N003619999999N9999999N1-00681-00871999999ADDAA101000021MA1999999086431MD1210061+9999ME1313379OA149900771REMSYN082AAXX  06214 06619 23/// /2407 11068 21087 38643 48337 52006 333 69915 91115 91207;
0137066190999992010010622004+46833+006583FM-12+120299999V0202201N002119999999N9999999N1-00701-00861999999ADDMA1999999086461MD1210071+9999ME1313409OA149900771REMSYN076AAXX  06224 06619 33/// /2204 11070 21086 38646 48340 52007 333 91115 91207;
0137066190999992010010623004+46833+006583FM-12+120299999V0202301N001519999999N9999999N1-00701-00901999999ADDMA1999999086491MD1210091+9999ME1313429OA149900721REMSYN076AAXX  06234 06619 33/// /2303 11070 21090 38649 48342 52009 333 91114 91206;
0179066190999992010010700004+46833+006583FM-12+120299999V0202401N001519999999N9999999N1-00771-01001999999ADDAA106000091MA1999999086491MD1210061+9999ME1313429OA149900771REMSYN088AAXX  07004 06619 03/// /2403 11077 21100 38649 48342 52006 69911 333 60005 91115 91207;EQDQ01  00002PRCP06
0137066190999992010010701004+46833+006583FM-12+120299999V0202401N002119999999N9999999N1-00741-00921999999ADDMA1999999086491MD1210031+9999ME1313429OA149900621REMSYN076AAXX  07014 06619 33/// /2404 11074 21092 38649 48342 52003 333 91112 91204;
0137066190999992010010702004+46833+006583FM-12+120299999V0202301N001519999999N9999999N1-00701-01021999999ADDMA1999999086511MD1219999+9999ME1313449OA149900461REMSYN076AAXX  07024 06619 33/// /2303 11070 21102 38651 48344 52/// 333 91109 91204;
0137066190999992010010703004+46833+006583FM-12+120299999V0202401N000519999999N9999999N1-00761-01011999999ADDMA1999999086491MD1010001+9999ME1313429OA149900721REMSYN076AAXX  07034 06619 33/// /2401 11076 21101 38649 48342 50000 333 91114 91206;
0137066190999992010010704004+46833+006583FM-12+120299999V0202201N000519999999N9999999N1-00761-00951999999ADDMA1999999086491MD1010001+9999ME1313429OA149900461REMSYN076AAXX  07044 06619 33/// /2201 11076 21095 38649 48342 50000 333 91109 91204;
0137066190999992010010705004+46833+006583FM-12+120299999V0202401N001019999999N9999999N1-00721-00891999999ADDMA1999999086501MD1510011+9999ME1313439OA149900261REMSYN076AAXX  07054 06619 33/// /2402 11072 21089 38650 48343 55001 333 91105 91202;
0273066190999992010010706004+46833+006583FM-12+120299999V0202201N001019999999N9999999N1-00691-00811999999ADDAA112000091AA224000091AL10600091GJ100789IA2999-01409KA1999N-00791MA1999999086541MD1210051+9999ME1313479OA149900771REMSYN112AAXX  07064 06619 03/// /2202 11069 21081 38654 48347 52005 69912 333 21079 3/114 55013 60005 70001 91115 91207;EQDQ01  00002PRCP24Q02  00002PRCP12
0137066190999992010010707004+46833+006583FM-12+120299999V0202501N000519999999N9999999N1-00711-00801999999ADDMA1999999086571MD1310081+9999ME1313499OA149900261REMSYN076AAXX  07074 06619 33/// /2501 11071 21080 38657 48349 53008 333 91105 91203;
0137066190999992010010708004+46833+006583FM-12+120299999V0201501N000519999999N9999999N1-00681-00771999999ADDMA1999999086621MD1319999+9999ME1313549OA149900261REMSYN076AAXX  07084 06619 33/// /1501 11068 21077 38662 48354 53/// 333 91105 91202;
0137066190999992010010709004+46833+006583FM-12+120299999V0209999C000019999999N9999999N1-00721-00721999999ADDMA1999999086681MD1110141+9999ME1313599OA149900311REMSYN076AAXX  07094 06619 33/// /0000 11072 21072 38668 48359 51014 333 91106 91203;
0137066190999992010010710004+46833+006583FM-12+120299999V0201901N000519999999N9999999N1-00661-00741999999ADDMA1999999086721MD1310151+9999ME1313639OA149900311REMSYN076AAXX  07104 06619 33/// /1901 11066 21074 38672 48363 53015 333 91106 91203;
0137066190999992010010711004+46833+006583FM-12+120299999V0202001N001019999999N9999999N1-00651-00721999999ADDMA1999999086731MD1110111+9999ME1313649OA149900261REMSYN076AAXX  07114 06619 33/// /2002 11065 21072 38673 48364 51011 333 91105 91203;
0137066190999992010010712004+46833+006583FM-12+120299999V0201701N000519999999N9999999N1-00661-00661999999ADDMA1999999086711MD1010031+9999ME1313629OA149900461REMSYN076AAXX  07124 06619 33/// /1701 11066 21066 38671 48362 50003 333 91109 91204;
0137066190999992010010713004+46833+006583FM-12+120299999V0201201N000519999999N9999999N1-00631-00651999999ADDMA1999999086721MD1510001+9999ME1313639OA149900211REMSYN076AAXX  07134 06619 33/// /1201 11063 21065 38672 48363 55000 333 91104 91202;
0096066190999992010010715004+46833+006583FM-12+120299999V0209999C000019999999N9999999N1-00671-00681999999ADDMA1999999086781ME1313699REMSYN060AAXX  07154 06619 43/// /0000 11067 21068 38678 48369 5////;
0137066190999992010010716004+46833+006583FM-12+120299999V0201901N000519999999N9999999N1-00691-00691999999ADDMA1999999086801MD1210081+9999ME1313709OA149900151REMSYN076AAXX  07164 06619 33/// /1901 11069 21069 38680 48370 52008 333 91103 91202;
0137066190999992010010717004+46833+006583FM-12+120299999V0201601N000519999999N9999999N1-00661-00661999999ADDMA1999999086841MD1219999+9999ME1313749OA149900151REMSYN076AAXX  07174 06619 33/// /1601 11066 21066 38684 48374 52/// 333 91103 91202;
0156066190999992010010718004+46833+006583FM-12+120299999V0200401N000519999999N9999999N1-00671-00731999999ADDKA1120M-00551MA1999999086851MD1219999+9999ME1313759OA149900311REMSYN082AAXX  07184 06619 33/// /0401 11067 21073 38685 48375 52/// 333 11055 91106 91203;
0137066190999992010010719004+46833+006583FM-12+120299999V0201901N000519999999N9999999N1-00671-00671999999ADDMA1999999086881MD1210081+9999ME1313789OA149900151REMSYN076AAXX  07194 06619 33/// /1901 11067 21067 38688 48378 52008 333 91103 91202;
0137066190999992010010720004+46833+006583FM-12+120299999V0203301N001519999999N9999999N1-00671-00791999999ADDMA1999999086871MD1210031+9999ME1313779OA149900261REMSYN076AAXX  07204 06619 33/// /3303 11067 21079 38687 48377 52003 333 91105 91203;
0137066190999992010010721004+46833+006583FM-12+120299999V0203601N001519999999N9999999N1-00661-00791999999ADDMA1999999086841MD1810011+9999ME1313749OA149900311REMSYN076AAXX  07214 06619 33/// /3603 11066 21079 38684 48374 58001 333 91106 91205;
0137066190999992010010722004+46833+006583FM-12+120299999V0200101N002619999999N9999999N1-00611-00771999999ADDMA1999999086821MD1610061+9999ME1313739OA149900361REMSYN076AAXX  07224 06619 33/// /0105 11061 21077 38682 48373 56006 333 91107 91205;
0137066190999992010010723004+46833+006583FM-12+120299999V0200101N002119999999N9999999N1-00571-00741999999ADDMA1999999086841MD1510031+9999ME1313759OA149900511REMSYN076AAXX  07234 06619 33/// /0104 11057 21074 38684 48375 55003 333 91110 91205;
0137066190999992010010800004+46833+006583FM-12+120299999V0200101N003619999999N9999999N1-00601-00801999999ADDMA1999999086801MD1710041+9999ME1313719OA149900511REMSYN076AAXX  08004 06619 33/// /0107 11060 21080 38680 48371 57004 333 91110 91207;
0137066190999992010010801004+46833+006583FM-12+120299999V0200201N001019999999N9999999N1-00581-00791999999ADDMA1999999086751MD1810071+9999ME1313669OA149900511REMSYN076AAXX  08014 06619 33/// /0202 11058 21079 38675 48366 58007 333 91110 91207;
0137066190999992010010802004+46833+006583FM-12+120299999V0200601N004619999999N9999999N1-00581-00881999999ADDMA1999999086751MD1719999+9999ME1313669OA149900721REMSYN076AAXX  08024 06619 33/// /0609 11058 21088 38675 48366 57/// 333 91114 91209;
0137066190999992010010803004+46833+006583FM-12+120299999V0200501N005119999999N9999999N1-00581-00791999999ADDMA1999999086701MD1719999+9999ME1313629OA149900931REMSYN076AAXX  08034 06619 33/// /0510 11058 21079 38670 48362 57/// 333 91118 91210;
0137066190999992010010804004+46833+006583FM-12+120299999V0200401N004619999999N9999999N1-00591-00751999999ADDMA1999999086641MD1710111+9999ME1313569OA149900931REMSYN076AAXX  08044 06619 33/// /0409 11059 21075 38664 48356 57011 333 91118 91210;
0137066190999992010010805004+46833+006583FM-12+120299999V0200401N005719999999N9999999N1-00581-00781999999ADDMA1999999086611MD1610141+9999ME1313549OA149901081REMSYN076AAXX  08054 06619 33/// /0411 11058 21078 38661 48354 56014 333 91121 91211;
0234066190999992010010806004+46833+006583FM-12+120299999V0200401N005719999999N9999999N1-00571-00781999999ADDAA124000091AL19900091GJ100429IA2999-00809KA1999N-00691MA1999999086551MD1710151+9999ME1313489OA149901341REMSYN100AAXX  08064 06619 33/// /0411 11057 21078 38655 48348 57015 333 21069 3/108 55007 70000 91126 91213;EQDQ01  00002PRCP24
0137066190999992010010807004+46833+006583FM-12+120299999V0200501N009819999999N9999999N1-00571-00761999999ADDMA1999999086501MD1810141+9999ME1313449OA149901601REMSYN076AAXX  08074 06619 33/// /0519 11057 21076 38650 48344 58014 333 91131 91219;
0137066190999992010010808004+46833+006583FM-12+120299999V0200501N008219999999N9999999N1-00551-00781999999ADDMA1999999086471MD1610141+9999ME1313419OA149901651REMSYN076AAXX  08084 06619 33/// /0516 11055 21078 38647 48341 56014 333 91132 91219;
0137066190999992010010809004+46833+006583FM-12+120299999V0200501N004119999999N9999999N1-00571-00761999999ADDMA1999999086411MD1810141+9999ME1313369OA149901651REMSYN076AAXX  08094 06619 33/// /0508 11057 21076 38641 48336 58014 333 91132 91219;
0137066190999992010010810004+46833+006583FM-12+120299999V0200701N004119999999N9999999N1-00571-00721999999ADDMA1999999086381MD1810121+9999ME1313339OA149901441REMSYN076AAXX  08104 06619 33/// /0708 11057 21072 38638 48333 58012 333 91128 91215;
0137066190999992010010811004+46833+006583FM-12+120299999V0200701N002619999999N9999999N1-00621-00731999999ADDMA1999999086331MD1610141+9999ME1313289OA149901441REMSYN076AAXX  08114 06619 33/// /0705 11062 21073 38633 48328 56014 333 91128 91214;
0179066190999992010010812004+46833+006583FM-12+120299999V0200701N002119999999N9999999N1-00681-00701999999ADDAA106000091MA1999999086261MD1810151+9999ME1313229OA149901651REMSYN088AAXX  08124 06619 03/// /0704 11068 21070 38626 48322 58015 69921 333 69925 91132 91219;EQDQ01  00002PRCP06
0137066190999992010010813004+46833+006583FM-12+120299999V0200601N002119999999N9999999N1-00691-00741999999ADDMA1999999086221MD1810161+9999ME1313189OA149900931REMSYN076AAXX  08134 06619 33/// /0604 11069 21074 38622 48318 58016 333 91118 91206;
0154066190999992010010814004+46833+006583FM-12+120299999V0201101N001019999999N9999999N1-00721-00751999999ADDAA101000021MA1999999086241MD1719999+9999ME1313209OA149900771REMSYN082AAXX  08144 06619 23/// /1102 11072 21075 38624 48320 57/// 333 69915 91115 91206;
0137066190999992010010815004+46833+006583FM-12+120299999V0200601N002619999999N9999999N1-00701-00721999999ADDMA1999999086281MD1310021+9999ME1313239OA149901441REMSYN076AAXX  08154 06619 33/// /0605 11070 21072 38628 48323 53002 333 91128 91214;
0137066190999992010010816004+46833+006583FM-12+120299999V0200701N004119999999N9999999N1-00691-00811999999ADDMA1999999086281MD1210061+9999ME1313239OA149900881REMSYN076AAXX  08164 06619 33/// /0708 11069 21081 38628 48323 52006 333 91117 91208;
0154066190999992010010817004+46833+006583FM-12+120299999V0200601N003619999999N9999999N1-00681-00811999999ADDAA101000021MA1999999086281MD1219999+9999ME1313249OA149900931REMSYN082AAXX  08174 06619 23/// /0607 11068 21081 38628 48324 52/// 333 69915 91118 91208;
0179066190999992010010818004+46833+006583FM-12+120299999V0200601N005119999999N9999999N1-00721-00901999999ADDAA112000591KA1120M-00531MA1999999086291MD1210011+9999ME1313249OA149901651REMSYN094AAXX  08184 06619 03/// /0610 11072 21090 38629 48324 52001 69942 333 11053 60005 91132 91219;
0137066190999992010010819004+46833+006583FM-12+120299999V0200601N005719999999N9999999N1-00741-00911999999ADDMA1999999086311MD1310031+9999ME1313269OA149901291REMSYN076AAXX  08194 06619 33/// /0611 11074 21091 38631 48326 53003 333 91125 91211;
0137066190999992010010820004+46833+006583FM-12+120299999V0200501N006719999999N9999999N1-00761-00941999999ADDMA1999999086311MD1210031+9999ME1313269OA149901291REMSYN076AAXX  08204 06619 33/// /0513 11076 21094 38631 48326 52003 333 91125 91213;
0137066190999992010010821004+46833+006583FM-12+120299999V0200501N004619999999N9999999N1-00771-00961999999ADDMA1999999086331MD1210041+9999ME1313289OA149901291REMSYN076AAXX  08214 06619 33/// /0509 11077 21096 38633 48328 52004 333 91125 91213;
0137066190999992010010822004+46833+006583FM-12+120299999V0200601N004119999999N9999999N1-00761-00961999999ADDMA1999999086351MD1210041+9999ME1313299OA149901241REMSYN076AAXX  08224 06619 33/// /0608 11076 21096 38635 48329 52004 333 91124 91212;
0137066190999992010010823004+46833+006583FM-12+120299999V0200501N003619999999N9999999N1-00781-00971999999ADDMA1999999086341MD1210031+9999ME1313289OA149901241REMSYN076AAXX  08234 06619 33/// /0507 11078 21097 38634 48328 52003 333 91124 91210;
0137066190999992010010900004+46833+006583FM-12+120299999V0200701N002119999999N9999999N1-00781-00951999999ADDMA1999999086331MD1010001+9999ME1313289OA149901291REMSYN076AAXX  09004 06619 33/// /0704 11078 21095 38633 48328 50000 333 91125 91213;
0137066190999992010010901004+46833+006583FM-12+120299999V0200701N003119999999N9999999N1-00831-00951999999ADDMA1999999086341MD1510011+9999ME1313289OA149900821REMSYN076AAXX  09014 06619 33/// /0706 11083 21095 38634 48328 55001 333 91116 91209;
0137066190999992010010902004+46833+006583FM-12+120299999V0200601N001519999999N9999999N1-00861-00931999999ADDMA1999999086331MD1219999+9999ME1313279OA149900721REMSYN076AAXX  09024 06619 33/// /0603 11086 21093 38633 48327 52/// 333 91114 91207;
0137066190999992010010903004+46833+006583FM-12+120299999V0200601N000519999999N9999999N1-00881-00911999999ADDMA1999999086301MD1719999+9999ME1313249OA149901241REMSYN076AAXX  09034 06619 33/// /0601 11088 21091 38630 48324 57/// 333 91124 91210;
0137066190999992010010904004+46833+006583FM-12+120299999V0200201N001519999999N9999999N1-00871-00941999999ADDMA1999999086261MD1710081+9999ME1313219OA149900361REMSYN076AAXX  09044 06619 33/// /0203 11087 21094 38626 48321 57008 333 91107 91205;
0137066190999992010010905004+46833+006583FM-12+120299999V0200401N001019999999N9999999N1-00861-00911999999ADDMA1999999086231MD1710101+9999ME1313189OA149900311REMSYN076AAXX  09054 06619 33/// /0402 11086 21091 38623 48318 57010 333 91106 91203;
0215066190999992010010906004+46833+006583FM-12+120299999V0200101N001519999999N9999999N1-00861-00931999999ADDAA124000591AL12400091GJ100009IA2999-00809KA1999N-00891MA1999999086191MD1710111+9999ME1313159OA149901291REMSYN100AAXX  09064 06619 33/// /0103 11086 21093 38619 48315 57011 333 21089 3/108 55000 70004 91125 91213;
0137066190999992010010907004+46833+006583FM-12+120299999V0200601N002119999999N9999999N1-00831-00871999999ADDMA1999999086211MD1710051+9999ME1313179OA149900461REMSYN076AAXX  09074 06619 33/// /0604 11083 21087 38621 48317 57005 333 91109 91204;
0137066190999992010010908004+46833+006583FM-12+120299999V0200601N003619999999N9999999N1-00851-00891999999ADDMA1999999086241MD1310011+9999ME1313199OA149900621REMSYN076AAXX  09084 06619 33/// /0607 11085 21089 38624 48319 53001 333 91112 91207;
0137066190999992010010909004+46833+006583FM-12+120299999V0200601N003619999999N9999999N1-00851-00851999999ADDMA1999999086251MD1210061+9999ME1313209OA149900821REMSYN076AAXX  09094 06619 33/// /0607 11085 21085 38625 48320 52006 333 91116 91209;
0137066190999992010010910004+46833+006583FM-12+120299999V0200201N001519999999N9999999N1-00931-01001999999ADDMA1999999086281MD1210071+9999ME1313229OA149900821REMSYN076AAXX  09104 06619 33/// /0203 11093 21100 38628 48322 52007 333 91116 91209;
0137066190999992010010911004+46833+006583FM-12+120299999V0200301N002119999999N9999999N1-00941-00941999999ADDMA1999999086221MD1810021+9999ME1313179OA149900461REMSYN076AAXX  09114 06619 33/// /0304 11094 21094 38622 48317 58002 333 91109 91204;
0137066190999992010010912004+46833+006583FM-12+120299999V0200401N001519999999N9999999N1-00931-00931999999ADDMA1999999086211MD1710041+9999ME1313169OA149900821REMSYN076AAXX  09124 06619 33/// /0403 11093 21093 38621 48316 57004 333 91116 91209;
0137066190999992010010913004+46833+006583FM-12+120299999V0200101N002119999999N9999999N1-00931-00941999999ADDMA1999999086201MD1710081+9999ME1313159OA149900411REMSYN076AAXX  09134 06619 33/// /0104 11093 21094 38620 48315 57008 333 91108 91204;
0156066190999992010010914004+46833+006583FM-12+120299999V0200101N002619999999N9999999N1-00981-01001999999ADDMA1999999086221MD1410001+9999ME1313179OA149900461REMSYN076AAXX  09144 06619 33/// /0105 11098 21100 38622 48317 57000 333 91109 91205;EQDQ01+000072APCTEN
0137066190999992010010915004+46833+006583FM-12+120299999V0200201N002119999999N9999999N1-01021-01041999999ADDMA1999999086231MD1210021+9999ME1313189OA149900511REMSYN076AAXX  09154 06619 33/// /0204 11102 21104 38623 48318 52002 333 91110 91205;
0137066190999992010010916004+46833+006583FM-12+120299999V0200301N002619999999N9999999N1-00991-00991999999ADDMA1999999086251MD1210051+9999ME1313199OA149900771REMSYN076AAXX  09164 06619 33/// /0305 11099 21099 38625 48319 52005 333 91115 91207;
0137066190999992010010917004+46833+006583FM-12+120299999V0200101N002119999999N9999999N1-01021-01021999999ADDMA1999999086251MD1210031+9999ME1313199OA149900771REMSYN076AAXX  09174 06619 33/// /0104 11102 21102 38625 48319 52003 333 91115 91207;
0156066190999992010010918004+46833+006583FM-12+120299999V0209999C002619999999N9999999N1-01051-01051999999ADDKA1120M-00831MA1999999086281MD1210051+9999ME1313229OA149900821REMSYN082AAXX  09184 06619 33/// /0005 11105 21105 38628 48322 52005 333 11083 91116 91209;
0137066190999992010010919004+46833+006583FM-12+120299999V0200101N002619999999N9999999N1-01041-01071999999ADDMA1999999086331MD1210081+9999ME1313269OA149900621REMSYN076AAXX  09194 06619 33/// /0105 11104 21107 38633 48326 52008 333 91112 91207;
0137066190999992010010920004+46833+006583FM-12+120299999V0200101N002119999999N9999999N1-01051-01121999999ADDMA1999999086371MD1310121+9999ME1313309OA149900571REMSYN076AAXX  09204 06619 33/// /0104 11105 21112 38637 48330 53012 333 91111 91205;
0137066190999992010010921004+46833+006583FM-12+120299999V0200101N002119999999N9999999N1-01041-01141999999ADDMA1999999086401MD1110121+9999ME1313339OA149900771REMSYN076AAXX  09214 06619 33/// /0104 11104 21114 38640 48333 51012 333 91115 91207;
0137066190999992010010922004+46833+006583FM-12+120299999V0209999C001519999999N9999999N1-01051-01111999999ADDMA1999999086431MD1110101+9999ME1313359OA149900361REMSYN076AAXX  09224 06619 33/// /0003 11105 21111 38643 48335 51010 333 91107 91204;
0137066190999992010010923004+46833+006583FM-12+120299999V0200101N001019999999N9999999N1-01031-01111999999ADDMA1999999086471MD1310101+9999ME1313399OA149900361REMSYN076AAXX  09234 06619 33/// /0102 11103 21111 38647 48339 53010 333 91107 91204;
0137066190999992010011000004+46833+006583FM-12+120299999V0203501N001519999999N9999999N1-01051-01111999999ADDMA1999999086501MD1110101+9999ME1313419OA149900771REMSYN076AAXX  10004 06619 33/// /3503 11105 21111 38650 48341 51010 333 91115 91207;
0137066190999992010011001004+46833+006583FM-12+120299999V0209999C001519999999N9999999N1-01031-01111999999ADDMA1999999086531MD1110101+9999ME1313449OA149900261REMSYN076AAXX  10014 06619 33/// /0003 11103 21111 38653 48344 51010 333 91105 91203;
0096066190999992010011002004+46833+006583FM-12+120299999V0200101N001519999999N9999999N1-01041-01101999999ADDMA1999999086581ME1313499REMSYN060AAXX  10024 06619 33/// /0103 11104 21110 38658 48349 5////;
0096066190999992010011003004+46833+006583FM-12+120299999V0200201N001019999999N9999999N1-01021-01101999999ADDMA1999999086611ME1313519REMSYN060AAXX  10034 06619 43/// /0202 11102 21110 38661 48351 5////;
0137066190999992010011004004+46833+006583FM-12+120299999V0203301N000519999999N9999999N1-01011-01071999999ADDMA1999999086651MD1210121+9999ME1313559OA149900151REMSYN076AAXX  10044 06619 33/// /3301 11101 21107 38665 48355 52012 333 91103 91203;
0137066190999992010011005004+46833+006583FM-12+120299999V0209999C000019999999N9999999N1-01041-01061999999ADDMA1999999086711MD1210131+9999ME1313609OA149900151REMSYN076AAXX  10054 06619 33/// /0000 11104 21106 38671 48360 52013 333 91103 91202;
0234066190999992010011006004+46833+006583FM-12+120299999V0209999C000019999999N9999999N1-01051-01051999999ADDAA124000091AL19900091GJ100009IA2999-01009KA1999N-01061MA1999999086731MD1110121+9999ME1313629OA149900571REMSYN100AAXX  10064 06619 33/// /0000 11105 21105 38673 48362 51012 333 21106 3/110 55000 70000 91111 91205;EQDQ01  00002PRCP24
0137066190999992010011007004+46833+006583FM-12+120299999V0209999C000019999999N9999999N1-01041-01061999999ADDMA1999999086811MD1310161+9999ME1313699OA149900101REMSYN076AAXX  10074 06619 33/// /0000 11104 21106 38681 48369 53016 333 91102 91201;
0137066190999992010011008004+46833+006583FM-12+120299999V0209999C000019999999N9999999N1-01011-01051999999ADDMA1999999086871MD1319999+9999ME1313749OA149900101REMSYN076AAXX  10084 06619 33/// /0000 11101 21105 38687 48374 53/// 333 91102 91201;
0137066190999992010011009004+46833+006583FM-12+120299999V0203501N000519999999N9999999N1-01031-01081999999ADDMA1999999086931MD1110201+9999ME1313809OA149900151REMSYN076AAXX  10094 06619 33/// /3501 11103 21108 38693 48380 51020 333 91103 91202;
0137066190999992010011010004+46833+006583FM-12+120299999V0201701N000519999999N9999999N1-00881-00981999999ADDMA1999999087001MD1110191+9999ME1313879OA149900151REMSYN076AAXX  10104 06619 33/// /1701 11088 21098 38700 48387 51019 333 91103 91202;
0137066190999992010011011004+46833+006583FM-12+120299999V0201701N001019999999N9999999N1-00791-00931999999ADDMA1999999087021MD1110151+9999ME1313899OA149900211REMSYN076AAXX  10114 06619 33/// /1702 11079 21093 38702 48389 51015 333 91104 91202;
0137066190999992010011012004+46833+006583FM-12+120299999V0202001N001019999999N9999999N1-00851-00901999999ADDMA1999999087041MD1110111+9999ME1313919OA149900211REMSYN076AAXX  10124 06619 33/// /2002 11085 21090 38704 48391 51011 333 91104 91203;
0137066190999992010011013004+46833+006583FM-12+120299999V0209999C000019999999N9999999N1-00921-00921999999ADDMA1999999087071MD1310071+9999ME1313939OA149900211REMSYN076AAXX  10134 06619 33/// /0000 11092 21092 38707 48393 53007 333 91104 91202;
0137066190999992010011014004+46833+006583FM-12+120299999V0201301N001019999999N9999999N1-00881-00921999999ADDMA1999999087131MD1319999+9999ME1313989OA149900151REMSYN076AAXX  10144 06619 33/// /1302 11088 21092 38713 48398 53/// 333 91103 91202;
0137066190999992010011015004+46833+006583FM-12+120299999V0201001N000519999999N9999999N1-00921-00941999999ADDMA1999999087151MD1210111+9999ME1314009OA149900211REMSYN076AAXX  10154 06619 33/// /1001 11092 21094 38715 48400 52011 333 91104 91202;
0137066190999992010011016004+46833+006583FM-12+120299999V0203401N000519999999N9999999N1-00931-01001999999ADDMA1999999087191MD1210121+9999ME1314039OA149900151REMSYN076AAXX  10164 06619 33/// /3401 11093 21100 38719 48403 52012 333 91103 91201;
0137066190999992010011017004+46833+006583FM-12+120299999V0203601N001019999999N9999999N1-01031-01091999999ADDMA1999999087201MD1210071+9999ME1314039OA149900101REMSYN076AAXX  10174 06619 33/// /3602 11103 21109 38720 48403 52007 333 91102 91202;
0156066190999992010011018004+46833+006583FM-12+120299999V0203601N001019999999N9999999N1-01061-01071999999ADDKA1120M-00761MA1999999087241MD1210091+9999ME1314079OA149900211REMSYN082AAXX  10184 06619 33/// /3602 11106 21107 38724 48407 52009 333 11076 91104 91202;
0137066190999992010011019004+46833+006583FM-12+120299999V0200501N000519999999N9999999N1-01021-01031999999ADDMA1999999087251MD1210061+9999ME1314089OA149900151REMSYN076AAXX  10194 06619 33/// /0501 11102 21103 38725 48408 52006 333 91103 91202;
0137066190999992010011020004+46833+006583FM-12+120299999V0202101N000519999999N9999999N1-00991-00991999999ADDMA1999999087251MD1210051+9999ME1314089OA149900151REMSYN076AAXX  10204 06619 33/// /2101 11099 21099 38725 48408 52005 333 91103 91201;
0137066190999992010011021004+46833+006583FM-12+120299999V0200201N000519999999N9999999N1-00971-01071999999ADDMA1999999087251MD1410001+9999ME1314089OA149900151REMSYN076AAXX  10214 06619 33/// /0201 11097 21107 38725 48408 54001 333 91103 91202;
0137066190999992010011022004+46833+006583FM-12+120299999V0201401N000519999999N9999999N1-00941-00941999999ADDMA1999999087251MD1510001+9999ME1314089OA149900211REMSYN076AAXX  10224 06619 33/// /1401 11094 21094 38725 48408 55000 333 91104 91202;
0137066190999992010011023004+46833+006583FM-12+120299999V0209999C000019999999N9999999N1-00931-00931999999ADDMA1999999087281MD1210031+9999ME1314119OA149900211REMSYN076AAXX  10234 06619 33/// /0000 11093 21093 38728 48411 52003 333 91104 91202;
0137066190999992010011100004+46833+006583FM-12+120299999V0209999C000019999999N9999999N1-00921-00921999999ADDMA1999999087291MD1210041+9999ME1314129OA149900211REMSYN076AAXX  11004 06619 33/// /0000 11092 21092 38729 48412 52004 333 91104 91202;
0137066190999992010011101004+46833+006583FM-12+120299999V0209999C000019999999N9999999N1-00921-00931999999ADDMA1999999087291MD1010041+9999ME1314129OA149900151REMSYN076AAXX  11014 06619 33/// /0000 11092 21093 38729 48412 50004 333 91103 91201;
0137066190999992010011102004+46833+006583FM-12+120299999V0201101N000519999999N9999999N1-00881-00881999999ADDMA1999999087301MD1219999+9999ME1314139OA149900151REMSYN076AAXX  11024 06619 33/// /1101 11088 21088 38730 48413 52/// 333 91103 91201;
0137066190999992010011103004+46833+006583FM-12+120299999V0203601N000519999999N9999999N1-00931-00931999999ADDMA1999999087291MD1019999+9999ME1314129OA149900211REMSYN076AAXX  11034 06619 33/// /3601 11093 21093 38729 48412 50/// 333 91104 91202;
0137066190999992010011104004+46833+006583FM-12+120299999V0203201N000519999999N9999999N1-00971-00971999999ADDMA1999999087271MD1810021+9999ME1314109OA149900151REMSYN076AAXX  11044 06619 33/// /3201 11097 21097 38727 48410 58002 333 91103 91201;
0137066190999992010011105004+46833+006583FM-12+120299999V0203501N001019999999N9999999N1-01041-01041999999ADDMA1999999087251MD1710051+9999ME1314089OA149900151REMSYN076AAXX  11054 06619 33/// /3502 11104 21104 38725 48408 57005 333 91103 91202;
0234066190999992010011106004+46833+006583FM-12+120299999V0203401N000519999999N9999999N1-00991-00991999999ADDAA124000091AL19900091GJ100849IA2999-01209KA1999N-01061MA1999999087231MD1710061+9999ME1314069OA149900211REMSYN100AAXX  11064 06619 33/// /3401 11099 21099 38723 48406 57006 333 21106 3/112 55014 70000 91104 91202;EQDQ01  00002PRCP24
0137066190999992010011107004+46833+006583FM-12+120299999V0203501N000519999999N9999999N1-01011-01011999999ADDMA1999999087251MD1710021+9999ME1314089OA149900151REMSYN076AAXX  11074 06619 33/// /3501 11101 21101 38725 48408 57002 333 91103 91202;
0137066190999992010011108004+46833+006583FM-12+120299999V0203201N000519999999N9999999N1-01041-01041999999ADDMA1999999087281MD1319999+9999ME1314109OA149900151REMSYN076AAXX  11084 06619 33/// /3201 11104 21104 38728 48410 53/// 333 91103 91201;
0137066190999992010011109004+46833+006583FM-12+120299999V0209999C000019999999N9999999N1-00971-00971999999ADDMA1999999087341MD1310111+9999ME1314169OA149900151REMSYN076AAXX  11094 06619 33/// /0000 11097 21097 38734 48416 53011 333 91103 91202;
0137066190999992010011110004+46833+006583FM-12+120299999V0209999C000019999999N9999999N1-00871-00871999999ADDMA1999999087361MD1119999+9999ME1314199OA149900101REMSYN076AAXX  11104 06619 33/// /0000 11087 21087 38736 48419 51/// 333 91102 91201;
0137066190999992010011111004+46833+006583FM-12+120299999V0201901N000519999999N9999999N1-00861-00861999999ADDMA1999999087361MD1210081+9999ME1314199OA149900101REMSYN076AAXX  11114 06619 33/// /1901 11086 21086 38736 48419 52008 333 91102 91201;
0137066190999992010011112004+46833+006583FM-12+120299999V0209999C000019999999N9999999N1-00831-00831999999ADDMA1999999087321MD1810021+9999ME1314169OA149900151REMSYN076AAXX  11124 06619 33/// /0000 11083 21083 38732 48416 58002 333 91103 91202;
0137066190999992010011113004+46833+006583FM-12+120299999V0209999C000019999999N9999999N1-00831-00831999999ADDMA1999999087291MD1710071+9999ME1314139OA149900051REMSYN076AAXX  11134 06619 33/// /0000 11083 21083 38729 48413 57007 333 91101 91201;
0096066190999992010011114004+46833+006583FM-12+120299999V0201501N000519999999N9999999N1-00831-00831999999ADDMA1999999087311ME1314159REMSYN060AAXX  11144 06619 33/// /1501 11083 21083 38731 48415 5////;
0137066190999992010011115004+46833+006583FM-12+120299999V0209999C000019999999N9999999N1-00511-00641999999ADDMA1999999087341MD1310021+9999ME1314209OA149900151REMSYN076AAXX  11154 06619 33/// /0000 11051 21064 38734 48420 53002 333 91103 91201;
0137066190999992010011116004+46833+006583FM-12+120299999V0202801N000519999999N9999999N1-00621-00661999999ADDMA1999999087371MD1210081+9999ME1314229OA149900151REMSYN076AAXX  11164 06619 33/// /2801 11062 21066 38737 48422 52008 333 91103 91201;
0137066190999992010011117004+46833+006583FM-12+120299999V0203301N000519999999N9999999N1-00581-00691999999ADDMA1999999087401MD1210091+9999ME1314259OA149900151REMSYN076AAXX  11174 06619 33/// /3301 11058 21069 38740 48425 52009 333 91103 91201;
0156066190999992010011118004+46833+006583FM-12+120299999V0209999C000019999999N9999999N1-00641-00711999999ADDKA1120M-00461MA1999999087431MD1310091+9999ME1314279OA149900151REMSYN082AAXX  11184 06619 33/// /0000 11064 21071 38743 48427 53009 333 11046 91103 91201;
0137066190999992010011119004+46833+006583FM-12+120299999V0203201N000519999999N9999999N1-00761-00781999999ADDMA1999999087451MD1110081+9999ME1314289OA149900211REMSYN076AAXX  11194 06619 33/// /3201 11076 21078 38745 48428 51008 333 91104 91203;
0137066190999992010011120004+46833+006583FM-12+120299999V0209999C000019999999N9999999N1-00671-00691999999ADDMA1999999087471MD1210071+9999ME1314309OA149900211REMSYN076AAXX  11204 06619 33/// /0000 11067 21069 38747 48430 52007 333 91104 91203;
0137066190999992010011121004+46833+006583FM-12+120299999V0209999C000019999999N9999999N1-01021-01021999999ADDMA1999999087501MD1210071+9999ME1314309OA149900211REMSYN076AAXX  11214 06619 33/// /0000 11102 21102 38750 48430 52007 333 91104 91203;
0137066190999992010011122004+46833+006583FM-12+120299999V0203501N000519999999N9999999N1-00791-00791999999ADDMA1999999087501MD1210051+9999ME1314329OA149900151REMSYN076AAXX  11224 06619 33/// /3501 11079 21079 38750 48432 52005 333 91103 91201;
0137066190999992010011123004+46833+006583FM-12+120299999V0202101N000519999999N9999999N1-00731-00761999999ADDMA1999999087521MD1210051+9999ME1314349OA149900151REMSYN076AAXX  11234 06619 33/// /2101 11073 21076 38752 48434 52005 333 91103 91201;
0137066190999992010011200004+46833+006583FM-12+120299999V0203401N000519999999N9999999N1-00731-00771999999ADDMA1999999087491MD1010011+9999ME1314319OA149900211REMSYN076AAXX  12004 06619 33/// /3401 11073 21077 38749 48431 50001 333 91104 91203;
0137066190999992010011201004+46833+006583FM-12+120299999V0203301N000519999999N9999999N1-00761-00781999999ADDMA1999999087471MD1710031+9999ME1314299OA149900151REMSYN076AAXX  12014 06619 33/// /3301 11076 21078 38747 48429 57003 333 91103 91201;
0137066190999992010011202004+46833+006583FM-12+120299999V0209999C000019999999N9999999N1-00751-00781999999ADDMA1999999087471MD1719999+9999ME1314299OA149900151REMSYN076AAXX  12024 06619 33/// /0000 11075 21078 38747 48429 57/// 333 91103 91201;
0137066190999992010011203004+46833+006583FM-12+120299999V0209999C000019999999N9999999N1-00821-00821999999ADDMA1999999087471MD1710021+9999ME1314299OA149900151REMSYN076AAXX  12034 06619 33/// /0000 11082 21082 38747 48429 57002 333 91103 91201;
0137066190999992010011204004+46833+006583FM-12+120299999V0209999C000019999999N9999999N1-00811-00811999999ADDMA1999999087441MD1710031+9999ME1314269OA149900051REMSYN076AAXX  12044 06619 33/// /0000 11081 21081 38744 48426 57003 333 91101 91201;
0137066190999992010011205004+46833+006583FM-12+120299999V0209999C000519999999N9999999N1-00811-00811999999ADDMA1999999087421MD1710051+9999ME1314259OA149900051REMSYN076AAXX  12054 06619 33/// /0001 11081 21081 38742 48425 57005 333 91101 91201;
0234066190999992010011206004+46833+006583FM-12+120299999V0200401N000519999999N9999999N1-00831-00831999999ADDAA124000091AL19900091GJ101209IA2999-01509KA1999N-01021MA1999999087381MD1710091+9999ME1314219OA149900211REMSYN100AAXX  12064 06619 33/// /0401 11083 21083 38738 48421 57009 333 21102 3/115 55020 70000 91104 91203;EQDQ01  00002PRCP24
0137066190999992010011207004+46833+006583FM-12+120299999V0209999C000019999999N9999999N1-00931-00931999999ADDMA1999999087341MD1810101+9999ME1314169OA149900101REMSYN076AAXX  12074 06619 33/// /0000 11093 21093 38734 48416 58010 333 91102 91201;
0137066190999992010011208004+46833+006583FM-12+120299999V0200401N000519999999N9999999N1-00971-00971999999ADDMA1999999087301MD1819999+9999ME1314139OA149900151REMSYN076AAXX  12084 06619 33/// /0401 11097 21097 38730 48413 58/// 333 91103 91202;
0137066190999992010011209004+46833+006583FM-12+120299999V0209999C000019999999N9999999N1-00891-00891999999ADDMA1999999087261MD1810121+9999ME1314109OA149900211REMSYN076AAXX  12094 06619 33/// /0000 11089 21089 38726 48410 58012 333 91104 91203;
0137066190999992010011210004+46833+006583FM-12+120299999V0200801N000519999999N9999999N1-00861-00861999999ADDMA1999999087201MD1810141+9999ME1314059OA149900211REMSYN076AAXX  12104 06619 33/// /0801 11086 21086 38720 48405 58014 333 91104 91203;
0137066190999992010011211004+46833+006583FM-12+120299999V0201601N000519999999N9999999N1-00701-00701999999ADDMA1999999087141MD1810161+9999ME1314019OA149900211REMSYN076AAXX  12114 06619 33/// /1601 11070 21070 38714 48401 58016 333 91104 91201;
0137066190999992010011212004+46833+006583FM-12+120299999V0200701N000519999999N9999999N1-00751-00771999999ADDMA1999999087081MD1810181+9999ME1313959OA149900211REMSYN076AAXX  12124 06619 33/// /0701 11075 21077 38708 48395 58018 333 91104 91203;
0137066190999992010011213004+46833+006583FM-12+120299999V0201101N000519999999N9999999N1-00741-00741999999ADDMA1999999086981MD1810221+9999ME1313869OA149900151REMSYN076AAXX  12134 06619 33/// /1101 11074 21074 38698 48386 58022 333 91103 91202;
0096066190999992010011214004+46833+006583FM-12+120299999V0209999C000019999999N9999999N1-00771-00771999999ADDMA1999999086911ME1313809REMSYN060AAXX  12144 06619 33/// /0000 11077 21077 38691 48380 5////;
0137066190999992010011215004+46833+006583FM-12+120299999V0200701N000519999999N9999999N1-00881-00881999999ADDMA1999999086831MD1810251+9999ME1313729OA149900211REMSYN076AAXX  12154 06619 33/// /0701 11088 21088 38683 48372 58025 333 91104 91202;
0137066190999992010011216004+46833+006583FM-12+120299999V0200601N000519999999N9999999N1-00841-00841999999ADDMA1999999086781MD1810201+9999ME1313679OA149900101REMSYN076AAXX  12164 06619 33/// /0601 11084 21084 38678 48367 58020 333 91102 91201;
0137066190999992010011217004+46833+006583FM-12+120299999V0203301N000519999999N9999999N1-00841-00871999999ADDMA1999999086721MD1610191+9999ME1313629OA149900311REMSYN076AAXX  12174 06619 33/// /3301 11084 21087 38672 48362 56019 333 91106 91204;
0156066190999992010011218004+46833+006583FM-12+120299999V0202901N000519999999N9999999N1-00921-00921999999ADDKA1120M-00571MA1999999086701MD1710131+9999ME1313609OA149900311REMSYN082AAXX  12184 06619 33/// /2901 11092 21092 38670 48360 57013 333 11057 91106 91204;
0137066190999992010011219004+46833+006583FM-12+120299999V0209999C001019999999N9999999N1-00891-00921999999ADDMA1999999086691MD1710091+9999ME1313599OA149900151REMSYN076AAXX  12194 06619 33/// /0002 11089 21092 38669 48359 57009 333 91103 91202;
0137066190999992010011220004+46833+006583FM-12+120299999V0209999C000019999999N9999999N1-00751-00831999999ADDMA1999999086631MD1710091+9999ME1313559OA149900151REMSYN076AAXX  12204 06619 33/// /0000 11075 21083 38663 48355 57009 333 91103 91202;
0137066190999992010011221004+46833+006583FM-12+120299999V0200101N000519999999N9999999N1-00681-00761999999ADDMA1999999086591MD1710111+9999ME1313519OA149900311REMSYN076AAXX  12214 06619 33/// /0101 11068 21076 38659 48351 57011 333 91106 91204;
0137066190999992010011222004+46833+006583FM-12+120299999V0203301N000519999999N9999999N1-00551-00691999999ADDMA1999999086581MD1710111+9999ME1313519OA149900151REMSYN076AAXX  12224 06619 33/// /3301 11055 21069 38658 48351 57011 333 91103 91201;
0137066190999992010011223004+46833+006583FM-12+120299999V0202501N001019999999N9999999N1-00531-00661999999ADDMA1999999086631MD1410001+9999ME1313569OA149900261REMSYN076AAXX  12234 06619 33/// /2502 11053 21066 38663 48356 53000 333 91105 91202;
0137066190999992010011300004+46833+006583FM-12+120299999V0202001N001519999999N9999999N1-00571-00621999999ADDMA1999999086601MD1010011+9999ME1313539OA149900621REMSYN076AAXX  13004 06619 33/// /2003 11057 21062 38660 48353 50001 333 91112 91204;
0137066190999992010011301004+46833+006583FM-12+120299999V0202001N000519999999N9999999N1-00631-00631999999ADDMA1999999086591MD1010011+9999ME1313529OA149900621REMSYN076AAXX  13014 06619 33/// /2001 11063 21063 38659 48352 50001 333 91112 91204;
0137066190999992010011302004+46833+006583FM-12+120299999V0202001N001019999999N9999999N1-00471-00501999999ADDMA1999999086531MD1719999+9999ME1313479OA149900361REMSYN076AAXX  13024 06619 33/// /2002 11047 21050 38653 48347 57/// 333 91107 91204;
0137066190999992010011303004+46833+006583FM-12+120299999V0201701N001519999999N9999999N1-00451-00511999999ADDMA1999999086511MD1719999+9999ME1313459OA149900621REMSYN076AAXX  13034 06619 33/// /1703 11045 21051 38651 48345 57/// 333 91112 91204;
0137066190999992010011304004+46833+006583FM-12+120299999V0201601N000519999999N9999999N1-00481-00511999999ADDMA1999999086511MD1710081+9999ME1313459OA149900311REMSYN076AAXX  13044 06619 33/// /1601 11048 21051 38651 48345 57008 333 91106 91203;
0137066190999992010011305004+46833+006583FM-12+120299999V0203001N000519999999N9999999N1-00411-00521999999ADDMA1999999086521MD1510011+9999ME1313479OA149900311REMSYN076AAXX  13054 06619 33/// /3001 11041 21052 38652 48347 55001 333 91106 91203;
0234066190999992010011306004+46833+006583FM-12+120299999V0202201N000519999999N9999999N1-00411-00441999999ADDAA124000091AL19900091GJ100669IA2999-01309KA1999N-00941MA1999999086561MD1210051+9999ME1313509OA149900621REMSYN100AAXX  13064 06619 33/// /2201 11041 21044 38656 48350 52005 333 21094 3/113 55011 70000 91112 91204;EQDQ01  00002PRCP24
0137066190999992010011307004+46833+006583FM-12+120299999V0202201N002119999999N9999999N1-00331-00431999999ADDMA1999999086611MD1310101+9999ME1313559OA149900511REMSYN076AAXX  13074 06619 33/// /2204 11033 21043 38661 48355 53010 333 91110 91204;
0137066190999992010011308004+46833+006583FM-12+120299999V0202201N002119999999N9999999N1-00351-00421999999ADDMA1999999086681MD1310161+9999ME1313619OA149900511REMSYN076AAXX  13084 06619 33/// /2204 11035 21042 38668 48361 53016 333 91110 91204;
0137066190999992010011309004+46833+006583FM-12+120299999V0202101N002619999999N9999999N1-00321-00381999999ADDMA1999999086731MD1210171+9999ME1313669OA149900571REMSYN076AAXX  13094 06619 33/// /2105 11032 21038 38673 48366 52017 333 91111 91206;
0137066190999992010011310004+46833+006583FM-12+120299999V0202001N002119999999N9999999N1-00301-00361999999ADDMA1999999086781MD1110171+9999ME1313719OA149900571REMSYN076AAXX  13104 06619 33/// /2004 11030 21036 38678 48371 51017 333 91111 91206;
0137066190999992010011311004+46833+006583FM-12+120299999V0202201N002619999999N9999999N1-00221-00271999999ADDMA1999999086811MD1110131+9999ME1313749OA149900571REMSYN076AAXX  13114 06619 33/// /2205 11022 21027 38681 48374 51013 333 91111 91206;
0137066190999992010011312004+46833+006583FM-12+120299999V0202201N002619999999N9999999N1-00211-00271999999ADDMA1999999086811MD1210081+9999ME1313749OA149900571REMSYN076AAXX  13124 06619 33/// /2205 11021 21027 38681 48374 52008 333 91111 91206;
0137066190999992010011313004+46833+006583FM-12+120299999V0202101N001519999999N9999999N1-00231-00241999999ADDMA1999999086821MD1210041+9999ME1313759OA149900571REMSYN076AAXX  13134 06619 33/// /2103 11023 21024 38682 48375 52004 333 91111 91206;
0137066190999992010011314004+46833+006583FM-12+120299999V0202201N002119999999N9999999N1-00231-00231999999ADDMA1999999086851MD1219999+9999ME1313789OA149900411REMSYN076AAXX  13144 06619 33/// /2204 11023 21023 38685 48378 52/// 333 91108 91204;
0137066190999992010011315004+46833+006583FM-12+120299999V0202101N001019999999N9999999N1-00231-00251999999ADDMA1999999086891MD1210081+9999ME1313819OA149900571REMSYN076AAXX  13154 06619 43/// /2102 11023 21025 38689 48381 52008 333 91111 91206;
0137066190999992010011316004+46833+006583FM-12+120299999V0201901N001019999999N9999999N1-00211-00211999999ADDMA1999999086921MD1110101+9999ME1313849OA149900361REMSYN076AAXX  13164 06619 43/// /1902 11021 21021 38692 48384 51010 333 91107 91204;
0137066190999992010011317004+46833+006583FM-12+120299999V0202201N001519999999N9999999N1-00171-00181999999ADDMA1999999086961MD1110111+9999ME1313889OA149900311REMSYN076AAXX  13174 06619 43/// /2203 11017 21018 38696 48388 51011 333 91106 91203;
0156066190999992010011318004+46833+006583FM-12+120299999V0202101N001019999999N9999999N1-00161-00161999999ADDKA1120M-00161MA1999999086991MD1310101+9999ME1313919OA149900571REMSYN082AAXX  13184 06619 43/// /2102 11016 21016 38699 48391 53010 333 11016 91111 91206;
0137066190999992010011319004+46833+006583FM-12+120299999V0202401N000519999999N9999999N1-00191-00191999999ADDMA1999999086991MD1210071+9999ME1313919OA149900311REMSYN076AAXX  13194 06619 43/// /2401 11019 21019 38699 48391 52007 333 91106 91203;
0137066190999992010011320004+46833+006583FM-12+120299999V0202701N000519999999N9999999N1-00181-00221999999ADDMA1999999086991MD1010031+9999ME1313919OA149900311REMSYN076AAXX  13204 06619 43/// /2701 11018 21022 38699 48391 50003 333 91106 91203;
0137066190999992010011321004+46833+006583FM-12+120299999V0202501N001019999999N9999999N1-00211-00321999999ADDMA1999999086981MD1710011+9999ME1313909OA149900311REMSYN076AAXX  13214 06619 43/// /2502 11021 21032 38698 48390 57001 333 91106 91203;
0137066190999992010011322004+46833+006583FM-12+120299999V0202801N000519999999N9999999N1-00271-00331999999ADDMA1999999086931MD1710061+9999ME1313859OA149900261REMSYN076AAXX  13224 06619 43/// /2801 11027 21033 38693 48385 57006 333 91105 91202;
0137066190999992010011323004+46833+006583FM-12+120299999V0202301N000519999999N9999999N1-00271-00371999999ADDMA1999999086901MD1710091+9999ME1313829OA149900151REMSYN076AAXX  13234 06619 43/// /2301 11027 21037 38690 48382 57009 333 91103 91202;
0137066190999992010011400004+46833+006583FM-12+120299999V0203501N000519999999N9999999N1-00351-00421999999ADDMA1999999086821MD1710161+9999ME1313749OA149900411REMSYN076AAXX  14004 06619 43/// /3501 11035 21042 38682 48374 57016 333 91108 91204;
0137066190999992010011401004+46833+006583FM-12+120299999V0202201N000519999999N9999999N1-00281-00331999999ADDMA1999999086801MD1710131+9999ME1313739OA149900151REMSYN076AAXX  14014 06619 43/// /2201 11028 21033 38680 48373 57013 333 91103 91201;
0137066190999992010011402004+46833+006583FM-12+120299999V0201901N001019999999N9999999N1-00281-00281999999ADDMA1999999086801MD1719999+9999ME1313739OA149900211REMSYN076AAXX  14024 06619 43/// /1902 11028 21028 38680 48373 57/// 333 91104 91202;
0096066190999992010011403004+46833+006583FM-12+120299999V0201701N000519999999N9999999N1-00291-00291999999ADDMA1999999086771ME1313709REMSYN060AAXX  14034 06619 43/// /1701 11029 21029 38677 48370 5////;
0137066190999992010011404004+46833+006583FM-12+120299999V0200901N000519999999N9999999N1-00261-00321999999ADDMA1999999086711MD1810091+9999ME1313659OA149900211REMSYN076AAXX  14044 06619 43/// /0901 11026 21032 38671 48365 58009 333 91104 91203;
0137066190999992010011405004+46833+006583FM-12+120299999V0201501N000519999999N9999999N1-00251-00311999999ADDMA1999999086691MD1810111+9999ME1313639OA149900151REMSYN076AAXX  14054 06619 43/// /1501 11025 21031 38669 48363 58011 333 91103 91202;
0188066190999992010011406004+46833+006583FM-12+120299999V0200801N000519999999N9999999N1-00301-00321999999ADDGJ100009IA2999-01109KA1999N-00411MA1999999086661MD1610111+9999ME1313609OA149900311REMSYN094AAXX  14064 06619 43/// /0801 11030 21032 38666 48360 56011 333 21041 3/111 55000 91106 91203;
0137066190999992010011407004+46833+006583FM-12+120299999V0200601N001019999999N9999999N1-00331-00341999999ADDMA1999999086631MD1610081+9999ME1313579OA149900211REMSYN076AAXX  14074 06619 43/// /0602 11033 21034 38663 48357 56008 333 91104 91202;
0137066190999992010011408004+46833+006583FM-12+120299999V0200701N000519999999N9999999N1-00341-00341999999ADDMA1999999086631MD1619999+9999ME1313579OA149900261REMSYN076AAXX  14084 06619 43/// /0701 11034 21034 38663 48357 56/// 333 91105 91203;
0137066190999992010011409004+46833+006583FM-12+120299999V0209999C000019999999N9999999N1-00341-00341999999ADDMA1999999086601MD1710061+9999ME1313549OA149900261REMSYN076AAXX  14094 06619 43/// /0000 11034 21034 38660 48354 57006 333 91105 91203;
0137066190999992010011410004+46833+006583FM-12+120299999V0202101N000519999999N9999999N1-00391-00391999999ADDMA1999999086621MD1510011+9999ME1313569OA149900151REMSYN076AAXX  14104 06619 43/// /2101 11039 21039 38662 48356 55001 333 91103 91202;
0137066190999992010011411004+46833+006583FM-12+120299999V0203101N000519999999N9999999N1-00121-00351999999ADDMA1999999086611MD1510021+9999ME1313569OA149900151REMSYN076AAXX  14114 06619 43/// /3101 11012 21035 38661 48356 55002 333 91103 91201;
0137066190999992010011412004+46833+006583FM-12+120299999V0203601N001019999999N9999999N1-00081-00291999999ADDMA1999999086591MD1710011+9999ME1313559OA149900261REMSYN076AAXX  14124 06619 43/// /3602 11008 21029 38659 48355 57001 333 91105 91203;
0137066190999992010011413004+46833+006583FM-12+120299999V0203201N000519999999N9999999N1-00051-00411999999ADDMA1999999086581MD1710041+9999ME1313549OA149900211REMSYN076AAXX  14134 06619 43/// /3201 11005 21041 38658 48354 57004 333 91104 91203;
0137066190999992010011414004+46833+006583FM-12+120299999V0202501N000519999999N9999999N1-00061-00361999999ADDMA1999999086571MD1610041+9999ME1313539OA149900151REMSYN076AAXX  14144 06619 43/// /2501 11006 21036 38657 48353 56004 333 91103 91203;
0137066190999992010011415004+46833+006583FM-12+120299999V0202501N000519999999N9999999N1-00111-00391999999ADDMA1999999086571MD1610021+9999ME1313539OA149900211REMSYN076AAXX  14154 06619 43/// /2501 11011 21039 38657 48353 56002 333 91104 91203;
0137066190999992010011416004+46833+006583FM-12+120299999V0203201N000519999999N9999999N1-00131-00311999999ADDMA1999999086611MD1310031+9999ME1313569OA149900211REMSYN076AAXX  14164 06619 43/// /3201 11013 21031 38661 48356 53003 333 91104 91202;
0137066190999992010011417004+46833+006583FM-12+120299999V0203201N001019999999N9999999N1-00131-00391999999ADDMA1999999086671MD1310101+9999ME1313629OA149900311REMSYN076AAXX  14174 06619 43/// /3202 11013 21039 38667 48362 53010 333 91106 91203;
0156066190999992010011418004+46833+006583FM-12+120299999V0202801N001019999999N9999999N1-00131-00411999999ADDKA1120M+00051MA1999999086751MD1310181+9999ME1313699OA149900311REMSYN082AAXX  14184 06619 43/// /2802 11013 21041 38675 48369 53018 333 10005 91106 91203;
0137066190999992010011419004+46833+006583FM-12+120299999V0203001N001019999999N9999999N1-00131-00431999999ADDMA1999999086841MD1310231+9999ME1313779OA149900311REMSYN076AAXX  14194 06619 43/// /3002 11013 21043 38684 48377 53023 333 91106 91203;
0137066190999992010011420004+46833+006583FM-12+120299999V0202301N001019999999N9999999N1+00011-00661999999ADDMA1999999086921MD1210251+9999ME1313869OA149900311REMSYN076AAXX  14204 06619 43/// /2302 10001 21066 38692 48386 52025 333 91106 91203;
0137066190999992010011421004+46833+006583FM-12+120299999V0200201N001019999999N9999999N1-00191-00421999999ADDMA1999999087001MD1210251+9999ME1313929OA149900311REMSYN076AAXX  14214 06619 43/// /0202 11019 21042 38700 48392 52025 333 91106 91203;
0137066190999992010011422004+46833+006583FM-12+120299999V0209999C000019999999N9999999N1-00401-00401999999ADDMA1999999087081MD1110241+9999ME1313979OA149900151REMSYN076AAXX  14224 06619 43/// /0000 11040 21040 38708 48397 51024 333 91103 91202;
0137066190999992010011423004+46833+006583FM-12+120299999V0209999C000019999999N9999999N1-00371-00381999999ADDMA1999999087151MD1210231+9999ME1314049OA149900151REMSYN076AAXX  14234 06619 43/// /0000 11037 21038 38715 48404 52023 333 91103 91202;
0137066190999992010011500004+46833+006583FM-12+120299999V0202901N001019999999N9999999N1-00151-00411999999ADDMA1999999087211MD1110211+9999ME1314119OA149900311REMSYN076AAXX  15004 06619 43/// /2902 11015 21041 38721 48411 51021 333 91106 91203;
0137066190999992010011501004+46833+006583FM-12+120299999V0209999C000019999999N9999999N1-00241-00431999999ADDMA1999999087251MD1110171+9999ME1314149OA149900211REMSYN076AAXX  15014 06619 43/// /0000 11024 21043 38725 48414 51017 333 91104 91202;
0137066190999992010011502004+46833+006583FM-12+120299999V0202501N002119999999N9999999N1-00221-00421999999ADDMA1999999087331MD1310181+9999ME1314219OA149900411REMSYN076AAXX  15024 06619 43/// /2504 11022 21042 38733 48421 53018 333 91108 91204;
0096066190999992010011503004+46833+006583FM-12+120299999V0202401N001519999999N9999999N1-00221-00261999999ADDMA1999999087391ME1314279REMSYN060AAXX  15034 06619 43/// /2403 11022 21026 38739 48427 5////;
0137066190999992010011504004+46833+006583FM-12+120299999V0201001N000519999999N9999999N1-00341-00341999999ADDMA1999999087461MD1110211+9999ME1314329OA149900621REMSYN076AAXX  15044 06619 43/// /1001 11034 21034 38746 48432 51021 333 91112 91205;
0137066190999992010011505004+46833+006583FM-12+120299999V0202101N000519999999N9999999N1-00221-00221999999ADDMA1999999087541MD1310211+9999ME1314409OA149900621REMSYN076AAXX  15054 06619 43/// /2101 11022 21022 38754 48440 53021 333 91112 91205;
0188066190999992010011506004+46833+006583FM-12+120299999V0203501N001019999999N9999999N1-00181-00261999999ADDGJ100009IA2999-00509KA1999N-00461MA1999999087641MD1310251+9999ME1314509OA149900621REMSYN094AAXX  15064 06619 43/// /3502 11018 21026 38764 48450 53025 333 21046 3/105 55000 91112 91205;
0137066190999992010011507004+46833+006583FM-12+120299999V0203401N001019999999N9999999N1-00151-00341999999ADDMA1999999087731MD1310271+9999ME1314589OA149900261REMSYN076AAXX  15074 06619 43/// /3402 11015 21034 38773 48458 53027 333 91105 91203;
0137066190999992010011508004+46833+006583FM-12+120299999V0203401N000519999999N9999999N1-00261-00361999999ADDMA1999999087821MD1119999+9999ME1314659OA149900261REMSYN076AAXX  15084 06619 43/// /3401 11026 21036 38782 48465 51/// 333 91105 91203;
0137066190999992010011509004+46833+006583FM-12+120299999V0200101N000519999999N9999999N1-00041-00261999999ADDMA1999999087891MD1210251+9999ME1314749OA149900621REMSYN076AAXX  15094 06619 43/// /0101 11004 21026 38789 48474 52025 333 91112 91205;
0137066190999992010011510004+46833+006583FM-12+120299999V0200801N001019999999N9999999N1+00071-00431999999ADDMA1999999087961MD1210231+9999ME1314819OA149900211REMSYN076AAXX  15104 06619 43/// /0802 10007 21043 38796 48481 52023 333 91104 91202;
0137066190999992010011511004+46833+006583FM-12+120299999V0201001N000519999999N9999999N1+00031-00081999999ADDMA1999999087991MD1210171+9999ME1314839OA149900211REMSYN076AAXX  15114 06619 43/// /1001 10003 21008 38799 48483 52017 333 91104 91202;
0137066190999992010011512004+46833+006583FM-12+120299999V0209999C000019999999N9999999N1+00151-00231999999ADDMA1999999088031MD1210141+9999ME1314889OA149900621REMSYN076AAXX  15124 06619 43/// /0000 10015 21023 38803 48488 52014 333 91112 91205;
0137066190999992010011513004+46833+006583FM-12+120299999V0202701N000519999999N9999999N1+00191-00251999999ADDMA1999999088071MD1210111+9999ME1314929OA149900411REMSYN076AAXX  15134 06619 43/// /2701 10019 21025 38807 48492 52011 333 91108 91202;
0137066190999992010011514004+46833+006583FM-12+120299999V0200301N001019999999N9999999N1+00161-00301999999ADDMA1999999088121MD1310131+9999ME1314979OA149900461REMSYN076AAXX  15144 06619 43/// /0302 10016 21030 38812 48497 53013 333 91109 91202;
0137066190999992010011515004+46833+006583FM-12+120299999V0200701N001019999999N9999999N1+00041-00391999999ADDMA1999999088171MD1310141+9999ME1315009OA149900461REMSYN076AAXX  15154 06619 43/// /0702 10004 21039 38817 48500 53014 333 91109 91203;
0137066190999992010011516004+46833+006583FM-12+120299999V0200101N001519999999N9999999N1-00041-00341999999ADDMA1999999088211MD1310141+9999ME1315039OA149900361REMSYN076AAXX  15164 06619 43/// /0103 11004 21034 38821 48503 53014 333 91107 91203;
0137066190999992010011517004+46833+006583FM-12+120299999V0200301N002119999999N9999999N1-00021-00461999999ADDMA1999999088251MD1110131+9999ME1315069OA149900511REMSYN076AAXX  15174 06619 43/// /0304 11002 21046 38825 48506 51013 333 91110 91204;
0156066190999992010011518004+46833+006583FM-12+120299999V0203601N002619999999N9999999N1-00111-00361999999ADDKA1120M+00221MA1999999088271MD1110101+9999ME1315079OA149900571REMSYN082AAXX  15184 06619 43/// /3605 11011 21036 38827 48507 51010 333 10022 91111 91207;
0137066190999992010011519004+46833+006583FM-12+120299999V0209999C002619999999N9999999N1-00161-00421999999ADDMA1999999088281MD1110071+9999ME1315079OA149900571REMSYN076AAXX  15194 06619 43/// /0005 11016 21042 38828 48507 51007 333 91111 91207;
0137066190999992010011520004+46833+006583FM-12+120299999V0200101N002119999999N9999999N1-00221-00471999999ADDMA1999999088271MD1210021+9999ME1315069OA149900411REMSYN076AAXX  15204 06619 43/// /0104 11022 21047 38827 48506 52002 333 91108 91205;
0137066190999992010011521004+46833+006583FM-12+120299999V0203501N001519999999N9999999N1-00191-00461999999ADDMA1999999088261MD1710011+9999ME1315059OA149900571REMSYN076AAXX  15214 06619 43/// /3503 11019 21046 38826 48505 57001 333 91111 91207;
0137066190999992010011522004+46833+006583FM-12+120299999V0203601N001519999999N9999999N1-00281-00431999999ADDMA1999999088281MD1510001+9999ME1315069OA149900261REMSYN076AAXX  15224 06619 43/// /3603 11028 21043 38828 48506 55000 333 91105 91204;
0137066190999992010011523004+46833+006583FM-12+120299999V0209999C000019999999N9999999N1-00281-00521999999ADDMA1999999088291MD1210021+9999ME1315079OA149900261REMSYN076AAXX  15234 06619 43/// /0000 11028 21052 38829 48507 52002 333 91105 91204;
0137066190999992010011600004+46833+006583FM-12+120299999V0203301N000519999999N9999999N1-00291-00431999999ADDMA1999999088271MD1010011+9999ME1315059OA149900571REMSYN076AAXX  16004 06619 43/// /3301 11029 21043 38827 48505 50001 333 91111 91207;
0137066190999992010011601004+46833+006583FM-12+120299999V0203301N000519999999N9999999N1-00321-00411999999ADDMA1999999088241MD1810041+9999ME1315029OA149900101REMSYN076AAXX  16014 06619 43/// /3301 11032 21041 38824 48502 58004 333 91102 91201;
0137066190999992010011602004+46833+006583FM-12+120299999V0203001N000519999999N9999999N1-00331-00471999999ADDMA1999999088241MD1710051+9999ME1315029OA149900101REMSYN076AAXX  16024 06619 43/// /3001 11033 21047 38824 48502 57005 333 91102 91202;
0137066190999992010011603004+46833+006583FM-12+120299999V0202701N001519999999N9999999N1-00201-00621999999ADDMA1999999088211MD1719999+9999ME1315019OA149900311REMSYN076AAXX  16034 06619 43/// /2703 11020 21062 38821 48501 57/// 333 91106 91204;
0137066190999992010011604004+46833+006583FM-12+120299999V0203501N001019999999N9999999N1-00321-00581999999ADDMA1999999088161MD1710081+9999ME1314959OA149900361REMSYN076AAXX  16044 06619 43/// /3502 11032 21058 38816 48495 57008 333 91107 91204;
0137066190999992010011605004+46833+006583FM-12+120299999V0203601N002119999999N9999999N1-00381-00561999999ADDMA1999999088081MD1810161+9999ME1314879OA149900361REMSYN076AAXX  16054 06619 43/// /3604 11038 21056 38808 48487 58016 333 91107 91204;
0188066190999992010011606004+46833+006583FM-12+120299999V0209999C000019999999N9999999N1-00361-00631999999ADDGJ103009IA2999-01209KA1999N-00681MA1999999088071MD1710141+9999ME1314879OA149900411REMSYN094AAXX  16064 06619 43/// /0000 11036 21063 38807 48487 57014 333 21068 3/112 55050 91108 91205;
0137066190999992010011607004+46833+006583FM-12+120299999V0200801N000519999999N9999999N1-00421-00701999999ADDMA1999999088031MD1710131+9999ME1314829OA149900311REMSYN076AAXX  16074 06619 43/// /0801 11042 21070 38803 48482 57013 333 91106 91203;
0137066190999992010011608004+46833+006583FM-12+120299999V0200601N000519999999N9999999N1-00311-00571999999ADDMA1999999088001MD1710081+9999ME1314819OA149900311REMSYN076AAXX  16084 06619 43/// /0601 11031 21057 38800 48481 57008 333 91106 91203;
0137066190999992010011609004+46833+006583FM-12+120299999V0202101N000519999999N9999999N1-00091-00541999999ADDMA1999999087941MD1610131+9999ME1314789OA149900361REMSYN076AAXX  16094 06619 43/// /2101 11009 21054 38794 48478 56013 333 91107 91204;
0137066190999992010011610004+46833+006583FM-12+120299999V0201901N000519999999N9999999N1+00021-00651999999ADDMA1999999087951MD1710081+9999ME1314809OA149900261REMSYN076AAXX  16104 06619 43/// /1901 10002 21065 38795 48480 57008 333 91105 91202;
0137066190999992010011611004+46833+006583FM-12+120299999V0201901N000519999999N9999999N1-00061-00631999999ADDMA1999999087951MD1710051+9999ME1314799OA149900211REMSYN076AAXX  16114 06619 43/// /1901 11006 21063 38795 48479 57005 333 91104 91202;
0137066190999992010011612004+46833+006583FM-12+120299999V0200801N000519999999N9999999N1-00081-00621999999ADDMA1999999087911MD1810031+9999ME1314759OA149900361REMSYN076AAXX  16124 06619 43/// /0801 11008 21062 38791 48475 58003 333 91107 91204;
0137066190999992010011613004+46833+006583FM-12+120299999V0202001N002119999999N9999999N1-00011-00551999999ADDMA1999999087851MD1710101+9999ME1314709OA149900621REMSYN076AAXX  16134 06619 43/// /2004 11001 21055 38785 48470 57010 333 91112 91205;
0137066190999992010011614004+46833+006583FM-12+120299999V0202501N002619999999N9999999N1+00231-00511999999ADDMA1999999087791MD1719999+9999ME1314679OA149900771REMSYN076AAXX  16144 06619 43/// /2505 10023 21051 38779 48467 57/// 333 91115 91206;
0137066190999992010011615004+46833+006583FM-12+120299999V0202501N002619999999N9999999N1+00231-00471999999ADDMA1999999087771MD1710141+9999ME1314659OA149900881REMSYN076AAXX  16154 06619 43/// /2505 10023 21047 38777 48465 57014 333 91117 91207;
0137066190999992010011616004+46833+006583FM-12+120299999V0202601N001019999999N9999999N1+00251-00411999999ADDMA1999999087771MD1710081+9999ME1314669OA149900881REMSYN076AAXX  16164 06619 43/// /2602 10025 21041 38777 48466 57008 333 91117 91207;
0137066190999992010011617004+46833+006583FM-12+120299999V0202301N004619999999N9999999N1+00161-00101999999ADDMA1999999087811MD1310021+9999ME1314689OA149901131REMSYN076AAXX  16174 06619 43/// /2309 10016 21010 38781 48468 53002 333 91122 91209;
0156066190999992010011618004+46833+006583FM-12+120299999V0202101N005119999999N9999999N1-00111-00131999999ADDKA1120M+00281MA1999999087801MD1210031+9999ME1314659OA149901341REMSYN082AAXX  16184 06619 43/// /2110 11011 21013 38780 48465 52003 333 10028 91126 91212;
0137066190999992010011619004+46833+006583FM-12+120299999V0202101N005719999999N9999999N1-00031-00051999999ADDMA1999999087801MD1010031+9999ME1314669OA149901341REMSYN076AAXX  16194 06619 43/// /2111 11003 21005 38780 48466 50003 333 91126 91213;
0137066190999992010011620004+46833+006583FM-12+120299999V0202001N006219999999N9999999N1-00031-00031999999ADDMA1999999087751MD1710061+9999ME1314619OA149901341REMSYN076AAXX  16204 06619 43/// /2012 11003 21003 38775 48461 57006 333 91126 91214;
0137066190999992010011621004+46833+006583FM-12+120299999V0202101N004119999999N9999999N1-00011-00021999999ADDMA1999999087721MD1710081+9999ME1314599OA149901341REMSYN076AAXX  16214 06619 43/// /2108 11001 21002 38772 48459 57008 333 91126 91214;
0137066190999992010011622004+46833+006583FM-12+120299999V0202201N003119999999N9999999N1+00021-00011999999ADDMA1999999087761MD1510041+9999ME1314629OA149901291REMSYN076AAXX  16224 06619 43/// /2206 10002 21001 38776 48462 55004 333 91125 91213;
0137066190999992010011623004+46833+006583FM-12+120299999V0201901N002119999999N9999999N1+00011+00001999999ADDMA1999999087821MD1210071+9999ME1314689OA149901081REMSYN076AAXX  16234 06619 43/// /1904 10001 20000 38782 48468 52007 333 91121 91210;
0137066190999992010011700004+46833+006583FM-12+120299999V0201601N002119999999N9999999N1-00041-00041999999ADDMA1999999087831MD1210111+9999ME1314689OA149901341REMSYN076AAXX  17004 06619 43/// /1604 11004 21004 38783 48468 52011 333 91126 91214;
0137066190999992010011701004+46833+006583FM-12+120299999V0201901N002119999999N9999999N1-00081-00081999999ADDMA1999999087821MD1210061+9999ME1314679OA149900511REMSYN076AAXX  17014 06619 43/// /1904 11008 21008 38782 48467 52006 333 91110 91205;
0137066190999992010011702004+46833+006583FM-12+120299999V0202101N002619999999N9999999N1-00041-00051999999ADDMA1999999087801MD1719999+9999ME1314669OA149900881REMSYN076AAXX  17024 06619 43/// /2105 11004 21005 38780 48466 57/// 333 91117 91208;
0096066190999992010011703004+46833+006583FM-12+120299999V0202001N001519999999N9999999N1+00021+00001999999ADDMA1999999087781ME1314649REMSYN060AAXX  17034 06619 43/// /2003 10002 20000 38778 48464 5////;
0137066190999992010011704004+46833+006583FM-12+120299999V0202201N003119999999N9999999N1+00071+00041999999ADDMA1999999087771MD1710051+9999ME1314649OA149900821REMSYN076AAXX  17044 06619 43/// /2206 10007 20004 38777 48464 57005 333 91116 91206;
0137066190999992010011705004+46833+006583FM-12+120299999V0202101N003619999999N9999999N1+00041+00041999999ADDMA1999999087771MD1719999+9999ME1314649OA149900821REMSYN076AAXX  17054 06619 43/// /2107 10004 20004 38777 48464 57/// 333 91116 91207;
0188066190999992010011706004+46833+006583FM-12+120299999V0202101N001519999999N9999999N1+00031+00031999999ADDGJ101209IA2999-00109KA1999N-00151MA1999999087791MD1210011+9999ME1314659OA149901341REMSYN094AAXX  17064 06619 43/// /2103 10003 20003 38779 48465 52001 333 21015 3/101 55020 91126 91214;
0137066190999992010011707004+46833+006583FM-12+120299999V0202201N002119999999N9999999N1+00071+00051999999ADDMA1999999087851MD1310081+9999ME1314719OA149900511REMSYN076AAXX  17074 06619 43/// /2204 10007 20005 38785 48471 53008 333 91110 91206;
0137066190999992010011708004+46833+006583FM-12+120299999V0202601N002119999999N9999999N1+00071-00021999999ADDMA1999999087951MD1219999+9999ME1314809OA149901031REMSYN076AAXX  17084 06619 43/// /2604 10007 21002 38795 48480 52/// 333 91120 91208;
0137066190999992010011709004+46833+006583FM-12+120299999V0202601N002619999999N9999999N1+00041-00061999999ADDMA1999999088051MD1310261+9999ME1314899OA149901031REMSYN076AAXX  17094 06619 43/// /2605 10004 21006 38805 48489 53026 333 91120 91208;
0137066190999992010011710004+46833+006583FM-12+120299999V0202501N002619999999N9999999N1+00081-00191999999ADDMA1999999088111MD1210261+9999ME1314959OA149900981REMSYN076AAXX  17104 06619 43/// /2505 10008 21019 38811 48495 52026 333 91119 91205;
0137066190999992010011711004+46833+006583FM-12+120299999V0202601N002619999999N9999999N1+00011-00131999999ADDMA1999999088211MD1310261+9999ME1315039OA149900981REMSYN076AAXX  17114 06619 43/// /2605 10001 21013 38821 48503 53026 333 91119 91205;
0137066190999992010011712004+46833+006583FM-12+120299999V0202501N002619999999N9999999N1+00041-00171999999ADDMA1999999088221MD1210171+9999ME1315049OA149901031REMSYN076AAXX  17124 06619 43/// /2505 10004 21017 38822 48504 52017 333 91120 91208;
0137066190999992010011713004+46833+006583FM-12+120299999V0202501N002619999999N9999999N1+00061-00191999999ADDMA1999999088231MD1210121+9999ME1315059OA149900931REMSYN076AAXX  17134 06619 43/// /2505 10006 21019 38823 48505 52012 333 91118 91206;
0137066190999992010011714004+46833+006583FM-12+120299999V0202301N002119999999N9999999N1+00031-00241999999ADDMA1999999088261MD1219999+9999ME1315089OA149900881REMSYN076AAXX  17144 06619 43/// /2304 10003 21024 38826 48508 52/// 333 91117 91206;
0137066190999992010011715004+46833+006583FM-12+120299999V0200101N001019999999N9999999N1+00001-00231999999ADDMA1999999088341MD1210121+9999ME1315159OA149900981REMSYN076AAXX  17154 06619 43/// /0102 10000 21023 38834 48515 52012 333 91119 91206;
0137066190999992010011716004+46833+006583FM-12+120299999V0202901N000519999999N9999999N1-00061-00251999999ADDMA1999999088411MD1210181+9999ME1315209OA149900721REMSYN076AAXX  17164 06619 43/// /2901 11006 21025 38841 48520 52018 333 91114 91204;
0137066190999992010011717004+46833+006583FM-12+120299999V0200101N001019999999N9999999N1-00091-00251999999ADDMA1999999088441MD1110181+9999ME1315239OA149900671REMSYN076AAXX  17174 06619 43/// /0102 11009 21025 38844 48523 51018 333 91113 91203;
0156066190999992010011718004+46833+006583FM-12+120299999V0200301N000519999999N9999999N1-00121-00291999999ADDKA1120M+00121MA1999999088481MD1210141+9999ME1315269OA149901031REMSYN082AAXX  17184 06619 43/// /0301 11012 21029 38848 48526 52014 333 10012 91120 91208;
0137066190999992010011719004+46833+006583FM-12+120299999V0203401N001519999999N9999999N1-00111-00301999999ADDMA1999999088541MD1210131+9999ME1315319OA149900571REMSYN076AAXX  17194 06619 43/// /3403 11011 21030 38854 48531 52013 333 91111 91204;
0137066190999992010011720004+46833+006583FM-12+120299999V0203501N001019999999N9999999N1-00121-00301999999ADDMA1999999088551MD1210111+9999ME1315329OA149900461REMSYN076AAXX  17204 06619 43/// /3502 11012 21030 38855 48532 52011 333 91109 91204;
0137066190999992010011721004+46833+006583FM-12+120299999V0200201N001019999999N9999999N1-00081-00401999999ADDMA1999999088551MD1210071+9999ME1315339OA149900671REMSYN076AAXX  17214 06619 43/// /0202 11008 21040 38855 48533 52007 333 91113 91204;
