0149066190999992011010100004+46833+006583FM-12+120299999V0203401N001019999999N9999999N1-00261-00311999999ADDMA1999999088141MD1810071+9999ME1314949OA149900261REMSYN088AAXX  01004 06619 33/// /3402 11026 21031 38814 48494 58007 333 55300 20007 91105 91204;
0149066190999992011010101004+46833+006583FM-12+120299999V0202701N000519999999N9999999N1-00281-00331999999ADDMA1999999088131MD1710061+9999ME1314929OA149900211REMSYN088AAXX  01014 06619 33/// /2701 11028 21033 38813 48492 57006 333 55300 20007 91104 91203;
0149066190999992011010102004+46833+006583FM-12+120299999V0202601N001019999999N9999999N1-00241-00301999999ADDMA1999999088111MD1710071+9999ME1314919OA149900211REMSYN088AAXX  01024 06619 33/// /2602 11024 21030 38811 48491 57007 333 55300 20007 91104 91203;
0149066190999992011010103004+46833+006583FM-12+120299999V0203001N001019999999N9999999N1-00271-00331999999ADDMA1999999088101MD1710041+9999ME1314909OA149900261REMSYN088AAXX  01034 06619 33/// /3002 11027 21033 38810 48490 57004 333 55300 20007 91105 91204;
0149066190999992011010104004+46833+006583FM-12+120299999V0203101N001019999999N9999999N1-00281-00331999999ADDMA1999999088081MD1610051+9999ME1314889OA149900151REMSYN088AAXX  01044 06619 33/// /3102 11028 21033 38808 48488 56005 333 55300 20011 91103 91202;
0149066190999992011010105004+46833+006583FM-12+120299999V0202901N000519999999N9999999N1-00341-00371999999ADDMA1999999088071MD1610041+9999ME1314869OA149900151REMSYN088AAXX  01054 06619 33/// /2901 11034 21037 38807 48486 56004 333 55300 20007 91103 91202;
0216066190999992011010106004+46833+006583FM-12+120299999V0202601N000519999999N9999999N1-00411-00411999999ADDAL19900091GJ100189IA2999-00909KA1999N-00501MA1999999088081MD1510021+9999ME1314879OA149900261REMSYN112AAXX  01064 06619 33/// /2601 11041 21041 38808 48487 55002 333 21050 3/109 55003 55300 20007 70000 91105 91204;
0168066190999992011010107004+46833+006583FM-12+120299999V0200301N000519999999N9999999N1-00381-00381999999ADDMA1999999088081MD1410001+9999ME1314879OA149900151REMSYN088AAXX  01074 06619 33/// /0301 11038 21038 38808 48487 52000 333 55300 20007 91103 91201;EQDQ01+000022APCTEN
0149066190999992011010108004+46833+006583FM-12+120299999V0203601N001019999999N9999999N1-00301-00451999999ADDMA1999999088091MD1219999+9999ME1314899OA149900261REMSYN088AAXX  01084 06619 33/// /3602 11030 21045 38809 48489 52/// 333 55303 20072 91105 91203;
0096066190999992011010109004+46833+006583FM-12+120299999V0201901N000519999999N9999999N1-00331-00351999999ADDMA1999999088091ME1314889REMSYN060AAXX  01094 06619 43/// /1901 11033 21035 38809 48488 5////;
0096066190999992011010110004+46833+006583FM-12+120299999V0202401N001019999999N9999999N1-00241-00291999999ADDMA1999999088081ME1314889REMSYN060AAXX  01104 06619 43/// /2402 11024 21029 38808 48488 5////;
0149066190999992011010111004+46833+006583FM-12+120299999V0202301N001019999999N9999999N1-00131-00231999999ADDMA1999999088051MD1710041+9999ME1314879OA149900311REMSYN088AAXX  01114 06619 33/// /2302 11013 21023 38805 48487 57004 333 55309 2//// 91106 91202;
0096066190999992011010112004+46833+006583FM-12+120299999V0202401N001019999999N9999999N1+00031-00231999999ADDMA1999999088001ME1314849REMSYN060AAXX  01124 06619 43/// /2402 10003 21023 38800 48484 5////;
0096066190999992011010113004+46833+006583FM-12+120299999V0209999C000019999999N9999999N1+00121-00271999999ADDMA1999999087951ME1314819REMSYN060AAXX  01134 06619 43/// /0000 10012 21027 38795 48481 5////;
0096066190999992011010114004+46833+006583FM-12+120299999V0200301N001019999999N9999999N1+00191-00341999999ADDMA1999999087931ME1314799REMSYN060AAXX  01144 06619 43/// /0302 10019 21034 38793 48479 5////;
0096066190999992011010115004+46833+006583FM-12+120299999V0200401N001019999999N9999999N1+00091-00351999999ADDMA1999999087931ME1314789REMSYN060AAXX  01154 06619 43/// /0402 10009 21035 38793 48478 5////;
0096066190999992011010116004+46833+006583FM-12+120299999V0203201N001519999999N9999999N1+00081-00381999999ADDMA1999999087911ME1314769REMSYN060AAXX  01164 06619 43/// /3203 10008 21038 38791 48476 5////;
0096066190999992011010117004+46833+006583FM-12+120299999V0203501N001019999999N9999999N1-00061-00441999999ADDMA1999999087891ME1314739REMSYN060AAXX  01174 06619 43/// /3502 11006 21044 38789 48473 5////;
0096066190999992011010118004+46833+006583FM-12+120299999V0200101N002119999999N9999999N1-00151-00411999999ADDMA1999999087881ME1314719REMSYN060AAXX  01184 06619 43/// /0104 11015 21041 38788 48471 5////;
0112066190999992011010119004+46833+006583FM-12+120299999V0200701N000519999999N9999999N1-00301-00441999999ADDMA1999999087871ME1314699REMSYN076AAXX  01194 06619 33/// /0701 11030 21044 38787 48469 5//// 333 553// 20011;
0149066190999992011010120004+46833+006583FM-12+120299999V0203501N001519999999N9999999N1-00451-00451999999ADDMA1999999087881MD1510011+9999ME1314689OA149900461REMSYN088AAXX  01204 06619 33/// /3503 11045 21045 38788 48468 55001 333 55300 20007 91109 91205;
0149066190999992011010121004+46833+006583FM-12+120299999V0202201N000519999999N9999999N1-00431-00431999999ADDMA1999999087891MD1210011+9999ME1314709OA149900671REMSYN088AAXX  01214 06619 33/// /2201 11043 21043 38789 48470 52001 333 55300 20007 91113 91206;
0149066190999992011010122004+46833+006583FM-12+120299999V0202901N000519999999N9999999N1-00471-00471999999ADDMA1999999087851MD1810021+9999ME1314669OA149900151REMSYN088AAXX  01224 06619 33/// /2901 11047 21047 38785 48466 58002 333 55300 20011 91103 91202;
0149066190999992011010123004+46833+006583FM-12+120299999V0202901N000519999999N9999999N1-00481-00481999999ADDMA1999999087811MD1710071+9999ME1314629OA149900151REMSYN088AAXX  01234 06619 33/// /2901 11048 21048 38781 48462 57007 333 55300 20007 91103 91202;
0149066190999992011010200004+46833+006583FM-12+120299999V0202901N000519999999N9999999N1-00501-00501999999ADDMA1999999087761MD1710131+9999ME1314579OA149900671REMSYN088AAXX  02004 06619 33/// /2901 11050 21050 38776 48457 57013 333 55300 20011 91113 91206;
0149066190999992011010201004+46833+006583FM-12+120299999V0202901N000519999999N9999999N1-00531-00531999999ADDMA1999999087751MD1610101+9999ME1314569OA149900151REMSYN088AAXX  02014 06619 33/// /2901 11053 21053 38775 48456 56010 333 55300 20011 91103 91202;
0096066190999992011010202004+46833+006583FM-12+120299999V0209999C000519999999N9999999N1-00511-00511999999ADDMA1999999087781ME1314599REMSYN060AAXX  02024 06619 43/// /0001 11051 21051 38778 48459 5////;
0096066190999992011010203004+46833+006583FM-12+120299999V0209999C000019999999N9999999N1-00501-00511999999ADDMA1999999087771ME1314589REMSYN060AAXX  02034 06619 43/// /0000 11050 21051 38777 48458 5////;
0096066190999992011010204004+46833+006583FM-12+120299999V0200701N002619999999N9999999N1-00461-00531999999ADDMA1999999087781ME1314599REMSYN060AAXX  02044 06619 43/// /0705 11046 21053 38778 48459 5////;
0096066190999992011010205004+46833+006583FM-12+120299999V0200901N002119999999N9999999N1-00461-00531999999ADDMA1999999087791ME1314609REMSYN060AAXX  02054 06619 43/// /0904 11046 21053 38779 48460 5////;
0143066190999992011010206004+46833+006583FM-12+120299999V0200601N002119999999N9999999N1-00381-00551999999ADDIA2999-00809KA1999N-00561MA1999999087781ME1314609REMSYN082AAXX  02064 06619 43/// /0604 11038 21055 38778 48460 5//// 333 21056 3/108 55062;
0149066190999992011010207004+46833+006583FM-12+120299999V0200501N002619999999N9999999N1-00391-00551999999ADDMA1999999087791MD1510011+9999ME1314619OA149900571REMSYN088AAXX  02074 06619 33/// /0505 11039 21055 38779 48461 55001 333 55300 20011 91111 91206;
0149066190999992011010208004+46833+006583FM-12+120299999V0200401N003119999999N9999999N1-00381-00531999999ADDMA1999999087821MD1310031+9999ME1314649OA149900621REMSYN088AAXX  02084 06619 33/// /0406 11038 21053 38782 48464 53003 333 55300 20032 91112 91206;
0149066190999992011010209004+46833+006583FM-12+120299999V0200501N002119999999N9999999N1-00391-00541999999ADDMA1999999087851MD1310071+9999ME1314669OA149900721REMSYN088AAXX  02094 06619 33/// /0504 11039 21054 38785 48466 53007 333 55300 20126 91114 91207;
0149066190999992011010210004+46833+006583FM-12+120299999V0200401N002119999999N9999999N1-00391-00521999999ADDMA1999999087891MD1310101+9999ME1314709OA149900571REMSYN088AAXX  02104 06619 33/// /0404 11039 21052 38789 48470 53010 333 55300 20288 91111 91206;
0149066190999992011010211004+46833+006583FM-12+120299999V0200701N002619999999N9999999N1-00391-00531999999ADDMA1999999087881MD1210061+9999ME1314699OA149900621REMSYN088AAXX  02114 06619 33/// /0705 11039 21053 38788 48469 52006 333 55300 20238 91112 91206;
0149066190999992011010212004+46833+006583FM-12+120299999V0200501N003119999999N9999999N1-00401-00631999999ADDMA1999999087861MD1010011+9999ME1314679OA149900721REMSYN088AAXX  02124 06619 33/// /0506 11040 21063 38786 48467 50001 333 55300 20274 91114 91207;
0149066190999992011010213004+46833+006583FM-12+120299999V0200401N003119999999N9999999N1-00391-00711999999ADDMA1999999087851MD1610041+9999ME1314669OA149900671REMSYN088AAXX  02134 06619 33/// /0406 11039 21071 38785 48466 56004 333 55300 20338 91113 91207;
0112066190999992011010214004+46833+006583FM-12+120299999V0200401N002119999999N9999999N1-00491-00661999999ADDMA1999999087861ME1314669REMSYN076AAXX  02144 06619 33/// /0404 11049 21066 38786 48466 5//// 333 553// 20212;
0149066190999992011010215004+46833+006583FM-12+120299999V0200301N002619999999N9999999N1-00531-00651999999ADDMA1999999087891MD1210031+9999ME1314699OA149900721REMSYN088AAXX  02154 06619 33/// /0305 11053 21065 38789 48469 52003 333 55300 20126 91114 91207;
0149066190999992011010216004+46833+006583FM-12+120299999V0200301N002619999999N9999999N1-00551-00771999999ADDMA1999999087931MD1310081+9999ME1314729OA149900621REMSYN088AAXX  02164 06619 33/// /0305 11055 21077 38793 48472 53008 333 55300 20040 91112 91205;
0149066190999992011010217004+46833+006583FM-12+120299999V0200101N003119999999N9999999N1-00591-00741999999ADDMA1999999087951MD1110091+9999ME1314739OA149900571REMSYN088AAXX  02174 06619 33/// /0106 11059 21074 38795 48473 51009 333 55300 20007 91111 91206;
0168066190999992011010218004+46833+006583FM-12+120299999V0200201N003119999999N9999999N1-00641-00751999999ADDKA1120M-00361MA1999999087961MD1110071+9999ME1314749OA149900721REMSYN094AAXX  02184 06619 33/// /0206 11064 21075 38796 48474 51007 333 11036 55300 20007 91114 91207;
0149066190999992011010219004+46833+006583FM-12+120299999V0200201N003619999999N9999999N1-00711-00831999999ADDMA1999999087981MD1310051+9999ME1314759OA149900721REMSYN088AAXX  02194 06619 33/// /0207 11071 21083 38798 48475 53005 333 55300 20007 91114 91207;
0149066190999992011010220004+46833+006583FM-12+120299999V0200201N003619999999N9999999N1-00701-00821999999ADDMA1999999088001MD1310051+9999ME1314779OA149900771REMSYN088AAXX  02204 06619 33/// /0207 11070 21082 38800 48477 53005 333 55300 20007 91115 91207;
0149066190999992011010221004+46833+006583FM-12+120299999V0200301N003119999999N9999999N1-00681-00991999999ADDMA1999999088021MD1310061+9999ME1314789OA149900821REMSYN088AAXX  02214 06619 33/// /0306 11068 21099 38802 48478 53006 333 55300 20007 91116 91207;
0149066190999992011010222004+46833+006583FM-12+120299999V0200201N003119999999N9999999N1-00751-00951999999ADDMA1999999088021MD1110041+9999ME1314789OA149900821REMSYN088AAXX  02224 06619 33/// /0206 11075 21095 38802 48478 51004 333 55300 20007 91116 91207;
0149066190999992011010223004+46833+006583FM-12+120299999V0200301N004619999999N9999999N1-00741-01011999999ADDMA1999999088021MD1210021+9999ME1314789OA149901081REMSYN088AAXX  02234 06619 33/// /0309 11074 21101 38802 48478 52002 333 55300 20004 91121 91209;
0149066190999992011010300004+46833+006583FM-12+120299999V0200201N004619999999N9999999N1-00771-00961999999ADDMA1999999088011MD1810011+9999ME1314779OA149901081REMSYN088AAXX  03004 06619 33/// /0209 11077 21096 38801 48477 58001 333 55300 20004 91121 91210;
0149066190999992011010301004+46833+006583FM-12+120299999V0200401N004119999999N9999999N1-00791-00961999999ADDMA1999999088001MD1710021+9999ME1314769OA149900931REMSYN088AAXX  03014 06619 33/// /0408 11079 21096 38800 48476 57002 333 55300 20004 91118 91210;
0149066190999992011010302004+46833+006583FM-12+120299999V0200401N004119999999N9999999N1-00781-01081999999ADDMA1999999088011MD1519999+9999ME1314779OA149900931REMSYN088AAXX  03024 06619 33/// /0408 11078 21108 38801 48477 55/// 333 55300 20004 91118 91210;
0096066190999992011010303004+46833+006583FM-12+120299999V0200301N003119999999N9999999N1-00811-01001999999ADDMA1999999088011ME1314769REMSYN060AAXX  03034 06619 43/// /0306 11081 21100 38801 48476 5////;
0149066190999992011010304004+46833+006583FM-12+120299999V0200401N001519999999N9999999N1-00811-01071999999ADDMA1999999088011MD1210011+9999ME1314769OA149900721REMSYN088AAXX  03044 06619 33/// /0403 11081 21107 38801 48476 52001 333 55300 20004 91114 91208;
0149066190999992011010305004+46833+006583FM-12+120299999V0200401N002119999999N9999999N1-00851-01081999999ADDMA1999999088001MD1810011+9999ME1314759OA149900671REMSYN088AAXX  03054 06619 33/// /0404 11085 21108 38800 48475 58001 333 55300 20004 91113 91207;
0216066190999992011010306004+46833+006583FM-12+120299999V0200701N003119999999N9999999N1-00811-01141999999ADDAL19900091GJ100009IA2999-01209KA1999N-00921MA1999999088001MD1810011+9999ME1314759OA149901081REMSYN112AAXX  03064 06619 33/// /0706 11081 21114 38800 48475 58001 333 21092 3/112 55000 55300 20004 70000 91121 91210;
0149066190999992011010307004+46833+006583FM-12+120299999V0200601N003119999999N9999999N1-00801-01131999999ADDMA1999999087991MD1610021+9999ME1314759OA149900721REMSYN088AAXX  03074 06619 33/// /0606 11080 21113 38799 48475 56002 333 55300 20004 91114 91207;
0149066190999992011010308004+46833+006583FM-12+120299999V0200101N002119999999N9999999N1-00771-01081999999ADDMA1999999088001MD1019999+9999ME1314769OA149900671REMSYN088AAXX  03084 06619 33/// /0104 11077 21108 38800 48476 50/// 333 55303 20072 91113 91207;
0112066190999992011010309004+46833+006583FM-12+120299999V0200401N001019999999N9999999N1-00721-01191999999ADDMA1999999088011ME1314779REMSYN076AAXX  03094 06619 33/// /0402 11072 21119 38801 48477 5//// 333 553// 20464;
0149066190999992011010310004+46833+006583FM-12+120299999V0201301N001519999999N9999999N1-00591-00761999999ADDMA1999999088031MD1210041+9999ME1314809OA149900571REMSYN088AAXX  03104 06619 33/// /1303 11059 21076 38803 48480 52004 333 553// 20976 91111 91205;
0149066190999992011010311004+46833+006583FM-12+120299999V0201301N001519999999N9999999N1-00631-00741999999ADDMA1999999088021MD1010021+9999ME1314799OA149900411REMSYN088AAXX  03114 06619 33/// /1303 11063 21074 38802 48479 50002 333 55303 2//// 91108 91203;
0149066190999992011010312004+46833+006583FM-12+120299999V0201201N002619999999N9999999N1-00521-00941999999ADDMA1999999087971MD1810041+9999ME1314769OA149900931REMSYN088AAXX  03124 06619 33/// /1205 11052 21094 38797 48476 58004 333 55309 2//// 91118 91210;
0149066190999992011010313004+46833+006583FM-12+120299999V0200601N002619999999N9999999N1-00561-00971999999ADDMA1999999087941MD1810091+9999ME1314739OA149900671REMSYN088AAXX  03134 06619 33/// /0605 11056 21097 38794 48473 58009 333 553// 2//// 91113 91205;
0112066190999992011010314004+46833+006583FM-12+120299999V0201201N002119999999N9999999N1-00581-00841999999ADDMA1999999087951ME1314739REMSYN076AAXX  03144 06619 33/// /1204 11058 21084 38795 48473 5//// 333 553// 2////;
0112066190999992011010315004+46833+006583FM-12+120299999V0201101N001019999999N9999999N1-00661-00801999999ADDMA1999999087951ME1314739REMSYN076AAXX  03154 06619 33/// /1102 11066 21080 38795 48473 5//// 333 553// 20583;
0149066190999992011010316004+46833+006583FM-12+120299999V0200701N000519999999N9999999N1-00811-01001999999ADDMA1999999087941MD1410001+9999ME1314709OA149900571REMSYN088AAXX  03164 06619 33/// /0701 11081 21100 38794 48470 54000 333 55301 20068 91111 91205;
0149066190999992011010317004+46833+006583FM-12+120299999V0203501N001519999999N9999999N1-00871-01071999999ADDMA1999999087941MD1710011+9999ME1314699OA149900261REMSYN088AAXX  03174 06619 33/// /3503 11087 21107 38794 48469 57001 333 55300 20007 91105 91203;
0168066190999992011010318004+46833+006583FM-12+120299999V0203501N001019999999N9999999N1-00911-01051999999ADDKA1120M-00521MA1999999087931MD1710021+9999ME1314689OA149900671REMSYN094AAXX  03184 06619 33/// /3502 11091 21105 38793 48468 57002 333 11052 55300 20004 91113 91207;
0149066190999992011010319004+46833+006583FM-12+120299999V0201901N000519999999N9999999N1-00911-00951999999ADDMA1999999087901MD1710041+9999ME1314669OA149900261REMSYN088AAXX  03194 06619 33/// /1901 11091 21095 38790 48466 57004 333 55300 20004 91105 91203;
0149066190999992011010320004+46833+006583FM-12+120299999V0200801N001019999999N9999999N1-00991-00991999999ADDMA1999999087881MD1710061+9999ME1314639OA149900211REMSYN088AAXX  03204 06619 33/// /0802 11099 21099 38788 48463 57006 333 55300 20004 91104 91203;
0149066190999992011010321004+46833+006583FM-12+120299999V0200401N001019999999N9999999N1-00931-00931999999ADDMA1999999087861MD1710071+9999ME1314629OA149900261REMSYN088AAXX  03214 06619 33/// /0402 11093 21093 38786 48462 57007 333 55300 20004 91105 91203;
0149066190999992011010322004+46833+006583FM-12+120299999V0203201N001019999999N9999999N1-00961-00961999999ADDMA1999999087851MD1710051+9999ME1314619OA149900211REMSYN088AAXX  03224 06619 33/// /3202 11096 21096 38785 48461 57005 333 55300 20004 91104 91202;
0149066190999992011010323004+46833+006583FM-12+120299999V0203501N001519999999N9999999N1-01011-01011999999ADDMA1999999087871MD1510011+9999ME1314629OA149900211REMSYN088AAXX  03234 06619 33/// /3503 11101 21101 38787 48462 55001 333 55300 20004 91104 91203;
0149066190999992011010400004+46833+006583FM-12+120299999V0203301N001519999999N9999999N1-01001-01001999999ADDMA1999999087831MD1810031+9999ME1314599OA149900621REMSYN088AAXX  04004 06619 33/// /3303 11100 21100 38783 48459 58003 333 55300 20004 91112 91205;
0149066190999992011010401004+46833+006583FM-12+120299999V0201701N000519999999N9999999N1-00931-00931999999ADDMA1999999087791MD1710061+9999ME1314569OA149900361REMSYN088AAXX  04014 06619 33/// /1701 11093 21093 38779 48456 57006 333 55300 20004 91107 91204;
0149066190999992011010402004+46833+006583FM-12+120299999V0203501N000519999999N9999999N1-00891-00931999999ADDMA1999999087761MD1619999+9999ME1314549OA149900361REMSYN088AAXX  04024 06619 33/// /3501 11089 21093 38776 48454 56/// 333 55300 20004 91107 91204;
0149066190999992011010403004+46833+006583FM-12+120299999V0202901N000519999999N9999999N1-00841-00881999999ADDMA1999999087721MD1710111+9999ME1314509OA149900361REMSYN088AAXX  04034 06619 33/// /2901 11084 21088 38772 48450 57011 333 55300 20004 91107 91204;
0149066190999992011010404004+46833+006583FM-12+120299999V0201701N000519999999N9999999N1-00811-00851999999ADDMA1999999087681MD1710111+9999ME1314479OA149900261REMSYN088AAXX  04044 06619 33/// /1701 11081 21085 38768 48447 57011 333 55300 20007 91105 91202;
0149066190999992011010405004+46833+006583FM-12+120299999V0201301N000519999999N9999999N1-00841-00841999999ADDMA1999999087671MD1710091+9999ME1314469OA149900211REMSYN088AAXX  04054 06619 33/// /1301 11084 21084 38767 48446 57009 333 55300 20004 91104 91202;
0216066190999992011010406004+46833+006583FM-12+120299999V0201601N000519999999N9999999N1-00821-00821999999ADDAL19900091GJ103909IA2999-01509KA1999N-01041MA1999999087621MD1810101+9999ME1314429OA149900361REMSYN112AAXX  04064 06619 33/// /1601 11082 21082 38762 48442 58010 333 21104 3/115 55065 55300 20011 70000 91107 91204;
0149066190999992011010407004+46833+006583FM-12+120299999V0201801N001019999999N9999999N1-00801-00801999999ADDMA1999999087631MD1710051+9999ME1314439OA149900151REMSYN088AAXX  04074 06619 33/// /1802 11080 21080 38763 48443 57005 333 55300 20011 91103 91202;
0149066190999992011010408004+46833+006583FM-12+120299999V0202101N001019999999N9999999N1-00811-00811999999ADDMA1999999087641MD1519999+9999ME1314449OA149900211REMSYN088AAXX  04084 06619 33/// /2102 11081 21081 38764 48444 55/// 333 55300 20029 91104 91202;
0112066190999992011010409004+46833+006583FM-12+120299999V0203001N000519999999N9999999N1-00811-00811999999ADDMA1999999087631ME1314439REMSYN076AAXX  04094 06619 33/// /3001 11081 21081 38763 48443 5//// 333 553// 20076;
0149066190999992011010410004+46833+006583FM-12+120299999V0201501N000519999999N9999999N1-00761-00761999999ADDMA1999999087651MD1210021+9999ME1314459OA149900311REMSYN088AAXX  04104 06619 33/// /1501 11076 21076 38765 48445 52002 333 55300 20378 91106 91203;
0149066190999992011010411004+46833+006583FM-12+120299999V0202001N001019999999N9999999N1-00691-00691999999ADDMA1999999087601MD1710041+9999ME1314419OA149900311REMSYN088AAXX  04114 06619 33/// /2002 11069 21069 38760 48441 57004 333 55301 20706 91106 91203;
0149066190999992011010412004+46833+006583FM-12+120299999V0202001N001019999999N9999999N1-00661-00661999999ADDMA1999999087561MD1710071+9999ME1314389OA149900361REMSYN088AAXX  04124 06619 33/// /2002 11066 21066 38756 48438 57007 333 55300 20731 91107 91204;
0149066190999992011010413004+46833+006583FM-12+120299999V0203001N000519999999N9999999N1-00691-00701999999ADDMA1999999087511MD1710141+9999ME1314339OA149900361REMSYN088AAXX  04134 06619 33/// /3001 11069 21070 38751 48433 57014 333 55300 20590 91107 91204;
0112066190999992011010414004+46833+006583FM-12+120299999V0203301N000519999999N9999999N1-00661-00681999999ADDMA1999999087481ME1314319REMSYN076AAXX  04144 06619 33/// /3301 11066 21068 38748 48431 5//// 333 553// 20428;
0096066190999992011010415004+46833+006583FM-12+120299999V0202001N000519999999N9999999N1-00711-00711999999ADDMA1999999087481ME1314309REMSYN060AAXX  04154 06619 43/// /2001 11071 21071 38748 48430 5////;
0149066190999992011010416004+46833+006583FM-12+120299999V0202201N001019999999N9999999N1-00551-00731999999ADDMA1999999087481MD1710031+9999ME1314329OA149900411REMSYN088AAXX  04164 06619 33/// /2202 11055 21073 38748 48432 57003 333 55300 20079 91108 91202;
0149066190999992011010417004+46833+006583FM-12+120299999V0202501N001519999999N9999999N1-00661-00871999999ADDMA1999999087511MD1210031+9999ME1314349OA149900411REMSYN088AAXX  04174 06619 33/// /2503 11066 21087 38751 48434 52003 333 55300 20011 91108 91204;
0168066190999992011010418004+46833+006583FM-12+120299999V0202401N003119999999N9999999N1-00681-00961999999ADDKA1120M-00551MA1999999087521MD1210041+9999ME1314349OA149900571REMSYN094AAXX  04184 06619 33/// /2406 11068 21096 38752 48434 52004 333 11055 55300 20007 91111 91206;
0149066190999992011010419004+46833+006583FM-12+120299999V0202101N003119999999N9999999N1-00701-01061999999ADDMA1999999087531MD1210051+9999ME1314359OA149900721REMSYN088AAXX  04194 06619 33/// /2106 11070 21106 38753 48435 52005 333 55300 20007 91114 91206;
0149066190999992011010420004+46833+006583FM-12+120299999V0202001N002119999999N9999999N1-00651-01061999999ADDMA1999999087501MD1810011+9999ME1314339OA149900721REMSYN088AAXX  04204 06619 33/// /2004 11065 21106 38750 48433 58001 333 55300 20007 91114 91206;
0149066190999992011010421004+46833+006583FM-12+120299999V0202001N001019999999N9999999N1-00681-01061999999ADDMA1999999087471MD1710051+9999ME1314309OA149900721REMSYN088AAXX  04214 06619 33/// /2002 11068 21106 38747 48430 57005 333 55300 20007 91114 91206;
0149066190999992011010422004+46833+006583FM-12+120299999V0202301N002119999999N9999999N1-00581-01071999999ADDMA1999999087491MD1510041+9999ME1314329OA149900571REMSYN088AAXX  04224 06619 33/// /2304 11058 21107 38749 48432 55004 333 55300 20007 91111 91205;
0149066190999992011010423004+46833+006583FM-12+120299999V0202701N002619999999N9999999N1-00451-01011999999ADDMA1999999087511MD1310011+9999ME1314359OA149900621REMSYN088AAXX  04234 06619 33/// /2705 11045 21101 38751 48435 53001 333 55300 20007 91112 91205;
0149066190999992011010500004+46833+006583FM-12+120299999V0202301N001019999999N9999999N1-00541-00971999999ADDMA1999999087481MD1010011+9999ME1314329OA149900821REMSYN088AAXX  05004 06619 33/// /2302 11054 21097 38748 48432 50001 333 55300 20007 91116 91206;
0149066190999992011010501004+46833+006583FM-12+120299999V0202101N002119999999N9999999N1-00531-00931999999ADDMA1999999087461MD1710031+9999ME1314309OA149900821REMSYN088AAXX  05014 06619 33/// /2104 11053 21093 38746 48430 57003 333 55300 20007 91116 91205;
0149066190999992011010502004+46833+006583FM-12+120299999V0202401N002619999999N9999999N1-00391-00711999999ADDMA1999999087441MD1710071+9999ME1314309OA149900821REMSYN088AAXX  05024 06619 33/// /2405 11039 21071 38744 48430 57007 333 55300 20007 91116 91207;
0096066190999992011010503004+46833+006583FM-12+120299999V0202401N002119999999N9999999N1-00431-00721999999ADDMA1999999087421ME1314279REMSYN060AAXX  05034 06619 43/// /2404 11043 21072 38742 48427 5////;
0149066190999992011010504004+46833+006583FM-12+120299999V0202101N000519999999N9999999N1-00591-00771999999ADDMA1999999087401MD1810061+9999ME1314249OA149900821REMSYN088AAXX  05044 06619 33/// /2101 11059 21077 38740 48424 58006 333 55300 20007 91116 91207;
0149066190999992011010505004+46833+006583FM-12+120299999V0202301N001019999999N9999999N1-00561-00691999999ADDMA1999999087401MD1710041+9999ME1314259OA149900411REMSYN088AAXX  05054 06619 33/// /2302 11056 21069 38740 48425 57004 333 55300 20007 91108 91203;
0216066190999992011010506004+46833+006583FM-12+120299999V0202101N002619999999N9999999N1-00551-00611999999ADDAL19900091GJ100069IA2999-01209KA1999N-00771MA1999999087411MD1510011+9999ME1314269OA149900821REMSYN112AAXX  05064 06619 33/// /2105 11055 21061 38741 48426 55001 333 21077 3/112 55001 55300 20007 70000 91116 91207;
0149066190999992011010507004+46833+006583FM-12+120299999V0202201N002119999999N9999999N1-00551-00551999999ADDMA1999999087431MD1210031+9999ME1314279OA149900621REMSYN088AAXX  05074 06619 33/// /2204 11055 21055 38743 48427 52003 333 55300 20007 91112 91206;
0149066190999992011010508004+46833+006583FM-12+120299999V0202201N001519999999N9999999N1-00511-00621999999ADDMA1999999087431MD1119999+9999ME1314289OA149900821REMSYN088AAXX  05084 06619 33/// /2203 11051 21062 38743 48428 51/// 333 55301 20061 91116 91206;
0149066190999992011010509004+46833+006583FM-12+120299999V0202201N003119999999N9999999N1-00301-00651999999ADDMA1999999087421MD1010011+9999ME1314299OA149900881REMSYN088AAXX  05094 06619 33/// /2206 11030 21065 38742 48429 50001 333 55309 20436 91117 91206;
0149066190999992011010510004+46833+006583FM-12+120299999V0202201N002119999999N9999999N1-00211-00681999999ADDMA1999999087411MD1810021+9999ME1314289OA149900881REMSYN088AAXX  05104 06619 33/// /2204 11021 21068 38741 48428 58002 333 553// 20900 91117 91206;
0149066190999992011010511004+46833+006583FM-12+120299999V0202201N003619999999N9999999N1-00131-00581999999ADDMA1999999087371MD1810061+9999ME1314259OA149901031REMSYN088AAXX  05114 06619 33/// /2207 11013 21058 38737 48425 58006 333 553// 2//// 91120 91207;
0112066190999992011010512004+46833+006583FM-12+120299999V0202101N002619999999N9999999N1-00071-00451999999ADDMA1999999087331ME1314229REMSYN076AAXX  05124 06619 33/// /2105 11007 21045 38733 48422 5//// 333 553// 2////;
0149066190999992011010513004+46833+006583FM-12+120299999V0201801N002619999999N9999999N1-00081-00441999999ADDMA1999999087311MD1710101+9999ME1314209OA149900771REMSYN088AAXX  05134 06619 33/// /1805 11008 21044 38731 48420 57010 333 553// 2//// 91115 91208;
0096066190999992011010514004+46833+006583FM-12+120299999V0202001N004619999999N9999999N1-00071-00351999999ADDMA1999999087301ME1314209REMSYN060AAXX  05144 06619 43/// /2009 11007 21035 38730 48420 5////;
0096066190999992011010515004+46833+006583FM-12+120299999V0202201N004619999999N9999999N1-00101-00261999999ADDMA1999999087301ME1314199REMSYN060AAXX  05154 06619 43/// /2209 11010 21026 38730 48419 5////;
0149066190999992011010516004+46833+006583FM-12+120299999V0202101N004119999999N9999999N1-00111-00281999999ADDMA1999999087291MD1710021+9999ME1314189OA149901031REMSYN088AAXX  05164 06619 33/// /2108 11011 21028 38729 48418 57002 333 55300 20058 91120 91210;
0149066190999992011010517004+46833+006583FM-12+120299999V0202001N004619999999N9999999N1-00081-00241999999ADDMA1999999087281MD1810021+9999ME1314189OA149901081REMSYN088AAXX  05174 06619 33/// /2009 11008 21024 38728 48418 58002 333 55300 20011 91121 91210;
0168066190999992011010518004+46833+006583FM-12+120299999V0202001N002619999999N9999999N1+00011-00231999999ADDKA1120M-00041MA1999999087261MD1719999+9999ME1314179OA149901081REMSYN094AAXX  05184 06619 33/// /2005 10001 21023 38726 48417 57/// 333 11004 55300 20011 91121 91211;
0149066190999992011010519004+46833+006583FM-12+120299999V0202101N003119999999N9999999N1+00051-00231999999ADDMA1999999087241MD1710051+9999ME1314159OA149901031REMSYN088AAXX  05194 06619 33/// /2106 10005 21023 38724 48415 57005 333 55300 20011 91120 91210;
0149066190999992011010520004+46833+006583FM-12+120299999V0202001N001519999999N9999999N1+00041-00251999999ADDMA1999999087211MD1719999+9999ME1314129OA149900821REMSYN088AAXX  05204 06619 33/// /2003 10004 21025 38721 48412 57/// 333 55300 20011 91116 91208;
0112066190999992011010521004+46833+006583FM-12+120299999V0202101N005119999999N9999999N1+00061-00251999999ADDMA1999999087191ME1314119REMSYN076AAXX  05214 06619 33/// /2110 10006 21025 38719 48411 5//// 333 553// 20011;
0149066190999992011010522004+46833+006583FM-12+120299999V0202101N005719999999N9999999N1+00081-00261999999ADDMA1999999087181MD1710061+9999ME1314109OA149901291REMSYN088AAXX  05224 06619 33/// /2111 10008 21026 38718 48410 57006 333 55300 20011 91125 91213;
0149066190999992011010523004+46833+006583FM-12+120299999V0202101N005719999999N9999999N1+00061-00291999999ADDMA1999999087171MD1719999+9999ME1314099OA149901491REMSYN088AAXX  05234 06619 33/// /2111 10006 21029 38717 48409 57/// 333 55300 20011 91129 91214;
0096066190999992011010600004+46833+006583FM-12+120299999V0202101N006219999999N9999999N1+00101-00301999999ADDMA1999999087131ME1314059REMSYN060AAXX  06004 06619 43/// /2112 10010 21030 38713 48405 5////;
0096066190999992011010601004+46833+006583FM-12+120299999V0202001N003619999999N9999999N1+00051-00271999999ADDMA1999999087101ME1314029REMSYN060AAXX  06014 06619 43/// /2007 10005 21027 38710 48402 5////;
0096066190999992011010602004+46833+006583FM-12+120299999V0202001N003619999999N9999999N1+00091-00061999999ADDMA1999999087121ME1314049REMSYN060AAXX  06024 06619 43/// /2007 10009 21006 38712 48404 5////;
0096066190999992011010603004+46833+006583FM-12+120299999V0201901N004619999999N9999999N1+00061+00011999999ADDMA1999999087131ME1314059REMSYN060AAXX  06034 06619 43/// /1909 10006 20001 38713 48405 5////;
0096066190999992011010604004+46833+006583FM-12+120299999V0202001N004119999999N9999999N1+00091+00071999999ADDMA1999999087131ME1314059REMSYN060AAXX  06044 06619 43/// /2008 10009 20007 38713 48405 5////;
0096066190999992011010605004+46833+006583FM-12+120299999V0202101N004119999999N9999999N1+00151+00071999999ADDMA1999999087111ME1314049REMSYN060AAXX  06054 06619 43/// /2108 10015 20007 38711 48404 5////;
0143066190999992011010606004+46833+006583FM-12+120299999V0201901N004619999999N9999999N1+00181+00081999999ADDIA2999-00309KA1999N-00051MA1999999087111ME1314049REMSYN082AAXX  06064 06619 43/// /1909 10018 20008 38711 48404 5//// 333 21005 3/103 55063;
0096066190999992011010607004+46833+006583FM-12+120299999V0202001N003119999999N9999999N1+00161+00111999999ADDMA1999999087141ME1314079REMSYN060AAXX  06074 06619 43/// /2006 10016 20011 38714 48407 5////;
0118066190999992011010608004+46833+006583FM-12+120299999V0201901N005719999999N9999999N1+00101+00091999999ADDMA1999999087161ME1314089REMSYN082AAXX  06084 06619 23/// /1911 10010 20009 38716 48408 5//// 333 553// 20018 69915;
0096066190999992011010609004+46833+006583FM-12+120299999V0202001N005719999999N9999999N1+00151+00111999999ADDMA1999999087171ME1314099REMSYN060AAXX  06094 06619 43/// /2011 10015 20011 38717 48409 5////;
0149066190999992011010610004+46833+006583FM-12+120299999V0201901N004119999999N9999999N1+00171+00171999999ADDMA1999999087201MD1210061+9999ME1314129OA149901441REMSYN088AAXX  06104 06619 33/// /1908 10017 20017 38720 48412 52006 333 55300 20083 91128 91213;
0149066190999992011010611004+46833+006583FM-12+120299999V0201901N003119999999N9999999N1+00271+00221999999ADDMA1999999087181MD1210021+9999ME1314119OA149901441REMSYN088AAXX  06114 06619 33/// /1906 10027 20022 38718 48411 52002 333 55300 20155 91128 91213;
0191066190999992011010612004+46833+006583FM-12+120299999V0202001N003619999999N9999999N1+00341+00241999999ADDAA106000091MA1999999087151MD1810021+9999ME1314099OA149901441REMSYN100AAXX  06124 06619 03/// /2007 10034 20024 38715 48409 58002 69921 333 55300 20166 60005 91128 91213;EQDQ01  00002PRCP06
0149066190999992011010613004+46833+006583FM-12+120299999V0201901N003619999999N9999999N1+00341+00281999999ADDMA1999999087141MD1610061+9999ME1314089OA149901341REMSYN088AAXX  06134 06619 33/// /1907 10034 20028 38714 48408 56006 333 55300 20126 91126 91213;
0096066190999992011010614004+46833+006583FM-12+120299999V0202101N003619999999N9999999N1+00371+00301999999ADDMA1999999087161ME1314109REMSYN060AAXX  06144 06619 43/// /2107 10037 20030 38716 48410 5////;
0096066190999992011010615004+46833+006583FM-12+120299999V0202101N005119999999N9999999N1+00371+00351999999ADDMA1999999087181ME1314129REMSYN060AAXX  06154 06619 43/// /2110 10037 20035 38718 48412 5////;
0155066190999992011010616004+46833+006583FM-12+120299999V0202001N003619999999N9999999N1+00371+00351999999ADDMA1999999087211MD1310071+9999ME1314159OA149901241REMSYN094AAXX  06164 06619 23/// /2007 10037 20035 38721 48415 53007 333 55300 20018 60015 91124 91212;
0155066190999992011010617004+46833+006583FM-12+120299999V0202001N002119999999N9999999N1+00331+00331999999ADDMA1999999087231MD1210071+9999ME1314169OA149901241REMSYN094AAXX  06174 06619 23/// /2004 10033 20033 38723 48416 52007 333 55300 20011 69945 91124 91211;
0191066190999992011010618004+46833+006583FM-12+120299999V0202101N004119999999N9999999N1+00381+00371999999ADDAA112003091KA1120M+00391MA1999999087261MD1210081+9999ME1314209OA149901441REMSYN106AAXX  06184 06619 03/// /2108 10038 20037 38726 48420 52008 60032 333 10039 55300 20011 69915 91128 91213;
0155066190999992011010619004+46833+006583FM-12+120299999V0201801N001519999999N9999999N1+00331+00331999999ADDMA1999999087281MD1210071+9999ME1314219OA149900821REMSYN094AAXX  06194 06619 23/// /1803 10033 20033 38728 48421 52007 333 55300 20011 69965 91116 91208;
0149066190999992011010620004+46833+006583FM-12+120299999V0202001N005119999999N9999999N1+00351+00351999999ADDMA1999999087331MD1219999+9999ME1314269OA149901031REMSYN088AAXX  06204 06619 33/// /2010 10035 20035 38733 48426 52/// 333 55300 20011 91120 91210;
0155066190999992011010621004+46833+006583FM-12+120299999V0202201N002119999999N9999999N1+00421+00391999999ADDMA1999999087371MD1219999+9999ME1314309OA149901241REMSYN094AAXX  06214 06619 23/// /2204 10042 20039 38737 48430 52/// 333 55300 20011 69955 91124 91211;
0155066190999992011010622004+46833+006583FM-12+120299999V0202001N003619999999N9999999N1+00441+00411999999ADDMA1999999087411MD1210131+9999ME1314349OA149900881REMSYN094AAXX  06224 06619 23/// /2007 10044 20041 38741 48434 52013 333 55300 20011 69925 91117 91209;
0118066190999992011010623004+46833+006583FM-12+120299999V0202101N002619999999N9999999N1+00441+00391999999ADDMA1999999087461ME1314399REMSYN082AAXX  06234 06619 23/// /2105 10044 20039 38746 48439 5//// 333 553// 20011 69915;
0096066190999992011010700004+46833+006583FM-12+120299999V0202101N002119999999N9999999N1+00441+00411999999ADDMA1999999087471ME1314399REMSYN060AAXX  07004 06619 43/// /2104 10044 20041 38747 48439 5////;
0096066190999992011010701004+46833+006583FM-12+120299999V0202101N004119999999N9999999N1+00511+00451999999ADDMA1999999087471ME1314409REMSYN060AAXX  07014 06619 43/// /2108 10051 20045 38747 48440 5////;
0096066190999992011010702004+46833+006583FM-12+120299999V0201901N002619999999N9999999N1+00431+00431999999ADDMA1999999087521ME1314449REMSYN060AAXX  07024 06619 43/// /1905 10043 20043 38752 48444 5////;
0096066190999992011010703004+46833+006583FM-12+120299999V0202101N002619999999N9999999N1+00481+00451999999ADDMA1999999087531ME1314459REMSYN060AAXX  07034 06619 43/// /2105 10048 20045 38753 48445 5////;
0155066190999992011010704004+46833+006583FM-12+120299999V0202201N002619999999N9999999N1+00481+00471999999ADDMA1999999087531MD1010061+9999ME1314459OA149900821REMSYN094AAXX  07044 06619 23/// /2205 10048 20047 38753 48445 50006 333 55300 20007 60025 91116 91208;
0155066190999992011010705004+46833+006583FM-12+120299999V0202301N002119999999N9999999N1+00531+00471999999ADDMA1999999087501MD1810021+9999ME1314439OA149900821REMSYN094AAXX  07054 06619 23/// /2304 10053 20047 38750 48443 58002 333 55300 20011 60015 91116 91208;
0239066190999992011010706004+46833+006583FM-12+120299999V0202201N002119999999N9999999N1+00611+00411999999ADDAA112006191AL12400891GJ100009IA2999+00309KA1999N+00311MA1999999087481MD1710051+9999ME1314429OA149901031REMSYN124AAXX  07064 06619 03/// /2204 10061 20041 38748 48442 57005 60062 333 20031 3/003 55000 55300 20011 69915 70084 91120 91210;
0149066190999992011010707004+46833+006583FM-12+120299999V0202101N004619999999N9999999N1+00601+00411999999ADDMA1999999087491MD1510041+9999ME1314439OA149900931REMSYN088AAXX  07074 06619 33/// /2109 10060 20041 38749 48443 55004 333 55300 20011 91118 91209;
0118066190999992011010708004+46833+006583FM-12+120299999V0202101N004119999999N9999999N1+00511+00401999999ADDMA1999999087531ME1314469REMSYN082AAXX  07084 06619 23/// /2108 10051 20040 38753 48446 5//// 333 553// 20068 69915;
0096066190999992011010709004+46833+006583FM-12+120299999V0202101N005719999999N9999999N1+00541+00421999999ADDMA1999999087541ME1314479REMSYN060AAXX  07094 06619 43/// /2111 10054 20042 38754 48447 5////;
0149066190999992011010710004+46833+006583FM-12+120299999V0202101N005719999999N9999999N1+00641+00441999999ADDMA1999999087561MD1210071+9999ME1314509OA149901241REMSYN088AAXX  07104 06619 33/// /2111 10064 20044 38756 48450 52007 333 55303 20673 91124 91213;
0149066190999992011010711004+46833+006583FM-12+120299999V0202001N004119999999N9999999N1+00631+00461999999ADDMA1999999087571MD1210041+9999ME1314509OA149901241REMSYN088AAXX  07114 06619 33/// /2008 10063 20046 38757 48450 52004 333 55300 20468 91124 91213;
0191066190999992011010712004+46833+006583FM-12+120299999V0202001N006219999999N9999999N1+00731+00481999999ADDAA106000091MA1999999087531MD1810011+9999ME1314489OA149901541REMSYN100AAXX  07124 06619 03/// /2012 10073 20048 38753 48448 58001 69911 333 55300 20518 60005 91130 91213;EQDQ01  00002PRCP06
0149066190999992011010713004+46833+006583FM-12+120299999V0202001N007219999999N9999999N1+00791+00451999999ADDMA1999999087521MD1710041+9999ME1314479OA149901541REMSYN088AAXX  07134 06619 33/// /2014 10079 20045 38752 48447 57004 333 55300 20626 91130 91214;
0096066190999992011010714004+46833+006583FM-12+120299999V0202001N005119999999N9999999N1+00781+00461999999ADDMA1999999087541ME1314499REMSYN060AAXX  07144 06619 43/// /2010 10078 20046 38754 48449 5////;
0096066190999992011010715004+46833+006583FM-12+120299999V0202201N004119999999N9999999N1+00851+00401999999ADDMA1999999087581ME1314539REMSYN060AAXX  07154 06619 43/// /2208 10085 20040 38758 48453 5////;
0149066190999992011010716004+46833+006583FM-12+120299999V0202201N006719999999N9999999N1+00891+00401999999ADDMA1999999087621MD1310101+9999ME1314589OA149901801REMSYN088AAXX  07164 06619 33/// /2213 10089 20040 38762 48458 53010 333 55300 20022 91135 91215;
0149066190999992011010717004+46833+006583FM-12+120299999V0202201N005719999999N9999999N1+00891+00381999999ADDMA1999999087611MD1210071+9999ME1314579OA149901801REMSYN088AAXX  07174 06619 33/// /2211 10089 20038 38761 48457 52007 333 55300 20014 91135 91215;
0173066190999992011010718004+46833+006583FM-12+120299999V0202001N004119999999N9999999N1+00821+00361999999ADDAA112000091KA1120M+00911MA1999999087611ME1314569REMSYN094AAXX  07184 06619 03/// /2008 10082 20036 38761 48456 5//// 69912 333 10091 553// 20011 60005;EQDQ01  00002PRCP12
0149066190999992011010719004+46833+006583FM-12+120299999V0202101N002619999999N9999999N1+00721+00381999999ADDMA1999999087581MD1719999+9999ME1314529OA149901291REMSYN088AAXX  07194 06619 33/// /2105 10072 20038 38758 48452 57/// 333 55300 20011 91125 91211;
0096066190999992011010720004+46833+006583FM-12+120299999V0202001N002119999999N9999999N1+00621+00411999999ADDMA1999999087571ME1314509REMSYN060AAXX  07204 06619 43/// /2004 10062 20041 38757 48450 5////;
0096066190999992011010721004+46833+006583FM-12+120299999V0201901N003619999999N9999999N1+00661+00411999999ADDMA1999999087571ME1314519REMSYN060AAXX  07214 06619 43/// /1907 10066 20041 38757 48451 5////;
0149066190999992011010722004+46833+006583FM-12+120299999V0202201N003619999999N9999999N1+00781+00291999999ADDMA1999999087601MD1310021+9999ME1314559OA149900931REMSYN088AAXX  07224 06619 33/// /2207 10078 20029 38760 48455 53002 333 55300 20011 91118 91208;
0112066190999992011010723004+46833+006583FM-12+120299999V0201701N002119999999N9999999N1+00621+00381999999ADDMA1999999087611ME1314549REMSYN076AAXX  07234 06619 33/// /1704 10062 20038 38761 48454 5//// 333 553// 20011;
0112066190999992011010800004+46833+006583FM-12+120299999V0201701N000519999999N9999999N1+00531+00401999999ADDMA1999999087611ME1314539REMSYN076AAXX  08004 06619 33/// /1701 10053 20040 38761 48453 5//// 333 553// 20014;
0096066190999992011010801004+46833+006583FM-12+120299999V0202101N004119999999N9999999N1+00661+00341999999ADDMA1999999087601ME1314549REMSYN060AAXX  08014 06619 43/// /2108 10066 20034 38760 48454 5////;
0096066190999992011010802004+46833+006583FM-12+120299999V0202101N002119999999N9999999N1+00491+00451999999ADDMA1999999087611ME1314539REMSYN060AAXX  08024 06619 43/// /2104 10049 20045 38761 48453 5////;
0096066190999992011010803004+46833+006583FM-12+120299999V0202201N005719999999N9999999N1+00571+00391999999ADDMA1999999087651ME1314579REMSYN060AAXX  08034 06619 43/// /2211 10057 20039 38765 48457 5////;
0096066190999992011010804004+46833+006583FM-12+120299999V0202101N005719999999N9999999N1+00521+00361999999ADDMA1999999087661ME1314589REMSYN060AAXX  08044 06619 43/// /2111 10052 20036 38766 48458 5////;
0096066190999992011010805004+46833+006583FM-12+120299999V0201601N001519999999N9999999N1+00411+00411999999ADDMA1999999087681ME1314599REMSYN060AAXX  08054 06619 43/// /1603 10041 20041 38768 48459 5////;
0143066190999992011010806004+46833+006583FM-12+120299999V0201901N002119999999N9999999N1+00451+00451999999ADDIA2999+00409KA1999N+00411MA1999999087671ME1314589REMSYN082AAXX  08064 06619 43/// /1904 10045 20045 38767 48458 5//// 333 20041 3/004 55013;
0096066190999992011010807004+46833+006583FM-12+120299999V0202001N002119999999N9999999N1+00421+00421999999ADDMA1999999087691ME1314609REMSYN060AAXX  08074 06619 43/// /2004 10042 20042 38769 48460 5////;
0112066190999992011010808004+46833+006583FM-12+120299999V0201701N001019999999N9999999N1+00401+00401999999ADDMA1999999087721ME1314629REMSYN076AAXX  08084 06619 33/// /1702 10040 20040 38772 48462 5//// 333 553// 20043;
0096066190999992011010809004+46833+006583FM-12+120299999V0201901N001519999999N9999999N1+00421+00421999999ADDMA1999999087741ME1314649REMSYN060AAXX  08094 06619 43/// /1903 10042 20042 38774 48464 5////;
0096066190999992011010810004+46833+006583FM-12+120299999V0202001N002119999999N9999999N1+00511+00411999999ADDMA1999999087751ME1314669REMSYN060AAXX  08104 06619 43/// /2004 10051 20041 38775 48466 5////;
0096066190999992011010811004+46833+006583FM-12+120299999V0202001N003119999999N9999999N1+00641+00421999999ADDMA1999999087741ME1314669REMSYN060AAXX  08114 06619 43/// /2006 10064 20042 38774 48466 5////;
0096066190999992011010812004+46833+006583FM-12+120299999V0202001N003119999999N9999999N1+00661+00411999999ADDMA1999999087721ME1314659REMSYN060AAXX  08124 06619 43/// /2006 10066 20041 38772 48465 5////;
0096066190999992011010813004+46833+006583FM-12+120299999V0202101N003119999999N9999999N1+00701+00381999999ADDMA1999999087691ME1314629REMSYN060AAXX  08134 06619 43/// /2106 10070 20038 38769 48462 5////;
0096066190999992011010814004+46833+006583FM-12+120299999V0202101N003119999999N9999999N1+00781+00331999999ADDMA1999999087681ME1314629REMSYN060AAXX  08144 06619 43/// /2106 10078 20033 38768 48462 5////;
0096066190999992011010815004+46833+006583FM-12+120299999V0202101N002619999999N9999999N1+00791+00241999999ADDMA1999999087701ME1314649REMSYN060AAXX  08154 06619 43/// /2105 10079 20024 38770 48464 5////;
0096066190999992011010816004+46833+006583FM-12+120299999V0202101N003119999999N9999999N1+00811+00051999999ADDMA1999999087681ME1314629REMSYN060AAXX  08164 06619 43/// /2106 10081 20005 38768 48462 5////;
0096066190999992011010817004+46833+006583FM-12+120299999V0202201N005119999999N9999999N1+00781+00031999999ADDMA1999999087671ME1314619REMSYN060AAXX  08174 06619 43/// /2210 10078 20003 38767 48461 5////;
0096066190999992011010818004+46833+006583FM-12+120299999V0201901N001519999999N9999999N1+00631+00171999999ADDMA1999999087651ME1314589REMSYN060AAXX  08184 06619 43/// /1903 10063 20017 38765 48458 5////;
0096066190999992011010819004+46833+006583FM-12+120299999V0202101N001519999999N9999999N1+00571+00251999999ADDMA1999999087641ME1314569REMSYN060AAXX  08194 06619 43/// /2103 10057 20025 38764 48456 5////;
0096066190999992011010820004+46833+006583FM-12+120299999V0202001N003119999999N9999999N1+00621+00221999999ADDMA1999999087631ME1314569REMSYN060AAXX  08204 06619 43/// /2006 10062 20022 38763 48456 5////;
0096066190999992011010821004+46833+006583FM-12+120299999V0202001N002619999999N9999999N1+00611+00201999999ADDMA1999999087601ME1314539REMSYN060AAXX  08214 06619 43/// /2005 10061 20020 38760 48453 5////;
0096066190999992011010822004+46833+006583FM-12+120299999V0201801N002619999999N9999999N1+00511+00261999999ADDMA1999999087601ME1314529REMSYN060AAXX  08224 06619 43/// /1805 10051 20026 38760 48452 5////;
0096066190999992011010823004+46833+006583FM-12+120299999V0202101N003619999999N9999999N1+00521+00211999999ADDMA1999999087621ME1314549REMSYN060AAXX  08234 06619 43/// /2107 10052 20021 38762 48454 5////;
0096066190999992011010900004+46833+006583FM-12+120299999V0202001N003119999999N9999999N1+00531+00141999999ADDMA1999999087611ME1314539REMSYN060AAXX  09004 06619 43/// /2006 10053 20014 38761 48453 5////;
0096066190999992011010901004+46833+006583FM-12+120299999V0201801N001519999999N9999999N1+00521+00101999999ADDMA1999999087571ME1314499REMSYN060AAXX  09014 06619 43/// /1803 10052 20010 38757 48449 5////;
0096066190999992011010902004+46833+006583FM-12+120299999V0201801N001019999999N9999999N1+00511+00001999999ADDMA1999999087601ME1314529REMSYN060AAXX  09024 06619 43/// /1802 10051 20000 38760 48452 5////;
0096066190999992011010903004+46833+006583FM-12+120299999V0202101N001519999999N9999999N1+00611-00091999999ADDMA1999999087561ME1314499REMSYN060AAXX  09034 06619 43/// /2103 10061 21009 38756 48449 5////;
0096066190999992011010904004+46833+006583FM-12+120299999V0202001N002119999999N9999999N1+00551-00021999999ADDMA1999999087531ME1314469REMSYN060AAXX  09044 06619 43/// /2004 10055 21002 38753 48446 5////;
0096066190999992011010905004+46833+006583FM-12+120299999V0202101N003119999999N9999999N1+00571-00091999999ADDMA1999999087511ME1314449REMSYN060AAXX  09054 06619 43/// /2106 10057 21009 38751 48444 5////;
0106066190999992011010906004+46833+006583FM-12+120299999V0202101N003119999999N9999999N1+00391+00061999999ADDMA1999999087531ME1314459REMSYN070AAXX  09064 06619 43/// /2106 10039 20006 38753 48445 5//// 333 55003;
0096066190999992011010907004+46833+006583FM-12+120299999V0202101N002619999999N9999999N1+00421+00021999999ADDMA1999999087561ME1314489REMSYN060AAXX  09074 06619 43/// /2105 10042 20002 38756 48448 5////;
0112066190999992011010908004+46833+006583FM-12+120299999V0202001N005119999999N9999999N1+00471+00061999999ADDMA1999999087651ME1314569REMSYN076AAXX  09084 06619 33/// /2010 10047 20006 38765 48456 5//// 333 553// 20022;
0118066190999992011010909004+46833+006583FM-12+120299999V0202101N004119999999N9999999N1+00401+00251999999ADDMA1999999087661ME1314579REMSYN082AAXX  09094 06619 23/// /2108 10040 20025 38766 48457 5//// 333 553// 20047 69965;
0155066190999992011010910004+46833+006583FM-12+120299999V0202101N006719999999N9999999N1+00411+00291999999ADDMA1999999087681MD1210121+9999ME1314599OA149901541REMSYN094AAXX  09104 06619 23/// /2113 10041 20029 38768 48459 52012 333 55300 20065 60015 91130 91214;
0155066190999992011010911004+46833+006583FM-12+120299999V0202101N004619999999N9999999N1+00401+00311999999ADDMA1999999087681MD1210031+9999ME1314599OA149901541REMSYN094AAXX  09114 06619 23/// /2109 10040 20031 38768 48459 52003 333 55300 20090 60015 91130 91214;
0172066190999992011010912004+46833+006583FM-12+120299999V0202201N005719999999N9999999N1+00351+00191999999ADDAA106004191MA1999999087661MD1010001+9999ME1314569OA149901541REMSYN100AAXX  09124 06619 03/// /2211 10035 20019 38766 48456 50000 60041 333 55300 20072 60025 91130 91214;
0155066190999992011010913004+46833+006583FM-12+120299999V0202501N005719999999N9999999N1+00281+00141999999ADDMA1999999087631MD1710051+9999ME1314539OA149901541REMSYN094AAXX  09134 06619 23/// /2511 10028 20014 38763 48453 57005 333 55300 20065 60015 91130 91213;
0096066190999992011010914004+46833+006583FM-12+120299999V0202101N002119999999N9999999N1+00191+00181999999ADDMA1999999087661ME1314559REMSYN060AAXX  09144 06619 43/// /2104 10019 20018 38766 48455 5////;
0096066190999992011010915004+46833+006583FM-12+120299999V0202101N001519999999N9999999N1+00191+00191999999ADDMA1999999087701ME1314589REMSYN060AAXX  09154 06619 43/// /2103 10019 20019 38770 48458 5////;
0155066190999992011010916004+46833+006583FM-12+120299999V0201801N001519999999N9999999N1+00181+00181999999ADDMA1999999087751MD1110121+9999ME1314639OA149900771REMSYN094AAXX  09164 06619 23/// /1803 10018 20018 38775 48463 51012 333 55300 20025 69975 91115 91207;
0155066190999992011010917004+46833+006583FM-12+120299999V0202101N002119999999N9999999N1+00131+00131999999ADDMA1999999087791MD1110131+9999ME1314669OA149900721REMSYN094AAXX  09174 06619 23/// /2104 10013 20013 38779 48466 51013 333 55300 20011 69995 91114 91206;
0191066190999992011010918004+46833+006583FM-12+120299999V0202201N002619999999N9999999N1+00121+00121999999ADDAA112009991KA1120M+00481MA1999999087821MD1110121+9999ME1314699OA149901541REMSYN106AAXX  09184 06619 03/// /2205 10012 20012 38782 48469 51012 60102 333 10048 55300 20011 69975 91130 91214;
0155066190999992011010919004+46833+006583FM-12+120299999V0202201N001519999999N9999999N1+00091+00091999999ADDMA1999999087861MD1110111+9999ME1314729OA149900571REMSYN094AAXX  09194 06619 23/// /2203 10009 20009 38786 48472 51011 333 55300 20011 60025 91111 91206;
0155066190999992011010920004+46833+006583FM-12+120299999V0202401N001019999999N9999999N1+00011+00011999999ADDMA1999999087891MD1110101+9999ME1314749OA149900511REMSYN094AAXX  09204 06619 23/// /2402 10001 20001 38789 48474 51010 333 55300 20011 60025 91110 91205;
0155066190999992011010921004+46833+006583FM-12+120299999V0202201N001019999999N9999999N1+00021+00001999999ADDMA1999999087921MD1310101+9999ME1314779OA149900721REMSYN094AAXX  09214 06619 23/// /2202 10002 20000 38792 48477 53010 333 55300 20011 69975 91114 91206;
0155066190999992011010922004+46833+006583FM-12+120299999V0202301N000519999999N9999999N1+00021-00011999999ADDMA1999999087951MD1110091+9999ME1314799OA149900211REMSYN094AAXX  09224 06619 23/// /2301 10002 21001 38795 48479 51009 333 55300 20011 69955 91104 91202;
0155066190999992011010923004+46833+006583FM-12+120299999V0202401N001019999999N9999999N1+00061+00031999999ADDMA1999999087961MD1110071+9999ME1314819OA149900261REMSYN094AAXX  09234 06619 23/// /2402 10006 20003 38796 48481 51007 333 55300 20011 69915 91105 91202;
0172066190999992011011000004+46833+006583FM-12+120299999V0201901N001019999999N9999999N1+00021+00021999999ADDAA106005191MA1999999087971MD1110051+9999ME1314819OA149901441REMSYN100AAXX  10004 06619 03/// /1902 10002 20002 38797 48481 51005 60051 333 55300 20011 60005 91128 91213;
0155066190999992011011001004+46833+006583FM-12+120299999V0202101N000519999999N9999999N1+00021+00021999999ADDMA1999999087981MD1110031+9999ME1314829OA149900211REMSYN094AAXX  10014 06619 23/// /2101 10002 20002 38798 48482 51003 333 55300 20011 69935 91104 91202;
0118066190999992011011002004+46833+006583FM-12+120299999V0203601N000519999999N9999999N1+00021+00001999999ADDMA1999999088001ME1314849REMSYN082AAXX  10024 06619 23/// /3601 10002 20000 38800 48484 5//// 333 553// 20011 69945;
0096066190999992011011003004+46833+006583FM-12+120299999V0202901N000519999999N9999999N1+00041+00011999999ADDMA1999999088001ME1314849REMSYN060AAXX  10034 06619 43/// /2901 10004 20001 38800 48484 5////;
0118066190999992011011004004+46833+006583FM-12+120299999V0200301N000519999999N9999999N1+00031+00001999999ADDMA1999999087981ME1314829REMSYN082AAXX  10044 06619 23/// /0301 10003 20000 38798 48482 5//// 333 553// 20011 69915;
0149066190999992011011005004+46833+006583FM-12+120299999V0200201N000519999999N9999999N1-00011-00011999999ADDMA1999999087981MD1719999+9999ME1314829OA149900151REMSYN088AAXX  10054 06619 33/// /0201 11001 21001 38798 48482 57/// 333 55300 20011 91103 91202;
0168066190999992011011006004+46833+006583FM-12+120299999V0200901N001519999999N9999999N1+00021+00011999999ADDAA124015591GJ100009IA2999+00009KA1999N-00011MA1999999087991ME1314839REMSYN088AAXX  10064 06619 43/// /0903 10002 20001 38799 48483 5//// 333 21001 3/100 55000 70154;
0149066190999992011011007004+46833+006583FM-12+120299999V0200901N000519999999N9999999N1+00011+00001999999ADDMA1999999088021MD1210041+9999ME1314869OA149900211REMSYN088AAXX  10074 06619 33/// /0901 10001 20000 38802 48486 52004 333 55300 20011 91104 91203;
0096066190999992011011008004+46833+006583FM-12+120299999V0203201N000519999999N9999999N1-00021-00021999999ADDMA1999999088061ME1314899REMSYN060AAXX  10084 06619 43/// /3201 11002 21002 38806 48489 5////;
0096066190999992011011009004+46833+006583FM-12+120299999V0200801N000519999999N9999999N1+00031+00031999999ADDMA1999999088061ME1314909REMSYN060AAXX  10094 06619 43/// /0801 10003 20003 38806 48490 5////;
0149066190999992011011010004+46833+006583FM-12+120299999V0202001N001019999999N9999999N1+00011+00011999999ADDMA1999999088061MD1210041+9999ME1314899OA149900151REMSYN088AAXX  10104 06619 33/// /2002 10001 20001 38806 48489 52004 333 55300 20310 91103 91202;
0149066190999992011011011004+46833+006583FM-12+120299999V0201501N000519999999N9999999N1-00021-00021999999ADDMA1999999088051MD1719999+9999ME1314889OA149900151REMSYN088AAXX  10114 06619 33/// /1501 11002 21002 38805 48488 57/// 333 55300 20205 91103 91202;
0112066190999992011011012004+46833+006583FM-12+120299999V0201301N001019999999N9999999N1+00011+00011999999ADDMA1999999087991ME1314839REMSYN076AAXX  10124 06619 33/// /1302 10001 20001 38799 48483 5//// 333 553// 20353;
0096066190999992011011013004+46833+006583FM-12+120299999V0201601N000519999999N9999999N1+00011+00011999999ADDMA1999999087931ME1314789REMSYN060AAXX  10134 06619 43/// /1601 10001 20001 38793 48478 5////;
0096066190999992011011014004+46833+006583FM-12+120299999V0201101N000519999999N9999999N1-00081-00081999999ADDMA1999999087891ME1314739REMSYN060AAXX  10144 06619 43/// /1101 11008 21008 38789 48473 5////;
0096066190999992011011015004+46833+006583FM-12+120299999V0201201N001019999999N9999999N1-00041-00041999999ADDMA1999999087871ME1314729REMSYN060AAXX  10154 06619 43/// /1202 11004 21004 38787 48472 5////;
0096066190999992011011016004+46833+006583FM-12+120299999V0202201N000519999999N9999999N1-00061-00061999999ADDMA1999999087851ME1314709REMSYN060AAXX  10164 06619 43/// /2201 11006 21006 38785 48470 5////;
0096066190999992011011017004+46833+006583FM-12+120299999V0201801N000519999999N9999999N1-00081-00081999999ADDMA1999999087821ME1314679REMSYN060AAXX  10174 06619 43/// /1801 11008 21008 38782 48467 5////;
0119066190999992011011018004+46833+006583FM-12+120299999V0201201N000519999999N9999999N1-00111-00111999999ADDKA1999M+00031MA1999999087811ME1314669REMSYN070AAXX  10184 06619 43/// /1201 11011 21011 38781 48466 5//// 333 10003;
0096066190999992011011019004+46833+006583FM-12+120299999V0202501N000519999999N9999999N1-00111-00111999999ADDMA1999999087821ME1314669REMSYN060AAXX  10194 06619 43/// /2501 11011 21011 38782 48466 5////;
0096066190999992011011020004+46833+006583FM-12+120299999V0202101N001019999999N9999999N1-00071-00071999999ADDMA1999999087801ME1314659REMSYN060AAXX  10204 06619 43/// /2102 11007 21007 38780 48465 5////;
0096066190999992011011021004+46833+006583FM-12+120299999V0202101N001019999999N9999999N1-00081-00081999999ADDMA1999999087791ME1314649REMSYN060AAXX  10214 06619 43/// /2102 11008 21008 38779 48464 5////;
0096066190999992011011022004+46833+006583FM-12+120299999V0202101N001519999999N9999999N1-00081-00081999999ADDMA1999999087781ME1314639REMSYN060AAXX  10224 06619 43/// /2103 11008 21008 38778 48463 5////;
0096066190999992011011023004+46833+006583FM-12+120299999V0202001N002119999999N9999999N1-00101-00101999999ADDMA1999999087741ME1314599REMSYN060AAXX  10234 06619 43/// /2004 11010 21010 38774 48459 5////;
0096066190999992011011100004+46833+006583FM-12+120299999V0202001N002619999999N9999999N1-00081-00081999999ADDMA1999999087701ME1314569REMSYN060AAXX  11004 06619 43/// /2005 11008 21008 38770 48456 5////;
0096066190999992011011101004+46833+006583FM-12+120299999V0202201N003119999999N9999999N1-00031-00051999999ADDMA1999999087641ME1314519REMSYN060AAXX  11014 06619 43/// /2206 11003 21005 38764 48451 5////;
0096066190999992011011102004+46833+006583FM-12+120299999V0202101N002619999999N9999999N1-00021-00051999999ADDMA1999999087621ME1314499REMSYN060AAXX  11024 06619 43/// /2105 11002 21005 38762 48449 5////;
0096066190999992011011103004+46833+006583FM-12+120299999V0202001N002119999999N9999999N1-00081-00081999999ADDMA1999999087571ME1314449REMSYN060AAXX  11034 06619 43/// /2004 11008 21008 38757 48444 5////;
0096066190999992011011104004+46833+006583FM-12+120299999V0202001N003619999999N9999999N1-00061-00061999999ADDMA1999999087531ME1314419REMSYN060AAXX  11044 06619 43/// /2007 11006 21006 38753 48441 5////;
0096066190999992011011105004+46833+006583FM-12+120299999V0201901N004119999999N9999999N1-00051-00061999999ADDMA1999999087481ME1314369REMSYN060AAXX  11054 06619 43/// /1908 11005 21006 38748 48436 5////;
0106066190999992011011106004+46833+006583FM-12+120299999V0202201N002119999999N9999999N1-00081-00081999999ADDMA1999999087441ME1314329REMSYN070AAXX  11064 06619 43/// /2204 11008 21008 38744 48432 5//// 333 55000;
0149066190999992011011107004+46833+006583FM-12+120299999V0202001N002119999999N9999999N1-00101-00101999999ADDMA1999999087411MD1619999+9999ME1314299OA149900671REMSYN088AAXX  11074 06619 33/// /2004 11010 21010 38741 48429 56/// 333 55300 20011 91113 91207;
0112066190999992011011108004+46833+006583FM-12+120299999V0202101N002119999999N9999999N1-00131-00131999999ADDMA1999999087381ME1314269REMSYN076AAXX  11084 06619 33/// /2104 11013 21013 38738 48426 5//// 333 553// 20058;
0096066190999992011011109004+46833+006583FM-12+120299999V0202201N005119999999N9999999N1+00001-00231999999ADDMA1999999087361ME1314269REMSYN060AAXX  11094 06619 43/// /2210 10000 21023 38736 48426 5////;
0149066190999992011011110004+46833+006583FM-12+120299999V0202101N004619999999N9999999N1-00011-00271999999ADDMA1999999087351MD1710061+9999ME1314259OA149901241REMSYN088AAXX  11104 06619 33/// /2109 11001 21027 38735 48425 57006 333 55300 20490 91124 91211;
0149066190999992011011111004+46833+006583FM-12+120299999V0202201N001519999999N9999999N1+00011-00231999999ADDMA1999999087281MD1710101+9999ME1314189OA149901241REMSYN088AAXX  11114 06619 33/// /2203 10001 21023 38728 48418 57010 333 55300 20302 91124 91211;
0112066190999992011011112004+46833+006583FM-12+120299999V0202101N007219999999N9999999N1+00041-00171999999ADDMA1999999087241ME1314159REMSYN076AAXX  11124 06619 33/// /2114 10004 21017 38724 48415 5//// 333 553// 20198;
0155066190999992011011113004+46833+006583FM-12+120299999V0201801N001519999999N9999999N1-00111-00111999999ADDMA1999999087221MD1710131+9999ME1314129OA149901341REMSYN094AAXX  11134 06619 23/// /1803 11011 21011 38722 48412 57013 333 55300 20130 60015 91126 91214;
0096066190999992011011114004+46833+006583FM-12+120299999V0201801N001519999999N9999999N1-00141-00141999999ADDMA1999999087241ME1314149REMSYN060AAXX  11144 06619 43/// /1803 11014 21014 38724 48414 5////;
0096066190999992011011115004+46833+006583FM-12+120299999V0201701N001019999999N9999999N1-00101-00101999999ADDMA1999999087321ME1314219REMSYN060AAXX  11154 06619 43/// /1702 11010 21010 38732 48421 5////;
0155066190999992011011116004+46833+006583FM-12+120299999V0202101N002119999999N9999999N1-00051-00051999999ADDMA1999999087381MD1310161+9999ME1314279OA149900361REMSYN094AAXX  11164 06619 23/// /2104 11005 21005 38738 48427 53016 333 55300 20058 69955 91107 91204;
0155066190999992011011117004+46833+006583FM-12+120299999V0202101N001019999999N9999999N1-00041-00041999999ADDMA1999999087451MD1310201+9999ME1314349OA149900361REMSYN094AAXX  11174 06619 23/// /2102 11004 21004 38745 48434 53020 333 55300 20014 60015 91107 91204;
0191066190999992011011118004+46833+006583FM-12+120299999V0202101N000519999999N9999999N1-00041-00041999999ADDAA112006191KA1120M+00081MA1999999087531MD1310211+9999ME1314419OA149901341REMSYN106AAXX  11184 06619 03/// /2101 11004 21004 38753 48441 53021 60062 333 10008 55300 20011 69995 91126 91214;
0155066190999992011011119004+46833+006583FM-12+120299999V0202201N001519999999N9999999N1-00011-00051999999ADDMA1999999087631MD1310251+9999ME1314509OA149900361REMSYN094AAXX  11194 06619 23/// /2203 11001 21005 38763 48450 53025 333 55300 20011 69965 91107 91203;
0155066190999992011011120004+46833+006583FM-12+120299999V0202201N001519999999N9999999N1+00001-00041999999ADDMA1999999087671MD1110221+9999ME1314549OA149900461REMSYN094AAXX  11204 06619 23/// /2203 10000 21004 38767 48454 51022 333 55300 20011 69915 91109 91203;
0155066190999992011011121004+46833+006583FM-12+120299999V0202201N002119999999N9999999N1+00021+00001999999ADDMA1999999087771MD1210241+9999ME1314639OA149900511REMSYN094AAXX  11214 06619 23/// /2204 10002 20000 38777 48463 52024 333 55300 20011 69915 91110 91204;
0149066190999992011011122004+46833+006583FM-12+120299999V0202401N001019999999N9999999N1+00051+00001999999ADDMA1999999087871MD1310241+9999ME1314739OA149900511REMSYN088AAXX  11224 06619 33/// /2402 10005 20000 38787 48473 53024 333 55300 20011 91110 91204;
0155066190999992011011123004+46833+006583FM-12+120299999V0202001N001019999999N9999999N1-00031-00031999999ADDMA1999999087941MD1110271+9999ME1314789OA149900411REMSYN094AAXX  11234 06619 23/// /2002 11003 21003 38794 48478 51027 333 55300 20011 69915 91108 91203;
0172066190999992011011200004+46833+006583FM-12+120299999V0202301N000519999999N9999999N1+00041-00021999999ADDAA106001091MA1999999087991MD1110221+9999ME1314839OA149901291REMSYN100AAXX  12004 06619 03/// /2301 10004 21002 38799 48483 51022 60011 333 55300 20011 69945 91125 91213;
0155066190999992011011201004+46833+006583FM-12+120299999V0201701N000519999999N9999999N1-00041-00041999999ADDMA1999999088031MD1210161+9999ME1314869OA149900211REMSYN094AAXX  12014 06619 23/// /1701 11004 21004 38803 48486 52016 333 55300 20011 69915 91104 91201;
0118066190999992011011202004+46833+006583FM-12+120299999V0202401N001019999999N9999999N1+00021-00041999999ADDMA1999999088111ME1314949REMSYN082AAXX  12024 06619 23/// /2402 10002 21004 38811 48494 5//// 333 553// 20011 69925;
0096066190999992011011203004+46833+006583FM-12+120299999V0202801N001019999999N9999999N1+00031-00031999999ADDMA1999999088161ME1314999REMSYN060AAXX  12034 06619 43/// /2802 10003 21003 38816 48499 5////;
0096066190999992011011204004+46833+006583FM-12+120299999V0202601N000519999999N9999999N1+00021-00031999999ADDMA1999999088201ME1315029REMSYN060AAXX  12044 06619 43/// /2601 10002 21003 38820 48502 5////;
0118066190999992011011205004+46833+006583FM-12+120299999V0201901N001019999999N9999999N1-00061-00061999999ADDMA1999999088231ME1315049REMSYN082AAXX  12054 06619 23/// /1902 11006 21006 38823 48504 5//// 333 553// 20014 69925;
0168066190999992011011206004+46833+006583FM-12+120299999V0202001N000519999999N9999999N1-00031-00121999999ADDAA124008491GJ100129IA2999-00109KA1999N-00061MA1999999088281ME1315099REMSYN088AAXX  12064 06619 43/// /2001 11003 21012 38828 48509 5//// 333 21006 3/101 55002 70083;
0149066190999992011011207004+46833+006583FM-12+120299999V0202801N001019999999N9999999N1-00071-00171999999ADDMA1999999088331MD1210131+9999ME1315139OA149900361REMSYN088AAXX  12074 06619 33/// /2802 11007 21017 38833 48513 52013 333 55300 20011 91107 91202;
0096066190999992011011208004+46833+006583FM-12+120299999V0202601N001019999999N9999999N1-00071-00191999999ADDMA1999999088331ME1315139REMSYN060AAXX  12084 06619 43/// /2602 11007 21019 38833 48513 5////;
0096066190999992011011209004+46833+006583FM-12+120299999V0202401N001519999999N9999999N1+00011-00211999999ADDMA1999999088361ME1315169REMSYN060AAXX  12094 06619 43/// /2403 10001 21021 38836 48516 5////;
0149066190999992011011210004+46833+006583FM-12+120299999V0202201N001019999999N9999999N1+00021-00171999999ADDMA1999999088371MD1219999+9999ME1315179OA149900311REMSYN088AAXX  12104 06619 33/// /2202 10002 21017 38837 48517 52/// 333 55300 20313 91106 91203;
0126066190999992011011211004+46833+006583FM-12+120299999V0202201N001519999999N9999999N1+00051-00121999999ADDMA1999999088371MD1210041+9999ME1315189REMSYN076AAXX  12114 06619 33/// /2203 10005 21012 38837 48518 52004 333 55300 20655;
0096066190999992011011212004+46833+006583FM-12+120299999V0202301N002119999999N9999999N1+00151-00351999999ADDMA1999999088341ME1315169REMSYN060AAXX  12124 06619 43/// /2304 10015 21035 38834 48516 5////;
0096066190999992011011213004+46833+006583FM-12+120299999V0202301N001519999999N9999999N1+00101-00391999999ADDMA1999999088321ME1315149REMSYN060AAXX  12134 06619 43/// /2303 10010 21039 38832 48514 5////;
0096066190999992011011214004+46833+006583FM-12+120299999V0202101N001519999999N9999999N1-00021-00211999999ADDMA1999999088351ME1315159REMSYN060AAXX  12144 06619 43/// /2103 11002 21021 38835 48515 5////;
0096066190999992011011215004+46833+006583FM-12+120299999V0202201N001019999999N9999999N1+00011-00261999999ADDMA1999999088381ME1315189REMSYN060AAXX  12154 06619 43/// /2202 10001 21026 38838 48518 5////;
0149066190999992011011216004+46833+006583FM-12+120299999V0202301N002619999999N9999999N1+00061-00381999999ADDMA1999999088401MD1110081+9999ME1315219OA149900671REMSYN088AAXX  12164 06619 33/// /2305 10006 21038 38840 48521 51008 333 55300 20050 91113 91205;
0155066190999992011011217004+46833+006583FM-12+120299999V0202201N002119999999N9999999N1+00041+00001999999ADDMA1999999088441MD1110091+9999ME1315249OA149900721REMSYN094AAXX  12174 06619 23/// /2204 10004 20000 38844 48524 51009 333 55300 20014 69915 91114 91207;
0210066190999992011011218004+46833+006583FM-12+120299999V0202201N002619999999N9999999N1+00101+00081999999ADDAA112000091KA1120M+00151MA1999999088421MD1210041+9999ME1315239OA149900821REMSYN106AAXX  12184 06619 03/// /2205 10010 20008 38842 48523 52004 69922 333 10015 55300 20011 60005 91116 91208;EQDQ01  00002PRCP12
0155066190999992011011219004+46833+006583FM-12+120299999V0202201N002619999999N9999999N1+00151+00141999999ADDMA1999999088451MD1210051+9999ME1315269OA149900821REMSYN094AAXX  12194 06619 23/// /2205 10015 20014 38845 48526 52005 333 55300 20011 69935 91116 91208;
0174066190999992011011220004+46833+006583FM-12+120299999V0202101N002119999999N9999999N1+00161+00161999999ADDMA1999999088441MD1410001+9999ME1315259OA149900461REMSYN094AAXX  12204 06619 23/// /2104 10016 20016 38844 48525 52000 333 55300 20011 69935 91109 91205;EQDQ01+000022APCTEN
0155066190999992011011221004+46833+006583FM-12+120299999V0202201N002119999999N9999999N1+00241+00241999999ADDMA1999999088461MD1210041+9999ME1315289OA149900821REMSYN094AAXX  12214 06619 23/// /2204 10024 20024 38846 48528 52004 333 55300 20011 69995 91116 91208;
0155066190999992011011222004+46833+006583FM-12+120299999V0202401N002619999999N9999999N1+00311+00281999999ADDMA1999999088461MD1210011+9999ME1315299OA149900771REMSYN094AAXX  12224 06619 23/// /2405 10031 20028 38846 48529 52001 333 55300 20011 69975 91115 91207;
0155066190999992011011223004+46833+006583FM-12+120299999V0202401N003119999999N9999999N1+00331+00291999999ADDMA1999999088481MD1210041+9999ME1315319OA149900771REMSYN094AAXX  12234 06619 23/// /2406 10033 20029 38848 48531 52004 333 55300 20011 60015 91115 91207;
0191066190999992011011300004+46833+006583FM-12+120299999V0202301N002619999999N9999999N1+00351+00301999999ADDAA106005191MA1999999088461MD1410001+9999ME1315299OA149900931REMSYN100AAXX  13004 06619 03/// /2305 10035 20030 38846 48529 52000 60051 333 55300 20011 60025 91118 91208;EQDQ01+000022APCTEN
0155066190999992011011301004+46833+006583FM-12+120299999V0202301N002619999999N9999999N1+00371+00351999999ADDMA1999999088451MD1810011+9999ME1315299OA149900931REMSYN094AAXX  13014 06619 23/// /2305 10037 20035 38845 48529 58001 333 55300 20011 60015 91118 91207;
0155066190999992011011302004+46833+006583FM-12+120299999V0202301N002619999999N9999999N1+00371+00361999999ADDMA1999999088431MD1719999+9999ME1315279OA149900821REMSYN094AAXX  13024 06619 23/// /2305 10037 20036 38843 48527 57/// 333 55300 20011 69985 91116 91206;
0096066190999992011011303004+46833+006583FM-12+120299999V0202201N003119999999N9999999N1+00361+00361999999ADDMA1999999088401ME1315249REMSYN060AAXX  13034 06619 43/// /2206 10036 20036 38840 48524 5////;
0155066190999992011011304004+46833+006583FM-12+120299999V0202301N002619999999N9999999N1+00381+00371999999ADDMA1999999088431MD1719999+9999ME1315279OA149900771REMSYN094AAXX  13044 06619 23/// /2305 10038 20037 38843 48527 57/// 333 55300 20011 60025 91115 91207;
0118066190999992011011305004+46833+006583FM-12+120299999V0202301N002619999999N9999999N1+00411+00391999999ADDMA1999999088441ME1315289REMSYN082AAXX  13054 06619 23/// /2305 10041 20039 38844 48528 5//// 333 553// 20011 69955;
0239066190999992011011306004+46833+006583FM-12+120299999V0202301N002619999999N9999999N1+00411+00391999999ADDAA112009991AL10601091GJ100009IA2999+00109KA1999N+00101MA1999999088441MD1210041+9999ME1315289OA149900931REMSYN124AAXX  13064 06619 03/// /2305 10041 20039 38844 48528 52004 60102 333 20010 3/001 55000 55300 20011 60005 70101 91118 91207;
0096066190999992011011307004+46833+006583FM-12+120299999V0202301N003119999999N9999999N1+00431+00381999999ADDMA1999999088471ME1315319REMSYN060AAXX  13074 06619 43/// /2306 10043 20038 38847 48531 5////;
0096066190999992011011308004+46833+006583FM-12+120299999V0202201N003119999999N9999999N1+00401+00391999999ADDMA1999999088481ME1315329REMSYN060AAXX  13084 06619 43/// /2206 10040 20039 38848 48532 5////;
0096066190999992011011309004+46833+006583FM-12+120299999V0202101N003119999999N9999999N1+00461+00441999999ADDMA1999999088491ME1315349REMSYN060AAXX  13094 06619 43/// /2106 10046 20044 38849 48534 5////;
0096066190999992011011310004+46833+006583FM-12+120299999V0202101N003119999999N9999999N1+00481+00461999999ADDMA1999999088531ME1315379REMSYN060AAXX  13104 06619 43/// /2106 10048 20046 38853 48537 5////;
0096066190999992011011311004+46833+006583FM-12+120299999V0202201N002619999999N9999999N1+00571+00531999999ADDMA1999999088511ME1315379REMSYN060AAXX  13114 06619 43/// /2205 10057 20053 38851 48537 5////;
0096066190999992011011312004+46833+006583FM-12+120299999V0202101N001519999999N9999999N1+00541+00541999999ADDMA1999999088461ME1315329REMSYN060AAXX  13124 06619 43/// /2103 10054 20054 38846 48532 5////;
0096066190999992011011313004+46833+006583FM-12+120299999V0202001N001519999999N9999999N1+00561+00561999999ADDMA1999999088431ME1315299REMSYN060AAXX  13134 06619 43/// /2003 10056 20056 38843 48529 5////;
0096066190999992011011314004+46833+006583FM-12+120299999V0202101N001519999999N9999999N1+00571+00571999999ADDMA1999999088441ME1315309REMSYN060AAXX  13144 06619 43/// /2103 10057 20057 38844 48530 5////;
0096066190999992011011315004+46833+006583FM-12+120299999V0202201N002119999999N9999999N1+00551+00551999999ADDMA1999999088451ME1315319REMSYN060AAXX  13154 06619 43/// /2204 10055 20055 38845 48531 5////;
0096066190999992011011316004+46833+006583FM-12+120299999V0202201N001519999999N9999999N1+00581+00551999999ADDMA1999999088471ME1315339REMSYN060AAXX  13164 06619 43/// /2203 10058 20055 38847 48533 5////;
0155066190999992011011317004+46833+006583FM-12+120299999V0202401N002619999999N9999999N1+00561+00521999999ADDMA1999999088461MD1210021+9999ME1315329OA149900571REMSYN094AAXX  13174 06619 23/// /2405 10056 20052 38846 48532 52002 333 55300 20014 69915 91111 91205;
0191066190999992011011318004+46833+006583FM-12+120299999V0202001N002119999999N9999999N1+00551+00551999999ADDAA112000891KA1120M+00621MA1999999088441MD1810011+9999ME1315309OA149900981REMSYN106AAXX  13184 06619 03/// /2004 10055 20055 38844 48530 58001 69982 333 10062 55300 20011 69915 91119 91207;
0149066190999992011011319004+46833+006583FM-12+120299999V0202601N001519999999N9999999N1+00521+00491999999ADDMA1999999088411MD1710061+9999ME1315279OA149900981REMSYN088AAXX  13194 06619 33/// /2603 10052 20049 38841 48527 57006 333 55300 20011 91119 91205;
0149066190999992011011320004+46833+006583FM-12+120299999V0202701N001019999999N9999999N1+00511+00461999999ADDMA1999999088411MD1710051+9999ME1315279OA149900981REMSYN088AAXX  13204 06619 33/// /2702 10051 20046 38841 48527 57005 333 55300 20011 91119 91204;
0149066190999992011011321004+46833+006583FM-12+120299999V0202901N002119999999N9999999N1+00521+00431999999ADDMA1999999088431MD1510011+9999ME1315299OA149900981REMSYN088AAXX  13214 06619 33/// /2904 10052 20043 38843 48529 55001 333 55300 20011 91119 91205;
0149066190999992011011322004+46833+006583FM-12+120299999V0202701N002119999999N9999999N1+00511+00431999999ADDMA1999999088421MD1010011+9999ME1315289OA149900771REMSYN088AAXX  13224 06619 33/// /2704 10051 20043 38842 48528 50001 333 55300 20011 91115 91205;
0149066190999992011011323004+46833+006583FM-12+120299999V0202701N002119999999N9999999N1+00481+00381999999ADDMA1999999088431MD1210021+9999ME1315289OA149900771REMSYN088AAXX  13234 06619 33/// /2704 10048 20038 38843 48528 52002 333 55300 20011 91115 91205;
0149066190999992011011400004+46833+006583FM-12+120299999V0202701N002119999999N9999999N1+00451+00371999999ADDMA1999999088411MD1710021+9999ME1315269OA149900981REMSYN088AAXX  14004 06619 33/// /2704 10045 20037 38841 48526 57002 333 55300 20011 91119 91205;
0149066190999992011011401004+46833+006583FM-12+120299999V0202401N002619999999N9999999N1+00431+00381999999ADDMA1999999088391MD1710031+9999ME1315249OA149900821REMSYN088AAXX  14014 06619 33/// /2405 10043 20038 38839 48524 57003 333 55300 20011 91116 91206;
0112066190999992011011402004+46833+006583FM-12+120299999V0202501N002119999999N9999999N1+00411+00321999999ADDMA1999999088431ME1315279REMSYN076AAXX  14024 06619 33/// /2504 10041 20032 38843 48527 5//// 333 553// 20011;
0170066190999992011011403004+46833+006583FM-12+120299999V0202201N002619999999N9999999N1+00391+00301999999ADDMA1999999088411ME1315259OA149900821REMSYN088AAXX  14034 06619 33/// /2205 10039 20030 38841 48525 52000 333 55300 20014 91116 91206;EQDQ01+000022APCTENQ02+000002APC3  
0149066190999992011011404004+46833+006583FM-12+120299999V0202401N001519999999N9999999N1+00361+00261999999ADDMA1999999088401MD1010011+9999ME1315249OA149900721REMSYN088AAXX  14044 06619 33/// /2403 10036 20026 38840 48524 50001 333 55300 20014 91114 91205;
0149066190999992011011405004+46833+006583FM-12+120299999V0202301N001019999999N9999999N1+00331+00271999999ADDMA1999999088401MD1710031+9999ME1315249OA149900571REMSYN088AAXX  14054 06619 33/// /2302 10033 20027 38840 48524 57003 333 55300 20011 91111 91205;
0216066190999992011011406004+46833+006583FM-12+120299999V0202401N000519999999N9999999N1+00301+00231999999ADDAL14800091GJ100069IA2999+00309KA1999N+00321MA1999999088401MD1510011+9999ME1315239OA149900981REMSYN112AAXX  14064 06619 33/// /2401 10030 20023 38840 48523 55001 333 20032 3/003 55001 55300 20011 70008 91119 91206;
0149066190999992011011407004+46833+006583FM-12+120299999V0203401N000519999999N9999999N1+00311+00231999999ADDMA1999999088421MD1210021+9999ME1315259OA149900361REMSYN088AAXX  14074 06619 33/// /3401 10031 20023 38842 48525 52002 333 55300 20014 91107 91203;
0096066190999992011011408004+46833+006583FM-12+120299999V0202901N001019999999N9999999N1+00281+00211999999ADDMA1999999088391ME1315229REMSYN060AAXX  14084 06619 43/// /2902 10028 20021 38839 48522 5////;
0096066190999992011011409004+46833+006583FM-12+120299999V0202201N001019999999N9999999N1+00361+00241999999ADDMA1999999088371ME1315219REMSYN060AAXX  14094 06619 43/// /2202 10036 20024 38837 48521 5////;
0096066190999992011011410004+46833+006583FM-12+120299999V0202301N001019999999N9999999N1+00371+00281999999ADDMA1999999088351ME1315209REMSYN060AAXX  14104 06619 43/// /2302 10037 20028 38835 48520 5////;
0149066190999992011011411004+46833+006583FM-12+120299999V0203301N000519999999N9999999N1+00381+00281999999ADDMA1999999088341MD1710051+9999ME1315199OA149900311REMSYN088AAXX  14114 06619 33/// /3301 10038 20028 38834 48519 57005 333 55300 20482 91106 91203;
0149066190999992011011412004+46833+006583FM-12+120299999V0200201N001019999999N9999999N1+00431+00321999999ADDMA1999999088301MD1710071+9999ME1315169OA149900821REMSYN088AAXX  14124 06619 33/// /0202 10043 20032 38830 48516 57007 333 55300 20590 91116 91206;
0149066190999992011011413004+46833+006583FM-12+120299999V0202001N001519999999N9999999N1+00461+00351999999ADDMA1999999088251MD1710101+9999ME1315129OA149900411REMSYN088AAXX  14134 06619 33/// /2003 10046 20035 38825 48512 57010 333 55301 2//// 91108 91204;
0112066190999992011011414004+46833+006583FM-12+120299999V0202001N001519999999N9999999N1+00451+00321999999ADDMA1999999088241ME1315119REMSYN076AAXX  14144 06619 33/// /2003 10045 20032 38824 48511 5//// 333 553// 20817;
0149066190999992011011415004+46833+006583FM-12+120299999V0202001N001019999999N9999999N1+00431+00341999999ADDMA1999999088241MD1610061+9999ME1315109OA149900411REMSYN088AAXX  14154 06619 33/// /2002 10043 20034 38824 48510 56006 333 55300 20385 91108 91204;
0149066190999992011011416004+46833+006583FM-12+120299999V0202501N000519999999N9999999N1+00341+00301999999ADDMA1999999088231MD1710021+9999ME1315089OA149900311REMSYN088AAXX  14164 06619 33/// /2501 10034 20030 38823 48508 57002 333 55300 20133 91106 91203;
0149066190999992011011417004+46833+006583FM-12+120299999V0202401N001019999999N9999999N1+00351+00231999999ADDMA1999999088211MD1710031+9999ME1315079OA149900361REMSYN088AAXX  14174 06619 33/// /2402 10035 20023 38821 48507 57003 333 55300 20018 91107 91203;
0168066190999992011011418004+46833+006583FM-12+120299999V0202401N002119999999N9999999N1+00581-00311999999ADDKA1120M+00541MA1999999088211MD1710031+9999ME1315099OA149900461REMSYN094AAXX  14184 06619 33/// /2404 10058 21031 38821 48509 57003 333 10054 55300 20011 91109 91205;
0149066190999992011011419004+46833+006583FM-12+120299999V0202201N003619999999N9999999N1+00571-00241999999ADDMA1999999088211MD1710021+9999ME1315099OA149900771REMSYN088AAXX  14194 06619 33/// /2207 10057 21024 38821 48509 57002 333 55300 20011 91115 91207;
0149066190999992011011420004+46833+006583FM-12+120299999V0202201N004619999999N9999999N1+00511+00021999999ADDMA1999999088221MD1210011+9999ME1315099OA149901341REMSYN088AAXX  14204 06619 33/// /2209 10051 20002 38822 48509 52001 333 55300 20011 91126 91209;
0149066190999992011011421004+46833+006583FM-12+120299999V0202301N005719999999N9999999N1+00461+00151999999ADDMA1999999088241MD1210031+9999ME1315119OA149901601REMSYN088AAXX  14214 06619 33/// /2311 10046 20015 38824 48511 52003 333 55300 20011 91131 91212;
0149066190999992011011422004+46833+006583FM-12+120299999V0203201N003119999999N9999999N1+00411+00171999999ADDMA1999999088241MD1210031+9999ME1315109OA149901961REMSYN088AAXX  14224 06619 33/// /3206 10041 20017 38824 48510 52003 333 55300 20011 91138 91212;
0149066190999992011011423004+46833+006583FM-12+120299999V0202701N004119999999N9999999N1+00411+00221999999ADDMA1999999088421MD1210201+9999ME1315279OA149901961REMSYN088AAXX  14234 06619 33/// /2708 10041 20022 38842 48527 52020 333 55300 20011 91138 91211;
0172066190999992011011500004+46833+006583FM-12+120299999V0202401N003619999999N9999999N1+00381+00281999999ADDAA106000891MA1999999088501MD1210261+9999ME1315339OA149901961REMSYN100AAXX  15004 06619 03/// /2407 10038 20028 38850 48533 52026 69971 333 55300 20014 69975 91138 91212;
0155066190999992011011501004+46833+006583FM-12+120299999V0202701N003119999999N9999999N1+00341+00261999999ADDMA1999999088521MD1210281+9999ME1315359OA149901181REMSYN094AAXX  15014 06619 23/// /2706 10034 20026 38852 48535 52028 333 55300 20011 60015 91123 91209;
0155066190999992011011502004+46833+006583FM-12+120299999V0202801N002619999999N9999999N1+00291+00221999999ADDMA1999999088531MD1219999+9999ME1315359OA149901241REMSYN094AAXX  15024 06619 23/// /2805 10029 20022 38853 48535 52/// 333 55300 20011 69955 91124 91209;
0118066190999992011011503004+46833+006583FM-12+120299999V0202701N001519999999N9999999N1+00271+00171999999ADDMA1999999088641ME1315459REMSYN082AAXX  15034 06619 23/// /2703 10027 20017 38864 48545 5//// 333 553// 20011 69965;
0149066190999992011011504004+46833+006583FM-12+120299999V0202401N001519999999N9999999N1+00231+00121999999ADDMA1999999088711MD1210191+9999ME1315519OA149900981REMSYN088AAXX  15044 06619 33/// /2403 10023 20012 38871 48551 52019 333 55300 20011 91119 91205;
0149066190999992011011505004+46833+006583FM-12+120299999V0200101N001019999999N9999999N1+00181+00121999999ADDMA1999999088771MD1110241+9999ME1315559OA149900671REMSYN088AAXX  15054 06619 33/// /0102 10018 20012 38877 48555 51024 333 55300 20011 91113 91205;
0239066190999992011011506004+46833+006583FM-12+120299999V0202401N001519999999N9999999N1+00201+00061999999ADDAA112003091AL19900391GJ100249IA2999+00109KA1999N+00181MA1999999088801MD1110161+9999ME1315589OA149901961REMSYN124AAXX  15064 06619 03/// /2403 10020 20006 38880 48558 51016 60032 333 20018 3/001 55004 55300 20011 69915 70030 91138 91212;
0149066190999992011011507004+46833+006583FM-12+120299999V0202601N001519999999N9999999N1+00151-00031999999ADDMA1999999088821MD1210111+9999ME1315609OA149900721REMSYN088AAXX  15074 06619 33/// /2603 10015 21003 38882 48560 52011 333 55300 20011 91114 91203;
0149066190999992011011508004+46833+006583FM-12+120299999V0202601N001019999999N9999999N1+00201-00011999999ADDMA1999999088831MD1219999+9999ME1315619OA149900721REMSYN088AAXX  15084 06619 33/// /2602 10020 21001 38883 48561 52/// 333 55304 20108 91114 91204;
0149066190999992011011509004+46833+006583FM-12+120299999V0203101N001519999999N9999999N1+00251-00071999999ADDMA1999999088871MD1310071+9999ME1315659OA149900821REMSYN088AAXX  15094 06619 33/// /3103 10025 21007 38887 48565 53007 333 553// 20461 91116 91205;
0149066190999992011011510004+46833+006583FM-12+120299999V0203101N001019999999N9999999N1+00361-00111999999ADDMA1999999088881MD1210061+9999ME1315689OA149900821REMSYN088AAXX  15104 06619 33/// /3102 10036 21011 38888 48568 52006 333 553// 20929 91116 91205;
0149066190999992011011511004+46833+006583FM-12+120299999V0201301N002619999999N9999999N1+00501+00081999999ADDMA1999999088841MD1010011+9999ME1315669OA149900671REMSYN088AAXX  15114 06619 33/// /1305 10050 20008 38884 48566 50001 333 553// 2//// 91113 91205;
0149066190999992011011512004+46833+006583FM-12+120299999V0201901N001019999999N9999999N1+00481+00191999999ADDMA1999999088811MD1710061+9999ME1315639OA149901241REMSYN088AAXX  15124 06619 33/// /1902 10048 20019 38881 48563 57006 333 553// 2//// 91124 91209;
0112066190999992011011513004+46833+006583FM-12+120299999V0201501N001019999999N9999999N1+00471+00201999999ADDMA1999999088771ME1315599REMSYN076AAXX  15134 06619 33/// /1502 10047 20020 38877 48559 5//// 333 553// 2////;
0096066190999992011011514004+46833+006583FM-12+120299999V0201401N001019999999N9999999N1+00471+00171999999ADDMA1999999088801ME1315629REMSYN060AAXX  15144 06619 43/// /1402 10047 20017 38880 48562 5////;
0096066190999992011011515004+46833+006583FM-12+120299999V0201801N000519999999N9999999N1+00391+00171999999ADDMA1999999088851ME1315659REMSYN060AAXX  15154 06619 43/// /1801 10039 20017 38885 48565 5////;
0096066190999992011011516004+46833+006583FM-12+120299999V0203401N000519999999N9999999N1+00251+00131999999ADDMA1999999088881ME1315669REMSYN060AAXX  15164 06619 43/// /3401 10025 20013 38888 48566 5////;
0112066190999992011011517004+46833+006583FM-12+120299999V0202901N001019999999N9999999N1+00201+00091999999ADDMA1999999088901ME1315679REMSYN076AAXX  15174 06619 33/// /2902 10020 20009 38890 48567 5//// 333 553// 20022;
0119066190999992011011518004+46833+006583FM-12+120299999V0203201N001019999999N9999999N1+00191+00081999999ADDKA1999M+00601MA1999999088911ME1315689REMSYN070AAXX  15184 06619 43/// /3202 10019 20008 38891 48568 5//// 333 10060;
0096066190999992011011519004+46833+006583FM-12+120299999V0202301N000519999999N9999999N1+00231+00041999999ADDMA1999999088921ME1315709REMSYN060AAXX  15194 06619 43/// /2301 10023 20004 38892 48570 5////;
0096066190999992011011520004+46833+006583FM-12+120299999V0209999C000019999999N9999999N1+00281+00061999999ADDMA1999999088931ME1315719REMSYN060AAXX  15204 06619 43/// /0000 10028 20006 38893 48571 5////;
0149066190999992011011521004+46833+006583FM-12+120299999V0202601N000519999999N9999999N1+00071-00071999999ADDMA1999999088921MD1010011+9999ME1315679OA149900311REMSYN088AAXX  15214 06619 33/// /2601 10007 21007 38892 48567 50001 333 55300 20014 91106 91204;
0149066190999992011011522004+46833+006583FM-12+120299999V0203201N001019999999N9999999N1+00171-00021999999ADDMA1999999088921MD1410001+9999ME1315699OA149900151REMSYN088AAXX  15224 06619 33/// /3202 10017 21002 38892 48569 54000 333 55300 20011 91103 91202;
0149066190999992011011523004+46833+006583FM-12+120299999V0203201N000519999999N9999999N1+00341-00451999999ADDMA1999999088891MD1710041+9999ME1315689OA149900261REMSYN088AAXX  15234 06619 33/// /3201 10034 21045 38889 48568 57004 333 55300 20011 91105 91204;
0149066190999992011011600004+46833+006583FM-12+120299999V0203101N000519999999N9999999N1+00391-00741999999ADDMA1999999088841MD1810081+9999ME1315659OA149900311REMSYN088AAXX  16004 06619 33/// /3101 10039 21074 38884 48565 58008 333 55300 20011 91106 91204;
0149066190999992011011601004+46833+006583FM-12+120299999V0203501N001019999999N9999999N1+00421-01071999999ADDMA1999999088841MD1710081+9999ME1315659OA149900151REMSYN088AAXX  16014 06619 33/// /3502 10042 21107 38884 48565 57008 333 55300 20011 91103 91202;
0149066190999992011011602004+46833+006583FM-12+120299999V0203201N000519999999N9999999N1+00571-00681999999ADDMA1999999088811MD1719999+9999ME1315649OA149900311REMSYN088AAXX  16024 06619 33/// /3201 10057 21068 38881 48564 57/// 333 55300 20011 91106 91205;
0096066190999992011011603004+46833+006583FM-12+120299999V0203501N002119999999N9999999N1+00451-01241999999ADDMA1999999088791ME1315619REMSYN060AAXX  16034 06619 43/// /3504 10045 21124 38879 48561 5////;
0149066190999992011011604004+46833+006583FM-12+120299999V0203501N001519999999N9999999N1+00371-01051999999ADDMA1999999088801MD1710041+9999ME1315619OA149900311REMSYN088AAXX  16044 06619 33/// /3503 10037 21105 38880 48561 57004 333 55300 20011 91106 91204;
0149066190999992011011605004+46833+006583FM-12+120299999V0203501N001519999999N9999999N1+00381-01071999999ADDMA1999999088811MD1010001+9999ME1315629OA149900361REMSYN088AAXX  16054 06619 33/// /3503 10038 21107 38881 48562 50000 333 55300 20014 91107 91206;
0216066190999992011011606004+46833+006583FM-12+120299999V0209999C000019999999N9999999N1+00361-00881999999ADDAL19900091GJ104389IA2999-00209KA1999N+00071MA1999999088831MD1210041+9999ME1315639OA149900361REMSYN112AAXX  16064 06619 33/// /0000 10036 21088 38883 48563 52004 333 20007 3/102 55073 55300 20014 70000 91107 91206;
0149066190999992011011607004+46833+006583FM-12+120299999V0203301N000519999999N9999999N1+00221-00811999999ADDMA1999999088861MD1310061+9999ME1315649OA149900211REMSYN088AAXX  16074 06619 33/// /3301 10022 21081 38886 48564 53006 333 55300 20014 91104 91203;
0149066190999992011011608004+46833+006583FM-12+120299999V0202101N000519999999N9999999N1+00481-00741999999ADDMA1999999088871MD1119999+9999ME1315689OA149900151REMSYN088AAXX  16084 06619 33/// /2101 10048 21074 38887 48568 51/// 333 55304 20097 91103 91202;
0149066190999992011011609004+46833+006583FM-12+120299999V0202001N001019999999N9999999N1+00591-00211999999ADDMA1999999088881MD1110051+9999ME1315719OA149900361REMSYN088AAXX  16094 06619 33/// /2002 10059 21021 38888 48571 51005 333 553// 20522 91107 91206;
0149066190999992011011610004+46833+006583FM-12+120299999V0201701N001019999999N9999999N1+00641+00031999999ADDMA1999999088891MD1110031+9999ME1315729OA149900261REMSYN088AAXX  16104 06619 33/// /1702 10064 20003 38889 48572 51003 333 553// 2//// 91105 91203;
0149066190999992011011611004+46833+006583FM-12+120299999V0200801N000519999999N9999999N1+00661+00051999999ADDMA1999999088881MD1010011+9999ME1315729OA149900261REMSYN088AAXX  16114 06619 33/// /0801 10066 20005 38888 48572 50001 333 553// 2//// 91105 91203;
0149066190999992011011612004+46833+006583FM-12+120299999V0201601N000519999999N9999999N1+00701+00211999999ADDMA1999999088841MD1810041+9999ME1315699OA149900361REMSYN088AAXX  16124 06619 33/// /1601 10070 20021 38884 48569 58004 333 553// 2//// 91107 91206;
0149066190999992011011613004+46833+006583FM-12+120299999V0201001N000519999999N9999999N1+00861+00051999999ADDMA1999999088811MD1810081+9999ME1315689OA149900211REMSYN088AAXX  16134 06619 33/// /1001 10086 20005 38881 48568 58008 333 553// 2//// 91104 91202;
0149066190999992011011614004+46833+006583FM-12+120299999V0201701N000519999999N9999999N1+00891+00161999999ADDMA1999999088791MD1719999+9999ME1315679OA149900211REMSYN088AAXX  16144 06619 33/// /1701 10089 20016 38879 48567 57/// 333 553// 2//// 91104 91202;
0149066190999992011011615004+46833+006583FM-12+120299999V0202101N000519999999N9999999N1+00911-00151999999ADDMA1999999088801MD1510041+9999ME1315689OA149900261REMSYN088AAXX  16154 06619 33/// /2101 10091 21015 38880 48568 55004 333 553// 20752 91105 91203;
0149066190999992011011616004+46833+006583FM-12+120299999V0202701N000519999999N9999999N1+00781-00341999999ADDMA1999999088791MD1710021+9999ME1315659OA149900211REMSYN088AAXX  16164 06619 33/// /2701 10078 21034 38879 48565 57002 333 55302 20115 91104 91202;
0149066190999992011011617004+46833+006583FM-12+120299999V0203201N001519999999N9999999N1+00671-00551999999ADDMA1999999088821MD1210031+9999ME1315669OA149900311REMSYN088AAXX  16174 06619 33/// /3203 10067 21055 38882 48566 52003 333 55300 20022 91106 91204;
0168066190999992011011618004+46833+006583FM-12+120299999V0203001N001019999999N9999999N1+00701-01061999999ADDKA1120M+00961MA1999999088841MD1210041+9999ME1315699OA149900311REMSYN094AAXX  16184 06619 33/// /3002 10070 21106 38884 48569 52004 333 10096 55300 20011 91106 91204;
0149066190999992011011619004+46833+006583FM-12+120299999V0202601N002119999999N9999999N1+00781-01021999999ADDMA1999999088871MD1310081+9999ME1315739OA149900671REMSYN088AAXX  16194 06619 33/// /2604 10078 21102 38887 48573 53008 333 55300 20011 91113 91204;
0149066190999992011011620004+46833+006583FM-12+120299999V0202301N001019999999N9999999N1+00741-00891999999ADDMA1999999088881MD1210061+9999ME1315739OA149900721REMSYN088AAXX  16204 06619 33/// /2302 10074 21089 38888 48573 52006 333 55300 20011 91114 91206;
0149066190999992011011621004+46833+006583FM-12+120299999V0202501N001019999999N9999999N1+00791-00661999999ADDMA1999999088891MD1210051+9999ME1315759OA149900721REMSYN088AAXX  16214 06619 33/// /2502 10079 21066 38889 48575 52005 333 55300 20011 91114 91206;
0149066190999992011011622004+46833+006583FM-12+120299999V0202301N001519999999N9999999N1+00711-00481999999ADDMA1999999088871MD1010001+9999ME1315729OA149900461REMSYN088AAXX  16224 06619 33/// /2303 10071 21048 38887 48572 50000 333 55300 20011 91109 91204;
0149066190999992011011623004+46833+006583FM-12+120299999V0202401N001019999999N9999999N1+00611-00441999999ADDMA1999999088871MD1710011+9999ME1315709OA149900461REMSYN088AAXX  16234 06619 33/// /2402 10061 21044 38887 48570 57001 333 55300 20011 91109 91204;
0149066190999992011011700004+46833+006583FM-12+120299999V0202501N001019999999N9999999N1+00601-00381999999ADDMA1999999088851MD1710041+9999ME1315689OA149900721REMSYN088AAXX  17004 06619 33/// /2502 10060 21038 38885 48568 57004 333 55300 20011 91114 91206;
0149066190999992011011701004+46833+006583FM-12+120299999V0202301N001019999999N9999999N1+00581-00501999999ADDMA1999999088831MD1710041+9999ME1315669OA149900461REMSYN088AAXX  17014 06619 33/// /2302 10058 21050 38883 48566 57004 333 55300 20011 91109 91204;
0149066190999992011011702004+46833+006583FM-12+120299999V0203101N001019999999N9999999N1+00491-00481999999ADDMA1999999088821MD1719999+9999ME1315649OA149900411REMSYN088AAXX  17024 06619 33/// /3102 10049 21048 38882 48564 57/// 333 55300 20014 91108 91203;
0112066190999992011011703004+46833+006583FM-12+120299999V0203101N001019999999N9999999N1+00471-00541999999ADDMA1999999088811ME1315639REMSYN076AAXX  17034 06619 33/// /3102 10047 21054 38881 48563 5//// 333 553// 20014;
0149066190999992011011704004+46833+006583FM-12+120299999V0203401N001019999999N9999999N1+00451-00561999999ADDMA1999999088771MD1810061+9999ME1315599OA149900211REMSYN088AAXX  17044 06619 33/// /3402 10045 21056 38877 48559 58006 333 55300 20014 91104 91203;
0149066190999992011011705004+46833+006583FM-12+120299999V0202801N000519999999N9999999N1+00451-00541999999ADDMA1999999088741MD1810081+9999ME1315569OA149900211REMSYN088AAXX  17054 06619 33/// /2801 10045 21054 38874 48556 58008 333 55300 20011 91104 91203;
0216066190999992011011706004+46833+006583FM-12+120299999V0202001N000519999999N9999999N1+00501-00501999999ADDAL19900091GJ104509IA2999-00109KA1999N+00351MA1999999088721MD1810091+9999ME1315559OA149900721REMSYN112AAXX  17064 06619 33/// /2001 10050 21050 38872 48555 58009 333 20035 3/101 55075 55300 20011 70000 91114 91206;
0149066190999992011011707004+46833+006583FM-12+120299999V0202601N001019999999N9999999N1+00431-00431999999ADDMA1999999088711MD1610061+9999ME1315539OA149900261REMSYN088AAXX  17074 06619 33/// /2602 10043 21043 38871 48553 56006 333 55300 20014 91105 91203;
0096066190999992011011708004+46833+006583FM-12+120299999V0202301N000519999999N9999999N1+00451-00371999999ADDMA1999999088711ME1315549REMSYN060AAXX  17084 06619 43/// /2301 10045 21037 38871 48554 5////;
0096066190999992011011709004+46833+006583FM-12+120299999V0201701N000519999999N9999999N1+00621-00231999999ADDMA1999999088721ME1315579REMSYN060AAXX  17094 06619 43/// /1701 10062 21023 38872 48557 5////;
0149066190999992011011710004+46833+006583FM-12+120299999V0201701N001019999999N9999999N1+00631-00121999999ADDMA1999999088751MD1310041+9999ME1315609OA149900211REMSYN088AAXX  17104 06619 33/// /1702 10063 21012 38875 48560 53004 333 553// 20986 91104 91203;
0149066190999992011011711004+46833+006583FM-12+120299999V0201801N001519999999N9999999N1+00611-00131999999ADDMA1999999088741MD1210031+9999ME1315589OA149900411REMSYN088AAXX  17114 06619 33/// /1803 10061 21013 38874 48558 52003 333 553// 2//// 91108 91203;
0149066190999992011011712004+46833+006583FM-12+120299999V0201801N001519999999N9999999N1+00661+00061999999ADDMA1999999088721MD1010001+9999ME1315579OA149900411REMSYN088AAXX  17124 06619 33/// /1803 10066 20006 38872 48557 50000 333 553// 2//// 91108 91204;
0149066190999992011011713004+46833+006583FM-12+120299999V0201801N001019999999N9999999N1+00671+00031999999ADDMA1999999088711MD1710041+9999ME1315569OA149900411REMSYN088AAXX  17134 06619 33/// /1802 10067 20003 38871 48556 57004 333 553// 2//// 91108 91204;
0096066190999992011011714004+46833+006583FM-12+120299999V0202101N001519999999N9999999N1+00821-00041999999ADDMA1999999088731ME1315609REMSYN060AAXX  17144 06619 43/// /2103 10082 21004 38873 48560 5////;
0096066190999992011011715004+46833+006583FM-12+120299999V0202401N002119999999N9999999N1+00681-00051999999ADDMA1999999088761ME1315619REMSYN060AAXX  17154 06619 43/// /2404 10068 21005 38876 48561 5////;
0149066190999992011011716004+46833+006583FM-12+120299999V0202501N001519999999N9999999N1+00601-00111999999ADDMA1999999088781MD1110071+9999ME1315629OA149900671REMSYN088AAXX  17164 06619 33/// /2503 10060 21011 38878 48562 51007 333 55301 20205 91113 91205;
0149066190999992011011717004+46833+006583FM-12+120299999V0200301N001019999999N9999999N1+00461-00171999999ADDMA1999999088801MD1110071+9999ME1315629OA149900511REMSYN088AAXX  17174 06619 33/// /0302 10046 21017 38880 48562 51007 333 55300 20032 91110 91205;
0168066190999992011011718004+46833+006583FM-12+120299999V0203301N001019999999N9999999N1+00541-00241999999ADDKA1120M+00821MA1999999088811MD1210051+9999ME1315649OA149900671REMSYN094AAXX  17184 06619 33/// /3302 10054 21024 38881 48564 52005 333 10082 55300 20011 91113 91205;
0149066190999992011011719004+46833+006583FM-12+120299999V0203101N001019999999N9999999N1+00551-00201999999ADDMA1999999088831MD1210051+9999ME1315669OA149900461REMSYN088AAXX  17194 06619 33/// /3102 10055 21020 38883 48566 52005 333 55300 20011 91109 91203;
0149066190999992011011720004+46833+006583FM-12+120299999V0209999C000019999999N9999999N1+00411-00171999999ADDMA1999999088831MD1210031+9999ME1315649OA149900461REMSYN088AAXX  17204 06619 33/// /0000 10041 21017 38883 48564 52003 333 55300 20014 91109 91203;
0149066190999992011011721004+46833+006583FM-12+120299999V0201201N000519999999N9999999N1+00381-00181999999ADDMA1999999088831MD1210021+9999ME1315649OA149900511REMSYN088AAXX  17214 06619 33/// /1201 10038 21018 38883 48564 52002 333 55300 20014 91110 91205;
0149066190999992011011722004+46833+006583FM-12+120299999V0209999C000019999999N9999999N1+00491-00131999999ADDMA1999999088831MD1010001+9999ME1315659OA149900361REMSYN088AAXX  17224 06619 33/// /0000 10049 21013 38883 48565 50000 333 55300 20011 91107 91202;
0149066190999992011011723004+46833+006583FM-12+120299999V0201901N000519999999N9999999N1+00441-00101999999ADDMA1999999088831MD1510001+9999ME1315649OA149900261REMSYN088AAXX  17234 06619 33/// /1901 10044 21010 38883 48564 55000 333 55300 20014 91105 91202;
0149066190999992011011800004+46833+006583FM-12+120299999V0202401N000519999999N9999999N1+00511-00071999999ADDMA1999999088821MD1010011+9999ME1315649OA149900671REMSYN088AAXX  18004 06619 33/// /2401 10051 21007 38882 48564 50001 333 55300 20011 91113 91205;
0149066190999992011011801004+46833+006583FM-12+120299999V0209999C001519999999N9999999N1+00481+00001999999ADDMA1999999088801MD1719999+9999ME1315629OA149900361REMSYN088AAXX  18014 06619 33/// /0003 10048 20000 38880 48562 57/// 333 55300 20014 91107 91203;
0096066190999992011011802004+46833+006583FM-12+120299999V0203201N001019999999N9999999N1+00321-00011999999ADDMA1999999088791ME1315599REMSYN060AAXX  18024 06619 43/// /3202 10032 21001 38879 48559 5////;
0096066190999992011011803004+46833+006583FM-12+120299999V0209999C000019999999N9999999N1+00261+00021999999ADDMA1999999088751ME1315559REMSYN060AAXX  18034 06619 43/// /0000 10026 20002 38875 48555 5////;
0112066190999992011011804004+46833+006583FM-12+120299999V0203601N001019999999N9999999N1+00321+00021999999ADDMA1999999088731ME1315549REMSYN076AAXX  18044 06619 33/// /3602 10032 20002 38873 48554 5//// 333 553// 20011;
0149066190999992011011805004+46833+006583FM-12+120299999V0203401N001519999999N9999999N1+00341+00041999999ADDMA1999999088711MD1610081+9999ME1315529OA149900511REMSYN088AAXX  18054 06619 33/// /3403 10034 20004 38871 48552 56008 333 55300 20011 91110 91203;
0216066190999992011011806004+46833+006583FM-12+120299999V0201601N000519999999N9999999N1+00251+00061999999ADDAL19900091GJ104509IA2999-00109KA1999N+00231MA1999999088711MD1710041+9999ME1315519OA149900511REMSYN112AAXX  18064 06619 33/// /1601 10025 20006 38871 48551 57004 333 20023 3/101 55075 55300 20014 70000 91110 91203;
0149066190999992011011807004+46833+006583FM-12+120299999V0201701N000519999999N9999999N1+00311+00001999999ADDMA1999999088731MD1510001+9999ME1315549OA149900361REMSYN088AAXX  18074 06619 33/// /1701 10031 20000 38873 48554 55000 333 55300 20014 91107 91203;
