0186066140999992010010408504+46750+008117FM-15+0579LSMM V0201201N001010075019N0033001N1-00401-00501999999ADDGA1041+005101999GA2071+007501999GA3071+010501999GF107991999999999999999999MA1101191999999MW1711REMMET079METAR LSMM 040850Z 12002KT 3300 -SN SCT017 BKN025 BKN035 M04/M05 Q1012 RMK GRN;
0163066140999992010010409504+46750+008117FM-15+0579LSMM V0209999V000510135019N0040001N1-00401-00501999999ADDGA1041+006901999GA2081+013501999GF108991999999999999999999MA1101191999999MW1711REMMET072METAR LSMM 040950Z VRB01KT 4000 -SN SCT023 OVC045 M04/M05 Q1012 RMK GRN;
0163066140999992010010411504+46750+008117FM-15+0579LSMM V0209999V001010057019N0021001N1-00301-00401999999ADDGA1021+003901999GA2071+005701999GF107991999999999999999999MA1101081999999MW1711REMMET072METAR LSMM 041150Z VRB02KT 2100 -SN FEW013 BKN019 M03/M04 Q1011 RMK YLO;
0186066140999992010010412504+46750+008117FM-15+0579LSMM V0201201N000510072019N0041001N1-00301-00401999999ADDGA1021+004801999GA2071+007201999GA3071+012301999GF107991999999999999999999MA1101021999999MW1711REMMET079METAR LSMM 041250Z 12001KT 4100 -SN FEW016 BKN024 BKN041 M03/M04 Q1010 RMK GRN;
0140066140999992010010413504+46750+008117FM-15+0579LSMM V0201101N001510150019N0080001N1-00301-00401999999ADDGA1081+015001999GF108991999999999999999999MA1101021999999MW1711REMMET065METAR LSMM 041350Z 11003KT 8000 -SN OVC051 M03/M04 Q1010 RMK WHT;
0186066140999992010010414504+46750+008117FM-15+0579LSMM V0209999C000010087019N0032001N1-00301-00401999999ADDGA1041+006301999GA2071+008701999GA3071+010801999GF107991999999999999999999MA1101021999999MW1711REMMET079METAR LSMM 041450Z 00000KT 3200 -SN SCT021 BKN029 BKN036 M03/M04 Q1010 RMK GRN;
0171066140999992010010415504+46750+008117AUTO +0579LSMM V0201001N001510144019N0060001N1-00301-00401999999ADDAW1711GA1021+009301999GA2081+014401999GF108991999999999999999999MA1100911999999REMMET080METAR LSMM 041550Z AUTO 10003KT 6000NDV -SN FEW031 OVC048 M03/M04 Q1009 RMK GRN;
0194066140999992010010417504+46750+008117AUTO +0579LSMM V0201001N002110042019N0045001N1-00301-00301999999ADDAW1711GA1021+003301999GA2071+004201999GA3071+007501999GF107991999999999999999999MA1100911999999REMMET087METAR LSMM 041750Z AUTO 10004KT 4500NDV -SN FEW011 BKN014 BKN025 M03/M03 Q1009 RMK GRN;
0194066140999992010010418504+46750+008117AUTO +0579LSMM V0201001N001510051019N0024001N1-00301-00301999999ADDAW1711GA1041+003601999GA2071+005101999GA3071+014401999GF107991999999999999999999MA1100911999999REMMET087METAR LSMM 041850Z AUTO 10003KT 2400NDV -SN SCT012 BKN017 BKN048 M03/M03 Q1009 RMK YLO;
0202066140999992010010419504+46750+008117AUTO +0579LSMM V0200901N002610141019N0070001N1-00301-00301999999ADDAW1711GA1021+003901999GA2071+014101999GA3081+018001999GF108991999999999999999999MA1100911999999REMMET095METAR LSMM 041950Z AUTO 09005KT 030V110 7000NDV -SN FEW013 BKN047 OVC067 M03/M03 Q1009 RMK GRN;
0205066140999992010010420504+46750+008117AUTO +0579LSMM V0200601N007210138019N0070001N1-00201-00501999999ADDAW1101AW2851GA1021+003301999GA2071+013801999GA3081+021001999GF108991999999999999999999MA1100911999999REMMET092METAR LSMM 042050Z AUTO 06014KT 7000NDV -SHSN BR FEW011 BKN046 OVC075 M02/M05 Q1009 RMK GRN;
0204066140999992010010421504+46750+008117AUTO +0579LSMM V0200701N00311004801CN0112651N1-00201-00501999999ADDAW1851GA1021+004201999GA2041+004801999GA3081+013501999GF108991999999999999999999MA1100811999999REMMET097METAR LSMM 042150Z AUTO 07006KT 030V090 9999NDV -SHSN FEW014 SCT016 OVC045 M02/M05 Q1008 RMK WHT;
0190066140999992010010422504+46750+008117AUTO +0579LSMM V0200901N001510144019N0060001N1-00301-00401999999ADDAW1101AW2851GA1021+004501999GA2081+014401999GF108991999999999999999999MA1100811999999REMMET093METAR LSMM 042250Z AUTO 09003KT 070V130 6000NDV -SHSN BR FEW015 OVC048 M03/M04 Q1008 RMK GRN;
0203066140999992010010423504+46750+008117AUTO +0579LSMM V0201101N001010042019N0026001N1-00301-00401999999ADDAW1101AW2711GA1021+003601999GA2071+004201999GA3081+006301999GF108991999999999999999999MA1100811999999REMMET090METAR LSMM 042350Z AUTO 11002KT 2600NDV -SN BR FEW012 BKN014 OVC021 M03/M04 Q1008 RMK YLO;
0208066140999992010010501504+46750+008117AUTO +0579LSMM V0209999V00101005101CN0036001N1-00301-00301999999ADDAW1101AW2711GA1021+003901999GA2041+005101999GA3081+015001999GF108991999999999999999999MA1100611999999REMMET095METAR LSMM 050150Z AUTO VRB02KT 3600NDV -SN BR FEW013 SCT017 OVC053 M03/M03 Q1006 RESN RMK GRN;
0205066140999992010010502504+46750+008117AUTO +0579LSMM V0209999V001010042019N0060001N1-00301-00301999999ADDAW1101AW2851GA1041+003301999GA2071+004201999GA3081+004801999GF108991999999999999999999MA1100611999999REMMET092METAR LSMM 050250Z AUTO VRB02KT 6000NDV -SHSN BR SCT011 BKN014 OVC016 M03/M03 Q1006 RMK GRN;
0147066140999992010010503504+46750+008117AUTO +0579LSMM V0201001N001510030019N0048001N1-00201-00301999999ADDAW1101GA1081+003001999GF108991999999999999999999MA1100511999999REMMET072METAR LSMM 050350Z AUTO 10003KT 4800NDV BR OVC010 M02/M03 Q1005 RMK GRN;
0169066140999992010010504504+46750+008117AUTO +0579LSMM V0200701N001510036019N0112651N1-00201-00401999999ADDGA1041+002701999GA2081+003601999GF108991999999999999999999MA1100411999999REMMET084METAR LSMM 050450Z AUTO 07003KT 030V100 9999NDV SCT009 OVC012 M02/M04 Q1004 RMK GRN;
0176066140999992010010505504+46750+008117FM-15+0579LSMM V0209999C00001003601CN0060001N1-00201-00401999999ADDGA1041+003001999GA2041+003601999GA3071+004201999GF107991999999999999999999MA1100411999999REMMET075METAR LSMM 050550Z 00000KT 6000 SCT010 SCT012 BKN014 M02/M04 Q1004 RMK GRN;
0176066140999992010010506504+46750+008117FM-15+0579LSMM V0200901N00261004201CN0112651N1-00301-00401999999ADDGA1021+003601999GA2041+004201999GA3071+027001999GF107991999999999999999999MA1100311999999REMMET075METAR LSMM 050650Z 09005KT 9999 FEW012 SCT014 BKN095 M03/M04 Q1003 RMK WTH;
0153066140999992010010507504+46750+008117FM-15+0579LSMM V0209999C000012200019N0112651N1-00401-00401999999ADDGA1021+004801999GA2041+027001999GF104991999999999999999999MA1100311999999REMMET068METAR LSMM 050750Z 00000KT 9999 FEW016 SCT094 M04/M04 Q1003 RMK BLU;
0153066140999992010010508504+46750+008117FM-15+0579LSMM V0200901N003110036019N0112651N1-00401-00501999999ADDGA1071+003601999GA2071+027001999GF107991999999999999999999MA1100311999999REMMET068METAR LSMM 050850Z 09006KT 9999 BKN012 BKN092 M04/M05 Q1003 RMK GRN;
0130066140999992010010509504+46750+008117FM-15+0579LSMM V0201301N002110039019N0112651N1-00301-00501999999ADDGA1071+003901999GF107991999999999999999999MA1100311999999REMMET061METAR LSMM 050950Z 13004KT 9999 BKN013 M03/M05 Q1003 RMK GRN;
0138066140999992010010510504+46750+008117AUTO +0579LSMM V0209999V000510039019N0112651N1-00101-00401999999ADDGA1081+003901999GF108991999999999999999999MA1100201999999REMMET069METAR LSMM 051050Z AUTO VRB01KT 9999NDV OVC013 M01/M04 Q1002 RMK GRN;
0130066140999992010010511504+46750+008117FM-15+0579LSMM V0209999V000510036019N0112651N1+00001-00301999999ADDGA1071+003601999GF107991999999999999999999MA1100101999999REMMET061METAR LSMM 051150Z VRB01KT 9999 BKN012 M00/M03 Q1001 RMK GRN;
0153066140999992010010512504+46750+008117FM-15+0579LSMM V0201101N002110039019N0112651N1-00101-00301999999ADDGA1041+003001999GA2081+003901999GF108991999999999999999999MA1100001999999REMMET068METAR LSMM 051250Z 11004KT 9999 SCT010 OVC013 M01/M03 Q1000 RMK GRN;
0130066140999992010010513504+46750+008117FM-15+0579LSMM V0209999V001010036019N0112651N1-00101-00301999999ADDGA1071+003601999GF107991999999999999999999MA1100001999999REMMET061METAR LSMM 051350Z VRB02KT 9999 BKN012 M01/M03 Q1000 RMK GRN;
0130066140999992010010514504+46750+008117FM-15+0579LSMM V0209999C000010039019N0112651N1-00101-00301999999ADDGA1081+003901999GF108991999999999999999999MA1100001999999REMMET061METAR LSMM 051450Z 00000KT 9999 OVC013 M01/M03 Q1000 RMK GRN;
0130066140999992010010515504+46750+008117FM-15+0579LSMM V0200401N002110036019N0060001N1-00201-00401999999ADDGA1081+003601999GF108991999999999999999999MA1099901999999REMMET061METAR LSMM 051550Z 04004KT 6000 OVC012 M02/M04 Q0999 RMK GRN;
0138066140999992010010516504+46750+008117AUTO +0579LSMM V0209999C000010036019N0070001N1-00201-00401999999ADDGA1081+003601999GF108991999999999999999999MA1099901999999REMMET069METAR LSMM 051650Z AUTO 00000KT 7000NDV OVC012 M02/M04 Q0999 RMK GRN;
0130066140999992010010517504+46750+008117FM-15+0579LSMM V0209999C000010033019N0080001N1-00201-00301999999ADDGA1081+003301999GF108991999999999999999999MA1099901999999REMMET061METAR LSMM 051750Z 00000KT 8000 OVC011 M02/M03 Q0999 RMK GRN;
0130066140999992010010518504+46750+008117FM-15+0579LSMM V0209999C000010030019N0090001N1-00201-00401999999ADDGA1081+003001999GF108991999999999999999999MA1099901999999REMMET061METAR LSMM 051850Z 00000KT 9000 OVC010 M02/M04 Q0999 RMK GRN;
0138066140999992010010519504+46750+008117AUTO +0579LSMM V0209999V000510027019N0112651N1-00201-00401999999ADDGA1081+002701999GF108991999999999999999999MA1099801999999REMMET069METAR LSMM 051950Z AUTO VRB01KT 9999NDV OVC009 M02/M04 Q0998 RMK YLO;
0138066140999992010010520504+46750+008117AUTO +0579LSMM V0201001N002110027019N0112651N1-00301-00401999999ADDGA1081+002701999GF108991999999999999999999MA1099801999999REMMET069METAR LSMM 052050Z AUTO 10004KT 9999NDV OVC009 M03/M04 Q0998 RMK YLO;
0138066140999992010010521504+46750+008117AUTO +0579LSMM V0200901N002110027019N0112651N1-00301-00401999999ADDGA1081+002701999GF108991999999999999999999MA1099801999999REMMET069METAR LSMM 052150Z AUTO 09004KT 9999NDV OVC009 M03/M04 Q0998 RMK YLO;
0138066140999992010010522504+46750+008117AUTO +0579LSMM V0201101N003110030019N0112651N1-00301-00401999999ADDGA1081+003001999GF108991999999999999999999MA1099801999999REMMET069METAR LSMM 052250Z AUTO 11006KT 9999NDV OVC010 M03/M04 Q0998 RMK GRN;
0161066140999992010010600504+46750+008117AUTO +0579LSMM V0200901N002110024019N0112651N1-00301-00401999999ADDGA1071+002401999GA2081+003001999GF108991999999999999999999MA1099701999999REMMET076METAR LSMM 060050Z AUTO 09004KT 9999NDV BKN008 OVC010 M03/M04 Q0997 RMK YLO;
0161066140999992010010601504+46750+008117AUTO +0579LSMM V0201301N001010033019N0112651N1-00301-00401999999ADDGA1041+002401999GA2081+003301999GF108991999999999999999999MA1099701999999REMMET076METAR LSMM 060150Z AUTO 13002KT 9999NDV SCT008 OVC011 M03/M04 Q0997 RMK GRN;
0138066140999992010010602504+46750+008117AUTO +0579LSMM V0201101N002610030019N0112651N1-00301-00401999999ADDGA1081+003001999GF108991999999999999999999MA1099701999999REMMET069METAR LSMM 060250Z AUTO 11005KT 9999NDV OVC010 M03/M04 Q0997 RMK GRN;
0148066140999992010010603504+46750+008117AUTO +0579LSMM V0200801N001510033019N0112651N1-00201-00401999999ADDAW1611GA1081+003301999GF108991999999999999999999MA1099701999999REMMET073METAR LSMM 060350Z AUTO 08003KT 9999NDV -RA OVC011 M02/M04 Q0997 RMK GRN;
0150066140999992010010604504+46750+008117AUTO +0579LSMM V0201001N001510030019N0112651N1-00201-00301999999ADDAW1811GA1081+003001999GF108991999999999999999999MA1099701999999REMMET075METAR LSMM 060450Z AUTO 10003KT 9999NDV -SHRA OVC010 M02/M03 Q0997 RMK GRN;
0138066140999992010010605504+46750+008117AUTO +0579LSMM V0209999C000010030019N0112651N1-00201-00301999999ADDGA1081+003001999GF108991999999999999999999MA1099801999999REMMET069METAR LSMM 060550Z AUTO 00000KT 9999NDV OVC010 M02/M03 Q0998 RMK GRN;
0171066140999992010010606504+46750+008117FM-15+0579LSMM V0200301N002110036019N0060001N1-00201-00401999999ADDGA1041+003001999GA2081+003601999GF108991999999999999999999MA1099801999999MW1511REMMET080METAR LSMM 060650Z 03004KT 330V110 6000 -DZ SCT010 OVC012 M02/M04 Q0998 RMK GRN;
0167066140999992010010607504+46750+008117FM-15+0579LSMM V0201101N003110039019N0070001N1-00201-00401999999ADDGA1041+003001999GA2081+003901999GF108991999999999999999999MA1099801999999REMMET082METAR LSMM 060750Z 11006KT 070V140 7000 -SHSN SCT010 OVC013 M02/M04 Q0998 RMK GRN;
0140066140999992010010608504+46750+008117FM-15+0579LSMM V0201201N002110033019N0080001N1-00201-00301999999ADDGA1081+003301999GF108991999999999999999999MA1099901999999MW1711REMMET065METAR LSMM 060850Z 12004KT 8000 -SN OVC011 M02/M03 Q0999 RMK GRN;
0136066140999992010010609504+46750+008117FM-15+0579LSMM V0209999V001010033019N0050001N1-00201-00301999999ADDGA1081+003301999GF108991999999999999999999MA1099901999999REMMET067METAR LSMM 060950Z VRB02KT 5000 -SHSN OVC011 M02/M03 Q0999 RMK GRN;
0161066140999992010010610504+46750+008117AUTO +0579LSMM V0209999C000010027019N0045001N1-00101-00301999999ADDGA1071+002701999GA2081+003301999GF108991999999999999999999MA1099901999999REMMET076METAR LSMM 061050Z AUTO 00000KT 4500NDV BKN009 OVC011 M01/M03 Q0999 RMK YLO;
0149066140999992010010611504+46750+008117FM-15+0579LSMM V0201001N002110030019N0024001N1-00101-00201999999ADDGA1081+003001999GF108991999999999999999999MA1099901999999MW1101MW2511REMMET068METAR LSMM 061150Z 10004KT 2400 -DZ BR OVC010 M01/M02 Q0999 RMK YLO;
0185066140999992010010612504+46750+008117FM-15+0579LSMM V0200901N002110033019N0027001N1-00101-00201999999ADDGA1021+002701999GA2071+003301999GA3081+004501999GF108991999999999999999999MA1099901999999MW1101REMMET078METAR LSMM 061250Z 09004KT 2700 BR FEW009 BKN011 OVC015 M01/M02 Q0999 RMK YLO;
0185066140999992010010613504+46750+008117FM-15+0579LSMM V0209999V000510042019N0030001N1-00101-00201999999ADDGA1041+003601999GA2071+004201999GA3071+006901999GF107991999999999999999999MA1099901999999MW1101REMMET078METAR LSMM 061350Z VRB01KT 3000 BR SCT012 BKN014 BKN023 M01/M02 Q0999 RMK GRN;
0139066140999992010010614504+46750+008117FM-15+0579LSMM V0209999V000510063019N0040001N1-00101-00201999999ADDGA1081+006301999GF108991999999999999999999MA1099901999999MW1101REMMET064METAR LSMM 061450Z VRB01KT 4000 BR OVC021 M01/M02 Q0999 RMK GRN;
0170066140999992010010615504+46750+008117AUTO +0579LSMM V0200501N003610063019N0041001N1-00101-00301999999ADDAW1101GA1021+003901999GA2081+006301999GF108991999999999999999999MA1100001999999REMMET079METAR LSMM 061550Z AUTO 05007KT 4100NDV BR FEW013 OVC021 M01/M03 Q1000 RMK GRN;
0170066140999992010010616504+46750+008117AUTO +0579LSMM V0209999V001510072019N0050001N1-00101-00301999999ADDAW1101GA1041+003301999GA2081+007201999GF108991999999999999999999MA1100001999999REMMET079METAR LSMM 061650Z AUTO VRB03KT 5000NDV BR SCT011 OVC024 M01/M03 Q1000 RMK GRN;
0170066140999992010010618504+46750+008117AUTO +0579LSMM V0200801N001510075019N0050001N1-00101-00301999999ADDAW1101GA1041+005401999GA2081+007501999GF108991999999999999999999MA1100101999999REMMET079METAR LSMM 061850Z AUTO 08003KT 5000NDV BR SCT018 OVC025 M01/M03 Q1001 RMK GRN;
0193066140999992010010619504+46750+008117AUTO +0579LSMM V0209999C00001010501CN0050001N1-00101-00301999999ADDAW1101GA1041+008701999GA2041+010501999GA3081+012001999GF108991999999999999999999MA1100201999999REMMET086METAR LSMM 061950Z AUTO 00000KT 5000NDV BR SCT029 SCT035 OVC040 M01/M03 Q1002 RMK GRN;
0161066140999992010010620504+46750+008117AUTO +0579LSMM V0201301N001010126019N0050001N1-00201-00301999999ADDGA1041+006601999GA2081+012601999GF108991999999999999999999MA1100201999999REMMET076METAR LSMM 062050Z AUTO 13002KT 5000NDV SCT022 OVC042 M02/M03 Q1002 RMK GRN;
0170066140999992010010621504+46750+008117AUTO +0579LSMM V0200901N002110132019N0050001N1-00401-00501999999ADDAW1101GA1021+011401999GA2081+013201999GF108991999999999999999999MA1100201999999REMMET079METAR LSMM 062150Z AUTO 09004KT 5000NDV BR FEW038 OVC044 M04/M05 Q1002 RMK GRN;
0169066140999992010010623504+46750+008117AUTO +0579LSMM V0201301N001510063019N0112651N1-00401-00601999999ADDGA1041+005101999GA2081+006301999GF108991999999999999999999MA1100311999999REMMET084METAR LSMM 062350Z AUTO 13003KT 100V160 9999NDV SCT017 OVC021 M04/M06 Q1003 RMK WHT;
0161066140999992010010700504+46750+008117AUTO +0579LSMM V0201101N002110060019N0112651N1-00301-00501999999ADDGA1041+004501999GA2081+006001999GF108991999999999999999999MA1100411999999REMMET076METAR LSMM 070050Z AUTO 11004KT 9999NDV SCT015 OVC020 M03/M05 Q1004 RMK WHT;
0192066140999992010010701504+46750+008117AUTO +0579LSMM V0201201N00211007801CN0112651N1-00501-00701999999ADDGA1021+006601999GA2041+007801999GA3071+011101999GF107991999999999999999999MA1100411999999REMMET091METAR LSMM 070150Z AUTO 12004KT 080V140 9999NDV FEW022 SCT026 BKN037 M05/M07 Q1004 RMK WHT;
0119066140999992010010702504+46750+008117AUTO +0579LSMM V0200801N001012200019N0112651N1-00801-00901999999ADDGF100991999999999999999999MA1100411999999REMMET066METAR LSMM 070250Z AUTO 08002KT 9999NDV NCD M08/M09 Q1004 RMK BLU;
0147066140999992010010703504+46750+008117AUTO +0579LSMM V0201101N003112200019N0016001N1-00901-00901999999ADDAW1101GA1021+006001999GF102991999999999999999999MA1100411999999REMMET072METAR LSMM 070350Z AUTO 11006KT 1600NDV BR FEW020 M09/M09 Q1004 RMK AMB;
0138066140999992010010704504+46750+008117AUTO +0579LSMM V0201001N002612200019N0112651N1-00901-01001999999ADDGA1021+005701999GF102991999999999999999999MA1100411999999REMMET069METAR LSMM 070450Z AUTO 10005KT 9999NDV FEW019 M09/M10 Q1004 RMK BLU;
0088066140999992010010705504+46750+008117FM-15+0579LSMM V0200901N002112200019N0090001N1-00901-00901999999ADDMA1100411999999REMMET061METAR LSMM 070550Z 09004KT 9000 ////// M09/M09 Q1004 RMK BLU;
0090066140999992010010706504+46750+008117FM-15+0579LSMM V0201101N002619999999Y0099001N1-01001-01101999999ADDMA1100411999999REMMET063METAR LSMM 070650Z 11005KT 070V140 CAVOK M10/M11 Q1004 RMK BLU;
0138066140999992010010707504+46750+008117FM-15+0579LSMM V0200901N001512200019N0112651N1-01001-01201999999ADDGA1021+007501999GF102991999999999999999999MA1100511999999REMMET069METAR LSMM 070750Z 09003KT 050V140 9999 FEW025 M10/M12 Q1005 RMK BLU;
0130066140999992010010708504+46750+008117FM-15+0579LSMM V0209999V001012200019N0112651N1-00901-01001999999ADDGA1021+027001999GF102991999999999999999999MA1100611999999REMMET061METAR LSMM 070850Z VRB02KT 9999 FEW090 M09/M10 Q1006 RMK BLU;
0130066140999992010010709504+46750+008117FM-15+0579LSMM V0209999V001012200019N0112651N1-01101-01201999999ADDGA1021+027001999GF102991999999999999999999MA1100611999999REMMET061METAR LSMM 070950Z VRB02KT 9999 FEW090 M11/M12 Q1006 RMK GRN;
0161066140999992010010711504+46750+008117FM-15+0579LSMM V0202901N001510600019N0112651N1-00701-00801999999ADDGA1021+007501999GA2071+060001999GF107991999999999999999999MA1100611999999REMMET076METAR LSMM 071150Z 29003KT 240V010 9999 FEW025 BKN200 M07/M08 Q1006 RMK WTH;
0161066140999992010010712504+46750+008117FM-15+0579LSMM V0202401N002610600019N0112651N1-00401-00601999999ADDGA1021+007501999GA2071+060001999GF107991999999999999999999MA1100611999999REMMET076METAR LSMM 071250Z 24005KT 230V290 9999 FEW025 BKN200 M04/M06 Q1006 RMK WTH;
0190066140999992010010805504+46750+008117FM-15+0579LSMM V0201301N00461006901CN0070001N1-00201-00501999999ADDGA1041+004801999GA2041+006901999GA3071+009001999GF107991999999999999999999MA1100411999999REMMET089METAR LSMM 080550Z 13009KT 100V170 7000 -SHSN SCT016 SCT023 BKN030 M02/M05 Q1004 RMK GRN;
0190066140999992010010806504+46750+008117FM-15+0579LSMM V0201601N005710057019N0060001N1-00201-00501999999ADDGA1041+004801999GA2071+005701999GA3081+008101999GF108991999999999999999999MA1100411999999REMMET089METAR LSMM 080650Z 16011KT 130V200 6000 -SHSN SCT016 BKN019 OVC027 M02/M05 Q1004 RMK GRN;
0204066140999992010010807504+46750+008117FM-15+0579LSMM V0201801N00511004801CN0050001N1-00201-00501999999ADDGA1021+003901999GA2041+004801999GA3071+007801999GF107991999999999999999999MA1100311999999MW1101OC101081REMMET089METAR LSMM 080750Z 18010G21KT 130V240 5000 BR FEW013 SCT016 BKN026 M02/M05 Q1003 RMK GRN;
0202066140999992010010808504+46750+008117FM-15+0579LSMM V0209999V003610051019N0040001N1-00201-00501999999ADDGA1041+003601999GA2071+005101999GA3071+006301999GF107991999999999999999999MA1100311999999MW1101OC100871REMMET087METAR LSMM 080850Z VRB07G17KT 4000 -SHSN BR SCT012 BKN017 BKN021 M02/M05 Q1003 RMK GRN;
0186066140999992010010809504+46750+008117FM-15+0579LSMM V0209999V005110045019N0036001N1-00201-00401999999ADDGA1041+003001999GA2071+004501999GA3081+007501999GF108991999999999999999999MA1100201999999MW1711REMMET079METAR LSMM 080950Z VRB10KT 3600 -SN SCT010 BKN015 OVC025 M02/M04 Q1002 RMK GRN;
0199066140999992010010811504+46750+008117FM-15+0579LSMM V0200801N005110045019N0048001N1-00201-00501999999ADDGA1041+003301999GA2071+004501999GA3081+005101999GF108991999999999999999999MA1100101999999MW1101REMMET092METAR LSMM 081150Z 08010KT 030V150 4800 -SHSN BR SCT011 BKN015 OVC017 M02/M05 Q1001 RMK GRN;
0199066140999992010010812504+46750+008117FM-15+0579LSMM V0200601N00461004201CN0047001N1-00201-00501999999ADDGA1021+003601999GA2041+004201999GA3081+005701999GF108991999999999999999999MA1100001999999MW1101REMMET092METAR LSMM 081250Z 06009KT 330V120 4700 -SHSN BR FEW012 SCT014 OVC019 M02/M05 Q1000 RMK GRN;
0193066140999992010010813504+46750+008117FM-15+0579LSMM V0201001N00511003901CN0047001N1-00201-00501999999ADDGA1021+003601999GA2041+003901999GA3081+005401999GF108991999999999999999999MA1100001999999MW1101REMMET086METAR LSMM 081350Z 10010KT 030V160 4700 BR FEW012 SCT013 OVC018 M02/M05 Q1000 RMK GRN;
0203066140999992010010814504+46750+008117FM-15+0579LSMM V0200801N00621005701CN0050001N1-00201-00501999999ADDGA1041+003301999GA2041+005701999GA3081+007201999GF108991999999999999999999MA1100001999999MW1101MW2711REMMET090METAR LSMM 081450Z 08012KT 050V120 5000 -SN BR SCT011 SCT019 OVC024 M02/M05 Q1000 RMK GRN;
0204066140999992010010815504+46750+008117AUTO +0579LSMM V0200601N00621007201CN0050001N1-00201-00501999999ADDAW1851GA1041+003901999GA2041+007201999GA3081+008701999GF108991999999999999999999MA1100001999999REMMET097METAR LSMM 081550Z AUTO 06012KT 010V090 5000NDV -SHSN SCT013 SCT024 OVC029 M02/M05 Q1000 RMK GRN;
0181066140999992010010816504+46750+008117AUTO +0579LSMM V0200701N005710066019N0060001N1-00201-00501999999ADDAW1851GA1021+004501999GA2081+006601999GF108991999999999999999999MA1100101999999REMMET090METAR LSMM 081650Z AUTO 07011KT 040V100 6000NDV -SHSN FEW015 OVC022 M02/M05 Q1001 RMK GRN;
0181066140999992010010817504+46750+008117AUTO +0579LSMM V0200501N005710060019N0070001N1-00201-00501999999ADDAW1851GA1071+006001999GA2081+006901999GF108991999999999999999999MA1100101999999REMMET090METAR LSMM 081750Z AUTO 05011KT 030V090 7000NDV -SHSN BKN020 OVC023 M02/M05 Q1001 RMK GRN;
0192066140999992010010818504+46750+008117AUTO +0579LSMM V0200501N007210069019N0070001N1-00201-00501999999ADDGA1021+005401999GA2071+006901999GA3081+011101999GF108991999999999999999999MA1100101999999REMMET091METAR LSMM 081850Z AUTO 05014KT 020V090 7000NDV FEW018 BKN023 OVC037 M02/M05 Q1001 RMK GRN;
0192066140999992010010819504+46750+008117AUTO +0579LSMM V0200601N005710072019N0060001N1-00201-00501999999ADDGA1021+004201999GA2071+007201999GA3081+008101999GF108991999999999999999999MA1100101999999REMMET091METAR LSMM 081950Z AUTO 06011KT 360V110 6000NDV FEW014 BKN024 OVC027 M02/M05 Q1001 RMK GRN;
0203066140999992010010820504+46750+008117AUTO +0579LSMM V0200601N006710075019N0060001N1-00301-00501999999ADDGA1021+006601999GA2071+007501999GA3081+009901999GF108991999999999999999999MA1100101999999OC101231REMMET094METAR LSMM 082050Z AUTO 06013G24KT 020V090 6000NDV FEW022 BKN025 OVC033 M03/M05 Q1001 RMK GRN;
0192066140999992010010821504+46750+008117AUTO +0579LSMM V0200301N00361006601CN0070001N1-00201-00501999999ADDGA1021+005701999GA2041+006601999GA3081+007801999GF108991999999999999999999MA1100101999999REMMET091METAR LSMM 082150Z AUTO 03007KT 320V110 7000NDV FEW019 SCT022 OVC026 M02/M05 Q1001 RMK GRN;
0184066140999992010011000504+46750+008117AUTO +0579LSMM V0209999V002610057019N0080001N1-00401-00601999999ADDGA1041+004801999GA2071+005701999GA3081+007801999GF108991999999999999999999MA1100411999999REMMET083METAR LSMM 100050Z AUTO VRB05KT 8000NDV SCT016 BKN019 OVC026 M04/M06 Q1004 RMK GRN;
0130066140999992010011112504+46750+008117FM-15+0579LSMM V0209999C000010045019N0080001N1-00301-00601999999ADDGA1081+004501999GF108991999999999999999999MA1101291999999REMMET061METAR LSMM 111250Z 00000KT 8000 OVC015 M03/M06 Q1013 RMK GRN;
0138066140999992010011113504+46750+008117FM-15+0579LSMM V0202601N001510048019N0080001N1-00301-00601999999ADDGA1081+004801999GF108991999999999999999999MA1101291999999REMMET069METAR LSMM 111350Z 26003KT 230V320 8000 OVC016 M03/M06 Q1013 RMK GRN;
0130066140999992010011114504+46750+008117FM-15+0579LSMM V0209999C000010045019N0080001N1-00301-00601999999ADDGA1081+004501999GF108991999999999999999999MA1101391999999REMMET061METAR LSMM 111450Z 00000KT 8000 OVC015 M03/M06 Q1014 RMK GRN;
0130066140999992010011115504+46750+008117FM-15+0579LSMM V0209999C000010048019N0070001N1-00301-00601999999ADDGA1081+004801999GF108991999999999999999999MA1101391999999REMMET061METAR LSMM 111550Z 00000KT 7000 OVC016 M03/M06 Q1014 RMK GRN;
0138066140999992010011116504+46750+008117AUTO +0579LSMM V0200901N002110051019N0070001N1-00301-00601999999ADDGA1081+005101999GF108991999999999999999999MA1101391999999REMMET069METAR LSMM 111650Z AUTO 09004KT 7000NDV OVC017 M03/M06 Q1014 RMK GRN;
0153066140999992010011117504+46750+008117FM-15+0579LSMM V0201001N002610270019N0080001N1-00401-00701999999ADDGA1041+004801999GA2081+027001999GF108991999999999999999999MA1101391999999REMMET068METAR LSMM 111750Z 10005KT 8000 SCT016 OVC097 M04/M07 Q1014 RMK WTH;
0153066140999992010011118504+46750+008117FM-15+0579LSMM V0201101N002110270019N0090001N1-00401-00701999999ADDGA1021+004801999GA2081+027001999GF108991999999999999999999MA1101491999999REMMET068METAR LSMM 111850Z 11004KT 9000 FEW016 OVC092 M04/M07 Q1015 RMK WHT;
0153066140999992010011119504+46750+008117FM-15+0579LSMM V0201001N002610240019N0080001N1-00401-00601999999ADDGA1021+004801999GA2081+024001999GF108991999999999999999999MA1101491999999REMMET068METAR LSMM 111950Z 10005KT 8000 FEW016 OVC083 M04/M06 Q1015 RMK WHT;
0173066140999992010011120504+46750+008117AUTO +0579LSMM V0200901N001010240019N0080001N1-00401-00601999999ADDAW1851GA1021+004801999GA2081+024001999GF108991999999999999999999MA1101491999999REMMET082METAR LSMM 112050Z AUTO 09002KT 8000NDV -SHSN FEW016 OVC084 M04/M06 Q1015 RMK WHT;
0173066140999992010011121504+46750+008117AUTO +0579LSMM V0201001N001510048019N0080001N1-00401-00601999999ADDAW1851GA1071+004801999GA2081+021001999GF108991999999999999999999MA1101491999999REMMET082METAR LSMM 112150Z AUTO 10003KT 8000NDV -SHSN BKN016 OVC077 M04/M06 Q1015 RMK GRN;
0169066140999992010011122504+46750+008117AUTO +0579LSMM V0201301N001510240019N0070001N1-00401-00601999999ADDGA1041+004501999GA2081+024001999GF108991999999999999999999MA1101491999999REMMET084METAR LSMM 112250Z AUTO 13003KT 090V150 7000NDV SCT015 OVC080 M04/M06 Q1015 RMK GRN;
0138066140999992010011123504+46750+008117AUTO +0579LSMM V0201201N001010045019N0080001N1-00301-00601999999ADDGA1081+004501999GF108991999999999999999999MA1101491999999REMMET069METAR LSMM 112350Z AUTO 12002KT 8000NDV OVC015 M03/M06 Q1015 RMK GRN;
0161066140999992010011200504+46750+008117AUTO +0579LSMM V0201101N002610210019N0070001N1-00301-00501999999ADDGA1041+004801999GA2081+021001999GF108991999999999999999999MA1101491999999REMMET076METAR LSMM 120050Z AUTO 11005KT 7000NDV SCT016 OVC074 M03/M05 Q1015 RMK GRN;
0184066140999992010011201504+46750+008117AUTO +0579LSMM V0209999C00001006001CN0070001N1-00301-00601999999ADDGA1021+004801999GA2041+006001999GA3081+021001999GF108991999999999999999999MA1101491999999REMMET083METAR LSMM 120150Z AUTO 00000KT 7000NDV FEW016 SCT020 OVC072 M03/M06 Q1015 RMK GRN;
0138066140999992010011202504+46750+008117AUTO +0579LSMM V0201001N001510045019N0070001N1-00301-00501999999ADDGA1081+004501999GF108991999999999999999999MA1101491999999REMMET069METAR LSMM 120250Z AUTO 10003KT 7000NDV OVC015 M03/M05 Q1015 RMK GRN;
0161066140999992010011203504+46750+008117AUTO +0579LSMM V0201501N001010045019N0070001N1-00301-00501999999ADDGA1041+003901999GA2081+004501999GF108991999999999999999999MA1101491999999REMMET076METAR LSMM 120350Z AUTO 15002KT 7000NDV SCT013 OVC015 M03/M05 Q1015 RMK GRN;
0161066140999992010011204504+46750+008117AUTO +0579LSMM V0209999C000010048019N0070001N1-00301-00501999999ADDGA1041+003901999GA2081+004801999GF108991999999999999999999MA1101491999999REMMET076METAR LSMM 120450Z AUTO 00000KT 7000NDV SCT013 OVC016 M03/M05 Q1015 RMK GRN;
0153066140999992010011205504+46750+008117FM-15+0579LSMM V0209999C000010045019N0070001N1-00301-00501999999ADDGA1021+003901999GA2081+004501999GF108991999999999999999999MA1101391999999REMMET068METAR LSMM 120550Z 00000KT 7000 FEW013 OVC015 M03/M05 Q1014 RMK GRN;
0162066140999992010011206504+46750+008117FM-15+0579LSMM V0201001N001010051019N0050001N1-00301-00501999999ADDGA1021+003301999GA2081+005101999GF108991999999999999999999MA1101391999999MW1101REMMET071METAR LSMM 120650Z 10002KT 5000 BR FEW011 OVC017 M03/M05 Q1014 RMK GRN;
0139066140999992010011207504+46750+008117FM-15+0579LSMM V0209999V001010048019N0050001N1-00301-00501999999ADDGA1081+004801999GF108991999999999999999999MA1101291999999MW1101REMMET064METAR LSMM 120750Z VRB02KT 5000 BR OVC016 M03/M05 Q1013 RMK GRN;
0139066140999992010011208504+46750+008117FM-15+0579LSMM V0209999V001010045019N0050001N1-00301-00501999999ADDGA1071+004501999GF107991999999999999999999MA1101191999999MW1101REMMET064METAR LSMM 120850Z VRB02KT 5000 BR BKN015 M03/M05 Q1012 RMK GRN;
0130066140999992010011209504+46750+008117FM-15+0579LSMM V0209999C000010042019N0060001N1-00201-00501999999ADDGA1071+004201999GF107991999999999999999999MA1101191999999REMMET061METAR LSMM 120950Z 00000KT 6000 BKN014 M02/M05 Q1012 RMK GRN;
0130066140999992010011211504+46750+008117FM-15+0579LSMM V0209999V001010042019N0060001N1-00201-00501999999ADDGA1081+004201999GF108991999999999999999999MA1101021999999REMMET061METAR LSMM 121150Z VRB02KT 6000 OVC014 M02/M05 Q1010 RMK GRN;
0138066140999992010011212504+46750+008117FM-15+0579LSMM V0201201N001510042019N0070001N1-00201-00401999999ADDGA1081+004201999GF108991999999999999999999MA1101021999999REMMET069METAR LSMM 121250Z 12003KT 060V150 7000 OVC014 M02/M04 Q1010 RMK GRN;
0130066140999992010011213504+46750+008117FM-15+0579LSMM V0209999V001010042019N0070001N1-00101-00501999999ADDGA1081+004201999GF108991999999999999999999MA1100911999999REMMET061METAR LSMM 121350Z VRB02KT 7000 OVC014 M01/M05 Q1009 RMK GRN;
0130066140999992010011214504+46750+008117FM-15+0579LSMM V0209999C000012200019N0060001N1-00301-00501999999ADDGA1041+004201999GF104991999999999999999999MA1100711999999REMMET061METAR LSMM 121450Z 00000KT 6000 SCT014 M03/M05 Q1007 RMK GRN;
0161066140999992010011215504+46750+008117AUTO +0579LSMM V0202301N001510045019N0060001N1-00301-00501999999ADDGA1041+003901999GA2071+004501999GF107991999999999999999999MA1100711999999REMMET076METAR LSMM 121550Z AUTO 23003KT 6000NDV SCT013 BKN015 M03/M05 Q1007 RMK GRN;
0146066140999992010011216504+46750+008117AUTO +0579LSMM V0200701N001510039019N0060001N1-00301-00501999999ADDGA1081+003901999GF108991999999999999999999MA1100611999999REMMET077METAR LSMM 121650Z AUTO 07003KT 360V120 6000NDV OVC013 M03/M05 Q1006 RMK GRN;
0161066140999992010011217504+46750+008117AUTO +0579LSMM V0209999V000510039019N0060001N1-00301-00501999999ADDGA1041+003301999GA2081+003901999GF108991999999999999999999MA1100611999999REMMET076METAR LSMM 121750Z AUTO VRB01KT 6000NDV SCT011 OVC013 M03/M05 Q1006 RMK GRN;
0138066140999992010011218504+46750+008117AUTO +0579LSMM V0209999V000510030019N0060001N1-00301-00501999999ADDGA1081+003001999GF108991999999999999999999MA1100611999999REMMET069METAR LSMM 121850Z AUTO VRB01KT 6000NDV OVC010 M03/M05 Q1006 RMK GRN;
0147066140999992010011219504+46750+008117AUTO +0579LSMM V0209999C000010027019N0050001N1-00401-00601999999ADDAW1101GA1071+002701999GF107991999999999999999999MA1100511999999REMMET072METAR LSMM 121950Z AUTO 00000KT 5000NDV BR BKN009 M04/M06 Q1005 RMK YLO;
0147066140999992010011220504+46750+008117AUTO +0579LSMM V0202501N001512200019N0050001N1-00401-00601999999ADDAW1101GA1021+001801999GF102991999999999999999999MA1100411999999REMMET072METAR LSMM 122050Z AUTO 25003KT 5000NDV BR FEW006 M04/M06 Q1004 RMK GRN;
0147066140999992010011221504+46750+008117AUTO +0579LSMM V0202501N003612200019N0045001N1-00401-00601999999ADDAW1101GA1041+001801999GF104991999999999999999999MA1100411999999REMMET072METAR LSMM 122150Z AUTO 25007KT 4500NDV BR SCT006 M04/M06 Q1004 RMK GRN;
0170066140999992010011222504+46750+008117AUTO +0579LSMM V0202501N004610450019N0046001N1-00401-00501999999ADDAW1101GA1041+001801999GA2071+045001999GF107991999999999999999999MA1100311999999REMMET079METAR LSMM 122250Z AUTO 25009KT 4600NDV BR SCT006 BKN150 M04/M05 Q1003 RMK GRN;
0178066140999992010011223504+46750+008117AUTO +0579LSMM V0202801N004610024019N0050001N1-00201-00401999999ADDAW1101GA1071+002401999GA2081+045001999GF108991999999999999999999MA1100511999999REMMET087METAR LSMM 122350Z AUTO 28009KT 230V330 5000NDV BR BKN008 OVC150 M02/M04 Q1005 RMK YLO;
0170066140999992010011300504+46750+008117AUTO +0579LSMM V0202701N005710330019N0048001N1-00201-00401999999ADDAW1101GA1021+003301999GA2081+033001999GF108991999999999999999999MA1100511999999REMMET079METAR LSMM 130050Z AUTO 27011KT 4800NDV BR FEW011 OVC110 M02/M04 Q1005 RMK GRN;
0155066140999992010011301504+46750+008117AUTO +0579LSMM V0202501N001510270019N0050001N1-00201-00401999999ADDAW1101GA1081+027001999GF108991999999999999999999MA1100411999999REMMET080METAR LSMM 130150Z AUTO 25003KT 220V290 5000NDV BR OVC094 M02/M04 Q1004 RMK GRN;
0170066140999992010011302504+46750+008117AUTO +0579LSMM V0202501N003110240019N0046001N1-00301-00401999999ADDAW1101GA1021+002401999GA2081+024001999GF108991999999999999999999MA1100311999999REMMET079METAR LSMM 130250Z AUTO 25006KT 4600NDV BR FEW008 OVC089 M03/M04 Q1003 RMK GRN;
0147066140999992010011303504+46750+008117AUTO +0579LSMM V0209999C000010210019N0047001N1-00201-00401999999ADDAW1101GA1081+021001999GF108991999999999999999999MA1100201999999REMMET072METAR LSMM 130350Z AUTO 00000KT 4700NDV BR OVC075 M02/M04 Q1002 RMK GRN;
0170066140999992010011304504+46750+008117AUTO +0579LSMM V0209999V000510210019N0044001N1-00201-00401999999ADDAW1101GA1071+021001999GA2081+024001999GF108991999999999999999999MA1100311999999REMMET079METAR LSMM 130450Z AUTO VRB01KT 4400NDV BR BKN071 OVC084 M02/M04 Q1003 RMK GRN;
0162066140999992010011305504+46750+008117FM-15+0579LSMM V0209999V001010210019N0040001N1-00201-00401999999ADDGA1041+018001999GA2081+021001999GF108991999999999999999999MA1100311999999MW1101REMMET071METAR LSMM 130550Z VRB02KT 4000 BR SCT064 OVC079 M02/M04 Q1003 RMK GRN;
0162066140999992010011306504+46750+008117FM-15+0579LSMM V0202501N003110210019N0046001N1-00101-00301999999ADDGA1041+003301999GA2081+021001999GF108991999999999999999999MA1100411999999MW1101REMMET071METAR LSMM 130650Z 25006KT 4600 BR SCT011 OVC070 M01/M03 Q1004 RMK GRN;
0139066140999992010011307504+46750+008117FM-15+0579LSMM V0209999C000010030019N0035001N1-00101-00301999999ADDGA1071+003001999GF107991999999999999999999MA1100511999999MW1101REMMET064METAR LSMM 130750Z 00000KT 3500 BR BKN010 M01/M03 Q1005 RMK GRN;
0186066140999992010011308504+46750+008117FM-15+0579LSMM V0209999C000010120019N0036001N1-00101-00301999999ADDGA1041+003601999GA2071+012001999GA3081+014701999GF108991999999999999999999MA1100611999999MW1711REMMET079METAR LSMM 130850Z 00000KT 3600 -SN SCT012 BKN040 OVC049 M01/M03 Q1006 RMK GRN;
0180066140999992010011309504+46750+008117FM-15+0579LSMM V0209999V000510144019N0020001N1-00101-00201999999ADDGA1021+003601999GA2071+014401999GF107991999999999999999999MA1100611999999MW1101MW2511MW3711REMMET077METAR LSMM 130950Z VRB01KT 2000 -DZSN BR FEW012 BKN048 M01/M02 Q1006 RMK YLO;
0169066140999992010011310504+46750+008117AUTO +0579LSMM V0209999C000010150019N0038001N1+00101-00201999999ADDAW1101GA1041+012001999GA2071+015001999GF107991999999999999999999MA1100611999999REMMET078METAR LSMM 131050Z AUTO 00000KT 3800NDV BR SCT040 BKN053 01/M02 Q1006 RMK GRN;
0179066140999992010011311504+46750+008117FM-15+0579LSMM V0209999C000010135019N0040001N1+00001-00201999999ADDGA1041+007501999GA2071+013501999GF107991999999999999999999MA1100611999999MW1101MW2511MW3711REMMET076METAR LSMM 131150Z 00000KT 4000 -DZSN BR SCT025 BKN045 00/M02 Q1006 RMK GRN;
0184066140999992010011312504+46750+008117FM-15+0579LSMM V0209999C00001012001CN0050001N1+00101-00201999999ADDGA1021+009901999GA2041+012001999GA3071+014401999GF107991999999999999999999MA1100511999999MW1101REMMET077METAR LSMM 131250Z 00000KT 5000 BR FEW033 SCT040 BKN048 01/M02 Q1005 RMK GRN;
0202066140999992010011313504+46750+008117FM-15+0579LSMM V0202801N00151006601CN0023001N1+00101-00201999999ADDGA1021+003601999GA2041+006601999GA3071+013501999GF107991999999999999999999MA1100611999999MW1101MW2711REMMET089METAR LSMM 131350Z 28003KT 230V320 2300 -SN BR FEW012 SCT022 BKN045 01/M02 Q1006 RMK YLO;
0210066140999992010011314504+46750+008117FM-15+0579LSMM V0202701N001510039019N0012001N1+00001-00101999999ADDED199U20009GA1021+002701999GA2071+003901999GF107991999999999999999999MA1100611999999MW1101MW2711REMMET102METAR LSMM 131450Z 27003KT 250V310 1200 R10/P2000D R28/1700D -SNBR FEW009 BKN013 00/M01 Q1006 RMK RED;
0167066140999992010011315504+46750+008117AUTO +0579LSMM V0200901N001012200019N0008001N1+00001+00001999999ADDAW1101AW2671MA1100701999999REMMET109METAR LSMM 131550Z AUTO 09002KT 0800NDV R10/1100V1600U R28/1600U -RASN BR FEW008 SCT011 00/M00 Q1007 RMK RED;EQDQ01+000803ATOT  
0158066140999992010011316504+46750+008117AUTO +0579LSMM V0209999C000012200019N0017001N1+00001+00001999999ADDAW1101AW2671GA1021+001501999GF102991999999999999999999MA1100711999999REMMET077METAR LSMM 131650Z AUTO 00000KT 1700NDV -RASN BR FEW005 00/M00 Q1007 RMK AMB;
0189066140999992010011317504+46750+008117AUTO +0579LSMM V0209999C000012200019N0011001N1+00001-00101999999ADDAW1101AW2671ED199U12009GA1041+000601999GF104991999999999999999999MA1100811999999REMMET097METAR LSMM 131750Z AUTO 00000KT 1100NDV R10/1200N R28/1400N -RASN BR SCT002 00/M01 Q1008 RMK RED;
0233066140999992010011318504+46750+008117AUTO +0579LSMM V0200901N000510015019N0014001N1+00001-00101999999ADDAW1101AW2711ED199U18009GA1041+000601999GA2071+001501999GA3071+007201999GF107991999999999999999999MA1100811999999REMMET109METAR LSMM 131850Z AUTO 09001KT 1400NDV R10/1800U R28/1700N -SN BR SCT002 BKN005 BKN024 00/M01 Q1008 RMK RED;
0181066140999992010011319504+46750+008117AUTO +0579LSMM V0209999V001010069019N0022001N1+00001-00101999999ADDAW1101AW2671GA1021+000901999GA2081+006901999GF108991999999999999999999MA1100811999999REMMET084METAR LSMM 131950Z AUTO VRB02KT 2200NDV -RASN BR FEW003 OVC023 00/M01 Q1008 RMK YLO;
0240066140999992010011320504+46750+008117AUTO +0579LSMM V0209999V000510093019N0010001N1+00001-00101999999ADDAW1301AW2611ED199U20009GA1021+000301999GA2071+009301999GA3071+012001999GF107991999999999999999999MA1100811999999REMMET116METAR LSMM 132050Z AUTO VRB01KT 1000NDV R10/P2000N R28/0700V1700D -RA FG FEW001 BKN031 BKN040 M00/M01 Q1008 RMK RED;
0159066140999992010011321504+46750+008117AUTO +0579LSMM V0209999C000012200019N0002501N1-00201-00201999999ADDAW1301ED199U02509GF100991999999999999999999MA1100811999999REMMET089METAR LSMM 132150Z AUTO 00000KT 0250NDV R10/0250N R28/0250N FG NCD M02/M02 Q1008 RMK RED;
0159066140999992010011322504+46750+008117AUTO +0579LSMM V0209999C000012200019N0002001N1-00301-00401999999ADDAW1301ED199U02259GF100991999999999999999999MA1100711999999REMMET089METAR LSMM 132250Z AUTO 00000KT 0200NDV R10/0225N R28/0225N FG NCD M03/M04 Q1007 RMK RED;
0180066140999992010011323504+46750+008117AUTO +0579LSMM V0209999C000012200019N0002501N1-00301-00301999999ADDAW1351ED199U02759GA1021+000301999GF102991999999999999999999MA1100711999999REMMET094METAR LSMM 132350Z AUTO 00000KT 0250NDV R10/0275N R28/0275N FZFG FEW001 M03/M03 Q1007 RMK RED;
0179066140999992010011400504+46750+008117AUTO +0579LSMM V0201001N001510003019N0004501N1-00301-00401999999ADDAW1351ED199U05009GA1091+000301999GF109991999999000251999999MA1100711999999REMMET093METAR LSMM 140050Z AUTO 10003KT 0450NDV R10/0500N R28/0600U FZFG VV001 M03/M04 Q1007 RMK RED;
0158066140999992010011401504+46750+008117AUTO +0579LSMM V0201101N003619999999N0027001N1-00502-00501999999ADDAW1101MA1100601999999REMMET106METAR LSMM 140150Z AUTO 11007KT 2700NDV R10/0900VP2000U R28/P2000N BR BKN003 BKN011 M05/M05 Q1006 RMK AMB;EQDQ01+000803ATOT  
0185066140999992010011402504+46750+008117AUTO +0579LSMM V0209999C000012200019N0002501N1-00601-00701999999ADDAW1351ED199U02759GA1021+003901999GF102991999999999999999999MA1100511999999REMMET099METAR LSMM 140250Z AUTO 00000KT 0250NDV R10/0275N R28/0225V0375D FZFG FEW013 M06/M07 Q1005 RMK RED;
0151066140999992010011403504+46750+008117FM-15+0579LSMM V0209999C000012200019N0006001N1-00501-00601999999ADDAW1351MA1100601999999REMMET118METAR LSMM 140350Z AUTO 00000KT 0600NDV R10/0550V0800N R28/0900V1900U FZFG FEW005 SCT008 OVC010 M05/M06 Q1006 RMK RED;
0161066140999992010011404504+46750+008117AUTO +0579LSMM V0201101N002110039019N0112651N1-00301-00301999999ADDGA1041+002401999GA2081+003901999GF108991999999999999999999MA1100611999999REMMET076METAR LSMM 140450Z AUTO 11004KT 9999NDV SCT008 OVC013 M03/M03 Q1006 RMK GRN;
0151066140999992010011405504+46750+008117AUTO +0579LSMM V0209999V001519999999N0012001N1-00501-00601999999ADDAW1101MA1100501999999REMMET099METAR LSMM 140550Z AUTO VRB03KT 1200NDV R10/1000VP2000D R28/P2000N BR FEW012 M05/M06 Q1005 RMK RED;EQDQ01+000803ATOT  
0161066140999992010011406504+46750+008117FM-15+0579LSMM V0201001N002112200019N0003501N1-00801-00901999999ADDED199U04009GF100991999999999999999999MA1100511999999MW1481REMMET091METAR LSMM 140650Z 10004KT 060V120 0350 R10/0400N R28/0500N FZFG NSC M08/M09 Q1005 RMK RED;
0124066140999992010011407504+46750+008117FM-15+0579LSMM V0209999V000512200019N0003001N1-00801-00901999999ADDMA1100401999999REMMET097METAR LSMM 140750Z VRB01KT 0300 R10/0800VP2000D R28/0275V0600D BCFG FEW009 M08/M09 Q1004 RMK RED;
0123066140999992010011408504+46750+008117FM-15+0579LSMM V0209999C000012200019N0002001N1-00901-01001999999ADDMA1100401999999REMMET096METAR LSMM 140850Z 00000KT 0200 R10/0225V0375N R28/0175V0300N BCFG FEW200 M09/M10 Q1004 RMK RED;
0123066140999992010011409504+46750+008117FM-15+0579LSMM V0209999V001012200019N0003001N1-00901-01001999999ADDMA1100401999999REMMET096METAR LSMM 140950Z VRB02KT 0300 R10/0250V0400U R28/0275V0600U BCFG FEW200 M09/M10 Q1004 RMK RED;
0134066140999992010011410504+46750+008117AUTO +0579LSMM V0209999C000012200019N0005501N1-00701-00701999999ADDAW1101MA1100301999999REMMET101METAR LSMM 141050Z AUTO 00000KT 0550NDV R10/0700VP2000D R28/1100VP2000U BR NCD M07/M07 Q1003 RMK RED;
0157066140999992010011411504+46750+008117FM-15+0579LSMM V0202801N001510390019N0080001N1-00502-00601999999ADDGA1071+039001999GF107991999999999999999999MA1100201999999REMMET069METAR LSMM 141150Z 28003KT 230V330 8000 BKN130 M05/M06 Q1002 RMK WTH;EQDQ01-000503ATOT  
0129066140999992010011413504+46750+008117FM-15+0579LSMM V0202601N004610330019N0112651N1+00101-00101999999ADDGA1071+033001999GF107991999999999999999999MA1100311999999REMMET060METAR LSMM 141350Z 26009KT 9999 BKN110 01/M01 Q1003 RMK WHT;
0160066140999992010011414504+46750+008117FM-15+0579LSMM V0202501N002110330019N0112651N1+00101-00101999999ADDGA1021+002701999GA2071+033001999GF107991999999999999999999MA1100311999999REMMET075METAR LSMM 141450Z 25004KT 230V320 9999 FEW009 BKN110 01/M01 Q1003 RMK WHT;
0137066140999992010011415504+46750+008117AUTO +0579LSMM V0209999C000010330019N0112651N1+00101-00101999999ADDGA1071+033001999GF107991999999999999999999MA1100311999999REMMET068METAR LSMM 141550Z AUTO 00000KT 9999NDV BKN110 01/M01 Q1003 RMK WHT;
0139066140999992010011416504+46750+008117AUTO +0579LSMM V0202601N001519999999N0008001N1-00101-00101999999ADDAW1101MA1100301999999REMMET106METAR LSMM 141650Z AUTO 26003KT 240V340 0800NDV R10/0600V1200D R28/P2000N BR OVC110 M01/M01 Q1003 RMK RED;
0170066140999992010011417504+46750+008117AUTO +0579LSMM V0209999V000510030019N0036001N1-00101-00201999999ADDAW1301GA1071+003001999GA2081+036001999GF108991999999999999999999MA1100411999999REMMET079METAR LSMM 141750Z AUTO VRB01KT 3600NDV FG BKN010 OVC120 M01/M02 Q1004 RMK GRN;
0138066140999992010011418504+46750+008117AUTO +0579LSMM V0209999C000010036019N0050001N1+00001-00101999999ADDGA1081+003601999GF108991999999999999999999MA1100611999999REMMET069METAR LSMM 141850Z AUTO 00000KT 5000NDV OVC012 M00/M01 Q1006 RMK GRN;
0138066140999992010011419504+46750+008117AUTO +0579LSMM V0201001N001510036019N0060001N1+00001-00101999999ADDGA1081+003601999GF108991999999999999999999MA1100711999999REMMET069METAR LSMM 141950Z AUTO 10003KT 6000NDV OVC012 M00/M01 Q1007 RMK GRN;
0137066140999992010011420504+46750+008117AUTO +0579LSMM V0209999V000510039019N0090001N1+00001-00101999999ADDGA1081+003901999GF108991999999999999999999MA1100811999999REMMET068METAR LSMM 142050Z AUTO VRB01KT 9000NDV OVC013 00/M01 Q1008 RMK GRN;
0137066140999992010011422504+46750+008117AUTO +0579LSMM V0201101N001010042019N0060001N1+00001-00101999999ADDGA1081+004201999GF108991999999999999999999MA1101021999999REMMET068METAR LSMM 142250Z AUTO 11002KT 6000NDV OVC014 00/M01 Q1010 RMK GRN;
0137066140999992010011423504+46750+008117AUTO +0579LSMM V0200901N002110042019N0080001N1+00001-00101999999ADDGA1081+004201999GF108991999999999999999999MA1101021999999REMMET068METAR LSMM 142350Z AUTO 09004KT 8000NDV OVC014 00/M01 Q1010 RMK GRN;
0137066140999992010011500504+46750+008117AUTO +0579LSMM V0200701N001010045019N0090001N1+00001-00201999999ADDGA1081+004501999GF108991999999999999999999MA1101081999999REMMET068METAR LSMM 150050Z AUTO 07002KT 9000NDV OVC015 00/M02 Q1011 RMK GRN;
0137066140999992010011501504+46750+008117AUTO +0579LSMM V0209999V001010045019N0112651N1+00001-00201999999ADDGA1081+004501999GF108991999999999999999999MA1101191999999REMMET068METAR LSMM 150150Z AUTO VRB02KT 9999NDV OVC015 00/M02 Q1012 RMK GRN;
0137066140999992010011502504+46750+008117AUTO +0579LSMM V0201301N001510042019N0112651N1+00001-00301999999ADDGA1081+004201999GF108991999999999999999999MA1101291999999REMMET068METAR LSMM 150250Z AUTO 13003KT 9999NDV OVC014 00/M03 Q1013 RMK GRN;
0138066140999992010011503504+46750+008117AUTO +0579LSMM V0201101N002610042019N0090001N1-00101-00301999999ADDGA1081+004201999GF108991999999999999999999MA1101291999999REMMET069METAR LSMM 150350Z AUTO 11005KT 9000NDV OVC014 M01/M03 Q1013 RMK GRN;
0138066140999992010011504504+46750+008117AUTO +0579LSMM V0209999V001010042019N0090001N1-00101-00301999999ADDGA1071+004201999GF107991999999999999999999MA1101491999999REMMET069METAR LSMM 150450Z AUTO VRB02KT 9000NDV BKN014 M01/M03 Q1015 RMK GRN;
0130066140999992010011505504+46750+008117FM-15+0579LSMM V0201201N003110042019N0112651N1-00101-00301999999ADDGA1081+004201999GF108991999999999999999999MA1101591999999REMMET061METAR LSMM 150550Z 12006KT 9999 OVC014 M01/M03 Q1016 RMK GRN;
0130066140999992010011506504+46750+008117FM-15+0579LSMM V0200901N003610042019N0112651N1-00101-00301999999ADDGA1081+004201999GF108991999999999999999999MA1101691999999REMMET061METAR LSMM 150650Z 09007KT 9999 OVC014 M01/M03 Q1017 RMK GRN;
0130066140999992010011507504+46750+008117FM-15+0579LSMM V0209999V000512200019N0080001N1-00301-00501999999ADDGA1041+036001999GF104991999999999999999999MA1101691999999REMMET061METAR LSMM 150750Z VRB01KT 8000 SCT120 M03/M05 Q1017 RMK BLU;
0153066140999992010011508504+46750+008117FM-15+0579LSMM V0200801N002610300019N0080001N1-00401-00501999999ADDGA1041+003901999GA2071+030001999GF107991999999999999999999MA1101901999999REMMET068METAR LSMM 150850Z 08005KT 8000 SCT013 BKN100 M04/M05 Q1019 RMK WTH;
0153066140999992010011509504+46750+008117FM-15+0579LSMM V0201101N002612200019N0090001N1-00501-00601999999ADDGA1021+003601999GA2041+033001999GF104991999999999999999999MA1101901999999REMMET068METAR LSMM 150950Z 11005KT 9000 FEW012 SCT110 M05/M06 Q1019 RMK BLU;
0130066140999992010011511504+46750+008117FM-15+0579LSMM V0209999V001010330019N0080001N1-00201-00401999999ADDGA1071+033001999GF107991999999999999999999MA1101901999999REMMET061METAR LSMM 151150Z VRB02KT 8000 BKN110 M02/M04 Q1019 RMK WTH;
0130066140999992010011512504+46750+008117FM-15+0579LSMM V0209999V001010360019N0080001N1-00101-00401999999ADDGA1071+036001999GF107991999999999999999999MA1102001999999REMMET061METAR LSMM 151250Z VRB02KT 8000 BKN120 M01/M04 Q1020 RMK WTH;
0138066140999992010011513504+46750+008117FM-15+0579LSMM V0201101N002110420019N0090001N1-00201-00401999999ADDGA1071+042001999GF107991999999999999999999MA1102001999999REMMET069METAR LSMM 151350Z 11004KT 070V140 9000 BKN140 M02/M04 Q1020 RMK BLU;
0153066140999992010011514504+46750+008117FM-15+0579LSMM V0209999V001012200019N0112651N1-00201-00401999999ADDGA1021+033001999GA2041+042001999GF104991999999999999999999MA1102101999999REMMET068METAR LSMM 151450Z VRB02KT 9999 FEW110 SCT140 M02/M04 Q1021 RMK BLU;
0138066140999992010011515504+46750+008117AUTO +0579LSMM V0202901N001012200019N0080001N1-00201-00401999999ADDGA1021+033001999GF102991999999999999999999MA1102201999999REMMET069METAR LSMM 151550Z AUTO 29002KT 8000NDV FEW110 M02/M04 Q1022 RMK BLU;
0138066140999992010011516504+46750+008117AUTO +0579LSMM V0201301N002110330019N0112651N1-00301-00401999999ADDGA1071+033001999GF107991999999999999999999MA1102201999999REMMET069METAR LSMM 151650Z AUTO 13004KT 9999NDV BKN110 M03/M04 Q1022 RMK WHT;
0127066140999992010011517504+46750+008117AUTO +0579LSMM V0200601N001512200019N0070001N1-00601-00701999999ADDGF100991999999999999999999MA1102201999999REMMET074METAR LSMM 151750Z AUTO 06003KT 350V110 7000NDV NCD M06/M07 Q1022 RMK GRN;
0119066140999992010011518504+46750+008117AUTO +0579LSMM V0209999V001012200019N0070001N1-00501-00601999999ADDGF100991999999999999999999MA1102301999999REMMET066METAR LSMM 151850Z AUTO VRB02KT 7000NDV NCD M05/M06 Q1023 RMK GRN;
0127066140999992010011519504+46750+008117AUTO +0579LSMM V0200801N002112200019N0060001N1-00801-00901999999ADDGF100991999999999999999999MA1102301999999REMMET074METAR LSMM 151950Z AUTO 08004KT 060V120 6000NDV NCD M08/M09 Q1023 RMK GRN;
0135066140999992010011520504+46750+008117FM-15+0579LSMM V0209999C000012200019N0007001N1-00801-00801999999ADDAW1311MA1102301999999REMMET102METAR LSMM 152050Z AUTO 00000KT 0700NDV R10/0650VP2000D R28/0550V1400D BCFG NCD M08/M08 Q1023 RMK RED;
0167066140999992010011521504+46750+008117AUTO +0579LSMM V0209999V000512200019N0013001N1-00701-00801999999ADDAW1351ED199U20009GF100991999999999999999999MA1102301999999REMMET097METAR LSMM 152150Z AUTO VRB01KT 1300NDV R10/P2000N R28/0375V1100D FZFG NCD M07/M08 Q1023 RMK RED;
0135066140999992010011522504+46750+008117FM-15+0579LSMM V0209999V001012200019N0005501N1-00701-00801999999ADDAW1351MA1102301999999REMMET102METAR LSMM 152250Z AUTO VRB02KT 0550NDV R10/0700V1000U R28/0750VP2000U FZFG NCD M07/M08 Q1023 RMK RED;
0128066140999992010011523504+46750+008117AUTO +0579LSMM V0209999V001512200019N0050001N1-00701-00801999999ADDAW1101GF100991999999999999999999MA1102301999999REMMET069METAR LSMM 152350Z AUTO VRB03KT 5000NDV BR NCD M07/M08 Q1023 RMK GRN;
0161066140999992010011600504+46750+008117AUTO +0579LSMM V0201101N003110036019N0112651N1-00801-00901999999ADDGA1041+002701999GA2071+003601999GF107991999999999999999999MA1102301999999REMMET076METAR LSMM 160050Z AUTO 11006KT 9999NDV SCT009 BKN012 M08/M09 Q1023 RMK GRN;
0138066140999992010011601504+46750+008117AUTO +0579LSMM V0209999V001012200019N0112651N1-00801-00901999999ADDGA1041+002401999GF104991999999999999999999MA1102301999999REMMET069METAR LSMM 160150Z AUTO VRB02KT 9999NDV SCT008 M08/M09 Q1023 RMK BLU;
0138066140999992010011602504+46750+008117AUTO +0579LSMM V0201001N002610027019N0112651N1-00801-00901999999ADDGA1081+002701999GF108991999999999999999999MA1102301999999REMMET069METAR LSMM 160250Z AUTO 10005KT 9999NDV OVC009 M08/M09 Q1023 RMK YLO;
0119066140999992010011603504+46750+008117AUTO +0579LSMM V0209999V001512200019N0112651N1-00801-00901999999ADDGF100991999999999999999999MA1102201999999REMMET066METAR LSMM 160350Z AUTO VRB03KT 9999NDV NCD M08/M09 Q1022 RMK BLU;
0138066140999992010011604504+46750+008117AUTO +0579LSMM V0200901N002610024019N0112651N1-00801-00901999999ADDGA1071+002401999GF107991999999999999999999MA1102201999999REMMET069METAR LSMM 160450Z AUTO 09005KT 9999NDV BKN008 M08/M09 Q1022 RMK YLO;
0146066140999992010011605504+46750+008117AUTO +0579LSMM V0202801N001512200019N0112651N1-00701-00801999999ADDGA1021+002101999GF102991999999999999999999MA1102101999999REMMET077METAR LSMM 160550Z AUTO 28003KT 230V010 9999NDV FEW007 M07/M08 Q1021 RMK BLU;
0119066140999992010011606504+46750+008117AUTO +0579LSMM V0201101N002112200019N0112651N1-00801-00901999999ADDGF100991999999999999999999MA1102101999999REMMET066METAR LSMM 160650Z AUTO 11004KT 9999NDV NCD M08/M09 Q1021 RMK BLU;
0119066140999992010011607504+46750+008117AUTO +0579LSMM V0209999V001012200019N0112651N1-00901-01001999999ADDGF100991999999999999999999MA1102001999999REMMET066METAR LSMM 160750Z AUTO VRB02KT 9999NDV NCD M09/M10 Q1020 RMK BLU;
0119066140999992010011608504+46750+008117AUTO +0579LSMM V0200901N002612200019N0112651N1-01001-01101999999ADDGF100991999999999999999999MA1102001999999REMMET066METAR LSMM 160850Z AUTO 09005KT 9999NDV NCD M10/M11 Q1020 RMK BLU;
0119066140999992010011609504+46750+008117AUTO +0579LSMM V0209999V001012200019N0090001N1-00901-01001999999ADDGF100991999999999999999999MA1102001999999REMMET066METAR LSMM 160950Z AUTO VRB02KT 9000NDV NCD M09/M10 Q1020 RMK BLU;
0119066140999992010011610504+46750+008117AUTO +0579LSMM V0201101N001512200019N0028001N1-00801-00901999999ADDGF100991999999999999999999MA1101901999999REMMET066METAR LSMM 161050Z AUTO 11003KT 2800NDV NCD M08/M09 Q1019 RMK YLO;
0127066140999992010011611504+46750+008117AUTO +0579LSMM V0202801N001512200019N0112651N1-00701-00801999999ADDGF100991999999999999999999MA1101801999999REMMET074METAR LSMM 161150Z AUTO 28003KT 240V320 9999NDV NCD M07/M08 Q1018 RMK BLU;
0138066140999992010011612504+46750+008117AUTO +0579LSMM V0202501N003110027019N0112651N1-00101-00301999999ADDGA1071+002701999GF107991999999999999999999MA1101901999999REMMET069METAR LSMM 161250Z AUTO 25006KT 9999NDV BKN009 M01/M03 Q1019 RMK YLO;
0130066140999992010011806504+46750+008117FM-15+0579LSMM V0209999C000010210019N0112651N1-00201-00301999999ADDGA1071+021001999GF107991999999999999999999MA1102611999999REMMET061METAR LSMM 180650Z 00000KT 9999 BKN072 M02/M03 Q1026 RMK WHT;
0120066140999992010011808504+46750+008117FM-15+0579LSMM V0209999V001012200019N0002501N1-00401-00401999999ADDMA1102601999999REMMET093METAR LSMM 180850Z VRB02KT 0250 R10/0200V0350N R28/0450V1000D FZFG NSC M04/M04 Q1026 RMK RED;
0124066140999992010011809504+46750+008117FM-15+0579LSMM V0209999V000512200019N0080001N1-00301-00301999999ADDMA1102601999999REMMET097METAR LSMM 180950Z VRB01KT 8000 R10/0700V1200D R28/1000VP2000D BCFG FEW045 M03/M03 Q1026 RMK BLU;
0139066140999992010011811504+46750+008117FM-15+0579LSMM V0209999V000512200019N0049001N1-00301-00301999999ADDGA1021+013501999GF102991999999999999999999MA1102511999999MW1101REMMET064METAR LSMM 181150Z VRB01KT 4900 BR FEW045 M03/M03 Q1025 RMK GRN;
0138066140999992010011817504+46750+008117AUTO +0579LSMM V0201001N003112200019N0112651N1-00501-00601999999ADDGA1021+063001999GF102991999999999999999999MA1102511999999REMMET069METAR LSMM 181750Z AUTO 10006KT 9999NDV FEW210 M05/M06 Q1025 RMK BLU;
0146066140999992010011818504+46750+008117AUTO +0579LSMM V0201101N004112200019N0112651N1-00201-00501999999ADDGA1041+060001999GF104991999999999999999999MA1102511999999REMMET077METAR LSMM 181850Z AUTO 11008KT 070V150 9999NDV SCT200 M02/M05 Q1025 RMK BLU;
0119066140999992010011820504+46750+008117AUTO +0579LSMM V0201001N004112200019N0112651N1-00401-00601999999ADDGF100991999999999999999999MA1102511999999REMMET066METAR LSMM 182050Z AUTO 10008KT 9999NDV NCD M04/M06 Q1025 RMK BLU;
0119066140999992010011821504+46750+008117AUTO +0579LSMM V0200901N002612200019N0112651N1-00301-00601999999ADDGF100991999999999999999999MA1102401999999REMMET066METAR LSMM 182150Z AUTO 09005KT 9999NDV NCD M03/M06 Q1024 RMK BLU;
0119066140999992010011822504+46750+008117AUTO +0579LSMM V0209999C000012200019N0112651N1-00501-00701999999ADDGF100991999999999999999999MA1102401999999REMMET066METAR LSMM 182250Z AUTO 00000KT 9999NDV NCD M05/M07 Q1024 RMK BLU;
0119066140999992010011823504+46750+008117AUTO +0579LSMM V0209999V001012200019N0112651N1-00601-00701999999ADDGF100991999999999999999999MA1102401999999REMMET066METAR LSMM 182350Z AUTO VRB02KT 9999NDV NCD M06/M07 Q1024 RMK BLU;
0119066140999992010011900504+46750+008117AUTO +0579LSMM V0209999C000012200019N0112651N1-00601-00701999999ADDGF100991999999999999999999MA1102401999999REMMET066METAR LSMM 190050Z AUTO 00000KT 9999NDV NCD M06/M07 Q1024 RMK BLU;
0119066140999992010011901504+46750+008117AUTO +0579LSMM V0209999V001012200019N0112651N1-00701-00901999999ADDGF100991999999999999999999MA1102401999999REMMET066METAR LSMM 190150Z AUTO VRB02KT 9999NDV NCD M07/M09 Q1024 RMK BLU;
0119066140999992010011902504+46750+008117AUTO +0579LSMM V0209999C000012200019N0112651N1-00701-00801999999ADDGF100991999999999999999999MA1102301999999REMMET066METAR LSMM 190250Z AUTO 00000KT 9999NDV NCD M07/M08 Q1023 RMK BLU;
0119066140999992010011903504+46750+008117AUTO +0579LSMM V0209999C000012200019N0112651N1-00701-00801999999ADDGF100991999999999999999999MA1102301999999REMMET066METAR LSMM 190350Z AUTO 00000KT 9999NDV NCD M07/M08 Q1023 RMK BLU;
0119066140999992010011904504+46750+008117AUTO +0579LSMM V0209999V000512200019N0112651N1-00801-00901999999ADDGF100991999999999999999999MA1102301999999REMMET066METAR LSMM 190450Z AUTO VRB01KT 9999NDV NCD M08/M09 Q1023 RMK BLU;
0119066140999992010011905504+46750+008117AUTO +0579LSMM V0201001N001012200019N0112651N1-00801-00901999999ADDGF100991999999999999999999MA1102201999999REMMET066METAR LSMM 190550Z AUTO 10002KT 9999NDV NCD M08/M09 Q1022 RMK BLU;
0082066140999992010011906504+46750+008117FM-15+0579LSMM V0209999V000519999999Y0099001N1-00801-00901999999ADDMA1102201999999REMMET055METAR LSMM 190650Z VRB01KT CAVOK M08/M09 Q1022 RMK BLU;
0082066140999992010011907504+46750+008117FM-15+0579LSMM V0201001N002119999999Y0099001N1-00901-01001999999ADDMA1102201999999REMMET055METAR LSMM 190750Z 10004KT CAVOK M09/M10 Q1022 RMK BLU;
0082066140999992010011908504+46750+008117FM-15+0579LSMM V0209999V001019999999Y0099001N1-00701-00901999999ADDMA1102201999999REMMET055METAR LSMM 190850Z VRB02KT CAVOK M07/M09 Q1022 RMK BLU;
0082066140999992010011909504+46750+008117FM-15+0579LSMM V0209999C000019999999Y0099001N1-00701-00901999999ADDMA1102201999999REMMET055METAR LSMM 190950Z 00000KT CAVOK M07/M09 Q1022 RMK BLU;
0119066140999992010011910504+46750+008117AUTO +0579LSMM V0209999V001012200019N0112651N1-00601-00801999999ADDGF100991999999999999999999MA1102101999999REMMET066METAR LSMM 191050Z AUTO VRB02KT 9999NDV NCD M06/M08 Q1021 RMK BLU;
0082066140999992010011911504+46750+008117FM-15+0579LSMM V0209999V000519999999Y0099001N1-00501-00701999999ADDMA1102001999999REMMET055METAR LSMM 191150Z VRB01KT CAVOK M05/M07 Q1020 RMK BLU;
0082066140999992010011913504+46750+008117FM-15+0579LSMM V0209999C000019999999Y0099001N1-00501-00701999999ADDMA1101901999999REMMET055METAR LSMM 191350Z 00000KT CAVOK M05/M07 Q1019 RMK BLU;
0130066140999992010011914504+46750+008117FM-15+0579LSMM V0201101N001512200019N0112651N1-00601-00801999999ADDGA1021+060001999GF102991999999999999999999MA1101901999999REMMET061METAR LSMM 191450Z 11003KT 9999 FEW200 M06/M08 Q1019 RMK BLU;
0138066140999992010011915504+46750+008117AUTO +0579LSMM V0209999V001012200019N0112651N1-00501-00701999999ADDGA1021+030001999GF102991999999999999999999MA1101901999999REMMET069METAR LSMM 191550Z AUTO VRB02KT 9999NDV FEW100 M05/M07 Q1019 RMK BLU;
0138066140999992010011916504+46750+008117AUTO +0579LSMM V0201301N000512200019N0112651N1-00601-00801999999ADDGA1021+027001999GF102991999999999999999999MA1101801999999REMMET069METAR LSMM 191650Z AUTO 13001KT 9999NDV FEW098 M06/M08 Q1018 RMK BLU;
0138066140999992010011918504+46750+008117AUTO +0579LSMM V0209999V000512200019N0112651N1-00701-00801999999ADDGA1021+030001999GF102991999999999999999999MA1101801999999REMMET069METAR LSMM 191850Z AUTO VRB01KT 9999NDV FEW100 M07/M08 Q1018 RMK BLU;
0119066140999992010011919504+46750+008117AUTO +0579LSMM V0209999C000012200019N0112651N1-00801-00901999999ADDGF100991999999999999999999MA1101801999999REMMET066METAR LSMM 191950Z AUTO 00000KT 9999NDV NCD M08/M09 Q1018 RMK BLU;
0082066140999992010012007504+46750+008117FM-15+0579LSMM V0201001N001519999999Y0099001N1-00901-01001999999ADDMA1101391999999REMMET055METAR LSMM 200750Z 10003KT CAVOK M09/M10 Q1014 RMK BLU;
0082066140999992010012008504+46750+008117FM-15+0579LSMM V0209999C000019999999Y0099001N1-00901-01001999999ADDMA1101291999999REMMET055METAR LSMM 200850Z 00000KT CAVOK M09/M10 Q1013 RMK BLU;
0130066140999992010012009504+46750+008117FM-15+0579LSMM V0209999C000012200019N0112651N1-00801-00901999999ADDGA1021+069001999GF102991999999999999999999MA1101291999999REMMET061METAR LSMM 200950Z 00000KT 9999 FEW230 M08/M09 Q1013 RMK BLU;
0119066140999992010012010504+46750+008117AUTO +0579LSMM V0209999C000012200019N0112651N1-00701-00801999999ADDGF100991999999999999999999MA1101291999999REMMET066METAR LSMM 201050Z AUTO 00000KT 9999NDV NCD M07/M08 Q1013 RMK BLU;
0153066140999992010012011504+46750+008117FM-15+0579LSMM V0209999C000012200019N0112651N1-00501-00601999999ADDGA1021+003001999GA2041+072001999GF104991999999999999999999MA1101291999999REMMET068METAR LSMM 201150Z 00000KT 9999 FEW010 SCT240 M05/M06 Q1013 RMK BLU;
0130066140999992010012012504+46750+008117FM-15+0579LSMM V0209999V001012200019N0080001N1-00401-00501999999ADDGA1041+066001999GF104991999999999999999999MA1101291999999REMMET061METAR LSMM 201250Z VRB02KT 8000 SCT220 M04/M05 Q1013 RMK BLU;
0130066140999992010012013504+46750+008117FM-15+0579LSMM V0202701N001012200019N0080001N1-00301-00501999999ADDGA1041+066001999GF104991999999999999999999MA1101191999999REMMET061METAR LSMM 201350Z 27002KT 8000 SCT220 M03/M05 Q1012 RMK BLU;
0153066140999992010012014504+46750+008117FM-15+0579LSMM V0202501N002110660019N0080001N1-00201-00301999999ADDGA1021+057001999GA2071+066001999GF107991999999999999999999MA1101291999999REMMET068METAR LSMM 201450Z 25004KT 8000 FEW190 BKN220 M02/M03 Q1013 RMK WTH;
0130066140999992010012107504+46750+008117FM-15+0579LSMM V0209999C000012200019N0002501N1-00301-00401999999ADDMA1102001999999REMMET103METAR LSMM 210750Z 00000KT 0250 R10/0200V0550D R28/0400V0700D FZFG SCT015 BKN064 M03/M04 Q1020 RMK RED;
0130066140999992010012108504+46750+008117FM-15+0579LSMM V0209999V000512200019N0005001N1-00201-00301999999ADDMA1102101999999REMMET103METAR LSMM 210850Z VRB01KT 0500 R10/0325V0500N R28/0400V1400D BCFG SCT011 BKN061 M02/M03 Q1021 RMK RED;
0139066140999992010012109504+46750+008117FM-15+0579LSMM V0200901N001010033019N0030001N1-00101-00201999999ADDGA1071+003301999GF107991999999999999999999MA1102101999999MW1101REMMET064METAR LSMM 210950Z 09002KT 3000 BR BKN011 M01/M02 Q1021 RMK GRN;
0138066140999992010012110504+46750+008117FM-15+0579LSMM V0209999C000010024019N0050001N1+00101-00101999999ADDGA1081+002401999GF108991999999999999999999MA1102201999999MW1101REMMET063METAR LSMM 211050Z 00000KT 5000 BR OVC008 01/M01 Q1022 RMK YLO;
0152066140999992010012111504+46750+008117FM-15+0579LSMM V0209999V001010021019N0080001N1+00201-00101999999ADDGA1071+002101999GA2071+015001999GF107991999999999999999999MA1102101999999REMMET067METAR LSMM 211150Z VRB02KT 8000 BKN007 BKN053 02/M01 Q1021 RMK YLO;
0129066140999992010012112504+46750+008117FM-15+0579LSMM V0201301N002112200019N0060001N1+00001-00101999999ADDGA1021+001501999GF102991999999999999999999MA1102001999999REMMET060METAR LSMM 211250Z 13004KT 6000 FEW005 00/M01 Q1020 RMK GRN;
0124066140999992010012113504+46750+008117FM-15+0579LSMM V0209999V001012200019N0002001N1-00201-00301999999ADDMA1102001999999REMMET097METAR LSMM 211350Z VRB02KT 0200 R10/1300VP2000D R28/0250V0900D BCFG FEW050 M02/M03 Q1020 RMK RED;
0118066140999992010012114504+46750+008117FM-15+0579LSMM V0209999C000012200019N0002001N1-00301-00401999999ADDMA1102101999999REMMET091METAR LSMM 211450Z 00000KT 0200 R10/0150V0300N R28/0250D BCFG FEW052 M03/M04 Q1021 RMK RED;
0177066140999992010012115504+46750+008117FM-15+0579LSMM V0209999V001012200019N0002501N1-00401-00501999999ADDED199U02509GA1021+015001999GF102991999999999999999999MA1102101999999MW1411REMMET091METAR LSMM 211550Z VRB02KT 0250 R10/0250N R28/0200V0300N BCFG FEW050 M04/M05 Q1021 RMK RED;
0111066140999992010012205504+46750+008117FM-15+0579LSMM V0209999C000019999999N0080001N1-00901-01001999999ADDMA1102201999999REMMET084METAR LSMM 220550Z 00000KT 8000 R10/0600V0800D R28/P2000N NSC M09/M10 Q1022 RMK BLU;
0130066140999992010012206504+46750+008117FM-15+0579LSMM V0209999V001012200019N0080001N1-00902-00901999999ADDGF100991999999999999999999MA1102201999999REMMET058METAR LSMM 220650Z VRB02KT 8000 NSC M09/M09 Q1022 RMK BLU;EQDQ01-000903ATOT  
0082066140999992010012207504+46750+008117FM-15+0579LSMM V0209999C000019999999Y0099001N1-00801-00901999999ADDMA1102201999999REMMET055METAR LSMM 220750Z 00000KT CAVOK M08/M09 Q1022 RMK BLU;
0111066140999992010012208504+46750+008117FM-15+0579LSMM V0209999C000012200019N0080001N1-00801-00901999999ADDGF100991999999999999999999MA1102201999999REMMET058METAR LSMM 220850Z 00000KT 8000 NSC M08/M09 Q1022 RMK BLU;
0082066140999992010012209504+46750+008117FM-15+0579LSMM V0209999C000019999999Y0099001N1-00701-00801999999ADDMA1102201999999REMMET055METAR LSMM 220950Z 00000KT CAVOK M07/M08 Q1022 RMK BLU;
0082066140999992010012211504+46750+008117FM-15+0579LSMM V0209999C000019999999Y0099001N1-00601-00601999999ADDMA1102101999999REMMET055METAR LSMM 221150Z 00000KT CAVOK M06/M06 Q1021 RMK BLU;
0111066140999992010012212504+46750+008117FM-15+0579LSMM V0209999V000512200019N0080001N1-00501-00601999999ADDGF100991999999999999999999MA1102101999999REMMET058METAR LSMM 221250Z VRB01KT 8000 NSC M05/M06 Q1021 RMK BLU;
0082066140999992010012213504+46750+008117FM-15+0579LSMM V0209999V000519999999Y0099001N1-00501-00501999999ADDMA1102001999999REMMET055METAR LSMM 221350Z VRB01KT CAVOK M05/M05 Q1020 RMK BLU;
0082066140999992010012214504+46750+008117FM-15+0579LSMM V0209999V000519999999Y0099001N1-00601-00701999999ADDMA1102101999999REMMET055METAR LSMM 221450Z VRB01KT CAVOK M06/M07 Q1021 RMK BLU;
0090066140999992010012215504+46750+008117FM-15+0579LSMM V0201001N001519999999Y0099001N1-00501-00701999999ADDMA1102101999999REMMET063METAR LSMM 221550Z 10003KT 060V140 CAVOK M05/M07 Q1021 RMK BLU;
0082066140999992010012216504+46750+008117FM-15+0579LSMM V0209999V000519999999Y0099001N1-00501-00701999999ADDMA1102101999999REMMET055METAR LSMM 221650Z VRB01KT CAVOK M05/M07 Q1021 RMK BLU;
0176066140999992010012505504+46750+008117FM-15+0579LSMM V0201001N00101018001CN0112651N1-00301-00401999999ADDGA1021+015001999GA2041+018001999GA3081+024001999GF108991999999999999999999MA1102201999999REMMET075METAR LSMM 250550Z 10002KT 9999 FEW055 SCT066 OVC086 M03/M04 Q1022 RMK WHT;
0153066140999992010012506504+46750+008117FM-15+0579LSMM V0201101N001010210019N0112651N1-00201-00401999999ADDGA1021+018001999GA2081+021001999GF108991999999999999999999MA1102301999999REMMET068METAR LSMM 250650Z 11002KT 9999 FEW060 OVC073 M02/M04 Q1023 RMK WHT;
0176066140999992010012507504+46750+008117FM-15+0579LSMM V0209999C00001015001CN0112651N1-00201-00401999999ADDGA1021+011701999GA2041+015001999GA3081+018001999GF108991999999999999999999MA1102301999999REMMET075METAR LSMM 250750Z 00000KT 9999 FEW039 SCT052 OVC062 M02/M04 Q1023 RMK WHT;
0130066140999992010012508504+46750+008117FM-15+0579LSMM V0209999C000010135019N0112651N1-00101-00401999999ADDGA1081+013501999GF108991999999999999999999MA1102401999999REMMET061METAR LSMM 250850Z 00000KT 9999 OVC045 M01/M04 Q1024 RMK WHT;
0153066140999992010012509504+46750+008117FM-15+0579LSMM V0200801N002110330019N0112651N1+00001-00301999999ADDGA1021+024001999GA2071+033001999GF107991999999999999999999MA1102401999999REMMET068METAR LSMM 250950Z 08004KT 9999 FEW080 BKN110 M00/M03 Q1024 RMK WHT;
0152066140999992010012510504+46750+008117FM-15+0579LSMM V0209999V000510450019N0112651N1+00001-00401999999ADDGA1021+015001999GA2071+045001999GF107991999999999999999999MA1102401999999REMMET067METAR LSMM 251050Z VRB01KT 9999 FEW050 BKN150 00/M04 Q1024 RMK WHT;
0153066140999992010012511504+46750+008117FM-15+0579LSMM V0202401N001512200019N0112651N1+00001-00301999999ADDGA1021+012001999GA2041+036001999GF104991999999999999999999MA1102301999999REMMET068METAR LSMM 251150Z 24003KT 9999 FEW040 SCT120 M00/M03 Q1023 RMK BLU;
0152066140999992010012512504+46750+008117FM-15+0579LSMM V0209999V001010141019N0112651N1+00101-00201999999ADDGA1021+009601999GA2071+014101999GF107991999999999999999999MA1102301999999REMMET067METAR LSMM 251250Z VRB02KT 9999 FEW032 BKN047 01/M02 Q1023 RMK WHT;
0175066140999992010012513504+46750+008117FM-15+0579LSMM V0209999C00001007501CN0112651N1+00201-00101999999ADDGA1021+005701999GA2041+007501999GA3081+014401999GF108991999999999999999999MA1102301999999REMMET074METAR LSMM 251350Z 00000KT 9999 FEW019 SCT025 OVC048 02/M01 Q1023 RMK WHT;
0183066140999992010012514504+46750+008117FM-15+0579LSMM V0200601N00411007501CN0112651N1+00201-00101999999ADDGA1021+005701999GA2041+007501999GA3071+009601999GF107991999999999999999999MA1102401999999REMMET082METAR LSMM 251450Z 06008KT 040V120 9999 FEW019 SCT025 BKN032 02/M01 Q1024 RMK WHT;
0183066140999992010012515504+46750+008117FM-15+0579LSMM V0200501N006210051019N0060001N1+00201-00101999999ADDGA1041+003001999GA2071+005101999GA3081+006601999GF108991999999999999999999MA1102401999999REMMET082METAR LSMM 251550Z 05012KT 010V080 6000 SCT010 BKN017 OVC022 02/M01 Q1024 RMK GRN;
0160066140999992010012516504+46750+008117FM-15+0579LSMM V0200601N005710075019N0050001N1+00101-00101999999ADDGA1041+003001999GA2081+007501999GF108991999999999999999999MA1102511999999REMMET075METAR LSMM 251650Z 06011KT 030V090 5000 SCT010 OVC025 01/M01 Q1025 RMK GRN;
0175066140999992010012517504+46750+008117FM-15+0579LSMM V0200501N007210048019N0050001N1+00101-00101999999ADDGA1041+003001999GA2071+004801999GA3081+009001999GF108991999999999999999999MA1102511999999REMMET074METAR LSMM 251750Z 05014KT 5000 SCT010 BKN016 OVC030 01/M01 Q1025 RMK GRN;
0160066140999992010012518504+46750+008117FM-15+0579LSMM V0200401N006710060019N0080001N1+00101-00101999999ADDGA1041+003601999GA2081+006001999GF108991999999999999999999MA1102511999999REMMET075METAR LSMM 251850Z 04013KT 010V070 8000 SCT012 OVC020 01/M01 Q1025 RMK WHT;
0152066140999992010012519504+46750+008117FM-15+0579LSMM V0200501N007210060019N0080001N1+00101-00101999999ADDGA1041+003601999GA2081+006001999GF108991999999999999999999MA1102611999999REMMET067METAR LSMM 251950Z 05014KT 8000 SCT012 OVC020 01/M01 Q1026 RMK WHT;
0152066140999992010012605504+46750+008117FM-15+0579LSMM V0201201N002610099019N0112651N1+00001-00201999999ADDGA1021+008101999GA2071+009901999GF107991999999999999999999MA1102711999999REMMET067METAR LSMM 260550Z 12005KT 9999 FEW027 BKN033 00/M02 Q1027 RMK WHT;
0152066140999992010012606504+46750+008117FM-15+0579LSMM V0201001N003110114019N0112651N1+00001-00301999999ADDGA1021+008701999GA2071+011401999GF107991999999999999999999MA1102611999999REMMET067METAR LSMM 260650Z 10006KT 9999 FEW029 BKN038 00/M03 Q1026 RMK WHT;
0175066140999992010012607504+46750+008117FM-15+0579LSMM V0201201N00361011101CN0112651N1+00001-00301999999ADDGA1021+003301999GA2041+011101999GA3081+024001999GF108991999999999999999999MA1102611999999REMMET074METAR LSMM 260750Z 12007KT 9999 FEW011 SCT037 OVC085 00/M03 Q1026 RMK WHT;
0189066140999992010012608504+46750+008117FM-15+0579LSMM V0200501N00571008101CN0080001N1+00101-00201999999ADDGA1021+004801999GA2041+008101999GA3081+011701999GF108991999999999999999999MA1102611999999REMMET088METAR LSMM 260850Z 05011KT 010V100 8000 -SHSN FEW016 SCT027 OVC039 01/M02 Q1026 RMK WHT;
0235066140999992010012609504+46750+008117FM-15+0579LSMM V0200501N00671003901CN0020001N1-00101-00201999999ADDED199U20009GA1021+002701999GA2041+003901999GA3081+004501999GF108991999999999999999999MA1102611999999MW1101MW2711REMMET111METAR LSMM 260950Z 05013KT 350V080 2000 R10/P2000U R28/1200N -SN BR FEW009 SCT013 OVC015 M01/M02 Q1026 RMK RED;
0214066140999992010012610504+46750+008117FM-15+0579LSMM V0200601N009310120019N0032001N1-00101-00301999999ADDGA1021+009001999GA2071+012001999GA3081+015001999GF108991999999999999999999MA1102511999999MW1101MW2711OC101441REMMET093METAR LSMM 261050Z 06018G28KT 020V080 3200 -SN BR FEW030 BKN040 OVC050 M01/M03 Q1025 RMK GRN;
0201066140999992010012611504+46750+008117FM-15+0579LSMM V0200601N00771011701CN0080001N1+00001-00301999999ADDGA1021+005101999GA2041+011701999GA3081+013501999GF108991999999999999999999MA1102511999999OC101291REMMET092METAR LSMM 261150Z 06015G25KT 020V120 8000 -SHSN FEW017 SCT039 OVC045 M00/M03 Q1025 RMK WHT;
0212066140999992010012612504+46750+008117FM-15+0579LSMM V0200601N00821011101CN0080001N1+00001-00301999999ADDGA1021+006001999GA2041+011101999GA3081+014701999GF108991999999999999999999MA1102401999999OC101391REMMET103METAR LSMM 261250Z 06016G27KT 020V090 8000 -SHSN FEW020 SCT037 OVC049 M00/M03 Q1024 WS ALL RWY RMK WTH;
0203066140999992010012613504+46750+008117FM-15+0579LSMM V0200601N006710132019N0050001N1-00101-00401999999ADDGA1021+008101999GA2071+013201999GA3081+015001999GF108991999999999999999999MA1102401999999MW1101MW2711REMMET090METAR LSMM 261350Z 06013KT 020V120 5000 -SN BR FEW027 BKN044 OVC052 M01/M04 Q1024 RMK GRN;
0194066140999992010012614504+46750+008117FM-15+0579LSMM V0200601N007210102019N0060001N1-00101-00401999999ADDGA1021+006001999GA2071+010201999GA3081+013501999GF108991999999999999999999MA1102401999999MW1711REMMET087METAR LSMM 261450Z 06014KT 030V100 6000 -SN FEW020 BKN034 OVC045 M01/M04 Q1024 RMK GRN;
0194066140999992010012615504+46750+008117FM-15+0579LSMM V0200601N005710090019N0080001N1-00101-00401999999ADDGA1041+006001999GA2071+009001999GA3071+021001999GF107991999999999999999999MA1102401999999MW1711REMMET087METAR LSMM 261550Z 06011KT 010V100 8000 -SN SCT020 BKN030 BKN070 M01/M04 Q1024 RMK WHT;
0172066140999992010012616504+46750+008117FM-15+0579LSMM V0200501N004610060019N0070001N1-00201-00401999999ADDGA1071+006001999GA2081+009901999GF108991999999999999999999MA1102511999999OC100981REMMET079METAR LSMM 261650Z 05009G19KT 340V130 7000 BKN020 OVC033 M02/M04 Q1025 RMK GRN;
0141066140999992010012617504+46750+008117FM-15+0579LSMM V0209999V003110075019N0045001N1-00201-00501999999ADDGA1081+007501999GF108991999999999999999999MA1102511999999OC101081REMMET064METAR LSMM 261750Z VRB06G21KT 4500 OVC025 M02/M05 Q1025 RMK GRN;
0164066140999992010012618504+46750+008117FM-15+0579LSMM V0209999V007710090019N0070001N1-00301-00501999999ADDGA1021+004501999GA2081+009001999GF108991999999999999999999MA1102511999999OC101341REMMET071METAR LSMM 261850Z VRB15G26KT 7000 FEW015 OVC030 M03/M05 Q1025 RMK GRN;
0161066140999992010012619504+46750+008117FM-15+0579LSMM V0200601N007710090019N0060001N1-00301-00601999999ADDGA1021+004501999GA2071+009001999GF107991999999999999999999MA1102511999999REMMET076METAR LSMM 261950Z 06015KT 010V100 6000 FEW015 BKN030 M03/M06 Q1025 RMK GRN;
0161066140999992010012620504+46750+008117FM-15+0579LSMM V0200601N007210090019N0060001N1-00301-00601999999ADDGA1021+004501999GA2071+009001999GF107991999999999999999999MA1102511999999REMMET076METAR LSMM 262050Z 06014KT 280V090 6000 FEW015 BKN030 M03/M06 Q1025 RMK GRN;
0184066140999992010012621504+46750+008117FM-15+0579LSMM V0200501N007710081019N0060001N1-00401-00601999999ADDGA1021+006601999GA2071+008101999GA3081+009301999GF108991999999999999999999MA1102511999999REMMET083METAR LSMM 262150Z 05015KT 020V080 6000 FEW022 BKN027 OVC031 M04/M06 Q1025 RMK GRN;
0172066140999992010012622504+46750+008117FM-15+0579LSMM V0200701N007710075019N0050001N1-00401-00601999999ADDGA1021+006001999GA2081+007501999GF108991999999999999999999MA1102511999999OC101391REMMET079METAR LSMM 262250Z 07015G27KT 020V110 5000 FEW020 OVC025 M04/M06 Q1025 RMK GRN;
0203066140999992010012623504+46750+008117FM-15+0579LSMM V0200601N00821006001CN0050001N1-00401-00701999999ADDGA1021+004501999GA2041+006001999GA3081+007501999GF108991999999999999999999MA1102611999999REMMET102METAR LSMM 262350Z 06016KT 010V110 5000 FEW015 SCT020 OVC025 M04/M07 Q1026 RMK GRN / PULVERSCHNEE GUT;
0161066140999992010012700504+46750+008117FM-15+0579LSMM V0200401N007710075019N0050001N1-00401-00701999999ADDGA1041+006001999GA2081+007501999GF108991999999999999999999MA1102611999999REMMET076METAR LSMM 270050Z 04015KT 350V070 5000 SCT020 OVC025 M04/M07 Q1026 RMK GRN;
0184066140999992010012701504+46750+008117FM-15+0579LSMM V0200501N006710075019N0050001N1-00401-00701999999ADDGA1041+006001999GA2071+007501999GA3081+009001999GF108991999999999999999999MA1102511999999REMMET083METAR LSMM 270150Z 05013KT 010V100 5000 SCT020 BKN025 OVC030 M04/M07 Q1025 RMK GRN;
0170066140999992010012702504+46750+008117FM-15+0579LSMM V0200501N006710060019N0050001N1-00401-00701999999ADDGA1071+006001999GA2081+008401999GF108991999999999999999999MA1102511999999MW1101REMMET079METAR LSMM 270250Z 05013KT 020V100 5000 BR BKN020 OVC028 M04/M07 Q1025 RMK GRN;
0184066140999992010012703504+46750+008117FM-15+0579LSMM V0200401N006210075019N0060001N1-00401-00701999999ADDGA1041+006001999GA2071+007501999GA3081+009001999GF108991999999999999999999MA1102511999999REMMET083METAR LSMM 270350Z 04012KT 010V070 6000 SCT020 BKN025 OVC030 M04/M07 Q1025 RMK GRN;
0162066140999992010012704504+46750+008117FM-15+0579LSMM V0209999V003610060019N0050001N1-00401-00701999999ADDGA1021+003601999GA2081+006001999GF108991999999999999999999MA1102511999999MW1101REMMET071METAR LSMM 270450Z VRB07KT 5000 BR FEW012 OVC020 M04/M07 Q1025 RMK GRN;
0159066140999992010012705504+46750+008117FM-15+0579LSMM V0209999V002110063019N0050001N1-00401-00701999999ADDGA1021+003901999GA2081+006301999GF108991999999999999999999MA1102611999999REMMET074METAR LSMM 270550Z VRB04KT 5000 -SHSN FEW013 OVC021 M04/M07 Q1026 RMK GRN;
0144066140999992010012706464+46750+008117FM-15+0579LSMM V0200201N003110072019N0060001N1-00401-00701999999ADDGA1081+007201999GF108991999999999999999999MA1102511999999REMMET075METAR LSMM 270646Z 02006KT 360V060 6000 -SHSN OVC024 M04/M07 Q1025 RMK GRN;
0161066140999992010012707504+46750+008117FM-15+0579LSMM V0200601N005110069019N0060001N1-00401-00801999999ADDGA1021+005401999GA2071+006901999GF107991999999999999999999MA1102511999999REMMET076METAR LSMM 270750Z 06010KT 030V120 6000 FEW018 BKN023 M04/M08 Q1025 RMK GRN;
0153066140999992010012708504+46750+008117FM-15+0579LSMM V0209999V002610066019N0060001N1-00401-00801999999ADDGA1041+005701999GA2081+006601999GF108991999999999999999999MA1102611999999REMMET068METAR LSMM 270850Z VRB05KT 6000 SCT019 OVC022 M04/M08 Q1026 RMK GRN;
0138066140999992010012709504+46750+008117FM-15+0579LSMM V0200501N001510069019N0070001N1-00401-00801999999ADDGA1081+006901999GF108991999999999999999999MA1102511999999REMMET069METAR LSMM 270950Z 05003KT 350V140 7000 OVC023 M04/M08 Q1025 RMK GRN;
0138066140999992010012710504+46750+008117FM-15+0579LSMM V0200301N002610069019N0060001N1-00301-00701999999ADDGA1071+006901999GF107991999999999999999999MA1102511999999REMMET069METAR LSMM 271050Z 03005KT 360V060 6000 BKN023 M03/M07 Q1025 RMK GRN;
0138066140999992010012711504+46750+008117FM-15+0579LSMM V0200601N005112200019N0060001N1-00301-00701999999ADDGA1041+006901999GF104991999999999999999999MA1102401999999REMMET069METAR LSMM 271150Z 06010KT 020V100 6000 SCT023 M03/M07 Q1024 RMK GRN;
0147066140999992010012712504+46750+008117FM-15+0579LSMM V0200601N006712200019N0050001N1-00301-00701999999ADDGA1041+007801999GF104991999999999999999999MA1102401999999MW1051REMMET072METAR LSMM 271250Z 06013KT 020V080 5000 HZ SCT026 M03/M07 Q1024 RMK GRN;
0130066140999992010012713504+46750+008117FM-15+0579LSMM V0209999V000512200019N0060001N1-00201-00701999999ADDGA1041+007801999GF104991999999999999999999MA1102301999999REMMET061METAR LSMM 271350Z VRB01KT 6000 SCT026 M02/M07 Q1023 RMK GRN;
0130066140999992010012714504+46750+008117FM-15+0579LSMM V0209999C000010075019N0060001N1-00301-00701999999ADDGA1071+007501999GF107991999999999999999999MA1102201999999REMMET061METAR LSMM 271450Z 00000KT 6000 BKN025 M03/M07 Q1022 RMK GRN;
0139066140999992010012715504+46750+008117FM-15+0579LSMM V0209999C000012200019N0050001N1-00301-00701999999ADDGA1021+045001999GF102991999999999999999999MA1102101999999MW1101REMMET064METAR LSMM 271550Z 00000KT 5000 BR FEW150 M03/M07 Q1021 RMK GRN;
0138066140999992010012716504+46750+008117FM-15+0579LSMM V0200501N004112200019N0050001N1-00401-00701999999ADDGA1021+006001999GF102991999999999999999999MA1102201999999REMMET069METAR LSMM 271650Z 05008KT 020V110 5000 FEW020 M04/M07 Q1022 RMK GRN;
0139066140999992010012717504+46750+008117FM-15+0579LSMM V0200901N002610066019N0050001N1-00401-00601999999ADDGA1081+006601999GF108991999999999999999999MA1102201999999MW1101REMMET064METAR LSMM 271750Z 09005KT 5000 BR OVC022 M04/M06 Q1022 RMK GRN;
0138066140999992010012718504+46750+008117FM-15+0579LSMM V0200901N001510063019N0060001N1-00301-00701999999ADDGA1081+006301999GF108991999999999999999999MA1102101999999REMMET069METAR LSMM 271850Z 09003KT 360V120 6000 OVC021 M03/M07 Q1021 RMK GRN;
0162066140999992010012719504+46750+008117FM-15+0579LSMM V0200801N001010240019N0050001N1-00501-00701999999ADDGA1041+006001999GA2081+024001999GF108991999999999999999999MA1102101999999MW1101REMMET071METAR LSMM 271950Z 08002KT 5000 BR SCT020 OVC089 M05/M07 Q1021 RMK GRN;
0153066140999992010012720504+46750+008117FM-15+0579LSMM V0201101N001010270019N0060001N1-00401-00701999999ADDGA1041+005701999GA2081+027001999GF108991999999999999999999MA1102001999999REMMET068METAR LSMM 272050Z 11002KT 6000 SCT019 OVC090 M04/M07 Q1020 RMK GRN;
0153066140999992010012721504+46750+008117FM-15+0579LSMM V0201001N001510045019N0060001N1-00401-00601999999ADDGA1071+004501999GA2081+024001999GF108991999999999999999999MA1102001999999REMMET068METAR LSMM 272150Z 10003KT 6000 BKN015 OVC080 M04/M06 Q1020 RMK GRN;
0153066140999992010012722504+46750+008117FM-15+0579LSMM V0201201N001510045019N0060001N1-00401-00601999999ADDGA1071+004501999GA2081+024001999GF108991999999999999999999MA1101801999999REMMET068METAR LSMM 272250Z 12003KT 6000 BKN015 OVC080 M04/M06 Q1018 RMK GRN;
0176066140999992010012723504+46750+008117FM-15+0579LSMM V0201101N000510210019N0060001N1-00301-00601999999ADDGA1021+004501999GA2071+021001999GA3081+027001999GF108991999999999999999999MA1101691999999REMMET075METAR LSMM 272350Z 11001KT 6000 FEW015 BKN070 OVC090 M03/M06 Q1017 RMK GRN;
0153066140999992010012800504+46750+008117FM-15+0579LSMM V0209999C000010045019N0060001N1-00301-00601999999ADDGA1071+004501999GA2081+021001999GF108991999999999999999999MA1101591999999REMMET068METAR LSMM 280050Z 00000KT 6000 BKN015 OVC077 M03/M06 Q1016 RMK GRN;
0153066140999992010012801504+46750+008117FM-15+0579LSMM V0200701N002610180019N0060001N1-00301-00601999999ADDGA1041+003901999GA2081+018001999GF108991999999999999999999MA1101491999999REMMET068METAR LSMM 280150Z 07005KT 6000 SCT013 OVC068 M03/M06 Q1015 RMK GRN;
0153066140999992010012802504+46750+008117FM-15+0579LSMM V0202501N001510045019N0050001N1-00301-00601999999ADDGA1071+004501999GA2081+007501999GF108991999999999999999999MA1101491999999REMMET068METAR LSMM 280250Z 25003KT 5000 BKN015 OVC025 M03/M06 Q1015 RMK GRN;
0143066140999992010012803504+46750+008117FM-15+0579LSMM V0201001N001510030019N0018001N1-00301-00501999999ADDGA1081+003001999GF108991999999999999999999MA1101391999999REMMET074METAR LSMM 280350Z 10003KT 360V120 1800 SHSN OVC010 M03/M05 Q1014 RMK AMB;
0163066140999992010012804504+46750+008117FM-15+0579LSMM V0209999C000010060019N0023001N1-00401-00501999999ADDGA1041+003001999GA2071+006001999GF107991999999999999999999MA1101291999999MW1711REMMET072METAR LSMM 280450Z 00000KT 2300 -SN SCT010 BKN020 M04/M05 Q1013 RMK YLO;
0186066140999992010012805504+46750+008117FM-15+0579LSMM V0209999C000010030019N0020001N1-00401-00501999999ADDGA1021+002101999GA2071+003001999GA3071+004801999GF107991999999999999999999MA1101191999999MW1711REMMET079METAR LSMM 280550Z 00000KT 2000 -SN FEW007 BKN010 BKN016 M04/M05 Q1012 RMK YLO;
0171066140999992010012806504+46750+008117FM-15+0579LSMM V0200701N001010036019N0016001N1-00401-00401999999ADDGA1021+002101999GA2071+003601999GF107991999999999999999999MA1101191999999MW1101MW2731REMMET074METAR LSMM 280650Z 07002KT 1600 SN BR FEW007 BKN012 M04/M04 Q1012 RMK AMB;
0177066140999992010012807504+46750+008117FM-15+0579LSMM V0209999V001010042019N0018001N1-00301-00401999999ADDGA1021+003301999GA2071+004201999GF107991999999999999999999MA1101081999999MW1101MW2711REMMET080METAR LSMM 280750Z VRB02KT 1800 -SN BR FEW011 BKN014 M03/M04 Q1011 RESN RMK AMB;
0194066140999992010012808504+46750+008117FM-15+0579LSMM V0209999V000510039019N0015001N1-00301-00401999999ADDGA1041+002401999GA2071+003901999GA3081+006901999GF108991999999999999999999MA1101081999999MW1101MW2771REMMET081METAR LSMM 280850Z VRB01KT 1500 SG BR SCT008 BKN013 OVC023 M03/M04 Q1011 RMK AMB;
0202066140999992010012809504+46750+008117FM-15+0579LSMM V0200901N001510033019N0008001N1-00301-00401999999ADDED199U13009GA1041+002101999GA2071+003301999GF107991999999999999999999MA1101081999999MW1101MW2731REMMET094METAR LSMM 280950Z 09003KT 0800 R10/1300U R28/1400U SN BR SCT007 BKN011 M03/M04 Q1011 RMK RED;
0191066140999992010012810434+46750+008117FM-15+0579LSMM V0209999V001010027019N0020001N1-00301-00401999999ADDGA1021+002101999GA2071+002701999GA3081+004501999GF108991999999999999999999MA1101081999999MW1711REMMET084METAR LSMM 281043Z VRB02KT 2000 -SN FEW007 BKN009 OVC015 M03/M04 Q1011 RESN RMK YLO;
0226066140999992010012811504+46750+008117FM-15+0579LSMM V0209999C000010033019N0010001N1-00201-00301999999ADDED199U13009GA1021+002101999GA2071+003301999GA3071+005701999GF107991999999999999999999MA1101021999999MW1101MW2771REMMET102METAR LSMM 281150Z 00000KT 1000 R10/1300N R28/1500N -SG BR FEW007 BKN011 BKN019 M02/M03 Q1010 RMK RED;
0202066140999992010012812504+46750+008117FM-15+0579LSMM V0209999C000012200019N0009001N1-00201-00301999999ADDED199U13009GA1021+002101999GA2041+003301999GF104991999999999999999999MA1101021999999MW1101MW2731REMMET094METAR LSMM 281250Z 00000KT 0900 R10/1300U R28/1300N SN BR FEW007 SCT011 M02/M03 Q1010 RMK RED;
0203066140999992010012813504+46750+008117FM-15+0579LSMM V0200901N001012200019N0004501N1-00201-00301999999ADDED199U08009GA1041+002101999GA2041+003301999GF104991999999999999999999MA1100911999999MW1101MW2751REMMET095METAR LSMM 281350Z 09002KT 0450 R10/0800N R28/0800N +SN BR SCT007 SCT011 M02/M03 Q1009 RMK RED;
0208066140999992010012814504+46750+008117FM-15+0579LSMM V0209999C000010036019N0012001N1-00201-00301999999ADDED199U18009GA1021+003001999GA2071+003601999GF107991999999999999999999MA1100911999999MW1101MW2711REMMET100METAR LSMM 281450Z 00000KT 1200 R10/1800U R28/1700U -SN BR FEW010 BKN012 M02/M03 Q1009 RESN RMK RED;
0172066140999992010012815504+46750+008117FM-15+0579LSMM V0209999C000010030019N0030001N1-00201-00301999999ADDGA1041+002401999GA2081+003001999GF108991999999999999999999MA1100811999999MW1101MW2711REMMET075METAR LSMM 281550Z 00000KT 3000 -SN BR SCT008 OVC010 M02/M03 Q1008 RMK YLO;
0149066140999992010012905504+46750+008117FM-15+0579LSMM V0209999C000010270019N0028001N1-00401-00501999999ADDGA1071+027001999GF107991999999999999999999MA1100001999999MW1191MW2441REMMET068METAR LSMM 290550Z 00000KT 2800 BCFCFG BKN098 M04/M05 Q1000 RMK GRN;
0153066140999992010012906504+46750+008117FM-15+0579LSMM V0201201N002110540019N0080001N1-00401-00401999999ADDGA1041+024001999GA2081+054001999GF108991999999999999999999MA1100001999999REMMET068METAR LSMM 290650Z 12004KT 8000 SCT083 OVC180 M04/M04 Q1000 RMK WTH;
0176066140999992010012907504+46750+008117FM-15+0579LSMM V0209999V00051018001CN0112651N1-00401-00501999999ADDGA1021+015001999GA2041+018001999GA3071+054001999GF107991999999999999999999MA1099901999999REMMET075METAR LSMM 290750Z VRB01KT 9999 FEW052 SCT066 BKN180 M04/M05 Q0999 RMK WTH;
0136066140999992010012908504+46750+008117FM-15+0579LSMM V0209999V001010150019N0112651N1-00301-00401999999ADDGA1081+015001999GF108991999999999999999999MA1099801999999REMMET067METAR LSMM 290850Z VRB02KT 9999 -SHSN OVC050 M03/M04 Q0998 RMK WHT;
0159066140999992010012909504+46750+008117FM-15+0579LSMM V0201101N002110132019N0080001N1-00201-00401999999ADDGA1041+011101999GA2071+013201999GF107991999999999999999999MA1099801999999REMMET074METAR LSMM 290950Z 11004KT 8000 -SHSN SCT037 BKN044 M02/M04 Q0998 RMK WTH;
0163066140999992010012910504+46750+008117FM-15+0579LSMM V0209999V000510045019N0021001N1-00101-00301999999ADDGA1041+002401999GA2081+004501999GF108991999999999999999999MA1099701999999MW1711REMMET072METAR LSMM 291050Z VRB01KT 2100 -SN SCT008 OVC015 M01/M03 Q0997 RMK YLO;
0163066140999992010012911504+46750+008117FM-15+0579LSMM V0209999V001010150019N0041001N1-00101-00301999999ADDGA1041+008101999GA2081+015001999GF108991999999999999999999MA1099491999999MW1711REMMET072METAR LSMM 291150Z VRB02KT 4100 -SN SCT027 OVC050 M01/M03 Q0995 RMK GRN;
0179066140999992010012912504+46750+008117FM-15+0579LSMM V0209999C000010102019N0060001N1+00001-00301999999ADDGA1041+008101999GA2071+010201999GF107991999999999999999999MA1099291999999MW1511MW2611MW3711REMMET076METAR LSMM 291250Z 00000KT 6000 -DZSNRA SCT027 BKN034 M00/M03 Q0993 RMK WHT;
0165066140999992010012913504+46750+008117FM-15+0579LSMM V0201001N001510018019N0013001N1-00101-00201999999ADDED199U16009GA1091+001801999GF109991999999000251999999MA1099191999999REMMET085METAR LSMM 291350Z 10003KT 1300 R10/1600N R28/1300N SHSN VV006 M01/M02 Q0992 RMK RED;
0163066140999992010012914504+46750+008117FM-15+0579LSMM V0209999C000010036019N0017001N1-00101-00201999999ADDGA1021+002101999GA2071+003601999GF107991999999999999999999MA1099091999999MW1711REMMET072METAR LSMM 291450Z 00000KT 1700 -SN FEW007 BKN012 M01/M02 Q0991 RMK AMB;
0142066140999992010012915504+46750+008117FM-15+0579LSMM V0200901N001012200019N0012001N1-00102-00201999999ADDMA1099001999999REMMET096METAR LSMM 291550Z 09002KT 1200 R10/1500V2000D R28/1800N SN FEW008 OVC012 M01/M02 Q0990 RMK RED;EQDQ01+000803ATOT  
0194066140999992010013005504+46750+008117FM-15+0579LSMM V0202401N002610054019N0112651N1+00001-00101999999ADDGA1021+003601999GA2071+005401999GA3081+018001999GF108991999999999999999999MA1099091999999MW1711REMMET087METAR LSMM 300550Z 24005KT 220V320 9999 -SN FEW012 BKN018 OVC067 M00/M01 Q0991 RMK GRN;
0189066140999992010013006504+46750+008117FM-15+0579LSMM V0202901N00411006901CN0112651N1+00001-00201999999ADDGA1021+005701999GA2041+006901999GA3081+010201999GF108991999999999999999999MA1099091999999REMMET088METAR LSMM 300650Z 29008KT 240V320 9999 -SHSN FEW019 SCT023 OVC034 00/M02 Q0991 RMK WHT;
0189066140999992010013007504+46750+008117FM-15+0579LSMM V0203101N005710108019N0070001N1+00001-00301999999ADDGA1021+006001999GA2071+010801999GA3081+015001999GF108991999999999999999999MA1099191999999REMMET088METAR LSMM 300750Z 31011KT 280V340 7000 -SHSN FEW020 BKN036 OVC050 00/M03 Q0992 RMK GRN;
0189066140999992010013008504+46750+008117FM-15+0579LSMM V0203001N00461012301CN0080001N1+00001-00401999999ADDGA1041+008401999GA2041+012301999GA3081+014401999GF108991999999999999999999MA1099291999999REMMET088METAR LSMM 300850Z 30009KT 240V330 8000 -SHSN SCT028 SCT041 OVC048 00/M04 Q0993 RMK WHT;
0190066140999992010013009504+46750+008117FM-15+0579LSMM V0203201N006710108019N0080001N1-00101-00401999999ADDGA1021+007501999GA2071+010801999GA3081+015001999GF108991999999999999999999MA1099391999999REMMET089METAR LSMM 300950Z 32013KT 290V350 8000 -SHSN FEW025 BKN036 OVC051 M01/M04 Q0994 RMK WHT;
0166066140999992010013010504+46750+008117FM-15+0579LSMM V0203101N005110105019N0022001N1-00101-00501999999ADDGA1041+006901999GA2081+010501999GF108991999999999999999999MA1099491999999REMMET081METAR LSMM 301050Z 31010KT 250V360 2200 SHSN SCT023 OVC035 M01/M05 Q0995 RMK YLO;
0184066140999992010013011504+46750+008117FM-15+0579LSMM V0202701N00511015001CN0112651N1-00101-00701999999ADDGA1021+012001999GA2041+015001999GA3071+018001999GF107991999999999999999999MA1099491999999REMMET083METAR LSMM 301150Z 27010KT 240V310 9999 FEW040 SCT050 BKN060 M01/M07 Q0995 RMK WHT;
0161066140999992010013012504+46750+008117FM-15+0579LSMM V0202701N004112200019N0112651N1-00101-00901999999ADDGA1021+010501999GA2041+018001999GF104991999999999999999999MA1099391999999REMMET076METAR LSMM 301250Z 27008KT 240V330 9999 FEW035 SCT060 M01/M09 Q0994 RMK BLU;
0161066140999992010013013504+46750+008117FM-15+0579LSMM V0202901N003610210019N0112651N1+00001-00901999999ADDGA1021+018001999GA2071+021001999GF107991999999999999999999MA1099391999999REMMET076METAR LSMM 301350Z 29007KT 230V330 9999 FEW065 BKN075 M00/M09 Q0994 RMK WHT;
0130066140999992010013014504+46750+008117FM-15+0579LSMM V0201101N002110180019N0112651N1-00201-00801999999ADDGA1081+018001999GF108991999999999999999999MA1099391999999REMMET061METAR LSMM 301450Z 11004KT 9999 OVC068 M02/M08 Q0994 RMK WHT;
0153066140999992010013015504+46750+008117FM-15+0579LSMM V0209999C000010180019N0112651N1-00201-00701999999ADDGA1021+015001999GA2071+018001999GF107991999999999999999999MA1099391999999REMMET068METAR LSMM 301550Z 00000KT 9999 FEW058 BKN068 M02/M07 Q0994 RMK WHT;
0161066140999992010013016504+46750+008117FM-15+0579LSMM V0202501N002610105019N0112651N1-00201-00701999999ADDGA1071+010501999GA2081+013501999GF108991999999999999999999MA1099491999999REMMET076METAR LSMM 301650Z 25005KT 210V010 9999 BKN035 OVC045 M02/M07 Q0995 RMK WHT;
0161066140999992010013105504+46750+008117FM-15+0579LSMM V0202601N002610180019N0112651N1-00401-00801999999ADDGA1041+006001999GA2071+018001999GF107991999999999999999999MA1100311999999REMMET076METAR LSMM 310550Z 26005KT 230V290 9999 SCT020 BKN060 M04/M08 Q1003 RMK WHT;
0153066140999992010013108504+46750+008117FM-15+0579LSMM V0209999V001010390019N0112651N1-00601-00901999999ADDGA1021+007501999GA2071+039001999GF107991999999999999999999MA1100611999999REMMET068METAR LSMM 310850Z VRB02KT 9999 FEW025 BKN130 M06/M09 Q1006 RMK WHT;
0153066140999992010013111504+46750+008117FM-15+0579LSMM V0209999V000510180019N0112651N1-00401-00801999999ADDGA1021+009001999GA2081+018001999GF108991999999999999999999MA1100611999999REMMET068METAR LSMM 311150Z VRB01KT 9999 FEW030 OVC060 M04/M08 Q1006 RMK WHT;
0153066140999992010020205504+46750+008117FM-15+0579LSMM V0200901N002610360019N0112651N1-00401-00701999999ADDGA1021+021001999GA2081+036001999GF108991999999999999999999MA1102101999999REMMET068METAR LSMM 020550Z 09005KT 9999 FEW071 OVC120 M04/M07 Q1021 RMK WHT;
0130066140999992010020206504+46750+008117FM-15+0579LSMM V0200901N002610210019N0112651N1-00401-00601999999ADDGA1071+021001999GF107991999999999999999999MA1102101999999REMMET061METAR LSMM 020650Z 09005KT 9999 BKN071 M04/M06 Q1021 RMK WHT;
0130066140999992010020207504+46750+008117FM-15+0579LSMM V0209999V001010210019N0112651N1-00401-00701999999ADDGA1071+021001999GF107991999999999999999999MA1102101999999REMMET061METAR LSMM 020750Z VRB02KT 9999 BKN072 M04/M07 Q1021 RMK WHT;
0130066140999992010020208504+46750+008117FM-15+0579LSMM V0209999C000012200019N0112651N1-00401-00701999999ADDGA1041+021001999GF104991999999999999999999MA1102101999999REMMET061METAR LSMM 020850Z 00000KT 9999 SCT074 M04/M07 Q1021 RMK BLU;
0153066140999992010020209504+46750+008117FM-15+0579LSMM V0201001N003112200019N0112651N1-00301-00701999999ADDGA1021+021001999GA2041+054001999GF104991999999999999999999MA1102001999999REMMET068METAR LSMM 020950Z 10006KT 9999 FEW073 SCT180 M03/M07 Q1020 RMK BLU;
0153066140999992010020210504+46750+008117FM-15+0579LSMM V0209999V002110210019N0112651N1-00101-00701999999ADDGA1071+021001999GA2071+039001999GF107991999999999999999999MA1102001999999REMMET068METAR LSMM 021050Z VRB04KT 9999 BKN075 BKN130 M01/M07 Q1020 RMK WHT;
0152066140999992010020211504+46750+008117FM-15+0579LSMM V0209999C000010540019N0112651N1+00001-00901999999ADDGA1021+027001999GA2081+054001999GF108991999999999999999999MA1101901999999REMMET067METAR LSMM 021150Z 00000KT 9999 FEW090 OVC180 00/M09 Q1019 RMK WTH;
0137066140999992010020212504+46750+008117FM-15+0579LSMM V0202801N002110540019N0112651N1+00001-00801999999ADDGA1081+054001999GF108991999999999999999999MA1101801999999REMMET068METAR LSMM 021250Z 28004KT 240V340 9999 OVC180 00/M08 Q1018 RMK WTH;
0160066140999992010020213504+46750+008117FM-15+0579LSMM V0200901N001510450019N0112651N1+00001-00701999999ADDGA1021+015001999GA2081+045001999GF108991999999999999999999MA1101801999999REMMET075METAR LSMM 021350Z 09003KT 050V120 9999 FEW053 OVC150 00/M07 Q1018 RMK WHT;
0152066140999992010020214504+46750+008117FM-15+0579LSMM V0201201N001010210019N0112651N1+00001-00901999999ADDGA1071+021001999GA2071+024001999GF107991999999999999999999MA1101691999999REMMET067METAR LSMM 021450Z 12002KT 9999 BKN074 BKN089 00/M09 Q1017 RMK WHT;
0153066140999992010020215504+46750+008117FM-15+0579LSMM V0200701N000510090019N0112651N1-00101-00501999999ADDGA1071+009001999GA2081+018001999GF108991999999999999999999MA1101691999999REMMET068METAR LSMM 021550Z 07001KT 9999 BKN030 OVC060 M01/M05 Q1017 RMK WHT;
0129066140999992010020216504+46750+008117FM-15+0579LSMM V0200801N003610135019N0112651N1+00001-00501999999ADDGA1081+013501999GF108991999999999999999999MA1101691999999REMMET060METAR LSMM 021650Z 08007KT 9999 OVC045 00/M05 Q1017 RMK WHT;
0153066140999992010020217504+46750+008117FM-15+0579LSMM V0209999V000510105019N0112651N1+00001-00401999999ADDGA1041+006001999GA2081+010501999GF108991999999999999999999MA1101691999999REMMET068METAR LSMM 021750Z VRB01KT 9999 SCT020 OVC035 M00/M04 Q1017 RMK WHT;
0163066140999992010020218504+46750+008117FM-15+0579LSMM V0209999V000510060019N0040001N1-00101-00301999999ADDGA1041+003001999GA2081+006001999GF108991999999999999999999MA1101801999999MW1711REMMET072METAR LSMM 021850Z VRB01KT 4000 -SN SCT010 OVC020 M01/M03 Q1018 RMK GRN;
0161066140999992010020219504+46750+008117FM-15+0579LSMM V0201001N002110180019N0112651N1-00201-00301999999ADDGA1041+012001999GA2081+018001999GF108991999999999999999999MA1101691999999REMMET076METAR LSMM 021950Z 10004KT 080V140 9999 SCT040 OVC065 M02/M03 Q1017 RMK WHT;
0153066140999992010020305434+46750+008117FM-15+0579LSMM V0209999C000010150019N0112651N1-00101-00301999999ADDGA1021+013801999GA2081+015001999GF108991999999999999999999MA1101391999999REMMET068METAR LSMM 030543Z 00000KT 9999 FEW046 OVC052 M01/M03 Q1014 RMK WHT;
0190066140999992010020306504+46750+008117FM-15+0579LSMM V0209999V001010111019N0080001N1-00101-00301999999ADDGA1021+009601999GA2071+011101999GA3081+013801999GF108991999999999999999999MA1101391999999MW1831REMMET083METAR LSMM 030650Z VRB02KT 8000 -SHRASN FEW032 BKN037 OVC046 M01/M03 Q1014 RMK WHT;
0140066140999992010020307504+46750+008117FM-15+0579LSMM V0201101N001510051019N0020001N1-00101-00201999999ADDGA1071+005101999GF107991999999999999999999MA1101491999999MW1711REMMET065METAR LSMM 030750Z 11003KT 2000 -SN BKN017 M01/M02 Q1015 RMK YLO;
0186066140999992010020308504+46750+008117FM-15+0579LSMM V0209999V001010063019N0112651N1-00101-00101999999ADDGA1021+003301999GA2071+006301999GA3081+013501999GF108991999999999999999999MA1101491999999MW1711REMMET079METAR LSMM 030850Z VRB02KT 9999 -SN FEW011 BKN021 OVC045 M01/M01 Q1015 RMK GRN;
0170066140999992010020309504+46750+008117FM-15+0579LSMM V0209999C000010180019N0112651N1+00001-00101999999ADDGA1021+006301999GA2081+018001999GF108991999999999999999999MA1101491999999MW1611MW2711REMMET073METAR LSMM 030950Z 00000KT 9999 -RASN FEW021 OVC062 00/M01 Q1015 RMK WHT;
0164066140999992010020310504+46750+008117FM-15+0579LSMM V0209999V001010180019N0112651N1+00101-00101999999ADDGA1041+007201999GA2071+018001999GF107991999999999999999999MA1101591999999MW1801REMMET073METAR LSMM 031050Z VRB02KT 9999 -SHRA SCT024 BKN060 01/M01 Q1016 RMK WHT;
0160066140999992010020311504+46750+008117FM-15+0579LSMM V0201001N002112200019N0112651N1+00001-00101999999ADDGA1021+012901999GA2041+021001999GF104991999999999999999999MA1101491999999REMMET075METAR LSMM 031150Z 10004KT 060V130 9999 FEW043 SCT072 00/M01 Q1015 RMK BLU;
0152066140999992010020312504+46750+008117FM-15+0579LSMM V0209999C000012200019N0112651N1+00101-00101999999ADDGA1021+013501999GA2041+021001999GF104991999999999999999999MA1101491999999REMMET067METAR LSMM 031250Z 00000KT 9999 FEW045 SCT079 01/M01 Q1015 RMK BLU;
0129066140999992010020313504+46750+008117FM-15+0579LSMM V0209999V001012200019N0112651N1+00201-00101999999ADDGA1021+015001999GF102991999999999999999999MA1101391999999REMMET060METAR LSMM 031350Z VRB02KT 9999 FEW050 02/M01 Q1014 RMK BLU;
0153066140999992010020314504+46750+008117FM-15+0579LSMM V0209999C000012200019N0112651N1-00201-00301999999ADDGA1021+013501999GA2041+015001999GF104991999999999999999999MA1101491999999REMMET068METAR LSMM 031450Z 00000KT 9999 FEW045 SCT053 M02/M03 Q1015 RMK BLU;
