0093066180999992011101113004+46750+006583FM-12+043599999V0202401N002619999999N9999999N1+01591+01271102591ADDMA1999999097481REMSYN066AAXX  11134 06618 43/// /2405 10159 20127 39748 40259 5//// 91240;
0093066180999992011101114004+46750+006583FM-12+043599999V0202101N003119999999N9999999N1+01761+01401102471ADDMA1999999097401REMSYN066AAXX  11144 06618 43/// /2106 10176 20140 39740 40247 5//// 91340;
0093066180999992011101115004+46750+006583FM-12+043599999V0202101N003119999999N9999999N1+01771+01371102421ADDMA1999999097351REMSYN066AAXX  11154 06618 43/// /2106 10177 20137 39735 40242 5//// 91440;
0093066180999992011101116004+46750+006583FM-12+043599999V0202101N002619999999N9999999N1+01731+01331102401ADDMA1999999097321REMSYN066AAXX  11164 06618 43/// /2105 10173 20133 39732 40240 5//// 91540;
0093066180999992011101117004+46750+006583FM-12+043599999V0202301N001519999999N9999999N1+01521+01281102441ADDMA1999999097321REMSYN066AAXX  11174 06618 43/// /2303 10152 20128 39732 40244 5//// 91640;
0116066180999992011101118004+46750+006583FM-12+043599999V0202601N001519999999N9999999N1+01351+01201102511ADDKA1999M+01781MA1999999097361REMSYN076AAXX  11184 06618 43/// /2603 10135 20120 39736 40251 5//// 91740 333 10178;
0107066180999992011101119004+46750+006583FM-12+043599999V0202101N002619999999N9999999N1+01261+01161102581ADDMA1999999097411MD1219999+9999REMSYN066AAXX  11194 06618 43/// /2105 10126 20116 39741 40258 52/// 91840;
0093066180999992011101120004+46750+006583FM-12+043599999V0202401N002619999999N9999999N1+01201+01121102591ADDMA1999999097411REMSYN066AAXX  11204 06618 43/// /2405 10120 20112 39741 40259 5//// 91940;
0093066180999992011101121004+46750+006583FM-12+043599999V0202501N001019999999N9999999N1+01081+01021102671ADDMA1999999097461REMSYN066AAXX  11214 06618 43/// /2502 10108 20102 39746 40267 5//// 92040;
0093066180999992011101122004+46750+006583FM-12+043599999V0202601N001519999999N9999999N1+01091+00951102681ADDMA1999999097471REMSYN066AAXX  11224 06618 43/// /2603 10109 20095 39747 40268 5//// 92140;
0093066180999992011101123004+46750+006583FM-12+043599999V0201901N003619999999N9999999N1+01271+01251102641ADDMA1999999097471REMSYN066AAXX  11234 06618 43/// /1907 10127 20125 39747 40264 5//// 92240;
0093066180999992011101200004+46750+006583FM-12+043599999V0202801N001519999999N9999999N1+01191+01171102651ADDMA1999999097461REMSYN066AAXX  12004 06618 43/// /2803 10119 20117 39746 40265 5//// 92340;
0093066180999992011101201004+46750+006583FM-12+043599999V0202601N001019999999N9999999N1+01251+01191102601ADDMA1999999097431REMSYN066AAXX  12014 06618 43/// /2602 10125 20119 39743 40260 5//// 90040;
0093066180999992011101202004+46750+006583FM-12+043599999V0202801N001019999999N9999999N1+01211+01161102581ADDMA1999999097401REMSYN066AAXX  12024 06618 43/// /2802 10121 20116 39740 40258 5//// 90140;
0093066180999992011101203004+46750+006583FM-12+043599999V0202801N001019999999N9999999N1+01081+00981102581ADDMA1999999097381REMSYN066AAXX  12034 06618 43/// /2802 10108 20098 39738 40258 5//// 90240;
0093066180999992011101204004+46750+006583FM-12+043599999V0203301N001019999999N9999999N1+01071+01041102591ADDMA1999999097381REMSYN066AAXX  12044 06618 43/// /3302 10107 20104 39738 40259 5//// 90340;
0093066180999992011101205004+46750+006583FM-12+043599999V0202701N001019999999N9999999N1+01011+00971102601ADDMA1999999097381REMSYN066AAXX  12054 06618 43/// /2702 10101 20097 39738 40260 5//// 90440;
0166066180999992011101206004+46750+006583FM-12+043599999V0202301N000519999999N9999999N1+00971+00821102611ADDAA124000091GJ102709KA1999N+00901MA1999999097381REMSYN088AAXX  12064 06618 43/// /2301 10097 20082 39738 40261 5//// 90540 333 20090 55045 70000;EQDQ01  00002PRCP24
0093066180999992011101207004+46750+006583FM-12+043599999V0209999C000019999999N9999999N1+00981+00891102621ADDMA1999999097401REMSYN066AAXX  12074 06618 43/// /0000 10098 20089 39740 40262 5//// 90640;
0093066180999992011101208004+46750+006583FM-12+043599999V0202901N001519999999N9999999N1+01091+00991102691ADDMA1999999097481REMSYN066AAXX  12084 06618 43/// /2903 10109 20099 39748 40269 5//// 90740;
0093066180999992011101209004+46750+006583FM-12+043599999V0201601N001019999999N9999999N1+01311+01081102651ADDMA1999999097491REMSYN066AAXX  12094 06618 43/// /1602 10131 20108 39749 40265 5//// 90840;
0093066180999992011101210004+46750+006583FM-12+043599999V0202201N003119999999N9999999N1+01431+01071102591ADDMA1999999097451REMSYN066AAXX  12104 06618 43/// /2206 10143 20107 39745 40259 5//// 90940;
0093066180999992011101211004+46750+006583FM-12+043599999V0202201N002119999999N9999999N1+01561+01081102491ADDMA1999999097381REMSYN066AAXX  12114 06618 43/// /2204 10156 20108 39738 40249 5//// 91040;
0093066180999992011101212004+46750+006583FM-12+043599999V0202001N002619999999N9999999N1+01741+01241102361ADDMA1999999097291REMSYN066AAXX  12124 06618 33/// /2005 10174 20124 39729 40236 5//// 91140;
0093066180999992011101213004+46750+006583FM-12+043599999V0202201N002619999999N9999999N1+01791+01271102291ADDMA1999999097231REMSYN066AAXX  12134 06618 43/// /2205 10179 20127 39723 40229 5//// 91240;
0107066180999992011101214004+46750+006583FM-12+043599999V0202001N002119999999N9999999N1+01861+01331102241ADDMA1999999097191MD1719999+9999REMSYN066AAXX  12144 06618 43/// /2004 10186 20133 39719 40224 57/// 91340;
0093066180999992011101215004+46750+006583FM-12+043599999V0202301N003119999999N9999999N1+01891+01051102201ADDMA1999999097161REMSYN066AAXX  12154 06618 43/// /2306 10189 20105 39716 40220 5//// 91440;
0107066180999992011101216004+46750+006583FM-12+043599999V0203501N001019999999N9999999N1+01701+00961102241ADDMA1999999097171MD1719999+9999REMSYN066AAXX  12164 06618 43/// /3502 10170 20096 39717 40224 57/// 91540;
0093066180999992011101217004+46750+006583FM-12+043599999V0200701N000519999999N9999999N1+01501+00801102311ADDMA1999999097201REMSYN066AAXX  12174 06618 43/// /0701 10150 20080 39720 40231 5//// 91640;
0116066180999992011101218004+46750+006583FM-12+043599999V0200501N001019999999N9999999N1+01181+00891102421ADDKA1999M+01931MA1999999097241REMSYN076AAXX  12184 06618 43/// /0502 10118 20089 39724 40242 5//// 91740 333 10193;
0093066180999992011101219004+46750+006583FM-12+043599999V0200101N001519999999N9999999N1+01271+00811102461ADDMA1999999097301REMSYN066AAXX  12194 06618 43/// /0103 10127 20081 39730 40246 5//// 91840;
0093066180999992011101220004+46750+006583FM-12+043599999V0203001N002119999999N9999999N1+01251+00781102551ADDMA1999999097381REMSYN066AAXX  12204 06618 43/// /3004 10125 20078 39738 40255 5//// 91940;
0093066180999992011101221004+46750+006583FM-12+043599999V0203501N001019999999N9999999N1+01151+00811102581ADDMA1999999097391REMSYN066AAXX  12214 06618 43/// /3502 10115 20081 39739 40258 5//// 92040;
0093066180999992011101222004+46750+006583FM-12+043599999V0202801N001019999999N9999999N1+00941+00761102651ADDMA1999999097421REMSYN066AAXX  12224 06618 43/// /2802 10094 20076 39742 40265 5//// 92140;
0093066180999992011101223004+46750+006583FM-12+043599999V0209999C000019999999N9999999N1+00881+00741102701ADDMA1999999097451REMSYN066AAXX  12234 06618 43/// /0000 10088 20074 39745 40270 5//// 92240;
0093066180999992011101300004+46750+006583FM-12+043599999V0202501N001019999999N9999999N1+00711+00651102721ADDMA1999999097441REMSYN066AAXX  13004 06618 43/// /2502 10071 20065 39744 40272 5//// 92340;
0107066180999992011101301004+46750+006583FM-12+043599999V0200901N001019999999N9999999N1+00901+00791102651ADDMA1999999097411MD1819999+9999REMSYN066AAXX  13014 06618 43/// /0902 10090 20079 39741 40265 58/// 90040;
0093066180999992011101302004+46750+006583FM-12+043599999V0202201N001019999999N9999999N1+00921+00831102651ADDMA1999999097411REMSYN066AAXX  13024 06618 43/// /2202 10092 20083 39741 40265 5//// 90140;
0093066180999992011101303004+46750+006583FM-12+043599999V0209999C000019999999N9999999N1+00971+00841102621ADDMA1999999097391REMSYN066AAXX  13034 06618 43/// /0000 10097 20084 39739 40262 5//// 90240;
0107066180999992011101304004+46750+006583FM-12+043599999V0209999C000019999999N9999999N1+00961+00891102621ADDMA1999999097391MD1819999+9999REMSYN066AAXX  13044 06618 43/// /0000 10096 20089 39739 40262 58/// 90340;
0107066180999992011101305004+46750+006583FM-12+043599999V0203501N001019999999N9999999N1+01011+00881102641ADDMA1999999097421MD1319999+9999REMSYN066AAXX  13054 06618 43/// /3502 10101 20088 39742 40264 53/// 90440;
0166066180999992011101306004+46750+006583FM-12+043599999V0202901N000519999999N9999999N1+00991+00891102631ADDAA124000091GJ104989KA1999N+00711MA1999999097411REMSYN088AAXX  13064 06618 43/// /2901 10099 20089 39741 40263 5//// 90540 333 20071 55083 70000;EQDQ01  00002PRCP24
0107066180999992011101307004+46750+006583FM-12+043599999V0209999C000019999999N9999999N1+01041+00961102651ADDMA1999999097441MD1219999+9999REMSYN066AAXX  13074 06618 43/// /0000 10104 20096 39744 40265 52/// 90640;
0093066180999992011101308004+46750+006583FM-12+043599999V0209999C000019999999N9999999N1+01271+00891102651ADDMA1999999097481REMSYN066AAXX  13084 06618 43/// /0000 10127 20089 39748 40265 5//// 90740;
0093066180999992011101309004+46750+006583FM-12+043599999V0200701N003119999999N9999999N1+01511+00941102621ADDMA1999999097491REMSYN066AAXX  13094 06618 43/// /0706 10151 20094 39749 40262 5//// 90840;
0107066180999992011101310004+46750+006583FM-12+043599999V0200501N003619999999N9999999N1+01601+00951102611ADDMA1999999097501MD1219999+9999REMSYN066AAXX  13104 06618 43/// /0507 10160 20095 39750 40261 52/// 90940;
0093066180999992011101311004+46750+006583FM-12+043599999V0200501N005119999999N9999999N1+01641+00941102601ADDMA1999999097501REMSYN066AAXX  13114 06618 43/// /0510 10164 20094 39750 40260 5//// 91040;
0093066180999992011101312004+46750+006583FM-12+043599999V0200601N005719999999N9999999N1+01711+01061102561ADDMA1999999097471REMSYN066AAXX  13124 06618 43/// /0611 10171 20106 39747 40256 5//// 91140;
0107066180999992011101313004+46750+006583FM-12+043599999V0200601N006719999999N9999999N1+01751+01031102521ADDMA1999999097441MD1819999+9999REMSYN066AAXX  13134 06618 43/// /0613 10175 20103 39744 40252 58/// 91240;
0093066180999992011101314004+46750+006583FM-12+043599999V0200501N006219999999N9999999N1+01751+00901102491ADDMA1999999097411REMSYN066AAXX  13144 06618 43/// /0512 10175 20090 39741 40249 5//// 91340;
0093066180999992011101315004+46750+006583FM-12+043599999V0200501N006719999999N9999999N1+01741+01001102471ADDMA1999999097391REMSYN066AAXX  13154 06618 43/// /0513 10174 20100 39739 40247 5//// 91440;
0093066180999992011101316004+46750+006583FM-12+043599999V0200601N007219999999N9999999N1+01651+01061102481ADDMA1999999097391REMSYN066AAXX  13164 06618 43/// /0614 10165 20106 39739 40248 5//// 91540;
0093066180999992011101317004+46750+006583FM-12+043599999V0200601N004619999999N9999999N1+01561+01011102521ADDMA1999999097411REMSYN066AAXX  13174 06618 43/// /0609 10156 20101 39741 40252 5//// 91640;
0116066180999992011101318004+46750+006583FM-12+043599999V0200501N004119999999N9999999N1+01421+00961102621ADDKA1999M+01771MA1999999097481REMSYN076AAXX  13184 06618 43/// /0508 10142 20096 39748 40262 5//// 91740 333 10177;
0093066180999992011101319004+46750+006583FM-12+043599999V0200601N005119999999N9999999N1+01421+01011102651ADDMA1999999097511REMSYN066AAXX  13194 06618 43/// /0610 10142 20101 39751 40265 5//// 91840;
0093066180999992011101320004+46750+006583FM-12+043599999V0200401N004619999999N9999999N1+01401+01001102671ADDMA1999999097521REMSYN066AAXX  13204 06618 43/// /0409 10140 20100 39752 40267 5//// 91940;
0093066180999992011101321004+46750+006583FM-12+043599999V0200701N003619999999N9999999N1+01281+00981102731ADDMA1999999097561REMSYN066AAXX  13214 06618 43/// /0707 10128 20098 39756 40273 5//// 92040;
0093066180999992011101322004+46750+006583FM-12+043599999V0200601N005719999999N9999999N1+01331+01001102751ADDMA1999999097581REMSYN066AAXX  13224 06618 43/// /0611 10133 20100 39758 40275 5//// 92140;
0093066180999992011101323004+46750+006583FM-12+043599999V0200501N005119999999N9999999N1+01311+01001102721ADDMA1999999097551REMSYN066AAXX  13234 06618 43/// /0510 10131 20100 39755 40272 5//// 92240;
0093066180999992011101400004+46750+006583FM-12+043599999V0200401N007719999999N9999999N1+01231+00861102741ADDMA1999999097561REMSYN066AAXX  14004 06618 43/// /0415 10123 20086 39756 40274 5//// 92340;
0093066180999992011101401004+46750+006583FM-12+043599999V0200401N008219999999N9999999N1+01181+00781102721ADDMA1999999097531REMSYN066AAXX  14014 06618 43/// /0416 10118 20078 39753 40272 5//// 90040;
0093066180999992011101402004+46750+006583FM-12+043599999V0200401N005119999999N9999999N1+01121+00721102721ADDMA1999999097521REMSYN066AAXX  14024 06618 43/// /0410 10112 20072 39752 40272 5//// 90140;
0093066180999992011101403004+46750+006583FM-12+043599999V0200601N006719999999N9999999N1+01111+00611102731ADDMA1999999097521REMSYN066AAXX  14034 06618 43/// /0613 10111 20061 39752 40273 5//// 90240;
0093066180999992011101404004+46750+006583FM-12+043599999V0200601N006219999999N9999999N1+01061+00611102761ADDMA1999999097541REMSYN066AAXX  14044 06618 43/// /0612 10106 20061 39754 40276 5//// 90340;
0093066180999992011101405004+46750+006583FM-12+043599999V0200501N004119999999N9999999N1+01011+00661102781ADDMA1999999097551REMSYN066AAXX  14054 06618 43/// /0508 10101 20066 39755 40278 5//// 90440;
0166066180999992011101406004+46750+006583FM-12+043599999V0200601N005719999999N9999999N1+00951+00651102821ADDAA124000091GJ106249KA1999N+00951MA1999999097581REMSYN088AAXX  14064 06618 43/// /0611 10095 20065 39758 40282 5//// 90540 333 20095 55104 70000;EQDQ01  00002PRCP24
0093066180999992011101407004+46750+006583FM-12+043599999V0200601N004619999999N9999999N1+00961+00641102851ADDMA1999999097611REMSYN066AAXX  14074 06618 43/// /0609 10096 20064 39761 40285 5//// 90640;
0093066180999992011101408004+46750+006583FM-12+043599999V0200601N006219999999N9999999N1+00971+00601102891ADDMA1999999097651REMSYN066AAXX  14084 06618 43/// /0612 10097 20060 39765 40289 5//// 90740;
0093066180999992011101409004+46750+006583FM-12+043599999V0200601N004119999999N9999999N1+00981+00651102901ADDMA1999999097661REMSYN066AAXX  14094 06618 43/// /0608 10098 20065 39766 40290 5//// 90840;
0093066180999992011101410004+46750+006583FM-12+043599999V0200601N004119999999N9999999N1+01021+00641102861ADDMA1999999097631REMSYN066AAXX  14104 06618 43/// /0608 10102 20064 39763 40286 5//// 90940;
0093066180999992011101411004+46750+006583FM-12+043599999V0200401N005119999999N9999999N1+01221+00651102791ADDMA1999999097601REMSYN066AAXX  14114 06618 43/// /0410 10122 20065 39760 40279 5//// 91040;
0093066180999992011101412004+46750+006583FM-12+043599999V0200501N007219999999N9999999N1+01311+00691102741ADDMA1999999097571REMSYN066AAXX  14124 06618 43/// /0514 10131 20069 39757 40274 5//// 91140;
0093066180999992011101413004+46750+006583FM-12+043599999V0200401N008219999999N9999999N1+01301+00641102711ADDMA1999999097541REMSYN066AAXX  14134 06618 43/// /0416 10130 20064 39754 40271 5//// 91240;
0093066180999992011101414004+46750+006583FM-12+043599999V0200501N008719999999N9999999N1+01301+00621102671ADDMA1999999097501REMSYN066AAXX  14144 06618 43/// /0517 10130 20062 39750 40267 5//// 91340;
0093066180999992011101415004+46750+006583FM-12+043599999V0200501N008219999999N9999999N1+01321+00531102651ADDMA1999999097491REMSYN066AAXX  14154 06618 43/// /0516 10132 20053 39749 40265 5//// 91440;
0093066180999992011101416004+46750+006583FM-12+043599999V0200601N007219999999N9999999N1+01291+00541102661ADDMA1999999097491REMSYN066AAXX  14164 06618 43/// /0614 10129 20054 39749 40266 5//// 91540;
0093066180999992011101417004+46750+006583FM-12+043599999V0200601N006719999999N9999999N1+01191+00511102711ADDMA1999999097521REMSYN066AAXX  14174 06618 43/// /0613 10119 20051 39752 40271 5//// 91640;
0130066180999992011101418004+46750+006583FM-12+043599999V0200501N005119999999N9999999N1+01171+00461102731ADDKA1999M+01341MA1999999097541MD1219999+9999REMSYN076AAXX  14184 06618 43/// /0510 10117 20046 39754 40273 52/// 91740 333 10134;
0107066180999992011101419004+46750+006583FM-12+043599999V0200301N002619999999N9999999N1+01121+00401102771ADDMA1999999097561MD1219999+9999REMSYN066AAXX  14194 06618 43/// /0305 10112 20040 39756 40277 52/// 91840;
0093066180999992011101420004+46750+006583FM-12+043599999V0200501N005719999999N9999999N1+01071+00401102791ADDMA1999999097571REMSYN066AAXX  14204 06618 43/// /0511 10107 20040 39757 40279 5//// 91940;
0093066180999992011101421004+46750+006583FM-12+043599999V0200601N004619999999N9999999N1+00981+00361102841ADDMA1999999097601REMSYN066AAXX  14214 06618 43/// /0609 10098 20036 39760 40284 5//// 92040;
0093066180999992011101422004+46750+006583FM-12+043599999V0200701N003119999999N9999999N1+00901+00341102881ADDMA1999999097631REMSYN066AAXX  14224 06618 43/// /0706 10090 20034 39763 40288 5//// 92140;
0093066180999992011101423004+46750+006583FM-12+043599999V0200901N002119999999N9999999N1+00731+00301102931ADDMA1999999097641REMSYN066AAXX  14234 06618 43/// /0904 10073 20030 39764 40293 5//// 92240;
0107066180999992011101500004+46750+006583FM-12+043599999V0200501N001019999999N9999999N1+00721+00261102941ADDMA1999999097651MD1219999+9999REMSYN066AAXX  15004 06618 43/// /0502 10072 20026 39765 40294 52/// 92340;
0107066180999992011101501004+46750+006583FM-12+043599999V0200101N000519999999N9999999N1+00621+00271102961ADDMA1999999097651MD1219999+9999REMSYN066AAXX  15014 06618 43/// /0101 10062 20027 39765 40296 52/// 90040;
0093066180999992011101502004+46750+006583FM-12+043599999V0203101N000519999999N9999999N1+00411+00251102991ADDMA1999999097641REMSYN066AAXX  15024 06618 43/// /3101 10041 20025 39764 40299 5//// 90140;
0093066180999992011101503004+46750+006583FM-12+043599999V0209999C000019999999N9999999N1+00581+00431102931ADDMA1999999097611REMSYN066AAXX  15034 06618 43/// /0000 10058 20043 39761 40293 5//// 90240;
0093066180999992011101504004+46750+006583FM-12+043599999V0203401N001019999999N9999999N1+00701+00381102911ADDMA1999999097621REMSYN066AAXX  15044 06618 43/// /3402 10070 20038 39762 40291 5//// 90340;
0093066180999992011101505004+46750+006583FM-12+043599999V0200701N001019999999N9999999N1+00721+00411102901ADDMA1999999097611REMSYN066AAXX  15054 06618 43/// /0702 10072 20041 39761 40290 5//// 90440;
0133066180999992011101506004+46750+006583FM-12+043599999V0200501N000519999999N9999999N1+00711+00391102901ADDAA124000091MA1999999097611REMSYN076AAXX  15064 06618 33/// /0501 10071 20039 39761 40290 5//// 90540 333 70000;EQDQ01  00002PRCP24
0093066180999992011101507004+46750+006583FM-12+043599999V0200601N000519999999N9999999N1+00731+00381102941ADDMA1999999097651REMSYN066AAXX  15074 06618 43/// /0601 10073 20038 39765 40294 5//// 90640;
0093066180999992011101508004+46750+006583FM-12+043599999V0200601N002119999999N9999999N1+00771+00421102971ADDMA1999999097691REMSYN066AAXX  15084 06618 43/// /0604 10077 20042 39769 40297 5//// 90740;
0107066180999992011101509004+46750+006583FM-12+043599999V0200701N002619999999N9999999N1+00821+00461102941ADDMA1999999097671MD1019999+9999REMSYN066AAXX  15094 06618 43/// /0705 10082 20046 39767 40294 50/// 90840;
0107066180999992011101510004+46750+006583FM-12+043599999V0200501N002619999999N9999999N1+00911+00531102911ADDMA1999999097661MD1019999+9999REMSYN066AAXX  15104 06618 43/// /0505 10091 20053 39766 40291 50/// 90940;
0093066180999992011101511004+46750+006583FM-12+043599999V0200701N003119999999N9999999N1+00971+00551102911ADDMA1999999097671REMSYN066AAXX  15114 06618 43/// /0706 10097 20055 39767 40291 5//// 91040;
0107066180999992011101512004+46750+006583FM-12+043599999V0200501N002119999999N9999999N1+01041+00621102851ADDMA1999999097631MD1719999+9999REMSYN066AAXX  15124 06618 43/// /0504 10104 20062 39763 40285 57/// 91140;
0093066180999992011101513004+46750+006583FM-12+043599999V0200301N001519999999N9999999N1+01131+00671102761ADDMA1999999097561REMSYN066AAXX  15134 06618 43/// /0303 10113 20067 39756 40276 5//// 91240;
0093066180999992011101514004+46750+006583FM-12+043599999V0200101N001019999999N9999999N1+01261+00731102691ADDMA1999999097511REMSYN066AAXX  15144 06618 43/// /0102 10126 20073 39751 40269 5//// 91340;
0107066180999992011101515004+46750+006583FM-12+043599999V0200601N002119999999N9999999N1+01291+00811102651ADDMA1999999097481MD1619999+9999REMSYN066AAXX  15154 06618 43/// /0604 10129 20081 39748 40265 56/// 91440;
0093066180999992011101516004+46750+006583FM-12+043599999V0200601N002119999999N9999999N1+01171+00711102641ADDMA1999999097451REMSYN066AAXX  15164 06618 43/// /0604 10117 20071 39745 40264 5//// 91540;
0093066180999992011101517004+46750+006583FM-12+043599999V0200501N001519999999N9999999N1+01061+00691102681ADDMA1999999097471REMSYN066AAXX  15174 06618 43/// /0503 10106 20069 39747 40268 5//// 91640;
0116066180999992011101518004+46750+006583FM-12+043599999V0203201N000519999999N9999999N1+00771+00611102791ADDKA1999M+01291MA1999999097521REMSYN076AAXX  15184 06618 33/// /3201 10077 20061 39752 40279 5//// 91740 333 10129;
0093066180999992011101519004+46750+006583FM-12+043599999V0200101N000519999999N9999999N1+00631+00551102841ADDMA1999999097541REMSYN066AAXX  15194 06618 43/// /0101 10063 20055 39754 40284 5//// 91840;
0093066180999992011101520004+46750+006583FM-12+043599999V0203601N000519999999N9999999N1+00891+00651102811ADDMA1999999097561REMSYN066AAXX  15204 06618 43/// /3601 10089 20065 39756 40281 5//// 91940;
0093066180999992011101521004+46750+006583FM-12+043599999V0200901N000519999999N9999999N1+00871+00671102841ADDMA1999999097581REMSYN066AAXX  15214 06618 43/// /0901 10087 20067 39758 40284 5//// 92040;
0093066180999992011101522004+46750+006583FM-12+043599999V0200701N002119999999N9999999N1+00851+00641102851ADDMA1999999097591REMSYN066AAXX  15224 06618 43/// /0704 10085 20064 39759 40285 5//// 92140;
0093066180999992011101523004+46750+006583FM-12+043599999V0201001N001019999999N9999999N1+00821+00651102851ADDMA1999999097581REMSYN066AAXX  15234 06618 43/// /1002 10082 20065 39758 40285 5//// 92240;
0107066180999992011101600004+46750+006583FM-12+043599999V0209999C000019999999N9999999N1+00841+00641102831ADDMA1999999097571MD1819999+9999REMSYN066AAXX  16004 06618 43/// /0000 10084 20064 39757 40283 58/// 92340;
0107066180999992011101601004+46750+006583FM-12+043599999V0209999C000019999999N9999999N1+00841+00671102831ADDMA1999999097571MD1619999+9999REMSYN066AAXX  16014 06618 43/// /0000 10084 20067 39757 40283 56/// 90040;
0093066180999992011101602004+46750+006583FM-12+043599999V0209999C000019999999N9999999N1+00831+00681102801ADDMA1999999097541REMSYN066AAXX  16024 06618 43/// /0000 10083 20068 39754 40280 5//// 90140;
0093066180999992011101603004+46750+006583FM-12+043599999V0200501N000519999999N9999999N1+00841+00711102791ADDMA1999999097531REMSYN066AAXX  16034 06618 43/// /0501 10084 20071 39753 40279 5//// 90240;
0107066180999992011101604004+46750+006583FM-12+043599999V0203301N000519999999N9999999N1+00831+00711102811ADDMA1999999097551MD1519999+9999REMSYN066AAXX  16044 06618 43/// /3301 10083 20071 39755 40281 55/// 90340;
0093066180999992011101605004+46750+006583FM-12+043599999V0209999C000019999999N9999999N1+00831+00741102811ADDMA1999999097551REMSYN066AAXX  16054 06618 43/// /0000 10083 20074 39755 40281 5//// 90440;
0180066180999992011101606004+46750+006583FM-12+043599999V0209999C000019999999N9999999N1+00841+00751102831ADDAA124000091GJ102529KA1999N+00621MA1999999097571MD1219999+9999REMSYN088AAXX  16064 06618 43/// /0000 10084 20075 39757 40283 52/// 90540 333 20062 55042 70000;EQDQ01  00002PRCP24
0093066180999992011101607004+46750+006583FM-12+043599999V0201101N000519999999N9999999N1+00871+00791102861ADDMA1999999097601REMSYN066AAXX  16074 06618 43/// /1101 10087 20079 39760 40286 5//// 90640;
0093066180999992011101608004+46750+006583FM-12+043599999V0209999C000019999999N9999999N1+00911+00791102871ADDMA1999999097621REMSYN066AAXX  16084 06618 43/// /0000 10091 20079 39762 40287 5//// 90740;
0107066180999992011101609004+46750+006583FM-12+043599999V0209999C000019999999N9999999N1+00991+00831102891ADDMA1999999097651MD1319999+9999REMSYN066AAXX  16094 06618 43/// /0000 10099 20083 39765 40289 53/// 90840;
0093066180999992011101610004+46750+006583FM-12+043599999V0209999C000019999999N9999999N1+01101+00821102871ADDMA1999999097661REMSYN066AAXX  16104 06618 43/// /0000 10110 20082 39766 40287 5//// 90940;
0093066180999992011101611004+46750+006583FM-12+043599999V0202401N001019999999N9999999N1+01171+00671102861ADDMA1999999097661REMSYN066AAXX  16114 06618 43/// /2402 10117 20067 39766 40286 5//// 91040;
0093066180999992011101612004+46750+006583FM-12+043599999V0200901N001519999999N9999999N1+01221+00751102781ADDMA1999999097591REMSYN066AAXX  16124 06618 43/// /0903 10122 20075 39759 40278 5//// 91140;
0093066180999992011101613004+46750+006583FM-12+043599999V0201001N001519999999N9999999N1+01301+00791102691ADDMA1999999097521REMSYN066AAXX  16134 06618 43/// /1003 10130 20079 39752 40269 5//// 91240;
0093066180999992011101614004+46750+006583FM-12+043599999V0200401N001519999999N9999999N1+01341+00811102641ADDMA1999999097481REMSYN066AAXX  16144 06618 43/// /0403 10134 20081 39748 40264 5//// 91340;
0107066180999992011101615004+46750+006583FM-12+043599999V0200701N001019999999N9999999N1+01371+00801102621ADDMA1999999097471MD1619999+9999REMSYN066AAXX  16154 06618 43/// /0702 10137 20080 39747 40262 56/// 91440;
0093066180999992011101616004+46750+006583FM-12+043599999V0200601N003119999999N9999999N1+01251+00841102651ADDMA1999999097471REMSYN066AAXX  16164 06618 43/// /0606 10125 20084 39747 40265 5//// 91540;
0093066180999992011101617004+46750+006583FM-12+043599999V0200401N002619999999N9999999N1+01121+00831102691ADDMA1999999097491REMSYN066AAXX  16174 06618 43/// /0405 10112 20083 39749 40269 5//// 91640;
0130066180999992011101618004+46750+006583FM-12+043599999V0209999C000519999999N9999999N1+00851+00751102781ADDKA1999M+01411MA1999999097521MD1319999+9999REMSYN076AAXX  16184 06618 33/// /0001 10085 20075 39752 40278 53/// 91740 333 10141;
0093066180999992011101619004+46750+006583FM-12+043599999V0209999C000019999999N9999999N1+00771+00681102781ADDMA1999999097511REMSYN066AAXX  16194 06618 43/// /0000 10077 20068 39751 40278 5//// 91840;
0093066180999992011101620004+46750+006583FM-12+043599999V0202101N000519999999N9999999N1+00541+00541102851ADDMA1999999097531REMSYN066AAXX  16204 06618 43/// /2101 10054 20054 39753 40285 5//// 91940;
0093066180999992011101621004+46750+006583FM-12+043599999V0209999C000019999999N9999999N1+00551+00521102871ADDMA1999999097551REMSYN066AAXX  16214 06618 43/// /0000 10055 20052 39755 40287 5//// 92040;
0093066180999992011101622004+46750+006583FM-12+043599999V0202701N000519999999N9999999N1+00681+00641102861ADDMA1999999097571REMSYN066AAXX  16224 06618 43/// /2701 10068 20064 39757 40286 5//// 92140;
0093066180999992011101623004+46750+006583FM-12+043599999V0209999C000019999999N9999999N1+00761+00691102851ADDMA1999999097571REMSYN066AAXX  16234 06618 43/// /0000 10076 20069 39757 40285 5//// 92240;
0107066180999992011101700004+46750+006583FM-12+043599999V0202801N000519999999N9999999N1+00801+00721102821ADDMA1999999097551MD1819999+9999REMSYN066AAXX  17004 06618 43/// /2801 10080 20072 39755 40282 58/// 92340;
0093066180999992011101701004+46750+006583FM-12+043599999V0209999C000019999999N9999999N1+00861+00751102801ADDMA1999999097541REMSYN066AAXX  17014 06618 43/// /0000 10086 20075 39754 40280 5//// 90040;
0093066180999992011101702004+46750+006583FM-12+043599999V0202201N000519999999N9999999N1+00891+00771102771ADDMA1999999097521REMSYN066AAXX  17024 06618 43/// /2201 10089 20077 39752 40277 5//// 90140;
0107066180999992011101703004+46750+006583FM-12+043599999V0209999C000019999999N9999999N1+00901+00781102751ADDMA1999999097501MD1819999+9999REMSYN066AAXX  17034 06618 43/// /0000 10090 20078 39750 40275 58/// 90240;
0107066180999992011101704004+46750+006583FM-12+043599999V0202701N000519999999N9999999N1+00881+00721102761ADDMA1999999097511MD1719999+9999REMSYN066AAXX  17044 06618 43/// /2701 10088 20072 39751 40276 57/// 90340;
0093066180999992011101705004+46750+006583FM-12+043599999V0202001N001019999999N9999999N1+00901+00731102771ADDMA1999999097521REMSYN066AAXX  17054 06618 43/// /2002 10090 20073 39752 40277 5//// 90440;
0180066180999992011101706004+46750+006583FM-12+043599999V0202101N000519999999N9999999N1+00891+00711102771ADDAA124000091GJ102289KA1999N+00401MA1999999097521MD1219999+9999REMSYN088AAXX  17064 06618 43/// /2101 10089 20071 39752 40277 52/// 90540 333 20040 55038 70000;EQDQ01  00002PRCP24
0093066180999992011101707004+46750+006583FM-12+043599999V0202301N000519999999N9999999N1+00871+00671102811ADDMA1999999097561REMSYN066AAXX  17074 06618 43/// /2301 10087 20067 39756 40281 5//// 90640;
0093066180999992011101708004+46750+006583FM-12+043599999V0209999C000019999999N9999999N1+00941+00731102811ADDMA1999999097571REMSYN066AAXX  17084 06618 43/// /0000 10094 20073 39757 40281 5//// 90740;
0107066180999992011101709004+46750+006583FM-12+043599999V0209999C000019999999N9999999N1+01061+00831102811ADDMA1999999097591MD1219999+9999REMSYN066AAXX  17094 06618 43/// /0000 10106 20083 39759 40281 52/// 90840;
0093066180999992011101710004+46750+006583FM-12+043599999V0201201N001019999999N9999999N1+01171+00831102761ADDMA1999999097561REMSYN066AAXX  17104 06618 43/// /1202 10117 20083 39756 40276 5//// 90940;
0093066180999992011101711004+46750+006583FM-12+043599999V0202001N002119999999N9999999N1+01301+00761102701ADDMA1999999097531REMSYN066AAXX  17114 06618 43/// /2004 10130 20076 39753 40270 5//// 91040;
0107066180999992011101712004+46750+006583FM-12+043599999V0202101N001019999999N9999999N1+01351+00751102611ADDMA1999999097451MD1719999+9999REMSYN066AAXX  17124 06618 43/// /2102 10135 20075 39745 40261 57/// 91140;
0107066180999992011101713004+46750+006583FM-12+043599999V0202401N000519999999N9999999N1+01421+00821102521ADDMA1999999097381MD1819999+9999REMSYN066AAXX  17134 06618 43/// /2401 10142 20082 39738 40252 58/// 91240;
0093066180999992011101714004+46750+006583FM-12+043599999V0202601N001019999999N9999999N1+01471+00691102451ADDMA1999999097321REMSYN066AAXX  17144 06618 43/// /2602 10147 20069 39732 40245 5//// 91340;
0107066180999992011101715004+46750+006583FM-12+043599999V0202501N001019999999N9999999N1+01511+00741102421ADDMA1999999097301MD1619999+9999REMSYN066AAXX  17154 06618 43/// /2502 10151 20074 39730 40242 56/// 91440;
0093066180999992011101716004+46750+006583FM-12+043599999V0202701N000519999999N9999999N1+01491+00821102401ADDMA1999999097281REMSYN066AAXX  17164 06618 43/// /2701 10149 20082 39728 40240 5//// 91540;
0093066180999992011101717004+46750+006583FM-12+043599999V0200901N001019999999N9999999N1+01271+00911102441ADDMA1999999097281REMSYN066AAXX  17174 06618 43/// /0902 10127 20091 39728 40244 5//// 91640;
0130066180999992011101718004+46750+006583FM-12+043599999V0202101N001019999999N9999999N1+00801+00691102561ADDKA1999M+01561MA1999999097311MD1319999+9999REMSYN076AAXX  17184 06618 43/// /2102 10080 20069 39731 40256 53/// 91740 333 10156;
0093066180999992011101719004+46750+006583FM-12+043599999V0202501N000519999999N9999999N1+00681+00641102591ADDMA1999999097311REMSYN066AAXX  17194 06618 43/// /2501 10068 20064 39731 40259 5//// 91840;
0093066180999992011101720004+46750+006583FM-12+043599999V0202901N000519999999N9999999N1+00451+00421102621ADDMA1999999097301REMSYN066AAXX  17204 06618 43/// /2901 10045 20042 39730 40262 5//// 91940;
0107066180999992011101721004+46750+006583FM-12+043599999V0209999C000019999999N9999999N1+00371+00371102671ADDMA1999999097331MD1319999+9999REMSYN066AAXX  17214 06618 43/// /0000 10037 20037 39733 40267 53/// 92040;
0093066180999992011101722004+46750+006583FM-12+043599999V0209999C000019999999N9999999N1+00381+00371102671ADDMA1999999097331REMSYN066AAXX  17224 06618 43/// /0000 10038 20037 39733 40267 5//// 92140;
0093066180999992011101723004+46750+006583FM-12+043599999V0209999C000019999999N9999999N1+00451+00451102651ADDMA1999999097321REMSYN066AAXX  17234 06618 43/// /0000 10045 20045 39732 40265 5//// 92240;
0107066180999992011101800004+46750+006583FM-12+043599999V0209999C000019999999N9999999N1+00181+00181102691ADDMA1999999097311MD1819999+9999REMSYN066AAXX  18004 06618 43/// /0000 10018 20018 39731 40269 58/// 92340;
0107066180999992011101801004+46750+006583FM-12+043599999V0203001N000519999999N9999999N1+00191+00191102671ADDMA1999999097291MD1719999+9999REMSYN066AAXX  18014 06618 43/// /3001 10019 20019 39729 40267 57/// 90040;
0093066180999992011101802004+46750+006583FM-12+043599999V0209999C000019999999N9999999N1+00241+00241102591ADDMA1999999097231REMSYN066AAXX  18024 06618 43/// /0000 10024 20024 39723 40259 5//// 90140;
0093066180999992011101803004+46750+006583FM-12+043599999V0209999C000019999999N9999999N1+00181+00181102551ADDMA1999999097181REMSYN066AAXX  18034 06618 43/// /0000 10018 20018 39718 40255 5//// 90240;
0107066180999992011101804004+46750+006583FM-12+043599999V0209999C000019999999N9999999N1+00111+00111102551ADDMA1999999097161MD1619999+9999REMSYN066AAXX  18044 06618 43/// /0000 10011 20011 39716 40255 56/// 90340;
0093066180999992011101805004+46750+006583FM-12+043599999V0209999C000019999999N9999999N1+00131+00131102541ADDMA1999999097161REMSYN066AAXX  18054 06618 43/// /0000 10013 20013 39716 40254 5//// 90440;
0180066180999992011101806004+46750+006583FM-12+043599999V0202801N000519999999N9999999N1+00031+00021102561ADDAA124000091GJ103669KA1999N+00031MA1999999097161MD1719999+9999REMSYN088AAXX  18064 06618 43/// /2801 10003 20002 39716 40256 57/// 90540 333 20003 55061 70000;EQDQ01  00002PRCP24
0093066180999992011101807004+46750+006583FM-12+043599999V0209999C000019999999N9999999N1+00151+00141102561ADDMA1999999097181REMSYN066AAXX  18074 06618 43/// /0000 10015 20014 39718 40256 5//// 90640;
0093066180999992011101808004+46750+006583FM-12+043599999V0202901N000519999999N9999999N1+00471+00451102491ADDMA1999999097181REMSYN066AAXX  18084 06618 43/// /2901 10047 20045 39718 40249 5//// 90740;
0107066180999992011101809004+46750+006583FM-12+043599999V0202301N001019999999N9999999N1+00881+00721102381ADDMA1999999097151MD1819999+9999REMSYN066AAXX  18094 06618 43/// /2302 10088 20072 39715 40238 58/// 90840;
0093066180999992011101810004+46750+006583FM-12+043599999V0202101N003619999999N9999999N1+01171+00881102261ADDMA1999999097091REMSYN066AAXX  18104 06618 43/// /2107 10117 20088 39709 40226 5//// 90940;
0093066180999992011101811004+46750+006583FM-12+043599999V0202101N004119999999N9999999N1+01301+00831102161ADDMA1999999097021REMSYN066AAXX  18114 06618 43/// /2108 10130 20083 39702 40216 5//// 91040;
0107066180999992011101812004+46750+006583FM-12+043599999V0202101N004119999999N9999999N1+01441+00881102071ADDMA1999999096961MD1819999+9999REMSYN066AAXX  18124 06618 43/// /2108 10144 20088 39696 40207 58/// 91140;
0107066180999992011101813004+46750+006583FM-12+043599999V0202101N005119999999N9999999N1+01581+00901101951ADDMA1999999096871MD1819999+9999REMSYN066AAXX  18134 06618 43/// /2110 10158 20090 39687 40195 58/// 91240;
0093066180999992011101814004+46750+006583FM-12+043599999V0202201N004119999999N9999999N1+01601+00781101891ADDMA1999999096821REMSYN066AAXX  18144 06618 43/// /2208 10160 20078 39682 40189 5//// 91340;
0107066180999992011101815004+46750+006583FM-12+043599999V0202301N003619999999N9999999N1+01631+00821101841ADDMA1999999096771MD1619999+9999REMSYN066AAXX  18154 06618 43/// /2307 10163 20082 39677 40184 56/// 91440;
0093066180999992011101816004+46750+006583FM-12+043599999V0202601N002619999999N9999999N1+01551+00851101821ADDMA1999999096741REMSYN066AAXX  18164 06618 43/// /2605 10155 20085 39674 40182 5//// 91540;
0093066180999992011101817004+46750+006583FM-12+043599999V0202301N000519999999N9999999N1+01351+00841101841ADDMA1999999096721REMSYN066AAXX  18174 06618 43/// /2301 10135 20084 39672 40184 5//// 91640;
0130066180999992011101818004+46750+006583FM-12+043599999V0202001N001019999999N9999999N1+01041+00771101911ADDKA1999M+01651MA1999999096731MD1719999+9999REMSYN076AAXX  18184 06618 43/// /2002 10104 20077 39673 40191 57/// 91740 333 10165;
0093066180999992011101819004+46750+006583FM-12+043599999V0202301N001519999999N9999999N1+00931+00771101931ADDMA1999999096731REMSYN066AAXX  18194 06618 43/// /2303 10093 20077 39673 40193 5//// 91840;
0093066180999992011101820004+46750+006583FM-12+043599999V0202201N001519999999N9999999N1+00721+00581101931ADDMA1999999096691REMSYN066AAXX  18204 06618 43/// /2203 10072 20058 39669 40193 5//// 91940;
0107066180999992011101821004+46750+006583FM-12+043599999V0202801N001019999999N9999999N1+00951+00701101881ADDMA1999999096691MD1719999+9999REMSYN066AAXX  18214 06618 43/// /2802 10095 20070 39669 40188 57/// 92040;
0093066180999992011101822004+46750+006583FM-12+043599999V0202601N004119999999N9999999N1+01311+00831101811ADDMA1999999096691REMSYN066AAXX  18224 06618 43/// /2608 10131 20083 39669 40181 5//// 92140;
0093066180999992011101823004+46750+006583FM-12+043599999V0202601N002619999999N9999999N1+01341+00871101821ADDMA1999999096701REMSYN066AAXX  18234 06618 43/// /2605 10134 20087 39670 40182 5//// 92240;
0107066180999992011101900004+46750+006583FM-12+043599999V0202101N003119999999N9999999N1+01391+00901101791ADDMA1999999096681MD1719999+9999REMSYN066AAXX  19004 06618 43/// /2106 10139 20090 39668 40179 57/// 92340;
0093066180999992011101901004+46750+006583FM-12+043599999V0202101N003619999999N9999999N1+01371+00901101741ADDMA1999999096631REMSYN066AAXX  19014 06618 43/// /2107 10137 20090 39663 40174 5//// 90040;
0093066180999992011101902004+46750+006583FM-12+043599999V0202101N006219999999N9999999N1+01391+00891101651ADDMA1999999096551REMSYN066AAXX  19024 06618 43/// /2112 10139 20089 39655 40165 5//// 90140;
0093066180999992011101903004+46750+006583FM-12+043599999V0202201N005119999999N9999999N1+01381+00891101581ADDMA1999999096481REMSYN066AAXX  19034 06618 43/// /2210 10138 20089 39648 40158 5//// 90240;
0107066180999992011101904004+46750+006583FM-12+043599999V0202201N006719999999N9999999N1+01421+00851101551ADDMA1999999096461MD1719999+9999REMSYN066AAXX  19044 06618 43/// /2213 10142 20085 39646 40155 57/// 90340;
0093066180999992011101905004+46750+006583FM-12+043599999V0202101N007719999999N9999999N1+01421+00831101471ADDMA1999999096381REMSYN066AAXX  19054 06618 43/// /2115 10142 20083 39638 40147 5//// 90440;
0180066180999992011101906004+46750+006583FM-12+043599999V0202101N007719999999N9999999N1+01431+00831101441ADDAA124000091GJ105109KA1999N+00671MA1999999096361MD1719999+9999REMSYN088AAXX  19064 06618 43/// /2115 10143 20083 39636 40144 57/// 90540 333 20067 55085 70000;EQDQ01  00002PRCP24
0093066180999992011101907004+46750+006583FM-12+043599999V0202201N008719999999N9999999N1+01371+00881101471ADDMA1999999096381REMSYN066AAXX  19074 06618 43/// /2217 10137 20088 39638 40147 5//// 90640;
0093066180999992011101908004+46750+006583FM-12+043599999V0202401N006219999999N9999999N1+01261+00921101591ADDMA1999999096471REMSYN066AAXX  19084 06618 43/// /2412 10126 20092 39647 40159 5//// 90740;
0107066180999992011101909004+46750+006583FM-12+043599999V0202401N002619999999N9999999N1+00971+00641101741ADDMA1999999096561MD1219999+9999REMSYN066AAXX  19094 06618 43/// /2405 10097 20064 39656 40174 52/// 90840;
0093066180999992011101910004+46750+006583FM-12+043599999V0201601N002619999999N9999999N1+00901+00671101841ADDMA1999999096641REMSYN066AAXX  19104 06618 43/// /1605 10090 20067 39664 40184 5//// 90940;
0093066180999992011101911004+46750+006583FM-12+043599999V0201701N003619999999N9999999N1+00901+00581101871ADDMA1999999096671REMSYN066AAXX  19114 06618 43/// /1707 10090 20058 39667 40187 5//// 91040;
0117066180999992011101912004+46750+006583FM-12+043599999V0202301N005119999999N9999999N1+00751+00441101981ADDMA1999999096751MD1219999+9999REMSYN076AAXX  19124 06618 43/// /2310 10075 20044 39675 40198 52/// 91140 333 91218;
0107066180999992011101913004+46750+006583FM-12+043599999V0202401N002619999999N9999999N1+00701+00431102111ADDMA1999999096861MD1319999+9999REMSYN066AAXX  19134 06618 43/// /2405 10070 20043 39686 40211 53/// 91240;
0093066180999992011101914004+46750+006583FM-12+043599999V0201901N000519999999N9999999N1+00701+00391102181ADDMA1999999096931REMSYN066AAXX  19144 06618 43/// /1901 10070 20039 39693 40218 5//// 91340;
0107066180999992011101915004+46750+006583FM-12+043599999V0201801N001019999999N9999999N1+00711+00521102291ADDMA1999999097031MD1219999+9999REMSYN066AAXX  19154 06618 43/// /1802 10071 20052 39703 40229 52/// 91440;
0093066180999992011101916004+46750+006583FM-12+043599999V0200201N001019999999N9999999N1+00741+00351102321ADDMA1999999097071REMSYN066AAXX  19164 06618 43/// /0202 10074 20035 39707 40232 5//// 91540;
0093066180999992011101917004+46750+006583FM-12+043599999V0201101N001519999999N9999999N1+00691+00491102391ADDMA1999999097121REMSYN066AAXX  19174 06618 43/// /1103 10069 20049 39712 40239 5//// 91640;
0130066180999992011101918004+46750+006583FM-12+043599999V0200101N001019999999N9999999N1+00621+00331102461ADDKA1999M+01441MA1999999097181MD1219999+9999REMSYN076AAXX  19184 06618 43/// /0102 10062 20033 39718 40246 52/// 91740 333 10144;
0093066180999992011101919004+46750+006583FM-12+043599999V0202801N000519999999N9999999N1+00511+00401102561ADDMA1999999097251REMSYN066AAXX  19194 06618 43/// /2801 10051 20040 39725 40256 5//// 91840;
0093066180999992011101920004+46750+006583FM-12+043599999V0202401N001019999999N9999999N1+00491+00341102581ADDMA1999999097271REMSYN066AAXX  19204 06618 43/// /2402 10049 20034 39727 40258 5//// 91940;
0093066180999992011101921004+46750+006583FM-12+043599999V0203201N001019999999N9999999N1+00381+00301102661ADDMA1999999097321REMSYN066AAXX  19214 06618 43/// /3202 10038 20030 39732 40266 5//// 92040;
0093066180999992011101922004+46750+006583FM-12+043599999V0202201N001019999999N9999999N1+00301+00231102701ADDMA1999999097341REMSYN066AAXX  19224 06618 43/// /2202 10030 20023 39734 40270 5//// 92140;
0093066180999992011101923004+46750+006583FM-12+043599999V0209999C000019999999N9999999N1+00181+00161102731ADDMA1999999097351REMSYN066AAXX  19234 06618 43/// /0000 10018 20016 39735 40273 5//// 92240;
0107066180999992011102000004+46750+006583FM-12+043599999V0203201N001019999999N9999999N1+00201+00171102721ADDMA1999999097341MD1019999+9999REMSYN066AAXX  20004 06618 43/// /3202 10020 20017 39734 40272 50/// 92340;
0093066180999992011102001004+46750+006583FM-12+043599999V0201101N000519999999N9999999N1+00141+00121102741ADDMA1999999097351REMSYN066AAXX  20014 06618 43/// /1101 10014 20012 39735 40274 5//// 90040;
0093066180999992011102002004+46750+006583FM-12+043599999V0202701N000519999999N9999999N1+00101+00071102761ADDMA1999999097361REMSYN066AAXX  20024 06618 43/// /2701 10010 20007 39736 40276 5//// 90140;
0093066180999992011102003004+46750+006583FM-12+043599999V0203101N000519999999N9999999N1+00181+00151102731ADDMA1999999097351REMSYN066AAXX  20034 06618 43/// /3101 10018 20015 39735 40273 5//// 90240;
0107066180999992011102004004+46750+006583FM-12+043599999V0200701N000519999999N9999999N1+00271+00221102761ADDMA1999999097391MD1319999+9999REMSYN066AAXX  20044 06618 43/// /0701 10027 20022 39739 40276 53/// 90340;
0093066180999992011102005004+46750+006583FM-12+043599999V0202501N000519999999N9999999N1+00281+00221102801ADDMA1999999097431REMSYN066AAXX  20054 06618 43/// /2501 10028 20022 39743 40280 5//// 90440;
0161066180999992011102006004+46750+006583FM-12+043599999V0203301N001019999999N9999999N1+00361+00271102791ADDAA124008691GJ100009KA1999N+00081MA1999999097441MD1219999+9999REMSYN088AAXX  20064 06618 43/// /3302 10036 20027 39744 40279 52/// 90540 333 20008 55000 70087;
0093066180999992011102007004+46750+006583FM-12+043599999V0203301N000519999999N9999999N1+00411+00301102851ADDMA1999999097511REMSYN066AAXX  20074 06618 43/// /3301 10041 20030 39751 40285 5//// 90640;
0093066180999992011102008004+46750+006583FM-12+043599999V0201001N000519999999N9999999N1+00561+00351102861ADDMA1999999097541REMSYN066AAXX  20084 06618 43/// /1001 10056 20035 39754 40286 5//// 90740;
0107066180999992011102009004+46750+006583FM-12+043599999V0200801N001019999999N9999999N1+00741+00341102841ADDMA1999999097561MD1119999+9999REMSYN066AAXX  20094 06618 43/// /0802 10074 20034 39756 40284 51/// 90840;
0093066180999992011102010004+46750+006583FM-12+043599999V0200501N002119999999N9999999N1+00941+00181102781ADDMA1999999097541REMSYN066AAXX  20104 06618 43/// /0504 10094 20018 39754 40278 5//// 90940;
0093066180999992011102011004+46750+006583FM-12+043599999V0200801N003119999999N9999999N1+01031+00321102771ADDMA1999999097551REMSYN066AAXX  20114 06618 43/// /0806 10103 20032 39755 40277 5//// 91040;
0093066180999992011102012004+46750+006583FM-12+043599999V0200601N002119999999N9999999N1+01001+00171102751ADDMA1999999097521REMSYN066AAXX  20124 06618 43/// /0604 10100 20017 39752 40275 5//// 91140;
0093066180999992011102013004+46750+006583FM-12+043599999V0200601N003119999999N9999999N1+01011+00051102701ADDMA1999999097481REMSYN066AAXX  20134 06618 43/// /0606 10101 20005 39748 40270 5//// 91240;
0093066180999992011102014004+46750+006583FM-12+043599999V0200401N002119999999N9999999N1+01051+00011102661ADDMA1999999097451REMSYN066AAXX  20144 06618 43/// /0404 10105 20001 39745 40266 5//// 91340;
0107066180999992011102015004+46750+006583FM-12+043599999V0200501N002119999999N9999999N1+00941+00081102701ADDMA1999999097461MD1719999+9999REMSYN066AAXX  20154 06618 43/// /0504 10094 20008 39746 40270 57/// 91440;
0093066180999992011102016004+46750+006583FM-12+043599999V0200301N001519999999N9999999N1+00881+00111102721ADDMA1999999097471REMSYN066AAXX  20164 06618 43/// /0303 10088 20011 39747 40272 5//// 91540;
0093066180999992011102017004+46750+006583FM-12+043599999V0203501N002119999999N9999999N1+00721+00091102771ADDMA1999999097491REMSYN066AAXX  20174 06618 43/// /3504 10072 20009 39749 40277 5//// 91640;
0116066180999992011102018004+46750+006583FM-12+043599999V0201001N001519999999N9999999N1+00681+00121102831ADDKA1999M+01121MA1999999097541REMSYN076AAXX  20184 06618 43/// /1003 10068 20012 39754 40283 5//// 91740 333 10112;
0093066180999992011102019004+46750+006583FM-12+043599999V0200801N001019999999N9999999N1+00581+00091102861ADDMA1999999097551REMSYN066AAXX  20194 06618 43/// /0802 10058 20009 39755 40286 5//// 91840;
0093066180999992011102020004+46750+006583FM-12+043599999V0200801N001519999999N9999999N1+00391+00041102911ADDMA1999999097561REMSYN066AAXX  20204 06618 43/// /0803 10039 20004 39756 40291 5//// 91940;
0093066180999992011102021004+46750+006583FM-12+043599999V0200401N001519999999N9999999N1+00421-00031102951ADDMA1999999097601REMSYN066AAXX  20214 06618 43/// /0403 10042 21003 39760 40295 5//// 92040;
0093066180999992011102022004+46750+006583FM-12+043599999V0201901N000519999999N9999999N1+00191-00021102981ADDMA1999999097591REMSYN066AAXX  20224 06618 43/// /1901 10019 21002 39759 40298 5//// 92140;
0093066180999992011102023004+46750+006583FM-12+043599999V0202601N001019999999N9999999N1+00041-00091103001ADDMA1999999097581REMSYN066AAXX  20234 06618 43/// /2602 10004 21009 39758 40300 5//// 92240;
0107066180999992011102100004+46750+006583FM-12+043599999V0202701N000519999999N9999999N1-00041-00121103001ADDMA1999999097561MD1719999+9999REMSYN066AAXX  21004 06618 43/// /2701 11004 21012 39756 40300 57/// 92340;
0093066180999992011102101004+46750+006583FM-12+043599999V0202301N000519999999N9999999N1-00011-00091102991ADDMA1999999097561REMSYN066AAXX  21014 06618 43/// /2301 11001 21009 39756 40299 5//// 90040;
0093066180999992011102102004+46750+006583FM-12+043599999V0209999C000019999999N9999999N1+00051-00121102951ADDMA1999999097531REMSYN066AAXX  21024 06618 43/// /0000 10005 21012 39753 40295 5//// 90140;
0093066180999992011102103004+46750+006583FM-12+043599999V0202501N000519999999N9999999N1-00031-00151102931ADDMA1999999097501REMSYN066AAXX  21034 06618 43/// /2501 11003 21015 39750 40293 5//// 90240;
0093066180999992011102104004+46750+006583FM-12+043599999V0200601N003119999999N9999999N1+00281+00051102871ADDMA1999999097501REMSYN066AAXX  21044 06618 43/// /0606 10028 20005 39750 40287 5//// 90340;
0093066180999992011102105004+46750+006583FM-12+043599999V0200301N001519999999N9999999N1+00351+00111102871ADDMA1999999097511REMSYN066AAXX  21054 06618 43/// /0303 10035 20011 39751 40287 5//// 90440;
0180066180999992011102106004+46750+006583FM-12+043599999V0200501N001019999999N9999999N1+00301+00111102891ADDAA124000091GJ103729KA1999N-00161MA1999999097521MD1219999+9999REMSYN088AAXX  21064 06618 43/// /0502 10030 20011 39752 40289 52/// 90540 333 21016 55062 70000;EQDQ01  00002PRCP24
0107066180999992011102107004+46750+006583FM-12+043599999V0200301N000519999999N9999999N1+00361+00161102931ADDMA1999999097571MD1219999+9999REMSYN066AAXX  21074 06618 43/// /0301 10036 20016 39757 40293 52/// 90640;
0093066180999992011102108004+46750+006583FM-12+043599999V0200601N001519999999N9999999N1+00361+00201102971ADDMA1999999097611REMSYN066AAXX  21084 06618 43/// /0603 10036 20020 39761 40297 5//// 90740;
0107066180999992011102109004+46750+006583FM-12+043599999V0200801N001519999999N9999999N1+00381+00201103001ADDMA1999999097641MD1119999+9999REMSYN066AAXX  21094 06618 43/// /0803 10038 20020 39764 40300 51/// 90840;
0107066180999992011102110004+46750+006583FM-12+043599999V0200601N002119999999N9999999N1+00431+00191102971ADDMA1999999097621MD1019999+9999REMSYN066AAXX  21104 06618 43/// /0604 10043 20019 39762 40297 50/// 90940;
0093066180999992011102111004+46750+006583FM-12+043599999V0200701N003119999999N9999999N1+00531+00181102941ADDMA1999999097611REMSYN066AAXX  21114 06618 43/// /0706 10053 20018 39761 40294 5//// 91040;
0107066180999992011102112004+46750+006583FM-12+043599999V0200401N004119999999N9999999N1+00591+00111102871ADDMA1999999097561MD1719999+9999REMSYN066AAXX  21124 06618 43/// /0408 10059 20011 39756 40287 57/// 91140;
0093066180999992011102113004+46750+006583FM-12+043599999V0200501N004119999999N9999999N1+00731+00071102781ADDMA1999999097501REMSYN066AAXX  21134 06618 43/// /0508 10073 20007 39750 40278 5//// 91240;
0093066180999992011102114004+46750+006583FM-12+043599999V0200601N004119999999N9999999N1+00791+00181102741ADDMA1999999097471REMSYN066AAXX  21144 06618 43/// /0608 10079 20018 39747 40274 5//// 91340;
0107066180999992011102115004+46750+006583FM-12+043599999V0200701N003619999999N9999999N1+00791+00151102701ADDMA1999999097441MD1619999+9999REMSYN066AAXX  21154 06618 43/// /0707 10079 20015 39744 40270 56/// 91440;
0093066180999992011102116004+46750+006583FM-12+043599999V0200601N001519999999N9999999N1+00781+00141102651ADDMA1999999097391REMSYN066AAXX  21164 06618 43/// /0603 10078 20014 39739 40265 5//// 91540;
0093066180999992011102117004+46750+006583FM-12+043599999V0203401N000519999999N9999999N1+00541+00161102701ADDMA1999999097391REMSYN066AAXX  21174 06618 43/// /3401 10054 20016 39739 40270 5//// 91640;
0116066180999992011102118004+46750+006583FM-12+043599999V0203401N001019999999N9999999N1+00481+00081102731ADDKA1999M+00821MA1999999097411REMSYN076AAXX  21184 06618 43/// /3402 10048 20008 39741 40273 5//// 91740 333 10082;
0093066180999992011102119004+46750+006583FM-12+043599999V0202301N000519999999N9999999N1+00141+00021102801ADDMA1999999097411REMSYN066AAXX  21194 06618 43/// /2301 10014 20002 39741 40280 5//// 91840;
0093066180999992011102120004+46750+006583FM-12+043599999V0202201N001019999999N9999999N1+00011-00051102831ADDMA1999999097411REMSYN066AAXX  21204 06618 43/// /2202 10001 21005 39741 40283 5//// 91940;
0107066180999992011102121004+46750+006583FM-12+043599999V0202601N000519999999N9999999N1+00031-00061102851ADDMA1999999097431MD1219999+9999REMSYN066AAXX  21214 06618 43/// /2601 10003 21006 39743 40285 52/// 92040;
0093066180999992011102122004+46750+006583FM-12+043599999V0202201N001019999999N9999999N1-00121-00141102861ADDMA1999999097411REMSYN066AAXX  21224 06618 43/// /2202 11012 21014 39741 40286 5//// 92140;
0093066180999992011102123004+46750+006583FM-12+043599999V0202401N000519999999N9999999N1-00041-00101102821ADDMA1999999097391REMSYN066AAXX  21234 06618 43/// /2401 11004 21010 39739 40282 5//// 92240;
0107066180999992011102200004+46750+006583FM-12+043599999V0202401N001019999999N9999999N1-00101-00151102821ADDMA1999999097381MD1619999+9999REMSYN066AAXX  22004 06618 43/// /2402 11010 21015 39738 40282 56/// 92340;
0093066180999992011102201004+46750+006583FM-12+043599999V0209999C000019999999N9999999N1+00001-00081102791ADDMA1999999097371REMSYN066AAXX  22014 06618 43/// /0000 10000 21008 39737 40279 5//// 90040;
0093066180999992011102202004+46750+006583FM-12+043599999V0209999C000019999999N9999999N1+00041-00051102761ADDMA1999999097351REMSYN066AAXX  22024 06618 43/// /0000 10004 21005 39735 40276 5//// 90140;
0093066180999992011102203004+46750+006583FM-12+043599999V0200901N000519999999N9999999N1+00101+00021102731ADDMA1999999097331REMSYN066AAXX  22034 06618 43/// /0901 10010 20002 39733 40273 5//// 90240;
0093066180999992011102204004+46750+006583FM-12+043599999V0201701N000519999999N9999999N1+00201+00111102701ADDMA1999999097321REMSYN066AAXX  22044 06618 43/// /1701 10020 20011 39732 40270 5//// 90340;
0093066180999992011102205004+46750+006583FM-12+043599999V0209999C000019999999N9999999N1+00201+00121102701ADDMA1999999097321REMSYN066AAXX  22054 06618 43/// /0000 10020 20012 39732 40270 5//// 90440;
0180066180999992011102206004+46750+006583FM-12+043599999V0209999C000019999999N9999999N1+00251+00181102701ADDAA124000091GJ102769KA1999N-00141MA1999999097331MD1410001+9999REMSYN088AAXX  22064 06618 43/// /0000 10025 20018 39733 40270 54/// 90540 333 21014 55046 70000;EQDQ01  00002PRCP24
0107066180999992011102207004+46750+006583FM-12+043599999V0209999C000019999999N9999999N1+00301+00211102721ADDMA1999999097361MD1219999+9999REMSYN066AAXX  22074 06618 43/// /0000 10030 20021 39736 40272 52/// 90640;
0093066180999992011102208004+46750+006583FM-12+043599999V0209999C000019999999N9999999N1+00431+00281102691ADDMA1999999097361REMSYN066AAXX  22084 06618 43/// /0000 10043 20028 39736 40269 5//// 90740;
0093066180999992011102209004+46750+006583FM-12+043599999V0200601N001519999999N9999999N1+00551+00331102661ADDMA1999999097351REMSYN066AAXX  22094 06618 43/// /0603 10055 20033 39735 40266 5//// 90840;
0107066180999992011102210004+46750+006583FM-12+043599999V0200401N001519999999N9999999N1+00621+00351102651ADDMA1999999097361MD1519999+9999REMSYN066AAXX  22104 06618 43/// /0403 10062 20035 39736 40265 55/// 90940;
0093066180999992011102211004+46750+006583FM-12+043599999V0200801N001019999999N9999999N1+00701+00361102601ADDMA1999999097321REMSYN066AAXX  22114 06618 43/// /0802 10070 20036 39732 40260 5//// 91040;
0107066180999992011102212004+46750+006583FM-12+043599999V0202001N000519999999N9999999N1+00751+00311102521ADDMA1999999097261MD1719999+9999REMSYN066AAXX  22124 06618 43/// /2001 10075 20031 39726 40252 57/// 91140;
0107066180999992011102213004+46750+006583FM-12+043599999V0202801N000519999999N9999999N1+00811+00361102451ADDMA1999999097201MD1819999+9999REMSYN066AAXX  22134 06618 43/// /2801 10081 20036 39720 40245 58/// 91240;
0093066180999992011102214004+46750+006583FM-12+043599999V0200701N001519999999N9999999N1+00851+00351102351ADDMA1999999097121REMSYN066AAXX  22144 06618 43/// /0703 10085 20035 39712 40235 5//// 91340;
0107066180999992011102215004+46750+006583FM-12+043599999V0200401N002119999999N9999999N1+00871+00411102321ADDMA1999999097091MD1619999+9999REMSYN066AAXX  22154 06618 43/// /0404 10087 20041 39709 40232 56/// 91440;
0093066180999992011102216004+46750+006583FM-12+043599999V0201001N001019999999N9999999N1+00861+00411102281ADDMA1999999097051REMSYN066AAXX  22164 06618 43/// /1002 10086 20041 39705 40228 5//// 91540;
0093066180999992011102217004+46750+006583FM-12+043599999V0200601N001519999999N9999999N1+00651+00421102331ADDMA1999999097061REMSYN066AAXX  22174 06618 43/// /0603 10065 20042 39706 40233 5//// 91640;
0116066180999992011102218004+46750+006583FM-12+043599999V0209999C000019999999N9999999N1+00361+00291102411ADDKA1999M+00921MA1999999097081REMSYN076AAXX  22184 06618 43/// /0000 10036 20029 39708 40241 5//// 91740 333 10092;
0093066180999992011102219004+46750+006583FM-12+043599999V0202901N000519999999N9999999N1+00401+00301102421ADDMA1999999097101REMSYN066AAXX  22194 06618 43/// /2901 10040 20030 39710 40242 5//// 91840;
0093066180999992011102220004+46750+006583FM-12+043599999V0202301N000519999999N9999999N1+00121+00121102511ADDMA1999999097131REMSYN066AAXX  22204 06618 43/// /2301 10012 20012 39713 40251 5//// 91940;
0093066180999992011102221004+46750+006583FM-12+043599999V0202601N000519999999N9999999N1-00061-00071102571ADDMA1999999097151REMSYN066AAXX  22214 06618 43/// /2601 11006 21007 39715 40257 5//// 92040;
0093066180999992011102222004+46750+006583FM-12+043599999V0209999C000019999999N9999999N1-00091-00101102581ADDMA1999999097151REMSYN066AAXX  22224 06618 43/// /0000 11009 21010 39715 40258 5//// 92140;
0093066180999992011102223004+46750+006583FM-12+043599999V0209999C000019999999N9999999N1-00031-00051102541ADDMA1999999097131REMSYN066AAXX  22234 06618 43/// /0000 11003 21005 39713 40254 5//// 92240;
0107066180999992011102300004+46750+006583FM-12+043599999V0209999C000019999999N9999999N1-00161-00181102561ADDMA1999999097121MD1819999+9999REMSYN066AAXX  23004 06618 43/// /0000 11016 21018 39712 40256 58/// 92340;
0107066180999992011102301004+46750+006583FM-12+043599999V0209999C000019999999N9999999N1-00011-00011102521ADDMA1999999097111MD1719999+9999REMSYN066AAXX  23014 06618 43/// /0000 11001 21001 39711 40252 57/// 90040;
0093066180999992011102302004+46750+006583FM-12+043599999V0209999C000019999999N9999999N1-00081-00091102521ADDMA1999999097101REMSYN066AAXX  23024 06618 43/// /0000 11008 21009 39710 40252 5//// 90140;
0093066180999992011102303004+46750+006583FM-12+043599999V0209999C000019999999N9999999N1+00001-00051102481ADDMA1999999097081REMSYN066AAXX  23034 06618 43/// /0000 10000 21005 39708 40248 5//// 90240;
0093066180999992011102304004+46750+006583FM-12+043599999V0209999C000019999999N9999999N1+00131+00101102441ADDMA1999999097061REMSYN066AAXX  23044 06618 43/// /0000 10013 20010 39706 40244 5//// 90340;
0093066180999992011102305004+46750+006583FM-12+043599999V0209999C000019999999N9999999N1+00261+00201102401ADDMA1999999097051REMSYN066AAXX  23054 06618 43/// /0000 10026 20020 39705 40240 5//// 90440;
0180066180999992011102306004+46750+006583FM-12+043599999V0209999C000019999999N9999999N1+00321+00271102341ADDAA124000091GJ102049KA1999N-00161MA1999999097011MD1719999+9999REMSYN088AAXX  23064 06618 43/// /0000 10032 20027 39701 40234 57/// 90540 333 21016 55034 70000;EQDQ01  00002PRCP24
0093066180999992011102307004+46750+006583FM-12+043599999V0209999C000019999999N9999999N1+00361+00291102341ADDMA1999999097011REMSYN066AAXX  23074 06618 43/// /0000 10036 20029 39701 40234 5//// 90640;
0093066180999992011102308004+46750+006583FM-12+043599999V0209999C000019999999N9999999N1+00461+00391102321ADDMA1999999097011REMSYN066AAXX  23084 06618 43/// /0000 10046 20039 39701 40232 5//// 90740;
0107066180999992011102309004+46750+006583FM-12+043599999V0209999C000019999999N9999999N1+00601+00471102251ADDMA1999999096971MD1719999+9999REMSYN066AAXX  23094 06618 43/// /0000 10060 20047 39697 40225 57/// 90840;
0093066180999992011102310004+46750+006583FM-12+043599999V0209999C000019999999N9999999N1+00691+00511102191ADDMA1999999096931REMSYN066AAXX  23104 06618 43/// /0000 10069 20051 39693 40219 5//// 90940;
0093066180999992011102311004+46750+006583FM-12+043599999V0202501N000519999999N9999999N1+00791+00471102101ADDMA1999999096871REMSYN066AAXX  23114 06618 43/// /2501 10079 20047 39687 40210 5//// 91040;
0093066180999992011102312004+46750+006583FM-12+043599999V0203401N001019999999N9999999N1+00811+00411102041ADDMA1999999096811REMSYN066AAXX  23124 06618 43/// /3402 10081 20041 39681 40204 5//// 91140;
0093066180999992011102313004+46750+006583FM-12+043599999V0200101N001019999999N9999999N1+00951+00471101911ADDMA1999999096721REMSYN066AAXX  23134 06618 43/// /0102 10095 20047 39672 40191 5//// 91240;
0093066180999992011102314004+46750+006583FM-12+043599999V0200601N000519999999N9999999N1+01001+00431101831ADDMA1999999096651REMSYN066AAXX  23144 06618 43/// /0601 10100 20043 39665 40183 5//// 91340;
0093066180999992011102315004+46750+006583FM-12+043599999V0209999C000019999999N9999999N1+01061+00501101721ADDMA1999999096561REMSYN066AAXX  23154 06618 43/// /0000 10106 20050 39656 40172 5//// 91440;
0093066180999992011102316004+46750+006583FM-12+043599999V0203301N000519999999N9999999N1+01011+00461101701ADDMA1999999096531REMSYN066AAXX  23164 06618 43/// /3301 10101 20046 39653 40170 5//// 91540;
0093066180999992011102317004+46750+006583FM-12+043599999V0200401N001019999999N9999999N1+00721+00501101731ADDMA1999999096501REMSYN066AAXX  23174 06618 43/// /0402 10072 20050 39650 40173 5//// 91640;
0116066180999992011102318004+46750+006583FM-12+043599999V0203501N000519999999N9999999N1+00441+00351101791ADDKA1999M+01081MA1999999096511REMSYN076AAXX  23184 06618 33/// /3501 10044 20035 39651 40179 5//// 91740 333 10108;
0093066180999992011102319004+46750+006583FM-12+043599999V0202201N000519999999N9999999N1+00261+00241101821ADDMA1999999096501REMSYN066AAXX  23194 06618 43/// /2201 10026 20024 39650 40182 5//// 91840;
0093066180999992011102320004+46750+006583FM-12+043599999V0202301N000519999999N9999999N1+00311+00271101811ADDMA1999999096501REMSYN066AAXX  23204 06618 43/// /2301 10031 20027 39650 40181 5//// 91940;
0093066180999992011102321004+46750+006583FM-12+043599999V0201301N000519999999N9999999N1+00431+00381101751ADDMA1999999096471REMSYN066AAXX  23214 06618 43/// /1301 10043 20038 39647 40175 5//// 92040;
0093066180999992011102322004+46750+006583FM-12+043599999V0209999C000019999999N9999999N1+00511+00431101721ADDMA1999999096451REMSYN066AAXX  23224 06618 43/// /0000 10051 20043 39645 40172 5//// 92140;
0093066180999992011102323004+46750+006583FM-12+043599999V0200601N001519999999N9999999N1+00631+00551101651ADDMA1999999096411REMSYN066AAXX  23234 06618 43/// /0603 10063 20055 39641 40165 5//// 92240;
0107066180999992011102400004+46750+006583FM-12+043599999V0200701N001019999999N9999999N1+00601+00531101611ADDMA1999999096371MD1819999+9999REMSYN066AAXX  24004 06618 43/// /0702 10060 20053 39637 40161 58/// 92340;
0107066180999992011102401004+46750+006583FM-12+043599999V0200601N002619999999N9999999N1+00561+00511101591ADDMA1999999096341MD1619999+9999REMSYN066AAXX  24014 06618 43/// /0605 10056 20051 39634 40159 56/// 90040;
0093066180999992011102402004+46750+006583FM-12+043599999V0200601N001519999999N9999999N1+00521+00471101521ADDMA1999999096271REMSYN066AAXX  24024 06618 43/// /0603 10052 20047 39627 40152 5//// 90140;
0107066180999992011102403004+46750+006583FM-12+043599999V0200701N001519999999N9999999N1+00521+00491101461ADDMA1999999096211MD1819999+9999REMSYN066AAXX  24034 06618 43/// /0703 10052 20049 39621 40146 58/// 90240;
0107066180999992011102404004+46750+006583FM-12+043599999V0200701N002119999999N9999999N1+00491+00461101451ADDMA1999999096191MD1719999+9999REMSYN066AAXX  24044 06618 43/// /0704 10049 20046 39619 40145 57/// 90340;
0093066180999992011102405004+46750+006583FM-12+043599999V0200601N002619999999N9999999N1+00461+00431101411ADDMA1999999096151REMSYN066AAXX  24054 06618 43/// /0605 10046 20043 39615 40141 5//// 90440;
0180066180999992011102406004+46750+006583FM-12+043599999V0200801N001519999999N9999999N1+00411+00351101421ADDAA124000091GJ102169KA1999N+00211MA1999999096151MD1719999+9999REMSYN088AAXX  24064 06618 43/// /0803 10041 20035 39615 40142 57/// 90540 333 20021 55036 70000;EQDQ01  00002PRCP24
0093066180999992011102407004+46750+006583FM-12+043599999V0200701N000519999999N9999999N1+00421+00371101411ADDMA1999999096141REMSYN066AAXX  24074 06618 43/// /0701 10042 20037 39614 40141 5//// 90640;
0093066180999992011102408004+46750+006583FM-12+043599999V0200701N001519999999N9999999N1+00461+00391101341ADDMA1999999096081REMSYN066AAXX  24084 06618 43/// /0703 10046 20039 39608 40134 5//// 90740;
0093066180999992011102409004+46750+006583FM-12+043599999V0200801N002119999999N9999999N1+00511+00411101291ADDMA1999999096051REMSYN066AAXX  24094 06618 43/// /0804 10051 20041 39605 40129 5//// 90840;
0093066180999992011102410004+46750+006583FM-12+043599999V0200601N003119999999N9999999N1+00561+00401101231ADDMA1999999096001REMSYN066AAXX  24104 06618 43/// /0606 10056 20040 39600 40123 5//// 90940;
0093066180999992011102411004+46750+006583FM-12+043599999V0200501N002619999999N9999999N1+00631+00421101161ADDMA1999999095951REMSYN066AAXX  24114 06618 43/// /0505 10063 20042 39595 40116 5//// 91040;
0107066180999992011102412004+46750+006583FM-12+043599999V0200301N003619999999N9999999N1+00721+00451101041ADDMA1999999095851MD1719999+9999REMSYN066AAXX  24124 06618 43/// /0307 10072 20045 39585 40104 57/// 91140;
0107066180999992011102413004+46750+006583FM-12+043599999V0200401N004619999999N9999999N1+00751+00451100941ADDMA1999999095761MD1819999+9999REMSYN066AAXX  24134 06618 43/// /0409 10075 20045 39576 40094 58/// 91240;
0093066180999992011102414004+46750+006583FM-12+043599999V0200501N004619999999N9999999N1+00741+00471100891ADDMA1999999095711REMSYN066AAXX  24144 06618 43/// /0509 10074 20047 39571 40089 5//// 91340;
0107066180999992011102415004+46750+006583FM-12+043599999V0200301N004619999999N9999999N1+00741+00471100831ADDMA1999999095651MD1719999+9999REMSYN066AAXX  24154 06618 43/// /0309 10074 20047 39565 40083 57/// 91440;
0093066180999992011102416004+46750+006583FM-12+043599999V0200501N003119999999N9999999N1+00691+00451100831ADDMA1999999095641REMSYN066AAXX  24164 06618 43/// /0506 10069 20045 39564 40083 5//// 91540;
0093066180999992011102417004+46750+006583FM-12+043599999V0200501N001019999999N9999999N1+00691+00491100841ADDMA1999999095651REMSYN066AAXX  24174 06618 43/// /0502 10069 20049 39565 40084 5//// 91640;
0130066180999992011102418004+46750+006583FM-12+043599999V0200201N001519999999N9999999N1+00661+00481100861ADDKA1999M+00811MA1999999095671MD1219999+9999REMSYN076AAXX  24184 06618 43/// /0203 10066 20048 39567 40086 52/// 91740 333 10081;
0093066180999992011102419004+46750+006583FM-12+043599999V0203401N001019999999N9999999N1+00651+00501100911ADDMA1999999095711REMSYN066AAXX  24194 06618 43/// /3402 10065 20050 39571 40091 5//// 91840;
0093066180999992011102420004+46750+006583FM-12+043599999V0200201N001519999999N9999999N1+00631+00501100871ADDMA1999999095671REMSYN066AAXX  24204 06618 43/// /0203 10063 20050 39567 40087 5//// 91940;
0093066180999992011102421004+46750+006583FM-12+043599999V0200601N001019999999N9999999N1+00671+00511100871ADDMA1999999095681REMSYN066AAXX  24214 06618 43/// /0602 10067 20051 39568 40087 5//// 92040;
0093066180999992011102422004+46750+006583FM-12+043599999V0200101N001019999999N9999999N1+00641+00511100831ADDMA1999999095631REMSYN066AAXX  24224 06618 43/// /0102 10064 20051 39563 40083 5//// 92140;
0093066180999992011102423004+46750+006583FM-12+043599999V0200401N001019999999N9999999N1+00581+00511100831ADDMA1999999095621REMSYN066AAXX  24234 06618 43/// /0402 10058 20051 39562 40083 5//// 92240;
0093066180999992011102500004+46750+006583FM-12+043599999V0200101N000519999999N9999999N1+00681+00551100741ADDMA1999999095561REMSYN066AAXX  25004 06618 43/// /0101 10068 20055 39556 40074 5//// 92340;
0093066180999992011102501004+46750+006583FM-12+043599999V0200101N001019999999N9999999N1+00721+00581100711ADDMA1999999095541REMSYN066AAXX  25014 06618 43/// /0102 10072 20058 39554 40071 5//// 90040;
0093066180999992011102502004+46750+006583FM-12+043599999V0200101N000519999999N9999999N1+00751+00631100691ADDMA1999999095521REMSYN066AAXX  25024 06618 43/// /0101 10075 20063 39552 40069 5//// 90140;
0093066180999992011102503004+46750+006583FM-12+043599999V0200301N000519999999N9999999N1+00721+00601100631ADDMA1999999095461REMSYN066AAXX  25034 06618 43/// /0301 10072 20060 39546 40063 5//// 90240;
0093066180999992011102504004+46750+006583FM-12+043599999V0203501N001019999999N9999999N1+00701+00631100561ADDMA1999999095391REMSYN066AAXX  25044 06618 43/// /3502 10070 20063 39539 40056 5//// 90340;
0093066180999992011102505004+46750+006583FM-12+043599999V0200601N000519999999N9999999N1+00681+00611100551ADDMA1999999095381REMSYN066AAXX  25054 06618 43/// /0601 10068 20061 39538 40055 5//// 90440;
0122066180999992011102506004+46750+006583FM-12+043599999V0201801N000519999999N9999999N1+00711+00631100601ADDKA1999N+00501MA1999999095431REMSYN082AAXX  25064 06618 43/// /1801 10071 20063 39543 40060 5//// 90540 333 20050 55027;
0093066180999992011102507004+46750+006583FM-12+043599999V0203501N002119999999N9999999N1+00711+00671100571ADDMA1999999095401REMSYN066AAXX  25074 06618 43/// /3504 10071 20067 39540 40057 5//// 90640;
0093066180999992011102508004+46750+006583FM-12+043599999V0201101N001019999999N9999999N1+00801+00691100581ADDMA1999999095431REMSYN066AAXX  25084 06618 43/// /1102 10080 20069 39543 40058 5//// 90740;
0093066180999992011102509004+46750+006583FM-12+043599999V0201601N000519999999N9999999N1+00871+00731100561ADDMA1999999095421REMSYN066AAXX  25094 06618 43/// /1601 10087 20073 39542 40056 5//// 90840;
0093066180999992011102510004+46750+006583FM-12+043599999V0200201N001019999999N9999999N1+00921+00801100561ADDMA1999999095431REMSYN066AAXX  25104 06618 43/// /0202 10092 20080 39543 40056 5//// 90940;
0093066180999992011102511004+46750+006583FM-12+043599999V0200401N001019999999N9999999N1+01051+00821100551ADDMA1999999095441REMSYN066AAXX  25114 06618 43/// /0402 10105 20082 39544 40055 5//// 91040;
0093066180999992011102512004+46750+006583FM-12+043599999V0200601N001519999999N9999999N1+01101+00791100511ADDMA1999999095421REMSYN066AAXX  25124 06618 43/// /0603 10110 20079 39542 40051 5//// 91140;
0093066180999992011102513004+46750+006583FM-12+043599999V0200401N001019999999N9999999N1+01141+00781100481ADDMA1999999095391REMSYN066AAXX  25134 06618 43/// /0402 10114 20078 39539 40048 5//// 91240;
0093066180999992011102514004+46750+006583FM-12+043599999V0200301N000519999999N9999999N1+01161+00821100461ADDMA1999999095381REMSYN066AAXX  25144 06618 43/// /0301 10116 20082 39538 40046 5//// 91340;
0093066180999992011102515004+46750+006583FM-12+043599999V0202301N001019999999N9999999N1+01211+00861100501ADDMA1999999095431REMSYN066AAXX  25154 06618 43/// /2302 10121 20086 39543 40050 5//// 91440;
0093066180999992011102516004+46750+006583FM-12+043599999V0202801N001019999999N9999999N1+01211+00901100551ADDMA1999999095471REMSYN066AAXX  25164 06618 43/// /2802 10121 20090 39547 40055 5//// 91540;
0093066180999992011102517004+46750+006583FM-12+043599999V0202201N001019999999N9999999N1+01111+00921100651ADDMA1999999095551REMSYN066AAXX  25174 06618 43/// /2202 10111 20092 39555 40065 5//// 91640;
0116066180999992011102518004+46750+006583FM-12+043599999V0202501N001519999999N9999999N1+01061+00901100781ADDKA1999M+01211MA1999999095661REMSYN076AAXX  25184 06618 43/// /2503 10106 20090 39566 40078 5//// 91740 333 10121;
0107066180999992011102519004+46750+006583FM-12+043599999V0202301N003619999999N9999999N1+01051+00921100891ADDMA1999999095771MD1219999+9999REMSYN066AAXX  25194 06618 43/// /2307 10105 20092 39577 40089 52/// 91840;
0107066180999992011102520004+46750+006583FM-12+043599999V0202101N002119999999N9999999N1+01021+00911100971ADDMA1999999095841MD1219999+9999REMSYN066AAXX  25204 06618 43/// /2104 10102 20091 39584 40097 52/// 91940;
0093066180999992011102521004+46750+006583FM-12+043599999V0202301N002119999999N9999999N1+01041+00941101151ADDMA1999999096011REMSYN066AAXX  25214 06618 43/// /2304 10104 20094 39601 40115 5//// 92040;
0107066180999992011102522004+46750+006583FM-12+043599999V0202201N002619999999N9999999N1+01051+00691101211ADDMA1999999096071MD1119999+9999REMSYN066AAXX  25224 06618 43/// /2205 10105 20069 39607 40121 51/// 92140;
0093066180999992011102523004+46750+006583FM-12+043599999V0201901N002619999999N9999999N1+00961+00681101271ADDMA1999999096111REMSYN066AAXX  25234 06618 43/// /1905 10096 20068 39611 40127 5//// 92240;
0093066180999992011102600004+46750+006583FM-12+043599999V0202501N001519999999N9999999N1+00931+00791101381ADDMA1999999096211REMSYN066AAXX  26004 06618 43/// /2503 10093 20079 39621 40138 5//// 92340;
0093066180999992011102601004+46750+006583FM-12+043599999V0202401N000519999999N9999999N1+00891+00771101441ADDMA1999999096261REMSYN066AAXX  26014 06618 43/// /2401 10089 20077 39626 40144 5//// 90040;
0093066180999992011102602004+46750+006583FM-12+043599999V0203101N001019999999N9999999N1+00831+00721101451ADDMA1999999096261REMSYN066AAXX  26024 06618 43/// /3102 10083 20072 39626 40145 5//// 90140;
0093066180999992011102603004+46750+006583FM-12+043599999V0209999C000019999999N9999999N1+00751+00701101491ADDMA1999999096281REMSYN066AAXX  26034 06618 43/// /0000 10075 20070 39628 40149 5//// 90240;
0093066180999992011102604004+46750+006583FM-12+043599999V0202001N001019999999N9999999N1+00581+00571101561ADDMA1999999096321REMSYN066AAXX  26044 06618 43/// /2002 10058 20057 39632 40156 5//// 90340;
0093066180999992011102605004+46750+006583FM-12+043599999V0203001N001019999999N9999999N1+00551+00521101601ADDMA1999999096351REMSYN066AAXX  26054 06618 43/// /3002 10055 20052 39635 40160 5//// 90440;
0101066180999992011102606004+46750+006583FM-12+043599999V02099999999999999999N9999999N1+99999+99999999999ADDAA124002891GJ100309REMSYN070AAXX  26064 06618 43/// ///// 1//// 2//// 3//// 5//// 333 55005 70028;
0093066180999992011102608004+46750+006583FM-12+043599999V0209999C000019999999N9999999N1+00521+00501101811ADDMA1999999096541REMSYN066AAXX  26084 06618 43/// /0000 10052 20050 39654 40181 5//// 90740;
0093066180999992011102609004+46750+006583FM-12+043599999V0203001N000519999999N9999999N1+00831+00631101781ADDMA1999999096571REMSYN066AAXX  26094 06618 43/// /3001 10083 20063 39657 40178 5//// 90840;
0107066180999992011102610004+46750+006583FM-12+043599999V0203101N000519999999N9999999N1+01041+00691101771ADDMA1999999096601MD1119999+9999REMSYN066AAXX  26104 06618 43/// /3101 10104 20069 39660 40177 51/// 90940;
0093066180999992011102611004+46750+006583FM-12+043599999V0201101N001019999999N9999999N1+01231+00771101731ADDMA1999999096601REMSYN066AAXX  26114 06618 43/// /1102 10123 20077 39660 40173 5//// 91040;
0093066180999992011102612004+46750+006583FM-12+043599999V0201801N000519999999N9999999N1+01291+00641101681ADDMA1999999096561REMSYN066AAXX  26124 06618 43/// /1801 10129 20064 39656 40168 5//// 91140;
0107066180999992011102613004+46750+006583FM-12+043599999V0200701N001519999999N9999999N1+01341+00711101651ADDMA1999999096541MD1819999+9999REMSYN066AAXX  26134 06618 43/// /0703 10134 20071 39654 40165 58/// 91240;
0093066180999992011102614004+46750+006583FM-12+043599999V0200401N002119999999N9999999N1+01351+00631101601ADDMA1999999096501REMSYN066AAXX  26144 06618 43/// /0404 10135 20063 39650 40160 5//// 91340;
0093066180999992011102615004+46750+006583FM-12+043599999V0200401N003119999999N9999999N1+01331+00571101591ADDMA1999999096481REMSYN066AAXX  26154 06618 43/// /0406 10133 20057 39648 40159 5//// 91440;
0107066180999992011102616004+46750+006583FM-12+043599999V0200601N001519999999N9999999N1+01291+00501101581ADDMA1999999096471MD1719999+9999REMSYN066AAXX  26164 06618 43/// /0603 10129 20050 39647 40158 57/// 91540;
0093066180999992011102617004+46750+006583FM-12+043599999V0209999C000019999999N9999999N1+00991+00571101691ADDMA1999999096521REMSYN066AAXX  26174 06618 43/// /0000 10099 20057 39652 40169 5//// 91640;
0116066180999992011102618004+46750+006583FM-12+043599999V0202401N000519999999N9999999N1+00571+00491101811ADDKA1999M+01411MA1999999096551REMSYN076AAXX  26184 06618 43/// /2401 10057 20049 39655 40181 5//// 91740 333 10141;
0107066180999992011102619004+46750+006583FM-12+043599999V0202301N001019999999N9999999N1+00611+00491101791ADDMA1999999096541MD1219999+9999REMSYN066AAXX  26194 06618 43/// /2302 10061 20049 39654 40179 52/// 91840;
0093066180999992011102620004+46750+006583FM-12+043599999V0202501N000519999999N9999999N1+00281+00281101861ADDMA1999999096541REMSYN066AAXX  26204 06618 43/// /2501 10028 20028 39654 40186 5//// 91940;
0093066180999992011102621004+46750+006583FM-12+043599999V0209999C000019999999N9999999N1+00291+00281101871ADDMA1999999096551REMSYN066AAXX  26214 06618 43/// /0000 10029 20028 39655 40187 5//// 92040;
0107066180999992011102622004+46750+006583FM-12+043599999V0209999C000019999999N9999999N1+00281+00271101901ADDMA1999999096581MD1219999+9999REMSYN066AAXX  26224 06618 43/// /0000 10028 20027 39658 40190 52/// 92140;
0107066180999992011102623004+46750+006583FM-12+043599999V0202101N000519999999N9999999N1+00091+00091101931ADDMA1999999096571MD1019999+9999REMSYN066AAXX  26234 06618 43/// /2101 10009 20009 39657 40193 50/// 92240;
0093066180999992011102700004+46750+006583FM-12+043599999V0209999C000019999999N9999999N1+00081+00071101931ADDMA1999999096571REMSYN066AAXX  27004 06618 43/// /0000 10008 20007 39657 40193 5//// 92340;
0107066180999992011102701004+46750+006583FM-12+043599999V0209999C000019999999N9999999N1+00051+00041101941ADDMA1999999096571MD1719999+9999REMSYN066AAXX  27014 06618 43/// /0000 10005 20004 39657 40194 57/// 90040;
0093066180999992011102702004+46750+006583FM-12+043599999V0202901N000519999999N9999999N1-00071-00081101961ADDMA1999999096571REMSYN066AAXX  27024 06618 43/// /2901 11007 21008 39657 40196 5//// 90140;
0093066180999992011102703004+46750+006583FM-12+043599999V0209999C000019999999N9999999N1+00031+00001101901ADDMA1999999096531REMSYN066AAXX  27034 06618 43/// /0000 10003 20000 39653 40190 5//// 90240;
0107066180999992011102704004+46750+006583FM-12+043599999V0209999C000019999999N9999999N1+00051+00041101861ADDMA1999999096501MD1719999+9999REMSYN066AAXX  27044 06618 43/// /0000 10005 20004 39650 40186 57/// 90340;
0107066180999992011102705004+46750+006583FM-12+043599999V0203101N000519999999N9999999N1+00141+00061101841ADDMA1999999096501MD1719999+9999REMSYN066AAXX  27054 06618 43/// /3101 10014 20006 39650 40184 57/// 90440;
0147066180999992011102706004+46750+006583FM-12+043599999V0202101N001019999999N9999999N1+00241+00171101841ADDAA124000391GJ105409KA1999N-00071MA1999999096521REMSYN088AAXX  27064 06618 43/// /2102 10024 20017 39652 40184 5//// 90540 333 21007 55090 70002;
0107066180999992011102707004+46750+006583FM-12+043599999V0201001N000519999999N9999999N1+00441+00391101781ADDMA1999999096501MD1019999+9999REMSYN066AAXX  27074 06618 43/// /1001 10044 20039 39650 40178 50/// 90640;
0093066180999992011102708004+46750+006583FM-12+043599999V0203401N000519999999N9999999N1+00691+00571101791ADDMA1999999096551REMSYN066AAXX  27084 06618 43/// /3401 10069 20057 39655 40179 5//// 90740;
0093066180999992011102709004+46750+006583FM-12+043599999V0200301N001019999999N9999999N1+00721+00621101811ADDMA1999999096581REMSYN066AAXX  27094 06618 43/// /0302 10072 20062 39658 40181 5//// 90840;
0107066180999992011102710004+46750+006583FM-12+043599999V0200601N001019999999N9999999N1+00781+00671101811ADDMA1999999096591MD1219999+9999REMSYN066AAXX  27104 06618 43/// /0602 10078 20067 39659 40181 52/// 90940;
0093066180999992011102711004+46750+006583FM-12+043599999V0200701N001519999999N9999999N1+00841+00671101791ADDMA1999999096581REMSYN066AAXX  27114 06618 43/// /0703 10084 20067 39658 40179 5//// 91040;
0093066180999992011102712004+46750+006583FM-12+043599999V0209999C000019999999N9999999N1+00881+00661101811ADDMA1999999096611REMSYN066AAXX  27124 06618 43/// /0000 10088 20066 39661 40181 5//// 91140;
0107066180999992011102713004+46750+006583FM-12+043599999V0200601N001519999999N9999999N1+00941+00651101771ADDMA1999999096581MD1719999+9999REMSYN066AAXX  27134 06618 43/// /0603 10094 20065 39658 40177 57/// 91240;
0093066180999992011102714004+46750+006583FM-12+043599999V0200701N001519999999N9999999N1+01031+00661101741ADDMA1999999096571REMSYN066AAXX  27144 06618 43/// /0703 10103 20066 39657 40174 5//// 91340;
0093066180999992011102715004+46750+006583FM-12+043599999V0200601N002619999999N9999999N1+01011+00701101751ADDMA1999999096581REMSYN066AAXX  27154 06618 43/// /0605 10101 20070 39658 40175 5//// 91440;
0107066180999992011102716004+46750+006583FM-12+043599999V0200301N002619999999N9999999N1+00911+00661101811ADDMA1999999096611MD1319999+9999REMSYN066AAXX  27164 06618 43/// /0305 10091 20066 39661 40181 53/// 91540;
0093066180999992011102717004+46750+006583FM-12+043599999V0209999C001019999999N9999999N1+00761+00631101861ADDMA1999999096631REMSYN066AAXX  27174 06618 43/// /0002 10076 20063 39663 40186 5//// 91640;
0116066180999992011102718004+46750+006583FM-12+043599999V0203401N001019999999N9999999N1+00661+00561101971ADDKA1999M+01061MA1999999096721REMSYN076AAXX  27184 06618 43/// /3402 10066 20056 39672 40197 5//// 91740 333 10106;
0107066180999992011102719004+46750+006583FM-12+043599999V0203401N000519999999N9999999N1+00571+00481102041ADDMA1999999096771MD1219999+9999REMSYN066AAXX  27194 06618 43/// /3401 10057 20048 39677 40204 52/// 91840;
0093066180999992011102720004+46750+006583FM-12+043599999V0209999C000019999999N9999999N1+00551+00511102101ADDMA1999999096821REMSYN066AAXX  27204 06618 43/// /0000 10055 20051 39682 40210 5//// 91940;
0093066180999992011102721004+46750+006583FM-12+043599999V0200101N000519999999N9999999N1+00601+00551102141ADDMA1999999096871REMSYN066AAXX  27214 06618 43/// /0101 10060 20055 39687 40214 5//// 92040;
0107066180999992011102722004+46750+006583FM-12+043599999V0200201N000519999999N9999999N1+00601+00551102161ADDMA1999999096891MD1219999+9999REMSYN066AAXX  27224 06618 43/// /0201 10060 20055 39689 40216 52/// 92140;
0093066180999992011102723004+46750+006583FM-12+043599999V0200301N001019999999N9999999N1+00561+00521102231ADDMA1999999096951REMSYN066AAXX  27234 06618 43/// /0302 10056 20052 39695 40223 5//// 92240;
0093066180999992011102800004+46750+006583FM-12+043599999V0200501N000519999999N9999999N1+00561+00521102281ADDMA1999999096991REMSYN066AAXX  28004 06618 43/// /0501 10056 20052 39699 40228 5//// 92340;
0107066180999992011102801004+46750+006583FM-12+043599999V0203401N000519999999N9999999N1+00611+00581102351ADDMA1999999097071MD1219999+9999REMSYN066AAXX  28014 06618 43/// /3401 10061 20058 39707 40235 52/// 90040;
0107066180999992011102802004+46750+006583FM-12+043599999V0201101N000519999999N9999999N1+00541+00511102431ADDMA1999999097131MD1219999+9999REMSYN066AAXX  28024 06618 43/// /1101 10054 20051 39713 40243 52/// 90140;
0093066180999992011102803004+46750+006583FM-12+043599999V0202101N001019999999N9999999N1+00461+00421102431ADDMA1999999097121REMSYN066AAXX  28034 06618 43/// /2102 10046 20042 39712 40243 5//// 90240;
0107066180999992011102804004+46750+006583FM-12+043599999V0209999C000019999999N9999999N1+00521+00491102461ADDMA1999999097161MD1219999+9999REMSYN066AAXX  28044 06618 43/// /0000 10052 20049 39716 40246 52/// 90340;
0107066180999992011102805004+46750+006583FM-12+043599999V0203001N000519999999N9999999N1+00541+00501102531ADDMA1999999097231MD1319999+9999REMSYN066AAXX  28054 06618 43/// /3001 10054 20050 39723 40253 53/// 90440;
0166066180999992011102806004+46750+006583FM-12+043599999V0203001N001019999999N9999999N1+00561+00521102551ADDAA124000091GJ101509KA1999N+00401MA1999999097251REMSYN088AAXX  28064 06618 43/// /3002 10056 20052 39725 40255 5//// 90540 333 20040 55025 70000;EQDQ01  00002PRCP24
0107066180999992011102807004+46750+006583FM-12+043599999V0200401N000519999999N9999999N1+00621+00571102591ADDMA1999999097301MD1219999+9999REMSYN066AAXX  28074 06618 43/// /0401 10062 20057 39730 40259 52/// 90640;
0093066180999992011102808004+46750+006583FM-12+043599999V0209999C000019999999N9999999N1+00711+00651102671ADDMA1999999097391REMSYN066AAXX  28084 06618 43/// /0000 10071 20065 39739 40267 5//// 90740;
0093066180999992011102809004+46750+006583FM-12+043599999V0200301N001019999999N9999999N1+00911+00781102711ADDMA1999999097471REMSYN066AAXX  28094 06618 43/// /0302 10091 20078 39747 40271 5//// 90840;
0107066180999992011102810004+46750+006583FM-12+043599999V0200401N002619999999N9999999N1+00911+00771102751ADDMA1999999097511MD1219999+9999REMSYN066AAXX  28104 06618 43/// /0405 10091 20077 39751 40275 52/// 90940;
0093066180999992011102811004+46750+006583FM-12+043599999V0200301N001519999999N9999999N1+01071+00851102751ADDMA1999999097541REMSYN066AAXX  28114 06618 43/// /0303 10107 20085 39754 40275 5//// 91040;
0093066180999992011102812004+46750+006583FM-12+043599999V0200501N001519999999N9999999N1+01161+00741102711ADDMA1999999097511REMSYN066AAXX  28124 06618 43/// /0503 10116 20074 39751 40271 5//// 91140;
0107066180999992011102813004+46750+006583FM-12+043599999V0200601N001019999999N9999999N1+01211+00751102711ADDMA1999999097521MD1019999+9999REMSYN066AAXX  28134 06618 43/// /0602 10121 20075 39752 40271 50/// 91240;
0093066180999992011102814004+46750+006583FM-12+043599999V0200701N002119999999N9999999N1+01211+00701102661ADDMA1999999097481REMSYN066AAXX  28144 06618 43/// /0704 10121 20070 39748 40266 5//// 91340;
0093066180999992011102815004+46750+006583FM-12+043599999V0200501N002119999999N9999999N1+01251+00771102661ADDMA1999999097481REMSYN066AAXX  28154 06618 43/// /0504 10125 20077 39748 40266 5//// 91440;
0107066180999992011102816004+46750+006583FM-12+043599999V0200501N001519999999N9999999N1+01191+00791102671ADDMA1999999097481MD1719999+9999REMSYN066AAXX  28164 06618 43/// /0503 10119 20079 39748 40267 57/// 91540;
0093066180999992011102817004+46750+006583FM-12+043599999V0200101N001019999999N9999999N1+01011+00741102741ADDMA1999999097521REMSYN066AAXX  28174 06618 43/// /0102 10101 20074 39752 40274 5//// 91640;
0093066180999992011102818004+46750+006583FM-12+043599999V0203501N000519999999N9999999N1+00661+00591102861ADDMA1999999097561REMSYN066AAXX  28184 06618 43/// /3501 10066 20059 39756 40286 5//// 91740;
0107066180999992011102819004+46750+006583FM-12+043599999V0202101N001019999999N9999999N1+00681+00611102891ADDMA1999999097601MD1319999+9999REMSYN066AAXX  28194 06618 43/// /2102 10068 20061 39760 40289 53/// 91840;
0093066180999992011102820004+46750+006583FM-12+043599999V0209999C000019999999N9999999N1+00681+00621102921ADDMA1999999097621REMSYN066AAXX  28204 06618 43/// /0000 10068 20062 39762 40292 5//// 91940;
0093066180999992011102821004+46750+006583FM-12+043599999V0202401N000519999999N9999999N1+00691+00611102931ADDMA1999999097641REMSYN066AAXX  28214 06618 43/// /2401 10069 20061 39764 40293 5//// 92040;
0107066180999992011102822004+46750+006583FM-12+043599999V0209999C000019999999N9999999N1+00731+00641102921ADDMA1999999097631MD1219999+9999REMSYN066AAXX  28224 06618 43/// /0000 10073 20064 39763 40292 52/// 92140;
0107066180999992011102823004+46750+006583FM-12+043599999V0201301N001019999999N9999999N1+00741+00671102911ADDMA1999999097631MD1219999+9999REMSYN066AAXX  28234 06618 43/// /1302 10074 20067 39763 40291 52/// 92240;
0093066180999992011102900004+46750+006583FM-12+043599999V0202601N001019999999N9999999N1+00691+00631102911ADDMA1999999097621REMSYN066AAXX  29004 06618 43/// /2602 10069 20063 39762 40291 5//// 92340;
0093066180999992011102901004+46750+006583FM-12+043599999V0201401N001019999999N9999999N1+00681+00641102921ADDMA1999999097621REMSYN066AAXX  29014 06618 43/// /1402 10068 20064 39762 40292 5//// 90040;
0093066180999992011102902004+46750+006583FM-12+043599999V0201401N000519999999N9999999N1+00701+00651102901ADDMA1999999097611REMSYN066AAXX  29024 06618 43/// /1401 10070 20065 39761 40290 5//// 90140;
0093066180999992011102903004+46750+006583FM-12+043599999V0209999C000019999999N9999999N1+00681+00631102871ADDMA1999999097581REMSYN066AAXX  29034 06618 43/// /0000 10068 20063 39758 40287 5//// 90240;
0107066180999992011102904004+46750+006583FM-12+043599999V0201901N000519999999N9999999N1+00681+00641102861ADDMA1999999097571MD1719999+9999REMSYN066AAXX  29044 06618 43/// /1901 10068 20064 39757 40286 57/// 90340;
0093066180999992011102905004+46750+006583FM-12+043599999V0202601N000519999999N9999999N1+00731+00671102881ADDMA1999999097601REMSYN066AAXX  29054 06618 43/// /2601 10073 20067 39760 40288 5//// 90440;
0166066180999992011102906004+46750+006583FM-12+043599999V0201001N001019999999N9999999N1+00661+00621102871ADDAA124000091GJ101029KA1999N+00501MA1999999097571REMSYN088AAXX  29064 06618 43/// /1002 10066 20062 39757 40287 5//// 90540 333 20050 55017 70000;EQDQ01  00002PRCP24
0107066180999992011102907004+46750+006583FM-12+043599999V0209999C000019999999N9999999N1+00651+00601102921ADDMA1999999097621MD1219999+9999REMSYN066AAXX  29074 06618 43/// /0000 10065 20060 39762 40292 52/// 90640;
0107066180999992011102908004+46750+006583FM-12+043599999V0209999C000019999999N9999999N1+00811+00751102901ADDMA1999999097631MD1319999+9999REMSYN066AAXX  29084 06618 43/// /0000 10081 20075 39763 40290 53/// 90740;
0093066180999992011102909004+46750+006583FM-12+043599999V0209999C000019999999N9999999N1+00991+00861102841ADDMA1999999097611REMSYN066AAXX  29094 06618 43/// /0000 10099 20086 39761 40284 5//// 90840;
0107066180999992011102910004+46750+006583FM-12+043599999V0200801N001019999999N9999999N1+01181+00891102761ADDMA1999999097571MD1819999+9999REMSYN066AAXX  29104 06618 43/// /0802 10118 20089 39757 40276 58/// 90940;
0107066180999992011102911004+46750+006583FM-12+043599999V0200601N001019999999N9999999N1+01321+00851102731ADDMA1999999097561MD1719999+9999REMSYN066AAXX  29114 06618 43/// /0602 10132 20085 39756 40273 57/// 91040;
0093066180999992011102912004+46750+006583FM-12+043599999V0202301N000519999999N9999999N1+01381+00791102651ADDMA1999999097501REMSYN066AAXX  29124 06618 43/// /2301 10138 20079 39750 40265 5//// 91140;
0107066180999992011102913004+46750+006583FM-12+043599999V0202201N001019999999N9999999N1+01541+00801102561ADDMA1999999097441MD1819999+9999REMSYN066AAXX  29134 06618 43/// /2202 10154 20080 39744 40256 58/// 91240;
0093066180999992011102914004+46750+006583FM-12+043599999V0202301N001019999999N9999999N1+01591+00751102511ADDMA1999999097401REMSYN066AAXX  29144 06618 43/// /2302 10159 20075 39740 40251 5//// 91340;
0093066180999992011102915004+46750+006583FM-12+043599999V0202201N002619999999N9999999N1+01481+00881102541ADDMA1999999097411REMSYN066AAXX  29154 06618 43/// /2205 10148 20088 39741 40254 5//// 91440;
0107066180999992011102916004+46750+006583FM-12+043599999V0202201N002619999999N9999999N1+01391+00761102541ADDMA1999999097401MD1719999+9999REMSYN066AAXX  29164 06618 43/// /2205 10139 20076 39740 40254 57/// 91540;
0093066180999992011102917004+46750+006583FM-12+043599999V0202401N001019999999N9999999N1+01261+00801102561ADDMA1999999097391REMSYN066AAXX  29174 06618 43/// /2402 10126 20080 39739 40256 5//// 91640;
0116066180999992011102918004+46750+006583FM-12+043599999V0203001N000519999999N9999999N1+01211+00761102591ADDKA1999M+01601MA1999999097411REMSYN076AAXX  29184 06618 43/// /3001 10121 20076 39741 40259 5//// 91740 333 10160;
0107066180999992011102919004+46750+006583FM-12+043599999V0201601N000519999999N9999999N1+01121+00891102641ADDMA1999999097441MD1219999+9999REMSYN066AAXX  29194 06618 43/// /1601 10112 20089 39744 40264 52/// 91840;
0093066180999992011102920004+46750+006583FM-12+043599999V0209999C000019999999N9999999N1+01071+00811102661ADDMA1999999097451REMSYN066AAXX  29204 06618 43/// /0000 10107 20081 39745 40266 5//// 91940;
0093066180999992011102921004+46750+006583FM-12+043599999V0202101N000519999999N9999999N1+00841+00731102701ADDMA1999999097451REMSYN066AAXX  29214 06618 43/// /2101 10084 20073 39745 40270 5//// 92040;
0107066180999992011102922004+46750+006583FM-12+043599999V0202501N000519999999N9999999N1+00901+00791102671ADDMA1999999097431MD1719999+9999REMSYN066AAXX  29224 06618 43/// /2501 10090 20079 39743 40267 57/// 92140;
0107066180999992011102923004+46750+006583FM-12+043599999V0202701N001019999999N9999999N1+00831+00761102661ADDMA1999999097411MD1719999+9999REMSYN066AAXX  29234 06618 43/// /2702 10083 20076 39741 40266 57/// 92240;
0093066180999992011103000004+46750+006583FM-12+043599999V0209999C000019999999N9999999N1+00851+00791102661ADDMA1999999097411REMSYN066AAXX  30004 06618 43/// /0000 10085 20079 39741 40266 5//// 92340;
0107066180999992011103001004+46750+006583FM-12+043599999V0209999C000019999999N9999999N1+00881+00791102651ADDMA1999999097411MD1719999+9999REMSYN066AAXX  30014 06618 43/// /0000 10088 20079 39741 40265 57/// 90040;
0107066180999992011103002004+46750+006583FM-12+043599999V0202901N000519999999N9999999N1+00901+00801102671ADDMA1999999097431MD1219999+9999REMSYN066AAXX  30024 06618 43/// /2901 10090 20080 39743 40267 52/// 90140;
0093066180999992011103003004+46750+006583FM-12+043599999V0201601N000519999999N9999999N1+00921+00831102651ADDMA1999999097411REMSYN066AAXX  30034 06618 43/// /1601 10092 20083 39741 40265 5//// 90240;
0107066180999992011103004004+46750+006583FM-12+043599999V0203201N000519999999N9999999N1+00961+00841102611ADDMA1999999097381MD1719999+9999REMSYN066AAXX  30044 06618 43/// /3201 10096 20084 39738 40261 57/// 90340;
0107066180999992011103005004+46750+006583FM-12+043599999V0209999C000019999999N9999999N1+00941+00851102581ADDMA1999999097351MD1719999+9999REMSYN066AAXX  30054 06618 43/// /0000 10094 20085 39735 40258 57/// 90440;
0166066180999992011103006004+46750+006583FM-12+043599999V0200401N000519999999N9999999N1+00941+00851102581ADDAA124000091GJ103549KA1999N+00791MA1999999097351REMSYN088AAXX  30064 06618 43/// /0401 10094 20085 39735 40258 5//// 90540 333 20079 55059 70000;EQDQ01  00002PRCP24
0107066180999992011103007004+46750+006583FM-12+043599999V0200101N000519999999N9999999N1+00961+00861102591ADDMA1999999097361MD1519999+9999REMSYN066AAXX  30074 06618 43/// /0101 10096 20086 39736 40259 55/// 90640;
0093066180999992011103008004+46750+006583FM-12+043599999V0200201N000519999999N9999999N1+01081+00971102631ADDMA1999999097421REMSYN066AAXX  30084 06618 43/// /0201 10108 20097 39742 40263 5//// 90740;
0093066180999992011103009004+46750+006583FM-12+043599999V0200601N001019999999N9999999N1+01171+00981102621ADDMA1999999097431REMSYN066AAXX  30094 06618 43/// /0602 10117 20098 39743 40262 5//// 90840;
0107066180999992011103010004+46750+006583FM-12+043599999V0200501N002119999999N9999999N1+01241+00941102591ADDMA1999999097421MD1019999+9999REMSYN066AAXX  30104 06618 43/// /0504 10124 20094 39742 40259 50/// 90940;
0093066180999992011103011004+46750+006583FM-12+043599999V0200701N001519999999N9999999N1+01271+00931102581ADDMA1999999097411REMSYN066AAXX  30114 06618 43/// /0703 10127 20093 39741 40258 5//// 91040;
0093066180999992011103012004+46750+006583FM-12+043599999V0200401N002619999999N9999999N1+01361+00921102491ADDMA1999999097341REMSYN066AAXX  30124 06618 43/// /0405 10136 20092 39734 40249 5//// 91140;
0107066180999992011103013004+46750+006583FM-12+043599999V0200301N003119999999N9999999N1+01381+00891102441ADDMA1999999097301MD1719999+9999REMSYN066AAXX  30134 06618 43/// /0306 10138 20089 39730 40244 57/// 91240;
0093066180999992011103014004+46750+006583FM-12+043599999V0200501N002619999999N9999999N1+01491+00891102351ADDMA1999999097231REMSYN066AAXX  30144 06618 43/// /0505 10149 20089 39723 40235 5//// 91340;
0093066180999992011103015004+46750+006583FM-12+043599999V0200201N002119999999N9999999N1+01471+00861102321ADDMA1999999097201REMSYN066AAXX  30154 06618 43/// /0204 10147 20086 39720 40232 5//// 91440;
0107066180999992011103016004+46750+006583FM-12+043599999V0200401N001019999999N9999999N1+01411+00871102321ADDMA1999999097191MD1719999+9999REMSYN066AAXX  30164 06618 43/// /0402 10141 20087 39719 40232 57/// 91540;
0093066180999992011103017004+46750+006583FM-12+043599999V0200701N000519999999N9999999N1+01211+00921102351ADDMA1999999097181REMSYN066AAXX  30174 06618 43/// /0701 10121 20092 39718 40235 5//// 91640;
0093066180999992011103018004+46750+006583FM-12+043599999V0200701N000519999999N9999999N1+01001+00891102411ADDMA1999999097201REMSYN066AAXX  30184 06618 43/// /0701 10100 20089 39720 40241 5//// 91740;
0093066180999992011103019004+46750+006583FM-12+043599999V0209999C000019999999N9999999N1+01041+00891102401ADDMA1999999097201REMSYN066AAXX  30194 06618 43/// /0000 10104 20089 39720 40240 5//// 91840;
0093066180999992011103020004+46750+006583FM-12+043599999V0201501N000519999999N9999999N1+01011+00881102401ADDMA1999999097191REMSYN066AAXX  30204 06618 43/// /1501 10101 20088 39719 40240 5//// 91940;
0093066180999992011103021004+46750+006583FM-12+043599999V0209999C000019999999N9999999N1+00871+00811102441ADDMA1999999097201REMSYN066AAXX  30214 06618 43/// /0000 10087 20081 39720 40244 5//// 92040;
0107066180999992011103022004+46750+006583FM-12+043599999V0209999C000019999999N9999999N1+00961+00871102391ADDMA1999999097171MD1719999+9999REMSYN066AAXX  30224 06618 43/// /0000 10096 20087 39717 40239 57/// 92140;
0107066180999992011103023004+46750+006583FM-12+043599999V0209999C000019999999N9999999N1+00861+00821102391ADDMA1999999097161MD1819999+9999REMSYN066AAXX  30234 06618 43/// /0000 10086 20082 39716 40239 58/// 92240;
0093066180999992011103100004+46750+006583FM-12+043599999V0209999C000019999999N9999999N1+00821+00771102401ADDMA1999999097161REMSYN066AAXX  31004 06618 43/// /0000 10082 20077 39716 40240 5//// 92340;
0107066180999992011103101004+46750+006583FM-12+043599999V0201001N000519999999N9999999N1+00581+00581102441ADDMA1999999097151MD1619999+9999REMSYN066AAXX  31014 06618 43/// /1001 10058 20058 39715 40244 56/// 90040;
0107066180999992011103102004+46750+006583FM-12+043599999V0209999C000019999999N9999999N1+00631+00611102401ADDMA1999999097121MD1819999+9999REMSYN066AAXX  31024 06618 43/// /0000 10063 20061 39712 40240 58/// 90140;
0093066180999992011103103004+46750+006583FM-12+043599999V0201401N000519999999N9999999N1+00761+00721102301ADDMA1999999097051REMSYN066AAXX  31034 06618 43/// /1401 10076 20072 39705 40230 5//// 90240;
0107066180999992011103104004+46750+006583FM-12+043599999V0201201N000519999999N9999999N1+00711+00671102311ADDMA1999999097051MD1719999+9999REMSYN066AAXX  31044 06618 43/// /1201 10071 20067 39705 40231 57/// 90340;
0107066180999992011103105004+46750+006583FM-12+043599999V0200601N000519999999N9999999N1+00741+00701102291ADDMA1999999097041MD1719999+9999REMSYN066AAXX  31054 06618 43/// /0601 10074 20070 39704 40229 57/// 90440;
0166066180999992011103106004+46750+006583FM-12+043599999V0200101N000519999999N9999999N1+00831+00791102261ADDAA124000091GJ100789KA1999N+00581MA1999999097031REMSYN088AAXX  31064 06618 43/// /0101 10083 20079 39703 40226 5//// 90540 333 20058 55013 70000;EQDQ01  00002PRCP24
0107066180999992011103107004+46750+006583FM-12+043599999V0200701N000519999999N9999999N1+00911+00851102271ADDMA1999999097051MD1519999+9999REMSYN066AAXX  31074 06618 43/// /0701 10091 20085 39705 40227 55/// 90640;
0093066180999992011103108004+46750+006583FM-12+043599999V0200501N001519999999N9999999N1+01011+00911102291ADDMA1999999097091REMSYN066AAXX  31084 06618 43/// /0503 10101 20091 39709 40229 5//// 90740;
0093066180999992011103109004+46750+006583FM-12+043599999V0200401N002119999999N9999999N1+01031+00891102291ADDMA1999999097091REMSYN066AAXX  31094 06618 43/// /0404 10103 20089 39709 40229 5//// 90840;
0107066180999992011103110004+46750+006583FM-12+043599999V0200901N001019999999N9999999N1+01081+00891102281ADDMA1999999097091MD1219999+9999REMSYN066AAXX  31104 06618 43/// /0902 10108 20089 39709 40228 52/// 90940;
0107066180999992011103111004+46750+006583FM-12+043599999V0200501N001019999999N9999999N1+01141+00901102231ADDMA1999999097061MD1719999+9999REMSYN066AAXX  31114 06618 43/// /0502 10114 20090 39706 40223 57/// 91040;
0093066180999992011103112004+46750+006583FM-12+043599999V0200601N001019999999N9999999N1+01261+00951102121ADDMA1999999096971REMSYN066AAXX  31124 06618 43/// /0602 10126 20095 39697 40212 5//// 91140;
0107066180999992011103113004+46750+006583FM-12+043599999V0200601N001019999999N9999999N1+01311+00911102031ADDMA1999999096901MD1819999+9999REMSYN066AAXX  31134 06618 43/// /0602 10131 20091 39690 40203 58/// 91240;
0093066180999992011103114004+46750+006583FM-12+043599999V0200601N001019999999N9999999N1+01341+00941101961ADDMA1999999096841REMSYN066AAXX  31144 06618 43/// /0602 10134 20094 39684 40196 5//// 91340;
0093066180999992011103115004+46750+006583FM-12+043599999V0200501N002119999999N9999999N1+01251+00961101961ADDMA1999999096821REMSYN066AAXX  31154 06618 43/// /0504 10125 20096 39682 40196 5//// 91440;
0107066180999992011103116004+46750+006583FM-12+043599999V0200701N001519999999N9999999N1+01181+00961101961ADDMA1999999096811MD1719999+9999REMSYN066AAXX  31164 06618 43/// /0703 10118 20096 39681 40196 57/// 91540;
