0130066140999992011010305504+46750+008117FM-15+0579LSMM V0201201N003610105019N0112651N1-00301-00701999999ADDGA1081+010501999GF108991999999999999999999MA1102101999999REMMET061METAR LSMM 030550Z 12007KT 9999 OVC035 M03/M07 Q1021 RMK WHT;
0153066140999992011010306504+46750+008117FM-15+0579LSMM V0200901N003610102019N0112651N1-00301-00801999999ADDGA1021+008701999GA2071+010201999GF107991999999999999999999MA1102101999999REMMET068METAR LSMM 030650Z 09007KT 9999 FEW029 BKN034 M03/M08 Q1021 RMK WHT;
0090066140999992011010309504+46750+008117FM-15+0579LSMM V0200801N003619999999Y0099001N1-00401-00901999999ADDMA1102101999999REMMET063METAR LSMM 030950Z 08007KT 340V140 CAVOK M04/M09 Q1021 RMK BLU;
0082066140999992011010311504+46750+008117FM-15+0579LSMM V0201001N003619999999Y0099001N1-01001-01201999999ADDMA1102001999999REMMET055METAR LSMM 031150Z 10007KT CAVOK M10/M12 Q1020 RMK BLU;
0090066140999992011010312504+46750+008117FM-15+0579LSMM V0200801N005119999999Y0099001N1-00301-00801999999ADDMA1101901999999REMMET063METAR LSMM 031250Z 08010KT 010V150 CAVOK M03/M08 Q1019 RMK BLU;
0090066140999992011010313504+46750+008117FM-15+0579LSMM V0200601N007219999999Y0099001N1-00201-00601999999ADDMA1101901999999REMMET063METAR LSMM 031350Z 06014KT 020V120 CAVOK M02/M06 Q1019 RMK BLU;
0127066140999992011010315504+46750+008117AUTO +0579LSMM V0200901N003612200019N0112651N1-00401-00901999999ADDGF100991999999999999999999MA1102001999999REMMET074METAR LSMM 031550Z AUTO 09007KT 020V140 9999NDV NCD M04/M09 Q1020 RMK BLU;
0119066140999992011010316504+46750+008117AUTO +0579LSMM V0201001N003612200019N0112651N1-01001-01201999999ADDGF100991999999999999999999MA1102001999999REMMET066METAR LSMM 031650Z AUTO 10007KT 9999NDV NCD M10/M12 Q1020 RMK BLU;
0119066140999992011010317504+46750+008117AUTO +0579LSMM V0200901N003612200019N0112651N1-00801-01001999999ADDGF100991999999999999999999MA1102001999999REMMET066METAR LSMM 031750Z AUTO 09007KT 9999NDV NCD M08/M10 Q1020 RMK BLU;
0119066140999992011010318504+46750+008117AUTO +0579LSMM V0201001N003612200019N0112651N1-00901-01101999999ADDGF100991999999999999999999MA1102001999999REMMET066METAR LSMM 031850Z AUTO 10007KT 9999NDV NCD M09/M11 Q1020 RMK BLU;
0119066140999992011010319504+46750+008117AUTO +0579LSMM V0201001N003112200019N0112651N1-00901-01201999999ADDGF100991999999999999999999MA1101901999999REMMET066METAR LSMM 031950Z AUTO 10006KT 9999NDV NCD M09/M12 Q1019 RMK BLU;
0119066140999992011010320504+46750+008117AUTO +0579LSMM V0209999V001012200019N0112651N1-01001-01201999999ADDGF100991999999999999999999MA1101901999999REMMET066METAR LSMM 032050Z AUTO VRB02KT 9999NDV NCD M10/M12 Q1019 RMK BLU;
0161066140999992011010321504+46750+008117AUTO +0579LSMM V0201101N002612200019N0112651N1-01201-01301999999ADDGA1021+042001999GA2041+054001999GF104991999999999999999999MA1102001999999REMMET076METAR LSMM 032150Z AUTO 11005KT 9999NDV FEW140 SCT180 M12/M13 Q1020 RMK BLU;
0138066140999992011010322504+46750+008117AUTO +0579LSMM V0201001N002612200019N0112651N1-01201-01301999999ADDGA1021+015001999GF102991999999999999999999MA1101901999999REMMET069METAR LSMM 032250Z AUTO 10005KT 9999NDV FEW058 M12/M13 Q1019 RMK BLU;
0161066140999992011010323504+46750+008117AUTO +0579LSMM V0209999V001010060019N0112651N1-01101-01201999999ADDGA1071+006001999GA2071+007501999GF107991999999999999999999MA1102001999999REMMET076METAR LSMM 032350Z AUTO VRB02KT 9999NDV BKN020 BKN025 M11/M12 Q1020 RMK WHT;
0161066140999992011010400504+46750+008117AUTO +0579LSMM V0200901N001510054019N0112651N1-00901-01001999999ADDGA1021+004801999GA2081+005401999GF108991999999999999999999MA1102001999999REMMET076METAR LSMM 040050Z AUTO 09003KT 9999NDV FEW016 OVC018 M09/M10 Q1020 RMK GRN;
0138066140999992011010401504+46750+008117AUTO +0579LSMM V0201101N002610057019N0112651N1-00801-01001999999ADDGA1081+005701999GF108991999999999999999999MA1101901999999REMMET069METAR LSMM 040150Z AUTO 11005KT 9999NDV OVC019 M08/M10 Q1019 RMK GRN;
0138066140999992011010402504+46750+008117AUTO +0579LSMM V0209999C000010057019N0112651N1-00901-01101999999ADDGA1071+005701999GF107991999999999999999999MA1101901999999REMMET069METAR LSMM 040250Z AUTO 00000KT 9999NDV BKN019 M09/M11 Q1019 RMK GRN;
0161066140999992011010403504+46750+008117AUTO +0579LSMM V0201101N002612200019N0112651N1-01001-01201999999ADDGA1041+006001999GA2041+057001999GF104991999999999999999999MA1101901999999REMMET076METAR LSMM 040350Z AUTO 11005KT 9999NDV SCT020 SCT190 M10/M12 Q1019 RMK BLU;
0138066140999992011010404504+46750+008117AUTO +0579LSMM V0201001N001512200019N0112651N1-01101-01201999999ADDGA1021+063001999GF102991999999999999999999MA1101801999999REMMET069METAR LSMM 040450Z AUTO 10003KT 9999NDV FEW210 M11/M12 Q1018 RMK BLU;
0130066140999992011010405504+46750+008117FM-15+0579LSMM V0201301N002612200019N0112651N1-01001-01101999999ADDGA1021+066001999GF102991999999999999999999MA1101801999999REMMET061METAR LSMM 040550Z 13005KT 9999 FEW220 M10/M11 Q1018 RMK BLU;
0153066140999992011010406504+46750+008117FM-15+0579LSMM V0200901N001510660019N0112651N1-01101-01201999999ADDGA1041+045001999GA2071+066001999GF107991999999999999999999MA1101691999999REMMET068METAR LSMM 040650Z 09003KT 9999 SCT150 BKN220 M11/M12 Q1017 RMK WHT;
0130066140999992011010407504+46750+008117FM-15+0579LSMM V0209999V001010450019N0112651N1-01101-01201999999ADDGA1071+045001999GF107991999999999999999999MA1101691999999REMMET061METAR LSMM 040750Z VRB02KT 9999 BKN150 M11/M12 Q1017 RMK WHT;
0130066140999992011010408504+46750+008117FM-15+0579LSMM V0209999V000510450019N0112651N1-01001-01201999999ADDGA1071+045001999GF107991999999999999999999MA1101691999999REMMET061METAR LSMM 040850Z VRB01KT 9999 BKN150 M10/M12 Q1017 RMK WHT;
0130066140999992011010409504+46750+008117FM-15+0579LSMM V0209999C000010450019N0112651N1-00801-01001999999ADDGA1071+045001999GF107991999999999999999999MA1101691999999REMMET061METAR LSMM 040950Z 00000KT 9999 BKN150 M08/M10 Q1017 RMK WHT;
0138066140999992011010411504+46750+008117FM-15+0579LSMM V0202901N001512200019N0112651N1-00901-01101999999ADDGA1021+042001999GF102991999999999999999999MA1101591999999REMMET069METAR LSMM 041150Z 29003KT 240V310 9999 FEW140 M09/M11 Q1016 RMK BLU;
0130066140999992011010412504+46750+008117FM-15+0579LSMM V0209999V001010360019N0112651N1-00601-00901999999ADDGA1071+036001999GF107991999999999999999999MA1101491999999REMMET061METAR LSMM 041250Z VRB02KT 9999 BKN120 M06/M09 Q1015 RMK WHT;
0138066140999992011010413504+46750+008117FM-15+0579LSMM V0201101N002112200019N0112651N1-00601-00901999999ADDGA1041+036001999GF104991999999999999999999MA1101491999999REMMET069METAR LSMM 041350Z 11004KT 080V140 9999 SCT120 M06/M09 Q1015 RMK BLU;
0130066140999992011010414504+46750+008117FM-15+0579LSMM V0201101N002112200019N0112651N1-00601-00901999999ADDGA1021+036001999GF102991999999999999999999MA1101491999999REMMET061METAR LSMM 041450Z 11004KT 9999 FEW120 M06/M09 Q1015 RMK BLU;
0119066140999992011010415504+46750+008117AUTO +0579LSMM V0209999V001012200019N0112651N1-00701-00901999999ADDGF100991999999999999999999MA1101491999999REMMET066METAR LSMM 041550Z AUTO VRB02KT 9999NDV NCD M07/M09 Q1015 RMK BLU;
0119066140999992011010416504+46750+008117AUTO +0579LSMM V0209999V000512200019N0112651N1-00901-01001999999ADDGF100991999999999999999999MA1101491999999REMMET066METAR LSMM 041650Z AUTO VRB01KT 9999NDV NCD M09/M10 Q1015 RMK BLU;
0119066140999992011010417504+46750+008117AUTO +0579LSMM V0209999C000012200019N0060001N1-01001-01101999999ADDGF100991999999999999999999MA1101491999999REMMET066METAR LSMM 041750Z AUTO 00000KT 6000NDV NCD M10/M11 Q1015 RMK GRN;
0138066140999992011010418504+46750+008117AUTO +0579LSMM V0201101N002612200019N0070001N1-00901-01001999999ADDGA1041+015001999GF104991999999999999999999MA1101591999999REMMET069METAR LSMM 041850Z AUTO 11005KT 7000NDV SCT056 M09/M10 Q1016 RMK GRN;
0119066140999992011010419504+46750+008117AUTO +0579LSMM V0201001N001512200019N0070001N1-01201-01301999999ADDGF100991999999999999999999MA1101491999999REMMET066METAR LSMM 041950Z AUTO 10003KT 7000NDV NCD M12/M13 Q1015 RMK GRN;
0119066140999992011010420504+46750+008117AUTO +0579LSMM V0209999V001012200019N0043001N1-01001-01101999999ADDGF100991999999999999999999MA1101391999999REMMET066METAR LSMM 042050Z AUTO VRB02KT 4300NDV NCD M10/M11 Q1014 RMK GRN;
0138066140999992011010421504+46750+008117AUTO +0579LSMM V0209999V000512200019N0050001N1-01001-01101999999ADDGA1021+060001999GF102991999999999999999999MA1101491999999REMMET069METAR LSMM 042150Z AUTO VRB01KT 5000NDV FEW200 M10/M11 Q1015 RMK GRN;
0119066140999992011010422504+46750+008117AUTO +0579LSMM V0209999V001012200019N0090001N1-01101-01201999999ADDGF100991999999999999999999MA1101491999999REMMET066METAR LSMM 042250Z AUTO VRB02KT 9000NDV NCD M11/M12 Q1015 RMK BLU;
0146066140999992011010423504+46750+008117AUTO +0579LSMM V0201101N001512200019N0112651N1-01001-01101999999ADDGA1021+054001999GF102991999999999999999999MA1101491999999REMMET077METAR LSMM 042350Z AUTO 11003KT 070V130 9999NDV FEW180 M10/M11 Q1015 RMK BLU;
0138066140999992011010500504+46750+008117AUTO +0579LSMM V0209999V000512200019N0112651N1-01101-01301999999ADDGA1021+018001999GF102991999999999999999999MA1101491999999REMMET069METAR LSMM 050050Z AUTO VRB01KT 9999NDV FEW066 M11/M13 Q1015 RMK BLU;
0119066140999992011010501504+46750+008117AUTO +0579LSMM V0201101N003112200019N0112651N1-01201-01301999999ADDGF100991999999999999999999MA1101491999999REMMET066METAR LSMM 050150Z AUTO 11006KT 9999NDV NCD M12/M13 Q1015 RMK BLU;
0119066140999992011010502504+46750+008117AUTO +0579LSMM V0209999C000012200019N0112651N1-01101-01201999999ADDGF100991999999999999999999MA1101491999999REMMET066METAR LSMM 050250Z AUTO 00000KT 9999NDV NCD M11/M12 Q1015 RMK BLU;
0128066140999992011010503504+46750+008117AUTO +0579LSMM V0200701N001512200019N0049001N1-01201-01301999999ADDAW1101GF100991999999999999999999MA1101491999999REMMET069METAR LSMM 050350Z AUTO 07003KT 4900NDV BR NCD M12/M13 Q1015 RMK GRN;
0128066140999992011010504504+46750+008117AUTO +0579LSMM V0209999V000512200019N0112651N1-01201-01301999999ADDAW1101GF100991999999999999999999MA1101391999999REMMET069METAR LSMM 050450Z AUTO VRB01KT 9999NDV BR NCD M12/M13 Q1014 RMK BLU;
0090066140999992011010505504+46750+008117FM-15+0579LSMM V0201101N001519999999Y0099001N1-01301-01401999999ADDMA1101391999999REMMET063METAR LSMM 050550Z 11003KT 060V140 CAVOK M13/M14 Q1014 RMK BLU;
0090066140999992011010506504+46750+008117FM-15+0579LSMM V0201101N001519999999Y0099001N1-01401-01501999999ADDMA1101491999999REMMET063METAR LSMM 050650Z 11003KT 080V150 CAVOK M14/M15 Q1015 RMK BLU;
0082066140999992011010507504+46750+008117FM-15+0579LSMM V0209999C000019999999Y0099001N1-01201-01401999999ADDMA1101391999999REMMET055METAR LSMM 050750Z 00000KT CAVOK M12/M14 Q1014 RMK BLU;
0119066140999992011010508504+46750+008117FM-15+0579LSMM V0201001N001512200019N0090001N1-01301-01401999999ADDGF100991999999999999999999MA1101491999999REMMET066METAR LSMM 050850Z 10003KT 070V140 9000 NSC M13/M14 Q1015 RMK BLU;
0130066140999992011010509504+46750+008117FM-15+0579LSMM V0209999V000512200019N0112651N1-01201-01301999999ADDGA1021+066001999GF102991999999999999999999MA1101391999999REMMET061METAR LSMM 050950Z VRB01KT 9999 FEW220 M12/M13 Q1014 RMK BLU;
0111066140999992011010511504+46750+008117FM-15+0579LSMM V0209999V000512200019N0090001N1-01101-01201999999ADDGF100991999999999999999999MA1101191999999REMMET058METAR LSMM 051150Z VRB01KT 9000 NSC M11/M12 Q1012 RMK BLU;
0130066140999992011010512504+46750+008117FM-15+0579LSMM V0201001N001512200019N0112651N1-01101-01201999999ADDGA1021+066001999GF102991999999999999999999MA1101191999999REMMET061METAR LSMM 051250Z 10003KT 9999 FEW220 M11/M12 Q1012 RMK BLU;
0082066140999992011010513504+46750+008117FM-15+0579LSMM V0209999C000019999999Y0099001N1-01001-01101999999ADDMA1101191999999REMMET055METAR LSMM 051350Z 00000KT CAVOK M10/M11 Q1012 RMK BLU;
0130066140999992011010514504+46750+008117FM-15+0579LSMM V0201101N002612200019N0112651N1-00801-00901999999ADDGA1021+066001999GF102991999999999999999999MA1101191999999REMMET061METAR LSMM 051450Z 11005KT 9999 FEW220 M08/M09 Q1012 RMK BLU;
0138066140999992011010605504+46750+008117FM-15+0579LSMM V0202201N001510210019N0112651N1-00201-00401999999ADDGA1081+021001999GF108991999999999999999999MA1100911999999REMMET069METAR LSMM 060550Z 22003KT 180V290 9999 OVC075 M02/M04 Q1009 RMK WHT;
0130066140999992011010606504+46750+008117FM-15+0579LSMM V0201001N005110210019N0112651N1-00201-00401999999ADDGA1071+021001999GF107991999999999999999999MA1100811999999REMMET061METAR LSMM 060650Z 10010KT 9999 BKN078 M02/M04 Q1008 RMK WHT;
0153066140999992011010607504+46750+008117FM-15+0579LSMM V0209999C000010450019N0112651N1-00201-00401999999ADDGA1021+027001999GA2081+045001999GF108991999999999999999999MA1100811999999REMMET068METAR LSMM 060750Z 00000KT 9999 FEW094 OVC150 M02/M04 Q1008 RMK WHT;
0153066140999992011010608504+46750+008117FM-15+0579LSMM V0201301N002110450019N0112651N1-00201-00401999999ADDGA1021+030001999GA2071+045001999GF107991999999999999999999MA1100811999999REMMET068METAR LSMM 060850Z 13004KT 9999 FEW100 BKN150 M02/M04 Q1008 RMK WHT;
0130066140999992011010609504+46750+008117FM-15+0579LSMM V0209999C000012200019N0112651N1-00101-00401999999ADDGA1021+036001999GF102991999999999999999999MA1100811999999REMMET061METAR LSMM 060950Z 00000KT 9999 FEW120 M01/M04 Q1008 RMK BLU;
0137066140999992011010611504+46750+008117FM-15+0579LSMM V0200901N001510270019N0112651N1+00101-00301999999ADDGA1071+027001999GF107991999999999999999999MA1100911999999REMMET068METAR LSMM 061150Z 09003KT 060V140 9999 BKN091 01/M03 Q1009 RMK WHT;
0129066140999992011010612504+46750+008117FM-15+0579LSMM V0209999V001010270019N0112651N1+00101-00301999999ADDGA1071+027001999GF107991999999999999999999MA1100811999999REMMET060METAR LSMM 061250Z VRB02KT 9999 BKN095 01/M03 Q1008 RMK WHT;
0152066140999992011010613504+46750+008117FM-15+0579LSMM V0209999V001010360019N0112651N1+00101-00201999999ADDGA1021+030001999GA2071+036001999GF107991999999999999999999MA1100711999999REMMET067METAR LSMM 061350Z VRB02KT 9999 FEW100 BKN120 01/M02 Q1007 RMK WHT;
0152066140999992011010614504+46750+008117FM-15+0579LSMM V0209999V001010360019N0112651N1+00201-00201999999ADDGA1021+027001999GA2071+036001999GF107991999999999999999999MA1100811999999REMMET067METAR LSMM 061450Z VRB02KT 9999 FEW095 BKN120 02/M02 Q1008 RMK WHT;
0137066140999992011010615504+46750+008117FM-15+0579LSMM V0201001N001510270019N0112651N1+00201-00201999999ADDGA1081+027001999GF108991999999999999999999MA1100811999999REMMET068METAR LSMM 061550Z 10003KT 070V130 9999 OVC094 02/M02 Q1008 RMK WHT;
0160066140999992011010616504+46750+008117AUTO +0579LSMM V0201101N002610330019N0112651N1+00101-00101999999ADDGA1021+024001999GA2081+033001999GF108991999999999999999999MA1100811999999REMMET075METAR LSMM 061650Z AUTO 11005KT 9999NDV FEW088 OVC110 01/M01 Q1008 RMK WHT;
0178066140999992011010617504+46750+008117AUTO +0579LSMM V0203001N001510180019N0112651N1+00101-00101999999ADDAW1611GA1071+018001999GA2081+021001999GF108991999999999999999999MA1100911999999REMMET087METAR LSMM 061750Z AUTO 30003KT 250V360 9999NDV -RA BKN067 OVC077 01/M01 Q1009 RMK WHT;
0193066140999992011010618504+46750+008117AUTO +0579LSMM V0201101N004110180019N0112651N1+00201-00101999999ADDAW1611GA1021+015001999GA2071+018001999GA3081+021001999GF108991999999999999999999MA1101021999999REMMET086METAR LSMM 061850Z AUTO 11008KT 9999NDV -RA FEW051 BKN061 OVC071 02/M01 Q1010 RMK WHT;
0193066140999992011010619504+46750+008117AUTO +0579LSMM V0209999V00051015001CN0112651N1+00101+00001999999ADDAW1611GA1021+014701999GA2041+015001999GA3081+027001999GF108991999999999999999999MA1101021999999REMMET086METAR LSMM 061950Z AUTO VRB01KT 9999NDV -RA FEW049 SCT056 OVC099 01/M00 Q1010 RMK WHT;
0202066140999992011010620504+46750+008117AUTO +0579LSMM V0201101N003110150019N0080001N1+00101+00001999999ADDAW1821GA1021+009901999GA2071+015001999GA3081+027001999GF108991999999999999999999MA1101081999999REMMET095METAR LSMM 062050Z AUTO 11006KT 060V190 8000NDV SHRA FEW033 BKN052 OVC091 01/M00 Q1011 RMK WHT;
0171066140999992011010621504+46750+008117AUTO +0579LSMM V0209999V001510270019N0112651N1+00201+00101999999ADDAW1811GA1021+011101999GA2081+027001999GF108991999999999999999999MA1101081999999REMMET080METAR LSMM 062150Z AUTO VRB03KT 9999NDV -SHRA FEW037 OVC092 02/01 Q1011 RMK WHT;
0171066140999992011010622504+46750+008117AUTO +0579LSMM V0201001N004110270019N0112651N1+00201+00101999999ADDAW1811GA1041+021001999GA2081+027001999GF108991999999999999999999MA1101081999999REMMET080METAR LSMM 062250Z AUTO 10008KT 9999NDV -SHRA SCT075 OVC091 02/01 Q1011 RMK WHT;
0159066140999992011010623504+46750+008117AUTO +0579LSMM V0209999V001010240019N0080001N1+00201+00101999999ADDGA1021+015001999GA2081+024001999GF108991999999999999999999MA1101191999999REMMET074METAR LSMM 062350Z AUTO VRB02KT 8000NDV FEW051 OVC086 02/01 Q1012 RMK WHT;
0176066140999992011010700504+46750+008117AUTO +0579LSMM V0201301N002110270019N0050001N1+00101+00001999999ADDAW1101GA1071+027001999GA2071+036001999GF107991999999999999999999MA1101191999999REMMET085METAR LSMM 070050Z AUTO 13004KT 080V150 5000NDV BR BKN094 BKN120 01/00 Q1012 RMK GRN;
0145066140999992011010701504+46750+008117AUTO +0579LSMM V0209999V000510240019N0036001N1+00101+00001999999ADDAW1101GA1071+024001999GF107991999999999999999999MA1101191999999REMMET070METAR LSMM 070150Z AUTO VRB01KT 3600NDV BR BKN089 01/00 Q1012 RMK GRN;
0159066140999992011010702504+46750+008117AUTO +0579LSMM V0209999V001510330019N0080001N1+00201+00101999999ADDGA1021+024001999GA2071+033001999GF107991999999999999999999MA1101191999999REMMET074METAR LSMM 070250Z AUTO VRB03KT 8000NDV FEW088 BKN110 02/01 Q1012 RMK WHT;
0209066140999992011010703504+46750+008117AUTO +0579LSMM V0201101N003110150019N0039001N1+00101+00101999999ADDAW1101AW2611GA1021+013801999GA2071+015001999GA3081+018001999GF108991999999999999999999MA1101191999999REMMET096METAR LSMM 070350Z AUTO 11006KT 060V130 3900NDV -RA BR FEW046 BKN055 OVC064 01/01 Q1012 RMK GRN;
0192066140999992011010704504+46750+008117AUTO +0579LSMM V0209999V001510180019N0046001N1+00201+00101999999ADDAW1611GA1021+015001999GA2071+018001999GA3081+021001999GF108991999999999999999999MA1101291999999REMMET085METAR LSMM 070450Z AUTO VRB03KT 4600NDV -RA FEW051 BKN063 OVC078 02/01 Q1013 RMK GRN;
0159066140999992011010705504+46750+008117AUTO +0579LSMM V0209999V001510270019N0112651N1+00301+00201999999ADDGA1021+000901999GA2071+027001999GF107991999999999999999999MA1101291999999REMMET074METAR LSMM 070550Z AUTO VRB03KT 9999NDV FEW003 BKN098 03/02 Q1013 RMK WHT;
0161066140999992011010706504+46750+008117FM-15+0579LSMM V0209999V001510270019N0080001N1+00201+00101999999ADDGA1071+027001999GA2071+045001999GF107991999999999999999999MA1101191999999MW1511REMMET070METAR LSMM 070650Z VRB03KT 8000 -DZ BKN091 BKN150 02/01 Q1012 RMK WHT;
0160066140999992011010707504+46750+008117FM-15+0579LSMM V0209999V001010420019N0034001N1+00101+00101999999ADDGA1021+030001999GA2071+042001999GF107991999999999999999999MA1101191999999MW1101REMMET069METAR LSMM 070750Z VRB02KT 3400 BR FEW100 BKN140 01/01 Q1012 RMK GRN;
0160066140999992011010708504+46750+008117FM-15+0579LSMM V0209999V000512200019N0050001N1+00201+00101999999ADDGA1021+000601999GA2041+030001999GF104991999999999999999999MA1101191999999MW1101REMMET069METAR LSMM 070850Z VRB01KT 5000 BR FEW002 SCT100 02/01 Q1012 RMK GRN;
0145066140999992011010709504+46750+008117FM-15+0579LSMM V0201101N002610006019N0024001N1+00201+00101999999ADDGA1081+000601999GF108991999999999999999999MA1101291999999MW1101REMMET070METAR LSMM 070950Z 11005KT 070V140 2400 BR OVC002 02/01 Q1013 RMK AMB;
0144066140999992011010710504+46750+008117AUTO +0579LSMM V0209999V001010003019N0020001N1+00201+00201999999ADDAW1101GA1091+000301999GF109991999999000251999999MA1101291999999REMMET069METAR LSMM 071050Z AUTO VRB02KT 2000NDV BR VV001 02/02 Q1013 RMK RED;
0167066140999992011010711504+46750+008117FM-15+0579LSMM V0209999V000510003019N0002501N1+00201+00101999999ADDED110U03509GA1091+000301999GF109991999999000251999999MA1101191999999MW1451REMMET081METAR LSMM 071150Z VRB01KT 0250 R10/0350N R28/0275N FG VV001 02/01 Q1012 RMK RED;
0183066140999992011010712504+46750+008117FM-15+0579LSMM V0202401N004112200019N0006001N1+00301+00301999999ADDED110U06509GA1041+000601999GF104991999999999999999999MA1101201999999REMMET103METAR LSMM 071250Z 24008KT 180V260 0600 R10/0650V1000D R28/1000VP2000U BCFG SCT002 03/03 Q1012 RMK RED;
0136066140999992011010713504+46750+008117FM-15+0579LSMM V0201001N002612200019N0080001N1+00201+00201999999ADDGA1041+036001999GF104991999999999999999999MA1101191999999REMMET067METAR LSMM 071350Z 10005KT 060V120 8000 SCT120 02/02 Q1012 RMK BLU;
0128066140999992011010714504+46750+008117FM-15+0579LSMM V0209999V001010360019N0080001N1+00201+00201999999ADDGA1071+036001999GF107991999999999999999999MA1101191999999REMMET059METAR LSMM 071450Z VRB02KT 8000 BKN120 02/02 Q1012 RMK WHT;
0153066140999992011010715504+46750+008117AUTO +0579LSMM V0203101N002110360019N0041001N1+00201+00101999999ADDAW1101GA1071+036001999GF107991999999999999999999MA1101291999999REMMET078METAR LSMM 071550Z AUTO 31004KT 260V020 4100NDV BR BKN120 02/01 Q1013 RMK GRN;
0136066140999992011010716504+46750+008117AUTO +0579LSMM V0201001N002110360019N0050001N1+00201+00101999999ADDGA1081+036001999GF108991999999999999999999MA1101291999999REMMET067METAR LSMM 071650Z AUTO 10004KT 5000NDV OVC120 02/01 Q1013 RMK GRN;
0153066140999992011010717504+46750+008117AUTO +0579LSMM V0202801N002110330019N0050001N1+00201+00101999999ADDAW1101GA1071+033001999GF107991999999999999999999MA1101291999999REMMET078METAR LSMM 071750Z AUTO 28004KT 230V320 5000NDV BR BKN110 02/01 Q1013 RMK GRN;
0136066140999992011010718504+46750+008117AUTO +0579LSMM V0209999V001010360019N0045001N1+00201+00201999999ADDGA1071+036001999GF107991999999999999999999MA1101191999999REMMET067METAR LSMM 071850Z AUTO VRB02KT 4500NDV BKN120 02/02 Q1012 RMK GRN;
0176066140999992011010719504+46750+008117AUTO +0579LSMM V0203001N001512200019N0022001N1+00201+00101999999ADDAW1101GA1021+039001999GA2041+048001999GF104991999999999999999999MA1101191999999REMMET085METAR LSMM 071950Z AUTO 30003KT 250V360 2200NDV BR FEW130 SCT160 02/01 Q1012 RMK YLO;
0214066140999992011010720504+46750+008117AUTO +0579LSMM V0202801N00211045001CN0012001N1+00201+00201999999ADDAW1101ED110U15009GA1021+039001999GA2071+045001999GF108991999999999999999999MA1101201999999REMMET112METAR LSMM 072050Z AUTO 28004KT 240V320 1200NDV R10/1500VP2000D R28/P2000N BR FEW130 BKN150 02/02 Q1012 RMK RED;
0153066140999992011010721504+46750+008117AUTO +0579LSMM V0202601N003110510019N0046001N1+00301+00201999999ADDAW1101GA1071+051001999GF107991999999999999999999MA1101191999999REMMET078METAR LSMM 072150Z AUTO 26006KT 210V350 4600NDV BR BKN170 03/02 Q1012 RMK GRN;
0176066140999992011010722504+46750+008117AUTO +0579LSMM V0203001N002110480019N0025001N1+00201+00201999999ADDAW1101GA1021+039001999GA2071+048001999GF107991999999999999999999MA1101291999999REMMET085METAR LSMM 072250Z AUTO 30004KT 230V340 2500NDV BR FEW130 BKN160 02/02 Q1013 RMK YLO;
0167066140999992011010723504+46750+008117AUTO +0579LSMM V0203001N002110360019N0112651N1+00301+00201999999ADDGA1071+036001999GA2081+051001999GF108991999999999999999999MA1101291999999REMMET082METAR LSMM 072350Z AUTO 30004KT 250V360 9999NDV BKN120 OVC170 03/02 Q1013 RMK WHT;
0136066140999992011010800504+46750+008117AUTO +0579LSMM V0209999V000510330019N0112651N1+00201+00101999999ADDGA1081+033001999GF108991999999999999999999MA1101291999999REMMET067METAR LSMM 080050Z AUTO VRB01KT 9999NDV OVC110 02/01 Q1013 RMK WHT;
0144066140999992011010801504+46750+008117AUTO +0579LSMM V0203101N002110360019N0112651N1+00201+00101999999ADDGA1081+036001999GF108991999999999999999999MA1101191999999REMMET075METAR LSMM 080150Z AUTO 31004KT 270V350 9999NDV OVC120 02/01 Q1012 RMK WHT;
0190066140999992011010802504+46750+008117AUTO +0579LSMM V0203001N002610360019N0112651N1+00201+00101999999ADDGA1021+030001999GA2071+036001999GA3081+042001999GF108991999999999999999999MA1101191999999REMMET089METAR LSMM 080250Z AUTO 30005KT 240V330 9999NDV FEW100 BKN120 OVC140 02/01 Q1012 RMK WHT;
0190066140999992011010803504+46750+008117AUTO +0579LSMM V0200801N002610300019N0112651N1+00301+00201999999ADDGA1021+021001999GA2071+030001999GA3071+039001999GF107991999999999999999999MA1101191999999REMMET089METAR LSMM 080350Z AUTO 08005KT 020V140 9999NDV FEW075 BKN100 BKN130 03/02 Q1012 RMK WHT;
0136066140999992011010804504+46750+008117AUTO +0579LSMM V0202401N005710270019N0112651N1+00501+00301999999ADDGA1071+027001999GF107991999999999999999999MA1101291999999REMMET067METAR LSMM 080450Z AUTO 24011KT 9999NDV BKN096 05/03 Q1013 RMK WHT;
0167066140999992011010805504+46750+008117AUTO +0579LSMM V0203001N003610210019N0112651N1+00501+00201999999ADDGA1041+018001999GA2081+021001999GF108991999999999999999999MA1101491999999REMMET082METAR LSMM 080550Z AUTO 30007KT 230V320 9999NDV SCT063 OVC071 05/02 Q1015 RMK WHT;
0159066140999992011010806504+46750+008117AUTO +0579LSMM V0209999V000512200019N0112651N1+00401+00201999999ADDGA1021+018001999GA2041+030001999GF104991999999999999999999MA1101391999999REMMET074METAR LSMM 080650Z AUTO VRB01KT 9999NDV FEW068 SCT100 04/02 Q1014 RMK BLU;
0144066140999992011010807504+46750+008117AUTO +0579LSMM V0201201N001512200019N0112651N1+00201+00001999999ADDGA1021+030001999GF102991999999999999999999MA1101491999999REMMET075METAR LSMM 080750Z AUTO 12003KT 050V160 9999NDV FEW100 02/00 Q1015 RMK BLU;
0136066140999992011010808504+46750+008117AUTO +0579LSMM V0201101N003612200019N0112651N1+00201+00101999999ADDGA1021+033001999GF102991999999999999999999MA1101391999999REMMET067METAR LSMM 080850Z AUTO 11007KT 9999NDV FEW110 02/01 Q1014 RMK BLU;
0144066140999992011010809504+46750+008117AUTO +0579LSMM V0202901N002112200019N0112651N1+00101+00001999999ADDGA1021+033001999GF102991999999999999999999MA1101491999999REMMET075METAR LSMM 080950Z AUTO 29004KT 240V360 9999NDV FEW110 01/00 Q1015 RMK BLU;
0125066140999992011010810504+46750+008117AUTO +0579LSMM V0201301N001512200019N0112651N1+00301+00101999999ADDGF100991999999999999999999MA1101391999999REMMET072METAR LSMM 081050Z AUTO 13003KT 070V160 9999NDV NCD 03/01 Q1014 RMK BLU;
0136066140999992011010811504+46750+008117AUTO +0579LSMM V0209999V000512200019N0112651N1+00201+00001999999ADDGA1041+045001999GF104991999999999999999999MA1101391999999REMMET067METAR LSMM 081150Z AUTO VRB01KT 9999NDV SCT150 02/00 Q1014 RMK BLU;
0144066140999992011010812504+46750+008117AUTO +0579LSMM V0201001N002110390019N0112651N1+00201+00101999999ADDGA1071+039001999GF107991999999999999999999MA1101291999999REMMET075METAR LSMM 081250Z AUTO 10004KT 020V130 9999NDV BKN130 02/01 Q1013 RMK WHT;
0137066140999992011010813504+46750+008117AUTO +0579LSMM V0209999C000012200019N0112651N1+00201+00001999999ADDGA1021+045001999GF102991999999999999999999MA1101291999999REMMET068METAR LSMM 081350Z AUTO 00000KT 9999NDV FEW150 02/M00 Q1013 RMK BLU;
0137066140999992011010814504+46750+008117AUTO +0579LSMM V0209999V001012200019N0112651N1+00101+00001999999ADDGA1041+039001999GF104991999999999999999999MA1101291999999REMMET068METAR LSMM 081450Z AUTO VRB02KT 9999NDV SCT130 01/M00 Q1013 RMK BLU;
0126066140999992011010815504+46750+008117AUTO +0579LSMM V0201201N001512200019N0112651N1+00101-00101999999ADDGF100991999999999999999999MA1101391999999REMMET073METAR LSMM 081550Z AUTO 12003KT 060V150 9999NDV NCD 01/M01 Q1014 RMK BLU;
0117066140999992011010816504+46750+008117AUTO +0579LSMM V0209999V001012200019N0112651N1+00201+00101999999ADDGF100991999999999999999999MA1101391999999REMMET064METAR LSMM 081650Z AUTO VRB02KT 9999NDV NCD 02/01 Q1014 RMK BLU;
0145066140999992011010817504+46750+008117AUTO +0579LSMM V0202801N001510390019N0112651N1+00101+00001999999ADDGA1071+039001999GF107991999999999999999999MA1101291999999REMMET076METAR LSMM 081750Z AUTO 28003KT 230V360 9999NDV BKN130 01/M00 Q1013 RMK WHT;
0117066140999992011010818504+46750+008117AUTO +0579LSMM V0209999V001012200019N0112651N1+00201+00001999999ADDGF100991999999999999999999MA1101291999999REMMET064METAR LSMM 081850Z AUTO VRB02KT 9999NDV NCD 02/00 Q1013 RMK BLU;
0145066140999992011010819504+46750+008117AUTO +0579LSMM V0202701N002112200019N0112651N1+00101-00101999999ADDGA1021+063001999GF102991999999999999999999MA1101291999999REMMET076METAR LSMM 081950Z AUTO 27004KT 230V310 9999NDV FEW210 01/M01 Q1013 RMK BLU;
0144066140999992011010820504+46750+008117AUTO +0579LSMM V0202701N001510390019N0112651N1+00201+00001999999ADDGA1071+039001999GF107991999999999999999999MA1101291999999REMMET075METAR LSMM 082050Z AUTO 27003KT 210V360 9999NDV BKN130 02/00 Q1013 RMK WHT;
0144066140999992011010821504+46750+008117AUTO +0579LSMM V0202901N001510420019N0112651N1+00201+00101999999ADDGA1071+042001999GF107991999999999999999999MA1101291999999REMMET075METAR LSMM 082150Z AUTO 29003KT 230V340 9999NDV BKN140 02/01 Q1013 RMK WHT;
0190066140999992011010822504+46750+008117AUTO +0579LSMM V0202801N001510510019N0112651N1+00201+00101999999ADDGA1041+036001999GA2071+051001999GA3071+060001999GF107991999999999999999999MA1101191999999REMMET089METAR LSMM 082250Z AUTO 28003KT 230V360 9999NDV SCT120 BKN170 BKN200 02/01 Q1012 RMK WHT;
0167066140999992011010823504+46750+008117AUTO +0579LSMM V0202601N001512200019N0112651N1+00301+00101999999ADDGA1021+039001999GA2041+066001999GF104991999999999999999999MA1101191999999REMMET082METAR LSMM 082350Z AUTO 26003KT 200V330 9999NDV FEW130 SCT220 03/01 Q1012 RMK BLU;
0125066140999992011010900504+46750+008117AUTO +0579LSMM V0202801N002112200019N0112651N1+00201+00001999999ADDGF100991999999999999999999MA1101291999999REMMET072METAR LSMM 090050Z AUTO 28004KT 230V330 9999NDV NCD 02/00 Q1013 RMK BLU;
0144066140999992011010901504+46750+008117AUTO +0579LSMM V0202501N003112200019N0112651N1+00301+00101999999ADDGA1021+030001999GF102991999999999999999999MA1101291999999REMMET075METAR LSMM 090150Z AUTO 25006KT 220V320 9999NDV FEW100 03/01 Q1013 RMK BLU;
0125066140999992011010902504+46750+008117AUTO +0579LSMM V0203001N002112200019N0112651N1+00201+00001999999ADDGF100991999999999999999999MA1101191999999REMMET072METAR LSMM 090250Z AUTO 30004KT 250V350 9999NDV NCD 02/00 Q1012 RMK BLU;
0126066140999992011010903504+46750+008117AUTO +0579LSMM V0202701N002612200019N0112651N1+00201+00001999999ADDGF100991999999999999999999MA1101191999999REMMET073METAR LSMM 090350Z AUTO 27005KT 210V330 9999NDV NCD 02/M00 Q1012 RMK BLU;
0125066140999992011010904504+46750+008117AUTO +0579LSMM V0202501N003612200019N0112651N1+00201+00101999999ADDGF100991999999999999999999MA1101191999999REMMET072METAR LSMM 090450Z AUTO 25007KT 220V280 9999NDV NCD 02/01 Q1012 RMK BLU;
0144066140999992011010905504+46750+008117AUTO +0579LSMM V0202701N002110390019N0112651N1+00201+00001999999ADDGA1081+039001999GF108991999999999999999999MA1101191999999REMMET075METAR LSMM 090550Z AUTO 27004KT 230V330 9999NDV OVC130 02/00 Q1012 RMK WHT;
0168066140999992011010906504+46750+008117AUTO +0579LSMM V0203001N001510390019N0112651N1+00101+00001999999ADDGA1021+033001999GA2071+039001999GF107991999999999999999999MA1101191999999REMMET083METAR LSMM 090650Z AUTO 30003KT 250V350 9999NDV FEW110 BKN130 01/M00 Q1012 RMK WHT;
0136066140999992011010907504+46750+008117AUTO +0579LSMM V0202501N003610390019N0112651N1+00301+00101999999ADDGA1071+039001999GF107991999999999999999999MA1101291999999REMMET067METAR LSMM 090750Z AUTO 25007KT 9999NDV BKN130 03/01 Q1013 RMK WHT;
0167066140999992011010908504+46750+008117AUTO +0579LSMM V0202901N002110330019N0112651N1+00301+00101999999ADDGA1071+033001999GA2071+039001999GF107991999999999999999999MA1101291999999REMMET082METAR LSMM 090850Z AUTO 29004KT 240V350 9999NDV BKN110 BKN130 03/01 Q1013 RMK WHT;
0144066140999992011010909504+46750+008117AUTO +0579LSMM V0202901N002612200019N0112651N1+00301+00101999999ADDGA1021+030001999GF102991999999999999999999MA1101291999999REMMET075METAR LSMM 090950Z AUTO 29005KT 210V340 9999NDV FEW100 03/01 Q1013 RMK BLU;
0144066140999992011010910504+46750+008117AUTO +0579LSMM V0203001N002112200019N0112651N1+00401+00101999999ADDGA1021+012001999GF102991999999999999999999MA1101391999999REMMET075METAR LSMM 091050Z AUTO 30004KT 230V340 9999NDV FEW040 04/01 Q1014 RMK BLU;
0144066140999992011010911504+46750+008117AUTO +0579LSMM V0202701N003610330019N0112651N1+00401+00101999999ADDGA1071+033001999GF107991999999999999999999MA1101291999999REMMET075METAR LSMM 091150Z AUTO 27007KT 230V320 9999NDV BKN110 04/01 Q1013 RMK WHT;
0167066140999992011010912504+46750+008117AUTO +0579LSMM V0202901N002610210019N0112651N1+00401+00101999999ADDGA1071+021001999GA2071+024001999GF107991999999999999999999MA1101291999999REMMET082METAR LSMM 091250Z AUTO 29005KT 200V320 9999NDV BKN071 BKN080 04/01 Q1013 RMK WHT;
0136066140999992011010913504+46750+008117AUTO +0579LSMM V0202601N004110270019N0112651N1+00301+00001999999ADDGA1071+027001999GF107991999999999999999999MA1101291999999REMMET067METAR LSMM 091350Z AUTO 26008KT 9999NDV BKN093 03/00 Q1013 RMK WHT;
0144066140999992011010914504+46750+008117AUTO +0579LSMM V0202901N002110240019N0112651N1+00401+00001999999ADDGA1071+024001999GF107991999999999999999999MA1101391999999REMMET075METAR LSMM 091450Z AUTO 29004KT 230V330 9999NDV BKN084 04/00 Q1014 RMK WHT;
0136066140999992011010915504+46750+008117AUTO +0579LSMM V0202601N003610300019N0112651N1+00301+00001999999ADDGA1071+030001999GF107991999999999999999999MA1101491999999REMMET067METAR LSMM 091550Z AUTO 26007KT 9999NDV BKN100 03/00 Q1015 RMK WHT;
0136066140999992011010916504+46750+008117AUTO +0579LSMM V0202601N002610330019N0112651N1+00301+00001999999ADDGA1081+033001999GF108991999999999999999999MA1101491999999REMMET067METAR LSMM 091650Z AUTO 26005KT 9999NDV OVC110 03/00 Q1015 RMK WHT;
0182066140999992011010917504+46750+008117AUTO +0579LSMM V0209999V00101027001CN0112651N1+00301+00001999999ADDGA1041+024001999GA2041+027001999GA3081+033001999GF108991999999999999999999MA1101591999999REMMET081METAR LSMM 091750Z AUTO VRB02KT 9999NDV SCT082 SCT096 OVC110 03/00 Q1016 RMK WHT;
0202066140999992011010918504+46750+008117AUTO +0579LSMM V0203001N001510210019N0112651N1+00301+00001999999ADDAW1811GA1021+007201999GA2071+021001999GA3081+030001999GF108991999999999999999999MA1101591999999REMMET095METAR LSMM 091850Z AUTO 30003KT 250V330 9999NDV -SHRA FEW024 BKN070 OVC100 03/00 Q1016 RMK WHT;
0200066140999992011010919504+46750+008117AUTO +0579LSMM V0202301N002110057019N0112651N1+00301+00101999999ADDAW1611GA1021+004801999GA2071+005701999GA3081+011701999GF108991999999999999999999MA1101691999999REMMET093METAR LSMM 091950Z AUTO 23004KT 200V260 9999NDV -RA FEW016 BKN019 OVC039 03/01 Q1017 RMK GRN;
0192066140999992011010920504+46750+008117AUTO +0579LSMM V0200901N002610087019N0112651N1+00301+00201999999ADDAW1611GA1041+004201999GA2071+008701999GA3081+013201999GF108991999999999999999999MA1101691999999REMMET085METAR LSMM 092050Z AUTO 09005KT 9999NDV -RA SCT014 BKN029 OVC044 03/02 Q1017 RMK WHT;
0200066140999992011010921504+46750+008117AUTO +0579LSMM V0209999V001010072019N0060001N1+00201+00101999999ADDAW1101AW2621GA1021+003001999GA2071+007201999GA3081+010801999GF108991999999999999999999MA1101691999999REMMET087METAR LSMM 092150Z AUTO VRB02KT 6000NDV RA BR FEW010 BKN024 OVC036 02/01 Q1017 RMK GRN;
0201066140999992011010922504+46750+008117AUTO +0579LSMM V0200701N001010051019N0027001N1+00201+00101999999ADDAW1101AW2611GA1041+003001999GA2071+005101999GA3081+008101999GF108991999999999999999999MA1101801999999REMMET088METAR LSMM 092250Z AUTO 07002KT 2700NDV -RA BR SCT010 BKN017 OVC027 02/01 Q1018 RMK YLO;
0219066140999992011010923504+46750+008117AUTO +0579LSMM V0209999C00001001201CN0008001N1+00201+00101999999ADDAW1301AW2621ED110U07509GA1071+001201999GA2071+007201999GF108991999999999999999999MA1101801999999REMMET111METAR LSMM 092350Z AUTO 00000KT 0800NDV R10/0750V1100D R28/1000VP2000D RA FG BKN004 BKN024 02/01 Q1018 RMK RED;
0191066140999992011011000504+46750+008117AUTO +0579LSMM V0200701N001010009019N0009001N1+00201+00101999999ADDAW1301AW2611ED110U09009GA1071+000901999GF107991999999999999999999MA1101801999999REMMET099METAR LSMM 100050Z AUTO 07002KT 0900NDV R10/0900N R28/0800N -RA FG BKN003 02/01 Q1018 RERA RMK RED;
0219066140999992011011001504+46750+008117AUTO +0579LSMM V0201101N002110009019N0008001N1+00201+00201999999ADDAW1301AW2611ED110U07509GA1071+000901999GA2071+006601999GF107991999999999999999999MA1101901999999REMMET111METAR LSMM 100150Z AUTO 11004KT 0800NDV R10/0750N R28/0750V1000N -RA FG BKN003 BKN022 02/02 Q1019 RERA RMK RED;
0232066140999992011011002504+46750+008117AUTO +0579LSMM V0209999C000010057019N0008001N1+00301+00201999999ADDAW1301AW2611ED110U08009GA1041+000901999GA2071+005701999GA3071+006901999GF107991999999999999999999MA1101901999999REMMET108METAR LSMM 100250Z AUTO 00000KT 0800NDV R10/0800N R28/1000D -RA FG SCT003 BKN019 BKN023 03/02 Q1019 RMK RED;
0237066140999992011011003504+46750+008117AUTO +0579LSMM V0201101N00211008101CN0007501N1+00201+00101999999ADDAW1301AW2611ED110U09009GA1041+006001999GA2041+008101999GA3071+009601999GF107991999999999999999999MA1101901999999REMMET113METAR LSMM 100350Z AUTO 11004KT 0750NDV R10/0900N R28/0800V1100N -RA FG SCT020 SCT027 BKN032 02/01 Q1019 RMK RED;
0238066140999992011011004504+46750+008117AUTO +0579LSMM V0209999V000510075019N0010001N1+00201+00101999999ADDAW1101AW2611ED110U12009GA1021+001201999GA2071+007501999GA3071+018001999GF107991999999999999999999MA1101901999999REMMET114METAR LSMM 100450Z AUTO VRB01KT 1000NDV R10/1200N R28/1400VP2000N -RA BR FEW004 BKN025 BKN067 02/01 Q1019 RMK RED;
0221066140999992011011005504+46750+008117FM-15+0579LSMM V0209999V00051005401CN0009001N1+00201+00201999999ADDED110U08009GA1041+004501999GA2071+005401999GA3081+009901999GF108991999999999999999999MA1101901999999REMMET109METAR LSMM 100550Z VRB01KT 0900 R10/0800V1400U R28/1200VP2000D BCFG SCT015 BKN018 OVC033 02/02 Q1019 RMK RED;
0225066140999992011011006504+46750+008117FM-15+0579LSMM V0201101N00261003301CN0007001N1+00201+00201999999ADDED110U08009GA1021+001801999GA2041+003301999GA3071+004201999GF108991999999999999999999MA1101901999999REMMET113METAR LSMM 100650Z 11005KT 030V160 0700 R10/0800VP2000D R28/P2000N BCFG FEW006 SCT011 BKN014 02/02 Q1019 RMK RED;
0183066140999992011011007504+46750+008117FM-15+0579LSMM V0209999C000010042019N0020001N1+00201+00101999999ADDGA1021+003001999GA2071+004201999GA3081+005101999GF108991999999999999999999MA1101901999999MW1101REMMET076METAR LSMM 100750Z 00000KT 2000 BR FEW010 BKN014 OVC017 02/01 Q1019 RMK YLO;
0183066140999992011011008504+46750+008117FM-15+0579LSMM V0209999V001010048019N0050001N1+00301+00201999999ADDGA1021+003901999GA2071+004801999GA3071+007501999GF107991999999999999999999MA1101901999999MW1101REMMET076METAR LSMM 100850Z VRB02KT 5000 BR FEW013 BKN016 BKN025 03/02 Q1019 RMK GRN;
0174066140999992011011009504+46750+008117FM-15+0579LSMM V0209999V002110045019N0112651N1+00301+00201999999ADDGA1021+003601999GA2071+004501999GA3081+009601999GF108991999999999999999999MA1101901999999REMMET073METAR LSMM 100950Z VRB04KT 9999 FEW012 BKN015 OVC032 03/02 Q1019 RMK GRN;
0182066140999992011011010504+46750+008117FM-15+0579LSMM V0200701N004610072019N0112651N1+00401+00201999999ADDGA1041+003901999GA2071+007201999GA3081+024001999GF108991999999999999999999MA1101901999999REMMET081METAR LSMM 101050Z 07009KT 040V100 9999 SCT013 BKN024 OVC080 04/02 Q1019 RMK WHT;
0174066140999992011011011504+46750+008117FM-15+0579LSMM V0209999V000510084019N0112651N1+00501+00201999999ADDGA1021+003001999GA2071+008401999GA3081+024001999GF108991999999999999999999MA1101901999999REMMET073METAR LSMM 101150Z VRB01KT 9999 FEW010 BKN028 OVC080 05/02 Q1019 RMK WHT;
0182066140999992011011012504+46750+008117FM-15+0579LSMM V0200901N00151007201CN0112651N1+00501+00201999999ADDGA1021+003301999GA2041+007201999GA3071+024001999GF107991999999999999999999MA1101801999999REMMET081METAR LSMM 101250Z 09003KT 340V120 9999 FEW011 SCT024 BKN082 05/02 Q1018 RMK WHT;
0174066140999992011011013504+46750+008117FM-15+0579LSMM V0200501N00721008101CN0112651N1+00401+00201999999ADDGA1041+006601999GA2041+008101999GA3081+024001999GF108991999999999999999999MA1101691999999REMMET073METAR LSMM 101350Z 05014KT 9999 SCT022 SCT027 OVC080 04/02 Q1017 RMK WHT;
0151066140999992011011014464+46750+008117FM-15+0579LSMM V0200501N006710075019N0112651N1+00401+00201999999ADDGA1071+007501999GA2071+009001999GF107991999999999999999999MA1101691999999REMMET066METAR LSMM 101446Z 05013KT 9999 BKN025 BKN030 04/02 Q1017 RMK WHT;
0128066140999992011011015504+46750+008117FM-15+0579LSMM V0200501N005110072019N0112651N1+00401+00101999999ADDGA1071+007201999GF107991999999999999999999MA1101691999999REMMET059METAR LSMM 101550Z 05010KT 9999 BKN024 04/01 Q1017 RMK WHT;
0128066140999992011011016504+46750+008117FM-15+0579LSMM V0200601N005110069019N0112651N1+00401+00101999999ADDGA1071+006901999GF107991999999999999999999MA1101591999999REMMET059METAR LSMM 101650Z 06010KT 9999 BKN023 04/01 Q1016 RMK WHT;
0128066140999992011011017504+46750+008117FM-15+0579LSMM V0209999V000510069019N0112651N1+00301+00101999999ADDGA1081+006901999GF108991999999999999999999MA1101591999999REMMET059METAR LSMM 101750Z VRB01KT 9999 OVC023 03/01 Q1016 RMK WHT;
0128066140999992011011018504+46750+008117FM-15+0579LSMM V0209999C000010066019N0112651N1+00301+00101999999ADDGA1081+006601999GF108991999999999999999999MA1101591999999REMMET059METAR LSMM 101850Z 00000KT 9999 OVC022 03/01 Q1016 RMK WHT;
0128066140999992011011019504+46750+008117FM-15+0579LSMM V0209999V000510063019N0112651N1+00201+00101999999ADDGA1081+006301999GF108991999999999999999999MA1101591999999REMMET059METAR LSMM 101950Z VRB01KT 9999 OVC021 02/01 Q1016 RMK WHT;
0182066140999992011011020504+46750+008117AUTO +0579LSMM V0209999C00001002401CN0112651N1+00201+00101999999ADDGA1021+001801999GA2041+002401999GA3081+006601999GF108991999999999999999999MA1101591999999REMMET081METAR LSMM 102050Z AUTO 00000KT 9999NDV FEW006 SCT008 OVC022 02/01 Q1016 RMK WHT;
0159066140999992011011021504+46750+008117AUTO +0579LSMM V0201001N001510060019N0060001N1+00201+00101999999ADDGA1041+001801999GA2081+006001999GF108991999999999999999999MA1101591999999REMMET074METAR LSMM 102150Z AUTO 10003KT 6000NDV SCT006 OVC020 02/01 Q1016 RMK GRN;
0182066140999992011011022504+46750+008117AUTO +0579LSMM V0209999V000510030019N0090001N1+00301+00201999999ADDGA1041+001801999GA2071+003001999GA3081+005701999GF108991999999999999999999MA1101591999999REMMET081METAR LSMM 102250Z AUTO VRB01KT 9000NDV SCT006 BKN010 OVC019 03/02 Q1016 RMK GRN;
0168066140999992011011023504+46750+008117AUTO +0579LSMM V0209999C000010054019N0040001N1+00201+00101999999ADDAW1101GA1021+002401999GA2081+005401999GF108991999999999999999999MA1101491999999REMMET077METAR LSMM 102350Z AUTO 00000KT 4000NDV BR FEW008 OVC018 02/01 Q1015 RMK GRN;
0145066140999992011011100504+46750+008117AUTO +0579LSMM V0209999C000010057019N0023001N1+00201+00101999999ADDAW1101GA1081+005701999GF108991999999999999999999MA1101491999999REMMET070METAR LSMM 110050Z AUTO 00000KT 2300NDV BR OVC019 02/01 Q1015 RMK YLO;
0168066140999992011011101504+46750+008117AUTO +0579LSMM V0209999C000010054019N0022001N1+00201+00101999999ADDAW1101GA1041+003001999GA2081+005401999GF108991999999999999999999MA1101491999999REMMET077METAR LSMM 110150Z AUTO 00000KT 2200NDV BR SCT010 OVC018 02/01 Q1015 RMK YLO;
0145066140999992011011102504+46750+008117AUTO +0579LSMM V0209999V000510054019N0050001N1+00201+00101999999ADDAW1101GA1081+005401999GF108991999999999999999999MA1101391999999REMMET070METAR LSMM 110250Z AUTO VRB01KT 5000NDV BR OVC018 02/01 Q1014 RMK GRN;
0145066140999992011011103504+46750+008117AUTO +0579LSMM V0209999V001010051019N0050001N1+00201+00101999999ADDAW1101GA1081+005101999GF108991999999999999999999MA1101391999999REMMET070METAR LSMM 110350Z AUTO VRB02KT 5000NDV BR OVC017 02/01 Q1014 RMK GRN;
0144066140999992011011104504+46750+008117AUTO +0579LSMM V0200301N001510054019N0112651N1+00301+00001999999ADDGA1081+005401999GF108991999999999999999999MA1101391999999REMMET075METAR LSMM 110450Z AUTO 03003KT 300V070 9999NDV OVC018 03/00 Q1014 RMK GRN;
0137066140999992011011105504+46750+008117FM-15+0579LSMM V0201201N001510054019N0112651N1+00201+00001999999ADDGA1081+005401999GF108991999999999999999999MA1101291999999REMMET068METAR LSMM 110550Z 12003KT 070V170 9999 OVC018 02/M00 Q1013 RMK GRN;
0129066140999992011011106504+46750+008117FM-15+0579LSMM V0200901N002110060019N0112651N1+00201+00001999999ADDGA1081+006001999GF108991999999999999999999MA1101191999999REMMET060METAR LSMM 110650Z 09004KT 9999 OVC020 02/M00 Q1012 RMK WHT;
0137066140999992011011107504+46750+008117FM-15+0579LSMM V0200401N001510051019N0112651N1+00201-00101999999ADDGA1081+005101999GF108991999999999999999999MA1101191999999REMMET068METAR LSMM 110750Z 04003KT 010V070 9999 OVC017 02/M01 Q1012 RMK GRN;
0129066140999992011011108504+46750+008117FM-15+0579LSMM V0201001N002610048019N0112651N1+00201-00101999999ADDGA1081+004801999GF108991999999999999999999MA1101191999999REMMET060METAR LSMM 110850Z 10005KT 9999 OVC016 02/M01 Q1012 RMK GRN;
0152066140999992011011109504+46750+008117FM-15+0579LSMM V0209999V001010051019N0112651N1+00301-00101999999ADDGA1041+004501999GA2071+005101999GF107991999999999999999999MA1101191999999REMMET067METAR LSMM 110950Z VRB02KT 9999 SCT015 BKN017 03/M01 Q1012 RMK GRN;
0137066140999992011011110504+46750+008117AUTO +0579LSMM V0209999V001012200019N0112651N1+00201-00101999999ADDGA1021+003901999GF102991999999999999999999MA1101021999999REMMET068METAR LSMM 111050Z AUTO VRB02KT 9999NDV FEW013 02/M01 Q1010 RMK BLU;
0152066140999992011011111504+46750+008117FM-15+0579LSMM V0209999V001010480019N0112651N1+00201-00101999999ADDGA1021+004501999GA2071+048001999GF107991999999999999999999MA1101021999999REMMET067METAR LSMM 111150Z VRB02KT 9999 FEW015 BKN160 02/M01 Q1010 RMK WHT;
0159066140999992011011112504+46750+008117FM-15+0579LSMM V0202301N002110300019N0112651N1+00301+00001999999ADDGA1021+006001999GA2081+030001999GF108991999999999999999999MA1100911999999REMMET074METAR LSMM 111250Z 23004KT 200V260 9999 FEW020 OVC100 03/00 Q1009 RMK WHT;
0174066140999992011011113504+46750+008117FM-15+0579LSMM V0202401N003110150019N0112651N1+00301+00001999999ADDGA1041+005401999GA2071+015001999GA3081+036001999GF108991999999999999999999MA1101021999999REMMET073METAR LSMM 111350Z 24006KT 9999 SCT018 BKN055 OVC120 03/00 Q1010 RMK WHT;
0186066140999992011011114504+46750+008117FM-15+0579LSMM V0202001N001010126019N0080001N1+00301+00001999999ADDGA1041+005401999GA2071+012601999GA3081+030001999GF108991999999999999999999MA1101081999999MW1801REMMET079METAR LSMM 111450Z 20002KT 8000 -SHRA SCT018 BKN042 OVC100 03/00 Q1011 RMK WHT;
0174066140999992011011115504+46750+008117AUTO +0579LSMM V0209999C000010060019N0060001N1+00201+00101999999ADDAW1611GA1021+004501999GA2071+006001999GF107991999999999999999999MA1101191999999REMMET083METAR LSMM 111550Z AUTO 00000KT 6000NDV -RA FEW015 BKN020 02/01 Q1012 RERA RMK GRN;
0191066140999992011011116504+46750+008117AUTO +0579LSMM V0209999V001010072019N0050001N1+00201+00101999999ADDAW1621GA1021+003601999GA2071+007201999GA3071+008401999GF107991999999999999999999MA1101291999999REMMET084METAR LSMM 111650Z AUTO VRB02KT 5000NDV RA FEW012 BKN024 BKN028 02/01 Q1013 RMK GRN;
0191066140999992011011117504+46750+008117AUTO +0579LSMM V0209999V001010117019N0035001N1+00101+00001999999ADDAW1101GA1021+006901999GA2071+011701999GA3081+021001999GF108991999999999999999999MA1101291999999REMMET084METAR LSMM 111750Z AUTO VRB02KT 3500NDV BR FEW023 BKN039 OVC074 01/00 Q1013 RMK GRN;
0191066140999992011011118504+46750+008117AUTO +0579LSMM V0209999V001010180019N0033001N1+00101+00001999999ADDAW1101GA1021+008101999GA2071+018001999GA3081+021001999GF108991999999999999999999MA1101391999999REMMET084METAR LSMM 111850Z AUTO VRB02KT 3300NDV BR FEW027 BKN068 OVC079 01/00 Q1014 RMK GRN;
0208066140999992011011119504+46750+008117AUTO +0579LSMM V0202501N00261005401CN0050001N1+00101+00101999999ADDAW1101AW2621GA1021+001501999GA2041+005401999GA3081+006601999GF108991999999999999999999MA1101491999999REMMET095METAR LSMM 111950Z AUTO 25005KT 220V300 5000NDV RA BR FEW005 SCT018 OVC022 01/01 Q1015 RMK GRN;
0164066140999992011011120504+46750+008117AUTO +0579LSMM V0209999V001010060019N0060001N1+00101+00001999999ADDGA1071+006001999GA2081+015001999GF108991999999999999999999MA1101591999999REMMET079METAR LSMM 112050Z AUTO VRB02KT 6000NDV BKN020 OVC053 01/00 Q1016 RERA RMK GRN;
0178066140999992011011121504+46750+008117AUTO +0579LSMM V0209999V001010045019N0039001N1+00101+00001999999ADDAW1101AW2611GA1071+004501999GA2071+006301999GF107991999999999999999999MA1101691999999REMMET081METAR LSMM 112150Z AUTO VRB02KT 3900NDV -RA BR BKN015 BKN021 01/00 Q1017 RMK GRN;
0178066140999992011011122504+46750+008117AUTO +0579LSMM V0209999V000510051019N0037001N1+00101+00101999999ADDAW1101AW2611GA1041+003001999GA2081+005101999GF108991999999999999999999MA1101801999999REMMET081METAR LSMM 112250Z AUTO VRB01KT 3700NDV -RA BR SCT010 OVC017 01/01 Q1018 RMK GRN;
0203066140999992011011123504+46750+008117AUTO +0579LSMM V0201101N00151001801CN0033001N1+00101+00101999999ADDAW1101AW2811GA1021+000901999GA2041+001801999GA3081+003001999GF108991999999999999999999MA1101801999999REMMET090METAR LSMM 112350Z AUTO 11003KT 3300NDV -SHRA BR FEW003 SCT006 OVC010 01/01 Q1018 RMK GRN;
0176066140999992011011200504+46750+008117AUTO +0579LSMM V0201101N002110033019N0036001N1+00201+00101999999ADDAW1101GA1041+002701999GA2081+003301999GF108991999999999999999999MA1101901999999REMMET085METAR LSMM 120050Z AUTO 11004KT 080V140 3600NDV BR SCT009 OVC011 02/01 Q1019 RMK GRN;
0199066140999992011011201504+46750+008117AUTO +0579LSMM V0203201N001510048019N0050001N1+00201+00101999999ADDAW1101GA1041+003601999GA2071+004801999GA3081+005701999GF108991999999999999999999MA1101901999999REMMET092METAR LSMM 120150Z AUTO 32003KT 280V340 5000NDV BR SCT012 BKN016 OVC019 02/01 Q1019 RMK GRN;
0191066140999992011011202504+46750+008117AUTO +0579LSMM V0209999C000010180019N0050001N1+00201+00101999999ADDAW1101GA1041+004801999GA2071+018001999GA3081+021001999GF108991999999999999999999MA1102001999999REMMET084METAR LSMM 120250Z AUTO 00000KT 5000NDV BR SCT016 BKN060 OVC077 02/01 Q1020 RMK GRN;
0191066140999992011011203504+46750+008117AUTO +0579LSMM V0209999V001010045019N0043001N1+00101+00101999999ADDAW1101GA1021+003001999GA2071+004501999GA3081+006601999GF108991999999999999999999MA1102101999999REMMET084METAR LSMM 120350Z AUTO VRB02KT 4300NDV BR FEW010 BKN015 OVC022 01/01 Q1021 RMK GRN;
0191066140999992011011204504+46750+008117AUTO +0579LSMM V0209999V001010057019N0039001N1+00201+00101999999ADDAW1101GA1021+003001999GA2071+005701999GA3071+021001999GF107991999999999999999999MA1102101999999REMMET084METAR LSMM 120450Z AUTO VRB02KT 3900NDV BR FEW010 BKN019 BKN078 02/01 Q1021 RMK GRN;
0160066140999992011011205504+46750+008117FM-15+0579LSMM V0209999V001012200019N0043001N1+00101+00101999999ADDGA1021+006001999GA2041+008401999GF104991999999999999999999MA1102201999999MW1101REMMET069METAR LSMM 120550Z VRB02KT 4300 BR FEW020 SCT028 01/01 Q1022 RMK GRN;
0183066140999992011011206504+46750+008117FM-15+0579LSMM V0201101N00151007801CN0040001N1+00201+00101999999ADDGA1021+005401999GA2041+007801999GA3071+011401999GF107991999999999999999999MA1102201999999MW1101REMMET076METAR LSMM 120650Z 11003KT 4000 BR FEW018 SCT026 BKN038 02/01 Q1022 RMK GRN;
0183066140999992011011207504+46750+008117FM-15+0579LSMM V0209999V00101012001CN0030001N1+00101+00101999999ADDGA1021+005701999GA2041+012001999GA3071+054001999GF107991999999999999999999MA1102301999999MW1101REMMET076METAR LSMM 120750Z VRB02KT 3000 BR FEW019 SCT040 BKN180 01/01 Q1023 RMK GRN;
0160066140999992011011208504+46750+008117FM-15+0579LSMM V0209999V000510300019N0032001N1+00201+00101999999ADDGA1021+011401999GA2071+030001999GF107991999999999999999999MA1102201999999MW1101REMMET069METAR LSMM 120850Z VRB01KT 3200 BR FEW038 BKN100 02/01 Q1022 RMK GRN;
0160066140999992011011209504+46750+008117FM-15+0579LSMM V0203301N001010300019N0041001N1+00201+00201999999ADDGA1021+003301999GA2081+030001999GF108991999999999999999999MA1102301999999MW1101REMMET069METAR LSMM 120950Z 33002KT 4100 BR FEW011 OVC100 02/02 Q1023 RMK GRN;
0151066140999992011011211504+46750+008117FM-15+0579LSMM V0209999V000510270019N0112651N1+00401+00201999999ADDGA1021+003001999GA2081+027001999GF108991999999999999999999MA1102201999999REMMET066METAR LSMM 121150Z VRB01KT 9999 FEW010 OVC097 04/02 Q1022 RMK WHT;
0159066140999992011011212504+46750+008117FM-15+0579LSMM V0202801N001510210019N0112651N1+00401+00201999999ADDGA1021+003901999GA2081+021001999GF108991999999999999999999MA1102201999999REMMET074METAR LSMM 121250Z 28003KT 230V320 9999 FEW013 OVC079 04/02 Q1022 RMK WHT;
0159066140999992011011213504+46750+008117FM-15+0579LSMM V0202501N001510180019N0112651N1+00401+00201999999ADDGA1021+003001999GA2081+018001999GF108991999999999999999999MA1102201999999REMMET074METAR LSMM 121350Z 25003KT 200V280 9999 FEW010 OVC063 04/02 Q1022 RMK WHT;
0163066140999992011011214494+46750+008117FM-15+0579LSMM V0200601N001510150019N0112651N1+00401+00301999999ADDGA1041+012001999GA2081+015001999GF108991999999999999999999MA1102301999999MW1801REMMET072METAR LSMM 121449Z 06003KT 9999 -SHRA SCT040 OVC051 04/03 Q1023 RMK WHT;
0199066140999992011011215504+46750+008117AUTO +0579LSMM V0201101N001510084019N0060001N1+00401+00301999999ADDAW1621GA1041+006601999GA2071+008401999GA3081+009601999GF108991999999999999999999MA1102301999999REMMET092METAR LSMM 121550Z AUTO 11003KT 060V160 6000NDV RA SCT022 BKN028 OVC032 04/03 Q1023 RMK GRN;
0238066140999992011011216504+46750+008117AUTO +0579LSMM V0209999C000010114019N0006501N1+00301+00201999999ADDAW1101AW2611ED110U07009GA1021+002701999GA2071+011401999GA3081+015001999GF108991999999999999999999MA1102401999999REMMET114METAR LSMM 121650Z AUTO 00000KT 0650NDV R10/0700D R28/P2000N -RA BR FEW009 BKN038 OVC052 03/02 Q1024 RERA RMK RED;
0193066140999992011011217504+46750+008117AUTO +0579LSMM V0200901N001510150019N0090001N1+00401+00301999999ADDAW1821GA1021+012601999GA2071+015001999GA3071+018001999GF107991999999999999999999MA1102301999999REMMET086METAR LSMM 121750Z AUTO 09003KT 9000NDV SHRA FEW042 BKN056 BKN064 04/03 Q1023 RMK WHT;
0206066140999992011011218504+46750+008117AUTO +0579LSMM V0209999V000510099019N0043001N1+00301+00201999999ADDAW1101AW2611GA1021+008401999GA2071+009901999GA3081+013801999GF108991999999999999999999MA1102401999999REMMET093METAR LSMM 121850Z AUTO VRB01KT 4300NDV -RA BR FEW028 BKN033 OVC046 03/02 Q1024 RERA RMK GRN;
0191066140999992011011219504+46750+008117AUTO +0579LSMM V0209999V00051008401CN0030001N1+00301+00201999999ADDAW1621GA1021+007201999GA2041+008401999GA3081+009601999GF108991999999999999999999MA1102401999999REMMET084METAR LSMM 121950Z AUTO VRB01KT 3000NDV RA FEW024 SCT028 OVC032 03/02 Q1024 RMK GRN;
0191066140999992011011220504+46750+008117AUTO +0579LSMM V0209999V001010069019N0044001N1+00301+00201999999ADDAW1621GA1071+006901999GA2071+008701999GA3081+012601999GF108991999999999999999999MA1102401999999REMMET084METAR LSMM 122050Z AUTO VRB02KT 4400NDV RA BKN023 BKN029 OVC042 03/02 Q1024 RMK GRN;
0192066140999992011011221504+46750+008117AUTO +0579LSMM V0209999V001010102019N0038001N1+00301+00201999999ADDAW1611GA1041+008701999GA2071+010201999GA3081+015001999GF108991999999999999999999MA1102301999999REMMET085METAR LSMM 122150Z AUTO VRB02KT 3800NDV -RA SCT029 BKN034 OVC051 03/02 Q1023 RMK GRN;
0201066140999992011011222504+46750+008117AUTO +0579LSMM V0209999V001010075019N0021001N1+00201+00201999999ADDAW1101AW2611GA1041+006301999GA2071+007501999GA3071+012901999GF107991999999999999999999MA1102301999999REMMET088METAR LSMM 122250Z AUTO VRB02KT 2100NDV -RA BR SCT021 BKN025 BKN043 02/02 Q1023 RMK YLO;
0187066140999992011011223504+46750+008117AUTO +0579LSMM V0209999V001010063019N0008001N1+00301+00201999999ADDAW1101AW2611ED110U09009GA1071+006301999GF107991999999999999999999MA1102301999999REMMET095METAR LSMM 122350Z AUTO VRB02KT 0800NDV R10/0900N R28/P2000N -RA BR BKN021 03/02 Q1023 RMK RED;
0209066140999992011011300504+46750+008117AUTO +0579LSMM V0209999C000010060019N0007001N1+00301+00201999999ADDAW1301AW2621ED110U10009GA1021+000301999GA2081+006001999GF108991999999999999999999MA1102301999999REMMET101METAR LSMM 130050Z AUTO 00000KT 0700NDV R10/1000N R28/P2000N RA FG FEW001 OVC020 03/02 Q1023 RMK RED;
0214066140999992011011301504+46750+008117AUTO +0579LSMM V0209999V000510060019N0007501N1+00301+00201999999ADDAW1301AW2621ED110U09009GA1021+000601999GA2071+006001999GF107991999999999999999999MA1102301999999REMMET106METAR LSMM 130150Z AUTO VRB01KT 0750NDV R10/0900D R28/1200VP2000D RA FG FEW002 BKN020 03/02 Q1023 RMK RED;
0200066140999992011011302504+46750+008117AUTO +0579LSMM V0201101N002110078019N0039001N1+00301+00301999999ADDAW1301AW2621GA1021+006301999GA2071+007801999GA3081+011101999GF108991999999999999999999MA1102301999999REMMET087METAR LSMM 130250Z AUTO 11004KT 3900NDV RA FG FEW021 BKN026 OVC037 03/03 Q1023 RMK GRN;
0231066140999992011011303504+46750+008117AUTO +0579LSMM V0209999C000010099019N0007001N1+00301+00201999999ADDAW1301AW2621ED110U08009GA1021+000601999GA2071+009901999GA3071+011701999GF107991999999999999999999MA1102201999999REMMET107METAR LSMM 130350Z AUTO 00000KT 0700NDV R10/0800N R28/1700N RA FG FEW002 BKN033 BKN039 03/02 Q1022 RMK RED;
0236066140999992011011304504+46750+008117AUTO +0579LSMM V0209999C00001007201CN0009001N1+00301+00201999999ADDAW1301AW2621ED110U11009GA1021+000301999GA2041+007201999GA3081+009001999GF108991999999999999999999MA1102301999999REMMET112METAR LSMM 130450Z AUTO 00000KT 0900NDV R10/1100U R28/0900V1500U RA FG FEW001 SCT024 OVC030 03/02 Q1023 RMK RED;
0218066140999992011011305504+46750+008117FM-15+0579LSMM V0209999V00101001801CN0010001N1+00301+00301999999ADDED110U12009GA1021+000901999GA2041+001801999GA3071+009001999GF108991999999999999999999MA1102301999999REMMET106METAR LSMM 130550Z VRB02KT 1000 R10/1200VP2000U R28/P2000N RA FG FEW003 SCT006 BKN030 03/03 Q1023 RMK RED;
0222066140999992011011306504+46750+008117FM-15+0579LSMM V0209999V00051008101CN0013001N1+00301+00301999999ADDED110U10009GA1021+000601999GA2071+008101999GA3071+017401999GF108991999999999999999999MA1102301999999REMMET110METAR LSMM 130650Z VRB01KT 1300 R10/1000V1800U R28/P2000N -RABR BCFG FEW002 BKN027 BKN058 03/03 Q1023 RMK RED;
0230066140999992011011307504+46750+008117FM-15+0579LSMM V0201001N00151009301CN0006001N1+00401+00301999999ADDED110U07509GA1041+000301999GA2071+009301999GA3071+021901999GF108991999999999999999999MA1102301999999REMMET118METAR LSMM 130750Z 10003KT 060V160 0600 R10/0750V1000D R28/P2000U -SHRA BCFG SCT001 BKN031 BKN073 04/03 Q1023 RMK RED;
0227066140999992011011308454+46750+008117FM-15+0579LSMM V0201201N00211013201CN0005001N1+00401+00301999999ADDED110U05509GA1021+000901999GA2041+013201999GA3081+021001999GF108991999999999999999999MA1102301999999REMMET115METAR LSMM 130845Z 12004KT 080V150 0500 R10/0550V0800D R28/P2000U RA BCFG FEW003 SCT044 OVC070 04/03 Q1023 RMK RED;
0174066140999992011011309504+46750+008117FM-15+0579LSMM V0200801N00311021001CN0090001N1+00601+00501999999ADDGA1021+001501999GA2041+021001999GA3071+027001999GF107991999999999999999999MA1102201999999REMMET073METAR LSMM 130950Z 08006KT 9000 FEW005 SCT075 BKN097 06/05 Q1022 RMK WHT;
0144066140999992011011310504+46750+008117AUTO +0579LSMM V0202401N003112200019N0080001N1+00501+00401999999ADDGA1021+027001999GF102991999999999999999999MA1102301999999REMMET075METAR LSMM 131050Z AUTO 24006KT 210V270 8000NDV FEW091 05/04 Q1023 RMK BLU;
0174066140999992011011311504+46750+008117FM-15+0579LSMM V0209999V00101008701CN0112651N1+00601+00501999999ADDGA1021+001201999GA2041+008701999GA3081+036001999GF108991999999999999999999MA1102201999999REMMET073METAR LSMM 131150Z VRB02KT 9999 FEW004 SCT029 OVC120 06/05 Q1022 RMK WHT;
0159066140999992011011312504+46750+008117FM-15+0579LSMM V0201301N001510390019N0112651N1+00701+00601999999ADDGA1021+009001999GA2071+039001999GF107991999999999999999999MA1102101999999REMMET074METAR LSMM 131250Z 13003KT 090V150 9999 FEW030 BKN130 07/06 Q1021 RMK WHT;
0174066140999992011011313504+46750+008117FM-15+0579LSMM V0209999V00101030001CN0080001N1+00601+00501999999ADDGA1021+010201999GA2041+030001999GA3071+042001999GF107991999999999999999999MA1102101999999REMMET073METAR LSMM 131350Z VRB02KT 8000 FEW034 SCT100 BKN140 06/05 Q1021 RMK WHT;
0219066140999992011011314504+46750+008117FM-15+0579LSMM V0209999C00001027901CN0004501N1+00601+00501999999ADDED110U02759GA1021+023701999GA2041+027901999GA3071+048001999GF108991999999999999999999MA1102201999999REMMET107METAR LSMM 131450Z 00000KT 0450 R10/0275V0500D R28/P2000U BR BCFG FEW079 SCT093 BKN160 06/05 Q1022 RMK RED;
0199066140999992011011316504+46750+008117AUTO +0579LSMM V0209999V000510420019N0005001N1+00501+00401999999ADDAW1301ED110U05509GA1041+024001999GA2081+042001999GF108991999999999999999999MA1102201999999REMMET097METAR LSMM 131650Z AUTO VRB01KT 0500NDV R10/0550N R28/0750N FG SCT080 OVC140 05/04 Q1022 RMK RED;
0232066140999992011011317504+46750+008117FM-15+0579LSMM V0209999V00101022201CN0005501N1+00401+00301999999ADDAW1301ED110U06009GA1021+000301999GA2071+022201999GA3071+026401999GF108991999999999999999999MA1102201999999REMMET114METAR LSMM 131750Z AUTO VRB02KT 0550NDV R10/0600V1100U R28/0450V0800D FG FEW001 BKN074 BKN088 04/03 Q1022 RMK RED;
0207066140999992011011318504+46750+008117AUTO +0579LSMM V0201101N001510180019N0004001N1+00401+00301999999ADDAW1301ED110U04509GA1041+000301999GA2071+018001999GF107991999999999999999999MA1102201999999REMMET105METAR LSMM 131850Z AUTO 11003KT 040V140 0400NDV R10/0450N R28/0600N FG SCT001 BKN066 04/03 Q1022 RMK RED;
0189066140999992011011319504+46750+008117FM-15+0579LSMM V0201101N00151000301CN0003001N1+00401+00401999999ADDAW1301ED110U03009GA1071+000301999GF107991999999999999999999MA1102201999999REMMET103METAR LSMM 131950Z AUTO 11003KT 060V150 0300NDV R10/0300V0550N R28/0350N FG BKN001 04/04 Q1022 RMK RED;
0199066140999992011011320504+46750+008117AUTO +0579LSMM V0209999V000512200019N0004501N1+00401+00301999999ADDAW1301ED110U04509GA1041+000601999GA2041+018001999GF104991999999999999999999MA1102201999999REMMET097METAR LSMM 132050Z AUTO VRB01KT 0450NDV R10/0450N R28/0650N FG SCT002 SCT068 04/03 Q1022 RMK RED;
0181066140999992011011321504+46750+008117AUTO +0579LSMM V0209999V000512200019N0005501N1+00301+00201999999ADDAW1301ED110U06509GA1041+000301999GF104991999999999999999999MA1102201999999REMMET095METAR LSMM 132150Z AUTO VRB01KT 0550NDV R10/0650N R28/0600V0800N FG SCT001 03/02 Q1022 RMK RED;
0175066140999992011011322504+46750+008117AUTO +0579LSMM V0209999V001010003019N0003001N1+00301+00201999999ADDAW1301ED110U03009GA1091+000301999GF109991999999000251999999MA1102201999999REMMET089METAR LSMM 132250Z AUTO VRB02KT 0300NDV R10/0300N R28/0500D FG VV001 03/02 Q1022 RMK RED;
0180066140999992011011323504+46750+008117AUTO +0579LSMM V0209999V000510003019N0005001N1+00301+00201999999ADDAW1301ED110U06509GA1091+000301999GF109991999999000251999999MA1102201999999REMMET094METAR LSMM 132350Z AUTO VRB01KT 0500NDV R10/0650U R28/0800V1300U FG VV001 03/02 Q1022 RMK RED;
0143066140999992011011400504+46750+008117FM-15+0579LSMM V0209999V001012200019N0004001N1+00201+00101999999ADDAW1301ED110U04509MA1102201999999REMMET099METAR LSMM 140050Z AUTO VRB02KT 0400NDV R10/0450V0700N R28/0400V0550N FG VV001 02/01 Q1022 RMK RED;
0175066140999992011011401504+46750+008117AUTO +0579LSMM V0209999V001010003019N0004001N1+00301+00201999999ADDAW1301ED110U04509GA1091+000301999GF109991999999000251999999MA1102201999999REMMET089METAR LSMM 140150Z AUTO VRB02KT 0400NDV R10/0450N R28/0500N FG VV001 03/02 Q1022 RMK RED;
0176066140999992011011402504+46750+008117AUTO +0579LSMM V0209999V000510003019N0003001N1+00301+00201999999ADDAW1301ED110U03009GA1071+000301999GF107991999999999999999999MA1102201999999REMMET090METAR LSMM 140250Z AUTO VRB01KT 0300NDV R10/0300N R28/0375N FG BKN001 03/02 Q1022 RMK RED;
0175066140999992011011403504+46750+008117AUTO +0579LSMM V0209999C000010003019N0006001N1+00101+00101999999ADDAW1301ED110U07009GA1091+000301999GF109991999999000251999999MA1102201999999REMMET089METAR LSMM 140350Z AUTO 00000KT 0600NDV R10/0700N R28/0900U FG VV001 01/01 Q1022 RMK RED;
0180066140999992011011404504+46750+008117AUTO +0579LSMM V0209999V001010003019N0005001N1+00201+00201999999ADDAW1301ED110U05509GA1091+000301999GF109991999999000251999999MA1102201999999REMMET094METAR LSMM 140450Z AUTO VRB02KT 0500NDV R10/0550N R28/0500V0800D FG VV001 02/02 Q1022 RMK RED;
0196066140999992011011405504+46750+008117FM-15+0579LSMM V0209999C00001012001CN0004501N1+00201+00201999999ADDED110U03259GA1021+000601999GA2071+012001999GF108991999999999999999999MA1102201999999REMMET100METAR LSMM 140550Z 00000KT 0450 R10/0325V0550N R28/1000VP2000D FG FEW002 BKN040 02/02 Q1022 RMK RED;
0186066140999992011011406504+46750+008117FM-15+0579LSMM V0209999V001010087019N0050001N1+00201+00201999999ADDED110U15009GA1081+008701999GF108991999999999999999999MA1102301999999MW1101MW2411REMMET094METAR LSMM 140650Z VRB02KT 5000 1200W R10/1500U R28/P2000N BR BCFG OVC029 02/02 Q1023 RMK GRN;
0143066140999992011011407504+46750+008117FM-15+0579LSMM V0209999V000510096019N0042001N1+00301+00201999999ADDGA1081+009601999GF108991999999999999999999MA1102301999999MW1101REMMET068METAR LSMM 140750Z VRB01KT 4200 2000W BR OVC032 03/02 Q1023 RMK GRN;
0151066140999992011011408504+46750+008117FM-15+0579LSMM V0209999C000010093019N0070001N1+00401+00301999999ADDGA1021+000901999GA2071+009301999GF107991999999999999999999MA1102201999999REMMET066METAR LSMM 140850Z 00000KT 7000 FEW003 BKN031 04/03 Q1022 RMK GRN;
0128066140999992011011409504+46750+008117FM-15+0579LSMM V0209999C000010084019N0080001N1+00401+00401999999ADDGA1081+008401999GF108991999999999999999999MA1102201999999REMMET059METAR LSMM 140950Z 00000KT 8000 OVC028 04/04 Q1022 RMK WHT;
0179066140999992011011411504+46750+008117FM-15+0579LSMM V0209999V001012200019N0050001N1+00501+00401999999ADDED110U05509GA1041+036001999GF104991999999999999999999MA1102101999999REMMET099METAR LSMM 141150Z VRB02KT 5000 0300W R10/0550V0900U R28/P2000D BCFG BR SCT120 05/04 Q1021 RMK GRN;
0160066140999992011011412504+46750+008117FM-15+0579LSMM V0209999V001012200019N0050001N1+00401+00401999999ADDGA1021+009001999GA2041+054001999GF104991999999999999999999MA1102001999999MW1101REMMET069METAR LSMM 141250Z VRB02KT 5000 BR FEW030 SCT180 04/04 Q1020 RMK GRN;
0128066140999992011011413504+46750+008117FM-15+0579LSMM V0209999V001012200019N0080001N1+00401+00401999999ADDGA1021+008101999GF102991999999999999999999MA1102001999999REMMET059METAR LSMM 141350Z VRB02KT 8000 FEW027 04/04 Q1020 RMK YLO;
0128066140999992011011414504+46750+008117FM-15+0579LSMM V0209999V000512200019N0070001N1+00401+00301999999ADDGA1041+008101999GF104991999999999999999999MA1102001999999REMMET059METAR LSMM 141450Z VRB01KT 7000 SCT027 04/03 Q1020 RMK GRN;
0144066140999992011011415504+46750+008117AUTO +0579LSMM V0200901N002110084019N0050001N1+00501+00401999999ADDGA1081+008401999GF108991999999999999999999MA1102101999999REMMET075METAR LSMM 141550Z AUTO 09004KT 060V130 5000NDV OVC028 05/04 Q1021 RMK GRN;
0136066140999992011011416504+46750+008117AUTO +0579LSMM V0209999V001010078019N0112651N1+00401+00301999999ADDGA1071+007801999GF107991999999999999999999MA1102001999999REMMET067METAR LSMM 141650Z AUTO VRB02KT 9999NDV BKN026 04/03 Q1020 RMK WHT;
0117066140999992011011417504+46750+008117AUTO +0579LSMM V0201001N002112200019N0026001N1+00101+00101999999ADDGF100991999999999999999999MA1102001999999REMMET064METAR LSMM 141750Z AUTO 10004KT 2600NDV NCD 01/01 Q1020 RMK YLO;
0117066140999992011011418504+46750+008117AUTO +0579LSMM V0209999V001012200019N0070001N1+00201+00201999999ADDGF100991999999999999999999MA1102001999999REMMET064METAR LSMM 141850Z AUTO VRB02KT 7000NDV NCD 02/02 Q1020 RMK GRN;
0117066140999992011011419504+46750+008117AUTO +0579LSMM V0201201N001012200019N0070001N1+00101+00101999999ADDGF100991999999999999999999MA1102001999999REMMET064METAR LSMM 141950Z AUTO 12002KT 7000NDV NCD 01/01 Q1020 RMK GRN;
0137066140999992011011420504+46750+008117AUTO +0579LSMM V0200901N002110066019N0030001N1+00001+00001999999ADDGA1071+006601999GF107991999999999999999999MA1102001999999REMMET068METAR LSMM 142050Z AUTO 09004KT 3000NDV BKN022 00/M00 Q1020 RMK GRN;
0136066140999992011011421504+46750+008117AUTO +0579LSMM V0209999V001012200019N0112651N1+00101+00001999999ADDGA1021+007501999GF102991999999999999999999MA1102101999999REMMET067METAR LSMM 142150Z AUTO VRB02KT 9999NDV FEW025 01/00 Q1021 RMK BLU;
0145066140999992011011422504+46750+008117AUTO +0579LSMM V0201101N002612200019N0060001N1+00001+00001999999ADDGA1021+006901999GF102991999999999999999999MA1102201999999REMMET076METAR LSMM 142250Z AUTO 11005KT 060V150 6000NDV FEW023 00/M00 Q1022 RMK GRN;
0190066140999992011011423504+46750+008117AUTO +0579LSMM V0203001N001510450019N0112651N1+00101+00001999999ADDGA1021+007201999GA2071+045001999GA3071+054001999GF107991999999999999999999MA1102301999999REMMET089METAR LSMM 142350Z AUTO 30003KT 240V020 9999NDV FEW024 BKN150 BKN180 01/00 Q1023 RMK WHT;
0190066140999992011011500504+46750+008117AUTO +0579LSMM V0201001N003610240019N0112651N1+00101+00101999999ADDGA1021+001501999GA2071+024001999GA3071+042001999GF107991999999999999999999MA1102301999999REMMET089METAR LSMM 150050Z AUTO 10007KT 070V140 9999NDV FEW005 BKN085 BKN140 01/01 Q1023 RMK WHT;
0169066140999992011011501504+46750+008117AUTO +0579LSMM V0209999V001010150019N0112651N1+00201+00101999999ADDAW1611GA1071+015001999GA2081+021001999GF108991999999999999999999MA1102401999999REMMET078METAR LSMM 150150Z AUTO VRB02KT 9999NDV -RA BKN051 OVC071 02/01 Q1024 RMK WHT;
0159066140999992011011502504+46750+008117AUTO +0579LSMM V0209999V002610150019N0112651N1+00201+00101999999ADDGA1071+015001999GA2081+021001999GF108991999999999999999999MA1102401999999REMMET074METAR LSMM 150250Z AUTO VRB05KT 9999NDV BKN058 OVC073 02/01 Q1024 RMK WHT;
0148066140999992011011503504+46750+008117AUTO +0579LSMM V0209999V001010150019N0112651N1+00201+00101999999ADDAW1811GA1081+015001999GF108991999999999999999999MA1102511999999REMMET073METAR LSMM 150350Z AUTO VRB02KT 9999NDV -SHRA OVC050 02/01 Q1025 RMK WHT;
0202066140999992011011504504+46750+008117AUTO +0579LSMM V0201201N00151013201CN0112651N1+00201+00101999999ADDAW1811GA1021+002701999GA2041+013201999GA3081+015001999GF108991999999999999999999MA1102611999999REMMET095METAR LSMM 150450Z AUTO 12003KT 070V150 9999NDV -SHRA FEW009 SCT044 OVC050 02/01 Q1026 RMK WHT;
0159066140999992011011505504+46750+008117AUTO +0579LSMM V0209999V001010141019N0112651N1+00201+00201999999ADDGA1021+001201999GA2071+014101999GF107991999999999999999999MA1102711999999REMMET074METAR LSMM 150550Z AUTO VRB02KT 9999NDV FEW004 BKN047 02/02 Q1027 RMK WHT;
0167066140999992011011506504+46750+008117AUTO +0579LSMM V0201001N002612200019N0112651N1+00201+00101999999ADDGA1021+006001999GA2041+013501999GF104991999999999999999999MA1102811999999REMMET082METAR LSMM 150650Z AUTO 10005KT 070V130 9999NDV FEW020 SCT045 02/01 Q1028 RMK BLU;
0159066140999992011011507504+46750+008117AUTO +0579LSMM V0209999V000510078019N0060001N1+00201+00201999999ADDGA1071+007801999GA2071+013501999GF107991999999999999999999MA1102811999999REMMET074METAR LSMM 150750Z AUTO VRB01KT 6000NDV BKN026 BKN045 02/02 Q1028 RMK GRN;
0197066140999992011011508504+46750+008117AUTO +0579LSMM V0209999V00051012901CN0008001N1+00301+00201999999ADDED110U13009GA1041+010501999GA2071+012901999GF108991999999999999999999MA1102801999999REMMET101METAR LSMM 150850Z AUTO VRB01KT 0800NDV R10/1300VP2000D R28/P2000D SCT035 BKN043 03/02 Q1028 RMK RED;
0142066140999992011011509504+46750+008117FM-15+0579LSMM V0209999V001012200019N0003001N1+00101+00101999999ADDAW1301ED110U08009MA1102801999999REMMET098METAR LSMM 150950Z AUTO VRB02KT 0300NDV R10/0800VP2000D R28/0325V0550N FG NCD 01/01 Q1028 RMK RED;
0181066140999992011011510504+46750+008117AUTO +0579LSMM V0209999C000012200019N0003001N1+00201+00101999999ADDAW1301ED110U04009GA1021+000301999GF102991999999999999999999MA1102811999999REMMET095METAR LSMM 151050Z AUTO 00000KT 0300NDV R10/0400N R28/0400V0550N FG FEW001 02/01 Q1028 RMK RED;
0142066140999992011011511504+46750+008117FM-15+0579LSMM V0209999C000012200019N0004501N1+00201+00201999999ADDAW1301ED110U04009MA1102701999999REMMET098METAR LSMM 151150Z AUTO 00000KT 0450NDV R10/0400V1300D R28/0750VP2000U FG NCD 02/02 Q1027 RMK RED;
0136066140999992011011512504+46750+008117AUTO +0579LSMM V0201201N001512200019N0112651N1+00301+00201999999ADDGA1021+015001999GF102991999999999999999999MA1102711999999REMMET067METAR LSMM 151250Z AUTO 12003KT 9999NDV FEW054 03/02 Q1027 RMK BLU;
0117066140999992011011513504+46750+008117AUTO +0579LSMM V0209999V000512200019N0112651N1+00401+00401999999ADDGF100991999999999999999999MA1102711999999REMMET064METAR LSMM 151350Z AUTO VRB01KT 9999NDV NCD 04/04 Q1027 RMK BLU;
0117066140999992011011514504+46750+008117AUTO +0579LSMM V0209999V001012200019N0112651N1+00401+00301999999ADDGF100991999999999999999999MA1102711999999REMMET064METAR LSMM 151450Z AUTO VRB02KT 9999NDV NCD 04/03 Q1027 RMK BLU;
0125066140999992011011515504+46750+008117AUTO +0579LSMM V0200501N001512200019N0112651N1+00401+00301999999ADDGF100991999999999999999999MA1102811999999REMMET072METAR LSMM 151550Z AUTO 05003KT 350V100 9999NDV NCD 04/03 Q1028 RMK BLU;
0117066140999992011011516504+46750+008117AUTO +0579LSMM V0209999C000012200019N0024001N1+00201+00101999999ADDGF100991999999999999999999MA1102811999999REMMET064METAR LSMM 151650Z AUTO 00000KT 2400NDV NCD 02/01 Q1028 RMK YLO;
0118066140999992011011517504+46750+008117AUTO +0579LSMM V0209999V001012200019N0050001N1+00101+00001999999ADDGF100991999999999999999999MA1102811999999REMMET065METAR LSMM 151750Z AUTO VRB02KT 5000NDV NCD 01/M00 Q1028 RMK GRN;
0118066140999992011011518504+46750+008117AUTO +0579LSMM V0209999C000012200019N0035001N1+00101+00001999999ADDGF100991999999999999999999MA1102811999999REMMET065METAR LSMM 151850Z AUTO 00000KT 3500NDV NCD 01/M00 Q1028 RMK GRN;
0128066140999992011011519504+46750+008117AUTO +0579LSMM V0209999V000512200019N0070001N1+00001-00101999999ADDAW1101GF100991999999999999999999MA1102911999999REMMET069METAR LSMM 151950Z AUTO VRB01KT 7000NDV BR NCD M00/M01 Q1029 RMK GRN;
0119066140999992011011520504+46750+008117AUTO +0579LSMM V0209999V001012200019N0070001N1-00101-00101999999ADDGF100991999999999999999999MA1102911999999REMMET066METAR LSMM 152050Z AUTO VRB02KT 7000NDV NCD M01/M01 Q1029 RMK GRN;
0119066140999992011011521504+46750+008117AUTO +0579LSMM V0209999V001012200019N0112651N1-00101-00101999999ADDGF100991999999999999999999MA1102911999999REMMET066METAR LSMM 152150Z AUTO VRB02KT 9999NDV NCD M01/M01 Q1029 RMK BLU;
0119066140999992011011522504+46750+008117AUTO +0579LSMM V0209999C000012200019N0112651N1+00001-00101999999ADDGF100991999999999999999999MA1102811999999REMMET066METAR LSMM 152250Z AUTO 00000KT 9999NDV NCD M00/M01 Q1028 RMK BLU;
0127066140999992011011523504+46750+008117AUTO +0579LSMM V0201001N002612200019N0112651N1-00201-00201999999ADDGF100991999999999999999999MA1102811999999REMMET074METAR LSMM 152350Z AUTO 10005KT 080V140 9999NDV NCD M02/M02 Q1028 RMK BLU;
0119066140999992011011600504+46750+008117AUTO +0579LSMM V0209999C000012200019N0112651N1-00101-00201999999ADDGF100991999999999999999999MA1102811999999REMMET066METAR LSMM 160050Z AUTO 00000KT 9999NDV NCD M01/M02 Q1028 RMK BLU;
0119066140999992011011601504+46750+008117AUTO +0579LSMM V0209999C000012200019N0112651N1-00201-00201999999ADDGF100991999999999999999999MA1102711999999REMMET066METAR LSMM 160150Z AUTO 00000KT 9999NDV NCD M02/M02 Q1027 RMK BLU;
0119066140999992011011602504+46750+008117AUTO +0579LSMM V0209999C000012200019N0112651N1-00201-00201999999ADDGF100991999999999999999999MA1102811999999REMMET066METAR LSMM 160250Z AUTO 00000KT 9999NDV NCD M02/M02 Q1028 RMK BLU;
0119066140999992011011603504+46750+008117AUTO +0579LSMM V0200901N002112200019N0112651N1-00201-00301999999ADDGF100991999999999999999999MA1102811999999REMMET066METAR LSMM 160350Z AUTO 09004KT 9999NDV NCD M02/M03 Q1028 RMK BLU;
0119066140999992011011604504+46750+008117AUTO +0579LSMM V0209999V000512200019N0112651N1-00201-00301999999ADDGF100991999999999999999999MA1102711999999REMMET066METAR LSMM 160450Z AUTO VRB01KT 9999NDV NCD M02/M03 Q1027 RMK BLU;
0119066140999992011011605504+46750+008117AUTO +0579LSMM V0209999V001012200019N0112651N1-00301-00301999999ADDGF100991999999999999999999MA1102711999999REMMET066METAR LSMM 160550Z AUTO VRB02KT 9999NDV NCD M03/M03 Q1027 RMK BLU;
0119066140999992011011606504+46750+008117AUTO +0579LSMM V0209999V001012200019N0112651N1-00201-00301999999ADDGF100991999999999999999999MA1102711999999REMMET066METAR LSMM 160650Z AUTO VRB02KT 9999NDV NCD M02/M03 Q1027 RMK BLU;
0119066140999992011011607504+46750+008117AUTO +0579LSMM V0200901N002112200019N0112651N1-00301-00301999999ADDGF100991999999999999999999MA1102911999999REMMET066METAR LSMM 160750Z AUTO 09004KT 9999NDV NCD M03/M03 Q1029 RMK BLU;
0119066140999992011011608504+46750+008117AUTO +0579LSMM V0201201N003112200019N0112651N1-00101-00201999999ADDGF100991999999999999999999MA1102911999999REMMET066METAR LSMM 160850Z AUTO 12006KT 9999NDV NCD M01/M02 Q1029 RMK BLU;
0119066140999992011011609504+46750+008117AUTO +0579LSMM V0209999C000012200019N0112651N1-00101-00201999999ADDGF100991999999999999999999MA1102911999999REMMET066METAR LSMM 160950Z AUTO 00000KT 9999NDV NCD M01/M02 Q1029 RMK BLU;
0119066140999992011011610504+46750+008117AUTO +0579LSMM V0209999V001012200019N0112651N1-00101-00201999999ADDGF100991999999999999999999MA1102811999999REMMET066METAR LSMM 161050Z AUTO VRB02KT 9999NDV NCD M01/M02 Q1028 RMK BLU;
0118066140999992011011611504+46750+008117AUTO +0579LSMM V0202701N001012200019N0112651N1+00001-00101999999ADDGF100991999999999999999999MA1102811999999REMMET065METAR LSMM 161150Z AUTO 27002KT 9999NDV NCD 00/M01 Q1028 RMK BLU;
0118066140999992011011612504+46750+008117AUTO +0579LSMM V0209999C000012200019N0112651N1+00001+00001999999ADDGF100991999999999999999999MA1102711999999REMMET065METAR LSMM 161250Z AUTO 00000KT 9999NDV NCD 00/M00 Q1027 RMK BLU;
0138066140999992011011613504+46750+008117AUTO +0579LSMM V0209999C000012200019N0112651N1+00001-00101999999ADDGA1021+018001999GF102991999999999999999999MA1102611999999REMMET069METAR LSMM 161350Z AUTO 00000KT 9999NDV FEW069 M00/M01 Q1026 RMK BLU;
0138066140999992011011614504+46750+008117AUTO +0579LSMM V0209999V000512200019N0112651N1+00001-00101999999ADDGA1021+018001999GF102991999999999999999999MA1102611999999REMMET069METAR LSMM 161450Z AUTO VRB01KT 9999NDV FEW064 M00/M01 Q1026 RMK BLU;
0127066140999992011011615504+46750+008117AUTO +0579LSMM V0201001N002112200019N0112651N1-00101-00201999999ADDGF100991999999999999999999MA1102611999999REMMET074METAR LSMM 161550Z AUTO 10004KT 050V120 9999NDV NCD M01/M02 Q1026 RMK BLU;
0119066140999992011011616504+46750+008117AUTO +0579LSMM V0209999V001012200019N0112651N1-00101-00201999999ADDGF100991999999999999999999MA1102711999999REMMET066METAR LSMM 161650Z AUTO VRB02KT 9999NDV NCD M01/M02 Q1027 RMK BLU;
0119066140999992011011617504+46750+008117AUTO +0579LSMM V0201001N002612200019N0112651N1-00201-00201999999ADDGF100991999999999999999999MA1102811999999REMMET066METAR LSMM 161750Z AUTO 10005KT 9999NDV NCD M02/M02 Q1028 RMK BLU;
0126066140999992011011618504+46750+008117AUTO +0579LSMM V0201101N002112200019N0112651N1+00001-00101999999ADDGF100991999999999999999999MA1102711999999REMMET073METAR LSMM 161850Z AUTO 11004KT 080V140 9999NDV NCD 00/M01 Q1027 RMK BLU;
0119066140999992011011619504+46750+008117AUTO +0579LSMM V0209999C000012200019N0112651N1-00101-00201999999ADDGF100991999999999999999999MA1102711999999REMMET066METAR LSMM 161950Z AUTO 00000KT 9999NDV NCD M01/M02 Q1027 RMK BLU;
0119066140999992011011620504+46750+008117AUTO +0579LSMM V0200901N002112200019N0112651N1-00201-00301999999ADDGF100991999999999999999999MA1102811999999REMMET066METAR LSMM 162050Z AUTO 09004KT 9999NDV NCD M02/M03 Q1028 RMK BLU;
0119066140999992011011621504+46750+008117AUTO +0579LSMM V0209999C000012200019N0112651N1-00201-00301999999ADDGF100991999999999999999999MA1102811999999REMMET066METAR LSMM 162150Z AUTO 00000KT 9999NDV NCD M02/M03 Q1028 RMK BLU;
0119066140999992011011622504+46750+008117AUTO +0579LSMM V0200801N001512200019N0112651N1-00301-00401999999ADDGF100991999999999999999999MA1102811999999REMMET066METAR LSMM 162250Z AUTO 08003KT 9999NDV NCD M03/M04 Q1028 RMK BLU;
0119066140999992011011623504+46750+008117AUTO +0579LSMM V0209999C000012200019N0090001N1-00301-00301999999ADDGF100991999999999999999999MA1102811999999REMMET066METAR LSMM 162350Z AUTO 00000KT 9000NDV NCD M03/M03 Q1028 RMK BLU;
0119066140999992011011700504+46750+008117AUTO +0579LSMM V0209999C000012200019N0035001N1-00301-00401999999ADDGF100991999999999999999999MA1102811999999REMMET066METAR LSMM 170050Z AUTO 00000KT 3500NDV NCD M03/M04 Q1028 RMK GRN;
0119066140999992011011701504+46750+008117AUTO +0579LSMM V0201001N001512200019N0022001N1-00301-00401999999ADDGF100991999999999999999999MA1102711999999REMMET066METAR LSMM 170150Z AUTO 10003KT 2200NDV NCD M03/M04 Q1027 RMK YLO;
0119066140999992011011702504+46750+008117AUTO +0579LSMM V0209999C000012200019N0070001N1-00301-00401999999ADDGF100991999999999999999999MA1102711999999REMMET066METAR LSMM 170250Z AUTO 00000KT 7000NDV NCD M03/M04 Q1027 RMK GRN;
0152066140999992011011703504+46750+008117AUTO +0579LSMM V0209999V001012200019N0014001N1-00401-00401999999ADDED110U20009GF100991999999999999999999MA1102711999999REMMET088METAR LSMM 170350Z AUTO VRB02KT 1400NDV R10/P2000N R28/P2000N NCD M04/M04 Q1027 RMK RED;
0119066140999992011011704504+46750+008117AUTO +0579LSMM V0209999C000012200019N0112651N1-00301-00401999999ADDGF100991999999999999999999MA1102611999999REMMET066METAR LSMM 170450Z AUTO 00000KT 9999NDV NCD M03/M04 Q1026 RMK BLU;
0082066140999992011011705504+46750+008117FM-15+0579LSMM V0209999C000019999999Y0099001N1-00301-00401999999ADDMA1102611999999REMMET055METAR LSMM 170550Z 00000KT CAVOK M03/M04 Q1026 RMK BLU;
0082066140999992011011706504+46750+008117FM-15+0579LSMM V0200901N003119999999Y0099001N1-00101-00201999999ADDMA1102611999999REMMET055METAR LSMM 170650Z 09006KT CAVOK M01/M02 Q1026 RMK BLU;
0082066140999992011011707504+46750+008117FM-15+0579LSMM V0202701N000519999999Y0099001N1-00301-00401999999ADDMA1102611999999REMMET055METAR LSMM 170750Z 27001KT CAVOK M03/M04 Q1026 RMK BLU;
0111066140999992011011708504+46750+008117FM-15+0579LSMM V0209999C000012200019N0080001N1-00301-00401999999ADDGF100991999999999999999999MA1102611999999REMMET058METAR LSMM 170850Z 00000KT 8000 NSC M03/M04 Q1026 RMK BLU;
0111066140999992011011709504+46750+008117FM-15+0579LSMM V0209999V001012200019N0080001N1-00301-00401999999ADDGF100991999999999999999999MA1102611999999REMMET058METAR LSMM 170950Z VRB02KT 8000 NSC M03/M04 Q1026 RMK BLU;
0081066140999992011011711504+46750+008117FM-15+0579LSMM V0201001N003119999999Y0099001N1+00101+00001999999ADDMA1102711999999REMMET054METAR LSMM 171150Z 10006KT CAVOK 01/M00 Q1027 RMK BLU;
0081066140999992011011712504+46750+008117FM-15+0579LSMM V0209999V001519999999Y0099001N1+00101-00201999999ADDMA1102611999999REMMET054METAR LSMM 171250Z VRB03KT CAVOK 01/M02 Q1026 RMK BLU;
0081066140999992011011713504+46750+008117FM-15+0579LSMM V0209999V001019999999Y0099001N1+00101-00101999999ADDMA1102611999999REMMET054METAR LSMM 171350Z VRB02KT CAVOK 01/M01 Q1026 RMK BLU;
0081066140999992011011714504+46750+008117FM-15+0579LSMM V0200901N002119999999Y0099001N1+00001-00101999999ADDMA1102611999999REMMET054METAR LSMM 171450Z 09004KT CAVOK 00/M01 Q1026 RMK BLU;
0119066140999992011011715504+46750+008117AUTO +0579LSMM V0209999V001012200019N0112651N1+00001-00201999999ADDGF100991999999999999999999MA1102711999999REMMET066METAR LSMM 171550Z AUTO VRB02KT 9999NDV NCD M00/M02 Q1027 RMK BLU;
0119066140999992011011716504+46750+008117AUTO +0579LSMM V0201101N001512200019N0112651N1-00201-00301999999ADDGF100991999999999999999999MA1102711999999REMMET066METAR LSMM 171650Z AUTO 11003KT 9999NDV NCD M02/M03 Q1027 RMK BLU;
0119066140999992011011717504+46750+008117AUTO +0579LSMM V0209999V000512200019N0112651N1-00101-00201999999ADDGF100991999999999999999999MA1102711999999REMMET066METAR LSMM 171750Z AUTO VRB01KT 9999NDV NCD M01/M02 Q1027 RMK BLU;
0119066140999992011011718504+46750+008117AUTO +0579LSMM V0200901N002112200019N0112651N1-00201-00301999999ADDGF100991999999999999999999MA1102811999999REMMET066METAR LSMM 171850Z AUTO 09004KT 9999NDV NCD M02/M03 Q1028 RMK BLU;
0138066140999992011011719504+46750+008117AUTO +0579LSMM V0209999C000012200019N0112651N1-00101-00201999999ADDGA1021+069001999GF102991999999999999999999MA1102811999999REMMET069METAR LSMM 171950Z AUTO 00000KT 9999NDV FEW230 M01/M02 Q1028 RMK BLU;
0146066140999992011011720504+46750+008117AUTO +0579LSMM V0200601N001512200019N0112651N1-00301-00301999999ADDGA1021+063001999GF102991999999999999999999MA1102811999999REMMET077METAR LSMM 172050Z AUTO 06003KT 020V090 9999NDV FEW210 M03/M03 Q1028 RMK BLU;
0138066140999992011011721504+46750+008117AUTO +0579LSMM V0209999V001012200019N0112651N1-00301-00401999999ADDGA1021+060001999GF102991999999999999999999MA1102811999999REMMET069METAR LSMM 172150Z AUTO VRB02KT 9999NDV FEW200 M03/M04 Q1028 RMK BLU;
0127066140999992011011722504+46750+008117AUTO +0579LSMM V0200801N001512200019N0112651N1-00301-00301999999ADDGF100991999999999999999999MA1102811999999REMMET074METAR LSMM 172250Z AUTO 08003KT 060V120 9999NDV NCD M03/M03 Q1028 RMK BLU;
0138066140999992011011723504+46750+008117AUTO +0579LSMM V0209999V001012200019N0112651N1-00301-00401999999ADDGA1021+060001999GF102991999999999999999999MA1102711999999REMMET069METAR LSMM 172350Z AUTO VRB02KT 9999NDV FEW200 M03/M04 Q1027 RMK BLU;
0119066140999992011011800504+46750+008117AUTO +0579LSMM V0209999V001512200019N0112651N1-00301-00401999999ADDGF100991999999999999999999MA1102811999999REMMET066METAR LSMM 180050Z AUTO VRB03KT 9999NDV NCD M03/M04 Q1028 RMK BLU;
0127066140999992011011801504+46750+008117AUTO +0579LSMM V0201001N001512200019N0112651N1-00201-00301999999ADDGF100991999999999999999999MA1102811999999REMMET074METAR LSMM 180150Z AUTO 10003KT 020V120 9999NDV NCD M02/M03 Q1028 RMK BLU;
0119066140999992011011802504+46750+008117AUTO +0579LSMM V0209999V000512200019N0112651N1-00401-00401999999ADDGF100991999999999999999999MA1102711999999REMMET066METAR LSMM 180250Z AUTO VRB01KT 9999NDV NCD M04/M04 Q1027 RMK BLU;
0119066140999992011011803504+46750+008117AUTO +0579LSMM V0209999V001012200019N0112651N1-00301-00401999999ADDGF100991999999999999999999MA1102711999999REMMET066METAR LSMM 180350Z AUTO VRB02KT 9999NDV NCD M03/M04 Q1027 RMK BLU;
0119066140999992011011804504+46750+008117AUTO +0579LSMM V0209999V001012200019N0112651N1-00301-00401999999ADDGF100991999999999999999999MA1102611999999REMMET066METAR LSMM 180450Z AUTO VRB02KT 9999NDV NCD M03/M04 Q1026 RMK BLU;
0130066140999992011011805504+46750+008117FM-15+0579LSMM V0200901N001512200019N0112651N1-00401-00501999999ADDGA1021+030001999GF102991999999999999999999MA1102611999999REMMET061METAR LSMM 180550Z 09003KT 9999 FEW100 M04/M05 Q1026 RMK BLU;
0130066140999992011011806504+46750+008117FM-15+0579LSMM V0201001N001012200019N0112651N1-00401-00501999999ADDGA1041+027001999GF104991999999999999999999MA1102711999999REMMET061METAR LSMM 180650Z 10002KT 9999 SCT094 M04/M05 Q1027 RMK BLU;
0130066140999992011011807504+46750+008117FM-15+0579LSMM V0209999V001510270019N0112651N1-00101-00201999999ADDGA1071+027001999GF107991999999999999999999MA1102811999999REMMET061METAR LSMM 180750Z VRB03KT 9999 BKN097 M01/M02 Q1028 RMK WHT;
0129066140999992011011808504+46750+008117FM-15+0579LSMM V0201301N002612200019N0112651N1+00001-00201999999ADDGA1041+027001999GF104991999999999999999999MA1102711999999REMMET060METAR LSMM 180850Z 13005KT 9999 SCT099 00/M02 Q1027 RMK BLU;
0130066140999992011011809504+46750+008117FM-15+0579LSMM V0209999V001010270019N0112651N1+00001-00201999999ADDGA1071+027001999GF107991999999999999999999MA1102611999999REMMET061METAR LSMM 180950Z VRB02KT 9999 BKN097 M00/M02 Q1026 RMK WHT;
0137066140999992011011810504+46750+008117FM-15+0579LSMM V0203101N001510450019N0112651N1+00301-00101999999ADDGA1071+045001999GF107991999999999999999999MA1102611999999REMMET068METAR LSMM 181050Z 31003KT 240V330 9999 BKN150 03/M01 Q1026 RMK WHT;
0129066140999992011011811504+46750+008117FM-15+0579LSMM V0209999C000012200019N0112651N1+00301-00101999999ADDGA1041+045001999GF104991999999999999999999MA1102511999999REMMET060METAR LSMM 181150Z 00000KT 9999 SCT150 03/M01 Q1025 RMK BLU;
0159066140999992011011812504+46750+008117FM-15+0579LSMM V0203001N001510450019N0112651N1+00301+00101999999ADDGA1021+030001999GA2071+045001999GF107991999999999999999999MA1102511999999REMMET074METAR LSMM 181250Z 30003KT 260V320 9999 FEW100 BKN150 03/01 Q1025 RMK WHT;
0151066140999992011011813504+46750+008117FM-15+0579LSMM V0209999V001010450019N0112651N1+00501+00001999999ADDGA1021+030001999GA2071+045001999GF107991999999999999999999MA1102511999999REMMET066METAR LSMM 181350Z VRB02KT 9999 FEW100 BKN150 05/00 Q1025 RMK WHT;
0159066140999992011011814504+46750+008117FM-15+0579LSMM V0201001N002610450019N0112651N1+00601+00001999999ADDGA1021+030001999GA2071+045001999GF107991999999999999999999MA1102511999999REMMET074METAR LSMM 181450Z 10005KT 070V140 9999 FEW100 BKN150 06/00 Q1025 RMK WHT;
0168066140999992011011815504+46750+008117AUTO +0579LSMM V0202901N002110210019N0112651N1+00401+00001999999ADDGA1071+021001999GA2071+027001999GF107991999999999999999999MA1102511999999REMMET083METAR LSMM 181550Z AUTO 29004KT 230V330 9999NDV BKN071 BKN095 04/M00 Q1025 RMK WHT;
0160066140999992011011816504+46750+008117AUTO +0579LSMM V0200901N002610210019N0112651N1+00301+00001999999ADDGA1071+021001999GA2081+024001999GF108991999999999999999999MA1102511999999REMMET075METAR LSMM 181650Z AUTO 09005KT 9999NDV BKN074 OVC084 03/M00 Q1025 RMK WHT;
0137066140999992011011817504+46750+008117AUTO +0579LSMM V0209999V001010210019N0112651N1+00201+00001999999ADDGA1071+021001999GF107991999999999999999999MA1102511999999REMMET068METAR LSMM 181750Z AUTO VRB02KT 9999NDV BKN077 02/M00 Q1025 RMK WHT;
0191066140999992011011818504+46750+008117AUTO +0579LSMM V0201101N00151021001CN0112651N1+00101-00101999999ADDGA1041+015001999GA2071+015001999GA3071+021001999GF107991999999999999999999MA1102611999999REMMET090METAR LSMM 181850Z AUTO 11003KT 050V140 9999NDV SCT051 BKN058 BKN071 01/M01 Q1026 RMK WHT;
0183066140999992011011819504+46750+008117AUTO +0579LSMM V0209999C000010132019N0112651N1+00101-00101999999ADDGA1071+013201999GA2071+015001999GA3081+015001999GF108991999999999999999999MA1102611999999REMMET082METAR LSMM 181950Z AUTO 00000KT 9999NDV BKN044 BKN050 OVC057 01/M01 Q1026 RMK WHT;
0168066140999992011011820504+46750+008117AUTO +0579LSMM V0201001N001510123019N0112651N1+00101-00101999999ADDGA1021+010801999GA2081+012301999GF108991999999999999999999MA1102611999999REMMET083METAR LSMM 182050Z AUTO 10003KT 070V150 9999NDV FEW036 OVC041 01/M01 Q1026 RMK WHT;
0183066140999992011011821504+46750+008117AUTO +0579LSMM V0209999V001010129019N0112651N1+00201+00001999999ADDGA1041+010501999GA2071+012901999GA3081+015001999GF108991999999999999999999MA1102611999999REMMET082METAR LSMM 182150Z AUTO VRB02KT 9999NDV SCT035 BKN043 OVC051 02/M00 Q1026 RMK WHT;
0160066140999992011011822504+46750+008117AUTO +0579LSMM V0209999C000010117019N0112651N1+00101+00001999999ADDGA1041+009901999GA2081+011701999GF108991999999999999999999MA1102611999999REMMET075METAR LSMM 182250Z AUTO 00000KT 9999NDV SCT033 OVC039 01/M00 Q1026 RMK WHT;
0137066140999992011011823504+46750+008117AUTO +0579LSMM V0209999V001010111019N0112651N1+00101+00001999999ADDGA1081+011101999GF108991999999999999999999MA1102611999999REMMET068METAR LSMM 182350Z AUTO VRB02KT 9999NDV OVC037 01/M00 Q1026 RMK WHT;
0182066140999992011011900504+46750+008117AUTO +0579LSMM V0209999C000010129019N0112651N1+00201+00001999999ADDGA1041+009601999GA2071+012901999GA3081+015001999GF108991999999999999999999MA1102611999999REMMET081METAR LSMM 190050Z AUTO 00000KT 9999NDV SCT032 BKN043 OVC055 02/00 Q1026 RMK WHT;
0160066140999992011011901504+46750+008117AUTO +0579LSMM V0209999V001010147019N0112651N1+00101+00001999999ADDGA1041+011701999GA2081+014701999GF108991999999999999999999MA1102611999999REMMET075METAR LSMM 190150Z AUTO VRB02KT 9999NDV SCT039 OVC049 01/M00 Q1026 RMK WHT;
0160066140999992011011902504+46750+008117AUTO +0579LSMM V0209999V000510150019N0112651N1+00101+00001999999ADDGA1071+015001999GA2081+015001999GF108991999999999999999999MA1102611999999REMMET075METAR LSMM 190250Z AUTO VRB01KT 9999NDV BKN050 OVC058 01/M00 Q1026 RMK WHT;
0191066140999992011011903504+46750+008117AUTO +0579LSMM V0202501N00211012901CN0112651N1+00201+00001999999ADDGA1021+007501999GA2041+012901999GA3071+018001999GF107991999999999999999999MA1102611999999REMMET090METAR LSMM 190350Z AUTO 25004KT 230V290 9999NDV FEW025 SCT043 BKN062 02/M00 Q1026 RMK WHT;
0183066140999992011011904504+46750+008117AUTO +0579LSMM V0209999V001010141019N0112651N1+00201+00001999999ADDGA1021+008701999GA2071+014101999GA3071+021001999GF107991999999999999999999MA1102611999999REMMET082METAR LSMM 190450Z AUTO VRB02KT 9999NDV FEW029 BKN047 BKN072 02/M00 Q1026 RMK WHT;
0175066140999992011011905504+46750+008117FM-15+0579LSMM V0209999V000510114019N0112651N1+00101+00001999999ADDGA1021+006901999GA2071+011401999GA3081+015001999GF108991999999999999999999MA1102611999999REMMET074METAR LSMM 190550Z VRB01KT 9999 FEW023 BKN038 OVC051 01/M00 Q1026 RMK WHT;
0175066140999992011011906504+46750+008117FM-15+0579LSMM V0209999V001010150019N0112651N1+00101+00001999999ADDGA1021+011401999GA2071+015001999GA3071+018001999GF107991999999999999999999MA1102511999999REMMET074METAR LSMM 190650Z VRB02KT 9999 FEW038 BKN054 BKN064 01/M00 Q1025 RMK WHT;
0175066140999992011011907504+46750+008117FM-15+0579LSMM V0209999V001010180019N0112651N1+00101+00001999999ADDGA1021+015001999GA2071+018001999GA3071+024001999GF107991999999999999999999MA1102611999999REMMET074METAR LSMM 190750Z VRB02KT 9999 FEW052 BKN065 BKN083 01/M00 Q1026 RMK WHT;
0186066140999992011011908504+46750+008117FM-15+0579LSMM V0209999V000510090019N0112651N1+00201+00001999999ADDGA1021+006601999GA2071+009001999GA3081+013501999GF108991999999999999999999MA1102611999999MW1801REMMET079METAR LSMM 190850Z VRB01KT 9999 -SHRA FEW022 BKN030 OVC045 02/00 Q1026 RMK WHT;
0163066140999992011011909504+46750+008117FM-15+0579LSMM V0209999C000012200019N0080001N1+00401+00101999999ADDGA1021+004501999GA2041+006901999GF104991999999999999999999MA1102611999999MW1801REMMET072METAR LSMM 190950Z 00000KT 8000 -SHRA FEW015 SCT023 04/01 Q1026 RMK WHT;
0194066140999992011011910504+46750+008117AUTO +0579LSMM V0200501N00461004201CN0112651N1+00301+00001999999ADDAW1811GA1021+001201999GA2041+004201999GA3081+007501999GF108991999999999999999999MA1102611999999REMMET087METAR LSMM 191050Z AUTO 05009KT 9999NDV -SHRA FEW004 SCT014 OVC025 03/00 Q1026 RMK WHT;
0193066140999992011011911504+46750+008117FM-15+0579LSMM V0201601N00261003001CN0031001N1+00101-00101999999ADDGA1021+000901999GA2041+003001999GA3081+003601999GF108991999999999999999999MA1102611999999MW1711REMMET086METAR LSMM 191150Z 16005KT 080V240 3100 -SN FEW003 SCT010 OVC012 01/M01 Q1026 RMK GRN;
0193066140999992011011912504+46750+008117FM-15+0579LSMM V0209999V001510057019N0050001N1+00201-00201999999ADDGA1021+003001999GA2071+005701999GA3071+012601999GF107991999999999999999999MA1102611999999MW1611MW2711REMMET080METAR LSMM 191250Z VRB03KT 5000 -RASN FEW010 BKN019 BKN042 02/M02 Q1026 RMK GRN;
0193066140999992011011913504+46750+008117FM-15+0579LSMM V0209999V00101006301CN0060001N1+00101-00101999999ADDGA1021+003601999GA2041+006301999GA3071+008401999GF107991999999999999999999MA1102511999999MW1611MW2711REMMET080METAR LSMM 191350Z VRB02KT 6000 -RASN FEW012 SCT021 BKN028 01/M01 Q1025 RMK GRN;
0184066140999992011011914504+46750+008117FM-15+0579LSMM V0209999V000510024019N0017001N1+00001-00101999999ADDGA1041+001501999GA2071+002401999GA3081+003601999GF108991999999999999999999MA1102611999999MW1731REMMET077METAR LSMM 191450Z VRB01KT 1700 SN SCT005 BKN008 OVC012 00/M01 Q1026 RMK AMB;
0199066140999992011011915504+46750+008117AUTO +0579LSMM V0209999V00151003901CN0043001N1+00101+00001999999ADDAW1671GA1021+000301999GA2041+003901999GA3071+005101999GF107991999999999999999999MA1102611999999REMMET092METAR LSMM 191550Z AUTO VRB03KT 4300NDV -RASN FEW001 SCT013 BKN017 01/00 Q1026 RESN RMK GRN;
0195066140999992011011916504+46750+008117AUTO +0579LSMM V0209999V003610132019N0040001N1+00101-00201999999ADDAW1671GA1041+008101999GA2071+013201999GA3081+015001999GF108991999999999999999999MA1102611999999REMMET088METAR LSMM 191650Z AUTO VRB07KT 4000NDV -RASN SCT027 BKN044 OVC053 01/M02 Q1026 RMK GRN;
0203066140999992011011917504+46750+008117AUTO +0579LSMM V0200301N00361014401CN0112651N1+00101-00301999999ADDAW1671GA1021+005101999GA2041+014401999GA3081+018001999GF108991999999999999999999MA1102711999999REMMET096METAR LSMM 191750Z AUTO 03007KT 350V070 9999NDV -RASN FEW017 SCT048 OVC061 01/M03 Q1027 RMK WHT;
0180066140999992011011918504+46750+008117AUTO +0579LSMM V0200401N005710180019N0112651N1+00101-00301999999ADDAW1671GA1041+014101999GA2081+018001999GF108991999999999999999999MA1102611999999REMMET089METAR LSMM 191850Z AUTO 04011KT 010V070 9999NDV -RASN SCT047 OVC064 01/M03 Q1026 RMK WHT;
0203066140999992011011919504+46750+008117AUTO +0579LSMM V0200301N00411015001CN0112651N1+00101-00301999999ADDAW1811GA1021+007801999GA2041+015001999GA3081+021001999GF108991999999999999999999MA1102611999999REMMET096METAR LSMM 191950Z AUTO 03008KT 340V060 9999NDV -SHRA FEW026 SCT053 OVC076 01/M03 Q1026 RMK WHT;
0195066140999992011011920504+46750+008117AUTO +0579LSMM V0209999V001510090019N0112651N1+00101-00301999999ADDAW1811GA1021+007201999GA2071+009001999GA3081+015001999GF108991999999999999999999MA1102611999999REMMET088METAR LSMM 192050Z AUTO VRB03KT 9999NDV -SHRA FEW024 BKN030 OVC054 01/M03 Q1026 RMK WHT;
0147066140999992011011921504+46750+008117AUTO +0579LSMM V0209999C000010021019N0018001N1-00101-00201999999ADDAW1711GA1091+002101999GF109991999999000251999999MA1102611999999REMMET072METAR LSMM 192150Z AUTO 00000KT 1800NDV -SN VV007 M01/M02 Q1026 RMK AMB;
0198066140999992011011922504+46750+008117AUTO +0579LSMM V0209999C00001002401CN0060001N1-00101-00201999999ADDAW1801GA1021+001801999GA2041+002401999GA3071+006601999GF107991999999999999999999MA1102611999999REMMET091METAR LSMM 192250Z AUTO 00000KT 6000NDV -SHRASN FEW006 SCT008 BKN022 M01/M02 Q1026 RMK GRN;
0196066140999992011011923504+46750+008117AUTO +0579LSMM V0209999C000010135019N0031001N1-00101-00201999999ADDAW1671GA1021+004201999GA2071+013501999GA3081+015001999GF108991999999999999999999MA1102511999999REMMET089METAR LSMM 192350Z AUTO 00000KT 3100NDV -RASN FEW014 BKN045 OVC056 M01/M02 Q1025 RMK GRN;
0161066140999992011012000504+46750+008117AUTO +0579LSMM V0209999V000510150019N0016001N1-00101-00201999999ADDGA1021+005401999GA2081+015001999GF108991999999999999999999MA1102511999999REMMET076METAR LSMM 200050Z AUTO VRB01KT 1600NDV FEW018 OVC058 M01/M02 Q1025 RMK AMB;
0190066140999992011012001504+46750+008117AUTO +0579LSMM V0203201N001510180019N0031001N1-00201-00301999999ADDAW1101AW2811GA1021+006901999GA2081+018001999GF108991999999999999999999MA1102511999999REMMET093METAR LSMM 200150Z AUTO 32003KT 300V360 3100NDV -SHRA BR FEW023 OVC066 M02/M03 Q1025 RMK GRN;
0232066140999992011012002504+46750+008117AUTO +0579LSMM V0209999C00001007201CN0006501N1-00201-00301999999ADDAW1311ED110U07009GA1041+002701999GA2071+007201999GA3081+013801999GF108991999999999999999999MA1102501999999REMMET114METAR LSMM 200250Z AUTO 00000KT 0650NDV R10/0700V1000U R28/P2000N BCFG SCT009 BKN024 OVC046 M02/M03 Q1025 RMK RED;
0202066140999992011012003504+46750+008117AUTO +0579LSMM V0200801N00211005101CN0060001N1-00301-00301999999ADDAW1711GA1021+002701999GA2041+005101999GA3081+009001999GF108991999999999999999999MA1102401999999REMMET095METAR LSMM 200350Z AUTO 08004KT 050V160 6000NDV -SN FEW009 SCT017 OVC030 M03/M03 Q1024 RMK GRN;
0196066140999992011012004504+46750+008117AUTO +0579LSMM V0209999C000010036019N0034001N1-00201-00401999999ADDAW1811GA1021+003001999GA2071+003601999GA3081+009601999GF108991999999999999999999MA1102401999999REMMET089METAR LSMM 200450Z AUTO 00000KT 3400NDV -SHRA FEW010 BKN012 OVC032 M02/M04 Q1024 RMK GRN;
0191066140999992011012005504+46750+008117FM-15+0579LSMM V0209999C00001003601CN0034001N1-00201-00301999999ADDGA1021+001201999GA2041+003601999GA3071+015001999GF107991999999999999999999MA1102401999999MW1101REMMET084METAR LSMM 200550Z 00000KT 3400 -SHSN BR FEW004 SCT012 BKN051 M02/M03 Q1024 RMK GRN;
