0153066130999992010010408504+47100+008300FM-15+0427LSME V0209999C000010210019N0112651N1-00601-00701999999ADDGA1021+004501999GA2081+021001999GF108991999999999999999999MA1101391999999REMMET068METAR LSME 040850Z 00000KT 9999 FEW015 OVC073 M06/M07 Q1014 RMK WHT;
0153066130999992010010409504+47100+008300FM-15+0427LSME V0209999C000010210019N0112651N1-00501-00701999999ADDGA1041+018001999GA2081+021001999GF108991999999999999999999MA1101391999999REMMET068METAR LSME 040950Z 00000KT 9999 SCT060 OVC072 M05/M07 Q1014 RMK WHT;
0161066130999992010010410504+47100+008300AUTO +0427LSME V0209999V001010240019N0112651N1-00401-00701999999ADDGA1021+018001999GA2081+024001999GF108991999999999999999999MA1101391999999REMMET076METAR LSME 041050Z AUTO VRB02KT 9999NDV FEW063 OVC081 M04/M07 Q1014 RMK WHT;
0161066130999992010010411504+47100+008300FM-15+0427LSME V0200401N001510180019N0112651N1-00401-00601999999ADDGA1021+009001999GA2081+018001999GF108991999999999999999999MA1101291999999REMMET076METAR LSME 041150Z 04003KT 360V070 9999 FEW030 OVC069 M04/M06 Q1013 RMK WHT;
0138066130999992010010412504+47100+008300FM-15+0427LSME V0200501N001510180019N0112651N1-00401-00601999999ADDGA1071+018001999GF107991999999999999999999MA1101191999999REMMET069METAR LSME 041250Z 05003KT 010V100 9999 BKN069 M04/M06 Q1012 RMK WHT;
0136066130999992010010413504+47100+008300FM-15+0427LSME V0209999V001010180019N0112651N1-00401-00601999999ADDGA1081+018001999GF108991999999999999999999MA1101191999999REMMET067METAR LSME 041350Z VRB02KT 9999 -SHSN OVC067 M04/M06 Q1012 RMK WHT;
0153066130999992010010414504+47100+008300FM-15+0427LSME V0209999V001010180019N0112651N1-00301-00601999999ADDGA1071+018001999GA2081+024001999GF108991999999999999999999MA1101081999999REMMET068METAR LSME 041450Z VRB02KT 9999 BKN063 OVC085 M03/M06 Q1011 RMK WHT;
0184066130999992010010415504+47100+008300AUTO +0427LSME V0209999C000010180019N0112651N1-00301-00601999999ADDGA1041+012601999GA2071+018001999GA3081+027001999GF108991999999999999999999MA1101081999999REMMET083METAR LSME 041550Z AUTO 00000KT 9999NDV SCT042 BKN064 OVC094 M03/M06 Q1011 RMK WHT;
0161066130999992010010417504+47100+008300AUTO +0427LSME V0209999C000010210019N0112651N1-00401-00601999999ADDGA1071+021001999GA2081+024001999GF108991999999999999999999MA1101081999999REMMET076METAR LSME 041750Z AUTO 00000KT 9999NDV BKN075 OVC089 M04/M06 Q1011 RMK WHT;
0194066130999992010010418504+47100+008300AUTO +0427LSME V0209999C00001009301CN0112651N1-00301-00701999999ADDAW1711GA1021+008101999GA2041+009301999GA3081+011101999GF108991999999999999999999MA1101081999999REMMET087METAR LSME 041850Z AUTO 00000KT 9999NDV -SN FEW027 SCT031 OVC037 M03/M07 Q1011 RMK WHT;
0196066130999992010010419504+47100+008300AUTO +0427LSME V0209999C00001010201CN0050001N1-00401-00601999999ADDAW1851GA1021+004501999GA2041+010201999GA3071+018001999GF107991999999999999999999MA1101081999999REMMET089METAR LSME 041950Z AUTO 00000KT 5000NDV -SHSN FEW015 SCT034 BKN068 M04/M06 Q1011 RMK GRN;
0171066130999992010010420504+47100+008300AUTO +0427LSME V0201001N000510180019N0080001N1-00401-00601999999ADDAW1711GA1041+013201999GA2081+018001999GF108991999999999999999999MA1101081999999REMMET080METAR LSME 042050Z AUTO 10001KT 8000NDV -SN SCT044 OVC064 M04/M06 Q1011 RMK WHT;
0181066130999992010010422504+47100+008300AUTO +0427LSME V0200901N002110057019N0112651N1-00401-00601999999ADDAW1851GA1021+003901999GA2081+005701999GF108991999999999999999999MA1101021999999REMMET090METAR LSME 042250Z AUTO 09004KT 050V110 9999NDV -SHSN FEW013 OVC019 M04/M06 Q1010 RMK GRN;
0173066130999992010010423504+47100+008300AUTO +0427LSME V0200801N001010054019N0060001N1-00401-00601999999ADDAW1851GA1021+004201999GA2071+005401999GF107991999999999999999999MA1100911999999REMMET082METAR LSME 042350Z AUTO 08002KT 6000NDV -SHSN FEW014 BKN018 M04/M06 Q1009 RMK GRN;
0161066130999992010010501504+47100+008300AUTO +0427LSME V0209999V001010054019N0070001N1-00501-00601999999ADDGA1041+003901999GA2081+005401999GF108991999999999999999999MA1100911999999REMMET076METAR LSME 050150Z AUTO VRB02KT 7000NDV SCT013 OVC018 M05/M06 Q1009 RMK GRN;
0165066130999992010010502504+47100+008300AUTO +0427LSME V0200701N001510054019N0050001N1-00501-00601999999ADDAW1101AW2711GA1071+005401999GF107991999999999999999999MA1100811999999REMMET084METAR LSME 050250Z AUTO 07003KT 030V090 5000NDV -SN BR BKN018 M05/M06 Q1008 RMK GRN;
0180066130999992010010503504+47100+008300AUTO +0427LSME V0200801N001510051019N0036001N1-00501-00601999999ADDAW1101AW2711GA1021+002401999GA2081+005101999GF108991999999999999999999MA1100711999999REMMET083METAR LSME 050350Z AUTO 08003KT 3600NDV -SN BR FEW008 OVC017 M05/M06 Q1007 RMK GRN;
0202066130999992010010504504+47100+008300AUTO +0427LSME V0200401N001510150019N0050001N1-00501-00601999999ADDAW1711GA1041+004501999GA2071+015001999GA3081+027001999GF108991999999999999999999MA1100611999999REMMET095METAR LSME 050450Z AUTO 04003KT 010V070 5000NDV -SN SCT015 BKN053 OVC091 M05/M06 Q1006 RMK GRN;
0190066130999992010010505504+47100+008300FM-15+0427LSME V0200801N001510048019N0060001N1-00501-00601999999ADDGA1021+002101999GA2071+004801999GA3081+014701999GF108991999999999999999999MA1100611999999REMMET089METAR LSME 050550Z 08003KT 040V100 6000 -SHSN FEW007 BKN016 OVC049 M05/M06 Q1006 RMK GRN;
0172066130999992010010506504+47100+008300FM-15+0427LSME V0209999V000510045019N0036001N1-00501-00701999999ADDGA1021+003301999GA2081+004501999GF108991999999999999999999MA1100511999999MW1101MW2711REMMET075METAR LSME 050650Z VRB01KT 3600 -SN BR FEW011 OVC015 M05/M07 Q1005 RMK GRN;
0163066130999992010010507504+47100+008300FM-15+0427LSME V0209999V001010042019N0050001N1-00501-00601999999ADDGA1021+003601999GA2081+004201999GF108991999999999999999999MA1100511999999MW1711REMMET072METAR LSME 050750Z VRB02KT 5000 -SN FEW012 OVC014 M05/M06 Q1005 RMK GRN;
0191066130999992010010508504+47100+008300FM-15+0427LSME V0200801N001010039019N0039001N1-00501-00701999999ADDGA1041+002701999GA2071+003901999GA3081+004801999GF108991999999999999999999MA1100511999999MW1101REMMET084METAR LSME 050850Z 08002KT 3900 -SHSN BR SCT009 BKN013 OVC016 M05/M07 Q1005 RMK GRN;
0167066130999992010010509504+47100+008300FM-15+0427LSME V0200901N002110042019N0050001N1-00501-00601999999ADDGA1021+002701999GA2081+004201999GF108991999999999999999999MA1100511999999REMMET082METAR LSME 050950Z 09004KT 050V110 5000 -SHSN FEW009 OVC014 M05/M06 Q1005 RMK GRN;
0148066130999992010010510504+47100+008300FM-15+0427LSME V0200501N001510036019N0060001N1-00401-00601999999ADDGA1081+003601999GF108991999999999999999999MA1100411999999MW1711REMMET073METAR LSME 051050Z 05003KT 340V100 6000 -SN OVC012 M04/M06 Q1004 RMK GRN;
0149066130999992010010511504+47100+008300FM-15+0427LSME V0209999V000510036019N0043001N1-00401-00601999999ADDGA1081+003601999GF108991999999999999999999MA1100311999999MW1101MW2711REMMET068METAR LSME 051150Z VRB01KT 4300 -SN BR OVC012 M04/M06 Q1003 RMK GRN;
0163066130999992010010512504+47100+008300FM-15+0427LSME V0209999V001010039019N0046001N1-00401-00601999999ADDGA1071+003901999GA2081+015001999GF108991999999999999999999MA1100201999999MW1711REMMET072METAR LSME 051250Z VRB02KT 4600 -SN BKN013 OVC050 M04/M06 Q1002 RMK GRN;
0157066130999992010010513504+47100+008300FM-15+0427LSME V0200401N001510036019N0046001N1-00301-00601999999ADDGA1081+003601999GF108991999999999999999999MA1100201999999MW1101MW2711REMMET076METAR LSME 051350Z 04003KT 010V070 4600 -SN BR OVC012 M03/M06 Q1002 RMK GRN;
0176066130999992010010514504+47100+008300FM-15+0427LSME V0200301N001510036019N0049001N1-00401-00601999999ADDGA1041+003001999GA2081+003601999GF108991999999999999999999MA1100201999999MW1101REMMET085METAR LSME 051450Z 03003KT 350V050 4900 -SHSN BR SCT010 OVC012 M04/M06 Q1002 RMK GRN;
0171066130999992010010515504+47100+008300AUTO +0427LSME V0209999V001010036019N0050001N1-00301-00601999999ADDAW1711GA1021+003001999GA2081+003601999GF108991999999999999999999MA1100101999999REMMET080METAR LSME 051550Z AUTO VRB02KT 5000NDV -SN FEW010 OVC012 M03/M06 Q1001 RMK GRN;
0181066130999992010010516504+47100+008300AUTO +0427LSME V0200401N001510039019N0050001N1-00401-00601999999ADDAW1851GA1041+003301999GA2081+003901999GF108991999999999999999999MA1100101999999REMMET090METAR LSME 051650Z AUTO 04003KT 010V080 5000NDV -SHSN SCT011 OVC013 M04/M06 Q1001 RMK GRN;
0138066130999992010010517504+47100+008300AUTO +0427LSME V0200801N001510033019N0060001N1-00401-00601999999ADDGA1081+003301999GF108991999999999999999999MA1100101999999REMMET069METAR LSME 051750Z AUTO 08003KT 6000NDV OVC011 M04/M06 Q1001 RMK GRN;
0138066130999992010010518504+47100+008300AUTO +0427LSME V0209999V001010030019N0060001N1-00401-00501999999ADDGA1081+003001999GF108991999999999999999999MA1100001999999REMMET069METAR LSME 051850Z AUTO VRB02KT 6000NDV OVC010 M04/M05 Q1000 RMK GRN;
0138066130999992010010519504+47100+008300AUTO +0427LSME V0200801N001510030019N0060001N1-00401-00501999999ADDGA1081+003001999GF108991999999999999999999MA1100001999999REMMET069METAR LSME 051950Z AUTO 08003KT 6000NDV OVC010 M04/M05 Q1000 RMK GRN;
0161066130999992010010520504+47100+008300AUTO +0427LSME V0200901N001510033019N0060001N1-00401-00601999999ADDGA1021+002401999GA2081+003301999GF108991999999999999999999MA1100001999999REMMET076METAR LSME 052050Z AUTO 09003KT 6000NDV FEW008 OVC011 M04/M06 Q1000 RMK GRN;
0138066130999992010010521504+47100+008300AUTO +0427LSME V0209999V001010033019N0060001N1-00401-00601999999ADDGA1081+003301999GF108991999999999999999999MA1100001999999REMMET069METAR LSME 052150Z AUTO VRB02KT 6000NDV OVC011 M04/M06 Q1000 RMK GRN;
0148066130999992010010522504+47100+008300AUTO +0427LSME V0209999V001010030019N0060001N1-00401-00601999999ADDAW1711GA1081+003001999GF108991999999999999999999MA1099901999999REMMET073METAR LSME 052250Z AUTO VRB02KT 6000NDV -SN OVC010 M04/M06 Q0999 RMK GRN;
0138066130999992010010600504+47100+008300AUTO +0427LSME V0209999C000010027019N0060001N1-00401-00601999999ADDGA1081+002701999GF108991999999999999999999MA1099901999999REMMET069METAR LSME 060050Z AUTO 00000KT 6000NDV OVC009 M04/M06 Q0999 RMK YLO;
0157066130999992010010601504+47100+008300AUTO +0427LSME V0209999C000010024019N0033001N1-00401-00601999999ADDAW1101AW2711GA1081+002401999GF108991999999999999999999MA1099901999999REMMET076METAR LSME 060150Z AUTO 00000KT 3300NDV -SN BR OVC008 M04/M06 Q0999 RMK YLO;
0185066130999992010010602504+47100+008300AUTO +0427LSME V0209999C000012200019N0020001N1-00401-00501999999ADDAW1101AW2711GA1021+001801999GA2041+002701999GF104991999999999999999999MA1099901999999REMMET088METAR LSME 060250Z AUTO 00000KT 2000NDV -SN BR FEW006 SCT009 M04/M05 Q0999 RESN RMK YLO;
0185066130999992010010603504+47100+008300AUTO +0427LSME V0200201N000512200019N0026001N1-00401-00501999999ADDAW1101AW2711GA1021+001801999GA2041+007201999GF104991999999999999999999MA1099901999999REMMET088METAR LSME 060350Z AUTO 02001KT 2600NDV -SN BR FEW006 SCT024 M04/M05 Q0999 RESN RMK YLO;
0203066130999992010010604504+47100+008300AUTO +0427LSME V0200701N000510072019N0030001N1-00401-00501999999ADDAW1101AW2711GA1021+003001999GA2071+007201999GA3071+008401999GF107991999999999999999999MA1099901999999REMMET090METAR LSME 060450Z AUTO 07001KT 3000NDV -SN BR FEW010 BKN024 BKN028 M04/M05 Q0999 RMK GRN;
0172066130999992010010605504+47100+008300FM-15+0427LSME V0200301N001010066019N0023001N1-00401-00501999999ADDGA1021+003901999GA2081+006601999GF108991999999999999999999MA1100001999999MW1101MW2711REMMET075METAR LSME 060550Z 03002KT 2300 -SN BR FEW013 OVC022 M04/M05 Q1000 RMK YLO;
0195066130999992010010606504+47100+008300FM-15+0427LSME V0209999V000510054019N0034001N1-00401-00501999999ADDGA1021+001501999GA2071+005401999GA3081+006901999GF108991999999999999999999MA1100001999999MW1101MW2711REMMET082METAR LSME 060650Z VRB01KT 3400 -SN BR FEW005 BKN018 OVC023 M04/M05 Q1000 RMK GRN;
0162066130999992010010607504+47100+008300FM-15+0427LSME V0209999V000510060019N0027001N1-00401-00501999999ADDGA1021+001501999GA2081+006001999GF108991999999999999999999MA1100001999999MW1101REMMET071METAR LSME 060750Z VRB01KT 2700 BR FEW005 OVC020 M04/M05 Q1000 RMK YLO;
0162066130999992010010608504+47100+008300FM-15+0427LSME V0209999C000010057019N0039001N1-00301-00501999999ADDGA1041+004201999GA2081+005701999GF108991999999999999999999MA1100101999999MW1101REMMET071METAR LSME 060850Z 00000KT 3900 BR SCT014 OVC019 M03/M05 Q1001 RMK GRN;
0139066130999992010010609504+47100+008300FM-15+0427LSME V0209999C000010057019N0040001N1-00301-00501999999ADDGA1081+005701999GF108991999999999999999999MA1100101999999MW1101REMMET064METAR LSME 060950Z 00000KT 4000 BR OVC019 M03/M05 Q1001 RMK GRN;
0170066130999992010010610504+47100+008300AUTO +0427LSME V0209999C000010063019N0040001N1-00301-00501999999ADDAW1101GA1041+005401999GA2081+006301999GF108991999999999999999999MA1100101999999REMMET079METAR LSME 061050Z AUTO 00000KT 4000NDV BR SCT018 OVC021 M03/M05 Q1001 RMK GRN;
0176066130999992010010611504+47100+008300FM-15+0427LSME V0209999V000510054019N0048001N1-00201-00501999999ADDGA1021+004801999GA2071+005401999GA3081+006901999GF108991999999999999999999MA1100101999999REMMET075METAR LSME 061150Z VRB01KT 4800 FEW016 BKN018 OVC023 M02/M05 Q1001 RMK GRN;
0153066130999992010010612504+47100+008300FM-15+0427LSME V0200501N001010051019N0047001N1-00201-00501999999ADDGA1041+004201999GA2081+005101999GF108991999999999999999999MA1100101999999REMMET068METAR LSME 061250Z 05002KT 4700 SCT014 OVC017 M02/M05 Q1001 RMK GRN;
0153066130999992010010613504+47100+008300FM-15+0427LSME V0209999C000010063019N0049001N1-00201-00401999999ADDGA1021+004501999GA2081+006301999GF108991999999999999999999MA1100101999999REMMET068METAR LSME 061350Z 00000KT 4900 FEW015 OVC021 M02/M04 Q1001 RMK GRN;
0153066130999992010010614504+47100+008300FM-15+0427LSME V0209999C000010057019N0050001N1-00201-00401999999ADDGA1071+005701999GA2081+007201999GF108991999999999999999999MA1100101999999REMMET068METAR LSME 061450Z 00000KT 5000 BKN019 OVC024 M02/M04 Q1001 RMK GRN;
0147066130999992010010615504+47100+008300AUTO +0427LSME V0209999C000010057019N0047001N1-00201-00401999999ADDAW1101GA1081+005701999GF108991999999999999999999MA1100201999999REMMET072METAR LSME 061550Z AUTO 00000KT 4700NDV BR OVC019 M02/M04 Q1002 RMK GRN;
0170066130999992010010616504+47100+008300AUTO +0427LSME V0209999C000010054019N0048001N1-00201-00401999999ADDAW1101GA1071+005401999GA2081+006601999GF108991999999999999999999MA1100201999999REMMET079METAR LSME 061650Z AUTO 00000KT 4800NDV BR BKN018 OVC022 M02/M04 Q1002 RMK GRN;
0170066130999992010010617504+47100+008300AUTO +0427LSME V0209999C000010084019N0045001N1-00201-00401999999ADDAW1101GA1041+006601999GA2081+008401999GF108991999999999999999999MA1100201999999REMMET079METAR LSME 061750Z AUTO 00000KT 4500NDV BR SCT022 OVC028 M02/M04 Q1002 RMK GRN;
0170066130999992010010619504+47100+008300AUTO +0427LSME V0209999C000010102019N0025001N1-00501-00601999999ADDAW1101GA1041+003001999GA2071+010201999GF107991999999999999999999MA1100311999999REMMET079METAR LSME 061950Z AUTO 00000KT 2500NDV BR SCT010 BKN034 M05/M06 Q1003 RMK YLO;
0203066130999992010010620504+47100+008300AUTO +0427LSME V0203101N000510450019N0010001N1-00601-00601999999ADDAW1101ED199U20009GA1021+004201999GA2071+045001999GF107991999999999999999999MA1100311999999REMMET101METAR LSME 062050Z AUTO 31001KT 1000NDV R04/P2000D R22/P2000N BR FEW014 BKN150 M06/M06 Q1003 RMK RED;
0141066130999992010010621504+47100+008300AUTO +0427LSME V0203201N001019999999N0012001N1-00601-00701999999ADDAW1311MA1100401999999REMMET108METAR LSME 062150Z AUTO 32002KT 1200NDV R04/0650VP2000U R22/P2000N BCFG BKN009 BKN150 M06/M07 Q1004 RMK RED;
0147066130999992010010622504+47100+008300AUTO +0427LSME V0209999C000010084019N0037001N1-00501-00601999999ADDAW1101GA1081+008401999GF108991999999999999999999MA1100411999999REMMET072METAR LSME 062250Z AUTO 00000KT 3700NDV BR OVC028 M05/M06 Q1004 RMK GRN;
0193066130999992010010623504+47100+008300AUTO +0427LSME V0209999C00001027001CN0032001N1-00601-00701999999ADDAW1101GA1021+002701999GA2041+027001999GA3071+039001999GF107991999999999999999999MA1100411999999REMMET086METAR LSME 062350Z AUTO 00000KT 3200NDV BR FEW009 SCT098 BKN130 M06/M07 Q1004 RMK GRN;
0193066130999992010010700504+47100+008300AUTO +0427LSME V0209999C00001002701CN0036001N1-00501-00601999999ADDAW1101GA1021+000901999GA2041+002701999GA3081+003301999GF108991999999999999999999MA1100511999999REMMET086METAR LSME 070050Z AUTO 00000KT 3600NDV BR FEW003 SCT009 OVC011 M05/M06 Q1005 RMK GRN;
0193066130999992010010701504+47100+008300AUTO +0427LSME V0209999C000010105019N0034001N1-00501-00601999999ADDAW1101GA1021+001201999GA2071+010501999GA3081+015001999GF108991999999999999999999MA1100511999999REMMET086METAR LSME 070150Z AUTO 00000KT 3400NDV BR FEW004 BKN035 OVC059 M05/M06 Q1005 RMK GRN;
0193066130999992010010702504+47100+008300AUTO +0427LSME V0209999C00001007201CN0031001N1-00601-00601999999ADDAW1101GA1021+003301999GA2041+007201999GA3071+018001999GF107991999999999999999999MA1100511999999REMMET086METAR LSME 070250Z AUTO 00000KT 3100NDV BR FEW011 SCT024 BKN060 M06/M06 Q1005 RMK GRN;
0205066130999992010010703504+47100+008300AUTO +0427LSME V0209999C00001005401CN0032001N1-00601-00601999999ADDAW1101AW2851GA1041+002101999GA2041+005401999GA3081+015001999GF108991999999999999999999MA1100511999999REMMET092METAR LSME 070350Z AUTO 00000KT 3200NDV -SHSN BR SCT007 SCT018 OVC055 M06/M06 Q1005 RMK GRN;
0170066130999992010010704504+47100+008300AUTO +0427LSME V0209999C000010042019N0036001N1-00501-00601999999ADDAW1101GA1041+003301999GA2071+004201999GF107991999999999999999999MA1100511999999REMMET079METAR LSME 070450Z AUTO 00000KT 3600NDV BR SCT011 BKN014 M05/M06 Q1005 RMK GRN;
0139066130999992010010705504+47100+008300FM-15+0427LSME V0200201N000510045019N0034001N1-00601-00701999999ADDGA1071+004501999GF107991999999999999999999MA1100511999999MW1101REMMET064METAR LSME 070550Z 02001KT 3400 BR BKN015 M06/M07 Q1005 RMK GRN;
0162066130999992010010706504+47100+008300FM-15+0427LSME V0209999C000010051019N0040001N1-00501-00601999999ADDGA1021+001501999GA2081+005101999GF108991999999999999999999MA1100611999999MW1101REMMET071METAR LSME 070650Z 00000KT 4000 BR FEW005 OVC017 M05/M06 Q1006 RMK GRN;
0130066130999992010010707504+47100+008300FM-15+0427LSME V0202201N001512200019N0060001N1-00501-00701999999ADDGA1041+004801999GF104991999999999999999999MA1100611999999REMMET061METAR LSME 070750Z 22003KT 6000 SCT016 M05/M07 Q1006 RMK GRN;
0111066130999992010010708504+47100+008300FM-15+0427LSME V0202301N000512200019N0060001N1-00601-00701999999ADDGF100991999999999999999999MA1100711999999REMMET058METAR LSME 070850Z 23001KT 6000 NSC M06/M07 Q1007 RMK GRN;
0111066130999992010010709504+47100+008300FM-15+0427LSME V0209999C000012200019N0060001N1-00301-00601999999ADDGF100991999999999999999999MA1100711999999REMMET058METAR LSME 070950Z 00000KT 6000 NSC M03/M06 Q1007 RMK GRN;
0138066130999992010010710504+47100+008300AUTO +0427LSME V0209999C000012200019N0070001N1-00201-00601999999ADDGA1021+033001999GF102991999999999999999999MA1100711999999REMMET069METAR LSME 071050Z AUTO 00000KT 7000NDV FEW110 M02/M06 Q1007 RMK GRN;
0111066130999992010010711504+47100+008300FM-15+0427LSME V0200401N001012200019N0070001N1-00101-00501999999ADDGF100991999999999999999999MA1100711999999REMMET058METAR LSME 071150Z 04002KT 7000 NSC M01/M05 Q1007 RMK GRN;
0130066130999992010010712504+47100+008300FM-15+0427LSME V0200401N001512200019N0050001N1-00101-00401999999ADDGA1021+030001999GF102991999999999999999999MA1100711999999REMMET061METAR LSME 071250Z 04003KT 5000 FEW100 M01/M04 Q1007 RMK GRN;
0130066130999992010010714504+47100+008300FM-15+0427LSME V0200301N001012200019N0060001N1-00101-00401999999ADDGA1041+030001999GF104991999999999999999999MA1100711999999REMMET061METAR LSME 071450Z 03002KT 6000 SCT100 M01/M04 Q1007 RMK GRN;
0138066130999992010010715504+47100+008300AUTO +0427LSME V0200101N001012200019N0049001N1-00201-00401999999ADDGA1021+030001999GF102991999999999999999999MA1100811999999REMMET069METAR LSME 071550Z AUTO 01002KT 4900NDV FEW100 M02/M04 Q1008 RMK GRN;
0138066130999992010010716504+47100+008300AUTO +0427LSME V0203301N001510330019N0050001N1-00201-00401999999ADDGA1081+033001999GF108991999999999999999999MA1100811999999REMMET069METAR LSME 071650Z AUTO 33003KT 5000NDV OVC110 M02/M04 Q1008 RMK GRN;
0147066130999992010010717504+47100+008300AUTO +0427LSME V0209999C000010300019N0050001N1-00301-00401999999ADDAW1101GA1071+030001999GF107991999999999999999999MA1100811999999REMMET072METAR LSME 071750Z AUTO 00000KT 5000NDV BR BKN100 M03/M04 Q1008 RMK GRN;
0147066130999992010010718504+47100+008300AUTO +0427LSME V0209999C000010300019N0049001N1-00301-00501999999ADDAW1101GA1071+030001999GF107991999999999999999999MA1100911999999REMMET072METAR LSME 071850Z AUTO 00000KT 4900NDV BR BKN100 M03/M05 Q1009 RMK GRN;
0147066130999992010010719504+47100+008300AUTO +0427LSME V0209999C000012200019N0048001N1-00401-00501999999ADDAW1101GA1021+030001999GF102991999999999999999999MA1100911999999REMMET072METAR LSME 071950Z AUTO 00000KT 4800NDV BR FEW100 M04/M05 Q1009 RMK GRN;
0170066130999992010010720504+47100+008300AUTO +0427LSME V0209999V000510270019N0045001N1-00401-00501999999ADDAW1101GA1071+027001999GA2071+033001999GF107991999999999999999999MA1100911999999REMMET079METAR LSME 072050Z AUTO VRB01KT 4500NDV BR BKN095 BKN110 M04/M05 Q1009 RMK GRN;
0147066130999992010010722504+47100+008300AUTO +0427LSME V0200701N000510240019N0045001N1-00401-00501999999ADDAW1101GA1081+024001999GF108991999999999999999999MA1100911999999REMMET072METAR LSME 072250Z AUTO 07001KT 4500NDV BR OVC089 M04/M05 Q1009 RMK GRN;
0147066130999992010010723504+47100+008300AUTO +0427LSME V0209999C000010270019N0045001N1-00401-00501999999ADDAW1101GA1081+027001999GF108991999999999999999999MA1100911999999REMMET072METAR LSME 072350Z AUTO 00000KT 4500NDV BR OVC094 M04/M05 Q1009 RMK GRN;
0147066130999992010010800504+47100+008300AUTO +0427LSME V0209999C000010210019N0041001N1-00401-00501999999ADDAW1101GA1081+021001999GF108991999999999999999999MA1100811999999REMMET072METAR LSME 080050Z AUTO 00000KT 4100NDV BR OVC077 M04/M05 Q1008 RMK GRN;
0170066130999992010010801504+47100+008300AUTO +0427LSME V0209999C000010180019N0046001N1-00401-00501999999ADDAW1101GA1071+018001999GA2081+024001999GF108991999999999999999999MA1100811999999REMMET079METAR LSME 080150Z AUTO 00000KT 4600NDV BR BKN067 OVC082 M04/M05 Q1008 RMK GRN;
0147066130999992010010802504+47100+008300AUTO +0427LSME V0209999C000010051019N0047001N1-00401-00501999999ADDAW1101GA1081+005101999GF108991999999999999999999MA1100811999999REMMET072METAR LSME 080250Z AUTO 00000KT 4700NDV BR OVC017 M04/M05 Q1008 RMK GRN;
0147066130999992010010803504+47100+008300AUTO +0427LSME V0200401N001010042019N0047001N1-00301-00401999999ADDAW1101GA1081+004201999GF108991999999999999999999MA1100711999999REMMET072METAR LSME 080350Z AUTO 04002KT 4700NDV BR OVC014 M03/M04 Q1007 RMK GRN;
0170066130999992010010804504+47100+008300AUTO +0427LSME V0209999C000010045019N0047001N1-00301-00401999999ADDAW1101GA1041+003601999GA2081+004501999GF108991999999999999999999MA1100711999999REMMET079METAR LSME 080450Z AUTO 00000KT 4700NDV BR SCT012 OVC015 M03/M04 Q1007 RMK GRN;
0139066130999992010010805504+47100+008300FM-15+0427LSME V0209999C000010051019N0050001N1-00301-00401999999ADDGA1081+005101999GF108991999999999999999999MA1100611999999MW1101REMMET064METAR LSME 080550Z 00000KT 5000 BR OVC017 M03/M04 Q1006 RMK GRN;
0138066130999992010010806504+47100+008300FM-15+0427LSME V0200401N002110051019N0060001N1-00201-00401999999ADDGA1081+005101999GF108991999999999999999999MA1100611999999REMMET069METAR LSME 080650Z 04004KT 350V110 6000 OVC017 M02/M04 Q1006 RMK GRN;
0130066130999992010010807504+47100+008300FM-15+0427LSME V0200201N003610048019N0050001N1-00201-00401999999ADDGA1081+004801999GF108991999999999999999999MA1100511999999REMMET061METAR LSME 080750Z 02007KT 5000 OVC016 M02/M04 Q1005 RMK GRN;
0139066130999992010010808504+47100+008300FM-15+0427LSME V0200301N004610042019N0048001N1-00101-00401999999ADDGA1081+004201999GF108991999999999999999999MA1100511999999MW1101REMMET064METAR LSME 080850Z 03009KT 4800 BR OVC014 M01/M04 Q1005 RMK GRN;
0147066130999992010010809504+47100+008300FM-15+0427LSME V0200201N004610045019N0048001N1-00201-00401999999ADDGA1081+004501999GF108991999999999999999999MA1100411999999MW1101REMMET072METAR LSME 080950Z 02009KT 350V050 4800 BR OVC015 M02/M04 Q1004 RMK GRN;
0138066130999992010010810504+47100+008300AUTO +0427LSME V0200301N005110051019N0050001N1-00201-00401999999ADDGA1081+005101999GF108991999999999999999999MA1100411999999REMMET069METAR LSME 081050Z AUTO 03010KT 5000NDV OVC017 M02/M04 Q1004 RMK GRN;
0130066130999992010010811504+47100+008300FM-15+0427LSME V0200201N004610054019N0060001N1-00201-00401999999ADDGA1081+005401999GF108991999999999999999999MA1100311999999REMMET061METAR LSME 081150Z 02009KT 6000 OVC018 M02/M04 Q1003 RMK GRN;
0130066130999992010010812504+47100+008300FM-15+0427LSME V0200201N004610051019N0060001N1-00201-00501999999ADDGA1081+005101999GF108991999999999999999999MA1100201999999REMMET061METAR LSME 081250Z 02009KT 6000 OVC017 M02/M05 Q1002 RMK GRN;
0130066130999992010010813504+47100+008300FM-15+0427LSME V0200301N005110051019N0060001N1-00201-00401999999ADDGA1081+005101999GF108991999999999999999999MA1100201999999REMMET061METAR LSME 081350Z 03010KT 6000 OVC017 M02/M04 Q1002 RMK GRN;
0130066130999992010010814504+47100+008300FM-15+0427LSME V0200301N005710051019N0050001N1-00201-00401999999ADDGA1081+005101999GF108991999999999999999999MA1100201999999REMMET061METAR LSME 081450Z 03011KT 5000 OVC017 M02/M04 Q1002 RMK GRN;
0138066130999992010010815504+47100+008300AUTO +0427LSME V0200401N005110045019N0050001N1-00201-00401999999ADDGA1081+004501999GF108991999999999999999999MA1100311999999REMMET069METAR LSME 081550Z AUTO 04010KT 5000NDV OVC015 M02/M04 Q1003 RMK GRN;
0150066130999992010010817504+47100+008300AUTO +0427LSME V0200301N004610045019N0060001N1-00201-00401999999ADDAW1851GA1081+004501999GF108991999999999999999999MA1100311999999REMMET075METAR LSME 081750Z AUTO 03009KT 6000NDV -SHSN OVC015 M02/M04 Q1003 RMK GRN;
0165066130999992010010818504+47100+008300AUTO +0427LSME V0200201N003610042019N0050001N1-00201-00401999999ADDAW1101AW2711GA1081+004201999GF108991999999999999999999MA1100311999999REMMET084METAR LSME 081850Z AUTO 02007KT 350V080 5000NDV -SN BR OVC014 M02/M04 Q1003 RMK GRN;
0194066130999992010010819504+47100+008300AUTO +0427LSME V0200301N00411004201CN0060001N1-00201-00401999999ADDAW1711GA1021+003001999GA2041+004201999GA3081+004801999GF108991999999999999999999MA1100311999999REMMET087METAR LSME 081950Z AUTO 03008KT 6000NDV -SN FEW010 SCT014 OVC016 M02/M04 Q1003 RMK GRN;
0138066130999992010010820504+47100+008300AUTO +0427LSME V0200401N003610048019N0090001N1-00201-00401999999ADDGA1081+004801999GF108991999999999999999999MA1100311999999REMMET069METAR LSME 082050Z AUTO 04007KT 9000NDV OVC016 M02/M04 Q1003 RMK GRN;
0138066130999992010010821504+47100+008300AUTO +0427LSME V0200301N004610045019N0112651N1-00201-00401999999ADDGA1081+004501999GF108991999999999999999999MA1100311999999REMMET069METAR LSME 082150Z AUTO 03009KT 9999NDV OVC015 M02/M04 Q1003 RMK GRN;
0161066130999992010011000504+47100+008300AUTO +0427LSME V0209999C000010048019N0060001N1-00401-00601999999ADDGA1041+004201999GA2081+004801999GF108991999999999999999999MA1100511999999REMMET076METAR LSME 100050Z AUTO 00000KT 6000NDV SCT014 OVC016 M04/M06 Q1005 RMK GRN;
0138066130999992010011112504+47100+008300FM-15+0427LSME V0202901N003110057019N0060001N1-00301-00701999999ADDGA1081+005701999GF108991999999999999999999MA1101391999999REMMET069METAR LSME 111250Z 29006KT 250V320 6000 OVC019 M03/M07 Q1014 RMK GRN;
0161066130999992010011113504+47100+008300FM-15+0427LSME V0202901N002610066019N0060001N1-00301-00701999999ADDGA1021+005401999GA2081+006601999GF108991999999999999999999MA1101391999999REMMET076METAR LSME 111350Z 29005KT 260V350 6000 FEW018 OVC022 M03/M07 Q1014 RMK GRN;
0138066130999992010011114504+47100+008300FM-15+0427LSME V0203001N001510063019N0060001N1-00301-00601999999ADDGA1081+006301999GF108991999999999999999999MA1101491999999REMMET069METAR LSME 111450Z 30003KT 260V330 6000 OVC021 M03/M06 Q1015 RMK GRN;
0138066130999992010011115504+47100+008300AUTO +0427LSME V0209999C000010063019N0070001N1-00201-00601999999ADDGA1081+006301999GF108991999999999999999999MA1101491999999REMMET069METAR LSME 111550Z AUTO 00000KT 7000NDV OVC021 M02/M06 Q1015 RMK GRN;
0161066130999992010011116504+47100+008300AUTO +0427LSME V0209999V000510270019N0060001N1-00301-00601999999ADDGA1021+006001999GA2081+027001999GF108991999999999999999999MA1101491999999REMMET076METAR LSME 111650Z AUTO VRB01KT 6000NDV FEW020 OVC095 M03/M06 Q1015 RMK GRN;
0138066130999992010011117504+47100+008300AUTO +0427LSME V0209999C000010300019N0060001N1-00201-00601999999ADDGA1081+030001999GF108991999999999999999999MA1101591999999REMMET069METAR LSME 111750Z AUTO 00000KT 6000NDV OVC100 M02/M06 Q1016 RMK GRN;
0171066130999992010011118504+47100+008300AUTO +0427LSME V0209999C000010180019N0050001N1-00301-00501999999ADDAW1711GA1071+018001999GA2081+021001999GF108991999999999999999999MA1101591999999REMMET080METAR LSME 111850Z AUTO 00000KT 5000NDV -SN BKN062 OVC075 M03/M05 Q1016 RMK GRN;
0138066130999992010011119504+47100+008300AUTO +0427LSME V0200701N000510240019N0050001N1-00301-00501999999ADDGA1081+024001999GF108991999999999999999999MA1101591999999REMMET069METAR LSME 111950Z AUTO 07001KT 5000NDV OVC082 M03/M05 Q1016 RMK GRN;
0147066130999992010011120504+47100+008300AUTO +0427LSME V0209999C000010240019N0050001N1-00301-00501999999ADDAW1101GA1081+024001999GF108991999999999999999999MA1101591999999REMMET072METAR LSME 112050Z AUTO 00000KT 5000NDV BR OVC080 M03/M05 Q1016 RMK GRN;
0182066130999992010011121504+47100+008300AUTO +0427LSME V0200401N000510210019N0050001N1-00301-00501999999ADDAW1101AW2851GA1021+018001999GA2081+021001999GF108991999999999999999999MA1101591999999REMMET085METAR LSME 112150Z AUTO 04001KT 5000NDV -SHSN BR FEW061 OVC073 M03/M05 Q1016 RMK GRN;
0205066130999992010011123504+47100+008300AUTO +0427LSME V0200101N000510150019N0043001N1-00301-00501999999ADDAW1101AW2851GA1021+010801999GA2071+015001999GA3081+018001999GF108991999999999999999999MA1101591999999REMMET092METAR LSME 112350Z AUTO 01001KT 4300NDV -SHSN BR FEW036 BKN051 OVC067 M03/M05 Q1016 RMK GRN;
0157066130999992010011200504+47100+008300AUTO +0427LSME V0209999C000012200019N0029001N1-00301-00401999999ADDAW1101AW2711GA1041+018001999GF104991999999999999999999MA1101591999999REMMET076METAR LSME 120050Z AUTO 00000KT 2900NDV -SN BR SCT065 M03/M04 Q1016 RMK YLO;
0203066130999992010011201504+47100+008300AUTO +0427LSME V0209999C00001003601CN0017001N1-00301-00401999999ADDAW1101AW2711GA1021+002101999GA2041+003601999GA3071+005401999GF107991999999999999999999MA1101591999999REMMET090METAR LSME 120150Z AUTO 00000KT 1700NDV -SN BR FEW007 SCT012 BKN018 M03/M04 Q1016 RMK AMB;
0203066130999992010011203504+47100+008300AUTO +0427LSME V0203601N000510042019N0026001N1-00401-00501999999ADDAW1101AW2711GA1021+003001999GA2071+004201999GA3071+018001999GF107991999999999999999999MA1101591999999REMMET090METAR LSME 120350Z AUTO 36001KT 2600NDV -SN BR FEW010 BKN014 BKN067 M04/M05 Q1016 RMK YLO;
0180066130999992010011204504+47100+008300AUTO +0427LSME V0209999V001010051019N0033001N1-00301-00401999999ADDAW1101AW2711GA1021+002701999GA2081+005101999GF108991999999999999999999MA1101591999999REMMET083METAR LSME 120450Z AUTO VRB02KT 3300NDV -SN BR FEW009 OVC017 M03/M04 Q1016 RMK GRN;
0139066130999992010011205504+47100+008300FM-15+0427LSME V0202601N000510048019N0035001N1-00301-00401999999ADDGA1081+004801999GF108991999999999999999999MA1101591999999MW1101REMMET064METAR LSME 120550Z 26001KT 3500 BR OVC016 M03/M04 Q1016 RMK GRN;
0185066130999992010011206504+47100+008300FM-15+0427LSME V0209999C000010048019N0034001N1-00301-00401999999ADDGA1021+003001999GA2071+004801999GA3081+005701999GF108991999999999999999999MA1101491999999MW1101REMMET078METAR LSME 120650Z 00000KT 3400 BR FEW010 BKN016 OVC019 M03/M04 Q1015 RMK GRN;
0162066130999992010011207504+47100+008300FM-15+0427LSME V0209999V000510048019N0023001N1-00301-00401999999ADDGA1041+003301999GA2081+004801999GF108991999999999999999999MA1101391999999MW1101REMMET071METAR LSME 120750Z VRB01KT 2300 BR SCT011 OVC016 M03/M04 Q1014 RMK YLO;
0162066130999992010011208504+47100+008300FM-15+0427LSME V0209999V000510045019N0025001N1-00301-00401999999ADDGA1041+003901999GA2081+004501999GF108991999999999999999999MA1101391999999MW1101REMMET071METAR LSME 120850Z VRB01KT 2500 BR SCT013 OVC015 M03/M04 Q1014 RMK YLO;
0139066130999992010011209504+47100+008300FM-15+0427LSME V0209999V001010039019N0031001N1-00301-00401999999ADDGA1081+003901999GF108991999999999999999999MA1101291999999MW1101REMMET064METAR LSME 120950Z VRB02KT 3100 BR OVC013 M03/M04 Q1013 RMK GRN;
0201066130999992010011210504+47100+008300AUTO +0427LSME V0200301N00151003901CN0038001N1-00201-00401999999ADDAW1101GA1021+003001999GA2041+003901999GA3081+004501999GF108991999999999999999999MA1101191999999REMMET094METAR LSME 121050Z AUTO 03003KT 360V060 3800NDV BR FEW010 SCT013 OVC015 M02/M04 Q1012 RMK GRN;
0130066130999992010011211504+47100+008300FM-15+0427LSME V0209999C000010045019N0045001N1-00101-00401999999ADDGA1081+004501999GF108991999999999999999999MA1101191999999REMMET061METAR LSME 121150Z 00000KT 4500 OVC015 M01/M04 Q1012 RMK GRN;
0130066130999992010011212504+47100+008300FM-15+0427LSME V0209999C000010045019N0050001N1-00101-00501999999ADDGA1081+004501999GF108991999999999999999999MA1101081999999REMMET061METAR LSME 121250Z 00000KT 5000 OVC015 M01/M05 Q1011 RMK GRN;
0130066130999992010011213504+47100+008300FM-15+0427LSME V0209999V000510039019N0060001N1-00101-00401999999ADDGA1081+003901999GF108991999999999999999999MA1101021999999REMMET061METAR LSME 121350Z VRB01KT 6000 OVC013 M01/M04 Q1010 RMK GRN;
0130066130999992010011214504+47100+008300FM-15+0427LSME V0203601N000510039019N0050001N1-00201-00401999999ADDGA1081+003901999GF108991999999999999999999MA1100911999999REMMET061METAR LSME 121450Z 36001KT 5000 OVC013 M02/M04 Q1009 RMK GRN;
0138066130999992010011215504+47100+008300AUTO +0427LSME V0203501N001010039019N0048001N1-00201-00401999999ADDGA1081+003901999GF108991999999999999999999MA1100811999999REMMET069METAR LSME 121550Z AUTO 35002KT 4800NDV OVC013 M02/M04 Q1008 RMK GRN;
0147066130999992010011216504+47100+008300AUTO +0427LSME V0200301N001510039019N0050001N1-00201-00401999999ADDAW1101GA1081+003901999GF108991999999999999999999MA1100811999999REMMET072METAR LSME 121650Z AUTO 03003KT 5000NDV BR OVC013 M02/M04 Q1008 RMK GRN;
0147066130999992010011217504+47100+008300AUTO +0427LSME V0209999C000010042019N0050001N1-00201-00401999999ADDAW1101GA1081+004201999GF108991999999999999999999MA1100711999999REMMET072METAR LSME 121750Z AUTO 00000KT 5000NDV BR OVC014 M02/M04 Q1007 RMK GRN;
0147066130999992010011218504+47100+008300AUTO +0427LSME V0209999C000010042019N0050001N1-00201-00401999999ADDAW1101GA1081+004201999GF108991999999999999999999MA1100711999999REMMET072METAR LSME 121850Z AUTO 00000KT 5000NDV BR OVC014 M02/M04 Q1007 RMK GRN;
0147066130999992010011219504+47100+008300AUTO +0427LSME V0203401N000510039019N0050001N1-00201-00401999999ADDAW1101GA1081+003901999GF108991999999999999999999MA1100711999999REMMET072METAR LSME 121950Z AUTO 34001KT 5000NDV BR OVC013 M02/M04 Q1007 RMK GRN;
0147066130999992010011220504+47100+008300AUTO +0427LSME V0203401N000510039019N0050001N1-00201-00401999999ADDAW1101GA1081+003901999GF108991999999999999999999MA1100611999999REMMET072METAR LSME 122050Z AUTO 34001KT 5000NDV BR OVC013 M02/M04 Q1006 RMK GRN;
0147066130999992010011221504+47100+008300AUTO +0427LSME V0203601N000510039019N0050001N1-00201-00401999999ADDAW1101GA1081+003901999GF108991999999999999999999MA1100511999999REMMET072METAR LSME 122150Z AUTO 36001KT 5000NDV BR OVC013 M02/M04 Q1005 RMK GRN;
0147066130999992010011222504+47100+008300AUTO +0427LSME V0200301N001010039019N0050001N1-00201-00401999999ADDAW1101GA1081+003901999GF108991999999999999999999MA1100511999999REMMET072METAR LSME 122250Z AUTO 03002KT 5000NDV BR OVC013 M02/M04 Q1005 RMK GRN;
0147066130999992010011223504+47100+008300AUTO +0427LSME V0202701N000510039019N0050001N1-00201-00401999999ADDAW1101GA1081+003901999GF108991999999999999999999MA1100511999999REMMET072METAR LSME 122350Z AUTO 27001KT 5000NDV BR OVC013 M02/M04 Q1005 RMK GRN;
0201066130999992010011300504+47100+008300AUTO +0427LSME V0202601N002610039019N0050001N1-00201-00501999999ADDAW1101GA1021+003301999GA2071+003901999GA3081+039001999GF108991999999999999999999MA1100611999999REMMET094METAR LSME 130050Z AUTO 26005KT 230V290 5000NDV BR FEW011 BKN013 OVC130 M02/M05 Q1006 RMK GRN;
0147066130999992010011301504+47100+008300AUTO +0427LSME V0209999C000010300019N0049001N1-00301-00501999999ADDAW1101GA1081+030001999GF108991999999999999999999MA1100611999999REMMET072METAR LSME 130150Z AUTO 00000KT 4900NDV BR OVC100 M03/M05 Q1006 RMK GRN;
0147066130999992010011302504+47100+008300AUTO +0427LSME V0203301N001510240019N0046001N1-00301-00501999999ADDAW1101GA1081+024001999GF108991999999999999999999MA1100411999999REMMET072METAR LSME 130250Z AUTO 33003KT 4600NDV BR OVC084 M03/M05 Q1004 RMK GRN;
0193066130999992010011303504+47100+008300AUTO +0427LSME V0201201N001010210019N0045001N1-00301-00501999999ADDAW1101GA1041+003301999GA2071+021001999GA3081+027001999GF108991999999999999999999MA1100411999999REMMET086METAR LSME 130350Z AUTO 12002KT 4500NDV BR SCT011 BKN079 OVC091 M03/M05 Q1004 RMK GRN;
0170066130999992010011304504+47100+008300AUTO +0427LSME V0209999C000010033019N0046001N1-00301-00501999999ADDAW1101GA1071+003301999GA2081+021001999GF108991999999999999999999MA1100411999999REMMET079METAR LSME 130450Z AUTO 00000KT 4600NDV BR BKN011 OVC074 M03/M05 Q1004 RMK GRN;
0185066130999992010011305504+47100+008300FM-15+0427LSME V0209999C000010150019N0044001N1-00301-00401999999ADDGA1021+003601999GA2071+015001999GA3081+018001999GF108991999999999999999999MA1100411999999MW1101REMMET078METAR LSME 130550Z 00000KT 4400 BR FEW012 BKN056 OVC063 M03/M04 Q1004 RMK GRN;
0185066130999992010011306504+47100+008300FM-15+0427LSME V0202401N000510144019N0047001N1-00201-00401999999ADDGA1021+003901999GA2071+014401999GA3081+018001999GF108991999999999999999999MA1100511999999MW1101REMMET078METAR LSME 130650Z 24001KT 4700 BR FEW013 BKN048 OVC065 M02/M04 Q1005 RMK GRN;
0149066130999992010011307504+47100+008300FM-15+0427LSME V0201001N001010123019N0034001N1-00201-00401999999ADDGA1081+012301999GF108991999999999999999999MA1100511999999MW1101MW2711REMMET068METAR LSME 130750Z 10002KT 3400 -SN BR OVC041 M02/M04 Q1005 RMK GRN;
0227066130999992010011308464+47100+008300FM-15+0427LSME V0209999C00001006301CN0014001N1-00201-00401999999ADDED199U17009GA1021+004801999GA2041+006301999GA3071+010501999GF107991999999999999999999MA1100611999999MW1101MW2711REMMET103METAR LSME 130846Z 00000KT 1400 R04/1700D R22/P2000D -SN BR FEW016 SCT021 BKN035 M02/M04 Q1006 RMK RED;
0179066130999992010011309504+47100+008300FM-15+0427LSME V0209999C000010027019N0007001N1-00201-00301999999ADDED199U11009GA1081+002701999GF108991999999999999999999MA1100711999999MW1101MW2731REMMET087METAR LSME 130950Z 00000KT 0700 R04/1100N R22/1300N SN BR OVC009 M02/M03 Q1007 RMK RED;
0138066130999992010011311164+47100+008300AUTO +0427LSME V0209999C000012200019N0015001N1+00001-00201999999ADDAW1101AW2711GF100991999999999999999999MA1100711999999REMMET073METAR LSME 131116Z AUTO 00000KT 1500NDV -SN BR NCD M00/M02 Q1007 RMK AMB;
0138066130999992010011311504+47100+008300FM-15+0427LSME V0209999C000012200019N0016001N1+00001-00201999999ADDGF100991999999999999999999MA1100611999999MW1101MW2611MW3711REMMET067METAR LSME 131150Z 00000KT 1600 -RASN BR NSC M00/M02 Q1006 RMK AMB;
0156066130999992010011312504+47100+008300FM-15+0427LSME V0209999C000012200019N0015001N1+00001-00201999999ADDGA1021+002701999GF102991999999999999999999MA1100611999999MW1101MW2611MW3711REMMET069METAR LSME 131250Z 00000KT 1500 -RASN BR FEW009 00/M02 Q1006 RMK AMB;
0178066130999992010011313504+47100+008300FM-15+0427LSME V0209999V001012200019N0010001N1+00001-00101999999ADDED199U12009GA1021+002101999GF102991999999999999999999MA1100711999999MW1101MW2731REMMET086METAR LSME 131350Z VRB02KT 1000 R04/1200N R22/1300N SN BR FEW007 00/M01 Q1007 RMK RED;
0178066130999992010011314504+47100+008300FM-15+0427LSME V0209999V000510009019N0006501N1+00001-00101999999ADDED199U12009GA1081+000901999GF108991999999999999999999MA1100711999999MW1101MW2731REMMET086METAR LSME 131450Z VRB01KT 0650 R04/1200U R22/1000D SN BR OVC003 00/M01 Q1007 RMK RED;
0193066130999992010011315504+47100+008300AUTO +0427LSME V0202501N001012200019N0013001N1+00001-00101999999ADDAW1101AW2711ED199U19009GA1021+004201999GF102991999999999999999999MA1100711999999REMMET101METAR LSME 131550Z AUTO 25002KT 1300NDV R04/1900N R22/P2000N -SN BR FEW014 00/M01 Q1007 RESN RMK RED;
0156066130999992010011316504+47100+008300AUTO +0427LSME V0202201N000512200019N0017001N1+00001+00001999999ADDAW1101AW2711GA1021+005101999GF102991999999999999999999MA1100811999999REMMET075METAR LSME 131650Z AUTO 22001KT 1700NDV -SN BR FEW017 00/M00 Q1008 RMK AMB;
0187066130999992010011317504+47100+008300AUTO +0427LSME V0202501N000512200019N0013001N1+00001+00001999999ADDAW1101AW2711ED199U17009GA1021+004201999GF102991999999999999999999MA1100811999999REMMET095METAR LSME 131750Z AUTO 25001KT 1300NDV R04/1700N R22/1900D -SN BR FEW014 00/M00 Q1008 RMK RED;
0171066130999992010011319014+47100+008300AUTO +0427LSME V0209999C000012200019N0014001N1+00001+00001999999ADDAW1301AW2671ED199U19009GF100991999999999999999999MA1100911999999REMMET095METAR LSME 131901Z AUTO 00000KT 1400NDV R04/1900N R22/P2000N -RASN FG NCD 00/M00 Q1009 RMK RED;
0181066130999992010011319504+47100+008300AUTO +0427LSME V0209999V000512200019N0019001N1+00001+00001999999ADDAW1101AW2671GA1021+001501999GA2041+005401999GF104991999999999999999999MA1100911999999REMMET084METAR LSME 131950Z AUTO VRB01KT 1900NDV -RASN BR FEW005 SCT018 00/M00 Q1009 RMK AMB;
0202066130999992010011320504+47100+008300AUTO +0427LSME V0209999C00001002401CN0020001N1+00001+00001999999ADDAW1101AW2611GA1021+001501999GA2041+002401999GA3071+003301999GF107991999999999999999999MA1100911999999REMMET089METAR LSME 132050Z AUTO 00000KT 2000NDV -RA BR FEW005 SCT008 BKN011 00/M00 Q1009 RMK YLO;
0225066130999992010011321524+47100+008300AUTO +0427LSME V0203401N000510015019N0013001N1+00101+00001999999ADDAW1101ED199U20009GA1021+000601999GA2071+001501999GA3081+003301999GF108991999999999999999999MA1100911999999REMMET107METAR LSME 132152Z AUTO 34001KT 1300NDV R04/P2000D R22/P2000N BR FEW002 BKN005 OVC011 01/M00 Q1009 RMK RED;
0169066130999992010011322504+47100+008300AUTO +0427LSME V0209999C000010009019N0021001N1+00001+00001999999ADDAW1101GA1071+000901999GA2081+003001999GF108991999999999999999999MA1100811999999REMMET078METAR LSME 132250Z AUTO 00000KT 2100NDV BR BKN003 OVC010 00/M00 Q1008 RMK AMB;
0169066130999992010011323504+47100+008300AUTO +0427LSME V0209999V000510012019N0021001N1+00001+00001999999ADDAW1101GA1071+001201999GA2081+002401999GF108991999999999999999999MA1100811999999REMMET078METAR LSME 132350Z AUTO VRB01KT 2100NDV BR BKN004 OVC008 00/M00 Q1008 RMK AMB;
0169066130999992010011400504+47100+008300AUTO +0427LSME V0209999C000010009019N0017001N1+00001+00001999999ADDAW1101GA1071+000901999GA2081+002401999GF108991999999999999999999MA1100711999999REMMET078METAR LSME 140050Z AUTO 00000KT 1700NDV BR BKN003 OVC008 00/M00 Q1007 RMK AMB;
0200066130999992010011401504+47100+008300AUTO +0427LSME V0200601N001510015019N0014001N1+00001+00001999999ADDAW1101ED199U19009GA1021+000301999GA2081+001501999GF108991999999999999999999MA1100611999999REMMET098METAR LSME 140150Z AUTO 06003KT 1400NDV R04/1900D R22/2000N BR FEW001 OVC005 00/M00 Q1006 RMK RED;
0145066130999992010011402504+47100+008300AUTO +0427LSME V0203501N000510012019N0027001N1+00101+00001999999ADDAW1101GA1081+001201999GF108991999999999999999999MA1100611999999REMMET070METAR LSME 140250Z AUTO 35001KT 2700NDV BR OVC004 01/00 Q1006 RMK AMB;
0145066130999992010011403504+47100+008300AUTO +0427LSME V0209999V001010012019N0026001N1+00101+00001999999ADDAW1101GA1081+001201999GF108991999999999999999999MA1100611999999REMMET070METAR LSME 140350Z AUTO VRB02KT 2600NDV BR OVC004 01/00 Q1006 RMK AMB;
0154066130999992010011404504+47100+008300AUTO +0427LSME V0200701N001510009019N0025001N1+00101+00001999999ADDAW1101GA1081+000901999GF108991999999999999999999MA1100611999999REMMET079METAR LSME 140450Z AUTO 07003KT 030V100 2500NDV BR OVC003 01/M00 Q1006 RMK AMB;
0138066130999992010011405504+47100+008300FM-15+0427LSME V0209999V001010012019N0027001N1+00101+00001999999ADDGA1081+001201999GF108991999999999999999999MA1100611999999MW1101REMMET063METAR LSME 140550Z VRB02KT 2700 BR OVC004 01/M00 Q1006 RMK AMB;
0138066130999992010011406504+47100+008300FM-15+0427LSME V0200401N002110009019N0034001N1+00101+00001999999ADDGA1081+000901999GF108991999999999999999999MA1100511999999MW1101REMMET063METAR LSME 140650Z 04004KT 3400 BR OVC003 01/M00 Q1005 RMK AMB;
0161066130999992010011407504+47100+008300FM-15+0427LSME V0200501N002110012019N0023001N1+00101+00001999999ADDGA1041+000601999GA2081+001201999GF108991999999999999999999MA1100511999999MW1101REMMET070METAR LSME 140750Z 05004KT 2300 BR SCT002 OVC004 01/M00 Q1005 RMK AMB;
0137066130999992010011408504+47100+008300FM-15+0427LSME V0200301N002610021019N0060001N1+00101-00101999999ADDGA1081+002101999GF108991999999999999999999MA1100511999999REMMET068METAR LSME 140850Z 03005KT 360V060 6000 OVC007 01/M01 Q1005 RMK YLO;
0129066130999992010011409504+47100+008300FM-15+0427LSME V0200401N003610021019N0070001N1+00101-00101999999ADDGA1081+002101999GF108991999999999999999999MA1100511999999REMMET060METAR LSME 140950Z 04007KT 7000 OVC007 01/M01 Q1005 RMK YLO;
0137066130999992010011410504+47100+008300AUTO +0427LSME V0200601N001510024019N0070001N1+00101-00101999999ADDGA1081+002401999GF108991999999999999999999MA1100511999999REMMET068METAR LSME 141050Z AUTO 06003KT 7000NDV OVC008 01/M01 Q1005 RMK YLO;
0160066130999992010011411504+47100+008300FM-15+0427LSME V0200301N002610030019N0090001N1+00101-00101999999ADDGA1021+002401999GA2081+003001999GF108991999999999999999999MA1100411999999REMMET075METAR LSME 141150Z 03005KT 010V080 9000 FEW008 OVC010 01/M01 Q1004 RMK GRN;
0129066130999992010011413504+47100+008300FM-15+0427LSME V0202501N002110042019N0112651N1+00201-00101999999ADDGA1081+004201999GF108991999999999999999999MA1100411999999REMMET060METAR LSME 141350Z 25004KT 9999 OVC014 02/M01 Q1004 RMK GRN;
0129066130999992010011414504+47100+008300FM-15+0427LSME V0202101N001010045019N0112651N1+00201-00101999999ADDGA1081+004501999GF108991999999999999999999MA1100411999999REMMET060METAR LSME 141450Z 21002KT 9999 OVC015 02/M01 Q1004 RMK GRN;
0137066130999992010011415504+47100+008300AUTO +0427LSME V0209999C000010048019N0070001N1+00101+00001999999ADDGA1081+004801999GF108991999999999999999999MA1100511999999REMMET068METAR LSME 141550Z AUTO 00000KT 7000NDV OVC016 01/M00 Q1005 RMK GRN;
0137066130999992010011417114+47100+008300AUTO +0427LSME V0209999C000010045019N0050001N1+00101+00001999999ADDGA1081+004501999GF108991999999999999999999MA1100511999999REMMET068METAR LSME 141711Z AUTO 00000KT 5000NDV OVC015 01/M00 Q1005 RMK GRN;
0146066130999992010011417504+47100+008300AUTO +0427LSME V0209999C000010045019N0050001N1+00101+00001999999ADDAW1101GA1081+004501999GF108991999999999999999999MA1100611999999REMMET071METAR LSME 141750Z AUTO 00000KT 5000NDV BR OVC015 01/M00 Q1006 RMK GRN;
0160066130999992010011419004+47100+008300AUTO +0427LSME V0209999C000010042019N0050001N1+00101+00001999999ADDGA1041+003601999GA2081+004201999GF108991999999999999999999MA1100711999999REMMET075METAR LSME 141900Z AUTO 00000KT 5000NDV SCT012 OVC014 01/M00 Q1007 RMK GRN;
0137066130999992010011419504+47100+008300AUTO +0427LSME V0209999C000010039019N0060001N1+00101+00001999999ADDGA1081+003901999GF108991999999999999999999MA1100711999999REMMET068METAR LSME 141950Z AUTO 00000KT 6000NDV OVC013 01/M00 Q1007 RMK GRN;
0146066130999992010011420504+47100+008300AUTO +0427LSME V0209999V000510045019N0044001N1+00101+00001999999ADDAW1101GA1081+004501999GF108991999999999999999999MA1100811999999REMMET071METAR LSME 142050Z AUTO VRB01KT 4400NDV BR OVC015 01/M00 Q1008 RMK GRN;
0146066130999992010011422504+47100+008300AUTO +0427LSME V0209999C000010048019N0042001N1+00101+00001999999ADDAW1101GA1081+004801999GF108991999999999999999999MA1101021999999REMMET071METAR LSME 142250Z AUTO 00000KT 4200NDV BR OVC016 01/M00 Q1010 RMK GRN;
0146066130999992010011423504+47100+008300AUTO +0427LSME V0209999C000010054019N0032001N1+00101+00001999999ADDAW1101GA1081+005401999GF108991999999999999999999MA1101081999999REMMET071METAR LSME 142350Z AUTO 00000KT 3200NDV BR OVC018 01/M00 Q1011 RMK GRN;
0169066130999992010011500504+47100+008300AUTO +0427LSME V0209999C000010048019N0060001N1+00001+00001999999ADDAW1101GA1021+004201999GA2081+004801999GF108991999999999999999999MA1101191999999REMMET078METAR LSME 150050Z AUTO 00000KT 6000NDV BR FEW014 OVC016 00/M00 Q1012 RMK GRN;
0146066130999992010011501504+47100+008300AUTO +0427LSME V0209999C000010051019N0050001N1+00101+00001999999ADDAW1101GA1081+005101999GF108991999999999999999999MA1101191999999REMMET071METAR LSME 150150Z AUTO 00000KT 5000NDV BR OVC017 01/M00 Q1012 RMK GRN;
0137066130999992010011502504+47100+008300AUTO +0427LSME V0202201N001510054019N0080001N1+00101-00201999999ADDGA1081+005401999GF108991999999999999999999MA1101391999999REMMET068METAR LSME 150250Z AUTO 22003KT 8000NDV OVC018 01/M02 Q1014 RMK GRN;
0160066130999992010011503504+47100+008300AUTO +0427LSME V0202601N001510054019N0070001N1+00101-00201999999ADDGA1021+003901999GA2081+005401999GF108991999999999999999999MA1101391999999REMMET075METAR LSME 150350Z AUTO 26003KT 7000NDV FEW013 OVC018 01/M02 Q1014 RMK GRN;
0137066130999992010011504504+47100+008300AUTO +0427LSME V0201801N001510054019N0080001N1+00001-00201999999ADDGA1071+005401999GF107991999999999999999999MA1101491999999REMMET068METAR LSME 150450Z AUTO 18003KT 8000NDV BKN018 00/M02 Q1015 RMK GRN;
0130066130999992010011505504+47100+008300FM-15+0427LSME V0209999V000510054019N0080001N1-00101-00301999999ADDGA1071+005401999GF107991999999999999999999MA1101591999999REMMET061METAR LSME 150550Z VRB01KT 8000 BKN018 M01/M03 Q1016 RMK WHT;
0130066130999992010011506504+47100+008300FM-15+0427LSME V0202301N001010048019N0070001N1-00101-00201999999ADDGA1081+004801999GF108991999999999999999999MA1101691999999REMMET061METAR LSME 150650Z 23002KT 7000 OVC016 M01/M02 Q1017 RMK GRN;
0130066130999992010011507504+47100+008300FM-15+0427LSME V0202101N001510048019N0070001N1+00001-00201999999ADDGA1081+004801999GF108991999999999999999999MA1101801999999REMMET061METAR LSME 150750Z 21003KT 7000 OVC016 M00/M02 Q1018 RMK GRN;
0129066130999992010011508504+47100+008300FM-15+0427LSME V0209999C000010045019N0070001N1+00001-00201999999ADDGA1081+004501999GF108991999999999999999999MA1101901999999REMMET060METAR LSME 150850Z 00000KT 7000 OVC015 00/M02 Q1019 RMK GRN;
0129066130999992010011509504+47100+008300FM-15+0427LSME V0209999V000510045019N0070001N1+00101-00201999999ADDGA1081+004501999GF108991999999999999999999MA1102001999999REMMET060METAR LSME 150950Z VRB01KT 7000 OVC015 01/M02 Q1020 RMK GRN;
0137066130999992010011510504+47100+008300AUTO +0427LSME V0209999C000010042019N0090001N1+00201-00201999999ADDGA1081+004201999GF108991999999999999999999MA1102001999999REMMET068METAR LSME 151050Z AUTO 00000KT 9000NDV OVC014 02/M02 Q1020 RMK GRN;
0129066130999992010011511504+47100+008300FM-15+0427LSME V0209999C000010042019N0070001N1+00201-00201999999ADDGA1081+004201999GF108991999999999999999999MA1102101999999REMMET060METAR LSME 151150Z 00000KT 7000 OVC014 02/M02 Q1021 RMK GRN;
0129066130999992010011512504+47100+008300FM-15+0427LSME V0209999V000510042019N0060001N1+00201-00201999999ADDGA1081+004201999GF108991999999999999999999MA1102101999999REMMET060METAR LSME 151250Z VRB01KT 6000 OVC014 02/M02 Q1021 RMK GRN;
0129066130999992010011513504+47100+008300FM-15+0427LSME V0209999C000010039019N0060001N1+00201-00201999999ADDGA1081+003901999GF108991999999999999999999MA1102201999999REMMET060METAR LSME 151350Z 00000KT 6000 OVC013 02/M02 Q1022 RMK GRN;
0129066130999992010011514504+47100+008300FM-15+0427LSME V0209999V000510039019N0060001N1+00201-00201999999ADDGA1081+003901999GF108991999999999999999999MA1102201999999REMMET060METAR LSME 151450Z VRB01KT 6000 OVC013 02/M02 Q1022 RMK GRN;
0137066130999992010011515504+47100+008300AUTO +0427LSME V0209999V001010039019N0060001N1+00201-00201999999ADDGA1081+003901999GF108991999999999999999999MA1102301999999REMMET068METAR LSME 151550Z AUTO VRB02KT 6000NDV OVC013 02/M02 Q1023 RMK GRN;
0160066130999992010011516504+47100+008300AUTO +0427LSME V0203601N001510039019N0050001N1+00101-00101999999ADDGA1071+003901999GA2081+036001999GF108991999999999999999999MA1102301999999REMMET075METAR LSME 151650Z AUTO 36003KT 5000NDV BKN013 OVC120 01/M01 Q1023 RMK GRN;
0137066130999992010011517504+47100+008300AUTO +0427LSME V0209999V000510039019N0060001N1+00101-00101999999ADDGA1081+003901999GF108991999999999999999999MA1102401999999REMMET068METAR LSME 151750Z AUTO VRB01KT 6000NDV OVC013 01/M01 Q1024 RMK GRN;
0137066130999992010011518504+47100+008300AUTO +0427LSME V0209999C000010033019N0050001N1+00101-00101999999ADDGA1081+003301999GF108991999999999999999999MA1102401999999REMMET068METAR LSME 151850Z AUTO 00000KT 5000NDV OVC011 01/M01 Q1024 RMK GRN;
0137066130999992010011519504+47100+008300AUTO +0427LSME V0209999C000010036019N0060001N1+00101-00201999999ADDGA1081+003601999GF108991999999999999999999MA1102401999999REMMET068METAR LSME 151950Z AUTO 00000KT 6000NDV OVC012 01/M02 Q1024 RMK GRN;
0137066130999992010011520504+47100+008300AUTO +0427LSME V0209999C000010036019N0060001N1+00101-00201999999ADDGA1081+003601999GF108991999999999999999999MA1102401999999REMMET068METAR LSME 152050Z AUTO 00000KT 6000NDV OVC012 01/M02 Q1024 RMK GRN;
0168066130999992010011521504+47100+008300AUTO +0427LSME V0201201N001510042019N0060001N1+00101-00201999999ADDGA1041+003601999GA2081+004201999GF108991999999999999999999MA1102401999999REMMET083METAR LSME 152150Z AUTO 12003KT 100V190 6000NDV SCT012 OVC014 01/M02 Q1024 RMK GRN;
0146066130999992010011522504+47100+008300AUTO +0427LSME V0200101N002110036019N0050001N1+00101-00101999999ADDAW1101GA1081+003601999GF108991999999999999999999MA1102401999999REMMET071METAR LSME 152250Z AUTO 01004KT 5000NDV BR OVC012 01/M01 Q1024 RMK GRN;
0177066130999992010011523504+47100+008300AUTO +0427LSME V0200301N001510039019N0050001N1+00101-00201999999ADDAW1101GA1041+003301999GA2081+003901999GF108991999999999999999999MA1102401999999REMMET086METAR LSME 152350Z AUTO 03003KT 350V060 5000NDV BR SCT011 OVC013 01/M02 Q1024 RMK GRN;
0145066130999992010011600504+47100+008300AUTO +0427LSME V0200801N001510036019N0050001N1+00001-00201999999ADDGA1081+003601999GF108991999999999999999999MA1102401999999REMMET076METAR LSME 160050Z AUTO 08003KT 030V110 5000NDV OVC012 00/M02 Q1024 RMK GRN;
0137066130999992010011601504+47100+008300AUTO +0427LSME V0209999C000010036019N0050001N1+00001-00201999999ADDGA1081+003601999GF108991999999999999999999MA1102401999999REMMET068METAR LSME 160150Z AUTO 00000KT 5000NDV OVC012 00/M02 Q1024 RMK GRN;
0137066130999992010011602504+47100+008300AUTO +0427LSME V0203601N001010036019N0050001N1+00001-00201999999ADDGA1081+003601999GF108991999999999999999999MA1102301999999REMMET068METAR LSME 160250Z AUTO 36002KT 5000NDV OVC012 00/M02 Q1023 RMK GRN;
0146066130999992010011603504+47100+008300AUTO +0427LSME V0203501N000510039019N0050001N1+00001-00201999999ADDAW1101GA1081+003901999GF108991999999999999999999MA1102301999999REMMET071METAR LSME 160350Z AUTO 35001KT 5000NDV BR OVC013 00/M02 Q1023 RMK GRN;
0170066130999992010011604504+47100+008300AUTO +0427LSME V0201101N001510036019N0049001N1+00001-00201999999ADDAW1101GA1041+003001999GA2081+003601999GF108991999999999999999999MA1102201999999REMMET079METAR LSME 160450Z AUTO 11003KT 4900NDV BR SCT010 OVC012 M00/M02 Q1022 RMK GRN;
0138066130999992010011605504+47100+008300AUTO +0427LSME V0209999V001010033019N0060001N1+00001-00201999999ADDGA1081+003301999GF108991999999999999999999MA1102201999999REMMET069METAR LSME 160550Z AUTO VRB02KT 6000NDV OVC011 M00/M02 Q1022 RMK GRN;
0147066130999992010011606504+47100+008300AUTO +0427LSME V0209999V001010039019N0050001N1+00001-00201999999ADDAW1101GA1081+003901999GF108991999999999999999999MA1102201999999REMMET072METAR LSME 160650Z AUTO VRB02KT 5000NDV BR OVC013 M00/M02 Q1022 RMK GRN;
0138066130999992010011607504+47100+008300AUTO +0427LSME V0209999C000010036019N0050001N1+00001-00301999999ADDGA1081+003601999GF108991999999999999999999MA1102101999999REMMET069METAR LSME 160750Z AUTO 00000KT 5000NDV OVC012 M00/M03 Q1021 RMK GRN;
0138066130999992010011608504+47100+008300AUTO +0427LSME V0209999C000010036019N0050001N1+00001-00201999999ADDGA1081+003601999GF108991999999999999999999MA1102101999999REMMET069METAR LSME 160850Z AUTO 00000KT 5000NDV OVC012 M00/M02 Q1021 RMK GRN;
0146066130999992010011609504+47100+008300AUTO +0427LSME V0202501N001510036019N0050001N1+00001-00301999999ADDGA1081+003601999GF108991999999999999999999MA1102001999999REMMET077METAR LSME 160950Z AUTO 25003KT 210V280 5000NDV OVC012 M00/M03 Q1020 RMK GRN;
0138066130999992010011610504+47100+008300AUTO +0427LSME V0202001N002110039019N0060001N1+00001-00301999999ADDGA1081+003901999GF108991999999999999999999MA1102001999999REMMET069METAR LSME 161050Z AUTO 20004KT 6000NDV OVC013 M00/M03 Q1020 RMK GRN;
0146066130999992010011611504+47100+008300AUTO +0427LSME V0202601N002610036019N0050001N1-00101-00301999999ADDGA1081+003601999GF108991999999999999999999MA1102001999999REMMET077METAR LSME 161150Z AUTO 26005KT 220V290 5000NDV OVC012 M01/M03 Q1020 RMK GRN;
0146066130999992010011612504+47100+008300AUTO +0427LSME V0203201N002610030019N0050001N1-00101-00301999999ADDGA1081+003001999GF108991999999999999999999MA1102001999999REMMET077METAR LSME 161250Z AUTO 32005KT 280V350 5000NDV OVC010 M01/M03 Q1020 RMK GRN;
0129066130999992010011806504+47100+008300FM-15+0427LSME V0209999V001010210019N0112651N1+00001-00101999999ADDGA1081+021001999GF108991999999999999999999MA1102611999999REMMET060METAR LSME 180650Z VRB02KT 9999 OVC079 00/M01 Q1026 RMK WHT;
0152066130999992010011807504+47100+008300FM-15+0427LSME V0209999C000010240019N0112651N1+00101-00101999999ADDGA1021+012901999GA2071+024001999GF107991999999999999999999MA1102711999999REMMET067METAR LSME 180750Z 00000KT 9999 FEW043 BKN081 01/M01 Q1027 RMK WHT;
0129066130999992010011808504+47100+008300FM-15+0427LSME V0203401N000510210019N0112651N1+00101+00001999999ADDGA1071+021001999GF107991999999999999999999MA1102711999999REMMET060METAR LSME 180850Z 34001KT 9999 BKN078 01/M00 Q1027 RMK WHT;
0128066130999992010011809504+47100+008300FM-15+0427LSME V0209999V000510210019N0112651N1+00301+00101999999ADDGA1071+021001999GF107991999999999999999999MA1102711999999REMMET059METAR LSME 180950Z VRB01KT 9999 BKN075 03/01 Q1027 RMK WHT;
0137066130999992010011810504+47100+008300AUTO +0427LSME V0209999V001010210019N0112651N1+00501+00001999999ADDGA1071+021001999GF107991999999999999999999MA1102711999999REMMET068METAR LSME 181050Z AUTO VRB02KT 9999NDV BKN075 05/M00 Q1027 RMK WHT;
0136066130999992010011811504+47100+008300FM-15+0427LSME V0200301N001512200019N0112651N1+00501+00001999999ADDGA1021+010501999GF102991999999999999999999MA1102611999999REMMET067METAR LSME 181150Z 03003KT 350V080 9999 FEW035 05/00 Q1026 RMK BLU;
0137066130999992010011817504+47100+008300AUTO +0427LSME V0209999V000510081019N0112651N1+00201+00001999999ADDGA1081+008101999GF108991999999999999999999MA1102611999999REMMET068METAR LSME 181750Z AUTO VRB01KT 9999NDV OVC027 02/M00 Q1026 RMK WHT;
0160066130999992010011818504+47100+008300AUTO +0427LSME V0209999C000010087019N0112651N1+00201+00001999999ADDGA1021+007501999GA2081+008701999GF108991999999999999999999MA1102611999999REMMET075METAR LSME 181850Z AUTO 00000KT 9999NDV FEW025 OVC029 02/M00 Q1026 RMK WHT;
0137066130999992010011820504+47100+008300AUTO +0427LSME V0209999V001010090019N0112651N1+00101-00101999999ADDGA1071+009001999GF107991999999999999999999MA1102511999999REMMET068METAR LSME 182050Z AUTO VRB02KT 9999NDV BKN030 01/M01 Q1025 RMK WHT;
0138066130999992010011821504+47100+008300AUTO +0427LSME V0209999V000512200019N0112651N1+00001-00201999999ADDGA1021+007801999GF102991999999999999999999MA1102511999999REMMET069METAR LSME 182150Z AUTO VRB01KT 9999NDV FEW026 M00/M02 Q1025 RMK BLU;
0128066130999992010011822494+47100+008300AUTO +0427LSME V0209999C000012200019N0024001N1-00201-00201999999ADDAW1101GF100991999999999999999999MA1102511999999REMMET069METAR LSME 182249Z AUTO 00000KT 2400NDV BR NCD M02/M02 Q1025 RMK YLO;
0128066130999992010011823504+47100+008300AUTO +0427LSME V0209999C000012200019N0080001N1-00201-00301999999ADDAW1101GF100991999999999999999999MA1102511999999REMMET069METAR LSME 182350Z AUTO 00000KT 8000NDV BR NCD M02/M03 Q1025 RMK BLU;
0128066130999992010011901064+47100+008300AUTO +0427LSME V0209999V000512200019N0043001N1-00401-00401999999ADDAW1101GF100991999999999999999999MA1102401999999REMMET069METAR LSME 190106Z AUTO VRB01KT 4300NDV BR NCD M04/M04 Q1024 RMK GRN;
0193066130999992010011902034+47100+008300AUTO +0427LSME V0209999C000012200019N0007001N1-00301-00401999999ADDED199U07509GA1041+000601999GA2041+001201999GF104991999999999999999999MA1102401999999REMMET097METAR LSME 190203Z AUTO 00000KT 0700NDV R04/0750D R22/P2000N SCT002 SCT004 M03/M04 Q1024 RMK RED;
0204066130999992010011902494+47100+008300AUTO +0427LSME V0209999V001010012019N0004501N1-00201-00301999999ADDAW1351ED199U20009GA1041+000601999GA2071+001201999GF107991999999999999999999MA1102401999999REMMET102METAR LSME 190249Z AUTO VRB02KT 0450NDV R04/P2000N R22/0500N FZFG SCT002 BKN004 M02/M03 Q1024 RMK RED;
0179066130999992010011903504+47100+008300AUTO +0427LSME V0209999C000010003019N0004501N1-00201-00301999999ADDAW1351ED199U05009GA1091+000301999GF109991999999000251999999MA1102401999999REMMET093METAR LSME 190350Z AUTO 00000KT 0450NDV R04/0500D R22/0400N FZFG VV001 M02/M03 Q1024 RMK RED;
0180066130999992010011905064+47100+008300AUTO +0427LSME V0200901N000510003019N0003001N1-00201-00201999999ADDAW1351ED199U05009GA1071+000301999GF107991999999999999999999MA1102301999999REMMET094METAR LSME 190506Z AUTO 09001KT 0300NDV R04/0500D R22/0350N FZFG BKN001 M02/M02 Q1023 RMK RED;
0171066130999992010011905504+47100+008300FM-15+0427LSME V0209999V001010003019N0003501N1-00201-00201999999ADDED199U04009GA1091+000301999GF109991999999000251999999MA1102301999999MW1491REMMET085METAR LSME 190550Z VRB02KT 0350 R04/0400N R22/0375N FZFG VV001 M02/M02 Q1023 RMK RED;
0171066130999992010011906504+47100+008300FM-15+0427LSME V0209999V000510003019N0003001N1-00201-00201999999ADDED199U03759GA1091+000301999GF109991999999000251999999MA1102301999999MW1491REMMET085METAR LSME 190650Z VRB01KT 0300 R04/0375N R22/0550N FZFG VV001 M02/M02 Q1023 RMK RED;
0172066130999992010011907504+47100+008300FM-15+0427LSME V0209999V001012200019N0006001N1-00101-00201999999ADDED199U20009GA1041+000601999GF104991999999999999999999MA1102301999999MW1481REMMET086METAR LSME 190750Z VRB02KT 0600 R04/2000U R22/0900U FZFG SCT002 M01/M02 Q1023 RMK RED;
0170066130999992010011908504+47100+008300FM-15+0427LSME V0209999V000510006019N0013001N1-00101-00201999999ADDED199U19009GA1071+000601999GF107991999999999999999999MA1102301999999MW1101REMMET084METAR LSME 190850Z VRB01KT 1300 R04/1900N R22/2000U BR BKN002 M01/M02 Q1023 RMK RED;
0162066130999992010011909504+47100+008300FM-15+0427LSME V0209999C000010015019N0016001N1-00101-00201999999ADDGA1041+000601999GA2081+001501999GF108991999999999999999999MA1102301999999MW1101REMMET071METAR LSME 190950Z 00000KT 1600 BR SCT002 OVC005 M01/M02 Q1023 RMK AMB;
0147066130999992010011911074+47100+008300AUTO +0427LSME V0209999V001010015019N0040001N1-00101-00201999999ADDAW1101GA1081+001501999GF108991999999999999999999MA1102201999999REMMET072METAR LSME 191107Z AUTO VRB02KT 4000NDV BR OVC005 M01/M02 Q1022 RMK YLO;
0139066130999992010011911474+47100+008300FM-15+0427LSME V0209999V001010018019N0027001N1-00101-00201999999ADDGA1081+001801999GF108991999999999999999999MA1102101999999MW1101REMMET064METAR LSME 191147Z VRB02KT 2700 BR OVC006 M01/M02 Q1021 RMK YLO;
0139066130999992010011912504+47100+008300FM-15+0427LSME V0209999V001010018019N0039001N1-00101-00201999999ADDGA1081+001801999GF108991999999999999999999MA1102101999999MW1101REMMET064METAR LSME 191250Z VRB02KT 3900 BR OVC006 M01/M02 Q1021 RMK YLO;
0139066130999992010011913504+47100+008300FM-15+0427LSME V0209999V001010018019N0038001N1-00101-00101999999ADDGA1081+001801999GF108991999999999999999999MA1102001999999MW1101REMMET064METAR LSME 191350Z VRB02KT 3800 BR OVC006 M01/M01 Q1020 RMK YLO;
0139066130999992010011914504+47100+008300FM-15+0427LSME V0209999V001010018019N0040001N1-00101-00201999999ADDGA1081+001801999GF108991999999999999999999MA1102001999999MW1101REMMET064METAR LSME 191450Z VRB02KT 4000 BR OVC006 M01/M02 Q1020 RMK YLO;
0147066130999992010011915504+47100+008300AUTO +0427LSME V0209999V001010015019N0038001N1-00101-00201999999ADDAW1101GA1081+001501999GF108991999999999999999999MA1102001999999REMMET072METAR LSME 191550Z AUTO VRB02KT 3800NDV BR OVC005 M01/M02 Q1020 RMK YLO;
0147066130999992010011916504+47100+008300AUTO +0427LSME V0200801N001010015019N0044001N1-00101-00201999999ADDAW1101GA1081+001501999GF108991999999999999999999MA1102001999999REMMET072METAR LSME 191650Z AUTO 08002KT 4400NDV BR OVC005 M01/M02 Q1020 RMK YLO;
0147066130999992010011918504+47100+008300AUTO +0427LSME V0209999C000010012019N0032001N1-00101-00201999999ADDAW1101GA1081+001201999GF108991999999999999999999MA1101901999999REMMET072METAR LSME 191850Z AUTO 00000KT 3200NDV BR OVC004 M01/M02 Q1019 RMK AMB;
0147066130999992010011919494+47100+008300AUTO +0427LSME V0209999V001010012019N0029001N1-00101-00201999999ADDAW1101GA1081+001201999GF108991999999999999999999MA1101901999999REMMET072METAR LSME 191949Z AUTO VRB02KT 2900NDV BR OVC004 M01/M02 Q1019 RMK AMB;
0147066130999992010012008224+47100+008300FM-15+0427LSME V0200501N001510018019N0032001N1-00201-00301999999ADDGA1081+001801999GF108991999999999999999999MA1101491999999MW1101REMMET072METAR LSME 200822Z 05003KT 020V100 3200 BR OVC006 M02/M03 Q1015 RMK YLO;
0170066130999992010012008464+47100+008300FM-15+0427LSME V0200401N002610021019N0028001N1-00201-00301999999ADDGA1041+001501999GA2081+002101999GF108991999999999999999999MA1101491999999MW1101REMMET079METAR LSME 200846Z 04005KT 010V070 2800 BR SCT005 OVC007 M02/M03 Q1015 RMK YLO;
0147066130999992010012009504+47100+008300FM-15+0427LSME V0200301N002610018019N0033001N1-00201-00301999999ADDGA1081+001801999GF108991999999999999999999MA1101391999999MW1101REMMET072METAR LSME 200950Z 03005KT 010V070 3300 BR OVC006 M02/M03 Q1014 RMK YLO;
0138066130999992010012010504+47100+008300AUTO +0427LSME V0209999V000510021019N0042001N1-00201-00401999999ADDGA1081+002101999GF108991999999999999999999MA1101391999999REMMET069METAR LSME 201050Z AUTO VRB01KT 4200NDV OVC007 M02/M04 Q1014 RMK YLO;
0155066130999992010012011504+47100+008300AUTO +0427LSME V0200301N001510024019N0041001N1-00201-00301999999ADDAW1101GA1081+002401999GF108991999999999999999999MA1101391999999REMMET080METAR LSME 201150Z AUTO 03003KT 340V090 4100NDV BR OVC008 M02/M03 Q1014 RMK YLO;
0139066130999992010012012504+47100+008300FM-15+0427LSME V0209999V001010027019N0043001N1-00101-00301999999ADDGA1081+002701999GF108991999999999999999999MA1101391999999MW1101REMMET064METAR LSME 201250Z VRB02KT 4300 BR OVC009 M01/M03 Q1014 RMK YLO;
0139066130999992010012013504+47100+008300FM-15+0427LSME V0209999V001010027019N0043001N1-00101-00301999999ADDGA1081+002701999GF108991999999999999999999MA1101391999999MW1101REMMET064METAR LSME 201350Z VRB02KT 4300 BR OVC009 M01/M03 Q1014 RMK YLO;
0139066130999992010012014504+47100+008300FM-15+0427LSME V0209999V001010033019N0044001N1-00101-00301999999ADDGA1081+003301999GF108991999999999999999999MA1101291999999MW1101REMMET064METAR LSME 201450Z VRB02KT 4400 BR OVC011 M01/M03 Q1013 RMK GRN;
0138066130999992010012015504+47100+008300AUTO +0427LSME V0209999V000510033019N0046001N1-00101-00301999999ADDGA1071+003301999GF107991999999999999999999MA1101291999999REMMET069METAR LSME 201550Z AUTO VRB01KT 4600NDV BKN011 M01/M03 Q1013 RMK GRN;
0201066130999992010012016504+47100+008300AUTO +0427LSME V0200401N001510030019N0047001N1-00101-00301999999ADDAW1101GA1071+003001999GA2071+014401999GA3071+039001999GF107991999999999999999999MA1101391999999REMMET094METAR LSME 201650Z AUTO 04003KT 360V070 4700NDV BR BKN010 BKN048 BKN130 M01/M03 Q1014 RMK GRN;
0203066130999992010012018514+47100+008300AUTO +0427LSME V0209999V001010063019N0026001N1-00101-00301999999ADDAW1101AW2711GA1021+005101999GA2071+006301999GA3071+010801999GF107991999999999999999999MA1101491999999REMMET090METAR LSME 201851Z AUTO VRB02KT 2600NDV -SN BR FEW017 BKN021 BKN036 M01/M03 Q1015 RMK GRN;
0137066130999992010012019504+47100+008300AUTO +0427LSME V0200901N000512200019N0017001N1-00201-00201999999ADDAW1101AW2721GF100991999999999999999999MA1101491999999REMMET072METAR LSME 201950Z AUTO 09001KT 1700NDV SN BR NCD M02/M02 Q1015 RMK AMB;
0156066130999992010012020504+47100+008300AUTO +0427LSME V0209999C000012200019N0018001N1-00101-00201999999ADDAW1101AW2721GA1021+002701999GF102991999999999999999999MA1101491999999REMMET075METAR LSME 202050Z AUTO 00000KT 1800NDV SN BR FEW009 M01/M02 Q1015 RMK AMB;
0137066130999992010012022044+47100+008300AUTO +0427LSME V0209999C000012200019N0018001N1-00101-00201999999ADDAW1101AW2721GF100991999999999999999999MA1101591999999REMMET072METAR LSME 202204Z AUTO 00000KT 1800NDV SN BR NCD M01/M02 Q1016 RMK AMB;
0143066130999992010012022504+47100+008300AUTO +0427LSME V0209999C000012200019N0020001N1-00101-00201999999ADDAW1101AW2711GF100991999999999999999999MA1101591999999REMMET078METAR LSME 202250Z AUTO 00000KT 2000NDV -SN BR NCD M01/M02 Q1016 RESN RMK YLO;
0139066130999992010012106504+47100+008300FM-15+0427LSME V0202501N001010210019N0026001N1-00101-00201999999ADDGA1081+021001999GF108991999999999999999999MA1102001999999MW1101REMMET064METAR LSME 210650Z 25002KT 2600 BR OVC071 M01/M02 Q1020 RMK YLO;
0123066130999992010012107504+47100+008300FM-15+0427LSME V0209999C000012200019N0002501N1-00101-00101999999ADDMA1102001999999REMMET096METAR LSME 210750Z 00000KT 0250 R04/0250V0600N R22/1000V1700D FZFG BKN071 M01/M01 Q1020 RMK RED;
0118066130999992010012108504+47100+008300FM-15+0427LSME V0209999C000012200019N0002001N1-00201-00301999999ADDMA1102101999999REMMET091METAR LSME 210850Z 00000KT 0200 R04/0200V0400D R22/0200N FZFG FEW060 M02/M03 Q1021 RMK RED;
0119066130999992010012109504+47100+008300FM-15+0427LSME V0209999C000012200019N0031001N1+00001-00101999999ADDGF100991999999999999999999MA1102101999999MW1101REMMET060METAR LSME 210950Z 00000KT 3100 BR NSC 00/M01 Q1021 RMK GRN;
0126066130999992010012110504+47100+008300AUTO +0427LSME V0209999C000012200019N0042001N1+00301+00001999999ADDAW1101GF100991999999999999999999MA1102201999999REMMET067METAR LSME 211050Z AUTO 00000KT 4200NDV BR NCD 03/00 Q1022 RMK GRN;
0080066130999992010012111504+47100+008300FM-15+0427LSME V0209999C000019999999Y0099001N1+00601+00101999999ADDMA1102101999999REMMET053METAR LSME 211150Z 00000KT CAVOK 06/01 Q1021 RMK BLU;
0080066130999992010012112504+47100+008300FM-15+0427LSME V0209999C000019999999Y0099001N1+00701+00101999999ADDMA1102101999999REMMET053METAR LSME 211250Z 00000KT CAVOK 07/01 Q1021 RMK BLU;
0080066130999992010012113504+47100+008300FM-15+0427LSME V0209999V000519999999Y0099001N1+00601+00001999999ADDMA1102101999999REMMET053METAR LSME 211350Z VRB01KT CAVOK 06/00 Q1021 RMK BLU;
0117066130999992010012114504+47100+008300AUTO +0427LSME V0209999V001012200019N0112651N1+00601+00101999999ADDGF100991999999999999999999MA1102101999999REMMET064METAR LSME 211450Z AUTO VRB02KT 9999NDV NCD 06/01 Q1021 RMK BLU;
0118066130999992010012116504+47100+008300AUTO +0427LSME V0209999V001012200019N0090001N1+00201+00001999999ADDGF100991999999999999999999MA1102201999999REMMET065METAR LSME 211650Z AUTO VRB02KT 9000NDV NCD 02/M00 Q1022 RMK BLU;
0147066130999992010012117504+47100+008300AUTO +0427LSME V0209999V000510150019N0050001N1+00001-00101999999ADDAW1101GA1071+015001999GF107991999999999999999999MA1102201999999REMMET072METAR LSME 211750Z AUTO VRB01KT 5000NDV BR BKN057 M00/M01 Q1022 RMK GRN;
0147066130999992010012118504+47100+008300AUTO +0427LSME V0209999C000010180019N0044001N1+00001-00101999999ADDAW1101GA1071+018001999GF107991999999999999999999MA1102301999999REMMET072METAR LSME 211850Z AUTO 00000KT 4400NDV BR BKN061 M00/M01 Q1023 RMK GRN;
0147066130999992010012120104+47100+008300AUTO +0427LSME V0209999C000010180019N0048001N1-00101-00201999999ADDAW1101GA1071+018001999GF107991999999999999999999MA1102301999999REMMET072METAR LSME 212010Z AUTO 00000KT 4800NDV BR BKN060 M01/M02 Q1023 RMK GRN;
0147066130999992010012120504+47100+008300AUTO +0427LSME V0209999V000510180019N0043001N1-00101-00201999999ADDAW1101GA1071+018001999GF107991999999999999999999MA1102301999999REMMET072METAR LSME 212050Z AUTO VRB01KT 4300NDV BR BKN060 M01/M02 Q1023 RMK GRN;
0147066130999992010012121504+47100+008300AUTO +0427LSME V0209999C000010180019N0050001N1-00101-00201999999ADDAW1101GA1071+018001999GF107991999999999999999999MA1102301999999REMMET072METAR LSME 212150Z AUTO 00000KT 5000NDV BR BKN061 M01/M02 Q1023 RMK GRN;
0147066130999992010012122504+47100+008300AUTO +0427LSME V0209999C000010180019N0050001N1-00101-00101999999ADDAW1101GA1081+018001999GF108991999999999999999999MA1102301999999REMMET072METAR LSME 212250Z AUTO 00000KT 5000NDV BR OVC061 M01/M01 Q1023 RMK GRN;
0170066130999992010012123494+47100+008300AUTO +0427LSME V0209999C000010180019N0049001N1-00101-00201999999ADDAW1101GA1021+001501999GA2071+018001999GF107991999999999999999999MA1102301999999REMMET079METAR LSME 212349Z AUTO 00000KT 4900NDV BR FEW005 BKN062 M01/M02 Q1023 RMK GRN;
0147066130999992010012200514+47100+008300AUTO +0427LSME V0209999C000010180019N0019001N1-00101-00201999999ADDAW1101GA1071+018001999GF107991999999999999999999MA1102201999999REMMET072METAR LSME 220051Z AUTO 00000KT 1900NDV BR BKN063 M01/M02 Q1022 RMK AMB;
0139066130999992010012201504+47100+008300AUTO +0427LSME V0200301N001019999999N0008001N1-00201-00201999999ADDAW1101MA1102201999999REMMET106METAR LSME 220150Z AUTO 03002KT 0800NDV R04/0900VP2000D R22/P2000N BR SCT005 BKN061 M02/M02 Q1022 RMK RED;
0149066130999992010012202504+47100+008300AUTO +0427LSME V0200101N000510015019N0017001N1-00201-00301999999ADDAW1311GA1081+001501999GF108991999999999999999999MA1102201999999REMMET074METAR LSME 220250Z AUTO 01001KT 1700NDV BCFG OVC005 M02/M03 Q1022 RMK AMB;
0147066130999992010012203504+47100+008300AUTO +0427LSME V0209999V000510012019N0045001N1-00101-00201999999ADDAW1101GA1081+001201999GF108991999999999999999999MA1102201999999REMMET072METAR LSME 220350Z AUTO VRB01KT 4500NDV BR OVC004 M01/M02 Q1022 RMK AMB;
0131066130999992010012204514+47100+008300AUTO +0427LSME V0209999C000019999999N0011001N1-00101-00101999999ADDAW1101MA1102201999999REMMET098METAR LSME 220451Z AUTO 00000KT 1100NDV R04/0900VP2000D R22/P2000N BR VV001 M01/M01 Q1022 RMK RED;
0172066130999992010012205504+47100+008300FM-15+0427LSME V0209999V001010006019N0005501N1-00101-00101999999ADDED199U06509GA1081+000601999GF108991999999999999999999MA1102201999999MW1481REMMET086METAR LSME 220550Z VRB02KT 0550 R04/0650N R22/0750N FZFG OVC002 M01/M01 Q1022 RMK RED;
0173066130999992010012206504+47100+008300FM-15+0427LSME V0202501N001010006019N0006001N1-00101-00201999999ADDED199U20009GA1081+000601999GF108991999999999999999999MA1102301999999MW1481REMMET087METAR LSME 220650Z 25002KT 0600 R04/P2000N R22/0800U FZFG OVC002 M01/M02 Q1023 RMK RED;
0139066130999992010012207504+47100+008300FM-15+0427LSME V0202401N001510003019N0021001N1-00201-00201999999ADDGA1081+000301999GF108991999999999999999999MA1102301999999MW1101REMMET064METAR LSME 220750Z 24003KT 2100 BR OVC001 M02/M02 Q1023 RMK RED;
0201066130999992010012208504+47100+008300FM-15+0427LSME V0209999V001010006019N0006001N1-00101-00201999999ADDED199U20009GA1071+000601999GA2081+003601999GF108991999999999999999999MA1102301999999MW1481REMMET099METAR LSME 220850Z VRB02KT 0600 R04/P2000U R22/0750V1700U FZFG BKN002 OVC012 M01/M02 Q1023 RMK RED;
0199066130999992010012209504+47100+008300FM-15+0427LSME V0209999V000510033019N0012001N1-00101-00101999999ADDED199U20009GA1041+000601999GA2081+003301999GF108991999999999999999999MA1102301999999MW1101REMMET097METAR LSME 220950Z VRB01KT 1200 R04/P2000N R22/1000V1700D BR SCT002 OVC011 M01/M01 Q1023 RMK RED;
0161066130999992010012210504+47100+008300FM-15+0427LSME V0209999C000010021019N0024001N1+00001-00101999999ADDGA1021+000901999GA2081+002101999GF108991999999999999999999MA1102301999999MW1101REMMET070METAR LSME 221050Z 00000KT 2400 BR FEW003 OVC007 00/M01 Q1023 RMK YLO;
0175066130999992010012212504+47100+008300FM-15+0427LSME V0209999V000510027019N0050001N1+00201-00101999999ADDGA1041+001801999GA2071+002701999GA3071+003901999GF107991999999999999999999MA1102201999999REMMET074METAR LSME 221250Z VRB01KT 5000 SCT006 BKN009 BKN013 02/M01 Q1022 RMK YLO;
0152066130999992010012213504+47100+008300FM-15+0427LSME V0209999C000010036019N0050001N1+00201+00001999999ADDGA1021+003001999GA2081+003601999GF108991999999999999999999MA1102201999999REMMET067METAR LSME 221350Z 00000KT 5000 FEW010 OVC012 02/M00 Q1022 RMK GRN;
0129066130999992010012214504+47100+008300FM-15+0427LSME V0209999C000010051019N0060001N1+00201+00001999999ADDGA1071+005101999GF107991999999999999999999MA1102201999999REMMET060METAR LSME 221450Z 00000KT 6000 BKN017 02/M00 Q1022 RMK GRN;
0137066130999992010012215504+47100+008300AUTO +0427LSME V0209999V000510057019N0060001N1+00201-00101999999ADDGA1071+005701999GF107991999999999999999999MA1102201999999REMMET068METAR LSME 221550Z AUTO VRB01KT 6000NDV BKN019 02/M01 Q1022 RMK GRN;
0146066130999992010012216494+47100+008300AUTO +0427LSME V0209999V000510066019N0048001N1+00001-00101999999ADDAW1101GA1071+006601999GF107991999999999999999999MA1102301999999REMMET071METAR LSME 221649Z AUTO VRB01KT 4800NDV BR BKN022 00/M01 Q1023 RMK GRN;
0147066130999992010012217504+47100+008300AUTO +0427LSME V0200101N000510066019N0042001N1+00001-00101999999ADDAW1101GA1071+006601999GF107991999999999999999999MA1102301999999REMMET072METAR LSME 221750Z AUTO 01001KT 4200NDV BR BKN022 M00/M01 Q1023 RMK GRN;
0147066130999992010012218504+47100+008300AUTO +0427LSME V0200301N001010063019N0036001N1-00101-00201999999ADDAW1101GA1071+006301999GF107991999999999999999999MA1102301999999REMMET072METAR LSME 221850Z AUTO 03002KT 3600NDV BR BKN021 M01/M02 Q1023 RMK GRN;
0147066130999992010012219504+47100+008300AUTO +0427LSME V0200901N000510057019N0032001N1-00101-00201999999ADDAW1101GA1081+005701999GF108991999999999999999999MA1102301999999REMMET072METAR LSME 221950Z AUTO 09001KT 3200NDV BR OVC019 M01/M02 Q1023 RMK GRN;
0170066130999992010012220504+47100+008300AUTO +0427LSME V0209999C000010063019N0036001N1-00101-00201999999ADDAW1101GA1021+003901999GA2071+006301999GF107991999999999999999999MA1102301999999REMMET079METAR LSME 222050Z AUTO 00000KT 3600NDV BR FEW013 BKN021 M01/M02 Q1023 RMK GRN;
0170066130999992010012221504+47100+008300AUTO +0427LSME V0209999C000010051019N0035001N1-00101-00201999999ADDAW1101GA1041+003601999GA2081+005101999GF108991999999999999999999MA1102301999999REMMET079METAR LSME 222150Z AUTO 00000KT 3500NDV BR SCT012 OVC017 M01/M02 Q1023 RMK GRN;
0170066130999992010012223044+47100+008300AUTO +0427LSME V0200501N001010060019N0029001N1-00101-00201999999ADDAW1101GA1041+004501999GA2081+006001999GF108991999999999999999999MA1102401999999REMMET079METAR LSME 222304Z AUTO 05002KT 2900NDV BR SCT015 OVC020 M01/M02 Q1024 RMK YLO;
0170066130999992010012223504+47100+008300AUTO +0427LSME V0209999C000010060019N0036001N1-00101-00201999999ADDAW1101GA1021+004801999GA2081+006001999GF108991999999999999999999MA1102301999999REMMET079METAR LSME 222350Z AUTO 00000KT 3600NDV BR FEW016 OVC020 M01/M02 Q1023 RMK GRN;
0147066130999992010012300504+47100+008300AUTO +0427LSME V0209999V001010057019N0035001N1-00101-00201999999ADDAW1101GA1081+005701999GF108991999999999999999999MA1102301999999REMMET072METAR LSME 230050Z AUTO VRB02KT 3500NDV BR OVC019 M01/M02 Q1023 RMK GRN;
0147066130999992010012302504+47100+008300AUTO +0427LSME V0209999V000510051019N0043001N1+00001-00101999999ADDAW1101GA1081+005101999GF108991999999999999999999MA1102301999999REMMET072METAR LSME 230250Z AUTO VRB01KT 4300NDV BR OVC017 M00/M01 Q1023 RMK GRN;
0146066130999992010012304004+47100+008300FM-15+0427LSME V0209999V000510048019N0049001N1+00001-00101999999ADDAW1101GA1081+004801999GF108991999999999999999999MA1102301999999REMMET071METAR LSME 230356Z AUTO VRB01KT 4900NDV BR OVC016 00/M01 Q1023 RMK GRN;
0147066130999992010012304504+47100+008300AUTO +0427LSME V0209999V000510045019N0060001N1+00001-00201999999ADDAW1101GA1081+004501999GF108991999999999999999999MA1102201999999REMMET072METAR LSME 230450Z AUTO VRB01KT 6000NDV BR OVC015 M00/M02 Q1022 RMK GRN;
0138066130999992010012305504+47100+008300AUTO +0427LSME V0209999C000010048019N0070001N1+00001-00201999999ADDGA1081+004801999GF108991999999999999999999MA1102201999999REMMET069METAR LSME 230550Z AUTO 00000KT 7000NDV OVC016 M00/M02 Q1022 RMK GRN;
0138066130999992010012306504+47100+008300AUTO +0427LSME V0209999C000010048019N0070001N1+00001-00301999999ADDGA1081+004801999GF108991999999999999999999MA1102201999999REMMET069METAR LSME 230650Z AUTO 00000KT 7000NDV OVC016 M00/M03 Q1022 RMK GRN;
0138066130999992010012307504+47100+008300AUTO +0427LSME V0209999V001010048019N0060001N1+00001-00401999999ADDGA1081+004801999GF108991999999999999999999MA1102201999999REMMET069METAR LSME 230750Z AUTO VRB02KT 6000NDV OVC016 M00/M04 Q1022 RMK GRN;
0138066130999992010012308504+47100+008300AUTO +0427LSME V0202401N001510048019N0060001N1+00001-00301999999ADDGA1081+004801999GF108991999999999999999999MA1102201999999REMMET069METAR LSME 230850Z AUTO 24003KT 6000NDV OVC016 M00/M03 Q1022 RMK GRN;
0137066130999992010012309504+47100+008300AUTO +0427LSME V0209999V001010048019N0070001N1+00001-00401999999ADDGA1081+004801999GF108991999999999999999999MA1102301999999REMMET068METAR LSME 230950Z AUTO VRB02KT 7000NDV OVC016 00/M04 Q1023 RMK GRN;
0146066130999992010012310504+47100+008300AUTO +0427LSME V0202901N001510042019N0050001N1+00001-00401999999ADDGA1081+004201999GF108991999999999999999999MA1102301999999REMMET077METAR LSME 231050Z AUTO 29003KT 250V340 5000NDV OVC014 M00/M04 Q1023 RMK GRN;
0146066130999992010012311504+47100+008300AUTO +0427LSME V0203301N001510042019N0050001N1+00001-00301999999ADDGA1081+004201999GF108991999999999999999999MA1102201999999REMMET077METAR LSME 231150Z AUTO 33003KT 300V010 5000NDV OVC014 M00/M03 Q1022 RMK GRN;
0145066130999992010012312504+47100+008300AUTO +0427LSME V0203301N001512200019N0050001N1+00001-00301999999ADDGA1021+004501999GF102991999999999999999999MA1102101999999REMMET076METAR LSME 231250Z AUTO 33003KT 290V010 5000NDV FEW015 00/M03 Q1021 RMK GRN;
0118066130999992010012313504+47100+008300AUTO +0427LSME V0209999V001012200019N0060001N1+00101-00301999999ADDGF100991999999999999999999MA1102101999999REMMET065METAR LSME 231350Z AUTO VRB02KT 6000NDV NCD 01/M03 Q1021 RMK GRN;
0118066130999992010012315504+47100+008300AUTO +0427LSME V0200801N000512200019N0070001N1+00101-00301999999ADDGF100991999999999999999999MA1102101999999REMMET065METAR LSME 231550Z AUTO 08001KT 7000NDV NCD 01/M03 Q1021 RMK GRN;
0119066130999992010012316504+47100+008300AUTO +0427LSME V0209999C000012200019N0060001N1-00101-00401999999ADDGF100991999999999999999999MA1102201999999REMMET066METAR LSME 231650Z AUTO 00000KT 6000NDV NCD M01/M04 Q1022 RMK GRN;
0128066130999992010012317504+47100+008300AUTO +0427LSME V0209999C000012200019N0050001N1-00201-00401999999ADDAW1101GF100991999999999999999999MA1102201999999REMMET069METAR LSME 231750Z AUTO 00000KT 5000NDV BR NCD M02/M04 Q1022 RMK GRN;
0128066130999992010012318504+47100+008300AUTO +0427LSME V0209999V000512200019N0047001N1-00301-00401999999ADDAW1101GF100991999999999999999999MA1102201999999REMMET069METAR LSME 231850Z AUTO VRB01KT 4700NDV BR NCD M03/M04 Q1022 RMK GRN;
0147066130999992010012319504+47100+008300AUTO +0427LSME V0209999C000012200019N0046001N1-00401-00501999999ADDAW1101GA1021+069001999GF102991999999999999999999MA1102201999999REMMET072METAR LSME 231950Z AUTO 00000KT 4600NDV BR FEW230 M04/M05 Q1022 RMK GRN;
0128066130999992010012320504+47100+008300AUTO +0427LSME V0209999V000512200019N0044001N1-00401-00501999999ADDAW1101GF100991999999999999999999MA1102201999999REMMET069METAR LSME 232050Z AUTO VRB01KT 4400NDV BR NCD M04/M05 Q1022 RMK GRN;
0128066130999992010012321504+47100+008300AUTO +0427LSME V0209999C000012200019N0040001N1-00401-00501999999ADDAW1101GF100991999999999999999999MA1102201999999REMMET069METAR LSME 232150Z AUTO 00000KT 4000NDV BR NCD M04/M05 Q1022 RMK GRN;
0128066130999992010012322504+47100+008300AUTO +0427LSME V0200601N000512200019N0038001N1-00501-00601999999ADDAW1101GF100991999999999999999999MA1102201999999REMMET069METAR LSME 232250Z AUTO 06001KT 3800NDV BR NCD M05/M06 Q1022 RMK GRN;
0128066130999992010012400044+47100+008300AUTO +0427LSME V0209999C000012200019N0028001N1-00501-00601999999ADDAW1101GF100991999999999999999999MA1102201999999REMMET069METAR LSME 240004Z AUTO 00000KT 2800NDV BR NCD M05/M06 Q1022 RMK YLO;
0128066130999992010012400504+47100+008300AUTO +0427LSME V0200201N000512200019N0040001N1-00501-00601999999ADDAW1101GF100991999999999999999999MA1102201999999REMMET069METAR LSME 240050Z AUTO 02001KT 4000NDV BR NCD M05/M06 Q1022 RMK GRN;
0128066130999992010012401504+47100+008300AUTO +0427LSME V0209999C000012200019N0038001N1-00501-00601999999ADDAW1101GF100991999999999999999999MA1102201999999REMMET069METAR LSME 240150Z AUTO 00000KT 3800NDV BR NCD M05/M06 Q1022 RMK GRN;
0128066130999992010012402504+47100+008300AUTO +0427LSME V0209999C000012200019N0039001N1-00601-00701999999ADDAW1101GF100991999999999999999999MA1102201999999REMMET069METAR LSME 240250Z AUTO 00000KT 3900NDV BR NCD M06/M07 Q1022 RMK GRN;
0128066130999992010012403504+47100+008300AUTO +0427LSME V0209999C000012200019N0041001N1-00601-00701999999ADDAW1101GF100991999999999999999999MA1102201999999REMMET069METAR LSME 240350Z AUTO 00000KT 4100NDV BR NCD M06/M07 Q1022 RMK GRN;
0147066130999992010012404504+47100+008300AUTO +0427LSME V0209999C000012200019N0041001N1-00601-00701999999ADDAW1101GA1021+002401999GF102991999999999999999999MA1102201999999REMMET072METAR LSME 240450Z AUTO 00000KT 4100NDV BR FEW008 M06/M07 Q1022 RMK GRN;
0128066130999992010012405504+47100+008300AUTO +0427LSME V0209999C000012200019N0044001N1-00601-00701999999ADDAW1101GF100991999999999999999999MA1102201999999REMMET069METAR LSME 240550Z AUTO 00000KT 4400NDV BR NCD M06/M07 Q1022 RMK GRN;
0128066130999992010012406504+47100+008300AUTO +0427LSME V0209999V000512200019N0044001N1-00701-00801999999ADDAW1101GF100991999999999999999999MA1102201999999REMMET069METAR LSME 240650Z AUTO VRB01KT 4400NDV BR NCD M07/M08 Q1022 RMK GRN;
0170066130999992010012407504+47100+008300AUTO +0427LSME V0209999V000510015019N0024001N1-00601-00701999999ADDAW1101GA1021+000301999GA2081+001501999GF108991999999999999999999MA1102201999999REMMET079METAR LSME 240750Z AUTO VRB01KT 2400NDV BR FEW001 OVC005 M06/M07 Q1022 RMK YLO;
0147066130999992010012408504+47100+008300AUTO +0427LSME V0209999V001012200019N0024001N1-00401-00501999999ADDAW1101GA1041+000901999GF104991999999999999999999MA1102301999999REMMET072METAR LSME 240850Z AUTO VRB02KT 2400NDV BR SCT003 M04/M05 Q1023 RMK YLO;
0137066130999992010012409494+47100+008300FM-16+0427LSME V0209999V000512200019N0007001N1-00301-00401999999ADDAW1351MA1102301999999REMMET104METAR LSME 240949Z AUTO VRB01KT 0700NDV R04/0800V1500D R22/0750V1300D FZFG BKN002 M03/M04 Q1023 RMK RED;
0180066130999992010012410524+47100+008300AUTO +0427LSME V0200201N002112200019N0005001N1-00301-00301999999ADDAW1351ED199U12009GA1041+000601999GF104991999999999999999999MA1102301999999REMMET094METAR LSME 241052Z AUTO 02004KT 0500NDV R04/1200D R22/0700N FZFG SCT002 M03/M03 Q1023 RMK RED;
0186066130999992010012411504+47100+008300AUTO +0427LSME V0200301N001512200019N0009001N1-00201-00301999999ADDAW1301ED199U16009GA1041+000601999GF104991999999999999999999MA1102301999999REMMET100METAR LSME 241150Z AUTO 03003KT 360V070 0900NDV R04/1600U R22/1000D FG SCT002 M02/M03 Q1023 RMK RED;
0186066130999992010012412504+47100+008300AUTO +0427LSME V0200301N001512200019N0016001N1-00101-00201999999ADDAW1101ED199U15009GA1041+000301999GF104991999999999999999999MA1102201999999REMMET100METAR LSME 241250Z AUTO 03003KT 350V070 1600NDV R04/1500U R22/1400U BR SCT001 M01/M02 Q1022 RMK AMB;
0135066130999992010012413504+47100+008300AUTO +0427LSME V0200401N001512200019N0038001N1+00001-00201999999ADDAW1101GF100991999999999999999999MA1102201999999REMMET076METAR LSME 241350Z AUTO 04003KT 010V070 3800NDV BR NCD 00/M02 Q1022 RMK GRN;
0128066130999992010012415324+47100+008300AUTO +0427LSME V0200601N001012200019N0028001N1+00001-00201999999ADDAW1101GF100991999999999999999999MA1102201999999REMMET069METAR LSME 241532Z AUTO 06002KT 2800NDV BR NCD M00/M02 Q1022 RMK YLO;
0128066130999992010012415504+47100+008300AUTO +0427LSME V0200701N001012200019N0027001N1+00001-00201999999ADDAW1101GF100991999999999999999999MA1102201999999REMMET069METAR LSME 241550Z AUTO 07002KT 2700NDV BR NCD M00/M02 Q1022 RMK YLO;
0147066130999992010012416504+47100+008300AUTO +0427LSME V0200601N000512200019N0037001N1-00101-00201999999ADDAW1101GA1041+039001999GF104991999999999999999999MA1102201999999REMMET072METAR LSME 241650Z AUTO 06001KT 3700NDV BR SCT130 M01/M02 Q1022 RMK GRN;
0147066130999992010012417504+47100+008300AUTO +0427LSME V0209999C000012200019N0036001N1-00101-00201999999ADDAW1101GA1041+039001999GF104991999999999999999999MA1102201999999REMMET072METAR LSME 241750Z AUTO 00000KT 3600NDV BR SCT130 M01/M02 Q1022 RMK GRN;
0147066130999992010012419004+47100+008300FM-15+0427LSME V0209999C000010420019N0028001N1-00201-00301999999ADDAW1101GA1071+042001999GF107991999999999999999999MA1102201999999REMMET072METAR LSME 241859Z AUTO 00000KT 2800NDV BR BKN140 M02/M03 Q1022 RMK GRN;
0147066130999992010012419504+47100+008300AUTO +0427LSME V0202401N001012200019N0032001N1-00201-00301999999ADDAW1101GA1021+042001999GF102991999999999999999999MA1102201999999REMMET072METAR LSME 241950Z AUTO 24002KT 3200NDV BR FEW140 M02/M03 Q1022 RMK GRN;
0170066130999992010012420514+47100+008300AUTO +0427LSME V0200401N001010360019N0027001N1-00301-00301999999ADDAW1101GA1071+036001999GA2071+042001999GF107991999999999999999999MA1102201999999REMMET079METAR LSME 242051Z AUTO 04002KT 2700NDV BR BKN120 BKN140 M03/M03 Q1022 RMK YLO;
0147066130999992010012421504+47100+008300AUTO +0427LSME V0200801N001010360019N0029001N1-00201-00301999999ADDAW1101GA1071+036001999GF107991999999999999999999MA1102201999999REMMET072METAR LSME 242150Z AUTO 08002KT 2900NDV BR BKN120 M02/M03 Q1022 RMK YLO;
0147066130999992010012422504+47100+008300AUTO +0427LSME V0209999C000010360019N0030001N1-00201-00301999999ADDAW1101GA1081+036001999GF108991999999999999999999MA1102201999999REMMET072METAR LSME 242250Z AUTO 00000KT 3000NDV BR OVC120 M02/M03 Q1022 RMK GRN;
0170066130999992010012423504+47100+008300AUTO +0427LSME V0200601N000510330019N0022001N1-00301-00301999999ADDAW1101GA1071+033001999GA2071+045001999GF107991999999999999999999MA1102201999999REMMET079METAR LSME 242350Z AUTO 06001KT 2200NDV BR BKN110 BKN150 M03/M03 Q1022 RMK YLO;
0170066130999992010012500504+47100+008300AUTO +0427LSME V0209999C000010330019N0029001N1-00201-00301999999ADDAW1101GA1071+033001999GA2081+039001999GF108991999999999999999999MA1102201999999REMMET079METAR LSME 250050Z AUTO 00000KT 2900NDV BR BKN110 OVC130 M02/M03 Q1022 RMK YLO;
0147066130999992010012501514+47100+008300AUTO +0427LSME V0209999C000010330019N0026001N1-00201-00301999999ADDAW1101GA1081+033001999GF108991999999999999999999MA1102201999999REMMET072METAR LSME 250151Z AUTO 00000KT 2600NDV BR OVC110 M02/M03 Q1022 RMK YLO;
0170066130999992010012502504+47100+008300AUTO +0427LSME V0209999C000010240019N0033001N1-00201-00301999999ADDAW1101GA1071+024001999GA2081+030001999GF108991999999999999999999MA1102201999999REMMET079METAR LSME 250250Z AUTO 00000KT 3300NDV BR BKN087 OVC100 M02/M03 Q1022 RMK GRN;
0182066130999992010012504184+47100+008300AUTO +0427LSME V0200901N001010210019N0029001N1-00201-00301999999ADDAW1101AW2851GA1041+015001999GA2081+021001999GF108991999999999999999999MA1102201999999REMMET085METAR LSME 250418Z AUTO 09002KT 2900NDV -SHSN BR SCT054 OVC078 M02/M03 Q1022 RMK YLO;
0205066130999992010012504504+47100+008300AUTO +0427LSME V0200701N000510132019N0028001N1-00201-00201999999ADDAW1101AW2851GA1041+011701999GA2071+013201999GA3081+015001999GF108991999999999999999999MA1102201999999REMMET092METAR LSME 250450Z AUTO 07001KT 2800NDV -SHSN BR SCT039 BKN044 OVC051 M02/M02 Q1022 RMK YLO;
0172066130999992010012505504+47100+008300FM-15+0427LSME V0209999C000010069019N0021001N1-00101-00201999999ADDGA1041+006001999GA2071+006901999GF107991999999999999999999MA1102301999999MW1101MW2711REMMET075METAR LSME 250550Z 00000KT 2100 -SN BR SCT020 BKN023 M01/M02 Q1023 RMK YLO;
0149066130999992010012506504+47100+008300FM-15+0427LSME V0209999C000012200019N0019001N1-00101-00201999999ADDGA1021+007201999GF102991999999999999999999MA1102301999999MW1101MW2711REMMET068METAR LSME 250650Z 00000KT 1900 -SN BR FEW024 M01/M02 Q1023 RMK AMB;
0180066130999992010012507504+47100+008300FM-15+0427LSME V0209999C000012200019N0012001N1-00101-00101999999ADDED199U16009GA1021+003901999GF102991999999999999999999MA1102401999999MW1101MW2711REMMET088METAR LSME 250750Z 00000KT 1200 R04/1600N R22/1800N -SN BR FEW013 M01/M01 Q1024 RMK RED;
0180066130999992010012508504+47100+008300FM-15+0427LSME V0209999C000012200019N0009001N1+00001-00101999999ADDED199U13009GA1021+003901999GF102991999999999999999999MA1102401999999MW1101MW2711REMMET088METAR LSME 250850Z 00000KT 0900 R04/1300N R22/1500N -SN BR FEW013 M00/M01 Q1024 RMK RED;
0168066130999992010012509504+47100+008300FM-15+0427LSME V0209999V000512200019N0008001N1+00001-00101999999ADDED199U11009GF100991999999999999999999MA1102511999999MW1441MW2611MW3711REMMET086METAR LSME 250950Z VRB01KT 0800 R04/1100N R22/1200N -RASN FG NSC 00/M01 Q1025 RMK RED;
0170066130999992010012510504+47100+008300AUTO +0427LSME V0209999V000512200019N0007501N1+00101+00001999999ADDAW1101AW2671ED199U10009GF100991999999999999999999MA1102511999999REMMET094METAR LSME 251050Z AUTO VRB01KT 0750NDV R04/1000N R22/1100N -RASN BR NCD 01/M00 Q1025 RMK RED;
0179066130999992010012511504+47100+008300FM-15+0427LSME V0209999V000512200019N0010001N1+00101+00001999999ADDED199U13009GA1021+000601999GF102991999999999999999999MA1102511999999MW1101MW2611REMMET087METAR LSME 251150Z VRB01KT 1000 R04/1300N R22/1300N -RA BR FEW002 01/M00 Q1025 RMK RED;
0214066130999992010012512504+47100+008300FM-15+0427LSME V0209999V000510039019N0012001N1+00101+00001999999ADDED199U15009GA1041+000601999GA2071+003901999GA3081+004501999GF108991999999999999999999MA1102511999999MW1101REMMET096METAR LSME 251250Z VRB01KT 1200 R04/1500N R22/1800N BR SCT002 BKN013 OVC015 01/00 Q1025 RMK RED;
0192066130999992010012513504+47100+008300FM-15+0427LSME V0209999C000010039019N0014001N1+00101+00001999999ADDED199U18009GA1041+001201999GA2081+003901999GF108991999999999999999999MA1102511999999MW1101REMMET090METAR LSME 251350Z 00000KT 1400 R04/1800N R22/P2000U BR SCT004 OVC013 01/00 Q1025 RMK RED;
0216066130999992010012514504+47100+008300FM-15+0427LSME V0209999C00001004501CN0014001N1+00101+00001999999ADDED199U20009GA1021+003001999GA2041+004501999GA3081+005401999GF108991999999999999999999MA1102511999999MW1101REMMET098METAR LSME 251450Z 00000KT 1400 R04/P2000U R22/P2000N BR FEW010 SCT015 OVC018 01/00 Q1025 RMK RED;
0191066130999992010012515504+47100+008300AUTO +0427LSME V0209999C000010042019N0019001N1+00101+00001999999ADDAW1101GA1021+003301999GA2071+004201999GA3081+005101999GF108991999999999999999999MA1102611999999REMMET084METAR LSME 251550Z AUTO 00000KT 1900NDV BR FEW011 BKN014 OVC017 01/00 Q1026 RMK AMB;
0169066130999992010012516504+47100+008300AUTO +0427LSME V0209999C000010042019N0020001N1+00101+00001999999ADDAW1101GA1041+003601999GA2081+004201999GF108991999999999999999999MA1102611999999REMMET078METAR LSME 251650Z AUTO 00000KT 2000NDV BR SCT012 OVC014 01/M00 Q1026 RMK YLO;
0146066130999992010012518004+47100+008300FM-15+0427LSME V0209999C000010033019N0020001N1+00101+00001999999ADDAW1101GA1081+003301999GF108991999999999999999999MA1102711999999REMMET071METAR LSME 251759Z AUTO 00000KT 2000NDV BR OVC011 01/M00 Q1027 RMK YLO;
0192066130999992010012518504+47100+008300AUTO +0427LSME V0209999C00001003901CN0024001N1+00101+00001999999ADDAW1101GA1021+002701999GA2041+003901999GA3081+004801999GF108991999999999999999999MA1102711999999REMMET085METAR LSME 251850Z AUTO 00000KT 2400NDV BR FEW009 SCT013 OVC016 01/M00 Q1027 RMK YLO;
0192066130999992010012519494+47100+008300AUTO +0427LSME V0209999C000010039019N0031001N1+00101+00001999999ADDAW1101GA1071+003901999GA2071+005401999GA3081+006901999GF108991999999999999999999MA1102811999999REMMET085METAR LSME 251949Z AUTO 00000KT 3100NDV BR BKN013 BKN018 OVC023 01/M00 Q1028 RMK GRN;
0169066130999992010012520504+47100+008300AUTO +0427LSME V0209999C000010033019N0026001N1+00101+00001999999ADDAW1101GA1041+002401999GA2081+003301999GF108991999999999999999999MA1102811999999REMMET078METAR LSME 252050Z AUTO 00000KT 2600NDV BR SCT008 OVC011 01/M00 Q1028 RMK YLO;
0169066130999992010012522114+47100+008300AUTO +0427LSME V0209999C000010027019N0028001N1+00101+00001999999ADDAW1101GA1041+002101999GA2081+002701999GF108991999999999999999999MA1102811999999REMMET078METAR LSME 252211Z AUTO 00000KT 2800NDV BR SCT007 OVC009 01/M00 Q1028 RMK YLO;
0146066130999992010012522504+47100+008300AUTO +0427LSME V0209999C000010021019N0030001N1+00101+00001999999ADDAW1101GA1081+002101999GF108991999999999999999999MA1102911999999REMMET071METAR LSME 252250Z AUTO 00000KT 3000NDV BR OVC007 01/M00 Q1029 RMK YLO;
0192066130999992010012523504+47100+008300AUTO +0427LSME V0209999C00001003301CN0035001N1+00101+00001999999ADDAW1101GA1021+002101999GA2041+003301999GA3081+006001999GF108991999999999999999999MA1102811999999REMMET085METAR LSME 252350Z AUTO 00000KT 3500NDV BR FEW007 SCT011 OVC020 01/M00 Q1028 RMK GRN;
0169066130999992010012601014+47100+008300AUTO +0427LSME V0209999C000010063019N0029001N1+00001+00001999999ADDAW1101GA1021+004201999GA2081+006301999GF108991999999999999999999MA1102811999999REMMET078METAR LSME 260101Z AUTO 00000KT 2900NDV BR FEW014 OVC021 00/M00 Q1028 RMK YLO;
0168066130999992010012601504+47100+008300AUTO +0427LSME V0209999C000010051019N0036001N1+00101+00001999999ADDAW1101GA1021+003001999GA2081+005101999GF108991999999999999999999MA1102811999999REMMET077METAR LSME 260150Z AUTO 00000KT 3600NDV BR FEW010 OVC017 01/00 Q1028 RMK GRN;
0160066130999992010012602504+47100+008300AUTO +0427LSME V0209999C000010051019N0045001N1+00101+00001999999ADDGA1041+002401999GA2081+005101999GF108991999999999999999999MA1102811999999REMMET075METAR LSME 260250Z AUTO 00000KT 4500NDV SCT008 OVC017 01/M00 Q1028 RMK GRN;
0169066130999992010012603504+47100+008300AUTO +0427LSME V0209999C000010033019N0048001N1+00101+00001999999ADDAW1101GA1021+002401999GA2081+003301999GF108991999999999999999999MA1102811999999REMMET078METAR LSME 260350Z AUTO 00000KT 4800NDV BR FEW008 OVC011 01/M00 Q1028 RMK GRN;
0146066130999992010012604494+47100+008300AUTO +0427LSME V0209999V001010030019N0050001N1+00001-00101999999ADDAW1101GA1081+003001999GF108991999999999999999999MA1102811999999REMMET071METAR LSME 260449Z AUTO VRB02KT 5000NDV BR OVC010 00/M01 Q1028 RMK GRN;
0169066130999992010012605504+47100+008300FM-15+0427LSME V0200501N001510027019N0038001N1+00001-00101999999ADDGA1021+000901999GA2081+002701999GF108991999999999999999999MA1102811999999MW1101REMMET078METAR LSME 260550Z 05003KT 010V080 3800 BR FEW003 OVC009 00/M01 Q1028 RMK YLO;
0180066130999992010012606504+47100+008300FM-15+0427LSME V0200601N001510033019N0043001N1+00001-00101999999ADDGA1021+002101999GA2081+003301999GF108991999999999999999999MA1102811999999MW1101MW2611REMMET083METAR LSME 260650Z 06003KT 010V100 4300 -RA BR FEW007 OVC011 M00/M01 Q1028 RMK GRN;
0128066130999992010012607464+47100+008300FM-15+0427LSME V0200301N001512200019N0010001N1-00101-00101999999ADDMA1102801999999REMMET101METAR LSME 260746Z 03003KT 010V070 1000 R04/1500VP2000D R22/1700D SN BR BKN009 M01/M01 Q1028 RMK RED;
