0198066200999992010010100004+47683+008617FM-12+043799999V0200601N001010003019N0005001N1+00281+00271099371ADDAY121061AY221061GA1091+999999999GF109991091999999999999999MA1999999094151MD1710101+9999MW1451OA149900511REMSYN082AAXX  01004 06620 31/05 90602 10028 20027 39415 49937 57010 74522 333 91110 91207;
0128066200999992010010101004+47683+008617FM-12+043799999V0200401N001019999999N9999999N1+00271+00271099311ADDMA1999999094091MD1710131+9999OA149900411REMSYN076AAXX  01014 06620 33/// /0402 10027 20027 39409 49931 57013 333 91108 91207;
0128066200999992010010102004+47683+008617FM-12+043799999V0200101N000519999999N9999999N1+00261+00261099321ADDMA1999999094091MD1719999+9999OA149900311REMSYN076AAXX  01024 06620 33/// /0101 10026 20026 39409 49932 57/// 333 91106 91204;
0157066200999992010010103004+47683+008617FM-12+043799999V0200601N002110003019N0005001N1+00261+00261099241ADDAY121031AY221031GA1091+999999999GF109991091999999999999999MA1999999094021MW1451REMSYN066AAXX  01034 06620 41/05 90604 10026 20026 39402 49924 5//// 74522;
0087066200999992010010104004+47683+008617FM-12+043799999V0200601N002619999999N9999999N1+00271+00251099211ADDMA1999999093991REMSYN060AAXX  01044 06620 33/// /0605 10027 20025 39399 49921 5////;
0128066200999992010010105004+47683+008617FM-12+043799999V0200701N001019999999N9999999N1+00261+00241099191ADDMA1999999093971MD1710121+9999OA149900311REMSYN076AAXX  01054 06620 33/// /0702 10026 20024 39397 49919 57012 333 91106 91205;
0282066200999992010010106004+47683+008617FM-12+043799999V0200401N001510003019N0005001N1+00261+00241099171ADDAA124005391AL12400591AY141061AY221061GA1091+999999999GF109991091999999999999999GJ100009IA1119IA2999+00109KA1999N+00241MA1999999093951MD1710071+9999MW1471OA149900411REMSYN106AAXX  01064 06620 31/05 90403 10026 20024 39395 49917 57007 74742 333 20024 32001 55000 70054 91108 91207;
0128066200999992010010107004+47683+008617FM-12+043799999V0200701N001519999999N9999999N1+00251+00251099161ADDMA1999999093941MD1710051+9999OA149900261REMSYN076AAXX  01074 06620 33/// /0703 10025 20025 39394 49916 57005 333 91105 91204;
0128066200999992010010108004+47683+008617FM-12+043799999V0200501N002619999999N9999999N1+00241+00241099201ADDMA1999999093981MD1310011+9999OA149900361REMSYN076AAXX  01084 06620 33/// /0505 10024 20024 39398 49920 53001 333 91107 91205;
0198066200999992010010109004+47683+008617FM-12+043799999V0200401N001010003019N0005001N1+00261+00241099241ADDAY141031AY221031GA1091+999999999GF109991091999999999999999MA1999999094021MD1210071+9999MW1451OA149900411REMSYN082AAXX  01094 06620 31/05 90402 10026 20024 39402 49924 52007 74542 333 91108 91205;
0128066200999992010010110004+47683+008617FM-12+043799999V0200801N001019999999N9999999N1+00301+00251099311ADDMA1999999094091MD1310151+9999OA149900411REMSYN076AAXX  01104 06620 33/// /0802 10030 20025 39409 49931 53015 333 91108 91205;
0128066200999992010010111004+47683+008617FM-12+043799999V0202001N000519999999N9999999N1+00311+00261099311ADDMA1999999094091MD1210111+9999OA149900311REMSYN076AAXX  01114 06620 33/// /2001 10031 20026 39409 49931 52011 333 91106 91204;
0204066200999992010010112004+47683+008617FM-12+043799999V0209999C000010210019N0050001N1+00371+00291099291ADDAY161061AY261061GA1081+021001071GF108991999999022501999999MA1999999094091MD1210071+9999MW1211OA149900411REMSYN088AAXX  01124 06620 31850 80000 10037 20029 39409 49929 52007 72166 333 88757 91108 91205;
0128066200999992010010113004+47683+008617FM-12+043799999V0201701N000519999999N9999999N1+00411+00341099321ADDMA1999999094121MD1310031+9999OA149900211REMSYN076AAXX  01134 06620 33/// /1701 10041 20034 39412 49932 53003 333 91104 91202;
0128066200999992010010114004+47683+008617FM-12+043799999V0202601N002119999999N9999999N1+00401+00351099391ADDMA1999999094191MD1319999+9999OA149900311REMSYN076AAXX  01144 06620 33/// /2604 10040 20035 39419 49939 53/// 333 91106 91204;
0221066200999992010010115004+47683+008617FM-12+043799999V0202301N001010210019N0050001N1+00381+00351099481ADDAA101000391AY161031AY261031GA1081+021001071GF108991999999022501999999MA1999999094271MD1310181+9999MW1211OA149900311REMSYN094AAXX  01154 06620 21850 82302 10038 20035 39427 49948 53018 72166 333 69935 88757 91106 91205;
0145066200999992010010116004+47683+008617FM-12+043799999V0202701N005119999999N9999999N1+00391+00321099581ADDAA101000591MA1999999094371MD1310251+9999OA149900621REMSYN082AAXX  01164 06620 23/// /2710 10039 20032 39437 49958 53025 333 69955 91112 91210;
0145066200999992010010117004+47683+008617FM-12+043799999V0202801N003119999999N9999999N1+00411+00341099711ADDAA101002091MA1999999094491MD1310301+9999OA149900671REMSYN082AAXX  01174 06620 23/// /2806 10041 20034 39449 49971 53030 333 60025 91113 91210;
0258066200999992010010118004+47683+008617FM-12+043799999V0202801N004610210019N0030001N1+00331+00201099861ADDAA112004191AY161061AY261061GA1081+021001071GF108991999999022501999999IA1119KA1120M+00411MA1999999094621MD1310351+9999MW1621OA149900881REMSYN112AAXX  01184 06620 01830 82809 10033 20020 39462 49986 53035 60042 76266 333 10041 32/// 60015 88757 91117 91210;
0145066200999992010010119004+47683+008617FM-12+043799999V0202701N003119999999N9999999N1+00281+00131100041ADDAA101000891MA1999999094781MD1310411+9999OA149900881REMSYN082AAXX  01194 06620 23/// /2706 10028 20013 39478 40004 53041 333 69985 91117 91210;
0145066200999992010010120004+47683+008617FM-12+043799999V0202801N005119999999N9999999N1+00071-00011100281ADDAA101002091MA1999999094971MD1310481+9999OA149900881REMSYN082AAXX  01204 06620 23/// /2810 10007 21001 39497 40028 53048 333 60025 91117 91210;
0221066200999992010010121004+47683+008617FM-12+043799999V0202701N005710108019N0010001N1+00061-00031100421ADDAA101002091AY171031AY261031GA1081+010801071GF108991999999012501999999MA1999999095101MD1210481+9999MW1691OA149901081REMSYN094AAXX  01214 06620 21610 82711 10006 21003 39510 40042 52048 76976 333 60025 88736 91121 91215;
0145066200999992010010122004+47683+008617FM-12+043799999V0202701N010319999999N9999999N1+00081-00121100511ADDAA101000021MA1999999095191MD1110411+9999OA149901491REMSYN082AAXX  01224 06620 23/// /2720 10008 21012 39519 40051 51041 333 69925 91129 91220;
0128066200999992010010123004+47683+008617FM-12+043799999V0202701N011319999999N9999999N1+00021-00221100641ADDMA1999999095301MD1110331+9999OA149901751REMSYN076AAXX  01234 06620 33/// /2722 10002 21022 39530 40064 51033 333 91134 91223;
0227066200999992010010200004+47683+008617FM-12+043799999V0202601N008210180019N0050001N1-00021-00281100741ADDAA106004191AY171061AY221061GA1081+018001071GF108991999999017501999999MA1999999095391MD1210291+9999MW1021OA149901751REMSYN100AAXX  02004 06620 01750 82616 11002 21028 39539 40074 52029 60041 70272 333 60005 88756 91134 91223;
0128066200999992010010201004+47683+008617FM-12+043799999V0202601N007719999999N9999999N1-00061-00271100861ADDMA1999999095491MD1210301+9999OA149901751REMSYN076AAXX  02014 06620 33/// /2615 11006 21027 39549 40086 52030 333 91134 91222;
0087066200999992010010202004+47683+008617FM-12+043799999V0202601N006719999999N9999999N1-00101-00311100991ADDMA1999999095611REMSYN060AAXX  02024 06620 33/// /2613 11010 21031 39561 40099 5////;
0204066200999992010010203004+47683+008617FM-12+043799999V0202701N007710150019N0100001N1-00101-00431101111ADDAY171031AY211031GA1051+015001061GF105991999999017501999999MA1999999095721MD1310331+9999MW1011OA149901751REMSYN088AAXX  02034 06620 31760 52715 11010 21043 39572 40111 53033 70171 333 85650 91134 91223;
0128066200999992010010204004+47683+008617FM-12+043799999V0202601N007719999999N9999999N1-00121-00441101231ADDMA1999999095831MD1210341+9999OA149901341REMSYN076AAXX  02044 06620 33/// /2615 11012 21044 39583 40123 52034 333 91126 91217;
0128066200999992010010205004+47683+008617FM-12+043799999V0202701N006719999999N9999999N1-00131-00431101321ADDMA1999999095911MD1110301+9999OA149901291REMSYN076AAXX  02054 06620 33/// /2713 11013 21043 39591 40132 51030 333 91125 91217;
0317066200999992010010206004+47683+008617FM-12+043799999V0202701N005710036019N0050001N1-00171-00441101401ADDAA112004191AA224007991AL19900891AY171061AY271061GA1081+003601071GF108991999999004501999999GJ100009IA1279IA2999-00309KA1999N-00151MA1999999095981MD1210261+9999MW1721OA149901751REMSYN130AAXX  02064 06620 01450 82711 11017 21044 39598 40140 52026 60042 77277 333 21015 3/103 43/// 55000 60005 70080 88712 91134 91223;
0145066200999992010010207004+47683+008617FM-12+043799999V0202701N005719999999N9999999N1-00241-00401101531ADDAA101000891MA1999999096091MD1310261+9999OA149901241REMSYN082AAXX  02074 06620 23/// /2711 11024 21040 39609 40153 53026 333 69975 91124 91214;
0108066200999992010010208004+47683+008617FM-12+043799999V0202301N002119999999N9999999N1-00231-00411101631ADDAA101000021MA1999999096191REMSYN070AAXX  02084 06620 23/// /2304 11023 21041 39619 40163 5//// 333 69915;
0182066200999992010010209004+47683+008617FM-12+043799999V0202801N005112200019N0100001N1-00251-00481101761ADDGA1041+010801061GF104991999999012501999999MA1999999096311MD1210331+9999OA149901291REMSYN088AAXX  02094 06620 31660 42810 11025 21048 39631 40176 52033 7//33 333 84636 91125 91217;
0128066200999992010010210004+47683+008617FM-12+043799999V0202801N003119999999N9999999N1-00231-00481101871ADDMA1999999096411MD1110321+9999OA149900881REMSYN076AAXX  02104 06620 33/// /2806 11023 21048 39641 40187 51032 333 91117 91210;
0128066200999992010010211004+47683+008617FM-12+043799999V0202701N003119999999N9999999N1-00141-00641101891ADDMA1999999096451MD1110261+9999OA149900671REMSYN076AAXX  02114 06620 33/// /2706 11014 21064 39645 40189 51026 333 91113 91209;
0151066200999992010010212004+47683+008617FM-12+043799999V0202801N003119999999N9999999N1-00061-00861101931ADDAA106000891MA1999999096501MD1110191+9999OA149901651REMSYN088AAXX  02124 06620 03/// /2806 11006 21086 39650 40193 51019 69981 333 60005 91132 91222;
0128066200999992010010213004+47683+008617FM-12+043799999V0202601N002619999999N9999999N1-00141-00731102021ADDMA1999999096571MD1310161+9999OA149900821REMSYN076AAXX  02134 06620 33/// /2605 11014 21073 39657 40202 53016 333 91116 91210;
0128066200999992010010214004+47683+008617FM-12+043799999V0202401N003619999999N9999999N1-00041-00701102071ADDMA1999999096641MD1119999+9999OA149900721REMSYN076AAXX  02144 06620 33/// /2407 11004 21070 39664 40207 51/// 333 91114 91208;
0176066200999992010010215004+47683+008617FM-12+043799999V0202601N004612200019N0100001N1-00151-00731102171ADDGA1031+010801061GF103991999999012501999999MA1999999096711MD1310211+9999OA149900821REMSYN082AAXX  02154 06620 32660 32609 11015 21073 39671 40217 53021 333 83636 91116 91210;
0128066200999992010010216004+47683+008617FM-12+043799999V0202301N001519999999N9999999N1-00271-00661102261ADDMA1999999096771MD1110201+9999OA149900771REMSYN076AAXX  02164 06620 33/// /2303 11027 21066 39677 40226 51020 333 91115 91209;
0128066200999992010010217004+47683+008617FM-12+043799999V0202501N002619999999N9999999N1-00341-00751102381ADDMA1999999096871MD1310231+9999OA149900671REMSYN076AAXX  02174 06620 33/// /2505 11034 21075 39687 40238 53023 333 91113 91207;
0170066200999992010010218004+47683+008617FM-12+043799999V0202501N003119999999N9999999N1-00371-00781102421ADDAA112000891KA1120M-00021MA1999999096911MD1110201+9999OA149901031REMSYN094AAXX  02184 06620 03/// /2506 11037 21078 39691 40242 51020 69982 333 11002 60005 91120 91214;
0128066200999992010010219004+47683+008617FM-12+043799999V0202401N003119999999N9999999N1-00391-00761102461ADDMA1999999096941MD1110171+9999OA149900571REMSYN076AAXX  02194 06620 33/// /2406 11039 21076 39694 40246 51017 333 91111 91208;
0128066200999992010010220004+47683+008617FM-12+043799999V0202101N003119999999N9999999N1-00481-00751102481ADDMA1999999096941MD1210071+9999OA149900571REMSYN076AAXX  02204 06620 33/// /2106 11048 21075 39694 40248 52007 333 91111 91208;
0140066200999992010010221004+47683+008617FM-12+043799999V0202501N003119999999N0100001N1-00581-00761102501ADDMA1999999096941MD1210031+9999MW1021OA149900671REMSYN082AAXX  02214 06620 31/60 /2506 11058 21076 39694 40250 52003 702// 333 91113 91208;
0128066200999992010010222004+47683+008617FM-12+043799999V0202301N003119999999N9999999N1-00571-00741102521ADDMA1999999096961MD1310021+9999OA149900571REMSYN076AAXX  02224 06620 33/// /2306 11057 21074 39696 40252 53002 333 91111 91208;
0128066200999992010010223004+47683+008617FM-12+043799999V0202601N004619999999N9999999N1-00651-00791102541ADDMA1999999096961MD1210021+9999OA149900571REMSYN076AAXX  02234 06620 33/// /2609 11065 21079 39696 40254 52002 333 91111 91209;
0128066200999992010010300004+47683+008617FM-12+043799999V0202601N004619999999N9999999N1-00691-00841102541ADDMA1999999096951MD1010011+9999OA149900771REMSYN076AAXX  03004 06620 33/// /2609 11069 21084 39695 40254 50001 333 91115 91210;
0128066200999992010010301004+47683+008617FM-12+043799999V0202501N004619999999N9999999N1-00621-00831102551ADDMA1999999096981MD1210021+9999OA149900511REMSYN076AAXX  03014 06620 33/// /2509 11062 21083 39698 40255 52002 333 91110 91210;
0087066200999992010010302004+47683+008617FM-12+043799999V0202401N003119999999N9999999N1-00711-00871102571ADDMA1999999096981REMSYN060AAXX  03024 06620 33/// /2406 11071 21087 39698 40257 5////;
0141066200999992010010303004+47683+008617FM-12+043799999V0202501N003612200019N0100001N1-00731-00881102541ADDGA1001+999999999GF100991001001999999001001MA1999999096951MW1021REMSYN066AAXX  03034 06620 31/60 02507 11073 21088 39695 40254 5//// 702//;
0128066200999992010010304004+47683+008617FM-12+043799999V0202601N005119999999N9999999N1-00731-00911102521ADDMA1999999096931MD1710051+9999OA149900571REMSYN076AAXX  03044 06620 33/// /2610 11073 21091 39693 40252 57005 333 91111 91210;
0128066200999992010010305004+47683+008617FM-12+043799999V0202601N004619999999N9999999N1-00771-00931102551ADDMA1999999096951MD1519999+9999OA149900621REMSYN076AAXX  03054 06620 33/// /2609 11077 21093 39695 40255 55/// 333 91112 91210;
0206066200999992010010306004+47683+008617FM-12+043799999V0202501N004119999999N9999999N1-00761-00951102501ADDAA124000891AL14800091GJ102409IA2999-01209KA1999N-00821MA1999999096901MD1710051+9999OA149900621REMSYN100AAXX  03064 06620 33/// /2508 11076 21095 39690 40250 57005 333 21082 3/112 55040 70008 91112 91210;
0128066200999992010010307004+47683+008617FM-12+043799999V0202301N003119999999N9999999N1-00771-00911102501ADDMA1999999096901MD1710031+9999OA149900511REMSYN076AAXX  03074 06620 33/// /2306 11077 21091 39690 40250 57003 333 91110 91209;
0128066200999992010010308004+47683+008617FM-12+043799999V0202501N003619999999N9999999N1-00761-00901102521ADDMA1999999096921MD1519999+9999OA149900511REMSYN076AAXX  03084 06620 33/// /2507 11076 21090 39692 40252 55/// 333 91110 91208;
0198066200999992010010309004+47683+008617FM-12+043799999V0202601N004112200019N0150001N1-00591-00851102501ADDAY101031AY201031GA1001+999999999GF100991001001999999001001MA1999999096941MD1210041+9999MW1101OA149900621REMSYN082AAXX  03094 06620 31/65 02608 11059 21085 39694 40250 52004 71000 333 91112 91210;
0128066200999992010010310004+47683+008617FM-12+043799999V0202701N002119999999N9999999N1-00441-00821102491ADDMA1999999096961MD1210061+9999OA149900571REMSYN076AAXX  03104 06620 33/// /2704 11044 21082 39696 40249 52006 333 91111 91209;
0128066200999992010010311004+47683+008617FM-12+043799999V0202801N001519999999N9999999N1-00351-00761102351ADDMA1999999096841MD1810081+9999OA149900461REMSYN076AAXX  03114 06620 33/// /2803 11035 21076 39684 40235 58008 333 91109 91208;
0128066200999992010010312004+47683+008617FM-12+043799999V0202801N001019999999N9999999N1-00241-00781102251ADDMA1999999096771MD1710171+9999OA149900621REMSYN076AAXX  03124 06620 33/// /2802 11024 21078 39677 40225 57017 333 91112 91210;
0128066200999992010010313004+47683+008617FM-12+043799999V0202501N001019999999N9999999N1-00141-00721102201ADDMA1999999096741MD1710221+9999OA149900361REMSYN076AAXX  03134 06620 33/// /2502 11014 21072 39674 40220 57022 333 91107 91203;
0128066200999992010010314004+47683+008617FM-12+043799999V0202701N002619999999N9999999N1-00151-00711102171ADDMA1999999096711MD1710131+9999OA149900461REMSYN076AAXX  03144 06620 33/// /2705 11015 21071 39671 40217 57013 333 91109 91205;
0170066200999992010010315004+47683+008617FM-12+043799999V0202501N004112200019N0025001N1-00231-00691102171ADDGA1001+999999999GF100991001001999999001001MA1999999096701MD1710071+9999OA149900511REMSYN076AAXX  03154 06620 32/25 02508 11023 21069 39670 40217 57007 333 91110 91208;
0128066200999992010010316004+47683+008617FM-12+043799999V0202501N003619999999N9999999N1-00281-00721102181ADDMA1999999096701MD1710041+9999OA149900511REMSYN076AAXX  03164 06620 33/// /2507 11028 21072 39670 40218 57004 333 91110 91208;
0128066200999992010010317004+47683+008617FM-12+043799999V0202601N003119999999N9999999N1-00411-00681102181ADDMA1999999096671MD1710041+9999OA149900411REMSYN076AAXX  03174 06620 33/// /2606 11041 21068 39667 40218 57004 333 91108 91207;
0201066200999992010010318004+47683+008617FM-12+043799999V0202701N003112200019N0025001N1-00461-00681102201ADDGA1001+999999999GF100991001001999999001001IA1019KA1120M-00141MA1999999096681MD1710021+9999OA149900571REMSYN088AAXX  03184 06620 32/25 02706 11046 21068 39668 40220 57002 333 11014 30/// 91111 91209;
0128066200999992010010319004+47683+008617FM-12+043799999V0202601N002119999999N9999999N1-00561-00711102221ADDMA1999999096681MD1710021+9999OA149900361REMSYN076AAXX  03194 06620 33/// /2604 11056 21071 39668 40222 57002 333 91107 91206;
0128066200999992010010320004+47683+008617FM-12+043799999V0202201N001519999999N9999999N1-00651-00801102211ADDMA1999999096651MD1810021+9999OA149900361REMSYN076AAXX  03204 06620 33/// /2203 11065 21080 39665 40221 58002 333 91107 91206;
0170066200999992010010321004+47683+008617FM-12+043799999V0202401N001012200019N0200001N1-00711-00851102211ADDGA1001+999999999GF100991001001999999001001MA1999999096641MD1710041+9999OA149900411REMSYN076AAXX  03214 06620 32/70 02402 11071 21085 39664 40221 57004 333 91108 91207;
0128066200999992010010322004+47683+008617FM-12+043799999V0201401N001019999999N9999999N1-00711-00871102201ADDMA1999999096631MD1710051+9999OA149900261REMSYN076AAXX  03224 06620 33/// /1402 11071 21087 39663 40220 57005 333 91105 91204;
0128066200999992010010323004+47683+008617FM-12+043799999V0201601N001019999999N9999999N1-00751-00901102171ADDMA1999999096591MD1710061+9999OA149900211REMSYN076AAXX  03234 06620 33/// /1602 11075 21090 39659 40217 57006 333 91104 91203;
0170066200999992010010400004+47683+008617FM-12+043799999V0200501N001012200019N0200001N1-00841-00951102151ADDGA1001+999999999GF100991001001999999001001MA1999999096551MD1710091+9999OA149900511REMSYN076AAXX  04004 06620 32/70 00502 11084 21095 39655 40215 57009 333 91110 91208;
0128066200999992010010401004+47683+008617FM-12+043799999V0201801N000519999999N9999999N1-00811-01141102081ADDMA1999999096491MD1810141+9999OA149900151REMSYN076AAXX  04014 06620 33/// /1801 11081 21114 39649 40208 58014 333 91103 91203;
0128066200999992010010402004+47683+008617FM-12+043799999V0200501N001019999999N9999999N1-00841-01021102051ADDMA1999999096461MD1610131+9999OA149900151REMSYN076AAXX  04024 06620 33/// /0502 11084 21102 39646 40205 56013 333 91103 91203;
0170066200999992010010403004+47683+008617FM-12+043799999V0200401N002612200019N0200001N1-00931-01141102001ADDGA1001+999999999GF100991001001999999001001MA1999999096391MD1719999+9999OA149900361REMSYN076AAXX  04034 06620 32/70 00405 11093 21114 39639 40200 57/// 333 91107 91206;
0128066200999992010010404004+47683+008617FM-12+043799999V0200701N001519999999N9999999N1-00871-00991101941ADDMA1999999096351MD1710141+9999OA149900361REMSYN076AAXX  04044 06620 33/// /0703 11087 21099 39635 40194 57014 333 91107 91206;
0128066200999992010010405004+47683+008617FM-12+043799999V0202901N000519999999N9999999N1-00901-00971101931ADDMA1999999096331MD1710131+9999OA149900311REMSYN076AAXX  04054 06620 33/// /2901 11090 21097 39633 40193 57013 333 91106 91205;
0225066200999992010010406004+47683+008617FM-12+043799999V0202701N000519999999N9999999N1-00961-01121101941ADDAA124000091AL19900091GJ103789IA2999-01409KA1999N-00941MA1999999096331MD1710061+9999OA149900361REMSYN100AAXX  04064 06620 33/// /2701 11096 21112 39633 40194 57006 333 21094 3/114 55063 70000 91107 91206;EQDQ01  00002PRCP24
0128066200999992010010407004+47683+008617FM-12+043799999V0202801N000519999999N9999999N1-00981-01121101921ADDMA1999999096311MD1710041+9999OA149900261REMSYN076AAXX  04074 06620 33/// /2801 11098 21112 39631 40192 57004 333 91105 91203;
0128066200999992010010408004+47683+008617FM-12+043799999V0200801N001019999999N9999999N1-01001-01081101951ADDMA1999999096331MD1510001+9999OA149900261REMSYN076AAXX  04084 06620 33/// /0802 11100 21108 39633 40195 55000 333 91105 91203;
0128066200999992010010409004+47683+008617FM-12+043799999V0201101N001019999999N9999999N1-00911-01041101931ADDMA1999999096331MD1510001+9999OA149900311REMSYN076AAXX  04094 06620 33/// /1102 11091 21104 39633 40193 55000 333 91106 91205;
0128066200999992010010410004+47683+008617FM-12+043799999V0201301N000519999999N9999999N1-00851-00961101921ADDMA1999999096331MD1210021+9999OA149900261REMSYN076AAXX  04104 06620 33/// /1301 11085 21096 39633 40192 52002 333 91105 91203;
0128066200999992010010411004+47683+008617FM-12+043799999V0201401N000519999999N9999999N1-00781-00911101791ADDMA1999999096231MD1710101+9999OA149900211REMSYN076AAXX  04114 06620 33/// /1401 11078 21091 39623 40179 57010 333 91104 91202;
0128066200999992010010412004+47683+008617FM-12+043799999V0201601N001019999999N9999999N1-00691-00801101701ADDMA1999999096161MD1710171+9999OA149900361REMSYN076AAXX  04124 06620 33/// /1602 11069 21080 39616 40170 57017 333 91107 91206;
0128066200999992010010413004+47683+008617FM-12+043799999V0201301N000519999999N9999999N1-00641-00741101631ADDMA1999999096101MD1610231+9999OA149900211REMSYN076AAXX  04134 06620 33/// /1301 11064 21074 39610 40163 56023 333 91104 91202;
0128066200999992010010414004+47683+008617FM-12+043799999V0201001N001019999999N9999999N1-00591-00691101561ADDMA1999999096051MD1619999+9999OA149900211REMSYN076AAXX  04144 06620 33/// /1002 11059 21069 39605 40156 56/// 333 91104 91203;
0128066200999992010010415004+47683+008617FM-12+043799999V0201001N001019999999N9999999N1-00551-00661101531ADDMA1999999096031MD1610131+9999OA149900211REMSYN076AAXX  04154 06620 33/// /1002 11055 21066 39603 40153 56013 333 91104 91203;
0128066200999992010010416004+47683+008617FM-12+043799999V0200501N002119999999N9999999N1-00561-00701101551ADDMA1999999096041MD1710061+9999OA149900211REMSYN076AAXX  04164 06620 33/// /0504 11056 21070 39604 40155 57006 333 91104 91204;
0128066200999992010010417004+47683+008617FM-12+043799999V0200401N002119999999N9999999N1-00611-00751101551ADDMA1999999096031MD1710021+9999OA149900211REMSYN076AAXX  04174 06620 33/// /0404 11061 21075 39603 40155 57002 333 91104 91204;
0147066200999992010010418004+47683+008617FM-12+043799999V0200601N001019999999N9999999N1-00671-00821101551ADDKA1120M-00531MA1999999096021MD1710011+9999OA149900261REMSYN082AAXX  04184 06620 33/// /0602 11067 21082 39602 40155 57001 333 11053 91105 91205;
0128066200999992010010419004+47683+008617FM-12+043799999V0203301N002119999999N9999999N1-00731-00871101571ADDMA1999999096031MD1510011+9999OA149900311REMSYN076AAXX  04194 06620 33/// /3304 11073 21087 39603 40157 55001 333 91106 91205;
0128066200999992010010420004+47683+008617FM-12+043799999V0200201N002619999999N9999999N1-00811-00941101551ADDMA1999999095991MD1810041+9999OA149900311REMSYN076AAXX  04204 06620 33/// /0205 11081 21094 39599 40155 58004 333 91106 91205;
0128066200999992010010421004+47683+008617FM-12+043799999V0200201N002619999999N9999999N1-00831-01001101561ADDMA1999999096001MD1710021+9999OA149900411REMSYN076AAXX  04214 06620 33/// /0205 11083 21100 39600 40156 57002 333 91108 91205;
0128066200999992010010422004+47683+008617FM-12+043799999V0200201N003119999999N9999999N1-00841-01001101511ADDMA1999999095951MD1710081+9999OA149900411REMSYN076AAXX  04224 06620 33/// /0206 11084 21100 39595 40151 57008 333 91108 91206;
0128066200999992010010423004+47683+008617FM-12+043799999V0200101N002119999999N9999999N1-00841-01021101481ADDMA1999999095921MD1710071+9999OA149900411REMSYN076AAXX  04234 06620 33/// /0104 11084 21102 39592 40148 57007 333 91108 91206;
0128066200999992010010500004+47683+008617FM-12+043799999V0200201N003119999999N9999999N1-00901-01071101421ADDMA1999999095851MD1810151+9999OA149900411REMSYN076AAXX  05004 06620 33/// /0206 11090 21107 39585 40142 58015 333 91108 91206;
0128066200999992010010501004+47683+008617FM-12+043799999V0200301N003119999999N9999999N1-00891-01051101391ADDMA1999999095831MD1810121+9999OA149900411REMSYN076AAXX  05014 06620 33/// /0306 11089 21105 39583 40139 58012 333 91108 91206;
0128066200999992010010502004+47683+008617FM-12+043799999V0200201N003119999999N9999999N1-00941-01141101381ADDMA1999999095811MD1710111+9999OA149900571REMSYN076AAXX  05024 06620 33/// /0206 11094 21114 39581 40138 57011 333 91111 91207;
0128066200999992010010503004+47683+008617FM-12+043799999V0200401N003119999999N9999999N1-00921-01001101311ADDMA1999999095741MD1710111+9999OA149900571REMSYN076AAXX  05034 06620 33/// /0406 11092 21100 39574 40131 57011 333 91111 91207;
0128066200999992010010504004+47683+008617FM-12+043799999V0200401N003619999999N9999999N1-00931-00991101241ADDMA1999999095681MD1710151+9999OA149900511REMSYN076AAXX  05044 06620 33/// /0407 11093 21099 39568 40124 57015 333 91110 91208;
0128066200999992010010505004+47683+008617FM-12+043799999V0200301N004119999999N9999999N1-00931-01011101191ADDMA1999999095631MD1710181+9999OA149900571REMSYN076AAXX  05054 06620 33/// /0308 11093 21101 39563 40119 57018 333 91111 91209;
0313066200999992010010506004+47683+008617FM-12+043799999V0200401N004610066019N0060001N1-00901-00981101111ADDAA124000091AL19900091AY111061AY211061GA1061+006601071GF106991999999008001999999GJ101449IA1219IA2999-01409KA1999N-00951MA1999999095561MD1710181+9999MW1051OA149900671REMSYN118AAXX  05064 06620 31556 60409 11090 21098 39556 40111 57018 70511 333 21095 3/114 45/// 55024 70000 86722 91113 91210;EQDQ01  00002PRCP24
0128066200999992010010507004+47683+008617FM-12+043799999V0200501N003119999999N9999999N1-00721-00941101041ADDMA1999999095531MD1710151+9999OA149900771REMSYN076AAXX  05074 06620 33/// /0506 11072 21094 39553 40104 57015 333 91115 91210;
0128066200999992010010508004+47683+008617FM-12+043799999V0200501N005119999999N9999999N1-00701-00871100971ADDMA1999999095471MD1710161+9999OA149900771REMSYN076AAXX  05084 06620 33/// /0510 11070 21087 39547 40097 57016 333 91115 91210;
0226066200999992010010509004+47683+008617FM-12+043799999V0200601N002610138019N0050001N1-00571-00771100961ADDAY121031AY221031GA1051+013801061GA2041+027001031GF107991999999012501999999MA1999999095481MD1710081+9999MW1051OA149900771REMSYN094AAXX  05094 06620 31650 70605 11057 21077 39548 40096 57008 70522 333 85646 84359 91115 91210;
0128066200999992010010510004+47683+008617FM-12+043799999V0200601N003619999999N9999999N1-00481-00771100891ADDMA1999999095441MD1710091+9999OA149900671REMSYN076AAXX  05104 06620 33/// /0607 11048 21077 39544 40089 57009 333 91113 91207;
0128066200999992010010511004+47683+008617FM-12+043799999V0200801N003119999999N9999999N1-00511-00851100801ADDMA1999999095351MD1710121+9999OA149900671REMSYN076AAXX  05114 06620 33/// /0806 11051 21085 39535 40080 57012 333 91113 91207;
0204066200999992010010512004+47683+008617FM-12+043799999V0200701N002110138019N0150001N1-00451-00801100711ADDAY121061AY221061GA1061+013801061GF108991999999012501999999MA1999999095271MD1810211+9999MW1051OA149900771REMSYN088AAXX  05124 06620 31665 80704 11045 21080 39527 40071 58021 70522 333 86646 91115 91210;
0128066200999992010010513004+47683+008617FM-12+043799999V0200701N002619999999N9999999N1-00441-00821100631ADDMA1999999095201MD1610241+9999OA149900571REMSYN076AAXX  05134 06620 33/// /0705 11044 21082 39520 40063 56024 333 91111 91206;
0087066200999992010010514004+47683+008617FM-12+043799999V0200801N002119999999N9999999N1-00441-00811100581ADDMA1999999095151REMSYN060AAXX  05144 06620 33/// /0804 11044 21081 39515 40058 5////;
0128066200999992010010515004+47683+008617FM-12+043799999V0200701N002619999999N9999999N1-00451-00791100571ADDMA1999999095141MD1710131+9999OA149900671REMSYN076AAXX  05154 06620 33/// /0705 11045 21079 39514 40057 57013 333 91113 91207;
0128066200999992010010516004+47683+008617FM-12+043799999V0200501N002619999999N9999999N1-00471-00771100551ADDMA1999999095121MD1710081+9999OA149900621REMSYN076AAXX  05164 06620 33/// /0505 11047 21077 39512 40055 57008 333 91112 91207;
0128066200999992010010517004+47683+008617FM-12+043799999V0200401N003119999999N9999999N1-00491-00781100531ADDMA1999999095091MD1710061+9999OA149900621REMSYN076AAXX  05174 06620 33/// /0406 11049 21078 39509 40053 57006 333 91112 91207;
0207066200999992010010518004+47683+008617FM-12+043799999V0200401N004112200019N0150001N1-00511-00791100501ADDGA1021+005701061GF102991999999004501999999IA1259KA1120M-00421MA1999999095061MD1710081+9999OA149900771REMSYN094AAXX  05184 06620 32465 20408 11051 21079 39506 40050 57008 333 11042 41/// 82619 91115 91210;
0128066200999992010010519004+47683+008617FM-12+043799999V0200401N003619999999N9999999N1-00511-00781100491ADDMA1999999095051MD1710071+9999OA149900621REMSYN076AAXX  05194 06620 33/// /0407 11051 21078 39505 40049 57007 333 91112 91208;
0128066200999992010010520004+47683+008617FM-12+043799999V0200301N002619999999N9999999N1-00521-00781100441ADDMA1999999095001MD1710091+9999OA149900621REMSYN076AAXX  05204 06620 33/// /0305 11052 21078 39500 40044 57009 333 91112 91207;
0128066200999992010010521004+47683+008617FM-12+043799999V0200301N002119999999N9999999N1-00521-00751100431ADDMA1999999094991MD1710071+9999OA149900621REMSYN076AAXX  05214 06620 33/// /0304 11052 21075 39499 40043 57007 333 91112 91208;
0128066200999992010010522004+47683+008617FM-12+043799999V0200401N003619999999N9999999N1-00541-00781100401ADDMA1999999094961MD1710091+9999OA149900511REMSYN076AAXX  05224 06620 33/// /0407 11054 21078 39496 40040 57009 333 91110 91207;
0128066200999992010010523004+47683+008617FM-12+043799999V0200501N002619999999N9999999N1-00561-00791100371ADDMA1999999094931MD1710071+9999OA149900511REMSYN076AAXX  05234 06620 33/// /0505 11056 21079 39493 40037 57007 333 91110 91207;
0204066200999992010010600004+47683+008617FM-12+043799999V0200501N002110210019N0040001N1-00551-00771100341ADDAY151061AY251061GA1081+021001071GF108991999999022501999999MA1999999094901MD1810091+9999MW1681OA149900621REMSYN088AAXX  06004 06620 31840 80504 11055 21077 39490 40034 58009 76855 333 88757 91112 91208;
0128066200999992010010601004+47683+008617FM-12+043799999V0200301N002119999999N9999999N1-00581-00801100311ADDMA1999999094871MD1710091+9999OA149900571REMSYN076AAXX  06014 06620 33/// /0304 11058 21080 39487 40031 57009 333 91111 91207;
0128066200999992010010602004+47683+008617FM-12+043799999V0200501N002619999999N9999999N1-00551-00771100331ADDMA1999999094891MD1510041+9999OA149900571REMSYN076AAXX  06024 06620 33/// /0505 11055 21077 39489 40033 55004 333 91111 91207;
0145066200999992010010603004+47683+008617FM-12+043799999V0201001N000519999999N9999999N1-00581-00721100321ADDAA101000021MA1999999094881MD1510021+9999OA149900571REMSYN082AAXX  06034 06620 23/// /1001 11058 21072 39488 40032 55002 333 69925 91111 91207;
0128066200999992010010604004+47683+008617FM-12+043799999V0209999C000019999999N9999999N1-00561-00721100311ADDMA1999999094871MD1510001+9999OA149900411REMSYN076AAXX  06044 06620 33/// /0000 11056 21072 39487 40031 55000 333 91108 91205;
0128066200999992010010605004+47683+008617FM-12+043799999V0203301N000519999999N9999999N1-00531-00721100291ADDMA1999999094861MD1710031+9999OA149900261REMSYN076AAXX  06054 06620 33/// /3301 11053 21072 39486 40029 57003 333 91105 91204;
0269066200999992010010606004+47683+008617FM-12+043799999V0202501N001519999999N0060001N1-00491-00711100321ADDAA112000021AA224000391AL11200091AY171061AY271061GJ100129IA1279IA2999-00609KA1999N-00581MA1999999094901MD1210021+9999MW1001OA149900621REMSYN124AAXX  06064 06620 01/56 /2503 11049 21071 39490 40032 52002 69922 70077 333 21058 3/106 43/// 55002 60005 70002 91112 91207;
0128066200999992010010607004+47683+008617FM-12+043799999V0202401N000519999999N9999999N1-00501-00701100351ADDMA1999999094921MD1210051+9999OA149900211REMSYN076AAXX  06074 06620 33/// /2401 11050 21070 39492 40035 52005 333 91104 91203;
0128066200999992010010608004+47683+008617FM-12+043799999V0200401N001019999999N9999999N1-00491-00721100381ADDMA1999999094951MD1210091+9999OA149900261REMSYN076AAXX  06084 06620 33/// /0402 11049 21072 39495 40038 52009 333 91105 91203;
0128066200999992010010609004+47683+008617FM-12+043799999V0201801N000519999999N9999999N1-00421-00651100441ADDMA1999999095021MD1210121+9999OA149900261REMSYN076AAXX  06094 06620 33/// /1801 11042 21065 39502 40044 52012 333 91105 91204;
0128066200999992010010610004+47683+008617FM-12+043799999V0202701N001519999999N9999999N1-00391-00631100451ADDMA1999999095041MD1210121+9999OA149900261REMSYN076AAXX  06104 06620 33/// /2703 11039 21063 39504 40045 52012 333 91105 91203;
0128066200999992010010611004+47683+008617FM-12+043799999V0202601N001519999999N9999999N1-00351-00591100421ADDMA1999999095021MD1019999+9999OA149900311REMSYN076AAXX  06114 06620 33/// /2603 11035 21059 39502 40042 50/// 333 91106 91204;
0128066200999992010010612004+47683+008617FM-12+043799999V0201901N001519999999N9999999N1-00301-00531100381ADDMA1999999094991MD1810031+9999OA149900571REMSYN076AAXX  06124 06620 33/// /1903 11030 21053 39499 40038 58003 333 91111 91207;
0128066200999992010010613004+47683+008617FM-12+043799999V0202901N000519999999N9999999N1-00261-00531100381ADDMA1999999095001MD1510041+9999OA149900261REMSYN076AAXX  06134 06620 33/// /2901 11026 21053 39500 40038 55004 333 91105 91203;
0128066200999992010010614004+47683+008617FM-12+043799999V0202601N002119999999N9999999N1-00241-00501100391ADDMA1999999095011MD1019999+9999OA149900311REMSYN076AAXX  06144 06620 33/// /2604 11024 21050 39501 40039 50/// 333 91106 91205;
0204066200999992010010615004+47683+008617FM-12+043799999V0202601N002110078019N0020001N1-00231-00471100431ADDAY171031AY201031GA1081+007801071GF108991999999008001999999MA1999999095051MD1219999+9999MW1711OA149900311REMSYN088AAXX  06154 06620 31520 82604 11023 21047 39505 40043 52/// 77170 333 88726 91106 91205;
0128066200999992010010616004+47683+008617FM-12+043799999V0202601N002119999999N9999999N1-00231-00481100471ADDMA1999999095091MD1310091+9999OA149900361REMSYN076AAXX  06164 06620 33/// /2604 11023 21048 39509 40047 53009 333 91107 91205;
0128066200999992010010617004+47683+008617FM-12+043799999V0202401N001519999999N9999999N1-00221-00481100511ADDMA1999999095131MD1310121+9999OA149900411REMSYN076AAXX  06174 06620 33/// /2403 11022 21048 39513 40051 53012 333 91108 91205;
0235066200999992010010618004+47683+008617FM-12+043799999V0202401N003110108019N0030001N1-00231-00481100561ADDAY171061AY221061GA1081+010801071GF108991999999012501999999IA1219KA1120M-00221MA1999999095171MD1319999+9999MW1101OA149900461REMSYN100AAXX  06184 06620 31630 82406 11023 21048 39517 40056 53/// 71072 333 11022 45/// 88736 91109 91206;
0128066200999992010010619004+47683+008617FM-12+043799999V0202601N001519999999N9999999N1-00261-00491100601ADDMA1999999095211MD1110121+9999OA149900511REMSYN076AAXX  06194 06620 33/// /2603 11026 21049 39521 40060 51012 333 91110 91206;
0128066200999992010010620004+47683+008617FM-12+043799999V0202601N001519999999N9999999N1-00291-00491100641ADDMA1999999095241MD1110111+9999OA149900511REMSYN076AAXX  06204 06620 33/// /2603 11029 21049 39524 40064 51011 333 91110 91206;
0128066200999992010010621004+47683+008617FM-12+043799999V0202401N001519999999N9999999N1-00291-00491100661ADDMA1999999095261MD1210091+9999OA149900511REMSYN076AAXX  06214 06620 33/// /2403 11029 21049 39526 40066 52009 333 91110 91206;
0128066200999992010010622004+47683+008617FM-12+043799999V0202601N002119999999N9999999N1-00331-00501100711ADDMA1999999095301MD1210091+9999OA149900461REMSYN076AAXX  06224 06620 33/// /2604 11033 21050 39530 40071 52009 333 91109 91207;
0128066200999992010010623004+47683+008617FM-12+043799999V0202001N002119999999N9999999N1-00271-00451100721ADDMA1999999095321MD1210081+9999OA149900461REMSYN076AAXX  06234 06620 33/// /2004 11027 21045 39532 40072 52008 333 91109 91207;
0204066200999992010010700004+47683+008617FM-12+043799999V0202401N003610108019N0040001N1-00311-00471100751ADDAY121061AY221061GA1081+010801071GF108991999999012501999999MA1999999095341MD1210081+9999MW1101OA149900511REMSYN088AAXX  07004 06620 31640 82407 11031 21047 39534 40075 52008 71022 333 88736 91110 91207;
0128066200999992010010701004+47683+008617FM-12+043799999V0202601N002619999999N9999999N1-00341-00491100791ADDMA1999999095371MD1210071+9999OA149900511REMSYN076AAXX  07014 06620 33/// /2605 11034 21049 39537 40079 52007 333 91110 91207;
0128066200999992010010702004+47683+008617FM-12+043799999V0202601N003119999999N9999999N1-00321-00501100831ADDMA1999999095411MD1319999+9999OA149900461REMSYN076AAXX  07024 06620 33/// /2606 11032 21050 39541 40083 53/// 333 91109 91206;
0128066200999992010010703004+47683+008617FM-12+043799999V0202601N002619999999N9999999N1-00461-00571100861ADDMA1999999095411MD1210071+9999OA149900511REMSYN076AAXX  07034 06620 33/// /2605 11046 21057 39541 40086 52007 333 91110 91207;
0128066200999992010010704004+47683+008617FM-12+043799999V0200801N002119999999N9999999N1-00531-00621100881ADDMA1999999095421MD1210051+9999OA149900311REMSYN076AAXX  07044 06620 33/// /0804 11053 21062 39542 40088 52005 333 91106 91205;
0128066200999992010010705004+47683+008617FM-12+043799999V0200801N001519999999N9999999N1-00651-00731100931ADDMA1999999095441MD1210031+9999OA149900261REMSYN076AAXX  07054 06620 33/// /0803 11065 21073 39544 40093 52003 333 91105 91204;
0288066200999992010010706004+47683+008617FM-12+043799999V0200401N002610108019N0015001N1-00651-00751100971ADDAA124000021AL19900091AY111061AY211061GA1061+010801071GF106991999999012501999999GJ100009IA1149IA2999-01109KA1999N-00691MA1999999095481MD1210071+9999MW1101OA149900511REMSYN112AAXX  07064 06620 31615 60405 11065 21075 39548 40097 52007 71011 333 21069 34111 55000 70000 86736 91110 91207;
0128066200999992010010707004+47683+008617FM-12+043799999V0200501N002119999999N9999999N1-00601-00751100991ADDMA1999999095511MD1110091+9999OA149900311REMSYN076AAXX  07074 06620 33/// /0504 11060 21075 39551 40099 51009 333 91106 91205;
0128066200999992010010708004+47683+008617FM-12+043799999V0200401N002619999999N9999999N1-00591-00751101051ADDMA1999999095571MD1319999+9999OA149900311REMSYN076AAXX  07084 06620 33/// /0405 11059 21075 39557 40105 53/// 333 91106 91205;
0204066200999992010010709004+47683+008617FM-12+043799999V0200401N003112200019N0040001N1-00491-00681101081ADDAY111031AY211031GA1041+010801071GF104991999999012501999999MA1999999095611MD1310131+9999MW1101OA149900411REMSYN088AAXX  07094 06620 31640 40406 11049 21068 39561 40108 53013 71011 333 84736 91108 91206;
0128066200999992010010710004+47683+008617FM-12+043799999V0200201N001019999999N9999999N1-00331-00601101081ADDMA1999999095651MD1110141+9999OA149900411REMSYN076AAXX  07104 06620 33/// /0202 11033 21060 39565 40108 51014 333 91108 91206;
0128066200999992010010711004+47683+008617FM-12+043799999V0201001N001519999999N9999999N1-00101-00481101011ADDMA1999999095631MD1210061+9999OA149900411REMSYN076AAXX  07114 06620 33/// /1003 11010 21048 39563 40101 52006 333 91108 91206;
0204066200999992010010712004+47683+008617FM-12+043799999V0201101N001010126019N0030001N1-00051-00491100981ADDAY111061AY211061GA1061+012601071GF107991999999012501999999MA1999999095611MD1010001+9999MW1101OA149900461REMSYN088AAXX  07124 06620 31630 71102 11005 21049 39561 40098 50000 71011 333 86742 91109 91206;
0128066200999992010010713004+47683+008617FM-12+043799999V0202901N001019999999N9999999N1-00061-00471100961ADDMA1999999095591MD1719999+9999OA149900261REMSYN076AAXX  07134 06620 33/// /2902 11006 21047 39559 40096 57/// 333 91105 91203;
0146066200999992010010715004+47683+008617FM-12+043799999V02099999999990108019N0030001N1+99999+99999999999ADDAY121031AY221031GA1081+010801071GF108991999999012501999999MW1101REMSYN070AAXX  07154 06620 41630 8//// 1//// 2//// 3//// 5//// 71022 333 88736;
0128066200999992010010716004+47683+008617FM-12+043799999V0200801N001519999999N9999999N1-00131-00421101101ADDMA1999999095701MD1219999+9999OA149900261REMSYN076AAXX  07164 06620 33/// /0803 11013 21042 39570 40110 52/// 333 91105 91203;
0128066200999992010010717004+47683+008617FM-12+043799999V0200201N001019999999N9999999N1-00161-00431101141ADDMA1999999095741MD1219999+9999OA149900151REMSYN076AAXX  07174 06620 33/// /0202 11016 21043 39574 40114 52/// 333 91103 91203;
0235066200999992010010718004+47683+008617FM-12+043799999V0200201N001010108019N0030001N1-00171-00421101191ADDAY121061AY221061GA1081+010801071GF108991999999012501999999IA1119KA1120M-00051MA1999999095781MD1219999+9999MW1101OA149900411REMSYN100AAXX  07184 06620 31630 80202 11017 21042 39578 40119 52/// 71022 333 11005 32/// 88736 91108 91206;
0128066200999992010010719004+47683+008617FM-12+043799999V0200401N002619999999N9999999N1-00221-00431101211ADDMA1999999095791MD1210091+9999OA149900311REMSYN076AAXX  07194 06620 33/// /0405 11022 21043 39579 40121 52009 333 91106 91205;
0128066200999992010010720004+47683+008617FM-12+043799999V0200201N002119999999N9999999N1-00231-00451101211ADDMA1999999095791MD1210051+9999OA149900311REMSYN076AAXX  07204 06620 33/// /0204 11023 21045 39579 40121 52005 333 91106 91205;
0128066200999992010010721004+47683+008617FM-12+043799999V0200501N002119999999N9999999N1-00251-00461101251ADDMA1999999095821MD1210041+9999OA149900311REMSYN076AAXX  07214 06620 33/// /0504 11025 21046 39582 40125 52004 333 91106 91205;
0128066200999992010010722004+47683+008617FM-12+043799999V0200401N002619999999N9999999N1-00291-00461101261ADDMA1999999095821MD1210031+9999OA149900361REMSYN076AAXX  07224 06620 33/// /0405 11029 21046 39582 40126 52003 333 91107 91205;
0128066200999992010010723004+47683+008617FM-12+043799999V0200301N003619999999N9999999N1-00271-00471101261ADDMA1999999095831MD1210041+9999OA149900461REMSYN076AAXX  07234 06620 33/// /0307 11027 21047 39583 40126 52004 333 91109 91207;
0204066200999992010010800004+47683+008617FM-12+043799999V0200501N003110108019N0020001N1-00281-00451101221ADDAY121061AY221061GA1081+010801071GF108991999999012501999999MA1999999095791MD1710031+9999MW1101OA149900461REMSYN088AAXX  08004 06620 31620 80506 11028 21045 39579 40122 57003 71022 333 88736 91109 91207;
0128066200999992010010801004+47683+008617FM-12+043799999V0200601N002619999999N9999999N1-00251-00431101161ADDMA1999999095741MD1710081+9999OA149900511REMSYN076AAXX  08014 06620 33/// /0605 11025 21043 39574 40116 57008 333 91110 91208;
0128066200999992010010802004+47683+008617FM-12+043799999V0200801N003119999999N9999999N1-00191-00451101171ADDMA1999999095761MD1519999+9999OA149900571REMSYN076AAXX  08024 06620 33/// /0806 11019 21045 39576 40117 55/// 333 91111 91208;
0204066200999992010010803004+47683+008617FM-12+043799999V0200601N004110108019N0020001N1-00181-00451101171ADDAY121031AY221031GA1081+010801071GF108991999999012501999999MA1999999095761MD1519999+9999MW1101OA149900571REMSYN088AAXX  08034 06620 31620 80608 11018 21045 39576 40117 55/// 71022 333 88736 91111 91208;
0128066200999992010010804004+47683+008617FM-12+043799999V0200501N003619999999N9999999N1-00221-00331101131ADDMA1999999095721MD1710021+9999OA149900621REMSYN076AAXX  08044 06620 33/// /0507 11022 21033 39572 40113 57002 333 91112 91208;
0145066200999992010010805004+47683+008617FM-12+043799999V0200501N005719999999N9999999N1-00221-00341101071ADDAA101000391MA1999999095661MD1710101+9999OA149900931REMSYN082AAXX  08054 06620 23/// /0511 11022 21034 39566 40107 57010 333 69935 91118 91211;
0311066200999992010010806004+47683+008617FM-12+043799999V0200501N006210003019N0005001N1-00241-00371101031ADDAA112000892AA224000592AL13000091AY131061AY221061GA1091+999999999GF109991091999999999999999GJ101149IA1239IA2999-00509KA1999N-00291MA1999999095621MD1810141+9999MW1731OA149901241REMSYN124AAXX  08064 06620 01/05 90512 11024 21037 39562 40103 58014 69982 77332 333 21029 3/105 47/// 55019 69955 70005 91124 91212;
0145066200999992010010807004+47683+008617FM-12+043799999V0200501N005719999999N9999999N1-00241-00391101031ADDAA101000021MA1999999095621MD1710101+9999OA149901241REMSYN082AAXX  08074 06620 23/// /0511 11024 21039 39562 40103 57010 333 69925 91124 91213;
0145066200999992010010808004+47683+008617FM-12+043799999V0200501N007219999999N9999999N1-00271-00481101011ADDAA101000021MA1999999095591MD1710071+9999OA149901341REMSYN082AAXX  08084 06620 23/// /0514 11027 21048 39559 40101 57007 333 69915 91126 91214;
0204066200999992010010809004+47683+008617FM-12+043799999V0200601N005110057019N0010001N1-00231-00501100961ADDAY171031AY221031GA1081+005701071GF108991999999004501999999MA1999999095551MD1710071+9999MW1711OA149901341REMSYN088AAXX  08094 06620 31410 80610 11023 21050 39555 40096 57007 77172 333 88719 91126 91214;
0128066200999992010010810004+47683+008617FM-12+043799999V0200701N005719999999N9999999N1-00191-00521100891ADDMA1999999095491MD1710131+9999OA149901241REMSYN076AAXX  08104 06620 33/// /0711 11019 21052 39549 40089 57013 333 91124 91214;
0128066200999992010010811004+47683+008617FM-12+043799999V0200601N007719999999N9999999N1-00151-00521100791ADDMA1999999095411MD1810181+9999OA149901491REMSYN076AAXX  08114 06620 33/// /0615 11015 21052 39541 40079 58018 333 91129 91217;
0205066200999992010010812004+47683+008617FM-12+043799999V0200601N007210108019N0120001N1-00141-00491100661ADDAA106000391GA1081+010801061GF108991999999012501999999MA1999999095291MD1810261+9999OA149901541REMSYN100AAXX  08124 06620 01662 80614 11014 21049 39529 40066 58026 69931 7//77 333 60005 88636 91130 91217;
0128066200999992010010813004+47683+008617FM-12+043799999V0200601N007719999999N9999999N1-00131-00481100621ADDMA1999999095251MD1710241+9999OA149901651REMSYN076AAXX  08134 06620 33/// /0615 11013 21048 39525 40062 57024 333 91132 91215;
0134066200999992010010814004+47683+008617FM-12+043799999V0200701N006719999999N9999999N1-00131-00461100621ADDMA1999999095251MD1719999+9999OA149901651REMSYN082AAXX  08144 06620 33/// /0713 11013 21046 39525 40062 57/// 91340 333 91132 91215;
0128066200999992010010815004+47683+008617FM-12+043799999V0200701N006219999999N9999999N1-00171-00481100631ADDMA1999999095251MD1710041+9999OA149901651REMSYN076AAXX  08154 06620 33/// /0712 11017 21048 39525 40063 57004 333 91132 91217;
0128066200999992010010816004+47683+008617FM-12+043799999V0200601N007219999999N9999999N1-00191-00511100671ADDMA1999999095291MD1210041+9999OA149901391REMSYN076AAXX  08164 06620 33/// /0614 11019 21051 39529 40067 52004 333 91127 91214;
0128066200999992010010817004+47683+008617FM-12+043799999V0200601N006719999999N9999999N1-00211-00511100691ADDMA1999999095301MD1210061+9999OA149901541REMSYN076AAXX  08174 06620 33/// /0613 11021 21051 39530 40069 52006 333 91130 91214;
0230066200999992010010818004+47683+008617FM-12+043799999V0200601N005110108019N0120001N1-00241-00501100741ADDAA112000391GA1081+010801061GF108991999999012501999999IA1309KA1120M-00121MA1999999095341MD1210091+9999OA149901651REMSYN106AAXX  08184 06620 02662 80610 11024 21050 39534 40074 52009 69932 333 11012 42/// 60005 88636 91132 91217;
0128066200999992010010819004+47683+008617FM-12+043799999V0200601N003619999999N9999999N1-00261-00461100771ADDMA1999999095371MD1210081+9999OA149901241REMSYN076AAXX  08194 06620 33/// /0607 11026 21046 39537 40077 52008 333 91124 91211;
0128066200999992010010820004+47683+008617FM-12+043799999V0200401N004119999999N9999999N1-00281-00541100761ADDMA1999999095351MD1010051+9999OA149900881REMSYN076AAXX  08204 06620 33/// /0408 11028 21054 39535 40076 50005 333 91117 91210;
0204066200999992010010821004+47683+008617FM-12+043799999V0200301N003610078019N0080001N1-00311-00651100771ADDAY171031AY221031GA1081+007801071GF108991999999008001999999MA1999999095361MD1010021+9999MW1781OA149901541REMSYN088AAXX  08214 06620 31558 80307 11031 21065 39536 40077 50002 77872 333 88726 91130 91214;
0128066200999992010010822004+47683+008617FM-12+043799999V0200401N003119999999N9999999N1-00331-00691100781ADDMA1999999095361MD1710011+9999OA149900821REMSYN076AAXX  08224 06620 33/// /0406 11033 21069 39536 40078 57001 333 91116 91208;
0128066200999992010010823004+47683+008617FM-12+043799999V0200401N003119999999N9999999N1-00321-00751100811ADDMA1999999095391MD1210041+9999OA149900721REMSYN076AAXX  08234 06620 33/// /0406 11032 21075 39539 40081 52004 333 91114 91208;
0204066200999992010010900004+47683+008617FM-12+043799999V0200301N004110066019N0070001N1-00351-00801100821ADDAY171061AY221061GA1081+006601071GF108991999999008001999999MA1999999095401MD1210041+9999MW1051OA149901651REMSYN088AAXX  09004 06620 31557 80308 11035 21080 39540 40082 52004 70572 333 88722 91132 91215;
0128066200999992010010901004+47683+008617FM-12+043799999V0200301N004119999999N9999999N1-00371-00791100811ADDMA1999999095381MD1010021+9999OA149900881REMSYN076AAXX  09014 06620 33/// /0308 11037 21079 39538 40081 50002 333 91117 91210;
0128066200999992010010902004+47683+008617FM-12+043799999V0200401N003619999999N9999999N1-00381-00791100821ADDMA1999999095391MD1519999+9999OA149900881REMSYN076AAXX  09024 06620 33/// /0407 11038 21079 39539 40082 55/// 333 91117 91210;
0204066200999992010010903004+47683+008617FM-12+043799999V0200401N003110057019N0060001N1-00401-00791100831ADDAY121031AY221031GA1081+005701071GF108991999999004501999999MA1999999095401MD1219999+9999MW1051OA149900881REMSYN088AAXX  09034 06620 31456 80406 11040 21079 39540 40083 52/// 70522 333 88719 91117 91210;
0128066200999992010010904004+47683+008617FM-12+043799999V0200301N004619999999N9999999N1-00421-00801100811ADDMA1999999095371MD1810011+9999OA149900771REMSYN076AAXX  09044 06620 33/// /0309 11042 21080 39537 40081 58001 333 91115 91209;
0128066200999992010010905004+47683+008617FM-12+043799999V0200401N004619999999N9999999N1-00441-00791100791ADDMA1999999095351MD1710041+9999OA149900771REMSYN076AAXX  09054 06620 33/// /0409 11044 21079 39535 40079 57004 333 91115 91209;
0288066200999992010010906004+47683+008617FM-12+043799999V0200401N004110078019N0030001N1-00461-00771100741ADDAA124000591AL13600091AY121061AY221061GA1081+007801071GF108991999999008001999999GJ100009IA1119IA2999-00509KA1999N-00461MA1999999095301MD1710101+9999MW1101OA149900881REMSYN112AAXX  09064 06620 31530 80408 11046 21077 39530 40074 57010 71022 333 21046 32105 55000 70006 88726 91117 91210;
0128066200999992010010907004+47683+008617FM-12+043799999V0200601N001519999999N9999999N1-00471-00761100701ADDMA1999999095261MD1710111+9999OA149900881REMSYN076AAXX  09074 06620 33/// /0603 11047 21076 39526 40070 57011 333 91117 91210;
0128066200999992010010908004+47683+008617FM-12+043799999V0200401N003119999999N9999999N1-00461-00751100751ADDMA1999999095311MD1510041+9999OA149900821REMSYN076AAXX  09084 06620 33/// /0406 11046 21075 39531 40075 55004 333 91116 91208;
0204066200999992010010909004+47683+008617FM-12+043799999V0200401N002110108019N0030001N1-00451-00741100761ADDAY121031AY221031GA1081+010801071GF108991999999012501999999MA1999999095321MD1210021+9999MW1101OA149900881REMSYN088AAXX  09094 06620 31630 80404 11045 21074 39532 40076 52002 71022 333 88736 91117 91210;
0128066200999992010010910004+47683+008617FM-12+043799999V0200401N002619999999N9999999N1-00441-00741100731ADDMA1999999095291MD1810031+9999OA149900821REMSYN076AAXX  09104 06620 33/// /0405 11044 21074 39529 40073 58003 333 91116 91208;
0128066200999992010010911004+47683+008617FM-12+043799999V0200501N002619999999N9999999N1-00421-00751100701ADDMA1999999095271MD1710041+9999OA149900771REMSYN076AAXX  09114 06620 33/// /0505 11042 21075 39527 40070 57004 333 91115 91206;
0176066200999992010010912004+47683+008617FM-12+043799999V0200301N003610108019N0120001N1-00401-00741100621ADDGA1081+010801061GF108991999999012501999999MA1999999095201MD1710121+9999OA149900881REMSYN082AAXX  09124 06620 32662 80307 11040 21074 39520 40062 57012 333 88636 91117 91210;
0128066200999992010010913004+47683+008617FM-12+043799999V0200401N003119999999N9999999N1-00381-00751100621ADDMA1999999095201MD1710091+9999OA149900771REMSYN076AAXX  09134 06620 33/// /0406 11038 21075 39520 40062 57009 333 91115 91208;
0128066200999992010010914004+47683+008617FM-12+043799999V0200201N002119999999N9999999N1-00391-00761100621ADDMA1999999095201MD1510071+9999OA149900721REMSYN076AAXX  09144 06620 33/// /0204 11039 21076 39520 40062 55007 333 91114 91208;
0176066200999992010010915004+47683+008617FM-12+043799999V0200301N002110108019N0120001N1-00411-00771100661ADDGA1081+010801061GF108991999999012501999999MA1999999095231MD1210031+9999OA149900771REMSYN082AAXX  09154 06620 32662 80304 11041 21077 39523 40066 52003 333 88636 91115 91208;
0128066200999992010010916004+47683+008617FM-12+043799999V0200401N002619999999N9999999N1-00401-00761100691ADDMA1999999095261MD1210061+9999OA149900621REMSYN076AAXX  09164 06620 33/// /0405 11040 21076 39526 40069 52006 333 91112 91207;
0128066200999992010010917004+47683+008617FM-12+043799999V0200301N002119999999N9999999N1-00421-00751100691ADDMA1999999095261MD1210061+9999OA149900571REMSYN076AAXX  09174 06620 33/// /0304 11042 21075 39526 40069 52006 333 91111 91206;
0207066200999992010010918004+47683+008617FM-12+043799999V0200201N002110108019N0120001N1-00451-00731100731ADDGA1081+010801061GF108991999999012501999999IA1309KA1120M-00381MA1999999095291MD1210061+9999OA149900821REMSYN094AAXX  09184 06620 32662 80204 11045 21073 39529 40073 52006 333 11038 42/// 88636 91116 91208;
0145066200999992010010919004+47683+008617FM-12+043799999V0200301N002619999999N9999999N1-00491-00621100771ADDAA101000891MA1999999095321MD1210061+9999OA149900571REMSYN082AAXX  09194 06620 23/// /0305 11049 21062 39532 40077 52006 333 69975 91111 91207;
0145066200999992010010920004+47683+008617FM-12+043799999V0200201N002119999999N9999999N1-00491-00671100791ADDAA101000391MA1999999095341MD1310081+9999OA149900511REMSYN082AAXX  09204 06620 23/// /0204 11049 21067 39534 40079 53008 333 69935 91110 91205;
0145066200999992010010921004+47683+008617FM-12+043799999V0200301N002119999999N9999999N1-00491-00631100811ADDAA101000021MA1999999095361MD1310071+9999OA149900571REMSYN082AAXX  09214 06620 23/// /0304 11049 21063 39536 40081 53007 333 69915 91111 91207;
0145066200999992010010922004+47683+008617FM-12+043799999V0203301N001019999999N9999999N1-00481-00651100831ADDAA101000021MA1999999095381MD1110061+9999OA149900361REMSYN082AAXX  09224 06620 23/// /3302 11048 21065 39538 40083 51006 333 69915 91107 91205;
0128066200999992010010923004+47683+008617FM-12+043799999V0200301N001519999999N9999999N1-00491-00641100861ADDMA1999999095411MD1310071+9999OA149900361REMSYN076AAXX  09234 06620 33/// /0303 11049 21064 39541 40086 53007 333 91107 91205;
0227066200999992010011000004+47683+008617FM-12+043799999V0200101N001010057019N0010001N1-00511-00651100901ADDAA106001091AY171061AY221061GA1081+005701051GF108991999999004501999999MA1999999095441MD1110081+9999MW1711OA149900721REMSYN100AAXX  10004 06620 01410 80102 11051 21065 39544 40090 51008 60011 77172 333 69925 88519 91114 91208;
0128066200999992010011001004+47683+008617FM-12+043799999V0202801N002619999999N9999999N1-00551-00671100931ADDMA1999999095461MD1210081+9999OA149900311REMSYN076AAXX  10014 06620 33/// /2805 11055 21067 39546 40093 52008 333 91106 91205;
0087066200999992010011002004+47683+008617FM-12+043799999V0202801N002619999999N9999999N1-00511-00661100981ADDMA1999999095521REMSYN060AAXX  10024 06620 33/// /2805 11051 21066 39552 40098 5////;
0167066200999992010011003004+47683+008617FM-12+043799999V0202801N003110057019N0030001N1-00531-00681101021ADDAY121031AY221031GA1081+005701071GF108991999999004501999999MA1999999095551MW1101REMSYN076AAXX  10034 06620 41430 82806 11053 21068 39555 40102 5//// 71022 333 88719;
0128066200999992010011004004+47683+008617FM-12+043799999V0202801N004119999999N9999999N1-00501-00691101071ADDMA1999999095601MD1110141+9999OA149900511REMSYN076AAXX  10044 06620 33/// /2808 11050 21069 39560 40107 51014 333 91110 91208;
0128066200999992010011005004+47683+008617FM-12+043799999V0202801N003619999999N9999999N1-00511-00661101111ADDMA1999999095641MD1310121+9999OA149900511REMSYN076AAXX  10054 06620 33/// /2807 11051 21066 39564 40111 53012 333 91110 91208;
0317066200999992010011006004+47683+008617FM-12+043799999V0202801N003610057019N0030001N1-00491-00671101171ADDAA112001091AA224001591AL12400191AY121061AY221061GA1081+005701071GF108991999999004501999999GJ100009IA1279IA2999-00809KA1999N-00561MA1999999095701MD1110151+9999MW1101OA149900511REMSYN130AAXX  10064 06620 01430 82807 11049 21067 39570 40117 51015 60012 71022 333 21056 3/108 43/// 55000 60005 70014 88719 91110 91208;
0128066200999992010011007004+47683+008617FM-12+043799999V0202701N004119999999N9999999N1-00491-00661101231ADDMA1999999095761MD1310161+9999OA149900511REMSYN076AAXX  10074 06620 33/// /2708 11049 21066 39576 40123 53016 333 91110 91208;
0128066200999992010011008004+47683+008617FM-12+043799999V0202701N004619999999N9999999N1-00501-00671101311ADDMA1999999095831MD1319999+9999OA149900571REMSYN076AAXX  10084 06620 33/// /2709 11050 21067 39583 40131 53/// 333 91111 91209;
0204066200999992010011009004+47683+008617FM-12+043799999V0202701N004610057019N0030001N1-00461-00631101401ADDAY121031AY221031GA1081+005701071GF108991999999004501999999MA1999999095921MD1310221+9999MW1051OA149900571REMSYN088AAXX  10094 06620 31430 82709 11046 21063 39592 40140 53022 70522 333 88719 91111 91209;
0128066200999992010011010004+47683+008617FM-12+043799999V0202701N004119999999N9999999N1-00451-00651101451ADDMA1999999095971MD1110211+9999OA149900671REMSYN076AAXX  10104 06620 33/// /2708 11045 21065 39597 40145 51021 333 91113 91209;
0128066200999992010011011004+47683+008617FM-12+043799999V0202701N004619999999N9999999N1-00441-00691101501ADDMA1999999096021MD1110191+9999OA149900671REMSYN076AAXX  10114 06620 33/// /2709 11044 21069 39602 40150 51019 333 91113 91209;
0176066200999992010011012004+47683+008617FM-12+043799999V0202701N003110108019N0120001N1-00401-00671101511ADDGA1071+010801061GF107991999999012501999999MA1999999096041MD1110121+9999OA149900671REMSYN082AAXX  10124 06620 32662 72706 11040 21067 39604 40151 51012 333 87636 91113 91209;
0128066200999992010011013004+47683+008617FM-12+043799999V0202401N001019999999N9999999N1-00341-00721101511ADDMA1999999096051MD1110081+9999OA149900511REMSYN076AAXX  10134 06620 33/// /2402 11034 21072 39605 40151 51008 333 91110 91208;
0128066200999992010011014004+47683+008617FM-12+043799999V0202101N002619999999N9999999N1-00351-00721101561ADDMA1999999096101MD1319999+9999OA149900411REMSYN076AAXX  10144 06620 33/// /2105 11035 21072 39610 40156 53/// 333 91108 91205;
0128066200999992010011015004+47683+008617FM-12+043799999V0202201N002119999999N9999999N1-00371-00761101631ADDMA1999999096161MD1310121+9999OA149900671REMSYN076AAXX  10154 06620 33/// /2204 11037 21076 39616 40163 53012 333 91113 91209;
0128066200999992010011016004+47683+008617FM-12+043799999V0202201N001519999999N9999999N1-00371-00801101681ADDMA1999999096211MD1210161+9999OA149900411REMSYN076AAXX  10164 06620 33/// /2203 11037 21080 39621 40168 52016 333 91108 91205;
0128066200999992010011017004+47683+008617FM-12+043799999V0202301N002119999999N9999999N1-00381-00781101721ADDMA1999999096241MD1110141+9999OA149900411REMSYN076AAXX  10174 06620 33/// /2304 11038 21078 39624 40172 51014 333 91108 91204;
0207066200999992010011018004+47683+008617FM-12+043799999V0202501N002110108019N0120001N1-00391-00751101761ADDGA1081+010801041GF108991999999012501999999IA1309KA1120M-00341MA1999999096281MD1110121+9999OA149900671REMSYN094AAXX  10184 06620 32662 82504 11039 21075 39628 40176 51012 333 11034 42/// 88436 91113 91209;
0128066200999992010011019004+47683+008617FM-12+043799999V0202501N001519999999N9999999N1-00411-00771101781ADDMA1999999096291MD1210081+9999OA149900311REMSYN076AAXX  10194 06620 33/// /2503 11041 21077 39629 40178 52008 333 91106 91205;
0128066200999992010011020004+47683+008617FM-12+043799999V0202501N001519999999N9999999N1-00411-00791101811ADDMA1999999096321MD1210081+9999OA149900311REMSYN076AAXX  10204 06620 33/// /2503 11041 21079 39632 40181 52008 333 91106 91205;
0128066200999992010011021004+47683+008617FM-12+043799999V0202701N002119999999N9999999N1-00421-00771101821ADDMA1999999096331MD1210051+9999OA149900411REMSYN076AAXX  10214 06620 33/// /2704 11042 21077 39633 40182 52005 333 91108 91205;
0128066200999992010011022004+47683+008617FM-12+043799999V0202501N001019999999N9999999N1-00421-00781101831ADDMA1999999096341MD1210051+9999OA149900411REMSYN076AAXX  10224 06620 33/// /2502 11042 21078 39634 40183 52005 333 91108 91205;
0128066200999992010011023004+47683+008617FM-12+043799999V0202201N001519999999N9999999N1-00441-00751101821ADDMA1999999096321MD1010001+9999OA149900261REMSYN076AAXX  10234 06620 33/// /2203 11044 21075 39632 40182 50000 333 91105 91203;
0204066200999992010011100004+47683+008617FM-12+043799999V0202901N001010108019N0030001N1-00471-00761101811ADDAY121061AY221061GA1081+010801071GF108991999999012501999999MA1999999096311MD1810021+9999MW1101OA149900411REMSYN088AAXX  11004 06620 31630 82902 11047 21076 39631 40181 58002 71022 333 88736 91108 91205;
0128066200999992010011101004+47683+008617FM-12+043799999V0202701N001519999999N9999999N1-00481-00741101811ADDMA1999999096311MD1710031+9999OA149900211REMSYN076AAXX  11014 06620 33/// /2703 11048 21074 39631 40181 57003 333 91104 91203;
0128066200999992010011102004+47683+008617FM-12+043799999V0202801N002619999999N9999999N1-00491-00721101841ADDMA1999999096331MD1519999+9999OA149900261REMSYN076AAXX  11024 06620 33/// /2805 11049 21072 39633 40184 55/// 333 91105 91205;
0204066200999992010011103004+47683+008617FM-12+043799999V0202701N001510078019N0030001N1-00471-00751101821ADDAY121031AY221031GA1081+007801071GF108991999999008001999999MA1999999096321MD1019999+9999MW1101OA149900311REMSYN088AAXX  11034 06620 31530 82703 11047 21075 39632 40182 50/// 71022 333 88726 91106 91205;
0128066200999992010011104004+47683+008617FM-12+043799999V0202201N001019999999N9999999N1-00481-00671101811ADDMA1999999096311MD1010001+9999OA149900311REMSYN076AAXX  11044 06620 33/// /2202 11048 21067 39631 40181 50000 333 91106 91205;
0128066200999992010011105004+47683+008617FM-12+043799999V0202501N001019999999N9999999N1-00461-00731101821ADDMA1999999096321MD1710011+9999OA149900211REMSYN076AAXX  11054 06620 33/// /2502 11046 21073 39632 40182 57001 333 91104 91203;
0285066200999992010011106004+47683+008617FM-12+043799999V0202701N001010108019N0120001N1-00481-00721101801ADDAA124000091AL19900091GA1081+010801061GF108991999999012501999999GJ100009IA1309IA2999-00709KA1999N-00491MA1999999096301MD1710021+9999OA149900411REMSYN112AAXX  11064 06620 32662 82702 11048 21072 39630 40180 57002 333 21049 3/107 42/// 55000 70000 88636 91108 91205;EQDQ01  00002PRCP24
0128066200999992010011107004+47683+008617FM-12+043799999V0202601N001519999999N9999999N1-00481-00711101811ADDMA1999999096311MD1510001+9999OA149900211REMSYN076AAXX  11074 06620 33/// /2603 11048 21071 39631 40181 55000 333 91104 91203;
0128066200999992010011108004+47683+008617FM-12+043799999V0202301N001519999999N9999999N1-00481-00711101811ADDMA1999999096311MD1519999+9999OA149900211REMSYN076AAXX  11084 06620 33/// /2303 11048 21071 39631 40181 55/// 333 91104 91203;
0176066200999992010011109004+47683+008617FM-12+043799999V0202801N000510108019N0120001N1-00431-00691101801ADDGA1081+010801061GF108991999999012501999999MA1999999096311MD1010011+9999OA149900211REMSYN082AAXX  11094 06620 32662 82801 11043 21069 39631 40180 50001 333 88636 91104 91203;
0128066200999992010011110004+47683+008617FM-12+043799999V0202701N001519999999N9999999N1-00381-00691101791ADDMA1999999096311MD1019999+9999OA149900211REMSYN076AAXX  11104 06620 33/// /2703 11038 21069 39631 40179 50/// 333 91104 91203;
0128066200999992010011111004+47683+008617FM-12+043799999V0202501N002119999999N9999999N1-00351-00751101781ADDMA1999999096301MD1710011+9999OA149900361REMSYN076AAXX  11114 06620 33/// /2504 11035 21075 39630 40178 57001 333 91107 91204;
0204066200999992010011112004+47683+008617FM-12+043799999V0202701N004110036019N0010001N1-00341-00701101741ADDAY121061AY221061GA1081+003601051GF108991999999004501999999MA1999999096271MD1710041+9999MW1701OA149900511REMSYN088AAXX  11124 06620 31410 82708 11034 21070 39627 40174 57004 77022 333 88512 91110 91208;
0145066200999992010011113004+47683+008617FM-12+043799999V0202601N003619999999N9999999N1-00351-00621101721ADDAA101000021MA1999999096251MD1810061+9999OA149900511REMSYN082AAXX  11134 06620 23/// /2607 11035 21062 39625 40172 58006 333 69915 91110 91208;
0087066200999992010011114004+47683+008617FM-12+043799999V0202701N002619999999N9999999N1-00331-00581101751ADDMA1999999096281REMSYN060AAXX  11144 06620 33/// /2705 11033 21058 39628 40175 5////;
0145066200999992010011115004+47683+008617FM-12+043799999V0202601N003119999999N9999999N1-00331-00561101791ADDAA101000021MA1999999096321MD1210051+9999OA149900511REMSYN082AAXX  11154 06620 23/// /2606 11033 21056 39632 40179 52005 333 69915 91110 91208;
0145066200999992010011116004+47683+008617FM-12+043799999V0202601N003119999999N9999999N1-00351-00531101831ADDAA101000021MA1999999096351MD1110101+9999OA149900461REMSYN082AAXX  11164 06620 23/// /2606 11035 21053 39635 40183 51010 333 69915 91109 91207;
0145066200999992010011117004+47683+008617FM-12+043799999V0202501N002119999999N9999999N1-00361-00481101871ADDAA101000021MA1999999096391MD1110111+9999OA149900461REMSYN082AAXX  11174 06620 23/// /2504 11036 21048 39639 40187 51011 333 69925 91109 91207;
0258066200999992010011118004+47683+008617FM-12+043799999V0202201N002110036019N0010001N1-00381-00511101921ADDAA112000891AY171061AY221061GA1081+003601051GF108991999999004501999999IA1309KA1120M-00321MA1999999096431MD1310111+9999MW1711OA149900511REMSYN112AAXX  11184 06620 01410 82204 11038 21051 39643 40192 53011 69972 77172 333 11032 42/// 69925 88512 91110 91208;
0145066200999992010011119004+47683+008617FM-12+043799999V0202201N002119999999N9999999N1-00371-00511101941ADDAA101000021MA1999999096451MD1110101+9999OA149900311REMSYN082AAXX  11194 06620 23/// /2204 11037 21051 39645 40194 51010 333 69915 91106 91204;
0145066200999992010011120004+47683+008617FM-12+043799999V0202401N002619999999N9999999N1-00371-00501101951ADDAA101000021MA1999999096461MD1110071+9999OA149900361REMSYN082AAXX  11204 06620 23/// /2405 11037 21050 39646 40195 51007 333 69915 91107 91205;
0221066200999992010011121004+47683+008617FM-12+043799999V0202401N001510036019N0010001N1-00381-00491101951ADDAA101000021AY171031AY221031GA1081+003601051GF108991999999004501999999MA1999999096461MD1210031+9999MW1681OA149900461REMSYN094AAXX  11214 06620 21410 82403 11038 21049 39646 40195 52003 76872 333 69925 88512 91109 91207;
0145066200999992010011122004+47683+008617FM-12+043799999V0202101N000519999999N9999999N1-00401-00521101981ADDAA101000021MA1999999096481MD1210031+9999OA149900311REMSYN082AAXX  11224 06620 23/// /2101 11040 21052 39648 40198 52003 333 69925 91106 91204;
0145066200999992010011123004+47683+008617FM-12+043799999V0202301N001519999999N9999999N1-00381-00511101991ADDAA101000021MA1999999096501MD1210041+9999OA149900311REMSYN082AAXX  11234 06620 23/// /2303 11038 21051 39650 40199 52004 333 69915 91106 91204;
0227066200999992010011200004+47683+008617FM-12+043799999V0202701N001510036019N0010001N1-00391-00541101981ADDAA106000891AY171061AY221061GA1081+003601051GF108991999999004501999999MA1999999096491MD1210031+9999MW1711OA149900511REMSYN100AAXX  12004 06620 01410 82703 11039 21054 39649 40198 52003 69981 77172 333 69915 88512 91110 91208;
0128066200999992010011201004+47683+008617FM-12+043799999V0202401N001519999999N9999999N1-00381-00511101971ADDMA1999999096481MD1010001+9999OA149900211REMSYN076AAXX  12014 06620 33/// /2403 11038 21051 39648 40197 50000 333 91104 91203;
0128066200999992010011202004+47683+008617FM-12+043799999V0202401N001019999999N9999999N1-00381-00491101981ADDMA1999999096491MD1019999+9999OA149900211REMSYN076AAXX  12024 06620 33/// /2402 11038 21049 39649 40198 50/// 333 91104 91203;
0204066200999992010011203004+47683+008617FM-12+043799999V0202401N002110036019N0010001N1-00381-00501101971ADDAY171031AY221031GA1081+003601051GF108991999999004501999999MA1999999096481MD1710011+9999MW1711OA149900311REMSYN088AAXX  12034 06620 31410 82404 11038 21050 39648 40197 57001 77172 333 88512 91106 91204;
0128066200999992010011204004+47683+008617FM-12+043799999V0202101N000519999999N9999999N1-00371-00521101951ADDMA1999999096461MD1710021+9999OA149900311REMSYN076AAXX  12044 06620 33/// /2101 11037 21052 39646 40195 57002 333 91106 91205;
0128066200999992010011205004+47683+008617FM-12+043799999V0202701N001019999999N9999999N1-00401-00531101931ADDMA1999999096441MD1710051+9999OA149900311REMSYN076AAXX  12054 06620 33/// /2702 11040 21053 39644 40193 57005 333 91106 91205;
0317066200999992010011206004+47683+008617FM-12+043799999V0202601N001010108019N0120001N1-00381-00521101921ADDAA112000891AA224001591AL13000191AY171061AY271061GA1081+010801041GF108991999999012501999999GJ100009IA1309IA2999-00509KA1999N-00421MA1999999096431MD1710051+9999MW1701OA149900361REMSYN130AAXX  12064 06620 01662 82602 11038 21052 39643 40192 57005 69982 77077 333 21042 3/105 42/// 55000 60005 70015 88436 91107 91205;
0128066200999992010011207004+47683+008617FM-12+043799999V0209999C000019999999N9999999N1-00391-00521101881ADDMA1999999096391MD1710071+9999OA149900151REMSYN076AAXX  12074 06620 33/// /0000 11039 21052 39639 40188 57007 333 91103 91203;
0128066200999992010011208004+47683+008617FM-12+043799999V0200601N002119999999N9999999N1-00351-00471101831ADDMA1999999096351MD1719999+9999OA149900311REMSYN076AAXX  12084 06620 33/// /0604 11035 21047 39635 40183 57/// 333 91106 91204;
0204066200999992010011209004+47683+008617FM-12+043799999V0200601N002610108019N0120001N1-00331-00471101771ADDAY171031AY271031GA1081+010801061GF108991999999012501999999MA1999999096301MD1610131+9999MW1021OA149900411REMSYN088AAXX  12094 06620 31662 80605 11033 21047 39630 40177 56013 70277 333 88636 91108 91205;
0128066200999992010011210004+47683+008617FM-12+043799999V0200601N002619999999N9999999N1-00311-00511101691ADDMA1999999096231MD1810161+9999OA149900461REMSYN076AAXX  12104 06620 33/// /0605 11031 21051 39623 40169 58016 333 91109 91205;
0128066200999992010011211004+47683+008617FM-12+043799999V0200601N002619999999N9999999N1-00231-00471101571ADDMA1999999096131MD1810221+9999OA149900511REMSYN076AAXX  12114 06620 33/// /0605 11023 21047 39613 40157 58022 333 91110 91206;
0204066200999992010011212004+47683+008617FM-12+043799999V0200701N001510057019N0010001N1-00181-00451101461ADDAY171061AY221061GA1081+005701071GF108991999999004501999999MA1999999096041MD1810261+9999MW1101OA149900511REMSYN088AAXX  12124 06620 31410 80703 11018 21045 39604 40146 58026 71072 333 88719 91110 91206;
0128066200999992010011213004+47683+008617FM-12+043799999V0201101N002619999999N9999999N1-00201-00491101411ADDMA1999999095981MD1610251+9999OA149900461REMSYN076AAXX  12134 06620 33/// /1105 11020 21049 39598 40141 56025 333 91109 91205;
0087066200999992010011214004+47683+008617FM-12+043799999V0201101N002119999999N9999999N1-00201-00491101351ADDMA1999999095931REMSYN060AAXX  12144 06620 33/// /1104 11020 21049 39593 40135 5////;
0204066200999992010011215004+47683+008617FM-12+043799999V0200801N002110057019N0010001N1-00181-00461101271ADDAY121031AY221031GA1081+005701071GF108991999999004501999999MA1999999095861MD1810181+9999MW1101OA149900511REMSYN088AAXX  12154 06620 31410 80804 11018 21046 39586 40127 58018 71022 333 88719 91110 91206;
0128066200999992010011216004+47683+008617FM-12+043799999V0200701N001519999999N9999999N1-00191-00471101181ADDMA1999999095771MD1810211+9999OA149900571REMSYN076AAXX  12164 06620 33/// /0703 11019 21047 39577 40118 58021 333 91111 91206;
0128066200999992010011217004+47683+008617FM-12+043799999V0200601N002119999999N9999999N1-00201-00461101111ADDMA1999999095701MD1610231+9999OA149900571REMSYN076AAXX  12174 06620 33/// /0604 11020 21046 39570 40111 56023 333 91111 91206;
0235066200999992010011218004+47683+008617FM-12+043799999V0200501N002610057019N0010001N1-00201-00441101081ADDAY121061AY221061GA1081+005701041GF108991999999004501999999IA1309KA1120M-00171MA1999999095671MD1710191+9999MW1101OA149900571REMSYN100AAXX  12184 06620 31410 80505 11020 21044 39567 40108 57019 71022 333 11017 42/// 88419 91111 91207;
0128066200999992010011219004+47683+008617FM-12+043799999V0200401N002619999999N9999999N1-00231-00451101051ADDMA1999999095641MD1710131+9999OA149900621REMSYN076AAXX  12194 06620 33/// /0405 11023 21045 39564 40105 57013 333 91112 91207;
0128066200999992010011220004+47683+008617FM-12+043799999V0200501N005119999999N9999999N1-00231-00441100991ADDMA1999999095581MD1710121+9999OA149900771REMSYN076AAXX  12204 06620 33/// /0510 11023 21044 39558 40099 57012 333 91115 91210;
0204066200999992010011221004+47683+008617FM-12+043799999V0200601N003610057019N0020001N1-00231-00451100941ADDAY121031AY221031GA1081+005701071GF108991999999004501999999MA1999999095531MD1710141+9999MW1101OA149900771REMSYN088AAXX  12214 06620 31420 80607 11023 21045 39553 40094 57014 71022 333 88719 91115 91210;
0128066200999992010011222004+47683+008617FM-12+043799999V0200501N003619999999N9999999N1-00251-00451100901ADDMA1999999095491MD1710151+9999OA149900721REMSYN076AAXX  12224 06620 33/// /0507 11025 21045 39549 40090 57015 333 91114 91208;
0128066200999992010011223004+47683+008617FM-12+043799999V0200501N003119999999N9999999N1-00291-00471100861ADDMA1999999095451MD1610131+9999OA149900721REMSYN076AAXX  12234 06620 33/// /0506 11029 21047 39545 40086 56013 333 91114 91208;
0128066200999992010011300004+47683+008617FM-12+043799999V0200401N002619999999N9999999N1-00291-00471100841ADDMA1999999095431MD1710101+9999OA149900771REMSYN076AAXX  13004 06620 33/// /0405 11029 21047 39543 40084 57010 333 91115 91210;
0128066200999992010011301004+47683+008617FM-12+043799999V0203101N001019999999N9999999N1-00291-00491100921ADDMA1999999095501MD1310011+9999OA149900571REMSYN076AAXX  13014 06620 33/// /3102 11029 21049 39550 40092 53001 333 91111 91207;
0128066200999992010011302004+47683+008617FM-12+043799999V0200201N001519999999N9999999N1-00301-00471100901ADDMA1999999095481MD1219999+9999OA149900411REMSYN076AAXX  13024 06620 33/// /0203 11030 21047 39548 40090 52/// 333 91108 91205;
0204066200999992010011303004+47683+008617FM-12+043799999V0200601N001510036019N0020001N1-00321-00481100831ADDAY101031AY201031GA1081+003601071GF108991999999004501999999MA1999999095411MD1819999+9999MW1101OA149900721REMSYN088AAXX  13034 06620 31420 80603 11032 21048 39541 40083 58/// 71000 333 88712 91114 91208;
0128066200999992010011304004+47683+008617FM-12+043799999V0200501N002619999999N9999999N1-00331-00501100801ADDMA1999999095381MD1710121+9999OA149900461REMSYN076AAXX  13044 06620 33/// /0505 11033 21050 39538 40080 57012 333 91109 91206;
0128066200999992010011305004+47683+008617FM-12+043799999V0200401N002619999999N9999999N1-00321-00511100761ADDMA1999999095351MD1710131+9999OA149900461REMSYN076AAXX  13054 06620 33/// /0405 11032 21051 39535 40076 57013 333 91109 91206;
0294066200999992010011306004+47683+008617FM-12+043799999V0200501N002610150019N0030001N1-00311-00471100761ADDAA124000021AL19900091AY121061AY221061GA1081+015001071GF108991999999017501999999GJ100009IA1309IA2999-00309KA1999N-00341MA1999999095351MD1710061+9999MW1101OA149900771REMSYN118AAXX  13064 06620 31730 80505 11031 21047 39535 40076 57006 71022 333 21034 3/103 42/// 55000 70000 88750 91115 91210;
0128066200999992010011307004+47683+008617FM-12+043799999V0200501N002119999999N9999999N1-00311-00481100821ADDMA1999999095401MD1310021+9999OA149900511REMSYN076AAXX  13074 06620 33/// /0504 11031 21048 39540 40082 53002 333 91110 91206;
0128066200999992010011308004+47683+008617FM-12+043799999V0209999C000019999999N9999999N1-00301-00491100901ADDMA1999999095481MD1210131+9999OA149900511REMSYN076AAXX  13084 06620 33/// /0000 11030 21049 39548 40090 52013 333 91110 91206;
0176066200999992010011309004+47683+008617FM-12+043799999V0200301N000510108019N0120001N1-00261-00441100941ADDGA1081+010801061GF108991999999012501999999MA1999999095531MD1310181+9999OA149900511REMSYN082AAXX  13094 06620 32662 80301 11026 21044 39553 40094 53018 333 88636 91110 91206;
0145066200999992010011310004+47683+008617FM-12+043799999V0201601N000519999999N9999999N1-00241-00361100981ADDAA101000021MA1999999095571MD1110171+9999OA149900151REMSYN082AAXX  13104 06620 23/// /1601 11024 21036 39557 40098 51017 333 69915 91103 91202;
0145066200999992010011311004+47683+008617FM-12+043799999V0201801N000519999999N9999999N1-00201-00331100971ADDAA101000391MA1999999095571MD1210091+9999OA149900151REMSYN082AAXX  13114 06620 23/// /1801 11020 21033 39557 40097 52009 333 69935 91103 91201;
0151066200999992010011312004+47683+008617FM-12+043799999V0201401N000519999999N9999999N1-00181-00311100951ADDAA106000591MA1999999095551MD1010021+9999OA149900511REMSYN088AAXX  13124 06620 03/// /1401 11018 21031 39555 40095 50002 69941 333 60005 91110 91206;
0145066200999992010011313004+47683+008617FM-12+043799999V0201701N001019999999N9999999N1-00141-00291100921ADDAA101000021MA1999999095531MD1710041+9999OA149900211REMSYN082AAXX  13134 06620 23/// /1702 11014 21029 39553 40092 57004 333 69915 91104 91202;
0145066200999992010011314004+47683+008617FM-12+043799999V0201701N001019999999N9999999N1-00111-00231100931ADDAA101000021MA1999999095551MD1519999+9999OA149900211REMSYN082AAXX  13144 06620 23/// /1702 11011 21023 39555 40093 55/// 333 69915 91104 91202;
0128066200999992010011315004+47683+008617FM-12+043799999V0201201N000519999999N9999999N1-00101-00181100951ADDMA1999999095571MD1210021+9999OA149900211REMSYN076AAXX  13154 06620 33/// /1201 11010 21018 39557 40095 52002 333 91104 91202;
0145066200999992010011316004+47683+008617FM-12+043799999V0200601N001519999999N9999999N1-00081-00141100981ADDAA101000021MA1999999095601MD1310071+9999OA149900211REMSYN082AAXX  13164 06620 23/// /0603 11008 21014 39560 40098 53007 333 69915 91104 91203;
0128066200999992010011317004+47683+008617FM-12+043799999V0209999C000019999999N9999999N1-00081-00131101021ADDMA1999999095641MD1310091+9999OA149900211REMSYN076AAXX  13174 06620 33/// /0000 11008 21013 39564 40102 53009 333 91104 91203;
0170066200999992010011318004+47683+008617FM-12+043799999V0202101N001019999999N9999999N1-00051-00101101061ADDAA112000891KA1120M-00061MA1999999095681MD1310111+9999OA149900511REMSYN094AAXX  13184 06620 03/// /2102 11005 21010 39568 40106 53011 69972 333 11006 60005 91110 91206;
0128066200999992010011319004+47683+008617FM-12+043799999V0202201N001519999999N9999999N1-00041-00071101091ADDMA1999999095711MD1110111+9999OA149900261REMSYN076AAXX  13194 06620 33/// /2203 11004 21007 39571 40109 51011 333 91105 91203;
0145066200999992010011320004+47683+008617FM-12+043799999V0202201N002119999999N9999999N1-00021-00061101101ADDAA101000021MA1999999095731MD1110091+9999OA149900261REMSYN082AAXX  13204 06620 23/// /2204 11002 21006 39573 40110 51009 333 69915 91105 91204;
0128066200999992010011321004+47683+008617FM-12+043799999V0202201N002119999999N9999999N1+00001-00041101091ADDMA1999999095721MD1210041+9999OA149900311REMSYN076AAXX  13214 06620 33/// /2204 10000 21004 39572 40109 52004 333 91106 91205;
0128066200999992010011322004+47683+008617FM-12+043799999V0202201N001519999999N9999999N1-00011-00041101091ADDMA1999999095721MD1010011+9999OA149900311REMSYN076AAXX  13224 06620 33/// /2203 11001 21004 39572 40109 50001 333 91106 91205;
0128066200999992010011323004+47683+008617FM-12+043799999V0202501N002119999999N9999999N1+00001-00031101071ADDMA1999999095701MD1710031+9999OA149900361REMSYN076AAXX  13234 06620 33/// /2504 10000 21003 39570 40107 57003 333 91107 91204;
0170066200999992010011400004+47683+008617FM-12+043799999V0202901N001019999999N9999999N1+00021-00031101011ADDAA106000091MA1999999095651MD1710071+9999OA149900361REMSYN088AAXX  14004 06620 03/// /2902 10002 21003 39565 40101 57007 69911 333 60005 91107 91205;EQDQ01  00002PRCP06
0128066200999992010011401004+47683+008617FM-12+043799999V0200501N002119999999N9999999N1+00021-00031101001ADDMA1999999095641MD1610081+9999OA149900311REMSYN076AAXX  14014 06620 33/// /0504 10002 21003 39564 40100 56008 333 91106 91204;
0128066200999992010011402004+47683+008617FM-12+043799999V0200501N002619999999N9999999N1+00021-00021100971ADDMA1999999095611MD1619999+9999OA149900361REMSYN076AAXX  14024 06620 33/// /0505 10002 21002 39561 40097 56/// 333 91107 91206;
0087066200999992010011403004+47683+008617FM-12+043799999V0200401N002619999999N9999999N1+00021-00021100951ADDMA1999999095591REMSYN060AAXX  14034 06620 33/// /0405 10002 21002 39559 40095 5////;
0128066200999992010011404004+47683+008617FM-12+043799999V0200301N002119999999N9999999N1+00031-00021100901ADDMA1999999095551MD1710091+9999OA149900361REMSYN076AAXX  14044 06620 33/// /0304 10003 21002 39555 40090 57009 333 91107 91206;
0128066200999992010011405004+47683+008617FM-12+043799999V0200301N002119999999N9999999N1+00051+00001100891ADDMA1999999095541MD1710071+9999OA149900361REMSYN076AAXX  14054 06620 33/// /0304 10005 20000 39554 40089 57007 333 91107 91205;
0248066200999992010011406004+47683+008617FM-12+043799999V0200701N002619999999N9999999N1+00051+00011100871ADDAA112000091AA224000891AL14800091GJ100009IA2999-00109KA1999N-00061MA1999999095521MD1710071+9999OA149900461REMSYN112AAXX  14064 06620 03/// /0705 10005 20001 39552 40087 57007 69912 333 21006 3/101 55000 60005 70008 91109 91206;EQDQ01  00002PRCP12
0128066200999992010011407004+47683+008617FM-12+043799999V0200501N002619999999N9999999N1+00031-00011100871ADDMA1999999095521MD1710031+9999OA149900461REMSYN076AAXX  14074 06620 33/// /0505 10003 21001 39552 40087 57003 333 91109 91205;
0128066200999992010011408004+47683+008617FM-12+043799999V0200301N004119999999N9999999N1-00021-00071100881ADDMA1999999095521MD1719999+9999OA149900721REMSYN076AAXX  14084 06620 33/// /0308 11002 21007 39552 40088 57/// 333 91114 91208;
0128066200999992010011409004+47683+008617FM-12+043799999V0200301N003619999999N9999999N1+00031-00071100861ADDMA1999999095511MD1710011+9999OA149900721REMSYN076AAXX  14094 06620 33/// /0307 10003 21007 39551 40086 57001 333 91114 91208;
0128066200999992010011410004+47683+008617FM-12+043799999V0200601N002119999999N9999999N1+00121-00031100821ADDMA1999999095491MD1710031+9999OA149900621REMSYN076AAXX  14104 06620 33/// /0604 10012 21003 39549 40082 57003 333 91112 91207;
0128066200999992010011411004+47683+008617FM-12+043799999V0200501N004619999999N9999999N1+00181-00011100761ADDMA1999999095441MD1710081+9999OA149900721REMSYN076AAXX  14114 06620 33/// /0509 10018 21001 39544 40076 57008 333 91114 91209;
0128066200999992010011412004+47683+008617FM-12+043799999V0200501N005119999999N9999999N1+00191-00011100691ADDMA1999999095381MD1710131+9999OA149901081REMSYN076AAXX  14124 06620 33/// /0510 10019 21001 39538 40069 57013 333 91121 91211;
0128066200999992010011413004+47683+008617FM-12+043799999V0200501N005119999999N9999999N1+00151-00051100691ADDMA1999999095371MD1610121+9999OA149901081REMSYN076AAXX  14134 06620 33/// /0510 10015 21005 39537 40069 56012 333 91121 91211;
0128066200999992010011414004+47683+008617FM-12+043799999V0200401N004119999999N9999999N1+00151-00051100701ADDMA1999999095381MD1510061+9999OA149900981REMSYN076AAXX  14144 06620 33/// /0408 10015 21005 39538 40070 55006 333 91119 91211;
0128066200999992010011415004+47683+008617FM-12+043799999V0200401N003619999999N9999999N1+00161-00071100731ADDMA1999999095411MD1310031+9999OA149901081REMSYN076AAXX  14154 06620 33/// /0407 10016 21007 39541 40073 53003 333 91121 91211;
0128066200999992010011416004+47683+008617FM-12+043799999V0200501N002619999999N9999999N1+00121-00061100801ADDMA1999999095471MD1210101+9999OA149900721REMSYN076AAXX  14164 06620 33/// /0505 10012 21006 39547 40080 52010 333 91114 91207;
0128066200999992010011417004+47683+008617FM-12+043799999V0200501N003619999999N9999999N1+00111-00071100861ADDMA1999999095521MD1310141+9999OA149900671REMSYN076AAXX  14174 06620 33/// /0507 10011 21007 39552 40086 53014 333 91113 91208;
0147066200999992010011418004+47683+008617FM-12+043799999V0200501N004119999999N9999999N1+00071-00091100931ADDKA1120M+00221MA1999999095581MD1310171+9999OA149901081REMSYN082AAXX  14184 06620 33/// /0508 10007 21009 39558 40093 53017 333 10022 91121 91211;
0128066200999992010011419004+47683+008617FM-12+043799999V0200601N003619999999N9999999N1+00031-00161101031ADDMA1999999095671MD1310201+9999OA149900721REMSYN076AAXX  14194 06620 33/// /0607 10003 21016 39567 40103 53020 333 91114 91209;
0128066200999992010011420004+47683+008617FM-12+043799999V0200601N003119999999N9999999N1-00011-00171101111ADDMA1999999095741MD1210221+9999OA149900721REMSYN076AAXX  14204 06620 33/// /0606 11001 21017 39574 40111 52022 333 91114 91208;
0128066200999992010011421004+47683+008617FM-12+043799999V0200401N003119999999N9999999N1-00021-00181101191ADDMA1999999095811MD1110231+9999OA149900721REMSYN076AAXX  14214 06620 33/// /0406 11002 21018 39581 40119 51023 333 91114 91209;
0128066200999992010011422004+47683+008617FM-12+043799999V0200501N002619999999N9999999N1-00041-00211101291ADDMA1999999095901MD1310231+9999OA149900571REMSYN076AAXX  14224 06620 33/// /0505 11004 21021 39590 40129 53023 333 91111 91208;
0128066200999992010011423004+47683+008617FM-12+043799999V0200401N003119999999N9999999N1-00051-00191101381ADDMA1999999095991MD1210251+9999OA149900511REMSYN076AAXX  14234 06620 33/// /0406 11005 21019 39599 40138 52025 333 91110 91206;
0128066200999992010011500004+47683+008617FM-12+043799999V0200301N002119999999N9999999N1-00061-00231101451ADDMA1999999096051MD1110241+9999OA149900981REMSYN076AAXX  15004 06620 33/// /0304 11006 21023 39605 40145 51024 333 91119 91211;
0128066200999992010011501004+47683+008617FM-12+043799999V0200601N002119999999N9999999N1-00081-00251101521ADDMA1999999096111MD1110211+9999OA149900511REMSYN076AAXX  15014 06620 33/// /0604 11008 21025 39611 40152 51021 333 91110 91207;
0128066200999992010011502004+47683+008617FM-12+043799999V0200601N002619999999N9999999N1-00101-00271101611ADDMA1999999096191MD1310201+9999OA149900411REMSYN076AAXX  15024 06620 33/// /0605 11010 21027 39619 40161 53020 333 91108 91206;
0087066200999992010011503004+47683+008617FM-12+043799999V0200701N003119999999N9999999N1-00101-00271101691ADDMA1999999096271REMSYN060AAXX  15034 06620 33/// /0706 11010 21027 39627 40169 5////;
0128066200999992010011504004+47683+008617FM-12+043799999V0200601N002619999999N9999999N1-00101-00251101761ADDMA1999999096341MD1110231+9999OA149900411REMSYN076AAXX  15044 06620 33/// /0605 11010 21025 39634 40176 51023 333 91108 91206;
0128066200999992010011505004+47683+008617FM-12+043799999V0200601N002619999999N9999999N1-00101-00261101861ADDMA1999999096431MD1310241+9999OA149900411REMSYN076AAXX  15054 06620 33/// /0605 11010 21026 39643 40186 53024 333 91108 91206;
0225066200999992010011506004+47683+008617FM-12+043799999V0200601N001519999999N9999999N1-00091-00251101961ADDAA124000091AL19900091GJ100009IA2999-00109KA1999N-00111MA1999999096531MD1310261+9999OA149900721REMSYN100AAXX  15064 06620 33/// /0603 11009 21025 39653 40196 53026 333 21011 3/101 55000 70000 91114 91208;EQDQ01  00002PRCP24
0128066200999992010011507004+47683+008617FM-12+043799999V0200701N002119999999N9999999N1-00081-00261102061ADDMA1999999096621MD1310281+9999OA149900361REMSYN076AAXX  15074 06620 33/// /0704 11008 21026 39662 40206 53028 333 91107 91205;
0128066200999992010011508004+47683+008617FM-12+043799999V0200501N002619999999N9999999N1-00081-00241102121ADDMA1999999096681MD1119999+9999OA149900361REMSYN076AAXX  15084 06620 33/// /0505 11008 21024 39668 40212 51/// 333 91107 91205;
0128066200999992010011509004+47683+008617FM-12+043799999V0200501N001519999999N9999999N1-00051-00251102221ADDMA1999999096781MD1110251+9999OA149900411REMSYN076AAXX  15094 06620 33/// /0503 11005 21025 39678 40222 51025 333 91108 91206;
0128066200999992010011510004+47683+008617FM-12+043799999V0200701N002119999999N9999999N1-00021-00241102281ADDMA1999999096841MD1110221+9999OA149900311REMSYN076AAXX  15104 06620 33/// /0704 11002 21024 39684 40228 51022 333 91106 91205;
0128066200999992010011511004+47683+008617FM-12+043799999V0200801N001019999999N9999999N1+00011-00221102301ADDMA1999999096871MD1110191+9999OA149900261REMSYN076AAXX  15114 06620 33/// /0802 10001 21022 39687 40230 51019 333 91105 91204;
0204066200999992010011512004+47683+008617FM-12+043799999V0200801N000510057019N0025001N1+00041-00201102331ADDAY121061AY221061GA1081+005701071GF108991999999004501999999MA1999999096901MD1210121+9999MW1101OA149900411REMSYN088AAXX  15124 06620 31425 80801 10004 21020 39690 40233 52012 71022 333 88719 91108 91206;
0128066200999992010011513004+47683+008617FM-12+043799999V0209999C000019999999N9999999N1+00091-00171102361ADDMA1999999096941MD1210101+9999OA149900211REMSYN076AAXX  15134 06620 33/// /0000 10009 21017 39694 40236 52010 333 91104 91203;
0128066200999992010011514004+47683+008617FM-12+043799999V0202201N000519999999N9999999N1+00111-00161102421ADDMA1999999097001MD1210131+9999OA149900151REMSYN076AAXX  15144 06620 33/// /2201 10011 21016 39700 40242 52013 333 91103 91201;
0204066200999992010011515004+47683+008617FM-12+043799999V0202501N000510057019N0025001N1+00131-00141102501ADDAY121031AY221031GA1081+005701071GF108991999999004501999999MA1999999097081MD1210181+9999MW1101OA149900261REMSYN088AAXX  15154 06620 31425 82501 10013 21014 39708 40250 52018 71022 333 88719 91105 91204;
0128066200999992010011516004+47683+008617FM-12+043799999V0202801N001019999999N9999999N1+00131-00121102551ADDMA1999999097131MD1210191+9999OA149900151REMSYN076AAXX  15164 06620 33/// /2802 10013 21012 39713 40255 52019 333 91103 91202;
0128066200999992010011517004+47683+008617FM-12+043799999V0203501N001019999999N9999999N1+00111-00121102631ADDMA1999999097201MD1110201+9999OA149900151REMSYN076AAXX  15174 06620 33/// /3502 10011 21012 39720 40263 51020 333 91103 91202;
0235066200999992010011518004+47683+008617FM-12+043799999V0209999C000010108019N0030001N1+00111-00121102641ADDAY121061AY221061GA1081+010801071GF108991999999012501999999IA1099KA1120M+00151MA1999999097211MD1210131+9999MW1101OA149900361REMSYN100AAXX  15184 06620 31630 80000 10011 21012 39721 40264 52013 71022 333 10015 31/// 88736 91107 91205;
0128066200999992010011519004+47683+008617FM-12+043799999V0202901N000519999999N9999999N1+00091-00111102681ADDMA1999999097241MD1210111+9999OA149900211REMSYN076AAXX  15194 06620 33/// /2901 10009 21011 39724 40268 52011 333 91104 91202;
0128066200999992010011520004+47683+008617FM-12+043799999V0202501N000519999999N9999999N1+00121-00161102681ADDMA1999999097251MD1210051+9999OA149900261REMSYN076AAXX  15204 06620 33/// /2501 10012 21016 39725 40268 52005 333 91105 91202;
0176066200999992010011521004+47683+008617FM-12+043799999V0200601N001010108019N0120001N1+00081-00131102701ADDGA1081+010801041GF108991999999012501999999MA1999999097261MD1210051+9999OA149900261REMSYN082AAXX  15214 06620 32662 80602 10008 21013 39726 40270 52005 333 88436 91105 91203;
0128066200999992010011522004+47683+008617FM-12+043799999V0200701N002119999999N9999999N1+00051-00171102691ADDMA1999999097251MD1210011+9999OA149900411REMSYN076AAXX  15224 06620 33/// /0704 10005 21017 39725 40269 52001 333 91108 91204;
0128066200999992010011523004+47683+008617FM-12+043799999V0200601N001519999999N9999999N1+00031-00191102731ADDMA1999999097281MD1310031+9999OA149900411REMSYN076AAXX  15234 06620 33/// /0603 10003 21019 39728 40273 53003 333 91108 91204;
0176066200999992010011600004+47683+008617FM-12+043799999V0200401N001510108019N0120001N1+00021-00211102701ADDGA1081+010801041GF108991999999012501999999MA1999999097251MD1010011+9999OA149900411REMSYN082AAXX  16004 06620 32662 80403 10002 21021 39725 40270 50001 333 88436 91108 91204;
0128066200999992010011601004+47683+008617FM-12+043799999V0200301N002119999999N9999999N1-00021-00221102681ADDMA1999999097221MD1810031+9999OA149900411REMSYN076AAXX  16014 06620 33/// /0304 11002 21022 39722 40268 58003 333 91108 91205;
0128066200999992010011602004+47683+008617FM-12+043799999V0200401N002119999999N9999999N1-00041-00221102661ADDMA1999999097201MD1710081+9999OA149900411REMSYN076AAXX  16024 06620 33/// /0404 11004 21022 39720 40266 57008 333 91108 91205;
0176066200999992010011603004+47683+008617FM-12+043799999V0200501N000510108019N0120001N1-00051-00221102651ADDGA1081+010801041GF108991999999012501999999MA1999999097191MD1719999+9999OA149900411REMSYN082AAXX  16034 06620 32662 80501 11005 21022 39719 40265 57/// 333 88436 91108 91205;
0128066200999992010011604004+47683+008617FM-12+043799999V0200401N001519999999N9999999N1-00031-00231102601ADDMA1999999097141MD1710081+9999OA149900361REMSYN076AAXX  16044 06620 33/// /0403 11003 21023 39714 40260 57008 333 91107 91205;
0128066200999992010011605004+47683+008617FM-12+043799999V0200501N001519999999N9999999N1-00051-00231102551ADDMA1999999097091MD1710111+9999OA149900361REMSYN076AAXX  16054 06620 33/// /0503 11005 21023 39709 40255 57011 333 91107 91205;
0313066200999992010011606004+47683+008617FM-12+043799999V0200601N002110108019N0010001N1-00031-00211102501ADDAA124000091AL19900091AY121061AY221061GA1081+010801071GF108991999999012501999999GJ100009IA1259IA2999-00109KA1999N-00051MA1999999097051MD1710141+9999MW1101OA149900411REMSYN118AAXX  16064 06620 31610 80604 11003 21021 39705 40250 57014 71022 333 21005 3/101 41/// 55000 70000 88736 91108 91205;EQDQ01  00002PRCP24
0128066200999992010011607004+47683+008617FM-12+043799999V0200701N002619999999N9999999N1-00051-00201102461ADDMA1999999097011MD1710131+9999OA149900411REMSYN076AAXX  16074 06620 33/// /0705 11005 21020 39701 40246 57013 333 91108 91205;
0128066200999992010011608004+47683+008617FM-12+043799999V0200701N003119999999N9999999N1-00061-00221102401ADDMA1999999096951MD1810141+9999OA149900511REMSYN076AAXX  16084 06620 33/// /0706 11006 21022 39695 40240 58014 333 91110 91206;
0204066200999992010011609004+47683+008617FM-12+043799999V0200701N002610057019N0020001N1-00081-00241102381ADDAY121031AY221031GA1081+005701071GF108991999999004501999999MA1999999096931MD1710121+9999MW1101OA149900511REMSYN088AAXX  16094 06620 31420 80705 11008 21024 39693 40238 57012 71022 333 88719 91110 91206;
0128066200999992010011610004+47683+008617FM-12+043799999V0200801N001519999999N9999999N1-00101-00271102341ADDMA1999999096881MD1710131+9999OA149900511REMSYN076AAXX  16104 06620 33/// /0803 11010 21027 39688 40234 57013 333 91110 91206;
0128066200999992010011611004+47683+008617FM-12+043799999V0200601N001019999999N9999999N1-00071-00301102271ADDMA1999999096821MD1710131+9999OA149900511REMSYN076AAXX  16114 06620 33/// /0602 11007 21030 39682 40227 57013 333 91110 91205;
0204066200999992010011612004+47683+008617FM-12+043799999V0201901N001010057019N0025001N1-00051-00321102211ADDAY121061AY221061GA1081+005701071GF108991999999004501999999MA1999999096771MD1710161+9999MW1101OA149900511REMSYN088AAXX  16124 06620 31425 81902 11005 21032 39677 40221 57016 71022 333 88719 91110 91206;
0128066200999992010011613004+47683+008617FM-12+043799999V0202201N002119999999N9999999N1-00011-00331102181ADDMA1999999096751MD1710131+9999OA149900461REMSYN076AAXX  16134 06620 33/// /2204 11001 21033 39675 40218 57013 333 91109 91204;
0128066200999992010011614004+47683+008617FM-12+043799999V0202001N002119999999N9999999N1-00021-00331102101ADDMA1999999096671MD1719999+9999OA149900461REMSYN076AAXX  16144 06620 33/// /2004 11002 21033 39667 40210 57/// 333 91109 91204;
0204066200999992010011615004+47683+008617FM-12+043799999V0202001N001510057019N0025001N1-00011-00341102041ADDAY121031AY221031GA1081+005701071GF108991999999004501999999MA1999999096621MD1710151+9999MW1101OA149900511REMSYN088AAXX  16154 06620 31425 82003 11001 21034 39662 40204 57015 71022 333 88719 91110 91205;
0128066200999992010011616004+47683+008617FM-12+043799999V0200801N000519999999N9999999N1-00061-00341102001ADDMA1999999096571MD1710181+9999OA149900461REMSYN076AAXX  16164 06620 33/// /0801 11006 21034 39657 40200 57018 333 91109 91204;
0128066200999992010011617004+47683+008617FM-12+043799999V0202001N000519999999N9999999N1-00071-00341102011ADDMA1999999096581MD1710091+9999OA149900311REMSYN076AAXX  16174 06620 33/// /2001 11007 21034 39658 40201 57009 333 91106 91204;
0235066200999992010011618004+47683+008617FM-12+043799999V0202501N001010108019N0030001N1-00111-00351102001ADDAY121061AY221061GA1081+010801071GF108991999999012501999999IA1099KA1120M+00011MA1999999096561MD1710061+9999MW1101OA149900511REMSYN100AAXX  16184 06620 31630 82502 11011 21035 39656 40200 57006 71022 333 10001 31/// 88736 91110 91206;
0128066200999992010011619004+47683+008617FM-12+043799999V0202101N001019999999N9999999N1-00101-00321101941ADDMA1999999096511MD1710061+9999OA149900211REMSYN076AAXX  16194 06620 33/// /2102 11010 21032 39651 40194 57006 333 91104 91203;
0128066200999992010011620004+47683+008617FM-12+043799999V0202301N002119999999N9999999N1-00101-00311101891ADDMA1999999096461MD1710121+9999OA149900261REMSYN076AAXX  16204 06620 33/// /2304 11010 21031 39646 40189 57012 333 91105 91204;
0221066200999992010011621004+47683+008617FM-12+043799999V0202501N003610066019N0020001N1-00051-00201101781ADDAA101000591AY161031AY221031GA1081+006601071GF108991999999008001999999MA1999999096361MD1710201+9999MW1611OA149900461REMSYN094AAXX  16214 06620 21520 82507 11005 21020 39636 40178 57020 76162 333 69945 88722 91109 91207;
0145066200999992010011622004+47683+008617FM-12+043799999V0202601N003119999999N9999999N1+00001-00101101781ADDAA101002091MA1999999096371MD1710141+9999OA149900571REMSYN082AAXX  16224 06620 23/// /2606 10000 21010 39637 40178 57014 333 60025 91111 91207;
0145066200999992010011623004+47683+008617FM-12+043799999V0202101N001519999999N9999999N1+00031-00021101771ADDAA101002091MA1999999096371MD1710091+9999OA149900571REMSYN082AAXX  16234 06620 23/// /2103 10003 21002 39637 40177 57009 333 60025 91111 91207;
0151066200999992010011700004+47683+008617FM-12+043799999V0202201N004119999999N9999999N1+00071+00011101771ADDAA106006191MA1999999096381MD1210021+9999OA149900621REMSYN088AAXX  17004 06620 03/// /2208 10007 20001 39638 40177 52002 60061 333 60025 91112 91208;
0145066200999992010011701004+47683+008617FM-12+043799999V0202301N006719999999N9999999N1+00291+00161101741ADDAA101000391MA1999999096391MD1210021+9999OA149901181REMSYN082AAXX  17014 06620 23/// /2313 10029 20016 39639 40174 52002 333 69935 91123 91213;
0128066200999992010011702004+47683+008617FM-12+043799999V0202301N007219999999N9999999N1+00281+00161101651ADDMA1999999096311MD1819999+9999OA149901341REMSYN076AAXX  17024 06620 33/// /2314 10028 20016 39631 40165 58/// 333 91126 91214;
0167066200999992010011703004+47683+008617FM-12+043799999V0202401N005110057019N0020001N1+00311+00191101641ADDAY161031AY221031GA1081+005701071GF108991999999004501999999MA1999999096301MW1241REMSYN076AAXX  17034 06620 41420 82410 10031 20019 39630 40164 5//// 72462 333 88719;
0145066200999992010011704004+47683+008617FM-12+043799999V0202401N005119999999N9999999N1+00301+00221101631ADDAA101001091MA1999999096291MD1710101+9999OA149901081REMSYN082AAXX  17044 06620 23/// /2410 10030 20022 39629 40163 57010 333 60015 91121 91212;
0145066200999992010011705004+47683+008617FM-12+043799999V0202201N005119999999N9999999N1+00291+00231101601ADDAA101000021MA1999999096261MD1719999+9999OA149900931REMSYN082AAXX  17054 06620 23/// /2210 10029 20023 39626 40160 57/// 333 69915 91118 91212;
0311066200999992010011706004+47683+008617FM-12+043799999V0202301N006210087019N0020001N1+00391+00261101541ADDAA112007992AA224007692AL14200791AY121061AY221061GA1081+008701071GF108991999999008001999999GJ100009IA1119IA2999-00409KA1999N-00121MA1999999096221MD1710081+9999MW1101OA149901341REMSYN124AAXX  17064 06620 01520 82312 10039 20026 39622 40154 57008 60082 71022 333 21012 32104 55000 60005 70077 88729 91126 91214;
0145066200999992010011707004+47683+008617FM-12+043799999V0202401N007219999999N9999999N1+00431+00301101591ADDAA101000591MA1999999096281MD1510011+9999OA149901241REMSYN082AAXX  17074 06620 23/// /2414 10043 20030 39628 40159 55001 333 69955 91124 91214;
