0140066200999992011010100004+47683+008617FM-12+043799999V0200401N001519999999N9999999N1-00011-00081102441ADDMA1999999097001MD1810111+9999OA149900411REMSYN088AAXX  01004 06620 33/// /0403 11001 21008 39700 40244 58011 333 55300 20000 91108 91206;
0140066200999992011010101004+47683+008617FM-12+043799999V0200601N000519999999N9999999N1+00001-00081102371ADDMA1999999096931MD1810161+9999OA149900261REMSYN088AAXX  01014 06620 33/// /0601 10000 21008 39693 40237 58016 333 55300 20000 91105 91204;
0140066200999992011010102004+47683+008617FM-12+043799999V0202101N000519999999N9999999N1+00011-00041102341ADDMA1999999096911MD1710141+9999OA149900151REMSYN088AAXX  01024 06620 33/// /2101 10001 21004 39691 40234 57014 333 55300 20000 91103 91203;
0216066200999992011010103004+47683+008617FM-12+043799999V0202401N00151010801CN0005001N1+00041+00001102311ADDAY101031AY201031GA1081+010801071GF108991999999012501999999MA1999999096881MD1710121+9999MW1501OA149900411REMSYN100AAXX  01034 06620 31605 82403 10004 20000 39688 40231 57012 75000 333 55300 20000 88736 91108 91206;
0140066200999992011010104004+47683+008617FM-12+043799999V0202401N000519999999N9999999N1+00021+00001102301ADDMA1999999096871MD1710061+9999OA149900261REMSYN088AAXX  01044 06620 33/// /2401 10002 20000 39687 40230 57006 333 55300 20000 91105 91203;
0140066200999992011010105004+47683+008617FM-12+043799999V0202101N001019999999N9999999N1+00031+00011102311ADDMA1999999096881MD1510031+9999OA149900261REMSYN088AAXX  01054 06620 33/// /2102 10003 20001 39688 40231 55003 333 55300 20000 91105 91203;
0289066200999992011010106004+47683+008617FM-12+043799999V0202301N002610001519N0001001N1+00011+00011102321ADDAL19900091AY141061AY221061GA1091+999999999GF109991091999999999999999GJ100009IA1279IA2999+00009KA1999N-00011MA1999999096891MD1110011+9999MW1491OA149900411REMSYN124AAXX  01064 06620 31/01 92305 10001 20001 39689 40232 51001 74942 333 21001 3/100 43/// 55000 55300 20000 70000 91108 91206;
0140066200999992011010107004+47683+008617FM-12+043799999V0202401N003619999999N9999999N1+00051-00051102331ADDMA1999999096901MD1210031+9999OA149900511REMSYN088AAXX  01074 06620 33/// /2407 10005 21005 39690 40233 52003 333 55300 20000 91110 91207;
0140066200999992011010108004+47683+008617FM-12+043799999V0202701N003619999999N9999999N1+00031-00041102361ADDMA1999999096931MD1219999+9999OA149900511REMSYN088AAXX  01084 06620 33/// /2707 10003 21004 39693 40236 52/// 333 55300 20004 91110 91208;
0157066200999992011010109004+47683+008617FM-12+043799999V0202601N003110003019N0003001N1+00031-00041102351ADDAY141031AY221031GA1091+999999999GF109991091999999999999999MA1999999096921MW1431REMSYN066AAXX  01094 06620 41/03 92606 10003 21004 39692 40235 5//// 74342;
0087066200999992011010110004+47683+008617FM-12+043799999V0202701N003119999999N9999999N1+00031-00041102351ADDMA1999999096921REMSYN060AAXX  01104 06620 43/// /2706 10003 21004 39692 40235 5////;
0140066200999992011010111004+47683+008617FM-12+043799999V0202601N003119999999N9999999N1+00041-00011102291ADDMA1999999096861MD1710071+9999OA149900461REMSYN088AAXX  01114 06620 33/// /2606 10004 21001 39686 40229 57007 333 55300 20227 91109 91207;
0167066200999992011010112004+47683+008617FM-12+043799999V0202601N003610210019N0060001N1+00091-00031102221ADDAY121061AY221061GA1081+021001071GF108991999999022501999999MA1999999096811MW1051REMSYN076AAXX  01124 06620 41856 82607 10009 21003 39681 40222 5//// 70522 333 88757;
0087066200999992011010113004+47683+008617FM-12+043799999V0202601N003619999999N9999999N1+00091-00031102171ADDMA1999999096761REMSYN060AAXX  01134 06620 43/// /2607 10009 21003 39676 40217 5////;
0087066200999992011010114004+47683+008617FM-12+043799999V0202601N003619999999N9999999N1+00081-00061102151ADDMA1999999096741REMSYN060AAXX  01144 06620 43/// /2607 10008 21006 39674 40215 5////;
0167066200999992011010115004+47683+008617FM-12+043799999V0202901N002110150019N0060001N1+00061-00091102191ADDAY121031AY221031GA1081+015001071GF108991999999017501999999MA1999999096771MW1051REMSYN076AAXX  01154 06620 41756 82904 10006 21009 39677 40219 5//// 70522 333 88750;
0087066200999992011010116004+47683+008617FM-12+043799999V0202501N000519999999N9999999N1+00051-00121102211ADDMA1999999096791REMSYN060AAXX  01164 06620 43/// /2501 10005 21012 39679 40221 5////;
0087066200999992011010117004+47683+008617FM-12+043799999V0200701N001019999999N9999999N1+00031-00101102221ADDMA1999999096801REMSYN060AAXX  01174 06620 43/// /0702 10003 21010 39680 40222 5////;
0179066200999992011010118004+47683+008617FM-12+043799999V0200401N002110150019N0030001N1+00011-00191102241ADDAY121061AY221061GA1081+015001071GF108991999999017501999999IA1259MA1999999096811MW1051REMSYN082AAXX  01184 06620 41730 80404 10001 21019 39681 40224 5//// 70522 333 41/// 88750;
0103066200999992011010119004+47683+008617FM-12+043799999V0209999C002119999999N9999999N1+00001-00241102261ADDMA1999999096831REMSYN076AAXX  01194 06620 33/// /0004 10000 21024 39683 40226 5//// 333 553// 20000;
0140066200999992011010120004+47683+008617FM-12+043799999V0203101N002119999999N9999999N1+00011-00251102241ADDMA1999999096811MD1010011+9999OA149900571REMSYN088AAXX  01204 06620 33/// /3104 10001 21025 39681 40224 50001 333 55300 20000 91111 91206;
0216066200999992011010121004+47683+008617FM-12+043799999V0202501N00051010801CN0030001N1-00011-00241102241ADDAY121031AY221031GA1081+010801071GF108991999999012501999999MA1999999096811MD1010001+9999MW1101OA149900571REMSYN100AAXX  01214 06620 31630 82501 11001 21024 39681 40224 50000 71022 333 55300 20000 88736 91111 91206;
0140066200999992011010122004+47683+008617FM-12+043799999V0202801N001519999999N9999999N1-00031-00131102201ADDMA1999999096771MD1710061+9999OA149900261REMSYN088AAXX  01224 06620 33/// /2803 11003 21013 39677 40220 57006 333 55300 20000 91105 91203;
0140066200999992011010123004+47683+008617FM-12+043799999V0202801N002619999999N9999999N1-00031-00191102181ADDMA1999999096751MD1710061+9999OA149900361REMSYN088AAXX  01234 06620 33/// /2805 11003 21019 39675 40218 57006 333 55300 20000 91107 91205;
0216066200999992011010200004+47683+008617FM-12+043799999V0202701N00261010801CN0030001N1-00031-00181102111ADDAY121061AY221061GA1081+010801071GF108991999999012501999999MA1999999096681MD1810131+9999MW1101OA149900621REMSYN100AAXX  02004 06620 31630 82705 11003 21018 39668 40211 58013 71022 333 55300 20000 88736 91112 91208;
0140066200999992011010201004+47683+008617FM-12+043799999V0202801N003119999999N9999999N1-00031-00181102081ADDMA1999999096651MD1810121+9999OA149900461REMSYN088AAXX  02014 06620 33/// /2806 11003 21018 39665 40208 58012 333 55300 20000 91109 91207;
0087066200999992011010202004+47683+008617FM-12+043799999V0202801N002619999999N9999999N1-00041-00161102121ADDMA1999999096691REMSYN060AAXX  02024 06620 43/// /2805 11004 21016 39669 40212 5////;
0167066200999992011010203004+47683+008617FM-12+043799999V0202701N002110108019N0030001N1-00041-00191102131ADDAY121031AY221031GA1081+010801071GF108991999999012501999999MA1999999096701MW1101REMSYN076AAXX  02034 06620 41630 82704 11004 21019 39670 40213 5//// 71022 333 88736;
0087066200999992011010204004+47683+008617FM-12+043799999V0202801N003119999999N9999999N1-00031-00181102131ADDMA1999999096701REMSYN060AAXX  02044 06620 43/// /2806 11003 21018 39670 40213 5////;
0087066200999992011010205004+47683+008617FM-12+043799999V0202701N002119999999N9999999N1-00041-00131102151ADDMA1999999096721REMSYN060AAXX  02054 06620 43/// /2704 11004 21013 39672 40215 5////;
0134066200999992011010206004+47683+008617FM-12+043799999V0202701N002119999999N9999999N1-00041-00161102161ADDIA2999-00109KA1999N-00051MA1999999096731REMSYN082AAXX  02064 06620 43/// /2704 11004 21016 39673 40216 5//// 333 21005 3/101 55000;
0140066200999992011010207004+47683+008617FM-12+043799999V0202801N002119999999N9999999N1-00031-00161102181ADDMA1999999096751MD1310051+9999OA149900361REMSYN088AAXX  02074 06620 33/// /2804 11003 21016 39675 40218 53005 333 55300 20000 91107 91205;
0140066200999992011010208004+47683+008617FM-12+043799999V0202801N001519999999N9999999N1-00041-00161102241ADDMA1999999096801MD1310081+9999OA149900311REMSYN088AAXX  02084 06620 33/// /2803 11004 21016 39680 40224 53008 333 55300 20007 91106 91205;
0216066200999992011010209004+47683+008617FM-12+043799999V0203401N00211003601CN0120001N1-00031-00131102291ADDAY171031AY221031GA1081+003601071GF108991999999004501999999MA1999999096851MD1310121+9999MW1681OA149900411REMSYN100AAXX  02094 06620 31462 83404 11003 21013 39685 40229 53012 76872 333 55300 20090 88712 91108 91206;
0140066200999992011010210004+47683+008617FM-12+043799999V0200401N002619999999N9999999N1+00051-00131102301ADDMA1999999096881MD1210131+9999OA149900411REMSYN088AAXX  02104 06620 33/// /0405 10005 21013 39688 40230 52013 333 55300 20270 91108 91205;
0140066200999992011010211004+47683+008617FM-12+043799999V0200301N004119999999N9999999N1+00141-00311102291ADDMA1999999096881MD1210081+9999OA149900721REMSYN088AAXX  02114 06620 33/// /0308 10014 21031 39688 40229 52008 333 55300 20511 91114 91208;
0140066200999992011010212004+47683+008617FM-12+043799999V0200301N003619999999N9999999N1+00151-00541102261ADDMA1999999096861MD1010011+9999OA149900721REMSYN088AAXX  02124 06620 33/// /0307 10015 21054 39686 40226 50001 333 55300 20630 91114 91208;
0140066200999992011010213004+47683+008617FM-12+043799999V0200101N002119999999N9999999N1+00201-00561102251ADDMA1999999096861MD1710021+9999OA149900671REMSYN088AAXX  02134 06620 33/// /0104 10020 21056 39686 40225 57002 333 55303 20788 91113 91208;
0103066200999992011010214004+47683+008617FM-12+043799999V0200401N004119999999N9999999N1+00141-00651102301ADDMA1999999096891REMSYN076AAXX  02144 06620 33/// /0408 10014 21065 39689 40230 5//// 333 553// 20497;
0140066200999992011010215004+47683+008617FM-12+043799999V0200201N002619999999N9999999N1+00101-00601102341ADDMA1999999096921MD1310061+9999OA149900721REMSYN088AAXX  02154 06620 33/// /0205 10010 21060 39692 40234 53006 333 55300 20245 91114 91208;
0140066200999992011010216004+47683+008617FM-12+043799999V0200201N003119999999N9999999N1+00031-00461102401ADDMA1999999096971MD1310111+9999OA149900571REMSYN088AAXX  02164 06620 33/// /0206 10003 21046 39697 40240 53011 333 55300 20036 91111 91206;
0140066200999992011010217004+47683+008617FM-12+043799999V0200201N004119999999N9999999N1+00001-00451102441ADDMA1999999097001MD1110111+9999OA149900671REMSYN088AAXX  02174 06620 33/// /0208 10000 21045 39700 40244 51011 333 55300 20000 91113 91208;
0247066200999992011010218004+47683+008617FM-12+043799999V0200301N00411011701CN0050001N1-00061-00501102481ADDAY121061AY221061GA1071+011701071GF107991999999012501999999IA1309KA1120M+00201MA1999999097021MD1110101+9999MW1101OA149900721REMSYN112AAXX  02184 06620 31650 70308 11006 21050 39702 40248 51010 71022 333 10020 42/// 55300 20000 87739 91114 91208;
0140066200999992011010219004+47683+008617FM-12+043799999V0200401N003119999999N9999999N1-00151-00551102531ADDMA1999999097051MD1310081+9999OA149900671REMSYN088AAXX  02194 06620 33/// /0406 11015 21055 39705 40253 53008 333 55300 20000 91113 91208;
0140066200999992011010220004+47683+008617FM-12+043799999V0200401N003619999999N9999999N1-00201-00561102571ADDMA1999999097081MD1110081+9999OA149900571REMSYN088AAXX  02204 06620 33/// /0407 11020 21056 39708 40257 51008 333 55300 20000 91111 91208;
0216066200999992011010221004+47683+008617FM-12+043799999V0200301N00361015001CN0030001N1-00321-00621102641ADDAY121031AY221031GA1071+015001071GF107991999999017501999999MA1999999097121MD1310101+9999MW1051OA149900671REMSYN100AAXX  02214 06620 31730 70307 11032 21062 39712 40264 53010 70522 333 55300 20000 87750 91113 91208;
0140066200999992011010222004+47683+008617FM-12+043799999V0200301N003619999999N9999999N1-00371-00661102661ADDMA1999999097131MD1110081+9999OA149900461REMSYN088AAXX  02224 06620 33/// /0307 11037 21066 39713 40266 51008 333 55300 20000 91109 91207;
0140066200999992011010223004+47683+008617FM-12+043799999V0200501N002619999999N9999999N1-00391-00721102661ADDMA1999999097131MD1110051+9999OA149900461REMSYN088AAXX  02234 06620 33/// /0505 11039 21072 39713 40266 51005 333 55300 20000 91109 91207;
0140066200999992011010300004+47683+008617FM-12+043799999V0200601N001019999999N9999999N1-00471-00701102661ADDMA1999999097111MD1810011+9999OA149900721REMSYN088AAXX  03004 06620 33/// /0602 11047 21070 39711 40266 58001 333 55300 20000 91114 91208;
0140066200999992011010301004+47683+008617FM-12+043799999V0201401N001019999999N9999999N1-00481-00721102631ADDMA1999999097081MD1810051+9999OA149900411REMSYN088AAXX  03014 06620 33/// /1402 11048 21072 39708 40263 58005 333 55300 20000 91108 91204;
0140066200999992011010302004+47683+008617FM-12+043799999V0200401N002619999999N9999999N1-00581-00791102681ADDMA1999999097111MD1519999+9999OA149900261REMSYN088AAXX  03024 06620 33/// /0405 11058 21079 39711 40268 55/// 333 55300 20000 91105 91205;
0167066200999992011010303004+47683+008617FM-12+043799999V0200401N002612200019N0020001N1-00671-00861102691ADDAY141031AY211031GA1031+030001031GF103991999999999999999999MA1999999097101MW1051REMSYN076AAXX  03034 06620 41920 30405 11067 21086 39710 40269 5//// 70541 333 83360;
0140066200999992011010304004+47683+008617FM-12+043799999V0203601N002119999999N9999999N1-00651-00851102701ADDMA1999999097111MD1210031+9999OA149900311REMSYN088AAXX  03044 06620 33/// /3604 11065 21085 39711 40270 52003 333 55300 20000 91106 91205;
0140066200999992011010305004+47683+008617FM-12+043799999V0200101N001519999999N9999999N1-00631-00811102681ADDMA1999999097101MD1710011+9999OA149900261REMSYN088AAXX  03054 06620 33/// /0103 11063 21081 39710 40268 57001 333 55300 20000 91105 91205;
0283066200999992011010306004+47683+008617FM-12+043799999V0200301N000512200019N0050001N1-00691-00881102711ADDAL19900091AY101061AY201061GA1001+999999999GF100991001001999999001001GJ100309IA1149IA2999-00909KA1999N-00681MA1999999097111MD1210011+9999MW1051OA149900571REMSYN118AAXX  03064 06620 31/50 00301 11069 21088 39711 40271 52001 70500 333 21068 34109 55005 55300 20000 70000 91111 91208;
0140066200999992011010307004+47683+008617FM-12+043799999V0200901N002119999999N9999999N1-00711-00781102711ADDMA1999999097111MD1510001+9999OA149900411REMSYN088AAXX  03074 06620 33/// /0904 11071 21078 39711 40271 55000 333 55300 20000 91108 91207;
0140066200999992011010308004+47683+008617FM-12+043799999V0200601N002619999999N9999999N1-00681-00771102741ADDMA1999999097141MD1219999+9999OA149900411REMSYN088AAXX  03084 06620 33/// /0605 11068 21077 39714 40274 52/// 333 55300 20036 91108 91207;
0103066200999992011010309004+47683+008617FM-12+043799999V0200801N002119999999N9999999N1-00581-00701102721ADDMA1999999097151REMSYN076AAXX  03094 06620 33/// /0804 11058 21070 39715 40272 5//// 333 553// 20284;
0140066200999992011010310004+47683+008617FM-12+043799999V0200901N001519999999N9999999N1-00531-00631102731ADDMA1999999097171MD1210061+9999OA149900461REMSYN088AAXX  03104 06620 33/// /0903 11053 21063 39717 40273 52006 333 55300 20353 91109 91204;
0140066200999992011010311004+47683+008617FM-12+043799999V0200801N002619999999N9999999N1-00381-00611102641ADDMA1999999097111MD1810031+9999OA149900511REMSYN088AAXX  03114 06620 33/// /0805 11038 21061 39711 40264 58003 333 55307 20950 91110 91205;
0216066200999992011010312004+47683+008617FM-12+043799999V0200901N00151021001CN0080001N1-00301-00541102551ADDAY111061AY211061GA1051+021001061GF106991999999022501999999MA1999999097041MD1710111+9999MW1051OA149900511REMSYN100AAXX  03124 06620 31858 60903 11030 21054 39704 40255 57011 70511 333 553// 2//// 85657 91110 91207;
0140066200999992011010313004+47683+008617FM-12+043799999V0201001N001019999999N9999999N1-00191-00521102491ADDMA1999999097011MD1610161+9999OA149900411REMSYN088AAXX  03134 06620 33/// /1002 11019 21052 39701 40249 56016 333 553// 2//// 91108 91204;
0103066200999992011010314004+47683+008617FM-12+043799999V0201101N001519999999N9999999N1-00181-00531102471ADDMA1999999096991REMSYN076AAXX  03144 06620 33/// /1103 11018 21053 39699 40247 5//// 333 553// 20835;
0103066200999992011010315004+47683+008617FM-12+043799999V0201101N001519999999N9999999N1-00181-00521102471ADDMA1999999096991REMSYN076AAXX  03154 06620 33/// /1103 11018 21052 39699 40247 5//// 333 553// 20400;
0140066200999992011010316004+47683+008617FM-12+043799999V0200901N001519999999N9999999N1-00241-00521102461ADDMA1999999096971MD1710041+9999OA149900361REMSYN088AAXX  03164 06620 33/// /0903 11024 21052 39697 40246 57004 333 55300 20032 91107 91205;
0140066200999992011010317004+47683+008617FM-12+043799999V0200301N002619999999N9999999N1-00361-00581102461ADDMA1999999096951MD1810041+9999OA149900311REMSYN088AAXX  03174 06620 33/// /0305 11036 21058 39695 40246 58004 333 55300 20000 91106 91205;
0247066200999992011010318004+47683+008617FM-12+043799999V0200501N003612200019N0060001N1-00481-00591102491ADDAY101061AY201061GA1021+013801061GF102991999999012501999999IA1259KA1120M-00121MA1999999096951MD1710041+9999MW1051OA149900511REMSYN112AAXX  03184 06620 31656 20507 11048 21059 39695 40249 57004 70500 333 11012 41/// 55300 20000 82646 91110 91207;
0140066200999992011010319004+47683+008617FM-12+043799999V0200401N003119999999N9999999N1-00521-00721102491ADDMA1999999096941MD1710031+9999OA149900461REMSYN088AAXX  03194 06620 33/// /0406 11052 21072 39694 40249 57003 333 55300 20000 91109 91207;
0140066200999992011010320004+47683+008617FM-12+043799999V0200301N003119999999N9999999N1-00531-00711102471ADDMA1999999096921MD1710031+9999OA149900461REMSYN088AAXX  03204 06620 33/// /0306 11053 21071 39692 40247 57003 333 55300 20000 91109 91207;
0140066200999992011010321004+47683+008617FM-12+043799999V0200301N003119999999N9999999N1-00581-00751102451ADDMA1999999096891MD1710061+9999OA149900461REMSYN088AAXX  03214 06620 33/// /0306 11058 21075 39689 40245 57006 333 55300 20000 91109 91207;
0140066200999992011010322004+47683+008617FM-12+043799999V0200101N003619999999N9999999N1-00631-00771102461ADDMA1999999096891MD1710051+9999OA149900461REMSYN088AAXX  03224 06620 33/// /0107 11063 21077 39689 40246 57005 333 55300 20000 91109 91208;
0140066200999992011010323004+47683+008617FM-12+043799999V0200401N001519999999N9999999N1-00621-00811102451ADDMA1999999096881MD1710041+9999OA149900511REMSYN088AAXX  03234 06620 33/// /0403 11062 21081 39688 40245 57004 333 55300 20000 91110 91208;
0140066200999992011010400004+47683+008617FM-12+043799999V0200201N002119999999N9999999N1-00621-00781102431ADDMA1999999096861MD1710031+9999OA149900511REMSYN088AAXX  04004 06620 33/// /0204 11062 21078 39686 40243 57003 333 55300 20000 91110 91208;
0140066200999992011010401004+47683+008617FM-12+043799999V0202701N001519999999N9999999N1-00641-00761102401ADDMA1999999096831MD1710061+9999OA149900411REMSYN088AAXX  04014 06620 33/// /2703 11064 21076 39683 40240 57006 333 55300 20000 91108 91207;
0140066200999992011010402004+47683+008617FM-12+043799999V0202301N001019999999N9999999N1-00601-00781102391ADDMA1999999096831MD1719999+9999OA149900311REMSYN088AAXX  04024 06620 33/// /2302 11060 21078 39683 40239 57/// 333 55300 20000 91106 91204;
0216066200999992011010403004+47683+008617FM-12+043799999V0200401N002112200019N0060001N1-00611-00781102371ADDAY101031AY201031GA1031+013801061GF103991999999012501999999MA1999999096811MD1710051+9999MW1051OA149900511REMSYN100AAXX  04034 06620 31656 30404 11061 21078 39681 40237 57005 70500 333 55300 20000 83646 91110 91208;
0140066200999992011010404004+47683+008617FM-12+043799999V0200601N003119999999N9999999N1-00581-00761102321ADDMA1999999096771MD1710061+9999OA149900361REMSYN088AAXX  04044 06620 33/// /0606 11058 21076 39677 40232 57006 333 55300 20000 91107 91206;
0140066200999992011010405004+47683+008617FM-12+043799999V0200601N003119999999N9999999N1-00551-00741102291ADDMA1999999096751MD1810081+9999OA149900411REMSYN088AAXX  04054 06620 33/// /0606 11055 21074 39675 40229 58008 333 55300 20000 91108 91207;
0295066200999992011010406004+47683+008617FM-12+043799999V0200401N00261005701CN0015001N1-00541-00751102251ADDAL19900091AY121061AY221061GA1081+005701071GF108991999999004501999999GJ103129IA1279IA2999-00909KA1999N-00671MA1999999096711MD1810101+9999MW1051OA149900511REMSYN130AAXX  04064 06620 31415 80405 11054 21075 39671 40225 58010 70522 333 21067 3/109 43/// 55052 55300 20000 70000 88719 91110 91208;
0140066200999992011010407004+47683+008617FM-12+043799999V0200601N002119999999N9999999N1-00521-00721102221ADDMA1999999096691MD1710081+9999OA149900461REMSYN088AAXX  04074 06620 33/// /0604 11052 21072 39669 40222 57008 333 55300 20000 91109 91207;
0140066200999992011010408004+47683+008617FM-12+043799999V0200501N002119999999N9999999N1-00501-00701102221ADDMA1999999096691MD1519999+9999OA149900461REMSYN088AAXX  04084 06620 33/// /0504 11050 21070 39669 40222 55/// 333 55300 20007 91109 91207;
0163066200999992011010409004+47683+008617FM-12+043799999V0200801N002619999999N0010001N1-00501-00711102221ADDAY121031AY221031GF108991999999004501999999MA1999999096691MW1051REMSYN088AAXX  04094 06620 31410 80805 11050 21071 39669 40222 5//// 70522 333 553// 20072 88719;
0140066200999992011010410004+47683+008617FM-12+043799999V0200701N002119999999N9999999N1-00431-00671102231ADDMA1999999096711MD1310021+9999OA149900411REMSYN088AAXX  04104 06620 33/// /0704 11043 21067 39671 40223 53002 333 55300 20367 91108 91206;
0140066200999992011010411004+47683+008617FM-12+043799999V0200601N002119999999N9999999N1-00391-00691102141ADDMA1999999096641MD1710051+9999OA149900411REMSYN088AAXX  04114 06620 33/// /0604 11039 21069 39664 40214 57005 333 55300 20403 91108 91205;
0140066200999992011010412004+47683+008617FM-12+043799999V0201001N001019999999N9999999N1-00361-00671102051ADDMA1999999096561MD1710131+9999OA149900461REMSYN088AAXX  04124 06620 33/// /1002 11036 21067 39656 40205 57013 333 55300 20428 91109 91207;
0140066200999992011010413004+47683+008617FM-12+043799999V0200901N001519999999N9999999N1-00361-00691102011ADDMA1999999096521MD1710191+9999OA149900261REMSYN088AAXX  04134 06620 33/// /0903 11036 21069 39652 40201 57019 333 55301 20515 91105 91203;
0103066200999992011010414004+47683+008617FM-12+043799999V0201101N001019999999N9999999N1-00311-00621101981ADDMA1999999096501REMSYN076AAXX  04144 06620 33/// /1102 11031 21062 39650 40198 5//// 333 553// 20360;
0087066200999992011010415004+47683+008617FM-12+043799999V0200501N001019999999N9999999N1-00311-00611101941ADDMA1999999096461REMSYN060AAXX  04154 06620 43/// /0502 11031 21061 39646 40194 5////;
0140066200999992011010416004+47683+008617FM-12+043799999V0201101N001019999999N9999999N1-00321-00591101941ADDMA1999999096461MD1710061+9999OA149900261REMSYN088AAXX  04164 06620 33/// /1102 11032 21059 39646 40194 57006 333 55300 20036 91105 91203;
0140066200999992011010417004+47683+008617FM-12+043799999V0200501N001519999999N9999999N1-00321-00591101931ADDMA1999999096451MD1710051+9999OA149900261REMSYN088AAXX  04174 06620 33/// /0503 11032 21059 39645 40193 57005 333 55300 20000 91105 91203;
0183066200999992011010418004+47683+008617FM-12+043799999V0203601N001019999999N0050001N1-00331-00591101951ADDIA1019KA1120M-00281MA1999999096471MD1510011+9999MW1001OA149900461REMSYN106AAXX  04184 06620 31/50 /3602 11033 21059 39647 40195 55001 700// 333 11028 30/// 55300 20000 91109 91207;
0159066200999992011010419004+47683+008617FM-12+043799999V0200801N000519999999N9999999N1-00331-00581101941ADDMA1999999096461MD1410001+9999OA149900311REMSYN088AAXX  04194 06620 33/// /0801 11033 21058 39646 40194 52000 333 55300 20000 91106 91205;EQDQ01+000022APCTEN
0140066200999992011010420004+47683+008617FM-12+043799999V0209999C000019999999N9999999N1-00341-00571101921ADDMA1999999096441MD1710011+9999OA149900211REMSYN088AAXX  04204 06620 33/// /0000 11034 21057 39644 40192 57001 333 55300 20000 91104 91203;
0210066200999992011010421004+47683+008617FM-12+043799999V0202801N001010003019N0005001N1-00341-00581101911ADDAY121031AY221031GA1091+999999999GF109991091999999999999999MA1999999096431MD1710041+9999MW1471OA149900311REMSYN094AAXX  04214 06620 31/05 92802 11034 21058 39643 40191 57004 74722 333 55300 20000 91106 91205;
0140066200999992011010422004+47683+008617FM-12+043799999V0202101N001019999999N9999999N1-00331-00551101901ADDMA1999999096421MD1710041+9999OA149900151REMSYN088AAXX  04224 06620 33/// /2102 11033 21055 39642 40190 57004 333 55300 20000 91103 91202;
0140066200999992011010423004+47683+008617FM-12+043799999V0201801N000519999999N9999999N1-00321-00531101881ADDMA1999999096401MD1710041+9999OA149900151REMSYN088AAXX  04234 06620 33/// /1801 11032 21053 39640 40188 57004 333 55300 20000 91103 91202;
0210066200999992011010500004+47683+008617FM-12+043799999V0202201N001010003019N0005001N1-00321-00511101851ADDAY121061AY221061GA1091+999999999GF109991091999999999999999MA1999999096381MD1710051+9999MW1451OA149900311REMSYN094AAXX  05004 06620 31/05 92202 11032 21051 39638 40185 57005 74522 333 55300 20000 91106 91205;
0140066200999992011010501004+47683+008617FM-12+043799999V0202301N001519999999N9999999N1-00321-00521101841ADDMA1999999096371MD1810051+9999OA149900211REMSYN088AAXX  05014 06620 33/// /2303 11032 21052 39637 40184 58005 333 55300 20000 91104 91203;
0140066200999992011010502004+47683+008617FM-12+043799999V0202601N002119999999N9999999N1-00351-00561101841ADDMA1999999096361MD1710041+9999OA149900311REMSYN088AAXX  05024 06620 33/// /2604 11035 21056 39636 40184 57004 333 55300 20000 91106 91204;
0087066200999992011010503004+47683+008617FM-12+043799999V0202701N002619999999N9999999N1-00351-00561101841ADDMA1999999096361REMSYN060AAXX  05034 06620 43/// /2705 11035 21056 39636 40184 5////;
0140066200999992011010504004+47683+008617FM-12+043799999V0202701N002119999999N9999999N1-00421-00581101831ADDMA1999999096341MD1710031+9999OA149900411REMSYN088AAXX  05044 06620 33/// /2704 11042 21058 39634 40183 57003 333 55300 20000 91108 91207;
0140066200999992011010505004+47683+008617FM-12+043799999V0202801N002119999999N9999999N1-00411-00591101811ADDMA1999999096321MD1710041+9999OA149900411REMSYN088AAXX  05054 06620 33/// /2804 11041 21059 39632 40181 57004 333 55300 20000 91108 91207;
0295066200999992011010506004+47683+008617FM-12+043799999V0202701N002612200019N0030001N1-00401-00601101821ADDAL19900091AY111061AY211061GA1041+015001071GF104991999999017501999999GJ100069IA1259IA2999-00609KA1999N-00441MA1999999096331MD1510031+9999MW1051OA149900411REMSYN130AAXX  05064 06620 31730 42705 11040 21060 39633 40182 55003 70511 333 21044 3/106 41/// 55001 55300 20000 70000 84750 91108 91207;
0140066200999992011010507004+47683+008617FM-12+043799999V0209999C000019999999N9999999N1-00431-00601101811ADDMA1999999096321MD1710021+9999OA149900361REMSYN088AAXX  05074 06620 33/// /0000 11043 21060 39632 40181 57002 333 55300 20000 91107 91206;
0140066200999992011010508004+47683+008617FM-12+043799999V0200301N000519999999N9999999N1-00421-00601101811ADDMA1999999096321MD1219999+9999OA149900311REMSYN088AAXX  05084 06620 33/// /0301 11042 21060 39632 40181 52/// 333 55300 20036 91106 91205;
0216066200999992011010509004+47683+008617FM-12+043799999V0200601N00151015001CN0060001N1-00371-00541101791ADDAY121031AY221031GA1081+015001071GF108991999999017501999999MA1999999096311MD1710021+9999MW1051OA149900411REMSYN100AAXX  05094 06620 31756 80603 11037 21054 39631 40179 57002 70522 333 55302 20270 88750 91108 91207;
0140066200999992011010510004+47683+008617FM-12+043799999V0200701N001019999999N9999999N1-00251-00501101741ADDMA1999999096291MD1810031+9999OA149900261REMSYN088AAXX  05104 06620 33/// /0702 11025 21050 39629 40174 58003 333 55307 20742 91105 91203;
0140066200999992011010511004+47683+008617FM-12+043799999V0201101N001019999999N9999999N1-00171-00501101651ADDMA1999999096221MD1710101+9999OA149900311REMSYN088AAXX  05114 06620 33/// /1102 11017 21050 39622 40165 57010 333 553// 2//// 91106 91203;
0135066200999992011010512004+47683+008617FM-12+043799999V0201301N001012200019N0200001N1-00071-00491101551ADDGF103991999999999999999999MA1999999096141REMSYN082AAXX  05124 06620 32970 31302 11007 21049 39614 40155 5//// 333 553// 2//// 83080;
0140066200999992011010513004+47683+008617FM-12+043799999V0201601N000519999999N9999999N1-00011-00481101481ADDMA1999999096091MD1610201+9999OA149900261REMSYN088AAXX  05134 06620 33/// /1601 11001 21048 39609 40148 56020 333 553// 2//// 91105 91202;
0087066200999992011010514004+47683+008617FM-12+043799999V0201501N000519999999N9999999N1+00011-00451101471ADDMA1999999096081REMSYN060AAXX  05144 06620 43/// /1501 10001 21045 39608 40147 5////;
0087066200999992011010515004+47683+008617FM-12+043799999V0200801N001519999999N9999999N1-00031-00481101431ADDMA1999999096041REMSYN060AAXX  05154 06620 43/// /0803 11003 21048 39604 40143 5////;
0140066200999992011010516004+47683+008617FM-12+043799999V0200701N002119999999N9999999N1-00111-00441101411ADDMA1999999096001MD1710091+9999OA149900361REMSYN088AAXX  05164 06620 33/// /0704 11011 21044 39600 40141 57009 333 55300 20043 91107 91205;
0140066200999992011010517004+47683+008617FM-12+043799999V0200401N003119999999N9999999N1-00221-00481101451ADDMA1999999096021MD1510061+9999OA149900361REMSYN088AAXX  05174 06620 33/// /0406 11022 21048 39602 40145 55006 333 55300 20000 91107 91206;
0247066200999992011010518004+47683+008617FM-12+043799999V0200501N002612200019N0080001N1-00271-00501101431ADDAY101061AY201061GA1031+075001001GF103991999999999999999999IA1259KA1120M+00051MA1999999095991MD1719999+9999MW1051OA149900411REMSYN112AAXX  05184 06620 31958 30505 11027 21050 39599 40143 57/// 70500 333 10005 41/// 55300 20000 83075 91108 91207;
0140066200999992011010519004+47683+008617FM-12+043799999V0200501N002119999999N9999999N1-00231-00481101401ADDMA1999999095971MD1710031+9999OA149900411REMSYN088AAXX  05194 06620 33/// /0504 11023 21048 39597 40140 57003 333 55300 20000 91108 91207;
0140066200999992011010520004+47683+008617FM-12+043799999V0201101N001019999999N9999999N1-00301-00511101361ADDMA1999999095921MD1719999+9999OA149900261REMSYN088AAXX  05204 06620 33/// /1102 11030 21051 39592 40136 57/// 333 55300 20000 91105 91204;
0163066200999992011010521004+47683+008617FM-12+043799999V0200301N001019999999N0100001N1-00361-00541101341ADDAY111031AY211031GF105991999999999999999999MA1999999095891MW1051REMSYN088AAXX  05214 06620 31960 50302 11036 21054 39589 40134 5//// 70511 333 553// 20000 85365;
0140066200999992011010522004+47683+008617FM-12+043799999V0200601N001519999999N9999999N1-00391-00561101331ADDMA1999999095871MD1710101+9999OA149900311REMSYN088AAXX  05224 06620 33/// /0603 11039 21056 39587 40133 57010 333 55300 20000 91106 91203;
0140066200999992011010523004+47683+008617FM-12+043799999V0200601N003119999999N9999999N1-00381-00551101291ADDMA1999999095831MD1719999+9999OA149900411REMSYN088AAXX  05234 06620 33/// /0606 11038 21055 39583 40129 57/// 333 55300 20000 91108 91207;
0167066200999992011010600004+47683+008617FM-12+043799999V0200201N001510006019N0020001N1-00431-00561101241ADDAY111061AY211061GA1081+000601071GF108991999999000751999999MA1999999095781MW1051REMSYN076AAXX  06004 06620 41120 80203 11043 21056 39578 40124 5//// 70511 333 88702;
0087066200999992011010601004+47683+008617FM-12+043799999V0202501N000519999999N9999999N1-00421-00551101181ADDMA1999999095721REMSYN060AAXX  06014 06620 43/// /2501 11042 21055 39572 40118 5////;
0087066200999992011010602004+47683+008617FM-12+043799999V0203001N001519999999N9999999N1-00331-00501101131ADDMA1999999095691REMSYN060AAXX  06024 06620 43/// /3003 11033 21050 39569 40113 5////;
0167066200999992011010603004+47683+008617FM-12+043799999V0202301N001010036019N0020001N1-00291-00471101101ADDAY121031AY221031GA1081+003601071GF108991999999004501999999MA1999999095671MW1581REMSYN076AAXX  06034 06620 41420 82302 11029 21047 39567 40110 5//// 75822 333 88712;
0087066200999992011010604004+47683+008617FM-12+043799999V0202501N002619999999N9999999N1-00271-00431101061ADDMA1999999095641REMSYN060AAXX  06044 06620 43/// /2505 11027 21043 39564 40106 5////;
0087066200999992011010605004+47683+008617FM-12+043799999V0202401N004119999999N9999999N1-00181-00261101011ADDMA1999999095611REMSYN060AAXX  06054 06620 43/// /2408 11018 21026 39561 40101 5////;
0224066200999992011010606004+47683+008617FM-12+043799999V0202301N003110108019N0020001N1+00031-00121100991ADDAY121061AY221061GA1081+010801051GF108991999999012501999999GJ103429IA1169IA2999-00609KA1999N-00431MA1999999095631MW1671REMSYN094AAXX  06064 06620 41620 82306 10003 21012 39563 40099 5//// 76722 333 21043 35106 55057 88536;
0087066200999992011010607004+47683+008617FM-12+043799999V0202101N001519999999N9999999N1+00091+00011101011ADDMA1999999095661REMSYN060AAXX  06074 06620 43/// /2103 10009 20001 39566 40101 5////;
0109066200999992011010608004+47683+008617FM-12+043799999V0202101N003119999999N9999999N1+00151+00061100941ADDMA1999999095611REMSYN082AAXX  06084 06620 23/// /2106 10015 20006 39561 40094 5//// 333 553// 20014 69915;
0087066200999992011010609004+47683+008617FM-12+043799999V0202201N001019999999N9999999N1+00121+00071100981ADDMA1999999095641REMSYN060AAXX  06094 06620 43/// /2202 10012 20007 39564 40098 5////;
0140066200999992011010610004+47683+008617FM-12+043799999V0201801N001519999999N9999999N1+00251+00161100951ADDMA1999999095641MD1510021+9999OA149900461REMSYN088AAXX  06104 06620 33/// /1803 10025 20016 39564 40095 55002 333 55303 20662 91109 91206;
0146066200999992011010611004+47683+008617FM-12+043799999V0202301N001019999999N9999999N1+00321+00251100921ADDMA1999999095621MD1010011+9999OA149900361REMSYN094AAXX  06114 06620 23/// /2302 10032 20025 39562 40092 50001 333 55300 20464 69945 91107 91203;
0239066200999992011010612004+47683+008617FM-12+043799999V0202101N00411005701CN0100001N1+00471+00331100851ADDAA106001091AY161061AY221061GA1081+005701071GF108991999999004501999999MA1999999095581MD1710061+9999MW1631OA149900721REMSYN112AAXX  06124 06620 01460 82108 10047 20033 39558 40085 57006 60011 76362 333 55300 20450 69965 88719 91114 91209;
0146066200999992011010613004+47683+008617FM-12+043799999V0202101N002619999999N9999999N1+00521+00401100801ADDMA1999999095551MD1710091+9999OA149900721REMSYN094AAXX  06134 06620 23/// /2105 10052 20040 39555 40080 57009 333 55300 20367 69975 91114 91209;
0087066200999992011010614004+47683+008617FM-12+043799999V0202201N003619999999N9999999N1+00531+00411100791ADDMA1999999095541REMSYN060AAXX  06144 06620 43/// /2207 10053 20041 39554 40079 5////;
0087066200999992011010615004+47683+008617FM-12+043799999V0202101N003619999999N9999999N1+00521+00431100831ADDMA1999999095571REMSYN060AAXX  06154 06620 43/// /2107 10052 20043 39557 40083 5////;
0146066200999992011010616004+47683+008617FM-12+043799999V0202201N006219999999N9999999N1+00551+00421100811ADDMA1999999095561MD1210011+9999OA149901131REMSYN094AAXX  06164 06620 23/// /2212 10055 20042 39556 40081 52001 333 55300 20011 69995 91122 91213;
0146066200999992011010617004+47683+008617FM-12+043799999V0202101N006219999999N9999999N1+00561+00451100871ADDMA1999999095621MD1210081+9999OA149901131REMSYN094AAXX  06174 06620 23/// /2112 10056 20045 39562 40087 52008 333 55300 20000 60025 91122 91213;
0270066200999992011010618004+47683+008617FM-12+043799999V0202101N00461005701CN0100001N1+00561+00461100911ADDAA112006191AY161061AY221061GA1081+005701071GF108991999999004501999999IA1099KA1120M+00581MA1999999095661MD1210091+9999MW1621OA149901131REMSYN124AAXX  06184 06620 01460 82109 10056 20046 39566 40091 52009 60062 76262 333 10058 31/// 55300 20000 69955 88719 91122 91213;
0146066200999992011010619004+47683+008617FM-12+043799999V0202001N004119999999N9999999N1+00551+00471100961ADDMA1999999095701MD1210141+9999OA149900881REMSYN094AAXX  06194 06620 23/// /2008 10055 20047 39570 40096 52014 333 55300 20000 69975 91117 91212;
0146066200999992011010620004+47683+008617FM-12+043799999V0202001N004619999999N9999999N1+00601+00501101011ADDMA1999999095761MD1219999+9999OA149900721REMSYN094AAXX  06204 06620 23/// /2009 10060 20050 39576 40101 52/// 333 55300 20000 60015 91114 91209;
0222066200999992011010621004+47683+008617FM-12+043799999V0202201N00511003601CN0020001N1+00621+00501101021ADDAY121031AY221031GA1081+003601071GF108991999999004501999999MA1999999095771MD1219999+9999MW1611OA149901131REMSYN106AAXX  06214 06620 21420 82210 10062 20050 39577 40102 52/// 76122 333 55300 20000 69925 88712 91122 91213;
0146066200999992011010622004+47683+008617FM-12+043799999V0202301N006719999999N9999999N1+00621+00511101071ADDMA1999999095821MD1210121+9999OA149901031REMSYN094AAXX  06224 06620 23/// /2313 10062 20051 39582 40107 52012 333 55300 20000 60015 91120 91213;
0109066200999992011010623004+47683+008617FM-12+043799999V0202301N005119999999N9999999N1+00661+00551101091ADDMA1999999095851REMSYN082AAXX  06234 06620 23/// /2310 10066 20055 39585 40109 5//// 333 553// 20000 69955;
0167066200999992011010700004+47683+008617FM-12+043799999V0202201N005110057019N0030001N1+00671+00541101121ADDAY161061AY221061GA1081+005701071GF108991999999004501999999MA1999999095881MW1211REMSYN076AAXX  07004 06620 41430 82210 10067 20054 39588 40112 5//// 72162 333 88719;
0087066200999992011010701004+47683+008617FM-12+043799999V0202301N004619999999N9999999N1+00651+00561101171ADDMA1999999095921REMSYN060AAXX  07014 06620 43/// /2309 10065 20056 39592 40117 5////;
0087066200999992011010702004+47683+008617FM-12+043799999V0202401N004619999999N9999999N1+00581+00511101191ADDMA1999999095931REMSYN060AAXX  07024 06620 43/// /2409 10058 20051 39593 40119 5////;
0157066200999992011010703004+47683+008617FM-12+043799999V0202401N003110003019N0005001N1+00501+00441101241ADDAY151031AY221031GA1091+999999999GF109991091999999999999999MA1999999095961MW1471REMSYN066AAXX  07034 06620 41/05 92406 10050 20044 39596 40124 5//// 74752;
0140066200999992011010704004+47683+008617FM-12+043799999V0202001N002119999999N9999999N1+00491+00451101291ADDMA1999999096001MD1210081+9999OA149900671REMSYN088AAXX  07044 06620 33/// /2004 10049 20045 39600 40129 52008 333 55300 20000 91113 91209;
0140066200999992011010705004+47683+008617FM-12+043799999V0202201N001519999999N9999999N1+00471+00421101321ADDMA1999999096031MD1210101+9999OA149900361REMSYN088AAXX  07054 06620 33/// /2203 10047 20042 39603 40132 52010 333 55300 20000 91107 91205;
0230066200999992011010706004+47683+008617FM-12+043799999V0202001N002619999999N9999999N1+00641+00581101341ADDAA112005191AL14801091GJ100189IA2999+00209KA1999N+00411MA1999999096081MD1310121+9999OA149901031REMSYN124AAXX  07064 06620 03/// /2005 10064 20058 39608 40134 53012 60052 333 20041 3/002 55003 55300 20000 69955 70109 91120 91213;
0146066200999992011010707004+47683+008617FM-12+043799999V0202301N001519999999N9999999N1+00431+00391101421ADDMA1999999096121MD1110121+9999OA149900411REMSYN094AAXX  07074 06620 23/// /2303 10043 20039 39612 40142 51012 333 55300 20000 69945 91108 91205;
0109066200999992011010708004+47683+008617FM-12+043799999V0201101N001019999999N9999999N1+00561+00481101371ADDMA1999999096091REMSYN082AAXX  07084 06620 23/// /1102 10056 20048 39609 40137 5//// 333 553// 20029 69915;
0141066200999992011010709004+47683+008617FM-12+043799999V0200501N002610003019N0003001N1+00481+00441101381ADDGA1091+999999999GF109991091999999999999999MA1999999096091MW1471REMSYN066AAXX  07094 06620 41/03 90505 10048 20044 39609 40138 5//// 747//;
0140066200999992011010710004+47683+008617FM-12+043799999V0200801N000519999999N9999999N1+00631+00561101361ADDMA1999999096101MD1710021+9999OA149900361REMSYN088AAXX  07104 06620 33/// /0801 10063 20056 39610 40136 57002 333 55300 20184 91107 91206;
0140066200999992011010711004+47683+008617FM-12+043799999V0200401N001019999999N9999999N1+00651+00581101361ADDMA1999999096101MD1410001+9999OA149900311REMSYN088AAXX  07114 06620 33/// /0402 10065 20058 39610 40136 54001 333 55300 20342 91106 91206;
0163066200999992011010712004+47683+008617FM-12+043799999V0201601N000519999999N9999999N1+00631+00581101311ADDAA106000591MA1999999096051MD1810041+9999OA149900881REMSYN100AAXX  07124 06620 03/// /1601 10063 20058 39605 40131 58004 69951 333 55300 20205 60005 91117 91210;
0140066200999992011010713004+47683+008617FM-12+043799999V0202601N001019999999N9999999N1+00671+00611101281ADDMA1999999096031MD1710071+9999OA149900311REMSYN088AAXX  07134 06620 33/// /2602 10067 20061 39603 40128 57007 333 55300 20338 91106 91204;
0087066200999992011010714004+47683+008617FM-12+043799999V0202801N001519999999N9999999N1+00711+00631101261ADDMA1999999096021REMSYN060AAXX  07144 06620 43/// /2803 10071 20063 39602 40126 5////;
0087066200999992011010715004+47683+008617FM-12+043799999V0202901N002619999999N9999999N1+00641+00581101311ADDMA1999999096051REMSYN060AAXX  07154 06620 43/// /2905 10064 20058 39605 40131 5////;
0140066200999992011010716004+47683+008617FM-12+043799999V0200201N000519999999N9999999N1+00641+00571101341ADDMA1999999096081MD1210051+9999OA149900411REMSYN088AAXX  07164 06620 33/// /0201 10064 20057 39608 40134 52005 333 55300 20007 91108 91205;
0146066200999992011010717004+47683+008617FM-12+043799999V0202701N002119999999N9999999N1+00571+00511101381ADDMA1999999096101MD1110081+9999OA149900361REMSYN094AAXX  07174 06620 23/// /2704 10057 20051 39610 40138 51008 333 55300 20000 69935 91107 91205;
0145066200999992011010718004+47683+008617FM-12+043799999V0202701N005119999999N9999999N1+00501+00471101421ADDAA112002091KA1120M+00721MA1999999096131REMSYN094AAXX  07184 06620 03/// /2710 10050 20047 39613 40142 5//// 60022 333 10072 553// 20000 60015;
0146066200999992011010719004+47683+008617FM-12+043799999V0202701N003119999999N9999999N1+00561+00501101391ADDMA1999999096111MD1019999+9999OA149900671REMSYN094AAXX  07194 06620 23/// /2706 10056 20050 39611 40139 50/// 333 55300 20000 69945 91113 91210;
0087066200999992011010720004+47683+008617FM-12+043799999V0203601N000519999999N9999999N1+00541+00491101361ADDMA1999999096081REMSYN060AAXX  07204 06620 43/// /3601 10054 20049 39608 40136 5////;
0157066200999992011010721004+47683+008617FM-12+043799999V0202901N001010003019N0002001N1+00491+00461101381ADDAY161031AY241031GA1091+999999999GF109991091999999999999999MA1999999096091MW1471REMSYN066AAXX  07214 06620 41/02 92902 10049 20046 39609 40138 5//// 74764;
0140066200999992011010722004+47683+008617FM-12+043799999V0200501N004119999999N9999999N1+00541+00481101381ADDMA1999999096101MD1510011+9999OA149900461REMSYN088AAXX  07224 06620 33/// /0508 10054 20048 39610 40138 55001 333 55300 20000 91109 91208;
0103066200999992011010723004+47683+008617FM-12+043799999V0200501N004119999999N9999999N1+00561+00501101401ADDMA1999999096121REMSYN076AAXX  07234 06620 33/// /0508 10056 20050 39612 40140 5//// 333 553// 20000;
0196066200999992011010800004+47683+008617FM-12+043799999V0200401N002610003019N0004001N1+00491+00451101421ADDAA106000591AY161061AY241061GA1091+999999999GF109991091999999999999999MA1999999096131MW1431REMSYN094AAXX  08004 06620 01/04 90405 10049 20045 39613 40142 5//// 69951 74364 333 553// 20000 60005;
0087066200999992011010801004+47683+008617FM-12+043799999V0200601N003119999999N9999999N1+00471+00421101431ADDMA1999999096131REMSYN060AAXX  08014 06620 43/// /0606 10047 20042 39613 40143 5////;
0087066200999992011010802004+47683+008617FM-12+043799999V0209999C001019999999N9999999N1+00471+00431101461ADDMA1999999096161REMSYN060AAXX  08024 06620 43/// /0002 10047 20043 39616 40146 5////;
0087066200999992011010803004+47683+008617FM-12+043799999V0200601N000519999999N9999999N1+00461+00421101421ADDMA1999999096121REMSYN060AAXX  08034 06620 43/// /0601 10046 20042 39612 40142 5////;
0087066200999992011010804004+47683+008617FM-12+043799999V0202701N005719999999N9999999N1+00521+00461101451ADDMA1999999096161REMSYN060AAXX  08044 06620 43/// /2711 10052 20046 39616 40145 5////;
0087066200999992011010805004+47683+008617FM-12+043799999V0202501N004119999999N9999999N1+00481+00421101501ADDMA1999999096201REMSYN060AAXX  08054 06620 43/// /2508 10048 20042 39620 40150 5////;
0224066200999992011010806004+47683+008617FM-12+043799999V0202401N004110006019N0015001N1+00581+00521101491ADDAY161061AY261061GA1081+000601071GF108991999999000751999999GJ100009IA1119IA2999+00309KA1999N+00401MA1999999096211MW1611REMSYN094AAXX  08064 06620 41115 82408 10058 20052 39621 40149 5//// 76166 333 20040 32003 55000 88702;
0087066200999992011010807004+47683+008617FM-12+043799999V0202001N002119999999N9999999N1+00511+00481101581ADDMA1999999096281REMSYN060AAXX  08074 06620 43/// /2004 10051 20048 39628 40158 5////;
0109066200999992011010808004+47683+008617FM-12+043799999V0200601N002119999999N9999999N1+00531+00481101601ADDMA1999999096311REMSYN082AAXX  08084 06620 23/// /0604 10053 20048 39631 40160 5//// 333 553// 20000 69935;
0167066200999992011010809004+47683+008617FM-12+043799999V0200201N002110108019N0050001N1+00621+00571101541ADDAY161031AY221031GA1061+010801061GF106991999999012501999999MA1999999096271MW1101REMSYN076AAXX  08094 06620 41650 60204 10062 20057 39627 40154 5//// 71062 333 86636;
0087066200999992011010810004+47683+008617FM-12+043799999V0200601N001019999999N9999999N1+00811+00711101511ADDMA1999999096271REMSYN060AAXX  08104 06620 43/// /0602 10081 20071 39627 40151 5////;
0087066200999992011010811004+47683+008617FM-12+043799999V0201101N000519999999N9999999N1+00851+00731101471ADDMA1999999096241REMSYN060AAXX  08114 06620 43/// /1101 10085 20073 39624 40147 5////;
0087066200999992011010812004+47683+008617FM-12+043799999V0202301N000519999999N9999999N1+00761+00701101441ADDMA1999999096201REMSYN060AAXX  08124 06620 43/// /2301 10076 20070 39620 40144 5////;
0087066200999992011010813004+47683+008617FM-12+043799999V0202101N002119999999N9999999N1+00761+00731101381ADDMA1999999096141REMSYN060AAXX  08134 06620 43/// /2104 10076 20073 39614 40138 5////;
0087066200999992011010814004+47683+008617FM-12+043799999V0202201N003119999999N9999999N1+00761+00731101361ADDMA1999999096121REMSYN060AAXX  08144 06620 43/// /2206 10076 20073 39612 40136 5////;
0087066200999992011010815004+47683+008617FM-12+043799999V0202301N004619999999N9999999N1+00661+00661101401ADDMA1999999096141REMSYN060AAXX  08154 06620 43/// /2309 10066 20066 39614 40140 5////;
0087066200999992011010816004+47683+008617FM-12+043799999V0202401N003619999999N9999999N1+00591+00591101441ADDMA1999999096171REMSYN060AAXX  08164 06620 43/// /2407 10059 20059 39617 40144 5////;
0087066200999992011010817004+47683+008617FM-12+043799999V0202501N002619999999N9999999N1+00611+00531101411ADDMA1999999096141REMSYN060AAXX  08174 06620 43/// /2505 10061 20053 39614 40141 5////;
0173066200999992011010818004+47683+008617FM-12+043799999V0202301N001010003019N0003001N1+00531+00461101431ADDAY141061AY221061GA1091+999999999GF109991091999999999999999IA1259MA1999999096141MW1451REMSYN076AAXX  08184 06620 41/03 92302 10053 20046 39614 40143 5//// 74542 333 41///;
0087066200999992011010819004+47683+008617FM-12+043799999V0200801N001019999999N9999999N1+00491+00431101431ADDMA1999999096141REMSYN060AAXX  08194 06620 43/// /0802 10049 20043 39614 40143 5////;
0087066200999992011010820004+47683+008617FM-12+043799999V0200801N001019999999N9999999N1+00471+00391101431ADDMA1999999096131REMSYN060AAXX  08204 06620 43/// /0802 10047 20039 39613 40143 5////;
0157066200999992011010821004+47683+008617FM-12+043799999V0200601N003110001519N0001001N1+00431+00361101421ADDAY141031AY241031GA1091+999999999GF109991091999999999999999MA1999999096121MW1451REMSYN066AAXX  08214 06620 41/01 90606 10043 20036 39612 40142 5//// 74544;
0087066200999992011010822004+47683+008617FM-12+043799999V0203501N001519999999N9999999N1+00411+00341101431ADDMA1999999096121REMSYN060AAXX  08224 06620 43/// /3503 10041 20034 39612 40143 5////;
0087066200999992011010823004+47683+008617FM-12+043799999V0203401N000519999999N9999999N1+00341+00291101401ADDMA1999999096081REMSYN060AAXX  08234 06620 43/// /3401 10034 20029 39608 40140 5////;
0087066200999992011010900004+47683+008617FM-12+043799999V0200101N000519999999N9999999N1+00371+00311101371ADDMA1999999096061REMSYN060AAXX  09004 06620 43/// /0101 10037 20031 39606 40137 5////;
0087066200999992011010901004+47683+008617FM-12+043799999V0202501N003119999999N9999999N1+00331+00271101411ADDMA1999999096091REMSYN060AAXX  09014 06620 43/// /2506 10033 20027 39609 40141 5////;
0087066200999992011010902004+47683+008617FM-12+043799999V0201901N002119999999N9999999N1+00131+00121101461ADDMA1999999096101REMSYN060AAXX  09024 06620 43/// /1904 10013 20012 39610 40146 5////;
0157066200999992011010903004+47683+008617FM-12+043799999V0202501N002610001519N0000001N1+00151+00121101431ADDAY141031AY241031GA1091+999999999GF109991091999999999999999MA1999999096071MW1431REMSYN066AAXX  09034 06620 41/00 92505 10015 20012 39607 40143 5//// 74344;
0087066200999992011010904004+47683+008617FM-12+043799999V0201501N001519999999N9999999N1+00161+00111101431ADDMA1999999096071REMSYN060AAXX  09044 06620 43/// /1503 10016 20011 39607 40143 5////;
0087066200999992011010905004+47683+008617FM-12+043799999V0201501N001519999999N9999999N1+00131+00081101411ADDMA1999999096051REMSYN060AAXX  09054 06620 43/// /1503 10013 20008 39605 40141 5////;
0097066200999992011010906004+47683+008617FM-12+043799999V0202201N001019999999N9999999N1+00191+00131101371ADDMA1999999096021REMSYN070AAXX  09064 06620 43/// /2202 10019 20013 39602 40137 5//// 333 55006;
0087066200999992011010907004+47683+008617FM-12+043799999V0202601N001019999999N9999999N1+00231+00181101391ADDMA1999999096051REMSYN060AAXX  09074 06620 43/// /2602 10023 20018 39605 40139 5////;
0103066200999992011010908004+47683+008617FM-12+043799999V0202801N002119999999N9999999N1+00261+00211101431ADDMA1999999096091REMSYN076AAXX  09084 06620 33/// /2804 10026 20021 39609 40143 5//// 333 553// 20022;
0103066200999992011010909004+47683+008617FM-12+043799999V0202601N004119999999N9999999N1+00221+00171101491ADDMA1999999096141REMSYN076AAXX  09094 06620 33/// /2608 10022 20017 39614 40149 5//// 333 553// 20126;
0140066200999992011010910004+47683+008617FM-12+043799999V0202801N002119999999N9999999N1+00341+00261101541ADDMA1999999096211MD1310161+9999OA149900621REMSYN088AAXX  09104 06620 33/// /2804 10034 20026 39621 40154 53016 333 55301 20382 91112 91208;
0140066200999992011010911004+47683+008617FM-12+043799999V0202901N003119999999N9999999N1+00441+00351101511ADDMA1999999096201MD1210111+9999OA149900571REMSYN088AAXX  09114 06620 33/// /2906 10044 20035 39620 40151 52011 333 55300 20230 91111 91207;
0239066200999992011010912004+47683+008617FM-12+043799999V0202501N00211010801CN0100001N1+00581+00481101491ADDAA106000021AY121061AY221061GA1081+010801071GF108991999999012501999999MA1999999096211MD1010071+9999MW1521OA149900621REMSYN112AAXX  09124 06620 01660 82504 10058 20048 39621 40149 50007 69921 75222 333 55300 20198 69925 88736 91112 91208;
0146066200999992011010913004+47683+008617FM-12+043799999V0202801N006719999999N9999999N1+00591+00481101471ADDMA1999999096191MD1710021+9999OA149900821REMSYN094AAXX  09134 06620 23/// /2813 10059 20048 39619 40147 57002 333 55300 20144 69985 91116 91213;
0087066200999992011010914004+47683+008617FM-12+043799999V0202701N005719999999N9999999N1+00731+00621101471ADDMA1999999096221REMSYN060AAXX  09144 06620 43/// /2711 10073 20062 39622 40147 5////;
0167066200999992011010915004+47683+008617FM-12+043799999V0202701N008210087019N0100001N1+00741+00591101491ADDAY161031AY221031GA1081+008701071GF108991999999008001999999MA1999999096241MW1631REMSYN076AAXX  09154 06620 41560 82716 10074 20059 39624 40149 5//// 76362 333 88729;
0146066200999992011010916004+47683+008617FM-12+043799999V0202101N004619999999N9999999N1+00671+00591101551ADDMA1999999096281MD1210091+9999OA149901291REMSYN094AAXX  09164 06620 23/// /2109 10067 20059 39628 40155 52009 333 55300 20000 69955 91125 91216;
0146066200999992011010917004+47683+008617FM-12+043799999V0202201N003619999999N9999999N1+00661+00601101611ADDMA1999999096341MD1310121+9999OA149901291REMSYN094AAXX  09174 06620 23/// /2207 10066 20060 39634 40161 53012 333 55300 20000 69935 91125 91214;
0270066200999992011010918004+47683+008617FM-12+043799999V0202501N00311007801CN0080001N1+00671+00601101661ADDAA112007191AY161061AY221061GA1081+007801071GF108991999999008001999999IA1259KA1120M+00741MA1999999096391MD1210151+9999MW1611OA149901391REMSYN124AAXX  09184 06620 01558 82506 10067 20060 39639 40166 52015 60072 76162 333 10074 41/// 55300 20000 69985 88726 91127 91217;
0146066200999992011010919004+47683+008617FM-12+043799999V0202601N003119999999N9999999N1+00631+00571101701ADDMA1999999096421MD1110141+9999OA149900571REMSYN094AAXX  09194 06620 23/// /2606 10063 20057 39642 40170 51014 333 55300 20000 60015 91111 91208;
0146066200999992011010920004+47683+008617FM-12+043799999V0202401N003119999999N9999999N1+00631+00571101751ADDMA1999999096471MD1110131+9999OA149900511REMSYN094AAXX  09204 06620 23/// /2406 10063 20057 39647 40175 51013 333 55300 20000 69985 91110 91207;
0146066200999992011010921004+47683+008617FM-12+043799999V0202301N003119999999N9999999N1+00641+00581101791ADDMA1999999096511MD1310121+9999OA149901291REMSYN094AAXX  09214 06620 23/// /2306 10064 20058 39651 40179 53012 333 55300 20000 69985 91125 91214;
0146066200999992011010922004+47683+008617FM-12+043799999V0202401N002119999999N9999999N1+00631+00581101841ADDMA1999999096551MD1110131+9999OA149900511REMSYN094AAXX  09224 06620 23/// /2404 10063 20058 39655 40184 51013 333 55300 20000 69965 91110 91207;
0146066200999992011010923004+47683+008617FM-12+043799999V0202601N003619999999N9999999N1+00631+00561101891ADDMA1999999096601MD1310131+9999OA149900511REMSYN094AAXX  09234 06620 23/// /2607 10063 20056 39660 40189 53013 333 55300 20000 60025 91110 91207;
0239066200999992011011000004+47683+008617FM-12+043799999V0200501N00211010801CN0030001N1+00561+00461101951ADDAA106007191AY121061AY221061GA1081+010801071GF108991999999012501999999MA1999999096641MD1110131+9999MW1101OA149901391REMSYN112AAXX  10004 06620 01630 80504 10056 20046 39664 40195 51013 60071 71022 333 55300 20000 60025 88736 91127 91217;
0146066200999992011011001004+47683+008617FM-12+043799999V0200401N002619999999N9999999N1+00491+00421102011ADDMA1999999096691MD1210141+9999OA149900461REMSYN094AAXX  10014 06620 23/// /0405 10049 20042 39669 40201 52014 333 55300 20000 60025 91109 91206;
0109066200999992011011002004+47683+008617FM-12+043799999V0200401N003619999999N9999999N1+00441+00311102091ADDMA1999999096751REMSYN082AAXX  10024 06620 23/// /0407 10044 20031 39675 40209 5//// 333 553// 20000 60015;
0087066200999992011011003004+47683+008617FM-12+043799999V0200301N004119999999N9999999N1+00371+00281102141ADDMA1999999096791REMSYN060AAXX  10034 06620 43/// /0308 10037 20028 39679 40214 5////;
0103066200999992011011004004+47683+008617FM-12+043799999V0200501N003119999999N9999999N1+00331+00221102181ADDMA1999999096821REMSYN076AAXX  10044 06620 33/// /0506 10033 20022 39682 40218 5//// 333 553// 20000;
0140066200999992011011005004+47683+008617FM-12+043799999V0200601N003619999999N9999999N1+00291+00211102211ADDMA1999999096841MD1219999+9999OA149900621REMSYN088AAXX  10054 06620 33/// /0607 10029 20021 39684 40221 52/// 333 55300 20000 91112 91208;
0159066200999992011011006004+47683+008617FM-12+043799999V0200501N003619999999N9999999N1+00251+00141102241ADDAA124017891GJ100069IA2999+00209KA1999N+00241MA1999999096861REMSYN088AAXX  10064 06620 43/// /0507 10025 20014 39686 40224 5//// 333 20024 3/002 55001 70177;
0140066200999992011011007004+47683+008617FM-12+043799999V0200601N004119999999N9999999N1+00231+00101102291ADDMA1999999096901MD1310081+9999OA149900671REMSYN088AAXX  10074 06620 33/// /0608 10023 20010 39690 40229 53008 333 55300 20000 91113 91208;
0087066200999992011011008004+47683+008617FM-12+043799999V0200401N004119999999N9999999N1+00241+00141102311ADDMA1999999096921REMSYN060AAXX  10084 06620 43/// /0408 10024 20014 39692 40231 5////;
0167066200999992011011009004+47683+008617FM-12+043799999V0200501N003610057019N0050001N1+00271+00131102321ADDAY151031AY221031GA1081+005701071GF108991999999004501999999MA1999999096941MW1101REMSYN076AAXX  10094 06620 41450 80507 10027 20013 39694 40232 5//// 71052 333 88719;
0140066200999992011011010004+47683+008617FM-12+043799999V0200501N003119999999N9999999N1+00281+00111102331ADDMA1999999096951MD1210051+9999OA149900721REMSYN088AAXX  10104 06620 33/// /0506 10028 20011 39695 40233 52005 333 55300 20166 91114 91208;
0140066200999992011011011004+47683+008617FM-12+043799999V0200501N002619999999N9999999N1+00321+00121102271ADDMA1999999096901MD1819999+9999OA149900671REMSYN088AAXX  10114 06620 33/// /0505 10032 20012 39690 40227 58/// 333 55300 20396 91113 91208;
0118066200999992011011012004+47683+008617FM-12+043799999V02099999999999999999N9999999N1+99999+99999999999ADDAA106000091REMSYN076AAXX  10124 06620 13/// ///// 1//// 2//// 3//// 5//// 69911 333 553// 20482;EQDQ01  00002PRCP06
0146066200999992011011015004+47683+008617FM-12+043799999V02099999999990078019N0050001N1+99999+99999999999ADDAY151031AY251031GA1081+007801071GF108991999999008001999999MW1101REMSYN070AAXX  10154 06620 41550 8//// 1//// 2//// 3//// 5//// 71055 333 88726;
0146066200999992011011021004+47683+008617FM-12+043799999V02099999999990027019N0080001N1+99999+99999999999ADDAY151031AY251031GA1081+002701071GF108991999999002501999999MW1101REMSYN070AAXX  10214 06620 41358 8//// 1//// 2//// 3//// 5//// 71055 333 88709;
0146066200999992011011100004+47683+008617FM-12+043799999V02099999999990018019N0050001N1+99999+99999999999ADDAY121061AY221061GA1081+001801071GF108991999999001501999999MW1101REMSYN070AAXX  11004 06620 41250 8//// 1//// 2//// 3//// 5//// 71022 333 88706;
0146066200999992011011103004+47683+008617FM-12+043799999V02099999999990027019N0040001N1+99999+99999999999ADDAY121031AY221031GA1081+002701071GF108991999999002501999999MW1101REMSYN070AAXX  11034 06620 41340 8//// 1//// 2//// 3//// 5//// 71022 333 88709;
0140066200999992011011111004+47683+008617FM-12+043799999V0202201N001519999999N9999999N1+00411+00191101221ADDMA1999999095921MD1819999+9999OA149900361REMSYN088AAXX  11114 06620 33/// /2203 10041 20019 39592 40122 58/// 333 55300 20518 91107 91203;
0163066200999992011011112004+47683+008617FM-12+043799999V0201901N002119999999N0060001N1+00541+00201101101ADDAY121061AY221061GF107991999999017501999999MA1999999095831MW1101REMSYN088AAXX  11124 06620 31756 71904 10054 20020 39583 40110 5//// 71022 333 553// 20943 87656;
0140066200999992011011113004+47683+008617FM-12+043799999V0201801N001519999999N9999999N1+00571+00231101021ADDMA1999999095761MD1619999+9999OA149900461REMSYN088AAXX  11134 06620 33/// /1803 10057 20023 39576 40102 56/// 333 55300 20540 91109 91205;
0087066200999992011011114004+47683+008617FM-12+043799999V0202401N003119999999N9999999N1+00601+00221101061ADDMA1999999095811REMSYN060AAXX  11144 06620 43/// /2406 10060 20022 39581 40106 5////;
0167066200999992011011115004+47683+008617FM-12+043799999V0202501N006210150019N0040001N1+00451+00251101181ADDAY121031AY221031GA1081+015001071GF108991999999017501999999MA1999999095891MW1501REMSYN076AAXX  11154 06620 41740 82512 10045 20025 39589 40118 5//// 75022 333 88750;
0146066200999992011011116004+47683+008617FM-12+043799999V0202501N004619999999N9999999N1+00401+00261101261ADDMA1999999095961MD1210201+9999OA149901181REMSYN094AAXX  11164 06620 23/// /2509 10040 20026 39596 40126 52020 333 55300 20004 60015 91123 91212;
0146066200999992011011117004+47683+008617FM-12+043799999V0202301N004119999999N9999999N1+00401+00321101341ADDMA1999999096031MD1210211+9999OA149900981REMSYN094AAXX  11174 06620 23/// /2308 10040 20032 39603 40134 52021 333 55300 20000 60015 91119 91211;
0270066200999992011011118004+47683+008617FM-12+043799999V0202301N00621010801CN0020001N1+00391+00251101411ADDAA112003091AY121061AY221061GA1081+010801071GF108991999999012501999999IA1119KA1120M+00601MA1999999096101MD1110211+9999MW1631OA149901181REMSYN124AAXX  11184 06620 01620 82312 10039 20025 39610 40141 51021 60032 76322 333 10060 32/// 55300 20000 60005 88736 91123 91212;
0140066200999992011011119004+47683+008617FM-12+043799999V0202301N004119999999N9999999N1+00381+00291101511ADDMA1999999096191MD1310231+9999OA149900981REMSYN088AAXX  11194 06620 33/// /2308 10038 20029 39619 40151 53023 333 55300 20000 91119 91212;
0140066200999992011011120004+47683+008617FM-12+043799999V0202401N003119999999N9999999N1+00371+00301101581ADDMA1999999096261MD1110231+9999OA149900931REMSYN088AAXX  11204 06620 33/// /2406 10037 20030 39626 40158 51023 333 55300 20000 91118 91210;
0216066200999992011011121004+47683+008617FM-12+043799999V0202201N00261009601CN0020001N1+00391+00301101681ADDAY161031AY261031GA1081+009601071GF108991999999008001999999MA1999999096351MD1210251+9999MW1621OA149900981REMSYN100AAXX  11214 06620 31520 82205 10039 20030 39635 40168 52025 76266 333 55300 20000 88732 91119 91212;
0140066200999992011011122004+47683+008617FM-12+043799999V0202201N003619999999N9999999N1+00401+00321101761ADDMA1999999096431MD1310241+9999OA149900671REMSYN088AAXX  11224 06620 33/// /2207 10040 20032 39643 40176 53024 333 55300 20000 91113 91209;
0140066200999992011011123004+47683+008617FM-12+043799999V0202101N004119999999N9999999N1+00431+00331101781ADDMA1999999096461MD1210201+9999OA149900721REMSYN088AAXX  11234 06620 33/// /2108 10043 20033 39646 40178 52020 333 55300 20000 91114 91209;
0140066200999992011011200004+47683+008617FM-12+043799999V0202301N004119999999N9999999N1+00461+00351101831ADDMA1999999096511MD1210161+9999OA149901181REMSYN088AAXX  12004 06620 33/// /2308 10046 20035 39651 40183 52016 333 55300 20000 91123 91212;
0146066200999992011011201004+47683+008617FM-12+043799999V0202501N004119999999N9999999N1+00451+00371101861ADDMA1999999096541MD1210111+9999OA149900721REMSYN094AAXX  12014 06620 23/// /2508 10045 20037 39654 40186 52011 333 55300 20000 69915 91114 91209;
0103066200999992011011202004+47683+008617FM-12+043799999V0202501N003619999999N9999999N1+00471+00381101951ADDMA1999999096631REMSYN076AAXX  12024 06620 33/// /2507 10047 20038 39663 40195 5//// 333 553// 20000;
0087066200999992011011203004+47683+008617FM-12+043799999V0202501N004619999999N9999999N1+00471+00391102011ADDMA1999999096681REMSYN060AAXX  12034 06620 43/// /2509 10047 20039 39668 40201 5////;
0087066200999992011011204004+47683+008617FM-12+043799999V0202501N006219999999N9999999N1+00541+00381102021ADDMA1999999096711REMSYN060AAXX  12044 06620 43/// /2512 10054 20038 39671 40202 5////;
0103066200999992011011205004+47683+008617FM-12+043799999V0202501N006219999999N9999999N1+00531+00331102121ADDMA1999999096801REMSYN076AAXX  12054 06620 33/// /2512 10053 20033 39680 40212 5//// 333 553// 20000;
0251066200999992011011206004+47683+008617FM-12+043799999V0202501N003110210019N0030001N1+00451+00271102231ADDAA124003091AL10600391AY161061AY221061GA1051+021001061GF105991999999022501999999GJ100189IA1119IA2999+00309KA1999N+00371MA1999999096891MW1101REMSYN100AAXX  12064 06620 41830 52506 10045 20027 39689 40223 5//// 71062 333 20037 32003 55003 70031 85657;
0140066200999992011011207004+47683+008617FM-12+043799999V0202301N004119999999N9999999N1+00431+00251102311ADDMA1999999096961MD1110251+9999OA149901031REMSYN088AAXX  12074 06620 33/// /2308 10043 20025 39696 40231 51025 333 55300 20000 91120 91211;
0087066200999992011011208004+47683+008617FM-12+043799999V0202601N004119999999N9999999N1+00461+00231102301ADDMA1999999096961REMSYN060AAXX  12084 06620 43/// /2608 10046 20023 39696 40230 5////;
0087066200999992011011209004+47683+008617FM-12+043799999V0202601N005719999999N9999999N1+00461+00231102341ADDMA1999999096991REMSYN060AAXX  12094 06620 43/// /2611 10046 20023 39699 40234 5////;
0140066200999992011011210004+47683+008617FM-12+043799999V0202601N006719999999N9999999N1+00511+00231102351ADDMA1999999097011MD1219999+9999OA149901081REMSYN088AAXX  12104 06620 33/// /2613 10051 20023 39701 40235 52/// 333 55300 20284 91121 91213;
0140066200999992011011211004+47683+008617FM-12+043799999V0202501N006719999999N9999999N1+00531+00161102311ADDMA1999999096981MD1810021+9999OA149901181REMSYN088AAXX  12114 06620 33/// /2513 10053 20016 39698 40231 58002 333 55300 20364 91123 91214;
0087066200999992011011212004+47683+008617FM-12+043799999V0202501N005719999999N9999999N1+00521+00151102321ADDMA1999999096991REMSYN060AAXX  12124 06620 43/// /2511 10052 20015 39699 40232 5////;
0087066200999992011011213004+47683+008617FM-12+043799999V0202401N004119999999N9999999N1+00531+00191102271ADDMA1999999096941REMSYN060AAXX  12134 06620 43/// /2408 10053 20019 39694 40227 5////;
0087066200999992011011214004+47683+008617FM-12+043799999V0202501N006219999999N9999999N1+00521+00181102271ADDMA1999999096941REMSYN060AAXX  12144 06620 43/// /2512 10052 20018 39694 40227 5////;
0087066200999992011011215004+47683+008617FM-12+043799999V0202501N006219999999N9999999N1+00441+00251102301ADDMA1999999096951REMSYN060AAXX  12154 06620 43/// /2512 10044 20025 39695 40230 5////;
0146066200999992011011216004+47683+008617FM-12+043799999V0202301N005719999999N9999999N1+00421+00311102301ADDMA1999999096951MD1210011+9999OA149901031REMSYN094AAXX  12164 06620 23/// /2311 10042 20031 39695 40230 52001 333 55300 20000 69935 91120 91213;
0140066200999992011011217004+47683+008617FM-12+043799999V0202401N007219999999N9999999N1+00491+00301102241ADDMA1999999096901MD1810041+9999OA149901031REMSYN088AAXX  12174 06620 33/// /2414 10049 20030 39690 40224 58004 333 55300 20000 91120 91214;
0182066200999992011011218004+47683+008617FM-12+043799999V0202301N004619999999N9999999N1+00511+00331102221ADDAA112000891KA1120M+00541MA1999999096891MD1710061+9999OA149901291REMSYN106AAXX  12184 06620 03/// /2309 10051 20033 39689 40222 57006 69972 333 10054 55300 20000 60005 91125 91214;
0140066200999992011011219004+47683+008617FM-12+043799999V0202501N005719999999N9999999N1+00531+00321102211ADDMA1999999096881MD1710071+9999OA149901081REMSYN088AAXX  12194 06620 33/// /2511 10053 20032 39688 40221 57007 333 55300 20000 91121 91213;
0140066200999992011011220004+47683+008617FM-12+043799999V0202501N006219999999N9999999N1+00531+00331102191ADDMA1999999096861MD1710041+9999OA149900981REMSYN088AAXX  12204 06620 33/// /2512 10053 20033 39686 40219 57004 333 55300 20000 91119 91212;
0140066200999992011011221004+47683+008617FM-12+043799999V0202301N006219999999N9999999N1+00571+00341102181ADDMA1999999096861MD1510031+9999OA149901081REMSYN088AAXX  12214 06620 33/// /2312 10057 20034 39686 40218 55003 333 55300 20000 91121 91214;
0146066200999992011011222004+47683+008617FM-12+043799999V0202301N005719999999N9999999N1+00551+00411102161ADDMA1999999096841MD1710041+9999OA149900981REMSYN094AAXX  12224 06620 23/// /2311 10055 20041 39684 40216 57004 333 55300 20000 69915 91119 91214;
0146066200999992011011223004+47683+008617FM-12+043799999V0202501N006219999999N9999999N1+00591+00501102161ADDMA1999999096851MD1710011+9999OA149900981REMSYN094AAXX  12234 06620 23/// /2512 10059 20050 39685 40216 57001 333 55300 20000 69985 91119 91212;
0163066200999992011011300004+47683+008617FM-12+043799999V0202301N006219999999N9999999N1+00621+00521102111ADDAA106002091MA1999999096811MD1710051+9999OA149901131REMSYN100AAXX  13004 06620 03/// /2312 10062 20052 39681 40211 57005 60021 333 55300 20000 60015 91122 91214;
0146066200999992011011301004+47683+008617FM-12+043799999V0202501N005119999999N9999999N1+00621+00521102081ADDMA1999999096781MD1710061+9999OA149900881REMSYN094AAXX  13014 06620 23/// /2510 10062 20052 39678 40208 57006 333 55300 20000 69945 91117 91213;
0146066200999992011011302004+47683+008617FM-12+043799999V0202401N006219999999N9999999N1+00661+00531102061ADDMA1999999096771MD1719999+9999OA149900931REMSYN094AAXX  13024 06620 23/// /2412 10066 20053 39677 40206 57/// 333 55300 20000 69925 91118 91212;
0087066200999992011011303004+47683+008617FM-12+043799999V0202301N005719999999N9999999N1+00681+00571102041ADDMA1999999096751REMSYN060AAXX  13034 06620 43/// /2311 10068 20057 39675 40204 5////;
0146066200999992011011304004+47683+008617FM-12+043799999V0202401N004119999999N9999999N1+00721+00601102021ADDMA1999999096741MD1819999+9999OA149901241REMSYN094AAXX  13044 06620 23/// /2408 10072 20060 39674 40202 58/// 333 55300 20000 69915 91124 91213;
0109066200999992011011305004+47683+008617FM-12+043799999V0202501N004619999999N9999999N1+00751+00651102021ADDMA1999999096751REMSYN082AAXX  13054 06620 23/// /2509 10075 20065 39675 40202 5//// 333 553// 20000 69955;
0312066200999992011011306004+47683+008617FM-12+043799999V0202401N00671005701CN0070001N1+00771+00691101991ADDAA112005191AL12400591AY161061AY221061GA1081+005701071GF108991999999004501999999GJ100009IA1119IA2999+00409KA1999N+00511MA1999999096721MD1710031+9999MW1631OA149901241REMSYN136AAXX  13064 06620 01457 82413 10077 20069 39672 40199 57003 60052 76362 333 20051 32004 55000 55300 20000 69915 70054 88719 91124 91214;
0087066200999992011011307004+47683+008617FM-12+043799999V0202401N005119999999N9999999N1+00781+00701102021ADDMA1999999096751REMSYN060AAXX  13074 06620 43/// /2410 10078 20070 39675 40202 5////;
0087066200999992011011308004+47683+008617FM-12+043799999V0202401N004619999999N9999999N1+00811+00691102041ADDMA1999999096781REMSYN060AAXX  13084 06620 43/// /2409 10081 20069 39678 40204 5////;
0167066200999992011011309004+47683+008617FM-12+043799999V0202501N005110057019N0100001N1+00841+00721102061ADDAY161031AY221031GA1081+005701071GF108991999999004501999999MA1999999096801MW1611REMSYN076AAXX  13094 06620 41460 82510 10084 20072 39680 40206 5//// 76162 333 88719;
0087066200999992011011310004+47683+008617FM-12+043799999V0202201N005119999999N9999999N1+00861+00741102091ADDMA1999999096831REMSYN060AAXX  13104 06620 43/// /2210 10086 20074 39683 40209 5////;
0087066200999992011011311004+47683+008617FM-12+043799999V0202401N003119999999N9999999N1+00901+00781102061ADDMA1999999096811REMSYN060AAXX  13114 06620 43/// /2406 10090 20078 39681 40206 5////;
0167066200999992011011312004+47683+008617FM-12+043799999V0202601N005710138019N0140001N1+00911+00771102041ADDAY161061AY261061GA1081+013801061GF108991999999012501999999MA1999999096791MW1101REMSYN076AAXX  13124 06620 41664 82611 10091 20077 39679 40204 5//// 71066 333 88646;
0087066200999992011011313004+47683+008617FM-12+043799999V0202501N005119999999N9999999N1+01051+00851101921ADDMA1999999096711REMSYN060AAXX  13134 06620 43/// /2510 10105 20085 39671 40192 5////;
0087066200999992011011314004+47683+008617FM-12+043799999V0202601N005719999999N9999999N1+01051+00781101981ADDMA1999999096761REMSYN060AAXX  13144 06620 43/// /2611 10105 20078 39676 40198 5////;
0167066200999992011011315004+47683+008617FM-12+043799999V0202501N006210240019N0080001N1+01101+00771101951ADDAY151031AY251031GA1081+024001071GF108991999999022501999999MA1999999096741MW1521REMSYN076AAXX  13154 06620 41858 82512 10110 20077 39674 40195 5//// 75255 333 88758;
0087066200999992011011316004+47683+008617FM-12+043799999V0202601N005119999999N9999999N1+01031+00771102001ADDMA1999999096781REMSYN060AAXX  13164 06620 43/// /2610 10103 20077 39678 40200 5////;
0140066200999992011011317004+47683+008617FM-12+043799999V0202601N005719999999N9999999N1+01031+00751102001ADDMA1999999096781MD1210021+9999OA149901131REMSYN088AAXX  13174 06620 33/// /2611 10103 20075 39678 40200 52002 333 55300 20000 91122 91212;
0182066200999992011011318004+47683+008617FM-12+043799999V0202601N005719999999N9999999N1+01011+00781102021ADDAA112002091KA1120M+01101MA1999999096791MD1210061+9999OA149901131REMSYN106AAXX  13184 06620 03/// /2611 10101 20078 39679 40202 52006 60022 333 10110 55300 20000 60005 91122 91212;
0140066200999992011011319004+47683+008617FM-12+043799999V0202501N005119999999N9999999N1+00981+00831102051ADDMA1999999096821MD1210041+9999OA149901081REMSYN088AAXX  13194 06620 33/// /2510 10098 20083 39682 40205 52004 333 55300 20000 91121 91213;
0140066200999992011011320004+47683+008617FM-12+043799999V0202601N006719999999N9999999N1+01071+00851102041ADDMA1999999096821MD1210041+9999OA149901291REMSYN088AAXX  13204 06620 33/// /2613 10107 20085 39682 40204 52004 333 55300 20000 91125 91213;
0140066200999992011011321004+47683+008617FM-12+043799999V0202501N007719999999N9999999N1+01081+00861102001ADDMA1999999096791MD1710021+9999OA149901541REMSYN088AAXX  13214 06620 33/// /2515 10108 20086 39679 40200 57000 333 55300 20000 91130 91217;
0140066200999992011011322004+47683+008617FM-12+043799999V0202501N007719999999N9999999N1+01061+00841102041ADDMA1999999096821MD1510001+9999OA149901541REMSYN088AAXX  13224 06620 33/// /2515 10106 20084 39682 40204 55000 333 55300 20000 91130 91217;
0146066200999992011011323004+47683+008617FM-12+043799999V0202501N007219999999N9999999N1+01041+00841102031ADDMA1999999096811MD1510011+9999OA149901491REMSYN094AAXX  13234 06620 23/// /2514 10104 20084 39681 40203 55001 333 55300 20000 69955 91129 91216;
0239066200999992011011400004+47683+008617FM-12+043799999V0202401N00671005701CN0060001N1+01051+00811102031ADDAA106000591AY161061AY221061GA1081+005701071GF108991999999004501999999MA1999999096811MD1010021+9999MW1101OA149901541REMSYN112AAXX  14004 06620 01456 82413 10105 20081 39681 40203 50002 69951 71062 333 55300 20000 60005 88719 91130 91217;
0140066200999992011011401004+47683+008617FM-12+043799999V0202401N006719999999N9999999N1+01031+00761102041ADDMA1999999096821MD1010001+9999OA149901391REMSYN088AAXX  14014 06620 33/// /2413 10103 20076 39682 40204 50000 333 55300 20000 91127 91216;
0103066200999992011011402004+47683+008617FM-12+043799999V0202401N006719999999N9999999N1+00951+00691102131ADDMA1999999096891REMSYN076AAXX  14024 06620 33/// /2413 10095 20069 39689 40213 5//// 333 553// 20000;
0140066200999992011011403004+47683+008617FM-12+043799999V0202201N006219999999N9999999N1+00881+00701102151ADDMA1999999096891MD1210081+9999OA149901491REMSYN088AAXX  14034 06620 33/// /2212 10088 20070 39689 40215 52008 333 55300 20000 91129 91216;
0140066200999992011011404004+47683+008617FM-12+043799999V0202201N006719999999N9999999N1+00861+00681102141ADDMA1999999096881MD1010061+9999OA149901131REMSYN088AAXX  14044 06620 33/// /2213 10086 20068 39688 40214 50006 333 55300 20000 91122 91215;
0140066200999992011011405004+47683+008617FM-12+043799999V0202101N005119999999N9999999N1+00821+00661102151ADDMA1999999096881MD1710011+9999OA149900931REMSYN088AAXX  14054 06620 33/// /2110 10082 20066 39688 40215 57001 333 55300 20000 91118 91213;
0312066200999992011011406004+47683+008617FM-12+043799999V0202101N003612200019N0030001N1+00861+00631102151ADDAA112000591AL14800291AY161061AY221061GA1041+024001031GF104991999999022501999999GJ100129IA1119IA2999+00709KA1999N+00821MA1999999096891MD1510001+9999MW1101OA149901541REMSYN136AAXX  14064 06620 01830 42107 10086 20063 39689 40215 55000 69952 71062 333 20082 32007 55002 55300 20000 60005 70029 84358 91130 91217;
0140066200999992011011407004+47683+008617FM-12+043799999V0202101N003619999999N9999999N1+00861+00631102181ADDMA1999999096921MD1210041+9999OA149900721REMSYN088AAXX  14074 06620 33/// /2107 10086 20063 39692 40218 52004 333 55300 20000 91114 91210;
0087066200999992011011408004+47683+008617FM-12+043799999V0202501N004119999999N9999999N1+00901+00621102201ADDMA1999999096941REMSYN060AAXX  14084 06620 43/// /2508 10090 20062 39694 40220 5////;
0167066200999992011011409004+47683+008617FM-12+043799999V0202201N002610108019N0050001N1+00891+00631102191ADDAY101031AY201031GA1071+010801061GF107991999999012501999999MA1999999096931MW1101REMSYN076AAXX  14094 06620 41650 72205 10089 20063 39693 40219 5//// 71000 333 87636;
0087066200999992011011410004+47683+008617FM-12+043799999V0202601N004119999999N9999999N1+00951+00651102181ADDMA1999999096931REMSYN060AAXX  14104 06620 43/// /2608 10095 20065 39693 40218 5////;
0140066200999992011011411004+47683+008617FM-12+043799999V0202401N003119999999N9999999N1+00931+00701102161ADDMA1999999096911MD1710031+9999OA149900881REMSYN088AAXX  14114 06620 33/// /2406 10093 20070 39691 40216 57003 333 55300 20263 91117 91210;
0140066200999992011011412004+47683+008617FM-12+043799999V0202601N003119999999N9999999N1+00951+00731102111ADDMA1999999096871MD1810061+9999OA149901391REMSYN088AAXX  14124 06620 33/// /2606 10095 20073 39687 40211 58006 333 55300 20371 91127 91216;
0140066200999992011011413004+47683+008617FM-12+043799999V0202601N002119999999N9999999N1+00951+00701102091ADDMA1999999096851MD1710081+9999OA149900621REMSYN088AAXX  14134 06620 33/// /2604 10095 20070 39685 40209 57008 333 55300 20252 91112 91207;
0103066200999992011011414004+47683+008617FM-12+043799999V0202601N001519999999N9999999N1+00981+00651102051ADDMA1999999096821REMSYN076AAXX  14144 06620 33/// /2603 10098 20065 39682 40205 5//// 333 553// 20256;
0140066200999992011011415004+47683+008617FM-12+043799999V0202301N001019999999N9999999N1+00981+00681102041ADDMA1999999096811MD1710061+9999OA149900881REMSYN088AAXX  14154 06620 33/// /2302 10098 20068 39681 40204 57006 333 55300 20176 91117 91210;
0140066200999992011011416004+47683+008617FM-12+043799999V0202101N002619999999N9999999N1+00941+00631102031ADDMA1999999096791MD1710061+9999OA149900411REMSYN088AAXX  14164 06620 33/// /2105 10094 20063 39679 40203 57006 333 55300 20058 91108 91206;
0140066200999992011011417004+47683+008617FM-12+043799999V0202201N003619999999N9999999N1+00911+00591102001ADDMA1999999096761MD1710061+9999OA149900511REMSYN088AAXX  14174 06620 33/// /2207 10091 20059 39676 40200 57006 333 55300 20000 91110 91207;
0219066200999992011011418004+47683+008617FM-12+043799999V0202301N00361015001CN0100001N1+00781+00571101991ADDGA1081+015001071GF108991999999017501999999IA1119KA1120M+01011MA1999999096721MD1810091+9999OA149900881REMSYN106AAXX  14184 06620 32760 82307 10078 20057 39672 40199 58009 333 10101 32/// 55300 20000 88750 91117 91210;
0140066200999992011011419004+47683+008617FM-12+043799999V0202601N003619999999N9999999N1+00691+00541101981ADDMA1999999096701MD1610091+9999OA149900511REMSYN088AAXX  14194 06620 33/// /2607 10069 20054 39670 40198 56009 333 55300 20000 91110 91207;
0140066200999992011011420004+47683+008617FM-12+043799999V0202601N004119999999N9999999N1+00621+00511102011ADDMA1999999096711MD1710051+9999OA149900461REMSYN088AAXX  14204 06620 33/// /2608 10062 20051 39671 40201 57005 333 55300 20000 91109 91208;
0216066200999992011011421004+47683+008617FM-12+043799999V0202301N00211005701CN0080001N1+00621+00511102031ADDAY121031AY221031GA1051+005701071GF105991999999004501999999MA1999999096731MD1310011+9999MW1051OA149900511REMSYN100AAXX  14214 06620 31458 52304 10062 20051 39673 40203 53001 70522 333 55300 20000 85719 91110 91208;
0140066200999992011011422004+47683+008617FM-12+043799999V0202501N004619999999N9999999N1+00601+00501102121ADDMA1999999096811MD1210111+9999OA149900571REMSYN088AAXX  14224 06620 33/// /2509 10060 20050 39681 40212 52011 333 55300 20000 91111 91209;
0140066200999992011011423004+47683+008617FM-12+043799999V0202501N004619999999N9999999N1+00621+00501102171ADDMA1999999096861MD1110151+9999OA149900821REMSYN088AAXX  14234 06620 33/// /2509 10062 20050 39686 40217 51015 333 55300 20000 91116 91210;
0140066200999992011011500004+47683+008617FM-12+043799999V0202401N003119999999N9999999N1+00681+00521102201ADDMA1999999096901MD1210171+9999OA149900821REMSYN088AAXX  15004 06620 33/// /2406 10068 20052 39690 40220 52017 333 55300 20000 91116 91210;
0146066200999992011011501004+47683+008617FM-12+043799999V0202501N009319999999N9999999N1+00801+00561102271ADDMA1999999096991MD1210181+9999OA149901651REMSYN094AAXX  15014 06620 23/// /2518 10080 20056 39699 40227 52018 333 55300 20000 69925 91132 91218;
0146066200999992011011502004+47683+008617FM-12+043799999V0202501N008219999999N9999999N1+00761+00591102351ADDMA1999999097061MD1219999+9999OA149901701REMSYN094AAXX  15024 06620 23/// /2516 10076 20059 39706 40235 52/// 333 55300 20000 69955 91133 91218;
0169066200999992011011503004+47683+008617FM-12+043799999V0202501N005719999999N0050001N1+00741+00581102431ADDAY161031AY221031GF108991999999004501999999MA1999999097131MW1211REMSYN094AAXX  15034 06620 21450 82511 10074 20058 39713 40243 5//// 72162 333 553// 20000 69915 88712;
0140066200999992011011504004+47683+008617FM-12+043799999V0202601N004619999999N9999999N1+00701+00541102531ADDMA1999999097221MD1210231+9999OA149901291REMSYN088AAXX  15044 06620 33/// /2609 10070 20054 39722 40253 52023 333 55300 20000 91125 91215;
0140066200999992011011505004+47683+008617FM-12+043799999V0202401N002619999999N9999999N1+00681+00511102651ADDMA1999999097331MD1210271+9999OA149900881REMSYN088AAXX  15054 06620 33/// /2405 10068 20051 39733 40265 52027 333 55300 20000 91117 91209;
0284066200999992011011506004+47683+008617FM-12+043799999V0202401N00511010801CN0120001N1+00711+00501102751ADDAA112000891AL14800091GA1071+010801041GF107991999999012501999999GJ100009IA1019IA2999+00209KA1999N+00561MA1999999097431MD1310301+9999OA149901701REMSYN130AAXX  15064 06620 02662 72410 10071 20050 39743 40275 53030 69982 333 20056 30002 55000 55300 20000 60005 70008 87436 91133 91218;
0140066200999992011011507004+47683+008617FM-12+043799999V0202401N004119999999N9999999N1+00681+00501102841ADDMA1999999097511MD1110291+9999OA149900821REMSYN088AAXX  15074 06620 33/// /2408 10068 20050 39751 40284 51029 333 55300 20000 91116 91210;
0140066200999992011011508004+47683+008617FM-12+043799999V0202801N005119999999N9999999N1+00651+00481102851ADDMA1999999097511MD1219999+9999OA149900881REMSYN088AAXX  15084 06620 33/// /2810 10065 20048 39751 40285 52/// 333 55302 20050 91117 91211;
0188066200999992011011509004+47683+008617FM-12+043799999V0202501N003112200019N0120001N1+00731+00461102901ADDGA1031+010801031GF103991999999012501999999MA1999999097581MD1210151+9999OA149900881REMSYN094AAXX  15094 06620 32662 32506 10073 20046 39758 40290 52015 333 55308 20284 83336 91117 91211;
0140066200999992011011510004+47683+008617FM-12+043799999V0202501N002619999999N9999999N1+00851+00461102881ADDMA1999999097581MD1210071+9999OA149900671REMSYN088AAXX  15104 06620 33/// /2505 10085 20046 39758 40288 52007 333 55308 20720 91113 91209;
0140066200999992011011511004+47683+008617FM-12+043799999V0202501N003619999999N9999999N1+00911+00411102821ADDMA1999999097531MD1010021+9999OA149900771REMSYN088AAXX  15114 06620 33/// /2507 10091 20041 39753 40282 50002 333 55309 20950 91115 91209;
0140066200999992011011512004+47683+008617FM-12+043799999V0202601N005119999999N9999999N1+00971+00341102771ADDMA1999999097501MD1710081+9999OA149901701REMSYN088AAXX  15124 06620 33/// /2610 10097 20034 39750 40277 57008 333 55305 2//// 91133 91218;
0103066200999992011011513004+47683+008617FM-12+043799999V0202601N004119999999N9999999N1+00961+00371102751ADDMA1999999097481REMSYN076AAXX  15134 06620 33/// /2608 10096 20037 39748 40275 5//// 333 553// 20810;
0087066200999992011011514004+47683+008617FM-12+043799999V0202201N003619999999N9999999N1+01011+00271102751ADDMA1999999097491REMSYN060AAXX  15144 06620 43/// /2207 10101 20027 39749 40275 5////;
0087066200999992011011515004+47683+008617FM-12+043799999V0202401N004119999999N9999999N1+00971+00251102821ADDMA1999999097551REMSYN060AAXX  15154 06620 43/// /2408 10097 20025 39755 40282 5////;
0087066200999992011011516004+47683+008617FM-12+043799999V0202401N004619999999N9999999N1+00851+00261102861ADDMA1999999097561REMSYN060AAXX  15164 06620 43/// /2409 10085 20026 39756 40286 5////;
0103066200999992011011517004+47683+008617FM-12+043799999V0202501N005119999999N9999999N1+00741+00281102861ADDMA1999999097541REMSYN076AAXX  15174 06620 33/// /2510 10074 20028 39754 40286 5//// 333 553// 20000;
0110066200999992011011518004+47683+008617FM-12+043799999V0202601N003619999999N9999999N1+00581+00291102951ADDKA1999M+01031MA1999999097591REMSYN070AAXX  15184 06620 43/// /2607 10058 20029 39759 40295 5//// 333 10103;
0087066200999992011011519004+47683+008617FM-12+043799999V0202401N001519999999N9999999N1+00471+00291102981ADDMA1999999097601REMSYN060AAXX  15194 06620 43/// /2403 10047 20029 39760 40298 5////;
0087066200999992011011520004+47683+008617FM-12+043799999V0202601N005119999999N9999999N1+00481+00281102971ADDMA1999999097591REMSYN060AAXX  15204 06620 43/// /2610 10048 20028 39759 40297 5////;
0216066200999992011011521004+47683+008617FM-12+043799999V0202601N001512200019N0050001N1+00361+00241103001ADDAY101031AY201031GA1031+057001001GF103991999999999999999999MA1999999097601MD1010011+9999MW1101OA149900621REMSYN100AAXX  15214 06620 31950 32603 10036 20024 39760 40300 50001 71000 333 55300 20000 83069 91112 91210;
0140066200999992011011522004+47683+008617FM-12+043799999V0201301N000519999999N9999999N1+00271+00181103061ADDMA1999999097641MD1310041+9999OA149900511REMSYN088AAXX  15224 06620 33/// /1301 10027 20018 39764 40306 53004 333 55300 20000 91110 91208;
0140066200999992011011523004+47683+008617FM-12+043799999V0201601N001519999999N9999999N1+00321+00201103001ADDMA1999999097591MD1010001+9999OA149900261REMSYN088AAXX  15234 06620 33/// /1603 10032 20020 39759 40300 50000 333 55300 20000 91105 91203;
0216066200999992011011600004+47683+008617FM-12+043799999V0201501N000512200019N0050001N1+00211+00141102991ADDAY101061AY201061GA1031+060001001GF103991999999999999999999MA1999999097561MD1810041+9999MW1101OA149900881REMSYN100AAXX  16004 06620 31950 31501 10021 20014 39756 40299 58004 71000 333 55300 20000 83070 91117 91211;
0140066200999992011011601004+47683+008617FM-12+043799999V0202601N001019999999N9999999N1+00191+00121102991ADDMA1999999097561MD1710081+9999OA149900261REMSYN088AAXX  16014 06620 33/// /2602 10019 20012 39756 40299 57008 333 55300 20000 91105 91204;
0140066200999992011011602004+47683+008617FM-12+043799999V0202701N002619999999N9999999N1+00181+00101102981ADDMA1999999097551MD1719999+9999OA149900361REMSYN088AAXX  16024 06620 33/// /2705 10018 20010 39755 40298 57/// 333 55300 20000 91107 91206;
0167066200999992011011603004+47683+008617FM-12+043799999V0203401N000512200019N0050001N1+00141+00071102981ADDAY101031AY201031GA1021+066001001GF102991999999999999999999MA1999999097541MW1101REMSYN076AAXX  16034 06620 41950 23401 10014 20007 39754 40298 5//// 71000 333 82072;
0140066200999992011011604004+47683+008617FM-12+043799999V0209999C000019999999N9999999N1+00031-00021103001ADDMA1999999097531MD1710031+9999OA149900261REMSYN088AAXX  16044 06620 33/// /0000 10003 21002 39753 40300 57003 333 55300 20000 91105 91204;
0140066200999992011011605004+47683+008617FM-12+043799999V0202601N002119999999N9999999N1-00021-00021103011ADDMA1999999097531MD1710021+9999OA149900311REMSYN088AAXX  16054 06620 33/// /2604 11002 21002 39753 40301 57002 333 55300 20000 91106 91205;
0261066200999992011011606004+47683+008617FM-12+043799999V0202501N00151010801CN0120001N1-00031-00031103051ADDAL19900091GA1071+010801061GF107991999999012501999999GJ102889IA1019IA2999-00209KA1999N-00031MA1999999097571MD1310031+9999OA149900571REMSYN118AAXX  16064 06620 32662 72503 11003 21003 39757 40305 53003 333 21003 30102 55048 55300 20000 70000 87636 91111 91210;
0140066200999992011011607004+47683+008617FM-12+043799999V0202801N001019999999N9999999N1+00041+00011103071ADDMA1999999097601MD1210071+9999OA149900311REMSYN088AAXX  16074 06620 33/// /2802 10004 20001 39760 40307 52007 333 55300 20000 91106 91205;
0140066200999992011011608004+47683+008617FM-12+043799999V0201501N000519999999N9999999N1+00021+00021103111ADDMA1999999097641MD1319999+9999OA149900211REMSYN088AAXX  16084 06620 33/// /1501 10002 20002 39764 40311 53/// 333 55300 20022 91104 91203;
0188066200999992011011609004+47683+008617FM-12+043799999V0209999C00001010801CN0120001N1+00051+00051103141ADDGA1071+010801061GF107991999999012501999999MA1999999097671MD1110101+9999OA149900311REMSYN094AAXX  16094 06620 32662 70000 10005 20005 39767 40314 51010 333 55300 20144 87636 91106 91205;
0140066200999992011011610004+47683+008617FM-12+043799999V0202801N002619999999N9999999N1+00131+00081103131ADDMA1999999097681MD1110081+9999OA149900361REMSYN088AAXX  16104 06620 33/// /2805 10013 20008 39768 40313 51008 333 55300 20335 91107 91205;
0175066200999992011011611004+47683+008617FM-12+043799999V0203001N000519999999N9999999N1+00171+00171103081ADDMA1999999097641MD1710031+9999OA149900361REMSYN088AAXX  16114 06620 33/// /3001 10017 20017 39764 40308 58000 333 55300 20454 91107 91205;EQDQ01+000082APCTENQ02+000002APC3  
0140066200999992011011612004+47683+008617FM-12+043799999V0202601N001019999999N9999999N1+00241+00231103031ADDMA1999999097601MD1710071+9999OA149900361REMSYN088AAXX  16124 06620 33/// /2602 10024 20023 39760 40303 57007 333 55300 20529 91107 91206;
0140066200999992011011613004+47683+008617FM-12+043799999V0202301N000519999999N9999999N1+00371+00301102921ADDMA1999999097531MD1810151+9999OA149900361REMSYN088AAXX  16134 06620 33/// /2301 10037 20030 39753 40292 58015 333 55300 20702 91107 91203;
0140066200999992011011614004+47683+008617FM-12+043799999V0203101N000519999999N9999999N1+00331+00311102901ADDMA1999999097501MD1619999+9999OA149900211REMSYN088AAXX  16144 06620 33/// /3101 10033 20031 39750 40290 56/// 333 55300 20612 91104 91203;
0140066200999992011011615004+47683+008617FM-12+043799999V0202901N000519999999N9999999N1+00311+00311102881ADDMA1999999097481MD1610121+9999OA149900361REMSYN088AAXX  16154 06620 33/// /2901 10031 20031 39748 40288 56012 333 55300 20317 91107 91205;
0140066200999992011011616004+47683+008617FM-12+043799999V0209999C000019999999N9999999N1+00271+00271102881ADDMA1999999097471MD1610061+9999OA149900211REMSYN088AAXX  16164 06620 33/// /0000 10027 20027 39747 40288 56006 333 55300 20079 91104 91203;
0140066200999992011011617004+47683+008617FM-12+043799999V0201101N000519999999N9999999N1+00211+00211102901ADDMA1999999097481MD1510021+9999OA149900151REMSYN088AAXX  16174 06620 33/// /1101 10021 20021 39748 40290 55002 333 55300 20000 91103 91203;
0241066200999992011011618004+47683+008617FM-12+043799999V0201801N000510003019N0005001N1+00111+00111102941ADDAY141061AY241061GA1091+999999999GF109991091999999999999999IA1099KA1120M+00411MA1999999097491MD1310011+9999MW1451OA149900361REMSYN106AAXX  16184 06620 31/05 91801 10011 20011 39749 40294 53001 74544 333 10041 31/// 55300 20000 91107 91205;
0140066200999992011011619004+47683+008617FM-12+043799999V0209999C000019999999N9999999N1+00071+00071102961ADDMA1999999097501MD1210031+9999OA149900211REMSYN088AAXX  16194 06620 33/// /0000 10007 20007 39750 40296 52003 333 55300 20000 91104 91203;
0140066200999992011011620004+47683+008617FM-12+043799999V0202701N002619999999N9999999N1+00011+00011102991ADDMA1999999097521MD1210041+9999OA149900311REMSYN088AAXX  16204 06620 33/// /2705 10001 20001 39752 40299 52004 333 55300 20000 91106 91205;
0216066200999992011011621004+47683+008617FM-12+043799999V0202701N002112200019N0100001N1+00001+00001103001ADDAY111031AY211031GA1041+021001031GF104991999999022501999999MA1999999097531MD1210041+9999MW1051OA149900311REMSYN100AAXX  16214 06620 31860 42704 10000 20000 39753 40300 52004 70511 333 55300 20000 84357 91106 91205;
0140066200999992011011622004+47683+008617FM-12+043799999V0202701N002619999999N9999999N1-00051-00051103021ADDMA1999999097541MD1210041+9999OA149900411REMSYN088AAXX  16224 06620 33/// /2705 11005 21005 39754 40302 52004 333 55300 20000 91108 91207;
0140066200999992011011623004+47683+008617FM-12+043799999V0202201N002119999999N9999999N1-00081-00091103031ADDMA1999999097541MD1210021+9999OA149900411REMSYN088AAXX  16234 06620 33/// /2204 11008 21009 39754 40303 52002 333 55300 20000 91108 91207;
0216066200999992011011700004+47683+008617FM-12+043799999V0202701N00261001801CN0010001N1-00141-00141103041ADDAY141061AY211061GA1081+001801071GF108991999999001501999999MA1999999097541MD1210011+9999MW1461OA149900411REMSYN100AAXX  17004 06620 31210 82705 11014 21014 39754 40304 52001 74641 333 55300 20000 88706 91108 91207;
0140066200999992011011701004+47683+008617FM-12+043799999V0202601N001519999999N9999999N1-00151-00151103041ADDMA1999999097541MD1010001+9999OA149900411REMSYN088AAXX  17014 06620 33/// /2603 11015 21015 39754 40304 50000 333 55300 20000 91108 91206;
0140066200999992011011702004+47683+008617FM-12+043799999V0202501N001519999999N9999999N1-00151-00151103031ADDMA1999999097531MD1719999+9999OA149900311REMSYN088AAXX  17024 06620 33/// /2503 11015 21015 39753 40303 57/// 333 55300 20000 91106 91205;
0173066200999992011011703004+47683+008617FM-12+043799999V0202701N002610003019N0005001N1-00161-00161103021ADDAY141031AY211031GA1091+999999999GF109991091999999999999999MA1999999097521MW1471REMSYN082AAXX  17034 06620 31/05 92705 11016 21016 39752 40302 5//// 74741 333 553// 20000;
0140066200999992011011704004+47683+008617FM-12+043799999V0202701N001519999999N9999999N1-00141-00141103001ADDMA1999999097501MD1710041+9999OA149900361REMSYN088AAXX  17044 06620 33/// /2703 11014 21014 39750 40300 57004 333 55300 20000 91107 91206;
0140066200999992011011705004+47683+008617FM-12+043799999V0200701N002119999999N9999999N1-00161-00161102971ADDMA1999999097471MD1710061+9999OA149900311REMSYN088AAXX  17054 06620 33/// /0704 11016 21016 39747 40297 57006 333 55300 20000 91106 91205;
0207066200999992011011706004+47683+008617FM-12+043799999V0200401N002119999999N9999999N1-00221-00221102971ADDAL19900091GJ100009IA2999-00209KA1999N-00191MA1999999097461MD1610061+9999OA149900411REMSYN112AAXX  17064 06620 33/// /0404 11022 21022 39746 40297 56006 333 21019 3/102 55000 55300 20000 70000 91108 91207;
0140066200999992011011707004+47683+008617FM-12+043799999V0200701N002119999999N9999999N1-00221-00231102971ADDMA1999999097461MD1710041+9999OA149900311REMSYN088AAXX  17074 06620 33/// /0704 11022 21023 39746 40297 57004 333 55300 20000 91106 91204;
0087066200999992011011708004+47683+008617FM-12+043799999V0200801N001519999999N9999999N1-00211-00231102961ADDMA1999999097451REMSYN060AAXX  17084 06620 43/// /0803 11021 21023 39745 40296 5////;
0157066200999992011011709004+47683+008617FM-12+043799999V0200701N000510001519N0000001N1-00201-00201102951ADDAY141031AY241031GA1091+999999999GF109991091999999999999999MA1999999097441MW1451REMSYN066AAXX  17094 06620 41/00 90701 11020 21020 39744 40295 5//// 74544;
0140066200999992011011710004+47683+008617FM-12+043799999V0209999C000019999999N9999999N1-00131-00171102931ADDMA1999999097441MD1710021+9999OA149900211REMSYN088AAXX  17104 06620 33/// /0000 11013 21017 39744 40293 57002 333 55300 20331 91104 91202;
0140066200999992011011711004+47683+008617FM-12+043799999V0202001N000519999999N9999999N1-00061-00081102921ADDMA1999999097441MD1710011+9999OA149900211REMSYN088AAXX  17114 06620 33/// /2001 11006 21008 39744 40292 57001 333 55300 20446 91104 91202;
0140066200999992011011712004+47683+008617FM-12+043799999V0202501N001519999999N9999999N1-00011-00031102871ADDMA1999999097401MD1710041+9999OA149900361REMSYN088AAXX  17124 06620 33/// /2503 11001 21003 39740 40287 57004 333 55300 20518 91107 91206;
0140066200999992011011713004+47683+008617FM-12+043799999V0202501N003619999999N9999999N1+00071+00041102841ADDMA1999999097391MD1710051+9999OA149900511REMSYN088AAXX  17134 06620 33/// /2507 10007 20004 39739 40284 57005 333 55300 20634 91110 91207;
0087066200999992011011714004+47683+008617FM-12+043799999V0202701N003619999999N9999999N1+00221+00131102791ADDMA1999999097371REMSYN060AAXX  17144 06620 43/// /2707 10022 20013 39737 40279 5////;
0087066200999992011011715004+47683+008617FM-12+043799999V0202701N004619999999N9999999N1+00271+00201102811ADDMA1999999097401REMSYN060AAXX  17154 06620 43/// /2709 10027 20020 39740 40281 5////;
0140066200999992011011716004+47683+008617FM-12+043799999V0202601N004619999999N9999999N1+00201+00131102831ADDMA1999999097411MD1210021+9999OA149900571REMSYN088AAXX  17164 06620 33/// /2609 10020 20013 39741 40283 52002 333 55302 20119 91111 91210;
0140066200999992011011717004+47683+008617FM-12+043799999V0202601N004119999999N9999999N1+00131+00061102891ADDMA1999999097451MD1310081+9999OA149900571REMSYN088AAXX  17174 06620 33/// /2608 10013 20006 39745 40289 53008 333 55300 20000 91111 91209;
0159066200999992011011718004+47683+008617FM-12+043799999V0202601N004119999999N9999999N1-00021-00021102951ADDKA1120M+00391MA1999999097481MD1310081+9999OA149900571REMSYN094AAXX  17184 06620 33/// /2608 11002 21002 39748 40295 53008 333 10039 55300 20000 91111 91210;
0140066200999992011011719004+47683+008617FM-12+043799999V0202401N003119999999N9999999N1-00021-00051102971ADDMA1999999097501MD1110091+9999OA149900571REMSYN088AAXX  17194 06620 33/// /2406 11002 21005 39750 40297 51009 333 55300 20000 91111 91209;
0140066200999992011011720004+47683+008617FM-12+043799999V0202501N003619999999N9999999N1+00001-00031102991ADDMA1999999097521MD1210071+9999OA149900461REMSYN088AAXX  17204 06620 33/// /2507 10000 21003 39752 40299 52007 333 55300 20000 91109 91207;
0210066200999992011011721004+47683+008617FM-12+043799999V0202401N001510001519N0001001N1+00031-00011102981ADDAY141031AY241031GA1091+999999999GF109991091999999999999999MA1999999097521MD1210041+9999MW1451OA149900571REMSYN094AAXX  17214 06620 31/01 92403 10003 21001 39752 40298 52004 74544 333 55300 20000 91111 91209;
0140066200999992011011722004+47683+008617FM-12+043799999V0202701N003119999999N9999999N1+00001-00031103001ADDMA1999999097531MD1210031+9999OA149900461REMSYN088AAXX  17224 06620 33/// /2706 10000 21003 39753 40300 52003 333 55300 20000 91109 91206;
0140066200999992011011723004+47683+008617FM-12+043799999V0202701N003619999999N9999999N1+00011-00061102991ADDMA1999999097521MD1410001+9999OA149900411REMSYN088AAXX  17234 06620 33/// /2707 10001 21006 39752 40299 57000 333 55300 20000 91108 91207;
0140066200999992011011800004+47683+008617FM-12+043799999V0202701N003619999999N9999999N1-00011-00051103001ADDMA1999999097531MD1510011+9999OA149900571REMSYN088AAXX  18004 06620 33/// /2707 11001 21005 39753 40300 55001 333 55300 20000 91111 91210;
0140066200999992011011801004+47683+008617FM-12+043799999V0202701N002619999999N9999999N1-00011-00061103001ADDMA1999999097531MD1719999+9999OA149900461REMSYN088AAXX  18014 06620 33/// /2705 11001 21006 39753 40300 57/// 333 55300 20000 91109 91207;
0087066200999992011011802004+47683+008617FM-12+043799999V0202701N002619999999N9999999N1+00021-00031103001ADDMA1999999097531REMSYN060AAXX  18024 06620 43/// /2705 10002 21003 39753 40300 5////;
0157066200999992011011803004+47683+008617FM-12+043799999V0202401N000510003019N0005001N1+00041-00021102981ADDAY141031AY241031GA1091+999999999GF109991091999999999999999MA1999999097521MW1451REMSYN066AAXX  18034 06620 41/05 92401 10004 21002 39752 40298 5//// 74544;
0103066200999992011011804004+47683+008617FM-12+043799999V0202801N001019999999N9999999N1+00071+00011102921ADDMA1999999097471REMSYN076AAXX  18044 06620 33/// /2802 10007 20001 39747 40292 5//// 333 553// 20000;
0140066200999992011011805004+47683+008617FM-12+043799999V0202501N001519999999N9999999N1+00081+00001102891ADDMA1999999097441MD1710091+9999OA149900311REMSYN088AAXX  18054 06620 33/// /2503 10008 20000 39744 40289 57009 333 55300 20000 91106 91205;
0207066200999992011011806004+47683+008617FM-12+043799999V0202601N004119999999N9999999N1+00091+00021102891ADDAL19900091GJ100849IA2999-00309KA1999N-00051MA1999999097441MD1710081+9999OA149900461REMSYN112AAXX  18064 06620 33/// /2608 10009 20002 39744 40289 57008 333 21005 3/103 55014 55300 20000 70000 91109 91208;
0140066200999992011011807004+47683+008617FM-12+043799999V0202701N003619999999N9999999N1+00121+00051102901ADDMA1999999097461MD1510011+9999OA149900511REMSYN088AAXX  18074 06620 33/// /2707 10012 20005 39746 40290 55001 333 55300 20000 91110 91208;
0087066200999992011011808004+47683+008617FM-12+043799999V0202301N001519999999N9999999N1+00131+00041102911ADDMA1999999097471REMSYN060AAXX  18084 06620 43/// /2303 10013 20004 39747 40291 5////;
0173066200999992011011809004+47683+008617FM-12+043799999V0202601N004119999999N0015001N1+00191+00091102921ADDAY141031AY221031GA1041+001201071GF107991999999001501999999MA1999999097491MW1101REMSYN082AAXX  18094 06620 41215 72608 10019 20009 39749 40292 5//// 71042 333 84704 83612;
0140066200999992011011810004+47683+008617FM-12+043799999V0202801N004619999999N9999999N1+00231+00151102871ADDMA1999999097451MD1810011+9999OA149900571REMSYN088AAXX  18104 06620 33/// /2809 10023 20015 39745 40287 58001 333 55305 20608 91111 91209;
0140066200999992011011811004+47683+008617FM-12+043799999V0202801N005119999999N9999999N1+00371+00231102811ADDMA1999999097421MD1710051+9999OA149900621REMSYN088AAXX  18114 06620 33/// /2810 10037 20023 39742 40281 57005 333 55304 20770 91112 91210;
0140066200999992011011812004+47683+008617FM-12+043799999V0202701N004619999999N9999999N1+00391+00221102741ADDMA1999999097361MD1719999+9999OA149900621REMSYN088AAXX  18124 06620 33/// /2709 10039 20022 39736 40274 57/// 333 55300 20281 91112 91210;
0103066200999992011011813004+47683+008617FM-12+043799999V0202601N003119999999N9999999N1+00501+00261102631ADDMA1999999097281REMSYN076AAXX  18134 06620 33/// /2606 10050 20026 39728 40263 5//// 333 553// 20410;
