0128066210999992010010100004+47600+009283FM-12+044099999V0203101N001019999999N9999999N1+00301+00301099331ADDMA1999999094091MD1710121+9999OA149900671REMSYN076AAXX  01004 06621 33/// /3102 10030 20030 39409 49933 57012 333 91113 91207;
0128066210999992010010101004+47600+009283FM-12+044099999V0203101N001019999999N9999999N1+00351+00351099281ADDMA1999999094051MD1710131+9999OA149900361REMSYN076AAXX  01014 06621 33/// /3102 10035 20035 39405 49928 57013 333 91107 91205;
0128066210999992010010102004+47600+009283FM-12+044099999V0202801N002119999999N9999999N1+00341+00341099291ADDMA1999999094061MD1719999+9999OA149900361REMSYN076AAXX  01024 06621 33/// /2804 10034 20034 39406 49929 57/// 333 91107 91205;
0087066210999992010010103004+47600+009283FM-12+044099999V0202801N000519999999N9999999N1+00341+00341099201ADDMA1999999093981REMSYN060AAXX  01034 06621 43/// /2801 10034 20034 39398 49920 5////;
0087066210999992010010104004+47600+009283FM-12+044099999V0202001N001019999999N9999999N1+00331+00331099171ADDMA1999999093951REMSYN060AAXX  01044 06621 33/// /2002 10033 20033 39395 49917 5////;
0128066210999992010010105004+47600+009283FM-12+044099999V0201701N001019999999N9999999N1+00321+00321099131ADDMA1999999093911MD1610151+9999OA149900211REMSYN076AAXX  01054 06621 33/// /1702 10032 20032 39391 49913 56015 333 91104 91203;
0206066210999992010010106004+47600+009283FM-12+044099999V0200701N001019999999N9999999N1+00321+00321099131ADDAA124007991AL14800791GJ100009IA2999+00009KA1999N+00271MA1999999093911MD1610071+9999OA149900361REMSYN100AAXX  01064 06621 33/// /0702 10032 20032 39391 49913 56007 333 20027 3/100 55000 70078 91107 91205;
0128066210999992010010107004+47600+009283FM-12+044099999V0200401N001019999999N9999999N1+00321+00321099121ADDMA1999999093901MD1710051+9999OA149900211REMSYN076AAXX  01074 06621 33/// /0402 10032 20032 39390 49912 57005 333 91104 91202;
0128066210999992010010108004+47600+009283FM-12+044099999V0200201N001019999999N9999999N1+00321+00321099151ADDMA1999999093931MD1310021+9999OA149900211REMSYN076AAXX  01084 06621 33/// /0202 10032 20032 39393 49915 53002 333 91104 91202;
0128066210999992010010109004+47600+009283FM-12+044099999V0200301N001519999999N9999999N1+00291+00291099191ADDMA1999999093961MD1210051+9999OA149900211REMSYN076AAXX  01094 06621 33/// /0303 10029 20029 39396 49919 52005 333 91104 91203;
0128066210999992010010110004+47600+009283FM-12+044099999V0203001N001019999999N9999999N1+00301+00301099261ADDMA1999999094031MD1310131+9999OA149900261REMSYN076AAXX  01104 06621 33/// /3002 10030 20030 39403 49926 53013 333 91105 91203;
0128066210999992010010111004+47600+009283FM-12+044099999V0203501N000519999999N9999999N1+00331+00331099251ADDMA1999999094021MD1210091+9999OA149900261REMSYN076AAXX  01114 06621 33/// /3501 10033 20033 39402 49925 52009 333 91105 91203;
0128066210999992010010112004+47600+009283FM-12+044099999V0203301N000519999999N9999999N1+00351+00351099261ADDMA1999999094041MD1210081+9999OA149900361REMSYN076AAXX  01124 06621 33/// /3301 10035 20035 39404 49926 52008 333 91107 91205;
0128066210999992010010113004+47600+009283FM-12+044099999V0209999C000019999999N9999999N1+00381+00381099281ADDMA1999999094061MD1210031+9999OA149900211REMSYN076AAXX  01134 06621 33/// /0000 10038 20038 39406 49928 52003 333 91104 91202;
0128066210999992010010114004+47600+009283FM-12+044099999V0203401N000519999999N9999999N1+00411+00411099361ADDMA1999999094141MD1319999+9999OA149900151REMSYN076AAXX  01144 06621 33/// /3401 10041 20041 39414 49936 53/// 333 91103 91201;
0128066210999992010010115004+47600+009283FM-12+044099999V0209999C000019999999N9999999N1+00421+00421099431ADDMA1999999094211MD1310171+9999OA149900261REMSYN076AAXX  01154 06621 33/// /0000 10042 20042 39421 49943 53017 333 91105 91203;
0128066210999992010010116004+47600+009283FM-12+044099999V0202301N000519999999N9999999N1+00401+00401099521ADDMA1999999094291MD1110231+9999OA149900261REMSYN076AAXX  01164 06621 33/// /2301 10040 20040 39429 49952 51023 333 91105 91203;
0128066210999992010010117004+47600+009283FM-12+044099999V0202601N001519999999N9999999N1+00391+00391099621ADDMA1999999094381MD1310241+9999OA149900311REMSYN076AAXX  01174 06621 33/// /2603 10039 20039 39438 49962 53024 333 91106 91203;
0170066210999992010010118004+47600+009283FM-12+044099999V0202501N003119999999N9999999N1+00411+00411099731ADDAA112000891KA1120M+00421MA1999999094491MD1310281+9999OA149900571REMSYN094AAXX  01184 06621 03/// /2506 10041 20041 39449 49973 53028 69972 333 10042 69975 91111 91206;
0145066210999992010010119004+47600+009283FM-12+044099999V0202601N004119999999N9999999N1+00321+00321099911ADDAA101001091MA1999999094651MD1310361+9999OA149900721REMSYN082AAXX  01194 06621 23/// /2608 10032 20032 39465 49991 53036 333 60015 91114 91208;
0145066210999992010010120004+47600+009283FM-12+044099999V0202601N002619999999N9999999N1+00181+00151100151ADDAA101002091MA1999999094851MD1310471+9999OA149901031REMSYN082AAXX  01204 06621 23/// /2605 10018 20015 39485 40015 53047 333 60025 91120 91211;
0145066210999992010010121004+47600+009283FM-12+044099999V0202501N004119999999N9999999N1+00111+00081100331ADDAA101001091MA1999999095001MD1210511+9999OA149901031REMSYN082AAXX  01214 06621 23/// /2508 10011 20008 39500 40033 52051 333 60015 91120 91211;
0145066210999992010010122004+47600+009283FM-12+044099999V0202701N004619999999N9999999N1+00091+00041100461ADDAA101000891MA1999999095121MD1110471+9999OA149900981REMSYN082AAXX  01224 06621 23/// /2709 10009 20004 39512 40046 51047 333 69975 91119 91210;
0145066210999992010010123004+47600+009283FM-12+044099999V0202501N006719999999N9999999N1+00091-00021100521ADDAA101000021MA1999999095181MD1110331+9999OA149901291REMSYN082AAXX  01234 06621 23/// /2513 10009 21002 39518 40052 51033 333 69925 91125 91213;
0151066210999992010010200004+47600+009283FM-12+044099999V0202601N006719999999N9999999N1+00051-00161100631ADDAA106005191MA1999999095281MD1110281+9999OA149901391REMSYN088AAXX  02004 06621 03/// /2613 10005 21016 39528 40063 51028 60051 333 60005 91127 91216;
0128066210999992010010201004+47600+009283FM-12+044099999V0202501N006219999999N9999999N1+00011-00211100781ADDMA1999999095411MD1210291+9999OA149901391REMSYN076AAXX  02014 06621 33/// /2512 10001 21021 39541 40078 52029 333 91127 91216;
0087066210999992010010202004+47600+009283FM-12+044099999V0202401N005119999999N9999999N1-00031-00211100931ADDMA1999999095541REMSYN060AAXX  02024 06621 33/// /2410 11003 21021 39554 40093 5////;
0128066210999992010010203004+47600+009283FM-12+044099999V0202401N004619999999N9999999N1-00041-00271101061ADDMA1999999095661MD1210381+9999OA149901391REMSYN076AAXX  02034 06621 33/// /2409 11004 21027 39566 40106 52038 333 91127 91216;
0128066210999992010010204004+47600+009283FM-12+044099999V0202401N005719999999N9999999N1-00081-00351101151ADDMA1999999095741MD1110331+9999OA149901131REMSYN076AAXX  02044 06621 33/// /2411 11008 21035 39574 40115 51033 333 91122 91211;
0128066210999992010010205004+47600+009283FM-12+044099999V0202401N003619999999N9999999N1-00091-00361101261ADDMA1999999095841MD1210301+9999OA149901181REMSYN076AAXX  02054 06621 33/// /2407 11009 21036 39584 40126 52030 333 91123 91211;
0229066210999992010010206004+47600+009283FM-12+044099999V0202601N003619999999N9999999N1-00091-00361101341ADDAA112005191AA224005691AL13600591GJ100009IA2999-00209KA1999N-00091MA1999999095921MD1310261+9999OA149901391REMSYN112AAXX  02064 06621 03/// /2607 11009 21036 39592 40134 53026 60052 333 21009 3/102 55000 60005 70056 91127 91216;
0128066210999992010010207004+47600+009283FM-12+044099999V0202501N004119999999N9999999N1-00091-00361101441ADDMA1999999096011MD1110271+9999OA149900771REMSYN076AAXX  02074 06621 33/// /2508 11009 21036 39601 40144 51027 333 91115 91208;
0087066210999992010010208004+47600+009283FM-12+044099999V0202501N003119999999N9999999N1-00181-00281101571ADDMA1999999096121REMSYN060AAXX  02084 06621 33/// /2506 11018 21028 39612 40157 5////;
0145066210999992010010209004+47600+009283FM-12+044099999V0202401N003119999999N9999999N1-00181-00321101671ADDAA101000021MA1999999096211MD1310291+9999OA149901181REMSYN082AAXX  02094 06621 23/// /2406 11018 21032 39621 40167 53029 333 69915 91123 91211;
0128066210999992010010210004+47600+009283FM-12+044099999V0202601N004119999999N9999999N1-00141-00351101771ADDMA1999999096321MD1110311+9999OA149900821REMSYN076AAXX  02104 06621 33/// /2608 11014 21035 39632 40177 51031 333 91116 91209;
0128066210999992010010211004+47600+009283FM-12+044099999V0202801N003119999999N9999999N1-00121-00451101841ADDMA1999999096391MD1110271+9999OA149900821REMSYN076AAXX  02114 06621 33/// /2806 11012 21045 39639 40184 51027 333 91116 91209;
0170066210999992010010212004+47600+009283FM-12+044099999V0202601N003619999999N9999999N1-00071-00601101871ADDAA106000091MA1999999096431MD1110221+9999OA149901341REMSYN088AAXX  02124 06621 03/// /2607 11007 21060 39643 40187 51022 69911 333 60005 91126 91213;EQDQ01  00002PRCP06
0128066210999992010010213004+47600+009283FM-12+044099999V0202701N003119999999N9999999N1-00051-00501101941ADDMA1999999096501MD1310181+9999OA149900621REMSYN076AAXX  02134 06621 33/// /2706 11005 21050 39650 40194 53018 333 91112 91207;
0128066210999992010010214004+47600+009283FM-12+044099999V0202601N002619999999N9999999N1-00091-00621102051ADDMA1999999096591MD1319999+9999OA149900571REMSYN076AAXX  02144 06621 33/// /2605 11009 21062 39659 40205 53/// 333 91111 91206;
0128066210999992010010215004+47600+009283FM-12+044099999V0202301N001519999999N9999999N1-00181-00611102141ADDMA1999999096661MD1210231+9999OA149900821REMSYN076AAXX  02154 06621 33/// /2303 11018 21061 39666 40214 52023 333 91116 91209;
0128066210999992010010216004+47600+009283FM-12+044099999V0202301N003619999999N9999999N1-00221-00571102221ADDMA1999999096731MD1110231+9999OA149900461REMSYN076AAXX  02164 06621 33/// /2307 11022 21057 39673 40222 51023 333 91109 91207;
0128066210999992010010217004+47600+009283FM-12+044099999V0202301N003119999999N9999999N1-00321-00571102331ADDMA1999999096811MD1210221+9999OA149900511REMSYN076AAXX  02174 06621 33/// /2306 11032 21057 39681 40233 52022 333 91110 91207;
0189066210999992010010218004+47600+009283FM-12+044099999V0202201N003619999999N9999999N1-00351-00601102391ADDAA112000091KA1120M-00051MA1999999096861MD1110201+9999OA149900821REMSYN094AAXX  02184 06621 03/// /2207 11035 21060 39686 40239 51020 69912 333 11005 60005 91116 91209;EQDQ01  00002PRCP12
0128066210999992010010219004+47600+009283FM-12+044099999V0202101N003119999999N9999999N1-00351-00611102431ADDMA1999999096901MD1110171+9999OA149900511REMSYN076AAXX  02194 06621 33/// /2106 11035 21061 39690 40243 51017 333 91110 91207;
0128066210999992010010220004+47600+009283FM-12+044099999V0202301N002119999999N9999999N1-00421-00641102451ADDMA1999999096901MD1210091+9999OA149900511REMSYN076AAXX  02204 06621 33/// /2304 11042 21064 39690 40245 52009 333 91110 91206;
0128066210999992010010221004+47600+009283FM-12+044099999V0202401N002619999999N9999999N1-00421-00671102421ADDMA1999999096881MD1010021+9999OA149900511REMSYN076AAXX  02214 06621 33/// /2405 11042 21067 39688 40242 50002 333 91110 91207;
0128066210999992010010222004+47600+009283FM-12+044099999V0202301N001519999999N9999999N1-00441-00721102461ADDMA1999999096911MD1310011+9999OA149900461REMSYN076AAXX  02224 06621 33/// /2303 11044 21072 39691 40246 53001 333 91109 91206;
0128066210999992010010223004+47600+009283FM-12+044099999V0201801N000519999999N9999999N1-00611-00761102511ADDMA1999999096921MD1210021+9999OA149900411REMSYN076AAXX  02234 06621 33/// /1801 11061 21076 39692 40251 52002 333 91108 91206;
0128066210999992010010300004+47600+009283FM-12+044099999V0202101N002119999999N9999999N1-00641-00761102511ADDMA1999999096921MD1210041+9999OA149900571REMSYN076AAXX  03004 06621 33/// /2104 11064 21076 39692 40251 52004 333 91111 91207;
0128066210999992010010301004+47600+009283FM-12+044099999V0202101N002619999999N9999999N1-00671-00781102521ADDMA1999999096921MD1210011+9999OA149900311REMSYN076AAXX  03014 06621 33/// /2105 11067 21078 39692 40252 52001 333 91106 91205;
0087066210999992010010302004+47600+009283FM-12+044099999V0202101N003119999999N9999999N1-00591-00791102531ADDMA1999999096941REMSYN060AAXX  03024 06621 33/// /2106 11059 21079 39694 40253 5////;
0087066210999992010010303004+47600+009283FM-12+044099999V0209999C000019999999N9999999N1-00671-00861102511ADDMA1999999096911REMSYN060AAXX  03034 06621 33/// /0000 11067 21086 39691 40251 5////;
0128066210999992010010304004+47600+009283FM-12+044099999V0202701N000519999999N9999999N1-00711-00901102491ADDMA1999999096881MD1810041+9999OA149900361REMSYN076AAXX  03044 06621 33/// /2701 11071 21090 39688 40249 58004 333 91107 91205;
0128066210999992010010305004+47600+009283FM-12+044099999V0202301N001519999999N9999999N1-00691-00891102481ADDMA1999999096881MD1719999+9999OA149900361REMSYN076AAXX  03054 06621 33/// /2303 11069 21089 39688 40248 57/// 333 91107 91205;
0225066210999992010010306004+47600+009283FM-12+044099999V0202301N002119999999N9999999N1-00711-00911102451ADDAA124000091AL10600091GJ101209IA2999-01009KA1999N-00751MA1999999096841MD1710071+9999OA149900511REMSYN100AAXX  03064 06621 33/// /2304 11071 21091 39684 40245 57007 333 21075 3/110 55020 70001 91110 91207;EQDQ01  00002PRCP24
0128066210999992010010307004+47600+009283FM-12+044099999V0202201N003119999999N9999999N1-00701-00971102481ADDMA1999999096871MD1710011+9999OA149900461REMSYN076AAXX  03074 06621 33/// /2206 11070 21097 39687 40248 57001 333 91109 91207;
0128066210999992010010308004+47600+009283FM-12+044099999V0202101N003619999999N9999999N1-00671-00961102481ADDMA1999999096881MD1519999+9999OA149900511REMSYN076AAXX  03084 06621 33/// /2107 11067 21096 39688 40248 55/// 333 91110 91207;
0128066210999992010010309004+47600+009283FM-12+044099999V0202001N003619999999N9999999N1-00461-00941102441ADDMA1999999096891MD1210051+9999OA149900571REMSYN076AAXX  03094 06621 33/// /2007 11046 21094 39689 40244 52005 333 91111 91208;
0128066210999992010010310004+47600+009283FM-12+044099999V0202101N001519999999N9999999N1-00351-00961102441ADDMA1999999096911MD1210041+9999OA149900571REMSYN076AAXX  03104 06621 33/// /2103 11035 21096 39691 40244 52004 333 91111 91208;
0128066210999992010010311004+47600+009283FM-12+044099999V0200701N000519999999N9999999N1-00261-00891102311ADDMA1999999096801MD1810081+9999OA149900461REMSYN076AAXX  03114 06621 33/// /0701 11026 21089 39680 40231 58008 333 91109 91206;
0128066210999992010010312004+47600+009283FM-12+044099999V0203001N000519999999N9999999N1-00151-00821102211ADDMA1999999096731MD1710161+9999OA149900571REMSYN076AAXX  03124 06621 33/// /3001 11015 21082 39673 40221 57016 333 91111 91208;
0128066210999992010010313004+47600+009283FM-12+044099999V0202501N000519999999N9999999N1-00091-00741102141ADDMA1999999096681MD1610231+9999OA149900211REMSYN076AAXX  03134 06621 33/// /2501 11009 21074 39668 40214 56023 333 91104 91202;
0128066210999992010010314004+47600+009283FM-12+044099999V0202501N001019999999N9999999N1-00071-00721102121ADDMA1999999096661MD1610141+9999OA149900361REMSYN076AAXX  03144 06621 33/// /2502 11007 21072 39666 40212 56014 333 91107 91205;
0128066210999992010010315004+47600+009283FM-12+044099999V0202601N001519999999N9999999N1-00121-00701102141ADDMA1999999096671MD1710061+9999OA149900461REMSYN076AAXX  03154 06621 33/// /2603 11012 21070 39667 40214 57006 333 91109 91206;
0128066210999992010010316004+47600+009283FM-12+044099999V0202001N001019999999N9999999N1-00371-00701102181ADDMA1999999096661MD1710021+9999OA149900361REMSYN076AAXX  03164 06621 33/// /2002 11037 21070 39666 40218 57002 333 91107 91204;
0128066210999992010010317004+47600+009283FM-12+044099999V0201501N001019999999N9999999N1-00491-00741102181ADDMA1999999096631MD1810031+9999OA149900261REMSYN076AAXX  03174 06621 33/// /1502 11049 21074 39663 40218 58003 333 91105 91204;
0147066210999992010010318004+47600+009283FM-12+044099999V0202401N001019999999N9999999N1-00581-00751102221ADDKA1120M-00061MA1999999096651MD1510021+9999OA149900571REMSYN082AAXX  03184 06621 33/// /2402 11058 21075 39665 40222 55002 333 11006 91111 91208;
0128066210999992010010319004+47600+009283FM-12+044099999V0202101N003119999999N9999999N1-00541-00771102201ADDMA1999999096641MD1510021+9999OA149900361REMSYN076AAXX  03194 06621 33/// /2106 11054 21077 39664 40220 55002 333 91107 91206;
0128066210999992010010320004+47600+009283FM-12+044099999V0202101N003119999999N9999999N1-00571-00811102171ADDMA1999999096611MD1810021+9999OA149900411REMSYN076AAXX  03204 06621 33/// /2106 11057 21081 39661 40217 58002 333 91108 91207;
0128066210999992010010321004+47600+009283FM-12+044099999V0202201N003119999999N9999999N1-00591-00851102141ADDMA1999999096581MD1810071+9999OA149900411REMSYN076AAXX  03214 06621 33/// /2206 11059 21085 39658 40214 58007 333 91108 91207;
0128066210999992010010322004+47600+009283FM-12+044099999V0202101N003619999999N9999999N1-00571-00891102141ADDMA1999999096581MD1710061+9999OA149900461REMSYN076AAXX  03224 06621 33/// /2107 11057 21089 39658 40214 57006 333 91109 91207;
0128066210999992010010323004+47600+009283FM-12+044099999V0202101N003119999999N9999999N1-00671-00961102111ADDMA1999999096531MD1710081+9999OA149900461REMSYN076AAXX  03234 06621 33/// /2106 11067 21096 39653 40211 57008 333 91109 91207;
0128066210999992010010400004+47600+009283FM-12+044099999V0202201N003119999999N9999999N1-00721-00961102091ADDMA1999999096501MD1710081+9999OA149900461REMSYN076AAXX  04004 06621 33/// /2206 11072 21096 39650 40209 57008 333 91109 91207;
0128066210999992010010401004+47600+009283FM-12+044099999V0202501N001019999999N9999999N1-00771-00971102021ADDMA1999999096431MD1710151+9999OA149900361REMSYN076AAXX  04014 06621 33/// /2502 11077 21097 39643 40202 57015 333 91107 91206;
0128066210999992010010402004+47600+009283FM-12+044099999V0202501N001519999999N9999999N1-00801-00931102001ADDMA1999999096401MD1610131+9999OA149900311REMSYN076AAXX  04024 06621 33/// /2503 11080 21093 39640 40200 56013 333 91106 91205;
0128066210999992010010403004+47600+009283FM-12+044099999V0202901N000519999999N9999999N1-00771-00841101921ADDMA1999999096331MD1719999+9999OA149900461REMSYN076AAXX  04034 06621 33/// /2901 11077 21084 39633 40192 57/// 333 91109 91207;
0128066210999992010010404004+47600+009283FM-12+044099999V0202101N001519999999N9999999N1-00781-00851101871ADDMA1999999096281MD1710151+9999OA149900211REMSYN076AAXX  04044 06621 33/// /2103 11078 21085 39628 40187 57015 333 91104 91203;
0128066210999992010010405004+47600+009283FM-12+044099999V0202301N002119999999N9999999N1-00711-00801101821ADDMA1999999096251MD1710151+9999OA149900311REMSYN076AAXX  04054 06621 33/// /2304 11071 21080 39625 40182 57015 333 91106 91205;
0225066210999992010010406004+47600+009283FM-12+044099999V0203201N001019999999N9999999N1-00521-00631101771ADDAA124000091AL19900091GJ104149IA2999-01109KA1999N-00811MA1999999096241MD1710091+9999OA149900461REMSYN100AAXX  04064 06621 33/// /3202 11052 21063 39624 40177 57009 333 21081 3/111 55069 70000 91109 91207;EQDQ01  00002PRCP24
0128066210999992010010407004+47600+009283FM-12+044099999V0203001N001519999999N9999999N1-00541-00631101801ADDMA1999999096261MD1510021+9999OA149900261REMSYN076AAXX  04074 06621 33/// /3003 11054 21063 39626 40180 55002 333 91105 91203;
0128066210999992010010408004+47600+009283FM-12+044099999V0209999C000019999999N9999999N1-00541-00641101811ADDMA1999999096271MD1210021+9999OA149900261REMSYN076AAXX  04084 06621 33/// /0000 11054 21064 39627 40181 52002 333 91105 91203;
0128066210999992010010409004+47600+009283FM-12+044099999V0201801N001519999999N9999999N1-00471-00621101771ADDMA1999999096251MD1210011+9999OA149900311REMSYN076AAXX  04094 06621 33/// /1803 11047 21062 39625 40177 52001 333 91106 91205;
0128066210999992010010410004+47600+009283FM-12+044099999V0202001N001019999999N9999999N1-00421-00621101741ADDMA1999999096231MD1810031+9999OA149900311REMSYN076AAXX  04104 06621 33/// /2002 11042 21062 39623 40174 58003 333 91106 91203;
0128066210999992010010411004+47600+009283FM-12+044099999V0201601N000519999999N9999999N1-00371-00591101651ADDMA1999999096161MD1710111+9999OA149900311REMSYN076AAXX  04114 06621 33/// /1601 11037 21059 39616 40165 57011 333 91106 91203;
0128066210999992010010412004+47600+009283FM-12+044099999V0203101N000519999999N9999999N1-00311-00591101571ADDMA1999999096091MD1810161+9999OA149900311REMSYN076AAXX  04124 06621 33/// /3101 11031 21059 39609 40157 58016 333 91106 91205;
0128066210999992010010413004+47600+009283FM-12+044099999V0203001N000519999999N9999999N1-00321-00611101501ADDMA1999999096031MD1610201+9999OA149900211REMSYN076AAXX  04134 06621 33/// /3001 11032 21061 39603 40150 56020 333 91104 91202;
0128066210999992010010414004+47600+009283FM-12+044099999V0203101N001019999999N9999999N1-00281-00611101461ADDMA1999999096001MD1619999+9999OA149900211REMSYN076AAXX  04144 06621 33/// /3102 11028 21061 39600 40146 56/// 333 91104 91202;
0128066210999992010010415004+47600+009283FM-12+044099999V0202101N001019999999N9999999N1-00301-00621101451ADDMA1999999095981MD1610111+9999OA149900311REMSYN076AAXX  04154 06621 33/// /2102 11030 21062 39598 40145 56011 333 91106 91203;
0128066210999992010010416004+47600+009283FM-12+044099999V0202001N001019999999N9999999N1-00541-00681101521ADDMA1999999096001MD1710031+9999OA149900151REMSYN076AAXX  04164 06621 33/// /2002 11054 21068 39600 40152 57003 333 91103 91202;
0128066210999992010010417004+47600+009283FM-12+044099999V0202101N002119999999N9999999N1-00611-00741101501ADDMA1999999095971MD1710031+9999OA149900261REMSYN076AAXX  04174 06621 33/// /2104 11061 21074 39597 40150 57003 333 91105 91204;
0147066210999992010010418004+47600+009283FM-12+044099999V0202201N001519999999N9999999N1-00671-00771101511ADDKA1120M-00281MA1999999095961MD1810021+9999OA149900311REMSYN082AAXX  04184 06621 33/// /2203 11067 21077 39596 40151 58002 333 11028 91106 91204;
0128066210999992010010419004+47600+009283FM-12+044099999V0202201N002119999999N9999999N1-00691-00781101511ADDMA1999999095961MD1610041+9999OA149900311REMSYN076AAXX  04194 06621 33/// /2204 11069 21078 39596 40151 56004 333 91106 91205;
0128066210999992010010420004+47600+009283FM-12+044099999V0202201N002119999999N9999999N1-00711-00811101501ADDMA1999999095951MD1710021+9999OA149900311REMSYN076AAXX  04204 06621 33/// /2204 11071 21081 39595 40150 57002 333 91106 91205;
0128066210999992010010421004+47600+009283FM-12+044099999V0202301N001519999999N9999999N1-00741-00831101491ADDMA1999999095931MD1810031+9999OA149900311REMSYN076AAXX  04214 06621 33/// /2303 11074 21083 39593 40149 58003 333 91106 91205;
0128066210999992010010422004+47600+009283FM-12+044099999V0202301N002119999999N9999999N1-00711-00781101451ADDMA1999999095901MD1710061+9999OA149900311REMSYN076AAXX  04224 06621 33/// /2304 11071 21078 39590 40145 57006 333 91106 91204;
0128066210999992010010423004+47600+009283FM-12+044099999V0202301N001519999999N9999999N1-00791-00871101431ADDMA1999999095861MD1810091+9999OA149900261REMSYN076AAXX  04234 06621 33/// /2303 11079 21087 39586 40143 58009 333 91105 91204;
0128066210999992010010500004+47600+009283FM-12+044099999V0202201N000519999999N9999999N1-00741-00831101351ADDMA1999999095801MD1710131+9999OA149900311REMSYN076AAXX  05004 06621 33/// /2201 11074 21083 39580 40135 57013 333 91106 91205;
0128066210999992010010501004+47600+009283FM-12+044099999V0201901N001519999999N9999999N1-00741-00821101321ADDMA1999999095771MD1710131+9999OA149900211REMSYN076AAXX  05014 06621 33/// /1903 11074 21082 39577 40132 57013 333 91104 91203;
0128066210999992010010502004+47600+009283FM-12+044099999V0201701N001519999999N9999999N1-00611-00761101281ADDMA1999999095761MD1710101+9999OA149900261REMSYN076AAXX  05024 06621 33/// /1703 11061 21076 39576 40128 57010 333 91105 91203;
0128066210999992010010503004+47600+009283FM-12+044099999V0201401N001519999999N9999999N1-00571-00741101191ADDMA1999999095681MD1710121+9999OA149900311REMSYN076AAXX  05034 06621 33/// /1403 11057 21074 39568 40119 57012 333 91106 91204;
0128066210999992010010504004+47600+009283FM-12+044099999V0201501N001519999999N9999999N1-00551-00701101131ADDMA1999999095631MD1710141+9999OA149900311REMSYN076AAXX  05044 06621 33/// /1503 11055 21070 39563 40113 57014 333 91106 91204;
0128066210999992010010505004+47600+009283FM-12+044099999V0200701N002119999999N9999999N1-00551-00731101061ADDMA1999999095561MD1610201+9999OA149900361REMSYN076AAXX  05054 06621 33/// /0704 11055 21073 39556 40106 56020 333 91107 91204;
0211066210999992010010506004+47600+009283FM-12+044099999V0209999C000019999999N9999999N1-00601-00701101001ADDAA124000091AL19900091IA2999-01009KA1999N-00811MA1999999095501MD1710181+9999OA149900361REMSYN094AAXX  05064 06621 33/// /0000 11060 21070 39550 40100 57018 333 21081 3/110 70000 91107 91205;EQDQ01  00002PRCP24
0128066210999992010010507004+47600+009283FM-12+044099999V0200701N002619999999N9999999N1-00571-00761100961ADDMA1999999095461MD1710171+9999OA149900411REMSYN076AAXX  05074 06621 33/// /0705 11057 21076 39546 40096 57017 333 91108 91205;
0128066210999992010010508004+47600+009283FM-12+044099999V0200401N002119999999N9999999N1-00561-00741100951ADDMA1999999095461MD1710101+9999OA149900511REMSYN076AAXX  05084 06621 33/// /0404 11056 21074 39546 40095 57010 333 91110 91206;
0128066210999992010010509004+47600+009283FM-12+044099999V0200501N001519999999N9999999N1-00521-00741100911ADDMA1999999095431MD1710071+9999OA149900511REMSYN076AAXX  05094 06621 33/// /0503 11052 21074 39543 40091 57007 333 91110 91206;
0128066210999992010010510004+47600+009283FM-12+044099999V0200301N002119999999N9999999N1-00491-00691100871ADDMA1999999095401MD1710061+9999OA149900411REMSYN076AAXX  05104 06621 33/// /0304 11049 21069 39540 40087 57006 333 91108 91205;
0128066210999992010010511004+47600+009283FM-12+044099999V0200401N001019999999N9999999N1-00471-00721100781ADDMA1999999095311MD1710151+9999OA149900411REMSYN076AAXX  05114 06621 33/// /0402 11047 21072 39531 40078 57015 333 91108 91205;
0128066210999992010010512004+47600+009283FM-12+044099999V0200101N001019999999N9999999N1-00441-00731100681ADDMA1999999095231MD1710201+9999OA149900511REMSYN076AAXX  05124 06621 33/// /0102 11044 21073 39523 40068 57020 333 91110 91206;
0128066210999992010010513004+47600+009283FM-12+044099999V0203601N001019999999N9999999N1-00401-00691100601ADDMA1999999095161MD1710241+9999OA149900311REMSYN076AAXX  05134 06621 33/// /3602 11040 21069 39516 40060 57024 333 91106 91203;
0087066210999992010010514004+47600+009283FM-12+044099999V0200301N001019999999N9999999N1-00401-00671100571ADDMA1999999095131REMSYN060AAXX  05144 06621 33/// /0302 11040 21067 39513 40057 5////;
0128066210999992010010515004+47600+009283FM-12+044099999V0200801N001019999999N9999999N1-00431-00611100541ADDMA1999999095101MD1610131+9999OA149900411REMSYN076AAXX  05154 06621 33/// /0802 11043 21061 39510 40054 56013 333 91108 91205;
0128066210999992010010516004+47600+009283FM-12+044099999V0200501N001519999999N9999999N1-00401-00621100521ADDMA1999999095081MD1610081+9999OA149900311REMSYN076AAXX  05164 06621 33/// /0503 11040 21062 39508 40052 56008 333 91106 91203;
0128066210999992010010517004+47600+009283FM-12+044099999V0200501N001519999999N9999999N1-00401-00611100481ADDMA1999999095041MD1810091+9999OA149900361REMSYN076AAXX  05174 06621 33/// /0503 11040 21061 39504 40048 58009 333 91107 91204;
0147066210999992010010518004+47600+009283FM-12+044099999V0200601N002619999999N9999999N1-00421-00631100451ADDKA1120M-00401MA1999999095011MD1610091+9999OA149900511REMSYN082AAXX  05184 06621 33/// /0605 11042 21063 39501 40045 56009 333 11040 91110 91206;
0128066210999992010010519004+47600+009283FM-12+044099999V0200601N001019999999N9999999N1-00431-00651100441ADDMA1999999095001MD1610081+9999OA149900411REMSYN076AAXX  05194 06621 33/// /0602 11043 21065 39500 40044 56008 333 91108 91205;
0128066210999992010010520004+47600+009283FM-12+044099999V0200301N001519999999N9999999N1-00451-00651100401ADDMA1999999094961MD1610081+9999OA149900411REMSYN076AAXX  05204 06621 33/// /0303 11045 21065 39496 40040 56008 333 91108 91205;
0128066210999992010010521004+47600+009283FM-12+044099999V0200601N002119999999N9999999N1-00471-00661100391ADDMA1999999094951MD1710061+9999OA149900411REMSYN076AAXX  05214 06621 33/// /0604 11047 21066 39495 40039 57006 333 91108 91205;
0128066210999992010010522004+47600+009283FM-12+044099999V0200701N001019999999N9999999N1-00471-00671100361ADDMA1999999094921MD1710081+9999OA149900361REMSYN076AAXX  05224 06621 33/// /0702 11047 21067 39492 40036 57008 333 91107 91204;
0128066210999992010010523004+47600+009283FM-12+044099999V0201001N001019999999N9999999N1-00471-00651100341ADDMA1999999094901MD1710061+9999OA149900311REMSYN076AAXX  05234 06621 33/// /1002 11047 21065 39490 40034 57006 333 91106 91204;
0170066210999992010010600004+47600+009283FM-12+044099999V0200901N001019999999N9999999N1-00461-00631100301ADDAA106000091MA1999999094861MD1710091+9999OA149900411REMSYN088AAXX  06004 06621 03/// /0902 11046 21063 39486 40030 57009 69911 333 69915 91108 91205;EQDQ01  00002PRCP06
0128066210999992010010601004+47600+009283FM-12+044099999V0200801N001019999999N9999999N1-00461-00641100261ADDMA1999999094821MD1710101+9999OA149900261REMSYN076AAXX  06014 06621 33/// /0802 11046 21064 39482 40026 57010 333 91105 91203;
0128066210999992010010602004+47600+009283FM-12+044099999V0200701N001019999999N9999999N1-00441-00611100241ADDMA1999999094811MD1710091+9999OA149900261REMSYN076AAXX  06024 06621 33/// /0702 11044 21061 39481 40024 57009 333 91105 91203;
0128066210999992010010603004+47600+009283FM-12+044099999V0200101N001019999999N9999999N1-00441-00621100241ADDMA1999999094811MD1710051+9999OA149900311REMSYN076AAXX  06034 06621 33/// /0102 11044 21062 39481 40024 57005 333 91106 91204;
0128066210999992010010604004+47600+009283FM-12+044099999V0202601N000519999999N9999999N1-00421-00611100221ADDMA1999999094791MD1710031+9999OA149900211REMSYN076AAXX  06044 06621 33/// /2601 11042 21061 39479 40022 57003 333 91104 91202;
0128066210999992010010605004+47600+009283FM-12+044099999V0202401N001019999999N9999999N1-00431-00551100261ADDMA1999999094831MD1310021+9999OA149900211REMSYN076AAXX  06054 06621 33/// /2402 11043 21055 39483 40026 53002 333 91104 91202;
0264066210999992010010606004+47600+009283FM-12+044099999V0202101N000519999999N9999999N1-00411-00521100281ADDAA112000091AA224000091AL10600091GJ100009IA2999-00509KA1999N-00481MA1999999094851MD1210041+9999OA149900411REMSYN112AAXX  06064 06621 03/// /2101 11041 21052 39485 40028 52004 69912 333 21048 3/105 55000 60005 70001 91108 91205;EQDQ01  00002PRCP24Q02  00002PRCP12
0145066210999992010010607004+47600+009283FM-12+044099999V0202001N001019999999N9999999N1-00411-00491100301ADDAA101000021MA1999999094871MD1210081+9999OA149900151REMSYN082AAXX  06074 06621 23/// /2002 11041 21049 39487 40030 52008 333 69925 91103 91202;
0145066210999992010010608004+47600+009283FM-12+044099999V0202101N001019999999N9999999N1-00401-00501100351ADDAA101000021MA1999999094921MD1210091+9999OA149900151REMSYN082AAXX  06084 06621 23/// /2102 11040 21050 39492 40035 52009 333 69915 91103 91202;
0128066210999992010010609004+47600+009283FM-12+044099999V0202301N001019999999N9999999N1-00361-00511100391ADDMA1999999094971MD1210121+9999OA149900261REMSYN076AAXX  06094 06621 33/// /2302 11036 21051 39497 40039 52012 333 91105 91203;
0128066210999992010010610004+47600+009283FM-12+044099999V0202201N001519999999N9999999N1-00291-00491100421ADDMA1999999095011MD1210141+9999OA149900261REMSYN076AAXX  06104 06621 33/// /2203 11029 21049 39501 40042 52014 333 91105 91203;
0128066210999992010010611004+47600+009283FM-12+044099999V0202601N001519999999N9999999N1-00261-00481100371ADDMA1999999094971MD1019999+9999OA149900311REMSYN076AAXX  06114 06621 33/// /2603 11026 21048 39497 40037 50/// 333 91106 91204;
0151066210999992010010612004+47600+009283FM-12+044099999V0203001N000519999999N9999999N1-00181-00451100331ADDAA106000391MA1999999094951MD1810021+9999OA149900311REMSYN088AAXX  06124 06621 03/// /3001 11018 21045 39495 40033 58002 69931 333 60005 91106 91204;
0128066210999992010010613004+47600+009283FM-12+044099999V0202501N001519999999N9999999N1-00141-00411100341ADDMA1999999094961MD1710051+9999OA149900411REMSYN076AAXX  06134 06621 33/// /2503 11014 21041 39496 40034 57005 333 91108 91205;
0128066210999992010010614004+47600+009283FM-12+044099999V0202901N001519999999N9999999N1-00151-00411100351ADDMA1999999094971MD1319999+9999OA149900411REMSYN076AAXX  06144 06621 33/// /2903 11015 21041 39497 40035 53/// 333 91108 91205;
0128066210999992010010615004+47600+009283FM-12+044099999V0203001N001019999999N9999999N1-00151-00391100381ADDMA1999999095001MD1219999+9999OA149900411REMSYN076AAXX  06154 06621 33/// /3002 11015 21039 39500 40038 52/// 333 91108 91205;
0128066210999992010010616004+47600+009283FM-12+044099999V0209999C000019999999N9999999N1-00161-00381100441ADDMA1999999095051MD1210091+9999OA149900261REMSYN076AAXX  06164 06621 33/// /0000 11016 21038 39505 40044 52009 333 91105 91204;
0128066210999992010010617004+47600+009283FM-12+044099999V0202301N000519999999N9999999N1-00181-00361100481ADDMA1999999095091MD1110121+9999OA149900151REMSYN076AAXX  06174 06621 33/// /2301 11018 21036 39509 40048 51012 333 91103 91201;
0170066210999992010010618004+47600+009283FM-12+044099999V0209999C000019999999N9999999N1-00191-00331100551ADDAA112000391KA1120M-00141MA1999999095151MD1319999+9999OA149900411REMSYN094AAXX  06184 06621 03/// /0000 11019 21033 39515 40055 53/// 69932 333 11014 60005 91108 91205;
0128066210999992010010619004+47600+009283FM-12+044099999V0201501N001019999999N9999999N1-00211-00341100551ADDMA1999999095151MD1210101+9999OA149900151REMSYN076AAXX  06194 06621 33/// /1502 11021 21034 39515 40055 52010 333 91103 91202;
0128066210999992010010620004+47600+009283FM-12+044099999V0202801N001019999999N9999999N1-00391-00461100631ADDMA1999999095191MD1210101+9999OA149900151REMSYN076AAXX  06204 06621 33/// /2802 11039 21046 39519 40063 52010 333 91103 91203;
0128066210999992010010621004+47600+009283FM-12+044099999V0202501N001519999999N9999999N1-00421-00501100651ADDMA1999999095201MD1210051+9999OA149900211REMSYN076AAXX  06214 06621 33/// /2503 11042 21050 39520 40065 52005 333 91104 91203;
0128066210999992010010622004+47600+009283FM-12+044099999V0202501N002119999999N9999999N1-00461-00541100711ADDMA1999999095251MD1210101+9999OA149900311REMSYN076AAXX  06224 06621 33/// /2504 11046 21054 39525 40071 52010 333 91106 91204;
0128066210999992010010623004+47600+009283FM-12+044099999V0202301N001519999999N9999999N1-00411-00511100731ADDMA1999999095281MD1210091+9999OA149900311REMSYN076AAXX  06234 06621 33/// /2303 11041 21051 39528 40073 52009 333 91106 91204;
0128066210999992010010700004+47600+009283FM-12+044099999V0202501N001519999999N9999999N1-00261-00421100721ADDMA1999999095301MD1210101+9999OA149900411REMSYN076AAXX  07004 06621 33/// /2503 11026 21042 39530 40072 52010 333 91108 91205;
0128066210999992010010701004+47600+009283FM-12+044099999V0202201N002619999999N9999999N1-00291-00421100761ADDMA1999999095331MD1210081+9999OA149900411REMSYN076AAXX  07014 06621 33/// /2205 11029 21042 39533 40076 52008 333 91108 91206;
0128066210999992010010702004+47600+009283FM-12+044099999V0202101N002119999999N9999999N1-00251-00401100791ADDMA1999999095371MD1319999+9999OA149900411REMSYN076AAXX  07024 06621 33/// /2104 11025 21040 39537 40079 53/// 333 91108 91206;
0128066210999992010010703004+47600+009283FM-12+044099999V0202101N002619999999N9999999N1-00291-00391100821ADDMA1999999095391MD1110091+9999OA149900411REMSYN076AAXX  07034 06621 33/// /2105 11029 21039 39539 40082 51009 333 91108 91206;
0128066210999992010010704004+47600+009283FM-12+044099999V0202201N002119999999N9999999N1-00271-00391100831ADDMA1999999095401MD1110071+9999OA149900411REMSYN076AAXX  07044 06621 33/// /2204 11027 21039 39540 40083 51007 333 91108 91206;
0128066210999992010010705004+47600+009283FM-12+044099999V0202001N002619999999N9999999N1-00301-00421100831ADDMA1999999095401MD1210031+9999OA149900411REMSYN076AAXX  07054 06621 33/// /2005 11030 21042 39540 40083 52003 333 91108 91205;
0206066210999992010010706004+47600+009283FM-12+044099999V0202201N002119999999N9999999N1-00481-00581100901ADDAA124000391AL11800091GJ100009IA2999-00909KA1999N-00521MA1999999095431MD1210041+9999OA149900411REMSYN100AAXX  07064 06621 33/// /2204 11048 21058 39543 40090 52004 333 21052 3/109 55000 70003 91108 91206;
0128066210999992010010707004+47600+009283FM-12+044099999V0202201N002619999999N9999999N1-00541-00631100981ADDMA1999999095491MD1210091+9999OA149900361REMSYN076AAXX  07074 06621 33/// /2205 11054 21063 39549 40098 52009 333 91107 91205;
0128066210999992010010708004+47600+009283FM-12+044099999V0201901N002119999999N9999999N1-00311-00471100971ADDMA1999999095531MD1219999+9999OA149900361REMSYN076AAXX  07084 06621 33/// /1904 11031 21047 39553 40097 52/// 333 91107 91205;
0128066210999992010010709004+47600+009283FM-12+044099999V0201501N001019999999N9999999N1-00201-00441100971ADDMA1999999095551MD1210121+9999OA149900411REMSYN076AAXX  07094 06621 33/// /1502 11020 21044 39555 40097 52012 333 91108 91205;
0128066210999992010010710004+47600+009283FM-12+044099999V0201301N001519999999N9999999N1-00051-00291100981ADDMA1999999095591MD1210101+9999OA149900411REMSYN076AAXX  07104 06621 33/// /1303 11005 21029 39559 40098 52010 333 91108 91204;
0128066210999992010010711004+47600+009283FM-12+044099999V0201201N001519999999N9999999N1-00011-00271100991ADDMA1999999095601MD1210071+9999OA149900461REMSYN076AAXX  07114 06621 33/// /1203 11001 21027 39560 40099 52007 333 91109 91205;
0128066210999992010010712004+47600+009283FM-12+044099999V0201301N002119999999N9999999N1+00011-00291100941ADDMA1999999095561MD1810011+9999OA149900461REMSYN076AAXX  07124 06621 33/// /1304 10001 21029 39556 40094 58001 333 91109 91206;
0128066210999992010010713004+47600+009283FM-12+044099999V0201701N001519999999N9999999N1+00031-00321100921ADDMA1999999095551MD1710041+9999OA149900461REMSYN076AAXX  07134 06621 33/// /1703 10003 21032 39555 40092 57004 333 91109 91205;
0087066210999992010010715004+47600+009283FM-12+044099999V0202101N002119999999N9999999N1-00041-00341101011ADDMA1999999095621REMSYN060AAXX  07154 06621 43/// /2104 11004 21034 39562 40101 5////;
0128066210999992010010716004+47600+009283FM-12+044099999V0202101N001519999999N9999999N1-00111-00361101071ADDMA1999999095661MD1110111+9999OA149900311REMSYN076AAXX  07164 06621 33/// /2103 11011 21036 39566 40107 51011 333 91106 91205;
0128066210999992010010717004+47600+009283FM-12+044099999V0201801N001019999999N9999999N1-00181-00391101121ADDMA1999999095691MD1119999+9999OA149900311REMSYN076AAXX  07174 06621 33/// /1802 11018 21039 39569 40112 51/// 333 91106 91205;
0147066210999992010010718004+47600+009283FM-12+044099999V0202101N002619999999N9999999N1-00201-00411101151ADDKA1120M+00061MA1999999095721MD1119999+9999OA149900461REMSYN082AAXX  07184 06621 33/// /2105 11020 21041 39572 40115 51/// 333 10006 91109 91205;
0128066210999992010010719004+47600+009283FM-12+044099999V0202201N001519999999N9999999N1-00241-00431101191ADDMA1999999095751MD1310091+9999OA149900311REMSYN076AAXX  07194 06621 33/// /2203 11024 21043 39575 40119 53009 333 91106 91205;
0128066210999992010010720004+47600+009283FM-12+044099999V0209999C000019999999N9999999N1-00301-00471101191ADDMA1999999095741MD1210051+9999OA149900311REMSYN076AAXX  07204 06621 33/// /0000 11030 21047 39574 40119 52005 333 91106 91205;
0128066210999992010010721004+47600+009283FM-12+044099999V0201401N000519999999N9999999N1-00281-00411101221ADDMA1999999095771MD1210051+9999OA149900311REMSYN076AAXX  07214 06621 33/// /1401 11028 21041 39577 40122 52005 333 91106 91205;
0128066210999992010010722004+47600+009283FM-12+044099999V0201401N001019999999N9999999N1-00241-00341101221ADDMA1999999095781MD1210031+9999OA149900151REMSYN076AAXX  07224 06621 33/// /1402 11024 21034 39578 40122 52003 333 91103 91202;
0128066210999992010010723004+47600+009283FM-12+044099999V0200701N001519999999N9999999N1-00101-00351101191ADDMA1999999095781MD1010041+9999OA149900361REMSYN076AAXX  07234 06621 33/// /0703 11010 21035 39578 40119 50004 333 91107 91203;
0128066210999992010010800004+47600+009283FM-12+044099999V0200501N002619999999N9999999N1-00101-00371101141ADDMA1999999095731MD1710041+9999OA149900511REMSYN076AAXX  08004 06621 33/// /0505 11010 21037 39573 40114 57004 333 91110 91205;
0128066210999992010010801004+47600+009283FM-12+044099999V0200601N003119999999N9999999N1-00121-00361101111ADDMA1999999095701MD1710081+9999OA149900511REMSYN076AAXX  08014 06621 33/// /0606 11012 21036 39570 40111 57008 333 91110 91206;
0128066210999992010010802004+47600+009283FM-12+044099999V0200501N003619999999N9999999N1-00111-00351101111ADDMA1999999095701MD1719999+9999OA149900671REMSYN076AAXX  08024 06621 33/// /0507 11011 21035 39570 40111 57/// 333 91113 91208;
0128066210999992010010803004+47600+009283FM-12+044099999V0200501N004119999999N9999999N1-00191-00291101151ADDMA1999999095721MD1519999+9999OA149900821REMSYN076AAXX  08034 06621 33/// /0508 11019 21029 39572 40115 55/// 333 91116 91210;
0145066210999992010010804004+47600+009283FM-12+044099999V0200301N002619999999N9999999N1-00191-00251101111ADDAA101000021MA1999999095681MD1810021+9999OA149900821REMSYN082AAXX  08044 06621 23/// /0305 11019 21025 39568 40111 58002 333 69915 91116 91210;
0145066210999992010010805004+47600+009283FM-12+044099999V0200501N004119999999N9999999N1-00181-00261101051ADDAA101000021MA1999999095631MD1810071+9999OA149900721REMSYN082AAXX  08054 06621 23/// /0508 11018 21026 39563 40105 58007 333 69925 91114 91209;
0229066210999992010010806004+47600+009283FM-12+044099999V0200501N004619999999N9999999N1-00171-00341101011ADDAA112000391AA224000391AL11800091GJ102589IA2999-00609KA1999N-00311MA1999999095591MD1710131+9999OA149900881REMSYN112AAXX  08064 06621 03/// /0509 11017 21034 39559 40101 57013 69932 333 21031 3/106 55043 60005 70003 91117 91210;
0128066210999992010010807004+47600+009283FM-12+044099999V0200501N005719999999N9999999N1-00181-00391100981ADDMA1999999095561MD1710121+9999OA149900931REMSYN076AAXX  08074 06621 33/// /0511 11018 21039 39556 40098 57012 333 91118 91211;
0128066210999992010010808004+47600+009283FM-12+044099999V0200501N005119999999N9999999N1-00201-00431100961ADDMA1999999095541MD1710091+9999OA149900931REMSYN076AAXX  08084 06621 33/// /0510 11020 21043 39554 40096 57009 333 91118 91212;
0128066210999992010010809004+47600+009283FM-12+044099999V0200501N005719999999N9999999N1-00201-00451100921ADDMA1999999095501MD1710091+9999OA149900981REMSYN076AAXX  08094 06621 33/// /0511 11020 21045 39550 40092 57009 333 91119 91213;
0128066210999992010010810004+47600+009283FM-12+044099999V0200501N005119999999N9999999N1-00191-00421100861ADDMA1999999095451MD1710111+9999OA149900981REMSYN076AAXX  08104 06621 33/// /0510 11019 21042 39545 40086 57011 333 91119 91213;
0128066210999992010010811004+47600+009283FM-12+044099999V0200501N006219999999N9999999N1-00191-00411100791ADDMA1999999095381MD1810161+9999OA149900981REMSYN076AAXX  08114 06621 33/// /0512 11019 21041 39538 40079 58016 333 91119 91212;
0128066210999992010010812004+47600+009283FM-12+044099999V0200401N006219999999N9999999N1-00201-00401100691ADDMA1999999095281MD1810221+9999OA149901081REMSYN076AAXX  08124 06621 33/// /0412 11020 21040 39528 40069 58022 333 91121 91214;
0128066210999992010010813004+47600+009283FM-12+044099999V0200501N006719999999N9999999N1-00201-00391100631ADDMA1999999095231MD1610221+9999OA149901131REMSYN076AAXX  08134 06621 33/// /0513 11020 21039 39523 40063 56022 333 91122 91214;
0128066210999992010010814004+47600+009283FM-12+044099999V0200501N006219999999N9999999N1-00191-00381100611ADDMA1999999095211MD1619999+9999OA149901131REMSYN076AAXX  08144 06621 33/// /0512 11019 21038 39521 40061 56/// 333 91122 91214;
0128066210999992010010815004+47600+009283FM-12+044099999V0200401N005719999999N9999999N1-00181-00361100601ADDMA1999999095201MD1710081+9999OA149901131REMSYN076AAXX  08154 06621 33/// /0411 11018 21036 39520 40060 57008 333 91122 91214;
0128066210999992010010816004+47600+009283FM-12+044099999V0200401N005119999999N9999999N1-00191-00351100621ADDMA1999999095221MD1510011+9999OA149901031REMSYN076AAXX  08164 06621 33/// /0410 11019 21035 39522 40062 55001 333 91120 91212;
0128066210999992010010817004+47600+009283FM-12+044099999V0200301N005119999999N9999999N1-00201-00371100631ADDMA1999999095231MD1219999+9999OA149900981REMSYN076AAXX  08174 06621 33/// /0310 11020 21037 39523 40063 52/// 333 91119 91212;
0147066210999992010010818004+47600+009283FM-12+044099999V0200301N005119999999N9999999N1-00211-00371100651ADDKA1120M-00161MA1999999095241MD1210041+9999OA149901131REMSYN082AAXX  08184 06621 33/// /0310 11021 21037 39524 40065 52004 333 11016 91122 91214;
0128066210999992010010819004+47600+009283FM-12+044099999V0200301N004619999999N9999999N1-00221-00381100711ADDMA1999999095301MD1210081+9999OA149900881REMSYN076AAXX  08194 06621 33/// /0309 11022 21038 39530 40071 52008 333 91117 91211;
0128066210999992010010820004+47600+009283FM-12+044099999V0200201N004619999999N9999999N1-00241-00371100731ADDMA1999999095311MD1210081+9999OA149900821REMSYN076AAXX  08204 06621 33/// /0209 11024 21037 39531 40073 52008 333 91116 91211;
0128066210999992010010821004+47600+009283FM-12+044099999V0200401N004619999999N9999999N1-00241-00411100711ADDMA1999999095291MD1010051+9999OA149900981REMSYN076AAXX  08214 06621 33/// /0409 11024 21041 39529 40071 50005 333 91119 91212;
0128066210999992010010822004+47600+009283FM-12+044099999V0200401N005119999999N9999999N1-00241-00411100701ADDMA1999999095281MD1810021+9999OA149900881REMSYN076AAXX  08224 06621 33/// /0410 11024 21041 39528 40070 58002 333 91117 91211;
0128066210999992010010823004+47600+009283FM-12+044099999V0200401N004619999999N9999999N1-00231-00441100721ADDMA1999999095311MD1510001+9999OA149900881REMSYN076AAXX  08234 06621 33/// /0409 11023 21044 39531 40072 55000 333 91117 91211;
0147066210999992010010900004+47600+009283FM-12+044099999V0200401N005119999999N9999999N1-00241-00411100711ADDMA1999999095291MD1410001+9999OA149901131REMSYN076AAXX  09004 06621 33/// /0410 11024 21041 39529 40071 52000 333 91122 91214;EQDQ01+000022APCTEN
0128066210999992010010901004+47600+009283FM-12+044099999V0200301N004119999999N9999999N1-00271-00431100721ADDMA1999999095301MD1210021+9999OA149900981REMSYN076AAXX  09014 06621 33/// /0308 11027 21043 39530 40072 52002 333 91119 91210;
0128066210999992010010902004+47600+009283FM-12+044099999V0200301N004119999999N9999999N1-00301-00461100751ADDMA1999999095321MD1219999+9999OA149900821REMSYN076AAXX  09024 06621 33/// /0308 11030 21046 39532 40075 52/// 333 91116 91210;
0128066210999992010010903004+47600+009283FM-12+044099999V0200301N003119999999N9999999N1-00331-00481100781ADDMA1999999095341MD1219999+9999OA149900981REMSYN076AAXX  09034 06621 33/// /0306 11033 21048 39534 40078 52/// 333 91119 91211;
0128066210999992010010904004+47600+009283FM-12+044099999V0200101N002119999999N9999999N1-00361-00511100751ADDMA1999999095311MD1010011+9999OA149900671REMSYN076AAXX  09044 06621 33/// /0104 11036 21051 39531 40075 50001 333 91113 91207;
0128066210999992010010905004+47600+009283FM-12+044099999V0200201N001519999999N9999999N1-00371-00541100731ADDMA1999999095291MD1810031+9999OA149900621REMSYN076AAXX  09054 06621 33/// /0203 11037 21054 39529 40073 58003 333 91112 91206;
0225066210999992010010906004+47600+009283FM-12+044099999V0203601N002619999999N9999999N1-00401-00551100681ADDAA124000091AL19900091GJ100009IA2999-00409KA1999N-00381MA1999999095231MD1710111+9999OA149900981REMSYN100AAXX  09064 06621 33/// /3605 11040 21055 39523 40068 57011 333 21038 3/104 55000 70000 91119 91211;EQDQ01  00002PRCP24
0128066210999992010010907004+47600+009283FM-12+044099999V0209999C001519999999N9999999N1-00401-00581100691ADDMA1999999095241MD1710071+9999OA149900461REMSYN076AAXX  09074 06621 33/// /0003 11040 21058 39524 40069 57007 333 91109 91205;
0128066210999992010010908004+47600+009283FM-12+044099999V0200301N003119999999N9999999N1-00401-00581100691ADDMA1999999095241MD1510051+9999OA149900511REMSYN076AAXX  09084 06621 33/// /0306 11040 21058 39524 40069 55005 333 91110 91206;
0128066210999992010010909004+47600+009283FM-12+044099999V0200401N002619999999N9999999N1-00401-00571100701ADDMA1999999095251MD1210021+9999OA149900621REMSYN076AAXX  09094 06621 33/// /0405 11040 21057 39525 40070 52002 333 91112 91206;
0128066210999992010010910004+47600+009283FM-12+044099999V0200401N002119999999N9999999N1-00401-00561100681ADDMA1999999095231MD1810011+9999OA149900511REMSYN076AAXX  09104 06621 33/// /0404 11040 21056 39523 40068 58001 333 91110 91205;
0128066210999992010010911004+47600+009283FM-12+044099999V0200301N004119999999N9999999N1-00381-00561100671ADDMA1999999095231MD1710011+9999OA149900671REMSYN076AAXX  09114 06621 33/// /0308 11038 21056 39523 40067 57001 333 91113 91208;
0128066210999992010010912004+47600+009283FM-12+044099999V0200301N004119999999N9999999N1-00361-00561100581ADDMA1999999095151MD1710101+9999OA149900821REMSYN076AAXX  09124 06621 33/// /0308 11036 21056 39515 40058 57010 333 91116 91210;
0128066210999992010010913004+47600+009283FM-12+044099999V0200301N004619999999N9999999N1-00361-00541100551ADDMA1999999095121MD1710111+9999OA149900721REMSYN076AAXX  09134 06621 33/// /0309 11036 21054 39512 40055 57011 333 91114 91209;
0128066210999992010010914004+47600+009283FM-12+044099999V0200501N003619999999N9999999N1-00381-00561100591ADDMA1999999095151MD1510081+9999OA149900821REMSYN076AAXX  09144 06621 33/// /0507 11038 21056 39515 40059 55008 333 91116 91209;
0128066210999992010010915004+47600+009283FM-12+044099999V0200301N003119999999N9999999N1-00391-00541100621ADDMA1999999095181MD1310031+9999OA149900821REMSYN076AAXX  09154 06621 33/// /0306 11039 21054 39518 40062 53003 333 91116 91209;
0128066210999992010010916004+47600+009283FM-12+044099999V0200401N004119999999N9999999N1-00411-00551100641ADDMA1999999095191MD1210071+9999OA149900771REMSYN076AAXX  09164 06621 33/// /0408 11041 21055 39519 40064 52007 333 91115 91209;
0128066210999992010010917004+47600+009283FM-12+044099999V0200301N001519999999N9999999N1-00411-00521100651ADDMA1999999095201MD1210051+9999OA149900671REMSYN076AAXX  09174 06621 33/// /0303 11041 21052 39520 40065 52005 333 91113 91208;
0147066210999992010010918004+47600+009283FM-12+044099999V0200301N002119999999N9999999N1-00391-00581100651ADDKA1120M-00361MA1999999095211MD1110031+9999OA149900821REMSYN082AAXX  09184 06621 33/// /0304 11039 21058 39521 40065 51003 333 11036 91116 91209;
0128066210999992010010919004+47600+009283FM-12+044099999V0200101N001519999999N9999999N1-00371-00571100681ADDMA1999999095241MD1310051+9999OA149900571REMSYN076AAXX  09194 06621 33/// /0103 11037 21057 39524 40068 53005 333 91111 91207;
0128066210999992010010920004+47600+009283FM-12+044099999V0203601N001019999999N9999999N1-00371-00561100711ADDMA1999999095271MD1110071+9999OA149900411REMSYN076AAXX  09204 06621 33/// /3602 11037 21056 39527 40071 51007 333 91108 91205;
0128066210999992010010921004+47600+009283FM-12+044099999V0203501N001019999999N9999999N1-00361-00551100721ADDMA1999999095281MD1110071+9999OA149900671REMSYN076AAXX  09214 06621 33/// /3502 11036 21055 39528 40072 51007 333 91113 91208;
0128066210999992010010922004+47600+009283FM-12+044099999V0203101N001019999999N9999999N1-00371-00531100751ADDMA1999999095311MD1110071+9999OA149900311REMSYN076AAXX  09224 06621 33/// /3102 11037 21053 39531 40075 51007 333 91106 91203;
0128066210999992010010923004+47600+009283FM-12+044099999V0203001N000519999999N9999999N1-00371-00541100821ADDMA1999999095371MD1310101+9999OA149900311REMSYN076AAXX  09234 06621 33/// /3001 11037 21054 39537 40082 53010 333 91106 91203;
0128066210999992010011000004+47600+009283FM-12+044099999V0202601N002119999999N9999999N1-00371-00521100811ADDMA1999999095361MD1210081+9999OA149900821REMSYN076AAXX  10004 06621 33/// /2604 11037 21052 39536 40081 52008 333 91116 91209;
0128066210999992010011001004+47600+009283FM-12+044099999V0202601N001519999999N9999999N1-00371-00521100851ADDMA1999999095401MD1210091+9999OA149900311REMSYN076AAXX  10014 06621 33/// /2603 11037 21052 39540 40085 52009 333 91106 91204;
0087066210999992010011002004+47600+009283FM-12+044099999V0202601N001519999999N9999999N1-00371-00531100901ADDMA1999999095451REMSYN060AAXX  10024 06621 33/// /2603 11037 21053 39545 40090 5////;
0087066210999992010011003004+47600+009283FM-12+044099999V0202701N001519999999N9999999N1-00381-00531100941ADDMA1999999095481REMSYN060AAXX  10034 06621 43/// /2703 11038 21053 39548 40094 5////;
0128066210999992010011004004+47600+009283FM-12+044099999V0202701N001519999999N9999999N1-00381-00531100991ADDMA1999999095531MD1110131+9999OA149900311REMSYN076AAXX  10044 06621 33/// /2703 11038 21053 39553 40099 51013 333 91106 91204;
0128066210999992010011005004+47600+009283FM-12+044099999V0202601N002119999999N9999999N1-00381-00531101041ADDMA1999999095581MD1310131+9999OA149900311REMSYN076AAXX  10054 06621 33/// /2604 11038 21053 39558 40104 53013 333 91106 91204;
0225066210999992010011006004+47600+009283FM-12+044099999V0202601N002119999999N9999999N1-00401-00551101101ADDAA124000091AL19900091GJ100009IA2999-00409KA1999N-00401MA1999999095631MD1110151+9999OA149900411REMSYN100AAXX  10064 06621 33/// /2604 11040 21055 39563 40110 51015 333 21040 3/104 55000 70000 91108 91205;EQDQ01  00002PRCP24
0128066210999992010011007004+47600+009283FM-12+044099999V0202401N002619999999N9999999N1-00411-00551101161ADDMA1999999095691MD1310161+9999OA149900411REMSYN076AAXX  10074 06621 33/// /2405 11041 21055 39569 40116 53016 333 91108 91205;
0128066210999992010011008004+47600+009283FM-12+044099999V0202601N002119999999N9999999N1-00411-00561101251ADDMA1999999095771MD1319999+9999OA149900411REMSYN076AAXX  10084 06621 33/// /2604 11041 21056 39577 40125 53/// 333 91108 91205;
0128066210999992010011009004+47600+009283FM-12+044099999V0202601N002119999999N9999999N1-00391-00581101341ADDMA1999999095861MD1310231+9999OA149900411REMSYN076AAXX  10094 06621 33/// /2604 11039 21058 39586 40134 53023 333 91108 91205;
0128066210999992010011010004+47600+009283FM-12+044099999V0202601N002119999999N9999999N1-00321-00631101391ADDMA1999999095921MD1110231+9999OA149900411REMSYN076AAXX  10104 06621 33/// /2604 11032 21063 39592 40139 51023 333 91108 91205;
0128066210999992010011011004+47600+009283FM-12+044099999V0202801N002619999999N9999999N1-00291-00631101411ADDMA1999999095951MD1110181+9999OA149900411REMSYN076AAXX  10114 06621 33/// /2805 11029 21063 39595 40141 51018 333 91108 91205;
0128066210999992010011012004+47600+009283FM-12+044099999V0202901N003619999999N9999999N1-00271-00601101441ADDMA1999999095981MD1110121+9999OA149900571REMSYN076AAXX  10124 06621 33/// /2907 11027 21060 39598 40144 51012 333 91111 91207;
0128066210999992010011013004+47600+009283FM-12+044099999V0202901N003619999999N9999999N1-00241-00671101451ADDMA1999999095991MD1210071+9999OA149900571REMSYN076AAXX  10134 06621 33/// /2907 11024 21067 39599 40145 52007 333 91111 91207;
0128066210999992010011014004+47600+009283FM-12+044099999V0202801N003619999999N9999999N1-00261-00721101501ADDMA1999999096041MD1219999+9999OA149900621REMSYN076AAXX  10144 06621 33/// /2807 11026 21072 39604 40150 52/// 333 91112 91207;
0128066210999992010011015004+47600+009283FM-12+044099999V0202801N002619999999N9999999N1-00311-00711101581ADDMA1999999096101MD1210121+9999OA149900671REMSYN076AAXX  10154 06621 33/// /2805 11031 21071 39610 40158 52012 333 91113 91208;
0128066210999992010011016004+47600+009283FM-12+044099999V0202801N001519999999N9999999N1-00421-00761101661ADDMA1999999096161MD1210171+9999OA149900671REMSYN076AAXX  10164 06621 33/// /2803 11042 21076 39616 40166 52017 333 91113 91208;
0128066210999992010011017004+47600+009283FM-12+044099999V0202701N002119999999N9999999N1-00481-00761101711ADDMA1999999096191MD1110151+9999OA149900461REMSYN076AAXX  10174 06621 33/// /2704 11048 21076 39619 40171 51015 333 91109 91205;
0147066210999992010011018004+47600+009283FM-12+044099999V0202501N001019999999N9999999N1-00501-00751101771ADDKA1120M-00241MA1999999096241MD1110141+9999OA149900671REMSYN082AAXX  10184 06621 33/// /2502 11050 21075 39624 40177 51014 333 11024 91113 91208;
0128066210999992010011019004+47600+009283FM-12+044099999V0202101N002619999999N9999999N1-00571-00771101791ADDMA1999999096251MD1219999+9999OA149900311REMSYN076AAXX  10194 06621 33/// /2105 11057 21077 39625 40179 52/// 333 91106 91205;
0128066210999992010011020004+47600+009283FM-12+044099999V0202101N002619999999N9999999N1-00491-00701101821ADDMA1999999096291MD1210101+9999OA149900361REMSYN076AAXX  10204 06621 33/// /2105 11049 21070 39629 40182 52010 333 91107 91205;
0128066210999992010011021004+47600+009283FM-12+044099999V0202201N002119999999N9999999N1-00461-00681101811ADDMA1999999096291MD1210051+9999OA149900461REMSYN076AAXX  10214 06621 33/// /2204 11046 21068 39629 40181 52005 333 91109 91205;
0128066210999992010011022004+47600+009283FM-12+044099999V0202301N002619999999N9999999N1-00431-00661101811ADDMA1999999096301MD1219999+9999OA149900311REMSYN076AAXX  10224 06621 33/// /2305 11043 21066 39630 40181 52/// 333 91106 91205;
0128066210999992010011023004+47600+009283FM-12+044099999V0202401N002119999999N9999999N1-00431-00671101801ADDMA1999999096291MD1410001+9999OA149900311REMSYN076AAXX  10234 06621 33/// /2404 11043 21067 39629 40180 54000 333 91106 91205;
0128066210999992010011100004+47600+009283FM-12+044099999V0202301N001519999999N9999999N1-00441-00671101771ADDMA1999999096261MD1810031+9999OA149900671REMSYN076AAXX  11004 06621 33/// /2303 11044 21067 39626 40177 58003 333 91113 91208;
0128066210999992010011101004+47600+009283FM-12+044099999V0202401N001519999999N9999999N1-00421-00671101771ADDMA1999999096261MD1710041+9999OA149900311REMSYN076AAXX  11014 06621 33/// /2403 11042 21067 39626 40177 57004 333 91106 91204;
0128066210999992010011102004+47600+009283FM-12+044099999V0202701N001519999999N9999999N1-00381-00731101781ADDMA1999999096281MD1519999+9999OA149900311REMSYN076AAXX  11024 06621 33/// /2703 11038 21073 39628 40178 55/// 333 91106 91204;
0128066210999992010011103004+47600+009283FM-12+044099999V0202801N001519999999N9999999N1-00381-00731101781ADDMA1999999096281MD1219999+9999OA149900311REMSYN076AAXX  11034 06621 33/// /2803 11038 21073 39628 40178 52/// 333 91106 91205;
0128066210999992010011104004+47600+009283FM-12+044099999V0202201N001519999999N9999999N1-00411-00681101781ADDMA1999999096271MD1010011+9999OA149900311REMSYN076AAXX  11044 06621 33/// /2203 11041 21068 39627 40178 50001 333 91106 91203;
0128066210999992010011105004+47600+009283FM-12+044099999V0202201N002619999999N9999999N1-00431-00631101771ADDMA1999999096261MD1610021+9999OA149900411REMSYN076AAXX  11054 06621 33/// /2205 11043 21063 39626 40177 56002 333 91108 91205;
0225066210999992010011106004+47600+009283FM-12+044099999V0202201N002119999999N9999999N1-00431-00651101761ADDAA124000091AL19900091GJ100489IA2999-00909KA1999N-00591MA1999999096251MD1710031+9999OA149900411REMSYN100AAXX  11064 06621 33/// /2204 11043 21065 39625 40176 57003 333 21059 3/109 55008 70000 91108 91205;EQDQ01  00002PRCP24
0128066210999992010011107004+47600+009283FM-12+044099999V0202701N002119999999N9999999N1-00431-00661101771ADDMA1999999096261MD1710011+9999OA149900361REMSYN076AAXX  11074 06621 33/// /2704 11043 21066 39626 40177 57001 333 91107 91205;
0128066210999992010011108004+47600+009283FM-12+044099999V0202301N002619999999N9999999N1-00401-00671101761ADDMA1999999096261MD1519999+9999OA149900361REMSYN076AAXX  11084 06621 33/// /2305 11040 21067 39626 40176 55/// 333 91107 91205;
0128066210999992010011109004+47600+009283FM-12+044099999V0202301N002119999999N9999999N1-00351-00661101761ADDMA1999999096271MD1210021+9999OA149900411REMSYN076AAXX  11094 06621 33/// /2304 11035 21066 39627 40176 52002 333 91108 91205;
0128066210999992010011110004+47600+009283FM-12+044099999V0202601N000519999999N9999999N1-00301-00671101751ADDMA1999999096271MD1519999+9999OA149900361REMSYN076AAXX  11104 06621 33/// /2601 11030 21067 39627 40175 55/// 333 91107 91205;
0128066210999992010011111004+47600+009283FM-12+044099999V0202901N002119999999N9999999N1-00251-00631101711ADDMA1999999096241MD1810021+9999OA149900361REMSYN076AAXX  11114 06621 33/// /2904 11025 21063 39624 40171 58002 333 91107 91204;
0128066210999992010011112004+47600+009283FM-12+044099999V0202801N002119999999N9999999N1-00241-00621101681ADDMA1999999096211MD1710061+9999OA149900411REMSYN076AAXX  11124 06621 33/// /2804 11024 21062 39621 40168 57006 333 91108 91205;
0128066210999992010011113004+47600+009283FM-12+044099999V0202701N002619999999N9999999N1-00321-00531101681ADDMA1999999096201MD1610071+9999OA149900411REMSYN076AAXX  11134 06621 33/// /2705 11032 21053 39620 40168 56007 333 91108 91205;
0108066210999992010011114004+47600+009283FM-12+044099999V0203001N001519999999N9999999N1-00311-00491101711ADDAA101000021MA1999999096231REMSYN070AAXX  11144 06621 23/// /3003 11031 21049 39623 40171 5//// 333 69915;
0128066210999992010011115004+47600+009283FM-12+044099999V0202601N001519999999N9999999N1-00311-00501101751ADDMA1999999096261MD1310051+9999OA149900411REMSYN076AAXX  11154 06621 33/// /2603 11031 21050 39626 40175 53005 333 91108 91205;
0145066210999992010011116004+47600+009283FM-12+044099999V0202701N001019999999N9999999N1-00341-00451101791ADDAA101000021MA1999999096301MD1110101+9999OA149900311REMSYN082AAXX  11164 06621 23/// /2702 11034 21045 39630 40179 51010 333 69925 91106 91203;
0145066210999992010011117004+47600+009283FM-12+044099999V0202701N001019999999N9999999N1-00351-00421101841ADDAA101000591MA1999999096341MD1110111+9999OA149900261REMSYN082AAXX  11174 06621 23/// /2702 11035 21042 39634 40184 51011 333 69955 91105 91203;
0170066210999992010011118004+47600+009283FM-12+044099999V0202601N001019999999N9999999N1-00341-00431101881ADDAA112001091KA1120M-00241MA1999999096381MD1210121+9999OA149900411REMSYN094AAXX  11184 06621 03/// /2602 11034 21043 39638 40188 52012 60012 333 11024 69945 91108 91205;
0145066210999992010011119004+47600+009283FM-12+044099999V0202501N002119999999N9999999N1-00341-00471101901ADDAA101000021MA1999999096401MD1210101+9999OA149900411REMSYN082AAXX  11194 06621 23/// /2504 11034 21047 39640 40190 52010 333 69915 91108 91204;
0145066210999992010011120004+47600+009283FM-12+044099999V0202501N002119999999N9999999N1-00351-00481101901ADDAA101000021MA1999999096401MD1210061+9999OA149900461REMSYN082AAXX  11204 06621 23/// /2504 11035 21048 39640 40190 52006 333 69915 91109 91206;
0145066210999992010011121004+47600+009283FM-12+044099999V0202301N002119999999N9999999N1-00361-00461101931ADDAA101000021MA1999999096421MD1210041+9999OA149900461REMSYN082AAXX  11214 06621 23/// /2304 11036 21046 39642 40193 52004 333 69925 91109 91206;
0145066210999992010011122004+47600+009283FM-12+044099999V0202601N001019999999N9999999N1-00351-00451101941ADDAA101000021MA1999999096441MD1310041+9999OA149900461REMSYN082AAXX  11224 06621 23/// /2602 11035 21045 39644 40194 53004 333 69915 91109 91204;
0145066210999992010011123004+47600+009283FM-12+044099999V0202401N001519999999N9999999N1-00351-00441101941ADDAA101000391MA1999999096441MD1210041+9999OA149900361REMSYN082AAXX  11234 06621 23/// /2403 11035 21044 39644 40194 52004 333 69935 91107 91204;
0151066210999992010011200004+47600+009283FM-12+044099999V0202301N002119999999N9999999N1-00351-00451101941ADDAA106001091MA1999999096441MD1010021+9999OA149900461REMSYN088AAXX  12004 06621 03/// /2304 11035 21045 39644 40194 50002 69991 333 69915 91109 91206;
0145066210999992010011201004+47600+009283FM-12+044099999V0202401N001519999999N9999999N1-00351-00431101961ADDAA101000391MA1999999096451MD1010011+9999OA149900361REMSYN082AAXX  12014 06621 23/// /2403 11035 21043 39645 40196 50001 333 69935 91107 91204;
0128066210999992010011202004+47600+009283FM-12+044099999V0202401N002119999999N9999999N1-00331-00451101941ADDMA1999999096441MD1719999+9999OA149900361REMSYN076AAXX  12024 06621 33/// /2404 11033 21045 39644 40194 57/// 333 91107 91204;
0145066210999992010011203004+47600+009283FM-12+044099999V0202501N002119999999N9999999N1-00321-00481101931ADDAA101000021MA1999999096431MD1710011+9999OA149900411REMSYN082AAXX  12034 06621 23/// /2504 11032 21048 39643 40193 57001 333 69915 91108 91205;
0128066210999992010011204004+47600+009283FM-12+044099999V0202401N002119999999N9999999N1-00331-00461101941ADDMA1999999096441MD1510011+9999OA149900411REMSYN076AAXX  12044 06621 33/// /2404 11033 21046 39644 40194 55001 333 91108 91205;
0128066210999992010011205004+47600+009283FM-12+044099999V0202301N000519999999N9999999N1-00371-00451101921ADDMA1999999096411MD1710031+9999OA149900361REMSYN076AAXX  12054 06621 33/// /2301 11037 21045 39641 40192 57003 333 91107 91204;
0229066210999992010011206004+47600+009283FM-12+044099999V0202301N000519999999N9999999N1-00391-00451101901ADDAA112001091AA224002591AL13000291GJ100009IA2999-00409KA1999N-00401MA1999999096391MD1710041+9999OA149900461REMSYN112AAXX  12064 06621 03/// /2301 11039 21045 39639 40190 57004 60012 333 21040 3/104 55000 60005 70025 91109 91206;
0128066210999992010011207004+47600+009283FM-12+044099999V0202001N001019999999N9999999N1-00401-00461101871ADDMA1999999096361MD1810081+9999OA149900151REMSYN076AAXX  12074 06621 33/// /2002 11040 21046 39636 40187 58008 333 91103 91202;
0128066210999992010011208004+47600+009283FM-12+044099999V0209999C000019999999N9999999N1-00381-00441101821ADDMA1999999096321MD1819999+9999OA149900151REMSYN076AAXX  12084 06621 33/// /0000 11038 21044 39632 40182 58/// 333 91103 91202;
0128066210999992010011209004+47600+009283FM-12+044099999V0209999C000019999999N9999999N1-00271-00431101741ADDMA1999999096261MD1810131+9999OA149900361REMSYN076AAXX  12094 06621 33/// /0000 11027 21043 39626 40174 58013 333 91107 91204;
0128066210999992010011210004+47600+009283FM-12+044099999V0209999C000019999999N9999999N1-00161-00421101631ADDMA1999999096181MD1810181+9999OA149900101REMSYN076AAXX  12104 06621 33/// /0000 11016 21042 39618 40163 58018 333 91102 91201;
0128066210999992010011211004+47600+009283FM-12+044099999V0200501N002119999999N9999999N1-00161-00331101521ADDMA1999999096081MD1810241+9999OA149900411REMSYN076AAXX  12114 06621 33/// /0504 11016 21033 39608 40152 58024 333 91108 91205;
0128066210999992010011212004+47600+009283FM-12+044099999V0200401N002119999999N9999999N1-00131-00321101411ADDMA1999999095981MD1810281+9999OA149900411REMSYN076AAXX  12124 06621 33/// /0404 11013 21032 39598 40141 58028 333 91108 91205;
0128066210999992010011213004+47600+009283FM-12+044099999V0200201N000519999999N9999999N1-00071-00381101341ADDMA1999999095921MD1610261+9999OA149900411REMSYN076AAXX  12134 06621 33/// /0201 11007 21038 39592 40134 56026 333 91108 91205;
0087066210999992010011214004+47600+009283FM-12+044099999V0202701N001019999999N9999999N1-00111-00401101291ADDMA1999999095871REMSYN060AAXX  12144 06621 33/// /2702 11011 21040 39587 40129 5////;
0128066210999992010011215004+47600+009283FM-12+044099999V0202201N000519999999N9999999N1-00171-00391101231ADDMA1999999095801MD1710181+9999OA149900411REMSYN076AAXX  12154 06621 33/// /2201 11017 21039 39580 40123 57018 333 91108 91205;
0128066210999992010011216004+47600+009283FM-12+044099999V0200301N002119999999N9999999N1-00151-00331101131ADDMA1999999095711MD1710211+9999OA149900411REMSYN076AAXX  12164 06621 33/// /0304 11015 21033 39571 40113 57021 333 91108 91204;
0128066210999992010011217004+47600+009283FM-12+044099999V0200501N003119999999N9999999N1-00121-00301101051ADDMA1999999095641MD1710231+9999OA149900511REMSYN076AAXX  12174 06621 33/// /0506 11012 21030 39564 40105 57023 333 91110 91206;
0147066210999992010011218004+47600+009283FM-12+044099999V0200401N003119999999N9999999N1-00141-00321101011ADDKA1120M-00061MA1999999095601MD1610201+9999OA149900571REMSYN082AAXX  12184 06621 33/// /0406 11014 21032 39560 40101 56020 333 11006 91111 91207;
0128066210999992010011219004+47600+009283FM-12+044099999V0200401N002619999999N9999999N1-00181-00361101011ADDMA1999999095591MD1710121+9999OA149900621REMSYN076AAXX  12194 06621 33/// /0405 11018 21036 39559 40101 57012 333 91112 91207;
0128066210999992010011220004+47600+009283FM-12+044099999V0200501N002619999999N9999999N1-00181-00341101001ADDMA1999999095581MD1710061+9999OA149900621REMSYN076AAXX  12204 06621 33/// /0505 11018 21034 39558 40100 57006 333 91112 91207;
0128066210999992010011221004+47600+009283FM-12+044099999V0200501N003119999999N9999999N1-00171-00321100911ADDMA1999999095501MD1710101+9999OA149900621REMSYN076AAXX  12214 06621 33/// /0506 11017 21032 39550 40091 57010 333 91112 91207;
0128066210999992010011222004+47600+009283FM-12+044099999V0200501N002619999999N9999999N1-00191-00331100851ADDMA1999999095441MD1710151+9999OA149900621REMSYN076AAXX  12224 06621 33/// /0505 11019 21033 39544 40085 57015 333 91112 91206;
0128066210999992010011223004+47600+009283FM-12+044099999V0200501N002119999999N9999999N1-00211-00341100811ADDMA1999999095391MD1610191+9999OA149900511REMSYN076AAXX  12234 06621 33/// /0504 11021 21034 39539 40081 56019 333 91110 91206;
0128066210999992010011300004+47600+009283FM-12+044099999V0200201N000519999999N9999999N1-00221-00331100751ADDMA1999999095341MD1610161+9999OA149900621REMSYN076AAXX  13004 06621 33/// /0201 11022 21033 39534 40075 56016 333 91112 91207;
0128066210999992010011301004+47600+009283FM-12+044099999V0202701N001519999999N9999999N1-00231-00331100821ADDMA1999999095401MD1510041+9999OA149900411REMSYN076AAXX  13014 06621 33/// /2703 11023 21033 39540 40082 55004 333 91108 91205;
0128066210999992010011302004+47600+009283FM-12+044099999V0202701N001019999999N9999999N1-00231-00361100901ADDMA1999999095481MD1319999+9999OA149900361REMSYN076AAXX  13024 06621 33/// /2702 11023 21036 39548 40090 53/// 333 91107 91204;
0128066210999992010011303004+47600+009283FM-12+044099999V0200501N001019999999N9999999N1-00231-00341100831ADDMA1999999095411MD1019999+9999OA149900511REMSYN076AAXX  13034 06621 33/// /0502 11023 21034 39541 40083 50/// 333 91110 91206;
0128066210999992010011304004+47600+009283FM-12+044099999V0201401N001019999999N9999999N1-00251-00341100731ADDMA1999999095311MD1810091+9999OA149900211REMSYN076AAXX  13044 06621 33/// /1402 11025 21034 39531 40073 58009 333 91104 91202;
0128066210999992010011305004+47600+009283FM-12+044099999V0200601N001519999999N9999999N1-00231-00321100701ADDMA1999999095291MD1610191+9999OA149900311REMSYN076AAXX  13054 06621 33/// /0603 11023 21032 39529 40070 56019 333 91106 91203;
0225066210999992010011306004+47600+009283FM-12+044099999V0201001N000519999999N9999999N1-00211-00311100721ADDAA124000091AL19900091GJ101029IA2999-00309KA1999N-00251MA1999999095311MD1510101+9999OA149900621REMSYN100AAXX  13064 06621 33/// /1001 11021 21031 39531 40072 55010 333 21025 3/103 55017 70000 91112 91207;EQDQ01  00002PRCP24
0128066210999992010011307004+47600+009283FM-12+044099999V0201701N001019999999N9999999N1-00231-00321100771ADDMA1999999095351MD1310041+9999OA149900261REMSYN076AAXX  13074 06621 33/// /1702 11023 21032 39535 40077 53004 333 91105 91203;
0128066210999992010011308004+47600+009283FM-12+044099999V0201001N000519999999N9999999N1-00201-00301100801ADDMA1999999095391MD1210101+9999OA149900151REMSYN076AAXX  13084 06621 33/// /1001 11020 21030 39539 40080 52010 333 91103 91202;
0128066210999992010011309004+47600+009283FM-12+044099999V0203001N000519999999N9999999N1-00161-00301100901ADDMA1999999095491MD1210181+9999OA149900311REMSYN076AAXX  13094 06621 33/// /3001 11016 21030 39549 40090 52018 333 91106 91203;
0128066210999992010011310004+47600+009283FM-12+044099999V0201301N001019999999N9999999N1-00121-00271100921ADDMA1999999095521MD1110171+9999OA149900211REMSYN076AAXX  13104 06621 33/// /1302 11012 21027 39552 40092 51017 333 91104 91202;
0128066210999992010011311004+47600+009283FM-12+044099999V0201401N000519999999N9999999N1-00091-00251100941ADDMA1999999095541MD1110151+9999OA149900151REMSYN076AAXX  13114 06621 33/// /1401 11009 21025 39554 40094 51015 333 91103 91202;
0128066210999992010011312004+47600+009283FM-12+044099999V0201101N001019999999N9999999N1-00081-00211100921ADDMA1999999095521MD1010031+9999OA149900361REMSYN076AAXX  13124 06621 33/// /1102 11008 21021 39552 40092 50003 333 91107 91204;
0128066210999992010011313004+47600+009283FM-12+044099999V0201101N001019999999N9999999N1-00061-00191100911ADDMA1999999095521MD1010001+9999OA149900211REMSYN076AAXX  13134 06621 33/// /1102 11006 21019 39552 40091 50000 333 91104 91203;
0128066210999992010011314004+47600+009283FM-12+044099999V0201101N001519999999N9999999N1-00051-00181100931ADDMA1999999095541MD1319999+9999OA149900261REMSYN076AAXX  13144 06621 33/// /1103 11005 21018 39554 40093 53/// 333 91105 91204;
0128066210999992010011315004+47600+009283FM-12+044099999V0201201N001519999999N9999999N1-00051-00161100941ADDMA1999999095551MD1210031+9999OA149900261REMSYN076AAXX  13154 06621 33/// /1203 11005 21016 39555 40094 52003 333 91105 91204;
0145066210999992010011316004+47600+009283FM-12+044099999V0201401N001519999999N9999999N1-00061-00141100971ADDAA101000021MA1999999095581MD1310061+9999OA149900261REMSYN082AAXX  13164 06621 23/// /1403 11006 21014 39558 40097 53006 333 69925 91105 91203;
0145066210999992010011317004+47600+009283FM-12+044099999V0201501N001019999999N9999999N1-00041-00101101011ADDAA101000021MA1999999095621MD1310081+9999OA149900261REMSYN082AAXX  13174 06621 23/// /1502 11004 21010 39562 40101 53008 333 69925 91105 91203;
0170066210999992010011318004+47600+009283FM-12+044099999V0201501N001519999999N9999999N1-00021-00051101051ADDAA112000891KA1120M-00031MA1999999095661MD1310111+9999OA149900261REMSYN094AAXX  13184 06621 03/// /1503 11002 21005 39566 40105 53011 69982 333 11003 69945 91105 91204;
0145066210999992010011319004+47600+009283FM-12+044099999V0201401N000519999999N9999999N1+00021+00001101061ADDAA101000591MA1999999095681MD1110101+9999OA149900261REMSYN082AAXX  13194 06621 23/// /1401 10002 20000 39568 40106 51010 333 69955 91105 91203;
0145066210999992010011320004+47600+009283FM-12+044099999V0209999C000019999999N9999999N1+00031+00031101071ADDAA101000591MA1999999095691MD1110071+9999OA149900211REMSYN082AAXX  13204 06621 23/// /0000 10003 20003 39569 40107 51007 333 69945 91104 91203;
0145066210999992010011321004+47600+009283FM-12+044099999V0201501N001019999999N9999999N1+00041+00041101081ADDAA101000021MA1999999095701MD1110041+9999OA149900261REMSYN082AAXX  13214 06621 23/// /1502 10004 20004 39570 40108 51004 333 69925 91105 91203;
0128066210999992010011322004+47600+009283FM-12+044099999V0201301N001019999999N9999999N1+00051+00051101081ADDMA1999999095701MD1110021+9999OA149900211REMSYN076AAXX  13224 06621 33/// /1302 10005 20005 39570 40108 51002 333 91104 91203;
0128066210999992010011323004+47600+009283FM-12+044099999V0201701N001519999999N9999999N1+00051+00051101051ADDMA1999999095671MD1810021+9999OA149900211REMSYN076AAXX  13234 06621 33/// /1703 10005 20005 39567 40105 58002 333 91104 91203;
0151066210999992010011400004+47600+009283FM-12+044099999V0201601N001019999999N9999999N1+00051+00051100991ADDAA106001091MA1999999095621MD1810081+9999OA149900261REMSYN088AAXX  14004 06621 03/// /1602 10005 20005 39562 40099 58008 60011 333 60005 91105 91204;
0128066210999992010011401004+47600+009283FM-12+044099999V0201801N001019999999N9999999N1+00081+00081100981ADDMA1999999095611MD1710091+9999OA149900211REMSYN076AAXX  14014 06621 33/// /1802 10008 20008 39561 40098 57009 333 91104 91203;
0128066210999992010011402004+47600+009283FM-12+044099999V0209999C000019999999N9999999N1+00121+00121100951ADDMA1999999095591MD1719999+9999OA149900211REMSYN076AAXX  14024 06621 33/// /0000 10012 20012 39559 40095 57/// 333 91104 91203;
0087066210999992010011403004+47600+009283FM-12+044099999V0200701N000519999999N9999999N1+00101+00101100881ADDMA1999999095521REMSYN060AAXX  14034 06621 33/// /0701 10010 20010 39552 40088 5////;
0128066210999992010011404004+47600+009283FM-12+044099999V0203501N001019999999N9999999N1+00121+00121100841ADDMA1999999095491MD1810121+9999OA149900151REMSYN076AAXX  14044 06621 33/// /3502 10012 20012 39549 40084 58012 333 91103 91202;
0128066210999992010011405004+47600+009283FM-12+044099999V0203201N001019999999N9999999N1+00141+00141100841ADDMA1999999095491MD1710101+9999OA149900311REMSYN076AAXX  14054 06621 33/// /3202 10014 20014 39549 40084 57010 333 91106 91203;
0229066210999992010011406004+47600+009283FM-12+044099999V0200501N000519999999N9999999N1+00121+00121100841ADDAA112001091AA224001891AL14800191GJ100009IA2999-00109KA1999N-00021MA1999999095491MD1510031+9999OA149900311REMSYN112AAXX  14064 06621 03/// /0501 10012 20012 39549 40084 55003 60012 333 21002 3/101 55000 60005 70019 91106 91203;
0128066210999992010011407004+47600+009283FM-12+044099999V0200701N001519999999N9999999N1+00051+00051100851ADDMA1999999095481MD1710011+9999OA149900361REMSYN076AAXX  14074 06621 33/// /0703 10005 20005 39548 40085 57001 333 91107 91204;
0128066210999992010011408004+47600+009283FM-12+044099999V0200601N002119999999N9999999N1+00101+00101100831ADDMA1999999095471MD1719999+9999OA149900411REMSYN076AAXX  14084 06621 33/// /0604 10010 20010 39547 40083 57/// 333 91108 91204;
0128066210999992010011409004+47600+009283FM-12+044099999V0200601N002119999999N9999999N1+00131+00111100811ADDMA1999999095461MD1710031+9999OA149900461REMSYN076AAXX  14094 06621 33/// /0604 10013 20011 39546 40081 57003 333 91109 91205;
0128066210999992010011410004+47600+009283FM-12+044099999V0201401N001519999999N9999999N1+00161+00111100801ADDMA1999999095461MD1510021+9999OA149900461REMSYN076AAXX  14104 06621 33/// /1403 10016 20011 39546 40080 55002 333 91109 91205;
0128066210999992010011411004+47600+009283FM-12+044099999V0201501N001519999999N9999999N1+00201+00131100731ADDMA1999999095401MD1710071+9999OA149900311REMSYN076AAXX  14114 06621 33/// /1503 10020 20013 39540 40073 57007 333 91106 91203;
0128066210999992010011412004+47600+009283FM-12+044099999V0201501N000519999999N9999999N1+00261+00141100641ADDMA1999999095331MD1710131+9999OA149900461REMSYN076AAXX  14124 06621 33/// /1501 10026 20014 39533 40064 57013 333 91109 91205;
0128066210999992010011413004+47600+009283FM-12+044099999V0202601N000519999999N9999999N1+00301+00151100611ADDMA1999999095301MD1610161+9999OA149900151REMSYN076AAXX  14134 06621 33/// /2601 10030 20015 39530 40061 56016 333 91103 91202;
0128066210999992010011414004+47600+009283FM-12+044099999V0200301N003119999999N9999999N1+00311+00131100601ADDMA1999999095301MD1710101+9999OA149900461REMSYN076AAXX  14144 06621 33/// /0306 10031 20013 39530 40060 57010 333 91109 91206;
0147066210999992010011415004+47600+009283FM-12+044099999V0200401N003619999999N9999999N1+00261+00111100641ADDMA1999999095331MD1410001+9999OA149900571REMSYN076AAXX  14154 06621 33/// /0407 10026 20011 39533 40064 53000 333 91111 91207;EQDQ01+000032APCTEN
0128066210999992010011416004+47600+009283FM-12+044099999V0200201N003619999999N9999999N1+00231+00081100711ADDMA1999999095391MD1310091+9999OA149900671REMSYN076AAXX  14164 06621 33/// /0207 10023 20008 39539 40071 53009 333 91113 91208;
0128066210999992010011417004+47600+009283FM-12+044099999V0200201N002119999999N9999999N1+00171+00061100801ADDMA1999999095461MD1310161+9999OA149900671REMSYN076AAXX  14174 06621 33/// /0204 10017 20006 39546 40080 53016 333 91113 91208;
0147066210999992010011418004+47600+009283FM-12+044099999V0200301N002619999999N9999999N1+00171+00041100861ADDKA1120M+00321MA1999999095521MD1110191+9999OA149900671REMSYN082AAXX  14184 06621 33/// /0305 10017 20004 39552 40086 51019 333 10032 91113 91208;
0128066210999992010011419004+47600+009283FM-12+044099999V0200201N003619999999N9999999N1+00131+00011100971ADDMA1999999095611MD1310221+9999OA149900571REMSYN076AAXX  14194 06621 33/// /0207 10013 20001 39561 40097 53022 333 91111 91207;
0128066210999992010011420004+47600+009283FM-12+044099999V0200101N002619999999N9999999N1+00101-00011101031ADDMA1999999095661MD1110201+9999OA149900621REMSYN076AAXX  14204 06621 33/// /0105 10010 21001 39566 40103 51020 333 91112 91207;
0128066210999992010011421004+47600+009283FM-12+044099999V0203601N001519999999N9999999N1+00071-00031101121ADDMA1999999095741MD1310221+9999OA149900671REMSYN076AAXX  14214 06621 33/// /3603 10007 21003 39574 40112 53022 333 91113 91208;
0128066210999992010011422004+47600+009283FM-12+044099999V0203601N001519999999N9999999N1+00031-00081101231ADDMA1999999095841MD1310231+9999OA149900511REMSYN076AAXX  14224 06621 33/// /3603 10003 21008 39584 40123 53023 333 91110 91205;
0128066210999992010011423004+47600+009283FM-12+044099999V0200101N001519999999N9999999N1+00031-00071101331ADDMA1999999095931MD1210271+9999OA149900311REMSYN076AAXX  14234 06621 33/// /0103 10003 21007 39593 40133 52027 333 91106 91204;
0128066210999992010011500004+47600+009283FM-12+044099999V0203101N001519999999N9999999N1+00011-00121101391ADDMA1999999095991MD1110251+9999OA149900671REMSYN076AAXX  15004 06621 33/// /3103 10001 21012 39599 40139 51025 333 91113 91208;
0128066210999992010011501004+47600+009283FM-12+044099999V0203201N001519999999N9999999N1+00001-00121101471ADDMA1999999096061MD1210221+9999OA149900311REMSYN076AAXX  15014 06621 33/// /3203 10000 21012 39606 40147 52022 333 91106 91204;
0128066210999992010011502004+47600+009283FM-12+044099999V0203201N000519999999N9999999N1+00001-00121101561ADDMA1999999096151MD1310221+9999OA149900311REMSYN076AAXX  15024 06621 33/// /3201 10000 21012 39615 40156 53022 333 91106 91204;
0087066210999992010011503004+47600+009283FM-12+044099999V0203001N001019999999N9999999N1-00011-00121101651ADDMA1999999096231REMSYN060AAXX  15034 06621 33/// /3002 11001 21012 39623 40165 5////;
0128066210999992010011504004+47600+009283FM-12+044099999V0200601N000519999999N9999999N1+00001-00111101721ADDMA1999999096301MD1210241+9999OA149900211REMSYN076AAXX  15044 06621 33/// /0601 10000 21011 39630 40172 52024 333 91104 91202;
0128066210999992010011505004+47600+009283FM-12+044099999V0209999C000019999999N9999999N1+00001-00091101831ADDMA1999999096401MD1210251+9999OA149900211REMSYN076AAXX  15054 06621 33/// /0000 10000 21009 39640 40183 52025 333 91104 91202;
0225066210999992010011506004+47600+009283FM-12+044099999V0200701N001519999999N9999999N1-00011-00111101931ADDAA124000091AL19900091GJ100549IA2999+00009KA1999N-00011MA1999999096491MD1310261+9999OA149900621REMSYN100AAXX  15064 06621 33/// /0703 11001 21011 39649 40193 53026 333 21001 3/100 55009 70000 91112 91207;EQDQ01  00002PRCP24
0128066210999992010011507004+47600+009283FM-12+044099999V0200801N001519999999N9999999N1+00011-00081102051ADDMA1999999096611MD1310311+9999OA149900261REMSYN076AAXX  15074 06621 33/// /0803 10001 21008 39661 40205 53031 333 91105 91203;
0128066210999992010011508004+47600+009283FM-12+044099999V0201001N001519999999N9999999N1+00041-00061102081ADDMA1999999096651MD1119999+9999OA149900311REMSYN076AAXX  15084 06621 33/// /1003 10004 21006 39665 40208 51/// 333 91106 91203;
0128066210999992010011509004+47600+009283FM-12+044099999V0209999C000019999999N9999999N1+00091-00041102161ADDMA1999999096731MD1110241+9999OA149900311REMSYN076AAXX  15094 06621 33/// /0000 10009 21004 39673 40216 51024 333 91106 91203;
0128066210999992010011510004+47600+009283FM-12+044099999V0202101N001019999999N9999999N1+00131-00071102221ADDMA1999999096801MD1310191+9999OA149900261REMSYN076AAXX  15104 06621 33/// /2102 10013 21007 39680 40222 53019 333 91105 91203;
0128066210999992010011511004+47600+009283FM-12+044099999V0202001N001019999999N9999999N1+00181-00091102251ADDMA1999999096831MD1110181+9999OA149900211REMSYN076AAXX  15114 06621 33/// /2002 10018 21009 39683 40225 51018 333 91104 91202;
0128066210999992010011512004+47600+009283FM-12+044099999V0202201N001019999999N9999999N1+00201-00081102261ADDMA1999999096851MD1110121+9999OA149900311REMSYN076AAXX  15124 06621 33/// /2202 10020 21008 39685 40226 51012 333 91106 91204;
0128066210999992010011513004+47600+009283FM-12+044099999V0203501N000519999999N9999999N1+00221-00071102311ADDMA1999999096901MD1310101+9999OA149900261REMSYN076AAXX  15134 06621 33/// /3501 10022 21007 39690 40231 53010 333 91105 91203;
0128066210999992010011514004+47600+009283FM-12+044099999V0202501N000519999999N9999999N1+00231-00071102371ADDMA1999999096961MD1310131+9999OA149900261REMSYN076AAXX  15144 06621 33/// /2501 10023 21007 39696 40237 53013 333 91105 91203;
0128066210999992010011515004+47600+009283FM-12+044099999V0202701N000519999999N9999999N1+00211-00071102461ADDMA1999999097041MD1310191+9999OA149900261REMSYN076AAXX  15154 06621 33/// /2701 10021 21007 39704 40246 53019 333 91105 91203;
0128066210999992010011516004+47600+009283FM-12+044099999V0202501N001019999999N9999999N1+00181-00061102531ADDMA1999999097101MD1110201+9999OA149900211REMSYN076AAXX  15164 06621 33/// /2502 10018 21006 39710 40253 51020 333 91104 91203;
0128066210999992010011517004+47600+009283FM-12+044099999V0202101N000519999999N9999999N1+00131-00031102591ADDMA1999999097151MD1110191+9999OA149900211REMSYN076AAXX  15174 06621 33/// /2101 10013 21003 39715 40259 51019 333 91104 91203;
0147066210999992010011518004+47600+009283FM-12+044099999V0202001N001019999999N9999999N1+00111-00031102631ADDKA1120M+00231MA1999999097181MD1110141+9999OA149900311REMSYN082AAXX  15184 06621 33/// /2002 10011 21003 39718 40263 51014 333 10023 91106 91203;
0128066210999992010011519004+47600+009283FM-12+044099999V0201901N000519999999N9999999N1+00111-00051102651ADDMA1999999097201MD1110101+9999OA149900151REMSYN076AAXX  15194 06621 33/// /1901 10011 21005 39720 40265 51010 333 91103 91202;
0128066210999992010011520004+47600+009283FM-12+044099999V0209999C000019999999N9999999N1+00161-00081102641ADDMA1999999097201MD1110051+9999OA149900211REMSYN076AAXX  15204 06621 33/// /0000 10016 21008 39720 40264 51005 333 91104 91202;
0128066210999992010011521004+47600+009283FM-12+044099999V0202301N000519999999N9999999N1+00101-00041102671ADDMA1999999097221MD1110041+9999OA149900211REMSYN076AAXX  15214 06621 33/// /2301 10010 21004 39722 40267 51004 333 91104 91203;
0128066210999992010011522004+47600+009283FM-12+044099999V0202401N001019999999N9999999N1+00111-00061102661ADDMA1999999097211MD1210011+9999OA149900211REMSYN076AAXX  15224 06621 33/// /2402 10011 21006 39721 40266 52001 333 91104 91203;
0128066210999992010011523004+47600+009283FM-12+044099999V0202801N001019999999N9999999N1+00091-00041102651ADDMA1999999097201MD1810011+9999OA149900211REMSYN076AAXX  15234 06621 33/// /2802 10009 21004 39720 40265 58000 333 91104 91203;
0128066210999992010011600004+47600+009283FM-12+044099999V0202101N000519999999N9999999N1+00121-00041102651ADDMA1999999097201MD1810021+9999OA149900261REMSYN076AAXX  16004 06621 33/// /2101 10012 21004 39720 40265 58002 333 91105 91203;
0128066210999992010011601004+47600+009283FM-12+044099999V0201101N001519999999N9999999N1+00101-00061102611ADDMA1999999097161MD1710051+9999OA149900411REMSYN076AAXX  16014 06621 33/// /1103 10010 21006 39716 40261 57005 333 91108 91205;
0128066210999992010011602004+47600+009283FM-12+044099999V0201601N001519999999N9999999N1+00081-00091102611ADDMA1999999097161MD1710041+9999OA149900411REMSYN076AAXX  16024 06621 33/// /1603 10008 21009 39716 40261 57004 333 91108 91205;
0128066210999992010011603004+47600+009283FM-12+044099999V0201601N001519999999N9999999N1+00051-00091102581ADDMA1999999097121MD1719999+9999OA149900411REMSYN076AAXX  16034 06621 33/// /1603 10005 21009 39712 40258 57/// 333 91108 91205;
0128066210999992010011604004+47600+009283FM-12+044099999V0201401N001519999999N9999999N1+00011-00101102571ADDMA1999999097101MD1710061+9999OA149900311REMSYN076AAXX  16044 06621 33/// /1403 10001 21010 39710 40257 57006 333 91106 91204;
0128066210999992010011605004+47600+009283FM-12+044099999V0201401N001519999999N9999999N1-00031-00131102541ADDMA1999999097071MD1710091+9999OA149900361REMSYN076AAXX  16054 06621 33/// /1403 11003 21013 39707 40254 57009 333 91107 91204;
0225066210999992010011606004+47600+009283FM-12+044099999V0201301N002119999999N9999999N1-00061-00151102501ADDAA124000091AL19900091GJ100009IA2999-00109KA1999N-00051MA1999999097021MD1710101+9999OA149900411REMSYN100AAXX  16064 06621 33/// /1304 11006 21015 39702 40250 57010 333 21005 3/101 55000 70000 91108 91205;EQDQ01  00002PRCP24
0128066210999992010011607004+47600+009283FM-12+044099999V0201501N001519999999N9999999N1-00101-00161102471ADDMA1999999096991MD1710111+9999OA149900361REMSYN076AAXX  16074 06621 33/// /1503 11010 21016 39699 40247 57011 333 91107 91204;
0128066210999992010011608004+47600+009283FM-12+044099999V0201201N001519999999N9999999N1-00101-00181102421ADDMA1999999096941MD1710131+9999OA149900361REMSYN076AAXX  16084 06621 33/// /1203 11010 21018 39694 40242 57013 333 91107 91204;
0128066210999992010011609004+47600+009283FM-12+044099999V0200801N002619999999N9999999N1-00131-00221102391ADDMA1999999096911MD1710111+9999OA149900461REMSYN076AAXX  16094 06621 33/// /0805 11013 21022 39691 40239 57011 333 91109 91205;
0128066210999992010011610004+47600+009283FM-12+044099999V0200601N001519999999N9999999N1-00151-00261102321ADDMA1999999096841MD1710151+9999OA149900461REMSYN076AAXX  16104 06621 33/// /0603 11015 21026 39684 40232 57015 333 91109 91205;
0128066210999992010011611004+47600+009283FM-12+044099999V0202001N000519999999N9999999N1-00151-00311102261ADDMA1999999096781MD1810161+9999OA149900361REMSYN076AAXX  16114 06621 33/// /2001 11015 21031 39678 40226 58016 333 91107 91204;
0128066210999992010011612004+47600+009283FM-12+044099999V0202501N001019999999N9999999N1-00131-00281102171ADDMA1999999096701MD1810211+9999OA149900461REMSYN076AAXX  16124 06621 33/// /2502 11013 21028 39670 40217 58021 333 91109 91205;
0128066210999992010011613004+47600+009283FM-12+044099999V0203101N000519999999N9999999N1-00091-00271102141ADDMA1999999096681MD1710161+9999OA149900411REMSYN076AAXX  16134 06621 33/// /3101 11009 21027 39668 40214 57016 333 91108 91203;
0128066210999992010011614004+47600+009283FM-12+044099999V0202301N001519999999N9999999N1-00071-00251102131ADDMA1999999096671MD1719999+9999OA149900461REMSYN076AAXX  16144 06621 33/// /2303 11007 21025 39667 40213 57/// 333 91109 91204;
0128066210999992010011615004+47600+009283FM-12+044099999V0200601N000519999999N9999999N1-00091-00261102071ADDMA1999999096611MD1710091+9999OA149900461REMSYN076AAXX  16154 06621 33/// /0601 11009 21026 39661 40207 57009 333 91109 91204;
0128066210999992010011616004+47600+009283FM-12+044099999V0209999C000019999999N9999999N1-00101-00251102071ADDMA1999999096611MD1710071+9999OA149900311REMSYN076AAXX  16164 06621 33/// /0000 11010 21025 39661 40207 57007 333 91106 91203;
0128066210999992010011617004+47600+009283FM-12+044099999V0201501N000519999999N9999999N1-00151-00271102021ADDMA1999999096551MD1710121+9999OA149900311REMSYN076AAXX  16174 06621 33/// /1501 11015 21027 39655 40202 57012 333 91106 91203;
0147066210999992010011618004+47600+009283FM-12+044099999V0202001N001519999999N9999999N1-00171-00281101981ADDKA1120M-00061MA1999999096511MD1710101+9999OA149900461REMSYN082AAXX  16184 06621 33/// /2003 11017 21028 39651 40198 57010 333 11006 91109 91205;
0128066210999992010011619004+47600+009283FM-12+044099999V0202001N001019999999N9999999N1-00151-00261101931ADDMA1999999096471MD1710141+9999OA149900261REMSYN076AAXX  16194 06621 33/// /2002 11015 21026 39647 40193 57014 333 91105 91204;
0128066210999992010011620004+47600+009283FM-12+044099999V0202101N002119999999N9999999N1-00141-00241101861ADDMA1999999096401MD1710151+9999OA149900361REMSYN076AAXX  16204 06621 33/// /2104 11014 21024 39640 40186 57015 333 91107 91205;
0128066210999992010011621004+47600+009283FM-12+044099999V0202501N000519999999N9999999N1-00111-00211101781ADDMA1999999096331MD1710181+9999OA149900361REMSYN076AAXX  16214 06621 33/// /2501 11011 21021 39633 40178 57018 333 91107 91205;
0128066210999992010011622004+47600+009283FM-12+044099999V0201901N001019999999N9999999N1-00081-00191101771ADDMA1999999096331MD1710141+9999OA149900261REMSYN076AAXX  16224 06621 33/// /1902 11008 21019 39633 40177 57014 333 91105 91204;
0145066210999992010011623004+47600+009283FM-12+044099999V0202201N001019999999N9999999N1+00001-00101101831ADDAA101000591MA1999999096401MD1710031+9999OA149900211REMSYN082AAXX  16234 06621 23/// /2202 10000 21010 39640 40183 53000 333 69955 91104 91203;
0151066210999992010011700004+47600+009283FM-12+044099999V0201901N002619999999N9999999N1+00081+00041101821ADDAA106004191MA1999999096411MD1210081+9999OA149900461REMSYN088AAXX  17004 06621 03/// /1905 10008 20004 39641 40182 52008 60041 333 60045 91109 91205;
0145066210999992010011701004+47600+009283FM-12+044099999V0202001N001519999999N9999999N1+00201+00151101791ADDAA101003091MA1999999096401MD1010071+9999OA149900411REMSYN082AAXX  17014 06621 23/// /2003 10020 20015 39640 40179 50007 333 60035 91108 91205;
0145066210999992010011702004+47600+009283FM-12+044099999V0201301N001019999999N9999999N1+00111+00111101801ADDAA101000391MA1999999096391MD1519999+9999OA149900411REMSYN082AAXX  17024 06621 23/// /1302 10011 20011 39639 40180 55/// 333 69935 91108 91205;
0087066210999992010011703004+47600+009283FM-12+044099999V0209999C000019999999N9999999N1+00061+00051101661ADDMA1999999096251REMSYN060AAXX  17034 06621 43/// /0000 10006 20005 39625 40166 5////;
0145066210999992010011704004+47600+009283FM-12+044099999V0201501N001519999999N9999999N1+00101+00101101701ADDAA101000591MA1999999096301MD1710101+9999OA149900411REMSYN082AAXX  17044 06621 23/// /1503 10010 20010 39630 40170 57010 333 69955 91108 91204;
0145066210999992010011705004+47600+009283FM-12+044099999V0202101N002619999999N9999999N1+00121+00121101701ADDAA101001091MA1999999096301MD1519999+9999OA149900411REMSYN082AAXX  17054 06621 23/// /2105 10012 20012 39630 40170 55/// 333 60015 91108 91205;
0229066210999992010011706004+47600+009283FM-12+044099999V0201501N002119999999N9999999N1+00171+00161101661ADDAA112008991AA224009191AL11200991GJ100009IA2999-00309KA1999N-00191MA1999999096271MD1010021+9999OA149900461REMSYN112AAXX  17064 06621 03/// /1504 10017 20016 39627 40166 50002 60092 333 21019 3/103 55000 60005 70092 91109 91205;
0128066210999992010011707004+47600+009283FM-12+044099999V0200901N001019999999N9999999N1+00191+00181101671ADDMA1999999096291MD1510011+9999OA149900461REMSYN076AAXX  17074 06621 33/// /0902 10019 20018 39629 40167 55001 333 91109 91205;
0145066210999992010011708004+47600+009283FM-12+044099999V0202501N001519999999N9999999N1+00251+00251101711ADDAA101000021MA1999999096341MD1319999+9999OA149900361REMSYN082AAXX  17084 06621 23/// /2503 10025 20025 39634 40171 53/// 333 69925 91107 91205;
0128066210999992010011709004+47600+009283FM-12+044099999V0202301N004619999999N9999999N1+00541+00351101711ADDMA1999999096391MD1310121+9999OA149900881REMSYN076AAXX  17094 06621 33/// /2309 10054 20035 39639 40171 53012 333 91117 91209;
0128066210999992010011710004+47600+009283FM-12+044099999V0202501N004619999999N9999999N1+00581+00371101821ADDMA1999999096501MD1310211+9999OA149901031REMSYN076AAXX  17104 06621 33/// /2509 10058 20037 39650 40182 53021 333 91120 91210;
0128066210999992010011711004+47600+009283FM-12+044099999V0202301N004119999999N9999999N1+00591+00401101871ADDMA1999999096551MD1210211+9999OA149901241REMSYN076AAXX  17114 06621 33/// /2308 10059 20040 39655 40187 52021 333 91124 91211;
0170066210999992010011712004+47600+009283FM-12+044099999V0202401N005119999999N9999999N1+00621+00331101881ADDAA106000091MA1999999096571MD1110181+9999OA149901241REMSYN088AAXX  17124 06621 03/// /2410 10062 20033 39657 40188 51018 69921 333 60005 91124 91211;EQDQ01  00002PRCP06
0128066210999992010011713004+47600+009283FM-12+044099999V0202701N004619999999N9999999N1+00651+00281101951ADDMA1999999096641MD1310141+9999OA149901341REMSYN076AAXX  17134 06621 33/// /2709 10065 20028 39664 40195 53014 333 91126 91213;
0128066210999992010011714004+47600+009283FM-12+044099999V0202501N004619999999N9999999N1+00641+00211102051ADDMA1999999096731MD1319999+9999OA149901341REMSYN076AAXX  17144 06621 33/// /2509 10064 20021 39673 40205 53/// 333 91126 91213;
0128066210999992010011715004+47600+009283FM-12+044099999V0202401N005719999999N9999999N1+00581+00201102171ADDMA1999999096841MD1210271+9999OA149901341REMSYN076AAXX  17154 06621 33/// /2411 10058 20020 39684 40217 52027 333 91126 91213;
0145066210999992010011716004+47600+009283FM-12+044099999V0202601N005719999999N9999999N1+00571+00171102301ADDAA101000021MA1999999096961MD1310321+9999OA149901241REMSYN082AAXX  17164 06621 23/// /2611 10057 20017 39696 40230 53032 333 69915 91124 91211;
0128066210999992010011717004+47600+009283FM-12+044099999V0202401N005719999999N9999999N1+00501+00061102431ADDMA1999999097071MD1210341+9999OA149901241REMSYN076AAXX  17174 06621 33/// /2411 10050 20006 39707 40243 52034 333 91124 91212;
0170066210999992010011718004+47600+009283FM-12+044099999V0202401N005119999999N9999999N1+00451+00041102511ADDAA112000391KA1120M+00671MA1999999097131MD1110291+9999OA149901341REMSYN094AAXX  17184 06621 03/// /2410 10045 20004 39713 40251 51029 69932 333 10067 60005 91126 91213;
0128066210999992010011719004+47600+009283FM-12+044099999V0202301N004119999999N9999999N1+00461+00051102581ADDMA1999999097201MD1110241+9999OA149900931REMSYN076AAXX  17194 06621 33/// /2308 10046 20005 39720 40258 51024 333 91118 91210;
0128066210999992010011720004+47600+009283FM-12+044099999V0202401N004119999999N9999999N1+00461+00071102631ADDMA1999999097251MD1110181+9999OA149900821REMSYN076AAXX  17204 06621 33/// /2408 10046 20007 39725 40263 51018 333 91116 91209;
0128066210999992010011721004+47600+009283FM-12+044099999V0202301N003619999999N9999999N1+00461+00111102641ADDMA1999999097261MD1110131+9999OA149901241REMSYN076AAXX  17214 06621 33/// /2307 10046 20011 39726 40264 51013 333 91124 91212;
0128066210999992010011722004+47600+009283FM-12+044099999V0202301N002119999999N9999999N1+00421+00071102651ADDMA1999999097261MD1210061+9999OA149900931REMSYN076AAXX  17224 06621 33/// /2304 10042 20007 39726 40265 52006 333 91118 91209;
0128066210999992010011723004+47600+009283FM-12+044099999V0202801N001019999999N9999999N1+00351+00071102701ADDMA1999999097291MD1210041+9999OA149900621REMSYN076AAXX  17234 06621 33/// /2802 10035 20007 39729 40270 52004 333 91112 91207;
0128066210999992010011800004+47600+009283FM-12+044099999V0202401N002119999999N9999999N1+00351+00051102671ADDMA1999999097271MD1010011+9999OA149901341REMSYN076AAXX  18004 06621 33/// /2404 10035 20005 39727 40267 50001 333 91126 91213;
0147066210999992010011801004+47600+009283FM-12+044099999V0202401N002119999999N9999999N1+00311+00021102671ADDMA1999999097261MD1810021+9999OA149900461REMSYN076AAXX  18014 06621 33/// /2404 10031 20002 39726 40267 58000 333 91109 91204;EQDQ01+000002APC3  
0087066210999992010011802004+47600+009283FM-12+044099999V0202301N002119999999N9999999N1+00331+00021102681ADDMA1999999097271REMSYN060AAXX  18024 06621 33/// /2304 10033 20002 39727 40268 5////;
0087066210999992010011803004+47600+009283FM-12+044099999V0202401N001519999999N9999999N1+00361+00011102691ADDMA1999999097291REMSYN060AAXX  18034 06621 33/// /2403 10036 20001 39729 40269 5////;
0128066210999992010011804004+47600+009283FM-12+044099999V0202201N003119999999N9999999N1+00361+00041102691ADDMA1999999097291MD1210031+9999OA149900511REMSYN076AAXX  18044 06621 33/// /2206 10036 20004 39729 40269 52003 333 91110 91206;
0128066210999992010011805004+47600+009283FM-12+044099999V0202301N001519999999N9999999N1+00331+00021102711ADDMA1999999097301MD1210031+9999OA149900461REMSYN076AAXX  18054 06621 33/// /2303 10033 20002 39730 40271 52003 333 91109 91207;
0206066210999992010011806004+47600+009283FM-12+044099999V0202401N001519999999N9999999N1+00411+00081102731ADDAA124000391AL11800091GJ100609IA2999+00009KA1999N+00251MA1999999097331MD1310041+9999OA149900931REMSYN100AAXX  18064 06621 33/// /2403 10041 20008 39733 40273 53004 333 20025 3/000 55010 70003 91118 91209;
0128066210999992010011807004+47600+009283FM-12+044099999V0202501N001019999999N9999999N1+00191+00021102821ADDMA1999999097381MD1310091+9999OA149900571REMSYN076AAXX  18074 06621 33/// /2502 10019 20002 39738 40282 53009 333 91111 91205;
0128066210999992010011808004+47600+009283FM-12+044099999V0202401N001519999999N9999999N1+00211+00051102861ADDMA1999999097421MD1319999+9999OA149900361REMSYN076AAXX  18084 06621 33/// /2403 10021 20005 39742 40286 53/// 333 91107 91205;
0128066210999992010011809004+47600+009283FM-12+044099999V0202601N000519999999N9999999N1+00431+00121102851ADDMA1999999097451MD1110121+9999OA149900571REMSYN076AAXX  18094 06621 33/// /2601 10043 20012 39745 40285 51012 333 91111 91207;
