0153066230999992011012414004+47650+009017FM-12+070299999V02099999999999999999N9999999N1-00351+99999999999ADDMA1999999093941MD1710141+9999OA149999999REMSYN082AAXX  24144 06623 33/// /31// 11035 2//// 39394 57014 333 55300 20515 91105 91203;EQDQ01  00262WGOSPD
0153066230999992011012415004+47650+009017FM-12+070299999V02099999999999999999N9999999N1-00341+99999999999ADDMA1999999093921MD1610111+9999OA149999999REMSYN082AAXX  24154 06623 33/// /00// 11034 2//// 39392 56011 333 55300 20310 91105 91203;EQDQ01  00262WGOSPD
0153066230999992011012416004+47650+009017FM-12+070299999V02099999999999999999N9999999N1-00381+99999999999ADDMA1999999093901MD1610071+9999OA149999999REMSYN082AAXX  24164 06623 33/// /19// 11038 2//// 39390 56007 333 55300 20072 91103 91202;EQDQ01  00152WGOSPD
0153066230999992011012417004+47650+009017FM-12+070299999V02099999999999999999N9999999N1-00411+99999999999ADDMA1999999093911MD1710031+9999OA149999999REMSYN082AAXX  24174 06623 33/// /00// 11041 2//// 39391 57003 333 55300 20018 91103 91202;EQDQ01  00152WGOSPD
0332066230999992011012418004+47650+009017FM-12+070299999V0209999999999018001CN0010001N1-00391+99999999999ADDAA112000091AJ100059199999999AL11200191AY171061AY221061GA1081+018001071GF108991999999017501999999KA1120M-00311MA1999999093931MD1310011+9999MW1101OA149999999REMSYN130AAXX  24184 06623 01710 828// 11039 2//// 39393 53001 69912 71072 333 11031 4/005 55300 20014 60005 88756 90766 93101 91105 91203;EQDQ01  00002PRCP12Q02  00262WGOSPD
0153066230999992011012419004+47650+009017FM-12+070299999V02099999999999999999N9999999N1-00341+99999999999ADDMA1999999093921MD1010021+9999OA149999999REMSYN082AAXX  24194 06623 33/// /26// 11034 2//// 39392 50002 333 55300 20014 91106 91203;EQDQ01  00312WGOSPD
0153066230999992011012420004+47650+009017FM-12+070299999V02099999999999999999N9999999N1-00331+99999999999ADDMA1999999093891MD1810021+9999OA149999999REMSYN082AAXX  24204 06623 33/// /28// 11033 2//// 39389 58002 333 55300 20014 91106 91203;EQDQ01  00312WGOSPD
0153066230999992011012421004+47650+009017FM-12+070299999V02099999999999999999N9999999N1-00351+99999999999ADDMA1999999093861MD1810071+9999OA149999999REMSYN082AAXX  24214 06623 33/// /26// 11035 2//// 39386 58007 333 55300 20014 91106 91203;EQDQ01  00312WGOSPD
0153066230999992011012422004+47650+009017FM-12+070299999V02099999999999999999N9999999N1-00321+99999999999ADDMA1999999093821MD1610101+9999OA149999999REMSYN082AAXX  24224 06623 33/// /28// 11032 2//// 39382 56010 333 55300 20014 91103 91202;EQDQ01  00152WGOSPD
0153066230999992011012423004+47650+009017FM-12+070299999V02099999999999999999N9999999N1-00321+99999999999ADDMA1999999093791MD1610101+9999OA149999999REMSYN082AAXX  24234 06623 33/// /00// 11032 2//// 39379 56010 333 55300 20014 91103 91202;EQDQ01  00152WGOSPD
0153066230999992011012500004+47650+009017FM-12+070299999V02099999999999999999N9999999N1-00331+99999999999ADDMA1999999093751MD1810111+9999OA149999999REMSYN082AAXX  25004 06623 33/// /33// 11033 2//// 39375 58011 333 55300 20014 91106 91203;EQDQ01  00312WGOSPD
0153066230999992011012501004+47650+009017FM-12+070299999V02099999999999999999N9999999N1-00331+99999999999ADDMA1999999093721MD1610101+9999OA149999999REMSYN082AAXX  25014 06623 33/// /28// 11033 2//// 39372 56010 333 55300 20014 91104 91203;EQDQ01  00212WGOSPD
0153066230999992011012502004+47650+009017FM-12+070299999V02099999999999999999N9999999N1-00331+99999999999ADDMA1999999093681MD1610111+9999OA149999999REMSYN082AAXX  25024 06623 33/// /25// 11033 2//// 39368 56011 333 55300 20014 91105 91203;EQDQ01  00262WGOSPD
0153066230999992011012503004+47650+009017FM-12+070299999V02099999999999999999N9999999N1-00381+99999999999ADDMA1999999093641MD1610111+9999OA149999999REMSYN082AAXX  25034 06623 33/// /22// 11038 2//// 39364 56011 333 55300 20014 91106 91203;EQDQ01  00312WGOSPD
0153066230999992011012504004+47650+009017FM-12+070299999V02099999999999999999N9999999N1-00381+99999999999ADDMA1999999093621MD1610101+9999OA149999999REMSYN082AAXX  25044 06623 33/// /22// 11038 2//// 39362 56010 333 55300 20014 91109 91204;EQDQ01  00462WGOSPD
0153066230999992011012505004+47650+009017FM-12+070299999V02099999999999999999N9999999N1-00361+99999999999ADDMA1999999093581MD1810101+9999OA149999999REMSYN082AAXX  25054 06623 33/// /25// 11036 2//// 39358 58010 333 55300 20011 91109 91204;EQDQ01  00462WGOSPD
0323066230999992011012506004+47650+009017FM-12+070299999V0209999999999015001CN0010001N1-00381+99999999999ADDAJ100059199999999AL10600091AL29900191AY121061AY221061GA1081+015001071GF108991999999017501999999GJ100009KA1999N-00401MA1999999093561MD1710081+9999MW1101OA149999999REMSYN130AAXX  25064 06623 31710 827// 11038 2//// 39356 57008 71022 333 21040 4/005 55000 55300 20011 70001 88750 90768 93101 91111 91207;EQDQ01  00572WGOSPD
0153066230999992011012507004+47650+009017FM-12+070299999V02099999999999999999N9999999N1-00361+99999999999ADDMA1999999093551MD1710071+9999OA149999999REMSYN082AAXX  25074 06623 33/// /25// 11036 2//// 39355 57007 333 55300 20014 91113 91208;EQDQ01  00672WGOSPD
0153066230999992011012508004+47650+009017FM-12+070299999V02099999999999999999N9999999N1-00371+99999999999ADDMA1999999093551MD1710031+9999OA149999999REMSYN082AAXX  25084 06623 33/// /25// 11037 2//// 39355 57003 333 55300 20040 91114 91208;EQDQ01  00722WGOSPD
0153066230999992011012509004+47650+009017FM-12+070299999V02099999999999999999N9999999N1-00341+99999999999ADDMA1999999093521MD1710041+9999OA149999999REMSYN082AAXX  25094 06623 33/// /25// 11034 2//// 39352 57004 333 55300 20187 91114 91208;EQDQ01  00722WGOSPD
0153066230999992011012510004+47650+009017FM-12+070299999V02099999999999999999N9999999N1-00281+99999999999ADDMA1999999093521MD1710031+9999OA149999999REMSYN082AAXX  25104 06623 33/// /25// 11028 2//// 39352 57003 333 55300 20403 91114 91208;EQDQ01  00722WGOSPD
0153066230999992011012511004+47650+009017FM-12+070299999V02099999999999999999N9999999N1-00251+99999999999ADDMA1999999093441MD1710111+9999OA149999999REMSYN082AAXX  25114 06623 33/// /26// 11025 2//// 39344 57011 333 55300 20371 91114 91207;EQDQ01  00722WGOSPD
0157066230999992011012512004+47650+009017FM-12+070299999V02099999999999999999N0030001N1-00221+99999999999ADDAY171061AY221061GF108991999999017501999999MA1999999093371MW1101REMSYN082AAXX  25124 06623 31730 826// 11022 2//// 39337 5//// 71072 333 553// 20346 88756;
0153066230999992011012513004+47650+009017FM-12+070299999V02099999999999999999N9999999N1-00191+99999999999ADDMA1999999093271MD1819999+9999OA149999999REMSYN082AAXX  25134 06623 33/// /27// 11019 2//// 39327 58/// 333 55300 20439 91120 91210;EQDQ01  01032WGOSPD
0081066230999992011012514004+47650+009017FM-12+070299999V02099999999999999999N9999999N1-00191+99999999999ADDMA1999999093201REMSYN054AAXX  25144 06623 43/// /26// 11019 2//// 39320 5////;
0153066230999992011012515004+47650+009017FM-12+070299999V02099999999999999999N9999999N1-00151+99999999999ADDMA1999999093181MD1719999+9999OA149999999REMSYN082AAXX  25154 06623 33/// /27// 11015 2//// 39318 57/// 333 55300 20227 91120 91211;EQDQ01  01032WGOSPD
0153066230999992011012516004+47650+009017FM-12+070299999V02099999999999999999N9999999N1-00141+99999999999ADDMA1999999093121MD1710151+9999OA149999999REMSYN082AAXX  25164 06623 33/// /26// 11014 2//// 39312 57015 333 55300 20083 91119 91209;EQDQ01  00982WGOSPD
0153066230999992011012517004+47650+009017FM-12+070299999V02099999999999999999N9999999N1-00121+99999999999ADDMA1999999093091MD1710111+9999OA149999999REMSYN082AAXX  25174 06623 33/// /26// 11012 2//// 39309 57011 333 55300 20014 91119 91211;EQDQ01  00982WGOSPD
0308066230999992011012518004+47650+009017FM-12+070299999V0209999999999021001CN0030001N1-00131+99999999999ADDAJ100059199999999AL19900091AY121061AY221061GA1081+021001071GF108991999999022501999999KA1120M-00121MA1999999093041MD1710141+9999ME1314169MW1101OA149999999REMSYN124AAXX  25184 06623 31830 826// 11013 2//// 39304 48416 57014 71022 333 11012 4/005 55300 20014 88757 90766 93100 91120 91211;EQDQ01  01032WGOSPD
0153066230999992011012519004+47650+009017FM-12+070299999V02099999999999999999N9999999N1-00201+99999999999ADDMA1999999093031MD1710091+9999OA149999999REMSYN082AAXX  25194 06623 33/// /26// 11020 2//// 39303 57009 333 55300 20014 91123 91213;EQDQ01  01182WGOSPD
0153066230999992011012520004+47650+009017FM-12+070299999V02099999999999999999N9999999N1-00191+99999999999ADDMA1999999093041MD1719999+9999OA149999999REMSYN082AAXX  25204 06623 33/// /26// 11019 2//// 39304 57/// 333 55300 20014 91123 91214;EQDQ01  01182WGOSPD
0159066230999992011012521004+47650+009017FM-12+070299999V02099999999999999999N9999999N1-00241+99999999999ADDMA1999999093031MD1719999+9999OA149999999REMSYN088AAXX  25214 06623 23/// /25// 11024 2//// 39303 57/// 333 55300 20014 69915 91123 91214;EQDQ01  01182WGOSPD
0153066230999992011012522004+47650+009017FM-12+070299999V02099999999999999999N9999999N1-00251+99999999999ADDMA1999999093001MD1810031+9999OA149999999REMSYN082AAXX  25224 06623 33/// /26// 11025 2//// 39300 58003 333 55300 20014 91121 91211;EQDQ01  01082WGOSPD
0153066230999992011012523004+47650+009017FM-12+070299999V02099999999999999999N9999999N1-00251+99999999999ADDMA1999999092981MD1610061+9999OA149999999REMSYN082AAXX  25234 06623 33/// /25// 11025 2//// 39298 56006 333 55300 20014 91122 91211;EQDQ01  01132WGOSPD
0191066230999992011012600004+47650+009017FM-12+070299999V0202501N004119999999N9999999N1-00241+99999999999ADDAA106000091MA1999999092941MD1810091+9999ME1314059OA149901181REMSYN100AAXX  26004 06623 03/// /2508 11024 2//// 39294 48405 58009 69911 333 55300 20014 60005 91123 91214;EQDQ01  00002PRCP06
0153066230999992011012601004+47650+009017FM-12+070299999V02099999999999999999N9999999N1-00241+99999999999ADDMA1999999092881MD1810121+9999OA149999999REMSYN082AAXX  26014 06623 33/// /25// 11024 2//// 39288 58012 333 55300 20014 91117 91210;EQDQ01  00882WGOSPD
0153066230999992011012602004+47650+009017FM-12+070299999V02099999999999999999N9999999N1-00221+99999999999ADDMA1999999092841MD1610141+9999OA149999999REMSYN082AAXX  26024 06623 33/// /25// 11022 2//// 39284 56014 333 55300 20014 91119 91208;EQDQ01  00982WGOSPD
0153066230999992011012603004+47650+009017FM-12+070299999V02099999999999999999N9999999N1-00221+99999999999ADDMA1999999092791MD1810151+9999OA149999999REMSYN082AAXX  26034 06623 33/// /25// 11022 2//// 39279 58015 333 55300 20014 91122 91211;EQDQ01  01132WGOSPD
0153066230999992011012604004+47650+009017FM-12+070299999V02099999999999999999N9999999N1-00211+99999999999ADDMA1999999092781MD1710101+9999OA149999999REMSYN082AAXX  26044 06623 33/// /24// 11021 2//// 39278 57010 333 55300 20014 91121 91210;EQDQ01  01082WGOSPD
0153066230999992011012605004+47650+009017FM-12+070299999V02099999999999999999N9999999N1-00201+99999999999ADDMA1999999092751MD1710091+9999OA149999999REMSYN082AAXX  26054 06623 33/// /24// 11020 2//// 39275 57009 333 55300 20014 91117 91210;EQDQ01  00882WGOSPD
0362066230999992011012606004+47650+009017FM-12+070299999V0209999999999018001CN0030001N1-00191+99999999999ADDAA112000091AJ100059199999999AL10600091AL29900191AY171061AY221061GA1081+018001071GF108991999999017501999999GJ100009KA1999N-00251MA1999999092751MD1710041+9999MW1101OA149999999REMSYN142AAXX  26064 06623 01730 824// 11019 2//// 39275 57004 69912 71072 333 21025 4/005 55000 55300 20014 60005 70001 88756 90768 93101 91123 91214;EQDQ01  00002PRCP12Q02  01182WGOSPD
0153066230999992011012607004+47650+009017FM-12+070299999V02099999999999999999N9999999N1-00191+99999999999ADDMA1999999092721MD1710061+9999OA149999999REMSYN082AAXX  26074 06623 33/// /24// 11019 2//// 39272 57006 333 55300 20014 91114 91206;EQDQ01  00722WGOSPD
0153066230999992011012608004+47650+009017FM-12+070299999V02099999999999999999N9999999N1-00161+99999999999ADDMA1999999092681MD1710071+9999OA149999999REMSYN082AAXX  26084 06623 33/// /26// 11016 2//// 39268 57007 333 55300 20094 91115 91208;EQDQ01  00772WGOSPD
0153066230999992011012609004+47650+009017FM-12+070299999V02099999999999999999N9999999N1-00131+99999999999ADDMA1999999092661MD1810091+9999OA149999999REMSYN082AAXX  26094 06623 33/// /25// 11013 2//// 39266 58009 333 55300 20223 91117 91210;EQDQ01  00882WGOSPD
0153066230999992011012610004+47650+009017FM-12+070299999V02099999999999999999N9999999N1-00101+99999999999ADDMA1999999092651MD1610071+9999OA149999999REMSYN082AAXX  26104 06623 33/// /24// 11010 2//// 39265 56007 333 55300 20313 91113 91207;EQDQ01  00672WGOSPD
0159066230999992011012611004+47650+009017FM-12+070299999V02099999999999999999N9999999N1-00151+99999999999ADDMA1999999092601MD1810081+9999OA149999999REMSYN088AAXX  26114 06623 23/// /24// 11015 2//// 39260 58008 333 55300 20259 69915 91113 91207;EQDQ01  00672WGOSPD
0252066230999992011012612004+47650+009017FM-12+070299999V0209999999999011101CN0010001N1-00091+99999999999ADDAA106000021AY171061AY221061GA1081+011101071GF108991999999012501999999MA1999999092561MD1810101+9999MW1711OA149999999REMSYN106AAXX  26124 06623 01610 825// 11009 2//// 39256 58010 69911 77172 333 55300 20382 60005 88737 91121 91210;EQDQ01  01082WGOSPD
0159066230999992011012613004+47650+009017FM-12+070299999V02099999999999999999N9999999N1-00071+99999999999ADDMA1999999092511MD1719999+9999OA149999999REMSYN088AAXX  26134 06623 23/// /25// 11007 2//// 39251 57/// 333 55300 20493 69915 91111 91205;EQDQ01  00572WGOSPD
0097066230999992011012614004+47650+009017FM-12+070299999V02099999999999999999N9999999N1-00011+99999999999ADDMA1999999092491REMSYN070AAXX  26144 06623 33/// /24// 11001 2//// 39249 5//// 333 553// 20511;
0159066230999992011012615004+47650+009017FM-12+070299999V02099999999999999999N9999999N1-00031+99999999999ADDMA1999999092511MD1510051+9999OA149999999REMSYN088AAXX  26154 06623 23/// /26// 11003 2//// 39251 55005 333 55300 20270 69915 91113 91207;EQDQ01  00672WGOSPD
0159066230999992011012616004+47650+009017FM-12+070299999V02099999999999999999N9999999N1-00061+99999999999ADDMA1999999092531MD1319999+9999OA149999999REMSYN088AAXX  26164 06623 23/// /25// 11006 2//// 39253 53/// 333 55300 20083 69935 91112 91206;EQDQ01  00622WGOSPD
0153066230999992011012617004+47650+009017FM-12+070299999V02099999999999999999N9999999N1-00051+99999999999ADDMA1999999092561MD1310071+9999OA149999999REMSYN082AAXX  26174 06623 33/// /26// 11005 2//// 39256 53007 333 55300 20018 91112 91206;EQDQ01  00622WGOSPD
0316066230999992011012618004+47650+009017FM-12+070299999V0209999999999011101CN0030001N1-00031+99999999999ADDAA112000591AJ100069199999999AL11200291AY171061AY221061GA1081+011101071GF108991999999012501999999KA1120M+00011MA1999999092601MD1310091+9999MW1101OA149999999REMSYN130AAXX  26184 06623 01630 828// 11003 2//// 39260 53009 69962 71072 333 10001 4/006 55300 20014 60005 88737 90766 93102 91115 91208;EQDQ01  00772WGOSPD
0153066230999992011012619004+47650+009017FM-12+070299999V02099999999999999999N9999999N1-00081+99999999999ADDMA1999999092631MD1310101+9999OA149999999REMSYN082AAXX  26194 06623 33/// /00// 11008 2//// 39263 53010 333 55300 20014 91106 91204;EQDQ01  00312WGOSPD
0153066230999992011012620004+47650+009017FM-12+070299999V02099999999999999999N9999999N1-00201+99999999999ADDMA1999999092651MD1110091+9999OA149999999REMSYN082AAXX  26204 06623 33/// /00// 11020 2//// 39265 51009 333 55300 20014 91106 91204;EQDQ01  00312WGOSPD
0153066230999992011012621004+47650+009017FM-12+070299999V02099999999999999999N9999999N1-00201+99999999999ADDMA1999999092691MD1310091+9999OA149999999REMSYN082AAXX  26214 06623 33/// /00// 11020 2//// 39269 53009 333 55300 20014 91112 91206;EQDQ01  00622WGOSPD
0153066230999992011012622004+47650+009017FM-12+070299999V02099999999999999999N9999999N1-00071+99999999999ADDMA1999999092701MD1210071+9999OA149999999REMSYN082AAXX  26224 06623 33/// /09// 11007 2//// 39270 52007 333 55300 20014 91105 91201;EQDQ01  00262WGOSPD
0153066230999992011012623004+47650+009017FM-12+070299999V02099999999999999999N9999999N1-00081+99999999999ADDMA1999999092731MD1210081+9999OA149999999REMSYN082AAXX  26234 06623 33/// /06// 11008 2//// 39273 52008 333 55300 20014 91105 91202;EQDQ01  00262WGOSPD
0153066230999992011012700004+47650+009017FM-12+070299999V02099999999999999999N9999999N1-00111+99999999999ADDMA1999999092741MD1110051+9999OA149999999REMSYN082AAXX  27004 06623 33/// /05// 11011 2//// 39274 51005 333 55300 20014 91112 91206;EQDQ01  00622WGOSPD
0153066230999992011012701004+47650+009017FM-12+070299999V02099999999999999999N9999999N1-00111+99999999999ADDMA1999999092751MD1110051+9999OA149999999REMSYN082AAXX  27014 06623 33/// /06// 11011 2//// 39275 51005 333 55300 20014 91104 91203;EQDQ01  00212WGOSPD
0153066230999992011012702004+47650+009017FM-12+070299999V02099999999999999999N9999999N1-00131+99999999999ADDMA1999999092761MD1310031+9999OA149999999REMSYN082AAXX  27024 06623 33/// /07// 11013 2//// 39276 53003 333 55300 20014 91107 91203;EQDQ01  00362WGOSPD
0153066230999992011012703004+47650+009017FM-12+070299999V02099999999999999999N9999999N1-00141+99999999999ADDMA1999999092751MD1010011+9999OA149999999REMSYN082AAXX  27034 06623 33/// /07// 11014 2//// 39275 50001 333 55300 20014 91107 91203;EQDQ01  00362WGOSPD
0153066230999992011012704004+47650+009017FM-12+070299999V02099999999999999999N9999999N1-00151+99999999999ADDMA1999999092791MD1210041+9999OA149999999REMSYN082AAXX  27044 06623 33/// /06// 11015 2//// 39279 52004 333 55300 20014 91108 91203;EQDQ01  00412WGOSPD
0153066230999992011012705004+47650+009017FM-12+070299999V02099999999999999999N9999999N1-00141+99999999999ADDMA1999999092821MD1210061+9999OA149999999REMSYN082AAXX  27054 06623 33/// /06// 11014 2//// 39282 52006 333 55300 20014 91108 91203;EQDQ01  00412WGOSPD
0323066230999992011012706004+47650+009017FM-12+070299999V0209999999999024001CN0030001N1-00141+99999999999ADDAJ100069199999999AL13600091AL29900291AY121061AY221061GA1081+024001041GF108991999999022501999999GJ100009KA1999N-00431MA1999999092861MD1110111+9999MW1101OA149999999REMSYN130AAXX  27064 06623 31830 806// 11014 2//// 39286 51011 71022 333 21043 4/006 55000 55300 20014 70006 88458 90768 93102 91108 91204;EQDQ01  00412WGOSPD
0153066230999992011012707004+47650+009017FM-12+070299999V02099999999999999999N9999999N1-00151+99999999999ADDMA1999999092901MD1310111+9999OA149999999REMSYN082AAXX  27074 06623 33/// /05// 11015 2//// 39290 53011 333 55300 20014 91107 91203;EQDQ01  00362WGOSPD
0153066230999992011012708004+47650+009017FM-12+070299999V02099999999999999999N9999999N1-00141+99999999999ADDMA1999999092931MD1110111+9999OA149999999REMSYN082AAXX  27084 06623 33/// /05// 11014 2//// 39293 51011 333 55300 20032 91106 91203;EQDQ01  00312WGOSPD
0153066230999992011012709004+47650+009017FM-12+070299999V02099999999999999999N9999999N1-00141+99999999999ADDMA1999999092991MD1110131+9999OA149999999REMSYN082AAXX  27094 06623 33/// /06// 11014 2//// 39299 51013 333 55300 20076 91108 91204;EQDQ01  00412WGOSPD
0153066230999992011012710004+47650+009017FM-12+070299999V02099999999999999999N9999999N1-00131+99999999999ADDMA1999999093031MD1110131+9999OA149999999REMSYN082AAXX  27104 06623 33/// /05// 11013 2//// 39303 51013 333 55300 20140 91108 91204;EQDQ01  00412WGOSPD
0153066230999992011012711004+47650+009017FM-12+070299999V02099999999999999999N9999999N1-00131+99999999999ADDMA1999999093031MD1210101+9999OA149999999REMSYN082AAXX  27114 06623 33/// /06// 11013 2//// 39303 52010 333 55300 20176 91108 91204;EQDQ01  00412WGOSPD
0229066230999992011012712004+47650+009017FM-12+070299999V0209999999999012901CN0020001N1-00121+99999999999ADDAY121061AY221061GA1081+012901071GF108991999999012501999999MA1999999093021MD1010031+9999MW1101OA149999999REMSYN094AAXX  27124 06623 31620 805// 11012 2//// 39302 50003 71022 333 55300 20227 88743 91108 91204;EQDQ01  00412WGOSPD
0153066230999992011012713004+47650+009017FM-12+070299999V02099999999999999999N9999999N1-00111+99999999999ADDMA1999999093001MD1810031+9999OA149999999REMSYN082AAXX  27134 06623 33/// /05// 11011 2//// 39300 58003 333 55300 20187 91107 91203;EQDQ01  00362WGOSPD
0153066230999992011012714004+47650+009017FM-12+070299999V02099999999999999999N9999999N1-00131+99999999999ADDMA1999999092991MD1710041+9999OA149999999REMSYN082AAXX  27144 06623 33/// /06// 11013 2//// 39299 57004 333 55300 20130 91110 91204;EQDQ01  00512WGOSPD
0153066230999992011012715004+47650+009017FM-12+070299999V02099999999999999999N9999999N1-00161+99999999999ADDMA1999999093001MD1710021+9999OA149999999REMSYN082AAXX  27154 06623 33/// /05// 11016 2//// 39300 57002 333 55300 20086 91110 91204;EQDQ01  00512WGOSPD
0153066230999992011012716004+47650+009017FM-12+070299999V02099999999999999999N9999999N1-00191+99999999999ADDMA1999999093011MD1310011+9999OA149999999REMSYN082AAXX  27164 06623 33/// /05// 11019 2//// 39301 53001 333 55300 20036 91110 91204;EQDQ01  00512WGOSPD
0153066230999992011012717004+47650+009017FM-12+070299999V02099999999999999999N9999999N1-00201+99999999999ADDMA1999999093031MD1210041+9999OA149999999REMSYN082AAXX  27174 06623 33/// /07// 11020 2//// 39303 52004 333 55300 20014 91110 91205;EQDQ01  00512WGOSPD
0287066230999992011012718004+47650+009017FM-12+070299999V02099999999990001519N0000001N1-00231+99999999999ADDAJ100059199999999AL19900091AY141061AY221061GA1091+999999999GF109991091999999999999999KA1120M-00111MA1999999093061MD1110061+9999MW1471OA149999999REMSYN112AAXX  27184 06623 31/00 906// 11023 2//// 39306 51006 74742 333 11011 4/005 55300 20014 90766 93100 91110 91205;EQDQ01  00512WGOSPD
0153066230999992011012719004+47650+009017FM-12+070299999V02099999999999999999N9999999N1-00251+99999999999ADDMA1999999093071MD1310061+9999OA149999999REMSYN082AAXX  27194 06623 33/// /06// 11025 2//// 39307 53006 333 55300 20014 91112 91205;EQDQ01  00622WGOSPD
0153066230999992011012720004+47650+009017FM-12+070299999V02099999999999999999N9999999N1-00261+99999999999ADDMA1999999093081MD1110051+9999OA149999999REMSYN082AAXX  27204 06623 33/// /06// 11026 2//// 39308 51005 333 55300 20014 91112 91205;EQDQ01  00622WGOSPD
0153066230999992011012721004+47650+009017FM-12+070299999V02099999999999999999N9999999N1-00291+99999999999ADDMA1999999093091MD1310031+9999OA149999999REMSYN082AAXX  27214 06623 33/// /05// 11029 2//// 39309 53003 333 55300 20014 91113 91207;EQDQ01  00672WGOSPD
0153066230999992011012722004+47650+009017FM-12+070299999V02099999999999999999N9999999N1-00291+99999999999ADDMA1999999093091MD1210021+9999OA149999999REMSYN082AAXX  27224 06623 33/// /05// 11029 2//// 39309 52002 333 55300 20014 91113 91207;EQDQ01  00672WGOSPD
0153066230999992011012723004+47650+009017FM-12+070299999V02099999999999999999N9999999N1-00271+99999999999ADDMA1999999093081MD1410001+9999OA149999999REMSYN082AAXX  27234 06623 33/// /06// 11027 2//// 39308 58000 333 55300 20014 91114 91207;EQDQ01  00722WGOSPD
0153066230999992011012800004+47650+009017FM-12+070299999V02099999999999999999N9999999N1-00261+99999999999ADDMA1999999093091MD1010001+9999OA149999999REMSYN082AAXX  28004 06623 33/// /05// 11026 2//// 39309 50000 333 55300 20011 91114 91207;EQDQ01  00722WGOSPD
0153066230999992011012801004+47650+009017FM-12+070299999V02099999999999999999N9999999N1-00261+99999999999ADDMA1999999093071MD1710021+9999OA149999999REMSYN082AAXX  28014 06623 33/// /06// 11026 2//// 39307 57002 333 55300 20014 91112 91207;EQDQ01  00622WGOSPD
0153066230999992011012802004+47650+009017FM-12+070299999V02099999999999999999N9999999N1-00271+99999999999ADDMA1999999093091MD1510011+9999OA149999999REMSYN082AAXX  28024 06623 33/// /06// 11027 2//// 39309 55001 333 55300 20014 91112 91207;EQDQ01  00622WGOSPD
0153066230999992011012803004+47650+009017FM-12+070299999V02099999999999999999N9999999N1-00281+99999999999ADDMA1999999093101MD1210011+9999OA149999999REMSYN082AAXX  28034 06623 33/// /07// 11028 2//// 39310 52001 333 55300 20014 91114 91207;EQDQ01  00722WGOSPD
0153066230999992011012804004+47650+009017FM-12+070299999V02099999999999999999N9999999N1-00301+99999999999ADDMA1999999093111MD1210041+9999OA149999999REMSYN082AAXX  28044 06623 33/// /07// 11030 2//// 39311 52004 333 55300 20014 91113 91207;EQDQ01  00672WGOSPD
0153066230999992011012805004+47650+009017FM-12+070299999V02099999999999999999N9999999N1-00331+99999999999ADDMA1999999093121MD1210031+9999OA149999999REMSYN082AAXX  28054 06623 33/// /07// 11033 2//// 39312 52003 333 55300 20014 91116 91207;EQDQ01  00822WGOSPD
0313066230999992011012806004+47650+009017FM-12+070299999V0209999999999015001CN0010001N1-00351+99999999999ADDAJ100059199999999AL19900091AY121061AY221061GA1081+015001071GF108991999999017501999999GJ100009KA1999N-00351MA1999999093151MD1110051+9999MW1101OA149999999REMSYN130AAXX  28064 06623 31710 806// 11035 2//// 39315 51005 71022 333 21035 4/005 55000 55300 20014 70000 88750 90768 93100 91116 91207;EQDQ01  00822WGOSPD
0153066230999992011012807004+47650+009017FM-12+070299999V02099999999999999999N9999999N1-00361+99999999999ADDMA1999999093201MD1310091+9999OA149999999REMSYN082AAXX  28074 06623 33/// /07// 11036 2//// 39320 53009 333 55300 20014 91113 91206;EQDQ01  00672WGOSPD
0153066230999992011012808004+47650+009017FM-12+070299999V02099999999999999999N9999999N1-00361+99999999999ADDMA1999999093221MD1310101+9999OA149999999REMSYN082AAXX  28084 06623 33/// /06// 11036 2//// 39322 53010 333 55300 20036 91114 91206;EQDQ01  00722WGOSPD
0153066230999992011012809004+47650+009017FM-12+070299999V02099999999999999999N9999999N1-00341+99999999999ADDMA1999999093261MD1110111+9999OA149999999REMSYN082AAXX  28094 06623 33/// /07// 11034 2//// 39326 51011 333 55300 20119 91116 91207;EQDQ01  00822WGOSPD
0153066230999992011012810004+47650+009017FM-12+070299999V02099999999999999999N9999999N1-00321+99999999999ADDMA1999999093281MD1310081+9999OA149999999REMSYN082AAXX  28104 06623 33/// /06// 11032 2//// 39328 53008 333 55300 20209 91114 91206;EQDQ01  00722WGOSPD
0153066230999992011012811004+47650+009017FM-12+070299999V02099999999999999999N9999999N1-00311+99999999999ADDMA1999999093281MD1210061+9999OA149999999REMSYN082AAXX  28114 06623 33/// /07// 11031 2//// 39328 52006 333 55300 20259 91111 91205;EQDQ01  00572WGOSPD
0229066230999992011012812004+47650+009017FM-12+070299999V0209999999999012901CN0030001N1-00321+99999999999ADDAY121061AY221061GA1081+012901071GF108991999999012501999999MA1999999093271MD1010011+9999MW1101OA149999999REMSYN094AAXX  28124 06623 31630 806// 11032 2//// 39327 50001 71022 333 55300 20313 88743 91116 91207;EQDQ01  00822WGOSPD
0153066230999992011012813004+47650+009017FM-12+070299999V02099999999999999999N9999999N1-00321+99999999999ADDMA1999999093271MD1510011+9999OA149999999REMSYN082AAXX  28134 06623 33/// /05// 11032 2//// 39327 55001 333 55300 20256 91110 91205;EQDQ01  00512WGOSPD
0153066230999992011012814004+47650+009017FM-12+070299999V02099999999999999999N9999999N1-00361+99999999999ADDMA1999999093261MD1710021+9999OA149999999REMSYN082AAXX  28144 06623 33/// /05// 11036 2//// 39326 57002 333 55300 20263 91112 91205;EQDQ01  00622WGOSPD
0153066230999992011012815004+47650+009017FM-12+070299999V02099999999999999999N9999999N1-00381+99999999999ADDMA1999999093291MD1310021+9999OA149999999REMSYN082AAXX  28154 06623 33/// /05// 11038 2//// 39329 53002 333 55300 20144 91112 91205;EQDQ01  00622WGOSPD
0153066230999992011012816004+47650+009017FM-12+070299999V02099999999999999999N9999999N1-00421+99999999999ADDMA1999999093331MD1210061+9999OA149999999REMSYN082AAXX  28164 06623 33/// /06// 11042 2//// 39333 52006 333 55300 20043 91111 91205;EQDQ01  00572WGOSPD
0153066230999992011012817004+47650+009017FM-12+070299999V02099999999999999999N9999999N1-00451+99999999999ADDMA1999999093341MD1110081+9999OA149999999REMSYN082AAXX  28174 06623 33/// /05// 11045 2//// 39334 51008 333 55300 20014 91111 91206;EQDQ01  00572WGOSPD
0293066230999992011012818004+47650+009017FM-12+070299999V0209999999999012901CN0010001N1-00481+99999999999ADDAJ100059199999999AL19900091AY121061AY221061GA1081+012901071GF108991999999012501999999KA1120M-00301MA1999999093361MD1110071+9999MW1101OA149999999REMSYN118AAXX  28184 06623 31610 807// 11048 2//// 39336 51007 71022 333 11030 4/005 55300 20014 88743 90766 93100 91114 91206;EQDQ01  00722WGOSPD
0153066230999992011012819004+47650+009017FM-12+070299999V02099999999999999999N9999999N1-00511+99999999999ADDMA1999999093381MD1210051+9999OA149999999REMSYN082AAXX  28194 06623 33/// /06// 11051 2//// 39338 52005 333 55300 20011 91110 91205;EQDQ01  00512WGOSPD
0153066230999992011012820004+47650+009017FM-12+070299999V02099999999999999999N9999999N1-00521+99999999999ADDMA1999999093391MD1210051+9999OA149999999REMSYN082AAXX  28204 06623 33/// /04// 11052 2//// 39339 52005 333 55300 20011 91108 91204;EQDQ01  00412WGOSPD
0153066230999992011012821004+47650+009017FM-12+070299999V02099999999999999999N9999999N1-00521+99999999999ADDMA1999999093391MD1210031+9999OA149999999REMSYN082AAXX  28214 06623 33/// /04// 11052 2//// 39339 52003 333 55300 20011 91111 91206;EQDQ01  00572WGOSPD
0153066230999992011012822004+47650+009017FM-12+070299999V02099999999999999999N9999999N1-00521+99999999999ADDMA1999999093381MD1010001+9999OA149999999REMSYN082AAXX  28224 06623 33/// /03// 11052 2//// 39338 50000 333 55300 20014 91105 91202;EQDQ01  00262WGOSPD
0153066230999992011012823004+47650+009017FM-12+070299999V02099999999999999999N9999999N1-00511+99999999999ADDMA1999999093371MD1810021+9999OA149999999REMSYN082AAXX  28234 06623 33/// /05// 11051 2//// 39337 58002 333 55300 20014 91103 91202;EQDQ01  00152WGOSPD
0153066230999992011012900004+47650+009017FM-12+070299999V02099999999999999999N9999999N1-00511+99999999999ADDMA1999999093341MD1810051+9999OA149999999REMSYN082AAXX  29004 06623 33/// /00// 11051 2//// 39334 58005 333 55300 20014 91112 91206;EQDQ01  00622WGOSPD
0153066230999992011012901004+47650+009017FM-12+070299999V02099999999999999999N9999999N1-00521+99999999999ADDMA1999999093331MD1710051+9999OA149999999REMSYN082AAXX  29014 06623 33/// /00// 11052 2//// 39333 57005 333 55300 20014 91103 91201;EQDQ01  00152WGOSPD
0153066230999992011012902004+47650+009017FM-12+070299999V02099999999999999999N9999999N1-00521+99999999999ADDMA1999999093321MD1710051+9999OA149999999REMSYN082AAXX  29024 06623 33/// /00// 11052 2//// 39332 57005 333 55300 20014 91102 91200;EQDQ01  00102WGOSPD
0153066230999992011012903004+47650+009017FM-12+070299999V02099999999999999999N9999999N1-00531+99999999999ADDMA1999999093281MD1710061+9999OA149999999REMSYN082AAXX  29034 06623 33/// /29// 11053 2//// 39328 57006 333 55300 20014 91103 91202;EQDQ01  00152WGOSPD
0153066230999992011012904004+47650+009017FM-12+070299999V02099999999999999999N9999999N1-00521+99999999999ADDMA1999999093281MD1719999+9999OA149999999REMSYN082AAXX  29044 06623 33/// /10// 11052 2//// 39328 57/// 333 55300 20014 91103 91200;EQDQ01  00152WGOSPD
0153066230999992011012905004+47650+009017FM-12+070299999V02099999999999999999N9999999N1-00521+99999999999ADDMA1999999093261MD1710061+9999OA149999999REMSYN082AAXX  29054 06623 33/// /00// 11052 2//// 39326 57006 333 55300 20014 91104 91201;EQDQ01  00212WGOSPD
0313066230999992011012906004+47650+009017FM-12+070299999V0209999999999012901CN0010001N1-00521+99999999999ADDAJ100059199999999AL19900091AY121061AY221061GA1081+012901071GF108991999999012501999999GJ100009KA1999N-00531MA1999999093251MD1710031+9999MW1101OA149999999REMSYN130AAXX  29064 06623 31610 811// 11052 2//// 39325 57003 71022 333 21053 4/005 55000 55300 20014 70000 88743 90768 93100 91108 91204;EQDQ01  00412WGOSPD
0153066230999992011012907004+47650+009017FM-12+070299999V02099999999999999999N9999999N1-00521+99999999999ADDMA1999999093261MD1519999+9999OA149999999REMSYN082AAXX  29074 06623 33/// /00// 11052 2//// 39326 55/// 333 55300 20014 91104 91202;EQDQ01  00212WGOSPD
0153066230999992011012908004+47650+009017FM-12+070299999V02099999999999999999N9999999N1-00511+99999999999ADDMA1999999093251MD1410001+9999OA149999999REMSYN082AAXX  29084 06623 33/// /14// 11051 2//// 39325 54001 333 55300 20054 91104 91202;EQDQ01  00212WGOSPD
0153066230999992011012909004+47650+009017FM-12+070299999V02099999999999999999N9999999N1-00501+99999999999ADDMA1999999093251MD1010001+9999OA149999999REMSYN082AAXX  29094 06623 33/// /05// 11050 2//// 39325 50000 333 55300 20130 91104 91202;EQDQ01  00212WGOSPD
0153066230999992011012910004+47650+009017FM-12+070299999V02099999999999999999N9999999N1-00481+99999999999ADDMA1999999093241MD1710021+9999OA149999999REMSYN082AAXX  29104 06623 33/// /06// 11048 2//// 39324 57002 333 55300 20324 91104 91202;EQDQ01  00212WGOSPD
0153066230999992011012911004+47650+009017FM-12+070299999V02099999999999999999N9999999N1-00481+99999999999ADDMA1999999093201MD1810051+9999OA149999999REMSYN082AAXX  29114 06623 33/// /07// 11048 2//// 39320 58005 333 55300 20342 91105 91203;EQDQ01  00262WGOSPD
0229066230999992011012912004+47650+009017FM-12+070299999V0209999999999012901CN0010001N1-00451+99999999999ADDAY121061AY221061GA1081+012901071GF108991999999012501999999MA1999999093161MD1710091+9999MW1101OA149999999REMSYN094AAXX  29124 06623 31610 807// 11045 2//// 39316 57009 71022 333 55300 20533 88743 91106 91203;EQDQ01  00312WGOSPD
0153066230999992011012913004+47650+009017FM-12+070299999V02099999999999999999N9999999N1-00411+99999999999ADDMA1999999093111MD1810131+9999OA149999999REMSYN082AAXX  29134 06623 33/// /05// 11041 2//// 39311 58013 333 55300 2//// 91107 91203;EQDQ01  00362WGOSPD
0153066230999992011012914004+47650+009017FM-12+070299999V02099999999999999999N9999999N1-00431+99999999999ADDMA1999999093091MD1610111+9999OA149999999REMSYN082AAXX  29144 06623 33/// /07// 11043 2//// 39309 56011 333 55300 20540 91108 91203;EQDQ01  00412WGOSPD
0153066230999992011012915004+47650+009017FM-12+070299999V02099999999999999999N9999999N1-00461+99999999999ADDMA1999999093081MD1610081+9999OA149999999REMSYN082AAXX  29154 06623 33/// /10// 11046 2//// 39308 56008 333 55300 20310 91108 91203;EQDQ01  00412WGOSPD
0153066230999992011012916004+47650+009017FM-12+070299999V02099999999999999999N9999999N1-00501+99999999999ADDMA1999999093091MD1510021+9999OA149999999REMSYN082AAXX  29164 06623 33/// /07// 11050 2//// 39309 55002 333 55300 20108 91107 91204;EQDQ01  00362WGOSPD
0153066230999992011012917004+47650+009017FM-12+070299999V02099999999999999999N9999999N1-00521+99999999999ADDMA1999999093111MD1219999+9999OA149999999REMSYN082AAXX  29174 06623 33/// /07// 11052 2//// 39311 52/// 333 55300 20022 91107 91204;EQDQ01  00362WGOSPD
0293066230999992011012918004+47650+009017FM-12+070299999V0209999999999012901CN0010001N1-00571+99999999999ADDAJ100049199999999AL19900091AY121061AY221061GA1081+012901071GF108991999999012501999999KA1120M-00381MA1999999093121MD1310041+9999MW1101OA149999999REMSYN118AAXX  29184 06623 31610 808// 11057 2//// 39312 53004 71022 333 11038 4/004 55300 20014 88743 90766 93100 91108 91204;EQDQ01  00412WGOSPD
0153066230999992011012919004+47650+009017FM-12+070299999V02099999999999999999N9999999N1-00581+99999999999ADDMA1999999093131MD1110041+9999OA149999999REMSYN082AAXX  29194 06623 33/// /06// 11058 2//// 39313 51004 333 55300 20011 91107 91203;EQDQ01  00362WGOSPD
0153066230999992011012920004+47650+009017FM-12+070299999V02099999999999999999N9999999N1-00571+99999999999ADDMA1999999093121MD1219999+9999OA149999999REMSYN082AAXX  29204 06623 33/// /06// 11057 2//// 39312 52/// 333 55300 20011 91104 91203;EQDQ01  00212WGOSPD
0153066230999992011012921004+47650+009017FM-12+070299999V02099999999999999999N9999999N1-00581+99999999999ADDMA1999999093111MD1710011+9999OA149999999REMSYN082AAXX  29214 06623 33/// /07// 11058 2//// 39311 57001 333 55300 20014 91107 91204;EQDQ01  00362WGOSPD
0153066230999992011012922004+47650+009017FM-12+070299999V02099999999999999999N9999999N1-00621+99999999999ADDMA1999999093091MD1810041+9999OA149999999REMSYN082AAXX  29224 06623 33/// /08// 11062 2//// 39309 58004 333 55300 20014 91107 91203;EQDQ01  00362WGOSPD
0153066230999992011012923004+47650+009017FM-12+070299999V02099999999999999999N9999999N1-00651+99999999999ADDMA1999999093131MD1310011+9999OA149999999REMSYN082AAXX  29234 06623 33/// /08// 11065 2//// 39313 53001 333 55300 20014 91107 91203;EQDQ01  00362WGOSPD
0153066230999992011013000004+47650+009017FM-12+070299999V02099999999999999999N9999999N1-00661+99999999999ADDMA1999999093091MD1710021+9999OA149999999REMSYN082AAXX  30004 06623 33/// /07// 11066 2//// 39309 57002 333 55300 20014 91108 91204;EQDQ01  00412WGOSPD
0169066230999992011013001004+47650+009017FM-12+070299999V02099999999999999999N9999999N1-00661+99999999999ADDMA1999999093091MD1410001+9999OA149999999REMSYN082AAXX  30014 06623 33/// /07// 11066 2//// 39309 58000 333 55300 20014 91106 91202;EQDQ01+000082APCTENQ02  00312WGOSPD
0153066230999992011013002004+47650+009017FM-12+070299999V02099999999999999999N9999999N1-00671+99999999999ADDMA1999999093061MD1710071+9999OA149999999REMSYN082AAXX  30024 06623 33/// /08// 11067 2//// 39306 57007 333 55300 20014 91105 91202;EQDQ01  00262WGOSPD
0153066230999992011013003004+47650+009017FM-12+070299999V02099999999999999999N9999999N1-00711+99999999999ADDMA1999999093031MD1710061+9999OA149999999REMSYN082AAXX  30034 06623 33/// /07// 11071 2//// 39303 57006 333 55300 20014 91107 91203;EQDQ01  00362WGOSPD
0153066230999992011013004004+47650+009017FM-12+070299999V02099999999999999999N9999999N1-00731+99999999999ADDMA1999999093031MD1710061+9999OA149999999REMSYN082AAXX  30044 06623 33/// /08// 11073 2//// 39303 57006 333 55300 20014 91106 91203;EQDQ01  00312WGOSPD
0153066230999992011013005004+47650+009017FM-12+070299999V02099999999999999999N9999999N1-00731+99999999999ADDMA1999999093051MD1310011+9999OA149999999REMSYN082AAXX  30054 06623 33/// /04// 11073 2//// 39305 53001 333 55300 20014 91106 91203;EQDQ01  00312WGOSPD
0307066230999992011013006004+47650+009017FM-12+070299999V02099999999990001519N0000001N1-00761+99999999999ADDAJ100049199999999AL19900091AY141061AY221061GA1091+999999999GF109991091999999999999999GJ100009KA1999N-00741MA1999999093091MD1210061+9999MW1491OA149999999REMSYN124AAXX  30064 06623 31/00 906// 11076 2//// 39309 52006 74942 333 21074 4/004 55000 55300 20014 70000 90768 93100 91107 91203;EQDQ01  00362WGOSPD
0153066230999992011013007004+47650+009017FM-12+070299999V02099999999999999999N9999999N1-00801+99999999999ADDMA1999999093121MD1310091+9999OA149999999REMSYN082AAXX  30074 06623 33/// /06// 11080 2//// 39312 53009 333 55300 20014 91104 91202;EQDQ01  00212WGOSPD
0153066230999992011013008004+47650+009017FM-12+070299999V02099999999999999999N9999999N1-00771+99999999999ADDMA1999999093131MD1110081+9999OA149999999REMSYN082AAXX  30084 06623 33/// /05// 11077 2//// 39313 51008 333 55300 20065 91105 91203;EQDQ01  00262WGOSPD
0153066230999992011013009004+47650+009017FM-12+070299999V02099999999999999999N9999999N1-00761+99999999999ADDMA1999999093141MD1110051+9999OA149999999REMSYN082AAXX  30094 06623 33/// /05// 11076 2//// 39314 51005 333 55300 20198 91106 91203;EQDQ01  00312WGOSPD
0153066230999992011013010004+47650+009017FM-12+070299999V02099999999999999999N9999999N1-00751+99999999999ADDMA1999999093161MD1210041+9999OA149999999REMSYN082AAXX  30104 06623 33/// /04// 11075 2//// 39316 52004 333 55300 20342 91105 91203;EQDQ01  00262WGOSPD
0153066230999992011013011004+47650+009017FM-12+070299999V02099999999999999999N9999999N1-00761+99999999999ADDMA1999999093171MD1210041+9999OA149999999REMSYN082AAXX  30114 06623 33/// /06// 11076 2//// 39317 52004 333 55300 20392 91107 91203;EQDQ01  00362WGOSPD
0223066230999992011013012004+47650+009017FM-12+070299999V02099999999990001519N0000001N1-00751+99999999999ADDAY141061AY221061GA1091+999999999GF109991091999999999999999MA1999999093161MD1010021+9999MW1491OA149999999REMSYN088AAXX  30124 06623 31/00 905// 11075 2//// 39316 50002 74942 333 55300 20439 91107 91203;EQDQ01  00362WGOSPD
0153066230999992011013013004+47650+009017FM-12+070299999V02099999999999999999N9999999N1-00761+99999999999ADDMA1999999093141MD1810021+9999OA149999999REMSYN082AAXX  30134 06623 33/// /05// 11076 2//// 39314 58002 333 55300 20446 91107 91205;EQDQ01  00362WGOSPD
0153066230999992011013014004+47650+009017FM-12+070299999V02099999999999999999N9999999N1-00751+99999999999ADDMA1999999093161MD1510011+9999OA149999999REMSYN082AAXX  30144 06623 33/// /06// 11075 2//// 39316 55001 333 55300 20374 91107 91205;EQDQ01  00362WGOSPD
0153066230999992011013015004+47650+009017FM-12+070299999V02099999999999999999N9999999N1-00771+99999999999ADDMA1999999093161MD1510001+9999OA149999999REMSYN082AAXX  30154 06623 33/// /07// 11077 2//// 39316 55000 333 55300 20227 91107 91205;EQDQ01  00362WGOSPD
0153066230999992011013016004+47650+009017FM-12+070299999V02099999999999999999N9999999N1-00791+99999999999ADDMA1999999093201MD1310061+9999OA149999999REMSYN082AAXX  30164 06623 33/// /08// 11079 2//// 39320 53006 333 55300 20094 91106 91203;EQDQ01  00312WGOSPD
0153066230999992011013017004+47650+009017FM-12+070299999V02099999999999999999N9999999N1-00781+99999999999ADDMA1999999093231MD1210071+9999OA149999999REMSYN082AAXX  30174 06623 33/// /08// 11078 2//// 39323 52007 333 55300 20018 91106 91203;EQDQ01  00312WGOSPD
0293066230999992011013018004+47650+009017FM-12+070299999V0209999999999012001CN0010001N1-00791+99999999999ADDAJ100049199999999AL19900091AY141061AY221061GA1081+012001071GF108991999999012501999999KA1120M-00741MA1999999093311MD1210151+9999MW1101OA149999999REMSYN118AAXX  30184 06623 31610 806// 11079 2//// 39331 52015 71042 333 11074 4/004 55300 20014 88740 90766 93100 91107 91205;EQDQ01  00362WGOSPD
0153066230999992011013019004+47650+009017FM-12+070299999V02099999999999999999N9999999N1-00781+99999999999ADDMA1999999093361MD1210161+9999OA149999999REMSYN082AAXX  30194 06623 33/// /06// 11078 2//// 39336 52016 333 55300 20014 91107 91202;EQDQ01  00362WGOSPD
0153066230999992011013020004+47650+009017FM-12+070299999V02099999999999999999N9999999N1-00791+99999999999ADDMA1999999093421MD1210191+9999OA149999999REMSYN082AAXX  30204 06623 33/// /07// 11079 2//// 39342 52019 333 55300 20014 91106 91202;EQDQ01  00312WGOSPD
0153066230999992011013021004+47650+009017FM-12+070299999V02099999999999999999N9999999N1-00801+99999999999ADDMA1999999093451MD1210141+9999OA149999999REMSYN082AAXX  30214 06623 33/// /08// 11080 2//// 39345 52014 333 55300 20014 91107 91203;EQDQ01  00362WGOSPD
0153066230999992011013022004+47650+009017FM-12+070299999V02099999999999999999N9999999N1-00791+99999999999ADDMA1999999093461MD1210101+9999OA149999999REMSYN082AAXX  30224 06623 33/// /05// 11079 2//// 39346 52010 333 55300 20014 91105 91203;EQDQ01  00262WGOSPD
0153066230999992011013023004+47650+009017FM-12+070299999V02099999999999999999N9999999N1-00821+99999999999ADDMA1999999093481MD1210061+9999OA149999999REMSYN082AAXX  30234 06623 33/// /06// 11082 2//// 39348 52006 333 55300 20014 91105 91203;EQDQ01  00262WGOSPD
0153066230999992011013100004+47650+009017FM-12+070299999V02099999999999999999N9999999N1-00791+99999999999ADDMA1999999093481MD1210031+9999OA149999999REMSYN082AAXX  31004 06623 33/// /05// 11079 2//// 39348 52003 333 55300 20014 91107 91205;EQDQ01  00362WGOSPD
0153066230999992011013101004+47650+009017FM-12+070299999V02099999999999999999N9999999N1-00771+99999999999ADDMA1999999093511MD1210051+9999OA149999999REMSYN082AAXX  31014 06623 33/// /05// 11077 2//// 39351 52005 333 55300 20014 91107 91204;EQDQ01  00362WGOSPD
0153066230999992011013102004+47650+009017FM-12+070299999V02099999999999999999N9999999N1-00761+99999999999ADDMA1999999093521MD1210041+9999OA149999999REMSYN082AAXX  31024 06623 33/// /04// 11076 2//// 39352 52004 333 55300 20014 91105 91203;EQDQ01  00262WGOSPD
0153066230999992011013103004+47650+009017FM-12+070299999V02099999999999999999N9999999N1-00751+99999999999ADDMA1999999093511MD1210031+9999OA149999999REMSYN082AAXX  31034 06623 33/// /00// 11075 2//// 39351 52003 333 55300 20014 91107 91204;EQDQ01  00362WGOSPD
0153066230999992011013104004+47650+009017FM-12+070299999V02099999999999999999N9999999N1-00741+99999999999ADDMA1999999093531MD1210021+9999OA149999999REMSYN082AAXX  31044 06623 33/// /08// 11074 2//// 39353 52002 333 55300 20014 91104 91203;EQDQ01  00212WGOSPD
0153066230999992011013105004+47650+009017FM-12+070299999V02099999999999999999N9999999N1-00731+99999999999ADDMA1999999093551MD1210031+9999OA149999999REMSYN082AAXX  31054 06623 33/// /04// 11073 2//// 39355 52003 333 55300 20014 91103 91202;EQDQ01  00152WGOSPD
0313066230999992011013106004+47650+009017FM-12+070299999V0209999999999012001CN0010001N1-00731+99999999999ADDAJ100049199999999AL19900091AY141061AY221061GA1081+012001071GF108991999999012501999999GJ100009KA1999N-00821MA1999999093581MD1310071+9999MW1101OA149999999REMSYN130AAXX  31064 06623 31610 804// 11073 2//// 39358 53007 71042 333 21082 4/004 55000 55300 20014 70000 88740 90768 93100 91107 91204;EQDQ01  00362WGOSPD
0153066230999992011013107004+47650+009017FM-12+070299999V02099999999999999999N9999999N1-00731+99999999999ADDMA1999999093641MD1310111+9999OA149999999REMSYN082AAXX  31074 06623 33/// /09// 11073 2//// 39364 53011 333 55300 20014 91105 91202;EQDQ01  00262WGOSPD
0153066230999992011013108004+47650+009017FM-12+070299999V02099999999999999999N9999999N1-00721+99999999999ADDMA1999999093681MD1310131+9999OA149999999REMSYN082AAXX  31084 06623 33/// /08// 11072 2//// 39368 53013 333 55300 20050 91105 91202;EQDQ01  00262WGOSPD
0153066230999992011013109004+47650+009017FM-12+070299999V02099999999999999999N9999999N1-00711+99999999999ADDMA1999999093721MD1110141+9999OA149999999REMSYN082AAXX  31094 06623 33/// /05// 11071 2//// 39372 51014 333 55300 20148 91105 91202;EQDQ01  00262WGOSPD
0153066230999992011013110004+47650+009017FM-12+070299999V02099999999999999999N9999999N1-00681+99999999999ADDMA1999999093761MD1110121+9999OA149999999REMSYN082AAXX  31104 06623 33/// /04// 11068 2//// 39376 51012 333 55300 20281 91104 91203;EQDQ01  00212WGOSPD
0153066230999992011013111004+47650+009017FM-12+070299999V02099999999999999999N9999999N1-00681+99999999999ADDMA1999999093771MD1110091+9999OA149999999REMSYN082AAXX  31114 06623 33/// /10// 11068 2//// 39377 51009 333 55300 20356 91104 91203;EQDQ01  00212WGOSPD
0223066230999992011013112004+47650+009017FM-12+070299999V02099999999990001519N0000001N1-00661+99999999999ADDAY141061AY221061GA1091+999999999GF109991091999999999999999MA1999999093761MD1010041+9999MW1491OA149999999REMSYN088AAXX  31124 06623 31/00 902// 11066 2//// 39376 50004 74942 333 55300 20414 91105 91203;EQDQ01  00262WGOSPD
0153066230999992011013113004+47650+009017FM-12+070299999V02099999999999999999N9999999N1-00691+99999999999ADDMA1999999093741MD1810021+9999OA149999999REMSYN082AAXX  31134 06623 33/// /04// 11069 2//// 39374 58002 333 55300 20374 91105 91203;EQDQ01  00262WGOSPD
0153066230999992011013114004+47650+009017FM-12+070299999V02099999999999999999N9999999N1-00711+99999999999ADDMA1999999093751MD1710021+9999OA149999999REMSYN082AAXX  31144 06623 33/// /04// 11071 2//// 39375 57002 333 55300 20295 91105 91203;EQDQ01  00262WGOSPD
0153066230999992011013115004+47650+009017FM-12+070299999V02099999999999999999N9999999N1-00711+99999999999ADDMA1999999093761MD1510001+9999OA149999999REMSYN082AAXX  31154 06623 33/// /00// 11071 2//// 39376 55000 333 55300 20184 91105 91203;EQDQ01  00262WGOSPD
0153066230999992011013116004+47650+009017FM-12+070299999V02099999999999999999N9999999N1-00711+99999999999ADDMA1999999093811MD1210071+9999OA149999999REMSYN082AAXX  31164 06623 33/// /05// 11071 2//// 39381 52007 333 55300 20079 91106 91202;EQDQ01  00312WGOSPD
0153066230999992011013117004+47650+009017FM-12+070299999V02099999999999999999N9999999N1-00691+99999999999ADDMA1999999093851MD1210101+9999OA149999999REMSYN082AAXX  31174 06623 33/// /06// 11069 2//// 39385 52010 333 55300 20018 91106 91202;EQDQ01  00312WGOSPD
0287066230999992011013118004+47650+009017FM-12+070299999V02099999999990001519N0000001N1-00711+99999999999ADDAJ100049199999999AL19900091AY141061AY221061GA1091+999999999GF109991091999999999999999KA1120M-00661MA1999999093891MD1110131+9999MW1491OA149999999REMSYN112AAXX  31184 06623 31/00 906// 11071 2//// 39389 51013 74942 333 11066 4/004 55300 20014 90766 93100 91106 91203;EQDQ01  00312WGOSPD
0153066230999992011013119004+47650+009017FM-12+070299999V02099999999999999999N9999999N1-00721+99999999999ADDMA1999999093941MD1210131+9999OA149999999REMSYN082AAXX  31194 06623 33/// /08// 11072 2//// 39394 52013 333 55300 20014 91105 91202;EQDQ01  00262WGOSPD
0153066230999992011013120004+47650+009017FM-12+070299999V02099999999999999999N9999999N1-00741+99999999999ADDMA1999999093971MD1110121+9999OA149999999REMSYN082AAXX  31204 06623 33/// /32// 11074 2//// 39397 51012 333 55300 20014 91105 91202;EQDQ01  00262WGOSPD
0153066230999992011013121004+47650+009017FM-12+070299999V02099999999999999999N9999999N1-00751+99999999999ADDMA1999999094001MD1110111+9999OA149999999REMSYN082AAXX  31214 06623 33/// /34// 11075 2//// 39400 51011 333 55300 20014 91106 91202;EQDQ01  00312WGOSPD
0153066230999992011013122004+47650+009017FM-12+070299999V02099999999999999999N9999999N1-00751+99999999999ADDMA1999999093991MD1210051+9999OA149999999REMSYN082AAXX  31224 06623 33/// /04// 11075 2//// 39399 52005 333 55300 20014 91104 91202;EQDQ01  00212WGOSPD
0153066230999992011013123004+47650+009017FM-12+070299999V02099999999999999999N9999999N1-00771+99999999999ADDMA1999999094001MD1210031+9999OA149999999REMSYN082AAXX  31234 06623 33/// /23// 11077 2//// 39400 52003 333 55300 20014 91104 91202;EQDQ01  00212WGOSPD
0153066230999992011020100004+47650+009017FM-12+070299999V02099999999999999999N9999999N1-00761+99999999999ADDMA1999999094011MD1210011+9999OA149999999REMSYN082AAXX  01004 06623 33/// /07// 11076 2//// 39401 52001 333 55300 20014 91106 91203;EQDQ01  00312WGOSPD
0153066230999992011020101004+47650+009017FM-12+070299999V02099999999999999999N9999999N1-00751+99999999999ADDMA1999999094011MD1210021+9999OA149999999REMSYN082AAXX  01014 06623 33/// /05// 11075 2//// 39401 52002 333 55300 20014 91104 91202;EQDQ01  00212WGOSPD
0153066230999992011020102004+47650+009017FM-12+070299999V02099999999999999999N9999999N1-00761+99999999999ADDMA1999999094031MD1210031+9999OA149999999REMSYN082AAXX  01024 06623 33/// /31// 11076 2//// 39403 52003 333 55300 20014 91103 91201;EQDQ01  00152WGOSPD
0153066230999992011020103004+47650+009017FM-12+070299999V02099999999999999999N9999999N1-00771+99999999999ADDMA1999999094001MD1010011+9999OA149999999REMSYN082AAXX  01034 06623 33/// /00// 11077 2//// 39400 50001 333 55300 20014 91104 91202;EQDQ01  00212WGOSPD
0153066230999992011020104004+47650+009017FM-12+070299999V02099999999999999999N9999999N1-00761+99999999999ADDMA1999999094001MD1710011+9999OA149999999REMSYN082AAXX  01044 06623 33/// /00// 11076 2//// 39400 57001 333 55300 20014 91103 91201;EQDQ01  00152WGOSPD
0153066230999992011020105004+47650+009017FM-12+070299999V02099999999999999999N9999999N1-00721+99999999999ADDMA1999999093991MD1710041+9999OA149999999REMSYN082AAXX  01054 06623 33/// /28// 11072 2//// 39399 57004 333 55300 20014 91106 91203;EQDQ01  00312WGOSPD
0307066230999992011020106004+47650+009017FM-12+070299999V02099999999990001519N0000001N1-00751+99999999999ADDAJ100049199999999AL19900091AY141061AY221061GA1091+999999999GF109991091999999999999999GJ100009KA1999N-00781MA1999999093991MD1510011+9999MW1491OA149999999REMSYN124AAXX  01064 06623 31/00 903// 11075 2//// 39399 55001 74942 333 21078 4/004 55000 55300 20014 70000 90768 93100 91106 91203;EQDQ01  00312WGOSPD
0153066230999992011020107004+47650+009017FM-12+070299999V02099999999999999999N9999999N1-00731+99999999999ADDMA1999999094041MD1210041+9999OA149999999REMSYN082AAXX  01074 06623 33/// /03// 11073 2//// 39404 52004 333 55300 20014 91104 91202;EQDQ01  00212WGOSPD
0153066230999992011020108004+47650+009017FM-12+070299999V02099999999999999999N9999999N1-00741+99999999999ADDMA1999999094121MD1210131+9999OA149999999REMSYN082AAXX  01084 06623 33/// /29// 11074 2//// 39412 52013 333 55300 20050 91104 91202;EQDQ01  00212WGOSPD
0153066230999992011020109004+47650+009017FM-12+070299999V02099999999999999999N9999999N1-00711+99999999999ADDMA1999999094181MD1210191+9999OA149999999REMSYN082AAXX  01094 06623 33/// /25// 11071 2//// 39418 52019 333 55300 20144 91106 91203;EQDQ01  00312WGOSPD
0153066230999992011020110004+47650+009017FM-12+070299999V02099999999999999999N9999999N1-00671+99999999999ADDMA1999999094211MD1110171+9999OA149999999REMSYN082AAXX  01104 06623 33/// /28// 11067 2//// 39421 51017 333 55300 20277 91105 91202;EQDQ01  00262WGOSPD
0153066230999992011020111004+47650+009017FM-12+070299999V02099999999999999999N9999999N1-00631+99999999999ADDMA1999999094231MD1110111+9999OA149999999REMSYN082AAXX  01114 06623 33/// /28// 11063 2//// 39423 51011 333 55300 20346 91105 91203;EQDQ01  00262WGOSPD
0223066230999992011020112004+47650+009017FM-12+070299999V02099999999990001519N0000001N1-00631+99999999999ADDAY141061AY221061GA1091+999999999GF109991091999999999999999MA1999999094211MD1010031+9999MW1491OA149999999REMSYN088AAXX  01124 06623 31/00 927// 11063 2//// 39421 50003 74942 333 55300 20371 91106 91203;EQDQ01  00312WGOSPD
0153066230999992011020113004+47650+009017FM-12+070299999V02099999999999999999N9999999N1-00641+99999999999ADDMA1999999094181MD1710031+9999OA149999999REMSYN082AAXX  01134 06623 33/// /26// 11064 2//// 39418 57003 333 55300 20371 91107 91203;EQDQ01  00362WGOSPD
0153066230999992011020114004+47650+009017FM-12+070299999V02099999999999999999N9999999N1-00631+99999999999ADDMA1999999094161MD1710071+9999OA149999999REMSYN082AAXX  01144 06623 33/// /27// 11063 2//// 39416 57007 333 55300 20288 91107 91204;EQDQ01  00362WGOSPD
0153066230999992011020115004+47650+009017FM-12+070299999V02099999999999999999N9999999N1-00641+99999999999ADDMA1999999094171MD1710041+9999OA149999999REMSYN082AAXX  01154 06623 33/// /27// 11064 2//// 39417 57004 333 55300 20194 91107 91204;EQDQ01  00362WGOSPD
0153066230999992011020116004+47650+009017FM-12+070299999V02099999999999999999N9999999N1-00641+99999999999ADDMA1999999094171MD1510011+9999OA149999999REMSYN082AAXX  01164 06623 33/// /27// 11064 2//// 39417 55001 333 55300 20083 91105 91203;EQDQ01  00262WGOSPD
0153066230999992011020117004+47650+009017FM-12+070299999V02099999999999999999N9999999N1-00641+99999999999ADDMA1999999094221MD1310061+9999OA149999999REMSYN082AAXX  01174 06623 33/// /28// 11064 2//// 39422 53006 333 55300 20018 91105 91202;EQDQ01  00262WGOSPD
0287066230999992011020118004+47650+009017FM-12+070299999V02099999999990001519N0000001N1-00641+99999999999ADDAJ100049199999999AL19900091AY141061AY221061GA1091+999999999GF109991091999999999999999KA1120M-00631MA1999999094281MD1310111+9999MW1491OA149999999REMSYN112AAXX  01184 06623 31/00 928// 11064 2//// 39428 53011 74942 333 11063 4/004 55300 20014 90766 93100 91109 91204;EQDQ01  00462WGOSPD
0153066230999992011020119004+47650+009017FM-12+070299999V02099999999999999999N9999999N1-00651+99999999999ADDMA1999999094321MD1310151+9999OA149999999REMSYN082AAXX  01194 06623 33/// /28// 11065 2//// 39432 53015 333 55300 20014 91109 91204;EQDQ01  00462WGOSPD
0153066230999992011020120004+47650+009017FM-12+070299999V02099999999999999999N9999999N1-00651+99999999999ADDMA1999999094351MD1110131+9999OA149999999REMSYN082AAXX  01204 06623 33/// /26// 11065 2//// 39435 51013 333 55300 20014 91108 91204;EQDQ01  00412WGOSPD
0153066230999992011020121004+47650+009017FM-12+070299999V02099999999999999999N9999999N1-00651+99999999999ADDMA1999999094371MD1210091+9999OA149999999REMSYN082AAXX  01214 06623 33/// /27// 11065 2//// 39437 52009 333 55300 20014 91111 91205;EQDQ01  00572WGOSPD
0153066230999992011020122004+47650+009017FM-12+070299999V02099999999999999999N9999999N1-00651+99999999999ADDMA1999999094381MD1210061+9999OA149999999REMSYN082AAXX  01224 06623 33/// /27// 11065 2//// 39438 52006 333 55300 20014 91111 91206;EQDQ01  00572WGOSPD
0153066230999992011020123004+47650+009017FM-12+070299999V02099999999999999999N9999999N1-00671+99999999999ADDMA1999999094401MD1210051+9999OA149999999REMSYN082AAXX  01234 06623 33/// /26// 11067 2//// 39440 52005 333 55300 20014 91110 91206;EQDQ01  00512WGOSPD
0081066230999992011020200004+47650+009017FM-12+070299999V02099999999999999999N9999999N1-00671+99999999999ADDMA1999999094431REMSYN054AAXX  02004 06623 43/// /27// 11067 2//// 39443 5////;
0081066230999992011020201004+47650+009017FM-12+070299999V02099999999999999999N9999999N1-00691+99999999999ADDMA1999999094491REMSYN054AAXX  02014 06623 43/// /27// 11069 2//// 39449 5////;
0081066230999992011020202004+47650+009017FM-12+070299999V02099999999999999999N9999999N1-00701+99999999999ADDMA1999999094491REMSYN054AAXX  02024 06623 43/// /28// 11070 2//// 39449 5////;
0081066230999992011020203004+47650+009017FM-12+070299999V02099999999999999999N9999999N1-00711+99999999999ADDMA1999999094491REMSYN054AAXX  02034 06623 43/// /26// 11071 2//// 39449 5////;
0081066230999992011020204004+47650+009017FM-12+070299999V02099999999999999999N9999999N1-00721+99999999999ADDMA1999999094521REMSYN054AAXX  02044 06623 43/// /26// 11072 2//// 39452 5////;
0081066230999992011020205004+47650+009017FM-12+070299999V02099999999999999999N9999999N1-00731+99999999999ADDMA1999999094551REMSYN054AAXX  02054 06623 43/// /29// 11073 2//// 39455 5////;
0220066230999992011020206004+47650+009017FM-12+070299999V02099999999990111019N0000001N1-00731+99999999999ADDAJ100049199999999AL10600091AY141061AY221061GA1081+011101071GF108991999999012501999999GJ100009MA1999999094571MW1481REMSYN094AAXX  02064 06623 41600 826// 11073 2//// 39457 5//// 74842 333 4/004 55000 88737 90768 93100;
0081066230999992011020207004+47650+009017FM-12+070299999V02099999999999999999N9999999N1-00751+99999999999ADDMA1999999094601REMSYN054AAXX  02074 06623 43/// /26// 11075 2//// 39460 5////;
0153066230999992011020208004+47650+009017FM-12+070299999V02099999999999999999N9999999N1-00731+99999999999ADDMA1999999094641MD1210091+9999OA149999999REMSYN082AAXX  02084 06623 33/// /33// 11073 2//// 39464 52009 333 55300 20068 91105 91203;EQDQ01  00262WGOSPD
0153066230999992011020209004+47650+009017FM-12+070299999V02099999999999999999N9999999N1-00751+99999999999ADDMA1999999094671MD1110101+9999OA149999999REMSYN082AAXX  02094 06623 33/// /00// 11075 2//// 39467 51010 333 55300 20270 91106 91203;EQDQ01  00312WGOSPD
0153066230999992011020210004+47650+009017FM-12+070299999V02099999999999999999N9999999N1-00711+99999999999ADDMA1999999094701MD1210101+9999OA149999999REMSYN082AAXX  02104 06623 33/// /00// 11071 2//// 39470 52010 333 55300 20486 91103 91201;EQDQ01  00152WGOSPD
0153066230999992011020211004+47650+009017FM-12+070299999V02099999999999999999N9999999N1-00641+99999999999ADDMA1999999094671MD1010031+9999OA149999999REMSYN082AAXX  02114 06623 33/// /00// 11064 2//// 39467 50003 333 55300 20828 91103 91201;EQDQ01  00152WGOSPD
0229066230999992011020212004+47650+009017FM-12+070299999V0209999999999012901CN0010001N1-00591+99999999999ADDAY141061AY221061GA1081+012901071GF108991999999012501999999MA1999999094651MD1810021+9999MW1101OA149999999REMSYN094AAXX  02124 06623 31610 830// 11059 2//// 39465 58002 71042 333 55300 20918 88743 91109 91205;EQDQ01  00462WGOSPD
0153066230999992011020213004+47650+009017FM-12+070299999V02099999999999999999N9999999N1-00471+99999999999ADDMA1999999094591MD1710111+9999OA149999999REMSYN082AAXX  02134 06623 33/// /05// 11047 2//// 39459 57011 333 55302 2//// 91103 91201;EQDQ01  00152WGOSPD
0097066230999992011020214004+47650+009017FM-12+070299999V02099999999999999999N9999999N1-00531+99999999999ADDMA1999999094591REMSYN070AAXX  02144 06623 33/// /05// 11053 2//// 39459 5//// 333 553// 2////;
0153066230999992011020215004+47650+009017FM-12+070299999V02099999999999999999N9999999N1-00541+99999999999ADDMA1999999094581MD1710071+9999OA149999999REMSYN082AAXX  02154 06623 33/// /08// 11054 2//// 39458 57007 333 55307 20641 91106 91203;EQDQ01  00312WGOSPD
0169066230999992011020216004+47650+009017FM-12+070299999V02099999999999999999N9999999N1-00561+99999999999ADDMA1999999094591MD1410001+9999OA149999999REMSYN082AAXX  02164 06623 33/// /10// 11056 2//// 39459 53000 333 55309 20324 91103 91201;EQDQ01+000032APCTENQ02  00152WGOSPD
0153066230999992011020217004+47650+009017FM-12+070299999V02099999999999999999N9999999N1-00741+99999999999ADDMA1999999094631MD1210041+9999OA149999999REMSYN082AAXX  02174 06623 33/// /08// 11074 2//// 39463 52004 333 55300 20029 91103 91201;EQDQ01  00152WGOSPD
0287066230999992011020218004+47650+009017FM-12+070299999V02099999999992200019N0020001N1-00701+99999999999ADDAJ100049199999999AL19900091AY111061AY211061GA1001+999999999GF100991001001999999001001KA1120M-00431MA1999999094661MD1210081+9999MW1101OA149999999REMSYN112AAXX  02184 06623 31/20 008// 11070 2//// 39466 52008 71011 333 11043 4/004 55300 20014 90766 93100 91106 91203;EQDQ01  00312WGOSPD
0153066230999992011020219004+47650+009017FM-12+070299999V02099999999999999999N9999999N1-00791+99999999999ADDMA1999999094661MD1210071+9999OA149999999REMSYN082AAXX  02194 06623 33/// /00// 11079 2//// 39466 52007 333 55300 20014 91104 91202;EQDQ01  00212WGOSPD
0153066230999992011020220004+47650+009017FM-12+070299999V02099999999999999999N9999999N1-00811+99999999999ADDMA1999999094631MD1010001+9999OA149999999REMSYN082AAXX  02204 06623 33/// /13// 11081 2//// 39463 50000 333 55300 20014 91103 91201;EQDQ01  00152WGOSPD
0153066230999992011020221004+47650+009017FM-12+070299999V02099999999999999999N9999999N1-00911+99999999999ADDMA1999999094601MD1710061+9999OA149999999REMSYN082AAXX  02214 06623 33/// /00// 11091 2//// 39460 57006 333 55300 20014 91104 91202;EQDQ01  00212WGOSPD
0153066230999992011020222004+47650+009017FM-12+070299999V02099999999999999999N9999999N1-00791+99999999999ADDMA1999999094591MD1710071+9999OA149999999REMSYN082AAXX  02224 06623 33/// /00// 11079 2//// 39459 57007 333 55300 20014 91103 91200;EQDQ01  00152WGOSPD
0153066230999992011020223004+47650+009017FM-12+070299999V02099999999999999999N9999999N1-00671+99999999999ADDMA1999999094581MD1710051+9999OA149999999REMSYN082AAXX  02234 06623 33/// /17// 11067 2//// 39458 57005 333 55300 20014 91103 91201;EQDQ01  00152WGOSPD
0153066230999992011020300004+47650+009017FM-12+070299999V02099999999999999999N9999999N1-00641+99999999999ADDMA1999999094561MD1710041+9999OA149999999REMSYN082AAXX  03004 06623 33/// /00// 11064 2//// 39456 57004 333 55300 20014 91106 91203;EQDQ01  00312WGOSPD
0153066230999992011020301004+47650+009017FM-12+070299999V02099999999999999999N9999999N1-00631+99999999999ADDMA1999999094561MD1710031+9999OA149999999REMSYN082AAXX  03014 06623 33/// /00// 11063 2//// 39456 57003 333 55300 20014 91102 91200;EQDQ01  00102WGOSPD
0153066230999992011020302004+47650+009017FM-12+070299999V02099999999999999999N9999999N1-00661+99999999999ADDMA1999999094571MD1510011+9999OA149999999REMSYN082AAXX  03024 06623 33/// /00// 11066 2//// 39457 55001 333 55300 20014 91102 91200;EQDQ01  00102WGOSPD
0153066230999992011020303004+47650+009017FM-12+070299999V02099999999999999999N9999999N1-00701+99999999999ADDMA1999999094521MD1710041+9999OA149999999REMSYN082AAXX  03034 06623 33/// /00// 11070 2//// 39452 57004 333 55300 20014 91103 91201;EQDQ01  00152WGOSPD
0153066230999992011020304004+47650+009017FM-12+070299999V02099999999999999999N9999999N1-00711+99999999999ADDMA1999999094511MD1710051+9999OA149999999REMSYN082AAXX  03044 06623 33/// /22// 11071 2//// 39451 57005 333 55300 20014 91103 91202;EQDQ01  00152WGOSPD
0153066230999992011020305004+47650+009017FM-12+070299999V02099999999999999999N9999999N1-00721+99999999999ADDMA1999999094511MD1710061+9999OA149999999REMSYN082AAXX  03054 06623 33/// /28// 11072 2//// 39451 57006 333 55300 20014 91105 91203;EQDQ01  00262WGOSPD
0307066230999992011020306004+47650+009017FM-12+070299999V02099999999990001519N0000001N1-00711+99999999999ADDAJ100049199999999AL19900091AY141061AY221061GA1091+999999999GF109991091999999999999999GJ101509KA1999N-00921MA1999999094511MD1510011+9999MW1491OA149999999REMSYN124AAXX  03064 06623 31/00 927// 11071 2//// 39451 55001 74942 333 21092 4/004 55025 55300 20014 70000 90768 93100 91107 91204;EQDQ01  00362WGOSPD
0153066230999992011020307004+47650+009017FM-12+070299999V02099999999999999999N9999999N1-00711+99999999999ADDMA1999999094541MD1210031+9999OA149999999REMSYN082AAXX  03074 06623 33/// /25// 11071 2//// 39454 52003 333 55300 20018 91108 91204;EQDQ01  00412WGOSPD
0153066230999992011020308004+47650+009017FM-12+070299999V02099999999999999999N9999999N1-00681+99999999999ADDMA1999999094571MD1210061+9999OA149999999REMSYN082AAXX  03084 06623 33/// /26// 11068 2//// 39457 52006 333 55300 20115 91109 91205;EQDQ01  00462WGOSPD
0153066230999992011020309004+47650+009017FM-12+070299999V02099999999999999999N9999999N1-00631+99999999999ADDMA1999999094601MD1210091+9999OA149999999REMSYN082AAXX  03094 06623 33/// /26// 11063 2//// 39460 52009 333 55300 20295 91109 91205;EQDQ01  00462WGOSPD
0153066230999992011020310004+47650+009017FM-12+070299999V02099999999999999999N9999999N1-00531+99999999999ADDMA1999999094621MD1210081+9999OA149999999REMSYN082AAXX  03104 06623 33/// /24// 11053 2//// 39462 52008 333 55300 20781 91109 91204;EQDQ01  00462WGOSPD
0153066230999992011020311004+47650+009017FM-12+070299999V02099999999999999999N9999999N1-00421+99999999999ADDMA1999999094621MD1219999+9999OA149999999REMSYN082AAXX  03114 06623 33/// /26// 11042 2//// 39462 52/// 333 55300 2//// 91108 91204;EQDQ01  00412WGOSPD
0229066230999992011020312004+47650+009017FM-12+070299999V0209999999999014101CN0010001N1-00381+99999999999ADDAY141061AY221061GA1071+014101071GF108991999999012501999999MA1999999094611MD1010011+9999MW1101OA149999999REMSYN094AAXX  03124 06623 31610 825// 11038 2//// 39461 50001 71042 333 55300 20781 87747 91111 91206;EQDQ01  00572WGOSPD
0153066230999992011020313004+47650+009017FM-12+070299999V02099999999999999999N9999999N1-00301+99999999999ADDMA1999999094591MD1710031+9999OA149999999REMSYN082AAXX  03134 06623 33/// /25// 11030 2//// 39459 57003 333 55300 20821 91111 91206;EQDQ01  00572WGOSPD
0153066230999992011020314004+47650+009017FM-12+070299999V02099999999999999999N9999999N1-00241+99999999999ADDMA1999999094561MD1719999+9999OA149999999REMSYN082AAXX  03144 06623 33/// /25// 11024 2//// 39456 57/// 333 55300 20468 91112 91207;EQDQ01  00622WGOSPD
0153066230999992011020315004+47650+009017FM-12+070299999V02099999999999999999N9999999N1-00181+99999999999ADDMA1999999094571MD1710041+9999OA149999999REMSYN082AAXX  03154 06623 33/// /26// 11018 2//// 39457 57004 333 55300 20403 91112 91207;EQDQ01  00622WGOSPD
0153066230999992011020316004+47650+009017FM-12+070299999V02099999999999999999N9999999N1-00161+99999999999ADDMA1999999094571MD1510021+9999OA149999999REMSYN082AAXX  03164 06623 33/// /23// 11016 2//// 39457 55002 333 55300 20169 91112 91207;EQDQ01  00622WGOSPD
0153066230999992011020317004+47650+009017FM-12+070299999V02099999999999999999N9999999N1-00161+99999999999ADDMA1999999094611MD1210051+9999OA149999999REMSYN082AAXX  03174 06623 33/// /24// 11016 2//// 39461 52005 333 55300 20022 91111 91206;EQDQ01  00572WGOSPD
0293066230999992011020318004+47650+009017FM-12+070299999V0209999999999012901CN0010001N1-00161+99999999999ADDAJ100039199999999AL19900091AY151061AY221061GA1081+012901071GF108991999999012501999999KA1120M-00151MA1999999094651MD1210081+9999MW1581OA149999999REMSYN118AAXX  03184 06623 31610 823// 11016 2//// 39465 52008 75852 333 11015 4/003 55300 20014 88743 90766 93100 91112 91207;EQDQ01  00622WGOSPD
0153066230999992011020319004+47650+009017FM-12+070299999V02099999999999999999N9999999N1-00071+99999999999ADDMA1999999094711MD1210141+9999OA149999999REMSYN082AAXX  03194 06623 33/// /29// 11007 2//// 39471 52014 333 55300 20014 91112 91207;EQDQ01  00622WGOSPD
0153066230999992011020320004+47650+009017FM-12+070299999V02099999999999999999N9999999N1-00081+99999999999ADDMA1999999094691MD1210081+9999OA149999999REMSYN082AAXX  03204 06623 33/// /26// 11008 2//// 39469 52008 333 55300 20014 91112 91207;EQDQ01  00622WGOSPD
0153066230999992011020321004+47650+009017FM-12+070299999V02099999999999999999N9999999N1-00091+99999999999ADDMA1999999094721MD1210071+9999OA149999999REMSYN082AAXX  03214 06623 33/// /28// 11009 2//// 39472 52007 333 55300 20014 91115 91207;EQDQ01  00772WGOSPD
0153066230999992011020322004+47650+009017FM-12+070299999V02099999999999999999N9999999N1-00091+99999999999ADDMA1999999094691MD1510021+9999OA149999999REMSYN082AAXX  03224 06623 33/// /23// 11009 2//// 39469 55002 333 55300 20014 91115 91207;EQDQ01  00772WGOSPD
0153066230999992011020323004+47650+009017FM-12+070299999V02099999999999999999N9999999N1-00071+99999999999ADDMA1999999094681MD1810011+9999OA149999999REMSYN082AAXX  03234 06623 33/// /24// 11007 2//// 39468 58001 333 55300 20014 91111 91206;EQDQ01  00572WGOSPD
0153066230999992011020400004+47650+009017FM-12+070299999V02099999999999999999N9999999N1-00031+99999999999ADDMA1999999094711MD1510011+9999OA149999999REMSYN082AAXX  04004 06623 33/// /27// 11003 2//// 39471 55001 333 55300 20014 91115 91207;EQDQ01  00772WGOSPD
0153066230999992011020401004+47650+009017FM-12+070299999V02099999999999999999N9999999N1-00041+99999999999ADDMA1999999094681MD1810011+9999OA149999999REMSYN082AAXX  04014 06623 33/// /24// 11004 2//// 39468 58001 333 55300 20014 91109 91206;EQDQ01  00462WGOSPD
0153066230999992011020402004+47650+009017FM-12+070299999V02099999999999999999N9999999N1-00041+99999999999ADDMA1999999094661MD1710021+9999OA149999999REMSYN082AAXX  04024 06623 33/// /26// 11004 2//// 39466 57002 333 55300 20014 91111 91206;EQDQ01  00572WGOSPD
0153066230999992011020403004+47650+009017FM-12+070299999V02099999999999999999N9999999N1+00001+99999999999ADDMA1999999094661MD1710051+9999OA149999999REMSYN082AAXX  04034 06623 33/// /27// 10000 2//// 39466 57005 333 55300 20014 91111 91208;EQDQ01  00572WGOSPD
0153066230999992011020404004+47650+009017FM-12+070299999V02099999999999999999N9999999N1-00011+99999999999ADDMA1999999094591MD1710091+9999OA149999999REMSYN082AAXX  04044 06623 33/// /26// 11001 2//// 39459 57009 333 55300 20014 91112 91208;EQDQ01  00622WGOSPD
0153066230999992011020405004+47650+009017FM-12+070299999V02099999999999999999N9999999N1-00031+99999999999ADDMA1999999094651MD1510011+9999OA149999999REMSYN082AAXX  04054 06623 33/// /26// 11003 2//// 39465 55001 333 55300 20014 91112 91208;EQDQ01  00622WGOSPD
0313066230999992011020406004+47650+009017FM-12+070299999V0209999999999018001CN0010001N1-00021+99999999999ADDAJ100039199999999AL19900091AY121061AY221061GA1081+018001071GF108991999999017501999999GJ100009KA1999N-00161MA1999999094651MD1210011+9999MW1101OA149999999REMSYN130AAXX  04064 06623 31710 826// 11002 2//// 39465 52001 71022 333 21016 4/003 55000 55300 20014 70000 88756 90768 93100 91115 91208;EQDQ01  00772WGOSPD
0153066230999992011020407004+47650+009017FM-12+070299999V02099999999999999999N9999999N1-00051+99999999999ADDMA1999999094671MD1210081+9999OA149999999REMSYN082AAXX  04074 06623 33/// /27// 11005 2//// 39467 52008 333 55300 20018 91114 91207;EQDQ01  00722WGOSPD
0153066230999992011020408004+47650+009017FM-12+070299999V02099999999999999999N9999999N1+00011+99999999999ADDMA1999999094721MD1210071+9999OA149999999REMSYN082AAXX  04084 06623 33/// /27// 10001 2//// 39472 52007 333 55300 20137 91115 91207;EQDQ01  00772WGOSPD
0153066230999992011020409004+47650+009017FM-12+070299999V02099999999999999999N9999999N1+00121+99999999999ADDMA1999999094781MD1210131+9999OA149999999REMSYN082AAXX  04094 06623 33/// /26// 10012 2//// 39478 52013 333 55301 20454 91118 91210;EQDQ01  00932WGOSPD
0153066230999992011020410004+47650+009017FM-12+070299999V02099999999999999999N9999999N1+00251+99999999999ADDMA1999999094781MD1210111+9999OA149999999REMSYN082AAXX  04104 06623 33/// /26// 10025 2//// 39478 52011 333 55308 2//// 91121 91211;EQDQ01  01082WGOSPD
0153066230999992011020411004+47650+009017FM-12+070299999V02099999999999999999N9999999N1+00381+99999999999ADDMA1999999094791MD1210071+9999OA149999999REMSYN082AAXX  04114 06623 33/// /26// 10038 2//// 39479 52007 333 55305 2//// 91121 91211;EQDQ01  01082WGOSPD
0229066230999992011020412004+47650+009017FM-12+070299999V0209999999999027001CN0050001N1+00461+99999999999ADDAY121061AY221061GA1071+027001041GF107991999999999999999999MA1999999094761MD1810021+9999MW1051OA149999999REMSYN094AAXX  04124 06623 31950 726// 10046 2//// 39476 58002 70522 333 55307 2//// 87459 91121 91211;EQDQ01  01082WGOSPD
0153066230999992011020413004+47650+009017FM-12+070299999V02099999999999999999N9999999N1+00511+99999999999ADDMA1999999094671MD1710111+9999OA149999999REMSYN082AAXX  04134 06623 33/// /26// 10051 2//// 39467 57011 333 55307 2//// 91119 91210;EQDQ01  00982WGOSPD
0153066230999992011020414004+47650+009017FM-12+070299999V02099999999999999999N9999999N1+00461+99999999999ADDMA1999999094631MD1710161+9999OA149999999REMSYN082AAXX  04144 06623 33/// /27// 10046 2//// 39463 57016 333 55307 2//// 91122 91213;EQDQ01  01132WGOSPD
0153066230999992011020415004+47650+009017FM-12+070299999V02099999999999999999N9999999N1+00401+99999999999ADDMA1999999094661MD1510101+9999OA149999999REMSYN082AAXX  04154 06623 33/// /26// 10040 2//// 39466 55010 333 55300 20338 91126 91215;EQDQ01  01342WGOSPD
0153066230999992011020416004+47650+009017FM-12+070299999V02099999999999999999N9999999N1+00391+99999999999ADDMA1999999094691MD1310021+9999OA149999999REMSYN082AAXX  04164 06623 33/// /27// 10039 2//// 39469 53002 333 55300 20140 91126 91215;EQDQ01  01342WGOSPD
0153066230999992011020417004+47650+009017FM-12+070299999V02099999999999999999N9999999N1+00371+99999999999ADDMA1999999094711MD1210081+9999OA149999999REMSYN082AAXX  04174 06623 33/// /26// 10037 2//// 39471 52008 333 55300 20032 91126 91214;EQDQ01  01342WGOSPD
0292066230999992011020418004+47650+009017FM-12+070299999V0209999999999024001CN0080001N1+00351+99999999999ADDAL19900091AY121061AY221061GA1031+018001061GA2041+024001031GF107991999999017501999999KA1120M+00521MA1999999094751MD1210091+9999MW1051OA149999999REMSYN118AAXX  04184 06623 31758 726// 10035 2//// 39475 52009 70522 333 10052 55300 20014 83656 84358 90766 93100 91126 91215;EQDQ01  01342WGOSPD
0153066230999992011020419004+47650+009017FM-12+070299999V02099999999999999999N9999999N1+00331+99999999999ADDMA1999999094721MD1210031+9999OA149999999REMSYN082AAXX  04194 06623 33/// /27// 10033 2//// 39472 52003 333 55300 20014 91126 91215;EQDQ01  01342WGOSPD
0153066230999992011020420004+47650+009017FM-12+070299999V02099999999999999999N9999999N1+00271+99999999999ADDMA1999999094701MD1010011+9999OA149999999REMSYN082AAXX  04204 06623 33/// /26// 10027 2//// 39470 50001 333 55300 20014 91126 91215;EQDQ01  01342WGOSPD
0153066230999992011020421004+47650+009017FM-12+070299999V02099999999999999999N9999999N1+00241+99999999999ADDMA1999999094711MD1710041+9999OA149999999REMSYN082AAXX  04214 06623 33/// /27// 10024 2//// 39471 57004 333 55300 20014 91126 91215;EQDQ01  01342WGOSPD
0153066230999992011020422004+47650+009017FM-12+070299999V02099999999999999999N9999999N1+00201+99999999999ADDMA1999999094681MD1710041+9999OA149999999REMSYN082AAXX  04224 06623 33/// /26// 10020 2//// 39468 57004 333 55300 20014 91120 91212;EQDQ01  01032WGOSPD
0153066230999992011020423004+47650+009017FM-12+070299999V02099999999999999999N9999999N1+00191+99999999999ADDMA1999999094721MD1510021+9999OA149999999REMSYN082AAXX  04234 06623 33/// /26// 10019 2//// 39472 55002 333 55300 20014 91120 91212;EQDQ01  01032WGOSPD
0153066230999992011020500004+47650+009017FM-12+070299999V02099999999999999999N9999999N1+00231+99999999999ADDMA1999999094761MD1310051+9999OA149999999REMSYN082AAXX  05004 06623 33/// /26// 10023 2//// 39476 53005 333 55300 20014 91126 91215;EQDQ01  01342WGOSPD
0153066230999992011020501004+47650+009017FM-12+070299999V02099999999999999999N9999999N1+00241+99999999999ADDMA1999999094741MD1210061+9999OA149999999REMSYN082AAXX  05014 06623 33/// /26// 10024 2//// 39474 52006 333 55300 20014 91122 91212;EQDQ01  01132WGOSPD
0153066230999992011020502004+47650+009017FM-12+070299999V02099999999999999999N9999999N1+00261+99999999999ADDMA1999999094751MD1210031+9999OA149999999REMSYN082AAXX  05024 06623 33/// /26// 10026 2//// 39475 52003 333 55300 20014 91122 91211;EQDQ01  01132WGOSPD
0153066230999992011020503004+47650+009017FM-12+070299999V02099999999999999999N9999999N1+00261+99999999999ADDMA1999999094701MD1710061+9999OA149999999REMSYN082AAXX  05034 06623 33/// /26// 10026 2//// 39470 57006 333 55300 20014 91123 91212;EQDQ01  01182WGOSPD
0153066230999992011020504004+47650+009017FM-12+070299999V02099999999999999999N9999999N1+00261+99999999999ADDMA1999999094711MD1710031+9999OA149999999REMSYN082AAXX  05044 06623 33/// /26// 10026 2//// 39471 57003 333 55300 20014 91124 91212;EQDQ01  01242WGOSPD
0153066230999992011020505004+47650+009017FM-12+070299999V02099999999999999999N9999999N1+00271+99999999999ADDMA1999999094731MD1510021+9999OA149999999REMSYN082AAXX  05054 06623 33/// /27// 10027 2//// 39473 55002 333 55300 20014 91124 91212;EQDQ01  01242WGOSPD
0290066230999992011020506004+47650+009017FM-12+070299999V0209999999999033001CN0030001N1+00261+99999999999ADDAL19900091AY121061AY221061GA1081+033001041GF108991999999999999999999GJ102049KA1999N+00161MA1999999094781MD1210081+9999MW1101OA149999999REMSYN124AAXX  05064 06623 31930 826// 10026 2//// 39478 52008 71022 333 20016 55034 55300 20014 70000 88461 90768 93100 91126 91215;EQDQ01  01342WGOSPD
0153066230999992011020507004+47650+009017FM-12+070299999V02099999999999999999N9999999N1+00221+99999999999ADDMA1999999094791MD1210081+9999OA149999999REMSYN082AAXX  05074 06623 33/// /26// 10022 2//// 39479 52008 333 55300 20025 91121 91211;EQDQ01  01082WGOSPD
0153066230999992011020508004+47650+009017FM-12+070299999V02099999999999999999N9999999N1+00251+99999999999ADDMA1999999094851MD1210121+9999OA149999999REMSYN082AAXX  05084 06623 33/// /26// 10025 2//// 39485 52012 333 55300 20234 91121 91211;EQDQ01  01082WGOSPD
0153066230999992011020509004+47650+009017FM-12+070299999V02099999999999999999N9999999N1+00361+99999999999ADDMA1999999094861MD1210081+9999OA149999999REMSYN082AAXX  05094 06623 33/// /26// 10036 2//// 39486 52008 333 55307 20846 91124 91212;EQDQ01  01242WGOSPD
0153066230999992011020510004+47650+009017FM-12+070299999V02099999999999999999N9999999N1+00431+99999999999ADDMA1999999094841MD1010051+9999OA149999999REMSYN082AAXX  05104 06623 33/// /26// 10043 2//// 39484 50005 333 553// 2//// 91124 91213;EQDQ01  01242WGOSPD
0153066230999992011020511004+47650+009017FM-12+070299999V02099999999999999999N9999999N1+00521+99999999999ADDMA1999999094811MD1810041+9999OA149999999REMSYN082AAXX  05114 06623 33/// /26// 10052 2//// 39481 58004 333 553// 2//// 91124 91216;EQDQ01  01242WGOSPD
0223066230999992011020512004+47650+009017FM-12+070299999V02099999999992200019N0120001N1+00581+99999999999ADDAY111061AY211061GA1001+999999999GF100991001001999999001001MA1999999094731MD1710131+9999MW1051OA149999999REMSYN088AAXX  05124 06623 31/62 026// 10058 2//// 39473 57013 70511 333 553// 2//// 91125 91216;EQDQ01  01292WGOSPD
0153066230999992011020513004+47650+009017FM-12+070299999V02099999999999999999N9999999N1+00681+99999999999ADDMA1999999094681MD1610161+9999OA149999999REMSYN082AAXX  05134 06623 33/// /27// 10068 2//// 39468 56016 333 553// 2//// 91125 91214;EQDQ01  01292WGOSPD
0153066230999992011020514004+47650+009017FM-12+070299999V02099999999999999999N9999999N1+00731+99999999999ADDMA1999999094631MD1610181+9999OA149999999REMSYN082AAXX  05144 06623 33/// /26// 10073 2//// 39463 56018 333 553// 2//// 91120 91211;EQDQ01  01032WGOSPD
0153066230999992011020515004+47650+009017FM-12+070299999V02099999999999999999N9999999N1+00751+99999999999ADDMA1999999094651MD1710081+9999OA149999999REMSYN082AAXX  05154 06623 33/// /27// 10075 2//// 39465 57008 333 553// 20914 91125 91216;EQDQ01  01292WGOSPD
0153066230999992011020516004+47650+009017FM-12+070299999V02099999999999999999N9999999N1+00621+99999999999ADDMA1999999094671MD1510011+9999OA149999999REMSYN082AAXX  05164 06623 33/// /25// 10062 2//// 39467 55001 333 553// 20374 91118 91209;EQDQ01  00932WGOSPD
0153066230999992011020517004+47650+009017FM-12+070299999V02099999999999999999N9999999N1+00531+99999999999ADDMA1999999094711MD1210081+9999OA149999999REMSYN082AAXX  05174 06623 33/// /26// 10053 2//// 39471 52008 333 55300 20040 91118 91209;EQDQ01  00932WGOSPD
0270066230999992011020518004+47650+009017FM-12+070299999V02099999999992200019N0120001N1+00521+99999999999ADDAL19900091AY101061AY201061GA1011+039001041GF101991999999999999999999KA1120M+00751MA1999999094721MD1210071+9999MW1051OA149999999REMSYN112AAXX  05184 06623 31962 125// 10052 2//// 39472 52007 70500 333 10075 55300 20014 81463 90766 93100 91125 91216;EQDQ01  01292WGOSPD
0153066230999992011020519004+47650+009017FM-12+070299999V02099999999999999999N9999999N1+00461+99999999999ADDMA1999999094741MD1210071+9999OA149999999REMSYN082AAXX  05194 06623 33/// /24// 10046 2//// 39474 52007 333 55300 20014 91118 91209;EQDQ01  00932WGOSPD
0153066230999992011020520004+47650+009017FM-12+070299999V02099999999999999999N9999999N1+00451+99999999999ADDMA1999999094751MD1210041+9999OA149999999REMSYN082AAXX  05204 06623 33/// /26// 10045 2//// 39475 52004 333 55300 20014 91118 91209;EQDQ01  00932WGOSPD
0153066230999992011020521004+47650+009017FM-12+070299999V02099999999999999999N9999999N1+00431+99999999999ADDMA1999999094771MD1119999+9999OA149999999REMSYN082AAXX  05214 06623 33/// /25// 10043 2//// 39477 51/// 333 55300 20014 91118 91209;EQDQ01  00932WGOSPD
0153066230999992011020522004+47650+009017FM-12+070299999V02099999999999999999N9999999N1+00371+99999999999ADDMA1999999094801MD1310061+9999OA149999999REMSYN082AAXX  05224 06623 33/// /27// 10037 2//// 39480 53006 333 55300 20014 91117 91210;EQDQ01  00882WGOSPD
0153066230999992011020523004+47650+009017FM-12+070299999V02099999999999999999N9999999N1+00341+99999999999ADDMA1999999094821MD1210071+9999OA149999999REMSYN082AAXX  05234 06623 33/// /26// 10034 2//// 39482 52007 333 55300 20014 91117 91210;EQDQ01  00882WGOSPD
0153066230999992011020600004+47650+009017FM-12+070299999V02099999999999999999N9999999N1+00331+99999999999ADDMA1999999094821MD1210051+9999OA149999999REMSYN082AAXX  06004 06623 33/// /27// 10033 2//// 39482 52005 333 55300 20014 91120 91211;EQDQ01  01032WGOSPD
0153066230999992011020601004+47650+009017FM-12+070299999V02099999999999999999N9999999N1+00281+99999999999ADDMA1999999094801MD1010001+9999OA149999999REMSYN082AAXX  06014 06623 33/// /27// 10028 2//// 39480 50000 333 55300 20014 91117 91210;EQDQ01  00882WGOSPD
0153066230999992011020602004+47650+009017FM-12+070299999V02099999999999999999N9999999N1+00231+99999999999ADDMA1999999094791MD1710031+9999OA149999999REMSYN082AAXX  06024 06623 33/// /26// 10023 2//// 39479 57003 333 55300 20014 91117 91210;EQDQ01  00882WGOSPD
0153066230999992011020603004+47650+009017FM-12+070299999V02099999999999999999N9999999N1+00281+99999999999ADDMA1999999094771MD1810051+9999OA149999999REMSYN082AAXX  06034 06623 33/// /26// 10028 2//// 39477 58005 333 55300 20014 91117 91210;EQDQ01  00882WGOSPD
0153066230999992011020604004+47650+009017FM-12+070299999V02099999999999999999N9999999N1+00321+99999999999ADDMA1999999094771MD1610031+9999OA149999999REMSYN082AAXX  06044 06623 33/// /26// 10032 2//// 39477 56003 333 55300 20014 91118 91210;EQDQ01  00932WGOSPD
0153066230999992011020605004+47650+009017FM-12+070299999V02099999999999999999N9999999N1+00251+99999999999ADDMA1999999094771MD1610021+9999OA149999999REMSYN082AAXX  06054 06623 33/// /26// 10025 2//// 39477 56002 333 55300 20014 91118 91210;EQDQ01  00932WGOSPD
0290066230999992011020606004+47650+009017FM-12+070299999V02099999999992200019N0120001N1+00241+99999999999ADDAL19900091AY101061AY201061GA1011+039001031GF101991999999999999999999GJ104689KA1999N+00211MA1999999094791MD1310021+9999MW1101OA149999999REMSYN124AAXX  06064 06623 31962 125// 10024 2//// 39479 53002 71000 333 20021 55078 55300 20014 70000 81363 90768 93100 91118 91210;EQDQ01  00932WGOSPD
0153066230999992011020607004+47650+009017FM-12+070299999V02099999999999999999N9999999N1+00271+99999999999ADDMA1999999094791MD1210021+9999OA149999999REMSYN082AAXX  06074 06623 33/// /25// 10027 2//// 39479 52002 333 55300 20018 91116 91209;EQDQ01  00822WGOSPD
0153066230999992011020608004+47650+009017FM-12+070299999V02099999999999999999N9999999N1+00301+99999999999ADDMA1999999094801MD1210031+9999OA149999999REMSYN082AAXX  06084 06623 33/// /25// 10030 2//// 39480 52003 333 55303 20137 91116 91209;EQDQ01  00822WGOSPD
0153066230999992011020609004+47650+009017FM-12+070299999V02099999999999999999N9999999N1+00501+99999999999ADDMA1999999094791MD1010001+9999OA149999999REMSYN082AAXX  06094 06623 33/// /27// 10050 2//// 39479 50000 333 553// 20608 91118 91210;EQDQ01  00932WGOSPD
0153066230999992011020610004+47650+009017FM-12+070299999V02099999999999999999N9999999N1+00691+99999999999ADDMA1999999094781MD1710011+9999OA149999999REMSYN082AAXX  06104 06623 33/// /27// 10069 2//// 39478 57001 333 553// 2//// 91116 91210;EQDQ01  00822WGOSPD
0153066230999992011020611004+47650+009017FM-12+070299999V02099999999999999999N9999999N1+00821+99999999999ADDMA1999999094761MD1710041+9999OA149999999REMSYN082AAXX  06114 06623 33/// /26// 10082 2//// 39476 57004 333 553// 2//// 91116 91210;EQDQ01  00822WGOSPD
0229066230999992011020612004+47650+009017FM-12+070299999V02099999999992200019N0120001N1+00891+99999999999ADDAY111061AY211061GA1031+063001011GF103991999999999999999999MA1999999094691MD1810101+9999MW1051OA149999999REMSYN094AAXX  06124 06623 31962 326// 10089 2//// 39469 58010 70511 333 553// 2//// 83171 91118 91210;EQDQ01  00932WGOSPD
0153066230999992011020613004+47650+009017FM-12+070299999V02099999999999999999N9999999N1+01011+99999999999ADDMA1999999094621MD1810161+9999OA149999999REMSYN082AAXX  06134 06623 33/// /26// 10101 2//// 39462 58016 333 553// 2//// 91114 91207;EQDQ01  00722WGOSPD
0153066230999992011020614004+47650+009017FM-12+070299999V02099999999999999999N9999999N1+01081+99999999999ADDMA1999999094561MD1710201+9999OA149999999REMSYN082AAXX  06144 06623 33/// /24// 10108 2//// 39456 57020 333 553// 2//// 91109 91205;EQDQ01  00462WGOSPD
0153066230999992011020615004+47650+009017FM-12+070299999V02099999999999999999N9999999N1+01061+99999999999ADDMA1999999094531MD1610161+9999OA149999999REMSYN082AAXX  06154 06623 33/// /25// 10106 2//// 39453 56016 333 553// 20886 91116 91210;EQDQ01  00822WGOSPD
0153066230999992011020616004+47650+009017FM-12+070299999V02099999999999999999N9999999N1+00911+99999999999ADDMA1999999094501MD1610121+9999OA149999999REMSYN082AAXX  06164 06623 33/// /23// 10091 2//// 39450 56012 333 553// 20392 91109 91204;EQDQ01  00462WGOSPD
0153066230999992011020617004+47650+009017FM-12+070299999V02099999999999999999N9999999N1+00781+99999999999ADDMA1999999094501MD1610061+9999OA149999999REMSYN082AAXX  06174 06623 33/// /25// 10078 2//// 39450 56006 333 55301 20047 91109 91205;EQDQ01  00462WGOSPD
0270066230999992011020618004+47650+009017FM-12+070299999V02099999999992200019N0150001N1+00831+99999999999ADDAL19900091AY111061AY211061GA1041+063001021GF104991999999999999999999KA1120M+01091MA1999999094501MD1610031+9999MW1051OA149999999REMSYN112AAXX  06184 06623 31965 425// 10083 2//// 39450 56003 70511 333 10109 55300 20014 84271 90766 93100 91116 91210;EQDQ01  00822WGOSPD
0153066230999992011020619004+47650+009017FM-12+070299999V02099999999999999999N9999999N1+00821+99999999999ADDMA1999999094511MD1310011+9999OA149999999REMSYN082AAXX  06194 06623 33/// /24// 10082 2//// 39451 53001 333 55300 20014 91114 91207;EQDQ01  00722WGOSPD
0153066230999992011020620004+47650+009017FM-12+070299999V02099999999999999999N9999999N1+00781+99999999999ADDMA1999999094501MD1410001+9999OA149999999REMSYN082AAXX  06204 06623 33/// /24// 10078 2//// 39450 54000 333 55300 20014 91114 91207;EQDQ01  00722WGOSPD
0153066230999992011020621004+47650+009017FM-12+070299999V02099999999999999999N9999999N1+00761+99999999999ADDMA1999999094501MD1410001+9999OA149999999REMSYN082AAXX  06214 06623 33/// /24// 10076 2//// 39450 57000 333 55300 20014 91114 91207;EQDQ01  00722WGOSPD
0153066230999992011020622004+47650+009017FM-12+070299999V02099999999999999999N9999999N1+00721+99999999999ADDMA1999999094451MD1710061+9999OA149999999REMSYN082AAXX  06224 06623 33/// /25// 10072 2//// 39445 57006 333 55300 20014 91114 91208;EQDQ01  00722WGOSPD
0153066230999992011020623004+47650+009017FM-12+070299999V02099999999999999999N9999999N1+00701+99999999999ADDMA1999999094451MD1710051+9999OA149999999REMSYN082AAXX  06234 06623 33/// /26// 10070 2//// 39445 57005 333 55300 20014 91115 91208;EQDQ01  00772WGOSPD
0153066230999992011020700004+47650+009017FM-12+070299999V02099999999999999999N9999999N1+00511+99999999999ADDMA1999999094471MD1510031+9999OA149999999REMSYN082AAXX  07004 06623 33/// /26// 10051 2//// 39447 55003 333 55300 20014 91115 91208;EQDQ01  00772WGOSPD
0153066230999992011020701004+47650+009017FM-12+070299999V02099999999999999999N9999999N1+00621+99999999999ADDMA1999999094471MD1110021+9999OA149999999REMSYN082AAXX  07014 06623 33/// /26// 10062 2//// 39447 51002 333 55300 20014 91111 91206;EQDQ01  00572WGOSPD
0153066230999992011020702004+47650+009017FM-12+070299999V02099999999999999999N9999999N1+00601+99999999999ADDMA1999999094461MD1010011+9999OA149999999REMSYN082AAXX  07024 06623 33/// /25// 10060 2//// 39446 50001 333 55300 20014 91112 91206;EQDQ01  00622WGOSPD
0153066230999992011020703004+47650+009017FM-12+070299999V02099999999999999999N9999999N1+00511+99999999999ADDMA1999999094421MD1810051+9999OA149999999REMSYN082AAXX  07034 06623 33/// /24// 10051 2//// 39442 58005 333 55300 20014 91115 91208;EQDQ01  00772WGOSPD
0153066230999992011020704004+47650+009017FM-12+070299999V02099999999999999999N9999999N1+00431+99999999999ADDMA1999999094391MD1810081+9999OA149999999REMSYN082AAXX  07044 06623 33/// /24// 10043 2//// 39439 58008 333 55300 20014 91113 91207;EQDQ01  00672WGOSPD
0153066230999992011020705004+47650+009017FM-12+070299999V02099999999999999999N9999999N1+00471+99999999999ADDMA1999999094391MD1710071+9999OA149999999REMSYN082AAXX  07054 06623 33/// /25// 10047 2//// 39439 57007 333 55300 20014 91115 91207;EQDQ01  00772WGOSPD
0256066230999992011020706004+47650+009017FM-12+070299999V02099999999992200019N0150001N1+00501+99999999999ADDAL19900091GA1001+999999999GF100991001001999999001001GJ104989KA1999N+00391MA1999999094331MD1710091+9999OA149999999REMSYN112AAXX  07064 06623 32/65 025// 10050 2//// 39433 57009 333 20039 55083 55300 20014 70000 90768 93100 91115 91208;EQDQ01  00772WGOSPD
0153066230999992011020707004+47650+009017FM-12+070299999V02099999999999999999N9999999N1+00531+99999999999ADDMA1999999094291MD1810101+9999OA149999999REMSYN082AAXX  07074 06623 33/// /24// 10053 2//// 39429 58010 333 55300 20022 91114 91208;EQDQ01  00722WGOSPD
0153066230999992011020708004+47650+009017FM-12+070299999V02099999999999999999N9999999N1+00531+99999999999ADDMA1999999094281MD1610111+9999OA149999999REMSYN082AAXX  07084 06623 33/// /26// 10053 2//// 39428 56011 333 55306 20202 91113 91205;EQDQ01  00672WGOSPD
0153066230999992011020709004+47650+009017FM-12+070299999V02099999999999999999N9999999N1+00461+99999999999ADDMA1999999094281MD1610051+9999OA149999999REMSYN082AAXX  07094 06623 33/// /27// 10046 2//// 39428 56005 333 553// 20792 91115 91208;EQDQ01  00772WGOSPD
0153066230999992011020710004+47650+009017FM-12+070299999V02099999999999999999N9999999N1+00591+99999999999ADDMA1999999094271MD1710021+9999OA149999999REMSYN082AAXX  07104 06623 33/// /26// 10059 2//// 39427 57002 333 553// 2//// 91111 91206;EQDQ01  00572WGOSPD
0153066230999992011020711004+47650+009017FM-12+070299999V02099999999999999999N9999999N1+00771+99999999999ADDMA1999999094251MD1710031+9999OA149999999REMSYN082AAXX  07114 06623 33/// /25// 10077 2//// 39425 57003 333 553// 2//// 91111 91206;EQDQ01  00572WGOSPD
0195066230999992011020712004+47650+009017FM-12+070299999V02099999999992200019N0150001N1+00921+99999999999ADDGA1001+999999999GF100991001001999999001001MA1999999094191MD1710091+9999OA149999999REMSYN082AAXX  07124 06623 32/65 026// 10092 2//// 39419 57009 333 553// 2//// 91115 91208;EQDQ01  00772WGOSPD
0153066230999992011020713004+47650+009017FM-12+070299999V02099999999999999999N9999999N1+00961+99999999999ADDMA1999999094131MD1810141+9999OA149999999REMSYN082AAXX  07134 06623 33/// /25// 10096 2//// 39413 58014 333 553// 2//// 91112 91207;EQDQ01  00622WGOSPD
0153066230999992011020714004+47650+009017FM-12+070299999V02099999999999999999N9999999N1+01031+99999999999ADDMA1999999094091MD1710161+9999OA149999999REMSYN082AAXX  07144 06623 33/// /26// 10103 2//// 39409 57016 333 553// 2//// 91112 91207;EQDQ01  00622WGOSPD
0153066230999992011020715004+47650+009017FM-12+070299999V02099999999999999999N9999999N1+01051+99999999999ADDMA1999999094051MD1710141+9999OA149999999REMSYN082AAXX  07154 06623 33/// /24// 10105 2//// 39405 57014 333 553// 20997 91112 91207;EQDQ01  00622WGOSPD
0153066230999992011020716004+47650+009017FM-12+070299999V02099999999999999999N9999999N1+00981+99999999999ADDMA1999999094031MD1710101+9999OA149999999REMSYN082AAXX  07164 06623 33/// /25// 10098 2//// 39403 57010 333 553// 20446 91110 91206;EQDQ01  00512WGOSPD
0153066230999992011020717004+47650+009017FM-12+070299999V02099999999999999999N9999999N1+00851+99999999999ADDMA1999999094021MD1610071+9999OA149999999REMSYN082AAXX  07174 06623 33/// /23// 10085 2//// 39402 56007 333 55302 20047 91110 91204;EQDQ01  00512WGOSPD
0236066230999992011020718004+47650+009017FM-12+070299999V02099999999992200019N0350001N1+00881+99999999999ADDAL19900091GA1001+999999999GF100991001001999999001001KA1120M+01061MA1999999094021MD1710031+9999OA149999999REMSYN100AAXX  07184 06623 32/81 023// 10088 2//// 39402 57003 333 10106 55300 20014 90766 93100 91113 91207;EQDQ01  00672WGOSPD
0153066230999992011020719004+47650+009017FM-12+070299999V02099999999999999999N9999999N1+00861+99999999999ADDMA1999999094001MD1710031+9999OA149999999REMSYN082AAXX  07194 06623 33/// /26// 10086 2//// 39400 57003 333 55300 20014 91110 91205;EQDQ01  00512WGOSPD
0081066230999992011020720004+47650+009017FM-12+070299999V02099999999999999999N9999999N1+00741+99999999999ADDMA1999999094001REMSYN054AAXX  07204 06623 43/// /26// 10074 2//// 39400 5////;
0153066230999992011020721004+47650+009017FM-12+070299999V02099999999999999999N9999999N1+00801+99999999999ADDMA1999999094001MD1510021+9999OA149999999REMSYN082AAXX  07214 06623 33/// /24// 10080 2//// 39400 55002 333 55300 20014 91111 91207;EQDQ01  00572WGOSPD
0153066230999992011020722004+47650+009017FM-12+070299999V02099999999999999999N9999999N1+00731+99999999999ADDMA1999999093991MD1010011+9999OA149999999REMSYN082AAXX  07224 06623 33/// /24// 10073 2//// 39399 50001 333 55300 20014 91111 91206;EQDQ01  00572WGOSPD
0153066230999992011020723004+47650+009017FM-12+070299999V02099999999999999999N9999999N1+00781+99999999999ADDMA1999999093991MD1710011+9999OA149999999REMSYN082AAXX  07234 06623 33/// /26// 10078 2//// 39399 57001 333 55300 20014 91116 91209;EQDQ01  00822WGOSPD
0153066230999992011020800004+47650+009017FM-12+070299999V02099999999999999999N9999999N1+00701+99999999999ADDMA1999999094011MD1510011+9999OA149999999REMSYN082AAXX  08004 06623 33/// /26// 10070 2//// 39401 55001 333 55300 20014 91116 91209;EQDQ01  00822WGOSPD
0153066230999992011020801004+47650+009017FM-12+070299999V02099999999999999999N9999999N1+00701+99999999999ADDMA1999999093991MD1010001+9999OA149999999REMSYN082AAXX  08014 06623 33/// /26// 10070 2//// 39399 50000 333 55300 20014 91115 91208;EQDQ01  00772WGOSPD
0153066230999992011020802004+47650+009017FM-12+070299999V02099999999999999999N9999999N1+00631+99999999999ADDMA1999999094001MD1210011+9999OA149999999REMSYN082AAXX  08024 06623 33/// /26// 10063 2//// 39400 52001 333 55300 20014 91114 91208;EQDQ01  00722WGOSPD
0153066230999992011020803004+47650+009017FM-12+070299999V02099999999999999999N9999999N1+00561+99999999999ADDMA1999999093981MD1710031+9999OA149999999REMSYN082AAXX  08034 06623 33/// /25// 10056 2//// 39398 57003 333 55300 20014 91116 91209;EQDQ01  00822WGOSPD
0153066230999992011020804004+47650+009017FM-12+070299999V02099999999999999999N9999999N1+00531+99999999999ADDMA1999999093991MD1510001+9999OA149999999REMSYN082AAXX  08044 06623 33/// /26// 10053 2//// 39399 55000 333 55300 20014 91114 91207;EQDQ01  00722WGOSPD
0153066230999992011020805004+47650+009017FM-12+070299999V02099999999999999999N9999999N1+00441+99999999999ADDMA1999999093991MD1510011+9999OA149999999REMSYN082AAXX  08054 06623 33/// /23// 10044 2//// 39399 55001 333 55300 20014 91114 91207;EQDQ01  00722WGOSPD
0256066230999992011020806004+47650+009017FM-12+070299999V02099999999992200019N0180001N1+00421+99999999999ADDAL19900091GA1001+999999999GF100991001001999999001001GJ105229KA1999N+00441MA1999999094031MD1210051+9999OA149999999REMSYN112AAXX  08064 06623 32/68 025// 10042 2//// 39403 52005 333 20044 55087 55300 20014 70000 90768 93100 91116 91209;EQDQ01  00822WGOSPD
0153066230999992011020807004+47650+009017FM-12+070299999V02099999999999999999N9999999N1+00421+99999999999ADDMA1999999094041MD1210051+9999OA149999999REMSYN082AAXX  08074 06623 33/// /24// 10042 2//// 39404 52005 333 55300 20025 91114 91207;EQDQ01  00722WGOSPD
0081066230999992011020808004+47650+009017FM-12+070299999V02099999999999999999N9999999N1+00461+99999999999ADDMA1999999094111REMSYN054AAXX  08084 06623 43/// /28// 10046 2//// 39411 5////;
0081066230999992011020809004+47650+009017FM-12+070299999V02099999999999999999N9999999N1+00531+99999999999ADDMA1999999094141REMSYN054AAXX  08094 06623 43/// /27// 10053 2//// 39414 5////;
0153066230999992011020810004+47650+009017FM-12+070299999V02099999999999999999N9999999N1+00621+99999999999ADDMA1999999094171MD1210131+9999OA149999999REMSYN082AAXX  08104 06623 33/// /28// 10062 2//// 39417 52013 333 553// 2//// 91112 91207;EQDQ01  00622WGOSPD
0153066230999992011020811004+47650+009017FM-12+070299999V02099999999999999999N9999999N1+00781+99999999999ADDMA1999999094171MD1210061+9999OA149999999REMSYN082AAXX  08114 06623 33/// /28// 10078 2//// 39417 52006 333 553// 2//// 91111 91207;EQDQ01  00572WGOSPD
0229066230999992011020812004+47650+009017FM-12+070299999V0209999999999063001CN0080001N1+00861+99999999999ADDAY111061AY211061GA1081+063001021GF108991999999999999999999MA1999999094141MD1010001+9999MW1051OA149999999REMSYN094AAXX  08124 06623 31958 825// 10086 2//// 39414 50000 70511 333 553// 2//// 88271 91114 91208;EQDQ01  00722WGOSPD
0153066230999992011020813004+47650+009017FM-12+070299999V02099999999999999999N9999999N1+00811+99999999999ADDMA1999999094091MD1710081+9999OA149999999REMSYN082AAXX  08134 06623 33/// /21// 10081 2//// 39409 57008 333 553// 2//// 91107 91204;EQDQ01  00362WGOSPD
0153066230999992011020814004+47650+009017FM-12+070299999V02099999999999999999N9999999N1+00961+99999999999ADDMA1999999094061MD1810111+9999OA149999999REMSYN082AAXX  08144 06623 33/// /18// 10096 2//// 39406 58011 333 553// 2//// 91107 91204;EQDQ01  00362WGOSPD
0153066230999992011020815004+47650+009017FM-12+070299999V02099999999999999999N9999999N1+00931+99999999999ADDMA1999999094061MD1610081+9999OA149999999REMSYN082AAXX  08154 06623 33/// /05// 10093 2//// 39406 56008 333 553// 20958 91111 91207;EQDQ01  00572WGOSPD
0153066230999992011020816004+47650+009017FM-12+070299999V02099999999999999999N9999999N1+00791+99999999999ADDMA1999999094041MD1610051+9999OA149999999REMSYN082AAXX  08164 06623 33/// /03// 10079 2//// 39404 56005 333 553// 20432 91104 91201;EQDQ01  00212WGOSPD
0153066230999992011020817004+47650+009017FM-12+070299999V02099999999999999999N9999999N1+00461+99999999999ADDMA1999999094051MD1710011+9999OA149999999REMSYN082AAXX  08174 06623 33/// /06// 10046 2//// 39405 57001 333 55302 20058 91105 91202;EQDQ01  00262WGOSPD
0264066230999992011020818004+47650+009017FM-12+070299999V02099999999992200019N0080001N1+00571+99999999999ADDAL19900091AY111061AY211061GA1001+999999999GF100991001001999999001001KA1120M+00961MA1999999094091MD1310031+9999MW1051OA149999999REMSYN106AAXX  08184 06623 31/58 007// 10057 2//// 39409 53003 70511 333 10096 55300 20014 90766 93100 91114 91207;EQDQ01  00722WGOSPD
0153066230999992011020819004+47650+009017FM-12+070299999V02099999999999999999N9999999N1+00491+99999999999ADDMA1999999094091MD1210051+9999OA149999999REMSYN082AAXX  08194 06623 33/// /07// 10049 2//// 39409 52005 333 55300 20014 91107 91204;EQDQ01  00362WGOSPD
0081066230999992011020820004+47650+009017FM-12+070299999V02099999999999999999N9999999N1+00511+99999999999ADDMA1999999094071REMSYN054AAXX  08204 06623 43/// /11// 10051 2//// 39407 5////;
0153066230999992011020821004+47650+009017FM-12+070299999V02099999999999999999N9999999N1+00441+99999999999ADDMA1999999094081MD1710011+9999OA149999999REMSYN082AAXX  08214 06623 33/// /10// 10044 2//// 39408 57001 333 55300 20014 91110 91206;EQDQ01  00512WGOSPD
