0140066260999992011010100004+47367+007983FM-12+038099999V0209999C000019999999N9999999N1+00011-00061102441ADDMA1999999097701MD1810091+9999OA149900261REMSYN088AAXX  01004 06626 33/// /0000 10001 21006 39770 40244 58009 333 55300 20014 91105 91203;
0140066260999992011010101004+47367+007983FM-12+038099999V0202801N001519999999N9999999N1+00031-00071102391ADDMA1999999097651MD1810131+9999OA149900211REMSYN088AAXX  01014 06626 33/// /2803 10003 21007 39765 40239 58013 333 55300 20014 91104 91203;
0140066260999992011010102004+47367+007983FM-12+038099999V0202501N001019999999N9999999N1+00031-00101102391ADDMA1999999097651MD1710111+9999OA149900211REMSYN088AAXX  01024 06626 33/// /2502 10003 21010 39765 40239 57011 333 55300 20014 91104 91203;
0140066260999992011010103004+47367+007983FM-12+038099999V0202401N002119999999N9999999N1+00011-00131102361ADDMA1999999097621MD1710081+9999OA149900361REMSYN088AAXX  01034 06626 33/// /2404 10001 21013 39762 40236 57008 333 55300 20014 91107 91205;
0140066260999992011010104004+47367+007983FM-12+038099999V0202301N002119999999N9999999N1-00011-00141102321ADDMA1999999097581MD1710071+9999OA149900411REMSYN088AAXX  01044 06626 33/// /2304 11001 21014 39758 40232 57007 333 55300 20011 91108 91205;
0140066260999992011010105004+47367+007983FM-12+038099999V0202201N001519999999N9999999N1+00021-00121102351ADDMA1999999097611MD1510041+9999OA149900511REMSYN088AAXX  01054 06626 33/// /2203 10002 21012 39761 40235 55004 333 55300 20014 91110 91206;
0207066260999992011010106004+47367+007983FM-12+038099999V0202701N001519999999N9999999N1+00021-00131102371ADDAL19900091GJ100009IA2999-00109KA1999N-00021MA1999999097631MD1310011+9999OA149900511REMSYN112AAXX  01064 06626 33/// /2703 10002 21013 39763 40237 53001 333 21002 3/101 55000 55300 20014 70000 91110 91206;
0140066260999992011010107004+47367+007983FM-12+038099999V0202501N001019999999N9999999N1+00021-00121102381ADDMA1999999097641MD1110061+9999OA149900261REMSYN088AAXX  01074 06626 33/// /2502 10002 21012 39764 40238 51006 333 55300 20014 91105 91204;
0140066260999992011010108004+47367+007983FM-12+038099999V0202301N001519999999N9999999N1+00041-00091102401ADDMA1999999097661MD1319999+9999OA149900311REMSYN088AAXX  01084 06626 33/// /2303 10004 21009 39766 40240 53/// 333 55300 20032 91106 91204;
0087066260999992011010109004+47367+007983FM-12+038099999V0202601N001019999999N9999999N1+00071-00071102381ADDMA1999999097651REMSYN060AAXX  01094 06626 43/// /2602 10007 21007 39765 40238 5////;
0087066260999992011010110004+47367+007983FM-12+038099999V0202501N001519999999N9999999N1+00111-00041102371ADDMA1999999097651REMSYN060AAXX  01104 06626 43/// /2503 10011 21004 39765 40237 5////;
0140066260999992011010111004+47367+007983FM-12+038099999V0202701N001519999999N9999999N1+00141-00011102301ADDMA1999999097591MD1810071+9999OA149900311REMSYN088AAXX  01114 06626 33/// /2703 10014 21001 39759 40230 58007 333 55300 20418 91106 91204;
0087066260999992011010112004+47367+007983FM-12+038099999V0202701N002119999999N9999999N1+00181+00001102251ADDMA1999999097541REMSYN060AAXX  01124 06626 43/// /2704 10018 20000 39754 40225 5////;
0087066260999992011010113004+47367+007983FM-12+038099999V0202501N002119999999N9999999N1+00221-00011102181ADDMA1999999097481REMSYN060AAXX  01134 06626 43/// /2504 10022 21001 39748 40218 5////;
0087066260999992011010114004+47367+007983FM-12+038099999V0202201N002619999999N9999999N1+00221-00071102141ADDMA1999999097451REMSYN060AAXX  01144 06626 43/// /2205 10022 21007 39745 40214 5////;
0087066260999992011010115004+47367+007983FM-12+038099999V0202501N002119999999N9999999N1+00201-00051102151ADDMA1999999097451REMSYN060AAXX  01154 06626 43/// /2504 10020 21005 39745 40215 5////;
0087066260999992011010116004+47367+007983FM-12+038099999V0203401N001519999999N9999999N1+00121-00071102201ADDMA1999999097491REMSYN060AAXX  01164 06626 43/// /3403 10012 21007 39749 40220 5////;
0087066260999992011010117004+47367+007983FM-12+038099999V0203101N000519999999N9999999N1+00111-00111102221ADDMA1999999097501REMSYN060AAXX  01174 06626 43/// /3101 10011 21011 39750 40222 5////;
0087066260999992011010118004+47367+007983FM-12+038099999V0203301N001519999999N9999999N1+00081-00131102221ADDMA1999999097501REMSYN060AAXX  01184 06626 43/// /3303 10008 21013 39750 40222 5////;
0103066260999992011010119004+47367+007983FM-12+038099999V0203001N000519999999N9999999N1+00041-00171102251ADDMA1999999097521REMSYN076AAXX  01194 06626 33/// /3001 10004 21017 39752 40225 5//// 333 553// 20014;
0140066260999992011010120004+47367+007983FM-12+038099999V0202101N001519999999N9999999N1+00081-00221102231ADDMA1999999097511MD1210011+9999OA149900361REMSYN088AAXX  01204 06626 33/// /2103 10008 21022 39751 40223 52001 333 55300 20014 91107 91203;
0140066260999992011010121004+47367+007983FM-12+038099999V0201001N001019999999N9999999N1+00061-00141102211ADDMA1999999097491MD1810011+9999OA149900411REMSYN088AAXX  01214 06626 33/// /1002 10006 21014 39749 40221 58001 333 55300 20014 91108 91203;
0140066260999992011010122004+47367+007983FM-12+038099999V0200801N001019999999N9999999N1+00021-00121102201ADDMA1999999097471MD1710051+9999OA149900261REMSYN088AAXX  01224 06626 33/// /0802 10002 21012 39747 40220 57005 333 55300 20014 91105 91203;
0140066260999992011010123004+47367+007983FM-12+038099999V0200701N001019999999N9999999N1+00021-00101102191ADDMA1999999097461MD1710051+9999OA149900261REMSYN088AAXX  01234 06626 33/// /0702 10002 21010 39746 40219 57005 333 55300 20014 91105 91203;
0140066260999992011010200004+47367+007983FM-12+038099999V0201701N001519999999N9999999N1+00011-00081102151ADDMA1999999097421MD1710071+9999OA149900571REMSYN088AAXX  02004 06626 33/// /1703 10001 21008 39742 40215 57007 333 55300 20014 91111 91207;
0140066260999992011010201004+47367+007983FM-12+038099999V0201601N001019999999N9999999N1+00021-00101102101ADDMA1999999097371MD1810101+9999OA149900211REMSYN088AAXX  02014 06626 33/// /1602 10002 21010 39737 40210 58010 333 55300 20014 91104 91203;
0087066260999992011010202004+47367+007983FM-12+038099999V0200301N000519999999N9999999N1-00021-00151102131ADDMA1999999097401REMSYN060AAXX  02024 06626 43/// /0301 11002 21015 39740 40213 5////;
0087066260999992011010203004+47367+007983FM-12+038099999V0201901N001019999999N9999999N1-00021-00131102151ADDMA1999999097411REMSYN060AAXX  02034 06626 43/// /1902 11002 21013 39741 40215 5////;
0087066260999992011010204004+47367+007983FM-12+038099999V0209999C000019999999N9999999N1-00051-00131102161ADDMA1999999097421REMSYN060AAXX  02044 06626 43/// /0000 11005 21013 39742 40216 5////;
0087066260999992011010205004+47367+007983FM-12+038099999V0201701N001019999999N9999999N1-00021-00101102171ADDMA1999999097431REMSYN060AAXX  02054 06626 43/// /1702 11002 21010 39743 40217 5////;
0134066260999992011010206004+47367+007983FM-12+038099999V0209999C000019999999N9999999N1-00031-00141102171ADDIA2999-00209KA1999N-00061MA1999999097431REMSYN082AAXX  02064 06626 43/// /0000 11003 21014 39743 40217 5//// 333 21006 3/102 55000;
0140066260999992011010207004+47367+007983FM-12+038099999V0201001N000519999999N9999999N1-00021-00101102191ADDMA1999999097451MD1210031+9999OA149900101REMSYN088AAXX  02074 06626 33/// /1001 11002 21010 39745 40219 52003 333 55300 20014 91102 91201;
0140066260999992011010208004+47367+007983FM-12+038099999V0201101N000519999999N9999999N1-00021-00111102241ADDMA1999999097501MD1210071+9999OA149900101REMSYN088AAXX  02084 06626 33/// /1101 11002 21011 39750 40224 52007 333 55300 20025 91102 91202;
0140066260999992011010209004+47367+007983FM-12+038099999V0201801N000519999999N9999999N1-00011-00091102291ADDMA1999999097551MD1310121+9999OA149900101REMSYN088AAXX  02094 06626 33/// /1801 11001 21009 39755 40229 53012 333 55300 20065 91102 91202;
0140066260999992011010210004+47367+007983FM-12+038099999V0209999C000019999999N9999999N1+00031-00081102301ADDMA1999999097571MD1110121+9999OA149900101REMSYN088AAXX  02104 06626 33/// /0000 10003 21008 39757 40230 51012 333 55300 20137 91102 91201;
0140066260999992011010211004+47367+007983FM-12+038099999V0200601N001519999999N9999999N1+00131-00211102291ADDMA1999999097571MD1110071+9999OA149900361REMSYN088AAXX  02114 06626 33/// /0603 10013 21021 39757 40229 51007 333 55300 20263 91107 91203;
0140066260999992011010212004+47367+007983FM-12+038099999V0200401N002619999999N9999999N1+00151-00251102261ADDMA1999999097551MD1010001+9999OA149900461REMSYN088AAXX  02124 06626 33/// /0405 10015 21025 39755 40226 50000 333 55300 20328 91109 91205;
0140066260999992011010213004+47367+007983FM-12+038099999V0200501N002619999999N9999999N1+00191-00351102241ADDMA1999999097541MD1710031+9999OA149900511REMSYN088AAXX  02134 06626 33/// /0505 10019 21035 39754 40224 57003 333 55300 20392 91110 91205;
0103066260999992011010214004+47367+007983FM-12+038099999V0200401N003119999999N9999999N1+00181-00611102271ADDMA1999999097561REMSYN076AAXX  02144 06626 33/// /0406 10018 21061 39756 40227 5//// 333 553// 20400;
0140066260999992011010215004+47367+007983FM-12+038099999V0200301N002119999999N9999999N1+00141-00561102331ADDMA1999999097611MD1210061+9999OA149900671REMSYN088AAXX  02154 06626 33/// /0304 10014 21056 39761 40233 52006 333 55300 20245 91113 91208;
0140066260999992011010216004+47367+007983FM-12+038099999V0200301N002119999999N9999999N1+00081-00521102371ADDMA1999999097641MD1210101+9999OA149900571REMSYN088AAXX  02164 06626 33/// /0304 10008 21052 39764 40237 52010 333 55300 20061 91111 91205;
0140066260999992011010217004+47367+007983FM-12+038099999V0200501N002119999999N9999999N1+00061-00491102401ADDMA1999999097671MD1110111+9999OA149900411REMSYN088AAXX  02174 06626 33/// /0504 10006 21049 39767 40240 51011 333 55300 20014 91108 91204;
0159066260999992011010218004+47367+007983FM-12+038099999V0200401N001519999999N9999999N1+00031-00501102431ADDKA1120M+00201MA1999999097691MD1110081+9999OA149900671REMSYN094AAXX  02184 06626 33/// /0403 10003 21050 39769 40243 51008 333 10020 55300 20014 91113 91208;
0140066260999992011010219004+47367+007983FM-12+038099999V0200801N000519999999N9999999N1-00041-00521102481ADDMA1999999097731MD1310091+9999OA149900361REMSYN088AAXX  02194 06626 33/// /0801 11004 21052 39773 40248 53009 333 55300 20011 91107 91203;
0140066260999992011010220004+47367+007983FM-12+038099999V0201501N000519999999N9999999N1-00191-00451102531ADDMA1999999097751MD1210081+9999OA149900361REMSYN088AAXX  02204 06626 33/// /1501 11019 21045 39775 40253 52008 333 55300 20011 91107 91203;
0140066260999992011010221004+47367+007983FM-12+038099999V0201401N001019999999N9999999N1-00201-00491102561ADDMA1999999097771MD1210081+9999OA149900411REMSYN088AAXX  02214 06626 33/// /1402 11020 21049 39777 40256 52008 333 55300 20011 91108 91204;
0140066260999992011010222004+47367+007983FM-12+038099999V0201501N001019999999N9999999N1-00281-00511102611ADDMA1999999097811MD1210081+9999OA149900151REMSYN088AAXX  02224 06626 33/// /1502 11028 21051 39781 40261 52008 333 55300 20011 91103 91202;
0140066260999992011010223004+47367+007983FM-12+038099999V0201701N000519999999N9999999N1-00341-00531102621ADDMA1999999097811MD1110061+9999OA149900151REMSYN088AAXX  02234 06626 33/// /1701 11034 21053 39781 40262 51006 333 55300 20011 91103 91202;
0140066260999992011010300004+47367+007983FM-12+038099999V0209999C000019999999N9999999N1-00401-00581102631ADDMA1999999097811MD1110041+9999OA149900671REMSYN088AAXX  03004 06626 33/// /0000 11040 21058 39781 40263 51004 333 55300 20011 91113 91208;
0140066260999992011010301004+47367+007983FM-12+038099999V0209999C000019999999N9999999N1-00401-00561102601ADDMA1999999097781MD1810031+9999OA149900151REMSYN088AAXX  03014 06626 33/// /0000 11040 21056 39778 40260 58003 333 55300 20011 91103 91201;
0140066260999992011010302004+47367+007983FM-12+038099999V0201101N000519999999N9999999N1-00481-00601102631ADDMA1999999097791MD1719999+9999OA149900101REMSYN088AAXX  03024 06626 33/// /1101 11048 21060 39779 40263 57/// 333 55300 20011 91102 91201;
0087066260999992011010303004+47367+007983FM-12+038099999V0201201N000519999999N9999999N1-00531-00631102641ADDMA1999999097791REMSYN060AAXX  03034 06626 43/// /1201 11053 21063 39779 40264 5////;
0140066260999992011010304004+47367+007983FM-12+038099999V0209999C000019999999N9999999N1-00621-00701102651ADDMA1999999097791MD1010011+9999OA149900101REMSYN088AAXX  03044 06626 33/// /0000 11062 21070 39779 40265 50001 333 55300 20011 91102 91202;
0140066260999992011010305004+47367+007983FM-12+038099999V0201301N000519999999N9999999N1-00671-00761102671ADDMA1999999097801MD1210011+9999OA149900101REMSYN088AAXX  03054 06626 33/// /1301 11067 21076 39780 40267 52001 333 55300 20007 91102 91202;
0207066260999992011010306004+47367+007983FM-12+038099999V0201201N000519999999N9999999N1-00691-00791102681ADDAL19900091GJ100009IA2999-01009KA1999N-00671MA1999999097801MD1410001+9999OA149900361REMSYN112AAXX  03064 06626 33/// /1201 11069 21079 39780 40268 54001 333 21067 3/110 55000 55300 20007 70000 91107 91203;
0140066260999992011010307004+47367+007983FM-12+038099999V0209999C000019999999N9999999N1-00711-00801102661ADDMA1999999097781MD1810011+9999OA149900101REMSYN088AAXX  03074 06626 33/// /0000 11071 21080 39778 40266 58001 333 55300 20007 91102 91202;
0140066260999992011010308004+47367+007983FM-12+038099999V0209999C000019999999N9999999N1-00681-00801102691ADDMA1999999097811MD1319999+9999OA149900101REMSYN088AAXX  03084 06626 33/// /0000 11068 21080 39781 40269 53/// 333 55303 20086 91102 91202;
0103066260999992011010309004+47367+007983FM-12+038099999V0201401N000519999999N9999999N1-00461-00641102651ADDMA1999999097811REMSYN076AAXX  03094 06626 33/// /1401 11046 21064 39781 40265 5//// 333 553// 20479;
0140066260999992011010310004+47367+007983FM-12+038099999V0200801N001519999999N9999999N1-00211-00561102601ADDMA1999999097811MD1210031+9999OA149900311REMSYN088AAXX  03104 06626 33/// /0803 11021 21056 39781 40260 52003 333 553// 20911 91106 91203;
0140066260999992011010311004+47367+007983FM-12+038099999V0200801N002119999999N9999999N1-00091-00481102541ADDMA1999999097771MD1810041+9999OA149900461REMSYN088AAXX  03114 06626 33/// /0804 11009 21048 39777 40254 58004 333 553// 2//// 91109 91205;
0140066260999992011010312004+47367+007983FM-12+038099999V0200901N003119999999N9999999N1-00011-00531102451ADDMA1999999097701MD1710111+9999OA149900511REMSYN088AAXX  03124 06626 33/// /0906 11001 21053 39770 40245 57011 333 553// 2//// 91110 91206;
0140066260999992011010313004+47367+007983FM-12+038099999V0200801N003119999999N9999999N1+00011-00551102411ADDMA1999999097671MD1610141+9999OA149900621REMSYN088AAXX  03134 06626 33/// /0806 10001 21055 39767 40241 56014 333 553// 2//// 91112 91207;
0103066260999992011010314004+47367+007983FM-12+038099999V0200801N003119999999N9999999N1+00011-00561102411ADDMA1999999097671REMSYN076AAXX  03144 06626 33/// /0806 10001 21056 39767 40241 5//// 333 553// 20936;
0103066260999992011010315004+47367+007983FM-12+038099999V0200901N003119999999N9999999N1-00031-00561102401ADDMA1999999097651REMSYN076AAXX  03154 06626 33/// /0906 11003 21056 39765 40240 5//// 333 553// 20522;
0140066260999992011010316004+47367+007983FM-12+038099999V0201101N001519999999N9999999N1-00161-00501102411ADDMA1999999097641MD1710031+9999OA149900621REMSYN088AAXX  03164 06626 33/// /1103 11016 21050 39764 40241 57003 333 55303 20115 91112 91207;
0140066260999992011010317004+47367+007983FM-12+038099999V0201601N000519999999N9999999N1-00361-00561102441ADDMA1999999097631MD1710041+9999OA149900411REMSYN088AAXX  03174 06626 33/// /1601 11036 21056 39763 40244 57004 333 55300 20011 91108 91205;
0159066260999992011010318004+47367+007983FM-12+038099999V0202101N000519999999N9999999N1-00341-00531102451ADDKA1120M+00031MA1999999097641MD1510011+9999OA149900621REMSYN094AAXX  03184 06626 33/// /2101 11034 21053 39764 40245 55001 333 10003 55300 20011 91112 91207;
0140066260999992011010319004+47367+007983FM-12+038099999V0201301N001019999999N9999999N1-00441-00581102451ADDMA1999999097631MD1710011+9999OA149900151REMSYN088AAXX  03194 06626 33/// /1302 11044 21058 39763 40245 57001 333 55300 20011 91103 91202;
0140066260999992011010320004+47367+007983FM-12+038099999V0209999C000019999999N9999999N1-00531-00641102431ADDMA1999999097591MD1710041+9999OA149900151REMSYN088AAXX  03204 06626 33/// /0000 11053 21064 39759 40243 57004 333 55300 20011 91103 91202;
0140066260999992011010321004+47367+007983FM-12+038099999V0201101N000519999999N9999999N1-00551-00671102431ADDMA1999999097591MD1710051+9999OA149900411REMSYN088AAXX  03214 06626 33/// /1101 11055 21067 39759 40243 57005 333 55300 20011 91108 91205;
0140066260999992011010322004+47367+007983FM-12+038099999V0209999C000019999999N9999999N1-00581-00691102441ADDMA1999999097591MD1710041+9999OA149900101REMSYN088AAXX  03224 06626 33/// /0000 11058 21069 39759 40244 57004 333 55300 20007 91102 91202;
0140066260999992011010323004+47367+007983FM-12+038099999V0209999C000019999999N9999999N1-00561-00681102421ADDMA1999999097581MD1510011+9999OA149900101REMSYN088AAXX  03234 06626 33/// /0000 11056 21068 39758 40242 55001 333 55300 20011 91102 91202;
0140066260999992011010400004+47367+007983FM-12+038099999V0201701N000519999999N9999999N1-00521-00651102421ADDMA1999999097581MD1010011+9999OA149900621REMSYN088AAXX  04004 06626 33/// /1701 11052 21065 39758 40242 50001 333 55300 20007 91112 91207;
0140066260999992011010401004+47367+007983FM-12+038099999V0209999C000019999999N9999999N1-00541-00641102381ADDMA1999999097541MD1710051+9999OA149900151REMSYN088AAXX  04014 06626 33/// /0000 11054 21064 39754 40238 57005 333 55300 20011 91103 91202;
0140066260999992011010402004+47367+007983FM-12+038099999V0200901N001019999999N9999999N1-00491-00601102351ADDMA1999999097521MD1719999+9999OA149900151REMSYN088AAXX  04024 06626 33/// /0902 11049 21060 39752 40235 57/// 333 55300 20011 91103 91202;
0140066260999992011010403004+47367+007983FM-12+038099999V0201101N001519999999N9999999N1-00431-00571102291ADDMA1999999097481MD1810101+9999OA149900261REMSYN088AAXX  04034 06626 33/// /1103 11043 21057 39748 40229 58010 333 55300 20011 91105 91203;
0140066260999992011010404004+47367+007983FM-12+038099999V0200801N000519999999N9999999N1-00481-00611102281ADDMA1999999097461MD1810081+9999OA149900261REMSYN088AAXX  04044 06626 33/// /0801 11048 21061 39746 40228 58008 333 55300 20011 91105 91203;
0140066260999992011010405004+47367+007983FM-12+038099999V0200401N000519999999N9999999N1-00481-00611102241ADDMA1999999097421MD1610101+9999OA149900261REMSYN088AAXX  04054 06626 33/// /0401 11048 21061 39742 40224 56010 333 55300 20011 91105 91203;
0207066260999992011010406004+47367+007983FM-12+038099999V0201201N000519999999N9999999N1-00501-00621102211ADDAL19900091GJ104569IA2999-00909KA1999N-00611MA1999999097391MD1710091+9999OA149900261REMSYN112AAXX  04064 06626 33/// /1201 11050 21062 39739 40221 57009 333 21061 3/109 55076 55300 20011 70000 91105 91203;
0140066260999992011010407004+47367+007983FM-12+038099999V0201701N000519999999N9999999N1-00511-00621102191ADDMA1999999097371MD1710091+9999OA149900151REMSYN088AAXX  04074 06626 33/// /1701 11051 21062 39737 40219 57009 333 55300 20011 91103 91202;
0140066260999992011010408004+47367+007983FM-12+038099999V0201601N000519999999N9999999N1-00481-00631102201ADDMA1999999097381MD1519999+9999OA149900101REMSYN088AAXX  04084 06626 33/// /1601 11048 21063 39738 40220 55/// 333 55300 20018 91102 91202;
0103066260999992011010409004+47367+007983FM-12+038099999V0201301N001019999999N9999999N1-00431-00591102181ADDMA1999999097371REMSYN076AAXX  04094 06626 33/// /1302 11043 21059 39737 40218 5//// 333 553// 20061;
0140066260999992011010410004+47367+007983FM-12+038099999V0201201N001019999999N9999999N1-00401-00601102181ADDMA1999999097381MD1310011+9999OA149900151REMSYN088AAXX  04104 06626 33/// /1202 11040 21060 39738 40218 53001 333 55300 20256 91103 91202;
0140066260999992011010411004+47367+007983FM-12+038099999V0200901N001019999999N9999999N1-00321-00561102131ADDMA1999999097341MD1710041+9999OA149900211REMSYN088AAXX  04114 06626 33/// /0902 11032 21056 39734 40213 57004 333 55300 20396 91104 91202;
0140066260999992011010412004+47367+007983FM-12+038099999V0200201N000519999999N9999999N1-00251-00531102031ADDMA1999999097261MD1710111+9999OA149900261REMSYN088AAXX  04124 06626 33/// /0201 11025 21053 39726 40203 57011 333 55300 20328 91105 91203;
0140066260999992011010413004+47367+007983FM-12+038099999V0201101N001019999999N9999999N1-00241-00541101951ADDMA1999999097191MD1710191+9999OA149900211REMSYN088AAXX  04134 06626 33/// /1102 11024 21054 39719 40195 57019 333 55300 20428 91104 91202;
0103066260999992011010414004+47367+007983FM-12+038099999V0201301N001019999999N9999999N1-00211-00511101931ADDMA1999999097171REMSYN076AAXX  04144 06626 33/// /1302 11021 21051 39717 40193 5//// 333 553// 20378;
0087066260999992011010415004+47367+007983FM-12+038099999V0201401N001019999999N9999999N1-00201-00531101921ADDMA1999999097161REMSYN060AAXX  04154 06626 43/// /1402 11020 21053 39716 40192 5////;
0140066260999992011010416004+47367+007983FM-12+038099999V0209999C000019999999N9999999N1-00191-00541101911ADDMA1999999097161MD1710031+9999OA149900151REMSYN088AAXX  04164 06626 33/// /0000 11019 21054 39716 40191 57003 333 55300 20043 91103 91202;
0140066260999992011010417004+47367+007983FM-12+038099999V0202701N001019999999N9999999N1-00191-00431101911ADDMA1999999097161MD1510011+9999OA149900101REMSYN088AAXX  04174 06626 33/// /2702 11019 21043 39716 40191 55001 333 55300 20011 91102 91202;
0159066260999992011010418004+47367+007983FM-12+038099999V0209999C000019999999N9999999N1-00191-00481101911ADDKA1120M-00191MA1999999097161MD1510001+9999OA149900211REMSYN094AAXX  04184 06626 33/// /0000 11019 21048 39716 40191 55000 333 11019 55300 20011 91104 91202;
0140066260999992011010419004+47367+007983FM-12+038099999V0201401N000519999999N9999999N1-00191-00451101921ADDMA1999999097171MD1210011+9999OA149900101REMSYN088AAXX  04194 06626 33/// /1401 11019 21045 39717 40192 52001 333 55300 20011 91102 91201;
0140066260999992011010420004+47367+007983FM-12+038099999V0200501N000519999999N9999999N1-00191-00481101891ADDMA1999999097141MD1810021+9999OA149900151REMSYN088AAXX  04204 06626 33/// /0501 11019 21048 39714 40189 58002 333 55300 20011 91103 91203;
0140066260999992011010421004+47367+007983FM-12+038099999V0203501N001019999999N9999999N1-00191-00531101871ADDMA1999999097121MD1710041+9999OA149900211REMSYN088AAXX  04214 06626 33/// /3502 11019 21053 39712 40187 57004 333 55300 20011 91104 91203;
0140066260999992011010422004+47367+007983FM-12+038099999V0203501N000519999999N9999999N1-00211-00561101881ADDMA1999999097121MD1710051+9999OA149900211REMSYN088AAXX  04224 06626 33/// /3501 11021 21056 39712 40188 57005 333 55300 20011 91104 91203;
0140066260999992011010423004+47367+007983FM-12+038099999V0200901N001019999999N9999999N1-00231-00551101881ADDMA1999999097121MD1510021+9999OA149900211REMSYN088AAXX  04234 06626 33/// /0902 11023 21055 39712 40188 55002 333 55300 20011 91104 91203;
0073066260999992011010506004+47367+007983FM-12+038099999V02099999999999999999N9999999N1+99999+99999999999REMSYN064AAXX  05064 06626 43/// ///// 1//// 2//// 3//// 5//// 333 55000;
0103066260999992011010515004+47367+007983FM-12+038099999V0202801N002119999999N9999999N1+00151-00361101361ADDMA1999999096691REMSYN076AAXX  05154 06626 33/// /2804 10015 21036 39669 40136 5//// 333 553// 20515;
0140066260999992011010516004+47367+007983FM-12+038099999V0202701N001019999999N9999999N1+00061-00351101371ADDMA1999999096681MD1819999+9999OA149900571REMSYN088AAXX  05164 06626 33/// /2702 10006 21035 39668 40137 58/// 333 55300 20112 91111 91207;
0140066260999992011010517004+47367+007983FM-12+038099999V0200401N000519999999N9999999N1-00151-00351101411ADDMA1999999096691MD1519999+9999OA149900361REMSYN088AAXX  05174 06626 33/// /0401 11015 21035 39669 40141 55/// 333 55300 20014 91107 91204;
0159066260999992011010518004+47367+007983FM-12+038099999V0200601N001019999999N9999999N1-00061-00321101401ADDKA1120M+00261MA1999999096691MD1019999+9999OA149900721REMSYN094AAXX  05184 06626 33/// /0602 11006 21032 39669 40140 50/// 333 10026 55300 20011 91114 91207;
0140066260999992011010519004+47367+007983FM-12+038099999V0201001N001019999999N9999999N1-00241-00401101411ADDMA1999999096671MD1710011+9999OA149900211REMSYN088AAXX  05194 06626 33/// /1002 11024 21040 39667 40141 57001 333 55300 20011 91104 91202;
0140066260999992011010520004+47367+007983FM-12+038099999V0209999C000019999999N9999999N1-00261-00381101361ADDMA1999999096621MD1719999+9999OA149900211REMSYN088AAXX  05204 06626 33/// /0000 11026 21038 39662 40136 57/// 333 55300 20011 91104 91202;
0103066260999992011010521004+47367+007983FM-12+038099999V0202001N000519999999N9999999N1-00341-00431101361ADDMA1999999096611REMSYN076AAXX  05214 06626 33/// /2001 11034 21043 39661 40136 5//// 333 553// 20011;
0140066260999992011010522004+47367+007983FM-12+038099999V0201201N000519999999N9999999N1-00331-00441101331ADDMA1999999096581MD1710091+9999OA149900151REMSYN088AAXX  05224 06626 33/// /1201 11033 21044 39658 40133 57009 333 55300 20011 91103 91202;
0140066260999992011010523004+47367+007983FM-12+038099999V0201701N000519999999N9999999N1-00361-00481101301ADDMA1999999096551MD1719999+9999OA149900101REMSYN088AAXX  05234 06626 33/// /1701 11036 21048 39655 40130 57/// 333 55300 20011 91102 91202;
0087066260999992011010600004+47367+007983FM-12+038099999V0202101N000519999999N9999999N1-00371-00471101241ADDMA1999999096491REMSYN060AAXX  06004 06626 43/// /2101 11037 21047 39649 40124 5////;
0087066260999992011010601004+47367+007983FM-12+038099999V0202001N000519999999N9999999N1-00301-00401101171ADDMA1999999096431REMSYN060AAXX  06014 06626 43/// /2001 11030 21040 39643 40117 5////;
0087066260999992011010602004+47367+007983FM-12+038099999V0201501N000519999999N9999999N1-00231-00371101141ADDMA1999999096421REMSYN060AAXX  06024 06626 43/// /1501 11023 21037 39642 40114 5////;
0087066260999992011010603004+47367+007983FM-12+038099999V0201201N000519999999N9999999N1-00191-00341101121ADDMA1999999096401REMSYN060AAXX  06034 06626 43/// /1201 11019 21034 39640 40112 5////;
0087066260999992011010604004+47367+007983FM-12+038099999V0202801N002119999999N9999999N1-00101-00341101071ADDMA1999999096371REMSYN060AAXX  06044 06626 43/// /2804 11010 21034 39637 40107 5////;
0087066260999992011010605004+47367+007983FM-12+038099999V0202501N002119999999N9999999N1+00041-00161100991ADDMA1999999096321REMSYN060AAXX  06054 06626 43/// /2504 10004 21016 39632 40099 5////;
0178066260999992011010606004+47367+007983FM-12+038099999V0202201N004619999999N9999999N1+00261-00031100931ADDAA124000091GJ103369IA2999-00709KA1999N-00521MA1999999096301REMSYN088AAXX  06064 06626 43/// /2209 10026 21003 39630 40093 5//// 333 21052 3/107 55056 70000;EQDQ01  00002PRCP24
0087066260999992011010607004+47367+007983FM-12+038099999V0202101N005119999999N9999999N1+00371+00061100911ADDMA1999999096301REMSYN060AAXX  06074 06626 43/// /2110 10037 20006 39630 40091 5////;
0103066260999992011010608004+47367+007983FM-12+038099999V0203001N003119999999N9999999N1+00321+00041100941ADDMA1999999096321REMSYN076AAXX  06084 06626 33/// /3006 10032 20004 39632 40094 5//// 333 553// 20040;
0087066260999992011010609004+47367+007983FM-12+038099999V0203601N001519999999N9999999N1+00351+00081100961ADDMA1999999096341REMSYN060AAXX  06094 06626 43/// /3603 10035 20008 39634 40096 5////;
0140066260999992011010610004+47367+007983FM-12+038099999V0202301N005719999999N9999999N1+00571+00211100901ADDMA1999999096321MD1010021+9999OA149901131REMSYN088AAXX  06104 06626 33/// /2311 10057 20021 39632 40090 50002 333 55300 20479 91122 91211;
0175066260999992011010611004+47367+007983FM-12+038099999V0202201N004619999999N9999999N1+00611+00301100891ADDMA1999999096321MD1710051+9999OA149901131REMSYN088AAXX  06114 06626 33/// /2209 10061 20030 39632 40089 57000 333 55300 20518 91122 91211;EQDQ01+000072APCTENQ02+000002APC3  
0140066260999992011010612004+47367+007983FM-12+038099999V0202501N002619999999N9999999N1+00581+00321100881ADDMA1999999096301MD1710041+9999OA149901131REMSYN088AAXX  06124 06626 33/// /2505 10058 20032 39630 40088 57004 333 55300 20310 91122 91211;
0140066260999992011010613004+47367+007983FM-12+038099999V0202501N002119999999N9999999N1+00621+00341100841ADDMA1999999096271MD1810051+9999OA149900771REMSYN088AAXX  06134 06626 33/// /2504 10062 20034 39627 40084 58005 333 55300 20202 91115 91209;
0087066260999992011010614004+47367+007983FM-12+038099999V0202201N003119999999N9999999N1+00691+00341100811ADDMA1999999096261REMSYN060AAXX  06144 06626 43/// /2206 10069 20034 39626 40081 5////;
0087066260999992011010615004+47367+007983FM-12+038099999V0202401N005119999999N9999999N1+00721+00401100811ADDMA1999999096261REMSYN060AAXX  06154 06626 43/// /2410 10072 20040 39626 40081 5////;
0181066260999992011010616004+47367+007983FM-12+038099999V0202301N005119999999N9999999N1+00741+00421100821ADDMA1999999096271MD1710021+9999OA149901131REMSYN094AAXX  06164 06626 23/// /2310 10074 20042 39627 40082 53000 333 55300 20047 69915 91122 91210;EQDQ01+000032APCTENQ02+000002APC3  
0146066260999992011010617004+47367+007983FM-12+038099999V0202301N004119999999N9999999N1+00691+00501100891ADDMA1999999096331MD1210071+9999OA149901131REMSYN094AAXX  06174 06626 23/// /2308 10069 20050 39633 40089 52007 333 55300 20014 69975 91122 91211;
0182066260999992011010618004+47367+007983FM-12+038099999V0202101N002119999999N9999999N1+00701+00531100921ADDAA112000891KA1120M+00741MA1999999096361MD1210101+9999OA149901131REMSYN106AAXX  06184 06626 03/// /2104 10070 20053 39636 40092 52010 69982 333 10074 55300 20011 60005 91122 91211;
0146066260999992011010619004+47367+007983FM-12+038099999V0202101N005119999999N9999999N1+00711+00541100971ADDMA1999999096411MD1210141+9999OA149900981REMSYN094AAXX  06194 06626 23/// /2110 10071 20054 39641 40097 52014 333 55300 20014 69915 91119 91210;
0146066260999992011010620004+47367+007983FM-12+038099999V0202501N002619999999N9999999N1+00741+00541101001ADDMA1999999096451MD1219999+9999OA149900981REMSYN094AAXX  06204 06626 23/// /2505 10074 20054 39645 40100 52/// 333 55300 20011 69925 91119 91210;
0140066260999992011010621004+47367+007983FM-12+038099999V0202101N004619999999N9999999N1+00711+00521101061ADDMA1999999096501MD1219999+9999OA149901131REMSYN088AAXX  06214 06626 33/// /2109 10071 20052 39650 40106 52/// 333 55300 20014 91122 91211;
0146066260999992011010622004+47367+007983FM-12+038099999V0202201N004119999999N9999999N1+00711+00541101131ADDMA1999999096561MD1310151+9999OA149900821REMSYN094AAXX  06224 06626 23/// /2208 10071 20054 39656 40113 53015 333 55300 20014 69915 91116 91209;
0103066260999992011010623004+47367+007983FM-12+038099999V0202101N004619999999N9999999N1+00761+00561101161ADDMA1999999096601REMSYN076AAXX  06234 06626 33/// /2109 10076 20056 39660 40116 5//// 333 553// 20011;
0087066260999992011010700004+47367+007983FM-12+038099999V0202101N005719999999N9999999N1+00751+00551101181ADDMA1999999096621REMSYN060AAXX  07004 06626 43/// /2111 10075 20055 39662 40118 5////;
0087066260999992011010701004+47367+007983FM-12+038099999V0202301N004619999999N9999999N1+00771+00551101181ADDMA1999999096621REMSYN060AAXX  07014 06626 43/// /2309 10077 20055 39662 40118 5////;
0087066260999992011010702004+47367+007983FM-12+038099999V0202801N002119999999N9999999N1+00641+00501101251ADDMA1999999096671REMSYN060AAXX  07024 06626 43/// /2804 10064 20050 39667 40125 5////;
0087066260999992011010703004+47367+007983FM-12+038099999V0203001N002619999999N9999999N1+00671+00501101261ADDMA1999999096681REMSYN060AAXX  07034 06626 43/// /3005 10067 20050 39668 40126 5////;
0146066260999992011010704004+47367+007983FM-12+038099999V0202501N003119999999N9999999N1+00731+00581101281ADDMA1999999096711MD1110091+9999OA149900881REMSYN094AAXX  07044 06626 23/// /2506 10073 20058 39671 40128 51009 333 55300 20014 69955 91117 91208;
0146066260999992011010705004+47367+007983FM-12+038099999V0202901N001519999999N9999999N1+00621+00521101331ADDMA1999999096741MD1210071+9999OA149900881REMSYN094AAXX  07054 06626 23/// /2903 10062 20052 39674 40133 52007 333 55300 20014 69975 91117 91208;
0230066260999992011010706004+47367+007983FM-12+038099999V0202701N002119999999N9999999N1+00631+00551101361ADDAA112002091AL14800291GJ100009IA2999+00509KA1999N+00621MA1999999096771MD1210091+9999OA149900981REMSYN124AAXX  07064 06626 03/// /2704 10063 20055 39677 40136 52009 60022 333 20062 3/005 55000 55300 20011 69975 70028 91119 91211;
0146066260999992011010707004+47367+007983FM-12+038099999V0201201N001019999999N9999999N1+00561+00511101371ADDMA1999999096771MD1210061+9999OA149900411REMSYN094AAXX  07074 06626 23/// /1202 10056 20051 39677 40137 52006 333 55300 20011 69915 91108 91205;
0109066260999992011010708004+47367+007983FM-12+038099999V0201901N000519999999N9999999N1+00571+00531101391ADDMA1999999096791REMSYN082AAXX  07084 06626 23/// /1901 10057 20053 39679 40139 5//// 333 553// 20025 69915;
0087066260999992011010709004+47367+007983FM-12+038099999V0202201N000519999999N9999999N1+00631+00581101391ADDMA1999999096801REMSYN060AAXX  07094 06626 43/// /2201 10063 20058 39680 40139 5////;
0140066260999992011010710004+47367+007983FM-12+038099999V0202901N002119999999N9999999N1+00801+00651101331ADDMA1999999096771MD1010001+9999OA149900311REMSYN088AAXX  07104 06626 33/// /2904 10080 20065 39677 40133 50000 333 55301 20468 91106 91204;
0140066260999992011010711004+47367+007983FM-12+038099999V0202601N002119999999N9999999N1+00901+00681101291ADDMA1999999096751MD1710041+9999OA149900511REMSYN088AAXX  07114 06626 33/// /2604 10090 20068 39675 40129 57004 333 55304 20886 91110 91206;
0182066260999992011010712004+47367+007983FM-12+038099999V0202301N003119999999N9999999N1+00941+00661101291ADDAA106000091MA1999999096751MD1710051+9999OA149900981REMSYN100AAXX  07124 06626 03/// /2306 10094 20066 39675 40129 57005 69921 333 55303 2//// 60005 91119 91211;EQDQ01  00002PRCP06
0140066260999992011010713004+47367+007983FM-12+038099999V0202601N001519999999N9999999N1+00951+00701101221ADDMA1999999096691MD1710081+9999OA149900621REMSYN088AAXX  07134 06626 33/// /2603 10095 20070 39669 40122 57008 333 55302 20889 91112 91208;
0087066260999992011010714004+47367+007983FM-12+038099999V0202601N001019999999N9999999N1+00971+00721101231ADDMA1999999096701REMSYN060AAXX  07144 06626 43/// /2602 10097 20072 39670 40123 5////;
0087066260999992011010715004+47367+007983FM-12+038099999V0202601N002119999999N9999999N1+00961+00691101261ADDMA1999999096731REMSYN060AAXX  07154 06626 43/// /2604 10096 20069 39673 40126 5////;
0140066260999992011010716004+47367+007983FM-12+038099999V0202501N001019999999N9999999N1+00861+00671101301ADDMA1999999096751MD1210061+9999OA149900411REMSYN088AAXX  07164 06626 33/// /2502 10086 20067 39675 40130 52006 333 55300 20043 91108 91205;
0140066260999992011010717004+47367+007983FM-12+038099999V0201601N000519999999N9999999N1+00751+00631101341ADDMA1999999096771MD1210071+9999OA149900411REMSYN088AAXX  07174 06626 33/// /1601 10075 20063 39677 40134 52007 333 55300 20014 91108 91205;
0164066260999992011010718004+47367+007983FM-12+038099999V0202201N000519999999N9999999N1+00721+00611101371ADDAA112000091KA1120M+01001MA1999999096801REMSYN094AAXX  07184 06626 03/// /2201 10072 20061 39680 40137 5//// 69922 333 10100 553// 20014 60005;EQDQ01  00002PRCP12
0140066260999992011010719004+47367+007983FM-12+038099999V0209999C000019999999N9999999N1+00701+00611101361ADDMA1999999096781MD1219999+9999OA149900151REMSYN088AAXX  07194 06626 33/// /0000 10070 20061 39678 40136 52/// 333 55300 20014 91103 91202;
0087066260999992011010720004+47367+007983FM-12+038099999V0209999C000019999999N9999999N1+00531+00501101351ADDMA1999999096741REMSYN060AAXX  07204 06626 43/// /0000 10053 20050 39674 40135 5////;
0087066260999992011010721004+47367+007983FM-12+038099999V0201201N000519999999N9999999N1+00551+00491101361ADDMA1999999096761REMSYN060AAXX  07214 06626 43/// /1201 10055 20049 39676 40136 5////;
0140066260999992011010722004+47367+007983FM-12+038099999V0203001N000519999999N9999999N1+00511+00471101381ADDMA1999999096771MD1510011+9999OA149900151REMSYN088AAXX  07224 06626 33/// /3001 10051 20047 39677 40138 55001 333 55300 20014 91103 91202;
0103066260999992011010723004+47367+007983FM-12+038099999V0201801N001019999999N9999999N1+00541+00471101421ADDMA1999999096811REMSYN076AAXX  07234 06626 33/// /1802 10054 20047 39681 40142 5//// 333 553// 20014;
0103066260999992011010800004+47367+007983FM-12+038099999V0209999C000019999999N9999999N1+00561+00491101411ADDMA1999999096811REMSYN076AAXX  08004 06626 33/// /0000 10056 20049 39681 40141 5//// 333 553// 20011;
0087066260999992011010801004+47367+007983FM-12+038099999V0202001N001019999999N9999999N1+00571+00511101401ADDMA1999999096801REMSYN060AAXX  08014 06626 43/// /2002 10057 20051 39680 40140 5////;
0087066260999992011010802004+47367+007983FM-12+038099999V0202101N000519999999N9999999N1+00541+00481101431ADDMA1999999096821REMSYN060AAXX  08024 06626 43/// /2101 10054 20048 39682 40143 5////;
0087066260999992011010803004+47367+007983FM-12+038099999V0202201N000519999999N9999999N1+00551+00491101441ADDMA1999999096831REMSYN060AAXX  08034 06626 43/// /2201 10055 20049 39683 40144 5////;
0087066260999992011010804004+47367+007983FM-12+038099999V0201401N000519999999N9999999N1+00591+00531101451ADDMA1999999096851REMSYN060AAXX  08044 06626 43/// /1401 10059 20053 39685 40145 5////;
0087066260999992011010805004+47367+007983FM-12+038099999V0200601N000519999999N9999999N1+00621+00561101511ADDMA1999999096911REMSYN060AAXX  08054 06626 43/// /0601 10062 20056 39691 40151 5////;
0134066260999992011010806004+47367+007983FM-12+038099999V0200501N000519999999N9999999N1+00571+00521101551ADDIA2999+00409KA1999N+00481MA1999999096941REMSYN082AAXX  08064 06626 43/// /0501 10057 20052 39694 40155 5//// 333 20048 3/004 55014;
0087066260999992011010807004+47367+007983FM-12+038099999V0202201N001519999999N9999999N1+00531+00491101611ADDMA1999999096991REMSYN060AAXX  08074 06626 43/// /2203 10053 20049 39699 40161 5////;
0109066260999992011010808004+47367+007983FM-12+038099999V0209999C000019999999N9999999N1+00531+00491101581ADDMA1999999096961REMSYN082AAXX  08084 06626 23/// /0000 10053 20049 39696 40158 5//// 333 553// 20050 69925;
0087066260999992011010809004+47367+007983FM-12+038099999V0202701N001519999999N9999999N1+00651+00571101551ADDMA1999999096961REMSYN060AAXX  08094 06626 43/// /2703 10065 20057 39696 40155 5////;
0087066260999992011010810004+47367+007983FM-12+038099999V0202601N001519999999N9999999N1+00781+00651101551ADDMA1999999096981REMSYN060AAXX  08104 06626 43/// /2603 10078 20065 39698 40155 5////;
0087066260999992011010811004+47367+007983FM-12+038099999V0202801N001519999999N9999999N1+00951+00731101481ADDMA1999999096941REMSYN060AAXX  08114 06626 43/// /2803 10095 20073 39694 40148 5////;
0087066260999992011010812004+47367+007983FM-12+038099999V0202501N001019999999N9999999N1+00991+00741101431ADDMA1999999096901REMSYN060AAXX  08124 06626 43/// /2502 10099 20074 39690 40143 5////;
0087066260999992011010813004+47367+007983FM-12+038099999V0201701N000519999999N9999999N1+01081+00741101371ADDMA1999999096851REMSYN060AAXX  08134 06626 43/// /1701 10108 20074 39685 40137 5////;
0087066260999992011010814004+47367+007983FM-12+038099999V0202901N001019999999N9999999N1+01161+00751101331ADDMA1999999096831REMSYN060AAXX  08144 06626 43/// /2902 10116 20075 39683 40133 5////;
0087066260999992011010815004+47367+007983FM-12+038099999V0202501N001019999999N9999999N1+01131+00721101351ADDMA1999999096841REMSYN060AAXX  08154 06626 43/// /2502 10113 20072 39684 40135 5////;
0087066260999992011010816004+47367+007983FM-12+038099999V0202301N000519999999N9999999N1+00931+00761101401ADDMA1999999096861REMSYN060AAXX  08164 06626 43/// /2301 10093 20076 39686 40140 5////;
0087066260999992011010817004+47367+007983FM-12+038099999V0200801N000519999999N9999999N1+00891+00721101381ADDMA1999999096831REMSYN060AAXX  08174 06626 43/// /0801 10089 20072 39683 40138 5////;
0087066260999992011010818004+47367+007983FM-12+038099999V0201901N001019999999N9999999N1+00591+00551101431ADDMA1999999096831REMSYN060AAXX  08184 06626 43/// /1902 10059 20055 39683 40143 5////;
0087066260999992011010819004+47367+007983FM-12+038099999V0202101N000519999999N9999999N1+00541+00521101421ADDMA1999999096811REMSYN060AAXX  08194 06626 43/// /2101 10054 20052 39681 40142 5////;
0087066260999992011010820004+47367+007983FM-12+038099999V0201301N000519999999N9999999N1+00461+00441101441ADDMA1999999096821REMSYN060AAXX  08204 06626 43/// /1301 10046 20044 39682 40144 5////;
0087066260999992011010821004+47367+007983FM-12+038099999V0202001N001019999999N9999999N1+00521+00471101411ADDMA1999999096801REMSYN060AAXX  08214 06626 43/// /2002 10052 20047 39680 40141 5////;
0087066260999992011010822004+47367+007983FM-12+038099999V0202301N000519999999N9999999N1+00541+00491101391ADDMA1999999096781REMSYN060AAXX  08224 06626 43/// /2301 10054 20049 39678 40139 5////;
0087066260999992011010823004+47367+007983FM-12+038099999V0202501N000519999999N9999999N1+00561+00491101371ADDMA1999999096771REMSYN060AAXX  08234 06626 43/// /2501 10056 20049 39677 40137 5////;
0087066260999992011010900004+47367+007983FM-12+038099999V0202701N001519999999N9999999N1+00591+00461101351ADDMA1999999096751REMSYN060AAXX  09004 06626 43/// /2703 10059 20046 39675 40135 5////;
0087066260999992011010901004+47367+007983FM-12+038099999V0202901N003619999999N9999999N1+00481+00351101421ADDMA1999999096801REMSYN060AAXX  09014 06626 43/// /2907 10048 20035 39680 40142 5////;
0087066260999992011010902004+47367+007983FM-12+038099999V0201701N001019999999N9999999N1+00391+00301101431ADDMA1999999096801REMSYN060AAXX  09024 06626 43/// /1702 10039 20030 39680 40143 5////;
0087066260999992011010903004+47367+007983FM-12+038099999V0201601N001019999999N9999999N1+00391+00291101401ADDMA1999999096771REMSYN060AAXX  09034 06626 43/// /1602 10039 20029 39677 40140 5////;
0087066260999992011010904004+47367+007983FM-12+038099999V0201901N000519999999N9999999N1+00331+00241101381ADDMA1999999096741REMSYN060AAXX  09044 06626 43/// /1901 10033 20024 39674 40138 5////;
0087066260999992011010905004+47367+007983FM-12+038099999V0203001N000519999999N9999999N1+00321+00241101391ADDMA1999999096751REMSYN060AAXX  09054 06626 43/// /3001 10032 20024 39675 40139 5////;
0097066260999992011010906004+47367+007983FM-12+038099999V0201901N001019999999N9999999N1+00271+00201101401ADDMA1999999096751REMSYN070AAXX  09064 06626 43/// /1902 10027 20020 39675 40140 5//// 333 55044;
0087066260999992011010907004+47367+007983FM-12+038099999V0201301N000519999999N9999999N1+00241+00181101431ADDMA1999999096771REMSYN060AAXX  09074 06626 43/// /1301 10024 20018 39677 40143 5////;
0103066260999992011010908004+47367+007983FM-12+038099999V0202001N001019999999N9999999N1+00351+00231101471ADDMA1999999096831REMSYN076AAXX  09084 06626 33/// /2002 10035 20023 39683 40147 5//// 333 553// 20029;
0103066260999992011010909004+47367+007983FM-12+038099999V0202501N002119999999N9999999N1+00471+00271101501ADDMA1999999096881REMSYN076AAXX  09094 06626 33/// /2504 10047 20027 39688 40150 5//// 333 553// 20151;
0140066260999992011010910004+47367+007983FM-12+038099999V0202801N003119999999N9999999N1+00511+00261101541ADDMA1999999096921MD1210151+9999OA149900511REMSYN088AAXX  09104 06626 33/// /2806 10051 20026 39692 40154 52015 333 55300 20220 91110 91207;
0140066260999992011010911004+47367+007983FM-12+038099999V0202701N002619999999N9999999N1+00571+00281101561ADDMA1999999096951MD1210121+9999OA149900511REMSYN088AAXX  09114 06626 33/// /2705 10057 20028 39695 40156 52012 333 55300 20220 91110 91206;
0140066260999992011010912004+47367+007983FM-12+038099999V0209999C000019999999N9999999N1+00611+00341101531ADDMA1999999096931MD1210051+9999OA149900511REMSYN088AAXX  09124 06626 33/// /0000 10061 20034 39693 40153 52005 333 55300 20184 91110 91207;
0146066260999992011010913004+47367+007983FM-12+038099999V0202101N001019999999N9999999N1+00591+00491101501ADDMA1999999096901MD1710021+9999OA149900361REMSYN094AAXX  09134 06626 23/// /2102 10059 20049 39690 40150 57002 333 55300 20115 60015 91107 91205;
0087066260999992011010914004+47367+007983FM-12+038099999V0201301N000519999999N9999999N1+00591+00541101541ADDMA1999999096941REMSYN060AAXX  09144 06626 43/// /1301 10059 20054 39694 40154 5////;
0087066260999992011010915004+47367+007983FM-12+038099999V0202801N001519999999N9999999N1+00631+00551101561ADDMA1999999096961REMSYN060AAXX  09154 06626 43/// /2803 10063 20055 39696 40156 5////;
0146066260999992011010916004+47367+007983FM-12+038099999V0202401N002119999999N9999999N1+00671+00601101601ADDMA1999999097011MD1110111+9999OA149900311REMSYN094AAXX  09164 06626 23/// /2404 10067 20060 39701 40160 51011 333 55300 20025 60025 91106 91204;
0146066260999992011010917004+47367+007983FM-12+038099999V0202801N002119999999N9999999N1+00681+00591101651ADDMA1999999097061MD1310121+9999OA149900411REMSYN094AAXX  09174 06626 23/// /2804 10068 20059 39706 40165 53012 333 55300 20011 60015 91108 91205;
0182066260999992011010918004+47367+007983FM-12+038099999V0202701N001019999999N9999999N1+00671+00591101701ADDAA112007991KA1120M+00691MA1999999097101MD1110141+9999OA149900511REMSYN106AAXX  09184 06626 03/// /2702 10067 20059 39710 40170 51014 60082 333 10069 55300 20011 60015 91110 91207;
0146066260999992011010919004+47367+007983FM-12+038099999V0202601N001519999999N9999999N1+00671+00591101741ADDMA1999999097141MD1110131+9999OA149900361REMSYN094AAXX  09194 06626 23/// /2603 10067 20059 39714 40174 51013 333 55300 20011 69985 91107 91205;
0146066260999992011010920004+47367+007983FM-12+038099999V0202401N003619999999N9999999N1+00691+00541101801ADDMA1999999097201MD1310141+9999OA149900771REMSYN094AAXX  09204 06626 23/// /2407 10069 20054 39720 40180 53014 333 55300 20011 60015 91115 91208;
0146066260999992011010921004+47367+007983FM-12+038099999V0202301N003619999999N9999999N1+00681+00531101841ADDMA1999999097241MD1210141+9999OA149900771REMSYN094AAXX  09214 06626 23/// /2307 10068 20053 39724 40184 52014 333 55300 20011 69985 91115 91208;
0146066260999992011010922004+47367+007983FM-12+038099999V0202301N003619999999N9999999N1+00651+00481101891ADDMA1999999097281MD1110141+9999OA149900721REMSYN094AAXX  09224 06626 23/// /2307 10065 20048 39728 40189 51014 333 55300 20011 60015 91114 91208;
0146066260999992011010923004+47367+007983FM-12+038099999V0202301N004119999999N9999999N1+00611+00441101941ADDMA1999999097321MD1310121+9999OA149900721REMSYN094AAXX  09234 06626 23/// /2308 10061 20044 39732 40194 53012 333 55300 20011 69985 91114 91208;
0163066260999992011011000004+47367+007983FM-12+038099999V0202401N003619999999N9999999N1+00581+00441101991ADDAA106006191MA1999999097361MD1110121+9999OA149900771REMSYN100AAXX  10004 06626 03/// /2407 10058 20044 39736 40199 51012 60061 333 55300 20011 69965 91115 91208;
0146066260999992011011001004+47367+007983FM-12+038099999V0202501N001519999999N9999999N1+00541+00451102021ADDMA1999999097391MD1110111+9999OA149900771REMSYN094AAXX  10014 06626 23/// /2503 10054 20045 39739 40202 51011 333 55300 20011 69965 91115 91208;
0103066260999992011011002004+47367+007983FM-12+038099999V0202901N000519999999N9999999N1+00541+00431102071ADDMA1999999097431REMSYN076AAXX  10024 06626 33/// /2901 10054 20043 39743 40207 5//// 333 553// 20011;
0087066260999992011011003004+47367+007983FM-12+038099999V0202601N001019999999N9999999N1+00481+00281102111ADDMA1999999097461REMSYN060AAXX  10034 06626 43/// /2602 10048 20028 39746 40211 5////;
0109066260999992011011004004+47367+007983FM-12+038099999V0203301N001519999999N9999999N1+00411+00211102131ADDMA1999999097471REMSYN082AAXX  10044 06626 23/// /3303 10041 20021 39747 40213 5//// 333 553// 20014 69915;
0146066260999992011011005004+47367+007983FM-12+038099999V0209999C000019999999N9999999N1+00381+00181102161ADDMA1999999097491MD1219999+9999OA149900311REMSYN094AAXX  10054 06626 23/// /0000 10038 20018 39749 40216 52/// 333 55300 20011 69925 91106 91203;
0159066260999992011011006004+47367+007983FM-12+038099999V0209999C001019999999N9999999N1+00331+00181102201ADDAA124015091GJ100009IA2999+00309KA1999N+00361MA1999999097521REMSYN088AAXX  10064 06626 43/// /0002 10033 20018 39752 40220 5//// 333 20036 3/003 55000 70150;
0140066260999992011011007004+47367+007983FM-12+038099999V0200501N000519999999N9999999N1+00321+00141102231ADDMA1999999097551MD1110081+9999OA149900151REMSYN088AAXX  10074 06626 33/// /0501 10032 20014 39755 40223 51008 333 55300 20011 91103 91202;
0087066260999992011011008004+47367+007983FM-12+038099999V0209999C000019999999N9999999N1+00331+00221102261ADDMA1999999097581REMSYN060AAXX  10084 06626 43/// /0000 10033 20022 39758 40226 5////;
0087066260999992011011009004+47367+007983FM-12+038099999V0200901N000519999999N9999999N1+00381+00221102271ADDMA1999999097601REMSYN060AAXX  10094 06626 43/// /0901 10038 20022 39760 40227 5////;
0140066260999992011011010004+47367+007983FM-12+038099999V0200501N001519999999N9999999N1+00411+00181102261ADDMA1999999097591MD1010041+9999OA149900311REMSYN088AAXX  10104 06626 33/// /0503 10041 20018 39759 40226 50004 333 55300 20202 91106 91203;
0140066260999992011011011004+47367+007983FM-12+038099999V0200401N002119999999N9999999N1+00421+00211102221ADDMA1999999097561MD1819999+9999OA149900311REMSYN088AAXX  10114 06626 33/// /0404 10042 20021 39756 40222 58/// 333 55300 20234 91106 91204;
0103066260999992011011012004+47367+007983FM-12+038099999V0200501N001519999999N9999999N1+00401+00181102191ADDMA1999999097521REMSYN076AAXX  10124 06626 33/// /0503 10040 20018 39752 40219 5//// 333 553// 20238;
0087066260999992011011013004+47367+007983FM-12+038099999V0200801N001519999999N9999999N1+00421+00161102111ADDMA1999999097451REMSYN060AAXX  10134 06626 43/// /0803 10042 20016 39745 40211 5////;
0087066260999992011011014004+47367+007983FM-12+038099999V0200801N002119999999N9999999N1+00431+00211102051ADDMA1999999097401REMSYN060AAXX  10144 06626 43/// /0804 10043 20021 39740 40205 5////;
0087066260999992011011015004+47367+007983FM-12+038099999V0201001N002619999999N9999999N1+00411+00181102041ADDMA1999999097381REMSYN060AAXX  10154 06626 43/// /1005 10041 20018 39738 40204 5////;
0087066260999992011011016004+47367+007983FM-12+038099999V0200601N001519999999N9999999N1+00401+00171102011ADDMA1999999097351REMSYN060AAXX  10164 06626 43/// /0603 10040 20017 39735 40201 5////;
0087066260999992011011017004+47367+007983FM-12+038099999V0201001N002119999999N9999999N1+00371+00191101991ADDMA1999999097331REMSYN060AAXX  10174 06626 43/// /1004 10037 20019 39733 40199 5////;
0110066260999992011011018004+47367+007983FM-12+038099999V0200901N001519999999N9999999N1+00371+00141101961ADDKA1999M+00431MA1999999097301REMSYN070AAXX  10184 06626 43/// /0903 10037 20014 39730 40196 5//// 333 10043;
0087066260999992011011019004+47367+007983FM-12+038099999V0200601N001019999999N9999999N1+00351+00171101941ADDMA1999999097281REMSYN060AAXX  10194 06626 43/// /0602 10035 20017 39728 40194 5////;
0087066260999992011011020004+47367+007983FM-12+038099999V0202101N000519999999N9999999N1+00321+00211101931ADDMA1999999097261REMSYN060AAXX  10204 06626 43/// /2101 10032 20021 39726 40193 5////;
0087066260999992011011021004+47367+007983FM-12+038099999V0200801N001019999999N9999999N1+00331+00161101901ADDMA1999999097241REMSYN060AAXX  10214 06626 43/// /0802 10033 20016 39724 40190 5////;
0087066260999992011011022004+47367+007983FM-12+038099999V0201001N001519999999N9999999N1+00321+00171101871ADDMA1999999097211REMSYN060AAXX  10224 06626 43/// /1003 10032 20017 39721 40187 5////;
0087066260999992011011023004+47367+007983FM-12+038099999V0200901N000519999999N9999999N1+00301+00161101851ADDMA1999999097181REMSYN060AAXX  10234 06626 43/// /0901 10030 20016 39718 40185 5////;
0087066260999992011011100004+47367+007983FM-12+038099999V0200801N001019999999N9999999N1+00311+00201101771ADDMA1999999097111REMSYN060AAXX  11004 06626 43/// /0802 10031 20020 39711 40177 5////;
0087066260999992011011101004+47367+007983FM-12+038099999V0200801N001519999999N9999999N1+00311+00181101721ADDMA1999999097061REMSYN060AAXX  11014 06626 43/// /0803 10031 20018 39706 40172 5////;
0087066260999992011011102004+47367+007983FM-12+038099999V0200901N001019999999N9999999N1+00301+00211101681ADDMA1999999097021REMSYN060AAXX  11024 06626 43/// /0902 10030 20021 39702 40168 5////;
0087066260999992011011103004+47367+007983FM-12+038099999V0200701N001019999999N9999999N1+00311+00211101641ADDMA1999999096981REMSYN060AAXX  11034 06626 43/// /0702 10031 20021 39698 40164 5////;
0087066260999992011011104004+47367+007983FM-12+038099999V0200901N000519999999N9999999N1+00281+00211101601ADDMA1999999096941REMSYN060AAXX  11044 06626 43/// /0901 10028 20021 39694 40160 5////;
0087066260999992011011105004+47367+007983FM-12+038099999V0200701N001019999999N9999999N1+00321+00211101521ADDMA1999999096871REMSYN060AAXX  11054 06626 43/// /0702 10032 20021 39687 40152 5////;
0097066260999992011011106004+47367+007983FM-12+038099999V0200901N001019999999N9999999N1+00311+00221101471ADDMA1999999096821REMSYN070AAXX  11064 06626 43/// /0902 10031 20022 39682 40147 5//// 333 55000;
0140066260999992011011107004+47367+007983FM-12+038099999V0201101N000519999999N9999999N1+00301+00221101431ADDMA1999999096781MD1619999+9999OA149900211REMSYN088AAXX  11074 06626 33/// /1101 10030 20022 39678 40143 56/// 333 55300 20014 91104 91203;
0103066260999992011011108004+47367+007983FM-12+038099999V0200701N001019999999N9999999N1+00331+00241101401ADDMA1999999096761REMSYN076AAXX  11084 06626 33/// /0702 10033 20024 39676 40140 5//// 333 553// 20040;
0087066260999992011011109004+47367+007983FM-12+038099999V0200501N000519999999N9999999N1+00371+00241101341ADDMA1999999096711REMSYN060AAXX  11094 06626 43/// /0501 10037 20024 39671 40134 5////;
0140066260999992011011110004+47367+007983FM-12+038099999V0202201N003619999999N9999999N1+00621+00221101251ADDMA1999999096661MD1710121+9999OA149900821REMSYN088AAXX  11104 06626 33/// /2207 10062 20022 39666 40125 57012 333 55303 20781 91116 91208;
0140066260999992011011111004+47367+007983FM-12+038099999V0202101N003619999999N9999999N1+00601+00201101181ADDMA1999999096591MD1810171+9999OA149900821REMSYN088AAXX  11114 06626 33/// /2107 10060 20020 39659 40118 58017 333 55302 20720 91116 91209;
0103066260999992011011112004+47367+007983FM-12+038099999V0202301N002619999999N9999999N1+00601+00191101101ADDMA1999999096521REMSYN076AAXX  11124 06626 33/// /2305 10060 20019 39652 40110 5//// 333 553// 20788;
0140066260999992011011113004+47367+007983FM-12+038099999V0202301N005119999999N9999999N1+00601+00211101081ADDMA1999999096501MD1610161+9999OA149900881REMSYN088AAXX  11134 06626 33/// /2310 10060 20021 39650 40108 56016 333 55300 20313 91117 91210;
0087066260999992011011114004+47367+007983FM-12+038099999V0202401N006719999999N9999999N1+00511+00211101141ADDMA1999999096541REMSYN060AAXX  11144 06626 43/// /2413 10051 20021 39654 40114 5////;
0087066260999992011011115004+47367+007983FM-12+038099999V0202301N004619999999N9999999N1+00441+00261101231ADDMA1999999096621REMSYN060AAXX  11154 06626 43/// /2309 10044 20026 39662 40123 5////;
0146066260999992011011116004+47367+007983FM-12+038099999V0202301N005719999999N9999999N1+00381+00201101331ADDMA1999999096701MD1310201+9999OA149901081REMSYN094AAXX  11164 06626 23/// /2311 10038 20020 39670 40133 53020 333 55300 20025 60025 91121 91212;
0146066260999992011011117004+47367+007983FM-12+038099999V0202301N004619999999N9999999N1+00361+00201101401ADDMA1999999096761MD1210211+9999OA149901131REMSYN094AAXX  11174 06626 23/// /2309 10036 20020 39676 40140 52021 333 55300 20011 60015 91122 91212;
0182066260999992011011118004+47367+007983FM-12+038099999V0202301N003619999999N9999999N1+00421+00221101471ADDAA112006191KA1120M+00641MA1999999096841MD1110221+9999OA149901541REMSYN106AAXX  11184 06626 03/// /2307 10042 20022 39684 40147 51022 60062 333 10064 55300 20011 60005 91130 91215;
0140066260999992011011119004+47367+007983FM-12+038099999V0202501N001519999999N9999999N1+00431+00241101571ADDMA1999999096941MD1310241+9999OA149900931REMSYN088AAXX  11194 06626 33/// /2503 10043 20024 39694 40157 53024 333 55300 20011 91118 91209;
0140066260999992011011120004+47367+007983FM-12+038099999V0202501N003619999999N9999999N1+00461+00291101641ADDMA1999999097011MD1110251+9999OA149900931REMSYN088AAXX  11204 06626 33/// /2507 10046 20029 39701 40164 51025 333 55300 20011 91118 91208;
0140066260999992011011121004+47367+007983FM-12+038099999V0202401N003619999999N9999999N1+00481+00301101731ADDMA1999999097101MD1210261+9999OA149901131REMSYN088AAXX  11214 06626 33/// /2407 10048 20030 39710 40173 52026 333 55300 20011 91122 91212;
0140066260999992011011122004+47367+007983FM-12+038099999V0202301N004619999999N9999999N1+00481+00321101831ADDMA1999999097191MD1310251+9999OA149900881REMSYN088AAXX  11224 06626 33/// /2309 10048 20032 39719 40183 53025 333 55300 20011 91117 91209;
0140066260999992011011123004+47367+007983FM-12+038099999V0202301N004619999999N9999999N1+00521+00331101861ADDMA1999999097231MD1110221+9999OA149900931REMSYN088AAXX  11234 06626 33/// /2309 10052 20033 39723 40186 51022 333 55300 20011 91118 91209;
0140066260999992011011200004+47367+007983FM-12+038099999V0202401N003619999999N9999999N1+00521+00321101891ADDMA1999999097261MD1110161+9999OA149901541REMSYN088AAXX  12004 06626 33/// /2407 10052 20032 39726 40189 51016 333 55300 20011 91130 91215;
0140066260999992011011201004+47367+007983FM-12+038099999V0202701N002119999999N9999999N1+00511+00351101941ADDMA1999999097301MD1110111+9999OA149900981REMSYN088AAXX  12014 06626 33/// /2704 10051 20035 39730 40194 51011 333 55300 20011 91119 91209;
0103066260999992011011202004+47367+007983FM-12+038099999V0202501N003619999999N9999999N1+00561+00331102041ADDMA1999999097411REMSYN076AAXX  12024 06626 33/// /2507 10056 20033 39741 40204 5//// 333 553// 20011;
0087066260999992011011203004+47367+007983FM-12+038099999V0202301N004619999999N9999999N1+00521+00361102111ADDMA1999999097471REMSYN060AAXX  12034 06626 43/// /2309 10052 20036 39747 40211 5////;
0087066260999992011011204004+47367+007983FM-12+038099999V0202601N002119999999N9999999N1+00511+00381102181ADDMA1999999097531REMSYN060AAXX  12044 06626 43/// /2604 10051 20038 39753 40218 5////;
0109066260999992011011205004+47367+007983FM-12+038099999V0202401N002119999999N9999999N1+00511+00381102271ADDMA1999999097621REMSYN082AAXX  12054 06626 23/// /2404 10051 20038 39762 40227 5//// 333 553// 20011 69925;
0159066260999992011011206004+47367+007983FM-12+038099999V0209999C000019999999N9999999N1+00461+00391102361ADDAA124006691GJ100429IA2999+00309KA1999N+00391MA1999999097701REMSYN088AAXX  12064 06626 43/// /0000 10046 20039 39770 40236 5//// 333 20039 3/003 55007 70065;
0140066260999992011011207004+47367+007983FM-12+038099999V0202901N003619999999N9999999N1+00521+00361102381ADDMA1999999097731MD1210201+9999OA149900461REMSYN088AAXX  12074 06626 33/// /2907 10052 20036 39773 40238 52020 333 55300 20011 91109 91207;
0087066260999992011011208004+47367+007983FM-12+038099999V0202601N002619999999N9999999N1+00511+00371102381ADDMA1999999097721REMSYN060AAXX  12084 06626 43/// /2605 10051 20037 39772 40238 5////;
0087066260999992011011209004+47367+007983FM-12+038099999V0202501N002119999999N9999999N1+00541+00361102401ADDMA1999999097751REMSYN060AAXX  12094 06626 43/// /2504 10054 20036 39775 40240 5////;
0140066260999992011011210004+47367+007983FM-12+038099999V0202401N002119999999N9999999N1+00581+00391102401ADDMA1999999097761MD1219999+9999OA149900461REMSYN088AAXX  12104 06626 33/// /2404 10058 20039 39776 40240 52/// 333 55300 20320 91109 91207;
0117066260999992011011211004+47367+007983FM-12+038099999V0202301N002119999999N9999999N1+00591+00351102391ADDMA1999999097751MD1210031+9999REMSYN076AAXX  12114 06626 33/// /2304 10059 20035 39775 40239 52003 333 55300 20317;
0087066260999992011011212004+47367+007983FM-12+038099999V0202301N003119999999N9999999N1+00621+00341102341ADDMA1999999097701REMSYN060AAXX  12124 06626 43/// /2306 10062 20034 39770 40234 5////;
0087066260999992011011213004+47367+007983FM-12+038099999V0202401N003119999999N9999999N1+00641+00331102311ADDMA1999999097681REMSYN060AAXX  12134 06626 43/// /2406 10064 20033 39768 40231 5////;
0087066260999992011011214004+47367+007983FM-12+038099999V0202101N002119999999N9999999N1+00601+00351102341ADDMA1999999097701REMSYN060AAXX  12144 06626 43/// /2104 10060 20035 39770 40234 5////;
0087066260999992011011215004+47367+007983FM-12+038099999V0202301N004619999999N9999999N1+00581+00321102331ADDMA1999999097691REMSYN060AAXX  12154 06626 43/// /2309 10058 20032 39769 40233 5////;
0146066260999992011011216004+47367+007983FM-12+038099999V0202301N004119999999N9999999N1+00591+00341102311ADDMA1999999097671MD1810011+9999OA149900981REMSYN094AAXX  12164 06626 23/// /2308 10059 20034 39767 40231 58001 333 55300 20032 69915 91119 91210;
0146066260999992011011217004+47367+007983FM-12+038099999V0202301N006219999999N9999999N1+00601+00271102291ADDMA1999999097651MD1710051+9999OA149901491REMSYN094AAXX  12174 06626 23/// /2312 10060 20027 39765 40229 57005 333 55300 20014 69925 91129 91212;
0182066260999992011011218004+47367+007983FM-12+038099999V0202401N004619999999N9999999N1+00561+00311102311ADDAA112002091KA1120M+00641MA1999999097671MD1510021+9999OA149901491REMSYN106AAXX  12184 06626 03/// /2409 10056 20031 39767 40231 55002 60022 333 10064 55300 20011 69945 91129 91213;
0146066260999992011011219004+47367+007983FM-12+038099999V0202401N004619999999N9999999N1+00581+00331102291ADDMA1999999097651MD1710021+9999OA149901181REMSYN094AAXX  12194 06626 23/// /2409 10058 20033 39765 40229 57002 333 55300 20011 69925 91123 91213;
0146066260999992011011220004+47367+007983FM-12+038099999V0202401N004619999999N9999999N1+00591+00331102291ADDMA1999999097651MD1510001+9999OA149901131REMSYN094AAXX  12204 06626 23/// /2409 10059 20033 39765 40229 55000 333 55300 20014 69955 91122 91213;
0146066260999992011011221004+47367+007983FM-12+038099999V0202401N008719999999N9999999N1+00711+00361102261ADDMA1999999097641MD1710031+9999OA149901601REMSYN094AAXX  12214 06626 23/// /2417 10071 20036 39764 40226 57003 333 55300 20011 69915 91131 91217;
0146066260999992011011222004+47367+007983FM-12+038099999V0202401N007719999999N9999999N1+00631+00421102271ADDMA1999999097641MD1010011+9999OA149901601REMSYN094AAXX  12224 06626 23/// /2415 10063 20042 39764 40227 50001 333 55300 20014 69955 91131 91217;
0146066260999992011011223004+47367+007983FM-12+038099999V0202301N007219999999N9999999N1+00631+00401102301ADDMA1999999097671MD1210021+9999OA149901541REMSYN094AAXX  12234 06626 23/// /2314 10063 20040 39767 40230 52002 333 55300 20014 60015 91130 91216;
0163066260999992011011300004+47367+007983FM-12+038099999V0202301N007219999999N9999999N1+00621+00441102271ADDAA106005191MA1999999097641MD1010001+9999OA149901601REMSYN100AAXX  13004 06626 03/// /2314 10062 20044 39764 40227 50000 60051 333 55300 20011 60035 91131 91217;
0146066260999992011011301004+47367+007983FM-12+038099999V0202301N007719999999N9999999N1+00661+00421102201ADDMA1999999097581MD1810061+9999OA149901541REMSYN094AAXX  13014 06626 23/// /2315 10066 20042 39758 40220 58006 333 55300 20011 60015 91130 91215;
0146066260999992011011302004+47367+007983FM-12+038099999V0202301N006719999999N9999999N1+00691+00471102201ADDMA1999999097581MD1719999+9999OA149901441REMSYN094AAXX  13024 06626 23/// /2313 10069 20047 39758 40220 57/// 333 55300 20011 69995 91128 91216;
0087066260999992011011303004+47367+007983FM-12+038099999V0202301N006719999999N9999999N1+00731+00531102171ADDMA1999999097561REMSYN060AAXX  13034 06626 43/// /2313 10073 20053 39756 40217 5////;
0146066260999992011011304004+47367+007983FM-12+038099999V0202301N006719999999N9999999N1+00771+00601102131ADDMA1999999097531MD1719999+9999OA149901291REMSYN094AAXX  13044 06626 23/// /2313 10077 20060 39753 40213 57/// 333 55300 20011 69995 91125 91213;
0109066260999992011011305004+47367+007983FM-12+038099999V0202401N005119999999N9999999N1+00781+00611102161ADDMA1999999097561REMSYN082AAXX  13054 06626 23/// /2410 10078 20061 39756 40216 5//// 333 553// 20011 60015;
0230066260999992011011306004+47367+007983FM-12+038099999V0202401N006719999999N9999999N1+00811+00621102181ADDAA112010991AL14801291GJ100009IA2999+00509KA1999N+00561MA1999999097581MD1310021+9999OA149901601REMSYN124AAXX  13064 06626 03/// /2413 10081 20062 39758 40218 53002 60112 333 20056 3/005 55000 55300 20011 69935 70129 91131 91217;
0087066260999992011011307004+47367+007983FM-12+038099999V0202401N004619999999N9999999N1+00791+00591102181ADDMA1999999097581REMSYN060AAXX  13074 06626 43/// /2409 10079 20059 39758 40218 5////;
0087066260999992011011308004+47367+007983FM-12+038099999V0202401N005719999999N9999999N1+00841+00621102181ADDMA1999999097591REMSYN060AAXX  13084 06626 43/// /2411 10084 20062 39759 40218 5////;
0087066260999992011011309004+47367+007983FM-12+038099999V0202501N004619999999N9999999N1+00871+00641102181ADDMA1999999097591REMSYN060AAXX  13094 06626 43/// /2509 10087 20064 39759 40218 5////;
0087066260999992011011310004+47367+007983FM-12+038099999V0202401N005719999999N9999999N1+00941+00641102221ADDMA1999999097641REMSYN060AAXX  13104 06626 43/// /2411 10094 20064 39764 40222 5////;
0087066260999992011011311004+47367+007983FM-12+038099999V0202401N005119999999N9999999N1+01011+00661102171ADDMA1999999097611REMSYN060AAXX  13114 06626 43/// /2410 10101 20066 39761 40217 5////;
0087066260999992011011312004+47367+007983FM-12+038099999V0202401N005719999999N9999999N1+01051+00691102141ADDMA1999999097581REMSYN060AAXX  13124 06626 43/// /2411 10105 20069 39758 40214 5////;
0087066260999992011011313004+47367+007983FM-12+038099999V0202401N006219999999N9999999N1+01131+00681102051ADDMA1999999097511REMSYN060AAXX  13134 06626 43/// /2412 10113 20068 39751 40205 5////;
0087066260999992011011314004+47367+007983FM-12+038099999V0202501N004619999999N9999999N1+01181+00711102091ADDMA1999999097561REMSYN060AAXX  13144 06626 43/// /2509 10118 20071 39756 40209 5////;
0087066260999992011011315004+47367+007983FM-12+038099999V0202301N004619999999N9999999N1+01131+00691102101ADDMA1999999097561REMSYN060AAXX  13154 06626 43/// /2309 10113 20069 39756 40210 5////;
0087066260999992011011316004+47367+007983FM-12+038099999V0202301N004119999999N9999999N1+01121+00691102101ADDMA1999999097561REMSYN060AAXX  13164 06626 43/// /2308 10112 20069 39756 40210 5////;
0146066260999992011011317004+47367+007983FM-12+038099999V0202501N002619999999N9999999N1+01071+00751102131ADDMA1999999097581MD1210021+9999OA149900981REMSYN094AAXX  13174 06626 23/// /2505 10107 20075 39758 40213 52002 333 55300 20014 69985 91119 91211;
0182066260999992011011318004+47367+007983FM-12+038099999V0202701N001519999999N9999999N1+01001+00841102181ADDAA112004191KA1120M+01181MA1999999097611MD1210041+9999OA149901391REMSYN106AAXX  13184 06626 03/// /2703 10100 20084 39761 40218 52004 60042 333 10118 55300 20011 60025 91127 91214;
0146066260999992011011319004+47367+007983FM-12+038099999V0202901N003119999999N9999999N1+00981+00811102161ADDMA1999999097591MD1010031+9999OA149900721REMSYN094AAXX  13194 06626 23/// /2906 10098 20081 39759 40216 50003 333 55300 20011 69985 91114 91207;
0146066260999992011011320004+47367+007983FM-12+038099999V0202601N002619999999N9999999N1+00981+00821102141ADDMA1999999097571MD1810011+9999OA149900511REMSYN094AAXX  13204 06626 23/// /2605 10098 20082 39757 40214 58001 333 55300 20011 69935 91110 91206;
0140066260999992011011321004+47367+007983FM-12+038099999V0202501N002619999999N9999999N1+00991+00801102121ADDMA1999999097561MD1710051+9999OA149900981REMSYN088AAXX  13214 06626 33/// /2505 10099 20080 39756 40212 57005 333 55300 20011 91119 91211;
0140066260999992011011322004+47367+007983FM-12+038099999V0202701N001519999999N9999999N1+00981+00791102141ADDMA1999999097571MD1710021+9999OA149900671REMSYN088AAXX  13224 06626 33/// /2703 10098 20079 39757 40214 57002 333 55300 20011 91113 91207;
0146066260999992011011323004+47367+007983FM-12+038099999V0202701N002619999999N9999999N1+00951+00761102151ADDMA1999999097581MD1310011+9999OA149900461REMSYN094AAXX  13234 06626 23/// /2705 10095 20076 39758 40215 53001 333 55300 20011 69915 91109 91205;
0163066260999992011011400004+47367+007983FM-12+038099999V0202601N002119999999N9999999N1+00951+00731102161ADDAA106001091MA1999999097591MD1210031+9999OA149901391REMSYN100AAXX  14004 06626 03/// /2604 10095 20073 39759 40216 52003 60011 333 55300 20011 60005 91127 91214;
0140066260999992011011401004+47367+007983FM-12+038099999V0200301N000519999999N9999999N1+00941+00721102201ADDMA1999999097621MD1210051+9999OA149900361REMSYN088AAXX  14014 06626 33/// /0301 10094 20072 39762 40220 52005 333 55300 20014 91107 91205;
0103066260999992011011402004+47367+007983FM-12+038099999V0202801N001519999999N9999999N1+00901+00711102261ADDMA1999999097671REMSYN076AAXX  14024 06626 33/// /2803 10090 20071 39767 40226 5//// 333 553// 20011;
0140066260999992011011403004+47367+007983FM-12+038099999V0202501N001519999999N9999999N1+00841+00671102241ADDMA1999999097651MD1210061+9999OA149900461REMSYN088AAXX  14034 06626 33/// /2503 10084 20067 39765 40224 52006 333 55300 20014 91109 91206;
0140066260999992011011404004+47367+007983FM-12+038099999V0202801N002119999999N9999999N1+00801+00641102251ADDMA1999999097651MD1010031+9999OA149900461REMSYN088AAXX  14044 06626 33/// /2804 10080 20064 39765 40225 50003 333 55300 20014 91109 91206;
0140066260999992011011405004+47367+007983FM-12+038099999V0202601N001519999999N9999999N1+00821+00651102241ADDMA1999999097641MD1710031+9999OA149900361REMSYN088AAXX  14054 06626 33/// /2603 10082 20065 39764 40224 57003 333 55300 20011 91107 91205;
0230066260999992011011406004+47367+007983FM-12+038099999V0202101N001019999999N9999999N1+00791+00641102271ADDAA112001091AL13600591GJ100009IA2999+00609KA1999N+00751MA1999999097671MD1310021+9999OA149900671REMSYN124AAXX  14064 06626 03/// /2102 10079 20064 39767 40227 53002 60012 333 20075 3/006 55000 55300 20011 60005 70056 91113 91207;
0140066260999992011011407004+47367+007983FM-12+038099999V0202401N002119999999N9999999N1+00921+00651102241ADDMA1999999097661MD1210011+9999OA149900411REMSYN088AAXX  14074 06626 33/// /2404 10092 20065 39766 40224 52001 333 55300 20011 91108 91204;
0087066260999992011011408004+47367+007983FM-12+038099999V0202601N002119999999N9999999N1+00861+00661102281ADDMA1999999097691REMSYN060AAXX  14084 06626 43/// /2604 10086 20066 39769 40228 5////;
0087066260999992011011409004+47367+007983FM-12+038099999V0202501N001519999999N9999999N1+00921+00671102221ADDMA1999999097641REMSYN060AAXX  14094 06626 43/// /2503 10092 20067 39764 40222 5////;
0087066260999992011011410004+47367+007983FM-12+038099999V0202801N001519999999N9999999N1+00961+00701102221ADDMA1999999097651REMSYN060AAXX  14104 06626 43/// /2803 10096 20070 39765 40222 5////;
0140066260999992011011411004+47367+007983FM-12+038099999V0202701N000519999999N9999999N1+00991+00681102211ADDMA1999999097641MD1710051+9999OA149900361REMSYN088AAXX  14114 06626 33/// /2701 10099 20068 39764 40221 57005 333 55300 20263 91107 91204;
0140066260999992011011412004+47367+007983FM-12+038099999V0202301N001519999999N9999999N1+01061+00621102121ADDMA1999999097571MD1710071+9999OA149900461REMSYN088AAXX  14124 06626 33/// /2303 10106 20062 39757 40212 57007 333 55300 20346 91109 91207;
0140066260999992011011413004+47367+007983FM-12+038099999V0202301N001019999999N9999999N1+01061+00691102071ADDMA1999999097521MD1710131+9999OA149900311REMSYN088AAXX  14134 06626 33/// /2302 10106 20069 39752 40207 57013 333 55300 20238 91106 91203;
0103066260999992011011414004+47367+007983FM-12+038099999V0202301N001019999999N9999999N1+01051+00651102061ADDMA1999999097511REMSYN076AAXX  14144 06626 33/// /2302 10105 20065 39751 40206 5//// 333 553// 20184;
0140066260999992011011415004+47367+007983FM-12+038099999V0201501N000519999999N9999999N1+01041+00721102041ADDMA1999999097491MD1710081+9999OA149900361REMSYN088AAXX  14154 06626 33/// /1501 10104 20072 39749 40204 57008 333 55300 20205 91107 91204;
0140066260999992011011416004+47367+007983FM-12+038099999V0200701N000519999999N9999999N1+00921+00721102041ADDMA1999999097471MD1710051+9999OA149900151REMSYN088AAXX  14164 06626 33/// /0701 10092 20072 39747 40204 57005 333 55300 20108 91103 91202;
0140066260999992011011417004+47367+007983FM-12+038099999V0201101N001019999999N9999999N1+00621+00541102061ADDMA1999999097441MD1710071+9999OA149900151REMSYN088AAXX  14174 06626 33/// /1102 10062 20054 39744 40206 57007 333 55300 20018 91103 91202;
0159066260999992011011418004+47367+007983FM-12+038099999V0209999C000019999999N9999999N1+00491+00491102061ADDKA1120M+01081MA1999999097421MD1710071+9999OA149900461REMSYN094AAXX  14184 06626 33/// /0000 10049 20049 39742 40206 57007 333 10108 55300 20014 91109 91207;
0140066260999992011011419004+47367+007983FM-12+038099999V0209999C000019999999N9999999N1+00381+00371102091ADDMA1999999097431MD1710041+9999OA149900151REMSYN088AAXX  14194 06626 33/// /0000 10038 20037 39743 40209 57004 333 55300 20014 91103 91201;
0140066260999992011011420004+47367+007983FM-12+038099999V0201601N001019999999N9999999N1+00241+00221102141ADDMA1999999097451MD1310011+9999OA149900151REMSYN088AAXX  14204 06626 33/// /1602 10024 20022 39745 40214 53001 333 55300 20014 91103 91202;
0140066260999992011011421004+47367+007983FM-12+038099999V0201601N000519999999N9999999N1+00281+00251102201ADDMA1999999097511MD1210091+9999OA149900151REMSYN088AAXX  14214 06626 33/// /1601 10028 20025 39751 40220 52009 333 55300 20014 91103 91202;
0140066260999992011011422004+47367+007983FM-12+038099999V0201401N000519999999N9999999N1+00431+00371102251ADDMA1999999097591MD1210161+9999OA149900461REMSYN088AAXX  14224 06626 33/// /1401 10043 20037 39759 40225 52016 333 55300 20011 91109 91204;
0140066260999992011011423004+47367+007983FM-12+038099999V0202501N002619999999N9999999N1+00651+00451102291ADDMA1999999097661MD1110211+9999OA149900511REMSYN088AAXX  14234 06626 33/// /2505 10065 20045 39766 40229 51021 333 55300 20011 91110 91206;
0140066260999992011011500004+47367+007983FM-12+038099999V0202801N002619999999N9999999N1+00741+00481102311ADDMA1999999097701MD1210191+9999OA149900511REMSYN088AAXX  15004 06626 33/// /2805 10074 20048 39770 40231 52019 333 55300 20011 91110 91207;
0146066260999992011011501004+47367+007983FM-12+038099999V0202601N002119999999N9999999N1+00711+00561102401ADDMA1999999097781MD1210191+9999OA149900511REMSYN094AAXX  15014 06626 23/// /2604 10071 20056 39778 40240 52019 333 55300 20014 60025 91110 91207;
0146066260999992011011502004+47367+007983FM-12+038099999V0202401N002119999999N9999999N1+00741+00581102471ADDMA1999999097851MD1219999+9999OA149900511REMSYN094AAXX  15024 06626 23/// /2404 10074 20058 39785 40247 52/// 333 55300 20011 69935 91110 91206;
0109066260999992011011503004+47367+007983FM-12+038099999V0202501N002119999999N9999999N1+00751+00601102551ADDMA1999999097931REMSYN082AAXX  15034 06626 23/// /2504 10075 20060 39793 40255 5//// 333 553// 20011 69945;
0140066260999992011011504004+47367+007983FM-12+038099999V0202301N001519999999N9999999N1+00781+00531102641ADDMA1999999098021MD1310241+9999OA149900571REMSYN088AAXX  15044 06626 33/// /2303 10078 20053 39802 40264 53024 333 55300 20011 91111 91205;
0140066260999992011011505004+47367+007983FM-12+038099999V0202601N002619999999N9999999N1+00721+00421102721ADDMA1999999098081MD1110231+9999OA149900571REMSYN088AAXX  15054 06626 33/// /2605 10072 20042 39808 40272 51023 333 55300 20014 91111 91206;
0230066260999992011011506004+47367+007983FM-12+038099999V0202201N001519999999N9999999N1+00661+00371102821ADDAA112003091AL14800291GJ100009IA2999+00009KA1999N+00241MA1999999098171MD1210241+9999OA149900571REMSYN124AAXX  15064 06626 03/// /2203 10066 20037 39817 40282 52024 60032 333 20024 3/000 55000 55300 20014 60005 70028 91111 91207;
0140066260999992011011507004+47367+007983FM-12+038099999V0201701N001019999999N9999999N1+00611+00391102881ADDMA1999999098221MD1210201+9999OA149900461REMSYN088AAXX  15074 06626 33/// /1702 10061 20039 39822 40288 52020 333 55300 20014 91109 91206;
0140066260999992011011508004+47367+007983FM-12+038099999V0201301N001019999999N9999999N1+00451+00361102921ADDMA1999999098231MD1219999+9999OA149900461REMSYN088AAXX  15084 06626 33/// /1302 10045 20036 39823 40292 52/// 333 55303 20108 91109 91206;
0140066260999992011011509004+47367+007983FM-12+038099999V0201501N000519999999N9999999N1+00661+00451102941ADDMA1999999098281MD1210111+9999OA149900571REMSYN088AAXX  15094 06626 33/// /1501 10066 20045 39828 40294 52011 333 553// 20500 91111 91206;
0140066260999992011011510004+47367+007983FM-12+038099999V0201201N001019999999N9999999N1+00901+00531102891ADDMA1999999098281MD1210061+9999OA149900261REMSYN088AAXX  15104 06626 33/// /1202 10090 20053 39828 40289 52006 333 553// 20979 91105 91203;
0140066260999992011011511004+47367+007983FM-12+038099999V0202401N001519999999N9999999N1+00961+00471102851ADDMA1999999098251MD1010021+9999OA149900361REMSYN088AAXX  15114 06626 33/// /2403 10096 20047 39825 40285 50002 333 55309 2//// 91107 91205;
0140066260999992011011512004+47367+007983FM-12+038099999V0202301N002119999999N9999999N1+01071+00411102781ADDMA1999999098201MD1710081+9999OA149900571REMSYN088AAXX  15124 06626 33/// /2304 10107 20041 39820 40278 57008 333 553// 2//// 91111 91206;
0103066260999992011011513004+47367+007983FM-12+038099999V0209999C000019999999N9999999N1+01041+00311102741ADDMA1999999098161REMSYN076AAXX  15134 06626 33/// /0000 10104 20031 39816 40274 5//// 333 553// 20882;
0087066260999992011011514004+47367+007983FM-12+038099999V0201001N001519999999N9999999N1+01061+00331102771ADDMA1999999098191REMSYN060AAXX  15144 06626 43/// /1003 10106 20033 39819 40277 5////;
0087066260999992011011515004+47367+007983FM-12+038099999V0201301N001019999999N9999999N1+00971+00461102811ADDMA1999999098211REMSYN060AAXX  15154 06626 43/// /1302 10097 20046 39821 40281 5////;
0087066260999992011011516004+47367+007983FM-12+038099999V0201401N000519999999N9999999N1+00771+00511102871ADDMA1999999098241REMSYN060AAXX  15164 06626 43/// /1401 10077 20051 39824 40287 5////;
0103066260999992011011517004+47367+007983FM-12+038099999V0200501N000519999999N9999999N1+00451+00351102931ADDMA1999999098241REMSYN076AAXX  15174 06626 33/// /0501 10045 20035 39824 40293 5//// 333 553// 20022;
0110066260999992011011518004+47367+007983FM-12+038099999V0201901N000519999999N9999999N1+00391+00321102981ADDKA1999M+01091MA1999999098281REMSYN070AAXX  15184 06626 43/// /1901 10039 20032 39828 40298 5//// 333 10109;
0087066260999992011011519004+47367+007983FM-12+038099999V0201501N000519999999N9999999N1+00311+00261103011ADDMA1999999098291REMSYN060AAXX  15194 06626 43/// /1501 10031 20026 39829 40301 5////;
0087066260999992011011520004+47367+007983FM-12+038099999V0200901N000519999999N9999999N1+00361+00281103031ADDMA1999999098321REMSYN060AAXX  15204 06626 43/// /0901 10036 20028 39832 40303 5////;
0140066260999992011011521004+47367+007983FM-12+038099999V0202501N001019999999N9999999N1+00121+00091103051ADDMA1999999098301MD1210021+9999OA149900211REMSYN088AAXX  15214 06626 33/// /2502 10012 20009 39830 40305 52002 333 55300 20014 91104 91203;
0140066260999992011011522004+47367+007983FM-12+038099999V0209999C000519999999N9999999N1+00231+00171103041ADDMA1999999098311MD1210021+9999OA149900151REMSYN088AAXX  15224 06626 33/// /0001 10023 20017 39831 40304 52002 333 55300 20011 91103 91202;
0140066260999992011011523004+47367+007983FM-12+038099999V0200801N000519999999N9999999N1+00191+00141103031ADDMA1999999098291MD1710031+9999OA149900151REMSYN088AAXX  15234 06626 33/// /0801 10019 20014 39829 40303 57003 333 55300 20014 91103 91202;
0140066260999992011011600004+47367+007983FM-12+038099999V0202001N000519999999N9999999N1+00031-00011103041ADDMA1999999098271MD1810031+9999OA149900311REMSYN088AAXX  16004 06626 33/// /2001 10003 21001 39827 40304 58003 333 55300 20014 91106 91203;
0140066260999992011011601004+47367+007983FM-12+038099999V0202601N001019999999N9999999N1+00041+00011103031ADDMA1999999098261MD1710051+9999OA149900151REMSYN088AAXX  16014 06626 33/// /2602 10004 20001 39826 40303 57005 333 55300 20014 91103 91202;
0140066260999992011011602004+47367+007983FM-12+038099999V0209999C000019999999N9999999N1-00021-00021103041ADDMA1999999098261MD1719999+9999OA149900151REMSYN088AAXX  16024 06626 33/// /0000 11002 21002 39826 40304 57/// 333 55300 20011 91103 91202;
0087066260999992011011603004+47367+007983FM-12+038099999V0201801N000519999999N9999999N1+00031+00031103021ADDMA1999999098251REMSYN060AAXX  16034 06626 43/// /1801 10003 20003 39825 40302 5////;
0140066260999992011011604004+47367+007983FM-12+038099999V0202401N000519999999N9999999N1+00071+00071103011ADDMA1999999098251MD1410001+9999OA149900211REMSYN088AAXX  16044 06626 33/// /2401 10007 20007 39825 40301 54001 333 55300 20014 91104 91203;
0175066260999992011011605004+47367+007983FM-12+038099999V0202301N001019999999N9999999N1+00111+00111103011ADDMA1999999098261MD1710031+9999OA149900211REMSYN088AAXX  16054 06626 33/// /2302 10011 20011 39826 40301 52000 333 55300 20014 91104 91203;EQDQ01+000022APCTENQ02+000002APC3  
0207066260999992011011606004+47367+007983FM-12+038099999V0202101N000519999999N9999999N1+00101+00101103041ADDAL19900091GJ102889IA2999-00309KA1999N-00051MA1999999098281MD1210031+9999OA149900211REMSYN112AAXX  16064 06626 33/// /2101 10010 20010 39828 40304 52003 333 21005 3/103 55048 55300 20014 70000 91104 91203;
0140066260999992011011607004+47367+007983FM-12+038099999V0202601N001519999999N9999999N1+00081+00041103081ADDMA1999999098321MD1210071+9999OA149900311REMSYN088AAXX  16074 06626 33/// /2603 10008 20004 39832 40308 52007 333 55300 20014 91106 91203;
0140066260999992011011608004+47367+007983FM-12+038099999V0202701N001019999999N9999999N1+00041+00011103141ADDMA1999999098371MD1219999+9999OA149900311REMSYN088AAXX  16084 06626 33/// /2702 10004 20001 39837 40314 52/// 333 55300 20061 91106 91203;
0140066260999992011011609004+47367+007983FM-12+038099999V0202701N001019999999N9999999N1+00061+00031103161ADDMA1999999098391MD1110111+9999OA149900311REMSYN088AAXX  16094 06626 33/// /2702 10006 20003 39839 40316 51011 333 55300 20227 91106 91203;
0140066260999992011011610004+47367+007983FM-12+038099999V0202401N001019999999N9999999N1+00111+00061103151ADDMA1999999098391MD1110071+9999OA149900211REMSYN088AAXX  16104 06626 33/// /2402 10011 20006 39839 40315 51007 333 55300 20396 91104 91203;
0140066260999992011011611004+47367+007983FM-12+038099999V0202201N001019999999N9999999N1+00141+00101103101ADDMA1999999098351MD1810021+9999OA149900211REMSYN088AAXX  16114 06626 33/// /2202 10014 20010 39835 40310 58002 333 55300 20522 91104 91202;
0140066260999992011011612004+47367+007983FM-12+038099999V0202401N001019999999N9999999N1+00271+00191103021ADDMA1999999098291MD1810101+9999OA149900311REMSYN088AAXX  16124 06626 33/// /2402 10027 20019 39829 40302 58010 333 55300 20724 91106 91203;
0140066260999992011011613004+47367+007983FM-12+038099999V0202101N001019999999N9999999N1+00251+00191102961ADDMA1999999098231MD1810161+9999OA149900211REMSYN088AAXX  16134 06626 33/// /2102 10025 20019 39823 40296 58016 333 55303 20814 91104 91203;
0140066260999992011011614004+47367+007983FM-12+038099999V0202101N001019999999N9999999N1+00501+00281102861ADDMA1999999098181MD1619999+9999OA149900211REMSYN088AAXX  16144 06626 33/// /2102 10050 20028 39818 40286 56/// 333 553// 2//// 91104 91203;
0140066260999992011011615004+47367+007983FM-12+038099999V0201801N000519999999N9999999N1+00591+00301102811ADDMA1999999098151MD1610141+9999OA149900211REMSYN088AAXX  16154 06626 33/// /1801 10059 20030 39815 40281 56014 333 553// 20641 91104 91203;
0140066260999992011011616004+47367+007983FM-12+038099999V0201901N000519999999N9999999N1+00421+00271102841ADDMA1999999098151MD1710081+9999OA149900211REMSYN088AAXX  16164 06626 33/// /1901 10042 20027 39815 40284 57008 333 55306 20198 91104 91203;
0140066260999992011011617004+47367+007983FM-12+038099999V0209999C000019999999N9999999N1+00251+00181102891ADDMA1999999098171MD1510011+9999OA149900151REMSYN088AAXX  16174 06626 33/// /0000 10025 20018 39817 40289 55001 333 55300 20022 91103 91202;
0159066260999992011011618004+47367+007983FM-12+038099999V0201801N000519999999N9999999N1+00101+00061102931ADDKA1120M+00591MA1999999098181MD1110031+9999OA149900311REMSYN094AAXX  16184 06626 33/// /1801 10010 20006 39818 40293 51003 333 10059 55300 20014 91106 91203;
0140066260999992011011619004+47367+007983FM-12+038099999V0209999C000019999999N9999999N1+00061+00001102971ADDMA1999999098211MD1310061+9999OA149900101REMSYN088AAXX  16194 06626 33/// /0000 10006 20000 39821 40297 53006 333 55300 20014 91102 91201;
0140066260999992011011620004+47367+007983FM-12+038099999V0202001N000519999999N9999999N1-00081-00111103011ADDMA1999999098221MD1110051+9999OA149900101REMSYN088AAXX  16204 06626 33/// /2001 11008 21011 39822 40301 51005 333 55300 20011 91102 91201;
0140066260999992011011621004+47367+007983FM-12+038099999V0209999C000019999999N9999999N1-00131-00161103061ADDMA1999999098261MD1310081+9999OA149900151REMSYN088AAXX  16214 06626 33/// /0000 11013 21016 39826 40306 53008 333 55300 20011 91103 91202;
0140066260999992011011622004+47367+007983FM-12+038099999V0202201N000519999999N9999999N1-00071-00101103051ADDMA1999999098261MD1210051+9999OA149900101REMSYN088AAXX  16224 06626 33/// /2201 11007 21010 39826 40305 52005 333 55300 20011 91102 91201;
0140066260999992011011623004+47367+007983FM-12+038099999V0209999C000019999999N9999999N1-00041-00041103051ADDMA1999999098271MD1210051+9999OA149900101REMSYN088AAXX  16234 06626 33/// /0000 11004 21004 39827 40305 52005 333 55300 20011 91102 91202;
0140066260999992011011700004+47367+007983FM-12+038099999V0209999C000019999999N9999999N1+00041+00041103041ADDMA1999999098271MD1210011+9999OA149900211REMSYN088AAXX  17004 06626 33/// /0000 10004 20004 39827 40304 52001 333 55300 20014 91104 91203;
0140066260999992011011701004+47367+007983FM-12+038099999V0202801N001019999999N9999999N1+00061+00051103021ADDMA1999999098261MD1010001+9999OA149900211REMSYN088AAXX  17014 06626 33/// /2802 10006 20005 39826 40302 50000 333 55300 20014 91104 91202;
0140066260999992011011702004+47367+007983FM-12+038099999V0202501N001019999999N9999999N1+00051+00041103011ADDMA1999999098251MD1719999+9999OA149900211REMSYN088AAXX  17024 06626 33/// /2502 10005 20004 39825 40301 57/// 333 55300 20014 91104 91202;
0103066260999992011011703004+47367+007983FM-12+038099999V0202801N000519999999N9999999N1-00031-00031103031ADDMA1999999098251REMSYN076AAXX  17034 06626 33/// /2801 11003 21003 39825 40303 5//// 333 553// 20014;
0140066260999992011011704004+47367+007983FM-12+038099999V0202701N001519999999N9999999N1-00051-00071103001ADDMA1999999098221MD1810041+9999OA149900261REMSYN088AAXX  17044 06626 33/// /2703 11005 21007 39822 40300 58004 333 55300 20014 91105 91203;
0140066260999992011011705004+47367+007983FM-12+038099999V0202601N001019999999N9999999N1-00101-00111102981ADDMA1999999098191MD1810061+9999OA149900261REMSYN088AAXX  17054 06626 33/// /2602 11010 21011 39819 40298 58006 333 55300 20011 91105 91203;
0207066260999992011011706004+47367+007983FM-12+038099999V0202401N001019999999N9999999N1-00131-00161102961ADDAL19900091GJ101749IA2999-00409KA1999N-00221MA1999999098171MD1610081+9999OA149900261REMSYN112AAXX  17064 06626 33/// /2402 11013 21016 39817 40296 56008 333 21022 3/104 55029 55300 20011 70000 91105 91203;
0140066260999992011011707004+47367+007983FM-12+038099999V0203001N001019999999N9999999N1-00141-00181102961ADDMA1999999098171MD1610051+9999OA149900211REMSYN088AAXX  17074 06626 33/// /3002 11014 21018 39817 40296 56005 333 55300 20011 91104 91203;
0087066260999992011011708004+47367+007983FM-12+038099999V0202701N001519999999N9999999N1-00141-00201102961ADDMA1999999098171REMSYN060AAXX  17084 06626 43/// /2703 11014 21020 39817 40296 5////;
0087066260999992011011709004+47367+007983FM-12+038099999V0202901N002619999999N9999999N1-00091-00161102951ADDMA1999999098171REMSYN060AAXX  17094 06626 43/// /2905 11009 21016 39817 40295 5////;
0140066260999992011011710004+47367+007983FM-12+038099999V0202701N003119999999N9999999N1+00021-00061102961ADDMA1999999098191MD1210021+9999OA149900461REMSYN088AAXX  17104 06626 33/// /2706 10002 21006 39819 40296 52002 333 55300 20356 91109 91206;
0140066260999992011011711004+47367+007983FM-12+038099999V0202901N002619999999N9999999N1+00201+00051102901ADDMA1999999098171MD1010001+9999OA149900461REMSYN088AAXX  17114 06626 33/// /2905 10020 20005 39817 40290 50000 333 55302 20832 91109 91206;
0140066260999992011011712004+47367+007983FM-12+038099999V0202901N003619999999N9999999N1+00441+00191102821ADDMA1999999098131MD1810041+9999OA149900511REMSYN088AAXX  17124 06626 33/// /2907 10044 20019 39813 40282 58004 333 553// 2//// 91110 91207;
0140066260999992011011713004+47367+007983FM-12+038099999V0202701N003619999999N9999999N1+00651+00311102751ADDMA1999999098101MD1710091+9999OA149900571REMSYN088AAXX  17134 06626 33/// /2707 10065 20031 39810 40275 57009 333 553// 2//// 91111 91207;
0087066260999992011011714004+47367+007983FM-12+038099999V0202601N003119999999N9999999N1+00761+00361102731ADDMA1999999098101REMSYN060AAXX  17144 06626 43/// /2606 10076 20036 39810 40273 5////;
0087066260999992011011715004+47367+007983FM-12+038099999V0202701N002619999999N9999999N1+00721+00301102771ADDMA1999999098131REMSYN060AAXX  17154 06626 43/// /2705 10072 20030 39813 40277 5////;
0140066260999992011011716004+47367+007983FM-12+038099999V0202901N002619999999N9999999N1+00561+00261102831ADDMA1999999098161MD1210061+9999OA149900461REMSYN088AAXX  17164 06626 33/// /2905 10056 20026 39816 40283 52006 333 55304 20169 91109 91206;
0140066260999992011011717004+47367+007983FM-12+038099999V0202601N000519999999N9999999N1+00431+00211102881ADDMA1999999098191MD1310091+9999OA149900311REMSYN088AAXX  17174 06626 33/// /2601 10043 20021 39819 40288 53009 333 55300 20018 91106 91205;
0159066260999992011011718004+47367+007983FM-12+038099999V0202301N000519999999N9999999N1+00211+00121102951ADDKA1120M+00771MA1999999098221MD1310091+9999OA149900571REMSYN094AAXX  17184 06626 33/// /2301 10021 20012 39822 40295 53009 333 10077 55300 20014 91111 91207;
0140066260999992011011719004+47367+007983FM-12+038099999V0202101N000519999999N9999999N1+00261+00131102951ADDMA1999999098231MD1210071+9999OA149900261REMSYN088AAXX  17194 06626 33/// /2101 10026 20013 39823 40295 52007 333 55300 20014 91105 91203;
0140066260999992011011720004+47367+007983FM-12+038099999V0209999C000019999999N9999999N1+00111+00061103001ADDMA1999999098251MD1210061+9999OA149900151REMSYN088AAXX  17204 06626 33/// /0000 10011 20006 39825 40300 52006 333 55300 20011 91103 91202;
0140066260999992011011721004+47367+007983FM-12+038099999V0202501N000519999999N9999999N1+00121+00071103001ADDMA1999999098251MD1210031+9999OA149900311REMSYN088AAXX  17214 06626 33/// /2501 10012 20007 39825 40300 52003 333 55300 20014 91106 91205;
0140066260999992011011722004+47367+007983FM-12+038099999V0209999C000019999999N9999999N1+00091+00041103021ADDMA1999999098261MD1210031+9999OA149900151REMSYN088AAXX  17224 06626 33/// /0000 10009 20004 39826 40302 52003 333 55300 20014 91103 91202;
0140066260999992011011723004+47367+007983FM-12+038099999V0202401N001019999999N9999999N1+00131+00071103011ADDMA1999999098261MD1210011+9999OA149900151REMSYN088AAXX  17234 06626 33/// /2402 10013 20007 39826 40301 52001 333 55300 20011 91103 91202;
0140066260999992011011800004+47367+007983FM-12+038099999V0202701N001519999999N9999999N1+00121+00051103011ADDMA1999999098261MD1010011+9999OA149900571REMSYN088AAXX  18004 06626 33/// /2703 10012 20005 39826 40301 50001 333 55300 20014 91111 91207;
0140066260999992011011801004+47367+007983FM-12+038099999V0202401N000519999999N9999999N1+00091+00051103021ADDMA1999999098261MD1019999+9999OA149900261REMSYN088AAXX  18014 06626 33/// /2401 10009 20005 39826 40302 50/// 333 55300 20014 91105 91203;
0087066260999992011011802004+47367+007983FM-12+038099999V0202601N000519999999N9999999N1+00081+00031103031ADDMA1999999098271REMSYN060AAXX  18024 06626 43/// /2601 10008 20003 39827 40303 5////;
0087066260999992011011803004+47367+007983FM-12+038099999V0202801N001519999999N9999999N1+00081+00031103011ADDMA1999999098251REMSYN060AAXX  18034 06626 43/// /2803 10008 20003 39825 40301 5////;
0103066260999992011011804004+47367+007983FM-12+038099999V0202501N001019999999N9999999N1+00011+00001102981ADDMA1999999098211REMSYN076AAXX  18044 06626 33/// /2502 10001 20000 39821 40298 5//// 333 553// 20014;
0140066260999992011011805004+47367+007983FM-12+038099999V0202501N001019999999N9999999N1+00001-00021102951ADDMA1999999098181MD1610091+9999OA149900211REMSYN088AAXX  18054 06626 33/// /2502 10000 21002 39818 40295 56009 333 55300 20014 91104 91203;
0207066260999992011011806004+47367+007983FM-12+038099999V0202701N002119999999N9999999N1+00001-00071102981ADDAL19900091GJ102769IA2999-00209KA1999N-00021MA1999999098211MD1510041+9999OA149900311REMSYN112AAXX  18064 06626 33/// /2704 10000 21007 39821 40298 55004 333 21002 3/102 55046 55300 20014 70000 91106 91204;
0140066260999992011011807004+47367+007983FM-12+038099999V0202801N001519999999N9999999N1+00001-00081102981ADDMA1999999098211MD1510001+9999OA149900311REMSYN088AAXX  18074 06626 33/// /2803 10000 21008 39821 40298 55000 333 55300 20014 91106 91204;
0087066260999992011011808004+47367+007983FM-12+038099999V0202301N000519999999N9999999N1+00051-00051103011ADDMA1999999098251REMSYN060AAXX  18084 06626 43/// /2301 10005 21005 39825 40301 5////;
0087066260999992011011809004+47367+007983FM-12+038099999V0202401N000519999999N9999999N1+00061-00051102981ADDMA1999999098221REMSYN060AAXX  18094 06626 43/// /2401 10006 21005 39822 40298 5////;
0140066260999992011011810004+47367+007983FM-12+038099999V0202601N001019999999N9999999N1+00131+00001102961ADDMA1999999098211MD1010001+9999OA149900361REMSYN088AAXX  18104 06626 33/// /2602 10013 20000 39821 40296 50000 333 55300 20270 91107 91204;
0140066260999992011011811004+47367+007983FM-12+038099999V0202801N001019999999N9999999N1+00241+00041102861ADDMA1999999098141MD1710111+9999OA149900261REMSYN088AAXX  18114 06626 33/// /2802 10024 20004 39814 40286 57011 333 55300 20493 91105 91203;
0140066260999992011011812004+47367+007983FM-12+038099999V0202701N001019999999N9999999N1+00301+00111102801ADDMA1999999098091MD1719999+9999OA149900361REMSYN088AAXX  18124 06626 33/// /2702 10030 20011 39809 40280 57/// 333 55300 20356 91107 91204;
0103066260999992011011813004+47367+007983FM-12+038099999V0202901N001519999999N9999999N1+00371+00151102721ADDMA1999999098031REMSYN076AAXX  18134 06626 33/// /2903 10037 20015 39803 40272 5//// 333 553// 20526;
0087066260999992011011814004+47367+007983FM-12+038099999V0202901N000519999999N9999999N1+00451+00211102681ADDMA1999999098001REMSYN060AAXX  18144 06626 43/// /2901 10045 20021 39800 40268 5////;
0087066260999992011011815004+47367+007983FM-12+038099999V0202801N001519999999N9999999N1+00471+00221102691ADDMA1999999098011REMSYN060AAXX  18154 06626 43/// /2803 10047 20022 39801 40269 5////;
0140066260999992011011816004+47367+007983FM-12+038099999V0201601N000519999999N9999999N1+00411+00231102741ADDMA1999999098051MD1310021+9999OA149900361REMSYN088AAXX  18164 06626 33/// /1601 10041 20023 39805 40274 53002 333 55300 20166 91107 91206;
0140066260999992011011817004+47367+007983FM-12+038099999V0202701N000519999999N9999999N1+00331+00211102781ADDMA1999999098081MD1310081+9999OA149900361REMSYN088AAXX  18174 06626 33/// /2701 10033 20021 39808 40278 53008 333 55300 20022 91107 91206;
0159066260999992011011818004+47367+007983FM-12+038099999V0201501N001019999999N9999999N1+00331+00211102811ADDKA1120M+00471MA1999999098101MD1110091+9999OA149900361REMSYN094AAXX  18184 06626 33/// /1502 10033 20021 39810 40281 51009 333 10047 55300 20014 91107 91206;
0140066260999992011011819004+47367+007983FM-12+038099999V0209999C000019999999N9999999N1+00301+00211102811ADDMA1999999098101MD1210051+9999OA149900211REMSYN088AAXX  18194 06626 33/// /0000 10030 20021 39810 40281 52005 333 55300 20014 91104 91202;
0140066260999992011011820004+47367+007983FM-12+038099999V0202901N001019999999N9999999N1+00311+00211102811ADDMA1999999098101MD1210021+9999OA149900151REMSYN088AAXX  18204 06626 33/// /2902 10031 20021 39810 40281 52002 333 55300 20014 91103 91202;
0140066260999992011011821004+47367+007983FM-12+038099999V0201901N000519999999N9999999N1+00301+00201102821ADDMA1999999098111MD1310011+9999OA149900361REMSYN088AAXX  18214 06626 33/// /1901 10030 20020 39811 40282 53001 333 55300 20014 91107 91206;
0140066260999992011011822004+47367+007983FM-12+038099999V0202301N000519999999N9999999N1+00211+00151102841ADDMA1999999098111MD1210011+9999OA149900151REMSYN088AAXX  18224 06626 33/// /2301 10021 20015 39811 40284 52001 333 55300 20014 91103 91202;
0140066260999992011011823004+47367+007983FM-12+038099999V0203201N000519999999N9999999N1+00271+00171102861ADDMA1999999098141MD1210041+9999OA149900151REMSYN088AAXX  18234 06626 33/// /3201 10027 20017 39814 40286 52004 333 55300 20014 91103 91202;
0140066260999992011011900004+47367+007983FM-12+038099999V0201101N000519999999N9999999N1+00241+00161102851ADDMA1999999098131MD1210021+9999OA149900361REMSYN088AAXX  19004 06626 33/// /1101 10024 20016 39813 40285 52002 333 55300 20014 91107 91206;
0140066260999992011011901004+47367+007983FM-12+038099999V0201901N001019999999N9999999N1+00161+00111102881ADDMA1999999098141MD1210031+9999OA149900211REMSYN088AAXX  19014 06626 33/// /1902 10016 20011 39814 40288 52003 333 55300 20014 91104 91202;
0087066260999992011011902004+47367+007983FM-12+038099999V0209999C000019999999N9999999N1+00161+00121102891ADDMA1999999098151REMSYN060AAXX  19024 06626 43/// /0000 10016 20012 39815 40289 5////;
0087066260999992011011903004+47367+007983FM-12+038099999V0202201N000519999999N9999999N1+00091+00041102871ADDMA1999999098121REMSYN060AAXX  19034 06626 43/// /2201 10009 20004 39812 40287 5////;
0140066260999992011011904004+47367+007983FM-12+038099999V0201001N000519999999N9999999N1+00101+00041102851ADDMA1999999098101MD1710041+9999OA149900151REMSYN088AAXX  19044 06626 33/// /1001 10010 20004 39810 40285 57004 333 55300 20014 91103 91202;
0140066260999992011011905004+47367+007983FM-12+038099999V0201701N001019999999N9999999N1+00101+00021102851ADDMA1999999098101MD1719999+9999OA149900151REMSYN088AAXX  19054 06626 33/// /1702 10010 20002 39810 40285 57/// 333 55300 20014 91103 91202;
0249066260999992011011906004+47367+007983FM-12+038099999V0202701N004119999999N9999999N1+00351+00141102831ADDAA112000091AL19900091GJ100009IA2999-00109KA1999N-00021MA1999999098131MD1310011+9999OA149900621REMSYN124AAXX  19064 06626 03/// /2708 10035 20014 39813 40283 53001 69912 333 21002 3/101 55000 55300 20014 69915 70000 91112 91208;EQDQ01  00002PRCP12
0146066260999992011011907004+47367+007983FM-12+038099999V0203101N001019999999N9999999N1+00301+00121102881ADDMA1999999098171MD1210071+9999OA149900621REMSYN094AAXX  19074 06626 23/// /3102 10030 20012 39817 40288 52007 333 55300 20014 69935 91112 91208;
0087066260999992011011908004+47367+007983FM-12+038099999V0203401N002119999999N9999999N1+00321+00071102921ADDMA1999999098211REMSYN060AAXX  19084 06626 43/// /3404 10032 20007 39821 40292 5////;
0087066260999992011011909004+47367+007983FM-12+038099999V0203301N002119999999N9999999N1+00331+00071102961ADDMA1999999098251REMSYN060AAXX  19094 06626 43/// /3304 10033 20007 39825 40296 5////;
0140066260999992011011910004+47367+007983FM-12+038099999V0203301N003619999999N9999999N1+00371+00061102991ADDMA1999999098281MD1310111+9999OA149900671REMSYN088AAXX  19104 06626 33/// /3307 10037 20006 39828 40299 53011 333 55300 20238 91113 91207;
0140066260999992011011911004+47367+007983FM-12+038099999V0203301N003619999999N9999999N1+00401-00011102951ADDMA1999999098251MD1010041+9999OA149900671REMSYN088AAXX  19114 06626 33/// /3307 10040 21001 39825 40295 50004 333 55300 20493 91113 91207;
0163066260999992011011912004+47367+007983FM-12+038099999V0203101N003119999999N9999999N1+00391-00011102941ADDAA106001091MA1999999098241MD1810011+9999OA149900671REMSYN100AAXX  19124 06626 03/// /3106 10039 21001 39824 40294 58001 60011 333 55300 20396 60005 91113 91208;
0140066260999992011011913004+47367+007983FM-12+038099999V0202801N002619999999N9999999N1+00401-00201102911ADDMA1999999098211MD1710071+9999OA149900621REMSYN088AAXX  19134 06626 33/// /2805 10040 21020 39821 40291 57007 333 55301 20385 91112 91206;
