0137066250999992011101113004+46767+007117FM-12+063499999V0202701N001519999999N9999999N1+01851+01481999999ADDMA1999999094831MD1819999+9999ME1315779OA149900311REMSYN076AAXX  11134 06625 33/// /2703 10185 20148 39483 48577 58/// 333 91106 91203;
0096066250999992011101114004+46767+007117FM-12+063499999V0202801N001519999999N9999999N1+01911+01511999999ADDMA1999999094771ME1315739REMSYN060AAXX  11144 06625 33/// /2803 10191 20151 39477 48573 5////;
0137066250999992011101115004+46767+007117FM-12+063499999V0202801N001519999999N9999999N1+01911+01571999999ADDMA1999999094751MD1719999+9999ME1315729OA149900311REMSYN076AAXX  11154 06625 33/// /2803 10191 20157 39475 48572 57/// 333 91106 91204;
0137066250999992011101116004+46767+007117FM-12+063499999V0202701N001019999999N9999999N1+01871+01471999999ADDMA1999999094731MD1719999+9999ME1315689OA149900261REMSYN076AAXX  11164 06625 33/// /2702 10187 20147 39473 48568 57/// 333 91105 91203;
0137066250999992011101117004+46767+007117FM-12+063499999V0202201N001019999999N9999999N1+01681+01261999999ADDMA1999999094741MD1719999+9999ME1315639OA149900211REMSYN076AAXX  11174 06625 33/// /2202 10168 20126 39474 48563 57/// 333 91104 91202;
0229066250999992011101118004+46767+007117FM-12+063499999V0202501N001512200019N0150001N1+01511+01131999999ADDAL10600091AY141061AY201061GA1011+090001001GF101991999999999999999999IA1099KA1120M+01951MA1999999094791ME1315629MW1021REMSYN100AAXX  11184 06625 31965 12503 10151 20113 39479 48562 5//// 70240 333 10195 31/// 81080 90766 93100;
0110066250999992011101119004+46767+007117FM-12+063499999V0202101N001519999999N9999999N1+01351+01051999999ADDMA1999999094841MD1319999+9999ME1315619REMSYN060AAXX  11194 06625 33/// /2103 10135 20105 39484 48561 53///;
0096066250999992011101120004+46767+007117FM-12+063499999V0202001N005119999999N9999999N1+01401+00921999999ADDMA1999999094821ME1315619REMSYN060AAXX  11204 06625 33/// /2010 10140 20092 39482 48561 5////;
0096066250999992011101121004+46767+007117FM-12+063499999V0202301N002119999999N9999999N1+01261+00851999999ADDMA1999999094861ME1315599REMSYN060AAXX  11214 06625 33/// /2304 10126 20085 39486 48559 5////;
0137066250999992011101122004+46767+007117FM-12+063499999V0202201N002119999999N9999999N1+01211+00791999999ADDMA1999999094871MD1219999+9999ME1315599OA149900411REMSYN076AAXX  11224 06625 33/// /2204 10121 20079 39487 48559 52/// 333 91108 91206;
0137066250999992011101123004+46767+007117FM-12+063499999V0202401N001519999999N9999999N1+01151+00761999999ADDMA1999999094881MD1219999+9999ME1315589OA149900261REMSYN076AAXX  11234 06625 33/// /2403 10115 20076 39488 48558 52/// 333 91105 91203;
0137066250999992011101200004+46767+007117FM-12+063499999V0201901N002119999999N9999999N1+01081+00751999999ADDMA1999999094851MD1810011+9999ME1315539OA149900721REMSYN076AAXX  12004 06625 33/// /1904 10108 20075 39485 48553 58001 333 91114 91210;
0137066250999992011101201004+46767+007117FM-12+063499999V0200201N001519999999N9999999N1+00801+00801999999ADDMA1999999094831MD1719999+9999ME1315429OA149900151REMSYN076AAXX  12014 06625 33/// /0203 10080 20080 39483 48542 57/// 333 91103 91203;
0102066250999992011101202004+46767+007117FM-12+063499999V0209999C000019999999N9999999N1+00821+00741999999ADDMA1999999094821ME1315419REMSYN066AAXX  12024 06625 33/// /0000 10082 20074 39482 48541 5//// 90140;
0137066250999992011101203004+46767+007117FM-12+063499999V0209999C000019999999N9999999N1+00651+00651999999ADDMA1999999094781MD1719999+9999ME1315329OA149900151REMSYN076AAXX  12034 06625 33/// /0000 10065 20065 39478 48532 57/// 333 91103 91203;
0137066250999992011101204004+46767+007117FM-12+063499999V0209999C000019999999N9999999N1+00611+00611999999ADDMA1999999094791MD1519999+9999ME1315329OA149900101REMSYN076AAXX  12044 06625 33/// /0000 10061 20061 39479 48532 55/// 333 91102 91201;
0218066250999992011101206004+46767+007117FM-12+063499999V0209999C000012200019N0200001N1+00561+00561999999ADDAA124000091AL19900091GA1021+003601071GF102991999999004501999999IA1099MA1999999094771ME1315299REMSYN094AAXX  12064 06625 42470 20000 10056 20056 39477 48529 5//// 333 31/// 70000 82712 90768 93100;EQDQ01  00002PRCP24
0137066250999992011101207004+46767+007117FM-12+063499999V0209999C000019999999N9999999N1+00671+00651999999ADDMA1999999094811MD1319999+9999ME1315369OA149900151REMSYN076AAXX  12074 06625 33/// /0000 10067 20065 39481 48536 53/// 333 91103 91203;
0096066250999992011101208004+46767+007117FM-12+063499999V0200601N000519999999N9999999N1+00771+00771999999ADDMA1999999094901ME1315479REMSYN060AAXX  12084 06625 33/// /0601 10077 20077 39490 48547 5////;
0137066250999992011101209004+46767+007117FM-12+063499999V0200801N000519999999N9999999N1+00951+00951999999ADDMA1999999094901MD1219999+9999ME1315539OA149900151REMSYN076AAXX  12094 06625 33/// /0801 10095 20095 39490 48553 52/// 333 91103 91203;
0137066250999992011101210004+46767+007117FM-12+063499999V0203001N001019999999N9999999N1+01111+01041999999ADDMA1999999094841MD1019999+9999ME1315539OA149900211REMSYN076AAXX  12104 06625 33/// /3002 10111 20104 39484 48553 50/// 333 91104 91202;
0137066250999992011101211004+46767+007117FM-12+063499999V0200101N001019999999N9999999N1+01481+01191999999ADDMA1999999094771MD1719999+9999ME1315599OA149900151REMSYN076AAXX  12114 06625 33/// /0102 10148 20119 39477 48559 57/// 333 91103 91202;
0096066250999992011101212004+46767+007117FM-12+063499999V0202801N001019999999N9999999N1+01711+01231999999ADDMA1999999094691ME1315609REMSYN060AAXX  12124 06625 33/// /2802 10171 20123 39469 48560 5////;
0096066250999992011101213004+46767+007117FM-12+063499999V0202901N002119999999N9999999N1+01831+01201999999ADDMA1999999094641ME1315599REMSYN060AAXX  12134 06625 33/// /2904 10183 20120 39464 48559 5////;
0096066250999992011101214004+46767+007117FM-12+063499999V0203101N002619999999N9999999N1+01781+01211999999ADDMA1999999094631ME1315579REMSYN060AAXX  12144 06625 33/// /3105 10178 20121 39463 48557 5////;
0137066250999992011101215004+46767+007117FM-12+063499999V0203101N001019999999N9999999N1+01761+01171999999ADDMA1999999094621MD1710071+9999ME1315559OA149900461REMSYN076AAXX  12154 06625 33/// /3102 10176 20117 39462 48555 57007 333 91109 91205;
0137066250999992011101216004+46767+007117FM-12+063499999V0203401N003119999999N9999999N1+01521+01051999999ADDMA1999999094641MD1319999+9999ME1315499OA149900571REMSYN076AAXX  12164 06625 33/// /3406 10152 20105 39464 48549 53/// 333 91111 91206;
0137066250999992011101217004+46767+007117FM-12+063499999V0203601N000519999999N9999999N1+01261+00891999999ADDMA1999999094651MD1310021+9999ME1315419OA149900571REMSYN076AAXX  12174 06625 33/// /3601 10126 20089 39465 48541 53002 333 91111 91206;
0238066250999992011101218004+46767+007117FM-12+063499999V0209999C000012200019N0200001N1+01131+00901999999ADDAL19900091GA1041+090001001GF104991999999999999999999IA1019KA1120M+01851MA1999999094711MD1219999+9999ME1315429OA149900571REMSYN106AAXX  12184 06625 32970 40000 10113 20090 39471 48542 52/// 333 10185 30/// 84080 90766 93100 91111 91206;
0096066250999992011101219004+46767+007117FM-12+063499999V0202601N001019999999N9999999N1+01141+00861999999ADDMA1999999094751ME1315469REMSYN060AAXX  12194 06625 33/// /2602 10114 20086 39475 48546 5////;
0096066250999992011101220004+46767+007117FM-12+063499999V0200301N001019999999N9999999N1+01181+00831999999ADDMA1999999094811ME1315529REMSYN060AAXX  12204 06625 33/// /0302 10118 20083 39481 48552 5////;
0096066250999992011101221004+46767+007117FM-12+063499999V0209999C000019999999N9999999N1+01151+00891999999ADDMA1999999094821ME1315529REMSYN060AAXX  12214 06625 33/// /0000 10115 20089 39482 48552 5////;
0137066250999992011101222004+46767+007117FM-12+063499999V0202301N000519999999N9999999N1+01121+00941999999ADDMA1999999094861MD1210111+9999ME1315559OA149900151REMSYN076AAXX  12224 06625 33/// /2301 10112 20094 39486 48555 52011 333 91103 91201;
0137066250999992011101223004+46767+007117FM-12+063499999V0202901N000519999999N9999999N1+01161+00901999999ADDMA1999999094841MD1019999+9999ME1315549OA149900151REMSYN076AAXX  12234 06625 33/// /2901 10116 20090 39484 48554 50/// 333 91103 91202;
0137066250999992011101300004+46767+007117FM-12+063499999V0209999C001519999999N9999999N1+01151+00891999999ADDMA1999999094841MD1210021+9999ME1315549OA149900411REMSYN076AAXX  13004 06625 33/// /0003 10115 20089 39484 48554 52002 333 91108 91203;
0137066250999992011101301004+46767+007117FM-12+063499999V0200501N000519999999N9999999N1+01111+00921999999ADDMA1999999094821MD1719999+9999ME1315519OA149900151REMSYN076AAXX  13014 06625 33/// /0501 10111 20092 39482 48551 57/// 333 91103 91202;
0096066250999992011101302004+46767+007117FM-12+063499999V0202401N000519999999N9999999N1+01101+00951999999ADDMA1999999094801ME1315499REMSYN060AAXX  13024 06625 33/// /2401 10110 20095 39480 48549 5////;
0137066250999992011101303004+46767+007117FM-12+063499999V0202201N000519999999N9999999N1+01081+00931999999ADDMA1999999094801MD1710041+9999ME1315489OA149900151REMSYN076AAXX  13034 06625 33/// /2201 10108 20093 39480 48548 57004 333 91103 91202;
0137066250999992011101304004+46767+007117FM-12+063499999V0209999C000019999999N9999999N1+01061+00941999999ADDMA1999999094831MD1310011+9999ME1315509OA149900101REMSYN076AAXX  13044 06625 33/// /0000 10106 20094 39483 48550 53001 333 91102 91201;
0137066250999992011101305004+46767+007117FM-12+063499999V0209999C000019999999N9999999N1+01041+00971999999ADDMA1999999094831MD1310031+9999ME1315509OA149900101REMSYN076AAXX  13054 06625 33/// /0000 10104 20097 39483 48550 53003 333 91102 91201;
0286066250999992011101306004+46767+007117FM-12+063499999V0200201N000510036019N0150001N1+00951+00911999999ADDAA124000091AL19900091GA1061+003601071GF106991999999004501999999IA1099IA2999+00609KA1999N+00961MA1999999094821MD1010021+9999ME1315469OA149900151REMSYN112AAXX  13064 06625 32465 60201 10095 20091 39482 48546 50002 333 20096 31006 70000 86712 90768 93100 91103 91202;EQDQ01  00002PRCP24
0137066250999992011101307004+46767+007117FM-12+063499999V0200501N000519999999N9999999N1+01011+00951999999ADDMA1999999094861MD1319999+9999ME1315519OA149900101REMSYN076AAXX  13074 06625 33/// /0501 10101 20095 39486 48551 53/// 333 91102 91201;
0096066250999992011101308004+46767+007117FM-12+063499999V0200501N002619999999N9999999N1+01211+00921999999ADDMA1999999094911ME1315629REMSYN060AAXX  13084 06625 33/// /0505 10121 20092 39491 48562 5////;
0137066250999992011101309004+46767+007117FM-12+063499999V0200401N003619999999N9999999N1+01341+00891999999ADDMA1999999094921MD1119999+9999ME1315679OA149900571REMSYN076AAXX  13094 06625 33/// /0407 10134 20089 39492 48567 51/// 333 91111 91207;
0164066250999992011101310004+46767+007117FM-12+063499999V02099999999999999999N9999999N1+99999+99999999999ADDAA101999999MA1999999094911MD1019999+9999OA149999999REMSYN082AAXX  13104 06625 23/// ///09 1//// 2//// 39491 4//// 50/// 333 6///5 91117 91209;EQDQ01  00882WGOSPD
0173066250999992011101311004+46767+007117FM-12+063499999V0200401N006719999999N9999999N1+01521+00841999999ADDAA101999999MA1999999094911MD1410001+9999ME1315739OA149900981REMSYN082AAXX  13114 06625 23/// /0413 10152 20084 39491 48573 57000 333 6///5 91119 91213;EQDQ01+000072APCTEN
0160066250999992011101312004+46767+007117FM-12+063499999V0200401N005712200019N0200001N1+01581+00891999999ADDGA1041+005701061GF104991999999004501999999MA1999999094881ME1315729REMSYN082AAXX  13124 06625 02470 40411 10158 20089 39488 48572 5//// 6///1 333 6///5 84619;
0117066250999992011101313004+46767+007117FM-12+063499999V0200301N006719999999N9999999N1+01561+00901999999ADDAA101999999MA1999999094861ME1315709REMSYN070AAXX  13134 06625 23/// /0313 10156 20090 39486 48570 5//// 333 6///5;
0096066250999992011101314004+46767+007117FM-12+063499999V0200401N006219999999N9999999N1+01551+00921999999ADDMA1999999094841ME1315679REMSYN060AAXX  13144 06625 33/// /0412 10155 20092 39484 48567 5////;
0137066250999992011101315004+46767+007117FM-12+063499999V0200301N005719999999N9999999N1+01511+00901999999ADDMA1999999094841MD1719999+9999ME1315669OA149901131REMSYN076AAXX  13154 06625 33/// /0311 10151 20090 39484 48566 57/// 333 91122 91216;
0137066250999992011101316004+46767+007117FM-12+063499999V0200301N005719999999N9999999N1+01441+00901999999ADDMA1999999094831MD1719999+9999ME1315639OA149900981REMSYN076AAXX  13164 06625 33/// /0311 10144 20090 39483 48563 57/// 333 91119 91213;
0137066250999992011101317004+46767+007117FM-12+063499999V0200401N005119999999N9999999N1+01321+00951999999ADDMA1999999094881MD1219999+9999ME1315639OA149900931REMSYN076AAXX  13174 06625 33/// /0410 10132 20095 39488 48563 52/// 333 91118 91212;
0224066250999992011101318004+46767+007117FM-12+063499999V0200301N004612200019N0150001N1+01201+00981999999ADDAA112999999AL10600091GA1041+005701061GF104991999999004501999999IA1019KA1120M+01591MA1999999094921ME1315639REMSYN106AAXX  13184 06625 02465 40309 10120 20098 39492 48563 5//// 6///2 333 10159 30/// 60005 84619 90766 93100;
0096066250999992011101319004+46767+007117FM-12+063499999V0200301N004119999999N9999999N1+01141+00961999999ADDMA1999999094941ME1315629REMSYN060AAXX  13194 06625 33/// /0308 10114 20096 39494 48562 5////;
0096066250999992011101320004+46767+007117FM-12+063499999V0200301N003119999999N9999999N1+01081+00941999999ADDMA1999999094941ME1315609REMSYN060AAXX  13204 06625 33/// /0306 10108 20094 39494 48560 5////;
0137066250999992011101321004+46767+007117FM-12+063499999V0200301N005119999999N9999999N1+01081+00991999999ADDMA1999999094981MD1210061+9999ME1315649OA149900881REMSYN076AAXX  13214 06625 33/// /0310 10108 20099 39498 48564 52006 333 91117 91210;
0137066250999992011101322004+46767+007117FM-12+063499999V0200301N005119999999N9999999N1+01091+00981999999ADDMA1999999094961MD1219999+9999ME1315629OA149900881REMSYN076AAXX  13224 06625 33/// /0310 10109 20098 39496 48562 52/// 333 91117 91211;
0137066250999992011101323004+46767+007117FM-12+063499999V0200301N005119999999N9999999N1+01051+00951999999ADDMA1999999094951MD1019999+9999ME1315609OA149900821REMSYN076AAXX  13234 06625 33/// /0310 10105 20095 39495 48560 50/// 333 91116 91211;
0137066250999992011101400004+46767+007117FM-12+063499999V0200301N005719999999N9999999N1+00991+00881999999ADDMA1999999094951MD1710031+9999ME1315589OA149900981REMSYN076AAXX  14004 06625 33/// /0311 10099 20088 39495 48558 57003 333 91119 91213;
0096066250999992011101401004+46767+007117FM-12+063499999V0200401N003119999999N9999999N1+00901+00771999999ADDMA1999999094911ME1315529REMSYN060AAXX  14014 06625 33/// /0406 10090 20077 39491 48552 5////;
0096066250999992011101402004+46767+007117FM-12+063499999V0200201N004119999999N9999999N1+00861+00751999999ADDMA1999999094901ME1315509REMSYN060AAXX  14024 06625 33/// /0208 10086 20075 39490 48550 5////;
0137066250999992011101403004+46767+007117FM-12+063499999V0200301N004119999999N9999999N1+00831+00671999999ADDMA1999999094891MD1710061+9999ME1315489OA149900771REMSYN076AAXX  14034 06625 33/// /0308 10083 20067 39489 48548 57006 333 91115 91210;
0137066250999992011101404004+46767+007117FM-12+063499999V0200401N003619999999N9999999N1+00801+00671999999ADDMA1999999094901MD1519999+9999ME1315489OA149900621REMSYN076AAXX  14044 06625 33/// /0407 10080 20067 39490 48548 55/// 333 91112 91208;
0137066250999992011101405004+46767+007117FM-12+063499999V0200401N003619999999N9999999N1+00771+00651999999ADDMA1999999094921MD1210021+9999ME1315489OA149900721REMSYN076AAXX  14054 06625 33/// /0407 10077 20065 39492 48548 52002 333 91114 91209;
0314066250999992011101406004+46767+007117FM-12+063499999V0200301N005110036019N0100001N1+00751+00631999999ADDAA124000091AL19900091AY121061AY221061GA1081+003601071GF108991999999004501999999IA1099IA2999+00709KA1999N+00761MA1999999094941MD1210051+9999ME1315499MW1101OA149900771REMSYN118AAXX  14064 06625 31460 80310 10075 20063 39494 48549 52005 71022 333 20076 31007 70000 88712 90768 93100 91115 91210;EQDQ01  00002PRCP24
0137066250999992011101407004+46767+007117FM-12+063499999V0200301N003119999999N9999999N1+00751+00631999999ADDMA1999999094981MD1319999+9999ME1315539OA149900621REMSYN076AAXX  14074 06625 33/// /0306 10075 20063 39498 48553 53/// 333 91112 91208;
0096066250999992011101408004+46767+007117FM-12+063499999V0200201N004119999999N9999999N1+00791+00651999999ADDMA1999999094991ME1315559REMSYN060AAXX  14084 06625 33/// /0208 10079 20065 39499 48555 5////;
0137066250999992011101409004+46767+007117FM-12+063499999V0200301N002619999999N9999999N1+00891+00661999999ADDMA1999999094991MD1219999+9999ME1315589OA149900621REMSYN076AAXX  14094 06625 33/// /0305 10089 20066 39499 48558 52/// 333 91112 91208;
0137066250999992011101410004+46767+007117FM-12+063499999V0200301N003619999999N9999999N1+01021+00691999999ADDMA1999999094961MD1819999+9999ME1315609OA149900671REMSYN076AAXX  14104 06625 33/// /0307 10102 20069 39496 48560 58/// 333 91113 91207;
0137066250999992011101411004+46767+007117FM-12+063499999V0200301N005119999999N9999999N1+01171+00731999999ADDMA1999999094951MD1719999+9999ME1315649OA149900821REMSYN076AAXX  14114 06625 33/// /0310 10117 20073 39495 48564 57/// 333 91116 91210;
0185066250999992011101412004+46767+007117FM-12+063499999V0200401N005712200019N0200001N1+01211+00691999999ADDGA1041+003601061GF104991999999004501999999MA1999999094921MD1819999+9999ME1315639OA149901131REMSYN082AAXX  14124 06625 32470 40411 10121 20069 39492 48563 58/// 333 84612 91122 91214;
0096066250999992011101413004+46767+007117FM-12+063499999V0200201N006719999999N9999999N1+01151+00621999999ADDMA1999999094881ME1315589REMSYN060AAXX  14134 06625 33/// /0213 10115 20062 39488 48558 5////;
0096066250999992011101414004+46767+007117FM-12+063499999V0200501N007219999999N9999999N1+01111+00581999999ADDMA1999999094871ME1315559REMSYN060AAXX  14144 06625 33/// /0514 10111 20058 39487 48555 5////;
0137066250999992011101415004+46767+007117FM-12+063499999V0200401N007719999999N9999999N1+01141+00551999999ADDMA1999999094841MD1710081+9999ME1315549OA149901241REMSYN076AAXX  14154 06625 33/// /0415 10114 20055 39484 48554 57008 333 91124 91216;
0096066250999992011101416004+46767+007117FM-12+063499999V0200401N008719999999N9999999N1+01061+00501999999ADDMA1999999094861ME1315539REMSYN060AAXX  14164 06625 43/// /0417 10106 20050 39486 48553 5////;
0137066250999992011101417004+46767+007117FM-12+063499999V0200401N005719999999N9999999N1+00971+00481999999ADDMA1999999094871MD1319999+9999ME1315519OA149901131REMSYN076AAXX  14174 06625 33/// /0411 10097 20048 39487 48551 53/// 333 91122 91215;
0238066250999992011101418004+46767+007117FM-12+063499999V0200301N004112200019N0150001N1+00891+00471999999ADDAL19900091GA1011+090001001GF101991999999999999999999IA1019KA1120M+01211MA1999999094901MD1119999+9999ME1315519OA149901391REMSYN106AAXX  14184 06625 32965 10308 10089 20047 39490 48551 51/// 333 10121 30/// 81080 90766 93100 91127 91218;
0096066250999992011101419004+46767+007117FM-12+063499999V0200301N002619999999N9999999N1+00801+00451999999ADDMA1999999094911ME1315489REMSYN060AAXX  14194 06625 33/// /0305 10080 20045 39491 48548 5////;
0137066250999992011101420004+46767+007117FM-12+063499999V0200201N003119999999N9999999N1+00711+00421999999ADDMA1999999094921MD1219999+9999ME1315469OA149900511REMSYN076AAXX  14204 06625 33/// /0206 10071 20042 39492 48546 52/// 333 91110 91207;
0137066250999992011101421004+46767+007117FM-12+063499999V0200101N003619999999N9999999N1+00661+00371999999ADDMA1999999094961MD1219999+9999ME1315489OA149900621REMSYN076AAXX  14214 06625 33/// /0107 10066 20037 39496 48548 52/// 333 91112 91207;
0096066250999992011101422004+46767+007117FM-12+063499999V0200501N001519999999N9999999N1+00581+00351999999ADDMA1999999094981ME1315479REMSYN060AAXX  14224 06625 33/// /0503 10058 20035 39498 48547 5////;
0137066250999992011101423004+46767+007117FM-12+063499999V0202601N001019999999N9999999N1+00451+00311999999ADDMA1999999094981MD1219999+9999ME1315439OA149900151REMSYN076AAXX  14234 06625 33/// /2602 10045 20031 39498 48543 52/// 333 91103 91202;
0096066250999992011101500004+46767+007117FM-12+063499999V0202001N000519999999N9999999N1+00401+00321999999ADDMA1999999094981ME1315419REMSYN060AAXX  15004 06625 33/// /2001 10040 20032 39498 48541 5////;
0096066250999992011101501004+46767+007117FM-12+063499999V0203401N000519999999N9999999N1+00441+00361999999ADDMA1999999094981ME1315429REMSYN060AAXX  15014 06625 33/// /3401 10044 20036 39498 48542 5////;
0096066250999992011101502004+46767+007117FM-12+063499999V0203101N000519999999N9999999N1+00361+00241999999ADDMA1999999094971ME1315399REMSYN060AAXX  15024 06625 33/// /3101 10036 20024 39497 48539 5////;
0096066250999992011101503004+46767+007117FM-12+063499999V0209999C000019999999N9999999N1+00431+00331999999ADDMA1999999094941ME1315399REMSYN060AAXX  15034 06625 33/// /0000 10043 20033 39494 48539 5////;
0137066250999992011101504004+46767+007117FM-12+063499999V0209999C000019999999N9999999N1+00471+00311999999ADDMA1999999094951MD1519999+9999ME1315419OA149900101REMSYN076AAXX  15044 06625 33/// /0000 10047 20031 39495 48541 55/// 333 91102 91201;
0137066250999992011101505004+46767+007117FM-12+063499999V0209999C000019999999N9999999N1+00491+00341999999ADDMA1999999094951MD1719999+9999ME1315419OA149900051REMSYN076AAXX  15054 06625 33/// /0000 10049 20034 39495 48541 57/// 333 91101 91200;
0286066250999992011101506004+46767+007117FM-12+063499999V0202101N000510036019N0150001N1+00501+00381999999ADDAA124000091AL19900091GA1081+003601071GF108991999999004501999999IA1099IA2999+00109KA1999N+00351MA1999999094951MD1410001+9999ME1315429OA149900151REMSYN112AAXX  15064 06625 32465 82101 10050 20038 39495 48542 54/// 333 20035 31001 70000 88712 90768 93100 91103 91202;EQDQ01  00002PRCP24
0096066250999992011101507004+46767+007117FM-12+063499999V0200501N000519999999N9999999N1+00521+00321999999ADDMA1999999095001ME1315479REMSYN060AAXX  15074 06625 33/// /0501 10052 20032 39500 48547 5////;
0096066250999992011101508004+46767+007117FM-12+063499999V0209999C000019999999N9999999N1+00591+00381999999ADDMA1999999095031ME1315519REMSYN060AAXX  15084 06625 33/// /0000 10059 20038 39503 48551 5////;
0096066250999992011101509004+46767+007117FM-12+063499999V0200301N000519999999N9999999N1+00661+00451999999ADDMA1999999095011ME1315529REMSYN060AAXX  15094 06625 33/// /0301 10066 20045 39501 48552 5////;
0096066250999992011101510004+46767+007117FM-12+063499999V0200301N000519999999N9999999N1+00811+00541999999ADDMA1999999095011ME1315579REMSYN060AAXX  15104 06625 33/// /0301 10081 20054 39501 48557 5////;
0137066250999992011101511004+46767+007117FM-12+063499999V0202801N001019999999N9999999N1+00911+00561999999ADDMA1999999095021MD1519999+9999ME1315619OA149900261REMSYN076AAXX  15114 06625 33/// /2802 10091 20056 39502 48561 55/// 333 91105 91202;
0148066250999992011101512004+46767+007117FM-12+063499999V0200301N001010036019N0150001N1+01011+00601999999ADDGA1081+003601071GF108991999999004501999999MA1999999094971ME1315619REMSYN070AAXX  15124 06625 32465 80302 10101 20060 39497 48561 5//// 333 88712;
0096066250999992011101513004+46767+007117FM-12+063499999V0200701N001019999999N9999999N1+01121+00641999999ADDMA1999999094901ME1315589REMSYN060AAXX  15134 06625 33/// /0702 10112 20064 39490 48558 5////;
0096066250999992011101514004+46767+007117FM-12+063499999V0209999C001019999999N9999999N1+01191+00691999999ADDMA1999999094881ME1315599REMSYN060AAXX  15144 06625 33/// /0002 10119 20069 39488 48559 5////;
0096066250999992011101515004+46767+007117FM-12+063499999V0200301N002119999999N9999999N1+01191+00721999999ADDMA1999999094841ME1315559REMSYN060AAXX  15154 06625 33/// /0304 10119 20072 39484 48555 5////;
0137066250999992011101516004+46767+007117FM-12+063499999V0200201N002119999999N9999999N1+01071+00711999999ADDMA1999999094841MD1619999+9999ME1315519OA149900311REMSYN076AAXX  15164 06625 33/// /0204 10107 20071 39484 48551 56/// 333 91106 91204;
0137066250999992011101517004+46767+007117FM-12+063499999V0200201N002119999999N9999999N1+00901+00681999999ADDMA1999999094851MD1510031+9999ME1315479OA149900361REMSYN076AAXX  15174 06625 33/// /0204 10090 20068 39485 48547 55003 333 91107 91205;
0238066250999992011101518004+46767+007117FM-12+063499999V0200101N002112200019N0150001N1+00801+00651999999ADDAL19900091GA1021+090001001GF102991999999999999999999IA1099KA1120M+01201MA1999999094891MD1310051+9999ME1315479OA149900361REMSYN106AAXX  15184 06625 32965 20104 10080 20065 39489 48547 53005 333 10120 31/// 82080 90766 93100 91107 91205;
0137066250999992011101519004+46767+007117FM-12+063499999V0200101N001019999999N9999999N1+00681+00581999999ADDMA1999999094911MD1210071+9999ME1315449OA149900261REMSYN076AAXX  15194 06625 33/// /0102 10068 20058 39491 48544 52007 333 91105 91203;
0096066250999992011101520004+46767+007117FM-12+063499999V0209999C000019999999N9999999N1+00591+00551999999ADDMA1999999094901ME1315419REMSYN060AAXX  15204 06625 33/// /0000 10059 20055 39490 48541 5////;
0137066250999992011101521004+46767+007117FM-12+063499999V0209999C000019999999N9999999N1+00541+00521999999ADDMA1999999094941MD1319999+9999ME1315429OA149900261REMSYN076AAXX  15214 06625 33/// /0000 10054 20052 39494 48542 53/// 333 91105 91203;
0137066250999992011101522004+46767+007117FM-12+063499999V0201901N000519999999N9999999N1+00541+00531999999ADDMA1999999094941MD1210031+9999ME1315429OA149900101REMSYN076AAXX  15224 06625 33/// /1901 10054 20053 39494 48542 52003 333 91102 91201;
0137066250999992011101523004+46767+007117FM-12+063499999V0202601N001019999999N9999999N1+00521+00521999999ADDMA1999999094951MD1219999+9999ME1315429OA149900261REMSYN076AAXX  15234 06625 33/// /2602 10052 20052 39495 48542 52/// 333 91105 91203;
0096066250999992011101600004+46767+007117FM-12+063499999V0202501N000519999999N9999999N1+00541+00541999999ADDMA1999999094931ME1315419REMSYN060AAXX  16004 06625 33/// /2501 10054 20054 39493 48541 5////;
0137066250999992011101601004+46767+007117FM-12+063499999V0202601N001019999999N9999999N1+00531+00531999999ADDMA1999999094931MD1019999+9999ME1315419OA149900261REMSYN076AAXX  16014 06625 33/// /2602 10053 20053 39493 48541 50/// 333 91105 91203;
0096066250999992011101602004+46767+007117FM-12+063499999V0209999C000019999999N9999999N1+00561+00561999999ADDMA1999999094901ME1315409REMSYN060AAXX  16024 06625 33/// /0000 10056 20056 39490 48540 5////;
0096066250999992011101603004+46767+007117FM-12+063499999V0209999C000019999999N9999999N1+00591+00591999999ADDMA1999999094891ME1315409REMSYN060AAXX  16034 06625 33/// /0000 10059 20059 39489 48540 5////;
0096066250999992011101604004+46767+007117FM-12+063499999V0209999C000019999999N9999999N1+00631+00631999999ADDMA1999999094911ME1315439REMSYN060AAXX  16044 06625 33/// /0000 10063 20063 39491 48543 5////;
0137066250999992011101605004+46767+007117FM-12+063499999V0209999C000019999999N9999999N1+00641+00641999999ADDMA1999999094911MD1210011+9999ME1315439OA149900101REMSYN076AAXX  16054 06625 33/// /0000 10064 20064 39491 48543 52001 333 91102 91201;
0314066250999992011101606004+46767+007117FM-12+063499999V0201901N000510036019N0100001N1+00681+00681999999ADDAA124000091AL19900091AY121061AY221061GA1081+003601071GF108991999999004501999999IA1099IA2999+00209KA1999N+00491MA1999999094921MD1110031+9999ME1315459MW1101OA149900261REMSYN118AAXX  16064 06625 31460 81901 10068 20068 39492 48545 51003 71022 333 20049 31002 70000 88712 90768 93100 91105 91203;EQDQ01  00002PRCP24
0137066250999992011101607004+46767+007117FM-12+063499999V0202001N001519999999N9999999N1+00731+00701999999ADDMA1999999094951MD1310041+9999ME1315499OA149900261REMSYN076AAXX  16074 06625 33/// /2003 10073 20070 39495 48549 53004 333 91105 91203;
0137066250999992011101608004+46767+007117FM-12+063499999V0201901N000519999999N9999999N1+00751+00701999999ADDMA1999999094991MD1319999+9999ME1315549OA149900211REMSYN076AAXX  16084 06625 33/// /1901 10075 20070 39499 48554 53/// 333 91104 91202;
0137066250999992011101609004+46767+007117FM-12+063499999V0200401N001019999999N9999999N1+00851+00801999999ADDMA1999999095021MD1119999+9999ME1315599OA149900261REMSYN076AAXX  16094 06625 33/// /0402 10085 20080 39502 48559 51/// 333 91105 91203;
0137066250999992011101610004+46767+007117FM-12+063499999V0200501N000519999999N9999999N1+00901+00831999999ADDMA1999999095031MD1210081+9999ME1315629OA149900151REMSYN076AAXX  16104 06625 33/// /0501 10090 20083 39503 48562 52008 333 91103 91202;
0137066250999992011101611004+46767+007117FM-12+063499999V0202201N000519999999N9999999N1+01021+00861999999ADDMA1999999095021MD1010031+9999ME1315659OA149900151REMSYN076AAXX  16114 06625 33/// /2201 10102 20086 39502 48565 50003 333 91103 91202;
0213066250999992011101612004+46767+007117FM-12+063499999V0202701N000510057019N0100001N1+01141+00801999999ADDAY121061AY221061GA1071+005701061GF107991999999004501999999MA1999999094951MD1819999+9999ME1315639MW1051OA149900511REMSYN088AAXX  16124 06625 31460 72701 10114 20080 39495 48563 58/// 70522 333 87619 91110 91204;
0137066250999992011101613004+46767+007117FM-12+063499999V0203501N001519999999N9999999N1+01251+00861999999ADDMA1999999094891MD1810141+9999ME1315629OA149900361REMSYN076AAXX  16134 06625 33/// /3503 10125 20086 39489 48562 58014 333 91107 91203;
0137066250999992011101614004+46767+007117FM-12+063499999V0203501N001519999999N9999999N1+01291+00851999999ADDMA1999999094861MD1619999+9999ME1315609OA149900311REMSYN076AAXX  16144 06625 33/// /3503 10129 20085 39486 48560 56/// 333 91106 91203;
0137066250999992011101615004+46767+007117FM-12+063499999V0200101N001519999999N9999999N1+01261+00861999999ADDMA1999999094851MD1710101+9999ME1315599OA149900361REMSYN076AAXX  16154 06625 33/// /0103 10126 20086 39485 48559 57010 333 91107 91203;
0137066250999992011101616004+46767+007117FM-12+063499999V0203401N002119999999N9999999N1+01081+00821999999ADDMA1999999094861MD1710031+9999ME1315539OA149900361REMSYN076AAXX  16164 06625 33/// /3404 10108 20082 39486 48553 57003 333 91107 91204;
0137066250999992011101617004+46767+007117FM-12+063499999V0203401N001519999999N9999999N1+00851+00751999999ADDMA1999999094871MD1310011+9999ME1315479OA149900311REMSYN076AAXX  16174 06625 33/// /3403 10085 20075 39487 48547 53001 333 91106 91204;
0266066250999992011101618004+46767+007117FM-12+063499999V0209999C000012200019N0100001N1+00791+00721999999ADDAL19900091AY101061AY201061GA1021+090001001GF102991999999999999999999IA1099KA1120M+01301MA1999999094891MD1219999+9999ME1315469MW1051OA149900361REMSYN112AAXX  16184 06625 31960 20000 10079 20072 39489 48546 52/// 70500 333 10130 31/// 82080 90766 93100 91107 91204;
0137066250999992011101619004+46767+007117FM-12+063499999V0209999C000019999999N9999999N1+00731+00701999999ADDMA1999999094901MD1110041+9999ME1315459OA149900051REMSYN076AAXX  16194 06625 33/// /0000 10073 20070 39490 48545 51004 333 91101 91200;
0137066250999992011101620004+46767+007117FM-12+063499999V0202201N001019999999N9999999N1+00661+00651999999ADDMA1999999094911MD1319999+9999ME1315449OA149900151REMSYN076AAXX  16204 06625 33/// /2202 10066 20065 39491 48544 53/// 333 91103 91202;
0137066250999992011101621004+46767+007117FM-12+063499999V0201901N000519999999N9999999N1+00681+00681999999ADDMA1999999094921MD1219999+9999ME1315459OA149900151REMSYN076AAXX  16214 06625 33/// /1901 10068 20068 39492 48545 52/// 333 91103 91202;
0137066250999992011101622004+46767+007117FM-12+063499999V0202801N000519999999N9999999N1+00711+00711999999ADDMA1999999094941MD1210041+9999ME1315489OA149900211REMSYN076AAXX  16224 06625 33/// /2801 10071 20071 39494 48548 52004 333 91104 91202;
0137066250999992011101623004+46767+007117FM-12+063499999V0202401N000519999999N9999999N1+00701+00701999999ADDMA1999999094921MD1010011+9999ME1315469OA149900101REMSYN076AAXX  16234 06625 33/// /2401 10070 20070 39492 48546 50001 333 91102 91201;
0156066250999992011101700004+46767+007117FM-12+063499999V0202201N001019999999N9999999N1+00611+00611999999ADDMA1999999094921MD1410001+9999ME1315439OA149900211REMSYN076AAXX  17004 06625 33/// /2202 10061 20061 39492 48543 58000 333 91104 91203;EQDQ01+000082APCTEN
0137066250999992011101701004+46767+007117FM-12+063499999V0202201N000519999999N9999999N1+00621+00621999999ADDMA1999999094911MD1719999+9999ME1315429OA149900151REMSYN076AAXX  17014 06625 33/// /2201 10062 20062 39491 48542 57/// 333 91103 91202;
0137066250999992011101702004+46767+007117FM-12+063499999V0202001N000519999999N9999999N1+00671+00671999999ADDMA1999999094881MD1719999+9999ME1315419OA149900151REMSYN076AAXX  17024 06625 33/// /2001 10067 20067 39488 48541 57/// 333 91103 91202;
0137066250999992011101703004+46767+007117FM-12+063499999V0209999C000019999999N9999999N1+00671+00671999999ADDMA1999999094871MD1819999+9999ME1315419OA149900151REMSYN076AAXX  17034 06625 33/// /0000 10067 20067 39487 48541 58/// 333 91103 91202;
0137066250999992011101704004+46767+007117FM-12+063499999V0201801N001519999999N9999999N1+00691+00691999999ADDMA1999999094891MD1519999+9999ME1315439OA149900211REMSYN076AAXX  17044 06625 33/// /1803 10069 20069 39489 48543 55/// 333 91104 91203;
0137066250999992011101705004+46767+007117FM-12+063499999V0201901N001519999999N9999999N1+00621+00621999999ADDMA1999999094891MD1210011+9999ME1315419OA149900361REMSYN076AAXX  17054 06625 33/// /1903 10062 20062 39489 48541 52001 333 91107 91203;
0314066250999992011101706004+46767+007117FM-12+063499999V0201801N000510036019N0100001N1+00601+00591999999ADDAA124000091AL19900091AY121061AY221061GA1071+003601071GF107991999999004501999999IA1099IA2999+00309KA1999N+00591MA1999999094911MD1310041+9999ME1315429MW1101OA149900361REMSYN118AAXX  17064 06625 31460 71801 10060 20059 39491 48542 53004 71022 333 20059 31003 70000 87712 90768 93100 91107 91204;EQDQ01  00002PRCP24
0137066250999992011101707004+46767+007117FM-12+063499999V0201701N000519999999N9999999N1+00671+00651999999ADDMA1999999094931MD1310041+9999ME1315469OA149900151REMSYN076AAXX  17074 06625 33/// /1701 10067 20065 39493 48546 53004 333 91103 91202;
0096066250999992011101708004+46767+007117FM-12+063499999V0202101N001019999999N9999999N1+00731+00691999999ADDMA1999999094941ME1315499REMSYN060AAXX  17084 06625 33/// /2102 10073 20069 39494 48549 5////;
0137066250999992011101709004+46767+007117FM-12+063499999V0202201N001519999999N9999999N1+00831+00721999999ADDMA1999999094951MD1219999+9999ME1315539OA149900311REMSYN076AAXX  17094 06625 33/// /2203 10083 20072 39495 48553 52/// 333 91106 91203;
0156066250999992011101710004+46767+007117FM-12+063499999V0202901N000519999999N9999999N1+01041+00891999999ADDMA1999999094931MD1410001+9999ME1315589OA149900151REMSYN076AAXX  17104 06625 33/// /2901 10104 20089 39493 48558 57000 333 91103 91202;EQDQ01+000072APCTEN
0096066250999992011101711004+46767+007117FM-12+063499999V0200301N001019999999N9999999N1+01171+00951999999ADDMA1999999094891ME1315599REMSYN060AAXX  17114 06625 33/// /0302 10117 20095 39489 48559 5////;
0148066250999992011101712004+46767+007117FM-12+063499999V0202201N001512200019N0150001N1+01271+00811999999ADDGA1041+003601061GF104991999999004501999999MA1999999094811ME1315559REMSYN070AAXX  17124 06625 42465 42203 10127 20081 39481 48555 5//// 333 84612;
0096066250999992011101713004+46767+007117FM-12+063499999V0209999C001019999999N9999999N1+01361+00831999999ADDMA1999999094751ME1315539REMSYN060AAXX  17134 06625 33/// /0002 10136 20083 39475 48553 5////;
0096066250999992011101714004+46767+007117FM-12+063499999V0202801N001019999999N9999999N1+01411+00821999999ADDMA1999999094721ME1315529REMSYN060AAXX  17144 06625 33/// /2802 10141 20082 39472 48552 5////;
0096066250999992011101715004+46767+007117FM-12+063499999V0203101N000519999999N9999999N1+01421+00831999999ADDMA1999999094691ME1315509REMSYN060AAXX  17154 06625 33/// /3101 10142 20083 39469 48550 5////;
0137066250999992011101716004+46767+007117FM-12+063499999V0203101N000519999999N9999999N1+01301+00861999999ADDMA1999999094681MD1619999+9999ME1315459OA149900151REMSYN076AAXX  17164 06625 33/// /3101 10130 20086 39468 48545 56/// 333 91103 91202;
0137066250999992011101717004+46767+007117FM-12+063499999V0200101N001019999999N9999999N1+01021+00871999999ADDMA1999999094701MD1510021+9999ME1315389OA149900151REMSYN076AAXX  17174 06625 33/// /0102 10102 20087 39470 48538 55002 333 91103 91203;
0238066250999992011101718004+46767+007117FM-12+063499999V0203301N000512200019N0150001N1+00981+00871999999ADDAL19900091GA1021+090001001GF102991999999999999999999IA1099KA1120M+01421MA1999999094711MD1219999+9999ME1315379OA149900461REMSYN106AAXX  17184 06625 32965 23301 10098 20087 39471 48537 52/// 333 10142 31/// 82080 90766 93100 91109 91203;
0096066250999992011101719004+46767+007117FM-12+063499999V0201301N000519999999N9999999N1+00821+00771999999ADDMA1999999094711ME1315329REMSYN060AAXX  17194 06625 33/// /1301 10082 20077 39471 48532 5////;
0096066250999992011101720004+46767+007117FM-12+063499999V0201901N000519999999N9999999N1+00721+00691999999ADDMA1999999094691ME1315279REMSYN060AAXX  17204 06625 33/// /1901 10072 20069 39469 48527 5////;
0137066250999992011101721004+46767+007117FM-12+063499999V0201801N000519999999N9999999N1+00661+00661999999ADDMA1999999094711MD1319999+9999ME1315279OA149900151REMSYN076AAXX  17214 06625 33/// /1801 10066 20066 39471 48527 53/// 333 91103 91202;
0137066250999992011101722004+46767+007117FM-12+063499999V0209999C000019999999N9999999N1+00591+00591999999ADDMA1999999094721MD1210011+9999ME1315259OA149900101REMSYN076AAXX  17224 06625 33/// /0000 10059 20059 39472 48525 52001 333 91102 91201;
0137066250999992011101723004+46767+007117FM-12+063499999V0202801N000519999999N9999999N1+00561+00531999999ADDMA1999999094691MD1019999+9999ME1315229OA149900151REMSYN076AAXX  17234 06625 33/// /2801 10056 20053 39469 48522 50/// 333 91103 91201;
0137066250999992011101800004+46767+007117FM-12+063499999V0202301N000519999999N9999999N1+00541+00461999999ADDMA1999999094671MD1710041+9999ME1315199OA149900151REMSYN076AAXX  18004 06625 33/// /2301 10054 20046 39467 48519 57004 333 91103 91202;
0137066250999992011101801004+46767+007117FM-12+063499999V0209999C000019999999N9999999N1+00411+00391999999ADDMA1999999094651MD1819999+9999ME1315149OA149900151REMSYN076AAXX  18014 06625 33/// /0000 10041 20039 39465 48514 58/// 333 91103 91201;
0096066250999992011101802004+46767+007117FM-12+063499999V0202001N000519999999N9999999N1+00441+00411999999ADDMA1999999094581ME1315099REMSYN060AAXX  18024 06625 33/// /2001 10044 20041 39458 48509 5////;
0096066250999992011101803004+46767+007117FM-12+063499999V0201301N000519999999N9999999N1+00391+00291999999ADDMA1999999094531ME1315039REMSYN060AAXX  18034 06625 33/// /1301 10039 20029 39453 48503 5////;
0137066250999992011101804004+46767+007117FM-12+063499999V0200101N001019999999N9999999N1+00311+00251999999ADDMA1999999094531MD1719999+9999ME1315009OA149900101REMSYN076AAXX  18044 06625 33/// /0102 10031 20025 39453 48500 57/// 333 91102 91202;
0137066250999992011101805004+46767+007117FM-12+063499999V0202601N000519999999N9999999N1+00291+00241999999ADDMA1999999094521MD1710061+9999ME1314999OA149900151REMSYN076AAXX  18054 06625 33/// /2601 10029 20024 39452 48499 57006 333 91103 91201;
0286066250999992011101806004+46767+007117FM-12+063499999V0209999C000012200019N0150001N1+00211+00161999999ADDAA124000091AL19900091GA1011+090001001GF101991999999999999999999IA1099IA2999-00109KA1999N+00241MA1999999094521MD1810011+9999ME1314969OA149900151REMSYN112AAXX  18064 06625 32965 10000 10021 20016 39452 48496 58001 333 20024 31101 70000 81080 90768 93100 91103 91202;EQDQ01  00002PRCP24
0096066250999992011101807004+46767+007117FM-12+063499999V0209999C000019999999N9999999N1+00261+00181999999ADDMA1999999094541ME1314999REMSYN060AAXX  18074 06625 33/// /0000 10026 20018 39454 48499 5////;
0096066250999992011101808004+46767+007117FM-12+063499999V0200801N000519999999N9999999N1+00491+00411999999ADDMA1999999094521ME1315059REMSYN060AAXX  18084 06625 33/// /0801 10049 20041 39452 48505 5////;
0096066250999992011101809004+46767+007117FM-12+063499999V0201901N001519999999N9999999N1+00951+00281999999ADDMA1999999094491ME1315179REMSYN060AAXX  18094 06625 33/// /1903 10095 20028 39449 48517 5////;
0137066250999992011101810004+46767+007117FM-12+063499999V0201901N001019999999N9999999N1+01201+00551999999ADDMA1999999094441MD1719999+9999ME1315219OA149900211REMSYN076AAXX  18104 06625 33/// /1902 10120 20055 39444 48521 57/// 333 91104 91202;
0137066250999992011101811004+46767+007117FM-12+063499999V0202301N002619999999N9999999N1+01471+00591999999ADDMA1999999094371MD1719999+9999ME1315249OA149900571REMSYN076AAXX  18114 06625 33/// /2305 10147 20059 39437 48524 57/// 333 91111 91205;
0148066250999992011101812004+46767+007117FM-12+063499999V0202501N003612200019N0200001N1+01601+00621999999ADDGA1021+090001001GF102991999999999999999999MA1999999094311ME1315229REMSYN070AAXX  18124 06625 32970 22507 10160 20062 39431 48522 5//// 333 82080;
0096066250999992011101813004+46767+007117FM-12+063499999V0202701N004119999999N9999999N1+01631+00681999999ADDMA1999999094231ME1315169REMSYN060AAXX  18134 06625 33/// /2708 10163 20068 39423 48516 5////;
0096066250999992011101814004+46767+007117FM-12+063499999V0202601N003119999999N9999999N1+01671+00721999999ADDMA1999999094191ME1315149REMSYN060AAXX  18144 06625 33/// /2606 10167 20072 39419 48514 5////;
0137066250999992011101815004+46767+007117FM-12+063499999V0202601N003119999999N9999999N1+01621+00721999999ADDMA1999999094151MD1619999+9999ME1315099OA149900621REMSYN076AAXX  18154 06625 33/// /2606 10162 20072 39415 48509 56/// 333 91112 91208;
0137066250999992011101816004+46767+007117FM-12+063499999V0202901N003119999999N9999999N1+01441+00841999999ADDMA1999999094141MD1710091+9999ME1315029OA149900571REMSYN076AAXX  18164 06625 33/// /2906 10144 20084 39414 48502 57009 333 91111 91207;
0137066250999992011101817004+46767+007117FM-12+063499999V0202101N001019999999N9999999N1+01301+00811999999ADDMA1999999094121MD1719999+9999ME1314969OA149900511REMSYN076AAXX  18174 06625 33/// /2102 10130 20081 39412 48496 57/// 333 91110 91206;
0201066250999992011101818004+46767+007117FM-12+063499999V0202101N004112200019N0150001N1+01341+00631999999ADDAL10600091GA1021+090001001GF102991999999999999999999IA1099KA1120M+01681MA1999999094111ME1314979REMSYN094AAXX  18184 06625 32965 22108 10134 20063 39411 48497 5//// 333 10168 31/// 82080 90766 93100;
0096066250999992011101819004+46767+007117FM-12+063499999V0202001N001519999999N9999999N1+01181+00561999999ADDMA1999999094091ME1314909REMSYN060AAXX  18194 06625 33/// /2003 10118 20056 39409 48490 5////;
0096066250999992011101820004+46767+007117FM-12+063499999V0202001N002619999999N9999999N1+01111+00541999999ADDMA1999999094071ME1314869REMSYN060AAXX  18204 06625 33/// /2005 10111 20054 39407 48486 5////;
0137066250999992011101821004+46767+007117FM-12+063499999V0202001N002119999999N9999999N1+01081+00591999999ADDMA1999999094071MD1719999+9999ME1314859OA149900621REMSYN076AAXX  18214 06625 33/// /2004 10108 20059 39407 48485 57/// 333 91112 91208;
0137066250999992011101822004+46767+007117FM-12+063499999V0202201N009319999999N9999999N1+01291+00621999999ADDMA1999999094051MD1719999+9999ME1314909OA149901341REMSYN076AAXX  18224 06625 33/// /2218 10129 20062 39405 48490 57/// 333 91126 91218;
0096066250999992011101823004+46767+007117FM-12+063499999V0202301N007719999999N9999999N1+01381+00481999999ADDMA1999999094031ME1314919REMSYN060AAXX  18234 06625 33/// /2315 10138 20048 39403 48491 5////;
0137066250999992011101900004+46767+007117FM-12+063499999V0202301N009319999999N9999999N1+01411+00551999999ADDMA1999999094021MD1719999+9999ME1314919OA149901391REMSYN076AAXX  19004 06625 33/// /2318 10141 20055 39402 48491 57/// 333 91127 91218;
0137066250999992011101901004+46767+007117FM-12+063499999V0202401N007219999999N9999999N1+01351+00651999999ADDMA1999999093991MD1710061+9999ME1314869OA149901341REMSYN076AAXX  19014 06625 33/// /2414 10135 20065 39399 48486 57006 333 91126 91217;
0096066250999992011101902004+46767+007117FM-12+063499999V0202301N008219999999N9999999N1+01281+00701999999ADDMA1999999093931ME1314799REMSYN060AAXX  19024 06625 33/// /2316 10128 20070 39393 48479 5////;
0096066250999992011101903004+46767+007117FM-12+063499999V0202301N009319999999N9999999N1+01331+00651999999ADDMA1999999093861ME1314749REMSYN060AAXX  19034 06625 33/// /2318 10133 20065 39386 48474 5////;
0137066250999992011101904004+46767+007117FM-12+063499999V0202401N009819999999N9999999N1+01291+00631999999ADDMA1999999093791MD1719999+9999ME1314679OA149901801REMSYN076AAXX  19044 06625 33/// /2419 10129 20063 39379 48467 57/// 333 91135 91224;
0137066250999992011101905004+46767+007117FM-12+063499999V0202401N009819999999N9999999N1+01251+00651999999ADDMA1999999093761MD1710171+9999ME1314639OA149901541REMSYN076AAXX  19054 06625 33/// /2419 10125 20065 39376 48463 57017 333 91130 91219;
0286066250999992011101906004+46767+007117FM-12+063499999V0202301N010810036019N0150001N1+01261+00681999999ADDAA124000091AL19900091GA1081+003601071GF108991999999004501999999IA1019IA2999+00709KA1999N+01071MA1999999093761MD1719999+9999ME1314649OA149901801REMSYN112AAXX  19064 06625 32465 82321 10126 20068 39376 48464 57/// 333 20107 30007 70000 88712 90768 93100 91135 91224;EQDQ01  00002PRCP24
0137066250999992011101907004+46767+007117FM-12+063499999V0202301N007719999999N9999999N1+01301+00691999999ADDMA1999999093801MD1519999+9999ME1314689OA149901441REMSYN076AAXX  19074 06625 33/// /2315 10130 20069 39380 48468 55/// 333 91128 91219;
0096066250999992011101908004+46767+007117FM-12+063499999V0202401N007219999999N9999999N1+01361+00671999999ADDMA1999999093811ME1314719REMSYN060AAXX  19084 06625 33/// /2414 10136 20067 39381 48471 5////;
0137066250999992011101909004+46767+007117FM-12+063499999V0202601N007219999999N9999999N1+01161+00931999999ADDMA1999999093911MD1219999+9999ME1314749OA149901441REMSYN076AAXX  19094 06625 33/// /2614 10116 20093 39391 48474 52/// 333 91128 91219;
0154066250999992011101910004+46767+007117FM-12+063499999V0202401N004619999999N9999999N1+00911+00771999999ADDAA101002091MA1999999094011MD1219999+9999ME1314759OA149901031REMSYN082AAXX  19104 06625 23/// /2409 10091 20077 39401 48475 52/// 333 60025 91120 91212;
0154066250999992011101911004+46767+007117FM-12+063499999V0202201N003119999999N9999999N1+00841+00691999999ADDAA101002091MA1999999094071MD1110261+9999ME1314789OA149900821REMSYN082AAXX  19114 06625 23/// /2206 10084 20069 39407 48478 51026 333 60025 91116 91209;
0123066250999992011101912004+46767+007117FM-12+063499999V0202001N003119999999N9999999N1+00741+00621999999ADDAA106005191MA1999999094111ME1314789REMSYN076AAXX  19124 06625 03/// /2006 10074 20062 39411 48478 5//// 60051 333 60025;
0117066250999992011101913004+46767+007117FM-12+063499999V0202301N004619999999N9999999N1+00641+00521999999ADDAA101004191MA1999999094221ME1314849REMSYN070AAXX  19134 06625 23/// /2309 10064 20052 39422 48484 5//// 333 60045;
0117066250999992011101914004+46767+007117FM-12+063499999V0202301N003119999999N9999999N1+00541+00421999999ADDAA101004191MA1999999094321ME1314909REMSYN070AAXX  19144 06625 23/// /2306 10054 20042 39432 48490 5//// 333 60045;
0154066250999992011101915004+46767+007117FM-12+063499999V0201901N002119999999N9999999N1+00521+00391999999ADDAA101002091MA1999999094401MD1110291+9999ME1314969OA149900721REMSYN082AAXX  19154 06625 23/// /1904 10052 20039 39440 48496 51029 333 60025 91114 91209;
0154066250999992011101916004+46767+007117FM-12+063499999V0201801N001519999999N9999999N1+00501+00401999999ADDAA101001091MA1999999094441MD1110221+9999ME1314999OA149900571REMSYN082AAXX  19164 06625 23/// /1803 10050 20040 39444 48499 51022 333 60015 91111 91206;
0137066250999992011101917004+46767+007117FM-12+063499999V0201901N000519999999N9999999N1+00501+00371999999ADDMA1999999094521MD1110201+9999ME1315059OA149900211REMSYN076AAXX  19174 06625 33/// /1901 10050 20037 39452 48505 51020 333 91104 91203;
0289066250999992011101918004+46767+007117FM-12+063499999V0209999C000010036019N0100001N1+00491+00431999999ADDAA112017091AL19900091AY161061AY221061GA1071+003601071GF107991999999004501999999IA1119KA1120M+01371MA1999999094541MD1210141+9999ME1315079MW1101OA149900721REMSYN124AAXX  19184 06625 01460 70000 10049 20043 39454 48507 52014 60172 71062 333 10137 32/// 60005 87712 90766 93100 91114 91209;
0137066250999992011101919004+46767+007117FM-12+063499999V0209999C000019999999N9999999N1+00461+00411999999ADDMA1999999094591MD1219999+9999ME1315109OA149900051REMSYN076AAXX  19194 06625 33/// /0000 10046 20041 39459 48510 52/// 333 91101 91201;
0096066250999992011101920004+46767+007117FM-12+063499999V0209999C000019999999N9999999N1+00471+00461999999ADDMA1999999094641ME1315159REMSYN060AAXX  19204 06625 33/// /0000 10047 20046 39464 48515 5////;
0137066250999992011101921004+46767+007117FM-12+063499999V0201501N001019999999N9999999N1+00491+00471999999ADDMA1999999094661MD1119999+9999ME1315179OA149900151REMSYN076AAXX  19214 06625 33/// /1502 10049 20047 39466 48517 51/// 333 91103 91202;
0137066250999992011101922004+46767+007117FM-12+063499999V0202901N001019999999N9999999N1+00381+00341999999ADDMA1999999094661MD1210071+9999ME1315139OA149900211REMSYN076AAXX  19224 06625 33/// /2902 10038 20034 39466 48513 52007 333 91104 91203;
0137066250999992011101923004+46767+007117FM-12+063499999V0202101N001019999999N9999999N1+00291+00291999999ADDMA1999999094671MD1219999+9999ME1315119OA149900151REMSYN076AAXX  19234 06625 33/// /2102 10029 20029 39467 48511 52/// 333 91103 91202;
0137066250999992011102000004+46767+007117FM-12+063499999V0201701N000519999999N9999999N1+00191+00191999999ADDMA1999999094671MD1210011+9999ME1315089OA149900211REMSYN076AAXX  20004 06625 33/// /1701 10019 20019 39467 48508 52001 333 91104 91203;
0137066250999992011102001004+46767+007117FM-12+063499999V0202501N001019999999N9999999N1+00161+00161999999ADDMA1999999094701MD1219999+9999ME1315109OA149900101REMSYN076AAXX  20014 06625 33/// /2502 10016 20016 39470 48510 52/// 333 91102 91202;
0096066250999992011102002004+46767+007117FM-12+063499999V0202701N000519999999N9999999N1+00121+00121999999ADDMA1999999094691ME1315079REMSYN060AAXX  20024 06625 33/// /2701 10012 20012 39469 48507 5////;
0096066250999992011102003004+46767+007117FM-12+063499999V0202201N000519999999N9999999N1+00121+00121999999ADDMA1999999094681ME1315079REMSYN060AAXX  20034 06625 33/// /2201 10012 20012 39468 48507 5////;
0137066250999992011102004004+46767+007117FM-12+063499999V0202201N000519999999N9999999N1+00191+00191999999ADDMA1999999094731MD1319999+9999ME1315139OA149900211REMSYN076AAXX  20044 06625 33/// /2201 10019 20019 39473 48513 53/// 333 91104 91201;
0137066250999992011102005004+46767+007117FM-12+063499999V0202901N000519999999N9999999N1+00241+00241999999ADDMA1999999094771MD1210081+9999ME1315189OA149900151REMSYN076AAXX  20054 06625 33/// /2901 10024 20024 39477 48518 52008 333 91103 91202;
0300066250999992011102006004+46767+007117FM-12+063499999V0201501N000510036019N0100001N1+00271+00271999999ADDAA112000091AA224016591AL13601691AY161061AY221061GA1081+003601071GF108991999999004501999999IA1119IA2999+00009KA1999N+00111MA1999999094791ME1315219MW1021REMSYN118AAXX  20064 06625 01460 81501 10027 20027 39479 48521 5//// 69912 70262 333 20011 32100 69915 70166 88712 90768 93100;EQDQ01  00002PRCP12
0137066250999992011102007004+46767+007117FM-12+063499999V0200401N000519999999N9999999N1+00271+00271999999ADDMA1999999094851MD1319999+9999ME1315269OA149900101REMSYN076AAXX  20074 06625 33/// /0401 10027 20027 39485 48526 53/// 333 91102 91202;
0096066250999992011102008004+46767+007117FM-12+063499999V0200401N000519999999N9999999N1+00391+00361999999ADDMA1999999094881ME1315329REMSYN060AAXX  20084 06625 33/// /0401 10039 20036 39488 48532 5////;
0137066250999992011102009004+46767+007117FM-12+063499999V0200501N001019999999N9999999N1+00421+00351999999ADDMA1999999094891MD1119999+9999ME1315349OA149900211REMSYN076AAXX  20094 06625 33/// /0502 10042 20035 39489 48534 51/// 333 91104 91202;
0137066250999992011102010004+46767+007117FM-12+063499999V0200401N002119999999N9999999N1+00601+00401999999ADDMA1999999094901MD1119999+9999ME1315419OA149900361REMSYN076AAXX  20104 06625 33/// /0404 10060 20040 39490 48541 51/// 333 91107 91205;
0137066250999992011102011004+46767+007117FM-12+063499999V0200501N003619999999N9999999N1+00691+00251999999ADDMA1999999094891MD1019999+9999ME1315439OA149900511REMSYN076AAXX  20114 06625 33/// /0507 10069 20025 39489 48543 50/// 333 91110 91207;
0176066250999992011102012004+46767+007117FM-12+063499999V0200101N003110036019N0150001N1+00671+00091999999ADDAY161061AY221061GA1061+003601061GF106991999999004501999999MA1999999094851ME1315399MW1021REMSYN076AAXX  20124 06625 31465 60106 10067 20009 39485 48539 5//// 70262 333 86612;
0096066250999992011102013004+46767+007117FM-12+063499999V0200601N003119999999N9999999N1+00801+00111999999ADDMA1999999094821ME1315419REMSYN060AAXX  20134 06625 33/// /0606 10080 20011 39482 48541 5////;
0096066250999992011102014004+46767+007117FM-12+063499999V0200301N003619999999N9999999N1+00781+00111999999ADDMA1999999094821ME1315409REMSYN060AAXX  20144 06625 33/// /0307 10078 20011 39482 48540 5////;
0096066250999992011102015004+46767+007117FM-12+063499999V0200401N004119999999N9999999N1+00711+00051999999ADDMA1999999094811ME1315379REMSYN060AAXX  20154 06625 33/// /0408 10071 20005 39481 48537 5////;
0137066250999992011102016004+46767+007117FM-12+063499999V0200201N001519999999N9999999N1+00721+00111999999ADDMA1999999094831MD1319999+9999ME1315399OA149900461REMSYN076AAXX  20164 06625 33/// /0203 10072 20011 39483 48539 53/// 333 91109 91205;
0137066250999992011102017004+46767+007117FM-12+063499999V0200401N003119999999N9999999N1+00581+00141999999ADDMA1999999094851MD1210031+9999ME1315369OA149900621REMSYN076AAXX  20174 06625 33/// /0406 10058 20014 39485 48536 52003 333 91112 91208;
0201066250999992011102018004+46767+007117FM-12+063499999V0200501N002612200019N0150001N1+00441+00141999999ADDAL10600091GA1011+005701061GF101991999999004501999999IA1099KA1120M+00871MA1999999094901ME1315369REMSYN094AAXX  20184 06625 32465 10505 10044 20014 39490 48536 5//// 333 10087 31/// 81619 90766 93100;
0096066250999992011102019004+46767+007117FM-12+063499999V0200501N001519999999N9999999N1+00321+00211999999ADDMA1999999094881ME1315309REMSYN060AAXX  20194 06625 33/// /0503 10032 20021 39488 48530 5////;
0096066250999992011102020004+46767+007117FM-12+063499999V0200401N001519999999N9999999N1+00261+00111999999ADDMA1999999094911ME1315309REMSYN060AAXX  20204 06625 33/// /0403 10026 20011 39491 48530 5////;
0096066250999992011102021004+46767+007117FM-12+063499999V0200401N001519999999N9999999N1+00171+00131999999ADDMA1999999094931ME1315299REMSYN060AAXX  20214 06625 33/// /0403 10017 20013 39493 48529 5////;
0137066250999992011102022004+46767+007117FM-12+063499999V0200701N001019999999N9999999N1+00141+00101999999ADDMA1999999094911MD1019999+9999ME1315269OA149900211REMSYN076AAXX  20224 06625 33/// /0702 10014 20010 39491 48526 50/// 333 91104 91204;
0096066250999992011102023004+46767+007117FM-12+063499999V0200401N000519999999N9999999N1+00131+00071999999ADDMA1999999094911ME1315269REMSYN060AAXX  20234 06625 33/// /0401 10013 20007 39491 48526 5////;
0096066250999992011102100004+46767+007117FM-12+063499999V0200701N000519999999N9999999N1+00031+00011999999ADDMA1999999094871ME1315199REMSYN060AAXX  21004 06625 33/// /0701 10003 20001 39487 48519 5////;
0096066250999992011102101004+46767+007117FM-12+063499999V0202001N001019999999N9999999N1-00101-00111999999ADDMA1999999094871ME1315159REMSYN060AAXX  21014 06625 33/// /2002 11010 21011 39487 48515 5////;
0096066250999992011102102004+46767+007117FM-12+063499999V0209999C000019999999N9999999N1-00111-00131999999ADDMA1999999094831ME1315129REMSYN060AAXX  21024 06625 33/// /0000 11011 21013 39483 48512 5////;
0096066250999992011102103004+46767+007117FM-12+063499999V0201901N000519999999N9999999N1-00151-00161999999ADDMA1999999094821ME1315099REMSYN060AAXX  21034 06625 33/// /1901 11015 21016 39482 48509 5////;
0096066250999992011102104004+46767+007117FM-12+063499999V0202201N001019999999N9999999N1-00181-00191999999ADDMA1999999094801ME1315079REMSYN060AAXX  21044 06625 33/// /2202 11018 21019 39480 48507 5////;
0137066250999992011102105004+46767+007117FM-12+063499999V0202401N000519999999N9999999N1-00211-00221999999ADDMA1999999094831MD1510001+9999ME1315089OA149900151REMSYN076AAXX  21054 06625 33/// /2401 11021 21022 39483 48508 55000 333 91103 91202;
0308066250999992011102106004+46767+007117FM-12+063499999V0202801N000512200019N0080001N1-00181-00191999999ADDAA124000091AL19900091AY101061AY201061GA1001+999999999GF100991001001999999001001IA1149IA2999-00509KA1999N-00221MA1999999094851MD1319999+9999ME1315119MW1051OA149900211REMSYN112AAXX  21064 06625 31/58 02801 11018 21019 39485 48511 53/// 70500 333 21022 34105 70001 90768 93100 91104 91203;EQDQ01  00002PRCP24
0096066250999992011102107004+46767+007117FM-12+063499999V0201001N000519999999N9999999N1-00121-00131999999ADDMA1999999094891ME1315169REMSYN060AAXX  21074 06625 33/// /1001 11012 21013 39489 48516 5////;
0096066250999992011102108004+46767+007117FM-12+063499999V0200501N000519999999N9999999N1-00081-00091999999ADDMA1999999094931ME1315219REMSYN060AAXX  21084 06625 33/// /0501 11008 21009 39493 48521 5////;
0096066250999992011102109004+46767+007117FM-12+063499999V0201101N000519999999N9999999N1-00011-00011999999ADDMA1999999094941ME1315249REMSYN060AAXX  21094 06625 33/// /1101 11001 21001 39494 48524 5////;
0137066250999992011102110004+46767+007117FM-12+063499999V0200701N000519999999N9999999N1+00161+00151999999ADDMA1999999094921MD1019999+9999ME1315289OA149900151REMSYN076AAXX  21104 06625 33/// /0701 10016 20015 39492 48528 50/// 333 91103 91201;
0137066250999992011102111004+46767+007117FM-12+063499999V0200301N002119999999N9999999N1+00351+00221999999ADDMA1999999094891MD1719999+9999ME1315329OA149900461REMSYN076AAXX  21114 06625 33/// /0304 10035 20022 39489 48532 57/// 333 91109 91204;
0176066250999992011102112004+46767+007117FM-12+063499999V0200701N001010057019N0100001N1+00541+00311999999ADDAY121061AY221061GA1061+005701061GF106991999999004501999999MA1999999094841ME1315349MW1051REMSYN076AAXX  21124 06625 31460 60702 10054 20031 39484 48534 5//// 70522 333 86619;
0096066250999992011102113004+46767+007117FM-12+063499999V0200201N003119999999N9999999N1+00581+00301999999ADDMA1999999094801ME1315329REMSYN060AAXX  21134 06625 33/// /0206 10058 20030 39480 48532 5////;
0096066250999992011102114004+46767+007117FM-12+063499999V0200301N002119999999N9999999N1+00661+00151999999ADDMA1999999094771ME1315329REMSYN060AAXX  21144 06625 33/// /0304 10066 20015 39477 48532 5////;
0096066250999992011102115004+46767+007117FM-12+063499999V0200401N002619999999N9999999N1+00671+00161999999ADDMA1999999094741ME1315309REMSYN060AAXX  21154 06625 33/// /0405 10067 20016 39474 48530 5////;
0096066250999992011102116004+46767+007117FM-12+063499999V0200201N003119999999N9999999N1+00591+00141999999ADDMA1999999094721ME1315259REMSYN060AAXX  21164 06625 33/// /0206 10059 20014 39472 48525 5////;
0137066250999992011102117004+46767+007117FM-12+063499999V0200101N002119999999N9999999N1+00471+00101999999ADDMA1999999094721MD1719999+9999ME1315219OA149900461REMSYN076AAXX  21174 06625 33/// /0104 10047 20010 39472 48521 57/// 333 91109 91207;
0201066250999992011102118004+46767+007117FM-12+063499999V0200301N000512200019N0150001N1+00361+00091999999ADDAL10600091GA1011+090001001GF101991999999999999999999IA1099KA1120M+00701MA1999999094731ME1315199REMSYN094AAXX  21184 06625 32965 10301 10036 20009 39473 48519 5//// 333 10070 31/// 81080 90766 93100;
0137066250999992011102119004+46767+007117FM-12+063499999V0202001N001519999999N9999999N1+00191+00111999999ADDMA1999999094721MD1410001+9999ME1315129OA149900151REMSYN076AAXX  21194 06625 33/// /2003 10019 20011 39472 48512 54/// 333 91103 91203;
0096066250999992011102120004+46767+007117FM-12+063499999V0201901N000519999999N9999999N1+00091+00051999999ADDMA1999999094721ME1315099REMSYN060AAXX  21204 06625 33/// /1901 10009 20005 39472 48509 5////;
0096066250999992011102121004+46767+007117FM-12+063499999V0202001N000519999999N9999999N1+00041+00011999999ADDMA1999999094731ME1315089REMSYN060AAXX  21214 06625 33/// /2001 10004 20001 39473 48508 5////;
0096066250999992011102122004+46767+007117FM-12+063499999V0202101N000519999999N9999999N1+00011-00031999999ADDMA1999999094711ME1315069REMSYN060AAXX  21224 06625 33/// /2101 10001 21003 39471 48506 5////;
0096066250999992011102123004+46767+007117FM-12+063499999V0209999C000019999999N9999999N1-00101-00111999999ADDMA1999999094691ME1315009REMSYN060AAXX  21234 06625 33/// /0000 11010 21011 39469 48500 5////;
0096066250999992011102200004+46767+007117FM-12+063499999V0202201N000519999999N9999999N1-00111-00131999999ADDMA1999999094671ME1314989REMSYN060AAXX  22004 06625 33/// /2201 11011 21013 39467 48498 5////;
0096066250999992011102201004+46767+007117FM-12+063499999V0200901N000519999999N9999999N1-00171-00181999999ADDMA1999999094661ME1314969REMSYN060AAXX  22014 06625 33/// /0901 11017 21018 39466 48496 5////;
0096066250999992011102202004+46767+007117FM-12+063499999V0209999C000019999999N9999999N1-00131-00151999999ADDMA1999999094641ME1314959REMSYN060AAXX  22024 06625 33/// /0000 11013 21015 39464 48495 5////;
0096066250999992011102203004+46767+007117FM-12+063499999V0209999C000019999999N9999999N1-00081-00111999999ADDMA1999999094641ME1314979REMSYN060AAXX  22034 06625 33/// /0000 11008 21011 39464 48497 5////;
0096066250999992011102204004+46767+007117FM-12+063499999V0201801N000519999999N9999999N1-00071-00111999999ADDMA1999999094641ME1314979REMSYN060AAXX  22044 06625 33/// /1801 11007 21011 39464 48497 5////;
0137066250999992011102205004+46767+007117FM-12+063499999V0209999C000019999999N9999999N1-00091-00111999999ADDMA1999999094641MD1219999+9999ME1314979OA149900051REMSYN076AAXX  22054 06625 33/// /0000 11009 21011 39464 48497 52/// 333 91101 91200;
0277066250999992011102206004+46767+007117FM-12+063499999V0200701N000510036019N0100001N1-00111-00131999999ADDAA124000091AL19900091AY101061AY201061GA1081+003601061GF108991999999004501999999IA1149IA2999-00409KA1999N-00171MA1999999094661ME1314989MW1051REMSYN106AAXX  22064 06625 31460 80701 11011 21013 39466 48498 5//// 70500 333 21017 34104 70000 88612 90768 93100;EQDQ01  00002PRCP24
0096066250999992011102207004+46767+007117FM-12+063499999V0209999C000019999999N9999999N1-00021-00071999999ADDMA1999999094691ME1315039REMSYN060AAXX  22074 06625 33/// /0000 11002 21007 39469 48503 5////;
0096066250999992011102208004+46767+007117FM-12+063499999V0200301N000519999999N9999999N1+00161+00101999999ADDMA1999999094681ME1315089REMSYN060AAXX  22084 06625 33/// /0301 10016 20010 39468 48508 5////;
0096066250999992011102209004+46767+007117FM-12+063499999V0201401N000519999999N9999999N1+00441+00201999999ADDMA1999999094681ME1315179REMSYN060AAXX  22094 06625 43/// /1401 10044 20020 39468 48517 5////;
0096066250999992011102210004+46767+007117FM-12+063499999V0202401N001019999999N9999999N1+00541+00201999999ADDMA1999999094661ME1315199REMSYN060AAXX  22104 06625 33/// /2402 10054 20020 39466 48519 5////;
0096066250999992011102211004+46767+007117FM-12+063499999V0203101N001519999999N9999999N1+00661+00271999999ADDMA1999999094621ME1315199REMSYN060AAXX  22114 06625 33/// /3103 10066 20027 39462 48519 5////;
0148066250999992011102212004+46767+007117FM-12+063499999V0200301N000512200019N0150001N1+00801+00311999999ADDGA1031+005701061GF103991999999004501999999MA1999999094571ME1315199REMSYN070AAXX  22124 06625 32465 30301 10080 20031 39457 48519 5//// 333 83619;
0096066250999992011102213004+46767+007117FM-12+063499999V0203501N001519999999N9999999N1+00861+00381999999ADDMA1999999094501ME1315159REMSYN060AAXX  22134 06625 33/// /3503 10086 20038 39450 48515 5////;
0096066250999992011102214004+46767+007117FM-12+063499999V0203601N001519999999N9999999N1+00891+00411999999ADDMA1999999094451ME1315129REMSYN060AAXX  22144 06625 33/// /3603 10089 20041 39445 48512 5////;
0096066250999992011102215004+46767+007117FM-12+063499999V0209999C001019999999N9999999N1+00891+00431999999ADDMA1999999094411ME1315099REMSYN060AAXX  22154 06625 33/// /0002 10089 20043 39441 48509 5////;
0096066250999992011102216004+46767+007117FM-12+063499999V0200101N001519999999N9999999N1+00731+00431999999ADDMA1999999094391ME1315029REMSYN060AAXX  22164 06625 33/// /0103 10073 20043 39439 48502 5////;
0137066250999992011102217004+46767+007117FM-12+063499999V0200501N000519999999N9999999N1+00541+00411999999ADDMA1999999094421MD1519999+9999ME1314989OA149900211REMSYN076AAXX  22174 06625 33/// /0501 10054 20041 39442 48498 55/// 333 91104 91203;
0195066250999992011102218004+46767+007117FM-12+063499999V0200601N001012200019N0150001N1+00461+00381999999ADDAL10600091GA1001+999999999GF100991001001999999001001IA1099KA1120M+00911MA1999999094421ME1314969REMSYN088AAXX  22184 06625 32/65 00602 10046 20038 39442 48496 5//// 333 10091 31/// 90766 93100;
0096066250999992011102219004+46767+007117FM-12+063499999V0203201N000519999999N9999999N1+00361+00331999999ADDMA1999999094421ME1314939REMSYN060AAXX  22194 06625 33/// /3201 10036 20033 39442 48493 5////;
0096066250999992011102220004+46767+007117FM-12+063499999V0202001N001519999999N9999999N1+00251+00251999999ADDMA1999999094471ME1314939REMSYN060AAXX  22204 06625 33/// /2003 10025 20025 39447 48493 5////;
0137066250999992011102221004+46767+007117FM-12+063499999V0209999C000019999999N9999999N1+00191+00181999999ADDMA1999999094491MD1219999+9999ME1314939OA149900211REMSYN076AAXX  22214 06625 33/// /0000 10019 20018 39449 48493 52/// 333 91104 91203;
0096066250999992011102222004+46767+007117FM-12+063499999V0202101N001019999999N9999999N1+00061+00061999999ADDMA1999999094471ME1314879REMSYN060AAXX  22224 06625 33/// /2102 10006 20006 39447 48487 5////;
0096066250999992011102223004+46767+007117FM-12+063499999V0201801N000519999999N9999999N1+00051+00051999999ADDMA1999999094471ME1314879REMSYN060AAXX  22234 06625 33/// /1801 10005 20005 39447 48487 5////;
0096066250999992011102300004+46767+007117FM-12+063499999V0209999C000019999999N9999999N1-00041-00041999999ADDMA1999999094441ME1314829REMSYN060AAXX  23004 06625 33/// /0000 11004 21004 39444 48482 5////;
0096066250999992011102301004+46767+007117FM-12+063499999V0202201N000519999999N9999999N1-00021-00021999999ADDMA1999999094451ME1314839REMSYN060AAXX  23014 06625 33/// /2201 11002 21002 39445 48483 5////;
0096066250999992011102302004+46767+007117FM-12+063499999V0202201N000519999999N9999999N1-00111-00111999999ADDMA1999999094441ME1314799REMSYN060AAXX  23024 06625 43/// /2201 11011 21011 39444 48479 5////;
0096066250999992011102303004+46767+007117FM-12+063499999V0202001N001019999999N9999999N1-00081-00081999999ADDMA1999999094421ME1314799REMSYN060AAXX  23034 06625 43/// /2002 11008 21008 39442 48479 5////;
0096066250999992011102304004+46767+007117FM-12+063499999V0201801N000519999999N9999999N1-00021-00021999999ADDMA1999999094411ME1314809REMSYN060AAXX  23044 06625 33/// /1801 11002 21002 39441 48480 5////;
0137066250999992011102305004+46767+007117FM-12+063499999V0202501N000519999999N9999999N1+00011+00011999999ADDMA1999999094401MD1710041+9999ME1314809OA149900151REMSYN076AAXX  23054 06625 33/// /2501 10001 20001 39440 48480 57004 333 91103 91201;
0308066250999992011102306004+46767+007117FM-12+063499999V0202001N001010006019N0009001N1+00011+00011999999ADDAA124000091AL19900091AY141061AY241061GA1091+999999999GF109991091999999999999999IA1149IA2999-00209KA1999N-00111MA1999999094371MD1719999+9999ME1314779MW1451OA149900151REMSYN112AAXX  23064 06625 31/09 92002 10001 20001 39437 48477 57/// 74544 333 21011 34102 70000 90768 93100 91103 91202;EQDQ01  00002PRCP24
0137066250999992011102307004+46767+007117FM-12+063499999V0202001N001019999999N9999999N1+00071+00071999999ADDMA1999999094371MD1710041+9999ME1314799OA149900151REMSYN076AAXX  23074 06625 33/// /2002 10007 20007 39437 48479 57004 333 91103 91202;
0096066250999992011102308004+46767+007117FM-12+063499999V0201601N001019999999N9999999N1+00201+00201999999ADDMA1999999094351ME1314829REMSYN060AAXX  23084 06625 33/// /1602 10020 20020 39435 48482 5////;
0137066250999992011102309004+46767+007117FM-12+063499999V0201901N001019999999N9999999N1+00271+00271999999ADDMA1999999094321MD1819999+9999ME1314819OA149900151REMSYN076AAXX  23094 06625 33/// /1902 10027 20027 39432 48481 58/// 333 91103 91202;
0096066250999992011102310004+46767+007117FM-12+063499999V0202801N001019999999N9999999N1+00321+00321999999ADDMA1999999094281ME1314809REMSYN060AAXX  23104 06625 33/// /2802 10032 20032 39428 48480 5////;
0096066250999992011102311004+46767+007117FM-12+063499999V0201301N000519999999N9999999N1+00451+00451999999ADDMA1999999094211ME1314789REMSYN060AAXX  23114 06625 33/// /1301 10045 20045 39421 48478 5////;
0176066250999992011102312004+46767+007117FM-12+063499999V0200601N000510057019N0100001N1+00671+00651999999ADDAY141061AY221061GA1071+005701061GF107991999999004501999999MA1999999094141ME1314789MW1101REMSYN076AAXX  23124 06625 31460 70601 10067 20065 39414 48478 5//// 71042 333 87619;
0137066250999992011102313004+46767+007117FM-12+063499999V0200601N001019999999N9999999N1+00851+00621999999ADDMA1999999094051MD1819999+9999ME1314769OA149900211REMSYN076AAXX  23134 06625 33/// /0602 10085 20062 39405 48476 58/// 333 91104 91202;
0096066250999992011102314004+46767+007117FM-12+063499999V0203101N001019999999N9999999N1+00931+00561999999ADDMA1999999094001ME1314749REMSYN060AAXX  23144 06625 33/// /3102 10093 20056 39400 48474 5////;
0137066250999992011102315004+46767+007117FM-12+063499999V0202901N001019999999N9999999N1+00931+00561999999ADDMA1999999093951MD1619999+9999ME1314709OA149900311REMSYN076AAXX  23154 06625 33/// /2902 10093 20056 39395 48470 56/// 333 91106 91203;
0137066250999992011102316004+46767+007117FM-12+063499999V0209999C000019999999N9999999N1+00871+00581999999ADDMA1999999093901MD1610151+9999ME1314649OA149900151REMSYN076AAXX  23164 06625 33/// /0000 10087 20058 39390 48464 56015 333 91103 91202;
0137066250999992011102317004+46767+007117FM-12+063499999V0200301N001019999999N9999999N1+00701+00511999999ADDMA1999999093871MD1610131+9999ME1314569OA149900211REMSYN076AAXX  23174 06625 33/// /0302 10070 20051 39387 48456 56013 333 91104 91203;
0266066250999992011102318004+46767+007117FM-12+063499999V0202401N000512200019N0150001N1+00501+00441999999ADDAL19900091AY141061AY201061GA1011+090001001GF101991999999999999999999IA1099KA1120M+00951MA1999999093881MD1719999+9999ME1314519MW1011OA149900311REMSYN112AAXX  23184 06625 31965 12401 10050 20044 39388 48451 57/// 70140 333 10095 31/// 81080 90766 93100 91106 91203;
0137066250999992011102319004+46767+007117FM-12+063499999V0209999C000019999999N9999999N1+00381+00381999999ADDMA1999999093851MD1719999+9999ME1314459OA149900101REMSYN076AAXX  23194 06625 33/// /0000 10038 20038 39385 48445 57/// 333 91102 91202;
0096066250999992011102320004+46767+007117FM-12+063499999V0209999C000019999999N9999999N1+00301+00301999999ADDMA1999999093851ME1314439REMSYN060AAXX  23204 06625 33/// /0000 10030 20030 39385 48443 5////;
0096066250999992011102321004+46767+007117FM-12+063499999V0202701N001019999999N9999999N1+00191+00191999999ADDMA1999999093821ME1314379REMSYN060AAXX  23214 06625 33/// /2702 10019 20019 39382 48437 5////;
0096066250999992011102322004+46767+007117FM-12+063499999V0200501N000519999999N9999999N1+00161+00161999999ADDMA1999999093791ME1314339REMSYN060AAXX  23224 06625 33/// /0501 10016 20016 39379 48433 5////;
0096066250999992011102323004+46767+007117FM-12+063499999V0209999C000019999999N9999999N1+00141+00141999999ADDMA1999999093781ME1314329REMSYN060AAXX  23234 06625 33/// /0000 10014 20014 39378 48432 5////;
0096066250999992011102400004+46767+007117FM-12+063499999V0209999C000019999999N9999999N1+00141+00141999999ADDMA1999999093731ME1314289REMSYN060AAXX  24004 06625 33/// /0000 10014 20014 39373 48428 5////;
0096066250999992011102401004+46767+007117FM-12+063499999V0209999C000019999999N9999999N1+00111+00111999999ADDMA1999999093681ME1314239REMSYN060AAXX  24014 06625 33/// /0000 10011 20011 39368 48423 5////;
0096066250999992011102402004+46767+007117FM-12+063499999V0202001N001019999999N9999999N1+00101+00101999999ADDMA1999999093621ME1314179REMSYN060AAXX  24024 06625 33/// /2002 10010 20010 39362 48417 5////;
0096066250999992011102403004+46767+007117FM-12+063499999V0201901N001019999999N9999999N1+00031+00031999999ADDMA1999999093571ME1314119REMSYN060AAXX  24034 06625 33/// /1902 10003 20003 39357 48411 5////;
0096066250999992011102404004+46767+007117FM-12+063499999V0201901N001019999999N9999999N1+00021+00021999999ADDMA1999999093551ME1314099REMSYN060AAXX  24044 06625 33/// /1902 10002 20002 39355 48409 5////;
0137066250999992011102405004+46767+007117FM-12+063499999V0202601N000519999999N9999999N1+00001+00001999999ADDMA1999999093511MD1719999+9999ME1314059OA149900151REMSYN076AAXX  24054 06625 33/// /2601 10000 20000 39351 48405 57/// 333 91103 91201;
0220066250999992011102406004+46767+007117FM-12+063499999V0209999C000019999999N9999999N1+00001+00001999999ADDAA124000091AL19900091IA2999-00109KA1999N-00011MA1999999093501MD1719999+9999ME1314049OA149900261REMSYN094AAXX  24064 06625 33/// /0000 10000 20000 39350 48404 57/// 333 21001 3/101 70000 91105 91203;EQDQ01  00002PRCP24
0096066250999992011102407004+46767+007117FM-12+063499999V0209999C000019999999N9999999N1+00021+00021999999ADDMA1999999093481ME1314039REMSYN060AAXX  24074 06625 33/// /0000 10002 20002 39348 48403 5////;
0096066250999992011102408004+46767+007117FM-12+063499999V0200701N000519999999N9999999N1+00081+00081999999ADDMA1999999093441ME1314029REMSYN060AAXX  24084 06625 33/// /0701 10008 20008 39344 48402 5////;
0096066250999992011102409004+46767+007117FM-12+063499999V0200601N000519999999N9999999N1+00171+00171999999ADDMA1999999093401ME1314019REMSYN060AAXX  24094 06625 33/// /0601 10017 20017 39340 48401 5////;
0096066250999992011102410004+46767+007117FM-12+063499999V0201301N000519999999N9999999N1+00281+00281999999ADDMA1999999093351ME1314009REMSYN060AAXX  24104 06625 33/// /1301 10028 20028 39335 48400 5////;
0096066250999992011102411004+46767+007117FM-12+063499999V0203301N000519999999N9999999N1+00551+00541999999ADDMA1999999093281ME1314019REMSYN060AAXX  24114 06625 33/// /3301 10055 20054 39328 48401 5////;
0148066250999992011102412004+46767+007117FM-12+063499999V0200401N001512200019N0150001N1+00701+00631999999ADDGA1031+018001031GF103991999999017501999999MA1999999093181ME1313979REMSYN070AAXX  24124 06625 32765 30403 10070 20063 39318 48397 5//// 333 83356;
0096066250999992011102413004+46767+007117FM-12+063499999V0200501N002119999999N9999999N1+00811+00451999999ADDMA1999999093121ME1313959REMSYN060AAXX  24134 06625 33/// /0504 10081 20045 39312 48395 5////;
0096066250999992011102414004+46767+007117FM-12+063499999V0200301N001519999999N9999999N1+00831+00291999999ADDMA1999999093081ME1313929REMSYN060AAXX  24144 06625 33/// /0303 10083 20029 39308 48392 5////;
0137066250999992011102415004+46767+007117FM-12+063499999V0200401N001519999999N9999999N1+00831+00311999999ADDMA1999999093031MD1719999+9999ME1313879OA149900361REMSYN076AAXX  24154 06625 33/// /0403 10083 20031 39303 48387 57/// 333 91107 91204;
0137066250999992011102416004+46767+007117FM-12+063499999V0203001N001019999999N9999999N1+00791+00481999999ADDMA1999999093031MD1719999+9999ME1313869OA149900261REMSYN076AAXX  24164 06625 33/// /3002 10079 20048 39303 48386 57/// 333 91105 91204;
0137066250999992011102417004+46767+007117FM-12+063499999V0200501N000519999999N9999999N1+00641+00501999999ADDMA1999999093041MD1519999+9999ME1313839OA149900261REMSYN076AAXX  24174 06625 33/// /0501 10064 20050 39304 48383 55/// 333 91105 91203;
0201066250999992011102418004+46767+007117FM-12+063499999V0209999C000010057019N0150001N1+00621+00501999999ADDAL10600091GA1061+005701061GF106991999999004501999999IA1099KA1120M+00861MA1999999093091ME1313879REMSYN094AAXX  24184 06625 32465 60000 10062 20050 39309 48387 5//// 333 10086 31/// 86619 90766 93100;
0096066250999992011102419004+46767+007117FM-12+063499999V0202901N000519999999N9999999N1+00611+00551999999ADDMA1999999093091ME1313869REMSYN060AAXX  24194 06625 33/// /2901 10061 20055 39309 48386 5////;
0096066250999992011102420004+46767+007117FM-12+063499999V0200501N001019999999N9999999N1+00591+00561999999ADDMA1999999093071ME1313849REMSYN060AAXX  24204 06625 33/// /0502 10059 20056 39307 48384 5////;
0096066250999992011102421004+46767+007117FM-12+063499999V0202301N001519999999N9999999N1+00581+00551999999ADDMA1999999093071ME1313849REMSYN060AAXX  24214 06625 33/// /2303 10058 20055 39307 48384 5////;
0137066250999992011102422004+46767+007117FM-12+063499999V0201301N000519999999N9999999N1+00581+00551999999ADDMA1999999093021MD1719999+9999ME1313809OA149900151REMSYN076AAXX  24224 06625 33/// /1301 10058 20055 39302 48380 57/// 333 91103 91202;
0137066250999992011102423004+46767+007117FM-12+063499999V0203401N000519999999N9999999N1+00531+00501999999ADDMA1999999093011MD1719999+9999ME1313779OA149900151REMSYN076AAXX  24234 06625 33/// /3401 10053 20050 39301 48377 57/// 333 91103 91202;
0137066250999992011102500004+46767+007117FM-12+063499999V0201901N001019999999N9999999N1+00491+00481999999ADDMA1999999093001MD1719999+9999ME1313759OA149900411REMSYN076AAXX  25004 06625 33/// /1902 10049 20048 39300 48375 57/// 333 91108 91206;
0137066250999992011102501004+46767+007117FM-12+063499999V0202401N001519999999N9999999N1+00501+00491999999ADDMA1999999092961MD1719999+9999ME1313729OA149900361REMSYN076AAXX  25014 06625 33/// /2403 10050 20049 39296 48372 57/// 333 91107 91205;
0096066250999992011102502004+46767+007117FM-12+063499999V0200701N000519999999N9999999N1+00491+00481999999ADDMA1999999092901ME1313679REMSYN060AAXX  25024 06625 33/// /0701 10049 20048 39290 48367 5////;
0096066250999992011102503004+46767+007117FM-12+063499999V0202301N000519999999N9999999N1+00521+00491999999ADDMA1999999092861ME1313649REMSYN060AAXX  25034 06625 33/// /2301 10052 20049 39286 48364 5////;
0096066250999992011102504004+46767+007117FM-12+063499999V0202801N000519999999N9999999N1+00511+00501999999ADDMA1999999092791ME1313589REMSYN060AAXX  25044 06625 33/// /2801 10051 20050 39279 48358 5////;
0137066250999992011102505004+46767+007117FM-12+063499999V0202501N000519999999N9999999N1+00521+00511999999ADDMA1999999092781MD1719999+9999ME1313579OA149900211REMSYN076AAXX  25054 06625 33/// /2501 10052 20051 39278 48357 57/// 333 91104 91202;
0278066250999992011102506004+46767+007117FM-12+063499999V0202501N000510036019N0100001N1+00611+00501999999ADDAL19900091AY121061AY221061GA1081+003601061GF108991999999004501999999IA1099IA2999+00409KA1999N+00481MA1999999092821MD1519999+9999ME1313639MW1101OA149900361REMSYN112AAXX  25064 06625 31460 82501 10061 20050 39282 48363 55/// 71022 333 20048 31004 88612 90768 93100 91107 91205;
0117066250999992011102507004+46767+007117FM-12+063499999V0200801N002119999999N9999999N1+00591+00521999999ADDAA101000021MA1999999092791ME1313609REMSYN070AAXX  25074 06625 23/// /0804 10059 20052 39279 48360 5//// 333 69915;
0117066250999992011102508004+46767+007117FM-12+063499999V0202101N000519999999N9999999N1+00671+00591999999ADDAA101000021MA1999999092871ME1313699REMSYN070AAXX  25084 06625 23/// /2101 10067 20059 39287 48369 5//// 333 69915;
0117066250999992011102509004+46767+007117FM-12+063499999V0202401N000519999999N9999999N1+00741+00651999999ADDAA101000021MA1999999092811ME1313669REMSYN070AAXX  25094 06625 23/// /2401 10074 20065 39281 48366 5//// 333 69925;
0096066250999992011102510004+46767+007117FM-12+063499999V0203301N002619999999N9999999N1+00831+00691999999ADDMA1999999092831ME1313709REMSYN060AAXX  25104 06625 33/// /3305 10083 20069 39283 48370 5////;
0096066250999992011102511004+46767+007117FM-12+063499999V0203301N000519999999N9999999N1+00871+00711999999ADDMA1999999092881ME1313759REMSYN060AAXX  25114 06625 33/// /3301 10087 20071 39288 48375 5////;
0171066250999992011102512004+46767+007117FM-12+063499999V0202201N000510036019N0150001N1+01011+00701999999ADDAA106000591GA1071+003601061GF107991999999004501999999MA1999999092851ME1313769REMSYN082AAXX  25124 06625 02465 72201 10101 20070 39285 48376 5//// 69941 333 60005 87612;
0096066250999992011102513004+46767+007117FM-12+063499999V0203501N000519999999N9999999N1+01071+00641999999ADDMA1999999092801ME1313749REMSYN060AAXX  25134 06625 33/// /3501 10107 20064 39280 48374 5////;
0096066250999992011102514004+46767+007117FM-12+063499999V0201501N000519999999N9999999N1+01121+00651999999ADDMA1999999092811ME1313769REMSYN060AAXX  25144 06625 33/// /1501 10112 20065 39281 48376 5////;
0096066250999992011102515004+46767+007117FM-12+063499999V0200701N001019999999N9999999N1+01091+00751999999ADDMA1999999092851ME1313799REMSYN060AAXX  25154 06625 33/// /0702 10109 20075 39285 48379 5////;
0137066250999992011102516004+46767+007117FM-12+063499999V0203401N000519999999N9999999N1+01061+00741999999ADDMA1999999092911MD1219999+9999ME1313839OA149900151REMSYN076AAXX  25164 06625 33/// /3401 10106 20074 39291 48383 52/// 333 91103 91202;
0137066250999992011102517004+46767+007117FM-12+063499999V0202701N000519999999N9999999N1+00931+00751999999ADDMA1999999093011MD1219999+9999ME1313889OA149900211REMSYN076AAXX  25174 06625 33/// /2701 10093 20075 39301 48388 52/// 333 91104 91203;
0252066250999992011102518004+46767+007117FM-12+063499999V0209999C000010036019N0150001N1+00861+00721999999ADDAA112000591AL10600091AY151061AY221061GA1071+003601061GF107991999999004501999999IA1099KA1120M+01141MA1999999093071ME1313929MW1021REMSYN112AAXX  25184 06625 01465 70000 10086 20072 39307 48392 5//// 69942 70252 333 10114 31/// 60005 87612 90766 93100;
0096066250999992011102519004+46767+007117FM-12+063499999V0202201N001019999999N9999999N1+00751+00711999999ADDMA1999999093191ME1313999REMSYN060AAXX  25194 06625 43/// /2202 10075 20071 39319 48399 5////;
0096066250999992011102520004+46767+007117FM-12+063499999V0202101N001519999999N9999999N1+00821+00721999999ADDMA1999999093291ME1314109REMSYN060AAXX  25204 06625 33/// /2103 10082 20072 39329 48410 5////;
0096066250999992011102521004+46767+007117FM-12+063499999V0202401N004119999999N9999999N1+01031+00811999999ADDMA1999999093411ME1314269REMSYN060AAXX  25214 06625 33/// /2408 10103 20081 39341 48426 5////;
0096066250999992011102522004+46767+007117FM-12+063499999V0202301N007719999999N9999999N1+00971+00771999999ADDMA1999999093471ME1314309REMSYN060AAXX  25224 06625 33/// /2315 10097 20077 39347 48430 5////;
0117066250999992011102523004+46767+007117FM-12+063499999V0202201N002119999999N9999999N1+00881+00811999999ADDAA101001091MA1999999093541ME1314339REMSYN070AAXX  25234 06625 23/// /2204 10088 20081 39354 48433 5//// 333 60015;
0123066250999992011102600004+46767+007117FM-12+063499999V0202101N003619999999N9999999N1+00891+00741999999ADDAA106001091MA1999999093601ME1314399REMSYN076AAXX  26004 06625 03/// /2107 10089 20074 39360 48439 5//// 60011 333 69915;
0096066250999992011102601004+46767+007117FM-12+063499999V0202401N002619999999N9999999N1+00861+00671999999ADDMA1999999093661ME1314439REMSYN060AAXX  26014 06625 33/// /2405 10086 20067 39366 48443 5////;
0117066250999992011102602004+46767+007117FM-12+063499999V0201701N000519999999N9999999N1+00791+00701999999ADDAA101000021MA1999999093681ME1314439REMSYN070AAXX  26024 06625 23/// /1701 10079 20070 39368 48443 5//// 333 69915;
0096066250999992011102603004+46767+007117FM-12+063499999V0202001N000519999999N9999999N1+00771+00671999999ADDMA1999999093681ME1314429REMSYN060AAXX  26034 06625 33/// /2001 10077 20067 39368 48442 5////;
0096066250999992011102604004+46767+007117FM-12+063499999V0209999C000019999999N9999999N1+00701+00701999999ADDMA1999999093711ME1314439REMSYN060AAXX  26044 06625 33/// /0000 10070 20070 39371 48443 5////;
0096066250999992011102605004+46767+007117FM-12+063499999V0202301N000519999999N9999999N1+00671+00671999999ADDMA1999999093751ME1314459REMSYN060AAXX  26054 06625 33/// /2301 10067 20067 39375 48445 5////;
0224066250999992011102606004+46767+007117FM-12+063499999V0209999C000019999999N9999999N1+00601+00601999999ADDAA112002092AA224001892AL14800191IA2999+00409KA1999N+00571MA1999999093811MD1319999+9999ME1314489OA149900621REMSYN106AAXX  26064 06625 03/// /0000 10060 20060 39381 48448 53/// 60022 333 20057 3/004 60005 70019 91112 91208;
0096066250999992011102607004+46767+007117FM-12+063499999V0201901N000519999999N9999999N1+00491+00491999999ADDMA1999999093881ME1314519REMSYN060AAXX  26074 06625 33/// /1901 10049 20049 39388 48451 5////;
0096066250999992011102608004+46767+007117FM-12+063499999V0209999C000019999999N9999999N1+00671+00671999999ADDMA1999999093931ME1314619REMSYN060AAXX  26084 06625 33/// /0000 10067 20067 39393 48461 5////;
0096066250999992011102609004+46767+007117FM-12+063499999V0200901N000519999999N9999999N1+00801+00651999999ADDMA1999999093981ME1314699REMSYN060AAXX  26094 06625 33/// /0901 10080 20065 39398 48469 5////;
0137066250999992011102610004+46767+007117FM-12+063499999V0203601N002619999999N9999999N1+01041+00721999999ADDMA1999999093991MD1219999+9999ME1314779OA149900411REMSYN076AAXX  26104 06625 33/// /3605 10104 20072 39399 48477 52/// 333 91108 91205;
0137066250999992011102611004+46767+007117FM-12+063499999V0200701N000519999999N9999999N1+01141+00631999999ADDMA1999999094001MD1219999+9999ME1314819OA149900311REMSYN076AAXX  26114 06625 33/// /0701 10114 20063 39400 48481 52/// 333 91106 91204;
0176066250999992011102612004+46767+007117FM-12+063499999V0203501N001510036019N0150001N1+01131+00631999999ADDAY161061AY221061GA1061+003601061GF106991999999004501999999MA1999999093981ME1314799MW1021REMSYN076AAXX  26124 06625 31465 63503 10113 20063 39398 48479 5//// 70262 333 86612;
0096066250999992011102613004+46767+007117FM-12+063499999V0200401N002619999999N9999999N1+01191+00631999999ADDMA1999999093941ME1314779REMSYN060AAXX  26134 06625 33/// /0405 10119 20063 39394 48477 5////;
0096066250999992011102614004+46767+007117FM-12+063499999V0200401N002619999999N9999999N1+01231+00591999999ADDMA1999999093911ME1314769REMSYN060AAXX  26144 06625 33/// /0405 10123 20059 39391 48476 5////;
0137066250999992011102615004+46767+007117FM-12+063499999V0200301N002119999999N9999999N1+01231+00641999999ADDMA1999999093891MD1719999+9999ME1314749OA149900461REMSYN076AAXX  26154 06625 33/// /0304 10123 20064 39389 48474 57/// 333 91109 91206;
0137066250999992011102616004+46767+007117FM-12+063499999V0200301N002119999999N9999999N1+01111+00621999999ADDMA1999999093891MD1719999+9999ME1314709OA149900411REMSYN076AAXX  26164 06625 33/// /0304 10111 20062 39389 48470 57/// 333 91108 91205;
0096066250999992011102617004+46767+007117FM-12+063499999V0200101N001519999999N9999999N1+00991+00591999999ADDMA1999999093941ME1314719REMSYN060AAXX  26174 06625 33/// /0103 10099 20059 39394 48471 5////;
0195066250999992011102618004+46767+007117FM-12+063499999V0209999C000012200019N0150001N1+00851+00621999999ADDAL10600091GA1001+999999999GF100991001001999999001001IA1099KA1120M+01241MA1999999093971ME1314699REMSYN088AAXX  26184 06625 32/65 00000 10085 20062 39397 48469 5//// 333 10124 31/// 90766 93100;
0096066250999992011102619004+46767+007117FM-12+063499999V0209999C000019999999N9999999N1+00691+00611999999ADDMA1999999093941ME1314629REMSYN060AAXX  26194 06625 33/// /0000 10069 20061 39394 48462 5////;
0096066250999992011102620004+46767+007117FM-12+063499999V0209999C000019999999N9999999N1+00551+00521999999ADDMA1999999093931ME1314579REMSYN060AAXX  26204 06625 33/// /0000 10055 20052 39393 48457 5////;
0096066250999992011102621004+46767+007117FM-12+063499999V0202201N001019999999N9999999N1+00511+00491999999ADDMA1999999093951ME1314579REMSYN060AAXX  26214 06625 33/// /2202 10051 20049 39395 48457 5////;
0096066250999992011102622004+46767+007117FM-12+063499999V0202201N000519999999N9999999N1+00411+00411999999ADDMA1999999093971ME1314569REMSYN060AAXX  26224 06625 33/// /2201 10041 20041 39397 48456 5////;
0096066250999992011102623004+46767+007117FM-12+063499999V0202401N000519999999N9999999N1+00311+00311999999ADDMA1999999093961ME1314529REMSYN060AAXX  26234 06625 33/// /2401 10031 20031 39396 48452 5////;
0137066250999992011102700004+46767+007117FM-12+063499999V0202701N000519999999N9999999N1+00281+00281999999ADDMA1999999093941MD1819999+9999ME1314509OA149900151REMSYN076AAXX  27004 06625 33/// /2701 10028 20028 39394 48450 58/// 333 91103 91203;
0096066250999992011102701004+46767+007117FM-12+063499999V0202201N001019999999N9999999N1+00181+00181999999ADDMA1999999093961ME1314489REMSYN060AAXX  27014 06625 33/// /2202 10018 20018 39396 48448 5////;
0096066250999992011102702004+46767+007117FM-12+063499999V0209999C000019999999N9999999N1+00121+00121999999ADDMA1999999093951ME1314469REMSYN060AAXX  27024 06625 33/// /0000 10012 20012 39395 48446 5////;
0096066250999992011102703004+46767+007117FM-12+063499999V0202301N001019999999N9999999N1+00101+00101999999ADDMA1999999093921ME1314439REMSYN060AAXX  27034 06625 33/// /2302 10010 20010 39392 48443 5////;
0096066250999992011102704004+46767+007117FM-12+063499999V0203401N000519999999N9999999N1+00171+00171999999ADDMA1999999093871ME1314409REMSYN060AAXX  27044 06625 33/// /3401 10017 20017 39387 48440 5////;
0096066250999992011102705004+46767+007117FM-12+063499999V0200501N001019999999N9999999N1+00041+00041999999ADDMA1999999093861ME1314369REMSYN060AAXX  27054 06625 33/// /0502 10004 20004 39386 48436 5////;
0271066250999992011102706004+46767+007117FM-12+063499999V0201801N000512200019N0100001N1+00071+00071999999ADDAA124000091AL19900091AY101061AY201061GA1001+999999999GF100991001001999999001001IA1099IA2999-00209KA1999N+00041MA1999999093861ME1314379MW1101REMSYN100AAXX  27064 06625 31/60 01801 10007 20007 39386 48437 5//// 71000 333 20004 31102 70000 90768 93100;EQDQ01  00002PRCP24
0112066250999992011102707004+46767+007117FM-12+063499999V0209999C000019999999N9999999N1+00071+00061999999ADDMA1999999093881ME1314389REMSYN076AAXX  27074 06625 33/// /0000 10007 20006 39388 48438 5//// 333 553// 20223;
0112066250999992011102708004+46767+007117FM-12+063499999V0200201N000519999999N9999999N1+00381+00381999999ADDMA1999999093911ME1314509REMSYN076AAXX  27084 06625 33/// /0201 10038 20038 39391 48450 5//// 333 553// 20720;
0149066250999992011102709004+46767+007117FM-12+063499999V0202801N002119999999N9999999N1+00611+00541999999ADDMA1999999093931MD1219999+9999ME1314599OA149900311REMSYN088AAXX  27094 06625 33/// /2804 10061 20054 39393 48459 52/// 333 55309 21145 91106 91204;
0149066250999992011102710004+46767+007117FM-12+063499999V0203501N001019999999N9999999N1+00631+00561999999ADDMA1999999093961MD1219999+9999ME1314629OA149900311REMSYN088AAXX  27104 06625 33/// /3502 10063 20056 39396 48462 52/// 333 55302 20914 91106 91204;
0149066250999992011102711004+46767+007117FM-12+063499999V0202801N001519999999N9999999N1+00671+00581999999ADDMA1999999093961MD1019999+9999ME1314639OA149900361REMSYN088AAXX  27114 06625 33/// /2803 10067 20058 39396 48463 50/// 333 55301 21166 91107 91205;
0172066250999992011102712004+46767+007117FM-12+063499999V0202301N001519999999N0100001N1+00841+00651999999ADDAY121061AY221061GF107991999999004501999999MA1999999093971ME1314699MW1101REMSYN088AAXX  27124 06625 31460 72303 10084 20065 39397 48469 5//// 71022 333 553// 21368 87712;
0112066250999992011102713004+46767+007117FM-12+063499999V0203201N000519999999N9999999N1+00921+00661999999ADDMA1999999093961ME1314719REMSYN076AAXX  27134 06625 33/// /3201 10092 20066 39396 48471 5//// 333 553// 21087;
0112066250999992011102714004+46767+007117FM-12+063499999V0200201N001019999999N9999999N1+01021+00691999999ADDMA1999999093951ME1314739REMSYN076AAXX  27144 06625 33/// /0202 10102 20069 39395 48473 5//// 333 553// 21109;
0112066250999992011102715004+46767+007117FM-12+063499999V0203401N002119999999N9999999N1+00991+00711999999ADDMA1999999093961ME1314739REMSYN076AAXX  27154 06625 33/// /3404 10099 20071 39396 48473 5//// 333 553// 20842;
0149066250999992011102716004+46767+007117FM-12+063499999V0200301N001519999999N9999999N1+00811+00661999999ADDMA1999999094001MD1319999+9999ME1314719OA149900261REMSYN088AAXX  27164 06625 33/// /0303 10081 20066 39400 48471 53/// 333 55304 20313 91105 91204;
0149066250999992011102717004+46767+007117FM-12+063499999V0200101N000519999999N9999999N1+00661+00611999999ADDMA1999999094041MD1210091+9999ME1314709OA149900211REMSYN088AAXX  27174 06625 33/// /0101 10066 20061 39404 48470 52009 333 55300 20032 91104 91203;
0278066250999992011102718004+46767+007117FM-12+063499999V0200201N00051003601CN0100001N1+00601+00591999999ADDAL19900091AY121061AY221061GA1061+003601071GF106991999999004501999999IA1099KA1120M+01031MA1999999094111MD1219999+9999ME1314749MW1101OA149900311REMSYN124AAXX  27184 06625 31460 60201 10060 20059 39411 48474 52/// 71022 333 10103 31/// 55300 20011 86712 90766 93100 91106 91204;
0112066250999992011102719004+46767+007117FM-12+063499999V0209999C000019999999N9999999N1+00511+00511999999ADDMA1999999094141ME1314749REMSYN076AAXX  27194 06625 33/// /0000 10051 20051 39414 48474 5//// 333 553// 20011;
0112066250999992011102720004+46767+007117FM-12+063499999V0202701N000519999999N9999999N1+00461+00461999999ADDMA1999999094201ME1314779REMSYN076AAXX  27204 06625 33/// /2701 10046 20046 39420 48477 5//// 333 553// 20011;
0112066250999992011102721004+46767+007117FM-12+063499999V0202301N001019999999N9999999N1+00521+00511999999ADDMA1999999094281ME1314869REMSYN076AAXX  27214 06625 33/// /2302 10052 20051 39428 48486 5//// 333 553// 20007;
0149066250999992011102722004+46767+007117FM-12+063499999V0201401N000519999999N9999999N1+00521+00511999999ADDMA1999999094311MD1219999+9999ME1314889OA149900261REMSYN088AAXX  27224 06625 33/// /1401 10052 20051 39431 48488 52/// 333 55300 20007 91105 91203;
0112066250999992011102723004+46767+007117FM-12+063499999V0202501N000519999999N9999999N1+00491+00491999999ADDMA1999999094321ME1314889REMSYN076AAXX  27234 06625 33/// /2501 10049 20049 39432 48488 5//// 333 553// 20011;
0149066250999992011102800004+46767+007117FM-12+063499999V0209999C000019999999N9999999N1+00481+00461999999ADDMA1999999094391MD1319999+9999ME1314949OA149900261REMSYN088AAXX  28004 06625 33/// /0000 10048 20046 39439 48494 53/// 333 55300 20007 91105 91203;
0112066250999992011102801004+46767+007117FM-12+063499999V0202301N000519999999N9999999N1+00491+00491999999ADDMA1999999094441ME1314989REMSYN076AAXX  28014 06625 33/// /2301 10049 20049 39444 48498 5//// 333 553// 20007;
0112066250999992011102802004+46767+007117FM-12+063499999V0202201N001519999999N9999999N1+00451+00451999999ADDMA1999999094501ME1315029REMSYN076AAXX  28024 06625 33/// /2203 10045 20045 39450 48502 5//// 333 553// 20011;
0112066250999992011102803004+46767+007117FM-12+063499999V0200301N001019999999N9999999N1+00341+00341999999ADDMA1999999094491ME1314989REMSYN076AAXX  28034 06625 33/// /0302 10034 20034 39449 48498 5//// 333 553// 20011;
0112066250999992011102804004+46767+007117FM-12+063499999V0202601N000519999999N9999999N1+00381+00381999999ADDMA1999999094541ME1315039REMSYN076AAXX  28044 06625 33/// /2601 10038 20038 39454 48503 5//// 333 553// 20007;
0149066250999992011102805004+46767+007117FM-12+063499999V0202101N001019999999N9999999N1+00321+00321999999ADDMA1999999094591MD1219999+9999ME1315069OA149900101REMSYN088AAXX  28054 06625 33/// /2102 10032 20032 39459 48506 52/// 333 55300 20011 91102 91202;
0202066250999992011102806004+46767+007117FM-12+063499999V0209999C000019999999N9999999N1+00221+00221999999ADDAL19900091IA2999+00009KA1999N+00261MA1999999094631MD1119999+9999ME1315069OA149900211REMSYN106AAXX  28064 06625 33/// /0000 10022 20022 39463 48506 51/// 333 20026 3/000 55300 20011 70000 91104 91203;
0149066250999992011102807004+46767+007117FM-12+063499999V0209999C000019999999N9999999N1+00341+00341999999ADDMA1999999094691MD1219999+9999ME1315159OA149900051REMSYN088AAXX  28074 06625 33/// /0000 10034 20034 39469 48515 52/// 333 55302 20155 91101 91201;
0112066250999992011102808004+46767+007117FM-12+063499999V0209999C000019999999N9999999N1+00361+00351999999ADDMA1999999094771ME1315229REMSYN076AAXX  28084 06625 33/// /0000 10036 20035 39477 48522 5//// 333 553// 20328;
0149066250999992011102809004+46767+007117FM-12+063499999V0201501N000519999999N9999999N1+00601+00461999999ADDMA1999999094841MD1219999+9999ME1315369OA149900211REMSYN088AAXX  28094 06625 33/// /1501 10060 20046 39484 48536 52/// 333 55306 20857 91104 91202;
0149066250999992011102810004+46767+007117FM-12+063499999V0209999C000019999999N9999999N1+01151+00721999999ADDMA1999999094871MD1119999+9999ME1315579OA149900151REMSYN088AAXX  28104 06625 33/// /0000 10115 20072 39487 48557 51/// 333 55310 21800 91103 91201;
0149066250999992011102811004+46767+007117FM-12+063499999V0209999C000019999999N9999999N1+01331+00541999999ADDMA1999999094881MD1119999+9999ME1315649OA149900211REMSYN088AAXX  28114 06625 33/// /0000 10133 20054 39488 48564 51/// 333 55306 21501 91104 91202;
0144066250999992011102812004+46767+007117FM-12+063499999V0203201N001519999999N0150001N1+01431+00721999999ADDGF106991999999004501999999MA1999999094881ME1315679REMSYN082AAXX  28124 06625 32465 63203 10143 20072 39488 48567 5//// 333 553// 21750 86619;
0112066250999992011102813004+46767+007117FM-12+063499999V0200101N001019999999N9999999N1+01541+00541999999ADDMA1999999094891ME1315719REMSYN076AAXX  28134 06625 33/// /0102 10154 20054 39489 48571 5//// 333 553// 21663;
0112066250999992011102814004+46767+007117FM-12+063499999V0200101N001519999999N9999999N1+01471+00471999999ADDMA1999999094851ME1315669REMSYN076AAXX  28144 06625 33/// /0103 10147 20047 39485 48566 5//// 333 553// 20994;
0149066250999992011102815004+46767+007117FM-12+063499999V0203501N001519999999N9999999N1+01391+00531999999ADDMA1999999094871MD1519999+9999ME1315659OA149900261REMSYN088AAXX  28154 06625 33/// /3503 10139 20053 39487 48565 55/// 333 55310 20900 91105 91203;
0149066250999992011102816004+46767+007117FM-12+063499999V0200201N001519999999N9999999N1+01221+00721999999ADDMA1999999094881MD1519999+9999ME1315609OA149900311REMSYN088AAXX  28164 06625 33/// /0203 10122 20072 39488 48560 55/// 333 55307 20310 91106 91204;
0149066250999992011102817004+46767+007117FM-12+063499999V0203501N000519999999N9999999N1+01051+00771999999ADDMA1999999094911MD1219999+9999ME1315579OA149900261REMSYN088AAXX  28174 06625 33/// /3501 10105 20077 39491 48557 52/// 333 55300 20025 91105 91204;
0250066250999992011102818004+46767+007117FM-12+063499999V0202001N001012200019N0150001N1+00861+00691999999ADDAL19900091GA1021+005701061GF102991999999004501999999IA1099KA1120M+01541MA1999999094961MD1319999+9999ME1315559OA149900311REMSYN118AAXX  28184 06625 32465 22002 10086 20069 39496 48555 53/// 333 10154 31/// 55300 20011 82619 90766 93100 91106 91204;
0112066250999992011102819004+46767+007117FM-12+063499999V0202101N001019999999N9999999N1+00741+00621999999ADDMA1999999094971ME1315519REMSYN076AAXX  28194 06625 33/// /2102 10074 20062 39497 48551 5//// 333 553// 20011;
0112066250999992011102820004+46767+007117FM-12+063499999V0202101N000519999999N9999999N1+00671+00591999999ADDMA1999999095001ME1315529REMSYN076AAXX  28204 06625 33/// /2101 10067 20059 39500 48552 5//// 333 553// 20011;
0112066250999992011102821004+46767+007117FM-12+063499999V0209999C000019999999N9999999N1+00571+00521999999ADDMA1999999095011ME1315499REMSYN076AAXX  28214 06625 33/// /0000 10057 20052 39501 48549 5//// 333 553// 20011;
0112066250999992011102822004+46767+007117FM-12+063499999V0201801N000519999999N9999999N1+00621+00551999999ADDMA1999999095021ME1315529REMSYN076AAXX  28224 06625 33/// /1801 10062 20055 39502 48552 5//// 333 553// 20007;
0112066250999992011102823004+46767+007117FM-12+063499999V0200301N001019999999N9999999N1+00671+00561999999ADDMA1999999095011ME1315539REMSYN076AAXX  28234 06625 33/// /0302 10067 20056 39501 48553 5//// 333 553// 20007;
0112066250999992011102900004+46767+007117FM-12+063499999V0202201N001019999999N9999999N1+00661+00551999999ADDMA1999999095011ME1315529REMSYN076AAXX  29004 06625 33/// /2202 10066 20055 39501 48552 5//// 333 553// 20007;
0112066250999992011102901004+46767+007117FM-12+063499999V0202101N000519999999N9999999N1+00671+00491999999ADDMA1999999095011ME1315539REMSYN076AAXX  29014 06625 33/// /2101 10067 20049 39501 48553 5//// 333 553// 20007;
0112066250999992011102902004+46767+007117FM-12+063499999V0203601N000519999999N9999999N1+00661+00531999999ADDMA1999999094961ME1315489REMSYN076AAXX  29024 06625 33/// /3601 10066 20053 39496 48548 5//// 333 553// 20011;
0112066250999992011102903004+46767+007117FM-12+063499999V0202201N001519999999N9999999N1+00581+00511999999ADDMA1999999094951ME1315449REMSYN076AAXX  29034 06625 33/// /2203 10058 20051 39495 48544 5//// 333 553// 20011;
