0137066280999992010010100004+46750+007267FM-12+104199999V0201801N001019999999N9999999N1+00151+00061999999ADDMA1999999087361MD1810101+9999ME1312649OA149900411REMSYN076AAXX  01004 06628 33/// /1802 10015 20006 38736 48264 58010 333 91108 91205;
0137066280999992010010101004+46750+007267FM-12+104199999V0201501N002119999999N9999999N1+00091-00021999999ADDMA1999999087301MD1810141+9999ME1312589OA149900311REMSYN076AAXX  01014 06628 33/// /1504 10009 21002 38730 48258 58014 333 91106 91204;
0137066280999992010010102004+46750+007267FM-12+104199999V0200701N001019999999N9999999N1+00161+00161999999ADDMA1999999087261MD1819999+9999ME1312559OA149900361REMSYN076AAXX  01024 06628 33/// /0702 10016 20016 38726 48255 58/// 333 91107 91205;
0096066280999992010010103004+46750+007267FM-12+104199999V0202001N000519999999N9999999N1+00081+00041999999ADDMA1999999087201ME1312499REMSYN060AAXX  01034 06628 43/// /2001 10008 20004 38720 48249 5////;
0096066280999992010010104004+46750+007267FM-12+104199999V0201501N002119999999N9999999N1+00101+00001999999ADDMA1999999087151ME1312449REMSYN060AAXX  01044 06628 33/// /1504 10010 20000 38715 48244 5////;
0137066280999992010010105004+46750+007267FM-12+104199999V0202201N001019999999N9999999N1+00121+00031999999ADDMA1999999087131MD1610131+9999ME1312429OA149900311REMSYN076AAXX  01054 06628 33/// /2202 10012 20003 38713 48242 56013 333 91106 91204;
0215066280999992010010106004+46750+007267FM-12+104199999V0202101N001019999999N9999999N1+00131+00081999999ADDAA124001091AL19900191GJ100069IA2999-00209KA1999N+00061MA1999999087111MD1610091+9999ME1312419OA149900361REMSYN100AAXX  01064 06628 33/// /2102 10013 20008 38711 48241 56009 333 20006 3/102 55001 70010 91107 91205;
0137066280999992010010107004+46750+007267FM-12+104199999V0202401N001019999999N9999999N1+00111+00061999999ADDMA1999999087121MD1710031+9999ME1312419OA149900151REMSYN076AAXX  01074 06628 33/// /2402 10011 20006 38712 48241 57003 333 91103 91202;
0137066280999992010010108004+46750+007267FM-12+104199999V0202801N002119999999N9999999N1+00101+00041999999ADDMA1999999087161MD1310031+9999ME1312459OA149900261REMSYN076AAXX  01084 06628 33/// /2804 10010 20004 38716 48245 53003 333 91105 91204;
0137066280999992010010109004+46750+007267FM-12+104199999V0202101N001019999999N9999999N1+00071+00071999999ADDMA1999999087191MD1310081+9999ME1312489OA149900311REMSYN076AAXX  01094 06628 33/// /2102 10007 20007 38719 48248 53008 333 91106 91204;
0137066280999992010010110004+46750+007267FM-12+104199999V0203101N001519999999N9999999N1+00101+00091999999ADDMA1999999087271MD1210151+9999ME1312559OA149900311REMSYN076AAXX  01104 06628 33/// /3103 10010 20009 38727 48255 52015 333 91106 91204;
0137066280999992010010111004+46750+007267FM-12+104199999V0203001N002119999999N9999999N1+00121+00121999999ADDMA1999999087291MD1110131+9999ME1312579OA149900411REMSYN076AAXX  01114 06628 33/// /3004 10012 20012 38729 48257 51013 333 91108 91205;
0137066280999992010010112004+46750+007267FM-12+104199999V0202101N000519999999N9999999N1+00131+00131999999ADDMA1999999087281MD1210091+9999ME1312569OA149900411REMSYN076AAXX  01124 06628 33/// /2101 10013 20013 38728 48256 52009 333 91108 91205;
0137066280999992010010113004+46750+007267FM-12+104199999V0203201N002619999999N9999999N1+00151+00141999999ADDMA1999999087351MD1210081+9999ME1312639OA149900411REMSYN076AAXX  01134 06628 33/// /3205 10015 20014 38735 48263 52008 333 91108 91205;
0137066280999992010010114004+46750+007267FM-12+104199999V0203001N002619999999N9999999N1+00161+00151999999ADDMA1999999087421MD1219999+9999ME1312699OA149900511REMSYN076AAXX  01144 06628 33/// /3005 10016 20015 38742 48269 52/// 333 91110 91206;
0154066280999992010010115004+46750+007267FM-12+104199999V0203001N004619999999N9999999N1+00091+00041999999ADDAA101001091MA1999999087531MD1310251+9999ME1312799OA149900771REMSYN082AAXX  01154 06628 23/// /3009 10009 20004 38753 48279 53025 333 60015 91115 91210;
0154066280999992010010116004+46750+007267FM-12+104199999V0203001N004119999999N9999999N1-00081-00101999999ADDAA101003091MA1999999087701MD1310351+9999ME1312939OA149900881REMSYN082AAXX  01164 06628 23/// /3008 11008 21010 38770 48293 53035 333 60035 91117 91210;
0154066280999992010010117004+46750+007267FM-12+104199999V0203001N002119999999N9999999N1-00101-00151999999ADDAA101002091MA1999999087851MD1310431+9999ME1313069OA149900881REMSYN082AAXX  01174 06628 23/// /3004 11010 21015 38785 48306 53043 333 60025 91117 91210;
0179066280999992010010118004+46750+007267FM-12+104199999V0202701N006219999999N9999999N1-00071-00131999999ADDAA112007991KA1120M+00191MA1999999088001MD1210471+9999ME1313209OA149900881REMSYN094AAXX  01184 06628 03/// /2712 11007 21013 38800 48320 52047 60082 333 10019 60015 91117 91212;
0154066280999992010010119004+46750+007267FM-12+104199999V0203001N006219999999N9999999N1-00161-00191999999ADDAA101000891MA1999999088131MD1210431+9999ME1313319OA149901081REMSYN082AAXX  01194 06628 23/// /3012 11016 21019 38813 48331 52043 333 69985 91121 91212;
0154066280999992010010120004+46750+007267FM-12+104199999V0202901N005719999999N9999999N1-00211-00381999999ADDAA101000391MA1999999088251MD1210401+9999ME1313419OA149901131REMSYN082AAXX  01204 06628 23/// /2911 11021 21038 38825 48341 52040 333 69935 91122 91214;
0154066280999992010010121004+46750+007267FM-12+104199999V0202801N004119999999N9999999N1-00221-00331999999ADDAA101000021MA1999999088351MD1110351+9999ME1313509OA149901131REMSYN082AAXX  01214 06628 23/// /2808 11022 21033 38835 48350 51035 333 69925 91122 91214;
0137066280999992010010122004+46750+007267FM-12+104199999V0203001N004619999999N9999999N1-00301-00371999999ADDMA1999999088411MD1110281+9999ME1313549OA149900881REMSYN076AAXX  01224 06628 33/// /3009 11030 21037 38841 48354 51028 333 91117 91210;
0137066280999992010010123004+46750+007267FM-12+104199999V0202901N006219999999N9999999N1-00381-00501999999ADDMA1999999088481MD1110231+9999ME1313599OA149901031REMSYN076AAXX  01234 06628 33/// /2912 11038 21050 38848 48359 51023 333 91120 91212;
0160066280999992010010200004+46750+007267FM-12+104199999V0202901N005119999999N9999999N1-00431-00631999999ADDAA106001091MA1999999088581MD1310231+9999ME1313689OA149901131REMSYN088AAXX  02004 06628 03/// /2910 11043 21063 38858 48368 53023 60011 333 60005 91122 91214;
0154066280999992010010201004+46750+007267FM-12+104199999V0202801N004619999999N9999999N1-00491-00661999999ADDAA101000021MA1999999088661MD1310251+9999ME1313749OA149901031REMSYN082AAXX  02014 06628 23/// /2809 11049 21066 38866 48374 53025 333 69925 91120 91212;
0117066280999992010010202004+46750+007267FM-12+104199999V0202701N006719999999N9999999N1-00501-00741999999ADDAA101000021MA1999999088771ME1313849REMSYN070AAXX  02024 06628 23/// /2713 11050 21074 38877 48384 5//// 333 69915;
0137066280999992010010203004+46750+007267FM-12+104199999V0202701N005119999999N9999999N1-00531-00741999999ADDMA1999999088881MD1310301+9999ME1313939OA149901081REMSYN076AAXX  02034 06628 33/// /2710 11053 21074 38888 48393 53030 333 91121 91213;
0137066280999992010010204004+46750+007267FM-12+104199999V0202801N005119999999N9999999N1-00571-00881999999ADDMA1999999088941MD1110281+9999ME1313979OA149900981REMSYN076AAXX  02044 06628 33/// /2810 11057 21088 38894 48397 51028 333 91119 91212;
0137066280999992010010205004+46750+007267FM-12+104199999V0202701N004619999999N9999999N1-00621-00841999999ADDMA1999999088981MD1110211+9999ME1314009OA149900981REMSYN076AAXX  02054 06628 33/// /2709 11062 21084 38898 48400 51021 333 91119 91212;
0238066280999992010010206004+46750+007267FM-12+104199999V0202801N003119999999N9999999N1-00611-00931999999ADDAA112002091AA224009191AL11200991GJ100009IA2999-00309KA1999N-00621MA1999999089041MD1110161+9999ME1314069OA149901131REMSYN112AAXX  02064 06628 03/// /2806 11061 21093 38904 48406 51016 60022 333 21062 3/103 55000 60005 70092 91122 91214;
0137066280999992010010207004+46750+007267FM-12+104199999V0202801N002619999999N9999999N1-00621-01011999999ADDMA1999999089111MD1310171+9999ME1314129OA149900721REMSYN076AAXX  02074 06628 33/// /2805 11062 21101 38911 48412 53017 333 91114 91208;
0096066280999992010010208004+46750+007267FM-12+104199999V0203301N001519999999N9999999N1-00651-00821999999ADDMA1999999089181ME1314179REMSYN060AAXX  02084 06628 33/// /3303 11065 21082 38918 48417 5////;
0154066280999992010010209004+46750+007267FM-12+104199999V0203401N002119999999N9999999N1-00711-01001999999ADDAA101000591MA1999999089291MD1310251+9999ME1314269OA149900981REMSYN082AAXX  02094 06628 23/// /3404 11071 21100 38929 48426 53025 333 69955 91119 91212;
0154066280999992010010210004+46750+007267FM-12+104199999V0203101N001519999999N9999999N1-00691-00871999999ADDAA101000021MA1999999089371MD1310261+9999ME1314339OA149900511REMSYN082AAXX  02104 06628 23/// /3103 11069 21087 38937 48433 53026 333 69915 91110 91204;
0137066280999992010010211004+46750+007267FM-12+104199999V0203401N001519999999N9999999N1-00681-00891999999ADDMA1999999089421MD1110241+9999ME1314389OA149900361REMSYN076AAXX  02114 06628 33/// /3403 11068 21089 38942 48438 51024 333 91107 91203;
0160066280999992010010212004+46750+007267FM-12+104199999V0202601N001519999999N9999999N1-00681-00941999999ADDAA106000591MA1999999089461MD1110171+9999ME1314419OA149901081REMSYN088AAXX  02124 06628 03/// /2603 11068 21094 38946 48441 51017 69961 333 60005 91121 91213;
0137066280999992010010213004+46750+007267FM-12+104199999V0202701N001519999999N9999999N1-00611-00931999999ADDMA1999999089531MD1310161+9999ME1314489OA149900261REMSYN076AAXX  02134 06628 33/// /2703 11061 21093 38953 48448 53016 333 91105 91203;
0137066280999992010010214004+46750+007267FM-12+104199999V0202801N001019999999N9999999N1-00691-00951999999ADDMA1999999089581MD1219999+9999ME1314519OA149900261REMSYN076AAXX  02144 06628 33/// /2802 11069 21095 38958 48451 52/// 333 91105 91203;
0137066280999992010010215004+46750+007267FM-12+104199999V0209999C000019999999N9999999N1-00751-01051999999ADDMA1999999089641MD1210181+9999ME1314559OA149900361REMSYN076AAXX  02154 06628 33/// /0000 11075 21105 38964 48455 52018 333 91107 91203;
0137066280999992010010216004+46750+007267FM-12+104199999V0202701N001519999999N9999999N1-00821-01201999999ADDMA1999999089711MD1310181+9999ME1314609OA149900311REMSYN076AAXX  02164 06628 33/// /2703 11082 21120 38971 48460 53018 333 91106 91203;
0137066280999992010010217004+46750+007267FM-12+104199999V0201601N002619999999N9999999N1-00931-01301999999ADDMA1999999089771MD1110191+9999ME1314649OA149900361REMSYN076AAXX  02174 06628 33/// /1605 11093 21130 38977 48464 51019 333 91107 91205;
0179066280999992010010218004+46750+007267FM-12+104199999V0201701N003619999999N9999999N1-00981-01291999999ADDAA112000591KA1120M-00591MA1999999089791MD1210151+9999ME1314659OA149900571REMSYN094AAXX  02184 06628 03/// /1707 11098 21129 38979 48465 52015 69962 333 11059 60005 91111 91208;
0137066280999992010010219004+46750+007267FM-12+104199999V0201601N002619999999N9999999N1-01011-01201999999ADDMA1999999089801MD1210091+9999ME1314659OA149900571REMSYN076AAXX  02194 06628 33/// /1605 11101 21120 38980 48465 52009 333 91111 91208;
0137066280999992010010220004+46750+007267FM-12+104199999V0201701N003619999999N9999999N1-01071-01311999999ADDMA1999999089801MD1210031+9999ME1314649OA149900571REMSYN076AAXX  02204 06628 33/// /1707 11107 21131 38980 48464 52003 333 91111 91208;
0137066280999992010010221004+46750+007267FM-12+104199999V0201601N004119999999N9999999N1-01101-01281999999ADDMA1999999089781MD1710011+9999ME1314629OA149900571REMSYN076AAXX  02214 06628 33/// /1608 11110 21128 38978 48462 57001 333 91111 91208;
0137066280999992010010222004+46750+007267FM-12+104199999V0201601N003619999999N9999999N1-01061-01291999999ADDMA1999999089811MD1310011+9999ME1314659OA149900571REMSYN076AAXX  02224 06628 33/// /1607 11106 21129 38981 48465 53001 333 91111 91208;
0137066280999992010010223004+46750+007267FM-12+104199999V0201601N002619999999N9999999N1-01031-01461999999ADDMA1999999089831MD1310031+9999ME1314679OA149900571REMSYN076AAXX  02234 06628 33/// /1605 11103 21146 38983 48467 53003 333 91111 91208;
0137066280999992010010300004+46750+007267FM-12+104199999V0201601N003619999999N9999999N1-01051-01441999999ADDMA1999999089801MD1010021+9999ME1314649OA149900621REMSYN076AAXX  03004 06628 33/// /1607 11105 21144 38980 48464 50002 333 91112 91208;
0137066280999992010010301004+46750+007267FM-12+104199999V0201601N004119999999N9999999N1-01071-01461999999ADDMA1999999089791MD1710021+9999ME1314639OA149900621REMSYN076AAXX  03014 06628 33/// /1608 11107 21146 38979 48463 57002 333 91112 91208;
0096066280999992010010302004+46750+007267FM-12+104199999V0202201N001019999999N9999999N1-00891-01421999999ADDMA1999999089811ME1314689REMSYN060AAXX  03024 06628 33/// /2202 11089 21142 38981 48468 5////;
0096066280999992010010303004+46750+007267FM-12+104199999V0201601N002619999999N9999999N1-00981-01451999999ADDMA1999999089781ME1314649REMSYN060AAXX  03034 06628 33/// /1605 11098 21145 38978 48464 5////;
0137066280999992010010304004+46750+007267FM-12+104199999V0201501N003619999999N9999999N1-01051-01271999999ADDMA1999999089741MD1810051+9999ME1314599OA149900511REMSYN076AAXX  03044 06628 33/// /1507 11105 21127 38974 48459 58005 333 91110 91207;
0137066280999992010010305004+46750+007267FM-12+104199999V0201601N003119999999N9999999N1-00981-01381999999ADDMA1999999089701MD1719999+9999ME1314579OA149900511REMSYN076AAXX  03054 06628 33/// /1606 11098 21138 38970 48457 57/// 333 91110 91207;
0215066280999992010010306004+46750+007267FM-12+104199999V0201601N001019999999N9999999N1-00891-01451999999ADDAA124000591AL13600091GJ101629IA2999-00909KA1999N-01161MA1999999089681MD1710101+9999ME1314579OA149900621REMSYN100AAXX  03064 06628 33/// /1602 11089 21145 38968 48457 57010 333 21116 3/109 55027 70006 91112 91209;
0137066280999992010010307004+46750+007267FM-12+104199999V0201601N002619999999N9999999N1-00991-01171999999ADDMA1999999089681MD1710061+9999ME1314559OA149900511REMSYN076AAXX  03074 06628 33/// /1605 11099 21117 38968 48455 57006 333 91110 91206;
0137066280999992010010308004+46750+007267FM-12+104199999V0201801N001519999999N9999999N1-00981-01301999999ADDMA1999999089711MD1319999+9999ME1314589OA149900511REMSYN076AAXX  03084 06628 33/// /1803 11098 21130 38971 48458 53/// 333 91110 91207;
0137066280999992010010309004+46750+007267FM-12+104199999V0201201N001019999999N9999999N1-00811-01151999999ADDMA1999999089741MD1210061+9999ME1314639OA149900511REMSYN076AAXX  03094 06628 33/// /1202 11081 21115 38974 48463 52006 333 91110 91207;
0137066280999992010010310004+46750+007267FM-12+104199999V0201101N001519999999N9999999N1-00761-01131999999ADDMA1999999089691MD1810011+9999ME1314609OA149900211REMSYN076AAXX  03104 06628 33/// /1103 11076 21113 38969 48460 58001 333 91104 91203;
0137066280999992010010311004+46750+007267FM-12+104199999V0209999C001019999999N9999999N1-00781-01261999999ADDMA1999999089651MD1710061+9999ME1314569OA149900211REMSYN076AAXX  03114 06628 33/// /0002 11078 21126 38965 48456 57006 333 91104 91203;
0137066280999992010010312004+46750+007267FM-12+104199999V0201501N001019999999N9999999N1-00821-01271999999ADDMA1999999089591MD1710151+9999ME1314509OA149900621REMSYN076AAXX  03124 06628 33/// /1502 11082 21127 38959 48450 57015 333 91112 91209;
0137066280999992010010313004+46750+007267FM-12+104199999V0201601N002619999999N9999999N1-00741-01161999999ADDMA1999999089551MD1710141+9999ME1314489OA149900461REMSYN076AAXX  03134 06628 33/// /1605 11074 21116 38955 48448 57014 333 91109 91206;
0137066280999992010010314004+46750+007267FM-12+104199999V0202001N000519999999N9999999N1-00781-01111999999ADDMA1999999089571MD1710081+9999ME1314499OA149900461REMSYN076AAXX  03144 06628 33/// /2001 11078 21111 38957 48449 57008 333 91109 91206;
0137066280999992010010315004+46750+007267FM-12+104199999V0202101N002619999999N9999999N1-00661-00881999999ADDMA1999999089581MD1510011+9999ME1314529OA149900461REMSYN076AAXX  03154 06628 33/// /2105 11066 21088 38958 48452 55001 333 91109 91206;
0137066280999992010010316004+46750+007267FM-12+104199999V0201001N001019999999N9999999N1-00801-00981999999ADDMA1999999089561MD1010011+9999ME1314489OA149900411REMSYN076AAXX  03164 06628 33/// /1002 11080 21098 38956 48448 50001 333 91108 91206;
0137066280999992010010317004+46750+007267FM-12+104199999V0201701N001519999999N9999999N1-00731-00951999999ADDMA1999999089521MD1810051+9999ME1314459OA149900411REMSYN076AAXX  03174 06628 33/// /1703 11073 21095 38952 48445 58005 333 91108 91206;
0156066280999992010010318004+46750+007267FM-12+104199999V0201701N002119999999N9999999N1-00751-01061999999ADDKA1120M-00641MA1999999089541MD1710041+9999ME1314479OA149900511REMSYN082AAXX  03184 06628 33/// /1704 11075 21106 38954 48447 57004 333 11064 91110 91207;
0137066280999992010010319004+46750+007267FM-12+104199999V0201601N004119999999N9999999N1-00821-01181999999ADDMA1999999089481MD1710081+9999ME1314419OA149900511REMSYN076AAXX  03194 06628 33/// /1608 11082 21118 38948 48441 57008 333 91110 91208;
0137066280999992010010320004+46750+007267FM-12+104199999V0201601N003619999999N9999999N1-00881-01231999999ADDMA1999999089451MD1710071+9999ME1314379OA149900571REMSYN076AAXX  03204 06628 33/// /1607 11088 21123 38945 48437 57007 333 91111 91208;
0137066280999992010010321004+46750+007267FM-12+104199999V0201501N003119999999N9999999N1-00811-01401999999ADDMA1999999089431MD1710111+9999ME1314379OA149900621REMSYN076AAXX  03214 06628 33/// /1506 11081 21140 38943 48437 57011 333 91112 91210;
0137066280999992010010322004+46750+007267FM-12+104199999V0201701N004619999999N9999999N1-00831-01401999999ADDMA1999999089391MD1710091+9999ME1314339OA149900671REMSYN076AAXX  03224 06628 33/// /1709 11083 21140 38939 48433 57009 333 91113 91210;
0137066280999992010010323004+46750+007267FM-12+104199999V0202301N001019999999N9999999N1-00711-01481999999ADDMA1999999089371MD1710081+9999ME1314339OA149900671REMSYN076AAXX  03234 06628 33/// /2302 11071 21148 38937 48433 57008 333 91113 91209;
0137066280999992010010400004+46750+007267FM-12+104199999V0201701N003119999999N9999999N1-00771-01051999999ADDMA1999999089291MD1710141+9999ME1314259OA149900671REMSYN076AAXX  04004 06628 33/// /1706 11077 21105 38929 48425 57014 333 91113 91210;
0137066280999992010010401004+46750+007267FM-12+104199999V0201701N002119999999N9999999N1-00671-01111999999ADDMA1999999089211MD1810181+9999ME1314209OA149900411REMSYN076AAXX  04014 06628 33/// /1704 11067 21111 38921 48420 58018 333 91108 91206;
0137066280999992010010402004+46750+007267FM-12+104199999V0202001N001519999999N9999999N1-00631-01111999999ADDMA1999999089201MD1710171+9999ME1314199OA149900411REMSYN076AAXX  04024 06628 33/// /2003 11063 21111 38920 48419 57017 333 91108 91206;
0137066280999992010010403004+46750+007267FM-12+104199999V0202901N001019999999N9999999N1-00651-01031999999ADDMA1999999089161MD1719999+9999ME1314169OA149900671REMSYN076AAXX  04034 06628 33/// /2902 11065 21103 38916 48416 57/// 333 91113 91209;
0137066280999992010010404004+46750+007267FM-12+104199999V0202801N000519999999N9999999N1-00651-01281999999ADDMA1999999089121MD1710091+9999ME1314129OA149900211REMSYN076AAXX  04044 06628 33/// /2801 11065 21128 38912 48412 57009 333 91104 91203;
0137066280999992010010405004+46750+007267FM-12+104199999V0202701N000519999999N9999999N1-00591-01241999999ADDMA1999999089131MD1710071+9999ME1314149OA149900151REMSYN076AAXX  04054 06628 33/// /2701 11059 21124 38913 48414 57007 333 91103 91203;
0234066280999992010010406004+46750+007267FM-12+104199999V0201601N001519999999N9999999N1-00611-00741999999ADDAA124000091AL19900091GJ100729IA2999-00909KA1999N-00941MA1999999089101MD1710061+9999ME1314119OA149900671REMSYN100AAXX  04064 06628 33/// /1603 11061 21074 38910 48411 57006 333 21094 3/109 55012 70000 91113 91210;EQDQ01  00002PRCP24
0137066280999992010010407004+46750+007267FM-12+104199999V0200801N000519999999N9999999N1-00741-00871999999ADDMA1999999089081MD1710041+9999ME1314079OA149900411REMSYN076AAXX  04074 06628 33/// /0801 11074 21087 38908 48407 57004 333 91108 91204;
0137066280999992010010408004+46750+007267FM-12+104199999V0201001N000519999999N9999999N1-00761-00871999999ADDMA1999999089081MD1710051+9999ME1314079OA149900411REMSYN076AAXX  04084 06628 33/// /1001 11076 21087 38908 48407 57005 333 91108 91204;
0137066280999992010010409004+46750+007267FM-12+104199999V0209999C000019999999N9999999N1-00751-00831999999ADDMA1999999089091MD1010011+9999ME1314089OA149900411REMSYN076AAXX  04094 06628 33/// /0000 11075 21083 38909 48408 50001 333 91108 91204;
0154066280999992010010410004+46750+007267FM-12+104199999V0200601N000519999999N9999999N1-00661-00871999999ADDAA101000021MA1999999089091MD1210011+9999ME1314099OA149900151REMSYN082AAXX  04104 06628 23/// /0601 11066 21087 38909 48409 52001 333 69915 91103 91202;
0137066280999992010010411004+46750+007267FM-12+104199999V0209999C000019999999N9999999N1-00631-00781999999ADDMA1999999089021MD1810061+9999ME1314049OA149900151REMSYN076AAXX  04114 06628 33/// /0000 11063 21078 38902 48404 58006 333 91103 91202;
0160066280999992010010412004+46750+007267FM-12+104199999V0201901N001019999999N9999999N1-00631-00811999999ADDAA106000391MA1999999088971MD1710121+9999ME1313999OA149900411REMSYN088AAXX  04124 06628 03/// /1902 11063 21081 38897 48399 57012 69931 333 69925 91108 91206;
0154066280999992010010413004+46750+007267FM-12+104199999V0209999C000019999999N9999999N1-00601-00731999999ADDAA101000021MA1999999088901MD1810191+9999ME1313949OA149900151REMSYN082AAXX  04134 06628 23/// /0000 11060 21073 38890 48394 58019 333 69925 91103 91202;
0154066280999992010010414004+46750+007267FM-12+104199999V0200601N001019999999N9999999N1-00591-00651999999ADDAA101000891MA1999999088861MD1619999+9999ME1313909OA149900151REMSYN082AAXX  04144 06628 23/// /0602 11059 21065 38886 48390 56/// 333 69975 91103 91202;
0154066280999992010010415004+46750+007267FM-12+104199999V0209999C000019999999N9999999N1-00631-00661999999ADDAA101000591MA1999999088861MD1710111+9999ME1313909OA149900151REMSYN082AAXX  04154 06628 23/// /0000 11063 21066 38886 48390 57011 333 69955 91103 91202;
0154066280999992010010416004+46750+007267FM-12+104199999V0209999C000019999999N9999999N1-00611-00661999999ADDAA101000891MA1999999088851MD1710051+9999ME1313899OA149900101REMSYN082AAXX  04164 06628 23/// /0000 11061 21066 38885 48389 57005 333 69985 91102 91202;
0154066280999992010010417004+46750+007267FM-12+104199999V0201401N000519999999N9999999N1-00591-00631999999ADDAA101000021MA1999999088831MD1710031+9999ME1313889OA149900101REMSYN082AAXX  04174 06628 23/// /1401 11059 21063 38883 48388 57003 333 69925 91102 91202;
0179066280999992010010418004+46750+007267FM-12+104199999V0209999C000019999999N9999999N1-00571-00621999999ADDAA112003091KA1120M-00551MA1999999088811MD1810051+9999ME1313869OA149900411REMSYN094AAXX  04184 06628 03/// /0000 11057 21062 38881 48386 58005 60032 333 11055 69955 91108 91204;
0154066280999992010010419004+46750+007267FM-12+104199999V0200501N000519999999N9999999N1-00601-00641999999ADDAA101000021MA1999999088791MD1610061+9999ME1313849OA149900151REMSYN082AAXX  04194 06628 23/// /0501 11060 21064 38879 48384 56006 333 69925 91103 91202;
0154066280999992010010420004+46750+007267FM-12+104199999V0209999C000019999999N9999999N1-00661-00711999999ADDAA101000591MA1999999088771MD1710061+9999ME1313819OA149900101REMSYN082AAXX  04204 06628 23/// /0000 11066 21071 38877 48381 57006 333 69945 91102 91201;
0154066280999992010010421004+46750+007267FM-12+104199999V0209999C000019999999N9999999N1-00691-00741999999ADDAA101000591MA1999999088761MD1710051+9999ME1313809OA149900151REMSYN082AAXX  04214 06628 23/// /0000 11069 21074 38876 48380 57005 333 69945 91103 91202;
0154066280999992010010422004+46750+007267FM-12+104199999V0203001N000519999999N9999999N1-00641-00751999999ADDAA101000891MA1999999088731MD1810061+9999ME1313789OA149900101REMSYN082AAXX  04224 06628 23/// /3001 11064 21075 38873 48378 58006 333 69975 91102 91201;
0154066280999992010010423004+46750+007267FM-12+104199999V0209999C000019999999N9999999N1-00651-00721999999ADDAA101000391MA1999999088721MD1610051+9999ME1313779OA149900101REMSYN082AAXX  04234 06628 23/// /0000 11065 21072 38872 48377 56005 333 69935 91102 91202;
0160066280999992010010500004+46750+007267FM-12+104199999V0202001N000519999999N9999999N1-00671-00721999999ADDAA106002091MA1999999088661MD1810101+9999ME1313729OA149900151REMSYN088AAXX  05004 06628 03/// /2001 11067 21072 38866 48372 58010 60021 333 60005 91103 91202;
0154066280999992010010501004+46750+007267FM-12+104199999V0203201N000519999999N9999999N1-00611-00701999999ADDAA101000591MA1999999088601MD1810131+9999ME1313679OA149900101REMSYN082AAXX  05014 06628 23/// /3201 11061 21070 38860 48367 58013 333 69955 91102 91201;
0154066280999992010010502004+46750+007267FM-12+104199999V0201501N000519999999N9999999N1-00671-00741999999ADDAA101000021MA1999999088571MD1610151+9999ME1313649OA149900151REMSYN082AAXX  05024 06628 23/// /1501 11067 21074 38857 48364 56015 333 69915 91103 91201;
0154066280999992010010503004+46750+007267FM-12+104199999V0201301N000519999999N9999999N1-00591-00661999999ADDAA101000021MA1999999088511MD1710151+9999ME1313609OA149900151REMSYN082AAXX  05034 06628 23/// /1301 11059 21066 38851 48360 57015 333 69915 91103 91202;
0154066280999992010010504004+46750+007267FM-12+104199999V0201701N001019999999N9999999N1-00561-00631999999ADDAA101000021MA1999999088441MD1810161+9999ME1313549OA149900151REMSYN082AAXX  05044 06628 23/// /1702 11056 21063 38844 48354 58016 333 69915 91103 91202;
0154066280999992010010505004+46750+007267FM-12+104199999V0200201N000519999999N9999999N1-00611-00671999999ADDAA101000021MA1999999088391MD1810181+9999ME1313499OA149900211REMSYN082AAXX  05054 06628 23/// /0201 11061 21067 38839 48349 58018 333 69915 91104 91203;
0238066280999992010010506004+46750+007267FM-12+104199999V0201101N000519999999N9999999N1-00621-00691999999ADDAA112003091AA224006191AL10600691GJ100009IA2999-00709KA1999N-00701MA1999999088331MD1610181+9999ME1313439OA149900211REMSYN112AAXX  05064 06628 03/// /1101 11062 21069 38833 48343 56018 60032 333 21070 3/107 55000 69915 70061 91104 91203;
0154066280999992010010507004+46750+007267FM-12+104199999V0209999C000019999999N9999999N1-00571-00631999999ADDAA101001091MA1999999088301MD1610141+9999ME1313419OA149900151REMSYN082AAXX  05074 06628 23/// /0000 11057 21063 38830 48341 56014 333 69995 91103 91202;
0154066280999992010010508004+46750+007267FM-12+104199999V0209999C000019999999N9999999N1-00571-00661999999ADDAA101000591MA1999999088291MD1710101+9999ME1313409OA149900151REMSYN082AAXX  05084 06628 23/// /0000 11057 21066 38829 48340 57010 333 69945 91103 91201;
0154066280999992010010509004+46750+007267FM-12+104199999V0203201N000519999999N9999999N1-00581-00641999999ADDAA101000021MA1999999088271MD1710061+9999ME1313399OA149900211REMSYN082AAXX  05094 06628 23/// /3201 11058 21064 38827 48339 57006 333 69915 91104 91203;
0154066280999992010010510004+46750+007267FM-12+104199999V0202701N000519999999N9999999N1-00481-00551999999ADDAA101000391MA1999999088231MD1710071+9999ME1313369OA149900151REMSYN082AAXX  05104 06628 23/// /2701 11048 21055 38823 48336 57007 333 69935 91103 91202;
0154066280999992010010511004+46750+007267FM-12+104199999V0200701N000519999999N9999999N1-00541-00621999999ADDAA101000021MA1999999088161MD1710131+9999ME1313299OA149900101REMSYN082AAXX  05114 06628 23/// /0701 11054 21062 38816 48329 57013 333 69915 91102 91201;
0160066280999992010010512004+46750+007267FM-12+104199999V0201101N000519999999N9999999N1-00501-00581999999ADDAA106002091MA1999999088111MD1810161+9999ME1313259OA149900211REMSYN088AAXX  05124 06628 03/// /1101 11050 21058 38811 48325 58016 60021 333 60005 91104 91203;
0137066280999992010010513004+46750+007267FM-12+104199999V0200801N000519999999N9999999N1-00431-00561999999ADDMA1999999088031MD1810201+9999ME1313199OA149900151REMSYN076AAXX  05134 06628 33/// /0801 11043 21056 38803 48319 58020 333 91103 91202;
0096066280999992010010514004+46750+007267FM-12+104199999V0200801N001019999999N9999999N1-00401-00541999999ADDMA1999999087991ME1313169REMSYN060AAXX  05144 06628 33/// /0802 11040 21054 38799 48316 5////;
0154066280999992010010515004+46750+007267FM-12+104199999V0200601N001019999999N9999999N1-00431-00501999999ADDAA101000021MA1999999087971MD1610141+9999ME1313149OA149900151REMSYN082AAXX  05154 06628 23/// /0602 11043 21050 38797 48314 56014 333 69925 91103 91202;
0154066280999992010010516004+46750+007267FM-12+104199999V0200701N000519999999N9999999N1-00511-00541999999ADDAA101000021MA1999999087951MD1810081+9999ME1313119OA149900151REMSYN082AAXX  05164 06628 23/// /0701 11051 21054 38795 48311 58008 333 69915 91103 91202;
0137066280999992010010517004+46750+007267FM-12+104199999V0200801N000519999999N9999999N1-00381-00461999999ADDMA1999999087941MD1710051+9999ME1313119OA149900151REMSYN076AAXX  05174 06628 33/// /0801 11038 21046 38794 48311 57005 333 91103 91201;
0179066280999992010010518004+46750+007267FM-12+104199999V0201601N000519999999N9999999N1-00511-00551999999ADDAA112002091KA1120M-00381MA1999999087911MD1710061+9999ME1313079OA149900151REMSYN094AAXX  05184 06628 03/// /1601 11051 21055 38791 48307 57006 60022 333 11038 60005 91103 91202;
0137066280999992010010519004+46750+007267FM-12+104199999V0203101N000519999999N9999999N1-00471-00571999999ADDMA1999999087931MD1710021+9999ME1313109OA149900151REMSYN076AAXX  05194 06628 33/// /3101 11047 21057 38793 48310 57002 333 91103 91202;
0137066280999992010010520004+46750+007267FM-12+104199999V0203101N001519999999N9999999N1-00431-00551999999ADDMA1999999087881MD1710061+9999ME1313069OA149900261REMSYN076AAXX  05204 06628 33/// /3103 11043 21055 38788 48306 57006 333 91105 91203;
0137066280999992010010521004+46750+007267FM-12+104199999V0203201N001019999999N9999999N1-00471-00571999999ADDMA1999999087861MD1710051+9999ME1313039OA149900261REMSYN076AAXX  05214 06628 33/// /3202 11047 21057 38786 48303 57005 333 91105 91203;
0137066280999992010010522004+46750+007267FM-12+104199999V0202301N000519999999N9999999N1-00481-00561999999ADDMA1999999087831MD1610101+9999ME1313019OA149900211REMSYN076AAXX  05224 06628 33/// /2301 11048 21056 38783 48301 56010 333 91104 91203;
0154066280999992010010523004+46750+007267FM-12+104199999V0203101N001519999999N9999999N1-00431-00521999999ADDAA101000021MA1999999087831MD1710051+9999ME1313019OA149900261REMSYN082AAXX  05234 06628 23/// /3103 11043 21052 38783 48301 57005 333 69915 91105 91204;
0179066280999992010010600004+46750+007267FM-12+104199999V0203301N001519999999N9999999N1-00431-00501999999ADDAA106000091MA1999999087811MD1710051+9999ME1312999OA149900311REMSYN088AAXX  06004 06628 03/// /3303 11043 21050 38781 48299 57005 69911 333 60005 91106 91204;EQDQ01  00002PRCP06
0154066280999992010010601004+46750+007267FM-12+104199999V0203101N001519999999N9999999N1-00431-00511999999ADDAA101000021MA1999999087801MD1710031+9999ME1312989OA149900311REMSYN082AAXX  06014 06628 23/// /3103 11043 21051 38780 48298 57003 333 69915 91106 91204;
0154066280999992010010602004+46750+007267FM-12+104199999V0203101N002119999999N9999999N1-00411-00491999999ADDAA101000021MA1999999087821MD1510011+9999ME1313009OA149900311REMSYN082AAXX  06024 06628 23/// /3104 11041 21049 38782 48300 55001 333 69915 91106 91204;
0137066280999992010010603004+46750+007267FM-12+104199999V0201901N000519999999N9999999N1-00511-00521999999ADDMA1999999087821MD1310011+9999ME1312999OA149900311REMSYN076AAXX  06034 06628 33/// /1901 11051 21052 38782 48299 53001 333 91106 91204;
0154066280999992010010604004+46750+007267FM-12+104199999V0202701N000519999999N9999999N1-00521-00561999999ADDAA101000391MA1999999087811MD1010011+9999ME1312989OA149900361REMSYN082AAXX  06044 06628 23/// /2701 11052 21056 38781 48298 50001 333 69935 91107 91204;
0137066280999992010010605004+46750+007267FM-12+104199999V0203101N001519999999N9999999N1-00431-00481999999ADDMA1999999087831MD1510011+9999ME1313019OA149900361REMSYN076AAXX  06054 06628 33/// /3103 11043 21048 38783 48301 55001 333 91107 91204;
0238066280999992010010606004+46750+007267FM-12+104199999V0203301N001519999999N9999999N1-00491-00491999999ADDAA112000591AA224002891AL14800291GJ100009IA2999-00709KA1999N-00571MA1999999087841MD1210021+9999ME1313019OA149900361REMSYN112AAXX  06064 06628 03/// /3303 11049 21049 38784 48301 52002 69962 333 21057 3/107 55000 60005 70028 91107 91204;
0137066280999992010010607004+46750+007267FM-12+104199999V0203001N002119999999N9999999N1-00471-00471999999ADDMA1999999087881MD1210071+9999ME1313059OA149900411REMSYN076AAXX  06074 06628 33/// /3004 11047 21047 38788 48305 52007 333 91108 91204;
0137066280999992010010608004+46750+007267FM-12+104199999V0203101N003119999999N9999999N1-00511-00571999999ADDMA1999999087921MD1210091+9999ME1313089OA149900461REMSYN076AAXX  06084 06628 33/// /3106 11051 21057 38792 48308 52009 333 91109 91206;
0137066280999992010010609004+46750+007267FM-12+104199999V0203101N002119999999N9999999N1-00531-00571999999ADDMA1999999087971MD1310131+9999ME1313139OA149900461REMSYN076AAXX  06094 06628 33/// /3104 11053 21057 38797 48313 53013 333 91109 91206;
0137066280999992010010610004+46750+007267FM-12+104199999V0202801N000519999999N9999999N1-00521-00541999999ADDMA1999999088001MD1310121+9999ME1313159OA149900411REMSYN076AAXX  06104 06628 33/// /2801 11052 21054 38800 48315 53012 333 91108 91205;
0137066280999992010010611004+46750+007267FM-12+104199999V0202001N000519999999N9999999N1-00511-00511999999ADDMA1999999087991MD1219999+9999ME1313159OA149900211REMSYN076AAXX  06114 06628 33/// /2001 11051 21051 38799 48315 52/// 333 91104 91203;
0156066280999992010010612004+46750+007267FM-12+104199999V0203101N002119999999N9999999N1-00441-00531999999ADDMA1999999087971MD1410001+9999ME1313139OA149900461REMSYN076AAXX  06124 06628 33/// /3104 11044 21053 38797 48313 58000 333 91109 91206;EQDQ01+000082APCTEN
0137066280999992010010613004+46750+007267FM-12+104199999V0203001N002119999999N9999999N1-00411-00531999999ADDMA1999999087961MD1710041+9999ME1313139OA149900411REMSYN076AAXX  06134 06628 33/// /3004 11041 21053 38796 48313 57004 333 91108 91204;
0137066280999992010010614004+46750+007267FM-12+104199999V0202901N001519999999N9999999N1-00451-00511999999ADDMA1999999087981MD1519999+9999ME1313149OA149900361REMSYN076AAXX  06144 06628 33/// /2903 11045 21051 38798 48314 55/// 333 91107 91204;
0137066280999992010010615004+46750+007267FM-12+104199999V0203001N001519999999N9999999N1-00431-00521999999ADDMA1999999088021MD1219999+9999ME1313189OA149900411REMSYN076AAXX  06154 06628 33/// /3003 11043 21052 38802 48318 52/// 333 91108 91205;
0137066280999992010010616004+46750+007267FM-12+104199999V0203001N002619999999N9999999N1-00441-00571999999ADDMA1999999088081MD1310121+9999ME1313239OA149900511REMSYN076AAXX  06164 06628 33/// /3005 11044 21057 38808 48323 53012 333 91110 91206;
0137066280999992010010617004+46750+007267FM-12+104199999V0202701N001019999999N9999999N1-00531-00671999999ADDMA1999999088111MD1210131+9999ME1313259OA149900511REMSYN076AAXX  06174 06628 33/// /2702 11053 21067 38811 48325 52013 333 91110 91206;
0156066280999992010010618004+46750+007267FM-12+104199999V0203001N001519999999N9999999N1-00551-00651999999ADDKA1120M-00411MA1999999088171MD1219999+9999ME1313309OA149900511REMSYN082AAXX  06184 06628 33/// /3003 11055 21065 38817 48330 52/// 333 11041 91110 91206;
0137066280999992010010619004+46750+007267FM-12+104199999V0201801N001519999999N9999999N1-00681-00931999999ADDMA1999999088181MD1210101+9999ME1313309OA149900461REMSYN076AAXX  06194 06628 33/// /1803 11068 21093 38818 48330 52010 333 91109 91205;
0137066280999992010010620004+46750+007267FM-12+104199999V0202001N001019999999N9999999N1-00561-00991999999ADDMA1999999088191MD1210081+9999ME1313329OA149900461REMSYN076AAXX  06204 06628 33/// /2002 11056 21099 38819 48332 52008 333 91109 91205;
0137066280999992010010621004+46750+007267FM-12+104199999V0203201N002119999999N9999999N1-00591-00711999999ADDMA1999999088241MD1210071+9999ME1313369OA149900511REMSYN076AAXX  06214 06628 33/// /3204 11059 21071 38824 48336 52007 333 91110 91206;
0137066280999992010010622004+46750+007267FM-12+104199999V0202901N002119999999N9999999N1-00541-00671999999ADDMA1999999088271MD1210091+9999ME1313399OA149900461REMSYN076AAXX  06224 06628 33/// /2904 11054 21067 38827 48339 52009 333 91109 91205;
0137066280999992010010623004+46750+007267FM-12+104199999V0202601N001519999999N9999999N1-00511-00711999999ADDMA1999999088301MD1210111+9999ME1313429OA149900461REMSYN076AAXX  06234 06628 33/// /2603 11051 21071 38830 48342 52011 333 91109 91205;
0179066280999992010010700004+46750+007267FM-12+104199999V0201901N000519999999N9999999N1-00591-00811999999ADDAA106000091MA1999999088301MD1210061+9999ME1313419OA149900511REMSYN088AAXX  07004 06628 03/// /1901 11059 21081 38830 48341 52006 69911 333 69915 91110 91206;EQDQ01  00002PRCP06
0137066280999992010010701004+46750+007267FM-12+104199999V0201801N000519999999N9999999N1-00571-00771999999ADDMA1999999088311MD1210041+9999ME1313429OA149900461REMSYN076AAXX  07014 06628 33/// /1801 11057 21077 38831 48342 52004 333 91109 91204;
0137066280999992010010702004+46750+007267FM-12+104199999V0201201N001019999999N9999999N1-00671-00811999999ADDMA1999999088331MD1219999+9999ME1313439OA149900261REMSYN076AAXX  07024 06628 33/// /1202 11067 21081 38833 48343 52/// 333 91105 91202;
0137066280999992010010703004+46750+007267FM-12+104199999V0201701N001019999999N9999999N1-00741-00921999999ADDMA1999999088321MD1210021+9999ME1313419OA149900461REMSYN076AAXX  07034 06628 33/// /1702 11074 21092 38832 48341 52002 333 91109 91205;
0137066280999992010010704004+46750+007267FM-12+104199999V0201601N002119999999N9999999N1-00771-01021999999ADDMA1999999088301MD1810011+9999ME1313399OA149900411REMSYN076AAXX  07044 06628 33/// /1604 11077 21102 38830 48339 58001 333 91108 91205;
0137066280999992010010705004+46750+007267FM-12+104199999V0201501N001519999999N9999999N1-00771-01011999999ADDMA1999999088331MD1510001+9999ME1313429OA149900411REMSYN076AAXX  07054 06628 33/// /1503 11077 21101 38833 48342 55000 333 91108 91205;
0273066280999992010010706004+46750+007267FM-12+104199999V0201501N002119999999N9999999N1-00821-01091999999ADDAA112000091AA224000091AL10600091GJ100009IA2999-01109KA1999N-00801MA1999999088341MD1310021+9999ME1313429OA149900461REMSYN112AAXX  07064 06628 03/// /1504 11082 21109 38834 48342 53002 69912 333 21080 3/111 55000 60005 70001 91109 91205;EQDQ01  00002PRCP24Q02  00002PRCP12
0137066280999992010010707004+46750+007267FM-12+104199999V0200801N000519999999N9999999N1-00731-00941999999ADDMA1999999088391MD1210091+9999ME1313479OA149900361REMSYN076AAXX  07074 06628 33/// /0801 11073 21094 38839 48347 52009 333 91107 91205;
0137066280999992010010708004+46750+007267FM-12+104199999V0201501N002119999999N9999999N1-00831-01041999999ADDMA1999999088441MD1219999+9999ME1313519OA149900311REMSYN076AAXX  07084 06628 33/// /1504 11083 21104 38844 48351 52/// 333 91106 91204;
0137066280999992010010709004+46750+007267FM-12+104199999V0201601N002619999999N9999999N1-00761-01031999999ADDMA1999999088491MD1110151+9999ME1313569OA149900411REMSYN076AAXX  07094 06628 33/// /1605 11076 21103 38849 48356 51015 333 91108 91205;
0137066280999992010010710004+46750+007267FM-12+104199999V0209999C000019999999N9999999N1-00591-00961999999ADDMA1999999088541MD1110151+9999ME1313629OA149900461REMSYN076AAXX  07104 06628 33/// /0000 11059 21096 38854 48362 51015 333 91109 91206;
0137066280999992010010711004+46750+007267FM-12+104199999V0209999C000019999999N9999999N1-00581-00901999999ADDMA1999999088561MD1110121+9999ME1313649OA149900461REMSYN076AAXX  07114 06628 33/// /0000 11058 21090 38856 48364 51012 333 91109 91206;
0137066280999992010010712004+46750+007267FM-12+104199999V0201701N001019999999N9999999N1-00551-00901999999ADDMA1999999088521MD1010031+9999ME1313619OA149900461REMSYN076AAXX  07124 06628 33/// /1702 11055 21090 38852 48361 50003 333 91109 91206;
0137066280999992010010713004+46750+007267FM-12+104199999V0200801N000519999999N9999999N1-00531-00741999999ADDMA1999999088531MD1719999+9999ME1313629OA149900211REMSYN076AAXX  07134 06628 33/// /0801 11053 21074 38853 48362 57/// 333 91104 91203;
0096066280999992010010715004+46750+007267FM-12+104199999V0201801N001019999999N9999999N1-00511-00761999999ADDMA1999999088591ME1313689REMSYN060AAXX  07154 06628 43/// /1802 11051 21076 38859 48368 5////;
0137066280999992010010716004+46750+007267FM-12+104199999V0201401N001519999999N9999999N1-00531-00721999999ADDMA1999999088631MD1319999+9999ME1313719OA149900211REMSYN076AAXX  07164 06628 33/// /1403 11053 21072 38863 48371 53/// 333 91104 91203;
0137066280999992010010717004+46750+007267FM-12+104199999V0201701N001519999999N9999999N1-00491-00761999999ADDMA1999999088651MD1119999+9999ME1313739OA149900211REMSYN076AAXX  07174 06628 33/// /1703 11049 21076 38865 48373 51/// 333 91104 91203;
0156066280999992010010718004+46750+007267FM-12+104199999V0201701N002619999999N9999999N1-00511-00801999999ADDKA1120M-00471MA1999999088681MD1319999+9999ME1313759OA149900461REMSYN082AAXX  07184 06628 33/// /1705 11051 21080 38868 48375 53/// 333 11047 91109 91206;
0137066280999992010010719004+46750+007267FM-12+104199999V0201701N001519999999N9999999N1-00561-00831999999ADDMA1999999088681MD1110051+9999ME1313759OA149900411REMSYN076AAXX  07194 06628 33/// /1703 11056 21083 38868 48375 51005 333 91108 91206;
0137066280999992010010720004+46750+007267FM-12+104199999V0201601N002619999999N9999999N1-00541-00861999999ADDMA1999999088681MD1210031+9999ME1313759OA149900411REMSYN076AAXX  07204 06628 33/// /1605 11054 21086 38868 48375 52003 333 91108 91206;
0137066280999992010010721004+46750+007267FM-12+104199999V0201601N002119999999N9999999N1-00571-00881999999ADDMA1999999088651MD1710031+9999ME1313729OA149900411REMSYN076AAXX  07214 06628 33/// /1604 11057 21088 38865 48372 57003 333 91108 91206;
0137066280999992010010722004+46750+007267FM-12+104199999V0201701N002119999999N9999999N1-00541-00881999999ADDMA1999999088631MD1710051+9999ME1313719OA149900361REMSYN076AAXX  07224 06628 33/// /1704 11054 21088 38863 48371 57005 333 91107 91205;
0137066280999992010010723004+46750+007267FM-12+104199999V0201101N001019999999N9999999N1-00481-00881999999ADDMA1999999088631MD1710051+9999ME1313719OA149900261REMSYN076AAXX  07234 06628 33/// /1102 11048 21088 38863 48371 57005 333 91105 91204;
0137066280999992010010800004+46750+007267FM-12+104199999V0201101N002619999999N9999999N1-00451-00781999999ADDMA1999999088601MD1710051+9999ME1313699OA149900411REMSYN076AAXX  08004 06628 33/// /1105 11045 21078 38860 48369 57005 333 91108 91206;
0137066280999992010010801004+46750+007267FM-12+104199999V0200901N003119999999N9999999N1-00461-00611999999ADDMA1999999088551MD1710081+9999ME1313659OA149900511REMSYN076AAXX  08014 06628 33/// /0906 11046 21061 38855 48365 57008 333 91110 91206;
0137066280999992010010802004+46750+007267FM-12+104199999V0201001N003619999999N9999999N1-00461-00601999999ADDMA1999999088531MD1619999+9999ME1313639OA149900671REMSYN076AAXX  08024 06628 33/// /1007 11046 21060 38853 48363 56/// 333 91113 91207;
0137066280999992010010803004+46750+007267FM-12+104199999V0201001N004619999999N9999999N1-00481-00641999999ADDMA1999999088481MD1619999+9999ME1313589OA149900821REMSYN076AAXX  08034 06628 33/// /1009 11048 21064 38848 48358 56/// 333 91116 91209;
0154066280999992010010804004+46750+007267FM-12+104199999V0200901N004619999999N9999999N1-00521-00701999999ADDAA101000021MA1999999088421MD1810131+9999ME1313529OA149900931REMSYN082AAXX  08044 06628 23/// /0909 11052 21070 38842 48352 58013 333 69915 91118 91209;
0137066280999992010010805004+46750+007267FM-12+104199999V0201001N003619999999N9999999N1-00531-00731999999ADDMA1999999088371MD1710161+9999ME1313489OA149900981REMSYN076AAXX  08054 06628 33/// /1007 11053 21073 38837 48348 57016 333 91119 91210;
0273066280999992010010806004+46750+007267FM-12+104199999V0200901N004119999999N9999999N1-00561-00721999999ADDAA112000091AA224000091AL10600091GJ101629IA2999-00709KA1999N-00591MA1999999088311MD1710171+9999ME1313429OA149900981REMSYN112AAXX  08064 06628 03/// /0908 11056 21072 38831 48342 57017 69912 333 21059 3/107 55027 60005 70001 91119 91210;EQDQ01  00002PRCP24Q02  00002PRCP12
0137066280999992010010807004+46750+007267FM-12+104199999V0200901N004119999999N9999999N1-00581-00721999999ADDMA1999999088261MD1710161+9999ME1313389OA149900981REMSYN076AAXX  08074 06628 33/// /0908 11058 21072 38826 48338 57016 333 91119 91209;
0137066280999992010010808004+46750+007267FM-12+104199999V0200901N005119999999N9999999N1-00561-00721999999ADDMA1999999088211MD1710161+9999ME1313339OA149901031REMSYN076AAXX  08084 06628 33/// /0910 11056 21072 38821 48333 57016 333 91120 91210;
0137066280999992010010809004+46750+007267FM-12+104199999V0201001N004119999999N9999999N1-00571-00681999999ADDMA1999999088171MD1710141+9999ME1313309OA149901031REMSYN076AAXX  08094 06628 33/// /1008 11057 21068 38817 48330 57014 333 91120 91211;
0137066280999992010010810004+46750+007267FM-12+104199999V0200901N003619999999N9999999N1-00571-00671999999ADDMA1999999088141MD1710121+9999ME1313279OA149901031REMSYN076AAXX  08104 06628 33/// /0907 11057 21067 38814 48327 57012 333 91120 91211;
0137066280999992010010811004+46750+007267FM-12+104199999V0200801N003619999999N9999999N1-00601-00661999999ADDMA1999999088081MD1710131+9999ME1313229OA149901031REMSYN076AAXX  08114 06628 33/// /0807 11060 21066 38808 48322 57013 333 91120 91210;
0137066280999992010010812004+46750+007267FM-12+104199999V0200701N003119999999N9999999N1-00641-00661999999ADDMA1999999088031MD1810141+9999ME1313179OA149901031REMSYN076AAXX  08124 06628 33/// /0706 11064 21066 38803 48317 58014 333 91120 91211;
0137066280999992010010813004+46750+007267FM-12+104199999V0200701N003619999999N9999999N1-00661-00701999999ADDMA1999999087991MD1610151+9999ME1313139OA149900931REMSYN076AAXX  08134 06628 33/// /0707 11066 21070 38799 48313 56015 333 91118 91208;
0143066280999992010010814004+46750+007267FM-12+104199999V0200801N003119999999N9999999N1-00671-00711999999ADDMA1999999087981MD1619999+9999ME1313129OA149900881REMSYN082AAXX  08144 06628 33/// /0806 11067 21071 38798 48312 56/// 91340 333 91117 91207;
0137066280999992010010815004+46750+007267FM-12+104199999V0200901N002619999999N9999999N1-00661-00711999999ADDMA1999999088061MD1310031+9999ME1313199OA149901031REMSYN076AAXX  08154 06628 33/// /0905 11066 21071 38806 48319 53003 333 91120 91210;
0137066280999992010010816004+46750+007267FM-12+104199999V0200901N002119999999N9999999N1-00661-00691999999ADDMA1999999088081MD1210091+9999ME1313219OA149900721REMSYN076AAXX  08164 06628 33/// /0904 11066 21069 38808 48321 52009 333 91114 91205;
0137066280999992010010817004+46750+007267FM-12+104199999V0201001N003619999999N9999999N1-00651-00701999999ADDMA1999999088081MD1210091+9999ME1313219OA149900671REMSYN076AAXX  08174 06628 33/// /1007 11065 21070 38808 48321 52009 333 91113 91207;
0156066280999992010010818004+46750+007267FM-12+104199999V0201001N003619999999N9999999N1-00661-00701999999ADDKA1120M-00561MA1999999088031MD1810031+9999ME1313179OA149901031REMSYN082AAXX  08184 06628 33/// /1007 11066 21070 38803 48317 58003 333 11056 91120 91211;
0137066280999992010010819004+46750+007267FM-12+104199999V0200901N002119999999N9999999N1-00661-00721999999ADDMA1999999088051MD1510031+9999ME1313189OA149900771REMSYN076AAXX  08194 06628 33/// /0904 11066 21072 38805 48318 55003 333 91115 91208;
0137066280999992010010820004+46750+007267FM-12+104199999V0200901N002119999999N9999999N1-00641-00711999999ADDMA1999999088071MD1310011+9999ME1313209OA149900571REMSYN076AAXX  08204 06628 33/// /0904 11064 21071 38807 48320 53001 333 91111 91205;
0154066280999992010010821004+46750+007267FM-12+104199999V0200901N001519999999N9999999N1-00641-00751999999ADDAA101000021MA1999999088081MD1210051+9999ME1313219OA149900771REMSYN082AAXX  08214 06628 23/// /0903 11064 21075 38808 48321 52005 333 69925 91115 91208;
0154066280999992010010822004+46750+007267FM-12+104199999V0200801N001519999999N9999999N1-00671-00731999999ADDAA101000021MA1999999088121MD1210071+9999ME1313249OA149900461REMSYN082AAXX  08224 06628 23/// /0803 11067 21073 38812 48324 52007 333 69915 91109 91204;
0154066280999992010010823004+46750+007267FM-12+104199999V0200701N002119999999N9999999N1-00701-00771999999ADDAA101000591MA1999999088121MD1210051+9999ME1313249OA149900461REMSYN082AAXX  08234 06628 23/// /0704 11070 21077 38812 48324 52005 333 69945 91109 91204;
0160066280999992010010900004+46750+007267FM-12+104199999V0200901N001519999999N9999999N1-00721-00751999999ADDAA106000891MA1999999088091MD1010011+9999ME1313219OA149900881REMSYN088AAXX  09004 06628 03/// /0903 11072 21075 38809 48321 50001 69971 333 60005 91117 91208;
0137066280999992010010901004+46750+007267FM-12+104199999V0200701N001519999999N9999999N1-00721-00751999999ADDMA1999999088101MD1510021+9999ME1313229OA149900411REMSYN076AAXX  09014 06628 33/// /0703 11072 21075 38810 48322 55002 333 91108 91204;
0137066280999992010010902004+46750+007267FM-12+104199999V0200701N001519999999N9999999N1-00731-00761999999ADDMA1999999088111MD1519999+9999ME1313239OA149900411REMSYN076AAXX  09024 06628 33/// /0703 11073 21076 38811 48323 55/// 333 91108 91204;
0137066280999992010010903004+46750+007267FM-12+104199999V0200701N001519999999N9999999N1-00741-00761999999ADDMA1999999088101MD1219999+9999ME1313229OA149900461REMSYN076AAXX  09034 06628 33/// /0703 11074 21076 38810 48322 52/// 333 91109 91204;
0137066280999992010010904004+46750+007267FM-12+104199999V0200801N001019999999N9999999N1-00771-00791999999ADDMA1999999088061MD1810041+9999ME1313189OA149900311REMSYN076AAXX  09044 06628 33/// /0802 11077 21079 38806 48318 58004 333 91106 91203;
0137066280999992010010905004+46750+007267FM-12+104199999V0200601N002119999999N9999999N1-00781-00831999999ADDMA1999999088021MD1610091+9999ME1313149OA149900261REMSYN076AAXX  09054 06628 33/// /0604 11078 21083 38802 48314 56009 333 91105 91204;
0238066280999992010010906004+46750+007267FM-12+104199999V0200701N001019999999N9999999N1-00801-00821999999ADDAA112000891AA224000891AL14200091GJ100009IA2999-00809KA1999N-00801MA1999999087971MD1610131+9999ME1313109OA149900571REMSYN112AAXX  09064 06628 03/// /0702 11080 21082 38797 48310 56013 69972 333 21080 3/108 55000 60005 70007 91111 91205;
0137066280999992010010907004+46750+007267FM-12+104199999V0200701N001519999999N9999999N1-00791-00831999999ADDMA1999999087981MD1710081+9999ME1313119OA149900261REMSYN076AAXX  09074 06628 33/// /0703 11079 21083 38798 48311 57008 333 91105 91203;
0137066280999992010010908004+46750+007267FM-12+104199999V0200601N001519999999N9999999N1-00811-00851999999ADDMA1999999088021MD1510001+9999ME1313149OA149900261REMSYN076AAXX  09084 06628 33/// /0603 11081 21085 38802 48314 55000 333 91105 91203;
0137066280999992010010909004+46750+007267FM-12+104199999V0200901N001019999999N9999999N1-00821-00851999999ADDMA1999999088041MD1310071+9999ME1313169OA149900261REMSYN076AAXX  09094 06628 33/// /0902 11082 21085 38804 48316 53007 333 91105 91204;
0137066280999992010010910004+46750+007267FM-12+104199999V0200701N001019999999N9999999N1-00831-00871999999ADDMA1999999088041MD1210061+9999ME1313169OA149900261REMSYN076AAXX  09104 06628 33/// /0702 11083 21087 38804 48316 52006 333 91105 91203;
0137066280999992010010911004+46750+007267FM-12+104199999V0200801N001019999999N9999999N1-00851-00891999999ADDMA1999999088001MD1810021+9999ME1313129OA149900261REMSYN076AAXX  09114 06628 33/// /0802 11085 21089 38800 48312 58002 333 91105 91203;
0137066280999992010010912004+46750+007267FM-12+104199999V0200701N001019999999N9999999N1-00861-00901999999ADDMA1999999088001MD1710041+9999ME1313129OA149900411REMSYN076AAXX  09124 06628 33/// /0702 11086 21090 38800 48312 57004 333 91108 91204;
0137066280999992010010913004+46750+007267FM-12+104199999V0200601N001019999999N9999999N1-00841-00891999999ADDMA1999999087981MD1710061+9999ME1313109OA149900211REMSYN076AAXX  09134 06628 33/// /0602 11084 21089 38798 48310 57006 333 91104 91203;
0137066280999992010010914004+46750+007267FM-12+104199999V0200601N001519999999N9999999N1-00861-00901999999ADDMA1999999088001MD1510001+9999ME1313129OA149900211REMSYN076AAXX  09144 06628 33/// /0603 11086 21090 38800 48312 55000 333 91104 91203;
0137066280999992010010915004+46750+007267FM-12+104199999V0200601N001519999999N9999999N1-00871-00901999999ADDMA1999999088021MD1310021+9999ME1313139OA149900261REMSYN076AAXX  09154 06628 33/// /0603 11087 21090 38802 48313 53002 333 91105 91203;
0154066280999992010010916004+46750+007267FM-12+104199999V0200601N001519999999N9999999N1-00881-00941999999ADDAA101000021MA1999999088041MD1210061+9999ME1313159OA149900211REMSYN082AAXX  09164 06628 23/// /0603 11088 21094 38804 48315 52006 333 69915 91104 91203;
0154066280999992010010917004+46750+007267FM-12+104199999V0200601N001519999999N9999999N1-00891-01001999999ADDAA101000021MA1999999088051MD1210051+9999ME1313169OA149900211REMSYN082AAXX  09174 06628 23/// /0603 11089 21100 38805 48316 52005 333 69925 91104 91203;
0179066280999992010010918004+46750+007267FM-12+104199999V0200701N001519999999N9999999N1-00901-00981999999ADDAA112000391KA1120M-00791MA1999999088071MD1210051+9999ME1313179OA149900261REMSYN094AAXX  09184 06628 03/// /0703 11090 21098 38807 48317 52005 69932 333 11079 60005 91105 91203;
0137066280999992010010919004+46750+007267FM-12+104199999V0200701N001019999999N9999999N1-00891-00931999999ADDMA1999999088131MD1310091+9999ME1313239OA149900211REMSYN076AAXX  09194 06628 33/// /0702 11089 21093 38813 48323 53009 333 91104 91203;
0137066280999992010010920004+46750+007267FM-12+104199999V0200601N001019999999N9999999N1-00891-00961999999ADDMA1999999088171MD1310121+9999ME1313269OA149900211REMSYN076AAXX  09204 06628 33/// /0602 11089 21096 38817 48326 53012 333 91104 91202;
0154066280999992010010921004+46750+007267FM-12+104199999V0200701N001019999999N9999999N1-00911-00991999999ADDAA101000021MA1999999088211MD1210141+9999ME1313309OA149900211REMSYN082AAXX  09214 06628 23/// /0702 11091 21099 38821 48330 52014 333 69915 91104 91203;
0154066280999992010010922004+46750+007267FM-12+104199999V0200601N000519999999N9999999N1-00911-00991999999ADDAA101000021MA1999999088221MD1210091+9999ME1313309OA149900151REMSYN082AAXX  09224 06628 23/// /0601 11091 21099 38822 48330 52009 333 69915 91103 91202;
0137066280999992010010923004+46750+007267FM-12+104199999V0200601N000519999999N9999999N1-00931-01051999999ADDMA1999999088271MD1210101+9999ME1313359OA149900151REMSYN076AAXX  09234 06628 33/// /0601 11093 21105 38827 48335 52010 333 91103 91202;
0179066280999992010011000004+46750+007267FM-12+104199999V0209999C000019999999N9999999N1-00941-01001999999ADDAA106000091MA1999999088291MD1210081+9999ME1313369OA149900211REMSYN088AAXX  10004 06628 03/// /0000 11094 21100 38829 48336 52008 69921 333 60005 91104 91203;EQDQ01  00002PRCP06
0137066280999992010011001004+46750+007267FM-12+104199999V0209999C000019999999N9999999N1-00941-00981999999ADDMA1999999088341MD1310121+9999ME1313419OA149900101REMSYN076AAXX  10014 06628 33/// /0000 11094 21098 38834 48341 53012 333 91102 91201;
0096066280999992010011002004+46750+007267FM-12+104199999V0200501N000519999999N9999999N1-00931-01031999999ADDMA1999999088391ME1313459REMSYN060AAXX  10024 06628 33/// /0501 11093 21103 38839 48345 5////;
0096066280999992010011003004+46750+007267FM-12+104199999V0209999C000019999999N9999999N1-00961-00981999999ADDMA1999999088431ME1313489REMSYN060AAXX  10034 06628 43/// /0000 11096 21098 38843 48348 5////;
0137066280999992010011004004+46750+007267FM-12+104199999V0201601N000519999999N9999999N1-00981-01001999999ADDMA1999999088481MD1110141+9999ME1313529OA149900051REMSYN076AAXX  10044 06628 33/// /1601 11098 21100 38848 48352 51014 333 91101 91201;
0137066280999992010011005004+46750+007267FM-12+104199999V0201701N000519999999N9999999N1-01041-01151999999ADDMA1999999088531MD1310141+9999ME1313569OA149900151REMSYN076AAXX  10054 06628 33/// /1701 11104 21115 38853 48356 53014 333 91103 91202;
0257066280999992010011006004+46750+007267FM-12+104199999V0201601N000519999999N9999999N1-01011-01151999999ADDAA112000091AA224000591AL13000091GJ100009IA2999-01209KA1999N-01041MA1999999088551MD1110121+9999ME1313589OA149900211REMSYN112AAXX  10064 06628 03/// /1601 11101 21115 38855 48358 51012 69922 333 21104 3/112 55000 60005 70005 91104 91202;EQDQ01  00002PRCP12
0137066280999992010011007004+46750+007267FM-12+104199999V0201401N000519999999N9999999N1-01001-01041999999ADDMA1999999088651MD1310171+9999ME1313679OA149900101REMSYN076AAXX  10074 06628 33/// /1401 11100 21104 38865 48367 53017 333 91102 91201;
0137066280999992010011008004+46750+007267FM-12+104199999V0209999C000019999999N9999999N1-01001-01181999999ADDMA1999999088711MD1319999+9999ME1313729OA149900101REMSYN076AAXX  10084 06628 33/// /0000 11100 21118 38871 48372 53/// 333 91102 91201;
0137066280999992010011009004+46750+007267FM-12+104199999V0201601N000519999999N9999999N1-00961-01171999999ADDMA1999999088771MD1210221+9999ME1313789OA149900151REMSYN076AAXX  10094 06628 33/// /1601 11096 21117 38877 48378 52022 333 91103 91202;
0137066280999992010011010004+46750+007267FM-12+104199999V0209999C000019999999N9999999N1-00901-01071999999ADDMA1999999088831MD1210181+9999ME1313849OA149900101REMSYN076AAXX  10104 06628 33/// /0000 11090 21107 38883 48384 52018 333 91102 91201;
0137066280999992010011011004+46750+007267FM-12+104199999V0209999C000019999999N9999999N1-00871-01021999999ADDMA1999999088861MD1110151+9999ME1313869OA149900051REMSYN076AAXX  10114 06628 33/// /0000 11087 21102 38886 48386 51015 333 91101 91201;
0137066280999992010011012004+46750+007267FM-12+104199999V0209999C000019999999N9999999N1-00811-01001999999ADDMA1999999088881MD1110111+9999ME1313899OA149900151REMSYN076AAXX  10124 06628 33/// /0000 11081 21100 38888 48389 51011 333 91103 91202;
0137066280999992010011013004+46750+007267FM-12+104199999V0209999C000019999999N9999999N1-00771-00941999999ADDMA1999999088921MD1110091+9999ME1313939OA149900051REMSYN076AAXX  10134 06628 33/// /0000 11077 21094 38892 48393 51009 333 91101 91201;
0137066280999992010011014004+46750+007267FM-12+104199999V0209999C000019999999N9999999N1-00751-00941999999ADDMA1999999088951MD1219999+9999ME1313969OA149900051REMSYN076AAXX  10144 06628 33/// /0000 11075 21094 38895 48396 52/// 333 91101 91201;
0137066280999992010011015004+46750+007267FM-12+104199999V0209999C000019999999N9999999N1-00771-00901999999ADDMA1999999088991MD1210111+9999ME1313999OA149900101REMSYN076AAXX  10154 06628 33/// /0000 11077 21090 38899 48399 52011 333 91102 91201;
0137066280999992010011016004+46750+007267FM-12+104199999V0200801N000519999999N9999999N1-00811-00911999999ADDMA1999999089031MD1210111+9999ME1314029OA149900101REMSYN076AAXX  10164 06628 33/// /0801 11081 21091 38903 48402 52011 333 91102 91201;
0137066280999992010011017004+46750+007267FM-12+104199999V0201101N000519999999N9999999N1-00801-00911999999ADDMA1999999089061MD1210111+9999ME1314059OA149900051REMSYN076AAXX  10174 06628 33/// /1101 11080 21091 38906 48405 52011 333 91101 91201;
0156066280999992010011018004+46750+007267FM-12+104199999V0209999C000019999999N9999999N1-00811-00951999999ADDKA1120M-00751MA1999999089081MD1110091+9999ME1314069OA149900101REMSYN082AAXX  10184 06628 33/// /0000 11081 21095 38908 48406 51009 333 11075 91102 91201;
0137066280999992010011019004+46750+007267FM-12+104199999V0201701N000519999999N9999999N1-00841-00941999999ADDMA1999999089101MD1110071+9999ME1314089OA149900101REMSYN076AAXX  10194 06628 33/// /1701 11084 21094 38910 48408 51007 333 91102 91201;
0137066280999992010011020004+46750+007267FM-12+104199999V0201701N001019999999N9999999N1-00841-01071999999ADDMA1999999089101MD1210041+9999ME1314089OA149900151REMSYN076AAXX  10204 06628 33/// /1702 11084 21107 38910 48408 52004 333 91103 91202;
0137066280999992010011021004+46750+007267FM-12+104199999V0201601N001019999999N9999999N1-00941-01131999999ADDMA1999999089101MD1210021+9999ME1314069OA149900151REMSYN076AAXX  10214 06628 33/// /1602 11094 21113 38910 48406 52002 333 91103 91202;
0137066280999992010011022004+46750+007267FM-12+104199999V0201601N000519999999N9999999N1-00971-01161999999ADDMA1999999089071MD1710031+9999ME1314039OA149900151REMSYN076AAXX  10224 06628 33/// /1601 11097 21116 38907 48403 57003 333 91103 91203;
0137066280999992010011023004+46750+007267FM-12+104199999V0201601N000519999999N9999999N1-00941-01141999999ADDMA1999999089121MD1310021+9999ME1314089OA149900151REMSYN076AAXX  10234 06628 33/// /1601 11094 21114 38912 48408 53002 333 91103 91203;
0137066280999992010011100004+46750+007267FM-12+104199999V0201601N001019999999N9999999N1-01031-01251999999ADDMA1999999089141MD1210041+9999ME1314089OA149900151REMSYN076AAXX  11004 06628 33/// /1602 11103 21125 38914 48408 52004 333 91103 91203;
0137066280999992010011101004+46750+007267FM-12+104199999V0201501N001019999999N9999999N1-00971-01211999999ADDMA1999999089161MD1110091+9999ME1314119OA149900151REMSYN076AAXX  11014 06628 33/// /1502 11097 21121 38916 48411 51009 333 91103 91203;
0137066280999992010011102004+46750+007267FM-12+104199999V0201601N001519999999N9999999N1-00991-01221999999ADDMA1999999089131MD1019999+9999ME1314089OA149900211REMSYN076AAXX  11024 06628 33/// /1603 11099 21122 38913 48408 50/// 333 91104 91203;
0137066280999992010011103004+46750+007267FM-12+104199999V0202501N000519999999N9999999N1-00911-01121999999ADDMA1999999089131MD1719999+9999ME1314099OA149900211REMSYN076AAXX  11034 06628 33/// /2501 11091 21112 38913 48409 57/// 333 91104 91203;
0137066280999992010011104004+46750+007267FM-12+104199999V0201101N000519999999N9999999N1-01031-01251999999ADDMA1999999089111MD1710051+9999ME1314069OA149900151REMSYN076AAXX  11044 06628 33/// /1101 11103 21125 38911 48406 57005 333 91103 91202;
0137066280999992010011105004+46750+007267FM-12+104199999V0201301N000519999999N9999999N1-00991-01171999999ADDMA1999999089111MD1710021+9999ME1314069OA149900101REMSYN076AAXX  11054 06628 33/// /1301 11099 21117 38911 48406 57002 333 91102 91201;
0234066280999992010011106004+46750+007267FM-12+104199999V0201601N000519999999N9999999N1-00991-01151999999ADDAA124000091AL19900091GJ100009IA2999-01409KA1999N-01061MA1999999089081MD1710051+9999ME1314049OA149900211REMSYN100AAXX  11064 06628 33/// /1601 11099 21115 38908 48404 57005 333 21106 3/114 55000 70000 91104 91203;EQDQ01  00002PRCP24
0137066280999992010011107004+46750+007267FM-12+104199999V0201501N001019999999N9999999N1-01001-01171999999ADDMA1999999089081MD1710031+9999ME1314049OA149900151REMSYN076AAXX  11074 06628 33/// /1502 11100 21117 38908 48404 57003 333 91103 91202;
0137066280999992010011108004+46750+007267FM-12+104199999V0201601N000519999999N9999999N1-00971-01081999999ADDMA1999999089121MD1319999+9999ME1314089OA149900101REMSYN076AAXX  11084 06628 33/// /1601 11097 21108 38912 48408 53/// 333 91102 91202;
0137066280999992010011109004+46750+007267FM-12+104199999V0202701N000519999999N9999999N1-00901-00961999999ADDMA1999999089161MD1210081+9999ME1314129OA149900151REMSYN076AAXX  11094 06628 33/// /2701 11090 21096 38916 48412 52008 333 91103 91202;
0137066280999992010011110004+46750+007267FM-12+104199999V0202801N001019999999N9999999N1-00801-00901999999ADDMA1999999089191MD1119999+9999ME1314169OA149900151REMSYN076AAXX  11104 06628 33/// /2802 11080 21090 38919 48416 51/// 333 91103 91202;
0137066280999992010011111004+46750+007267FM-12+104199999V0202601N000519999999N9999999N1-00791-00881999999ADDMA1999999089201MD1210081+9999ME1314179OA149900211REMSYN076AAXX  11114 06628 33/// /2601 11079 21088 38920 48417 52008 333 91104 91202;
0137066280999992010011112004+46750+007267FM-12+104199999V0203101N000519999999N9999999N1-00671-00811999999ADDMA1999999089171MD1010011+9999ME1314169OA149900211REMSYN076AAXX  11124 06628 33/// /3101 11067 21081 38917 48416 50001 333 91104 91203;
0137066280999992010011113004+46750+007267FM-12+104199999V0209999C000019999999N9999999N1-00681-00781999999ADDMA1999999089141MD1710051+9999ME1314139OA149900151REMSYN076AAXX  11134 06628 33/// /0000 11068 21078 38914 48413 57005 333 91103 91201;
0096066280999992010011114004+46750+007267FM-12+104199999V0209999C000019999999N9999999N1-00711-00791999999ADDMA1999999089171ME1314169REMSYN060AAXX  11144 06628 33/// /0000 11071 21079 38917 48416 5////;
0137066280999992010011115004+46750+007267FM-12+104199999V0209999C000019999999N9999999N1-00701-00771999999ADDMA1999999089181MD1310011+9999ME1314179OA149900211REMSYN076AAXX  11154 06628 33/// /0000 11070 21077 38918 48417 53001 333 91104 91202;
0137066280999992010011116004+46750+007267FM-12+104199999V0209999C000019999999N9999999N1-00721-00771999999ADDMA1999999089211MD1210071+9999ME1314199OA149900051REMSYN076AAXX  11164 06628 33/// /0000 11072 21077 38921 48419 52007 333 91101 91201;
0137066280999992010011117004+46750+007267FM-12+104199999V0209999C000019999999N9999999N1-00751-00791999999ADDMA1999999089231MD1210061+9999ME1314209OA149900051REMSYN076AAXX  11174 06628 33/// /0000 11075 21079 38923 48420 52006 333 91101 91201;
0156066280999992010011118004+46750+007267FM-12+104199999V0202101N000519999999N9999999N1-00761-00791999999ADDKA1120M-00641MA1999999089261MD1210081+9999ME1314239OA149900211REMSYN082AAXX  11184 06628 33/// /2101 11076 21079 38926 48423 52008 333 11064 91104 91202;
0137066280999992010011119004+46750+007267FM-12+104199999V0201201N000519999999N9999999N1-00721-00791999999ADDMA1999999089281MD1210071+9999ME1314259OA149900101REMSYN076AAXX  11194 06628 33/// /1201 11072 21079 38928 48425 52007 333 91102 91201;
0137066280999992010011120004+46750+007267FM-12+104199999V0200501N000519999999N9999999N1-00681-00791999999ADDMA1999999089321MD1210091+9999ME1314299OA149900101REMSYN076AAXX  11204 06628 33/// /0501 11068 21079 38932 48429 52009 333 91102 91201;
0137066280999992010011121004+46750+007267FM-12+104199999V0201001N000519999999N9999999N1-00621-00771999999ADDMA1999999089321MD1210061+9999ME1314309OA149900101REMSYN076AAXX  11214 06628 33/// /1001 11062 21077 38932 48430 52006 333 91102 91201;
0137066280999992010011122004+46750+007267FM-12+104199999V0209999C000019999999N9999999N1-00651-00761999999ADDMA1999999089351MD1210071+9999ME1314329OA149900101REMSYN076AAXX  11224 06628 33/// /0000 11065 21076 38935 48432 52007 333 91102 91201;
0137066280999992010011123004+46750+007267FM-12+104199999V0203401N000519999999N9999999N1-00711-00811999999ADDMA1999999089341MD1210021+9999ME1314309OA149900101REMSYN076AAXX  11234 06628 33/// /3401 11071 21081 38934 48430 52002 333 91102 91201;
0137066280999992010011200004+46750+007267FM-12+104199999V0203101N000519999999N9999999N1-00791-00801999999ADDMA1999999089341MD1010021+9999ME1314299OA149900151REMSYN076AAXX  12004 06628 33/// /3101 11079 21080 38934 48429 50002 333 91103 91201;
0137066280999992010011201004+46750+007267FM-12+104199999V0201301N000519999999N9999999N1-00801-00811999999ADDMA1999999089331MD1710021+9999ME1314289OA149900101REMSYN076AAXX  12014 06628 33/// /1301 11080 21081 38933 48428 57002 333 91102 91201;
0137066280999992010011202004+46750+007267FM-12+104199999V0201601N000519999999N9999999N1-00751-00781999999ADDMA1999999089311MD1819999+9999ME1314279OA149900101REMSYN076AAXX  12024 06628 33/// /1601 11075 21078 38931 48427 58/// 333 91102 91201;
0137066280999992010011203004+46750+007267FM-12+104199999V0209999C000019999999N9999999N1-00691-00761999999ADDMA1999999089321MD1710021+9999ME1314299OA149900101REMSYN076AAXX  12034 06628 33/// /0000 11069 21076 38932 48429 57002 333 91102 91201;
0137066280999992010011204004+46750+007267FM-12+104199999V0209999C000019999999N9999999N1-00771-00781999999ADDMA1999999089281MD1710051+9999ME1314249OA149900101REMSYN076AAXX  12044 06628 33/// /0000 11077 21078 38928 48424 57005 333 91102 91201;
0137066280999992010011205004+46750+007267FM-12+104199999V0200701N000519999999N9999999N1-00731-00731999999ADDMA1999999089271MD1710041+9999ME1314249OA149900051REMSYN076AAXX  12054 06628 33/// /0701 11073 21073 38927 48424 57004 333 91101 91201;
0234066280999992010011206004+46750+007267FM-12+104199999V0209999C000019999999N9999999N1-00701-00701999999ADDAA124000091AL19900091GJ100789IA2999-01109KA1999N-00831MA1999999089241MD1610081+9999ME1314229OA149900101REMSYN100AAXX  12064 06628 33/// /0000 11070 21070 38924 48422 56008 333 21083 3/111 55013 70000 91102 91201;EQDQ01  00002PRCP24
0137066280999992010011207004+46750+007267FM-12+104199999V0209999C000019999999N9999999N1-00711-00711999999ADDMA1999999089181MD1810101+9999ME1314169OA149900051REMSYN076AAXX  12074 06628 33/// /0000 11071 21071 38918 48416 58010 333 91101 91201;
0137066280999992010011208004+46750+007267FM-12+104199999V0200501N000519999999N9999999N1-00711-00721999999ADDMA1999999089141MD1619999+9999ME1314139OA149900101REMSYN076AAXX  12084 06628 33/// /0501 11071 21072 38914 48413 56/// 333 91102 91201;
0137066280999992010011209004+46750+007267FM-12+104199999V0209999C000019999999N9999999N1-00731-00751999999ADDMA1999999089081MD1810161+9999ME1314079OA149900101REMSYN076AAXX  12094 06628 33/// /0000 11073 21075 38908 48407 58016 333 91102 91201;
0137066280999992010011210004+46750+007267FM-12+104199999V0209999C000019999999N9999999N1-00711-00711999999ADDMA1999999089051MD1710131+9999ME1314059OA149900101REMSYN076AAXX  12104 06628 33/// /0000 11071 21071 38905 48405 57013 333 91102 91201;
0137066280999992010011211004+46750+007267FM-12+104199999V0202001N000519999999N9999999N1-00711-00731999999ADDMA1999999088961MD1710181+9999ME1313979OA149900051REMSYN076AAXX  12114 06628 33/// /2001 11071 21073 38896 48397 57018 333 91101 91201;
0137066280999992010011212004+46750+007267FM-12+104199999V0209999C000019999999N9999999N1-00691-00701999999ADDMA1999999088921MD1710161+9999ME1313949OA149900101REMSYN076AAXX  12124 06628 33/// /0000 11069 21070 38892 48394 57016 333 91102 91201;
0137066280999992010011213004+46750+007267FM-12+104199999V0209999C000019999999N9999999N1-00671-00701999999ADDMA1999999088841MD1710211+9999ME1313879OA149900101REMSYN076AAXX  12134 06628 33/// /0000 11067 21070 38884 48387 57021 333 91102 91201;
0096066280999992010011214004+46750+007267FM-12+104199999V0209999C000019999999N9999999N1-00691-00701999999ADDMA1999999088761ME1313809REMSYN060AAXX  12144 06628 33/// /0000 11069 21070 38876 48380 5////;
0137066280999992010011215004+46750+007267FM-12+104199999V0201201N000519999999N9999999N1-00711-00721999999ADDMA1999999088671MD1710251+9999ME1313729OA149900101REMSYN076AAXX  12154 06628 33/// /1201 11071 21072 38867 48372 57025 333 91102 91201;
0137066280999992010011216004+46750+007267FM-12+104199999V0209999C000019999999N9999999N1-00711-00721999999ADDMA1999999088571MD1710271+9999ME1313639OA149900101REMSYN076AAXX  12164 06628 33/// /0000 11071 21072 38857 48363 57027 333 91102 91201;
0137066280999992010011217004+46750+007267FM-12+104199999V0201401N000519999999N9999999N1-00731-00731999999ADDMA1999999088551MD1710211+9999ME1313619OA149900101REMSYN076AAXX  12174 06628 33/// /1401 11073 21073 38855 48361 57021 333 91102 91201;
0156066280999992010011218004+46750+007267FM-12+104199999V0203101N000519999999N9999999N1-00731-00791999999ADDKA1120M-00651MA1999999088521MD1710151+9999ME1313599OA149900101REMSYN082AAXX  12184 06628 33/// /3101 11073 21079 38852 48359 57015 333 11065 91102 91201;
0137066280999992010011219004+46750+007267FM-12+104199999V0202901N000519999999N9999999N1-00751-00791999999ADDMA1999999088501MD1710071+9999ME1313579OA149900101REMSYN076AAXX  12194 06628 33/// /2901 11075 21079 38850 48357 57007 333 91102 91201;
0137066280999992010011220004+46750+007267FM-12+104199999V0209999C000019999999N9999999N1-00781-00791999999ADDMA1999999088441MD1710111+9999ME1313519OA149900101REMSYN076AAXX  12204 06628 33/// /0000 11078 21079 38844 48351 57011 333 91102 91201;
0137066280999992010011221004+46750+007267FM-12+104199999V0209999C000019999999N9999999N1-00821-00841999999ADDMA1999999088411MD1710111+9999ME1313489OA149900101REMSYN076AAXX  12214 06628 33/// /0000 11082 21084 38841 48348 57011 333 91102 91201;
0137066280999992010011222004+46750+007267FM-12+104199999V0209999C000019999999N9999999N1-00831-00861999999ADDMA1999999088361MD1610141+9999ME1313449OA149900051REMSYN076AAXX  12224 06628 33/// /0000 11083 21086 38836 48344 56014 333 91101 91201;
0137066280999992010011223004+46750+007267FM-12+104199999V0201901N000519999999N9999999N1-00781-00831999999ADDMA1999999088431MD1510011+9999ME1313509OA149900101REMSYN076AAXX  12234 06628 33/// /1901 11078 21083 38843 48350 55001 333 91102 91201;
0156066280999992010011300004+46750+007267FM-12+104199999V0209999C000019999999N9999999N1-00751-00891999999ADDMA1999999088411MD1410001+9999ME1313499OA149900101REMSYN076AAXX  13004 06628 33/// /0000 11075 21089 38841 48349 53000 333 91102 91201;EQDQ01+000032APCTEN
0137066280999992010011301004+46750+007267FM-12+104199999V0200501N000519999999N9999999N1-00611-00761999999ADDMA1999999088381MD1010021+9999ME1313489OA149900151REMSYN076AAXX  13014 06628 33/// /0501 11061 21076 38838 48348 50002 333 91103 91202;
0137066280999992010011302004+46750+007267FM-12+104199999V0209999C000019999999N9999999N1-00701-00751999999ADDMA1999999088341MD1719999+9999ME1313439OA149900151REMSYN076AAXX  13024 06628 33/// /0000 11070 21075 38834 48343 57/// 333 91103 91202;
0137066280999992010011303004+46750+007267FM-12+104199999V0203301N000519999999N9999999N1-00561-00681999999ADDMA1999999088301MD1719999+9999ME1313419OA149900151REMSYN076AAXX  13034 06628 33/// /3301 11056 21068 38830 48341 57/// 333 91103 91202;
0137066280999992010011304004+46750+007267FM-12+104199999V0209999C000019999999N9999999N1-00561-00641999999ADDMA1999999088291MD1710091+9999ME1313419OA149900051REMSYN076AAXX  13044 06628 33/// /0000 11056 21064 38829 48341 57009 333 91101 91201;
0137066280999992010011305004+46750+007267FM-12+104199999V0203101N000519999999N9999999N1-00511-00611999999ADDMA1999999088311MD1510031+9999ME1313439OA149900101REMSYN076AAXX  13054 06628 33/// /3101 11051 21061 38831 48343 55003 333 91102 91201;
0238066280999992010011306004+46750+007267FM-12+104199999V0201701N001019999999N9999999N1-00551-00611999999ADDAA112000591AA224000591AL12400091GJ100009IA2999-00809KA1999N-00841MA1999999088331MD1210031+9999ME1313449OA149900151REMSYN112AAXX  13064 06628 03/// /1702 11055 21061 38833 48344 52003 69942 333 21084 3/108 55000 69945 70004 91103 91202;
0154066280999992010011307004+46750+007267FM-12+104199999V0209999C000019999999N9999999N1-00441-00501999999ADDAA101000391MA1999999088381MD1210091+9999ME1313509OA149900101REMSYN082AAXX  13074 06628 23/// /0000 11044 21050 38838 48350 52009 333 69935 91102 91202;
0154066280999992010011308004+46750+007267FM-12+104199999V0209999C000019999999N9999999N1-00391-00461999999ADDAA101000021MA1999999088451MD1310141+9999ME1313579OA149900101REMSYN082AAXX  13084 06628 23/// /0000 11039 21046 38845 48357 53014 333 69925 91102 91201;
0154066280999992010011309004+46750+007267FM-12+104199999V0209999C000019999999N9999999N1-00351-00421999999ADDAA101000021MA1999999088511MD1310181+9999ME1313629OA149900101REMSYN082AAXX  13094 06628 23/// /0000 11035 21042 38851 48362 53018 333 69925 91102 91202;
0154066280999992010011310004+46750+007267FM-12+104199999V0203101N000519999999N9999999N1-00281-00411999999ADDAA101000021MA1999999088561MD1110181+9999ME1313689OA149900101REMSYN082AAXX  13104 06628 23/// /3101 11028 21041 38856 48368 51018 333 69915 91102 91201;
0137066280999992010011311004+46750+007267FM-12+104199999V0203101N000519999999N9999999N1-00261-00371999999ADDMA1999999088591MD1110141+9999ME1313719OA149900101REMSYN076AAXX  13114 06628 33/// /3101 11026 21037 38859 48371 51014 333 91102 91201;
0160066280999992010011312004+46750+007267FM-12+104199999V0203001N001019999999N9999999N1-00181-00271999999ADDAA106001091MA1999999088571MD1210061+9999ME1313709OA149900151REMSYN088AAXX  13124 06628 03/// /3002 11018 21027 38857 48370 52006 69991 333 69915 91103 91202;
0154066280999992010011313004+46750+007267FM-12+104199999V0202801N001519999999N9999999N1-00071-00141999999ADDAA101000891MA1999999088581MD1210021+9999ME1313729OA149900311REMSYN082AAXX  13134 06628 23/// /2803 11007 21014 38858 48372 52002 333 69975 91106 91203;
0154066280999992010011314004+46750+007267FM-12+104199999V0202301N001019999999N9999999N1+00011-00101999999ADDAA101000591MA1999999088611MD1319999+9999ME1313769OA149900361REMSYN082AAXX  13144 06628 23/// /2302 10001 21010 38861 48376 53/// 333 69965 91107 91204;
0154066280999992010011315004+46750+007267FM-12+104199999V0202601N001519999999N9999999N1+00021-00051999999ADDAA101000021MA1999999088651MD1210081+9999ME1313809OA149900411REMSYN082AAXX  13154 06628 23/// /2603 10002 21005 38865 48380 52008 333 69925 91108 91204;
0154066280999992010011316004+46750+007267FM-12+104199999V0202501N001019999999N9999999N1-00041-00061999999ADDAA101000021MA1999999088701MD1310121+9999ME1313839OA149900411REMSYN082AAXX  13164 06628 23/// /2502 11004 21006 38870 48383 53012 333 69925 91108 91203;
0154066280999992010011317004+46750+007267FM-12+104199999V0202401N002619999999N9999999N1+00041-00051999999ADDAA101000021MA1999999088741MD1310131+9999ME1313889OA149900411REMSYN082AAXX  13174 06628 23/// /2405 10004 21005 38874 48388 53013 333 69925 91108 91205;
0179066280999992010011318004+46750+007267FM-12+104199999V0202401N001519999999N9999999N1+00081-00101999999ADDAA112003091KA1120M+00091MA1999999088771MD1110121+9999ME1313919OA149900461REMSYN094AAXX  13184 06628 03/// /2403 10008 21010 38877 48391 51012 60032 333 10009 60005 91109 91205;
0137066280999992010011319004+46750+007267FM-12+104199999V0202301N001019999999N9999999N1+00061-00091999999ADDMA1999999088791MD1110091+9999ME1313939OA149900461REMSYN076AAXX  13194 06628 33/// /2302 10006 21009 38879 48393 51009 333 91109 91205;
0137066280999992010011320004+46750+007267FM-12+104199999V0201801N000519999999N9999999N1+00051-00101999999ADDMA1999999088781MD1010041+9999ME1313929OA149900311REMSYN076AAXX  13204 06628 33/// /1801 10005 21010 38878 48392 50004 333 91106 91204;
0137066280999992010011321004+46750+007267FM-12+104199999V0209999C000019999999N9999999N1-00121-00121999999ADDMA1999999088761MD1710011+9999ME1313889OA149900461REMSYN076AAXX  13214 06628 33/// /0000 11012 21012 38876 48388 57001 333 91109 91205;
0137066280999992010011322004+46750+007267FM-12+104199999V0201401N001019999999N9999999N1-00101-00101999999ADDMA1999999088731MD1710061+9999ME1313859OA149900261REMSYN076AAXX  13224 06628 33/// /1402 11010 21010 38873 48385 57006 333 91105 91203;
0137066280999992010011323004+46750+007267FM-12+104199999V0201401N002119999999N9999999N1-00171-00271999999ADDMA1999999088701MD1710081+9999ME1313829OA149900261REMSYN076AAXX  13234 06628 33/// /1404 11017 21027 38870 48382 57008 333 91105 91204;
0137066280999992010011400004+46750+007267FM-12+104199999V0201401N001519999999N9999999N1-00151-00311999999ADDMA1999999088651MD1710111+9999ME1313779OA149900461REMSYN076AAXX  14004 06628 33/// /1403 11015 21031 38865 48377 57011 333 91109 91205;
0137066280999992010011401004+46750+007267FM-12+104199999V0201601N002119999999N9999999N1-00211-00391999999ADDMA1999999088581MD1710151+9999ME1313709OA149900411REMSYN076AAXX  14014 06628 33/// /1604 11021 21039 38858 48370 57015 333 91108 91205;
0137066280999992010011402004+46750+007267FM-12+104199999V0203001N001519999999N9999999N1-00261-00271999999ADDMA1999999088591MD1719999+9999ME1313719OA149900411REMSYN076AAXX  14024 06628 33/// /3003 11026 21027 38859 48371 57/// 333 91108 91205;
0096066280999992010011403004+46750+007267FM-12+104199999V0201801N001519999999N9999999N1-00271-00371999999ADDMA1999999088571ME1313699REMSYN060AAXX  14034 06628 33/// /1803 11027 21037 38857 48369 5////;
0137066280999992010011404004+46750+007267FM-12+104199999V0201601N001519999999N9999999N1-00271-00411999999ADDMA1999999088521MD1810061+9999ME1313649OA149900261REMSYN076AAXX  14044 06628 33/// /1603 11027 21041 38852 48364 58006 333 91105 91203;
0137066280999992010011405004+46750+007267FM-12+104199999V0201701N001519999999N9999999N1-00411-00551999999ADDMA1999999088471MD1810121+9999ME1313589OA149900361REMSYN076AAXX  14054 06628 33/// /1703 11041 21055 38847 48358 58012 333 91107 91205;
0215066280999992010011406004+46750+007267FM-12+104199999V0201601N001519999999N9999999N1-00451-00591999999ADDAA124002891AL14800291GJ100009IA2999-00809KA1999N-00451MA1999999088441MD1610131+9999ME1313559OA149900411REMSYN100AAXX  14064 06628 33/// /1603 11045 21059 38844 48355 56013 333 21045 3/108 55000 70028 91108 91205;
0137066280999992010011407004+46750+007267FM-12+104199999V0201301N001019999999N9999999N1-00461-00461999999ADDMA1999999088371MD1810151+9999ME1313499OA149900311REMSYN076AAXX  14074 06628 33/// /1302 11046 21046 38837 48349 58015 333 91106 91204;
0137066280999992010011408004+46750+007267FM-12+104199999V0201901N001519999999N9999999N1-00501-00561999999ADDMA1999999088381MD1719999+9999ME1313499OA149900311REMSYN076AAXX  14084 06628 33/// /1903 11050 21056 38838 48349 57/// 333 91106 91204;
0137066280999992010011409004+46750+007267FM-12+104199999V0202101N000519999999N9999999N1-00511-00511999999ADDMA1999999088371MD1710071+9999ME1313489OA149900361REMSYN076AAXX  14094 06628 33/// /2101 11051 21051 38837 48348 57007 333 91107 91205;
0137066280999992010011410004+46750+007267FM-12+104199999V0203101N001519999999N9999999N1-00371-00491999999ADDMA1999999088341MD1810031+9999ME1313479OA149900261REMSYN076AAXX  14104 06628 33/// /3103 11037 21049 38834 48347 58003 333 91105 91203;
0137066280999992010011411004+46750+007267FM-12+104199999V0202801N001019999999N9999999N1-00401-00471999999ADDMA1999999088361MD1510021+9999ME1313499OA149900361REMSYN076AAXX  14114 06628 33/// /2802 11040 21047 38836 48349 55002 333 91107 91206;
0137066280999992010011412004+46750+007267FM-12+104199999V0202801N001519999999N9999999N1-00341-00401999999ADDMA1999999088361MD1710011+9999ME1313499OA149900411REMSYN076AAXX  14124 06628 33/// /2803 11034 21040 38836 48349 57001 333 91108 91206;
0137066280999992010011413004+46750+007267FM-12+104199999V0201201N001019999999N9999999N1-00331-00371999999ADDMA1999999088331MD1710011+9999ME1313479OA149900211REMSYN076AAXX  14134 06628 33/// /1202 11033 21037 38833 48347 57001 333 91104 91203;
0137066280999992010011414004+46750+007267FM-12+104199999V0201001N000519999999N9999999N1-00321-00361999999ADDMA1999999088331MD1710031+9999ME1313479OA149900261REMSYN076AAXX  14144 06628 33/// /1001 11032 21036 38833 48347 57003 333 91105 91203;
0137066280999992010011415004+46750+007267FM-12+104199999V0201001N000519999999N9999999N1-00291-00341999999ADDMA1999999088331MD1710031+9999ME1313479OA149900361REMSYN076AAXX  14154 06628 33/// /1001 11029 21034 38833 48347 57003 333 91107 91206;
0137066280999992010011416004+46750+007267FM-12+104199999V0202601N000519999999N9999999N1-00241-00331999999ADDMA1999999088361MD1210031+9999ME1313509OA149900151REMSYN076AAXX  14164 06628 33/// /2601 11024 21033 38836 48350 52003 333 91103 91202;
0137066280999992010011417004+46750+007267FM-12+104199999V0200501N000519999999N9999999N1-00331-00351999999ADDMA1999999088431MD1210101+9999ME1313569OA149900151REMSYN076AAXX  14174 06628 33/// /0501 11033 21035 38843 48356 52010 333 91103 91202;
0156066280999992010011418004+46750+007267FM-12+104199999V0209999C000019999999N9999999N1-00401-00401999999ADDKA1120M-00241MA1999999088511MD1310181+9999ME1313629OA149900361REMSYN082AAXX  14184 06628 33/// /0000 11040 21040 38851 48362 53018 333 11024 91107 91206;
0137066280999992010011419004+46750+007267FM-12+104199999V0200901N000519999999N9999999N1-00351-00351999999ADDMA1999999088601MD1310241+9999ME1313709OA149900101REMSYN076AAXX  14194 06628 33/// /0901 11035 21035 38860 48370 53024 333 91102 91201;
0137066280999992010011420004+46750+007267FM-12+104199999V0202701N000519999999N9999999N1-00381-00391999999ADDMA1999999088681MD1210251+9999ME1313779OA149900261REMSYN076AAXX  14204 06628 33/// /2701 11038 21039 38868 48377 52025 333 91105 91203;
0137066280999992010011421004+46750+007267FM-12+104199999V0203101N001519999999N9999999N1-00341-00371999999ADDMA1999999088781MD1310271+9999ME1313869OA149900261REMSYN076AAXX  14214 06628 33/// /3103 11034 21037 38878 48386 53027 333 91105 91203;
0137066280999992010011422004+46750+007267FM-12+104199999V0202301N000519999999N9999999N1-00361-00361999999ADDMA1999999088861MD1210261+9999ME1313939OA149900261REMSYN076AAXX  14224 06628 33/// /2301 11036 21036 38886 48393 52026 333 91105 91203;
0137066280999992010011423004+46750+007267FM-12+104199999V0200601N000519999999N9999999N1-00371-00371999999ADDMA1999999088941MD1110261+9999ME1314009OA149900211REMSYN076AAXX  14234 06628 33/// /0601 11037 21037 38894 48400 51026 333 91104 91203;
0137066280999992010011500004+46750+007267FM-12+104199999V0202401N001519999999N9999999N1-00261-00381999999ADDMA1999999088991MD1110211+9999ME1314069OA149900261REMSYN076AAXX  15004 06628 33/// /2403 11026 21038 38899 48406 51021 333 91105 91203;
0137066280999992010011501004+46750+007267FM-12+104199999V0202601N000519999999N9999999N1-00391-00391999999ADDMA1999999089051MD1310191+9999ME1314109OA149900311REMSYN076AAXX  15014 06628 33/// /2601 11039 21039 38905 48410 53019 333 91106 91204;
0137066280999992010011502004+46750+007267FM-12+104199999V0202501N000519999999N9999999N1-00221-00391999999ADDMA1999999089131MD1310191+9999ME1314199OA149900311REMSYN076AAXX  15024 06628 33/// /2501 11022 21039 38913 48419 53019 333 91106 91204;
0096066280999992010011503004+46750+007267FM-12+104199999V0203201N001519999999N9999999N1-00331-00421999999ADDMA1999999089211ME1314249REMSYN060AAXX  15034 06628 33/// /3203 11033 21042 38921 48424 5////;
0137066280999992010011504004+46750+007267FM-12+104199999V0201901N001519999999N9999999N1-00311-00421999999ADDMA1999999089271MD1110221+9999ME1314309OA149900261REMSYN076AAXX  15044 06628 33/// /1903 11031 21042 38927 48430 51022 333 91105 91204;
0137066280999992010011505004+46750+007267FM-12+104199999V0201801N001519999999N9999999N1-00291-00491999999ADDMA1999999089351MD1310221+9999ME1314379OA149900361REMSYN076AAXX  15054 06628 33/// /1803 11029 21049 38935 48437 53022 333 91107 91205;
0234066280999992010011506004+46750+007267FM-12+104199999V0209999C000019999999N9999999N1-00091-00391999999ADDAA124000091AL19900091GJ100429IA2999-00809KA1999N-00491MA1999999089431MD1310221+9999ME1314479OA149900361REMSYN100AAXX  15064 06628 33/// /0000 11009 21039 38943 48447 53022 333 21049 3/108 55007 70000 91107 91205;EQDQ01  00002PRCP24
0137066280999992010011507004+46750+007267FM-12+104199999V0201901N001019999999N9999999N1-00341-00461999999ADDMA1999999089531MD1310261+9999ME1314529OA149900311REMSYN076AAXX  15074 06628 33/// /1902 11034 21046 38953 48452 53026 333 91106 91203;
0137066280999992010011508004+46750+007267FM-12+104199999V0201601N002119999999N9999999N1-00181-00441999999ADDMA1999999089611MD1219999+9999ME1314629OA149900261REMSYN076AAXX  15084 06628 33/// /1604 11018 21044 38961 48462 52/// 333 91105 91204;
0137066280999992010011509004+46750+007267FM-12+104199999V0202001N000519999999N9999999N1-00041-00321999999ADDMA1999999089681MD1110251+9999ME1314709OA149900361REMSYN076AAXX  15094 06628 33/// /2001 11004 21032 38968 48470 51025 333 91107 91205;
0137066280999992010011510004+46750+007267FM-12+104199999V0201801N001019999999N9999999N1-00081-00291999999ADDMA1999999089761MD1110231+9999ME1314779OA149900311REMSYN076AAXX  15104 06628 33/// /1802 11008 21029 38976 48477 51023 333 91106 91204;
0137066280999992010011511004+46750+007267FM-12+104199999V0201601N001019999999N9999999N1-00051-00281999999ADDMA1999999089771MD1210161+9999ME1314789OA149900211REMSYN076AAXX  15114 06628 33/// /1602 11005 21028 38977 48478 52016 333 91104 91203;
0137066280999992010011512004+46750+007267FM-12+104199999V0201701N000519999999N9999999N1+00081-00261999999ADDMA1999999089811MD1210131+9999ME1314849OA149900361REMSYN076AAXX  15124 06628 33/// /1701 10008 21026 38981 48484 52013 333 91107 91205;
0137066280999992010011513004+46750+007267FM-12+104199999V0202201N000519999999N9999999N1-00011-00181999999ADDMA1999999089861MD1210101+9999ME1314879OA149900211REMSYN076AAXX  15134 06628 33/// /2201 11001 21018 38986 48487 52010 333 91104 91203;
0137066280999992010011514004+46750+007267FM-12+104199999V0202801N001019999999N9999999N1+00091-00201999999ADDMA1999999089901MD1110131+9999ME1314929OA149900261REMSYN076AAXX  15144 06628 33/// /2802 10009 21020 38990 48492 51013 333 91105 91203;
0137066280999992010011515004+46750+007267FM-12+104199999V0201501N001019999999N9999999N1+00091-00161999999ADDMA1999999089971MD1310161+9999ME1314989OA149900261REMSYN076AAXX  15154 06628 33/// /1502 10009 21016 38997 48498 53016 333 91105 91203;
0137066280999992010011516004+46750+007267FM-12+104199999V0201601N002119999999N9999999N1+00041-00181999999ADDMA1999999089991MD1110131+9999ME1314999OA149900311REMSYN076AAXX  15164 06628 33/// /1604 10004 21018 38999 48499 51013 333 91106 91204;
0137066280999992010011517004+46750+007267FM-12+104199999V0201301N001019999999N9999999N1-00021-00131999999ADDMA1999999090031MD1110131+9999ME1315029OA149900311REMSYN076AAXX  15174 06628 33/// /1302 11002 21013 39003 48502 51013 333 91106 91204;
0156066280999992010011518004+46750+007267FM-12+104199999V0201601N003119999999N9999999N1-00161-00371999999ADDKA1120M+00191MA1999999090071MD1310101+9999ME1315039OA149900411REMSYN082AAXX  15184 06628 33/// /1606 11016 21037 39007 48503 53010 333 10019 91108 91206;
0137066280999992010011519004+46750+007267FM-12+104199999V0201701N003619999999N9999999N1-00301-00481999999ADDMA1999999090061MD1210071+9999ME1314999OA149900511REMSYN076AAXX  15194 06628 33/// /1707 11030 21048 39006 48499 52007 333 91110 91207;
0137066280999992010011520004+46750+007267FM-12+104199999V0201701N002619999999N9999999N1-00291-00491999999ADDMA1999999090061MD1210031+9999ME1314999OA149900511REMSYN076AAXX  15204 06628 33/// /1705 11029 21049 39006 48499 52003 333 91110 91207;
0137066280999992010011521004+46750+007267FM-12+104199999V0201801N002619999999N9999999N1-00431-00601999999ADDMA1999999090061MD1010011+9999ME1314979OA149900511REMSYN076AAXX  15214 06628 33/// /1805 11043 21060 39006 48497 50001 333 91110 91207;
0137066280999992010011522004+46750+007267FM-12+104199999V0201601N000519999999N9999999N1-00601-00661999999ADDMA1999999090071MD1210011+9999ME1314959OA149900411REMSYN076AAXX  15224 06628 33/// /1601 11060 21066 39007 48495 52001 333 91108 91206;
0137066280999992010011523004+46750+007267FM-12+104199999V0201601N000519999999N9999999N1-00611-00611999999ADDMA1999999090101MD1310041+9999ME1314979OA149900411REMSYN076AAXX  15234 06628 33/// /1601 11061 21061 39010 48497 53004 333 91108 91206;
0137066280999992010011600004+46750+007267FM-12+104199999V0202801N000519999999N9999999N1-00651-00651999999ADDMA1999999090091MD1010031+9999ME1314969OA149900511REMSYN076AAXX  16004 06628 33/// /2801 11065 21065 39009 48496 50003 333 91110 91207;
0137066280999992010011601004+46750+007267FM-12+104199999V0202001N003119999999N9999999N1-00591-00791999999ADDMA1999999090031MD1710041+9999ME1314929OA149900621REMSYN076AAXX  16014 06628 33/// /2006 11059 21079 39003 48492 57004 333 91112 91207;
0137066280999992010011602004+46750+007267FM-12+104199999V0209999C000019999999N9999999N1-00691-00691999999ADDMA1999999090031MD1710071+9999ME1314909OA149900621REMSYN076AAXX  16024 06628 33/// /0000 11069 21069 39003 48490 57007 333 91112 91207;
0137066280999992010011603004+46750+007267FM-12+104199999V0202801N001019999999N9999999N1-00641-00641999999ADDMA1999999090041MD1719999+9999ME1314929OA149900621REMSYN076AAXX  16034 06628 33/// /2802 11064 21064 39004 48492 57/// 333 91112 91207;
0137066280999992010011604004+46750+007267FM-12+104199999V0201801N003119999999N9999999N1-00641-00851999999ADDMA1999999089961MD1710071+9999ME1314859OA149900571REMSYN076AAXX  16044 06628 33/// /1806 11064 21085 38996 48485 57007 333 91111 91208;
0137066280999992010011605004+46750+007267FM-12+104199999V0201601N002119999999N9999999N1-00781-00811999999ADDMA1999999089911MD1710121+9999ME1314789OA149900571REMSYN076AAXX  16054 06628 33/// /1604 11078 21081 38991 48478 57012 333 91111 91208;
0234066280999992010011606004+46750+007267FM-12+104199999V0202001N001519999999N9999999N1-00621-00781999999ADDAA124000091AL19900091GJ104149IA2999-01209KA1999N-00781MA1999999089851MD1710191+9999ME1314769OA149900621REMSYN100AAXX  16064 06628 33/// /2003 11062 21078 38985 48476 57019 333 21078 3/112 55069 70000 91112 91208;EQDQ01  00002PRCP24
0137066280999992010011607004+46750+007267FM-12+104199999V0202801N001019999999N9999999N1-00681-00721999999ADDMA1999999089831MD1710131+9999ME1314739OA149900511REMSYN076AAXX  16074 06628 33/// /2802 11068 21072 38983 48473 57013 333 91110 91207;
0137066280999992010011608004+46750+007267FM-12+104199999V0202801N001019999999N9999999N1-00711-00711999999ADDMA1999999089801MD1710111+9999ME1314709OA149900361REMSYN076AAXX  16084 06628 33/// /2802 11071 21071 38980 48470 57011 333 91107 91206;
0137066280999992010011609004+46750+007267FM-12+104199999V0209999C000019999999N9999999N1-00721-00721999999ADDMA1999999089761MD1710091+9999ME1314669OA149900571REMSYN076AAXX  16094 06628 33/// /0000 11072 21072 38976 48466 57009 333 91111 91208;
0137066280999992010011610004+46750+007267FM-12+104199999V0202201N000519999999N9999999N1-00491-00731999999ADDMA1999999089751MD1710081+9999ME1314699OA149900261REMSYN076AAXX  16104 06628 33/// /2201 11049 21073 38975 48469 57008 333 91105 91203;
0137066280999992010011611004+46750+007267FM-12+104199999V0202201N000519999999N9999999N1-00651-00651999999ADDMA1999999089761MD1510041+9999ME1314679OA149900261REMSYN076AAXX  16114 06628 33/// /2201 11065 21065 38976 48467 55004 333 91105 91203;
0137066280999992010011612004+46750+007267FM-12+104199999V0201701N002619999999N9999999N1-00311-00651999999ADDMA1999999089691MD1710071+9999ME1314679OA149900621REMSYN076AAXX  16124 06628 33/// /1705 11031 21065 38969 48467 57007 333 91112 91208;
0137066280999992010011613004+46750+007267FM-12+104199999V0200701N001519999999N9999999N1-00421-00491999999ADDMA1999999089631MD1710121+9999ME1314609OA149900511REMSYN076AAXX  16134 06628 33/// /0703 11042 21049 38963 48460 57012 333 91110 91206;
0137066280999992010011614004+46750+007267FM-12+104199999V0201001N001019999999N9999999N1-00411-00471999999ADDMA1999999089551MD1819999+9999ME1314539OA149900511REMSYN076AAXX  16144 06628 33/// /1002 11041 21047 38955 48453 58/// 333 91110 91205;
0137066280999992010011615004+46750+007267FM-12+104199999V0200901N001019999999N9999999N1-00271-00541999999ADDMA1999999089531MD1710161+9999ME1314539OA149900511REMSYN076AAXX  16154 06628 33/// /0902 11027 21054 38953 48453 57016 333 91110 91206;
0137066280999992010011616004+46750+007267FM-12+104199999V0202501N001519999999N9999999N1-00221-00471999999ADDMA1999999089511MD1710121+9999ME1314539OA149900311REMSYN076AAXX  16164 06628 33/// /2503 11022 21047 38951 48453 57012 333 91106 91204;
0137066280999992010011617004+46750+007267FM-12+104199999V0202701N002619999999N9999999N1-00131-00431999999ADDMA1999999089581MD1310031+9999ME1314609OA149901291REMSYN076AAXX  16174 06628 33/// /2705 11013 21043 38958 48460 53003 333 91125 91213;
0156066280999992010011618004+46750+007267FM-12+104199999V0202801N006719999999N9999999N1+00171-00401999999ADDKA1120M+00171MA1999999089551MD1010021+9999ME1314629OA149901291REMSYN082AAXX  16184 06628 33/// /2813 10017 21040 38955 48462 50002 333 10017 91125 91214;
0137066280999992010011619004+46750+007267FM-12+104199999V0203001N006219999999N9999999N1-00021-00251999999ADDMA1999999089541MD1010031+9999ME1314589OA149901291REMSYN076AAXX  16194 06628 33/// /3012 11002 21025 38954 48458 50003 333 91125 91214;
0137066280999992010011620004+46750+007267FM-12+104199999V0203001N007219999999N9999999N1+00061-00141999999ADDMA1999999089501MD1710081+9999ME1314569OA149901241REMSYN076AAXX  16204 06628 33/// /3014 10006 21014 38950 48456 57008 333 91124 91214;
0137066280999992010011621004+46750+007267FM-12+104199999V0203301N005119999999N9999999N1+00021-00061999999ADDMA1999999089421MD1710131+9999ME1314489OA149901291REMSYN076AAXX  16214 06628 33/// /3310 10002 21006 38942 48448 57013 333 91125 91214;
0137066280999992010011622004+46750+007267FM-12+104199999V0202901N008719999999N9999999N1+00101-00091999999ADDMA1999999089461MD1510081+9999ME1314539OA149901491REMSYN076AAXX  16224 06628 33/// /2917 10010 21009 38946 48453 55008 333 91129 91217;
0154066280999992010011623004+46750+007267FM-12+104199999V0202901N002119999999N9999999N1+00041-00031999999ADDAA101000021MA1999999089531MD1310031+9999ME1314589OA149901651REMSYN082AAXX  16234 06628 23/// /2904 10004 21003 38953 48458 53003 333 69925 91132 91217;
0160066280999992010011700004+46750+007267FM-12+104199999V0202501N007719999999N9999999N1+00341+00021999999ADDAA106000591MA1999999089531MD1210111+9999ME1314639OA149901651REMSYN088AAXX  17004 06628 03/// /2515 10034 20002 38953 48463 52011 69961 333 69945 91132 91217;
0137066280999992010011701004+46750+007267FM-12+104199999V0202501N011319999999N9999999N1+00381+00001999999ADDMA1999999089531MD1010071+9999ME1314649OA149901751REMSYN076AAXX  17014 06628 33/// /2522 10038 20000 38953 48464 50007 333 91134 91223;
0137066280999992010011702004+46750+007267FM-12+104199999V0202601N007219999999N9999999N1+00431-00031999999ADDMA1999999089481MD1819999+9999ME1314609OA149901901REMSYN076AAXX  17024 06628 33/// /2614 10043 21003 38948 48460 58/// 333 91137 91223;
0096066280999992010011703004+46750+007267FM-12+104199999V0203101N003619999999N9999999N1+00101+00021999999ADDMA1999999089511ME1314579REMSYN060AAXX  17034 06628 43/// /3107 10010 20002 38951 48457 5////;
0154066280999992010011704004+46750+007267FM-12+104199999V0202501N009819999999N9999999N1+00391+00051999999ADDAA101000021MA1999999089481MD1710051+9999ME1314599OA149901651REMSYN082AAXX  17044 06628 23/// /2519 10039 20005 38948 48459 57005 333 69915 91132 91219;
0137066280999992010011705004+46750+007267FM-12+104199999V0202601N013419999999N9999999N1+00381+00011999999ADDMA1999999089501MD1019999+9999ME1314619OA149902061REMSYN076AAXX  17054 06628 33/// /2626 10038 20001 38950 48461 50/// 333 91140 91227;
0238066280999992010011706004+46750+007267FM-12+104199999V0202601N010319999999N9999999N1+00361+00021999999ADDAA112001091AA224001091AL14800091GJ100849IA2999-00109KA1999N-00041MA1999999089521MD1210011+9999ME1314629OA149902061REMSYN112AAXX  17064 06628 03/// /2620 10036 20002 38952 48462 52001 69992 333 21004 3/101 55014 60005 70009 91140 91227;
0154066280999992010011707004+46750+007267FM-12+104199999V0202601N010319999999N9999999N1+00301+00051999999ADDAA101000021MA1999999089611MD1210131+9999ME1314709OA149901901REMSYN082AAXX  17074 06628 23/// /2620 10030 20005 38961 48470 52013 333 69915 91137 91225;
0154066280999992010011708004+46750+007267FM-12+104199999V0202601N010819999999N9999999N1+00301+00081999999ADDAA101000021MA1999999089681MD1219999+9999ME1314769OA149902011REMSYN082AAXX  17084 06628 23/// /2621 10030 20008 38968 48476 52/// 333 69915 91139 91224;
0137066280999992010011709004+46750+007267FM-12+104199999V0202701N010319999999N9999999N1+00291+00081999999ADDMA1999999089781MD1310261+9999ME1314859OA149902061REMSYN076AAXX  17094 06628 33/// /2720 10029 20008 38978 48485 53026 333 91140 91227;
0154066280999992010011710004+46750+007267FM-12+104199999V0202801N006719999999N9999999N1+00171+00031999999ADDAA101000391MA1999999089911MD1310301+9999ME1314949OA149901801REMSYN082AAXX  17104 06628 23/// /2813 10017 20003 38991 48494 53030 333 69935 91135 91223;
0137066280999992010011711004+46750+007267FM-12+104199999V0202701N007219999999N9999999N1+00181-00041999999ADDMA1999999089981MD1110301+9999ME1315019OA149901651REMSYN076AAXX  17114 06628 33/// /2714 10018 21004 38998 48501 51030 333 91132 91221;
0160066280999992010011712004+46750+007267FM-12+104199999V0202701N006719999999N9999999N1+00301-00261999999ADDAA106000591MA1999999090011MD1210231+9999ME1315059OA149902061REMSYN088AAXX  17124 06628 03/// /2713 10030 21026 39001 48505 52023 69951 333 60005 91140 91227;
0137066280999992010011713004+46750+007267FM-12+104199999V0202701N006219999999N9999999N1+00121-00141999999ADDMA1999999090051MD1210141+9999ME1315069OA149901341REMSYN076AAXX  17134 06628 33/// /2712 10012 21014 39005 48506 52014 333 91126 91218;
0137066280999992010011714004+46750+007267FM-12+104199999V0202701N006219999999N9999999N1+00161-00241999999ADDMA1999999090101MD1219999+9999ME1315119OA149901341REMSYN076AAXX  17144 06628 33/// /2712 10016 21024 39010 48511 52/// 333 91126 91217;
0137066280999992010011715004+46750+007267FM-12+104199999V0202501N002619999999N9999999N1+00211-00221999999ADDMA1999999090161MD1210151+9999ME1315179OA149901651REMSYN076AAXX  17154 06628 33/// /2505 10021 21022 39016 48517 52015 333 91132 91221;
