0149066280999992011010100004+46750+007267FM-12+104199999V0201601N003119999999N9999999N1-00181-00271999999ADDMA1999999089931MD1810071+9999ME1314909OA149900461REMSYN088AAXX  01004 06628 33/// /1606 11018 21027 38993 48490 58007 333 55300 20004 91109 91206;
0149066280999992011010101004+46750+007267FM-12+104199999V0201601N001519999999N9999999N1-00221-00291999999ADDMA1999999089921MD1710071+9999ME1314899OA149900461REMSYN088AAXX  01014 06628 33/// /1603 11022 21029 38992 48489 57007 333 55300 20004 91109 91206;
0149066280999992011010102004+46750+007267FM-12+104199999V0201701N001519999999N9999999N1-00281-00331999999ADDMA1999999089901MD1710071+9999ME1314869OA149900411REMSYN088AAXX  01024 06628 33/// /1703 11028 21033 38990 48486 57007 333 55300 20004 91108 91206;
0149066280999992011010103004+46750+007267FM-12+104199999V0201701N001019999999N9999999N1-00271-00361999999ADDMA1999999089901MD1710031+9999ME1314869OA149900461REMSYN088AAXX  01034 06628 33/// /1702 11027 21036 38990 48486 57003 333 55300 20004 91109 91206;
0149066280999992011010104004+46750+007267FM-12+104199999V0202601N001519999999N9999999N1-00261-00271999999ADDMA1999999089861MD1810061+9999ME1314839OA149900261REMSYN088AAXX  01044 06628 33/// /2603 11026 21027 38986 48483 58006 333 55300 20004 91105 91203;
0149066280999992011010105004+46750+007267FM-12+104199999V0202901N001519999999N9999999N1-00261-00331999999ADDMA1999999089891MD1510011+9999ME1314859OA149900411REMSYN088AAXX  01054 06628 33/// /2903 11026 21033 38989 48485 55001 333 55300 20004 91108 91204;
0216066280999992011010106004+46750+007267FM-12+104199999V0203001N002119999999N9999999N1-00291-00391999999ADDAL19900091GJ101269IA2999-00409KA1999N-00381MA1999999089881MD1510021+9999ME1314849OA149900461REMSYN112AAXX  01064 06628 33/// /3004 11029 21039 38988 48484 55002 333 21038 3/104 55021 55300 20004 70000 91109 91206;
0149066280999992011010107004+46750+007267FM-12+104199999V0202901N001019999999N9999999N1-00331-00391999999ADDMA1999999089891MD1210031+9999ME1314849OA149900311REMSYN088AAXX  01074 06628 33/// /2902 11033 21039 38989 48484 52003 333 55300 20004 91106 91204;
0149066280999992011010108004+46750+007267FM-12+104199999V0202401N000519999999N9999999N1-00301-00421999999ADDMA1999999089911MD1219999+9999ME1314869OA149900261REMSYN088AAXX  01084 06628 33/// /2401 11030 21042 38991 48486 52/// 333 55300 20040 91105 91203;
0096066280999992011010109004+46750+007267FM-12+104199999V0202801N001019999999N9999999N1-00271-00351999999ADDMA1999999089911ME1314879REMSYN060AAXX  01094 06628 43/// /2802 11027 21035 38991 48487 5////;
0096066280999992011010110004+46750+007267FM-12+104199999V0201801N000519999999N9999999N1-00331-00441999999ADDMA1999999089891ME1314849REMSYN060AAXX  01104 06628 43/// /1801 11033 21044 38989 48484 5////;
0149066280999992011010111004+46750+007267FM-12+104199999V0209999C000019999999N9999999N1-00201-00381999999ADDMA1999999089871MD1710041+9999ME1314859OA149900151REMSYN088AAXX  01114 06628 33/// /0000 11020 21038 38987 48485 57004 333 553// 2//// 91103 91202;
0096066280999992011010112004+46750+007267FM-12+104199999V0202101N001019999999N9999999N1-00151-00361999999ADDMA1999999089821ME1314819REMSYN060AAXX  01124 06628 43/// /2102 11015 21036 38982 48481 5////;
0096066280999992011010113004+46750+007267FM-12+104199999V0202101N001019999999N9999999N1-00091-00301999999ADDMA1999999089741ME1314759REMSYN060AAXX  01134 06628 43/// /2102 11009 21030 38974 48475 5////;
0096066280999992011010114004+46750+007267FM-12+104199999V0203201N000519999999N9999999N1-00191-00331999999ADDMA1999999089741ME1314739REMSYN060AAXX  01144 06628 43/// /3201 11019 21033 38974 48473 5////;
0096066280999992011010115004+46750+007267FM-12+104199999V0202101N001519999999N9999999N1-00151-00291999999ADDMA1999999089721ME1314729REMSYN060AAXX  01154 06628 43/// /2103 11015 21029 38972 48472 5////;
0096066280999992011010116004+46750+007267FM-12+104199999V0201801N002619999999N9999999N1-00191-00381999999ADDMA1999999089701ME1314709REMSYN060AAXX  01164 06628 43/// /1805 11019 21038 38970 48470 5////;
0096066280999992011010117004+46750+007267FM-12+104199999V0201601N001519999999N9999999N1-00261-00391999999ADDMA1999999089701ME1314699REMSYN060AAXX  01174 06628 43/// /1603 11026 21039 38970 48469 5////;
0096066280999992011010118004+46750+007267FM-12+104199999V0201801N002619999999N9999999N1-00391-00571999999ADDMA1999999089691ME1314669REMSYN060AAXX  01184 06628 43/// /1805 11039 21057 38969 48466 5////;
0112066280999992011010119004+46750+007267FM-12+104199999V0201901N002619999999N9999999N1-00361-00581999999ADDMA1999999089681ME1314659REMSYN076AAXX  01194 06628 33/// /1905 11036 21058 38968 48465 5//// 333 553// 20004;
0149066280999992011010120004+46750+007267FM-12+104199999V0201201N000519999999N9999999N1-00551-00551999999ADDMA1999999089701MD1510001+9999ME1314649OA149900361REMSYN088AAXX  01204 06628 33/// /1201 11055 21055 38970 48464 55000 333 55300 20004 91107 91205;
0149066280999992011010121004+46750+007267FM-12+104199999V0200801N001019999999N9999999N1-00521-00521999999ADDMA1999999089681MD1710011+9999ME1314639OA149900461REMSYN088AAXX  01214 06628 33/// /0802 11052 21052 38968 48463 57001 333 55300 20004 91109 91205;
0149066280999992011010122004+46750+007267FM-12+104199999V0201301N001019999999N9999999N1-00531-00531999999ADDMA1999999089651MD1810031+9999ME1314609OA149900261REMSYN088AAXX  01224 06628 33/// /1302 11053 21053 38965 48460 58003 333 55300 20004 91105 91203;
0149066280999992011010123004+46750+007267FM-12+104199999V0202801N000519999999N9999999N1-00571-00601999999ADDMA1999999089601MD1710101+9999ME1314559OA149900511REMSYN088AAXX  01234 06628 33/// /2801 11057 21060 38960 48455 57010 333 55300 20004 91110 91204;
0149066280999992011010200004+46750+007267FM-12+104199999V0201701N000519999999N9999999N1-00561-00561999999ADDMA1999999089591MD1710091+9999ME1314549OA149900511REMSYN088AAXX  02004 06628 33/// /1701 11056 21056 38959 48454 57009 333 55300 20004 91110 91205;
0149066280999992011010201004+46750+007267FM-12+104199999V0201501N002119999999N9999999N1-00501-00501999999ADDMA1999999089571MD1610081+9999ME1314549OA149900261REMSYN088AAXX  02014 06628 33/// /1504 11050 21050 38957 48454 56008 333 55300 20004 91105 91204;
0096066280999992011010202004+46750+007267FM-12+104199999V0200901N001019999999N9999999N1-00521-00521999999ADDMA1999999089581ME1314549REMSYN060AAXX  02024 06628 43/// /0902 11052 21052 38958 48454 5////;
0096066280999992011010203004+46750+007267FM-12+104199999V0200901N001019999999N9999999N1-00491-00501999999ADDMA1999999089591ME1314569REMSYN060AAXX  02034 06628 43/// /0902 11049 21050 38959 48456 5////;
0096066280999992011010204004+46750+007267FM-12+104199999V0201201N001519999999N9999999N1-00481-00511999999ADDMA1999999089591ME1314569REMSYN060AAXX  02044 06628 43/// /1203 11048 21051 38959 48456 5////;
0096066280999992011010205004+46750+007267FM-12+104199999V0201501N003619999999N9999999N1-00531-00631999999ADDMA1999999089581ME1314549REMSYN060AAXX  02054 06628 43/// /1507 11053 21063 38958 48454 5////;
0143066280999992011010206004+46750+007267FM-12+104199999V0201301N001519999999N9999999N1-00521-00641999999ADDIA2999-00709KA1999N-00671MA1999999089571ME1314539REMSYN082AAXX  02064 06628 43/// /1303 11052 21064 38957 48453 5//// 333 21067 3/107 55064;
0149066280999992011010207004+46750+007267FM-12+104199999V0201101N001519999999N9999999N1-00471-00511999999ADDMA1999999089581MD1710011+9999ME1314559OA149900461REMSYN088AAXX  02074 06628 33/// /1103 11047 21051 38958 48455 57001 333 55300 20004 91109 91207;
0149066280999992011010208004+46750+007267FM-12+104199999V0200801N001019999999N9999999N1-00461-00531999999ADDMA1999999089601MD1310021+9999ME1314579OA149900311REMSYN088AAXX  02084 06628 33/// /0802 11046 21053 38960 48457 53002 333 55300 20050 91106 91203;
0149066280999992011010209004+46750+007267FM-12+104199999V0200701N002119999999N9999999N1-00391-00451999999ADDMA1999999089641MD1310071+9999ME1314619OA149900511REMSYN088AAXX  02094 06628 33/// /0704 11039 21045 38964 48461 53007 333 55300 20202 91110 91207;
0149066280999992011010210004+46750+007267FM-12+104199999V0200701N002619999999N9999999N1-00341-00431999999ADDMA1999999089681MD1110101+9999ME1314669OA149900511REMSYN088AAXX  02104 06628 33/// /0705 11034 21043 38968 48466 51010 333 55300 20410 91110 91205;
0149066280999992011010211004+46750+007267FM-12+104199999V0200801N002119999999N9999999N1-00361-00421999999ADDMA1999999089661MD1210061+9999ME1314649OA149900511REMSYN088AAXX  02114 06628 33/// /0804 11036 21042 38966 48464 52006 333 55300 20353 91110 91205;
0149066280999992011010212004+46750+007267FM-12+104199999V0200801N002119999999N9999999N1-00371-00421999999ADDMA1999999089641MD1010001+9999ME1314629OA149900671REMSYN088AAXX  02124 06628 33/// /0804 11037 21042 38964 48462 50000 333 55300 20281 91113 91209;
0149066280999992011010213004+46750+007267FM-12+104199999V0200801N002119999999N9999999N1-00381-00411999999ADDMA1999999089631MD1710051+9999ME1314619OA149900571REMSYN088AAXX  02134 06628 33/// /0804 11038 21041 38963 48461 57005 333 55300 20227 91111 91205;
0112066280999992011010214004+46750+007267FM-12+104199999V0200801N002119999999N9999999N1-00381-00391999999ADDMA1999999089641ME1314629REMSYN076AAXX  02144 06628 33/// /0804 11038 21039 38964 48462 5//// 333 553// 20140;
0149066280999992011010215004+46750+007267FM-12+104199999V0200801N002619999999N9999999N1-00391-00411999999ADDMA1999999089681MD1310041+9999ME1314659OA149900621REMSYN088AAXX  02154 06628 33/// /0805 11039 21041 38968 48465 53004 333 55300 20047 91112 91205;
0149066280999992011010216004+46750+007267FM-12+104199999V0200901N002119999999N9999999N1-00411-00471999999ADDMA1999999089721MD1310091+9999ME1314689OA149900621REMSYN088AAXX  02164 06628 33/// /0904 11041 21047 38972 48468 53009 333 55300 20014 91112 91205;
0149066280999992011010217004+46750+007267FM-12+104199999V0200901N002119999999N9999999N1-00441-00561999999ADDMA1999999089741MD1110101+9999ME1314699OA149900621REMSYN088AAXX  02174 06628 33/// /0904 11044 21056 38974 48469 51010 333 55300 20004 91112 91205;
0168066280999992011010218004+46750+007267FM-12+104199999V0201001N003119999999N9999999N1-00461-00611999999ADDKA1120M-00341MA1999999089761MD1110081+9999ME1314719OA149900621REMSYN094AAXX  02184 06628 33/// /1006 11046 21061 38976 48471 51008 333 11034 55300 20004 91112 91206;
0149066280999992011010219004+46750+007267FM-12+104199999V0201001N003119999999N9999999N1-00461-00601999999ADDMA1999999089771MD1110051+9999ME1314729OA149900571REMSYN088AAXX  02194 06628 33/// /1006 11046 21060 38977 48472 51005 333 55300 20004 91111 91207;
0149066280999992011010220004+46750+007267FM-12+104199999V0200901N002619999999N9999999N1-00491-00701999999ADDMA1999999089791MD1310051+9999ME1314739OA149900571REMSYN088AAXX  02204 06628 33/// /0905 11049 21070 38979 48473 53005 333 55300 20004 91111 91207;
0149066280999992011010221004+46750+007267FM-12+104199999V0201001N003619999999N9999999N1-00531-00701999999ADDMA1999999089811MD1310051+9999ME1314749OA149900671REMSYN088AAXX  02214 06628 33/// /1007 11053 21070 38981 48474 53005 333 55300 20004 91113 91207;
0149066280999992011010222004+46750+007267FM-12+104199999V0200701N002619999999N9999999N1-00601-00731999999ADDMA1999999089811MD1210041+9999ME1314739OA149900721REMSYN088AAXX  02224 06628 33/// /0705 11060 21073 38981 48473 52004 333 55300 20004 91114 91208;
0149066280999992011010223004+46750+007267FM-12+104199999V0200901N002119999999N9999999N1-00571-00731999999ADDMA1999999089821MD1210031+9999ME1314749OA149900721REMSYN088AAXX  02234 06628 33/// /0904 11057 21073 38982 48474 52003 333 55300 20004 91114 91208;
0149066280999992011010300004+46750+007267FM-12+104199999V0200901N003119999999N9999999N1-00581-00741999999ADDMA1999999089801MD1810011+9999ME1314729OA149900721REMSYN088AAXX  03004 06628 33/// /0906 11058 21074 38980 48472 58001 333 55300 20004 91114 91208;
0149066280999992011010301004+46750+007267FM-12+104199999V0200801N002619999999N9999999N1-00631-00761999999ADDMA1999999089791MD1710021+9999ME1314719OA149900671REMSYN088AAXX  03014 06628 33/// /0805 11063 21076 38979 48471 57002 333 55300 20004 91113 91206;
0149066280999992011010302004+46750+007267FM-12+104199999V0200801N002119999999N9999999N1-00621-00741999999ADDMA1999999089811MD1519999+9999ME1314729OA149900671REMSYN088AAXX  03024 06628 33/// /0804 11062 21074 38981 48472 55/// 333 55300 20004 91113 91205;
0096066280999992011010303004+46750+007267FM-12+104199999V0200801N002119999999N9999999N1-00621-00771999999ADDMA1999999089821ME1314739REMSYN060AAXX  03034 06628 43/// /0804 11062 21077 38982 48473 5////;
0149066280999992011010304004+46750+007267FM-12+104199999V0201401N002619999999N9999999N1-00731-00961999999ADDMA1999999089811MD1210021+9999ME1314719OA149900571REMSYN088AAXX  03044 06628 33/// /1405 11073 21096 38981 48471 52002 333 55300 20004 91111 91205;
0149066280999992011010305004+46750+007267FM-12+104199999V0201501N003119999999N9999999N1-00881-01111999999ADDMA1999999089801MD1810011+9999ME1314679OA149900461REMSYN088AAXX  03054 06628 33/// /1506 11088 21111 38980 48467 58001 333 55300 20004 91109 91206;
0216066280999992011010306004+46750+007267FM-12+104199999V0201601N003619999999N9999999N1-00901-01151999999ADDAL19900091GJ100009IA2999-01109KA1999N-00921MA1999999089791MD1710031+9999ME1314669OA149900721REMSYN112AAXX  03064 06628 33/// /1607 11090 21115 38979 48466 57003 333 21092 3/111 55000 55300 20000 70000 91114 91208;
0149066280999992011010307004+46750+007267FM-12+104199999V0201401N002619999999N9999999N1-00951-01181999999ADDMA1999999089771MD1710041+9999ME1314649OA149900461REMSYN088AAXX  03074 06628 33/// /1405 11095 21118 38977 48464 57004 333 55300 20000 91109 91207;
0149066280999992011010308004+46750+007267FM-12+104199999V0201401N000519999999N9999999N1-00841-01101999999ADDMA1999999089781MD1719999+9999ME1314669OA149900461REMSYN088AAXX  03084 06628 33/// /1401 11084 21110 38978 48466 57/// 333 55301 20032 91109 91206;
0112066280999992011010309004+46750+007267FM-12+104199999V0202001N000519999999N9999999N1-00891-01091999999ADDMA1999999089811ME1314689REMSYN076AAXX  03094 06628 33/// /2001 11089 21109 38981 48468 5//// 333 553// 20428;
0149066280999992011010310004+46750+007267FM-12+104199999V0201601N000519999999N9999999N1-00791-01031999999ADDMA1999999089841MD1210071+9999ME1314729OA149900211REMSYN088AAXX  03104 06628 33/// /1601 11079 21103 38984 48472 52007 333 553// 20875 91104 91203;
0149066280999992011010311004+46750+007267FM-12+104199999V0200401N001019999999N9999999N1-00591-00951999999ADDMA1999999089821MD1010041+9999ME1314749OA149900261REMSYN088AAXX  03114 06628 33/// /0402 11059 21095 38982 48474 50004 333 553// 2//// 91105 91203;
0149066280999992011010312004+46750+007267FM-12+104199999V0200601N001519999999N9999999N1-00581-00921999999ADDMA1999999089771MD1810041+9999ME1314709OA149900671REMSYN088AAXX  03124 06628 33/// /0603 11058 21092 38977 48470 58004 333 553// 2//// 91113 91207;
0149066280999992011010313004+46750+007267FM-12+104199999V0200601N002119999999N9999999N1-00571-00901999999ADDMA1999999089751MD1710091+9999ME1314689OA149900261REMSYN088AAXX  03134 06628 33/// /0604 11057 21090 38975 48468 57009 333 553// 2//// 91105 91204;
0112066280999992011010314004+46750+007267FM-12+104199999V0200401N001519999999N9999999N1-00571-00781999999ADDMA1999999089751ME1314689REMSYN076AAXX  03144 06628 33/// /0403 11057 21078 38975 48468 5//// 333 553// 20990;
0112066280999992011010315004+46750+007267FM-12+104199999V0200501N001519999999N9999999N1-00661-00761999999ADDMA1999999089771ME1314689REMSYN076AAXX  03154 06628 33/// /0503 11066 21076 38977 48468 5//// 333 553// 20349;
0149066280999992011010316004+46750+007267FM-12+104199999V0200901N001019999999N9999999N1-00691-00781999999ADDMA1999999089741MD1810011+9999ME1314659OA149900311REMSYN088AAXX  03164 06628 33/// /0902 11069 21078 38974 48465 58001 333 55302 20083 91106 91204;
0149066280999992011010317004+46750+007267FM-12+104199999V0201701N000519999999N9999999N1-00751-01201999999ADDMA1999999089741MD1710011+9999ME1314649OA149900151REMSYN088AAXX  03174 06628 33/// /1701 11075 21120 38974 48464 57001 333 55300 20004 91103 91203;
0168066280999992011010318004+46750+007267FM-12+104199999V0202101N000519999999N9999999N1-00741-00981999999ADDKA1120M-00561MA1999999089741MD1510031+9999ME1314649OA149900461REMSYN094AAXX  03184 06628 33/// /2101 11074 21098 38974 48464 55003 333 11056 55300 20004 91109 91206;
0149066280999992011010319004+46750+007267FM-12+104199999V0201901N000519999999N9999999N1-00821-01031999999ADDMA1999999089711MD1710031+9999ME1314619OA149900151REMSYN088AAXX  03194 06628 33/// /1901 11082 21103 38971 48461 57003 333 55300 20004 91103 91202;
0149066280999992011010320004+46750+007267FM-12+104199999V0201701N001519999999N9999999N1-00871-01151999999ADDMA1999999089691MD1710051+9999ME1314589OA149900211REMSYN088AAXX  03204 06628 33/// /1703 11087 21115 38969 48458 57005 333 55300 20004 91104 91203;
0149066280999992011010321004+46750+007267FM-12+104199999V0202101N000519999999N9999999N1-00791-01021999999ADDMA1999999089681MD1710061+9999ME1314599OA149900211REMSYN088AAXX  03214 06628 33/// /2101 11079 21102 38968 48459 57006 333 55300 20000 91104 91203;
0149066280999992011010322004+46750+007267FM-12+104199999V0201701N001019999999N9999999N1-00901-01181999999ADDMA1999999089681MD1710031+9999ME1314579OA149900261REMSYN088AAXX  03224 06628 33/// /1702 11090 21118 38968 48457 57003 333 55300 20004 91105 91203;
0149066280999992011010323004+46750+007267FM-12+104199999V0202201N001019999999N9999999N1-00811-01011999999ADDMA1999999089701MD1510011+9999ME1314609OA149900311REMSYN088AAXX  03234 06628 33/// /2202 11081 21101 38970 48460 55001 333 55300 20004 91106 91203;
0149066280999992011010400004+46750+007267FM-12+104199999V0201701N002619999999N9999999N1-00861-01141999999ADDMA1999999089671MD1010011+9999ME1314579OA149900511REMSYN088AAXX  04004 06628 33/// /1705 11086 21114 38967 48457 50001 333 55300 20004 91110 91205;
0149066280999992011010401004+46750+007267FM-12+104199999V0201801N001019999999N9999999N1-00801-01091999999ADDMA1999999089641MD1810041+9999ME1314559OA149900511REMSYN088AAXX  04014 06628 33/// /1802 11080 21109 38964 48455 58004 333 55300 20000 91110 91205;
0149066280999992011010402004+46750+007267FM-12+104199999V0202301N000519999999N9999999N1-00751-00881999999ADDMA1999999089601MD1719999+9999ME1314529OA149900461REMSYN088AAXX  04024 06628 33/// /2301 11075 21088 38960 48452 57/// 333 55300 20004 91109 91205;
0149066280999992011010403004+46750+007267FM-12+104199999V0209999C000019999999N9999999N1-00771-00891999999ADDMA1999999089561MD1710111+9999ME1314499OA149900511REMSYN088AAXX  04034 06628 33/// /0000 11077 21089 38956 48449 57011 333 55300 20004 91110 91205;
0149066280999992011010404004+46750+007267FM-12+104199999V0200601N000519999999N9999999N1-00771-00871999999ADDMA1999999089531MD1610111+9999ME1314469OA149900151REMSYN088AAXX  04044 06628 33/// /0601 11077 21087 38953 48446 56011 333 55300 20004 91103 91201;
0149066280999992011010405004+46750+007267FM-12+104199999V0201301N000519999999N9999999N1-00741-00841999999ADDMA1999999089501MD1610101+9999ME1314449OA149900151REMSYN088AAXX  04054 06628 33/// /1301 11074 21084 38950 48444 56010 333 55300 20004 91103 91202;
0216066280999992011010406004+46750+007267FM-12+104199999V0202301N000519999999N9999999N1-00731-00821999999ADDAL19900091GJ103909IA2999-01109KA1999N-00921MA1999999089481MD1710081+9999ME1314429OA149900511REMSYN112AAXX  04064 06628 33/// /2301 11073 21082 38948 48442 57008 333 21092 3/111 55065 55300 20004 70000 91110 91205;
0149066280999992011010407004+46750+007267FM-12+104199999V0201501N002119999999N9999999N1-00811-00921999999ADDMA1999999089451MD1710081+9999ME1314389OA149900311REMSYN088AAXX  04074 06628 33/// /1504 11081 21092 38945 48438 57008 333 55300 20004 91106 91204;
0149066280999992011010408004+46750+007267FM-12+104199999V0209999C000019999999N9999999N1-00701-00861999999ADDMA1999999089481MD1519999+9999ME1314439OA149900311REMSYN088AAXX  04084 06628 33/// /0000 11070 21086 38948 48443 55/// 333 55300 20025 91106 91204;
0112066280999992011010409004+46750+007267FM-12+104199999V0201501N000519999999N9999999N1-00731-00871999999ADDMA1999999089461ME1314419REMSYN076AAXX  04094 06628 33/// /1501 11073 21087 38946 48441 5//// 333 553// 20090;
0149066280999992011010410004+46750+007267FM-12+104199999V0202001N001019999999N9999999N1-00611-00811999999ADDMA1999999089481MD1210031+9999ME1314449OA149900211REMSYN088AAXX  04104 06628 33/// /2002 11061 21081 38948 48444 52003 333 55300 20677 91104 91202;
0149066280999992011010411004+46750+007267FM-12+104199999V0201701N001019999999N9999999N1-00601-00761999999ADDMA1999999089451MD1710031+9999ME1314429OA149900211REMSYN088AAXX  04114 06628 33/// /1702 11060 21076 38945 48442 57003 333 55300 20479 91104 91202;
0149066280999992011010412004+46750+007267FM-12+104199999V0203401N001019999999N9999999N1-00561-00721999999ADDMA1999999089391MD1810071+9999ME1314379OA149900461REMSYN088AAXX  04124 06628 33/// /3402 11056 21072 38939 48437 58007 333 55300 20565 91109 91205;
0149066280999992011010413004+46750+007267FM-12+104199999V0202901N000519999999N9999999N1-00541-00691999999ADDMA1999999089341MD1610141+9999ME1314339OA149900311REMSYN088AAXX  04134 06628 33/// /2901 11054 21069 38934 48433 56014 333 55300 20454 91106 91202;
0112066280999992011010414004+46750+007267FM-12+104199999V0203301N000519999999N9999999N1-00541-00721999999ADDMA1999999089331ME1314329REMSYN076AAXX  04144 06628 33/// /3301 11054 21072 38933 48432 5//// 333 553// 20288;
0096066280999992011010415004+46750+007267FM-12+104199999V0203301N000519999999N9999999N1-00551-00661999999ADDMA1999999089311ME1314309REMSYN060AAXX  04154 06628 43/// /3301 11055 21066 38931 48430 5////;
0149066280999992011010416004+46750+007267FM-12+104199999V0203101N001019999999N9999999N1-00561-00681999999ADDMA1999999089311MD1710031+9999ME1314309OA149900211REMSYN088AAXX  04164 06628 33/// /3102 11056 21068 38931 48430 57003 333 55300 20050 91104 91203;
0149066280999992011010417004+46750+007267FM-12+104199999V0201901N000519999999N9999999N1-00591-00661999999ADDMA1999999089321MD1510011+9999ME1314319OA149900211REMSYN088AAXX  04174 06628 33/// /1901 11059 21066 38932 48431 55001 333 55300 20004 91104 91203;
0168066280999992011010418004+46750+007267FM-12+104199999V0202701N001519999999N9999999N1-00531-00641999999ADDKA1120M-00521MA1999999089351MD1210041+9999ME1314349OA149900511REMSYN094AAXX  04184 06628 33/// /2703 11053 21064 38935 48434 52004 333 11052 55300 20004 91110 91204;
0149066280999992011010419004+46750+007267FM-12+104199999V0202901N003119999999N9999999N1-00491-00591999999ADDMA1999999089341MD1210031+9999ME1314349OA149900621REMSYN088AAXX  04194 06628 33/// /2906 11049 21059 38934 48434 52003 333 55300 20004 91112 91206;
0149066280999992011010420004+46750+007267FM-12+104199999V0200101N000519999999N9999999N1-00511-00651999999ADDMA1999999089301MD1810021+9999ME1314309OA149900621REMSYN088AAXX  04204 06628 33/// /0101 11051 21065 38930 48430 58002 333 55300 20004 91112 91206;
0149066280999992011010421004+46750+007267FM-12+104199999V0209999C000019999999N9999999N1-00551-00611999999ADDMA1999999089291MD1710061+9999ME1314299OA149900621REMSYN088AAXX  04214 06628 33/// /0000 11055 21061 38929 48429 57006 333 55300 20004 91112 91206;
0149066280999992011010422004+46750+007267FM-12+104199999V0203001N002119999999N9999999N1-00471-00641999999ADDMA1999999089291MD1710051+9999ME1314309OA149900411REMSYN088AAXX  04224 06628 33/// /3004 11047 21064 38929 48430 57005 333 55300 20004 91108 91204;
0149066280999992011010423004+46750+007267FM-12+104199999V0202901N001519999999N9999999N1-00481-00641999999ADDMA1999999089311MD1510011+9999ME1314319OA149900361REMSYN088AAXX  04234 06628 33/// /2903 11048 21064 38931 48431 55001 333 55300 20004 91107 91204;
0149066280999992011010500004+46750+007267FM-12+104199999V0203001N003119999999N9999999N1-00361-00621999999ADDMA1999999089291MD1010001+9999ME1314319OA149900621REMSYN088AAXX  05004 06628 33/// /3006 11036 21062 38929 48431 50000 333 55300 20004 91112 91206;
0149066280999992011010501004+46750+007267FM-12+104199999V0203001N004619999999N9999999N1-00341-00701999999ADDMA1999999089271MD1710021+9999ME1314309OA149900721REMSYN088AAXX  05014 06628 33/// /3009 11034 21070 38927 48430 57002 333 55300 20004 91114 91209;
0149066280999992011010502004+46750+007267FM-12+104199999V0203201N002119999999N9999999N1-00351-00691999999ADDMA1999999089251MD1610061+9999ME1314289OA149900721REMSYN088AAXX  05024 06628 33/// /3204 11035 21069 38925 48428 56006 333 55300 20004 91114 91209;
0096066280999992011010503004+46750+007267FM-12+104199999V0202501N001019999999N9999999N1-00391-00651999999ADDMA1999999089241ME1314269REMSYN060AAXX  05034 06628 43/// /2502 11039 21065 38924 48426 5////;
0149066280999992011010504004+46750+007267FM-12+104199999V0201601N001019999999N9999999N1-00391-00691999999ADDMA1999999089221MD1810051+9999ME1314259OA149900411REMSYN088AAXX  05044 06628 33/// /1602 11039 21069 38922 48425 58005 333 55300 20004 91108 91205;
0149066280999992011010505004+46750+007267FM-12+104199999V0201501N001019999999N9999999N1-00401-00681999999ADDMA1999999089201MD1810051+9999ME1314239OA149900211REMSYN088AAXX  05054 06628 33/// /1502 11040 21068 38920 48423 58005 333 55300 20004 91104 91202;
0216066280999992011010506004+46750+007267FM-12+104199999V0201601N001019999999N9999999N1-00551-00691999999ADDAL19900091GJ100009IA2999-00709KA1999N-00581MA1999999089241MD1510001+9999ME1314249OA149900721REMSYN112AAXX  05064 06628 33/// /1602 11055 21069 38924 48424 55000 333 21058 3/107 55000 55300 20004 70000 91114 91209;
0149066280999992011010507004+46750+007267FM-12+104199999V0201601N003619999999N9999999N1-00551-00771999999ADDMA1999999089221MD1510001+9999ME1314229OA149900511REMSYN088AAXX  05074 06628 33/// /1607 11055 21077 38922 48422 55000 333 55300 20004 91110 91207;
0149066280999992011010508004+46750+007267FM-12+104199999V0201401N000519999999N9999999N1-00531-00761999999ADDMA1999999089251MD1219999+9999ME1314259OA149900511REMSYN088AAXX  05084 06628 33/// /1401 11053 21076 38925 48425 52/// 333 55301 20036 91110 91207;
0149066280999992011010509004+46750+007267FM-12+104199999V0201901N002119999999N9999999N1-00541-00761999999ADDMA1999999089231MD1710011+9999ME1314239OA149900511REMSYN088AAXX  05094 06628 33/// /1904 11054 21076 38923 48423 57001 333 553// 20418 91110 91207;
0149066280999992011010510004+46750+007267FM-12+104199999V0200701N001019999999N9999999N1-00381-00721999999ADDMA1999999089201MD1810021+9999ME1314239OA149900361REMSYN088AAXX  05104 06628 33/// /0702 11038 21072 38920 48423 58002 333 553// 20839 91107 91205;
0149066280999992011010511004+46750+007267FM-12+104199999V0202601N001019999999N9999999N1-00291-00761999999ADDMA1999999089181MD1710071+9999ME1314239OA149900211REMSYN088AAXX  05114 06628 33/// /2602 11029 21076 38918 48423 57007 333 553// 2//// 91104 91203;
0112066280999992011010512004+46750+007267FM-12+104199999V0202901N002119999999N9999999N1-00231-00761999999ADDMA1999999089121ME1314189REMSYN076AAXX  05124 06628 33/// /2904 11023 21076 38912 48418 5//// 333 553// 2////;
0149066280999992011010513004+46750+007267FM-12+104199999V0203001N002619999999N9999999N1-00161-00831999999ADDMA1999999089111MD1710091+9999ME1314189OA149900411REMSYN088AAXX  05134 06628 33/// /3005 11016 21083 38911 48418 57009 333 553// 2//// 91108 91205;
0096066280999992011010514004+46750+007267FM-12+104199999V0202601N002619999999N9999999N1+00141-00841999999ADDMA1999999089081ME1314209REMSYN060AAXX  05144 06628 43/// /2605 10014 21084 38908 48420 5////;
0096066280999992011010515004+46750+007267FM-12+104199999V0203001N005119999999N9999999N1-00031-00851999999ADDMA1999999089061ME1314169REMSYN060AAXX  05154 06628 43/// /3010 11003 21085 38906 48416 5////;
0149066280999992011010516004+46750+007267FM-12+104199999V0202701N003619999999N9999999N1-00081-00841999999ADDMA1999999089061MD1710051+9999ME1314159OA149900771REMSYN088AAXX  05164 06628 33/// /2707 11008 21084 38906 48415 57005 333 55300 20065 91115 91210;
0149066280999992011010517004+46750+007267FM-12+104199999V0201801N000519999999N9999999N1+00041-00761999999ADDMA1999999089031MD1710051+9999ME1314149OA149900671REMSYN088AAXX  05174 06628 33/// /1801 10004 21076 38903 48414 57005 333 55300 20004 91113 91207;
0168066280999992011010518004+46750+007267FM-12+104199999V0203001N003619999999N9999999N1+00071-00791999999ADDKA1120M+00221MA1999999089021MD1719999+9999ME1314149OA149900821REMSYN094AAXX  05184 06628 33/// /3007 10007 21079 38902 48414 57/// 333 10022 55300 20004 91116 91210;
0149066280999992011010519004+46750+007267FM-12+104199999V0203001N003619999999N9999999N1+00111-00871999999ADDMA1999999089001MD1710061+9999ME1314129OA149900821REMSYN088AAXX  05194 06628 33/// /3007 10011 21087 38900 48412 57006 333 55300 20004 91116 91209;
0149066280999992011010520004+46750+007267FM-12+104199999V0202201N002119999999N9999999N1-00051-00741999999ADDMA1999999088951MD1719999+9999ME1314069OA149900671REMSYN088AAXX  05204 06628 33/// /2204 11005 21074 38895 48406 57/// 333 55300 20007 91113 91209;
0112066280999992011010521004+46750+007267FM-12+104199999V0202601N001519999999N9999999N1-00031-00721999999ADDMA1999999088941ME1314059REMSYN076AAXX  05214 06628 33/// /2603 11003 21072 38894 48405 5//// 333 553// 20004;
0149066280999992011010522004+46750+007267FM-12+104199999V0201601N001519999999N9999999N1+00171-00791999999ADDMA1999999088921MD1610081+9999ME1314069OA149900461REMSYN088AAXX  05224 06628 33/// /1603 10017 21079 38892 48406 56008 333 55300 20007 91109 91204;
0149066280999992011010523004+46750+007267FM-12+104199999V0201901N001019999999N9999999N1-00051-00651999999ADDMA1999999088901MD1719999+9999ME1314019OA149900311REMSYN088AAXX  05234 06628 33/// /1902 11005 21065 38890 48401 57/// 333 55300 20004 91106 91204;
0096066280999992011010600004+46750+007267FM-12+104199999V0201501N001519999999N9999999N1-00041-00591999999ADDMA1999999088841ME1313969REMSYN060AAXX  06004 06628 43/// /1503 11004 21059 38884 48396 5////;
0096066280999992011010601004+46750+007267FM-12+104199999V0202601N002119999999N9999999N1+00091-00761999999ADDMA1999999088831ME1313979REMSYN060AAXX  06014 06628 43/// /2604 10009 21076 38883 48397 5////;
0096066280999992011010602004+46750+007267FM-12+104199999V0203101N004619999999N9999999N1+00191-00831999999ADDMA1999999088821ME1313979REMSYN060AAXX  06024 06628 43/// /3109 10019 21083 38882 48397 5////;
0096066280999992011010603004+46750+007267FM-12+104199999V0203101N002619999999N9999999N1+00261-00781999999ADDMA1999999088841ME1314009REMSYN060AAXX  06034 06628 43/// /3105 10026 21078 38884 48400 5////;
0096066280999992011010604004+46750+007267FM-12+104199999V0202601N005719999999N9999999N1+00501-00221999999ADDMA1999999088801ME1314009REMSYN060AAXX  06044 06628 43/// /2611 10050 21022 38880 48400 5////;
0096066280999992011010605004+46750+007267FM-12+104199999V0200101N000519999999N9999999N1+00151-00181999999ADDMA1999999088821ME1313979REMSYN060AAXX  06054 06628 43/// /0101 10015 21018 38882 48397 5////;
0143066280999992011010606004+46750+007267FM-12+104199999V0202901N001519999999N9999999N1+00521-00051999999ADDIA2999-00309KA1999N-00131MA1999999088821ME1314029REMSYN082AAXX  06064 06628 43/// /2903 10052 21005 38882 48402 5//// 333 21013 3/103 55070;
0096066280999992011010607004+46750+007267FM-12+104199999V0203101N002619999999N9999999N1+00271-00141999999ADDMA1999999088811ME1313979REMSYN060AAXX  06074 06628 43/// /3105 10027 21014 38881 48397 5////;
0112066280999992011010608004+46750+007267FM-12+104199999V0203101N005719999999N9999999N1+00271-00171999999ADDMA1999999088851ME1314019REMSYN076AAXX  06084 06628 33/// /3111 10027 21017 38885 48401 5//// 333 553// 20047;
0096066280999992011010609004+46750+007267FM-12+104199999V0203201N002119999999N9999999N1+00321-00091999999ADDMA1999999088851ME1314029REMSYN060AAXX  06094 06628 43/// /3204 10032 21009 38885 48402 5////;
0149066280999992011010610004+46750+007267FM-12+104199999V0203001N001519999999N9999999N1+00551-00011999999ADDMA1999999088881MD1210071+9999ME1314079OA149901031REMSYN088AAXX  06104 06628 33/// /3003 10055 21001 38888 48407 52007 333 55301 20756 91120 91211;
0149066280999992011010611004+46750+007267FM-12+104199999V0202701N004119999999N9999999N1+00681+00021999999ADDMA1999999088851MD1010001+9999ME1314079OA149901031REMSYN088AAXX  06114 06628 33/// /2708 10068 20002 38885 48407 50000 333 55300 20533 91120 91208;
0149066280999992011010612004+46750+007267FM-12+104199999V0202801N001019999999N9999999N1+00491+00021999999ADDMA1999999088811MD1710041+9999ME1314009OA149901131REMSYN088AAXX  06124 06628 33/// /2802 10049 20002 38881 48400 57004 333 55302 20918 91122 91212;
0149066280999992011010613004+46750+007267FM-12+104199999V0203001N001519999999N9999999N1+00521-00031999999ADDMA1999999088811MD1710071+9999ME1314019OA149900821REMSYN088AAXX  06134 06628 33/// /3003 10052 21003 38881 48401 57007 333 55302 20745 91116 91205;
0096066280999992011010614004+46750+007267FM-12+104199999V0202401N003619999999N9999999N1+00691+00061999999ADDMA1999999088831ME1314059REMSYN060AAXX  06144 06628 43/// /2407 10069 20006 38883 48405 5////;
0096066280999992011010615004+46750+007267FM-12+104199999V0202601N008719999999N9999999N1+00771+00061999999ADDMA1999999088811ME1314049REMSYN060AAXX  06154 06628 43/// /2617 10077 20006 38881 48404 5////;
0149066280999992011010616004+46750+007267FM-12+104199999V0202701N007719999999N9999999N1+00851+00101999999ADDMA1999999088841MD1210031+9999ME1314089OA149901901REMSYN088AAXX  06164 06628 33/// /2715 10085 20010 38884 48408 52003 333 55300 20054 91137 91221;
0155066280999992011010617004+46750+007267FM-12+104199999V0202401N005719999999N9999999N1+00611+00171999999ADDMA1999999088911MD1210081+9999ME1314119OA149901901REMSYN094AAXX  06174 06628 23/// /2411 10061 20017 38891 48411 52008 333 55300 20007 69915 91137 91221;
0210066280999992011010618004+46750+007267FM-12+104199999V0202801N006219999999N9999999N1+00691+00171999999ADDAA112000091KA1120M+00911MA1999999088931MD1210121+9999ME1314149OA149901901REMSYN106AAXX  06184 06628 03/// /2812 10069 20017 38893 48414 52012 69912 333 10091 55300 20004 60005 91137 91221;EQDQ01  00002PRCP12
0149066280999992011010619004+46750+007267FM-12+104199999V0202501N006719999999N9999999N1+00651+00221999999ADDMA1999999089001MD1210161+9999ME1314209OA149901751REMSYN088AAXX  06194 06628 33/// /2513 10065 20022 38900 48420 52016 333 55300 20007 91134 91218;
0155066280999992011010620004+46750+007267FM-12+104199999V0202601N008219999999N9999999N1+00711+00241999999ADDMA1999999089011MD1219999+9999ME1314229OA149901701REMSYN094AAXX  06204 06628 23/// /2616 10071 20024 38901 48422 52/// 333 55300 20004 69915 91133 91218;
0149066280999992011010621004+46750+007267FM-12+104199999V0202701N007719999999N9999999N1+00691+00221999999ADDMA1999999089061MD1219999+9999ME1314269OA149901901REMSYN088AAXX  06214 06628 33/// /2715 10069 20022 38906 48426 52/// 333 55300 20007 91137 91221;
0149066280999992011010622004+46750+007267FM-12+104199999V0202701N005119999999N9999999N1+00681+00231999999ADDMA1999999089111MD1210111+9999ME1314309OA149901801REMSYN088AAXX  06224 06628 33/// /2710 10068 20023 38911 48430 52011 333 55300 20004 91135 91222;
0112066280999992011010623004+46750+007267FM-12+104199999V0202501N010319999999N9999999N1+00851+00301999999ADDMA1999999089141ME1314369REMSYN076AAXX  06234 06628 33/// /2520 10085 20030 38914 48436 5//// 333 553// 20004;
0096066280999992011010700004+46750+007267FM-12+104199999V0202801N005719999999N9999999N1+00741+00271999999ADDMA1999999089161ME1314369REMSYN060AAXX  07004 06628 43/// /2811 10074 20027 38916 48436 5////;
0096066280999992011010701004+46750+007267FM-12+104199999V0202501N009319999999N9999999N1+00931+00301999999ADDMA1999999089141ME1314379REMSYN060AAXX  07014 06628 43/// /2518 10093 20030 38914 48437 5////;
0096066280999992011010702004+46750+007267FM-12+104199999V0202901N001519999999N9999999N1+00541+00271999999ADDMA1999999089231ME1314399REMSYN060AAXX  07024 06628 43/// /2903 10054 20027 38923 48439 5////;
0096066280999992011010703004+46750+007267FM-12+104199999V0202301N005719999999N9999999N1+00741+00381999999ADDMA1999999089251ME1314449REMSYN060AAXX  07034 06628 43/// /2311 10074 20038 38925 48444 5////;
0155066280999992011010704004+46750+007267FM-12+104199999V0202501N008719999999N9999999N1+00841+00381999999ADDMA1999999089261MD1210121+9999ME1314469OA149901601REMSYN094AAXX  07044 06628 23/// /2517 10084 20038 38926 48446 52012 333 55300 20004 69925 91131 91218;
0155066280999992011010705004+46750+007267FM-12+104199999V0202501N007719999999N9999999N1+00901+00351999999ADDMA1999999089201MD1710031+9999ME1314429OA149901601REMSYN094AAXX  07054 06628 23/// /2515 10090 20035 38920 48442 57003 333 55300 20004 69945 91131 91219;
0258066280999992011010706004+46750+007267FM-12+104199999V0200701N002119999999N9999999N1+00391+00361999999ADDAA112001091AL13000191GJ100309IA2999+00309KA1999N+99999MA1999999089221MD1710031+9999ME1314369OA149901851REMSYN124AAXX  07064 06628 03/// /0704 10039 20036 38922 48436 57003 60012 333 20047 3/003 55005 55300 20011 60005 70015 91136 91222;EQDQ01 +00472ATMN  
0149066280999992011010707004+46750+007267FM-12+104199999V0200901N001519999999N9999999N1+00421+00371999999ADDMA1999999089271MD1510011+9999ME1314419OA149900771REMSYN088AAXX  07074 06628 33/// /0903 10042 20037 38927 48441 55001 333 55300 20004 91115 91207;
0112066280999992011010708004+46750+007267FM-12+104199999V0201701N004619999999N9999999N1+00421+00341999999ADDMA1999999089271ME1314419REMSYN076AAXX  07084 06628 33/// /1709 10042 20034 38927 48441 5//// 333 553// 20036;
0096066280999992011010709004+46750+007267FM-12+104199999V0200801N001019999999N9999999N1+00631+00351999999ADDMA1999999089311ME1314489REMSYN060AAXX  07094 06628 43/// /0802 10063 20035 38931 48448 5////;
0149066280999992011010710004+46750+007267FM-12+104199999V0200801N001019999999N9999999N1+00621+00391999999ADDMA1999999089311MD1210041+9999ME1314489OA149900621REMSYN088AAXX  07104 06628 33/// /0802 10062 20039 38931 48448 52004 333 55308 20616 91112 91209;
0149066280999992011010711004+46750+007267FM-12+104199999V0200801N001019999999N9999999N1+00661+00461999999ADDMA1999999089311MD1210041+9999ME1314489OA149900261REMSYN088AAXX  07114 06628 33/// /0802 10066 20046 38931 48448 52004 333 55308 20803 91105 91203;
0149066280999992011010712004+46750+007267FM-12+104199999V0202501N001519999999N9999999N1+00941+00451999999ADDMA1999999089281MD1810031+9999ME1314509OA149901651REMSYN088AAXX  07124 06628 33/// /2503 10094 20045 38928 48450 58003 333 553// 2//// 91132 91221;
0149066280999992011010713004+46750+007267FM-12+104199999V0203201N003119999999N9999999N1+00881+00361999999ADDMA1999999089241MD1710071+9999ME1314459OA149900511REMSYN088AAXX  07134 06628 33/// /3206 10088 20036 38924 48445 57007 333 553// 2//// 91110 91206;
0096066280999992011010714004+46750+007267FM-12+104199999V0202701N002119999999N9999999N1+00831+00401999999ADDMA1999999089301ME1314509REMSYN060AAXX  07144 06628 43/// /2704 10083 20040 38930 48450 5////;
0096066280999992011010715004+46750+007267FM-12+104199999V0202901N000519999999N9999999N1+00761+00401999999ADDMA1999999089321ME1314519REMSYN060AAXX  07154 06628 43/// /2901 10076 20040 38932 48451 5////;
0149066280999992011010716004+46750+007267FM-12+104199999V0201901N001019999999N9999999N1+00761+00351999999ADDMA1999999089341MD1110101+9999ME1314539OA149900511REMSYN088AAXX  07164 06628 33/// /1902 10076 20035 38934 48453 51010 333 55300 20079 91110 91205;
0149066280999992011010717004+46750+007267FM-12+104199999V0202901N001519999999N9999999N1+00901+00231999999ADDMA1999999089351MD1210051+9999ME1314569OA149900511REMSYN088AAXX  07174 06628 33/// /2903 10090 20023 38935 48456 52005 333 55300 20004 91110 91206;
0131066280999992011010718004+46750+007267FM-12+104199999V0202801N002619999999N9999999N1+00911+00161999999ADDKA1120M+00961MA1999999089361ME1314579REMSYN082AAXX  07184 06628 33/// /2805 10091 20016 38936 48457 5//// 333 10096 553// 20004;
0149066280999992011010719004+46750+007267FM-12+104199999V0201701N001019999999N9999999N1+00681+00201999999ADDMA1999999089331MD1819999+9999ME1314509OA149900821REMSYN088AAXX  07194 06628 33/// /1702 10068 20020 38933 48450 58/// 333 55300 20007 91116 91207;
0096066280999992011010720004+46750+007267FM-12+104199999V0201701N001519999999N9999999N1+00701+00141999999ADDMA1999999089301ME1314489REMSYN060AAXX  07204 06628 43/// /1703 10070 20014 38930 48448 5////;
0096066280999992011010721004+46750+007267FM-12+104199999V0201701N001519999999N9999999N1+00811+00131999999ADDMA1999999089321ME1314519REMSYN060AAXX  07214 06628 43/// /1703 10081 20013 38932 48451 5////;
0149066280999992011010722004+46750+007267FM-12+104199999V0201601N003119999999N9999999N1+00601+00081999999ADDMA1999999089331MD1410001+9999ME1314499OA149900511REMSYN088AAXX  07224 06628 33/// /1606 10060 20008 38933 48449 53000 333 55300 20004 91110 91207;
0112066280999992011010723004+46750+007267FM-12+104199999V0201901N002119999999N9999999N1+00751+00071999999ADDMA1999999089381ME1314569REMSYN076AAXX  07234 06628 33/// /1904 10075 20007 38938 48456 5//// 333 553// 20004;
0112066280999992011010800004+46750+007267FM-12+104199999V0201801N002119999999N9999999N1+00751+00071999999ADDMA1999999089341ME1314529REMSYN076AAXX  08004 06628 33/// /1804 10075 20007 38934 48452 5//// 333 553// 20004;
0096066280999992011010801004+46750+007267FM-12+104199999V0203301N001519999999N9999999N1+00861+00111999999ADDMA1999999089351ME1314559REMSYN060AAXX  08014 06628 43/// /3303 10086 20011 38935 48455 5////;
0096066280999992011010802004+46750+007267FM-12+104199999V0202401N002619999999N9999999N1+00761+00131999999ADDMA1999999089381ME1314569REMSYN060AAXX  08024 06628 43/// /2405 10076 20013 38938 48456 5////;
0096066280999992011010803004+46750+007267FM-12+104199999V0201601N000519999999N9999999N1+00771+00091999999ADDMA1999999089331ME1314529REMSYN060AAXX  08034 06628 43/// /1601 10077 20009 38933 48452 5////;
0096066280999992011010804004+46750+007267FM-12+104199999V0202601N004619999999N9999999N1+00541+00341999999ADDMA1999999089461ME1314609REMSYN060AAXX  08044 06628 43/// /2609 10054 20034 38946 48460 5////;
0096066280999992011010805004+46750+007267FM-12+104199999V0202201N004619999999N9999999N1+00571+00341999999ADDMA1999999089431ME1314589REMSYN060AAXX  08054 06628 43/// /2209 10057 20034 38943 48458 5////;
0143066280999992011010806004+46750+007267FM-12+104199999V0202101N006719999999N9999999N1+00571+00361999999ADDIA2999+00409KA1999N+00511MA1999999089421ME1314579REMSYN082AAXX  08064 06628 43/// /2113 10057 20036 38942 48457 5//// 333 20051 3/004 55054;
0096066280999992011010807004+46750+007267FM-12+104199999V0202601N001519999999N9999999N1+00701+00311999999ADDMA1999999089441ME1314619REMSYN060AAXX  08074 06628 43/// /2603 10070 20031 38944 48461 5////;
0112066280999992011010808004+46750+007267FM-12+104199999V0201601N001519999999N9999999N1+00511+00351999999ADDMA1999999089471ME1314609REMSYN076AAXX  08084 06628 33/// /1603 10051 20035 38947 48460 5//// 333 553// 20040;
0096066280999992011010809004+46750+007267FM-12+104199999V0201501N001519999999N9999999N1+00681+00351999999ADDMA1999999089491ME1314659REMSYN060AAXX  08094 06628 43/// /1503 10068 20035 38949 48465 5////;
0096066280999992011010810004+46750+007267FM-12+104199999V0202101N001019999999N9999999N1+00671+00461999999ADDMA1999999089511ME1314679REMSYN060AAXX  08104 06628 43/// /2102 10067 20046 38951 48467 5////;
0096066280999992011010811004+46750+007267FM-12+104199999V0202401N002119999999N9999999N1+00801+00511999999ADDMA1999999089471ME1314659REMSYN060AAXX  08114 06628 43/// /2404 10080 20051 38947 48465 5////;
0096066280999992011010812004+46750+007267FM-12+104199999V0203001N002119999999N9999999N1+00941+00251999999ADDMA1999999089431ME1314649REMSYN060AAXX  08124 06628 43/// /3004 10094 20025 38943 48464 5////;
0096066280999992011010813004+46750+007267FM-12+104199999V0203101N001519999999N9999999N1+00911+00261999999ADDMA1999999089421ME1314629REMSYN060AAXX  08134 06628 43/// /3103 10091 20026 38942 48462 5////;
0096066280999992011010814004+46750+007267FM-12+104199999V0203101N003119999999N9999999N1+00941+00161999999ADDMA1999999089411ME1314629REMSYN060AAXX  08144 06628 43/// /3106 10094 20016 38941 48462 5////;
0096066280999992011010815004+46750+007267FM-12+104199999V0202801N005119999999N9999999N1+00891+00211999999ADDMA1999999089441ME1314649REMSYN060AAXX  08154 06628 43/// /2810 10089 20021 38944 48464 5////;
0096066280999992011010816004+46750+007267FM-12+104199999V0203101N001519999999N9999999N1+00741+00101999999ADDMA1999999089431ME1314609REMSYN060AAXX  08164 06628 43/// /3103 10074 20010 38943 48460 5////;
0096066280999992011010817004+46750+007267FM-12+104199999V0201701N001519999999N9999999N1+00731+00091999999ADDMA1999999089421ME1314599REMSYN060AAXX  08174 06628 43/// /1703 10073 20009 38942 48459 5////;
0096066280999992011010818004+46750+007267FM-12+104199999V0201501N003119999999N9999999N1+00611+00001999999ADDMA1999999089401ME1314569REMSYN060AAXX  08184 06628 43/// /1506 10061 20000 38940 48456 5////;
0096066280999992011010819004+46750+007267FM-12+104199999V0202101N000519999999N9999999N1+00671-00101999999ADDMA1999999089381ME1314559REMSYN060AAXX  08194 06628 43/// /2101 10067 21010 38938 48455 5////;
0096066280999992011010820004+46750+007267FM-12+104199999V0201501N003119999999N9999999N1+00521-00141999999ADDMA1999999089361ME1314519REMSYN060AAXX  08204 06628 43/// /1506 10052 21014 38936 48451 5////;
0096066280999992011010821004+46750+007267FM-12+104199999V0200301N000519999999N9999999N1+00601-00101999999ADDMA1999999089361ME1314529REMSYN060AAXX  08214 06628 43/// /0301 10060 21010 38936 48452 5////;
0096066280999992011010822004+46750+007267FM-12+104199999V0200701N000519999999N9999999N1+00631-00041999999ADDMA1999999089351ME1314519REMSYN060AAXX  08224 06628 43/// /0701 10063 21004 38935 48451 5////;
0096066280999992011010823004+46750+007267FM-12+104199999V0209999C000019999999N9999999N1+00641+00081999999ADDMA1999999089351ME1314529REMSYN060AAXX  08234 06628 43/// /0000 10064 20008 38935 48452 5////;
0096066280999992011010900004+46750+007267FM-12+104199999V0201501N002119999999N9999999N1+00381-00081999999ADDMA1999999089361ME1314499REMSYN060AAXX  09004 06628 43/// /1504 10038 21008 38936 48449 5////;
0096066280999992011010901004+46750+007267FM-12+104199999V0201601N004119999999N9999999N1+00411-00161999999ADDMA1999999089331ME1314469REMSYN060AAXX  09014 06628 43/// /1608 10041 21016 38933 48446 5////;
0096066280999992011010902004+46750+007267FM-12+104199999V0201501N002619999999N9999999N1+00421-00151999999ADDMA1999999089331ME1314469REMSYN060AAXX  09024 06628 43/// /1505 10042 21015 38933 48446 5////;
0096066280999992011010903004+46750+007267FM-12+104199999V0203201N001019999999N9999999N1+00581-00261999999ADDMA1999999089331ME1314499REMSYN060AAXX  09034 06628 43/// /3202 10058 21026 38933 48449 5////;
0096066280999992011010904004+46750+007267FM-12+104199999V0201501N004619999999N9999999N1+00391-00271999999ADDMA1999999089281ME1314429REMSYN060AAXX  09044 06628 43/// /1509 10039 21027 38928 48442 5////;
0096066280999992011010905004+46750+007267FM-12+104199999V0201201N001519999999N9999999N1+00431-00311999999ADDMA1999999089271ME1314419REMSYN060AAXX  09054 06628 43/// /1203 10043 21031 38927 48441 5////;
0106066280999992011010906004+46750+007267FM-12+104199999V0202201N001019999999N9999999N1+00611-00351999999ADDMA1999999089281ME1314459REMSYN070AAXX  09064 06628 43/// /2202 10061 21035 38928 48445 5//// 333 55066;
0096066280999992011010907004+46750+007267FM-12+104199999V0201701N002119999999N9999999N1+00541-00371999999ADDMA1999999089311ME1314469REMSYN060AAXX  09074 06628 43/// /1704 10054 21037 38931 48446 5////;
0112066280999992011010908004+46750+007267FM-12+104199999V0202701N005719999999N9999999N1+00681-00261999999ADDMA1999999089391ME1314569REMSYN076AAXX  09084 06628 33/// /2711 10068 21026 38939 48456 5//// 333 553// 20036;
0112066280999992011010909004+46750+007267FM-12+104199999V0202901N005719999999N9999999N1+00641-00211999999ADDMA1999999089401ME1314569REMSYN076AAXX  09094 06628 33/// /2911 10064 21021 38940 48456 5//// 333 553// 20162;
0149066280999992011010910004+46750+007267FM-12+104199999V0202901N005719999999N9999999N1+00601-00051999999ADDMA1999999089421MD1210111+9999ME1314579OA149901031REMSYN088AAXX  09104 06628 33/// /2911 10060 21005 38942 48457 52011 333 55300 20284 91120 91213;
0149066280999992011010911004+46750+007267FM-12+104199999V0203101N003119999999N9999999N1+00591+00121999999ADDMA1999999089421MD1210031+9999ME1314579OA149900981REMSYN088AAXX  09114 06628 33/// /3106 10059 20012 38942 48457 52003 333 55300 20299 91119 91213;
0149066280999992011010912004+46750+007267FM-12+104199999V0203101N005119999999N9999999N1+00501+00241999999ADDMA1999999089381MD1710021+9999ME1314529OA149901081REMSYN088AAXX  09124 06628 33/// /3110 10050 20024 38938 48452 57002 333 55300 20310 91121 91213;
0149066280999992011010913004+46750+007267FM-12+104199999V0203101N004119999999N9999999N1+00551+00251999999ADDMA1999999089391MD1710031+9999ME1314549OA149900721REMSYN088AAXX  09134 06628 33/// /3108 10055 20025 38939 48454 57003 333 55300 20389 91114 91210;
0096066280999992011010914004+46750+007267FM-12+104199999V0202801N005719999999N9999999N1+00491+00371999999ADDMA1999999089441ME1314579REMSYN060AAXX  09144 06628 43/// /2811 10049 20037 38944 48457 5////;
0096066280999992011010915004+46750+007267FM-12+104199999V0202701N009319999999N9999999N1+00381+00241999999ADDMA1999999089481ME1314599REMSYN060AAXX  09154 06628 43/// /2718 10038 20024 38948 48459 5////;
0155066280999992011010916004+46750+007267FM-12+104199999V0202601N004619999999N9999999N1+00321+00181999999ADDMA1999999089571MD1310181+9999ME1314679OA149901751REMSYN094AAXX  09164 06628 23/// /2609 10032 20018 38957 48467 53018 333 55300 20018 60025 91134 91221;
0155066280999992011010917004+46750+007267FM-12+104199999V0202601N004119999999N9999999N1+00281+00131999999ADDMA1999999089581MD1110141+9999ME1314679OA149901701REMSYN094AAXX  09174 06628 23/// /2608 10028 20013 38958 48467 51014 333 55300 20004 60025 91133 91221;
0191066280999992011010918004+46750+007267FM-12+104199999V0202401N003119999999N9999999N1+00321+00171999999ADDAA112005191KA1120M+00731MA1999999089601MD1110121+9999ME1314699OA149901751REMSYN106AAXX  09184 06628 03/// /2406 10032 20017 38960 48469 51012 60052 333 10073 55300 20004 60015 91134 91221;
0155066280999992011010919004+46750+007267FM-12+104199999V0202301N003119999999N9999999N1+00321+00151999999ADDMA1999999089641MD1310071+9999ME1314739OA149900721REMSYN094AAXX  09194 06628 23/// /2306 10032 20015 38964 48473 53007 333 55300 20004 60025 91114 91209;
0155066280999992011010920004+46750+007267FM-12+104199999V0202201N001019999999N9999999N1+00251+00151999999ADDMA1999999089671MD1310091+9999ME1314749OA149900671REMSYN094AAXX  09204 06628 23/// /2202 10025 20015 38967 48474 53009 333 55300 20004 60025 91113 91208;
0155066280999992011010921004+46750+007267FM-12+104199999V0203101N002119999999N9999999N1+00211+00121999999ADDMA1999999089701MD1310101+9999ME1314769OA149901701REMSYN094AAXX  09214 06628 23/// /3104 10021 20012 38970 48476 53010 333 55300 20007 60025 91133 91221;
0155066280999992011010922004+46750+007267FM-12+104199999V0202301N001019999999N9999999N1+00151+00121999999ADDMA1999999089741MD1310101+9999ME1314799OA149900411REMSYN094AAXX  09224 06628 23/// /2302 10015 20012 38974 48479 53010 333 55300 20004 60025 91108 91205;
0155066280999992011010923004+46750+007267FM-12+104199999V0201601N002619999999N9999999N1+00111+00091999999ADDMA1999999089751MD1110081+9999ME1314799OA149900411REMSYN094AAXX  09234 06628 23/// /1605 10011 20009 38975 48479 51008 333 55300 20004 60025 91108 91205;
0172066280999992011011000004+46750+007267FM-12+104199999V0201601N001019999999N9999999N1+00151+00101999999ADDAA106009991MA1999999089761MD1110061+9999ME1314819OA149901751REMSYN100AAXX  10004 06628 03/// /1602 10015 20010 38976 48481 51006 60101 333 55300 20004 69945 91134 91221;
0155066280999992011011001004+46750+007267FM-12+104199999V0200701N000519999999N9999999N1+00151+00121999999ADDMA1999999089781MD1310041+9999ME1314839OA149900461REMSYN094AAXX  10014 06628 23/// /0701 10015 20012 38978 48483 53004 333 55300 20004 69925 91109 91206;
0118066280999992011011002004+46750+007267FM-12+104199999V0203001N001519999999N9999999N1+00161+00121999999ADDMA1999999089801ME1314849REMSYN082AAXX  10024 06628 23/// /3003 10016 20012 38980 48484 5//// 333 553// 20004 69915;
0096066280999992011011003004+46750+007267FM-12+104199999V0202801N001019999999N9999999N1+00131+00121999999ADDMA1999999089801ME1314849REMSYN060AAXX  10034 06628 43/// /2802 10013 20012 38980 48484 5////;
0118066280999992011011004004+46750+007267FM-12+104199999V0201801N000519999999N9999999N1+00141+00111999999ADDMA1999999089791ME1314839REMSYN082AAXX  10044 06628 23/// /1801 10014 20011 38979 48483 5//// 333 553// 20004 69955;
0149066280999992011011005004+46750+007267FM-12+104199999V0202801N000519999999N9999999N1+00121+00071999999ADDMA1999999089781MD1719999+9999ME1314829OA149900211REMSYN088AAXX  10054 06628 33/// /2801 10012 20007 38978 48482 57/// 333 55300 20004 91104 91202;
0168066280999992011011006004+46750+007267FM-12+104199999V0203401N000519999999N9999999N1+00101+00071999999ADDAA124016591GJ100009IA2999+00109KA1999N+00111MA1999999089791ME1314839REMSYN088AAXX  10064 06628 43/// /3401 10010 20007 38979 48483 5//// 333 20011 3/001 55000 70164;
0149066280999992011011007004+46750+007267FM-12+104199999V0201701N000519999999N9999999N1+00101+00101999999ADDMA1999999089801MD1310011+9999ME1314839OA149900151REMSYN088AAXX  10074 06628 33/// /1701 10010 20010 38980 48483 53001 333 55300 20004 91103 91202;
0096066280999992011011008004+46750+007267FM-12+104199999V0209999C000019999999N9999999N1+00101+00081999999ADDMA1999999089841ME1314879REMSYN060AAXX  10084 06628 43/// /0000 10010 20008 38984 48487 5////;
0096066280999992011011009004+46750+007267FM-12+104199999V0201201N000519999999N9999999N1+00111+00061999999ADDMA1999999089851ME1314889REMSYN060AAXX  10094 06628 43/// /1201 10011 20006 38985 48488 5////;
0149066280999992011011010004+46750+007267FM-12+104199999V0200701N001019999999N9999999N1+00181+00141999999ADDMA1999999089851MD1110051+9999ME1314899OA149900151REMSYN088AAXX  10104 06628 33/// /0702 10018 20014 38985 48489 51005 333 55300 20328 91103 91202;
0149066280999992011011011004+46750+007267FM-12+104199999V0200801N001019999999N9999999N1+00191+00121999999ADDMA1999999089811MD1819999+9999ME1314869OA149900151REMSYN088AAXX  10114 06628 33/// /0802 10019 20012 38981 48486 58/// 333 55300 20493 91103 91202;
0135066280999992011011012004+46750+007267FM-12+104199999V0200201N000519999999N9999999N1+00181+00171999999ADDAA106000591MA1999999089771ME1314829REMSYN088AAXX  10124 06628 03/// /0201 10018 20017 38977 48482 5//// 69941 333 553// 20360 60005;
0096066280999992011011013004+46750+007267FM-12+104199999V0200501N001519999999N9999999N1+00141+00141999999ADDMA1999999089711ME1314769REMSYN060AAXX  10134 06628 43/// /0503 10014 20014 38971 48476 5////;
0096066280999992011011014004+46750+007267FM-12+104199999V0200501N001519999999N9999999N1+00131+00131999999ADDMA1999999089661ME1314729REMSYN060AAXX  10144 06628 43/// /0503 10013 20013 38966 48472 5////;
0096066280999992011011015004+46750+007267FM-12+104199999V0200601N001519999999N9999999N1+00101+00101999999ADDMA1999999089651ME1314709REMSYN060AAXX  10154 06628 43/// /0603 10010 20010 38965 48470 5////;
0096066280999992011011016004+46750+007267FM-12+104199999V0200301N001019999999N9999999N1+00091+00091999999ADDMA1999999089631ME1314689REMSYN060AAXX  10164 06628 43/// /0302 10009 20009 38963 48468 5////;
0096066280999992011011017004+46750+007267FM-12+104199999V0203501N001519999999N9999999N1+00081+00061999999ADDMA1999999089621ME1314679REMSYN060AAXX  10174 06628 43/// /3503 10008 20006 38962 48467 5////;
0119066280999992011011018004+46750+007267FM-12+104199999V0200101N001019999999N9999999N1+00081+00031999999ADDKA1999M+00241MA1999999089591ME1314659REMSYN070AAXX  10184 06628 43/// /0102 10008 20003 38959 48465 5//// 333 10024;
0096066280999992011011019004+46750+007267FM-12+104199999V0202201N000519999999N9999999N1+00071+00061999999ADDMA1999999089591ME1314649REMSYN060AAXX  10194 06628 43/// /2201 10007 20006 38959 48464 5////;
0096066280999992011011020004+46750+007267FM-12+104199999V0202901N000519999999N9999999N1+00031+00031999999ADDMA1999999089591ME1314649REMSYN060AAXX  10204 06628 43/// /2901 10003 20003 38959 48464 5////;
0096066280999992011011021004+46750+007267FM-12+104199999V0202601N001019999999N9999999N1+00061+00021999999ADDMA1999999089571ME1314629REMSYN060AAXX  10214 06628 43/// /2602 10006 20002 38957 48462 5////;
0096066280999992011011022004+46750+007267FM-12+104199999V0201601N001519999999N9999999N1+00041+00041999999ADDMA1999999089541ME1314599REMSYN060AAXX  10224 06628 43/// /1603 10004 20004 38954 48459 5////;
0096066280999992011011023004+46750+007267FM-12+104199999V0201601N000519999999N9999999N1+00041-00051999999ADDMA1999999089531ME1314599REMSYN060AAXX  10234 06628 43/// /1601 10004 21005 38953 48459 5////;
0096066280999992011011100004+46750+007267FM-12+104199999V0201701N001519999999N9999999N1-00011-00081999999ADDMA1999999089481ME1314539REMSYN060AAXX  11004 06628 43/// /1703 11001 21008 38948 48453 5////;
0096066280999992011011101004+46750+007267FM-12+104199999V0201701N002119999999N9999999N1-00021-00091999999ADDMA1999999089421ME1314489REMSYN060AAXX  11014 06628 43/// /1704 11002 21009 38942 48448 5////;
0096066280999992011011102004+46750+007267FM-12+104199999V0201601N002619999999N9999999N1-00061-00111999999ADDMA1999999089411ME1314469REMSYN060AAXX  11024 06628 43/// /1605 11006 21011 38941 48446 5////;
0096066280999992011011103004+46750+007267FM-12+104199999V0201701N002619999999N9999999N1-00071-00121999999ADDMA1999999089371ME1314439REMSYN060AAXX  11034 06628 43/// /1705 11007 21012 38937 48443 5////;
0096066280999992011011104004+46750+007267FM-12+104199999V0201801N001519999999N9999999N1-00131-00171999999ADDMA1999999089321ME1314379REMSYN060AAXX  11044 06628 43/// /1803 11013 21017 38932 48437 5////;
0096066280999992011011105004+46750+007267FM-12+104199999V0201701N001519999999N9999999N1-00181-00241999999ADDMA1999999089271ME1314329REMSYN060AAXX  11054 06628 43/// /1703 11018 21024 38927 48432 5////;
0106066280999992011011106004+46750+007267FM-12+104199999V0201701N001519999999N9999999N1-00211-00261999999ADDMA1999999089221ME1314279REMSYN070AAXX  11064 06628 43/// /1703 11021 21026 38922 48427 5//// 333 55000;
0149066280999992011011107004+46750+007267FM-12+104199999V0201301N002119999999N9999999N1-00131-00181999999ADDMA1999999089171MD1619999+9999ME1314249OA149900311REMSYN088AAXX  11074 06628 33/// /1304 11013 21018 38917 48424 56/// 333 55300 20004 91106 91204;
0112066280999992011011108004+46750+007267FM-12+104199999V0201601N000519999999N9999999N1-00161-00221999999ADDMA1999999089181ME1314259REMSYN076AAXX  11084 06628 33/// /1601 11016 21022 38918 48425 5//// 333 553// 20040;
0096066280999992011011109004+46750+007267FM-12+104199999V0201801N001519999999N9999999N1-00151-00191999999ADDMA1999999089141ME1314219REMSYN060AAXX  11094 06628 43/// /1803 11015 21019 38914 48421 5////;
0149066280999992011011110004+46750+007267FM-12+104199999V0201801N000519999999N9999999N1-00081-00121999999ADDMA1999999089121MD1710051+9999ME1314209OA149900311REMSYN088AAXX  11104 06628 33/// /1801 11008 21012 38912 48420 57005 333 55300 20598 91106 91205;
0149066280999992011011111004+46750+007267FM-12+104199999V0202001N000519999999N9999999N1-00051-00111999999ADDMA1999999089051MD1710131+9999ME1314159OA149900261REMSYN088AAXX  11114 06628 33/// /2001 11005 21011 38905 48415 57013 333 55300 20580 91105 91202;
0112066280999992011011112004+46750+007267FM-12+104199999V0203001N005119999999N9999999N1+00131-00231999999ADDMA1999999088981ME1314119REMSYN076AAXX  11124 06628 33/// /3010 10013 21023 38898 48411 5//// 333 553// 20400;
0155066280999992011011113004+46750+007267FM-12+104199999V0202701N003619999999N9999999N1+00081-00081999999ADDMA1999999088991MD1710131+9999ME1314119OA149900931REMSYN094AAXX  11134 06628 23/// /2707 10008 21008 38899 48411 57013 333 55300 20180 69915 91118 91211;
0096066280999992011011114004+46750+007267FM-12+104199999V0203001N001519999999N9999999N1+00031-00071999999ADDMA1999999089011ME1314129REMSYN060AAXX  11144 06628 43/// /3003 10003 21007 38901 48412 5////;
0096066280999992011011115004+46750+007267FM-12+104199999V0203501N001519999999N9999999N1+00031-00021999999ADDMA1999999089061ME1314179REMSYN060AAXX  11154 06628 43/// /3503 10003 21002 38906 48417 5////;
0149066280999992011011116004+46750+007267FM-12+104199999V0202401N001519999999N9999999N1+00131+00031999999ADDMA1999999089141MD1310151+9999ME1314259OA149900461REMSYN088AAXX  11164 06628 33/// /2403 10013 20003 38914 48425 53015 333 55300 20140 91109 91204;
0149066280999992011011117004+46750+007267FM-12+104199999V0202701N006719999999N9999999N1+00291-00011999999ADDMA1999999089221MD1210201+9999ME1314359OA149901131REMSYN088AAXX  11174 06628 33/// /2713 10029 21001 38922 48435 52020 333 55300 20011 91122 91213;
0191066280999992011011118004+46750+007267FM-12+104199999V0202601N007219999999N9999999N1+00271-00031999999ADDAA112000591KA1120M+00311MA1999999089301MD1210241+9999ME1314429OA149901291REMSYN106AAXX  11184 06628 03/// /2614 10027 21003 38930 48442 52024 69962 333 10031 55300 20007 69915 91125 91214;
0149066280999992011011119004+46750+007267FM-12+104199999V0202901N003619999999N9999999N1+00281-00041999999ADDMA1999999089381MD1310241+9999ME1314499OA149901291REMSYN088AAXX  11194 06628 33/// /2907 10028 21004 38938 48449 53024 333 55300 20004 91125 91214;
0155066280999992011011120004+46750+007267FM-12+104199999V0202701N003619999999N9999999N1+00091+00031999999ADDMA1999999089491MD1310271+9999ME1314569OA149900821REMSYN094AAXX  11204 06628 23/// /2707 10009 20003 38949 48456 53027 333 55300 20007 60025 91116 91209;
0155066280999992011011121004+46750+007267FM-12+104199999V0202601N004119999999N9999999N1+00181+00021999999ADDMA1999999089581MD1210281+9999ME1314659OA149901291REMSYN094AAXX  11214 06628 23/// /2608 10018 20002 38958 48465 52028 333 55300 20004 69915 91125 91214;
0149066280999992011011122004+46750+007267FM-12+104199999V0202601N003619999999N9999999N1+00201+00021999999ADDMA1999999089691MD1310311+9999ME1314759OA149901031REMSYN088AAXX  11224 06628 33/// /2607 10020 20002 38969 48475 53031 333 55300 20004 91120 91210;
0149066280999992011011123004+46750+007267FM-12+104199999V0202601N002619999999N9999999N1+00171+00011999999ADDMA1999999089721MD1210231+9999ME1314789OA149900881REMSYN088AAXX  11234 06628 33/// /2605 10017 20001 38972 48478 52023 333 55300 20004 91117 91210;
0172066280999992011011200004+46750+007267FM-12+104199999V0202401N003619999999N9999999N1+00191-00011999999ADDAA106002091MA1999999089751MD1210171+9999ME1314819OA149901291REMSYN100AAXX  12004 06628 03/// /2407 10019 21001 38975 48481 52017 60021 333 55300 20004 60005 91125 91214;
0149066280999992011011201004+46750+007267FM-12+104199999V0202701N004119999999N9999999N1+00241-00061999999ADDMA1999999089801MD1210111+9999ME1314869OA149900621REMSYN088AAXX  12014 06628 33/// /2708 10024 21006 38980 48486 52011 333 55300 20004 91112 91208;
0112066280999992011011202004+46750+007267FM-12+104199999V0202701N002119999999N9999999N1+00201+00001999999ADDMA1999999089871ME1314919REMSYN076AAXX  12024 06628 33/// /2704 10020 20000 38987 48491 5//// 333 553// 20004;
0096066280999992011011203004+46750+007267FM-12+104199999V0202501N003619999999N9999999N1+00231-00011999999ADDMA1999999089941ME1314989REMSYN060AAXX  12034 06628 43/// /2507 10023 21001 38994 48498 5////;
0096066280999992011011204004+46750+007267FM-12+104199999V0202601N005119999999N9999999N1+00241-00011999999ADDMA1999999089971ME1315019REMSYN060AAXX  12044 06628 43/// /2610 10024 21001 38997 48501 5////;
0112066280999992011011205004+46750+007267FM-12+104199999V0202701N005119999999N9999999N1+00191+00021999999ADDMA1999999090041ME1315069REMSYN076AAXX  12054 06628 33/// /2710 10019 20002 39004 48506 5//// 333 553// 20004;
0168066280999992011011206004+46750+007267FM-12+104199999V0202701N005719999999N9999999N1+00201+00011999999ADDAA124002391GJ100069IA2999+00009KA1999N+00071MA1999999090071ME1315099REMSYN088AAXX  12064 06628 43/// /2711 10020 20001 39007 48509 5//// 333 20007 3/000 55001 70022;
0149066280999992011011207004+46750+007267FM-12+104199999V0202901N003119999999N9999999N1+00181+00001999999ADDMA1999999090101MD1210131+9999ME1315119OA149901081REMSYN088AAXX  12074 06628 33/// /2906 10018 20000 39010 48511 52013 333 55300 20004 91121 91213;
0096066280999992011011208004+46750+007267FM-12+104199999V0202701N004619999999N9999999N1+00201-00031999999ADDMA1999999090111ME1315139REMSYN060AAXX  12084 06628 43/// /2709 10020 21003 39011 48513 5////;
0096066280999992011011209004+46750+007267FM-12+104199999V0202801N005119999999N9999999N1+00191+00011999999ADDMA1999999090141ME1315159REMSYN060AAXX  12094 06628 43/// /2810 10019 20001 39014 48515 5////;
0149066280999992011011210004+46750+007267FM-12+104199999V0203001N002119999999N9999999N1+00221+00051999999ADDMA1999999090131MD1519999+9999ME1315159OA149901031REMSYN088AAXX  12104 06628 33/// /3004 10022 20005 39013 48515 55/// 333 55300 20288 91120 91211;
0149066280999992011011211004+46750+007267FM-12+104199999V0203001N002119999999N9999999N1+00201+00031999999ADDMA1999999090141MD1210031+9999ME1315159OA149901031REMSYN088AAXX  12114 06628 33/// /3004 10020 20003 39014 48515 52003 333 55300 20374 91120 91211;
0096066280999992011011212004+46750+007267FM-12+104199999V0202401N002619999999N9999999N1+00361+00051999999ADDMA1999999090091ME1315149REMSYN060AAXX  12124 06628 43/// /2405 10036 20005 39009 48514 5////;
0096066280999992011011213004+46750+007267FM-12+104199999V0203301N002119999999N9999999N1+00281+00081999999ADDMA1999999090101ME1315139REMSYN060AAXX  12134 06628 43/// /3304 10028 20008 39010 48513 5////;
0096066280999992011011214004+46750+007267FM-12+104199999V0202901N003619999999N9999999N1+00411-00171999999ADDMA1999999090151ME1315209REMSYN060AAXX  12144 06628 43/// /2907 10041 21017 39015 48520 5////;
0096066280999992011011215004+46750+007267FM-12+104199999V0202501N005119999999N9999999N1+00331-00161999999ADDMA1999999090121ME1315169REMSYN060AAXX  12154 06628 43/// /2510 10033 21016 39012 48516 5////;
0149066280999992011011216004+46750+007267FM-12+104199999V0203001N002119999999N9999999N1+00301-00031999999ADDMA1999999090141MD1210041+9999ME1315179OA149900981REMSYN088AAXX  12164 06628 33/// /3004 10030 21003 39014 48517 52004 333 55300 20043 91119 91213;
0149066280999992011011217004+46750+007267FM-12+104199999V0201501N002119999999N9999999N1+00311+00011999999ADDMA1999999090171MD1310021+9999ME1315209OA149900571REMSYN088AAXX  12174 06628 33/// /1504 10031 20001 39017 48520 53002 333 55300 20004 91111 91207;
0210066280999992011011218004+46750+007267FM-12+104199999V0202001N002119999999N9999999N1+00231+00091999999ADDAA112000091KA1120M+00441MA1999999090161MD1210041+9999ME1315189OA149901081REMSYN106AAXX  12184 06628 03/// /2004 10023 20009 39016 48518 52004 69922 333 10044 55300 20007 69925 91121 91213;EQDQ01  00002PRCP12
0149066280999992011011219004+46750+007267FM-12+104199999V0202701N002619999999N9999999N1+00481+00231999999ADDMA1999999090201MD1210061+9999ME1315269OA149900671REMSYN088AAXX  12194 06628 33/// /2705 10048 20023 39020 48526 52006 333 55300 20004 91113 91206;
0149066280999992011011220004+46750+007267FM-12+104199999V0202501N004619999999N9999999N1+00591+00321999999ADDMA1999999090181MD1010011+9999ME1315269OA149900721REMSYN088AAXX  12204 06628 33/// /2509 10059 20032 39018 48526 50001 333 55300 20004 91114 91209;
0149066280999992011011221004+46750+007267FM-12+104199999V0202601N003619999999N9999999N1+00651+00411999999ADDMA1999999090201MD1210041+9999ME1315299OA149900771REMSYN088AAXX  12214 06628 33/// /2607 10065 20041 39020 48529 52004 333 55300 20004 91115 91209;
0155066280999992011011222004+46750+007267FM-12+104199999V0202501N003119999999N9999999N1+00551+00441999999ADDMA1999999090201MD1510001+9999ME1315279OA149900771REMSYN094AAXX  12224 06628 23/// /2506 10055 20044 39020 48527 55000 333 55300 20007 69995 91115 91209;
0155066280999992011011223004+46750+007267FM-12+104199999V0202701N004619999999N9999999N1+00651+00471999999ADDMA1999999090211MD1010031+9999ME1315309OA149900821REMSYN094AAXX  12234 06628 23/// /2709 10065 20047 39021 48530 50003 333 55300 20004 69975 91116 91209;
0172066280999992011011300004+46750+007267FM-12+104199999V0202701N005719999999N9999999N1+00681+00501999999ADDAA106002091MA1999999090201MD1010001+9999ME1315299OA149901241REMSYN100AAXX  13004 06628 03/// /2711 10068 20050 39020 48529 50000 60021 333 55300 20004 69955 91124 91213;
0155066280999992011011301004+46750+007267FM-12+104199999V0202701N007219999999N9999999N1+00701+00491999999ADDMA1999999090181MD1710021+9999ME1315289OA149901391REMSYN094AAXX  13014 06628 23/// /2714 10070 20049 39018 48528 57002 333 55300 20004 69985 91127 91214;
0155066280999992011011302004+46750+007267FM-12+104199999V0202601N008219999999N9999999N1+00711+00491999999ADDMA1999999090191MD1719999+9999ME1315299OA149901391REMSYN094AAXX  13024 06628 23/// /2616 10071 20049 39019 48529 57/// 333 55300 20004 69965 91127 91216;
0096066280999992011011303004+46750+007267FM-12+104199999V0202701N007719999999N9999999N1+00701+00471999999ADDMA1999999090161ME1315269REMSYN060AAXX  13034 06628 43/// /2715 10070 20047 39016 48526 5////;
0155066280999992011011304004+46750+007267FM-12+104199999V0202501N005119999999N9999999N1+00671+00501999999ADDMA1999999090111MD1819999+9999ME1315219OA149901291REMSYN094AAXX  13044 06628 23/// /2510 10067 20050 39011 48521 58/// 333 55300 20004 69945 91125 91216;
0112066280999992011011305004+46750+007267FM-12+104199999V0202701N005119999999N9999999N1+00701+00451999999ADDMA1999999090151ME1315259REMSYN076AAXX  13054 06628 33/// /2710 10070 20045 39015 48525 5//// 333 553// 20004;
0239066280999992011011306004+46750+007267FM-12+104199999V0202701N006219999999N9999999N1+00711+00451999999ADDAA112004191AL11200491GJ100009IA2999+00209KA1999N+00191MA1999999090181MD1310021+9999ME1315289OA149901391REMSYN124AAXX  13064 06628 03/// /2712 10071 20045 39018 48528 53002 60042 333 20019 3/002 55000 55300 20004 60005 70042 91127 91216;
0096066280999992011011307004+46750+007267FM-12+104199999V0202801N003119999999N9999999N1+00741+00431999999ADDMA1999999090221ME1315329REMSYN060AAXX  13074 06628 43/// /2806 10074 20043 39022 48532 5////;
0096066280999992011011308004+46750+007267FM-12+104199999V0202701N008219999999N9999999N1+00691+00441999999ADDMA1999999090231ME1315329REMSYN060AAXX  13084 06628 43/// /2716 10069 20044 39023 48532 5////;
0096066280999992011011309004+46750+007267FM-12+104199999V0202701N008719999999N9999999N1+00671+00451999999ADDMA1999999090261ME1315349REMSYN060AAXX  13094 06628 43/// /2717 10067 20045 39026 48534 5////;
0096066280999992011011310004+46750+007267FM-12+104199999V0202401N004619999999N9999999N1+00731+00421999999ADDMA1999999090271ME1315369REMSYN060AAXX  13104 06628 43/// /2409 10073 20042 39027 48536 5////;
0096066280999992011011311004+46750+007267FM-12+104199999V0202401N005719999999N9999999N1+00811+00421999999ADDMA1999999090251ME1315369REMSYN060AAXX  13114 06628 43/// /2411 10081 20042 39025 48536 5////;
0096066280999992011011312004+46750+007267FM-12+104199999V0202701N009319999999N9999999N1+00821+00331999999ADDMA1999999090201ME1315329REMSYN060AAXX  13124 06628 43/// /2718 10082 20033 39020 48532 5////;
0096066280999992011011313004+46750+007267FM-12+104199999V0202401N005719999999N9999999N1+00861+00371999999ADDMA1999999090151ME1315289REMSYN060AAXX  13134 06628 43/// /2411 10086 20037 39015 48528 5////;
0096066280999992011011314004+46750+007267FM-12+104199999V0202801N004119999999N9999999N1+00921+00391999999ADDMA1999999090181ME1315329REMSYN060AAXX  13144 06628 43/// /2808 10092 20039 39018 48532 5////;
0096066280999992011011315004+46750+007267FM-12+104199999V0202601N005119999999N9999999N1+00881+00411999999ADDMA1999999090161ME1315299REMSYN060AAXX  13154 06628 43/// /2610 10088 20041 39016 48529 5////;
0096066280999992011011316004+46750+007267FM-12+104199999V0202501N003619999999N9999999N1+00861+00411999999ADDMA1999999090181ME1315319REMSYN060AAXX  13164 06628 43/// /2507 10086 20041 39018 48531 5////;
0149066280999992011011317004+46750+007267FM-12+104199999V0202601N003119999999N9999999N1+00841+00401999999ADDMA1999999090191MD1210011+9999ME1315319OA149900721REMSYN088AAXX  13174 06628 33/// /2606 10084 20040 39019 48531 52001 333 55300 20007 91114 91209;
0168066280999992011011318004+46750+007267FM-12+104199999V0202501N002619999999N9999999N1+00851+00461999999ADDKA1120M+00971MA1999999090191MD1210031+9999ME1315319OA149901601REMSYN094AAXX  13184 06628 33/// /2505 10085 20046 39019 48531 52003 333 10097 55300 20004 91131 91219;
0149066280999992011011319004+46750+007267FM-12+104199999V0202701N003119999999N9999999N1+00841+00491999999ADDMA1999999090201MD1210021+9999ME1315329OA149900671REMSYN088AAXX  13194 06628 33/// /2706 10084 20049 39020 48532 52002 333 55300 20004 91113 91208;
0149066280999992011011320004+46750+007267FM-12+104199999V0202801N003119999999N9999999N1+00821+00481999999ADDMA1999999090201MD1210011+9999ME1315329OA149900671REMSYN088AAXX  13204 06628 33/// /2806 10082 20048 39020 48532 52001 333 55300 20004 91113 91208;
0149066280999992011011321004+46750+007267FM-12+104199999V0202701N006719999999N9999999N1+00781+00471999999ADDMA1999999090181MD1810011+9999ME1315299OA149901031REMSYN088AAXX  13214 06628 33/// /2713 10078 20047 39018 48529 58001 333 55300 20004 91120 91213;
0149066280999992011011322004+46750+007267FM-12+104199999V0202701N005719999999N9999999N1+00731+00481999999ADDMA1999999090171MD1710031+9999ME1315279OA149901081REMSYN088AAXX  13224 06628 33/// /2711 10073 20048 39017 48527 57003 333 55300 20004 91121 91213;
0149066280999992011011323004+46750+007267FM-12+104199999V0202701N005719999999N9999999N1+00761+00451999999ADDMA1999999090161MD1710041+9999ME1315279OA149901081REMSYN088AAXX  13234 06628 33/// /2711 10076 20045 39016 48527 57004 333 55300 20004 91121 91213;
0149066280999992011011400004+46750+007267FM-12+104199999V0202901N003119999999N9999999N1+00681+00481999999ADDMA1999999090161MD1710021+9999ME1315269OA149901601REMSYN088AAXX  14004 06628 33/// /2906 10068 20048 39016 48526 57002 333 55300 20007 91131 91219;
0149066280999992011011401004+46750+007267FM-12+104199999V0203001N003619999999N9999999N1+00651+00481999999ADDMA1999999090171MD1510001+9999ME1315269OA149900821REMSYN088AAXX  14014 06628 33/// /3007 10065 20048 39017 48526 55000 333 55300 20004 91116 91210;
0112066280999992011011402004+46750+007267FM-12+104199999V0203001N004119999999N9999999N1+00641+00481999999ADDMA1999999090191ME1315289REMSYN076AAXX  14024 06628 33/// /3008 10064 20048 39019 48528 5//// 333 553// 20004;
0149066280999992011011403004+46750+007267FM-12+104199999V0202901N003119999999N9999999N1+00621+00491999999ADDMA1999999090191MD1210031+9999ME1315279OA149901081REMSYN088AAXX  14034 06628 33/// /2906 10062 20049 39019 48527 52003 333 55300 20004 91121 91213;
0149066280999992011011404004+46750+007267FM-12+104199999V0202801N002119999999N9999999N1+00611+00461999999ADDMA1999999090151MD1810021+9999ME1315239OA149900671REMSYN088AAXX  14044 06628 33/// /2804 10061 20046 39015 48523 58002 333 55300 20004 91113 91208;
0149066280999992011011405004+46750+007267FM-12+104199999V0203101N003119999999N9999999N1+00571+00481999999ADDMA1999999090161MD1710031+9999ME1315249OA149900571REMSYN088AAXX  14054 06628 33/// /3106 10057 20048 39016 48524 57003 333 55300 20004 91111 91207;
0216066280999992011011406004+46750+007267FM-12+104199999V0203001N002619999999N9999999N1+00541+00431999999ADDAL19900091GJ100249IA2999+00509KA1999N+00551MA1999999090181MD1510011+9999ME1315259OA149901081REMSYN112AAXX  14064 06628 33/// /3005 10054 20043 39018 48525 55001 333 20055 3/005 55004 55300 20004 70000 91121 91213;
0149066280999992011011407004+46750+007267FM-12+104199999V0203001N002119999999N9999999N1+00521+00381999999ADDMA1999999090181MD1010031+9999ME1315259OA149900511REMSYN088AAXX  14074 06628 33/// /3004 10052 20038 39018 48525 50003 333 55300 20004 91110 91206;
0096066280999992011011408004+46750+007267FM-12+104199999V0202801N001019999999N9999999N1+00501+00331999999ADDMA1999999090181ME1315249REMSYN060AAXX  14084 06628 43/// /2802 10050 20033 39018 48524 5////;
0096066280999992011011409004+46750+007267FM-12+104199999V0201601N001019999999N9999999N1+00511+00251999999ADDMA1999999090151ME1315229REMSYN060AAXX  14094 06628 43/// /1602 10051 20025 39015 48522 5////;
0096066280999992011011410004+46750+007267FM-12+104199999V0201701N001019999999N9999999N1+00541+00261999999ADDMA1999999090131ME1315209REMSYN060AAXX  14104 06628 43/// /1702 10054 20026 39013 48520 5////;
0149066280999992011011411004+46750+007267FM-12+104199999V0200801N000519999999N9999999N1+00541+00261999999ADDMA1999999090101MD1710081+9999ME1315189OA149900211REMSYN088AAXX  14114 06628 33/// /0801 10054 20026 39010 48518 57008 333 55300 20734 91104 91203;
0149066280999992011011412004+46750+007267FM-12+104199999V0201401N001019999999N9999999N1+00601+00311999999ADDMA1999999090061MD1710091+9999ME1315159OA149900821REMSYN088AAXX  14124 06628 33/// /1402 10060 20031 39006 48515 57009 333 55300 20684 91116 91210;
0149066280999992011011413004+46750+007267FM-12+104199999V0203401N001019999999N9999999N1+00611+00311999999ADDMA1999999090021MD1710111+9999ME1315129OA149900311REMSYN088AAXX  14134 06628 33/// /3402 10061 20031 39002 48512 57011 333 55301 20868 91106 91203;
0112066280999992011011414004+46750+007267FM-12+104199999V0203101N001519999999N9999999N1+00641+00331999999ADDMA1999999090001ME1315109REMSYN076AAXX  14144 06628 33/// /3103 10064 20033 39000 48510 5//// 333 553// 20950;
0149066280999992011011415004+46750+007267FM-12+104199999V0202801N001519999999N9999999N1+00621+00331999999ADDMA1999999090001MD1710061+9999ME1315109OA149900311REMSYN088AAXX  14154 06628 33/// /2803 10062 20033 39000 48510 57006 333 55303 20536 91106 91203;
0149066280999992011011416004+46750+007267FM-12+104199999V0202901N001519999999N9999999N1+00541+00321999999ADDMA1999999089991MD1710031+9999ME1315089OA149900311REMSYN088AAXX  14164 06628 33/// /2903 10054 20032 38999 48508 57003 333 55301 20198 91106 91203;
0149066280999992011011417004+46750+007267FM-12+104199999V0202801N001519999999N9999999N1+00451+00291999999ADDMA1999999089961MD1710041+9999ME1315049OA149900361REMSYN088AAXX  14174 06628 33/// /2803 10045 20029 38996 48504 57004 333 55300 20011 91107 91204;
0168066280999992011011418004+46750+007267FM-12+104199999V0203201N001019999999N9999999N1+00441+00321999999ADDKA1120M+00701MA1999999089961MD1710041+9999ME1315039OA149900361REMSYN094AAXX  14184 06628 33/// /3202 10044 20032 38996 48503 57004 333 10070 55300 20004 91107 91204;
0149066280999992011011419004+46750+007267FM-12+104199999V0201701N001519999999N9999999N1+00431+00261999999ADDMA1999999089941MD1710051+9999ME1315019OA149900361REMSYN088AAXX  14194 06628 33/// /1703 10043 20026 38994 48501 57005 333 55300 20007 91107 91205;
0149066280999992011011420004+46750+007267FM-12+104199999V0201901N001019999999N9999999N1+00361+00141999999ADDMA1999999089971MD1310011+9999ME1315039OA149900361REMSYN088AAXX  14204 06628 33/// /1902 10036 20014 38997 48503 53001 333 55300 20004 91107 91205;
0149066280999992011011421004+46750+007267FM-12+104199999V0202701N012919999999N9999999N1+00791-00281999999ADDMA1999999089971MD1510011+9999ME1315109OA149902261REMSYN088AAXX  14214 06628 33/// /2725 10079 21028 38997 48510 55001 333 55300 20004 91144 91228;
0149066280999992011011422004+46750+007267FM-12+104199999V0202801N007719999999N9999999N1+00711-00151999999ADDMA1999999090081MD1210141+9999ME1315199OA149902261REMSYN088AAXX  14224 06628 33/// /2815 10071 21015 39008 48519 52014 333 55300 20004 91144 91228;
0149066280999992011011423004+46750+007267FM-12+104199999V0202701N013419999999N9999999N1+00621+00121999999ADDMA1999999090191MD1210221+9999ME1315279OA149902211REMSYN088AAXX  14234 06628 33/// /2726 10062 20012 39019 48527 52022 333 55300 20007 91143 91226;
0149066280999992011011500004+46750+007267FM-12+104199999V0202601N010319999999N9999999N1+00601+00161999999ADDMA1999999090261MD1210291+9999ME1315339OA149902261REMSYN088AAXX  15004 06628 33/// /2620 10060 20016 39026 48533 52029 333 55300 20004 91144 91228;
0155066280999992011011501004+46750+007267FM-12+104199999V0202601N008719999999N9999999N1+00541+00231999999ADDMA1999999090291MD1210211+9999ME1315359OA149902111REMSYN094AAXX  15014 06628 23/// /2617 10054 20023 39029 48535 52021 333 55300 20007 69935 91141 91225;
0155066280999992011011502004+46750+007267FM-12+104199999V0202601N008719999999N9999999N1+00491+00281999999ADDMA1999999090351MD1219999+9999ME1315399OA149901801REMSYN094AAXX  15024 06628 23/// /2617 10049 20028 39035 48539 52/// 333 55300 20007 69925 91135 91223;
0118066280999992011011503004+46750+007267FM-12+104199999V0202701N007219999999N9999999N1+00461+00311999999ADDMA1999999090441ME1315479REMSYN082AAXX  15034 06628 23/// /2714 10046 20031 39044 48547 5//// 333 553// 20004 69945;
0155066280999992011011504004+46750+007267FM-12+104199999V0202701N005119999999N9999999N1+00431+00321999999ADDMA1999999090501MD1110211+9999ME1315519OA149901491REMSYN094AAXX  15044 06628 23/// /2710 10043 20032 39050 48551 51021 333 55300 20004 69915 91129 91218;
0149066280999992011011505004+46750+007267FM-12+104199999V0202701N005719999999N9999999N1+00431+00271999999ADDMA1999999090551MD1110201+9999ME1315569OA149901291REMSYN088AAXX  15054 06628 33/// /2711 10043 20027 39055 48556 51020 333 55300 20004 91125 91215;
0239066280999992011011506004+46750+007267FM-12+104199999V0202701N004619999999N9999999N1+00441+00131999999ADDAA112001091AL19900191GJ100609IA2999+00209KA1999N+00321MA1999999090591MD1110151+9999ME1315609OA149902261REMSYN124AAXX  15064 06628 03/// /2709 10044 20013 39059 48560 51015 60012 333 20032 3/002 55010 55300 20004 60005 70010 91144 91228;
0149066280999992011011507004+46750+007267FM-12+104199999V0202401N002119999999N9999999N1+00321+00171999999ADDMA1999999090601MD1210101+9999ME1315589OA149900821REMSYN088AAXX  15074 06628 33/// /2404 10032 20017 39060 48558 52010 333 55300 20007 91116 91210;
0149066280999992011011508004+46750+007267FM-12+104199999V0202801N001519999999N9999999N1+00411+00071999999ADDMA1999999090581MD1019999+9999ME1315589OA149900621REMSYN088AAXX  15084 06628 33/// /2803 10041 20007 39058 48558 50/// 333 55302 20076 91112 91207;
0149066280999992011011509004+46750+007267FM-12+104199999V0202401N000519999999N9999999N1+00431+00191999999ADDMA1999999090661MD1310071+9999ME1315669OA149901291REMSYN088AAXX  15094 06628 33/// /2401 10043 20019 39066 48566 53007 333 553// 20457 91125 91215;
0149066280999992011011510004+46750+007267FM-12+104199999V0202301N001019999999N9999999N1+00501+00261999999ADDMA1999999090681MD1210081+9999ME1315699OA149900311REMSYN088AAXX  15104 06628 33/// /2302 10050 20026 39068 48569 52008 333 553// 20979 91106 91203;
0149066280999992011011511004+46750+007267FM-12+104199999V0203101N001019999999N9999999N1+00461+00221999999ADDMA1999999090651MD1010071+9999ME1315659OA149900411REMSYN088AAXX  15114 06628 33/// /3102 10046 20022 39065 48565 50007 333 55303 20666 91108 91204;
0149066280999992011011512004+46750+007267FM-12+104199999V0202901N001019999999N9999999N1+00581+00221999999ADDMA1999999090591MD1710071+9999ME1315629OA149901801REMSYN088AAXX  15124 06628 33/// /2902 10058 20022 39059 48562 57007 333 55309 2//// 91135 91223;
0112066280999992011011513004+46750+007267FM-12+104199999V0202001N001519999999N9999999N1+00611+00281999999ADDMA1999999090571ME1315619REMSYN076AAXX  15134 06628 33/// /2003 10061 20028 39057 48561 5//// 333 553// 2////;
0096066280999992011011514004+46750+007267FM-12+104199999V0200601N001019999999N9999999N1+00641+00291999999ADDMA1999999090591ME1315639REMSYN060AAXX  15144 06628 43/// /0602 10064 20029 39059 48563 5////;
0096066280999992011011515004+46750+007267FM-12+104199999V0200301N001519999999N9999999N1+00601+00271999999ADDMA1999999090641ME1315679REMSYN060AAXX  15154 06628 43/// /0303 10060 20027 39064 48567 5////;
0096066280999992011011516004+46750+007267FM-12+104199999V0209999C000019999999N9999999N1+00511+00291999999ADDMA1999999090671ME1315689REMSYN060AAXX  15164 06628 43/// /0000 10051 20029 39067 48568 5////;
0112066280999992011011517004+46750+007267FM-12+104199999V0201601N002619999999N9999999N1+00411+00201999999ADDMA1999999090651ME1315649REMSYN076AAXX  15174 06628 33/// /1605 10041 20020 39065 48564 5//// 333 553// 20014;
0119066280999992011011518004+46750+007267FM-12+104199999V0201901N000519999999N9999999N1+00491+00211999999ADDKA1999M+00681MA1999999090691ME1315699REMSYN070AAXX  15184 06628 43/// /1901 10049 20021 39069 48569 5//// 333 10068;
0096066280999992011011519004+46750+007267FM-12+104199999V0201601N002119999999N9999999N1+00291+00041999999ADDMA1999999090701ME1315669REMSYN060AAXX  15194 06628 43/// /1604 10029 20004 39070 48566 5////;
0096066280999992011011520004+46750+007267FM-12+104199999V0201601N002119999999N9999999N1+00311-00111999999ADDMA1999999090721ME1315699REMSYN060AAXX  15204 06628 43/// /1604 10031 21011 39072 48569 5////;
0149066280999992011011521004+46750+007267FM-12+104199999V0201701N003619999999N9999999N1+00251-00301999999ADDMA1999999090701MD1010011+9999ME1315669OA149900671REMSYN088AAXX  15214 06628 33/// /1707 10025 21030 39070 48566 50001 333 55300 20007 91113 91209;
0149066280999992011011522004+46750+007267FM-12+104199999V0201601N001019999999N9999999N1+00381-00301999999ADDMA1999999090701MD1410001+9999ME1315689OA149900671REMSYN088AAXX  15224 06628 33/// /1602 10038 21030 39070 48568 57000 333 55300 20004 91113 91209;
0149066280999992011011523004+46750+007267FM-12+104199999V0202101N001519999999N9999999N1+00531-00611999999ADDMA1999999090661MD1710061+9999ME1315689OA149900571REMSYN088AAXX  15234 06628 33/// /2103 10053 21061 39066 48568 57006 333 55300 20004 91111 91208;
0149066280999992011011600004+46750+007267FM-12+104199999V0201501N000519999999N9999999N1+00471-00521999999ADDMA1999999090621MD1710081+9999ME1315639OA149900671REMSYN088AAXX  16004 06628 33/// /1501 10047 21052 39062 48563 57008 333 55300 20004 91113 91209;
0149066280999992011011601004+46750+007267FM-12+104199999V0201801N003119999999N9999999N1+00261-00671999999ADDMA1999999090591MD1610111+9999ME1315569OA149900461REMSYN088AAXX  16014 06628 33/// /1806 10026 21067 39059 48556 56011 333 55300 20007 91109 91206;
0149066280999992011011602004+46750+007267FM-12+104199999V0201401N000519999999N9999999N1+00361-00621999999ADDMA1999999090581MD1719999+9999ME1315579OA149900461REMSYN088AAXX  16024 06628 33/// /1401 10036 21062 39058 48557 57/// 333 55300 20004 91109 91206;
0096066280999992011011603004+46750+007267FM-12+104199999V0201001N000519999999N9999999N1+00411-00011999999ADDMA1999999090571ME1315579REMSYN060AAXX  16034 06628 43/// /1001 10041 21001 39057 48557 5////;
0149066280999992011011604004+46750+007267FM-12+104199999V0200501N001019999999N9999999N1+00401+00221999999ADDMA1999999090561MD1710031+9999ME1315569OA149900151REMSYN088AAXX  16044 06628 33/// /0502 10040 20022 39056 48556 57003 333 55300 20004 91103 91202;
0149066280999992011011605004+46750+007267FM-12+104199999V0200101N001019999999N9999999N1+00381+00191999999ADDMA1999999090581MD1510001+9999ME1315589OA149900151REMSYN088AAXX  16054 06628 33/// /0102 10038 20019 39058 48558 55000 333 55300 20004 91103 91203;
0216066280999992011011606004+46750+007267FM-12+104199999V0202901N001019999999N9999999N1+00301+00101999999ADDAL19900091GJ104089IA2999+00009KA1999N+00211MA1999999090611MD1310041+9999ME1315599OA149900671REMSYN112AAXX  16064 06628 33/// /2902 10030 20010 39061 48559 53004 333 20021 3/000 55068 55300 20004 70000 91113 91209;
0149066280999992011011607004+46750+007267FM-12+104199999V0201801N001019999999N9999999N1+00321+00021999999ADDMA1999999090641MD1210081+9999ME1315629OA149900211REMSYN088AAXX  16074 06628 33/// /1802 10032 20002 39064 48562 52008 333 55300 20004 91104 91203;
0149066280999992011011608004+46750+007267FM-12+104199999V0201601N001519999999N9999999N1+00221-00241999999ADDMA1999999090661MD1219999+9999ME1315629OA149900311REMSYN088AAXX  16084 06628 33/// /1603 10022 21024 39066 48562 52/// 333 55303 20068 91106 91203;
0149066280999992011011609004+46750+007267FM-12+104199999V0202001N001519999999N9999999N1+00441-00291999999ADDMA1999999090661MD1210051+9999ME1315669OA149900411REMSYN088AAXX  16094 06628 33/// /2003 10044 21029 39066 48566 52005 333 553// 20472 91108 91205;
0149066280999992011011610004+46750+007267FM-12+104199999V0201901N001019999999N9999999N1+00531-00121999999ADDMA1999999090671MD1210031+9999ME1315689OA149900411REMSYN088AAXX  16104 06628 33/// /1902 10053 21012 39067 48568 52003 333 553// 20929 91108 91205;
0149066280999992011011611004+46750+007267FM-12+104199999V0202101N001019999999N9999999N1+00671+00111999999ADDMA1999999090661MD1010001+9999ME1315709OA149900211REMSYN088AAXX  16114 06628 33/// /2102 10067 20011 39066 48570 50000 333 553// 2//// 91104 91202;
0149066280999992011011612004+46750+007267FM-12+104199999V0201001N000519999999N9999999N1+00761+00041999999ADDMA1999999090631MD1810031+9999ME1315699OA149900461REMSYN088AAXX  16124 06628 33/// /1001 10076 20004 39063 48569 58003 333 553// 2//// 91109 91206;
0149066280999992011011613004+46750+007267FM-12+104199999V0201601N000519999999N9999999N1+00831+00151999999ADDMA1999999090581MD1810091+9999ME1315669OA149900211REMSYN088AAXX  16134 06628 33/// /1601 10083 20015 39058 48566 58009 333 553// 2//// 91104 91202;
0149066280999992011011614004+46750+007267FM-12+104199999V0201901N001019999999N9999999N1+00831+00231999999ADDMA1999999090561MD1619999+9999ME1315649OA149900211REMSYN088AAXX  16144 06628 33/// /1902 10083 20023 39056 48564 56/// 333 553// 2//// 91104 91202;
0149066280999992011011615004+46750+007267FM-12+104199999V0202901N000519999999N9999999N1+00811+00241999999ADDMA1999999090571MD1510061+9999ME1315659OA149900211REMSYN088AAXX  16154 06628 33/// /2901 10081 20024 39057 48565 55006 333 553// 20716 91104 91202;
0149066280999992011011616004+46750+007267FM-12+104199999V0201901N001519999999N9999999N1+00721+00101999999ADDMA1999999090571MD1510011+9999ME1315639OA149900261REMSYN088AAXX  16164 06628 33/// /1903 10072 20010 39057 48563 55001 333 55308 20241 91105 91203;
0149066280999992011011617004+46750+007267FM-12+104199999V0201701N002619999999N9999999N1+00711-00221999999ADDMA1999999090581MD1210021+9999ME1315649OA149900571REMSYN088AAXX  16174 06628 33/// /1705 10071 21022 39058 48564 52002 333 55300 20014 91111 91207;
0168066280999992011011618004+46750+007267FM-12+104199999V0202101N002119999999N9999999N1+00591-00321999999ADDKA1120M+00861MA1999999090601MD1310031+9999ME1315639OA149900571REMSYN094AAXX  16184 06628 33/// /2104 10059 21032 39060 48563 53003 333 10086 55300 20007 91111 91207;
0149066280999992011011619004+46750+007267FM-12+104199999V0201701N003119999999N9999999N1+00561-00391999999ADDMA1999999090621MD1310051+9999ME1315659OA149900511REMSYN088AAXX  16194 06628 33/// /1706 10056 21039 39062 48565 53005 333 55300 20007 91110 91206;
0149066280999992011011620004+46750+007267FM-12+104199999V0201801N002619999999N9999999N1+00481-00431999999ADDMA1999999090641MD1210061+9999ME1315659OA149900511REMSYN088AAXX  16204 06628 33/// /1805 10048 21043 39064 48565 52006 333 55300 20004 91110 91207;
0149066280999992011011621004+46750+007267FM-12+104199999V0201801N001519999999N9999999N1+00521-00511999999ADDMA1999999090641MD1210041+9999ME1315669OA149900571REMSYN088AAXX  16214 06628 33/// /1803 10052 21051 39064 48566 52004 333 55300 20004 91111 91207;
0149066280999992011011622004+46750+007267FM-12+104199999V0201501N003119999999N9999999N1+00571-00541999999ADDMA1999999090641MD1210021+9999ME1315679OA149900461REMSYN088AAXX  16224 06628 33/// /1506 10057 21054 39064 48567 52002 333 55300 20004 91109 91206;
0149066280999992011011623004+46750+007267FM-12+104199999V0201601N003119999999N9999999N1+00511-00521999999ADDMA1999999090631MD1810011+9999ME1315659OA149900511REMSYN088AAXX  16234 06628 33/// /1606 10051 21052 39063 48565 58001 333 55300 20004 91110 91207;
0149066280999992011011700004+46750+007267FM-12+104199999V0201601N002119999999N9999999N1+00581-00571999999ADDMA1999999090641MD1010001+9999ME1315679OA149900571REMSYN088AAXX  17004 06628 33/// /1604 10058 21057 39064 48567 50000 333 55300 20004 91111 91207;
0149066280999992011011701004+46750+007267FM-12+104199999V0201601N004619999999N9999999N1+00571-00531999999ADDMA1999999090601MD1810041+9999ME1315639OA149900621REMSYN088AAXX  17014 06628 33/// /1609 10057 21053 39060 48563 58004 333 55300 20004 91112 91209;
0149066280999992011011702004+46750+007267FM-12+104199999V0201601N003619999999N9999999N1+00561-00541999999ADDMA1999999090591MD1719999+9999ME1315629OA149900671REMSYN088AAXX  17024 06628 33/// /1607 10056 21054 39059 48562 57/// 333 55300 20004 91113 91209;
0112066280999992011011703004+46750+007267FM-12+104199999V0201601N003619999999N9999999N1+00521-00511999999ADDMA1999999090571ME1315599REMSYN076AAXX  17034 06628 33/// /1607 10052 21051 39057 48559 5//// 333 553// 20004;
0149066280999992011011704004+46750+007267FM-12+104199999V0201601N003619999999N9999999N1+00371-00471999999ADDMA1999999090541MD1810061+9999ME1315549OA149900571REMSYN088AAXX  17044 06628 33/// /1607 10037 21047 39054 48554 58006 333 55300 20007 91111 91208;
0149066280999992011011705004+46750+007267FM-12+104199999V0202001N002119999999N9999999N1+00561-00511999999ADDMA1999999090511MD1810081+9999ME1315559OA149900511REMSYN088AAXX  17054 06628 33/// /2004 10056 21051 39051 48555 58008 333 55300 20004 91110 91207;
0216066280999992011011706004+46750+007267FM-12+104199999V0202901N001019999999N9999999N1+00431-00381999999ADDAL19900091GJ104869IA2999+00209KA1999N+00371MA1999999090491MD1610081+9999ME1315519OA149900671REMSYN112AAXX  17064 06628 33/// /2902 10043 21038 39049 48551 56008 333 20037 3/002 55081 55300 20004 70000 91113 91209;
0149066280999992011011707004+46750+007267FM-12+104199999V0203101N001519999999N9999999N1+00371-00481999999ADDMA1999999090481MD1610061+9999ME1315499OA149900461REMSYN088AAXX  17074 06628 33/// /3103 10037 21048 39048 48549 56006 333 55300 20004 91109 91205;
0096066280999992011011708004+46750+007267FM-12+104199999V0201701N000519999999N9999999N1+00421-00461999999ADDMA1999999090491ME1315509REMSYN060AAXX  17084 06628 43/// /1701 10042 21046 39049 48550 5////;
0096066280999992011011709004+46750+007267FM-12+104199999V0202001N000519999999N9999999N1+00421-00321999999ADDMA1999999090481ME1315499REMSYN060AAXX  17094 06628 43/// /2001 10042 21032 39048 48549 5////;
0149066280999992011011710004+46750+007267FM-12+104199999V0202501N001019999999N9999999N1+00521-00301999999ADDMA1999999090521MD1210041+9999ME1315559OA149900211REMSYN088AAXX  17104 06628 33/// /2502 10052 21030 39052 48555 52004 333 553// 20911 91104 91203;
0149066280999992011011711004+46750+007267FM-12+104199999V0203101N002119999999N9999999N1+00571-00241999999ADDMA1999999090521MD1210031+9999ME1315569OA149900361REMSYN088AAXX  17114 06628 33/// /3104 10057 21024 39052 48556 52003 333 553// 2//// 91107 91204;
0149066280999992011011712004+46750+007267FM-12+104199999V0203001N000519999999N9999999N1+00641-00301999999ADDMA1999999090511MD1010031+9999ME1315569OA149900671REMSYN088AAXX  17124 06628 33/// /3001 10064 21030 39051 48556 50003 333 553// 2//// 91113 91209;
0149066280999992011011713004+46750+007267FM-12+104199999V0203101N001019999999N9999999N1+00691-00051999999ADDMA1999999090491MD1810031+9999ME1315559OA149900461REMSYN088AAXX  17134 06628 33/// /3102 10069 21005 39049 48555 58003 333 553// 2//// 91109 91205;
0096066280999992011011714004+46750+007267FM-12+104199999V0202601N001019999999N9999999N1+00621+00041999999ADDMA1999999090511ME1315569REMSYN060AAXX  17144 06628 43/// /2602 10062 20004 39051 48556 5////;
0096066280999992011011715004+46750+007267FM-12+104199999V0202901N002119999999N9999999N1+00691+00051999999ADDMA1999999090541ME1315609REMSYN060AAXX  17154 06628 43/// /2904 10069 20005 39054 48560 5////;
0149066280999992011011716004+46750+007267FM-12+104199999V0202701N005119999999N9999999N1+00751-00251999999ADDMA1999999090561MD1210071+9999ME1315639OA149900821REMSYN088AAXX  17164 06628 33/// /2710 10075 21025 39056 48563 52007 333 55304 20205 91116 91210;
0149066280999992011011717004+46750+007267FM-12+104199999V0202701N004619999999N9999999N1+00631-00281999999ADDMA1999999090591MD1110081+9999ME1315639OA149900821REMSYN088AAXX  17174 06628 33/// /2709 10063 21028 39059 48563 51008 333 55300 20018 91116 91210;
0168066280999992011011718004+46750+007267FM-12+104199999V0202601N002619999999N9999999N1+00631-00271999999ADDKA1120M+00751MA1999999090581MD1210041+9999ME1315629OA149900821REMSYN094AAXX  17184 06628 33/// /2605 10063 21027 39058 48562 52004 333 10075 55300 20004 91116 91210;
0149066280999992011011719004+46750+007267FM-12+104199999V0203201N001019999999N9999999N1+00611-00281999999ADDMA1999999090621MD1210061+9999ME1315669OA149900511REMSYN088AAXX  17194 06628 33/// /3202 10061 21028 39062 48566 52006 333 55300 20007 91110 91207;
0149066280999992011011720004+46750+007267FM-12+104199999V0201601N003619999999N9999999N1+00411-00311999999ADDMA1999999090621MD1210031+9999ME1315629OA149900571REMSYN088AAXX  17204 06628 33/// /1607 10041 21031 39062 48562 52003 333 55300 20007 91111 91207;
0149066280999992011011721004+46750+007267FM-12+104199999V0201701N002119999999N9999999N1+00481-00351999999ADDMA1999999090611MD1010031+9999ME1315629OA149900821REMSYN088AAXX  17214 06628 33/// /1704 10048 21035 39061 48562 50003 333 55300 20004 91116 91210;
0149066280999992011011722004+46750+007267FM-12+104199999V0201601N003619999999N9999999N1+00371-00341999999ADDMA1999999090611MD1710011+9999ME1315609OA149900621REMSYN088AAXX  17224 06628 33/// /1607 10037 21034 39061 48560 57001 333 55300 20007 91112 91207;
0149066280999992011011723004+46750+007267FM-12+104199999V0202301N001019999999N9999999N1+00431-00271999999ADDMA1999999090641MD1310021+9999ME1315649OA149900621REMSYN088AAXX  17234 06628 33/// /2302 10043 21027 39064 48564 53002 333 55300 20004 91112 91207;
0149066280999992011011800004+46750+007267FM-12+104199999V0201701N003119999999N9999999N1+00391-00331999999ADDMA1999999090601MD1810011+9999ME1315609OA149900821REMSYN088AAXX  18004 06628 33/// /1706 10039 21033 39060 48560 58001 333 55300 20007 91116 91210;
0149066280999992011011801004+46750+007267FM-12+104199999V0201601N003619999999N9999999N1+00351-00331999999ADDMA1999999090591MD1819999+9999ME1315589OA149900621REMSYN088AAXX  18014 06628 33/// /1607 10035 21033 39059 48558 58/// 333 55300 20004 91112 91208;
0096066280999992011011802004+46750+007267FM-12+104199999V0201501N004119999999N9999999N1+00321-00321999999ADDMA1999999090571ME1315569REMSYN060AAXX  18024 06628 43/// /1508 10032 21032 39057 48556 5////;
0096066280999992011011803004+46750+007267FM-12+104199999V0202101N001519999999N9999999N1+00331-00311999999ADDMA1999999090561ME1315559REMSYN060AAXX  18034 06628 43/// /2103 10033 21031 39056 48555 5////;
0112066280999992011011804004+46750+007267FM-12+104199999V0201601N003619999999N9999999N1+00271-00351999999ADDMA1999999090501ME1315489REMSYN076AAXX  18044 06628 33/// /1607 10027 21035 39050 48548 5//// 333 553// 20007;
0149066280999992011011805004+46750+007267FM-12+104199999V0203001N001019999999N9999999N1+00371-00321999999ADDMA1999999090501MD1710071+9999ME1315509OA149900571REMSYN088AAXX  18054 06628 33/// /3002 10037 21032 39050 48550 57007 333 55300 20004 91111 91207;
0216066280999992011011806004+46750+007267FM-12+104199999V0201601N002619999999N9999999N1+00261-00321999999ADDAL19900091GJ104569IA2999+00009KA1999N+00221MA1999999090521MD1510041+9999ME1315509OA149900621REMSYN112AAXX  18064 06628 33/// /1605 10026 21032 39052 48550 55004 333 20022 3/000 55076 55300 20007 70000 91112 91208;
0149066280999992011011807004+46750+007267FM-12+104199999V0201601N002619999999N9999999N1+00271-00311999999ADDMA1999999090531MD1210031+9999ME1315519OA149900461REMSYN088AAXX  18074 06628 33/// /1605 10027 21031 39053 48551 52003 333 55300 20007 91109 91206;
0096066280999992011011808004+46750+007267FM-12+104199999V0201601N003119999999N9999999N1+00321-00271999999ADDMA1999999090541ME1315539REMSYN060AAXX  18084 06628 43/// /1606 10032 21027 39054 48553 5////;
