0198066330999992010010100004+47383+008083FM-12+038799999V0202001N001010006019N0009001N1+00411+00391099301ADDAY141061AY241061GA1091+999999999GF109991091999999999999999MA1999999094701MD1810111+9999MW1451OA149900411REMSYN082AAXX  01004 06633 31/09 92002 10041 20039 39470 49930 58011 74544 333 91108 91203;
0128066330999992010010101004+47383+008083FM-12+038799999V0201601N000519999999N9999999N1+00371+00371099271ADDMA1999999094661MD1810111+9999OA149900211REMSYN076AAXX  01014 06633 33/// /1601 10037 20037 39466 49927 58011 333 91104 91202;
0128066330999992010010102004+47383+008083FM-12+038799999V0201401N000519999999N9999999N1+00391+00361099211ADDMA1999999094611MD1619999+9999OA149900211REMSYN076AAXX  01024 06633 33/// /1401 10039 20036 39461 49921 56/// 333 91104 91202;
0157066330999992010010103004+47383+008083FM-12+038799999V0209999C000010006019N0009001N1+00391+00391099181ADDAY141031AY241031GA1091+999999999GF109991091999999999999999MA1999999094581MW1451REMSYN066AAXX  01034 06633 41/09 90000 10039 20039 39458 49918 5//// 74544;
0087066330999992010010104004+47383+008083FM-12+038799999V0201701N000519999999N9999999N1+00381+00381099141ADDMA1999999094541REMSYN060AAXX  01044 06633 33/// /1701 10038 20038 39454 49914 5////;
0128066330999992010010105004+47383+008083FM-12+038799999V0201701N000519999999N9999999N1+00411+00391099101ADDMA1999999094511MD1810101+9999OA149900101REMSYN076AAXX  01054 06633 33/// /1701 10041 20039 39451 49910 58010 333 91102 91201;
0304066330999992010010106004+47383+008083FM-12+038799999V0209999C000010006019N0008001N1+00391+00381099091ADDAA124007991AL14800791AL29900091AY141061AY241061GA1091+999999999GF109991091999999999999999GJ100009IA1119IA2999+00209KA1999N+00351MA1999999094491MD1710091+9999MW1451OA149900211REMSYN118AAXX  01064 06633 31/08 90000 10039 20038 39449 49909 57009 74544 333 20035 32002 55000 70079 90768 93100 91104 91202;
0128066330999992010010107004+47383+008083FM-12+038799999V0209999C000019999999N9999999N1+00431+00381099071ADDMA1999999094481MD1710061+9999OA149900151REMSYN076AAXX  01074 06633 33/// /0000 10043 20038 39448 49907 57006 333 91103 91202;
0128066330999992010010108004+47383+008083FM-12+038799999V0200501N001019999999N9999999N1+00411+00371099121ADDMA1999999094531MD1310021+9999OA149900211REMSYN076AAXX  01084 06633 33/// /0502 10041 20037 39453 49912 53002 333 91104 91202;
0198066330999992010010109004+47383+008083FM-12+038799999V0200301N001510006019N0006001N1+00411+00371099181ADDAY141031AY241031GA1091+999999999GF109991091999999999999999MA1999999094581MD1210091+9999MW1451OA149900211REMSYN082AAXX  01094 06633 31/06 90303 10041 20037 39458 49918 52009 74544 333 91104 91203;
0128066330999992010010110004+47383+008083FM-12+038799999V0200701N001019999999N9999999N1+00431+00361099241ADDMA1999999094641MD1310161+9999OA149900211REMSYN076AAXX  01104 06633 33/// /0702 10043 20036 39464 49924 53016 333 91104 91203;
0128066330999992010010111004+47383+008083FM-12+038799999V0200801N001019999999N9999999N1+00421+00361099261ADDMA1999999094661MD1110131+9999OA149900211REMSYN076AAXX  01114 06633 33/// /0802 10042 20036 39466 49926 51013 333 91104 91202;
0198066330999992010010112004+47383+008083FM-12+038799999V0200501N001010006019N0007001N1+00421+00371099271ADDAY141061AY241061GA1091+999999999GF109991091999999999999999MA1999999094671MD1110091+9999MW1451OA149900211REMSYN082AAXX  01124 06633 31/07 90502 10042 20037 39467 49927 51009 74544 333 91104 91203;
0128066330999992010010113004+47383+008083FM-12+038799999V0201801N000519999999N9999999N1+00481+00401099291ADDMA1999999094701MD1310061+9999OA149900151REMSYN076AAXX  01134 06633 33/// /1801 10048 20040 39470 49929 53006 333 91103 91202;
0128066330999992010010114004+47383+008083FM-12+038799999V0202401N000519999999N9999999N1+00501+00391099371ADDMA1999999094781MD1319999+9999OA149900151REMSYN076AAXX  01144 06633 33/// /2401 10050 20039 39478 49937 53/// 333 91103 91201;
0221066330999992010010115004+47383+008083FM-12+038799999V0202801N002110018019N0016001N1+00491+00371099481ADDAA101000591AY151031AY241031GA1081+001801071GF108991999999001501999999MA1999999094881MD1310211+9999MW1501OA149900361REMSYN094AAXX  01154 06633 21216 82804 10049 20037 39488 49948 53021 75054 333 69945 88706 91107 91204;
0145066330999992010010116004+47383+008083FM-12+038799999V0202901N001519999999N9999999N1+00411+00211099631ADDAA101001091MA1999999095011MD1310311+9999OA149900571REMSYN082AAXX  01164 06633 23/// /2903 10041 20021 39501 49963 53031 333 60015 91111 91204;
0145066330999992010010117004+47383+008083FM-12+038799999V0202701N002619999999N9999999N1+00341+00141099801ADDAA101000391MA1999999095161MD1310381+9999OA149900571REMSYN082AAXX  01174 06633 23/// /2705 10034 20014 39516 49980 53038 333 69935 91111 91205;
0280066330999992010010118004+47383+008083FM-12+038799999V0202701N003110018019N0015001N1+00301+00051099981ADDAA112002091AL19900091AY161061AY251061GA1081+001801071GF108991999999001501999999IA1119KA1120M+00521MA1999999095331MD1310451+9999MW1581OA149900821REMSYN124AAXX  01184 06633 01215 82706 10030 20005 39533 49998 53045 60022 75865 333 10052 32/// 69915 88706 90766 93100 91116 91208;
0145066330999992010010119004+47383+008083FM-12+038799999V0202801N002619999999N9999999N1+00221+00051100191ADDAA101000891MA1999999095511MD1210501+9999OA149900881REMSYN082AAXX  01194 06633 23/// /2805 10022 20005 39551 40019 52050 333 69985 91117 91208;
0145066330999992010010120004+47383+008083FM-12+038799999V0202401N002619999999N9999999N1+00171+00041100351ADDAA101000591MA1999999095661MD1210501+9999OA149900881REMSYN082AAXX  01204 06633 23/// /2405 10017 20004 39566 40035 52050 333 69945 91117 91206;
0204066330999992010010121004+47383+008083FM-12+038799999V0202901N002610033019N0050001N1+00171-00091100481ADDAY161031AY251031GA1081+003301071GF108991999999004501999999MA1999999095781MD1110451+9999MW1101OA149900881REMSYN088AAXX  01214 06633 31450 82905 10017 21009 39578 40048 51045 71065 333 88711 91117 91208;
0128066330999992010010122004+47383+008083FM-12+038799999V0202901N004119999999N9999999N1+00101-00201100611ADDMA1999999095891MD1210381+9999OA149900931REMSYN076AAXX  01224 06633 33/// /2908 10010 21020 39589 40061 52038 333 91118 91208;
0128066330999992010010123004+47383+008083FM-12+038799999V0203001N004619999999N9999999N1+00031-00281100761ADDMA1999999096021MD1210361+9999OA149901131REMSYN076AAXX  01234 06633 33/// /3009 10003 21028 39602 40076 52036 333 91122 91210;
0227066330999992010010200004+47383+008083FM-12+038799999V0202801N004610063019N0120001N1+00031-00431100851ADDAA106001091AY151061AY221061GA1081+006301071GF108991999999008001999999MA1999999096111MD1210331+9999MW1101OA149901291REMSYN100AAXX  02004 06633 01562 82809 10003 21043 39611 40085 52033 60011 71052 333 60005 88721 91125 91211;
0128066330999992010010201004+47383+008083FM-12+038799999V0202701N003119999999N9999999N1+00021-00431100951ADDMA1999999096201MD1110311+9999OA149901291REMSYN076AAXX  02014 06633 33/// /2706 10002 21043 39620 40095 51031 333 91125 91211;
0087066330999992010010202004+47383+008083FM-12+038799999V0202701N004119999999N9999999N1-00031-00521101081ADDMA1999999096321REMSYN060AAXX  02024 06633 33/// /2708 11003 21052 39632 40108 5////;
0204066330999992010010203004+47383+008083FM-12+038799999V0202601N003610114019N0150001N1-00011-00641101181ADDAY131031AY221031GA1081+011401061GF108991999999012501999999MA1999999096421MD1210311+9999MW1381OA149901291REMSYN088AAXX  02034 06633 31665 82607 11001 21064 39642 40118 52031 73832 333 88638 91125 91211;
0128066330999992010010204004+47383+008083FM-12+038799999V0202401N004619999999N9999999N1-00031-00591101291ADDMA1999999096521MD1210321+9999OA149901081REMSYN076AAXX  02044 06633 33/// /2409 11003 21059 39652 40129 52032 333 91121 91209;
0128066330999992010010205004+47383+008083FM-12+038799999V0202401N002619999999N9999999N1-00041-00631101371ADDMA1999999096591MD1210271+9999OA149901081REMSYN076AAXX  02054 06633 33/// /2405 11004 21063 39659 40137 52027 333 91121 91209;
0333066330999992010010206004+47383+008083FM-12+038799999V0202701N003610084019N0150001N1-00091-00661101451ADDAA112001091AA224003091AL19900391AL29900091AY171061AY221061GA1061+008401061GF107991999999008001999999GJ100009IA1019IA2999-00109KA1999N-00081MA1999999096661MD1210241+9999MW1781OA149901291REMSYN136AAXX  02064 06633 01565 72707 11009 21066 39666 40145 52024 60012 77872 333 21008 30101 55000 60005 70030 86628 90768 93100 91125 91211;
0128066330999992010010207004+47383+008083FM-12+038799999V0202201N003119999999N9999999N1-00111-00651101551ADDMA1999999096751MD1210231+9999OA149900931REMSYN076AAXX  02074 06633 33/// /2206 11011 21065 39675 40155 52023 333 91118 91208;
0087066330999992010010208004+47383+008083FM-12+038799999V0202601N001519999999N9999999N1-00131-00671101671ADDMA1999999096861REMSYN060AAXX  02084 06633 33/// /2603 11013 21067 39686 40167 5////;
0128066330999992010010209004+47383+008083FM-12+038799999V0202701N003619999999N9999999N1-00101-00641101761ADDMA1999999096951MD1210291+9999OA149901081REMSYN076AAXX  02094 06633 33/// /2707 11010 21064 39695 40176 52029 333 91121 91209;
0128066330999992010010210004+47383+008083FM-12+038799999V0202801N002619999999N9999999N1-00111-00621101871ADDMA1999999097061MD1210311+9999OA149900771REMSYN076AAXX  02104 06633 33/// /2805 11011 21062 39706 40187 52031 333 91115 91208;
0128066330999992010010211004+47383+008083FM-12+038799999V0202801N004119999999N9999999N1-00081-00711101921ADDMA1999999097111MD1110251+9999OA149900821REMSYN076AAXX  02114 06633 33/// /2808 11008 21071 39711 40192 51025 333 91116 91209;
0226066330999992010010212004+47383+008083FM-12+038799999V0203001N002612200019N0200001N1-00011-00761101961ADDAY171061AY211061GA1011+011401081GA2031+011401061GF103991999999012501999999MA1999999097161MD1110211+9999MW1021OA149901081REMSYN094AAXX  02124 06633 31670 33005 11001 21076 39716 40196 51021 70271 333 81838 83638 91121 91210;
0128066330999992010010213004+47383+008083FM-12+038799999V0202501N002119999999N9999999N1+00041-00761102021ADDMA1999999097231MD1310171+9999OA149900721REMSYN076AAXX  02134 06633 33/// /2504 10004 21076 39723 40202 53017 333 91114 91208;
0128066330999992010010214004+47383+008083FM-12+038799999V0203001N002119999999N9999999N1+00021-00791102111ADDMA1999999097311MD1319999+9999OA149900621REMSYN076AAXX  02144 06633 33/// /3004 10002 21079 39731 40211 53/// 333 91112 91206;
0176066330999992010010215004+47383+008083FM-12+038799999V0202801N003112200019N0230001N1-00031-00901102181ADDGA1021+011401061GF102991999999012501999999MA1999999097371MD1210211+9999OA149900821REMSYN082AAXX  02154 06633 32673 22806 11003 21090 39737 40218 52021 333 82638 91116 91209;
0128066330999992010010216004+47383+008083FM-12+038799999V0202901N002119999999N9999999N1-00121-00831102251ADDMA1999999097421MD1110191+9999OA149900621REMSYN076AAXX  02164 06633 33/// /2904 11012 21083 39742 40225 51019 333 91112 91206;
0128066330999992010010217004+47383+008083FM-12+038799999V0202801N001019999999N9999999N1-00201-00771102341ADDMA1999999097491MD1210181+9999OA149900511REMSYN076AAXX  02174 06633 33/// /2802 11020 21077 39749 40234 52018 333 91110 91206;
0229066330999992010010218004+47383+008083FM-12+038799999V0201901N000512200019N0230001N1-00271-00691102431ADDAL19900091GA1021+045001041GF102991999999999999999999IA1149KA1120M+00041MA1999999097561MD1310191+9999OA149900821REMSYN106AAXX  02184 06633 32973 21901 11027 21069 39756 40243 53019 333 10004 34/// 82465 90766 93100 91116 91209;
0128066330999992010010219004+47383+008083FM-12+038799999V0201801N000519999999N9999999N1-00341-00681102461ADDMA1999999097581MD1110161+9999OA149900151REMSYN076AAXX  02194 06633 33/// /1801 11034 21068 39758 40246 51016 333 91103 91202;
0128066330999992010010220004+47383+008083FM-12+038799999V0201801N001019999999N9999999N1-00391-00641102471ADDMA1999999097581MD1210091+9999OA149900151REMSYN076AAXX  02204 06633 33/// /1802 11039 21064 39758 40247 52009 333 91103 91202;
0176066330999992010010221004+47383+008083FM-12+038799999V0209999C000012200019N0200001N1-00471-00731102491ADDGA1031+045001041GF103991999999999999999999MA1999999097581MD1010021+9999OA149900511REMSYN082AAXX  02214 06633 32970 30000 11047 21073 39758 40249 50002 333 83465 91110 91206;
0128066330999992010010222004+47383+008083FM-12+038799999V0202001N000519999999N9999999N1-00501-00741102511ADDMA1999999097601MD1310021+9999OA149900151REMSYN076AAXX  02224 06633 33/// /2001 11050 21074 39760 40251 53002 333 91103 91202;
0128066330999992010010223004+47383+008083FM-12+038799999V0209999C000019999999N9999999N1-00571-00721102561ADDMA1999999097631MD1210051+9999OA149900151REMSYN076AAXX  02234 06633 33/// /0000 11057 21072 39763 40256 52005 333 91103 91202;
0170066330999992010010300004+47383+008083FM-12+038799999V0202301N000512200019N0200001N1-00621-00771102551ADDGA1001+999999999GF100991001001999999001001MA1999999097611MD1010031+9999OA149900621REMSYN076AAXX  03004 06633 32/70 02301 11062 21077 39761 40255 50003 333 91112 91206;
0128066330999992010010301004+47383+008083FM-12+038799999V0202001N001019999999N9999999N1-00631-00801102581ADDMA1999999097641MD1210041+9999OA149900151REMSYN076AAXX  03014 06633 33/// /2002 11063 21080 39764 40258 52004 333 91103 91202;
0087066330999992010010302004+47383+008083FM-12+038799999V0202501N000519999999N9999999N1-00661-00821102591ADDMA1999999097641REMSYN060AAXX  03024 06633 33/// /2501 11066 21082 39764 40259 5////;
0139066330999992010010303004+47383+008083FM-12+038799999V0202401N000512200019N0220001N1-00701-00841102561ADDGA1011+045001041GF101991999999999999999999MA1999999097611REMSYN070AAXX  03034 06633 32972 12401 11070 21084 39761 40256 5//// 333 81465;
0128066330999992010010304004+47383+008083FM-12+038799999V0209999C000019999999N9999999N1-00751-00871102551ADDMA1999999097591MD1710051+9999OA149900101REMSYN076AAXX  03044 06633 33/// /0000 11075 21087 39759 40255 57005 333 91102 91201;
0128066330999992010010305004+47383+008083FM-12+038799999V0209999C000019999999N9999999N1-00761-00891102541ADDMA1999999097581MD1719999+9999OA149900101REMSYN076AAXX  03054 06633 33/// /0000 11076 21089 39758 40254 57/// 333 91102 91201;
0272066330999992010010306004+47383+008083FM-12+038799999V0202001N000512200019N0180001N1-00751-00891102511ADDAA124000021AL19900091GA1011+042001041GF101991999999999999999999GJ102709IA1149IA2999-01009KA1999N-00761MA1999999097551MD1710061+9999OA149900151REMSYN118AAXX  03064 06633 32968 12001 11075 21089 39755 40251 57006 333 21076 34110 55045 70000 81464 90768 93100 91103 91202;
0128066330999992010010307004+47383+008083FM-12+038799999V0202001N000519999999N9999999N1-00781-00881102511ADDMA1999999097551MD1710041+9999OA149900101REMSYN076AAXX  03074 06633 33/// /2001 11078 21088 39755 40251 57004 333 91102 91201;
0128066330999992010010308004+47383+008083FM-12+038799999V0202501N000519999999N9999999N1-00741-00901102531ADDMA1999999097571MD1519999+9999OA149900101REMSYN076AAXX  03084 06633 33/// /2501 11074 21090 39757 40253 55/// 333 91102 91201;
0170066330999992010010309004+47383+008083FM-12+038799999V0202201N000512200019N0230001N1-00581-00831102511ADDGA1001+999999999GF100991001001999999001001MA1999999097581MD1210031+9999OA149900151REMSYN076AAXX  03094 06633 32/73 02201 11058 21083 39758 40251 52003 333 91103 91202;
0128066330999992010010310004+47383+008083FM-12+038799999V0202001N000519999999N9999999N1-00441-00871102481ADDMA1999999097581MD1210031+9999OA149900151REMSYN076AAXX  03104 06633 33/// /2001 11044 21087 39758 40248 52003 333 91103 91202;
0128066330999992010010311004+47383+008083FM-12+038799999V0209999C000019999999N9999999N1-00331-00831102311ADDMA1999999097441MD1810131+9999OA149900151REMSYN076AAXX  03114 06633 33/// /0000 11033 21083 39744 40231 58013 333 91103 91202;
0128066330999992010010312004+47383+008083FM-12+038799999V0202301N001019999999N9999999N1-00171-00801102241ADDMA1999999097401MD1710181+9999OA149900261REMSYN076AAXX  03124 06633 33/// /2302 11017 21080 39740 40224 57018 333 91105 91202;
0128066330999992010010313004+47383+008083FM-12+038799999V0202601N001519999999N9999999N1-00081-00851102171ADDMA1999999097351MD1610231+9999OA149900311REMSYN076AAXX  03134 06633 33/// /2603 11008 21085 39735 40217 56023 333 91106 91203;
0128066330999992010010314004+47383+008083FM-12+038799999V0201901N001519999999N9999999N1-00021-00891102131ADDMA1999999097321MD1610121+9999OA149900311REMSYN076AAXX  03144 06633 33/// /1903 11002 21089 39732 40213 56012 333 91106 91203;
0176066330999992010010315004+47383+008083FM-12+038799999V0202001N001012200019N0250001N1-00021-00881102151ADDGA1011+072001001GF101991999999999999999999MA1999999097341MD1510061+9999OA149900311REMSYN082AAXX  03154 06633 32975 12002 11002 21088 39734 40215 55006 333 81074 91106 91204;
0128066330999992010010316004+47383+008083FM-12+038799999V0201701N000519999999N9999999N1-00201-00701102151ADDMA1999999097311MD1710041+9999OA149900311REMSYN076AAXX  03164 06633 33/// /1701 11020 21070 39731 40215 57004 333 91106 91204;
0128066330999992010010317004+47383+008083FM-12+038799999V0201701N000519999999N9999999N1-00281-00791102121ADDMA1999999097271MD1710051+9999OA149900261REMSYN076AAXX  03174 06633 33/// /1701 11028 21079 39727 40212 57005 333 91105 91202;
0229066330999992010010318004+47383+008083FM-12+038799999V0201801N001512200019N0160001N1-00381-00761102161ADDAL19900091GA1021+045001031GF102991999999999999999999IA1149KA1120M+00001MA1999999097291MD1710051+9999OA149900311REMSYN106AAXX  03184 06633 32966 21803 11038 21076 39729 40216 57005 333 10000 34/// 82365 90766 93100 91106 91204;
0128066330999992010010319004+47383+008083FM-12+038799999V0201801N001019999999N9999999N1-00441-00771102171ADDMA1999999097281MD1710031+9999OA149900261REMSYN076AAXX  03194 06633 33/// /1802 11044 21077 39728 40217 57003 333 91105 91203;
0128066330999992010010320004+47383+008083FM-12+038799999V0202101N000519999999N9999999N1-00501-00801102161ADDMA1999999097261MD1810011+9999OA149900211REMSYN076AAXX  03204 06633 33/// /2101 11050 21080 39726 40216 58001 333 91104 91202;
0170066330999992010010321004+47383+008083FM-12+038799999V0201801N000512200019N0170001N1-00581-00841102151ADDGA1001+999999999GF100991001001999999001001MA1999999097241MD1710051+9999OA149900261REMSYN076AAXX  03214 06633 32/67 01801 11058 21084 39724 40215 57005 333 91105 91203;
0128066330999992010010322004+47383+008083FM-12+038799999V0201901N001019999999N9999999N1-00661-00861102151ADDMA1999999097231MD1710051+9999OA149900151REMSYN076AAXX  03224 06633 33/// /1902 11066 21086 39723 40215 57005 333 91103 91202;
0128066330999992010010323004+47383+008083FM-12+038799999V0202101N001019999999N9999999N1-00731-00921102131ADDMA1999999097191MD1710071+9999OA149900211REMSYN076AAXX  03234 06633 33/// /2102 11073 21092 39719 40213 57007 333 91104 91202;
0170066330999992010010400004+47383+008083FM-12+038799999V0202301N001012200019N0150001N1-00771-00941102091ADDGA1001+999999999GF100991001001999999001001MA1999999097151MD1710091+9999OA149900311REMSYN076AAXX  04004 06633 32/65 02302 11077 21094 39715 40209 57009 333 91106 91204;
0128066330999992010010401004+47383+008083FM-12+038799999V0209999C000019999999N9999999N1-00841-00941102021ADDMA1999999097071MD1810161+9999OA149900211REMSYN076AAXX  04014 06633 33/// /0000 11084 21094 39707 40202 58016 333 91104 91203;
0128066330999992010010402004+47383+008083FM-12+038799999V0201901N000519999999N9999999N1-00811-00981102001ADDMA1999999097061MD1710131+9999OA149900311REMSYN076AAXX  04024 06633 33/// /1901 11081 21098 39706 40200 57013 333 91106 91202;
0176066330999992010010403004+47383+008083FM-12+038799999V0201801N000512200019N0150001N1-00871-00991101961ADDGA1041+075001021GF104991999999999999999999MA1999999097011MD1719999+9999OA149900311REMSYN082AAXX  04034 06633 32965 41801 11087 21099 39701 40196 57/// 333 84275 91106 91203;
0128066330999992010010404004+47383+008083FM-12+038799999V0201901N000519999999N9999999N1-00841-01001101921ADDMA1999999096971MD1710101+9999OA149900151REMSYN076AAXX  04044 06633 33/// /1901 11084 21100 39697 40192 57010 333 91103 91202;
0128066330999992010010405004+47383+008083FM-12+038799999V0209999C000019999999N9999999N1-00901-01041101891ADDMA1999999096931MD1710131+9999OA149900151REMSYN076AAXX  04054 06633 33/// /0000 11090 21104 39693 40189 57013 333 91103 91202;
0291066330999992010010406004+47383+008083FM-12+038799999V0209999C000012200019N0150001N1-00941-01041101911ADDAA124000091AL19900091GA1011+075001021GF101991999999999999999999GJ103909IA1149IA2999-01209KA1999N-00911MA1999999096951MD1510061+9999OA149900311REMSYN118AAXX  04064 06633 32965 10000 11094 21104 39695 40191 55006 333 21091 34112 55065 70000 81275 90768 93100 91106 91203;EQDQ01  00002PRCP24
0128066330999992010010407004+47383+008083FM-12+038799999V0209999C000019999999N9999999N1-00921-01041101871ADDMA1999999096911MD1710061+9999OA149900051REMSYN076AAXX  04074 06633 33/// /0000 11092 21104 39691 40187 57006 333 91101 91200;
0128066330999992010010408004+47383+008083FM-12+038799999V0209999C000019999999N9999999N1-00861-00981101871ADDMA1999999096921MD1010011+9999OA149900101REMSYN076AAXX  04084 06633 33/// /0000 11086 21098 39692 40187 50001 333 91102 91202;
0198066330999992010010409004+47383+008083FM-12+038799999V0209999C000010750019N0180001N1-00781-00921101861ADDGA1031+018001041GA2031+075001001GF106991999999017501999999MA1999999096931MD1510021+9999OA149900151REMSYN088AAXX  04094 06633 32768 60000 11078 21092 39693 40186 55002 333 83456 83075 91103 91202;
0128066330999992010010410004+47383+008083FM-12+038799999V0200301N000519999999N9999999N1-00581-00761101801ADDMA1999999096911MD1010001+9999OA149900151REMSYN076AAXX  04104 06633 33/// /0301 11058 21076 39691 40180 50000 333 91103 91201;
0128066330999992010010411004+47383+008083FM-12+038799999V0201001N001519999999N9999999N1-00431-00791101681ADDMA1999999096821MD1710101+9999OA149900211REMSYN076AAXX  04114 06633 33/// /1003 11043 21079 39682 40168 57010 333 91104 91203;
0176066330999992010010412004+47383+008083FM-12+038799999V0201001N001512200019N0160001N1-00311-00691101571ADDGA1011+042001031GF101991999999999999999999MA1999999096741MD1810191+9999OA149900311REMSYN082AAXX  04124 06633 32966 11003 11031 21069 39674 40157 58019 333 81364 91106 91203;
0128066330999992010010413004+47383+008083FM-12+038799999V0201101N001519999999N9999999N1-00231-00851101491ADDMA1999999096671MD1610241+9999OA149900361REMSYN076AAXX  04134 06633 33/// /1103 11023 21085 39667 40149 56024 333 91107 91203;
0128066330999992010010414004+47383+008083FM-12+038799999V0201101N001519999999N9999999N1-00181-00761101421ADDMA1999999096621MD1619999+9999OA149900361REMSYN076AAXX  04144 06633 33/// /1103 11018 21076 39662 40142 56/// 333 91107 91204;
0204066330999992010010415004+47383+008083FM-12+038799999V0201101N001512200019N0120001N1-00191-00801101411ADDAY101031AY201031GA1011+042001031GF101991999999999999999999MA1999999096611MD1610131+9999MW1051OA149900361REMSYN088AAXX  04154 06633 31962 11103 11019 21080 39661 40141 56013 70500 333 81364 91107 91204;
0128066330999992010010416004+47383+008083FM-12+038799999V0200801N001019999999N9999999N1-00271-00811101431ADDMA1999999096611MD1710061+9999OA149900361REMSYN076AAXX  04164 06633 33/// /0802 11027 21081 39661 40143 57006 333 91107 91203;
0128066330999992010010417004+47383+008083FM-12+038799999V0201901N000519999999N9999999N1-00451-00751101451ADDMA1999999096601MD1710021+9999OA149900311REMSYN076AAXX  04174 06633 33/// /1901 11045 21075 39660 40145 57002 333 91106 91203;
0257066330999992010010418004+47383+008083FM-12+038799999V0202001N000512200019N0120001N1-00511-00751101471ADDAL19900091AY101061AY201061GA1021+045001041GF102991999999999999999999IA1149KA1120M-00161MA1999999096611MD1010001+9999MW1101OA149900361REMSYN112AAXX  04184 06633 31962 22001 11051 21075 39661 40147 50000 71000 333 11016 34/// 82465 90766 93100 91107 91204;
0128066330999992010010419004+47383+008083FM-12+038799999V0201901N000519999999N9999999N1-00591-00791101481ADDMA1999999096601MD1710011+9999OA149900211REMSYN076AAXX  04194 06633 33/// /1901 11059 21079 39660 40148 57001 333 91104 91202;
0128066330999992010010420004+47383+008083FM-12+038799999V0201801N000519999999N9999999N1-00641-00811101481ADDMA1999999096591MD1810011+9999OA149900101REMSYN076AAXX  04204 06633 33/// /1801 11064 21081 39659 40148 58001 333 91102 91201;
0204066330999992010010421004+47383+008083FM-12+038799999V0209999C000012200019N0060001N1-00711-00841101481ADDAY101031AY201031GA1041+045001041GF104991999999999999999999MA1999999096581MD1710031+9999MW1101OA149900311REMSYN088AAXX  04214 06633 31956 40000 11071 21084 39658 40148 57003 71000 333 84465 91106 91203;
0128066330999992010010422004+47383+008083FM-12+038799999V0209999C000019999999N9999999N1-00661-00841101451ADDMA1999999096561MD1710041+9999OA149900101REMSYN076AAXX  04224 06633 33/// /0000 11066 21084 39656 40145 57004 333 91102 91201;
0128066330999992010010423004+47383+008083FM-12+038799999V0201401N000519999999N9999999N1-00771-00911101431ADDMA1999999096521MD1710071+9999OA149900101REMSYN076AAXX  04234 06633 33/// /1401 11077 21091 39652 40143 57007 333 91102 91201;
0198066330999992010010500004+47383+008083FM-12+038799999V0209999C000012200019N0030001N1-00811-00901101381ADDAY111061AY211061GA1001+999999999GF100991001001999999001001MA1999999096471MD1710111+9999MW1101OA149900361REMSYN082AAXX  05004 06633 31/30 00000 11081 21090 39647 40138 57011 71011 333 91107 91204;
0128066330999992010010501004+47383+008083FM-12+038799999V0209999C000019999999N9999999N1-00831-00931101331ADDMA1999999096411MD1810151+9999OA149900101REMSYN076AAXX  05014 06633 33/// /0000 11083 21093 39641 40133 58015 333 91102 91201;
0128066330999992010010502004+47383+008083FM-12+038799999V0209999C000019999999N9999999N1-00741-00861101291ADDMA1999999096391MD1610131+9999OA149900101REMSYN076AAXX  05024 06633 33/// /0000 11074 21086 39639 40129 56013 333 91102 91201;
0204066330999992010010503004+47383+008083FM-12+038799999V0200701N001010063019N0030001N1-00601-00831101201ADDAY111031AY211031GA1071+006301071GF107991999999008001999999MA1999999096331MD1710141+9999MW1101OA149900261REMSYN088AAXX  05034 06633 31530 70702 11060 21083 39633 40120 57014 71011 333 87721 91105 91202;
0128066330999992010010504004+47383+008083FM-12+038799999V0201001N001019999999N9999999N1-00601-00841101111ADDMA1999999096251MD1710161+9999OA149900261REMSYN076AAXX  05044 06633 33/// /1002 11060 21084 39625 40111 57016 333 91105 91203;
0128066330999992010010505004+47383+008083FM-12+038799999V0200901N001019999999N9999999N1-00561-00871101031ADDMA1999999096181MD1710211+9999OA149900261REMSYN076AAXX  05054 06633 33/// /0902 11056 21087 39618 40103 57021 333 91105 91203;
0319066330999992010010506004+47383+008083FM-12+038799999V0200601N001510063019N0080001N1-00561-00861100981ADDAA124000091AL19900091AY111061AY211061GA1081+006301071GF108991999999008001999999GJ103609IA1149IA2999-01109KA1999N-00871MA1999999096131MD1710201+9999MW1101OA149900411REMSYN124AAXX  05064 06633 31558 80603 11056 21086 39613 40098 57020 71011 333 21087 34111 55060 70000 88721 90768 93100 91108 91204;EQDQ01  00002PRCP24
0128066330999992010010507004+47383+008083FM-12+038799999V0200701N001519999999N9999999N1-00561-00871100931ADDMA1999999096081MD1710171+9999OA149900411REMSYN076AAXX  05074 06633 33/// /0703 11056 21087 39608 40093 57017 333 91108 91204;
0128066330999992010010508004+47383+008083FM-12+038799999V0200601N001519999999N9999999N1-00571-00871100911ADDMA1999999096061MD1710121+9999OA149900461REMSYN076AAXX  05084 06633 33/// /0603 11057 21087 39606 40091 57012 333 91109 91204;
0226066330999992010010509004+47383+008083FM-12+038799999V0200601N001510210019N0070001N1-00541-00841100901ADDAY121031AY221031GA1031+006301071GA2031+021001031GF106991999999008001999999MA1999999096061MD1710071+9999MW1101OA149900461REMSYN094AAXX  05094 06633 31557 60603 11054 21084 39606 40090 57007 71022 333 83721 83357 91109 91204;
0128066330999992010010510004+47383+008083FM-12+038799999V0200501N002119999999N9999999N1-00491-00821100831ADDMA1999999096001MD1710081+9999OA149900361REMSYN076AAXX  05104 06633 33/// /0504 11049 21082 39600 40083 57008 333 91107 91204;
0128066330999992010010511004+47383+008083FM-12+038799999V0200401N001519999999N9999999N1-00421-00771100731ADDMA1999999095921MD1710141+9999OA149900411REMSYN076AAXX  05114 06633 33/// /0403 11042 21077 39592 40073 57014 333 91108 91205;
0226066330999992010010512004+47383+008083FM-12+038799999V0200701N001010420019N0030001N1-00361-00711100651ADDAY181061AY271061GA1031+011401061GA2051+042001031GF107991999999012501999999MA1999999095851MD1710211+9999MW1851OA149900461REMSYN094AAXX  05124 06633 31630 70702 11036 21071 39585 40065 57021 78587 333 83638 85364 91109 91205;
0128066330999992010010513004+47383+008083FM-12+038799999V0200401N001519999999N9999999N1-00341-00741100541ADDMA1999999095751MD1710251+9999OA149900411REMSYN076AAXX  05134 06633 33/// /0403 11034 21074 39575 40054 57025 333 91108 91203;
0087066330999992010010514004+47383+008083FM-12+038799999V0201001N002119999999N9999999N1-00321-00721100491ADDMA1999999095711REMSYN060AAXX  05144 06633 33/// /1004 11032 21072 39571 40049 5////;
0226066330999992010010515004+47383+008083FM-12+038799999V0200801N001010300019N0030001N1-00311-00611100471ADDAY181031AY271031GA1041+011401071GA2061+030001031GF107991999999012501999999MA1999999095691MD1710161+9999MW1851OA149900411REMSYN094AAXX  05154 06633 31630 70802 11031 21061 39569 40047 57016 78587 333 84738 86360 91108 91205;
0128066330999992010010516004+47383+008083FM-12+038799999V0200501N001019999999N9999999N1-00341-00661100451ADDMA1999999095661MD1710091+9999OA149900361REMSYN076AAXX  05164 06633 33/// /0502 11034 21066 39566 40045 57009 333 91107 91204;
0128066330999992010010517004+47383+008083FM-12+038799999V0200501N001519999999N9999999N1-00361-00681100441ADDMA1999999095651MD1710061+9999OA149900361REMSYN076AAXX  05174 06633 33/// /0503 11036 21068 39565 40044 57006 333 91107 91204;
0279066330999992010010518004+47383+008083FM-12+038799999V0200501N001510270019N0025001N1-00391-00691100401ADDAL19900091AY181061AY271061GA1041+004201071GA2051+027001031GF107991999999004501999999IA1149KA1120M-00291MA1999999095611MD1710081+9999MW1101OA149900461REMSYN118AAXX  05184 06633 31425 70503 11039 21069 39561 40040 57008 71087 333 11029 34/// 84714 85359 90766 93100 91109 91205;
0128066330999992010010519004+47383+008083FM-12+038799999V0200501N001519999999N9999999N1-00401-00681100391ADDMA1999999095601MD1710061+9999OA149900311REMSYN076AAXX  05194 06633 33/// /0503 11040 21068 39560 40039 57006 333 91106 91203;
0128066330999992010010520004+47383+008083FM-12+038799999V0200601N001519999999N9999999N1-00401-00691100361ADDMA1999999095571MD1710081+9999OA149900311REMSYN076AAXX  05204 06633 33/// /0603 11040 21069 39557 40036 57008 333 91106 91203;
0204066330999992010010521004+47383+008083FM-12+038799999V0200601N001510042019N0030001N1-00411-00721100331ADDAY171031AY221031GA1081+004201071GF108991999999004501999999MA1999999095541MD1710071+9999MW1781OA149900361REMSYN088AAXX  05214 06633 31430 80603 11041 21072 39554 40033 57007 77872 333 88714 91107 91204;
0128066330999992010010522004+47383+008083FM-12+038799999V0200401N001519999999N9999999N1-00421-00701100311ADDMA1999999095521MD1710081+9999OA149900311REMSYN076AAXX  05224 06633 33/// /0403 11042 21070 39552 40031 57008 333 91106 91203;
0128066330999992010010523004+47383+008083FM-12+038799999V0200401N001519999999N9999999N1-00421-00681100291ADDMA1999999095501MD1710071+9999OA149900311REMSYN076AAXX  05234 06633 33/// /0403 11042 21068 39550 40029 57007 333 91106 91203;
0182066330999992010010600004+47383+008083FM-12+038799999V0200401N000510042019N0030001N1-00421-00681100251ADDGA1081+004201071GF108991999999004501999999MA1999999095461MD1810081+9999OA149900361REMSYN088AAXX  06004 06633 31430 80401 11042 21068 39546 40025 58008 7//72 333 88714 91107 91204;
0128066330999992010010601004+47383+008083FM-12+038799999V0200601N001019999999N9999999N1-00411-00641100221ADDMA1999999095431MD1710091+9999OA149900261REMSYN076AAXX  06014 06633 33/// /0602 11041 21064 39543 40022 57009 333 91105 91203;
0128066330999992010010602004+47383+008083FM-12+038799999V0200501N001019999999N9999999N1-00411-00661100251ADDMA1999999095461MD1510041+9999OA149900261REMSYN076AAXX  06024 06633 33/// /0502 11041 21066 39546 40025 55004 333 91105 91202;
0204066330999992010010603004+47383+008083FM-12+038799999V0209999C000010042019N0025001N1-00411-00631100241ADDAY171031AY221031GA1081+004201071GF108991999999004501999999MA1999999095451MD1510011+9999MW1721OA149900311REMSYN088AAXX  06034 06633 31425 80000 11041 21063 39545 40024 55001 77272 333 88714 91106 91203;
0128066330999992010010604004+47383+008083FM-12+038799999V0200501N000519999999N9999999N1-00421-00601100251ADDMA1999999095461MD1210031+9999OA149900211REMSYN076AAXX  06044 06633 33/// /0501 11042 21060 39546 40025 52003 333 91104 91202;
0128066330999992010010605004+47383+008083FM-12+038799999V0201101N001019999999N9999999N1-00401-00581100271ADDMA1999999095481MD1210021+9999OA149900151REMSYN076AAXX  06054 06633 33/// /1102 11040 21058 39548 40027 52002 333 91103 91202;
0300066330999992010010606004+47383+008083FM-12+038799999V0209999C000010024019N0028001N1-00411-00571100281ADDAA124000021AL19900091AY171061AY221061GA1081+002401071GF108991999999002501999999GJ100129IA1149IA2999-00409KA1999N-00421MA1999999095491MD1310041+9999MW1781OA149900311REMSYN124AAXX  06064 06633 31328 80000 11041 21057 39549 40028 53004 77872 333 21042 34104 55002 70000 88708 90768 93100 91106 91203;
0128066330999992010010607004+47383+008083FM-12+038799999V0200501N000519999999N9999999N1-00371-00551100291ADDMA1999999095511MD1210051+9999OA149900151REMSYN076AAXX  06074 06633 33/// /0501 11037 21055 39551 40029 52005 333 91103 91202;
0128066330999992010010608004+47383+008083FM-12+038799999V0209999C000019999999N9999999N1-00341-00541100361ADDMA1999999095581MD1210101+9999OA149900151REMSYN076AAXX  06084 06633 33/// /0000 11034 21054 39558 40036 52010 333 91103 91201;
0204066330999992010010609004+47383+008083FM-12+038799999V0203301N001010042019N0030001N1-00271-00561100401ADDAY131031AY221031GA1081+004201071GF108991999999004501999999MA1999999095631MD1210141+9999MW1781OA149900261REMSYN088AAXX  06094 06633 31430 83302 11027 21056 39563 40040 52014 77832 333 88714 91105 91203;
0128066330999992010010610004+47383+008083FM-12+038799999V0202001N000519999999N9999999N1-00231-00551100411ADDMA1999999095651MD1210141+9999OA149900261REMSYN076AAXX  06104 06633 33/// /2001 11023 21055 39565 40041 52014 333 91105 91203;
0128066330999992010010611004+47383+008083FM-12+038799999V0201801N001019999999N9999999N1-00221-00531100381ADDMA1999999095621MD1019999+9999OA149900151REMSYN076AAXX  06114 06633 33/// /1802 11022 21053 39562 40038 50/// 333 91103 91202;
0204066330999992010010612004+47383+008083FM-12+038799999V0201801N000510042019N0020001N1-00191-00511100371ADDAY131061AY221061GA1081+004201071GF108991999999004501999999MA1999999095611MD1810021+9999MW1101OA149900261REMSYN088AAXX  06124 06633 31420 81801 11019 21051 39561 40037 58002 71032 333 88714 91105 91203;
0128066330999992010010613004+47383+008083FM-12+038799999V0201201N000519999999N9999999N1-00191-00521100371ADDMA1999999095611MD1710041+9999OA149900101REMSYN076AAXX  06134 06633 33/// /1201 11019 21052 39561 40037 57004 333 91102 91201;
0128066330999992010010614004+47383+008083FM-12+038799999V0200101N000519999999N9999999N1-00181-00481100371ADDMA1999999095621MD1219999+9999OA149900151REMSYN076AAXX  06144 06633 33/// /0101 11018 21048 39562 40037 52/// 333 91103 91202;
0204066330999992010010615004+47383+008083FM-12+038799999V0203401N001510042019N0015001N1-00191-00441100431ADDAY121031AY221031GA1081+004201071GF108991999999004501999999MA1999999095671MD1219999+9999MW1101OA149900311REMSYN088AAXX  06154 06633 31415 83403 11019 21044 39567 40043 52/// 71022 333 88714 91106 91203;
0128066330999992010010616004+47383+008083FM-12+038799999V0203301N001519999999N9999999N1-00201-00461100471ADDMA1999999095711MD1310101+9999OA149900311REMSYN076AAXX  06164 06633 33/// /3303 11020 21046 39571 40047 53010 333 91106 91203;
0128066330999992010010617004+47383+008083FM-12+038799999V0203401N001019999999N9999999N1-00211-00441100491ADDMA1999999095731MD1210111+9999OA149900311REMSYN076AAXX  06174 06633 33/// /3402 11021 21044 39573 40049 52011 333 91106 91203;
0257066330999992010010618004+47383+008083FM-12+038799999V0209999C000010033019N0030001N1-00211-00431100551ADDAL19900091AY121061AY221061GA1081+003301071GF108991999999004501999999IA1149KA1120M-00171MA1999999095781MD1219999+9999MW1101OA149900311REMSYN112AAXX  06184 06633 31430 80000 11021 21043 39578 40055 52/// 71022 333 11017 34/// 88711 90766 93100 91106 91203;
0128066330999992010010619004+47383+008083FM-12+038799999V0201001N001019999999N9999999N1-00211-00421100581ADDMA1999999095811MD1210101+9999OA149900151REMSYN076AAXX  06194 06633 33/// /1002 11021 21042 39581 40058 52010 333 91103 91202;
0128066330999992010010620004+47383+008083FM-12+038799999V0201101N001019999999N9999999N1-00231-00421100601ADDMA1999999095831MD1110101+9999OA149900211REMSYN076AAXX  06204 06633 33/// /1102 11023 21042 39583 40060 51010 333 91104 91203;
0204066330999992010010621004+47383+008083FM-12+038799999V0200101N000510033019N0030001N1-00221-00411100641ADDAY121031AY221031GA1081+003301071GF108991999999004501999999MA1999999095871MD1310091+9999MW1101OA149900311REMSYN088AAXX  06214 06633 31430 80101 11022 21041 39587 40064 53009 71022 333 88711 91106 91203;
0128066330999992010010622004+47383+008083FM-12+038799999V0200101N000519999999N9999999N1-00201-00401100671ADDMA1999999095901MD1210091+9999OA149900151REMSYN076AAXX  06224 06633 33/// /0101 11020 21040 39590 40067 52009 333 91103 91202;
0128066330999992010010623004+47383+008083FM-12+038799999V0201501N000519999999N9999999N1-00251-00391100721ADDMA1999999095941MD1210111+9999OA149900151REMSYN076AAXX  06234 06633 33/// /1501 11025 21039 39594 40072 52011 333 91103 91202;
0204066330999992010010700004+47383+008083FM-12+038799999V0209999C000010042019N0020001N1-00231-00381100741ADDAY121061AY221061GA1081+004201071GF108991999999004501999999MA1999999095961MD1210091+9999MW1101OA149900311REMSYN088AAXX  07004 06633 31420 80000 11023 21038 39596 40074 52009 71022 333 88714 91106 91203;
0128066330999992010010701004+47383+008083FM-12+038799999V0202501N000519999999N9999999N1-00231-00371100771ADDMA1999999095991MD1210091+9999OA149900151REMSYN076AAXX  07014 06633 33/// /2501 11023 21037 39599 40077 52009 333 91103 91202;
0128066330999992010010702004+47383+008083FM-12+038799999V0201901N000519999999N9999999N1-00311-00401100811ADDMA1999999096011MD1219999+9999OA149900151REMSYN076AAXX  07024 06633 33/// /1901 11031 21040 39601 40081 52/// 333 91103 91202;
0204066330999992010010703004+47383+008083FM-12+038799999V0209999C000010042019N0025001N1-00381-00431100821ADDAY121031AY221031GA1071+004201071GF107991999999004501999999MA1999999096011MD1210051+9999MW1101OA149900151REMSYN088AAXX  07034 06633 31425 70000 11038 21043 39601 40082 52005 71022 333 87714 91103 91202;
0128066330999992010010704004+47383+008083FM-12+038799999V0201301N000519999999N9999999N1-00541-00581100841ADDMA1999999096001MD1010011+9999OA149900151REMSYN076AAXX  07044 06633 33/// /1301 11054 21058 39600 40084 50001 333 91103 91201;
0128066330999992010010705004+47383+008083FM-12+038799999V0209999C000019999999N9999999N1-00451-00521100831ADDMA1999999096011MD1510001+9999OA149900151REMSYN076AAXX  07054 06633 33/// /0000 11045 21052 39601 40083 55000 333 91103 91201;
0300066330999992010010706004+47383+008083FM-12+038799999V0209999C000010033019N0034001N1-00401-00491100871ADDAA124000021AL19900091AY121061AY221061GA1081+003301071GF108991999999004501999999GJ100009IA1149IA2999-00809KA1999N-00541MA1999999096051MD1210041+9999MW1101OA149900211REMSYN124AAXX  07064 06633 31434 80000 11040 21049 39605 40087 52004 71022 333 21054 34108 55000 70000 88711 90768 93100 91104 91203;
0128066330999992010010707004+47383+008083FM-12+038799999V0201001N000519999999N9999999N1-00361-00451100891ADDMA1999999096081MD1210081+9999OA149900151REMSYN076AAXX  07074 06633 33/// /1001 11036 21045 39608 40089 52008 333 91103 91202;
0128066330999992010010708004+47383+008083FM-12+038799999V0200501N000519999999N9999999N1-00321-00441100951ADDMA1999999096141MD1219999+9999OA149900151REMSYN076AAXX  07084 06633 33/// /0501 11032 21044 39614 40095 52/// 333 91103 91202;
0204066330999992010010709004+47383+008083FM-12+038799999V0200601N001010024019N0032001N1-00271-00411100981ADDAY121031AY221031GA1081+002401071GF108991999999002501999999MA1999999096181MD1210131+9999MW1101OA149900261REMSYN088AAXX  07094 06633 31332 80602 11027 21041 39618 40098 52013 71022 333 88708 91105 91203;
0128066330999992010010710004+47383+008083FM-12+038799999V0200301N001519999999N9999999N1-00221-00401101031ADDMA1999999096241MD1210161+9999OA149900261REMSYN076AAXX  07104 06633 33/// /0303 11022 21040 39624 40103 52016 333 91105 91203;
0128066330999992010010711004+47383+008083FM-12+038799999V0200501N000519999999N9999999N1-00091-00331100991ADDMA1999999096221MD1210081+9999OA149900211REMSYN076AAXX  07114 06633 33/// /0501 11009 21033 39622 40099 52008 333 91104 91203;
0204066330999992010010712004+47383+008083FM-12+038799999V0203501N001510570019N0040001N1-00061-00381100961ADDAY121061AY221061GA1051+057001021GF105991999999999999999999MA1999999096201MD1010021+9999MW1101OA149900261REMSYN088AAXX  07124 06633 31940 53503 11006 21038 39620 40096 50002 71022 333 85269 91105 91203;
0128066330999992010010713004+47383+008083FM-12+038799999V0201501N000519999999N9999999N1+00051-00361100921ADDMA1999999096181MD1710061+9999OA149900211REMSYN076AAXX  07134 06633 33/// /1501 10005 21036 39618 40092 57006 333 91104 91203;
0146066330999992010010715004+47383+008083FM-12+038799999V02099999999990063019N0030001N1+99999+99999999999ADDAY121031AY221031GA1081+006301071GF108991999999008001999999MW1101REMSYN070AAXX  07154 06633 41530 8//// 1//// 2//// 3//// 5//// 71022 333 88721;
0087066330999992010010716004+47383+008083FM-12+038799999V0202501N000519999999N9999999N1+00011-00411101051ADDMA1999999096301REMSYN060AAXX  07164 06633 33/// /2501 10001 21041 39630 40105 5/012;
0128066330999992010010717004+47383+008083FM-12+038799999V0200301N001019999999N9999999N1-00051-00371101071ADDMA1999999096311MD1119999+9999OA149900151REMSYN076AAXX  07174 06633 33/// /0302 11005 21037 39631 40107 51/// 333 91103 91202;
0257066330999992010010718004+47383+008083FM-12+038799999V0200501N001010084019N0060001N1-00091-00361101131ADDAL19900091AY121061AY221061GA1081+008401071GF108991999999008001999999IA1149KA1120M+00091MA1999999096361MD1319999+9999MW1101OA149900261REMSYN112AAXX  07184 06633 31556 80502 11009 21036 39636 40113 53/// 71022 333 10009 34/// 88728 90766 93100 91105 91203;
0128066330999992010010719004+47383+008083FM-12+038799999V0201101N001019999999N9999999N1-00091-00371101161ADDMA1999999096381MD1210081+9999OA149900211REMSYN076AAXX  07194 06633 33/// /1102 11009 21037 39638 40116 52008 333 91104 91202;
0128066330999992010010720004+47383+008083FM-12+038799999V0209999C000019999999N9999999N1-00121-00391101161ADDMA1999999096381MD1210071+9999OA149900211REMSYN076AAXX  07204 06633 33/// /0000 11012 21039 39638 40116 52007 333 91104 91202;
0204066330999992010010721004+47383+008083FM-12+038799999V0209999C000010063019N0040001N1-00141-00391101191ADDAY121031AY221031GA1081+006301071GF108991999999008001999999MA1999999096401MD1110041+9999MW1101OA149900211REMSYN088AAXX  07214 06633 31540 80000 11014 21039 39640 40119 51004 71022 333 88721 91104 91202;
0128066330999992010010722004+47383+008083FM-12+038799999V0209999C000019999999N9999999N1-00171-00391101171ADDMA1999999096381MD1010001+9999OA149900151REMSYN076AAXX  07224 06633 33/// /0000 11017 21039 39638 40117 50000 333 91103 91201;
0128066330999992010010723004+47383+008083FM-12+038799999V0201101N001019999999N9999999N1-00171-00391101171ADDMA1999999096381MD1010001+9999OA149900151REMSYN076AAXX  07234 06633 33/// /1102 11017 21039 39638 40117 50000 333 91103 91202;
0204066330999992010010800004+47383+008083FM-12+038799999V0201101N000510063019N0050001N1-00181-00391101151ADDAY121061AY221061GA1081+006301071GF108991999999008001999999MA1999999096361MD1710041+9999MW1101OA149900211REMSYN088AAXX  08004 06633 31550 81101 11018 21039 39636 40115 57004 71022 333 88721 91104 91202;
0128066330999992010010801004+47383+008083FM-12+038799999V0209999C000019999999N9999999N1-00161-00381101101ADDMA1999999096321MD1710061+9999OA149900151REMSYN076AAXX  08014 06633 33/// /0000 11016 21038 39632 40110 57006 333 91103 91202;
0128066330999992010010802004+47383+008083FM-12+038799999V0200601N001019999999N9999999N1-00111-00421101091ADDMA1999999096311MD1719999+9999OA149900311REMSYN076AAXX  08024 06633 33/// /0602 11011 21042 39631 40109 57/// 333 91106 91203;
0204066330999992010010803004+47383+008083FM-12+038799999V0200601N001510042019N0040001N1-00091-00441101081ADDAY121031AY221031GA1081+004201071GF108991999999004501999999MA1999999096311MD1719999+9999MW1101OA149900311REMSYN088AAXX  08034 06633 31440 80603 11009 21044 39631 40108 57/// 71022 333 88714 91106 91203;
0128066330999992010010804004+47383+008083FM-12+038799999V0200601N001519999999N9999999N1-00151-00341101041ADDMA1999999096261MD1710061+9999OA149900411REMSYN076AAXX  08044 06633 33/// /0603 11015 21034 39626 40104 57006 333 91108 91204;
0128066330999992010010805004+47383+008083FM-12+038799999V0200701N002119999999N9999999N1-00171-00301100981ADDMA1999999096201MD1710111+9999OA149900571REMSYN076AAXX  08054 06633 33/// /0704 11017 21030 39620 40098 57011 333 91111 91205;
0356066330999992010010806004+47383+008083FM-12+038799999V0200501N002110024019N0028001N1-00201-00281100951ADDAA112000592AA224000392AJ100019199999999AL11800091AL29900191AY171061AY221061GA1081+002401071GF108991999999002501999999GJ100549IA1229IA2999-00309KA1999N-00201MA1999999096171MD1710141+9999MW1711OA149900571REMSYN142AAXX  08064 06633 01328 80504 11020 21028 39617 40095 57014 69952 77172 333 21020 3/103 46001 55009 69955 70003 88708 90768 93101 91111 91205;
0145066330999992010010807004+47383+008083FM-12+038799999V0200501N002119999999N9999999N1-00201-00301100911ADDAA101000591MA1999999096131MD1710131+9999OA149900571REMSYN082AAXX  08074 06633 23/// /0504 11020 21030 39613 40091 57013 333 69945 91111 91205;
0145066330999992010010808004+47383+008083FM-12+038799999V0200501N003619999999N9999999N1-00151-00401100881ADDAA101000021MA1999999096111MD1710091+9999OA149900721REMSYN082AAXX  08084 06633 23/// /0507 11015 21040 39611 40088 57009 333 69915 91114 91207;
0204066330999992010010809004+47383+008083FM-12+038799999V0200501N003610042019N0030001N1-00191-00501100851ADDAY171031AY221031GA1081+004201071GF108991999999004501999999MA1999999096071MD1710101+9999MW1101OA149900821REMSYN088AAXX  08094 06633 31430 80507 11019 21050 39607 40085 57010 71072 333 88714 91116 91208;
0128066330999992010010810004+47383+008083FM-12+038799999V0200501N003619999999N9999999N1-00171-00561100801ADDMA1999999096031MD1710101+9999OA149900981REMSYN076AAXX  08104 06633 33/// /0507 11017 21056 39603 40080 57010 333 91119 91208;
0128066330999992010010811004+47383+008083FM-12+038799999V0200501N003619999999N9999999N1-00151-00531100731ADDMA1999999095961MD1710151+9999OA149900981REMSYN076AAXX  08114 06633 33/// /0507 11015 21053 39596 40073 57015 333 91119 91208;
0227066330999992010010812004+47383+008083FM-12+038799999V0200601N002610042019N0080001N1-00131-00501100621ADDAA106000591AY171061AY221061GA1081+004201071GF108991999999004501999999MA1999999095861MD1810211+9999MW1101OA149900981REMSYN100AAXX  08124 06633 01458 80605 11013 21050 39586 40062 58021 69951 71072 333 60005 88714 91119 91208;
0128066330999992010010813004+47383+008083FM-12+038799999V0200701N003619999999N9999999N1-00111-00481100561ADDMA1999999095811MD1710221+9999OA149900881REMSYN076AAXX  08134 06633 33/// /0707 11011 21048 39581 40056 57022 333 91117 91207;
0128066330999992010010814004+47383+008083FM-12+038799999V0200701N003119999999N9999999N1-00111-00461100561ADDMA1999999095811MD1719999+9999OA149900881REMSYN076AAXX  08144 06633 33/// /0706 11011 21046 39581 40056 57/// 333 91117 91207;
0204066330999992010010815004+47383+008083FM-12+038799999V0200701N003110033019N0050001N1-00111-00471100571ADDAY121031AY221031GA1081+003301071GF108991999999004501999999MA1999999095821MD1510041+9999MW1101OA149900981REMSYN088AAXX  08154 06633 31450 80706 11011 21047 39582 40057 55004 71022 333 88711 91119 91209;
0128066330999992010010816004+47383+008083FM-12+038799999V0200701N003119999999N9999999N1-00131-00471100631ADDMA1999999095871MD1210061+9999OA149900931REMSYN076AAXX  08164 06633 33/// /0706 11013 21047 39587 40063 52006 333 91118 91209;
0128066330999992010010817004+47383+008083FM-12+038799999V0200401N002619999999N9999999N1-00191-00521100671ADDMA1999999095901MD1319999+9999OA149900931REMSYN076AAXX  08174 06633 33/// /0405 11019 21052 39590 40067 53/// 333 91118 91207;
0297066330999992010010818004+47383+008083FM-12+038799999V0200301N002610033019N0040001N1-00241-00521100711ADDAA112000591AJ100019199999999AL19900091AY121061AY221061GA1081+003301071GF108991999999004501999999IA1229KA1120M-00101MA1999999095931MD1110111+9999MW1101OA149900981REMSYN124AAXX  08184 06633 01440 80305 11024 21052 39593 40071 51011 69952 71022 333 11010 46001 60005 88711 90766 93100 91119 91209;
0128066330999992010010819004+47383+008083FM-12+038799999V0200301N002619999999N9999999N1-00261-00581100711ADDMA1999999095931MD1110061+9999OA149900671REMSYN076AAXX  08194 06633 33/// /0305 11026 21058 39593 40071 51006 333 91113 91206;
0128066330999992010010820004+47383+008083FM-12+038799999V0200401N002619999999N9999999N1-00301-00621100731ADDMA1999999095941MD1110041+9999OA149900821REMSYN076AAXX  08204 06633 33/// /0405 11030 21062 39594 40073 51004 333 91116 91206;
0204066330999992010010821004+47383+008083FM-12+038799999V0200601N002610033019N0030001N1-00331-00641100731ADDAY131031AY221031GA1081+003301071GF108991999999004501999999MA1999999095931MD1010001+9999MW1761OA149900931REMSYN088AAXX  08214 06633 31430 80605 11033 21064 39593 40073 50000 77632 333 88711 91118 91207;
0128066330999992010010822004+47383+008083FM-12+038799999V0200601N002119999999N9999999N1-00331-00661100731ADDMA1999999095931MD1010001+9999OA149900671REMSYN076AAXX  08224 06633 33/// /0604 11033 21066 39593 40073 50000 333 91113 91206;
0128066330999992010010823004+47383+008083FM-12+038799999V0200601N001519999999N9999999N1-00321-00701100771ADDMA1999999095971MD1310031+9999OA149900621REMSYN076AAXX  08234 06633 33/// /0603 11032 21070 39597 40077 53003 333 91112 91204;
0204066330999992010010900004+47383+008083FM-12+038799999V0200601N002110024019N0020001N1-00331-00751100751ADDAY171061AY231061GA1081+002401071GF108991999999002501999999MA1999999095951MD1010021+9999MW1741OA149900931REMSYN088AAXX  09004 06633 31320 80604 11033 21075 39595 40075 50002 77473 333 88708 91118 91209;
0128066330999992010010901004+47383+008083FM-12+038799999V0200501N002619999999N9999999N1-00341-00791100751ADDMA1999999095951MD1010021+9999OA149900511REMSYN076AAXX  09014 06633 33/// /0505 11034 21079 39595 40075 50002 333 91110 91205;
0128066330999992010010902004+47383+008083FM-12+038799999V0200601N002619999999N9999999N1-00371-00761100741ADDMA1999999095941MD1719999+9999OA149900571REMSYN076AAXX  09024 06633 33/// /0605 11037 21076 39594 40074 57/// 333 91111 91205;
0182066330999992010010903004+47383+008083FM-12+038799999V0200501N002110042019N0025001N1-00381-00781100771ADDGA1081+004201071GF108991999999004501999999MA1999999095961MD1019999+9999OA149900671REMSYN088AAXX  09034 06633 31425 80504 11038 21078 39596 40077 50/// 7//72 333 88714 91113 91206;
0128066330999992010010904004+47383+008083FM-12+038799999V0200501N002119999999N9999999N1-00401-00791100721ADDMA1999999095911MD1810041+9999OA149900671REMSYN076AAXX  09044 06633 33/// /0504 11040 21079 39591 40072 58004 333 91113 91206;
0128066330999992010010905004+47383+008083FM-12+038799999V0200601N002119999999N9999999N1-00411-00791100711ADDMA1999999095901MD1710041+9999OA149900671REMSYN076AAXX  09054 06633 33/// /0604 11041 21079 39590 40071 57004 333 91113 91206;
0333066330999992010010906004+47383+008083FM-12+038799999V0200401N001510039019N0045001N1-00431-00771100661ADDAA124000891AJ100019199999999AL14200091AL29900191AY171061AY231061GA1081+003901071GF108991999999004501999999GJ100009IA1239IA2999-00409KA1999N-00421MA1999999095851MD1710111+9999MW1101OA149900821REMSYN130AAXX  09064 06633 31445 80403 11043 21077 39585 40066 57011 71073 333 21042 3/104 47001 55000 70007 88713 90768 93101 91116 91206;
0128066330999992010010907004+47383+008083FM-12+038799999V0200601N001519999999N9999999N1-00441-00781100661ADDMA1999999095851MD1710061+9999OA149900511REMSYN076AAXX  09074 06633 33/// /0603 11044 21078 39585 40066 57006 333 91110 91204;
0128066330999992010010908004+47383+008083FM-12+038799999V0200401N001519999999N9999999N1-00451-00761100681ADDMA1999999095861MD1510041+9999OA149900511REMSYN076AAXX  09084 06633 33/// /0403 11045 21076 39586 40068 55004 333 91110 91204;
0204066330999992010010909004+47383+008083FM-12+038799999V0200601N001510054019N0070001N1-00441-00761100721ADDAY121031AY221031GA1081+005401071GF108991999999004501999999MA1999999095901MD1210051+9999MW1101OA149900671REMSYN088AAXX  09094 06633 31457 80603 11044 21076 39590 40072 52005 71022 333 88718 91113 91206;
0128066330999992010010910004+47383+008083FM-12+038799999V0200601N002119999999N9999999N1-00431-00761100701ADDMA1999999095891MD1210041+9999OA149900511REMSYN076AAXX  09104 06633 33/// /0604 11043 21076 39589 40070 52004 333 91110 91205;
0128066330999992010010911004+47383+008083FM-12+038799999V0200601N001519999999N9999999N1-00401-00741100651ADDMA1999999095841MD1810021+9999OA149900411REMSYN076AAXX  09114 06633 33/// /0603 11040 21074 39584 40065 58002 333 91108 91204;
0204066330999992010010912004+47383+008083FM-12+038799999V0200501N002110033019N0050001N1-00391-00771100611ADDAY121061AY221061GA1081+003301071GF108991999999004501999999MA1999999095811MD1710091+9999MW1101OA149900671REMSYN088AAXX  09124 06633 31450 80504 11039 21077 39581 40061 57009 71022 333 88711 91113 91206;
0128066330999992010010913004+47383+008083FM-12+038799999V0200501N001519999999N9999999N1-00381-00761100601ADDMA1999999095801MD1710091+9999OA149900411REMSYN076AAXX  09134 06633 33/// /0503 11038 21076 39580 40060 57009 333 91108 91204;
0128066330999992010010914004+47383+008083FM-12+038799999V0200101N001019999999N9999999N1-00381-00721100611ADDMA1999999095811MD1510031+9999OA149900411REMSYN076AAXX  09144 06633 33/// /0102 11038 21072 39581 40061 55003 333 91108 91203;
0204066330999992010010915004+47383+008083FM-12+038799999V0200101N001510012019N0035001N1-00411-00701100651ADDAY121031AY221031GA1081+001201071GF108991999999001501999999MA1999999095841MD1310031+9999MW1101OA149900411REMSYN088AAXX  09154 06633 31235 80103 11041 21070 39584 40065 53003 71022 333 88704 91108 91204;
0128066330999992010010916004+47383+008083FM-12+038799999V0200101N001519999999N9999999N1-00401-00701100651ADDMA1999999095841MD1210041+9999OA149900361REMSYN076AAXX  09164 06633 33/// /0103 11040 21070 39584 40065 52004 333 91107 91204;
0128066330999992010010917004+47383+008083FM-12+038799999V0200201N001519999999N9999999N1-00421-00671100661ADDMA1999999095851MD1210041+9999OA149900411REMSYN076AAXX  09174 06633 33/// /0203 11042 21067 39585 40066 52004 333 91108 91206;
0316066330999992010010918004+47383+008083FM-12+038799999V0200101N001510012019N0015001N1-00431-00661100681ADDAA112000091AJ100019199999999AL19900091AY121061AY221061GA1081+001201071GF108991999999001501999999IA1239KA1120M-00371MA1999999095871MD1210031+9999MW1101OA149900511REMSYN124AAXX  09184 06633 01215 80103 11043 21066 39587 40068 52003 69922 71022 333 11037 47001 69925 88704 90766 93100 91110 91206;EQDQ01  00002PRCP12
0145066330999992010010919004+47383+008083FM-12+038799999V0200701N000519999999N9999999N1-00491-00581100741ADDAA101001091MA1999999095911MD1210071+9999OA149900411REMSYN082AAXX  09194 06633 23/// /0701 11049 21058 39591 40074 52007 333 60015 91108 91203;
0145066330999992010010920004+47383+008083FM-12+038799999V0209999C000019999999N9999999N1-00491-00611100781ADDAA101000891MA1999999095951MD1310101+9999OA149900311REMSYN082AAXX  09204 06633 23/// /0000 11049 21061 39595 40078 53010 333 69985 91106 91203;
0215066330999992010010921004+47383+008083FM-12+038799999V0209999C000010006019N0006001N1-00491-00611100811ADDAA101000591AY171031AY221031GA1091+999999999GF109991091999999999999999MA1999999095981MD1310111+9999MW1751OA149900411REMSYN088AAXX  09214 06633 21/06 90000 11049 21061 39598 40081 53011 77572 333 69955 91108 91206;
0145066330999992010010922004+47383+008083FM-12+038799999V0209999C000019999999N9999999N1-00501-00621100841ADDAA101000021MA1999999096011MD1210101+9999OA149900101REMSYN082AAXX  09224 06633 23/// /0000 11050 21062 39601 40084 52010 333 69925 91102 91201;
0145066330999992010010923004+47383+008083FM-12+038799999V0209999C000019999999N9999999N1-00501-00591100861ADDAA101000021MA1999999096031MD1210081+9999OA149900101REMSYN082AAXX  09234 06633 23/// /0000 11050 21059 39603 40086 52008 333 69915 91102 91201;
0227066330999992010011000004+47383+008083FM-12+038799999V0209999C000010042019N0030001N1-00501-00601100881ADDAA106003091GA1021+002401061GA2081+004201071GF108991999999002501999999MA1999999096051MD1210071+9999OA149900411REMSYN106AAXX  10004 06633 01330 80000 11050 21060 39605 40088 52007 60031 7//72 333 69915 82608 88714 91108 91206;
0128066330999992010011001004+47383+008083FM-12+038799999V0202401N000519999999N9999999N1-00481-00621100911ADDMA1999999096081MD1110071+9999OA149900101REMSYN076AAXX  10014 06633 33/// /2401 11048 21062 39608 40091 51007 333 91102 91201;
0087066330999992010011002004+47383+008083FM-12+038799999V0202201N000519999999N9999999N1-00481-00641100981ADDMA1999999096141REMSYN060AAXX  10024 06633 33/// /2201 11048 21064 39614 40098 5////;
0167066330999992010011003004+47383+008083FM-12+038799999V0202201N000510063019N0050001N1-00471-00661101031ADDAY121031AY221031GA1071+006301061GF107991999999008001999999MA1999999096191MW1101REMSYN076AAXX  10034 06633 41550 72201 11047 21066 39619 40103 5//// 71022 333 87621;
0128066330999992010011004004+47383+008083FM-12+038799999V0202501N000519999999N9999999N1-00481-00661101081ADDMA1999999096241MD1110161+9999OA149900151REMSYN076AAXX  10044 06633 33/// /2501 11048 21066 39624 40108 51016 333 91103 91201;
0128066330999992010011005004+47383+008083FM-12+038799999V0202601N000519999999N9999999N1-00471-00671101111ADDMA1999999096271MD1110131+9999OA149900151REMSYN076AAXX  10054 06633 33/// /2601 11047 21067 39627 40111 51013 333 91103 91201;
0356066330999992010011006004+47383+008083FM-12+038799999V0202501N000510018019N0035001N1-00461-00661101161ADDAA112003091AA224003091AJ100059199999999AL19900391AL29900491AY171061AY221061GA1081+001801071GF108991999999001501999999GJ100009IA1239IA2999-00709KA1999N-00541MA1999999096321MD1210131+9999MW1101OA149900311REMSYN142AAXX  10064 06633 01235 82501 11046 21066 39632 40116 52013 60032 71072 333 21054 3/107 47005 55000 60005 70030 88706 90768 93104 91106 91203;
0128066330999992010011007004+47383+008083FM-12+038799999V0202401N000519999999N9999999N1-00471-00651101241ADDMA1999999096391MD1310151+9999OA149900101REMSYN076AAXX  10074 06633 33/// /2401 11047 21065 39639 40124 53015 333 91102 91201;
0128066330999992010011008004+47383+008083FM-12+038799999V0202501N000519999999N9999999N1-00491-00641101321ADDMA1999999096471MD1319999+9999OA149900151REMSYN076AAXX  10084 06633 33/// /2501 11049 21064 39647 40132 53/// 333 91103 91201;
0226066330999992010011009004+47383+008083FM-12+038799999V0202101N000510087019N0070001N1-00411-00681101401ADDAY121031AY221031GA1021+001801071GA2071+008701061GF108991999999001501999999MA1999999096561MD1310241+9999MW1101OA149900151REMSYN094AAXX  10094 06633 31257 82101 11041 21068 39656 40140 53024 71022 333 82706 87629 91103 91202;
0128066330999992010011010004+47383+008083FM-12+038799999V0202301N001019999999N9999999N1-00381-00751101441ADDMA1999999096601MD1110211+9999OA149900211REMSYN076AAXX  10104 06633 33/// /2302 11038 21075 39660 40144 51021 333 91104 91202;
0128066330999992010011011004+47383+008083FM-12+038799999V0202701N000519999999N9999999N1-00351-00741101501ADDMA1999999096661MD1110191+9999OA149900211REMSYN076AAXX  10114 06633 33/// /2701 11035 21074 39666 40150 51019 333 91104 91202;
0204066330999992010011012004+47383+008083FM-12+038799999V0202401N001010033019N0045001N1-00341-00821101511ADDAY121061AY221061GA1081+003301071GF108991999999004501999999MA1999999096671MD1110111+9999MW1051OA149900261REMSYN088AAXX  10124 06633 31445 82402 11034 21082 39667 40151 51011 70522 333 88711 91105 91202;
0128066330999992010011013004+47383+008083FM-12+038799999V0203001N001019999999N9999999N1-00321-00841101521ADDMA1999999096691MD1110091+9999OA149900261REMSYN076AAXX  10134 06633 33/// /3002 11032 21084 39669 40152 51009 333 91105 91203;
0128066330999992010011014004+47383+008083FM-12+038799999V0202601N001019999999N9999999N1-00311-00831101561ADDMA1999999096731MD1319999+9999OA149900261REMSYN076AAXX  10144 06633 33/// /2602 11031 21083 39673 40156 53/// 333 91105 91203;
0204066330999992010011015004+47383+008083FM-12+038799999V0202101N001010054019N0050001N1-00301-00821101601ADDAY121031AY221031GA1081+005401071GF108991999999004501999999MA1999999096771MD1310101+9999MW1051OA149900261REMSYN088AAXX  10154 06633 31450 82102 11030 21082 39677 40160 53010 70522 333 88718 91105 91203;
0128066330999992010011016004+47383+008083FM-12+038799999V0209999C000019999999N9999999N1-00311-00781101661ADDMA1999999096821MD1110131+9999OA149900261REMSYN076AAXX  10164 06633 33/// /0000 11031 21078 39682 40166 51013 333 91105 91202;
0128066330999992010011017004+47383+008083FM-12+038799999V0209999C000019999999N9999999N1-00351-00681101711ADDMA1999999096861MD1110131+9999OA149900101REMSYN076AAXX  10174 06633 33/// /0000 11035 21068 39686 40171 51013 333 91102 91201;
0274066330999992010011018004+47383+008083FM-12+038799999V0200401N000510018019N0015001N1-00371-00631101741ADDAJ100059199999999AL19900091AY121061AY221061GA1081+001801071GF108991999999001501999999IA1239KA1120M-00301MA1999999096891MD1110121+9999MW1101OA149900261REMSYN112AAXX  10184 06633 31215 80401 11037 21063 39689 40174 51012 71022 333 11030 47005 88706 90766 93100 91105 91203;
0128066330999992010011019004+47383+008083FM-12+038799999V0201501N000519999999N9999999N1-00401-00621101771ADDMA1999999096911MD1210091+9999OA149900151REMSYN076AAXX  10194 06633 33/// /1501 11040 21062 39691 40177 52009 333 91103 91202;
0128066330999992010011020004+47383+008083FM-12+038799999V0201701N000519999999N9999999N1-00411-00711101781ADDMA1999999096921MD1210061+9999OA149900151REMSYN076AAXX  10204 06633 33/// /1701 11041 21071 39692 40178 52006 333 91103 91202;
0204066330999992010011021004+47383+008083FM-12+038799999V0201201N000510024019N0020001N1-00471-00701101811ADDAY121031AY221031GA1081+002401071GF108991999999002501999999MA1999999096941MD1210051+9999MW1101OA149900151REMSYN088AAXX  10214 06633 31320 81201 11047 21070 39694 40181 52005 71022 333 88708 91103 91202;
0128066330999992010011022004+47383+008083FM-12+038799999V0201701N000519999999N9999999N1-00511-00721101811ADDMA1999999096931MD1210021+9999OA149900101REMSYN076AAXX  10224 06633 33/// /1701 11051 21072 39693 40181 52002 333 91102 91201;
0128066330999992010011023004+47383+008083FM-12+038799999V0201701N000519999999N9999999N1-00531-00731101811ADDMA1999999096931MD1210011+9999OA149900211REMSYN076AAXX  10234 06633 33/// /1701 11053 21073 39693 40181 52001 333 91104 91202;
0204066330999992010011100004+47383+008083FM-12+038799999V0209999C000010024019N0025001N1-00541-00721101821ADDAY121061AY221061GA1081+002401071GF108991999999002501999999MA1999999096931MD1710011+9999MW1101OA149900261REMSYN088AAXX  11004 06633 31325 80000 11054 21072 39693 40182 57001 71022 333 88708 91105 91203;
0128066330999992010011101004+47383+008083FM-12+038799999V0209999C000019999999N9999999N1-00571-00691101831ADDMA1999999096941MD1010011+9999OA149900151REMSYN076AAXX  11014 06633 33/// /0000 11057 21069 39694 40183 50001 333 91103 91202;
0128066330999992010011102004+47383+008083FM-12+038799999V0201801N001519999999N9999999N1-00501-00711101831ADDMA1999999096951MD1219999+9999OA149900211REMSYN076AAXX  11024 06633 33/// /1803 11050 21071 39695 40183 52/// 333 91104 91203;
0204066330999992010011103004+47383+008083FM-12+038799999V0209999C000010024019N0025001N1-00561-00721101821ADDAY121031AY221031GA1081+002401071GF108991999999002501999999MA1999999096931MD1019999+9999MW1101OA149900211REMSYN088AAXX  11034 06633 31325 80000 11056 21072 39693 40182 50/// 71022 333 88708 91104 91203;
0128066330999992010011104004+47383+008083FM-12+038799999V0209999C000019999999N9999999N1-00531-00691101841ADDMA1999999096951MD1010011+9999OA149900211REMSYN076AAXX  11044 06633 33/// /0000 11053 21069 39695 40184 50001 333 91104 91202;
0128066330999992010011105004+47383+008083FM-12+038799999V0209999C000019999999N9999999N1-00531-00691101801ADDMA1999999096921MD1710031+9999OA149900101REMSYN076AAXX  11054 06633 33/// /0000 11053 21069 39692 40180 57003 333 91102 91201;
0342066330999992010011106004+47383+008083FM-12+038799999V0209999C000010018019N0034001N1-00511-00671101791ADDAA124000091AJ100059199999999AL19900091AY121061AY221061GA1081+001801071GF108991999999001501999999GJ100009IA1279IA2999-00909KA1999N-00591MA1999999096911MD1710021+9999MW1101OA149900211REMSYN130AAXX  11064 06633 31234 80000 11051 21067 39691 40179 57002 71022 333 21059 3/109 43005 55000 70000 88706 90768 93100 91104 91203;EQDQ01  00002PRCP24
0128066330999992010011107004+47383+008083FM-12+038799999V0202201N000519999999N9999999N1-00461-00671101781ADDMA1999999096911MD1610041+9999OA149900101REMSYN076AAXX  11074 06633 33/// /2201 11046 21067 39691 40178 56004 333 91102 91201;
0128066330999992010011108004+47383+008083FM-12+038799999V0202401N000519999999N9999999N1-00461-00661101791ADDMA1999999096921MD1519999+9999OA149900101REMSYN076AAXX  11084 06633 33/// /2401 11046 21066 39692 40179 55/// 333 91102 91201;
0204066330999992010011109004+47383+008083FM-12+038799999V0202301N000510063019N0042001N1-00371-00691101791ADDAY121031AY221031GA1081+006301071GF108991999999008001999999MA1999999096941MD1210031+9999MW1101OA149900101REMSYN088AAXX  11094 06633 31542 82301 11037 21069 39694 40179 52003 71022 333 88721 91102 91201;
0128066330999992010011110004+47383+008083FM-12+038799999V0202601N001019999999N9999999N1-00321-00711101811ADDMA1999999096961MD1219999+9999OA149900211REMSYN076AAXX  11104 06633 33/// /2602 11032 21071 39696 40181 52/// 333 91104 91203;
0128066330999992010011111004+47383+008083FM-12+038799999V0202501N002619999999N9999999N1-00281-00721101771ADDMA1999999096931MD1010011+9999OA149900411REMSYN076AAXX  11114 06633 33/// /2505 11028 21072 39693 40177 50001 333 91108 91205;
0204066330999992010011112004+47383+008083FM-12+038799999V0202301N002110054019N0040001N1-00281-00741101751ADDAY121061AY221061GA1081+005401071GF108991999999004501999999MA1999999096911MD1710031+9999MW1051OA149900461REMSYN088AAXX  11124 06633 31440 82304 11028 21074 39691 40175 57003 70522 333 88718 91109 91205;
0128066330999992010011113004+47383+008083FM-12+038799999V0202101N002619999999N9999999N1-00301-00741101741ADDMA1999999096901MD1710061+9999OA149900511REMSYN076AAXX  11134 06633 33/// /2105 11030 21074 39690 40174 57006 333 91110 91206;
0087066330999992010011114004+47383+008083FM-12+038799999V0202101N001519999999N9999999N1-00281-00721101761ADDMA1999999096921REMSYN060AAXX  11144 06633 33/// /2103 11028 21072 39692 40176 5////;
0204066330999992010011115004+47383+008083FM-12+038799999V0202201N001010033019N0030001N1-00281-00681101791ADDAY121031AY221031GA1081+003301071GF108991999999004501999999MA1999999096951MD1210041+9999MW1781OA149900511REMSYN088AAXX  11154 06633 31430 82202 11028 21068 39695 40179 52004 77822 333 88711 91110 91206;
0128066330999992010011116004+47383+008083FM-12+038799999V0202401N000519999999N9999999N1-00331-00581101831ADDMA1999999096981MD1310081+9999OA149900311REMSYN076AAXX  11164 06633 33/// /2401 11033 21058 39698 40183 53008 333 91106 91204;
0145066330999992010011117004+47383+008083FM-12+038799999V0209999C000019999999N9999999N1-00381-00461101891ADDAA101000891MA1999999097031MD1310111+9999OA149900151REMSYN082AAXX  11174 06633 23/// /0000 11038 21046 39703 40189 53011 333 69985 91103 91201;
0297066330999992010011118004+47383+008083FM-12+038799999V0202301N000510012019N0012001N1-00351-00481101921ADDAA112001091AJ100079199999999AL11200291AY171061AY221061GA1081+001201071GF108991999999001501999999IA1279KA1120M-00271MA1999999097061MD1310111+9999MW1711OA149900511REMSYN124AAXX  11184 06633 01212 82301 11035 21048 39706 40192 53011 60012 77172 333 11027 43007 69925 88704 90766 93102 91110 91206;
0128066330999992010011119004+47383+008083FM-12+038799999V0209999C000019999999N9999999N1-00371-00461101941ADDMA1999999097081MD1110101+9999OA149900101REMSYN076AAXX  11194 06633 33/// /0000 11037 21046 39708 40194 51010 333 91102 91201;
0145066330999992010011120004+47383+008083FM-12+038799999V0209999C000019999999N9999999N1-00361-00451101951ADDAA101000021MA1999999097091MD1210061+9999OA149900101REMSYN082AAXX  11204 06633 23/// /0000 11036 21045 39709 40195 52006 333 69915 91102 91201;
0221066330999992010011121004+47383+008083FM-12+038799999V0209999C000010024019N0023001N1-00361-00461101961ADDAA101000021AY171031AY221031GA1081+002401071GF108991999999002501999999MA1999999097101MD1210041+9999MW1681OA149900151REMSYN094AAXX  11214 06633 21323 80000 11036 21046 39710 40196 52004 76872 333 69915 88708 91103 91201;
0145066330999992010011122004+47383+008083FM-12+038799999V0209999C000019999999N9999999N1-00371-00431101961ADDAA101000591MA1999999097101MD1210021+9999OA149900051REMSYN082AAXX  11224 06633 23/// /0000 11037 21043 39710 40196 52002 333 69945 91101 91200;
0145066330999992010011123004+47383+008083FM-12+038799999V0209999C000019999999N9999999N1-00361-00411101971ADDAA101000591MA1999999097111MD1210021+9999OA149900051REMSYN082AAXX  11234 06633 23/// /0000 11036 21041 39711 40197 52002 333 69945 91101 91201;
0227066330999992010011200004+47383+008083FM-12+038799999V0209999C000010012019N0020001N1-00381-00431101991ADDAA106001091AY171061AY221061GA1081+001201071GF108991999999001501999999MA1999999097121MD1210021+9999MW1711OA149900511REMSYN100AAXX  12004 06633 01220 80000 11038 21043 39712 40199 52002 60011 77172 333 69925 88704 91110 91206;
0145066330999992010011201004+47383+008083FM-12+038799999V0202201N000519999999N9999999N1-00371-00441101971ADDAA101000021MA1999999097111MD1210011+9999OA149900051REMSYN082AAXX  12014 06633 23/// /2201 11037 21044 39711 40197 52001 333 69915 91101 91201;
0128066330999992010011202004+47383+008083FM-12+038799999V0209999C000019999999N9999999N1-00331-00441101961ADDMA1999999097101MD1719999+9999OA149900051REMSYN076AAXX  12024 06633 33/// /0000 11033 21044 39710 40196 57/// 333 91101 91201;
0204066330999992010011203004+47383+008083FM-12+038799999V0209999C000010012019N0018001N1-00341-00431101941ADDAY171031AY271031GA1081+001201071GF108991999999001501999999MA1999999097081MD1710041+9999MW1711OA149900051REMSYN088AAXX  12034 06633 31218 80000 11034 21043 39708 40194 57004 77177 333 88704 91101 91201;
0128066330999992010011204004+47383+008083FM-12+038799999V0209999C000019999999N9999999N1-00361-00441101931ADDMA1999999097071MD1710041+9999OA149900051REMSYN076AAXX  12044 06633 33/// /0000 11036 21044 39707 40193 57004 333 91101 91201;
0128066330999992010011205004+47383+008083FM-12+038799999V0209999C000019999999N9999999N1-00361-00441101931ADDMA1999999097071MD1710031+9999OA149900051REMSYN076AAXX  12054 06633 33/// /0000 11036 21044 39707 40193 57003 333 91101 91200;
0356066330999992010011206004+47383+008083FM-12+038799999V0209999C000010009019N0032001N1-00371-00441101881ADDAA112001091AA224002391AJ100099199999999AL11800291AL29900591AY171061AY221061GA1081+000901071GF108991999999000751999999GJ100009IA1279IA2999-00509KA1999N-00381MA1999999097021MD1710061+9999MW1711OA149900101REMSYN142AAXX  12064 06633 01132 80000 11037 21044 39702 40188 57006 60012 77172 333 21038 3/105 43009 55000 60005 70023 88703 90768 93105 91102 91201;
0128066330999992010011207004+47383+008083FM-12+038799999V0209999C000019999999N9999999N1-00351-00441101831ADDMA1999999096981MD1710091+9999OA149900051REMSYN076AAXX  12074 06633 33/// /0000 11035 21044 39698 40183 57009 333 91101 91201;
0128066330999992010011208004+47383+008083FM-12+038799999V0209999C000019999999N9999999N1-00401-00461101781ADDMA1999999096921MD1719999+9999OA149900051REMSYN076AAXX  12084 06633 33/// /0000 11040 21046 39692 40178 57/// 333 91101 91201;
0204066330999992010011209004+47383+008083FM-12+038799999V0209999C000010003019N0034001N1-00321-00441101721ADDAY171031AY221031GA1081+000301071GF108991999999000251999999MA1999999096881MD1710141+9999MW1101OA149900151REMSYN088AAXX  12094 06633 31034 80000 11032 21044 39688 40172 57014 71072 333 88701 91103 91201;
0128066330999992010011210004+47383+008083FM-12+038799999V0200801N000519999999N9999999N1-00241-00441101621ADDMA1999999096801MD1710181+9999OA149900151REMSYN076AAXX  12104 06633 33/// /0801 11024 21044 39680 40162 57018 333 91103 91201;
0128066330999992010011211004+47383+008083FM-12+038799999V0200701N001019999999N9999999N1-00211-00461101531ADDMA1999999096721MD1710201+9999OA149900211REMSYN076AAXX  12114 06633 33/// /0702 11021 21046 39672 40153 57020 333 91104 91202;
0204066330999992010011212004+47383+008083FM-12+038799999V0200801N000510009019N0025001N1-00191-00551101451ADDAY171061AY221061GA1081+000901071GF108991999999000751999999MA1999999096641MD1710241+9999MW1101OA149900211REMSYN088AAXX  12124 06633 31125 80801 11019 21055 39664 40145 57024 71072 333 88703 91104 91203;
0128066330999992010011213004+47383+008083FM-12+038799999V0201301N001019999999N9999999N1-00191-00501101371ADDMA1999999096571MD1610231+9999OA149900211REMSYN076AAXX  12134 06633 33/// /1302 11019 21050 39657 40137 56023 333 91104 91203;
0087066330999992010011214004+47383+008083FM-12+038799999V0201701N001019999999N9999999N1-00191-00511101291ADDMA1999999096491REMSYN060AAXX  12144 06633 33/// /1702 11019 21051 39649 40129 5////;
0204066330999992010011215004+47383+008083FM-12+038799999V0201001N001010033019N0040001N1-00191-00461101201ADDAY121031AY221031GA1081+003301071GF108991999999004501999999MA1999999096411MD1710231+9999MW1101OA149900211REMSYN088AAXX  12154 06633 31440 81002 11019 21046 39641 40120 57023 71022 333 88711 91104 91203;
0128066330999992010011216004+47383+008083FM-12+038799999V0200801N001019999999N9999999N1-00191-00501101121ADDMA1999999096331MD1610241+9999OA149900261REMSYN076AAXX  12164 06633 33/// /0802 11019 21050 39633 40112 56024 333 91105 91203;
0128066330999992010011217004+47383+008083FM-12+038799999V0200901N000519999999N9999999N1-00201-00441101081ADDMA1999999096291MD1710201+9999OA149900411REMSYN076AAXX  12174 06633 33/// /0901 11020 21044 39629 40108 57020 333 91108 91203;
0274066330999992010011218004+47383+008083FM-12+038799999V0200701N001010018019N0025001N1-00201-00441101021ADDAJ100089199999999AL19900091AY121061AY221061GA1081+001801071GF108991999999001501999999IA1279KA1120M-00171MA1999999096231MD1710181+9999MW1101OA149900411REMSYN112AAXX  12184 06633 31225 80702 11020 21044 39623 40102 57018 71022 333 11017 43008 88706 90766 93100 91108 91203;
0128066330999992010011219004+47383+008083FM-12+038799999V0201101N001519999999N9999999N1-00181-00441100981ADDMA1999999096201MD1710131+9999OA149900311REMSYN076AAXX  12194 06633 33/// /1103 11018 21044 39620 40098 57013 333 91106 91203;
0128066330999992010011220004+47383+008083FM-12+038799999V0201101N001019999999N9999999N1-00201-00431100941ADDMA1999999096161MD1810131+9999OA149900311REMSYN076AAXX  12204 06633 33/// /1102 11020 21043 39616 40094 58013 333 91106 91203;
0204066330999992010011221004+47383+008083FM-12+038799999V0201201N000510024019N0026001N1-00211-00451100871ADDAY121031AY221031GA1081+002401071GF108991999999002501999999MA1999999096091MD1810141+9999MW1101OA149900411REMSYN088AAXX  12214 06633 31326 81201 11021 21045 39609 40087 58014 71022 333 88708 91108 91203;
0128066330999992010011222004+47383+008083FM-12+038799999V0201101N000519999999N9999999N1-00211-00441100811ADDMA1999999096031MD1810171+9999OA149900151REMSYN076AAXX  12224 06633 33/// /1101 11021 21044 39603 40081 58017 333 91103 91202;
0128066330999992010011223004+47383+008083FM-12+038799999V0209999C000019999999N9999999N1-00201-00441100791ADDMA1999999096011MD1710151+9999OA149900151REMSYN076AAXX  12234 06633 33/// /0000 11020 21044 39601 40079 57015 333 91103 91202;
0204066330999992010011300004+47383+008083FM-12+038799999V0202301N002110024019N0025001N1-00201-00431100881ADDAY121061AY221061GA1081+002401071GF108991999999002501999999MA1999999096101MD1310011+9999MW1101OA149900411REMSYN088AAXX  13004 06633 31325 82304 11020 21043 39610 40088 53001 71022 333 88708 91108 91204;
0128066330999992010011301004+47383+008083FM-12+038799999V0202101N001519999999N9999999N1-00261-00481100891ADDMA1999999096101MD1210071+9999OA149900571REMSYN076AAXX  13014 06633 33/// /2103 11026 21048 39610 40089 52007 333 91111 91206;
0128066330999992010011302004+47383+008083FM-12+038799999V0202101N001019999999N9999999N1-00261-00481100841ADDMA1999999096051MD1019999+9999OA149900571REMSYN076AAXX  13024 06633 33/// /2102 11026 21048 39605 40084 50/// 333 91111 91206;
0204066330999992010011303004+47383+008083FM-12+038799999V0209999C000010024019N0023001N1-00291-00491100781ADDAY121031AY221031GA1081+002401071GF108991999999002501999999MA1999999095991MD1719999+9999MW1101OA149900571REMSYN088AAXX  13034 06633 31323 80000 11029 21049 39599 40078 57/// 71022 333 88708 91111 91206;
0128066330999992010011304004+47383+008083FM-12+038799999V0209999C000019999999N9999999N1-00281-00471100721ADDMA1999999095931MD1810171+9999OA149900151REMSYN076AAXX  13044 06633 33/// /0000 11028 21047 39593 40072 58017 333 91103 91201;
0128066330999992010011305004+47383+008083FM-12+038799999V0201701N000519999999N9999999N1-00281-00481100711ADDMA1999999095921MD1610131+9999OA149900101REMSYN076AAXX  13054 06633 33/// /1701 11028 21048 39592 40071 56013 333 91102 91201;
0323066330999992010011306004+47383+008083FM-12+038799999V0202401N001010024019N0032001N1-00261-00471100751ADDAA124000021AJ100069199999999AL19900091AY121061AY221061GA1081+002401071GF108991999999002501999999GJ100009IA1309IA2999-00409KA1999N-00301MA1999999095961MD1510031+9999MW1101OA149900571REMSYN130AAXX  13064 06633 31332 82402 11026 21047 39596 40075 55003 71022 333 21030 3/104 42006 55000 70000 88708 90768 93100 91111 91206;
0128066330999992010011307004+47383+008083FM-12+038799999V0202401N000519999999N9999999N1-00261-00501100791ADDMA1999999096001MD1210071+9999OA149900311REMSYN076AAXX  13074 06633 33/// /2401 11026 21050 39600 40079 52007 333 91106 91203;
0128066330999992010011308004+47383+008083FM-12+038799999V0209999C000019999999N9999999N1-00271-00441100851ADDMA1999999096061MD1210141+9999OA149900311REMSYN076AAXX  13084 06633 33/// /0000 11027 21044 39606 40085 52014 333 91106 91203;
0204066330999992010011309004+47383+008083FM-12+038799999V0202101N000510006019N0022001N1-00221-00411100911ADDAY171031AY251031GA1081+000601071GF108991999999000751999999MA1999999096121MD1110161+9999MW1681OA149900311REMSYN088AAXX  13094 06633 31122 82101 11022 21041 39612 40091 51016 76875 333 88702 91106 91203;
0145066330999992010011310004+47383+008083FM-12+038799999V0209999C000019999999N9999999N1-00221-00331100961ADDAA101000391MA1999999096171MD1210171+9999OA149900211REMSYN082AAXX  13104 06633 23/// /0000 11022 21033 39617 40096 52017 333 69935 91104 91202;
0145066330999992010011311004+47383+008083FM-12+038799999V0202701N000519999999N9999999N1-00171-00301100951ADDAA101000391MA1999999096171MD1210111+9999OA149900151REMSYN082AAXX  13114 06633 23/// /2701 11017 21030 39617 40095 52011 333 69935 91103 91202;
0221066330999992010011312004+47383+008083FM-12+038799999V0201901N001510006019N0008001N1-00071-00251100901ADDAA106000591AY171061AY221061GA1091+999999999GF109991091999999999999999MA1999999096141MD1010021+9999MW1731OA149900571REMSYN094AAXX  13124 06633 01/08 91903 11007 21025 39614 40090 50002 69961 77372 333 60005 91111 91206;
0145066330999992010011313004+47383+008083FM-12+038799999V0202401N001019999999N9999999N1-00031-00201100871ADDAA101000021MA1999999096121MD1610051+9999OA149900261REMSYN082AAXX  13134 06633 23/// /2402 11003 21020 39612 40087 56005 333 69915 91105 91203;
0145066330999992010011314004+47383+008083FM-12+038799999V0202901N001019999999N9999999N1+00011-00111100881ADDAA101000021MA1999999096141MD1519999+9999OA149900211REMSYN082AAXX  13144 06633 23/// /2902 10001 21011 39614 40088 55/// 333 69915 91104 91203;
0221066330999992010011315004+47383+008083FM-12+038799999V0203201N001010012019N0010001N1+00001-00081100921ADDAA101000021AY181031AY221031GA1081+001201071GF108991999999001501999999MA1999999096171MD1210031+9999MW1771OA149900261REMSYN094AAXX  13154 06633 21210 83202 10000 21008 39617 40092 52003 77782 333 69915 88704 91105 91203;
0128066330999992010011316004+47383+008083FM-12+038799999V0203501N001019999999N9999999N1+00021-00101100941ADDMA1999999096191MD1310071+9999OA149900261REMSYN076AAXX  13164 06633 33/// /3502 10002 21010 39619 40094 53007 333 91105 91203;
0145066330999992010011317004+47383+008083FM-12+038799999V0203401N001019999999N9999999N1+00011-00051101001ADDAA101000021MA1999999096251MD1310111+9999OA149900211REMSYN082AAXX  13174 06633 23/// /3402 10001 21005 39625 40100 53011 333 69925 91104 91202;
0291066330999992010011318004+47383+008083FM-12+038799999V0203001N000510006019N0008001N1+00031-00021101041ADDAA112001091AJ100069199999999AL19900091AY171061AY241061GA1091+999999999GF109991091999999999999999IA1239KA1120M+00051MA1999999096291MD1310121+9999MW1751OA149900311REMSYN118AAXX  13184 06633 01/08 93001 10003 21002 39629 40104 53012 60012 77574 333 10005 47006 69925 90766 93100 91106 91203;
0145066330999992010011319004+47383+008083FM-12+038799999V0209999C000019999999N9999999N1+00031-00011101071ADDAA101000021MA1999999096321MD1110131+9999OA149900151REMSYN082AAXX  13194 06633 23/// /0000 10003 21001 39632 40107 51013 333 69915 91103 91201;
0146066330999992010011321004+47383+008083FM-12+038799999V02099999999990024019N0025001N1+99999+99999999999ADDAY171031AY221031GA1081+002401071GF108991999999002501999999MW1101REMSYN070AAXX  13214 06633 41325 8//// 1//// 2//// 3//// 5//// 71072 333 88708;
0146066330999992010011400004+47383+008083FM-12+038799999V02099999999990027019N0030001N1+99999+99999999999ADDAY171061AY241061GA1081+002701071GF108991999999002501999999MW1101REMSYN070AAXX  14004 06633 41330 8//// 1//// 2//// 3//// 5//// 71074 333 88709;
0128066330999992010011401004+47383+008083FM-12+038799999V0209999C000019999999N9999999N1+00051+00011100941ADDMA1999999096201MD1819999+9999OA149900101REMSYN076AAXX  14014 06633 33/// /0000 10005 20001 39620 40094 58/// 333 91102 91201;
0128066330999992010011402004+47383+008083FM-12+038799999V0209999C000019999999N9999999N1+00061+00021100911ADDMA1999999096171MD1619999+9999OA149900101REMSYN076AAXX  14024 06633 33/// /0000 10006 20002 39617 40091 56/// 333 91102 91201;
0167066330999992010011403004+47383+008083FM-12+038799999V0209999C000010012019N0023001N1+00051+00021100901ADDAY171031AY221031GA1081+001201071GF108991999999001501999999MA1999999096161MW1101REMSYN076AAXX  14034 06633 31223 80000 10005 20002 39616 40090 5//// 71072 333 88704;
0128066330999992010011404004+47383+008083FM-12+038799999V0209999C000019999999N9999999N1+00041+00021100881ADDMA1999999096141MD1710061+9999OA149900101REMSYN076AAXX  14044 06633 33/// /0000 10004 20002 39614 40088 57006 333 91102 91201;
0128066330999992010011405004+47383+008083FM-12+038799999V0201001N000519999999N9999999N1+00071+00031100841ADDMA1999999096111MD1710061+9999OA149900101REMSYN076AAXX  14054 06633 33/// /1001 10007 20003 39611 40084 57006 333 91102 91201;
0346066330999992010011406004+47383+008083FM-12+038799999V0200701N000510009019N0032001N1+00071+00041100801ADDAA112000021AA224001591AJ100069199999999AL19900191AY171061AY221061GA1081+000901071GF108991999999000751999999GJ100009IA1279IA2999+00009KA1999N+00031MA1999999096071MD1810091+9999MW1101OA149900151REMSYN142AAXX  14064 06633 01132 80701 10007 20004 39607 40080 58009 69922 71072 333 20003 3/000 43006 55000 60005 70015 88703 90768 93101 91103 91202;
0128066330999992010011407004+47383+008083FM-12+038799999V0200801N001019999999N9999999N1+00101+00031100781ADDMA1999999096061MD1610081+9999OA149900261REMSYN076AAXX  14074 06633 33/// /0802 10010 20003 39606 40078 56008 333 91105 91202;
0128066330999992010011408004+47383+008083FM-12+038799999V0200701N001019999999N9999999N1+00081+00031100781ADDMA1999999096051MD1719999+9999OA149900311REMSYN076AAXX  14084 06633 33/// /0702 10008 20003 39605 40078 57/// 333 91106 91203;
0204066330999992010011409004+47383+008083FM-12+038799999V0200501N001510009019N0028001N1+00081+00031100771ADDAY121031AY221031GA1081+000901071GF108991999999000751999999MA1999999096041MD1710031+9999MW1101OA149900361REMSYN088AAXX  14094 06633 31128 80503 10008 20003 39604 40077 57003 71022 333 88703 91107 91203;
0128066330999992010011410004+47383+008083FM-12+038799999V0200401N001519999999N9999999N1+00091+00001100771ADDMA1999999096041MD1710021+9999OA149900411REMSYN076AAXX  14104 06633 33/// /0403 10009 20000 39604 40077 57002 333 91108 91204;
0128066330999992010011411004+47383+008083FM-12+038799999V0200401N001519999999N9999999N1+00091-00011100701ADDMA1999999095981MD1710071+9999OA149900461REMSYN076AAXX  14114 06633 33/// /0403 10009 21001 39598 40070 57007 333 91109 91204;
0204066330999992010011412004+47383+008083FM-12+038799999V0200301N001510009019N0040001N1+00121+00011100641ADDAY121061AY221061GA1081+000901071GF108991999999000751999999MA1999999095931MD1710111+9999MW1101OA149900461REMSYN088AAXX  14124 06633 31140 80303 10012 20001 39593 40064 57011 71022 333 88703 91109 91204;
0128066330999992010011413004+47383+008083FM-12+038799999V0200401N001519999999N9999999N1+00181+00021100611ADDMA1999999095911MD1710131+9999OA149900461REMSYN076AAXX  14134 06633 33/// /0403 10018 20002 39591 40061 57013 333 91109 91204;
0128066330999992010011414004+47383+008083FM-12+038799999V0202501N000519999999N9999999N1+00181+00031100671ADDMA1999999095961MD1510021+9999OA149900461REMSYN076AAXX  14144 06633 33/// /2501 10018 20003 39596 40067 55002 333 91109 91204;
0204066330999992010011415004+47383+008083FM-12+038799999V0209999C000010033019N0050001N1+00201+00001100671ADDAY121031AY221031GA1081+003301071GF108991999999004501999999MA1999999095971MD1210041+9999MW1101OA149900461REMSYN088AAXX  14154 06633 31450 80000 10020 20000 39597 40067 52004 71022 333 88711 91109 91204;
0128066330999992010011416004+47383+008083FM-12+038799999V0200601N001519999999N9999999N1+00161+00001100701ADDMA1999999095991MD1210081+9999OA149900361REMSYN076AAXX  14164 06633 33/// /0603 10016 20000 39599 40070 52008 333 91107 91203;
0128066330999992010011417004+47383+008083FM-12+038799999V0200401N001519999999N9999999N1+00161-00011100761ADDMA1999999096051MD1210091+9999OA149900361REMSYN076AAXX  14174 06633 33/// /0403 10016 21001 39605 40076 52009 333 91107 91203;
0274066330999992010011418004+47383+008083FM-12+038799999V0200501N001510033019N0030001N1+00151-00031100821ADDAJ100049199999999AL19900091AY121061AY221061GA1081+003301071GF108991999999004501999999IA1309KA1120M+00211MA1999999096101MD1310131+9999MW1101OA149900461REMSYN112AAXX  14184 06633 31430 80503 10015 21003 39610 40082 53013 71022 333 10021 42004 88711 90766 93100 91109 91204;
0128066330999992010011419004+47383+008083FM-12+038799999V0200501N001019999999N9999999N1+00161-00041100931ADDMA1999999096211MD1310221+9999OA149900361REMSYN076AAXX  14194 06633 33/// /0502 10016 21004 39621 40093 53022 333 91107 91203;
0128066330999992010011420004+47383+008083FM-12+038799999V0200501N001519999999N9999999N1+00161-00051101001ADDMA1999999096281MD1210231+9999OA149900361REMSYN076AAXX  14204 06633 33/// /0503 10016 21005 39628 40100 52023 333 91107 91203;
0204066330999992010011421004+47383+008083FM-12+038799999V0200601N001010027019N0080001N1+00141-00051101101ADDAY121031AY221031GA1081+002701071GF108991999999002501999999MA1999999096371MD1210271+9999MW1101OA149900361REMSYN088AAXX  14214 06633 31358 80602 10014 21005 39637 40110 52027 71022 333 88709 91107 91203;
0128066330999992010011422004+47383+008083FM-12+038799999V0201201N000519999999N9999999N1+00101-00071101211ADDMA1999999096471MD1310261+9999OA149900311REMSYN076AAXX  14224 06633 33/// /1201 10010 21007 39647 40121 53026 333 91106 91203;
0128066330999992010011423004+47383+008083FM-12+038799999V0200801N001519999999N9999999N1+00111-00091101301ADDMA1999999096551MD1210271+9999OA149900311REMSYN076AAXX  14234 06633 33/// /0803 10011 21009 39655 40130 52027 333 91106 91203;
0204066330999992010011500004+47383+008083FM-12+038799999V0201001N001010027019N0030001N1+00081-00091101341ADDAY121061AY221061GA1081+002701071GF108991999999002501999999MA1999999096591MD1110221+9999MW1101OA149900461REMSYN088AAXX  15004 06633 31330 81002 10008 21009 39659 40134 51022 71022 333 88709 91109 91204;
0128066330999992010011501004+47383+008083FM-12+038799999V0201001N000519999999N9999999N1+00111-00101101421ADDMA1999999096671MD1310201+9999OA149900311REMSYN076AAXX  15014 06633 33/// /1001 10011 21010 39667 40142 53020 333 91106 91203;
0128066330999992010011502004+47383+008083FM-12+038799999V0201701N001019999999N9999999N1+00101-00101101511ADDMA1999999096751MD1310201+9999OA149900211REMSYN076AAXX  15024 06633 33/// /1702 10010 21010 39675 40151 53020 333 91104 91203;
0167066330999992010011503004+47383+008083FM-12+038799999V0201001N000510018019N0025001N1+00071-00071101591ADDAY121031AY221031GA1081+001801071GF108991999999001501999999MA1999999096821MW1101REMSYN076AAXX  15034 06633 31225 81001 10007 21007 39682 40159 5//// 71022 333 88706;
0128066330999992010011504004+47383+008083FM-12+038799999V0201001N001019999999N9999999N1+00081-00101101681ADDMA1999999096911MD1210241+9999OA149900151REMSYN076AAXX  15044 06633 33/// /1002 10008 21010 39691 40168 52024 333 91103 91202;
0128066330999992010011505004+47383+008083FM-12+038799999V0200901N000519999999N9999999N1+00061-00071101771ADDMA1999999096991MD1110241+9999OA149900151REMSYN076AAXX  15054 06633 33/// /0901 10006 21007 39699 40177 51024 333 91103 91202;
0342066330999992010011506004+47383+008083FM-12+038799999V0200701N000510018019N0024001N1+00061-00071101881ADDAA124000091AJ100049199999999AL19900091AY121061AY221061GA1081+001801071GF108991999999001501999999GJ100009IA1279IA2999+00009KA1999N+00041MA1999999097101MD1310281+9999MW1101OA149900361REMSYN130AAXX  15064 06633 31224 80701 10006 21007 39710 40188 53028 71022 333 20004 3/000 43004 55000 70000 88706 90768 93100 91107 91203;EQDQ01  00002PRCP24
0128066330999992010011507004+47383+008083FM-12+038799999V0201001N001019999999N9999999N1+00081-00081101971ADDMA1999999097191MD1210281+9999OA149900211REMSYN076AAXX  15074 06633 33/// /1002 10008 21008 39719 40197 52028 333 91104 91202;
0128066330999992010011508004+47383+008083FM-12+038799999V0209999C000019999999N9999999N1+00091-00081102071ADDMA1999999097281MD1219999+9999OA149900211REMSYN076AAXX  15084 06633 33/// /0000 10009 21008 39728 40207 52/// 333 91104 91202;
0204066330999992010011509004+47383+008083FM-12+038799999V0200801N000510042019N0043001N1+00121-00081102151ADDAY121031AY221031GA1081+004201071GF108991999999004501999999MA1999999097361MD1210261+9999MW1101OA149900211REMSYN088AAXX  15094 06633 31443 80801 10012 21008 39736 40215 52026 71022 333 88714 91104 91202;
0128066330999992010011510004+47383+008083FM-12+038799999V0209999C000019999999N9999999N1+00161-00091102211ADDMA1999999097431MD1110241+9999OA149900051REMSYN076AAXX  15104 06633 33/// /0000 10016 21009 39743 40221 51024 333 91101 91201;
0128066330999992010011511004+47383+008083FM-12+038799999V0202201N001019999999N9999999N1+00241-00101102231ADDMA1999999097461MD1110181+9999OA149900261REMSYN076AAXX  15114 06633 33/// /2202 10024 21010 39746 40223 51018 333 91105 91203;
0128066330999992010011512004+47383+008083FM-12+038799999V0202601N001519999999N9999999N1+00211-00091102281ADDMA1999999097501MD1210141+9999OA149900311REMSYN076AAXX  15124 06633 33/// /2603 10021 21009 39750 40228 52014 333 91106 91203;
0128066330999992010011513004+47383+008083FM-12+038799999V0202401N001519999999N9999999N1+00231-00091102321ADDMA1999999097551MD1210121+9999OA149900311REMSYN076AAXX  15134 06633 33/// /2403 10023 21009 39755 40232 52012 333 91106 91203;
0128066330999992010011514004+47383+008083FM-12+038799999V0202001N001019999999N9999999N1+00241-00071102361ADDMA1999999097591MD1310131+9999OA149900211REMSYN076AAXX  15144 06633 33/// /2002 10024 21007 39759 40236 53013 333 91104 91203;
0204066330999992010011515004+47383+008083FM-12+038799999V0209999C000010012019N0025001N1+00241-00071102451ADDAY121031AY221031GA1081+001201071GF108991999999001501999999MA1999999097671MD1310171+9999MW1101OA149900311REMSYN088AAXX  15154 06633 31225 80000 10024 21007 39767 40245 53017 71022 333 88704 91106 91203;
0128066330999992010011516004+47383+008083FM-12+038799999V0202701N000519999999N9999999N1+00211-00021102511ADDMA1999999097721MD1210171+9999OA149900151REMSYN076AAXX  15164 06633 33/// /2701 10021 21002 39772 40251 52017 333 91103 91202;
0128066330999992010011517004+47383+008083FM-12+038799999V0200501N000519999999N9999999N1+00201-00041102561ADDMA1999999097771MD1210181+9999OA149900101REMSYN076AAXX  15174 06633 33/// /0501 10020 21004 39777 40256 52018 333 91102 91201;
0274066330999992010011518004+47383+008083FM-12+038799999V0200501N000510012019N0020001N1+00161-00051102611ADDAJ100029199999999AL19900091AY121061AY221061GA1081+001201071GF108991999999001501999999IA1309KA1120M+00251MA1999999097811MD1110141+9999MW1101OA149900311REMSYN112AAXX  15184 06633 31220 80501 10016 21005 39781 40261 51014 71022 333 10025 42002 88704 90766 93100 91106 91203;
0128066330999992010011519004+47383+008083FM-12+038799999V0201001N000519999999N9999999N1+00121-00061102641ADDMA1999999097831MD1110111+9999OA149900151REMSYN076AAXX  15194 06633 33/// /1001 10012 21006 39783 40264 51011 333 91103 91201;
0128066330999992010011520004+47383+008083FM-12+038799999V0200701N001019999999N9999999N1+00111-00091102641ADDMA1999999097831MD1210061+9999OA149900261REMSYN076AAXX  15204 06633 33/// /0702 10011 21009 39783 40264 52006 333 91105 91202;
0204066330999992010011521004+47383+008083FM-12+038799999V0201001N000510018019N0030001N1+00091-00091102641ADDAY121031AY221031GA1081+001801071GF108991999999001501999999MA1999999097831MD1010021+9999MW1101OA149900261REMSYN088AAXX  15214 06633 31230 81001 10009 21009 39783 40264 50002 71022 333 88706 91105 91202;
0128066330999992010011522004+47383+008083FM-12+038799999V0200501N000519999999N9999999N1+00091-00111102641ADDMA1999999097831MD1010001+9999OA149900261REMSYN076AAXX  15224 06633 33/// /0501 10009 21011 39783 40264 50000 333 91105 91202;
0128066330999992010011523004+47383+008083FM-12+038799999V0200801N000519999999N9999999N1+00081-00101102671ADDMA1999999097851MD1310021+9999OA149900261REMSYN076AAXX  15234 06633 33/// /0801 10008 21010 39785 40267 53002 333 91105 91202;
0204066330999992010011600004+47383+008083FM-12+038799999V0200801N001010012019N0025001N1+00101-00121102621ADDAY121061AY221061GA1081+001201071GF108991999999001501999999MA1999999097811MD1810021+9999MW1101OA149900261REMSYN088AAXX  16004 06633 31225 80802 10010 21012 39781 40262 58002 71022 333 88704 91105 91203;
0128066330999992010011601004+47383+008083FM-12+038799999V0201201N001519999999N9999999N1+00091-00161102611ADDMA1999999097801MD1710031+9999OA149900211REMSYN076AAXX  16014 06633 33/// /1203 10009 21016 39780 40261 57003 333 91104 91203;
0128066330999992010011602004+47383+008083FM-12+038799999V0200901N000519999999N9999999N1+00061-00131102601ADDMA1999999097781MD1710071+9999OA149900261REMSYN076AAXX  16024 06633 33/// /0901 10006 21013 39778 40260 57007 333 91105 91203;
0204066330999992010011603004+47383+008083FM-12+038799999V0201101N000510012019N0025001N1+00061-00161102551ADDAY121031AY221031GA1081+001201071GF108991999999001501999999MA1999999097741MD1819999+9999MW1101OA149900261REMSYN088AAXX  16034 06633 31225 81101 10006 21016 39774 40255 58/// 71022 333 88704 91105 91203;
0128066330999992010011604004+47383+008083FM-12+038799999V0200501N000519999999N9999999N1+00041-00171102561ADDMA1999999097741MD1710061+9999OA149900261REMSYN076AAXX  16044 06633 33/// /0501 10004 21017 39774 40256 57006 333 91105 91202;
0128066330999992010011605004+47383+008083FM-12+038799999V0202101N000519999999N9999999N1+00021-00181102481ADDMA1999999097661MD1710121+9999OA149900311REMSYN076AAXX  16054 06633 33/// /2101 10002 21018 39766 40248 57012 333 91106 91203;
0342066330999992010011606004+47383+008083FM-12+038799999V0201201N001510012019N0020001N1+00031-00201102431ADDAA124000091AJ100019199999999AL19900091AY121061AY221061GA1081+001201071GF108991999999001501999999GJ100009IA1309IA2999+00009KA1999N+00021MA1999999097621MD1710121+9999MW1101OA149900311REMSYN130AAXX  16064 06633 31220 81203 10003 21020 39762 40243 57012 71022 333 20002 3/000 42001 55000 70000 88704 90768 93100 91106 91203;EQDQ01  00002PRCP24
0128066330999992010011607004+47383+008083FM-12+038799999V0201701N001019999999N9999999N1+00011-00231102401ADDMA1999999097581MD1710161+9999OA149900261REMSYN076AAXX  16074 06633 33/// /1702 10001 21023 39758 40240 57016 333 91105 91203;
0128066330999992010011608004+47383+008083FM-12+038799999V0201301N001019999999N9999999N1-00011-00261102351ADDMA1999999097531MD1710131+9999OA149900311REMSYN076AAXX  16084 06633 33/// /1302 11001 21026 39753 40235 57013 333 91106 91203;
0204066330999992010011609004+47383+008083FM-12+038799999V0202101N000510012019N0025001N1-00031-00271102321ADDAY121031AY221031GA1081+001201071GF108991999999001501999999MA1999999097501MD1710121+9999MW1101OA149900361REMSYN088AAXX  16094 06633 31225 82101 11003 21027 39750 40232 57012 71022 333 88704 91107 91203;
0128066330999992010011610004+47383+008083FM-12+038799999V0202101N001519999999N9999999N1-00061-00281102311ADDMA1999999097491MD1710091+9999OA149900361REMSYN076AAXX  16104 06633 33/// /2103 11006 21028 39749 40231 57009 333 91107 91203;
0128066330999992010011611004+47383+008083FM-12+038799999V0202101N002119999999N9999999N1-00091-00321102261ADDMA1999999097431MD1810101+9999OA149900411REMSYN076AAXX  16114 06633 33/// /2104 11009 21032 39743 40226 58010 333 91108 91205;
0204066330999992010011612004+47383+008083FM-12+038799999V0202001N001510012019N0025001N1-00041-00271102211ADDAY121061AY221061GA1081+001201071GF108991999999001501999999MA1999999097391MD1710111+9999MW1101OA149900411REMSYN088AAXX  16124 06633 31225 82003 11004 21027 39739 40221 57011 71022 333 88704 91108 91205;
0128066330999992010011613004+47383+008083FM-12+038799999V0201901N002119999999N9999999N1+00031-00241102141ADDMA1999999097341MD1710151+9999OA149900411REMSYN076AAXX  16134 06633 33/// /1904 10003 21024 39734 40214 57015 333 91108 91205;
0128066330999992010011614004+47383+008083FM-12+038799999V0201701N001519999999N9999999N1+00051-00251102031ADDMA1999999097241MD1819999+9999OA149900361REMSYN076AAXX  16144 06633 33/// /1703 10005 21025 39724 40203 58/// 333 91107 91204;
0204066330999992010011615004+47383+008083FM-12+038799999V0202301N001010024019N0030001N1+00041-00291102021ADDAY121031AY221031GA1081+002401071GF108991999999002501999999MA1999999097231MD1710161+9999MW1101OA149900411REMSYN088AAXX  16154 06633 31330 82302 10004 21029 39723 40202 57016 71022 333 88708 91108 91205;
0128066330999992010011616004+47383+008083FM-12+038799999V0202101N001519999999N9999999N1+00031-00311101991ADDMA1999999097201MD1710141+9999OA149900311REMSYN076AAXX  16164 06633 33/// /2103 10003 21031 39720 40199 57014 333 91106 91204;
0128066330999992010011617004+47383+008083FM-12+038799999V0202301N001019999999N9999999N1-00011-00301101991ADDMA1999999097191MD1710051+9999OA149900311REMSYN076AAXX  16174 06633 33/// /2302 11001 21030 39719 40199 57005 333 91106 91203;
0293066330999992010011618004+47383+008083FM-12+038799999V0202001N002110024019N0030001N1+00041-00281101971ADDAJ199992999999999AL19900091AY121061AY221061GA1081+002401071GF108991999999002501999999IA1309KA1120M+00051MA1999999097181MD1710051+9999MW1101OA149900411REMSYN112AAXX  16184 06633 31330 82004 10004 21028 39718 40197 57005 71022 333 10005 42998 88708 90766 93100 91108 91205;EQDQ01  09982SNDP  
0128066330999992010011619004+47383+008083FM-12+038799999V0202801N001519999999N9999999N1+00091-00241101891ADDMA1999999097111MD1810091+9999OA149900411REMSYN076AAXX  16194 06633 33/// /2803 10009 21024 39711 40189 58009 333 91108 91205;
