0162066303999992011010100204+46917+007483AUTO +0510LSZB V0203101N002112200019N0009001N1+00001+00001999999ADDAW1101ED114U09009GA1041+000301999GF104991999999999999999999MA1102101999999REMMET076METAR LSZB 010020Z AUTO 31004KT 0900 R14/0900VP2000U BR SCT001 00/M00 Q1021;
0161066303999992011010100504+46917+007483AUTO +0510LSZB V0203101N002110006019N0008001N1+00001+00001999999ADDAW1301ED114U12009GA1091+000601999GF109991999999000251999999MA1102101999999REMMET075METAR LSZB 010050Z AUTO 31004KT 0800 R14/1200V1900U FG VV002 M00/M00 Q1021;
0162066303999992011010101204+46917+007483AUTO +0510LSZB V0203001N001010006019N0009001N1+00001+00001999999ADDAW1301ED114U09009GA1091+000601999GF109991999999000251999999MA1102101999999REMMET076METAR LSZB 010120Z AUTO 30002KT 0900 R14/0900VP2000D FG VV002 M00/M00 Q1021;
0162066303999992011010101504+46917+007483AUTO +0510LSZB V0200601N000512200019N0005501N1+00001+00001999999ADDAW1301ED114U07009GA1021+000601999GF102991999999999999999999MA1102101999999REMMET076METAR LSZB 010150Z AUTO 06001KT 0550 R14/0700V1300D FG FEW002 M00/M00 Q1021;
0136066303999992011010102204+46917+007483AUTO +0510LSZB V0201501N002110009019N0050001N1+00001-00101999999ADDAW1101GA1071+000901999GF107991999999999999999999MA1102101999999REMMET061METAR LSZB 010220Z AUTO 15004KT 5000 BR BKN003 M00/M01 Q1021;
0136066303999992011010102504+46917+007483AUTO +0510LSZB V0201401N002112200019N0050001N1+00001-00101999999ADDAW1101GA1041+000901999GF104991999999999999999999MA1102101999999REMMET061METAR LSZB 010250Z AUTO 14004KT 5000 BR SCT003 M00/M01 Q1021;
0152066303999992011010103204+46917+007483AUTO +0510LSZB V0201301N00311000901CN0026001N1+00001-00101999999ADDAW1101GA1071+000901999GA2041+004201999MA1102001999999REMMET068METAR LSZB 010320Z AUTO 13006KT 2600 BR BKN003 SCT014 M00/M01 Q1020;EQDQ01+000042SCOTCV
0167066303999992011010103504+46917+007483AUTO +0510LSZB V0201201N002610048019N0050001N1+00001-00101999999ADDAW1101GA1041+001201999GA2081+004801999GF108991999999999999999999MA1102001999999REMMET076METAR LSZB 010350Z AUTO 12005KT 090V150 5000 BR SCT004 OVC016 M00/M01 Q1020;
0159066303999992011010104204+46917+007483AUTO +0510LSZB V0201101N003110051019N0070001N1+00001-00101999999ADDAW1101GA1041+001801999GA2081+005101999GF108991999999999999999999MA1102001999999REMMET068METAR LSZB 010420Z AUTO 11006KT 7000 BR SCT006 OVC017 M00/M01 Q1020;
0150066303999992011010104504+46917+007483AUTO +0510LSZB V0201201N003610048019N0112651N1+00001-00101999999ADDGA1021+002101999GA2081+004801999GF108991999999999999999999MA1102001999999REMMET065METAR LSZB 010450Z AUTO 12007KT 9999 FEW007 OVC016 M00/M01 Q1020;
0158066303999992011010105204+46917+007483AUTO +0510LSZB V0201101N003610054019N0112651N1+00001-00101999999ADDGA1021+002101999GA2081+005401999GF108991999999999999999999MA1102101999999REMMET073METAR LSZB 010520Z AUTO 11007KT 090V150 9999 FEW007 OVC018 M00/M01 Q1021;
0150066303999992011010105504+46917+007483AUTO +0510LSZB V0201201N003110048019N0112651N1+00001-00101999999ADDGA1041+001801999GA2081+004801999GF108991999999999999999999MA1102101999999REMMET065METAR LSZB 010550Z AUTO 12006KT 9999 SCT006 OVC016 M00/M01 Q1021;
0151066303999992011010106204+46917+007483FM-15+0510LSZB V0201101N003610051019N0090001N1+00001-00101999999ADDGA1021+002101999GA2081+005101999GF108991999999999999999999MA1102101999999REMMET066METAR LSZB 010620Z 11007KT 9000 FEW007 OVC017 M00/M01 Q1021 NOSIG;
0159066303999992011010106504+46917+007483FM-15+0510LSZB V0201101N003610051019N0090001N1+00001-00101999999ADDGA1021+002101999GA2081+005101999GF108991999999999999999999MA1102101999999REMMET074METAR LSZB 010650Z 11007KT 090V160 9000 FEW007 OVC017 M00/M01 Q1021 NOSIG;
0151066303999992011010107204+46917+007483FM-15+0510LSZB V0201101N003110051019N0090001N1+00001-00101999999ADDGA1021+002101999GA2081+005101999GF108991999999999999999999MA1102101999999REMMET066METAR LSZB 010720Z 11006KT 9000 FEW007 OVC017 M00/M01 Q1021 NOSIG;
0151066303999992011010107504+46917+007483FM-15+0510LSZB V0201101N003610054019N0090001N1+00001-00101999999ADDGA1021+002101999GA2081+005401999GF108991999999999999999999MA1102101999999REMMET066METAR LSZB 010750Z 11007KT 9000 FEW007 OVC018 M00/M01 Q1021 NOSIG;
0151066303999992011010108204+46917+007483FM-15+0510LSZB V0201201N002110054019N0090001N1+00001-00201999999ADDGA1021+001801999GA2081+005401999GF108991999999999999999999MA1102101999999REMMET066METAR LSZB 010820Z 12004KT 9000 FEW006 OVC018 M00/M02 Q1021 NOSIG;
0151066303999992011010108504+46917+007483FM-15+0510LSZB V0201201N004110054019N0090001N1+00001-00201999999ADDGA1021+001801999GA2081+005401999GF108991999999999999999999MA1102101999999REMMET066METAR LSZB 010850Z 12008KT 9000 FEW006 OVC018 M00/M02 Q1021 NOSIG;
0150066303999992011010109204+46917+007483FM-15+0510LSZB V0201001N003610051019N0090001N1+00001-00201999999ADDGA1021+001801999GA2081+005101999GF108991999999999999999999MA1102101999999REMMET065METAR LSZB 010920Z 10007KT 9000 FEW006 OVC017 00/M02 Q1021 NOSIG;
0150066303999992011010109504+46917+007483FM-15+0510LSZB V0201701N003610051019N0090001N1+00001-00201999999ADDGA1021+002401999GA2081+005101999GF108991999999999999999999MA1102101999999REMMET065METAR LSZB 010950Z 17007KT 9000 FEW008 OVC017 00/M02 Q1021 NOSIG;
0150066303999992011010110204+46917+007483FM-15+0510LSZB V0201301N004110048019N0112651N1+00001-00201999999ADDGA1021+002401999GA2081+004801999GF108991999999999999999999MA1102101999999REMMET065METAR LSZB 011020Z 13008KT 9999 FEW008 OVC016 00/M02 Q1021 NOSIG;
0150066303999992011010110504+46917+007483FM-15+0510LSZB V0201301N002610045019N0112651N1+00101-00201999999ADDGA1021+002401999GA2081+004501999GF108991999999999999999999MA1102101999999REMMET065METAR LSZB 011050Z 13005KT 9999 FEW008 OVC015 01/M02 Q1021 NOSIG;
0150066303999992011010111204+46917+007483FM-15+0510LSZB V0201301N003110045019N0112651N1+00101-00201999999ADDGA1021+002701999GA2081+004501999GF108991999999999999999999MA1102001999999REMMET065METAR LSZB 011120Z 13006KT 9999 FEW009 OVC015 01/M02 Q1020 NOSIG;
0150066303999992011010111504+46917+007483FM-15+0510LSZB V0201201N002610045019N0112651N1+00101-00201999999ADDGA1021+002701999GA2081+004501999GF108991999999999999999999MA1102001999999REMMET065METAR LSZB 011150Z 12005KT 9999 FEW009 OVC015 01/M02 Q1020 NOSIG;
0150066303999992011010112204+46917+007483FM-15+0510LSZB V0201301N002110045019N0112651N1+00201-00201999999ADDGA1021+002701999GA2081+004501999GF108991999999999999999999MA1102001999999REMMET065METAR LSZB 011220Z 13004KT 9999 FEW009 OVC015 02/M02 Q1020 NOSIG;
0150066303999992011010112504+46917+007483FM-15+0510LSZB V0209999V001010045019N0112651N1+00201-00201999999ADDGA1021+002701999GA2081+004501999GF108991999999999999999999MA1101901999999REMMET065METAR LSZB 011250Z VRB02KT 9999 FEW009 OVC015 02/M02 Q1019 NOSIG;
0150066303999992011010113204+46917+007483FM-15+0510LSZB V0209999V001010045019N0112651N1+00201-00101999999ADDGA1021+002701999GA2081+004501999GF108991999999999999999999MA1101901999999REMMET065METAR LSZB 011320Z VRB02KT 9999 FEW009 OVC015 02/M01 Q1019 NOSIG;
0150066303999992011010113504+46917+007483FM-15+0510LSZB V0209999V001010045019N0112651N1+00201-00101999999ADDGA1021+002701999GA2071+004501999GF107991999999999999999999MA1101901999999REMMET065METAR LSZB 011350Z VRB02KT 9999 FEW009 BKN015 02/M01 Q1019 NOSIG;
0150066303999992011010114204+46917+007483FM-15+0510LSZB V0209999V001010045019N0112651N1+00101-00101999999ADDGA1021+002701999GA2071+004501999GF107991999999999999999999MA1101901999999REMMET065METAR LSZB 011420Z VRB02KT 9999 FEW009 BKN015 01/M01 Q1019 NOSIG;
0150066303999992011010114504+46917+007483FM-15+0510LSZB V0209999V001010045019N0112651N1+00101-00101999999ADDGA1021+002701999GA2071+004501999GF107991999999999999999999MA1101901999999REMMET065METAR LSZB 011450Z VRB02KT 9999 FEW009 BKN015 01/M01 Q1019 NOSIG;
0150066303999992011010115204+46917+007483FM-15+0510LSZB V0209999V001010045019N0112651N1+00101-00101999999ADDGA1021+002701999GA2071+004501999GF107991999999999999999999MA1101901999999REMMET065METAR LSZB 011520Z VRB02KT 9999 FEW009 BKN015 01/M01 Q1019 NOSIG;
0150066303999992011010115504+46917+007483FM-15+0510LSZB V0209999V000510033019N0112651N1+00101-00101999999ADDGA1021+002401999GA2071+003301999GF107991999999999999999999MA1101901999999REMMET065METAR LSZB 011550Z VRB01KT 9999 FEW008 BKN011 01/M01 Q1019 NOSIG;
0150066303999992011010116204+46917+007483FM-15+0510LSZB V0209999V001010033019N0112651N1+00101-00101999999ADDGA1021+002401999GA2071+003301999GF107991999999999999999999MA1101901999999REMMET065METAR LSZB 011620Z VRB02KT 9999 FEW008 BKN011 01/M01 Q1019 NOSIG;
0150066303999992011010116504+46917+007483FM-15+0510LSZB V0209999V001010036019N0112651N1+00101-00101999999ADDGA1021+002401999GA2071+003601999GF107991999999999999999999MA1101901999999REMMET065METAR LSZB 011650Z VRB02KT 9999 FEW008 BKN012 01/M01 Q1019 NOSIG;
0150066303999992011010117204+46917+007483FM-15+0510LSZB V0209999V001010036019N0112651N1+00101-00101999999ADDGA1021+002401999GA2071+003601999GF107991999999999999999999MA1101901999999REMMET065METAR LSZB 011720Z VRB02KT 9999 FEW008 BKN012 01/M01 Q1019 NOSIG;
0150066303999992011010117504+46917+007483FM-15+0510LSZB V0200901N002110036019N0112651N1+00001-00101999999ADDGA1021+002401999GA2071+003601999GF107991999999999999999999MA1101901999999REMMET065METAR LSZB 011750Z 09004KT 9999 FEW008 BKN012 00/M01 Q1019 NOSIG;
0126066303999992011010118204+46917+007483AUTO +0510LSZB V0200901N002610030019N0112651N1+00001-00201999999ADDGA1081+003001999GF108991999999999999999999MA1101901999999REMMET057METAR LSZB 011820Z AUTO 09005KT 9999 OVC010 00/M02 Q1019;
0135066303999992011010118504+46917+007483AUTO +0510LSZB V0201201N002110030019N0112651N1+00001-00201999999ADDGA1081+003001999GF108991999999999999999999MA1101901999999REMMET066METAR LSZB 011850Z AUTO 12004KT 090V170 9999 OVC010 M00/M02 Q1019;
0135066303999992011010119204+46917+007483AUTO +0510LSZB V0201401N002610027019N0112651N1+00001-00201999999ADDGA1081+002701999GF108991999999999999999999MA1101901999999REMMET066METAR LSZB 011920Z AUTO 14005KT 080V160 9999 OVC009 M00/M02 Q1019;
0135066303999992011010119504+46917+007483AUTO +0510LSZB V0201001N001510027019N0112651N1+00001-00201999999ADDGA1081+002701999GF108991999999999999999999MA1101901999999REMMET066METAR LSZB 011950Z AUTO 10003KT 070V140 9999 OVC009 M00/M02 Q1019;
0127066303999992011010120204+46917+007483AUTO +0510LSZB V0200801N001510030019N0112651N1+00001-00201999999ADDGA1071+003001999GF107991999999999999999999MA1101901999999REMMET058METAR LSZB 012020Z AUTO 08003KT 9999 BKN010 M00/M02 Q1019;
0127066303999992011010120504+46917+007483AUTO +0510LSZB V0200901N001510030019N0112651N1+00001-00201999999ADDGA1071+003001999GF107991999999999999999999MA1101901999999REMMET058METAR LSZB 012050Z AUTO 09003KT 9999 BKN010 M00/M02 Q1019;
0127066303999992011010121204+46917+007483AUTO +0510LSZB V0201401N001510027019N0112651N1+00001-00201999999ADDGA1081+002701999GF108991999999999999999999MA1101901999999REMMET058METAR LSZB 012120Z AUTO 14003KT 9999 OVC009 M00/M02 Q1019;
0127066303999992011010121504+46917+007483AUTO +0510LSZB V0201201N001510027019N0112651N1+00001-00201999999ADDGA1081+002701999GF108991999999999999999999MA1101801999999REMMET058METAR LSZB 012150Z AUTO 12003KT 9999 OVC009 M00/M02 Q1018;
0127066303999992011010122204+46917+007483AUTO +0510LSZB V0209999V000510024019N0112651N1+00001-00201999999ADDGA1081+002401999GF108991999999999999999999MA1101801999999REMMET058METAR LSZB 012220Z AUTO VRB01KT 9999 OVC008 M00/M02 Q1018;
0127066303999992011010122504+46917+007483AUTO +0510LSZB V0201401N001510027019N0112651N1+00001-00201999999ADDGA1071+002701999GF107991999999999999999999MA1101801999999REMMET058METAR LSZB 012250Z AUTO 14003KT 9999 BKN009 M00/M02 Q1018;
0127066303999992011010123204+46917+007483AUTO +0510LSZB V0201501N000510024019N0112651N1+00001-00201999999ADDGA1081+002401999GF108991999999999999999999MA1101801999999REMMET058METAR LSZB 012320Z AUTO 15001KT 9999 OVC008 M00/M02 Q1018;
0127066303999992011010123504+46917+007483AUTO +0510LSZB V0201801N001010027019N0112651N1+00001-00201999999ADDGA1081+002701999GF108991999999999999999999MA1101801999999REMMET058METAR LSZB 012350Z AUTO 18002KT 9999 OVC009 M00/M02 Q1018;
0127066303999992011010200204+46917+007483AUTO +0510LSZB V0201901N000510027019N0112651N1+00001-00201999999ADDGA1081+002701999GF108991999999999999999999MA1101801999999REMMET058METAR LSZB 020020Z AUTO 19001KT 9999 OVC009 M00/M02 Q1018;
0143066303999992011010200504+46917+007483AUTO +0510LSZB V0201401N00051002701CN0112651N1+00001-00201999999ADDGA1071+002701999GA2041+004201999MA1101801999999REMMET065METAR LSZB 020050Z AUTO 14001KT 9999 BKN009 SCT014 M00/M02 Q1018;EQDQ01+000042SCOTCV
0143066303999992011010201204+46917+007483AUTO +0510LSZB V0209999V00051003301CN0112651N1+00001-00201999999ADDGA1071+003301999GA2041+004501999MA1101691999999REMMET065METAR LSZB 020120Z AUTO VRB01KT 9999 BKN011 SCT015 M00/M02 Q1017;EQDQ01+000042SCOTCV
0143066303999992011010201504+46917+007483AUTO +0510LSZB V0209999V00051003001CN0112651N1+00001-00201999999ADDGA1071+003001999GA2041+004501999MA1101801999999REMMET065METAR LSZB 020150Z AUTO VRB01KT 9999 BKN010 SCT015 M00/M02 Q1018;EQDQ01+000042SCOTCV
0143066303999992011010202204+46917+007483AUTO +0510LSZB V0209999V00051002401CN0090001N1+00001-00201999999ADDGA1071+002401999GA2041+003901999MA1101801999999REMMET065METAR LSZB 020220Z AUTO VRB01KT 9000 BKN008 SCT013 M00/M02 Q1018;EQDQ01+000042SCOTCV
0144066303999992011010202504+46917+007483AUTO +0510LSZB V0203601N001510024019N0090001N1+00001-00101999999ADDAW1101GA1081+002401999GF108991999999999999999999MA1101801999999REMMET069METAR LSZB 020250Z AUTO 36003KT 330V040 9000 BR OVC008 M00/M01 Q1018;
0136066303999992011010203204+46917+007483AUTO +0510LSZB V0209999V001010027019N0112651N1+00001-00101999999ADDAW1101GA1081+002701999GF108991999999999999999999MA1101801999999REMMET061METAR LSZB 020320Z AUTO VRB02KT 9999 BR OVC009 M00/M01 Q1018;
0127066303999992011010203504+46917+007483AUTO +0510LSZB V0209999V001010033019N0112651N1+00001-00201999999ADDGA1081+003301999GF108991999999999999999999MA1101801999999REMMET058METAR LSZB 020350Z AUTO VRB02KT 9999 OVC011 M00/M02 Q1018;
0127066303999992011010204204+46917+007483AUTO +0510LSZB V0209999V001510027019N0112651N1+00001-00201999999ADDGA1081+002701999GF108991999999999999999999MA1101801999999REMMET058METAR LSZB 020420Z AUTO VRB03KT 9999 OVC009 M00/M02 Q1018;
0127066303999992011010204504+46917+007483AUTO +0510LSZB V0209999V001010033019N0112651N1+00001-00201999999ADDGA1081+003301999GF108991999999999999999999MA1101801999999REMMET058METAR LSZB 020450Z AUTO VRB02KT 9999 OVC011 M00/M02 Q1018;
0136066303999992011010205204+46917+007483AUTO +0510LSZB V0209999V001010039019N0060001N1+00001-00201999999ADDAW1101GA1081+003901999GF108991999999999999999999MA1101801999999REMMET061METAR LSZB 020520Z AUTO VRB02KT 6000 BR OVC013 M00/M02 Q1018;
0151066303999992011010205504+46917+007483FM-15+0510LSZB V0201601N001010033019N0050001N1+00001-00101999999ADDGA1021+001801999GA2081+003301999GF108991999999999999999999MA1101801999999REMMET066METAR LSZB 020550Z 16002KT 5000 FEW006 OVC011 M00/M01 Q1018 NOSIG;
0160066303999992011010206204+46917+007483FM-15+0510LSZB V0209999C000010036019N0050001N1-00101-00101999999ADDGA1021+001801999GA2081+003601999GF108991999999999999999999MA1101801999999MW1101REMMET069METAR LSZB 020620Z 00000KT 5000 BR FEW006 OVC012 M01/M01 Q1018 NOSIG;
0151066303999992011010206504+46917+007483FM-15+0510LSZB V0201201N001510039019N0060001N1+00001-00101999999ADDGA1021+001801999GA2081+003901999GF108991999999999999999999MA1101801999999REMMET066METAR LSZB 020650Z 12003KT 6000 FEW006 OVC013 M00/M01 Q1018 NOSIG;
0151066303999992011010207204+46917+007483FM-15+0510LSZB V0209999V001010042019N0060001N1+00001-00201999999ADDGA1021+002101999GA2081+004201999GF108991999999999999999999MA1101801999999REMMET066METAR LSZB 020720Z VRB02KT 6000 FEW007 OVC014 M00/M02 Q1018 NOSIG;
0151066303999992011010207504+46917+007483FM-15+0510LSZB V0209999C000010045019N0060001N1+00001-00201999999ADDGA1021+002101999GA2081+004501999GF108991999999999999999999MA1101801999999REMMET066METAR LSZB 020750Z 00000KT 6000 FEW007 OVC015 M00/M02 Q1018 NOSIG;
0151066303999992011010208204+46917+007483FM-15+0510LSZB V0209999V001010045019N0112651N1+00001-00201999999ADDGA1021+002101999GA2081+004501999GF108991999999999999999999MA1101901999999REMMET066METAR LSZB 020820Z VRB02KT 9999 FEW007 OVC015 M00/M02 Q1019 NOSIG;
0151066303999992011010208504+46917+007483FM-15+0510LSZB V0200801N001010042019N0112651N1+00001-00201999999ADDGA1021+002101999GA2081+004201999GF108991999999999999999999MA1101901999999REMMET066METAR LSZB 020850Z 08002KT 9999 FEW007 OVC014 M00/M02 Q1019 NOSIG;
0150066303999992011010209204+46917+007483FM-15+0510LSZB V0209999V000510039019N0112651N1+00001-00201999999ADDGA1021+002101999GA2081+003901999GF108991999999999999999999MA1101901999999REMMET065METAR LSZB 020920Z VRB01KT 9999 FEW007 OVC013 00/M02 Q1019 NOSIG;
0150066303999992011010209504+46917+007483FM-15+0510LSZB V0209999V001010042019N0112651N1+00101-00201999999ADDGA1021+002701999GA2081+004201999GF108991999999999999999999MA1101901999999REMMET065METAR LSZB 020950Z VRB02KT 9999 FEW009 OVC014 01/M02 Q1019 NOSIG;
0150066303999992011010210204+46917+007483FM-15+0510LSZB V0209999C000010048019N0090001N1+00101-00201999999ADDGA1021+002701999GA2081+004801999GF108991999999999999999999MA1101901999999REMMET065METAR LSZB 021020Z 00000KT 9000 FEW009 OVC016 01/M02 Q1019 NOSIG;
0150066303999992011010210504+46917+007483FM-15+0510LSZB V0209999V001010045019N0112651N1+00101-00201999999ADDGA1021+002701999GA2081+004501999GF108991999999999999999999MA1101901999999REMMET065METAR LSZB 021050Z VRB02KT 9999 FEW009 OVC015 01/M02 Q1019 NOSIG;
0150066303999992011010211204+46917+007483AUTO +0510LSZB V0200601N00261004501CN0112651N1+00101-00201999999ADDGA1071+004501999GA2041+006001999MA1101901999999REMMET072METAR LSZB 021120Z AUTO 06005KT 010V100 9999 BKN015 SCT020 01/M02 Q1019;EQDQ01+000042SCOTCV
0181066303999992011010211504+46917+007483FM-15+0510LSZB V0200501N00311004501CN0112651N1+00101-00201999999ADDGA1021+002701999GA2041+004501999GA3081+007501999GF108991999999999999999999MA1101901999999REMMET080METAR LSZB 021150Z 05006KT 330V100 9999 FEW009 SCT015 OVC025 01/M02 Q1019 NOSIG;
0181066303999992011010212204+46917+007483FM-15+0510LSZB V0200501N003610048019N0112651N1+00101-00201999999ADDGA1021+002701999GA2071+004801999GA3071+007501999GF107991999999999999999999MA1101901999999REMMET080METAR LSZB 021220Z 05007KT 340V100 9999 FEW009 BKN016 BKN025 01/M02 Q1019 NOSIG;
0181066303999992011010212504+46917+007483FM-15+0510LSZB V0200601N003610048019N0112651N1+00101-00201999999ADDGA1021+003601999GA2071+004801999GA3071+007501999GF107991999999999999999999MA1101801999999REMMET080METAR LSZB 021250Z 06007KT 010V090 9999 FEW012 BKN016 BKN025 01/M02 Q1018 NOSIG;
0181066303999992011010213204+46917+007483FM-15+0510LSZB V0200501N003610048019N0112651N1+00101-00201999999ADDGA1021+003601999GA2071+004801999GA3071+013501999GF107991999999999999999999MA1101801999999REMMET080METAR LSZB 021320Z 05007KT 010V110 9999 FEW012 BKN016 BKN045 01/M02 Q1018 NOSIG;
0181066303999992011010213504+46917+007483FM-15+0510LSZB V0200501N004110048019N0112651N1+00101-00201999999ADDGA1021+003601999GA2071+004801999GA3071+013501999GF107991999999999999999999MA1101901999999REMMET080METAR LSZB 021350Z 05008KT 360V090 9999 FEW012 BKN016 BKN045 01/M02 Q1019 NOSIG;
0181066303999992011010214204+46917+007483FM-15+0510LSZB V0200601N003110054019N0112651N1+00101-00201999999ADDGA1021+003601999GA2071+005401999GA3071+015001999GF107991999999999999999999MA1101901999999REMMET080METAR LSZB 021420Z 06006KT 020V080 9999 FEW012 BKN018 BKN050 01/M02 Q1019 NOSIG;
0181066303999992011010214504+46917+007483FM-15+0510LSZB V0200601N00361005401CN0112651N1+00101-00301999999ADDGA1021+003601999GA2041+005401999GA3071+014401999GF107991999999999999999999MA1101901999999REMMET080METAR LSZB 021450Z 06007KT 020V090 9999 FEW012 SCT018 BKN048 01/M03 Q1019 NOSIG;
0181066303999992011010215204+46917+007483FM-15+0510LSZB V0200701N00261005401CN0112651N1+00101-00301999999ADDGA1021+003601999GA2041+005401999GA3071+013801999GF107991999999999999999999MA1101901999999REMMET080METAR LSZB 021520Z 07005KT 360V150 9999 FEW012 SCT018 BKN046 01/M03 Q1019 NOSIG;
0158066303999992011010215504+46917+007483FM-15+0510LSZB V0200901N003110144019N0112651N1+00001-00401999999ADDGA1041+006001999GA2071+014401999GF107991999999999999999999MA1101901999999REMMET073METAR LSZB 021550Z 09006KT 020V160 9999 SCT020 BKN048 00/M04 Q1019 NOSIG;
0158066303999992011010216204+46917+007483FM-15+0510LSZB V0200601N003610141019N0112651N1+00001-00401999999ADDGA1041+006001999GA2071+014101999GF107991999999999999999999MA1102001999999REMMET073METAR LSZB 021620Z 06007KT 340V100 9999 SCT020 BKN047 00/M04 Q1020 NOSIG;
0158066303999992011010216504+46917+007483FM-15+0510LSZB V0200901N004110135019N0112651N1+00001-00401999999ADDGA1041+006001999GA2071+013501999GF107991999999999999999999MA1102001999999REMMET073METAR LSZB 021650Z 09008KT 050V120 9999 SCT020 BKN045 00/M04 Q1020 NOSIG;
0158066303999992011010217204+46917+007483FM-15+0510LSZB V0200901N002610135019N0112651N1+00001-00401999999ADDGA1041+006001999GA2071+013501999GF107991999999999999999999MA1102001999999REMMET073METAR LSZB 021720Z 09005KT 050V140 9999 SCT020 BKN045 00/M04 Q1020 NOSIG;
0158066303999992011010217504+46917+007483FM-15+0510LSZB V0200801N002110150019N0112651N1+00001-00401999999ADDGA1041+006001999GA2071+015001999GF107991999999999999999999MA1102001999999REMMET073METAR LSZB 021750Z 08004KT 010V120 9999 SCT020 BKN050 00/M04 Q1020 NOSIG;
0159066303999992011010218204+46917+007483FM-15+0510LSZB V0200701N003110150019N0112651N1+00001-00401999999ADDGA1041+006001999GA2071+015001999GF107991999999999999999999MA1102001999999REMMET074METAR LSZB 021820Z 07006KT 020V110 9999 SCT020 BKN051 M00/M04 Q1020 NOSIG;
0159066303999992011010218504+46917+007483FM-15+0510LSZB V0200601N003110150019N0112651N1+00001-00401999999ADDGA1041+006001999GA2071+015001999GF107991999999999999999999MA1102001999999REMMET074METAR LSZB 021850Z 06006KT 030V090 9999 SCT020 BKN051 M00/M04 Q1020 NOSIG;
0159066303999992011010219204+46917+007483FM-15+0510LSZB V0200501N003110150019N0112651N1+00001-00501999999ADDGA1021+006001999GA2071+015001999GF107991999999999999999999MA1102001999999REMMET074METAR LSZB 021920Z 05006KT 020V090 9999 FEW020 BKN051 M00/M05 Q1020 NOSIG;
0159066303999992011010219504+46917+007483FM-15+0510LSZB V0200601N003110150019N0112651N1-00101-00401999999ADDGA1021+006001999GA2071+015001999GF107991999999999999999999MA1102001999999REMMET074METAR LSZB 021950Z 06006KT 020V100 9999 FEW020 BKN053 M01/M04 Q1020 NOSIG;
0159066303999992011010220204+46917+007483FM-15+0510LSZB V0200501N003110150019N0112651N1-00101-00501999999ADDGA1021+006001999GA2071+015001999GF107991999999999999999999MA1102001999999REMMET074METAR LSZB 022020Z 05006KT 010V080 9999 FEW020 BKN050 M01/M05 Q1020 NOSIG;
0159066303999992011010220504+46917+007483FM-15+0510LSZB V0200401N003110150019N0112651N1-00101-00501999999ADDGA1021+006001999GA2071+015001999GF107991999999999999999999MA1102101999999REMMET074METAR LSZB 022050Z 04006KT 360V080 9999 FEW020 BKN050 M01/M05 Q1021 NOSIG;
0087066303999992011010221204+46917+007483AUTO +0510LSZB V0200401N003619999999Y0099001N1-00201-00501999999ADDMA1102101999999REMMET060METAR LSZB 022120Z AUTO 04007KT 350V070 CAVOK M02/M05 Q1021;
0079066303999992011010221504+46917+007483AUTO +0510LSZB V0209999V002619999999Y0099001N1-00201-00501999999ADDMA1102101999999REMMET052METAR LSZB 022150Z AUTO VRB05KT CAVOK M02/M05 Q1021;
0087066303999992011010222204+46917+007483AUTO +0510LSZB V0200901N002119999999Y0099001N1-00201-00501999999ADDMA1102101999999REMMET060METAR LSZB 022220Z AUTO 09004KT 040V180 CAVOK M02/M05 Q1021;
0079066303999992011010222504+46917+007483AUTO +0510LSZB V0209999V001519999999Y0099001N1-00301-00601999999ADDMA1102101999999REMMET052METAR LSZB 022250Z AUTO VRB03KT CAVOK M03/M06 Q1021;
0087066303999992011010223204+46917+007483AUTO +0510LSZB V0200601N002119999999Y0099001N1-00201-00501999999ADDMA1102101999999REMMET060METAR LSZB 022320Z AUTO 06004KT 020V120 CAVOK M02/M05 Q1021;
0087066303999992011010223504+46917+007483AUTO +0510LSZB V0200501N003619999999Y0099001N1-00201-00501999999ADDMA1102101999999REMMET060METAR LSZB 022350Z AUTO 05007KT 010V080 CAVOK M02/M05 Q1021;
0079066303999992011010300204+46917+007483AUTO +0510LSZB V0200301N003619999999Y0099001N1-00201-00501999999ADDMA1102101999999REMMET052METAR LSZB 030020Z AUTO 03007KT CAVOK M02/M05 Q1021;
0135066303999992011010300504+46917+007483AUTO +0510LSZB V0200301N002112200019N0112651N1-00201-00501999999ADDGA1021+011401999GF102991999999999999999999MA1102101999999REMMET066METAR LSZB 030050Z AUTO 03004KT 340V090 9999 FEW038 M02/M05 Q1021;
0087066303999992011010301204+46917+007483AUTO +0510LSZB V0200201N003119999999Y0099001N1-00201-00601999999ADDMA1102101999999REMMET060METAR LSZB 030120Z AUTO 02006KT 340V050 CAVOK M02/M06 Q1021;
0135066303999992011010301504+46917+007483AUTO +0510LSZB V0200301N003112200019N0112651N1-00201-00501999999ADDGA1021+011401999GF102991999999999999999999MA1102101999999REMMET066METAR LSZB 030150Z AUTO 03006KT 350V070 9999 FEW038 M02/M05 Q1021;
0135066303999992011010302204+46917+007483AUTO +0510LSZB V0200401N002612200019N0112651N1-00201-00601999999ADDGA1021+010801999GF102991999999999999999999MA1102101999999REMMET066METAR LSZB 030220Z AUTO 04005KT 010V080 9999 FEW036 M02/M06 Q1021;
0087066303999992011010302504+46917+007483AUTO +0510LSZB V0200401N002119999999Y0099001N1-00301-00601999999ADDMA1102101999999REMMET060METAR LSZB 030250Z AUTO 04004KT 360V080 CAVOK M03/M06 Q1021;
0079066303999992011010303204+46917+007483AUTO +0510LSZB V0209999V000519999999Y0099001N1-00401-00601999999ADDMA1102101999999REMMET052METAR LSZB 030320Z AUTO VRB01KT CAVOK M04/M06 Q1021;
0079066303999992011010303504+46917+007483AUTO +0510LSZB V0209999V000519999999Y0099001N1-00401-00701999999ADDMA1102101999999REMMET052METAR LSZB 030350Z AUTO VRB01KT CAVOK M04/M07 Q1021;
0079066303999992011010304204+46917+007483AUTO +0510LSZB V0209999V001019999999Y0099001N1-00501-00701999999ADDMA1102101999999REMMET052METAR LSZB 030420Z AUTO VRB02KT CAVOK M05/M07 Q1021;
0080066303999992011010304504+46917+007483FM-15+0510LSZB V0202801N001519999999Y0099001N1-00401-00701999999ADDMA1102101999999REMMET053METAR LSZB 030450Z 28003KT CAVOK M04/M07 Q1021 NOSIG;
0080066303999992011010305204+46917+007483FM-15+0510LSZB V0203201N002119999999Y0099001N1-00501-00701999999ADDMA1102101999999REMMET053METAR LSZB 030520Z 32004KT CAVOK M05/M07 Q1021 NOSIG;
0080066303999992011010305504+46917+007483FM-15+0510LSZB V0203001N001019999999Y0099001N1-00501-00701999999ADDMA1102101999999REMMET053METAR LSZB 030550Z 30002KT CAVOK M05/M07 Q1021 NOSIG;
0080066303999992011010306204+46917+007483FM-15+0510LSZB V0209999C000019999999Y0099001N1-00601-00701999999ADDMA1102101999999REMMET053METAR LSZB 030620Z 00000KT CAVOK M06/M07 Q1021 NOSIG;
0080066303999992011010306504+46917+007483FM-15+0510LSZB V0209999C000019999999Y0099001N1-00701-00801999999ADDMA1102101999999REMMET053METAR LSZB 030650Z 00000KT CAVOK M07/M08 Q1021 NOSIG;
0080066303999992011010307204+46917+007483FM-15+0510LSZB V0209999C000019999999Y0099001N1-00801-00801999999ADDMA1102101999999REMMET053METAR LSZB 030720Z 00000KT CAVOK M08/M08 Q1021 NOSIG;
0080066303999992011010307504+46917+007483FM-15+0510LSZB V0209999C000019999999Y0099001N1-00801-00801999999ADDMA1102101999999REMMET053METAR LSZB 030750Z 00000KT CAVOK M08/M08 Q1021 NOSIG;
0080066303999992011010308204+46917+007483FM-15+0510LSZB V0209999C000019999999Y0099001N1-00701-00701999999ADDMA1102101999999REMMET053METAR LSZB 030820Z 00000KT CAVOK M07/M07 Q1021 NOSIG;
0080066303999992011010308504+46917+007483FM-15+0510LSZB V0209999C000019999999Y0099001N1-00601-00701999999ADDMA1102101999999REMMET053METAR LSZB 030850Z 00000KT CAVOK M06/M07 Q1021 NOSIG;
0080066303999992011010309204+46917+007483FM-15+0510LSZB V0209999C000019999999Y0099001N1-00501-00601999999ADDMA1102101999999REMMET053METAR LSZB 030920Z 00000KT CAVOK M05/M06 Q1021 NOSIG;
0080066303999992011010309504+46917+007483FM-15+0510LSZB V0209999C000019999999Y0099001N1-00401-00601999999ADDMA1102101999999REMMET053METAR LSZB 030950Z 00000KT CAVOK M04/M06 Q1021 NOSIG;
0080066303999992011010310204+46917+007483FM-15+0510LSZB V0202101N001019999999Y0099001N1-00201-00601999999ADDMA1102101999999REMMET053METAR LSZB 031020Z 21002KT CAVOK M02/M06 Q1021 NOSIG;
0080066303999992011010310504+46917+007483FM-15+0510LSZB V0209999V001019999999Y0099001N1-00101-00501999999ADDMA1102101999999REMMET053METAR LSZB 031050Z VRB02KT CAVOK M01/M05 Q1021 NOSIG;
0080066303999992011010311204+46917+007483FM-15+0510LSZB V0202001N001519999999Y0099001N1-00101-00601999999ADDMA1102101999999REMMET053METAR LSZB 031120Z 20003KT CAVOK M01/M06 Q1021 NOSIG;
0080066303999992011010311504+46917+007483FM-15+0510LSZB V0202101N001019999999Y0099001N1-00101-00501999999ADDMA1102001999999REMMET053METAR LSZB 031150Z 21002KT CAVOK M01/M05 Q1020 NOSIG;
0128066303999992011010312204+46917+007483FM-15+0510LSZB V0202301N001512200019N0112651N1+00001-00601999999ADDGA1021+006001999GF102991999999999999999999MA1102001999999REMMET059METAR LSZB 031220Z 23003KT 9999 FEW020 M00/M06 Q1020 NOSIG;
0128066303999992011010312504+46917+007483FM-15+0510LSZB V0209999V001012200019N0112651N1+00001-00501999999ADDGA1021+006001999GF102991999999999999999999MA1102001999999REMMET059METAR LSZB 031250Z VRB02KT 9999 FEW020 M00/M05 Q1020 NOSIG;
0136066303999992011010313204+46917+007483FM-15+0510LSZB V0203401N002612200019N0112651N1+00001-00601999999ADDGA1021+006001999GF102991999999999999999999MA1102001999999REMMET067METAR LSZB 031320Z 34005KT 310V060 9999 FEW020 M00/M06 Q1020 NOSIG;
0136066303999992011010313504+46917+007483FM-15+0510LSZB V0203601N002612200019N0112651N1+00001-00501999999ADDGA1021+006001999GF102991999999999999999999MA1102001999999REMMET067METAR LSZB 031350Z 36005KT 310V070 9999 FEW020 M00/M05 Q1020 NOSIG;
0128066303999992011010314204+46917+007483FM-15+0510LSZB V0203501N002612200019N0112651N1-00101-00601999999ADDGA1021+006001999GF102991999999999999999999MA1102001999999REMMET059METAR LSZB 031420Z 35005KT 9999 FEW020 M01/M06 Q1020 NOSIG;
0128066303999992011010314504+46917+007483FM-15+0510LSZB V0209999V001512200019N0112651N1-00101-00601999999ADDGA1021+006001999GF102991999999999999999999MA1102001999999REMMET059METAR LSZB 031450Z VRB03KT 9999 FEW020 M01/M06 Q1020 NOSIG;
0080066303999992011010315204+46917+007483FM-15+0510LSZB V0209999V001519999999Y0099001N1-00201-00601999999ADDMA1102001999999REMMET053METAR LSZB 031520Z VRB03KT CAVOK M02/M06 Q1020 NOSIG;
0080066303999992011010315504+46917+007483FM-15+0510LSZB V0203401N002119999999Y0099001N1-00201-00601999999ADDMA1102001999999REMMET053METAR LSZB 031550Z 34004KT CAVOK M02/M06 Q1020 NOSIG;
0080066303999992011010316204+46917+007483FM-15+0510LSZB V0209999V001019999999Y0099001N1-00301-00601999999ADDMA1102001999999REMMET053METAR LSZB 031620Z VRB02KT CAVOK M03/M06 Q1020 NOSIG;
0080066303999992011010316504+46917+007483FM-15+0510LSZB V0200401N001519999999Y0099001N1-00301-00701999999ADDMA1102001999999REMMET053METAR LSZB 031650Z 04003KT CAVOK M03/M07 Q1020 NOSIG;
0080066303999992011010317204+46917+007483FM-15+0510LSZB V0209999V000519999999Y0099001N1-00501-00701999999ADDMA1102001999999REMMET053METAR LSZB 031720Z VRB01KT CAVOK M05/M07 Q1020 NOSIG;
0080066303999992011010317504+46917+007483FM-15+0510LSZB V0209999V000519999999Y0099001N1-00501-00701999999ADDMA1102001999999REMMET053METAR LSZB 031750Z VRB01KT CAVOK M05/M07 Q1020 NOSIG;
0080066303999992011010318204+46917+007483FM-15+0510LSZB V0209999V001019999999Y0099001N1-00601-00801999999ADDMA1102001999999REMMET053METAR LSZB 031820Z VRB02KT CAVOK M06/M08 Q1020 NOSIG;
0080066303999992011010318504+46917+007483FM-15+0510LSZB V0209999V000519999999Y0099001N1-00601-00801999999ADDMA1102001999999REMMET053METAR LSZB 031850Z VRB01KT CAVOK M06/M08 Q1020 NOSIG;
0080066303999992011010319204+46917+007483FM-15+0510LSZB V0209999V000519999999Y0099001N1-00601-00701999999ADDMA1102001999999REMMET053METAR LSZB 031920Z VRB01KT CAVOK M06/M07 Q1020 NOSIG;
0080066303999992011010319504+46917+007483FM-15+0510LSZB V0209999V000519999999Y0099001N1-00701-00801999999ADDMA1102001999999REMMET053METAR LSZB 031950Z VRB01KT CAVOK M07/M08 Q1020 NOSIG;
0080066303999992011010320204+46917+007483FM-15+0510LSZB V0209999V000519999999Y0099001N1-00701-00801999999ADDMA1102001999999REMMET053METAR LSZB 032020Z VRB01KT CAVOK M07/M08 Q1020 NOSIG;
0079066303999992011010320504+46917+007483AUTO +0510LSZB V0209999V000519999999Y0099001N1-00701-00801999999ADDMA1102001999999REMMET052METAR LSZB 032050Z AUTO VRB01KT CAVOK M07/M08 Q1020;
0108066303999992011010321204+46917+007483AUTO +0510LSZB V0209999V000512200019N0070001N1-00701-00901999999ADDGF100991999999999999999999MA1101901999999REMMET055METAR LSZB 032120Z AUTO VRB01KT 7000 NSC M07/M09 Q1019;
0079066303999992011010321504+46917+007483AUTO +0510LSZB V0209999V000519999999Y0099001N1-00701-00901999999ADDMA1102001999999REMMET052METAR LSZB 032150Z AUTO VRB01KT CAVOK M07/M09 Q1020;
0127066303999992011010322204+46917+007483AUTO +0510LSZB V0209999C000012200019N0080001N1-00801-00901999999ADDGA1021+005401999GF102991999999999999999999MA1102001999999REMMET058METAR LSZB 032220Z AUTO 00000KT 8000 FEW018 M08/M09 Q1020;
0150066303999992011010322504+46917+007483AUTO +0510LSZB V0201501N001010072019N0090001N1-00801-00801999999ADDGA1021+005701999GA2081+007201999GF108991999999999999999999MA1102001999999REMMET065METAR LSZB 032250Z AUTO 15002KT 9000 FEW019 OVC024 M08/M08 Q1020;
0150066303999992011010323204+46917+007483AUTO +0510LSZB V0201301N001010084019N0112651N1-00701-00801999999ADDGA1041+006901999GA2071+008401999GF107991999999999999999999MA1102001999999REMMET065METAR LSZB 032320Z AUTO 13002KT 9999 SCT023 BKN028 M07/M08 Q1020;
0127066303999992011010323504+46917+007483AUTO +0510LSZB V0201501N001510069019N0080001N1-00601-00801999999ADDGA1081+006901999GF108991999999999999999999MA1102001999999REMMET058METAR LSZB 032350Z AUTO 15003KT 8000 OVC023 M06/M08 Q1020;
0127066303999992011010400204+46917+007483AUTO +0510LSZB V0209999V001510069019N0112651N1-00601-00701999999ADDGA1081+006901999GF108991999999999999999999MA1101901999999REMMET058METAR LSZB 040020Z AUTO VRB03KT 9999 OVC023 M06/M07 Q1019;
0127066303999992011010400504+46917+007483AUTO +0510LSZB V0201201N002610069019N0112651N1-00501-00701999999ADDGA1081+006901999GF108991999999999999999999MA1101901999999REMMET058METAR LSZB 040050Z AUTO 12005KT 9999 OVC023 M05/M07 Q1019;
0127066303999992011010401204+46917+007483AUTO +0510LSZB V0201001N003110069019N0112651N1-00501-00701999999ADDGA1081+006901999GF108991999999999999999999MA1101901999999REMMET058METAR LSZB 040120Z AUTO 10006KT 9999 OVC023 M05/M07 Q1019;
0127066303999992011010401504+46917+007483AUTO +0510LSZB V0200901N002610066019N0112651N1-00501-00601999999ADDGA1081+006601999GF108991999999999999999999MA1101901999999REMMET058METAR LSZB 040150Z AUTO 09005KT 9999 OVC022 M05/M06 Q1019;
0127066303999992011010402204+46917+007483AUTO +0510LSZB V0200901N002110069019N0112651N1-00501-00601999999ADDGA1081+006901999GF108991999999999999999999MA1101901999999REMMET058METAR LSZB 040220Z AUTO 09004KT 9999 OVC023 M05/M06 Q1019;
0143066303999992011010402504+46917+007483AUTO +0510LSZB V0201301N002110066019N0112651N1-00401-00601999999ADDGA1081+006601999GA2071+012601999MA1101801999999REMMET065METAR LSZB 040250Z AUTO 13004KT 9999 OVC022 BKN042 M04/M06 Q1018;EQDQ01+000072SCOTCV
0127066303999992011010403204+46917+007483AUTO +0510LSZB V0201101N002610066019N0112651N1-00401-00601999999ADDGA1081+006601999GF108991999999999999999999MA1101801999999REMMET058METAR LSZB 040320Z AUTO 11005KT 9999 OVC022 M04/M06 Q1018;
0143066303999992011010403504+46917+007483AUTO +0510LSZB V0201001N00211220001CN0112651N1-00401-00601999999ADDGA1081+006601999GA2041+011401999MA1101801999999REMMET065METAR LSZB 040350Z AUTO 10004KT 9999 OVC022 SCT038 M04/M06 Q1018;EQDQ01+000042SCOTCV
0127066303999992011010404204+46917+007483AUTO +0510LSZB V0201101N002610063019N0112651N1-00401-00601999999ADDGA1081+006301999GF108991999999999999999999MA1101801999999REMMET058METAR LSZB 040420Z AUTO 11005KT 9999 OVC021 M04/M06 Q1018;
0128066303999992011010404504+46917+007483FM-15+0510LSZB V0200901N002110063019N0112651N1-00401-00601999999ADDGA1081+006301999GF108991999999999999999999MA1101801999999REMMET059METAR LSZB 040450Z 09004KT 9999 OVC021 M04/M06 Q1018 NOSIG;
0128066303999992011010405204+46917+007483FM-15+0510LSZB V0201001N002110060019N0112651N1-00401-00601999999ADDGA1081+006001999GF108991999999999999999999MA1101691999999REMMET059METAR LSZB 040520Z 10004KT 9999 OVC020 M04/M06 Q1017 NOSIG;
0128066303999992011010405504+46917+007483FM-15+0510LSZB V0201001N003110069019N0112651N1-00401-00701999999ADDGA1071+006901999GF107991999999999999999999MA1101691999999REMMET059METAR LSZB 040550Z 10006KT 9999 BKN023 M04/M07 Q1017 NOSIG;
0128066303999992011010406204+46917+007483FM-15+0510LSZB V0201001N002610069019N0112651N1-00401-00701999999ADDGA1081+006901999GF108991999999999999999999MA1101691999999REMMET059METAR LSZB 040620Z 10005KT 9999 OVC023 M04/M07 Q1017 NOSIG;
0151066303999992011010406504+46917+007483FM-15+0510LSZB V0201301N002610108019N0112651N1-00501-00701999999ADDGA1021+006901999GA2081+010801999GF108991999999999999999999MA1101691999999REMMET066METAR LSZB 040650Z 13005KT 9999 FEW023 OVC036 M05/M07 Q1017 NOSIG;
0151066303999992011010407204+46917+007483FM-15+0510LSZB V0201201N002610180019N0112651N1-00501-00701999999ADDGA1041+009601999GA2071+018001999GF107991999999999999999999MA1101691999999REMMET066METAR LSZB 040720Z 12005KT 9999 SCT032 BKN060 M05/M07 Q1017 NOSIG;
0151066303999992011010407504+46917+007483FM-15+0510LSZB V0201101N002610420019N0112651N1-00501-00701999999ADDGA1041+009601999GA2071+042001999GF107991999999999999999999MA1101691999999REMMET066METAR LSZB 040750Z 11005KT 9999 SCT032 BKN140 M05/M07 Q1017 NOSIG;
0151066303999992011010408204+46917+007483FM-15+0510LSZB V0201101N002110420019N0112651N1-00501-00701999999ADDGA1041+009001999GA2071+042001999GF107991999999999999999999MA1101691999999REMMET066METAR LSZB 040820Z 11004KT 9999 SCT030 BKN140 M05/M07 Q1017 NOSIG;
0151066303999992011010408504+46917+007483FM-15+0510LSZB V0201301N002110420019N0112651N1-00501-00701999999ADDGA1041+009001999GA2071+042001999GF107991999999999999999999MA1101691999999REMMET066METAR LSZB 040850Z 13004KT 9999 SCT030 BKN140 M05/M07 Q1017 NOSIG;
0151066303999992011010409204+46917+007483FM-15+0510LSZB V0201401N002110420019N0112651N1-00401-00701999999ADDGA1041+009001999GA2071+042001999GF107991999999999999999999MA1101691999999REMMET066METAR LSZB 040920Z 14004KT 9999 SCT030 BKN140 M04/M07 Q1017 NOSIG;
0159066303999992011010409504+46917+007483FM-15+0510LSZB V0201601N001510420019N0112651N1-00401-00601999999ADDGA1041+009001999GA2071+042001999GF107991999999999999999999MA1101691999999REMMET074METAR LSZB 040950Z 16003KT 120V190 9999 SCT030 BKN140 M04/M06 Q1017 NOSIG;
0128066303999992011010410204+46917+007483FM-15+0510LSZB V0201701N002112200019N0112651N1-00301-00701999999ADDGA1041+009001999GF104991999999999999999999MA1101691999999REMMET059METAR LSZB 041020Z 17004KT 9999 SCT030 M03/M07 Q1017 NOSIG;
0128066303999992011010410504+46917+007483FM-15+0510LSZB V0209999V001010090019N0112651N1-00301-00701999999ADDGA1071+009001999GF107991999999999999999999MA1101691999999REMMET059METAR LSZB 041050Z VRB02KT 9999 BKN030 M03/M07 Q1017 NOSIG;
0151066303999992011010411204+46917+007483FM-15+0510LSZB V0209999V001010150019N0112651N1-00301-00701999999ADDGA1041+009001999GA2071+015001999GF107991999999999999999999MA1101691999999REMMET066METAR LSZB 041120Z VRB02KT 9999 SCT030 BKN054 M03/M07 Q1017 NOSIG;
0151066303999992011010411504+46917+007483FM-15+0510LSZB V0209999V001510117019N0112651N1-00201-00601999999ADDGA1041+009901999GA2071+011701999GF107991999999999999999999MA1101591999999REMMET066METAR LSZB 041150Z VRB03KT 9999 SCT033 BKN039 M02/M06 Q1016 NOSIG;
0151066303999992011010412204+46917+007483FM-15+0510LSZB V0209999V001010111019N0112651N1-00201-00601999999ADDGA1041+009901999GA2071+011101999GF107991999999999999999999MA1101591999999REMMET066METAR LSZB 041220Z VRB02KT 9999 SCT033 BKN037 M02/M06 Q1016 NOSIG;
0128066303999992011010412504+46917+007483FM-15+0510LSZB V0209999V001010099019N0112651N1-00201-00601999999ADDGA1071+009901999GF107991999999999999999999MA1101591999999REMMET059METAR LSZB 041250Z VRB02KT 9999 BKN033 M02/M06 Q1016 NOSIG;
0128066303999992011010413504+46917+007483FM-15+0510LSZB V0203401N002110105019N0112651N1-00201-00501999999ADDGA1071+010501999GF107991999999999999999999MA1101491999999REMMET059METAR LSZB 041350Z 34004KT 9999 BKN035 M02/M05 Q1015 NOSIG;
0128066303999992011010414204+46917+007483FM-15+0510LSZB V0203101N002110105019N0112651N1-00201-00501999999ADDGA1071+010501999GF107991999999999999999999MA1101491999999REMMET059METAR LSZB 041420Z 31004KT 9999 BKN035 M02/M05 Q1015 NOSIG;
0128066303999992011010414504+46917+007483FM-15+0510LSZB V0203201N001510117019N0112651N1-00201-00501999999ADDGA1071+011701999GF107991999999999999999999MA1101491999999REMMET059METAR LSZB 041450Z 32003KT 9999 BKN039 M02/M05 Q1015 NOSIG;
0136066303999992011010415204+46917+007483FM-15+0510LSZB V0203401N001510105019N0112651N1-00201-00501999999ADDGA1071+010501999GF107991999999999999999999MA1101491999999REMMET067METAR LSZB 041520Z 34003KT 300V020 9999 BKN035 M02/M05 Q1015 NOSIG;
0151066303999992011010415504+46917+007483FM-15+0510LSZB V0203301N001510102019N0112651N1-00201-00501999999ADDGA1041+007501999GA2071+010201999GF107991999999999999999999MA1101491999999REMMET066METAR LSZB 041550Z 33003KT 9999 SCT025 BKN034 M02/M05 Q1015 NOSIG;
0151066303999992011010416204+46917+007483FM-15+0510LSZB V0203201N001010114019N0112651N1-00201-00501999999ADDGA1041+007801999GA2071+011401999GF107991999999999999999999MA1101491999999REMMET066METAR LSZB 041620Z 32002KT 9999 SCT026 BKN038 M02/M05 Q1015 NOSIG;
0128066303999992011010416504+46917+007483FM-15+0510LSZB V0203001N001010096019N0112651N1-00201-00501999999ADDGA1071+009601999GF107991999999999999999999MA1101491999999REMMET059METAR LSZB 041650Z 30002KT 9999 BKN032 M02/M05 Q1015 NOSIG;
0128066303999992011010417204+46917+007483FM-15+0510LSZB V0200101N000510087019N0112651N1-00201-00501999999ADDGA1071+008701999GF107991999999999999999999MA1101491999999REMMET059METAR LSZB 041720Z 01001KT 9999 BKN029 M02/M05 Q1015 NOSIG;
0138066303999992011010417504+46917+007483FM-15+0510LSZB V0209999C000010069019N0112651N1-00201-00501999999ADDGA1071+006901999GF107991999999999999999999MA1101491999999MW1711REMMET063METAR LSZB 041750Z 00000KT 9999 -SN BKN023 M02/M05 Q1015 NOSIG;
0128066303999992011010418204+46917+007483FM-15+0510LSZB V0202401N000510069019N0112651N1-00201-00501999999ADDGA1071+006901999GF107991999999999999999999MA1101491999999REMMET059METAR LSZB 041820Z 24001KT 9999 BKN023 M02/M05 Q1015 NOSIG;
0128066303999992011010418504+46917+007483FM-15+0510LSZB V0201601N000510069019N0112651N1-00201-00501999999ADDGA1071+006901999GF107991999999999999999999MA1101491999999REMMET059METAR LSZB 041850Z 16001KT 9999 BKN023 M02/M05 Q1015 NOSIG;
0128066303999992011010419204+46917+007483FM-15+0510LSZB V0209999V000510066019N0112651N1-00201-00401999999ADDGA1071+006601999GF107991999999999999999999MA1101491999999REMMET059METAR LSZB 041920Z VRB01KT 9999 BKN022 M02/M04 Q1015 NOSIG;
0128066303999992011010419504+46917+007483FM-15+0510LSZB V0201201N001510066019N0112651N1-00201-00401999999ADDGA1071+006601999GF107991999999999999999999MA1101491999999REMMET059METAR LSZB 041950Z 12003KT 9999 BKN022 M02/M04 Q1015 NOSIG;
0128066303999992011010420204+46917+007483FM-15+0510LSZB V0201301N001010066019N0112651N1-00201-00401999999ADDGA1071+006601999GF107991999999999999999999MA1101491999999REMMET059METAR LSZB 042020Z 13002KT 9999 BKN022 M02/M04 Q1015 NOSIG;
0128066303999992011010420504+46917+007483FM-15+0510LSZB V0201401N001510066019N0112651N1-00201-00401999999ADDGA1071+006601999GF107991999999999999999999MA1101491999999REMMET059METAR LSZB 042050Z 14003KT 9999 BKN022 M02/M04 Q1015 NOSIG;
0127066303999992011010421204+46917+007483AUTO +0510LSZB V0201501N001010054019N0112651N1-00201-00401999999ADDGA1071+005401999GF107991999999999999999999MA1101491999999REMMET058METAR LSZB 042120Z AUTO 15002KT 9999 BKN018 M02/M04 Q1015;
0127066303999992011010421504+46917+007483AUTO +0510LSZB V0201001N001010051019N0112651N1-00201-00401999999ADDGA1081+005101999GF108991999999999999999999MA1101491999999REMMET058METAR LSZB 042150Z AUTO 10002KT 9999 OVC017 M02/M04 Q1015;
0143066303999992011010422204+46917+007483AUTO +0510LSZB V0201401N00211220001CN0112651N1-00201-00401999999ADDGA1081+004801999GA2041+014701999MA1101491999999REMMET065METAR LSZB 042220Z AUTO 14004KT 9999 OVC016 SCT049 M02/M04 Q1015;EQDQ01+000042SCOTCV
0143066303999992011010422504+46917+007483AUTO +0510LSZB V0201201N002110045019N0112651N1-00301-00501999999ADDGA1081+004501999GA2071+014401999MA1101491999999REMMET065METAR LSZB 042250Z AUTO 12004KT 9999 OVC015 BKN048 M03/M05 Q1015;EQDQ01+000072SCOTCV
0150066303999992011010423204+46917+007483AUTO +0510LSZB V0201401N003110144019N0112651N1-00301-00501999999ADDGA1041+004501999GA2081+014401999GF108991999999999999999999MA1101491999999REMMET065METAR LSZB 042320Z AUTO 14006KT 9999 SCT015 OVC048 M03/M05 Q1015;
0127066303999992011010423504+46917+007483AUTO +0510LSZB V0201201N002610144019N0112651N1-00301-00501999999ADDGA1081+014401999GF108991999999999999999999MA1101491999999REMMET058METAR LSZB 042350Z AUTO 12005KT 9999 OVC048 M03/M05 Q1015;
0127066303999992011010500204+46917+007483AUTO +0510LSZB V0201101N003110141019N0112651N1-00301-00501999999ADDGA1071+014101999GF107991999999999999999999MA1101491999999REMMET058METAR LSZB 050020Z AUTO 11006KT 9999 BKN047 M03/M05 Q1015;
0127066303999992011010500504+46917+007483AUTO +0510LSZB V0201301N002610135019N0112651N1-00301-00601999999ADDGA1081+013501999GF108991999999999999999999MA1101391999999REMMET058METAR LSZB 050050Z AUTO 13005KT 9999 OVC045 M03/M06 Q1014;
0127066303999992011010501204+46917+007483AUTO +0510LSZB V0201101N002610132019N0112651N1-00301-00601999999ADDGA1071+013201999GF107991999999999999999999MA1101391999999REMMET058METAR LSZB 050120Z AUTO 11005KT 9999 BKN044 M03/M06 Q1014;
0127066303999992011010501504+46917+007483AUTO +0510LSZB V0201001N002610132019N0112651N1-00301-00601999999ADDGA1081+013201999GF108991999999999999999999MA1101391999999REMMET058METAR LSZB 050150Z AUTO 10005KT 9999 OVC044 M03/M06 Q1014;
0150066303999992011010502204+46917+007483AUTO +0510LSZB V0201001N002610129019N0112651N1-00401-00601999999ADDGA1021+009301999GA2081+012901999GF108991999999999999999999MA1101391999999REMMET065METAR LSZB 050220Z AUTO 10005KT 9999 FEW031 OVC043 M04/M06 Q1014;
0158066303999992011010502504+46917+007483AUTO +0510LSZB V0200901N003110129019N0112651N1-00301-00601999999ADDGA1021+009301999GA2081+012901999GF108991999999999999999999MA1101391999999REMMET073METAR LSZB 050250Z AUTO 09006KT 070V130 9999 FEW031 OVC043 M03/M06 Q1014;
0150066303999992011010503204+46917+007483AUTO +0510LSZB V0201001N003610129019N0112651N1-00401-00601999999ADDGA1021+009001999GA2081+012901999GF108991999999999999999999MA1101391999999REMMET065METAR LSZB 050320Z AUTO 10007KT 9999 FEW030 OVC043 M04/M06 Q1014;
0127066303999992011010503504+46917+007483AUTO +0510LSZB V0201001N003610126019N0112651N1-00401-00601999999ADDGA1081+012601999GF108991999999999999999999MA1101391999999REMMET058METAR LSZB 050350Z AUTO 10007KT 9999 OVC042 M04/M06 Q1014;
0135066303999992011010504204+46917+007483AUTO +0510LSZB V0201101N002610123019N0112651N1-00401-00601999999ADDGA1081+012301999GF108991999999999999999999MA1101391999999REMMET066METAR LSZB 050420Z AUTO 11005KT 080V140 9999 OVC041 M04/M06 Q1014;
0128066303999992011010504504+46917+007483FM-15+0510LSZB V0201101N003110120019N0112651N1-00401-00601999999ADDGA1071+012001999GF107991999999999999999999MA1101391999999REMMET059METAR LSZB 050450Z 11006KT 9999 BKN040 M04/M06 Q1014 NOSIG;
0151066303999992011010505204+46917+007483FM-15+0510LSZB V0200901N003110120019N0112651N1-00401-00701999999ADDGA1021+009001999GA2071+012001999GF107991999999999999999999MA1101391999999REMMET066METAR LSZB 050520Z 09006KT 9999 FEW030 BKN040 M04/M07 Q1014 NOSIG;
0128066303999992011010505504+46917+007483FM-15+0510LSZB V0201001N002610105019N0112651N1-00401-00701999999ADDGA1071+010501999GF107991999999999999999999MA1101391999999REMMET059METAR LSZB 050550Z 10005KT 9999 BKN035 M04/M07 Q1014 NOSIG;
0136066303999992011010506204+46917+007483FM-15+0510LSZB V0201101N002610099019N0112651N1-00401-00701999999ADDGA1071+009901999GF107991999999999999999999MA1101391999999REMMET067METAR LSZB 050620Z 11005KT 080V140 9999 BKN033 M04/M07 Q1014 NOSIG;
0128066303999992011010506504+46917+007483FM-15+0510LSZB V0201801N002112200019N0112651N1-00501-00801999999ADDGA1041+009901999GF104991999999999999999999MA1101391999999REMMET059METAR LSZB 050650Z 18004KT 9999 SCT033 M05/M08 Q1014 NOSIG;
0128066303999992011010507204+46917+007483FM-15+0510LSZB V0201301N001512200019N0112651N1-00601-00701999999ADDGA1021+009901999GF102991999999999999999999MA1101391999999REMMET059METAR LSZB 050720Z 13003KT 9999 FEW033 M06/M07 Q1014 NOSIG;
0128066303999992011010507504+46917+007483FM-15+0510LSZB V0209999V001012200019N0112651N1-00601-00801999999ADDGA1021+009901999GF102991999999999999999999MA1101391999999REMMET059METAR LSZB 050750Z VRB02KT 9999 FEW033 M06/M08 Q1014 NOSIG;
0128066303999992011010508204+46917+007483FM-15+0510LSZB V0209999V000512200019N0112651N1-00501-00701999999ADDGA1021+009901999GF102991999999999999999999MA1101391999999REMMET059METAR LSZB 050820Z VRB01KT 9999 FEW033 M05/M07 Q1014 NOSIG;
0128066303999992011010508504+46917+007483FM-15+0510LSZB V0201601N001012200019N0112651N1-00501-00701999999ADDGA1021+009901999GF102991999999999999999999MA1101391999999REMMET059METAR LSZB 050850Z 16002KT 9999 FEW033 M05/M07 Q1014 NOSIG;
0128066303999992011010509204+46917+007483FM-15+0510LSZB V0201501N002112200019N0112651N1-00401-00701999999ADDGA1021+006001999GF102991999999999999999999MA1101391999999REMMET059METAR LSZB 050920Z 15004KT 9999 FEW020 M04/M07 Q1014 NOSIG;
0128066303999992011010509504+46917+007483FM-15+0510LSZB V0209999V001512200019N0112651N1-00301-00601999999ADDGA1021+006001999GF102991999999999999999999MA1101391999999REMMET059METAR LSZB 050950Z VRB03KT 9999 FEW020 M03/M06 Q1014 NOSIG;
0080066303999992011010510204+46917+007483FM-15+0510LSZB V0201701N002119999999Y0099001N1-00101-00601999999ADDMA1101391999999REMMET053METAR LSZB 051020Z 17004KT CAVOK M01/M06 Q1014 NOSIG;
0088066303999992011010510504+46917+007483FM-15+0510LSZB V0202201N002119999999Y0099001N1+00001-00501999999ADDMA1101291999999REMMET061METAR LSZB 051050Z 22004KT 190V290 CAVOK M00/M05 Q1013 NOSIG;
0086066303999992011010511204+46917+007483AUTO +0510LSZB V0202201N001519999999Y0099001N1+00001-00501999999ADDMA1101291999999REMMET059METAR LSZB 051120Z AUTO 22003KT 180V240 CAVOK 00/M05 Q1013;
0087066303999992011010511504+46917+007483FM-15+0510LSZB V0202101N002119999999Y0099001N1+00101-00501999999ADDMA1101191999999REMMET060METAR LSZB 051150Z 21004KT 170V260 CAVOK 01/M05 Q1012 NOSIG;
0079066303999992011010512204+46917+007483FM-15+0510LSZB V0202301N002119999999Y0099001N1+00101-00501999999ADDMA1101191999999REMMET052METAR LSZB 051220Z 23004KT CAVOK 01/M05 Q1012 NOSIG;
0079066303999992011010512504+46917+007483FM-15+0510LSZB V0209999V001019999999Y0099001N1+00201-00401999999ADDMA1101191999999REMMET052METAR LSZB 051250Z VRB02KT CAVOK 02/M04 Q1012 NOSIG;
0079066303999992011010513204+46917+007483FM-15+0510LSZB V0209999V001519999999Y0099001N1+00201-00401999999ADDMA1101191999999REMMET052METAR LSZB 051320Z VRB03KT CAVOK 02/M04 Q1012 NOSIG;
0079066303999992011010513504+46917+007483FM-15+0510LSZB V0202101N001019999999Y0099001N1+00301-00401999999ADDMA1101191999999REMMET052METAR LSZB 051350Z 21002KT CAVOK 03/M04 Q1012 NOSIG;
0079066303999992011010514204+46917+007483FM-15+0510LSZB V0202101N002119999999Y0099001N1+00301-00401999999ADDMA1101081999999REMMET052METAR LSZB 051420Z 21004KT CAVOK 03/M04 Q1011 NOSIG;
0079066303999992011010514504+46917+007483FM-15+0510LSZB V0201601N002119999999Y0099001N1+00201-00501999999ADDMA1101081999999REMMET052METAR LSZB 051450Z 16004KT CAVOK 02/M05 Q1011 NOSIG;
0079066303999992011010515204+46917+007483FM-15+0510LSZB V0209999V001019999999Y0099001N1+00101-00501999999ADDMA1101081999999REMMET052METAR LSZB 051520Z VRB02KT CAVOK 01/M05 Q1011 NOSIG;
0080066303999992011010515504+46917+007483FM-15+0510LSZB V0209999V001019999999Y0099001N1-00101-00401999999ADDMA1101081999999REMMET053METAR LSZB 051550Z VRB02KT CAVOK M01/M04 Q1011 NOSIG;
0128066303999992011010516204+46917+007483FM-15+0510LSZB V0209999V000512200019N0112651N1-00201-00501999999ADDGA1021+021001999GF102991999999999999999999MA1101081999999REMMET059METAR LSZB 051620Z VRB01KT 9999 FEW072 M02/M05 Q1011 NOSIG;
0128066303999992011010516504+46917+007483FM-15+0510LSZB V0209999V000512200019N0112651N1-00301-00501999999ADDGA1021+021001999GF102991999999999999999999MA1101081999999REMMET059METAR LSZB 051650Z VRB01KT 9999 FEW072 M03/M05 Q1011 NOSIG;
0128066303999992011010517204+46917+007483FM-15+0510LSZB V0200901N001012200019N0112651N1-00301-00501999999ADDGA1021+021001999GF102991999999999999999999MA1101081999999REMMET059METAR LSZB 051720Z 09002KT 9999 FEW072 M03/M05 Q1011 NOSIG;
0128066303999992011010517504+46917+007483FM-15+0510LSZB V0201001N002612200019N0112651N1-00201-00501999999ADDGA1041+021001999GF104991999999999999999999MA1101081999999REMMET059METAR LSZB 051750Z 10005KT 9999 SCT075 M02/M05 Q1011 NOSIG;
0128066303999992011010518204+46917+007483FM-15+0510LSZB V0201201N002612200019N0112651N1-00301-00501999999ADDGA1041+021001999GF104991999999999999999999MA1101081999999REMMET059METAR LSZB 051820Z 12005KT 9999 SCT075 M03/M05 Q1011 NOSIG;
0080066303999992011010518504+46917+007483FM-15+0510LSZB V0201201N002119999999Y0099001N1-00301-00501999999ADDMA1101081999999REMMET053METAR LSZB 051850Z 12004KT CAVOK M03/M05 Q1011 NOSIG;
0080066303999992011010519204+46917+007483FM-15+0510LSZB V0201101N002619999999Y0099001N1-00401-00501999999ADDMA1101081999999REMMET053METAR LSZB 051920Z 11005KT CAVOK M04/M05 Q1011 NOSIG;
0080066303999992011010519504+46917+007483FM-15+0510LSZB V0201101N003119999999Y0099001N1-00401-00501999999ADDMA1101021999999REMMET053METAR LSZB 051950Z 11006KT CAVOK M04/M05 Q1010 NOSIG;
0080066303999992011010520204+46917+007483FM-15+0510LSZB V0201101N003619999999Y0099001N1-00401-00501999999ADDMA1101021999999REMMET053METAR LSZB 052020Z 11007KT CAVOK M04/M05 Q1010 NOSIG;
0080066303999992011010520504+46917+007483FM-15+0510LSZB V0201001N003119999999Y0099001N1-00301-00501999999ADDMA1101021999999REMMET053METAR LSZB 052050Z 10006KT CAVOK M03/M05 Q1010 NOSIG;
0079066303999992011010521204+46917+007483AUTO +0510LSZB V0201101N002619999999Y0099001N1-00301-00501999999ADDMA1101021999999REMMET052METAR LSZB 052120Z AUTO 11005KT CAVOK M03/M05 Q1010;
0079066303999992011010521504+46917+007483AUTO +0510LSZB V0201001N002619999999Y0099001N1-00401-00501999999ADDMA1101021999999REMMET052METAR LSZB 052150Z AUTO 10005KT CAVOK M04/M05 Q1010;
0132066303999992011010522204+46917+007483AUTO +0510LSZB V0201701N00151042001CN0112651N1-00301-00501999999ADDGA1071+042001999GA2041+045001999MA1101021999999REMMET073METAR LSZB 052220Z AUTO 17003KT 120V190 9999 BKN140 SCT150 M03/M05 Q1010;
0124066303999992011010522504+46917+007483AUTO +0510LSZB V0201601N00261039001CN0112651N1-00401-00501999999ADDGA1071+039001999GA2041+045001999MA1101021999999REMMET065METAR LSZB 052250Z AUTO 16005KT 9999 BKN130 SCT150 M04/M05 Q1010;
0150066303999992011010523204+46917+007483AUTO +0510LSZB V0209999V000510420019N0112651N1-00301-00501999999ADDGA1021+036001999GA2081+042001999GF108991999999999999999999MA1100911999999REMMET065METAR LSZB 052320Z AUTO VRB01KT 9999 FEW120 OVC140 M03/M05 Q1009;
0135066303999992011010523504+46917+007483AUTO +0510LSZB V0201301N002112200019N0112651N1-00301-00501999999ADDGA1041+036001999GF104991999999999999999999MA1100911999999REMMET066METAR LSZB 052350Z AUTO 13004KT 100V170 9999 SCT120 M03/M05 Q1009;
0143066303999992011010600204+46917+007483AUTO +0510LSZB V0209999V00151033001CN0112651N1-00201-00401999999ADDGA1071+033001999GA2041+042001999MA1100811999999REMMET065METAR LSZB 060020Z AUTO VRB03KT 9999 BKN110 SCT140 M02/M04 Q1008;EQDQ01+000042SCOTCV
0127066303999992011010600504+46917+007483AUTO +0510LSZB V0201101N002110300019N0112651N1-00201-00401999999ADDGA1071+030001999GF107991999999999999999999MA1100811999999REMMET058METAR LSZB 060050Z AUTO 11004KT 9999 BKN100 M02/M04 Q1008;
0158066303999992011010601204+46917+007483AUTO +0510LSZB V0201301N002112200019N0112651N1-00201-00401999999ADDGA1041+024001999GA2041+036001999GF104991999999999999999999MA1100811999999REMMET073METAR LSZB 060120Z AUTO 13004KT 080V160 9999 SCT080 SCT120 M02/M04 Q1008;
0127066303999992011010601504+46917+007483AUTO +0510LSZB V0201201N001510270019N0112651N1-00201-00401999999ADDGA1071+027001999GF107991999999999999999999MA1100811999999REMMET058METAR LSZB 060150Z AUTO 12003KT 9999 BKN090 M02/M04 Q1008;
0150066303999992011010602204+46917+007483AUTO +0510LSZB V0209999V001012200019N0112651N1-00201-00401999999ADDGA1021+024001999GA2041+042001999GF104991999999999999999999MA1100811999999REMMET065METAR LSZB 060220Z AUTO VRB02KT 9999 FEW080 SCT140 M02/M04 Q1008;
0151066303999992011010602504+46917+007483AUTO +0510LSZB V0201401N00211018001CN0112651N1-00201-00401999999ADDGA1071+018001999GA2041+024001999MA1100811999999REMMET073METAR LSZB 060250Z AUTO 14004KT 110V170 9999 BKN060 SCT080 M02/M04 Q1008;EQDQ01+000042SCOTCV
0137066303999992011010603204+46917+007483AUTO +0510LSZB V0201301N002610150019N0112651N1-00201-00301999999ADDAW1711GA1071+015001999GF107991999999999999999999MA1100811999999REMMET062METAR LSZB 060320Z AUTO 13005KT 9999 -SN BKN050 M02/M03 Q1008;
0139066303999992011010603504+46917+007483AUTO +0510LSZB V0201201N002110150019N0112651N1-00101-00301999999ADDAW1641GA1071+015001999GF107991999999999999999999MA1100811999999REMMET064METAR LSZB 060350Z AUTO 12004KT 9999 -FZRA BKN050 M01/M03 Q1008;
0139066303999992011010604204+46917+007483AUTO +0510LSZB V0201201N001510150019N0112651N1-00101-00301999999ADDAW1541GA1081+015001999GF108991999999999999999999MA1100811999999REMMET064METAR LSZB 060420Z AUTO 12003KT 9999 -FZDZ OVC050 M01/M03 Q1008;
0125066303999992011010604504+46917+007483FM-15+0510LSZB V0209999V00151015001CN0112651N1-00101-00301999999ADDGA1071+015001999GA2041+021001999MA1100811999999REMMET066METAR LSZB 060450Z VRB03KT 9999 BKN050 SCT070 M01/M03 Q1008 NOSIG;
0128066303999992011010605204+46917+007483FM-15+0510LSZB V0201601N002110150019N0112651N1-00101-00201999999ADDGA1071+015001999GF107991999999999999999999MA1100811999999REMMET059METAR LSZB 060520Z 16004KT 9999 BKN058 M01/M02 Q1008 NOSIG;
0128066303999992011010605504+46917+007483FM-15+0510LSZB V0209999V001510150019N0112651N1-00101-00201999999ADDGA1081+015001999GF108991999999999999999999MA1100811999999REMMET059METAR LSZB 060550Z VRB03KT 9999 OVC057 M01/M02 Q1008 NOSIG;
0151066303999992011010606204+46917+007483FM-15+0510LSZB V0201301N002110240019N0112651N1-00101-00201999999ADDGA1041+015001999GA2071+024001999GF107991999999999999999999MA1100811999999REMMET066METAR LSZB 060620Z 13004KT 9999 SCT050 BKN080 M01/M02 Q1008 NOSIG;
0128066303999992011010606504+46917+007483FM-15+0510LSZB V0201001N002110240019N0112651N1-00101-00201999999ADDGA1071+024001999GF107991999999999999999999MA1100811999999REMMET059METAR LSZB 060650Z 10004KT 9999 BKN080 M01/M02 Q1008 NOSIG;
0160066303999992011010607204+46917+007483FM-15+0510LSZB V0201201N002110330019N0112651N1-00101-00301999999ADDGA1021+018001999GA2071+033001999GF107991999999999999999999MA1100811999999REMMET075METAR LSZB 060720Z 12004KT 9999 FEW060 BKN110 M01/M03 Q1008 BECMG 7000 -RA;
0151066303999992011010607504+46917+007483FM-15+0510LSZB V0201001N001510360019N0112651N1-00101-00201999999ADDGA1021+015001999GA2071+036001999GF107991999999999999999999MA1100811999999REMMET066METAR LSZB 060750Z 10003KT 9999 FEW055 BKN120 M01/M02 Q1008 NOSIG;
0159066303999992011010608204+46917+007483FM-15+0510LSZB V0209999V001510360019N0112651N1+00001-00201999999ADDGA1041+015001999GA2071+036001999GF107991999999999999999999MA1100811999999REMMET074METAR LSZB 060820Z VRB03KT 9999 SCT055 BKN120 M00/M02 Q1008 BECMG 8000 RA;
0158066303999992011010608504+46917+007483FM-15+0510LSZB V0209999V000510180019N0112651N1+00001-00201999999ADDGA1041+015001999GA2071+018001999GF107991999999999999999999MA1100811999999REMMET073METAR LSZB 060850Z VRB01KT 9999 SCT050 BKN068 00/M02 Q1008 BECMG 8000 RA;
0158066303999992011010609204+46917+007483FM-15+0510LSZB V0209999V00051018001CN0112651N1+00101-00201999999ADDGA1041+018001999GA2071+018001999GF107991999999999999999999MA1100811999999REMMET073METAR LSZB 060920Z VRB01KT 9999 SCT060 BKN068 01/M02 Q1008 BECMG 8000 RA;
0158066303999992011010609504+46917+007483FM-15+0510LSZB V0201001N002110240019N0112651N1+00201-00201999999ADDGA1021+018001999GA2071+024001999GF107991999999999999999999MA1100811999999REMMET073METAR LSZB 060950Z 10004KT 9999 FEW060 BKN080 02/M02 Q1008 BECMG 8000 RA;
0160066303999992011010610204+46917+007483FM-15+0510LSZB V0201401N002610180019N0112651N1+00301-00101999999ADDGA1021+015001999GA2071+018001999GF107991999999999999999999MA1100811999999MW1611REMMET069METAR LSZB 061020Z 14005KT 9999 -RA FEW050 BKN060 03/M01 Q1008 NOSIG;
0150066303999992011010610504+46917+007483FM-15+0510LSZB V0200901N002110180019N0112651N1+00301-00101999999ADDGA1021+015001999GA2071+018001999GF107991999999999999999999MA1100811999999REMMET065METAR LSZB 061050Z 09004KT 9999 FEW050 BKN060 03/M01 Q1008 NOSIG;
0150066303999992011010611204+46917+007483FM-15+0510LSZB V0209999V001512200019N0112651N1+00401+00001999999ADDGA1021+015001999GA2041+024001999GF104991999999999999999999MA1100811999999REMMET065METAR LSZB 061120Z VRB03KT 9999 FEW050 SCT080 04/M00 Q1008 NOSIG;
0150066303999992011010611504+46917+007483FM-15+0510LSZB V0209999V001010270019N0112651N1+00501+00001999999ADDGA1041+015001999GA2071+027001999GF107991999999999999999999MA1100811999999REMMET065METAR LSZB 061150Z VRB02KT 9999 SCT050 BKN095 05/M00 Q1008 NOSIG;
0150066303999992011010612204+46917+007483FM-15+0510LSZB V0209999V001010240019N0112651N1+00501+00001999999ADDGA1041+018001999GA2071+024001999GF107991999999999999999999MA1100711999999REMMET065METAR LSZB 061220Z VRB02KT 9999 SCT065 BKN080 05/M00 Q1007 NOSIG;
0150066303999992011010612504+46917+007483FM-15+0510LSZB V0209999V001010360019N0112651N1+00601+00001999999ADDGA1021+021001999GA2071+036001999GF107991999999999999999999MA1100711999999REMMET065METAR LSZB 061250Z VRB02KT 9999 FEW070 BKN120 06/M00 Q1007 NOSIG;
0149066303999992011010613204+46917+007483FM-15+0510LSZB V0201501N002110390019N0112651N1+00501+00001999999ADDGA1021+021001999GA2071+039001999GF107991999999999999999999MA1100711999999REMMET064METAR LSZB 061320Z 15004KT 9999 FEW070 BKN130 05/00 Q1007 NOSIG;
0150066303999992011010613504+46917+007483FM-15+0510LSZB V0201401N002110180019N0112651N1+00501+00001999999ADDGA1071+018001999GA2071+033001999GF107991999999999999999999MA1100711999999REMMET065METAR LSZB 061350Z 14004KT 9999 BKN062 BKN110 05/M00 Q1007 NOSIG;
0135066303999992011010614204+46917+007483AUTO +0510LSZB V0201301N002612200019N0112651N1+00501+00001999999ADDAW1511GA1021+021001999GF102991999999999999999999MA1100711999999REMMET060METAR LSZB 061420Z AUTO 13005KT 9999 -DZ FEW070 05/00 Q1007;
0154066303999992011010614504+46917+007483FM-15+0510LSZB V0200701N001510300019N0112651N1+00501+00001999999ADDGA1041+021001999GA2071+030001999GF107991999999999999999999MA1100811999999REMMET069METAR LSZB 061450Z 07003KT 9999 SCT072 BKN100 05/00 Q1008 TEMPO SHRA;
0139066303999992011010615204+46917+007483FM-15+0510LSZB V0201101N002110210019N0112651N1+00301+00001999999ADDGA1071+021001999GF107991999999999999999999MA1100811999999REMMET070METAR LSZB 061520Z 11004KT 080V140 9999 BKN072 03/00 Q1008 TEMPO SHRA;
0167066303999992011010615504+46917+007483FM-15+0510LSZB V0209999V001010180019N0112651N1+00301+00001999999ADDGA1041+013501999GA2071+018001999GF107991999999999999999999MA1100811999999MW1611REMMET076METAR LSZB 061550Z VRB02KT 9999 -RA SCT045 BKN065 03/00 Q1008 BECMG 5000 RA;
0162066303999992011010616204+46917+007483FM-15+0510LSZB V0209999V000510150019N0112651N1+00301+00101999999ADDGA1041+012001999GA2071+015001999GF107991999999999999999999MA1100811999999MW1611REMMET071METAR LSZB 061620Z VRB01KT 9999 -RA SCT040 BKN055 03/01 Q1008 BECMG RA;
0159066303999992011010616504+46917+007483FM-15+0510LSZB V0201001N001510180019N0112651N1+00201+00101999999ADDGA1041+012001999GA2071+018001999GF107991999999999999999999MA1100811999999MW1611REMMET068METAR LSZB 061650Z 10003KT 9999 -RA SCT040 BKN060 02/01 Q1008 NOSIG;
0159066303999992011010617204+46917+007483FM-15+0510LSZB V0209999V001010150019N0070001N1+00201+00201999999ADDGA1041+012001999GA2071+015001999GF107991999999999999999999MA1100811999999MW1611REMMET068METAR LSZB 061720Z VRB02KT 7000 -RA SCT040 BKN050 02/02 Q1008 NOSIG;
0152066303999992011010617504+46917+007483FM-15+0510LSZB V0201201N003110150019N0070001N1+00301+00201999999ADDGA1021+012001999GA2071+015001999GF107991999999999999999999MA1100911999999REMMET067METAR LSZB 061750Z 12006KT 7000 FEW040 BKN053 03/02 Q1009 TEMPO RA;
0138066303999992011010618204+46917+007483FM-15+0510LSZB V0201001N001510180019N0080001N1+00201+00101999999ADDGA1071+018001999GF107991999999999999999999MA1100911999999MW1531REMMET063METAR LSZB 061820Z 10003KT 8000 DZ BKN060 02/01 Q1009 TEMPO RA;
0162066303999992011010618504+46917+007483FM-15+0510LSZB V0201401N002610180019N0080001N1+00201+00101999999ADDGA1021+013501999GA2071+018001999GF107991999999999999999999MA1100911999999MW1611REMMET071METAR LSZB 061850Z 14005KT 8000 -RA FEW045 BKN060 02/01 Q1009 TEMPO RA;
0169066303999992011010619204+46917+007483FM-15+0510LSZB V0201101N002110180019N0080001N1+00201+00201999999ADDGA1021+011101999GA2071+018001999GF107991999999999999999999MA1101021999999MW1631REMMET078METAR LSZB 061920Z 11004KT 070V140 8000 RA FEW037 BKN060 02/02 Q1010 TEMPO RA;
0188066303999992011010619504+46917+007483FM-15+0510LSZB V0201001N00261009901CN0080001N1+00201+00201999999ADDGA1021+006301999GA2041+009901999GA3071+018001999GF107991999999999999999999MA1101021999999REMMET087METAR LSZB 061950Z 10005KT 060V130 8000 FEW021 SCT033 BKN060 02/02 Q1010 RERA TEMPO RA;
0134066303999992011010620204+46917+007483FM-15+0510LSZB V0200801N002110180019N0080001N1+00201+00201999999ADDGA1071+018001999GF107991999999999999999999MA1101021999999REMMET065METAR LSZB 062020Z 08004KT 030V120 8000 BKN060 02/02 Q1010 NOSIG;
0143066303999992011010620504+46917+007483AUTO +0510LSZB V0201201N001510150019N0112651N1+00201+00101999999ADDAW1511GA1081+015001999GF108991999999999999999999MA1101021999999REMMET068METAR LSZB 062050Z AUTO 12003KT 080V170 9999 -DZ OVC050 02/01 Q1010;
0131066303999992011010621204+46917+007483AUTO +0510LSZB V0209999V00051015001CN0040001N1+00201+00201999999ADDAW1101GA1071+015001999GA2041+021001999MA1101021999999REMMET066METAR LSZB 062120Z AUTO VRB01KT 4000 BR BKN050 SCT070 02/02 Q1010;
0181066303999992011010621504+46917+007483AUTO +0510LSZB V0209999V00101021001CN0070001N1+00201+00201999999ADDAW1511GA1041+015001999GA2041+021001999GA3071+027001999GF107991999999999999999999MA1101021999999REMMET074METAR LSZB 062150Z AUTO VRB02KT 7000 -DZ SCT050 SCT070 BKN090 02/02 Q1010;
0134066303999992011010622204+46917+007483AUTO +0510LSZB V0201301N001510150019N0050001N1+00201+00201999999ADDAW1101GA1081+015001999GF108991999999999999999999MA1101081999999REMMET059METAR LSZB 062220Z AUTO 13003KT 5000 BR OVC050 02/02 Q1011;
0134066303999992011010622504+46917+007483AUTO +0510LSZB V0201401N001510150019N0112651N1+00201+00201999999ADDAW1101GA1081+015001999GF108991999999999999999999MA1101081999999REMMET059METAR LSZB 062250Z AUTO 14003KT 9999 BR OVC050 02/02 Q1011;
0135066303999992011010623204+46917+007483AUTO +0510LSZB V0209999V001010150019N0060001N1+00201+00201999999ADDAW1611GA1071+015001999GF107991999999999999999999MA1101081999999REMMET060METAR LSZB 062320Z AUTO VRB02KT 6000 -RA BKN050 02/02 Q1011;
0134066303999992011010623504+46917+007483AUTO +0510LSZB V0209999V001010150019N0070001N1+00201+00201999999ADDAW1101GA1081+015001999GF108991999999999999999999MA1101081999999REMMET059METAR LSZB 062350Z AUTO VRB02KT 7000 BR OVC050 02/02 Q1011;
0157066303999992011010700204+46917+007483AUTO +0510LSZB V0209999V001010150019N0050001N1+00201+00201999999ADDAW1101GA1021+005401999GA2081+015001999GF108991999999999999999999MA1101081999999REMMET066METAR LSZB 070020Z AUTO VRB02KT 5000 BR FEW018 OVC050 02/02 Q1011;
0134066303999992011010700504+46917+007483AUTO +0510LSZB V0201401N002110150019N0080001N1+00201+00201999999ADDAW1101GA1071+015001999GF107991999999999999999999MA1101081999999REMMET059METAR LSZB 070050Z AUTO 14004KT 8000 BR BKN050 02/02 Q1011;
0142066303999992011010701204+46917+007483AUTO +0510LSZB V0201201N001510150019N0060001N1+00201+00201999999ADDAW1101GA1081+015001999GF108991999999999999999999MA1101081999999REMMET067METAR LSZB 070120Z AUTO 12003KT 100V160 6000 BR OVC050 02/02 Q1011;
0134066303999992011010701504+46917+007483AUTO +0510LSZB V0209999V001010150019N0050001N1+00201+00201999999ADDAW1101GA1081+015001999GF108991999999999999999999MA1101191999999REMMET059METAR LSZB 070150Z AUTO VRB02KT 5000 BR OVC050 02/02 Q1012;
0134066303999992011010702204+46917+007483AUTO +0510LSZB V0209999V000510180019N0045001N1+00201+00101999999ADDAW1101GA1081+018001999GF108991999999999999999999MA1101191999999REMMET059METAR LSZB 070220Z AUTO VRB01KT 4500 BR OVC060 02/01 Q1012;
0134066303999992011010702504+46917+007483AUTO +0510LSZB V0209999V001512200019N0049001N1+00201+00101999999ADDAW1621GA1021+018001999GF102991999999999999999999MA1101191999999REMMET059METAR LSZB 070250Z AUTO VRB03KT 4900 RA FEW060 02/01 Q1012;
0135066303999992011010703204+46917+007483AUTO +0510LSZB V0201401N003610150019N0045001N1+00201+00201999999ADDAW1611GA1071+015001999GF107991999999999999999999MA1101191999999REMMET060METAR LSZB 070320Z AUTO 14007KT 4500 -RA BKN050 02/02 Q1012;
0158066303999992011010703504+46917+007483AUTO +0510LSZB V0209999V001012200019N0039001N1+00201+00201999999ADDAW1611GA1021+018001999GA2041+024001999GF104991999999999999999999MA1101191999999REMMET067METAR LSZB 070350Z AUTO VRB02KT 3900 -RA FEW060 SCT080 02/02 Q1012;
0140066303999992011010704204+46917+007483AUTO +0510LSZB V0209999V001010150019N0036001N1+00201+00201999999ADDAW1611GA1071+015001999GF107991999999999999999999MA1101191999999REMMET065METAR LSZB 070420Z AUTO VRB02KT 3600 -RA BKN050 02/02 Q1012 REDZ;
0158066303999992011010704504+46917+007483AUTO +0510LSZB V0209999V001510144019N0038001N1+00201+00201999999ADDAW1611GA1071+014401999GA2071+018001999GF107991999999999999999999MA1101191999999REMMET067METAR LSZB 070450Z AUTO VRB03KT 3800 -RA BKN048 BKN060 02/02 Q1012;
0159066303999992011010705204+46917+007483FM-15+0510LSZB V0209999V000510144019N0060001N1+00201+00201999999ADDGA1071+014401999GA2081+018001999GF108991999999999999999999MA1101191999999MW1611REMMET068METAR LSZB 070520Z VRB01KT 6000 -RA BKN048 OVC060 02/02 Q1012 NOSIG;
0158066303999992011010705504+46917+007483FM-15+0510LSZB V0209999V001010330019N0040001N1+00201+00201999999ADDGA1041+014401999GA2071+033001999GF107991999999999999999999MA1101191999999MW1101REMMET067METAR LSZB 070550Z VRB02KT 4000 BR SCT048 BKN110 02/02 Q1012 NOSIG;
0158066303999992011010706204+46917+007483FM-15+0510LSZB V0209999V001510390019N0025001N1+00101+00101999999ADDGA1021+013801999GA2071+039001999GF107991999999999999999999MA1101191999999MW1101REMMET067METAR LSZB 070620Z VRB03KT 2500 BR FEW046 BKN130 01/01 Q1012 NOSIG;
0160066303999992011010706504+46917+007483FM-15+0510LSZB V0201301N001510420019N0040001N1+00101+00101999999ADDGA1021+013801999GA2071+042001999GF107991999999999999999999MA1101191999999MW1411REMMET069METAR LSZB 070650Z 13003KT 4000 BCFG FEW046 BKN140 01/01 Q1012 NOSIG;
0137066303999992011010707204+46917+007483FM-15+0510LSZB V0209999V001010300019N0040001N1+00101+00101999999ADDGA1071+030001999GF107991999999999999999999MA1101191999999MW1411REMMET062METAR LSZB 070720Z VRB02KT 4000 BCFG BKN100 01/01 Q1012 NOSIG;
0157066303999992011010708504+46917+007483FM-15+0510LSZB V0201001N002110330019N0080001N1+00301+00301999999ADDGA1021+000601999GA2071+033001999GF107991999999999999999999MA1101191999999REMMET072METAR LSZB 070850Z 10004KT 080V140 8000 FEW002 BKN110 03/03 Q1012 NOSIG;
0149066303999992011010709204+46917+007483FM-15+0510LSZB V0201401N003112200019N0080001N1+00401+00401999999ADDGA1021+001201999GA2041+042001999GF104991999999999999999999MA1101191999999REMMET064METAR LSZB 070920Z 14006KT 8000 FEW004 SCT140 04/04 Q1012 NOSIG;
0149066303999992011010709504+46917+007483FM-15+0510LSZB V0201101N001512200019N0080001N1+00401+00401999999ADDGA1021+001201999GA2041+042001999GF104991999999999999999999MA1101191999999REMMET064METAR LSZB 070950Z 11003KT 8000 FEW004 SCT140 04/04 Q1012 NOSIG;
0149066303999992011010710204+46917+007483FM-15+0510LSZB V0209999V001512200019N0112651N1+00501+00501999999ADDGA1021+010501999GA2041+048001999GF104991999999999999999999MA1101191999999REMMET064METAR LSZB 071020Z VRB03KT 9999 FEW035 SCT160 05/05 Q1012 NOSIG;
0149066303999992011010710504+46917+007483FM-15+0510LSZB V0209999V000512200019N0112651N1+00601+00501999999ADDGA1021+010501999GA2041+054001999GF104991999999999999999999MA1101191999999REMMET064METAR LSZB 071050Z VRB01KT 9999 FEW035 SCT180 06/05 Q1012 NOSIG;
0149066303999992011010711204+46917+007483FM-15+0510LSZB V0209999V000512200019N0112651N1+00701+00501999999ADDGA1021+010501999GA2041+054001999GF104991999999999999999999MA1101191999999REMMET064METAR LSZB 071120Z VRB01KT 9999 FEW035 SCT180 07/05 Q1012 NOSIG;
0149066303999992011010711504+46917+007483FM-15+0510LSZB V0209999V001512200019N0112651N1+00801+00501999999ADDGA1021+010501999GA2041+054001999GF104991999999999999999999MA1101191999999REMMET064METAR LSZB 071150Z VRB03KT 9999 FEW035 SCT180 08/05 Q1012 NOSIG;
0157066303999992011010712204+46917+007483FM-15+0510LSZB V0202101N002112200019N0112651N1+00901+00601999999ADDGA1021+010501999GA2041+054001999GF104991999999999999999999MA1101191999999REMMET072METAR LSZB 071220Z 21004KT 170V240 9999 FEW035 SCT180 09/06 Q1012 NOSIG;
0149066303999992011010712504+46917+007483FM-15+0510LSZB V0201401N003112200019N0112651N1+00901+00601999999ADDGA1021+010501999GA2041+054001999GF104991999999999999999999MA1101081999999REMMET064METAR LSZB 071250Z 14006KT 9999 FEW035 SCT180 09/06 Q1011 NOSIG;
0157066303999992011010713204+46917+007483FM-15+0510LSZB V0201301N002112200019N0112651N1+01001+00601999999ADDGA1021+010501999GA2041+054001999GF104991999999999999999999MA1101081999999REMMET072METAR LSZB 071320Z 13004KT 100V160 9999 FEW035 SCT180 10/06 Q1011 NOSIG;
0157066303999992011010713504+46917+007483FM-15+0510LSZB V0201501N002612200019N0112651N1+01001+00601999999ADDGA1021+012001999GA2041+054001999GF104991999999999999999999MA1101081999999REMMET072METAR LSZB 071350Z 15005KT 110V210 9999 FEW040 SCT180 10/06 Q1011 NOSIG;
0157066303999992011010714204+46917+007483FM-15+0510LSZB V0201901N001512200019N0112651N1+00901+00601999999ADDGA1021+012001999GA2041+027001999GF104991999999999999999999MA1101191999999REMMET072METAR LSZB 071420Z 19003KT 150V230 9999 FEW040 SCT090 09/06 Q1012 NOSIG;
0149066303999992011010714504+46917+007483FM-15+0510LSZB V0201601N002110270019N0112651N1+00801+00601999999ADDGA1021+013501999GA2071+027001999GF107991999999999999999999MA1101191999999REMMET064METAR LSZB 071450Z 16004KT 9999 FEW045 BKN090 08/06 Q1012 NOSIG;
0149066303999992011010715204+46917+007483FM-15+0510LSZB V0201501N002110300019N0112651N1+00801+00501999999ADDGA1021+013501999GA2071+030001999GF107991999999999999999999MA1101191999999REMMET064METAR LSZB 071520Z 15004KT 9999 FEW045 BKN100 08/05 Q1012 NOSIG;
0149066303999992011010715504+46917+007483FM-15+0510LSZB V0201101N002610270019N0112651N1+00701+00501999999ADDGA1021+013501999GA2071+027001999GF107991999999999999999999MA1101191999999REMMET064METAR LSZB 071550Z 11005KT 9999 FEW045 BKN095 07/05 Q1012 NOSIG;
0126066303999992011010716504+46917+007483FM-15+0510LSZB V0201001N003110270019N0112651N1+00601+00501999999ADDGA1071+027001999GF107991999999999999999999MA1101191999999REMMET057METAR LSZB 071650Z 10006KT 9999 BKN095 06/05 Q1012 NOSIG;
0126066303999992011010717204+46917+007483FM-15+0510LSZB V0201001N003110270019N0112651N1+00501+00401999999ADDGA1071+027001999GF107991999999999999999999MA1101191999999REMMET057METAR LSZB 071720Z 10006KT 9999 BKN095 05/04 Q1012 NOSIG;
0126066303999992011010717504+46917+007483FM-15+0510LSZB V0201001N003610270019N0112651N1+00501+00501999999ADDGA1071+027001999GF107991999999999999999999MA1101191999999REMMET057METAR LSZB 071750Z 10007KT 9999 BKN095 05/05 Q1012 NOSIG;
0149066303999992011010718204+46917+007483FM-15+0510LSZB V0200901N002610420019N0112651N1+00501+00401999999ADDGA1041+027001999GA2071+042001999GF107991999999999999999999MA1101191999999REMMET064METAR LSZB 071820Z 09005KT 9999 SCT090 BKN140 05/04 Q1012 NOSIG;
0149066303999992011010718504+46917+007483FM-15+0510LSZB V0201101N002110390019N0112651N1+00401+00301999999ADDGA1041+027001999GA2071+039001999GF107991999999999999999999MA1101191999999REMMET064METAR LSZB 071850Z 11004KT 9999 SCT090 BKN130 04/03 Q1012 NOSIG;
0157066303999992011010719204+46917+007483FM-15+0510LSZB V0201201N002110390019N0112651N1+00401+00301999999ADDGA1041+027001999GA2071+039001999GF107991999999999999999999MA1101191999999REMMET072METAR LSZB 071920Z 12004KT 090V170 9999 SCT090 BKN130 04/03 Q1012 NOSIG;
0149066303999992011010719504+46917+007483FM-15+0510LSZB V0201101N003110480019N0112651N1+00401+00401999999ADDGA1021+027001999GA2071+048001999GF107991999999999999999999MA1101191999999REMMET064METAR LSZB 071950Z 11006KT 9999 FEW090 BKN160 04/04 Q1012 NOSIG;
0149066303999992011010720204+46917+007483FM-15+0510LSZB V0201101N002610420019N0112651N1+00401+00401999999ADDGA1021+036001999GA2071+042001999GF107991999999999999999999MA1101191999999REMMET064METAR LSZB 072020Z 11005KT 9999 FEW120 BKN140 04/04 Q1012 NOSIG;
0157066303999992011010720504+46917+007483FM-15+0510LSZB V0201301N002110420019N0112651N1+00401+00301999999ADDGA1021+036001999GA2071+042001999GF107991999999999999999999MA1101191999999REMMET072METAR LSZB 072050Z 13004KT 090V200 9999 FEW120 BKN140 04/03 Q1012 NOSIG;
0134066303999992011010721204+46917+007483AUTO +0510LSZB V0209999V001012200019N0070001N1+00301+00201999999ADDAW1101GA1021+036001999GF102991999999999999999999MA1101191999999REMMET059METAR LSZB 072120Z AUTO VRB02KT 7000 BR FEW120 03/02 Q1012;
0157066303999992011010721504+46917+007483AUTO +0510LSZB V0209999V000510420019N0070001N1+00201+00201999999ADDAW1101GA1021+033001999GA2081+042001999GF108991999999999999999999MA1101191999999REMMET066METAR LSZB 072150Z AUTO VRB01KT 7000 BR FEW110 OVC140 02/02 Q1012;
0148066303999992011010722204+46917+007483AUTO +0510LSZB V0209999V000510420019N0050001N1+00301+00201999999ADDGA1021+033001999GA2071+042001999GF107991999999999999999999MA1101291999999REMMET063METAR LSZB 072220Z AUTO VRB01KT 5000 FEW110 BKN140 03/02 Q1013;
0122066303999992011010722504+46917+007483AUTO +0510LSZB V0203001N00101033001CN0044001N1+00201+00201999999ADDGA1071+033001999GA2041+045001999MA1101291999999REMMET063METAR LSZB 072250Z AUTO 30002KT 4400 BKN110 SCT150 02/02 Q1013;
0134066303999992011010723204+46917+007483AUTO +0510LSZB V0209999V001010270019N0090001N1+00201+00201999999ADDAW1101GA1071+027001999GF107991999999999999999999MA1101291999999REMMET059METAR LSZB 072320Z AUTO VRB02KT 9000 BR BKN090 02/02 Q1013;
0122066303999992011010723504+46917+007483AUTO +0510LSZB V0209999V00051024001CN0112651N1+00301+00301999999ADDGA1071+024001999GA2041+030001999MA1101291999999REMMET063METAR LSZB 072350Z AUTO VRB01KT 9999 BKN080 SCT100 03/03 Q1013;
0125066303999992011010800204+46917+007483AUTO +0510LSZB V0201401N002110270019N0112651N1+00401+00301999999ADDGA1071+027001999GF107991999999999999999999MA1101191999999REMMET056METAR LSZB 080020Z AUTO 14004KT 9999 BKN090 04/03 Q1012;
0141066303999992011010800504+46917+007483AUTO +0510LSZB V0209999V00051027001CN0112651N1+00301+00301999999ADDGA1081+027001999GA2041+048001999MA1101191999999REMMET063METAR LSZB 080050Z AUTO VRB01KT 9999 OVC090 SCT160 03/03 Q1012;EQDQ01+000042SCOTCV
0141066303999992011010801204+46917+007483AUTO +0510LSZB V0209999V00101030001CN0112651N1+00401+00301999999ADDGA1071+030001999GA2041+033001999MA1101291999999REMMET063METAR LSZB 080120Z AUTO VRB02KT 9999 BKN100 SCT110 04/03 Q1013;EQDQ01+000042SCOTCV
0125066303999992011010801504+46917+007483AUTO +0510LSZB V0209999V002110240019N0112651N1+00301+00301999999ADDGA1071+024001999GF107991999999999999999999MA1101291999999REMMET056METAR LSZB 080150Z AUTO VRB04KT 9999 BKN080 03/03 Q1013;
0171066303999992011010802204+46917+007483AUTO +0510LSZB V0201001N00151024001CN0112651N1+00301+00301999999ADDGA1021+018001999GA2041+024001999GA3071+030001999GF107991999999999999999999MA1101291999999REMMET070METAR LSZB 080220Z AUTO 10003KT 9999 FEW060 SCT080 BKN100 03/03 Q1013;
0151066303999992011010802504+46917+007483AUTO +0510LSZB V0209999V00151024001CN0112651N1+00401+00301999999ADDAW1511GA1071+024001999GA2041+030001999MA1101191999999REMMET067METAR LSZB 080250Z AUTO VRB03KT 9999 -DZ BKN080 SCT100 04/03 Q1012;EQDQ01+000042SCOTCV
0125066303999992011010803204+46917+007483AUTO +0510LSZB V0203101N003110210019N0112651N1+00401+00301999999ADDGA1071+021001999GF107991999999999999999999MA1101291999999REMMET056METAR LSZB 080320Z AUTO 31006KT 9999 BKN070 04/03 Q1013;
0135066303999992011010803504+46917+007483AUTO +0510LSZB V0209999V001012200019N0112651N1+00301+00301999999ADDAW1611GA1021+015001999GF102991999999999999999999MA1101291999999REMMET060METAR LSZB 080350Z AUTO VRB02KT 9999 -RA FEW050 03/03 Q1013;
0165066303999992011010804204+46917+007483AUTO +0510LSZB V0201401N001512200019N0112651N1+00301+00301999999ADDAW1621GA1021+008101999GA2041+015001999GF104991999999999999999999MA1101291999999REMMET074METAR LSZB 080420Z AUTO 14003KT 090V240 9999 RA FEW027 SCT050 03/03 Q1013;
0142066303999992011010804504+46917+007483AUTO +0510LSZB V0200101N001512200019N0060001N1+00301+00301999999ADDAW1621GA1021+014401999GF102991999999999999999999MA1101391999999REMMET067METAR LSZB 080450Z AUTO 01003KT 320V120 6000 RA FEW048 03/03 Q1014;
0182066303999992011010805204+46917+007483FM-15+0510LSZB V0209999V00151010501CN0112651N1+00301+00301999999ADDGA1021+003901999GA2041+010501999GA3071+015001999GF107991999999999999999999MA1101391999999MW1611REMMET075METAR LSZB 080520Z VRB03KT 9999 -RA FEW013 SCT035 BKN055 03/03 Q1014 NOSIG;
0159066303999992011010805504+46917+007483FM-15+0510LSZB V0200901N003110150019N0112651N1+00401+00401999999ADDGA1021+006001999GA2071+015001999GF107991999999999999999999MA1101391999999MW1611REMMET068METAR LSZB 080550Z 09006KT 9999 -RA FEW020 BKN050 04/04 Q1014 NOSIG;
0159066303999992011010806204+46917+007483FM-15+0510LSZB V0200801N003610150019N0112651N1+00401+00301999999ADDGA1021+006001999GA2071+015001999GF107991999999999999999999MA1101391999999MW1611REMMET068METAR LSZB 080620Z 08007KT 9999 -RA FEW020 BKN050 04/03 Q1014 NOSIG;
0149066303999992011010806504+46917+007483FM-15+0510LSZB V0201001N002610240019N0112651N1+00401+00401999999ADDGA1041+018001999GA2071+024001999GF107991999999999999999999MA1101391999999REMMET064METAR LSZB 080650Z 10005KT 9999 SCT060 BKN080 04/04 Q1014 NOSIG;
0149066303999992011010807204+46917+007483FM-15+0510LSZB V0209999C000010180019N0112651N1+00501+00401999999ADDGA1041+013501999GA2071+018001999GF107991999999999999999999MA1101391999999REMMET064METAR LSZB 080720Z 00000KT 9999 SCT045 BKN060 05/04 Q1014 NOSIG;
0149066303999992011010807504+46917+007483FM-15+0510LSZB V0209999V002110210019N0112651N1+00401+00401999999ADDGA1021+015001999GA2071+021001999GF107991999999999999999999MA1101391999999REMMET064METAR LSZB 080750Z VRB04KT 9999 FEW055 BKN074 04/04 Q1014 NOSIG;
0149066303999992011010808204+46917+007483FM-15+0510LSZB V0209999C000012200019N0080001N1+00401+00301999999ADDGA1021+018001999GA2041+045001999GF104991999999999999999999MA1101391999999REMMET064METAR LSZB 080820Z 00000KT 8000 FEW060 SCT150 04/03 Q1014 NOSIG;
0149066303999992011010808504+46917+007483FM-15+0510LSZB V0209999C000012200019N0112651N1+00501+00501999999ADDGA1021+000301999GA2041+018001999GF104991999999999999999999MA1101391999999REMMET064METAR LSZB 080850Z 00000KT 9999 FEW001 SCT060 05/05 Q1014 NOSIG;
0126066303999992011010809204+46917+007483FM-15+0510LSZB V0209999C000012200019N0112651N1+00601+00501999999ADDGA1041+030001999GF104991999999999999999999MA1101391999999REMMET057METAR LSZB 080920Z 00000KT 9999 SCT100 06/05 Q1014 NOSIG;
0126066303999992011010809504+46917+007483FM-15+0510LSZB V0209999V001012200019N0112651N1+00601+00501999999ADDGA1041+027001999GF104991999999999999999999MA1101391999999REMMET057METAR LSZB 080950Z VRB02KT 9999 SCT090 06/05 Q1014 NOSIG;
0126066303999992011010810204+46917+007483FM-15+0510LSZB V0209999C000012200019N0112651N1+00801+00601999999ADDGA1021+027001999GF102991999999999999999999MA1101391999999REMMET057METAR LSZB 081020Z 00000KT 9999 FEW090 08/06 Q1014 NOSIG;
0126066303999992011010810504+46917+007483FM-15+0510LSZB V0209999V001512200019N0112651N1+00901+00601999999ADDGA1021+015001999GF102991999999999999999999MA1101391999999REMMET057METAR LSZB 081050Z VRB03KT 9999 FEW050 09/06 Q1014 NOSIG;
0126066303999992011010811204+46917+007483FM-15+0510LSZB V0201601N002112200019N0112651N1+01001+00601999999ADDGA1021+015001999GF102991999999999999999999MA1101391999999REMMET057METAR LSZB 081120Z 16004KT 9999 FEW050 10/06 Q1014 NOSIG;
0149066303999992011010811504+46917+007483FM-15+0510LSZB V0209999V001510660019N0112651N1+01101+00601999999ADDGA1021+015001999GA2071+066001999GF107991999999999999999999MA1101291999999REMMET064METAR LSZB 081150Z VRB03KT 9999 FEW050 BKN220 11/06 Q1013 NOSIG;
0149066303999992011010812204+46917+007483FM-15+0510LSZB V0201501N002110660019N0112651N1+01201+00601999999ADDGA1021+015001999GA2071+066001999GF107991999999999999999999MA1101291999999REMMET064METAR LSZB 081220Z 15004KT 9999 FEW050 BKN220 12/06 Q1013 NOSIG;
0149066303999992011010812504+46917+007483FM-15+0510LSZB V0201401N002110660019N0112651N1+01201+00601999999ADDGA1021+015001999GA2071+066001999GF107991999999999999999999MA1101291999999REMMET064METAR LSZB 081250Z 14004KT 9999 FEW050 BKN220 12/06 Q1013 NOSIG;
0157066303999992011010813204+46917+007483FM-15+0510LSZB V0201701N001510600019N0112651N1+01101+00601999999ADDGA1021+015001999GA2071+060001999GF107991999999999999999999MA1101291999999REMMET072METAR LSZB 081320Z 17003KT 140V240 9999 FEW050 BKN200 11/06 Q1013 NOSIG;
0149066303999992011010813504+46917+007483FM-15+0510LSZB V0209999V001010600019N0112651N1+01201+00701999999ADDGA1021+015001999GA2071+060001999GF107991999999999999999999MA1101291999999REMMET064METAR LSZB 081350Z VRB02KT 9999 FEW050 BKN200 12/07 Q1013 NOSIG;
0149066303999992011010814204+46917+007483FM-15+0510LSZB V0209999V000510600019N0112651N1+01201+00701999999ADDGA1021+015001999GA2071+060001999GF107991999999999999999999MA1101291999999REMMET064METAR LSZB 081420Z VRB01KT 9999 FEW050 BKN200 12/07 Q1013 NOSIG;
0149066303999992011010814504+46917+007483FM-15+0510LSZB V0209999V001010600019N0112651N1+01201+00701999999ADDGA1021+015001999GA2071+060001999GF107991999999999999999999MA1101291999999REMMET064METAR LSZB 081450Z VRB02KT 9999 FEW050 BKN200 12/07 Q1013 NOSIG;
0157066303999992011010815204+46917+007483FM-15+0510LSZB V0201501N001510600019N0112651N1+01001+00601999999ADDGA1021+015001999GA2071+060001999GF107991999999999999999999MA1101291999999REMMET072METAR LSZB 081520Z 15003KT 120V190 9999 FEW050 BKN200 10/06 Q1013 NOSIG;
0149066303999992011010815504+46917+007483FM-15+0510LSZB V0209999V001010600019N0112651N1+00701+00501999999ADDGA1021+015001999GA2071+060001999GF107991999999999999999999MA1101291999999REMMET064METAR LSZB 081550Z VRB02KT 9999 FEW050 BKN200 07/05 Q1013 NOSIG;
0149066303999992011010816204+46917+007483FM-15+0510LSZB V0201201N003610600019N0112651N1+00601+00401999999ADDGA1021+015001999GA2071+060001999GF107991999999999999999999MA1101291999999REMMET064METAR LSZB 081620Z 12007KT 9999 FEW050 BKN200 06/04 Q1013 NOSIG;
0149066303999992011010816504+46917+007483FM-15+0510LSZB V0201001N003110600019N0112651N1+00601+00501999999ADDGA1021+015001999GA2071+060001999GF107991999999999999999999MA1101291999999REMMET064METAR LSZB 081650Z 10006KT 9999 FEW050 BKN200 06/05 Q1013 NOSIG;
0125066303999992011010817204+46917+007483AUTO +0510LSZB V0201001N002112200019N0112651N1+00401+00301999999ADDGA1021+033001999GF102991999999999999999999MA1101291999999REMMET056METAR LSZB 081720Z AUTO 10004KT 9999 FEW110 04/03 Q1013;
0125066303999992011010817504+46917+007483AUTO +0510LSZB V0209999V001510390019N0112651N1+00501+00401999999ADDGA1071+039001999GF107991999999999999999999MA1101291999999REMMET056METAR LSZB 081750Z AUTO VRB03KT 9999 BKN130 05/04 Q1013;
0077066303999992011010818204+46917+007483AUTO +0510LSZB V0209999V001019999999Y0099001N1+00401+00301999999ADDMA1101291999999REMMET050METAR LSZB 081820Z AUTO VRB02KT CAVOK 04/03 Q1013;
0077066303999992011010818504+46917+007483AUTO +0510LSZB V0201201N002119999999Y0099001N1+00301+00201999999ADDMA1101291999999REMMET050METAR LSZB 081850Z AUTO 12004KT CAVOK 03/02 Q1013;
0077066303999992011010819204+46917+007483AUTO +0510LSZB V0209999V001019999999Y0099001N1+00301+00201999999ADDMA1101291999999REMMET050METAR LSZB 081920Z AUTO VRB02KT CAVOK 03/02 Q1013;
0125066303999992011010819504+46917+007483AUTO +0510LSZB V0209999V001012200019N0112651N1+00201+00201999999ADDGA1021+042001999GF102991999999999999999999MA1101291999999REMMET056METAR LSZB 081950Z AUTO VRB02KT 9999 FEW140 02/02 Q1013;
0125066303999992011010820204+46917+007483AUTO +0510LSZB V0209999V000510390019N0112651N1+00301+00201999999ADDGA1071+039001999GF107991999999999999999999MA1101291999999REMMET056METAR LSZB 082020Z AUTO VRB01KT 9999 BKN130 03/02 Q1013;
0125066303999992011010820504+46917+007483AUTO +0510LSZB V0209999V000512200019N0112651N1+00301+00201999999ADDGA1041+036001999GF104991999999999999999999MA1101291999999REMMET056METAR LSZB 082050Z AUTO VRB01KT 9999 SCT120 03/02 Q1013;
0125066303999992011010821204+46917+007483AUTO +0510LSZB V0209999V001012200019N0112651N1+00201+00201999999ADDGA1041+033001999GF104991999999999999999999MA1101291999999REMMET056METAR LSZB 082120Z AUTO VRB02KT 9999 SCT110 02/02 Q1013;
0125066303999992011010821504+46917+007483AUTO +0510LSZB V0209999V000510360019N0112651N1+00201+00101999999ADDGA1071+036001999GF107991999999999999999999MA1101291999999REMMET056METAR LSZB 082150Z AUTO VRB01KT 9999 BKN120 02/01 Q1013;
0148066303999992011010822204+46917+007483AUTO +0510LSZB V0209999V000510510019N0112651N1+00201+00101999999ADDGA1021+036001999GA2071+051001999GF107991999999999999999999MA1101291999999REMMET063METAR LSZB 082220Z AUTO VRB01KT 9999 FEW120 BKN170 02/01 Q1013;
0125066303999992011010822504+46917+007483AUTO +0510LSZB V0201801N001512200019N0112651N1+00201+00101999999ADDGA1021+033001999GF102991999999999999999999MA1101291999999REMMET056METAR LSZB 082250Z AUTO 18003KT 9999 FEW110 02/01 Q1013;
0077066303999992011010823204+46917+007483AUTO +0510LSZB V0209999V000519999999Y0099001N1+00101+00001999999ADDMA1101291999999REMMET050METAR LSZB 082320Z AUTO VRB01KT CAVOK 01/00 Q1013;
0106066303999992011010823504+46917+007483AUTO +0510LSZB V0209999V000512200019N0080001N1+00001+00001999999ADDGF100991999999999999999999MA1101291999999REMMET053METAR LSZB 082350Z AUTO VRB01KT 8000 NSC 00/00 Q1013;
0117066303999992011010900204+46917+007483AUTO +0510LSZB V0209999V001012200019N0080001N1+00001+00001999999ADDAW1101GF100991999999999999999999MA1101291999999REMMET058METAR LSZB 090020Z AUTO VRB02KT 8000 BR NSC M00/M00 Q1013;
0125066303999992011010900504+46917+007483AUTO +0510LSZB V0209999V001010330019N0112651N1+00101+00101999999ADDGA1071+033001999GF107991999999999999999999MA1101291999999REMMET056METAR LSZB 090050Z AUTO VRB02KT 9999 BKN110 01/01 Q1013;
0133066303999992011010901204+46917+007483AUTO +0510LSZB V0201101N002112200019N0112651N1+00101+00001999999ADDGA1021+033001999GF102991999999999999999999MA1101191999999REMMET064METAR LSZB 090120Z AUTO 11004KT 350V140 9999 FEW110 01/00 Q1012;
0077066303999992011010901504+46917+007483AUTO +0510LSZB V0209999V001019999999Y0099001N1+00101+00101999999ADDMA1101291999999REMMET050METAR LSZB 090150Z AUTO VRB02KT CAVOK 01/01 Q1013;
0125066303999992011010902204+46917+007483AUTO +0510LSZB V0209999V000512200019N0112651N1+00101+00001999999ADDGA1041+042001999GF104991999999999999999999MA1101291999999REMMET056METAR LSZB 090220Z AUTO VRB01KT 9999 SCT140 01/00 Q1013;
0127066303999992011010902504+46917+007483AUTO +0510LSZB V0209999V001012200019N0112651N1+00001+00001999999ADDGA1041+042001999GF104991999999999999999999MA1101291999999REMMET058METAR LSZB 090250Z AUTO VRB02KT 9999 SCT140 M00/M00 Q1013;
0079066303999992011010903204+46917+007483AUTO +0510LSZB V0209999V001019999999Y0099001N1+00001-00101999999ADDMA1101291999999REMMET052METAR LSZB 090320Z AUTO VRB02KT CAVOK M00/M01 Q1013;
0079066303999992011010903504+46917+007483AUTO +0510LSZB V0201501N002119999999Y0099001N1+00001+00001999999ADDMA1101191999999REMMET052METAR LSZB 090350Z AUTO 15004KT CAVOK M00/M00 Q1012;
0086066303999992011010904204+46917+007483AUTO +0510LSZB V0201201N003119999999Y0099001N1+00001+00001999999ADDMA1101191999999REMMET059METAR LSZB 090420Z AUTO 12006KT 090V160 CAVOK 00/M00 Q1012;
0079066303999992011010904504+46917+007483AUTO +0510LSZB V0209999V001019999999Y0099001N1+00001-00101999999ADDMA1101191999999REMMET052METAR LSZB 090450Z AUTO VRB02KT CAVOK M00/M01 Q1012;
0126066303999992011010905204+46917+007483AUTO +0510LSZB V0201601N002110360019N0112651N1+00001-00101999999ADDGA1071+036001999GF107991999999999999999999MA1101191999999REMMET057METAR LSZB 090520Z AUTO 16004KT 9999 BKN120 00/M01 Q1012;
0142066303999992011010905504+46917+007483AUTO +0510LSZB V0209999V00051036001CN0112651N1+00001+00001999999ADDGA1071+036001999GA2041+039001999MA1101191999999REMMET064METAR LSZB 090550Z AUTO VRB01KT 9999 BKN120 SCT130 00/M00 Q1012;EQDQ01+000042SCOTCV
0128066303999992011010906204+46917+007483FM-15+0510LSZB V0209999V000512200019N0112651N1-00101-00101999999ADDGA1041+036001999GF104991999999999999999999MA1101191999999REMMET059METAR LSZB 090620Z VRB01KT 9999 SCT120 M01/M01 Q1012 NOSIG;
0128066303999992011010906504+46917+007483FM-15+0510LSZB V0209999V001012200019N0112651N1+00001-00101999999ADDGA1041+036001999GF104991999999999999999999MA1101191999999REMMET059METAR LSZB 090650Z VRB02KT 9999 SCT120 M00/M01 Q1012 NOSIG;
0128066303999992011010907204+46917+007483FM-15+0510LSZB V0209999V001010330019N0112651N1+00001+00001999999ADDGA1071+033001999GF107991999999999999999999MA1101291999999REMMET059METAR LSZB 090720Z VRB02KT 9999 BKN110 M00/M00 Q1013 NOSIG;
0126066303999992011010907504+46917+007483FM-15+0510LSZB V0209999V001010300019N0112651N1+00101+00001999999ADDGA1081+030001999GF108991999999999999999999MA1101291999999REMMET057METAR LSZB 090750Z VRB02KT 9999 OVC100 01/00 Q1013 NOSIG;
0149066303999992011010908204+46917+007483FM-15+0510LSZB V0209999V001010330019N0112651N1+00101+00101999999ADDGA1041+021001999GA2071+033001999GF107991999999999999999999MA1101291999999REMMET064METAR LSZB 090820Z VRB02KT 9999 SCT070 BKN110 01/01 Q1013 NOSIG;
0149066303999992011010908504+46917+007483FM-15+0510LSZB V0209999V000510330019N0112651N1+00101+00001999999ADDGA1041+021001999GA2071+033001999GF107991999999999999999999MA1101391999999REMMET064METAR LSZB 090850Z VRB01KT 9999 SCT078 BKN110 01/00 Q1014 NOSIG;
0149066303999992011010909204+46917+007483FM-15+0510LSZB V0209999V000510330019N0112651N1+00201+00101999999ADDGA1021+021001999GA2071+033001999GF107991999999999999999999MA1101391999999REMMET064METAR LSZB 090920Z VRB01KT 9999 FEW070 BKN110 02/01 Q1014 NOSIG;
0149066303999992011010909504+46917+007483FM-15+0510LSZB V0209999V000510270019N0112651N1+00201+00101999999ADDGA1021+021001999GA2081+027001999GF108991999999999999999999MA1101391999999REMMET064METAR LSZB 090950Z VRB01KT 9999 FEW070 OVC095 02/01 Q1014 NOSIG;
0149066303999992011010910204+46917+007483FM-15+0510LSZB V0209999V001010240019N0112651N1+00301+00101999999ADDGA1021+018001999GA2081+024001999GF108991999999999999999999MA1101391999999REMMET064METAR LSZB 091020Z VRB02KT 9999 FEW060 OVC080 03/01 Q1014 NOSIG;
0149066303999992011010910504+46917+007483FM-15+0510LSZB V0209999V001010180019N0112651N1+00301+00201999999ADDGA1021+015001999GA2081+018001999GF108991999999999999999999MA1101391999999REMMET064METAR LSZB 091050Z VRB02KT 9999 FEW055 OVC065 03/02 Q1014 NOSIG;
0149066303999992011010911204+46917+007483FM-15+0510LSZB V0209999V000510180019N0112651N1+00401+00201999999ADDGA1021+015001999GA2081+018001999GF108991999999999999999999MA1101391999999REMMET064METAR LSZB 091120Z VRB01KT 9999 FEW055 OVC065 04/02 Q1014 NOSIG;
0149066303999992011010911504+46917+007483FM-15+0510LSZB V0209999V001010210019N0112651N1+00401+00301999999ADDGA1021+015001999GA2081+021001999GF108991999999999999999999MA1101291999999REMMET064METAR LSZB 091150Z VRB02KT 9999 FEW055 OVC070 04/03 Q1013 NOSIG;
0149066303999992011010912204+46917+007483FM-15+0510LSZB V0209999V001010210019N0112651N1+00501+00301999999ADDGA1041+006601999GA2081+021001999GF108991999999999999999999MA1101291999999REMMET064METAR LSZB 091220Z VRB02KT 9999 SCT022 OVC070 05/03 Q1013 NOSIG;
0149066303999992011010912504+46917+007483FM-15+0510LSZB V0209999V001010210019N0112651N1+00501+00301999999ADDGA1041+005401999GA2081+021001999GF108991999999999999999999MA1101291999999REMMET064METAR LSZB 091250Z VRB02KT 9999 SCT018 OVC070 05/03 Q1013 NOSIG;
0149066303999992011010913204+46917+007483FM-15+0510LSZB V0209999V000510210019N0112651N1+00501+00301999999ADDGA1041+005401999GA2081+021001999GF108991999999999999999999MA1101291999999REMMET064METAR LSZB 091320Z VRB01KT 9999 SCT018 OVC070 05/03 Q1013 NOSIG;
0159066303999992011010913504+46917+007483FM-15+0510LSZB V0209999V001010210019N0112651N1+00601+00401999999ADDGA1041+006001999GA2081+021001999GF108991999999999999999999MA1101391999999MW1611REMMET068METAR LSZB 091350Z VRB02KT 9999 -RA SCT020 OVC070 06/04 Q1014 NOSIG;
0164066303999992011010914204+46917+007483FM-15+0510LSZB V0209999V000510150019N0112651N1+00501+00301999999ADDGA1041+006001999GA2081+015001999GF108991999999999999999999MA1101391999999MW1611REMMET073METAR LSZB 091420Z VRB01KT 9999 -RA SCT020 OVC050 05/03 Q1014 REDZ NOSIG;
0159066303999992011010914504+46917+007483FM-15+0510LSZB V0209999V001010150019N0080001N1+00501+00401999999ADDGA1041+006001999GA2081+015001999GF108991999999999999999999MA1101391999999MW1611REMMET068METAR LSZB 091450Z VRB02KT 8000 -RA SCT020 OVC055 05/04 Q1014 NOSIG;
0135066303999992011010915204+46917+007483AUTO +0510LSZB V0209999V002612200019N0080001N1+00601+00601999999ADDAW1611GA1021+005101999GF102991999999999999999999MA1101391999999REMMET060METAR LSZB 091520Z AUTO VRB05KT 8000 -RA FEW017 06/06 Q1014;
0189066303999992011010915504+46917+007483FM-15+0510LSZB V0202301N00311007501CN0112651N1+00801+00501999999ADDGA1021+004501999GA2041+007501999GA3081+015001999GF108991999999999999999999MA1101491999999MW1631REMMET082METAR LSZB 091550Z 23006KT 170V300 9999 RA FEW015 SCT025 OVC050 08/05 Q1015 NOSIG;
0166066303999992011010916204+46917+007483FM-15+0510LSZB V0200501N002110150019N0112651N1+00801+00501999999ADDGA1041+008401999GA2081+015001999GF108991999999999999999999MA1101491999999MW1631REMMET075METAR LSZB 091620Z 05004KT 340V120 9999 RA SCT028 OVC050 08/05 Q1015 NOSIG;
0166066303999992011010916504+46917+007483FM-15+0510LSZB V0200301N001510150019N0112651N1+00701+00401999999ADDGA1041+008401999GA2081+015001999GF108991999999999999999999MA1101491999999MW1631REMMET075METAR LSZB 091650Z 03003KT 340V090 9999 RA SCT028 OVC050 07/04 Q1015 NOSIG;
0167066303999992011010917204+46917+007483FM-15+0510LSZB V0200801N002110150019N0080001N1+00601+00501999999ADDGA1041+008401999GA2081+015001999GF108991999999999999999999MA1101491999999MW1611REMMET076METAR LSZB 091720Z 08004KT 060V120 8000 -RA SCT028 OVC050 06/05 Q1015 NOSIG;
0167066303999992011010917504+46917+007483FM-15+0510LSZB V0200801N002110150019N0080001N1+00601+00501999999ADDGA1041+007501999GA2081+015001999GF108991999999999999999999MA1101591999999MW1611REMMET076METAR LSZB 091750Z 08004KT 040V110 8000 -RA SCT025 OVC050 06/05 Q1016 NOSIG;
0144066303999992011010918204+46917+007483FM-15+0510LSZB V0200901N002110120019N0112651N1+00501+00401999999ADDGA1071+012001999GF107991999999999999999999MA1101591999999MW1611REMMET069METAR LSZB 091820Z 09004KT 050V140 9999 -RA BKN040 05/04 Q1016 NOSIG;
