0140066310999992011010100004+46983+007467FM-12+056599999V0203601N001019999999N9999999N1-00061-00131102471ADDMA1999999095651MD1710061+9999OA149900361REMSYN088AAXX  01004 06631 33/// /3602 11006 21013 39565 40247 57006 333 55300 20000 91107 91205;
0140066310999992011010101004+46983+007467FM-12+056599999V0209999C000019999999N9999999N1-00101-00141102451ADDMA1999999095621MD1610081+9999OA149900211REMSYN088AAXX  01014 06631 33/// /0000 11010 21014 39562 40245 56008 333 55300 20000 91104 91203;
0140066310999992011010102004+46983+007467FM-12+056599999V0202101N001019999999N9999999N1-00021-00091102411ADDMA1999999095611MD1610071+9999OA149900211REMSYN088AAXX  01024 06631 33/// /2102 11002 21009 39561 40241 56007 333 55300 20000 91104 91203;
0140066310999992011010103004+46983+007467FM-12+056599999V0202401N001519999999N9999999N1-00031-00101102391ADDMA1999999095581MD1610071+9999OA149900361REMSYN088AAXX  01034 06631 33/// /2403 11003 21010 39558 40239 56007 333 55300 20000 91107 91205;
0140066310999992011010104004+46983+007467FM-12+056599999V0202401N001519999999N9999999N1-00021-00121102361ADDMA1999999095561MD1810061+9999OA149900211REMSYN088AAXX  01044 06631 33/// /2403 11002 21012 39556 40236 58006 333 55300 20000 91104 91203;
0140066310999992011010105004+46983+007467FM-12+056599999V0202201N001519999999N9999999N1+00021-00131102361ADDMA1999999095571MD1710041+9999OA149900261REMSYN088AAXX  01054 06631 33/// /2203 10002 21013 39557 40236 57004 333 55300 20000 91105 91204;
0302066310999992011010106004+46983+007467FM-12+056599999V0202101N002119999999N0030001N1+00011-00171102391ADDAJ100059199999999AL19900091AY121061AY221061GF108991999999999999999999GJ100129IA1279IA2999-00109KA1999N-00101MA1999999095591MD1310011+9999MW1101OA149900361REMSYN136AAXX  01064 06631 31/30 82104 10001 21017 39559 40239 53001 71022 333 21010 3/101 43005 55002 55300 20000 70000 90768 93100 91107 91205;
0140066310999992011010107004+46983+007467FM-12+056599999V0202401N001519999999N9999999N1+00001-00141102411ADDMA1999999095611MD1310051+9999OA149900361REMSYN088AAXX  01074 06631 33/// /2403 10000 21014 39561 40241 53005 333 55300 20000 91107 91204;
0140066310999992011010108004+46983+007467FM-12+056599999V0202101N001519999999N9999999N1+00011-00171102421ADDMA1999999095621MD1319999+9999OA149900261REMSYN088AAXX  01084 06631 33/// /2103 10001 21017 39562 40242 53/// 333 55300 20022 91105 91204;
0087066310999992011010109004+46983+007467FM-12+056599999V0202101N001519999999N9999999N1+00031-00171102411ADDMA1999999095621REMSYN060AAXX  01094 06631 43/// /2103 10003 21017 39562 40241 5////;
0087066310999992011010110004+46983+007467FM-12+056599999V0201901N001519999999N9999999N1+00041-00191102401ADDMA1999999095611REMSYN060AAXX  01104 06631 43/// /1903 10004 21019 39561 40240 5////;
0140066310999992011010111004+46983+007467FM-12+056599999V0201801N002119999999N9999999N1+00101-00181102341ADDMA1999999095571MD1810051+9999OA149900311REMSYN088AAXX  01114 06631 33/// /1804 10010 21018 39557 40234 58005 333 55300 20356 91106 91204;
0141066310999992011010112004+46983+007467FM-12+056599999V0201901N001519999999N0070001N1+00131-00171102271ADDAY121061AY221061GF108991999999999999999999MA1999999095511MW1101REMSYN066AAXX  01124 06631 41/57 81903 10013 21017 39551 40227 5//// 71022;
0087066310999992011010113004+46983+007467FM-12+056599999V0202001N001519999999N9999999N1+00131-00151102191ADDMA1999999095441REMSYN060AAXX  01134 06631 43/// /2003 10013 21015 39544 40219 5////;
0087066310999992011010114004+46983+007467FM-12+056599999V0202501N001519999999N9999999N1+00111-00161102181ADDMA1999999095421REMSYN060AAXX  01144 06631 43/// /2503 10011 21016 39542 40218 5////;
0087066310999992011010115004+46983+007467FM-12+056599999V0202601N001519999999N9999999N1+00091-00141102161ADDMA1999999095401REMSYN060AAXX  01154 06631 43/// /2603 10009 21014 39540 40216 5////;
0087066310999992011010116004+46983+007467FM-12+056599999V0202901N001019999999N9999999N1+00071-00151102171ADDMA1999999095401REMSYN060AAXX  01164 06631 43/// /2902 10007 21015 39540 40217 5////;
0087066310999992011010117004+46983+007467FM-12+056599999V0203401N001519999999N9999999N1+00061-00161102191ADDMA1999999095421REMSYN060AAXX  01174 06631 43/// /3403 10006 21016 39542 40219 5////;
0196066310999992011010118004+46983+007467FM-12+056599999V0200101N001019999999N0070001N1+00041-00171102201ADDAJ100039199999999AL10600091AY121061AY221061GF108991999999999999999999IA1279MA1999999095421MW1101REMSYN088AAXX  01184 06631 41/57 80102 10004 21017 39542 40220 5//// 71022 333 43003 90766 93100;
0103066310999992011010119004+46983+007467FM-12+056599999V0200501N001019999999N9999999N1+00041-00121102181ADDMA1999999095411REMSYN076AAXX  01194 06631 33/// /0502 10004 21012 39541 40218 5//// 333 553// 20000;
0140066310999992011010120004+46983+007467FM-12+056599999V0200501N001519999999N9999999N1+00031-00141102211ADDMA1999999095431MD1310011+9999OA149900311REMSYN088AAXX  01204 06631 33/// /0503 10003 21014 39543 40221 53001 333 55300 20000 91106 91203;
0140066310999992011010121004+46983+007467FM-12+056599999V0209999C000019999999N9999999N1+00011-00171102201ADDMA1999999095421MD1410001+9999OA149900311REMSYN088AAXX  01214 06631 33/// /0000 10001 21017 39542 40220 52000 333 55300 20000 91106 91203;
0140066310999992011010122004+46983+007467FM-12+056599999V0200601N001019999999N9999999N1+00021-00181102161ADDMA1999999095381MD1810031+9999OA149900311REMSYN088AAXX  01224 06631 33/// /0602 10002 21018 39538 40216 58003 333 55300 20000 91106 91203;
0140066310999992011010123004+46983+007467FM-12+056599999V0200101N002119999999N9999999N1+00011-00161102111ADDMA1999999095331MD1710101+9999OA149900311REMSYN088AAXX  01234 06631 33/// /0104 10001 21016 39533 40211 57010 333 55300 20000 91106 91204;
0140066310999992011010200004+46983+007467FM-12+056599999V0200201N001519999999N9999999N1+00001-00171102101ADDMA1999999095321MD1710101+9999OA149900361REMSYN088AAXX  02004 06631 33/// /0203 10000 21017 39532 40210 57010 333 55300 20000 91107 91204;
0140066310999992011010201004+46983+007467FM-12+056599999V0200501N001019999999N9999999N1-00021-00221102091ADDMA1999999095311MD1710071+9999OA149900311REMSYN088AAXX  02014 06631 33/// /0502 11002 21022 39531 40209 57007 333 55300 20000 91106 91203;
0087066310999992011010202004+46983+007467FM-12+056599999V0200401N001019999999N9999999N1-00041-00251102111ADDMA1999999095321REMSYN060AAXX  02024 06631 43/// /0402 11004 21025 39532 40211 5////;
0087066310999992011010203004+46983+007467FM-12+056599999V0200801N001019999999N9999999N1-00051-00251102121ADDMA1999999095331REMSYN060AAXX  02034 06631 43/// /0802 11005 21025 39533 40212 5////;
0087066310999992011010204004+46983+007467FM-12+056599999V0200301N001019999999N9999999N1-00051-00221102121ADDMA1999999095331REMSYN060AAXX  02044 06631 43/// /0302 11005 21022 39533 40212 5////;
0087066310999992011010205004+46983+007467FM-12+056599999V0200301N001019999999N9999999N1-00051-00201102131ADDMA1999999095341REMSYN060AAXX  02054 06631 43/// /0302 11005 21020 39534 40213 5////;
0247066310999992011010206004+46983+007467FM-12+056599999V0200501N001519999999N0025001N1-00051-00221102131ADDAJ100039199999999AL10600091AY121061AY221061GF108991999999999999999999GJ100009IA1279IA2999-00109KA1999N-00061MA1999999095341MW1101REMSYN106AAXX  02064 06631 41/25 80503 11005 21022 39534 40213 5//// 71022 333 21006 3/101 43003 55000 90768 93100;
0140066310999992011010207004+46983+007467FM-12+056599999V0200401N001019999999N9999999N1-00051-00211102131ADDMA1999999095341MD1210011+9999OA149900311REMSYN088AAXX  02074 06631 33/// /0402 11005 21021 39534 40213 52001 333 55300 20000 91106 91204;
0140066310999992011010208004+46983+007467FM-12+056599999V0200401N001519999999N9999999N1-00051-00211102191ADDMA1999999095391MD1310051+9999OA149900311REMSYN088AAXX  02084 06631 33/// /0403 11005 21021 39539 40219 53005 333 55300 20025 91106 91204;
0140066310999992011010209004+46983+007467FM-12+056599999V0200301N002119999999N9999999N1-00021-00221102211ADDMA1999999095421MD1210081+9999OA149900361REMSYN088AAXX  02094 06631 33/// /0304 11002 21022 39542 40221 52008 333 55300 20148 91107 91205;
0140066310999992011010210004+46983+007467FM-12+056599999V0200301N003119999999N9999999N1+00021-00221102231ADDMA1999999095451MD1110111+9999OA149900461REMSYN088AAXX  02104 06631 33/// /0306 10002 21022 39545 40223 51011 333 55300 20378 91109 91206;
0140066310999992011010211004+46983+007467FM-12+056599999V0200301N004119999999N9999999N1+00041-00211102211ADDMA1999999095431MD1010041+9999OA149900721REMSYN088AAXX  02114 06631 33/// /0308 10004 21021 39543 40221 50004 333 55300 20454 91114 91208;
0194066310999992011010212004+46983+007467FM-12+056599999V0200201N004119999999N0080001N1+00031-00211102191ADDAY121061AY221061GF108991999999999999999999MA1999999095411MD1810011+9999MW1101OA149900721REMSYN094AAXX  02124 06631 31/58 80208 10003 21021 39541 40219 58001 71022 333 55300 20396 91114 91210;
0140066310999992011010213004+46983+007467FM-12+056599999V0200201N004119999999N9999999N1+00031-00241102191ADDMA1999999095411MD1710041+9999OA149900721REMSYN088AAXX  02134 06631 33/// /0208 10003 21024 39541 40219 57004 333 55300 20295 91114 91210;
0103066310999992011010214004+46983+007467FM-12+056599999V0200201N005119999999N9999999N1+00021-00271102211ADDMA1999999095431REMSYN076AAXX  02144 06631 33/// /0210 10002 21027 39543 40221 5//// 333 553// 20335;
0140066310999992011010215004+46983+007467FM-12+056599999V0200301N004119999999N9999999N1+00001-00341102271ADDMA1999999095481MD1210071+9999OA149900771REMSYN088AAXX  02154 06631 33/// /0308 10000 21034 39548 40227 52007 333 55300 20187 91115 91210;
0140066310999992011010216004+46983+007467FM-12+056599999V0200401N003619999999N9999999N1-00041-00421102311ADDMA1999999095511MD1110101+9999OA149900771REMSYN088AAXX  02164 06631 33/// /0407 11004 21042 39551 40231 51010 333 55300 20036 91115 91209;
0140066310999992011010217004+46983+007467FM-12+056599999V0200401N002619999999N9999999N1-00081-00471102371ADDMA1999999095551MD1110121+9999OA149900671REMSYN088AAXX  02174 06631 33/// /0405 11008 21047 39555 40237 51012 333 55300 20000 91113 91208;
0264066310999992011010218004+46983+007467FM-12+056599999V0200401N001519999999N0120001N1-00111-00451102391ADDAJ100039199999999AL19900091AY121061AY221061GF108991999999999999999999IA1279KA1120M+00051MA1999999095561MD1110081+9999MW1101OA149900771REMSYN118AAXX  02184 06631 31/62 80403 11011 21045 39556 40239 51008 71022 333 10005 43003 55300 20000 90766 93100 91115 91210;
0140066310999992011010219004+46983+007467FM-12+056599999V0200201N004119999999N9999999N1-00141-00471102411ADDMA1999999095581MD1110071+9999OA149900571REMSYN088AAXX  02194 06631 33/// /0208 11014 21047 39558 40241 51007 333 55300 20000 91111 91208;
0140066310999992011010220004+46983+007467FM-12+056599999V0200301N002619999999N9999999N1-00261-00491102481ADDMA1999999095611MD1310061+9999OA149900571REMSYN088AAXX  02204 06631 33/// /0305 11026 21049 39561 40248 53006 333 55300 20000 91111 91208;
0140066310999992011010221004+46983+007467FM-12+056599999V0200301N002619999999N9999999N1-00311-00521102511ADDMA1999999095631MD1210071+9999OA149900671REMSYN088AAXX  02214 06631 33/// /0305 11031 21052 39563 40251 52007 333 55300 20000 91113 91208;
0140066310999992011010222004+46983+007467FM-12+056599999V0200301N003619999999N9999999N1-00291-00541102531ADDMA1999999095651MD1210071+9999OA149900461REMSYN088AAXX  02224 06631 33/// /0307 11029 21054 39565 40253 52007 333 55300 20000 91109 91207;
0140066310999992011010223004+46983+007467FM-12+056599999V0200301N003119999999N9999999N1-00321-00551102551ADDMA1999999095661MD1210051+9999OA149900461REMSYN088AAXX  02234 06631 33/// /0306 11032 21055 39566 40255 52005 333 55300 20000 91109 91207;
0140066310999992011010300004+46983+007467FM-12+056599999V0200201N002119999999N9999999N1-00431-00581102581ADDMA1999999095661MD1010031+9999OA149900771REMSYN088AAXX  03004 06631 33/// /0204 11043 21058 39566 40258 50003 333 55300 20000 91115 91210;
0159066310999992011010301004+46983+007467FM-12+056599999V0200101N001519999999N9999999N1-00381-00581102551ADDMA1999999095651MD1710021+9999OA149900411REMSYN088AAXX  03014 06631 33/// /0103 11038 21058 39565 40255 57000 333 55300 20000 91108 91206;EQDQ01+000002APC3  
0140066310999992011010302004+46983+007467FM-12+056599999V0200101N002619999999N9999999N1-00391-00641102571ADDMA1999999095661MD1519999+9999OA149900311REMSYN088AAXX  03024 06631 33/// /0105 11039 21064 39566 40257 55/// 333 55300 20000 91106 91205;
0087066310999992011010303004+46983+007467FM-12+056599999V0200301N002619999999N9999999N1-00561-00721102611ADDMA1999999095661REMSYN060AAXX  03034 06631 43/// /0305 11056 21072 39566 40261 5////;
0140066310999992011010304004+46983+007467FM-12+056599999V0200301N003119999999N9999999N1-00581-00761102601ADDMA1999999095641MD1810011+9999OA149900461REMSYN088AAXX  03044 06631 33/// /0306 11058 21076 39564 40260 58001 333 55300 20000 91109 91207;
0140066310999992011010305004+46983+007467FM-12+056599999V0200301N003619999999N9999999N1-00571-00781102581ADDMA1999999095631MD1610031+9999OA149900511REMSYN088AAXX  03054 06631 33/// /0307 11057 21078 39563 40258 56003 333 55300 20000 91110 91208;
0274066310999992011010306004+46983+007467FM-12+056599999V0200301N003612200019N0200001N1-00671-00861102611ADDAJ100039199999999AL19900091GF101991999999999999999999GJ100009IA1279IA2999-00809KA1999N-00631MA1999999095631MD1610031+9999OA149900571REMSYN130AAXX  03064 06631 32/70 10307 11067 21086 39563 40261 56003 333 21063 3/108 43003 55000 55300 20000 70000 90768 93100 91111 91208;
0140066310999992011010307004+46983+007467FM-12+056599999V0200301N003619999999N9999999N1-00691-00871102601ADDMA1999999095611MD1810031+9999OA149900571REMSYN088AAXX  03074 06631 33/// /0307 11069 21087 39561 40260 58003 333 55300 20000 91111 91208;
0140066310999992011010308004+46983+007467FM-12+056599999V0200301N003619999999N9999999N1-00671-00871102591ADDMA1999999095611MD1719999+9999OA149900511REMSYN088AAXX  03084 06631 33/// /0307 11067 21087 39561 40259 57/// 333 55304 20065 91110 91208;
0103066310999992011010309004+46983+007467FM-12+056599999V0200301N003619999999N9999999N1-00601-00821102601ADDMA1999999095641REMSYN076AAXX  03094 06631 33/// /0307 11060 21082 39564 40260 5//// 333 553// 20468;
0140066310999992011010310004+46983+007467FM-12+056599999V0200301N003119999999N9999999N1-00431-00731102581ADDMA1999999095661MD1210051+9999OA149900511REMSYN088AAXX  03104 06631 33/// /0306 11043 21073 39566 40258 52005 333 553// 20889 91110 91208;
0140066310999992011010311004+46983+007467FM-12+056599999V0200201N003119999999N9999999N1-00311-00661102501ADDMA1999999095621MD1010011+9999OA149900511REMSYN088AAXX  03114 06631 33/// /0206 11031 21066 39562 40250 50001 333 553// 2//// 91110 91207;
0166066310999992011010312004+46983+007467FM-12+056599999V0200501N001512200019N0200001N1-00251-00621102421ADDGF101991999999999999999999MA1999999095561MD1710081+9999OA149900571REMSYN088AAXX  03124 06631 32/70 10503 11025 21062 39556 40242 57008 333 553// 2//// 91111 91208;
0140066310999992011010313004+46983+007467FM-12+056599999V0209999C003119999999N9999999N1-00161-00631102381ADDMA1999999095541MD1710121+9999OA149900511REMSYN088AAXX  03134 06631 33/// /0006 11016 21063 39554 40238 57012 333 553// 2//// 91110 91206;
0103066310999992011010314004+46983+007467FM-12+056599999V0200301N002119999999N9999999N1-00141-00621102361ADDMA1999999095531REMSYN076AAXX  03144 06631 33/// /0304 11014 21062 39553 40236 5//// 333 553// 20907;
0103066310999992011010315004+46983+007467FM-12+056599999V0200301N002619999999N9999999N1-00191-00631102381ADDMA1999999095541REMSYN076AAXX  03154 06631 33/// /0305 11019 21063 39554 40238 5//// 333 553// 20497;
0140066310999992011010316004+46983+007467FM-12+056599999V0200401N002619999999N9999999N1-00321-00661102401ADDMA1999999095521MD1710021+9999OA149900511REMSYN088AAXX  03164 06631 33/// /0405 11032 21066 39552 40240 57002 333 55305 20101 91110 91206;
0140066310999992011010317004+46983+007467FM-12+056599999V0200401N002619999999N9999999N1-00401-00701102421ADDMA1999999095521MD1710011+9999OA149900511REMSYN088AAXX  03174 06631 33/// /0405 11040 21070 39552 40242 57001 333 55300 20000 91110 91206;
0236066310999992011010318004+46983+007467FM-12+056599999V0200301N001512200019N0500001N1-00591-00761102471ADDAJ100039199999999AL19900091GF101991999999999999999999IA1279KA1120M-00141MA1999999095521MD1510021+9999OA149900511REMSYN112AAXX  03184 06631 32/84 10303 11059 21076 39552 40247 55002 333 11014 43003 55300 20000 90766 93100 91110 91208;
0140066310999992011010319004+46983+007467FM-12+056599999V0200301N002119999999N9999999N1-00671-00821102481ADDMA1999999095511MD1710011+9999OA149900361REMSYN088AAXX  03194 06631 33/// /0304 11067 21082 39551 40248 57001 333 55300 20000 91107 91205;
0140066310999992011010320004+46983+007467FM-12+056599999V0209999C000019999999N9999999N1-00751-00901102481ADDMA1999999095491MD1710031+9999OA149900311REMSYN088AAXX  03204 06631 33/// /0000 11075 21090 39549 40248 57003 333 55300 20000 91106 91205;
0140066310999992011010321004+46983+007467FM-12+056599999V0201801N000519999999N9999999N1-00771-00891102481ADDMA1999999095481MD1610041+9999OA149900511REMSYN088AAXX  03214 06631 33/// /1801 11077 21089 39548 40248 56004 333 55300 20000 91110 91206;
0140066310999992011010322004+46983+007467FM-12+056599999V0201801N000519999999N9999999N1-00741-00891102481ADDMA1999999095491MD1710021+9999OA149900101REMSYN088AAXX  03224 06631 33/// /1801 11074 21089 39549 40248 57002 333 55300 20000 91102 91201;
0140066310999992011010323004+46983+007467FM-12+056599999V0202101N000519999999N9999999N1-00661-00821102481ADDMA1999999095511MD1310021+9999OA149900101REMSYN088AAXX  03234 06631 33/// /2101 11066 21082 39551 40248 53002 333 55300 20000 91102 91201;
0140066310999992011010400004+46983+007467FM-12+056599999V0202101N000519999999N9999999N1-00711-00861102471ADDMA1999999095491MD1010011+9999OA149900511REMSYN088AAXX  04004 06631 33/// /2101 11071 21086 39549 40247 50001 333 55300 20000 91110 91206;
0140066310999992011010401004+46983+007467FM-12+056599999V0202501N001019999999N9999999N1-00631-00811102391ADDMA1999999095431MD1810061+9999OA149900211REMSYN088AAXX  04014 06631 33/// /2502 11063 21081 39543 40239 58006 333 55300 20000 91104 91203;
0140066310999992011010402004+46983+007467FM-12+056599999V0202501N001519999999N9999999N1-00531-00741102341ADDMA1999999095411MD1619999+9999OA149900151REMSYN088AAXX  04024 06631 33/// /2503 11053 21074 39541 40234 56/// 333 55300 20000 91103 91203;
0140066310999992011010403004+46983+007467FM-12+056599999V0202201N001019999999N9999999N1-00461-00691102281ADDMA1999999095371MD1610121+9999OA149900211REMSYN088AAXX  04034 06631 33/// /2202 11046 21069 39537 40228 56012 333 55300 20000 91104 91203;
0140066310999992011010404004+46983+007467FM-12+056599999V0201801N001519999999N9999999N1-00411-00751102211ADDMA1999999095321MD1610111+9999OA149900211REMSYN088AAXX  04044 06631 33/// /1803 11041 21075 39532 40221 56011 333 55300 20000 91104 91203;
0140066310999992011010405004+46983+007467FM-12+056599999V0201501N001519999999N9999999N1-00391-00711102171ADDMA1999999095291MD1710121+9999OA149900261REMSYN088AAXX  04054 06631 33/// /1503 11039 21071 39529 40217 57012 333 55300 20000 91105 91203;
0302066310999992011010406004+46983+007467FM-12+056599999V0200401N002119999999N0100001N1-00501-00691102171ADDAJ100039199999999AL19900091AY111061AY211061GF107991999999999999999999GJ104689IA1279IA2999-01209KA1999N-00851MA1999999095261MD1710111+9999MW1101OA149900311REMSYN136AAXX  04064 06631 31/60 70404 11050 21069 39526 40217 57011 71011 333 21085 3/112 43003 55078 55300 20000 70000 90768 93100 91106 91205;
0140066310999992011010407004+46983+007467FM-12+056599999V0200101N001519999999N9999999N1-00491-00691102141ADDMA1999999095241MD1710081+9999OA149900311REMSYN088AAXX  04074 06631 33/// /0103 11049 21069 39524 40214 57008 333 55300 20000 91106 91204;
0140066310999992011010408004+46983+007467FM-12+056599999V0200201N001519999999N9999999N1-00471-00661102161ADDMA1999999095261MD1719999+9999OA149900311REMSYN088AAXX  04084 06631 33/// /0203 11047 21066 39526 40216 57/// 333 55300 20007 91106 91204;
0103066310999992011010409004+46983+007467FM-12+056599999V0200201N001519999999N9999999N1-00461-00671102151ADDMA1999999095251REMSYN076AAXX  04094 06631 33/// /0203 11046 21067 39525 40215 5//// 333 553// 20047;
0140066310999992011010410004+46983+007467FM-12+056599999V0203001N000519999999N9999999N1-00351-00681102141ADDMA1999999095271MD1210031+9999OA149900261REMSYN088AAXX  04104 06631 33/// /3001 11035 21068 39527 40214 52003 333 55300 20263 91105 91203;
0140066310999992011010411004+46983+007467FM-12+056599999V0200301N001519999999N9999999N1-00331-00621102091ADDMA1999999095231MD1710031+9999OA149900261REMSYN088AAXX  04114 06631 33/// /0303 11033 21062 39523 40209 57003 333 55300 20328 91105 91203;
0194066310999992011010412004+46983+007467FM-12+056599999V0200301N001519999999N0070001N1-00321-00621102011ADDAY121061AY221061GF108991999999999999999999MA1999999095161MD1810091+9999MW1101OA149900311REMSYN094AAXX  04124 06631 31/57 80303 11032 21062 39516 40201 58009 71022 333 55300 20313 91106 91204;
0140066310999992011010413004+46983+007467FM-12+056599999V0200401N000519999999N9999999N1-00281-00611101951ADDMA1999999095111MD1710161+9999OA149900261REMSYN088AAXX  04134 06631 33/// /0401 11028 21061 39511 40195 57016 333 55300 20400 91105 91203;
0103066310999992011010414004+46983+007467FM-12+056599999V0200401N000519999999N9999999N1-00241-00561101891ADDMA1999999095071REMSYN076AAXX  04144 06631 33/// /0401 11024 21056 39507 40189 5//// 333 553// 20256;
0087066310999992011010415004+46983+007467FM-12+056599999V0200201N001519999999N9999999N1-00261-00561101881ADDMA1999999095051REMSYN060AAXX  04154 06631 43/// /0203 11026 21056 39505 40188 5////;
0140066310999992011010416004+46983+007467FM-12+056599999V0209999C001019999999N9999999N1-00271-00561101881ADDMA1999999095051MD1710061+9999OA149900211REMSYN088AAXX  04164 06631 33/// /0002 11027 21056 39505 40188 57006 333 55300 20025 91104 91203;
0140066310999992011010417004+46983+007467FM-12+056599999V0200101N001019999999N9999999N1-00281-00561101911ADDMA1999999095071MD1510001+9999OA149900211REMSYN088AAXX  04174 06631 33/// /0102 11028 21056 39507 40191 55000 333 55300 20000 91104 91203;
0264066310999992011010418004+46983+007467FM-12+056599999V0209999C001019999999N0040001N1-00291-00561101931ADDAJ100039199999999AL19900091AY121061AY221061GF108991999999999999999999IA1279KA1120M-00241MA1999999095091MD1210041+9999MW1101OA149900311REMSYN118AAXX  04184 06631 31/40 80002 11029 21056 39509 40193 52004 71022 333 11024 43003 55300 20000 90766 93100 91106 91204;
0140066310999992011010419004+46983+007467FM-12+056599999V0209999C001019999999N9999999N1-00321-00511101941ADDMA1999999095091MD1110041+9999OA149900151REMSYN088AAXX  04194 06631 33/// /0002 11032 21051 39509 40194 51004 333 55300 20000 91103 91203;
0140066310999992011010420004+46983+007467FM-12+056599999V0200101N001019999999N9999999N1-00311-00491101901ADDMA1999999095061MD1810011+9999OA149900151REMSYN088AAXX  04204 06631 33/// /0102 11031 21049 39506 40190 58001 333 55300 20000 91103 91202;
0140066310999992011010421004+46983+007467FM-12+056599999V0200201N001019999999N9999999N1-00301-00511101881ADDMA1999999095041MD1710051+9999OA149900211REMSYN088AAXX  04214 06631 33/// /0202 11030 21051 39504 40188 57005 333 55300 20000 91104 91203;
0140066310999992011010422004+46983+007467FM-12+056599999V0201001N000519999999N9999999N1-00301-00501101871ADDMA1999999095031MD1710061+9999OA149900211REMSYN088AAXX  04224 06631 33/// /1001 11030 21050 39503 40187 57006 333 55300 20000 91104 91203;
0140066310999992011010423004+46983+007467FM-12+056599999V0201801N001019999999N9999999N1-00231-00481101861ADDMA1999999095041MD1510021+9999OA149900151REMSYN088AAXX  04234 06631 33/// /1802 11023 21048 39504 40186 55002 333 55300 20000 91103 91202;
0140066310999992011010500004+46983+007467FM-12+056599999V0201901N001519999999N9999999N1-00211-00521101821ADDMA1999999095011MD1810031+9999OA149900261REMSYN088AAXX  05004 06631 33/// /1903 11021 21052 39501 40182 58003 333 55300 20000 91105 91203;
0140066310999992011010501004+46983+007467FM-12+056599999V0201701N001519999999N9999999N1-00231-00571101811ADDMA1999999094991MD1710041+9999OA149900261REMSYN088AAXX  05014 06631 33/// /1703 11023 21057 39499 40181 57004 333 55300 20000 91105 91204;
0140066310999992011010502004+46983+007467FM-12+056599999V0201601N002119999999N9999999N1-00251-00601101801ADDMA1999999094981MD1610061+9999OA149900361REMSYN088AAXX  05024 06631 33/// /1604 11025 21060 39498 40180 56006 333 55300 20000 91107 91205;
0087066310999992011010503004+46983+007467FM-12+056599999V0201401N001519999999N9999999N1-00251-00581101811ADDMA1999999094991REMSYN060AAXX  05034 06631 43/// /1403 11025 21058 39499 40181 5////;
0140066310999992011010504004+46983+007467FM-12+056599999V0201501N003119999999N9999999N1-00271-00611101761ADDMA1999999094941MD1710051+9999OA149900461REMSYN088AAXX  05044 06631 33/// /1506 11027 21061 39494 40176 57005 333 55300 20000 91109 91206;
0140066310999992011010505004+46983+007467FM-12+056599999V0201501N002119999999N9999999N1-00271-00641101751ADDMA1999999094931MD1710051+9999OA149900461REMSYN088AAXX  05054 06631 33/// /1504 11027 21064 39493 40175 57005 333 55300 20000 91109 91206;
0274066310999992011010506004+46983+007467FM-12+056599999V0201201N000519999999N0300001N1-00321-00591101791ADDAJ100039199999999AL19900091GF108991999999999999999999GJ100009IA1279IA2999-00509KA1999N-00321MA1999999094951MD1510041+9999OA149900461REMSYN130AAXX  05064 06631 32/80 81201 11032 21059 39495 40179 55004 333 21032 3/105 43003 55000 55300 20000 70000 90768 93100 91109 91206;
0140066310999992011010507004+46983+007467FM-12+056599999V0201601N001519999999N9999999N1-00351-00661101781ADDMA1999999094941MD1510001+9999OA149900311REMSYN088AAXX  05074 06631 33/// /1603 11035 21066 39494 40178 55000 333 55300 20000 91106 91204;
0140066310999992011010508004+46983+007467FM-12+056599999V0201801N000519999999N9999999N1-00401-00701101841ADDMA1999999094981MD1219999+9999OA149900311REMSYN088AAXX  05084 06631 33/// /1801 11040 21070 39498 40184 52/// 333 55304 20083 91106 91204;
0140066310999992011010509004+46983+007467FM-12+056599999V0201901N001019999999N9999999N1-00291-00671101791ADDMA1999999094961MD1210011+9999OA149900461REMSYN088AAXX  05094 06631 33/// /1902 11029 21067 39496 40179 52001 333 55306 20468 91109 91206;
0140066310999992011010510004+46983+007467FM-12+056599999V0201501N002619999999N9999999N1-00111-00611101711ADDMA1999999094931MD1810011+9999OA149900411REMSYN088AAXX  05104 06631 33/// /1505 11011 21061 39493 40171 58001 333 55306 20936 91108 91205;
0140066310999992011010511004+46983+007467FM-12+056599999V0201401N001519999999N9999999N1-00071-00551101651ADDMA1999999094881MD1810101+9999OA149900411REMSYN088AAXX  05114 06631 33/// /1403 11007 21055 39488 40165 58010 333 553// 2//// 91108 91205;
0103066310999992011010512004+46983+007467FM-12+056599999V0202501N001019999999N9999999N1+00031-00461101521ADDMA1999999094791REMSYN076AAXX  05124 06631 33/// /2502 10003 21046 39479 40152 5//// 333 553// 2////;
0140066310999992011010513004+46983+007467FM-12+056599999V0202801N001019999999N9999999N1+00051-00451101501ADDMA1999999094771MD1610161+9999OA149900311REMSYN088AAXX  05134 06631 33/// /2802 10005 21045 39477 40150 56016 333 553// 2//// 91106 91204;
0087066310999992011010514004+46983+007467FM-12+056599999V0201901N001019999999N9999999N1+00131-00451101431ADDMA1999999094731REMSYN060AAXX  05144 06631 43/// /1902 10013 21045 39473 40143 5////;
0087066310999992011010515004+46983+007467FM-12+056599999V0201801N001519999999N9999999N1+00141-00531101391ADDMA1999999094691REMSYN060AAXX  05154 06631 43/// /1803 10014 21053 39469 40139 5////;
0140066310999992011010516004+46983+007467FM-12+056599999V0201701N001019999999N9999999N1-00021-00541101421ADDMA1999999094681MD1710091+9999OA149900211REMSYN088AAXX  05164 06631 33/// /1702 11002 21054 39468 40142 57009 333 55305 20122 91104 91203;
0140066310999992011010517004+46983+007467FM-12+056599999V0201901N002119999999N9999999N1-00101-00551101421ADDMA1999999094661MD1710071+9999OA149900461REMSYN088AAXX  05174 06631 33/// /1904 11010 21055 39466 40142 57007 333 55300 20000 91109 91205;
0159066310999992011010518004+46983+007467FM-12+056599999V0201701N002619999999N9999999N1-00131-00561101421ADDKA1120M+00141MA1999999094651MD1719999+9999OA149900461REMSYN094AAXX  05184 06631 33/// /1705 11013 21056 39465 40142 57/// 333 10014 55300 20000 91109 91205;
0140066310999992011010519004+46983+007467FM-12+056599999V0202301N000519999999N9999999N1-00271-00581101431ADDMA1999999094631MD1710051+9999OA149900411REMSYN088AAXX  05194 06631 33/// /2301 11027 21058 39463 40143 57005 333 55300 20000 91108 91205;
0140066310999992011010520004+46983+007467FM-12+056599999V0201901N001019999999N9999999N1-00271-00571101371ADDMA1999999094571MD1719999+9999OA149900311REMSYN088AAXX  05204 06631 33/// /1902 11027 21057 39457 40137 57/// 333 55300 20000 91106 91204;
0103066310999992011010521004+46983+007467FM-12+056599999V0202001N002119999999N9999999N1-00231-00561101331ADDMA1999999094551REMSYN076AAXX  05214 06631 33/// /2004 11023 21056 39455 40133 5//// 333 553// 20000;
0140066310999992011010522004+46983+007467FM-12+056599999V0202001N002119999999N9999999N1-00281-00561101331ADDMA1999999094531MD1710101+9999OA149900461REMSYN088AAXX  05224 06631 33/// /2004 11028 21056 39453 40133 57010 333 55300 20000 91109 91205;
0140066310999992011010523004+46983+007467FM-12+056599999V0202101N001019999999N9999999N1-00261-00541101311ADDMA1999999094521MD1719999+9999OA149900461REMSYN088AAXX  05234 06631 33/// /2102 11026 21054 39452 40131 57/// 333 55300 20000 91109 91205;
0087066310999992011010600004+46983+007467FM-12+056599999V0202301N001019999999N9999999N1-00231-00491101231ADDMA1999999094451REMSYN060AAXX  06004 06631 43/// /2302 11023 21049 39445 40123 5////;
0087066310999992011010601004+46983+007467FM-12+056599999V0202401N001019999999N9999999N1-00201-00471101191ADDMA1999999094421REMSYN060AAXX  06014 06631 43/// /2402 11020 21047 39442 40119 5////;
0087066310999992011010602004+46983+007467FM-12+056599999V0202401N001019999999N9999999N1-00161-00431101161ADDMA1999999094401REMSYN060AAXX  06024 06631 43/// /2402 11016 21043 39440 40116 5////;
0087066310999992011010603004+46983+007467FM-12+056599999V0202201N001519999999N9999999N1-00121-00411101171ADDMA1999999094421REMSYN060AAXX  06034 06631 43/// /2203 11012 21041 39442 40117 5////;
0087066310999992011010604004+46983+007467FM-12+056599999V0201901N002119999999N9999999N1-00011-00281101111ADDMA1999999094391REMSYN060AAXX  06044 06631 43/// /1904 11001 21028 39439 40111 5////;
0087066310999992011010605004+46983+007467FM-12+056599999V0201801N002619999999N9999999N1+00041-00261101111ADDMA1999999094411REMSYN060AAXX  06054 06631 43/// /1805 10004 21026 39441 40111 5////;
0247066310999992011010606004+46983+007467FM-12+056599999V0201901N001519999999N0200001N1+00071-00251101081ADDAJ100029199999999AL10600091AY161061AY221061GF108991999999999999999999GJ104209IA1279IA2999-00809KA1999N-00351MA1999999094391MW1021REMSYN106AAXX  06064 06631 41/70 81903 10007 21025 39439 40108 5//// 70262 333 21035 3/108 43002 55070 90768 93100;
0087066310999992011010607004+46983+007467FM-12+056599999V0202001N000519999999N9999999N1+00031-00261101091ADDMA1999999094391REMSYN060AAXX  06074 06631 43/// /2001 10003 21026 39439 40109 5////;
0103066310999992011010608004+46983+007467FM-12+056599999V0201801N003119999999N9999999N1+00111-00291101081ADDMA1999999094401REMSYN076AAXX  06084 06631 33/// /1806 10011 21029 39440 40108 5//// 333 553// 20025;
0087066310999992011010609004+46983+007467FM-12+056599999V0201901N001519999999N9999999N1+00141-00161101101ADDMA1999999094421REMSYN060AAXX  06094 06631 43/// /1903 10014 21016 39442 40110 5////;
0146066310999992011010610004+46983+007467FM-12+056599999V0201601N001519999999N9999999N1+00271-00011101071ADDMA1999999094421MD1210031+9999OA149900511REMSYN094AAXX  06104 06631 23/// /1603 10027 21001 39442 40107 52003 333 55300 20385 69915 91110 91205;
0140066310999992011010611004+46983+007467FM-12+056599999V0201801N001519999999N9999999N1+00301-00031101061ADDMA1999999094421MD1210021+9999OA149900411REMSYN088AAXX  06114 06631 33/// /1803 10030 21003 39442 40106 52002 333 55300 20580 91108 91205;
0208066310999992011010612004+46983+007467FM-12+056599999V0201701N002119999999N0600001N1+00391+00011100961ADDAA106000091GF108991999999999999999999MA1999999094351MD1710071+9999OA149900511REMSYN100AAXX  06124 06631 02/86 81704 10039 20001 39435 40096 57007 69911 333 55301 20788 60005 91110 91207;EQDQ01  00002PRCP06
0140066310999992011010613004+46983+007467FM-12+056599999V0202101N001019999999N9999999N1+00491+00051100911ADDMA1999999094331MD1710091+9999OA149900411REMSYN088AAXX  06134 06631 33/// /2102 10049 20005 39433 40091 57009 333 55300 20684 91108 91204;
0087066310999992011010614004+46983+007467FM-12+056599999V0201901N001019999999N9999999N1+00521+00081100911ADDMA1999999094331REMSYN060AAXX  06144 06631 43/// /1902 10052 20008 39433 40091 5////;
0087066310999992011010615004+46983+007467FM-12+056599999V0201501N002119999999N9999999N1+00401+00111100971ADDMA1999999094361REMSYN060AAXX  06154 06631 43/// /1504 10040 20011 39436 40097 5////;
0146066310999992011010616004+46983+007467FM-12+056599999V0201701N002119999999N9999999N1+00411+00111100991ADDMA1999999094381MD1210051+9999OA149900461REMSYN094AAXX  06164 06631 23/// /1704 10041 20011 39438 40099 52005 333 55300 20032 69915 91109 91204;
0146066310999992011010617004+46983+007467FM-12+056599999V0201901N001519999999N9999999N1+00371+00191101061ADDMA1999999094441MD1210111+9999OA149900461REMSYN094AAXX  06174 06631 23/// /1903 10037 20019 39444 40106 52011 333 55300 20000 69965 91109 91204;
0287066310999992011010618004+46983+007467FM-12+056599999V0201601N003619999999N0300001N1+00371+00201101071ADDAA112001091AJ100029199999999AL19900091AY161061AY221061GF108991999999999999999999IA1309KA1120M+00531MA1999999094451MD1210091+9999MW1211OA149900511REMSYN130AAXX  06184 06631 01/80 81607 10037 20020 39445 40107 52009 69992 72162 333 10053 42002 55300 20000 60005 90766 93100 91110 91207;
0146066310999992011010619004+46983+007467FM-12+056599999V0201901N001519999999N9999999N1+00381+00231101161ADDMA1999999094531MD1210151+9999OA149900511REMSYN094AAXX  06194 06631 23/// /1903 10038 20023 39453 40116 52015 333 55300 20000 69955 91110 91207;
0146066310999992011010620004+46983+007467FM-12+056599999V0201701N001519999999N9999999N1+00341+00201101191ADDMA1999999094551MD1219999+9999OA149900571REMSYN094AAXX  06204 06631 23/// /1703 10034 20020 39455 40119 52/// 333 55300 20000 69935 91111 91207;
0146066310999992011010621004+46983+007467FM-12+056599999V0201901N002119999999N9999999N1+00391+00191101231ADDMA1999999094601MD1219999+9999OA149900571REMSYN094AAXX  06214 06631 23/// /1904 10039 20019 39460 40123 52/// 333 55300 20000 69915 91111 91207;
0140066310999992011010622004+46983+007467FM-12+056599999V0201701N001019999999N9999999N1+00321+00201101281ADDMA1999999094631MD1210101+9999OA149900571REMSYN088AAXX  06224 06631 33/// /1702 10032 20020 39463 40128 52010 333 55300 20000 91111 91207;
0103066310999992011010623004+46983+007467FM-12+056599999V0201901N001019999999N9999999N1+00331+00201101341ADDMA1999999094691REMSYN076AAXX  06234 06631 33/// /1902 10033 20020 39469 40134 5//// 333 553// 20000;
0087066310999992011010700004+46983+007467FM-12+056599999V0202201N000519999999N9999999N1+00291+00181101351ADDMA1999999094691REMSYN060AAXX  07004 06631 43/// /2201 10029 20018 39469 40135 5////;
0087066310999992011010701004+46983+007467FM-12+056599999V0201701N001019999999N9999999N1+00351+00211101331ADDMA1999999094691REMSYN060AAXX  07014 06631 43/// /1702 10035 20021 39469 40133 5////;
0087066310999992011010702004+46983+007467FM-12+056599999V0209999C000019999999N9999999N1+00311+00211101401ADDMA1999999094741REMSYN060AAXX  07024 06631 43/// /0000 10031 20021 39474 40140 5////;
0087066310999992011010703004+46983+007467FM-12+056599999V0201801N001019999999N9999999N1+00301+00221101451ADDMA1999999094791REMSYN060AAXX  07034 06631 43/// /1802 10030 20022 39479 40145 5////;
0146066310999992011010704004+46983+007467FM-12+056599999V0201801N001019999999N9999999N1+00281+00201101471ADDMA1999999094801MD1210111+9999OA149900211REMSYN094AAXX  07044 06631 23/// /1802 10028 20020 39480 40147 52011 333 55300 20000 69945 91104 91203;
0146066310999992011010705004+46983+007467FM-12+056599999V0202301N000519999999N9999999N1+00341+00251101411ADDMA1999999094761MD1010021+9999OA149900211REMSYN094AAXX  07054 06631 23/// /2301 10034 20025 39476 40141 50002 333 55300 20000 69975 91104 91203;
0335066310999992011010706004+46983+007467FM-12+056599999V0201801N000519999999N0300001N1+00311+00241101431ADDAA112003091AJ100019199999999AL13000391AL29900091AY161061AY221061GF107991999999999999999999GJ100129IA1309IA2999+00109KA1999N+00201MA1999999094771MD1010021+9999MW1021OA149900571REMSYN148AAXX  07064 06631 01/80 71801 10031 20024 39477 40143 50002 60032 70262 333 20020 3/001 42001 55002 55300 20000 69945 70035 90768 93100 91111 91207;
0140066310999992011010707004+46983+007467FM-12+056599999V0202201N001019999999N9999999N1+00321+00241101431ADDMA1999999094771MD1710031+9999OA149900361REMSYN088AAXX  07074 06631 33/// /2202 10032 20024 39477 40143 57003 333 55300 20000 91107 91203;
0103066310999992011010708004+46983+007467FM-12+056599999V0202301N001019999999N9999999N1+00301+00231101481ADDMA1999999094811REMSYN076AAXX  07084 06631 33/// /2302 10030 20023 39481 40148 5//// 333 553// 20032;
0087066310999992011010709004+46983+007467FM-12+056599999V0209999C000019999999N9999999N1+00261+00201101501ADDMA1999999094821REMSYN060AAXX  07094 06631 43/// /0000 10026 20020 39482 40150 5////;
0140066310999992011010710004+46983+007467FM-12+056599999V0202601N000519999999N9999999N1+00481+00381101451ADDMA1999999094831MD1210061+9999OA149900101REMSYN088AAXX  07104 06631 33/// /2601 10048 20038 39483 40145 52006 333 55308 20796 91102 91201;
0140066310999992011010711004+46983+007467FM-12+056599999V0202101N001019999999N9999999N1+00601+00431101411ADDMA1999999094821MD1210011+9999OA149900151REMSYN088AAXX  07114 06631 33/// /2102 10060 20043 39482 40141 52001 333 55309 20896 91103 91202;
0194066310999992011010712004+46983+007467FM-12+056599999V0201601N001519999999N0550001N1+00831+00491101291ADDAY101061AY201061GF105991999999999999999999MA1999999094761MD1710061+9999MW1051OA149900361REMSYN094AAXX  07124 06631 31/85 51603 10083 20049 39476 40129 57006 70500 333 553// 2//// 91107 91203;
0140066310999992011010713004+46983+007467FM-12+056599999V0202301N000519999999N9999999N1+00901+00561101241ADDMA1999999094731MD1710101+9999OA149900261REMSYN088AAXX  07134 06631 33/// /2301 10090 20056 39473 40124 57010 333 553// 2//// 91105 91203;
0087066310999992011010714004+46983+007467FM-12+056599999V0201701N001019999999N9999999N1+00961+00561101241ADDMA1999999094741REMSYN060AAXX  07144 06631 43/// /1702 10096 20056 39474 40124 5////;
0087066310999992011010715004+46983+007467FM-12+056599999V0209999C000019999999N9999999N1+00731+00501101321ADDMA1999999094771REMSYN060AAXX  07154 06631 43/// /0000 10073 20050 39477 40132 5////;
0140066310999992011010716004+46983+007467FM-12+056599999V0201801N002119999999N9999999N1+00781+00511101331ADDMA1999999094791MD1110061+9999OA149900311REMSYN088AAXX  07164 06631 33/// /1804 10078 20051 39479 40133 51006 333 55300 20058 91106 91204;
0140066310999992011010717004+46983+007467FM-12+056599999V0201501N000519999999N9999999N1+00561+00391101401ADDMA1999999094801MD1210061+9999OA149900361REMSYN088AAXX  07174 06631 33/// /1501 10056 20039 39480 40140 52006 333 55300 20000 91107 91204;
0122066310999992011010718004+46983+007467FM-12+056599999V0201901N002619999999N9999999N1+00731+00481101381ADDKA1120M+01011MA1999999094821REMSYN082AAXX  07184 06631 33/// /1905 10073 20048 39482 40138 5//// 333 10101 553// 20000;
0140066310999992011010719004+46983+007467FM-12+056599999V0201701N001519999999N9999999N1+00511+00361101381ADDMA1999999094771MD1819999+9999OA149900511REMSYN088AAXX  07194 06631 33/// /1703 10051 20036 39477 40138 58/// 333 55300 20000 91110 91205;
0087066310999992011010720004+46983+007467FM-12+056599999V0201801N002619999999N9999999N1+00591+00391101341ADDMA1999999094751REMSYN060AAXX  07204 06631 43/// /1805 10059 20039 39475 40134 5////;
0087066310999992011010721004+46983+007467FM-12+056599999V0202001N000519999999N9999999N1+00521+00371101381ADDMA1999999094771REMSYN060AAXX  07214 06631 43/// /2001 10052 20037 39477 40138 5////;
0140066310999992011010722004+46983+007467FM-12+056599999V0202001N000519999999N9999999N1+00461+00331101421ADDMA1999999094801MD1210031+9999OA149900361REMSYN088AAXX  07224 06631 33/// /2001 10046 20033 39480 40142 52003 333 55300 20000 91107 91203;
0103066310999992011010723004+46983+007467FM-12+056599999V0201801N001019999999N9999999N1+00471+00331101471ADDMA1999999094851REMSYN076AAXX  07234 06631 33/// /1802 10047 20033 39485 40147 5//// 333 553// 20000;
0103066310999992011010800004+46983+007467FM-12+056599999V0201201N000519999999N9999999N1+00431+00301101451ADDMA1999999094821REMSYN076AAXX  08004 06631 33/// /1201 10043 20030 39482 40145 5//// 333 553// 20000;
0087066310999992011010801004+46983+007467FM-12+056599999V0200201N000519999999N9999999N1+00371+00261101471ADDMA1999999094821REMSYN060AAXX  08014 06631 43/// /0201 10037 20026 39482 40147 5////;
0087066310999992011010802004+46983+007467FM-12+056599999V0202001N000519999999N9999999N1+00371+00261101491ADDMA1999999094841REMSYN060AAXX  08024 06631 43/// /2001 10037 20026 39484 40149 5////;
0087066310999992011010803004+46983+007467FM-12+056599999V0202501N000519999999N9999999N1+00421+00291101481ADDMA1999999094841REMSYN060AAXX  08034 06631 43/// /2501 10042 20029 39484 40148 5////;
0087066310999992011010804004+46983+007467FM-12+056599999V0201601N001019999999N9999999N1+00491+00341101541ADDMA1999999094921REMSYN060AAXX  08044 06631 43/// /1602 10049 20034 39492 40154 5////;
0087066310999992011010805004+46983+007467FM-12+056599999V0201601N001019999999N9999999N1+00491+00371101581ADDMA1999999094951REMSYN060AAXX  08054 06631 43/// /1602 10049 20037 39495 40158 5////;
0266066310999992011010806004+46983+007467FM-12+056599999V0202201N000519999999N0150001N1+00521+00401101571ADDAJ199992999999999AL10600091AY161061AY221061GF108991999999999999999999GJ103129IA1259IA2999+00109KA1999N+00351MA1999999094951MW1611REMSYN106AAXX  08064 06631 41/65 82201 10052 20040 39495 40157 5//// 76162 333 20035 3/001 41998 55052 90768 93100;EQDQ01  09982SNDP  
0087066310999992011010807004+46983+007467FM-12+056599999V0200201N001019999999N9999999N1+00431+00331101591ADDMA1999999094951REMSYN060AAXX  08074 06631 43/// /0202 10043 20033 39495 40159 5////;
0103066310999992011010808004+46983+007467FM-12+056599999V0209999C000019999999N9999999N1+00441+00341101621ADDMA1999999094981REMSYN076AAXX  08084 06631 33/// /0000 10044 20034 39498 40162 5//// 333 553// 20025;
0087066310999992011010809004+46983+007467FM-12+056599999V0201601N000519999999N9999999N1+00581+00451101601ADDMA1999999094991REMSYN060AAXX  08094 06631 43/// /1601 10058 20045 39499 40160 5////;
0087066310999992011010810004+46983+007467FM-12+056599999V0201801N001019999999N9999999N1+00781+00561101561ADDMA1999999095001REMSYN060AAXX  08104 06631 43/// /1802 10078 20056 39500 40156 5////;
0087066310999992011010811004+46983+007467FM-12+056599999V0201601N002119999999N9999999N1+00971+00541101471ADDMA1999999094961REMSYN060AAXX  08114 06631 43/// /1604 10097 20054 39496 40147 5////;
0141066310999992011010812004+46983+007467FM-12+056599999V0201801N001012200019N0600001N1+01081+00521101391ADDAY161061AY211061GF103991999999999999999999MA1999999094911MW1021REMSYN066AAXX  08124 06631 41/86 31802 10108 20052 39491 40139 5//// 70261;
0087066310999992011010813004+46983+007467FM-12+056599999V0201701N000519999999N9999999N1+01121+00531101351ADDMA1999999094881REMSYN060AAXX  08134 06631 43/// /1701 10112 20053 39488 40135 5////;
0087066310999992011010814004+46983+007467FM-12+056599999V0201801N001519999999N9999999N1+01181+00541101301ADDMA1999999094851REMSYN060AAXX  08144 06631 43/// /1803 10118 20054 39485 40130 5////;
0087066310999992011010815004+46983+007467FM-12+056599999V0201701N002119999999N9999999N1+01121+00581101331ADDMA1999999094871REMSYN060AAXX  08154 06631 43/// /1704 10112 20058 39487 40133 5////;
0087066310999992011010816004+46983+007467FM-12+056599999V0200301N000519999999N9999999N1+00651+00511101451ADDMA1999999094871REMSYN060AAXX  08164 06631 43/// /0301 10065 20051 39487 40145 5////;
0087066310999992011010817004+46983+007467FM-12+056599999V0201501N001019999999N9999999N1+00721+00461101411ADDMA1999999094851REMSYN060AAXX  08174 06631 43/// /1502 10072 20046 39485 40141 5////;
0151066310999992011010818004+46983+007467FM-12+056599999V0201801N001512200019N0600001N1+00731+00431101411ADDAL10600091GF102991999999999999999999IA1119MA1999999094851REMSYN082AAXX  08184 06631 42/86 21803 10073 20043 39485 40141 5//// 333 32/// 90766 93100;
0087066310999992011010819004+46983+007467FM-12+056599999V0202001N001519999999N9999999N1+00621+00371101431ADDMA1999999094841REMSYN060AAXX  08194 06631 43/// /2003 10062 20037 39484 40143 5////;
0087066310999992011010820004+46983+007467FM-12+056599999V0202301N000519999999N9999999N1+00431+00281101481ADDMA1999999094851REMSYN060AAXX  08204 06631 43/// /2301 10043 20028 39485 40148 5////;
0087066310999992011010821004+46983+007467FM-12+056599999V0209999C000019999999N9999999N1+00501+00331101451ADDMA1999999094831REMSYN060AAXX  08214 06631 43/// /0000 10050 20033 39483 40145 5////;
0087066310999992011010822004+46983+007467FM-12+056599999V0202301N000519999999N9999999N1+00381+00241101471ADDMA1999999094821REMSYN060AAXX  08224 06631 43/// /2301 10038 20024 39482 40147 5////;
0087066310999992011010823004+46983+007467FM-12+056599999V0202201N001019999999N9999999N1+00331+00211101481ADDMA1999999094821REMSYN060AAXX  08234 06631 43/// /2202 10033 20021 39482 40148 5////;
0087066310999992011010900004+46983+007467FM-12+056599999V0201501N001019999999N9999999N1+00301+00171101511ADDMA1999999094841REMSYN060AAXX  09004 06631 43/// /1502 10030 20017 39484 40151 5////;
0087066310999992011010901004+46983+007467FM-12+056599999V0201801N000519999999N9999999N1+00241+00131101511ADDMA1999999094831REMSYN060AAXX  09014 06631 43/// /1801 10024 20013 39483 40151 5////;
0087066310999992011010902004+46983+007467FM-12+056599999V0201901N001019999999N9999999N1+00231+00061101531ADDMA1999999094841REMSYN060AAXX  09024 06631 43/// /1902 10023 20006 39484 40153 5////;
0087066310999992011010903004+46983+007467FM-12+056599999V0202301N000519999999N9999999N1+00121+00031101541ADDMA1999999094831REMSYN060AAXX  09034 06631 43/// /2301 10012 20003 39483 40154 5////;
0087066310999992011010904004+46983+007467FM-12+056599999V0209999C000019999999N9999999N1+00141+00031101481ADDMA1999999094781REMSYN060AAXX  09044 06631 43/// /0000 10014 20003 39478 40148 5////;
0087066310999992011010905004+46983+007467FM-12+056599999V0209999C000019999999N9999999N1+00161+00021101461ADDMA1999999094761REMSYN060AAXX  09054 06631 43/// /0000 10016 20002 39476 40146 5////;
0165066310999992011010906004+46983+007467FM-12+056599999V0202001N001012200019N0600001N1+00191+00011101471ADDAL10600091GF101991999999999999999999GJ103609IA1169MA1999999094781REMSYN088AAXX  09064 06631 42/86 12002 10019 20001 39478 40147 5//// 333 35/// 55060 90768 93100;
0087066310999992011010907004+46983+007467FM-12+056599999V0209999C000019999999N9999999N1+00171+00011101501ADDMA1999999094801REMSYN060AAXX  09074 06631 43/// /0000 10017 20001 39480 40150 5////;
0103066310999992011010908004+46983+007467FM-12+056599999V0209999C000019999999N9999999N1+00231+00041101591ADDMA1999999094901REMSYN076AAXX  09084 06631 33/// /0000 10023 20004 39490 40159 5//// 333 553// 20018;
0103066310999992011010909004+46983+007467FM-12+056599999V0202101N000519999999N9999999N1+00241+00061101611ADDMA1999999094921REMSYN076AAXX  09094 06631 33/// /2101 10024 20006 39492 40161 5//// 333 553// 20162;
0140066310999992011010910004+46983+007467FM-12+056599999V0201901N001019999999N9999999N1+00351+00151101611ADDMA1999999094951MD1210151+9999OA149900151REMSYN088AAXX  09104 06631 33/// /1902 10035 20015 39495 40161 52015 333 55300 20176 91103 91202;
0140066310999992011010911004+46983+007467FM-12+056599999V0203501N000519999999N9999999N1+00471+00281101571ADDMA1999999094941MD1010041+9999OA149900211REMSYN088AAXX  09114 06631 33/// /3501 10047 20028 39494 40157 50004 333 55300 20274 91104 91202;
0140066310999992011010912004+46983+007467FM-12+056599999V0209999C000519999999N9999999N1+00601+00381101511ADDMA1999999094911MD1810011+9999OA149900311REMSYN088AAXX  09124 06631 33/// /0001 10060 20038 39491 40151 58001 333 55300 20274 91106 91203;
0140066310999992011010913004+46983+007467FM-12+056599999V0201801N000519999999N9999999N1+00741+00511101481ADDMA1999999094921MD1710031+9999OA149900211REMSYN088AAXX  09134 06631 33/// /1801 10074 20051 39492 40148 57003 333 55300 20223 91104 91201;
0087066310999992011010914004+46983+007467FM-12+056599999V0201701N001019999999N9999999N1+00751+00581101521ADDMA1999999094961REMSYN060AAXX  09144 06631 43/// /1702 10075 20058 39496 40152 5////;
0087066310999992011010915004+46983+007467FM-12+056599999V0202101N000519999999N9999999N1+00751+00621101561ADDMA1999999095001REMSYN060AAXX  09154 06631 43/// /2101 10075 20062 39500 40156 5////;
0146066310999992011010916004+46983+007467FM-12+056599999V0201601N001019999999N9999999N1+00731+00611101621ADDMA1999999095051MD1310131+9999OA149900311REMSYN094AAXX  09164 06631 23/// /1602 10073 20061 39505 40162 53013 333 55300 20011 60015 91106 91202;
0146066310999992011010917004+46983+007467FM-12+056599999V0201801N001519999999N9999999N1+00701+00531101701ADDMA1999999095111MD1310151+9999OA149900361REMSYN094AAXX  09174 06631 23/// /1803 10070 20053 39511 40170 53015 333 55300 20000 60015 91107 91203;
0182066310999992011010918004+46983+007467FM-12+056599999V0202001N001519999999N9999999N1+00631+00441101731ADDAA112004191KA1120M+00771MA1999999095131MD1110131+9999OA149900361REMSYN106AAXX  09184 06631 03/// /2003 10063 20044 39513 40173 51013 60042 333 10077 55300 20000 69975 91107 91203;
0146066310999992011010919004+46983+007467FM-12+056599999V0202401N001019999999N9999999N1+00591+00441101811ADDMA1999999095191MD1210141+9999OA149900361REMSYN094AAXX  09194 06631 23/// /2402 10059 20044 39519 40181 52014 333 55300 20000 60015 91107 91203;
0146066310999992011010920004+46983+007467FM-12+056599999V0201301N000519999999N9999999N1+00561+00451101851ADDMA1999999095221MD1210111+9999OA149900211REMSYN094AAXX  09204 06631 23/// /1301 10056 20045 39522 40185 52011 333 55300 20000 60025 91104 91203;
0146066310999992011010921004+46983+007467FM-12+056599999V0201601N001019999999N9999999N1+00571+00461101911ADDMA1999999095281MD1210151+9999OA149900361REMSYN094AAXX  09214 06631 23/// /1602 10057 20046 39528 40191 52015 333 55300 20000 60025 91107 91203;
0146066310999992011010922004+46983+007467FM-12+056599999V0202301N001019999999N9999999N1+00551+00411101961ADDMA1999999095321MD1210131+9999OA149900151REMSYN094AAXX  09224 06631 23/// /2302 10055 20041 39532 40196 52013 333 55300 20000 60025 91103 91202;
0146066310999992011010923004+46983+007467FM-12+056599999V0201701N001019999999N9999999N1+00541+00401101991ADDMA1999999095351MD1110131+9999OA149900211REMSYN094AAXX  09234 06631 23/// /1702 10054 20040 39535 40199 51013 333 55300 20000 60015 91104 91202;
0163066310999992011011000004+46983+007467FM-12+056599999V0201501N000519999999N9999999N1+00501+00391102021ADDAA106008991MA1999999095371MD1210091+9999OA149900361REMSYN100AAXX  10004 06631 03/// /1501 10050 20039 39537 40202 52009 60091 333 55300 20000 69995 91107 91203;
0146066310999992011011001004+46983+007467FM-12+056599999V0202101N000519999999N9999999N1+00481+00381102041ADDMA1999999095381MD1210061+9999OA149900151REMSYN094AAXX  10014 06631 23/// /2101 10048 20038 39538 40204 52006 333 55300 20000 69935 91103 91202;
0103066310999992011011002004+46983+007467FM-12+056599999V0201901N001019999999N9999999N1+00501+00391102061ADDMA1999999095401REMSYN076AAXX  10024 06631 33/// /1902 10050 20039 39540 40206 5//// 333 553// 20000;
0087066310999992011011003004+46983+007467FM-12+056599999V0202001N001019999999N9999999N1+00501+00391102071ADDMA1999999095411REMSYN060AAXX  10034 06631 43/// /2002 10050 20039 39541 40207 5////;
0109066310999992011011004004+46983+007467FM-12+056599999V0209999C000019999999N9999999N1+00491+00381102061ADDMA1999999095401REMSYN082AAXX  10044 06631 23/// /0000 10049 20038 39540 40206 5//// 333 553// 20000 69925;
0146066310999992011011005004+46983+007467FM-12+056599999V0201301N000519999999N9999999N1+00451+00361102071ADDMA1999999095401MD1410001+9999OA149900151REMSYN094AAXX  10054 06631 23/// /1301 10045 20036 39540 40207 54/// 333 55300 20000 69935 91103 91202;
0159066310999992011011006004+46983+007467FM-12+056599999V0200401N002619999999N9999999N1+00431+00331102081ADDAA124014091GJ100009IA2999+00309KA1999N+00421MA1999999095411REMSYN088AAXX  10064 06631 43/// /0405 10043 20033 39541 40208 5//// 333 20042 3/003 55000 70140;
0140066310999992011011007004+46983+007467FM-12+056599999V0200301N001519999999N9999999N1+00391+00301102131ADDMA1999999095441MD1210041+9999OA149900411REMSYN088AAXX  10074 06631 33/// /0303 10039 20030 39544 40213 52004 333 55300 20000 91108 91205;
0087066310999992011011008004+46983+007467FM-12+056599999V0200301N003119999999N9999999N1+00371+00281102161ADDMA1999999095471REMSYN060AAXX  10084 06631 43/// /0306 10037 20028 39547 40216 5////;
0087066310999992011011009004+46983+007467FM-12+056599999V0200301N003119999999N9999999N1+00361+00241102201ADDMA1999999095501REMSYN060AAXX  10094 06631 43/// /0306 10036 20024 39550 40220 5////;
0140066310999992011011010004+46983+007467FM-12+056599999V0200301N003119999999N9999999N1+00391+00261102181ADDMA1999999095491MD1210051+9999OA149900571REMSYN088AAXX  10104 06631 33/// /0306 10039 20026 39549 40218 52005 333 55300 20446 91111 91208;
0140066310999992011011011004+46983+007467FM-12+056599999V0200201N003619999999N9999999N1+00391+00251102161ADDMA1999999095471MD1819999+9999OA149900571REMSYN088AAXX  10114 06631 33/// /0207 10039 20025 39547 40216 58/// 333 55300 20364 91111 91208;
0157066310999992011011012004+46983+007467FM-12+056599999V0200301N003119999999N0009001N1+00401+00281102091ADDAY161061AY261061GF108991999999999999999999MA1999999095411MW1211REMSYN082AAXX  10124 06631 31/09 80306 10040 20028 39541 40209 5//// 72166 333 553// 20403;
0087066310999992011011013004+46983+007467FM-12+056599999V0200301N002619999999N9999999N1+00411+00281102041ADDMA1999999095361REMSYN060AAXX  10134 06631 43/// /0305 10041 20028 39536 40204 5////;
0087066310999992011011014004+46983+007467FM-12+056599999V0200201N003119999999N9999999N1+00421+00281101971ADDMA1999999095301REMSYN060AAXX  10144 06631 43/// /0206 10042 20028 39530 40197 5////;
0087066310999992011011015004+46983+007467FM-12+056599999V0200201N002619999999N9999999N1+00391+00261101971ADDMA1999999095291REMSYN060AAXX  10154 06631 43/// /0205 10039 20026 39529 40197 5////;
0087066310999992011011016004+46983+007467FM-12+056599999V0200201N003619999999N9999999N1+00371+00251101951ADDMA1999999095271REMSYN060AAXX  10164 06631 43/// /0207 10037 20025 39527 40195 5////;
0087066310999992011011017004+46983+007467FM-12+056599999V0200201N004119999999N9999999N1+00351+00241101931ADDMA1999999095251REMSYN060AAXX  10174 06631 43/// /0208 10035 20024 39525 40193 5////;
0198066310999992011011018004+46983+007467FM-12+056599999V0200101N003619999999N0070001N1+00331+00231101911ADDAL10600091AY161061AY221061GF108991999999999999999999IA1119KA1120M+00461MA1999999095221MW1101REMSYN094AAXX  10184 06631 41/57 80107 10033 20023 39522 40191 5//// 71062 333 10046 32/// 90766 93100;
0087066310999992011011019004+46983+007467FM-12+056599999V0200201N002619999999N9999999N1+00331+00231101901ADDMA1999999095211REMSYN060AAXX  10194 06631 43/// /0205 10033 20023 39521 40190 5////;
0087066310999992011011020004+46983+007467FM-12+056599999V0203601N002119999999N9999999N1+00311+00211101911ADDMA1999999095221REMSYN060AAXX  10204 06631 43/// /3604 10031 20021 39522 40191 5////;
0087066310999992011011021004+46983+007467FM-12+056599999V0203501N001019999999N9999999N1+00301+00201101891ADDMA1999999095201REMSYN060AAXX  10214 06631 43/// /3502 10030 20020 39520 40189 5////;
0087066310999992011011022004+46983+007467FM-12+056599999V0200201N001519999999N9999999N1+00291+00191101871ADDMA1999999095181REMSYN060AAXX  10224 06631 43/// /0203 10029 20019 39518 40187 5////;
0087066310999992011011023004+46983+007467FM-12+056599999V0203101N000519999999N9999999N1+00291+00191101831ADDMA1999999095141REMSYN060AAXX  10234 06631 43/// /3101 10029 20019 39514 40183 5////;
0087066310999992011011100004+46983+007467FM-12+056599999V0209999C000019999999N9999999N1+00301+00191101771ADDMA1999999095091REMSYN060AAXX  11004 06631 43/// /0000 10030 20019 39509 40177 5////;
0087066310999992011011101004+46983+007467FM-12+056599999V0201601N000519999999N9999999N1+00331+00211101701ADDMA1999999095031REMSYN060AAXX  11014 06631 43/// /1601 10033 20021 39503 40170 5////;
0087066310999992011011102004+46983+007467FM-12+056599999V0202401N000519999999N9999999N1+00311+00211101691ADDMA1999999095011REMSYN060AAXX  11024 06631 43/// /2401 10031 20021 39501 40169 5////;
0087066310999992011011103004+46983+007467FM-12+056599999V0202301N001019999999N9999999N1+00311+00211101631ADDMA1999999094961REMSYN060AAXX  11034 06631 43/// /2302 10031 20021 39496 40163 5////;
0087066310999992011011104004+46983+007467FM-12+056599999V0202001N001519999999N9999999N1+00391+00211101561ADDMA1999999094911REMSYN060AAXX  11044 06631 43/// /2003 10039 20021 39491 40156 5////;
0087066310999992011011105004+46983+007467FM-12+056599999V0201701N003119999999N9999999N1+00391+00181101511ADDMA1999999094861REMSYN060AAXX  11054 06631 43/// /1706 10039 20018 39486 40151 5////;
0165066310999992011011106004+46983+007467FM-12+056599999V0201601N002619999999N0200001N1+00381+00141101451ADDAL10600091GF108991999999999999999999GJ100009IA1119MA1999999094811REMSYN088AAXX  11064 06631 42/70 81605 10038 20014 39481 40145 5//// 333 32/// 55000 90768 93100;
0140066310999992011011107004+46983+007467FM-12+056599999V0201601N002619999999N9999999N1+00371+00101101411ADDMA1999999094771MD1719999+9999OA149900511REMSYN088AAXX  11074 06631 33/// /1605 10037 20010 39477 40141 57/// 333 55300 20000 91110 91207;
0103066310999992011011108004+46983+007467FM-12+056599999V0201601N002619999999N9999999N1+00351+00111101411ADDMA1999999094761REMSYN076AAXX  11084 06631 33/// /1605 10035 20011 39476 40141 5//// 333 553// 20011;
0087066310999992011011109004+46983+007467FM-12+056599999V0201701N002119999999N9999999N1+00361+00071101381ADDMA1999999094741REMSYN060AAXX  11094 06631 43/// /1704 10036 20007 39474 40138 5////;
0140066310999992011011110004+46983+007467FM-12+056599999V0201801N002119999999N9999999N1+00451+00091101331ADDMA1999999094711MD1810061+9999OA149900461REMSYN088AAXX  11104 06631 33/// /1804 10045 20009 39471 40133 58006 333 55300 20299 91109 91205;
0140066310999992011011111004+46983+007467FM-12+056599999V0202101N002119999999N9999999N1+00461+00091101241ADDMA1999999094631MD1810131+9999OA149900511REMSYN088AAXX  11114 06631 33/// /2104 10046 20009 39463 40124 58013 333 55300 20432 91110 91206;
0141066310999992011011112004+46983+007467FM-12+056599999V0202301N002119999999N0500001N1+00461+00111101171ADDGF108991999999999999999999MA1999999094561MW1021REMSYN082AAXX  11124 06631 31/84 82304 10046 20011 39456 40117 5//// 702// 333 553// 20500;
0146066310999992011011113004+46983+007467FM-12+056599999V0202601N003619999999N9999999N1+00441+00181101191ADDMA1999999094581MD1710131+9999OA149900771REMSYN094AAXX  11134 06631 23/// /2607 10044 20018 39458 40119 57013 333 55300 20238 69925 91115 91207;
0087066310999992011011114004+46983+007467FM-12+056599999V0202101N001519999999N9999999N1+00431+00201101211ADDMA1999999094591REMSYN060AAXX  11144 06631 43/// /2103 10043 20020 39459 40121 5////;
0087066310999992011011115004+46983+007467FM-12+056599999V0202101N003119999999N9999999N1+00381+00181101301ADDMA1999999094671REMSYN060AAXX  11154 06631 43/// /2106 10038 20018 39467 40130 5////;
0146066310999992011011116004+46983+007467FM-12+056599999V0201601N002119999999N9999999N1+00311+00171101401ADDMA1999999094741MD1310161+9999OA149900621REMSYN094AAXX  11164 06631 23/// /1604 10031 20017 39474 40140 53016 333 55300 20018 60015 91112 91207;
0146066310999992011011117004+46983+007467FM-12+056599999V0201801N000519999999N9999999N1+00331+00141101481ADDMA1999999094821MD1210221+9999OA149900461REMSYN094AAXX  11174 06631 23/// /1801 10033 20014 39482 40148 52022 333 55300 20000 69915 91109 91205;
0270066310999992011011118004+46983+007467FM-12+056599999V0201801N000519999999N0060001N1+00341+00191101551ADDAA112003091AL19900091AY161061AY221061GF108991999999999999999999IA1119KA1120M+00501MA1999999094891MD1210221+9999MW1101OA149900771REMSYN130AAXX  11184 06631 01/56 81801 10034 20019 39489 40155 52022 60032 71062 333 10050 32/// 55300 20000 69925 90766 93100 91115 91207;
0140066310999992011011119004+46983+007467FM-12+056599999V0201701N001519999999N9999999N1+00351+00191101661ADDMA1999999094991MD1310251+9999OA149900261REMSYN088AAXX  11194 06631 33/// /1703 10035 20019 39499 40166 53025 333 55300 20000 91105 91203;
0140066310999992011011120004+46983+007467FM-12+056599999V0201701N002119999999N9999999N1+00371+00221101751ADDMA1999999095081MD1310261+9999OA149900411REMSYN088AAXX  11204 06631 33/// /1704 10037 20022 39508 40175 53026 333 55300 20000 91108 91205;
0146066310999992011011121004+46983+007467FM-12+056599999V0201701N002119999999N9999999N1+00391+00241101831ADDMA1999999095161MD1210271+9999OA149900461REMSYN094AAXX  11214 06631 23/// /1704 10039 20024 39516 40183 52027 333 55300 20000 69915 91109 91205;
0140066310999992011011122004+46983+007467FM-12+056599999V0201801N001519999999N9999999N1+00371+00221101941ADDMA1999999095261MD1310271+9999OA149900411REMSYN088AAXX  11224 06631 33/// /1803 10037 20022 39526 40194 53027 333 55300 20000 91108 91205;
0140066310999992011011123004+46983+007467FM-12+056599999V0201901N002119999999N9999999N1+00401+00231101971ADDMA1999999095301MD1110221+9999OA149900411REMSYN088AAXX  11234 06631 33/// /1904 10040 20023 39530 40197 51022 333 55300 20000 91108 91205;
0182066310999992011011200004+46983+007467FM-12+056599999V0201801N002119999999N9999999N1+00411+00231102001ADDAA106000091MA1999999095331MD1110171+9999OA149900771REMSYN100AAXX  12004 06631 03/// /1804 10041 20023 39533 40200 51017 69911 333 55300 20000 60005 91115 91207;EQDQ01  00002PRCP06
0140066310999992011011201004+46983+007467FM-12+056599999V0201601N001519999999N9999999N1+00381+00251102081ADDMA1999999095391MD1310131+9999OA149900361REMSYN088AAXX  12014 06631 33/// /1603 10038 20025 39539 40208 53013 333 55300 20000 91107 91204;
0103066310999992011011202004+46983+007467FM-12+056599999V0201901N001019999999N9999999N1+00381+00251102161ADDMA1999999095471REMSYN076AAXX  12024 06631 33/// /1902 10038 20025 39547 40216 5//// 333 553// 20000;
0087066310999992011011203004+46983+007467FM-12+056599999V0201901N001019999999N9999999N1+00401+00261102231ADDMA1999999095541REMSYN060AAXX  12034 06631 43/// /1902 10040 20026 39554 40223 5////;
0087066310999992011011204004+46983+007467FM-12+056599999V0201601N002119999999N9999999N1+00401+00251102251ADDMA1999999095561REMSYN060AAXX  12044 06631 43/// /1604 10040 20025 39556 40225 5////;
0103066310999992011011205004+46983+007467FM-12+056599999V0201701N000519999999N9999999N1+00411+00261102321ADDMA1999999095631REMSYN076AAXX  12054 06631 33/// /1701 10041 20026 39563 40232 5//// 333 553// 20000;
0241066310999992011011206004+46983+007467FM-12+056599999V0201501N001019999999N0200001N1+00471+00241102371ADDAA124003391AL12400391AY161061AY221061GF107991999999999999999999GJ100009IA1119IA2999+00209KA1999N+00341MA1999999095691MW1021REMSYN106AAXX  12064 06631 41/70 71502 10047 20024 39569 40237 5//// 70262 333 20034 32002 55000 70034 90768 93100;
0140066310999992011011207004+46983+007467FM-12+056599999V0201501N000519999999N9999999N1+00461+00271102421ADDMA1999999095731MD1110171+9999OA149900261REMSYN088AAXX  12074 06631 33/// /1501 10046 20027 39573 40242 51017 333 55300 20000 91105 91203;
0087066310999992011011208004+46983+007467FM-12+056599999V0202101N001019999999N9999999N1+00461+00281102421ADDMA1999999095731REMSYN060AAXX  12084 06631 43/// /2102 10046 20028 39573 40242 5////;
0087066310999992011011209004+46983+007467FM-12+056599999V0202101N001019999999N9999999N1+00501+00271102431ADDMA1999999095751REMSYN060AAXX  12094 06631 43/// /2102 10050 20027 39575 40243 5////;
0140066310999992011011210004+46983+007467FM-12+056599999V0201901N001519999999N9999999N1+00561+00261102431ADDMA1999999095761MD1219999+9999OA149900311REMSYN088AAXX  12104 06631 33/// /1903 10056 20026 39576 40243 52/// 333 55300 20281 91106 91203;
0117066310999992011011211004+46983+007467FM-12+056599999V0202101N002119999999N9999999N1+00581+00261102421ADDMA1999999095761MD1210031+9999REMSYN076AAXX  12114 06631 33/// /2104 10058 20026 39576 40242 52003 333 55300 20353;
0113066310999992011011212004+46983+007467FM-12+056599999V0202501N002119999999N0200001N1+00581+00271102361ADDGF108991999999999999999999MA1999999095701REMSYN060AAXX  12124 06631 42/70 82504 10058 20027 39570 40236 5////;
0087066310999992011011213004+46983+007467FM-12+056599999V0202101N001519999999N9999999N1+00601+00301102361ADDMA1999999095711REMSYN060AAXX  12134 06631 43/// /2103 10060 20030 39571 40236 5////;
0087066310999992011011214004+46983+007467FM-12+056599999V0202201N001019999999N9999999N1+00601+00331102391ADDMA1999999095741REMSYN060AAXX  12144 06631 43/// /2202 10060 20033 39574 40239 5////;
0087066310999992011011215004+46983+007467FM-12+056599999V0202301N001019999999N9999999N1+00581+00341102391ADDMA1999999095731REMSYN060AAXX  12154 06631 43/// /2302 10058 20034 39573 40239 5////;
0140066310999992011011216004+46983+007467FM-12+056599999V0202201N001519999999N9999999N1+00571+00321102421ADDMA1999999095761MD1210051+9999OA149900361REMSYN088AAXX  12164 06631 33/// /2203 10057 20032 39576 40242 52005 333 55300 20032 91107 91203;
0140066310999992011011217004+46983+007467FM-12+056599999V0202301N002119999999N9999999N1+00511+00301102461ADDMA1999999095781MD1210041+9999OA149900361REMSYN088AAXX  12174 06631 33/// /2304 10051 20030 39578 40246 52004 333 55300 20000 91107 91205;
0270066310999992011011218004+46983+007467FM-12+056599999V0202001N002119999999N0200001N1+00561+00321102441ADDAA112000591AL19900091AY161061AY221061GF108991999999999999999999IA1119KA1120M+00611MA1999999095771MD1210041+9999MW1631OA149900461REMSYN130AAXX  12184 06631 01/70 82004 10056 20032 39577 40244 52004 69942 76362 333 10061 32/// 55300 20000 69935 90766 93100 91109 91205;
0140066310999992011011219004+46983+007467FM-12+056599999V0201901N002619999999N9999999N1+00581+00291102451ADDMA1999999095791MD1210031+9999OA149900511REMSYN088AAXX  12194 06631 33/// /1905 10058 20029 39579 40245 52003 333 55300 20000 91110 91205;
0146066310999992011011220004+46983+007467FM-12+056599999V0201801N001519999999N9999999N1+00581+00341102421ADDMA1999999095761MD1710021+9999OA149900511REMSYN094AAXX  12204 06631 23/// /1803 10058 20034 39576 40242 57002 333 55300 20000 69915 91110 91205;
0140066310999992011011221004+46983+007467FM-12+056599999V0201801N001519999999N9999999N1+00571+00391102441ADDMA1999999095781MD1510011+9999OA149900511REMSYN088AAXX  12214 06631 33/// /1803 10057 20039 39578 40244 55001 333 55300 20000 91110 91205;
0146066310999992011011222004+46983+007467FM-12+056599999V0201701N002119999999N9999999N1+00551+00421102441ADDMA1999999095771MD1710021+9999OA149900461REMSYN094AAXX  12224 06631 23/// /1704 10055 20042 39577 40244 57002 333 55300 20000 69965 91109 91206;
0146066310999992011011223004+46983+007467FM-12+056599999V0201801N001519999999N9999999N1+00561+00441102441ADDMA1999999095771MD1010011+9999OA149900461REMSYN094AAXX  12234 06631 23/// /1803 10056 20044 39577 40244 50001 333 55300 20000 69955 91109 91206;
0163066310999992011011300004+46983+007467FM-12+056599999V0202001N001519999999N9999999N1+00571+00451102421ADDAA106002091MA1999999095761MD1710021+9999OA149900511REMSYN100AAXX  13004 06631 03/// /2003 10057 20045 39576 40242 57002 60021 333 55300 20000 69955 91110 91206;
0146066310999992011011301004+46983+007467FM-12+056599999V0202101N002119999999N9999999N1+00571+00441102381ADDMA1999999095721MD1710051+9999OA149900361REMSYN094AAXX  13014 06631 23/// /2104 10057 20044 39572 40238 57005 333 55300 20000 69985 91107 91205;
0146066310999992011011302004+46983+007467FM-12+056599999V0202001N002119999999N9999999N1+00571+00451102371ADDMA1999999095711MD1719999+9999OA149900361REMSYN094AAXX  13024 06631 23/// /2004 10057 20045 39571 40237 57/// 333 55300 20000 69925 91107 91205;
0087066310999992011011303004+46983+007467FM-12+056599999V0202101N001519999999N9999999N1+00581+00471102311ADDMA1999999095661REMSYN060AAXX  13034 06631 43/// /2103 10058 20047 39566 40231 5////;
0146066310999992011011304004+46983+007467FM-12+056599999V0201901N002119999999N9999999N1+00651+00511102291ADDMA1999999095651MD1719999+9999OA149900461REMSYN094AAXX  13044 06631 23/// /1904 10065 20051 39565 40229 57/// 333 55300 20000 60015 91109 91204;
0109066310999992011011305004+46983+007467FM-12+056599999V0202001N001519999999N9999999N1+00661+00531102301ADDMA1999999095671REMSYN082AAXX  13054 06631 23/// /2003 10066 20053 39567 40230 5//// 333 553// 20000 69915;
0312066310999992011011306004+46983+007467FM-12+056599999V0201901N002119999999N0150001N1+00711+00561102311ADDAA112004191AL14200491AL29900091AY161061AY221061GF108991999999999999999999GJ100009IA1119IA2999+00409KA1999N+00511MA1999999095691MD1210031+9999MW1211OA149900511REMSYN142AAXX  13064 06631 01/65 81904 10071 20056 39569 40231 52003 60042 72162 333 20051 32004 55000 55300 20000 60005 70047 90768 93100 91110 91206;
0087066310999992011011307004+46983+007467FM-12+056599999V0202301N001519999999N9999999N1+00691+00561102341ADDMA1999999095711REMSYN060AAXX  13074 06631 43/// /2303 10069 20056 39571 40234 5////;
0087066310999992011011308004+46983+007467FM-12+056599999V0201801N002619999999N9999999N1+00771+00601102321ADDMA1999999095711REMSYN060AAXX  13084 06631 43/// /1805 10077 20060 39571 40232 5////;
0087066310999992011011309004+46983+007467FM-12+056599999V0201801N002619999999N9999999N1+00841+00621102311ADDMA1999999095721REMSYN060AAXX  13094 06631 43/// /1805 10084 20062 39572 40231 5////;
0087066310999992011011310004+46983+007467FM-12+056599999V0201801N002119999999N9999999N1+00941+00641102331ADDMA1999999095761REMSYN060AAXX  13104 06631 43/// /1804 10094 20064 39576 40233 5////;
0087066310999992011011311004+46983+007467FM-12+056599999V0201901N002119999999N9999999N1+01041+00681102261ADDMA1999999095721REMSYN060AAXX  13114 06631 43/// /1904 10104 20068 39572 40226 5////;
0141066310999992011011312004+46983+007467FM-12+056599999V0202001N003119999999N0500001N1+01191+00691102151ADDAY161061AY221061GF108991999999999999999999MA1999999095651MW1021REMSYN066AAXX  13124 06631 41/84 82006 10119 20069 39565 40215 5//// 70262;
0087066310999992011011313004+46983+007467FM-12+056599999V0202401N003119999999N9999999N1+01151+00621102101ADDMA1999999095591REMSYN060AAXX  13134 06631 43/// /2406 10115 20062 39559 40210 5////;
0087066310999992011011314004+46983+007467FM-12+056599999V0209999C000019999999N9999999N1+01111+00651102151ADDMA1999999095631REMSYN060AAXX  13144 06631 43/// /0000 10111 20065 39563 40215 5////;
0087066310999992011011315004+46983+007467FM-12+056599999V0201801N000519999999N9999999N1+01111+00671102161ADDMA1999999095641REMSYN060AAXX  13154 06631 43/// /1801 10111 20067 39564 40216 5////;
0087066310999992011011316004+46983+007467FM-12+056599999V0202201N001519999999N9999999N1+01091+00661102201ADDMA1999999095671REMSYN060AAXX  13164 06631 43/// /2203 10109 20066 39567 40220 5////;
0140066310999992011011317004+46983+007467FM-12+056599999V0202301N001019999999N9999999N1+01021+00671102241ADDMA1999999095691MD1210061+9999OA149900461REMSYN088AAXX  13174 06631 33/// /2302 10102 20067 39569 40224 52006 333 55300 20000 91109 91205;
0219066310999992011011318004+46983+007467FM-12+056599999V0202101N002119999999N0500001N1+01021+00651102211ADDAL19900091GF108991999999999999999999IA1119KA1120M+01191MA1999999095671MD1010011+9999OA149900881REMSYN112AAXX  13184 06631 32/84 82104 10102 20065 39567 40221 50001 333 10119 32/// 55300 20000 90766 93100 91117 91207;
0140066310999992011011319004+46983+007467FM-12+056599999V0201901N001519999999N9999999N1+00951+00711102241ADDMA1999999095681MD1210011+9999OA149900511REMSYN088AAXX  13194 06631 33/// /1903 10095 20071 39568 40224 52001 333 55300 20000 91110 91205;
0140066310999992011011320004+46983+007467FM-12+056599999V0202601N000519999999N9999999N1+00881+00711102261ADDMA1999999095681MD1010011+9999OA149900311REMSYN088AAXX  13204 06631 33/// /2601 10088 20071 39568 40226 50001 333 55300 20000 91106 91203;
0140066310999992011011321004+46983+007467FM-12+056599999V0202201N000519999999N9999999N1+00941+00661102231ADDMA1999999095671MD1710021+9999OA149900511REMSYN088AAXX  13214 06631 33/// /2201 10094 20066 39567 40223 57000 333 55300 20000 91110 91205;
0140066310999992011011322004+46983+007467FM-12+056599999V0201901N000519999999N9999999N1+00911+00611102231ADDMA1999999095661MD1710021+9999OA149900311REMSYN088AAXX  13224 06631 33/// /1901 10091 20061 39566 40223 57002 333 55300 20000 91106 91203;
0140066310999992011011323004+46983+007467FM-12+056599999V0201301N001019999999N9999999N1+00831+00581102241ADDMA1999999095651MD1710031+9999OA149900311REMSYN088AAXX  13234 06631 33/// /1302 10083 20058 39565 40224 57003 333 55300 20000 91106 91203;
0140066310999992011011400004+46983+007467FM-12+056599999V0202101N001019999999N9999999N1+00711+00541102271ADDMA1999999095651MD1710021+9999OA149900881REMSYN088AAXX  14004 06631 33/// /2102 10071 20054 39565 40227 57002 333 55300 20000 91117 91207;
0140066310999992011011401004+46983+007467FM-12+056599999V0201801N000519999999N9999999N1+00671+00541102301ADDMA1999999095671MD1210011+9999OA149900311REMSYN088AAXX  14014 06631 33/// /1801 10067 20054 39567 40230 52001 333 55300 20000 91106 91204;
0103066310999992011011402004+46983+007467FM-12+056599999V0201701N001019999999N9999999N1+00731+00551102331ADDMA1999999095711REMSYN076AAXX  14024 06631 33/// /1702 10073 20055 39571 40233 5//// 333 553// 20000;
0140066310999992011011403004+46983+007467FM-12+056599999V0201701N001019999999N9999999N1+00741+00561102331ADDMA1999999095711MD1210061+9999OA149900311REMSYN088AAXX  14034 06631 33/// /1702 10074 20056 39571 40233 52006 333 55300 20000 91106 91204;
0140066310999992011011404004+46983+007467FM-12+056599999V0201901N001019999999N9999999N1+00741+00551102291ADDMA1999999095681MD1010011+9999OA149900261REMSYN088AAXX  14044 06631 33/// /1902 10074 20055 39568 40229 50001 333 55300 20000 91105 91203;
0140066310999992011011405004+46983+007467FM-12+056599999V0202201N001019999999N9999999N1+00661+00541102331ADDMA1999999095691MD1710021+9999OA149900211REMSYN088AAXX  14054 06631 33/// /2202 10066 20054 39569 40233 57002 333 55300 20000 91104 91202;
0251066310999992011011406004+46983+007467FM-12+056599999V0201901N001519999999N0200001N1+00751+00541102331ADDAL19900091GF108991999999999999999999GJ100129IA1119IA2999+00209KA1999N+00641MA1999999095721MD1310011+9999OA149900311REMSYN124AAXX  14064 06631 32/70 81903 10075 20054 39572 40233 53001 333 20064 32002 55002 55300 20000 70000 90768 93100 91106 91204;
0140066310999992011011407004+46983+007467FM-12+056599999V0202101N001019999999N9999999N1+00711+00541102331ADDMA1999999095711MD1010031+9999OA149900311REMSYN088AAXX  14074 06631 33/// /2102 10071 20054 39571 40233 50003 333 55300 20000 91106 91203;
0087066310999992011011408004+46983+007467FM-12+056599999V0201901N000519999999N9999999N1+00701+00531102371ADDMA1999999095741REMSYN060AAXX  14084 06631 43/// /1901 10070 20053 39574 40237 5////;
0087066310999992011011409004+46983+007467FM-12+056599999V0201701N001519999999N9999999N1+00791+00501102291ADDMA1999999095691REMSYN060AAXX  14094 06631 43/// /1703 10079 20050 39569 40229 5////;
0087066310999992011011410004+46983+007467FM-12+056599999V0201701N001019999999N9999999N1+00871+00551102261ADDMA1999999095681REMSYN060AAXX  14104 06631 43/// /1702 10087 20055 39568 40226 5////;
0140066310999992011011411004+46983+007467FM-12+056599999V0201701N001019999999N9999999N1+00911+00551102231ADDMA1999999095661MD1710081+9999OA149900261REMSYN088AAXX  14114 06631 33/// /1702 10091 20055 39566 40223 57008 333 55300 20450 91105 91203;
0166066310999992011011412004+46983+007467FM-12+056599999V0201601N001019999999N0300001N1+00971+00521102151ADDGF108991999999999999999999MA1999999095601MD1710091+9999OA149900311REMSYN088AAXX  14124 06631 32/80 81602 10097 20052 39560 40215 57009 333 55300 20608 91106 91204;
0140066310999992011011413004+46983+007467FM-12+056599999V0202001N001019999999N9999999N1+01011+00481102101ADDMA1999999095561MD1710121+9999OA149900211REMSYN088AAXX  14134 06631 33/// /2002 10101 20048 39556 40210 57012 333 55300 20601 91104 91203;
0103066310999992011011414004+46983+007467FM-12+056599999V0202701N001019999999N9999999N1+01001+00421102061ADDMA1999999095521REMSYN076AAXX  14144 06631 33/// /2702 10100 20042 39552 40206 5//// 333 553// 20425;
0140066310999992011011415004+46983+007467FM-12+056599999V0202501N000519999999N9999999N1+00961+00421102081ADDMA1999999095531MD1710071+9999OA149900261REMSYN088AAXX  14154 06631 33/// /2501 10096 20042 39553 40208 57007 333 55300 20349 91105 91203;
0140066310999992011011416004+46983+007467FM-12+056599999V0201401N000519999999N9999999N1+00801+00471102091ADDMA1999999095501MD1710061+9999OA149900211REMSYN088AAXX  14164 06631 33/// /1401 10080 20047 39550 40209 57006 333 55301 20140 91104 91202;
0140066310999992011011417004+46983+007467FM-12+056599999V0200101N000519999999N9999999N1+00541+00381102141ADDMA1999999095491MD1710031+9999OA149900151REMSYN088AAXX  14174 06631 33/// /0101 10054 20038 39549 40214 57003 333 55300 20000 91103 91202;
0219066310999992011011418004+46983+007467FM-12+056599999V0201701N000519999999N0600001N1+00541+00361102121ADDAL19900091GF107991999999999999999999IA1119KA1120M+01031MA1999999095471MD1710061+9999OA149900311REMSYN112AAXX  14184 06631 32/86 71701 10054 20036 39547 40212 57006 333 10103 32/// 55300 20000 90766 93100 91106 91203;
0140066310999992011011419004+46983+007467FM-12+056599999V0209999C000019999999N9999999N1+00481+00311102151ADDMA1999999095481MD1710021+9999OA149900151REMSYN088AAXX  14194 06631 33/// /0000 10048 20031 39548 40215 57002 333 55300 20000 91103 91202;
0140066310999992011011420004+46983+007467FM-12+056599999V0201401N001019999999N9999999N1+00461+00301102171ADDMA1999999095501MD1310011+9999OA149900211REMSYN088AAXX  14204 06631 33/// /1402 10046 20030 39550 40217 53001 333 55300 20000 91104 91203;
0140066310999992011011421004+46983+007467FM-12+056599999V0209999C000019999999N9999999N1+00411+00271102261ADDMA1999999095571MD1210101+9999OA149900261REMSYN088AAXX  14214 06631 33/// /0000 10041 20027 39557 40226 52010 333 55300 20000 91105 91203;
0140066310999992011011422004+46983+007467FM-12+056599999V0201501N002119999999N9999999N1+00491+00301102311ADDMA1999999095641MD1210161+9999OA149900461REMSYN088AAXX  14224 06631 33/// /1504 10049 20030 39564 40231 52016 333 55300 20000 91109 91204;
0140066310999992011011423004+46983+007467FM-12+056599999V0201401N002119999999N9999999N1+00661+00361102371ADDMA1999999095731MD1210231+9999OA149900461REMSYN088AAXX  14234 06631 33/// /1404 10066 20036 39573 40237 52023 333 55300 20000 91109 91204;
0140066310999992011011500004+46983+007467FM-12+056599999V0202101N003119999999N9999999N1+00881+00321102361ADDMA1999999095771MD1210201+9999OA149900671REMSYN088AAXX  15004 06631 33/// /2106 10088 20032 39577 40236 52020 333 55300 20000 91113 91206;
0146066310999992011011501004+46983+007467FM-12+056599999V0202301N003119999999N9999999N1+00801+00511102441ADDMA1999999095831MD1210191+9999OA149900671REMSYN094AAXX  15014 06631 23/// /2306 10080 20051 39583 40244 52019 333 55300 20000 69985 91113 91207;
0146066310999992011011502004+46983+007467FM-12+056599999V0202801N001519999999N9999999N1+00771+00561102571ADDMA1999999095941MD1219999+9999OA149900671REMSYN094AAXX  15024 06631 23/// /2803 10077 20056 39594 40257 52/// 333 55300 20000 69955 91113 91207;
0109066310999992011011503004+46983+007467FM-12+056599999V0202001N001519999999N9999999N1+00771+00601102621ADDMA1999999095991REMSYN082AAXX  15034 06631 23/// /2003 10077 20060 39599 40262 5//// 333 553// 20000 60025;
0146066310999992011011504004+46983+007467FM-12+056599999V0202501N001519999999N9999999N1+00771+00571102691ADDMA1999999096061MD1110231+9999OA149900771REMSYN094AAXX  15044 06631 23/// /2503 10077 20057 39606 40269 51023 333 55300 20000 69945 91115 91208;
0140066310999992011011505004+46983+007467FM-12+056599999V0201401N001519999999N9999999N1+00741+00551102801ADDMA1999999096151MD1310211+9999OA149900511REMSYN088AAXX  15054 06631 33/// /1403 10074 20055 39615 40280 53021 333 55300 20000 91110 91205;
0312066310999992011011506004+46983+007467FM-12+056599999V0201701N001019999999N0500001N1+00661+00511102871ADDAA112003091AL11200391AL29900091AY161061AY221061GF107991999999999999999999GJ100069IA1119IA2999-00209KA1999N+00321MA1999999096201MD1210211+9999MW1021OA149900771REMSYN142AAXX  15064 06631 01/84 71702 10066 20051 39620 40287 52021 60032 70262 333 20032 32102 55001 55300 20000 60005 70032 90768 93100 91115 91208;
0140066310999992011011507004+46983+007467FM-12+056599999V0201301N001019999999N9999999N1+00591+00461102891ADDMA1999999096201MD1210141+9999OA149900361REMSYN088AAXX  15074 06631 33/// /1302 10059 20046 39620 40289 52014 333 55300 20000 91107 91204;
0140066310999992011011508004+46983+007467FM-12+056599999V0203601N000519999999N9999999N1+00381+00301102941ADDMA1999999096201MD1019999+9999OA149900211REMSYN088AAXX  15084 06631 33/// /3601 10038 20030 39620 40294 50/// 333 55303 20086 91104 91203;
0140066310999992011011509004+46983+007467FM-12+056599999V0200201N000519999999N9999999N1+00611+00471102971ADDMA1999999096281MD1310081+9999OA149900511REMSYN088AAXX  15094 06631 33/// /0201 10061 20047 39628 40297 53008 333 553// 20457 91110 91205;
0140066310999992011011510004+46983+007467FM-12+056599999V0201301N001019999999N9999999N1+00791+00551102941ADDMA1999999096301MD1210101+9999OA149900211REMSYN088AAXX  15104 06631 33/// /1302 10079 20055 39630 40294 52010 333 55309 20835 91104 91202;
0140066310999992011011511004+46983+007467FM-12+056599999V0201701N001519999999N9999999N1+00871+00471102871ADDMA1999999096251MD1010051+9999OA149900311REMSYN088AAXX  15114 06631 33/// /1703 10087 20047 39625 40287 50005 333 553// 2//// 91106 91204;
0166066310999992011011512004+46983+007467FM-12+056599999V0201601N002112200019N0300001N1+00941+00471102791ADDGF103991999999999999999999MA1999999096191MD1710091+9999OA149900771REMSYN088AAXX  15124 06631 32/80 31604 10094 20047 39619 40279 57009 333 553// 2//// 91115 91208;
0103066310999992011011513004+46983+007467FM-12+056599999V0202001N001519999999N9999999N1+00911+00341102751ADDMA1999999096151REMSYN076AAXX  15134 06631 33/// /2003 10091 20034 39615 40275 5//// 333 553// 20925;
0087066310999992011011514004+46983+007467FM-12+056599999V0201201N001019999999N9999999N1+00961+00391102761ADDMA1999999096171REMSYN060AAXX  15144 06631 43/// /1202 10096 20039 39617 40276 5////;
0087066310999992011011515004+46983+007467FM-12+056599999V0209999C000019999999N9999999N1+00951+00371102821ADDMA1999999096221REMSYN060AAXX  15154 06631 43/// /0000 10095 20037 39622 40282 5////;
0087066310999992011011516004+46983+007467FM-12+056599999V0200401N000519999999N9999999N1+00641+00401102911ADDMA1999999096231REMSYN060AAXX  15164 06631 43/// /0401 10064 20040 39623 40291 5////;
0103066310999992011011517004+46983+007467FM-12+056599999V0200101N001019999999N9999999N1+00481+00321102951ADDMA1999999096231REMSYN076AAXX  15174 06631 33/// /0102 10048 20032 39623 40295 5//// 333 553// 20004;
0170066310999992011011518004+46983+007467FM-12+056599999V0203401N000512200019N0600001N1+00441+00311103001ADDAL10600091GF101991999999999999999999IA1119KA1120M+01001MA1999999096271REMSYN088AAXX  15184 06631 42/86 13401 10044 20031 39627 40300 5//// 333 10100 32/// 90766 93100;
0087066310999992011011519004+46983+007467FM-12+056599999V0209999C000019999999N9999999N1+00331+00251103061ADDMA1999999096301REMSYN060AAXX  15194 06631 43/// /0000 10033 20025 39630 40306 5////;
0087066310999992011011520004+46983+007467FM-12+056599999V0202101N000519999999N9999999N1+00281+00171103091ADDMA1999999096311REMSYN060AAXX  15204 06631 43/// /2101 10028 20017 39631 40309 5////;
0140066310999992011011521004+46983+007467FM-12+056599999V0202601N000519999999N9999999N1+00241+00131103091ADDMA1999999096301MD1210031+9999OA149900211REMSYN088AAXX  15214 06631 33/// /2601 10024 20013 39630 40309 52003 333 55300 20000 91104 91203;
0140066310999992011011522004+46983+007467FM-12+056599999V0202401N001019999999N9999999N1+00201+00081103111ADDMA1999999096311MD1310011+9999OA149900151REMSYN088AAXX  15224 06631 33/// /2402 10020 20008 39631 40311 53001 333 55300 20000 91103 91202;
0140066310999992011011523004+46983+007467FM-12+056599999V0201801N001019999999N9999999N1+00211+00121103071ADDMA1999999096281MD1710031+9999OA149900151REMSYN088AAXX  15234 06631 33/// /1802 10021 20012 39628 40307 57003 333 55300 20000 91103 91202;
0140066310999992011011600004+46983+007467FM-12+056599999V0202101N001019999999N9999999N1-00021-00101103081ADDMA1999999096231MD1710071+9999OA149900311REMSYN088AAXX  16004 06631 33/// /2102 11002 21010 39623 40308 57007 333 55300 20000 91106 91203;
0140066310999992011011601004+46983+007467FM-12+056599999V0201901N000519999999N9999999N1+00121+00021103021ADDMA1999999096211MD1710101+9999OA149900151REMSYN088AAXX  16014 06631 33/// /1901 10012 20002 39621 40302 57010 333 55300 20000 91103 91202;
0140066310999992011011602004+46983+007467FM-12+056599999V0201601N000519999999N9999999N1+00031-00071103041ADDMA1999999096211MD1719999+9999OA149900151REMSYN088AAXX  16024 06631 33/// /1601 10003 21007 39621 40304 57/// 333 55300 20000 91103 91202;
0087066310999992011011603004+46983+007467FM-12+056599999V0202101N001519999999N9999999N1+00041-00091103021ADDMA1999999096191REMSYN060AAXX  16034 06631 43/// /2103 10004 21009 39619 40302 5////;
0140066310999992011011604004+46983+007467FM-12+056599999V0201501N000519999999N9999999N1-00021-00101103051ADDMA1999999096201MD1510011+9999OA149900261REMSYN088AAXX  16044 06631 33/// /1501 11002 21010 39620 40305 55001 333 55300 20000 91105 91203;
0159066310999992011011605004+46983+007467FM-12+056599999V0202001N000519999999N9999999N1-00041-00141103061ADDMA1999999096211MD1310021+9999OA149900151REMSYN088AAXX  16054 06631 33/// /2001 11004 21014 39621 40306 53000 333 55300 20000 91103 91202;EQDQ01+000002APC3  
0267066310999992011011606004+46983+007467FM-12+056599999V0201601N001012200019N0600001N1+00001-00111103071ADDAL19900091GA1001+999999999GF100991001001999999001001GJ104329IA1119IA2999-00709KA1999N-00101MA1999999096231MD1210041+9999OA149900261REMSYN124AAXX  16064 06631 32/86 01602 10000 21011 39623 40307 52004 333 21010 32107 55072 55300 20000 70000 90768 93100 91105 91203;
0140066310999992011011607004+46983+007467FM-12+056599999V0201301N001519999999N9999999N1+00001-00151103141ADDMA1999999096291MD1310091+9999OA149900211REMSYN088AAXX  16074 06631 33/// /1303 10000 21015 39629 40314 53009 333 55300 20000 91104 91203;
0140066310999992011011608004+46983+007467FM-12+056599999V0201501N001019999999N9999999N1+00031-00131103161ADDMA1999999096321MD1319999+9999OA149900211REMSYN088AAXX  16084 06631 33/// /1502 10003 21013 39632 40316 53/// 333 55304 20083 91104 91203;
0140066310999992011011609004+46983+007467FM-12+056599999V0202301N000519999999N9999999N1+00131-00021103131ADDMA1999999096311MD1210081+9999OA149900211REMSYN088AAXX  16094 06631 33/// /2301 10013 21002 39631 40313 52008 333 553// 20515 91104 91203;
0140066310999992011011610004+46983+007467FM-12+056599999V0202301N001019999999N9999999N1+00371+00121103071ADDMA1999999096321MD1210031+9999OA149900151REMSYN088AAXX  16104 06631 33/// /2302 10037 20012 39632 40307 52003 333 553// 20947 91103 91202;
0140066310999992011011611004+46983+007467FM-12+056599999V0202201N001019999999N9999999N1+00631+00191102961ADDMA1999999096281MD1810041+9999OA149900211REMSYN088AAXX  16114 06631 33/// /2202 10063 20019 39628 40296 58004 333 553// 2//// 91104 91203;
0182066310999992011011612004+46983+007467FM-12+056599999V0202301N000512200019N0600001N1+00791+00131102861ADDGA1001+999999999GF100991001001999999001001MA1999999096221MD1810091+9999OA149900261REMSYN088AAXX  16124 06631 32/86 02301 10079 20013 39622 40286 58009 333 553// 2//// 91105 91203;
0140066310999992011011613004+46983+007467FM-12+056599999V0202901N000519999999N9999999N1+00911+00141102751ADDMA1999999096151MD1810171+9999OA149900211REMSYN088AAXX  16134 06631 33/// /2901 10091 20014 39615 40275 58017 333 553// 2//// 91104 91203;
0140066310999992011011614004+46983+007467FM-12+056599999V0209999C000019999999N9999999N1+00951+00121102721ADDMA1999999096131MD1719999+9999OA149900211REMSYN088AAXX  16144 06631 33/// /0000 10095 20012 39613 40272 57/// 333 553// 2//// 91104 91202;
0140066310999992011011615004+46983+007467FM-12+056599999V0203501N001019999999N9999999N1+00931+00351102721ADDMA1999999096121MD1710101+9999OA149900211REMSYN088AAXX  16154 06631 33/// /3502 10093 20035 39612 40272 57010 333 553// 20695 91104 91203;
0140066310999992011011616004+46983+007467FM-12+056599999V0200201N001519999999N9999999N1+00551+00311102811ADDMA1999999096121MD1510031+9999OA149900211REMSYN088AAXX  16164 06631 33/// /0203 10055 20031 39612 40281 55003 333 55309 20216 91104 91203;
0140066310999992011011617004+46983+007467FM-12+056599999V0200401N000519999999N9999999N1+00341+00181102891ADDMA1999999096141MD1210011+9999OA149900211REMSYN088AAXX  16174 06631 33/// /0401 10034 20018 39614 40289 52001 333 55300 20004 91104 91204;
0235066310999992011011618004+46983+007467FM-12+056599999V0200101N000512200019N0600001N1+00301+00151102951ADDAL19900091GA1001+999999999GF100991001001999999001001IA1119KA1120M+00971MA1999999096191MD1210071+9999OA149900211REMSYN112AAXX  16184 06631 32/86 00101 10030 20015 39619 40295 52007 333 10097 32/// 55300 20000 90766 93100 91104 91204;
0140066310999992011011619004+46983+007467FM-12+056599999V0202101N000519999999N9999999N1+00271+00131102971ADDMA1999999096201MD1210081+9999OA149900101REMSYN088AAXX  16194 06631 33/// /2101 10027 20013 39620 40297 52008 333 55300 20000 91102 91202;
0140066310999992011011620004+46983+007467FM-12+056599999V0202101N000519999999N9999999N1+00171+00051103021ADDMA1999999096221MD1210081+9999OA149900101REMSYN088AAXX  16204 06631 33/// /2101 10017 20005 39622 40302 52008 333 55300 20000 91102 91202;
0140066310999992011011621004+46983+007467FM-12+056599999V0202201N000519999999N9999999N1+00051-00041103061ADDMA1999999096231MD1210041+9999OA149900211REMSYN088AAXX  16214 06631 33/// /2201 10005 21004 39623 40306 52004 333 55300 20000 91104 91204;
0140066310999992011011622004+46983+007467FM-12+056599999V0202701N000519999999N9999999N1+00031-00091103081ADDMA1999999096241MD1210041+9999OA149900151REMSYN088AAXX  16224 06631 33/// /2701 10003 21009 39624 40308 52004 333 55300 20000 91103 91202;
0140066310999992011011623004+46983+007467FM-12+056599999V0202401N001019999999N9999999N1-00171-00251103121ADDMA1999999096231MD1010011+9999OA149900151REMSYN088AAXX  16234 06631 33/// /2402 11017 21025 39623 40312 50001 333 55300 20000 91103 91202;
0140066310999992011011700004+46983+007467FM-12+056599999V0202001N001019999999N9999999N1+00061-00081103051ADDMA1999999096221MD1710011+9999OA149900211REMSYN088AAXX  17004 06631 33/// /2002 10006 21008 39622 40305 57001 333 55300 20000 91104 91204;
0140066310999992011011701004+46983+007467FM-12+056599999V0202301N000519999999N9999999N1-00021-00101103051ADDMA1999999096201MD1710041+9999OA149900151REMSYN088AAXX  17014 06631 33/// /2301 11002 21010 39620 40305 57004 333 55300 20000 91103 91202;
0140066310999992011011702004+46983+007467FM-12+056599999V0209999C000019999999N9999999N1-00051-00161103041ADDMA1999999096191MD1719999+9999OA149900151REMSYN088AAXX  17024 06631 33/// /0000 11005 21016 39619 40304 57/// 333 55300 20000 91103 91202;
0103066310999992011011703004+46983+007467FM-12+056599999V0209999C000019999999N9999999N1-00061-00151103051ADDMA1999999096191REMSYN076AAXX  17034 06631 33/// /0000 11006 21015 39619 40305 5//// 333 553// 20000;
0140066310999992011011704004+46983+007467FM-12+056599999V0202201N000519999999N9999999N1-00141-00251103031ADDMA1999999096151MD1710051+9999OA149900151REMSYN088AAXX  17044 06631 33/// /2201 11014 21025 39615 40303 57005 333 55300 20000 91103 91202;
0140066310999992011011705004+46983+007467FM-12+056599999V0201701N001019999999N9999999N1-00041-00181102971ADDMA1999999096121MD1810071+9999OA149900151REMSYN088AAXX  17054 06631 33/// /1702 11004 21018 39612 40297 58007 333 55300 20000 91103 91202;
0267066310999992011011706004+46983+007467FM-12+056599999V0201801N001012200019N0600001N1-00091-00221102971ADDAL19900091GA1001+999999999GF100991001001999999001001GJ104989IA1119IA2999-00709KA1999N-00301MA1999999096111MD1610081+9999OA149900151REMSYN124AAXX  17064 06631 32/86 01802 11009 21022 39611 40297 56008 333 21030 32107 55083 55300 20000 70000 90768 93100 91103 91203;
0140066310999992011011707004+46983+007467FM-12+056599999V0201901N000519999999N9999999N1-00161-00291102991ADDMA1999999096111MD1710041+9999OA149900151REMSYN088AAXX  17074 06631 33/// /1901 11016 21029 39611 40299 57004 333 55300 20000 91103 91203;
0087066310999992011011708004+46983+007467FM-12+056599999V0201901N000519999999N9999999N1-00071-00201102991ADDMA1999999096131REMSYN060AAXX  17084 06631 43/// /1901 11007 21020 39613 40299 5////;
0087066310999992011011709004+46983+007467FM-12+056599999V0201901N000519999999N9999999N1+00031-00091102951ADDMA1999999096121REMSYN060AAXX  17094 06631 43/// /1901 10003 21009 39612 40295 5////;
0140066310999992011011710004+46983+007467FM-12+056599999V0202001N001019999999N9999999N1+00381+00071102891ADDMA1999999096151MD1210041+9999OA149900151REMSYN088AAXX  17104 06631 33/// /2002 10038 20007 39615 40289 52004 333 553// 20907 91103 91202;
0140066310999992011011711004+46983+007467FM-12+056599999V0202301N001019999999N9999999N1+00541+00091102841ADDMA1999999096141MD1210011+9999OA149900151REMSYN088AAXX  17114 06631 33/// /2302 10054 20009 39614 40284 52001 333 553// 2//// 91103 91202;
0194066310999992011011712004+46983+007467FM-12+056599999V0202401N001012200019N0600001N1+00681+00121102771ADDGA1001+999999999GF100991001001999999001001MA1999999096111MD1810011+9999MW1051OA149900211REMSYN094AAXX  17124 06631 31/86 02402 10068 20012 39611 40277 58001 705// 333 553// 2//// 91104 91203;
0140066310999992011011713004+46983+007467FM-12+056599999V0202601N001519999999N9999999N1+00811+00201102701ADDMA1999999096081MD1810071+9999OA149900261REMSYN088AAXX  17134 06631 33/// /2603 10081 20020 39608 40270 58007 333 553// 2//// 91105 91203;
0087066310999992011011714004+46983+007467FM-12+056599999V0202801N001019999999N9999999N1+00771+00281102731ADDMA1999999096091REMSYN060AAXX  17144 06631 43/// /2802 10077 20028 39609 40273 5////;
0087066310999992011011715004+46983+007467FM-12+056599999V0202501N001019999999N9999999N1+00731+00311102771ADDMA1999999096121REMSYN060AAXX  17154 06631 43/// /2502 10073 20031 39612 40277 5////;
0140066310999992011011716004+46983+007467FM-12+056599999V0209999C000019999999N9999999N1+00551+00281102831ADDMA1999999096141MD1310061+9999OA149900311REMSYN088AAXX  17164 06631 33/// /0000 10055 20028 39614 40283 53006 333 55303 20148 91106 91203;
0140066310999992011011717004+46983+007467FM-12+056599999V0209999C000019999999N9999999N1+00271+00131102941ADDMA1999999096171MD1310081+9999OA149900151REMSYN088AAXX  17174 06631 33/// /0000 10027 20013 39617 40294 53008 333 55300 20004 91103 91202;
0159066310999992011011718004+46983+007467FM-12+056599999V0201501N001019999999N9999999N1+00381+00231102911ADDKA1120M+00821MA1999999096171MD1210051+9999OA149900361REMSYN094AAXX  17184 06631 33/// /1502 10038 20023 39617 40291 52005 333 10082 55300 20000 91107 91204;
0140066310999992011011719004+46983+007467FM-12+056599999V0201801N001019999999N9999999N1+00271+00141102961ADDMA1999999096191MD1210051+9999OA149900211REMSYN088AAXX  17194 06631 33/// /1802 10027 20014 39619 40296 52005 333 55300 20000 91104 91203;
0140066310999992011011720004+46983+007467FM-12+056599999V0201801N001519999999N9999999N1+00241+00111102981ADDMA1999999096201MD1210031+9999OA149900211REMSYN088AAXX  17204 06631 33/// /1803 10024 20011 39620 40298 52003 333 55300 20000 91104 91203;
0140066310999992011011721004+46983+007467FM-12+056599999V0201701N000519999999N9999999N1+00161+00061103011ADDMA1999999096211MD1210041+9999OA149900211REMSYN088AAXX  17214 06631 33/// /1701 10016 20006 39621 40301 52004 333 55300 20000 91104 91203;
0140066310999992011011722004+46983+007467FM-12+056599999V0203401N000519999999N9999999N1+00061-00061103051ADDMA1999999096221MD1310031+9999OA149900211REMSYN088AAXX  17224 06631 33/// /3401 10006 21006 39622 40305 53003 333 55300 20000 91104 91203;
0140066310999992011011723004+46983+007467FM-12+056599999V0202401N001519999999N9999999N1+00031-00091103071ADDMA1999999096231MD1210031+9999OA149900211REMSYN088AAXX  17234 06631 33/// /2403 10003 21009 39623 40307 52003 333 55300 20000 91104 91203;
0140066310999992011011800004+46983+007467FM-12+056599999V0209999C000019999999N9999999N1+00011-00071103051ADDMA1999999096211MD1010001+9999OA149900361REMSYN088AAXX  18004 06631 33/// /0000 10001 21007 39621 40305 50000 333 55300 20000 91107 91204;
0140066310999992011011801004+46983+007467FM-12+056599999V0201501N000519999999N9999999N1+00091-00061103031ADDMA1999999096211MD1719999+9999OA149900151REMSYN088AAXX  18014 06631 33/// /1501 10009 21006 39621 40303 57/// 333 55300 20000 91103 91202;
0087066310999992011011802004+46983+007467FM-12+056599999V0200301N000519999999N9999999N1+00011-00121103041ADDMA1999999096201REMSYN060AAXX  18024 06631 43/// /0301 10001 21012 39620 40304 5////;
0087066310999992011011803004+46983+007467FM-12+056599999V0201201N001019999999N9999999N1-00011-00131103011ADDMA1999999096171REMSYN060AAXX  18034 06631 43/// /1202 11001 21013 39617 40301 5////;
0103066310999992011011804004+46983+007467FM-12+056599999V0202101N000519999999N9999999N1-00091-00191103001ADDMA1999999096141REMSYN076AAXX  18044 06631 33/// /2101 11009 21019 39614 40300 5//// 333 553// 20000;
0140066310999992011011805004+46983+007467FM-12+056599999V0209999C000019999999N9999999N1-00161-00261103011ADDMA1999999096131MD1710071+9999OA149900211REMSYN088AAXX  18054 06631 33/// /0000 11016 21026 39613 40301 57007 333 55300 20000 91104 91202;
0207066310999992011011806004+46983+007467FM-12+056599999V0203201N001019999999N9999999N1-00081-00211103021ADDAL19900091GJ104629IA2999-00709KA1999N-00241MA1999999096161MD1510011+9999OA149900211REMSYN112AAXX  18064 06631 33/// /3202 11008 21021 39616 40302 55001 333 21024 3/107 55077 55300 20000 70000 91104 91203;
0140066310999992011011807004+46983+007467FM-12+056599999V0200801N000519999999N9999999N1-00031-00181103021ADDMA1999999096171MD1210031+9999OA149900151REMSYN088AAXX  18074 06631 33/// /0801 11003 21018 39617 40302 52003 333 55300 20000 91103 91202;
0087066310999992011011808004+46983+007467FM-12+056599999V0202401N001019999999N9999999N1-00041-00171103031ADDMA1999999096181REMSYN060AAXX  18084 06631 43/// /2402 11004 21017 39618 40303 5////;
0087066310999992011011809004+46983+007467FM-12+056599999V0209999C000019999999N9999999N1+00061-00091102991ADDMA1999999096171REMSYN060AAXX  18094 06631 43/// /0000 10006 21009 39617 40299 5////;
0175066310999992011011810004+46983+007467FM-12+056599999V0202101N001019999999N9999999N1+00141-00041102971ADDMA1999999096171MD1710051+9999OA149900151REMSYN088AAXX  18104 06631 33/// /2102 10014 21004 39617 40297 57000 333 55300 20436 91103 91202;EQDQ01+000072APCTENQ02+000002APC3  
0140066310999992011011811004+46983+007467FM-12+056599999V0202501N001519999999N9999999N1+00471+00121102821ADDMA1999999096111MD1710071+9999OA149900211REMSYN088AAXX  18114 06631 33/// /2503 10047 20012 39611 40282 57007 333 55309 2//// 91104 91203;
