0149066390999992011010100004+47000+007933FM-12+140699999V0203301N001519999999N9999999N1-00351-00351999999ADDMA1999999085941MD1810091+9999ME1314929OA149900571REMSYN088AAXX  01004 06639 33/// /3303 11035 21035 38594 48492 58009 333 55300 20000 91111 91207;
0149066390999992011010101004+47000+007933FM-12+140699999V0200701N001019999999N9999999N1+00011-00631999999ADDMA1999999085901MD1610111+9999ME1314909OA149900261REMSYN088AAXX  01014 06639 33/// /0702 10001 21063 38590 48490 56011 333 55300 20000 91105 91205;
0149066390999992011010102004+47000+007933FM-12+140699999V0200201N000519999999N9999999N1-00021-00561999999ADDMA1999999085891MD1710091+9999ME1314899OA149900211REMSYN088AAXX  01024 06639 33/// /0201 11002 21056 38589 48489 57009 333 55300 20000 91104 91203;
0149066390999992011010103004+47000+007933FM-12+140699999V0209999C000019999999N9999999N1-00031-00601999999ADDMA1999999085881MD1710061+9999ME1314889OA149900311REMSYN088AAXX  01034 06639 33/// /0000 11003 21060 38588 48488 57006 333 55300 20000 91106 91205;
0149066390999992011010104004+47000+007933FM-12+140699999V0202401N001519999999N9999999N1-00061-00641999999ADDMA1999999085851MD1710051+9999ME1314859OA149900261REMSYN088AAXX  01044 06639 33/// /2403 11006 21064 38585 48485 57005 333 55300 20000 91105 91203;
0149066390999992011010105004+47000+007933FM-12+140699999V0202601N003119999999N9999999N1-00151-00631999999ADDMA1999999085861MD1710031+9999ME1314869OA149900461REMSYN088AAXX  01054 06639 33/// /2606 11015 21063 38586 48486 57003 333 55300 20000 91109 91206;
0235066390999992011010106004+47000+007933FM-12+140699999V0202501N004119999999N9999999N1-00201-00651999999ADDAL19900091GJ100969IA2999-00809KA1999N-00371MA1999999085881MD1410001+9999ME1314879OA149900571REMSYN112AAXX  01064 06639 33/// /2508 11020 21065 38588 48487 53000 333 21037 3/108 55016 55300 20000 70000 91111 91208;EQDQ01+000032APCTEN
0149066390999992011010107004+47000+007933FM-12+140699999V0202701N001519999999N9999999N1-00151-00681999999ADDMA1999999085901MD1310051+9999ME1314899OA149900571REMSYN088AAXX  01074 06639 33/// /2703 11015 21068 38590 48489 53005 333 55300 20000 91111 91208;
0149066390999992011010108004+47000+007933FM-12+140699999V0202301N001019999999N9999999N1-00071-00781999999ADDMA1999999085911MD1119999+9999ME1314909OA149900511REMSYN088AAXX  01084 06639 33/// /2302 11007 21078 38591 48490 51/// 333 55300 20086 91110 91207;
0096066390999992011010109004+47000+007933FM-12+140699999V0203401N001019999999N9999999N1-00081-00761999999ADDMA1999999085911ME1314909REMSYN060AAXX  01094 06639 43/// /3402 11008 21076 38591 48490 5////;
0096066390999992011010110004+47000+007933FM-12+140699999V0203401N000519999999N9999999N1-00021-00761999999ADDMA1999999085911ME1314919REMSYN060AAXX  01104 06639 43/// /3401 11002 21076 38591 48491 5////;
0149066390999992011010111004+47000+007933FM-12+140699999V0203001N001019999999N9999999N1-00031-00631999999ADDMA1999999085881MD1810031+9999ME1314889OA149900151REMSYN088AAXX  01114 06639 33/// /3002 11003 21063 38588 48488 58003 333 553// 2//// 91103 91202;
0096066390999992011010112004+47000+007933FM-12+140699999V0202101N002619999999N9999999N1+00031-00471999999ADDMA1999999085831ME1314839REMSYN060AAXX  01124 06639 43/// /2105 10003 21047 38583 48483 5////;
0096066390999992011010113004+47000+007933FM-12+140699999V0202201N003119999999N9999999N1+00031-00621999999ADDMA1999999085771ME1314789REMSYN060AAXX  01134 06639 43/// /2206 10003 21062 38577 48478 5////;
0096066390999992011010114004+47000+007933FM-12+140699999V0202301N003619999999N9999999N1+00001-00591999999ADDMA1999999085761ME1314779REMSYN060AAXX  01144 06639 43/// /2307 10000 21059 38576 48477 5////;
0096066390999992011010115004+47000+007933FM-12+140699999V0202301N003119999999N9999999N1-00031-00581999999ADDMA1999999085751ME1314769REMSYN060AAXX  01154 06639 43/// /2306 11003 21058 38575 48476 5////;
0096066390999992011010116004+47000+007933FM-12+140699999V0203001N002619999999N9999999N1-00141-00621999999ADDMA1999999085741ME1314759REMSYN060AAXX  01164 06639 43/// /3005 11014 21062 38574 48475 5////;
0096066390999992011010117004+47000+007933FM-12+140699999V0203101N002619999999N9999999N1-00201-00671999999ADDMA1999999085741ME1314749REMSYN060AAXX  01174 06639 43/// /3105 11020 21067 38574 48474 5////;
0096066390999992011010118004+47000+007933FM-12+140699999V0203101N002119999999N9999999N1-00271-00701999999ADDMA1999999085741ME1314749REMSYN060AAXX  01184 06639 43/// /3104 11027 21070 38574 48474 5////;
0112066390999992011010119004+47000+007933FM-12+140699999V0200601N001019999999N9999999N1-00241-00451999999ADDMA1999999085721ME1314729REMSYN076AAXX  01194 06639 33/// /0602 11024 21045 38572 48472 5//// 333 553// 20000;
0149066390999992011010120004+47000+007933FM-12+140699999V0201301N001519999999N9999999N1-00241-00511999999ADDMA1999999085711MD1710031+9999ME1314719OA149900311REMSYN088AAXX  01204 06639 33/// /1303 11024 21051 38571 48471 57003 333 55300 20000 91106 91204;
0149066390999992011010121004+47000+007933FM-12+140699999V0201301N000519999999N9999999N1-00291-00481999999ADDMA1999999085701MD1710041+9999ME1314709OA149900511REMSYN088AAXX  01214 06639 33/// /1301 11029 21048 38570 48470 57004 333 55300 20000 91110 91208;
0149066390999992011010122004+47000+007933FM-12+140699999V0202201N002119999999N9999999N1-00211-00611999999ADDMA1999999085661MD1710061+9999ME1314679OA149900261REMSYN088AAXX  01224 06639 33/// /2204 11021 21061 38566 48467 57006 333 55300 20000 91105 91205;
0149066390999992011010123004+47000+007933FM-12+140699999V0202201N001519999999N9999999N1-00321-00611999999ADDMA1999999085601MD1810111+9999ME1314619OA149900261REMSYN088AAXX  01234 06639 33/// /2203 11032 21061 38560 48461 58011 333 55300 20000 91105 91205;
0149066390999992011010200004+47000+007933FM-12+140699999V0203501N002619999999N9999999N1-00621-00621999999ADDMA1999999085581MD1710121+9999ME1314599OA149900621REMSYN088AAXX  02004 06639 33/// /3505 11062 21062 38558 48459 57012 333 55300 20000 91112 91208;
0149066390999992011010201004+47000+007933FM-12+140699999V0200901N002119999999N9999999N1-00611-00611999999ADDMA1999999085561MD1710101+9999ME1314579OA149900621REMSYN088AAXX  02014 06639 33/// /0904 11061 21061 38556 48457 57010 333 55300 20000 91112 91208;
0096066390999992011010202004+47000+007933FM-12+140699999V0203501N001019999999N9999999N1-00611-00611999999ADDMA1999999085561ME1314579REMSYN060AAXX  02024 06639 43/// /3502 11061 21061 38556 48457 5////;
0096066390999992011010203004+47000+007933FM-12+140699999V0203601N001019999999N9999999N1-00611-00611999999ADDMA1999999085591ME1314609REMSYN060AAXX  02034 06639 43/// /3602 11061 21061 38559 48460 5////;
0096066390999992011010204004+47000+007933FM-12+140699999V0200801N002619999999N9999999N1-00591-00591999999ADDMA1999999085591ME1314609REMSYN060AAXX  02044 06639 43/// /0805 11059 21059 38559 48460 5////;
0096066390999992011010205004+47000+007933FM-12+140699999V0200701N006219999999N9999999N1-00551-00611999999ADDMA1999999085581ME1314599REMSYN060AAXX  02054 06639 43/// /0712 11055 21061 38558 48459 5////;
0143066390999992011010206004+47000+007933FM-12+140699999V0203401N003119999999N9999999N1-00621-00621999999ADDIA2999-00809KA1999N-00671MA1999999085591ME1314609REMSYN082AAXX  02064 06639 43/// /3406 11062 21062 38559 48460 5//// 333 21067 3/108 55072;
0149066390999992011010207004+47000+007933FM-12+140699999V0200601N003619999999N9999999N1-00611-00641999999ADDMA1999999085591MD1010001+9999ME1314609OA149900931REMSYN088AAXX  02074 06639 33/// /0607 11061 21064 38559 48460 50000 333 55300 20000 91118 91210;
0149066390999992011010208004+47000+007933FM-12+140699999V0203601N002119999999N9999999N1-00601-00611999999ADDMA1999999085641MD1210061+9999ME1314649OA149900621REMSYN088AAXX  02084 06639 33/// /3604 11060 21061 38564 48464 52006 333 55300 20022 91112 91208;
0149066390999992011010209004+47000+007933FM-12+140699999V0203501N002619999999N9999999N1-00591-00591999999ADDMA1999999085671MD1310081+9999ME1314679OA149900931REMSYN088AAXX  02094 06639 33/// /3505 11059 21059 38567 48467 53008 333 55300 20097 91118 91212;
0149066390999992011010210004+47000+007933FM-12+140699999V0203401N002619999999N9999999N1-00601-00601999999ADDMA1999999085711MD1110121+9999ME1314719OA149900571REMSYN088AAXX  02104 06639 33/// /3405 11060 21060 38571 48471 51012 333 55300 20198 91111 91205;
0149066390999992011010211004+47000+007933FM-12+140699999V0203401N003619999999N9999999N1-00591-00591999999ADDMA1999999085691MD1210051+9999ME1314699OA149900571REMSYN088AAXX  02114 06639 33/// /3407 11059 21059 38569 48469 52005 333 55300 20281 91111 91207;
0168066390999992011010212004+47000+007933FM-12+140699999V0203401N002619999999N9999999N1-00601-00601999999ADDMA1999999085671MD1410001+9999ME1314679OA149900931REMSYN088AAXX  02124 06639 33/// /3405 11060 21060 38567 48467 58000 333 55300 20263 91118 91212;EQDQ01+000082APCTEN
0149066390999992011010213004+47000+007933FM-12+140699999V0203301N002619999999N9999999N1-00611-00611999999ADDMA1999999085661MD1710051+9999ME1314669OA149900721REMSYN088AAXX  02134 06639 33/// /3305 11061 21061 38566 48466 57005 333 55300 20162 91114 91207;
0118066390999992011010214004+47000+007933FM-12+140699999V0203401N002619999999N9999999N1-00591-00601999999ADDMA1999999085681ME1314689REMSYN082AAXX  02144 06639 23/// /3405 11059 21060 38568 48468 5//// 333 553// 20094 69925;
0155066390999992011010215004+47000+007933FM-12+140699999V0203401N003619999999N9999999N1-00681-00691999999ADDMA1999999085721MD1310051+9999ME1314719OA149900771REMSYN094AAXX  02154 06639 23/// /3407 11068 21069 38572 48471 53005 333 55300 20032 69935 91115 91207;
0149066390999992011010216004+47000+007933FM-12+140699999V0203501N002119999999N9999999N1-00731-00771999999ADDMA1999999085751MD1310091+9999ME1314749OA149900771REMSYN088AAXX  02164 06639 33/// /3504 11073 21077 38575 48474 53009 333 55300 20000 91115 91207;
0149066390999992011010217004+47000+007933FM-12+140699999V0203501N002119999999N9999999N1-00751-00761999999ADDMA1999999085781MD1110101+9999ME1314779OA149900771REMSYN088AAXX  02174 06639 33/// /3504 11075 21076 38578 48477 51010 333 55300 20000 91115 91206;
0191066390999992011010218004+47000+007933FM-12+140699999V0200301N002119999999N9999999N1-00781-00781999999ADDAA112000591KA1120M-00531MA1999999085781MD1110061+9999ME1314769OA149900931REMSYN106AAXX  02184 06639 03/// /0304 11078 21078 38578 48476 51006 69952 333 11053 55300 20000 60005 91118 91208;
0149066390999992011010219004+47000+007933FM-12+140699999V0203401N003119999999N9999999N1-00771-00801999999ADDMA1999999085791MD1110041+9999ME1314779OA149900931REMSYN088AAXX  02194 06639 33/// /3406 11077 21080 38579 48477 51004 333 55300 20000 91118 91207;
0149066390999992011010220004+47000+007933FM-12+140699999V0200101N002119999999N9999999N1-00771-00781999999ADDMA1999999085811MD1310031+9999ME1314799OA149900821REMSYN088AAXX  02204 06639 33/// /0104 11077 21078 38581 48479 53003 333 55300 20000 91116 91207;
0149066390999992011010221004+47000+007933FM-12+140699999V0203601N002619999999N9999999N1-00771-00791999999ADDMA1999999085811MD1110031+9999ME1314799OA149901031REMSYN088AAXX  02214 06639 33/// /3605 11077 21079 38581 48479 51003 333 55300 20000 91120 91207;
0149066390999992011010222004+47000+007933FM-12+140699999V0200101N003119999999N9999999N1-00811-00841999999ADDMA1999999085831MD1310041+9999ME1314819OA149901031REMSYN088AAXX  02224 06639 33/// /0106 11081 21084 38583 48481 53004 333 55300 20000 91120 91207;
0149066390999992011010223004+47000+007933FM-12+140699999V0200201N002119999999N9999999N1-00811-00811999999ADDMA1999999085831MD1210021+9999ME1314819OA149900881REMSYN088AAXX  02234 06639 33/// /0204 11081 21081 38583 48481 52002 333 55300 20000 91117 91206;
0168066390999992011010300004+47000+007933FM-12+140699999V0200301N002119999999N9999999N1-00851-00891999999ADDMA1999999085811MD1410001+9999ME1314799OA149901031REMSYN088AAXX  03004 06639 33/// /0304 11085 21089 38581 48479 58000 333 55300 20000 91120 91207;EQDQ01+000082APCTEN
0149066390999992011010301004+47000+007933FM-12+140699999V0200301N002619999999N9999999N1-00851-00881999999ADDMA1999999085791MD1710041+9999ME1314779OA149900881REMSYN088AAXX  03014 06639 33/// /0305 11085 21088 38579 48477 57004 333 55300 20000 91117 91205;
0149066390999992011010302004+47000+007933FM-12+140699999V0200401N001519999999N9999999N1-00881-00901999999ADDMA1999999085791MD1619999+9999ME1314779OA149900881REMSYN088AAXX  03024 06639 33/// /0403 11088 21090 38579 48477 56/// 333 55300 20000 91117 91205;
0096066390999992011010303004+47000+007933FM-12+140699999V0200801N003619999999N9999999N1-00871-00921999999ADDMA1999999085801ME1314789REMSYN060AAXX  03034 06639 43/// /0807 11087 21092 38580 48478 5////;
0149066390999992011010304004+47000+007933FM-12+140699999V0200801N004119999999N9999999N1-00921-01021999999ADDMA1999999085791MD1410001+9999ME1314779OA149900931REMSYN088AAXX  03044 06639 33/// /0808 11092 21102 38579 48477 54000 333 55300 20000 91118 91208;
0149066390999992011010305004+47000+007933FM-12+140699999V0200801N005119999999N9999999N1-00881-00911999999ADDMA1999999085771MD1810021+9999ME1314759OA149900981REMSYN088AAXX  03054 06639 33/// /0810 11088 21091 38577 48475 58002 333 55300 20000 91119 91210;
0216066390999992011010306004+47000+007933FM-12+140699999V0200801N006219999999N9999999N1-00911-01061999999ADDAL13000091GJ100009IA2999-01109KA1999N-00931MA1999999085771MD1710031+9999ME1314759OA149901031REMSYN112AAXX  03064 06639 33/// /0812 11091 21106 38577 48475 57003 333 21093 3/111 55000 55300 20000 70005 91120 91212;
0149066390999992011010307004+47000+007933FM-12+140699999V0200801N006719999999N9999999N1-00911-01041999999ADDMA1999999085741MD1710051+9999ME1314739OA149901131REMSYN088AAXX  03074 06639 33/// /0813 11091 21104 38574 48473 57005 333 55300 20000 91122 91213;
0149066390999992011010308004+47000+007933FM-12+140699999V0200801N006219999999N9999999N1-00871-01061999999ADDMA1999999085751MD1719999+9999ME1314749OA149901291REMSYN088AAXX  03084 06639 33/// /0812 11087 21106 38575 48474 57/// 333 55300 20079 91125 91214;
0112066390999992011010309004+47000+007933FM-12+140699999V0200701N006719999999N9999999N1-00851-00991999999ADDMA1999999085751ME1314749REMSYN076AAXX  03094 06639 33/// /0713 11085 21099 38575 48474 5//// 333 553// 20526;
0149066390999992011010310004+47000+007933FM-12+140699999V0200701N005719999999N9999999N1-00831-01051999999ADDMA1999999085781MD1310041+9999ME1314769OA149901181REMSYN088AAXX  03104 06639 33/// /0711 11083 21105 38578 48476 53004 333 55300 20972 91123 91214;
0149066390999992011010311004+47000+007933FM-12+140699999V0200701N005719999999N9999999N1-00821-00951999999ADDMA1999999085761MD1210011+9999ME1314759OA149901181REMSYN088AAXX  03114 06639 33/// /0711 11082 21095 38576 48475 52001 333 55300 2//// 91123 91214;
0149066390999992011010312004+47000+007933FM-12+140699999V0200701N004619999999N9999999N1-00831-01081999999ADDMA1999999085721MD1810031+9999ME1314719OA149901291REMSYN088AAXX  03124 06639 33/// /0709 11083 21108 38572 48471 58003 333 55305 2//// 91125 91214;
0149066390999992011010313004+47000+007933FM-12+140699999V0200601N004619999999N9999999N1-00881-01061999999ADDMA1999999085701MD1610081+9999ME1314699OA149901081REMSYN088AAXX  03134 06639 33/// /0609 11088 21106 38570 48469 56008 333 553// 2//// 91121 91212;
0112066390999992011010314004+47000+007933FM-12+140699999V0200501N004119999999N9999999N1-00921-00981999999ADDMA1999999085701ME1314699REMSYN076AAXX  03144 06639 33/// /0508 11092 21098 38570 48469 5//// 333 553// 2////;
0112066390999992011010315004+47000+007933FM-12+140699999V0200401N003119999999N9999999N1-00931-00981999999ADDMA1999999085701ME1314699REMSYN076AAXX  03154 06639 33/// /0406 11093 21098 38570 48469 5//// 333 553// 20677;
0149066390999992011010316004+47000+007933FM-12+140699999V0200501N002119999999N9999999N1-00991-01081999999ADDMA1999999085691MD1810011+9999ME1314689OA149900671REMSYN088AAXX  03164 06639 33/// /0504 11099 21108 38569 48468 58001 333 55300 20144 91113 91207;
0149066390999992011010317004+47000+007933FM-12+140699999V0201101N002619999999N9999999N1-01001-01051999999ADDMA1999999085671MD1710031+9999ME1314669OA149900621REMSYN088AAXX  03174 06639 33/// /1105 11100 21105 38567 48466 57003 333 55300 20000 91112 91207;
0168066390999992011010318004+47000+007933FM-12+140699999V0201001N003619999999N9999999N1-01041-01041999999ADDKA1120M-00821MA1999999085661MD1710041+9999ME1314659OA149901291REMSYN094AAXX  03184 06639 33/// /1007 11104 21104 38566 48465 57004 333 11082 55300 20000 91125 91214;
0149066390999992011010319004+47000+007933FM-12+140699999V0202201N001019999999N9999999N1-00881-01081999999ADDMA1999999085651MD1710041+9999ME1314649OA149900571REMSYN088AAXX  03194 06639 33/// /2202 11088 21108 38565 48464 57004 333 55300 20000 91111 91208;
0149066390999992011010320004+47000+007933FM-12+140699999V0202601N002119999999N9999999N1-00931-01011999999ADDMA1999999085611MD1710061+9999ME1314619OA149900461REMSYN088AAXX  03204 06639 33/// /2604 11093 21101 38561 48461 57006 333 55300 20000 91109 91208;
0149066390999992011010321004+47000+007933FM-12+140699999V0202501N003619999999N9999999N1-00931-01021999999ADDMA1999999085601MD1810061+9999ME1314609OA149900621REMSYN088AAXX  03214 06639 33/// /2507 11093 21102 38560 48460 58006 333 55300 20000 91112 91208;
0149066390999992011010322004+47000+007933FM-12+140699999V0202701N003119999999N9999999N1-00921-01091999999ADDMA1999999085581MD1710071+9999ME1314589OA149900571REMSYN088AAXX  03224 06639 33/// /2706 11092 21109 38558 48458 57007 333 55300 20000 91111 91208;
0149066390999992011010323004+47000+007933FM-12+140699999V0202301N005119999999N9999999N1-01011-01111999999ADDMA1999999085591MD1510021+9999ME1314599OA149900721REMSYN088AAXX  03234 06639 33/// /2310 11101 21111 38559 48459 55002 333 55300 20000 91114 91210;
0149066390999992011010400004+47000+007933FM-12+140699999V0202401N006219999999N9999999N1-01081-01081999999ADDMA1999999085591MD1010011+9999ME1314599OA149900931REMSYN088AAXX  04004 06639 33/// /2412 11108 21108 38559 48459 50001 333 55300 20000 91118 91212;
0149066390999992011010401004+47000+007933FM-12+140699999V0202001N005719999999N9999999N1-01031-01061999999ADDMA1999999085541MD1810041+9999ME1314549OA149900821REMSYN088AAXX  04014 06639 33/// /2011 11103 21106 38554 48454 58004 333 55300 20000 91116 91212;
0149066390999992011010402004+47000+007933FM-12+140699999V0202401N005719999999N9999999N1-00861-00951999999ADDMA1999999085531MD1719999+9999ME1314549OA149901241REMSYN088AAXX  04024 06639 33/// /2411 11086 21095 38553 48454 57/// 333 55300 20000 91124 91216;
0149066390999992011010403004+47000+007933FM-12+140699999V0202501N005119999999N9999999N1-00771-00911999999ADDMA1999999085511MD1710081+9999ME1314529OA149901241REMSYN088AAXX  04034 06639 33/// /2510 11077 21091 38551 48452 57008 333 55300 20000 91124 91216;
0149066390999992011010404004+47000+007933FM-12+140699999V0202201N003619999999N9999999N1-00831-00891999999ADDMA1999999085481MD1710061+9999ME1314499OA149901081REMSYN088AAXX  04044 06639 33/// /2207 11083 21089 38548 48449 57006 333 55300 20000 91121 91212;
0149066390999992011010405004+47000+007933FM-12+140699999V0202901N003119999999N9999999N1-00721-00851999999ADDMA1999999085471MD1710061+9999ME1314489OA149900931REMSYN088AAXX  04054 06639 33/// /2906 11072 21085 38547 48448 57006 333 55300 20000 91118 91210;
0216066390999992011010406004+47000+007933FM-12+140699999V0202501N002619999999N9999999N1-00741-00841999999ADDAL19900091GJ101509IA2999-01509KA1999N-01091MA1999999085441MD1710071+9999ME1314469OA149901241REMSYN112AAXX  04064 06639 33/// /2505 11074 21084 38544 48446 57007 333 21109 3/115 55025 55300 20000 70000 91124 91216;
0149066390999992011010407004+47000+007933FM-12+140699999V0202501N003619999999N9999999N1-00691-00791999999ADDMA1999999085431MD1610051+9999ME1314459OA149900671REMSYN088AAXX  04074 06639 33/// /2507 11069 21079 38543 48445 56005 333 55300 20000 91113 91207;
0149066390999992011010408004+47000+007933FM-12+140699999V0202801N003619999999N9999999N1-00681-00791999999ADDMA1999999085441MD1719999+9999ME1314469OA149900721REMSYN088AAXX  04084 06639 33/// /2807 11068 21079 38544 48446 57/// 333 55300 20007 91114 91208;
0112066390999992011010409004+47000+007933FM-12+140699999V0202601N002619999999N9999999N1-00551-00921999999ADDMA1999999085451ME1314479REMSYN076AAXX  04094 06639 33/// /2605 11055 21092 38545 48447 5//// 333 553// 20104;
0149066390999992011010410004+47000+007933FM-12+140699999V0202501N002619999999N9999999N1-00601-00861999999ADDMA1999999085461MD1210031+9999ME1314489OA149900511REMSYN088AAXX  04104 06639 33/// /2505 11060 21086 38546 48448 52003 333 55300 20378 91110 91206;
0149066390999992011010411004+47000+007933FM-12+140699999V0202401N003119999999N9999999N1-00441-00611999999ADDMA1999999085441MD1010001+9999ME1314469OA149900671REMSYN088AAXX  04114 06639 33/// /2406 11044 21061 38544 48446 50000 333 55300 2//// 91113 91206;
0149066390999992011010412004+47000+007933FM-12+140699999V0202301N003619999999N9999999N1-00481-00581999999ADDMA1999999085371MD1810081+9999ME1314409OA149901241REMSYN088AAXX  04124 06639 33/// /2307 11048 21058 38537 48440 58008 333 55300 20691 91124 91216;
0149066390999992011010413004+47000+007933FM-12+140699999V0202101N002119999999N9999999N1-00501-00591999999ADDMA1999999085331MD1710131+9999ME1314369OA149900821REMSYN088AAXX  04134 06639 33/// /2104 11050 21059 38533 48436 57013 333 55300 20688 91116 91209;
0112066390999992011010414004+47000+007933FM-12+140699999V0202401N001519999999N9999999N1-00561-00651999999ADDMA1999999085311ME1314349REMSYN076AAXX  04144 06639 33/// /2403 11056 21065 38531 48434 5//// 333 553// 20580;
0096066390999992011010415004+47000+007933FM-12+140699999V0201801N002619999999N9999999N1-00581-00671999999ADDMA1999999085301ME1314339REMSYN060AAXX  04154 06639 43/// /1805 11058 21067 38530 48433 5////;
0149066390999992011010416004+47000+007933FM-12+140699999V0202301N003619999999N9999999N1-00601-00671999999ADDMA1999999085301MD1710031+9999ME1314339OA149900771REMSYN088AAXX  04164 06639 33/// /2307 11060 21067 38530 48433 57003 333 55300 20025 91115 91208;
0149066390999992011010417004+47000+007933FM-12+140699999V0202501N004619999999N9999999N1-00611-00701999999ADDMA1999999085301MD1510011+9999ME1314339OA149900771REMSYN088AAXX  04174 06639 33/// /2509 11061 21070 38530 48433 55001 333 55300 20000 91115 91209;
0168066390999992011010418004+47000+007933FM-12+140699999V0202301N004119999999N9999999N1-00631-00721999999ADDKA1120M-00441MA1999999085321MD1310021+9999ME1314359OA149900821REMSYN094AAXX  04184 06639 33/// /2308 11063 21072 38532 48435 53002 333 11044 55300 20000 91116 91209;
0149066390999992011010419004+47000+007933FM-12+140699999V0202201N005719999999N9999999N1-00631-00721999999ADDMA1999999085321MD1210021+9999ME1314359OA149900931REMSYN088AAXX  04194 06639 33/// /2211 11063 21072 38532 48435 52002 333 55300 20000 91118 91211;
0149066390999992011010420004+47000+007933FM-12+140699999V0202201N004619999999N9999999N1-00651-00711999999ADDMA1999999085281MD1810021+9999ME1314319OA149900931REMSYN088AAXX  04204 06639 33/// /2209 11065 21071 38528 48431 58002 333 55300 20000 91118 91211;
0149066390999992011010421004+47000+007933FM-12+140699999V0202301N005119999999N9999999N1-00651-00741999999ADDMA1999999085281MD1710041+9999ME1314319OA149900931REMSYN088AAXX  04214 06639 33/// /2310 11065 21074 38528 48431 57004 333 55300 20000 91118 91211;
0149066390999992011010422004+47000+007933FM-12+140699999V0202201N006719999999N9999999N1-00691-00761999999ADDMA1999999085271MD1710051+9999ME1314309OA149901081REMSYN088AAXX  04224 06639 33/// /2213 11069 21076 38527 48430 57005 333 55300 20000 91121 91213;
0149066390999992011010423004+47000+007933FM-12+140699999V0202201N007219999999N9999999N1-00741-00821999999ADDMA1999999085271MD1710011+9999ME1314309OA149901181REMSYN088AAXX  04234 06639 33/// /2214 11074 21082 38527 48430 57001 333 55300 20000 91123 91214;
0149066390999992011010500004+47000+007933FM-12+140699999V0202201N007219999999N9999999N1-00751-00901999999ADDMA1999999085241MD1710041+9999ME1314279OA149901181REMSYN088AAXX  05004 06639 33/// /2214 11075 21090 38524 48427 57004 333 55300 20000 91123 91215;
0149066390999992011010501004+47000+007933FM-12+140699999V0202301N006719999999N9999999N1-00731-00971999999ADDMA1999999085241MD1810031+9999ME1314279OA149901181REMSYN088AAXX  05014 06639 33/// /2313 11073 21097 38524 48427 58003 333 55300 20000 91123 91215;
0149066390999992011010502004+47000+007933FM-12+140699999V0202201N006219999999N9999999N1-00741-00921999999ADDMA1999999085241MD1710031+9999ME1314279OA149901131REMSYN088AAXX  05024 06639 33/// /2212 11074 21092 38524 48427 57003 333 55300 20000 91122 91214;
0096066390999992011010503004+47000+007933FM-12+140699999V0202001N005119999999N9999999N1-00721-00941999999ADDMA1999999085241ME1314279REMSYN060AAXX  05034 06639 43/// /2010 11072 21094 38524 48427 5////;
0149066390999992011010504004+47000+007933FM-12+140699999V0202201N006219999999N9999999N1-00681-00871999999ADDMA1999999085221MD1710021+9999ME1314269OA149900931REMSYN088AAXX  05044 06639 33/// /2212 11068 21087 38522 48426 57002 333 55300 20000 91118 91212;
0149066390999992011010505004+47000+007933FM-12+140699999V0202301N006719999999N9999999N1-00651-00771999999ADDMA1999999085201MD1710041+9999ME1314249OA149901181REMSYN088AAXX  05054 06639 33/// /2313 11065 21077 38520 48424 57004 333 55300 20000 91123 91213;
0216066390999992011010506004+47000+007933FM-12+140699999V0202301N004619999999N9999999N1-00651-00751999999ADDAL19900091GJ100009IA2999-00909KA1999N-00771MA1999999085231MD1510011+9999ME1314279OA149901181REMSYN112AAXX  05064 06639 33/// /2309 11065 21075 38523 48427 55001 333 21077 3/109 55000 55300 20000 70000 91123 91215;
0149066390999992011010507004+47000+007933FM-12+140699999V0202501N003619999999N9999999N1-00621-00721999999ADDMA1999999085231MD1510011+9999ME1314279OA149900931REMSYN088AAXX  05074 06639 33/// /2507 11062 21072 38523 48427 55001 333 55300 20000 91118 91213;
0149066390999992011010508004+47000+007933FM-12+140699999V0202101N003619999999N9999999N1-00581-00691999999ADDMA1999999085241MD1219999+9999ME1314289OA149900821REMSYN088AAXX  05084 06639 33/// /2107 11058 21069 38524 48428 52/// 333 55300 20083 91116 91211;
0149066390999992011010509004+47000+007933FM-12+140699999V0202001N005119999999N9999999N1-00471-00731999999ADDMA1999999085241MD1210011+9999ME1314289OA149901181REMSYN088AAXX  05094 06639 33/// /2010 11047 21073 38524 48428 52001 333 55300 20508 91123 91213;
0149066390999992011010510004+47000+007933FM-12+140699999V0202101N005719999999N9999999N1-00421-00781999999ADDMA1999999085231MD1010001+9999ME1314279OA149900821REMSYN088AAXX  05104 06639 33/// /2111 11042 21078 38523 48427 50000 333 55304 20936 91116 91211;
0149066390999992011010511004+47000+007933FM-12+140699999V0202201N006219999999N9999999N1-00291-00781999999ADDMA1999999085191MD1710051+9999ME1314239OA149900821REMSYN088AAXX  05114 06639 33/// /2212 11029 21078 38519 48423 57005 333 55307 2//// 91116 91213;
0112066390999992011010512004+47000+007933FM-12+140699999V0202101N004619999999N9999999N1-00161-00881999999ADDMA1999999085151ME1314199REMSYN076AAXX  05124 06639 33/// /2109 11016 21088 38515 48419 5//// 333 553// 2////;
0149066390999992011010513004+47000+007933FM-12+140699999V0202401N006219999999N9999999N1-00141-00911999999ADDMA1999999085141MD1710091+9999ME1314199OA149900931REMSYN088AAXX  05134 06639 33/// /2412 11014 21091 38514 48419 57009 333 553// 2//// 91118 91212;
0096066390999992011010514004+47000+007933FM-12+140699999V0202101N006719999999N9999999N1-00201-00851999999ADDMA1999999085171ME1314219REMSYN060AAXX  05144 06639 43/// /2113 11020 21085 38517 48421 5////;
0096066390999992011010515004+47000+007933FM-12+140699999V0202101N007719999999N9999999N1-00211-00901999999ADDMA1999999085101ME1314159REMSYN060AAXX  05154 06639 43/// /2115 11021 21090 38510 48415 5////;
0149066390999992011010516004+47000+007933FM-12+140699999V0202201N008219999999N9999999N1-00221-00921999999ADDMA1999999085081MD1710061+9999ME1314139OA149901241REMSYN088AAXX  05164 06639 33/// /2216 11022 21092 38508 48413 57006 333 55306 20126 91124 91217;
0149066390999992011010517004+47000+007933FM-12+140699999V0202101N008219999999N9999999N1-00251-00881999999ADDMA1999999085101MD1710071+9999ME1314159OA149901181REMSYN088AAXX  05174 06639 33/// /2116 11025 21088 38510 48415 57007 333 55300 20000 91123 91217;
0168066390999992011010518004+47000+007933FM-12+140699999V0202301N009819999999N9999999N1-00181-00841999999ADDKA1120M-00141MA1999999085091MD1019999+9999ME1314149OA149901441REMSYN094AAXX  05184 06639 33/// /2319 11018 21084 38509 48414 50/// 333 11014 55300 20000 91128 91219;
0168066390999992011010519004+47000+007933FM-12+140699999V0202401N009319999999N9999999N1-00181-00621999999ADDMA1999999085081MD1410001+9999ME1314139OA149901491REMSYN088AAXX  05194 06639 33/// /2418 11018 21062 38508 48413 57000 333 55300 20000 91129 91219;EQDQ01+000072APCTEN
0149066390999992011010520004+47000+007933FM-12+140699999V0202201N008719999999N9999999N1-00191-00591999999ADDMA1999999085041MD1719999+9999ME1314099OA149901601REMSYN088AAXX  05204 06639 33/// /2217 11019 21059 38504 48409 57/// 333 55300 20000 91131 91218;
0112066390999992011010521004+47000+007933FM-12+140699999V0202201N008719999999N9999999N1-00131-00661999999ADDMA1999999085021ME1314079REMSYN076AAXX  05214 06639 33/// /2217 11013 21066 38502 48407 5//// 333 553// 20000;
0149066390999992011010522004+47000+007933FM-12+140699999V0202301N008219999999N9999999N1-00051-00711999999ADDMA1999999085021MD1710061+9999ME1314079OA149901541REMSYN088AAXX  05224 06639 33/// /2316 11005 21071 38502 48407 57006 333 55300 20000 91130 91219;
0149066390999992011010523004+47000+007933FM-12+140699999V0202301N004119999999N9999999N1-00011-00761999999ADDMA1999999085001MD1719999+9999ME1314059OA149901341REMSYN088AAXX  05234 06639 33/// /2308 11001 21076 38500 48405 57/// 333 55300 20000 91126 91219;
0096066390999992011010600004+47000+007933FM-12+140699999V0202401N005119999999N9999999N1-00011-00771999999ADDMA1999999084971ME1314039REMSYN060AAXX  06004 06639 43/// /2410 11001 21077 38497 48403 5////;
0096066390999992011010601004+47000+007933FM-12+140699999V0202401N007219999999N9999999N1+00061-00821999999ADDMA1999999084921ME1313989REMSYN060AAXX  06014 06639 43/// /2414 10006 21082 38492 48398 5////;
0096066390999992011010602004+47000+007933FM-12+140699999V0202101N008719999999N9999999N1-00011-00801999999ADDMA1999999084911ME1313979REMSYN060AAXX  06024 06639 43/// /2117 11001 21080 38491 48397 5////;
0096066390999992011010603004+47000+007933FM-12+140699999V0202101N009319999999N9999999N1-00061-00851999999ADDMA1999999084911ME1313979REMSYN060AAXX  06034 06639 43/// /2118 11006 21085 38491 48397 5////;
0096066390999992011010604004+47000+007933FM-12+140699999V0202101N008719999999N9999999N1-00111-00751999999ADDMA1999999084881ME1313949REMSYN060AAXX  06044 06639 43/// /2117 11011 21075 38488 48394 5////;
0096066390999992011010605004+47000+007933FM-12+140699999V0202201N007719999999N9999999N1+00031-00651999999ADDMA1999999084911ME1313979REMSYN060AAXX  06054 06639 43/// /2215 10003 21065 38491 48397 5////;
0143066390999992011010606004+47000+007933FM-12+140699999V0202201N008719999999N9999999N1+00131-00391999999ADDIA2999-00409KA1999N-00221MA1999999084931ME1313999REMSYN082AAXX  06064 06639 43/// /2217 10013 21039 38493 48399 5//// 333 21022 3/104 55057;
0096066390999992011010607004+47000+007933FM-12+140699999V0202201N008719999999N9999999N1+00211-00241999999ADDMA1999999084941ME1314009REMSYN060AAXX  06074 06639 43/// /2217 10021 21024 38494 48400 5////;
0112066390999992011010608004+47000+007933FM-12+140699999V0202201N007719999999N9999999N1+00211-00191999999ADDMA1999999084941ME1314009REMSYN076AAXX  06084 06639 33/// /2215 10021 21019 38494 48400 5//// 333 553// 20036;
0096066390999992011010609004+47000+007933FM-12+140699999V0202301N008219999999N9999999N1+00111-00141999999ADDMA1999999084971ME1314039REMSYN060AAXX  06094 06639 43/// /2316 10011 21014 38497 48403 5////;
0149066390999992011010610004+47000+007933FM-12+140699999V0202201N008219999999N9999999N1+00131-00121999999ADDMA1999999084981MD1210041+9999ME1314049OA149901441REMSYN088AAXX  06104 06639 33/// /2216 10013 21012 38498 48404 52004 333 55304 20576 91128 91216;
0149066390999992011010611004+47000+007933FM-12+140699999V0202101N007719999999N9999999N1+00151-00061999999ADDMA1999999085001MD1210061+9999ME1314059OA149901441REMSYN088AAXX  06114 06639 33/// /2115 10015 21006 38500 48405 52006 333 55301 20608 91128 91218;
0149066390999992011010612004+47000+007933FM-12+140699999V0202201N006719999999N9999999N1+00261-00041999999ADDMA1999999084951MD1710021+9999ME1314019OA149901601REMSYN088AAXX  06124 06639 33/// /2213 10026 21004 38495 48401 57002 333 55300 20612 91131 91221;
0149066390999992011010613004+47000+007933FM-12+140699999V0202501N004119999999N9999999N1+00351-00041999999ADDMA1999999084961MD1710021+9999ME1314029OA149901241REMSYN088AAXX  06134 06639 33/// /2508 10035 21004 38496 48402 57002 333 55301 20713 91124 91216;
0096066390999992011010614004+47000+007933FM-12+140699999V0202201N006719999999N9999999N1+00221-00041999999ADDMA1999999084961ME1314029REMSYN060AAXX  06144 06639 43/// /2213 10022 21004 38496 48402 5////;
0096066390999992011010615004+47000+007933FM-12+140699999V0202201N009319999999N9999999N1+00251-00011999999ADDMA1999999084971ME1314039REMSYN060AAXX  06154 06639 43/// /2218 10025 21001 38497 48403 5////;
0149066390999992011010616004+47000+007933FM-12+140699999V0202301N009319999999N9999999N1+00361-00031999999ADDMA1999999085001MD1210041+9999ME1314059OA149901441REMSYN088AAXX  06164 06639 33/// /2318 10036 21003 38500 48405 52004 333 55300 20043 91128 91219;
0155066390999992011010617004+47000+007933FM-12+140699999V0202201N009819999999N9999999N1+00301+00171999999ADDMA1999999085061MD1210101+9999ME1314119OA149901491REMSYN094AAXX  06174 06639 23/// /2219 10030 20017 38506 48411 52010 333 55300 20000 60025 91129 91219;
0191066390999992011010618004+47000+007933FM-12+140699999V0202101N011319999999N9999999N1+00301+00171999999ADDAA112002091KA1120M+00421MA1999999085061MD1210091+9999ME1314119OA149901541REMSYN106AAXX  06184 06639 03/// /2122 10030 20017 38506 48411 52009 60022 333 10042 55300 20000 69935 91130 91222;
0149066390999992011010619004+47000+007933FM-12+140699999V0202301N008719999999N9999999N1+00381+00191999999ADDMA1999999085141MD1210141+9999ME1314199OA149901601REMSYN088AAXX  06194 06639 33/// /2317 10038 20019 38514 48419 52014 333 55300 20000 91131 91222;
0155066390999992011010620004+47000+007933FM-12+140699999V0202101N008719999999N9999999N1+00291+00241999999ADDMA1999999085161MD1219999+9999ME1314219OA149901751REMSYN094AAXX  06204 06639 23/// /2117 10029 20024 38516 48421 52/// 333 55300 20000 69995 91134 91221;
0155066390999992011010621004+47000+007933FM-12+140699999V0202201N009819999999N9999999N1+00371+00241999999ADDMA1999999085181MD1219999+9999ME1314239OA149901751REMSYN094AAXX  06214 06639 23/// /2219 10037 20024 38518 48423 52/// 333 55300 20000 69915 91134 91222;
0155066390999992011010622004+47000+007933FM-12+140699999V0202201N009819999999N9999999N1+00391+00241999999ADDMA1999999085231MD1210091+9999ME1314279OA149901541REMSYN094AAXX  06224 06639 23/// /2219 10039 20024 38523 48427 52009 333 55300 20000 69915 91130 91220;
0118066390999992011010623004+47000+007933FM-12+140699999V0202101N008219999999N9999999N1+00371+00261999999ADDMA1999999085301ME1314349REMSYN082AAXX  06234 06639 23/// /2116 10037 20026 38530 48434 5//// 333 553// 20000 69925;
0096066390999992011010700004+47000+007933FM-12+140699999V0202201N008719999999N9999999N1+00411+00221999999ADDMA1999999085301ME1314349REMSYN060AAXX  07004 06639 43/// /2217 10041 20022 38530 48434 5////;
0096066390999992011010701004+47000+007933FM-12+140699999V0202201N008219999999N9999999N1+00461+00221999999ADDMA1999999085311ME1314359REMSYN060AAXX  07014 06639 43/// /2216 10046 20022 38531 48435 5////;
0096066390999992011010702004+47000+007933FM-12+140699999V0202301N008719999999N9999999N1+00521+00191999999ADDMA1999999085361ME1314409REMSYN060AAXX  07024 06639 43/// /2317 10052 20019 38536 48440 5////;
0096066390999992011010703004+47000+007933FM-12+140699999V0202301N008719999999N9999999N1+00431+00251999999ADDMA1999999085381ME1314429REMSYN060AAXX  07034 06639 43/// /2317 10043 20025 38538 48442 5////;
0155066390999992011010704004+47000+007933FM-12+140699999V0202101N007219999999N9999999N1+00311+00311999999ADDMA1999999085401MD1210091+9999ME1314449OA149901701REMSYN094AAXX  07044 06639 23/// /2114 10031 20031 38540 48444 52009 333 55300 20000 69975 91133 91220;
0155066390999992011010705004+47000+007933FM-12+140699999V0202101N008219999999N9999999N1+00401+00321999999ADDMA1999999085421MD1210061+9999ME1314469OA149901701REMSYN094AAXX  07054 06639 23/// /2116 10040 20032 38542 48446 52006 333 55300 20000 69965 91133 91220;
0239066390999992011010706004+47000+007933FM-12+140699999V0202401N007719999999N9999999N1+00521+00291999999ADDAA112003091AL13000491GJ100309IA2999+00209KA1999N+00271MA1999999085411MD1010031+9999ME1314459OA149901751REMSYN124AAXX  07064 06639 03/// /2415 10052 20029 38541 48445 50003 60032 333 20027 3/002 55005 55300 20000 69915 70045 91134 91221;
0149066390999992011010707004+47000+007933FM-12+140699999V0202301N003619999999N9999999N1+00501+00281999999ADDMA1999999085451MD1310051+9999ME1314499OA149901541REMSYN088AAXX  07074 06639 33/// /2307 10050 20028 38545 48449 53005 333 55300 20000 91130 91219;
0112066390999992011010708004+47000+007933FM-12+140699999V0202101N000519999999N9999999N1+00581+00281999999ADDMA1999999085461ME1314509REMSYN076AAXX  07084 06639 33/// /2101 10058 20028 38546 48450 5//// 333 553// 20032;
0096066390999992011010709004+47000+007933FM-12+140699999V0201901N001519999999N9999999N1+00521+00331999999ADDMA1999999085481ME1314519REMSYN060AAXX  07094 06639 43/// /1903 10052 20033 38548 48451 5////;
0149066390999992011010710004+47000+007933FM-12+140699999V0202201N002119999999N9999999N1+00701+00221999999ADDMA1999999085481MD1210031+9999ME1314529OA149900411REMSYN088AAXX  07104 06639 33/// /2204 10070 20022 38548 48452 52003 333 55301 20443 91108 91205;
0149066390999992011010711004+47000+007933FM-12+140699999V0202301N003119999999N9999999N1+00701+00201999999ADDMA1999999085471MD1010011+9999ME1314519OA149900511REMSYN088AAXX  07114 06639 33/// /2306 10070 20020 38547 48451 50001 333 55301 20684 91110 91206;
0168066390999992011010712004+47000+007933FM-12+140699999V0202401N003119999999N9999999N1+00831+00211999999ADDMA1999999085481MD1410001+9999ME1314529OA149901701REMSYN088AAXX  07124 06639 33/// /2406 10083 20021 38548 48452 57000 333 55305 20886 91133 91220;EQDQ01+000072APCTEN
0149066390999992011010713004+47000+007933FM-12+140699999V0201801N003619999999N9999999N1+00821+00301999999ADDMA1999999085451MD1710031+9999ME1314499OA149901031REMSYN088AAXX  07134 06639 33/// /1807 10082 20030 38545 48449 57003 333 553// 2//// 91120 91210;
0096066390999992011010714004+47000+007933FM-12+140699999V0202101N003619999999N9999999N1+00891+00191999999ADDMA1999999085471ME1314519REMSYN060AAXX  07144 06639 43/// /2107 10089 20019 38547 48451 5////;
0096066390999992011010715004+47000+007933FM-12+140699999V0202001N002119999999N9999999N1+00781+00231999999ADDMA1999999085521ME1314569REMSYN060AAXX  07154 06639 43/// /2004 10078 20023 38552 48456 5////;
0149066390999992011010716004+47000+007933FM-12+140699999V0202301N003119999999N9999999N1+00791+00121999999ADDMA1999999085531MD1210081+9999ME1314579OA149900671REMSYN088AAXX  07164 06639 33/// /2306 10079 20012 38553 48457 52008 333 55300 20054 91113 91208;
0149066390999992011010717004+47000+007933FM-12+140699999V0202901N001019999999N9999999N1+00751+00181999999ADDMA1999999085571MD1210101+9999ME1314619OA149900671REMSYN088AAXX  07174 06639 33/// /2902 10075 20018 38557 48461 52010 333 55300 20000 91113 91208;
0131066390999992011010718004+47000+007933FM-12+140699999V0202301N005119999999N9999999N1+00571+00281999999ADDKA1120M+00911MA1999999085561ME1314599REMSYN082AAXX  07184 06639 33/// /2310 10057 20028 38556 48459 5//// 333 10091 553// 20000;
0149066390999992011010719004+47000+007933FM-12+140699999V0202501N002119999999N9999999N1+00771+00091999999ADDMA1999999085551MD1019999+9999ME1314599OA149900881REMSYN088AAXX  07194 06639 33/// /2504 10077 20009 38555 48459 50/// 333 55300 20000 91117 91212;
0096066390999992011010720004+47000+007933FM-12+140699999V0200801N001019999999N9999999N1+00791+00091999999ADDMA1999999085511ME1314559REMSYN060AAXX  07204 06639 43/// /0802 10079 20009 38551 48455 5////;
0096066390999992011010721004+47000+007933FM-12+140699999V0203401N002619999999N9999999N1+00651+00141999999ADDMA1999999085521ME1314569REMSYN060AAXX  07214 06639 43/// /3405 10065 20014 38552 48456 5////;
0149066390999992011010722004+47000+007933FM-12+140699999V0203401N000519999999N9999999N1+00691+00061999999ADDMA1999999085541MD1510011+9999ME1314589OA149900461REMSYN088AAXX  07224 06639 33/// /3401 10069 20006 38554 48458 55001 333 55300 20000 91109 91205;
0112066390999992011010723004+47000+007933FM-12+140699999V0202601N005119999999N9999999N1+00621+00171999999ADDMA1999999085561ME1314599REMSYN076AAXX  07234 06639 33/// /2610 10062 20017 38556 48459 5//// 333 553// 20000;
0112066390999992011010800004+47000+007933FM-12+140699999V0202401N007719999999N9999999N1+00591+00231999999ADDMA1999999085561ME1314599REMSYN076AAXX  08004 06639 33/// /2415 10059 20023 38556 48459 5//// 333 553// 20000;
0096066390999992011010801004+47000+007933FM-12+140699999V0201401N005119999999N9999999N1+00661+00021999999ADDMA1999999085491ME1314539REMSYN060AAXX  08014 06639 43/// /1410 10066 20002 38549 48453 5////;
0096066390999992011010802004+47000+007933FM-12+140699999V0203301N004619999999N9999999N1+00511+00191999999ADDMA1999999085541ME1314579REMSYN060AAXX  08024 06639 43/// /3309 10051 20019 38554 48457 5////;
0096066390999992011010803004+47000+007933FM-12+140699999V0201901N002619999999N9999999N1+00591+00051999999ADDMA1999999085551ME1314589REMSYN060AAXX  08034 06639 43/// /1905 10059 20005 38555 48458 5////;
0096066390999992011010804004+47000+007933FM-12+140699999V0203001N005119999999N9999999N1+00461+00101999999ADDMA1999999085551ME1314589REMSYN060AAXX  08044 06639 43/// /3010 10046 20010 38555 48458 5////;
0096066390999992011010805004+47000+007933FM-12+140699999V0202501N005719999999N9999999N1+00351+00351999999ADDMA1999999085591ME1314629REMSYN060AAXX  08054 06639 43/// /2511 10035 20035 38559 48462 5////;
0143066390999992011010806004+47000+007933FM-12+140699999V0202001N006219999999N9999999N1+00261+00261999999ADDIA2999+00309KA1999N+00301MA1999999085591ME1314619REMSYN082AAXX  08064 06639 43/// /2012 10026 20026 38559 48461 5//// 333 20030 3/003 55029;
0096066390999992011010807004+47000+007933FM-12+140699999V0202001N007719999999N9999999N1+00391+00221999999ADDMA1999999085581ME1314619REMSYN060AAXX  08074 06639 43/// /2015 10039 20022 38558 48461 5////;
0118066390999992011010808004+47000+007933FM-12+140699999V0202101N007719999999N9999999N1+00411+00211999999ADDMA1999999085611ME1314649REMSYN082AAXX  08084 06639 23/// /2115 10041 20021 38561 48464 5//// 333 553// 20032 69935;
0096066390999992011010809004+47000+007933FM-12+140699999V0202201N006719999999N9999999N1+00491+00161999999ADDMA1999999085611ME1314649REMSYN060AAXX  08094 06639 43/// /2213 10049 20016 38561 48464 5////;
0096066390999992011010810004+47000+007933FM-12+140699999V0201901N004619999999N9999999N1+00571+00281999999ADDMA1999999085651ME1314689REMSYN060AAXX  08104 06639 43/// /1909 10057 20028 38565 48468 5////;
0096066390999992011010811004+47000+007933FM-12+140699999V0201901N004619999999N9999999N1+00641+00221999999ADDMA1999999085631ME1314669REMSYN060AAXX  08114 06639 43/// /1909 10064 20022 38563 48466 5////;
0096066390999992011010812004+47000+007933FM-12+140699999V0202001N004119999999N9999999N1+00671+00151999999ADDMA1999999085611ME1314649REMSYN060AAXX  08124 06639 43/// /2008 10067 20015 38561 48464 5////;
0096066390999992011010813004+47000+007933FM-12+140699999V0202301N003619999999N9999999N1+00761+00131999999ADDMA1999999085591ME1314629REMSYN060AAXX  08134 06639 43/// /2307 10076 20013 38559 48462 5////;
0096066390999992011010814004+47000+007933FM-12+140699999V0202101N002119999999N9999999N1+00691+00211999999ADDMA1999999085591ME1314629REMSYN060AAXX  08144 06639 43/// /2104 10069 20021 38559 48462 5////;
0096066390999992011010815004+47000+007933FM-12+140699999V0203101N001519999999N9999999N1+00561+00301999999ADDMA1999999085621ME1314659REMSYN060AAXX  08154 06639 43/// /3103 10056 20030 38562 48465 5////;
0096066390999992011010816004+47000+007933FM-12+140699999V0202201N005719999999N9999999N1+00521+00071999999ADDMA1999999085621ME1314659REMSYN060AAXX  08164 06639 43/// /2211 10052 20007 38562 48465 5////;
0096066390999992011010817004+47000+007933FM-12+140699999V0202101N005119999999N9999999N1+00531+00071999999ADDMA1999999085591ME1314629REMSYN060AAXX  08174 06639 43/// /2110 10053 20007 38559 48462 5////;
0096066390999992011010818004+47000+007933FM-12+140699999V0202501N005719999999N9999999N1+00571+00011999999ADDMA1999999085601ME1314639REMSYN060AAXX  08184 06639 43/// /2511 10057 20001 38560 48463 5////;
0096066390999992011010819004+47000+007933FM-12+140699999V0202001N002619999999N9999999N1+00671-00161999999ADDMA1999999085571ME1314609REMSYN060AAXX  08194 06639 43/// /2005 10067 21016 38557 48460 5////;
0096066390999992011010820004+47000+007933FM-12+140699999V0201501N003119999999N9999999N1+00661-00291999999ADDMA1999999085571ME1314609REMSYN060AAXX  08204 06639 43/// /1506 10066 21029 38557 48460 5////;
0096066390999992011010821004+47000+007933FM-12+140699999V0200901N001019999999N9999999N1+00661-00381999999ADDMA1999999085531ME1314569REMSYN060AAXX  08214 06639 43/// /0902 10066 21038 38553 48456 5////;
0096066390999992011010822004+47000+007933FM-12+140699999V0201301N004119999999N9999999N1+00561-00251999999ADDMA1999999085521ME1314559REMSYN060AAXX  08224 06639 43/// /1308 10056 21025 38552 48455 5////;
0096066390999992011010823004+47000+007933FM-12+140699999V0201601N002619999999N9999999N1+00631-00451999999ADDMA1999999085511ME1314559REMSYN060AAXX  08234 06639 43/// /1605 10063 21045 38551 48455 5////;
0096066390999992011010900004+47000+007933FM-12+140699999V0202901N002619999999N9999999N1+00481-00201999999ADDMA1999999085501ME1314539REMSYN060AAXX  09004 06639 43/// /2905 10048 21020 38550 48453 5////;
0096066390999992011010901004+47000+007933FM-12+140699999V0202301N007219999999N9999999N1+00321-00151999999ADDMA1999999085501ME1314539REMSYN060AAXX  09014 06639 43/// /2314 10032 21015 38550 48453 5////;
0096066390999992011010902004+47000+007933FM-12+140699999V0202301N005719999999N9999999N1+00411-00151999999ADDMA1999999085501ME1314539REMSYN060AAXX  09024 06639 43/// /2311 10041 21015 38550 48453 5////;
0096066390999992011010903004+47000+007933FM-12+140699999V0201801N001519999999N9999999N1+00631-00441999999ADDMA1999999085491ME1314539REMSYN060AAXX  09034 06639 43/// /1803 10063 21044 38549 48453 5////;
0096066390999992011010904004+47000+007933FM-12+140699999V0202401N005119999999N9999999N1+00401-00261999999ADDMA1999999085471ME1314509REMSYN060AAXX  09044 06639 43/// /2410 10040 21026 38547 48450 5////;
0096066390999992011010905004+47000+007933FM-12+140699999V0202401N001519999999N9999999N1+00591-00511999999ADDMA1999999085451ME1314499REMSYN060AAXX  09054 06639 43/// /2403 10059 21051 38545 48449 5////;
0106066390999992011010906004+47000+007933FM-12+140699999V0200901N002619999999N9999999N1+00521-00351999999ADDMA1999999085411ME1314459REMSYN070AAXX  09064 06639 43/// /0905 10052 21035 38541 48445 5//// 333 55065;
0096066390999992011010907004+47000+007933FM-12+140699999V0203101N002119999999N9999999N1+00451-00331999999ADDMA1999999085471ME1314509REMSYN060AAXX  09074 06639 43/// /3104 10045 21033 38547 48450 5////;
0112066390999992011010908004+47000+007933FM-12+140699999V0202401N007219999999N9999999N1+00471-00341999999ADDMA1999999085521ME1314559REMSYN076AAXX  09084 06639 33/// /2414 10047 21034 38552 48455 5//// 333 553// 20029;
0112066390999992011010909004+47000+007933FM-12+140699999V0202401N006719999999N9999999N1+00391-00241999999ADDMA1999999085541ME1314579REMSYN076AAXX  09094 06639 33/// /2413 10039 21024 38554 48457 5//// 333 553// 20173;
0149066390999992011010910004+47000+007933FM-12+140699999V0202301N008219999999N9999999N1+00321-00111999999ADDMA1999999085561MD1210091+9999ME1314599OA149901391REMSYN088AAXX  09104 06639 33/// /2316 10032 21011 38556 48459 52009 333 55300 20367 91127 91217;
0149066390999992011010911004+47000+007933FM-12+140699999V0202301N004619999999N9999999N1+00291-00021999999ADDMA1999999085541MD1010021+9999ME1314579OA149901391REMSYN088AAXX  09114 06639 33/// /2309 10029 21002 38554 48457 50002 333 55300 20284 91127 91217;
0149066390999992011010912004+47000+007933FM-12+140699999V0202501N003619999999N9999999N1+00291+00011999999ADDMA1999999085531MD1710011+9999ME1314569OA149901391REMSYN088AAXX  09124 06639 33/// /2507 10029 20001 38553 48456 57001 333 55300 20263 91127 91217;
0149066390999992011010913004+47000+007933FM-12+140699999V0202601N003119999999N9999999N1+00271+00121999999ADDMA1999999085521MD1710041+9999ME1314559OA149900721REMSYN088AAXX  09134 06639 33/// /2606 10027 20012 38552 48455 57004 333 55300 20234 91114 91209;
0096066390999992011010914004+47000+007933FM-12+140699999V0202401N005719999999N9999999N1+00221+00221999999ADDMA1999999085551ME1314589REMSYN060AAXX  09144 06639 43/// /2411 10022 20022 38555 48458 5////;
0096066390999992011010915004+47000+007933FM-12+140699999V0202501N005119999999N9999999N1+00211+00211999999ADDMA1999999085561ME1314589REMSYN060AAXX  09154 06639 43/// /2510 10021 20021 38556 48458 5////;
0155066390999992011010916004+47000+007933FM-12+140699999V0202301N007219999999N9999999N1+00161+00131999999ADDMA1999999085611MD1310091+9999ME1314639OA149901491REMSYN094AAXX  09164 06639 23/// /2314 10016 20013 38561 48463 53009 333 55300 20004 69935 91129 91214;
0155066390999992011010917004+47000+007933FM-12+140699999V0202201N008219999999N9999999N1+00051+00051999999ADDMA1999999085651MD1310101+9999ME1314679OA149901491REMSYN094AAXX  09174 06639 23/// /2216 10005 20005 38565 48467 53010 333 55300 20000 69995 91129 91216;
0191066390999992011010918004+47000+007933FM-12+140699999V0202101N006719999999N9999999N1+00021+00011999999ADDAA112002091KA1120M+00541MA1999999085661MD1210101+9999ME1314679OA149901491REMSYN106AAXX  09184 06639 03/// /2113 10002 20001 38566 48467 52010 60022 333 10054 55300 20000 60015 91129 91217;
0155066390999992011010919004+47000+007933FM-12+140699999V0202101N007219999999N9999999N1+00031+00031999999ADDMA1999999085681MD1210071+9999ME1314699OA149901241REMSYN094AAXX  09194 06639 23/// /2114 10003 20003 38568 48469 52007 333 55300 20000 69995 91124 91216;
0155066390999992011010920004+47000+007933FM-12+140699999V0202101N006219999999N9999999N1+00001+00001999999ADDMA1999999085731MD1210081+9999ME1314749OA149901391REMSYN094AAXX  09204 06639 23/// /2112 10000 20000 38573 48474 52008 333 55300 20000 60015 91127 91216;
0155066390999992011010921004+47000+007933FM-12+140699999V0202101N006219999999N9999999N1-00021-00021999999ADDMA1999999085751MD1110091+9999ME1314769OA149901491REMSYN094AAXX  09214 06639 23/// /2112 11002 21002 38575 48476 51009 333 55300 20000 69985 91129 91216;
0155066390999992011010922004+47000+007933FM-12+140699999V0202201N005119999999N9999999N1-00041-00051999999ADDMA1999999085761MD1110081+9999ME1314779OA149900931REMSYN094AAXX  09224 06639 23/// /2210 11004 21005 38576 48477 51008 333 55300 20000 69995 91118 91213;
0155066390999992011010923004+47000+007933FM-12+140699999V0202301N006219999999N9999999N1-00081-00101999999ADDMA1999999085791MD1310061+9999ME1314799OA149900881REMSYN094AAXX  09234 06639 23/// /2312 11008 21010 38579 48479 53006 333 55300 20000 69965 91117 91212;
0172066390999992011011000004+47000+007933FM-12+140699999V0202101N005719999999N9999999N1-00101-00101999999ADDAA106005191MA1999999085811MD1110061+9999ME1314819OA149901491REMSYN100AAXX  10004 06639 03/// /2111 11010 21010 38581 48481 51006 60051 333 55300 20000 69965 91129 91216;
0155066390999992011011001004+47000+007933FM-12+140699999V0202201N006719999999N9999999N1-00081-00101999999ADDMA1999999085821MD1110061+9999ME1314829OA149900881REMSYN094AAXX  10014 06639 23/// /2213 11008 21010 38582 48482 51006 333 55300 20000 69925 91117 91213;
0118066390999992011011002004+47000+007933FM-12+140699999V0202401N006219999999N9999999N1-00071-00101999999ADDMA1999999085841ME1314849REMSYN082AAXX  10024 06639 23/// /2412 11007 21010 38584 48484 5//// 333 553// 20000 69915;
0096066390999992011011003004+47000+007933FM-12+140699999V0202601N003619999999N9999999N1-00061-00071999999ADDMA1999999085851ME1314859REMSYN060AAXX  10034 06639 43/// /2607 11006 21007 38585 48485 5////;
0118066390999992011011004004+47000+007933FM-12+140699999V0202601N002619999999N9999999N1-00081-00081999999ADDMA1999999085851ME1314859REMSYN082AAXX  10044 06639 23/// /2605 11008 21008 38585 48485 5//// 333 553// 20000 69955;
0155066390999992011011005004+47000+007933FM-12+140699999V0202801N002119999999N9999999N1-00111-00111999999ADDMA1999999085851MD1019999+9999ME1314859OA149900571REMSYN094AAXX  10054 06639 23/// /2804 11011 21011 38585 48485 50/// 333 55300 20000 69925 91111 91207;
0168066390999992011011006004+47000+007933FM-12+140699999V0203501N001019999999N9999999N1-00111-00111999999ADDAA124008691GJ100009IA2999-00109KA1999N-00111MA1999999085861ME1314869REMSYN088AAXX  10064 06639 43/// /3502 11011 21011 38586 48486 5//// 333 21011 3/101 55000 70086;
0155066390999992011011007004+47000+007933FM-12+140699999V0200301N001019999999N9999999N1-00151-00151999999ADDMA1999999085871MD1310021+9999ME1314879OA149900261REMSYN094AAXX  10074 06639 23/// /0302 11015 21015 38587 48487 53002 333 55300 20000 69945 91105 91203;
0096066390999992011011008004+47000+007933FM-12+140699999V0200101N001019999999N9999999N1-00131-00131999999ADDMA1999999085891ME1314889REMSYN060AAXX  10084 06639 43/// /0102 11013 21013 38589 48488 5////;
0096066390999992011011009004+47000+007933FM-12+140699999V0200401N002119999999N9999999N1-00171-00171999999ADDMA1999999085901ME1314899REMSYN060AAXX  10094 06639 43/// /0404 11017 21017 38590 48489 5////;
0149066390999992011011010004+47000+007933FM-12+140699999V0201201N002619999999N9999999N1-00131-00131999999ADDMA1999999085911MD1210041+9999ME1314909OA149900361REMSYN088AAXX  10104 06639 33/// /1205 11013 21013 38591 48490 52004 333 55300 20515 91107 91205;
0149066390999992011011011004+47000+007933FM-12+140699999V0201201N002119999999N9999999N1-00081-00081999999ADDMA1999999085881MD1819999+9999ME1314889OA149900411REMSYN088AAXX  10114 06639 33/// /1204 11008 21008 38588 48488 58/// 333 55300 20724 91108 91205;
0135066390999992011011012004+47000+007933FM-12+140699999V0200801N001019999999N9999999N1-00061-00061999999ADDAA106000591MA1999999085831ME1314839REMSYN088AAXX  10124 06639 03/// /0802 11006 21006 38583 48483 5//// 69941 333 553// 20695 60005;
0096066390999992011011013004+47000+007933FM-12+140699999V0203301N001019999999N9999999N1-00051-00051999999ADDMA1999999085781ME1314789REMSYN060AAXX  10134 06639 43/// /3302 11005 21005 38578 48478 5////;
0096066390999992011011014004+47000+007933FM-12+140699999V0201301N001519999999N9999999N1-00111-00111999999ADDMA1999999085731ME1314749REMSYN060AAXX  10144 06639 43/// /1303 11011 21011 38573 48474 5////;
0096066390999992011011015004+47000+007933FM-12+140699999V0201301N001519999999N9999999N1-00161-00161999999ADDMA1999999085711ME1314729REMSYN060AAXX  10154 06639 43/// /1303 11016 21016 38571 48472 5////;
0096066390999992011011016004+47000+007933FM-12+140699999V0201301N002119999999N9999999N1-00101-00121999999ADDMA1999999085681ME1314699REMSYN060AAXX  10164 06639 43/// /1304 11010 21012 38568 48469 5////;
0096066390999992011011017004+47000+007933FM-12+140699999V0201501N001519999999N9999999N1-00201-00201999999ADDMA1999999085661ME1314679REMSYN060AAXX  10174 06639 43/// /1503 11020 21020 38566 48467 5////;
0119066390999992011011018004+47000+007933FM-12+140699999V0201601N001519999999N9999999N1-00151-00151999999ADDKA1999M-00011MA1999999085651ME1314669REMSYN070AAXX  10184 06639 43/// /1603 11015 21015 38565 48466 5//// 333 11001;
0096066390999992011011019004+47000+007933FM-12+140699999V0201301N000519999999N9999999N1-00281-00281999999ADDMA1999999085621ME1314639REMSYN060AAXX  10194 06639 43/// /1301 11028 21028 38562 48463 5////;
0096066390999992011011020004+47000+007933FM-12+140699999V0202301N003119999999N9999999N1-00281-00301999999ADDMA1999999085601ME1314619REMSYN060AAXX  10204 06639 43/// /2306 11028 21030 38560 48461 5////;
0096066390999992011011021004+47000+007933FM-12+140699999V0202101N005719999999N9999999N1-00191-00201999999ADDMA1999999085591ME1314609REMSYN060AAXX  10214 06639 43/// /2111 11019 21020 38559 48460 5////;
0096066390999992011011022004+47000+007933FM-12+140699999V0202201N005719999999N9999999N1-00181-00181999999ADDMA1999999085581ME1314609REMSYN060AAXX  10224 06639 43/// /2211 11018 21018 38558 48460 5////;
0096066390999992011011023004+47000+007933FM-12+140699999V0202101N005719999999N9999999N1-00181-00181999999ADDMA1999999085551ME1314579REMSYN060AAXX  10234 06639 43/// /2111 11018 21018 38555 48457 5////;
0096066390999992011011100004+47000+007933FM-12+140699999V0202101N004619999999N9999999N1-00211-00211999999ADDMA1999999085511ME1314539REMSYN060AAXX  11004 06639 43/// /2109 11021 21021 38551 48453 5////;
0096066390999992011011101004+47000+007933FM-12+140699999V0202201N005719999999N9999999N1-00241-00251999999ADDMA1999999085471ME1314499REMSYN060AAXX  11014 06639 43/// /2211 11024 21025 38547 48449 5////;
0096066390999992011011102004+47000+007933FM-12+140699999V0202101N004619999999N9999999N1-00231-00231999999ADDMA1999999085451ME1314479REMSYN060AAXX  11024 06639 43/// /2109 11023 21023 38545 48447 5////;
0096066390999992011011103004+47000+007933FM-12+140699999V0202101N004119999999N9999999N1-00261-00261999999ADDMA1999999085421ME1314459REMSYN060AAXX  11034 06639 43/// /2108 11026 21026 38542 48445 5////;
0096066390999992011011104004+47000+007933FM-12+140699999V0202201N004119999999N9999999N1-00281-00281999999ADDMA1999999085381ME1314419REMSYN060AAXX  11044 06639 43/// /2208 11028 21028 38538 48441 5////;
0096066390999992011011105004+47000+007933FM-12+140699999V0202201N005719999999N9999999N1-00251-00261999999ADDMA1999999085321ME1314359REMSYN060AAXX  11054 06639 43/// /2211 11025 21026 38532 48435 5////;
0106066390999992011011106004+47000+007933FM-12+140699999V0202101N004619999999N9999999N1-00251-00251999999ADDMA1999999085281ME1314329REMSYN070AAXX  11064 06639 43/// /2109 11025 21025 38528 48432 5//// 333 55008;
0149066390999992011011107004+47000+007933FM-12+140699999V0202301N007219999999N9999999N1-00221-00331999999ADDMA1999999085241MD1619999+9999ME1314289OA149900881REMSYN088AAXX  11074 06639 33/// /2314 11022 21033 38524 48428 56/// 333 55300 20000 91117 91214;
0112066390999992011011108004+47000+007933FM-12+140699999V0202301N006219999999N9999999N1-00031-00401999999ADDMA1999999085231ME1314279REMSYN076AAXX  11084 06639 33/// /2312 11003 21040 38523 48427 5//// 333 553// 20094;
0096066390999992011011109004+47000+007933FM-12+140699999V0202101N006219999999N9999999N1+00021-00521999999ADDMA1999999085191ME1314239REMSYN060AAXX  11094 06639 43/// /2112 10002 21052 38519 48423 5////;
0149066390999992011011110004+47000+007933FM-12+140699999V0202001N006719999999N9999999N1+00111-00571999999ADDMA1999999085161MD1610081+9999ME1314219OA149900931REMSYN088AAXX  11104 06639 33/// /2013 10011 21057 38516 48421 56008 333 55305 2//// 91118 91215;
0149066390999992011011111004+47000+007933FM-12+140699999V0202301N006719999999N9999999N1-00041-00321999999ADDMA1999999085111MD1810121+9999ME1314169OA149900931REMSYN088AAXX  11114 06639 33/// /2313 11004 21032 38511 48416 58012 333 55306 2//// 91118 91215;
0112066390999992011011112004+47000+007933FM-12+140699999V0202301N008719999999N9999999N1-00091-00411999999ADDMA1999999085051ME1314109REMSYN076AAXX  11124 06639 33/// /2317 11009 21041 38505 48410 5//// 333 553// 2////;
0149066390999992011011113004+47000+007933FM-12+140699999V0202201N007719999999N9999999N1-00161-00351999999ADDMA1999999085051MD1710111+9999ME1314109OA149901441REMSYN088AAXX  11134 06639 33/// /2215 11016 21035 38505 48410 57011 333 55300 20425 91128 91218;
0096066390999992011011114004+47000+007933FM-12+140699999V0202001N008219999999N9999999N1-00181-00231999999ADDMA1999999085061ME1314119REMSYN060AAXX  11144 06639 43/// /2016 11018 21023 38506 48411 5////;
0096066390999992011011115004+47000+007933FM-12+140699999V0202001N007719999999N9999999N1-00201-00211999999ADDMA1999999085091ME1314149REMSYN060AAXX  11154 06639 43/// /2015 11020 21021 38509 48414 5////;
0155066390999992011011116004+47000+007933FM-12+140699999V0202001N008719999999N9999999N1-00151-00161999999ADDMA1999999085151MD1210101+9999ME1314199OA149901341REMSYN094AAXX  11164 06639 23/// /2017 11015 21016 38515 48419 52010 333 55300 20007 69995 91126 91218;
0155066390999992011011117004+47000+007933FM-12+140699999V0202301N010319999999N9999999N1-00091-00111999999ADDMA1999999085231MD1310181+9999ME1314279OA149901491REMSYN094AAXX  11174 06639 23/// /2320 11009 21011 38523 48427 53018 333 55300 20000 69955 91129 91221;
0191066390999992011011118004+47000+007933FM-12+140699999V0202201N009819999999N9999999N1-00101-00111999999ADDAA112003091KA1120M+00111MA1999999085311MD1210221+9999ME1314359OA149901601REMSYN106AAXX  11184 06639 03/// /2219 11010 21011 38531 48435 52022 60032 333 10011 55300 20000 69915 91131 91221;
0155066390999992011011119004+47000+007933FM-12+140699999V0202301N008219999999N9999999N1-00101-00111999999ADDMA1999999085421MD1310271+9999ME1314459OA149901601REMSYN094AAXX  11194 06639 23/// /2316 11010 21011 38542 48445 53027 333 55300 20000 69945 91131 91220;
0155066390999992011011120004+47000+007933FM-12+140699999V0202401N006219999999N9999999N1-00091-00101999999ADDMA1999999085521MD1210291+9999ME1314549OA149901541REMSYN094AAXX  11204 06639 23/// /2412 11009 21010 38552 48454 52029 333 55300 20000 69915 91130 91219;
0155066390999992011011121004+47000+007933FM-12+140699999V0202301N006219999999N9999999N1-00111-00121999999ADDMA1999999085591MD1110281+9999ME1314619OA149901601REMSYN094AAXX  11214 06639 23/// /2312 11011 21012 38559 48461 51028 333 55300 20000 69935 91131 91221;
0149066390999992011011122004+47000+007933FM-12+140699999V0202201N007219999999N9999999N1-00121-00121999999ADDMA1999999085671MD1210251+9999ME1314689OA149901291REMSYN088AAXX  11224 06639 33/// /2214 11012 21012 38567 48468 52025 333 55300 20000 91125 91214;
0155066390999992011011123004+47000+007933FM-12+140699999V0202201N008719999999N9999999N1-00111-00121999999ADDMA1999999085721MD1110201+9999ME1314739OA149901291REMSYN094AAXX  11234 06639 23/// /2217 11011 21012 38572 48473 51020 333 55300 20000 69915 91125 91217;
0172066390999992011011200004+47000+007933FM-12+140699999V0202101N008219999999N9999999N1-00111-00111999999ADDAA106001091MA1999999085741MD1210151+9999ME1314759OA149901601REMSYN100AAXX  12004 06639 03/// /2116 11011 21011 38574 48475 52015 69991 333 55300 20000 60005 91131 91221;
0149066390999992011011201004+47000+007933FM-12+140699999V0202201N008219999999N9999999N1-00091-00091999999ADDMA1999999085791MD1210121+9999ME1314799OA149901341REMSYN088AAXX  12014 06639 33/// /2216 11009 21009 38579 48479 52012 333 55300 20000 91126 91219;
0112066390999992011011202004+47000+007933FM-12+140699999V0202201N008219999999N9999999N1-00101-00101999999ADDMA1999999085841ME1314849REMSYN076AAXX  12024 06639 33/// /2216 11010 21010 38584 48484 5//// 333 553// 20000;
0096066390999992011011203004+47000+007933FM-12+140699999V0202401N006719999999N9999999N1-00081-00091999999ADDMA1999999085921ME1314919REMSYN060AAXX  12034 06639 43/// /2413 11008 21009 38592 48491 5////;
0096066390999992011011204004+47000+007933FM-12+140699999V0202301N008219999999N9999999N1-00091-00101999999ADDMA1999999085931ME1314929REMSYN060AAXX  12044 06639 43/// /2316 11009 21010 38593 48492 5////;
0118066390999992011011205004+47000+007933FM-12+140699999V0202401N007719999999N9999999N1-00081-00101999999ADDMA1999999085981ME1314979REMSYN082AAXX  12054 06639 23/// /2415 11008 21010 38598 48497 5//// 333 553// 20000 69925;
0168066390999992011011206004+47000+007933FM-12+140699999V0202301N006719999999N9999999N1-00101-00101999999ADDAA124003891GJ101029IA2999-00109KA1999N-00131MA1999999086051ME1315039REMSYN088AAXX  12064 06639 43/// /2313 11010 21010 38605 48503 5//// 333 21013 3/101 55017 70038;
0149066390999992011011207004+47000+007933FM-12+140699999V0202301N006719999999N9999999N1-00101-00101999999ADDMA1999999086091MD1210161+9999ME1315079OA149901651REMSYN088AAXX  12074 06639 33/// /2313 11010 21010 38609 48507 52016 333 55300 20000 91132 91216;
0096066390999992011011208004+47000+007933FM-12+140699999V0202301N006219999999N9999999N1-00111-00111999999ADDMA1999999086111ME1315099REMSYN060AAXX  12084 06639 43/// /2312 11011 21011 38611 48509 5////;
0096066390999992011011209004+47000+007933FM-12+140699999V0202401N005119999999N9999999N1-00101-00121999999ADDMA1999999086131ME1315119REMSYN060AAXX  12094 06639 43/// /2410 11010 21012 38613 48511 5////;
0149066390999992011011210004+47000+007933FM-12+140699999V0202201N008719999999N9999999N1-00121-00121999999ADDMA1999999086131MD1319999+9999ME1315119OA149901441REMSYN088AAXX  12104 06639 33/// /2217 11012 21012 38613 48511 53/// 333 55300 20223 91128 91217;
0149066390999992011011211004+47000+007933FM-12+140699999V0202101N009319999999N9999999N1-00091-00111999999ADDMA1999999086121MD1010011+9999ME1315109OA149901441REMSYN088AAXX  12114 06639 33/// /2118 11009 21011 38612 48510 50001 333 55300 20342 91128 91218;
0096066390999992011011212004+47000+007933FM-12+140699999V0202201N007719999999N9999999N1-00071-00111999999ADDMA1999999086111ME1315099REMSYN060AAXX  12124 06639 43/// /2215 11007 21011 38611 48509 5////;
0096066390999992011011213004+47000+007933FM-12+140699999V0202301N006719999999N9999999N1-00011-00161999999ADDMA1999999086121ME1315109REMSYN060AAXX  12134 06639 43/// /2313 11001 21016 38612 48510 5////;
0096066390999992011011214004+47000+007933FM-12+140699999V0202201N007219999999N9999999N1-00021-00141999999ADDMA1999999086141ME1315129REMSYN060AAXX  12144 06639 43/// /2214 11002 21014 38614 48512 5////;
0096066390999992011011215004+47000+007933FM-12+140699999V0202101N011319999999N9999999N1-00071-00101999999ADDMA1999999086081ME1315069REMSYN060AAXX  12154 06639 43/// /2122 11007 21010 38608 48506 5////;
0155066390999992011011216004+47000+007933FM-12+140699999V0202101N012319999999N9999999N1-00061-00131999999ADDMA1999999086081MD1710041+9999ME1315069OA149901801REMSYN094AAXX  12164 06639 23/// /2124 11006 21013 38608 48506 57004 333 55300 20014 69915 91135 91224;
0155066390999992011011217004+47000+007933FM-12+140699999V0202101N010819999999N9999999N1-00021-00091999999ADDMA1999999086111MD1510031+9999ME1315099OA149901801REMSYN094AAXX  12174 06639 23/// /2121 11002 21009 38611 48509 55003 333 55300 20000 69915 91135 91224;
0191066390999992011011218004+47000+007933FM-12+140699999V0202101N009819999999N9999999N1-00011-00061999999ADDAA112000591KA1120M+00031MA1999999086121MD1210041+9999ME1315109OA149901801REMSYN106AAXX  12184 06639 03/// /2119 11001 21006 38612 48510 52004 69962 333 10003 55300 20000 69935 91135 91224;
0155066390999992011011219004+47000+007933FM-12+140699999V0202101N013419999999N9999999N1+00061+00031999999ADDMA1999999086131MD1010051+9999ME1315119OA149901751REMSYN094AAXX  12194 06639 23/// /2126 10006 20003 38613 48511 50005 333 55300 20000 69925 91134 91226;
0155066390999992011011220004+47000+007933FM-12+140699999V0202201N013919999999N9999999N1+00161+00141999999ADDMA1999999086141MD1210031+9999ME1315139OA149902011REMSYN094AAXX  12204 06639 23/// /2227 10016 20014 38614 48513 52003 333 55300 20000 69915 91139 91229;
0155066390999992011011221004+47000+007933FM-12+140699999V0202201N012919999999N9999999N1+00241+00231999999ADDMA1999999086151MD1210031+9999ME1315149OA149902061REMSYN094AAXX  12214 06639 23/// /2225 10024 20023 38615 48514 52003 333 55300 20000 69945 91140 91229;
0155066390999992011011222004+47000+007933FM-12+140699999V0202201N011819999999N9999999N1+00261+00251999999ADDMA1999999086171MD1210041+9999ME1315169OA149902061REMSYN094AAXX  12224 06639 23/// /2223 10026 20025 38617 48516 52004 333 55300 20000 60025 91140 91227;
0155066390999992011011223004+47000+007933FM-12+140699999V0202201N011819999999N9999999N1+00281+00281999999ADDMA1999999086201MD1110061+9999ME1315199OA149901851REMSYN094AAXX  12234 06639 23/// /2223 10028 20028 38620 48519 51006 333 55300 20000 60035 91136 91225;
0172066390999992011011300004+47000+007933FM-12+140699999V0202301N010319999999N9999999N1+00291+00291999999ADDAA106007191MA1999999086221MD1310071+9999ME1315219OA149902061REMSYN100AAXX  13004 06639 03/// /2320 10029 20029 38622 48521 53007 60071 333 55300 20000 60025 91140 91229;
0155066390999992011011301004+47000+007933FM-12+140699999V0202201N010319999999N9999999N1+00301+00291999999ADDMA1999999086201MD1010031+9999ME1315199OA149901751REMSYN094AAXX  13014 06639 23/// /2220 10030 20029 38620 48519 50003 333 55300 20000 60025 91134 91223;
0155066390999992011011302004+47000+007933FM-12+140699999V0202201N010319999999N9999999N1+00331+00331999999ADDMA1999999086191MD1819999+9999ME1315189OA149901751REMSYN094AAXX  13024 06639 23/// /2220 10033 20033 38619 48518 58/// 333 55300 20000 69975 91134 91222;
0096066390999992011011303004+47000+007933FM-12+140699999V0202201N010819999999N9999999N1+00311+00311999999ADDMA1999999086161ME1315159REMSYN060AAXX  13034 06639 43/// /2221 10031 20031 38616 48515 5////;
0155066390999992011011304004+47000+007933FM-12+140699999V0202101N011319999999N9999999N1+00341+00341999999ADDMA1999999086141MD1719999+9999ME1315139OA149901701REMSYN094AAXX  13044 06639 23/// /2122 10034 20034 38614 48513 57/// 333 55300 20000 60025 91133 91225;
0118066390999992011011305004+47000+007933FM-12+140699999V0202201N011319999999N9999999N1+00351+00351999999ADDMA1999999086161ME1315159REMSYN082AAXX  13054 06639 23/// /2222 10035 20035 38616 48515 5//// 333 553// 20000 60035;
0239066390999992011011306004+47000+007933FM-12+140699999V0202201N010319999999N9999999N1+00361+00361999999ADDAA112016091AL13601691GJ100009IA2999+00009KA1999N-00021MA1999999086201MD1210041+9999ME1315199OA149902061REMSYN124AAXX  13064 06639 03/// /2220 10036 20036 38620 48519 52004 60162 333 21002 3/100 55000 55300 20000 69975 70166 91140 91229;
0096066390999992011011307004+47000+007933FM-12+140699999V0202201N011819999999N9999999N1+00371+00371999999ADDMA1999999086191ME1315189REMSYN060AAXX  13074 06639 43/// /2223 10037 20037 38619 48518 5////;
0096066390999992011011308004+47000+007933FM-12+140699999V0202201N012319999999N9999999N1+00381+00381999999ADDMA1999999086211ME1315209REMSYN060AAXX  13084 06639 43/// /2224 10038 20038 38621 48520 5////;
0096066390999992011011309004+47000+007933FM-12+140699999V0202201N011819999999N9999999N1+00381+00381999999ADDMA1999999086211ME1315209REMSYN060AAXX  13094 06639 43/// /2223 10038 20038 38621 48520 5////;
0096066390999992011011310004+47000+007933FM-12+140699999V0202201N012319999999N9999999N1+00391+00341999999ADDMA1999999086231ME1315229REMSYN060AAXX  13104 06639 43/// /2224 10039 20034 38623 48522 5////;
0096066390999992011011311004+47000+007933FM-12+140699999V0202201N011319999999N9999999N1+00411+00361999999ADDMA1999999086231ME1315229REMSYN060AAXX  13114 06639 43/// /2222 10041 20036 38623 48522 5////;
0096066390999992011011312004+47000+007933FM-12+140699999V0202201N009319999999N9999999N1+00411+00331999999ADDMA1999999086201ME1315199REMSYN060AAXX  13124 06639 43/// /2218 10041 20033 38620 48519 5////;
0096066390999992011011313004+47000+007933FM-12+140699999V0202201N011319999999N9999999N1+00431+00331999999ADDMA1999999086161ME1315169REMSYN060AAXX  13134 06639 43/// /2222 10043 20033 38616 48516 5////;
0096066390999992011011314004+47000+007933FM-12+140699999V0202201N011319999999N9999999N1+00491+00341999999ADDMA1999999086181ME1315189REMSYN060AAXX  13144 06639 43/// /2222 10049 20034 38618 48518 5////;
0096066390999992011011315004+47000+007933FM-12+140699999V0202201N011319999999N9999999N1+00481+00341999999ADDMA1999999086221ME1315229REMSYN060AAXX  13154 06639 43/// /2222 10048 20034 38622 48522 5////;
0096066390999992011011316004+47000+007933FM-12+140699999V0202201N011319999999N9999999N1+00521+00341999999ADDMA1999999086231ME1315239REMSYN060AAXX  13164 06639 43/// /2222 10052 20034 38623 48523 5////;
0149066390999992011011317004+47000+007933FM-12+140699999V0202301N008719999999N9999999N1+00541+00341999999ADDMA1999999086251MD1210071+9999ME1315259OA149901801REMSYN088AAXX  13174 06639 33/// /2317 10054 20034 38625 48525 52007 333 55300 20000 91135 91223;
0191066390999992011011318004+47000+007933FM-12+140699999V0202301N009319999999N9999999N1+00481+00421999999ADDAA112000591KA1120M+00571MA1999999086251MD1210021+9999ME1315249OA149902161REMSYN106AAXX  13184 06639 03/// /2318 10048 20042 38625 48524 52002 69942 333 10057 55300 20000 69925 91142 91226;
0155066390999992011011319004+47000+007933FM-12+140699999V0202401N008219999999N9999999N1+00481+00431999999ADDMA1999999086261MD1210031+9999ME1315259OA149901751REMSYN094AAXX  13194 06639 23/// /2416 10048 20043 38626 48525 52003 333 55300 20000 69915 91134 91220;
0149066390999992011011320004+47000+007933FM-12+140699999V0202301N009319999999N9999999N1+00481+00451999999ADDMA1999999086211MD1810041+9999ME1315219OA149901701REMSYN088AAXX  13204 06639 33/// /2318 10048 20045 38621 48521 58004 333 55300 20000 91133 91220;
0149066390999992011011321004+47000+007933FM-12+140699999V0202301N010319999999N9999999N1+00431+00431999999ADDMA1999999086201MD1810051+9999ME1315199OA149901801REMSYN088AAXX  13214 06639 33/// /2320 10043 20043 38620 48519 58005 333 55300 20000 91135 91223;
0149066390999992011011322004+47000+007933FM-12+140699999V0202301N009819999999N9999999N1+00411+00401999999ADDMA1999999086201MD1710061+9999ME1315199OA149901751REMSYN088AAXX  13224 06639 33/// /2319 10041 20040 38620 48519 57006 333 55300 20000 91134 91220;
0149066390999992011011323004+47000+007933FM-12+140699999V0202201N009319999999N9999999N1+00381+00381999999ADDMA1999999086201MD1510011+9999ME1315199OA149901751REMSYN088AAXX  13234 06639 33/// /2218 10038 20038 38620 48519 55001 333 55300 20000 91134 91220;
0191066390999992011011400004+47000+007933FM-12+140699999V0202301N009319999999N9999999N1+00371+00371999999ADDAA106000091MA1999999086201MD1010001+9999ME1315199OA149901961REMSYN100AAXX  14004 06639 03/// /2318 10037 20037 38620 48519 50000 69911 333 55300 20000 60005 91138 91224;EQDQ01  00002PRCP06
0149066390999992011011401004+47000+007933FM-12+140699999V0202201N007219999999N9999999N1+00361+00361999999ADDMA1999999086241MD1210041+9999ME1315239OA149901491REMSYN088AAXX  14014 06639 33/// /2214 10036 20036 38624 48523 52004 333 55300 20000 91129 91218;
0112066390999992011011402004+47000+007933FM-12+140699999V0202301N006219999999N9999999N1+00351+00351999999ADDMA1999999086261ME1315259REMSYN076AAXX  14024 06639 33/// /2312 10035 20035 38626 48525 5//// 333 553// 20000;
0149066390999992011011403004+47000+007933FM-12+140699999V0202301N005719999999N9999999N1+00331+00331999999ADDMA1999999086261MD1210061+9999ME1315259OA149901751REMSYN088AAXX  14034 06639 33/// /2311 10033 20033 38626 48525 52006 333 55300 20000 91134 91220;
0149066390999992011011404004+47000+007933FM-12+140699999V0202201N006719999999N9999999N1+00321+00321999999ADDMA1999999086231MD1010011+9999ME1315229OA149901241REMSYN088AAXX  14044 06639 33/// /2213 10032 20032 38623 48522 50001 333 55300 20000 91124 91215;
0149066390999992011011405004+47000+007933FM-12+140699999V0202301N005119999999N9999999N1+00301+00301999999ADDMA1999999086211MD1710051+9999ME1315209OA149901241REMSYN088AAXX  14054 06639 33/// /2310 10030 20030 38621 48520 57005 333 55300 20000 91124 91215;
0258066390999992011011406004+47000+007933FM-12+140699999V0202201N005119999999N9999999N1+00271+00271999999ADDAA112000091AL14800091GJ100129IA2999+00309KA1999N+00271MA1999999086251MD1510011+9999ME1315239OA149901751REMSYN124AAXX  14064 06639 03/// /2210 10027 20027 38625 48523 55001 69912 333 20027 3/003 55002 55300 20000 60005 70009 91134 91220;EQDQ01  00002PRCP12
0149066390999992011011407004+47000+007933FM-12+140699999V0202101N005119999999N9999999N1+00251+00251999999ADDMA1999999086241MD1210011+9999ME1315229OA149901081REMSYN088AAXX  14074 06639 33/// /2110 10025 20025 38624 48522 52001 333 55300 20000 91121 91212;
0096066390999992011011408004+47000+007933FM-12+140699999V0202301N005119999999N9999999N1+00241+00241999999ADDMA1999999086251ME1315239REMSYN060AAXX  14084 06639 43/// /2310 10024 20024 38625 48523 5////;
0096066390999992011011409004+47000+007933FM-12+140699999V0202201N005119999999N9999999N1+00231+00221999999ADDMA1999999086211ME1315209REMSYN060AAXX  14094 06639 43/// /2210 10023 20022 38621 48520 5////;
0096066390999992011011410004+47000+007933FM-12+140699999V0202301N004619999999N9999999N1+00241+00221999999ADDMA1999999086201ME1315199REMSYN060AAXX  14104 06639 43/// /2309 10024 20022 38620 48519 5////;
0149066390999992011011411004+47000+007933FM-12+140699999V0202501N002119999999N9999999N1+00261+00241999999ADDMA1999999086191MD1710061+9999ME1315189OA149900881REMSYN088AAXX  14114 06639 33/// /2504 10026 20024 38619 48518 57006 333 55300 20500 91117 91209;
0149066390999992011011412004+47000+007933FM-12+140699999V0202201N001519999999N9999999N1+00271+00251999999ADDMA1999999086151MD1710061+9999ME1315149OA149901491REMSYN088AAXX  14124 06639 33/// /2203 10027 20025 38615 48514 57006 333 55300 20569 91129 91218;
0149066390999992011011413004+47000+007933FM-12+140699999V0201901N002119999999N9999999N1+00281+00251999999ADDMA1999999086111MD1710091+9999ME1315109OA149900361REMSYN088AAXX  14134 06639 33/// /1904 10028 20025 38611 48510 57009 333 55300 20608 91107 91204;
0112066390999992011011414004+47000+007933FM-12+140699999V0209999C000019999999N9999999N1+00271+00241999999ADDMA1999999086101ME1315099REMSYN076AAXX  14144 06639 33/// /0000 10027 20024 38610 48509 5//// 333 553// 20522;
0149066390999992011011415004+47000+007933FM-12+140699999V0201701N002119999999N9999999N1+00261+00221999999ADDMA1999999086101MD1510051+9999ME1315099OA149900881REMSYN088AAXX  14154 06639 33/// /1704 10026 20022 38610 48509 55005 333 55305 20536 91117 91209;
0149066390999992011011416004+47000+007933FM-12+140699999V0202001N005719999999N9999999N1+00371+00041999999ADDMA1999999086061MD1710051+9999ME1315069OA149900771REMSYN088AAXX  14164 06639 33/// /2011 10037 20004 38606 48506 57005 333 55300 20137 91115 91211;
0149066390999992011011417004+47000+007933FM-12+140699999V0202201N008219999999N9999999N1+00361+00111999999ADDMA1999999086041MD1710061+9999ME1315049OA149901031REMSYN088AAXX  14174 06639 33/// /2216 10036 20011 38604 48504 57006 333 55300 20000 91120 91216;
0168066390999992011011418004+47000+007933FM-12+140699999V0202501N005119999999N9999999N1+00361+00111999999ADDKA1120M+00501MA1999999086031MD1710071+9999ME1315039OA149901131REMSYN094AAXX  14184 06639 33/// /2510 10036 20011 38603 48503 57007 333 10050 55300 20000 91122 91218;
0149066390999992011011419004+47000+007933FM-12+140699999V0202201N009319999999N9999999N1+00241+00201999999ADDMA1999999085991MD1710071+9999ME1314999OA149901131REMSYN088AAXX  14194 06639 33/// /2218 10024 20020 38599 48499 57007 333 55300 20000 91122 91218;
0149066390999992011011420004+47000+007933FM-12+140699999V0202401N007719999999N9999999N1+00261+00061999999ADDMA1999999086011MD1710031+9999ME1315019OA149901701REMSYN088AAXX  14204 06639 33/// /2415 10026 20006 38601 48501 57003 333 55300 20000 91133 91218;
0149066390999992011011421004+47000+007933FM-12+140699999V0202501N007219999999N9999999N1+00281+00031999999ADDMA1999999086041MD1310011+9999ME1315049OA149901901REMSYN088AAXX  14214 06639 33/// /2514 10028 20003 38604 48504 53001 333 55300 20000 91137 91218;
0149066390999992011011422004+47000+007933FM-12+140699999V0202601N009319999999N9999999N1+00291-00021999999ADDMA1999999086091MD1210101+9999ME1315099OA149902521REMSYN088AAXX  14224 06639 33/// /2618 10029 21002 38609 48509 52010 333 55300 20000 91149 91219;
0149066390999992011011423004+47000+007933FM-12+140699999V0202601N011319999999N9999999N1+00261+00061999999ADDMA1999999086141MD1210131+9999ME1315139OA149902731REMSYN088AAXX  14234 06639 33/// /2622 10026 20006 38614 48513 52013 333 55300 20000 91153 91222;
0149066390999992011011500004+47000+007933FM-12+140699999V0202401N012319999999N9999999N1+00281+00061999999ADDMA1999999086231MD1210191+9999ME1315229OA149902731REMSYN088AAXX  15004 06639 33/// /2424 10028 20006 38623 48522 52019 333 55300 20000 91153 91226;
0155066390999992011011501004+47000+007933FM-12+140699999V0202401N011319999999N9999999N1+00211+00151999999ADDMA1999999086271MD1210181+9999ME1315259OA149902681REMSYN094AAXX  15014 06639 23/// /2422 10021 20015 38627 48525 52018 333 55300 20000 69985 91152 91226;
0155066390999992011011502004+47000+007933FM-12+140699999V0202501N006719999999N9999999N1+00181+00181999999ADDMA1999999086341MD1219999+9999ME1315319OA149902161REMSYN094AAXX  15024 06639 23/// /2513 10018 20018 38634 48531 52/// 333 55300 20000 60025 91142 91223;
0118066390999992011011503004+47000+007933FM-12+140699999V0202701N006219999999N9999999N1+00151+00111999999ADDMA1999999086411ME1315389REMSYN082AAXX  15034 06639 23/// /2712 10015 20011 38641 48538 5//// 333 553// 20000 60035;
0155066390999992011011504004+47000+007933FM-12+140699999V0202701N005119999999N9999999N1+00151+00151999999ADDMA1999999086491MD1310221+9999ME1315459OA149901751REMSYN094AAXX  15044 06639 23/// /2710 10015 20015 38649 48545 53022 333 55300 20000 69945 91134 91213;
0155066390999992011011505004+47000+007933FM-12+140699999V0202701N004619999999N9999999N1+00101+00101999999ADDMA1999999086561MD1310221+9999ME1315529OA149901751REMSYN094AAXX  15054 06639 23/// /2709 10010 20010 38656 48552 53022 333 55300 20000 69995 91134 91213;
0239066390999992011011506004+47000+007933FM-12+140699999V0202301N006219999999N9999999N1+00091+00091999999ADDAA112007191AL11800791GJ100309IA2999+00109KA1999N+00091MA1999999086611MD1110201+9999ME1315569OA149902731REMSYN124AAXX  15064 06639 03/// /2312 10009 20009 38661 48556 51020 60072 333 20009 3/001 55005 55300 20000 69935 70073 91153 91226;
0149066390999992011011507004+47000+007933FM-12+140699999V0202201N006719999999N9999999N1+00101+00101999999ADDMA1999999086651MD1210161+9999ME1315609OA149901291REMSYN088AAXX  15074 06639 33/// /2213 10010 20010 38665 48560 52016 333 55300 20000 91125 91215;
0149066390999992011011508004+47000+007933FM-12+140699999V0202301N007219999999N9999999N1+00101+00101999999ADDMA1999999086631MD1019999+9999ME1315589OA149901291REMSYN088AAXX  15084 06639 33/// /2314 10010 20010 38663 48558 50/// 333 55300 20036 91125 91215;
0149066390999992011011509004+47000+007933FM-12+140699999V0202401N003119999999N9999999N1+00101+00101999999ADDMA1999999086691MD1210081+9999ME1315649OA149901751REMSYN088AAXX  15094 06639 33/// /2406 10010 20010 38669 48564 52008 333 55300 20216 91134 91215;
0149066390999992011011510004+47000+007933FM-12+140699999V0202401N002119999999N9999999N1+00121+00121999999ADDMA1999999086731MD1210081+9999ME1315679OA149900931REMSYN088AAXX  15104 06639 33/// /2404 10012 20012 38673 48567 52008 333 55300 20266 91118 91211;
0149066390999992011011511004+47000+007933FM-12+140699999V0202401N002119999999N9999999N1+00141+00141999999ADDMA1999999086691MD1010061+9999ME1315649OA149900721REMSYN088AAXX  15114 06639 33/// /2404 10014 20014 38669 48564 50006 333 55300 20234 91114 91208;
0149066390999992011011512004+47000+007933FM-12+140699999V0202101N003119999999N9999999N1+00161+00161999999ADDMA1999999086641MD1710051+9999ME1315599OA149902161REMSYN088AAXX  15124 06639 33/// /2106 10016 20016 38664 48559 57005 333 55300 20400 91142 91223;
0112066390999992011011513004+47000+007933FM-12+140699999V0202101N002119999999N9999999N1+00171+00091999999ADDMA1999999086651ME1315609REMSYN076AAXX  15134 06639 33/// /2104 10017 20009 38665 48560 5//// 333 553// 20576;
0096066390999992011011514004+47000+007933FM-12+140699999V0202401N001519999999N9999999N1+00241+00131999999ADDMA1999999086691ME1315649REMSYN060AAXX  15144 06639 43/// /2403 10024 20013 38669 48564 5////;
0096066390999992011011515004+47000+007933FM-12+140699999V0201701N001519999999N9999999N1+00231+00161999999ADDMA1999999086721ME1315679REMSYN060AAXX  15154 06639 43/// /1703 10023 20016 38672 48567 5////;
0096066390999992011011516004+47000+007933FM-12+140699999V0202001N004119999999N9999999N1+00231+00091999999ADDMA1999999086721ME1315679REMSYN060AAXX  15164 06639 43/// /2008 10023 20009 38672 48567 5////;
0112066390999992011011517004+47000+007933FM-12+140699999V0202201N005119999999N9999999N1+00341-00291999999ADDMA1999999086731ME1315699REMSYN076AAXX  15174 06639 33/// /2210 10034 21029 38673 48569 5//// 333 553// 20000;
0119066390999992011011518004+47000+007933FM-12+140699999V0202301N005719999999N9999999N1+00371-00381999999ADDKA1999M+00401MA1999999086751ME1315719REMSYN070AAXX  15184 06639 43/// /2311 10037 21038 38675 48571 5//// 333 10040;
0096066390999992011011519004+47000+007933FM-12+140699999V0202401N005719999999N9999999N1+00371-00291999999ADDMA1999999086781ME1315749REMSYN060AAXX  15194 06639 43/// /2411 10037 21029 38678 48574 5////;
0096066390999992011011520004+47000+007933FM-12+140699999V0202101N005719999999N9999999N1+00431-00401999999ADDMA1999999086791ME1315759REMSYN060AAXX  15204 06639 43/// /2111 10043 21040 38679 48575 5////;
0149066390999992011011521004+47000+007933FM-12+140699999V0202001N005119999999N9999999N1+00511-00681999999ADDMA1999999086791MD1210041+9999ME1315759OA149900721REMSYN088AAXX  15214 06639 33/// /2010 10051 21068 38679 48575 52004 333 55300 20000 91114 91212;
0149066390999992011011522004+47000+007933FM-12+140699999V0202401N003119999999N9999999N1+00641-01071999999ADDMA1999999086791MD1010011+9999ME1315769OA149900621REMSYN088AAXX  15224 06639 33/// /2406 10064 21107 38679 48576 50001 333 55300 20000 91112 91211;
0149066390999992011011523004+47000+007933FM-12+140699999V0202301N003119999999N9999999N1+00621-01111999999ADDMA1999999086771MD1710021+9999ME1315749OA149900621REMSYN088AAXX  15234 06639 33/// /2306 10062 21111 38677 48574 57002 333 55300 20000 91112 91211;
0149066390999992011011600004+47000+007933FM-12+140699999V0202201N002119999999N9999999N1+00771-01641999999ADDMA1999999086731MD1710061+9999ME1315719OA149900721REMSYN088AAXX  16004 06639 33/// /2204 10077 21164 38673 48571 57006 333 55300 20000 91114 91212;
0149066390999992011011601004+47000+007933FM-12+140699999V0201501N002619999999N9999999N1+00831-01841999999ADDMA1999999086711MD1610081+9999ME1315709OA149900361REMSYN088AAXX  16014 06639 33/// /1505 10083 21184 38671 48570 56008 333 55300 20000 91107 91207;
0149066390999992011011602004+47000+007933FM-12+140699999V0201901N001519999999N9999999N1+00881-01991999999ADDMA1999999086721MD1719999+9999ME1315719OA149900361REMSYN088AAXX  16024 06639 33/// /1903 10088 21199 38672 48571 57/// 333 55300 20000 91107 91206;
0096066390999992011011603004+47000+007933FM-12+140699999V0201801N002119999999N9999999N1+00931-01851999999ADDMA1999999086711ME1315709REMSYN060AAXX  16034 06639 43/// /1804 10093 21185 38671 48570 5////;
0149066390999992011011604004+47000+007933FM-12+140699999V0202001N004119999999N9999999N1+00961-01261999999ADDMA1999999086701MD1710011+9999ME1315709OA149900511REMSYN088AAXX  16044 06639 33/// /2008 10096 21126 38670 48570 57001 333 55300 20000 91110 91209;
0149066390999992011011605004+47000+007933FM-12+140699999V0202001N002619999999N9999999N1+01041-01441999999ADDMA1999999086691MD1810031+9999ME1315699OA149900511REMSYN088AAXX  16054 06639 33/// /2005 10104 21144 38669 48569 58003 333 55300 20000 91110 91209;
0216066390999992011011606004+47000+007933FM-12+140699999V0201601N001519999999N9999999N1+00891-01291999999ADDAL19900091GJ101329IA2999+00209KA1999N+00331MA1999999086691MD1610021+9999ME1315689OA149900721REMSYN112AAXX  16064 06639 33/// /1603 10089 21129 38669 48568 56002 333 20033 3/002 55022 55300 20000 70000 91114 91212;
0149066390999992011011607004+47000+007933FM-12+140699999V0201801N001019999999N9999999N1+00661-01411999999ADDMA1999999086711MD1310011+9999ME1315699OA149900311REMSYN088AAXX  16074 06639 33/// /1802 10066 21141 38671 48569 53001 333 55300 20000 91106 91206;
0149066390999992011011608004+47000+007933FM-12+140699999V0201901N003119999999N9999999N1+00451-00851999999ADDMA1999999086741MD1319999+9999ME1315709OA149900361REMSYN088AAXX  16084 06639 33/// /1906 10045 21085 38674 48570 53/// 333 55306 20112 91107 91206;
0149066390999992011011609004+47000+007933FM-12+140699999V0202401N005119999999N9999999N1+00611-00851999999ADDMA1999999086761MD1110071+9999ME1315739OA149900671REMSYN088AAXX  16094 06639 33/// /2410 10061 21085 38676 48573 51007 333 553// 20572 91113 91211;
0149066390999992011011610004+47000+007933FM-12+140699999V0202601N004119999999N9999999N1+00751-00971999999ADDMA1999999086781MD1110071+9999ME1315769OA149900881REMSYN088AAXX  16104 06639 33/// /2608 10075 21097 38678 48576 51007 333 553// 2//// 91117 91211;
0149066390999992011011611004+47000+007933FM-12+140699999V0202501N004619999999N9999999N1+00801-00761999999ADDMA1999999086781MD1210041+9999ME1315769OA149900881REMSYN088AAXX  16114 06639 33/// /2509 10080 21076 38678 48576 52004 333 553// 2//// 91117 91210;
0149066390999992011011612004+47000+007933FM-12+140699999V0202601N003619999999N9999999N1+01021-00881999999ADDMA1999999086751MD1810011+9999ME1315759OA149900881REMSYN088AAXX  16124 06639 33/// /2607 10102 21088 38675 48575 58001 333 553// 2//// 91117 91211;
0149066390999992011011613004+47000+007933FM-12+140699999V0202301N002119999999N9999999N1+01001-00471999999ADDMA1999999086721MD1810061+9999ME1315729OA149900881REMSYN088AAXX  16134 06639 33/// /2304 10100 21047 38672 48572 58006 333 553// 2//// 91117 91209;
0149066390999992011011614004+47000+007933FM-12+140699999V0202501N001519999999N9999999N1+01091-00591999999ADDMA1999999086711MD1719999+9999ME1315719OA149900771REMSYN088AAXX  16144 06639 33/// /2503 10109 21059 38671 48571 57/// 333 553// 2//// 91115 91208;
0149066390999992011011615004+47000+007933FM-12+140699999V0202401N001019999999N9999999N1+01021-00591999999ADDMA1999999086701MD1710051+9999ME1315709OA149900881REMSYN088AAXX  16154 06639 33/// /2402 10102 21059 38670 48570 57005 333 553// 20709 91117 91210;
0149066390999992011011616004+47000+007933FM-12+140699999V0203001N001519999999N9999999N1+00931-00671999999ADDMA1999999086711MD1410001+9999ME1315709OA149900361REMSYN088AAXX  16164 06639 33/// /3003 10093 21067 38671 48570 54001 333 553// 20223 91107 91204;
0149066390999992011011617004+47000+007933FM-12+140699999V0202601N004619999999N9999999N1+00921-00791999999ADDMA1999999086731MD1310021+9999ME1315729OA149900821REMSYN088AAXX  16174 06639 33/// /2609 10092 21079 38673 48572 53002 333 55301 20004 91116 91209;
0168066390999992011011618004+47000+007933FM-12+140699999V0202101N005119999999N9999999N1+00891-00721999999ADDKA1120M+01091MA1999999086731MD1210031+9999ME1315729OA149900881REMSYN094AAXX  16184 06639 33/// /2110 10089 21072 38673 48572 52003 333 10109 55300 20000 91117 91211;
0149066390999992011011619004+47000+007933FM-12+140699999V0202501N006719999999N9999999N1+00801-00941999999ADDMA1999999086741MD1210031+9999ME1315729OA149901031REMSYN088AAXX  16194 06639 33/// /2513 10080 21094 38674 48572 52003 333 55300 20000 91120 91213;
0149066390999992011011620004+47000+007933FM-12+140699999V0202401N006719999999N9999999N1+00791-01001999999ADDMA1999999086761MD1210031+9999ME1315749OA149901341REMSYN088AAXX  16204 06639 33/// /2413 10079 21100 38676 48574 52003 333 55300 20000 91126 91214;
0149066390999992011011621004+47000+007933FM-12+140699999V0202301N008219999999N9999999N1+00721-00861999999ADDMA1999999086761MD1210031+9999ME1315749OA149901341REMSYN088AAXX  16214 06639 33/// /2316 10072 21086 38676 48574 52003 333 55300 20000 91126 91216;
0149066390999992011011622004+47000+007933FM-12+140699999V0202301N008219999999N9999999N1+00721-00771999999ADDMA1999999086751MD1010011+9999ME1315739OA149901181REMSYN088AAXX  16224 06639 33/// /2316 10072 21077 38675 48573 50001 333 55300 20000 91123 91217;
0149066390999992011011623004+47000+007933FM-12+140699999V0202401N006219999999N9999999N1+00691-00811999999ADDMA1999999086761MD1510001+9999ME1315749OA149901181REMSYN088AAXX  16234 06639 33/// /2412 10069 21081 38676 48574 55000 333 55300 20000 91123 91217;
0149066390999992011011700004+47000+007933FM-12+140699999V0202601N005119999999N9999999N1+00671-00761999999ADDMA1999999086751MD1710011+9999ME1315739OA149901341REMSYN088AAXX  17004 06639 33/// /2610 10067 21076 38675 48573 57001 333 55300 20000 91126 91217;
0149066390999992011011701004+47000+007933FM-12+140699999V0202601N004619999999N9999999N1+00651-00691999999ADDMA1999999086741MD1810011+9999ME1315729OA149900881REMSYN088AAXX  17014 06639 33/// /2609 10065 21069 38674 48572 58001 333 55300 20000 91117 91212;
0149066390999992011011702004+47000+007933FM-12+140699999V0202701N004119999999N9999999N1+00701-00701999999ADDMA1999999086721MD1819999+9999ME1315709OA149900881REMSYN088AAXX  17024 06639 33/// /2708 10070 21070 38672 48570 58/// 333 55300 20000 91117 91210;
0112066390999992011011703004+47000+007933FM-12+140699999V0202801N004619999999N9999999N1+00711-00621999999ADDMA1999999086711ME1315699REMSYN076AAXX  17034 06639 33/// /2809 10071 21062 38671 48569 5//// 333 553// 20000;
0149066390999992011011704004+47000+007933FM-12+140699999V0202901N003619999999N9999999N1+00721-00641999999ADDMA1999999086671MD1810071+9999ME1315659OA149900821REMSYN088AAXX  17044 06639 33/// /2907 10072 21064 38667 48565 58007 333 55300 20000 91116 91210;
0149066390999992011011705004+47000+007933FM-12+140699999V0203101N002619999999N9999999N1+00611-00561999999ADDMA1999999086641MD1810081+9999ME1315629OA149900821REMSYN088AAXX  17054 06639 33/// /3105 10061 21056 38664 48562 58008 333 55300 20000 91116 91208;
0216066390999992011011706004+47000+007933FM-12+140699999V0203401N001019999999N9999999N1+00711-00711999999ADDAL19900091GJ105169IA2999+00409KA1999N+00571MA1999999086621MD1610091+9999ME1315619OA149901341REMSYN112AAXX  17064 06639 33/// /3402 10071 21071 38662 48561 56009 333 20057 3/004 55086 55300 20000 70000 91126 91217;
0149066390999992011011707004+47000+007933FM-12+140699999V0200401N001519999999N9999999N1+00671-00801999999ADDMA1999999086591MD1610081+9999ME1315589OA149900361REMSYN088AAXX  17074 06639 33/// /0403 10067 21080 38659 48558 56008 333 55300 20000 91107 91205;
0096066390999992011011708004+47000+007933FM-12+140699999V0201301N001519999999N9999999N1+00681-00641999999ADDMA1999999086591ME1315589REMSYN060AAXX  17084 06639 43/// /1303 10068 21064 38659 48558 5////;
0096066390999992011011709004+47000+007933FM-12+140699999V0201501N001019999999N9999999N1+00701-00581999999ADDMA1999999086561ME1315559REMSYN060AAXX  17094 06639 43/// /1502 10070 21058 38656 48555 5////;
0149066390999992011011710004+47000+007933FM-12+140699999V0202201N002119999999N9999999N1+00571-00531999999ADDMA1999999086591MD1510001+9999ME1315579OA149900311REMSYN088AAXX  17104 06639 33/// /2204 10057 21053 38659 48557 55000 333 553// 2//// 91106 91204;
0149066390999992011011711004+47000+007933FM-12+140699999V0202301N002619999999N9999999N1+00661-00421999999ADDMA1999999086601MD1310011+9999ME1315589OA149900411REMSYN088AAXX  17114 06639 33/// /2305 10066 21042 38660 48558 53001 333 553// 2//// 91108 91205;
0149066390999992011011712004+47000+007933FM-12+140699999V0202301N003119999999N9999999N1+00641-00581999999ADDMA1999999086591MD1010031+9999ME1315579OA149900881REMSYN088AAXX  17124 06639 33/// /2306 10064 21058 38659 48557 50003 333 553// 2//// 91117 91210;
0149066390999992011011713004+47000+007933FM-12+140699999V0202401N003119999999N9999999N1+00741-00481999999ADDMA1999999086581MD1810011+9999ME1315579OA149900571REMSYN088AAXX  17134 06639 33/// /2406 10074 21048 38658 48557 58001 333 553// 2//// 91111 91207;
0096066390999992011011714004+47000+007933FM-12+140699999V0202401N005119999999N9999999N1+00701-00371999999ADDMA1999999086591ME1315589REMSYN060AAXX  17144 06639 43/// /2410 10070 21037 38659 48558 5////;
0096066390999992011011715004+47000+007933FM-12+140699999V0202401N005119999999N9999999N1+00581-00551999999ADDMA1999999086611ME1315599REMSYN060AAXX  17154 06639 43/// /2410 10058 21055 38661 48559 5////;
0149066390999992011011716004+47000+007933FM-12+140699999V0202301N006219999999N9999999N1+00441-00461999999ADDMA1999999086641MD1110061+9999ME1315619OA149901341REMSYN088AAXX  17164 06639 33/// /2312 10044 21046 38664 48561 51006 333 55306 20169 91126 91212;
0149066390999992011011717004+47000+007933FM-12+140699999V0202301N006719999999N9999999N1+00371-00311999999ADDMA1999999086661MD1110071+9999ME1315629OA149901341REMSYN088AAXX  17174 06639 33/// /2313 10037 21031 38666 48562 51007 333 55300 20000 91126 91213;
0168066390999992011011718004+47000+007933FM-12+140699999V0202101N005119999999N9999999N1+00301-00251999999ADDKA1120M+00741MA1999999086681MD1310071+9999ME1315649OA149901341REMSYN094AAXX  17184 06639 33/// /2110 10030 21025 38668 48564 53007 333 10074 55300 20000 91126 91213;
0149066390999992011011719004+47000+007933FM-12+140699999V0202201N006719999999N9999999N1+00301-00251999999ADDMA1999999086681MD1210041+9999ME1315649OA149900931REMSYN088AAXX  17194 06639 33/// /2213 10030 21025 38668 48564 52004 333 55300 20000 91118 91213;
0149066390999992011011720004+47000+007933FM-12+140699999V0202201N006719999999N9999999N1+00311-00221999999ADDMA1999999086681MD1210021+9999ME1315649OA149900881REMSYN088AAXX  17204 06639 33/// /2213 10031 21022 38668 48564 52002 333 55300 20000 91117 91214;
0149066390999992011011721004+47000+007933FM-12+140699999V0202201N007219999999N9999999N1+00281-00221999999ADDMA1999999086671MD1710011+9999ME1315639OA149901341REMSYN088AAXX  17214 06639 33/// /2214 10028 21022 38667 48563 57001 333 55300 20000 91126 91214;
0149066390999992011011722004+47000+007933FM-12+140699999V0202201N006719999999N9999999N1+00311-00221999999ADDMA1999999086681MD1010001+9999ME1315649OA149900981REMSYN088AAXX  17224 06639 33/// /2213 10031 21022 38668 48564 50000 333 55300 20000 91119 91214;
0149066390999992011011723004+47000+007933FM-12+140699999V0202701N003119999999N9999999N1+00321-00241999999ADDMA1999999086691MD1210011+9999ME1315659OA149900881REMSYN088AAXX  17234 06639 33/// /2706 10032 21024 38669 48565 52001 333 55300 20000 91117 91213;
0149066390999992011011800004+47000+007933FM-12+140699999V0202301N003619999999N9999999N1+00271-00241999999ADDMA1999999086681MD1010011+9999ME1315649OA149901341REMSYN088AAXX  18004 06639 33/// /2307 10027 21024 38668 48564 50001 333 55300 20000 91126 91214;
0149066390999992011011801004+47000+007933FM-12+140699999V0202501N004119999999N9999999N1+00301-00271999999ADDMA1999999086671MD1719999+9999ME1315639OA149900771REMSYN088AAXX  18014 06639 33/// /2508 10030 21027 38667 48563 57/// 333 55300 20000 91115 91209;
0096066390999992011011802004+47000+007933FM-12+140699999V0202401N004119999999N9999999N1+00241-00251999999ADDMA1999999086671ME1315639REMSYN060AAXX  18024 06639 43/// /2408 10024 21025 38667 48563 5////;
0096066390999992011011803004+47000+007933FM-12+140699999V0202101N003119999999N9999999N1+00281-00201999999ADDMA1999999086631ME1315599REMSYN060AAXX  18034 06639 43/// /2106 10028 21020 38663 48559 5////;
0112066390999992011011804004+47000+007933FM-12+140699999V0202201N003619999999N9999999N1+00261-00261999999ADDMA1999999086581ME1315549REMSYN076AAXX  18044 06639 33/// /2207 10026 21026 38658 48554 5//// 333 553// 20000;
0149066390999992011011805004+47000+007933FM-12+140699999V0203201N002119999999N9999999N1+00201-00251999999ADDMA1999999086541MD1710131+9999ME1315509OA149900511REMSYN088AAXX  18054 06639 33/// /3204 10020 21025 38654 48550 57013 333 55300 20000 91110 91209;
0216066390999992011011806004+47000+007933FM-12+140699999V0202801N003119999999N9999999N1+00201-00181999999ADDAL19900091GJ104809IA2999+00009KA1999N+00141MA1999999086571MD1510061+9999ME1315539OA149900981REMSYN112AAXX  18064 06639 33/// /2806 10020 21018 38657 48553 55006 333 20014 3/000 55080 55300 20000 70000 91119 91214;
0149066390999992011011807004+47000+007933FM-12+140699999V0203101N001519999999N9999999N1+00201-00111999999ADDMA1999999086591MD1310011+9999ME1315559OA149900621REMSYN088AAXX  18074 06639 33/// /3103 10020 21011 38659 48555 53001 333 55300 20000 91112 91208;
