0140066370999992011101113004+46717+008167FM-12+059599999V0202301N001519999999N9999999N1+01611+01141102331ADDMA1999999095521MD1619999+9999OA149900311REMSYN088AAXX  11134 06637 33/// /2303 10161 20114 39552 40233 56/// 333 55310 22034 91106 91203;
0103066370999992011101114004+46717+008167FM-12+059599999V0202501N001519999999N9999999N1+01421+01061102351ADDMA1999999095491REMSYN076AAXX  11144 06637 33/// /2503 10142 20106 39549 40235 5//// 333 553// 21728;
0210066370999992011101115004+46717+008167FM-12+059599999V0201701N000512200019N0120001N1+01211+00951102371ADDAY101031AY201031GA1001+999999999GF100991001001999999001001MA1999999095461MD1719999+9999MW1101OA149900311REMSYN094AAXX  11154 06637 31/62 01701 10121 20095 39546 40237 57/// 71000 333 55300 20162 91106 91203;
0140066370999992011101116004+46717+008167FM-12+059599999V0201301N001519999999N9999999N1+01201+00941102381ADDMA1999999095461MD1719999+9999OA149900211REMSYN088AAXX  11164 06637 33/// /1303 10120 20094 39546 40238 57/// 333 55300 20115 91104 91203;
0140066370999992011101117004+46717+008167FM-12+059599999V0209999C000019999999N9999999N1+01051+00931102431ADDMA1999999095471MD1519999+9999OA149900261REMSYN088AAXX  11174 06637 33/// /0000 10105 20093 39547 40243 55/// 333 55300 20043 91105 91204;
0245066370999992011101118004+46717+008167FM-12+059599999V0209999C000012200019N0120001N1+01081+00891102481ADDAA112007191AY101061AY201061GA1011+015001061GF101991999999017501999999IA1119KA1120M+01691MA1999999095531MW1101REMSYN124AAXX  11184 06637 01762 10000 10108 20089 39553 40248 5//// 60072 71000 333 10169 32/// 553// 20004 60005 81650 90766 93100;
0117066370999992011101119004+46717+008167FM-12+059599999V0201101N001519999999N9999999N1+00861+00781102541ADDMA1999999095531MD1219999+9999REMSYN076AAXX  11194 06637 33/// /1103 10086 20078 39553 40254 52/// 333 553// 20000;
0103066370999992011101120004+46717+008167FM-12+059599999V0201301N001519999999N9999999N1+00811+00751102621ADDMA1999999095591REMSYN076AAXX  11204 06637 33/// /1303 10081 20075 39559 40262 5//// 333 553// 20004;
0103066370999992011101121004+46717+008167FM-12+059599999V0200901N001019999999N9999999N1+00711+00671102631ADDMA1999999095581REMSYN076AAXX  11214 06637 33/// /0902 10071 20067 39558 40263 5//// 333 553// 20004;
0140066370999992011101122004+46717+008167FM-12+059599999V0201501N000519999999N9999999N1+00681+00651102661ADDMA1999999095601MD1219999+9999OA149900211REMSYN088AAXX  11224 06637 33/// /1501 10068 20065 39560 40266 52/// 333 55300 20004 91104 91201;
0140066370999992011101123004+46717+008167FM-12+059599999V0201301N000519999999N9999999N1+00741+00691102661ADDMA1999999095611MD1319999+9999OA149900211REMSYN088AAXX  11234 06637 33/// /1301 10074 20069 39561 40266 53/// 333 55300 20004 91104 91202;
0210066370999992011101200004+46717+008167FM-12+059599999V0201501N000512200019N0120001N1+00511+00481102711ADDAY101061AY201061GA1001+999999999GF100991001001999999001001MA1999999095601MD1019999+9999MW1121OA149900261REMSYN094AAXX  12004 06637 31/62 01501 10051 20048 39560 40271 50/// 71200 333 55300 20004 91105 91203;
0146066370999992011101203004+46717+008167FM-12+059599999V02099999999992200019N0009001N1+99999+99999999999ADDAY141031AY201031GA1011+060001011GF101991999999999999999999MW1461REMSYN070AAXX  12034 06637 41909 1//// 1//// 2//// 3//// 5//// 74640 333 81170;
0127066370999992011101206004+46717+008167FM-12+059599999V0201301N000519999999N9999999N1+00431+00391102641ADDAL10600091GJ103609MA1999999095521REMSYN082AAXX  12064 06637 43/// /1301 10043 20039 39552 40264 5//// 333 55060 90768 93100;
0140066370999992011101207004+46717+008167FM-12+059599999V0201001N000519999999N9999999N1+00551+00521102621ADDMA1999999095531MD1219999+9999OA149900151REMSYN088AAXX  12074 06637 33/// /1001 10055 20052 39553 40262 52/// 333 55302 20140 91103 91202;
0103066370999992011101208004+46717+008167FM-12+059599999V0209999C000019999999N9999999N1+00951+00751102491ADDMA1999999095511REMSYN076AAXX  12084 06637 33/// /0000 10095 20075 39551 40249 5//// 333 553// 20958;
0188066370999992011101209004+46717+008167FM-12+059599999V0201501N000512200019N0300001N1+01221+00881102491ADDGA1021+018001061GF102991999999017501999999MA1999999095571MD1319999+9999OA149900211REMSYN094AAXX  12094 06637 32780 21501 10122 20088 39557 40249 53/// 333 55310 21505 82656 91104 91202;
0140066370999992011101210004+46717+008167FM-12+059599999V0203101N002119999999N9999999N1+01231+00891102521ADDMA1999999095601MD1219999+9999OA149900771REMSYN088AAXX  12104 06637 33/// /3104 10123 20089 39560 40252 52/// 333 55310 21879 91115 91209;
0140066370999992011101211004+46717+008167FM-12+059599999V0202801N001519999999N9999999N1+01391+00901102341ADDMA1999999095471MD1819999+9999OA149900311REMSYN088AAXX  12114 06637 33/// /2803 10139 20090 39547 40234 58/// 333 55310 22120 91106 91204;
0163066370999992011101212004+46717+008167FM-12+059599999V0202601N001012200019N0120001N1+01481+00961102201ADDAY101061AY201061GF102991999999999999999999MA1999999095361MW1051REMSYN088AAXX  12124 06637 31962 22602 10148 20096 39536 40220 5//// 70500 333 553// 22167 82081;
0103066370999992011101213004+46717+008167FM-12+059599999V0202601N001019999999N9999999N1+01501+00971102151ADDMA1999999095321REMSYN076AAXX  12134 06637 33/// /2602 10150 20097 39532 40215 5//// 333 553// 22016;
0103066370999992011101214004+46717+008167FM-12+059599999V0202401N000519999999N9999999N1+01351+00901102181ADDMA1999999095311REMSYN076AAXX  12144 06637 33/// /2401 10135 20090 39531 40218 5//// 333 553// 21472;
0216066370999992011101215004+46717+008167FM-12+059599999V0202201N001012200019N0070001N1+01181+00971102201ADDAY101031AY201031GA1041+105001001GF104991999999999999999999MA1999999095291MD1710071+9999MW1051OA149900361REMSYN100AAXX  12154 06637 31957 42202 10118 20097 39529 40220 57007 70500 333 55300 20223 84081 91107 91204;
0140066370999992011101216004+46717+008167FM-12+059599999V0201401N001019999999N9999999N1+01261+00991102211ADDMA1999999095321MD1319999+9999OA149900261REMSYN088AAXX  12164 06637 33/// /1402 10126 20099 39532 40221 53/// 333 55300 20173 91105 91202;
0140066370999992011101217004+46717+008167FM-12+059599999V0201101N001519999999N9999999N1+01311+01041102251ADDMA1999999095371MD1310061+9999OA149900361REMSYN088AAXX  12174 06637 33/// /1103 10131 20104 39537 40225 53006 333 55300 20047 91107 91205;
0269066370999992011101218004+46717+008167FM-12+059599999V0201101N00151012301CN0070001N1+01281+00991102261ADDAL19900091AY111061AY211061GA1081+012301071GF108991999999012501999999IA1099KA1120M+01561MA1999999095371MD1219999+9999MW1101OA149900411REMSYN124AAXX  12184 06637 31657 81103 10128 20099 39537 40226 52/// 71011 333 10156 31/// 55300 20007 88741 90766 93100 91108 91205;
0103066370999992011101219004+46717+008167FM-12+059599999V0201601N001019999999N9999999N1+01201+00991102271ADDMA1999999095361REMSYN076AAXX  12194 06637 33/// /1602 10120 20099 39536 40227 5//// 333 553// 20004;
0103066370999992011101220004+46717+008167FM-12+059599999V0201301N001019999999N9999999N1+01201+01021102341ADDMA1999999095431REMSYN076AAXX  12204 06637 33/// /1302 10120 20102 39543 40234 5//// 333 553// 20007;
0103066370999992011101221004+46717+008167FM-12+059599999V0202901N001019999999N9999999N1+01241+01051102361ADDMA1999999095461REMSYN076AAXX  12214 06637 33/// /2902 10124 20105 39546 40236 5//// 333 553// 20007;
0140066370999992011101222004+46717+008167FM-12+059599999V0202601N001519999999N9999999N1+01221+00961102401ADDMA1999999095491MD1210131+9999OA149900671REMSYN088AAXX  12224 06637 33/// /2603 10122 20096 39549 40240 52013 333 55300 20007 91113 91206;
0140066370999992011101223004+46717+008167FM-12+059599999V0202701N002119999999N9999999N1+01211+00921102441ADDMA1999999095521MD1219999+9999OA149900671REMSYN088AAXX  12234 06637 33/// /2704 10121 20092 39552 40244 52/// 333 55300 20004 91113 91207;
0238066370999992011101300004+46717+008167FM-12+059599999V0202501N00211010201CN0080001N1+01191+00911102411ADDAY121061AY221061GA1031+002101071GA2061+010201061GF108991999999002501999999MA1999999095491MD1010031+9999MW1101OA149900671REMSYN106AAXX  13004 06637 31358 82504 10119 20091 39549 40241 50003 71022 333 55300 20007 83707 86634 91113 91207;
0140066370999992011101301004+46717+008167FM-12+059599999V0202901N000519999999N9999999N1+01181+00911102391ADDMA1999999095471MD1719999+9999OA149900311REMSYN088AAXX  13014 06637 33/// /2901 10118 20091 39547 40239 57/// 333 55300 20007 91106 91202;
0103066370999992011101302004+46717+008167FM-12+059599999V0201201N000519999999N9999999N1+01141+00951102391ADDMA1999999095461REMSYN076AAXX  13024 06637 33/// /1201 10114 20095 39546 40239 5//// 333 553// 20007;
0140066370999992011101303004+46717+008167FM-12+059599999V0209999C000019999999N9999999N1+01171+00891102401ADDMA1999999095481MD1710011+9999OA149900311REMSYN088AAXX  13034 06637 33/// /0000 10117 20089 39548 40240 57001 333 55300 20007 91106 91202;
0140066370999992011101304004+46717+008167FM-12+059599999V0202701N002119999999N9999999N1+01201+00881102441ADDMA1999999095521MD1310051+9999OA149900461REMSYN088AAXX  13044 06637 33/// /2704 10120 20088 39552 40244 53005 333 55300 20007 91109 91204;
0140066370999992011101305004+46717+008167FM-12+059599999V0202901N001519999999N9999999N1+01181+00881102441ADDMA1999999095521MD1210061+9999OA149900411REMSYN088AAXX  13054 06637 33/// /2903 10118 20088 39552 40244 52006 333 55300 20007 91108 91204;
0273066370999992011101306004+46717+008167FM-12+059599999V0201101N00101004201CN0300001N1+01111+00951102471ADDAL19900091GA1081+004201061GF108991999999004501999999GJ104209IA1099IA2999+01009KA1999N+01091MA1999999095531MD1210051+9999OA149900461REMSYN130AAXX  13064 06637 32480 81102 10111 20095 39553 40247 52005 333 20109 31010 55070 55300 20011 70000 88614 90768 93100 91109 91204;
0140066370999992011101307004+46717+008167FM-12+059599999V0202101N000519999999N9999999N1+01111+00971102531ADDMA1999999095581MD1219999+9999OA149900151REMSYN088AAXX  13074 06637 33/// /2101 10111 20097 39558 40253 52/// 333 55300 20122 91103 91202;
0103066370999992011101308004+46717+008167FM-12+059599999V0200501N000519999999N9999999N1+01241+00951102551ADDMA1999999095631REMSYN076AAXX  13084 06637 33/// /0501 10124 20095 39563 40255 5//// 333 553// 20364;
0140066370999992011101309004+46717+008167FM-12+059599999V0202801N002119999999N9999999N1+01311+00851102551ADDMA1999999095651MD1119999+9999OA149900511REMSYN088AAXX  13094 06637 33/// /2804 10131 20085 39565 40255 51/// 333 55300 20641 91110 91205;
0140066370999992011101310004+46717+008167FM-12+059599999V0202401N001519999999N9999999N1+01461+00851102501ADDMA1999999095641MD1019999+9999OA149900361REMSYN088AAXX  13104 06637 33/// /2403 10146 20085 39564 40250 50/// 333 55303 21148 91107 91203;
0140066370999992011101311004+46717+008167FM-12+059599999V0202401N001519999999N9999999N1+01501+00931102491ADDMA1999999095641MD1010011+9999OA149900411REMSYN088AAXX  13114 06637 33/// /2403 10150 20093 39564 40249 50001 333 55304 21588 91108 91205;
0163066370999992011101312004+46717+008167FM-12+059599999V0202601N002119999999N0080001N1+01591+00901102421ADDAY121061AY221061GF105991999999012501999999MA1999999095601MW1051REMSYN088AAXX  13124 06637 31658 52604 10159 20090 39560 40242 5//// 70522 333 553// 21422 85641;
0103066370999992011101313004+46717+008167FM-12+059599999V0203101N003119999999N9999999N1+01661+00791102361ADDMA1999999095561REMSYN076AAXX  13134 06637 33/// /3106 10166 20079 39556 40236 5//// 333 553// 22333;
0103066370999992011101314004+46717+008167FM-12+059599999V0203301N003119999999N9999999N1+01571+00861102371ADDMA1999999095541REMSYN076AAXX  13144 06637 33/// /3306 10157 20086 39554 40237 5//// 333 553// 21040;
0216066370999992011101315004+46717+008167FM-12+059599999V0203101N002612200019N0080001N1+01521+00741102371ADDAY111031AY211031GA1041+009301061GF104991999999008001999999MA1999999095531MD1719999+9999MW1051OA149901031REMSYN100AAXX  13154 06637 31558 43105 10152 20074 39553 40237 57/// 70511 333 55300 20256 84631 91120 91209;
0140066370999992011101316004+46717+008167FM-12+059599999V0203501N004119999999N9999999N1+01421+00831102401ADDMA1999999095541MD1519999+9999OA149900881REMSYN088AAXX  13164 06637 33/// /3508 10142 20083 39554 40240 55/// 333 55300 20137 91117 91209;
0140066370999992011101317004+46717+008167FM-12+059599999V0200801N002119999999N9999999N1+01241+00901102541ADDMA1999999095621MD1219999+9999OA149900771REMSYN088AAXX  13174 06637 33/// /0804 10124 20090 39562 40254 52/// 333 55300 20040 91115 91205;
0194066370999992011101318004+46717+008167FM-12+059599999V0201301N001519999999N0080001N1+01141+00861102621ADDAY111061AY211061GF106991999999008001999999IA1099KA1120M+01681MA1999999095671MW1101REMSYN100AAXX  13184 06637 31558 61303 10114 20086 39567 40262 5//// 71011 333 10168 31/// 553// 20004 86631;
0103066370999992011101319004+46717+008167FM-12+059599999V0201101N001019999999N9999999N1+01011+00831102661ADDMA1999999095681REMSYN076AAXX  13194 06637 33/// /1102 10101 20083 39568 40266 5//// 333 553// 20000;
0103066370999992011101320004+46717+008167FM-12+059599999V0201201N001019999999N9999999N1+00921+00811102711ADDMA1999999095701REMSYN076AAXX  13204 06637 33/// /1202 10092 20081 39570 40271 5//// 333 553// 20004;
0216066370999992011101321004+46717+008167FM-12+059599999V0201901N00051014101CN0100001N1+00971+00851102751ADDAY121031AY221031GA1061+014101061GF106991999999012501999999MA1999999095751MD1210081+9999MW1101OA149900211REMSYN100AAXX  13214 06637 31660 61901 10097 20085 39575 40275 52008 71022 333 55300 20007 86647 91104 91202;
0140066370999992011101322004+46717+008167FM-12+059599999V0202001N000519999999N9999999N1+00981+00851102721ADDMA1999999095731MD1219999+9999OA149900211REMSYN088AAXX  13224 06637 33/// /2001 10098 20085 39573 40272 52/// 333 55300 20004 91104 91202;
0140066370999992011101323004+46717+008167FM-12+059599999V0200701N000519999999N9999999N1+00981+00871102691ADDMA1999999095701MD1019999+9999OA149900151REMSYN088AAXX  13234 06637 33/// /0701 10098 20087 39570 40269 50/// 333 55300 20004 91103 91202;
0140066370999992011101400004+46717+008167FM-12+059599999V0209999C000019999999N9999999N1+00891+00811102691ADDMA1999999095681MD1710071+9999OA149900211REMSYN088AAXX  14004 06637 33/// /0000 10089 20081 39568 40269 57007 333 55300 20004 91104 91202;
0103066370999992011101401004+46717+008167FM-12+059599999V0209999C000019999999N9999999N1+00851+00711102641ADDMA1999999095621REMSYN076AAXX  14014 06637 33/// /0000 10085 20071 39562 40264 5//// 333 553// 20004;
0103066370999992011101402004+46717+008167FM-12+059599999V0201101N000519999999N9999999N1+00921+00711102601ADDMA1999999095601REMSYN076AAXX  14024 06637 33/// /1101 10092 20071 39560 40260 5//// 333 553// 20007;
0140066370999992011101403004+46717+008167FM-12+059599999V0201301N001519999999N9999999N1+00941+00741102601ADDMA1999999095611MD1710071+9999OA149900361REMSYN088AAXX  14034 06637 33/// /1303 10094 20074 39561 40260 57007 333 55300 20007 91107 91203;
0140066370999992011101404004+46717+008167FM-12+059599999V0202701N000519999999N9999999N1+00901+00741102631ADDMA1999999095621MD1019999+9999OA149900311REMSYN088AAXX  14044 06637 33/// /2701 10090 20074 39562 40263 50/// 333 55300 20007 91106 91204;
0140066370999992011101405004+46717+008167FM-12+059599999V0201201N000519999999N9999999N1+00961+00671102631ADDMA1999999095641MD1310041+9999OA149900151REMSYN088AAXX  14054 06637 33/// /1201 10096 20067 39564 40263 53004 333 55300 20007 91103 91202;
0273066370999992011101406004+46717+008167FM-12+059599999V0209999C00001015001CN0200001N1+00891+00741102671ADDAL19900091GA1081+015001061GF108991999999017501999999GJ101629IA1099IA2999+00709KA1999N+00801MA1999999095661MD1210051+9999OA149900361REMSYN130AAXX  14064 06637 32770 80000 10089 20074 39566 40267 52005 333 20080 31007 55027 55300 20011 70000 88650 90768 93100 91107 91204;
0140066370999992011101407004+46717+008167FM-12+059599999V0202101N000519999999N9999999N1+00931+00721102711ADDMA1999999095711MD1219999+9999OA149900211REMSYN088AAXX  14074 06637 33/// /2101 10093 20072 39571 40271 52/// 333 55300 20086 91104 91202;
0103066370999992011101408004+46717+008167FM-12+059599999V0209999C000019999999N9999999N1+01001+00661102741ADDMA1999999095751REMSYN076AAXX  14084 06637 33/// /0000 10100 20066 39575 40274 5//// 333 553// 20317;
0140066370999992011101409004+46717+008167FM-12+059599999V0202801N001519999999N9999999N1+01071+00661102681ADDMA1999999095711MD1019999+9999OA149900261REMSYN088AAXX  14094 06637 33/// /2803 10107 20066 39571 40268 50/// 333 55301 20846 91105 91203;
0140066370999992011101410004+46717+008167FM-12+059599999V0203001N003619999999N9999999N1+01251+00601102571ADDMA1999999095651MD1819999+9999OA149900771REMSYN088AAXX  14104 06637 33/// /3007 10125 20060 39565 40257 58/// 333 55310 21836 91115 91207;
0140066370999992011101411004+46717+008167FM-12+059599999V0203401N007219999999N9999999N1+01091+00491102671ADDMA1999999095711MD1519999+9999OA149901491REMSYN088AAXX  14114 06637 33/// /3414 10109 20049 39571 40267 55/// 333 55308 21703 91129 91214;
0216066370999992011101412004+46717+008167FM-12+059599999V0203101N004112200019N0060001N1+01221+00651102651ADDAY111061AY211061GA1031+012301061GF103991999999012501999999MA1999999095721MD1319999+9999MW1101OA149901541REMSYN100AAXX  14124 06637 31656 33108 10122 20065 39572 40265 53/// 71011 333 55305 21624 83641 91130 91214;
0103066370999992011101413004+46717+008167FM-12+059599999V0202501N002119999999N9999999N1+01191+00521102561ADDMA1999999095631REMSYN076AAXX  14134 06637 33/// /2504 10119 20052 39563 40256 5//// 333 553// 21976;
0103066370999992011101414004+46717+008167FM-12+059599999V0203301N007719999999N9999999N1+01161+00481102511ADDMA1999999095581REMSYN076AAXX  14144 06637 33/// /3315 10116 20048 39558 40251 5//// 333 553// 21192;
0216066370999992011101415004+46717+008167FM-12+059599999V0203601N005112200019N0070001N1+01111+00571102621ADDAY101031AY201031GA1021+009301061GF103991999999008001999999MA1999999095671MD1510051+9999MW1051OA149901601REMSYN100AAXX  14154 06637 31557 33610 10111 20057 39567 40262 55005 70500 333 55300 20252 82631 91131 91216;
0087066370999992011101416004+46717+008167FM-12+059599999V0200301N001019999999N9999999N1+01121+00641102641ADDMA1999999095691REMSYN060AAXX  14164 06637 43/// /0302 10112 20064 39569 40264 5////;
0140066370999992011101417004+46717+008167FM-12+059599999V0201201N000519999999N9999999N1+01051+00681102651ADDMA1999999095681MD1019999+9999OA149900211REMSYN088AAXX  14174 06637 33/// /1201 10105 20068 39568 40265 50/// 333 55300 20047 91104 91202;
0247066370999992011101418004+46717+008167FM-12+059599999V0201801N00101009301CN0070001N1+01021+00691102671ADDAY111061AY211061GA1051+009301061GF105991999999008001999999IA1099KA1120M+01301MA1999999095691MD1219999+9999MW1051OA149901601REMSYN112AAXX  14184 06637 31557 51802 10102 20069 39569 40267 52/// 70511 333 10130 31/// 55300 20004 85631 91131 91216;
0103066370999992011101419004+46717+008167FM-12+059599999V0201201N001019999999N9999999N1+01031+00691102671ADDMA1999999095691REMSYN076AAXX  14194 06637 33/// /1202 10103 20069 39569 40267 5//// 333 553// 20007;
0140066370999992011101420004+46717+008167FM-12+059599999V0202001N000519999999N9999999N1+00921+00691102651ADDMA1999999095651MD1819999+9999OA149900151REMSYN088AAXX  14204 06637 33/// /2001 10092 20069 39565 40265 58/// 333 55300 20004 91103 91202;
0216066370999992011101421004+46717+008167FM-12+059599999V0201501N00051012301CN0080001N1+00871+00751102691ADDAY111031AY211031GA1061+012301061GF106991999999012501999999MA1999999095671MD1519999+9999MW1051OA149900211REMSYN100AAXX  14214 06637 31658 61501 10087 20075 39567 40269 55/// 70511 333 55300 20007 86641 91104 91203;
0103066370999992011101422004+46717+008167FM-12+059599999V0201101N001019999999N9999999N1+00951+00641102691ADDMA1999999095691REMSYN076AAXX  14224 06637 33/// /1102 10095 20064 39569 40269 5//// 333 553// 20004;
0140066370999992011101423004+46717+008167FM-12+059599999V0201001N001519999999N9999999N1+00941+00471102661ADDMA1999999095661MD1019999+9999OA149900361REMSYN088AAXX  14234 06637 33/// /1003 10094 20047 39566 40266 50/// 333 55300 20004 91107 91204;
0163066370999992011101500004+46717+008167FM-12+059599999V0203501N000512200019N0100001N1+00711+00581102711ADDAY111061AY211061GF103991999999008001999999MA1999999095651MW1101REMSYN088AAXX  15004 06637 31560 33501 10071 20058 39565 40271 5//// 71011 333 553// 20004 83631;
0103066370999992011101501004+46717+008167FM-12+059599999V0201401N000519999999N9999999N1+00611+00451102791ADDMA1999999095701REMSYN076AAXX  15014 06637 33/// /1401 10061 20045 39570 40279 5//// 333 553// 20004;
0103066370999992011101502004+46717+008167FM-12+059599999V0202301N000519999999N9999999N1+00491+00481102801ADDMA1999999095681REMSYN076AAXX  15024 06637 33/// /2301 10049 20048 39568 40280 5//// 333 553// 20004;
0163066370999992011101503004+46717+008167FM-12+059599999V0201701N000512200019N0080001N1+00341+00301102811ADDAY111031AY211031GF103991999999012501999999MA1999999095651MW1101REMSYN088AAXX  15034 06637 31658 31701 10034 20030 39565 40281 5//// 71011 333 553// 20000 83647;
0140066370999992011101504004+46717+008167FM-12+059599999V0201401N000519999999N9999999N1+00521+00401102791ADDMA1999999095681MD1519999+9999OA149900211REMSYN088AAXX  15044 06637 33/// /1401 10052 20040 39568 40279 55/// 333 55300 20007 91104 91203;
0140066370999992011101505004+46717+008167FM-12+059599999V0201101N001019999999N9999999N1+00611+00381102781ADDMA1999999095691MD1219999+9999OA149900261REMSYN088AAXX  15054 06637 33/// /1102 10061 20038 39569 40278 52/// 333 55300 20007 91105 91203;
0287066370999992011101506004+46717+008167FM-12+059599999V0201101N00151004201CN0120001N1+00581+00351102821ADDAL19900091AY111061AY211061GA1081+004201071GF108991999999004501999999IA1099IA2999+00109KA1999N+00341MA1999999095721MD1219999+9999MW1101OA149900361REMSYN130AAXX  15064 06637 31462 81103 10058 20035 39572 40282 52/// 71011 333 20034 31001 55300 20011 70000 88714 90768 93100 91107 91205;
0103066370999992011101507004+46717+008167FM-12+059599999V0201201N001519999999N9999999N1+00621+00351102841ADDMA1999999095751REMSYN076AAXX  15074 06637 33/// /1203 10062 20035 39575 40284 5//// 333 553// 20162;
0103066370999992011101508004+46717+008167FM-12+059599999V0201201N002119999999N9999999N1+00711+00341102831ADDMA1999999095761REMSYN076AAXX  15084 06637 33/// /1204 10071 20034 39576 40283 5//// 333 553// 20886;
0163066370999992011101509004+46717+008167FM-12+059599999V0203401N000519999999N0100001N1+00821+00451102771ADDAY121031AY221031GF105991999999004501999999MA1999999095731MW1101REMSYN088AAXX  15094 06637 31460 53401 10082 20045 39573 40277 5//// 71022 333 553// 21458 85714;
0103066370999992011101510004+46717+008167FM-12+059599999V0202601N002619999999N9999999N1+00991+00521102711ADDMA1999999095721REMSYN076AAXX  15104 06637 33/// /2605 10099 20052 39572 40271 5//// 333 553// 21861;
0140066370999992011101511004+46717+008167FM-12+059599999V0202701N002619999999N9999999N1+01121+00561102631ADDMA1999999095681MD1719999+9999OA149900571REMSYN088AAXX  15114 06637 33/// /2705 10112 20056 39568 40263 57/// 333 55310 22088 91111 91205;
0145066370999992011101512004+46717+008167FM-12+059599999V0202601N003112200019N0750001N1+01141+00621102591ADDGA1001+999999999GF100991001001999999001001MA1999999095651REMSYN076AAXX  15124 06637 32/89 02606 10114 20062 39565 40259 5//// 333 553// 22113;
0103066370999992011101513004+46717+008167FM-12+059599999V0202301N001519999999N9999999N1+01131+00671102541ADDMA1999999095601REMSYN076AAXX  15134 06637 33/// /2303 10113 20067 39560 40254 5//// 333 553// 21944;
0103066370999992011101514004+46717+008167FM-12+059599999V0202001N001019999999N9999999N1+00931+00531102561ADDMA1999999095571REMSYN076AAXX  15144 06637 33/// /2002 10093 20053 39557 40256 5//// 333 553// 21217;
0103066370999992011101515004+46717+008167FM-12+059599999V0201601N001019999999N9999999N1+00891+00551102541ADDMA1999999095541REMSYN076AAXX  15154 06637 33/// /1602 10089 20055 39554 40254 5//// 333 553// 20162;
0140066370999992011101516004+46717+008167FM-12+059599999V0201401N000519999999N9999999N1+00891+00571102551ADDMA1999999095551MD1719999+9999OA149900211REMSYN088AAXX  15164 06637 33/// /1401 10089 20057 39555 40255 57/// 333 55300 20108 91104 91203;
0140066370999992011101517004+46717+008167FM-12+059599999V0201301N000519999999N9999999N1+00761+00541102651ADDMA1999999095611MD1310041+9999OA149900151REMSYN088AAXX  15174 06637 33/// /1301 10076 20054 39561 40265 53004 333 55300 20032 91103 91201;
0269066370999992011101518004+46717+008167FM-12+059599999V0201201N00101042001CN0080001N1+00651+00501102721ADDAL19900091AY121061AY221061GA1081+042001041GF108991999999999999999999IA1099KA1120M+01181MA1999999095651MD1310111+9999MW1101OA149900411REMSYN124AAXX  15184 06637 31958 81202 10065 20050 39565 40272 53011 71022 333 10118 31/// 55300 20000 88464 90766 93100 91108 91204;
0140066370999992011101519004+46717+008167FM-12+059599999V0201401N000519999999N9999999N1+00521+00451102741ADDMA1999999095631MD1010081+9999OA149900151REMSYN088AAXX  15194 06637 33/// /1401 10052 20045 39563 40274 50008 333 55300 20004 91103 91203;
0103066370999992011101520004+46717+008167FM-12+059599999V0201301N000519999999N9999999N1+00481+00421102761ADDMA1999999095641REMSYN076AAXX  15204 06637 33/// /1301 10048 20042 39564 40276 5//// 333 553// 20004;
0210066370999992011101521004+46717+008167FM-12+059599999V0209999C000012200019N0080001N1+00431+00391102781ADDAY111031AY211031GA1001+999999999GF100991001001999999001001MA1999999095651MD1519999+9999MW1101OA149900211REMSYN094AAXX  15214 06637 31/58 00000 10043 20039 39565 40278 55/// 71011 333 55300 20004 91104 91203;
0140066370999992011101522004+46717+008167FM-12+059599999V0201401N000519999999N9999999N1+00471+00411102761ADDMA1999999095641MD1010011+9999OA149900101REMSYN088AAXX  15224 06637 33/// /1401 10047 20041 39564 40276 50001 333 55300 20004 91102 91201;
0140066370999992011101523004+46717+008167FM-12+059599999V0201201N000519999999N9999999N1+00351+00321102801ADDMA1999999095641MD1410001+9999OA149900151REMSYN088AAXX  15234 06637 33/// /1201 10035 20032 39564 40280 54/// 333 55300 20004 91103 91202;
0173066370999992011101600004+46717+008167FM-12+059599999V0209999C000012200019N0100001N1+00271+00271102821ADDAY111061AY211061GA1001+999999999GF100991001001999999001001MA1999999095641MW1101REMSYN082AAXX  16004 06637 31/60 00000 10027 20027 39564 40282 5//// 71011 333 553// 20004;
0140066370999992011101601004+46717+008167FM-12+059599999V0201401N000519999999N9999999N1+00271+00261102831ADDMA1999999095651MD1219999+9999OA149900101REMSYN088AAXX  16014 06637 33/// /1401 10027 20026 39565 40283 52/// 333 55300 20004 91102 91201;
0103066370999992011101602004+46717+008167FM-12+059599999V0201401N000519999999N9999999N1+00251+00241102821ADDMA1999999095641REMSYN076AAXX  16024 06637 33/// /1401 10025 20024 39564 40282 5//// 333 553// 20004;
0163066370999992011101603004+46717+008167FM-12+059599999V0201201N000512200019N0100001N1+00201+00191102831ADDAY101031AY201031GF101991999999017501999999MA1999999095631MW1101REMSYN088AAXX  16034 06637 31760 11201 10020 20019 39563 40283 5//// 71000 333 553// 20004 81656;
0103066370999992011101604004+46717+008167FM-12+059599999V0201201N000519999999N9999999N1+00201+00191102841ADDMA1999999095641REMSYN076AAXX  16044 06637 33/// /1201 10020 20019 39564 40284 5//// 333 553// 20004;
0140066370999992011101605004+46717+008167FM-12+059599999V0201301N000519999999N9999999N1+00161+00141102871ADDMA1999999095661MD1210021+9999OA149900101REMSYN088AAXX  16054 06637 33/// /1301 10016 20014 39566 40287 52002 333 55300 20004 91102 91201;
0301066370999992011101606004+46717+008167FM-12+059599999V0209999C000012200019N0008001N1+00091+00091102911ADDAL19900091AY101061AY201061GA1021+069001001GF102991999999999999999999GJ103909IA1099IA2999-00209KA1999N+00091MA1999999095681MD1310051+9999MW1461OA149900101REMSYN136AAXX  16064 06637 31908 20000 10009 20009 39568 40291 53005 74600 333 20009 31102 55065 55300 20014 70000 82073 90768 93100 91102 91201;
0140066370999992011101607004+46717+008167FM-12+059599999V0209999C000019999999N9999999N1+00131+00131102941ADDMA1999999095721MD1310081+9999OA149900051REMSYN088AAXX  16074 06637 33/// /0000 10013 20013 39572 40294 53008 333 55301 20148 91101 91200;
0140066370999992011101608004+46717+008167FM-12+059599999V0209999C000019999999N9999999N1+00521+00361102871ADDMA1999999095751MD1319999+9999OA149900051REMSYN088AAXX  16084 06637 33/// /0000 10052 20036 39575 40287 53/// 333 55310 20914 91101 91201;
0216066370999992011101609004+46717+008167FM-12+059599999V0203001N001512200019N0020001N1+00661+00471102841ADDAY141031AY201031GA1021+001801071GF102991999999001501999999MA1999999095761MD1119999+9999MW1101OA149900261REMSYN100AAXX  16094 06637 31220 23003 10066 20047 39576 40284 51/// 71040 333 55310 21379 82706 91105 91203;
0140066370999992011101610004+46717+008167FM-12+059599999V0203001N002619999999N9999999N1+00851+00601102781ADDMA1999999095751MD1010031+9999OA149900311REMSYN088AAXX  16104 06637 33/// /3005 10085 20060 39575 40278 50003 333 55310 21847 91106 91205;
0140066370999992011101611004+46717+008167FM-12+059599999V0203001N002619999999N9999999N1+00961+00631102721ADDMA1999999095721MD1810031+9999OA149900411REMSYN088AAXX  16114 06637 33/// /3005 10096 20063 39572 40272 58003 333 55310 22077 91108 91205;
0182066370999992011101612004+46717+008167FM-12+059599999V0202801N001512200019N0300001N1+01091+00661102611ADDGA1001+999999999GF100991001001999999001001MA1999999095651MD1719999+9999OA149900411REMSYN088AAXX  16124 06637 32/80 02803 10109 20066 39565 40261 57/// 333 55310 22095 91108 91205;
0140066370999992011101613004+46717+008167FM-12+059599999V0202401N001019999999N9999999N1+01081+00641102561ADDMA1999999095601MD1710151+9999OA149900361REMSYN088AAXX  16134 06637 33/// /2402 10108 20064 39560 40256 57015 333 55310 21926 91107 91205;
0140066370999992011101614004+46717+008167FM-12+059599999V0202401N001019999999N9999999N1+00891+00571102611ADDMA1999999095601MD1719999+9999OA149900151REMSYN088AAXX  16144 06637 33/// /2402 10089 20057 39560 40261 57/// 333 55307 21127 91103 91202;
0182066370999992011101615004+46717+008167FM-12+059599999V0201401N001012200019N0300001N1+00881+00621102611ADDGA1001+999999999GF100991001001999999001001MA1999999095601MD1710051+9999OA149900361REMSYN088AAXX  16154 06637 32/80 01402 10088 20062 39560 40261 57005 333 55300 20162 91107 91205;
0140066370999992011101616004+46717+008167FM-12+059599999V0201301N001019999999N9999999N1+00871+00601102601ADDMA1999999095591MD1710011+9999OA149900151REMSYN088AAXX  16164 06637 33/// /1302 10087 20060 39559 40260 57001 333 55300 20104 91103 91202;
0140066370999992011101617004+46717+008167FM-12+059599999V0201301N001519999999N9999999N1+00771+00551102651ADDMA1999999095611MD1310011+9999OA149900211REMSYN088AAXX  16174 06637 33/// /1303 10077 20055 39561 40265 53001 333 55300 20032 91104 91203;
0263066370999992011101618004+46717+008167FM-12+059599999V0209999C000012200019N0080001N1+00571+00531102711ADDAL19900091AY111061AY211061GA1001+999999999GF100991001001999999001001IA1099KA1120M+01111MA1999999095621MD1219999+9999MW1101OA149900361REMSYN118AAXX  16184 06637 31/58 00000 10057 20053 39562 40271 52/// 71011 333 10111 31/// 55300 20000 90766 93100 91107 91205;
0140066370999992011101619004+46717+008167FM-12+059599999V0201201N000519999999N9999999N1+00551+00461102731ADDMA1999999095631MD1210041+9999OA149900101REMSYN088AAXX  16194 06637 33/// /1201 10055 20046 39563 40273 52004 333 55300 20004 91102 91201;
0140066370999992011101620004+46717+008167FM-12+059599999V0201301N001019999999N9999999N1+00571+00461102731ADDMA1999999095631MD1119999+9999OA149900151REMSYN088AAXX  16204 06637 33/// /1302 10057 20046 39563 40273 51/// 333 55300 20004 91103 91202;
0210066370999992011101621004+46717+008167FM-12+059599999V0201201N000512200019N0080001N1+00421+00381102791ADDAY101031AY201031GA1001+999999999GF100991001001999999001001MA1999999095651MD1319999+9999MW1101OA149900151REMSYN094AAXX  16214 06637 31/58 01201 10042 20038 39565 40279 53/// 71000 333 55300 20004 91103 91203;
0140066370999992011101622004+46717+008167FM-12+059599999V0201201N000519999999N9999999N1+00411+00391102801ADDMA1999999095661MD1110031+9999OA149900101REMSYN088AAXX  16224 06637 33/// /1201 10041 20039 39566 40280 51003 333 55300 20004 91102 91201;
0140066370999992011101623004+46717+008167FM-12+059599999V0201401N000519999999N9999999N1+00341+00341102811ADDMA1999999095651MD1010021+9999OA149900051REMSYN088AAXX  16234 06637 33/// /1401 10034 20034 39565 40281 50002 333 55300 20004 91101 91201;
0229066370999992011101700004+46717+008167FM-12+059599999V0201701N000512200019N0080001N1+00321+00311102811ADDAY101061AY201061GA1001+999999999GF100991001001999999001001MA1999999095651MD1710021+9999MW1101OA149900151REMSYN094AAXX  17004 06637 31/58 01701 10032 20031 39565 40281 57000 71000 333 55300 20004 91103 91203;EQDQ01+000002APC3  
0140066370999992011101701004+46717+008167FM-12+059599999V0201301N001019999999N9999999N1+00281+00251102801ADDMA1999999095631MD1719999+9999OA149900101REMSYN088AAXX  17014 06637 33/// /1302 10028 20025 39563 40280 57/// 333 55300 20004 91102 91202;
0140066370999992011101702004+46717+008167FM-12+059599999V0201301N000519999999N9999999N1+00161+00141102791ADDMA1999999095591MD1719999+9999OA149900151REMSYN088AAXX  17024 06637 33/// /1301 10016 20014 39559 40279 57/// 333 55300 20004 91103 91202;
0210066370999992011101703004+46717+008167FM-12+059599999V0201401N000512200019N0120001N1+00161+00161102811ADDAY101031AY201031GA1001+999999999GF100991001001999999001001MA1999999095601MD1719999+9999MW1101OA149900151REMSYN094AAXX  17034 06637 31/62 01401 10016 20016 39560 40281 57/// 71000 333 55300 20004 91103 91202;
0140066370999992011101704004+46717+008167FM-12+059599999V0209999C000019999999N9999999N1+00261+00221102791ADDMA1999999095611MD1519999+9999OA149900151REMSYN088AAXX  17044 06637 33/// /0000 10026 20022 39561 40279 55/// 333 55300 20004 91103 91202;
0140066370999992011101705004+46717+008167FM-12+059599999V0201501N000519999999N9999999N1+00171+00151102821ADDMA1999999095621MD1210031+9999OA149900101REMSYN088AAXX  17054 06637 33/// /1501 10017 20015 39562 40282 52003 333 55300 20004 91102 91201;
0294066370999992011101706004+46717+008167FM-12+059599999V0209999C000012200019N0100001N1+00151+00141102851ADDAL19900091AY101061AY201061GA1031+054001031GJ104089IA1099IA2999-00209KA1999N+00031MA1999999095641MD1210041+9999MW1051OA149900151REMSYN136AAXX  17064 06637 31960 20000 10015 20014 39564 40285 52004 70500 333 20003 31102 55068 55300 20011 70000 83368 90768 93100 91103 91202;EQDQ01+000022SCOTCV
0140066370999992011101707004+46717+008167FM-12+059599999V0201201N000519999999N9999999N1+00201+00151102901ADDMA1999999095701MD1210091+9999OA149900101REMSYN088AAXX  17074 06637 33/// /1201 10020 20015 39570 40290 52009 333 55301 20112 91102 91201;
0103066370999992011101708004+46717+008167FM-12+059599999V0209999C000019999999N9999999N1+00601+00521102811ADDMA1999999095721REMSYN076AAXX  17084 06637 33/// /0000 10060 20052 39572 40281 5//// 333 553// 20565;
0140066370999992011101709004+46717+008167FM-12+059599999V0202601N000519999999N9999999N1+00711+00551102771ADDMA1999999095711MD1019999+9999OA149900151REMSYN088AAXX  17094 06637 33/// /2601 10071 20055 39571 40277 50/// 333 55300 20814 91103 91202;
0140066370999992011101710004+46717+008167FM-12+059599999V0202601N001519999999N9999999N1+00781+00561102721ADDMA1999999095681MD1810021+9999OA149900261REMSYN088AAXX  17104 06637 33/// /2603 10078 20056 39568 40272 58002 333 55303 21418 91105 91203;
0103066370999992011101711004+46717+008167FM-12+059599999V0202801N003119999999N9999999N1+00931+00641102661ADDMA1999999095661REMSYN076AAXX  17114 06637 33/// /2806 10093 20064 39566 40266 5//// 333 553// 22171;
0157066370999992011101712004+46717+008167FM-12+059599999V0202501N001012200019N0300001N1+00951+00611102541ADDAY141061AY201061GA1001+999999999GF100991001001999999001001MA1999999095551MW1011REMSYN066AAXX  17124 06637 41/80 02502 10095 20061 39555 40254 5//// 70140;
0103066370999992011101713004+46717+008167FM-12+059599999V0202101N001519999999N9999999N1+01061+00701102431ADDMA1999999095481REMSYN076AAXX  17134 06637 33/// /2103 10106 20070 39548 40243 5//// 333 553// 21879;
0103066370999992011101714004+46717+008167FM-12+059599999V0202101N001519999999N9999999N1+00751+00571102481ADDMA1999999095451REMSYN076AAXX  17144 06637 33/// /2103 10075 20057 39545 40248 5//// 333 553// 21026;
0145066370999992011101715004+46717+008167FM-12+059599999V0201301N000512200019N0250001N1+00871+00541102431ADDGA1001+999999999GF100991001001999999001001MA1999999095431REMSYN076AAXX  17154 06637 32/75 01301 10087 20054 39543 40243 5//// 333 553// 20162;
0140066370999992011101716004+46717+008167FM-12+059599999V0201401N001519999999N9999999N1+00851+00541102461ADDMA1999999095451MD1519999+9999OA149900211REMSYN088AAXX  17164 06637 33/// /1403 10085 20054 39545 40246 55/// 333 55300 20104 91104 91203;
0140066370999992011101717004+46717+008167FM-12+059599999V0201401N002119999999N9999999N1+00741+00541102541ADDMA1999999095501MD1210051+9999OA149900261REMSYN088AAXX  17174 06637 33/// /1404 10074 20054 39550 40254 52005 333 55300 20029 91105 91204;
0263066370999992011101718004+46717+008167FM-12+059599999V0201101N003612200019N0080001N1+00791+00511102531ADDAL19900091AY101061AY201061GA1001+999999999GF100991001001999999001001IA1099KA1120M+01061MA1999999095501MD1219999+9999MW1101OA149900511REMSYN118AAXX  17184 06637 31/58 01107 10079 20051 39550 40253 52/// 71000 333 10106 31/// 55300 20004 90766 93100 91110 91207;
0103066370999992011101719004+46717+008167FM-12+059599999V0201201N001019999999N9999999N1+00681+00481102551ADDMA1999999095491REMSYN076AAXX  17194 06637 33/// /1202 10068 20048 39549 40255 5//// 333 553// 20004;
0103066370999992011101720004+46717+008167FM-12+059599999V0201001N000519999999N9999999N1+00581+00441102571ADDMA1999999095491REMSYN076AAXX  17204 06637 33/// /1001 10058 20044 39549 40257 5//// 333 553// 20004;
0140066370999992011101721004+46717+008167FM-12+059599999V0201601N000519999999N9999999N1+00431+00371102591ADDMA1999999095471MD1719999+9999OA149900461REMSYN088AAXX  17214 06637 33/// /1601 10043 20037 39547 40259 57/// 333 55300 20004 91109 91206;
0140066370999992011101722004+46717+008167FM-12+059599999V0209999C000019999999N9999999N1+00321+00301102631ADDMA1999999095481MD1710011+9999OA149900101REMSYN088AAXX  17224 06637 33/// /0000 10032 20030 39548 40263 57001 333 55300 20004 91102 91201;
0140066370999992011101723004+46717+008167FM-12+059599999V0200501N000519999999N9999999N1+00291+00251102621ADDMA1999999095461MD1719999+9999OA149900101REMSYN088AAXX  17234 06637 33/// /0501 10029 20025 39546 40262 57/// 333 55300 20004 91102 91201;
0140066370999992011101800004+46717+008167FM-12+059599999V0201501N001519999999N9999999N1+00111+00111102661ADDMA1999999095451MD1710021+9999OA149900461REMSYN088AAXX  18004 06637 33/// /1503 10011 20011 39545 40266 57002 333 55300 20004 91109 91206;
0140066370999992011101801004+46717+008167FM-12+059599999V0201401N001019999999N9999999N1+00301+00261102561ADDMA1999999095411MD1719999+9999OA149900151REMSYN088AAXX  18014 06637 33/// /1402 10030 20026 39541 40256 57/// 333 55300 20004 91103 91202;
0103066370999992011101802004+46717+008167FM-12+059599999V0203001N001019999999N9999999N1+00191+00171102511ADDMA1999999095331REMSYN076AAXX  18024 06637 33/// /3002 10019 20017 39533 40251 5//// 333 553// 20004;
0173066370999992011101803004+46717+008167FM-12+059599999V0201301N001512200019N0080001N1+00301+00221102471ADDAY101031AY201031GA1001+999999999GF100991001001999999001001MA1999999095321MW1101REMSYN082AAXX  18034 06637 31/58 01303 10030 20022 39532 40247 5//// 71000 333 553// 20004;
0140066370999992011101804004+46717+008167FM-12+059599999V0200901N000519999999N9999999N1+00091+00091102511ADDMA1999999095311MD1619999+9999OA149900151REMSYN088AAXX  18044 06637 33/// /0901 10009 20009 39531 40251 56/// 333 55300 20004 91103 91202;
0140066370999992011101805004+46717+008167FM-12+059599999V0200901N001019999999N9999999N1+00141+00101102461ADDMA1999999095271MD1810061+9999OA149900151REMSYN088AAXX  18054 06637 33/// /0902 10014 20010 39527 40246 58006 333 55300 20004 91103 91202;
0219066370999992011101806004+46717+008167FM-12+059599999V0209999C000019999999N9999999N1+00121+00101102451ADDAL19900091GJ102469IA2999-00209KA1999N+00031MA1999999095261MD1610061+9999OA149900211REMSYN124AAXX  18064 06637 33/// /0000 10012 20010 39526 40245 56006 333 20003 3/102 55041 55300 20011 70000 90768 93100 91104 91203;
0103066370999992011101807004+46717+008167FM-12+059599999V0209999C000019999999N9999999N1+00051+00041102511ADDMA1999999095301REMSYN076AAXX  18074 06637 33/// /0000 10005 20004 39530 40251 5//// 333 553// 20072;
0103066370999992011101808004+46717+008167FM-12+059599999V0201001N000519999999N9999999N1+00481+00311102361ADDMA1999999095271REMSYN076AAXX  18084 06637 33/// /1001 10048 20031 39527 40236 5//// 333 553// 20792;
0163066370999992011101809004+46717+008167FM-12+059599999V0201901N000512200019N0060001N1+00901+00531102191ADDAY101031AY201031GF101991999999999999999999MA1999999095211MW1051REMSYN088AAXX  18094 06637 31956 11901 10090 20053 39521 40219 5//// 70500 333 553// 21397 81080;
0140066370999992011101810004+46717+008167FM-12+059599999V0202001N001019999999N9999999N1+01151+00401102011ADDMA1999999095111MD1719999+9999OA149900211REMSYN088AAXX  18104 06637 33/// /2002 10115 20040 39511 40201 57/// 333 55310 21782 91104 91202;
0140066370999992011101811004+46717+008167FM-12+059599999V0202901N002119999999N9999999N1+01291+00451101931ADDMA1999999095071MD1619999+9999OA149900311REMSYN088AAXX  18114 06637 33/// /2904 10129 20045 39507 40193 56/// 333 55310 22020 91106 91204;
0163066370999992011101812004+46717+008167FM-12+059599999V0202401N001012200019N0120001N1+01341+00441101831ADDAY101061AY201061GF102991999999999999999999MA1999999094991MW1051REMSYN088AAXX  18124 06637 31962 22402 10134 20044 39499 40183 5//// 70500 333 553// 22020 82080;
0103066370999992011101813004+46717+008167FM-12+059599999V0202501N001019999999N9999999N1+01291+00411101781ADDMA1999999094931REMSYN076AAXX  18134 06637 33/// /2502 10129 20041 39493 40178 5//// 333 553// 21865;
0103066370999992011101814004+46717+008167FM-12+059599999V0202101N001519999999N9999999N1+00921+00411101871ADDMA1999999094921REMSYN076AAXX  18144 06637 33/// /2103 10092 20041 39492 40187 5//// 333 553// 20932;
0216066370999992011101815004+46717+008167FM-12+059599999V0201301N00051090001CN0120001N1+00981+00361101821ADDAY111031AY211031GA1051+090001001GF105991999999999999999999MA1999999094891MD1719999+9999MW1051OA149900261REMSYN100AAXX  18154 06637 31962 51301 10098 20036 39489 40182 57/// 70511 333 55300 20198 85080 91105 91203;
0140066370999992011101816004+46717+008167FM-12+059599999V0201401N000519999999N9999999N1+00871+00361101841ADDMA1999999094881MD1610051+9999OA149900151REMSYN088AAXX  18164 06637 33/// /1401 10087 20036 39488 40184 56005 333 55300 20140 91103 91202;
0140066370999992011101817004+46717+008167FM-12+059599999V0201301N001019999999N9999999N1+00631+00341101941ADDMA1999999094911MD1519999+9999OA149900151REMSYN088AAXX  18174 06637 33/// /1302 10063 20034 39491 40194 55/// 333 55300 20032 91103 91202;
0134066370999992011101818004+46717+008167FM-12+059599999V0201301N000519999999N9999999N1+00661+00321101941ADDKA1120M+01431MA1999999094921REMSYN094AAXX  18184 06637 33/// /1301 10066 20032 39492 40194 5//// 333 10143 553// 20004 90766 93100;
0103066370999992011101819004+46717+008167FM-12+059599999V0201201N000519999999N9999999N1+00631+00341101941ADDMA1999999094911REMSYN076AAXX  18194 06637 33/// /1201 10063 20034 39491 40194 5//// 333 553// 20004;
0103066370999992011101820004+46717+008167FM-12+059599999V0201201N000519999999N9999999N1+00491+00321101911ADDMA1999999094851REMSYN076AAXX  18204 06637 33/// /1201 10049 20032 39485 40191 5//// 333 553// 20004;
0210066370999992011101821004+46717+008167FM-12+059599999V0209999C000012200019N0080001N1+00431+00281101921ADDAY101031AY201031GA1001+999999999GF100991001001999999001001MA1999999094851MD1619999+9999MW1101OA149900261REMSYN094AAXX  18214 06637 31/58 00000 10043 20028 39485 40192 56/// 71000 333 55300 20004 91105 91203;
0140066370999992011101822004+46717+008167FM-12+059599999V0201401N001019999999N9999999N1+00461+00271101881ADDMA1999999094821MD1719999+9999OA149900311REMSYN088AAXX  18224 06637 33/// /1402 10046 20027 39482 40188 57/// 333 55300 20004 91106 91202;
0103066370999992011101823004+46717+008167FM-12+059599999V0201001N000519999999N9999999N1+00491+00291101831ADDMA1999999094781REMSYN076AAXX  18234 06637 33/// /1001 10049 20029 39478 40183 5//// 333 553// 20004;
0140066370999992011101900004+46717+008167FM-12+059099999V0201301N000519999999N9999999N1+00491+00331101801ADDMA1999999094751MD1719999+9999OA149900311REMSYN088AAXX  19004 06637 33/// /1301 10049 20033 39475 40180 57/// 333 55300 20007 91106 91203;
0140066370999992011101901004+46717+008167FM-12+059099999V0202901N000519999999N9999999N1+00381+00291101781ADDMA1999999094701MD1810121+9999OA149900211REMSYN088AAXX  19014 06637 33/// /2901 10038 20029 39470 40178 58012 333 55300 20007 91104 91201;
0103066370999992011101902004+46717+008167FM-12+059099999V0200901N000519999999N9999999N1+00461+00361101681ADDMA1999999094631REMSYN076AAXX  19024 06637 33/// /0901 10046 20036 39463 40168 5//// 333 553// 20007;
0103066370999992011101903004+46717+008167FM-12+059099999V0202001N001019999999N9999999N1+00511+00391101631ADDMA1999999094601REMSYN076AAXX  19034 06637 33/// /2002 10051 20039 39460 40163 5//// 333 553// 20007;
0140066370999992011101904004+46717+008167FM-12+059099999V0201101N000519999999N9999999N1+00561+00411101581ADDMA1999999094561MD1719999+9999OA149900211REMSYN088AAXX  19044 06637 33/// /1101 10056 20041 39456 40158 57/// 333 55300 20007 91104 91202;
0140066370999992011101905004+46717+008167FM-12+059099999V0209999C000019999999N9999999N1+00531+00431101541ADDMA1999999094521MD1710111+9999OA149900151REMSYN088AAXX  19054 06637 33/// /0000 10053 20043 39452 40154 57011 333 55300 20007 91103 91201;
0301066370999992011101906004+46717+008167FM-12+059099999V0209999C00001018001CN0100001N1+00651+00461101441ADDAL19900091AY121061AY221061GA1051+018001071GF108991999999017501999999GJ103969IA1099IA2999+00109KA1999N+00331MA1999999094451MD1819999+9999MW1101OA149900311REMSYN136AAXX  19064 06637 31760 80000 10065 20046 39445 40144 58/// 71022 333 20033 31001 55066 55300 20011 70000 85756 90768 93100 91106 91203;
0140066370999992011101907004+46717+008167FM-12+059099999V0203001N000519999999N9999999N1+00651+00521101461ADDMA1999999094471MD1719999+9999OA149900261REMSYN088AAXX  19074 06637 33/// /3001 10065 20052 39447 40146 57/// 333 55300 20072 91105 91202;
0103066370999992011101908004+46717+008167FM-12+059099999V0203201N001519999999N9999999N1+00841+00601101431ADDMA1999999094491REMSYN076AAXX  19084 06637 33/// /3203 10084 20060 39449 40143 5//// 333 553// 20198;
0140066370999992011101909004+46717+008167FM-12+059099999V0203101N000519999999N9999999N1+00921+00671101411ADDMA1999999094491MD1219999+9999OA149900571REMSYN088AAXX  19094 06637 33/// /3101 10092 20067 39449 40141 52/// 333 55300 20277 91111 91207;
0140066370999992011101910004+46717+008167FM-12+059099999V0202201N001019999999N9999999N1+01161+00681101361ADDMA1999999094501MD1219999+9999OA149900511REMSYN088AAXX  19104 06637 33/// /2202 10116 20068 39450 40136 52/// 333 55300 20439 91110 91202;
0140066370999992011101911004+46717+008167FM-12+059099999V0202901N004619999999N9999999N1+01201+00701101451ADDMA1999999094601MD1210111+9999OA149901291REMSYN088AAXX  19114 06637 33/// /2909 10120 20070 39460 40145 52011 333 55300 20612 91125 91213;
0163066370999992011101912004+46717+008167FM-12+059099999V0202901N003119999999N0100001N1+01101+00781101541ADDAY161061AY221061GF108991999999004501999999MA1999999094661MW1601REMSYN088AAXX  19124 06637 31460 82906 10110 20078 39466 40154 5//// 76062 333 553// 20504 88714;
0109066370999992011101913004+46717+008167FM-12+059099999V0203001N002119999999N9999999N1+00991+00751101601ADDMA1999999094691REMSYN082AAXX  19134 06637 23/// /3004 10099 20075 39469 40160 5//// 333 553// 20194 69945;
0109066370999992011101914004+46717+008167FM-12+059099999V0203201N003119999999N9999999N1+00871+00571101731ADDMA1999999094781REMSYN082AAXX  19144 06637 23/// /3206 10087 20057 39478 40173 5//// 333 553// 20115 60025;
0222066370999992011101915004+46717+008167FM-12+059099999V0202501N00411005101CN0080001N1+00661+00431101971ADDAY161031AY221031GA1081+005101051GF108991999999004501999999MA1999999094951MD1310291+9999MW1631OA149901131REMSYN106AAXX  19154 06637 21458 82508 10066 20043 39495 40197 53029 76362 333 55300 20068 60025 88517 91122 91210;
0146066370999992011101916004+46717+008167FM-12+059099999V0202601N004119999999N9999999N1+00551+00311102131ADDMA1999999095071MD1210381+9999OA149900771REMSYN094AAXX  19164 06637 23/// /2608 10055 20031 39507 40213 52038 333 55300 20025 60035 91115 91208;
0146066370999992011101917004+46717+008167FM-12+059099999V0202701N001019999999N9999999N1+00481+00311102311ADDMA1999999095221MD1210441+9999OA149900621REMSYN094AAXX  19174 06637 23/// /2702 10048 20031 39522 40231 52044 333 55300 20000 60025 91112 91208;
0292066370999992011101918004+46717+008167FM-12+059099999V0203101N00101006301CN0010001N1+00441+00341102371ADDAA112009991AL19900091AY161061AY221061GA1081+006301071GF108991999999008001999999IA1119KA1120M+01391MA1999999095271MD1210321+9999MW1631OA149901131REMSYN136AAXX  19184 06637 01510 83102 10044 20034 39527 40237 52032 60102 76362 333 10139 32/// 55300 20000 69985 88721 90766 93100 91122 91210;
0146066370999992011101919004+46717+008167FM-12+059099999V0202601N000519999999N9999999N1+00411+00351102421ADDMA1999999095311MD1219999+9999OA149900151REMSYN094AAXX  19194 06637 23/// /2601 10041 20035 39531 40242 52/// 333 55300 20000 60015 91103 91202;
0109066370999992011101920004+46717+008167FM-12+059099999V0201301N001019999999N9999999N1+00431+00371102471ADDMA1999999095361REMSYN082AAXX  19204 06637 23/// /1302 10043 20037 39536 40247 5//// 333 553// 20000 60015;
0146066370999992011101921004+46717+008167FM-12+059099999V0202701N000519999999N9999999N1+00401+00291102511ADDMA1999999095391MD1119999+9999OA149900151REMSYN094AAXX  19214 06637 23/// /2701 10040 20029 39539 40251 51/// 333 55300 20000 69975 91103 91202;
0146066370999992011101922004+46717+008167FM-12+059099999V0202501N000519999999N9999999N1+00381+00281102511ADDMA1999999095381MD1210071+9999OA149900151REMSYN094AAXX  19224 06637 23/// /2501 10038 20028 39538 40251 52007 333 55300 20000 69975 91103 91201;
0146066370999992011101923004+46717+008167FM-12+059099999V0201301N000519999999N9999999N1+00391+00311102521ADDMA1999999095391MD1219999+9999OA149900151REMSYN094AAXX  19234 06637 23/// /1301 10039 20031 39539 40252 52/// 333 55300 20000 69935 91103 91201;
0163066370999992011102000004+46717+008167FM-12+059099999V0209999C000019999999N9999999N1+00381+00301102541ADDAA106004191MA1999999095411MD1210021+9999OA149900151REMSYN100AAXX  20004 06637 03/// /0000 10038 20030 39541 40254 52002 60041 333 55300 20000 69945 91103 91202;
0146066370999992011102001004+46717+008167FM-12+059099999V0200801N000519999999N9999999N1+00391+00311102531ADDMA1999999095401MD1219999+9999OA149900151REMSYN094AAXX  20014 06637 23/// /0801 10039 20031 39540 40253 52/// 333 55300 20000 69955 91103 91202;
0109066370999992011102002004+46717+008167FM-12+059099999V0209999C000019999999N9999999N1+00391+00341102531ADDMA1999999095401REMSYN082AAXX  20024 06637 23/// /0000 10039 20034 39540 40253 5//// 333 553// 20000 69915;
0163066370999992011102003004+46717+008167FM-12+059099999V0201401N000519999999N0100001N1+00401+00331102511ADDAY161031AY221031GF108991999999004501999999MA1999999095391MW1101REMSYN088AAXX  20034 06637 31460 81401 10040 20033 39539 40251 5//// 71062 333 553// 20004 88717;
0146066370999992011102004004+46717+008167FM-12+059099999V0203001N000519999999N9999999N1+00401+00371102561ADDMA1999999095431MD1319999+9999OA149900101REMSYN094AAXX  20044 06637 23/// /3001 10040 20037 39543 40256 53/// 333 55300 20007 69915 91102 91201;
0146066370999992011102005004+46717+008167FM-12+059099999V0200801N000519999999N9999999N1+00401+00341102611ADDMA1999999095481MD1210081+9999OA149900151REMSYN094AAXX  20054 06637 23/// /0801 10040 20034 39548 40261 52008 333 55300 20000 69965 91103 91201;
0205066370999992011102006004+46717+008167FM-12+059099999V0209999C000019999999N9999999N1+00391+00321102661ADDAA112006191AL11801691GJ100009IA2999+00409KA1999N+00361MA1999999095521REMSYN124AAXX  20064 06637 03/// /0000 10039 20032 39552 40266 5//// 60062 333 20036 3/004 55000 553// 20000 69945 70163 90768 93100;
0140066370999992011102007004+46717+008167FM-12+059099999V0200601N000519999999N9999999N1+00411+00351102691ADDMA1999999095561MD1319999+9999OA149900151REMSYN088AAXX  20074 06637 33/// /0601 10041 20035 39556 40269 53/// 333 55300 20043 91103 91202;
0109066370999992011102008004+46717+008167FM-12+059099999V0209999C000019999999N9999999N1+00481+00341102721ADDMA1999999095601REMSYN082AAXX  20084 06637 23/// /0000 10048 20034 39560 40272 5//// 333 553// 20400 69915;
0140066370999992011102009004+46717+008167FM-12+059099999V0209999C000019999999N9999999N1+00591+00381102671ADDMA1999999095581MD1219999+9999OA149900151REMSYN088AAXX  20094 06637 33/// /0000 10059 20038 39558 40267 52/// 333 55300 20709 91103 91202;
0140066370999992011102010004+46717+008167FM-12+059099999V0202601N001519999999N9999999N1+00741+00301102631ADDMA1999999095581MD1019999+9999OA149900411REMSYN088AAXX  20104 06637 33/// /2603 10074 20030 39558 40263 50/// 333 55306 21454 91108 91203;
0140066370999992011102011004+46717+008167FM-12+059099999V0202601N004119999999N9999999N1+00871+00331102561ADDMA1999999095551MD1819999+9999OA149900721REMSYN088AAXX  20114 06637 33/// /2608 10087 20033 39555 40256 58/// 333 55310 22160 91114 91208;
0205066370999992011102012004+46717+008167FM-12+059099999V0202801N004119999999N0070001N1+00891+00101102521ADDAA106000091AY121061AY221061GF107991999999008001999999MA1999999095521MW1101REMSYN100AAXX  20124 06637 01557 72808 10089 20010 39552 40252 5//// 69911 71022 333 553// 22614 60005 87621;EQDQ01  00002PRCP06
0103066370999992011102013004+46717+008167FM-12+059099999V0202701N004119999999N9999999N1+00801+00141102531ADDMA1999999095511REMSYN076AAXX  20134 06637 33/// /2708 10080 20014 39551 40253 5//// 333 553// 21933;
0103066370999992011102014004+46717+008167FM-12+059099999V0202501N004619999999N9999999N1+00671+00111102561ADDMA1999999095501REMSYN076AAXX  20144 06637 33/// /2509 10067 20011 39550 40256 5//// 333 553// 20824;
0163066370999992011102015004+46717+008167FM-12+059099999V0203001N004619999999N0070001N1+00731+00101102561ADDAY161031AY221031GF106991999999008001999999MA1999999095521MW1251REMSYN088AAXX  20154 06637 31557 63009 10073 20010 39552 40256 5//// 72562 333 553// 20263 86631;
0140066370999992011102016004+46717+008167FM-12+059099999V0202901N002619999999N9999999N1+00681+00031102601ADDMA1999999095541MD1219999+9999OA149900981REMSYN088AAXX  20164 06637 33/// /2905 10068 20003 39554 40260 52/// 333 55300 20306 91119 91209;
0140066370999992011102017004+46717+008167FM-12+059099999V0202501N001519999999N9999999N1+00541+00031102701ADDMA1999999095601MD1310101+9999OA149900721REMSYN088AAXX  20174 06637 33/// /2503 10054 20003 39560 40270 53010 333 55300 20025 91114 91206;
0157066370999992011102018004+46717+008167FM-12+059099999V0201001N001019999999N9999999N1+00321+00111102831ADDAA112000021KA1120M+00901MA1999999095661REMSYN106AAXX  20184 06637 03/// /1002 10032 20011 39566 40283 5//// 69912 333 10090 553// 20000 60005 90766 93100;
0103066370999992011102019004+46717+008167FM-12+059099999V0201801N000519999999N9999999N1+00271+00101102841ADDMA1999999095661REMSYN076AAXX  20194 06637 33/// /1801 10027 20010 39566 40284 5//// 333 553// 20004;
0103066370999992011102020004+46717+008167FM-12+059099999V0201101N001019999999N9999999N1+00251+00091102871ADDMA1999999095681REMSYN076AAXX  20204 06637 33/// /1102 10025 20009 39568 40287 5//// 333 553// 20004;
0163066370999992011102021004+46717+008167FM-12+059099999V0201301N001012200019N0100001N1+00151+00011102921ADDAY101031AY201031GF102991999999022501999999MA1999999095701MW1101REMSYN088AAXX  20214 06637 31860 21302 10015 20001 39570 40292 5//// 71000 333 553// 20004 82658;
0140066370999992011102022004+46717+008167FM-12+059099999V0201401N001019999999N9999999N1+00151+00031102901ADDMA1999999095691MD1019999+9999OA149900461REMSYN088AAXX  20224 06637 33/// /1402 10015 20003 39569 40290 50/// 333 55300 20004 91109 91207;
0103066370999992011102023004+46717+008167FM-12+059099999V0201101N001019999999N9999999N1+00151+00001102871ADDMA1999999095661REMSYN076AAXX  20234 06637 33/// /1102 10015 20000 39566 40287 5//// 333 553// 20004;
0163066370999992011102100004+46717+008167FM-12+059099999V0201601N000512200019N0080001N1+00091-00011102891ADDAY101061AY201061GF102991999999999999999999MA1999999095661MW1101REMSYN088AAXX  21004 06637 31958 21601 10009 21001 39566 40289 5//// 71000 333 553// 20004 82068;
0103066370999992011102101004+46717+008167FM-12+059099999V0201601N001019999999N9999999N1+00121-00021102871ADDMA1999999095651REMSYN076AAXX  21014 06637 33/// /1602 10012 21002 39565 40287 5//// 333 553// 20004;
0103066370999992011102102004+46717+008167FM-12+059099999V0200901N000519999999N9999999N1+00151-00051102841ADDMA1999999095631REMSYN076AAXX  21024 06637 33/// /0901 10015 21005 39563 40284 5//// 333 553// 20004;
0173066370999992011102103004+46717+008167FM-12+059099999V0201401N000512200019N0080001N1+00051-00121102811ADDAY101031AY201031GA1001+999999999GF100991001001999999001001MA1999999095581MW1051REMSYN082AAXX  21034 06637 31/58 01401 10005 21012 39558 40281 5//// 70500 333 553// 20004;
0103066370999992011102104004+46717+008167FM-12+059099999V0201701N000519999999N9999999N1-00111-00171102851ADDMA1999999095571REMSYN076AAXX  21044 06637 33/// /1701 11011 21017 39557 40285 5//// 333 553// 20004;
0140066370999992011102105004+46717+008167FM-12+059099999V0201501N000519999999N9999999N1-00171-00251102891ADDMA1999999095591MD1510041+9999OA149900151REMSYN088AAXX  21054 06637 33/// /1501 11017 21025 39559 40289 55004 333 55300 20004 91103 91201;
0295066370999992011102106004+46717+008167FM-12+059099999V0201301N000512200019N0100001N1-00101-00211102891ADDAL19900091AY101061AY201061GA1001+999999999GF100991001001999999001001GJ102289IA1099IA2999-00409KA1999N-00171MA1999999095611MD1219999+9999MW1101OA149900361REMSYN130AAXX  21064 06637 31/60 01301 11010 21021 39561 40289 52/// 71000 333 21017 31104 55038 55300 20011 70002 90768 93100 91107 91204;
0103066370999992011102107004+46717+008167FM-12+059099999V0201101N001019999999N9999999N1-00021-00231102921ADDMA1999999095661REMSYN076AAXX  21074 06637 33/// /1102 11002 21023 39566 40292 5//// 333 553// 20079;
0103066370999992011102108004+46717+008167FM-12+059099999V0201201N001519999999N9999999N1+00201-00141102861ADDMA1999999095661REMSYN076AAXX  21084 06637 33/// /1203 10020 21014 39566 40286 5//// 333 553// 20702;
0163066370999992011102109004+46717+008167FM-12+059099999V0201201N002112200019N0080001N1+00481-00201102751ADDAY101031AY201031GF102991999999012501999999MA1999999095631MW1051REMSYN088AAXX  21094 06637 31658 21204 10048 21020 39563 40275 5//// 70500 333 553// 21379 82641;
0140066370999992011102110004+46717+008167FM-12+059099999V0201601N001519999999N9999999N1+00641-00011102671ADDMA1999999095601MD1819999+9999OA149900311REMSYN088AAXX  21104 06637 33/// /1603 10064 21001 39560 40267 58/// 333 55310 21789 91106 91204;
0140066370999992011102111004+46717+008167FM-12+059099999V0202001N001019999999N9999999N1+00761+00021102591ADDMA1999999095551MD1819999+9999OA149900311REMSYN088AAXX  21114 06637 33/// /2002 10076 20002 39555 40259 58/// 333 55310 22020 91106 91203;
0163066370999992011102112004+46717+008167FM-12+059099999V0202301N002612200019N0080001N1+00791-00031102501ADDAY101061AY201061GF101991999999008001999999MA1999999095481MW1051REMSYN088AAXX  21124 06637 31558 12305 10079 21003 39548 40250 5//// 70500 333 553// 22038 81631;
0103066370999992011102113004+46717+008167FM-12+059099999V0202301N003619999999N9999999N1+00771+00021102491ADDMA1999999095461REMSYN076AAXX  21134 06637 33/// /2307 10077 20002 39546 40249 5//// 333 553// 21868;
0103066370999992011102114004+46717+008167FM-12+059099999V0202401N003119999999N9999999N1+00641+00061102521ADDMA1999999095461REMSYN076AAXX  21144 06637 33/// /2406 10064 20006 39546 40252 5//// 333 553// 20605;
0103066370999992011102115004+46717+008167FM-12+059099999V0201701N000519999999N9999999N1+00631+00021102541ADDMA1999999095471REMSYN076AAXX  21154 06637 33/// /1701 10063 20002 39547 40254 5//// 333 553// 20169;
0103066370999992011102116004+46717+008167FM-12+059099999V0201401N001019999999N9999999N1+00451+00071102581ADDMA1999999095461REMSYN076AAXX  21164 06637 33/// /1402 10045 20007 39546 40258 5//// 333 553// 20101;
0140066370999992011102117004+46717+008167FM-12+059099999V0201201N001519999999N9999999N1+00331+00031102651ADDMA1999999095501MD1319999+9999OA149900211REMSYN088AAXX  21174 06637 33/// /1203 10033 20003 39550 40265 53/// 333 55300 20022 91104 91203;
0134066370999992011102118004+46717+008167FM-12+059099999V0201201N001519999999N9999999N1+00261+00031102701ADDKA1120M+00841MA1999999095531REMSYN094AAXX  21184 06637 33/// /1203 10026 20003 39553 40270 5//// 333 10084 553// 20004 90766 93100;
0140066370999992011102119004+46717+008167FM-12+059099999V0201301N001519999999N9999999N1+00251-00011102671ADDMA1999999095501MD1019999+9999OA149900211REMSYN088AAXX  21194 06637 33/// /1303 10025 21001 39550 40267 50/// 333 55300 20004 91104 91203;
0103066370999992011102120004+46717+008167FM-12+059099999V0201401N000519999999N9999999N1+00121-00051102691ADDMA1999999095481REMSYN076AAXX  21204 06637 33/// /1401 10012 21005 39548 40269 5//// 333 553// 20004;
0173066370999992011102121004+46717+008167FM-12+059099999V0201201N000512200019N0120001N1+00091-00041102701ADDAY101031AY201031GA1001+999999999GF100991001001999999001001MA1999999095481MW1101REMSYN082AAXX  21214 06637 31/62 01201 10009 21004 39548 40270 5//// 71000 333 553// 20004;
0103066370999992011102122004+46717+008167FM-12+059099999V0201401N001019999999N9999999N1-00091-00191102751ADDMA1999999095481REMSYN076AAXX  21224 06637 33/// /1402 11009 21019 39548 40275 5//// 333 553// 20004;
0103066370999992011102123004+46717+008167FM-12+059099999V0201201N000519999999N9999999N1+00041-00101102671ADDMA1999999095441REMSYN076AAXX  21234 06637 33/// /1201 10004 21010 39544 40267 5//// 333 553// 20004;
0163066370999992011102200004+46717+008167FM-12+059099999V0209999C000012200019N0080001N1-00131-00181102671ADDAY101061AY201061GF102991999999999999999999MA1999999095401MW1101REMSYN088AAXX  22004 06637 31958 20000 11013 21018 39540 40267 5//// 71000 333 553// 20004 82361;
0103066370999992011102201004+46717+008167FM-12+059099999V0201401N001019999999N9999999N1-00141-00221102681ADDMA1999999095411REMSYN076AAXX  22014 06637 33/// /1402 11014 21022 39541 40268 5//// 333 553// 20004;
0103066370999992011102202004+46717+008167FM-12+059099999V0201201N000519999999N9999999N1-00181-00231102701ADDMA1999999095411REMSYN076AAXX  22024 06637 33/// /1201 11018 21023 39541 40270 5//// 333 553// 20004;
0145066370999992011102203004+46717+008167FM-12+059099999V0201101N000512200019N0160001N1-00181-00251102711ADDGA1001+999999999GF100991001001999999001001MA1999999095421REMSYN076AAXX  22034 06637 32/66 01101 11018 21025 39542 40271 5//// 333 553// 20004;
0103066370999992011102204004+46717+008167FM-12+059099999V0201101N000519999999N9999999N1-00201-00261102701ADDMA1999999095411REMSYN076AAXX  22044 06637 33/// /1101 11020 21026 39541 40270 5//// 333 553// 20004;
0140066370999992011102205004+46717+008167FM-12+059099999V0201301N001019999999N9999999N1-00231-00281102701ADDMA1999999095401MD1719999+9999OA149900151REMSYN088AAXX  22054 06637 33/// /1302 11023 21028 39540 40270 57/// 333 55300 20004 91103 91202;
0182066370999992011102206004+46717+008167FM-12+059099999V0200901N000519999999N9999999N1-00331-00371102761ADDAL19900091GJ103729IA2999-00609KA1999N-00301MA1999999095431REMSYN112AAXX  22064 06637 33/// /0901 11033 21037 39543 40276 5//// 333 21030 3/106 55062 553// 20007 70000 90768 93100;
0103066370999992011102207004+46717+008167FM-12+059099999V0209999C000019999999N9999999N1-00241-00291102751ADDMA1999999095441REMSYN076AAXX  22074 06637 33/// /0000 11024 21029 39544 40275 5//// 333 553// 20076;
0103066370999992011102208004+46717+008167FM-12+059099999V0209999C000019999999N9999999N1+00101-00171102641ADDMA1999999095431REMSYN076AAXX  22084 06637 33/// /0000 10010 21017 39543 40264 5//// 333 553// 20752;
0087066370999992011102209004+46717+008167FM-12+059099999V0202401N000519999999N9999999N1+00391-00061102531ADDMA1999999095401REMSYN060AAXX  22094 06637 43/// /2401 10039 21006 39540 40253 5////;
0103066370999992011102210004+46717+008167FM-12+059099999V0202101N001019999999N9999999N1+00561-00201102441ADDMA1999999095361REMSYN076AAXX  22104 06637 33/// /2102 10056 21020 39536 40244 5//// 333 553// 21778;
0103066370999992011102211004+46717+008167FM-12+059099999V0202701N001519999999N9999999N1+00761-00211102321ADDMA1999999095301REMSYN076AAXX  22114 06637 33/// /2703 10076 21021 39530 40232 5//// 333 553// 22009;
0103066370999992011102212004+46717+008167FM-12+059099999V0202501N001019999999N9999999N1+00861+00021102241ADDMA1999999095251REMSYN076AAXX  22124 06637 33/// /2502 10086 20002 39525 40224 5//// 333 553// 22016;
0103066370999992011102213004+46717+008167FM-12+059099999V0202201N001019999999N9999999N1+00801-00111102201ADDMA1999999095201REMSYN076AAXX  22134 06637 33/// /2202 10080 21011 39520 40220 5//// 333 553// 21832;
0103066370999992011102214004+46717+008167FM-12+059099999V0201701N000519999999N9999999N1+00541+00031102231ADDMA1999999095161REMSYN076AAXX  22144 06637 33/// /1701 10054 20003 39516 40223 5//// 333 553// 20536;
0173066370999992011102215004+46717+008167FM-12+059099999V0201401N001512200019N0140001N1+00611+00031102201ADDAY101031AY201031GA1001+999999999GF100991001001999999001001MA1999999095151MW1051REMSYN082AAXX  22154 06637 31/64 01403 10061 20003 39515 40220 5//// 70500 333 553// 20155;
0103066370999992011102216004+46717+008167FM-12+059099999V0201301N001019999999N9999999N1+00571-00011102201ADDMA1999999095141REMSYN076AAXX  22164 06637 33/// /1302 10057 21001 39514 40220 5//// 333 553// 20097;
0140066370999992011102217004+46717+008167FM-12+059099999V0201401N001019999999N9999999N1+00511-00011102241ADDMA1999999095161MD1319999+9999OA149900211REMSYN088AAXX  22174 06637 33/// /1402 10051 21001 39516 40224 53/// 333 55300 20022 91104 91202;
0188066370999992011102218004+46717+008167FM-12+059099999V0201401N001012200019N0300001N1+00351-00021102291ADDGA1001+999999999GF100991001001999999001001IA1099KA1120M+00861MA1999999095171REMSYN100AAXX  22184 06637 32/80 01402 10035 21002 39517 40229 5//// 333 10086 31/// 553// 20004 90766 93100;
0103066370999992011102219004+46717+008167FM-12+059099999V0201301N000519999999N9999999N1+00261-00021102291ADDMA1999999095151REMSYN076AAXX  22194 06637 33/// /1301 10026 21002 39515 40229 5//// 333 553// 20004;
0103066370999992011102220004+46717+008167FM-12+059099999V0209999C000019999999N9999999N1+00151-00021102381ADDMA1999999095201REMSYN076AAXX  22204 06637 33/// /0000 10015 21002 39520 40238 5//// 333 553// 20004;
0182066370999992011102221004+46717+008167FM-12+059099999V0201601N000512200019N0300001N1-00011-00111102491ADDGA1001+999999999GF100991001001999999001001MA1999999095261MD1219999+9999OA149900211REMSYN088AAXX  22214 06637 32/80 01601 11001 21011 39526 40249 52/// 333 55300 20004 91104 91202;
0103066370999992011102222004+46717+008167FM-12+059099999V0201101N000519999999N9999999N1-00011-00121102471ADDMA1999999095241REMSYN076AAXX  22224 06637 33/// /1101 11001 21012 39524 40247 5//// 333 553// 20004;
0103066370999992011102223004+46717+008167FM-12+059099999V0209999C000019999999N9999999N1+00031-00111102441ADDMA1999999095231REMSYN076AAXX  22234 06637 33/// /0000 10003 21011 39523 40244 5//// 333 553// 20004;
0145066370999992011102300004+46717+008167FM-12+059099999V0201401N001012200019N0250001N1-00041-00151102451ADDGA1001+999999999GF100991001001999999001001MA1999999095221REMSYN076AAXX  23004 06637 32/75 01402 11004 21015 39522 40245 5//// 333 553// 20004;
0103066370999992011102301004+46717+008167FM-12+059099999V0201101N000519999999N9999999N1-00141-00241102471ADDMA1999999095211REMSYN076AAXX  23014 06637 33/// /1101 11014 21024 39521 40247 5//// 333 553// 20004;
0087066370999992011102302004+46717+008167FM-12+059099999V0201101N000519999999N9999999N1-00101-00171102451ADDMA1999999095201REMSYN060AAXX  23024 06637 43/// /1101 11010 21017 39520 40245 5////;
0129066370999992011102303004+46717+008167FM-12+059099999V0201101N000512200019N0200001N1-00191-00221102441ADDGA1001+999999999GF100991001001999999001001MA1999999095171REMSYN060AAXX  23034 06637 42/70 01101 11019 21022 39517 40244 5////;
0103066370999992011102304004+46717+008167FM-12+059099999V0209999C000019999999N9999999N1-00201-00241102441ADDMA1999999095171REMSYN076AAXX  23044 06637 33/// /0000 11020 21024 39517 40244 5//// 333 553// 20004;
0140066370999992011102305004+46717+008167FM-12+059099999V0201101N000519999999N9999999N1-00271-00291102431ADDMA1999999095141MD1810061+9999OA149900101REMSYN088AAXX  23054 06637 33/// /1101 11027 21029 39514 40243 58006 333 55300 20004 91102 91201;
0219066370999992011102306004+46717+008167FM-12+059099999V0202901N000519999999N9999999N1-00341-00351102411ADDAL19900091GJ103669IA2999-00609KA1999N-00321MA1999999095101MD1819999+9999OA149900151REMSYN124AAXX  23064 06637 33/// /2901 11034 21035 39510 40241 58/// 333 21032 3/106 55061 55300 20007 70000 90768 93100 91103 91202;
0140066370999992011102307004+46717+008167FM-12+059099999V0201201N000519999999N9999999N1-00231-00261102381ADDMA1999999095101MD1710071+9999OA149900101REMSYN088AAXX  23074 06637 33/// /1201 11023 21026 39510 40238 57007 333 55300 20072 91102 91201;
0103066370999992011102308004+46717+008167FM-12+059099999V0209999C000019999999N9999999N1+00161-00061102221ADDMA1999999095061REMSYN076AAXX  23084 06637 33/// /0000 10016 21006 39506 40222 5//// 333 553// 20727;
0182066370999992011102309004+46717+008167FM-12+059099999V0209999C000012200019N0180001N1+00491-00021102101ADDGA1001+999999999GF100991001001999999001001MA1999999095031MD1719999+9999OA149900101REMSYN088AAXX  23094 06637 32/68 00000 10049 21002 39503 40210 57/// 333 55310 21339 91102 91201;
0103066370999992011102310004+46717+008167FM-12+059099999V0202201N001519999999N9999999N1+00761-00021101931ADDMA1999999094941REMSYN076AAXX  23104 06637 33/// /2203 10076 21002 39494 40193 5//// 333 553// 21739;
0103066370999992011102311004+46717+008167FM-12+059099999V0202301N001519999999N9999999N1+00931-00121101771ADDMA1999999094831REMSYN076AAXX  23114 06637 33/// /2303 10093 21012 39483 40177 5//// 333 553// 21973;
0103066370999992011102312004+46717+008167FM-12+059099999V0202301N001019999999N9999999N1+00981+00071101651ADDMA1999999094731REMSYN076AAXX  23124 06637 33/// /2302 10098 20007 39473 40165 5//// 333 553// 21994;
0140066370999992011102313004+46717+008167FM-12+059099999V0202501N000519999999N9999999N1+00961+00061101581ADDMA1999999094661MD1719999+9999OA149900211REMSYN088AAXX  23134 06637 33/// /2501 10096 20006 39466 40158 57/// 333 55310 21822 91104 91203;
0103066370999992011102314004+46717+008167FM-12+059099999V0203001N001519999999N9999999N1+00881-00061101591ADDMA1999999094651REMSYN076AAXX  23144 06637 33/// /3003 10088 21006 39465 40159 5//// 333 553// 20479;
0210066370999992011102315004+46717+008167FM-12+059099999V0202101N000512200019N0140001N1+00591+00181101621ADDAY101031AY201031GA1001+999999999GF100991001001999999001001MA1999999094611MD1619999+9999MW1051OA149900511REMSYN094AAXX  23154 06637 31/64 02101 10059 20018 39461 40162 56/// 70500 333 55300 20144 91110 91205;
0140066370999992011102316004+46717+008167FM-12+059099999V0201301N002119999999N9999999N1+00591+00151101631ADDMA1999999094621MD1710041+9999OA149900261REMSYN088AAXX  23164 06637 33/// /1304 10059 20015 39462 40163 57004 333 55300 20090 91105 91204;
0140066370999992011102317004+46717+008167FM-12+059099999V0201301N002119999999N9999999N1+00461+00121101691ADDMA1999999094641MD1510011+9999OA149900261REMSYN088AAXX  23174 06637 33/// /1304 10046 20012 39464 40169 55001 333 55300 20018 91105 91204;
0235066370999992011102318004+46717+008167FM-12+059099999V0201201N001012200019N0300001N1+00301+00071101751ADDAL19900091GA1001+999999999GF100991001001999999001001IA1099KA1120M+01031MA1999999094651MD1219999+9999OA149900511REMSYN112AAXX  23184 06637 32/80 01202 10030 20007 39465 40175 52/// 333 10103 31/// 55300 20004 90766 93100 91110 91205;
0140066370999992011102319004+46717+008167FM-12+059099999V0201201N000519999999N9999999N1+00261+00071101731ADDMA1999999094631MD1019999+9999OA149900151REMSYN088AAXX  23194 06637 33/// /1201 10026 20007 39463 40173 50/// 333 55300 20004 91103 91202;
0103066370999992011102320004+46717+008167FM-12+059099999V0201201N000519999999N9999999N1+00211+00051101741ADDMA1999999094621REMSYN076AAXX  23204 06637 33/// /1201 10021 20005 39462 40174 5//// 333 553// 20004;
0173066370999992011102321004+46717+008167FM-12+059099999V0201401N000512200019N0120001N1+00051-00031101771ADDAY101031AY201031GA1001+999999999GF100991001001999999001001MA1999999094611MW1101REMSYN082AAXX  23214 06637 31/62 01401 10005 21003 39461 40177 5//// 71000 333 553// 20004;
0103066370999992011102322004+46717+008167FM-12+059099999V0201001N000519999999N9999999N1+00011-00061101741ADDMA1999999094571REMSYN076AAXX  23224 06637 33/// /1001 10001 21006 39457 40174 5//// 333 553// 20004;
0103066370999992011102323004+46717+008167FM-12+059099999V0201201N001019999999N9999999N1-00011-00061101711ADDMA1999999094541REMSYN076AAXX  23234 06637 33/// /1202 11001 21006 39454 40171 5//// 333 553// 20004;
0103066370999992011102400004+46717+008167FM-12+059099999V0201201N001019999999N9999999N1-00141-00191101651ADDMA1999999094451REMSYN076AAXX  24004 06637 33/// /1202 11014 21019 39445 40165 5//// 333 553// 20004;
0103066370999992011102401004+46717+008167FM-12+059099999V0200901N001019999999N9999999N1-00211-00231101661ADDMA1999999094441REMSYN076AAXX  24014 06637 33/// /0902 11021 21023 39444 40166 5//// 333 553// 20004;
0103066370999992011102402004+46717+008167FM-12+059099999V0200901N000519999999N9999999N1-00151-00191101581ADDMA1999999094381REMSYN076AAXX  24024 06637 33/// /0901 11015 21019 39438 40158 5//// 333 553// 20004;
0103066370999992011102403004+46717+008167FM-12+059099999V0201001N000519999999N9999999N1-00051-00121101471ADDMA1999999094301REMSYN076AAXX  24034 06637 33/// /1001 11005 21012 39430 40147 5//// 333 553// 20004;
0103066370999992011102404004+46717+008167FM-12+059099999V0201101N001019999999N9999999N1-00121-00181101471ADDMA1999999094291REMSYN076AAXX  24044 06637 33/// /1102 11012 21018 39429 40147 5//// 333 553// 20004;
0140066370999992011102405004+46717+008167FM-12+059099999V0201401N000519999999N9999999N1-00111-00161101441ADDMA1999999094261MD1719999+9999OA149900151REMSYN088AAXX  24054 06637 33/// /1401 11011 21016 39426 40144 57/// 333 55300 20004 91103 91202;
0295066370999992011102406004+46717+008167FM-12+059099999V0201201N000512200019N0080001N1-00181-00231101451ADDAL19900091AY101061AY201061GA1001+999999999GF100991001001999999001001GJ103669IA1149IA2999-00609KA1999N-00401MA1999999094251MD1719999+9999MW1101OA149900151REMSYN130AAXX  24064 06637 31/58 01201 11018 21023 39425 40145 57/// 71000 333 21040 34106 55061 55300 20007 70000 90768 93100 91103 91203;
0103066370999992011102407004+46717+008167FM-12+059099999V0209999C000019999999N9999999N1-00211-00241101421ADDMA1999999094221REMSYN076AAXX  24074 06637 33/// /0000 11021 21024 39422 40142 5//// 333 553// 20068;
0103066370999992011102408004+46717+008167FM-12+059099999V0209999C000019999999N9999999N1+00171+00011101291ADDMA1999999094191REMSYN076AAXX  24084 06637 33/// /0000 10017 20001 39419 40129 5//// 333 553// 20695;
0173066370999992011102409004+46717+008167FM-12+059099999V0202401N001012200019N0120001N1+00641+00231101011ADDAY101031AY201031GA1001+999999999GF100991001001999999001001MA1999999094051MW1101REMSYN082AAXX  24094 06637 31/62 02402 10064 20023 39405 40101 5//// 71000 333 553// 21314;
0103066370999992011102410004+46717+008167FM-12+059099999V0201201N008719999999N9999999N1+01431-00702100711ADDMA1999999093961REMSYN076AAXX  24104 06637 33/// /1217 10143 21070 39396 40071 5//// 333 553// 21732;
0103066370999992011102411004+46717+008167FM-12+059099999V0201101N010819999999N9999999N1+01491-00601100591ADDMA1999999093861REMSYN076AAXX  24114 06637 33/// /1121 10149 21060 39386 40059 5//// 333 553// 21969;
0135066370999992011102412004+46717+008167FM-12+059099999V0201201N011812200019N0230001N1+01561-00691100451ADDGF101991999999017501999999MA1999999093751REMSYN082AAXX  24124 06637 32773 11223 10156 21069 39375 40045 5//// 333 553// 21998 81656;
0103066370999992011102413004+46717+008167FM-12+059099999V0201201N010819999999N9999999N1+01541-00571100391ADDMA1999999093691REMSYN076AAXX  24134 06637 33/// /1221 10154 21057 39369 40039 5//// 333 553// 21818;
0103066370999992011102414004+46717+008167FM-12+059099999V0201101N010319999999N9999999N1+01471-00391100381ADDMA1999999093661REMSYN076AAXX  24144 06637 33/// /1120 10147 21039 39366 40038 5//// 333 553// 20479;
0188066370999992011102415004+46717+008167FM-12+059099999V0201201N011312200019N0220001N1+01471-00291100371ADDGA1031+018001031GF103991999999017501999999MA1999999093651MD1619999+9999OA149902161REMSYN094AAXX  24154 06637 32772 31222 10147 21029 39365 40037 56/// 333 55300 20288 83356 91142 91224;
0140066370999992011102416004+46717+008167FM-12+059099999V0201101N011819999999N9999999N1+01401-00311100381ADDMA1999999093651MD1719999+9999OA149902261REMSYN088AAXX  24164 06637 33/// /1123 10140 21031 39365 40038 57/// 333 55300 20202 91144 91225;
0140066370999992011102417004+46717+008167FM-12+059099999V0201101N012919999999N9999999N1+01421-00311100401ADDMA1999999093671MD1219999+9999OA149902321REMSYN088AAXX  24174 06637 33/// /1125 10142 21031 39367 40040 52/// 333 55300 20014 91145 91225;
0222066370999992011102418004+46717+008167FM-12+059099999V0201101N01181012301CN0100001N1+01431-00241100411ADDAY111061AY211061GA1071+012301071GF107991999999012501999999IA1099KA1120M+01561MA1999999093681MW1051REMSYN112AAXX  24184 06637 31660 71123 10143 21024 39368 40041 5//// 70511 333 10156 31/// 553// 20004 87741 90766 93100;
0103066370999992011102419004+46717+008167FM-12+059099999V0201201N011319999999N9999999N1+01451-00221100431ADDMA1999999093711REMSYN076AAXX  24194 06637 33/// /1222 10145 21022 39371 40043 5//// 333 553// 20004;
0103066370999992011102420004+46717+008167FM-12+059099999V0201201N009819999999N9999999N1+01501-00161100481ADDMA1999999093761REMSYN076AAXX  24204 06637 33/// /1219 10150 21016 39376 40048 5//// 333 553// 20004;
0163066370999992011102421004+46717+008167FM-12+059099999V0201101N012919999999N0100001N1+01451-00151100481ADDAY121031AY221031GF106991999999012501999999MA1999999093751MW1101REMSYN088AAXX  24214 06637 31660 61125 10145 21015 39375 40048 5//// 71022 333 553// 20004 86741;
0140066370999992011102422004+46717+008167FM-12+059099999V0201101N012919999999N9999999N1+01541-00181100371ADDMA1999999093671MD1819999+9999OA149902371REMSYN088AAXX  24224 06637 33/// /1125 10154 21018 39367 40037 58/// 333 55300 20007 91146 91227;
0140066370999992011102423004+46717+008167FM-12+059099999V0201201N011819999999N9999999N1+01541-00181100371ADDMA1999999093671MD1719999+9999OA149902571REMSYN088AAXX  24234 06637 33/// /1223 10154 21018 39367 40037 57/// 333 55300 20004 91150 91225;
0216066370999992011102500004+46717+008167FM-12+059099999V0201101N01341009301CN0080001N1+01631-00161100261ADDAY121061AY221061GA1081+009301071GF108991999999008001999999MA1999999093591MD1719999+9999MW1051OA149902731REMSYN100AAXX  25004 06637 31558 81126 10163 21016 39359 40026 57/// 70522 333 55300 20004 88731 91153 91228;
0140066370999992011102501004+46717+008167FM-12+059099999V0201101N012919999999N9999999N1+01661-00101100181ADDMA1999999093521MD1719999+9999OA149902421REMSYN088AAXX  25014 06637 33/// /1125 10166 21010 39352 40018 57/// 333 55300 20004 91147 91226;
0103066370999992011102502004+46717+008167FM-12+059099999V0201201N011319999999N9999999N1+01631-00131100161ADDMA1999999093501REMSYN076AAXX  25024 06637 33/// /1222 10163 21013 39350 40016 5//// 333 553// 20004;
0103066370999992011102503004+46717+008167FM-12+059099999V0201201N013419999999N9999999N1+01561-00071100121ADDMA1999999093441REMSYN076AAXX  25034 06637 33/// /1226 10156 21007 39344 40012 5//// 333 553// 20004;
0103066370999992011102504004+46717+008167FM-12+059099999V0201201N013419999999N9999999N1+01581+00011100051ADDMA1999999093381REMSYN076AAXX  25044 06637 33/// /1226 10158 20001 39338 40005 5//// 333 553// 20004;
0140066370999992011102505004+46717+008167FM-12+059099999V0201201N013419999999N9999999N1+01601+00021099981ADDMA1999999093321MD1819999+9999OA149902571REMSYN088AAXX  25054 06637 33/// /1226 10160 20002 39332 49998 58/// 333 55300 20004 91150 91228;
0295066370999992011102506004+46717+008167FM-12+059099999V0201301N01391018001CN0100001N1+01601-00041099951ADDAL19900091AY111061AY211061GA1061+018001061GF106991999999017501999999GJ103609IA1019IA2999+01309KA1999N+01411MA1999999093291MD1719999+9999MW1051OA149903041REMSYN130AAXX  25064 06637 31760 61327 10160 21004 39329 49995 57/// 70511 333 20141 30013 55060 55300 20004 86656 90768 93100 91159 91231;
0103066370999992011102507004+46717+008167FM-12+059099999V0201401N011819999999N9999999N1+01561+00011100111ADDMA1999999093431REMSYN076AAXX  25074 06637 33/// /1423 10156 20001 39343 40011 5//// 333 553// 20068;
0103066370999992011102508004+46717+008167FM-12+059099999V0201301N009819999999N9999999N1+01521+00161100111ADDMA1999999093421REMSYN076AAXX  25084 06637 33/// /1319 10152 20016 39342 40011 5//// 333 553// 20544;
0103066370999992011102509004+46717+008167FM-12+059099999V0203501N004119999999N9999999N1+01011+00451100351ADDMA1999999093531REMSYN076AAXX  25094 06637 33/// /3508 10101 20045 39353 40035 5//// 333 553// 20436;
0103066370999992011102510004+46717+008167FM-12+059099999V0201201N010319999999N9999999N1+01621+00111100161ADDMA1999999093491REMSYN076AAXX  25104 06637 33/// /1220 10162 20011 39349 40016 5//// 333 553// 20781;
0103066370999992011102511004+46717+008167FM-12+059099999V0201201N012319999999N9999999N1+01641+00151100161ADDMA1999999093501REMSYN076AAXX  25114 06637 33/// /1224 10164 20015 39350 40016 5//// 333 553// 20878;
0135066370999992011102512004+46717+008167FM-12+059099999V0201201N013919999999N0200001N1+01691+00141100011ADDGF108991999999017501999999MA1999999093371REMSYN082AAXX  25124 06637 32770 81227 10169 20014 39337 40001 5//// 333 553// 20968 87656;
0103066370999992011102513004+46717+008167FM-12+059099999V0201201N012919999999N9999999N1+01731+00081099991ADDMA1999999093361REMSYN076AAXX  25134 06637 33/// /1225 10173 20008 39336 49999 5//// 333 553// 20734;
0103066370999992011102514004+46717+008167FM-12+059099999V0201101N014919999999N9999999N1+01641+00121099991ADDMA1999999093341REMSYN076AAXX  25144 06637 33/// /1129 10164 20012 39334 49999 5//// 333 553// 20529;
0157066370999992011102515004+46717+008167FM-12+059099999V0201101N011819999999N0180001N1+01581+00151100171ADDGA1021+018001061GF108991999999017501999999MA1999999093491REMSYN088AAXX  25154 06637 32768 81123 10158 20015 39349 40017 5//// 333 553// 20191 82656 88461;
0140066370999992011102516004+46717+008167FM-12+059099999V0201101N012919999999N9999999N1+01521+00171100211ADDMA1999999093521MD1219999+9999OA149902421REMSYN088AAXX  25164 06637 33/// /1125 10152 20017 39352 40021 52/// 333 55300 20108 91147 91226;
0140066370999992011102517004+46717+008167FM-12+059099999V0201201N010319999999N9999999N1+01581+00101100251ADDMA1999999093571MD1219999+9999OA149902111REMSYN088AAXX  25174 06637 33/// /1220 10158 20010 39357 40025 52/// 333 55300 20022 91141 91224;
0216066370999992011102518004+46717+008167FM-12+059099999V0203601N005112200019N0090001N1+01041+00601100521ADDAY111061AY211061GA1001+999999999GF100991001001999999001001IA1099KA1120M+01731MA1999999093691MW1101REMSYN106AAXX  25184 06637 31/59 03610 10104 20060 39369 40052 5//// 71011 333 10173 31/// 553// 20000 90766 93100;
0087066370999992011102519004+46717+008167FM-12+059099999V0203501N004619999999N9999999N1+00981+00611100621ADDMA1999999093771REMSYN060AAXX  25194 06637 43/// /3509 10098 20061 39377 40062 5////;
0103066370999992011102520004+46717+008167FM-12+059099999V0203401N003619999999N9999999N1+00981+00591100781ADDMA1999999093921REMSYN076AAXX  25204 06637 33/// /3407 10098 20059 39392 40078 5//// 333 553// 20000;
0163066370999992011102521004+46717+008167FM-12+059099999V0201501N001019999999N0080001N1+00801+00541100951ADDAY111031AY211031GF105991999999012501999999MA1999999094031MW1101REMSYN088AAXX  25214 06637 31658 51502 10080 20054 39403 40095 5//// 71011 333 553// 20000 85741;
0103066370999992011102522004+46717+008167FM-12+059099999V0201101N001019999999N9999999N1+00591+00441101101ADDMA1999999094121REMSYN076AAXX  25224 06637 33/// /1102 10059 20044 39412 40110 5//// 333 553// 20000;
0103066370999992011102523004+46717+008167FM-12+059099999V0201501N000519999999N9999999N1+00581+00451101211ADDMA1999999094221REMSYN076AAXX  25234 06637 33/// /1501 10058 20045 39422 40121 5//// 333 553// 20004;
0163066370999992011102600004+46717+008167FM-12+059099999V0201501N000519999999N0080001N1+00731+00541101241ADDAY111061AY211061GF108991999999012501999999MA1999999094291MW1101REMSYN088AAXX  26004 06637 31658 81501 10073 20054 39429 40124 5//// 71011 333 553// 20007 88741;
0103066370999992011102601004+46717+008167FM-12+059099999V0202701N000519999999N9999999N1+00711+00611101311ADDMA1999999094351REMSYN076AAXX  26014 06637 33/// /2701 10071 20061 39435 40131 5//// 333 553// 20007;
0109066370999992011102602004+46717+008167FM-12+059099999V0209999C000019999999N9999999N1+00691+00651101351ADDMA1999999094381REMSYN082AAXX  26024 06637 23/// /0000 10069 20065 39438 40135 5//// 333 553// 20000 69955;
0109066370999992011102603004+46717+008167FM-12+059099999V0202701N000519999999N9999999N1+00701+00681101371ADDMA1999999094401REMSYN082AAXX  26034 06637 23/// /2701 10070 20068 39440 40137 5//// 333 553// 20004 69915;
0109066370999992011102604004+46717+008167FM-12+059099999V0209999C000019999999N9999999N1+00701+00681101411ADDMA1999999094441REMSYN082AAXX  26044 06637 23/// /0000 10070 20068 39444 40141 5//// 333 553// 20000 69935;
0109066370999992011102605004+46717+008167FM-12+059099999V0209999C000019999999N9999999N1+00701+00701101481ADDMA1999999094501REMSYN082AAXX  26054 06637 23/// /0000 10070 20070 39450 40148 5//// 333 553// 20000 69915;
0334066370999992011102606004+46717+008167FM-12+059099999V0209999C00001009301CN0060001N1+00711+00701101511ADDAA112001091AL10600191AL29900091AY151061AY251061GA1081+009301071GF108991999999008001999999GJ100189IA1119IA2999+00209KA1999N+00471MA1999999094531MD1219999+9999MW1101OA149900151REMSYN148AAXX  26064 06637 01556 80000 10071 20070 39453 40151 52/// 60012 71055 333 20047 32002 55003 55300 20007 69915 70011 88731 90768 93100 91103 91202;
0103066370999992011102607004+46717+008167FM-12+059099999V0202901N000519999999N9999999N1+00771+00731101551ADDMA1999999094591REMSYN076AAXX  26074 06637 33/// /2901 10077 20073 39459 40155 5//// 333 553// 20065;
0103066370999992011102608004+46717+008167FM-12+059099999V0203301N001019999999N9999999N1+00841+00771101621ADDMA1999999094671REMSYN076AAXX  26084 06637 33/// /3302 10084 20077 39467 40162 5//// 333 553// 20299;
0163066370999992011102609004+46717+008167FM-12+059099999V0209999C000019999999N0100001N1+00931+00741101601ADDAY121031AY221031GF107991999999004501999999MA1999999094671MW1101REMSYN088AAXX  26094 06637 31460 70000 10093 20074 39467 40160 5//// 71022 333 553// 20547 87617;
0140066370999992011102610004+46717+008167FM-12+059099999V0201701N000519999999N9999999N1+01131+00751101541ADDMA1999999094661MD1019999+9999OA149900151REMSYN088AAXX  26104 06637 33/// /1701 10113 20075 39466 40154 50/// 333 55305 21332 91103 91201;
0140066370999992011102611004+46717+008167FM-12+059099999V0202301N001019999999N9999999N1+01231+00661101471ADDMA1999999094621MD1719999+9999OA149900211REMSYN088AAXX  26114 06637 33/// /2302 10123 20066 39462 40147 57/// 333 55310 21883 91104 91202;
0103066370999992011102612004+46717+008167FM-12+059099999V0203101N002619999999N9999999N1+01401+00561101401ADDMA1999999094601REMSYN076AAXX  26124 06637 33/// /3105 10140 20056 39460 40140 5//// 333 553// 21854;
0103066370999992011102613004+46717+008167FM-12+059099999V0202601N005719999999N9999999N1+01231+00591101431ADDMA1999999094591REMSYN076AAXX  26134 06637 33/// /2611 10123 20059 39459 40143 5//// 333 553// 21706;
0103066370999992011102614004+46717+008167FM-12+059099999V0202501N004119999999N9999999N1+01191+00561101471ADDMA1999999094611REMSYN076AAXX  26144 06637 33/// /2508 10119 20056 39461 40147 5//// 333 553// 20284;
0188066370999992011102615004+46717+008167FM-12+059099999V0202401N003112200019N0250001N1+01151+00561101471ADDGA1031+010201061GF103991999999012501999999MA1999999094601MD1719999+9999OA149900881REMSYN094AAXX  26154 06637 32675 32406 10115 20056 39460 40147 57/// 333 55300 20209 83634 91117 91211;
0140066370999992011102616004+46717+008167FM-12+059099999V0201101N001519999999N9999999N1+01051+00591101511ADDMA1999999094621MD1219999+9999OA149900461REMSYN088AAXX  26164 06637 33/// /1103 10105 20059 39462 40151 52/// 333 55300 20122 91109 91206;
0103066370999992011102617004+46717+008167FM-12+059099999V0201201N001519999999N9999999N1+00951+00581101601ADDMA1999999094681REMSYN076AAXX  26174 06637 33/// /1203 10095 20058 39468 40160 5//// 333 553// 20014;
0222066370999992011102618004+46717+008167FM-12+059099999V0201401N000512200019N0100001N1+00761+00531101711ADDAY101061AY201061GA1021+015001061GF102991999999017501999999IA1019KA1120M+01421MA1999999094731MW1101REMSYN112AAXX  26184 06637 31760 21401 10076 20053 39473 40171 5//// 71000 333 10142 30/// 553// 20000 82650 90766 93100;
0103066370999992011102619004+46717+008167FM-12+059099999V0201601N001019999999N9999999N1+00571+00431101771ADDMA1999999094741REMSYN076AAXX  26194 06637 33/// /1602 10057 20043 39474 40177 5//// 333 553// 20000;
0103066370999992011102620004+46717+008167FM-12+059099999V0201601N001019999999N9999999N1+00671+00471101711ADDMA1999999094711REMSYN076AAXX  26204 06637 33/// /1602 10067 20047 39471 40171 5//// 333 553// 20004;
0173066370999992011102621004+46717+008167FM-12+059099999V0201501N000512200019N0090001N1+00431+00351101761ADDAY101031AY201031GA1001+999999999GF100991001001999999001001MA1999999094701MW1101REMSYN082AAXX  26214 06637 31/59 01501 10043 20035 39470 40176 5//// 71000 333 553// 20004;
0103066370999992011102622004+46717+008167FM-12+059099999V0201001N000519999999N9999999N1+00321+00301101801ADDMA1999999094711REMSYN076AAXX  26224 06637 33/// /1001 10032 20030 39471 40180 5//// 333 553// 20004;
0103066370999992011102623004+46717+008167FM-12+059099999V0201001N001019999999N9999999N1+00291+00231101821ADDMA1999999094721REMSYN076AAXX  26234 06637 33/// /1002 10029 20023 39472 40182 5//// 333 553// 20004;
0210066370999992011102700004+46717+008167FM-12+059099999V0201201N001012200019N0080001N1+00181+00151101801ADDAY101061AY201061GA1001+999999999GF100991001001999999001001MA1999999094671MD1819999+9999MW1111OA149900211REMSYN094AAXX  27004 06637 31/58 01202 10018 20015 39467 40180 58/// 71100 333 55300 20004 91104 91203;
0103066370999992011102701004+46717+008167FM-12+059099999V0203201N000519999999N9999999N1+00031-00011101861ADDMA1999999094691REMSYN076AAXX  27014 06637 33/// /3201 10003 21001 39469 40186 5//// 333 553// 20004;
0103066370999992011102702004+46717+008167FM-12+059099999V0201201N001519999999N9999999N1+00251+00171101761ADDMA1999999094651REMSYN076AAXX  27024 06637 33/// /1203 10025 20017 39465 40176 5//// 333 553// 20004;
0103066370999992011102703004+46717+008167FM-12+059099999V0201301N000519999999N9999999N1+00171+00101101781ADDMA1999999094651REMSYN076AAXX  27034 06637 33/// /1301 10017 20010 39465 40178 5//// 333 553// 20004;
0103066370999992011102704004+46717+008167FM-12+059099999V0209999C000019999999N9999999N1+00001-00031101861ADDMA1999999094681REMSYN076AAXX  27044 06637 33/// /0000 10000 21003 39468 40186 5//// 333 553// 20004;
0103066370999992011102705004+46717+008167FM-12+059099999V0201901N000519999999N9999999N1+00151+00071101781ADDMA1999999094641REMSYN076AAXX  27054 06637 33/// /1901 10015 20007 39464 40178 5//// 333 553// 20007;
0264066370999992011102706004+46717+008167FM-12+059099999V0201301N001012200019N0080001N1+00021-00011101771ADDAL19900091AY101061AY201061GA1031+027001031GF103991999999999999999999GJ102049IA1149IA2999-00209KA1999N-00041MA1999999094601MW1101REMSYN124AAXX  27064 06637 31958 31302 10002 21001 39460 40177 5//// 71000 333 21004 34102 55034 553// 20007 70000 83359 90768 93100;
0103066370999992011102707004+46717+008167FM-12+059099999V0201501N001019999999N9999999N1+00121+00011101731ADDMA1999999094591REMSYN076AAXX  27074 06637 33/// /1502 10012 20001 39459 40173 5//// 333 553// 20083;
0103066370999992011102708004+46717+008167FM-12+059099999V0202001N001019999999N9999999N1+00341+00151101661ADDMA1999999094581REMSYN076AAXX  27084 06637 33/// /2002 10034 20015 39458 40166 5//// 333 553// 20569;
0188066370999992011102709004+46717+008167FM-12+059099999V0203001N003112200019N0200001N1+00721+00361101511ADDGA1021+018001061GF103991999999017501999999MA1999999094541MD1719999+9999OA149900881REMSYN094AAXX  27094 06637 32770 33006 10072 20036 39454 40151 57/// 333 55310 21123 82656 91117 91206;
0140066370999992011102710004+46717+008167FM-12+059099999V0202901N002619999999N9999999N1+00961+00521101521ADDMA1999999094601MD1319999+9999OA149901181REMSYN088AAXX  27104 06637 33/// /2905 10096 20052 39460 40152 53/// 333 55309 21645 91123 91215;
0140066370999992011102711004+46717+008167FM-12+059099999V0203101N006219999999N9999999N1+01051+00441101481ADDMA1999999094591MD1019999+9999OA149900931REMSYN088AAXX  27114 06637 33/// /3112 10105 20044 39459 40148 50/// 333 55310 22146 91118 91212;
0163066370999992011102712004+46717+008167FM-12+059099999V0203101N005119999999N0140001N1+00991+00381101501ADDAY111061AY211061GF105991999999999999999999MA1999999094591MW1051REMSYN088AAXX  27124 06637 31964 53110 10099 20038 39459 40150 5//// 70511 333 553// 21393 84363;
0103066370999992011102713004+46717+008167FM-12+059099999V0203101N004119999999N9999999N1+01121+00481101511ADDMA1999999094631REMSYN076AAXX  27134 06637 33/// /3108 10112 20048 39463 40151 5//// 333 553// 21069;
0103066370999992011102714004+46717+008167FM-12+059099999V0203101N001519999999N9999999N1+01031+00501101561ADDMA1999999094661REMSYN076AAXX  27144 06637 33/// /3103 10103 20050 39466 40156 5//// 333 553// 20515;
0163066370999992011102715004+46717+008167FM-12+059099999V0201401N001019999999N0100001N1+00961+00571101651ADDAY111031AY211031GF106991999999999999999999MA1999999094731MW1101REMSYN088AAXX  27154 06637 31960 61402 10096 20057 39473 40165 5//// 71011 333 553// 20349 85363;
0140066370999992011102716004+46717+008167FM-12+059099999V0201401N000519999999N9999999N1+00811+00511101701ADDMA1999999094741MD1219999+9999OA149900211REMSYN088AAXX  27164 06637 33/// /1401 10081 20051 39474 40170 52/// 333 55300 20169 91104 91202;
0140066370999992011102717004+46717+008167FM-12+059099999V0201601N000519999999N9999999N1+00591+00391101811ADDMA1999999094781MD1210121+9999OA149900211REMSYN088AAXX  27174 06637 33/// /1601 10059 20039 39478 40181 52012 333 55300 20014 91104 91203;
0247066370999992011102718004+46717+008167FM-12+059099999V0201601N000512200019N0080001N1+00591+00391101871ADDAY111061AY211061GA1021+018001031GF102991999999017501999999IA1019KA1120M+01131MA1999999094841MD1219999+9999MW1101OA149900881REMSYN112AAXX  27184 06637 31758 21601 10059 20039 39484 40187 52/// 71011 333 10113 30/// 55300 20004 82356 91117 91209;
0103066370999992011102719004+46717+008167FM-12+059099999V0201201N000519999999N9999999N1+00381+00271102011ADDMA1999999094921REMSYN076AAXX  27194 06637 33/// /1201 10038 20027 39492 40201 5//// 333 553// 20004;
0103066370999992011102720004+46717+008167FM-12+059099999V0201001N000519999999N9999999N1+00511+00331102021ADDMA1999999094961REMSYN076AAXX  27204 06637 33/// /1001 10051 20033 39496 40202 5//// 333 553// 20004;
0145066370999992011102721004+46717+008167FM-12+059099999V0202001N000512200019N0200001N1+00131+00071102181ADDGA1001+999999999GF100991001001999999001001MA1999999095011REMSYN076AAXX  27214 06637 32/70 02001 10013 20007 39501 40218 5//// 333 553// 20004;
0140066370999992011102722004+46717+008167FM-12+059099999V0202301N000519999999N9999999N1+00231+00151102211ADDMA1999999095061MD1219999+9999OA149900151REMSYN088AAXX  27224 06637 33/// /2301 10023 20015 39506 40221 52/// 333 55300 20004 91103 91202;
0103066370999992011102723004+46717+008167FM-12+059099999V0202801N000519999999N9999999N1+00291+00181102241ADDMA1999999095111REMSYN076AAXX  27234 06637 33/// /2801 10029 20018 39511 40224 5//// 333 553// 20004;
0216066370999992011102800004+46717+008167FM-12+059099999V0202601N000512200019N0100001N1+00231+00141102281ADDAY101061AY201061GA1011+024001031GF101991999999022501999999MA1999999095131MD1219999+9999MW1101OA149900211REMSYN100AAXX  28004 06637 31860 12601 10023 20014 39513 40228 52/// 71000 333 55300 20004 81358 91104 91203;
0103066370999992011102801004+46717+008167FM-12+059099999V0201601N000519999999N9999999N1+00361+00191102291ADDMA1999999095171REMSYN076AAXX  28014 06637 33/// /1601 10036 20019 39517 40229 5//// 333 553// 20007;
0103066370999992011102802004+46717+008167FM-12+059099999V0201601N001019999999N9999999N1+00381+00251102311ADDMA1999999095201REMSYN076AAXX  28024 06637 33/// /1602 10038 20025 39520 40231 5//// 333 553// 20007;
0103066370999992011102803004+46717+008167FM-12+059099999V0209999C000019999999N9999999N1+00371+00271102311ADDMA1999999095191REMSYN076AAXX  28034 06637 33/// /0000 10037 20027 39519 40231 5//// 333 553// 20007;
0103066370999992011102804004+46717+008167FM-12+059099999V0201901N000519999999N9999999N1+00301+00231102401ADDMA1999999095261REMSYN076AAXX  28044 06637 33/// /1901 10030 20023 39526 40240 5//// 333 553// 20007;
0140066370999992011102805004+46717+008167FM-12+059099999V0201601N000519999999N9999999N1+00281+00211102521ADDMA1999999095371MD1219999+9999OA149900151REMSYN088AAXX  28054 06637 33/// /1601 10028 20021 39537 40252 52/// 333 55300 20004 91103 91202;
0301066370999992011102806004+46717+008167FM-12+059099999V0201201N000512200019N0100001N1+00261+00171102541ADDAL19900091AY101061AY201061GA1021+018001061GF103991999999017501999999GJ103069IA1099IA2999-00109KA1999N+00131MA1999999095381MD1219999+9999MW1101OA149900211REMSYN136AAXX  28064 06637 31760 31201 10026 20017 39538 40254 52/// 71000 333 20013 31101 55051 55300 20007 70000 82656 90768 93100 91104 91203;
0140066370999992011102807004+46717+008167FM-12+059099999V0201601N001019999999N9999999N1+00261+00151102631ADDMA1999999095461MD1219999+9999OA149900211REMSYN088AAXX  28074 06637 33/// /1602 10026 20015 39546 40263 52/// 333 55300 20068 91104 91202;
0103066370999992011102808004+46717+008167FM-12+059099999V0201001N000519999999N9999999N1+00731+00361102511ADDMA1999999095471REMSYN076AAXX  28084 06637 33/// /1001 10073 20036 39547 40251 5//// 333 553// 20713;
0188066370999992011102809004+46717+008167FM-12+059099999V0202901N001512200019N0200001N1+01031+00451102441ADDGA1021+075001001GF102991999999999999999999MA1999999095481MD1219999+9999OA149900261REMSYN094AAXX  28094 06637 32970 22903 10103 20045 39548 40244 52/// 333 55310 21375 82075 91105 91203;
0140066370999992011102810004+46717+008167FM-12+059099999V0203001N001519999999N9999999N1+01041+00301102491ADDMA1999999095531MD1319999+9999OA149900311REMSYN088AAXX  28104 06637 33/// /3003 10104 20030 39553 40249 53/// 333 55310 21465 91106 91204;
0140066370999992011102811004+46717+008167FM-12+059099999V0202901N002119999999N9999999N1+01201+00241102511ADDMA1999999095591MD1319999+9999OA149900511REMSYN088AAXX  28114 06637 33/// /2904 10120 20024 39559 40251 53/// 333 55310 21771 91110 91206;
0163066370999992011102812004+46717+008167FM-12+059099999V0202301N000519999999N0140001N1+01321+00391102491ADDAY111061AY211061GF105991999999999999999999MA1999999095601MW1051REMSYN088AAXX  28124 06637 31964 52301 10132 20039 39560 40249 5//// 70511 333 553// 21649 85364;
