0128066360999992010010100004+46983+007283FM-12+048399999V0201001N001019999999N9999999N1+00491+00491099281ADDMA1999999093641MD1810111+9999OA149900261REMSYN076AAXX  01004 06636 33/// /1002 10049 20049 39364 49928 58011 333 91105 91203;
0128066360999992010010101004+46983+007283FM-12+048399999V0200901N000519999999N9999999N1+00491+00491099231ADDMA1999999093591MD1710131+9999OA149900151REMSYN076AAXX  01014 06636 33/// /0901 10049 20049 39359 49923 57013 333 91103 91202;
0128066360999992010010102004+46983+007283FM-12+048399999V0200201N000519999999N9999999N1+00471+00471099201ADDMA1999999093561MD1619999+9999OA149900151REMSYN076AAXX  01024 06636 33/// /0201 10047 20047 39356 49920 56/// 333 91103 91202;
0087066360999992010010103004+46983+007283FM-12+048399999V0201001N000519999999N9999999N1+00441+00441099141ADDMA1999999093501REMSYN060AAXX  01034 06636 43/// /1001 10044 20044 39350 49914 5////;
0087066360999992010010104004+46983+007283FM-12+048399999V0201201N002119999999N9999999N1+00381+00351099111ADDMA1999999093461REMSYN060AAXX  01044 06636 33/// /1204 10038 20035 39346 49911 5////;
0128066360999992010010105004+46983+007283FM-12+048399999V0200901N001019999999N9999999N1+00311+00301099111ADDMA1999999093441MD1610121+9999OA149900311REMSYN076AAXX  01054 06636 33/// /0902 10031 20030 39344 49911 56012 333 91106 91204;
0206066360999992010010106004+46983+007283FM-12+048399999V0200901N001019999999N9999999N1+00261+00261099101ADDAA124003691AL13000391GJ100249IA2999-00109KA1999N+00281MA1999999093421MD1710081+9999OA149900311REMSYN100AAXX  01064 06636 33/// /0902 10026 20026 39342 49910 57008 333 20028 3/101 55004 70035 91106 91204;
0128066360999992010010107004+46983+007283FM-12+048399999V0209999C000019999999N9999999N1+00271+00271099101ADDMA1999999093431MD1710031+9999OA149900211REMSYN076AAXX  01074 06636 33/// /0000 10027 20027 39343 49910 57003 333 91104 91203;
0128066360999992010010108004+46983+007283FM-12+048399999V0202601N000519999999N9999999N1+00271+00271099161ADDMA1999999093481MD1310041+9999OA149900211REMSYN076AAXX  01084 06636 33/// /2601 10027 20027 39348 49916 53004 333 91104 91203;
0128066360999992010010109004+46983+007283FM-12+048399999V0202201N001019999999N9999999N1+00261+00261099221ADDMA1999999093541MD1210121+9999OA149900311REMSYN076AAXX  01094 06636 33/// /2202 10026 20026 39354 49922 52012 333 91106 91204;
0128066360999992010010110004+46983+007283FM-12+048399999V0201001N000519999999N9999999N1+00311+00311099281ADDMA1999999093601MD1210171+9999OA149900151REMSYN076AAXX  01104 06636 33/// /1001 10031 20031 39360 49928 52017 333 91103 91202;
0128066360999992010010111004+46983+007283FM-12+048399999V0209999C000019999999N9999999N1+00331+00331099281ADDMA1999999093611MD1110131+9999OA149900101REMSYN076AAXX  01114 06636 33/// /0000 10033 20033 39361 49928 51013 333 91102 91202;
0128066360999992010010112004+46983+007283FM-12+048399999V0201401N000519999999N9999999N1+00411+00411099251ADDMA1999999093601MD1010061+9999OA149900311REMSYN076AAXX  01124 06636 33/// /1401 10041 20041 39360 49925 50006 333 91106 91204;
0128066360999992010010113004+46983+007283FM-12+048399999V0203301N001519999999N9999999N1+00421+00421099331ADDMA1999999093671MD1310071+9999OA149900311REMSYN076AAXX  01134 06636 33/// /3303 10042 20042 39367 49933 53007 333 91106 91204;
0145066360999992010010114004+46983+007283FM-12+048399999V0202401N001019999999N9999999N1+00411+00391099401ADDAA101000021MA1999999093741MD1219999+9999OA149900311REMSYN082AAXX  01144 06636 23/// /2402 10041 20039 39374 49940 52/// 333 69925 91106 91204;
0145066360999992010010115004+46983+007283FM-12+048399999V0202501N001519999999N9999999N1+00401+00391099531ADDAA101001091MA1999999093861MD1310261+9999OA149900311REMSYN082AAXX  01154 06636 23/// /2503 10040 20039 39386 49953 53026 333 60015 91106 91204;
0145066360999992010010116004+46983+007283FM-12+048399999V0202501N003619999999N9999999N1+00401+00251099701ADDAA101002091MA1999999094021MD1310351+9999OA149900571REMSYN082AAXX  01164 06636 23/// /2507 10040 20025 39402 49970 53035 333 60025 91111 91207;
0145066360999992010010117004+46983+007283FM-12+048399999V0202201N003119999999N9999999N1+00311+00141099921ADDAA101001091MA1999999094211MD1310471+9999OA149900671REMSYN082AAXX  01174 06636 23/// /2206 10031 20014 39421 49992 53047 333 60015 91113 91207;
0170066360999992010010118004+46983+007283FM-12+048399999V0202501N003119999999N9999999N1+00261+00161100131ADDAA112005191KA1120M+00471MA1999999094391MD1210531+9999OA149900671REMSYN094AAXX  01184 06636 03/// /2506 10026 20016 39439 40013 52053 60052 333 10047 69965 91113 91207;
0145066360999992010010119004+46983+007283FM-12+048399999V0202501N003619999999N9999999N1+00171+00071100341ADDAA101000891MA1999999094571MD1210551+9999OA149900771REMSYN082AAXX  01194 06636 23/// /2507 10017 20007 39457 40034 52055 333 69975 91115 91207;
0145066360999992010010120004+46983+007283FM-12+048399999V0202301N001519999999N9999999N1+00161+00051100471ADDAA101000021MA1999999094691MD1110481+9999OA149900771REMSYN082AAXX  01204 06636 23/// /2303 10016 20005 39469 40047 51048 333 69915 91115 91207;
0128066360999992010010121004+46983+007283FM-12+048399999V0202601N004619999999N9999999N1+00191-00181100591ADDMA1999999094811MD1110421+9999OA149900931REMSYN076AAXX  01214 06636 33/// /2609 10019 21018 39481 40059 51042 333 91118 91209;
0128066360999992010010122004+46983+007283FM-12+048399999V0202601N004619999999N9999999N1+00141-00231100681ADDMA1999999094891MD1110321+9999OA149900931REMSYN076AAXX  01224 06636 33/// /2609 10014 21023 39489 40068 51032 333 91118 91209;
0128066360999992010010123004+46983+007283FM-12+048399999V0202601N004619999999N9999999N1+00081-00381100791ADDMA1999999094981MD1110291+9999OA149901131REMSYN076AAXX  01234 06636 33/// /2609 10008 21038 39498 40079 51029 333 91122 91211;
0151066360999992010010200004+46983+007283FM-12+048399999V0202601N003119999999N9999999N1+00021-00451100911ADDAA106000891MA1999999095081MD1210271+9999OA149901181REMSYN088AAXX  02004 06636 03/// /2606 10002 21045 39508 40091 52027 69981 333 60005 91123 91211;
0128066360999992010010201004+46983+007283FM-12+048399999V0202501N005119999999N9999999N1+00031-00501101011ADDMA1999999095181MD1310291+9999OA149901181REMSYN076AAXX  02014 06636 33/// /2510 10003 21050 39518 40101 53029 333 91123 91211;
0087066360999992010010202004+46983+007283FM-12+048399999V0202501N003119999999N9999999N1+00011-00541101151ADDMA1999999095301REMSYN060AAXX  02024 06636 33/// /2506 10001 21054 39530 40115 5////;
0128066360999992010010203004+46983+007283FM-12+048399999V0202601N003119999999N9999999N1-00011-00581101281ADDMA1999999095421MD1210341+9999OA149901181REMSYN076AAXX  02034 06636 33/// /2606 11001 21058 39542 40128 52034 333 91123 91211;
0128066360999992010010204004+46983+007283FM-12+048399999V0202701N002619999999N9999999N1-00021-00621101361ADDMA1999999095491MD1110311+9999OA149901031REMSYN076AAXX  02044 06636 33/// /2705 11002 21062 39549 40136 51031 333 91120 91209;
0128066360999992010010205004+46983+007283FM-12+048399999V0202601N004119999999N9999999N1-00061-00591101441ADDMA1999999095561MD1110261+9999OA149901031REMSYN076AAXX  02054 06636 33/// /2608 11006 21059 39556 40144 51026 333 91120 91209;
0229066360999992010010206004+46983+007283FM-12+048399999V0202701N002119999999N9999999N1-00081-00631101511ADDAA112000891AA224005891AL14800591GJ100009IA2999-00309KA1999N-00081MA1999999095621MD1210201+9999OA149901181REMSYN112AAXX  02064 06636 03/// /2704 11008 21063 39562 40151 52020 69982 333 21008 3/103 55000 60005 70058 91123 91211;
0128066360999992010010207004+46983+007283FM-12+048399999V0202801N002119999999N9999999N1-00101-00621101621ADDMA1999999095721MD1210231+9999OA149900571REMSYN076AAXX  02074 06636 33/// /2804 11010 21062 39572 40162 52023 333 91111 91205;
0087066360999992010010208004+46983+007283FM-12+048399999V0202801N002119999999N9999999N1-00111-00721101721ADDMA1999999095811REMSYN060AAXX  02084 06636 33/// /2804 11011 21072 39581 40172 5////;
0128066360999992010010209004+46983+007283FM-12+048399999V0202701N002619999999N9999999N1-00151-00801101851ADDMA1999999095931MD1310311+9999OA149901031REMSYN076AAXX  02094 06636 33/// /2705 11015 21080 39593 40185 53031 333 91120 91209;
0128066360999992010010210004+46983+007283FM-12+048399999V0202501N002619999999N9999999N1-00121-00791101921ADDMA1999999096001MD1210281+9999OA149900671REMSYN076AAXX  02104 06636 33/// /2505 11012 21079 39600 40192 52028 333 91113 91206;
0128066360999992010010211004+46983+007283FM-12+048399999V0202501N003619999999N9999999N1-00091-00821101971ADDMA1999999096051MD1210241+9999OA149900571REMSYN076AAXX  02114 06636 33/// /2507 11009 21082 39605 40197 52024 333 91111 91207;
0128066360999992010010212004+46983+007283FM-12+048399999V0202501N002619999999N9999999N1-00071-00821102011ADDMA1999999096101MD1210171+9999OA149901031REMSYN076AAXX  02124 06636 33/// /2505 11007 21082 39610 40201 52017 333 91120 91210;
0128066360999992010010213004+46983+007283FM-12+048399999V0202501N002619999999N9999999N1-00071-00831102081ADDMA1999999096161MD1310161+9999OA149900571REMSYN076AAXX  02134 06636 33/// /2505 11007 21083 39616 40208 53016 333 91111 91207;
0128066360999992010010214004+46983+007283FM-12+048399999V0202401N002119999999N9999999N1-00051-00891102131ADDMA1999999096211MD1219999+9999OA149900511REMSYN076AAXX  02144 06636 33/// /2404 11005 21089 39621 40213 52/// 333 91110 91205;
0128066360999992010010215004+46983+007283FM-12+048399999V0202201N000519999999N9999999N1-00061-01011102221ADDMA1999999096301MD1310201+9999OA149900571REMSYN076AAXX  02154 06636 33/// /2201 11006 21101 39630 40222 53020 333 91111 91207;
0128066360999992010010216004+46983+007283FM-12+048399999V0202501N001519999999N9999999N1-00151-00831102311ADDMA1999999096361MD1310201+9999OA149900411REMSYN076AAXX  02164 06636 33/// /2503 11015 21083 39636 40231 53020 333 91108 91205;
0128066360999992010010217004+46983+007283FM-12+048399999V0202601N001019999999N9999999N1-00231-00781102391ADDMA1999999096421MD1110211+9999OA149900411REMSYN076AAXX  02174 06636 33/// /2602 11023 21078 39642 40239 51021 333 91108 91205;
0147066360999992010010218004+46983+007283FM-12+048399999V0209999C000019999999N9999999N1-00321-00771102461ADDKA1120M-00041MA1999999096471MD1110171+9999OA149900671REMSYN082AAXX  02184 06636 33/// /0000 11032 21077 39647 40246 51017 333 11004 91113 91207;
0128066360999992010010219004+46983+007283FM-12+048399999V0209999C000019999999N9999999N1-00381-00691102491ADDMA1999999096481MD1210121+9999OA149900101REMSYN076AAXX  02194 06636 33/// /0000 11038 21069 39648 40249 52012 333 91102 91201;
0128066360999992010010220004+46983+007283FM-12+048399999V0209999C000019999999N9999999N1-00421-00751102501ADDMA1999999096481MD1210061+9999OA149900101REMSYN076AAXX  02204 06636 33/// /0000 11042 21075 39648 40250 52006 333 91102 91201;
0128066360999992010010221004+46983+007283FM-12+048399999V0209999C000019999999N9999999N1-00471-00721102511ADDMA1999999096481MD1010011+9999OA149900411REMSYN076AAXX  02214 06636 33/// /0000 11047 21072 39648 40251 50001 333 91108 91205;
0128066360999992010010222004+46983+007283FM-12+048399999V0200901N001519999999N9999999N1-00471-00771102541ADDMA1999999096511MD1210031+9999OA149900311REMSYN076AAXX  02224 06636 33/// /0903 11047 21077 39651 40254 52003 333 91106 91203;
0128066360999992010010223004+46983+007283FM-12+048399999V0201101N001019999999N9999999N1-00541-00731102591ADDMA1999999096541MD1310061+9999OA149900311REMSYN076AAXX  02234 06636 33/// /1102 11054 21073 39654 40259 53006 333 91106 91203;
0128066360999992010010300004+46983+007283FM-12+048399999V0201001N000519999999N9999999N1-00591-00741102591ADDMA1999999096531MD1010051+9999OA149900511REMSYN076AAXX  03004 06636 33/// /1001 11059 21074 39653 40259 50005 333 91110 91205;
0128066360999992010010301004+46983+007283FM-12+048399999V0201001N001519999999N9999999N1-00571-00761102581ADDMA1999999096521MD1810011+9999OA149900361REMSYN076AAXX  03014 06636 33/// /1003 11057 21076 39652 40258 58001 333 91107 91203;
0087066360999992010010302004+46983+007283FM-12+048399999V0201001N001519999999N9999999N1-00561-00771102601ADDMA1999999096541REMSYN060AAXX  03024 06636 33/// /1003 11056 21077 39654 40260 5////;
0087066360999992010010303004+46983+007283FM-12+048399999V0200901N000519999999N9999999N1-00591-00821102571ADDMA1999999096511REMSYN060AAXX  03034 06636 33/// /0901 11059 21082 39651 40257 5////;
0128066360999992010010304004+46983+007283FM-12+048399999V0200601N000519999999N9999999N1-00631-00801102541ADDMA1999999096471MD1810051+9999OA149900211REMSYN076AAXX  03044 06636 33/// /0601 11063 21080 39647 40254 58005 333 91104 91202;
0128066360999992010010305004+46983+007283FM-12+048399999V0201101N001519999999N9999999N1-00651-00811102521ADDMA1999999096451MD1719999+9999OA149900261REMSYN076AAXX  03054 06636 33/// /1103 11065 21081 39645 40252 57/// 333 91105 91203;
0225066360999992010010306004+46983+007283FM-12+048399999V0200901N002619999999N9999999N1-00631-00831102461ADDAA124000091AL19900091GJ103549IA2999-01109KA1999N-00671MA1999999096401MD1710111+9999OA149900361REMSYN100AAXX  03064 06636 33/// /0905 11063 21083 39640 40246 57011 333 21067 3/111 55059 70000 91107 91205;EQDQ01  00002PRCP24
0128066360999992010010307004+46983+007283FM-12+048399999V0200801N000519999999N9999999N1-00631-00811102501ADDMA1999999096431MD1710041+9999OA149900361REMSYN076AAXX  03074 06636 33/// /0801 11063 21081 39643 40250 57004 333 91107 91205;
0128066360999992010010308004+46983+007283FM-12+048399999V0200301N000519999999N9999999N1-00631-00811102531ADDMA1999999096461MD1319999+9999OA149900261REMSYN076AAXX  03084 06636 33/// /0301 11063 21081 39646 40253 53/// 333 91105 91203;
0128066360999992010010309004+46983+007283FM-12+048399999V0200901N001019999999N9999999N1-00581-00841102541ADDMA1999999096481MD1210081+9999OA149900361REMSYN076AAXX  03094 06636 33/// /0902 11058 21084 39648 40254 52008 333 91107 91205;
0128066360999992010010310004+46983+007283FM-12+048399999V0201401N001019999999N9999999N1-00391-00821102431ADDMA1999999096421MD1810011+9999OA149900261REMSYN076AAXX  03104 06636 33/// /1402 11039 21082 39642 40243 58001 333 91105 91203;
0128066360999992010010311004+46983+007283FM-12+048399999V0202101N001019999999N9999999N1-00291-00801102331ADDMA1999999096351MD1710111+9999OA149900261REMSYN076AAXX  03114 06636 33/// /2102 11029 21080 39635 40233 57011 333 91105 91203;
0128066360999992010010312004+46983+007283FM-12+048399999V0202001N001019999999N9999999N1-00231-00791102251ADDMA1999999096291MD1710191+9999OA149900361REMSYN076AAXX  03124 06636 33/// /2002 11023 21079 39629 40225 57019 333 91107 91205;
0128066360999992010010313004+46983+007283FM-12+048399999V0202101N001019999999N9999999N1-00191-00851102191ADDMA1999999096241MD1710181+9999OA149900311REMSYN076AAXX  03134 06636 33/// /2102 11019 21085 39624 40219 57018 333 91106 91203;
0128066360999992010010314004+46983+007283FM-12+048399999V0202301N001019999999N9999999N1-00191-00851102201ADDMA1999999096251MD1710101+9999OA149900151REMSYN076AAXX  03144 06636 33/// /2302 11019 21085 39625 40220 57010 333 91103 91202;
0128066360999992010010315004+46983+007283FM-12+048399999V0202401N001019999999N9999999N1-00281-00761102241ADDMA1999999096271MD1510021+9999OA149900311REMSYN076AAXX  03154 06636 33/// /2402 11028 21076 39627 40224 55002 333 91106 91203;
0128066360999992010010316004+46983+007283FM-12+048399999V0209999C000019999999N9999999N1-00371-00751102231ADDMA1999999096241MD1010001+9999OA149900211REMSYN076AAXX  03164 06636 33/// /0000 11037 21075 39624 40223 50000 333 91104 91203;
0128066360999992010010317004+46983+007283FM-12+048399999V0209999C000019999999N9999999N1-00431-00701102191ADDMA1999999096191MD1810061+9999OA149900151REMSYN076AAXX  03174 06636 33/// /0000 11043 21070 39619 40219 58006 333 91103 91202;
0147066360999992010010318004+46983+007283FM-12+048399999V0203301N000519999999N9999999N1-00511-00701102251ADDKA1120M-00171MA1999999096231MD1710041+9999OA149900311REMSYN082AAXX  03184 06636 33/// /3301 11051 21070 39623 40225 57004 333 11017 91106 91203;
0128066360999992010010319004+46983+007283FM-12+048399999V0200601N000519999999N9999999N1-00561-00711102211ADDMA1999999096181MD1710061+9999OA149900101REMSYN076AAXX  03194 06636 33/// /0601 11056 21071 39618 40221 57006 333 91102 91201;
0128066360999992010010320004+46983+007283FM-12+048399999V0201101N001019999999N9999999N1-00621-00761102201ADDMA1999999096151MD1810041+9999OA149900151REMSYN076AAXX  03204 06636 33/// /1102 11062 21076 39615 40220 58004 333 91103 91202;
0128066360999992010010321004+46983+007283FM-12+048399999V0201001N000519999999N9999999N1-00651-00761102171ADDMA1999999096121MD1610111+9999OA149900151REMSYN076AAXX  03214 06636 33/// /1001 11065 21076 39612 40217 56011 333 91103 91202;
0128066360999992010010322004+46983+007283FM-12+048399999V0200901N001519999999N9999999N1-00681-00791102131ADDMA1999999096081MD1810101+9999OA149900211REMSYN076AAXX  03224 06636 33/// /0903 11068 21079 39608 40213 58010 333 91104 91203;
0128066360999992010010323004+46983+007283FM-12+048399999V0200901N000519999999N9999999N1-00731-00831102151ADDMA1999999096081MD1710071+9999OA149900211REMSYN076AAXX  03234 06636 33/// /0901 11073 21083 39608 40215 57007 333 91104 91203;
0128066360999992010010400004+46983+007283FM-12+048399999V0200601N001019999999N9999999N1-00711-00811102051ADDMA1999999095991MD1710131+9999OA149900311REMSYN076AAXX  04004 06636 33/// /0602 11071 21081 39599 40205 57013 333 91106 91203;
0128066360999992010010401004+46983+007283FM-12+048399999V0200901N001019999999N9999999N1-00731-00851101971ADDMA1999999095911MD1710171+9999OA149900311REMSYN076AAXX  04014 06636 33/// /0902 11073 21085 39591 40197 57017 333 91106 91203;
0128066360999992010010402004+46983+007283FM-12+048399999V0200801N001019999999N9999999N1-00721-00841101951ADDMA1999999095901MD1710181+9999OA149900311REMSYN076AAXX  04024 06636 33/// /0802 11072 21084 39590 40195 57018 333 91106 91203;
0128066360999992010010403004+46983+007283FM-12+048399999V0201001N001019999999N9999999N1-00631-00801101881ADDMA1999999095851MD1719999+9999OA149900311REMSYN076AAXX  04034 06636 33/// /1002 11063 21080 39585 40188 57/// 333 91106 91203;
0128066360999992010010404004+46983+007283FM-12+048399999V0209999C000019999999N9999999N1-00571-00741101811ADDMA1999999095801MD1710111+9999OA149900211REMSYN076AAXX  04044 06636 33/// /0000 11057 21074 39580 40181 57011 333 91104 91202;
0128066360999992010010405004+46983+007283FM-12+048399999V0202501N000519999999N9999999N1-00541-00691101811ADDMA1999999095811MD1710091+9999OA149900151REMSYN076AAXX  04054 06636 33/// /2501 11054 21069 39581 40181 57009 333 91103 91202;
0225066360999992010010406004+46983+007283FM-12+048399999V0202001N000519999999N9999999N1-00521-00711101791ADDAA124000091AL19900091GJ103249IA2999-01209KA1999N-00751MA1999999095791MD1710061+9999OA149900311REMSYN100AAXX  04064 06636 33/// /2001 11052 21071 39579 40179 57006 333 21075 3/112 55054 70000 91106 91203;EQDQ01  00002PRCP24
0128066360999992010010407004+46983+007283FM-12+048399999V0202401N000519999999N9999999N1-00491-00661101771ADDMA1999999095781MD1710021+9999OA149900151REMSYN076AAXX  04074 06636 33/// /2401 11049 21066 39578 40177 57002 333 91103 91201;
0128066360999992010010408004+46983+007283FM-12+048399999V0202201N001019999999N9999999N1-00461-00611101751ADDMA1999999095771MD1710041+9999OA149900151REMSYN076AAXX  04084 06636 33/// /2202 11046 21061 39577 40175 57004 333 91103 91202;
0128066360999992010010409004+46983+007283FM-12+048399999V0201401N000519999999N9999999N1-00401-00581101731ADDMA1999999095761MD1710031+9999OA149900151REMSYN076AAXX  04094 06636 33/// /1401 11040 21058 39576 40173 57003 333 91103 91202;
0128066360999992010010410004+46983+007283FM-12+048399999V0209999C000019999999N9999999N1-00351-00631101711ADDMA1999999095751MD1710031+9999OA149900151REMSYN076AAXX  04104 06636 33/// /0000 11035 21063 39575 40171 57003 333 91103 91202;
0128066360999992010010411004+46983+007283FM-12+048399999V0202801N000519999999N9999999N1-00311-00591101631ADDMA1999999095691MD1710081+9999OA149900151REMSYN076AAXX  04114 06636 33/// /2801 11031 21059 39569 40163 57008 333 91103 91201;
0128066360999992010010412004+46983+007283FM-12+048399999V0203301N000519999999N9999999N1-00291-00531101551ADDMA1999999095621MD1810141+9999OA149900311REMSYN076AAXX  04124 06636 33/// /3301 11029 21053 39562 40155 58014 333 91106 91203;
0128066360999992010010413004+46983+007283FM-12+048399999V0202201N000519999999N9999999N1-00271-00521101451ADDMA1999999095531MD1710221+9999OA149900211REMSYN076AAXX  04134 06636 33/// /2201 11027 21052 39553 40145 57022 333 91104 91203;
0128066360999992010010414004+46983+007283FM-12+048399999V0203301N000519999999N9999999N1-00231-00521101411ADDMA1999999095501MD1619999+9999OA149900211REMSYN076AAXX  04144 06636 33/// /3301 11023 21052 39550 40141 56/// 333 91104 91202;
0128066360999992010010415004+46983+007283FM-12+048399999V0203001N001019999999N9999999N1-00221-00551101401ADDMA1999999095491MD1710131+9999OA149900211REMSYN076AAXX  04154 06636 33/// /3002 11022 21055 39549 40140 57013 333 91104 91203;
0128066360999992010010416004+46983+007283FM-12+048399999V0202701N000519999999N9999999N1-00221-00531101381ADDMA1999999095471MD1710061+9999OA149900151REMSYN076AAXX  04164 06636 33/// /2701 11022 21053 39547 40138 57006 333 91103 91202;
0128066360999992010010417004+46983+007283FM-12+048399999V0202301N001019999999N9999999N1-00261-00551101381ADDMA1999999095461MD1710041+9999OA149900151REMSYN076AAXX  04174 06636 33/// /2302 11026 21055 39546 40138 57004 333 91103 91202;
0147066360999992010010418004+46983+007283FM-12+048399999V0202001N000519999999N9999999N1-00271-00541101351ADDKA1120M-00211MA1999999095431MD1710061+9999OA149900211REMSYN082AAXX  04184 06636 33/// /2001 11027 21054 39543 40135 57006 333 11021 91104 91203;
0128066360999992010010419004+46983+007283FM-12+048399999V0202201N000519999999N9999999N1-00271-00531101351ADDMA1999999095431MD1710041+9999OA149900101REMSYN076AAXX  04194 06636 33/// /2201 11027 21053 39543 40135 57004 333 91102 91202;
0128066360999992010010420004+46983+007283FM-12+048399999V0201101N001519999999N9999999N1-00241-00741101321ADDMA1999999095411MD1710051+9999OA149900311REMSYN076AAXX  04204 06636 33/// /1103 11024 21074 39541 40132 57005 333 91106 91203;
0128066360999992010010421004+46983+007283FM-12+048399999V0201301N001519999999N9999999N1-00261-00691101301ADDMA1999999095391MD1710041+9999OA149900361REMSYN076AAXX  04214 06636 33/// /1303 11026 21069 39539 40130 57004 333 91107 91204;
0128066360999992010010422004+46983+007283FM-12+048399999V0202301N001019999999N9999999N1-00281-00621101271ADDMA1999999095351MD1710081+9999OA149900361REMSYN076AAXX  04224 06636 33/// /2302 11028 21062 39535 40127 57008 333 91107 91204;
0128066360999992010010423004+46983+007283FM-12+048399999V0201701N000519999999N9999999N1-00291-00621101261ADDMA1999999095341MD1710071+9999OA149900261REMSYN076AAXX  04234 06636 33/// /1701 11029 21062 39534 40126 57007 333 91105 91203;
0128066360999992010010500004+46983+007283FM-12+048399999V0201301N001519999999N9999999N1-00361-00671101231ADDMA1999999095301MD1710091+9999OA149900361REMSYN076AAXX  05004 06636 33/// /1303 11036 21067 39530 40123 57009 333 91107 91204;
0128066360999992010010501004+46983+007283FM-12+048399999V0201101N001519999999N9999999N1-00371-00651101161ADDMA1999999095231MD1710121+9999OA149900361REMSYN076AAXX  05014 06636 33/// /1103 11037 21065 39523 40116 57012 333 91107 91204;
0128066360999992010010502004+46983+007283FM-12+048399999V0201101N001519999999N9999999N1-00371-00641101131ADDMA1999999095201MD1710141+9999OA149900311REMSYN076AAXX  05024 06636 33/// /1103 11037 21064 39520 40113 57014 333 91106 91203;
0128066360999992010010503004+46983+007283FM-12+048399999V0201101N001519999999N9999999N1-00381-00621101081ADDMA1999999095151MD1710151+9999OA149900361REMSYN076AAXX  05034 06636 33/// /1103 11038 21062 39515 40108 57015 333 91107 91204;
0128066360999992010010504004+46983+007283FM-12+048399999V0201001N001519999999N9999999N1-00391-00611100981ADDMA1999999095061MD1810171+9999OA149900311REMSYN076AAXX  05044 06636 33/// /1003 11039 21061 39506 40098 58017 333 91106 91204;
0128066360999992010010505004+46983+007283FM-12+048399999V0201101N001019999999N9999999N1-00401-00621100921ADDMA1999999095001MD1710201+9999OA149900311REMSYN076AAXX  05054 06636 33/// /1102 11040 21062 39500 40092 57020 333 91106 91204;
0225066360999992010010506004+46983+007283FM-12+048399999V0200801N000519999999N9999999N1-00381-00601100851ADDAA124000091AL19900091GJ100009IA2999-00409KA1999N-00401MA1999999094941MD1710211+9999OA149900361REMSYN100AAXX  05064 06636 33/// /0801 11038 21060 39494 40085 57021 333 21040 3/104 55000 70000 91107 91204;EQDQ01  00002PRCP24
0128066360999992010010507004+46983+007283FM-12+048399999V0201101N000519999999N9999999N1-00391-00581100831ADDMA1999999094921MD1710141+9999OA149900151REMSYN076AAXX  05074 06636 33/// /1101 11039 21058 39492 40083 57014 333 91103 91202;
0128066360999992010010508004+46983+007283FM-12+048399999V0201001N000519999999N9999999N1-00381-00571100811ADDMA1999999094901MD1710101+9999OA149900151REMSYN076AAXX  05084 06636 33/// /1001 11038 21057 39490 40081 57010 333 91103 91202;
0128066360999992010010509004+46983+007283FM-12+048399999V0200801N001019999999N9999999N1-00391-00571100801ADDMA1999999094891MD1710051+9999OA149900311REMSYN076AAXX  05094 06636 33/// /0802 11039 21057 39489 40080 57005 333 91106 91204;
0145066360999992010010510004+46983+007283FM-12+048399999V0201701N000519999999N9999999N1-00381-00521100741ADDAA101000391MA1999999094831MD1710091+9999OA149900261REMSYN082AAXX  05104 06636 23/// /1701 11038 21052 39483 40074 57009 333 69935 91105 91203;
0128066360999992010010511004+46983+007283FM-12+048399999V0202901N000519999999N9999999N1-00321-00491100661ADDMA1999999094771MD1710131+9999OA149900101REMSYN076AAXX  05114 06636 33/// /2901 11032 21049 39477 40066 57013 333 91102 91201;
0151066360999992010010512004+46983+007283FM-12+048399999V0201501N000519999999N9999999N1-00281-00491100561ADDAA106000391MA1999999094691MD1810201+9999OA149900311REMSYN088AAXX  05124 06636 03/// /1501 11028 21049 39469 40056 58020 69931 333 60005 91106 91204;
0128066360999992010010513004+46983+007283FM-12+048399999V0201401N001019999999N9999999N1-00251-00481100451ADDMA1999999094591MD1810241+9999OA149900211REMSYN076AAXX  05134 06636 33/// /1402 11025 21048 39459 40045 58024 333 91104 91203;
0087066360999992010010514004+46983+007283FM-12+048399999V0202401N000519999999N9999999N1-00241-00451100401ADDMA1999999094541REMSYN060AAXX  05144 06636 33/// /2401 11024 21045 39454 40040 5////;
0128066360999992010010515004+46983+007283FM-12+048399999V0201801N001019999999N9999999N1-00221-00451100381ADDMA1999999094531MD1710161+9999OA149900211REMSYN076AAXX  05154 06636 33/// /1802 11022 21045 39453 40038 57016 333 91104 91203;
0128066360999992010010516004+46983+007283FM-12+048399999V0200801N001519999999N9999999N1-00241-00461100361ADDMA1999999094511MD1710081+9999OA149900261REMSYN076AAXX  05164 06636 33/// /0803 11024 21046 39451 40036 57008 333 91105 91204;
0128066360999992010010517004+46983+007283FM-12+048399999V0201201N001519999999N9999999N1-00261-00451100351ADDMA1999999094491MD1710051+9999OA149900261REMSYN076AAXX  05174 06636 33/// /1203 11026 21045 39449 40035 57005 333 91105 91204;
0170066360999992010010518004+46983+007283FM-12+048399999V0209999C000019999999N9999999N1-00241-00431100331ADDAA112000391KA1120M-00221MA1999999094481MD1710051+9999OA149900261REMSYN094AAXX  05184 06636 03/// /0000 11024 21043 39448 40033 57005 69932 333 11022 60005 91105 91204;
0145066360999992010010519004+46983+007283FM-12+048399999V0202801N000519999999N9999999N1-00261-00411100331ADDAA101000021MA1999999094471MD1710041+9999OA149900211REMSYN082AAXX  05194 06636 23/// /2801 11026 21041 39447 40033 57004 333 69915 91104 91203;
0128066360999992010010520004+46983+007283FM-12+048399999V0200201N000519999999N9999999N1-00261-00381100281ADDMA1999999094431MD1710061+9999OA149900151REMSYN076AAXX  05204 06636 33/// /0201 11026 21038 39443 40028 57006 333 91103 91202;
0145066360999992010010521004+46983+007283FM-12+048399999V0200201N000519999999N9999999N1-00281-00371100261ADDAA101000021MA1999999094401MD1710081+9999OA149900261REMSYN082AAXX  05214 06636 23/// /0201 11028 21037 39440 40026 57008 333 69915 91105 91204;
0128066360999992010010522004+46983+007283FM-12+048399999V0201001N001019999999N9999999N1-00281-00401100221ADDMA1999999094371MD1710101+9999OA149900261REMSYN076AAXX  05224 06636 33/// /1002 11028 21040 39437 40022 57010 333 91105 91203;
0128066360999992010010523004+46983+007283FM-12+048399999V0209999C000019999999N9999999N1-00271-00421100211ADDMA1999999094361MD1710071+9999OA149900261REMSYN076AAXX  05234 06636 33/// /0000 11027 21042 39436 40021 57007 333 91105 91203;
0151066360999992010010600004+46983+007283FM-12+048399999V0202201N000519999999N9999999N1-00281-00371100191ADDAA106000391MA1999999094341MD1710061+9999OA149900261REMSYN088AAXX  06004 06636 03/// /2201 11028 21037 39434 40019 57006 69931 333 69915 91105 91204;
0145066360999992010010601004+46983+007283FM-12+048399999V0209999C000019999999N9999999N1-00281-00361100171ADDAA101000021MA1999999094321MD1710051+9999OA149900101REMSYN082AAXX  06014 06636 23/// /0000 11028 21036 39432 40017 57005 333 69915 91102 91201;
0128066360999992010010602004+46983+007283FM-12+048399999V0203401N000519999999N9999999N1-00271-00371100201ADDMA1999999094351MD1510011+9999OA149900151REMSYN076AAXX  06024 06636 33/// /3401 11027 21037 39435 40020 55001 333 91103 91202;
0128066360999992010010603004+46983+007283FM-12+048399999V0202301N000519999999N9999999N1-00271-00361100181ADDMA1999999094331MD1710011+9999OA149900261REMSYN076AAXX  06034 06636 33/// /2301 11027 21036 39433 40018 57001 333 91105 91203;
0128066360999992010010604004+46983+007283FM-12+048399999V0202601N000519999999N9999999N1-00251-00341100181ADDMA1999999094331MD1010011+9999OA149900101REMSYN076AAXX  06044 06636 33/// /2601 11025 21034 39433 40018 50001 333 91102 91201;
0128066360999992010010605004+46983+007283FM-12+048399999V0202301N000519999999N9999999N1-00251-00331100211ADDMA1999999094361MD1310011+9999OA149900151REMSYN076AAXX  06054 06636 33/// /2301 11025 21033 39436 40021 53001 333 91103 91201;
0229066360999992010010606004+46983+007283FM-12+048399999V0203301N000519999999N9999999N1-00231-00321100201ADDAA112000591AA224000891AL14200091GJ100009IA2999-00309KA1999N-00281MA1999999094361MD1310031+9999OA149900261REMSYN112AAXX  06064 06636 03/// /3301 11023 21032 39436 40020 53003 69942 333 21028 3/103 55000 60005 70007 91105 91203;
0128066360999992010010607004+46983+007283FM-12+048399999V0209999C000019999999N9999999N1-00231-00321100251ADDMA1999999094401MD1210071+9999OA149900101REMSYN076AAXX  06074 06636 33/// /0000 11023 21032 39440 40025 52007 333 91102 91201;
0128066360999992010010608004+46983+007283FM-12+048399999V0209999C000019999999N9999999N1-00231-00321100291ADDMA1999999094441MD1210081+9999OA149900101REMSYN076AAXX  06084 06636 33/// /0000 11023 21032 39444 40029 52008 333 91102 91201;
0145066360999992010010609004+46983+007283FM-12+048399999V0201001N001019999999N9999999N1-00191-00311100341ADDAA101000021MA1999999094501MD1210141+9999OA149900151REMSYN082AAXX  06094 06636 23/// /1002 11019 21031 39450 40034 52014 333 69915 91103 91202;
0128066360999992010010610004+46983+007283FM-12+048399999V0201001N001019999999N9999999N1-00171-00291100371ADDMA1999999094531MD1110131+9999OA149900151REMSYN076AAXX  06104 06636 33/// /1002 11017 21029 39453 40037 51013 333 91103 91202;
0128066360999992010010611004+46983+007283FM-12+048399999V0202901N000519999999N9999999N1-00141-00271100341ADDMA1999999094511MD1019999+9999OA149900151REMSYN076AAXX  06114 06636 33/// /2901 11014 21027 39451 40034 50/// 333 91103 91202;
0170066360999992010010612004+46983+007283FM-12+048399999V0209999C000019999999N9999999N1-00111-00281100311ADDAA106000091MA1999999094491MD1810011+9999OA149900151REMSYN088AAXX  06124 06636 03/// /0000 11011 21028 39449 40031 58001 69911 333 60005 91103 91202;EQDQ01  00002PRCP06
0128066360999992010010613004+46983+007283FM-12+048399999V0202801N000519999999N9999999N1-00051-00291100301ADDMA1999999094491MD1710041+9999OA149900151REMSYN076AAXX  06134 06636 33/// /2801 11005 21029 39449 40030 57004 333 91103 91202;
0128066360999992010010614004+46983+007283FM-12+048399999V0209999C000019999999N9999999N1-00021-00301100301ADDMA1999999094501MD1519999+9999OA149900151REMSYN076AAXX  06144 06636 33/// /0000 11002 21030 39450 40030 55/// 333 91103 91202;
0128066360999992010010615004+46983+007283FM-12+048399999V0209999C000019999999N9999999N1-00011-00281100321ADDMA1999999094521MD1219999+9999OA149900151REMSYN076AAXX  06154 06636 33/// /0000 11001 21028 39452 40032 52/// 333 91103 91202;
0128066360999992010010616004+46983+007283FM-12+048399999V0209999C000019999999N9999999N1-00161-00281100431ADDMA1999999094591MD1310101+9999OA149900151REMSYN076AAXX  06164 06636 33/// /0000 11016 21028 39459 40043 53010 333 91103 91202;
0128066360999992010010617004+46983+007283FM-12+048399999V0200701N000519999999N9999999N1-00301-00371100501ADDMA1999999094621MD1310121+9999OA149900151REMSYN076AAXX  06174 06636 33/// /0701 11030 21037 39462 40050 53012 333 91103 91202;
0189066360999992010010618004+46983+007283FM-12+048399999V0200601N000519999999N9999999N1-00381-00441100591ADDAA112000091KA1120M-00011MA1999999094691MD1119999+9999OA149900151REMSYN094AAXX  06184 06636 03/// /0601 11038 21044 39469 40059 51/// 69912 333 11001 60005 91103 91202;EQDQ01  00002PRCP12
0128066360999992010010619004+46983+007283FM-12+048399999V0200901N000519999999N9999999N1-00351-00411100611ADDMA1999999094721MD1110131+9999OA149900101REMSYN076AAXX  06194 06636 33/// /0901 11035 21041 39472 40061 51013 333 91102 91201;
0128066360999992010010620004+46983+007283FM-12+048399999V0201301N000519999999N9999999N1-00281-00361100611ADDMA1999999094731MD1110111+9999OA149900151REMSYN076AAXX  06204 06636 33/// /1301 11028 21036 39473 40061 51011 333 91103 91202;
0128066360999992010010621004+46983+007283FM-12+048399999V0209999C000019999999N9999999N1-00251-00351100651ADDMA1999999094781MD1310091+9999OA149900151REMSYN076AAXX  06214 06636 33/// /0000 11025 21035 39478 40065 53009 333 91103 91202;
0145066360999992010010622004+46983+007283FM-12+048399999V0202801N000519999999N9999999N1-00231-00291100691ADDAA101000021MA1999999094821MD1310101+9999OA149900151REMSYN082AAXX  06224 06636 23/// /2801 11023 21029 39482 40069 53010 333 69915 91103 91201;
0145066360999992010010623004+46983+007283FM-12+048399999V0202801N000519999999N9999999N1-00211-00271100721ADDAA101000391MA1999999094851MD1210121+9999OA149900151REMSYN082AAXX  06234 06636 23/// /2801 11021 21027 39485 40072 52012 333 69935 91103 91201;
0151066360999992010010700004+46983+007283FM-12+048399999V0209999C000019999999N9999999N1-00281-00351100751ADDAA106000591MA1999999094861MD1210081+9999OA149900211REMSYN088AAXX  07004 06636 03/// /0000 11028 21035 39486 40075 52008 69941 333 60005 91104 91202;
0128066360999992010010701004+46983+007283FM-12+048399999V0201101N000519999999N9999999N1-00251-00321100751ADDMA1999999094871MD1210051+9999OA149900211REMSYN076AAXX  07014 06636 33/// /1101 11025 21032 39487 40075 52005 333 91104 91202;
0128066360999992010010702004+46983+007283FM-12+048399999V0201101N001519999999N9999999N1-00221-00331100771ADDMA1999999094901MD1319999+9999OA149900261REMSYN076AAXX  07024 06636 33/// /1103 11022 21033 39490 40077 53/// 333 91105 91203;
0128066360999992010010703004+46983+007283FM-12+048399999V0201101N001519999999N9999999N1-00271-00381100751ADDMA1999999094871MD1010011+9999OA149900311REMSYN076AAXX  07034 06636 33/// /1103 11027 21038 39487 40075 50001 333 91106 91204;
0128066360999992010010704004+46983+007283FM-12+048399999V0201201N001519999999N9999999N1-00251-00361100731ADDMA1999999094851MD1710021+9999OA149900311REMSYN076AAXX  07044 06636 33/// /1203 11025 21036 39485 40073 57002 333 91106 91204;
0128066360999992010010705004+46983+007283FM-12+048399999V0201301N001019999999N9999999N1-00261-00391100761ADDMA1999999094881MD1510021+9999OA149900311REMSYN076AAXX  07054 06636 33/// /1302 11026 21039 39488 40076 55002 333 91106 91204;
0229066360999992010010706004+46983+007283FM-12+048399999V0201401N001019999999N9999999N1-00251-00391100801ADDAA112000591AA224000591AL13000091GJ100009IA2999-01009KA1999N-00401MA1999999094921MD1310051+9999OA149900311REMSYN112AAXX  07064 06636 03/// /1402 11025 21039 39492 40080 53005 69942 333 21040 3/110 55000 60005 70005 91106 91204;
0128066360999992010010707004+46983+007283FM-12+048399999V0200901N002119999999N9999999N1-00291-00431100861ADDMA1999999094971MD1310121+9999OA149900311REMSYN076AAXX  07074 06636 33/// /0904 11029 21043 39497 40086 53012 333 91106 91204;
0128066360999992010010708004+46983+007283FM-12+048399999V0201101N002119999999N9999999N1-00331-00491100931ADDMA1999999095021MD1319999+9999OA149900361REMSYN076AAXX  07084 06636 33/// /1104 11033 21049 39502 40093 53/// 333 91107 91204;
0128066360999992010010709004+46983+007283FM-12+048399999V0201101N001519999999N9999999N1-00291-00481100981ADDMA1999999095081MD1110161+9999OA149900361REMSYN076AAXX  07094 06636 33/// /1103 11029 21048 39508 40098 51016 333 91107 91204;
0128066360999992010010710004+46983+007283FM-12+048399999V0201301N001519999999N9999999N1-00261-00501101021ADDMA1999999095121MD1210151+9999OA149900311REMSYN076AAXX  07104 06636 33/// /1303 11026 21050 39512 40102 52015 333 91106 91204;
0128066360999992010010711004+46983+007283FM-12+048399999V0201301N001519999999N9999999N1-00141-00471101011ADDMA1999999095141MD1210121+9999OA149900311REMSYN076AAXX  07114 06636 33/// /1303 11014 21047 39514 40101 52012 333 91106 91204;
0128066360999992010010712004+46983+007283FM-12+048399999V0201501N001019999999N9999999N1-00081-00461100951ADDMA1999999095101MD1010021+9999OA149900361REMSYN076AAXX  07124 06636 33/// /1502 11008 21046 39510 40095 50002 333 91107 91204;
0128066360999992010010713004+46983+007283FM-12+048399999V0201201N001519999999N9999999N1-00071-00471100951ADDMA1999999095101MD1710021+9999OA149900211REMSYN076AAXX  07134 06636 33/// /1203 11007 21047 39510 40095 57002 333 91104 91203;
0087066360999992010010715004+46983+007283FM-12+048399999V0201201N001019999999N9999999N1-00071-00491101021ADDMA1999999095161REMSYN060AAXX  07154 06636 43/// /1202 11007 21049 39516 40102 5////;
0128066360999992010010716004+46983+007283FM-12+048399999V0200701N001019999999N9999999N1-00091-00471101051ADDMA1999999095191MD1210091+9999OA149900211REMSYN076AAXX  07164 06636 33/// /0702 11009 21047 39519 40105 52009 333 91104 91203;
0128066360999992010010717004+46983+007283FM-12+048399999V0201101N001019999999N9999999N1-00141-00471101111ADDMA1999999095231MD1219999+9999OA149900211REMSYN076AAXX  07174 06636 33/// /1102 11014 21047 39523 40111 52/// 333 91104 91203;
0147066360999992010010718004+46983+007283FM-12+048399999V0200901N001019999999N9999999N1-00191-00481101141ADDKA1120M-00061MA1999999095251MD1219999+9999OA149900361REMSYN082AAXX  07184 06636 33/// /0902 11019 21048 39525 40114 52/// 333 11006 91107 91204;
0128066360999992010010719004+46983+007283FM-12+048399999V0201001N001519999999N9999999N1-00191-00481101151ADDMA1999999095261MD1210071+9999OA149900211REMSYN076AAXX  07194 06636 33/// /1003 11019 21048 39526 40115 52007 333 91104 91203;
0128066360999992010010720004+46983+007283FM-12+048399999V0200901N001019999999N9999999N1-00241-00471101161ADDMA1999999095261MD1210031+9999OA149900211REMSYN076AAXX  07204 06636 33/// /0902 11024 21047 39526 40116 52003 333 91104 91203;
0128066360999992010010721004+46983+007283FM-12+048399999V0200701N001519999999N9999999N1-00241-00451101141ADDMA1999999095241MD1810011+9999OA149900261REMSYN076AAXX  07214 06636 33/// /0703 11024 21045 39524 40114 58001 333 91105 91203;
0128066360999992010010722004+46983+007283FM-12+048399999V0201101N002119999999N9999999N1-00211-00401101111ADDMA1999999095221MD1710041+9999OA149900261REMSYN076AAXX  07224 06636 33/// /1104 11021 21040 39522 40111 57004 333 91105 91204;
0128066360999992010010723004+46983+007283FM-12+048399999V0201101N000519999999N9999999N1-00201-00401101121ADDMA1999999095231MD1710031+9999OA149900311REMSYN076AAXX  07234 06636 33/// /1101 11020 21040 39523 40112 57003 333 91106 91204;
0128066360999992010010800004+46983+007283FM-12+048399999V0201001N001019999999N9999999N1-00171-00381101071ADDMA1999999095191MD1710051+9999OA149900311REMSYN076AAXX  08004 06636 33/// /1002 11017 21038 39519 40107 57005 333 91106 91204;
0128066360999992010010801004+46983+007283FM-12+048399999V0201101N003119999999N9999999N1-00141-00411101021ADDMA1999999095151MD1810071+9999OA149900571REMSYN076AAXX  08014 06636 33/// /1106 11014 21041 39515 40102 58007 333 91111 91207;
0128066360999992010010802004+46983+007283FM-12+048399999V0201101N002119999999N9999999N1-00191-00331101041ADDMA1999999095161MD1719999+9999OA149900571REMSYN076AAXX  08024 06636 33/// /1104 11019 21033 39516 40104 57/// 333 91111 91207;
0128066360999992010010803004+46983+007283FM-12+048399999V0201001N001519999999N9999999N1-00191-00301101001ADDMA1999999095121MD1719999+9999OA149900571REMSYN076AAXX  08034 06636 33/// /1003 11019 21030 39512 40100 57/// 333 91111 91207;
0128066360999992010010804004+46983+007283FM-12+048399999V0201001N002119999999N9999999N1-00161-00311100931ADDMA1999999095061MD1710091+9999OA149900511REMSYN076AAXX  08044 06636 33/// /1004 11016 21031 39506 40093 57009 333 91110 91205;
0145066360999992010010805004+46983+007283FM-12+048399999V0200901N002619999999N9999999N1-00151-00341100861ADDAA101000021MA1999999095001MD1810161+9999OA149900721REMSYN082AAXX  08054 06636 23/// /0905 11015 21034 39500 40086 58016 333 69915 91114 91207;
0264066360999992010010806004+46983+007283FM-12+048399999V0200901N002619999999N9999999N1-00171-00361100821ADDAA112000091AA224000091AL10600091GJ100609IA2999-00509KA1999N-00251MA1999999094951MD1610171+9999OA149900721REMSYN112AAXX  08064 06636 03/// /0905 11017 21036 39495 40082 56017 69912 333 21025 3/105 55010 60005 70001 91114 91207;EQDQ01  00002PRCP24Q02  00002PRCP12
0145066360999992010010807004+46983+007283FM-12+048399999V0200801N002619999999N9999999N1-00201-00341100781ADDAA101000021MA1999999094911MD1710151+9999OA149900771REMSYN082AAXX  08074 06636 23/// /0805 11020 21034 39491 40078 57015 333 69915 91115 91206;
0145066360999992010010808004+46983+007283FM-12+048399999V0200901N003119999999N9999999N1-00181-00381100721ADDAA101000021MA1999999094861MD1710141+9999OA149900771REMSYN082AAXX  08084 06636 23/// /0906 11018 21038 39486 40072 57014 333 69925 91115 91206;
0128066360999992010010809004+46983+007283FM-12+048399999V0200901N002619999999N9999999N1-00181-00371100691ADDMA1999999094831MD1810121+9999OA149900771REMSYN076AAXX  08094 06636 33/// /0905 11018 21037 39483 40069 58012 333 91115 91207;
0128066360999992010010810004+46983+007283FM-12+048399999V0200801N003119999999N9999999N1-00201-00381100661ADDMA1999999094801MD1610111+9999OA149900821REMSYN076AAXX  08104 06636 33/// /0806 11020 21038 39480 40066 56011 333 91116 91206;
0128066360999992010010811004+46983+007283FM-12+048399999V0200901N003119999999N9999999N1-00231-00461100621ADDMA1999999094751MD1810111+9999OA149901081REMSYN076AAXX  08114 06636 33/// /0906 11023 21046 39475 40062 58011 333 91121 91209;
0151066360999992010010812004+46983+007283FM-12+048399999V0200801N003619999999N9999999N1-00221-00491100541ADDAA106000391MA1999999094681MD1810151+9999OA149901131REMSYN088AAXX  08124 06636 03/// /0807 11022 21049 39468 40054 58015 69931 333 60005 91122 91209;
0128066360999992010010813004+46983+007283FM-12+048399999V0200801N002619999999N9999999N1-00211-00481100501ADDMA1999999094641MD1610161+9999OA149901131REMSYN076AAXX  08134 06636 33/// /0805 11021 21048 39464 40050 56016 333 91122 91208;
0134066360999992010010814004+46983+007283FM-12+048399999V0200801N003119999999N9999999N1-00211-00471100461ADDMA1999999094611MD1619999+9999OA149900931REMSYN082AAXX  08144 06636 33/// /0806 11021 21047 39461 40046 56/// 91340 333 91118 91207;
0128066360999992010010815004+46983+007283FM-12+048399999V0201001N002619999999N9999999N1-00201-00451100511ADDMA1999999094661MD1510021+9999OA149901131REMSYN076AAXX  08154 06636 33/// /1005 11020 21045 39466 40051 55002 333 91122 91209;
0128066360999992010010816004+46983+007283FM-12+048399999V0200801N003619999999N9999999N1-00191-00431100571ADDMA1999999094711MD1210071+9999OA149900931REMSYN076AAXX  08164 06636 33/// /0807 11019 21043 39471 40057 52007 333 91118 91209;
0128066360999992010010817004+46983+007283FM-12+048399999V0200801N003119999999N9999999N1-00201-00421100571ADDMA1999999094711MD1210091+9999OA149900821REMSYN076AAXX  08174 06636 33/// /0806 11020 21042 39471 40057 52009 333 91116 91208;
0170066360999992010010818004+46983+007283FM-12+048399999V0200701N002619999999N9999999N1-00221-00411100541ADDAA112000391KA1120M-00161MA1999999094681MD1010021+9999OA149901131REMSYN094AAXX  08184 06636 03/// /0705 11022 21041 39468 40054 50002 69932 333 11016 60005 91122 91209;
0145066360999992010010819004+46983+007283FM-12+048399999V0200901N003119999999N9999999N1-00241-00411100561ADDAA101000021MA1999999094691MD1710021+9999OA149901181REMSYN082AAXX  08194 06636 23/// /0906 11024 21041 39469 40056 57002 333 69915 91123 91208;
0145066360999992010010820004+46983+007283FM-12+048399999V0201001N003619999999N9999999N1-00251-00491100571ADDAA101000021MA1999999094701MD1510011+9999OA149901181REMSYN082AAXX  08204 06636 23/// /1007 11025 21049 39470 40057 55001 333 69915 91123 91207;
0128066360999992010010821004+46983+007283FM-12+048399999V0200901N003619999999N9999999N1-00281-00501100601ADDMA1999999094721MD1110041+9999OA149901181REMSYN076AAXX  08214 06636 33/// /0907 11028 21050 39472 40060 51004 333 91123 91208;
0145066360999992010010822004+46983+007283FM-12+048399999V0201001N003619999999N9999999N1-00311-00511100621ADDAA101000021MA1999999094741MD1210051+9999OA149900931REMSYN082AAXX  08224 06636 23/// /1007 11031 21051 39474 40062 52005 333 69915 91118 91207;
0145066360999992010010823004+46983+007283FM-12+048399999V0201001N004119999999N9999999N1-00321-00571100641ADDAA101000021MA1999999094751MD1210051+9999OA149900881REMSYN082AAXX  08234 06636 23/// /1008 11032 21057 39475 40064 52005 333 69915 91117 91208;
0151066360999992010010900004+46983+007283FM-12+048399999V0200801N003119999999N9999999N1-00341-00591100601ADDAA106000591MA1999999094711MD1010011+9999OA149901181REMSYN088AAXX  09004 06636 03/// /0806 11034 21059 39471 40060 50001 69941 333 60005 91123 91209;
0128066360999992010010901004+46983+007283FM-12+048399999V0200901N003119999999N9999999N1-00351-00601100621ADDMA1999999094731MD1710011+9999OA149900931REMSYN076AAXX  09014 06636 33/// /0906 11035 21060 39473 40062 57001 333 91118 91208;
0128066360999992010010902004+46983+007283FM-12+048399999V0201001N004619999999N9999999N1-00351-00621100621ADDMA1999999094731MD1519999+9999OA149900881REMSYN076AAXX  09024 06636 33/// /1009 11035 21062 39473 40062 55/// 333 91117 91209;
0128066360999992010010903004+46983+007283FM-12+048399999V0200801N003119999999N9999999N1-00381-00641100651ADDMA1999999094751MD1019999+9999OA149900931REMSYN076AAXX  09034 06636 33/// /0806 11038 21064 39475 40065 50/// 333 91118 91209;
0128066360999992010010904004+46983+007283FM-12+048399999V0200701N003119999999N9999999N1-00401-00631100601ADDMA1999999094701MD1810031+9999OA149900931REMSYN076AAXX  09044 06636 33/// /0706 11040 21063 39470 40060 58003 333 91118 91209;
0128066360999992010010905004+46983+007283FM-12+048399999V0200901N002119999999N9999999N1-00421-00621100581ADDMA1999999094671MD1710061+9999OA149900931REMSYN076AAXX  09054 06636 33/// /0904 11042 21062 39467 40058 57006 333 91118 91208;
0229066360999992010010906004+46983+007283FM-12+048399999V0200701N001519999999N9999999N1-00421-00631100521ADDAA112000591AA224000891AL14200091GJ100009IA2999-00309KA1999N-00421MA1999999094621MD1710131+9999OA149901181REMSYN112AAXX  09064 06636 03/// /0703 11042 21063 39462 40052 57013 69942 333 21042 3/103 55000 60005 70007 91123 91209;
0128066360999992010010907004+46983+007283FM-12+048399999V0200801N001519999999N9999999N1-00431-00641100551ADDMA1999999094641MD1710061+9999OA149900771REMSYN076AAXX  09074 06636 33/// /0803 11043 21064 39464 40055 57006 333 91115 91205;
0128066360999992010010908004+46983+007283FM-12+048399999V0200501N002119999999N9999999N1-00441-00651100581ADDMA1999999094671MD1510001+9999OA149900771REMSYN076AAXX  09084 06636 33/// /0504 11044 21065 39467 40058 55000 333 91115 91205;
0128066360999992010010909004+46983+007283FM-12+048399999V0200401N003119999999N9999999N1-00451-00671100611ADDMA1999999094701MD1310081+9999OA149900931REMSYN076AAXX  09094 06636 33/// /0406 11045 21067 39470 40061 53008 333 91118 91208;
0128066360999992010010910004+46983+007283FM-12+048399999V0200401N003119999999N9999999N1-00451-00681100631ADDMA1999999094711MD1210071+9999OA149900881REMSYN076AAXX  09104 06636 33/// /0406 11045 21068 39471 40063 52007 333 91117 91206;
0128066360999992010010911004+46983+007283FM-12+048399999V0200501N003119999999N9999999N1-00451-00661100571ADDMA1999999094661MD1810011+9999OA149900881REMSYN076AAXX  09114 06636 33/// /0506 11045 21066 39466 40057 58001 333 91117 91206;
0128066360999992010010912004+46983+007283FM-12+048399999V0200601N003119999999N9999999N1-00451-00681100561ADDMA1999999094651MD1710051+9999OA149900931REMSYN076AAXX  09124 06636 33/// /0606 11045 21068 39465 40056 57005 333 91118 91209;
0128066360999992010010913004+46983+007283FM-12+048399999V0200701N002619999999N9999999N1-00441-00681100531ADDMA1999999094621MD1610091+9999OA149900931REMSYN076AAXX  09134 06636 33/// /0705 11044 21068 39462 40053 56009 333 91118 91209;
0128066360999992010010914004+46983+007283FM-12+048399999V0200801N002119999999N9999999N1-00421-00671100551ADDMA1999999094651MD1510011+9999OA149900931REMSYN076AAXX  09144 06636 33/// /0804 11042 21067 39465 40055 55001 333 91118 91207;
0128066360999992010010915004+46983+007283FM-12+048399999V0201101N003119999999N9999999N1-00431-00671100591ADDMA1999999094681MD1310031+9999OA149900931REMSYN076AAXX  09154 06636 33/// /1106 11043 21067 39468 40059 53003 333 91118 91209;
0128066360999992010010916004+46983+007283FM-12+048399999V0201001N002119999999N9999999N1-00441-00661100611ADDMA1999999094701MD1110081+9999OA149900671REMSYN076AAXX  09164 06636 33/// /1004 11044 21066 39470 40061 51008 333 91113 91206;
0128066360999992010010917004+46983+007283FM-12+048399999V0200801N002619999999N9999999N1-00431-00681100611ADDMA1999999094701MD1210051+9999OA149900671REMSYN076AAXX  09174 06636 33/// /0805 11043 21068 39470 40061 52005 333 91113 91206;
0189066360999992010010918004+46983+007283FM-12+048399999V0200901N001519999999N9999999N1-00471-00611100641ADDAA112000091KA1120M-00421MA1999999094721MD1210041+9999OA149900931REMSYN094AAXX  09184 06636 03/// /0903 11047 21061 39472 40064 52004 69912 333 11042 69915 91118 91209;EQDQ01  00002PRCP12
0128066360999992010010919004+46983+007283FM-12+048399999V0203401N002119999999N9999999N1-00491-00651100721ADDMA1999999094791MD1210091+9999OA149900461REMSYN076AAXX  09194 06636 33/// /3404 11049 21065 39479 40072 52009 333 91109 91204;
0145066360999992010010920004+46983+007283FM-12+048399999V0202401N000519999999N9999999N1-00481-00641100751ADDAA101000021MA1999999094821MD1310121+9999OA149900411REMSYN082AAXX  09204 06636 23/// /2401 11048 21064 39482 40075 53012 333 69915 91108 91204;
0128066360999992010010921004+46983+007283FM-12+048399999V0202501N000519999999N9999999N1-00471-00601100791ADDMA1999999094861MD1110141+9999OA149900671REMSYN076AAXX  09214 06636 33/// /2501 11047 21060 39486 40079 51014 333 91113 91206;
0128066360999992010010922004+46983+007283FM-12+048399999V0201001N001519999999N9999999N1-00481-00641100811ADDMA1999999094881MD1110091+9999OA149900311REMSYN076AAXX  09224 06636 33/// /1003 11048 21064 39488 40081 51009 333 91106 91203;
0145066360999992010010923004+46983+007283FM-12+048399999V0209999C000019999999N9999999N1-00481-00601100861ADDAA101000021MA1999999094921MD1310101+9999OA149900311REMSYN082AAXX  09234 06636 23/// /0000 11048 21060 39492 40086 53010 333 69925 91106 91203;
0151066360999992010011000004+46983+007283FM-12+048399999V0203301N000519999999N9999999N1-00491-00601100891ADDAA106000591MA1999999094951MD1210091+9999OA149900931REMSYN088AAXX  10004 06636 03/// /3301 11049 21060 39495 40089 52009 69951 333 69925 91118 91207;
0128066360999992010011001004+46983+007283FM-12+048399999V0202401N000519999999N9999999N1-00501-00611100931ADDMA1999999094991MD1210111+9999OA149900101REMSYN076AAXX  10014 06636 33/// /2401 11050 21061 39499 40093 52011 333 91102 91201;
0108066360999992010011002004+46983+007283FM-12+048399999V0209999C000019999999N9999999N1-00501-00591101001ADDAA101000021MA1999999095051REMSYN070AAXX  10024 06636 23/// /0000 11050 21059 39505 40100 5//// 333 69915;
0087066360999992010011003004+46983+007283FM-12+048399999V0209999C000019999999N9999999N1-00501-00601101041ADDMA1999999095091REMSYN060AAXX  10034 06636 43/// /0000 11050 21060 39509 40104 5////;
0145066360999992010011004004+46983+007283FM-12+048399999V0209999C000019999999N9999999N1-00551-00631101091ADDAA101000021MA1999999095131MD1110141+9999OA149900051REMSYN082AAXX  10044 06636 23/// /0000 11055 21063 39513 40109 51014 333 69915 91101 91201;
0128066360999992010011005004+46983+007283FM-12+048399999V0203301N000519999999N9999999N1-00631-00711101181ADDMA1999999095191MD1310141+9999OA149900051REMSYN076AAXX  10054 06636 33/// /3301 11063 21071 39519 40118 53014 333 91101 91201;
0229066360999992010011006004+46983+007283FM-12+048399999V0203401N000519999999N9999999N1-00631-00721101211ADDAA112000891AA224000891AL14800091GJ100009IA2999-00509KA1999N-00641MA1999999095221MD1110131+9999OA149900411REMSYN112AAXX  10064 06636 03/// /3401 11063 21072 39522 40121 51013 69972 333 21064 3/105 55000 60005 70008 91108 91204;
0128066360999992010011007004+46983+007283FM-12+048399999V0209999C000019999999N9999999N1-00651-00741101321ADDMA1999999095321MD1310191+9999OA149900101REMSYN076AAXX  10074 06636 33/// /0000 11065 21074 39532 40132 53019 333 91102 91201;
0128066360999992010011008004+46983+007283FM-12+048399999V0209999C000019999999N9999999N1-00751-00831101411ADDMA1999999095381MD1219999+9999OA149900101REMSYN076AAXX  10084 06636 33/// /0000 11075 21083 39538 40141 52/// 333 91102 91201;
0128066360999992010011009004+46983+007283FM-12+048399999V0201101N001019999999N9999999N1-00611-00721101461ADDMA1999999095461MD1210241+9999OA149900211REMSYN076AAXX  10094 06636 33/// /1102 11061 21072 39546 40146 52024 333 91104 91202;
0128066360999992010011010004+46983+007283FM-12+048399999V0201201N001519999999N9999999N1-00501-00701101501ADDMA1999999095521MD1110201+9999OA149900261REMSYN076AAXX  10104 06636 33/// /1203 11050 21070 39552 40150 51020 333 91105 91203;
0128066360999992010011011004+46983+007283FM-12+048399999V0201301N001019999999N9999999N1-00441-00691101501ADDMA1999999095541MD1210161+9999OA149900261REMSYN076AAXX  10114 06636 33/// /1302 11044 21069 39554 40150 52016 333 91105 91203;
0128066360999992010011012004+46983+007283FM-12+048399999V0201201N001519999999N9999999N1-00391-00691101511ADDMA1999999095561MD1210101+9999OA149900261REMSYN076AAXX  10124 06636 33/// /1203 11039 21069 39556 40151 52010 333 91105 91203;
0128066360999992010011013004+46983+007283FM-12+048399999V0200901N001019999999N9999999N1-00361-00661101531ADDMA1999999095581MD1110061+9999OA149900261REMSYN076AAXX  10134 06636 33/// /0902 11036 21066 39558 40153 51006 333 91105 91203;
0128066360999992010011014004+46983+007283FM-12+048399999V0209999C000019999999N9999999N1-00291-00671101551ADDMA1999999095621MD1319999+9999OA149900261REMSYN076AAXX  10144 06636 33/// /0000 11029 21067 39562 40155 53/// 333 91105 91203;
0128066360999992010011015004+46983+007283FM-12+048399999V0201501N000519999999N9999999N1-00311-00711101601ADDMA1999999095661MD1310101+9999OA149900261REMSYN076AAXX  10154 06636 33/// /1501 11031 21071 39566 40160 53010 333 91105 91203;
0128066360999992010011016004+46983+007283FM-12+048399999V0209999C000019999999N9999999N1-00481-00671101671ADDMA1999999095691MD1310111+9999OA149900151REMSYN076AAXX  10164 06636 33/// /0000 11048 21067 39569 40167 53011 333 91103 91202;
0128066360999992010011017004+46983+007283FM-12+048399999V0209999C000019999999N9999999N1-00431-00621101701ADDMA1999999095731MD1310111+9999OA149900151REMSYN076AAXX  10174 06636 33/// /0000 11043 21062 39573 40170 53011 333 91103 91202;
0147066360999992010011018004+46983+007283FM-12+048399999V0209999C000019999999N9999999N1-00431-00621101741ADDKA1120M-00251MA1999999095761MD1110101+9999OA149900261REMSYN082AAXX  10184 06636 33/// /0000 11043 21062 39576 40174 51010 333 11025 91105 91203;
0128066360999992010011019004+46983+007283FM-12+048399999V0209999C000019999999N9999999N1-00421-00611101751ADDMA1999999095781MD1210091+9999OA149900101REMSYN076AAXX  10194 06636 33/// /0000 11042 21061 39578 40175 52009 333 91102 91201;
0128066360999992010011020004+46983+007283FM-12+048399999V0201001N000519999999N9999999N1-00431-00631101751ADDMA1999999095771MD1210041+9999OA149900101REMSYN076AAXX  10204 06636 33/// /1001 11043 21063 39577 40175 52004 333 91102 91201;
0128066360999992010011021004+46983+007283FM-12+048399999V0203501N000519999999N9999999N1-00441-00631101751ADDMA1999999095771MD1010011+9999OA149900151REMSYN076AAXX  10214 06636 33/// /3501 11044 21063 39577 40175 50001 333 91103 91202;
0128066360999992010011022004+46983+007283FM-12+048399999V0209999C000019999999N9999999N1-00491-00651101741ADDMA1999999095751MD1710031+9999OA149900101REMSYN076AAXX  10224 06636 33/// /0000 11049 21065 39575 40174 57003 333 91102 91201;
0128066360999992010011023004+46983+007283FM-12+048399999V0209999C000019999999N9999999N1-00481-00601101781ADDMA1999999095791MD1310021+9999OA149900101REMSYN076AAXX  10234 06636 33/// /0000 11048 21060 39579 40178 53002 333 91102 91201;
0128066360999992010011100004+46983+007283FM-12+048399999V0209999C000019999999N9999999N1-00501-00661101821ADDMA1999999095821MD1210051+9999OA149900261REMSYN076AAXX  11004 06636 33/// /0000 11050 21066 39582 40182 52005 333 91105 91203;
0128066360999992010011101004+46983+007283FM-12+048399999V0202601N000519999999N9999999N1-00491-00601101841ADDMA1999999095841MD1210091+9999OA149900101REMSYN076AAXX  11014 06636 33/// /2601 11049 21060 39584 40184 52009 333 91102 91202;
0128066360999992010011102004+46983+007283FM-12+048399999V0209999C000019999999N9999999N1-00591-00691101841ADDMA1999999095821MD1019999+9999OA149900101REMSYN076AAXX  11024 06636 33/// /0000 11059 21069 39582 40184 50/// 333 91102 91202;
0128066360999992010011103004+46983+007283FM-12+048399999V0200401N000519999999N9999999N1-00641-00761101851ADDMA1999999095821MD1019999+9999OA149900101REMSYN076AAXX  11034 06636 33/// /0401 11064 21076 39582 40185 50/// 333 91102 91202;
0128066360999992010011104004+46983+007283FM-12+048399999V0201001N000519999999N9999999N1-00561-00721101821ADDMA1999999095811MD1710031+9999OA149900261REMSYN076AAXX  11044 06636 33/// /1001 11056 21072 39581 40182 57003 333 91105 91203;
0128066360999992010011105004+46983+007283FM-12+048399999V0200901N001019999999N9999999N1-00521-00681101801ADDMA1999999095801MD1710021+9999OA149900261REMSYN076AAXX  11054 06636 33/// /0902 11052 21068 39580 40180 57002 333 91105 91203;
0225066360999992010011106004+46983+007283FM-12+048399999V0200901N001019999999N9999999N1-00501-00661101771ADDAA124000091AL19900091GJ100429IA2999-00609KA1999N-00661MA1999999095781MD1710041+9999OA149900261REMSYN100AAXX  11064 06636 33/// /0902 11050 21066 39578 40177 57004 333 21066 3/106 55007 70000 91105 91203;EQDQ01  00002PRCP24
0128066360999992010011107004+46983+007283FM-12+048399999V0200901N000519999999N9999999N1-00491-00631101771ADDMA1999999095781MD1710031+9999OA149900211REMSYN076AAXX  11074 06636 33/// /0901 11049 21063 39578 40177 57003 333 91104 91202;
0128066360999992010011108004+46983+007283FM-12+048399999V0209999C000019999999N9999999N1-00461-00661101801ADDMA1999999095811MD1319999+9999OA149900211REMSYN076AAXX  11084 06636 33/// /0000 11046 21066 39581 40180 53/// 333 91104 91202;
0128066360999992010011109004+46983+007283FM-12+048399999V0200901N000519999999N9999999N1-00391-00651101821ADDMA1999999095851MD1210071+9999OA149900261REMSYN076AAXX  11094 06636 33/// /0901 11039 21065 39585 40182 52007 333 91105 91203;
0128066360999992010011110004+46983+007283FM-12+048399999V0203201N001019999999N9999999N1-00341-00731101841ADDMA1999999095881MD1119999+9999OA149900151REMSYN076AAXX  11104 06636 33/// /3202 11034 21073 39588 40184 51/// 333 91103 91202;
0128066360999992010011111004+46983+007283FM-12+048399999V0201701N000519999999N9999999N1-00321-00711101841ADDMA1999999095881MD1210071+9999OA149900151REMSYN076AAXX  11114 06636 33/// /1701 11032 21071 39588 40184 52007 333 91103 91202;
0128066360999992010011112004+46983+007283FM-12+048399999V0201701N000519999999N9999999N1-00271-00671101771ADDMA1999999095831MD1810021+9999OA149900261REMSYN076AAXX  11124 06636 33/// /1701 11027 21067 39583 40177 58002 333 91105 91203;
0128066360999992010011113004+46983+007283FM-12+048399999V0202801N001519999999N9999999N1-00281-00661101741ADDMA1999999095801MD1710081+9999OA149900361REMSYN076AAXX  11134 06636 33/// /2803 11028 21066 39580 40174 57008 333 91107 91203;
0087066360999992010011114004+46983+007283FM-12+048399999V0202701N002619999999N9999999N1-00271-00601101771ADDMA1999999095831REMSYN060AAXX  11144 06636 33/// /2705 11027 21060 39583 40177 5////;
0128066360999992010011115004+46983+007283FM-12+048399999V0203001N001519999999N9999999N1-00251-00581101801ADDMA1999999095861MD1310031+9999OA149900411REMSYN076AAXX  11154 06636 33/// /3003 11025 21058 39586 40180 53003 333 91108 91205;
0128066360999992010011116004+46983+007283FM-12+048399999V0202401N000519999999N9999999N1-00271-00581101821ADDMA1999999095871MD1210071+9999OA149900361REMSYN076AAXX  11164 06636 33/// /2401 11027 21058 39587 40182 52007 333 91107 91203;
0128066360999992010011117004+46983+007283FM-12+048399999V0203401N000519999999N9999999N1-00321-00541101861ADDMA1999999095901MD1210071+9999OA149900151REMSYN076AAXX  11174 06636 33/// /3401 11032 21054 39590 40186 52007 333 91103 91201;
0147066360999992010011118004+46983+007283FM-12+048399999V0203301N000519999999N9999999N1-00331-00531101891ADDKA1120M-00251MA1999999095931MD1210071+9999OA149900411REMSYN082AAXX  11184 06636 33/// /3301 11033 21053 39593 40189 52007 333 11025 91108 91205;
0128066360999992010011119004+46983+007283FM-12+048399999V0209999C000019999999N9999999N1-00371-00531101921ADDMA1999999095951MD1210081+9999OA149900101REMSYN076AAXX  11194 06636 33/// /0000 11037 21053 39595 40192 52008 333 91102 91201;
0128066360999992010011120004+46983+007283FM-12+048399999V0203301N000519999999N9999999N1-00411-00581101971ADDMA1999999095981MD1210081+9999OA149900101REMSYN076AAXX  11204 06636 33/// /3301 11041 21058 39598 40197 52008 333 91102 91201;
0128066360999992010011121004+46983+007283FM-12+048399999V0202501N000519999999N9999999N1-00381-00551101981ADDMA1999999096001MD1210071+9999OA149900151REMSYN076AAXX  11214 06636 33/// /2501 11038 21055 39600 40198 52007 333 91103 91201;
0128066360999992010011122004+46983+007283FM-12+048399999V0209999C000019999999N9999999N1-00361-00511101991ADDMA1999999096011MD1210061+9999OA149900051REMSYN076AAXX  11224 06636 33/// /0000 11036 21051 39601 40199 52006 333 91101 91201;
0128066360999992010011123004+46983+007283FM-12+048399999V0202501N000519999999N9999999N1-00351-00531101991ADDMA1999999096021MD1210041+9999OA149900101REMSYN076AAXX  11234 06636 33/// /2501 11035 21053 39602 40199 52004 333 91102 91201;
0128066360999992010011200004+46983+007283FM-12+048399999V0202401N001019999999N9999999N1-00351-00551101991ADDMA1999999096021MD1010021+9999OA149900411REMSYN076AAXX  12004 06636 33/// /2402 11035 21055 39602 40199 50002 333 91108 91205;
0128066360999992010011201004+46983+007283FM-12+048399999V0202801N000519999999N9999999N1-00351-00551101971ADDMA1999999096001MD1710011+9999OA149900261REMSYN076AAXX  12014 06636 33/// /2801 11035 21055 39600 40197 57001 333 91105 91203;
0128066360999992010011202004+46983+007283FM-12+048399999V0201001N001519999999N9999999N1-00351-00531101951ADDMA1999999095981MD1719999+9999OA149900261REMSYN076AAXX  12024 06636 33/// /1003 11035 21053 39598 40195 57/// 333 91105 91203;
0128066360999992010011203004+46983+007283FM-12+048399999V0209999C000019999999N9999999N1-00371-00521101971ADDMA1999999095991MD1710031+9999OA149900261REMSYN076AAXX  12034 06636 33/// /0000 11037 21052 39599 40197 57003 333 91105 91203;
0128066360999992010011204004+46983+007283FM-12+048399999V0209999C000019999999N9999999N1-00341-00511101921ADDMA1999999095951MD1710051+9999OA149900151REMSYN076AAXX  12044 06636 33/// /0000 11034 21051 39595 40192 57005 333 91103 91202;
0128066360999992010011205004+46983+007283FM-12+048399999V0200801N000519999999N9999999N1-00321-00511101901ADDMA1999999095941MD1710041+9999OA149900151REMSYN076AAXX  12054 06636 33/// /0801 11032 21051 39594 40190 57004 333 91103 91202;
0225066360999992010011206004+46983+007283FM-12+048399999V0209999C000019999999N9999999N1-00311-00501101861ADDAA124000091AL19900091GJ100009IA2999-00409KA1999N-00441MA1999999095901MD1710091+9999OA149900261REMSYN100AAXX  12064 06636 33/// /0000 11031 21050 39590 40186 57009 333 21044 3/104 55000 70000 91105 91203;EQDQ01  00002PRCP24
0128066360999992010011207004+46983+007283FM-12+048399999V0200801N001019999999N9999999N1-00301-00491101791ADDMA1999999095841MD1710111+9999OA149900151REMSYN076AAXX  12074 06636 33/// /0802 11030 21049 39584 40179 57011 333 91103 91202;
0128066360999992010011208004+46983+007283FM-12+048399999V0200901N001019999999N9999999N1-00291-00481101741ADDMA1999999095791MD1719999+9999OA149900151REMSYN076AAXX  12084 06636 33/// /0902 11029 21048 39579 40174 57/// 333 91103 91202;
0128066360999992010011209004+46983+007283FM-12+048399999V0209999C000019999999N9999999N1-00261-00481101691ADDMA1999999095751MD1710151+9999OA149900151REMSYN076AAXX  12094 06636 33/// /0000 11026 21048 39575 40169 57015 333 91103 91202;
0128066360999992010011210004+46983+007283FM-12+048399999V0209999C000019999999N9999999N1-00231-00461101621ADDMA1999999095691MD1710151+9999OA149900101REMSYN076AAXX  12104 06636 33/// /0000 11023 21046 39569 40162 57015 333 91102 91201;
0128066360999992010011211004+46983+007283FM-12+048399999V0209999C000019999999N9999999N1-00221-00481101531ADDMA1999999095611MD1810181+9999OA149900151REMSYN076AAXX  12114 06636 33/// /0000 11022 21048 39561 40153 58018 333 91103 91202;
0128066360999992010011212004+46983+007283FM-12+048399999V0209999C000019999999N9999999N1-00211-00471101461ADDMA1999999095551MD1710201+9999OA149900261REMSYN076AAXX  12124 06636 33/// /0000 11021 21047 39555 40146 57020 333 91105 91203;
0128066360999992010011213004+46983+007283FM-12+048399999V0202501N001019999999N9999999N1-00221-00481101381ADDMA1999999095471MD1710221+9999OA149900151REMSYN076AAXX  12134 06636 33/// /2502 11022 21048 39547 40138 57022 333 91103 91202;
0087066360999992010011214004+46983+007283FM-12+048399999V0202601N001019999999N9999999N1-00231-00491101281ADDMA1999999095371REMSYN060AAXX  12144 06636 33/// /2602 11023 21049 39537 40128 5////;
0128066360999992010011215004+46983+007283FM-12+048399999V0200301N000519999999N9999999N1-00241-00481101211ADDMA1999999095311MD1610241+9999OA149900261REMSYN076AAXX  12154 06636 33/// /0301 11024 21048 39531 40121 56024 333 91105 91203;
0128066360999992010011216004+46983+007283FM-12+048399999V0200601N001519999999N9999999N1-00261-00481101091ADDMA1999999095191MD1810281+9999OA149900311REMSYN076AAXX  12164 06636 33/// /0603 11026 21048 39519 40109 58028 333 91106 91203;
0128066360999992010011217004+46983+007283FM-12+048399999V0209999C000019999999N9999999N1-00271-00501101071ADDMA1999999095171MD1710201+9999OA149900311REMSYN076AAXX  12174 06636 33/// /0000 11027 21050 39517 40107 57020 333 91106 91203;
0147066360999992010011218004+46983+007283FM-12+048399999V0200201N001519999999N9999999N1-00281-00501101031ADDKA1120M-00211MA1999999095131MD1710181+9999OA149900311REMSYN082AAXX  12184 06636 33/// /0203 11028 21050 39513 40103 57018 333 11021 91106 91203;
0128066360999992010011219004+46983+007283FM-12+048399999V0200101N001019999999N9999999N1-00301-00511101031ADDMA1999999095121MD1710071+9999OA149900261REMSYN076AAXX  12194 06636 33/// /0102 11030 21051 39512 40103 57007 333 91105 91203;
0128066360999992010011220004+46983+007283FM-12+048399999V0203201N001519999999N9999999N1-00301-00511100971ADDMA1999999095071MD1710101+9999OA149900261REMSYN076AAXX  12204 06636 33/// /3203 11030 21051 39507 40097 57010 333 91105 91203;
0128066360999992010011221004+46983+007283FM-12+048399999V0203301N001019999999N9999999N1-00311-00501100921ADDMA1999999095021MD1710111+9999OA149900311REMSYN076AAXX  12214 06636 33/// /3302 11031 21050 39502 40092 57011 333 91106 91203;
0128066360999992010011222004+46983+007283FM-12+048399999V0202601N000519999999N9999999N1-00321-00501100871ADDMA1999999094971MD1710151+9999OA149900211REMSYN076AAXX  12224 06636 33/// /2601 11032 21050 39497 40087 57015 333 91104 91203;
0128066360999992010011223004+46983+007283FM-12+048399999V0202701N001019999999N9999999N1-00311-00481100921ADDMA1999999095021MD1510051+9999OA149900211REMSYN076AAXX  12234 06636 33/// /2702 11031 21048 39502 40092 55005 333 91104 91202;
0147066360999992010011300004+46983+007283FM-12+048399999V0209999C000019999999N9999999N1-00321-00491100921ADDMA1999999095021MD1410001+9999OA149900311REMSYN076AAXX  13004 06636 33/// /0000 11032 21049 39502 40092 53000 333 91106 91203;EQDQ01+000032APCTEN
0128066360999992010011301004+46983+007283FM-12+048399999V0200801N001019999999N9999999N1-00301-00471100891ADDMA1999999094991MD1010021+9999OA149900261REMSYN076AAXX  13014 06636 33/// /0802 11030 21047 39499 40089 50002 333 91105 91203;
0128066360999992010011302004+46983+007283FM-12+048399999V0200701N001019999999N9999999N1-00301-00471100821ADDMA1999999094931MD1719999+9999OA149900261REMSYN076AAXX  13024 06636 33/// /0702 11030 21047 39493 40082 57/// 333 91105 91203;
0128066360999992010011303004+46983+007283FM-12+048399999V0209999C000019999999N9999999N1-00301-00401100761ADDMA1999999094871MD1719999+9999OA149900311REMSYN076AAXX  13034 06636 33/// /0000 11030 21040 39487 40076 57/// 333 91106 91203;
0145066360999992010011304004+46983+007283FM-12+048399999V0202201N000519999999N9999999N1-00311-00381100751ADDAA101000021MA1999999094861MD1710131+9999OA149900311REMSYN082AAXX  13044 06636 23/// /2201 11031 21038 39486 40075 57013 333 69915 91106 91202;
0145066360999992010011305004+46983+007283FM-12+048399999V0202901N001019999999N9999999N1-00311-00391100761ADDAA101000591MA1999999094871MD1510061+9999OA149900151REMSYN082AAXX  13054 06636 23/// /2902 11031 21039 39487 40076 55006 333 69945 91103 91202;
0229066360999992010011306004+46983+007283FM-12+048399999V0209999C000019999999N9999999N1-00311-00371100781ADDAA112001091AA224001091AL19900191GJ100009IA2999-00309KA1999N-00331MA1999999094891MD1310021+9999OA149900311REMSYN112AAXX  13064 06636 03/// /0000 11031 21037 39489 40078 53002 60012 333 21033 3/103 55000 69995 70010 91106 91203;
0145066360999992010011307004+46983+007283FM-12+048399999V0201001N000519999999N9999999N1-00291-00351100851ADDAA101000591MA1999999094961MD1210101+9999OA149900151REMSYN082AAXX  13074 06636 23/// /1001 11029 21035 39496 40085 52010 333 69965 91103 91202;
0145066360999992010011308004+46983+007283FM-12+048399999V0201101N000519999999N9999999N1-00271-00331100901ADDAA101000591MA1999999095011MD1210141+9999OA149900101REMSYN082AAXX  13084 06636 23/// /1101 11027 21033 39501 40090 52014 333 69945 91102 91201;
0145066360999992010011309004+46983+007283FM-12+048399999V0209999C000019999999N9999999N1-00231-00291100961ADDAA101000591MA1999999095071MD1310181+9999OA149900151REMSYN082AAXX  13094 06636 23/// /0000 11023 21029 39507 40096 53018 333 69955 91103 91202;
0145066360999992010011310004+46983+007283FM-12+048399999V0209999C000019999999N9999999N1-00171-00271100991ADDAA101000021MA1999999095111MD1110151+9999OA149900101REMSYN082AAXX  13104 06636 23/// /0000 11017 21027 39511 40099 51015 333 69915 91102 91201;
0145066360999992010011311004+46983+007283FM-12+048399999V0209999C000019999999N9999999N1-00111-00221100991ADDAA101000021MA1999999095131MD1110121+9999OA149900051REMSYN082AAXX  13114 06636 23/// /0000 11011 21022 39513 40099 51012 333 69915 91101 91200;
0151066360999992010011312004+46983+007283FM-12+048399999V0203501N000519999999N9999999N1-00071-00171100961ADDAA106002091MA1999999095111MD1010041+9999OA149900311REMSYN088AAXX  13124 06636 03/// /3501 11007 21017 39511 40096 50004 60021 333 69935 91106 91203;
0145066360999992010011313004+46983+007283FM-12+048399999V0209999C000019999999N9999999N1-00031-00111100941ADDAA101000591MA1999999095101MD1710011+9999OA149900101REMSYN082AAXX  13134 06636 23/// /0000 11003 21011 39510 40094 57001 333 69945 91102 91201;
0145066360999992010011314004+46983+007283FM-12+048399999V0203501N000519999999N9999999N1+00001-00101100961ADDAA101000391MA1999999095121MD1519999+9999OA149900101REMSYN082AAXX  13144 06636 23/// /3501 10000 21010 39512 40096 55/// 333 69935 91102 91201;
0145066360999992010011315004+46983+007283FM-12+048399999V0209999C000019999999N9999999N1+00001-00081100991ADDAA101000021MA1999999095151MD1210041+9999OA149900101REMSYN082AAXX  13154 06636 23/// /0000 10000 21008 39515 40099 52004 333 69915 91102 91201;
0145066360999992010011316004+46983+007283FM-12+048399999V0209999C000019999999N9999999N1-00011-00051101031ADDAA101000021MA1999999095191MD1310091+9999OA149900101REMSYN082AAXX  13164 06636 23/// /0000 11001 21005 39519 40103 53009 333 69925 91102 91201;
0145066360999992010011317004+46983+007283FM-12+048399999V0201001N000519999999N9999999N1+00021+00001101071ADDAA101000021MA1999999095231MD1310111+9999OA149900151REMSYN082AAXX  13174 06636 23/// /1001 10002 20000 39523 40107 53011 333 69915 91103 91202;
0170066360999992010011318004+46983+007283FM-12+048399999V0200901N001019999999N9999999N1+00031-00011101111ADDAA112003091KA1120M+00031MA1999999095271MD1310121+9999OA149900151REMSYN094AAXX  13184 06636 03/// /0902 10003 21001 39527 40111 53012 60032 333 10003 60005 91103 91202;
0145066360999992010011319004+46983+007283FM-12+048399999V0201001N001519999999N9999999N1+00041+00001101121ADDAA101000021MA1999999095281MD1110091+9999OA149900211REMSYN082AAXX  13194 06636 23/// /1003 10004 20000 39528 40112 51009 333 69915 91104 91203;
0128066360999992010011320004+46983+007283FM-12+048399999V0201001N001019999999N9999999N1+00031-00011101121ADDMA1999999095281MD1210051+9999OA149900261REMSYN076AAXX  13204 06636 33/// /1002 10003 21001 39528 40112 52005 333 91105 91204;
0128066360999992010011321004+46983+007283FM-12+048399999V0200801N001019999999N9999999N1+00021-00011101091ADDMA1999999095251MD1810021+9999OA149900261REMSYN076AAXX  13214 06636 33/// /0802 10002 21001 39525 40109 58002 333 91105 91204;
0128066360999992010011322004+46983+007283FM-12+048399999V0201001N000519999999N9999999N1+00001-00021101061ADDMA1999999095221MD1710061+9999OA149900211REMSYN076AAXX  13224 06636 33/// /1001 10000 21002 39522 40106 57006 333 91104 91202;
0128066360999992010011323004+46983+007283FM-12+048399999V0200801N000519999999N9999999N1+00021-00011101051ADDMA1999999095211MD1710071+9999OA149900151REMSYN076AAXX  13234 06636 33/// /0801 10002 21001 39521 40105 57007 333 91103 91202;
0170066360999992010011400004+46983+007283FM-12+048399999V0201201N001019999999N9999999N1+00031+00001100971ADDAA106000091MA1999999095141MD1710111+9999OA149900261REMSYN088AAXX  14004 06636 03/// /1202 10003 20000 39514 40097 57011 69911 333 60005 91105 91204;EQDQ01  00002PRCP06
0128066360999992010011401004+46983+007283FM-12+048399999V0201101N001519999999N9999999N1+00051+00021100911ADDMA1999999095091MD1710131+9999OA149900261REMSYN076AAXX  14014 06636 33/// /1103 10005 20002 39509 40091 57013 333 91105 91203;
0128066360999992010011402004+46983+007283FM-12+048399999V0209999C000019999999N9999999N1+00041+00021100921ADDMA1999999095091MD1719999+9999OA149900261REMSYN076AAXX  14024 06636 33/// /0000 10004 20002 39509 40092 57/// 333 91105 91203;
0087066360999992010011403004+46983+007283FM-12+048399999V0209999C000019999999N9999999N1+00041+00031100901ADDMA1999999095071REMSYN060AAXX  14034 06636 33/// /0000 10004 20003 39507 40090 5////;
0128066360999992010011404004+46983+007283FM-12+048399999V0200701N000519999999N9999999N1+00031+00031100861ADDMA1999999095031MD1710061+9999OA149900101REMSYN076AAXX  14044 06636 33/// /0701 10003 20003 39503 40086 57006 333 91102 91201;
0128066360999992010011405004+46983+007283FM-12+048399999V0200901N001019999999N9999999N1+00041+00041100811ADDMA1999999094991MD1810101+9999OA149900211REMSYN076AAXX  14054 06636 33/// /0902 10004 20004 39499 40081 58010 333 91104 91202;
0248066360999992010011406004+46983+007283FM-12+048399999V0201101N001519999999N9999999N1+00051+00041100771ADDAA112000091AA224003691AL13600391GJ100009IA2999+00009KA1999N-00021MA1999999094951MD1610121+9999OA149900261REMSYN112AAXX  14064 06636 03/// /1103 10005 20004 39495 40077 56012 69912 333 21002 3/100 55000 60005 70036 91105 91204;EQDQ01  00002PRCP12
0128066360999992010011407004+46983+007283FM-12+048399999V0200601N000519999999N9999999N1+00041+00011100731ADDMA1999999094911MD1610121+9999OA149900261REMSYN076AAXX  14074 06636 33/// /0601 10004 20001 39491 40073 56012 333 91105 91203;
0128066360999992010011408004+46983+007283FM-12+048399999V0201201N002119999999N9999999N1+00031-00031100721ADDMA1999999094901MD1719999+9999OA149900511REMSYN076AAXX  14084 06636 33/// /1204 10003 21003 39490 40072 57/// 333 91110 91206;
0128066360999992010011409004+46983+007283FM-12+048399999V0201201N002619999999N9999999N1+00031-00061100721ADDMA1999999094901MD1510051+9999OA149900511REMSYN076AAXX  14094 06636 33/// /1205 10003 21006 39490 40072 55005 333 91110 91206;
0128066360999992010011410004+46983+007283FM-12+048399999V0200801N001519999999N9999999N1+00061-00041100691ADDMA1999999094881MD1710031+9999OA149900461REMSYN076AAXX  14104 06636 33/// /0803 10006 21004 39488 40069 57003 333 91109 91205;
0128066360999992010011411004+46983+007283FM-12+048399999V0200901N002119999999N9999999N1+00081-00041100651ADDMA1999999094851MD1710051+9999OA149900461REMSYN076AAXX  14114 06636 33/// /0904 10008 21004 39485 40065 57005 333 91109 91205;
0128066360999992010011412004+46983+007283FM-12+048399999V0201201N001019999999N9999999N1+00111-00041100651ADDMA1999999094851MD1710051+9999OA149900511REMSYN076AAXX  14124 06636 33/// /1202 10011 21004 39485 40065 57005 333 91110 91206;
0128066360999992010011413004+46983+007283FM-12+048399999V0201201N001019999999N9999999N1+00121-00041100641ADDMA1999999094851MD1710031+9999OA149900361REMSYN076AAXX  14134 06636 33/// /1202 10012 21004 39485 40064 57003 333 91107 91204;
0163066360999992010011414004+46983+007283FM-12+048399999V0201101N001519999999N9999999N1+00121-00051100641ADDMA1999999094851MD1710011+9999OA149900311REMSYN076AAXX  14144 06636 33/// /1103 10012 21005 39485 40064 57000 333 91106 91204;EQDQ01+000072APCTENQ02+000002APC3  
0128066360999992010011415004+46983+007283FM-12+048399999V0200901N001519999999N9999999N1+00111-00041100641ADDMA1999999094841MD1710011+9999OA149900461REMSYN076AAXX  14154 06636 33/// /0903 10011 21004 39484 40064 57001 333 91109 91205;
0128066360999992010011416004+46983+007283FM-12+048399999V0200301N001519999999N9999999N1+00111-00051100671ADDMA1999999094871MD1310021+9999OA149900411REMSYN076AAXX  14164 06636 33/// /0303 10011 21005 39487 40067 53002 333 91108 91204;
0128066360999992010011417004+46983+007283FM-12+048399999V0200501N000519999999N9999999N1+00101-00031100741ADDMA1999999094941MD1210091+9999OA149900311REMSYN076AAXX  14174 06636 33/// /0501 10010 21003 39494 40074 52009 333 91106 91203;
0147066360999992010011418004+46983+007283FM-12+048399999V0209999C000019999999N9999999N1+00081+00001100831ADDKA1120M+00131MA1999999095021MD1310181+9999OA149900511REMSYN082AAXX  14184 06636 33/// /0000 10008 20000 39502 40083 53018 333 10013 91110 91206;
0128066360999992010011419004+46983+007283FM-12+048399999V0209999C000019999999N9999999N1+00071+00021100941ADDMA1999999095121MD1310251+9999OA149900101REMSYN076AAXX  14194 06636 33/// /0000 10007 20002 39512 40094 53025 333 91102 91202;
0128066360999992010011420004+46983+007283FM-12+048399999V0202201N000519999999N9999999N1+00071+00021101021ADDMA1999999095191MD1110251+9999OA149900101REMSYN076AAXX  14204 06636 33/// /2201 10007 20002 39519 40102 51025 333 91102 91202;
0128066360999992010011421004+46983+007283FM-12+048399999V0202601N000519999999N9999999N1+00081+00041101131ADDMA1999999095301MD1310281+9999OA149900311REMSYN076AAXX  14214 06636 33/// /2601 10008 20004 39530 40113 53028 333 91106 91203;
0128066360999992010011422004+46983+007283FM-12+048399999V0209999C000019999999N9999999N1+00061+00021101231ADDMA1999999095391MD1210271+9999OA149900101REMSYN076AAXX  14224 06636 33/// /0000 10006 20002 39539 40123 52027 333 91102 91202;
0128066360999992010011423004+46983+007283FM-12+048399999V0201301N000519999999N9999999N1+00061+00021101311ADDMA1999999095461MD1210271+9999OA149900051REMSYN076AAXX  14234 06636 33/// /1301 10006 20002 39546 40131 52027 333 91101 91201;
0128066360999992010011500004+46983+007283FM-12+048399999V0203501N000519999999N9999999N1+00051+00011101371ADDMA1999999095521MD1110221+9999OA149900411REMSYN076AAXX  15004 06636 33/// /3501 10005 20001 39552 40137 51022 333 91108 91204;
0128066360999992010011501004+46983+007283FM-12+048399999V0203301N000519999999N9999999N1+00051+00021101451ADDMA1999999095591MD1210201+9999OA149900101REMSYN076AAXX  15014 06636 33/// /3301 10005 20002 39559 40145 52020 333 91102 91201;
0128066360999992010011502004+46983+007283FM-12+048399999V0209999C000019999999N9999999N1+00041+00011101541ADDMA1999999095681MD1210221+9999OA149900101REMSYN076AAXX  15024 06636 33/// /0000 10004 20001 39568 40154 52022 333 91102 91201;
0087066360999992010011503004+46983+007283FM-12+048399999V0209999C000019999999N9999999N1+00041+00001101631ADDMA1999999095761REMSYN060AAXX  15034 06636 33/// /0000 10004 20000 39576 40163 5////;
0128066360999992010011504004+46983+007283FM-12+048399999V0209999C000019999999N9999999N1+00061+00021101701ADDMA1999999095831MD1110241+9999OA149900101REMSYN076AAXX  15044 06636 33/// /0000 10006 20002 39583 40170 51024 333 91102 91201;
0128066360999992010011505004+46983+007283FM-12+048399999V0209999C000019999999N9999999N1+00051+00001101791ADDMA1999999095911MD1310231+9999OA149900101REMSYN076AAXX  15054 06636 33/// /0000 10005 20000 39591 40179 53023 333 91102 91201;
0225066360999992010011506004+46983+007283FM-12+048399999V0200901N000519999999N9999999N1+00061+00001101891ADDAA124000091AL19900091GJ100009IA2999+00009KA1999N+00031MA1999999096011MD1310251+9999OA149900101REMSYN100AAXX  15064 06636 33/// /0901 10006 20000 39601 40189 53025 333 20003 3/100 55000 70000 91102 91202;EQDQ01  00002PRCP24
0128066360999992010011507004+46983+007283FM-12+048399999V0209999C000019999999N9999999N1+00061+00001102001ADDMA1999999096111MD1210281+9999OA149900101REMSYN076AAXX  15074 06636 33/// /0000 10006 20000 39611 40200 52028 333 91102 91201;
0128066360999992010011508004+46983+007283FM-12+048399999V0209999C000019999999N9999999N1+00081+00011102081ADDMA1999999096191MD1219999+9999OA149900101REMSYN076AAXX  15084 06636 33/// /0000 10008 20001 39619 40208 52/// 333 91102 91201;
0128066360999992010011509004+46983+007283FM-12+048399999V0201001N001019999999N9999999N1+00111-00061102151ADDMA1999999096271MD1110261+9999OA149900151REMSYN076AAXX  15094 06636 33/// /1002 10011 21006 39627 40215 51026 333 91103 91202;
0128066360999992010011510004+46983+007283FM-12+048399999V0201301N000519999999N9999999N1+00151-00061102231ADDMA1999999096351MD1210241+9999OA149900211REMSYN076AAXX  15104 06636 33/// /1301 10015 21006 39635 40223 52024 333 91104 91203;
0128066360999992010011511004+46983+007283FM-12+048399999V0203201N000519999999N9999999N1+00181-00031102231ADDMA1999999096361MD1210171+9999OA149900211REMSYN076AAXX  15114 06636 33/// /3201 10018 21003 39636 40223 52017 333 91104 91203;
0128066360999992010011512004+46983+007283FM-12+048399999V0202601N001019999999N9999999N1+00191-00021102281ADDMA1999999096411MD1210141+9999OA149900211REMSYN076AAXX  15124 06636 33/// /2602 10019 21002 39641 40228 52014 333 91104 91203;
0128066360999992010011513004+46983+007283FM-12+048399999V0202001N000519999999N9999999N1+00201-00021102301ADDMA1999999096431MD1210081+9999OA149900151REMSYN076AAXX  15134 06636 33/// /2001 10020 21002 39643 40230 52008 333 91103 91202;
0128066360999992010011514004+46983+007283FM-12+048399999V0209999C000019999999N9999999N1+00231+00001102341ADDMA1999999096471MD1210111+9999OA149900151REMSYN076AAXX  15144 06636 33/// /0000 10023 20000 39647 40234 52011 333 91103 91202;
0128066360999992010011515004+46983+007283FM-12+048399999V0201001N000519999999N9999999N1+00211+00011102441ADDMA1999999096561MD1210151+9999OA149900211REMSYN076AAXX  15154 06636 33/// /1001 10021 20001 39656 40244 52015 333 91104 91203;
0128066360999992010011516004+46983+007283FM-12+048399999V0200401N001519999999N9999999N1+00161+00011102481ADDMA1999999096591MD1110161+9999OA149900211REMSYN076AAXX  15164 06636 33/// /0403 10016 20001 39659 40248 51016 333 91104 91203;
0128066360999992010011517004+46983+007283FM-12+048399999V0201301N001519999999N9999999N1+00111-00021102561ADDMA1999999096651MD1210181+9999OA149900261REMSYN076AAXX  15174 06636 33/// /1303 10011 21002 39665 40256 52018 333 91105 91203;
0147066360999992010011518004+46983+007283FM-12+048399999V0200601N001519999999N9999999N1+00091-00031102591ADDKA1120M+00231MA1999999096681MD1310121+9999OA149900361REMSYN082AAXX  15184 06636 33/// /0603 10009 21003 39668 40259 53012 333 10023 91107 91203;
0128066360999992010011519004+46983+007283FM-12+048399999V0200101N001019999999N9999999N1+00081-00031102621ADDMA1999999096701MD1110111+9999OA149900361REMSYN076AAXX  15194 06636 33/// /0102 10008 21003 39670 40262 51011 333 91107 91204;
0128066360999992010011520004+46983+007283FM-12+048399999V0200801N001019999999N9999999N1+00081-00031102611ADDMA1999999096691MD1210041+9999OA149900361REMSYN076AAXX  15204 06636 33/// /0802 10008 21003 39669 40261 52004 333 91107 91204;
0128066360999992010011521004+46983+007283FM-12+048399999V0201301N000519999999N9999999N1+00081-00041102621ADDMA1999999096701MD1210021+9999OA149900361REMSYN076AAXX  15214 06636 33/// /1301 10008 21004 39670 40262 52002 333 91107 91204;
0128066360999992010011522004+46983+007283FM-12+048399999V0209999C000019999999N9999999N1+00061-00061102621ADDMA1999999096701MD1510001+9999OA149900261REMSYN076AAXX  15224 06636 33/// /0000 10006 21006 39670 40262 55000 333 91105 91203;
0128066360999992010011523004+46983+007283FM-12+048399999V0200901N000519999999N9999999N1+00071-00091102661ADDMA1999999096741MD1210051+9999OA149900261REMSYN076AAXX  15234 06636 33/// /0901 10007 21009 39674 40266 52005 333 91105 91203;
0128066360999992010011600004+46983+007283FM-12+048399999V0200901N001019999999N9999999N1+00061-00091102651ADDMA1999999096731MD1010031+9999OA149900361REMSYN076AAXX  16004 06636 33/// /0902 10006 21009 39673 40265 50003 333 91107 91204;
0147066360999992010011601004+46983+007283FM-12+048399999V0200301N001019999999N9999999N1+00041-00091102631ADDMA1999999096701MD1810011+9999OA149900261REMSYN076AAXX  16014 06636 33/// /0302 10004 21009 39670 40263 58000 333 91105 91203;EQDQ01+000002APC3  
0128066360999992010011602004+46983+007283FM-12+048399999V0200901N001019999999N9999999N1+00021-00101102611ADDMA1999999096681MD1710061+9999OA149900261REMSYN076AAXX  16024 06636 33/// /0902 10002 21010 39668 40261 57006 333 91105 91203;
0128066360999992010011603004+46983+007283FM-12+048399999V0201801N000519999999N9999999N1+00011-00121102601ADDMA1999999096671MD1719999+9999OA149900261REMSYN076AAXX  16034 06636 33/// /1801 10001 21012 39667 40260 57/// 333 91105 91203;
0128066360999992010011604004+46983+007283FM-12+048399999V0201401N000519999999N9999999N1+00001-00131102541ADDMA1999999096611MD1710091+9999OA149900211REMSYN076AAXX  16044 06636 33/// /1401 10000 21013 39661 40254 57009 333 91104 91203;
0128066360999992010011605004+46983+007283FM-12+048399999V0209999C000019999999N9999999N1-00021-00131102491ADDMA1999999096561MD1710121+9999OA149900211REMSYN076AAXX  16054 06636 33/// /0000 11002 21013 39656 40249 57012 333 91104 91203;
0225066360999992010011606004+46983+007283FM-12+048399999V0202301N001519999999N9999999N1-00071-00161102461ADDAA124000091AL19900091GJ100009IA2999+00009KA1999N-00061MA1999999096521MD1710151+9999OA149900361REMSYN100AAXX  16064 06636 33/// /2303 11007 21016 39652 40246 57015 333 21006 3/100 55000 70000 91107 91204;EQDQ01  00002PRCP24
0128066360999992010011607004+46983+007283FM-12+048399999V0201901N001519999999N9999999N1-00111-00211102441ADDMA1999999096491MD1710121+9999OA149900361REMSYN076AAXX  16074 06636 33/// /1903 11011 21021 39649 40244 57012 333 91107 91204;
0128066360999992010011608004+46983+007283FM-12+048399999V0202101N001019999999N9999999N1-00111-00201102391ADDMA1999999096451MD1710111+9999OA149900361REMSYN076AAXX  16084 06636 33/// /2102 11011 21020 39645 40239 57011 333 91107 91204;
0128066360999992010011609004+46983+007283FM-12+048399999V0201601N000519999999N9999999N1-00101-00201102361ADDMA1999999096421MD1710101+9999OA149900361REMSYN076AAXX  16094 06636 33/// /1601 11010 21020 39642 40236 57010 333 91107 91204;
0128066360999992010011610004+46983+007283FM-12+048399999V0201201N001519999999N9999999N1-00061-00211102331ADDMA1999999096401MD1710091+9999OA149900211REMSYN076AAXX  16104 06636 33/// /1203 11006 21021 39640 40233 57009 333 91104 91203;
0128066360999992010011611004+46983+007283FM-12+048399999V0201001N001019999999N9999999N1+00021-00211102281ADDMA1999999096371MD1710081+9999OA149900311REMSYN076AAXX  16114 06636 33/// /1002 10002 21021 39637 40228 57008 333 91106 91204;
0128066360999992010011612004+46983+007283FM-12+048399999V0202201N001019999999N9999999N1+00061-00231102231ADDMA1999999096331MD1710091+9999OA149900361REMSYN076AAXX  16124 06636 33/// /2202 10006 21023 39633 40223 57009 333 91107 91204;
0128066360999992010011613004+46983+007283FM-12+048399999V0201801N001019999999N9999999N1+00061-00241102131ADDMA1999999096241MD1710161+9999OA149900261REMSYN076AAXX  16134 06636 33/// /1802 10006 21024 39624 40213 57016 333 91105 91203;
0128066360999992010011614004+46983+007283FM-12+048399999V0201601N000519999999N9999999N1+00061-00241102061ADDMA1999999096171MD1719999+9999OA149900261REMSYN076AAXX  16144 06636 33/// /1601 10006 21024 39617 40206 57/// 333 91105 91202;
0128066360999992010011615004+46983+007283FM-12+048399999V0201201N000519999999N9999999N1+00071-00221102021ADDMA1999999096141MD1610191+9999OA149900311REMSYN076AAXX  16154 06636 33/// /1201 10007 21022 39614 40202 56019 333 91106 91204;
0128066360999992010011616004+46983+007283FM-12+048399999V0200901N000519999999N9999999N1+00051-00201102001ADDMA1999999096111MD1610131+9999OA149900151REMSYN076AAXX  16164 06636 33/// /0901 10005 21020 39611 40200 56013 333 91103 91202;
0128066360999992010011617004+46983+007283FM-12+048399999V0201201N000519999999N9999999N1+00041-00171102051ADDMA1999999096161MD1510011+9999OA149900151REMSYN076AAXX  16174 06636 33/// /1201 10004 21017 39616 40205 55001 333 91103 91202;
0147066360999992010011618004+46983+007283FM-12+048399999V0209999C000019999999N9999999N1+00031-00181102031ADDKA1120M+00071MA1999999096141MD1010001+9999OA149900361REMSYN082AAXX  16184 06636 33/// /0000 10003 21018 39614 40203 50000 333 10007 91107 91204;
0128066360999992010011619004+46983+007283FM-12+048399999V0209999C000019999999N9999999N1+00021-00111102011ADDMA1999999096121MD1010011+9999OA149900151REMSYN076AAXX  16194 06636 33/// /0000 10002 21011 39612 40201 50001 333 91103 91202;
0145066360999992010011620004+46983+007283FM-12+048399999V0200901N001019999999N9999999N1+00011-00061101951ADDAA101001091MA1999999096061MD1710101+9999OA149900151REMSYN082AAXX  16204 06636 23/// /0902 10001 21006 39606 40195 57010 333 69995 91103 91202;
0145066360999992010011621004+46983+007283FM-12+048399999V0201101N001019999999N9999999N1+00031-00021101851ADDAA101000591MA1999999095971MD1710171+9999OA149900211REMSYN082AAXX  16214 06636 23/// /1102 10003 21002 39597 40185 57017 333 69955 91104 91203;
0145066360999992010011622004+46983+007283FM-12+048399999V0200901N000519999999N9999999N1+00041+00001101871ADDAA101000591MA1999999095991MD1510131+9999OA149900211REMSYN082AAXX  16224 06636 23/// /0901 10004 20000 39599 40187 55013 333 69945 91104 91203;
0145066360999992010011623004+46983+007283FM-12+048399999V0203001N000519999999N9999999N1+00081+00061101941ADDAA101000591MA1999999096061MD1710011+9999OA149900211REMSYN082AAXX  16234 06636 23/// /3001 10008 20006 39606 40194 53000 333 69965 91104 91203;
0151066360999992010011700004+46983+007283FM-12+048399999V0203401N001019999999N9999999N1+00301+00221101891ADDAA106003091MA1999999096061MD1210091+9999OA149900311REMSYN088AAXX  17004 06636 03/// /3402 10030 20022 39606 40189 52009 60031 333 69925 91106 91203;
0128066360999992010011701004+46983+007283FM-12+048399999V0203001N001019999999N9999999N1+00211+00181101931ADDMA1999999096081MD1210091+9999OA149900361REMSYN076AAXX  17014 06636 33/// /3002 10021 20018 39608 40193 52009 333 91107 91204;
0128066360999992010011702004+46983+007283FM-12+048399999V0200901N001019999999N9999999N1+00211+00201101881ADDMA1999999096031MD1819999+9999OA149900361REMSYN076AAXX  17024 06636 33/// /0902 10021 20020 39603 40188 58/// 333 91107 91204;
0087066360999992010011703004+46983+007283FM-12+048399999V0201001N001019999999N9999999N1+00141+00121101861ADDMA1999999096001REMSYN060AAXX  17034 06636 43/// /1002 10014 20012 39600 40186 5////;
0128066360999992010011704004+46983+007283FM-12+048399999V0202401N001019999999N9999999N1+00141+00131101851ADDMA1999999095991MD1710091+9999OA149900211REMSYN076AAXX  17044 06636 33/// /2402 10014 20013 39599 40185 57009 333 91104 91202;
0128066360999992010011705004+46983+007283FM-12+048399999V0200801N001019999999N9999999N1+00181+00181101821ADDMA1999999095971MD1719999+9999OA149900211REMSYN076AAXX  17054 06636 33/// /0802 10018 20018 39597 40182 57/// 333 91104 91202;
0229066360999992010011706004+46983+007283FM-12+048399999V0203101N002619999999N9999999N1+00371+00301101801ADDAA112003092AA224002892AL14800291GJ100009IA2999+00009KA1999N+00001MA1999999095991MD1510011+9999OA149900461REMSYN112AAXX  17064 06636 03/// /3105 10037 20030 39599 40180 55001 60032 333 20000 3/100 55000 60005 70029 91109 91205;
0145066360999992010011707004+46983+007283FM-12+048399999V0203001N000519999999N9999999N1+00331+00291101871ADDAA101000591MA1999999096051MD1310061+9999OA149900461REMSYN082AAXX  17074 06636 23/// /3001 10033 20029 39605 40187 53006 333 69945 91109 91205;
0145066360999992010011708004+46983+007283FM-12+048399999V0202901N001019999999N9999999N1+00361+00321101971ADDAA101000891MA1999999096151MD1219999+9999OA149900411REMSYN082AAXX  17084 06636 23/// /2902 10036 20032 39615 40197 52/// 333 69985 91108 91205;
0145066360999992010011709004+46983+007283FM-12+048399999V0202801N003619999999N9999999N1+00511+00381102041ADDAA101000021MA1999999096251MD1310261+9999OA149900671REMSYN082AAXX  17094 06636 23/// /2807 10051 20038 39625 40204 53026 333 69915 91113 91207;
0128066360999992010011710004+46983+007283FM-12+048399999V0202501N002119999999N9999999N1+00641+00331102131ADDMA1999999096361MD1110311+9999OA149900771REMSYN076AAXX  17104 06636 33/// /2504 10064 20033 39636 40213 51031 333 91115 91208;
0128066360999992010011711004+46983+007283FM-12+048399999V0202701N002619999999N9999999N1+00681+00181102181ADDMA1999999096411MD1110261+9999OA149900931REMSYN076AAXX  17114 06636 33/// /2705 10068 20018 39641 40218 51026 333 91118 91208;
0151066360999992010011712004+46983+007283FM-12+048399999V0202801N004119999999N9999999N1+00691+00091102251ADDAA106001091MA1999999096481MD1110231+9999OA149900931REMSYN088AAXX  17124 06636 03/// /2808 10069 20009 39648 40225 51023 60011 333 60005 91118 91208;
0128066360999992010011713004+46983+007283FM-12+048399999V0202601N002619999999N9999999N1+00641+00081102281ADDMA1999999096501MD1110141+9999OA149900931REMSYN076AAXX  17134 06636 33/// /2605 10064 20008 39650 40228 51014 333 91118 91208;
0128066360999992010011714004+46983+007283FM-12+048399999V0202701N002119999999N9999999N1+00691+00081102331ADDMA1999999096561MD1319999+9999OA149900931REMSYN076AAXX  17144 06636 33/// /2704 10069 20008 39656 40233 53/// 333 91118 91211;
0128066360999992010011715004+46983+007283FM-12+048399999V0201701N001519999999N9999999N1+00691-00031102411ADDMA1999999096631MD1310151+9999OA149900931REMSYN076AAXX  17154 06636 33/// /1703 10069 21003 39663 40241 53015 333 91118 91211;
0128066360999992010011716004+46983+007283FM-12+048399999V0202801N001519999999N9999999N1+00591+00011102511ADDMA1999999096711MD1210211+9999OA149900511REMSYN076AAXX  17164 06636 33/// /2803 10059 20001 39671 40251 52021 333 91110 91205;
0128066360999992010011717004+46983+007283FM-12+048399999V0203001N001519999999N9999999N1+00431+00031102571ADDMA1999999096731MD1210171+9999OA149900361REMSYN076AAXX  17174 06636 33/// /3003 10043 20003 39673 40257 52017 333 91107 91204;
0170066360999992010011718004+46983+007283FM-12+048399999V0201001N001019999999N9999999N1+00211+00031102691ADDAA112001091KA1120M+00721MA1999999096801MD1210171+9999OA149900931REMSYN094AAXX  17184 06636 03/// /1002 10021 20003 39680 40269 52017 60012 333 10072 60005 91118 91211;
0128066360999992010011719004+46983+007283FM-12+048399999V0201001N001019999999N9999999N1+00061-00031102791ADDMA1999999096861MD1210151+9999OA149900311REMSYN076AAXX  17194 06636 33/// /1002 10006 21003 39686 40279 52015 333 91106 91203;
0128066360999992010011720004+46983+007283FM-12+048399999V0200701N000519999999N9999999N1+00011-00051102851ADDMA1999999096901MD1210171+9999OA149900211REMSYN076AAXX  17204 06636 33/// /0701 10001 21005 39690 40285 52017 333 91104 91203;
0128066360999992010011721004+46983+007283FM-12+048399999V0209999C000019999999N9999999N1+00001-00051102861ADDMA1999999096911MD1210111+9999OA149900361REMSYN076AAXX  17214 06636 33/// /0000 10000 21005 39691 40286 52011 333 91107 91204;
0128066360999992010011722004+46983+007283FM-12+048399999V0209999C000019999999N9999999N1+00051-00011102851ADDMA1999999096911MD1210051+9999OA149900211REMSYN076AAXX  17224 06636 33/// /0000 10005 21001 39691 40285 52005 333 91104 91202;
0128066360999992010011723004+46983+007283FM-12+048399999V0209999C000019999999N9999999N1+00041-00021102861ADDMA1999999096921MD1210021+9999OA149900211REMSYN076AAXX  17234 06636 33/// /0000 10004 21002 39692 40286 52002 333 91104 91202;
0128066360999992010011800004+46983+007283FM-12+048399999V0200701N000519999999N9999999N1+00061+00011102841ADDMA1999999096911MD1510001+9999OA149900931REMSYN076AAXX  18004 06636 33/// /0701 10006 20001 39691 40284 55000 333 91118 91211;
0147066360999992010011801004+46983+007283FM-12+048399999V0209999C000019999999N9999999N1+00051+00001102851ADDMA1999999096911MD1410001+9999OA149900151REMSYN076AAXX  18014 06636 33/// /0000 10005 20000 39691 40285 52000 333 91103 91201;EQDQ01+000022APCTEN
0087066360999992010011802004+46983+007283FM-12+048399999V0201001N001019999999N9999999N1-00061-00091102871ADDMA1999999096911REMSYN060AAXX  18024 06636 33/// /1002 11006 21009 39691 40287 5////;
0087066360999992010011803004+46983+007283FM-12+048399999V0200701N001019999999N9999999N1+00001-00061102871ADDMA1999999096921REMSYN060AAXX  18034 06636 33/// /0702 10000 21006 39692 40287 5////;
0128066360999992010011804004+46983+007283FM-12+048399999V0200301N000519999999N9999999N1+00001-00061102851ADDMA1999999096901MD1010011+9999OA149900261REMSYN076AAXX  18044 06636 33/// /0301 10000 21006 39690 40285 50001 333 91105 91204;
0128066360999992010011805004+46983+007283FM-12+048399999V0200901N000519999999N9999999N1+00011-00061102851ADDMA1999999096901MD1810011+9999OA149900151REMSYN076AAXX  18054 06636 33/// /0901 10001 21006 39690 40285 58001 333 91103 91202;
0206066360999992010011806004+46983+007283FM-12+048399999V0200701N000519999999N9999999N1+00011-00051102901ADDAA124001391AL11800191GJ102769IA2999-00409KA1999N-00061MA1999999096951MD1310031+9999OA149900261REMSYN100AAXX  18064 06636 33/// /0701 10001 21005 39695 40290 53003 333 21006 3/104 55046 70013 91105 91204;
0128066360999992010011807004+46983+007283FM-12+048399999V0201101N000519999999N9999999N1-00031-00081102931ADDMA1999999096971MD1210071+9999OA149900151REMSYN076AAXX  18074 06636 33/// /1101 11003 21008 39697 40293 52007 333 91103 91202;
