0133066304999992010010106504+46533+009883FM-15+1707LSZS V0209999V000512200019N0112651N1-01301-01401999999ADDGA1021+006001999GF102991999999999999999999MA1098821999999REMMET064METAR LSZS 010650Z VRB01KT 9999 FEW020 M13/M14 Q0988 R03/79//99;
0133066304999992010010107204+46533+009883FM-15+1707LSZS V0201801N000512200019N0112651N1-01101-01201999999ADDGA1021+006001999GF102991999999999999999999MA1098821999999REMMET064METAR LSZS 010720Z 18001KT 9999 FEW020 M11/M12 Q0988 R03/79//99;
0133066304999992010010107504+46533+009883FM-15+1707LSZS V0209999V001012200019N0112651N1-01201-01301999999ADDGA1021+006001999GF102991999999999999999999MA1098821999999REMMET064METAR LSZS 010750Z VRB02KT 9999 FEW020 M12/M13 Q0988 R03/79//99;
0156066304999992010010108204+46533+009883FM-15+1707LSZS V0202101N001012200019N0112651N1-01301-01401999999ADDGA1021+007501999GA2041+045001999GF104991999999999999999999MA1098921999999REMMET071METAR LSZS 010820Z 21002KT 9999 FEW025 SCT150 M13/M14 Q0989 R03/79//99;
0085066304999992010010108504+46533+009883FM-15+1707LSZS V0201601N001019999999Y0099001N1-01001-01101999999ADDMA1098921999999REMMET058METAR LSZS 010850Z 16002KT CAVOK M10/M11 Q0989 R03/79//99;
0085066304999992010010109204+46533+009883FM-15+1707LSZS V0201301N000519999999Y0099001N1-01001-01101999999ADDMA1098921999999REMMET058METAR LSZS 010920Z 13001KT CAVOK M10/M11 Q0989 R03/79//99;
0085066304999992010010109504+46533+009883FM-15+1707LSZS V0209999V000519999999Y0099001N1-01001-01101999999ADDMA1098921999999REMMET058METAR LSZS 010950Z VRB01KT CAVOK M10/M11 Q0989 R03/79//99;
0085066304999992010010110204+46533+009883FM-15+1707LSZS V0202401N000519999999Y0099001N1-01001-01101999999ADDMA1098921999999REMMET058METAR LSZS 011020Z 24001KT CAVOK M10/M11 Q0989 R03/79//99;
0085066304999992010010110504+46533+009883FM-15+1707LSZS V0209999V000519999999Y0099001N1-00801-00901999999ADDMA1098821999999REMMET058METAR LSZS 011050Z VRB01KT CAVOK M08/M09 Q0988 R03/79//99;
0085066304999992010010111204+46533+009883FM-15+1707LSZS V0209999C000019999999Y0099001N1-00701-00901999999ADDMA1098821999999REMMET058METAR LSZS 011120Z 00000KT CAVOK M07/M09 Q0988 R03/79//99;
0085066304999992010010111504+46533+009883FM-15+1707LSZS V0209999V001019999999Y0099001N1-00501-00701999999ADDMA1098821999999REMMET058METAR LSZS 011150Z VRB02KT CAVOK M05/M07 Q0988 R03/79//99;
0081066304999992010010112204+46533+009883FM-15+1707LSZS V0209999V000519999999Y0099001N1-00601-00801999999ADDMA1098821999999REMMET054METAR LSZS 011220Z VRB01KT CAVOK M06/M08 Q0988 R03/29;
0081066304999992010010112504+46533+009883FM-15+1707LSZS V0209999C000019999999Y0099001N1-00501-00701999999ADDMA1098821999999REMMET054METAR LSZS 011250Z 00000KT CAVOK M05/M07 Q0988 R03/29;
0081066304999992010010113204+46533+009883FM-15+1707LSZS V0209999V000519999999Y0099001N1-00601-00901999999ADDMA1098821999999REMMET054METAR LSZS 011320Z VRB01KT CAVOK M06/M09 Q0988 R03/29;
0081066304999992010010113504+46533+009883FM-15+1707LSZS V0209999C000019999999Y0099001N1-00401-00701999999ADDMA1098821999999REMMET054METAR LSZS 011350Z 00000KT CAVOK M04/M07 Q0988 R03/29;
0129066304999992010010114204+46533+009883FM-15+1707LSZS V0201601N000512200019N0112651N1-00601-00801999999ADDGA1021+009001999GF102991999999999999999999MA1098921999999REMMET060METAR LSZS 011420Z 16001KT 9999 FEW030 M06/M08 Q0989 R03/29;
0129066304999992010010114504+46533+009883FM-15+1707LSZS V0209999V000512200019N0112651N1-00601-00801999999ADDGA1021+009001999GF102991999999999999999999MA1098921999999REMMET060METAR LSZS 011450Z VRB01KT 9999 FEW030 M06/M08 Q0989 R03/29;
0129066304999992010010115204+46533+009883FM-15+1707LSZS V0209999V000512200019N0112651N1-00701-00801999999ADDGA1041+015001999GF104991999999999999999999MA1098981999999REMMET060METAR LSZS 011520Z VRB01KT 9999 SCT050 M07/M08 Q0990 R03/29;
0129066304999992010010115504+46533+009883FM-15+1707LSZS V0209999V000510180019N0112651N1-00601-00701999999ADDGA1071+018001999GF107991999999999999999999MA1098981999999REMMET060METAR LSZS 011550Z VRB01KT 9999 BKN060 M06/M07 Q0990 R03/29;
0129066304999992010010116204+46533+009883FM-15+1707LSZS V0209999V001510180019N0112651N1-00901-01001999999ADDGA1071+018001999GF107991999999999999999999MA1098981999999REMMET060METAR LSZS 011620Z VRB03KT 9999 BKN060 M09/M10 Q0990 R03/29;
0137066304999992010010206504+46533+009883FM-15+1707LSZS V0200101N005710180019N0070001N1-00601-01101999999ADDGA1071+018001999GF107991999999999999999999MA1100001999999REMMET068METAR LSZS 020650Z 01011KT 310V070 7000 BKN060 M06/M11 Q1000 R88/99;
0129066304999992010010207204+46533+009883FM-15+1707LSZS V0200401N008710210019N0070001N1-00701-01101999999ADDGA1081+021001999GF108991999999999999999999MA1100101999999REMMET060METAR LSZS 020720Z 04017KT 7000 OVC070 M07/M11 Q1001 R88/99;
0129066304999992010010207504+46533+009883FM-15+1707LSZS V0200501N007210210019N0070001N1-00701-01201999999ADDGA1081+021001999GF108991999999999999999999MA1100101999999REMMET060METAR LSZS 020750Z 05014KT 7000 OVC070 M07/M12 Q1001 R88/99;
0122066304999992010010208204+46533+009883FM-15+1707LSZS V0200201N006210210019N0070001N1-00801-01201999999ADDGA1081+021001999GF108991999999999999999999MA1100201999999REMMET053METAR LSZS 020820Z 02012KT 7000 OVC070 M08/M12 Q1002;
0130066304999992010010208504+46533+009883FM-15+1707LSZS V0200301N006210210019N0112651N1-00801-01301999999ADDGA1071+021001999GF107991999999999999999999MA1100201999999REMMET061METAR LSZS 020850Z 03012KT 350V050 9999 BKN070 M08/M13 Q1002;
0153066304999992010010209204+46533+009883FM-15+1707LSZS V0200301N004610240019N0112651N1-00801-01401999999ADDGA1021+012001999GA2081+024001999GF108991999999999999999999MA1100311999999REMMET068METAR LSZS 020920Z 03009KT 350V060 9999 FEW040 OVC080 M08/M14 Q1003;
0145066304999992010010209504+46533+009883FM-15+1707LSZS V0200201N006710240019N0112651N1-00801-01401999999ADDGA1021+012001999GA2081+024001999GF108991999999999999999999MA1100311999999REMMET060METAR LSZS 020950Z 02013KT 9999 FEW040 OVC080 M08/M14 Q1003;
0145066304999992010010210204+46533+009883FM-15+1707LSZS V0200401N005710240019N0112651N1-00801-01501999999ADDGA1021+012001999GA2071+024001999GF107991999999999999999999MA1100411999999REMMET060METAR LSZS 021020Z 04011KT 9999 FEW040 BKN080 M08/M15 Q1004;
0145066304999992010010210504+46533+009883FM-15+1707LSZS V0200201N003110240019N0112651N1-00801-01501999999ADDGA1021+012001999GA2071+024001999GF107991999999999999999999MA1100411999999REMMET060METAR LSZS 021050Z 02006KT 9999 FEW040 BKN080 M08/M15 Q1004;
0130066304999992010010211204+46533+009883FM-15+1707LSZS V0200101N005110240019N0060001N1-00801-01501999999ADDGA1071+024001999GF107991999999999999999999MA1100411999999REMMET061METAR LSZS 021120Z 01010KT 330V040 6000 BKN080 M08/M15 Q1004;
0130066304999992010010211504+46533+009883FM-15+1707LSZS V0200401N004610240019N0070001N1-00901-01501999999ADDGA1071+024001999GF107991999999999999999999MA1100511999999REMMET061METAR LSZS 021150Z 04009KT 350V060 7000 BKN080 M09/M15 Q1005;
0130066304999992010010212204+46533+009883FM-15+1707LSZS V0200201N004110240019N0070001N1-00901-01601999999ADDGA1071+024001999GF107991999999999999999999MA1100511999999REMMET061METAR LSZS 021220Z 02008KT 340V050 7000 BKN080 M09/M16 Q1005;
0130066304999992010010212504+46533+009883FM-15+1707LSZS V0200301N005110240019N0070001N1-00901-01601999999ADDGA1071+024001999GF107991999999999999999999MA1100611999999REMMET061METAR LSZS 021250Z 03010KT 350V060 7000 BKN080 M09/M16 Q1006;
0130066304999992010010213204+46533+009883FM-15+1707LSZS V0200401N004110240019N0070001N1-00901-01701999999ADDGA1071+024001999GF107991999999999999999999MA1100611999999REMMET061METAR LSZS 021320Z 04008KT 010V080 7000 BKN080 M09/M17 Q1006;
0122066304999992010010213504+46533+009883FM-15+1707LSZS V0200401N004610240019N0070001N1-01001-01701999999ADDGA1071+024001999GF107991999999999999999999MA1100611999999REMMET053METAR LSZS 021350Z 04009KT 7000 BKN080 M10/M17 Q1006;
0130066304999992010010214204+46533+009883FM-15+1707LSZS V0203401N003610180019N0070001N1-01001-01701999999ADDGA1071+018001999GF107991999999999999999999MA1100611999999REMMET061METAR LSZS 021420Z 34007KT 260V030 7000 BKN060 M10/M17 Q1006;
0130066304999992010010214504+46533+009883FM-15+1707LSZS V0200401N002110150019N0060001N1-01001-01601999999ADDGA1071+015001999GF107991999999999999999999MA1100711999999REMMET061METAR LSZS 021450Z 04004KT 340V110 6000 BKN050 M10/M16 Q1007;
0122066304999992010010215204+46533+009883FM-15+1707LSZS V0200301N005110150019N0060001N1-01101-01701999999ADDGA1071+015001999GF107991999999999999999999MA1100811999999REMMET053METAR LSZS 021520Z 03010KT 6000 BKN050 M11/M17 Q1008;
0122066304999992010010215504+46533+009883FM-15+1707LSZS V0200301N006710150019N0060001N1-01101-01601999999ADDGA1071+015001999GF107991999999999999999999MA1100811999999REMMET053METAR LSZS 021550Z 03013KT 6000 BKN050 M11/M16 Q1008;
0122066304999992010010216204+46533+009883FM-15+1707LSZS V0200301N007710150019N0060001N1-01101-01801999999ADDGA1071+015001999GF107991999999999999999999MA1100811999999REMMET053METAR LSZS 021620Z 03015KT 6000 BKN050 M11/M18 Q1008;
0074066304999992010010306504+46533+009883FM-15+1707LSZS V0209999V001019999999Y0099001N1-02301-02601999999ADDMA1101291999999REMMET047METAR LSZS 030650Z VRB02KT CAVOK M23/M26 Q1013;
0074066304999992010010307204+46533+009883FM-15+1707LSZS V0209999V000519999999Y0099001N1-02401-02701999999ADDMA1101391999999REMMET047METAR LSZS 030720Z VRB01KT CAVOK M24/M27 Q1014;
0074066304999992010010307504+46533+009883FM-15+1707LSZS V0209999V001019999999Y0099001N1-02301-02501999999ADDMA1101391999999REMMET047METAR LSZS 030750Z VRB02KT CAVOK M23/M25 Q1014;
0074066304999992010010308204+46533+009883FM-15+1707LSZS V0201701N001019999999Y0099001N1-02301-02501999999ADDMA1101391999999REMMET047METAR LSZS 030820Z 17002KT CAVOK M23/M25 Q1014;
0074066304999992010010308504+46533+009883FM-15+1707LSZS V0209999C000019999999Y0099001N1-02101-02301999999ADDMA1101391999999REMMET047METAR LSZS 030850Z 00000KT CAVOK M21/M23 Q1014;
0074066304999992010010309204+46533+009883FM-15+1707LSZS V0209999V000519999999Y0099001N1-02201-02401999999ADDMA1101391999999REMMET047METAR LSZS 030920Z VRB01KT CAVOK M22/M24 Q1014;
0114066304999992010010309504+46533+009883FM-15+1707LSZS V0209999V000512200019N0112651N1-02001-02201999999ADDGF100991999999999999999999MA1101391999999MW1411REMMET055METAR LSZS 030950Z VRB01KT 9999 BCFG NSC M20/M22 Q1014;
0074066304999992010010310204+46533+009883FM-15+1707LSZS V0209999V000519999999Y0099001N1-02201-02401999999ADDMA1101391999999REMMET047METAR LSZS 031020Z VRB01KT CAVOK M22/M24 Q1014;
0074066304999992010010310504+46533+009883FM-15+1707LSZS V0209999V001019999999Y0099001N1-01901-02101999999ADDMA1101291999999REMMET047METAR LSZS 031050Z VRB02KT CAVOK M19/M21 Q1013;
0074066304999992010010311204+46533+009883FM-15+1707LSZS V0209999V000519999999Y0099001N1-01901-02101999999ADDMA1101291999999REMMET047METAR LSZS 031120Z VRB01KT CAVOK M19/M21 Q1013;
0074066304999992010010311504+46533+009883FM-15+1707LSZS V0200701N000519999999Y0099001N1-01701-01901999999ADDMA1101191999999REMMET047METAR LSZS 031150Z 07001KT CAVOK M17/M19 Q1012;
0074066304999992010010312204+46533+009883FM-15+1707LSZS V0202201N000519999999Y0099001N1-01501-01701999999ADDMA1101191999999REMMET047METAR LSZS 031220Z 22001KT CAVOK M15/M17 Q1012;
0074066304999992010010312504+46533+009883FM-15+1707LSZS V0209999C000019999999Y0099001N1-01601-02201999999ADDMA1101191999999REMMET047METAR LSZS 031250Z 00000KT CAVOK M16/M22 Q1012;
0074066304999992010010313204+46533+009883FM-15+1707LSZS V0202201N000519999999Y0099001N1-01301-01901999999ADDMA1101191999999REMMET047METAR LSZS 031320Z 22001KT CAVOK M13/M19 Q1012;
0074066304999992010010313504+46533+009883FM-15+1707LSZS V0201201N000519999999Y0099001N1-01101-01901999999ADDMA1101081999999REMMET047METAR LSZS 031350Z 12001KT CAVOK M11/M19 Q1011;
0074066304999992010010314204+46533+009883FM-15+1707LSZS V0209999V001019999999Y0099001N1-01301-01901999999ADDMA1101191999999REMMET047METAR LSZS 031420Z VRB02KT CAVOK M13/M19 Q1012;
0074066304999992010010314504+46533+009883FM-15+1707LSZS V0209999C000019999999Y0099001N1-01301-01801999999ADDMA1101191999999REMMET047METAR LSZS 031450Z 00000KT CAVOK M13/M18 Q1012;
0074066304999992010010315204+46533+009883FM-15+1707LSZS V0201901N000519999999Y0099001N1-01601-01901999999ADDMA1101191999999REMMET047METAR LSZS 031520Z 19001KT CAVOK M16/M19 Q1012;
0074066304999992010010315504+46533+009883FM-15+1707LSZS V0202101N000519999999Y0099001N1-01801-02001999999ADDMA1101191999999REMMET047METAR LSZS 031550Z 21001KT CAVOK M18/M20 Q1012;
0082066304999992010010316204+46533+009883FM-15+1707LSZS V0202001N001519999999Y0099001N1-01701-01901999999ADDMA1101191999999REMMET055METAR LSZS 031620Z 20003KT 170V250 CAVOK M17/M19 Q1012;
0074066304999992010010406504+46533+009883FM-15+1707LSZS V0209999V001019999999Y0099001N1-01701-01901999999ADDMA1100911999999REMMET047METAR LSZS 040650Z VRB02KT CAVOK M17/M19 Q1009;
0074066304999992010010407204+46533+009883FM-15+1707LSZS V0209999V000519999999Y0099001N1-01701-01801999999ADDMA1100911999999REMMET047METAR LSZS 040720Z VRB01KT CAVOK M17/M18 Q1009;
0145066304999992010010407504+46533+009883FM-15+1707LSZS V0201101N001010300019N0112651N1-01601-01801999999ADDGA1041+018001999GA2081+030001999GF108991999999999999999999MA1100911999999REMMET060METAR LSZS 040750Z 11002KT 9999 SCT060 OVC100 M16/M18 Q1009;
0145066304999992010010408204+46533+009883FM-15+1707LSZS V0202101N000510300019N0112651N1-01601-01801999999ADDGA1021+018001999GA2071+030001999GF107991999999999999999999MA1100811999999REMMET060METAR LSZS 040820Z 21001KT 9999 FEW060 BKN100 M16/M18 Q1008;
0145066304999992010010408504+46533+009883FM-15+1707LSZS V0202201N001510300019N0112651N1-01601-01801999999ADDGA1021+018001999GA2071+030001999GF107991999999999999999999MA1100811999999REMMET060METAR LSZS 040850Z 22003KT 9999 FEW060 BKN100 M16/M18 Q1008;
0122066304999992010010409204+46533+009883FM-15+1707LSZS V0209999V000510240019N0112651N1-01501-01601999999ADDGA1071+024001999GF107991999999999999999999MA1100811999999REMMET053METAR LSZS 040920Z VRB01KT 9999 BKN080 M15/M16 Q1008;
0122066304999992010010409504+46533+009883FM-15+1707LSZS V0209999V001010240019N0112651N1-01301-01401999999ADDGA1071+024001999GF107991999999999999999999MA1100811999999REMMET053METAR LSZS 040950Z VRB02KT 9999 BKN080 M13/M14 Q1008;
0130066304999992010010410204+46533+009883FM-15+1707LSZS V0201601N003610240019N0112651N1-01001-01601999999ADDGA1071+024001999GF107991999999999999999999MA1100711999999REMMET061METAR LSZS 041020Z 16007KT 110V210 9999 BKN080 M10/M16 Q1007;
0130066304999992010010410504+46533+009883FM-15+1707LSZS V0201401N002610240019N0112651N1-00801-01701999999ADDGA1071+024001999GF107991999999999999999999MA1100711999999REMMET061METAR LSZS 041050Z 14005KT 090V180 9999 BKN080 M08/M17 Q1007;
0130066304999992010010411204+46533+009883FM-15+1707LSZS V0201901N002610210019N0112651N1-00801-01601999999ADDGA1071+021001999GF107991999999999999999999MA1100711999999REMMET061METAR LSZS 041120Z 19005KT 150V220 9999 BKN070 M08/M16 Q1007;
0122066304999992010010411504+46533+009883FM-15+1707LSZS V0209999V002110210019N0112651N1-00801-01701999999ADDGA1071+021001999GF107991999999999999999999MA1100611999999REMMET053METAR LSZS 041150Z VRB04KT 9999 BKN070 M08/M17 Q1006;
0130066304999992010010412204+46533+009883FM-15+1707LSZS V0201901N003110210019N0112651N1-00801-01601999999ADDGA1071+021001999GF107991999999999999999999MA1100611999999REMMET061METAR LSZS 041220Z 19006KT 150V230 9999 BKN070 M08/M16 Q1006;
0122066304999992010010412504+46533+009883FM-15+1707LSZS V0201901N003110210019N0112651N1-00801-01501999999ADDGA1071+021001999GF107991999999999999999999MA1100611999999REMMET053METAR LSZS 041250Z 19006KT 9999 BKN070 M08/M15 Q1006;
0145066304999992010010413204+46533+009883FM-15+1707LSZS V0201901N003610210019N0112651N1-00801-01501999999ADDGA1021+015001999GA2071+021001999GF107991999999999999999999MA1100611999999REMMET060METAR LSZS 041320Z 19007KT 9999 FEW050 BKN070 M08/M15 Q1006;
0145066304999992010010413504+46533+009883FM-15+1707LSZS V0202301N002610210019N0112651N1-00801-01501999999ADDGA1021+015001999GA2071+021001999GF107991999999999999999999MA1100511999999REMMET060METAR LSZS 041350Z 23005KT 9999 FEW050 BKN070 M08/M15 Q1005;
0145066304999992010010414204+46533+009883FM-15+1707LSZS V0209999V001010210019N0112651N1-00701-01501999999ADDGA1021+015001999GA2071+021001999GF107991999999999999999999MA1100511999999REMMET060METAR LSZS 041420Z VRB02KT 9999 FEW050 BKN070 M07/M15 Q1005;
0145066304999992010010414504+46533+009883FM-15+1707LSZS V0200301N001010210019N0112651N1-00801-01401999999ADDGA1021+015001999GA2071+021001999GF107991999999999999999999MA1100511999999REMMET060METAR LSZS 041450Z 03002KT 9999 FEW050 BKN070 M08/M14 Q1005;
0145066304999992010010415204+46533+009883FM-15+1707LSZS V0209999V001010210019N0112651N1-00801-01401999999ADDGA1021+015001999GA2071+021001999GF107991999999999999999999MA1100511999999REMMET060METAR LSZS 041520Z VRB02KT 9999 FEW050 BKN070 M08/M14 Q1005;
0145066304999992010010415504+46533+009883FM-15+1707LSZS V0200701N001010210019N0112651N1-00901-01301999999ADDGA1021+015001999GA2071+021001999GF107991999999999999999999MA1100511999999REMMET060METAR LSZS 041550Z 07002KT 9999 FEW050 BKN070 M09/M13 Q1005;
0145066304999992010010416204+46533+009883FM-15+1707LSZS V0209999V001010210019N0112651N1-00901-01201999999ADDGA1021+015001999GA2071+021001999GF107991999999999999999999MA1100511999999REMMET060METAR LSZS 041620Z VRB02KT 9999 FEW050 BKN070 M09/M12 Q1005;
0074066304999992010010506504+46533+009883FM-15+1707LSZS V0202101N001019999999Y0099001N1-01901-02101999999ADDMA1100001999999REMMET047METAR LSZS 050650Z 21002KT CAVOK M19/M21 Q1000;
0074066304999992010010507204+46533+009883FM-15+1707LSZS V0209999V000519999999Y0099001N1-01801-02001999999ADDMA1100001999999REMMET047METAR LSZS 050720Z VRB01KT CAVOK M18/M20 Q1000;
0114066304999992010010507504+46533+009883FM-15+1707LSZS V0202001N001012200019N0112651N1-01801-02001999999ADDGF100991999999999999999999MA1100001999999MW1411REMMET055METAR LSZS 050750Z 20002KT 9999 BCFG NSC M18/M20 Q1000;
0114066304999992010010508204+46533+009883FM-15+1707LSZS V0209999V000512200019N0112651N1-01801-02001999999ADDGF100991999999999999999999MA1100001999999MW1411REMMET055METAR LSZS 050820Z VRB01KT 9999 BCFG NSC M18/M20 Q1000;
0074066304999992010010508504+46533+009883FM-15+1707LSZS V0201501N000519999999Y0099001N1-01701-01901999999ADDMA1100001999999REMMET047METAR LSZS 050850Z 15001KT CAVOK M17/M19 Q1000;
0074066304999992010010509204+46533+009883FM-15+1707LSZS V0209999V000519999999Y0099001N1-01701-01901999999ADDMA1100001999999REMMET047METAR LSZS 050920Z VRB01KT CAVOK M17/M19 Q1000;
0074066304999992010010509504+46533+009883FM-15+1707LSZS V0209999V000519999999Y0099001N1-01701-01901999999ADDMA1100001999999REMMET047METAR LSZS 050950Z VRB01KT CAVOK M17/M19 Q1000;
0074066304999992010010510204+46533+009883FM-15+1707LSZS V0209999V000519999999Y0099001N1-01501-01701999999ADDMA1100001999999REMMET047METAR LSZS 051020Z VRB01KT CAVOK M15/M17 Q1000;
0074066304999992010010510504+46533+009883FM-15+1707LSZS V0201501N000519999999Y0099001N1-01401-01501999999ADDMA1099901999999REMMET047METAR LSZS 051050Z 15001KT CAVOK M14/M15 Q0999;
0074066304999992010010511204+46533+009883FM-15+1707LSZS V0202501N000519999999Y0099001N1-01301-01501999999ADDMA1099801999999REMMET047METAR LSZS 051120Z 25001KT CAVOK M13/M15 Q0998;
0074066304999992010010511504+46533+009883FM-15+1707LSZS V0209999C000019999999Y0099001N1-01201-01301999999ADDMA1099801999999REMMET047METAR LSZS 051150Z 00000KT CAVOK M12/M13 Q0998;
0074066304999992010010512204+46533+009883FM-15+1707LSZS V0209999V000519999999Y0099001N1-01201-01401999999ADDMA1099701999999REMMET047METAR LSZS 051220Z VRB01KT CAVOK M12/M14 Q0997;
0074066304999992010010512504+46533+009883FM-15+1707LSZS V0209999V000519999999Y0099001N1-01101-01401999999ADDMA1099701999999REMMET047METAR LSZS 051250Z VRB01KT CAVOK M11/M14 Q0997;
0074066304999992010010513204+46533+009883FM-15+1707LSZS V0209999C000019999999Y0099001N1-00901-01301999999ADDMA1099701999999REMMET047METAR LSZS 051320Z 00000KT CAVOK M09/M13 Q0997;
0074066304999992010010513504+46533+009883FM-15+1707LSZS V0209999V000519999999Y0099001N1-01101-01501999999ADDMA1099591999999REMMET047METAR LSZS 051350Z VRB01KT CAVOK M11/M15 Q0996;
0074066304999992010010514204+46533+009883FM-15+1707LSZS V0209999V000519999999Y0099001N1-00801-01301999999ADDMA1099591999999REMMET047METAR LSZS 051420Z VRB01KT CAVOK M08/M13 Q0996;
0074066304999992010010514504+46533+009883FM-15+1707LSZS V0209999C000019999999Y0099001N1-00901-01201999999ADDMA1099591999999REMMET047METAR LSZS 051450Z 00000KT CAVOK M09/M12 Q0996;
0074066304999992010010515504+46533+009883FM-15+1707LSZS V0200201N001019999999Y0099001N1-01301-01501999999ADDMA1099591999999REMMET047METAR LSZS 051550Z 02002KT CAVOK M13/M15 Q0996;
0122066304999992010010606504+46533+009883FM-15+1707LSZS V0209999V001012200019N0112651N1-01801-02001999999ADDGA1021+027001999GF102991999999999999999999MA1099391999999REMMET053METAR LSZS 060650Z VRB02KT 9999 FEW090 M18/M20 Q0994;
0122066304999992010010607204+46533+009883FM-15+1707LSZS V0201901N000512200019N0112651N1-01901-02201999999ADDGA1021+027001999GF102991999999999999999999MA1099391999999REMMET053METAR LSZS 060720Z 19001KT 9999 FEW090 M19/M22 Q0994;
0122066304999992010010607504+46533+009883FM-15+1707LSZS V0209999V000512200019N0112651N1-01801-02001999999ADDGA1021+018001999GF102991999999999999999999MA1099391999999REMMET053METAR LSZS 060750Z VRB01KT 9999 FEW060 M18/M20 Q0994;
0122066304999992010010608204+46533+009883FM-15+1707LSZS V0202101N001012200019N0112651N1-02001-02201999999ADDGA1021+018001999GF102991999999999999999999MA1099391999999REMMET053METAR LSZS 060820Z 21002KT 9999 FEW060 M20/M22 Q0994;
0122066304999992010010608504+46533+009883FM-15+1707LSZS V0209999V000512200019N0112651N1-01701-01901999999ADDGA1021+027001999GF102991999999999999999999MA1099391999999REMMET053METAR LSZS 060850Z VRB01KT 9999 FEW090 M17/M19 Q0994;
0122066304999992010010609204+46533+009883FM-15+1707LSZS V0209999V001012200019N0112651N1-01701-01801999999ADDGA1021+027001999GF102991999999999999999999MA1099391999999REMMET053METAR LSZS 060920Z VRB02KT 9999 FEW090 M17/M18 Q0994;
0122066304999992010010609504+46533+009883FM-15+1707LSZS V0201801N000512200019N0112651N1-01801-02001999999ADDGA1021+027001999GF102991999999999999999999MA1099391999999REMMET053METAR LSZS 060950Z 18001KT 9999 FEW090 M18/M20 Q0994;
0122066304999992010010610204+46533+009883FM-15+1707LSZS V0209999C000012200019N0112651N1-01301-01501999999ADDGA1021+027001999GF102991999999999999999999MA1099391999999REMMET053METAR LSZS 061020Z 00000KT 9999 FEW090 M13/M15 Q0994;
0122066304999992010010610504+46533+009883FM-15+1707LSZS V0209999V000512200019N0112651N1-01201-01401999999ADDGA1021+018001999GF102991999999999999999999MA1099391999999REMMET053METAR LSZS 061050Z VRB01KT 9999 FEW060 M12/M14 Q0994;
0122066304999992010010611204+46533+009883FM-15+1707LSZS V0209999C000012200019N0112651N1-01101-01301999999ADDGA1021+018001999GF102991999999999999999999MA1099291999999REMMET053METAR LSZS 061120Z 00000KT 9999 FEW060 M11/M13 Q0993;
0122066304999992010010611504+46533+009883FM-15+1707LSZS V0209999V000512200019N0112651N1-01101-01201999999ADDGA1021+018001999GF102991999999999999999999MA1099291999999REMMET053METAR LSZS 061150Z VRB01KT 9999 FEW060 M11/M12 Q0993;
0122066304999992010010612204+46533+009883FM-15+1707LSZS V0209999C000012200019N0112651N1-00901-01001999999ADDGA1021+018001999GF102991999999999999999999MA1099291999999REMMET053METAR LSZS 061220Z 00000KT 9999 FEW060 M09/M10 Q0993;
0122066304999992010010612504+46533+009883FM-15+1707LSZS V0209999C000012200019N0112651N1-00901-01001999999ADDGA1021+018001999GF102991999999999999999999MA1099291999999REMMET053METAR LSZS 061250Z 00000KT 9999 FEW060 M09/M10 Q0993;
0122066304999992010010613204+46533+009883FM-15+1707LSZS V0209999C000012200019N0112651N1-00701-01101999999ADDGA1021+018001999GF102991999999999999999999MA1099291999999REMMET053METAR LSZS 061320Z 00000KT 9999 FEW060 M07/M11 Q0993;
0122066304999992010010613504+46533+009883FM-15+1707LSZS V0209999C000012200019N0112651N1-00701-01101999999ADDGA1021+018001999GF102991999999999999999999MA1099291999999REMMET053METAR LSZS 061350Z 00000KT 9999 FEW060 M07/M11 Q0993;
0122066304999992010010614204+46533+009883FM-15+1707LSZS V0209999V000512200019N0112651N1-00901-01301999999ADDGA1021+018001999GF102991999999999999999999MA1099291999999REMMET053METAR LSZS 061420Z VRB01KT 9999 FEW060 M09/M13 Q0993;
0122066304999992010010614504+46533+009883FM-15+1707LSZS V0209999V001512200019N0112651N1-00801-01201999999ADDGA1021+018001999GF102991999999999999999999MA1099291999999REMMET053METAR LSZS 061450Z VRB03KT 9999 FEW060 M08/M12 Q0993;
0122066304999992010010615204+46533+009883FM-15+1707LSZS V0209999V000512200019N0112651N1-00701-01201999999ADDGA1021+018001999GF102991999999999999999999MA1099391999999REMMET053METAR LSZS 061520Z VRB01KT 9999 FEW060 M07/M12 Q0994;
0122066304999992010010615504+46533+009883FM-15+1707LSZS V0209999V000512200019N0112651N1-00901-01201999999ADDGA1021+018001999GF102991999999999999999999MA1099391999999REMMET053METAR LSZS 061550Z VRB01KT 9999 FEW060 M09/M12 Q0994;
0122066304999992010010616204+46533+009883FM-15+1707LSZS V0202001N002112200019N0112651N1-01401-01601999999ADDGA1021+018001999GF102991999999999999999999MA1099491999999REMMET053METAR LSZS 061620Z 20004KT 9999 FEW060 M14/M16 Q0995;
0149066304999992010010706504+46533+009883FM-15+1707LSZS V0209999V001012200019N0020001N1-01801-01901999999ADDGA1021+015001999GF102991999999999999999999MA1100001999999MW1411REMMET074METAR LSZS 070650Z VRB02KT 2000 BCFG FEW050 M18/M19 Q1000 RESN R03/491099;
0144066304999992010010707204+46533+009883FM-15+1707LSZS V0209999C000012200019N0060001N1-01701-01901999999ADDGA1021+015001999GF102991999999999999999999MA1100001999999MW1411REMMET069METAR LSZS 070720Z 00000KT 6000 BCFG FEW050 M17/M19 Q1000 R03/491099;
0144066304999992010010707504+46533+009883FM-15+1707LSZS V0209999V000512200019N0112651N1-01801-02001999999ADDGA1021+015001999GF102991999999999999999999MA1100101999999MW1411REMMET069METAR LSZS 070750Z VRB01KT 9999 BCFG FEW050 M18/M20 Q1001 R03/491099;
0144066304999992010010708204+46533+009883FM-15+1707LSZS V0209999V001012200019N0112651N1-01701-01901999999ADDGA1021+015001999GF102991999999999999999999MA1100101999999MW1411REMMET069METAR LSZS 070820Z VRB02KT 9999 BCFG FEW050 M17/M19 Q1001 R03/491099;
0144066304999992010010708504+46533+009883FM-15+1707LSZS V0200901N000512200019N0112651N1-01801-01901999999ADDGA1021+015001999GF102991999999999999999999MA1100201999999MW1411REMMET069METAR LSZS 070850Z 09001KT 9999 BCFG FEW050 M18/M19 Q1002 R03/491099;
0144066304999992010010709204+46533+009883FM-15+1707LSZS V0209999V000512200019N0112651N1-01801-02001999999ADDGA1021+015001999GF102991999999999999999999MA1100201999999MW1411REMMET069METAR LSZS 070920Z VRB01KT 9999 BCFG FEW050 M18/M20 Q1002 R03/491099;
0144066304999992010010709504+46533+009883FM-15+1707LSZS V0209999V000512200019N0112651N1-01501-01701999999ADDGA1021+015001999GF102991999999999999999999MA1100201999999MW1411REMMET069METAR LSZS 070950Z VRB01KT 9999 BCFG FEW050 M15/M17 Q1002 R03/491099;
0133066304999992010010710204+46533+009883FM-15+1707LSZS V0209999V001012200019N0112651N1-01301-01501999999ADDGA1021+015001999GF102991999999999999999999MA1100201999999REMMET064METAR LSZS 071020Z VRB02KT 9999 FEW050 M13/M15 Q1002 R03/491099;
0133066304999992010010710504+46533+009883FM-15+1707LSZS V0201001N001012200019N0112651N1-01301-01401999999ADDGA1021+015001999GF102991999999999999999999MA1100201999999REMMET064METAR LSZS 071050Z 10002KT 9999 FEW050 M13/M14 Q1002 R03/491099;
0085066304999992010010711204+46533+009883FM-15+1707LSZS V0209999V001519999999Y0099001N1-01301-01401999999ADDMA1100201999999REMMET058METAR LSZS 071120Z VRB03KT CAVOK M13/M14 Q1002 R03/491099;
0085066304999992010010711504+46533+009883FM-15+1707LSZS V0209999V000519999999Y0099001N1-01201-01301999999ADDMA1100201999999REMMET058METAR LSZS 071150Z VRB01KT CAVOK M12/M13 Q1002 R03/420199;
0085066304999992010010712204+46533+009883FM-15+1707LSZS V0209999V000519999999Y0099001N1-01301-01401999999ADDMA1100101999999REMMET058METAR LSZS 071220Z VRB01KT CAVOK M13/M14 Q1001 R03/420199;
0085066304999992010010712504+46533+009883FM-15+1707LSZS V0209999V000519999999Y0099001N1-01101-01201999999ADDMA1100201999999REMMET058METAR LSZS 071250Z VRB01KT CAVOK M11/M12 Q1002 R03/420199;
0085066304999992010010713204+46533+009883FM-15+1707LSZS V0209999V000519999999Y0099001N1-00901-01101999999ADDMA1100201999999REMMET058METAR LSZS 071320Z VRB01KT CAVOK M09/M11 Q1002 R03/420199;
0085066304999992010010713504+46533+009883FM-15+1707LSZS V0209999V000519999999Y0099001N1-01001-01301999999ADDMA1100201999999REMMET058METAR LSZS 071350Z VRB01KT CAVOK M10/M13 Q1002 R03/420199;
0085066304999992010010714204+46533+009883FM-15+1707LSZS V0209999V001019999999Y0099001N1-00801-01201999999ADDMA1100201999999REMMET058METAR LSZS 071420Z VRB02KT CAVOK M08/M12 Q1002 R03/420199;
0074066304999992010010714504+46533+009883FM-15+1707LSZS V0209999V001019999999Y0099001N1-00901-01201999999ADDMA1100201999999REMMET047METAR LSZS 071450Z VRB02KT CAVOK M09/M12 Q1002;
0145066304999992010010715204+46533+009883FM-15+1707LSZS V0209999V001010270019N0112651N1-00901-01201999999ADDGA1021+012001999GA2081+027001999GF108991999999999999999999MA1100201999999REMMET060METAR LSZS 071520Z VRB02KT 9999 FEW040 OVC090 M09/M12 Q1002;
0145066304999992010010715504+46533+009883FM-15+1707LSZS V0209999V001010270019N0112651N1-00801-01301999999ADDGA1021+012001999GA2081+027001999GF108991999999999999999999MA1100311999999REMMET060METAR LSZS 071550Z VRB02KT 9999 FEW040 OVC090 M08/M13 Q1003;
0145066304999992010010716204+46533+009883FM-15+1707LSZS V0209999V000510270019N0112651N1-00901-01101999999ADDGA1021+012001999GA2081+027001999GF108991999999999999999999MA1100311999999REMMET060METAR LSZS 071620Z VRB01KT 9999 FEW040 OVC090 M09/M11 Q1003;
0140066304999992010010806504+46533+009883FM-15+1707LSZS V0201701N001010030019N0008001N1-00801-00901999999ADDGA1081+003001999GF108991999999999999999999MA1100001999999MW1731REMMET065METAR LSZS 080650Z 17002KT 0800 SN OVC010 M08/M09 Q1000 R/SNOCLO;
0140066304999992010010807204+46533+009883FM-15+1707LSZS V0201601N000510030019N0008001N1-00801-00901999999ADDGA1081+003001999GF108991999999999999999999MA1100001999999MW1731REMMET065METAR LSZS 080720Z 16001KT 0800 SN OVC010 M08/M09 Q1000 R/SNOCLO;
0140066304999992010010807504+46533+009883FM-15+1707LSZS V0209999V000510030019N0008001N1-00801-00901999999ADDGA1081+003001999GF108991999999999999999999MA1100001999999MW1731REMMET065METAR LSZS 080750Z VRB01KT 0800 SN OVC010 M08/M09 Q1000 R/SNOCLO;
0148066304999992010010808204+46533+009883FM-15+1707LSZS V0200201N002610030019N0008001N1-00701-00801999999ADDGA1081+003001999GF108991999999999999999999MA1099901999999MW1731REMMET073METAR LSZS 080820Z 02005KT 350V060 0800 SN OVC010 M07/M08 Q0999 R/SNOCLO;
0140066304999992010010808504+46533+009883FM-15+1707LSZS V0200401N002610030019N0008001N1-00701-00801999999ADDGA1081+003001999GF108991999999999999999999MA1099901999999MW1731REMMET065METAR LSZS 080850Z 04005KT 0800 SN OVC010 M07/M08 Q0999 R/SNOCLO;
0140066304999992010010809204+46533+009883FM-15+1707LSZS V0200401N002110030019N0008001N1-00701-00801999999ADDGA1081+003001999GF108991999999999999999999MA1099901999999MW1731REMMET065METAR LSZS 080920Z 04004KT 0800 SN OVC010 M07/M08 Q0999 R/SNOCLO;
0140066304999992010010809504+46533+009883FM-15+1707LSZS V0209999V000510030019N0008001N1-00701-00801999999ADDGA1081+003001999GF108991999999999999999999MA1099901999999MW1731REMMET065METAR LSZS 080950Z VRB01KT 0800 SN OVC010 M07/M08 Q0999 R/SNOCLO;
0140066304999992010010810204+46533+009883FM-15+1707LSZS V0209999V000510030019N0008001N1-00701-00801999999ADDGA1081+003001999GF108991999999999999999999MA1099901999999MW1731REMMET065METAR LSZS 081020Z VRB01KT 0800 SN OVC010 M07/M08 Q0999 R/SNOCLO;
0140066304999992010010810504+46533+009883FM-15+1707LSZS V0209999V000510030019N0008001N1-00601-00801999999ADDGA1081+003001999GF108991999999999999999999MA1099801999999MW1731REMMET065METAR LSZS 081050Z VRB01KT 0800 SN OVC010 M06/M08 Q0998 R/SNOCLO;
0140066304999992010010811204+46533+009883FM-15+1707LSZS V0209999V000510030019N0008001N1-00601-00701999999ADDGA1081+003001999GF108991999999999999999999MA1099801999999MW1731REMMET065METAR LSZS 081120Z VRB01KT 0800 SN OVC010 M06/M07 Q0998 R/SNOCLO;
0141066304999992010010811504+46533+009883FM-15+1707LSZS V0209999V000510030019N0015001N1-00601-00701999999ADDGA1081+003001999GF108991999999999999999999MA1099701999999MW1711REMMET066METAR LSZS 081150Z VRB01KT 1500 -SN OVC010 M06/M07 Q0997 R/SNOCLO;
0141066304999992010010812204+46533+009883FM-15+1707LSZS V0209999V000510030019N0015001N1-00601-00701999999ADDGA1081+003001999GF108991999999999999999999MA1099591999999MW1711REMMET066METAR LSZS 081220Z VRB01KT 1500 -SN OVC010 M06/M07 Q0996 R/SNOCLO;
0141066304999992010010812504+46533+009883FM-15+1707LSZS V0209999V000510030019N0015001N1-00501-00701999999ADDGA1081+003001999GF108991999999999999999999MA1099591999999MW1711REMMET066METAR LSZS 081250Z VRB01KT 1500 -SN OVC010 M05/M07 Q0996 R/SNOCLO;
0131066304999992010010813204+46533+009883FM-15+1707LSZS V0201801N000510060019N0050001N1-00601-00701999999ADDGA1071+006001999GF107991999999999999999999MA1099491999999REMMET062METAR LSZS 081320Z 18001KT 5000 BKN020 M06/M07 Q0995 R/SNOCLO;
0131066304999992010010813504+46533+009883FM-15+1707LSZS V0201901N000510060019N0050001N1-00601-00701999999ADDGA1071+006001999GF107991999999999999999999MA1099491999999REMMET062METAR LSZS 081350Z 19001KT 5000 BKN020 M06/M07 Q0995 R/SNOCLO;
0131066304999992010010814204+46533+009883FM-15+1707LSZS V0209999V000510060019N0050001N1-00501-00701999999ADDGA1071+006001999GF107991999999999999999999MA1099491999999REMMET062METAR LSZS 081420Z VRB01KT 5000 BKN020 M05/M07 Q0995 R/SNOCLO;
0131066304999992010010814504+46533+009883FM-15+1707LSZS V0209999V001010060019N0050001N1-00501-00601999999ADDGA1071+006001999GF107991999999999999999999MA1099491999999REMMET062METAR LSZS 081450Z VRB02KT 5000 BKN020 M05/M06 Q0995 R/SNOCLO;
0171066304999992010010815204+46533+009883FM-15+1707LSZS V0200201N003610090019N0050001N1-00501-00601999999ADDGA1041+003001999GA2081+009001999GF108991999999999999999999MA1099491999999MW1711REMMET080METAR LSZS 081520Z 02007KT 5000 2000SW -SN SCT010 OVC030 M05/M06 Q0995 R/SNOCLO;
0171066304999992010010815504+46533+009883FM-15+1707LSZS V0200201N004610090019N0050001N1-00501-00601999999ADDGA1041+003001999GA2081+009001999GF108991999999999999999999MA1099491999999MW1711REMMET080METAR LSZS 081550Z 02009KT 5000 2000SW -SN SCT010 OVC030 M05/M06 Q0995 R/SNOCLO;
0171066304999992010010816204+46533+009883FM-15+1707LSZS V0200201N003610090019N0050001N1-00601-00701999999ADDGA1041+003001999GA2081+009001999GF108991999999999999999999MA1099491999999MW1711REMMET080METAR LSZS 081620Z 02007KT 5000 2000SW -SN SCT010 OVC030 M06/M07 Q0995 R/SNOCLO;
0150066304999992010010906504+46533+009883FM-15+1707LSZS V0209999V000510015019N0008001N1-01201-01301999999ADDGA1071+001501999GA2081+006001999GF108991999999999999999999MA1099391999999REMMET065METAR LSZS 090650Z VRB01KT 0800 BKN005 OVC020 M12/M13 Q0994 RESN;
0127066304999992010010907204+46533+009883FM-15+1707LSZS V0201901N001010015019N0008001N1-01201-01301999999ADDGA1081+001501999GF108991999999999999999999MA1099391999999REMMET058METAR LSZS 090720Z 19002KT 0800 OVC005 M12/M13 Q0994 RESN;
0127066304999992010010907504+46533+009883FM-15+1707LSZS V0209999V000510006019N0015001N1-01101-01301999999ADDGA1081+000601999GF108991999999999999999999MA1099491999999REMMET058METAR LSZS 090750Z VRB01KT 1500 OVC002 M11/M13 Q0995 RESN;
0122066304999992010010908204+46533+009883FM-15+1707LSZS V0209999V001010006019N0015001N1-01101-01201999999ADDGA1081+000601999GF108991999999999999999999MA1099391999999REMMET053METAR LSZS 090820Z VRB02KT 1500 OVC002 M11/M12 Q0994;
0122066304999992010010908504+46533+009883FM-15+1707LSZS V0202201N000510006019N0015001N1-01001-01101999999ADDGA1081+000601999GF108991999999999999999999MA1099391999999REMMET053METAR LSZS 090850Z 22001KT 1500 OVC002 M10/M11 Q0994;
0145066304999992010010909204+46533+009883FM-15+1707LSZS V0209999V000510240019N0015001N1-01001-01101999999ADDGA1041+000601999GA2071+024001999GF107991999999999999999999MA1099391999999REMMET060METAR LSZS 090920Z VRB01KT 1500 SCT002 BKN080 M10/M11 Q0994;
0168066304999992010010909504+46533+009883FM-15+1707LSZS V0209999V001010060019N0015001N1-00901-01001999999ADDGA1021+000601999GA2071+006001999GA3071+024001999GF107991999999999999999999MA1099291999999REMMET067METAR LSZS 090950Z VRB02KT 1500 FEW002 BKN020 BKN080 M09/M10 Q0993;
0168066304999992010010910204+46533+009883FM-15+1707LSZS V0200501N000510060019N0020001N1-00801-00901999999ADDGA1021+000601999GA2071+006001999GA3071+024001999GF107991999999999999999999MA1099291999999REMMET067METAR LSZS 091020Z 05001KT 2000 FEW002 BKN020 BKN080 M08/M09 Q0993;
0175066304999992010010911204+46533+009883FM-15+1707LSZS V0209999V001010060019N0050001N1-00701-00801999999ADDGA1021+000601999GA2071+006001999GA3071+024001999GF107991999999999999999999MA1099191999999REMMET074METAR LSZS 091120Z VRB02KT 5000 2000SW FEW002 BKN020 BKN080 M07/M08 Q0992;
0154066304999992010010911504+46533+009883FM-15+1707LSZS V0209999V000510240019N0090001N1-00701-00801999999ADDGA1021+001501999GA2081+024001999GF108991999999999999999999MA1099191999999MW1101REMMET063METAR LSZS 091150Z VRB01KT 9000 BR FEW005 OVC080 M07/M08 Q0992;
0154066304999992010010912204+46533+009883FM-15+1707LSZS V0200301N002110240019N0090001N1-00701-00801999999ADDGA1021+001501999GA2081+024001999GF108991999999999999999999MA1099091999999MW1101REMMET063METAR LSZS 091220Z 03004KT 9000 BR FEW005 OVC080 M07/M08 Q0991;
0154066304999992010010912504+46533+009883FM-15+1707LSZS V0200201N003610240019N0080001N1-00701-00801999999ADDGA1021+001501999GA2081+024001999GF108991999999999999999999MA1099091999999MW1101REMMET063METAR LSZS 091250Z 02007KT 8000 BR FEW005 OVC080 M07/M08 Q0991;
0162066304999992010010913504+46533+009883FM-15+1707LSZS V0200201N005110210019N0070001N1-00701-00701999999ADDGA1021+003001999GA2071+021001999GF107991999999999999999999MA1099091999999MW1711REMMET071METAR LSZS 091350Z 02010KT 7000 3000SW -SN FEW010 BKN070 M07/M07 Q0991;
0155066304999992010010914204+46533+009883FM-15+1707LSZS V0200301N005110090019N0020001N1-00701-00801999999ADDGA1021+003001999GA2081+009001999GF108991999999999999999999MA1099091999999MW1711REMMET064METAR LSZS 091420Z 03010KT 2000 -SN FEW010 OVC030 M07/M08 Q0991;
0132066304999992010010914504+46533+009883FM-15+1707LSZS V0200201N004610060019N0015001N1-00701-00801999999ADDGA1081+006001999GF108991999999999999999999MA1099091999999MW1711REMMET057METAR LSZS 091450Z 02009KT 1500 -SN OVC020 M07/M08 Q0991;
0132066304999992010010915204+46533+009883FM-15+1707LSZS V0200101N005110090019N0030001N1-00701-00801999999ADDGA1081+009001999GF108991999999999999999999MA1099191999999MW1711REMMET057METAR LSZS 091520Z 01010KT 3000 -SN OVC030 M07/M08 Q0992;
0148066304999992010011006504+46533+009883FM-15+1707LSZS V0209999V000510090019N0080001N1-00901-01001999999ADDGA1081+009001999GF108991999999999999999999MA1100001999999MW1711REMMET073METAR LSZS 100650Z VRB01KT 8000 3000SW -SN OVC030 M09/M10 Q1000 R03/4950;
0157066304999992010011007204+46533+009883FM-15+1707LSZS V0209999V000510120019N0080001N1-00901-01001999999ADDGA1041+006001999GA2071+012001999GF107991999999999999999999MA1100001999999REMMET072METAR LSZS 100720Z VRB01KT 8000 3000SW SCT020 BKN040 M09/M10 Q1000 RESN;
0152066304999992010011007504+46533+009883FM-15+1707LSZS V0209999C000010120019N0080001N1-00801-00901999999ADDGA1041+006001999GA2071+012001999GF107991999999999999999999MA1100001999999REMMET067METAR LSZS 100750Z 00000KT 8000 3000SW SCT020 BKN040 M08/M09 Q1000;
0152066304999992010011008204+46533+009883FM-15+1707LSZS V0209999V000510120019N0080001N1-00801-00901999999ADDGA1041+006001999GA2071+012001999GF107991999999999999999999MA1100101999999REMMET067METAR LSZS 100820Z VRB01KT 8000 3000SW SCT020 BKN040 M08/M09 Q1001;
0152066304999992010011008504+46533+009883FM-15+1707LSZS V0200701N000510120019N0080001N1-00801-00901999999ADDGA1041+006001999GA2071+012001999GF107991999999999999999999MA1100101999999REMMET067METAR LSZS 100850Z 07001KT 8000 3000SW SCT020 BKN040 M08/M09 Q1001;
0152066304999992010011009204+46533+009883FM-15+1707LSZS V0209999C000010120019N0080001N1-00701-00901999999ADDGA1041+006001999GA2071+012001999GF107991999999999999999999MA1100101999999REMMET067METAR LSZS 100920Z 00000KT 8000 3000SW SCT020 BKN040 M07/M09 Q1001;
0152066304999992010011009504+46533+009883FM-15+1707LSZS V0201401N000510120019N0080001N1-00701-00901999999ADDGA1041+006001999GA2071+012001999GF107991999999999999999999MA1100201999999REMMET067METAR LSZS 100950Z 14001KT 8000 3000SW SCT020 BKN040 M07/M09 Q1002;
0145066304999992010011010204+46533+009883FM-15+1707LSZS V0209999V000510120019N0080001N1-00601-00801999999ADDGA1041+006001999GA2071+012001999GF107991999999999999999999MA1100201999999REMMET060METAR LSZS 101020Z VRB01KT 8000 SCT020 BKN040 M06/M08 Q1002;
0145066304999992010011010504+46533+009883FM-15+1707LSZS V0202501N000510120019N0080001N1-00601-00701999999ADDGA1041+006001999GA2071+012001999GF107991999999999999999999MA1100201999999REMMET060METAR LSZS 101050Z 25001KT 8000 SCT020 BKN040 M06/M07 Q1002;
0145066304999992010011011204+46533+009883FM-15+1707LSZS V0202201N000510120019N0080001N1-00501-00601999999ADDGA1041+006001999GA2071+012001999GF107991999999999999999999MA1100201999999REMMET060METAR LSZS 101120Z 22001KT 8000 SCT020 BKN040 M05/M06 Q1002;
0145066304999992010011011504+46533+009883FM-15+1707LSZS V0201501N000510120019N0080001N1-00401-00601999999ADDGA1041+006001999GA2071+012001999GF107991999999999999999999MA1100201999999REMMET060METAR LSZS 101150Z 15001KT 8000 SCT020 BKN040 M04/M06 Q1002;
0145066304999992010011012504+46533+009883FM-15+1707LSZS V0209999V001010120019N0112651N1-00301-00601999999ADDGA1041+006001999GA2071+012001999GF107991999999999999999999MA1100201999999REMMET060METAR LSZS 101250Z VRB02KT 9999 SCT020 BKN040 M03/M06 Q1002;
0145066304999992010011013204+46533+009883FM-15+1707LSZS V0209999C000010150019N0112651N1-00301-00601999999ADDGA1041+009001999GA2071+015001999GF107991999999999999999999MA1100201999999REMMET060METAR LSZS 101320Z 00000KT 9999 SCT030 BKN050 M03/M06 Q1002;
0122066304999992010011013504+46533+009883FM-15+1707LSZS V0200301N001010090019N0112651N1-00401-00701999999ADDGA1071+009001999GF107991999999999999999999MA1100201999999REMMET053METAR LSZS 101350Z 03002KT 9999 BKN030 M04/M07 Q1002;
0122066304999992010011014204+46533+009883FM-15+1707LSZS V0209999C000010090019N0112651N1-00301-00601999999ADDGA1071+009001999GF107991999999999999999999MA1100201999999REMMET053METAR LSZS 101420Z 00000KT 9999 BKN030 M03/M06 Q1002;
0122066304999992010011014504+46533+009883FM-15+1707LSZS V0209999C000010090019N0112651N1-00301-00701999999ADDGA1071+009001999GF107991999999999999999999MA1100311999999REMMET053METAR LSZS 101450Z 00000KT 9999 BKN030 M03/M07 Q1003;
0122066304999992010011015204+46533+009883FM-15+1707LSZS V0202101N001010105019N0112651N1-00301-00701999999ADDGA1071+010501999GF107991999999999999999999MA1100311999999REMMET053METAR LSZS 101520Z 21002KT 9999 BKN035 M03/M07 Q1003;
0122066304999992010011015504+46533+009883FM-15+1707LSZS V0209999V000512200019N0112651N1-00501-00901999999ADDGA1041+010501999GF104991999999999999999999MA1100311999999REMMET053METAR LSZS 101550Z VRB01KT 9999 SCT035 M05/M09 Q1003;
0122066304999992010011016204+46533+009883FM-15+1707LSZS V0209999V000512200019N0112651N1-00701-01001999999ADDGA1041+009001999GF104991999999999999999999MA1100311999999REMMET053METAR LSZS 101620Z VRB01KT 9999 SCT030 M07/M10 Q1003;
0122066304999992010011106504+46533+009883FM-15+1707LSZS V0209999V001012200019N0112651N1-01801-02001999999ADDGA1021+018001999GF102991999999999999999999MA1100711999999REMMET053METAR LSZS 110650Z VRB02KT 9999 FEW060 M18/M20 Q1007;
0122066304999992010011107204+46533+009883FM-15+1707LSZS V0202001N001512200019N0112651N1-01901-02101999999ADDGA1021+018001999GF102991999999999999999999MA1100711999999REMMET053METAR LSZS 110720Z 20003KT 9999 FEW060 M19/M21 Q1007;
0122066304999992010011107504+46533+009883FM-15+1707LSZS V0209999V000512200019N0112651N1-01901-02101999999ADDGA1041+024001999GF104991999999999999999999MA1100711999999REMMET053METAR LSZS 110750Z VRB01KT 9999 SCT080 M19/M21 Q1007;
0122066304999992010011108204+46533+009883FM-15+1707LSZS V0209999V000512200019N0112651N1-01901-02101999999ADDGA1021+024001999GF102991999999999999999999MA1100711999999REMMET053METAR LSZS 110820Z VRB01KT 9999 FEW080 M19/M21 Q1007;
0122066304999992010011108504+46533+009883FM-15+1707LSZS V0209999V000512200019N0112651N1-01901-02101999999ADDGA1021+024001999GF102991999999999999999999MA1100711999999REMMET053METAR LSZS 110850Z VRB01KT 9999 FEW080 M19/M21 Q1007;
0074066304999992010011109204+46533+009883FM-15+1707LSZS V0201901N000519999999Y0099001N1-01601-01701999999ADDMA1100711999999REMMET047METAR LSZS 110920Z 19001KT CAVOK M16/M17 Q1007;
0074066304999992010011109504+46533+009883FM-15+1707LSZS V0201801N000519999999Y0099001N1-01501-01701999999ADDMA1100711999999REMMET047METAR LSZS 110950Z 18001KT CAVOK M15/M17 Q1007;
0122066304999992010011110204+46533+009883FM-15+1707LSZS V0209999V000510270019N0112651N1-01201-01401999999ADDGA1071+027001999GF107991999999999999999999MA1100711999999REMMET053METAR LSZS 111020Z VRB01KT 9999 BKN095 M12/M14 Q1007;
0122066304999992010011110504+46533+009883FM-15+1707LSZS V0202401N001510270019N0112651N1-01101-01201999999ADDGA1071+027001999GF107991999999999999999999MA1100711999999REMMET053METAR LSZS 111050Z 24003KT 9999 BKN095 M11/M12 Q1007;
0122066304999992010011111204+46533+009883FM-15+1707LSZS V0209999V000510240019N0112651N1-01001-01101999999ADDGA1071+024001999GF107991999999999999999999MA1100711999999REMMET053METAR LSZS 111120Z VRB01KT 9999 BKN080 M10/M11 Q1007;
0122066304999992010011111504+46533+009883FM-15+1707LSZS V0209999V001010240019N0112651N1-00901-01001999999ADDGA1071+024001999GF107991999999999999999999MA1100611999999REMMET053METAR LSZS 111150Z VRB02KT 9999 BKN080 M09/M10 Q1006;
0122066304999992010011112204+46533+009883FM-15+1707LSZS V0209999V000510240019N0112651N1-00901-01001999999ADDGA1081+024001999GF108991999999999999999999MA1100611999999REMMET053METAR LSZS 111220Z VRB01KT 9999 OVC080 M09/M10 Q1006;
0130066304999992010011112504+46533+009883FM-15+1707LSZS V0201801N004610240019N0112651N1-00501-00901999999ADDGA1081+024001999GF108991999999999999999999MA1100611999999REMMET061METAR LSZS 111250Z 18009KT 140V220 9999 OVC080 M05/M09 Q1006;
0130066304999992010011113204+46533+009883FM-15+1707LSZS V0201901N005710240019N0112651N1-00501-00901999999ADDGA1081+024001999GF108991999999999999999999MA1100611999999REMMET061METAR LSZS 111320Z 19011KT 140V230 9999 OVC080 M05/M09 Q1006;
0122066304999992010011113504+46533+009883FM-15+1707LSZS V0201901N005110240019N0112651N1-00501-00801999999ADDGA1071+024001999GF107991999999999999999999MA1100611999999REMMET053METAR LSZS 111350Z 19010KT 9999 BKN080 M05/M08 Q1006;
0122066304999992010011114204+46533+009883FM-15+1707LSZS V0201801N004110240019N0112651N1-00501-00901999999ADDGA1071+024001999GF107991999999999999999999MA1100611999999REMMET053METAR LSZS 111420Z 18008KT 9999 BKN080 M05/M09 Q1006;
0130066304999992010011115204+46533+009883FM-15+1707LSZS V0201701N002612200019N0112651N1-00601-00901999999ADDGA1041+024001999GF104991999999999999999999MA1100611999999REMMET061METAR LSZS 111520Z 17005KT 140V220 9999 SCT080 M06/M09 Q1006;
0122066304999992010011115504+46533+009883FM-15+1707LSZS V0201801N004112200019N0112651N1-00601-00901999999ADDGA1041+024001999GF104991999999999999999999MA1100611999999REMMET053METAR LSZS 111550Z 18008KT 9999 SCT080 M06/M09 Q1006;
0122066304999992010011116204+46533+009883FM-15+1707LSZS V0201801N002612200019N0112651N1-00901-01101999999ADDGA1041+024001999GF104991999999999999999999MA1100611999999REMMET053METAR LSZS 111620Z 18005KT 9999 SCT080 M09/M11 Q1006;
0136066304999992010011206504+46533+009883FM-15+1707LSZS V0209999V001010180019N0112651N1-01201-01301999999ADDGA1071+018001999GF107991999999999999999999MA1100911999999REMMET067METAR LSZS 120650Z VRB02KT 9999 BKN060 M12/M13 Q1009 RESN R03/4902;
0136066304999992010011207204+46533+009883FM-15+1707LSZS V0202101N001010210019N0112651N1-01301-01401999999ADDGA1071+021001999GF107991999999999999999999MA1100911999999REMMET067METAR LSZS 120720Z 21002KT 9999 BKN070 M13/M14 Q1009 RESN R03/4902;
0131066304999992010011207504+46533+009883FM-15+1707LSZS V0209999C000010210019N0112651N1-01301-01401999999ADDGA1071+021001999GF107991999999999999999999MA1100911999999REMMET062METAR LSZS 120750Z 00000KT 9999 BKN070 M13/M14 Q1009 R03/4902;
0131066304999992010011208204+46533+009883FM-15+1707LSZS V0209999V000510210019N0112651N1-01101-01201999999ADDGA1071+021001999GF107991999999999999999999MA1100911999999REMMET062METAR LSZS 120820Z VRB01KT 9999 BKN070 M11/M12 Q1009 R03/4902;
0131066304999992010011208504+46533+009883FM-15+1707LSZS V0209999V001010210019N0112651N1-01001-01101999999ADDGA1071+021001999GF107991999999999999999999MA1100911999999REMMET062METAR LSZS 120850Z VRB02KT 9999 BKN070 M10/M11 Q1009 R03/4902;
0131066304999992010011209204+46533+009883FM-15+1707LSZS V0209999V001010210019N0112651N1-00901-01101999999ADDGA1071+021001999GF107991999999999999999999MA1100911999999REMMET062METAR LSZS 120920Z VRB02KT 9999 BKN070 M09/M11 Q1009 R03/4902;
0133066304999992010011209504+46533+009883FM-15+1707LSZS V0209999C000012200019N0112651N1-00901-01101999999ADDGA1041+021001999GF104991999999999999999999MA1100811999999REMMET064METAR LSZS 120950Z 00000KT 9999 SCT070 M09/M11 Q1008 R03/410099;
0133066304999992010011210204+46533+009883FM-15+1707LSZS V0209999V000512200019N0112651N1-01001-01101999999ADDGA1021+012001999GF102991999999999999999999MA1100811999999REMMET064METAR LSZS 121020Z VRB01KT 9999 FEW040 M10/M11 Q1008 R03/410099;
0153066304999992010011210504+46533+009883FM-15+1707LSZS V0201801N002612200019N0112651N1-00501-00801999999ADDGA1021+006001999GA2041+021001999GF104991999999999999999999MA1100811999999REMMET068METAR LSZS 121050Z 18005KT 140V260 9999 FEW020 SCT070 M05/M08 Q1008;
0152066304999992010011211204+46533+009883FM-15+1707LSZS V0202101N005712200019N0112651N1-00401-00701999999ADDGA1021+006001999GA2041+021001999GF104991999999999999999999MA1100811999999REMMET067METAR LSZS 121120Z 21011KT 9999 4900SW FEW020 SCT070 M04/M07 Q1008;
0145066304999992010011211504+46533+009883FM-15+1707LSZS V0202001N005110150019N0112651N1-00501-00801999999ADDGA1021+006001999GA2071+015001999GF107991999999999999999999MA1100711999999REMMET060METAR LSZS 121150Z 20010KT 9999 FEW020 BKN050 M05/M08 Q1007;
0145066304999992010011212204+46533+009883FM-15+1707LSZS V0202101N004610150019N0112651N1-00501-00801999999ADDGA1021+006001999GA2071+015001999GF107991999999999999999999MA1100711999999REMMET060METAR LSZS 121220Z 21009KT 9999 FEW020 BKN050 M05/M08 Q1007;
0152066304999992010011212504+46533+009883FM-15+1707LSZS V0202101N005110150019N0112651N1-00501-00801999999ADDGA1021+006001999GA2071+015001999GF107991999999999999999999MA1100711999999REMMET067METAR LSZS 121250Z 21010KT 9999 4500SW FEW020 BKN050 M05/M08 Q1007;
0162066304999992010011213204+46533+009883FM-15+1707LSZS V0202201N006710090019N0112651N1-00501-00801999999ADDGA1041+006001999GA2071+009001999GF107991999999999999999999MA1100711999999MW1711REMMET071METAR LSZS 121320Z 22013KT 9999 4500SW -SN SCT020 BKN030 M05/M08 Q1007;
0162066304999992010011213504+46533+009883FM-15+1707LSZS V0202201N005710090019N0112651N1-00501-00801999999ADDGA1041+006001999GA2071+009001999GF107991999999999999999999MA1100711999999MW1711REMMET071METAR LSZS 121350Z 22011KT 9999 4500SW -SN SCT020 BKN030 M05/M08 Q1007;
0162066304999992010011214204+46533+009883FM-15+1707LSZS V0202101N005110090019N0112651N1-00501-00801999999ADDGA1041+006001999GA2071+009001999GF107991999999999999999999MA1100711999999MW1711REMMET071METAR LSZS 121420Z 21010KT 9999 4500SW -SN SCT020 BKN030 M05/M08 Q1007;
0158066304999992010011214504+46533+009883FM-15+1707LSZS V0202001N005710090019N0060001N1-00501-00801999999ADDGA1041+006001999GA2071+009001999GF107991999999999999999999MA1100711999999REMMET073METAR LSZS 121450Z 20011KT 170V230 6000 SCT020 BKN030 M05/M08 Q1007 RESN;
0173066304999992010011215204+46533+009883FM-15+1707LSZS V0202001N004610150019N0080001N1-00501-00801999999ADDGA1021+006001999GA2071+015001999GF107991999999999999999999MA1100711999999MW1161MW2731REMMET076METAR LSZS 121520Z 20009KT 160V240 8000 VCSH SN FEW020 BKN050 M05/M08 Q1007;
0173066304999992010011215504+46533+009883FM-15+1707LSZS V0201701N003110150019N0080001N1-00501-00801999999ADDGA1021+006001999GA2071+015001999GF107991999999999999999999MA1100611999999MW1161MW2731REMMET076METAR LSZS 121550Z 17006KT 130V210 8000 VCSH SN FEW020 BKN050 M05/M08 Q1006;
0165066304999992010011216204+46533+009883FM-15+1707LSZS V0201401N003110150019N0080001N1-00501-00801999999ADDGA1021+006001999GA2071+015001999GF107991999999999999999999MA1100611999999MW1161MW2731REMMET068METAR LSZS 121620Z 14006KT 8000 VCSH SN FEW020 BKN050 M05/M08 Q1006;
0122066304999992010011306504+46533+009883FM-15+1707LSZS V0209999V000510240019N0112651N1-01301-01401999999ADDGA1071+024001999GF107991999999999999999999MA1100411999999REMMET053METAR LSZS 130650Z VRB01KT 9999 BKN080 M13/M14 Q1004;
0122066304999992010011307204+46533+009883FM-15+1707LSZS V0202201N001012200019N0112651N1-01301-01501999999ADDGA1041+024001999GF104991999999999999999999MA1100411999999REMMET053METAR LSZS 130720Z 22002KT 9999 SCT080 M13/M15 Q1004;
0122066304999992010011307504+46533+009883FM-15+1707LSZS V0209999V001010240019N0112651N1-01301-01501999999ADDGA1071+024001999GF107991999999999999999999MA1100411999999REMMET053METAR LSZS 130750Z VRB02KT 9999 BKN080 M13/M15 Q1004;
0122066304999992010011308204+46533+009883FM-15+1707LSZS V0209999V000510240019N0112651N1-01401-01601999999ADDGA1071+024001999GF107991999999999999999999MA1100411999999REMMET053METAR LSZS 130820Z VRB01KT 9999 BKN080 M14/M16 Q1004;
0122066304999992010011308504+46533+009883FM-15+1707LSZS V0209999V000510240019N0112651N1-01201-01401999999ADDGA1071+024001999GF107991999999999999999999MA1100411999999REMMET053METAR LSZS 130850Z VRB01KT 9999 BKN080 M12/M14 Q1004;
0122066304999992010011309204+46533+009883FM-15+1707LSZS V0209999V000510240019N0112651N1-01101-01301999999ADDGA1071+024001999GF107991999999999999999999MA1100411999999REMMET053METAR LSZS 130920Z VRB01KT 9999 BKN080 M11/M13 Q1004;
0122066304999992010011309504+46533+009883FM-15+1707LSZS V0209999V001510240019N0112651N1-00901-01201999999ADDGA1071+024001999GF107991999999999999999999MA1100411999999REMMET053METAR LSZS 130950Z VRB03KT 9999 BKN080 M09/M12 Q1004;
0122066304999992010011310204+46533+009883FM-15+1707LSZS V0209999V001510240019N0112651N1-00801-01101999999ADDGA1071+024001999GF107991999999999999999999MA1100411999999REMMET053METAR LSZS 131020Z VRB03KT 9999 BKN080 M08/M11 Q1004;
0130066304999992010011310504+46533+009883FM-15+1707LSZS V0202301N002110240019N0112651N1-00701-01001999999ADDGA1081+024001999GF108991999999999999999999MA1100411999999REMMET061METAR LSZS 131050Z 23004KT 180V270 9999 OVC080 M07/M10 Q1004;
0122066304999992010011311204+46533+009883FM-15+1707LSZS V0200601N000510240019N0112651N1-00601-01001999999ADDGA1081+024001999GF108991999999999999999999MA1100411999999REMMET053METAR LSZS 131120Z 06001KT 9999 OVC080 M06/M10 Q1004;
0122066304999992010011311504+46533+009883FM-15+1707LSZS V0201401N000510240019N0112651N1-00601-01101999999ADDGA1081+024001999GF108991999999999999999999MA1100411999999REMMET053METAR LSZS 131150Z 14001KT 9999 OVC080 M06/M11 Q1004;
0122066304999992010011312204+46533+009883FM-15+1707LSZS V0200501N000510180019N0090001N1-00601-01001999999ADDGA1081+018001999GF108991999999999999999999MA1100411999999REMMET053METAR LSZS 131220Z 05001KT 9000 OVC060 M06/M10 Q1004;
0122066304999992010011312504+46533+009883FM-15+1707LSZS V0200501N000510180019N0090001N1-00601-00901999999ADDGA1081+018001999GF108991999999999999999999MA1100311999999REMMET053METAR LSZS 131250Z 05001KT 9000 OVC060 M06/M09 Q1003;
0122066304999992010011313204+46533+009883FM-15+1707LSZS V0209999C000010150019N0080001N1-00601-00901999999ADDGA1081+015001999GF108991999999999999999999MA1100311999999REMMET053METAR LSZS 131320Z 00000KT 8000 OVC050 M06/M09 Q1003;
0122066304999992010011313504+46533+009883FM-15+1707LSZS V0200301N001010150019N0080001N1-00501-00901999999ADDGA1081+015001999GF108991999999999999999999MA1100411999999REMMET053METAR LSZS 131350Z 03002KT 8000 OVC050 M05/M09 Q1004;
0132066304999992010011314204+46533+009883FM-15+1707LSZS V0200201N001510120019N0030001N1-00501-00701999999ADDGA1081+012001999GF108991999999999999999999MA1100411999999MW1711REMMET057METAR LSZS 131420Z 02003KT 3000 -SN OVC040 M05/M07 Q1004;
0132066304999992010011314504+46533+009883FM-15+1707LSZS V0200301N001010120019N0020001N1-00601-00801999999ADDGA1081+012001999GF108991999999999999999999MA1100411999999MW1711REMMET057METAR LSZS 131450Z 03002KT 2000 -SN OVC040 M06/M08 Q1004;
0132066304999992010011315204+46533+009883FM-15+1707LSZS V0200301N001010120019N0020001N1-00601-00701999999ADDGA1081+012001999GF108991999999999999999999MA1100411999999MW1711REMMET057METAR LSZS 131520Z 03002KT 2000 -SN OVC040 M06/M07 Q1004;
0132066304999992010011315504+46533+009883FM-15+1707LSZS V0200201N001010120019N0020001N1-00601-00701999999ADDGA1081+012001999GF108991999999999999999999MA1100411999999MW1711REMMET057METAR LSZS 131550Z 02002KT 2000 -SN OVC040 M06/M07 Q1004;
0132066304999992010011316204+46533+009883FM-15+1707LSZS V0200101N001010120019N0020001N1-00701-00701999999ADDGA1081+012001999GF108991999999999999999999MA1100411999999MW1711REMMET057METAR LSZS 131620Z 01002KT 2000 -SN OVC040 M07/M07 Q1004;
0152066304999992010011406504+46533+009883FM-15+1707LSZS V0209999V000510120019N0060001N1-00801-01001999999ADDGA1021+004501999GA2071+012001999GF107991999999999999999999MA1100411999999REMMET067METAR LSZS 140650Z VRB01KT 6000 2000SW FEW015 BKN040 M08/M10 Q1004;
0145066304999992010011407204+46533+009883FM-15+1707LSZS V0209999C000010090019N0080001N1-00901-01001999999ADDGA1021+006001999GA2071+009001999GF107991999999999999999999MA1100411999999REMMET060METAR LSZS 140720Z 00000KT 8000 FEW020 BKN030 M09/M10 Q1004;
0145066304999992010011407504+46533+009883FM-15+1707LSZS V0202101N002110120019N0112651N1-00901-01101999999ADDGA1021+006001999GA2071+012001999GF107991999999999999999999MA1100511999999REMMET060METAR LSZS 140750Z 21004KT 9999 FEW020 BKN040 M09/M11 Q1005;
0122066304999992010011408204+46533+009883FM-15+1707LSZS V0209999V000510120019N0112651N1-00901-01101999999ADDGA1071+012001999GF107991999999999999999999MA1100511999999REMMET053METAR LSZS 140820Z VRB01KT 9999 BKN040 M09/M11 Q1005;
0122066304999992010011408504+46533+009883FM-15+1707LSZS V0209999V000510120019N0112651N1-00801-01001999999ADDGA1071+012001999GF107991999999999999999999MA1100511999999REMMET053METAR LSZS 140850Z VRB01KT 9999 BKN040 M08/M10 Q1005;
0122066304999992010011409204+46533+009883FM-15+1707LSZS V0202401N002110120019N0090001N1-00601-00901999999ADDGA1071+012001999GF107991999999999999999999MA1100511999999REMMET053METAR LSZS 140920Z 24004KT 9000 BKN040 M06/M09 Q1005;
0122066304999992010011409504+46533+009883FM-15+1707LSZS V0209999V001010120019N0090001N1-00601-00901999999ADDGA1071+012001999GF107991999999999999999999MA1100511999999REMMET053METAR LSZS 140950Z VRB02KT 9000 BKN040 M06/M09 Q1005;
0122066304999992010011410204+46533+009883FM-15+1707LSZS V0200601N000510120019N0090001N1-00501-00801999999ADDGA1071+012001999GF107991999999999999999999MA1100511999999REMMET053METAR LSZS 141020Z 06001KT 9000 BKN040 M05/M08 Q1005;
0122066304999992010011410504+46533+009883FM-15+1707LSZS V0200501N000512200019N0090001N1-00501-00801999999ADDGA1041+012001999GF104991999999999999999999MA1100411999999REMMET053METAR LSZS 141050Z 05001KT 9000 SCT040 M05/M08 Q1004;
0122066304999992010011411204+46533+009883FM-15+1707LSZS V0201101N000512200019N0090001N1-00401-00701999999ADDGA1041+012001999GF104991999999999999999999MA1100411999999REMMET053METAR LSZS 141120Z 11001KT 9000 SCT040 M04/M07 Q1004;
0122066304999992010011411504+46533+009883FM-15+1707LSZS V0201801N000510120019N0090001N1-00401-00801999999ADDGA1071+012001999GF107991999999999999999999MA1100411999999REMMET053METAR LSZS 141150Z 18001KT 9000 BKN040 M04/M08 Q1004;
0122066304999992010011412204+46533+009883FM-15+1707LSZS V0202001N003610150019N0112651N1-00301-00701999999ADDGA1071+015001999GF107991999999999999999999MA1100411999999REMMET053METAR LSZS 141220Z 20007KT 9999 BKN050 M03/M07 Q1004;
0122066304999992010011412504+46533+009883FM-15+1707LSZS V0202201N002610150019N0112651N1-00301-00701999999ADDGA1071+015001999GF107991999999999999999999MA1100411999999REMMET053METAR LSZS 141250Z 22005KT 9999 BKN050 M03/M07 Q1004;
0145066304999992010011413204+46533+009883FM-15+1707LSZS V0202101N003610150019N0112651N1-00301-00701999999ADDGA1021+006001999GA2071+015001999GF107991999999999999999999MA1100411999999REMMET060METAR LSZS 141320Z 21007KT 9999 FEW020 BKN050 M03/M07 Q1004;
0145066304999992010011413504+46533+009883FM-15+1707LSZS V0201901N004610150019N0112651N1-00401-00601999999ADDGA1021+006001999GA2071+015001999GF107991999999999999999999MA1100411999999REMMET060METAR LSZS 141350Z 19009KT 9999 FEW020 BKN050 M04/M06 Q1004;
0122066304999992010011414204+46533+009883FM-15+1707LSZS V0201801N004110150019N0112651N1-00401-00601999999ADDGA1071+015001999GF107991999999999999999999MA1100411999999REMMET053METAR LSZS 141420Z 18008KT 9999 BKN050 M04/M06 Q1004;
0130066304999992010011414504+46533+009883FM-15+1707LSZS V0201601N001510150019N0112651N1-00301-00701999999ADDGA1071+015001999GF107991999999999999999999MA1100411999999REMMET061METAR LSZS 141450Z 16003KT 120V210 9999 BKN050 M03/M07 Q1004;
0129066304999992010011415204+46533+009883FM-15+1707LSZS V0202001N005710135019N0112651N1-00401-00601999999ADDGA1071+013501999GF107991999999999999999999MA1100411999999REMMET060METAR LSZS 141520Z 20011KT 9999 4000SW BKN045 M04/M06 Q1004;
0137066304999992010011415504+46533+009883FM-15+1707LSZS V0202101N004110135019N0112651N1-00401-00701999999ADDGA1071+013501999GF107991999999999999999999MA1100411999999REMMET068METAR LSZS 141550Z 21008KT 170V250 9999 4000SW BKN045 M04/M07 Q1004;
0129066304999992010011416504+46533+009883FM-15+1707LSZS V0201501N003610135019N0112651N1-00401-00701999999ADDGA1071+013501999GF107991999999999999999999MA1100511999999REMMET060METAR LSZS 141650Z 15007KT 9999 4000SW BKN045 M04/M07 Q1005;
0074066304999992010011506504+46533+009883FM-15+1707LSZS V0209999V001019999999Y0099001N1-01901-02101999999ADDMA1101291999999REMMET047METAR LSZS 150650Z VRB02KT CAVOK M19/M21 Q1013;
0074066304999992010011507204+46533+009883FM-15+1707LSZS V0209999V001019999999Y0099001N1-01901-02101999999ADDMA1101291999999REMMET047METAR LSZS 150720Z VRB02KT CAVOK M19/M21 Q1013;
0074066304999992010011507504+46533+009883FM-15+1707LSZS V0209999V000519999999Y0099001N1-01701-01901999999ADDMA1101391999999REMMET047METAR LSZS 150750Z VRB01KT CAVOK M17/M19 Q1014;
0074066304999992010011508204+46533+009883FM-15+1707LSZS V0209999V001019999999Y0099001N1-01801-02001999999ADDMA1101391999999REMMET047METAR LSZS 150820Z VRB02KT CAVOK M18/M20 Q1014;
0112066304999992010011508504+46533+009883FM-15+1707LSZS V0209999V000512200019N0112651N1-01701-01901999999ADDGF100991999999999999999999MA1101391999999MW1101REMMET053METAR LSZS 150850Z VRB01KT 9999 BR NSC M17/M19 Q1014;
0074066304999992010011509204+46533+009883FM-15+1707LSZS V0201101N000519999999Y0099001N1-01501-01701999999ADDMA1101491999999REMMET047METAR LSZS 150920Z 11001KT CAVOK M15/M17 Q1015;
0074066304999992010011509504+46533+009883FM-15+1707LSZS V0201801N000519999999Y0099001N1-01501-01601999999ADDMA1101491999999REMMET047METAR LSZS 150950Z 18001KT CAVOK M15/M16 Q1015;
0074066304999992010011510204+46533+009883FM-15+1707LSZS V0209999C000019999999Y0099001N1-01501-01601999999ADDMA1101491999999REMMET047METAR LSZS 151020Z 00000KT CAVOK M15/M16 Q1015;
0074066304999992010011510504+46533+009883FM-15+1707LSZS V0209999C000019999999Y0099001N1-01401-01501999999ADDMA1101491999999REMMET047METAR LSZS 151050Z 00000KT CAVOK M14/M15 Q1015;
0074066304999992010011511204+46533+009883FM-15+1707LSZS V0209999V000519999999Y0099001N1-01201-01301999999ADDMA1101491999999REMMET047METAR LSZS 151120Z VRB01KT CAVOK M12/M13 Q1015;
0074066304999992010011511504+46533+009883FM-15+1707LSZS V0209999V000519999999Y0099001N1-01101-01201999999ADDMA1101491999999REMMET047METAR LSZS 151150Z VRB01KT CAVOK M11/M12 Q1015;
0074066304999992010011512204+46533+009883FM-15+1707LSZS V0209999C000019999999Y0099001N1-01001-01101999999ADDMA1101491999999REMMET047METAR LSZS 151220Z 00000KT CAVOK M10/M11 Q1015;
0074066304999992010011512504+46533+009883FM-15+1707LSZS V0201201N000519999999Y0099001N1-00701-01101999999ADDMA1101491999999REMMET047METAR LSZS 151250Z 12001KT CAVOK M07/M11 Q1015;
0074066304999992010011513504+46533+009883FM-15+1707LSZS V0209999V000519999999Y0099001N1-00601-01101999999ADDMA1101491999999REMMET047METAR LSZS 151350Z VRB01KT CAVOK M06/M11 Q1015;
0074066304999992010011514204+46533+009883FM-15+1707LSZS V0209999V000519999999Y0099001N1-00701-01101999999ADDMA1101491999999REMMET047METAR LSZS 151420Z VRB01KT CAVOK M07/M11 Q1015;
0074066304999992010011514504+46533+009883FM-15+1707LSZS V0209999V000519999999Y0099001N1-00501-00901999999ADDMA1101591999999REMMET047METAR LSZS 151450Z VRB01KT CAVOK M05/M09 Q1016;
0074066304999992010011515204+46533+009883FM-15+1707LSZS V0209999V001519999999Y0099001N1-00501-00901999999ADDMA1101691999999REMMET047METAR LSZS 151520Z VRB03KT CAVOK M05/M09 Q1017;
0074066304999992010011515504+46533+009883FM-15+1707LSZS V0202201N001019999999Y0099001N1-00801-01101999999ADDMA1101691999999REMMET047METAR LSZS 151550Z 22002KT CAVOK M08/M11 Q1017;
0074066304999992010011606504+46533+009883FM-15+1707LSZS V0209999V000519999999Y0099001N1-02001-02201999999ADDMA1102001999999REMMET047METAR LSZS 160650Z VRB01KT CAVOK M20/M22 Q1020;
0074066304999992010011607204+46533+009883FM-15+1707LSZS V0209999V001019999999Y0099001N1-02001-02201999999ADDMA1102001999999REMMET047METAR LSZS 160720Z VRB02KT CAVOK M20/M22 Q1020;
0074066304999992010011607504+46533+009883FM-15+1707LSZS V0209999V000519999999Y0099001N1-02201-02401999999ADDMA1102001999999REMMET047METAR LSZS 160750Z VRB01KT CAVOK M22/M24 Q1020;
0114066304999992010011608204+46533+009883FM-15+1707LSZS V0209999V001012200019N0112651N1-01901-02101999999ADDGF100991999999999999999999MA1102001999999MW1411REMMET055METAR LSZS 160820Z VRB02KT 9999 BCFG NSC M19/M21 Q1020;
0074066304999992010011608504+46533+009883FM-15+1707LSZS V0209999C000019999999Y0099001N1-01801-02001999999ADDMA1102001999999REMMET047METAR LSZS 160850Z 00000KT CAVOK M18/M20 Q1020;
0074066304999992010011609204+46533+009883FM-15+1707LSZS V0209999V000519999999Y0099001N1-01601-01801999999ADDMA1102001999999REMMET047METAR LSZS 160920Z VRB01KT CAVOK M16/M18 Q1020;
0074066304999992010011609504+46533+009883FM-15+1707LSZS V0202201N000519999999Y0099001N1-01601-01801999999ADDMA1102001999999REMMET047METAR LSZS 160950Z 22001KT CAVOK M16/M18 Q1020;
0074066304999992010011610204+46533+009883FM-15+1707LSZS V0209999V000519999999Y0099001N1-01401-01501999999ADDMA1101901999999REMMET047METAR LSZS 161020Z VRB01KT CAVOK M14/M15 Q1019;
0074066304999992010011610504+46533+009883FM-15+1707LSZS V0209999V000519999999Y0099001N1-01401-01501999999ADDMA1101901999999REMMET047METAR LSZS 161050Z VRB01KT CAVOK M14/M15 Q1019;
0074066304999992010011611204+46533+009883FM-15+1707LSZS V0209999C000019999999Y0099001N1-01101-01201999999ADDMA1101901999999REMMET047METAR LSZS 161120Z 00000KT CAVOK M11/M12 Q1019;
0074066304999992010011611504+46533+009883FM-15+1707LSZS V0209999V001019999999Y0099001N1-01101-01301999999ADDMA1101801999999REMMET047METAR LSZS 161150Z VRB02KT CAVOK M11/M13 Q1018;
0074066304999992010011612204+46533+009883FM-15+1707LSZS V0209999V001019999999Y0099001N1-00901-01001999999ADDMA1101801999999REMMET047METAR LSZS 161220Z VRB02KT CAVOK M09/M10 Q1018;
0074066304999992010011612504+46533+009883FM-15+1707LSZS V0209999V001019999999Y0099001N1-00601-01201999999ADDMA1101801999999REMMET047METAR LSZS 161250Z VRB02KT CAVOK M06/M12 Q1018;
0074066304999992010011613204+46533+009883FM-15+1707LSZS V0209999V001519999999Y0099001N1-00401-01101999999ADDMA1101801999999REMMET047METAR LSZS 161320Z VRB03KT CAVOK M04/M11 Q1018;
0074066304999992010011613504+46533+009883FM-15+1707LSZS V0209999V000519999999Y0099001N1-00401-01201999999ADDMA1101801999999REMMET047METAR LSZS 161350Z VRB01KT CAVOK M04/M12 Q1018;
0074066304999992010011614204+46533+009883FM-15+1707LSZS V0209999V000519999999Y0099001N1-00601-01101999999ADDMA1101801999999REMMET047METAR LSZS 161420Z VRB01KT CAVOK M06/M11 Q1018;
0074066304999992010011614504+46533+009883FM-15+1707LSZS V0209999V001019999999Y0099001N1-00601-01201999999ADDMA1101801999999REMMET047METAR LSZS 161450Z VRB02KT CAVOK M06/M12 Q1018;
0074066304999992010011615204+46533+009883FM-15+1707LSZS V0209999V000519999999Y0099001N1-00701-01101999999ADDMA1101691999999REMMET047METAR LSZS 161520Z VRB01KT CAVOK M07/M11 Q1017;
0074066304999992010011615504+46533+009883FM-15+1707LSZS V0201801N000519999999Y0099001N1-00701-01101999999ADDMA1101691999999REMMET047METAR LSZS 161550Z 18001KT CAVOK M07/M11 Q1017;
0074066304999992010011616204+46533+009883FM-15+1707LSZS V0201901N001519999999Y0099001N1-00801-01101999999ADDMA1101691999999REMMET047METAR LSZS 161620Z 19003KT CAVOK M08/M11 Q1017;
0122066304999992010011706504+46533+009883FM-15+1707LSZS V0209999V001012200019N0112651N1-01201-01401999999ADDGA1021+018001999GF102991999999999999999999MA1101391999999REMMET053METAR LSZS 170650Z VRB02KT 9999 FEW060 M12/M14 Q1014;
0122066304999992010011707204+46533+009883FM-15+1707LSZS V0209999V001012200019N0112651N1-01401-01501999999ADDGA1021+018001999GF102991999999999999999999MA1101391999999REMMET053METAR LSZS 170720Z VRB02KT 9999 FEW060 M14/M15 Q1014;
0122066304999992010011707504+46533+009883FM-15+1707LSZS V0209999V001012200019N0112651N1-01401-01501999999ADDGA1021+018001999GF102991999999999999999999MA1101491999999REMMET053METAR LSZS 170750Z VRB02KT 9999 FEW060 M14/M15 Q1015;
0122066304999992010011708204+46533+009883FM-15+1707LSZS V0209999V001012200019N0112651N1-01201-01301999999ADDGA1021+018001999GF102991999999999999999999MA1101391999999REMMET053METAR LSZS 170820Z VRB02KT 9999 FEW060 M12/M13 Q1014;
0122066304999992010011708504+46533+009883FM-15+1707LSZS V0209999V001012200019N0112651N1-01301-01401999999ADDGA1021+024001999GF102991999999999999999999MA1101391999999REMMET053METAR LSZS 170850Z VRB02KT 9999 FEW080 M13/M14 Q1014;
0122066304999992010011709204+46533+009883FM-15+1707LSZS V0209999V000512200019N0112651N1-01301-01401999999ADDGA1021+024001999GF102991999999999999999999MA1101491999999REMMET053METAR LSZS 170920Z VRB01KT 9999 FEW080 M13/M14 Q1015;
0122066304999992010011709504+46533+009883FM-15+1707LSZS V0209999V001012200019N0112651N1-01001-01201999999ADDGA1041+021001999GF104991999999999999999999MA1101491999999REMMET053METAR LSZS 170950Z VRB02KT 9999 SCT070 M10/M12 Q1015;
0122066304999992010011710204+46533+009883FM-15+1707LSZS V0209999V001012200019N0112651N1-00901-01001999999ADDGA1041+021001999GF104991999999999999999999MA1101491999999REMMET053METAR LSZS 171020Z VRB02KT 9999 SCT070 M09/M10 Q1015;
0122066304999992010011710504+46533+009883FM-15+1707LSZS V0209999V001012200019N0112651N1-00701-00801999999ADDGA1041+021001999GF104991999999999999999999MA1101391999999REMMET053METAR LSZS 171050Z VRB02KT 9999 SCT070 M07/M08 Q1014;
0122066304999992010011711204+46533+009883FM-15+1707LSZS V0209999V000512200019N0112651N1-00601-00801999999ADDGA1041+021001999GF104991999999999999999999MA1101391999999REMMET053METAR LSZS 171120Z VRB01KT 9999 SCT070 M06/M08 Q1014;
0122066304999992010011711504+46533+009883FM-15+1707LSZS V0209999V001510210019N0112651N1-00401-00701999999ADDGA1071+021001999GF107991999999999999999999MA1101391999999REMMET053METAR LSZS 171150Z VRB03KT 9999 BKN070 M04/M07 Q1014;
0122066304999992010011712204+46533+009883FM-15+1707LSZS V0209999V001010210019N0112651N1-00301-00601999999ADDGA1071+021001999GF107991999999999999999999MA1101391999999REMMET053METAR LSZS 171220Z VRB02KT 9999 BKN070 M03/M06 Q1014;
0141066304999992010011712504+46533+009883FM-15+1707LSZS V0200301N002110210019N0112651N1+00001-00501999999ADDGA1071+021001999GF107991999999999999999999MA1101391999999OC100771REMMET064METAR LSZS 171250Z 03004G15KT 290V110 9999 BKN070 M00/M05 Q1014;
0129066304999992010011713204+46533+009883FM-15+1707LSZS V0203501N005710210019N0112651N1+00101-00801999999ADDGA1071+021001999GF107991999999999999999999MA1101391999999REMMET060METAR LSZS 171320Z 35011KT 280V040 9999 BKN070 01/M08 Q1014;
0129066304999992010011713504+46533+009883FM-15+1707LSZS V0203401N005110210019N0112651N1+00201-00801999999ADDGA1071+021001999GF107991999999999999999999MA1101391999999REMMET060METAR LSZS 171350Z 34010KT 300V020 9999 BKN070 02/M08 Q1014;
0151066304999992010011714204+46533+009883FM-15+1707LSZS V0203301N004110210019N0112651N1+00201-00901999999ADDGA1071+021001999GF107991999999999999999999MA1101491999999MW1161OC101181REMMET068METAR LSZS 171420Z 33008G23KT 260V080 9999 VCSH BKN070 02/M09 Q1015;
0140066304999992010011714504+46533+009883FM-15+1707LSZS V0203201N007210210019N0112651N1+00001-00901999999ADDGA1071+021001999GF107991999999999999999999MA1101491999999MW1161REMMET065METAR LSZS 171450Z 32014KT 280V350 9999 VCSH BKN070 00/M09 Q1015;
0140066304999992010011715204+46533+009883FM-15+1707LSZS V0203301N006212200019N0112651N1+00101-00901999999ADDGA1041+021001999GF104991999999999999999999MA1101491999999MW1161REMMET065METAR LSZS 171520Z 33012KT 300V010 9999 VCSH SCT070 01/M09 Q1015;
0132066304999992010011715504+46533+009883FM-15+1707LSZS V0203001N007710180019N0112651N1+00001-00901999999ADDGA1071+018001999GF107991999999999999999999MA1101591999999MW1161REMMET057METAR LSZS 171550Z 30015KT 9999 VCSH BKN060 00/M09 Q1016;
0141066304999992010011716204+46533+009883FM-15+1707LSZS V0203001N005110180019N0112651N1+00001-00901999999ADDGA1071+018001999GF107991999999999999999999MA1101591999999MW1161REMMET066METAR LSZS 171620Z 30010KT 250V340 9999 VCSH BKN060 M00/M09 Q1016;
0122066304999992010011806504+46533+009883FM-15+1707LSZS V0209999V001012200019N0112651N1-01701-01801999999ADDGA1021+015001999GF102991999999999999999999MA1102201999999REMMET053METAR LSZS 180650Z VRB02KT 9999 FEW050 M17/M18 Q1022;
0122066304999992010011807204+46533+009883FM-15+1707LSZS V0209999V001012200019N0112651N1-01601-01801999999ADDGA1021+015001999GF102991999999999999999999MA1102201999999REMMET053METAR LSZS 180720Z VRB02KT 9999 FEW050 M16/M18 Q1022;
0122066304999992010011807504+46533+009883FM-15+1707LSZS V0209999V001512200019N0112651N1-01601-01701999999ADDGA1021+015001999GF102991999999999999999999MA1102201999999REMMET053METAR LSZS 180750Z VRB03KT 9999 FEW050 M16/M17 Q1022;
0122066304999992010011808204+46533+009883FM-15+1707LSZS V0201801N001012200019N0112651N1-01701-01801999999ADDGA1021+015001999GF102991999999999999999999MA1102201999999REMMET053METAR LSZS 180820Z 18002KT 9999 FEW050 M17/M18 Q1022;
0122066304999992010011808504+46533+009883FM-15+1707LSZS V0209999C000012200019N0112651N1-01401-01601999999ADDGA1021+015001999GF102991999999999999999999MA1102201999999REMMET053METAR LSZS 180850Z 00000KT 9999 FEW050 M14/M16 Q1022;
0122066304999992010011809204+46533+009883FM-15+1707LSZS V0209999C000012200019N0112651N1-01401-01601999999ADDGA1021+015001999GF102991999999999999999999MA1102201999999REMMET053METAR LSZS 180920Z 00000KT 9999 FEW050 M14/M16 Q1022;
0122066304999992010011809504+46533+009883FM-15+1707LSZS V0209999C000012200019N0112651N1-01301-01401999999ADDGA1021+015001999GF102991999999999999999999MA1102201999999REMMET053METAR LSZS 180950Z 00000KT 9999 FEW050 M13/M14 Q1022;
0122066304999992010011810204+46533+009883FM-15+1707LSZS V0209999V000512200019N0112651N1-01101-01301999999ADDGA1021+015001999GF102991999999999999999999MA1102201999999REMMET053METAR LSZS 181020Z VRB01KT 9999 FEW050 M11/M13 Q1022;
0122066304999992010011810504+46533+009883FM-15+1707LSZS V0209999V000512200019N0112651N1-00901-01301999999ADDGA1021+015001999GF102991999999999999999999MA1102201999999REMMET053METAR LSZS 181050Z VRB01KT 9999 FEW050 M09/M13 Q1022;
0122066304999992010011811204+46533+009883FM-15+1707LSZS V0201001N001012200019N0112651N1-00701-01201999999ADDGA1021+015001999GF102991999999999999999999MA1102101999999REMMET053METAR LSZS 181120Z 10002KT 9999 FEW050 M07/M12 Q1021;
0122066304999992010011811504+46533+009883FM-15+1707LSZS V0209999C000012200019N0112651N1-00801-01301999999ADDGA1021+015001999GF102991999999999999999999MA1102101999999REMMET053METAR LSZS 181150Z 00000KT 9999 FEW050 M08/M13 Q1021;
0122066304999992010011812204+46533+009883FM-15+1707LSZS V0200401N000512200019N0112651N1-00601-01201999999ADDGA1021+015001999GF102991999999999999999999MA1102101999999REMMET053METAR LSZS 181220Z 04001KT 9999 FEW050 M06/M12 Q1021;
0130066304999992010011812504+46533+009883FM-15+1707LSZS V0200301N002112200019N0112651N1-00401-01001999999ADDGA1021+015001999GF102991999999999999999999MA1102001999999REMMET061METAR LSZS 181250Z 03004KT 330V080 9999 FEW050 M04/M10 Q1020;
0130066304999992010011813204+46533+009883FM-15+1707LSZS V0200401N003112200019N0112651N1-00401-01101999999ADDGA1021+015001999GF102991999999999999999999MA1102001999999REMMET061METAR LSZS 181320Z 04006KT 020V080 9999 FEW050 M04/M11 Q1020;
0130066304999992010011813504+46533+009883FM-15+1707LSZS V0200601N003612200019N0112651N1-00301-01101999999ADDGA1021+015001999GF102991999999999999999999MA1102001999999REMMET061METAR LSZS 181350Z 06007KT 030V100 9999 FEW050 M03/M11 Q1020;
0074066304999992010011814204+46533+009883FM-15+1707LSZS V0200301N004119999999Y0099001N1-00501-01201999999ADDMA1102001999999REMMET047METAR LSZS 181420Z 03008KT CAVOK M05/M12 Q1020;
0074066304999992010011814504+46533+009883FM-15+1707LSZS V0200401N005719999999Y0099001N1-00501-01201999999ADDMA1102001999999REMMET047METAR LSZS 181450Z 04011KT CAVOK M05/M12 Q1020;
0074066304999992010011815204+46533+009883FM-15+1707LSZS V0200201N005119999999Y0099001N1-00601-01201999999ADDMA1102001999999REMMET047METAR LSZS 181520Z 02010KT CAVOK M06/M12 Q1020;
0074066304999992010011815504+46533+009883FM-15+1707LSZS V0209999V001519999999Y0099001N1-00701-01201999999ADDMA1102001999999REMMET047METAR LSZS 181550Z VRB03KT CAVOK M07/M12 Q1020;
0074066304999992010011816204+46533+009883FM-15+1707LSZS V0209999V001019999999Y0099001N1-01001-01401999999ADDMA1102101999999REMMET047METAR LSZS 181620Z VRB02KT CAVOK M10/M14 Q1021;
0122066304999992010011906504+46533+009883FM-15+1707LSZS V0202201N001012200019N0112651N1-02101-02301999999ADDGA1021+018001999GF102991999999999999999999MA1101901999999REMMET053METAR LSZS 190650Z 22002KT 9999 FEW060 M21/M23 Q1019;
0122066304999992010011907204+46533+009883FM-15+1707LSZS V0209999V000512200019N0112651N1-01901-02101999999ADDGA1021+018001999GF102991999999999999999999MA1101901999999REMMET053METAR LSZS 190720Z VRB01KT 9999 FEW060 M19/M21 Q1019;
0122066304999992010011907504+46533+009883FM-15+1707LSZS V0202301N001012200019N0112651N1-02001-02201999999ADDGA1021+018001999GF102991999999999999999999MA1101901999999REMMET053METAR LSZS 190750Z 23002KT 9999 FEW060 M20/M22 Q1019;
0122066304999992010011908204+46533+009883FM-15+1707LSZS V0209999V001012200019N0112651N1-01901-02201999999ADDGA1021+018001999GF102991999999999999999999MA1101901999999REMMET053METAR LSZS 190820Z VRB02KT 9999 FEW060 M19/M22 Q1019;
0122066304999992010011908504+46533+009883FM-15+1707LSZS V0209999V000512200019N0112651N1-01901-02101999999ADDGA1021+018001999GF102991999999999999999999MA1101901999999REMMET053METAR LSZS 190850Z VRB01KT 9999 FEW060 M19/M21 Q1019;
0122066304999992010011909204+46533+009883FM-15+1707LSZS V0202101N000512200019N0112651N1-01801-01901999999ADDGA1021+018001999GF102991999999999999999999MA1101801999999REMMET053METAR LSZS 190920Z 21001KT 9999 FEW060 M18/M19 Q1018;
0122066304999992010011909504+46533+009883FM-15+1707LSZS V0209999V000512200019N0112651N1-01501-01601999999ADDGA1021+018001999GF102991999999999999999999MA1101801999999REMMET053METAR LSZS 190950Z VRB01KT 9999 FEW060 M15/M16 Q1018;
0122066304999992010011910204+46533+009883FM-15+1707LSZS V0209999V000512200019N0112651N1-01301-01401999999ADDGA1021+024001999GF102991999999999999999999MA1101801999999REMMET053METAR LSZS 191020Z VRB01KT 9999 FEW080 M13/M14 Q1018;
0122066304999992010011910504+46533+009883FM-15+1707LSZS V0201701N000512200019N0112651N1-01301-01401999999ADDGA1021+024001999GF102991999999999999999999MA1101801999999REMMET053METAR LSZS 191050Z 17001KT 9999 FEW080 M13/M14 Q1018;
0122066304999992010011911204+46533+009883FM-15+1707LSZS V0209999V000512200019N0112651N1-01001-01101999999ADDGA1021+024001999GF102991999999999999999999MA1101691999999REMMET053METAR LSZS 191120Z VRB01KT 9999 FEW080 M10/M11 Q1017;
0122066304999992010011911504+46533+009883FM-15+1707LSZS V0209999C000012200019N0112651N1-00801-01301999999ADDGA1021+024001999GF102991999999999999999999MA1101691999999REMMET053METAR LSZS 191150Z 00000KT 9999 FEW080 M08/M13 Q1017;
0122066304999992010011912204+46533+009883FM-15+1707LSZS V0200901N000512200019N0112651N1-00601-01201999999ADDGA1021+024001999GF102991999999999999999999MA1101591999999REMMET053METAR LSZS 191220Z 09001KT 9999 FEW080 M06/M12 Q1016;
0122066304999992010011912504+46533+009883FM-15+1707LSZS V0209999V000512200019N0112651N1-00501-01401999999ADDGA1021+024001999GF102991999999999999999999MA1101491999999REMMET053METAR LSZS 191250Z VRB01KT 9999 FEW080 M05/M14 Q1015;
0122066304999992010011913504+46533+009883FM-15+1707LSZS V0209999V000512200019N0112651N1-00801-01401999999ADDGA1021+024001999GF102991999999999999999999MA1101491999999REMMET053METAR LSZS 191350Z VRB01KT 9999 FEW080 M08/M14 Q1015;
0122066304999992010011914204+46533+009883FM-15+1707LSZS V0209999V000512200019N0112651N1-00501-01301999999ADDGA1021+024001999GF102991999999999999999999MA1101491999999REMMET053METAR LSZS 191420Z VRB01KT 9999 FEW080 M05/M13 Q1015;
0122066304999992010011914504+46533+009883FM-15+1707LSZS V0209999C000012200019N0112651N1-00501-01501999999ADDGA1021+024001999GF102991999999999999999999MA1101491999999REMMET053METAR LSZS 191450Z 00000KT 9999 FEW080 M05/M15 Q1015;
0130066304999992010011916204+46533+009883FM-15+1707LSZS V0202001N002112200019N0112651N1-00701-01101999999ADDGA1021+024001999GF102991999999999999999999MA1101491999999REMMET061METAR LSZS 191620Z 20004KT 150V270 9999 FEW080 M07/M11 Q1015;
0122066304999992010011916504+46533+009883FM-15+1707LSZS V0209999V001012200019N0112651N1-00901-01201999999ADDGA1021+024001999GF102991999999999999999999MA1101491999999REMMET053METAR LSZS 191650Z VRB02KT 9999 FEW080 M09/M12 Q1015;
0074066304999992010012006504+46533+009883FM-15+1707LSZS V0209999V001019999999Y0099001N1-01801-02001999999ADDMA1101081999999REMMET047METAR LSZS 200650Z VRB02KT CAVOK M18/M20 Q1011;
0074066304999992010012007204+46533+009883FM-15+1707LSZS V0209999V001019999999Y0099001N1-02101-02301999999ADDMA1101081999999REMMET047METAR LSZS 200720Z VRB02KT CAVOK M21/M23 Q1011;
0074066304999992010012007504+46533+009883FM-15+1707LSZS V0209999V001019999999Y0099001N1-01901-02101999999ADDMA1101081999999REMMET047METAR LSZS 200750Z VRB02KT CAVOK M19/M21 Q1011;
0074066304999992010012008204+46533+009883FM-15+1707LSZS V0209999V001019999999Y0099001N1-02301-02501999999ADDMA1101081999999REMMET047METAR LSZS 200820Z VRB02KT CAVOK M23/M25 Q1011;
0074066304999992010012008504+46533+009883FM-15+1707LSZS V0209999V000519999999Y0099001N1-01801-01901999999ADDMA1101081999999REMMET047METAR LSZS 200850Z VRB01KT CAVOK M18/M19 Q1011;
0074066304999992010012009204+46533+009883FM-15+1707LSZS V0209999V000519999999Y0099001N1-01701-01901999999ADDMA1101081999999REMMET047METAR LSZS 200920Z VRB01KT CAVOK M17/M19 Q1011;
0074066304999992010012009504+46533+009883FM-15+1707LSZS V0209999V001019999999Y0099001N1-01401-01601999999ADDMA1101081999999REMMET047METAR LSZS 200950Z VRB02KT CAVOK M14/M16 Q1011;
0074066304999992010012010204+46533+009883FM-15+1707LSZS V0209999V000519999999Y0099001N1-01201-01301999999ADDMA1101081999999REMMET047METAR LSZS 201020Z VRB01KT CAVOK M12/M13 Q1011;
0074066304999992010012010504+46533+009883FM-15+1707LSZS V0209999V001019999999Y0099001N1-01401-01601999999ADDMA1101021999999REMMET047METAR LSZS 201050Z VRB02KT CAVOK M14/M16 Q1010;
0074066304999992010012011204+46533+009883FM-15+1707LSZS V0209999V000519999999Y0099001N1-01201-01401999999ADDMA1101021999999REMMET047METAR LSZS 201120Z VRB01KT CAVOK M12/M14 Q1010;
0074066304999992010012011504+46533+009883FM-15+1707LSZS V0209999V000519999999Y0099001N1-01101-01201999999ADDMA1101021999999REMMET047METAR LSZS 201150Z VRB01KT CAVOK M11/M12 Q1010;
0074066304999992010012012204+46533+009883FM-15+1707LSZS V0209999C000019999999Y0099001N1-00801-01101999999ADDMA1100911999999REMMET047METAR LSZS 201220Z 00000KT CAVOK M08/M11 Q1009;
0074066304999992010012012504+46533+009883FM-15+1707LSZS V0201301N000519999999Y0099001N1-00701-01401999999ADDMA1100911999999REMMET047METAR LSZS 201250Z 13001KT CAVOK M07/M14 Q1009;
0074066304999992010012013204+46533+009883FM-15+1707LSZS V0209999V000519999999Y0099001N1-00501-01401999999ADDMA1100811999999REMMET047METAR LSZS 201320Z VRB01KT CAVOK M05/M14 Q1008;
0074066304999992010012013504+46533+009883FM-15+1707LSZS V0209999V000519999999Y0099001N1-00701-01301999999ADDMA1100811999999REMMET047METAR LSZS 201350Z VRB01KT CAVOK M07/M13 Q1008;
0074066304999992010012014204+46533+009883FM-15+1707LSZS V0200301N000519999999Y0099001N1-00601-01301999999ADDMA1100911999999REMMET047METAR LSZS 201420Z 03001KT CAVOK M06/M13 Q1009;
0082066304999992010012014504+46533+009883FM-15+1707LSZS V0202101N001519999999Y0099001N1-00601-01301999999ADDMA1100911999999REMMET055METAR LSZS 201450Z 21003KT 180V270 CAVOK M06/M13 Q1009;
0122066304999992010012015204+46533+009883FM-15+1707LSZS V0209999V000512200019N0112651N1-00601-01301999999ADDGA1021+027001999GF102991999999999999999999MA1100911999999REMMET053METAR LSZS 201520Z VRB01KT 9999 FEW090 M06/M13 Q1009;
0122066304999992010012015504+46533+009883FM-15+1707LSZS V0209999V001012200019N0112651N1-00901-01501999999ADDGA1021+027001999GF102991999999999999999999MA1100911999999REMMET053METAR LSZS 201550Z VRB02KT 9999 FEW090 M09/M15 Q1009;
0132066304999992010012107204+46533+009883FM-15+1707LSZS V0209999V000510090019N0030001N1-00901-01001999999ADDGA1081+009001999GF108991999999999999999999MA1101291999999MW1711REMMET057METAR LSZS 210720Z VRB01KT 3000 -SN OVC030 M09/M10 Q1013;
0132066304999992010012107504+46533+009883FM-15+1707LSZS V0209999V000510090019N0030001N1-00901-01001999999ADDGA1081+009001999GF108991999999999999999999MA1101291999999MW1711REMMET057METAR LSZS 210750Z VRB01KT 3000 -SN OVC030 M09/M10 Q1013;
0141066304999992010012108204+46533+009883FM-15+1707LSZS V0209999V000510120019N0070001N1-00801-00901999999ADDGA1071+012001999GF107991999999999999999999MA1101391999999MW1711REMMET066METAR LSZS 210820Z VRB01KT 7000 -SN BKN040 M08/M09 Q1014 R03/4505;
0139066304999992010012109204+46533+009883FM-15+1707LSZS V0209999V000510120019N0112651N1-00601-00801999999ADDGA1071+012001999GF107991999999999999999999MA1101391999999MW1711REMMET064METAR LSZS 210920Z VRB01KT 9999 4500NE -SN BKN040 M06/M08 Q1014;
0132066304999992010012109504+46533+009883FM-15+1707LSZS V0209999V000510120019N0112651N1-00601-00801999999ADDGA1071+012001999GF107991999999999999999999MA1101491999999MW1711REMMET057METAR LSZS 210950Z VRB01KT 9999 -SN BKN040 M06/M08 Q1015;
0132066304999992010012110204+46533+009883FM-15+1707LSZS V0209999V000510120019N0112651N1-00401-00601999999ADDGA1071+012001999GF107991999999999999999999MA1101491999999MW1711REMMET057METAR LSZS 211020Z VRB01KT 9999 -SN BKN040 M04/M06 Q1015;
0142066304999992010012110504+46533+009883FM-15+1707LSZS V0209999V000510120019N0112651N1-00301-00501999999ADDGA1071+012001999GF107991999999999999999999MA1101491999999MW1161MW2731REMMET061METAR LSZS 211050Z VRB01KT 9999 VCSH SN BKN040 M03/M05 Q1015;
0142066304999992010012111204+46533+009883FM-15+1707LSZS V0209999C000010120019N0112651N1-00201-00601999999ADDGA1071+012001999GF107991999999999999999999MA1101491999999MW1161MW2731REMMET061METAR LSZS 211120Z 00000KT 9999 VCSH SN BKN040 M02/M06 Q1015;
0132066304999992010012111504+46533+009883FM-15+1707LSZS V0200201N003110120019N0112651N1-00101-00701999999ADDGA1071+012001999GF107991999999999999999999MA1101491999999MW1711REMMET057METAR LSZS 211150Z 02006KT 9999 -SN BKN040 M01/M07 Q1015;
0122066304999992010012112204+46533+009883FM-15+1707LSZS V0200401N003110150019N0112651N1-00201-00701999999ADDGA1071+015001999GF107991999999999999999999MA1101391999999REMMET053METAR LSZS 211220Z 04006KT 9999 BKN050 M02/M07 Q1014;
0122066304999992010012112504+46533+009883FM-15+1707LSZS V0200301N004110150019N0112651N1-00101-00701999999ADDGA1071+015001999GF107991999999999999999999MA1101391999999REMMET053METAR LSZS 211250Z 03008KT 9999 BKN050 M01/M07 Q1014;
0130066304999992010012113204+46533+009883FM-15+1707LSZS V0200401N003110150019N0112651N1-00101-00701999999ADDGA1071+015001999GF107991999999999999999999MA1101391999999REMMET061METAR LSZS 211320Z 04006KT 350V050 9999 BKN050 M01/M07 Q1014;
0130066304999992010012113504+46533+009883FM-15+1707LSZS V0200101N002610150019N0112651N1-00101-00701999999ADDGA1071+015001999GF107991999999999999999999MA1101391999999REMMET061METAR LSZS 211350Z 01005KT 300V040 9999 BKN050 M01/M07 Q1014;
0122066304999992010012114204+46533+009883FM-15+1707LSZS V0200101N002610150019N0112651N1-00201-00701999999ADDGA1071+015001999GF107991999999999999999999MA1101391999999REMMET053METAR LSZS 211420Z 01005KT 9999 BKN050 M02/M07 Q1014;
0130066304999992010012114504+46533+009883FM-15+1707LSZS V0200201N002610150019N0112651N1-00201-00701999999ADDGA1071+015001999GF107991999999999999999999MA1101491999999REMMET061METAR LSZS 211450Z 02005KT 320V050 9999 BKN050 M02/M07 Q1015;
0130066304999992010012115204+46533+009883FM-15+1707LSZS V0200401N002610150019N0112651N1-00401-00801999999ADDGA1071+015001999GF107991999999999999999999MA1101491999999REMMET061METAR LSZS 211520Z 04005KT 010V070 9999 BKN055 M04/M08 Q1015;
0122066304999992010012115504+46533+009883FM-15+1707LSZS V0200401N003610150019N0112651N1-00301-00801999999ADDGA1071+015001999GF107991999999999999999999MA1101491999999REMMET053METAR LSZS 211550Z 04007KT 9999 BKN055 M03/M08 Q1015;
0122066304999992010012116204+46533+009883FM-15+1707LSZS V0200601N004110150019N0112651N1-00301-00701999999ADDGA1071+015001999GF107991999999999999999999MA1101491999999REMMET053METAR LSZS 211620Z 06008KT 9999 BKN055 M03/M07 Q1015;
0074066304999992010012206204+46533+009883FM-15+1707LSZS V0209999V000519999999Y0099001N1-02001-02201999999ADDMA1101801999999REMMET047METAR LSZS 220620Z VRB01KT CAVOK M20/M22 Q1018;
0074066304999992010012206504+46533+009883FM-15+1707LSZS V0209999V001019999999Y0099001N1-02001-02201999999ADDMA1101801999999REMMET047METAR LSZS 220650Z VRB02KT CAVOK M20/M22 Q1018;
0074066304999992010012207204+46533+009883FM-15+1707LSZS V0201801N000519999999Y0099001N1-02301-02501999999ADDMA1101801999999REMMET047METAR LSZS 220720Z 18001KT CAVOK M23/M25 Q1018;
0074066304999992010012207504+46533+009883FM-15+1707LSZS V0202101N001019999999Y0099001N1-02001-02201999999ADDMA1101801999999REMMET047METAR LSZS 220750Z 21002KT CAVOK M20/M22 Q1018;
0074066304999992010012208204+46533+009883FM-15+1707LSZS V0209999V000519999999Y0099001N1-02101-02301999999ADDMA1101801999999REMMET047METAR LSZS 220820Z VRB01KT CAVOK M21/M23 Q1018;
0074066304999992010012209204+46533+009883FM-15+1707LSZS V0209999V000519999999Y0099001N1-01801-02001999999ADDMA1101801999999REMMET047METAR LSZS 220920Z VRB01KT CAVOK M18/M20 Q1018;
0074066304999992010012209504+46533+009883FM-15+1707LSZS V0209999C000019999999Y0099001N1-01601-01701999999ADDMA1101801999999REMMET047METAR LSZS 220950Z 00000KT CAVOK M16/M17 Q1018;
0074066304999992010012210204+46533+009883FM-15+1707LSZS V0209999V000519999999Y0099001N1-01601-01801999999ADDMA1101801999999REMMET047METAR LSZS 221020Z VRB01KT CAVOK M16/M18 Q1018;
0074066304999992010012210504+46533+009883FM-15+1707LSZS V0201001N000519999999Y0099001N1-01501-01701999999ADDMA1101801999999REMMET047METAR LSZS 221050Z 10001KT CAVOK M15/M17 Q1018;
0074066304999992010012211204+46533+009883FM-15+1707LSZS V0209999V000519999999Y0099001N1-01401-01601999999ADDMA1101691999999REMMET047METAR LSZS 221120Z VRB01KT CAVOK M14/M16 Q1017;
0074066304999992010012211504+46533+009883FM-15+1707LSZS V0209999C000019999999Y0099001N1-01301-01401999999ADDMA1101691999999REMMET047METAR LSZS 221150Z 00000KT CAVOK M13/M14 Q1017;
0074066304999992010012212204+46533+009883FM-15+1707LSZS V0209999C000019999999Y0099001N1-01201-01401999999ADDMA1101691999999REMMET047METAR LSZS 221220Z 00000KT CAVOK M12/M14 Q1017;
0074066304999992010012212504+46533+009883FM-15+1707LSZS V0209999C000019999999Y0099001N1-01001-01101999999ADDMA1101691999999REMMET047METAR LSZS 221250Z 00000KT CAVOK M10/M11 Q1017;
0074066304999992010012213204+46533+009883FM-15+1707LSZS V0209999C000019999999Y0099001N1-00801-01401999999ADDMA1101591999999REMMET047METAR LSZS 221320Z 00000KT CAVOK M08/M14 Q1016;
0074066304999992010012213504+46533+009883FM-15+1707LSZS V0209999C000019999999Y0099001N1-00801-01301999999ADDMA1101591999999REMMET047METAR LSZS 221350Z 00000KT CAVOK M08/M13 Q1016;
0074066304999992010012214204+46533+009883FM-15+1707LSZS V0209999C000019999999Y0099001N1-00701-01401999999ADDMA1101691999999REMMET047METAR LSZS 221420Z 00000KT CAVOK M07/M14 Q1017;
0074066304999992010012214504+46533+009883FM-15+1707LSZS V0209999C000019999999Y0099001N1-00601-01301999999ADDMA1101691999999REMMET047METAR LSZS 221450Z 00000KT CAVOK M06/M13 Q1017;
0074066304999992010012215204+46533+009883FM-15+1707LSZS V0202101N000519999999Y0099001N1-00701-01201999999ADDMA1101691999999REMMET047METAR LSZS 221520Z 21001KT CAVOK M07/M12 Q1017;
0074066304999992010012215504+46533+009883FM-15+1707LSZS V0202301N001519999999Y0099001N1-00901-01501999999ADDMA1101691999999REMMET047METAR LSZS 221550Z 23003KT CAVOK M09/M15 Q1017;
0074066304999992010012216204+46533+009883FM-15+1707LSZS V0209999V001019999999Y0099001N1-01201-01601999999ADDMA1101691999999REMMET047METAR LSZS 221620Z VRB02KT CAVOK M12/M16 Q1017;
0074066304999992010012216504+46533+009883FM-15+1707LSZS V0201801N001519999999Y0099001N1-01201-01601999999ADDMA1101801999999REMMET047METAR LSZS 221650Z 18003KT CAVOK M12/M16 Q1018;
0074066304999992010012306204+46533+009883FM-15+1707LSZS V0202301N001019999999Y0099001N1-02001-02201999999ADDMA1101901999999REMMET047METAR LSZS 230620Z 23002KT CAVOK M20/M22 Q1019;
0074066304999992010012306504+46533+009883FM-15+1707LSZS V0209999V000519999999Y0099001N1-02001-02201999999ADDMA1101801999999REMMET047METAR LSZS 230650Z VRB01KT CAVOK M20/M22 Q1018;
0074066304999992010012307204+46533+009883FM-15+1707LSZS V0209999V001019999999Y0099001N1-01901-02101999999ADDMA1101801999999REMMET047METAR LSZS 230720Z VRB02KT CAVOK M19/M21 Q1018;
0074066304999992010012307504+46533+009883FM-15+1707LSZS V0209999V000519999999Y0099001N1-01801-02001999999ADDMA1101901999999REMMET047METAR LSZS 230750Z VRB01KT CAVOK M18/M20 Q1019;
0074066304999992010012308204+46533+009883FM-15+1707LSZS V0209999C000019999999Y0099001N1-02001-02201999999ADDMA1101901999999REMMET047METAR LSZS 230820Z 00000KT CAVOK M20/M22 Q1019;
0074066304999992010012308504+46533+009883FM-15+1707LSZS V0201401N000519999999Y0099001N1-01701-01901999999ADDMA1101901999999REMMET047METAR LSZS 230850Z 14001KT CAVOK M17/M19 Q1019;
0074066304999992010012309204+46533+009883FM-15+1707LSZS V0209999C000019999999Y0099001N1-01601-01801999999ADDMA1101901999999REMMET047METAR LSZS 230920Z 00000KT CAVOK M16/M18 Q1019;
0074066304999992010012309504+46533+009883FM-15+1707LSZS V0201901N000519999999Y0099001N1-01401-01601999999ADDMA1101901999999REMMET047METAR LSZS 230950Z 19001KT CAVOK M14/M16 Q1019;
0074066304999992010012310204+46533+009883FM-15+1707LSZS V0209999C000019999999Y0099001N1-01401-01501999999ADDMA1101901999999REMMET047METAR LSZS 231020Z 00000KT CAVOK M14/M15 Q1019;
0074066304999992010012310504+46533+009883FM-15+1707LSZS V0209999V000519999999Y0099001N1-01101-01301999999ADDMA1101901999999REMMET047METAR LSZS 231050Z VRB01KT CAVOK M11/M13 Q1019;
0074066304999992010012311204+46533+009883FM-15+1707LSZS V0209999C000019999999Y0099001N1-01101-01301999999ADDMA1101801999999REMMET047METAR LSZS 231120Z 00000KT CAVOK M11/M13 Q1018;
0074066304999992010012311504+46533+009883FM-15+1707LSZS V0201101N000519999999Y0099001N1-00801-01301999999ADDMA1101801999999REMMET047METAR LSZS 231150Z 11001KT CAVOK M08/M13 Q1018;
0074066304999992010012312204+46533+009883FM-15+1707LSZS V0209999C000019999999Y0099001N1-00701-01301999999ADDMA1101691999999REMMET047METAR LSZS 231220Z 00000KT CAVOK M07/M13 Q1017;
0074066304999992010012312504+46533+009883FM-15+1707LSZS V0209999C000019999999Y0099001N1-00501-01301999999ADDMA1101691999999REMMET047METAR LSZS 231250Z 00000KT CAVOK M05/M13 Q1017;
0074066304999992010012313204+46533+009883FM-15+1707LSZS V0202201N000519999999Y0099001N1-00301-01201999999ADDMA1101691999999REMMET047METAR LSZS 231320Z 22001KT CAVOK M03/M12 Q1017;
0074066304999992010012313504+46533+009883FM-15+1707LSZS V0200401N001019999999Y0099001N1-00601-01301999999ADDMA1101691999999REMMET047METAR LSZS 231350Z 04002KT CAVOK M06/M13 Q1017;
0074066304999992010012314204+46533+009883FM-15+1707LSZS V0209999C000019999999Y0099001N1-00501-01201999999ADDMA1101691999999REMMET047METAR LSZS 231420Z 00000KT CAVOK M05/M12 Q1017;
0074066304999992010012314504+46533+009883FM-15+1707LSZS V0209999C000019999999Y0099001N1-00401-01301999999ADDMA1101691999999REMMET047METAR LSZS 231450Z 00000KT CAVOK M04/M13 Q1017;
0074066304999992010012315204+46533+009883FM-15+1707LSZS V0209999V001019999999Y0099001N1-00501-01101999999ADDMA1101691999999REMMET047METAR LSZS 231520Z VRB02KT CAVOK M05/M11 Q1017;
0074066304999992010012315504+46533+009883FM-15+1707LSZS V0209999V000519999999Y0099001N1-00801-01301999999ADDMA1101691999999REMMET047METAR LSZS 231550Z VRB01KT CAVOK M08/M13 Q1017;
0074066304999992010012316204+46533+009883FM-15+1707LSZS V0209999V001019999999Y0099001N1-00901-01301999999ADDMA1101801999999REMMET047METAR LSZS 231620Z VRB02KT CAVOK M09/M13 Q1018;
0074066304999992010012316504+46533+009883FM-15+1707LSZS V0201701N000519999999Y0099001N1-00801-01201999999ADDMA1101801999999REMMET047METAR LSZS 231650Z 17001KT CAVOK M08/M12 Q1018;
0074066304999992010012406504+46533+009883FM-15+1707LSZS V0209999V001019999999Y0099001N1-01901-02101999999ADDMA1101801999999REMMET047METAR LSZS 240650Z VRB02KT CAVOK M19/M21 Q1018;
0074066304999992010012407204+46533+009883FM-15+1707LSZS V0209999V001019999999Y0099001N1-01901-02101999999ADDMA1101801999999REMMET047METAR LSZS 240720Z VRB02KT CAVOK M19/M21 Q1018;
0074066304999992010012407504+46533+009883FM-15+1707LSZS V0201901N001019999999Y0099001N1-01801-02001999999ADDMA1101901999999REMMET047METAR LSZS 240750Z 19002KT CAVOK M18/M20 Q1019;
0074066304999992010012408204+46533+009883FM-15+1707LSZS V0209999V000519999999Y0099001N1-01901-02101999999ADDMA1101901999999REMMET047METAR LSZS 240820Z VRB01KT CAVOK M19/M21 Q1019;
0074066304999992010012408504+46533+009883FM-15+1707LSZS V0202501N000519999999Y0099001N1-01801-02001999999ADDMA1101901999999REMMET047METAR LSZS 240850Z 25001KT CAVOK M18/M20 Q1019;
0074066304999992010012409204+46533+009883FM-15+1707LSZS V0202001N000519999999Y0099001N1-01401-01601999999ADDMA1101901999999REMMET047METAR LSZS 240920Z 20001KT CAVOK M14/M16 Q1019;
0074066304999992010012409504+46533+009883FM-15+1707LSZS V0202901N000519999999Y0099001N1-01501-01701999999ADDMA1101901999999REMMET047METAR LSZS 240950Z 29001KT CAVOK M15/M17 Q1019;
0074066304999992010012410204+46533+009883FM-15+1707LSZS V0209999C000019999999Y0099001N1-01301-01401999999ADDMA1101801999999REMMET047METAR LSZS 241020Z 00000KT CAVOK M13/M14 Q1018;
0074066304999992010012410504+46533+009883FM-15+1707LSZS V0209999C000019999999Y0099001N1-01201-01501999999ADDMA1101801999999REMMET047METAR LSZS 241050Z 00000KT CAVOK M12/M15 Q1018;
0074066304999992010012411204+46533+009883FM-15+1707LSZS V0209999C000019999999Y0099001N1-00801-01501999999ADDMA1101801999999REMMET047METAR LSZS 241120Z 00000KT CAVOK M08/M15 Q1018;
0074066304999992010012411504+46533+009883FM-15+1707LSZS V0209999V000519999999Y0099001N1-00801-01501999999ADDMA1101691999999REMMET047METAR LSZS 241150Z VRB01KT CAVOK M08/M15 Q1017;
0074066304999992010012412204+46533+009883FM-15+1707LSZS V0203001N000519999999Y0099001N1-00701-01501999999ADDMA1101691999999REMMET047METAR LSZS 241220Z 30001KT CAVOK M07/M15 Q1017;
