0140066360999992011010100004+46983+007283FM-12+048399999V0202901N000519999999N9999999N1-00081-00091102521ADDMA1999999096561MD1710061+9999OA149900211REMSYN088AAXX  01004 06636 33/// /2901 11008 21009 39656 40252 57006 333 55300 20004 91104 91202;
0140066360999992011010101004+46983+007283FM-12+048399999V0202401N001019999999N9999999N1-00091-00101102491ADDMA1999999096531MD1610081+9999OA149900151REMSYN088AAXX  01014 06636 33/// /2402 11009 21010 39653 40249 56008 333 55300 20004 91103 91202;
0140066360999992011010102004+46983+007283FM-12+048399999V0203101N000519999999N9999999N1-00091-00091102481ADDMA1999999096521MD1610071+9999OA149900151REMSYN088AAXX  01024 06636 33/// /3101 11009 21009 39652 40248 56007 333 55300 20004 91103 91202;
0140066360999992011010103004+46983+007283FM-12+048399999V0202201N000519999999N9999999N1-00091-00091102441ADDMA1999999096491MD1610071+9999OA149900151REMSYN088AAXX  01034 06636 33/// /2201 11009 21009 39649 40244 56007 333 55300 20004 91103 91202;
0140066360999992011010104004+46983+007283FM-12+048399999V0209999C000019999999N9999999N1-00081-00081102421ADDMA1999999096471MD1810061+9999OA149900101REMSYN088AAXX  01044 06636 33/// /0000 11008 21008 39647 40242 58006 333 55300 20004 91102 91201;
0140066360999992011010105004+46983+007283FM-12+048399999V0209999C000019999999N9999999N1-00071-00101102431ADDMA1999999096481MD1510041+9999OA149900101REMSYN088AAXX  01054 06636 33/// /0000 11007 21010 39648 40243 55004 333 55300 20004 91102 91201;
0207066360999992011010106004+46983+007283FM-12+048399999V0209999C000019999999N9999999N1-00081-00121102441ADDAL19900091GJ100009IA2999-00209KA1999N-00091MA1999999096491MD1510001+9999OA149900211REMSYN112AAXX  01064 06636 33/// /0000 11008 21012 39649 40244 55000 333 21009 3/102 55000 55300 20004 70000 91104 91202;
0140066360999992011010107004+46983+007283FM-12+048399999V0203101N000519999999N9999999N1-00071-00121102471ADDMA1999999096521MD1310051+9999OA149900101REMSYN088AAXX  01074 06636 33/// /3101 11007 21012 39652 40247 53005 333 55300 20004 91102 91201;
0140066360999992011010108004+46983+007283FM-12+048399999V0201401N000519999999N9999999N1-00041-00081102461ADDMA1999999096521MD1219999+9999OA149900101REMSYN088AAXX  01084 06636 33/// /1401 11004 21008 39652 40246 52/// 333 55300 20022 91102 91201;
0087066360999992011010109004+46983+007283FM-12+048399999V0209999C000019999999N9999999N1+00011-00041102451ADDMA1999999096521REMSYN060AAXX  01094 06636 43/// /0000 10001 21004 39652 40245 5////;
0087066360999992011010110004+46983+007283FM-12+048399999V0200601N000519999999N9999999N1+00061-00011102431ADDMA1999999096511REMSYN060AAXX  01104 06636 43/// /0601 10006 21001 39651 40243 5////;
0140066360999992011010111004+46983+007283FM-12+048399999V0200901N001019999999N9999999N1+00101-00041102371ADDMA1999999096461MD1810061+9999OA149900151REMSYN088AAXX  01114 06636 33/// /0902 10010 21004 39646 40237 58006 333 55300 20400 91103 91202;
0087066360999992011010112004+46983+007283FM-12+048399999V0202201N001019999999N9999999N1+00171-00061102301ADDMA1999999096411REMSYN060AAXX  01124 06636 43/// /2202 10017 21006 39641 40230 5////;
0087066360999992011010113004+46983+007283FM-12+048399999V0202501N001019999999N9999999N1+00151-00091102231ADDMA1999999096341REMSYN060AAXX  01134 06636 43/// /2502 10015 21009 39634 40223 5////;
0087066360999992011010114004+46983+007283FM-12+048399999V0202601N001519999999N9999999N1+00121-00111102221ADDMA1999999096321REMSYN060AAXX  01144 06636 43/// /2603 10012 21011 39632 40222 5////;
0087066360999992011010115004+46983+007283FM-12+048399999V0201901N001019999999N9999999N1+00111-00081102201ADDMA1999999096301REMSYN060AAXX  01154 06636 43/// /1902 10011 21008 39630 40220 5////;
0087066360999992011010116004+46983+007283FM-12+048399999V0200201N000519999999N9999999N1+00081-00081102191ADDMA1999999096291REMSYN060AAXX  01164 06636 43/// /0201 10008 21008 39629 40219 5////;
0087066360999992011010117004+46983+007283FM-12+048399999V0203301N000519999999N9999999N1+00071-00071102221ADDMA1999999096311REMSYN060AAXX  01174 06636 43/// /3301 10007 21007 39631 40222 5////;
0087066360999992011010118004+46983+007283FM-12+048399999V0201301N000519999999N9999999N1+00061-00081102211ADDMA1999999096301REMSYN060AAXX  01184 06636 43/// /1301 10006 21008 39630 40221 5////;
0103066360999992011010119004+46983+007283FM-12+048399999V0200401N000519999999N9999999N1+00051-00081102211ADDMA1999999096301REMSYN076AAXX  01194 06636 33/// /0401 10005 21008 39630 40221 5//// 333 553// 20004;
0140066360999992011010120004+46983+007283FM-12+048399999V0200601N001019999999N9999999N1+00071-00081102231ADDMA1999999096321MD1310011+9999OA149900151REMSYN088AAXX  01204 06636 33/// /0602 10007 21008 39632 40223 53001 333 55300 20004 91103 91202;
0140066360999992011010121004+46983+007283FM-12+048399999V0200901N001519999999N9999999N1+00061-00091102221ADDMA1999999096311MD1210011+9999OA149900311REMSYN088AAXX  01214 06636 33/// /0903 10006 21009 39631 40222 52001 333 55300 20004 91106 91203;
0140066360999992011010122004+46983+007283FM-12+048399999V0200801N000519999999N9999999N1+00051-00121102181ADDMA1999999096271MD1810031+9999OA149900411REMSYN088AAXX  01224 06636 33/// /0801 10005 21012 39627 40218 58003 333 55300 20004 91108 91204;
0140066360999992011010123004+46983+007283FM-12+048399999V0200801N001019999999N9999999N1+00051-00121102141ADDMA1999999096231MD1810091+9999OA149900411REMSYN088AAXX  01234 06636 33/// /0802 10005 21012 39623 40214 58009 333 55300 20004 91108 91204;
0140066360999992011010200004+46983+007283FM-12+048399999V0200901N001519999999N9999999N1+00041-00151102121ADDMA1999999096211MD1710101+9999OA149900411REMSYN088AAXX  02004 06636 33/// /0903 10004 21015 39621 40212 57010 333 55300 20004 91108 91204;
0140066360999992011010201004+46983+007283FM-12+048399999V0200801N002119999999N9999999N1+00031-00201102111ADDMA1999999096201MD1710071+9999OA149900411REMSYN088AAXX  02014 06636 33/// /0804 10003 21020 39620 40211 57007 333 55300 20004 91108 91204;
0087066360999992011010202004+46983+007283FM-12+048399999V0200701N001019999999N9999999N1+00031-00241102131ADDMA1999999096221REMSYN060AAXX  02024 06636 43/// /0702 10003 21024 39622 40213 5////;
0087066360999992011010203004+46983+007283FM-12+048399999V0201001N001519999999N9999999N1+00041-00271102131ADDMA1999999096221REMSYN060AAXX  02034 06636 43/// /1003 10004 21027 39622 40213 5////;
0087066360999992011010204004+46983+007283FM-12+048399999V0201001N001519999999N9999999N1+00011-00231102141ADDMA1999999096221REMSYN060AAXX  02044 06636 43/// /1003 10001 21023 39622 40214 5////;
0087066360999992011010205004+46983+007283FM-12+048399999V0200901N000519999999N9999999N1+00001-00211102151ADDMA1999999096231REMSYN060AAXX  02054 06636 43/// /0901 10000 21021 39623 40215 5////;
0134066360999992011010206004+46983+007283FM-12+048399999V0201101N001019999999N9999999N1-00011-00241102151ADDIA2999-00109KA1999N-00011MA1999999096231REMSYN082AAXX  02064 06636 43/// /1102 11001 21024 39623 40215 5//// 333 21001 3/101 55000;
0140066360999992011010207004+46983+007283FM-12+048399999V0200401N001019999999N9999999N1-00011-00211102141ADDMA1999999096221MD1010001+9999OA149900311REMSYN088AAXX  02074 06636 33/// /0402 11001 21021 39622 40214 50000 333 55300 20004 91106 91203;
0140066360999992011010208004+46983+007283FM-12+048399999V0201001N002119999999N9999999N1+00011-00221102191ADDMA1999999096271MD1310041+9999OA149900411REMSYN088AAXX  02084 06636 33/// /1004 10001 21022 39627 40219 53004 333 55300 20025 91108 91204;
0140066360999992011010209004+46983+007283FM-12+048399999V0201001N004119999999N9999999N1+00031-00231102221ADDMA1999999096301MD1210071+9999OA149900721REMSYN088AAXX  02094 06636 33/// /1008 10003 21023 39630 40222 52007 333 55300 20148 91114 91208;
0140066360999992011010210004+46983+007283FM-12+048399999V0201101N002619999999N9999999N1+00061-00191102251ADDMA1999999096341MD1110121+9999OA149900721REMSYN088AAXX  02104 06636 33/// /1105 10006 21019 39634 40225 51012 333 55300 20320 91114 91208;
0140066360999992011010211004+46983+007283FM-12+048399999V0201101N003119999999N9999999N1+00091-00191102221ADDMA1999999096321MD1210051+9999OA149900721REMSYN088AAXX  02114 06636 33/// /1106 10009 21019 39632 40222 52005 333 55300 20418 91114 91208;
0140066360999992011010212004+46983+007283FM-12+048399999V0201101N003119999999N9999999N1+00101-00201102201ADDMA1999999096301MD1010001+9999OA149900881REMSYN088AAXX  02124 06636 33/// /1106 10010 21020 39630 40220 50000 333 55300 20461 91117 91208;
0140066360999992011010213004+46983+007283FM-12+048399999V0201201N003119999999N9999999N1+00101-00241102181ADDMA1999999096281MD1710061+9999OA149901031REMSYN088AAXX  02134 06636 33/// /1206 10010 21024 39628 40218 57006 333 55300 20508 91120 91209;
0103066360999992011010214004+46983+007283FM-12+048399999V0200901N003119999999N9999999N1+00091-00291102201ADDMA1999999096301REMSYN076AAXX  02144 06636 33/// /0906 10009 21029 39630 40220 5//// 333 553// 20410;
0140066360999992011010215004+46983+007283FM-12+048399999V0200701N002619999999N9999999N1+00071-00351102251ADDMA1999999096341MD1310041+9999OA149901031REMSYN088AAXX  02154 06636 33/// /0705 10007 21035 39634 40225 53004 333 55300 20220 91120 91209;
0140066360999992011010216004+46983+007283FM-12+048399999V0200801N002119999999N9999999N1+00041-00371102301ADDMA1999999096381MD1310101+9999OA149900931REMSYN088AAXX  02164 06636 33/// /0804 10004 21037 39638 40230 53010 333 55300 20050 91118 91206;
0140066360999992011010217004+46983+007283FM-12+048399999V0200801N003119999999N9999999N1+00031-00481102331ADDMA1999999096411MD1110111+9999OA149900931REMSYN088AAXX  02174 06636 33/// /0806 10003 21048 39641 40233 51011 333 55300 20004 91118 91206;
0159066360999992011010218004+46983+007283FM-12+048399999V0200601N002619999999N9999999N1+00001-00501102371ADDKA1120M+00111MA1999999096441MD1310101+9999OA149901031REMSYN094AAXX  02184 06636 33/// /0605 10000 21050 39644 40237 53010 333 10011 55300 20004 91120 91209;
0140066360999992011010219004+46983+007283FM-12+048399999V0200401N003619999999N9999999N1-00031-00481102391ADDMA1999999096451MD1210071+9999OA149900821REMSYN088AAXX  02194 06636 33/// /0407 11003 21048 39645 40239 52007 333 55300 20004 91116 91207;
0140066360999992011010220004+46983+007283FM-12+048399999V0200901N002119999999N9999999N1-00071-00511102431ADDMA1999999096481MD1210071+9999OA149900821REMSYN088AAXX  02204 06636 33/// /0904 11007 21051 39648 40243 52007 333 55300 20004 91116 91207;
0140066360999992011010221004+46983+007283FM-12+048399999V0201101N002619999999N9999999N1-00111-00521102471ADDMA1999999096511MD1210071+9999OA149900931REMSYN088AAXX  02214 06636 33/// /1105 11011 21052 39651 40247 52007 333 55300 20004 91118 91207;
0140066360999992011010222004+46983+007283FM-12+048399999V0201101N001519999999N9999999N1-00131-00551102501ADDMA1999999096531MD1110081+9999OA149900721REMSYN088AAXX  02224 06636 33/// /1103 11013 21055 39653 40250 51008 333 55300 20004 91114 91206;
0140066360999992011010223004+46983+007283FM-12+048399999V0201201N002619999999N9999999N1-00191-00551102521ADDMA1999999096541MD1210061+9999OA149900721REMSYN088AAXX  02234 06636 33/// /1205 11019 21055 39654 40252 52006 333 55300 20004 91114 91206;
0140066360999992011010300004+46983+007283FM-12+048399999V0201001N001519999999N9999999N1-00201-00541102511ADDMA1999999096531MD1010021+9999OA149901031REMSYN088AAXX  03004 06636 33/// /1003 11020 21054 39653 40251 50002 333 55300 20004 91120 91209;
0159066360999992011010301004+46983+007283FM-12+048399999V0201101N002619999999N9999999N1-00211-00561102511ADDMA1999999096531MD1710011+9999OA149900511REMSYN088AAXX  03014 06636 33/// /1105 11021 21056 39653 40251 57000 333 55300 20004 91110 91205;EQDQ01+000002APC3  
0140066360999992011010302004+46983+007283FM-12+048399999V0200701N001519999999N9999999N1-00271-00601102561ADDMA1999999096561MD1319999+9999OA149900511REMSYN088AAXX  03024 06636 33/// /0703 11027 21060 39656 40256 53/// 333 55300 20004 91110 91205;
0087066360999992011010303004+46983+007283FM-12+048399999V0200601N002119999999N9999999N1-00241-00641102541ADDMA1999999096551REMSYN060AAXX  03034 06636 43/// /0604 11024 21064 39655 40254 5////;
0140066360999992011010304004+46983+007283FM-12+048399999V0200801N000519999999N9999999N1-00331-00641102551ADDMA1999999096541MD1010011+9999OA149900571REMSYN088AAXX  03044 06636 33/// /0801 11033 21064 39654 40255 50001 333 55300 20004 91111 91205;
0140066360999992011010305004+46983+007283FM-12+048399999V0203601N000519999999N9999999N1-00501-00671102581ADDMA1999999096531MD1710031+9999OA149900511REMSYN088AAXX  03054 06636 33/// /3601 11050 21067 39653 40258 57003 333 55300 20004 91110 91204;
0207066360999992011010306004+46983+007283FM-12+048399999V0209999C000019999999N9999999N1-00571-00681102611ADDAL19900091GJ100009IA2999-01009KA1999N-00541MA1999999096541MD1510011+9999OA149900821REMSYN112AAXX  03064 06636 33/// /0000 11057 21068 39654 40261 55001 333 21054 3/110 55000 55300 20004 70000 91116 91207;
0140066360999992011010307004+46983+007283FM-12+048399999V0202801N000519999999N9999999N1-00581-00681102601ADDMA1999999096531MD1010011+9999OA149900101REMSYN088AAXX  03074 06636 33/// /2801 11058 21068 39653 40260 50001 333 55300 20004 91102 91201;
0140066360999992011010308004+46983+007283FM-12+048399999V0202301N001019999999N9999999N1-00561-00661102601ADDMA1999999096531MD1019999+9999OA149900151REMSYN088AAXX  03084 06636 33/// /2302 11056 21066 39653 40260 50/// 333 55302 20047 91103 91202;
0103066360999992011010309004+46983+007283FM-12+048399999V0202301N000519999999N9999999N1-00461-00621102581ADDMA1999999096541REMSYN076AAXX  03094 06636 33/// /2301 11046 21062 39654 40258 5//// 333 553// 20349;
0140066360999992011010310004+46983+007283FM-12+048399999V0201001N002619999999N9999999N1-00181-00591102531ADDMA1999999096551MD1210021+9999OA149900461REMSYN088AAXX  03104 06636 33/// /1005 11018 21059 39655 40253 52002 333 553// 20868 91109 91205;
0140066360999992011010311004+46983+007283FM-12+048399999V0201001N003119999999N9999999N1-00141-00591102491ADDMA1999999096521MD1810011+9999OA149900671REMSYN088AAXX  03114 06636 33/// /1006 11014 21059 39652 40249 58001 333 553// 2//// 91113 91206;
0140066360999992011010312004+46983+007283FM-12+048399999V0201301N004119999999N9999999N1-00131-00621102421ADDMA1999999096461MD1710081+9999OA149900721REMSYN088AAXX  03124 06636 33/// /1308 11013 21062 39646 40242 57008 333 553// 2//// 91114 91209;
0140066360999992011010313004+46983+007283FM-12+048399999V0201201N004119999999N9999999N1-00091-00631102381ADDMA1999999096431MD1610121+9999OA149900771REMSYN088AAXX  03134 06636 33/// /1208 11009 21063 39643 40238 56012 333 553// 2//// 91115 91209;
0103066360999992011010314004+46983+007283FM-12+048399999V0201101N003619999999N9999999N1-00081-00641102391ADDMA1999999096441REMSYN076AAXX  03144 06636 33/// /1107 11008 21064 39644 40239 5//// 333 553// 20950;
0103066360999992011010315004+46983+007283FM-12+048399999V0201001N003119999999N9999999N1-00101-00651102391ADDMA1999999096441REMSYN076AAXX  03154 06636 33/// /1006 11010 21065 39644 40239 5//// 333 553// 20540;
0140066360999992011010316004+46983+007283FM-12+048399999V0200801N001519999999N9999999N1-00181-00661102401ADDMA1999999096431MD1010001+9999OA149900621REMSYN088AAXX  03164 06636 33/// /0803 11018 21066 39643 40240 50000 333 55303 20090 91112 91206;
0140066360999992011010317004+46983+007283FM-12+048399999V0200801N001519999999N9999999N1-00301-00641102421ADDMA1999999096421MD1710021+9999OA149900511REMSYN088AAXX  03174 06636 33/// /0803 11030 21064 39642 40242 57002 333 55300 20004 91110 91206;
0178066360999992011010318004+46983+007283FM-12+048399999V0203101N000519999999N9999999N1-00481-00681102481ADDKA1120M-00071MA1999999096441MD1310091+9999OA149900771REMSYN094AAXX  03184 06636 33/// /3101 11048 21068 39644 40248 53000 333 11007 55300 20004 91115 91210;EQDQ01+000002APC3  
0140066360999992011010319004+46983+007283FM-12+048399999V0209999C000019999999N9999999N1-00541-00711102481ADDMA1999999096421MD1010011+9999OA149900211REMSYN088AAXX  03194 06636 33/// /0000 11054 21071 39642 40248 50001 333 55300 20004 91104 91202;
0140066360999992011010320004+46983+007283FM-12+048399999V0209999C000019999999N9999999N1-00601-00751102481ADDMA1999999096411MD1810011+9999OA149900101REMSYN088AAXX  03204 06636 33/// /0000 11060 21075 39641 40248 58001 333 55300 20004 91102 91201;
0140066360999992011010321004+46983+007283FM-12+048399999V0209999C000019999999N9999999N1-00621-00741102461ADDMA1999999096391MD1810051+9999OA149900511REMSYN088AAXX  03214 06636 33/// /0000 11062 21074 39639 40246 58005 333 55300 20004 91110 91206;
0140066360999992011010322004+46983+007283FM-12+048399999V0203501N000519999999N9999999N1-00671-00781102481ADDMA1999999096401MD1710021+9999OA149900101REMSYN088AAXX  03224 06636 33/// /3501 11067 21078 39640 40248 57002 333 55300 20004 91102 91201;
0140066360999992011010323004+46983+007283FM-12+048399999V0209999C000019999999N9999999N1-00681-00771102521ADDMA1999999096431MD1310021+9999OA149900101REMSYN088AAXX  03234 06636 33/// /0000 11068 21077 39643 40252 53002 333 55300 20004 91102 91201;
0140066360999992011010400004+46983+007283FM-12+048399999V0200701N000519999999N9999999N1-00621-00721102471ADDMA1999999096401MD1010011+9999OA149900771REMSYN088AAXX  04004 06636 33/// /0701 11062 21072 39640 40247 50001 333 55300 20004 91115 91210;
0140066360999992011010401004+46983+007283FM-12+048399999V0201401N001019999999N9999999N1-00571-00761102411ADDMA1999999096351MD1810051+9999OA149900311REMSYN088AAXX  04014 06636 33/// /1402 11057 21076 39635 40241 58005 333 55300 20004 91106 91204;
0140066360999992011010402004+46983+007283FM-12+048399999V0201301N001019999999N9999999N1-00511-00691102361ADDMA1999999096321MD1719999+9999OA149900311REMSYN088AAXX  04024 06636 33/// /1302 11051 21069 39632 40236 57/// 333 55300 20004 91106 91204;
0140066360999992011010403004+46983+007283FM-12+048399999V0201101N000519999999N9999999N1-00461-00641102311ADDMA1999999096281MD1710121+9999OA149900311REMSYN088AAXX  04034 06636 33/// /1101 11046 21064 39628 40231 57012 333 55300 20004 91106 91204;
0140066360999992011010404004+46983+007283FM-12+048399999V0200901N001019999999N9999999N1-00441-00641102261ADDMA1999999096241MD1710111+9999OA149900261REMSYN088AAXX  04044 06636 33/// /0902 11044 21064 39624 40226 57011 333 55300 20004 91105 91203;
0140066360999992011010405004+46983+007283FM-12+048399999V0200901N001019999999N9999999N1-00411-00621102211ADDMA1999999096201MD1710121+9999OA149900261REMSYN088AAXX  04054 06636 33/// /0902 11041 21062 39620 40221 57012 333 55300 20004 91105 91203;
0207066360999992011010406004+46983+007283FM-12+048399999V0203401N000519999999N9999999N1-00411-00621102181ADDAL19900091GJ104269IA2999-01009KA1999N-00691MA1999999096171MD1810111+9999OA149900311REMSYN112AAXX  04064 06636 33/// /3401 11041 21062 39617 40218 58011 333 21069 3/110 55071 55300 20004 70000 91106 91204;
0140066360999992011010407004+46983+007283FM-12+048399999V0203501N000519999999N9999999N1-00381-00591102151ADDMA1999999096151MD1610091+9999OA149900101REMSYN088AAXX  04074 06636 33/// /3501 11038 21059 39615 40215 56009 333 55300 20004 91102 91202;
0140066360999992011010408004+46983+007283FM-12+048399999V0209999C000019999999N9999999N1-00361-00581102171ADDMA1999999096171MD1719999+9999OA149900101REMSYN088AAXX  04084 06636 33/// /0000 11036 21058 39617 40217 57/// 333 55300 20007 91102 91201;
0103066360999992011010409004+46983+007283FM-12+048399999V0201001N001519999999N9999999N1-00341-00621102141ADDMA1999999096151REMSYN076AAXX  04094 06636 33/// /1003 11034 21062 39615 40214 5//// 333 553// 20047;
0140066360999992011010410004+46983+007283FM-12+048399999V0201201N001019999999N9999999N1-00311-00621102171ADDMA1999999096181MD1210031+9999OA149900261REMSYN088AAXX  04104 06636 33/// /1202 11031 21062 39618 40217 52003 333 55300 20266 91105 91203;
0140066360999992011010411004+46983+007283FM-12+048399999V0201301N001019999999N9999999N1-00271-00611102101ADDMA1999999096131MD1810041+9999OA149900261REMSYN088AAXX  04114 06636 33/// /1302 11027 21061 39613 40210 58004 333 55300 20281 91105 91203;
0140066360999992011010412004+46983+007283FM-12+048399999V0202601N000519999999N9999999N1-00221-00591102021ADDMA1999999096061MD1810091+9999OA149900311REMSYN088AAXX  04124 06636 33/// /2601 11022 21059 39606 40202 58009 333 55300 20371 91106 91204;
0140066360999992011010413004+46983+007283FM-12+048399999V0201001N000519999999N9999999N1-00201-00591101961ADDMA1999999096011MD1710171+9999OA149900211REMSYN088AAXX  04134 06636 33/// /1001 11020 21059 39601 40196 57017 333 55300 20346 91104 91201;
0103066360999992011010414004+46983+007283FM-12+048399999V0209999C000019999999N9999999N1-00181-00571101911ADDMA1999999095971REMSYN076AAXX  04144 06636 33/// /0000 11018 21057 39597 40191 5//// 333 553// 20238;
0087066360999992011010415004+46983+007283FM-12+048399999V0209999C000019999999N9999999N1-00171-00561101911ADDMA1999999095971REMSYN060AAXX  04154 06636 43/// /0000 11017 21056 39597 40191 5////;
0140066360999992011010416004+46983+007283FM-12+048399999V0202601N000519999999N9999999N1-00181-00521101901ADDMA1999999095961MD1710051+9999OA149900101REMSYN088AAXX  04164 06636 33/// /2601 11018 21052 39596 40190 57005 333 55300 20022 91102 91201;
0140066360999992011010417004+46983+007283FM-12+048399999V0203201N000519999999N9999999N1-00191-00471101921ADDMA1999999095971MD1510001+9999OA149900101REMSYN088AAXX  04174 06636 33/// /3201 11019 21047 39597 40192 55000 333 55300 20004 91102 91201;
0159066360999992011010418004+46983+007283FM-12+048399999V0202501N000519999999N9999999N1-00201-00481101941ADDKA1120M-00171MA1999999095991MD1310021+9999OA149900261REMSYN094AAXX  04184 06636 33/// /2501 11020 21048 39599 40194 53002 333 11017 55300 20004 91105 91203;
0140066360999992011010419004+46983+007283FM-12+048399999V0202401N000519999999N9999999N1-00221-00481101951ADDMA1999999096001MD1210041+9999OA149900101REMSYN088AAXX  04194 06636 33/// /2401 11022 21048 39600 40195 52004 333 55300 20004 91102 91201;
0140066360999992011010420004+46983+007283FM-12+048399999V0209999C000019999999N9999999N1-00221-00471101911ADDMA1999999095961MD1810011+9999OA149900101REMSYN088AAXX  04204 06636 33/// /0000 11022 21047 39596 40191 58001 333 55300 20004 91102 91201;
0140066360999992011010421004+46983+007283FM-12+048399999V0209999C000019999999N9999999N1-00221-00471101891ADDMA1999999095941MD1710051+9999OA149900101REMSYN088AAXX  04214 06636 33/// /0000 11022 21047 39594 40189 57005 333 55300 20004 91102 91201;
0140066360999992011010422004+46983+007283FM-12+048399999V0203301N000519999999N9999999N1-00281-00461101891ADDMA1999999095931MD1710071+9999OA149900051REMSYN088AAXX  04224 06636 33/// /3301 11028 21046 39593 40189 57007 333 55300 20004 91101 91201;
0140066360999992011010423004+46983+007283FM-12+048399999V0209999C000019999999N9999999N1-00251-00451101901ADDMA1999999095941MD1510021+9999OA149900051REMSYN088AAXX  04234 06636 33/// /0000 11025 21045 39594 40190 55002 333 55300 20004 91101 91201;
0140066360999992011010500004+46983+007283FM-12+048399999V0202301N000519999999N9999999N1-00241-00421101871ADDMA1999999095921MD1810021+9999OA149900211REMSYN088AAXX  05004 06636 33/// /2301 11024 21042 39592 40187 58002 333 55300 20004 91104 91201;
0140066360999992011010501004+46983+007283FM-12+048399999V0209999C000019999999N9999999N1-00231-00421101841ADDMA1999999095891MD1710041+9999OA149900101REMSYN088AAXX  05014 06636 33/// /0000 11023 21042 39589 40184 57004 333 55300 20004 91102 91201;
0140066360999992011010502004+46983+007283FM-12+048399999V0200901N001019999999N9999999N1-00211-00431101831ADDMA1999999095891MD1710051+9999OA149900151REMSYN088AAXX  05024 06636 33/// /0902 11021 21043 39589 40183 57005 333 55300 20004 91103 91202;
0087066360999992011010503004+46983+007283FM-12+048399999V0201101N001519999999N9999999N1-00211-00481101811ADDMA1999999095871REMSYN060AAXX  05034 06636 43/// /1103 11021 21048 39587 40181 5////;
0140066360999992011010504004+46983+007283FM-12+048399999V0200901N001519999999N9999999N1-00241-00561101801ADDMA1999999095851MD1710041+9999OA149900361REMSYN088AAXX  05044 06636 33/// /0903 11024 21056 39585 40180 57004 333 55300 20004 91107 91205;
0140066360999992011010505004+46983+007283FM-12+048399999V0200601N000519999999N9999999N1-00321-00541101791ADDMA1999999095821MD1710071+9999OA149900361REMSYN088AAXX  05054 06636 33/// /0601 11032 21054 39582 40179 57007 333 55300 20004 91107 91205;
0207066360999992011010506004+46983+007283FM-12+048399999V0209999C000019999999N9999999N1-00351-00541101841ADDAL19900091GJ100009IA2999-00609KA1999N-00401MA1999999095861MD1510011+9999OA149900361REMSYN112AAXX  05064 06636 33/// /0000 11035 21054 39586 40184 55001 333 21040 3/106 55000 55300 20004 70000 91107 91205;
0159066360999992011010507004+46983+007283FM-12+048399999V0202501N000519999999N9999999N1-00371-00531101831ADDMA1999999095851MD1210031+9999OA149900101REMSYN088AAXX  05074 06636 33/// /2501 11037 21053 39585 40183 52000 333 55300 20004 91102 91202;EQDQ01+000002APC3  
0140066360999992011010508004+46983+007283FM-12+048399999V0209999C000019999999N9999999N1-00391-00531101871ADDMA1999999095881MD1219999+9999OA149900101REMSYN088AAXX  05084 06636 33/// /0000 11039 21053 39588 40187 52/// 333 55300 20036 91102 91202;
0140066360999992011010509004+46983+007283FM-12+048399999V0201101N001519999999N9999999N1-00281-00501101821ADDMA1999999095861MD1010001+9999OA149900361REMSYN088AAXX  05094 06636 33/// /1103 11028 21050 39586 40182 50000 333 55300 20148 91107 91205;
0140066360999992011010510004+46983+007283FM-12+048399999V0201201N001519999999N9999999N1-00201-00461101771ADDMA1999999095831MD1810021+9999OA149900361REMSYN088AAXX  05104 06636 33/// /1203 11020 21046 39583 40177 58002 333 55300 20346 91107 91204;
0140066360999992011010511004+46983+007283FM-12+048399999V0201201N001019999999N9999999N1-00081-00451101691ADDMA1999999095781MD1810101+9999OA149900261REMSYN088AAXX  05114 06636 33/// /1202 11008 21045 39578 40169 58010 333 55302 20997 91105 91203;
0103066360999992011010512004+46983+007283FM-12+048399999V0202501N002119999999N9999999N1+00021-00351101581ADDMA1999999095701REMSYN076AAXX  05124 06636 33/// /2504 10002 21035 39570 40158 5//// 333 553// 2////;
0140066360999992011010513004+46983+007283FM-12+048399999V0202101N000519999999N9999999N1+00061-00371101531ADDMA1999999095661MD1610171+9999OA149900361REMSYN088AAXX  05134 06636 33/// /2101 10006 21037 39566 40153 56017 333 553// 2//// 91107 91204;
0087066360999992011010514004+46983+007283FM-12+048399999V0209999C000019999999N9999999N1+00131-00371101471ADDMA1999999095621REMSYN060AAXX  05144 06636 43/// /0000 10013 21037 39562 40147 5////;
0087066360999992011010515004+46983+007283FM-12+048399999V0202401N001019999999N9999999N1+00051-00361101461ADDMA1999999095591REMSYN060AAXX  05154 06636 43/// /2402 10005 21036 39559 40146 5////;
0140066360999992011010516004+46983+007283FM-12+048399999V0209999C000019999999N9999999N1-00121-00381101491ADDMA1999999095581MD1710081+9999OA149900151REMSYN088AAXX  05164 06636 33/// /0000 11012 21038 39558 40149 57008 333 55301 20086 91103 91202;
0140066360999992011010517004+46983+007283FM-12+048399999V0209999C000019999999N9999999N1-00141-00321101471ADDMA1999999095561MD1710061+9999OA149900151REMSYN088AAXX  05174 06636 33/// /0000 11014 21032 39556 40147 57006 333 55300 20004 91103 91202;
0159066360999992011010518004+46983+007283FM-12+048399999V0200801N000519999999N9999999N1-00211-00351101471ADDKA1120M+00131MA1999999095551MD1719999+9999OA149900361REMSYN094AAXX  05184 06636 33/// /0801 11021 21035 39555 40147 57/// 333 10013 55300 20004 91107 91204;
0140066360999992011010519004+46983+007283FM-12+048399999V0200901N001019999999N9999999N1-00271-00391101461ADDMA1999999095521MD1710061+9999OA149900151REMSYN088AAXX  05194 06636 33/// /0902 11027 21039 39552 40146 57006 333 55300 20004 91103 91202;
0140066360999992011010520004+46983+007283FM-12+048399999V0201101N002119999999N9999999N1-00241-00401101391ADDMA1999999095461MD1719999+9999OA149900311REMSYN088AAXX  05204 06636 33/// /1104 11024 21040 39546 40139 57/// 333 55300 20004 91106 91204;
0103066360999992011010521004+46983+007283FM-12+048399999V0200801N001519999999N9999999N1-00291-00441101391ADDMA1999999095451REMSYN076AAXX  05214 06636 33/// /0803 11029 21044 39545 40139 5//// 333 553// 20004;
0140066360999992011010522004+46983+007283FM-12+048399999V0200901N001519999999N9999999N1-00271-00441101361ADDMA1999999095431MD1710091+9999OA149900361REMSYN088AAXX  05224 06636 33/// /0903 11027 21044 39543 40136 57009 333 55300 20004 91107 91204;
0140066360999992011010523004+46983+007283FM-12+048399999V0200901N001519999999N9999999N1-00251-00431101341ADDMA1999999095421MD1719999+9999OA149900361REMSYN088AAXX  05234 06636 33/// /0903 11025 21043 39542 40134 57/// 333 55300 20004 91107 91204;
0087066360999992011010600004+46983+007283FM-12+048399999V0201001N002119999999N9999999N1-00201-00421101251ADDMA1999999095341REMSYN060AAXX  06004 06636 43/// /1004 11020 21042 39534 40125 5////;
0087066360999992011010601004+46983+007283FM-12+048399999V0200901N001519999999N9999999N1-00181-00421101211ADDMA1999999095311REMSYN060AAXX  06014 06636 43/// /0903 11018 21042 39531 40121 5////;
0087066360999992011010602004+46983+007283FM-12+048399999V0200701N001019999999N9999999N1-00151-00391101191ADDMA1999999095301REMSYN060AAXX  06024 06636 43/// /0702 11015 21039 39530 40119 5////;
0087066360999992011010603004+46983+007283FM-12+048399999V0200701N001019999999N9999999N1-00131-00331101211ADDMA1999999095321REMSYN060AAXX  06034 06636 43/// /0702 11013 21033 39532 40121 5////;
0087066360999992011010604004+46983+007283FM-12+048399999V0202601N000519999999N9999999N1-00081-00181101161ADDMA1999999095281REMSYN060AAXX  06044 06636 43/// /2601 11008 21018 39528 40116 5////;
0087066360999992011010605004+46983+007283FM-12+048399999V0201201N001519999999N9999999N1-00011-00121101141ADDMA1999999095281REMSYN060AAXX  06054 06636 43/// /1203 11001 21012 39528 40114 5////;
0134066360999992011010606004+46983+007283FM-12+048399999V0201101N001519999999N9999999N1+00011-00141101131ADDIA2999-00609KA1999N-00311MA1999999095271REMSYN082AAXX  06064 06636 43/// /1103 10001 21014 39527 40113 5//// 333 21031 3/106 55038;
0087066360999992011010607004+46983+007283FM-12+048399999V0201101N002119999999N9999999N1+00001-00151101121ADDMA1999999095261REMSYN060AAXX  06074 06636 43/// /1104 10000 21015 39526 40112 5////;
0103066360999992011010608004+46983+007283FM-12+048399999V0200901N000519999999N9999999N1+00001-00111101161ADDMA1999999095301REMSYN076AAXX  06084 06636 33/// /0901 10000 21011 39530 40116 5//// 333 553// 20022;
0087066360999992011010609004+46983+007283FM-12+048399999V0200801N000519999999N9999999N1+00051-00041101151ADDMA1999999095301REMSYN060AAXX  06094 06636 43/// /0801 10005 21004 39530 40115 5////;
0146066360999992011010610004+46983+007283FM-12+048399999V0203101N001519999999N9999999N1+00371+00211101081ADDMA1999999095301MD1210041+9999OA149900311REMSYN094AAXX  06104 06636 23/// /3103 10037 20021 39530 40108 52004 333 55300 20378 69915 91106 91203;
0140066360999992011010611004+46983+007283FM-12+048399999V0203201N000519999999N9999999N1+00461+00271101041ADDMA1999999095281MD1710021+9999OA149900411REMSYN088AAXX  06114 06636 33/// /3201 10046 20027 39528 40104 57002 333 55300 20439 91108 91203;
0182066360999992011010612004+46983+007283FM-12+048399999V0201101N001519999999N9999999N1+00401+00201100991ADDAA106000091MA1999999095221MD1710081+9999OA149900411REMSYN100AAXX  06124 06636 03/// /1103 10040 20020 39522 40099 57008 69911 333 55300 20612 60005 91108 91205;EQDQ01  00002PRCP06
0140066360999992011010613004+46983+007283FM-12+048399999V0200901N001019999999N9999999N1+00421+00201100951ADDMA1999999095191MD1710111+9999OA149900361REMSYN088AAXX  06134 06636 33/// /0902 10042 20020 39519 40095 57011 333 55301 20540 91107 91204;
0087066360999992011010614004+46983+007283FM-12+048399999V0203301N001019999999N9999999N1+00621+00331100921ADDMA1999999095201REMSYN060AAXX  06144 06636 43/// /3302 10062 20033 39520 40092 5////;
0087066360999992011010615004+46983+007283FM-12+048399999V0203401N001519999999N9999999N1+00531+00341100941ADDMA1999999095201REMSYN060AAXX  06154 06636 43/// /3403 10053 20034 39520 40094 5////;
0146066360999992011010616004+46983+007283FM-12+048399999V0203201N002119999999N9999999N1+00621+00411100971ADDMA1999999095251MD1210061+9999OA149900461REMSYN094AAXX  06164 06636 23/// /3204 10062 20041 39525 40097 52006 333 55300 20018 69925 91109 91204;
0146066360999992011010617004+46983+007283FM-12+048399999V0203301N001519999999N9999999N1+00511+00401101051ADDMA1999999095301MD1210101+9999OA149900461REMSYN094AAXX  06174 06636 23/// /3303 10051 20040 39530 40105 52010 333 55300 20004 69935 91109 91204;
0182066360999992011010618004+46983+007283FM-12+048399999V0201101N001519999999N9999999N1+00311+00281101121ADDAA112000891KA1120M+00671MA1999999095331MD1210131+9999OA149900461REMSYN106AAXX  06184 06636 03/// /1103 10031 20028 39533 40112 52013 69982 333 10067 55300 20004 60005 91109 91205;
0146066360999992011010619004+46983+007283FM-12+048399999V0201001N001019999999N9999999N1+00251+00221101211ADDMA1999999095401MD1210151+9999OA149900361REMSYN094AAXX  06194 06636 23/// /1002 10025 20022 39540 40121 52015 333 55300 20004 69945 91107 91205;
0146066360999992011010620004+46983+007283FM-12+048399999V0200901N001019999999N9999999N1+00241+00221101231ADDMA1999999095421MD1219999+9999OA149900261REMSYN094AAXX  06204 06636 23/// /0902 10024 20022 39542 40123 52/// 333 55300 20004 69915 91105 91203;
0140066360999992011010621004+46983+007283FM-12+048399999V0200901N001019999999N9999999N1+00231+00221101311ADDMA1999999095491MD1219999+9999OA149900461REMSYN088AAXX  06214 06636 33/// /0902 10023 20022 39549 40131 52/// 333 55300 20004 91109 91205;
0140066360999992011010622004+46983+007283FM-12+048399999V0200801N000519999999N9999999N1+00231+00221101331ADDMA1999999095511MD1310111+9999OA149900211REMSYN088AAXX  06224 06636 33/// /0801 10023 20022 39551 40133 53011 333 55300 20004 91104 91202;
0103066360999992011010623004+46983+007283FM-12+048399999V0200901N001019999999N9999999N1+00231+00221101401ADDMA1999999095571REMSYN076AAXX  06234 06636 33/// /0902 10023 20022 39557 40140 5//// 333 553// 20004;
0087066360999992011010700004+46983+007283FM-12+048399999V0200801N001019999999N9999999N1+00211+00201101391ADDMA1999999095561REMSYN060AAXX  07004 06636 43/// /0802 10021 20020 39556 40139 5////;
0087066360999992011010701004+46983+007283FM-12+048399999V0200301N001019999999N9999999N1+00241+00231101381ADDMA1999999095561REMSYN060AAXX  07014 06636 43/// /0302 10024 20023 39556 40138 5////;
0087066360999992011010702004+46983+007283FM-12+048399999V0200901N001019999999N9999999N1+00231+00221101451ADDMA1999999095621REMSYN060AAXX  07024 06636 43/// /0902 10023 20022 39562 40145 5////;
0087066360999992011010703004+46983+007283FM-12+048399999V0200901N001019999999N9999999N1+00221+00211101481ADDMA1999999095651REMSYN060AAXX  07034 06636 43/// /0902 10022 20021 39565 40148 5////;
0146066360999992011010704004+46983+007283FM-12+048399999V0200901N001019999999N9999999N1+00231+00231101501ADDMA1999999095671MD1210111+9999OA149900151REMSYN094AAXX  07044 06636 23/// /0902 10023 20023 39567 40150 52011 333 55300 20004 69955 91103 91202;
0146066360999992011010705004+46983+007283FM-12+048399999V0200801N001019999999N9999999N1+00241+00241101471ADDMA1999999095641MD1010021+9999OA149900261REMSYN094AAXX  07054 06636 23/// /0802 10024 20024 39564 40147 50002 333 55300 20004 60015 91105 91202;
0230066360999992011010706004+46983+007283FM-12+048399999V0200901N001519999999N9999999N1+00291+00291101441ADDAA112003091AL12400391GJ100069IA2999+00109KA1999N+00211MA1999999095621MD1710031+9999OA149900461REMSYN124AAXX  07064 06636 03/// /0903 10029 20029 39562 40144 57003 60032 333 20021 3/001 55001 55300 20004 69945 70034 91109 91203;
0140066360999992011010707004+46983+007283FM-12+048399999V0200801N001019999999N9999999N1+00261+00251101461ADDMA1999999095641MD1510031+9999OA149900461REMSYN088AAXX  07074 06636 33/// /0802 10026 20025 39564 40146 55003 333 55300 20004 91109 91203;
0103066360999992011010708004+46983+007283FM-12+048399999V0200601N000519999999N9999999N1+00231+00221101501ADDMA1999999095671REMSYN076AAXX  07084 06636 33/// /0601 10023 20022 39567 40150 5//// 333 553// 20036;
0087066360999992011010709004+46983+007283FM-12+048399999V0200601N000519999999N9999999N1+00291+00291101511ADDMA1999999095691REMSYN060AAXX  07094 06636 43/// /0601 10029 20029 39569 40151 5////;
0140066360999992011010710004+46983+007283FM-12+048399999V0201301N000519999999N9999999N1+00441+00381101501ADDMA1999999095711MD1210071+9999OA149900211REMSYN088AAXX  07104 06636 33/// /1301 10044 20038 39571 40150 52007 333 55308 20706 91104 91202;
0140066360999992011010711004+46983+007283FM-12+048399999V0201201N001519999999N9999999N1+00551+00441101441ADDMA1999999095681MD1010011+9999OA149900211REMSYN088AAXX  07114 06636 33/// /1203 10055 20044 39568 40144 50001 333 55309 20907 91104 91203;
0140066360999992011010712004+46983+007283FM-12+048399999V0201301N001019999999N9999999N1+00741+00571101351ADDMA1999999095631MD1710061+9999OA149900461REMSYN088AAXX  07124 06636 33/// /1302 10074 20057 39563 40135 57006 333 55309 2//// 91109 91203;
0140066360999992011010713004+46983+007283FM-12+048399999V0201501N000519999999N9999999N1+00891+00641101261ADDMA1999999095581MD1710131+9999OA149900211REMSYN088AAXX  07134 06636 33/// /1501 10089 20064 39558 40126 57013 333 553// 2//// 91104 91203;
0087066360999992011010714004+46983+007283FM-12+048399999V0201101N001519999999N9999999N1+00931+00661101261ADDMA1999999095591REMSYN060AAXX  07144 06636 43/// /1103 10093 20066 39559 40126 5////;
0087066360999992011010715004+46983+007283FM-12+048399999V0201301N001019999999N9999999N1+00761+00611101341ADDMA1999999095631REMSYN060AAXX  07154 06636 43/// /1302 10076 20061 39563 40134 5////;
0140066360999992011010716004+46983+007283FM-12+048399999V0201201N001519999999N9999999N1+00611+00551101391ADDMA1999999095641MD1110061+9999OA149900311REMSYN088AAXX  07164 06636 33/// /1203 10061 20055 39564 40139 51006 333 55300 20040 91106 91204;
0140066360999992011010717004+46983+007283FM-12+048399999V0201001N001019999999N9999999N1+00541+00501101431ADDMA1999999095671MD1310081+9999OA149900261REMSYN088AAXX  07174 06636 33/// /1002 10054 20050 39567 40143 53008 333 55300 20004 91105 91203;
0122066360999992011010718004+46983+007283FM-12+048399999V0200901N001019999999N9999999N1+00501+00461101441ADDKA1120M+00931MA1999999095671REMSYN082AAXX  07184 06636 33/// /0902 10050 20046 39567 40144 5//// 333 10093 553// 20004;
0140066360999992011010719004+46983+007283FM-12+048399999V0200901N001519999999N9999999N1+00451+00421101421ADDMA1999999095641MD1819999+9999OA149900361REMSYN088AAXX  07194 06636 33/// /0903 10045 20042 39564 40142 58/// 333 55300 20004 91107 91204;
0087066360999992011010720004+46983+007283FM-12+048399999V0200901N001519999999N9999999N1+00431+00401101391ADDMA1999999095611REMSYN060AAXX  07204 06636 43/// /0903 10043 20040 39561 40139 5////;
0087066360999992011010721004+46983+007283FM-12+048399999V0200901N001519999999N9999999N1+00451+00411101421ADDMA1999999095641REMSYN060AAXX  07214 06636 43/// /0903 10045 20041 39564 40142 5////;
0140066360999992011010722004+46983+007283FM-12+048399999V0201001N001519999999N9999999N1+00421+00391101451ADDMA1999999095661MD1310021+9999OA149900361REMSYN088AAXX  07224 06636 33/// /1003 10042 20039 39566 40145 53002 333 55300 20004 91107 91204;
0103066360999992011010723004+46983+007283FM-12+048399999V0201001N001519999999N9999999N1+00421+00381101491ADDMA1999999095701REMSYN076AAXX  07234 06636 33/// /1003 10042 20038 39570 40149 5//// 333 553// 20004;
0103066360999992011010800004+46983+007283FM-12+048399999V0201001N001519999999N9999999N1+00441+00381101471ADDMA1999999095681REMSYN076AAXX  08004 06636 33/// /1003 10044 20038 39568 40147 5//// 333 553// 20004;
0087066360999992011010801004+46983+007283FM-12+048399999V0200601N000519999999N9999999N1+00431+00381101481ADDMA1999999095691REMSYN060AAXX  08014 06636 43/// /0601 10043 20038 39569 40148 5////;
0087066360999992011010802004+46983+007283FM-12+048399999V0201101N001519999999N9999999N1+00421+00371101501ADDMA1999999095711REMSYN060AAXX  08024 06636 43/// /1103 10042 20037 39571 40150 5////;
0087066360999992011010803004+46983+007283FM-12+048399999V0200101N000519999999N9999999N1+00421+00381101531ADDMA1999999095741REMSYN060AAXX  08034 06636 43/// /0101 10042 20038 39574 40153 5////;
0087066360999992011010804004+46983+007283FM-12+048399999V0201101N001019999999N9999999N1+00391+00361101591ADDMA1999999095791REMSYN060AAXX  08044 06636 43/// /1102 10039 20036 39579 40159 5////;
0087066360999992011010805004+46983+007283FM-12+048399999V0201001N001019999999N9999999N1+00411+00401101591ADDMA1999999095791REMSYN060AAXX  08054 06636 43/// /1002 10041 20040 39579 40159 5////;
0134066360999992011010806004+46983+007283FM-12+048399999V0201001N001519999999N9999999N1+00411+00401101601ADDIA2999+00309KA1999N+00381MA1999999095801REMSYN082AAXX  08064 06636 43/// /1003 10041 20040 39580 40160 5//// 333 20038 3/003 55051;
0087066360999992011010807004+46983+007283FM-12+048399999V0200501N000519999999N9999999N1+00411+00401101621ADDMA1999999095821REMSYN060AAXX  08074 06636 43/// /0501 10041 20040 39582 40162 5////;
0103066360999992011010808004+46983+007283FM-12+048399999V0201001N001019999999N9999999N1+00391+00381101651ADDMA1999999095841REMSYN076AAXX  08084 06636 33/// /1002 10039 20038 39584 40165 5//// 333 553// 20032;
0087066360999992011010809004+46983+007283FM-12+048399999V0200901N001019999999N9999999N1+00531+00511101641ADDMA1999999095861REMSYN060AAXX  08094 06636 43/// /0902 10053 20051 39586 40164 5////;
0087066360999992011010810004+46983+007283FM-12+048399999V0201201N001519999999N9999999N1+00661+00571101621ADDMA1999999095871REMSYN060AAXX  08104 06636 43/// /1203 10066 20057 39587 40162 5////;
0087066360999992011010811004+46983+007283FM-12+048399999V0201301N000519999999N9999999N1+00821+00661101531ADDMA1999999095821REMSYN060AAXX  08114 06636 43/// /1301 10082 20066 39582 40153 5////;
0087066360999992011010812004+46983+007283FM-12+048399999V0201201N001519999999N9999999N1+00961+00751101441ADDMA1999999095761REMSYN060AAXX  08124 06636 43/// /1203 10096 20075 39576 40144 5////;
0087066360999992011010813004+46983+007283FM-12+048399999V0202101N000519999999N9999999N1+01111+00741101361ADDMA1999999095721REMSYN060AAXX  08134 06636 43/// /2101 10111 20074 39572 40136 5////;
0087066360999992011010814004+46983+007283FM-12+048399999V0209999C000019999999N9999999N1+01051+00791101351ADDMA1999999095701REMSYN060AAXX  08144 06636 43/// /0000 10105 20079 39570 40135 5////;
0087066360999992011010815004+46983+007283FM-12+048399999V0201201N001519999999N9999999N1+00951+00771101401ADDMA1999999095721REMSYN060AAXX  08154 06636 43/// /1203 10095 20077 39572 40140 5////;
0087066360999992011010816004+46983+007283FM-12+048399999V0200901N001019999999N9999999N1+00721+00671101441ADDMA1999999095711REMSYN060AAXX  08164 06636 43/// /0902 10072 20067 39571 40144 5////;
0087066360999992011010817004+46983+007283FM-12+048399999V0201001N001019999999N9999999N1+00611+00591101461ADDMA1999999095711REMSYN060AAXX  08174 06636 43/// /1002 10061 20059 39571 40146 5////;
0087066360999992011010818004+46983+007283FM-12+048399999V0200701N001019999999N9999999N1+00511+00501101481ADDMA1999999095711REMSYN060AAXX  08184 06636 43/// /0702 10051 20050 39571 40148 5////;
0087066360999992011010819004+46983+007283FM-12+048399999V0200901N001019999999N9999999N1+00391+00381101501ADDMA1999999095701REMSYN060AAXX  08194 06636 43/// /0902 10039 20038 39570 40150 5////;
0087066360999992011010820004+46983+007283FM-12+048399999V0200901N001019999999N9999999N1+00371+00361101511ADDMA1999999095711REMSYN060AAXX  08204 06636 43/// /0902 10037 20036 39571 40151 5////;
0087066360999992011010821004+46983+007283FM-12+048399999V0201001N001519999999N9999999N1+00381+00371101501ADDMA1999999095701REMSYN060AAXX  08214 06636 43/// /1003 10038 20037 39570 40150 5////;
0087066360999992011010822004+46983+007283FM-12+048399999V0200801N001019999999N9999999N1+00371+00351101491ADDMA1999999095691REMSYN060AAXX  08224 06636 43/// /0802 10037 20035 39569 40149 5////;
0087066360999992011010823004+46983+007283FM-12+048399999V0200801N001019999999N9999999N1+00311+00281101511ADDMA1999999095691REMSYN060AAXX  08234 06636 43/// /0802 10031 20028 39569 40151 5////;
0087066360999992011010900004+46983+007283FM-12+048399999V0200501N000519999999N9999999N1+00251+00241101561ADDMA1999999095731REMSYN060AAXX  09004 06636 43/// /0501 10025 20024 39573 40156 5////;
0087066360999992011010901004+46983+007283FM-12+048399999V0200901N001019999999N9999999N1+00221+00211101551ADDMA1999999095711REMSYN060AAXX  09014 06636 43/// /0902 10022 20021 39571 40155 5////;
0087066360999992011010902004+46983+007283FM-12+048399999V0200601N000519999999N9999999N1+00201+00191101551ADDMA1999999095711REMSYN060AAXX  09024 06636 43/// /0601 10020 20019 39571 40155 5////;
0087066360999992011010903004+46983+007283FM-12+048399999V0201001N001019999999N9999999N1+00201+00181101541ADDMA1999999095701REMSYN060AAXX  09034 06636 43/// /1002 10020 20018 39570 40154 5////;
0087066360999992011010904004+46983+007283FM-12+048399999V0200801N001019999999N9999999N1+00171+00131101491ADDMA1999999095651REMSYN060AAXX  09044 06636 43/// /0802 10017 20013 39565 40149 5////;
0087066360999992011010905004+46983+007283FM-12+048399999V0200901N001019999999N9999999N1+00181+00131101481ADDMA1999999095641REMSYN060AAXX  09054 06636 43/// /0902 10018 20013 39564 40148 5////;
0097066360999992011010906004+46983+007283FM-12+048399999V0200801N001519999999N9999999N1+00171+00101101491ADDMA1999999095651REMSYN070AAXX  09064 06636 43/// /0803 10017 20010 39565 40149 5//// 333 55055;
0087066360999992011010907004+46983+007283FM-12+048399999V0200701N001019999999N9999999N1+00151+00101101531ADDMA1999999095681REMSYN060AAXX  09074 06636 43/// /0702 10015 20010 39568 40153 5////;
0103066360999992011010908004+46983+007283FM-12+048399999V0201001N001019999999N9999999N1+00201+00121101611ADDMA1999999095771REMSYN076AAXX  09084 06636 33/// /1002 10020 20012 39577 40161 5//// 333 553// 20025;
0103066360999992011010909004+46983+007283FM-12+048399999V0200801N001019999999N9999999N1+00261+00171101631ADDMA1999999095801REMSYN076AAXX  09094 06636 33/// /0802 10026 20017 39580 40163 5//// 333 553// 20101;
0140066360999992011010910004+46983+007283FM-12+048399999V0200901N000519999999N9999999N1+00341+00221101641ADDMA1999999095821MD1210141+9999OA149900361REMSYN088AAXX  09104 06636 33/// /0901 10034 20022 39582 40164 52014 333 55300 20148 91107 91204;
0146066360999992011010911004+46983+007283FM-12+048399999V0201001N000519999999N9999999N1+00411+00281101611ADDMA1999999095811MD1210041+9999OA149900361REMSYN094AAXX  09114 06636 23/// /1001 10041 20028 39581 40161 52004 333 55300 20230 69915 91107 91204;
0163066360999992011010912004+46983+007283FM-12+048399999V0201001N001019999999N9999999N1+00441+00361101581ADDAA106000591MA1999999095791MD1810011+9999OA149900361REMSYN100AAXX  09124 06636 03/// /1002 10044 20036 39579 40158 58001 69951 333 55300 20209 69945 91107 91204;
0146066360999992011010913004+46983+007283FM-12+048399999V0209999C000019999999N9999999N1+00491+00431101561ADDMA1999999095781MD1710041+9999OA149900211REMSYN094AAXX  09134 06636 23/// /0000 10049 20043 39578 40156 57004 333 55300 20130 69955 91104 91203;
0087066360999992011010914004+46983+007283FM-12+048399999V0201301N000519999999N9999999N1+00501+00481101611ADDMA1999999095831REMSYN060AAXX  09144 06636 43/// /1301 10050 20048 39583 40161 5////;
0087066360999992011010915004+46983+007283FM-12+048399999V0201101N001019999999N9999999N1+00501+00491101651ADDMA1999999095871REMSYN060AAXX  09154 06636 43/// /1102 10050 20049 39587 40165 5////;
0146066360999992011010916004+46983+007283FM-12+048399999V0209999C000019999999N9999999N1+00531+00521101701ADDMA1999999095921MD1110141+9999OA149900151REMSYN094AAXX  09164 06636 23/// /0000 10053 20052 39592 40170 51014 333 55300 20014 60015 91103 91202;
0146066360999992011010917004+46983+007283FM-12+048399999V0209999C000019999999N9999999N1+00711+00601101711ADDMA1999999095971MD1310141+9999OA149900211REMSYN094AAXX  09174 06636 23/// /0000 10071 20060 39597 40171 53014 333 55300 20004 60025 91104 91202;
0182066360999992011010918004+46983+007283FM-12+048399999V0203301N001019999999N9999999N1+00631+00501101771ADDAA112007991KA1120M+00711MA1999999096011MD1110141+9999OA149900361REMSYN106AAXX  09184 06636 03/// /3302 10063 20050 39601 40177 51014 60082 333 10071 55300 20004 69995 91107 91204;
0146066360999992011010919004+46983+007283FM-12+048399999V0203301N000519999999N9999999N1+00551+00511101861ADDMA1999999096071MD1310151+9999OA149900311REMSYN094AAXX  09194 06636 23/// /3301 10055 20051 39607 40186 53015 333 55300 20004 60015 91106 91203;
0146066360999992011010920004+46983+007283FM-12+048399999V0209999C000019999999N9999999N1+00531+00511101901ADDMA1999999096111MD1310141+9999OA149900311REMSYN094AAXX  09204 06636 23/// /0000 10053 20051 39611 40190 53014 333 55300 20004 60025 91106 91203;
0146066360999992011010921004+46983+007283FM-12+048399999V0202901N000519999999N9999999N1+00501+00491101971ADDMA1999999096171MD1110161+9999OA149900311REMSYN094AAXX  09214 06636 23/// /2901 10050 20049 39617 40197 51016 333 55300 20004 60025 91106 91203;
0146066360999992011010922004+46983+007283FM-12+048399999V0203001N000519999999N9999999N1+00501+00461102001ADDMA1999999096201MD1310131+9999OA149900151REMSYN094AAXX  09224 06636 23/// /3001 10050 20046 39620 40200 53013 333 55300 20004 60035 91103 91202;
0146066360999992011010923004+46983+007283FM-12+048399999V0203001N000519999999N9999999N1+00481+00461102031ADDMA1999999096221MD1110111+9999OA149900151REMSYN094AAXX  09234 06636 23/// /3001 10048 20046 39622 40203 51011 333 55300 20004 60025 91103 91202;
0163066360999992011011000004+46983+007283FM-12+048399999V0209999C000019999999N9999999N1+00471+00461102051ADDAA106009991MA1999999096241MD1210071+9999OA149900311REMSYN100AAXX  10004 06636 03/// /0000 10047 20046 39624 40205 52007 60101 333 55300 20004 69985 91106 91203;
0146066360999992011011001004+46983+007283FM-12+048399999V0201101N001019999999N9999999N1+00431+00431102081ADDMA1999999096261MD1210061+9999OA149900101REMSYN094AAXX  10014 06636 23/// /1102 10043 20043 39626 40208 52006 333 55300 20004 69915 91102 91202;
0109066360999992011011002004+46983+007283FM-12+048399999V0200601N000519999999N9999999N1+00431+00431102101ADDMA1999999096281REMSYN082AAXX  10024 06636 23/// /0601 10043 20043 39628 40210 5//// 333 553// 20004 69915;
0087066360999992011011003004+46983+007283FM-12+048399999V0200501N000519999999N9999999N1+00431+00431102111ADDMA1999999096291REMSYN060AAXX  10034 06636 43/// /0501 10043 20043 39629 40211 5////;
0109066360999992011011004004+46983+007283FM-12+048399999V0201101N001019999999N9999999N1+00421+00421102101ADDMA1999999096271REMSYN082AAXX  10044 06636 23/// /1102 10042 20042 39627 40210 5//// 333 553// 20004 69925;
0146066360999992011011005004+46983+007283FM-12+048399999V0201001N000519999999N9999999N1+00421+00421102101ADDMA1999999096271MD1719999+9999OA149900151REMSYN094AAXX  10054 06636 23/// /1001 10042 20042 39627 40210 57/// 333 55300 20004 69955 91103 91202;
0159066360999992011011006004+46983+007283FM-12+048399999V0201101N000519999999N9999999N1+00431+00431102111ADDAA124019891GJ100009IA2999+00309KA1999N+00411MA1999999096291REMSYN088AAXX  10064 06636 43/// /1101 10043 20043 39629 40211 5//// 333 20041 3/003 55000 70198;
0140066360999992011011007004+46983+007283FM-12+048399999V0201101N000519999999N9999999N1+00421+00421102141ADDMA1999999096311MD1210041+9999OA149900151REMSYN088AAXX  10074 06636 33/// /1101 10042 20042 39631 40214 52004 333 55300 20004 91103 91202;
0087066360999992011011008004+46983+007283FM-12+048399999V0201401N001019999999N9999999N1+00421+00391102181ADDMA1999999096351REMSYN060AAXX  10084 06636 43/// /1402 10042 20039 39635 40218 5////;
0087066360999992011011009004+46983+007283FM-12+048399999V0201401N001519999999N9999999N1+00431+00331102211ADDMA1999999096381REMSYN060AAXX  10094 06636 43/// /1403 10043 20033 39638 40221 5////;
0140066360999992011011010004+46983+007283FM-12+048399999V0201301N002619999999N9999999N1+00411+00281102201ADDMA1999999096371MD1210061+9999OA149900511REMSYN088AAXX  10104 06636 33/// /1305 10041 20028 39637 40220 52006 333 55300 20191 91110 91205;
0140066360999992011011011004+46983+007283FM-12+048399999V0201501N001019999999N9999999N1+00431+00301102181ADDMA1999999096351MD1019999+9999OA149900511REMSYN088AAXX  10114 06636 33/// /1502 10043 20030 39635 40218 50/// 333 55300 20230 91110 91205;
0103066360999992011011012004+46983+007283FM-12+048399999V0201401N001519999999N9999999N1+00481+00321102101ADDMA1999999096291REMSYN076AAXX  10124 06636 33/// /1403 10048 20032 39629 40210 5//// 333 553// 20497;
0087066360999992011011013004+46983+007283FM-12+048399999V0201201N002619999999N9999999N1+00461+00311102041ADDMA1999999096231REMSYN060AAXX  10134 06636 43/// /1205 10046 20031 39623 40204 5////;
0087066360999992011011014004+46983+007283FM-12+048399999V0201101N001519999999N9999999N1+00471+00321101991ADDMA1999999096181REMSYN060AAXX  10144 06636 43/// /1103 10047 20032 39618 40199 5////;
0087066360999992011011015004+46983+007283FM-12+048399999V0201101N001519999999N9999999N1+00461+00281101971ADDMA1999999096161REMSYN060AAXX  10154 06636 43/// /1103 10046 20028 39616 40197 5////;
0087066360999992011011016004+46983+007283FM-12+048399999V0201301N001519999999N9999999N1+00431+00291101961ADDMA1999999096141REMSYN060AAXX  10164 06636 43/// /1303 10043 20029 39614 40196 5////;
0087066360999992011011017004+46983+007283FM-12+048399999V0201701N000519999999N9999999N1+00401+00291101951ADDMA1999999096131REMSYN060AAXX  10174 06636 43/// /1701 10040 20029 39613 40195 5////;
0110066360999992011011018004+46983+007283FM-12+048399999V0201401N001019999999N9999999N1+00381+00281101951ADDKA1999M+00491MA1999999096121REMSYN070AAXX  10184 06636 43/// /1402 10038 20028 39612 40195 5//// 333 10049;
0087066360999992011011019004+46983+007283FM-12+048399999V0201901N000519999999N9999999N1+00351+00281101941ADDMA1999999096111REMSYN060AAXX  10194 06636 43/// /1901 10035 20028 39611 40194 5////;
0087066360999992011011020004+46983+007283FM-12+048399999V0201301N000519999999N9999999N1+00331+00271101941ADDMA1999999096101REMSYN060AAXX  10204 06636 43/// /1301 10033 20027 39610 40194 5////;
0087066360999992011011021004+46983+007283FM-12+048399999V0201901N001019999999N9999999N1+00351+00281101911ADDMA1999999096081REMSYN060AAXX  10214 06636 43/// /1902 10035 20028 39608 40191 5////;
0087066360999992011011022004+46983+007283FM-12+048399999V0201201N001519999999N9999999N1+00331+00261101881ADDMA1999999096051REMSYN060AAXX  10224 06636 43/// /1203 10033 20026 39605 40188 5////;
0087066360999992011011023004+46983+007283FM-12+048399999V0209999C000019999999N9999999N1+00341+00251101871ADDMA1999999096041REMSYN060AAXX  10234 06636 43/// /0000 10034 20025 39604 40187 5////;
0087066360999992011011100004+46983+007283FM-12+048399999V0209999C000019999999N9999999N1+00321+00261101811ADDMA1999999095981REMSYN060AAXX  11004 06636 43/// /0000 10032 20026 39598 40181 5////;
0087066360999992011011101004+46983+007283FM-12+048399999V0209999C000019999999N9999999N1+00311+00261101751ADDMA1999999095921REMSYN060AAXX  11014 06636 43/// /0000 10031 20026 39592 40175 5////;
0087066360999992011011102004+46983+007283FM-12+048399999V0201001N001019999999N9999999N1+00311+00251101731ADDMA1999999095901REMSYN060AAXX  11024 06636 43/// /1002 10031 20025 39590 40173 5////;
0087066360999992011011103004+46983+007283FM-12+048399999V0209999C000019999999N9999999N1+00311+00251101661ADDMA1999999095841REMSYN060AAXX  11034 06636 43/// /0000 10031 20025 39584 40166 5////;
0087066360999992011011104004+46983+007283FM-12+048399999V0201201N000519999999N9999999N1+00301+00251101611ADDMA1999999095791REMSYN060AAXX  11044 06636 43/// /1201 10030 20025 39579 40161 5////;
0087066360999992011011105004+46983+007283FM-12+048399999V0200901N000519999999N9999999N1+00301+00261101551ADDMA1999999095731REMSYN060AAXX  11054 06636 43/// /0901 10030 20026 39573 40155 5////;
0097066360999992011011106004+46983+007283FM-12+048399999V0200901N000519999999N9999999N1+00311+00271101511ADDMA1999999095691REMSYN070AAXX  11064 06636 43/// /0901 10031 20027 39569 40151 5//// 333 55000;
0140066360999992011011107004+46983+007283FM-12+048399999V0209999C000019999999N9999999N1+00321+00281101471ADDMA1999999095661MD1719999+9999OA149900151REMSYN088AAXX  11074 06636 33/// /0000 10032 20028 39566 40147 57/// 333 55300 20004 91103 91202;
0103066360999992011011108004+46983+007283FM-12+048399999V0200701N000519999999N9999999N1+00331+00291101451ADDMA1999999095641REMSYN076AAXX  11084 06636 33/// /0701 10033 20029 39564 40145 5//// 333 553// 20022;
0087066360999992011011109004+46983+007283FM-12+048399999V0209999C000019999999N9999999N1+00411+00301101401ADDMA1999999095611REMSYN060AAXX  11094 06636 43/// /0000 10041 20030 39561 40140 5////;
0140066360999992011011110004+46983+007283FM-12+048399999V0202501N000519999999N9999999N1+00481+00211101351ADDMA1999999095581MD1710081+9999OA149900261REMSYN088AAXX  11104 06636 33/// /2501 10048 20021 39558 40135 57008 333 55300 20353 91105 91202;
0140066360999992011011111004+46983+007283FM-12+048399999V0202701N001019999999N9999999N1+00531+00221101261ADDMA1999999095501MD1710141+9999OA149900361REMSYN088AAXX  11114 06636 33/// /2702 10053 20022 39550 40126 57014 333 55300 20572 91107 91203;
0103066360999992011011112004+46983+007283FM-12+048399999V0202601N001019999999N9999999N1+00531+00221101191ADDMA1999999095441REMSYN076AAXX  11124 06636 33/// /2602 10053 20022 39544 40119 5//// 333 553// 20407;
0146066360999992011011113004+46983+007283FM-12+048399999V0202201N001019999999N9999999N1+00531+00211101191ADDMA1999999095441MD1610141+9999OA149900671REMSYN094AAXX  11134 06636 23/// /2202 10053 20021 39544 40119 56014 333 55300 20162 69915 91113 91206;
0087066360999992011011114004+46983+007283FM-12+048399999V0202801N002619999999N9999999N1+00501+00201101211ADDMA1999999095451REMSYN060AAXX  11144 06636 43/// /2805 10050 20020 39545 40121 5////;
0087066360999992011011115004+46983+007283FM-12+048399999V0202801N002119999999N9999999N1+00371+00221101341ADDMA1999999095551REMSYN060AAXX  11154 06636 43/// /2804 10037 20022 39555 40134 5////;
0146066360999992011011116004+46983+007283FM-12+048399999V0203101N001019999999N9999999N1+00351+00271101411ADDMA1999999095611MD1210171+9999OA149900671REMSYN094AAXX  11164 06636 23/// /3102 10035 20027 39561 40141 52017 333 55300 20025 69945 91113 91206;
0146066360999992011011117004+46983+007283FM-12+048399999V0201301N001019999999N9999999N1+00351+00291101501ADDMA1999999095691MD1210221+9999OA149900311REMSYN094AAXX  11174 06636 23/// /1302 10035 20029 39569 40150 52022 333 55300 20007 69915 91106 91204;
0182066360999992011011118004+46983+007283FM-12+048399999V0209999C000019999999N9999999N1+00351+00321101581ADDAA112002091KA1120M+00541MA1999999095771MD1310221+9999OA149900721REMSYN106AAXX  11184 06636 03/// /0000 10035 20032 39577 40158 53022 60022 333 10054 55300 20004 69935 91114 91207;
0140066360999992011011119004+46983+007283FM-12+048399999V0209999C000019999999N9999999N1+00351+00331101691ADDMA1999999095871MD1310261+9999OA149900151REMSYN088AAXX  11194 06636 33/// /0000 10035 20033 39587 40169 53026 333 55300 20004 91103 91202;
0146066360999992011011120004+46983+007283FM-12+048399999V0200301N000519999999N9999999N1+00401+00351101751ADDMA1999999095941MD1210251+9999OA149900211REMSYN094AAXX  11204 06636 23/// /0301 10040 20035 39594 40175 52025 333 55300 20004 69925 91104 91203;
0146066360999992011011121004+46983+007283FM-12+048399999V0201201N001019999999N9999999N1+00371+00341101861ADDMA1999999096041MD1210271+9999OA149900311REMSYN094AAXX  11214 06636 23/// /1202 10037 20034 39604 40186 52027 333 55300 20004 69915 91106 91204;
0140066360999992011011122004+46983+007283FM-12+048399999V0200701N000519999999N9999999N1+00371+00351101971ADDMA1999999096141MD1310271+9999OA149900151REMSYN088AAXX  11224 06636 33/// /0701 10037 20035 39614 40197 53027 333 55300 20004 91103 91202;
0140066360999992011011123004+46983+007283FM-12+048399999V0202301N000519999999N9999999N1+00381+00351102011ADDMA1999999096181MD1110241+9999OA149900211REMSYN088AAXX  11234 06636 33/// /2301 10038 20035 39618 40201 51024 333 55300 20004 91104 91202;
0163066360999992011011200004+46983+007283FM-12+048399999V0202901N000519999999N9999999N1+00391+00331102061ADDAA106000391MA1999999096231MD1110191+9999OA149900721REMSYN100AAXX  12004 06636 03/// /2901 10039 20033 39623 40206 51019 69931 333 55300 20004 60005 91114 91207;
0140066360999992011011201004+46983+007283FM-12+048399999V0203101N001019999999N9999999N1+00411+00361102101ADDMA1999999096271MD1310131+9999OA149900211REMSYN088AAXX  12014 06636 33/// /3102 10041 20036 39627 40210 53013 333 55300 20004 91104 91202;
0103066360999992011011202004+46983+007283FM-12+048399999V0209999C000019999999N9999999N1+00411+00361102181ADDMA1999999096351REMSYN076AAXX  12024 06636 33/// /0000 10041 20036 39635 40218 5//// 333 553// 20004;
0087066360999992011011203004+46983+007283FM-12+048399999V0201401N001019999999N9999999N1+00381+00351102261ADDMA1999999096421REMSYN060AAXX  12034 06636 43/// /1402 10038 20035 39642 40226 5////;
0087066360999992011011204004+46983+007283FM-12+048399999V0203401N000519999999N9999999N1+00441+00371102281ADDMA1999999096451REMSYN060AAXX  12044 06636 43/// /3401 10044 20037 39645 40228 5////;
0103066360999992011011205004+46983+007283FM-12+048399999V0202801N000519999999N9999999N1+00421+00351102361ADDMA1999999096521REMSYN076AAXX  12054 06636 33/// /2801 10042 20035 39652 40236 5//// 333 553// 20004;
0159066360999992011011206004+46983+007283FM-12+048399999V0202801N000519999999N9999999N1+00391+00351102431ADDAA124002391GJ100069IA2999+00309KA1999N+00351MA1999999096581REMSYN088AAXX  12064 06636 43/// /2801 10039 20035 39658 40243 5//// 333 20035 3/003 55001 70024;
0140066360999992011011207004+46983+007283FM-12+048399999V0202801N001019999999N9999999N1+00411+00361102461ADDMA1999999096611MD1210161+9999OA149900211REMSYN088AAXX  12074 06636 33/// /2802 10041 20036 39661 40246 52016 333 55300 20004 91104 91203;
0087066360999992011011208004+46983+007283FM-12+048399999V0209999C000019999999N9999999N1+00431+00331102461ADDMA1999999096621REMSYN060AAXX  12084 06636 43/// /0000 10043 20033 39662 40246 5////;
0087066360999992011011209004+46983+007283FM-12+048399999V0203301N001019999999N9999999N1+00491+00331102471ADDMA1999999096641REMSYN060AAXX  12094 06636 43/// /3302 10049 20033 39664 40247 5////;
0140066360999992011011210004+46983+007283FM-12+048399999V0203001N001019999999N9999999N1+00561+00321102461ADDMA1999999096641MD1219999+9999OA149900211REMSYN088AAXX  12104 06636 33/// /3002 10056 20032 39664 40246 52/// 333 55300 20302 91104 91202;
0140066360999992011011211004+46983+007283FM-12+048399999V0202801N001519999999N9999999N1+00591+00301102451ADDMA1999999096641MD1210021+9999OA149900411REMSYN088AAXX  12114 06636 33/// /2803 10059 20030 39664 40245 52002 333 55300 20245 91108 91205;
0087066360999992011011212004+46983+007283FM-12+048399999V0202901N001519999999N9999999N1+00591+00331102391ADDMA1999999096581REMSYN060AAXX  12124 06636 43/// /2903 10059 20033 39658 40239 5////;
0087066360999992011011213004+46983+007283FM-12+048399999V0203101N001519999999N9999999N1+00621+00371102391ADDMA1999999096591REMSYN060AAXX  12134 06636 43/// /3103 10062 20037 39659 40239 5////;
0087066360999992011011214004+46983+007283FM-12+048399999V0203201N001019999999N9999999N1+00601+00391102421ADDMA1999999096611REMSYN060AAXX  12144 06636 43/// /3202 10060 20039 39661 40242 5////;
0087066360999992011011215004+46983+007283FM-12+048399999V0202701N000519999999N9999999N1+00591+00421102431ADDMA1999999096621REMSYN060AAXX  12154 06636 43/// /2701 10059 20042 39662 40243 5////;
0140066360999992011011216004+46983+007283FM-12+048399999V0202701N002119999999N9999999N1+00571+00281102461ADDMA1999999096641MD1210051+9999OA149900571REMSYN088AAXX  12164 06636 33/// /2704 10057 20028 39664 40246 52005 333 55300 20047 91111 91205;
0146066360999992011011217004+46983+007283FM-12+048399999V0203201N001019999999N9999999N1+00511+00341102501ADDMA1999999096671MD1210061+9999OA149900571REMSYN094AAXX  12174 06636 23/// /3202 10051 20034 39667 40250 52006 333 55300 20004 69915 91111 91205;
0182066360999992011011218004+46983+007283FM-12+048399999V0203101N001019999999N9999999N1+00511+00381102491ADDAA112000391KA1120M+00621MA1999999096661MD1210041+9999OA149900571REMSYN106AAXX  12184 06636 03/// /3102 10051 20038 39666 40249 52004 69932 333 10062 55300 20004 60005 91111 91205;
0140066360999992011011219004+46983+007283FM-12+048399999V0203301N000519999999N9999999N1+00511+00401102501ADDMA1999999096671MD1210031+9999OA149900211REMSYN088AAXX  12194 06636 33/// /3301 10051 20040 39667 40250 52003 333 55300 20004 91104 91202;
0140066360999992011011220004+46983+007283FM-12+048399999V0202801N001019999999N9999999N1+00571+00351102471ADDMA1999999096651MD1710021+9999OA149900261REMSYN088AAXX  12204 06636 33/// /2802 10057 20035 39665 40247 57002 333 55300 20004 91105 91202;
0140066360999992011011221004+46983+007283FM-12+048399999V0203001N001019999999N9999999N1+00581+00331102481ADDMA1999999096671MD1210011+9999OA149900571REMSYN088AAXX  12214 06636 33/// /3002 10058 20033 39667 40248 52001 333 55300 20004 91111 91205;
0146066360999992011011222004+46983+007283FM-12+048399999V0203001N000519999999N9999999N1+00541+00401102481ADDMA1999999096661MD1710011+9999OA149900361REMSYN094AAXX  12224 06636 23/// /3001 10054 20040 39666 40248 57001 333 55300 20004 69925 91107 91204;
0146066360999992011011223004+46983+007283FM-12+048399999V0203101N001019999999N9999999N1+00561+00441102481ADDMA1999999096661MD1210011+9999OA149900361REMSYN094AAXX  12234 06636 23/// /3102 10056 20044 39666 40248 52001 333 55300 20004 69935 91107 91204;
0163066360999992011011300004+46983+007283FM-12+048399999V0203001N002119999999N9999999N1+00591+00461102451ADDAA106001091MA1999999096641MD1710031+9999OA149900571REMSYN100AAXX  13004 06636 03/// /3004 10059 20046 39664 40245 57003 60011 333 55300 20004 69965 91111 91205;
0146066360999992011011301004+46983+007283FM-12+048399999V0203001N001519999999N9999999N1+00571+00471102431ADDMA1999999096621MD1610041+9999OA149900511REMSYN094AAXX  13014 06636 23/// /3003 10057 20047 39662 40243 56004 333 55300 20004 69995 91110 91204;
0146066360999992011011302004+46983+007283FM-12+048399999V0203101N001519999999N9999999N1+00571+00491102401ADDMA1999999096591MD1719999+9999OA149900361REMSYN094AAXX  13024 06636 23/// /3103 10057 20049 39659 40240 57/// 333 55300 20004 69955 91107 91204;
0087066360999992011011303004+46983+007283FM-12+048399999V0202401N000519999999N9999999N1+00571+00511102371ADDMA1999999096561REMSYN060AAXX  13034 06636 43/// /2401 10057 20051 39656 40237 5////;
0146066360999992011011304004+46983+007283FM-12+048399999V0203201N001519999999N9999999N1+00621+00561102351ADDMA1999999096551MD1719999+9999OA149900361REMSYN094AAXX  13044 06636 23/// /3203 10062 20056 39655 40235 57/// 333 55300 20004 60015 91107 91203;
0103066360999992011011305004+46983+007283FM-12+048399999V0203201N002619999999N9999999N1+00631+00561102361ADDMA1999999096561REMSYN076AAXX  13054 06636 33/// /3205 10063 20056 39656 40236 5//// 333 553// 20004;
0230066360999992011011306004+46983+007283FM-12+048399999V0203401N001019999999N9999999N1+00661+00591102361ADDAA112004191AL13000491GJ100009IA2999+00409KA1999N+00481MA1999999096571MD1310011+9999OA149900621REMSYN124AAXX  13064 06636 03/// /3402 10066 20059 39657 40236 53001 60042 333 20048 3/004 55000 55300 20004 60005 70045 91112 91205;
0087066360999992011011307004+46983+007283FM-12+048399999V0203201N000519999999N9999999N1+00681+00611102391ADDMA1999999096601REMSYN060AAXX  13074 06636 43/// /3201 10068 20061 39660 40239 5////;
0087066360999992011011308004+46983+007283FM-12+048399999V0201001N001019999999N9999999N1+00651+00601102411ADDMA1999999096611REMSYN060AAXX  13084 06636 43/// /1002 10065 20060 39661 40241 5////;
0087066360999992011011309004+46983+007283FM-12+048399999V0202901N000519999999N9999999N1+00741+00621102401ADDMA1999999096621REMSYN060AAXX  13094 06636 43/// /2901 10074 20062 39662 40240 5////;
0087066360999992011011310004+46983+007283FM-12+048399999V0202901N001019999999N9999999N1+00811+00681102401ADDMA1999999096641REMSYN060AAXX  13104 06636 43/// /2902 10081 20068 39664 40240 5////;
0087066360999992011011311004+46983+007283FM-12+048399999V0203001N002119999999N9999999N1+01131+00771102271ADDMA1999999096581REMSYN060AAXX  13114 06636 43/// /3004 10113 20077 39658 40227 5////;
0087066360999992011011312004+46983+007283FM-12+048399999V0202901N003119999999N9999999N1+01221+00741102191ADDMA1999999096521REMSYN060AAXX  13124 06636 43/// /2906 10122 20074 39652 40219 5////;
0087066360999992011011313004+46983+007283FM-12+048399999V0203001N003119999999N9999999N1+01111+00711102181ADDMA1999999096491REMSYN060AAXX  13134 06636 43/// /3006 10111 20071 39649 40218 5////;
0087066360999992011011314004+46983+007283FM-12+048399999V0202801N002119999999N9999999N1+01201+00731102151ADDMA1999999096481REMSYN060AAXX  13144 06636 43/// /2804 10120 20073 39648 40215 5////;
0087066360999992011011315004+46983+007283FM-12+048399999V0203001N001519999999N9999999N1+01161+00731102181ADDMA1999999096501REMSYN060AAXX  13154 06636 43/// /3003 10116 20073 39650 40218 5////;
0087066360999992011011316004+46983+007283FM-12+048399999V0203001N001019999999N9999999N1+01051+00741102231ADDMA1999999096531REMSYN060AAXX  13164 06636 43/// /3002 10105 20074 39653 40223 5////;
0140066360999992011011317004+46983+007283FM-12+048399999V0209999C000019999999N9999999N1+01041+00721102251ADDMA1999999096541MD1210061+9999OA149900411REMSYN088AAXX  13174 06636 33/// /0000 10104 20072 39654 40225 52006 333 55300 20004 91108 91204;
0159066360999992011011318004+46983+007283FM-12+048399999V0203401N000519999999N9999999N1+01051+00681102241ADDKA1120M+01221MA1999999096541MD1210041+9999OA149900881REMSYN094AAXX  13184 06636 33/// /3401 10105 20068 39654 40224 52004 333 10122 55300 20004 91117 91208;
0140066360999992011011319004+46983+007283FM-12+048399999V0209999C000019999999N9999999N1+01001+00691102271ADDMA1999999096551MD1210021+9999OA149900211REMSYN088AAXX  13194 06636 33/// /0000 10100 20069 39655 40227 52002 333 55300 20004 91104 91201;
0140066360999992011011320004+46983+007283FM-12+048399999V0202301N001019999999N9999999N1+00941+00711102281ADDMA1999999096551MD1410001+9999OA149900151REMSYN088AAXX  13204 06636 33/// /2302 10094 20071 39655 40228 54001 333 55300 20004 91103 91202;
0140066360999992011011321004+46983+007283FM-12+048399999V0203001N000519999999N9999999N1+00971+00701102271ADDMA1999999096551MD1410001+9999OA149900411REMSYN088AAXX  13214 06636 33/// /3001 10097 20070 39655 40227 54001 333 55300 20004 91108 91204;
0140066360999992011011322004+46983+007283FM-12+048399999V0203201N001519999999N9999999N1+00921+00671102271ADDMA1999999096541MD1410001+9999OA149900311REMSYN088AAXX  13224 06636 33/// /3203 10092 20067 39654 40227 54001 333 55300 20004 91106 91203;
0140066360999992011011323004+46983+007283FM-12+048399999V0209999C000019999999N9999999N1+00731+00601102301ADDMA1999999096531MD1710021+9999OA149900311REMSYN088AAXX  13234 06636 33/// /0000 10073 20060 39653 40230 57002 333 55300 20004 91106 91203;
0140066360999992011011400004+46983+007283FM-12+048399999V0202501N000519999999N9999999N1+00731+00631102301ADDMA1999999096531MD1710021+9999OA149900821REMSYN088AAXX  14004 06636 33/// /2501 10073 20063 39653 40230 57002 333 55300 20004 91116 91208;
0140066360999992011011401004+46983+007283FM-12+048399999V0209999C000019999999N9999999N1+00761+00651102301ADDMA1999999096531MD1710011+9999OA149900101REMSYN088AAXX  14014 06636 33/// /0000 10076 20065 39653 40230 57001 333 55300 20004 91102 91201;
0103066360999992011011402004+46983+007283FM-12+048399999V0201001N000519999999N9999999N1+00721+00651102361ADDMA1999999096581REMSYN076AAXX  14024 06636 33/// /1001 10072 20065 39658 40236 5//// 333 553// 20004;
0140066360999992011011403004+46983+007283FM-12+048399999V0201001N001019999999N9999999N1+00711+00651102361ADDMA1999999096581MD1110051+9999OA149900311REMSYN088AAXX  14034 06636 33/// /1002 10071 20065 39658 40236 51005 333 55300 20004 91106 91203;
0140066360999992011011404004+46983+007283FM-12+048399999V0201001N001019999999N9999999N1+00701+00631102321ADDMA1999999096541MD1010011+9999OA149900151REMSYN088AAXX  14044 06636 33/// /1002 10070 20063 39654 40232 50001 333 55300 20004 91103 91202;
0140066360999992011011405004+46983+007283FM-12+048399999V0201101N001019999999N9999999N1+00691+00631102341ADDMA1999999096561MD1710021+9999OA149900151REMSYN088AAXX  14054 06636 33/// /1102 10069 20063 39656 40234 57002 333 55300 20004 91103 91202;
0226066360999992011011406004+46983+007283FM-12+048399999V0201101N001019999999N9999999N1+00671+00601102371ADDAL19900091GJ100069IA2999+00409KA1999N+00671MA1999999096581MD1310011+9999OA149900311REMSYN112AAXX  14064 06636 33/// /1102 10067 20060 39658 40237 53000 333 20067 3/004 55001 55300 20004 70000 91106 91203;EQDQ01+000002APC3  
0140066360999992011011407004+46983+007283FM-12+048399999V0200801N000519999999N9999999N1+00671+00591102381ADDMA1999999096591MD1210051+9999OA149900211REMSYN088AAXX  14074 06636 33/// /0801 10067 20059 39659 40238 52005 333 55300 20004 91104 91202;
0087066360999992011011408004+46983+007283FM-12+048399999V0201101N001519999999N9999999N1+00671+00591102381ADDMA1999999096591REMSYN060AAXX  14084 06636 43/// /1103 10067 20059 39659 40238 5////;
0087066360999992011011409004+46983+007283FM-12+048399999V0201001N001019999999N9999999N1+00731+00601102351ADDMA1999999096571REMSYN060AAXX  14094 06636 43/// /1002 10073 20060 39657 40235 5////;
0087066360999992011011410004+46983+007283FM-12+048399999V0201201N001019999999N9999999N1+00811+00611102301ADDMA1999999096541REMSYN060AAXX  14104 06636 43/// /1202 10081 20061 39654 40230 5////;
0140066360999992011011411004+46983+007283FM-12+048399999V0201101N001019999999N9999999N1+00901+00651102251ADDMA1999999096511MD1610081+9999OA149900151REMSYN088AAXX  14114 06636 33/// /1102 10090 20065 39651 40225 56008 333 55300 20529 91103 91202;
0140066360999992011011412004+46983+007283FM-12+048399999V0209999C000019999999N9999999N1+01031+00671102171ADDMA1999999096471MD1710101+9999OA149900211REMSYN088AAXX  14124 06636 33/// /0000 10103 20067 39647 40217 57010 333 55300 20666 91104 91203;
0140066360999992011011413004+46983+007283FM-12+048399999V0202601N001519999999N9999999N1+01081+00511102101ADDMA1999999096411MD1710131+9999OA149900361REMSYN088AAXX  14134 06636 33/// /2603 10108 20051 39641 40210 57013 333 55300 20662 91107 91204;
0103066360999992011011414004+46983+007283FM-12+048399999V0202501N000519999999N9999999N1+01081+00481102081ADDMA1999999096391REMSYN076AAXX  14144 06636 33/// /2501 10108 20048 39639 40208 5//// 333 553// 20590;
0140066360999992011011415004+46983+007283FM-12+048399999V0201801N000519999999N9999999N1+01031+00501102081ADDMA1999999096381MD1710091+9999OA149900361REMSYN088AAXX  14154 06636 33/// /1801 10103 20050 39638 40208 57009 333 55302 20504 91107 91204;
0140066360999992011011416004+46983+007283FM-12+048399999V0202901N000519999999N9999999N1+00781+00521102121ADDMA1999999096371MD1710041+9999OA149900211REMSYN088AAXX  14164 06636 33/// /2901 10078 20052 39637 40212 57004 333 55300 20151 91104 91202;
0140066360999992011011417004+46983+007283FM-12+048399999V0200901N001019999999N9999999N1+00581+00491102161ADDMA1999999096361MD1710031+9999OA149900101REMSYN088AAXX  14174 06636 33/// /0902 10058 20049 39636 40216 57003 333 55300 20007 91102 91202;
0159066360999992011011418004+46983+007283FM-12+048399999V0200601N001019999999N9999999N1+00491+00431102171ADDKA1120M+01101MA1999999096351MD1710031+9999OA149900361REMSYN094AAXX  14184 06636 33/// /0602 10049 20043 39635 40217 57003 333 10110 55300 20004 91107 91204;
0140066360999992011011419004+46983+007283FM-12+048399999V0200801N000519999999N9999999N1+00431+00381102181ADDMA1999999096351MD1710021+9999OA149900151REMSYN088AAXX  14194 06636 33/// /0801 10043 20038 39635 40218 57002 333 55300 20004 91103 91202;
0140066360999992011011420004+46983+007283FM-12+048399999V0200301N000519999999N9999999N1+00361+00321102221ADDMA1999999096371MD1310011+9999OA149900151REMSYN088AAXX  14204 06636 33/// /0301 10036 20032 39637 40222 53001 333 55300 20004 91103 91202;
0140066360999992011011421004+46983+007283FM-12+048399999V0201001N000519999999N9999999N1+00331+00301102311ADDMA1999999096451MD1210101+9999OA149900151REMSYN088AAXX  14214 06636 33/// /1001 10033 20030 39645 40231 52010 333 55300 20004 91103 91202;
0140066360999992011011422004+46983+007283FM-12+048399999V0200901N001019999999N9999999N1+00311+00301102391ADDMA1999999096521MD1210171+9999OA149900151REMSYN088AAXX  14224 06636 33/// /0902 10031 20030 39652 40239 52017 333 55300 20004 91103 91202;
0140066360999992011011423004+46983+007283FM-12+048399999V0202801N001019999999N9999999N1+00431+00401102441ADDMA1999999096601MD1210231+9999OA149900261REMSYN088AAXX  14234 06636 33/// /2802 10043 20040 39660 40244 52023 333 55300 20004 91105 91202;
0140066360999992011011500004+46983+007283FM-12+048399999V0202701N002119999999N9999999N1+01021+00401102351ADDMA1999999096631MD1210181+9999OA149900881REMSYN088AAXX  15004 06636 33/// /2704 10102 20040 39663 40235 52018 333 55300 20000 91117 91207;
0146066360999992011011501004+46983+007283FM-12+048399999V0203101N001019999999N9999999N1+00841+00561102481ADDMA1999999096721MD1210201+9999OA149900881REMSYN094AAXX  15014 06636 23/// /3102 10084 20056 39672 40248 52020 333 55300 20004 69945 91117 91207;
0146066360999992011011502004+46983+007283FM-12+048399999V0202701N001019999999N9999999N1+00781+00631102581ADDMA1999999096801MD1219999+9999OA149900671REMSYN094AAXX  15024 06636 23/// /2702 10078 20063 39680 40258 52/// 333 55300 20004 60015 91113 91204;
0109066360999992011011503004+46983+007283FM-12+048399999V0202701N001519999999N9999999N1+00721+00631102671ADDMA1999999096871REMSYN082AAXX  15034 06636 23/// /2703 10072 20063 39687 40267 5//// 333 553// 20004 60015;
0146066360999992011011504004+46983+007283FM-12+048399999V0202601N001019999999N9999999N1+00731+00621102741ADDMA1999999096941MD1110221+9999OA149900411REMSYN094AAXX  15044 06636 23/// /2602 10073 20062 39694 40274 51022 333 55300 20004 69955 91108 91203;
0140066360999992011011505004+46983+007283FM-12+048399999V0200901N000519999999N9999999N1+00631+00561102821ADDMA1999999097001MD1110201+9999OA149900411REMSYN088AAXX  15054 06636 33/// /0901 10063 20056 39700 40282 51020 333 55300 20004 91108 91203;
0230066360999992011011506004+46983+007283FM-12+048399999V0200801N000519999999N9999999N1+00541+00511102931ADDAA112004191AL13000391GJ100129IA2999-00209KA1999N+00291MA1999999097081MD1210211+9999OA149900881REMSYN124AAXX  15064 06636 03/// /0801 10054 20051 39708 40293 52021 60042 333 20029 3/102 55002 55300 20004 60005 70035 91117 91207;
0140066360999992011011507004+46983+007283FM-12+048399999V0201001N001019999999N9999999N1+00441+00421102951ADDMA1999999097081MD1210141+9999OA149900151REMSYN088AAXX  15074 06636 33/// /1002 10044 20042 39708 40295 52014 333 55300 20004 91103 91202;
0140066360999992011011508004+46983+007283FM-12+048399999V0200901N001019999999N9999999N1+00381+00371102961ADDMA1999999097081MD1019999+9999OA149900151REMSYN088AAXX  15084 06636 33/// /0902 10038 20037 39708 40296 50/// 333 55300 20061 91103 91202;
0140066360999992011011509004+46983+007283FM-12+048399999V0200701N000519999999N9999999N1+00411+00411103051ADDMA1999999097171MD1310091+9999OA149900411REMSYN088AAXX  15094 06636 33/// /0701 10041 20041 39717 40305 53009 333 55300 20245 91108 91203;
0140066360999992011011510004+46983+007283FM-12+048399999V0200901N000519999999N9999999N1+00551+00551103021ADDMA1999999097171MD1210091+9999OA149900211REMSYN088AAXX  15104 06636 33/// /0901 10055 20055 39717 40302 52009 333 55309 20889 91104 91203;
0140066360999992011011511004+46983+007283FM-12+048399999V0201201N000519999999N9999999N1+00721+00721102921ADDMA1999999097111MD1010031+9999OA149900211REMSYN088AAXX  15114 06636 33/// /1201 10072 20072 39711 40292 50003 333 553// 2//// 91104 91203;
0140066360999992011011512004+46983+007283FM-12+048399999V0209999C000019999999N9999999N1+01011+01011102801ADDMA1999999097061MD1710111+9999OA149900671REMSYN088AAXX  15124 06636 33/// /0000 10101 20101 39706 40280 57011 333 553// 2//// 91113 91204;
0103066360999992011011513004+46983+007283FM-12+048399999V0200801N001019999999N9999999N1+01011+00391102751ADDMA1999999097011REMSYN076AAXX  15134 06636 33/// /0802 10101 20039 39701 40275 5//// 333 553// 2////;
0087066360999992011011514004+46983+007283FM-12+048399999V0201301N001019999999N9999999N1+01021+00411102761ADDMA1999999097021REMSYN060AAXX  15144 06636 43/// /1302 10102 20041 39702 40276 5////;
0087066360999992011011515004+46983+007283FM-12+048399999V0201501N001519999999N9999999N1+01001+00421102821ADDMA1999999097071REMSYN060AAXX  15154 06636 43/// /1503 10100 20042 39707 40282 5////;
0087066360999992011011516004+46983+007283FM-12+048399999V0201101N000519999999N9999999N1+00741+00451102891ADDMA1999999097091REMSYN060AAXX  15164 06636 43/// /1101 10074 20045 39709 40289 5////;
0103066360999992011011517004+46983+007283FM-12+048399999V0200801N000519999999N9999999N1+00531+00431102961ADDMA1999999097111REMSYN076AAXX  15174 06636 33/// /0801 10053 20043 39711 40296 5//// 333 553// 20011;
0110066360999992011011518004+46983+007283FM-12+048399999V0201001N001019999999N9999999N1+00451+00391103021ADDKA1999M+01061MA1999999097151REMSYN070AAXX  15184 06636 43/// /1002 10045 20039 39715 40302 5//// 333 10106;
0087066360999992011011519004+46983+007283FM-12+048399999V0201201N001019999999N9999999N1+00361+00321103071ADDMA1999999097181REMSYN060AAXX  15194 06636 43/// /1202 10036 20032 39718 40307 5////;
0087066360999992011011520004+46983+007283FM-12+048399999V0200901N001019999999N9999999N1+00321+00281103101ADDMA1999999097201REMSYN060AAXX  15204 06636 43/// /0902 10032 20028 39720 40310 5////;
0140066360999992011011521004+46983+007283FM-12+048399999V0200701N000519999999N9999999N1+00261+00231103101ADDMA1999999097181MD1010031+9999OA149900211REMSYN088AAXX  15214 06636 33/// /0701 10026 20023 39718 40310 50003 333 55300 20004 91104 91203;
0140066360999992011011522004+46983+007283FM-12+048399999V0200801N001019999999N9999999N1+00201+00181103131ADDMA1999999097201MD1310021+9999OA149900151REMSYN088AAXX  15224 06636 33/// /0802 10020 20018 39720 40313 53002 333 55300 20004 91103 91202;
0140066360999992011011523004+46983+007283FM-12+048399999V0200601N000519999999N9999999N1+00161+00141103101ADDMA1999999097161MD1810041+9999OA149900151REMSYN088AAXX  15234 06636 33/// /0601 10016 20014 39716 40310 58004 333 55300 20004 91103 91202;
0140066360999992011011600004+46983+007283FM-12+048399999V0200801N001019999999N9999999N1+00131+00111103061ADDMA1999999097121MD1710061+9999OA149900211REMSYN088AAXX  16004 06636 33/// /0802 10013 20011 39712 40306 57006 333 55300 20004 91104 91203;
0140066360999992011011601004+46983+007283FM-12+048399999V0200401N000519999999N9999999N1+00091+00081103051ADDMA1999999097101MD1610101+9999OA149900211REMSYN088AAXX  16014 06636 33/// /0401 10009 20008 39710 40305 56010 333 55300 20004 91104 91202;
0140066360999992011011602004+46983+007283FM-12+048399999V0200801N001019999999N9999999N1+00061+00051103061ADDMA1999999097101MD1719999+9999OA149900211REMSYN088AAXX  16024 06636 33/// /0802 10006 20005 39710 40306 57/// 333 55300 20004 91104 91202;
0087066360999992011011603004+46983+007283FM-12+048399999V0209999C000019999999N9999999N1+00061+00051103051ADDMA1999999097091REMSYN060AAXX  16034 06636 43/// /0000 10006 20005 39709 40305 5////;
0140066360999992011011604004+46983+007283FM-12+048399999V0200901N000519999999N9999999N1+00021+00011103061ADDMA1999999097091MD1510011+9999OA149900261REMSYN088AAXX  16044 06636 33/// /0901 10002 20001 39709 40306 55001 333 55300 20004 91105 91203;
0140066360999992011011605004+46983+007283FM-12+048399999V0209999C000019999999N9999999N1-00011-00021103101ADDMA1999999097121MD1210021+9999OA149900101REMSYN088AAXX  16054 06636 33/// /0000 11001 21002 39712 40310 52002 333 55300 20004 91102 91201;
0207066360999992011011606004+46983+007283FM-12+048399999V0201001N000519999999N9999999N1-00031-00041103121ADDAL19900091GJ103729IA2999-00509KA1999N-00031MA1999999097141MD1210051+9999OA149900261REMSYN112AAXX  16064 06636 33/// /1001 11003 21004 39714 40312 52005 333 21003 3/105 55062 55300 20004 70000 91105 91203;
0140066360999992011011607004+46983+007283FM-12+048399999V0200801N001019999999N9999999N1-00051-00061103181ADDMA1999999097191MD1210101+9999OA149900151REMSYN088AAXX  16074 06636 33/// /0802 11005 21006 39719 40318 52010 333 55300 20004 91103 91202;
0140066360999992011011608004+46983+007283FM-12+048399999V0200601N001019999999N9999999N1-00041-00041103201ADDMA1999999097211MD1219999+9999OA149900211REMSYN088AAXX  16084 06636 33/// /0602 11004 21004 39721 40320 52/// 333 55300 20036 91104 91203;
0140066360999992011011609004+46983+007283FM-12+048399999V0200501N000519999999N9999999N1+00001+00001103191ADDMA1999999097211MD1010071+9999OA149900211REMSYN088AAXX  16094 06636 33/// /0501 10000 20000 39721 40319 50007 333 55305 20360 91104 91203;
0140066360999992011011610004+46983+007283FM-12+048399999V0202301N000519999999N9999999N1+00131+00131103161ADDMA1999999097211MD1210021+9999OA149900151REMSYN088AAXX  16104 06636 33/// /2301 10013 20013 39721 40316 52002 333 553// 20918 91103 91201;
0140066360999992011011611004+46983+007283FM-12+048399999V0202101N000519999999N9999999N1+00331+00331103071ADDMA1999999097171MD1710041+9999OA149900151REMSYN088AAXX  16114 06636 33/// /2101 10033 20033 39717 40307 57004 333 553// 2//// 91103 91201;
0140066360999992011011612004+46983+007283FM-12+048399999V0202101N001519999999N9999999N1+00471+00471102981ADDMA1999999097111MD1810101+9999OA149900261REMSYN088AAXX  16124 06636 33/// /2103 10047 20047 39711 40298 58010 333 553// 2//// 91105 91204;
0140066360999992011011613004+46983+007283FM-12+048399999V0202201N002119999999N9999999N1+00691+00681102851ADDMA1999999097041MD1810171+9999OA149900311REMSYN088AAXX  16134 06636 33/// /2204 10069 20068 39704 40285 58017 333 553// 2//// 91106 91204;
0140066360999992011011614004+46983+007283FM-12+048399999V0202201N001519999999N9999999N1+00751+00331102811ADDMA1999999097011MD1619999+9999OA149900311REMSYN088AAXX  16144 06636 33/// /2203 10075 20033 39701 40281 56/// 333 553// 2//// 91106 91204;
0140066360999992011011615004+46983+007283FM-12+048399999V0202301N002119999999N9999999N1+00691+00351102821ADDMA1999999097011MD1710101+9999OA149900311REMSYN088AAXX  16154 06636 33/// /2304 10069 20035 39701 40282 57010 333 553// 20691 91106 91204;
0140066360999992011011616004+46983+007283FM-12+048399999V0202401N001019999999N9999999N1+00441+00261102891ADDMA1999999097021MD1510021+9999OA149900261REMSYN088AAXX  16164 06636 33/// /2402 10044 20026 39702 40289 55002 333 55306 20198 91105 91204;
0140066360999992011011617004+46983+007283FM-12+048399999V0209999C000019999999N9999999N1+00271+00171102941ADDMA1999999097031MD1210021+9999OA149900261REMSYN088AAXX  16174 06636 33/// /0000 10027 20017 39703 40294 52002 333 55300 20007 91105 91203;
0159066360999992011011618004+46983+007283FM-12+048399999V0209999C000019999999N9999999N1+00181+00121103011ADDKA1120M+00761MA1999999097081MD1210071+9999OA149900311REMSYN094AAXX  16184 06636 33/// /0000 10018 20012 39708 40301 52007 333 10076 55300 20004 91106 91204;
0140066360999992011011619004+46983+007283FM-12+048399999V0209999C000019999999N9999999N1+00111+00071103051ADDMA1999999097101MD1210081+9999OA149900051REMSYN088AAXX  16194 06636 33/// /0000 10011 20007 39710 40305 52008 333 55300 20004 91101 91200;
0140066360999992011011620004+46983+007283FM-12+048399999V0200701N000519999999N9999999N1+00101+00071103071ADDMA1999999097121MD1210091+9999OA149900101REMSYN088AAXX  16204 06636 33/// /0701 10010 20007 39712 40307 52009 333 55300 20004 91102 91201;
0140066360999992011011621004+46983+007283FM-12+048399999V0200701N000519999999N9999999N1+00041+00021103081ADDMA1999999097121MD1210041+9999OA149900261REMSYN088AAXX  16214 06636 33/// /0701 10004 20002 39712 40308 52004 333 55300 20004 91105 91203;
0140066360999992011011622004+46983+007283FM-12+048399999V0200901N000519999999N9999999N1+00011-00011103101ADDMA1999999097131MD1210031+9999OA149900101REMSYN088AAXX  16224 06636 33/// /0901 10001 21001 39713 40310 52003 333 55300 20004 91102 91201;
0140066360999992011011623004+46983+007283FM-12+048399999V0200601N000519999999N9999999N1-00011-00031103111ADDMA1999999097131MD1410001+9999OA149900101REMSYN088AAXX  16234 06636 33/// /0601 11001 21003 39713 40311 54001 333 55300 20004 91102 91201;
0140066360999992011011700004+46983+007283FM-12+048399999V0209999C000019999999N9999999N1-00041-00051103101ADDMA1999999097121MD1010001+9999OA149900311REMSYN088AAXX  17004 06636 33/// /0000 11004 21005 39712 40310 50000 333 55300 20004 91106 91204;
0140066360999992011011701004+46983+007283FM-12+048399999V0200301N000519999999N9999999N1-00051-00061103081ADDMA1999999097101MD1710031+9999OA149900101REMSYN088AAXX  17014 06636 33/// /0301 11005 21006 39710 40308 57003 333 55300 20004 91102 91201;
0140066360999992011011702004+46983+007283FM-12+048399999V0209999C000019999999N9999999N1-00071-00081103091ADDMA1999999097101MD1719999+9999OA149900101REMSYN088AAXX  17024 06636 33/// /0000 11007 21008 39710 40309 57/// 333 55300 20004 91102 91201;
0103066360999992011011703004+46983+007283FM-12+048399999V0209999C000019999999N9999999N1-00091-00101103081ADDMA1999999097091REMSYN076AAXX  17034 06636 33/// /0000 11009 21010 39709 40308 5//// 333 553// 20004;
0140066360999992011011704004+46983+007283FM-12+048399999V0200201N000519999999N9999999N1-00101-00111103051ADDMA1999999097061MD1710041+9999OA149900051REMSYN088AAXX  17044 06636 33/// /0201 11010 21011 39706 40305 57004 333 55300 20004 91101 91201;
0140066360999992011011705004+46983+007283FM-12+048399999V0203101N000519999999N9999999N1-00101-00111103031ADDMA1999999097041MD1610061+9999OA149900101REMSYN088AAXX  17054 06636 33/// /3101 11010 21011 39704 40303 56006 333 55300 20004 91102 91201;
0207066360999992011011706004+46983+007283FM-12+048399999V0209999C000019999999N9999999N1-00151-00161103031ADDAL19900091GJ104269IA2999-00609KA1999N-00131MA1999999097031MD1610061+9999OA149900101REMSYN112AAXX  17064 06636 33/// /0000 11015 21016 39703 40303 56006 333 21013 3/106 55071 55300 20004 70000 91102 91201;
0140066360999992011011707004+46983+007283FM-12+048399999V0203101N000519999999N9999999N1-00151-00161103021ADDMA1999999097021MD1610041+9999OA149900101REMSYN088AAXX  17074 06636 33/// /3101 11015 21016 39702 40302 56004 333 55300 20004 91102 91201;
0087066360999992011011708004+46983+007283FM-12+048399999V0209999C000019999999N9999999N1-00191-00201103051ADDMA1999999097041REMSYN060AAXX  17084 06636 43/// /0000 11019 21020 39704 40305 5////;
0087066360999992011011709004+46983+007283FM-12+048399999V0200701N000519999999N9999999N1-00121-00131103041ADDMA1999999097041REMSYN060AAXX  17094 06636 43/// /0701 11012 21013 39704 40304 5////;
0140066360999992011011710004+46983+007283FM-12+048399999V0202301N001019999999N9999999N1-00011-00021103041ADDMA1999999097071MD1210051+9999OA149900151REMSYN088AAXX  17104 06636 33/// /2302 11001 21002 39707 40304 52005 333 55308 20821 91103 91202;
0140066360999992011011711004+46983+007283FM-12+048399999V0202301N001519999999N9999999N1+00191+00191102961ADDMA1999999097041MD1010001+9999OA149900261REMSYN088AAXX  17114 06636 33/// /2303 10019 20019 39704 40296 50000 333 553// 2//// 91105 91203;
0140066360999992011011712004+46983+007283FM-12+048399999V0202201N001519999999N9999999N1+00321+00321102901ADDMA1999999097011MD1810031+9999OA149900311REMSYN088AAXX  17124 06636 33/// /2203 10032 20032 39701 40290 58003 333 553// 2//// 91106 91204;
0140066360999992011011713004+46983+007283FM-12+048399999V0202301N001519999999N9999999N1+00501+00501102851ADDMA1999999097001MD1710071+9999OA149900461REMSYN088AAXX  17134 06636 33/// /2303 10050 20050 39700 40285 57007 333 553// 2//// 91109 91205;
0087066360999992011011714004+46983+007283FM-12+048399999V0202301N001519999999N9999999N1+00481+00481102851ADDMA1999999096991REMSYN060AAXX  17144 06636 43/// /2303 10048 20048 39699 40285 5////;
0087066360999992011011715004+46983+007283FM-12+048399999V0202201N001019999999N9999999N1+00421+00321102891ADDMA1999999097021REMSYN060AAXX  17154 06636 43/// /2202 10042 20032 39702 40289 5////;
0140066360999992011011716004+46983+007283FM-12+048399999V0202601N000519999999N9999999N1+00341+00291102921ADDMA1999999097031MD1210031+9999OA149900311REMSYN088AAXX  17164 06636 33/// /2601 10034 20029 39703 40292 52003 333 55302 20151 91106 91204;
0140066360999992011011717004+46983+007283FM-12+048399999V0200701N000519999999N9999999N1+00261+00231102961ADDMA1999999097051MD1210061+9999OA149900211REMSYN088AAXX  17174 06636 33/// /0701 10026 20023 39705 40296 52006 333 55300 20011 91104 91203;
0159066360999992011011718004+46983+007283FM-12+048399999V0203501N000519999999N9999999N1+00191+00171102991ADDKA1120M+00531MA1999999097061MD1210041+9999OA149900461REMSYN094AAXX  17184 06636 33/// /3501 10019 20017 39706 40299 52004 333 10053 55300 20004 91109 91206;
0140066360999992011011719004+46983+007283FM-12+048399999V0203501N000519999999N9999999N1+00121+00111103041ADDMA1999999097101MD1210071+9999OA149900151REMSYN088AAXX  17194 06636 33/// /3501 10012 20011 39710 40304 52007 333 55300 20004 91103 91201;
0140066360999992011011720004+46983+007283FM-12+048399999V0200301N000519999999N9999999N1+00111+00101103051ADDMA1999999097101MD1210051+9999OA149900151REMSYN088AAXX  17204 06636 33/// /0301 10011 20010 39710 40305 52005 333 55300 20004 91103 91201;
0140066360999992011011721004+46983+007283FM-12+048399999V0200401N000519999999N9999999N1+00091+00091103051ADDMA1999999097101MD1210041+9999OA149900211REMSYN088AAXX  17214 06636 33/// /0401 10009 20009 39710 40305 52004 333 55300 20004 91104 91203;
0140066360999992011011722004+46983+007283FM-12+048399999V0203401N000519999999N9999999N1+00031+00031103091ADDMA1999999097121MD1210021+9999OA149900151REMSYN088AAXX  17224 06636 33/// /3401 10003 20003 39712 40309 52002 333 55300 20004 91103 91202;
0140066360999992011011723004+46983+007283FM-12+048399999V0209999C000019999999N9999999N1+00031+00031103101ADDMA1999999097131MD1210031+9999OA149900151REMSYN088AAXX  17234 06636 33/// /0000 10003 20003 39713 40310 52003 333 55300 20004 91103 91202;
0140066360999992011011800004+46983+007283FM-12+048399999V0203301N000519999999N9999999N1-00021-00021103091ADDMA1999999097111MD1010011+9999OA149900461REMSYN088AAXX  18004 06636 33/// /3301 11002 21002 39711 40309 50001 333 55300 20004 91109 91206;
0140066360999992011011801004+46983+007283FM-12+048399999V0203301N000519999999N9999999N1-00011-00011103071ADDMA1999999097101MD1719999+9999OA149900151REMSYN088AAXX  18014 06636 33/// /3301 11001 21001 39710 40307 57/// 333 55300 20004 91103 91202;
0087066360999992011011802004+46983+007283FM-12+048399999V0202101N000519999999N9999999N1-00031-00031103091ADDMA1999999097111REMSYN060AAXX  18024 06636 43/// /2101 11003 21003 39711 40309 5////;
0087066360999992011011803004+46983+007283FM-12+048399999V0202901N000519999999N9999999N1-00061-00061103071ADDMA1999999097091REMSYN060AAXX  18034 06636 43/// /2901 11006 21006 39709 40307 5////;
0103066360999992011011804004+46983+007283FM-12+048399999V0203301N000519999999N9999999N1-00091-00091103031ADDMA1999999097041REMSYN076AAXX  18044 06636 33/// /3301 11009 21009 39704 40303 5//// 333 553// 20004;
0140066360999992011011805004+46983+007283FM-12+048399999V0209999C000019999999N9999999N1-00091-00091103021ADDMA1999999097031MD1610081+9999OA149900211REMSYN088AAXX  18054 06636 33/// /0000 11009 21009 39703 40302 56008 333 55300 20004 91104 91203;
0207066360999992011011806004+46983+007283FM-12+048399999V0200901N000519999999N9999999N1-00091-00091103061ADDAL19900091GJ103549IA2999-00409KA1999N-00091MA1999999097071MD1510021+9999OA149900211REMSYN112AAXX  18064 06636 33/// /0901 11009 21009 39707 40306 55002 333 21009 3/104 55059 55300 20004 70000 91104 91203;
0140066360999992011011807004+46983+007283FM-12+048399999V0200601N000519999999N9999999N1-00081-00081103071ADDMA1999999097081MD1210041+9999OA149900151REMSYN088AAXX  18074 06636 33/// /0601 11008 21008 39708 40307 52004 333 55300 20004 91103 91201;
0087066360999992011011808004+46983+007283FM-12+048399999V0209999C000019999999N9999999N1-00061-00061103071ADDMA1999999097091REMSYN060AAXX  18084 06636 43/// /0000 11006 21006 39709 40307 5////;
0087066360999992011011809004+46983+007283FM-12+048399999V0202101N000519999999N9999999N1-00021-00021103051ADDMA1999999097081REMSYN060AAXX  18094 06636 43/// /2101 11002 21002 39708 40305 5////;
0140066360999992011011810004+46983+007283FM-12+048399999V0209999C000019999999N9999999N1+00021+00021103041ADDMA1999999097071MD1810011+9999OA149900261REMSYN088AAXX  18104 06636 33/// /0000 10002 20002 39707 40304 58001 333 55300 20562 91105 91203;
0140066360999992011011811004+46983+007283FM-12+048399999V0202101N001519999999N9999999N1+00211+00211102931ADDMA1999999097011MD1710081+9999OA149900261REMSYN088AAXX  18114 06636 33/// /2103 10021 20021 39701 40293 57008 333 55304 2//// 91105 91203;
0140066360999992011011812004+46983+007283FM-12+048399999V0203101N000519999999N9999999N1+00431+00431102781ADDMA1999999096921MD1719999+9999OA149900261REMSYN088AAXX  18124 06636 33/// /3101 10043 20043 39692 40278 57/// 333 55300 20907 91105 91204;
0103066360999992011011813004+46983+007283FM-12+048399999V0202701N000519999999N9999999N1+00471+00301102741ADDMA1999999096891REMSYN076AAXX  18134 06636 33/// /2701 10047 20030 39689 40274 5//// 333 553// 20716;
0087066360999992011011814004+46983+007283FM-12+048399999V0202301N001019999999N9999999N1+00471+00251102721ADDMA1999999096871REMSYN060AAXX  18144 06636 43/// /2302 10047 20025 39687 40272 5////;
0087066360999992011011815004+46983+007283FM-12+048399999V0202801N000519999999N9999999N1+00451+00251102751ADDMA1999999096891REMSYN060AAXX  18154 06636 43/// /2801 10045 20025 39689 40275 5////;
0140066360999992011011816004+46983+007283FM-12+048399999V0202601N000519999999N9999999N1+00371+00241102791ADDMA1999999096911MD1310021+9999OA149900261REMSYN088AAXX  18164 06636 33/// /2601 10037 20024 39691 40279 53002 333 55300 20191 91105 91202;
0140066360999992011011817004+46983+007283FM-12+048399999V0202501N001019999999N9999999N1+00221+00161102851ADDMA1999999096941MD1210071+9999OA149900151REMSYN088AAXX  18174 06636 33/// /2502 10022 20016 39694 40285 52007 333 55300 20011 91103 91202;
0159066360999992011011818004+46983+007283FM-12+048399999V0209999C000019999999N9999999N1+00191+00151102891ADDKA1120M+00521MA1999999096971MD1310081+9999OA149900311REMSYN094AAXX  18184 06636 33/// /0000 10019 20015 39697 40289 53008 333 10052 55300 20004 91106 91204;
0140066360999992011011819004+46983+007283FM-12+048399999V0200601N000519999999N9999999N1+00251+00201102881ADDMA1999999096971MD1210061+9999OA149900151REMSYN088AAXX  18194 06636 33/// /0601 10025 20020 39697 40288 52006 333 55300 20004 91103 91201;
0140066360999992011011820004+46983+007283FM-12+048399999V0200501N000519999999N9999999N1+00281+00221102861ADDMA1999999096961MD1010021+9999OA149900151REMSYN088AAXX  18204 06636 33/// /0501 10028 20022 39696 40286 50002 333 55300 20004 91103 91202;
0140066360999992011011821004+46983+007283FM-12+048399999V0200901N000519999999N9999999N1+00291+00221102871ADDMA1999999096971MD1510001+9999OA149900151REMSYN088AAXX  18214 06636 33/// /0901 10029 20022 39697 40287 55000 333 55300 20004 91103 91202;
0140066360999992011011822004+46983+007283FM-12+048399999V0200801N000519999999N9999999N1+00281+00221102881ADDMA1999999096981MD1210011+9999OA149900151REMSYN088AAXX  18224 06636 33/// /0801 10028 20022 39698 40288 52001 333 55300 20004 91103 91201;
0140066360999992011011823004+46983+007283FM-12+048399999V0200601N000519999999N9999999N1+00241+00201102891ADDMA1999999096981MD1210021+9999OA149900151REMSYN088AAXX  18234 06636 33/// /0601 10024 20020 39698 40289 52002 333 55300 20004 91103 91201;
0140066360999992011011900004+46983+007283FM-12+048399999V0203201N000519999999N9999999N1+00121+00091102941ADDMA1999999097001MD1210031+9999OA149900311REMSYN088AAXX  19004 06636 33/// /3201 10012 20009 39700 40294 52003 333 55300 20004 91106 91203;
