0128066310999992010010100004+46983+007467FM-12+056599999V0209999C000019999999N9999999N1+00511+00391099271ADDMA1999999092801MD1810111+9999OA149900211REMSYN076AAXX  01004 06631 33/// /0000 10051 20039 39280 49927 58011 333 91104 91203;
0128066310999992010010101004+46983+007467FM-12+056599999V0201701N001519999999N9999999N1+00521+00371099211ADDMA1999999092741MD1810131+9999OA149900211REMSYN076AAXX  01014 06631 33/// /1703 10052 20037 39274 49921 58013 333 91104 91203;
0128066310999992010010102004+46983+007467FM-12+056599999V0201701N001019999999N9999999N1+00421+00301099201ADDMA1999999092711MD1619999+9999OA149900261REMSYN076AAXX  01024 06631 33/// /1702 10042 20030 39271 49920 56/// 333 91105 91203;
0087066310999992010010103004+46983+007467FM-12+056599999V0200101N001019999999N9999999N1+00301+00241099171ADDMA1999999092661REMSYN060AAXX  01034 06631 43/// /0102 10030 20024 39266 49917 5////;
0087066310999992010010104004+46983+007467FM-12+056599999V0200601N000519999999N9999999N1+00321+00261099121ADDMA1999999092611REMSYN060AAXX  01044 06631 33/// /0601 10032 20026 39261 49912 5////;
0128066310999992010010105004+46983+007467FM-12+056599999V0200101N001019999999N9999999N1+00281+00221099111ADDMA1999999092601MD1610111+9999OA149900151REMSYN076AAXX  01054 06631 33/// /0102 10028 20022 39260 49911 56011 333 91103 91202;
0206066310999992010010106004+46983+007467FM-12+056599999V0203601N000519999999N9999999N1+00341+00271099081ADDAA124001591AL13600191GJ100189IA2999-00109KA1999N+00211MA1999999092581MD1710081+9999OA149900261REMSYN100AAXX  01064 06631 33/// /3601 10034 20027 39258 49908 57008 333 20021 3/101 55003 70016 91105 91203;
0128066310999992010010107004+46983+007467FM-12+056599999V0201601N000519999999N9999999N1+00311+00231099081ADDMA1999999092571MD1710041+9999OA149900151REMSYN076AAXX  01074 06631 33/// /1601 10031 20023 39257 49908 57004 333 91103 91202;
0128066310999992010010108004+46983+007467FM-12+056599999V0201401N001019999999N9999999N1+00211+00191099151ADDMA1999999092621MD1310021+9999OA149900151REMSYN076AAXX  01084 06631 33/// /1402 10021 20019 39262 49915 53002 333 91103 91202;
0128066310999992010010109004+46983+007467FM-12+056599999V0200101N001019999999N9999999N1+00291+00231099201ADDMA1999999092681MD1310101+9999OA149900151REMSYN076AAXX  01094 06631 33/// /0102 10029 20023 39268 49920 53010 333 91103 91202;
0128066310999992010010110004+46983+007467FM-12+056599999V0203501N000519999999N9999999N1+00321+00261099251ADDMA1999999092741MD1310171+9999OA149900151REMSYN076AAXX  01104 06631 33/// /3501 10032 20026 39274 49925 53017 333 91103 91202;
0128066310999992010010111004+46983+007467FM-12+056599999V0203301N000519999999N9999999N1+00381+00271099251ADDMA1999999092751MD1110131+9999OA149900151REMSYN076AAXX  01114 06631 33/// /3301 10038 20027 39275 49925 51013 333 91103 91202;
0128066310999992010010112004+46983+007467FM-12+056599999V0209999C000019999999N9999999N1+00451+00301099231ADDMA1999999092751MD1210071+9999OA149900261REMSYN076AAXX  01124 06631 33/// /0000 10045 20030 39275 49923 52007 333 91105 91203;
0128066310999992010010113004+46983+007467FM-12+056599999V0203501N002119999999N9999999N1+00491+00371099281ADDMA1999999092801MD1210061+9999OA149900261REMSYN076AAXX  01134 06631 33/// /3504 10049 20037 39280 49928 52006 333 91105 91204;
0128066310999992010010114004+46983+007467FM-12+056599999V0200101N001519999999N9999999N1+00461+00371099361ADDMA1999999092871MD1219999+9999OA149900311REMSYN076AAXX  01144 06631 33/// /0103 10046 20037 39287 49936 52/// 333 91106 91204;
0145066310999992010010115004+46983+007467FM-12+056599999V0200101N002119999999N9999999N1+00451+00361099501ADDAA101001091MA1999999093001MD1310251+9999OA149900311REMSYN082AAXX  01154 06631 23/// /0104 10045 20036 39300 49950 53025 333 60015 91106 91204;
0145066310999992010010116004+46983+007467FM-12+056599999V0203201N003119999999N9999999N1+00371+00191099681ADDAA101002091MA1999999093151MD1310351+9999OA149900621REMSYN082AAXX  01164 06631 23/// /3206 10037 20019 39315 49968 53035 333 60025 91112 91206;
0145066310999992010010117004+46983+007467FM-12+056599999V0202401N002619999999N9999999N1+00231+00101099921ADDAA101002091MA1999999093341MD1310471+9999OA149900621REMSYN082AAXX  01174 06631 23/// /2405 10023 20010 39334 49992 53047 333 60025 91112 91207;
0258066310999992010010118004+46983+007467FM-12+056599999V0202301N001519999999N0040001N1+00201+00081100111ADDAA112007191AL19900091AY161061AY221061GF108991999999999999999999IA1119KA1120M+00511MA1999999093511MD1210511+9999MW1631OA149900621REMSYN118AAXX  01184 06631 01/40 82303 10020 20008 39351 40011 52051 60072 76362 333 10051 32/// 60025 90766 93100 91112 91207;
0145066310999992010010119004+46983+007467FM-12+056599999V0202501N003119999999N9999999N1+00201+00081100291ADDAA101000591MA1999999093681MD1210531+9999OA149900821REMSYN082AAXX  01194 06631 23/// /2506 10020 20008 39368 40029 52053 333 69955 91116 91207;
0128066310999992010010120004+46983+007467FM-12+056599999V0202401N002119999999N9999999N1+00131-00011100441ADDMA1999999093801MD1210461+9999OA149900821REMSYN076AAXX  01204 06631 33/// /2404 10013 21001 39380 40044 52046 333 91116 91207;
0128066310999992010010121004+46983+007467FM-12+056599999V0202101N002619999999N9999999N1+00151-00071100571ADDMA1999999093931MD1210421+9999OA149900821REMSYN076AAXX  01214 06631 33/// /2105 10015 21007 39393 40057 52042 333 91116 91207;
0128066310999992010010122004+46983+007467FM-12+056599999V0202401N002619999999N9999999N1+00111-00191100661ADDMA1999999094001MD1110321+9999OA149900571REMSYN076AAXX  01224 06631 33/// /2405 10011 21019 39400 40066 51032 333 91111 91206;
0128066310999992010010123004+46983+007467FM-12+056599999V0202801N003619999999N9999999N1+00041-00361100761ADDMA1999999094081MD1110281+9999OA149900721REMSYN076AAXX  01234 06631 33/// /2807 10004 21036 39408 40076 51028 333 91114 91208;
0151066310999992010010200004+46983+007467FM-12+056599999V0202701N003119999999N9999999N1-00031-00451100901ADDAA106000591MA1999999094191MD1310261+9999OA149900881REMSYN088AAXX  02004 06631 03/// /2706 11003 21045 39419 40090 53026 69951 333 60005 91117 91208;
0128066310999992010010201004+46983+007467FM-12+056599999V0202501N002119999999N9999999N1-00071-00441101031ADDMA1999999094301MD1310301+9999OA149900881REMSYN076AAXX  02014 06631 33/// /2504 11007 21044 39430 40103 53030 333 91117 91208;
0108066310999992010010202004+46983+007467FM-12+056599999V0202601N002119999999N9999999N1-00071-00551101161ADDAA101000021MA1999999094431REMSYN070AAXX  02024 06631 23/// /2604 11007 21055 39443 40116 5//// 333 69915;
0128066310999992010010203004+46983+007467FM-12+056599999V0202801N001019999999N9999999N1-00091-00561101281ADDMA1999999094531MD1210341+9999OA149900881REMSYN076AAXX  02034 06631 33/// /2802 11009 21056 39453 40128 52034 333 91117 91208;
0128066310999992010010204004+46983+007467FM-12+056599999V0202301N003119999999N9999999N1-00111-00681101361ADDMA1999999094601MD1110301+9999OA149900571REMSYN076AAXX  02044 06631 33/// /2306 11011 21068 39460 40136 51030 333 91111 91206;
0128066310999992010010205004+46983+007467FM-12+056599999V0202801N003619999999N9999999N1-00121-00661101421ADDMA1999999094661MD1110231+9999OA149900771REMSYN076AAXX  02054 06631 33/// /2807 11012 21066 39466 40142 51023 333 91115 91207;
0229066310999992010010206004+46983+007467FM-12+056599999V0202301N002619999999N9999999N1-00181-00671101511ADDAA112000591AA224007691AL13000791GJ100009IA2999-00309KA1999N-00161MA1999999094731MD1310201+9999OA149900881REMSYN112AAXX  02064 06631 03/// /2305 11018 21067 39473 40151 53020 69962 333 21016 3/103 55000 60005 70075 91117 91208;
0128066310999992010010207004+46983+007467FM-12+056599999V0203201N002619999999N9999999N1-00201-00681101621ADDMA1999999094821MD1310221+9999OA149900621REMSYN076AAXX  02074 06631 33/// /3205 11020 21068 39482 40162 53022 333 91112 91207;
0087066310999992010010208004+46983+007467FM-12+056599999V0203201N000519999999N9999999N1-00191-00731101701ADDMA1999999094901REMSYN060AAXX  02084 06631 33/// /3201 11019 21073 39490 40170 5////;
0128066310999992010010209004+46983+007467FM-12+056599999V0203201N002619999999N9999999N1-00221-00821101841ADDMA1999999095021MD1310291+9999OA149900771REMSYN076AAXX  02094 06631 33/// /3205 11022 21082 39502 40184 53029 333 91115 91207;
0128066310999992010010210004+46983+007467FM-12+056599999V0203101N002619999999N9999999N1-00201-00951101921ADDMA1999999095101MD1210281+9999OA149900571REMSYN076AAXX  02104 06631 33/// /3105 11020 21095 39510 40192 52028 333 91111 91208;
0128066310999992010010211004+46983+007467FM-12+056599999V0203101N001519999999N9999999N1-00171-00941101961ADDMA1999999095151MD1110251+9999OA149900621REMSYN076AAXX  02114 06631 33/// /3103 11017 21094 39515 40196 51025 333 91112 91208;
0182066310999992010010212004+46983+007467FM-12+056599999V0202201N001019999999N0200001N1-00121-00901102001ADDAY171061AY221061GF107991999999999999999999MA1999999095201MD1110181+9999MW1021OA149900771REMSYN082AAXX  02124 06631 31/70 72202 11012 21090 39520 40200 51018 70272 333 91115 91208;
0128066310999992010010213004+46983+007467FM-12+056599999V0202401N001519999999N9999999N1-00121-00881102061ADDMA1999999095251MD1110151+9999OA149900361REMSYN076AAXX  02134 06631 33/// /2403 11012 21088 39525 40206 51015 333 91107 91204;
0128066310999992010010214004+46983+007467FM-12+056599999V0202501N001019999999N9999999N1-00131-00971102121ADDMA1999999095311MD1319999+9999OA149900411REMSYN076AAXX  02144 06631 33/// /2502 11013 21097 39531 40212 53/// 333 91108 91206;
0128066310999992010010215004+46983+007467FM-12+056599999V0202301N001019999999N9999999N1-00121-00901102221ADDMA1999999095401MD1310201+9999OA149900621REMSYN076AAXX  02154 06631 33/// /2302 11012 21090 39540 40222 53020 333 91112 91208;
0128066310999992010010216004+46983+007467FM-12+056599999V0202301N002119999999N9999999N1-00231-00821102301ADDMA1999999095451MD1310201+9999OA149900461REMSYN076AAXX  02164 06631 33/// /2304 11023 21082 39545 40230 53020 333 91109 91204;
0128066310999992010010217004+46983+007467FM-12+056599999V0202201N000519999999N9999999N1-00251-00841102371ADDMA1999999095511MD1110201+9999OA149900461REMSYN076AAXX  02174 06631 33/// /2201 11025 21084 39551 40237 51020 333 91109 91204;
0243066310999992010010218004+46983+007467FM-12+056599999V0201701N001012200019N0600001N1-00341-00821102451ADDAJ199992999999999AL19900091GF101991999999999999999999IA1259KA1120M-00061MA1999999095561MD1110161+9999OA149900621REMSYN100AAXX  02184 06631 32/86 11702 11034 21082 39556 40245 51016 333 11006 41998 90766 93100 91112 91208;EQDQ01  09982SNDP  
0128066310999992010010219004+46983+007467FM-12+056599999V0201801N001019999999N9999999N1-00381-00771102481ADDMA1999999095581MD1210131+9999OA149900211REMSYN076AAXX  02194 06631 33/// /1802 11038 21077 39558 40248 52013 333 91104 91203;
0128066310999992010010220004+46983+007467FM-12+056599999V0201701N002119999999N9999999N1-00471-00811102501ADDMA1999999095581MD1210071+9999OA149900311REMSYN076AAXX  02204 06631 33/// /1704 11047 21081 39558 40250 52007 333 91106 91204;
0128066310999992010010221004+46983+007467FM-12+056599999V0201801N001519999999N9999999N1-00511-00861102501ADDMA1999999095571MD1010011+9999OA149900461REMSYN076AAXX  02214 06631 33/// /1803 11051 21086 39557 40250 50001 333 91109 91204;
0128066310999992010010222004+46983+007467FM-12+056599999V0202001N000519999999N9999999N1-00621-00881102571ADDMA1999999095601MD1210021+9999OA149900261REMSYN076AAXX  02224 06631 33/// /2001 11062 21088 39560 40257 52002 333 91105 91203;
0128066310999992010010223004+46983+007467FM-12+056599999V0201801N001019999999N9999999N1-00591-00901102581ADDMA1999999095621MD1210041+9999OA149900211REMSYN076AAXX  02234 06631 33/// /1802 11059 21090 39562 40258 52004 333 91104 91203;
0128066310999992010010300004+46983+007467FM-12+056599999V0202001N001519999999N9999999N1-00641-00891102581ADDMA1999999095611MD1010041+9999OA149900461REMSYN076AAXX  03004 06631 33/// /2003 11064 21089 39561 40258 50004 333 91109 91206;
0128066310999992010010301004+46983+007467FM-12+056599999V0201901N002119999999N9999999N1-00611-01011102571ADDMA1999999095611MD1010011+9999OA149900311REMSYN076AAXX  03014 06631 33/// /1904 11061 21101 39561 40257 50001 333 91106 91204;
0087066310999992010010302004+46983+007467FM-12+056599999V0201801N002119999999N9999999N1-00591-01011102571ADDMA1999999095611REMSYN060AAXX  03024 06631 33/// /1804 11059 21101 39561 40257 5////;
0087066310999992010010303004+46983+007467FM-12+056599999V0201901N001519999999N9999999N1-00631-00931102561ADDMA1999999095591REMSYN060AAXX  03034 06631 33/// /1903 11063 21093 39559 40256 5////;
0128066310999992010010304004+46983+007467FM-12+056599999V0202001N000519999999N9999999N1-00691-00931102541ADDMA1999999095561MD1810051+9999OA149900361REMSYN076AAXX  03044 06631 33/// /2001 11069 21093 39556 40254 58005 333 91107 91205;
0128066310999992010010305004+46983+007467FM-12+056599999V0209999C000019999999N9999999N1-00701-00921102521ADDMA1999999095541MD1719999+9999OA149900211REMSYN076AAXX  03054 06631 33/// /0000 11070 21092 39554 40252 57/// 333 91104 91203;
0225066310999992010010306004+46983+007467FM-12+056599999V0202001N001519999999N9999999N1-00691-00981102461ADDAA124000091AL19900091GJ102109IA2999-01109KA1999N-00741MA1999999095481MD1710111+9999OA149900361REMSYN100AAXX  03064 06631 33/// /2003 11069 21098 39548 40246 57011 333 21074 3/111 55035 70000 91107 91205;EQDQ01  00002PRCP24
0128066310999992010010307004+46983+007467FM-12+056599999V0209999C000019999999N9999999N1-00691-00941102481ADDMA1999999095501MD1710061+9999OA149900311REMSYN076AAXX  03074 06631 33/// /0000 11069 21094 39550 40248 57006 333 91106 91204;
0128066310999992010010308004+46983+007467FM-12+056599999V0209999C000019999999N9999999N1-00701-00951102511ADDMA1999999095531MD1519999+9999OA149900261REMSYN076AAXX  03084 06631 33/// /0000 11070 21095 39553 40251 55/// 333 91105 91203;
0128066310999992010010309004+46983+007467FM-12+056599999V0201701N001019999999N9999999N1-00581-00911102511ADDMA1999999095561MD1210081+9999OA149900311REMSYN076AAXX  03094 06631 33/// /1702 11058 21091 39556 40251 52008 333 91106 91204;
0128066310999992010010310004+46983+007467FM-12+056599999V0201601N001519999999N9999999N1-00411-00891102421ADDMA1999999095521MD1010021+9999OA149900311REMSYN076AAXX  03104 06631 33/// /1603 11041 21089 39552 40242 50002 333 91106 91204;
0128066310999992010010311004+46983+007467FM-12+056599999V0201701N001519999999N9999999N1-00301-00941102311ADDMA1999999095441MD1710091+9999OA149900311REMSYN076AAXX  03114 06631 33/// /1703 11030 21094 39544 40231 57009 333 91106 91204;
0154066310999992010010312004+46983+007467FM-12+056599999V0201901N000512200019N0600001N1-00281-00971102251ADDGF101991999999999999999999MA1999999095391MD1710171+9999OA149900361REMSYN076AAXX  03124 06631 32/86 11901 11028 21097 39539 40225 57017 333 91107 91205;
0128066310999992010010313004+46983+007467FM-12+056599999V0201401N000519999999N9999999N1-00191-00891102151ADDMA1999999095321MD1710201+9999OA149900311REMSYN076AAXX  03134 06631 33/// /1401 11019 21089 39532 40215 57020 333 91106 91203;
0128066310999992010010314004+46983+007467FM-12+056599999V0202401N001019999999N9999999N1-00201-01051102171ADDMA1999999095341MD1710101+9999OA149900211REMSYN076AAXX  03144 06631 33/// /2402 11020 21105 39534 40217 57010 333 91104 91202;
0128066310999992010010315004+46983+007467FM-12+056599999V0201701N001019999999N9999999N1-00271-00891102221ADDMA1999999095371MD1510021+9999OA149900311REMSYN076AAXX  03154 06631 33/// /1702 11027 21089 39537 40222 55002 333 91106 91204;
0128066310999992010010316004+46983+007467FM-12+056599999V0201601N001519999999N9999999N1-00421-00861102221ADDMA1999999095331MD1010011+9999OA149900311REMSYN076AAXX  03164 06631 33/// /1603 11042 21086 39533 40222 50001 333 91106 91204;
0128066310999992010010317004+46983+007467FM-12+056599999V0201601N001019999999N9999999N1-00491-00841102201ADDMA1999999095291MD1710051+9999OA149900311REMSYN076AAXX  03174 06631 33/// /1602 11049 21084 39529 40220 57005 333 91106 91204;
0147066310999992010010318004+46983+007467FM-12+056599999V0201501N001019999999N9999999N1-00571-00881102251ADDKA1120M-00181MA1999999095321MD1710051+9999OA149900311REMSYN082AAXX  03184 06631 33/// /1502 11057 21088 39532 40225 57005 333 11018 91106 91204;
0128066310999992010010319004+46983+007467FM-12+056599999V0201501N001519999999N9999999N1-00641-00931102231ADDMA1999999095281MD1710051+9999OA149900211REMSYN076AAXX  03194 06631 33/// /1503 11064 21093 39528 40223 57005 333 91104 91203;
0128066310999992010010320004+46983+007467FM-12+056599999V0201601N001019999999N9999999N1-00701-00981102201ADDMA1999999095241MD1810051+9999OA149900211REMSYN076AAXX  03204 06631 33/// /1602 11070 21098 39524 40220 58005 333 91104 91203;
0128066310999992010010321004+46983+007467FM-12+056599999V0201701N001019999999N9999999N1-00711-01021102171ADDMA1999999095211MD1610111+9999OA149900311REMSYN076AAXX  03214 06631 33/// /1702 11071 21102 39521 40217 56011 333 91106 91204;
0128066310999992010010322004+46983+007467FM-12+056599999V0201901N001519999999N9999999N1-00761-01031102151ADDMA1999999095181MD1610101+9999OA149900211REMSYN076AAXX  03224 06631 33/// /1903 11076 21103 39518 40215 56010 333 91104 91203;
0128066310999992010010323004+46983+007467FM-12+056599999V0201501N000519999999N9999999N1-00821-01031102161ADDMA1999999095171MD1710071+9999OA149900211REMSYN076AAXX  03234 06631 33/// /1501 11082 21103 39517 40216 57007 333 91104 91203;
0128066310999992010010400004+46983+007467FM-12+056599999V0202601N000519999999N9999999N1-00781-01021102051ADDMA1999999095081MD1710131+9999OA149900311REMSYN076AAXX  04004 06631 33/// /2601 11078 21102 39508 40205 57013 333 91106 91204;
0128066310999992010010401004+46983+007467FM-12+056599999V0209999C000019999999N9999999N1-00911-01051102011ADDMA1999999095011MD1710171+9999OA149900151REMSYN076AAXX  04014 06631 33/// /0000 11091 21105 39501 40201 57017 333 91103 91201;
0128066310999992010010402004+46983+007467FM-12+056599999V0200201N000519999999N9999999N1-00841-01001101971ADDMA1999999094991MD1710181+9999OA149900151REMSYN076AAXX  04024 06631 33/// /0201 11084 21100 39499 40197 57018 333 91103 91202;
0128066310999992010010403004+46983+007467FM-12+056599999V0200101N001019999999N9999999N1-00741-00911101891ADDMA1999999094941MD1719999+9999OA149900211REMSYN076AAXX  04034 06631 33/// /0102 11074 21091 39494 40189 57/// 333 91104 91203;
0128066310999992010010404004+46983+007467FM-12+056599999V0200201N001019999999N9999999N1-00701-00891101831ADDMA1999999094891MD1710121+9999OA149900151REMSYN076AAXX  04044 06631 33/// /0202 11070 21089 39489 40183 57012 333 91103 91202;
0128066310999992010010405004+46983+007467FM-12+056599999V0200101N001519999999N9999999N1-00651-00841101811ADDMA1999999094891MD1710101+9999OA149900211REMSYN076AAXX  04054 06631 33/// /0103 11065 21084 39489 40181 57010 333 91104 91203;
0297066310999992010010406004+46983+007467FM-12+056599999V0209999C000019999999N0120001N1-00631-00911101821ADDAA124000091AL19900091AY121061AY221061GF108991999999999999999999GJ103309IA1149IA2999-01409KA1999N-00951MA1999999094901MD1510041+9999MW1101OA149900211REMSYN118AAXX  04064 06631 31/62 80000 11063 21091 39490 40182 55004 71022 333 21095 34114 55055 70000 90768 93100 91104 91203;EQDQ01  00002PRCP24
0128066310999992010010407004+46983+007467FM-12+056599999V0200401N001519999999N9999999N1-00561-00761101771ADDMA1999999094871MD1810021+9999OA149900211REMSYN076AAXX  04074 06631 33/// /0403 11056 21076 39487 40177 58002 333 91104 91203;
0128066310999992010010408004+46983+007467FM-12+056599999V0200101N001519999999N9999999N1-00561-00781101761ADDMA1999999094861MD1710031+9999OA149900211REMSYN076AAXX  04084 06631 33/// /0103 11056 21078 39486 40176 57003 333 91104 91203;
0128066310999992010010409004+46983+007467FM-12+056599999V0200201N001519999999N9999999N1-00521-00751101741ADDMA1999999094861MD1710041+9999OA149900311REMSYN076AAXX  04094 06631 33/// /0203 11052 21075 39486 40174 57004 333 91106 91203;
0128066310999992010010410004+46983+007467FM-12+056599999V0203501N001019999999N9999999N1-00451-00751101721ADDMA1999999094851MD1710021+9999OA149900311REMSYN076AAXX  04104 06631 33/// /3502 11045 21075 39485 40172 57002 333 91106 91203;
0128066310999992010010411004+46983+007467FM-12+056599999V0200101N001019999999N9999999N1-00401-00691101641ADDMA1999999094791MD1710071+9999OA149900261REMSYN076AAXX  04114 06631 33/// /0102 11040 21069 39479 40164 57007 333 91105 91203;
0182066310999992010010412004+46983+007467FM-12+056599999V0203601N001519999999N0100001N1-00391-00721101561ADDAY121061AY221061GF107991999999999999999999MA1999999094721MD1710141+9999MW1101OA149900311REMSYN082AAXX  04124 06631 31/60 73603 11039 21072 39472 40156 57014 71022 333 91106 91203;
0128066310999992010010413004+46983+007467FM-12+056599999V0203601N001519999999N9999999N1-00331-00681101461ADDMA1999999094641MD1610211+9999OA149900261REMSYN076AAXX  04134 06631 33/// /3603 11033 21068 39464 40146 56021 333 91105 91203;
0128066310999992010010414004+46983+007467FM-12+056599999V0200101N001019999999N9999999N1-00321-00711101421ADDMA1999999094611MD1619999+9999OA149900261REMSYN076AAXX  04144 06631 33/// /0102 11032 21071 39461 40142 56/// 333 91105 91203;
0128066310999992010010415004+46983+007467FM-12+056599999V0200201N001519999999N9999999N1-00321-00681101401ADDMA1999999094591MD1710131+9999OA149900261REMSYN076AAXX  04154 06631 33/// /0203 11032 21068 39459 40140 57013 333 91105 91203;
0128066310999992010010416004+46983+007467FM-12+056599999V0200301N001519999999N9999999N1-00331-00621101391ADDMA1999999094581MD1710061+9999OA149900311REMSYN076AAXX  04164 06631 33/// /0303 11033 21062 39458 40139 57006 333 91106 91204;
0128066310999992010010417004+46983+007467FM-12+056599999V0200301N002119999999N9999999N1-00341-00631101391ADDMA1999999094571MD1710041+9999OA149900311REMSYN076AAXX  04174 06631 33/// /0304 11034 21063 39457 40139 57004 333 91106 91204;
0252066310999992010010418004+46983+007467FM-12+056599999V0203601N001519999999N0015001N1-00341-00641101341ADDAJ100019199999999AL11200191AY171061AY221061GF108991999999999999999999IA1279KA1120M-00311MA1999999094531MD1710061+9999MW1701OA149900311REMSYN106AAXX  04184 06631 31/15 83603 11034 21064 39453 40134 57006 77072 333 11031 43001 90766 93101 91106 91204;
0128066310999992010010419004+46983+007467FM-12+056599999V0200301N002619999999N9999999N1-00371-00691101351ADDMA1999999094531MD1710051+9999OA149900411REMSYN076AAXX  04194 06631 33/// /0305 11037 21069 39453 40135 57005 333 91108 91206;
0128066310999992010010420004+46983+007467FM-12+056599999V0200201N002619999999N9999999N1-00401-00721101351ADDMA1999999094521MD1710051+9999OA149900461REMSYN076AAXX  04204 06631 33/// /0205 11040 21072 39452 40135 57005 333 91109 91206;
0128066310999992010010421004+46983+007467FM-12+056599999V0200101N002119999999N9999999N1-00411-00711101321ADDMA1999999094491MD1810041+9999OA149900461REMSYN076AAXX  04214 06631 33/// /0104 11041 21071 39449 40132 58004 333 91109 91206;
0128066310999992010010422004+46983+007467FM-12+056599999V0200301N003119999999N9999999N1-00441-00741101291ADDMA1999999094461MD1810071+9999OA149900461REMSYN076AAXX  04224 06631 33/// /0306 11044 21074 39446 40129 58007 333 91109 91207;
0128066310999992010010423004+46983+007467FM-12+056599999V0200201N003619999999N9999999N1-00471-00771101281ADDMA1999999094441MD1710081+9999OA149900621REMSYN076AAXX  04234 06631 33/// /0207 11047 21077 39444 40128 57008 333 91112 91207;
0128066310999992010010500004+46983+007467FM-12+056599999V0200101N002619999999N9999999N1-00471-00721101241ADDMA1999999094401MD1710091+9999OA149900621REMSYN076AAXX  05004 06631 33/// /0105 11047 21072 39440 40124 57009 333 91112 91207;
0128066310999992010010501004+46983+007467FM-12+056599999V0200101N002119999999N9999999N1-00491-00721101171ADDMA1999999094331MD1710131+9999OA149900571REMSYN076AAXX  05014 06631 33/// /0104 11049 21072 39433 40117 57013 333 91111 91207;
0128066310999992010010502004+46983+007467FM-12+056599999V0200101N002119999999N9999999N1-00511-00741101151ADDMA1999999094311MD1710131+9999OA149900411REMSYN076AAXX  05024 06631 33/// /0104 11051 21074 39431 40115 57013 333 91108 91205;
0128066310999992010010503004+46983+007467FM-12+056599999V0200101N002619999999N9999999N1-00491-00701101081ADDMA1999999094251MD1710151+9999OA149900621REMSYN076AAXX  05034 06631 33/// /0105 11049 21070 39425 40108 57015 333 91112 91207;
0128066310999992010010504004+46983+007467FM-12+056599999V0200201N002619999999N9999999N1-00491-00711101001ADDMA1999999094171MD1710161+9999OA149900461REMSYN076AAXX  05044 06631 33/// /0205 11049 21071 39417 40100 57016 333 91109 91205;
0128066310999992010010505004+46983+007467FM-12+056599999V0200201N002619999999N9999999N1-00491-00691100921ADDMA1999999094101MD1710211+9999OA149900461REMSYN076AAXX  05054 06631 33/// /0205 11049 21069 39410 40092 57021 333 91109 91206;
0206066310999992010010506004+46983+007467FM-12+056599999V0200201N002619999999N9999999N1-00501-00721100871ADDAA124000021AL19900091GJ100009IA2999-00509KA1999N-00511MA1999999094051MD1710201+9999OA149900621REMSYN100AAXX  05064 06631 33/// /0205 11050 21072 39405 40087 57020 333 21051 3/105 55000 70000 91112 91207;
0128066310999992010010507004+46983+007467FM-12+056599999V0200101N002119999999N9999999N1-00501-00691100841ADDMA1999999094021MD1710151+9999OA149900411REMSYN076AAXX  05074 06631 33/// /0104 11050 21069 39402 40084 57015 333 91108 91205;
0128066310999992010010508004+46983+007467FM-12+056599999V0200101N002619999999N9999999N1-00501-00701100831ADDMA1999999094011MD1710091+9999OA149900411REMSYN076AAXX  05084 06631 33/// /0105 11050 21070 39401 40083 57009 333 91108 91205;
0128066310999992010010509004+46983+007467FM-12+056599999V0200101N002119999999N9999999N1-00481-00681100781ADDMA1999999093971MD1710081+9999OA149900461REMSYN076AAXX  05094 06631 33/// /0104 11048 21068 39397 40078 57008 333 91109 91206;
0128066310999992010010510004+46983+007467FM-12+056599999V0209999C002619999999N9999999N1-00461-00661100741ADDMA1999999093941MD1710081+9999OA149900361REMSYN076AAXX  05104 06631 33/// /0005 11046 21066 39394 40074 57008 333 91107 91205;
0128066310999992010010511004+46983+007467FM-12+056599999V0200101N002619999999N9999999N1-00441-00641100671ADDMA1999999093881MD1710131+9999OA149900411REMSYN076AAXX  05114 06631 33/// /0105 11044 21064 39388 40067 57013 333 91108 91205;
0224066310999992010010512004+46983+007467FM-12+056599999V0200101N002119999999N0025001N1-00411-00621100581ADDAA106000091AY171061AY221061GF108991999999999999999999MA1999999093801MD1810171+9999MW1101OA149900461REMSYN094AAXX  05124 06631 01/25 80104 11041 21062 39380 40058 58017 69911 71072 333 69915 91109 91206;EQDQ01  00002PRCP06
0128066310999992010010513004+46983+007467FM-12+056599999V0200201N002119999999N9999999N1-00381-00611100471ADDMA1999999093711MD1810231+9999OA149900411REMSYN076AAXX  05134 06631 33/// /0204 11038 21061 39371 40047 58023 333 91108 91206;
0087066310999992010010514004+46983+007467FM-12+056599999V0200101N002619999999N9999999N1-00361-00581100431ADDMA1999999093671REMSYN060AAXX  05144 06631 33/// /0105 11036 21058 39367 40043 5////;
0128066310999992010010515004+46983+007467FM-12+056599999V0200201N002119999999N9999999N1-00341-00551100401ADDMA1999999093651MD1710151+9999OA149900411REMSYN076AAXX  05154 06631 33/// /0204 11034 21055 39365 40040 57015 333 91108 91206;
0128066310999992010010516004+46983+007467FM-12+056599999V0200201N002619999999N9999999N1-00351-00511100381ADDMA1999999093631MD1710081+9999OA149900411REMSYN076AAXX  05164 06631 33/// /0205 11035 21051 39363 40038 57008 333 91108 91205;
0145066310999992010010517004+46983+007467FM-12+056599999V0200101N002119999999N9999999N1-00351-00531100361ADDAA101000021MA1999999093611MD1710061+9999OA149900411REMSYN082AAXX  05174 06631 23/// /0104 11035 21053 39361 40036 57006 333 69915 91108 91205;
0275066310999992010010518004+46983+007467FM-12+056599999V0200201N002119999999N0015001N1-00351-00521100321ADDAA112000021AJ100049199999999AL11200391AY171061AY221061GF108991999999999999999999IA1239KA1120M-00341MA1999999093571MD1810081+9999MW1731OA149900411REMSYN118AAXX  05184 06631 01/15 80204 11035 21052 39357 40032 58008 69922 77372 333 11034 47004 60005 90766 93103 91108 91206;
0128066310999992010010519004+46983+007467FM-12+056599999V0200201N002119999999N9999999N1-00361-00521100321ADDMA1999999093571MD1710061+9999OA149900411REMSYN076AAXX  05194 06631 33/// /0204 11036 21052 39357 40032 57006 333 91108 91205;
0145066310999992010010520004+46983+007467FM-12+056599999V0209999C001519999999N9999999N1-00371-00521100291ADDAA101000021MA1999999093541MD1710071+9999OA149900411REMSYN082AAXX  05204 06631 23/// /0003 11037 21052 39354 40029 57007 333 69915 91108 91204;
0145066310999992010010521004+46983+007467FM-12+056599999V0200101N001519999999N9999999N1-00381-00531100271ADDAA101000021MA1999999093521MD1710051+9999OA149900411REMSYN082AAXX  05214 06631 23/// /0103 11038 21053 39352 40027 57005 333 69925 91108 91205;
0128066310999992010010522004+46983+007467FM-12+056599999V0200201N001019999999N9999999N1-00381-00531100241ADDMA1999999093491MD1810081+9999OA149900411REMSYN076AAXX  05224 06631 33/// /0202 11038 21053 39349 40024 58008 333 91108 91204;
0128066310999992010010523004+46983+007467FM-12+056599999V0200101N001519999999N9999999N1-00371-00521100211ADDMA1999999093471MD1710071+9999OA149900261REMSYN076AAXX  05234 06631 33/// /0103 11037 21052 39347 40021 57007 333 91105 91203;
0151066310999992010010600004+46983+007467FM-12+056599999V0200101N001519999999N9999999N1-00381-00521100201ADDAA106000391MA1999999093451MD1710071+9999OA149900411REMSYN088AAXX  06004 06631 03/// /0103 11038 21052 39345 40020 57007 69931 333 60005 91108 91205;
0145066310999992010010601004+46983+007467FM-12+056599999V0203301N000519999999N9999999N1-00381-00521100181ADDAA101000021MA1999999093441MD1710051+9999OA149900311REMSYN082AAXX  06014 06631 23/// /3301 11038 21052 39344 40018 57005 333 69915 91106 91204;
0145066310999992010010602004+46983+007467FM-12+056599999V0209999C001019999999N9999999N1-00361-00511100211ADDAA101000021MA1999999093471MD1510001+9999OA149900151REMSYN082AAXX  06024 06631 23/// /0002 11036 21051 39347 40021 55000 333 69925 91103 91202;
0145066310999992010010603004+46983+007467FM-12+056599999V0209999C000019999999N9999999N1-00371-00501100191ADDAA101000021MA1999999093451MD1510001+9999OA149900311REMSYN082AAXX  06034 06631 23/// /0000 11037 21050 39345 40019 55000 333 69915 91106 91204;
0145066310999992010010604004+46983+007467FM-12+056599999V0209999C000019999999N9999999N1-00331-00441100161ADDAA101000021MA1999999093431MD1810011+9999OA149900151REMSYN082AAXX  06044 06631 23/// /0000 11033 21044 39343 40016 58001 333 69925 91103 91202;
0128066310999992010010605004+46983+007467FM-12+056599999V0200201N000519999999N9999999N1-00331-00471100201ADDMA1999999093471MD1510001+9999OA149900211REMSYN076AAXX  06054 06631 33/// /0201 11033 21047 39347 40020 55000 333 91104 91202;
0334066310999992010010606004+46983+007467FM-12+056599999V0200201N001519999999N0030001N1-00331-00471100211ADDAA112001091AA224001091AJ100069199999999AL10600191AL29900291AY171061AY221061GF108991999999999999999999GJ100009IA1239IA2999-00409KA1999N-00391MA1999999093481MD1210031+9999MW1101OA149900411REMSYN136AAXX  06064 06631 01/30 80203 11033 21047 39348 40021 52003 69992 71072 333 21039 3/104 47006 55000 60005 70011 90768 93102 91108 91204;
0128066310999992010010607004+46983+007467FM-12+056599999V0200101N001019999999N9999999N1-00341-00471100261ADDMA1999999093521MD1210091+9999OA149900261REMSYN076AAXX  06074 06631 33/// /0102 11034 21047 39352 40026 52009 333 91105 91203;
0128066310999992010010608004+46983+007467FM-12+056599999V0203501N001019999999N9999999N1-00321-00461100301ADDMA1999999093561MD1210091+9999OA149900261REMSYN076AAXX  06084 06631 33/// /3502 11032 21046 39356 40030 52009 333 91105 91203;
0128066310999992010010609004+46983+007467FM-12+056599999V0203601N001019999999N9999999N1-00291-00431100351ADDMA1999999093621MD1110141+9999OA149900261REMSYN076AAXX  06094 06631 33/// /3602 11029 21043 39362 40035 51014 333 91105 91203;
0128066310999992010010610004+46983+007467FM-12+056599999V0200101N001019999999N9999999N1-00271-00401100381ADDMA1999999093651MD1110131+9999OA149900151REMSYN076AAXX  06104 06631 33/// /0102 11027 21040 39365 40038 51013 333 91103 91202;
0128066310999992010010611004+46983+007467FM-12+056599999V0200201N001519999999N9999999N1-00241-00391100351ADDMA1999999093631MD1019999+9999OA149900151REMSYN076AAXX  06114 06631 33/// /0203 11024 21039 39363 40035 50/// 333 91103 91203;
0182066310999992010010612004+46983+007467FM-12+056599999V0203601N001019999999N0020001N1-00211-00361100321ADDAY121061AY221061GF108991999999999999999999MA1999999093611MD1810011+9999MW1101OA149900261REMSYN082AAXX  06124 06631 31/20 83602 11021 21036 39361 40032 58001 71022 333 91105 91203;
0128066310999992010010613004+46983+007467FM-12+056599999V0200201N001019999999N9999999N1-00171-00331100311ADDMA1999999093611MD1710041+9999OA149900211REMSYN076AAXX  06134 06631 33/// /0202 11017 21033 39361 40031 57004 333 91104 91203;
0128066310999992010010614004+46983+007467FM-12+056599999V0200101N001519999999N9999999N1-00171-00331100321ADDMA1999999093621MD1519999+9999OA149900211REMSYN076AAXX  06144 06631 33/// /0103 11017 21033 39362 40032 55/// 333 91104 91203;
0128066310999992010010615004+46983+007467FM-12+056599999V0200201N001519999999N9999999N1-00171-00321100351ADDMA1999999093651MD1219999+9999OA149900261REMSYN076AAXX  06154 06631 33/// /0203 11017 21032 39365 40035 52/// 333 91105 91203;
0128066310999992010010616004+46983+007467FM-12+056599999V0200201N001519999999N9999999N1-00221-00361100421ADDMA1999999093701MD1310091+9999OA149900261REMSYN076AAXX  06164 06631 33/// /0203 11022 21036 39370 40042 53009 333 91105 91203;
0128066310999992010010617004+46983+007467FM-12+056599999V0200101N001519999999N9999999N1-00351-00461100501ADDMA1999999093741MD1310121+9999OA149900211REMSYN076AAXX  06174 06631 33/// /0103 11035 21046 39374 40050 53012 333 91104 91203;
0252066310999992010010618004+46983+007467FM-12+056599999V0209999C000512200019N0070001N1-00381-00491100581ADDAJ100069199999999AL19900091AY111061AY211061GF101991999999999999999999IA1239KA1120M-00171MA1999999093811MD1219999+9999MW1101OA149900261REMSYN106AAXX  06184 06631 31/57 10001 11038 21049 39381 40058 52/// 71011 333 11017 47006 90766 93100 91105 91203;
0128066310999992010010619004+46983+007467FM-12+056599999V0209999C000019999999N9999999N1-00561-00621100651ADDMA1999999093831MD1110131+9999OA149900151REMSYN076AAXX  06194 06631 33/// /0000 11056 21062 39383 40065 51013 333 91103 91202;
0128066310999992010010620004+46983+007467FM-12+056599999V0203501N000519999999N9999999N1-00431-00551100631ADDMA1999999093841MD1210101+9999OA149900101REMSYN076AAXX  06204 06631 33/// /3501 11043 21055 39384 40063 52010 333 91102 91202;
0128066310999992010010621004+46983+007467FM-12+056599999V0201601N000519999999N9999999N1-00351-00491100651ADDMA1999999093881MD1210071+9999OA149900211REMSYN076AAXX  06214 06631 33/// /1601 11035 21049 39388 40065 52007 333 91104 91203;
0128066310999992010010622004+46983+007467FM-12+056599999V0201701N000519999999N9999999N1-00341-00481100711ADDMA1999999093941MD1210111+9999OA149900151REMSYN076AAXX  06224 06631 33/// /1701 11034 21048 39394 40071 52011 333 91103 91201;
0145066310999992010010623004+46983+007467FM-12+056599999V0201701N001019999999N9999999N1-00251-00401100721ADDAA101000021MA1999999093971MD1110131+9999OA149900261REMSYN082AAXX  06234 06631 23/// /1702 11025 21040 39397 40072 51013 333 69925 91105 91203;
0151066310999992010010700004+46983+007467FM-12+056599999V0201601N001019999999N9999999N1-00231-00391100721ADDAA106000391MA1999999093981MD1210101+9999OA149900261REMSYN088AAXX  07004 06631 03/// /1602 11023 21039 39398 40072 52010 69931 333 69915 91105 91203;
0128066310999992010010701004+46983+007467FM-12+056599999V0201701N001019999999N9999999N1-00241-00411100731ADDMA1999999093981MD1210041+9999OA149900261REMSYN076AAXX  07014 06631 33/// /1702 11024 21041 39398 40073 52004 333 91105 91203;
0128066310999992010010702004+46983+007467FM-12+056599999V0202101N001019999999N9999999N1-00251-00421100771ADDMA1999999094021MD1219999+9999OA149900261REMSYN076AAXX  07024 06631 33/// /2102 11025 21042 39402 40077 52/// 333 91105 91203;
0128066310999992010010703004+46983+007467FM-12+056599999V0203501N000519999999N9999999N1-00351-00461100771ADDMA1999999093991MD1210011+9999OA149900261REMSYN076AAXX  07034 06631 33/// /3501 11035 21046 39399 40077 52001 333 91105 91203;
0163066310999992010010704004+46983+007467FM-12+056599999V0201701N001019999999N9999999N1-00231-00451100721ADDMA1999999093981MD1710011+9999OA149900151REMSYN076AAXX  07044 06631 33/// /1702 11023 21045 39398 40072 58000 333 91103 91202;EQDQ01+000082APCTENQ02+000002APC3  
0128066310999992010010705004+46983+007467FM-12+056599999V0201901N001519999999N9999999N1-00271-00501100751ADDMA1999999093991MD1710031+9999OA149900261REMSYN076AAXX  07054 06631 33/// /1903 11027 21050 39399 40075 57003 333 91105 91203;
0324066310999992010010706004+46983+007467FM-12+056599999V0201701N001519999999N0060001N1-00271-00561100801ADDAA112000391AA224000391AJ100069199999999AL19900091AY111061AY211061GF107991999999999999999999GJ100009IA1239IA2999-01209KA1999N-00711MA1999999094041MD1310051+9999MW1101OA149900311REMSYN136AAXX  07064 06631 01/56 71703 11027 21056 39404 40080 53005 69932 71011 333 21071 3/112 47006 55000 60005 70003 90768 93100 91106 91203;
0128066310999992010010707004+46983+007467FM-12+056599999V0201801N001519999999N9999999N1-00331-00641100861ADDMA1999999094081MD1210101+9999OA149900311REMSYN076AAXX  07074 06631 33/// /1803 11033 21064 39408 40086 52010 333 91106 91204;
0128066310999992010010708004+46983+007467FM-12+056599999V0201801N001519999999N9999999N1-00411-00701100941ADDMA1999999094141MD1319999+9999OA149900311REMSYN076AAXX  07084 06631 33/// /1803 11041 21070 39414 40094 53/// 333 91106 91204;
0128066310999992010010709004+46983+007467FM-12+056599999V0201801N001519999999N9999999N1-00281-00671100961ADDMA1999999094191MD1110151+9999OA149900311REMSYN076AAXX  07094 06631 33/// /1803 11028 21067 39419 40096 51015 333 91106 91204;
0128066310999992010010710004+46983+007467FM-12+056599999V0202001N001519999999N9999999N1-00271-00701101021ADDMA1999999094251MD1310171+9999OA149900311REMSYN076AAXX  07104 06631 33/// /2003 11027 21070 39425 40102 53017 333 91106 91204;
0128066310999992010010711004+46983+007467FM-12+056599999V0201701N001519999999N9999999N1-00201-00681101011ADDMA1999999094251MD1210111+9999OA149900261REMSYN076AAXX  07114 06631 33/// /1703 11020 21068 39425 40101 52011 333 91105 91204;
0154066310999992010010712004+46983+007467FM-12+056599999V0201601N001519999999N0250001N1-00221-00641100971ADDGF107991999999999999999999MA1999999094211MD1010021+9999OA149900311REMSYN076AAXX  07124 06631 32/75 71603 11022 21064 39421 40097 50002 333 91106 91204;
0128066310999992010010713004+46983+007467FM-12+056599999V0201601N001019999999N9999999N1-00181-00611100971ADDMA1999999094221MD1710031+9999OA149900261REMSYN076AAXX  07134 06631 33/// /1602 11018 21061 39422 40097 57003 333 91105 91203;
0087066310999992010010715004+46983+007467FM-12+056599999V0201801N001019999999N9999999N1-00171-00611101031ADDMA1999999094281REMSYN060AAXX  07154 06631 43/// /1802 11017 21061 39428 40103 5////;
0128066310999992010010716004+46983+007467FM-12+056599999V0201601N001519999999N9999999N1-00231-00591101091ADDMA1999999094321MD1210101+9999OA149900211REMSYN076AAXX  07164 06631 33/// /1603 11023 21059 39432 40109 52010 333 91104 91203;
0128066310999992010010717004+46983+007467FM-12+056599999V0201601N001019999999N9999999N1-00231-00621101111ADDMA1999999094341MD1219999+9999OA149900261REMSYN076AAXX  07174 06631 33/// /1602 11023 21062 39434 40111 52/// 333 91105 91203;
0224066310999992010010718004+46983+007467FM-12+056599999V0200101N001019999999N0200001N1-00281-00491101161ADDAJ100069199999999AL19900091GF107991999999999999999999IA1239KA1120M-00161MA1999999094371MD1219999+9999OA149900311REMSYN100AAXX  07184 06631 32/70 70102 11028 21049 39437 40116 52/// 333 11016 47006 90766 93100 91106 91204;
0128066310999992010010719004+46983+007467FM-12+056599999V0209999C000019999999N9999999N1-00301-00461101171ADDMA1999999094381MD1210061+9999OA149900151REMSYN076AAXX  07194 06631 33/// /0000 11030 21046 39438 40117 52006 333 91103 91202;
0128066310999992010010720004+46983+007467FM-12+056599999V0209999C000019999999N9999999N1-00341-00471101181ADDMA1999999094381MD1210041+9999OA149900151REMSYN076AAXX  07204 06631 33/// /0000 11034 21047 39438 40118 52004 333 91103 91201;
0128066310999992010010721004+46983+007467FM-12+056599999V0209999C001519999999N9999999N1-00371-00511101181ADDMA1999999094371MD1410001+9999OA149900261REMSYN076AAXX  07214 06631 33/// /0003 11037 21051 39437 40118 54000 333 91105 91203;
0128066310999992010010722004+46983+007467FM-12+056599999V0200201N001519999999N9999999N1-00321-00481101141ADDMA1999999094351MD1710031+9999OA149900211REMSYN076AAXX  07224 06631 33/// /0203 11032 21048 39435 40114 57003 333 91104 91203;
0128066310999992010010723004+46983+007467FM-12+056599999V0203501N001019999999N9999999N1-00321-00491101141ADDMA1999999094351MD1710031+9999OA149900211REMSYN076AAXX  07234 06631 33/// /3502 11032 21049 39435 40114 57003 333 91104 91203;
0128066310999992010010800004+46983+007467FM-12+056599999V0200301N000519999999N9999999N1-00321-00491101101ADDMA1999999094311MD1710061+9999OA149900261REMSYN076AAXX  08004 06631 33/// /0301 11032 21049 39431 40110 57006 333 91105 91203;
0128066310999992010010801004+46983+007467FM-12+056599999V0200201N001519999999N9999999N1-00291-00481101071ADDMA1999999094291MD1710061+9999OA149900211REMSYN076AAXX  08014 06631 33/// /0203 11029 21048 39429 40107 57006 333 91104 91203;
0128066310999992010010802004+46983+007467FM-12+056599999V0200201N001019999999N9999999N1-00301-00441101061ADDMA1999999094281MD1719999+9999OA149900211REMSYN076AAXX  08024 06631 33/// /0202 11030 21044 39428 40106 57/// 333 91104 91203;
0145066310999992010010803004+46983+007467FM-12+056599999V0200301N001019999999N9999999N1-00291-00411101031ADDAA101000021MA1999999094251MD1719999+9999OA149900211REMSYN082AAXX  08034 06631 23/// /0302 11029 21041 39425 40103 57/// 333 69915 91104 91203;
0145066310999992010010804004+46983+007467FM-12+056599999V0200401N001019999999N9999999N1-00251-00391100951ADDAA101000391MA1999999094191MD1710101+9999OA149900311REMSYN082AAXX  08044 06631 23/// /0402 11025 21039 39419 40095 57010 333 69935 91106 91203;
0145066310999992010010805004+46983+007467FM-12+056599999V0200301N002619999999N9999999N1-00231-00371100861ADDAA101000021MA1999999094111MD1810171+9999OA149900411REMSYN082AAXX  08054 06631 23/// /0305 11023 21037 39411 40086 58017 333 69925 91108 91205;
0334066310999992010010806004+46983+007467FM-12+056599999V0200201N003619999999N0015001N1-00241-00381100831ADDAA112001091AA224001091AJ100079199999999AL14800091AL29900191AY171061AY221061GF108991999999999999999999GJ102169IA1239IA2999-00709KA1999N-00371MA1999999094081MD1610171+9999MW1711OA149900621REMSYN136AAXX  08064 06631 01/15 80207 11024 21038 39408 40083 56017 69992 77172 333 21037 3/107 47007 55036 69935 70009 90768 93101 91112 91207;
0145066310999992010010807004+46983+007467FM-12+056599999V0200301N002119999999N9999999N1-00241-00381100801ADDAA101000591MA1999999094051MD1610141+9999OA149900621REMSYN082AAXX  08074 06631 23/// /0304 11024 21038 39405 40080 56014 333 69965 91112 91207;
0145066310999992010010808004+46983+007467FM-12+056599999V0200401N001519999999N9999999N1-00251-00391100751ADDAA101000021MA1999999094001MD1710111+9999OA149900571REMSYN082AAXX  08084 06631 23/// /0403 11025 21039 39400 40075 57011 333 69925 91111 91206;
0145066310999992010010809004+46983+007467FM-12+056599999V0200401N002119999999N9999999N1-00231-00401100711ADDAA101000021MA1999999093971MD1710111+9999OA149900621REMSYN082AAXX  08094 06631 23/// /0404 11023 21040 39397 40071 57011 333 69915 91112 91207;
0128066310999992010010810004+46983+007467FM-12+056599999V0200501N004119999999N9999999N1-00231-00441100671ADDMA1999999093931MD1710121+9999OA149900771REMSYN076AAXX  08104 06631 33/// /0508 11023 21044 39393 40067 57012 333 91115 91208;
0128066310999992010010811004+46983+007467FM-12+056599999V0200501N004119999999N9999999N1-00271-00491100611ADDMA1999999093861MD1710141+9999OA149900821REMSYN076AAXX  08114 06631 33/// /0508 11027 21049 39386 40061 57014 333 91116 91208;
0151066310999992010010812004+46983+007467FM-12+056599999V0200501N002619999999N9999999N1-00271-00521100551ADDAA106001091MA1999999093811MD1710161+9999OA149900821REMSYN088AAXX  08124 06631 03/// /0505 11027 21052 39381 40055 57016 69991 333 60005 91116 91208;
0128066310999992010010813004+46983+007467FM-12+056599999V0200601N002619999999N9999999N1-00281-00521100491ADDMA1999999093751MD1710181+9999OA149900881REMSYN076AAXX  08134 06631 33/// /0605 11028 21052 39375 40049 57018 333 91117 91207;
0128066310999992010010814004+46983+007467FM-12+056599999V0200501N003119999999N9999999N1-00261-00511100461ADDMA1999999093731MD1619999+9999OA149900881REMSYN076AAXX  08144 06631 33/// /0506 11026 21051 39373 40046 56/// 333 91117 91207;
0128066310999992010010815004+46983+007467FM-12+056599999V0200501N002119999999N9999999N1-00261-00491100521ADDMA1999999093781MD1510031+9999OA149900881REMSYN076AAXX  08154 06631 33/// /0504 11026 21049 39378 40052 55003 333 91117 91208;
0128066310999992010010816004+46983+007467FM-12+056599999V0200501N002119999999N9999999N1-00261-00471100571ADDMA1999999093831MD1210081+9999OA149900721REMSYN076AAXX  08164 06631 33/// /0504 11026 21047 39383 40057 52008 333 91114 91207;
0128066310999992010010817004+46983+007467FM-12+056599999V0200501N003119999999N9999999N1-00251-00471100571ADDMA1999999093831MD1219999+9999OA149900821REMSYN076AAXX  08174 06631 33/// /0506 11025 21047 39383 40057 52/// 333 91116 91208;
0170066310999992010010818004+46983+007467FM-12+056599999V0200501N004619999999N9999999N1-00261-00451100551ADDAA112001091KA1120M-00221MA1999999093811MD1010031+9999OA149900881REMSYN094AAXX  08184 06631 03/// /0509 11026 21045 39381 40055 50003 69992 333 11022 60005 91117 91209;
0128066310999992010010819004+46983+007467FM-12+056599999V0200401N004619999999N9999999N1-00271-00451100541ADDMA1999999093801MD1710031+9999OA149900881REMSYN076AAXX  08194 06631 33/// /0409 11027 21045 39380 40054 57003 333 91117 91209;
0145066310999992010010820004+46983+007467FM-12+056599999V0200401N005119999999N9999999N1-00311-00481100561ADDAA101000591MA1999999093811MD1510021+9999OA149900981REMSYN082AAXX  08204 06631 23/// /0410 11031 21048 39381 40056 55002 333 69945 91119 91211;
0128066310999992010010821004+46983+007467FM-12+056599999V0200301N005119999999N9999999N1-00331-00521100591ADDMA1999999093831MD1210021+9999OA149900981REMSYN076AAXX  08214 06631 33/// /0310 11033 21052 39383 40059 52002 333 91119 91211;
0145066310999992010010822004+46983+007467FM-12+056599999V0200301N003619999999N9999999N1-00361-00551100631ADDAA101000021MA1999999093861MD1210061+9999OA149900881REMSYN082AAXX  08224 06631 23/// /0307 11036 21055 39386 40063 52006 333 69925 91117 91210;
0145066310999992010010823004+46983+007467FM-12+056599999V0200301N005119999999N9999999N1-00391-00591100661ADDAA101000021MA1999999093881MD1210071+9999OA149900881REMSYN082AAXX  08234 06631 23/// /0310 11039 21059 39388 40066 52007 333 69915 91117 91210;
0151066310999992010010900004+46983+007467FM-12+056599999V0200301N005719999999N9999999N1-00401-00601100621ADDAA106000891MA1999999093841MD1010011+9999OA149900981REMSYN088AAXX  09004 06631 03/// /0311 11040 21060 39384 40062 50001 69981 333 69915 91119 91211;
0128066310999992010010901004+46983+007467FM-12+056599999V0200301N006219999999N9999999N1-00421-00631100621ADDMA1999999093841MD1810021+9999OA149900981REMSYN076AAXX  09014 06631 33/// /0312 11042 21063 39384 40062 58002 333 91119 91212;
0128066310999992010010902004+46983+007467FM-12+056599999V0200301N005719999999N9999999N1-00431-00661100651ADDMA1999999093861MD1519999+9999OA149900981REMSYN076AAXX  09024 06631 33/// /0311 11043 21066 39386 40065 55/// 333 91119 91213;
0128066310999992010010903004+46983+007467FM-12+056599999V0200301N005119999999N9999999N1-00461-00701100681ADDMA1999999093881MD1219999+9999OA149900981REMSYN076AAXX  09034 06631 33/// /0310 11046 21070 39388 40068 52/// 333 91119 91213;
0147066310999992010010904004+46983+007467FM-12+056599999V0200401N004119999999N9999999N1-00481-00711100641ADDMA1999999093841MD1810021+9999OA149900931REMSYN076AAXX  09044 06631 33/// /0408 11048 21071 39384 40064 58000 333 91118 91211;EQDQ01+000002APC3  
0128066310999992010010905004+46983+007467FM-12+056599999V0200301N005119999999N9999999N1-00481-00691100581ADDMA1999999093781MD1710081+9999OA149900931REMSYN076AAXX  09054 06631 33/// /0310 11048 21069 39378 40058 57008 333 91118 91211;
0229066310999992010010906004+46983+007467FM-12+056599999V0200301N005719999999N9999999N1-00491-00701100521ADDAA112000891AA224001891AL14200191GJ100009IA2999-00409KA1999N-00491MA1999999093731MD1810151+9999OA149900981REMSYN112AAXX  09064 06631 03/// /0311 11049 21070 39373 40052 58015 69982 333 21049 3/104 55000 60005 70017 91119 91213;
0128066310999992010010907004+46983+007467FM-12+056599999V0200301N005119999999N9999999N1-00491-00691100561ADDMA1999999093761MD1710081+9999OA149900931REMSYN076AAXX  09074 06631 33/// /0310 11049 21069 39376 40056 57008 333 91118 91211;
0128066310999992010010908004+46983+007467FM-12+056599999V0200401N002119999999N9999999N1-00521-00711100611ADDMA1999999093801MD1310021+9999OA149900771REMSYN076AAXX  09084 06631 33/// /0404 11052 21071 39380 40061 53002 333 91115 91210;
0128066310999992010010909004+46983+007467FM-12+056599999V0200501N003619999999N9999999N1-00511-00721100631ADDMA1999999093821MD1210091+9999OA149900931REMSYN076AAXX  09094 06631 33/// /0507 11051 21072 39382 40063 52009 333 91118 91211;
0128066310999992010010910004+46983+007467FM-12+056599999V0200401N003119999999N9999999N1-00521-00721100641ADDMA1999999093831MD1210071+9999OA149900771REMSYN076AAXX  09104 06631 33/// /0406 11052 21072 39383 40064 52007 333 91115 91208;
0128066310999992010010911004+46983+007467FM-12+056599999V0200301N003119999999N9999999N1-00511-00711100591ADDMA1999999093791MD1010011+9999OA149900771REMSYN076AAXX  09114 06631 33/// /0306 11051 21071 39379 40059 50001 333 91115 91208;
0128066310999992010010912004+46983+007467FM-12+056599999V0200501N002619999999N9999999N1-00501-00691100571ADDMA1999999093771MD1710051+9999OA149900981REMSYN076AAXX  09124 06631 33/// /0505 11050 21069 39377 40057 57005 333 91119 91213;
0128066310999992010010913004+46983+007467FM-12+056599999V0200301N004119999999N9999999N1-00491-00681100551ADDMA1999999093751MD1710081+9999OA149900721REMSYN076AAXX  09134 06631 33/// /0308 11049 21068 39375 40055 57008 333 91114 91209;
0128066310999992010010914004+46983+007467FM-12+056599999V0200301N004119999999N9999999N1-00491-00681100561ADDMA1999999093761MD1510031+9999OA149900721REMSYN076AAXX  09144 06631 33/// /0308 11049 21068 39376 40056 55003 333 91114 91209;
0128066310999992010010915004+46983+007467FM-12+056599999V0200201N005119999999N9999999N1-00471-00691100551ADDMA1999999093761MD1510011+9999OA149900881REMSYN076AAXX  09154 06631 33/// /0210 11047 21069 39376 40055 55001 333 91117 91210;
0128066310999992010010916004+46983+007467FM-12+056599999V0200301N005119999999N9999999N1-00501-00691100571ADDMA1999999093771MD1210021+9999OA149900931REMSYN076AAXX  09164 06631 33/// /0310 11050 21069 39377 40057 52002 333 91118 91210;
0128066310999992010010917004+46983+007467FM-12+056599999V0200301N005719999999N9999999N1-00491-00691100591ADDMA1999999093791MD1210031+9999OA149900981REMSYN076AAXX  09174 06631 33/// /0311 11049 21069 39379 40059 52003 333 91119 91213;
0294066310999992010010918004+46983+007467FM-12+056599999V0200101N001019999999N0035001N1-00521-00671100631ADDAA112000091AJ100079199999999AL19900091AY121061AY221061GF108991999999999999999999IA1239KA1120M-00471MA1999999093821MD1210061+9999MW1101OA149900981REMSYN118AAXX  09184 06631 01/35 80102 11052 21067 39382 40063 52006 69922 71022 333 11047 47007 69925 90766 93100 91119 91213;EQDQ01  00002PRCP12
0145066310999992010010919004+46983+007467FM-12+056599999V0200201N002119999999N9999999N1-00511-00671100691ADDAA101000021MA1999999093881MD1310111+9999OA149900721REMSYN082AAXX  09194 06631 23/// /0204 11051 21067 39388 40069 53011 333 69915 91114 91207;
0128066310999992010010920004+46983+007467FM-12+056599999V0203501N003119999999N9999999N1-00511-00681100731ADDMA1999999093921MD1210131+9999OA149900461REMSYN076AAXX  09204 06631 33/// /3506 11051 21068 39392 40073 52013 333 91109 91206;
0128066310999992010010921004+46983+007467FM-12+056599999V0209999C003119999999N9999999N1-00521-00691100781ADDMA1999999093961MD1210141+9999OA149900981REMSYN076AAXX  09214 06631 33/// /0006 11052 21069 39396 40078 52014 333 91119 91213;
0128066310999992010010922004+46983+007467FM-12+056599999V0200301N003119999999N9999999N1-00521-00701100791ADDMA1999999093971MD1210091+9999OA149900571REMSYN076AAXX  09224 06631 33/// /0306 11052 21070 39397 40079 52009 333 91111 91208;
0145066310999992010010923004+46983+007467FM-12+056599999V0200201N002119999999N9999999N1-00531-00701100841ADDAA101000021MA1999999094011MD1210091+9999OA149900511REMSYN082AAXX  09234 06631 23/// /0204 11053 21070 39401 40084 52009 333 69915 91110 91206;
0170066310999992010011000004+46983+007467FM-12+056599999V0200101N002119999999N9999999N1-00531-00691100871ADDAA106000091MA1999999094041MD1310081+9999OA149900981REMSYN088AAXX  10004 06631 03/// /0104 11053 21069 39404 40087 53008 69921 333 60005 91119 91213;EQDQ01  00002PRCP06
0145066310999992010011001004+46983+007467FM-12+056599999V0200201N002119999999N9999999N1-00541-00691100911ADDAA101000021MA1999999094081MD1110111+9999OA149900461REMSYN082AAXX  10014 06631 23/// /0204 11054 21069 39408 40091 51011 333 69915 91109 91206;
0087066310999992010011002004+46983+007467FM-12+056599999V0200101N001519999999N9999999N1-00541-00701100981ADDMA1999999094141REMSYN060AAXX  10024 06631 33/// /0103 11054 21070 39414 40098 5////;
0087066310999992010011003004+46983+007467FM-12+056599999V0200201N001519999999N9999999N1-00561-00701101041ADDMA1999999094191REMSYN060AAXX  10034 06631 43/// /0203 11056 21070 39419 40104 5////;
0128066310999992010011004004+46983+007467FM-12+056599999V0200101N001019999999N9999999N1-00671-00781101111ADDMA1999999094231MD1110151+9999OA149900311REMSYN076AAXX  10044 06631 33/// /0102 11067 21078 39423 40111 51015 333 91106 91204;
0128066310999992010011005004+46983+007467FM-12+056599999V0209999C000019999999N9999999N1-00771-00871101191ADDMA1999999094281MD1110141+9999OA149900261REMSYN076AAXX  10054 06631 33/// /0000 11077 21087 39428 40119 51014 333 91105 91203;
0229066310999992010011006004+46983+007467FM-12+056599999V0209999C000019999999N9999999N1-00801-00901101211ADDAA112000591AA224000591AL13600091GJ100009IA2999-01009KA1999N-00901MA1999999094311MD1110121+9999OA149900571REMSYN112AAXX  10064 06631 03/// /0000 11080 21090 39431 40121 51012 69942 333 21090 3/110 55000 60005 70006 91111 91208;
0128066310999992010011007004+46983+007467FM-12+056599999V0200301N000519999999N9999999N1-01031-01131101401ADDMA1999999094411MD1310181+9999OA149900101REMSYN076AAXX  10074 06631 33/// /0301 11103 21113 39441 40140 53018 333 91102 91201;
0128066310999992010011008004+46983+007467FM-12+056599999V0201501N000519999999N9999999N1-00931-01031101451ADDMA1999999094481MD1219999+9999OA149900101REMSYN076AAXX  10084 06631 33/// /1501 11093 21103 39448 40145 52/// 333 91102 91201;
0128066310999992010011009004+46983+007467FM-12+056599999V0202201N000519999999N9999999N1-00841-01021101511ADDMA1999999094561MD1210251+9999OA149900261REMSYN076AAXX  10094 06631 33/// /2201 11084 21102 39456 40151 52025 333 91105 91203;
0128066310999992010011010004+46983+007467FM-12+056599999V0202001N000519999999N9999999N1-00681-00861101521ADDMA1999999094611MD1110201+9999OA149900101REMSYN076AAXX  10104 06631 33/// /2001 11068 21086 39461 40152 51020 333 91102 91201;
0128066310999992010011011004+46983+007467FM-12+056599999V0201501N001019999999N9999999N1-00531-00831101511ADDMA1999999094641MD1110161+9999OA149900211REMSYN076AAXX  10114 06631 33/// /1502 11053 21083 39464 40151 51016 333 91104 91203;
0128066310999992010011012004+46983+007467FM-12+056599999V0201601N000519999999N9999999N1-00431-00781101511ADDMA1999999094661MD1110101+9999OA149900461REMSYN076AAXX  10124 06631 33/// /1601 11043 21078 39466 40151 51010 333 91109 91206;
0128066310999992010011013004+46983+007467FM-12+056599999V0200201N001019999999N9999999N1-00401-00771101521ADDMA1999999094681MD1110071+9999OA149900151REMSYN076AAXX  10134 06631 33/// /0202 11040 21077 39468 40152 51007 333 91103 91202;
0128066310999992010011014004+46983+007467FM-12+056599999V0203601N001519999999N9999999N1-00391-00811101551ADDMA1999999094711MD1319999+9999OA149900261REMSYN076AAXX  10144 06631 33/// /3603 11039 21081 39471 40155 53/// 333 91105 91203;
0128066310999992010011015004+46983+007467FM-12+056599999V0200801N001019999999N9999999N1-00391-00801101601ADDMA1999999094761MD1310101+9999OA149900311REMSYN076AAXX  10154 06631 33/// /0802 11039 21080 39476 40160 53010 333 91106 91204;
0128066310999992010011016004+46983+007467FM-12+056599999V0200601N001019999999N9999999N1-00461-00761101651ADDMA1999999094791MD1110111+9999OA149900311REMSYN076AAXX  10164 06631 33/// /0602 11046 21076 39479 40165 51011 333 91106 91204;
0128066310999992010011017004+46983+007467FM-12+056599999V0200701N001019999999N9999999N1-00501-00831101711ADDMA1999999094831MD1310121+9999OA149900151REMSYN076AAXX  10174 06631 33/// /0702 11050 21083 39483 40171 53012 333 91103 91202;
0147066310999992010011018004+46983+007467FM-12+056599999V0203501N001019999999N9999999N1-00511-00711101731ADDKA1120M-00341MA1999999094851MD1110091+9999OA149900311REMSYN082AAXX  10184 06631 33/// /3502 11051 21071 39485 40173 51009 333 11034 91106 91204;
0128066310999992010011019004+46983+007467FM-12+056599999V0203501N001019999999N9999999N1-00531-00721101761ADDMA1999999094871MD1110081+9999OA149900151REMSYN076AAXX  10194 06631 33/// /3502 11053 21072 39487 40176 51008 333 91103 91202;
0128066310999992010011020004+46983+007467FM-12+056599999V0200401N001519999999N9999999N1-00501-00711101761ADDMA1999999094881MD1210051+9999OA149900151REMSYN076AAXX  10204 06631 33/// /0403 11050 21071 39488 40176 52005 333 91103 91203;
0128066310999992010011021004+46983+007467FM-12+056599999V0209999C001519999999N9999999N1-00541-00711101761ADDMA1999999094871MD1010021+9999OA149900311REMSYN076AAXX  10214 06631 33/// /0003 11054 21071 39487 40176 50002 333 91106 91204;
0128066310999992010011022004+46983+007467FM-12+056599999V0200101N001519999999N9999999N1-00581-00731101761ADDMA1999999094861MD1710011+9999OA149900311REMSYN076AAXX  10224 06631 33/// /0103 11058 21073 39486 40176 57001 333 91106 91204;
0128066310999992010011023004+46983+007467FM-12+056599999V0203501N001019999999N9999999N1-00621-00761101801ADDMA1999999094891MD1310011+9999OA149900311REMSYN076AAXX  10234 06631 33/// /3502 11062 21076 39489 40180 53001 333 91106 91205;
0128066310999992010011100004+46983+007467FM-12+056599999V0200101N001519999999N9999999N1-00611-00781101821ADDMA1999999094911MD1210041+9999OA149900361REMSYN076AAXX  11004 06631 33/// /0103 11061 21078 39491 40182 52004 333 91107 91205;
0128066310999992010011101004+46983+007467FM-12+056599999V0209999C001019999999N9999999N1-00601-00761101841ADDMA1999999094931MD1210071+9999OA149900361REMSYN076AAXX  11014 06631 33/// /0002 11060 21076 39493 40184 52007 333 91107 91205;
0128066310999992010011102004+46983+007467FM-12+056599999V0200601N000519999999N9999999N1-00691-00811101871ADDMA1999999094931MD1219999+9999OA149900261REMSYN076AAXX  11024 06631 33/// /0601 11069 21081 39493 40187 52/// 333 91105 91203;
0128066310999992010011103004+46983+007467FM-12+056599999V0209999C000019999999N9999999N1-00771-00911101881ADDMA1999999094921MD1019999+9999OA149900361REMSYN076AAXX  11034 06631 33/// /0000 11077 21091 39492 40188 50/// 333 91107 91205;
0128066310999992010011104004+46983+007467FM-12+056599999V0200201N000519999999N9999999N1-00691-00831101841ADDMA1999999094911MD1710021+9999OA149900151REMSYN076AAXX  11044 06631 33/// /0201 11069 21083 39491 40184 57002 333 91103 91202;
0128066310999992010011105004+46983+007467FM-12+056599999V0200201N000519999999N9999999N1-00671-00821101831ADDMA1999999094901MD1710031+9999OA149900151REMSYN076AAXX  11054 06631 33/// /0201 11067 21082 39490 40183 57003 333 91103 91202;
0320066310999992010011106004+46983+007467FM-12+056599999V0200901N001519999999N0050001N1-00471-00811101751ADDAA124000091AJ100079199999999AL19900091AY121061AY221061GF108991999999999999999999GJ101209IA1239IA2999-00909KA1999N-00791MA1999999094881MD1710041+9999MW1101OA149900361REMSYN124AAXX  11064 06631 31/50 80903 11047 21081 39488 40175 57004 71022 333 21079 3/109 47007 55020 70000 90768 93100 91107 91205;EQDQ01  00002PRCP24
0128066310999992010011107004+46983+007467FM-12+056599999V0200401N000519999999N9999999N1-00521-00821101761ADDMA1999999094871MD1710041+9999OA149900211REMSYN076AAXX  11074 06631 33/// /0401 11052 21082 39487 40176 57004 333 91104 91203;
0128066310999992010011108004+46983+007467FM-12+056599999V0200101N001519999999N9999999N1-00571-00741101801ADDMA1999999094901MD1519999+9999OA149900211REMSYN076AAXX  11084 06631 33/// /0103 11057 21074 39490 40180 55/// 333 91104 91203;
0128066310999992010011109004+46983+007467FM-12+056599999V0209999C001519999999N9999999N1-00531-00741101831ADDMA1999999094941MD1210061+9999OA149900211REMSYN076AAXX  11094 06631 33/// /0003 11053 21074 39494 40183 52006 333 91104 91203;
0128066310999992010011110004+46983+007467FM-12+056599999V0200101N001019999999N9999999N1-00471-00761101851ADDMA1999999094971MD1319999+9999OA149900211REMSYN076AAXX  11104 06631 33/// /0102 11047 21076 39497 40185 53/// 333 91104 91203;
0128066310999992010011111004+46983+007467FM-12+056599999V0209999C000019999999N9999999N1-00421-00801101851ADDMA1999999094981MD1210081+9999OA149900261REMSYN076AAXX  11114 06631 33/// /0000 11042 21080 39498 40185 52008 333 91105 91203;
0128066310999992010011112004+46983+007467FM-12+056599999V0209999C000019999999N9999999N1-00381-00771101771ADDMA1999999094921MD1810021+9999OA149900261REMSYN076AAXX  11124 06631 33/// /0000 11038 21077 39492 40177 58002 333 91105 91203;
0128066310999992010011113004+46983+007467FM-12+056599999V0202401N002119999999N9999999N1-00311-00681101731ADDMA1999999094901MD1710071+9999OA149900361REMSYN076AAXX  11134 06631 33/// /2404 11031 21068 39490 40173 57007 333 91107 91204;
0087066310999992010011114004+46983+007467FM-12+056599999V0202901N002119999999N9999999N1-00301-00661101751ADDMA1999999094921REMSYN060AAXX  11144 06631 33/// /2904 11030 21066 39492 40175 5////;
0128066310999992010011115004+46983+007467FM-12+056599999V0202601N002119999999N9999999N1-00311-00681101781ADDMA1999999094951MD1310031+9999OA149900411REMSYN076AAXX  11154 06631 33/// /2604 11031 21068 39495 40178 53003 333 91108 91205;
0128066310999992010011116004+46983+007467FM-12+056599999V0202601N000519999999N9999999N1-00351-00661101821ADDMA1999999094971MD1310071+9999OA149900361REMSYN076AAXX  11164 06631 33/// /2601 11035 21066 39497 40182 53007 333 91107 91204;
0128066310999992010011117004+46983+007467FM-12+056599999V0209999C000019999999N9999999N1-00381-00631101861ADDMA1999999095001MD1310081+9999OA149900261REMSYN076AAXX  11174 06631 33/// /0000 11038 21063 39500 40186 53008 333 91105 91203;
0147066310999992010011118004+46983+007467FM-12+056599999V0201701N001019999999N9999999N1-00321-00671101861ADDKA1120M-00301MA1999999095021MD1310071+9999OA149900411REMSYN082AAXX  11184 06631 33/// /1702 11032 21067 39502 40186 53007 333 11030 91108 91205;
0128066310999992010011119004+46983+007467FM-12+056599999V0201401N000519999999N9999999N1-00391-00601101911ADDMA1999999095051MD1310081+9999OA149900211REMSYN076AAXX  11194 06631 33/// /1401 11039 21060 39505 40191 53008 333 91104 91202;
0128066310999992010011120004+46983+007467FM-12+056599999V0209999C000019999999N9999999N1-00421-00591101941ADDMA1999999095071MD1110071+9999OA149900151REMSYN076AAXX  11204 06631 33/// /0000 11042 21059 39507 40194 51007 333 91103 91202;
0128066310999992010011121004+46983+007467FM-12+056599999V0200401N000519999999N9999999N1-00391-00581101951ADDMA1999999095081MD1210061+9999OA149900261REMSYN076AAXX  11214 06631 33/// /0401 11039 21058 39508 40195 52006 333 91105 91203;
0128066310999992010011122004+46983+007467FM-12+056599999V0200201N001019999999N9999999N1-00401-00561101971ADDMA1999999095101MD1210051+9999OA149900151REMSYN076AAXX  11224 06631 33/// /0202 11040 21056 39510 40197 52005 333 91103 91202;
0128066310999992010011123004+46983+007467FM-12+056599999V0202301N000519999999N9999999N1-00381-00571101991ADDMA1999999095121MD1210051+9999OA149900151REMSYN076AAXX  11234 06631 33/// /2301 11038 21057 39512 40199 52005 333 91103 91202;
0128066310999992010011200004+46983+007467FM-12+056599999V0202401N001019999999N9999999N1-00371-00581101971ADDMA1999999095111MD1210031+9999OA149900411REMSYN076AAXX  12004 06631 33/// /2402 11037 21058 39511 40197 52003 333 91108 91205;
0128066310999992010011201004+46983+007467FM-12+056599999V0202201N000519999999N9999999N1-00391-00591101971ADDMA1999999095101MD1010001+9999OA149900211REMSYN076AAXX  12014 06631 33/// /2201 11039 21059 39510 40197 50000 333 91104 91203;
0128066310999992010011202004+46983+007467FM-12+056599999V0202201N000519999999N9999999N1-00401-00611101961ADDMA1999999095091MD1719999+9999OA149900211REMSYN076AAXX  12024 06631 33/// /2201 11040 21061 39509 40196 57/// 333 91104 91203;
0128066310999992010011203004+46983+007467FM-12+056599999V0209999C000019999999N9999999N1-00421-00591101941ADDMA1999999095071MD1710041+9999OA149900211REMSYN076AAXX  12034 06631 33/// /0000 11042 21059 39507 40194 57004 333 91104 91203;
0128066310999992010011204004+46983+007467FM-12+056599999V0202601N000519999999N9999999N1-00451-00591101931ADDMA1999999095051MD1710051+9999OA149900101REMSYN076AAXX  12044 06631 33/// /2601 11045 21059 39505 40193 57005 333 91102 91201;
0128066310999992010011205004+46983+007467FM-12+056599999V0200301N000519999999N9999999N1-00401-00561101891ADDMA1999999095031MD1710061+9999OA149900101REMSYN076AAXX  12054 06631 33/// /0301 11040 21056 39503 40189 57006 333 91102 91201;
0225066310999992010011206004+46983+007467FM-12+056599999V0200101N001019999999N9999999N1-00381-00541101871ADDAA124000091AL19900091GJ100009IA2999-00509KA1999N-00491MA1999999095011MD1710061+9999OA149900211REMSYN100AAXX  12064 06631 33/// /0102 11038 21054 39501 40187 57006 333 21049 3/105 55000 70000 91104 91203;EQDQ01  00002PRCP24
0128066310999992010011207004+46983+007467FM-12+056599999V0200301N000519999999N9999999N1-00371-00531101801ADDMA1999999094951MD1710101+9999OA149900101REMSYN076AAXX  12074 06631 33/// /0301 11037 21053 39495 40180 57010 333 91102 91202;
0128066310999992010011208004+46983+007467FM-12+056599999V0200401N001019999999N9999999N1-00341-00511101731ADDMA1999999094891MD1719999+9999OA149900151REMSYN076AAXX  12084 06631 33/// /0402 11034 21051 39489 40173 57/// 333 91103 91202;
0128066310999992010011209004+46983+007467FM-12+056599999V0200101N001019999999N9999999N1-00331-00501101671ADDMA1999999094841MD1810171+9999OA149900151REMSYN076AAXX  12094 06631 33/// /0102 11033 21050 39484 40167 58017 333 91103 91202;
0128066310999992010011210004+46983+007467FM-12+056599999V0200101N001019999999N9999999N1-00311-00481101611ADDMA1999999094791MD1810161+9999OA149900151REMSYN076AAXX  12104 06631 33/// /0102 11031 21048 39479 40161 58016 333 91103 91202;
0128066310999992010011211004+46983+007467FM-12+056599999V0203601N001019999999N9999999N1-00281-00501101531ADDMA1999999094721MD1810171+9999OA149900211REMSYN076AAXX  12114 06631 33/// /3602 11028 21050 39472 40153 58017 333 91104 91203;
0182066310999992010011212004+46983+007467FM-12+056599999V0209999C000519999999N0020001N1-00261-00531101451ADDAY121061AY221061GF108991999999999999999999MA1999999094651MD1610191+9999MW1101OA149900211REMSYN082AAXX  12124 06631 31/20 80001 11026 21053 39465 40145 56019 71022 333 91104 91203;
0128066310999992010011213004+46983+007467FM-12+056599999V0202101N000519999999N9999999N1-00241-00501101351ADDMA1999999094561MD1610231+9999OA149900151REMSYN076AAXX  12134 06631 33/// /2101 11024 21050 39456 40135 56023 333 91103 91202;
0087066310999992010011214004+46983+007467FM-12+056599999V0203301N000519999999N9999999N1-00251-00551101241ADDMA1999999094461REMSYN060AAXX  12144 06631 33/// /3301 11025 21055 39446 40124 5////;
0128066310999992010011215004+46983+007467FM-12+056599999V0203301N001019999999N9999999N1-00261-00531101191ADDMA1999999094411MD1610241+9999OA149900211REMSYN076AAXX  12154 06631 33/// /3302 11026 21053 39441 40119 56024 333 91104 91203;
0128066310999992010011216004+46983+007467FM-12+056599999V0200401N001519999999N9999999N1-00281-00531101081ADDMA1999999094301MD1810261+9999OA149900261REMSYN076AAXX  12164 06631 33/// /0403 11028 21053 39430 40108 58026 333 91105 91203;
0128066310999992010011217004+46983+007467FM-12+056599999V0200301N001519999999N9999999N1-00301-00521101071ADDMA1999999094291MD1710171+9999OA149900261REMSYN076AAXX  12174 06631 33/// /0303 11030 21052 39429 40107 57017 333 91105 91203;
0252066310999992010011218004+46983+007467FM-12+056599999V0200301N001519999999N0040001N1-00331-00541101021ADDAJ100069199999999AL19900091AY121061AY221061GF108991999999999999999999IA1279KA1120M-00241MA1999999094231MD1710181+9999MW1101OA149900311REMSYN106AAXX  12184 06631 31/40 80303 11033 21054 39423 40102 57018 71022 333 11024 43006 90766 93100 91106 91203;
0128066310999992010011219004+46983+007467FM-12+056599999V0200301N002119999999N9999999N1-00351-00551100991ADDMA1999999094201MD1710101+9999OA149900311REMSYN076AAXX  12194 06631 33/// /0304 11035 21055 39420 40099 57010 333 91106 91204;
0128066310999992010011220004+46983+007467FM-12+056599999V0200301N001519999999N9999999N1-00371-00551100961ADDMA1999999094171MD1710121+9999OA149900311REMSYN076AAXX  12204 06631 33/// /0303 11037 21055 39417 40096 57012 333 91106 91204;
0128066310999992010011221004+46983+007467FM-12+056599999V0200301N002119999999N9999999N1-00381-00571100911ADDMA1999999094121MD1710111+9999OA149900311REMSYN076AAXX  12214 06631 33/// /0304 11038 21057 39412 40091 57011 333 91106 91204;
0128066310999992010011222004+46983+007467FM-12+056599999V0200201N001519999999N9999999N1-00381-00561100851ADDMA1999999094061MD1710141+9999OA149900311REMSYN076AAXX  12224 06631 33/// /0203 11038 21056 39406 40085 57014 333 91106 91204;
0128066310999992010011223004+46983+007467FM-12+056599999V0203401N001019999999N9999999N1-00381-00571100901ADDMA1999999094111MD1510061+9999OA149900261REMSYN076AAXX  12234 06631 33/// /3402 11038 21057 39411 40090 55006 333 91105 91204;
0128066310999992010011300004+46983+007467FM-12+056599999V0201501N001019999999N9999999N1-00341-00561100921ADDMA1999999094141MD1310021+9999OA149900311REMSYN076AAXX  13004 06631 33/// /1502 11034 21056 39414 40092 53002 333 91106 91204;
0128066310999992010011301004+46983+007467FM-12+056599999V0201501N002619999999N9999999N1-00331-00541100871ADDMA1999999094091MD1010031+9999OA149900361REMSYN076AAXX  13014 06631 33/// /1505 11033 21054 39409 40087 50003 333 91107 91205;
0128066310999992010011302004+46983+007467FM-12+056599999V0202001N001019999999N9999999N1-00301-00541100801ADDMA1999999094031MD1719999+9999OA149900361REMSYN076AAXX  13024 06631 33/// /2002 11030 21054 39403 40080 57/// 333 91107 91205;
0128066310999992010011303004+46983+007467FM-12+056599999V0200301N001519999999N9999999N1-00341-00541100741ADDMA1999999093971MD1819999+9999OA149900361REMSYN076AAXX  13034 06631 33/// /0303 11034 21054 39397 40074 58/// 333 91107 91205;
0128066310999992010011304004+46983+007467FM-12+056599999V0200101N001019999999N9999999N1-00341-00531100731ADDMA1999999093961MD1710131+9999OA149900361REMSYN076AAXX  13044 06631 33/// /0102 11034 21053 39396 40073 57013 333 91107 91204;
0128066310999992010011305004+46983+007467FM-12+056599999V0202801N000519999999N9999999N1-00321-00471100741ADDMA1999999093971MD1710061+9999OA149900361REMSYN076AAXX  13054 06631 33/// /2801 11032 21047 39397 40074 57006 333 91107 91204;
0324066310999992010011306004+46983+007467FM-12+056599999V0209999C000019999999N0008001N1-00321-00451100781ADDAA112000591AA224000591AJ100069199999999AL19900091AY171061AY221061GF108991999999999999999999GJ100009IA1279IA2999-00409KA1999N-00391MA1999999094011MD1310041+9999MW1711OA149900361REMSYN136AAXX  13064 06631 01/08 80000 11032 21045 39401 40078 53004 69952 77172 333 21039 3/104 43006 55000 69955 70004 90768 93100 91107 91205;
0145066310999992010011307004+46983+007467FM-12+056599999V0201901N001019999999N9999999N1-00261-00401100821ADDAA101000891MA1999999094061MD1210101+9999OA149900211REMSYN082AAXX  13074 06631 23/// /1902 11026 21040 39406 40082 52010 333 69975 91104 91202;
0145066310999992010011308004+46983+007467FM-12+056599999V0201901N001519999999N9999999N1-00201-00371100861ADDAA101000591MA1999999094111MD1210141+9999OA149900211REMSYN082AAXX  13084 06631 23/// /1903 11020 21037 39411 40086 52014 333 69945 91104 91203;
0145066310999992010011309004+46983+007467FM-12+056599999V0201901N002119999999N9999999N1-00161-00341100911ADDAA101000591MA1999999094171MD1310161+9999OA149900361REMSYN082AAXX  13094 06631 23/// /1904 11016 21034 39417 40091 53016 333 69955 91107 91204;
0145066310999992010011310004+46983+007467FM-12+056599999V0202001N001019999999N9999999N1-00151-00301100961ADDAA101000391MA1999999094221MD1110161+9999OA149900361REMSYN082AAXX  13104 06631 23/// /2002 11015 21030 39422 40096 51016 333 69935 91107 91204;
0145066310999992010011311004+46983+007467FM-12+056599999V0201801N001519999999N9999999N1-00081-00271100951ADDAA101000021MA1999999094231MD1210121+9999OA149900261REMSYN082AAXX  13114 06631 23/// /1803 11008 21027 39423 40095 52012 333 69915 91105 91203;
0205066310999992010011312004+46983+007467FM-12+056599999V0201801N001519999999N0008001N1-00031-00221100931ADDAA106002091AY171061AY221061GF108991999999999999999999MA1999999094221MD1010051+9999MW1711OA149900361REMSYN094AAXX  13124 06631 01/08 81803 11003 21022 39422 40093 50005 60021 77172 333 69915 91107 91205;
0145066310999992010011313004+46983+007467FM-12+056599999V0201701N001019999999N9999999N1-00021-00161100931ADDAA101000591MA1999999094221MD1010001+9999OA149900261REMSYN082AAXX  13134 06631 23/// /1702 11002 21016 39422 40093 50000 333 69955 91105 91203;
0145066310999992010011314004+46983+007467FM-12+056599999V0201701N001019999999N9999999N1+00011-00141100941ADDAA101000391MA1999999094241MD1319999+9999OA149900211REMSYN082AAXX  13144 06631 23/// /1702 10001 21014 39424 40094 53/// 333 69935 91104 91203;
0145066310999992010011315004+46983+007467FM-12+056599999V0201901N001019999999N9999999N1+00041-00101100961ADDAA101000021MA1999999094271MD1210051+9999OA149900261REMSYN082AAXX  13154 06631 23/// /1902 10004 21010 39427 40096 52005 333 69915 91105 91203;
0145066310999992010011316004+46983+007467FM-12+056599999V0201801N001519999999N9999999N1+00041-00081101011ADDAA101000021MA1999999094311MD1310091+9999OA149900211REMSYN082AAXX  13164 06631 23/// /1803 10004 21008 39431 40101 53009 333 69915 91104 91203;
0145066310999992010011317004+46983+007467FM-12+056599999V0201901N001519999999N9999999N1+00051-00071101051ADDAA101000021MA1999999094351MD1310111+9999OA149900261REMSYN082AAXX  13174 06631 23/// /1903 10005 21007 39435 40105 53011 333 69915 91105 91203;
0275066310999992010011318004+46983+007467FM-12+056599999V0201901N001019999999N0010001N1+00051-00071101091ADDAA112004191AJ100119199999999AL11200591AY171061AY221061GF108991999999999999999999IA1279KA1120M+00061MA1999999094391MD1310121+9999MW1731OA149900361REMSYN118AAXX  13184 06631 01/10 81902 10005 21007 39439 40109 53012 60042 77372 333 10006 43011 69945 90766 93105 91107 91204;
0145066310999992010011319004+46983+007467FM-12+056599999V0201801N001019999999N9999999N1+00091-00051101101ADDAA101000021MA1999999094411MD1110101+9999OA149900261REMSYN082AAXX  13194 06631 23/// /1802 10009 21005 39441 40110 51010 333 69915 91105 91203;
0128066310999992010011320004+46983+007467FM-12+056599999V0202101N000519999999N9999999N1+00041-00081101101ADDMA1999999094401MD1210051+9999OA149900211REMSYN076AAXX  13204 06631 33/// /2101 10004 21008 39440 40110 52005 333 91104 91202;
0128066310999992010011321004+46983+007467FM-12+056599999V0202401N000519999999N9999999N1+00001-00091101081ADDMA1999999094371MD1810021+9999OA149900261REMSYN076AAXX  13214 06631 33/// /2401 10000 21009 39437 40108 58002 333 91105 91203;
0128066310999992010011322004+46983+007467FM-12+056599999V0201701N001019999999N9999999N1-00011-00121101061ADDMA1999999094351MD1710061+9999OA149900151REMSYN076AAXX  13224 06631 33/// /1702 11001 21012 39435 40106 57006 333 91103 91202;
0128066310999992010011323004+46983+007467FM-12+056599999V0200101N000519999999N9999999N1-00191-00261101091ADDMA1999999094331MD1710071+9999OA149900151REMSYN076AAXX  13234 06631 33/// /0101 11019 21026 39433 40109 57007 333 91103 91202;
0151066310999992010011400004+46983+007467FM-12+056599999V0203501N000519999999N9999999N1-00111-00201101001ADDAA106000021MA1999999094271MD1710101+9999OA149900261REMSYN088AAXX  14004 06631 03/// /3501 11011 21020 39427 40100 57010 69911 333 60005 91105 91203;
0128066310999992010011401004+46983+007467FM-12+056599999V0200501N000519999999N9999999N1-00021-00111100901ADDMA1999999094201MD1710151+9999OA149900151REMSYN076AAXX  14014 06631 33/// /0501 11002 21011 39420 40090 57015 333 91103 91202;
0128066310999992010011402004+46983+007467FM-12+056599999V0209999C000519999999N9999999N1+00011-00061100901ADDMA1999999094201MD1719999+9999OA149900151REMSYN076AAXX  14024 06631 33/// /0001 10001 21006 39420 40090 57/// 333 91103 91203;
0087066310999992010011403004+46983+007467FM-12+056599999V0200201N001019999999N9999999N1+00021-00051100881ADDMA1999999094191REMSYN060AAXX  14034 06631 33/// /0202 10002 21005 39419 40088 5////;
0128066310999992010011404004+46983+007467FM-12+056599999V0200501N000519999999N9999999N1+00041-00051100841ADDMA1999999094151MD1810051+9999OA149900211REMSYN076AAXX  14044 06631 33/// /0501 10004 21005 39415 40084 58005 333 91104 91203;
0128066310999992010011405004+46983+007467FM-12+056599999V0200301N001019999999N9999999N1+00001-00071100801ADDMA1999999094111MD1710091+9999OA149900211REMSYN076AAXX  14054 06631 33/// /0302 10000 21007 39411 40080 57009 333 91104 91203;
0229066310999992010011406004+46983+007467FM-12+056599999V0200301N001519999999N9999999N1-00021-00111100771ADDAA112000021AA224003891AL14800391GJ100009IA2999-00109KA1999N-00271MA1999999094071MD1810121+9999OA149900261REMSYN112AAXX  14064 06631 03/// /0303 11002 21011 39407 40077 58012 69912 333 21027 3/101 55000 60005 70038 91105 91203;
0128066310999992010011407004+46983+007467FM-12+056599999V0200201N001519999999N9999999N1+00001-00071100741ADDMA1999999094051MD1710101+9999OA149900361REMSYN076AAXX  14074 06631 33/// /0203 10000 21007 39405 40074 57010 333 91107 91204;
0128066310999992010011408004+46983+007467FM-12+056599999V0200401N002619999999N9999999N1-00021-00141100711ADDMA1999999094021MD1719999+9999OA149900511REMSYN076AAXX  14084 06631 33/// /0405 11002 21014 39402 40071 57/// 333 91110 91206;
0128066310999992010011409004+46983+007467FM-12+056599999V0200301N002619999999N9999999N1-00021-00171100721ADDMA1999999094031MD1710041+9999OA149900511REMSYN076AAXX  14094 06631 33/// /0305 11002 21017 39403 40072 57004 333 91110 91206;
0128066310999992010011410004+46983+007467FM-12+056599999V0200401N002119999999N9999999N1+00031-00101100701ADDMA1999999094021MD1710031+9999OA149900461REMSYN076AAXX  14104 06631 33/// /0404 10003 21010 39402 40070 57003 333 91109 91206;
0128066310999992010011411004+46983+007467FM-12+056599999V0200101N001019999999N9999999N1+00061-00101100661ADDMA1999999093991MD1710031+9999OA149900361REMSYN076AAXX  14114 06631 33/// /0102 10006 21010 39399 40066 57003 333 91107 91205;
0182066310999992010011412004+46983+007467FM-12+056599999V0200201N002619999999N0040001N1+00071-00091100611ADDAY121061AY221061GF108991999999999999999999MA1999999093951MD1710081+9999MW1101OA149900511REMSYN082AAXX  14124 06631 31/40 80205 10007 21009 39395 40061 57008 71022 333 91110 91206;
0128066310999992010011413004+46983+007467FM-12+056599999V0200101N001519999999N9999999N1+00081-00111100631ADDMA1999999093971MD1510051+9999OA149900511REMSYN076AAXX  14134 06631 33/// /0103 10008 21011 39397 40063 55005 333 91110 91205;
0128066310999992010011414004+46983+007467FM-12+056599999V0200401N001519999999N9999999N1+00101-00101100621ADDMA1999999093961MD1710031+9999OA149900311REMSYN076AAXX  14144 06631 33/// /0403 10010 21010 39396 40062 57003 333 91106 91204;
0128066310999992010011415004+46983+007467FM-12+056599999V0200201N001519999999N9999999N1+00081-00061100621ADDMA1999999093961MD1010011+9999OA149900511REMSYN076AAXX  14154 06631 33/// /0203 10008 21006 39396 40062 50001 333 91110 91205;
0128066310999992010011416004+46983+007467FM-12+056599999V0209999C001519999999N9999999N1+00071-00061100661ADDMA1999999093991MD1310021+9999OA149900261REMSYN076AAXX  14164 06631 33/// /0003 10007 21006 39399 40066 53002 333 91105 91204;
0128066310999992010011417004+46983+007467FM-12+056599999V0200101N001019999999N9999999N1+00081-00051100721ADDMA1999999094051MD1210091+9999OA149900311REMSYN076AAXX  14174 06631 33/// /0102 10008 21005 39405 40072 52009 333 91106 91204;
0252066310999992010011418004+46983+007467FM-12+056599999V0203301N000519999999N0050001N1+00061-00071100811ADDAJ100109199999999AL19900091AY121061AY221061GF108991999999999999999999IA1279KA1120M+00111MA1999999094131MD1310171+9999MW1101OA149900511REMSYN106AAXX  14184 06631 31/50 83301 10006 21007 39413 40081 53017 71022 333 10011 43010 90766 93100 91110 91206;
0128066310999992010011419004+46983+007467FM-12+056599999V0209999C000019999999N9999999N1+00081-00041100911ADDMA1999999094231MD1310241+9999OA149900211REMSYN076AAXX  14194 06631 33/// /0000 10008 21004 39423 40091 53024 333 91104 91202;
0128066310999992010011420004+46983+007467FM-12+056599999V0200101N001019999999N9999999N1+00071-00041100991ADDMA1999999094301MD1110251+9999OA149900101REMSYN076AAXX  14204 06631 33/// /0102 10007 21004 39430 40099 51025 333 91102 91202;
0128066310999992010011421004+46983+007467FM-12+056599999V0201201N000519999999N9999999N1+00091-00121101101ADDMA1999999094411MD1310281+9999OA149900311REMSYN076AAXX  14214 06631 33/// /1201 10009 21012 39441 40110 53028 333 91106 91204;
0128066310999992010011422004+46983+007467FM-12+056599999V0201401N001519999999N9999999N1+00091-00181101211ADDMA1999999094511MD1210281+9999OA149900261REMSYN076AAXX  14224 06631 33/// /1403 10009 21018 39451 40121 52028 333 91105 91203;
0128066310999992010011423004+46983+007467FM-12+056599999V0209999C000019999999N9999999N1+00031-00091101311ADDMA1999999094591MD1110291+9999OA149900261REMSYN076AAXX  14234 06631 33/// /0000 10003 21009 39459 40131 51029 333 91105 91203;
0128066310999992010011500004+46983+007467FM-12+056599999V0201301N000519999999N9999999N1+00051-00091101351ADDMA1999999094631MD1110221+9999OA149900311REMSYN076AAXX  15004 06631 33/// /1301 10005 21009 39463 40135 51022 333 91106 91204;
0128066310999992010011501004+46983+007467FM-12+056599999V0201701N001519999999N9999999N1+00091-00141101411ADDMA1999999094701MD1310191+9999OA149900211REMSYN076AAXX  15014 06631 33/// /1703 10009 21014 39470 40141 53019 333 91104 91203;
0128066310999992010011502004+46983+007467FM-12+056599999V0201501N001019999999N9999999N1+00081-00131101511ADDMA1999999094791MD1210201+9999OA149900211REMSYN076AAXX  15024 06631 33/// /1502 10008 21013 39479 40151 52020 333 91104 91203;
0087066310999992010011503004+46983+007467FM-12+056599999V0201701N001019999999N9999999N1+00081-00121101601ADDMA1999999094871REMSYN060AAXX  15034 06631 33/// /1702 10008 21012 39487 40160 5////;
0128066310999992010011504004+46983+007467FM-12+056599999V0201601N001519999999N9999999N1+00081-00131101671ADDMA1999999094941MD1110241+9999OA149900261REMSYN076AAXX  15044 06631 33/// /1603 10008 21013 39494 40167 51024 333 91105 91203;
0128066310999992010011505004+46983+007467FM-12+056599999V0201501N001519999999N9999999N1+00081-00131101771ADDMA1999999095031MD1310241+9999OA149900261REMSYN076AAXX  15054 06631 33/// /1503 10008 21013 39503 40177 53024 333 91105 91204;
0320066310999992010011506004+46983+007467FM-12+056599999V0201701N002119999999N0025001N1+00081-00151101861ADDAA124000091AJ100099199999999AL19900091AY121061AY221061GF108991999999999999999999GJ100009IA1279IA2999-00109KA1999N+00031MA1999999095121MD1310251+9999MW1101OA149900361REMSYN124AAXX  15064 06631 31/25 81704 10008 21015 39512 40186 53025 71022 333 20003 3/101 43009 55000 70000 90768 93100 91107 91204;EQDQ01  00002PRCP24
0128066310999992010011507004+46983+007467FM-12+056599999V0201601N002119999999N9999999N1+00071-00171101961ADDMA1999999095211MD1210271+9999OA149900411REMSYN076AAXX  15074 06631 33/// /1604 10007 21017 39521 40196 52027 333 91108 91205;
0128066310999992010011508004+46983+007467FM-12+056599999V0201501N002119999999N9999999N1+00051-00161102081ADDMA1999999095311MD1219999+9999OA149900411REMSYN076AAXX  15084 06631 33/// /1504 10005 21016 39531 40208 52/// 333 91108 91205;
0128066310999992010011509004+46983+007467FM-12+056599999V0201601N002619999999N9999999N1+00071-00181102151ADDMA1999999095381MD1110261+9999OA149900411REMSYN076AAXX  15094 06631 33/// /1605 10007 21018 39538 40215 51026 333 91108 91205;
0128066310999992010011510004+46983+007467FM-12+056599999V0201301N001519999999N9999999N1+00081-00171102231ADDMA1999999095461MD1210251+9999OA149900411REMSYN076AAXX  15104 06631 33/// /1303 10008 21017 39546 40223 52025 333 91108 91205;
0128066310999992010011511004+46983+007467FM-12+056599999V0209999C000019999999N9999999N1+00111-00151102231ADDMA1999999095471MD1210161+9999OA149900311REMSYN076AAXX  15114 06631 33/// /0000 10011 21015 39547 40223 52016 333 91106 91204;
0182066310999992010011512004+46983+007467FM-12+056599999V0203301N000519999999N0050001N1+00141-00141102281ADDAY121061AY221061GF107991999999999999999999MA1999999095521MD1210141+9999MW1101OA149900411REMSYN082AAXX  15124 06631 31/50 73301 10014 21014 39552 40228 52014 71022 333 91108 91205;
0128066310999992010011513004+46983+007467FM-12+056599999V0203001N001019999999N9999999N1+00121-00101102311ADDMA1999999095551MD1210091+9999OA149900261REMSYN076AAXX  15134 06631 33/// /3002 10012 21010 39555 40231 52009 333 91105 91203;
0128066310999992010011514004+46983+007467FM-12+056599999V0203201N000519999999N9999999N1+00181-00091102341ADDMA1999999095591MD1210121+9999OA149900261REMSYN076AAXX  15144 06631 33/// /3201 10018 21009 39559 40234 52012 333 91105 91203;
0128066310999992010011515004+46983+007467FM-12+056599999V0200301N001519999999N9999999N1+00151-00041102411ADDMA1999999095651MD1210131+9999OA149900311REMSYN076AAXX  15154 06631 33/// /0303 10015 21004 39565 40241 52013 333 91106 91204;
0128066310999992010011516004+46983+007467FM-12+056599999V0200201N002119999999N9999999N1+00061-00071102491ADDMA1999999095701MD1110151+9999OA149900361REMSYN076AAXX  15164 06631 33/// /0204 10006 21007 39570 40249 51015 333 91107 91204;
0128066310999992010011517004+46983+007467FM-12+056599999V0200401N002619999999N9999999N1+00071-00101102531ADDMA1999999095741MD1110151+9999OA149900461REMSYN076AAXX  15174 06631 33/// /0405 10007 21010 39574 40253 51015 333 91109 91205;
0252066310999992010011518004+46983+007467FM-12+056599999V0200501N001519999999N0025001N1+00091-00061102581ADDAJ100099199999999AL19900091AY121061AY221061GF108991999999999999999999IA1279KA1120M+00211MA1999999095791MD1210141+9999MW1101OA149900461REMSYN106AAXX  15184 06631 31/25 80503 10009 21006 39579 40258 52014 71022 333 10021 43009 90766 93100 91109 91205;
0128066310999992010011519004+46983+007467FM-12+056599999V0200301N001019999999N9999999N1+00071-00051102601ADDMA1999999095801MD1210101+9999OA149900411REMSYN076AAXX  15194 06631 33/// /0302 10007 21005 39580 40260 52010 333 91108 91205;
0128066310999992010011520004+46983+007467FM-12+056599999V0200301N001519999999N9999999N1+00061-00051102591ADDMA1999999095791MD1210051+9999OA149900311REMSYN076AAXX  15204 06631 33/// /0303 10006 21005 39579 40259 52005 333 91106 91203;
0128066310999992010011521004+46983+007467FM-12+056599999V0201101N001519999999N9999999N1+00031-00081102581ADDMA1999999095781MD1010011+9999OA149900461REMSYN076AAXX  15214 06631 33/// /1103 10003 21008 39578 40258 50001 333 91109 91205;
0128066310999992010011522004+46983+007467FM-12+056599999V0200201N002119999999N9999999N1+00011-00081102621ADDMA1999999095811MD1210011+9999OA149900361REMSYN076AAXX  15224 06631 33/// /0204 10001 21008 39581 40262 52001 333 91107 91204;
0128066310999992010011523004+46983+007467FM-12+056599999V0201101N001519999999N9999999N1+00001-00121102651ADDMA1999999095831MD1310041+9999OA149900311REMSYN076AAXX  15234 06631 33/// /1103 10000 21012 39583 40265 53004 333 91106 91204;
0128066310999992010011600004+46983+007467FM-12+056599999V0201201N000519999999N9999999N1-00031-00111102651ADDMA1999999095831MD1010051+9999OA149900461REMSYN076AAXX  16004 06631 33/// /1201 11003 21011 39583 40265 50005 333 91109 91205;
0128066310999992010011601004+46983+007467FM-12+056599999V0201001N001019999999N9999999N1-00041-00161102611ADDMA1999999095791MD1810021+9999OA149900211REMSYN076AAXX  16014 06631 33/// /1002 11004 21016 39579 40261 58002 333 91104 91202;
0128066310999992010011602004+46983+007467FM-12+056599999V0201601N000519999999N9999999N1-00041-00181102611ADDMA1999999095791MD1710041+9999OA149900261REMSYN076AAXX  16024 06631 33/// /1601 11004 21018 39579 40261 57004 333 91105 91202;
0128066310999992010011603004+46983+007467FM-12+056599999V0201501N001519999999N9999999N1-00081-00261102611ADDMA1999999095781MD1719999+9999OA149900311REMSYN076AAXX  16034 06631 33/// /1503 11008 21026 39578 40261 57/// 333 91106 91204;
0128066310999992010011604004+46983+007467FM-12+056599999V0201301N001019999999N9999999N1-00061-00231102571ADDMA1999999095741MD1710051+9999OA149900261REMSYN076AAXX  16044 06631 33/// /1302 11006 21023 39574 40257 57005 333 91105 91203;
0128066310999992010011605004+46983+007467FM-12+056599999V0201501N001519999999N9999999N1-00091-00261102501ADDMA1999999095671MD1710121+9999OA149900311REMSYN076AAXX  16054 06631 33/// /1503 11009 21026 39567 40250 57012 333 91106 91203;
0320066310999992010011606004+46983+007467FM-12+056599999V0201201N001519999999N0030001N1-00111-00311102451ADDAA124000091AJ100099199999999AL19900091AY121061AY221061GF108991999999999999999999GJ100129IA1279IA2999-00209KA1999N-00101MA1999999095621MD1710161+9999MW1101OA149900361REMSYN124AAXX  16064 06631 31/30 81203 11011 21031 39562 40245 57016 71022 333 21010 3/102 43009 55002 70000 90768 93100 91107 91204;EQDQ01  00002PRCP24
0128066310999992010011607004+46983+007467FM-12+056599999V0201301N002119999999N9999999N1-00121-00331102411ADDMA1999999095581MD1710161+9999OA149900361REMSYN076AAXX  16074 06631 33/// /1304 11012 21033 39558 40241 57016 333 91107 91204;
0128066310999992010011608004+46983+007467FM-12+056599999V0201601N001519999999N9999999N1-00141-00341102381ADDMA1999999095551MD1710121+9999OA149900361REMSYN076AAXX  16084 06631 33/// /1603 11014 21034 39555 40238 57012 333 91107 91204;
0128066310999992010011609004+46983+007467FM-12+056599999V0201901N001519999999N9999999N1-00131-00331102351ADDMA1999999095521MD1710101+9999OA149900361REMSYN076AAXX  16094 06631 33/// /1903 11013 21033 39552 40235 57010 333 91107 91204;
0128066310999992010011610004+46983+007467FM-12+056599999V0202201N001019999999N9999999N1-00151-00331102361ADDMA1999999095531MD1710051+9999OA149900311REMSYN076AAXX  16104 06631 33/// /2202 11015 21033 39553 40236 57005 333 91106 91203;
0128066310999992010011611004+46983+007467FM-12+056599999V0201801N001519999999N9999999N1-00091-00331102311ADDMA1999999095491MD1710061+9999OA149900261REMSYN076AAXX  16114 06631 33/// /1803 11009 21033 39549 40231 57006 333 91105 91203;
0182066310999992010011612004+46983+007467FM-12+056599999V0201501N002619999999N0030001N1-00071-00311102231ADDAY121061AY221061GF108991999999999999999999MA1999999095421MD1710101+9999MW1101OA149900411REMSYN082AAXX  16124 06631 31/30 81505 11007 21031 39542 40223 57010 71022 333 91108 91205;
0128066310999992010011613004+46983+007467FM-12+056599999V0201401N003119999999N9999999N1-00051-00321102171ADDMA1999999095371MD1710161+9999OA149900411REMSYN076AAXX  16134 06631 33/// /1406 11005 21032 39537 40217 57016 333 91108 91206;
0128066310999992010011614004+46983+007467FM-12+056599999V0201501N002619999999N9999999N1-00071-00331102081ADDMA1999999095281MD1719999+9999OA149900511REMSYN076AAXX  16144 06631 33/// /1505 11007 21033 39528 40208 57/// 333 91110 91206;
0128066310999992010011615004+46983+007467FM-12+056599999V0201501N002119999999N9999999N1-00081-00351102051ADDMA1999999095251MD1610171+9999OA149900511REMSYN076AAXX  16154 06631 33/// /1504 11008 21035 39525 40205 56017 333 91110 91206;
0128066310999992010011616004+46983+007467FM-12+056599999V0201401N001519999999N9999999N1-00131-00381102031ADDMA1999999095221MD1710151+9999OA149900311REMSYN076AAXX  16164 06631 33/// /1403 11013 21038 39522 40203 57015 333 91106 91204;
0128066310999992010011617004+46983+007467FM-12+056599999V0201601N002619999999N9999999N1-00081-00371102061ADDMA1999999095261MD1510021+9999OA149900361REMSYN076AAXX  16174 06631 33/// /1605 11008 21037 39526 40206 55002 333 91107 91206;
0252066310999992010011618004+46983+007467FM-12+056599999V0201601N001019999999N0030001N1-00091-00341102051ADDAJ100089199999999AL19900091AY121061AY221061GF108991999999999999999999IA1279KA1120M-00051MA1999999095251MD1010001+9999MW1101OA149900511REMSYN106AAXX  16184 06631 31/30 81602 11009 21034 39525 40205 50000 71022 333 11005 43008 90766 93100 91110 91206;
0163066310999992010011619004+46983+007467FM-12+056599999V0201701N002119999999N9999999N1-00061-00341102011ADDMA1999999095221MD1710021+9999OA149900411REMSYN076AAXX  16194 06631 33/// /1704 11006 21034 39522 40201 58000 333 91108 91204;EQDQ01+000082APCTENQ02+000002APC3  
0145066310999992010011620004+46983+007467FM-12+056599999V0202001N001519999999N9999999N1-00051-00251101951ADDAA101000391MA1999999095171MD1710091+9999OA149900411REMSYN082AAXX  16204 06631 23/// /2003 11005 21025 39517 40195 57009 333 69935 91108 91205;
0145066310999992010011621004+46983+007467FM-12+056599999V0201901N002119999999N9999999N1+00001-00231101851ADDAA101000391MA1999999095091MD1710161+9999OA149900461REMSYN082AAXX  16214 06631 23/// /1904 10000 21023 39509 40185 57016 333 69935 91109 91207;
0145066310999992010011622004+46983+007467FM-12+056599999V0202001N002119999999N9999999N1+00031-00161101871ADDAA101000391MA1999999095111MD1510111+9999OA149900461REMSYN082AAXX  16224 06631 23/// /2004 10003 21016 39511 40187 55011 333 69935 91109 91207;
0145066310999992010011623004+46983+007467FM-12+056599999V0201701N002119999999N9999999N1+00121-00031101911ADDAA101002091MA1999999095171MD1710041+9999OA149900461REMSYN082AAXX  16234 06631 23/// /1704 10012 21003 39517 40191 53000 333 60025 91109 91206;
0151066310999992010011700004+46983+007467FM-12+056599999V0201701N002619999999N9999999N1+00171+00011101911ADDAA106004191MA1999999095181MD1210091+9999OA149900511REMSYN088AAXX  17004 06631 03/// /1705 10017 20001 39518 40191 52009 60041 333 60015 91110 91207;
0128066310999992010011701004+46983+007467FM-12+056599999V0201601N003619999999N9999999N1+00151-00041101931ADDMA1999999095201MD1210091+9999OA149900671REMSYN076AAXX  17014 06631 33/// /1607 10015 21004 39520 40193 52009 333 91113 91209;
0128066310999992010011702004+46983+007467FM-12+056599999V0201601N002619999999N9999999N1+00181-00051101861ADDMA1999999095141MD1819999+9999OA149900721REMSYN076AAXX  17024 06631 33/// /1605 10018 21005 39514 40186 58/// 333 91114 91209;
0087066310999992010011703004+46983+007467FM-12+056599999V0201701N002119999999N9999999N1+00181+00021101831ADDMA1999999095111REMSYN060AAXX  17034 06631 43/// /1704 10018 20002 39511 40183 5////;
0145066310999992010011704004+46983+007467FM-12+056599999V0201801N003119999999N9999999N1+00181+00041101811ADDAA101000021MA1999999095091MD1710111+9999OA149900461REMSYN082AAXX  17044 06631 23/// /1806 10018 20004 39509 40181 57011 333 69915 91109 91206;
0128066310999992010011705004+46983+007467FM-12+056599999V0201901N002619999999N9999999N1+00211+00071101801ADDMA1999999095091MD1719999+9999OA149900461REMSYN076AAXX  17054 06631 33/// /1905 10021 20007 39509 40180 57/// 333 91109 91206;
0229066310999992010011706004+46983+007467FM-12+056599999V0201701N001019999999N9999999N1+00211+00081101811ADDAA112004191AA224004391AL11800491GJ100009IA2999-00209KA1999N-00091MA1999999095101MD1010011+9999OA149900721REMSYN112AAXX  17064 06631 03/// /1702 10021 20008 39510 40181 50001 60042 333 21009 3/102 55000 69915 70043 91114 91209;
0145066310999992010011707004+46983+007467FM-12+056599999V0201601N001519999999N9999999N1+00221+00101101871ADDAA101000591MA1999999095161MD1310071+9999OA149900621REMSYN082AAXX  17074 06631 23/// /1603 10022 20010 39516 40187 53007 333 69945 91112 91206;
0145066310999992010011708004+46983+007467FM-12+056599999V0201601N001019999999N9999999N1+00381+00221101941ADDAA101001091MA1999999095261MD1219999+9999OA149900261REMSYN082AAXX  17084 06631 23/// /1602 10038 20022 39526 40194 52/// 333 60015 91105 91204;
0145066310999992010011709004+46983+007467FM-12+056599999V0202501N003119999999N9999999N1+00461+00301102021ADDAA101000391MA1999999095361MD1310261+9999OA149900671REMSYN082AAXX  17094 06631 23/// /2506 10046 20030 39536 40202 53026 333 69935 91113 91207;
0128066310999992010011710004+46983+007467FM-12+056599999V0202201N003619999999N9999999N1+00471+00281102151ADDMA1999999095481MD1210321+9999OA149900771REMSYN076AAXX  17104 06631 33/// /2207 10047 20028 39548 40215 52032 333 91115 91208;
0128066310999992010011711004+46983+007467FM-12+056599999V0202401N003619999999N9999999N1+00581+00211102161ADDMA1999999095521MD1110261+9999OA149900931REMSYN076AAXX  17114 06631 33/// /2407 10058 20021 39552 40216 51026 333 91118 91209;
0151066310999992010011712004+46983+007467FM-12+056599999V0202501N004119999999N9999999N1+00621-00011102211ADDAA106002091MA1999999095571MD1110211+9999OA149900931REMSYN088AAXX  17124 06631 03/// /2508 10062 21001 39557 40221 51021 60021 333 60005 91118 91209;
0128066310999992010011713004+46983+007467FM-12+056599999V0202201N004619999999N9999999N1+00631+00001102251ADDMA1999999095611MD1210131+9999OA149901031REMSYN076AAXX  17134 06631 33/// /2209 10063 20000 39561 40225 52013 333 91120 91209;
0128066310999992010011714004+46983+007467FM-12+056599999V0202401N002619999999N9999999N1+00611-00041102341ADDMA1999999095691MD1219999+9999OA149901031REMSYN076AAXX  17144 06631 33/// /2405 10061 21004 39569 40234 52/// 333 91120 91210;
0128066310999992010011715004+46983+007467FM-12+056599999V0202301N002619999999N9999999N1+00601-00061102391ADDMA1999999095741MD1210171+9999OA149901031REMSYN076AAXX  17154 06631 33/// /2305 10060 21006 39574 40239 52017 333 91120 91210;
0128066310999992010011716004+46983+007467FM-12+056599999V0202101N002119999999N9999999N1+00521-00091102491ADDMA1999999095811MD1210201+9999OA149900821REMSYN076AAXX  17164 06631 33/// /2104 10052 21009 39581 40249 52020 333 91116 91208;
0128066310999992010011717004+46983+007467FM-12+056599999V0201601N002119999999N9999999N1+00341-00081102591ADDMA1999999095861MD1210171+9999OA149900621REMSYN076AAXX  17174 06631 33/// /1604 10034 21008 39586 40259 52017 333 91112 91206;
0275066310999992010011718004+46983+007467FM-12+056599999V0201001N001012200019N0070001N1+00201-00011102701ADDAA112002091AJ100069199999999AL19900091AY111061AY211061GF102991999999999999999999IA1279KA1120M+00661MA1999999095931MD1210191+9999MW1101OA149901031REMSYN118AAXX  17184 06631 01/57 21002 10020 21001 39593 40270 52019 60022 71011 333 10066 43006 60005 90766 93100 91120 91210;
0128066310999992010011719004+46983+007467FM-12+056599999V0202001N000519999999N9999999N1+00131-00091102771ADDMA1999999095981MD1210171+9999OA149900411REMSYN076AAXX  17194 06631 33/// /2001 10013 21009 39598 40277 52017 333 91108 91203;
0128066310999992010011720004+46983+007467FM-12+056599999V0201801N000519999999N9999999N1+00071-00101102821ADDMA1999999096011MD1110151+9999OA149900211REMSYN076AAXX  17204 06631 33/// /1801 10007 21010 39601 40282 51015 333 91104 91203;
