0137066390999992010010100004+47000+007933FM-12+140699999V0202401N002619999999N9999999N1+00091+00041999999ADDMA1999999083541MD1810121+9999ME1312669OA149901081REMSYN076AAXX  01004 06639 33/// /2405 10009 20004 38354 48266 58012 333 91121 91211;
0137066390999992010010101004+47000+007933FM-12+140699999V0202301N002619999999N9999999N1+00061+00051999999ADDMA1999999083521MD1810101+9999ME1312649OA149900511REMSYN076AAXX  01014 06639 33/// /2305 10006 20005 38352 48264 58010 333 91110 91206;
0137066390999992010010102004+47000+007933FM-12+140699999V0202201N001019999999N9999999N1+00101-00051999999ADDMA1999999083461MD1619999+9999ME1312589OA149900511REMSYN076AAXX  01024 06639 33/// /2202 10010 21005 38346 48258 56/// 333 91110 91206;
0096066390999992010010103004+47000+007933FM-12+140699999V0201401N001519999999N9999999N1+00061-00061999999ADDMA1999999083411ME1312539REMSYN060AAXX  01034 06639 43/// /1403 10006 21006 38341 48253 5////;
0096066390999992010010104004+47000+007933FM-12+140699999V0200301N001019999999N9999999N1+00081-00091999999ADDMA1999999083371ME1312499REMSYN060AAXX  01044 06639 33/// /0302 10008 21009 38337 48249 5////;
0137066390999992010010105004+47000+007933FM-12+140699999V0201001N002119999999N9999999N1+00111-00131999999ADDMA1999999083351MD1610111+9999ME1312479OA149900311REMSYN076AAXX  01054 06639 33/// /1004 10011 21013 38335 48247 56011 333 91106 91204;
0215066390999992010010106004+47000+007933FM-12+140699999V0200801N003119999999N9999999N1+00071-00101999999ADDAA124002591AL13000291GJ100069IA2999-00109KA1999N+00031MA1999999083311MD1810101+9999ME1312449OA149901081REMSYN100AAXX  01064 06639 33/// /0806 10007 21010 38331 48244 58010 333 20003 3/101 55001 70025 91121 91211;
0137066390999992010010107004+47000+007933FM-12+140699999V0200501N002119999999N9999999N1+00071-00121999999ADDMA1999999083321MD1710051+9999ME1312459OA149900411REMSYN076AAXX  01074 06639 33/// /0504 10007 21012 38332 48245 57005 333 91108 91206;
0156066390999992010010108004+47000+007933FM-12+140699999V0200901N001519999999N9999999N1+00101-00161999999ADDMA1999999083351MD1410001+9999ME1312479OA149900411REMSYN076AAXX  01084 06639 33/// /0903 10010 21016 38335 48247 53000 333 91108 91205;EQDQ01+000032APCTEN
0137066390999992010010109004+47000+007933FM-12+140699999V0200701N001519999999N9999999N1+00111-00151999999ADDMA1999999083391MD1310081+9999ME1312519OA149900411REMSYN076AAXX  01094 06639 33/// /0703 10011 21015 38339 48251 53008 333 91108 91206;
0137066390999992010010110004+47000+007933FM-12+140699999V0200201N001019999999N9999999N1+00081-00011999999ADDMA1999999083441MD1310121+9999ME1312569OA149900311REMSYN076AAXX  01104 06639 33/// /0202 10008 21001 38344 48256 53012 333 91106 91204;
0137066390999992010010111004+47000+007933FM-12+140699999V0200101N001019999999N9999999N1+00101-00091999999ADDMA1999999083451MD1110101+9999ME1312579OA149900311REMSYN076AAXX  01114 06639 33/// /0102 10010 21009 38345 48257 51010 333 91106 91203;
0137066390999992010010112004+47000+007933FM-12+140699999V0201101N000519999999N9999999N1+00061+00061999999ADDMA1999999083471MD1110081+9999ME1312599OA149900511REMSYN076AAXX  01124 06639 33/// /1101 10006 20006 38347 48259 51008 333 91110 91206;
0154066390999992010010113004+47000+007933FM-12+140699999V0203001N000519999999N9999999N1+00041+00041999999ADDAA101000021MA1999999083491MD1310051+9999ME1312619OA149900151REMSYN082AAXX  01134 06639 23/// /3001 10004 20004 38349 48261 53005 333 69915 91103 91202;
0137066390999992010010114004+47000+007933FM-12+140699999V0203101N001019999999N9999999N1+00011+00011999999ADDMA1999999083551MD1319999+9999ME1312679OA149900151REMSYN076AAXX  01144 06639 33/// /3102 10001 20001 38355 48267 53/// 333 91103 91203;
0154066390999992010010115004+47000+007933FM-12+140699999V0203301N002619999999N9999999N1-00091-00091999999ADDAA101001091MA1999999083631MD1310161+9999ME1312759OA149900411REMSYN082AAXX  01154 06639 23/// /3305 11009 21009 38363 48275 53016 333 60015 91108 91205;
0154066390999992010010116004+47000+007933FM-12+140699999V0203101N003119999999N9999999N1-00151-00151999999ADDAA101002091MA1999999083721MD1310231+9999ME1312849OA149900671REMSYN082AAXX  01164 06639 23/// /3106 11015 21015 38372 48284 53023 333 60025 91113 91207;
0154066390999992010010117004+47000+007933FM-12+140699999V0203101N003119999999N9999999N1-00211-00211999999ADDAA101003091MA1999999083861MD1310311+9999ME1312989OA149900671REMSYN082AAXX  01174 06639 23/// /3106 11021 21021 38386 48298 53031 333 60035 91113 91207;
0179066390999992010010118004+47000+007933FM-12+140699999V0202801N004619999999N9999999N1-00221-00251999999ADDAA112007991KA1120M+00131MA1999999084011MD1310381+9999ME1313129OA149900981REMSYN094AAXX  01184 06639 03/// /2809 11022 21025 38401 48312 53038 60082 333 10013 60025 91119 91209;
0154066390999992010010119004+47000+007933FM-12+140699999V0202401N006219999999N9999999N1-00281-00351999999ADDAA101002091MA1999999084131MD1210411+9999ME1313249OA149901291REMSYN082AAXX  01194 06639 23/// /2412 11028 21035 38413 48324 52041 333 60025 91125 91212;
0154066390999992010010120004+47000+007933FM-12+140699999V0202701N004119999999N9999999N1-00341-00431999999ADDAA101002091MA1999999084221MD1110361+9999ME1313329OA149901491REMSYN082AAXX  01204 06639 23/// /2708 11034 21043 38422 48332 51036 333 60025 91129 91213;
0154066390999992010010121004+47000+007933FM-12+140699999V0202701N004119999999N9999999N1-00431-00461999999ADDAA101000891MA1999999084311MD1210301+9999ME1313419OA149901491REMSYN082AAXX  01214 06639 23/// /2708 11043 21046 38431 48341 52030 333 69975 91129 91213;
0154066390999992010010122004+47000+007933FM-12+140699999V0202501N005719999999N9999999N1-00501-00501999999ADDAA101000021MA1999999084351MD1110221+9999ME1313459OA149901441REMSYN082AAXX  01224 06639 23/// /2511 11050 21050 38435 48345 51022 333 69915 91128 91213;
0137066390999992010010123004+47000+007933FM-12+140699999V0202701N006719999999N9999999N1-00551-00551999999ADDMA1999999084401MD1110181+9999ME1313509OA149901751REMSYN076AAXX  01234 06639 33/// /2713 11055 21055 38440 48350 51018 333 91134 91214;
0160066390999992010010200004+47000+007933FM-12+140699999V0202701N002119999999N9999999N1-00601-00651999999ADDAA106004191MA1999999084491MD1310181+9999ME1313589OA149901751REMSYN088AAXX  02004 06639 03/// /2704 11060 21065 38449 48358 53018 60041 333 69915 91134 91214;
0154066390999992010010201004+47000+007933FM-12+140699999V0202901N001519999999N9999999N1-00701-00731999999ADDAA101000591MA1999999084571MD1310221+9999ME1313669OA149901291REMSYN082AAXX  02014 06639 23/// /2903 11070 21073 38457 48366 53022 333 69945 91125 91210;
0117066390999992010010202004+47000+007933FM-12+140699999V0202901N003619999999N9999999N1-00811-00811999999ADDAA101000591MA1999999084671ME1313759REMSYN070AAXX  02024 06639 23/// /2907 11081 21081 38467 48375 5//// 333 69965;
0154066390999992010010203004+47000+007933FM-12+140699999V0202901N005119999999N9999999N1-00811-00871999999ADDAA101000021MA1999999084751MD1210261+9999ME1313839OA149901751REMSYN082AAXX  02034 06639 23/// /2910 11081 21087 38475 48383 52026 333 69915 91134 91214;
0154066390999992010010204004+47000+007933FM-12+140699999V0202901N005119999999N9999999N1-00831-00921999999ADDAA101000021MA1999999084811MD1210241+9999ME1313889OA149901541REMSYN082AAXX  02044 06639 23/// /2910 11083 21092 38481 48388 52024 333 69915 91130 91210;
0137066390999992010010205004+47000+007933FM-12+140699999V0202901N004119999999N9999999N1-00861-00911999999ADDMA1999999084881MD1110211+9999ME1313959OA149901491REMSYN076AAXX  02054 06639 33/// /2908 11086 21091 38488 48395 51021 333 91129 91213;
0238066390999992010010206004+47000+007933FM-12+140699999V0202801N003119999999N9999999N1-00871-00921999999ADDAA112005191AA224013591AL12401391GJ100009IA2999-00209KA1999N-00891MA1999999084951MD1210201+9999ME1314019OA149901751REMSYN112AAXX  02064 06639 03/// /2806 11087 21092 38495 48401 52020 60052 333 21089 3/102 55000 60005 70134 91134 91214;
0137066390999992010010207004+47000+007933FM-12+140699999V0202601N003119999999N9999999N1-00901-00901999999ADDMA1999999085011MD1110201+9999ME1314069OA149901241REMSYN076AAXX  02074 06639 33/// /2606 11090 21090 38501 48406 51020 333 91124 91209;
0117066390999992010010208004+47000+007933FM-12+140699999V0203101N003119999999N9999999N1-00951-00951999999ADDAA101000021MA1999999085091ME1314149REMSYN070AAXX  02084 06639 23/// /3106 11095 21095 38509 48414 5//// 333 69915;
0137066390999992010010209004+47000+007933FM-12+140699999V0203101N002619999999N9999999N1-00991-01061999999ADDMA1999999085171MD1310221+9999ME1314219OA149901491REMSYN076AAXX  02094 06639 33/// /3105 11099 21106 38517 48421 53022 333 91129 91213;
0137066390999992010010210004+47000+007933FM-12+140699999V0203101N002619999999N9999999N1-01021-01021999999ADDMA1999999085261MD1310251+9999ME1314299OA149900981REMSYN076AAXX  02104 06639 33/// /3105 11102 21102 38526 48429 53025 333 91119 91208;
0137066390999992010010211004+47000+007933FM-12+140699999V0203101N001519999999N9999999N1-00981-00981999999ADDMA1999999085311MD1110221+9999ME1314349OA149900771REMSYN076AAXX  02114 06639 33/// /3103 11098 21098 38531 48434 51022 333 91115 91206;
0179066390999992010010212004+47000+007933FM-12+140699999V0202501N003119999999N9999999N1-00901-01001999999ADDAA106000091MA1999999085361MD1210191+9999ME1314389OA149901541REMSYN088AAXX  02124 06639 03/// /2506 11090 21100 38536 48438 52019 69911 333 60005 91130 91213;EQDQ01  00002PRCP06
0137066390999992010010213004+47000+007933FM-12+140699999V0202601N001519999999N9999999N1-00951-01001999999ADDMA1999999085431MD1210171+9999ME1314449OA149900671REMSYN076AAXX  02134 06639 33/// /2603 11095 21100 38543 48444 52017 333 91113 91206;
0137066390999992010010214004+47000+007933FM-12+140699999V0202501N000519999999N9999999N1-01011-01111999999ADDMA1999999085501MD1219999+9999ME1314519OA149900621REMSYN076AAXX  02144 06639 33/// /2501 11101 21111 38550 48451 52/// 333 91112 91205;
0137066390999992010010215004+47000+007933FM-12+140699999V0202401N002619999999N9999999N1-00991-00991999999ADDMA1999999085561MD1110201+9999ME1314569OA149900771REMSYN076AAXX  02154 06639 33/// /2405 11099 21099 38556 48456 51020 333 91115 91206;
0137066390999992010010216004+47000+007933FM-12+140699999V0202401N002619999999N9999999N1-01051-01051999999ADDMA1999999085591MD1110161+9999ME1314599OA149900461REMSYN076AAXX  02164 06639 33/// /2405 11105 21105 38559 48459 51016 333 91109 91206;
0137066390999992010010217004+47000+007933FM-12+140699999V0203601N001019999999N9999999N1-01051-01051999999ADDMA1999999085651MD1110151+9999ME1314649OA149900771REMSYN076AAXX  02174 06639 33/// /3602 11105 21105 38565 48464 51015 333 91115 91206;
0214066390999992010010218004+47000+007933FM-12+140699999V02099999999999999999N9999999N1-01061-01061999999ADDAA112000091KA1120M-00861MA1999999085681MD1210121+9999ME1314679OA149999999REMSYN094AAXX  02184 06639 03/// ///// 11106 21106 38568 48467 52012 69912 333 11086 60005 91120 91209;EQDQ01  00002PRCP12Q02  01032WGOSPD
0110066390999992010010219004+47000+007933FM-12+140699999V02099999999999999999N9999999N1-01071-01091999999ADDMA1999999085691MD1210101+9999ME1314689REMSYN060AAXX  02194 06639 33/// ///// 11107 21109 38569 48468 52010;
0110066390999992010010220004+47000+007933FM-12+140699999V02099999999999999999N9999999N1-01081-01121999999ADDMA1999999085691MD1210041+9999ME1314689REMSYN060AAXX  02204 06639 33/// ///// 11108 21112 38569 48468 52004;
0110066390999992010010221004+47000+007933FM-12+140699999V02099999999999999999N9999999N1-01121-01171999999ADDMA1999999085681MD1010001+9999ME1314679REMSYN060AAXX  02214 06639 33/// ///// 11112 21117 38568 48467 50000;
0110066390999992010010222004+47000+007933FM-12+140699999V02099999999999999999N9999999N1-01051-01261999999ADDMA1999999085701MD1310011+9999ME1314699REMSYN060AAXX  02224 06639 33/// ///// 11105 21126 38570 48469 53001;
0110066390999992010010223004+47000+007933FM-12+140699999V02099999999999999999N9999999N1-01081-01341999999ADDMA1999999085721MD1310031+9999ME1314709REMSYN060AAXX  02234 06639 33/// ///// 11108 21134 38572 48470 53003;
0110066390999992010010300004+47000+007933FM-12+140699999V02099999999999999999N9999999N1-01071-01381999999ADDMA1999999085681MD1010001+9999ME1314679REMSYN060AAXX  03004 06639 33/// ///// 11107 21138 38568 48467 50000;
0110066390999992010010301004+47000+007933FM-12+140699999V02099999999999999999N9999999N1-01091-01351999999ADDMA1999999085701MD1010001+9999ME1314689REMSYN060AAXX  03014 06639 33/// ///// 11109 21135 38570 48468 50000;
0096066390999992010010302004+47000+007933FM-12+140699999V02099999999999999999N9999999N1-01121-01391999999ADDMA1999999085701ME1314689REMSYN060AAXX  03024 06639 33/// ///// 11112 21139 38570 48468 5////;
0096066390999992010010303004+47000+007933FM-12+140699999V02099999999999999999N9999999N1-01081-01411999999ADDMA1999999085681ME1314679REMSYN060AAXX  03034 06639 33/// ///// 11108 21141 38568 48467 5////;
0110066390999992010010304004+47000+007933FM-12+140699999V02099999999999999999N9999999N1-01091-01461999999ADDMA1999999085641MD1810061+9999ME1314639REMSYN060AAXX  03044 06639 33/// /01// 11109 21146 38564 48463 58006;
0110066390999992010010305004+47000+007933FM-12+140699999V0203601N001019999999N9999999N1-01041-01641999999ADDMA1999999085631MD1719999+9999ME1314629REMSYN060AAXX  03054 06639 33/// /3602 11104 21164 38563 48462 57///;
0201066390999992010010306004+47000+007933FM-12+140699999V0202401N003119999999N9999999N1-00991-01831999999ADDAA124000091GJ100369IA2999-00509KA1999N-01141MA1999999085601MD1710081+9999ME1314609REMSYN088AAXX  03064 06639 33/// /2406 11099 21183 38560 48460 57008 333 21114 3/105 55006 70001;EQDQ01  00002PRCP24
0137066390999992010010307004+47000+007933FM-12+140699999V0203001N003119999999N9999999N1-01061-01781999999ADDMA1999999085601MD1710041+9999ME1314609OA149900771REMSYN076AAXX  03074 06639 33/// /3006 11106 21178 38560 48460 57004 333 91115 91207;
0137066390999992010010308004+47000+007933FM-12+140699999V0202901N003619999999N9999999N1-00941-01861999999ADDMA1999999085641MD1319999+9999ME1314639OA149900461REMSYN076AAXX  03084 06639 33/// /2907 11094 21186 38564 48463 53/// 333 91109 91207;
0110066390999992010010309004+47000+007933FM-12+140699999V0202001N002119999999N9999999N1-00811-02081999999ADDMA1999999085661MD1210061+9999ME1314669REMSYN060AAXX  03094 06639 33/// /2004 11081 21208 38566 48466 52006;
0137066390999992010010310004+47000+007933FM-12+140699999V0202301N002619999999N9999999N1-00721-01771999999ADDMA1999999085671MD1210071+9999ME1314679OA149900361REMSYN076AAXX  03104 06639 33/// /2305 11072 21177 38567 48467 52007 333 91107 91206;
0137066390999992010010311004+47000+007933FM-12+140699999V0202001N002119999999N9999999N1-00611-01351999999ADDMA1999999085571MD1810071+9999ME1314589OA149900311REMSYN076AAXX  03114 06639 33/// /2004 11061 21135 38557 48458 58007 333 91106 91205;
0110066390999992010010312004+47000+007933FM-12+140699999V0202201N002119999999N9999999N1-00631-01521999999ADDMA1999999085551MD1610111+9999ME1314569REMSYN060AAXX  03124 06639 33/// /2204 11063 21152 38555 48456 56011;
0137066390999992010010313004+47000+007933FM-12+140699999V0202201N001519999999N9999999N1-00611-01511999999ADDMA1999999085531MD1710141+9999ME1314549OA149900411REMSYN076AAXX  03134 06639 33/// /2203 11061 21151 38553 48454 57014 333 91108 91205;
0137066390999992010010314004+47000+007933FM-12+140699999V0202301N001519999999N9999999N1-00631-01361999999ADDMA1999999085531MD1710041+9999ME1314549OA149900411REMSYN076AAXX  03144 06639 33/// /2303 11063 21136 38553 48454 57004 333 91108 91205;
0137066390999992010010315004+47000+007933FM-12+140699999V0202401N001519999999N9999999N1-00701-01721999999ADDMA1999999085561MD1310011+9999ME1314579OA149900411REMSYN076AAXX  03154 06639 33/// /2403 11070 21172 38556 48457 53001 333 91108 91205;
0137066390999992010010316004+47000+007933FM-12+140699999V0202301N002119999999N9999999N1-00701-02011999999ADDMA1999999085531MD1010001+9999ME1314549OA149900361REMSYN076AAXX  03164 06639 33/// /2304 11070 21201 38553 48454 50000 333 91107 91205;
0137066390999992010010317004+47000+007933FM-12+140699999V0203001N001519999999N9999999N1-00681-01851999999ADDMA1999999085491MD1810041+9999ME1314509OA149900361REMSYN076AAXX  03174 06639 33/// /3003 11068 21185 38549 48450 58004 333 91107 91205;
0156066390999992010010318004+47000+007933FM-12+140699999V0202301N001519999999N9999999N1-00661-01841999999ADDKA1120M-00561MA1999999085501MD1710061+9999ME1314519OA149900461REMSYN082AAXX  03184 06639 33/// /2303 11066 21184 38550 48451 57006 333 11056 91109 91207;
0137066390999992010010319004+47000+007933FM-12+140699999V0202001N001519999999N9999999N1-00631-01921999999ADDMA1999999085481MD1710051+9999ME1314509OA149900261REMSYN076AAXX  03194 06639 33/// /2003 11063 21192 38548 48450 57005 333 91105 91204;
0137066390999992010010320004+47000+007933FM-12+140699999V0203301N001519999999N9999999N1-00661-01971999999ADDMA1999999085441MD1810051+9999ME1314469OA149900261REMSYN076AAXX  03204 06639 33/// /3303 11066 21197 38544 48446 58005 333 91105 91204;
0137066390999992010010321004+47000+007933FM-12+140699999V0201301N001519999999N9999999N1-00601-02041999999ADDMA1999999085401MD1610101+9999ME1314429OA149900361REMSYN076AAXX  03214 06639 33/// /1303 11060 21204 38540 48442 56010 333 91107 91205;
0137066390999992010010322004+47000+007933FM-12+140699999V0200501N000519999999N9999999N1-00501-02161999999ADDMA1999999085391MD1710091+9999ME1314419OA149900211REMSYN076AAXX  03224 06639 33/// /0501 11050 21216 38539 48441 57009 333 91104 91203;
0137066390999992010010323004+47000+007933FM-12+140699999V0209999C000019999999N9999999N1-00531-02161999999ADDMA1999999085361MD1710081+9999ME1314399OA149900151REMSYN076AAXX  03234 06639 33/// /0000 11053 21216 38536 48439 57008 333 91103 91202;
0137066390999992010010400004+47000+007933FM-12+140699999V0203001N000519999999N9999999N1-00531-02211999999ADDMA1999999085311MD1810091+9999ME1314349OA149900411REMSYN076AAXX  04004 06639 33/// /3001 11053 21221 38531 48434 58009 333 91108 91205;
0137066390999992010010401004+47000+007933FM-12+140699999V0201101N001519999999N9999999N1-00431-02541999999ADDMA1999999085221MD1810171+9999ME1314269OA149900311REMSYN076AAXX  04014 06639 33/// /1103 11043 21254 38522 48426 58017 333 91106 91205;
0137066390999992010010402004+47000+007933FM-12+140699999V0201601N001019999999N9999999N1-00471-02401999999ADDMA1999999085211MD1610151+9999ME1314259OA149900311REMSYN076AAXX  04024 06639 33/// /1602 11047 21240 38521 48425 56015 333 91106 91205;
0137066390999992010010403004+47000+007933FM-12+140699999V0202601N001019999999N9999999N1-00501-02281999999ADDMA1999999085151MD1619999+9999ME1314199OA149900311REMSYN076AAXX  04034 06639 33/// /2602 11050 21228 38515 48419 56/// 333 91106 91205;
0137066390999992010010404004+47000+007933FM-12+140699999V0202201N001519999999N9999999N1-00561-01961999999ADDMA1999999085121MD1710101+9999ME1314179OA149900261REMSYN076AAXX  04044 06639 33/// /2203 11056 21196 38512 48417 57010 333 91105 91203;
0137066390999992010010405004+47000+007933FM-12+140699999V0201901N002619999999N9999999N1-00511-01901999999ADDMA1999999085091MD1710121+9999ME1314149OA149900361REMSYN076AAXX  04054 06639 33/// /1905 11051 21190 38509 48414 57012 333 91107 91205;
0234066390999992010010406004+47000+007933FM-12+140699999V0202001N004119999999N9999999N1-00661-01161999999ADDAA124000091AL19900091GJ104209IA2999-00609KA1999N-00691MA1999999085091MD1710061+9999ME1314149OA149900621REMSYN100AAXX  04064 06639 33/// /2008 11066 21116 38509 48414 57006 333 21069 3/106 55070 70000 91112 91209;EQDQ01  00002PRCP24
0137066390999992010010407004+47000+007933FM-12+140699999V0202201N002619999999N9999999N1-00721-00741999999ADDMA1999999085061MD1710061+9999ME1314119OA149900621REMSYN076AAXX  04074 06639 33/// /2205 11072 21074 38506 48411 57006 333 91112 91209;
0137066390999992010010408004+47000+007933FM-12+140699999V0202201N001519999999N9999999N1-00681-00761999999ADDMA1999999085061MD1710031+9999ME1314119OA149900511REMSYN076AAXX  04084 06639 33/// /2203 11068 21076 38506 48411 57003 333 91110 91208;
0137066390999992010010409004+47000+007933FM-12+140699999V0203101N001519999999N9999999N1-00751-00791999999ADDMA1999999085071MD1510021+9999ME1314129OA149900621REMSYN076AAXX  04094 06639 33/// /3103 11075 21079 38507 48412 55002 333 91112 91209;
0137066390999992010010410004+47000+007933FM-12+140699999V0203201N001019999999N9999999N1-00661-00741999999ADDMA1999999085071MD1210011+9999ME1314129OA149900361REMSYN076AAXX  04104 06639 33/// /3202 11066 21074 38507 48412 52001 333 91107 91206;
0137066390999992010010411004+47000+007933FM-12+140699999V0201901N001019999999N9999999N1-00641-00911999999ADDMA1999999085021MD1810041+9999ME1314079OA149900261REMSYN076AAXX  04114 06639 33/// /1902 11064 21091 38502 48407 58004 333 91105 91204;
0137066390999992010010412004+47000+007933FM-12+140699999V0201801N001519999999N9999999N1-00681-00721999999ADDMA1999999084951MD1810121+9999ME1314019OA149900621REMSYN076AAXX  04124 06639 33/// /1803 11068 21072 38495 48401 58012 333 91112 91209;
0137066390999992010010413004+47000+007933FM-12+140699999V0202401N001519999999N9999999N1-00621-00701999999ADDMA1999999084901MD1610171+9999ME1313969OA149900311REMSYN076AAXX  04134 06639 33/// /2403 11062 21070 38490 48396 56017 333 91106 91203;
0137066390999992010010414004+47000+007933FM-12+140699999V0201901N002119999999N9999999N1-00601-00721999999ADDMA1999999084881MD1619999+9999ME1313949OA149900311REMSYN076AAXX  04144 06639 33/// /1904 11060 21072 38488 48394 56/// 333 91106 91205;
0137066390999992010010415004+47000+007933FM-12+140699999V0202201N001019999999N9999999N1-00671-00781999999ADDMA1999999084871MD1610081+9999ME1313949OA149900311REMSYN076AAXX  04154 06639 33/// /2202 11067 21078 38487 48394 56008 333 91106 91205;
0137066390999992010010416004+47000+007933FM-12+140699999V0203101N000519999999N9999999N1-00621-00861999999ADDMA1999999084861MD1610041+9999ME1313939OA149900311REMSYN076AAXX  04164 06639 33/// /3101 11062 21086 38486 48393 56004 333 91106 91204;
0137066390999992010010417004+47000+007933FM-12+140699999V0201601N001519999999N9999999N1-00601-00991999999ADDMA1999999084851MD1610031+9999ME1313929OA149900211REMSYN076AAXX  04174 06639 33/// /1603 11060 21099 38485 48392 56003 333 91104 91203;
0156066390999992010010418004+47000+007933FM-12+140699999V0202001N001019999999N9999999N1-00561-00841999999ADDKA1120M-00591MA1999999084821MD1810051+9999ME1313899OA149900511REMSYN082AAXX  04184 06639 33/// /2002 11056 21084 38482 48389 58005 333 11059 91110 91208;
0154066390999992010010419004+47000+007933FM-12+140699999V0201601N000519999999N9999999N1-00601-00871999999ADDAA101000021MA1999999084821MD1610041+9999ME1313899OA149900211REMSYN082AAXX  04194 06639 23/// /1601 11060 21087 38482 48389 56004 333 69915 91104 91203;
0137066390999992010010420004+47000+007933FM-12+140699999V0203401N000519999999N9999999N1-00661-00721999999ADDMA1999999084801MD1710051+9999ME1313879OA149900211REMSYN076AAXX  04204 06639 33/// /3401 11066 21072 38480 48387 57005 333 91104 91203;
0137066390999992010010421004+47000+007933FM-12+140699999V0201901N001019999999N9999999N1-00561-00621999999ADDMA1999999084771MD1710051+9999ME1313849OA149900261REMSYN076AAXX  04214 06639 33/// /1902 11056 21062 38477 48384 57005 333 91105 91203;
0137066390999992010010422004+47000+007933FM-12+140699999V0202301N003119999999N9999999N1-00491-00561999999ADDMA1999999084741MD1710081+9999ME1313819OA149900411REMSYN076AAXX  04224 06639 33/// /2306 11049 21056 38474 48381 57008 333 91108 91206;
0137066390999992010010423004+47000+007933FM-12+140699999V0202201N002619999999N9999999N1-00501-00541999999ADDMA1999999084721MD1610081+9999ME1313809OA149900411REMSYN076AAXX  04234 06639 33/// /2205 11050 21054 38472 48380 56008 333 91108 91206;
0179066390999992010010500004+47000+007933FM-12+140699999V0202301N003119999999N9999999N1-00531-00561999999ADDAA106000091MA1999999084681MD1710091+9999ME1313769OA149900461REMSYN088AAXX  05004 06639 03/// /2306 11053 21056 38468 48376 57009 69911 333 60005 91109 91207;EQDQ01  00002PRCP06
0137066390999992010010501004+47000+007933FM-12+140699999V0202501N001519999999N9999999N1-00511-00541999999ADDMA1999999084631MD1710111+9999ME1313719OA149900461REMSYN076AAXX  05014 06639 33/// /2503 11051 21054 38463 48371 57011 333 91109 91207;
0154066390999992010010502004+47000+007933FM-12+140699999V0202501N002619999999N9999999N1-00471-00541999999ADDAA101000021MA1999999084601MD1710121+9999ME1313689OA149900461REMSYN082AAXX  05024 06639 23/// /2505 11047 21054 38460 48368 57012 333 69915 91109 91206;
0137066390999992010010503004+47000+007933FM-12+140699999V0202201N001519999999N9999999N1-00471-00521999999ADDMA1999999084561MD1810121+9999ME1313659OA149900461REMSYN076AAXX  05034 06639 33/// /2203 11047 21052 38456 48365 58012 333 91109 91207;
0154066390999992010010504004+47000+007933FM-12+140699999V0202401N001519999999N9999999N1-00461-00511999999ADDAA101000021MA1999999084481MD1810151+9999ME1313579OA149900461REMSYN082AAXX  05044 06639 23/// /2403 11046 21051 38448 48357 58015 333 69915 91109 91205;
0137066390999992010010505004+47000+007933FM-12+140699999V0202101N001519999999N9999999N1-00411-00491999999ADDMA1999999084441MD1710161+9999ME1313539OA149900411REMSYN076AAXX  05054 06639 33/// /2103 11041 21049 38444 48353 57016 333 91108 91205;
0238066390999992010010506004+47000+007933FM-12+140699999V0202201N002119999999N9999999N1-00391-00461999999ADDAA112000391AA224000391AL11800091GJ100009IA2999-00209KA1999N-00661MA1999999084391MD1610171+9999ME1313499OA149900461REMSYN112AAXX  05064 06639 03/// /2204 11039 21046 38439 48349 56017 69932 333 21066 3/102 55000 60005 70003 91109 91207;
0137066390999992010010507004+47000+007933FM-12+140699999V0202101N002119999999N9999999N1-00341-00451999999ADDMA1999999084361MD1710121+9999ME1313469OA149900361REMSYN076AAXX  05074 06639 33/// /2104 11034 21045 38436 48346 57012 333 91107 91206;
0154066390999992010010508004+47000+007933FM-12+140699999V0202601N001519999999N9999999N1-00341-00401999999ADDAA101000391MA1999999084341MD1710101+9999ME1313449OA149900511REMSYN082AAXX  05084 06639 23/// /2603 11034 21040 38434 48344 57010 333 69935 91110 91205;
0154066390999992010010509004+47000+007933FM-12+140699999V0202301N002119999999N9999999N1-00321-00401999999ADDAA101000021MA1999999084331MD1710061+9999ME1313439OA149900511REMSYN082AAXX  05094 06639 23/// /2304 11032 21040 38433 48343 57006 333 69915 91110 91206;
0154066390999992010010510004+47000+007933FM-12+140699999V0203101N002119999999N9999999N1-00351-00401999999ADDAA101000021MA1999999084281MD1710081+9999ME1313389OA149900461REMSYN082AAXX  05104 06639 23/// /3104 11035 21040 38428 48338 57008 333 69915 91109 91205;
0154066390999992010010511004+47000+007933FM-12+140699999V0202001N001019999999N9999999N1-00321-00361999999ADDAA101000021MA1999999084241MD1710101+9999ME1313349OA149900461REMSYN082AAXX  05114 06639 23/// /2002 11032 21036 38424 48334 57010 333 69915 91109 91204;
0160066390999992010010512004+47000+007933FM-12+140699999V0201901N001019999999N9999999N1-00311-00361999999ADDAA106000891MA1999999084191MD1710141+9999ME1313309OA149900511REMSYN088AAXX  05124 06639 03/// /1902 11031 21036 38419 48330 57014 69981 333 69925 91110 91206;
0137066390999992010010513004+47000+007933FM-12+140699999V0201701N000519999999N9999999N1-00301-00321999999ADDMA1999999084121MD1810161+9999ME1313239OA149900261REMSYN076AAXX  05134 06639 33/// /1701 11030 21032 38412 48323 58016 333 91105 91203;
0096066390999992010010514004+47000+007933FM-12+140699999V0202701N001019999999N9999999N1-00241-00331999999ADDMA1999999084081ME1313199REMSYN060AAXX  05144 06639 33/// /2702 11024 21033 38408 48319 5////;
0137066390999992010010515004+47000+007933FM-12+140699999V0202401N002119999999N9999999N1-00241-00341999999ADDMA1999999084071MD1710121+9999ME1313189OA149900461REMSYN076AAXX  05154 06639 33/// /2404 11024 21034 38407 48318 57012 333 91109 91204;
0137066390999992010010516004+47000+007933FM-12+140699999V0202801N002119999999N9999999N1-00291-00311999999ADDMA1999999084051MD1710071+9999ME1313169OA149900411REMSYN076AAXX  05164 06639 33/// /2804 11029 21031 38405 48316 57007 333 91108 91204;
0154066390999992010010517004+47000+007933FM-12+140699999V0202701N002619999999N9999999N1-00271-00331999999ADDAA101000021MA1999999084041MD1710041+9999ME1313159OA149900461REMSYN082AAXX  05174 06639 23/// /2705 11027 21033 38404 48315 57004 333 69915 91109 91205;
0179066390999992010010518004+47000+007933FM-12+140699999V0202601N001519999999N9999999N1-00281-00301999999ADDAA112001091KA1120M-00221MA1999999084011MD1710061+9999ME1313129OA149900511REMSYN094AAXX  05184 06639 03/// /2603 11028 21030 38401 48312 57006 69992 333 11022 60005 91110 91206;
0137066390999992010010519004+47000+007933FM-12+140699999V0203001N002619999999N9999999N1-00301-00321999999ADDMA1999999084001MD1710051+9999ME1313129OA149900511REMSYN076AAXX  05194 06639 33/// /3005 11030 21032 38400 48312 57005 333 91110 91206;
0154066390999992010010520004+47000+007933FM-12+140699999V0203001N002119999999N9999999N1-00331-00331999999ADDAA101000021MA1999999083961MD1710081+9999ME1313089OA149900411REMSYN082AAXX  05204 06639 23/// /3004 11033 21033 38396 48308 57008 333 69915 91108 91205;
0137066390999992010010521004+47000+007933FM-12+140699999V0202701N002119999999N9999999N1-00271-00371999999ADDMA1999999083951MD1710061+9999ME1313079OA149900511REMSYN076AAXX  05214 06639 33/// /2704 11027 21037 38395 48307 57006 333 91110 91206;
0137066390999992010010522004+47000+007933FM-12+140699999V0202201N002619999999N9999999N1-00291-00361999999ADDMA1999999083921MD1610081+9999ME1313049OA149900511REMSYN076AAXX  05224 06639 33/// /2205 11029 21036 38392 48304 56008 333 91110 91206;
0137066390999992010010523004+47000+007933FM-12+140699999V0202401N004119999999N9999999N1-00281-00401999999ADDMA1999999083911MD1710051+9999ME1313039OA149900571REMSYN076AAXX  05234 06639 33/// /2408 11028 21040 38391 48303 57005 333 91111 91208;
0179066390999992010010600004+47000+007933FM-12+140699999V0202301N003619999999N9999999N1-00311-00391999999ADDAA106000091MA1999999083881MD1710071+9999ME1313009OA149900571REMSYN088AAXX  06004 06639 03/// /2307 11031 21039 38388 48300 57007 69911 333 60005 91111 91208;EQDQ01  00002PRCP06
0154066390999992010010601004+47000+007933FM-12+140699999V0202201N004119999999N9999999N1-00351-00381999999ADDAA101000021MA1999999083861MD1710061+9999ME1312989OA149900571REMSYN082AAXX  06014 06639 23/// /2208 11035 21038 38386 48298 57006 333 69925 91111 91208;
0154066390999992010010602004+47000+007933FM-12+140699999V0202301N005119999999N9999999N1-00401-00411999999ADDAA101000591MA1999999083881MD1510031+9999ME1313019OA149900671REMSYN082AAXX  06024 06639 23/// /2310 11040 21041 38388 48301 55003 333 69945 91113 91210;
0137066390999992010010603004+47000+007933FM-12+140699999V0202201N004619999999N9999999N1-00401-00421999999ADDMA1999999083881MD1510001+9999ME1313019OA149900671REMSYN076AAXX  06034 06639 33/// /2209 11040 21042 38388 48301 55000 333 91113 91210;
0154066390999992010010604004+47000+007933FM-12+140699999V0202701N004119999999N9999999N1-00451-00581999999ADDAA101000391MA1999999083871MD1010011+9999ME1313009OA149900771REMSYN082AAXX  06044 06639 23/// /2708 11045 21058 38387 48300 50001 333 69935 91115 91210;
0137066390999992010010605004+47000+007933FM-12+140699999V0202901N004119999999N9999999N1-00481-00511999999ADDMA1999999083881MD1510001+9999ME1313019OA149900771REMSYN076AAXX  06054 06639 33/// /2908 11048 21051 38388 48301 55000 333 91115 91209;
0238066390999992010010606004+47000+007933FM-12+140699999V0202901N002119999999N9999999N1-00631-00631999999ADDAA112001091AA224001891AL14800191GJ100009IA2999-00609KA1999N-00611MA1999999083891MD1210011+9999ME1313029OA149900771REMSYN112AAXX  06064 06639 03/// /2904 11063 21063 38389 48302 52001 60012 333 21061 3/106 55000 60005 70019 91115 91210;
0137066390999992010010607004+47000+007933FM-12+140699999V0202001N002119999999N9999999N1-00621-00621999999ADDMA1999999083921MD1210051+9999ME1313059OA149900671REMSYN076AAXX  06074 06639 33/// /2004 11062 21062 38392 48305 52005 333 91113 91206;
0137066390999992010010608004+47000+007933FM-12+140699999V0202201N002619999999N9999999N1-00651-00651999999ADDMA1999999083961MD1210081+9999ME1313099OA149900511REMSYN076AAXX  06084 06639 33/// /2205 11065 21065 38396 48309 52008 333 91110 91207;
0137066390999992010010609004+47000+007933FM-12+140699999V0202401N003119999999N9999999N1-00671-00671999999ADDMA1999999083991MD1310101+9999ME1313129OA149900771REMSYN076AAXX  06094 06639 33/// /2406 11067 21067 38399 48312 53010 333 91115 91209;
0137066390999992010010610004+47000+007933FM-12+140699999V0202301N002119999999N9999999N1-00681-00681999999ADDMA1999999084031MD1110111+9999ME1313169OA149900461REMSYN076AAXX  06104 06639 33/// /2304 11068 21068 38403 48316 51011 333 91109 91206;
0137066390999992010010611004+47000+007933FM-12+140699999V0202101N002619999999N9999999N1-00681-00681999999ADDMA1999999084011MD1019999+9999ME1313149OA149900461REMSYN076AAXX  06114 06639 33/// /2105 11068 21068 38401 48314 50/// 333 91109 91205;
0137066390999992010010612004+47000+007933FM-12+140699999V0202301N003619999999N9999999N1-00651-00661999999ADDMA1999999084001MD1010011+9999ME1313139OA149900771REMSYN076AAXX  06124 06639 33/// /2307 11065 21066 38400 48313 50001 333 91115 91210;
0137066390999992010010613004+47000+007933FM-12+140699999V0202301N002619999999N9999999N1-00651-00651999999ADDMA1999999084011MD1510021+9999ME1313149OA149900571REMSYN076AAXX  06134 06639 33/// /2305 11065 21065 38401 48314 55002 333 91111 91207;
0137066390999992010010614004+47000+007933FM-12+140699999V0202401N002119999999N9999999N1-00701-00701999999ADDMA1999999084031MD1219999+9999ME1313169OA149900571REMSYN076AAXX  06144 06639 33/// /2404 11070 21070 38403 48316 52/// 333 91111 91207;
0137066390999992010010615004+47000+007933FM-12+140699999V0202101N002119999999N9999999N1-00711-00711999999ADDMA1999999084061MD1219999+9999ME1313199OA149900571REMSYN076AAXX  06154 06639 33/// /2104 11071 21071 38406 48319 52/// 333 91111 91207;
0137066390999992010010616004+47000+007933FM-12+140699999V0202301N003619999999N9999999N1-00711-00711999999ADDMA1999999084091MD1210081+9999ME1313219OA149900671REMSYN076AAXX  06164 06639 33/// /2307 11071 21071 38409 48321 52008 333 91113 91207;
0137066390999992010010617004+47000+007933FM-12+140699999V0202301N004619999999N9999999N1-00701-00701999999ADDMA1999999084131MD1210101+9999ME1313259OA149900821REMSYN076AAXX  06174 06639 33/// /2309 11070 21070 38413 48325 52010 333 91116 91209;
0156066390999992010010618004+47000+007933FM-12+140699999V0202301N006219999999N9999999N1-00731-00731999999ADDKA1120M-00581MA1999999084171MD1219999+9999ME1313299OA149900981REMSYN082AAXX  06184 06639 33/// /2312 11073 21073 38417 48329 52/// 333 11058 91119 91212;
0137066390999992010010619004+47000+007933FM-12+140699999V0202301N006719999999N9999999N1-00761-00761999999ADDMA1999999084191MD1210101+9999ME1313319OA149901241REMSYN076AAXX  06194 06639 33/// /2313 11076 21076 38419 48331 52010 333 91124 91213;
0137066390999992010010620004+47000+007933FM-12+140699999V0202101N005119999999N9999999N1-00771-00771999999ADDMA1999999084221MD1310091+9999ME1313349OA149901241REMSYN076AAXX  06204 06639 33/// /2110 11077 21077 38422 48334 53009 333 91124 91213;
0137066390999992010010621004+47000+007933FM-12+140699999V0202001N004619999999N9999999N1-00731-00771999999ADDMA1999999084231MD1210061+9999ME1313349OA149901241REMSYN076AAXX  06214 06639 33/// /2009 11073 21077 38423 48334 52006 333 91124 91213;
0137066390999992010010622004+47000+007933FM-12+140699999V0202201N004119999999N9999999N1-00811-00811999999ADDMA1999999084271MD1210081+9999ME1313389OA149900771REMSYN076AAXX  06224 06639 33/// /2208 11081 21081 38427 48338 52008 333 91115 91210;
0137066390999992010010623004+47000+007933FM-12+140699999V0202201N004119999999N9999999N1-00811-00811999999ADDMA1999999084291MD1210071+9999ME1313409OA149900931REMSYN076AAXX  06234 06639 33/// /2208 11081 21081 38429 48340 52007 333 91118 91210;
0137066390999992010010700004+47000+007933FM-12+140699999V0202101N004619999999N9999999N1-00801-00801999999ADDMA1999999084301MD1210071+9999ME1313419OA149901241REMSYN076AAXX  07004 06639 33/// /2109 11080 21080 38430 48341 52007 333 91124 91213;
0154066390999992010010701004+47000+007933FM-12+140699999V0202301N006719999999N9999999N1-00781-00781999999ADDAA101000021MA1999999084321MD1210051+9999ME1313439OA149900931REMSYN082AAXX  07014 06639 23/// /2313 11078 21078 38432 48343 52005 333 69915 91118 91213;
0137066390999992010010702004+47000+007933FM-12+140699999V0202301N004119999999N9999999N1-00811-00811999999ADDMA1999999084351MD1219999+9999ME1313469OA149900931REMSYN076AAXX  07024 06639 33/// /2308 11081 21081 38435 48346 52/// 333 91118 91213;
0137066390999992010010703004+47000+007933FM-12+140699999V0202401N004619999999N9999999N1-00781-00781999999ADDMA1999999084341MD1210041+9999ME1313459OA149900931REMSYN076AAXX  07034 06639 33/// /2409 11078 21078 38434 48345 52004 333 91118 91213;
0137066390999992010010704004+47000+007933FM-12+140699999V0202101N004119999999N9999999N1-00841-00851999999ADDMA1999999084331MD1010011+9999ME1313449OA149900881REMSYN076AAXX  07044 06639 33/// /2108 11084 21085 38433 48344 50001 333 91117 91210;
0137066390999992010010705004+47000+007933FM-12+140699999V0203301N001019999999N9999999N1-00931-00931999999ADDMA1999999084341MD1710011+9999ME1313459OA149900881REMSYN076AAXX  07054 06639 33/// /3302 11093 21093 38434 48345 57001 333 91117 91210;
0273066390999992010010706004+47000+007933FM-12+140699999V0202201N002119999999N9999999N1-00861-00921999999ADDAA112000091AA224000091AL10600091GJ100009IA2999-01709KA1999N-00931MA1999999084371MD1310031+9999ME1313489OA149901241REMSYN112AAXX  07064 06639 03/// /2204 11086 21092 38437 48348 53003 69912 333 21093 3/117 55000 60005 70001 91124 91213;EQDQ01  00002PRCP24Q02  00002PRCP12
0137066390999992010010707004+47000+007933FM-12+140699999V0201501N000519999999N9999999N1-00871-00901999999ADDMA1999999084411MD1210081+9999ME1313519OA149900411REMSYN076AAXX  07074 06639 33/// /1501 11087 21090 38441 48351 52008 333 91108 91205;
0137066390999992010010708004+47000+007933FM-12+140699999V0203501N000519999999N9999999N1-00901-00901999999ADDMA1999999084461MD1319999+9999ME1313569OA149900311REMSYN076AAXX  07084 06639 33/// /3501 11090 21090 38446 48356 53/// 333 91106 91204;
0137066390999992010010709004+47000+007933FM-12+140699999V0201201N001019999999N9999999N1-00721-00851999999ADDMA1999999084501MD1110131+9999ME1313599OA149900881REMSYN076AAXX  07094 06639 33/// /1202 11072 21085 38450 48359 51013 333 91117 91210;
0137066390999992010010710004+47000+007933FM-12+140699999V0201801N000519999999N9999999N1-00651-00661999999ADDMA1999999084561MD1310151+9999ME1313659OA149900261REMSYN076AAXX  07104 06639 33/// /1801 11065 21066 38456 48365 53015 333 91105 91204;
0137066390999992010010711004+47000+007933FM-12+140699999V0201401N001019999999N9999999N1-00761-00761999999ADDMA1999999084561MD1210101+9999ME1313659OA149900261REMSYN076AAXX  07114 06639 33/// /1402 11076 21076 38456 48365 52010 333 91105 91203;
0137066390999992010010712004+47000+007933FM-12+140699999V0201801N001019999999N9999999N1-00661-00851999999ADDMA1999999084541MD1010041+9999ME1313639OA149900931REMSYN076AAXX  07124 06639 33/// /1802 11066 21085 38454 48363 50004 333 91118 91213;
0137066390999992010010713004+47000+007933FM-12+140699999V0202101N001519999999N9999999N1-00631-00751999999ADDMA1999999084561MD1019999+9999ME1313659OA149900311REMSYN076AAXX  07134 06639 33/// /2103 11063 21075 38456 48365 50/// 333 91106 91203;
0096066390999992010010715004+47000+007933FM-12+140699999V0202201N003619999999N9999999N1-00631-01131999999ADDMA1999999084631ME1313719REMSYN060AAXX  07154 06639 43/// /2207 11063 21113 38463 48371 5////;
0137066390999992010010716004+47000+007933FM-12+140699999V0202201N003119999999N9999999N1-00681-01071999999ADDMA1999999084681MD1219999+9999ME1313769OA149900571REMSYN076AAXX  07164 06639 33/// /2206 11068 21107 38468 48376 52/// 333 91111 91207;
0137066390999992010010717004+47000+007933FM-12+140699999V0202101N001519999999N9999999N1-00641-01111999999ADDMA1999999084691MD1219999+9999ME1313779OA149900511REMSYN076AAXX  07174 06639 33/// /2103 11064 21111 38469 48377 52/// 333 91110 91207;
0156066390999992010010718004+47000+007933FM-12+140699999V0202901N001519999999N9999999N1-00651-00981999999ADDKA1120M-00591MA1999999084711MD1219999+9999ME1313799OA149900571REMSYN082AAXX  07184 06639 33/// /2903 11065 21098 38471 48379 52/// 333 11059 91111 91207;
0137066390999992010010719004+47000+007933FM-12+140699999V0201201N001519999999N9999999N1-00621-01101999999ADDMA1999999084731MD1210051+9999ME1313819OA149900361REMSYN076AAXX  07194 06639 33/// /1203 11062 21110 38473 48381 52005 333 91107 91204;
0137066390999992010010720004+47000+007933FM-12+140699999V0201301N001519999999N9999999N1-00581-01191999999ADDMA1999999084731MD1210041+9999ME1313819OA149900151REMSYN076AAXX  07204 06639 33/// /1303 11058 21119 38473 48381 52004 333 91103 91203;
0137066390999992010010721004+47000+007933FM-12+140699999V0200901N002119999999N9999999N1-00591-01111999999ADDMA1999999084731MD1210021+9999ME1313819OA149900511REMSYN076AAXX  07214 06639 33/// /0904 11059 21111 38473 48381 52002 333 91110 91207;
0137066390999992010010722004+47000+007933FM-12+140699999V0200901N004619999999N9999999N1-00681-01061999999ADDMA1999999084701MD1710031+9999ME1313789OA149900671REMSYN076AAXX  07224 06639 33/// /0909 11068 21106 38470 48378 57003 333 91113 91209;
0137066390999992010010723004+47000+007933FM-12+140699999V0200801N005119999999N9999999N1-00681-01051999999ADDMA1999999084691MD1710041+9999ME1313779OA149900771REMSYN076AAXX  07234 06639 33/// /0810 11068 21105 38469 48377 57004 333 91115 91210;
0137066390999992010010800004+47000+007933FM-12+140699999V0200601N004119999999N9999999N1-00701-00991999999ADDMA1999999084661MD1810071+9999ME1313749OA149900821REMSYN076AAXX  08004 06639 33/// /0608 11070 21099 38466 48374 58007 333 91116 91212;
0137066390999992010010801004+47000+007933FM-12+140699999V0200601N005119999999N9999999N1-00721-00901999999ADDMA1999999084611MD1810091+9999ME1313709OA149900931REMSYN076AAXX  08014 06639 33/// /0610 11072 21090 38461 48370 58009 333 91118 91212;
0137066390999992010010802004+47000+007933FM-12+140699999V0200201N002619999999N9999999N1-00801-00841999999ADDMA1999999084601MD1619999+9999ME1313699OA149900931REMSYN076AAXX  08024 06639 33/// /0205 11080 21084 38460 48369 56/// 333 91118 91210;
0137066390999992010010803004+47000+007933FM-12+140699999V0200101N003119999999N9999999N1-00811-00811999999ADDMA1999999084561MD1819999+9999ME1313659OA149900931REMSYN076AAXX  08034 06639 33/// /0106 11081 21081 38456 48365 58/// 333 91118 91212;
0137066390999992010010804004+47000+007933FM-12+140699999V0203501N004119999999N9999999N1-00821-00821999999ADDMA1999999084501MD1810111+9999ME1313609OA149900881REMSYN076AAXX  08044 06639 33/// /3508 11082 21082 38450 48360 58011 333 91117 91209;
0137066390999992010010805004+47000+007933FM-12+140699999V0203501N004119999999N9999999N1-00811-00811999999ADDMA1999999084421MD1810181+9999ME1313529OA149900881REMSYN076AAXX  08054 06639 33/// /3508 11081 21081 38442 48352 58018 333 91117 91209;
0234066390999992010010806004+47000+007933FM-12+140699999V0203501N004119999999N9999999N1-00841-00841999999ADDAA124000091AL19900091GJ101149IA2999-01009KA1999N-00831MA1999999084391MD1610171+9999ME1313509OA149900981REMSYN100AAXX  08064 06639 33/// /3508 11084 21084 38439 48350 56017 333 21083 3/110 55019 70000 91119 91212;EQDQ01  00002PRCP24
0137066390999992010010807004+47000+007933FM-12+140699999V0200101N003619999999N9999999N1-00841-00841999999ADDMA1999999084351MD1610151+9999ME1313469OA149901081REMSYN076AAXX  08074 06639 33/// /0107 11084 21084 38435 48346 56015 333 91121 91209;
0137066390999992010010808004+47000+007933FM-12+140699999V0209999C003619999999N9999999N1-00831-00831999999ADDMA1999999084321MD1710101+9999ME1313439OA149901241REMSYN076AAXX  08084 06639 33/// /0007 11083 21083 38432 48343 57010 333 91124 91209;
0137066390999992010010809004+47000+007933FM-12+140699999V0209999C004119999999N9999999N1-00831-00831999999ADDMA1999999084261MD1710131+9999ME1313379OA149901291REMSYN076AAXX  08094 06639 33/// /0008 11083 21083 38426 48337 57013 333 91125 91209;
0137066390999992010010810004+47000+007933FM-12+140699999V0203501N003619999999N9999999N1-00841-00841999999ADDMA1999999084231MD1710121+9999ME1313359OA149901291REMSYN076AAXX  08104 06639 33/// /3507 11084 21084 38423 48335 57012 333 91125 91209;
0137066390999992010010811004+47000+007933FM-12+140699999V0203501N004119999999N9999999N1-00891-00891999999ADDMA1999999084171MD1810151+9999ME1313299OA149901131REMSYN076AAXX  08114 06639 33/// /3508 11089 21089 38417 48329 58015 333 91122 91208;
0137066390999992010010812004+47000+007933FM-12+140699999V0209999C003619999999N9999999N1-00891-00891999999ADDMA1999999084101MD1810161+9999ME1313239OA149901291REMSYN076AAXX  08124 06639 33/// /0007 11089 21089 38410 48323 58016 333 91125 91210;
0137066390999992010010813004+47000+007933FM-12+140699999V0200101N003619999999N9999999N1-00911-00911999999ADDMA1999999084051MD1710181+9999ME1313189OA149901081REMSYN076AAXX  08134 06639 33/// /0107 11091 21091 38405 48318 57018 333 91121 91208;
0143066390999992010010814004+47000+007933FM-12+140699999V0203601N003619999999N9999999N1-00901-00901999999ADDMA1999999084041MD1719999+9999ME1313179OA149901081REMSYN082AAXX  08144 06639 33/// /3607 11090 21090 38404 48317 57/// 91340 333 91121 91207;
0137066390999992010010815004+47000+007933FM-12+140699999V0203601N003119999999N9999999N1-00891-00891999999ADDMA1999999084081MD1510021+9999ME1313219OA149901131REMSYN076AAXX  08154 06639 33/// /3606 11089 21089 38408 48321 55002 333 91122 91208;
0137066390999992010010816004+47000+007933FM-12+140699999V0203501N002619999999N9999999N1-00851-00851999999ADDMA1999999084121MD1210071+9999ME1313259OA149900931REMSYN076AAXX  08164 06639 33/// /3505 11085 21085 38412 48325 52007 333 91118 91207;
0137066390999992010010817004+47000+007933FM-12+140699999V0203601N002119999999N9999999N1-00851-00851999999ADDMA1999999084161MD1110121+9999ME1313289OA149900821REMSYN076AAXX  08174 06639 33/// /3604 11085 21085 38416 48328 51012 333 91116 91205;
0156066390999992010010818004+47000+007933FM-12+140699999V0203501N003119999999N9999999N1-00871-00871999999ADDKA1120M-00821MA1999999084161MD1210081+9999ME1313289OA149901291REMSYN082AAXX  08184 06639 33/// /3506 11087 21087 38416 48328 52008 333 11082 91125 91209;
0137066390999992010010819004+47000+007933FM-12+140699999V0200101N003619999999N9999999N1-00881-00881999999ADDMA1999999084141MD1010021+9999ME1313279OA149901181REMSYN076AAXX  08194 06639 33/// /0107 11088 21088 38414 48327 50002 333 91123 91207;
0137066390999992010010820004+47000+007933FM-12+140699999V0203601N003119999999N9999999N1-00891-00891999999ADDMA1999999084141MD1710021+9999ME1313279OA149901181REMSYN076AAXX  08204 06639 33/// /3606 11089 21089 38414 48327 57002 333 91123 91207;
0137066390999992010010821004+47000+007933FM-12+140699999V0209999C003619999999N9999999N1-00911-00911999999ADDMA1999999084151MD1510011+9999ME1313289OA149901181REMSYN076AAXX  08214 06639 33/// /0007 11091 21091 38415 48328 55001 333 91123 91207;
0137066390999992010010822004+47000+007933FM-12+140699999V0203501N002119999999N9999999N1-00971-00971999999ADDMA1999999084171MD1210031+9999ME1313309OA149901181REMSYN076AAXX  08224 06639 33/// /3504 11097 21097 38417 48330 52003 333 91123 91207;
0137066390999992010010823004+47000+007933FM-12+140699999V0200101N002619999999N9999999N1-00961-00961999999ADDMA1999999084191MD1310051+9999ME1313319OA149900821REMSYN076AAXX  08234 06639 33/// /0105 11096 21096 38419 48331 53005 333 91116 91207;
0137066390999992010010900004+47000+007933FM-12+140699999V0203601N002619999999N9999999N1-00941-00941999999ADDMA1999999084161MD1010011+9999ME1313299OA149901181REMSYN076AAXX  09004 06639 33/// /3605 11094 21094 38416 48329 50001 333 91123 91207;
0137066390999992010010901004+47000+007933FM-12+140699999V0203601N002619999999N9999999N1-00941-00941999999ADDMA1999999084151MD1710021+9999ME1313289OA149900881REMSYN076AAXX  09014 06639 33/// /3605 11094 21094 38415 48328 57002 333 91117 91207;
0137066390999992010010902004+47000+007933FM-12+140699999V0200101N002119999999N9999999N1-00991-00991999999ADDMA1999999084151MD1519999+9999ME1313289OA149900881REMSYN076AAXX  09024 06639 33/// /0104 11099 21099 38415 48328 55/// 333 91117 91207;
0137066390999992010010903004+47000+007933FM-12+140699999V0200201N001519999999N9999999N1-01021-01021999999ADDMA1999999084161MD1319999+9999ME1313299OA149900981REMSYN076AAXX  09034 06639 33/// /0203 11102 21102 38416 48329 53/// 333 91119 91207;
0137066390999992010010904004+47000+007933FM-12+140699999V0209999C002119999999N9999999N1-01011-01011999999ADDMA1999999084091MD1710061+9999ME1313229OA149900981REMSYN076AAXX  09044 06639 33/// /0004 11101 21101 38409 48322 57006 333 91119 91205;
0137066390999992010010905004+47000+007933FM-12+140699999V0209999C001519999999N9999999N1-01031-01031999999ADDMA1999999084071MD1710081+9999ME1313219OA149900771REMSYN076AAXX  09054 06639 33/// /0003 11103 21103 38407 48321 57008 333 91115 91205;
0234066390999992010010906004+47000+007933FM-12+140699999V0200101N002619999999N9999999N1-01031-01031999999ADDAA124000091AL19900091GJ100009IA2999-00909KA1999N-01051MA1999999084011MD1710151+9999ME1313159OA149901181REMSYN100AAXX  09064 06639 33/// /0105 11103 21103 38401 48315 57015 333 21105 3/109 55000 70000 91123 91207;EQDQ01  00002PRCP24
0137066390999992010010907004+47000+007933FM-12+140699999V0200201N001019999999N9999999N1-01071-01071999999ADDMA1999999084031MD1710061+9999ME1313179OA149900821REMSYN076AAXX  09074 06639 33/// /0202 11107 21107 38403 48317 57006 333 91116 91206;
0120066390999992010010908004+47000+007933FM-12+140699999V0200101N003119999999N9999999N1-01091-01091999999ADDMA1999999084031MD1510041+9999ME1313179REMSYN070AAXX  09084 06639 33/// /0106 11109 21109 38403 48317 55004 333 91116;
0120066390999992010010909004+47000+007933FM-12+140699999V0209999C000019999999N9999999N1-01071-01071999999ADDMA1999999084061MD1210051+9999ME1313209REMSYN070AAXX  09094 06639 33/// /0000 11107 21107 38406 48320 52005 333 91116;
0120066390999992010010910004+47000+007933FM-12+140699999V0200201N002119999999N9999999N1-01131-01131999999ADDMA1999999084051MD1210021+9999ME1313199REMSYN070AAXX  09104 06639 33/// /0204 11113 21113 38405 48319 52002 333 91114;
0137066390999992010010911004+47000+007933FM-12+140699999V0200101N002119999999N9999999N1-01121-01121999999ADDMA1999999084021MD1810011+9999ME1313169OA149900721REMSYN076AAXX  09114 06639 33/// /0104 11112 21112 38402 48316 58001 333 91114 91204;
0120066390999992010010912004+47000+007933FM-12+140699999V0200101N002119999999N9999999N1-01091-01091999999ADDMA1999999084001MD1710061+9999ME1313149REMSYN070AAXX  09124 06639 33/// /0104 11109 21109 38400 48314 57006 333 91119;
0137066390999992010010913004+47000+007933FM-12+140699999V0203501N003119999999N9999999N1-01101-01101999999ADDMA1999999083971MD1710081+9999ME1313129OA149900771REMSYN076AAXX  09134 06639 33/// /3506 11110 21110 38397 48312 57008 333 91115 91206;
0137066390999992010010914004+47000+007933FM-12+140699999V0203501N002619999999N9999999N1-01091-01091999999ADDMA1999999084011MD1510011+9999ME1313159OA149900721REMSYN076AAXX  09144 06639 33/// /3505 11109 21109 38401 48315 55001 333 91114 91206;
0137066390999992010010915004+47000+007933FM-12+140699999V0203601N001519999999N9999999N1-01121-01121999999ADDMA1999999084031MD1210031+9999ME1313179OA149900771REMSYN076AAXX  09154 06639 33/// /3603 11112 21112 38403 48317 52003 333 91115 91206;
0137066390999992010010916004+47000+007933FM-12+140699999V0203501N002619999999N9999999N1-01121-01121999999ADDMA1999999084031MD1210061+9999ME1313179OA149900671REMSYN076AAXX  09164 06639 33/// /3505 11112 21112 38403 48317 52006 333 91113 91205;
0137066390999992010010917004+47000+007933FM-12+140699999V0203501N003119999999N9999999N1-01121-01121999999ADDMA1999999084041MD1010031+9999ME1313189OA149900721REMSYN076AAXX  09174 06639 33/// /3506 11112 21112 38404 48318 50003 333 91114 91206;
0139066390999992010010918004+47000+007933FM-12+140699999V0203501N002619999999N9999999N1-01141-01141999999ADDKA1120M-01031MA1999999084071MD1310041+9999ME1313219REMSYN076AAXX  09184 06639 33/// /3505 11114 21114 38407 48321 53004 333 11103 91116;
0137066390999992010010919004+47000+007933FM-12+140699999V0203601N002619999999N9999999N1-01161-01161999999ADDMA1999999084101MD1310071+9999ME1313249OA149900771REMSYN076AAXX  09194 06639 33/// /3605 11116 21116 38410 48324 53007 333 91115 91205;
0137066390999992010010920004+47000+007933FM-12+140699999V0200101N000519999999N9999999N1-01161-01161999999ADDMA1999999084131MD1110091+9999ME1313269OA149900771REMSYN076AAXX  09204 06639 33/// /0101 11116 21116 38413 48326 51009 333 91115 91206;
0137066390999992010010921004+47000+007933FM-12+140699999V0203501N001519999999N9999999N1-01161-01161999999ADDMA1999999084181MD1310111+9999ME1313319OA149900771REMSYN076AAXX  09214 06639 33/// /3503 11116 21116 38418 48331 53011 333 91115 91206;
0137066390999992010010922004+47000+007933FM-12+140699999V0203501N002119999999N9999999N1-01171-01171999999ADDMA1999999084201MD1210101+9999ME1313339OA149900721REMSYN076AAXX  09224 06639 33/// /3504 11117 21117 38420 48333 52010 333 91114 91204;
0137066390999992010010923004+47000+007933FM-12+140699999V0203501N001519999999N9999999N1-01171-01171999999ADDMA1999999084231MD1210101+9999ME1313369OA149900311REMSYN076AAXX  09234 06639 33/// /3503 11117 21117 38423 48336 52010 333 91106 91204;
0137066390999992010011000004+47000+007933FM-12+140699999V0200701N001019999999N9999999N1-01171-01171999999ADDMA1999999084251MD1210071+9999ME1313379OA149900771REMSYN076AAXX  10004 06639 33/// /0702 11117 21117 38425 48337 52007 333 91115 91206;
0137066390999992010011001004+47000+007933FM-12+140699999V0201301N001519999999N9999999N1-01161-01161999999ADDMA1999999084281MD1110081+9999ME1313409OA149900211REMSYN076AAXX  10014 06639 33/// /1303 11116 21116 38428 48340 51008 333 91104 91203;
0096066390999992010011002004+47000+007933FM-12+140699999V0202401N002119999999N9999999N1-01201-01201999999ADDMA1999999084331ME1313459REMSYN060AAXX  10024 06639 33/// /2404 11120 21120 38433 48345 5////;
0096066390999992010011003004+47000+007933FM-12+140699999V0202801N001019999999N9999999N1-01131-01131999999ADDMA1999999084381ME1313499REMSYN060AAXX  10034 06639 43/// /2802 11113 21113 38438 48349 5////;
0137066390999992010011004004+47000+007933FM-12+140699999V0202401N001519999999N9999999N1-01151-01151999999ADDMA1999999084421MD1110141+9999ME1313539OA149900311REMSYN076AAXX  10044 06639 33/// /2403 11115 21115 38442 48353 51014 333 91106 91204;
0137066390999992010011005004+47000+007933FM-12+140699999V0202301N003619999999N9999999N1-01131-01131999999ADDMA1999999084461MD1110131+9999ME1313579OA149900511REMSYN076AAXX  10054 06639 33/// /2307 11113 21113 38446 48357 51013 333 91110 91207;
0234066390999992010011006004+47000+007933FM-12+140699999V0209999C000019999999N9999999N1-01111-01111999999ADDAA124000091AL19900091GJ100009IA2999-01309KA1999N-01201MA1999999084501MD1110121+9999ME1313609OA149900771REMSYN100AAXX  10064 06639 33/// /0000 11111 21111 38450 48360 51012 333 21120 3/113 55000 70000 91115 91207;EQDQ01  00002PRCP24
0120066390999992010011007004+47000+007933FM-12+140699999V0209999C003119999999N9999999N1-01131-01131999999ADDMA1999999084561MD1310141+9999ME1313669REMSYN070AAXX  10074 06639 33/// /0006 11113 21113 38456 48366 53014 333 91111;
0110066390999992010011008004+47000+007933FM-12+140699999V02099999999999999999N9999999N1-01131-01131999999ADDMA1999999084641MD1319999+9999ME1313739REMSYN060AAXX  10084 06639 33/// ///// 11113 21113 38464 48373 53///;
0110066390999992010011009004+47000+007933FM-12+140699999V0202301N003619999999N9999999N1-01101-01101999999ADDMA1999999084711MD1210211+9999ME1313799REMSYN060AAXX  10094 06639 33/// /2307 11110 21110 38471 48379 52021;
0137066390999992010011010004+47000+007933FM-12+140699999V0202201N003119999999N9999999N1-01011-01011999999ADDMA1999999084761MD1110201+9999ME1313849OA149900571REMSYN076AAXX  10104 06639 33/// /2206 11101 21101 38476 48384 51020 333 91111 91207;
0137066390999992010011011004+47000+007933FM-12+140699999V0202301N003119999999N9999999N1-01031-01031999999ADDMA1999999084801MD1110161+9999ME1313879OA149900571REMSYN076AAXX  10114 06639 33/// /2306 11103 21103 38480 48387 51016 333 91111 91207;
0120066390999992010011012004+47000+007933FM-12+140699999V0202401N002619999999N9999999N1-01011-01011999999ADDMA1999999084821MD1110111+9999ME1313899REMSYN070AAXX  10124 06639 33/// /2405 11101 21101 38482 48389 51011 333 91112;
0137066390999992010011013004+47000+007933FM-12+140699999V0202301N002119999999N9999999N1-01071-01071999999ADDMA1999999084851MD1110091+9999ME1313929OA149900621REMSYN076AAXX  10134 06639 33/// /2304 11107 21107 38485 48392 51009 333 91112 91206;
0154066390999992010011014004+47000+007933FM-12+140699999V0202201N002619999999N9999999N1-01081-01081999999ADDAA101000021MA1999999084881MD1319999+9999ME1313959OA149900621REMSYN082AAXX  10144 06639 23/// /2205 11108 21108 38488 48395 53/// 333 69915 91112 91207;
0137066390999992010011015004+47000+007933FM-12+140699999V0202201N002619999999N9999999N1-01081-01081999999ADDMA1999999084931MD1310111+9999ME1313999OA149900621REMSYN076AAXX  10154 06639 33/// /2205 11108 21108 38493 48399 53011 333 91112 91207;
0137066390999992010011016004+47000+007933FM-12+140699999V0202301N001519999999N9999999N1-01121-01121999999ADDMA1999999084971MD1310121+9999ME1314039OA149900771REMSYN076AAXX  10164 06639 33/// /2303 11112 21112 38497 48403 53012 333 91115 91207;
0137066390999992010011017004+47000+007933FM-12+140699999V0202201N002619999999N9999999N1-01111-01111999999ADDMA1999999085001MD1110121+9999ME1314059OA149900771REMSYN076AAXX  10174 06639 33/// /2205 11111 21111 38500 48405 51012 333 91115 91207;
0181066390999992010011018004+47000+007933FM-12+140699999V0202301N002119999999N9999999N1-01091-01091999999ADDAA112000091KA1120M-01011MA1999999085031MD1210101+9999ME1314089REMSYN088AAXX  10184 06639 03/// /2304 11109 21109 38503 48408 52010 69912 333 11101 60005 91115;EQDQ01  00002PRCP12
0137066390999992010011019004+47000+007933FM-12+140699999V0202001N001519999999N9999999N1-01081-01081999999ADDMA1999999085041MD1210071+9999ME1314099OA149900461REMSYN076AAXX  10194 06639 33/// /2003 11108 21108 38504 48409 52007 333 91109 91205;
0137066390999992010011020004+47000+007933FM-12+140699999V0202001N002119999999N9999999N1-01111-01111999999ADDMA1999999085061MD1210061+9999ME1314119OA149900461REMSYN076AAXX  10204 06639 33/// /2004 11111 21111 38506 48411 52006 333 91109 91205;
0137066390999992010011021004+47000+007933FM-12+140699999V0201301N001519999999N9999999N1-01111-01111999999ADDMA1999999085041MD1210011+9999ME1314099OA149900771REMSYN076AAXX  10214 06639 33/// /1303 11111 21111 38504 48409 52001 333 91115 91207;
0137066390999992010011022004+47000+007933FM-12+140699999V0200601N000519999999N9999999N1-01201-01201999999ADDMA1999999085051MD1010011+9999ME1314109OA149900311REMSYN076AAXX  10224 06639 33/// /0601 11120 21120 38505 48410 50001 333 91106 91204;
0137066390999992010011023004+47000+007933FM-12+140699999V0200501N001519999999N9999999N1-01241-01241999999ADDMA1999999085031MD1710031+9999ME1314089OA149900311REMSYN076AAXX  10234 06639 33/// /0503 11124 21124 38503 48408 57003 333 91106 91204;
0156066390999992010011100004+47000+007933FM-12+140699999V0201001N002119999999N9999999N1-01211-01211999999ADDMA1999999085041MD1410001+9999ME1314099OA149900771REMSYN076AAXX  11004 06639 33/// /1004 11121 21121 38504 48409 52000 333 91115 91207;EQDQ01+000022APCTEN
0137066390999992010011101004+47000+007933FM-12+140699999V0202301N003119999999N9999999N1-00851-01141999999ADDMA1999999085041MD1210011+9999ME1314099OA149900411REMSYN076AAXX  11014 06639 33/// /2306 11085 21114 38504 48409 52001 333 91108 91206;
0137066390999992010011102004+47000+007933FM-12+140699999V0202201N002619999999N9999999N1-01191-01191999999ADDMA1999999085071MD1219999+9999ME1314129OA149900411REMSYN076AAXX  11024 06639 33/// /2205 11119 21119 38507 48412 52/// 333 91108 91206;
0137066390999992010011103004+47000+007933FM-12+140699999V0202201N003619999999N9999999N1-00661-01051999999ADDMA1999999085051MD1019999+9999ME1314109OA149900461REMSYN076AAXX  11034 06639 33/// /2207 11066 21105 38505 48410 50/// 333 91109 91207;
0137066390999992010011104004+47000+007933FM-12+140699999V0202301N005119999999N9999999N1-00711-00951999999ADDMA1999999085061MD1210021+9999ME1314119OA149900671REMSYN076AAXX  11044 06639 33/// /2310 11071 21095 38506 48411 52002 333 91113 91210;
0137066390999992010011105004+47000+007933FM-12+140699999V0202301N002619999999N9999999N1-00651-00931999999ADDMA1999999085051MD1710021+9999ME1314109OA149900671REMSYN076AAXX  11054 06639 33/// /2305 11065 21093 38505 48410 57002 333 91113 91210;
0234066390999992010011106004+47000+007933FM-12+140699999V0202301N003119999999N9999999N1-00551-00831999999ADDAA124000091AL10600091GJ100189IA2999-01309KA1999N-01241MA1999999085041MD1710011+9999ME1314099OA149900671REMSYN100AAXX  11064 06639 33/// /2306 11055 21083 38504 48409 57001 333 21124 3/113 55003 70001 91113 91210;EQDQ01  00002PRCP24
0137066390999992010011107004+47000+007933FM-12+140699999V0202601N002119999999N9999999N1-00561-00811999999ADDMA1999999085051MD1710011+9999ME1314109OA149900571REMSYN076AAXX  11074 06639 33/// /2604 11056 21081 38505 48410 57001 333 91111 91208;
0137066390999992010011108004+47000+007933FM-12+140699999V0202201N001019999999N9999999N1-00441-00851999999ADDMA1999999085051MD1410001+9999ME1314109OA149900311REMSYN076AAXX  11084 06639 33/// /2202 11044 21085 38505 48410 54/// 333 91106 91205;
0137066390999992010011109004+47000+007933FM-12+140699999V0202801N002119999999N9999999N1-00451-00741999999ADDMA1999999085081MD1210041+9999ME1314139OA149900671REMSYN076AAXX  11094 06639 33/// /2804 11045 21074 38508 48413 52004 333 91113 91210;
0137066390999992010011110004+47000+007933FM-12+140699999V0202701N003119999999N9999999N1-00441-00691999999ADDMA1999999085111MD1219999+9999ME1314169OA149900511REMSYN076AAXX  11104 06639 33/// /2706 11044 21069 38511 48416 52/// 333 91110 91206;
0137066390999992010011111004+47000+007933FM-12+140699999V0202401N005719999999N9999999N1-00631-00721999999ADDMA1999999085111MD1110061+9999ME1314169OA149900721REMSYN076AAXX  11114 06639 33/// /2411 11063 21072 38511 48416 51006 333 91114 91212;
0156066390999992010011112004+47000+007933FM-12+140699999V0202301N006219999999N9999999N1-00601-00761999999ADDMA1999999085081MD1410001+9999ME1314139OA149900821REMSYN076AAXX  11124 06639 33/// /2312 11060 21076 38508 48413 58000 333 91116 91213;EQDQ01+000082APCTEN
0137066390999992010011113004+47000+007933FM-12+140699999V0202601N005719999999N9999999N1-00591-00761999999ADDMA1999999085071MD1810041+9999ME1314129OA149901031REMSYN076AAXX  11134 06639 33/// /2611 11059 21076 38507 48412 58004 333 91120 91213;
0096066390999992010011114004+47000+007933FM-12+140699999V0202801N004119999999N9999999N1-00641-00821999999ADDMA1999999085101ME1314159REMSYN060AAXX  11144 06639 33/// /2808 11064 21082 38510 48415 5////;
0137066390999992010011115004+47000+007933FM-12+140699999V0202801N004619999999N9999999N1-00711-00891999999ADDMA1999999085141MD1210061+9999ME1314189OA149901081REMSYN076AAXX  11154 06639 33/// /2809 11071 21089 38514 48418 52006 333 91121 91213;
0137066390999992010011116004+47000+007933FM-12+140699999V0202501N006719999999N9999999N1-00651-00901999999ADDMA1999999085171MD1210101+9999ME1314219OA149900981REMSYN076AAXX  11164 06639 33/// /2513 11065 21090 38517 48421 52010 333 91119 91213;
0137066390999992010011117004+47000+007933FM-12+140699999V0202801N003119999999N9999999N1-00631-00881999999ADDMA1999999085221MD1210121+9999ME1314269OA149900881REMSYN076AAXX  11174 06639 33/// /2806 11063 21088 38522 48426 52012 333 91117 91213;
0156066390999992010011118004+47000+007933FM-12+140699999V0202801N003619999999N9999999N1-00671-00871999999ADDKA1120M-00421MA1999999085231MD1210091+9999ME1314279OA149901081REMSYN082AAXX  11184 06639 33/// /2807 11067 21087 38523 48427 52009 333 11042 91121 91213;
0137066390999992010011119004+47000+007933FM-12+140699999V0202201N001519999999N9999999N1-00701-00921999999ADDMA1999999085271MD1110101+9999ME1314309OA149900721REMSYN076AAXX  11194 06639 33/// /2203 11070 21092 38527 48430 51010 333 91114 91208;
0137066390999992010011120004+47000+007933FM-12+140699999V0202201N004119999999N9999999N1-00721-00851999999ADDMA1999999085271MD1110051+9999ME1314309OA149900511REMSYN076AAXX  11204 06639 33/// /2208 11072 21085 38527 48430 51005 333 91110 91208;
0137066390999992010011121004+47000+007933FM-12+140699999V0202301N003619999999N9999999N1-00691-00881999999ADDMA1999999085291MD1110061+9999ME1314329OA149900881REMSYN076AAXX  11214 06639 33/// /2307 11069 21088 38529 48432 51006 333 91117 91213;
0137066390999992010011122004+47000+007933FM-12+140699999V0202201N004619999999N9999999N1-00721-00851999999ADDMA1999999085281MD1010011+9999ME1314319OA149900511REMSYN076AAXX  11224 06639 33/// /2209 11072 21085 38528 48431 50001 333 91110 91209;
0137066390999992010011123004+47000+007933FM-12+140699999V0202301N003119999999N9999999N1-00761-00851999999ADDMA1999999085301MD1210031+9999ME1314339OA149900511REMSYN076AAXX  11234 06639 33/// /2306 11076 21085 38530 48433 52003 333 91110 91209;
0137066390999992010011200004+47000+007933FM-12+140699999V0202301N004119999999N9999999N1-00731-00951999999ADDMA1999999085281MD1010011+9999ME1314319OA149901081REMSYN076AAXX  12004 06639 33/// /2308 11073 21095 38528 48431 50001 333 91121 91213;
0156066390999992010011201004+47000+007933FM-12+140699999V0202401N005119999999N9999999N1-00621-00721999999ADDMA1999999085281MD1410001+9999ME1314319OA149900621REMSYN076AAXX  12014 06639 33/// /2410 11062 21072 38528 48431 57000 333 91112 91210;EQDQ01+000072APCTEN
0137066390999992010011202004+47000+007933FM-12+140699999V0202401N004119999999N9999999N1-00701-00871999999ADDMA1999999085281MD1719999+9999ME1314319OA149900621REMSYN076AAXX  12024 06639 33/// /2408 11070 21087 38528 48431 57/// 333 91112 91210;
0137066390999992010011203004+47000+007933FM-12+140699999V0202201N003619999999N9999999N1-00701-00871999999ADDMA1999999085261MD1710021+9999ME1314299OA149900621REMSYN076AAXX  12034 06639 33/// /2207 11070 21087 38526 48429 57002 333 91112 91210;
0137066390999992010011204004+47000+007933FM-12+140699999V0202801N001519999999N9999999N1-00691-00701999999ADDMA1999999085261MD1710021+9999ME1314299OA149900461REMSYN076AAXX  12044 06639 33/// /2803 11069 21070 38526 48429 57002 333 91109 91208;
0137066390999992010011205004+47000+007933FM-12+140699999V0202401N002119999999N9999999N1-00661-00741999999ADDMA1999999085231MD1710051+9999ME1314279OA149900461REMSYN076AAXX  12054 06639 33/// /2404 11066 21074 38523 48427 57005 333 91109 91208;
0234066390999992010011206004+47000+007933FM-12+140699999V0202001N003119999999N9999999N1-00471-00761999999ADDAA124000091AL19900091GJ103249IA2999-00709KA1999N-00821MA1999999085201MD1710061+9999ME1314249OA149900621REMSYN100AAXX  12064 06639 33/// /2006 11047 21076 38520 48424 57006 333 21082 3/107 55054 70000 91112 91210;EQDQ01  00002PRCP24
0137066390999992010011207004+47000+007933FM-12+140699999V0201801N001519999999N9999999N1-00511-00721999999ADDMA1999999085161MD1710101+9999ME1314209OA149900361REMSYN076AAXX  12074 06639 33/// /1803 11051 21072 38516 48420 57010 333 91107 91206;
0137066390999992010011208004+47000+007933FM-12+140699999V0202001N001019999999N9999999N1-00391-00711999999ADDMA1999999085121MD1719999+9999ME1314179OA149900311REMSYN076AAXX  12084 06639 33/// /2002 11039 21071 38512 48417 57/// 333 91106 91206;
0137066390999992010011209004+47000+007933FM-12+140699999V0200501N000519999999N9999999N1-00431-00711999999ADDMA1999999085081MD1810121+9999ME1314139OA149900461REMSYN076AAXX  12094 06639 33/// /0501 11043 21071 38508 48413 58012 333 91109 91208;
0137066390999992010011210004+47000+007933FM-12+140699999V0200701N001519999999N9999999N1-00401-00661999999ADDMA1999999085031MD1710131+9999ME1314089OA149900311REMSYN076AAXX  12104 06639 33/// /0703 11040 21066 38503 48408 57013 333 91106 91204;
0137066390999992010011211004+47000+007933FM-12+140699999V0200801N003119999999N9999999N1-00331-00601999999ADDMA1999999084941MD1710181+9999ME1314009OA149900511REMSYN076AAXX  12114 06639 33/// /0806 11033 21060 38494 48400 57018 333 91110 91206;
0137066390999992010011212004+47000+007933FM-12+140699999V0201001N003619999999N9999999N1-00351-00611999999ADDMA1999999084871MD1710211+9999ME1313939OA149900621REMSYN076AAXX  12124 06639 33/// /1007 11035 21061 38487 48393 57021 333 91112 91210;
0137066390999992010011213004+47000+007933FM-12+140699999V0201101N003119999999N9999999N1-00271-00661999999ADDMA1999999084831MD1710201+9999ME1313909OA149900511REMSYN076AAXX  12134 06639 33/// /1106 11027 21066 38483 48390 57020 333 91110 91207;
0096066390999992010011214004+47000+007933FM-12+140699999V0201101N003119999999N9999999N1-00181-00751999999ADDMA1999999084761ME1313839REMSYN060AAXX  12144 06639 33/// /1106 11018 21075 38476 48383 5////;
0137066390999992010011215004+47000+007933FM-12+140699999V0202601N000519999999N9999999N1-00061-00271999999ADDMA1999999084721MD1810151+9999ME1313799OA149900511REMSYN076AAXX  12154 06639 33/// /2601 11006 21027 38472 48379 58015 333 91110 91207;
0137066390999992010011216004+47000+007933FM-12+140699999V0201101N000519999999N9999999N1-00021-00911999999ADDMA1999999084631MD1710201+9999ME1313719OA149900361REMSYN076AAXX  12164 06639 33/// /1101 11002 21091 38463 48371 57020 333 91107 91205;
0137066390999992010011217004+47000+007933FM-12+140699999V0200101N001019999999N9999999N1+00011-00891999999ADDMA1999999084601MD1710161+9999ME1313689OA149900151REMSYN076AAXX  12174 06639 33/// /0102 10001 21089 38460 48368 57016 333 91103 91202;
0156066390999992010011218004+47000+007933FM-12+140699999V0201101N002119999999N9999999N1-00081-00731999999ADDKA1120M+00031MA1999999084581MD1610141+9999ME1313669OA149900511REMSYN082AAXX  12184 06639 33/// /1104 11008 21073 38458 48366 56014 333 10003 91110 91207;
0137066390999992010011219004+47000+007933FM-12+140699999V0201001N002119999999N9999999N1-00091-00791999999ADDMA1999999084551MD1810081+9999ME1313639OA149900411REMSYN076AAXX  12194 06639 33/// /1004 11009 21079 38455 48363 58008 333 91108 91205;
0137066390999992010011220004+47000+007933FM-12+140699999V0201001N005719999999N9999999N1-00141-00861999999ADDMA1999999084501MD1810101+9999ME1313589OA149900671REMSYN076AAXX  12204 06639 33/// /1011 11014 21086 38450 48358 58010 333 91113 91211;
0137066390999992010011221004+47000+007933FM-12+140699999V0201101N006219999999N9999999N1-00261-00761999999ADDMA1999999084431MD1810151+9999ME1313529OA149900821REMSYN076AAXX  12214 06639 33/// /1112 11026 21076 38443 48352 58015 333 91116 91212;
0137066390999992010011222004+47000+007933FM-12+140699999V0201001N005719999999N9999999N1-00131-00811999999ADDMA1999999084381MD1810171+9999ME1313479OA149900821REMSYN076AAXX  12224 06639 33/// /1011 11013 21081 38438 48347 58017 333 91116 91212;
0137066390999992010011223004+47000+007933FM-12+140699999V0201301N002119999999N9999999N1-00111-01011999999ADDMA1999999084371MD1710131+9999ME1313469OA149900771REMSYN076AAXX  12234 06639 33/// /1304 11011 21101 38437 48346 57013 333 91115 91212;
0137066390999992010011300004+47000+007933FM-12+140699999V0202501N008719999999N9999999N1-00771-00791999999ADDMA1999999084441MD1310011+9999ME1313549OA149901031REMSYN076AAXX  13004 06639 33/// /2517 11077 21079 38444 48354 53001 333 91120 91217;
0137066390999992010011301004+47000+007933FM-12+140699999V0202601N006719999999N9999999N1-00371-00801999999ADDMA1999999084471MD1210091+9999ME1313569OA149901341REMSYN076AAXX  13014 06639 33/// /2613 11037 21080 38447 48356 52009 333 91126 91221;
0137066390999992010011302004+47000+007933FM-12+140699999V0202301N002619999999N9999999N1-00131-01041999999ADDMA1999999084431MD1019999+9999ME1313529OA149901341REMSYN076AAXX  13024 06639 33/// /2305 11013 21104 38443 48352 50/// 333 91126 91221;
0137066390999992010011303004+47000+007933FM-12+140699999V0201101N002619999999N9999999N1-00151-00981999999ADDMA1999999084411MD1819999+9999ME1313509OA149901341REMSYN076AAXX  13034 06639 33/// /1105 11015 21098 38441 48350 58/// 333 91126 91221;
0137066390999992010011304004+47000+007933FM-12+140699999V0201101N004619999999N9999999N1-00181-00991999999ADDMA1999999084371MD1710101+9999ME1313469OA149900671REMSYN076AAXX  13044 06639 33/// /1109 11018 21099 38437 48346 57010 333 91113 91209;
0137066390999992010011305004+47000+007933FM-12+140699999V0201201N003619999999N9999999N1-00191-00821999999ADDMA1999999084371MD1710061+9999ME1313469OA149900721REMSYN076AAXX  13054 06639 33/// /1207 11019 21082 38437 48346 57006 333 91114 91209;
0234066390999992010011306004+47000+007933FM-12+140699999V0201401N003619999999N9999999N1-00161-00591999999ADDAA124000091AL19900091GJ104689IA2999-01009KA1999N-00831MA1999999084401MD1310011+9999ME1313499OA149901341REMSYN100AAXX  13064 06639 33/// /1407 11016 21059 38440 48349 53001 333 21083 3/110 55078 70000 91126 91221;EQDQ01  00002PRCP24
0154066390999992010011307004+47000+007933FM-12+140699999V0201901N005119999999N9999999N1-00281-00331999999ADDAA101000591MA1999999084451MD1210081+9999ME1313549OA149900721REMSYN082AAXX  13074 06639 23/// /1910 11028 21033 38445 48354 52008 333 69945 91114 91210;
0154066390999992010011308004+47000+007933FM-12+140699999V0202001N006219999999N9999999N1-00271-00341999999ADDAA101000021MA1999999084501MD1310131+9999ME1313599OA149900931REMSYN082AAXX  13084 06639 23/// /2012 11027 21034 38450 48359 53013 333 69925 91118 91212;
0154066390999992010011309004+47000+007933FM-12+140699999V0202101N005119999999N9999999N1-00241-00261999999ADDAA101000591MA1999999084561MD1210161+9999ME1313649OA149900931REMSYN082AAXX  13094 06639 23/// /2110 11024 21026 38456 48364 52016 333 69955 91118 91212;
0154066390999992010011310004+47000+007933FM-12+140699999V0202101N007219999999N9999999N1-00211-00211999999ADDAA101000391MA1999999084611MD1110161+9999ME1313699OA149901131REMSYN082AAXX  13104 06639 23/// /2114 11021 21021 38461 48369 51016 333 69935 91122 91214;
0154066390999992010011311004+47000+007933FM-12+140699999V0202201N007219999999N9999999N1-00191-00221999999ADDAA101000021MA1999999084631MD1210131+9999ME1313719OA149901181REMSYN082AAXX  13114 06639 23/// /2214 11019 21022 38463 48371 52013 333 69915 91123 91214;
0160066390999992010011312004+47000+007933FM-12+140699999V0202201N007219999999N9999999N1-00201-00221999999ADDAA106002091MA1999999084611MD1010051+9999ME1313699OA149901341REMSYN088AAXX  13124 06639 03/// /2214 11020 21022 38461 48369 50005 60021 333 69925 91126 91221;
0154066390999992010011313004+47000+007933FM-12+140699999V0202301N007719999999N9999999N1-00201-00231999999ADDAA101000021MA1999999084621MD1010011+9999ME1313709OA149901341REMSYN082AAXX  13134 06639 23/// /2315 11020 21023 38462 48370 50001 333 69925 91126 91216;
0154066390999992010011314004+47000+007933FM-12+140699999V0202301N008719999999N9999999N1-00201-00211999999ADDAA101001091MA1999999084661MD1319999+9999ME1313749OA149901441REMSYN082AAXX  13144 06639 23/// /2317 11020 21021 38466 48374 53/// 333 69995 91128 91218;
0154066390999992010011315004+47000+007933FM-12+140699999V0202301N009819999999N9999999N1-00191-00201999999ADDAA101000891MA1999999084681MD1210071+9999ME1313759OA149901601REMSYN082AAXX  13154 06639 23/// /2319 11019 21020 38468 48375 52007 333 69975 91131 91220;
0154066390999992010011316004+47000+007933FM-12+140699999V0202201N007719999999N9999999N1-00181-00211999999ADDAA101000591MA1999999084731MD1310111+9999ME1313809OA149901601REMSYN082AAXX  13164 06639 23/// /2215 11018 21021 38473 48380 53011 333 69965 91131 91220;
0154066390999992010011317004+47000+007933FM-12+140699999V0202301N008719999999N9999999N1-00191-00221999999ADDAA101000891MA1999999084781MD1310121+9999ME1313859OA149901491REMSYN082AAXX  13174 06639 23/// /2317 11019 21022 38478 48385 53012 333 69985 91129 91220;
0179066390999992010011318004+47000+007933FM-12+140699999V0202201N008719999999N9999999N1-00191-00191999999ADDAA112005191KA1120M-00151MA1999999084821MD1310141+9999ME1313899OA149901601REMSYN094AAXX  13184 06639 03/// /2217 11019 21019 38482 48389 53014 60052 333 11015 69935 91131 91220;
0154066390999992010011319004+47000+007933FM-12+140699999V0202301N006719999999N9999999N1-00201-00201999999ADDAA101000391MA1999999084861MD1110131+9999ME1313929OA149901291REMSYN082AAXX  13194 06639 23/// /2313 11020 21020 38486 48392 51013 333 69935 91125 91217;
0096066390999992010011401004+47000+007933FM-12+140699999V0201101N002619999999N9999999N1-00301-00311999999ADDMA1999999084691ME1313769REMSYN060AAXX  14014 06639 43/// /1105 11030 21031 38469 48376 5////;
0096066390999992010011402004+47000+007933FM-12+140699999V0200601N003619999999N9999999N1-00321-00351999999ADDMA1999999084651ME1313739REMSYN060AAXX  14024 06639 33/// /0607 11032 21035 38465 48373 5////;
0096066390999992010011403004+47000+007933FM-12+140699999V0200701N003119999999N9999999N1-00311-00311999999ADDMA1999999084651ME1313739REMSYN060AAXX  14034 06639 33/// /0706 11031 21031 38465 48373 5////;
0137066390999992010011404004+47000+007933FM-12+140699999V0200701N003119999999N9999999N1-00351-00351999999ADDMA1999999084611MD1710081+9999ME1313699OA149900671REMSYN076AAXX  14044 06639 33/// /0706 11035 21035 38461 48369 57008 333 91113 91208;
0137066390999992010011405004+47000+007933FM-12+140699999V0200701N005119999999N9999999N1-00251-00431999999ADDMA1999999084571MD1710081+9999ME1313659OA149900721REMSYN076AAXX  14054 06639 33/// /0710 11025 21043 38457 48365 57008 333 91114 91210;
0151066390999992010011406004+47000+007933FM-12+140699999V0200801N005719999999N9999999N1-00251-00411999999ADDAA112999999GJ100009MA1999999084531MD1810121+9999ME1313619REMSYN082AAXX  14064 06639 23/// /0811 11025 21041 38453 48361 58012 6///2 333 55000 60005;
0137066390999992010011407004+47000+007933FM-12+140699999V0200801N006219999999N9999999N1-00161-00641999999ADDMA1999999084501MD1710111+9999ME1313589OA149900821REMSYN076AAXX  14074 06639 33/// /0812 11016 21064 38450 48358 57011 333 91116 91212;
0137066390999992010011408004+47000+007933FM-12+140699999V0200901N004119999999N9999999N1-00031-00661999999ADDMA1999999084491MD1719999+9999ME1313579OA149900821REMSYN076AAXX  14084 06639 33/// /0908 11003 21066 38449 48357 57/// 333 91116 91212;
0137066390999992010011409004+47000+007933FM-12+140699999V0201001N004119999999N9999999N1+00001-00571999999ADDMA1999999084501MD1710031+9999ME1313589OA149900821REMSYN076AAXX  14094 06639 33/// /1008 10000 21057 38450 48358 57003 333 91116 91212;
0137066390999992010011410004+47000+007933FM-12+140699999V0201001N004119999999N9999999N1+00091-00701999999ADDMA1999999084481MD1710021+9999ME1313569OA149900621REMSYN076AAXX  14104 06639 33/// /1008 10009 21070 38448 48356 57002 333 91112 91209;
0137066390999992010011411004+47000+007933FM-12+140699999V0201101N004119999999N9999999N1+00051-00701999999ADDMA1999999084451MD1810041+9999ME1313539OA149900571REMSYN076AAXX  14114 06639 33/// /1108 10005 21070 38445 48353 58004 333 91111 91209;
0137066390999992010011412004+47000+007933FM-12+140699999V0201101N003119999999N9999999N1+00171-00631999999ADDMA1999999084411MD1710091+9999ME1313499OA149900821REMSYN076AAXX  14124 06639 33/// /1106 10017 21063 38441 48349 57009 333 91116 91212;
0137066390999992010011413004+47000+007933FM-12+140699999V0200801N001019999999N9999999N1+00181-00871999999ADDMA1999999084411MD1710071+9999ME1313499OA149900621REMSYN076AAXX  14134 06639 33/// /0802 10018 21087 38441 48349 57007 333 91112 91209;
0137066390999992010011414004+47000+007933FM-12+140699999V0202601N003119999999N9999999N1-00211-00541999999ADDMA1999999084441MD1510011+9999ME1313539OA149900571REMSYN076AAXX  14144 06639 33/// /2606 11021 21054 38444 48353 55001 333 91111 91208;
0137066390999992010011415004+47000+007933FM-12+140699999V0203001N002119999999N9999999N1-00121-00781999999ADDMA1999999084461MD1210051+9999ME1313559OA149900621REMSYN076AAXX  14154 06639 33/// /3004 11012 21078 38446 48355 52005 333 91112 91209;
0137066390999992010011416004+47000+007933FM-12+140699999V0202201N001019999999N9999999N1+00101-01021999999ADDMA1999999084471MD1110061+9999ME1313559OA149900461REMSYN076AAXX  14164 06639 33/// /2202 10010 21102 38447 48355 51006 333 91109 91207;
0137066390999992010011417004+47000+007933FM-12+140699999V0202201N000519999999N9999999N1-00061-00971999999ADDMA1999999084531MD1310091+9999ME1313619OA149900511REMSYN076AAXX  14174 06639 33/// /2201 11006 21097 38453 48361 53009 333 91110 91206;
0156066390999992010011418004+47000+007933FM-12+140699999V0200301N000519999999N9999999N1-00081-00971999999ADDKA1120M+00211MA1999999084581MD1310121+9999ME1313669OA149900821REMSYN082AAXX  14184 06639 33/// /0301 11008 21097 38458 48366 53012 333 10021 91116 91212;
0137066390999992010011419004+47000+007933FM-12+140699999V0203001N001519999999N9999999N1-00061-00861999999ADDMA1999999084681MD1310211+9999ME1313759OA149900311REMSYN076AAXX  14194 06639 33/// /3003 11006 21086 38468 48375 53021 333 91106 91203;
0137066390999992010011420004+47000+007933FM-12+140699999V0203001N004119999999N9999999N1-00191-00801999999ADDMA1999999084731MD1210201+9999ME1313809OA149900511REMSYN076AAXX  14204 06639 33/// /3008 11019 21080 38473 48380 52020 333 91110 91208;
0137066390999992010011421004+47000+007933FM-12+140699999V0203001N003619999999N9999999N1-00181-00781999999ADDMA1999999084811MD1110231+9999ME1313889OA149900511REMSYN076AAXX  14214 06639 33/// /3007 11018 21078 38481 48388 51023 333 91110 91208;
0137066390999992010011422004+47000+007933FM-12+140699999V0202601N004119999999N9999999N1-00271-00711999999ADDMA1999999084891MD1210211+9999ME1313959OA149900621REMSYN076AAXX  14224 06639 33/// /2608 11027 21071 38489 48395 52021 333 91112 91209;
0137066390999992010011423004+47000+007933FM-12+140699999V0202201N006719999999N9999999N1-00311-00711999999ADDMA1999999084961MD1210231+9999ME1314029OA149900881REMSYN076AAXX  14234 06639 33/// /2213 11031 21071 38496 48402 52023 333 91117 91214;
0137066390999992010011500004+47000+007933FM-12+140699999V0202501N005119999999N9999999N1-00321-00641999999ADDMA1999999085021MD1110211+9999ME1314079OA149900881REMSYN076AAXX  15004 06639 33/// /2510 11032 21064 38502 48407 51021 333 91117 91214;
0137066390999992010011501004+47000+007933FM-12+140699999V0202401N007219999999N9999999N1-00201-00651999999ADDMA1999999085081MD1210191+9999ME1314139OA149900981REMSYN076AAXX  15014 06639 33/// /2414 11020 21065 38508 48413 52019 333 91119 91215;
0137066390999992010011502004+47000+007933FM-12+140699999V0202301N008219999999N9999999N1-00351-00581999999ADDMA1999999085151MD1310191+9999ME1314199OA149901131REMSYN076AAXX  15024 06639 33/// /2316 11035 21058 38515 48419 53019 333 91122 91217;
0096066390999992010011503004+47000+007933FM-12+140699999V0202601N007719999999N9999999N1-00301-00501999999ADDMA1999999085221ME1314269REMSYN060AAXX  15034 06639 33/// /2615 11030 21050 38522 48426 5////;
0137066390999992010011504004+47000+007933FM-12+140699999V0202701N005119999999N9999999N1-00251-00501999999ADDMA1999999085291MD1110211+9999ME1314339OA149901131REMSYN076AAXX  15044 06639 33/// /2710 11025 21050 38529 48433 51021 333 91122 91215;
0137066390999992010011505004+47000+007933FM-12+140699999V0202601N005119999999N9999999N1-00311-00521999999ADDMA1999999085381MD1310231+9999ME1314419OA149901081REMSYN076AAXX  15054 06639 33/// /2610 11031 21052 38538 48441 53023 333 91121 91214;
0234066390999992010011506004+47000+007933FM-12+140699999V0202401N005719999999N9999999N1-00331-00441999999ADDAA124000091AL19900091GJ102709IA2999-00509KA1999N-00381MA1999999085461MD1210241+9999ME1314489OA149901131REMSYN100AAXX  15064 06639 33/// /2411 11033 21044 38546 48448 52024 333 21038 3/105 55045 70000 91122 91217;EQDQ01  00002PRCP24
0137066390999992010011507004+47000+007933FM-12+140699999V0202301N005119999999N9999999N1-00361-00411999999ADDMA1999999085551MD1210261+9999ME1314569OA149900821REMSYN076AAXX  15074 06639 33/// /2310 11036 21041 38555 48456 52026 333 91116 91211;
0137066390999992010011508004+47000+007933FM-12+140699999V0202401N006719999999N9999999N1-00291-00341999999ADDMA1999999085631MD1219999+9999ME1314649OA149900881REMSYN076AAXX  15084 06639 33/// /2413 11029 21034 38563 48464 52/// 333 91117 91213;
0137066390999992010011509004+47000+007933FM-12+140699999V0202401N005719999999N9999999N1-00291-00291999999ADDMA1999999085711MD1210251+9999ME1314719OA149901081REMSYN076AAXX  15094 06639 33/// /2411 11029 21029 38571 48471 52025 333 91121 91214;
0137066390999992010011510004+47000+007933FM-12+140699999V0202401N006219999999N9999999N1-00121-00271999999ADDMA1999999085771MD1110221+9999ME1314779OA149900881REMSYN076AAXX  15104 06639 33/// /2412 11012 21027 38577 48477 51022 333 91117 91214;
0137066390999992010011511004+47000+007933FM-12+140699999V0202301N005119999999N9999999N1-00131-00261999999ADDMA1999999085811MD1110181+9999ME1314819OA149900821REMSYN076AAXX  15114 06639 33/// /2310 11013 21026 38581 48481 51018 333 91116 91214;
0137066390999992010011512004+47000+007933FM-12+140699999V0202401N005119999999N9999999N1-00101-00301999999ADDMA1999999085841MD1110131+9999ME1314849OA149901131REMSYN076AAXX  15124 06639 33/// /2410 11010 21030 38584 48484 51013 333 91122 91217;
0137066390999992010011513004+47000+007933FM-12+140699999V0202301N005119999999N9999999N1-00051-00401999999ADDMA1999999085901MD1310131+9999ME1314909OA149900771REMSYN076AAXX  15134 06639 33/// /2310 11005 21040 38590 48490 53013 333 91115 91211;
0137066390999992010011514004+47000+007933FM-12+140699999V0202201N003619999999N9999999N1-00101-00361999999ADDMA1999999085951MD1310141+9999ME1314949OA149900671REMSYN076AAXX  15144 06639 33/// /2207 11010 21036 38595 48494 53014 333 91113 91210;
0137066390999992010011515004+47000+007933FM-12+140699999V0202401N003119999999N9999999N1-00101-00531999999ADDMA1999999086021MD1310181+9999ME1315019OA149900821REMSYN076AAXX  15154 06639 33/// /2406 11010 21053 38602 48501 53018 333 91116 91214;
0137066390999992010011516004+47000+007933FM-12+140699999V0202101N002119999999N9999999N1-00081-00601999999ADDMA1999999086041MD1210141+9999ME1315039OA149900461REMSYN076AAXX  15164 06639 33/// /2104 11008 21060 38604 48503 52014 333 91109 91206;
0137066390999992010011517004+47000+007933FM-12+140699999V0203101N001519999999N9999999N1-00131-00621999999ADDMA1999999086091MD1210141+9999ME1315079OA149900361REMSYN076AAXX  15174 06639 33/// /3103 11013 21062 38609 48507 52014 333 91107 91205;
0156066390999992010011518004+47000+007933FM-12+140699999V0209999C001019999999N9999999N1-00101-00721999999ADDKA1120M-00021MA1999999086111MD1210091+9999ME1315099OA149900881REMSYN082AAXX  15184 06639 33/// /0002 11010 21072 38611 48509 52009 333 11002 91117 91214;
0137066390999992010011519004+47000+007933FM-12+140699999V0200601N000519999999N9999999N1-00011-00811999999ADDMA1999999086121MD1210081+9999ME1315109OA149900151REMSYN076AAXX  15194 06639 33/// /0601 11001 21081 38612 48510 52008 333 91103 91203;
0137066390999992010011520004+47000+007933FM-12+140699999V0201101N001519999999N9999999N1+00011-00811999999ADDMA1999999086111MD1210021+9999ME1315099OA149900151REMSYN076AAXX  15204 06639 33/// /1103 10001 21081 38611 48509 52002 333 91103 91203;
0137066390999992010011521004+47000+007933FM-12+140699999V0200701N002619999999N9999999N1+00021-00861999999ADDMA1999999086111MD1010001+9999ME1315099OA149900361REMSYN076AAXX  15214 06639 33/// /0705 10002 21086 38611 48509 50000 333 91107 91205;
0137066390999992010011522004+47000+007933FM-12+140699999V0200801N003619999999N9999999N1-00121-00861999999ADDMA1999999086091MD1710031+9999ME1315079OA149900511REMSYN076AAXX  15224 06639 33/// /0807 11012 21086 38609 48507 57003 333 91110 91207;
0137066390999992010011523004+47000+007933FM-12+140699999V0200701N002119999999N9999999N1-00031-00761999999ADDMA1999999086121MD1310011+9999ME1315109OA149900511REMSYN076AAXX  15234 06639 33/// /0704 11003 21076 38612 48510 53001 333 91110 91207;
0137066390999992010011600004+47000+007933FM-12+140699999V0200801N004119999999N9999999N1-00131-00811999999ADDMA1999999086091MD1810021+9999ME1315079OA149900671REMSYN076AAXX  16004 06639 33/// /0808 11013 21081 38609 48507 58002 333 91113 91210;
0137066390999992010011601004+47000+007933FM-12+140699999V0200901N003619999999N9999999N1-00111-00921999999ADDMA1999999086071MD1710021+9999ME1315059OA149900621REMSYN076AAXX  16014 06639 33/// /0907 11011 21092 38607 48505 57002 333 91112 91209;
0137066390999992010011602004+47000+007933FM-12+140699999V0200901N004119999999N9999999N1-00101-00881999999ADDMA1999999086051MD1710071+9999ME1315039OA149900721REMSYN076AAXX  16024 06639 33/// /0908 11010 21088 38605 48503 57007 333 91114 91211;
0137066390999992010011603004+47000+007933FM-12+140699999V0201001N004619999999N9999999N1-00061-00941999999ADDMA1999999085991MD1819999+9999ME1314989OA149900721REMSYN076AAXX  16034 06639 33/// /1009 11006 21094 38599 48498 58/// 333 91114 91211;
0137066390999992010011604004+47000+007933FM-12+140699999V0201501N002619999999N9999999N1+00021-01071999999ADDMA1999999086001MD1710071+9999ME1314999OA149900571REMSYN076AAXX  16044 06639 33/// /1505 10002 21107 38600 48499 57007 333 91111 91209;
0137066390999992010011605004+47000+007933FM-12+140699999V0202001N002119999999N9999999N1+00191-01541999999ADDMA1999999085921MD1710131+9999ME1314929OA149900571REMSYN076AAXX  16054 06639 33/// /2004 10019 21154 38592 48492 57013 333 91111 91208;
0234066390999992010011606004+47000+007933FM-12+140699999V0201901N003619999999N9999999N1+00261-01761999999ADDAA124000091AL19900091GJ101089IA2999-00709KA1999N-00161MA1999999085891MD1710101+9999ME1314909OA149900721REMSYN100AAXX  16064 06639 33/// /1907 10026 21176 38589 48490 57010 333 21016 3/107 55018 70000 91114 91211;EQDQ01  00002PRCP24
0137066390999992010011607004+47000+007933FM-12+140699999V0201601N002619999999N9999999N1+00251-01581999999ADDMA1999999085861MD1710141+9999ME1314879OA149900411REMSYN076AAXX  16074 06639 33/// /1605 10025 21158 38586 48487 57014 333 91108 91207;
0137066390999992010011608004+47000+007933FM-12+140699999V0202101N003119999999N9999999N1+00251-01581999999ADDMA1999999085841MD1710081+9999ME1314859OA149900461REMSYN076AAXX  16084 06639 33/// /2106 10025 21158 38584 48485 57008 333 91109 91207;
0137066390999992010011609004+47000+007933FM-12+140699999V0202001N003119999999N9999999N1+00481-01491999999ADDMA1999999085811MD1710081+9999ME1314839OA149900571REMSYN076AAXX  16094 06639 33/// /2006 10048 21149 38581 48483 57008 333 91111 91208;
0137066390999992010011610004+47000+007933FM-12+140699999V0202101N003119999999N9999999N1+00541-01521999999ADDMA1999999085801MD1710061+9999ME1314829OA149900511REMSYN076AAXX  16104 06639 33/// /2106 10054 21152 38580 48482 57006 333 91110 91208;
0137066390999992010011611004+47000+007933FM-12+140699999V0202101N001519999999N9999999N1+00621-01451999999ADDMA1999999085751MD1710091+9999ME1314779OA149900511REMSYN076AAXX  16114 06639 33/// /2103 10062 21145 38575 48477 57009 333 91110 91207;
0137066390999992010011612004+47000+007933FM-12+140699999V0202901N003119999999N9999999N1+00471-01171999999ADDMA1999999085741MD1710071+9999ME1314769OA149900721REMSYN076AAXX  16124 06639 33/// /2906 10047 21117 38574 48476 57007 333 91114 91211;
0137066390999992010011613004+47000+007933FM-12+140699999V0202601N004119999999N9999999N1+00341-01451999999ADDMA1999999085731MD1710071+9999ME1314759OA149900721REMSYN076AAXX  16134 06639 33/// /2608 10034 21145 38573 48475 57007 333 91114 91208;
0137066390999992010011614004+47000+007933FM-12+140699999V0202301N003119999999N9999999N1+00271-01321999999ADDMA1999999085651MD1719999+9999ME1314679OA149900771REMSYN076AAXX  16144 06639 33/// /2306 10027 21132 38565 48467 57/// 333 91115 91211;
0137066390999992010011615004+47000+007933FM-12+140699999V0201801N002619999999N9999999N1+00301-01431999999ADDMA1999999085641MD1710101+9999ME1314669OA149900771REMSYN076AAXX  16154 06639 33/// /1805 10030 21143 38564 48466 57010 333 91115 91211;
0137066390999992010011616004+47000+007933FM-12+140699999V0201201N003619999999N9999999N1+00321-01431999999ADDMA1999999085611MD1710121+9999ME1314639OA149900671REMSYN076AAXX  16164 06639 33/// /1207 10032 21143 38561 48463 57012 333 91113 91210;
0137066390999992010011617004+47000+007933FM-12+140699999V0202501N003619999999N9999999N1-00021-00831999999ADDMA1999999085661MD1310011+9999ME1314679OA149900671REMSYN076AAXX  16174 06639 33/// /2507 11002 21083 38566 48467 53001 333 91113 91210;
0156066390999992010011618004+47000+007933FM-12+140699999V0202301N009319999999N9999999N1-00121-00611999999ADDKA1120M+00631MA1999999085641MD1510001+9999ME1314659OA149901651REMSYN082AAXX  16184 06639 33/// /2318 11012 21061 38564 48465 55000 333 10063 91132 91219;
0137066390999992010011619004+47000+007933FM-12+140699999V0202201N009819999999N9999999N1-00201-00431999999ADDMA1999999085561MD1810051+9999ME1314589OA149901801REMSYN076AAXX  16194 06639 33/// /2219 11020 21043 38556 48458 58005 333 91135 91221;
0137066390999992010011620004+47000+007933FM-12+140699999V0202201N006719999999N9999999N1-00151-00451999999ADDMA1999999085511MD1710151+9999ME1314539OA149901801REMSYN076AAXX  16204 06639 33/// /2213 11015 21045 38551 48453 57015 333 91135 91221;
0137066390999992010011621004+47000+007933FM-12+140699999V0202201N009319999999N9999999N1-00161-00231999999ADDMA1999999085441MD1810201+9999ME1314479OA149901801REMSYN076AAXX  16214 06639 33/// /2218 11016 21023 38544 48447 58020 333 91135 91221;
0137066390999992010011622004+47000+007933FM-12+140699999V0202301N006219999999N9999999N1-00241-00251999999ADDMA1999999085471MD1710091+9999ME1314499OA149901241REMSYN076AAXX  16224 06639 33/// /2312 11024 21025 38547 48449 57009 333 91124 91218;
0154066390999992010011623004+47000+007933FM-12+140699999V0202201N009819999999N9999999N1-00201-00201999999ADDAA101000891MA1999999085521MD1310011+9999ME1314549OA149901651REMSYN082AAXX  16234 06639 23/// /2219 11020 21020 38552 48454 53001 333 69985 91132 91219;
0160066390999992010011700004+47000+007933FM-12+140699999V0202201N010319999999N9999999N1-00191-00201999999ADDAA106002091MA1999999085551MD1210111+9999ME1314579OA149901801REMSYN088AAXX  17004 06639 03/// /2220 11019 21020 38555 48457 52011 60021 333 60015 91135 91221;
0154066390999992010011701004+47000+007933FM-12+140699999V0202101N008719999999N9999999N1-00111-00111999999ADDAA101000021MA1999999085581MD1210111+9999ME1314609OA149901701REMSYN082AAXX  17014 06639 23/// /2117 11011 21011 38558 48460 52011 333 69915 91133 91223;
0137066390999992010011702004+47000+007933FM-12+140699999V0202201N011319999999N9999999N1+00001-00061999999ADDMA1999999085531MD1019999+9999ME1314559OA149901651REMSYN076AAXX  17024 06639 33/// /2222 10000 21006 38553 48455 50/// 333 91132 91223;
0096066390999992010011703004+47000+007933FM-12+140699999V0202301N011319999999N9999999N1+00081-00081999999ADDMA1999999085471ME1314509REMSYN060AAXX  17034 06639 43/// /2322 10008 21008 38547 48450 5////;
0154066390999992010011704004+47000+007933FM-12+140699999V0202301N010819999999N9999999N1-00051-00071999999ADDAA101000021MA1999999085481MD1710101+9999ME1314519OA149901851REMSYN082AAXX  17044 06639 23/// /2321 11005 21007 38548 48451 57010 333 69925 91136 91222;
0137066390999992010011705004+47000+007933FM-12+140699999V0202401N011819999999N9999999N1+00021-00031999999ADDMA1999999085511MD1519999+9999ME1314539OA149902321REMSYN076AAXX  17054 06639 33/// /2423 10002 21003 38551 48453 55/// 333 91145 91225;
0238066390999992010011706004+47000+007933FM-12+140699999V0202301N012919999999N9999999N1+00031-00041999999ADDAA112002091AA224002391AL12400291GJ102409IA2999-00309KA1999N-00251MA1999999085521MD1310051+9999ME1314549OA149902321REMSYN112AAXX  17064 06639 03/// /2325 10003 21004 38552 48454 53005 60022 333 21025 3/103 55040 60005 70024 91145 91225;
0137066390999992010011707004+47000+007933FM-12+140699999V0202401N010819999999N9999999N1+00051-00031999999ADDMA1999999085591MD1310111+9999ME1314619OA149902161REMSYN076AAXX  17074 06639 33/// /2421 10005 21003 38559 48461 53011 333 91142 91225;
0137066390999992010011708004+47000+007933FM-12+140699999V0202301N011319999999N9999999N1+00011-00011999999ADDMA1999999085661MD1319999+9999ME1314679OA149902061REMSYN076AAXX  17084 06639 33/// /2322 10001 21001 38566 48467 53/// 333 91140 91224;
0154066390999992010011709004+47000+007933FM-12+140699999V0202401N010319999999N9999999N1-00021-00021999999ADDAA101001091MA1999999085711MD1110191+9999ME1314729OA149902321REMSYN082AAXX  17094 06639 23/// /2420 11002 21002 38571 48472 51019 333 60015 91145 91225;
0154066390999992010011710004+47000+007933FM-12+140699999V0202501N007719999999N9999999N1-00051-00051999999ADDAA101000891MA1999999085841MD1310251+9999ME1314849OA149902111REMSYN082AAXX  17104 06639 23/// /2515 11005 21005 38584 48484 53025 333 69985 91141 91224;
0137066390999992010011711004+47000+007933FM-12+140699999V0202401N006719999999N9999999N1-00091-00111999999ADDMA1999999085911MD1210251+9999ME1314909OA149902111REMSYN076AAXX  17114 06639 33/// /2413 11009 21011 38591 48490 52025 333 91141 91218;
0160066390999992010011712004+47000+007933FM-12+140699999V0202601N005719999999N9999999N1-00091-00211999999ADDAA106002091MA1999999085941MD1210231+9999ME1314939OA149902321REMSYN088AAXX  17124 06639 03/// /2611 11009 21021 38594 48493 52023 60021 333 60005 91145 91225;
0137066390999992010011713004+47000+007933FM-12+140699999V0202401N010819999999N9999999N1-00111-00211999999ADDMA1999999085951MD1210111+9999ME1314949OA149901961REMSYN076AAXX  17134 06639 33/// /2421 11011 21021 38595 48494 52011 333 91138 91221;
0137066390999992010011714004+47000+007933FM-12+140699999V0202301N009319999999N9999999N1-00121-00231999999ADDMA1999999086001MD1219999+9999ME1314999OA149901961REMSYN076AAXX  17144 06639 33/// /2318 11012 21023 38600 48499 52/// 333 91138 91222;
0137066390999992010011715004+47000+007933FM-12+140699999V0202301N008219999999N9999999N1-00181-00231999999ADDMA1999999086081MD1210141+9999ME1315069OA149902111REMSYN076AAXX  17154 06639 33/// /2316 11018 21023 38608 48506 52014 333 91141 91222;
0137066390999992010011716004+47000+007933FM-12+140699999V0202301N006719999999N9999999N1-00211-00361999999ADDMA1999999086171MD1310221+9999ME1315149OA149901801REMSYN076AAXX  17164 06639 33/// /2313 11021 21036 38617 48514 53022 333 91135 91217;
0137066390999992010011717004+47000+007933FM-12+140699999V0202301N006219999999N9999999N1-00221-00331999999ADDMA1999999086241MD1210241+9999ME1315209OA149901441REMSYN076AAXX  17174 06639 33/// /2312 11022 21033 38624 48520 52024 333 91128 91217;
0179066390999992010011718004+47000+007933FM-12+140699999V0202201N006219999999N9999999N1-00211-00281999999ADDAA112002091KA1120M+00051MA1999999086301MD1110221+9999ME1315269OA149902111REMSYN094AAXX  17184 06639 03/// /2212 11021 21028 38630 48526 51022 60022 333 10005 60005 91141 91224;
0137066390999992010011719004+47000+007933FM-12+140699999V0202401N003619999999N9999999N1-00211-00291999999ADDMA1999999086331MD1110161+9999ME1315299OA149900931REMSYN076AAXX  17194 06639 33/// /2407 11021 21029 38633 48529 51016 333 91118 91212;
0137066390999992010011720004+47000+007933FM-12+140699999V0202401N004619999999N9999999N1-00201-00281999999ADDMA1999999086341MD1210101+9999ME1315309OA149900931REMSYN076AAXX  17204 06639 33/// /2409 11020 21028 38634 48530 52010 333 91118 91210;
0137066390999992010011721004+47000+007933FM-12+140699999V0202201N005119999999N9999999N1-00231-00281999999ADDMA1999999086351MD1210051+9999ME1315319OA149901441REMSYN076AAXX  17214 06639 33/// /2210 11023 21028 38635 48531 52005 333 91128 91217;
0137066390999992010011722004+47000+007933FM-12+140699999V0202201N005119999999N9999999N1-00241-00311999999ADDMA1999999086351MD1210021+9999ME1315309OA149900981REMSYN076AAXX  17224 06639 33/// /2210 11024 21031 38635 48530 52002 333 91119 91211;
0137066390999992010011723004+47000+007933FM-12+140699999V0202401N004619999999N9999999N1-00211-00411999999ADDMA1999999086361MD1210021+9999ME1315329OA149900771REMSYN076AAXX  17234 06639 33/// /2409 11021 21041 38636 48532 52002 333 91115 91211;
0137066390999992010011800004+47000+007933FM-12+140699999V0202401N004619999999N9999999N1-00251-00421999999ADDMA1999999086351MD1410001+9999ME1315309OA149901961REMSYN076AAXX  18004 06639 33/// /2409 11025 21042 38635 48530 54000 333 91138 91222;
