0158066303999992010010104504+46917+007483FM-15+0510LSZB V0201101N002110027019N0030001N1+00201+00201999999ADDGA1021+000301999GA2071+002701999GF107991999999999999999999MA1098921999999MW1101REMMET067METAR LSZB 010450Z 11004KT 3000 BR FEW001 BKN009 02/02 Q0989 NOSIG;
0158066303999992010010105204+46917+007483FM-15+0510LSZB V0201001N002610027019N0025001N1+00201+00201999999ADDGA1021+000301999GA2071+002701999GF107991999999999999999999MA1098921999999MW1101REMMET067METAR LSZB 010520Z 10005KT 2500 BR FEW001 BKN009 02/02 Q0989 NOSIG;
0158066303999992010010105504+46917+007483FM-15+0510LSZB V0201001N002110054019N0028001N1+00201+00201999999ADDGA1021+000301999GA2071+005401999GF107991999999999999999999MA1098921999999MW1101REMMET067METAR LSZB 010550Z 10004KT 2800 BR FEW001 BKN018 02/02 Q0989 NOSIG;
0158066303999992010010106204+46917+007483FM-15+0510LSZB V0201901N001510033019N0025001N1+00201+00201999999ADDGA1021+000301999GA2071+003301999GF107991999999999999999999MA1098921999999MW1101REMMET067METAR LSZB 010620Z 19003KT 2500 BR FEW001 BKN011 02/02 Q0989 NOSIG;
0155066303999992010010106504+46917+007483FM-15+0510LSZB V0209999V00101000151CN0004001N1+00201+00201999999ADDED199U05509GA1091+000151999GF109991999999000251999999MA1098921999999MW1451REMMET069METAR LSZB 010650Z VRB02KT 0400 R14/0550N FG VV/// 02/02 Q0989 NOSIG;
0155066303999992010010107204+46917+007483FM-15+0510LSZB V0201401N00151000151CN0004001N1+00201+00201999999ADDED199U04509GA1091+000151999GF109991999999000251999999MA1098921999999MW1451REMMET069METAR LSZB 010720Z 14003KT 0400 R14/0450N FG VV/// 02/02 Q0989 NOSIG;
0155066303999992010010107504+46917+007483FM-15+0510LSZB V0209999C00001000151CN0007001N1+00101+00101999999ADDED199U12009GA1091+000151999GF109991999999000251999999MA1098921999999MW1451REMMET069METAR LSZB 010750Z 00000KT 0700 R14/1200U FG VV/// 01/01 Q0989 NOSIG;
0150066303999992010010108204+46917+007483FM-15+0510LSZB V0201501N00151000151CN0008001N1+00201+00201999999ADDGA1091+000151999GF109991999999000251999999MA1098921999999MW1451REMMET075METAR LSZB 010820Z 15003KT 0800 R14/0800VP2000D FG VV/// 02/02 Q0989 NOSIG;
0150066303999992010010108504+46917+007483FM-15+0510LSZB V0209999V00051000151CN0010001N1+00201+00201999999ADDGA1091+000151999GF109991999999000251999999MA1098981999999MW1451REMMET075METAR LSZB 010850Z VRB01KT 1000 R14/0800VP2000D FG VV/// 02/02 Q0990 NOSIG;
0151066303999992010010109204+46917+007483FM-15+0510LSZB V0209999V000510009019N0030001N1+00201+00201999999ADDGA1081+000901999GF108991999999999999999999MA1098981999999MW1101REMMET076METAR LSZB 010920Z VRB01KT 3000 R14/0800VP2000D BR OVC003 02/02 Q0990 NOSIG;
0151066303999992010010109504+46917+007483FM-15+0510LSZB V0209999C000010015019N0030001N1+00301+00301999999ADDGA1081+001501999GF108991999999999999999999MA1098981999999MW1101REMMET076METAR LSZB 010950Z 00000KT 3000 R14/0800VP2000D BR OVC005 03/03 Q0990 NOSIG;
0158066303999992010010110204+46917+007483FM-15+0510LSZB V0209999V001010030019N0035001N1+00301+00301999999ADDGA1041+001501999GA2071+003001999GF107991999999999999999999MA1098981999999MW1101REMMET067METAR LSZB 011020Z VRB02KT 3500 BR SCT005 BKN010 03/03 Q0990 NOSIG;
0158066303999992010010110504+46917+007483FM-15+0510LSZB V0202801N001510240019N0045001N1+00401+00401999999ADDGA1041+001501999GA2071+024001999GF107991999999999999999999MA1098981999999MW1101REMMET067METAR LSZB 011050Z 28003KT 4500 BR SCT005 BKN080 04/04 Q0990 NOSIG;
0158066303999992010010111204+46917+007483FM-15+0510LSZB V0209999V001010240019N0045001N1+00501+00401999999ADDGA1041+001501999GA2071+024001999GF107991999999999999999999MA1098981999999MW1101REMMET067METAR LSZB 011120Z VRB02KT 4500 BR SCT005 BKN080 05/04 Q0990 NOSIG;
0158066303999992010010111504+46917+007483FM-15+0510LSZB V0209999V000510021019N0050001N1+00501+00401999999ADDGA1071+002101999GA2071+024001999GF107991999999999999999999MA1098981999999MW1101REMMET067METAR LSZB 011150Z VRB01KT 5000 BR BKN007 BKN080 05/04 Q0990 NOSIG;
0149066303999992010010112204+46917+007483FM-15+0510LSZB V0209999V001010150019N0060001N1+00501+00401999999ADDGA1041+002101999GA2071+015001999GF107991999999999999999999MA1099091999999REMMET064METAR LSZB 011220Z VRB02KT 6000 SCT007 BKN055 05/04 Q0991 NOSIG;
0149066303999992010010112504+46917+007483FM-15+0510LSZB V0209999V001510060019N0060001N1+00501+00401999999ADDGA1021+002101999GA2071+006001999GF107991999999999999999999MA1099091999999REMMET064METAR LSZB 011250Z VRB03KT 6000 FEW007 BKN020 05/04 Q0991 NOSIG;
0149066303999992010010113204+46917+007483FM-15+0510LSZB V0203101N002610054019N0060001N1+00501+00401999999ADDGA1021+002101999GA2071+005401999GF107991999999999999999999MA1099091999999REMMET064METAR LSZB 011320Z 31005KT 6000 FEW007 BKN018 05/04 Q0991 NOSIG;
0149066303999992010010113504+46917+007483FM-15+0510LSZB V0203301N002110054019N0060001N1+00601+00501999999ADDGA1021+002101999GA2071+005401999GF107991999999999999999999MA1099091999999REMMET064METAR LSZB 011350Z 33004KT 6000 FEW007 BKN018 06/05 Q0991 NOSIG;
0159066303999992010010114204+46917+007483FM-15+0510LSZB V0203401N002610024019N0045001N1+00501+00501999999ADDGA1071+002401999GA2071+004501999GF107991999999999999999999MA1099191999999MW1611REMMET068METAR LSZB 011420Z 34005KT 4500 -RA BKN008 BKN015 05/05 Q0992 NOSIG;
0136066303999992010010114504+46917+007483FM-15+0510LSZB V0203301N002610030019N0045001N1+00501+00501999999ADDGA1081+003001999GF108991999999999999999999MA1099291999999MW1611REMMET061METAR LSZB 011450Z 33005KT 4500 -RA OVC010 05/05 Q0993 NOSIG;
0158066303999992010010115204+46917+007483FM-15+0510LSZB V0203201N002610030019N0045001N1+00501+00401999999ADDGA1071+003001999GA2071+006001999GF107991999999999999999999MA1099291999999MW1631REMMET067METAR LSZB 011520Z 32005KT 4500 RA BKN010 BKN020 05/04 Q0993 NOSIG;
0158066303999992010010115504+46917+007483FM-15+0510LSZB V0203101N005110030019N0045001N1+00501+00401999999ADDGA1071+003001999GA2071+006001999GF107991999999999999999999MA1099391999999MW1631REMMET067METAR LSZB 011550Z 31010KT 4500 RA BKN010 BKN020 05/04 Q0994 NOSIG;
0172066303999992010010116204+46917+007483FM-15+0510LSZB V0203301N002110036019N0060001N1+00401+00201999999ADDGA1021+002101999GA2071+003601999GA3081+005401999GF108991999999999999999999MA1099591999999REMMET071METAR LSZB 011620Z 33004KT 6000 FEW007 BKN012 OVC018 04/02 Q0996 NOSIG;
0181066303999992010010116504+46917+007483FM-15+0510LSZB V0202901N003110036019N0090001N1+00301+00201999999ADDGA1021+002101999GA2071+003601999GA3081+005401999GF108991999999999999999999MA1099701999999MW1631REMMET074METAR LSZB 011650Z 29006KT 9000 RA FEW007 BKN012 OVC018 03/02 Q0997 NOSIG;
0166066303999992010010117204+46917+007483FM-15+0510LSZB V0202901N003110039019N0090001N1+00301+00201999999ADDGA1071+003901999GA2081+008401999GF108991999999999999999999MA1099701999999MW1631REMMET075METAR LSZB 011720Z 29006KT 240V350 9000 RA BKN013 OVC028 03/02 Q0997 NOSIG;
0158066303999992010010117504+46917+007483FM-15+0510LSZB V0202701N005110033019N0070001N1+00301+00201999999ADDGA1071+003301999GA2071+007801999GF107991999999999999999999MA1099801999999MW1631REMMET067METAR LSZB 011750Z 27010KT 7000 RA BKN011 BKN026 03/02 Q0998 NOSIG;
0159066303999992010010118204+46917+007483FM-15+0510LSZB V0202501N004610033019N0045001N1+00301+00201999999ADDGA1071+003301999GA2071+009001999GF107991999999999999999999MA1099901999999MW1651REMMET068METAR LSZB 011820Z 25009KT 4500 +RA BKN011 BKN030 03/02 Q0999 NOSIG;
0159066303999992010010118504+46917+007483FM-15+0510LSZB V0202601N006210033019N0045001N1+00301+00101999999ADDGA1071+003301999GA2071+009001999GF107991999999999999999999MA1100001999999MW1651REMMET068METAR LSZB 011850Z 26012KT 4500 +RA BKN011 BKN030 03/01 Q1000 NOSIG;
0159066303999992010010119204+46917+007483FM-15+0510LSZB V0202901N006210033019N0045001N1+00201+00101999999ADDGA1071+003301999GA2071+009001999GF107991999999999999999999MA1100101999999MW1651REMMET068METAR LSZB 011920Z 29012KT 4500 +RA BKN011 BKN030 02/01 Q1001 NOSIG;
0158066303999992010010119504+46917+007483FM-15+0510LSZB V0202801N005110033019N0045001N1+00201+00101999999ADDGA1071+003301999GA2071+012001999GF107991999999999999999999MA1100101999999MW1631REMMET067METAR LSZB 011950Z 28010KT 4500 RA BKN011 BKN040 02/01 Q1001 NOSIG;
0131066303999992010010120204+46917+007483FM-15+0510LSZB V0202701N006210120019N0080001N1+00201+00001999999ADDGA1071+012001999GF107991999999999999999999MA1100201999999REMMET062METAR LSZB 012020Z 27012KT 8000 BKN040 02/00 Q1002 RERA NOSIG;
0133066303999992010010205204+46917+007483FM-15+0510LSZB V0202201N002610117019N0090001N1-00101-00501999999ADDGA1071+011701999GF107991999999999999999999MA1101081999999REMMET064METAR LSZB 020520Z 22005KT 9000 BKN039 M01/M05 Q1011 TEMPO SHSN;
0139066303999992010010205504+46917+007483FM-15+0510LSZB V0201901N001510117019N0090001N1-00101-00501999999ADDGA1071+011701999GF107991999999999999999999MA1101081999999REMMET070METAR LSZB 020550Z 19003KT 9000 BKN039 M01/M05 Q1011 R14/950194 NOSIG;
0162066303999992010010206204+46917+007483FM-15+0510LSZB V0201901N001010210019N0090001N1-00201-00501999999ADDGA1041+011701999GA2071+021001999GF107991999999999999999999MA1101191999999REMMET077METAR LSZB 020620Z 19002KT 9000 SCT039 BKN076 M02/M05 Q1012 R14/950194 NOSIG;
0139066303999992010010206504+46917+007483FM-15+0510LSZB V0202001N001510105019N0090001N1-00201-00501999999ADDGA1071+010501999GF107991999999999999999999MA1101191999999REMMET070METAR LSZB 020650Z 20003KT 9000 BKN035 M02/M05 Q1012 R14/950194 NOSIG;
0139066303999992010010207204+46917+007483FM-15+0510LSZB V0202701N001510081019N0090001N1-00201-00401999999ADDGA1071+008101999GF107991999999999999999999MA1101291999999REMMET070METAR LSZB 020720Z 27003KT 9000 BKN027 M02/M04 Q1013 R14/950194 NOSIG;
0170066303999992010010207504+46917+007483FM-15+0510LSZB V0203301N002110120019N0112651N1-00201-00501999999ADDGA1041+007501999GA2071+012001999GF107991999999999999999999MA1101291999999REMMET085METAR LSZB 020750Z 33004KT 300V020 9999 SCT025 BKN040 M02/M05 Q1013 R14/950194 NOSIG;
0172066303999992010010208204+46917+007483FM-15+0510LSZB V0203001N004610120019N0070001N1-00101-00601999999ADDGA1041+007501999GA2071+012001999GF107991999999999999999999MA1101391999999MW1711REMMET081METAR LSZB 020820Z 30009KT 7000 -SN SCT025 BKN040 M01/M06 Q1014 R14/950061 NOSIG;
0195066303999992010010208504+46917+007483FM-15+0510LSZB V0203001N00461007501CN0050001N1-00201-00601999999ADDGA1021+002701999GA2041+007501999GA3071+012001999GF107991999999999999999999MA1101391999999MW1711REMMET088METAR LSZB 020850Z 30009KT 5000 -SN FEW009 SCT025 BKN040 M02/M06 Q1014 R14/950061 NOSIG;
0172066303999992010010209204+46917+007483FM-15+0510LSZB V0203001N004112200019N0112651N1-00201-00701999999ADDGA1021+002701999GA2041+007501999GF104991999999999999999999MA1101491999999MW1711REMMET081METAR LSZB 020920Z 30008KT 9999 -SN FEW009 SCT025 M02/M07 Q1015 R14/950061 NOSIG;
0139066303999992010010209504+46917+007483FM-15+0510LSZB V0202801N004112200019N0112651N1-00201-00701999999ADDGA1041+007501999GF104991999999999999999999MA1101491999999REMMET070METAR LSZB 020950Z 28008KT 9999 SCT025 M02/M07 Q1015 R14/950061 NOSIG;
0139066303999992010010210204+46917+007483FM-15+0510LSZB V0202501N002612200019N0112651N1-00101-00701999999ADDGA1041+010801999GF104991999999999999999999MA1101591999999REMMET070METAR LSZB 021020Z 25005KT 9999 SCT036 M01/M07 Q1016 R14/950061 NOSIG;
0139066303999992010010210504+46917+007483FM-15+0510LSZB V0202401N003612200019N0112651N1-00201-00701999999ADDGA1041+012001999GF104991999999999999999999MA1101591999999REMMET070METAR LSZB 021050Z 24007KT 9999 SCT040 M02/M07 Q1016 R14/950061 NOSIG;
0139066303999992010010211204+46917+007483FM-15+0510LSZB V0202401N004612200019N0112651N1-00101-00701999999ADDGA1041+012001999GF104991999999999999999999MA1101591999999REMMET070METAR LSZB 021120Z 24009KT 9999 SCT040 M01/M07 Q1016 R14/950061 NOSIG;
0139066303999992010010211504+46917+007483FM-15+0510LSZB V0202301N003612200019N0112651N1-00101-00601999999ADDGA1041+012001999GF104991999999999999999999MA1101591999999REMMET070METAR LSZB 021150Z 23007KT 9999 SCT040 M01/M06 Q1016 R14/920293 NOSIG;
0139066303999992010010212204+46917+007483FM-15+0510LSZB V0202301N003112200019N0112651N1-00101-00701999999ADDGA1041+009901999GF104991999999999999999999MA1101691999999REMMET070METAR LSZB 021220Z 23006KT 9999 SCT033 M01/M07 Q1017 R14/920293 NOSIG;
0170066303999992010010212504+46917+007483FM-15+0510LSZB V0202401N002612200019N0112651N1-00101-00701999999ADDGA1021+009901999GA2041+012001999GF104991999999999999999999MA1101691999999REMMET085METAR LSZB 021250Z 24005KT 220V310 9999 FEW033 SCT040 M01/M07 Q1017 R14/250295 NOSIG;
0169066303999992010010213204+46917+007483FM-15+0510LSZB V0202001N003112200019N0112651N1+00001-00601999999ADDGA1021+011401999GA2041+013801999GF104991999999999999999999MA1101691999999REMMET084METAR LSZB 021320Z 20006KT 170V250 9999 FEW038 SCT046 00/M06 Q1017 R14/250295 NOSIG;
0151066303999992010010213504+46917+007483FM-15+0510LSZB V0202401N004112200019N0112651N1+00001-00601999999ADDGA1021+011401999GA2041+015001999GF104991999999999999999999MA1101801999999REMMET066METAR LSZB 021350Z 24008KT 9999 FEW038 SCT050 M00/M06 Q1018 NOSIG;
0128066303999992010010214204+46917+007483FM-15+0510LSZB V0202001N003612200019N0112651N1+00001-00601999999ADDGA1021+012001999GF102991999999999999999999MA1101801999999REMMET059METAR LSZB 021420Z 20007KT 9999 FEW040 M00/M06 Q1018 NOSIG;
0128066303999992010010214504+46917+007483FM-15+0510LSZB V0202201N003112200019N0112651N1-00101-00601999999ADDGA1021+012001999GF102991999999999999999999MA1101801999999REMMET059METAR LSZB 021450Z 22006KT 9999 FEW040 M01/M06 Q1018 NOSIG;
0128066303999992010010215204+46917+007483FM-15+0510LSZB V0202401N002112200019N0112651N1-00101-00701999999ADDGA1021+012001999GF102991999999999999999999MA1101901999999REMMET059METAR LSZB 021520Z 24004KT 9999 FEW040 M01/M07 Q1019 NOSIG;
0136066303999992010010215504+46917+007483FM-15+0510LSZB V0202401N001512200019N0112651N1-00201-00601999999ADDGA1021+013801999GF102991999999999999999999MA1101901999999REMMET067METAR LSZB 021550Z 24003KT 180V290 9999 FEW046 M02/M06 Q1019 NOSIG;
0128066303999992010010216204+46917+007483FM-15+0510LSZB V0202501N003612200019N0112651N1-00201-00701999999ADDGA1021+013801999GF102991999999999999999999MA1101901999999REMMET059METAR LSZB 021620Z 25007KT 9999 FEW046 M02/M07 Q1019 NOSIG;
0080066303999992010010306504+46917+007483FM-15+0510LSZB V0209999V001519999999Y0099001N1-00801-00901999999ADDMA1102001999999REMMET053METAR LSZB 030650Z VRB03KT CAVOK M08/M09 Q1020 NOSIG;
0080066303999992010010307204+46917+007483FM-15+0510LSZB V0202801N001019999999Y0099001N1-00801-00901999999ADDMA1102001999999REMMET053METAR LSZB 030720Z 28002KT CAVOK M08/M09 Q1020 NOSIG;
0080066303999992010010307504+46917+007483FM-15+0510LSZB V0209999V000519999999Y0099001N1-00801-00901999999ADDMA1102001999999REMMET053METAR LSZB 030750Z VRB01KT CAVOK M08/M09 Q1020 NOSIG;
0080066303999992010010308204+46917+007483FM-15+0510LSZB V0201301N001019999999Y0099001N1-00801-00901999999ADDMA1102001999999REMMET053METAR LSZB 030820Z 13002KT CAVOK M08/M09 Q1020 NOSIG;
0080066303999992010010308504+46917+007483FM-15+0510LSZB V0201801N001019999999Y0099001N1-00701-00901999999ADDMA1102001999999REMMET053METAR LSZB 030850Z 18002KT CAVOK M07/M09 Q1020 NOSIG;
0080066303999992010010309204+46917+007483FM-15+0510LSZB V0201601N002119999999Y0099001N1-00601-00801999999ADDMA1102001999999REMMET053METAR LSZB 030920Z 16004KT CAVOK M06/M08 Q1020 NOSIG;
0080066303999992010010309504+46917+007483FM-15+0510LSZB V0201401N002619999999Y0099001N1-00501-00701999999ADDMA1102001999999REMMET053METAR LSZB 030950Z 14005KT CAVOK M05/M07 Q1020 NOSIG;
0080066303999992010010310204+46917+007483FM-15+0510LSZB V0201401N002619999999Y0099001N1-00401-00801999999ADDMA1101901999999REMMET053METAR LSZB 031020Z 14005KT CAVOK M04/M08 Q1019 NOSIG;
0080066303999992010010310504+46917+007483FM-15+0510LSZB V0201301N001519999999Y0099001N1-00301-00801999999ADDMA1101901999999REMMET053METAR LSZB 031050Z 13003KT CAVOK M03/M08 Q1019 NOSIG;
0080066303999992010010311204+46917+007483FM-15+0510LSZB V0209999V000519999999Y0099001N1-00301-00801999999ADDMA1101901999999REMMET053METAR LSZB 031120Z VRB01KT CAVOK M03/M08 Q1019 NOSIG;
0080066303999992010010311504+46917+007483FM-15+0510LSZB V0209999V000519999999Y0099001N1-00201-00801999999ADDMA1101901999999REMMET053METAR LSZB 031150Z VRB01KT CAVOK M02/M08 Q1019 NOSIG;
0080066303999992010010312204+46917+007483FM-15+0510LSZB V0201601N001019999999Y0099001N1-00201-00701999999ADDMA1101801999999REMMET053METAR LSZB 031220Z 16002KT CAVOK M02/M07 Q1018 NOSIG;
0080066303999992010010312504+46917+007483FM-15+0510LSZB V0201601N001519999999Y0099001N1-00101-00701999999ADDMA1101801999999REMMET053METAR LSZB 031250Z 16003KT CAVOK M01/M07 Q1018 NOSIG;
0080066303999992010010313204+46917+007483FM-15+0510LSZB V0201601N001519999999Y0099001N1-00101-00701999999ADDMA1101801999999REMMET053METAR LSZB 031320Z 16003KT CAVOK M01/M07 Q1018 NOSIG;
0080066303999992010010313504+46917+007483FM-15+0510LSZB V0201601N001519999999Y0099001N1-00101-00701999999ADDMA1101801999999REMMET053METAR LSZB 031350Z 16003KT CAVOK M01/M07 Q1018 NOSIG;
0080066303999992010010314204+46917+007483FM-15+0510LSZB V0201601N001519999999Y0099001N1-00301-00701999999ADDMA1101801999999REMMET053METAR LSZB 031420Z 16003KT CAVOK M03/M07 Q1018 NOSIG;
0080066303999992010010314504+46917+007483FM-15+0510LSZB V0209999V001019999999Y0099001N1-00401-00701999999ADDMA1101801999999REMMET053METAR LSZB 031450Z VRB02KT CAVOK M04/M07 Q1018 NOSIG;
0080066303999992010010315204+46917+007483FM-15+0510LSZB V0201201N001519999999Y0099001N1-00501-00701999999ADDMA1101801999999REMMET053METAR LSZB 031520Z 12003KT CAVOK M05/M07 Q1018 NOSIG;
0080066303999992010010315504+46917+007483FM-15+0510LSZB V0209999V001019999999Y0099001N1-00501-00801999999ADDMA1101801999999REMMET053METAR LSZB 031550Z VRB02KT CAVOK M05/M08 Q1018 NOSIG;
0080066303999992010010316204+46917+007483FM-15+0510LSZB V0209999V001019999999Y0099001N1-00601-00801999999ADDMA1101801999999REMMET053METAR LSZB 031620Z VRB02KT CAVOK M06/M08 Q1018 NOSIG;
0080066303999992010010316504+46917+007483FM-15+0510LSZB V0201501N001019999999Y0099001N1-00601-00801999999ADDMA1101801999999REMMET053METAR LSZB 031650Z 15002KT CAVOK M06/M08 Q1018 NOSIG;
0080066303999992010010317204+46917+007483FM-15+0510LSZB V0201301N002119999999Y0099001N1-00701-00801999999ADDMA1101801999999REMMET053METAR LSZB 031720Z 13004KT CAVOK M07/M08 Q1018 NOSIG;
0080066303999992010010317504+46917+007483FM-15+0510LSZB V0209999V000519999999Y0099001N1-00701-00801999999ADDMA1101801999999REMMET053METAR LSZB 031750Z VRB01KT CAVOK M07/M08 Q1018 NOSIG;
0080066303999992010010318204+46917+007483FM-15+0510LSZB V0201601N001019999999Y0099001N1-00701-00801999999ADDMA1101801999999REMMET053METAR LSZB 031820Z 16002KT CAVOK M07/M08 Q1018 NOSIG;
0080066303999992010010318504+46917+007483FM-15+0510LSZB V0201501N001519999999Y0099001N1-00801-00901999999ADDMA1101801999999REMMET053METAR LSZB 031850Z 15003KT CAVOK M08/M09 Q1018 NOSIG;
0080066303999992010010319204+46917+007483FM-15+0510LSZB V0201601N001519999999Y0099001N1-00801-00901999999ADDMA1101691999999REMMET053METAR LSZB 031920Z 16003KT CAVOK M08/M09 Q1017 NOSIG;
0080066303999992010010319504+46917+007483FM-15+0510LSZB V0209999V000519999999Y0099001N1-00901-00901999999ADDMA1101691999999REMMET053METAR LSZB 031950Z VRB01KT CAVOK M09/M09 Q1017 NOSIG;
0080066303999992010010320204+46917+007483FM-15+0510LSZB V0201601N001519999999Y0099001N1-00901-00901999999ADDMA1101691999999REMMET053METAR LSZB 032020Z 16003KT CAVOK M09/M09 Q1017 NOSIG;
0138066303999992010010405204+46917+007483FM-15+0510LSZB V0209999V000510180019N0090001N1-00601-00801999999ADDGA1071+018001999GF107991999999999999999999MA1101291999999MW1711REMMET063METAR LSZB 040520Z VRB01KT 9000 -SN BKN060 M06/M08 Q1013 NOSIG;
0138066303999992010010405504+46917+007483FM-15+0510LSZB V0201601N001510150019N0090001N1-00601-00701999999ADDGA1071+015001999GF107991999999999999999999MA1101291999999MW1711REMMET063METAR LSZB 040550Z 16003KT 9000 -SN BKN050 M06/M07 Q1013 NOSIG;
0138066303999992010010406204+46917+007483FM-15+0510LSZB V0201501N001510180019N0090001N1-00601-00701999999ADDGA1071+018001999GF107991999999999999999999MA1101291999999MW1711REMMET063METAR LSZB 040620Z 15003KT 9000 -SN BKN060 M06/M07 Q1013 NOSIG;
0128066303999992010010406504+46917+007483FM-15+0510LSZB V0209999V001010180019N0112651N1-00501-00701999999ADDGA1071+018001999GF107991999999999999999999MA1101291999999REMMET059METAR LSZB 040650Z VRB02KT 9999 BKN060 M05/M07 Q1013 NOSIG;
0128066303999992010010407204+46917+007483FM-15+0510LSZB V0209999V000510180019N0112651N1-00501-00701999999ADDGA1071+018001999GF107991999999999999999999MA1101291999999REMMET059METAR LSZB 040720Z VRB01KT 9999 BKN060 M05/M07 Q1013 NOSIG;
0128066303999992010010407504+46917+007483FM-15+0510LSZB V0209999V001010180019N0112651N1-00501-00701999999ADDGA1071+018001999GF107991999999999999999999MA1101291999999REMMET059METAR LSZB 040750Z VRB02KT 9999 BKN060 M05/M07 Q1013 NOSIG;
0128066303999992010010408204+46917+007483FM-15+0510LSZB V0209999V000510180019N0112651N1-00501-00701999999ADDGA1071+018001999GF107991999999999999999999MA1101291999999REMMET059METAR LSZB 040820Z VRB01KT 9999 BKN060 M05/M07 Q1013 NOSIG;
0151066303999992010010408504+46917+007483FM-15+0510LSZB V0209999V000510180019N0112651N1-00501-00701999999ADDGA1021+007501999GA2071+018001999GF107991999999999999999999MA1101291999999REMMET066METAR LSZB 040850Z VRB01KT 9999 FEW025 BKN060 M05/M07 Q1013 NOSIG;
0151066303999992010010409204+46917+007483FM-15+0510LSZB V0209999V000510180019N0112651N1-00401-00601999999ADDGA1021+007501999GA2071+018001999GF107991999999999999999999MA1101291999999REMMET066METAR LSZB 040920Z VRB01KT 9999 FEW025 BKN060 M04/M06 Q1013 NOSIG;
0151066303999992010010409504+46917+007483FM-15+0510LSZB V0209999V000510180019N0112651N1-00401-00601999999ADDGA1021+007501999GA2071+018001999GF107991999999999999999999MA1101291999999REMMET066METAR LSZB 040950Z VRB01KT 9999 FEW025 BKN060 M04/M06 Q1013 NOSIG;
0138066303999992010010410204+46917+007483FM-15+0510LSZB V0209999C000010180019N0112651N1-00401-00601999999ADDGA1071+018001999GF107991999999999999999999MA1101291999999MW1711REMMET063METAR LSZB 041020Z 00000KT 9999 -SN BKN060 M04/M06 Q1013 NOSIG;
0138066303999992010010410504+46917+007483FM-15+0510LSZB V0209999C000010150019N0112651N1-00401-00601999999ADDGA1071+015001999GF107991999999999999999999MA1101191999999MW1711REMMET063METAR LSZB 041050Z 00000KT 9999 -SN BKN050 M04/M06 Q1012 NOSIG;
0138066303999992010010411204+46917+007483FM-15+0510LSZB V0209999V000510150019N0112651N1-00301-00601999999ADDGA1071+015001999GF107991999999999999999999MA1101191999999MW1711REMMET063METAR LSZB 041120Z VRB01KT 9999 -SN BKN050 M03/M06 Q1012 NOSIG;
0128066303999992010010411504+46917+007483FM-15+0510LSZB V0209999V001010150019N0112651N1-00301-00601999999ADDGA1071+015001999GF107991999999999999999999MA1101081999999REMMET059METAR LSZB 041150Z VRB02KT 9999 BKN050 M03/M06 Q1011 NOSIG;
0157066303999992010010412204+46917+007483FM-15+0510LSZB V0209999V000510150019N0070001N1-00301-00601999999ADDGA1041+009001999GA2071+015001999GF107991999999999999999999MA1101081999999REMMET072METAR LSZB 041220Z VRB01KT 7000 -SHSN SCT030 BKN050 M03/M06 Q1011 NOSIG;
0167066303999992010010412504+46917+007483FM-15+0510LSZB V0201801N001010150019N0112651N1-00301-00501999999ADDGA1041+007501999GA2071+015001999GF107991999999999999999999MA1101081999999MW1711REMMET076METAR LSZB 041250Z 18002KT 9999 4000S -SN SCT025 BKN050 M03/M05 Q1011 NOSIG;
0167066303999992010010413204+46917+007483FM-15+0510LSZB V0201701N001010120019N0112651N1-00201-00501999999ADDGA1041+007501999GA2071+012001999GF107991999999999999999999MA1101081999999MW1711REMMET076METAR LSZB 041320Z 17002KT 9999 3000S -SN SCT025 BKN040 M02/M05 Q1011 NOSIG;
0167066303999992010010413504+46917+007483FM-15+0510LSZB V0201501N001510150019N0060001N1-00301-00501999999ADDGA1041+006901999GA2071+015001999GF107991999999999999999999MA1101021999999MW1711REMMET076METAR LSZB 041350Z 15003KT 6000 2000S -SN SCT023 BKN050 M03/M05 Q1010 NOSIG;
0167066303999992010010414204+46917+007483FM-15+0510LSZB V0209999V001010150019N0060001N1-00301-00401999999ADDGA1041+006901999GA2071+015001999GF107991999999999999999999MA1101021999999MW1711REMMET076METAR LSZB 041420Z VRB02KT 6000 2000S -SN SCT023 BKN050 M03/M04 Q1010 NOSIG;
0201066303999992010010414504+46917+007483FM-15+0510LSZB V0201701N00151012001CN0060001N1-00301-00401999999ADDGA1021+006601999GA2041+012001999GA3071+015001999GF107991999999999999999999MA1101021999999MW1711REMMET094METAR LSZB 041450Z 17003KT 6000 2000S -SN FEW022 SCT040 BKN050 M03/M04 Q1010 R14/450395 NOSIG;
0178066303999992010010415204+46917+007483FM-15+0510LSZB V0201601N001010135019N0050001N1-00301-00401999999ADDGA1021+006001999GA2071+013501999GF107991999999999999999999MA1101021999999MW1711REMMET087METAR LSZB 041520Z 16002KT 5000 2000S -SN FEW020 BKN045 M03/M04 Q1010 R14/450395 NOSIG;
0178066303999992010010415504+46917+007483FM-15+0510LSZB V0201701N001010135019N0060001N1-00301-00401999999ADDGA1021+006001999GA2071+013501999GF107991999999999999999999MA1101021999999MW1711REMMET087METAR LSZB 041550Z 17002KT 6000 2000S -SN FEW020 BKN045 M03/M04 Q1010 R14/450395 NOSIG;
0201066303999992010010416204+46917+007483FM-15+0510LSZB V0201501N00101010801CN0060001N1-00301-00401999999ADDGA1021+006001999GA2041+010801999GA3071+015001999GF107991999999999999999999MA1101021999999MW1711REMMET094METAR LSZB 041620Z 15002KT 6000 2000S -SN FEW020 SCT036 BKN050 M03/M04 Q1010 R14/450395 NOSIG;
0172066303999992010010416504+46917+007483FM-15+0510LSZB V0209999V001010054019N0030001N1-00301-00401999999ADDGA1021+001801999GA2071+005401999GF107991999999999999999999MA1101021999999MW1711REMMET081METAR LSZB 041650Z VRB02KT 3000 -SN FEW006 BKN018 M03/M04 Q1010 R14/450395 NOSIG;
0195066303999992010010417204+46917+007483FM-15+0510LSZB V0209999V00051005101CN0040001N1-00301-00401999999ADDGA1021+001801999GA2041+005101999GA3071+010501999GF107991999999999999999999MA1101021999999MW1711REMMET088METAR LSZB 041720Z VRB01KT 4000 -SN FEW006 SCT017 BKN035 M03/M04 Q1010 R14/450395 NOSIG;
0195066303999992010010417504+46917+007483FM-15+0510LSZB V0201501N00051007501CN0060001N1-00401-00401999999ADDGA1021+001801999GA2041+007501999GA3071+018001999GF107991999999999999999999MA1101021999999MW1711REMMET088METAR LSZB 041750Z 15001KT 6000 -SN FEW006 SCT025 BKN060 M04/M04 Q1010 R14/450395 NOSIG;
0195066303999992010010418204+46917+007483FM-15+0510LSZB V0209999V00051007501CN0060001N1-00401-00401999999ADDGA1021+001801999GA2041+007501999GA3071+018001999GF107991999999999999999999MA1101021999999MW1711REMMET088METAR LSZB 041820Z VRB01KT 6000 -SN FEW006 SCT025 BKN060 M04/M04 Q1010 R14/450395 NOSIG;
0195066303999992010010418504+46917+007483FM-15+0510LSZB V0209999V00051009001CN0060001N1-00401-00401999999ADDGA1021+001801999GA2041+009001999GA3071+018001999GF107991999999999999999999MA1101021999999MW1711REMMET088METAR LSZB 041850Z VRB01KT 6000 -SN FEW006 SCT030 BKN060 M04/M04 Q1010 R14/450395 NOSIG;
0185066303999992010010419204+46917+007483FM-15+0510LSZB V0202101N00051009001CN0060001N1-00401-00401999999ADDGA1021+001801999GA2041+009001999GA3071+015001999GF107991999999999999999999MA1100911999999REMMET084METAR LSZB 041920Z 21001KT 6000 FEW006 SCT030 BKN055 M04/M04 Q1009 R14/920277 NOSIG;
0185066303999992010010419504+46917+007483FM-15+0510LSZB V0201701N00051009901CN0060001N1-00301-00401999999ADDGA1021+003001999GA2041+009901999GA3071+015001999GF107991999999999999999999MA1100911999999REMMET084METAR LSZB 041950Z 17001KT 6000 FEW010 SCT033 BKN055 M03/M04 Q1009 R14/920277 NOSIG;
0193066303999992010010420204+46917+007483FM-15+0510LSZB V0203101N00211009901CN0060001N1-00301-00401999999ADDGA1021+003001999GA2041+009901999GA3071+015001999GF107991999999999999999999MA1100911999999REMMET092METAR LSZB 042020Z 31004KT 270V350 6000 FEW010 SCT033 BKN055 M03/M04 Q1009 R14/920277 NOSIG;
0174066303999992010010505204+46917+007483FM-15+0510LSZB V0202901N00151009001CN0050001N1-00401-00501999999ADDGA1021+005401999GA2041+009001999GA3071+015001999GF107991999999999999999999MA1100511999999REMMET073METAR LSZB 050520Z 29003KT 5000 FEW018 SCT030 BKN050 M04/M05 Q1005 NOSIG;
0151066303999992010010505504+46917+007483FM-15+0510LSZB V0203101N002110240019N0070001N1-00401-00501999999ADDGA1041+012001999GA2071+024001999GF107991999999999999999999MA1100411999999REMMET066METAR LSZB 050550Z 31004KT 7000 SCT040 BKN088 M04/M05 Q1004 NOSIG;
0172066303999992010010506204+46917+007483FM-15+0510LSZB V0203101N002110180019N0060001N1-00401-00501999999ADDGA1041+012001999GA2081+018001999GF108991999999999999999999MA1100411999999MW1711REMMET081METAR LSZB 050620Z 31004KT 6000 -SN SCT040 OVC060 M04/M05 Q1004 R14/920270 NOSIG;
0171066303999992010010506504+46917+007483FM-15+0510LSZB V0203001N001510180019N0025001N1-00401-00501999999ADDGA1041+003901999GA2081+018001999GF108991999999999999999999MA1100411999999MW1731REMMET080METAR LSZB 050650Z 30003KT 2500 SN SCT013 OVC060 M04/M05 Q1004 R14/920270 NOSIG;
0171066303999992010010507204+46917+007483FM-15+0510LSZB V0203101N002110114019N0025001N1-00401-00501999999ADDGA1041+003001999GA2081+011401999GF108991999999999999999999MA1100411999999MW1731REMMET080METAR LSZB 050720Z 31004KT 2500 SN SCT010 OVC038 M04/M05 Q1004 R14/920270 NOSIG;
0187066303999992010010507504+46917+007483FM-15+0510LSZB V0203101N002610087019N0016001N1-00501-00501999999ADDGA1041+003001999GA2081+008701999GF108991999999999999999999MA1100411999999MW1731REMMET096METAR LSZB 050750Z 31005KT 1600 R14/1400VP2000D SN SCT010 OVC029 M05/M05 Q1004 R14/920270 NOSIG;
0187066303999992010010508204+46917+007483FM-15+0510LSZB V0203201N001510087019N0022001N1-00501-00501999999ADDGA1041+003001999GA2071+008701999GF107991999999999999999999MA1100411999999MW1731REMMET096METAR LSZB 050820Z 32003KT 2200 R14/1300VP2000U SN SCT010 BKN029 M05/M05 Q1004 R14/490595 NOSIG;
0188066303999992010010508504+46917+007483FM-15+0510LSZB V0203201N001510135019N0025001N1-00401-00501999999ADDGA1041+003001999GA2071+013501999GF107991999999999999999999MA1100311999999MW1711REMMET097METAR LSZB 050850Z 32003KT 2500 R14/1300VP2000U -SN SCT010 BKN045 M04/M05 Q1003 R14/490595 NOSIG;
0195066303999992010010509204+46917+007483FM-15+0510LSZB V0203101N00261012001CN0030001N1-00401-00501999999ADDGA1021+002401999GA2041+012001999GA3071+024001999GF107991999999999999999999MA1100311999999MW1711REMMET088METAR LSZB 050920Z 31005KT 3000 -SN FEW008 SCT040 BKN080 M04/M05 Q1003 R14/490595 NOSIG;
0195066303999992010010509504+46917+007483FM-15+0510LSZB V0203201N00261008401CN0030001N1-00401-00501999999ADDGA1021+002401999GA2041+008401999GA3071+013501999GF107991999999999999999999MA1100311999999MW1711REMMET088METAR LSZB 050950Z 32005KT 3000 -SN FEW008 SCT028 BKN045 M04/M05 Q1003 R14/490595 NOSIG;
0194066303999992010010510204+46917+007483FM-15+0510LSZB V0203201N002110084019N0020001N1-00401-00501999999ADDGA1021+002401999GA2071+008401999GA3071+012001999GF107991999999999999999999MA1100311999999MW1731REMMET087METAR LSZB 051020Z 32004KT 2000 SN FEW008 BKN028 BKN040 M04/M05 Q1003 R14/920279 NOSIG;
0195066303999992010010510504+46917+007483FM-15+0510LSZB V0203201N001510084019N0020001N1-00301-00401999999ADDGA1021+002401999GA2071+008401999GA3071+010501999GF107991999999999999999999MA1100311999999MW1711REMMET088METAR LSZB 051050Z 32003KT 2000 -SN FEW008 BKN028 BKN035 M03/M04 Q1003 R14/920279 NOSIG;
0172066303999992010010511204+46917+007483FM-15+0510LSZB V0203101N001510105019N0030001N1-00301-00401999999ADDGA1021+002401999GA2081+010501999GF108991999999999999999999MA1100201999999MW1711REMMET081METAR LSZB 051120Z 31003KT 3000 -SN FEW008 OVC035 M03/M04 Q1002 R14/920279 NOSIG;
0172066303999992010010511504+46917+007483FM-15+0510LSZB V0209999V001010105019N0040001N1-00301-00401999999ADDGA1021+002401999GA2071+010501999GF107991999999999999999999MA1100201999999MW1711REMMET081METAR LSZB 051150Z VRB02KT 4000 -SN FEW008 BKN035 M03/M04 Q1002 R14/920279 NOSIG;
0172066303999992010010512204+46917+007483FM-15+0510LSZB V0209999V001010096019N0040001N1-00301-00501999999ADDGA1021+002401999GA2071+009601999GF107991999999999999999999MA1100101999999MW1711REMMET081METAR LSZB 051220Z VRB02KT 4000 -SN FEW008 BKN032 M03/M05 Q1001 R14/920279 NOSIG;
0172066303999992010010512504+46917+007483FM-15+0510LSZB V0203001N001510096019N0050001N1-00301-00501999999ADDGA1021+003601999GA2071+009601999GF107991999999999999999999MA1100101999999MW1711REMMET081METAR LSZB 051250Z 30003KT 5000 -SN FEW012 BKN032 M03/M05 Q1001 R14/920279 NOSIG;
0179066303999992010010513204+46917+007483FM-15+0510LSZB V0202601N001510105019N0060001N1-00201-00401999999ADDGA1021+003601999GA2071+010501999GF107991999999999999999999MA1100001999999MW1711REMMET088METAR LSZB 051320Z 26003KT 6000 2500NW -SN FEW012 BKN035 M02/M04 Q1000 R14/810291 NOSIG;
0179066303999992010010513504+46917+007483FM-15+0510LSZB V0209999V001010099019N0060001N1-00201-00401999999ADDGA1021+003601999GA2071+009901999GF107991999999999999999999MA1100001999999MW1711REMMET088METAR LSZB 051350Z VRB02KT 6000 2500NW -SN FEW012 BKN033 M02/M04 Q1000 R14/810291 NOSIG;
0179066303999992010010514204+46917+007483FM-15+0510LSZB V0202801N001010099019N0060001N1-00201-00401999999ADDGA1021+003601999GA2071+009901999GF107991999999999999999999MA1100001999999MW1711REMMET088METAR LSZB 051420Z 28002KT 6000 2500NW -SN FEW012 BKN033 M02/M04 Q1000 R14/810290 NOSIG;
0146066303999992010010514504+46917+007483FM-15+0510LSZB V0209999V001010099019N0050001N1-00201-00401999999ADDGA1071+009901999GF107991999999999999999999MA1100001999999REMMET077METAR LSZB 051450Z VRB02KT 5000 2400NW BKN033 M02/M04 Q1000 R14/810290 NOSIG;
0156066303999992010010515204+46917+007483FM-15+0510LSZB V0209999V001510096019N0050001N1-00201-00401999999ADDGA1071+009601999GF107991999999999999999999MA1100001999999MW1711REMMET081METAR LSZB 051520Z VRB03KT 5000 2400NW -SN BKN032 M02/M04 Q1000 R14/810290 NOSIG;
0186066303999992010010515504+46917+007483FM-15+0510LSZB V0202901N001510048019N0009001N1-00301-00401999999ADDGA1041+001201999GA2071+004801999GF107991999999999999999999MA1100001999999MW1731REMMET095METAR LSZB 051550Z 29003KT 0900 R14/1100V1400U SN SCT004 BKN016 M03/M04 Q1000 R14/490294 NOSIG;
0171066303999992010010516204+46917+007483FM-15+0510LSZB V0209999V001010090019N0018001N1-00301-00301999999ADDGA1041+002701999GA2071+009001999GF107991999999999999999999MA1100001999999MW1731REMMET080METAR LSZB 051620Z VRB02KT 1800 SN SCT009 BKN030 M03/M03 Q1000 R14/490227 NOSIG;
0195066303999992010010516504+46917+007483FM-15+0510LSZB V0209999V00051008401CN0030001N1-00301-00301999999ADDGA1021+000901999GA2041+008401999GA3071+012001999GF107991999999999999999999MA1100001999999MW1711REMMET088METAR LSZB 051650Z VRB01KT 3000 -SN FEW003 SCT028 BKN040 M03/M03 Q1000 R14/490248 NOSIG;
0199066303999992010010517204+46917+007483FM-15+0510LSZB V0203101N00101003001CN0013001N1-00301-00301999999ADDGA1021+000901999GA2041+003001999GA3071+006001999GF107991999999999999999999MA1100001999999MW1731REMMET092METAR LSZB 051720Z 31002KT 1300 R14/1200VP2000D SN FEW003 SCT010 BKN020 M03/M03 Q1000 NOSIG;
0183066303999992010010517504+46917+007483FM-15+0510LSZB V0202701N00101006001CN0030001N1-00301-00301999999ADDGA1021+000901999GA2041+006001999GA3071+011401999GF107991999999999999999999MA1099901999999MW1731REMMET076METAR LSZB 051750Z 27002KT 3000 SN FEW003 SCT020 BKN038 M03/M03 Q0999 NOSIG;
0210066303999992010010518204+46917+007483FM-15+0510LSZB V0203001N002110060019N0020001N1-00301-00301999999ADDGA1021+001501999GA2071+006001999GA3071+011401999GF107991999999999999999999MA1099901999999MW1731REMMET103METAR LSZB 051820Z 30004KT 2000 R14/1100VP2000N SN FEW005 BKN020 BKN038 M03/M03 Q0999 R14/490252 NOSIG;
0194066303999992010010518504+46917+007483FM-15+0510LSZB V0203001N002110036019N0033001N1-00301-00301999999ADDGA1021+001801999GA2071+003601999GA3071+010501999GF107991999999999999999999MA1099901999999MW1731REMMET087METAR LSZB 051850Z 30004KT 3300 SN FEW006 BKN012 BKN035 M03/M03 Q0999 R14/490254 NOSIG;
0195066303999992010010519204+46917+007483FM-15+0510LSZB V0203101N001010030019N0048001N1-00301-00301999999ADDGA1021+001801999GA2071+003001999GA3071+010501999GF107991999999999999999999MA1099901999999MW1711REMMET088METAR LSZB 051920Z 31002KT 4800 -SN FEW006 BKN010 BKN035 M03/M03 Q0999 R14/490254 NOSIG;
0190066303999992010010519504+46917+007483FM-15+0510LSZB V0209999V001510030019N0045001N1-00301-00301999999ADDGA1021+001801999GA2071+003001999GA3071+010501999GF107991999999999999999999MA1099901999999REMMET089METAR LSZB 051950Z VRB03KT 4500 FEW006 BKN010 BKN035 M03/M03 Q0999 RESN R14/490254 NOSIG;
0190066303999992010010520204+46917+007483FM-15+0510LSZB V0203101N002110030019N0050001N1-00301-00401999999ADDGA1021+001801999GA2071+003001999GA3071+010501999GF107991999999999999999999MA1099901999999REMMET089METAR LSZB 052020Z 31004KT 5000 FEW006 BKN010 BKN035 M03/M04 Q0999 RESN R14/490274 NOSIG;
0170066303999992010010605204+46917+007483FM-15+0510LSZB V0209999V000510033019N0030001N1-00301-00301999999ADDGA1021+002401999GA2071+003301999GF107991999999999999999999MA1099801999999MW1711REMMET079METAR LSZB 060520Z VRB01KT 3000 -SN FEW008 BKN011 M03/M03 Q0998 R/SNOCLO NOSIG;
0162066303999992010010605504+46917+007483FM-15+0510LSZB V0209999V000510033019N0035001N1-00301-00301999999ADDGA1021+002401999GA2071+003301999GF107991999999999999999999MA1099801999999REMMET077METAR LSZB 060550Z VRB01KT 3500 FEW008 BKN011 M03/M03 Q0998 R14/420272 NOSIG;
0162066303999992010010606204+46917+007483FM-15+0510LSZB V0202801N001010036019N0035001N1-00301-00301999999ADDGA1021+002401999GA2071+003601999GF107991999999999999999999MA1099801999999REMMET077METAR LSZB 060620Z 28002KT 3500 FEW008 BKN012 M03/M03 Q0998 R14/420272 NOSIG;
0162066303999992010010606504+46917+007483FM-15+0510LSZB V0209999V000510033019N0035001N1-00301-00301999999ADDGA1041+002401999GA2071+003301999GF107991999999999999999999MA1099901999999REMMET077METAR LSZB 060650Z VRB01KT 3500 SCT008 BKN011 M03/M03 Q0999 R14/420272 NOSIG;
0162066303999992010010607204+46917+007483FM-15+0510LSZB V0209999V000510030019N0030001N1-00301-00301999999ADDGA1041+002401999GA2071+003001999GF107991999999999999999999MA1099901999999REMMET077METAR LSZB 060720Z VRB01KT 3000 SCT008 BKN010 M03/M03 Q0999 R14/420272 NOSIG;
0162066303999992010010607504+46917+007483FM-15+0510LSZB V0202701N001010030019N0030001N1-00301-00301999999ADDGA1041+002401999GA2071+003001999GF107991999999999999999999MA1099901999999REMMET077METAR LSZB 060750Z 27002KT 3000 SCT008 BKN010 M03/M03 Q0999 R14/820284 NOSIG;
0162066303999992010010608204+46917+007483FM-15+0510LSZB V0209999V000510030019N0030001N1-00201-00301999999ADDGA1041+002401999GA2071+003001999GF107991999999999999999999MA1100001999999REMMET077METAR LSZB 060820Z VRB01KT 3000 SCT008 BKN010 M02/M03 Q1000 R14/820284 NOSIG;
0162066303999992010010608504+46917+007483FM-15+0510LSZB V0209999V000510030019N0045001N1-00201-00301999999ADDGA1041+002401999GA2071+003001999GF107991999999999999999999MA1100001999999REMMET077METAR LSZB 060850Z VRB01KT 4500 SCT008 BKN010 M02/M03 Q1000 R14/820284 NOSIG;
0185066303999992010010609204+46917+007483FM-15+0510LSZB V0209999V000510039019N0030001N1-00201-00301999999ADDGA1041+002401999GA2071+003901999GA3071+006001999GF107991999999999999999999MA1100001999999REMMET084METAR LSZB 060920Z VRB01KT 3000 SCT008 BKN013 BKN020 M02/M03 Q1000 R14/820284 NOSIG;
0185066303999992010010609504+46917+007483FM-15+0510LSZB V0209999V000510030019N0035001N1-00201-00301999999ADDGA1041+002401999GA2071+003001999GA3071+006001999GF107991999999999999999999MA1100001999999REMMET084METAR LSZB 060950Z VRB01KT 3500 SCT008 BKN010 BKN020 M02/M03 Q1000 R14/820284 NOSIG;
0185066303999992010010610204+46917+007483FM-15+0510LSZB V0209999V000510036019N0048001N1-00201-00301999999ADDGA1041+002401999GA2071+003601999GA3081+006001999GF108991999999999999999999MA1100001999999REMMET084METAR LSZB 061020Z VRB01KT 4800 SCT008 BKN012 OVC020 M02/M03 Q1000 R14/850295 NOSIG;
0185066303999992010010610504+46917+007483FM-15+0510LSZB V0209999V000510036019N0040001N1-00101-00201999999ADDGA1041+002401999GA2071+003601999GA3081+006001999GF108991999999999999999999MA1100001999999REMMET084METAR LSZB 061050Z VRB01KT 4000 SCT008 BKN012 OVC020 M01/M02 Q1000 R14/850295 NOSIG;
0185066303999992010010611204+46917+007483FM-15+0510LSZB V0209999V001010036019N0040001N1-00101-00201999999ADDGA1041+002401999GA2071+003601999GA3081+006001999GF108991999999999999999999MA1100001999999REMMET084METAR LSZB 061120Z VRB02KT 4000 SCT008 BKN012 OVC020 M01/M02 Q1000 R14/850295 NOSIG;
0185066303999992010010611504+46917+007483FM-15+0510LSZB V0202301N000510036019N0040001N1-00101-00201999999ADDGA1021+002401999GA2071+003601999GA3081+005401999GF108991999999999999999999MA1100001999999REMMET084METAR LSZB 061150Z 23001KT 4000 FEW008 BKN012 OVC018 M01/M02 Q1000 R14/850295 NOSIG;
0185066303999992010010612204+46917+007483FM-15+0510LSZB V0201901N001010033019N0045001N1+00001-00201999999ADDGA1021+002401999GA2071+003301999GA3081+005401999GF108991999999999999999999MA1100001999999REMMET084METAR LSZB 061220Z 19002KT 4500 FEW008 BKN011 OVC018 M00/M02 Q1000 R14/850295 NOSIG;
0185066303999992010010612504+46917+007483FM-15+0510LSZB V0202001N001010036019N0040001N1-00101-00301999999ADDGA1041+001801999GA2071+003601999GA3081+005401999GF108991999999999999999999MA1100001999999REMMET084METAR LSZB 061250Z 20002KT 4000 SCT006 BKN012 OVC018 M01/M03 Q1000 R14/190195 NOSIG;
0185066303999992010010613204+46917+007483FM-15+0510LSZB V0202201N001010036019N0040001N1-00101-00301999999ADDGA1041+001801999GA2071+003601999GA3081+005401999GF108991999999999999999999MA1100001999999REMMET084METAR LSZB 061320Z 22002KT 4000 SCT006 BKN012 OVC018 M01/M03 Q1000 R14/190195 NOSIG;
0162066303999992010010613504+46917+007483FM-15+0510LSZB V0202401N001010048019N0040001N1-00101-00301999999ADDGA1041+001801999GA2081+004801999GF108991999999999999999999MA1100001999999REMMET077METAR LSZB 061350Z 24002KT 4000 SCT006 OVC016 M01/M03 Q1000 R14/190195 NOSIG;
0162066303999992010010614204+46917+007483FM-15+0510LSZB V0202301N001010036019N0040001N1-00101-00301999999ADDGA1041+001801999GA2081+003601999GF108991999999999999999999MA1100001999999REMMET077METAR LSZB 061420Z 23002KT 4000 SCT006 OVC012 M01/M03 Q1000 R14/190195 NOSIG;
0162066303999992010010614504+46917+007483FM-15+0510LSZB V0202101N000510036019N0040001N1-00101-00301999999ADDGA1041+001801999GA2081+003601999GF108991999999999999999999MA1100001999999REMMET077METAR LSZB 061450Z 21001KT 4000 SCT006 OVC012 M01/M03 Q1000 R14/190195 NOSIG;
0162066303999992010010615204+46917+007483FM-15+0510LSZB V0201701N000510084019N0040001N1-00101-00201999999ADDGA1041+005401999GA2081+008401999GF108991999999999999999999MA1100001999999REMMET077METAR LSZB 061520Z 17001KT 4000 SCT018 OVC028 M01/M02 Q1000 R14/190195 NOSIG;
0162066303999992010010615504+46917+007483FM-15+0510LSZB V0209999V000510096019N0040001N1-00101-00301999999ADDGA1041+005401999GA2071+009601999GF107991999999999999999999MA1100101999999REMMET077METAR LSZB 061550Z VRB01KT 4000 SCT018 BKN032 M01/M03 Q1001 R14/190195 NOSIG;
0162066303999992010010616204+46917+007483FM-15+0510LSZB V0201401N001510096019N0040001N1-00101-00201999999ADDGA1041+005401999GA2071+009601999GF107991999999999999999999MA1100101999999REMMET077METAR LSZB 061620Z 14003KT 4000 SCT018 BKN032 M01/M02 Q1001 R14/190195 NOSIG;
0162066303999992010010616504+46917+007483FM-15+0510LSZB V0201001N001010114019N0050001N1-00201-00301999999ADDGA1041+005401999GA2071+011401999GF107991999999999999999999MA1100101999999REMMET077METAR LSZB 061650Z 10002KT 5000 SCT018 BKN038 M02/M03 Q1001 R14/190195 NOSIG;
0162066303999992010010617204+46917+007483FM-15+0510LSZB V0209999V001010102019N0050001N1-00601-00601999999ADDGA1041+005401999GA2071+010201999GF107991999999999999999999MA1100101999999REMMET077METAR LSZB 061720Z VRB02KT 5000 SCT018 BKN034 M06/M06 Q1001 R14/190195 NOSIG;
0162066303999992010010617504+46917+007483FM-15+0510LSZB V0209999V000510102019N0050001N1-00601-00601999999ADDGA1041+005401999GA2071+010201999GF107991999999999999999999MA1100201999999REMMET077METAR LSZB 061750Z VRB01KT 5000 SCT018 BKN034 M06/M06 Q1002 R14/190195 NOSIG;
0188066303999992010010618504+46917+007483FM-15+0510LSZB V0209999V000512200019N0005001N1-00701-00701999999ADDGA1021+000301999GA2041+054001999GF104991999999999999999999MA1100201999999MW1481REMMET097METAR LSZB 061850Z VRB01KT 0500 R14/0175V0325N FZFG FEW001 SCT180 M07/M07 Q1002 R14/190195 NOSIG;
0189066303999992010010619204+46917+007483FM-15+0510LSZB V0201001N001512200019N0007501N1-00801-00901999999ADDGA1021+000301999GA2041+045001999GF104991999999999999999999MA1100201999999MW1481REMMET098METAR LSZB 061920Z 10003KT 0750 R14/0900VP2000N FZFG FEW001 SCT150 M08/M09 Q1002 R14/190195 NOSIG;
0199066303999992010010619504+46917+007483FM-15+0510LSZB V0209999V001012200019N0001001N1-00801-00801999999ADDED199U02509GA1021+000901999GA2041+015001999GF104991999999999999999999MA1100201999999MW1481REMMET097METAR LSZB 061950Z VRB02KT 0100 R14/0250N FZFG FEW003 SCT050 M08/M08 Q1002 R14/190195 TEMPO 0800;
0162066303999992010010705204+46917+007483FM-15+0510LSZB V0201001N003110090019N0080001N1-00701-00701999999ADDGA1021+001501999GA2071+009001999GF107991999999999999999999MA1100411999999REMMET077METAR LSZB 070520Z 10006KT 8000 FEW005 BKN030 M07/M07 Q1004 R14/190195 NOSIG;
0162066303999992010010705504+46917+007483FM-15+0510LSZB V0201301N003112200019N0080001N1-00901-01001999999ADDGA1021+001501999GA2041+009001999GF104991999999999999999999MA1100411999999REMMET077METAR LSZB 070550Z 13006KT 8000 FEW005 SCT030 M09/M10 Q1004 R14/490195 NOSIG;
0162066303999992010010706204+46917+007483FM-15+0510LSZB V0201401N003112200019N0080001N1-01001-01101999999ADDGA1021+001501999GA2041+009001999GF104991999999999999999999MA1100511999999REMMET077METAR LSZB 070620Z 14006KT 8000 FEW005 SCT030 M10/M11 Q1005 R14/490195 NOSIG;
0185066303999992010010706504+46917+007483FM-15+0510LSZB V0201401N00311009001CN0060001N1-01001-01101999999ADDGA1021+001501999GA2041+009001999GA3071+036001999GF107991999999999999999999MA1100511999999REMMET084METAR LSZB 070650Z 14006KT 6000 FEW005 SCT030 BKN120 M10/M11 Q1005 R14/490195 NOSIG;
0162066303999992010010707204+46917+007483FM-15+0510LSZB V0201601N002110360019N0070001N1-01101-01101999999ADDGA1041+007501999GA2071+036001999GF107991999999999999999999MA1100511999999REMMET077METAR LSZB 070720Z 16004KT 7000 SCT025 BKN120 M11/M11 Q1005 R14/490195 NOSIG;
0162066303999992010010707504+46917+007483FM-15+0510LSZB V0209999V001012200019N0070001N1-01001-01001999999ADDGA1041+007501999GA2041+033001999GF104991999999999999999999MA1100611999999REMMET077METAR LSZB 070750Z VRB02KT 7000 SCT025 SCT110 M10/M10 Q1006 R14/490195 NOSIG;
0162066303999992010010708204+46917+007483FM-15+0510LSZB V0201401N003112200019N0080001N1-00901-00901999999ADDGA1041+007501999GA2041+027001999GF104991999999999999999999MA1100611999999REMMET077METAR LSZB 070820Z 14006KT 8000 SCT025 SCT090 M09/M09 Q1006 R14/490195 NOSIG;
0162066303999992010010708504+46917+007483FM-15+0510LSZB V0201301N003112200019N0080001N1-00901-01001999999ADDGA1041+007501999GA2041+027001999GF104991999999999999999999MA1100611999999REMMET077METAR LSZB 070850Z 13006KT 8000 SCT025 SCT090 M09/M10 Q1006 R14/950195 NOSIG;
0170066303999992010010709204+46917+007483FM-15+0510LSZB V0201401N002112200019N0080001N1-00801-00801999999ADDGA1041+007501999GA2041+030001999GF104991999999999999999999MA1100611999999REMMET085METAR LSZB 070920Z 14004KT 090V190 8000 SCT025 SCT100 M08/M08 Q1006 R14/950195 NOSIG;
0162066303999992010010709504+46917+007483FM-15+0510LSZB V0201701N002612200019N0112651N1-00701-00801999999ADDGA1041+007501999GA2041+030001999GF104991999999999999999999MA1100711999999REMMET077METAR LSZB 070950Z 17005KT 9999 SCT025 SCT100 M07/M08 Q1007 R14/950195 NOSIG;
0162066303999992010010710204+46917+007483FM-15+0510LSZB V0201601N002612200019N0112651N1-00601-00801999999ADDGA1021+007501999GA2041+030001999GF104991999999999999999999MA1100711999999REMMET077METAR LSZB 071020Z 16005KT 9999 FEW025 SCT100 M06/M08 Q1007 R14/950195 NOSIG;
0162066303999992010010710504+46917+007483FM-15+0510LSZB V0201801N002112200019N0112651N1-00501-00701999999ADDGA1021+007501999GA2041+054001999GF104991999999999999999999MA1100711999999REMMET077METAR LSZB 071050Z 18004KT 9999 FEW025 SCT180 M05/M07 Q1007 R14/950195 NOSIG;
0162066303999992010010711204+46917+007483FM-15+0510LSZB V0201701N002112200019N0112651N1-00501-00701999999ADDGA1021+007501999GA2041+054001999GF104991999999999999999999MA1100611999999REMMET077METAR LSZB 071120Z 17004KT 9999 FEW025 SCT180 M05/M07 Q1006 R14/950195 NOSIG;
0162066303999992010010711504+46917+007483FM-15+0510LSZB V0209999V001010600019N0112651N1-00401-00701999999ADDGA1021+010501999GA2071+060001999GF107991999999999999999999MA1100611999999REMMET077METAR LSZB 071150Z VRB02KT 9999 FEW035 BKN200 M04/M07 Q1006 R14/950195 NOSIG;
0162066303999992010010712204+46917+007483FM-15+0510LSZB V0209999V000510540019N0112651N1-00301-00701999999ADDGA1041+027001999GA2071+054001999GF107991999999999999999999MA1100611999999REMMET077METAR LSZB 071220Z VRB01KT 9999 SCT090 BKN180 M03/M07 Q1006 R14/950195 NOSIG;
0162066303999992010010712504+46917+007483FM-15+0510LSZB V0201401N001010240019N0112651N1-00301-00601999999ADDGA1071+024001999GA2071+051001999GF107991999999999999999999MA1100611999999REMMET077METAR LSZB 071250Z 14002KT 9999 BKN085 BKN170 M03/M06 Q1006 R14/950195 NOSIG;
0162066303999992010010713204+46917+007483FM-15+0510LSZB V0201601N001510240019N0112651N1-00301-00601999999ADDGA1071+024001999GA2081+039001999GF108991999999999999999999MA1100611999999REMMET077METAR LSZB 071320Z 16003KT 9999 BKN085 OVC130 M03/M06 Q1006 R14/950195 NOSIG;
0162066303999992010010713504+46917+007483FM-15+0510LSZB V0201801N001010330019N0112651N1-00301-00601999999ADDGA1041+024001999GA2071+033001999GF107991999999999999999999MA1100611999999REMMET077METAR LSZB 071350Z 18002KT 9999 SCT085 BKN110 M03/M06 Q1006 R14/190195 NOSIG;
0162066303999992010010714204+46917+007483FM-15+0510LSZB V0201501N002110330019N0112651N1-00301-00601999999ADDGA1041+024001999GA2071+033001999GF107991999999999999999999MA1100711999999REMMET077METAR LSZB 071420Z 15004KT 9999 SCT080 BKN110 M03/M06 Q1007 R14/190195 NOSIG;
0162066303999992010010714504+46917+007483FM-15+0510LSZB V0201101N001510240019N0112651N1-00301-00601999999ADDGA1041+021001999GA2071+024001999GF107991999999999999999999MA1100711999999REMMET077METAR LSZB 071450Z 11003KT 9999 SCT070 BKN080 M03/M06 Q1007 R14/190195 NOSIG;
0162066303999992010010715204+46917+007483FM-15+0510LSZB V0201101N002610240019N0112651N1-00301-00601999999ADDGA1041+021001999GA2071+024001999GF107991999999999999999999MA1100711999999REMMET077METAR LSZB 071520Z 11005KT 9999 SCT070 BKN080 M03/M06 Q1007 R14/190195 NOSIG;
0139066303999992010010715504+46917+007483FM-15+0510LSZB V0201101N001510300019N0112651N1-00301-00601999999ADDGA1081+030001999GF108991999999999999999999MA1100711999999REMMET070METAR LSZB 071550Z 11003KT 9999 OVC100 M03/M06 Q1007 R14/190195 NOSIG;
0139066303999992010010716204+46917+007483FM-15+0510LSZB V0201001N002110300019N0112651N1-00401-00601999999ADDGA1081+030001999GF108991999999999999999999MA1100711999999REMMET070METAR LSZB 071620Z 10004KT 9999 OVC100 M04/M06 Q1007 R14/190195 NOSIG;
0162066303999992010010716504+46917+007483FM-15+0510LSZB V0200901N002610210019N0112651N1-00401-00601999999ADDGA1071+021001999GA2081+030001999GF108991999999999999999999MA1100711999999REMMET077METAR LSZB 071650Z 09005KT 9999 BKN070 OVC100 M04/M06 Q1007 R14/190195 NOSIG;
0162066303999992010010717204+46917+007483FM-15+0510LSZB V0200801N001510210019N0112651N1-00401-00501999999ADDGA1071+021001999GA2081+030001999GF108991999999999999999999MA1100811999999REMMET077METAR LSZB 071720Z 08003KT 9999 BKN070 OVC100 M04/M05 Q1008 R14/190195 NOSIG;
0162066303999992010010717504+46917+007483FM-15+0510LSZB V0202501N001010210019N0112651N1-00401-00601999999ADDGA1071+021001999GA2081+030001999GF108991999999999999999999MA1100811999999REMMET077METAR LSZB 071750Z 25002KT 9999 BKN070 OVC100 M04/M06 Q1008 R14/190195 NOSIG;
0162066303999992010010718204+46917+007483FM-15+0510LSZB V0209999V000510210019N0112651N1-00501-00601999999ADDGA1071+021001999GA2081+030001999GF108991999999999999999999MA1100811999999REMMET077METAR LSZB 071820Z VRB01KT 9999 BKN070 OVC100 M05/M06 Q1008 R14/190195 NOSIG;
0162066303999992010010718504+46917+007483FM-15+0510LSZB V0201501N001010240019N0112651N1-00501-00601999999ADDGA1071+024001999GA2081+033001999GF108991999999999999999999MA1100811999999REMMET077METAR LSZB 071850Z 15002KT 9999 BKN080 OVC110 M05/M06 Q1008 R14/190195 NOSIG;
0139066303999992010010719204+46917+007483FM-15+0510LSZB V0201601N001010390019N0112651N1-00501-00601999999ADDGA1081+039001999GF108991999999999999999999MA1100811999999REMMET070METAR LSZB 071920Z 16002KT 9999 OVC130 M05/M06 Q1008 R14/190195 NOSIG;
0139066303999992010010719504+46917+007483FM-15+0510LSZB V0201301N001510330019N0112651N1-00601-00701999999ADDGA1081+033001999GF108991999999999999999999MA1100811999999REMMET070METAR LSZB 071950Z 13003KT 9999 OVC110 M06/M07 Q1008 R14/190195 NOSIG;
0139066303999992010010720204+46917+007483FM-15+0510LSZB V0209999V001010330019N0112651N1-00501-00601999999ADDGA1081+033001999GF108991999999999999999999MA1100811999999REMMET070METAR LSZB 072020Z VRB02KT 9999 OVC110 M05/M06 Q1008 R14/190195 NOSIG;
0167066303999992010010805204+46917+007483FM-15+0510LSZB V0209999V000510084019N0020001N1-00301-00301999999ADDGA1041+003001999GA2081+008401999GF108991999999999999999999MA1100511999999REMMET082METAR LSZB 080520Z VRB01KT 2000 R14/1400VP2000U SCT010 OVC028 M03/M03 Q1005 NOSIG;
0151066303999992010010805504+46917+007483FM-15+0510LSZB V0209999V000510090019N0030001N1-00301-00301999999ADDGA1041+003601999GA2081+009001999GF108991999999999999999999MA1100511999999REMMET066METAR LSZB 080550Z VRB01KT 3000 SCT012 OVC030 M03/M03 Q1005 NOSIG;
0167066303999992010010806204+46917+007483FM-15+0510LSZB V0209999V000510075019N0020001N1-00301-00301999999ADDGA1041+002701999GA2081+007501999GF108991999999999999999999MA1100411999999REMMET082METAR LSZB 080620Z VRB01KT 2000 R14/1200VP2000D SCT009 OVC025 M03/M03 Q1004 NOSIG;
0178066303999992010010806504+46917+007483FM-15+0510LSZB V0209999V001010078019N0013001N1-00201-00301999999ADDGA1041+002701999GA2081+007801999GF108991999999999999999999MA1100411999999REMMET093METAR LSZB 080650Z VRB02KT 1300 R14/1200VP2000D SCT009 OVC026 M02/M03 Q1004 R14/490194 NOSIG;
0177066303999992010010807204+46917+007483FM-15+0510LSZB V0202501N001510078019N0024001N1-00301-00301999999ADDGA1041+002701999GA2081+007801999GF108991999999999999999999MA1100411999999MW1711REMMET086METAR LSZB 080720Z 25003KT 2400 -SN SCT009 OVC026 M03/M03 Q1004 RESN R14/490194 NOSIG;
0171066303999992010010807504+46917+007483FM-15+0510LSZB V0209999V001010066019N0040001N1-00201-00301999999ADDGA1041+002401999GA2081+006601999GF108991999999999999999999MA1100411999999MW1101REMMET080METAR LSZB 080750Z VRB02KT 4000 BR SCT008 OVC022 M02/M03 Q1004 R14/490194 NOSIG;
0179066303999992010010808204+46917+007483FM-15+0510LSZB V0200601N002610048019N0040001N1-00201-00401999999ADDGA1041+002401999GA2081+004801999GF108991999999999999999999MA1100311999999MW1101REMMET088METAR LSZB 080820Z 06005KT 010V100 4000 BR SCT008 OVC016 M02/M04 Q1003 R14/490194 NOSIG;
0179066303999992010010808504+46917+007483FM-15+0510LSZB V0200501N002610066019N0045001N1-00201-00401999999ADDGA1041+002701999GA2081+006601999GF108991999999999999999999MA1100311999999MW1101REMMET088METAR LSZB 080850Z 05005KT 350V090 4500 BR SCT009 OVC022 M02/M04 Q1003 R14/490194 NOSIG;
0179066303999992010010809204+46917+007483FM-15+0510LSZB V0200501N003610042019N0045001N1-00201-00401999999ADDGA1041+002701999GA2081+004201999GF108991999999999999999999MA1100311999999MW1101REMMET088METAR LSZB 080920Z 05007KT 010V090 4500 BR SCT009 OVC014 M02/M04 Q1003 R14/490194 NOSIG;
0179066303999992010010809504+46917+007483FM-15+0510LSZB V0200501N003110051019N0045001N1-00201-00401999999ADDGA1041+002701999GA2081+005101999GF108991999999999999999999MA1100311999999MW1101REMMET088METAR LSZB 080950Z 05006KT 320V100 4500 BR SCT009 OVC017 M02/M04 Q1003 R14/950194 NOSIG;
0179066303999992010010810204+46917+007483FM-15+0510LSZB V0200301N002610051019N0045001N1-00201-00401999999ADDGA1041+002701999GA2081+005101999GF108991999999999999999999MA1100311999999MW1101REMMET088METAR LSZB 081020Z 03005KT 310V090 4500 BR SCT009 OVC017 M02/M04 Q1003 R14/950194 NOSIG;
0179066303999992010010810504+46917+007483FM-15+0510LSZB V0200301N002610045019N0045001N1-00201-00401999999ADDGA1041+002701999GA2081+004501999GF108991999999999999999999MA1100201999999MW1101REMMET088METAR LSZB 081050Z 03005KT 330V120 4500 BR SCT009 OVC015 M02/M04 Q1002 R14/950194 NOSIG;
0156066303999992010010811204+46917+007483FM-15+0510LSZB V0200401N003610045019N0045001N1-00201-00401999999ADDGA1081+004501999GF108991999999999999999999MA1100201999999MW1101REMMET081METAR LSZB 081120Z 04007KT 350V110 4500 BR OVC015 M02/M04 Q1002 R14/950194 NOSIG;
0156066303999992010010811504+46917+007483FM-15+0510LSZB V0200401N002610045019N0045001N1-00201-00401999999ADDGA1081+004501999GF108991999999999999999999MA1100201999999MW1101REMMET081METAR LSZB 081150Z 04005KT 320V100 4500 BR OVC015 M02/M04 Q1002 R14/950194 NOSIG;
0156066303999992010010812204+46917+007483FM-15+0510LSZB V0200401N002610042019N0045001N1-00201-00401999999ADDGA1081+004201999GF108991999999999999999999MA1100101999999MW1101REMMET081METAR LSZB 081220Z 04005KT 340V110 4500 BR OVC014 M02/M04 Q1001 R14/950194 NOSIG;
0156066303999992010010812504+46917+007483FM-15+0510LSZB V0200301N002610042019N0050001N1-00201-00401999999ADDGA1081+004201999GF108991999999999999999999MA1100101999999MW1101REMMET081METAR LSZB 081250Z 03005KT 290V080 5000 BR OVC014 M02/M04 Q1001 R14/950194 NOSIG;
0158066303999992010010813204+46917+007483FM-15+0510LSZB V0200501N004110042019N0060001N1-00201-00401999999ADDGA1081+004201999GF108991999999999999999999MA1100101999999OC100981REMMET081METAR LSZB 081320Z 05008G19KT 360V120 6000 OVC014 M02/M04 Q1001 R14/950194 NOSIG;
0147066303999992010010813504+46917+007483FM-15+0510LSZB V0200601N003610042019N0060001N1-00201-00401999999ADDGA1081+004201999GF108991999999999999999999MA1100101999999REMMET078METAR LSZB 081350Z 06007KT 340V120 6000 OVC014 M02/M04 Q1001 R14/950194 NOSIG;
0139066303999992010010814204+46917+007483FM-15+0510LSZB V0209999V001510039019N0050001N1-00201-00401999999ADDGA1081+003901999GF108991999999999999999999MA1100101999999REMMET070METAR LSZB 081420Z VRB03KT 5000 OVC013 M02/M04 Q1001 R14/950194 NOSIG;
0150066303999992010010814504+46917+007483FM-15+0510LSZB V0209999V002610039019N0050001N1-00201-00401999999ADDGA1081+003901999GF108991999999999999999999MA1100101999999OC100821REMMET073METAR LSZB 081450Z VRB05G16KT 5000 OVC013 M02/M04 Q1001 R14/950194 NOSIG;
0139066303999992010010815204+46917+007483FM-15+0510LSZB V0209999V001510045019N0050001N1-00201-00401999999ADDGA1081+004501999GF108991999999999999999999MA1100201999999REMMET070METAR LSZB 081520Z VRB03KT 5000 OVC015 M02/M04 Q1002 R14/950194 NOSIG;
0170066303999992010010815504+46917+007483FM-15+0510LSZB V0200501N002610054019N0050001N1-00201-00401999999ADDGA1021+004501999GA2081+005401999GF108991999999999999999999MA1100201999999REMMET085METAR LSZB 081550Z 05005KT 350V110 5000 FEW015 OVC018 M02/M04 Q1002 R14/950194 NOSIG;
0162066303999992010010816204+46917+007483FM-15+0510LSZB V0209999V002110054019N0050001N1-00201-00401999999ADDGA1021+004501999GA2081+005401999GF108991999999999999999999MA1100201999999REMMET077METAR LSZB 081620Z VRB04KT 5000 FEW015 OVC018 M02/M04 Q1002 R14/950194 NOSIG;
0170066303999992010010816504+46917+007483FM-15+0510LSZB V0200701N002610057019N0050001N1-00201-00401999999ADDGA1021+004501999GA2081+005701999GF108991999999999999999999MA1100201999999REMMET085METAR LSZB 081650Z 07005KT 360V120 5000 FEW015 OVC019 M02/M04 Q1002 R14/950194 NOSIG;
0162066303999992010010817204+46917+007483FM-15+0510LSZB V0209999V002610057019N0050001N1-00201-00401999999ADDGA1021+004501999GA2081+005701999GF108991999999999999999999MA1100201999999REMMET077METAR LSZB 081720Z VRB05KT 5000 FEW015 OVC019 M02/M04 Q1002 R14/950194 NOSIG;
0170066303999992010010817504+46917+007483FM-15+0510LSZB V0200601N002610057019N0050001N1-00201-00401999999ADDGA1021+004501999GA2081+005701999GF108991999999999999999999MA1100201999999REMMET085METAR LSZB 081750Z 06005KT 360V120 5000 FEW015 OVC019 M02/M04 Q1002 R14/950194 NOSIG;
0170066303999992010010818204+46917+007483FM-15+0510LSZB V0200601N003110066019N0060001N1-00201-00501999999ADDGA1021+005101999GA2081+006601999GF108991999999999999999999MA1100201999999REMMET085METAR LSZB 081820Z 06006KT 020V120 6000 FEW017 OVC022 M02/M05 Q1002 R14/950194 NOSIG;
0181066303999992010010818504+46917+007483FM-15+0510LSZB V0200601N003110072019N0070001N1-00201-00501999999ADDGA1021+005101999GA2081+007201999GF108991999999999999999999MA1100201999999OC100871REMMET088METAR LSZB 081850Z 06006G17KT 350V110 7000 FEW017 OVC024 M02/M05 Q1002 R14/950194 NOSIG;
0180066303999992010010819204+46917+007483FM-15+0510LSZB V0200601N004110072019N0050001N1-00201-00501999999ADDGA1021+005101999GA2081+007201999GF108991999999999999999999MA1100201999999MW1711REMMET089METAR LSZB 081920Z 06008KT 010V120 5000 -SN FEW017 OVC024 M02/M05 Q1002 R14/950194 NOSIG;
0180066303999992010010819504+46917+007483FM-15+0510LSZB V0200701N003110069019N0050001N1-00201-00501999999ADDGA1021+005101999GA2081+006901999GF108991999999999999999999MA1100201999999MW1711REMMET089METAR LSZB 081950Z 07006KT 350V120 5000 -SN FEW017 OVC023 M02/M05 Q1002 R14/950194 NOSIG;
0172066303999992010010820204+46917+007483FM-15+0510LSZB V0209999V002110069019N0050001N1-00201-00501999999ADDGA1021+005101999GA2081+006901999GF108991999999999999999999MA1100201999999MW1711REMMET081METAR LSZB 082020Z VRB04KT 5000 -SN FEW017 OVC023 M02/M05 Q1002 R14/950194 NOSIG;
0165066303999992010010905204+46917+007483FM-15+0510LSZB V0200601N004110060019N0080001N1-00401-00601999999ADDGA1041+003601999GA2081+006001999GF108991999999999999999999MA1100101999999REMMET080METAR LSZB 090520Z 06008KT 360V100 8000 SCT012 OVC020 M04/M06 Q1001 R14/D NOSIG;
0159066303999992010010905504+46917+007483FM-15+0510LSZB V0200601N002610066019N0080001N1-00401-00601999999ADDGA1041+003601999GA2081+006601999GF108991999999999999999999MA1100101999999REMMET074METAR LSZB 090550Z 06005KT 320V120 8000 SCT012 OVC022 M04/M06 Q1001 NOSIG;
0151066303999992010010906204+46917+007483FM-15+0510LSZB V0209999V002110066019N0080001N1-00401-00601999999ADDGA1041+003601999GA2081+006601999GF108991999999999999999999MA1100101999999REMMET066METAR LSZB 090620Z VRB04KT 8000 SCT012 OVC022 M04/M06 Q1001 NOSIG;
0151066303999992010010906504+46917+007483FM-15+0510LSZB V0209999V003110066019N0080001N1-00401-00601999999ADDGA1041+003601999GA2081+006601999GF108991999999999999999999MA1100101999999REMMET066METAR LSZB 090650Z VRB06KT 8000 SCT012 OVC022 M04/M06 Q1001 NOSIG;
0160066303999992010010907504+46917+007483FM-15+0510LSZB V0200301N002110066019N0050001N1-00401-00601999999ADDGA1041+003301999GA2081+006601999GF108991999999999999999999MA1100101999999MW1101REMMET069METAR LSZB 090750Z 03004KT 5000 BR SCT011 OVC022 M04/M06 Q1001 NOSIG;
0168066303999992010010908204+46917+007483FM-15+0510LSZB V0203601N002610069019N0060001N1-00401-00601999999ADDGA1041+003301999GA2081+006901999GF108991999999999999999999MA1100101999999MW1101REMMET077METAR LSZB 090820Z 36005KT 260V080 6000 BR SCT011 OVC023 M04/M06 Q1001 NOSIG;
0151066303999992010010908504+46917+007483FM-15+0510LSZB V0200201N002110072019N0060001N1-00501-00601999999ADDGA1041+003301999GA2081+007201999GF108991999999999999999999MA1100101999999REMMET066METAR LSZB 090850Z 02004KT 6000 SCT011 OVC024 M05/M06 Q1001 NOSIG;
0151066303999992010010909204+46917+007483FM-15+0510LSZB V0200101N002610072019N0060001N1-00501-00601999999ADDGA1041+003301999GA2081+007201999GF108991999999999999999999MA1100101999999REMMET066METAR LSZB 090920Z 01005KT 6000 SCT011 OVC024 M05/M06 Q1001 NOSIG;
0159066303999992010010909504+46917+007483FM-15+0510LSZB V0200301N004110075019N0060001N1-00501-00601999999ADDGA1041+003301999GA2081+007501999GF108991999999999999999999MA1100201999999REMMET074METAR LSZB 090950Z 03008KT 320V100 6000 SCT011 OVC025 M05/M06 Q1002 NOSIG;
0159066303999992010010910204+46917+007483FM-15+0510LSZB V0203601N003610075019N0060001N1-00501-00601999999ADDGA1041+003301999GA2081+007501999GF108991999999999999999999MA1100101999999REMMET074METAR LSZB 091020Z 36007KT 310V030 6000 SCT011 OVC025 M05/M06 Q1001 NOSIG;
0151066303999992010010910504+46917+007483FM-15+0510LSZB V0203501N002610069019N0050001N1-00501-00601999999ADDGA1041+003301999GA2081+006901999GF108991999999999999999999MA1100101999999REMMET066METAR LSZB 091050Z 35005KT 5000 SCT011 OVC023 M05/M06 Q1001 NOSIG;
0151066303999992010010911204+46917+007483FM-15+0510LSZB V0200101N003110069019N0050001N1-00501-00601999999ADDGA1041+003301999GA2081+006901999GF108991999999999999999999MA1100101999999REMMET066METAR LSZB 091120Z 01006KT 5000 SCT011 OVC023 M05/M06 Q1001 NOSIG;
0151066303999992010010911504+46917+007483FM-15+0510LSZB V0203401N002110060019N0050001N1-00501-00701999999ADDGA1041+003601999GA2081+006001999GF108991999999999999999999MA1100101999999REMMET066METAR LSZB 091150Z 34004KT 5000 SCT012 OVC020 M05/M07 Q1001 NOSIG;
0151066303999992010010912204+46917+007483FM-15+0510LSZB V0209999V001010060019N0050001N1-00501-00701999999ADDGA1041+003601999GA2081+006001999GF108991999999999999999999MA1100101999999REMMET066METAR LSZB 091220Z VRB02KT 5000 SCT012 OVC020 M05/M07 Q1001 NOSIG;
0128066303999992010010912504+46917+007483FM-15+0510LSZB V0209999V001510036019N0050001N1-00501-00701999999ADDGA1081+003601999GF108991999999999999999999MA1100101999999REMMET059METAR LSZB 091250Z VRB03KT 5000 OVC012 M05/M07 Q1001 NOSIG;
0128066303999992010010913204+46917+007483FM-15+0510LSZB V0209999V002110036019N0050001N1-00501-00701999999ADDGA1081+003601999GF108991999999999999999999MA1100101999999REMMET059METAR LSZB 091320Z VRB04KT 5000 OVC012 M05/M07 Q1001 NOSIG;
0128066303999992010010913504+46917+007483FM-15+0510LSZB V0209999V001010036019N0060001N1-00501-00701999999ADDGA1081+003601999GF108991999999999999999999MA1100101999999REMMET059METAR LSZB 091350Z VRB02KT 6000 OVC012 M05/M07 Q1001 NOSIG;
0136066303999992010010914204+46917+007483FM-15+0510LSZB V0200601N002110036019N0060001N1-00501-00701999999ADDGA1081+003601999GF108991999999999999999999MA1100101999999REMMET067METAR LSZB 091420Z 06004KT 340V110 6000 OVC012 M05/M07 Q1001 NOSIG;
0128066303999992010010914504+46917+007483FM-15+0510LSZB V0200501N002610045019N0060001N1-00501-00701999999ADDGA1081+004501999GF108991999999999999999999MA1100201999999REMMET059METAR LSZB 091450Z 05005KT 6000 OVC015 M05/M07 Q1002 NOSIG;
0128066303999992010010915204+46917+007483FM-15+0510LSZB V0209999V001010045019N0060001N1-00501-00701999999ADDGA1081+004501999GF108991999999999999999999MA1100201999999REMMET059METAR LSZB 091520Z VRB02KT 6000 OVC015 M05/M07 Q1002 NOSIG;
0128066303999992010010915504+46917+007483FM-15+0510LSZB V0209999V002110045019N0060001N1-00501-00701999999ADDGA1081+004501999GF108991999999999999999999MA1100201999999REMMET059METAR LSZB 091550Z VRB04KT 6000 OVC015 M05/M07 Q1002 NOSIG;
0128066303999992010010916204+46917+007483FM-15+0510LSZB V0209999V001510039019N0060001N1-00501-00701999999ADDGA1081+003901999GF108991999999999999999999MA1100201999999REMMET059METAR LSZB 091620Z VRB03KT 6000 OVC013 M05/M07 Q1002 NOSIG;
0138066303999992010010917204+46917+007483FM-15+0510LSZB V0209999V001010045019N0060001N1-00501-00601999999ADDGA1081+004501999GF108991999999999999999999MA1100201999999MW1711REMMET063METAR LSZB 091720Z VRB02KT 6000 -SN OVC015 M05/M06 Q1002 NOSIG;
0138066303999992010010917504+46917+007483FM-15+0510LSZB V0209999V001010054019N0080001N1-00501-00601999999ADDGA1081+005401999GF108991999999999999999999MA1100201999999MW1711REMMET063METAR LSZB 091750Z VRB02KT 8000 -SN OVC018 M05/M06 Q1002 NOSIG;
0161066303999992010010918204+46917+007483FM-15+0510LSZB V0209999V001510087019N0029001N1-00501-00601999999ADDGA1041+003901999GA2081+008701999GF108991999999999999999999MA1100201999999MW1711REMMET070METAR LSZB 091820Z VRB03KT 2900 -SN SCT013 OVC029 M05/M06 Q1002 NOSIG;
0161066303999992010010918504+46917+007483FM-15+0510LSZB V0202901N002110150019N0080001N1-00501-00601999999ADDGA1021+003901999GA2071+015001999GF107991999999999999999999MA1100201999999MW1711REMMET070METAR LSZB 091850Z 29004KT 8000 -SN FEW013 BKN058 M05/M06 Q1002 NOSIG;
0151066303999992010011006204+46917+007483FM-15+0510LSZB V0209999V001010390019N0070001N1-01001-01001999999ADDGA1021+009901999GA2071+039001999GF107991999999999999999999MA1100811999999REMMET066METAR LSZB 100620Z VRB02KT 7000 FEW033 BKN130 M10/M10 Q1008 NOSIG;
0137066303999992010011006504+46917+007483FM-15+0510LSZB V0200701N000512200019N0033001N1-01101-01201999999ADDGA1021+002401999GF102991999999999999999999MA1100811999999MW1101REMMET062METAR LSZB 100650Z 07001KT 3300 BR FEW008 M11/M12 Q1008 NOSIG;
0164066303999992010011007204+46917+007483FM-15+0510LSZB V0209999C000012200019N0030001N1-01101-01201999999ADDGA1021+002401999GF102991999999999999999999MA1100811999999MW1121REMMET089METAR LSZB 100720Z 00000KT 3000 R14/0175V0325D MIFG FEW008 M11/M12 Q1008 TEMPO 0500 BCFG;
0170066303999992010011007504+46917+007483FM-15+0510LSZB V0209999V001012200019N0030001N1-01301-01401999999ADDED199U03259GA1021+000301999GF102991999999999999999999MA1100911999999MW1121REMMET084METAR LSZB 100750Z VRB02KT 3000 R14/0325N MIFG FEW001 M13/M14 Q1009 TEMPO 0100 FZFG;
0164066303999992010011008204+46917+007483FM-15+0510LSZB V0201401N001012200019N0040001N1-01101-01201999999ADDGA1021+000301999GF102991999999999999999999MA1100911999999MW1121REMMET089METAR LSZB 100820Z 14002KT 4000 R14/1000V1300D MIFG FEW001 M11/M12 Q1009 TEMPO 0100 FZFG;
0148066303999992010011008504+46917+007483FM-15+0510LSZB V0201601N001012200019N0025001N1-01201-01301999999ADDGA1021+004201999GF102991999999999999999999MA1101021999999MW1101REMMET073METAR LSZB 100850Z 16002KT 2500 BR FEW014 M12/M13 Q1010 R14/850292 NOSIG;
0148066303999992010011009204+46917+007483FM-15+0510LSZB V0201501N001012200019N0025001N1-01101-01101999999ADDGA1041+004201999GF104991999999999999999999MA1101021999999MW1101REMMET073METAR LSZB 100920Z 15002KT 2500 BR SCT014 M11/M11 Q1010 R14/850292 NOSIG;
0148066303999992010011009504+46917+007483FM-15+0510LSZB V0201701N001012200019N0025001N1-01001-01001999999ADDGA1021+004201999GF102991999999999999999999MA1101021999999MW1101REMMET073METAR LSZB 100950Z 17002KT 2500 BR FEW014 M10/M10 Q1010 R14/850292 NOSIG;
0148066303999992010011010204+46917+007483FM-15+0510LSZB V0209999V001012200019N0025001N1-01001-01001999999ADDGA1021+004201999GF102991999999999999999999MA1101081999999MW1101REMMET073METAR LSZB 101020Z VRB02KT 2500 BR FEW014 M10/M10 Q1011 R14/850292 NOSIG;
0148066303999992010011010504+46917+007483FM-15+0510LSZB V0201801N001010096019N0030001N1-00901-00901999999ADDGA1071+009601999GF107991999999999999999999MA1101081999999MW1101REMMET073METAR LSZB 101050Z 18002KT 3000 BR BKN032 M09/M09 Q1011 R14/920195 NOSIG;
0148066303999992010011011204+46917+007483FM-15+0510LSZB V0209999V000510090019N0050001N1-00601-00701999999ADDGA1081+009001999GF108991999999999999999999MA1101081999999MW1101REMMET073METAR LSZB 101120Z VRB01KT 5000 BR OVC030 M06/M07 Q1011 R14/920195 NOSIG;
0148066303999992010011011504+46917+007483FM-15+0510LSZB V0209999V000510090019N0050001N1-00501-00701999999ADDGA1081+009001999GF108991999999999999999999MA1101081999999MW1101REMMET073METAR LSZB 101150Z VRB01KT 5000 BR OVC030 M05/M07 Q1011 R14/920195 NOSIG;
0148066303999992010011012204+46917+007483FM-15+0510LSZB V0209999C000010090019N0040001N1-00401-00701999999ADDGA1071+009001999GF107991999999999999999999MA1101081999999MW1101REMMET073METAR LSZB 101220Z 00000KT 4000 BR BKN030 M04/M07 Q1011 R14/920195 NOSIG;
0148066303999992010011012504+46917+007483FM-15+0510LSZB V0209999V000510090019N0040001N1-00401-00601999999ADDGA1071+009001999GF107991999999999999999999MA1101081999999MW1101REMMET073METAR LSZB 101250Z VRB01KT 4000 BR BKN030 M04/M06 Q1011 R14/920195 NOSIG;
0148066303999992010011013204+46917+007483FM-15+0510LSZB V0209999V000510090019N0040001N1-00401-00701999999ADDGA1071+009001999GF107991999999999999999999MA1101081999999MW1101REMMET073METAR LSZB 101320Z VRB01KT 4000 BR BKN030 M04/M07 Q1011 R14/920195 NOSIG;
0148066303999992010011013504+46917+007483FM-15+0510LSZB V0202001N001510096019N0050001N1-00301-00701999999ADDGA1071+009601999GF107991999999999999999999MA1101081999999MW1101REMMET073METAR LSZB 101350Z 20003KT 5000 BR BKN032 M03/M07 Q1011 R14/920195 NOSIG;
0148066303999992010011014204+46917+007483FM-15+0510LSZB V0209999V000510102019N0050001N1-00401-00701999999ADDGA1071+010201999GF107991999999999999999999MA1101191999999MW1101REMMET073METAR LSZB 101420Z VRB01KT 5000 BR BKN034 M04/M07 Q1012 R14/920195 NOSIG;
0148066303999992010011014504+46917+007483FM-15+0510LSZB V0201401N000510105019N0060001N1-00401-00701999999ADDGA1071+010501999GF107991999999999999999999MA1101191999999MW1101REMMET073METAR LSZB 101450Z 14001KT 6000 BR BKN035 M04/M07 Q1012 R14/920195 NOSIG;
0139066303999992010011015204+46917+007483FM-15+0510LSZB V0209999V000510105019N0060001N1-00401-00701999999ADDGA1071+010501999GF107991999999999999999999MA1101191999999REMMET070METAR LSZB 101520Z VRB01KT 6000 BKN035 M04/M07 Q1012 R14/920195 NOSIG;
0139066303999992010011015504+46917+007483FM-15+0510LSZB V0209999V001010099019N0060001N1-00401-00601999999ADDGA1071+009901999GF107991999999999999999999MA1101191999999REMMET070METAR LSZB 101550Z VRB02KT 6000 BKN033 M04/M06 Q1012 R14/920195 NOSIG;
0139066303999992010011016204+46917+007483FM-15+0510LSZB V0203301N000510099019N0060001N1-00401-00701999999ADDGA1071+009901999GF107991999999999999999999MA1101191999999REMMET070METAR LSZB 101620Z 33001KT 6000 BKN033 M04/M07 Q1012 R14/920195 NOSIG;
0128066303999992010011016504+46917+007483FM-15+0510LSZB V0209999V000510099019N0060001N1-00401-00701999999ADDGA1071+009901999GF107991999999999999999999MA1101191999999REMMET059METAR LSZB 101650Z VRB01KT 6000 BKN033 M04/M07 Q1012 NOSIG;
0128066303999992010011017204+46917+007483FM-15+0510LSZB V0209999V000510096019N0060001N1-00401-00601999999ADDGA1071+009601999GF107991999999999999999999MA1101291999999REMMET059METAR LSZB 101720Z VRB01KT 6000 BKN032 M04/M06 Q1013 NOSIG;
0128066303999992010011017504+46917+007483FM-15+0510LSZB V0201301N001010099019N0060001N1-00501-00701999999ADDGA1071+009901999GF107991999999999999999999MA1101291999999REMMET059METAR LSZB 101750Z 13002KT 6000 BKN033 M05/M07 Q1013 NOSIG;
0128066303999992010011018204+46917+007483FM-15+0510LSZB V0201101N001010096019N0060001N1-00501-00601999999ADDGA1071+009601999GF107991999999999999999999MA1101291999999REMMET059METAR LSZB 101820Z 11002KT 6000 BKN032 M05/M06 Q1013 NOSIG;
0128066303999992010011018504+46917+007483FM-15+0510LSZB V0209999V001010096019N0060001N1-00501-00701999999ADDGA1071+009601999GF107991999999999999999999MA1101291999999REMMET059METAR LSZB 101850Z VRB02KT 6000 BKN032 M05/M07 Q1013 NOSIG;
0128066303999992010011019204+46917+007483FM-15+0510LSZB V0209999V000510096019N0060001N1-00501-00701999999ADDGA1071+009601999GF107991999999999999999999MA1101291999999REMMET059METAR LSZB 101920Z VRB01KT 6000 BKN032 M05/M07 Q1013 NOSIG;
0128066303999992010011019504+46917+007483FM-15+0510LSZB V0209999V001010093019N0060001N1-00501-00701999999ADDGA1071+009301999GF107991999999999999999999MA1101291999999REMMET059METAR LSZB 101950Z VRB02KT 6000 BKN031 M05/M07 Q1013 NOSIG;
0136066303999992010011020204+46917+007483FM-15+0510LSZB V0201401N001510093019N0060001N1-00601-00701999999ADDGA1071+009301999GF107991999999999999999999MA1101291999999REMMET067METAR LSZB 102020Z 14003KT 110V210 6000 BKN031 M06/M07 Q1013 NOSIG;
0128066303999992010011105204+46917+007483FM-15+0510LSZB V0209999V000510063019N0070001N1-00501-00601999999ADDGA1071+006301999GF107991999999999999999999MA1101291999999REMMET059METAR LSZB 110520Z VRB01KT 7000 BKN021 M05/M06 Q1013 NOSIG;
0128066303999992010011105504+46917+007483FM-15+0510LSZB V0201501N001510063019N0070001N1-00501-00601999999ADDGA1071+006301999GF107991999999999999999999MA1101291999999REMMET059METAR LSZB 110550Z 15003KT 7000 BKN021 M05/M06 Q1013 NOSIG;
0128066303999992010011106204+46917+007483FM-15+0510LSZB V0201601N002110063019N0070001N1-00501-00601999999ADDGA1071+006301999GF107991999999999999999999MA1101291999999REMMET059METAR LSZB 110620Z 16004KT 7000 BKN021 M05/M06 Q1013 NOSIG;
0128066303999992010011106504+46917+007483FM-15+0510LSZB V0201401N001010063019N0060001N1-00501-00601999999ADDGA1071+006301999GF107991999999999999999999MA1101291999999REMMET059METAR LSZB 110650Z 14002KT 6000 BKN021 M05/M06 Q1013 NOSIG;
0128066303999992010011107204+46917+007483FM-15+0510LSZB V0200801N000510060019N0060001N1-00501-00701999999ADDGA1071+006001999GF107991999999999999999999MA1101291999999REMMET059METAR LSZB 110720Z 08001KT 6000 BKN020 M05/M07 Q1013 NOSIG;
0128066303999992010011107504+46917+007483FM-15+0510LSZB V0209999V000510060019N0060001N1-00501-00601999999ADDGA1071+006001999GF107991999999999999999999MA1101291999999REMMET059METAR LSZB 110750Z VRB01KT 6000 BKN020 M05/M06 Q1013 NOSIG;
0128066303999992010011108204+46917+007483FM-15+0510LSZB V0209999V000510060019N0060001N1-00501-00601999999ADDGA1071+006001999GF107991999999999999999999MA1101291999999REMMET059METAR LSZB 110820Z VRB01KT 6000 BKN020 M05/M06 Q1013 NOSIG;
0137066303999992010011108504+46917+007483FM-15+0510LSZB V0202601N000510054019N0050001N1-00401-00601999999ADDGA1071+005401999GF107991999999999999999999MA1101391999999MW1101REMMET062METAR LSZB 110850Z 26001KT 5000 BR BKN018 M04/M06 Q1014 NOSIG;
0137066303999992010011109204+46917+007483FM-15+0510LSZB V0202601N002110054019N0050001N1-00401-00601999999ADDGA1071+005401999GF107991999999999999999999MA1101391999999MW1101REMMET062METAR LSZB 110920Z 26004KT 5000 BR BKN018 M04/M06 Q1014 NOSIG;
0137066303999992010011109504+46917+007483FM-15+0510LSZB V0202501N002610054019N0050001N1-00401-00701999999ADDGA1071+005401999GF107991999999999999999999MA1101391999999MW1101REMMET062METAR LSZB 110950Z 25005KT 5000 BR BKN018 M04/M07 Q1014 NOSIG;
0137066303999992010011110204+46917+007483FM-15+0510LSZB V0202001N002110054019N0050001N1-00401-00701999999ADDGA1071+005401999GF107991999999999999999999MA1101391999999MW1101REMMET062METAR LSZB 111020Z 20004KT 5000 BR BKN018 M04/M07 Q1014 NOSIG;
0137066303999992010011110504+46917+007483FM-15+0510LSZB V0209999V001010054019N0050001N1-00301-00701999999ADDGA1071+005401999GF107991999999999999999999MA1101391999999MW1101REMMET062METAR LSZB 111050Z VRB02KT 5000 BR BKN018 M03/M07 Q1014 NOSIG;
0128066303999992010011111204+46917+007483FM-15+0510LSZB V0209999V000510057019N0070001N1-00201-00701999999ADDGA1071+005701999GF107991999999999999999999MA1101391999999REMMET059METAR LSZB 111120Z VRB01KT 7000 BKN019 M02/M07 Q1014 NOSIG;
0128066303999992010011111504+46917+007483FM-15+0510LSZB V0201501N001510057019N0070001N1-00201-00601999999ADDGA1071+005701999GF107991999999999999999999MA1101391999999REMMET059METAR LSZB 111150Z 15003KT 7000 BKN019 M02/M06 Q1014 NOSIG;
0128066303999992010011112204+46917+007483FM-15+0510LSZB V0201501N002110057019N0060001N1-00201-00601999999ADDGA1081+005701999GF108991999999999999999999MA1101291999999REMMET059METAR LSZB 111220Z 15004KT 6000 OVC019 M02/M06 Q1013 NOSIG;
0128066303999992010011112504+46917+007483FM-15+0510LSZB V0201601N002610057019N0060001N1-00301-00601999999ADDGA1081+005701999GF108991999999999999999999MA1101291999999REMMET059METAR LSZB 111250Z 16005KT 6000 OVC019 M03/M06 Q1013 NOSIG;
0128066303999992010011113204+46917+007483FM-15+0510LSZB V0201501N002610057019N0060001N1-00301-00601999999ADDGA1081+005701999GF108991999999999999999999MA1101291999999REMMET059METAR LSZB 111320Z 15005KT 6000 OVC019 M03/M06 Q1013 NOSIG;
0128066303999992010011113504+46917+007483FM-15+0510LSZB V0201601N002610054019N0060001N1-00301-00601999999ADDGA1081+005401999GF108991999999999999999999MA1101391999999REMMET059METAR LSZB 111350Z 16005KT 6000 OVC018 M03/M06 Q1014 NOSIG;
0128066303999992010011114204+46917+007483FM-15+0510LSZB V0201501N002610054019N0060001N1-00301-00601999999ADDGA1081+005401999GF108991999999999999999999MA1101391999999REMMET059METAR LSZB 111420Z 15005KT 6000 OVC018 M03/M06 Q1014 NOSIG;
0128066303999992010011114504+46917+007483FM-15+0510LSZB V0201501N002110054019N0060001N1-00301-00601999999ADDGA1081+005401999GF108991999999999999999999MA1101391999999REMMET059METAR LSZB 111450Z 15004KT 6000 OVC018 M03/M06 Q1014 NOSIG;
0128066303999992010011115204+46917+007483FM-15+0510LSZB V0201501N002110054019N0060001N1-00301-00601999999ADDGA1081+005401999GF108991999999999999999999MA1101391999999REMMET059METAR LSZB 111520Z 15004KT 6000 OVC018 M03/M06 Q1014 NOSIG;
0128066303999992010011115504+46917+007483FM-15+0510LSZB V0201501N002110051019N0060001N1-00301-00601999999ADDGA1081+005101999GF108991999999999999999999MA1101391999999REMMET059METAR LSZB 111550Z 15004KT 6000 OVC017 M03/M06 Q1014 NOSIG;
0128066303999992010011116204+46917+007483FM-15+0510LSZB V0201501N002610051019N0060001N1-00301-00601999999ADDGA1071+005101999GF107991999999999999999999MA1101391999999REMMET059METAR LSZB 111620Z 15005KT 6000 BKN017 M03/M06 Q1014 NOSIG;
0128066303999992010011116504+46917+007483FM-15+0510LSZB V0201501N001510048019N0060001N1-00301-00601999999ADDGA1071+004801999GF107991999999999999999999MA1101391999999REMMET059METAR LSZB 111650Z 15003KT 6000 BKN016 M03/M06 Q1014 NOSIG;
0151066303999992010011117204+46917+007483FM-15+0510LSZB V0201501N001510048019N0070001N1-00401-00601999999ADDGA1071+004801999GA2071+027001999GF107991999999999999999999MA1101491999999REMMET066METAR LSZB 111720Z 15003KT 7000 BKN016 BKN090 M04/M06 Q1015 NOSIG;
0151066303999992010011117504+46917+007483FM-15+0510LSZB V0201301N001510270019N0070001N1-00401-00601999999ADDGA1041+004801999GA2071+027001999GF107991999999999999999999MA1101491999999REMMET066METAR LSZB 111750Z 13003KT 7000 SCT016 BKN090 M04/M06 Q1015 NOSIG;
0151066303999992010011118204+46917+007483FM-15+0510LSZB V0201201N001510270019N0070001N1-00401-00601999999ADDGA1041+004801999GA2071+027001999GF107991999999999999999999MA1101491999999REMMET066METAR LSZB 111820Z 12003KT 7000 SCT016 BKN090 M04/M06 Q1015 NOSIG;
0151066303999992010011118504+46917+007483FM-15+0510LSZB V0200901N001010270019N0070001N1-00401-00601999999ADDGA1041+005101999GA2071+027001999GF107991999999999999999999MA1101491999999REMMET066METAR LSZB 111850Z 09002KT 7000 SCT017 BKN090 M04/M06 Q1015 NOSIG;
0151066303999992010011119204+46917+007483FM-15+0510LSZB V0201601N001010210019N0070001N1-00501-00601999999ADDGA1041+005101999GA2071+021001999GF107991999999999999999999MA1101491999999REMMET066METAR LSZB 111920Z 16002KT 7000 SCT017 BKN070 M05/M06 Q1015 NOSIG;
0151066303999992010011119504+46917+007483FM-15+0510LSZB V0201401N001010210019N0070001N1-00401-00601999999ADDGA1041+005101999GA2071+021001999GF107991999999999999999999MA1101491999999REMMET066METAR LSZB 111950Z 14002KT 7000 SCT017 BKN070 M04/M06 Q1015 NOSIG;
0151066303999992010011120204+46917+007483FM-15+0510LSZB V0209999V000510210019N0070001N1-00401-00601999999ADDGA1041+005101999GA2071+021001999GF107991999999999999999999MA1101491999999REMMET066METAR LSZB 112020Z VRB01KT 7000 SCT017 BKN070 M04/M06 Q1015 NOSIG;
0174066303999992010011205204+46917+007483FM-15+0510LSZB V0201401N00101005401CN0060001N1-00401-00501999999ADDGA1041+003001999GA2041+005401999GA3071+018001999GF107991999999999999999999MA1101491999999REMMET073METAR LSZB 120520Z 14002KT 6000 SCT010 SCT018 BKN060 M04/M05 Q1015 NOSIG;
0174066303999992010011205504+46917+007483FM-15+0510LSZB V0201101N00101005401CN0060001N1-00401-00501999999ADDGA1041+003001999GA2041+005401999GA3071+018001999GF107991999999999999999999MA1101391999999REMMET073METAR LSZB 120550Z 11002KT 6000 SCT010 SCT018 BKN060 M04/M05 Q1014 NOSIG;
0174066303999992010011206204+46917+007483FM-15+0510LSZB V0201101N00151005701CN0060001N1-00401-00501999999ADDGA1041+003001999GA2041+005701999GA3071+018001999GF107991999999999999999999MA1101391999999REMMET073METAR LSZB 120620Z 11003KT 6000 SCT010 SCT019 BKN060 M04/M05 Q1014 NOSIG;
0160066303999992010011206504+46917+007483FM-15+0510LSZB V0209999V001010057019N0050001N1-00501-00501999999ADDGA1041+003001999GA2071+005701999GF107991999999999999999999MA1101391999999MW1101REMMET069METAR LSZB 120650Z VRB02KT 5000 BR SCT010 BKN019 M05/M05 Q1014 NOSIG;
0160066303999992010011207204+46917+007483FM-15+0510LSZB V0209999C000010057019N0035001N1-00401-00501999999ADDGA1041+003001999GA2071+005701999GF107991999999999999999999MA1101391999999MW1101REMMET069METAR LSZB 120720Z 00000KT 3500 BR SCT010 BKN019 M04/M05 Q1014 NOSIG;
0160066303999992010011207504+46917+007483FM-15+0510LSZB V0209999V000510057019N0035001N1-00401-00501999999ADDGA1041+003001999GA2071+005701999GF107991999999999999999999MA1101291999999MW1101REMMET069METAR LSZB 120750Z VRB01KT 3500 BR SCT010 BKN019 M04/M05 Q1013 NOSIG;
0160066303999992010011208204+46917+007483FM-15+0510LSZB V0202501N001010057019N0035001N1-00401-00501999999ADDGA1041+003001999GA2071+005701999GF107991999999999999999999MA1101291999999MW1101REMMET069METAR LSZB 120820Z 25002KT 3500 BR SCT010 BKN019 M04/M05 Q1013 NOSIG;
0160066303999992010011208504+46917+007483FM-15+0510LSZB V0209999C000010057019N0035001N1-00301-00401999999ADDGA1041+003001999GA2071+005701999GF107991999999999999999999MA1101291999999MW1101REMMET069METAR LSZB 120850Z 00000KT 3500 BR SCT010 BKN019 M03/M04 Q1013 NOSIG;
0160066303999992010011209204+46917+007483FM-15+0510LSZB V0202101N001010057019N0037001N1-00301-00401999999ADDGA1041+003001999GA2071+005701999GF107991999999999999999999MA1101291999999MW1101REMMET069METAR LSZB 120920Z 21002KT 3700 BR SCT010 BKN019 M03/M04 Q1013 NOSIG;
0160066303999992010011209504+46917+007483FM-15+0510LSZB V0202501N001010054019N0037001N1-00301-00401999999ADDGA1041+003001999GA2071+005401999GF107991999999999999999999MA1101191999999MW1101REMMET069METAR LSZB 120950Z 25002KT 3700 BR SCT010 BKN018 M03/M04 Q1012 NOSIG;
0160066303999992010011210204+46917+007483FM-15+0510LSZB V0209999V000510054019N0037001N1-00201-00401999999ADDGA1041+003001999GA2071+005401999GF107991999999999999999999MA1101191999999MW1101REMMET069METAR LSZB 121020Z VRB01KT 3700 BR SCT010 BKN018 M02/M04 Q1012 NOSIG;
0160066303999992010011210504+46917+007483FM-15+0510LSZB V0209999V000510054019N0037001N1-00201-00401999999ADDGA1041+003001999GA2071+005401999GF107991999999999999999999MA1101081999999MW1101REMMET069METAR LSZB 121050Z VRB01KT 3700 BR SCT010 BKN018 M02/M04 Q1011 NOSIG;
0160066303999992010011211204+46917+007483FM-15+0510LSZB V0200901N000510054019N0037001N1-00101-00401999999ADDGA1041+003001999GA2071+005401999GF107991999999999999999999MA1101081999999MW1101REMMET069METAR LSZB 121120Z 09001KT 3700 BR SCT010 BKN018 M01/M04 Q1011 NOSIG;
0160066303999992010011211504+46917+007483FM-15+0510LSZB V0209999V000510054019N0045001N1-00101-00401999999ADDGA1041+003001999GA2071+005401999GF107991999999999999999999MA1101081999999MW1101REMMET069METAR LSZB 121150Z VRB01KT 4500 BR SCT010 BKN018 M01/M04 Q1011 NOSIG;
0137066303999992010011212204+46917+007483FM-15+0510LSZB V0209999V001010048019N0050001N1-00101-00501999999ADDGA1081+004801999GF108991999999999999999999MA1101021999999MW1101REMMET062METAR LSZB 121220Z VRB02KT 5000 BR OVC016 M01/M05 Q1010 NOSIG;
0137066303999992010011212504+46917+007483FM-15+0510LSZB V0209999V001010048019N0050001N1-00101-00501999999ADDGA1081+004801999GF108991999999999999999999MA1101021999999MW1101REMMET062METAR LSZB 121250Z VRB02KT 5000 BR OVC016 M01/M05 Q1010 NOSIG;
0137066303999992010011213204+46917+007483FM-15+0510LSZB V0201901N001010048019N0050001N1-00101-00501999999ADDGA1081+004801999GF108991999999999999999999MA1100911999999MW1101REMMET062METAR LSZB 121320Z 19002KT 5000 BR OVC016 M01/M05 Q1009 NOSIG;
0137066303999992010011213504+46917+007483FM-15+0510LSZB V0201501N002110048019N0050001N1-00201-00501999999ADDGA1081+004801999GF108991999999999999999999MA1100911999999MW1101REMMET062METAR LSZB 121350Z 15004KT 5000 BR OVC016 M02/M05 Q1009 NOSIG;
0137066303999992010011214204+46917+007483FM-15+0510LSZB V0209999V000510048019N0050001N1-00201-00501999999ADDGA1081+004801999GF108991999999999999999999MA1100911999999MW1101REMMET062METAR LSZB 121420Z VRB01KT 5000 BR OVC016 M02/M05 Q1009 NOSIG;
0137066303999992010011214504+46917+007483FM-15+0510LSZB V0209999V000510051019N0050001N1-00201-00501999999ADDGA1081+005101999GF108991999999999999999999MA1100811999999MW1101REMMET062METAR LSZB 121450Z VRB01KT 5000 BR OVC017 M02/M05 Q1008 NOSIG;
0137066303999992010011215204+46917+007483FM-15+0510LSZB V0201401N002610048019N0050001N1-00201-00501999999ADDGA1081+004801999GF108991999999999999999999MA1100811999999MW1101REMMET062METAR LSZB 121520Z 14005KT 5000 BR OVC016 M02/M05 Q1008 NOSIG;
0137066303999992010011215504+46917+007483FM-15+0510LSZB V0209999V001510045019N0050001N1-00201-00501999999ADDGA1081+004501999GF108991999999999999999999MA1100711999999MW1101REMMET062METAR LSZB 121550Z VRB03KT 5000 BR OVC015 M02/M05 Q1007 NOSIG;
0137066303999992010011216204+46917+007483FM-15+0510LSZB V0209999V001010045019N0050001N1-00201-00501999999ADDGA1081+004501999GF108991999999999999999999MA1100711999999MW1101REMMET062METAR LSZB 121620Z VRB02KT 5000 BR OVC015 M02/M05 Q1007 NOSIG;
0137066303999992010011216504+46917+007483FM-15+0510LSZB V0209999V001010045019N0050001N1-00301-00501999999ADDGA1081+004501999GF108991999999999999999999MA1100711999999MW1101REMMET062METAR LSZB 121650Z VRB02KT 5000 BR OVC015 M03/M05 Q1007 NOSIG;
0137066303999992010011217204+46917+007483FM-15+0510LSZB V0209999V001510045019N0050001N1-00301-00501999999ADDGA1081+004501999GF108991999999999999999999MA1100711999999MW1101REMMET062METAR LSZB 121720Z VRB03KT 5000 BR OVC015 M03/M05 Q1007 NOSIG;
0137066303999992010011217504+46917+007483FM-15+0510LSZB V0209999V001010045019N0050001N1-00301-00501999999ADDGA1081+004501999GF108991999999999999999999MA1100611999999MW1101REMMET062METAR LSZB 121750Z VRB02KT 5000 BR OVC015 M03/M05 Q1006 NOSIG;
0137066303999992010011218204+46917+007483FM-15+0510LSZB V0209999V001010045019N0050001N1-00301-00501999999ADDGA1081+004501999GF108991999999999999999999MA1100611999999MW1101REMMET062METAR LSZB 121820Z VRB02KT 5000 BR OVC015 M03/M05 Q1006 NOSIG;
0137066303999992010011218504+46917+007483FM-15+0510LSZB V0209999V000510042019N0050001N1-00301-00501999999ADDGA1081+004201999GF108991999999999999999999MA1100611999999MW1101REMMET062METAR LSZB 121850Z VRB01KT 5000 BR OVC014 M03/M05 Q1006 NOSIG;
0137066303999992010011219204+46917+007483FM-15+0510LSZB V0209999V001010042019N0050001N1-00301-00501999999ADDGA1081+004201999GF108991999999999999999999MA1100611999999MW1101REMMET062METAR LSZB 121920Z VRB02KT 5000 BR OVC014 M03/M05 Q1006 NOSIG;
0137066303999992010011219504+46917+007483FM-15+0510LSZB V0209999V001010042019N0050001N1-00301-00501999999ADDGA1081+004201999GF108991999999999999999999MA1100611999999MW1101REMMET062METAR LSZB 121950Z VRB02KT 5000 BR OVC014 M03/M05 Q1006 NOSIG;
0137066303999992010011220204+46917+007483FM-15+0510LSZB V0209999V000510042019N0050001N1-00301-00501999999ADDGA1081+004201999GF108991999999999999999999MA1100511999999MW1101REMMET062METAR LSZB 122020Z VRB01KT 5000 BR OVC014 M03/M05 Q1005 NOSIG;
0186066303999992010011304504+46917+007483FM-15+0510LSZB V0203301N002610105019N0040001N1-00301-00401999999ADDGA1041+009001999GA2071+010501999GA3081+015001999GF108991999999999999999999MA1100311999999MW1101REMMET079METAR LSZB 130450Z 33005KT 4000 BR SCT030 BKN035 OVC050 M03/M04 Q1003 BECMG SN;
0184066303999992010011305204+46917+007483FM-15+0510LSZB V0203401N002110105019N0039001N1-00301-00401999999ADDGA1041+009001999GA2071+010501999GA3081+015001999GF108991999999999999999999MA1100411999999MW1711REMMET077METAR LSZB 130520Z 34004KT 3900 -SN SCT030 BKN035 OVC050 M03/M04 Q1004 NOSIG;
0160066303999992010011305504+46917+007483FM-15+0510LSZB V0209999V001010030019N0015001N1-00301-00401999999ADDGA1071+003001999GA2081+007501999GF108991999999999999999999MA1100411999999MW1731REMMET069METAR LSZB 130550Z VRB02KT 1500 SN BKN010 OVC025 M03/M04 Q1004 NOSIG;
0175066303999992010011306204+46917+007483FM-15+0510LSZB V0201601N001510021019N0007001N1-00301-00301999999ADDGA1071+002101999GA2081+006001999GF108991999999999999999999MA1100411999999MW1731REMMET084METAR LSZB 130620Z 16003KT 0700 R14/0800V1700U SN BKN007 OVC020 M03/M03 Q1004 NOSIG;
0168066303999992010011306504+46917+007483FM-15+0510LSZB V0201601N001510030019N0019001N1-00301-00301999999ADDGA1071+003001999GA2081+008101999GF108991999999999999999999MA1100511999999MW1731REMMET077METAR LSZB 130650Z 16003KT 150V210 1900 SN BKN010 OVC027 M03/M03 Q1005 NOSIG;
0175066303999992010011307204+46917+007483FM-15+0510LSZB V0201601N002110030019N0010001N1-00301-00301999999ADDGA1071+003001999GA2081+007501999GF108991999999999999999999MA1100511999999MW1731REMMET084METAR LSZB 130720Z 16004KT 1000 R14/1400V1600N SN BKN010 OVC025 M03/M03 Q1005 NOSIG;
0184066303999992010011307504+46917+007483FM-15+0510LSZB V0201401N002110075019N0020001N1-00301-00301999999ADDGA1041+003001999GA2071+007501999GA3081+012001999GF108991999999999999999999MA1100511999999MW1711REMMET077METAR LSZB 130750Z 14004KT 2000 -SN SCT010 BKN025 OVC040 M03/M03 Q1005 NOSIG;
0199066303999992010011308204+46917+007483FM-15+0510LSZB V0201401N002610075019N0010001N1-00301-00301999999ADDGA1041+003001999GA2071+007501999GA3081+012001999GF108991999999999999999999MA1100611999999MW1711REMMET092METAR LSZB 130820Z 14005KT 1000 R14/1100V1200N -SN SCT010 BKN025 OVC040 M03/M03 Q1006 NOSIG;
0186066303999992010011308504+46917+007483FM-15+0510LSZB V0201201N001510063019N0011001N1-00201-00301999999ADDGA1041+002401999GA2071+006301999GF107991999999999999999999MA1100611999999MW1731REMMET095METAR LSZB 130850Z 12003KT 1100 R14/1000V1300U SN SCT008 BKN021 M02/M03 Q1006 R14/590362 NOSIG;
0186066303999992010011309204+46917+007483FM-15+0510LSZB V0201401N002110063019N0012001N1-00201-00301999999ADDGA1041+002401999GA2071+006301999GF107991999999999999999999MA1100611999999MW1731REMMET095METAR LSZB 130920Z 14004KT 1200 R14/1100V1400D SN SCT008 BKN021 M02/M03 Q1006 R14/590362 NOSIG;
0186066303999992010011309504+46917+007483FM-15+0510LSZB V0201101N001510072019N0015001N1-00201-00201999999ADDGA1041+003001999GA2071+007201999GF107991999999999999999999MA1100611999999MW1731REMMET095METAR LSZB 130950Z 11003KT 1500 R14/1400V1600N SN SCT010 BKN024 M02/M02 Q1006 R14/590352 NOSIG;
0186066303999992010011310204+46917+007483FM-15+0510LSZB V0201501N001510072019N0014001N1-00101-00201999999ADDGA1041+003001999GA2071+007201999GF107991999999999999999999MA1100611999999MW1731REMMET095METAR LSZB 131020Z 15003KT 1400 R14/1300V1700U SN SCT010 BKN024 M01/M02 Q1006 R14/590452 NOSIG;
0171066303999992010011310504+46917+007483FM-15+0510LSZB V0201401N001510030019N0015001N1-00101-00201999999ADDGA1071+003001999GA2081+007501999GF108991999999999999999999MA1100611999999MW1731REMMET080METAR LSZB 131050Z 14003KT 1500 SN BKN010 OVC025 M01/M02 Q1006 R14/590452 NOSIG;
0171066303999992010011311204+46917+007483FM-15+0510LSZB V0201401N001010030019N0019001N1+00001-00201999999ADDGA1071+003001999GA2081+007501999GF108991999999999999999999MA1100611999999MW1731REMMET080METAR LSZB 131120Z 14002KT 1900 SN BKN010 OVC025 M00/M02 Q1006 R14/550281 NOSIG;
0170066303999992010011311504+46917+007483FM-15+0510LSZB V0209999V001010030019N0016001N1+00001-00201999999ADDGA1071+003001999GA2081+007501999GF108991999999999999999999MA1100611999999MW1731REMMET079METAR LSZB 131150Z VRB02KT 1600 SN BKN010 OVC025 00/M02 Q1006 R14/550281 NOSIG;
0186066303999992010011312204+46917+007483FM-15+0510LSZB V0209999V000510024019N0014001N1-00101-00201999999ADDGA1071+002401999GA2081+006001999GF108991999999999999999999MA1100611999999MW1731REMMET095METAR LSZB 131220Z VRB01KT 1400 R14/1300V1600N SN BKN008 OVC020 M01/M02 Q1006 R14/550281 NOSIG;
0186066303999992010011312504+46917+007483FM-15+0510LSZB V0209999V001010024019N0011001N1-00101-00201999999ADDGA1071+002401999GA2081+006001999GF108991999999999999999999MA1100611999999MW1731REMMET095METAR LSZB 131250Z VRB02KT 1100 R14/0900V1300D SN BKN008 OVC020 M01/M02 Q1006 R14/520294 NOSIG;
0186066303999992010011313204+46917+007483FM-15+0510LSZB V0202301N000510024019N0010001N1-00101-00101999999ADDGA1071+002401999GA2081+006001999GF108991999999999999999999MA1100611999999MW1731REMMET095METAR LSZB 131320Z 23001KT 1000 R14/0900V1100N SN BKN008 OVC020 M01/M01 Q1006 R14/520294 NOSIG;
0186066303999992010011313504+46917+007483FM-15+0510LSZB V0209999V000510018019N0010001N1+00001-00101999999ADDGA1071+001801999GA2081+005401999GF108991999999999999999999MA1100611999999MW1731REMMET095METAR LSZB 131350Z VRB01KT 1000 R14/0900V1100N SN BKN006 OVC018 M00/M01 Q1006 R14/520294 NOSIG;
0186066303999992010011314204+46917+007483FM-15+0510LSZB V0201601N001010018019N0010001N1+00001-00101999999ADDGA1071+001801999GA2081+005401999GF108991999999999999999999MA1100611999999MW1731REMMET095METAR LSZB 131420Z 16002KT 1000 R14/0900V1100U SN BKN006 OVC018 M00/M01 Q1006 R14/520294 NOSIG;
0186066303999992010011314504+46917+007483FM-15+0510LSZB V0201401N001510018019N0010001N1+00001-00101999999ADDGA1071+001801999GA2081+005401999GF108991999999999999999999MA1100711999999MW1731REMMET095METAR LSZB 131450Z 14003KT 1000 R14/0900V1100U SN BKN006 OVC018 M00/M01 Q1007 R14/520294 NOSIG;
0170066303999992010011315204+46917+007483FM-15+0510LSZB V0201101N002110024019N0025001N1+00001-00101999999ADDGA1071+002401999GA2081+005401999GF108991999999999999999999MA1100711999999REMMET085METAR LSZB 131520Z 11004KT 2500 BKN008 OVC018 M00/M01 Q1007 R14/520294 TEMPO 1000 SN;
0170066303999992010011315504+46917+007483FM-15+0510LSZB V0201501N002110042019N0025001N1+00001-00101999999ADDGA1041+001801999GA2081+004201999GF108991999999999999999999MA1100711999999REMMET085METAR LSZB 131550Z 15004KT 2500 SCT006 OVC014 M00/M01 Q1007 R14/520294 TEMPO 1000 SN;
0167066303999992010011316204+46917+007483FM-15+0510LSZB V0201301N001510036019N0010001N1+00001-00101999999ADDGA1081+003601999GF108991999999999999999999MA1100711999999MW1441REMMET092METAR LSZB 131620Z 13003KT 1000 R14/1900VP2000N FG OVC012 M00/M01 Q1007 R14/520294 TEMPO SN;
0117066303999992010011316504+46917+007483FM-15+0510LSZB V0201101N001519999999N0010001N1+00001+00001999999ADDMA1100801999999REMMET090METAR LSZB 131650Z 11003KT 1000 R14/P2000VP2000U FG OVC013 M00/M00 Q1008 R14/520294 NOSIG;
0164066303999992010011317204+46917+007483FM-15+0510LSZB V0201401N002110039019N0010001N1+00001+00001999999ADDGA1081+003901999GF108991999999999999999999MA1100811999999MW1731REMMET089METAR LSZB 131720Z 14004KT 1000 R14/1600VP2000N SN OVC013 M00/M00 Q1008 R14/520294 NOSIG;
0168066303999992010011317504+46917+007483FM-15+0510LSZB V0201201N002110039019N0010001N1-00101+99999999999ADDGA1081+003901999GF108991999999999999999999MA1100811999999MW1731REMMET093METAR LSZB 131750Z 12004KT 1000 R14/1600VP2000N SN OVC013 M01/M00 Q1008 R14/520294 BECMG NSW;
0157066303999992010011318204+46917+007483FM-15+0510LSZB V0201001N001510120019N0020001N1+00001+00001999999ADDGA1071+012001999GF107991999999999999999999MA1100811999999MW1711REMMET082METAR LSZB 131820Z 10003KT 070V140 2000 -SN BKN040 M00/M00 Q1008 R14/520294 NOSIG;
0195066303999992010011318504+46917+007483FM-15+0510LSZB V0209999V00101011401CN0034001N1-00101-00101999999ADDGA1021+001501999GA2041+011401999GA3071+015001999GF107991999999999999999999MA1100811999999MW1711REMMET088METAR LSZB 131850Z VRB02KT 3400 -SN FEW005 SCT038 BKN054 M01/M01 Q1008 R14/520294 NOSIG;
0195066303999992010011319204+46917+007483FM-15+0510LSZB V0201701N00151011401CN0025001N1-00201-00201999999ADDGA1021+001501999GA2041+011401999GA3071+015001999GF107991999999999999999999MA1100811999999MW1711REMMET088METAR LSZB 131920Z 17003KT 2500 -SN FEW005 SCT038 BKN054 M02/M02 Q1008 R14/520294 NOSIG;
0194066303999992010011319504+46917+007483FM-15+0510LSZB V0201601N001510180019N0005501N1-00201-00201999999ADDED199U07509GA1041+014401999GA2071+018001999GF107991999999999999999999MA1100811999999MW1481REMMET092METAR LSZB 131950Z 16003KT 0550 R14/0750D FZFG SCT048 BKN061 M02/M02 Q1008 R14/520294 NOSIG;
0139066303999992010011405204+46917+007483FM-15+0510LSZB V0201401N001010018019N0025001N1+00001+00001999999ADDGA1071+001801999GF107991999999999999999999MA1100511999999REMMET070METAR LSZB 140520Z 14002KT 2500 BKN006 M00/M00 Q1005 R14/520294 NOSIG;
0139066303999992010011405504+46917+007483FM-15+0510LSZB V0209999V000510015019N0030001N1+00001+00001999999ADDGA1071+001501999GF107991999999999999999999MA1100511999999REMMET070METAR LSZB 140550Z VRB01KT 3000 BKN005 M00/M00 Q1005 R14/750254 NOSIG;
