0216066330999992011010100004+47383+008083FM-12+038799999V0202401N00101000301CN0020001N1+00031-00021102441ADDAY121061AY221061GA1081+000301071GF108991999999000251999999MA1999999097631MD1810091+9999MW1101OA149900361REMSYN100AAXX  01004 06633 31020 82402 10003 21002 39763 40244 58009 71022 333 55300 20000 88701 91107 91205;
0140066330999992011010101004+47383+008083FM-12+038799999V0202401N001019999999N9999999N1+00031-00011102391ADDMA1999999097581MD1810121+9999OA149900151REMSYN088AAXX  01014 06633 33/// /2402 10003 21001 39758 40239 58012 333 55300 20000 91103 91202;
0140066330999992011010102004+47383+008083FM-12+038799999V0202301N000519999999N9999999N1+00041-00011102381ADDMA1999999097571MD1710111+9999OA149900211REMSYN088AAXX  01024 06633 33/// /2301 10004 21001 39757 40238 57011 333 55300 20000 91104 91202;
0216066330999992011010103004+47383+008083FM-12+038799999V0202301N00151000901CN0020001N1+00031-00081102361ADDAY121031AY221031GA1081+000901071GF108991999999000751999999MA1999999097551MD1710081+9999MW1101OA149900261REMSYN100AAXX  01034 06633 31120 82303 10003 21008 39755 40236 57008 71022 333 55300 20000 88703 91105 91203;
0140066330999992011010104004+47383+008083FM-12+038799999V0202201N001519999999N9999999N1+00011-00131102321ADDMA1999999097511MD1710071+9999OA149900361REMSYN088AAXX  01044 06633 33/// /2203 10001 21013 39751 40232 57007 333 55300 20000 91107 91204;
0140066330999992011010105004+47383+008083FM-12+038799999V0202201N001519999999N9999999N1+00021-00121102341ADDMA1999999097531MD1510041+9999OA149900361REMSYN088AAXX  01054 06633 33/// /2203 10002 21012 39753 40234 55004 333 55300 20000 91107 91204;
0301066330999992011010106004+47383+008083FM-12+038799999V0202101N00211002401CN0030001N1+00031-00121102371ADDAL19900091AY121061AY221061GA1081+002401071GF108991999999002501999999GJ100009IA1099IA2999-00109KA1999N+00001MA1999999097561MD1310011+9999MW1101OA149900361REMSYN136AAXX  01064 06633 31330 82104 10003 21012 39756 40237 53001 71022 333 20000 31101 55000 55300 20000 70000 88708 90768 93100 91107 91204;
0140066330999992011010107004+47383+008083FM-12+038799999V0202201N001519999999N9999999N1+00041-00111102371ADDMA1999999097561MD1210051+9999OA149900361REMSYN088AAXX  01074 06633 33/// /2203 10004 21011 39756 40237 52005 333 55300 20000 91107 91205;
0140066330999992011010108004+47383+008083FM-12+038799999V0202301N001519999999N9999999N1+00041-00091102401ADDMA1999999097591MD1219999+9999OA149900361REMSYN088AAXX  01084 06633 33/// /2303 10004 21009 39759 40240 52/// 333 55300 20011 91107 91205;
0167066330999992011010109004+47383+008083FM-12+038799999V0202201N002110033019N0030001N1+00091-00071102381ADDAY121031AY221031GA1081+003301071GF108991999999004501999999MA1999999097581MW1101REMSYN076AAXX  01094 06633 41430 82204 10009 21007 39758 40238 5//// 71022 333 88711;
0087066330999992011010110004+47383+008083FM-12+038799999V0202101N001519999999N9999999N1+00121-00051102381ADDMA1999999097581REMSYN060AAXX  01104 06633 43/// /2103 10012 21005 39758 40238 5////;
0140066330999992011010111004+47383+008083FM-12+038799999V0202101N001519999999N9999999N1+00171-00021102301ADDMA1999999097521MD1710071+9999OA149900361REMSYN088AAXX  01114 06633 33/// /2103 10017 21002 39752 40230 57007 333 55300 20461 91107 91204;
0167066330999992011010112004+47383+008083FM-12+038799999V0202201N001510003019N0040001N1+00201-00021102241ADDAY121061AY221061GA1081+000301071GF108991999999000251999999MA1999999097461MW1101REMSYN076AAXX  01124 06633 41040 82203 10020 21002 39746 40224 5//// 71022 333 88701;
0087066330999992011010113004+47383+008083FM-12+038799999V0202401N002119999999N9999999N1+00241-00051102181ADDMA1999999097411REMSYN060AAXX  01134 06633 43/// /2404 10024 21005 39741 40218 5////;
0087066330999992011010114004+47383+008083FM-12+038799999V0202401N001519999999N9999999N1+00211-00071102151ADDMA1999999097381REMSYN060AAXX  01144 06633 43/// /2403 10021 21007 39738 40215 5////;
0167066330999992011010115004+47383+008083FM-12+038799999V0202301N001510018019N0050001N1+00201-00071102141ADDAY121031AY221031GA1081+001801071GF108991999999001501999999MA1999999097371MW1101REMSYN076AAXX  01154 06633 41250 82303 10020 21007 39737 40214 5//// 71022 333 88706;
0087066330999992011010116004+47383+008083FM-12+038799999V0203201N002119999999N9999999N1+00091-00101102201ADDMA1999999097411REMSYN060AAXX  01164 06633 43/// /3204 10009 21010 39741 40220 5////;
0087066330999992011010117004+47383+008083FM-12+038799999V0203301N001519999999N9999999N1+00101-00111102231ADDMA1999999097441REMSYN060AAXX  01174 06633 43/// /3303 10010 21011 39744 40223 5////;
0201066330999992011010118004+47383+008083FM-12+038799999V0200201N001010012019N0040001N1+00071-00161102231ADDAL10600091AY121061AY221061GA1081+001201071GF108991999999001501999999IA1019MA1999999097431MW1101REMSYN094AAXX  01184 06633 41240 80202 10007 21016 39743 40223 5//// 71022 333 30/// 88704 90766 93100;
0103066330999992011010119004+47383+008083FM-12+038799999V0203101N001519999999N9999999N1+00061-00171102251ADDMA1999999097451REMSYN076AAXX  01194 06633 33/// /3103 10006 21017 39745 40225 5//// 333 553// 20000;
0140066330999992011010120004+47383+008083FM-12+038799999V0200601N000519999999N9999999N1+00051-00191102251ADDMA1999999097451MD1210011+9999OA149900361REMSYN088AAXX  01204 06633 33/// /0601 10005 21019 39745 40225 52001 333 55300 20000 91107 91203;
0216066330999992011010121004+47383+008083FM-12+038799999V0201201N00051005401CN0030001N1+00031-00161102231ADDAY121031AY221031GA1081+005401071GF108991999999004501999999MA1999999097431MD1010001+9999MW1101OA149900361REMSYN100AAXX  01214 06633 31430 81201 10003 21016 39743 40223 50000 71022 333 55300 20000 88718 91107 91204;
0140066330999992011010122004+47383+008083FM-12+038799999V0200501N001019999999N9999999N1+00011-00131102221ADDMA1999999097411MD1710041+9999OA149900211REMSYN088AAXX  01224 06633 33/// /0502 10001 21013 39741 40222 57004 333 55300 20000 91104 91202;
0140066330999992011010123004+47383+008083FM-12+038799999V0200601N000519999999N9999999N1-00021-00081102201ADDMA1999999097391MD1710061+9999OA149900211REMSYN088AAXX  01234 06633 33/// /0601 11002 21008 39739 40220 57006 333 55300 20000 91104 91202;
0216066330999992011010200004+47383+008083FM-12+038799999V0201901N00051004201CN0030001N1+00001-00071102161ADDAY121061AY221061GA1081+004201071GF108991999999004501999999MA1999999097351MD1610081+9999MW1101OA149900511REMSYN100AAXX  02004 06633 31430 81901 10000 21007 39735 40216 56008 71022 333 55300 20000 88714 91110 91205;
0140066330999992011010201004+47383+008083FM-12+038799999V0201901N001519999999N9999999N1+00011-00101102091ADDMA1999999097291MD1810121+9999OA149900211REMSYN088AAXX  02014 06633 33/// /1903 10001 21010 39729 40209 58012 333 55300 20000 91104 91203;
0087066330999992011010202004+47383+008083FM-12+038799999V0200101N000519999999N9999999N1-00031-00101102141ADDMA1999999097331REMSYN060AAXX  02024 06633 43/// /0101 11003 21010 39733 40214 5////;
0167066330999992011010203004+47383+008083FM-12+038799999V0201701N000510063019N0030001N1-00031-00101102141ADDAY121031AY221031GA1081+006301061GF108991999999008001999999MA1999999097331MW1101REMSYN076AAXX  02034 06633 41530 81701 11003 21010 39733 40214 5//// 71022 333 88621;
0087066330999992011010204004+47383+008083FM-12+038799999V0202801N000519999999N9999999N1-00021-00121102161ADDMA1999999097351REMSYN060AAXX  02044 06633 43/// /2801 11002 21012 39735 40216 5////;
0087066330999992011010205004+47383+008083FM-12+038799999V0202601N000519999999N9999999N1-00021-00111102171ADDMA1999999097361REMSYN060AAXX  02054 06633 43/// /2601 11002 21011 39736 40217 5////;
0246066330999992011010206004+47383+008083FM-12+038799999V0209999C000010063019N0100001N1-00021-00091102171ADDAL10600091AY121061AY221061GA1081+006301071GF108991999999008001999999GJ100009IA1099IA2999-00209KA1999N-00041MA1999999097361MW1101REMSYN106AAXX  02064 06633 41560 80000 11002 21009 39736 40217 5//// 71022 333 21004 31102 55000 88721 90768 93100;
0140066330999992011010207004+47383+008083FM-12+038799999V0200501N000519999999N9999999N1-00021-00101102191ADDMA1999999097381MD1210031+9999OA149900101REMSYN088AAXX  02074 06633 33/// /0501 11002 21010 39738 40219 52003 333 55300 20000 91102 91201;
0140066330999992011010208004+47383+008083FM-12+038799999V0209999C000019999999N9999999N1-00011-00071102241ADDMA1999999097431MD1310071+9999OA149900101REMSYN088AAXX  02084 06633 33/// /0000 11001 21007 39743 40224 53007 333 55300 20007 91102 91201;
0216066330999992011010209004+47383+008083FM-12+038799999V0209999C00001006301CN0100001N1-00011-00091102291ADDAY151031AY221031GA1081+006301071GF108991999999008001999999MA1999999097481MD1310121+9999MW1561OA149900101REMSYN100AAXX  02094 06633 31560 80000 11001 21009 39748 40229 53012 75652 333 55300 20050 88721 91102 91201;
0140066330999992011010210004+47383+008083FM-12+038799999V0201001N000519999999N9999999N1+00041-00111102311ADDMA1999999097501MD1110121+9999OA149900151REMSYN088AAXX  02104 06633 33/// /1001 10004 21011 39750 40231 51012 333 55300 20151 91103 91202;
0140066330999992011010211004+47383+008083FM-12+038799999V0201001N001019999999N9999999N1+00091-00131102301ADDMA1999999097501MD1210071+9999OA149900261REMSYN088AAXX  02114 06633 33/// /1002 10009 21013 39750 40230 52007 333 55300 20238 91105 91203;
0216066330999992011010212004+47383+008083FM-12+038799999V0200401N00151008401CN0120001N1+00121-00231102271ADDAY121061AY221061GA1081+008401061GF108991999999008001999999MA1999999097481MD1010001+9999MW1101OA149900411REMSYN100AAXX  02124 06633 31562 80403 10012 21023 39748 40227 50000 71022 333 55300 20349 88628 91108 91204;
0140066330999992011010213004+47383+008083FM-12+038799999V0200501N001519999999N9999999N1+00161-00291102251ADDMA1999999097471MD1710031+9999OA149900511REMSYN088AAXX  02134 06633 33/// /0503 10016 21029 39747 40225 57003 333 55300 20432 91110 91205;
0103066330999992011010214004+47383+008083FM-12+038799999V0200601N002619999999N9999999N1+00171-00591102271ADDMA1999999097491REMSYN076AAXX  02144 06633 33/// /0605 10017 21059 39749 40227 5//// 333 553// 20389;
0188066330999992011010215004+47383+008083FM-12+038799999V0200501N00211007201CN0160001N1+00131-00511102321ADDGA1061+007201061GF107991999999008001999999MA1999999097531MD1210051+9999OA149900571REMSYN094AAXX  02154 06633 32566 70504 10013 21051 39753 40232 52005 333 55300 20227 86624 91111 91205;
0140066330999992011010216004+47383+008083FM-12+038799999V0200501N001019999999N9999999N1+00081-00461102371ADDMA1999999097571MD1310101+9999OA149900571REMSYN088AAXX  02164 06633 33/// /0502 10008 21046 39757 40237 53010 333 55300 20043 91111 91205;
0140066330999992011010217004+47383+008083FM-12+038799999V0200601N001019999999N9999999N1+00041-00451102421ADDMA1999999097611MD1110121+9999OA149900361REMSYN088AAXX  02174 06633 33/// /0602 10004 21045 39761 40242 51012 333 55300 20000 91107 91204;
0241066330999992011010218004+47383+008083FM-12+038799999V0200201N00151008401CN0150001N1+00021-00461102441ADDAL19900091GA1061+008401061GF107991999999008001999999IA1019KA1120M+00181MA1999999097621MD1110091+9999OA149900571REMSYN118AAXX  02184 06633 32565 70203 10002 21046 39762 40244 51009 333 10018 30/// 55300 20000 86628 90766 93100 91111 91205;
0140066330999992011010219004+47383+008083FM-12+038799999V0200601N000519999999N9999999N1-00081-00481102501ADDMA1999999097661MD1110091+9999OA149900261REMSYN088AAXX  02194 06633 33/// /0601 11008 21048 39766 40250 51009 333 55300 20000 91105 91203;
0140066330999992011010220004+47383+008083FM-12+038799999V0200701N000519999999N9999999N1-00091-00511102521ADDMA1999999097681MD1310071+9999OA149900261REMSYN088AAXX  02204 06633 33/// /0701 11009 21051 39768 40252 53007 333 55300 20000 91105 91202;
0216066330999992011010221004+47383+008083FM-12+038799999V0200501N001012200019N0050001N1-00141-00481102551ADDAY111031AY211031GA1011+006301071GF101991999999008001999999MA1999999097701MD1110081+9999MW1101OA149900361REMSYN100AAXX  02214 06633 31550 10502 11014 21048 39770 40255 51008 71011 333 55300 20000 81721 91107 91204;
0140066330999992011010222004+47383+008083FM-12+038799999V0200601N000519999999N9999999N1-00191-00511102601ADDMA1999999097741MD1110081+9999OA149900211REMSYN088AAXX  02224 06633 33/// /0601 11019 21051 39774 40260 51008 333 55300 20000 91104 91202;
0140066330999992011010223004+47383+008083FM-12+038799999V0200601N000519999999N9999999N1-00241-00511102611ADDMA1999999097741MD1210061+9999OA149900211REMSYN088AAXX  02234 06633 33/// /0601 11024 21051 39774 40261 52006 333 55300 20000 91104 91203;
0210066330999992011010300004+47383+008083FM-12+038799999V0200801N000512200019N0070001N1-00341-00501102631ADDAY111061AY211061GA1001+999999999GF100991001001999999001001MA1999999097741MD1010041+9999MW1101OA149900571REMSYN094AAXX  03004 06633 31/57 00801 11034 21050 39774 40263 50004 71011 333 55300 20000 91111 91205;
0140066330999992011010301004+47383+008083FM-12+038799999V0209999C000019999999N9999999N1-00431-00551102611ADDMA1999999097711MD1710031+9999OA149900101REMSYN088AAXX  03014 06633 33/// /0000 11043 21055 39771 40261 57003 333 55300 20000 91102 91201;
0140066330999992011010302004+47383+008083FM-12+038799999V0201801N000519999999N9999999N1-00431-00571102611ADDMA1999999097711MD1619999+9999OA149900151REMSYN088AAXX  03024 06633 33/// /1801 11043 21057 39771 40261 56/// 333 55300 20000 91103 91202;
0157066330999992011010303004+47383+008083FM-12+038799999V0201501N000512200019N0120001N1-00511-00601102641ADDAY101031AY201031GA1001+999999999GF100991001001999999001001MA1999999097721MW1101REMSYN066AAXX  03034 06633 41/62 01501 11051 21060 39772 40264 5//// 71000;
0140066330999992011010304004+47383+008083FM-12+038799999V0201501N000519999999N9999999N1-00561-00641102661ADDMA1999999097731MD1210021+9999OA149900151REMSYN088AAXX  03044 06633 33/// /1501 11056 21064 39773 40266 52002 333 55300 20000 91103 91201;
0140066330999992011010305004+47383+008083FM-12+038799999V0201601N000519999999N9999999N1-00591-00681102661ADDMA1999999097721MD1210011+9999OA149900101REMSYN088AAXX  03054 06633 33/// /1601 11059 21068 39772 40266 52001 333 55300 20000 91102 91201;
0314066330999992011010306004+47383+008083FM-12+038799999V0201801N000512200019N0100001N1-00561-00711102651ADDAL19900091AY101061AY201061GA1001+999999999GF100991001001999999001001GJ100009IA1019IA2999-00909KA1999N-00611MA1999999097721MD1710011+9999MW1101OA149900261REMSYN130AAXX  03064 06633 31/60 01801 11056 21071 39772 40265 57000 71000 333 21061 30109 55000 55300 20000 70000 90768 93100 91105 91203;EQDQ01+000002APC3  
0140066330999992011010307004+47383+008083FM-12+038799999V0209999C000019999999N9999999N1-00621-00751102651ADDMA1999999097711MD1810021+9999OA149900151REMSYN088AAXX  03074 06633 33/// /0000 11062 21075 39771 40265 58002 333 55300 20000 91103 91202;
0140066330999992011010308004+47383+008083FM-12+038799999V0200701N000519999999N9999999N1-00611-00751102681ADDMA1999999097741MD1219999+9999OA149900151REMSYN088AAXX  03084 06633 33/// /0701 11061 21075 39774 40268 52/// 333 55300 20032 91103 91201;
0173066330999992011010309004+47383+008083FM-12+038799999V0201201N000512200019N0180001N1-00441-00721102651ADDAY101031AY201031GA1001+999999999GF100991001001999999001001MA1999999097741MW1101REMSYN082AAXX  03094 06633 31/68 01201 11044 21072 39774 40265 5//// 71000 333 553// 20274;
0140066330999992011010310004+47383+008083FM-12+038799999V0200801N002119999999N9999999N1-00231-00571102611ADDMA1999999097741MD1210031+9999OA149900411REMSYN088AAXX  03104 06633 33/// /0804 11023 21057 39774 40261 52003 333 553// 20572 91108 91204;
0140066330999992011010311004+47383+008083FM-12+038799999V0200601N002119999999N9999999N1-00171-00541102571ADDMA1999999097711MD1810031+9999OA149900411REMSYN088AAXX  03114 06633 33/// /0604 11017 21054 39771 40257 58003 333 553// 2//// 91108 91205;
0188066330999992011010312004+47383+008083FM-12+038799999V0200701N001512200019N0190001N1-00091-00491102481ADDGA1011+014401081GF101991999999012501999999MA1999999097641MD1710101+9999OA149900411REMSYN094AAXX  03124 06633 32669 10703 11009 21049 39764 40248 57010 333 553// 2//// 81848 91108 91205;
0140066330999992011010313004+47383+008083FM-12+038799999V0200501N002119999999N9999999N1-00061-00541102441ADDMA1999999097611MD1610131+9999OA149900461REMSYN088AAXX  03134 06633 33/// /0504 11006 21054 39761 40244 56013 333 553// 2//// 91109 91204;
0103066330999992011010314004+47383+008083FM-12+038799999V0200601N002119999999N9999999N1-00041-00521102441ADDMA1999999097611REMSYN076AAXX  03144 06633 33/// /0604 11004 21052 39761 40244 5//// 333 553// 20871;
0145066330999992011010315004+47383+008083FM-12+038799999V0200501N001512200019N0190001N1-00071-00531102421ADDGA1001+999999999GF100991001001999999001001MA1999999097591REMSYN076AAXX  03154 06633 32/69 00503 11007 21053 39759 40242 5//// 333 553// 20472;
0140066330999992011010316004+47383+008083FM-12+038799999V0200501N001019999999N9999999N1-00131-00571102421ADDMA1999999097581MD1810031+9999OA149900361REMSYN088AAXX  03164 06633 33/// /0502 11013 21057 39758 40242 58003 333 55302 20068 91107 91204;
0140066330999992011010317004+47383+008083FM-12+038799999V0209999C000019999999N9999999N1-00251-00541102421ADDMA1999999097561MD1810051+9999OA149900261REMSYN088AAXX  03174 06633 33/// /0000 11025 21054 39756 40242 58005 333 55300 20000 91105 91203;
0235066330999992011010318004+47383+008083FM-12+038799999V0201101N000512200019N0150001N1-00361-00551102451ADDAL19900091GA1001+999999999GF100991001001999999001001IA1019KA1120M-00021MA1999999097571MD1510021+9999OA149900511REMSYN112AAXX  03184 06633 32/65 01101 11036 21055 39757 40245 55002 333 11002 30/// 55300 20000 90766 93100 91110 91205;
0140066330999992011010319004+47383+008083FM-12+038799999V0201701N000519999999N9999999N1-00441-00581102451ADDMA1999999097551MD1710031+9999OA149900151REMSYN088AAXX  03194 06633 33/// /1701 11044 21058 39755 40245 57003 333 55300 20000 91103 91202;
0140066330999992011010320004+47383+008083FM-12+038799999V0201701N000519999999N9999999N1-00531-00661102441ADDMA1999999097531MD1710031+9999OA149900151REMSYN088AAXX  03204 06633 33/// /1701 11053 21066 39753 40244 57003 333 55300 20000 91103 91202;
0216066330999992011010321004+47383+008083FM-12+038799999V0201701N001012200019N0100001N1-00501-00661102421ADDAY101031AY201031GA1021+045001031GF102991999999999999999999MA1999999097511MD1710061+9999MW1101OA149900261REMSYN100AAXX  03214 06633 31960 21702 11050 21066 39751 40242 57006 71000 333 55300 20000 82365 91105 91203;
0140066330999992011010322004+47383+008083FM-12+038799999V0201701N000519999999N9999999N1-00531-00671102421ADDMA1999999097511MD1710041+9999OA149900211REMSYN088AAXX  03224 06633 33/// /1701 11053 21067 39751 40242 57004 333 55300 20000 91104 91202;
0140066330999992011010323004+47383+008083FM-12+038799999V0201901N001019999999N9999999N1-00521-00691102421ADDMA1999999097511MD1510021+9999OA149900211REMSYN088AAXX  03234 06633 33/// /1902 11052 21069 39751 40242 55002 333 55300 20000 91104 91202;
0216066330999992011010400004+47383+008083FM-12+038799999V0201701N000512200019N0060001N1-00561-00681102421ADDAY101061AY201061GA1021+045001031GF103991999999999999999999MA1999999097501MD1710011+9999MW1101OA149900511REMSYN100AAXX  04004 06633 31956 31701 11056 21068 39750 40242 57001 71000 333 55300 20000 82365 91110 91204;
0140066330999992011010401004+47383+008083FM-12+038799999V0201801N000519999999N9999999N1-00611-00731102401ADDMA1999999097471MD1810041+9999OA149900151REMSYN088AAXX  04014 06633 33/// /1801 11061 21073 39747 40240 58004 333 55300 20000 91103 91202;
0140066330999992011010402004+47383+008083FM-12+038799999V0209999C000019999999N9999999N1-00641-00741102381ADDMA1999999097451MD1719999+9999OA149900151REMSYN088AAXX  04024 06633 33/// /0000 11064 21074 39745 40238 57/// 333 55300 20000 91103 91201;
0216066330999992011010403004+47383+008083FM-12+038799999V0201801N000512200019N0060001N1-00631-00731102351ADDAY101031AY201031GA1021+042001031GF104991999999999999999999MA1999999097421MD1710081+9999MW1101OA149900211REMSYN100AAXX  04034 06633 31956 41801 11063 21073 39742 40235 57008 71000 333 55300 20000 82364 91104 91202;
0140066330999992011010404004+47383+008083FM-12+038799999V0201701N000519999999N9999999N1-00521-00641102301ADDMA1999999097391MD1710081+9999OA149900151REMSYN088AAXX  04044 06633 33/// /1701 11052 21064 39739 40230 57008 333 55300 20000 91103 91201;
0140066330999992011010405004+47383+008083FM-12+038799999V0209999C000019999999N9999999N1-00611-00701102271ADDMA1999999097351MD1710101+9999OA149900151REMSYN088AAXX  04054 06633 33/// /0000 11061 21070 39735 40227 57010 333 55300 20000 91103 91202;
0301066330999992011010406004+47383+008083FM-12+038799999V0209999C000019999999N0050001N1-00611-00711102231ADDAL19900091AY111061AY211061GA1041+042001031GF106991999999999999999999GJ104029IA1149IA2999-00909KA1999N-00641MA1999999097311MD1710111+9999MW1101OA149900211REMSYN136AAXX  04064 06633 31950 60000 11061 21071 39731 40223 57011 71011 333 21064 34109 55067 55300 20000 70000 84364 90768 93100 91104 91202;
0140066330999992011010407004+47383+008083FM-12+038799999V0202501N000519999999N9999999N1-00581-00711102191ADDMA1999999097281MD1710111+9999OA149900101REMSYN088AAXX  04074 06633 33/// /2501 11058 21071 39728 40219 57011 333 55300 20000 91102 91201;
0140066330999992011010408004+47383+008083FM-12+038799999V0201401N000519999999N9999999N1-00501-00621102201ADDMA1999999097301MD1519999+9999OA149900151REMSYN088AAXX  04084 06633 33/// /1401 11050 21062 39730 40220 55/// 333 55300 20007 91103 91202;
0163066330999992011010409004+47383+008083FM-12+038799999V0209999C000019999999N0020001N1-00471-00631102191ADDAY121031AY221031GF108991999999002501999999MA1999999097301MW1101REMSYN088AAXX  04094 06633 31320 80000 11047 21063 39730 40219 5//// 71022 333 553// 20065 86708;
0140066330999992011010410004+47383+008083FM-12+038799999V0200901N000519999999N9999999N1-00391-00631102201ADDMA1999999097321MD1310041+9999OA149900211REMSYN088AAXX  04104 06633 33/// /0901 11039 21063 39732 40220 53004 333 55300 20230 91104 91201;
0140066330999992011010411004+47383+008083FM-12+038799999V0200801N001019999999N9999999N1-00321-00561102121ADDMA1999999097261MD1810041+9999OA149900211REMSYN088AAXX  04114 06633 33/// /0802 11032 21056 39726 40212 58004 333 55300 20472 91104 91203;
0188066330999992011010412004+47383+008083FM-12+038799999V0200201N00101001201CN0045001N1-00281-00501102041ADDGA1081+001201071GF108991999999001501999999MA1999999097191MD1810111+9999OA149900211REMSYN094AAXX  04124 06633 32245 80202 11028 21050 39719 40204 58011 333 55300 20392 88704 91104 91203;
0140066330999992011010413004+47383+008083FM-12+038799999V0200201N001019999999N9999999N1-00251-00501101971ADDMA1999999097131MD1710191+9999OA149900211REMSYN088AAXX  04134 06633 33/// /0202 11025 21050 39713 40197 57019 333 55300 20382 91104 91202;
0103066330999992011010414004+47383+008083FM-12+038799999V0200601N001019999999N9999999N1-00231-00501101941ADDMA1999999097101REMSYN076AAXX  04144 06633 33/// /0602 11023 21050 39710 40194 5//// 333 553// 20331;
0139066330999992011010415004+47383+008083FM-12+038799999V0200501N001010027019N0060001N1-00221-00511101901ADDGA1081+002701071GF108991999999002501999999MA1999999097071REMSYN070AAXX  04154 06633 42356 80502 11022 21051 39707 40190 5//// 333 88709;
0140066330999992011010416004+47383+008083FM-12+038799999V0200101N000519999999N9999999N1-00211-00491101911ADDMA1999999097081MD1710051+9999OA149900151REMSYN088AAXX  04164 06633 33/// /0101 11021 21049 39708 40191 57005 333 55300 20029 91103 91202;
0140066330999992011010417004+47383+008083FM-12+038799999V0200201N000519999999N9999999N1-00221-00481101911ADDMA1999999097081MD1510021+9999OA149900151REMSYN088AAXX  04174 06633 33/// /0201 11022 21048 39708 40191 55002 333 55300 20000 91103 91202;
0269066330999992011010418004+47383+008083FM-12+038799999V0200201N00051002701CN0060001N1-00211-00461101911ADDAL19900091AY121061AY221061GA1081+002701071GF108991999999002501999999IA1149KA1120M-00201MA1999999097081MD1510011+9999MW1101OA149900211REMSYN124AAXX  04184 06633 31356 80201 11021 21046 39708 40191 55001 71022 333 11020 34/// 55300 20000 88709 90766 93100 91104 91203;
0140066330999992011010419004+47383+008083FM-12+038799999V0200301N000519999999N9999999N1-00231-00431101941ADDMA1999999097101MD1210021+9999OA149900101REMSYN088AAXX  04194 06633 33/// /0301 11023 21043 39710 40194 52002 333 55300 20000 91102 91201;
0140066330999992011010420004+47383+008083FM-12+038799999V0200401N000519999999N9999999N1-00221-00451101901ADDMA1999999097071MD1810011+9999OA149900151REMSYN088AAXX  04204 06633 33/// /0401 11022 21045 39707 40190 58001 333 55300 20000 91103 91201;
0216066330999992011010421004+47383+008083FM-12+038799999V0203501N00101002401CN0050001N1-00231-00561101881ADDAY121031AY221031GA1081+002401071GF108991999999002501999999MA1999999097051MD1710031+9999MW1101OA149900261REMSYN100AAXX  04214 06633 31350 83502 11023 21056 39705 40188 57003 71022 333 55300 20000 88708 91105 91202;
0140066330999992011010422004+47383+008083FM-12+038799999V0203101N001019999999N9999999N1-00241-00561101891ADDMA1999999097051MD1710051+9999OA149900261REMSYN088AAXX  04224 06633 33/// /3102 11024 21056 39705 40189 57005 333 55300 20000 91105 91203;
0140066330999992011010423004+47383+008083FM-12+038799999V0201101N000519999999N9999999N1-00241-00541101891ADDMA1999999097051MD1510021+9999OA149900261REMSYN088AAXX  04234 06633 33/// /1101 11024 21054 39705 40189 55002 333 55300 20000 91105 91203;
0216066330999992011010500004+47383+008083FM-12+038799999V0200701N00051002401CN0050001N1-00251-00531101861ADDAY121061AY221061GA1081+002401071GF108991999999002501999999MA1999999097021MD1710031+9999MW1101OA149900261REMSYN100AAXX  05004 06633 31350 80701 11025 21053 39702 40186 57003 71022 333 55300 20000 88708 91105 91203;
0140066330999992011010501004+47383+008083FM-12+038799999V0200601N000519999999N9999999N1-00271-00531101851ADDMA1999999097011MD1710041+9999OA149900101REMSYN088AAXX  05014 06633 33/// /0601 11027 21053 39701 40185 57004 333 55300 20000 91102 91201;
0140066330999992011010502004+47383+008083FM-12+038799999V0200401N000519999999N9999999N1-00271-00511101851ADDMA1999999097011MD1710041+9999OA149900101REMSYN088AAXX  05024 06633 33/// /0401 11027 21051 39701 40185 57004 333 55300 20000 91102 91201;
0167066330999992011010503004+47383+008083FM-12+038799999V0209999C000010024019N0040001N1-00271-00501101841ADDAY121031AY221031GA1081+002401071GF108991999999002501999999MA1999999097001MW1101REMSYN076AAXX  05034 06633 41340 80000 11027 21050 39700 40184 5//// 71022 333 88708;
0140066330999992011010504004+47383+008083FM-12+038799999V0209999C000019999999N9999999N1-00261-00481101801ADDMA1999999096961MD1710051+9999OA149900101REMSYN088AAXX  05044 06633 33/// /0000 11026 21048 39696 40180 57005 333 55300 20000 91102 91201;
0140066330999992011010505004+47383+008083FM-12+038799999V0209999C000019999999N9999999N1-00261-00511101761ADDMA1999999096931MD1710081+9999OA149900101REMSYN088AAXX  05054 06633 33/// /0000 11026 21051 39693 40176 57008 333 55300 20000 91102 91201;
0301066330999992011010506004+47383+008083FM-12+038799999V0200701N00051003301CN0040001N1-00271-00501101771ADDAL19900091AY121061AY221061GA1081+003301071GF108991999999004501999999GJ100009IA1149IA2999-00309KA1999N-00281MA1999999096931MD1710071+9999MW1101OA149900261REMSYN136AAXX  05064 06633 31440 80701 11027 21050 39693 40177 57007 71022 333 21028 34103 55000 55300 20000 70000 88711 90768 93100 91105 91203;
0140066330999992011010507004+47383+008083FM-12+038799999V0209999C000019999999N9999999N1-00271-00471101781ADDMA1999999096941MD1710021+9999OA149900151REMSYN088AAXX  05074 06633 33/// /0000 11027 21047 39694 40178 57002 333 55300 20000 91103 91201;
0140066330999992011010508004+47383+008083FM-12+038799999V0209999C000019999999N9999999N1-00371-00511101811ADDMA1999999096951MD1219999+9999OA149900151REMSYN088AAXX  05084 06633 33/// /0000 11037 21051 39695 40181 52/// 333 55300 20043 91103 91201;
0238066330999992011010509004+47383+008083FM-12+038799999V0201801N00051036001CN0040001N1-00251-00451101771ADDAY121031AY221031GA1021+003301071GA2031+036001031GF105991999999004501999999MA1999999096941MD1010011+9999MW1101OA149900151REMSYN106AAXX  05094 06633 31440 51801 11025 21045 39694 40177 50001 71022 333 55302 20306 82711 83362 91103 91201;
0140066330999992011010510004+47383+008083FM-12+038799999V0202501N000519999999N9999999N1-00161-00431101711ADDMA1999999096901MD1710041+9999OA149900151REMSYN088AAXX  05104 06633 33/// /2501 11016 21043 39690 40171 57004 333 55309 20554 91103 91202;
0140066330999992011010511004+47383+008083FM-12+038799999V0201601N000519999999N9999999N1+00011-00401101611ADDMA1999999096831MD1710121+9999OA149900211REMSYN088AAXX  05114 06633 33/// /1601 10001 21040 39683 40161 57012 333 553// 2//// 91104 91202;
0163066330999992011010512004+47383+008083FM-12+038799999V0202201N001519999999N0050001N1+00171-00361101471ADDAY121061AY221061GF105991999999004501999999MA1999999096731MW1051REMSYN088AAXX  05124 06633 31450 52203 10017 21036 39673 40147 5//// 70522 333 553// 2//// 85716;
0140066330999992011010513004+47383+008083FM-12+038799999V0202101N003119999999N9999999N1+00261-00331101411ADDMA1999999096681MD1610221+9999OA149900621REMSYN088AAXX  05134 06633 33/// /2106 10026 21033 39668 40141 56022 333 553// 2//// 91112 91207;
0087066330999992011010514004+47383+008083FM-12+038799999V0202301N002619999999N9999999N1+00291-00341101391ADDMA1999999096671REMSYN060AAXX  05144 06633 43/// /2305 10029 21034 39667 40139 5////;
0167066330999992011010515004+47383+008083FM-12+038799999V0202601N001510750019N0070001N1+00241-00401101341ADDAY121031AY221031GA1051+075001011GF105991999999999999999999MA1999999096611MW1051REMSYN076AAXX  05154 06633 41957 52603 10024 21040 39661 40134 5//// 70522 333 85175;
0140066330999992011010516004+47383+008083FM-12+038799999V0202501N000519999999N9999999N1+00021-00361101381ADDMA1999999096611MD1810071+9999OA149900621REMSYN088AAXX  05164 06633 33/// /2501 10002 21036 39661 40138 58007 333 55301 20083 91112 91206;
0140066330999992011010517004+47383+008083FM-12+038799999V0202701N001019999999N9999999N1+00001-00381101391ADDMA1999999096621MD1510051+9999OA149900311REMSYN088AAXX  05174 06633 33/// /2702 10000 21038 39662 40139 55005 333 55300 20000 91106 91203;
0269066330999992011010518004+47383+008083FM-12+038799999V0202201N000512200019N0030001N1-00131-00361101411ADDAL19900091AY111061AY211061GA1041+036001031GF104991999999999999999999IA1019KA1120M+00301MA1999999096621MD1019999+9999MW1101OA149900621REMSYN124AAXX  05184 06633 31930 42201 11013 21036 39662 40141 50/// 71011 333 10030 30/// 55300 20000 84362 90766 93100 91112 91207;
0140066330999992011010519004+47383+008083FM-12+038799999V0201501N000519999999N9999999N1-00171-00361101401ADDMA1999999096601MD1710011+9999OA149900151REMSYN088AAXX  05194 06633 33/// /1501 11017 21036 39660 40140 57001 333 55300 20000 91103 91202;
0140066330999992011010520004+47383+008083FM-12+038799999V0209999C000019999999N9999999N1-00251-00371101361ADDMA1999999096551MD1719999+9999OA149900151REMSYN088AAXX  05204 06633 33/// /0000 11025 21037 39655 40136 57/// 333 55300 20000 91103 91202;
0163066330999992011010521004+47383+008083FM-12+038799999V0201801N000512200019N0035001N1-00251-00401101341ADDAY101031AY201031GF102991999999999999999999MA1999999096531MW1101REMSYN088AAXX  05214 06633 31935 21801 11025 21040 39653 40134 5//// 71000 333 553// 20000 81364;
0140066330999992011010522004+47383+008083FM-12+038799999V0201701N000519999999N9999999N1-00301-00431101331ADDMA1999999096511MD1710091+9999OA149900151REMSYN088AAXX  05224 06633 33/// /1701 11030 21043 39651 40133 57009 333 55300 20000 91103 91201;
0140066330999992011010523004+47383+008083FM-12+038799999V0202201N001019999999N9999999N1-00321-00451101291ADDMA1999999096471MD1719999+9999OA149900211REMSYN088AAXX  05234 06633 33/// /2202 11032 21045 39647 40129 57/// 333 55300 20000 91104 91203;
0167066330999992011010600004+47383+008083FM-12+038799999V0209999C000019999999N0030001N1-00341-00461101241ADDAY111061AY211061GA1041+042001031GF105991999999999999999999MA1999999096421MW1101REMSYN076AAXX  06004 06633 41930 50000 11034 21046 39642 40124 5//// 71011 333 84364;
0087066330999992011010601004+47383+008083FM-12+038799999V0209999C000019999999N9999999N1-00291-00421101161ADDMA1999999096351REMSYN060AAXX  06014 06633 43/// /0000 11029 21042 39635 40116 5////;
0087066330999992011010602004+47383+008083FM-12+038799999V0202901N000519999999N9999999N1-00201-00371101131ADDMA1999999096341REMSYN060AAXX  06024 06633 43/// /2901 11020 21037 39634 40113 5////;
0167066330999992011010603004+47383+008083FM-12+038799999V0209999C000010360019N0035001N1-00181-00351101111ADDAY121031AY221031GA1081+036001041GF108991999999999999999999MA1999999096321MW1101REMSYN076AAXX  06034 06633 41935 80000 11018 21035 39632 40111 5//// 71022 333 88462;
0087066330999992011010604004+47383+008083FM-12+038799999V0202801N001019999999N9999999N1-00101-00341101061ADDMA1999999096291REMSYN060AAXX  06044 06633 43/// /2802 11010 21034 39629 40106 5////;
0087066330999992011010605004+47383+008083FM-12+038799999V0202201N001019999999N9999999N1-00051-00231101011ADDMA1999999096251REMSYN060AAXX  06054 06633 43/// /2202 11005 21023 39625 40101 5////;
0246066330999992011010606004+47383+008083FM-12+038799999V0202601N002610033019N0070001N1+00221-00031100951ADDAL10600091AY161061AY221061GA1081+003301071GF108991999999004501999999GJ103669IA1169IA2999-00609KA1999N-00371MA1999999096241MW1661REMSYN106AAXX  06064 06633 41457 82605 10022 21003 39624 40095 5//// 76662 333 21037 35106 55061 88711 90768 93100;
0087066330999992011010607004+47383+008083FM-12+038799999V0203001N001519999999N9999999N1+00161-00031100971ADDMA1999999096251REMSYN060AAXX  06074 06633 43/// /3003 10016 21003 39625 40097 5////;
0103066330999992011010608004+47383+008083FM-12+038799999V0202601N001019999999N9999999N1+00221+00031100971ADDMA1999999096261REMSYN076AAXX  06084 06633 33/// /2602 10022 20003 39626 40097 5//// 333 553// 20022;
0167066330999992011010609004+47383+008083FM-12+038799999V0202101N002610093019N0180001N1+00421+00081100971ADDAY161031AY221031GA1081+009301061GF108991999999008001999999MA1999999096291MW1021REMSYN076AAXX  06094 06633 41568 82105 10042 20008 39629 40097 5//// 70262 333 88631;
0140066330999992011010610004+47383+008083FM-12+038799999V0202201N002619999999N9999999N1+00481+00121100931ADDMA1999999096261MD1010011+9999OA149900671REMSYN088AAXX  06104 06633 33/// /2205 10048 20012 39626 40093 50001 333 55300 20421 91113 91207;
0140066330999992011010611004+47383+008083FM-12+038799999V0202301N004619999999N9999999N1+00601+00271100891ADDMA1999999096251MD1710011+9999OA149901291REMSYN088AAXX  06114 06633 33/// /2309 10060 20027 39625 40089 57001 333 55303 20734 91125 91209;
0238066330999992011010612004+47383+008083FM-12+038799999V0202101N00621004201CN0160001N1+00631+00321100841ADDAY161061AY221061GA1051+004201061GA2071+027001031GF108991999999004501999999MA1999999096201MD1710091+9999MW1021OA149901291REMSYN106AAXX  06124 06633 31466 82112 10063 20032 39620 40084 57009 70262 333 55300 20248 85614 87359 91125 91212;
0140066330999992011010613004+47383+008083FM-12+038799999V0202101N005119999999N9999999N1+00631+00321100811ADDMA1999999096171MD1710091+9999OA149901181REMSYN088AAXX  06134 06633 33/// /2110 10063 20032 39617 40081 57009 333 55300 20205 91123 91212;
0087066330999992011010614004+47383+008083FM-12+038799999V0202201N003619999999N9999999N1+00691+00331100821ADDMA1999999096191REMSYN060AAXX  06144 06633 43/// /2207 10069 20033 39619 40082 5////;
0173066330999992011010615004+47383+008083FM-12+038799999V0202501N002110054019N0120001N1+00691+00341100831ADDAY121031AY221031GA1061+005401061GF108991999999004501999999MA1999999096201MW1101REMSYN082AAXX  06154 06633 41462 82504 10069 20034 39620 40083 5//// 71022 333 86618 88459;
0140066330999992011010616004+47383+008083FM-12+038799999V0202501N002619999999N9999999N1+00711+00381100831ADDMA1999999096211MD1210041+9999OA149900721REMSYN088AAXX  06164 06633 33/// /2505 10071 20038 39621 40083 52004 333 55300 20018 91114 91208;
0146066330999992011010617004+47383+008083FM-12+038799999V0202101N004619999999N9999999N1+00671+00491100901ADDMA1999999096271MD1210081+9999OA149900721REMSYN094AAXX  06174 06633 23/// /2109 10067 20049 39627 40090 52008 333 55300 20000 69995 91114 91209;
0314066330999992011010618004+47383+008083FM-12+038799999V0202201N00261015001CN0040001N1+00681+00511100931ADDAA112001091AL19900091AY161061AY221061GA1041+003901071GA2081+015001051GF108991999999004501999999IA1119KA1120M+00711MA1999999096301MD1210101+9999MW1211OA149901291REMSYN142AAXX  06184 06633 01440 82205 10068 20051 39630 40093 52010 69992 72162 333 10071 32/// 55300 20000 60005 84713 88550 90766 93100 91125 91212;
0146066330999992011010619004+47383+008083FM-12+038799999V0202101N004119999999N9999999N1+00741+00541100981ADDMA1999999096351MD1210141+9999OA149900881REMSYN094AAXX  06194 06633 23/// /2108 10074 20054 39635 40098 52014 333 55300 20000 69925 91117 91211;
0146066330999992011010620004+47383+008083FM-12+038799999V0202101N002619999999N9999999N1+00701+00531101031ADDMA1999999096401MD1219999+9999OA149900721REMSYN094AAXX  06204 06633 23/// /2105 10070 20053 39640 40103 52/// 333 55300 20000 69925 91114 91208;
0238066330999992011010621004+47383+008083FM-12+038799999V0202001N00571011401CN0050001N1+00721+00501101051ADDAY151031AY221031GA1031+003301071GA2041+011401061GF108991999999004501999999MA1999999096421MD1119999+9999MW1201OA149900881REMSYN106AAXX  06214 06633 31450 82011 10072 20050 39642 40105 51/// 72052 333 55300 20000 83711 84638 91117 91211;
0140066330999992011010622004+47383+008083FM-12+038799999V0202101N004119999999N9999999N1+00721+00521101131ADDMA1999999096491MD1310141+9999OA149900981REMSYN088AAXX  06224 06633 33/// /2108 10072 20052 39649 40113 53014 333 55300 20000 91119 91211;
0109066330999992011010623004+47383+008083FM-12+038799999V0202101N007219999999N9999999N1+00751+00541101131ADDMA1999999096501REMSYN082AAXX  06234 06633 23/// /2114 10075 20054 39650 40113 5//// 333 553// 20000 69915;
0173066330999992011010700004+47383+008083FM-12+038799999V0202101N005719999999N0040001N1+00761+00521101161ADDAY151061AY221061GA1021+003301071GF108991999999004501999999MA1999999096531MW1101REMSYN082AAXX  07004 06633 41440 82111 10076 20052 39653 40116 5//// 71052 333 82711 85628;
0087066330999992011010701004+47383+008083FM-12+038799999V0202101N004619999999N9999999N1+00761+00541101171ADDMA1999999096541REMSYN060AAXX  07014 06633 43/// /2109 10076 20054 39654 40117 5////;
0087066330999992011010702004+47383+008083FM-12+038799999V0202401N002619999999N9999999N1+00781+00551101211ADDMA1999999096581REMSYN060AAXX  07024 06633 43/// /2405 10078 20055 39658 40121 5////;
0173066330999992011010703004+47383+008083FM-12+038799999V0202401N001519999999N0050001N1+00731+00541101241ADDAY151031AY221031GA1031+003301071GF108991999999004501999999MA1999999096601MW1201REMSYN082AAXX  07034 06633 41450 82403 10073 20054 39660 40124 5//// 72052 333 83711 84628;
0146066330999992011010704004+47383+008083FM-12+038799999V0202201N003119999999N9999999N1+00731+00571101281ADDMA1999999096641MD1310101+9999OA149900671REMSYN094AAXX  07044 06633 23/// /2206 10073 20057 39664 40128 53010 333 55300 20000 69925 91113 91206;
0146066330999992011010705004+47383+008083FM-12+038799999V0203201N001019999999N9999999N1+00631+00551101331ADDMA1999999096671MD1110091+9999OA149900671REMSYN094AAXX  07054 06633 23/// /3202 10063 20055 39667 40133 51009 333 55300 20000 69975 91113 91206;
0334066330999992011010706004+47383+008083FM-12+038799999V0209999C00001003301CN0030001N1+00601+00561101371ADDAA112002091AL13600291AL29900091AY161061AY251061GA1081+003301071GF108991999999004501999999GJ100189IA1119IA2999+00509KA1999N+00591MA1999999096701MD1110101+9999MW1581OA149901131REMSYN148AAXX  07064 06633 01430 80000 10060 20056 39670 40137 51010 60022 75865 333 20059 32005 55003 55300 20000 69965 70026 88711 90768 93100 91122 91214;
0146066330999992011010707004+47383+008083FM-12+038799999V0200501N000519999999N9999999N1+00571+00541101371ADDMA1999999096701MD1210061+9999OA149900261REMSYN094AAXX  07074 06633 23/// /0501 10057 20054 39670 40137 52006 333 55300 20000 69935 91105 91203;
0103066330999992011010708004+47383+008083FM-12+038799999V0202301N000519999999N9999999N1+00581+00521101391ADDMA1999999096721REMSYN076AAXX  07084 06633 33/// /2301 10058 20052 39672 40139 5//// 333 553// 20011;
0167066330999992011010709004+47383+008083FM-12+038799999V0202501N001010018019N0025001N1+00651+00561101381ADDAY121031AY221031GA1071+001801071GF107991999999001501999999MA1999999096721MW1101REMSYN076AAXX  07094 06633 41225 72502 10065 20056 39672 40138 5//// 71022 333 87706;
0140066330999992011010710004+47383+008083FM-12+038799999V0200301N000519999999N9999999N1+00801+00671101331ADDMA1999999096701MD1010001+9999OA149900261REMSYN088AAXX  07104 06633 33/// /0301 10080 20067 39670 40133 50000 333 55303 20652 91105 91203;
0140066330999992011010711004+47383+008083FM-12+038799999V0202101N000519999999N9999999N1+00891+00661101281ADDMA1999999096671MD1710051+9999OA149900261REMSYN088AAXX  07114 06633 33/// /2101 10089 20066 39667 40128 57005 333 55302 20727 91105 91202;
0261066330999992011010712004+47383+008083FM-12+038799999V0202301N00361027001CN0070001N1+00991+00661101261ADDAA106000391AY121061AY221061GA1021+003301071GA2061+027001031GF107991999999004501999999MA1999999096661MD1710061+9999MW1101OA149900981REMSYN118AAXX  07124 06633 01457 72307 10099 20066 39666 40126 57006 69931 71022 333 55301 20616 60005 82711 86359 91119 91211;
0140066330999992011010713004+47383+008083FM-12+038799999V0202401N003119999999N9999999N1+01041+00661101191ADDMA1999999096601MD1710101+9999OA149900621REMSYN088AAXX  07134 06633 33/// /2406 10104 20066 39660 40119 57010 333 55302 20842 91112 91207;
0087066330999992011010714004+47383+008083FM-12+038799999V0202401N002119999999N9999999N1+01051+00691101191ADDMA1999999096611REMSYN060AAXX  07144 06633 43/// /2404 10105 20069 39661 40119 5////;
0167066330999992011010715004+47383+008083FM-12+038799999V0202601N001510270019N0120001N1+00981+00681101251ADDAY121031AY221031GA1071+027001031GF107991999999999999999999MA1999999096651MW1101REMSYN076AAXX  07154 06633 41962 72603 10098 20068 39665 40125 5//// 71022 333 87359;
0140066330999992011010716004+47383+008083FM-12+038799999V0202101N002119999999N9999999N1+00941+00661101281ADDMA1999999096671MD1310071+9999OA149900411REMSYN088AAXX  07164 06633 33/// /2104 10094 20066 39667 40128 53007 333 55300 20022 91108 91205;
0140066330999992011010717004+47383+008083FM-12+038799999V0203001N001019999999N9999999N1+00891+00661101321ADDMA1999999096701MD1210091+9999OA149900411REMSYN088AAXX  07174 06633 33/// /3002 10089 20066 39670 40132 52009 333 55300 20000 91108 91205;
0245066330999992011010718004+47383+008083FM-12+038799999V0202001N00051027001CN0030001N1+00791+00631101341ADDAA112000391AY121061AY221061GA1081+027001031GF108991999999999999999999IA1099KA1120M+01091MA1999999096711MW1101REMSYN124AAXX  07184 06633 01930 82001 10079 20063 39671 40134 5//// 69932 71022 333 10109 31/// 553// 20000 60005 88359 90766 93100;
0140066330999992011010719004+47383+008083FM-12+038799999V0209999C000019999999N9999999N1+00741+00621101351ADDMA1999999096711MD1219999+9999OA149900211REMSYN088AAXX  07194 06633 33/// /0000 10074 20062 39671 40135 52/// 333 55300 20000 91104 91202;
0087066330999992011010720004+47383+008083FM-12+038799999V0201801N000519999999N9999999N1+00641+00561101341ADDMA1999999096681REMSYN060AAXX  07204 06633 43/// /1801 10064 20056 39668 40134 5////;
0167066330999992011010721004+47383+008083FM-12+038799999V0202001N000510360019N0035001N1+00611+00551101341ADDAY121031AY221031GA1081+036001031GF108991999999999999999999MA1999999096681MW1101REMSYN076AAXX  07214 06633 41935 82001 10061 20055 39668 40134 5//// 71022 333 88362;
0140066330999992011010722004+47383+008083FM-12+038799999V0203201N000519999999N9999999N1+00591+00521101371ADDMA1999999096701MD1510011+9999OA149900211REMSYN088AAXX  07224 06633 33/// /3201 10059 20052 39670 40137 55001 333 55300 20000 91104 91201;
0103066330999992011010723004+47383+008083FM-12+038799999V0202101N000519999999N9999999N1+00611+00521101411ADDMA1999999096741REMSYN076AAXX  07234 06633 33/// /2101 10061 20052 39674 40141 5//// 333 553// 20000;
0163066330999992011010800004+47383+008083FM-12+038799999V0209999C000019999999N0035001N1+00511+00461101421ADDAY121061AY221061GF108991999999999999999999MA1999999096741MW1101REMSYN088AAXX  08004 06633 31935 80000 10051 20046 39674 40142 5//// 71022 333 553// 20000 88360;
0087066330999992011010801004+47383+008083FM-12+038799999V0202401N001019999999N9999999N1+00591+00511101401ADDMA1999999096731REMSYN060AAXX  08014 06633 43/// /2402 10059 20051 39673 40140 5////;
0087066330999992011010802004+47383+008083FM-12+038799999V0209999C000019999999N9999999N1+00541+00491101421ADDMA1999999096741REMSYN060AAXX  08024 06633 43/// /0000 10054 20049 39674 40142 5////;
0167066330999992011010803004+47383+008083FM-12+038799999V0202601N000510009019N0015001N1+00571+00511101431ADDAY121031AY221031GA1081+000901071GF108991999999000751999999MA1999999096761MW1101REMSYN076AAXX  08034 06633 41115 82601 10057 20051 39676 40143 5//// 71022 333 88703;
0087066330999992011010804004+47383+008083FM-12+038799999V0202501N001019999999N9999999N1+00631+00541101451ADDMA1999999096781REMSYN060AAXX  08044 06633 43/// /2502 10063 20054 39678 40145 5////;
0087066330999992011010805004+47383+008083FM-12+038799999V0202001N000519999999N9999999N1+00601+00551101511ADDMA1999999096841REMSYN060AAXX  08054 06633 43/// /2001 10060 20055 39684 40151 5////;
0246066330999992011010806004+47383+008083FM-12+038799999V0202501N000510012019N0015001N1+00621+00551101531ADDAL10600091AY161061AY221061GA1081+001201071GF108991999999001501999999GJ100729IA1119IA2999+00409KA1999N+00491MA1999999096861MW1211REMSYN106AAXX  08064 06633 41215 82501 10062 20055 39686 40153 5//// 72162 333 20049 32004 55012 88704 90768 93100;
0087066330999992011010807004+47383+008083FM-12+038799999V0202101N002619999999N9999999N1+00641+00531101551ADDMA1999999096881REMSYN060AAXX  08074 06633 43/// /2105 10064 20053 39688 40155 5////;
0109066330999992011010808004+47383+008083FM-12+038799999V0201001N000519999999N9999999N1+00591+00541101561ADDMA1999999096881REMSYN082AAXX  08084 06633 23/// /1001 10059 20054 39688 40156 5//// 333 553// 20032 69915;
0167066330999992011010809004+47383+008083FM-12+038799999V0203301N000510063019N0030001N1+00701+00621101531ADDAY161031AY221031GA1061+006301071GF106991999999008001999999MA1999999096871MW1101REMSYN076AAXX  08094 06633 41530 63301 10070 20062 39687 40153 5//// 71062 333 86721;
0087066330999992011010810004+47383+008083FM-12+038799999V0202101N002619999999N9999999N1+00941+00751101511ADDMA1999999096891REMSYN060AAXX  08104 06633 43/// /2105 10094 20075 39689 40151 5////;
0087066330999992011010811004+47383+008083FM-12+038799999V0202101N002619999999N9999999N1+01051+00751101451ADDMA1999999096851REMSYN060AAXX  08114 06633 43/// /2105 10105 20075 39685 40145 5////;
0167066330999992011010812004+47383+008083FM-12+038799999V0202401N001512200019N0110001N1+01121+00821101401ADDAY161061AY211061GA1021+011401061GF104991999999012501999999MA1999999096821MW1101REMSYN076AAXX  08124 06633 41661 42403 10112 20082 39682 40140 5//// 71061 333 82638;
0087066330999992011010813004+47383+008083FM-12+038799999V0202301N003119999999N9999999N1+01191+00701101331ADDMA1999999096761REMSYN060AAXX  08134 06633 43/// /2306 10119 20070 39676 40133 5////;
0087066330999992011010814004+47383+008083FM-12+038799999V0202401N001519999999N9999999N1+01211+00691101311ADDMA1999999096751REMSYN060AAXX  08144 06633 43/// /2403 10121 20069 39675 40131 5////;
0195066330999992011010815004+47383+008083FM-12+038799999V0202201N001019999999N0140001N1+01151+00691101341ADDAY111031AY211031GA1011+011401081GA2031+051001031GF106991999999012501999999MA1999999096771MW1051REMSYN088AAXX  08154 06633 41664 62202 10115 20069 39677 40134 5//// 70511 333 81838 83367 85177;
0087066330999992011010816004+47383+008083FM-12+038799999V0202201N001519999999N9999999N1+01071+00671101371ADDMA1999999096781REMSYN060AAXX  08164 06633 43/// /2203 10107 20067 39678 40137 5////;
0087066330999992011010817004+47383+008083FM-12+038799999V0209999C000019999999N9999999N1+00911+00691101361ADDMA1999999096751REMSYN060AAXX  08174 06633 43/// /0000 10091 20069 39675 40136 5////;
0201066330999992011010818004+47383+008083FM-12+038799999V0201701N001010450019N0100001N1+00811+00671101391ADDAL10600091AY121061AY221061GA1061+045001031GF106991999999999999999999IA1099MA1999999096761MW1101REMSYN094AAXX  08184 06633 41960 61702 10081 20067 39676 40139 5//// 71022 333 31/// 86365 90766 93100;
0087066330999992011010819004+47383+008083FM-12+038799999V0209999C000019999999N9999999N1+00661+00591101401ADDMA1999999096741REMSYN060AAXX  08194 06633 43/// /0000 10066 20059 39674 40140 5////;
0087066330999992011010820004+47383+008083FM-12+038799999V0202001N000519999999N9999999N1+00561+00501101421ADDMA1999999096741REMSYN060AAXX  08204 06633 43/// /2001 10056 20050 39674 40142 5////;
0167066330999992011010821004+47383+008083FM-12+038799999V0202401N001010420019N0060001N1+00691+00561101371ADDAY121031AY221031GA1061+042001031GF107991999999999999999999MA1999999096721MW1101REMSYN076AAXX  08214 06633 41956 72402 10069 20056 39672 40137 5//// 71022 333 86364;
0087066330999992011010822004+47383+008083FM-12+038799999V0202901N000519999999N9999999N1+00631+00511101371ADDMA1999999096711REMSYN060AAXX  08224 06633 43/// /2901 10063 20051 39671 40137 5////;
0087066330999992011010823004+47383+008083FM-12+038799999V0202601N001519999999N9999999N1+00601+00471101361ADDMA1999999096691REMSYN060AAXX  08234 06633 43/// /2603 10060 20047 39669 40136 5////;
0167066330999992011010900004+47383+008083FM-12+038799999V0209999C000010420019N0070001N1+00491+00421101371ADDAY121061AY221061GA1051+042001031GF105991999999999999999999MA1999999096681MW1101REMSYN076AAXX  09004 06633 41957 50000 10049 20042 39668 40137 5//// 71022 333 85364;
0087066330999992011010901004+47383+008083FM-12+038799999V0202801N001519999999N9999999N1+00531+00401101391ADDMA1999999096711REMSYN060AAXX  09014 06633 43/// /2803 10053 20040 39671 40139 5////;
0087066330999992011010902004+47383+008083FM-12+038799999V0202401N001519999999N9999999N1+00651+00391101371ADDMA1999999096711REMSYN060AAXX  09024 06633 43/// /2403 10065 20039 39671 40137 5////;
0167066330999992011010903004+47383+008083FM-12+038799999V0202301N001010420019N0070001N1+00511+00351101371ADDAY121031AY221031GA1061+042001031GF106991999999999999999999MA1999999096691MW1101REMSYN076AAXX  09034 06633 41957 62302 10051 20035 39669 40137 5//// 71022 333 86364;
0087066330999992011010904004+47383+008083FM-12+038799999V0202701N002119999999N9999999N1+00561+00301101331ADDMA1999999096661REMSYN060AAXX  09044 06633 43/// /2704 10056 20030 39666 40133 5////;
0087066330999992011010905004+47383+008083FM-12+038799999V0202701N001519999999N9999999N1+00481+00271101351ADDMA1999999096661REMSYN060AAXX  09054 06633 43/// /2703 10048 20027 39666 40135 5////;
0215066330999992011010906004+47383+008083FM-12+038799999V0209999C000010450019N0060001N1+00361+00251101371ADDAL10600091AY121061AY221061GA1051+045001031GF106991999999999999999999GJ102829IA1019MA1999999096661MW1101REMSYN100AAXX  09064 06633 41956 60000 10036 20025 39666 40137 5//// 71022 333 30/// 55047 85365 90768 93100;
0087066330999992011010907004+47383+008083FM-12+038799999V0202401N001519999999N9999999N1+00491+00251101381ADDMA1999999096691REMSYN060AAXX  09074 06633 43/// /2403 10049 20025 39669 40138 5////;
0103066330999992011010908004+47383+008083FM-12+038799999V0202801N001519999999N9999999N1+00491+00251101431ADDMA1999999096741REMSYN076AAXX  09084 06633 33/// /2803 10049 20025 39674 40143 5//// 333 553// 20014;
0163066330999992011010909004+47383+008083FM-12+038799999V0202301N001519999999N0060001N1+00531+00261101491ADDAY121031AY221031GF108991999999999999999999MA1999999096811MW1101REMSYN088AAXX  09094 06633 31956 82303 10053 20026 39681 40149 5//// 71022 333 553// 20104 88459;
0140066330999992011010910004+47383+008083FM-12+038799999V0202701N001519999999N9999999N1+00581+00291101531ADDMA1999999096851MD1210161+9999OA149900461REMSYN088AAXX  09104 06633 33/// /2703 10058 20029 39685 40153 52016 333 55300 20187 91109 91205;
0140066330999992011010911004+47383+008083FM-12+038799999V0202901N001519999999N9999999N1+00631+00301101541ADDMA1999999096871MD1210131+9999OA149900411REMSYN088AAXX  09114 06633 33/// /2903 10063 20030 39687 40154 52013 333 55300 20155 91108 91205;
0216066330999992011010912004+47383+008083FM-12+038799999V0202301N00101011401CN0080001N1+00671+00361101521ADDAY121061AY221061GA1081+011401061GF108991999999012501999999MA1999999096861MD1210051+9999MW1101OA149900511REMSYN100AAXX  09124 06633 31658 82302 10067 20036 39686 40152 52005 71022 333 55300 20155 88638 91110 91206;
0140066330999992011010913004+47383+008083FM-12+038799999V0201901N001019999999N9999999N1+00611+00491101511ADDMA1999999096841MD1710011+9999OA149900211REMSYN088AAXX  09134 06633 33/// /1902 10061 20049 39684 40151 57001 333 55300 20086 91104 91202;
0087066330999992011010914004+47383+008083FM-12+038799999V0203501N000519999999N9999999N1+00611+00541101551ADDMA1999999096881REMSYN060AAXX  09144 06633 43/// /3501 10061 20054 39688 40155 5////;
0167066330999992011010915004+47383+008083FM-12+038799999V0203301N001010018019N0028001N1+00611+00561101561ADDAY161031AY221031GA1081+001801071GF108991999999001501999999MA1999999096891MW1631REMSYN076AAXX  09154 06633 41228 83302 10061 20056 39689 40156 5//// 76362 333 88706;
0146066330999992011010916004+47383+008083FM-12+038799999V0202101N002119999999N9999999N1+00671+00581101611ADDMA1999999096941MD1210101+9999OA149900361REMSYN094AAXX  09164 06633 23/// /2104 10067 20058 39694 40161 52010 333 55300 20007 69965 91107 91204;
0146066330999992011010917004+47383+008083FM-12+038799999V0209999C000019999999N9999999N1+00631+00591101671ADDMA1999999096991MD1210111+9999OA149900361REMSYN094AAXX  09174 06633 23/// /0000 10063 20059 39699 40167 52011 333 55300 20000 60015 91107 91204;
0292066330999992011010918004+47383+008083FM-12+038799999V0202001N00101001201CN0026001N1+00701+00601101701ADDAA112005191AL19900091AY161061AY251061GA1081+001201071GF108991999999001501999999IA1119KA1120M+00691MA1999999097031MD1110141+9999MW1631OA149900461REMSYN136AAXX  09184 06633 01226 82002 10070 20060 39703 40170 51014 60052 76365 333 10069 32/// 55300 20000 60015 88704 90766 93100 91109 91205;
0146066330999992011010919004+47383+008083FM-12+038799999V0202501N001519999999N9999999N1+00711+00591101721ADDMA1999999097061MD1110121+9999OA149900361REMSYN094AAXX  09194 06633 23/// /2503 10071 20059 39706 40172 51012 333 55300 20000 69965 91107 91203;
0146066330999992011010920004+47383+008083FM-12+038799999V0202201N002619999999N9999999N1+00681+00551101801ADDMA1999999097131MD1310141+9999OA149900671REMSYN094AAXX  09204 06633 23/// /2205 10068 20055 39713 40180 53014 333 55300 20000 60015 91113 91206;
0222066330999992011010921004+47383+008083FM-12+038799999V0202101N00311001201CN0025001N1+00661+00531101841ADDAY161031AY251031GA1081+001201071GF108991999999001501999999MA1999999097161MD1110131+9999MW1581OA149900671REMSYN106AAXX  09214 06633 21225 82106 10066 20053 39716 40184 51013 75865 333 55300 20000 69945 88704 91113 91206;
0146066330999992011010922004+47383+008083FM-12+038799999V0202201N002619999999N9999999N1+00641+00521101891ADDMA1999999097211MD1110151+9999OA149900511REMSYN094AAXX  09224 06633 23/// /2205 10064 20052 39721 40189 51015 333 55300 20000 60015 91110 91206;
0146066330999992011010923004+47383+008083FM-12+038799999V0202201N002619999999N9999999N1+00611+00451101941ADDMA1999999097251MD1310121+9999OA149900511REMSYN094AAXX  09234 06633 23/// /2205 10061 20045 39725 40194 53012 333 55300 20000 69975 91110 91206;
0239066330999992011011000004+47383+008083FM-12+038799999V0202101N00311001801CN0030001N1+00561+00421101991ADDAA106004191AY161061AY251061GA1081+001801071GF108991999999001501999999MA1999999097291MD1110131+9999MW1581OA149900671REMSYN112AAXX  10004 06633 01230 82106 10056 20042 39729 40199 51013 60041 75865 333 55300 20000 69955 88706 91113 91206;
0146066330999992011011001004+47383+008083FM-12+038799999V0202101N002619999999N9999999N1+00551+00411102031ADDMA1999999097321MD1110111+9999OA149900511REMSYN094AAXX  10014 06633 23/// /2105 10055 20041 39732 40203 51011 333 55300 20000 69985 91110 91206;
0109066330999992011011002004+47383+008083FM-12+038799999V0202101N000519999999N9999999N1+00531+00431102071ADDMA1999999097361REMSYN082AAXX  10024 06633 23/// /2101 10053 20043 39736 40207 5//// 333 553// 20000 69935;
0167066330999992011011003004+47383+008083FM-12+038799999V0202601N000510024019N0030001N1+00511+00381102101ADDAY161031AY251031GA1081+002401071GF108991999999002501999999MA1999999097381MW1581REMSYN076AAXX  10034 06633 41330 82601 10051 20038 39738 40210 5//// 75865 333 88708;
0109066330999992011011004004+47383+008083FM-12+038799999V0202701N001019999999N9999999N1+00441+00291102131ADDMA1999999097401REMSYN082AAXX  10044 06633 23/// /2702 10044 20029 39740 40213 5//// 333 553// 20000 69915;
0146066330999992011011005004+47383+008083FM-12+038799999V0200501N001019999999N9999999N1+00411+00311102171ADDMA1999999097431MD1119999+9999OA149900261REMSYN094AAXX  10054 06633 23/// /0502 10041 20031 39743 40217 51/// 333 55300 20000 69945 91105 91203;
0263066330999992011011006004+47383+008083FM-12+038799999V0200101N001510024019N9999999N1+00381+00221102191ADDAA124010791AL13601091AY151061AY221061GA1081+002401071GF108991999999002501999999GJ100009IA1119IA2999+00309KA1999N+00391MA1999999097451MW1531REMSYN112AAXX  10064 06633 413// 80103 10038 20022 39745 40219 5//// 75352 333 20039 32003 55000 70106 88708 90768 93100;
0140066330999992011011007004+47383+008083FM-12+038799999V0200301N000519999999N9999999N1+00351+00231102231ADDMA1999999097481MD1310081+9999OA149900311REMSYN088AAXX  10074 06633 33/// /0301 10035 20023 39748 40223 53008 333 55300 20000 91106 91203;
0087066330999992011011008004+47383+008083FM-12+038799999V0200601N001019999999N9999999N1+00341+00131102261ADDMA1999999097511REMSYN060AAXX  10084 06633 43/// /0602 10034 20013 39751 40226 5////;
0167066330999992011011009004+47383+008083FM-12+038799999V0200601N001510024019N0030001N1+00341+00151102281ADDAY151031AY221031GA1081+002401071GF108991999999002501999999MA1999999097531MW1101REMSYN076AAXX  10094 06633 41330 80603 10034 20015 39753 40228 5//// 71052 333 88708;
0140066330999992011011010004+47383+008083FM-12+038799999V0200601N001519999999N9999999N1+00351+00171102271ADDMA1999999097521MD1010041+9999OA149900461REMSYN088AAXX  10104 06633 33/// /0603 10035 20017 39752 40227 50004 333 55300 20223 91109 91204;
0140066330999992011011011004+47383+008083FM-12+038799999V0200401N001519999999N9999999N1+00361+00191102251ADDMA1999999097501MD1819999+9999OA149900361REMSYN088AAXX  10114 06633 33/// /0403 10036 20019 39750 40225 58/// 333 55300 20331 91107 91204;
0163066330999992011011012004+47383+008083FM-12+038799999V0200401N001519999999N0060001N1+00381+00191102191ADDAY151061AY221061GF108991999999004501999999MA1999999097451MW1101REMSYN088AAXX  10124 06633 31456 80403 10038 20019 39745 40219 5//// 71052 333 553// 20277 88713;
0093066330999992011011013004+47383+008083FM-12+038799999V0200501N001519999999N9999999N1+00391+00191102151ADDMA1999999097411REMSYN066AAXX  10134 06633 43/// /0503 10039 20019 39741 40215 5//// 91240;
0087066330999992011011014004+47383+008083FM-12+038799999V0200401N001519999999N9999999N1+00371+00181102081ADDMA1999999097341REMSYN060AAXX  10144 06633 43/// /0403 10037 20018 39734 40208 5////;
0173066330999992011011015004+47383+008083FM-12+038799999V0200501N001519999999N0050001N1+00371+00181102061ADDAY121031AY221031GA1031+003301071GF108991999999004501999999MA1999999097321MW1101REMSYN082AAXX  10154 06633 41450 80503 10037 20018 39732 40206 5//// 71022 333 83711 87628;
0087066330999992011011016004+47383+008083FM-12+038799999V0200601N001519999999N9999999N1+00361+00151102031ADDMA1999999097291REMSYN060AAXX  10164 06633 43/// /0603 10036 20015 39729 40203 5////;
0087066330999992011011017004+47383+008083FM-12+038799999V0200401N001519999999N9999999N1+00351+00151102011ADDMA1999999097271REMSYN060AAXX  10174 06633 43/// /0403 10035 20015 39727 40201 5////;
0204066330999992011011018004+47383+008083FM-12+038799999V0200801N000510027019N0045001N1+00331+00181101981ADDAL10600091GA1081+002701071GF108991999999002501999999IA1099KA1120M+00391MA1999999097241MW1101REMSYN100AAXX  10184 06633 41345 80801 10033 20018 39724 40198 5//// 710// 333 10039 31/// 88709 90766 93100;
0087066330999992011011019004+47383+008083FM-12+038799999V0200401N001019999999N9999999N1+00331+00151101961ADDMA1999999097221REMSYN060AAXX  10194 06633 43/// /0402 10033 20015 39722 40196 5////;
0087066330999992011011020004+47383+008083FM-12+038799999V0200601N000519999999N9999999N1+00321+00151101931ADDMA1999999097191REMSYN060AAXX  10204 06633 43/// /0601 10032 20015 39719 40193 5////;
0167066330999992011011021004+47383+008083FM-12+038799999V0200401N000510033019N0050001N1+00311+00151101901ADDAY121031AY221031GA1081+003301071GF108991999999004501999999MA1999999097161MW1101REMSYN076AAXX  10214 06633 41450 80401 10031 20015 39716 40190 5//// 71022 333 88711;
0087066330999992011011022004+47383+008083FM-12+038799999V0201101N001019999999N9999999N1+00291+00161101891ADDMA1999999097151REMSYN060AAXX  10224 06633 43/// /1102 10029 20016 39715 40189 5////;
0087066330999992011011023004+47383+008083FM-12+038799999V0201201N000519999999N9999999N1+00291+00161101841ADDMA1999999097101REMSYN060AAXX  10234 06633 43/// /1201 10029 20016 39710 40184 5////;
0167066330999992011011100004+47383+008083FM-12+038799999V0200601N000510054019N0070001N1+00271+00181101801ADDAY121061AY221061GA1081+005401071GF108991999999004501999999MA1999999097061MW1101REMSYN076AAXX  11004 06633 41457 80601 10027 20018 39706 40180 5//// 71022 333 88718;
0087066330999992011011101004+47383+008083FM-12+038799999V0200901N000519999999N9999999N1+00271+00181101731ADDMA1999999096991REMSYN060AAXX  11014 06633 43/// /0901 10027 20018 39699 40173 5////;
0087066330999992011011102004+47383+008083FM-12+038799999V0201001N001019999999N9999999N1+00271+00191101701ADDMA1999999096961REMSYN060AAXX  11024 06633 43/// /1002 10027 20019 39696 40170 5////;
0167066330999992011011103004+47383+008083FM-12+038799999V0209999C000010033019N0030001N1+00261+00191101661ADDAY121031AY221031GA1081+003301071GF108991999999004501999999MA1999999096921MW1101REMSYN076AAXX  11034 06633 41430 80000 10026 20019 39692 40166 5//// 71022 333 88711;
0087066330999992011011104004+47383+008083FM-12+038799999V0209999C000019999999N9999999N1+00251+00181101611ADDMA1999999096871REMSYN060AAXX  11044 06633 43/// /0000 10025 20018 39687 40161 5////;
0087066330999992011011105004+47383+008083FM-12+038799999V0209999C000019999999N9999999N1+00191+00151101561ADDMA1999999096811REMSYN060AAXX  11054 06633 43/// /0000 10019 20015 39681 40156 5////;
0215066330999992011011106004+47383+008083FM-12+038799999V0209999C000010012019N0015001N1+00231+00191101501ADDAL10600091AY121061AY221061GA1081+001201071GF108991999999001501999999GJ100009IA1019MA1999999096761MW1401REMSYN100AAXX  11064 06633 41215 80000 10023 20019 39676 40150 5//// 74022 333 30/// 55000 88704 90768 93100;
0140066330999992011011107004+47383+008083FM-12+038799999V0203301N000519999999N9999999N1+00231+00181101451ADDMA1999999096721MD1619999+9999OA149900151REMSYN088AAXX  11074 06633 33/// /3301 10023 20018 39672 40145 56/// 333 55300 20000 91103 91201;
0103066330999992011011108004+47383+008083FM-12+038799999V0202101N000519999999N9999999N1+00231+00171101421ADDMA1999999096691REMSYN076AAXX  11084 06633 33/// /2101 10023 20017 39669 40142 5//// 333 553// 20040;
0167066330999992011011109004+47383+008083FM-12+038799999V0200901N000510033019N0015001N1+00301+00211101371ADDAY121031AY221031GA1081+003301071GF108991999999004501999999MA1999999096651MW1401REMSYN076AAXX  11094 06633 41415 80901 10030 20021 39665 40137 5//// 74022 333 88711;
0140066330999992011011110004+47383+008083FM-12+038799999V0209999C000019999999N9999999N1+00441+00251101281ADDMA1999999096591MD1810131+9999OA149900101REMSYN088AAXX  11104 06633 33/// /0000 10044 20025 39659 40128 58013 333 55300 20418 91102 91201;
0140066330999992011011111004+47383+008083FM-12+038799999V0202301N002619999999N9999999N1+00631+00191101181ADDMA1999999096531MD1810161+9999OA149900771REMSYN088AAXX  11114 06633 33/// /2305 10063 20019 39653 40118 58016 333 55304 20893 91115 91207;
0185066330999992011011112004+47383+008083FM-12+038799999V0202201N003119999999N0080001N1+00621+00191101091ADDAY141061AY221061GA1041+008401071GF107991999999008001999999MA1999999096441MW1051REMSYN094AAXX  11124 06633 31558 72206 10062 20019 39644 40109 5//// 70542 333 553// 20637 84728 86364;
0140066330999992011011113004+47383+008083FM-12+038799999V0202301N002619999999N9999999N1+00581+00191101091ADDMA1999999096431MD1710161+9999OA149900881REMSYN088AAXX  11134 06633 33/// /2305 10058 20019 39643 40109 57016 333 55300 20342 91117 91207;
0087066330999992011011114004+47383+008083FM-12+038799999V0202401N004119999999N9999999N1+00531+00251101151ADDMA1999999096481REMSYN060AAXX  11144 06633 43/// /2408 10053 20025 39648 40115 5////;
0167066330999992011011115004+47383+008083FM-12+038799999V0202201N003110033019N0030001N1+00441+00281101241ADDAY161031AY221031GA1081+003301051GF108991999999004501999999MA1999999096551MW1631REMSYN076AAXX  11154 06633 41430 82206 10044 20028 39655 40124 5//// 76362 333 88511;
0146066330999992011011116004+47383+008083FM-12+038799999V0202201N003119999999N9999999N1+00391+00241101341ADDMA1999999096641MD1310211+9999OA149900931REMSYN094AAXX  11164 06633 23/// /2206 10039 20024 39664 40134 53021 333 55300 20007 69995 91118 91208;
0146066330999992011011117004+47383+008083FM-12+038799999V0202101N004119999999N9999999N1+00331+00171101431ADDMA1999999096711MD1310221+9999OA149900881REMSYN094AAXX  11174 06633 23/// /2108 10033 20017 39671 40143 53022 333 55300 20000 60015 91117 91208;
0292066330999992011011118004+47383+008083FM-12+038799999V0202201N00261004201CN0050001N1+00381+00201101481ADDAA112004191AL19900091AY161061AY251061GA1061+004201061GF106991999999004501999999IA1119KA1120M+00631MA1999999096771MD1110221+9999MW1211OA149900981REMSYN136AAXX  11184 06633 01450 62205 10038 20020 39677 40148 51022 60042 72165 333 10063 32/// 55300 20000 60005 86614 90766 93100 91119 91208;
0146066330999992011011119004+47383+008083FM-12+038799999V0202201N002619999999N9999999N1+00401+00261101581ADDMA1999999096871MD1310231+9999OA149900721REMSYN094AAXX  11194 06633 23/// /2205 10040 20026 39687 40158 53023 333 55300 20000 69915 91114 91208;
0140066330999992011011120004+47383+008083FM-12+038799999V0202301N002119999999N9999999N1+00421+00281101651ADDMA1999999096941MD1110231+9999OA149900671REMSYN088AAXX  11204 06633 33/// /2304 10042 20028 39694 40165 51023 333 55300 20000 91113 91207;
0216066330999992011011121004+47383+008083FM-12+038799999V0202401N00261006301CN0040001N1+00471+00311101741ADDAY161031AY221031GA1081+006301061GF108991999999008001999999MA1999999097031MD1310261+9999MW1101OA149900881REMSYN100AAXX  11214 06633 31540 82405 10047 20031 39703 40174 53026 71062 333 55300 20000 88621 91117 91208;
0146066330999992011011122004+47383+008083FM-12+038799999V0202301N002119999999N9999999N1+00481+00331101831ADDMA1999999097121MD1310251+9999OA149900621REMSYN094AAXX  11224 06633 23/// /2304 10048 20033 39712 40183 53025 333 55300 20000 69915 91112 91205;
0140066330999992011011123004+47383+008083FM-12+038799999V0202201N002619999999N9999999N1+00501+00321101881ADDMA1999999097171MD1110231+9999OA149900621REMSYN088AAXX  11234 06633 33/// /2205 10050 20032 39717 40188 51023 333 55300 20000 91112 91205;
0239066330999992011011200004+47383+008083FM-12+038799999V0202201N00311008401CN0070001N1+00491+00321101901ADDAA106000021AY161061AY221061GA1081+008401061GF108991999999008001999999MA1999999097191MD1210161+9999MW1101OA149900981REMSYN112AAXX  12004 06633 01557 82206 10049 20032 39719 40190 52016 69921 71062 333 55300 20000 60005 88628 91119 91208;
0146066330999992011011201004+47383+008083FM-12+038799999V0202401N003119999999N9999999N1+00511+00321101941ADDMA1999999097231MD1210111+9999OA149900721REMSYN094AAXX  12014 06633 23/// /2406 10051 20032 39723 40194 52011 333 55300 20000 69915 91114 91206;
0103066330999992011011202004+47383+008083FM-12+038799999V0202301N003119999999N9999999N1+00531+00341102041ADDMA1999999097331REMSYN076AAXX  12024 06633 33/// /2306 10053 20034 39733 40204 5//// 333 553// 20000;
0167066330999992011011203004+47383+008083FM-12+038799999V0202301N002610063019N0040001N1+00511+00371102121ADDAY161031AY251031GA1081+006301061GF108991999999008001999999MA1999999097401MW1581REMSYN076AAXX  12034 06633 41540 82305 10051 20037 39740 40212 5//// 75865 333 88621;
0087066330999992011011204004+47383+008083FM-12+038799999V0202401N003619999999N9999999N1+00501+00381102171ADDMA1999999097451REMSYN060AAXX  12044 06633 43/// /2407 10050 20038 39745 40217 5////;
0109066330999992011011205004+47383+008083FM-12+038799999V0202301N001519999999N9999999N1+00491+00381102271ADDMA1999999097541REMSYN082AAXX  12054 06633 23/// /2303 10049 20038 39754 40227 5//// 333 553// 20000 69945;
0263066330999992011011206004+47383+008083FM-12+038799999V0202601N001510114019N0030001N1+00501+00361102351ADDAA124005191AL19900591AY161061AY251061GA1081+011401071GF108991999999012501999999GJ100249IA1119IA2999+00309KA1999N+00361MA1999999097621MW1101REMSYN112AAXX  12064 06633 41630 82603 10050 20036 39762 40235 5//// 71065 333 20036 32003 55004 70050 88738 90768 93100;
0140066330999992011011207004+47383+008083FM-12+038799999V0202601N001019999999N9999999N1+00481+00361102391ADDMA1999999097661MD1210211+9999OA149900311REMSYN088AAXX  12074 06633 33/// /2602 10048 20036 39766 40239 52021 333 55300 20000 91106 91203;
0087066330999992011011208004+47383+008083FM-12+038799999V0202201N001519999999N9999999N1+00471+00361102381ADDMA1999999097641REMSYN060AAXX  12084 06633 43/// /2203 10047 20036 39764 40238 5////;
0167066330999992011011209004+47383+008083FM-12+038799999V0201901N001010054019N0130001N1+00521+00381102411ADDAY121031AY221031GA1081+005401071GF108991999999004501999999MA1999999097681MW1101REMSYN076AAXX  12094 06633 41463 81902 10052 20038 39768 40241 5//// 71022 333 88718;
0140066330999992011011210004+47383+008083FM-12+038799999V0202101N001519999999N9999999N1+00581+00371102401ADDMA1999999097681MD1219999+9999OA149900311REMSYN088AAXX  12104 06633 33/// /2103 10058 20037 39768 40240 52/// 333 55300 20360 91106 91204;
0117066330999992011011211004+47383+008083FM-12+038799999V0202301N001019999999N9999999N1+00591+00391102391ADDMA1999999097671MD1010031+9999REMSYN076AAXX  12114 06633 33/// /2302 10059 20039 39767 40239 50003 333 55300 20306;
0167066330999992011011212004+47383+008083FM-12+038799999V0202301N001510054019N0060001N1+00621+00351102341ADDAY161061AY251061GA1081+005401071GF108991999999004501999999MA1999999097631MW1101REMSYN076AAXX  12124 06633 41456 82303 10062 20035 39763 40234 5//// 71065 333 88718;
0087066330999992011011213004+47383+008083FM-12+038799999V0202401N001519999999N9999999N1+00631+00341102321ADDMA1999999097611REMSYN060AAXX  12134 06633 43/// /2403 10063 20034 39761 40232 5////;
0087066330999992011011214004+47383+008083FM-12+038799999V0202201N002119999999N9999999N1+00601+00351102341ADDMA1999999097631REMSYN060AAXX  12144 06633 43/// /2204 10060 20035 39763 40234 5////;
0167066330999992011011215004+47383+008083FM-12+038799999V0202401N003610033019N0050001N1+00541+00311102351ADDAY161031AY251031GA1081+003301071GF108991999999004501999999MA1999999097631MW1591REMSYN076AAXX  12154 06633 41450 82407 10054 20031 39763 40235 5//// 75965 333 88711;
0146066330999992011011216004+47383+008083FM-12+038799999V0202401N001519999999N9999999N1+00541+00341102321ADDMA1999999097601MD1819999+9999OA149900881REMSYN094AAXX  12164 06633 23/// /2403 10054 20034 39760 40232 58/// 333 55300 20022 69915 91117 91207;
0146066330999992011011217004+47383+008083FM-12+038799999V0202201N003619999999N9999999N1+00561+00341102311ADDMA1999999097591MD1710041+9999OA149900981REMSYN094AAXX  12174 06633 23/// /2207 10056 20034 39759 40231 57004 333 55300 20000 69925 91119 91208;
0292066330999992011011218004+47383+008083FM-12+038799999V0202101N00511006301CN0060001N1+00531+00331102311ADDAA112002091AL19900091AY161061AY251061GA1081+006301051GF108991999999008001999999IA1119KA1120M+00641MA1999999097591MD1710041+9999MW1591OA149900981REMSYN136AAXX  12184 06633 01556 82110 10053 20033 39759 40231 57004 60022 75965 333 10064 32/// 55300 20000 69945 88521 90766 93100 91119 91210;
0146066330999992011011219004+47383+008083FM-12+038799999V0202101N004119999999N9999999N1+00561+00311102301ADDMA1999999097581MD1719999+9999OA149900981REMSYN094AAXX  12194 06633 23/// /2108 10056 20031 39758 40230 57/// 333 55300 20000 69925 91119 91210;
0146066330999992011011220004+47383+008083FM-12+038799999V0202201N004119999999N9999999N1+00561+00361102301ADDMA1999999097581MD1510011+9999OA149900981REMSYN094AAXX  12204 06633 23/// /2208 10056 20036 39758 40230 55001 333 55300 20000 69945 91119 91210;
0222066330999992011011221004+47383+008083FM-12+038799999V0202201N00461004201CN0040001N1+00601+00351102291ADDAY161031AY251031GA1081+004201051GF108991999999004501999999MA1999999097581MD1510011+9999MW1601OA149900981REMSYN106AAXX  12214 06633 21440 82209 10060 20035 39758 40229 55001 76065 333 55300 20000 69925 88514 91119 91210;
0146066330999992011011222004+47383+008083FM-12+038799999V0202301N005719999999N9999999N1+00611+00381102291ADDMA1999999097581MD1010001+9999OA149901291REMSYN094AAXX  12224 06633 23/// /2311 10061 20038 39758 40229 50000 333 55300 20000 69985 91125 91212;
0146066330999992011011223004+47383+008083FM-12+038799999V0202301N005119999999N9999999N1+00581+00441102311ADDMA1999999097601MD1210021+9999OA149901441REMSYN094AAXX  12234 06633 23/// /2310 10058 20044 39760 40231 52002 333 55300 20000 60025 91128 91212;
0239066330999992011011300004+47383+008083FM-12+038799999V0202301N00461003301CN0030001N1+00581+00431102281ADDAA106007191AY161061AY251061GA1081+003301051GF108991999999004501999999MA1999999097571MD1710011+9999MW1631OA149901441REMSYN112AAXX  13004 06633 01430 82309 10058 20043 39757 40228 57001 60071 76365 333 55300 20000 60035 88511 91128 91212;
0146066330999992011011301004+47383+008083FM-12+038799999V0202301N004619999999N9999999N1+00591+00451102231ADDMA1999999097521MD1810061+9999OA149901131REMSYN094AAXX  13014 06633 23/// /2309 10059 20045 39752 40223 58006 333 55300 20000 60025 91122 91210;
0146066330999992011011302004+47383+008083FM-12+038799999V0202301N005119999999N9999999N1+00631+00471102231ADDMA1999999097531MD1719999+9999OA149901241REMSYN094AAXX  13024 06633 23/// /2310 10063 20047 39753 40223 57/// 333 55300 20000 60015 91124 91210;
0167066330999992011011303004+47383+008083FM-12+038799999V0202301N004110042019N0030001N1+00671+00531102191ADDAY161031AY221031GA1081+004201051GF108991999999004501999999MA1999999097501MW1631REMSYN076AAXX  13034 06633 41430 82308 10067 20053 39750 40219 5//// 76362 333 88514;
0146066330999992011011304004+47383+008083FM-12+038799999V0202301N004619999999N9999999N1+00691+00561102161ADDMA1999999097471MD1719999+9999OA149901181REMSYN094AAXX  13044 06633 23/// /2309 10069 20056 39747 40216 57/// 333 55300 20000 60025 91123 91211;
0109066330999992011011305004+47383+008083FM-12+038799999V0202201N004119999999N9999999N1+00721+00601102181ADDMA1999999097501REMSYN082AAXX  13054 06633 23/// /2208 10072 20060 39750 40218 5//// 333 553// 20000 60035;
0334066330999992011011306004+47383+008083FM-12+038799999V0202301N00361004201CN0030001N1+00751+00601102201ADDAA112017091AL14801891AL29900091AY161061AY251061GA1081+004201051GF108991999999004501999999GJ100009IA1119IA2999+00409KA1999N+00531MA1999999097521MD1310021+9999MW1201OA149901441REMSYN148AAXX  13064 06633 01430 82307 10075 20060 39752 40220 53002 60172 72065 333 20053 32004 55000 55300 20000 69955 70189 88514 90768 93100 91128 91212;
0087066330999992011011307004+47383+008083FM-12+038799999V0202301N003619999999N9999999N1+00781+00601102181ADDMA1999999097511REMSYN060AAXX  13074 06633 43/// /2307 10078 20060 39751 40218 5////;
0087066330999992011011308004+47383+008083FM-12+038799999V0202201N003619999999N9999999N1+00791+00641102201ADDMA1999999097531REMSYN060AAXX  13084 06633 43/// /2207 10079 20064 39753 40220 5////;
0167066330999992011011309004+47383+008083FM-12+038799999V0202201N003110012019N0020001N1+00801+00661102211ADDAY161031AY221031GA1081+001201071GF108991999999001501999999MA1999999097541MW1631REMSYN076AAXX  13094 06633 41220 82206 10080 20066 39754 40221 5//// 76362 333 88704;
0087066330999992011011310004+47383+008083FM-12+038799999V0202301N004119999999N9999999N1+00841+00671102251ADDMA1999999097581REMSYN060AAXX  13104 06633 43/// /2308 10084 20067 39758 40225 5////;
0087066330999992011011311004+47383+008083FM-12+038799999V0202301N002619999999N9999999N1+00921+00721102211ADDMA1999999097561REMSYN060AAXX  13114 06633 43/// /2305 10092 20072 39756 40221 5////;
0173066330999992011011312004+47383+008083FM-12+038799999V0202401N003110063019N0140001N1+01001+00731102161ADDAY161061AY221061GA1051+006301061GF108991999999008001999999MA1999999097521MW1101REMSYN082AAXX  13124 06633 41564 82406 10100 20073 39752 40216 5//// 71062 333 85621 83457;
0087066330999992011011313004+47383+008083FM-12+038799999V0202301N003619999999N9999999N1+01041+00751102091ADDMA1999999097461REMSYN060AAXX  13134 06633 43/// /2307 10104 20075 39746 40209 5////;
0087066330999992011011314004+47383+008083FM-12+038799999V0202401N004619999999N9999999N1+01111+00721102111ADDMA1999999097491REMSYN060AAXX  13144 06633 43/// /2409 10111 20072 39749 40211 5////;
0139066330999992011011315004+47383+008083FM-12+038799999V0202401N003619999999N0200001N1+01091+00711102111ADDGA1041+010201061GF106991999999012501999999MA1999999097491REMSYN070AAXX  13154 06633 42670 62407 10109 20071 39749 40211 5//// 333 84634;
0087066330999992011011316004+47383+008083FM-12+038799999V0202301N002619999999N9999999N1+01061+00741102121ADDMA1999999097501REMSYN060AAXX  13164 06633 43/// /2305 10106 20074 39750 40212 5////;
0146066330999992011011317004+47383+008083FM-12+038799999V0202301N002119999999N9999999N1+00981+00811102161ADDMA1999999097521MD1210031+9999OA149900721REMSYN094AAXX  13174 06633 23/// /2304 10098 20081 39752 40216 52003 333 55300 20000 69985 91114 91207;
0292066330999992011011318004+47383+008083FM-12+038799999V0202301N00311001201CN0040001N1+00981+00811102171ADDAA112006191AL19900091AY161061AY221061GA1081+001201071GF108991999999001501999999IA1119KA1120M+01131MA1999999097531MD1210051+9999MW1631OA149901241REMSYN136AAXX  13184 06633 01240 82306 10098 20081 39753 40217 52005 60062 76362 333 10113 32/// 55300 20000 60025 88704 90766 93100 91124 91210;
0146066330999992011011319004+47383+008083FM-12+038799999V0202901N001019999999N9999999N1+00961+00841102161ADDMA1999999097521MD1010021+9999OA149900721REMSYN094AAXX  13194 06633 23/// /2902 10096 20084 39752 40216 50002 333 55300 20000 69945 91114 91207;
0146066330999992011011320004+47383+008083FM-12+038799999V0202501N001019999999N9999999N1+00971+00841102141ADDMA1999999097501MD1810021+9999OA149900571REMSYN094AAXX  13204 06633 23/// /2502 10097 20084 39750 40214 58002 333 55300 20000 69935 91111 91206;
0216066330999992011011321004+47383+008083FM-12+038799999V0202401N00051004201CN0040001N1+00891+00821102141ADDAY161031AY251031GA1081+004201071GF108991999999004501999999MA1999999097491MD1810041+9999MW1101OA149900721REMSYN100AAXX  13214 06633 31440 82401 10089 20082 39749 40214 58004 71065 333 55300 20000 88714 91114 91207;
0140066330999992011011322004+47383+008083FM-12+038799999V0202301N001019999999N9999999N1+00961+00771102151ADDMA1999999097511MD1510011+9999OA149900311REMSYN088AAXX  13224 06633 33/// /2302 10096 20077 39751 40215 55001 333 55300 20000 91106 91203;
0140066330999992011011323004+47383+008083FM-12+038799999V0202201N000519999999N9999999N1+00851+00781102181ADDMA1999999097521MD1310021+9999OA149900261REMSYN088AAXX  13234 06633 33/// /2201 10085 20078 39752 40218 53002 333 55300 20000 91105 91202;
0239066330999992011011400004+47383+008083FM-12+038799999V0202301N00151006301CN0100001N1+00941+00721102171ADDAA106000891AY161061AY251061GA1081+006301071GF108991999999008001999999MA1999999097521MD1210031+9999MW1501OA149901241REMSYN112AAXX  14004 06633 01560 82303 10094 20072 39752 40217 52003 69971 75065 333 55300 20000 60005 88721 91124 91210;
0140066330999992011011401004+47383+008083FM-12+038799999V0202301N001019999999N9999999N1+00851+00741102201ADDMA1999999097541MD1310031+9999OA149900511REMSYN088AAXX  14014 06633 33/// /2302 10085 20074 39754 40220 53003 333 55300 20000 91110 91206;
0109066330999992011011402004+47383+008083FM-12+038799999V0202301N001019999999N9999999N1+00861+00731102251ADDMA1999999097591REMSYN082AAXX  14024 06633 23/// /2302 10086 20073 39759 40225 5//// 333 553// 20000 69915;
0216066330999992011011403004+47383+008083FM-12+038799999V0203001N00101027001CN0150001N1+00831+00721102251ADDAY151031AY221031GA1051+027001031GF105991999999999999999999MA1999999097581MD1210061+9999MW1011OA149900511REMSYN100AAXX  14034 06633 31965 53002 10083 20072 39758 40225 52006 70152 333 55300 20000 85359 91110 91206;
0140066330999992011011404004+47383+008083FM-12+038799999V0202701N000519999999N9999999N1+00751+00691102261ADDMA1999999097581MD1010041+9999OA149900261REMSYN088AAXX  14044 06633 33/// /2701 10075 20069 39758 40226 50004 333 55300 20000 91105 91203;
0140066330999992011011405004+47383+008083FM-12+038799999V0201801N000519999999N9999999N1+00711+00651102271ADDMA1999999097581MD1710011+9999OA149900211REMSYN088AAXX  14054 06633 33/// /1801 10071 20065 39758 40227 57001 333 55300 20000 91104 91202;
0334066330999992011011406004+47383+008083FM-12+038799999V0203001N00051011401CN0080001N1+00721+00651102281ADDAA112000891AL14800691AL29900091AY151061AY221061GA1081+011401061GF108991999999012501999999GJ100189IA1119IA2999+00409KA1999N+00671MA1999999097591MD1510011+9999MW1101OA149900571REMSYN148AAXX  14064 06633 01658 83001 10072 20065 39759 40228 55001 69982 71052 333 20067 32004 55003 55300 20000 60005 70069 88638 90768 93100 91111 91206;
0140066330999992011011407004+47383+008083FM-12+038799999V0203301N000519999999N9999999N1+00781+00671102271ADDMA1999999097591MD1210011+9999OA149900261REMSYN088AAXX  14074 06633 33/// /3301 10078 20067 39759 40227 52001 333 55300 20000 91105 91203;
0087066330999992011011408004+47383+008083FM-12+038799999V0202601N000519999999N9999999N1+00831+00681102291ADDMA1999999097621REMSYN060AAXX  14084 06633 43/// /2601 10083 20068 39762 40229 5////;
0167066330999992011011409004+47383+008083FM-12+038799999V0203001N001010042019N0040001N1+00861+00691102231ADDAY121031AY221031GA1081+004201071GF108991999999004501999999MA1999999097571MW1101REMSYN076AAXX  14094 06633 41440 83002 10086 20069 39757 40223 5//// 71022 333 88714;
0087066330999992011011410004+47383+008083FM-12+038799999V0202901N001019999999N9999999N1+00941+00701102231ADDMA1999999097581REMSYN060AAXX  14104 06633 43/// /2902 10094 20070 39758 40223 5////;
0140066330999992011011411004+47383+008083FM-12+038799999V0202301N001019999999N9999999N1+01011+00681102211ADDMA1999999097571MD1710051+9999OA149900311REMSYN088AAXX  14114 06633 33/// /2302 10101 20068 39757 40221 57005 333 55300 20353 91106 91204;
0188066330999992011011412004+47383+008083FM-12+038799999V0201901N00151011401CN0180001N1+01041+00671102131ADDGA1081+011401061GF108991999999012501999999MA1999999097501MD1710071+9999OA149900311REMSYN094AAXX  14124 06633 32668 81903 10104 20067 39750 40213 57007 333 55300 20342 88638 91106 91204;
0140066330999992011011413004+47383+008083FM-12+038799999V0201901N001519999999N9999999N1+01041+00661102081ADDMA1999999097451MD1710131+9999OA149900261REMSYN088AAXX  14134 06633 33/// /1903 10104 20066 39745 40208 57013 333 55300 20227 91105 91203;
0103066330999992011011414004+47383+008083FM-12+038799999V0202101N001019999999N9999999N1+01041+00681102071ADDMA1999999097441REMSYN076AAXX  14144 06633 33/// /2102 10104 20068 39744 40207 5//// 333 553// 20162;
0188066330999992011011415004+47383+008083FM-12+038799999V0201901N00101011401CN0180001N1+01041+00651102041ADDGA1061+011401061GF107991999999012501999999MA1999999097421MD1710081+9999OA149900311REMSYN094AAXX  14154 06633 32668 71902 10104 20065 39742 40204 57008 333 55300 20158 86638 91106 91204;
0140066330999992011011416004+47383+008083FM-12+038799999V0209999C000019999999N9999999N1+00941+00721102051ADDMA1999999097411MD1710041+9999OA149900151REMSYN088AAXX  14164 06633 33/// /0000 10094 20072 39741 40205 57004 333 55300 20086 91103 91202;
0140066330999992011011417004+47383+008083FM-12+038799999V0201501N000519999999N9999999N1+00691+00611102061ADDMA1999999097381MD1710061+9999OA149900151REMSYN088AAXX  14174 06633 33/// /1501 10069 20061 39738 40206 57006 333 55300 20000 91103 91202;
0291066330999992011011418004+47383+008083FM-12+038799999V0201801N001019999999N0060001N1+00651+00581102041ADDAL19900091AY121061AY221061GA1011+012301061GA2031+045001031GF105991999999012501999999IA1119KA1120M+01051MA1999999097351MD1810071+9999MW1101OA149900311REMSYN130AAXX  14184 06633 31656 51802 10065 20058 39735 40204 58007 71022 333 10105 32/// 55300 20000 81641 83365 90766 93100 91106 91204;
0140066330999992011011419004+47383+008083FM-12+038799999V0209999C000019999999N9999999N1+00501+00441102081ADDMA1999999097361MD1710051+9999OA149900211REMSYN088AAXX  14194 06633 33/// /0000 10050 20044 39736 40208 57005 333 55300 20000 91104 91202;
0159066330999992011011420004+47383+008083FM-12+038799999V0209999C000019999999N9999999N1+00421+00381102111ADDMA1999999097381MD1310051+9999OA149900151REMSYN088AAXX  14204 06633 33/// /0000 10042 20038 39738 40211 53000 333 55300 20000 91103 91202;EQDQ01+000002APC3  
0216066330999992011011421004+47383+008083FM-12+038799999V0201501N000512200019N0120001N1+00381+00321102171ADDAY111031AY211031GA1021+045001031GF102991999999999999999999MA1999999097431MD1310081+9999MW1101OA149900211REMSYN100AAXX  14214 06633 31962 21501 10038 20032 39743 40217 53008 71011 333 55300 20000 82365 91104 91202;
0140066330999992011011422004+47383+008083FM-12+038799999V0202801N001019999999N9999999N1+00531+00411102231ADDMA1999999097511MD1210151+9999OA149900361REMSYN088AAXX  14224 06633 33/// /2802 10053 20041 39751 40223 52015 333 55300 20000 91107 91203;
0140066330999992011011423004+47383+008083FM-12+038799999V0203001N000519999999N9999999N1+00511+00441102311ADDMA1999999097581MD1210201+9999OA149900361REMSYN088AAXX  14234 06633 33/// /3001 10051 20044 39758 40231 52020 333 55300 20000 91107 91203;
0188066330999992011011500004+47383+008083FM-12+038799999V0202301N00261006301CN0150001N1+00771+00471102301ADDGA1081+006301071GF108991999999008001999999MA1999999097621MD1210191+9999OA149900621REMSYN094AAXX  15004 06633 32565 82305 10077 20047 39762 40230 52019 333 55300 20000 88721 91112 91207;
0146066330999992011011501004+47383+008083FM-12+038799999V0202101N001519999999N9999999N1+00721+00571102401ADDMA1999999097711MD1210201+9999OA149900671REMSYN094AAXX  15014 06633 23/// /2103 10072 20057 39771 40240 52020 333 55300 20000 60025 91113 91207;
0146066330999992011011502004+47383+008083FM-12+038799999V0202101N003619999999N9999999N1+00751+00571102461ADDMA1999999097771MD1219999+9999OA149900671REMSYN094AAXX  15024 06633 23/// /2107 10075 20057 39777 40246 52/// 333 55300 20000 69915 91113 91207;
0169066330999992011011503004+47383+008083FM-12+038799999V0202201N001019999999N0120001N1+00731+00621102571ADDAY161031AY251031GF108991999999008001999999MA1999999097871MW1211REMSYN094AAXX  15034 06633 21562 82202 10073 20062 39787 40257 5//// 72165 333 553// 20000 69935 88628;
0140066330999992011011504004+47383+008083FM-12+038799999V0202801N003119999999N9999999N1+00821+00461102631ADDMA1999999097941MD1210231+9999OA149900621REMSYN088AAXX  15044 06633 33/// /2806 10082 20046 39794 40263 52023 333 55300 20000 91112 91207;
0140066330999992011011505004+47383+008083FM-12+038799999V0201901N002119999999N9999999N1+00681+00461102741ADDMA1999999098021MD1210251+9999OA149900621REMSYN088AAXX  15054 06633 33/// /1904 10068 20046 39802 40274 52025 333 55300 20000 91112 91206;
0334066330999992011011506004+47383+008083FM-12+038799999V0202101N00211009301CN0090001N1+00691+00391102811ADDAA112002091AL19900291AL29900091AY161061AY251061GA1081+009301061GF108991999999008001999999GJ100009IA1119IA2999+00009KA1999N+00311MA1999999098091MD1210221+9999MW1501OA149900671REMSYN148AAXX  15064 06633 01559 82104 10069 20039 39809 40281 52022 60022 75065 333 20031 32000 55000 55300 20000 60005 70020 88631 90768 93100 91113 91207;
0140066330999992011011507004+47383+008083FM-12+038799999V0202701N000519999999N9999999N1+00561+00411102891ADDMA1999999098151MD1210211+9999OA149900511REMSYN088AAXX  15074 06633 33/// /2701 10056 20041 39815 40289 52021 333 55300 20000 91110 91206;
0140066330999992011011508004+47383+008083FM-12+038799999V0202201N001019999999N9999999N1+00481+00401102911ADDMA1999999098151MD1019999+9999OA149900311REMSYN088AAXX  15084 06633 33/// /2202 10048 20040 39815 40291 50/// 333 55300 20040 91106 91203;
0216066330999992011011509004+47383+008083FM-12+038799999V0209999C000012200019N0170001N1+00601+00421102951ADDAY151031AY211031GA1011+087001001GF101991999999999999999999MA1999999098211MD1210121+9999MW1011OA149900621REMSYN100AAXX  15094 06633 31967 10000 10060 20042 39821 40295 52012 70151 333 55305 20306 81079 91112 91206;
0140066330999992011011510004+47383+008083FM-12+038799999V0201201N000519999999N9999999N1+00801+00491102921ADDMA1999999098221MD1210071+9999OA149900151REMSYN088AAXX  15104 06633 33/// /1201 10080 20049 39822 40292 52007 333 553// 20785 91103 91202;
0140066330999992011011511004+47383+008083FM-12+038799999V0202301N001019999999N9999999N1+00941+00411102861ADDMA1999999098181MD1010031+9999OA149900211REMSYN088AAXX  15114 06633 33/// /2302 10094 20041 39818 40286 50003 333 55307 20936 91104 91202;
0238066330999992011011512004+47383+008083FM-12+038799999V0201801N00051075001CN0230001N1+01041+00341102791ADDAY151061AY211061GA1041+011401081GA2051+075001001GF107991999999012501999999MA1999999098131MD1710081+9999MW1031OA149900671REMSYN106AAXX  15124 06633 31673 71801 10104 20034 39813 40279 57008 70351 333 553// 2//// 84838 85075 91113 91207;
0103066330999992011011513004+47383+008083FM-12+038799999V0209999C000019999999N9999999N1+01021+00361102751ADDMA1999999098091REMSYN076AAXX  15134 06633 33/// /0000 10102 20036 39809 40275 5//// 333 553// 20828;
0087066330999992011011514004+47383+008083FM-12+038799999V0209999C000019999999N9999999N1+01051+00301102791ADDMA1999999098131REMSYN060AAXX  15144 06633 43/// /0000 10105 20030 39813 40279 5////;
0145066330999992011011515004+47383+008083FM-12+038799999V0209999C000019999999N0230001N1+01051+00301102801ADDGA1031+011401061GF107991999999012501999999MA1999999098141REMSYN076AAXX  15154 06633 42673 70000 10105 20030 39814 40280 5//// 333 83638 86074;
0087066330999992011011516004+47383+008083FM-12+038799999V0209999C000019999999N9999999N1+00801+00431102881ADDMA1999999098181REMSYN060AAXX  15164 06633 43/// /0000 10080 20043 39818 40288 5////;
0103066330999992011011517004+47383+008083FM-12+038799999V0201501N000519999999N9999999N1+00551+00401102921ADDMA1999999098171REMSYN076AAXX  15174 06633 33/// /1501 10055 20040 39817 40292 5//// 333 553// 20000;
0192066330999992011011518004+47383+008083FM-12+038799999V0202001N000510720019N0160001N1+00481+00361102981ADDAL10600091GA1071+072001001GF107991999999999999999999IA1099KA1120M+01111MA1999999098221REMSYN094AAXX  15184 06633 42966 72001 10048 20036 39822 40298 5//// 333 10111 31/// 87074 90766 93100;
0087066330999992011011519004+47383+008083FM-12+038799999V0201501N000519999999N9999999N1+00331+00291103011ADDMA1999999098221REMSYN060AAXX  15194 06633 43/// /1501 10033 20029 39822 40301 5////;
0087066330999992011011520004+47383+008083FM-12+038799999V0201401N000519999999N9999999N1+00321+00261103041ADDMA1999999098251REMSYN060AAXX  15204 06633 43/// /1401 10032 20026 39825 40304 5////;
0188066330999992011011521004+47383+008083FM-12+038799999V0202701N000512200019N0150001N1+00311+00241103011ADDGA1031+045001031GF103991999999999999999999MA1999999098221MD1010001+9999OA149900211REMSYN094AAXX  15214 06633 32965 32701 10031 20024 39822 40301 50000 333 55300 20000 83365 91104 91203;
0140066330999992011011522004+47383+008083FM-12+038799999V0201701N001019999999N9999999N1+00241+00171103051ADDMA1999999098241MD1210021+9999OA149900151REMSYN088AAXX  15224 06633 33/// /1702 10024 20017 39824 40305 52002 333 55300 20000 91103 91202;
0140066330999992011011523004+47383+008083FM-12+038799999V0201701N000519999999N9999999N1+00181+00141103041ADDMA1999999098221MD1710031+9999OA149900151REMSYN088AAXX  15234 06633 33/// /1701 10018 20014 39822 40304 57003 333 55300 20000 91103 91202;
0210066330999992011011600004+47383+008083FM-12+038799999V0201401N000512200019N0008001N1+00091+00071103031ADDAY141061AY211061GA1001+999999999GF100991001001999999001001MA1999999098201MD1810021+9999MW1461OA149900261REMSYN094AAXX  16004 06633 31/08 01401 10009 20007 39820 40303 58002 74641 333 55300 20000 91105 91203;
0140066330999992011011601004+47383+008083FM-12+038799999V0209999C000019999999N9999999N1+00091+00051103011ADDMA1999999098181MD1710061+9999OA149900151REMSYN088AAXX  16014 06633 33/// /0000 10009 20005 39818 40301 57006 333 55300 20000 91103 91201;
0140066330999992011011602004+47383+008083FM-12+038799999V0209999C000019999999N9999999N1+00041+00011103021ADDMA1999999098181MD1719999+9999OA149900101REMSYN088AAXX  16024 06633 33/// /0000 10004 20001 39818 40302 57/// 333 55300 20000 91102 91201;
0157066330999992011011603004+47383+008083FM-12+038799999V0200701N000510001519N0001001N1-00041-00041103031ADDAY141031AY201031GA1091+999999999GF109991091999999999999999MA1999999098181MW1471REMSYN066AAXX  16034 06633 41/01 90701 11004 21004 39818 40303 5//// 74740;
0140066330999992011011604004+47383+008083FM-12+038799999V0201901N000519999999N9999999N1+00011+00011103031ADDMA1999999098181MD1410001+9999OA149900101REMSYN088AAXX  16044 06633 33/// /1901 10001 20001 39818 40303 54000 333 55300 20000 91102 91201;
0140066330999992011011605004+47383+008083FM-12+038799999V0202301N000519999999N9999999N1+00081+00081103011ADDMA1999999098181MD1510001+9999OA149900151REMSYN088AAXX  16054 06633 33/// /2301 10008 20008 39818 40301 55000 333 55300 20000 91103 91201;
0295066330999992011011606004+47383+008083FM-12+038799999V0202001N000510003019N0005001N1+00071+00051103041ADDAL19900091AY141061AY241061GA1091+999999999GF109991091999999999999999GJ102709IA1099IA2999-00309KA1999N-00041MA1999999098201MD1210021+9999MW1471OA149900151REMSYN130AAXX  16064 06633 31/05 92001 10007 20005 39820 40304 52002 74744 333 21004 31103 55045 55300 20000 70000 90768 93100 91103 91202;
0140066330999992011011607004+47383+008083FM-12+038799999V0201801N001019999999N9999999N1+00041+00011103091ADDMA1999999098251MD1210071+9999OA149900211REMSYN088AAXX  16074 06633 33/// /1802 10004 20001 39825 40309 52007 333 55300 20000 91104 91203;
0140066330999992011011608004+47383+008083FM-12+038799999V0201901N001519999999N9999999N1+00061+00031103131ADDMA1999999098291MD1219999+9999OA149900211REMSYN088AAXX  16084 06633 33/// /1903 10006 20003 39829 40313 52/// 333 55300 20029 91104 91203;
0210066330999992011011609004+47383+008083FM-12+038799999V0202801N001010006019N0006001N1+00061+00031103151ADDAY141031AY241031GA1091+999999999GF109991091999999999999999MA1999999098311MD1210111+9999MW1431OA149900261REMSYN094AAXX  16094 06633 31/06 92802 10006 20003 39831 40315 52011 74344 333 55300 20166 91105 91203;
0140066330999992011011610004+47383+008083FM-12+038799999V0201901N000519999999N9999999N1+00121+00091103141ADDMA1999999098311MD1210061+9999OA149900261REMSYN088AAXX  16104 06633 33/// /1901 10012 20009 39831 40314 52006 333 55300 20374 91105 91203;
0140066330999992011011611004+47383+008083FM-12+038799999V0203001N001019999999N9999999N1+00201+00151103101ADDMA1999999098281MD1810011+9999OA149900211REMSYN088AAXX  16114 06633 33/// /3002 10020 20015 39828 40310 58001 333 55300 20475 91104 91203;
0216066330999992011011612004+47383+008083FM-12+038799999V0202301N00101000301CN0020001N1+00371+00251102981ADDAY141061AY221061GA1071+000301071GF107991999999000251999999MA1999999098201MD1710111+9999MW1101OA149900261REMSYN100AAXX  16124 06633 31020 72302 10037 20025 39820 40298 57011 71042 333 55303 20774 87701 91105 91203;
0140066330999992011011613004+47383+008083FM-12+038799999V0203401N001019999999N9999999N1+00551+00231102871ADDMA1999999098131MD1810181+9999OA149900151REMSYN088AAXX  16134 06633 33/// /3402 10055 20023 39813 40287 58018 333 553// 2//// 91103 91202;
0140066330999992011011614004+47383+008083FM-12+038799999V0203001N001019999999N9999999N1+00701+00221102821ADDMA1999999098101MD1619999+9999OA149900211REMSYN088AAXX  16144 06633 33/// /3002 10070 20022 39810 40282 56/// 333 553// 2//// 91104 91202;
0210066330999992011011615004+47383+008083FM-12+038799999V0202401N001012200019N0120001N1+00731+00271102781ADDAY111031AY211031GA1001+999999999GF100991001001999999001001MA1999999098071MD1610131+9999MW1051OA149900211REMSYN094AAXX  16154 06633 31/62 02402 10073 20027 39807 40278 56013 70511 333 553// 20630 91104 91203;
0140066330999992011011616004+47383+008083FM-12+038799999V0202301N001019999999N9999999N1+00421+00231102841ADDMA1999999098071MD1710061+9999OA149900151REMSYN088AAXX  16164 06633 33/// /2302 10042 20023 39807 40284 57006 333 55305 20155 91103 91202;
0140066330999992011011617004+47383+008083FM-12+038799999V0209999C000019999999N9999999N1+00291+00191102881ADDMA1999999098091MD1510011+9999OA149900151REMSYN088AAXX  16174 06633 33/// /0000 10029 20019 39809 40288 55001 333 55300 20000 91103 91202;
0263066330999992011011618004+47383+008083FM-12+038799999V0209999C000012200019N0030001N1+00211+00151102921ADDAL19900091AY111061AY211061GA1001+999999999GF100991001001999999001001IA1019KA1120M+00731MA1999999098111MD1210041+9999MW1101OA149900261REMSYN118AAXX  16184 06633 31/30 00000 10021 20015 39811 40292 52004 71011 333 10073 30/// 55300 20000 90766 93100 91105 91203;
0140066330999992011011619004+47383+008083FM-12+038799999V0209999C000019999999N9999999N1+00041+00041102981ADDMA1999999098141MD1210071+9999OA149900211REMSYN088AAXX  16194 06633 33/// /0000 10004 20004 39814 40298 52007 333 55300 20000 91104 91202;
0140066330999992011011620004+47383+008083FM-12+038799999V0209999C000019999999N9999999N1+00041+00001102981ADDMA1999999098141MD1210051+9999OA149900151REMSYN088AAXX  16204 06633 33/// /0000 10004 20000 39814 40298 52005 333 55300 20000 91103 91202;
0210066330999992011011621004+47383+008083FM-12+038799999V0209999C000012200019N0015001N1+00021-00021103021ADDAY101031AY201031GA1001+999999999GF100991001001999999001001MA1999999098181MD1210071+9999MW1101OA149900211REMSYN094AAXX  16214 06633 31/15 00000 10002 21002 39818 40302 52007 71000 333 55300 20000 91104 91202;
0140066330999992011011622004+47383+008083FM-12+038799999V0209999C000019999999N9999999N1-00031-00071103041ADDMA1999999098191MD1210051+9999OA149900101REMSYN088AAXX  16224 06633 33/// /0000 11003 21007 39819 40304 52005 333 55300 20000 91102 91201;
0140066330999992011011623004+47383+008083FM-12+038799999V0209999C000019999999N9999999N1-00071-00091103051ADDMA1999999098191MD1210051+9999OA149900151REMSYN088AAXX  16234 06633 33/// /0000 11007 21009 39819 40305 52005 333 55300 20000 91103 91201;
0210066330999992011011700004+47383+008083FM-12+038799999V0202201N000512200019N0005001N1-00031-00081103051ADDAY141061AY201061GA1001+999999999GF100991001001999999001001MA1999999098201MD1210021+9999MW1461OA149900211REMSYN094AAXX  17004 06633 31/05 02201 11003 21008 39820 40305 52002 74640 333 55300 20000 91104 91202;
0140066330999992011011701004+47383+008083FM-12+038799999V0202301N000519999999N9999999N1-00011-00011103031ADDMA1999999098181MD1710011+9999OA149900151REMSYN088AAXX  17014 06633 33/// /2301 11001 21001 39818 40303 57001 333 55300 20000 91103 91202;
0140066330999992011011702004+47383+008083FM-12+038799999V0202101N001019999999N9999999N1-00011-00011103021ADDMA1999999098171MD1719999+9999OA149900151REMSYN088AAXX  17024 06633 33/// /2102 11001 21001 39817 40302 57/// 333 55300 20000 91103 91202;
