0198066430999992010010100004+47250+007783FM-12+041699999V0209999C000010003019N0002001N1+00371+00371099321ADDAY141061AY241061GA1091+999999999GF109991091999999999999999MA1999999094301MD1810111+9999MW1451OA149900261REMSYN082AAXX  01004 06643 31/02 90000 10037 20037 39430 49932 58011 74544 333 91105 91203;
0128066430999992010010101004+47250+007783FM-12+041699999V0209999C000019999999N9999999N1+00391+00331099281ADDMA1999999094261MD1710111+9999OA149900101REMSYN076AAXX  01014 06643 33/// /0000 10039 20033 39426 49928 57011 333 91102 91202;
0128066430999992010010102004+47250+007783FM-12+041699999V0209999C000019999999N9999999N1+00361+00331099241ADDMA1999999094221MD1719999+9999OA149900151REMSYN076AAXX  01024 06643 33/// /0000 10036 20033 39422 49924 57/// 333 91103 91202;
0157066430999992010010103004+47250+007783FM-12+041699999V0200201N000510003019N0002001N1+00331+00311099191ADDAY141031AY241031GA1091+999999999GF109991091999999999999999MA1999999094171MW1451REMSYN066AAXX  01034 06643 41/02 90201 10033 20031 39417 49919 5//// 74544;
0087066430999992010010104004+47250+007783FM-12+041699999V0203601N001019999999N9999999N1+00331+00301099161ADDMA1999999094141REMSYN060AAXX  01044 06643 33/// /3602 10033 20030 39414 49916 5////;
0128066430999992010010105004+47250+007783FM-12+041699999V0201901N000519999999N9999999N1+00341+00271099141ADDMA1999999094121MD1610101+9999OA149900151REMSYN076AAXX  01054 06643 33/// /1901 10034 20027 39412 49914 56010 333 91103 91203;
0206066430999992010010106004+47250+007783FM-12+041699999V0201101N001019999999N9999999N1+00321+00321099111ADDAA124005891AL14800591GJ100189IA2999+00209KA1999N+00321MA1999999094091MD1810081+9999OA149900211REMSYN100AAXX  01064 06643 33/// /1102 10032 20032 39409 49911 58008 333 20032 3/002 55003 70058 91104 91203;
0128066430999992010010107004+47250+007783FM-12+041699999V0201901N000519999999N9999999N1+00301+00261099111ADDMA1999999094091MD1710051+9999OA149900151REMSYN076AAXX  01074 06643 33/// /1901 10030 20026 39409 49911 57005 333 91103 91202;
0128066430999992010010108004+47250+007783FM-12+041699999V0209999C000019999999N9999999N1+00301+00281099161ADDMA1999999094131MD1310011+9999OA149900101REMSYN076AAXX  01084 06643 33/// /0000 10030 20028 39413 49916 53001 333 91102 91201;
0128066430999992010010109004+47250+007783FM-12+041699999V0209999C000019999999N9999999N1+00351+00301099211ADDMA1999999094191MD1210101+9999OA149900151REMSYN076AAXX  01094 06643 33/// /0000 10035 20030 39419 49921 52010 333 91103 91203;
0128066430999992010010110004+47250+007783FM-12+041699999V0209999C000019999999N9999999N1+00371+00291099271ADDMA1999999094251MD1210161+9999OA149900101REMSYN076AAXX  01104 06643 33/// /0000 10037 20029 39425 49927 52016 333 91102 91201;
0128066430999992010010111004+47250+007783FM-12+041699999V0209999C000019999999N9999999N1+00401+00331099281ADDMA1999999094271MD1110141+9999OA149900151REMSYN076AAXX  01114 06643 33/// /0000 10040 20033 39427 49928 51014 333 91103 91202;
0128066430999992010010112004+47250+007783FM-12+041699999V0202501N000519999999N9999999N1+00431+00361099281ADDMA1999999094271MD1210081+9999OA149900151REMSYN076AAXX  01124 06643 33/// /2501 10043 20036 39427 49928 52008 333 91103 91203;
0128066430999992010010113004+47250+007783FM-12+041699999V0202701N001019999999N9999999N1+00431+00331099321ADDMA1999999094311MD1210061+9999OA149900151REMSYN076AAXX  01134 06643 33/// /2702 10043 20033 39431 49932 52006 333 91103 91202;
0128066430999992010010114004+47250+007783FM-12+041699999V0202701N001019999999N9999999N1+00431+00351099401ADDMA1999999094391MD1319999+9999OA149900151REMSYN076AAXX  01144 06643 33/// /2702 10043 20035 39439 49940 53/// 333 91103 91202;
0145066430999992010010115004+47250+007783FM-12+041699999V0202101N000519999999N9999999N1+00431+00371099511ADDAA101000891MA1999999094491MD1310221+9999OA149900151REMSYN082AAXX  01154 06643 23/// /2101 10043 20037 39449 49951 53022 333 69985 91103 91202;
0145066430999992010010116004+47250+007783FM-12+041699999V0202601N000519999999N9999999N1+00431+00281099651ADDAA101001091MA1999999094621MD1310311+9999OA149900151REMSYN082AAXX  01164 06643 23/// /2601 10043 20028 39462 49965 53031 333 60015 91103 91202;
0145066430999992010010117004+47250+007783FM-12+041699999V0201801N001019999999N9999999N1+00401+00331099801ADDAA101000591MA1999999094761MD1310371+9999OA149900151REMSYN082AAXX  01174 06643 23/// /1802 10040 20033 39476 49980 53037 333 69945 91103 91202;
0170066430999992010010118004+47250+007783FM-12+041699999V0202301N002619999999N9999999N1+00381+00231099991ADDAA112003091KA1120M+00461MA1999999094941MD1310451+9999OA149900461REMSYN094AAXX  01184 06643 03/// /2305 10038 20023 39494 49999 53045 60032 333 10046 69925 91109 91205;
0145066430999992010010119004+47250+007783FM-12+041699999V0202401N003119999999N9999999N1+00261+00081100231ADDAA101000391MA1999999095141MD1210521+9999OA149900721REMSYN082AAXX  01194 06643 23/// /2406 10026 20008 39514 40023 52052 333 69935 91114 91207;
0128066430999992010010120004+47250+007783FM-12+041699999V0202301N003119999999N9999999N1+00161+00041100381ADDMA1999999095271MD1210511+9999OA149900721REMSYN076AAXX  01204 06643 33/// /2306 10016 20004 39527 40038 52051 333 91114 91207;
0128066430999992010010121004+47250+007783FM-12+041699999V0202001N002119999999N9999999N1+00161+00011100511ADDMA1999999095391MD1110451+9999OA149900721REMSYN076AAXX  01214 06643 33/// /2004 10016 20001 39539 40051 51045 333 91114 91207;
0128066430999992010010122004+47250+007783FM-12+041699999V0202501N000519999999N9999999N1+00141-00011100621ADDMA1999999095491MD1110351+9999OA149900361REMSYN076AAXX  01224 06643 33/// /2501 10014 21001 39549 40062 51035 333 91107 91205;
0128066430999992010010123004+47250+007783FM-12+041699999V0202901N002119999999N9999999N1+00081-00311100751ADDMA1999999095601MD1110331+9999OA149900571REMSYN076AAXX  01234 06643 33/// /2904 10008 21031 39560 40075 51033 333 91111 91205;
0151066430999992010010200004+47250+007783FM-12+041699999V0203101N001519999999N9999999N1+00051-00401100851ADDAA106000391MA1999999095691MD1210301+9999OA149900721REMSYN088AAXX  02004 06643 03/// /3103 10005 21040 39569 40085 52030 69931 333 60005 91114 91207;
0128066430999992010010201004+47250+007783FM-12+041699999V0202701N001519999999N9999999N1+00051-00481100961ADDMA1999999095801MD1210311+9999OA149900671REMSYN076AAXX  02014 06643 33/// /2703 10005 21048 39580 40096 52031 333 91113 91206;
0087066430999992010010202004+47250+007783FM-12+041699999V0202801N003619999999N9999999N1+00041-00571101091ADDMA1999999095921REMSYN060AAXX  02024 06643 33/// /2807 10004 21057 39592 40109 5////;
0128066430999992010010203004+47250+007783FM-12+041699999V0202601N003119999999N9999999N1+00021-00721101211ADDMA1999999096031MD1210341+9999OA149900771REMSYN076AAXX  02034 06643 33/// /2606 10002 21072 39603 40121 52034 333 91115 91207;
0128066430999992010010204004+47250+007783FM-12+041699999V0202801N002119999999N9999999N1-00021-00701101301ADDMA1999999096111MD1110311+9999OA149900821REMSYN076AAXX  02044 06643 33/// /2804 11002 21070 39611 40130 51031 333 91116 91207;
0128066430999992010010205004+47250+007783FM-12+041699999V0202601N002119999999N9999999N1-00041-00661101391ADDMA1999999096191MD1210271+9999OA149900821REMSYN076AAXX  02054 06643 33/// /2604 11004 21066 39619 40139 52027 333 91116 91207;
0229066430999992010010206004+47250+007783FM-12+041699999V0203201N003619999999N9999999N1-00111-00671101481ADDAA112000391AA224002891AL14800291GJ100009IA2999-00109KA1999N-00061MA1999999096261MD1110231+9999OA149900821REMSYN112AAXX  02064 06643 03/// /3207 11011 21067 39626 40148 51023 69932 333 21006 3/101 55000 60005 70028 91116 91207;
0128066430999992010010207004+47250+007783FM-12+041699999V0202301N003119999999N9999999N1-00121-00761101581ADDMA1999999096351MD1310241+9999OA149900881REMSYN076AAXX  02074 06643 33/// /2306 11012 21076 39635 40158 53024 333 91117 91207;
0087066430999992010010208004+47250+007783FM-12+041699999V0202701N002619999999N9999999N1-00131-00741101701ADDMA1999999096461REMSYN060AAXX  02084 06643 33/// /2705 11013 21074 39646 40170 5////;
0128066430999992010010209004+47250+007783FM-12+041699999V0202501N002119999999N9999999N1-00131-00601101801ADDMA1999999096561MD1210301+9999OA149900881REMSYN076AAXX  02094 06643 33/// /2504 11013 21060 39656 40180 52030 333 91117 91207;
0128066430999992010010210004+47250+007783FM-12+041699999V0203101N002119999999N9999999N1-00071-00751101871ADDMA1999999096641MD1210291+9999OA149900931REMSYN076AAXX  02104 06643 33/// /3104 11007 21075 39664 40187 52029 333 91118 91208;
0128066430999992010010211004+47250+007783FM-12+041699999V0203001N001519999999N9999999N1-00091-00841101951ADDMA1999999096711MD1110251+9999OA149900931REMSYN076AAXX  02114 06643 33/// /3003 11009 21084 39671 40195 51025 333 91118 91208;
0128066430999992010010212004+47250+007783FM-12+041699999V0203301N002619999999N9999999N1-00081-00971102001ADDMA1999999096761MD1110201+9999OA149900931REMSYN076AAXX  02124 06643 33/// /3305 11008 21097 39676 40200 51020 333 91118 91208;
0128066430999992010010213004+47250+007783FM-12+041699999V0203501N002119999999N9999999N1-00031-00991102061ADDMA1999999096821MD1210181+9999OA149900671REMSYN076AAXX  02134 06643 33/// /3504 11003 21099 39682 40206 52018 333 91113 91206;
0128066430999992010010214004+47250+007783FM-12+041699999V0203401N002119999999N9999999N1-00011-01001102111ADDMA1999999096881MD1319999+9999OA149900511REMSYN076AAXX  02144 06643 33/// /3404 11001 21100 39688 40211 53/// 333 91110 91206;
0128066430999992010010215004+47250+007783FM-12+041699999V0203201N001019999999N9999999N1-00061-00991102201ADDMA1999999096951MD1310191+9999OA149900931REMSYN076AAXX  02154 06643 33/// /3202 11006 21099 39695 40220 53019 333 91118 91208;
0128066430999992010010216004+47250+007783FM-12+041699999V0203101N001519999999N9999999N1-00181-00981102281ADDMA1999999097001MD1210181+9999OA149900511REMSYN076AAXX  02164 06643 33/// /3103 11018 21098 39700 40228 52018 333 91110 91205;
0128066430999992010010217004+47250+007783FM-12+041699999V0202301N001019999999N9999999N1-00291-00831102381ADDMA1999999097081MD1210201+9999OA149900361REMSYN076AAXX  02174 06643 33/// /2302 11029 21083 39708 40238 52020 333 91107 91203;
0147066430999992010010218004+47250+007783FM-12+041699999V0201601N001019999999N9999999N1-00351-00841102441ADDKA1120M+00011MA1999999097121MD1210171+9999OA149900931REMSYN082AAXX  02184 06643 33/// /1602 11035 21084 39712 40244 52017 333 10001 91118 91208;
0128066430999992010010219004+47250+007783FM-12+041699999V0201801N000519999999N9999999N1-00401-00721102491ADDMA1999999097161MD1210161+9999OA149900211REMSYN076AAXX  02194 06643 33/// /1801 11040 21072 39716 40249 52016 333 91104 91202;
0128066430999992010010220004+47250+007783FM-12+041699999V0202401N000519999999N9999999N1-00451-00651102501ADDMA1999999097161MD1210081+9999OA149900151REMSYN076AAXX  02204 06643 33/// /2401 11045 21065 39716 40250 52008 333 91103 91202;
0128066430999992010010221004+47250+007783FM-12+041699999V0201401N000519999999N9999999N1-00501-00741102511ADDMA1999999097161MD1210041+9999OA149900361REMSYN076AAXX  02214 06643 33/// /1401 11050 21074 39716 40251 52004 333 91107 91203;
0128066430999992010010222004+47250+007783FM-12+041699999V0202301N001019999999N9999999N1-00601-00741102551ADDMA1999999097181MD1310021+9999OA149900101REMSYN076AAXX  02224 06643 33/// /2302 11060 21074 39718 40255 53002 333 91102 91202;
0128066430999992010010223004+47250+007783FM-12+041699999V0202201N000519999999N9999999N1-00621-00761102581ADDMA1999999097201MD1210041+9999OA149900151REMSYN076AAXX  02234 06643 33/// /2201 11062 21076 39720 40258 52004 333 91103 91202;
0128066430999992010010300004+47250+007783FM-12+041699999V0202501N000519999999N9999999N1-00631-00751102571ADDMA1999999097191MD1010031+9999OA149900511REMSYN076AAXX  03004 06643 33/// /2501 11063 21075 39719 40257 50003 333 91110 91206;
0128066430999992010010301004+47250+007783FM-12+041699999V0201901N000519999999N9999999N1-00641-00801102591ADDMA1999999097211MD1210031+9999OA149900151REMSYN076AAXX  03014 06643 33/// /1901 11064 21080 39721 40259 52003 333 91103 91202;
0087066430999992010010302004+47250+007783FM-12+041699999V0202201N000519999999N9999999N1-00681-00821102611ADDMA1999999097221REMSYN060AAXX  03024 06643 33/// /2201 11068 21082 39722 40261 5////;
0087066430999992010010303004+47250+007783FM-12+041699999V0202001N000519999999N9999999N1-00711-00851102581ADDMA1999999097181REMSYN060AAXX  03034 06643 33/// /2001 11071 21085 39718 40258 5////;
0128066430999992010010304004+47250+007783FM-12+041699999V0200801N000519999999N9999999N1-00731-00831102551ADDMA1999999097151MD1810061+9999OA149900101REMSYN076AAXX  03044 06643 33/// /0801 11073 21083 39715 40255 58006 333 91102 91201;
0128066430999992010010305004+47250+007783FM-12+041699999V0209999C000019999999N9999999N1-00731-00851102541ADDMA1999999097141MD1719999+9999OA149900101REMSYN076AAXX  03054 06643 33/// /0000 11073 21085 39714 40254 57/// 333 91102 91201;
0225066430999992010010306004+47250+007783FM-12+041699999V0209999C000019999999N9999999N1-00731-00841102511ADDAA124000091AL19900091GJ102829IA2999-00909KA1999N-00751MA1999999097111MD1710071+9999OA149900151REMSYN100AAXX  03064 06643 33/// /0000 11073 21084 39711 40251 57007 333 21075 3/109 55047 70000 91103 91202;EQDQ01  00002PRCP24
0128066430999992010010307004+47250+007783FM-12+041699999V0200801N000519999999N9999999N1-00761-00891102511ADDMA1999999097111MD1710041+9999OA149900101REMSYN076AAXX  03074 06643 33/// /0801 11076 21089 39711 40251 57004 333 91102 91202;
0128066430999992010010308004+47250+007783FM-12+041699999V0202201N001019999999N9999999N1-00761-00881102531ADDMA1999999097131MD1519999+9999OA149900101REMSYN076AAXX  03084 06643 33/// /2202 11076 21088 39713 40253 55/// 333 91102 91202;
0128066430999992010010309004+47250+007783FM-12+041699999V0201501N000519999999N9999999N1-00641-00781102541ADDMA1999999097161MD1210051+9999OA149900101REMSYN076AAXX  03094 06643 33/// /1501 11064 21078 39716 40254 52005 333 91102 91202;
0128066430999992010010310004+47250+007783FM-12+041699999V0201401N000519999999N9999999N1-00471-00731102481ADDMA1999999097141MD1010031+9999OA149900101REMSYN076AAXX  03104 06643 33/// /1401 11047 21073 39714 40248 50003 333 91102 91201;
0128066430999992010010311004+47250+007783FM-12+041699999V0202101N000519999999N9999999N1-00291-00761102311ADDMA1999999097011MD1710121+9999OA149900151REMSYN076AAXX  03114 06643 33/// /2101 11029 21076 39701 40231 57012 333 91103 91201;
0128066430999992010010312004+47250+007783FM-12+041699999V0202001N002119999999N9999999N1-00191-00941102241ADDMA1999999096961MD1710201+9999OA149900361REMSYN076AAXX  03124 06643 33/// /2004 11019 21094 39696 40224 57020 333 91107 91204;
0128066430999992010010313004+47250+007783FM-12+041699999V0202201N002119999999N9999999N1-00071-00881102171ADDMA1999999096921MD1610221+9999OA149900361REMSYN076AAXX  03134 06643 33/// /2204 11007 21088 39692 40217 56022 333 91107 91204;
0128066430999992010010314004+47250+007783FM-12+041699999V0202201N001519999999N9999999N1-00071-00961102151ADDMA1999999096901MD1710111+9999OA149900361REMSYN076AAXX  03144 06643 33/// /2203 11007 21096 39690 40215 57011 333 91107 91204;
0128066430999992010010315004+47250+007783FM-12+041699999V0202201N001519999999N9999999N1-00121-00911102181ADDMA1999999096921MD1510041+9999OA149900361REMSYN076AAXX  03154 06643 33/// /2203 11012 21091 39692 40218 55004 333 91107 91204;
0128066430999992010010316004+47250+007783FM-12+041699999V0209999C000019999999N9999999N1-00231-00871102171ADDMA1999999096891MD1710031+9999OA149900361REMSYN076AAXX  03164 06643 33/// /0000 11023 21087 39689 40217 57003 333 91107 91204;
0128066430999992010010317004+47250+007783FM-12+041699999V0202201N001019999999N9999999N1-00401-00831102161ADDMA1999999096851MD1810051+9999OA149900261REMSYN076AAXX  03174 06643 33/// /2202 11040 21083 39685 40216 58005 333 91105 91203;
0147066430999992010010318004+47250+007783FM-12+041699999V0202101N001019999999N9999999N1-00421-00761102201ADDKA1120M-00041MA1999999096881MD1710041+9999OA149900361REMSYN082AAXX  03184 06643 33/// /2102 11042 21076 39688 40220 57004 333 11004 91107 91204;
0128066430999992010010319004+47250+007783FM-12+041699999V0209999C000019999999N9999999N1-00481-00821102191ADDMA1999999096861MD1710031+9999OA149900211REMSYN076AAXX  03194 06643 33/// /0000 11048 21082 39686 40219 57003 333 91104 91202;
0128066430999992010010320004+47250+007783FM-12+041699999V0202301N000519999999N9999999N1-00601-00841102181ADDMA1999999096831MD1810021+9999OA149900211REMSYN076AAXX  03204 06643 33/// /2301 11060 21084 39683 40218 58002 333 91104 91202;
0128066430999992010010321004+47250+007783FM-12+041699999V0209999C000019999999N9999999N1-00711-00871102171ADDMA1999999096801MD1610081+9999OA149900261REMSYN076AAXX  03214 06643 33/// /0000 11071 21087 39680 40217 56008 333 91105 91203;
0128066430999992010010322004+47250+007783FM-12+041699999V0203401N000519999999N9999999N1-00761-00921102171ADDMA1999999096791MD1610071+9999OA149900151REMSYN076AAXX  03224 06643 33/// /3401 11076 21092 39679 40217 56007 333 91103 91202;
0128066430999992010010323004+47250+007783FM-12+041699999V0202301N000519999999N9999999N1-00791-00901102151ADDMA1999999096761MD1810071+9999OA149900151REMSYN076AAXX  03234 06643 33/// /2301 11079 21090 39676 40215 58007 333 91103 91202;
0128066430999992010010400004+47250+007783FM-12+041699999V0200501N000519999999N9999999N1-00801-00931102111ADDMA1999999096721MD1810081+9999OA149900361REMSYN076AAXX  04004 06643 33/// /0501 11080 21093 39672 40211 58008 333 91107 91204;
0128066430999992010010401004+47250+007783FM-12+041699999V0202301N000519999999N9999999N1-00851-00961102031ADDMA1999999096641MD1710151+9999OA149900151REMSYN076AAXX  04014 06643 33/// /2301 11085 21096 39664 40203 57015 333 91103 91202;
0128066430999992010010402004+47250+007783FM-12+041699999V0201201N000519999999N9999999N1-00931-01061102021ADDMA1999999096611MD1710151+9999OA149900151REMSYN076AAXX  04024 06643 33/// /1201 11093 21106 39661 40202 57015 333 91103 91202;
0128066430999992010010403004+47250+007783FM-12+041699999V0200401N001019999999N9999999N1-00881-01011101961ADDMA1999999096561MD1719999+9999OA149900151REMSYN076AAXX  04034 06643 33/// /0402 11088 21101 39656 40196 57/// 333 91103 91202;
0128066430999992010010404004+47250+007783FM-12+041699999V0200301N000519999999N9999999N1-00871-00991101911ADDMA1999999096521MD1610121+9999OA149900151REMSYN076AAXX  04044 06643 33/// /0301 11087 21099 39652 40191 56012 333 91103 91203;
0128066430999992010010405004+47250+007783FM-12+041699999V0209999C000019999999N9999999N1-00771-00891101851ADDMA1999999096481MD1810131+9999OA149900151REMSYN076AAXX  04054 06643 33/// /0000 11077 21089 39648 40185 58013 333 91103 91203;
0225066430999992010010406004+47250+007783FM-12+041699999V0209999C000019999999N9999999N1-00751-00891101861ADDAA124000091AL19900091GJ103309IA2999-01109KA1999N-00941MA1999999096491MD1710071+9999OA149900211REMSYN100AAXX  04064 06643 33/// /0000 11075 21089 39649 40186 57007 333 21094 3/111 55055 70000 91104 91203;EQDQ01  00002PRCP24
0128066430999992010010407004+47250+007783FM-12+041699999V0209999C000019999999N9999999N1-00761-00901101861ADDMA1999999096491MD1710031+9999OA149900151REMSYN076AAXX  04074 06643 33/// /0000 11076 21090 39649 40186 57003 333 91103 91202;
0128066430999992010010408004+47250+007783FM-12+041699999V0200901N000519999999N9999999N1-00731-00881101841ADDMA1999999096481MD1010001+9999OA149900151REMSYN076AAXX  04084 06643 33/// /0901 11073 21088 39648 40184 50000 333 91103 91202;
0128066430999992010010409004+47250+007783FM-12+041699999V0200501N001019999999N9999999N1-00651-00831101811ADDMA1999999096471MD1710021+9999OA149900151REMSYN076AAXX  04094 06643 33/// /0502 11065 21083 39647 40181 57002 333 91103 91203;
0128066430999992010010410004+47250+007783FM-12+041699999V0200401N000519999999N9999999N1-00661-00821101801ADDMA1999999096461MD1710031+9999OA149900101REMSYN076AAXX  04104 06643 33/// /0401 11066 21082 39646 40180 57003 333 91102 91202;
0128066430999992010010411004+47250+007783FM-12+041699999V0200801N001019999999N9999999N1-00481-00761101691ADDMA1999999096391MD1710091+9999OA149900151REMSYN076AAXX  04114 06643 33/// /0802 11048 21076 39639 40169 57009 333 91103 91202;
0128066430999992010010412004+47250+007783FM-12+041699999V0200701N000519999999N9999999N1-00291-00721101571ADDMA1999999096311MD1710161+9999OA149900151REMSYN076AAXX  04124 06643 33/// /0701 11029 21072 39631 40157 57016 333 91103 91203;
0128066430999992010010413004+47250+007783FM-12+041699999V0200501N001519999999N9999999N1-00191-00781101451ADDMA1999999096221MD1710241+9999OA149900311REMSYN076AAXX  04134 06643 33/// /0503 11019 21078 39622 40145 57024 333 91106 91203;
0128066430999992010010414004+47250+007783FM-12+041699999V0201801N001019999999N9999999N1-00241-00721101421ADDMA1999999096181MD1619999+9999OA149900311REMSYN076AAXX  04144 06643 33/// /1802 11024 21072 39618 40142 56/// 333 91106 91203;
0128066430999992010010415004+47250+007783FM-12+041699999V0209999C000019999999N9999999N1-00321-00681101441ADDMA1999999096181MD1710131+9999OA149900311REMSYN076AAXX  04154 06643 33/// /0000 11032 21068 39618 40144 57013 333 91106 91203;
0128066430999992010010416004+47250+007783FM-12+041699999V0209999C000019999999N9999999N1-00451-00701101471ADDMA1999999096181MD1710041+9999OA149900211REMSYN076AAXX  04164 06643 33/// /0000 11045 21070 39618 40147 57004 333 91104 91202;
0128066430999992010010417004+47250+007783FM-12+041699999V0201401N000519999999N9999999N1-00501-00771101471ADDMA1999999096171MD1710011+9999OA149900151REMSYN076AAXX  04174 06643 33/// /1401 11050 21077 39617 40147 57001 333 91103 91202;
0147066430999992010010418004+47250+007783FM-12+041699999V0200601N001019999999N9999999N1-00521-00761101471ADDKA1120M-00191MA1999999096171MD1010011+9999OA149900311REMSYN082AAXX  04184 06643 33/// /0602 11052 21076 39617 40147 50001 333 11019 91106 91203;
0128066430999992010010419004+47250+007783FM-12+041699999V0200301N001019999999N9999999N1-00491-00701101461ADDMA1999999096171MD1510011+9999OA149900151REMSYN076AAXX  04194 06643 33/// /0302 11049 21070 39617 40146 55001 333 91103 91203;
0128066430999992010010420004+47250+007783FM-12+041699999V0200501N001019999999N9999999N1-00531-00731101441ADDMA1999999096141MD1710031+9999OA149900211REMSYN076AAXX  04204 06643 33/// /0502 11053 21073 39614 40144 57003 333 91104 91203;
0128066430999992010010421004+47250+007783FM-12+041699999V0200401N001519999999N9999999N1-00581-00761101431ADDMA1999999096121MD1710051+9999OA149900211REMSYN076AAXX  04214 06643 33/// /0403 11058 21076 39612 40143 57005 333 91104 91203;
0128066430999992010010422004+47250+007783FM-12+041699999V0200401N002619999999N9999999N1-00581-00791101411ADDMA1999999096101MD1810071+9999OA149900311REMSYN076AAXX  04224 06643 33/// /0405 11058 21079 39610 40141 58007 333 91106 91205;
0128066430999992010010423004+47250+007783FM-12+041699999V0200601N001519999999N9999999N1-00621-00791101371ADDMA1999999096061MD1710081+9999OA149900361REMSYN076AAXX  04234 06643 33/// /0603 11062 21079 39606 40137 57008 333 91107 91205;
0128066430999992010010500004+47250+007783FM-12+041699999V0200501N001519999999N9999999N1-00661-00811101341ADDMA1999999096021MD1710101+9999OA149900361REMSYN076AAXX  05004 06643 33/// /0503 11066 21081 39602 40134 57010 333 91107 91205;
0128066430999992010010501004+47250+007783FM-12+041699999V0200501N001019999999N9999999N1-00601-00761101261ADDMA1999999095961MD1710141+9999OA149900211REMSYN076AAXX  05014 06643 33/// /0502 11060 21076 39596 40126 57014 333 91104 91203;
0128066430999992010010502004+47250+007783FM-12+041699999V0200501N001519999999N9999999N1-00571-00741101231ADDMA1999999095931MD1710131+9999OA149900311REMSYN076AAXX  05024 06643 33/// /0503 11057 21074 39593 40123 57013 333 91106 91205;
0128066430999992010010503004+47250+007783FM-12+041699999V0200501N001519999999N9999999N1-00561-00751101171ADDMA1999999095881MD1710141+9999OA149900361REMSYN076AAXX  05034 06643 33/// /0503 11056 21075 39588 40117 57014 333 91107 91205;
0128066430999992010010504004+47250+007783FM-12+041699999V0200501N003119999999N9999999N1-00511-00811101071ADDMA1999999095791MD1710171+9999OA149900511REMSYN076AAXX  05044 06643 33/// /0506 11051 21081 39579 40107 57017 333 91110 91206;
0128066430999992010010505004+47250+007783FM-12+041699999V0200501N003119999999N9999999N1-00511-00781100981ADDMA1999999095711MD1710221+9999OA149900511REMSYN076AAXX  05054 06643 33/// /0506 11051 21078 39571 40098 57022 333 91110 91207;
0211066430999992010010506004+47250+007783FM-12+041699999V0200501N003619999999N9999999N1-00521-00811100941ADDAA124000091AL19900091IA2999-00809KA1999N-00661MA1999999095671MD1710211+9999OA149900511REMSYN094AAXX  05064 06643 33/// /0507 11052 21081 39567 40094 57021 333 21066 3/108 70000 91110 91207;EQDQ01  00002PRCP24
0128066430999992010010507004+47250+007783FM-12+041699999V0200601N002119999999N9999999N1-00551-00831100911ADDMA1999999095631MD1710161+9999OA149900511REMSYN076AAXX  05074 06643 33/// /0604 11055 21083 39563 40091 57016 333 91110 91207;
0128066430999992010010508004+47250+007783FM-12+041699999V0200801N002119999999N9999999N1-00551-00841100921ADDMA1999999095641MD1710071+9999OA149900411REMSYN076AAXX  05084 06643 33/// /0804 11055 21084 39564 40092 57007 333 91108 91207;
0128066430999992010010509004+47250+007783FM-12+041699999V0200601N003119999999N9999999N1-00521-00821100871ADDMA1999999095601MD1710071+9999OA149900511REMSYN076AAXX  05094 06643 33/// /0606 11052 21082 39560 40087 57007 333 91110 91207;
0128066430999992010010510004+47250+007783FM-12+041699999V0200501N003119999999N9999999N1-00481-00781100811ADDMA1999999095551MD1710081+9999OA149900461REMSYN076AAXX  05104 06643 33/// /0506 11048 21078 39555 40081 57008 333 91109 91207;
0128066430999992010010511004+47250+007783FM-12+041699999V0200501N002619999999N9999999N1-00461-00741100731ADDMA1999999095481MD1810161+9999OA149900461REMSYN076AAXX  05114 06643 33/// /0505 11046 21074 39548 40073 58016 333 91109 91206;
0128066430999992010010512004+47250+007783FM-12+041699999V0200501N002619999999N9999999N1-00411-00671100651ADDMA1999999095411MD1810191+9999OA149900511REMSYN076AAXX  05124 06643 33/// /0505 11041 21067 39541 40065 58019 333 91110 91207;
0128066430999992010010513004+47250+007783FM-12+041699999V0200601N002119999999N9999999N1-00351-00651100521ADDMA1999999095301MD1810251+9999OA149900361REMSYN076AAXX  05134 06643 33/// /0604 11035 21065 39530 40052 58025 333 91107 91205;
0087066430999992010010514004+47250+007783FM-12+041699999V0200401N002119999999N9999999N1-00341-00601100471ADDMA1999999095261REMSYN060AAXX  05144 06643 33/// /0404 11034 21060 39526 40047 5////;
0128066430999992010010515004+47250+007783FM-12+041699999V0200501N002619999999N9999999N1-00321-00581100461ADDMA1999999095251MD1610161+9999OA149900461REMSYN076AAXX  05154 06643 33/// /0505 11032 21058 39525 40046 56016 333 91109 91206;
0128066430999992010010516004+47250+007783FM-12+041699999V0200401N002119999999N9999999N1-00331-00631100441ADDMA1999999095231MD1710071+9999OA149900411REMSYN076AAXX  05164 06643 33/// /0404 11033 21063 39523 40044 57007 333 91108 91206;
0128066430999992010010517004+47250+007783FM-12+041699999V0200501N002619999999N9999999N1-00321-00601100411ADDMA1999999095201MD1710061+9999OA149900411REMSYN076AAXX  05174 06643 33/// /0505 11032 21060 39520 40041 57006 333 91108 91206;
0147066430999992010010518004+47250+007783FM-12+041699999V0200601N002619999999N9999999N1-00331-00591100371ADDKA1120M-00311MA1999999095161MD1710091+9999OA149900461REMSYN082AAXX  05184 06643 33/// /0605 11033 21059 39516 40037 57009 333 11031 91109 91207;
0128066430999992010010519004+47250+007783FM-12+041699999V0200501N002119999999N9999999N1-00351-00601100381ADDMA1999999095171MD1710061+9999OA149900411REMSYN076AAXX  05194 06643 33/// /0504 11035 21060 39517 40038 57006 333 91108 91206;
0128066430999992010010520004+47250+007783FM-12+041699999V0200601N002619999999N9999999N1-00351-00581100341ADDMA1999999095131MD1710071+9999OA149900411REMSYN076AAXX  05204 06643 33/// /0605 11035 21058 39513 40034 57007 333 91108 91206;
0128066430999992010010521004+47250+007783FM-12+041699999V0200401N002119999999N9999999N1-00381-00611100321ADDMA1999999095111MD1710051+9999OA149900411REMSYN076AAXX  05214 06643 33/// /0404 11038 21061 39511 40032 57005 333 91108 91206;
0128066430999992010010522004+47250+007783FM-12+041699999V0200601N002119999999N9999999N1-00381-00611100291ADDMA1999999095081MD1710091+9999OA149900361REMSYN076AAXX  05224 06643 33/// /0604 11038 21061 39508 40029 57009 333 91107 91205;
0128066430999992010010523004+47250+007783FM-12+041699999V0200401N002619999999N9999999N1-00381-00631100251ADDMA1999999095041MD1710091+9999OA149900311REMSYN076AAXX  05234 06643 33/// /0405 11038 21063 39504 40025 57009 333 91106 91205;
0128066430999992010010600004+47250+007783FM-12+041699999V0200401N001519999999N9999999N1-00381-00611100241ADDMA1999999095031MD1710081+9999OA149900411REMSYN076AAXX  06004 06643 33/// /0403 11038 21061 39503 40024 57008 333 91108 91206;
0128066430999992010010601004+47250+007783FM-12+041699999V0200501N001519999999N9999999N1-00381-00571100201ADDMA1999999094991MD1710091+9999OA149900311REMSYN076AAXX  06014 06643 33/// /0503 11038 21057 39499 40020 57009 333 91106 91204;
0128066430999992010010602004+47250+007783FM-12+041699999V0200501N001019999999N9999999N1-00381-00571100241ADDMA1999999095031MD1510011+9999OA149900261REMSYN076AAXX  06024 06643 33/// /0502 11038 21057 39503 40024 55001 333 91105 91204;
0128066430999992010010603004+47250+007783FM-12+041699999V0203401N001019999999N9999999N1-00401-00601100231ADDMA1999999095021MD1710011+9999OA149900311REMSYN076AAXX  06034 06643 33/// /3402 11040 21060 39502 40023 57001 333 91106 91205;
0128066430999992010010604004+47250+007783FM-12+041699999V0200501N001019999999N9999999N1-00381-00541100221ADDMA1999999095011MD1010021+9999OA149900211REMSYN076AAXX  06044 06643 33/// /0502 11038 21054 39501 40022 50002 333 91104 91202;
0128066430999992010010605004+47250+007783FM-12+041699999V0200401N000519999999N9999999N1-00371-00551100261ADDMA1999999095051MD1210021+9999OA149900211REMSYN076AAXX  06054 06643 33/// /0401 11037 21055 39505 40026 52002 333 91104 91203;
0225066430999992010010606004+47250+007783FM-12+041699999V0201701N000519999999N9999999N1-00351-00541100271ADDAA124000091AL19900091GJ100009IA2999-00409KA1999N-00411MA1999999095071MD1210051+9999OA149900411REMSYN100AAXX  06064 06643 33/// /1701 11035 21054 39507 40027 52005 333 21041 3/104 55000 70000 91108 91206;EQDQ01  00002PRCP24
0128066430999992010010607004+47250+007783FM-12+041699999V0200601N001019999999N9999999N1-00331-00551100291ADDMA1999999095091MD1210081+9999OA149900211REMSYN076AAXX  06074 06643 33/// /0602 11033 21055 39509 40029 52008 333 91104 91203;
0128066430999992010010608004+47250+007783FM-12+041699999V0200501N001019999999N9999999N1-00311-00511100341ADDMA1999999095141MD1210091+9999OA149900211REMSYN076AAXX  06084 06643 33/// /0502 11031 21051 39514 40034 52009 333 91104 91203;
0128066430999992010010609004+47250+007783FM-12+041699999V0200401N001519999999N9999999N1-00301-00491100391ADDMA1999999095191MD1210121+9999OA149900211REMSYN076AAXX  06094 06643 33/// /0403 11030 21049 39519 40039 52012 333 91104 91203;
0128066430999992010010610004+47250+007783FM-12+041699999V0200401N001519999999N9999999N1-00281-00471100411ADDMA1999999095211MD1210121+9999OA149900211REMSYN076AAXX  06104 06643 33/// /0403 11028 21047 39521 40041 52012 333 91104 91203;
0128066430999992010010611004+47250+007783FM-12+041699999V0200301N001019999999N9999999N1-00261-00471100391ADDMA1999999095201MD1019999+9999OA149900211REMSYN076AAXX  06114 06643 33/// /0302 11026 21047 39520 40039 50/// 333 91104 91203;
0128066430999992010010612004+47250+007783FM-12+041699999V0200201N001019999999N9999999N1-00231-00481100371ADDMA1999999095181MD1810011+9999OA149900261REMSYN076AAXX  06124 06643 33/// /0202 11023 21048 39518 40037 58001 333 91105 91204;
0128066430999992010010613004+47250+007783FM-12+041699999V0200201N001019999999N9999999N1-00201-00451100361ADDMA1999999095181MD1710031+9999OA149900151REMSYN076AAXX  06134 06643 33/// /0202 11020 21045 39518 40036 57003 333 91103 91202;
0128066430999992010010614004+47250+007783FM-12+041699999V0200401N001019999999N9999999N1-00181-00451100381ADDMA1999999095201MD1319999+9999OA149900151REMSYN076AAXX  06144 06643 33/// /0402 11018 21045 39520 40038 53/// 333 91103 91202;
0128066430999992010010615004+47250+007783FM-12+041699999V0200501N001519999999N9999999N1-00161-00441100401ADDMA1999999095231MD1319999+9999OA149900261REMSYN076AAXX  06154 06643 33/// /0503 11016 21044 39523 40040 53/// 333 91105 91203;
0128066430999992010010616004+47250+007783FM-12+041699999V0200801N002119999999N9999999N1-00171-00421100461ADDMA1999999095281MD1310101+9999OA149900261REMSYN076AAXX  06164 06643 33/// /0804 11017 21042 39528 40046 53010 333 91105 91204;
0128066430999992010010617004+47250+007783FM-12+041699999V0200801N001519999999N9999999N1-00191-00431100481ADDMA1999999095301MD1110101+9999OA149900311REMSYN076AAXX  06174 06643 33/// /0803 11019 21043 39530 40048 51010 333 91106 91204;
0147066430999992010010618004+47250+007783FM-12+041699999V0200801N001019999999N9999999N1-00201-00421100551ADDKA1120M-00161MA1999999095361MD1319999+9999OA149900311REMSYN082AAXX  06184 06643 33/// /0802 11020 21042 39536 40055 53/// 333 11016 91106 91204;
0128066430999992010010619004+47250+007783FM-12+041699999V0200601N001019999999N9999999N1-00271-00441100591ADDMA1999999095381MD1210101+9999OA149900211REMSYN076AAXX  06194 06643 33/// /0602 11027 21044 39538 40059 52010 333 91104 91203;
0128066430999992010010620004+47250+007783FM-12+041699999V0201401N001019999999N9999999N1-00261-00441100611ADDMA1999999095411MD1210111+9999OA149900211REMSYN076AAXX  06204 06643 33/// /1402 11026 21044 39541 40061 52011 333 91104 91203;
0128066430999992010010621004+47250+007783FM-12+041699999V0200601N000519999999N9999999N1-00251-00401100641ADDMA1999999095441MD1210081+9999OA149900311REMSYN076AAXX  06214 06643 33/// /0601 11025 21040 39544 40064 52008 333 91106 91204;
0128066430999992010010622004+47250+007783FM-12+041699999V0202101N000519999999N9999999N1-00241-00391100681ADDMA1999999095481MD1210101+9999OA149900151REMSYN076AAXX  06224 06643 33/// /2101 11024 21039 39548 40068 52010 333 91103 91202;
0145066430999992010010623004+47250+007783FM-12+041699999V0209999C000019999999N9999999N1-00271-00381100721ADDAA101000021MA1999999095511MD1210101+9999OA149900211REMSYN082AAXX  06234 06643 23/// /0000 11027 21038 39551 40072 52010 333 69925 91104 91202;
0151066430999992010010700004+47250+007783FM-12+041699999V0202601N000519999999N9999999N1-00251-00401100751ADDAA106000391MA1999999095541MD1210101+9999OA149900311REMSYN088AAXX  07004 06643 03/// /2601 11025 21040 39554 40075 52010 69931 333 69915 91106 91204;
0128066430999992010010701004+47250+007783FM-12+041699999V0209999C000019999999N9999999N1-00271-00381100791ADDMA1999999095571MD1210091+9999OA149900151REMSYN076AAXX  07014 06643 33/// /0000 11027 21038 39557 40079 52009 333 91103 91201;
0128066430999992010010702004+47250+007783FM-12+041699999V0200101N000519999999N9999999N1-00351-00441100821ADDMA1999999095591MD1219999+9999OA149900101REMSYN076AAXX  07024 06643 33/// /0101 11035 21044 39559 40082 52/// 333 91102 91202;
0128066430999992010010703004+47250+007783FM-12+041699999V0202101N000519999999N9999999N1-00341-00471100791ADDMA1999999095561MD1010021+9999OA149900211REMSYN076AAXX  07034 06643 33/// /2101 11034 21047 39556 40079 50002 333 91104 91202;
0128066430999992010010704004+47250+007783FM-12+041699999V0200601N000519999999N9999999N1-00331-00431100801ADDMA1999999095571MD1010001+9999OA149900151REMSYN076AAXX  07044 06643 33/// /0601 11033 21043 39557 40080 50000 333 91103 91202;
0128066430999992010010705004+47250+007783FM-12+041699999V0200601N001519999999N9999999N1-00321-00441100791ADDMA1999999095561MD1710031+9999OA149900211REMSYN076AAXX  07054 06643 33/// /0603 11032 21044 39556 40079 57003 333 91104 91203;
0229066430999992010010706004+47250+007783FM-12+041699999V0200701N001519999999N9999999N1-00301-00441100831ADDAA112000391AA224000391AL11800091GJ100009IA2999-00809KA1999N-00411MA1999999095611MD1210051+9999OA149900211REMSYN112AAXX  07064 06643 03/// /0703 11030 21044 39561 40083 52005 69932 333 21041 3/108 55000 60005 70003 91104 91203;
0128066430999992010010707004+47250+007783FM-12+041699999V0200501N001019999999N9999999N1-00331-00451100871ADDMA1999999095641MD1110071+9999OA149900211REMSYN076AAXX  07074 06643 33/// /0502 11033 21045 39564 40087 51007 333 91104 91203;
0128066430999992010010708004+47250+007783FM-12+041699999V0200601N001519999999N9999999N1-00271-00421100921ADDMA1999999095701MD1319999+9999OA149900151REMSYN076AAXX  07084 06643 33/// /0603 11027 21042 39570 40092 53/// 333 91103 91203;
0128066430999992010010709004+47250+007783FM-12+041699999V0200601N001019999999N9999999N1-00191-00411100961ADDMA1999999095751MD1310141+9999OA149900211REMSYN076AAXX  07094 06643 33/// /0602 11019 21041 39575 40096 53014 333 91104 91203;
0128066430999992010010710004+47250+007783FM-12+041699999V0200801N000519999999N9999999N1-00151-00421101011ADDMA1999999095811MD1310171+9999OA149900151REMSYN076AAXX  07104 06643 33/// /0801 11015 21042 39581 40101 53017 333 91103 91203;
0128066430999992010010711004+47250+007783FM-12+041699999V0202901N001019999999N9999999N1-00041-00361100981ADDMA1999999095801MD1210101+9999OA149900211REMSYN076AAXX  07114 06643 33/// /2902 11004 21036 39580 40098 52010 333 91104 91202;
0163066430999992010010712004+47250+007783FM-12+041699999V0202401N001019999999N9999999N1+00011-00421100921ADDMA1999999095751MD1710041+9999OA149900261REMSYN076AAXX  07124 06643 33/// /2402 10001 21042 39575 40092 58000 333 91105 91203;EQDQ01+000082APCTENQ02+000002APC3  
0128066430999992010010713004+47250+007783FM-12+041699999V0202501N001519999999N9999999N1+00041-00471100921ADDMA1999999095761MD1719999+9999OA149900261REMSYN076AAXX  07134 06643 33/// /2503 10004 21047 39576 40092 57/// 333 91105 91203;
0128066430999992010010716004+47250+007783FM-12+041699999V0201801N000519999999N9999999N1-00091-00391101081ADDMA1999999095881MD1219999+9999OA149900311REMSYN076AAXX  07164 06643 33/// /1801 11009 21039 39588 40108 52/// 333 91106 91203;
0128066430999992010010717004+47250+007783FM-12+041699999V0201601N000519999999N9999999N1-00141-00381101101ADDMA1999999095891MD1219999+9999OA149900261REMSYN076AAXX  07174 06643 33/// /1601 11014 21038 39589 40110 52/// 333 91105 91203;
0147066430999992010010718004+47250+007783FM-12+041699999V0201801N000519999999N9999999N1-00171-00401101131ADDKA1120M+00061MA1999999095921MD1219999+9999OA149900361REMSYN082AAXX  07184 06643 33/// /1801 11017 21040 39592 40113 52/// 333 10006 91107 91203;
0128066430999992010010719004+47250+007783FM-12+041699999V0202501N000519999999N9999999N1-00151-00391101151ADDMA1999999095941MD1210061+9999OA149900101REMSYN076AAXX  07194 06643 33/// /2501 11015 21039 39594 40115 52006 333 91102 91202;
0128066430999992010010720004+47250+007783FM-12+041699999V0200701N000519999999N9999999N1-00231-00401101181ADDMA1999999095951MD1210061+9999OA149900101REMSYN076AAXX  07204 06643 33/// /0701 11023 21040 39595 40118 52006 333 91102 91201;
0128066430999992010010721004+47250+007783FM-12+041699999V0200801N000519999999N9999999N1-00251-00421101191ADDMA1999999095961MD1210041+9999OA149900261REMSYN076AAXX  07214 06643 33/// /0801 11025 21042 39596 40119 52004 333 91105 91203;
0128066430999992010010722004+47250+007783FM-12+041699999V0200901N001019999999N9999999N1-00201-00401101161ADDMA1999999095941MD1710011+9999OA149900151REMSYN076AAXX  07224 06643 33/// /0902 11020 21040 39594 40116 57000 333 91103 91202;
0128066430999992010010723004+47250+007783FM-12+041699999V0200501N001519999999N9999999N1-00211-00381101161ADDMA1999999095941MD1710011+9999OA149900211REMSYN076AAXX  07234 06643 33/// /0503 11021 21038 39594 40116 57001 333 91104 91203;
0128066430999992010010800004+47250+007783FM-12+041699999V0200701N001519999999N9999999N1-00151-00401101131ADDMA1999999095921MD1710041+9999OA149900361REMSYN076AAXX  08004 06643 33/// /0703 11015 21040 39592 40113 57004 333 91107 91203;
0128066430999992010010801004+47250+007783FM-12+041699999V0201001N002119999999N9999999N1-00131-00411101071ADDMA1999999095871MD1710071+9999OA149900361REMSYN076AAXX  08014 06643 33/// /1004 11013 21041 39587 40107 57007 333 91107 91204;
0128066430999992010010802004+47250+007783FM-12+041699999V0201001N003119999999N9999999N1-00111-00411101071ADDMA1999999095871MD1719999+9999OA149900461REMSYN076AAXX  08024 06643 33/// /1006 11011 21041 39587 40107 57/// 333 91109 91206;
0128066430999992010010803004+47250+007783FM-12+041699999V0200701N002119999999N9999999N1-00151-00331101071ADDMA1999999095861MD1719999+9999OA149900461REMSYN076AAXX  08034 06643 33/// /0704 11015 21033 39586 40107 57/// 333 91109 91206;
0128066430999992010010804004+47250+007783FM-12+041699999V0200501N002619999999N9999999N1-00161-00301101011ADDMA1999999095801MD1710071+9999OA149900411REMSYN076AAXX  08044 06643 33/// /0505 11016 21030 39580 40101 57007 333 91108 91206;
0128066430999992010010805004+47250+007783FM-12+041699999V0200601N004119999999N9999999N1-00161-00311100941ADDMA1999999095741MD1810131+9999OA149900621REMSYN076AAXX  08054 06643 33/// /0608 11016 21031 39574 40094 58013 333 91112 91209;
0264066430999992010010806004+47250+007783FM-12+041699999V0200701N004619999999N9999999N1-00161-00311100911ADDAA112000091AA224000091AL19900091GJ101269IA2999-00409KA1999N-00251MA1999999095711MD1710151+9999OA149900721REMSYN112AAXX  08064 06643 03/// /0709 11016 21031 39571 40091 57015 69912 333 21025 3/104 55021 69915 70000 91114 91209;EQDQ01  00002PRCP24Q02  00002PRCP12
0145066430999992010010807004+47250+007783FM-12+041699999V0200601N004619999999N9999999N1-00161-00311100861ADDAA101000021MA1999999095661MD1710141+9999OA149900721REMSYN082AAXX  08074 06643 23/// /0609 11016 21031 39566 40086 57014 333 69915 91114 91209;
0145066430999992010010808004+47250+007783FM-12+041699999V0200601N005719999999N9999999N1-00151-00361100821ADDAA101000391MA1999999095631MD1710111+9999OA149900721REMSYN082AAXX  08084 06643 23/// /0611 11015 21036 39563 40082 57011 333 69935 91114 91211;
0128066430999992010010809004+47250+007783FM-12+041699999V0200601N008219999999N9999999N1-00171-00471100791ADDMA1999999095591MD1610121+9999OA149901291REMSYN076AAXX  08094 06643 33/// /0616 11017 21047 39559 40079 56012 333 91125 91217;
0128066430999992010010810004+47250+007783FM-12+041699999V0200601N008219999999N9999999N1-00191-00541100771ADDMA1999999095571MD1710091+9999OA149901291REMSYN076AAXX  08104 06643 33/// /0616 11019 21054 39557 40077 57009 333 91125 91217;
0128066430999992010010811004+47250+007783FM-12+041699999V0200601N007219999999N9999999N1-00161-00541100691ADDMA1999999095501MD1710131+9999OA149901291REMSYN076AAXX  08114 06643 33/// /0614 11016 21054 39550 40069 57013 333 91125 91217;
0151066430999992010010812004+47250+007783FM-12+041699999V0200601N008719999999N9999999N1-00151-00531100591ADDAA106000591MA1999999095411MD1710181+9999OA149901341REMSYN088AAXX  08124 06643 03/// /0617 11015 21053 39541 40059 57018 69941 333 60005 91126 91217;
0128066430999992010010813004+47250+007783FM-12+041699999V0200701N008719999999N9999999N1-00151-00501100531ADDMA1999999095351MD1610221+9999OA149901341REMSYN076AAXX  08134 06643 33/// /0717 11015 21050 39535 40053 56022 333 91126 91217;
0134066430999992010010814004+47250+007783FM-12+041699999V0200701N007719999999N9999999N1-00151-00481100521ADDMA1999999095341MD1719999+9999OA149901241REMSYN082AAXX  08144 06643 33/// /0715 11015 21048 39534 40052 57/// 91340 333 91124 91217;
0128066430999992010010815004+47250+007783FM-12+041699999V0200601N007219999999N9999999N1-00141-00461100551ADDMA1999999095371MD1510041+9999OA149901341REMSYN076AAXX  08154 06643 33/// /0614 11014 21046 39537 40055 55004 333 91126 91217;
0128066430999992010010816004+47250+007783FM-12+041699999V0200601N007219999999N9999999N1-00141-00491100591ADDMA1999999095411MD1210061+9999OA149901181REMSYN076AAXX  08164 06643 33/// /0614 11014 21049 39541 40059 52006 333 91123 91216;
0128066430999992010010817004+47250+007783FM-12+041699999V0200601N007219999999N9999999N1-00171-00491100641ADDMA1999999095451MD1110121+9999OA149901291REMSYN076AAXX  08174 06643 33/// /0614 11017 21049 39545 40064 51012 333 91125 91216;
0170066430999992010010818004+47250+007783FM-12+041699999V0200501N005719999999N9999999N1-00201-00491100671ADDAA112000591KA1120M-00141MA1999999095471MD1210101+9999OA149901341REMSYN094AAXX  08184 06643 03/// /0511 11020 21049 39547 40067 52010 69942 333 11014 60005 91126 91217;
0128066430999992010010819004+47250+007783FM-12+041699999V0200501N006219999999N9999999N1-00251-00521100671ADDMA1999999095461MD1210051+9999OA149901031REMSYN076AAXX  08194 06643 33/// /0512 11025 21052 39546 40067 52005 333 91120 91214;
0128066430999992010010820004+47250+007783FM-12+041699999V0200601N006219999999N9999999N1-00271-00551100681ADDMA1999999095471MD1210021+9999OA149900881REMSYN076AAXX  08204 06643 33/// /0612 11027 21055 39547 40068 52002 333 91117 91212;
0128066430999992010010821004+47250+007783FM-12+041699999V0200501N004119999999N9999999N1-00311-00551100701ADDMA1999999095481MD1210011+9999OA149901291REMSYN076AAXX  08214 06643 33/// /0508 11031 21055 39548 40070 52001 333 91125 91216;
0145066430999992010010822004+47250+007783FM-12+041699999V0200501N004619999999N9999999N1-00331-00571100721ADDAA101000021MA1999999095501MD1210041+9999OA149900821REMSYN082AAXX  08224 06643 23/// /0509 11033 21057 39550 40072 52004 333 69915 91116 91212;
0128066430999992010010823004+47250+007783FM-12+041699999V0200601N004119999999N9999999N1-00331-00611100741ADDMA1999999095521MD1310051+9999OA149900671REMSYN076AAXX  08234 06643 33/// /0608 11033 21061 39552 40074 53005 333 91113 91210;
0170066430999992010010900004+47250+007783FM-12+041699999V0200501N004119999999N9999999N1-00351-00631100741ADDAA106000091MA1999999095511MD1210031+9999OA149901291REMSYN088AAXX  09004 06643 03/// /0508 11035 21063 39551 40074 52003 69911 333 60005 91125 91217;EQDQ01  00002PRCP06
0128066430999992010010901004+47250+007783FM-12+041699999V0200601N005119999999N9999999N1-00351-00681100701ADDMA1999999095471MD1710031+9999OA149900671REMSYN076AAXX  09014 06643 33/// /0610 11035 21068 39547 40070 57003 333 91113 91210;
0128066430999992010010902004+47250+007783FM-12+041699999V0200301N004119999999N9999999N1-00361-00711100721ADDMA1999999095491MD1519999+9999OA149900721REMSYN076AAXX  09024 06643 33/// /0308 11036 21071 39549 40072 55/// 333 91114 91210;
0128066430999992010010903004+47250+007783FM-12+041699999V0200301N004619999999N9999999N1-00381-00741100731ADDMA1999999095501MD1019999+9999OA149900721REMSYN076AAXX  09034 06643 33/// /0309 11038 21074 39550 40073 50/// 333 91114 91210;
0128066430999992010010904004+47250+007783FM-12+041699999V0200501N004619999999N9999999N1-00401-00721100701ADDMA1999999095461MD1810011+9999OA149900721REMSYN076AAXX  09044 06643 33/// /0509 11040 21072 39546 40070 58001 333 91114 91210;
0128066430999992010010905004+47250+007783FM-12+041699999V0200501N004619999999N9999999N1-00421-00681100681ADDMA1999999095441MD1810051+9999OA149900721REMSYN076AAXX  09054 06643 33/// /0509 11042 21068 39544 40068 58005 333 91114 91210;
0248066430999992010010906004+47250+007783FM-12+041699999V0200501N004119999999N9999999N1-00431-00701100631ADDAA112000091AA224000591AL13600091GJ100009IA2999-00509KA1999N-00431MA1999999095391MD1710111+9999OA149900881REMSYN112AAXX  09064 06643 03/// /0508 11043 21070 39539 40063 57011 69912 333 21043 3/105 55000 60005 70006 91117 91212;EQDQ01  00002PRCP12
0128066430999992010010907004+47250+007783FM-12+041699999V0200601N004619999999N9999999N1-00451-00711100631ADDMA1999999095391MD1710071+9999OA149900821REMSYN076AAXX  09074 06643 33/// /0609 11045 21071 39539 40063 57007 333 91116 91211;
0128066430999992010010908004+47250+007783FM-12+041699999V0200401N005119999999N9999999N1-00441-00751100651ADDMA1999999095411MD1510031+9999OA149900821REMSYN076AAXX  09084 06643 33/// /0410 11044 21075 39541 40065 55003 333 91116 91211;
0128066430999992010010909004+47250+007783FM-12+041699999V0200501N005119999999N9999999N1-00451-00741100681ADDMA1999999095441MD1210051+9999OA149900821REMSYN076AAXX  09094 06643 33/// /0510 11045 21074 39544 40068 52005 333 91116 91211;
0128066430999992010010910004+47250+007783FM-12+041699999V0200501N005119999999N9999999N1-00431-00751100691ADDMA1999999095451MD1210061+9999OA149900771REMSYN076AAXX  09104 06643 33/// /0510 11043 21075 39545 40069 52006 333 91115 91210;
0128066430999992010010911004+47250+007783FM-12+041699999V0200601N004619999999N9999999N1-00431-00721100621ADDMA1999999095381MD1810031+9999OA149900771REMSYN076AAXX  09114 06643 33/// /0609 11043 21072 39538 40062 58003 333 91115 91210;
0128066430999992010010912004+47250+007783FM-12+041699999V0200401N004619999999N9999999N1-00421-00761100601ADDMA1999999095371MD1710071+9999OA149900821REMSYN076AAXX  09124 06643 33/// /0409 11042 21076 39537 40060 57007 333 91116 91211;
0128066430999992010010913004+47250+007783FM-12+041699999V0200501N004619999999N9999999N1-00401-00751100581ADDMA1999999095351MD1710101+9999OA149900671REMSYN076AAXX  09134 06643 33/// /0509 11040 21075 39535 40058 57010 333 91113 91210;
0128066430999992010010914004+47250+007783FM-12+041699999V0200501N003619999999N9999999N1-00401-00731100591ADDMA1999999095361MD1510021+9999OA149900671REMSYN076AAXX  09144 06643 33/// /0507 11040 21073 39536 40059 55002 333 91113 91210;
0128066430999992010010915004+47250+007783FM-12+041699999V0200601N003119999999N9999999N1-00411-00721100621ADDMA1999999095391MD1310021+9999OA149900771REMSYN076AAXX  09154 06643 33/// /0606 11041 21072 39539 40062 53002 333 91115 91210;
0128066430999992010010916004+47250+007783FM-12+041699999V0200801N002619999999N9999999N1-00411-00711100651ADDMA1999999095411MD1210061+9999OA149900511REMSYN076AAXX  09164 06643 33/// /0805 11041 21071 39541 40065 52006 333 91110 91207;
0128066430999992010010917004+47250+007783FM-12+041699999V0200701N003119999999N9999999N1-00421-00711100651ADDMA1999999095411MD1210051+9999OA149900511REMSYN076AAXX  09174 06643 33/// /0706 11042 21071 39541 40065 52005 333 91110 91206;
0189066430999992010010918004+47250+007783FM-12+041699999V0200601N001019999999N9999999N1-00441-00631100671ADDAA112000091KA1120M-00391MA1999999095431MD1210041+9999OA149900821REMSYN094AAXX  09184 06643 03/// /0602 11044 21063 39543 40067 52004 69922 333 11039 69925 91116 91211;EQDQ01  00002PRCP12
0145066430999992010010919004+47250+007783FM-12+041699999V0200501N002119999999N9999999N1-00461-00601100731ADDAA101000591MA1999999095481MD1310071+9999OA149900411REMSYN082AAXX  09194 06643 23/// /0504 11046 21060 39548 40073 53007 333 69965 91108 91206;
0145066430999992010010920004+47250+007783FM-12+041699999V0200901N001519999999N9999999N1-00451-00621100771ADDAA101000021MA1999999095521MD1110111+9999OA149900261REMSYN082AAXX  09204 06643 23/// /0903 11045 21062 39552 40077 51011 333 69915 91105 91204;
0145066430999992010010921004+47250+007783FM-12+041699999V0200701N001019999999N9999999N1-00471-00641100821ADDAA101000021MA1999999095561MD1110131+9999OA149900511REMSYN082AAXX  09214 06643 23/// /0702 11047 21064 39556 40082 51013 333 69925 91110 91206;
0145066430999992010010922004+47250+007783FM-12+041699999V0200901N001019999999N9999999N1-00481-00641100841ADDAA101000021MA1999999095581MD1110101+9999OA149900211REMSYN082AAXX  09224 06643 23/// /0902 11048 21064 39558 40084 51010 333 69925 91104 91203;
0128066430999992010010923004+47250+007783FM-12+041699999V0202101N000519999999N9999999N1-00491-00641100871ADDMA1999999095611MD1110091+9999OA149900211REMSYN076AAXX  09234 06643 33/// /2101 11049 21064 39561 40087 51009 333 91104 91203;
0151066430999992010011000004+47250+007783FM-12+041699999V0202401N000519999999N9999999N1-00491-00631100891ADDAA106001091MA1999999095631MD1310071+9999OA149900671REMSYN088AAXX  10004 06643 03/// /2401 11049 21063 39563 40089 53007 60011 333 60005 91113 91210;
0145066430999992010011001004+47250+007783FM-12+041699999V0209999C000019999999N9999999N1-00511-00611100941ADDAA101000391MA1999999095671MD1110091+9999OA149900101REMSYN082AAXX  10014 06643 23/// /0000 11051 21061 39567 40094 51009 333 69935 91102 91201;
0108066430999992010011002004+47250+007783FM-12+041699999V0201601N000519999999N9999999N1-00541-00661101001ADDAA101000021MA1999999095721REMSYN070AAXX  10024 06643 23/// /1601 11054 21066 39572 40100 5//// 333 69925;
0087066430999992010011003004+47250+007783FM-12+041699999V0202101N000519999999N9999999N1-00591-00691101061ADDMA1999999095771REMSYN060AAXX  10034 06643 43/// /2101 11059 21069 39577 40106 5////;
0128066430999992010011004004+47250+007783FM-12+041699999V0202101N000519999999N9999999N1-00551-00681101111ADDMA1999999095821MD1110151+9999OA149900101REMSYN076AAXX  10044 06643 33/// /2101 11055 21068 39582 40111 51015 333 91102 91202;
0128066430999992010011005004+47250+007783FM-12+041699999V0202301N000519999999N9999999N1-00621-00731101161ADDMA1999999095861MD1110141+9999OA149900101REMSYN076AAXX  10054 06643 33/// /2301 11062 21073 39586 40116 51014 333 91102 91201;
0229066430999992010011006004+47250+007783FM-12+041699999V0200601N000519999999N9999999N1-00701-00781101231ADDAA112002092AA224001892AL14800191GJ100009IA2999-01109KA1999N-00681MA1999999095911MD1310141+9999OA149900261REMSYN112AAXX  10064 06643 03/// /0601 11070 21078 39591 40123 53014 60022 333 21068 3/111 55000 60005 70018 91105 91204;
0128066430999992010011007004+47250+007783FM-12+041699999V0202501N000519999999N9999999N1-00871-00921101341ADDMA1999999095981MD1310161+9999OA149900101REMSYN076AAXX  10074 06643 33/// /2501 11087 21092 39598 40134 53016 333 91102 91201;
0128066430999992010011008004+47250+007783FM-12+041699999V0202501N000519999999N9999999N1-00821-00881101431ADDMA1999999096071MD1319999+9999OA149900101REMSYN076AAXX  10084 06643 33/// /2501 11082 21088 39607 40143 53/// 333 91102 91201;
0128066430999992010011009004+47250+007783FM-12+041699999V0202401N000519999999N9999999N1-00681-00821101481ADDMA1999999096151MD1310241+9999OA149900151REMSYN076AAXX  10094 06643 33/// /2401 11068 21082 39615 40148 53024 333 91103 91201;
0128066430999992010011010004+47250+007783FM-12+041699999V0202601N001019999999N9999999N1-00571-00811101501ADDMA1999999096191MD1110211+9999OA149900211REMSYN076AAXX  10104 06643 33/// /2602 11057 21081 39619 40150 51021 333 91104 91202;
0128066430999992010011011004+47250+007783FM-12+041699999V0202401N001019999999N9999999N1-00441-00651101531ADDMA1999999096241MD1110171+9999OA149900211REMSYN076AAXX  10114 06643 33/// /2402 11044 21065 39624 40153 51017 333 91104 91202;
0128066430999992010011012004+47250+007783FM-12+041699999V0202801N001019999999N9999999N1-00371-00651101521ADDMA1999999096251MD1110101+9999OA149900211REMSYN076AAXX  10124 06643 33/// /2802 11037 21065 39625 40152 51010 333 91104 91202;
0128066430999992010011013004+47250+007783FM-12+041699999V0202701N001519999999N9999999N1-00331-00641101531ADDMA1999999096261MD1110071+9999OA149900211REMSYN076AAXX  10134 06643 33/// /2703 11033 21064 39626 40153 51007 333 91104 91203;
0128066430999992010011014004+47250+007783FM-12+041699999V0202501N000519999999N9999999N1-00321-00681101581ADDMA1999999096311MD1319999+9999OA149900211REMSYN076AAXX  10144 06643 33/// /2501 11032 21068 39631 40158 53/// 333 91104 91203;
0128066430999992010011015004+47250+007783FM-12+041699999V0209999C000019999999N9999999N1-00321-00691101621ADDMA1999999096351MD1310101+9999OA149900211REMSYN076AAXX  10154 06643 33/// /0000 11032 21069 39635 40162 53010 333 91104 91203;
0128066430999992010011016004+47250+007783FM-12+041699999V0203501N001019999999N9999999N1-00331-00641101661ADDMA1999999096391MD1310131+9999OA149900151REMSYN076AAXX  10164 06643 33/// /3502 11033 21064 39639 40166 53013 333 91103 91202;
0128066430999992010011017004+47250+007783FM-12+041699999V0200701N001019999999N9999999N1-00371-00621101701ADDMA1999999096421MD1110111+9999OA149900151REMSYN076AAXX  10174 06643 33/// /0702 11037 21062 39642 40170 51011 333 91103 91202;
0147066430999992010011018004+47250+007783FM-12+041699999V0201201N000519999999N9999999N1-00431-00601101761ADDKA1120M-00311MA1999999096461MD1110111+9999OA149900211REMSYN082AAXX  10184 06643 33/// /1201 11043 21060 39646 40176 51011 333 11031 91104 91203;
0128066430999992010011019004+47250+007783FM-12+041699999V0209999C000019999999N9999999N1-00431-00581101771ADDMA1999999096471MD1110081+9999OA149900101REMSYN076AAXX  10194 06643 33/// /0000 11043 21058 39647 40177 51008 333 91102 91201;
0128066430999992010011020004+47250+007783FM-12+041699999V0201801N000519999999N9999999N1-00481-00641101801ADDMA1999999096491MD1210071+9999OA149900101REMSYN076AAXX  10204 06643 33/// /1801 11048 21064 39649 40180 52007 333 91102 91201;
0128066430999992010011021004+47250+007783FM-12+041699999V0209999C000019999999N9999999N1-00541-00681101801ADDMA1999999096481MD1210021+9999OA149900151REMSYN076AAXX  10214 06643 33/// /0000 11054 21068 39648 40180 52002 333 91103 91202;
0128066430999992010011022004+47250+007783FM-12+041699999V0200501N001019999999N9999999N1-00521-00671101811ADDMA1999999096491MD1210021+9999OA149900211REMSYN076AAXX  10224 06643 33/// /0502 11052 21067 39649 40181 52002 333 91104 91203;
0128066430999992010011023004+47250+007783FM-12+041699999V0200501N001019999999N9999999N1-00491-00691101801ADDMA1999999096491MD1010001+9999OA149900211REMSYN076AAXX  10234 06643 33/// /0502 11049 21069 39649 40180 50000 333 91104 91203;
0128066430999992010011100004+47250+007783FM-12+041699999V0209999C000019999999N9999999N1-00521-00691101831ADDMA1999999096511MD1210031+9999OA149900211REMSYN076AAXX  11004 06643 33/// /0000 11052 21069 39651 40183 52003 333 91104 91203;
0128066430999992010011101004+47250+007783FM-12+041699999V0202301N000519999999N9999999N1-00511-00681101831ADDMA1999999096511MD1210021+9999OA149900151REMSYN076AAXX  11014 06643 33/// /2301 11051 21068 39651 40183 52002 333 91103 91202;
0128066430999992010011102004+47250+007783FM-12+041699999V0209999C000019999999N9999999N1-00501-00691101851ADDMA1999999096531MD1219999+9999OA149900151REMSYN076AAXX  11024 06643 33/// /0000 11050 21069 39653 40185 52/// 333 91103 91202;
0128066430999992010011103004+47250+007783FM-12+041699999V0203601N000519999999N9999999N1-00501-00651101811ADDMA1999999096501MD1819999+9999OA149900211REMSYN076AAXX  11034 06643 33/// /3601 11050 21065 39650 40181 58/// 333 91104 91203;
0128066430999992010011104004+47250+007783FM-12+041699999V0201601N000519999999N9999999N1-00601-00741101841ADDMA1999999096511MD1010001+9999OA149900151REMSYN076AAXX  11044 06643 33/// /1601 11060 21074 39651 40184 50000 333 91103 91202;
0128066430999992010011105004+47250+007783FM-12+041699999V0200901N000519999999N9999999N1-00641-00761101831ADDMA1999999096491MD1710041+9999OA149900151REMSYN076AAXX  11054 06643 33/// /0901 11064 21076 39649 40183 57004 333 91103 91201;
0225066430999992010011106004+47250+007783FM-12+041699999V0202101N000519999999N9999999N1-00571-00691101821ADDAA124000091AL19900091GJ100009IA2999-00909KA1999N-00641MA1999999096491MD1710011+9999OA149900211REMSYN100AAXX  11064 06643 33/// /2101 11057 21069 39649 40182 57001 333 21064 3/109 55000 70000 91104 91203;EQDQ01  00002PRCP24
0128066430999992010011107004+47250+007783FM-12+041699999V0201901N000519999999N9999999N1-00591-00711101831ADDMA1999999096501MD1710011+9999OA149900101REMSYN076AAXX  11074 06643 33/// /1901 11059 21071 39650 40183 57001 333 91102 91201;
0128066430999992010011108004+47250+007783FM-12+041699999V0202101N000519999999N9999999N1-00571-00671101821ADDMA1999999096491MD1019999+9999OA149900151REMSYN076AAXX  11084 06643 33/// /2101 11057 21067 39649 40182 50/// 333 91103 91202;
0128066430999992010011109004+47250+007783FM-12+041699999V0202301N000519999999N9999999N1-00461-00641101841ADDMA1999999096531MD1210041+9999OA149900151REMSYN076AAXX  11094 06643 33/// /2301 11046 21064 39653 40184 52004 333 91103 91202;
0128066430999992010011110004+47250+007783FM-12+041699999V0202501N001519999999N9999999N1-00401-00691101851ADDMA1999999096551MD1319999+9999OA149900211REMSYN076AAXX  11104 06643 33/// /2503 11040 21069 39655 40185 53/// 333 91104 91203;
0128066430999992010011111004+47250+007783FM-12+041699999V0202601N001519999999N9999999N1-00331-00791101821ADDMA1999999096541MD1210051+9999OA149900361REMSYN076AAXX  11114 06643 33/// /2603 11033 21079 39654 40182 52005 333 91107 91204;
0128066430999992010011112004+47250+007783FM-12+041699999V0202401N002619999999N9999999N1-00351-00821101791ADDMA1999999096511MD1810021+9999OA149900571REMSYN076AAXX  11124 06643 33/// /2405 11035 21082 39651 40179 58002 333 91111 91205;
0128066430999992010011113004+47250+007783FM-12+041699999V0202501N002119999999N9999999N1-00291-00771101741ADDMA1999999096471MD1810081+9999OA149900571REMSYN076AAXX  11134 06643 33/// /2504 11029 21077 39647 40174 58008 333 91111 91205;
0087066430999992010011114004+47250+007783FM-12+041699999V0202401N001519999999N9999999N1-00261-00721101761ADDMA1999999096501REMSYN060AAXX  11144 06643 33/// /2403 11026 21072 39650 40176 5////;
0128066430999992010011115004+47250+007783FM-12+041699999V0202401N002119999999N9999999N1-00251-00721101781ADDMA1999999096521MD1310011+9999OA149900571REMSYN076AAXX  11154 06643 33/// /2404 11025 21072 39652 40178 53001 333 91111 91206;
0128066430999992010011116004+47250+007783FM-12+041699999V0202201N001019999999N9999999N1-00261-00671101821ADDMA1999999096551MD1110081+9999OA149900461REMSYN076AAXX  11164 06643 33/// /2202 11026 21067 39655 40182 51008 333 91109 91205;
0128066430999992010011117004+47250+007783FM-12+041699999V0202101N000519999999N9999999N1-00281-00641101851ADDMA1999999096581MD1110081+9999OA149900361REMSYN076AAXX  11174 06643 33/// /2101 11028 21064 39658 40185 51008 333 91107 91203;
0147066430999992010011118004+47250+007783FM-12+041699999V0201501N000519999999N9999999N1-00331-00551101891ADDKA1120M-00251MA1999999096611MD1310091+9999OA149900571REMSYN082AAXX  11184 06643 33/// /1501 11033 21055 39661 40189 53009 333 11025 91111 91206;
0128066430999992010011119004+47250+007783FM-12+041699999V0201701N000519999999N9999999N1-00331-00551101931ADDMA1999999096641MD1110091+9999OA149900151REMSYN076AAXX  11194 06643 33/// /1701 11033 21055 39664 40193 51009 333 91103 91202;
0128066430999992010011120004+47250+007783FM-12+041699999V0200601N000519999999N9999999N1-00331-00541101951ADDMA1999999096661MD1210081+9999OA149900101REMSYN076AAXX  11204 06643 33/// /0601 11033 21054 39666 40195 52008 333 91102 91201;
0128066430999992010011121004+47250+007783FM-12+041699999V0209999C000019999999N9999999N1-00351-00521101961ADDMA1999999096671MD1210061+9999OA149900361REMSYN076AAXX  11214 06643 33/// /0000 11035 21052 39667 40196 52006 333 91107 91203;
0128066430999992010011122004+47250+007783FM-12+041699999V0201701N000519999999N9999999N1-00341-00501101961ADDMA1999999096671MD1010031+9999OA149900051REMSYN076AAXX  11224 06643 33/// /1701 11034 21050 39667 40196 50003 333 91101 91201;
0128066430999992010011123004+47250+007783FM-12+041699999V0202201N000519999999N9999999N1-00341-00521101981ADDMA1999999096691MD1310031+9999OA149900101REMSYN076AAXX  11234 06643 33/// /2201 11034 21052 39669 40198 53003 333 91102 91201;
0128066430999992010011200004+47250+007783FM-12+041699999V0201501N000519999999N9999999N1-00341-00481101971ADDMA1999999096681MD1210011+9999OA149900511REMSYN076AAXX  12004 06643 33/// /1501 11034 21048 39668 40197 52001 333 91110 91206;
0128066430999992010011201004+47250+007783FM-12+041699999V0202101N000519999999N9999999N1-00341-00491101971ADDMA1999999096681MD1010011+9999OA149900101REMSYN076AAXX  12014 06643 33/// /2101 11034 21049 39668 40197 50001 333 91102 91201;
0145066430999992010011202004+47250+007783FM-12+041699999V0201501N000519999999N9999999N1-00351-00471101961ADDAA101000021MA1999999096671MD1719999+9999OA149900101REMSYN082AAXX  12024 06643 23/// /1501 11035 21047 39667 40196 57/// 333 69915 91102 91201;
0128066430999992010011203004+47250+007783FM-12+041699999V0200701N001019999999N9999999N1-00351-00481101941ADDMA1999999096651MD1710031+9999OA149900101REMSYN076AAXX  12034 06643 33/// /0702 11035 21048 39665 40194 57003 333 91102 91202;
0128066430999992010011204004+47250+007783FM-12+041699999V0209999C000019999999N9999999N1-00381-00491101941ADDMA1999999096641MD1710041+9999OA149900101REMSYN076AAXX  12044 06643 33/// /0000 11038 21049 39664 40194 57004 333 91102 91202;
0128066430999992010011205004+47250+007783FM-12+041699999V0209999C000019999999N9999999N1-00371-00491101911ADDMA1999999096621MD1710051+9999OA149900101REMSYN076AAXX  12054 06643 33/// /0000 11037 21049 39662 40191 57005 333 91102 91201;
0264066430999992010011206004+47250+007783FM-12+041699999V0201001N000519999999N9999999N1-00391-00491101881ADDAA112000091AA224000091AL10600091GJ100009IA2999-00509KA1999N-00411MA1999999096581MD1710071+9999OA149900101REMSYN112AAXX  12064 06643 03/// /1001 11039 21049 39658 40188 57007 69912 333 21041 3/105 55000 60005 70001 91102 91202;EQDQ01  00002PRCP24Q02  00002PRCP12
0128066430999992010011207004+47250+007783FM-12+041699999V0201101N000519999999N9999999N1-00481-00581101851ADDMA1999999096541MD1710101+9999OA149900101REMSYN076AAXX  12074 06643 33/// /1101 11048 21058 39654 40185 57010 333 91102 91201;
0128066430999992010011208004+47250+007783FM-12+041699999V0209999C000019999999N9999999N1-00471-00551101811ADDMA1999999096501MD1719999+9999OA149900101REMSYN076AAXX  12084 06643 33/// /0000 11047 21055 39650 40181 57/// 333 91102 91201;
0128066430999992010011209004+47250+007783FM-12+041699999V0200701N000519999999N9999999N1-00351-00481101721ADDMA1999999096441MD1710141+9999OA149900101REMSYN076AAXX  12094 06643 33/// /0701 11035 21048 39644 40172 57014 333 91102 91201;
0128066430999992010011210004+47250+007783FM-12+041699999V0200601N000519999999N9999999N1-00311-00471101651ADDMA1999999096381MD1810161+9999OA149900101REMSYN076AAXX  12104 06643 33/// /0601 11031 21047 39638 40165 58016 333 91102 91202;
0128066430999992010011211004+47250+007783FM-12+041699999V0200701N000519999999N9999999N1-00281-00481101561ADDMA1999999096301MD1810201+9999OA149900101REMSYN076AAXX  12114 06643 33/// /0701 11028 21048 39630 40156 58020 333 91102 91202;
0128066430999992010011212004+47250+007783FM-12+041699999V0201501N000519999999N9999999N1-00221-00541101461ADDMA1999999096221MD1810221+9999OA149900151REMSYN076AAXX  12124 06643 33/// /1501 11022 21054 39622 40146 58022 333 91103 91202;
0128066430999992010011213004+47250+007783FM-12+041699999V0202501N001019999999N9999999N1-00221-00571101391ADDMA1999999096151MD1610231+9999OA149900211REMSYN076AAXX  12134 06643 33/// /2502 11022 21057 39615 40139 56023 333 91104 91202;
0087066430999992010011214004+47250+007783FM-12+041699999V0201601N001019999999N9999999N1-00241-00561101291ADDMA1999999096051REMSYN060AAXX  12144 06643 33/// /1602 11024 21056 39605 40129 5////;
0128066430999992010011215004+47250+007783FM-12+041699999V0202501N001019999999N9999999N1-00231-00561101241ADDMA1999999096011MD1610211+9999OA149900261REMSYN076AAXX  12154 06643 33/// /2502 11023 21056 39601 40124 56021 333 91105 91203;
0128066430999992010011216004+47250+007783FM-12+041699999V0202301N000519999999N9999999N1-00261-00561101131ADDMA1999999095901MD1710251+9999OA149900261REMSYN076AAXX  12164 06643 33/// /2301 11026 21056 39590 40113 57025 333 91105 91203;
0128066430999992010011217004+47250+007783FM-12+041699999V0202801N000519999999N9999999N1-00261-00551101091ADDMA1999999095861MD1710191+9999OA149900211REMSYN076AAXX  12174 06643 33/// /2801 11026 21055 39586 40109 57019 333 91104 91203;
0147066430999992010011218004+47250+007783FM-12+041699999V0201101N001019999999N9999999N1-00261-00501101041ADDKA1120M-00211MA1999999095811MD1710201+9999OA149900261REMSYN082AAXX  12184 06643 33/// /1102 11026 21050 39581 40104 57020 333 11021 91105 91203;
0128066430999992010011219004+47250+007783FM-12+041699999V0201501N001019999999N9999999N1-00251-00511101011ADDMA1999999095791MD1710111+9999OA149900261REMSYN076AAXX  12194 06643 33/// /1502 11025 21051 39579 40101 57011 333 91105 91202;
0128066430999992010011220004+47250+007783FM-12+041699999V0200501N001019999999N9999999N1-00251-00511100961ADDMA1999999095741MD1610121+9999OA149900261REMSYN076AAXX  12204 06643 33/// /0502 11025 21051 39574 40096 56012 333 91105 91202;
0128066430999992010011221004+47250+007783FM-12+041699999V0202401N000519999999N9999999N1-00271-00481100901ADDMA1999999095681MD1810131+9999OA149900261REMSYN076AAXX  12214 06643 33/// /2401 11027 21048 39568 40090 58013 333 91105 91203;
0128066430999992010011222004+47250+007783FM-12+041699999V0202401N001019999999N9999999N1-00271-00471100841ADDMA1999999095621MD1810171+9999OA149900211REMSYN076AAXX  12224 06643 33/// /2402 11027 21047 39562 40084 58017 333 91104 91202;
0128066430999992010011223004+47250+007783FM-12+041699999V0202301N002619999999N9999999N1-00281-00481100841ADDMA1999999095621MD1710121+9999OA149900461REMSYN076AAXX  12234 06643 33/// /2305 11028 21048 39562 40084 57012 333 91109 91205;
0128066430999992010011300004+47250+007783FM-12+041699999V0202201N002119999999N9999999N1-00291-00521100931ADDMA1999999095701MD1310021+9999OA149900511REMSYN076AAXX  13004 06643 33/// /2204 11029 21052 39570 40093 53002 333 91110 91205;
0128066430999992010011301004+47250+007783FM-12+041699999V0202101N001019999999N9999999N1-00291-00511100901ADDMA1999999095671MD1210051+9999OA149900511REMSYN076AAXX  13014 06643 33/// /2102 11029 21051 39567 40090 52005 333 91110 91205;
0128066430999992010011302004+47250+007783FM-12+041699999V0201701N000519999999N9999999N1-00311-00511100851ADDMA1999999095621MD1819999+9999OA149900311REMSYN076AAXX  13024 06643 33/// /1701 11031 21051 39562 40085 58/// 333 91106 91203;
0128066430999992010011303004+47250+007783FM-12+041699999V0201201N000519999999N9999999N1-00301-00511100791ADDMA1999999095571MD1719999+9999OA149900511REMSYN076AAXX  13034 06643 33/// /1201 11030 21051 39557 40079 57/// 333 91110 91205;
0128066430999992010011304004+47250+007783FM-12+041699999V0209999C000019999999N9999999N1-00301-00511100731ADDMA1999999095511MD1810161+9999OA149900101REMSYN076AAXX  13044 06643 33/// /0000 11030 21051 39551 40073 58016 333 91102 91202;
0128066430999992010011305004+47250+007783FM-12+041699999V0201801N001019999999N9999999N1-00291-00481100731ADDMA1999999095511MD1710111+9999OA149900151REMSYN076AAXX  13054 06643 33/// /1802 11029 21048 39551 40073 57011 333 91103 91202;
0225066430999992010011306004+47250+007783FM-12+041699999V0202101N001519999999N9999999N1-00271-00501100761ADDAA124000091AL19900091GJ100009IA2999-00309KA1999N-00311MA1999999095551MD1510021+9999OA149900511REMSYN100AAXX  13064 06643 33/// /2103 11027 21050 39555 40076 55002 333 21031 3/103 55000 70000 91110 91205;EQDQ01  00002PRCP24
0128066430999992010011307004+47250+007783FM-12+041699999V0202201N001519999999N9999999N1-00281-00431100831ADDMA1999999095611MD1210101+9999OA149900311REMSYN076AAXX  13074 06643 33/// /2203 11028 21043 39561 40083 52010 333 91106 91203;
0145066430999992010011308004+47250+007783FM-12+041699999V0202201N001519999999N9999999N1-00271-00401100861ADDAA101000391MA1999999095641MD1310131+9999OA149900361REMSYN082AAXX  13084 06643 23/// /2203 11027 21040 39564 40086 53013 333 69935 91107 91203;
0145066430999992010011309004+47250+007783FM-12+041699999V0202301N001519999999N9999999N1-00221-00351100911ADDAA101000021MA1999999095701MD1310151+9999OA149900361REMSYN082AAXX  13094 06643 23/// /2303 11022 21035 39570 40091 53015 333 69925 91107 91204;
0145066430999992010011310004+47250+007783FM-12+041699999V0202401N002119999999N9999999N1-00191-00331100971ADDAA101000591MA1999999095761MD1310151+9999OA149900461REMSYN082AAXX  13104 06643 23/// /2404 11019 21033 39576 40097 53015 333 69945 91109 91205;
0145066430999992010011311004+47250+007783FM-12+041699999V0202301N001519999999N9999999N1-00141-00291100961ADDAA101000391MA1999999095761MD1210121+9999OA149900461REMSYN082AAXX  13114 06643 23/// /2303 11014 21029 39576 40096 52012 333 69935 91109 91205;
0151066430999992010011312004+47250+007783FM-12+041699999V0202401N002119999999N9999999N1-00071-00251100911ADDAA106001091MA1999999095731MD1010031+9999OA149900461REMSYN088AAXX  13124 06643 03/// /2404 11007 21025 39573 40091 50003 60011 333 69915 91109 91205;
0145066430999992010011313004+47250+007783FM-12+041699999V0202301N002119999999N9999999N1-00021-00141100891ADDAA101000391MA1999999095721MD1710041+9999OA149900461REMSYN082AAXX  13134 06643 23/// /2304 11002 21014 39572 40089 57004 333 69935 91109 91205;
0145066430999992010011314004+47250+007783FM-12+041699999V0202301N002619999999N9999999N1+00031-00141100901ADDAA101000021MA1999999095741MD1519999+9999OA149900461REMSYN082AAXX  13144 06643 23/// /2305 10003 21014 39574 40090 55/// 333 69915 91109 91205;
0128066430999992010011315004+47250+007783FM-12+041699999V0202301N002619999999N9999999N1+00071-00131100931ADDMA1999999095771MD1210041+9999OA149900511REMSYN076AAXX  13154 06643 33/// /2305 10007 21013 39577 40093 52004 333 91110 91205;
0128066430999992010011316004+47250+007783FM-12+041699999V0202301N002119999999N9999999N1+00061-00071100971ADDMA1999999095811MD1310091+9999OA149900621REMSYN076AAXX  13164 06643 33/// /2304 10006 21007 39581 40097 53009 333 91112 91206;
0145066430999992010011317004+47250+007783FM-12+041699999V0202201N001519999999N9999999N1+00061-00041101011ADDAA101000021MA1999999095851MD1310111+9999OA149900621REMSYN082AAXX  13174 06643 23/// /2203 10006 21004 39585 40101 53011 333 69915 91112 91206;
0170066430999992010011318004+47250+007783FM-12+041699999V0202201N001519999999N9999999N1+00081-00021101061ADDAA112002091KA1120M+00091MA1999999095901MD1310131+9999OA149900621REMSYN094AAXX  13184 06643 03/// /2203 10008 21002 39590 40106 53013 60022 333 10009 60005 91112 91206;
0145066430999992010011319004+47250+007783FM-12+041699999V0202401N000519999999N9999999N1+00101+00001101081ADDAA101000021MA1999999095921MD1110111+9999OA149900361REMSYN082AAXX  13194 06643 23/// /2401 10010 20000 39592 40108 51011 333 69915 91107 91204;
0128066430999992010011320004+47250+007783FM-12+041699999V0202401N000519999999N9999999N1+00081+00011101101ADDMA1999999095931MD1110081+9999OA149900361REMSYN076AAXX  13204 06643 33/// /2401 10008 20001 39593 40110 51008 333 91107 91203;
0128066430999992010011321004+47250+007783FM-12+041699999V0200801N001019999999N9999999N1+00041-00031101081ADDMA1999999095911MD1010011+9999OA149900621REMSYN076AAXX  13214 06643 33/// /0802 10004 21003 39591 40108 50001 333 91112 91206;
0128066430999992010011322004+47250+007783FM-12+041699999V0209999C000019999999N9999999N1+00031-00031101071ADDMA1999999095901MD1810021+9999OA149900101REMSYN076AAXX  13224 06643 33/// /0000 10003 21003 39590 40107 58002 333 91102 91202;
0128066430999992010011323004+47250+007783FM-12+041699999V0200501N001019999999N9999999N1+00051-00021101041ADDMA1999999095871MD1710061+9999OA149900151REMSYN076AAXX  13234 06643 33/// /0502 10005 21002 39587 40104 57006 333 91103 91202;
0170066430999992010011400004+47250+007783FM-12+041699999V0200601N001519999999N9999999N1+00071-00021100981ADDAA106000091MA1999999095821MD1710091+9999OA149900621REMSYN088AAXX  14004 06643 03/// /0603 10007 21002 39582 40098 57009 69911 333 60005 91112 91206;EQDQ01  00002PRCP06
0128066430999992010011401004+47250+007783FM-12+041699999V0200601N001019999999N9999999N1+00081-00011100921ADDMA1999999095761MD1710141+9999OA149900151REMSYN076AAXX  14014 06643 33/// /0602 10008 21001 39576 40092 57014 333 91103 91203;
0128066430999992010011402004+47250+007783FM-12+041699999V0201801N000519999999N9999999N1+00061+00001100921ADDMA1999999095761MD1719999+9999OA149900151REMSYN076AAXX  14024 06643 33/// /1801 10006 20000 39576 40092 57/// 333 91103 91202;
0087066430999992010011403004+47250+007783FM-12+041699999V0202001N000519999999N9999999N1+00051+00001100901ADDMA1999999095741REMSYN060AAXX  14034 06643 33/// /2001 10005 20000 39574 40090 5////;
0128066430999992010011404004+47250+007783FM-12+041699999V0201501N000519999999N9999999N1+00051+00001100871ADDMA1999999095711MD1710051+9999OA149900101REMSYN076AAXX  14044 06643 33/// /1501 10005 20000 39571 40087 57005 333 91102 91201;
0128066430999992010011405004+47250+007783FM-12+041699999V0209999C000019999999N9999999N1+00041-00021100841ADDMA1999999095681MD1710081+9999OA149900101REMSYN076AAXX  14054 06643 33/// /0000 10004 21002 39568 40084 57008 333 91102 91201;
0248066430999992010011406004+47250+007783FM-12+041699999V0209999C000019999999N9999999N1+00071-00021100811ADDAA112000091AA224001891AL14800191GJ100009IA2999-00109KA1999N+00001MA1999999095661MD1610081+9999OA149900361REMSYN112AAXX  14064 06643 03/// /0000 10007 21002 39566 40081 56008 69912 333 20000 3/101 55000 60005 70019 91107 91203;EQDQ01  00002PRCP12
0128066430999992010011407004+47250+007783FM-12+041699999V0201201N001019999999N9999999N1+00061-00051100791ADDMA1999999095641MD1710071+9999OA149900311REMSYN076AAXX  14074 06643 33/// /1202 10006 21005 39564 40079 57007 333 91106 91203;
0128066430999992010011408004+47250+007783FM-12+041699999V0200401N001519999999N9999999N1+00051-00031100761ADDMA1999999095611MD1719999+9999OA149900311REMSYN076AAXX  14084 06643 33/// /0403 10005 21003 39561 40076 57/// 333 91106 91203;
0128066430999992010011409004+47250+007783FM-12+041699999V0200501N001519999999N9999999N1+00081-00011100761ADDMA1999999095611MD1710051+9999OA149900311REMSYN076AAXX  14094 06643 33/// /0503 10008 21001 39561 40076 57005 333 91106 91203;
0128066430999992010011410004+47250+007783FM-12+041699999V0200401N002119999999N9999999N1+00111+00001100741ADDMA1999999095601MD1710041+9999OA149900361REMSYN076AAXX  14104 06643 33/// /0404 10011 20000 39560 40074 57004 333 91107 91205;
0128066430999992010011411004+47250+007783FM-12+041699999V0200501N003619999999N9999999N1+00111-00031100691ADDMA1999999095551MD1710061+9999OA149900511REMSYN076AAXX  14114 06643 33/// /0507 10011 21003 39555 40069 57006 333 91110 91207;
0128066430999992010011412004+47250+007783FM-12+041699999V0200501N003119999999N9999999N1+00121-00041100631ADDMA1999999095501MD1810111+9999OA149900671REMSYN076AAXX  14124 06643 33/// /0506 10012 21004 39550 40063 58011 333 91113 91209;
0128066430999992010011413004+47250+007783FM-12+041699999V0200501N001519999999N9999999N1+00131-00041100641ADDMA1999999095511MD1710091+9999OA149900671REMSYN076AAXX  14134 06643 33/// /0503 10013 21004 39551 40064 57009 333 91113 91209;
0147066430999992010011414004+47250+007783FM-12+041699999V0200901N000519999999N9999999N1+00111-00011100691ADDMA1999999095551MD1410001+9999OA149900461REMSYN076AAXX  14144 06643 33/// /0901 10011 21001 39555 40069 53000 333 91109 91206;EQDQ01+000032APCTEN
0128066430999992010011415004+47250+007783FM-12+041699999V0201001N000519999999N9999999N1+00131-00011100681ADDMA1999999095551MD1210051+9999OA149900671REMSYN076AAXX  14154 06643 33/// /1001 10013 21001 39555 40068 52005 333 91113 91209;
0128066430999992010011416004+47250+007783FM-12+041699999V0200801N000519999999N9999999N1+00111-00011100711ADDMA1999999095571MD1210061+9999OA149900211REMSYN076AAXX  14164 06643 33/// /0801 10011 21001 39557 40071 52006 333 91104 91203;
0128066430999992010011417004+47250+007783FM-12+041699999V0200901N001019999999N9999999N1+00131-00021100761ADDMA1999999095621MD1210071+9999OA149900211REMSYN076AAXX  14174 06643 33/// /0902 10013 21002 39562 40076 52007 333 91104 91203;
0147066430999992010011418004+47250+007783FM-12+041699999V0200701N001019999999N9999999N1+00141+00001100821ADDKA1120M+00151MA1999999095681MD1210131+9999OA149900671REMSYN082AAXX  14184 06643 33/// /0702 10014 20000 39568 40082 52013 333 10015 91113 91209;
0128066430999992010011419004+47250+007783FM-12+041699999V0200801N001019999999N9999999N1+00151-00011100931ADDMA1999999095791MD1310221+9999OA149900151REMSYN076AAXX  14194 06643 33/// /0802 10015 21001 39579 40093 53022 333 91103 91203;
0128066430999992010011420004+47250+007783FM-12+041699999V0200901N001019999999N9999999N1+00141-00021101011ADDMA1999999095861MD1210241+9999OA149900151REMSYN076AAXX  14204 06643 33/// /0902 10014 21002 39586 40101 52024 333 91103 91203;
0128066430999992010011421004+47250+007783FM-12+041699999V0209999C000019999999N9999999N1+00121+00001101111ADDMA1999999095951MD1210271+9999OA149900211REMSYN076AAXX  14214 06643 33/// /0000 10012 20000 39595 40111 52027 333 91104 91203;
0128066430999992010011422004+47250+007783FM-12+041699999V0202201N000519999999N9999999N1+00101+00011101221ADDMA1999999096051MD1310261+9999OA149900101REMSYN076AAXX  14224 06643 33/// /2201 10010 20001 39605 40122 53026 333 91102 91201;
0128066430999992010011423004+47250+007783FM-12+041699999V0209999C000019999999N9999999N1+00071+00011101301ADDMA1999999096121MD1210261+9999OA149900101REMSYN076AAXX  14234 06643 33/// /0000 10007 20001 39612 40130 52026 333 91102 91201;
0128066430999992010011500004+47250+007783FM-12+041699999V0202401N000519999999N9999999N1+00091-00011101351ADDMA1999999096171MD1110221+9999OA149900461REMSYN076AAXX  15004 06643 33/// /2401 10009 21001 39617 40135 51022 333 91109 91206;
0128066430999992010011501004+47250+007783FM-12+041699999V0201901N001019999999N9999999N1+00091-00091101411ADDMA1999999096231MD1110181+9999OA149900211REMSYN076AAXX  15014 06643 33/// /1902 10009 21009 39623 40141 51018 333 91104 91202;
0128066430999992010011502004+47250+007783FM-12+041699999V0201801N000519999999N9999999N1+00051-00051101531ADDMA1999999096341MD1310221+9999OA149900211REMSYN076AAXX  15024 06643 33/// /1801 10005 21005 39634 40153 53022 333 91104 91202;
0087066430999992010011503004+47250+007783FM-12+041699999V0201601N000519999999N9999999N1+00041-00051101611ADDMA1999999096411REMSYN060AAXX  15034 06643 33/// /1601 10004 21005 39641 40161 5////;
0128066430999992010011504004+47250+007783FM-12+041699999V0202201N000519999999N9999999N1+00041-00051101691ADDMA1999999096491MD1210261+9999OA149900101REMSYN076AAXX  15044 06643 33/// /2201 10004 21005 39649 40169 52026 333 91102 91201;
0128066430999992010011505004+47250+007783FM-12+041699999V0202101N000519999999N9999999N1+00051-00051101771ADDMA1999999096561MD1210221+9999OA149900101REMSYN076AAXX  15054 06643 33/// /2101 10005 21005 39656 40177 52022 333 91102 91201;
0225066430999992010011506004+47250+007783FM-12+041699999V0209999C000019999999N9999999N1+00051-00021101881ADDAA124000091AL19900091GJ100009IA2999+00009KA1999N+00031MA1999999096671MD1310261+9999OA149900211REMSYN100AAXX  15064 06643 33/// /0000 10005 21002 39667 40188 53026 333 20003 3/100 55000 70000 91104 91203;EQDQ01  00002PRCP24
0128066430999992010011507004+47250+007783FM-12+041699999V0209999C000019999999N9999999N1+00051-00031101991ADDMA1999999096771MD1310281+9999OA149900151REMSYN076AAXX  15074 06643 33/// /0000 10005 21003 39677 40199 53028 333 91103 91201;
0128066430999992010011508004+47250+007783FM-12+041699999V0209999C000019999999N9999999N1+00051-00021102081ADDMA1999999096861MD1219999+9999OA149900101REMSYN076AAXX  15084 06643 33/// /0000 10005 21002 39686 40208 52/// 333 91102 91201;
0128066430999992010011509004+47250+007783FM-12+041699999V0209999C000019999999N9999999N1+00081-00011102161ADDMA1999999096941MD1110271+9999OA149900151REMSYN076AAXX  15094 06643 33/// /0000 10008 21001 39694 40216 51027 333 91103 91201;
0128066430999992010011510004+47250+007783FM-12+041699999V0202601N000519999999N9999999N1+00161-00071102211ADDMA1999999097001MD1110231+9999OA149900151REMSYN076AAXX  15104 06643 33/// /2601 10016 21007 39700 40221 51023 333 91103 91201;
0128066430999992010011511004+47250+007783FM-12+041699999V0202201N001519999999N9999999N1+00211-00071102221ADDMA1999999097021MD1210161+9999OA149900261REMSYN076AAXX  15114 06643 33/// /2203 10021 21007 39702 40222 52016 333 91105 91203;
0128066430999992010011512004+47250+007783FM-12+041699999V0202601N001519999999N9999999N1+00211-00101102281ADDMA1999999097081MD1210141+9999OA149900361REMSYN076AAXX  15124 06643 33/// /2603 10021 21010 39708 40228 52014 333 91107 91204;
0128066430999992010011513004+47250+007783FM-12+041699999V0202001N001519999999N9999999N1+00211-00091102331ADDMA1999999097131MD1210131+9999OA149900361REMSYN076AAXX  15134 06643 33/// /2003 10021 21009 39713 40233 52013 333 91107 91204;
0128066430999992010011514004+47250+007783FM-12+041699999V0202001N000519999999N9999999N1+00221-00081102371ADDMA1999999097171MD1210151+9999OA149900311REMSYN076AAXX  15144 06643 33/// /2001 10022 21008 39717 40237 52015 333 91106 91203;
0128066430999992010011515004+47250+007783FM-12+041699999V0201701N000519999999N9999999N1+00171+00011102451ADDMA1999999097231MD1210151+9999OA149900361REMSYN076AAXX  15154 06643 33/// /1701 10017 20001 39723 40245 52015 333 91107 91204;
0128066430999992010011516004+47250+007783FM-12+041699999V0200901N000519999999N9999999N1+00171+00001102501ADDMA1999999097281MD1210151+9999OA149900151REMSYN076AAXX  15164 06643 33/// /0901 10017 20000 39728 40250 52015 333 91103 91201;
0128066430999992010011517004+47250+007783FM-12+041699999V0201101N001019999999N9999999N1+00161-00051102571ADDMA1999999097341MD1210171+9999OA149900151REMSYN076AAXX  15174 06643 33/// /1102 10016 21005 39734 40257 52017 333 91103 91202;
0147066430999992010011518004+47250+007783FM-12+041699999V0200901N001019999999N9999999N1+00131-00031102601ADDKA1120M+00231MA1999999097371MD1110141+9999OA149900361REMSYN082AAXX  15184 06643 33/// /0902 10013 21003 39737 40260 51014 333 10023 91107 91204;
0128066430999992010011519004+47250+007783FM-12+041699999V0200801N001019999999N9999999N1+00131-00061102631ADDMA1999999097401MD1110121+9999OA149900211REMSYN076AAXX  15194 06643 33/// /0802 10013 21006 39740 40263 51012 333 91104 91203;
0128066430999992010011520004+47250+007783FM-12+041699999V0200701N001019999999N9999999N1+00121-00071102641ADDMA1999999097401MD1210061+9999OA149900261REMSYN076AAXX  15204 06643 33/// /0702 10012 21007 39740 40264 52006 333 91105 91203;
0128066430999992010011521004+47250+007783FM-12+041699999V0200501N001519999999N9999999N1+00101-00091102631ADDMA1999999097391MD1210021+9999OA149900461REMSYN076AAXX  15214 06643 33/// /0503 10010 21009 39739 40263 52002 333 91109 91204;
0128066430999992010011522004+47250+007783FM-12+041699999V0200601N002119999999N9999999N1+00111-00121102641ADDMA1999999097401MD1510001+9999OA149900461REMSYN076AAXX  15224 06643 33/// /0604 10011 21012 39740 40264 55000 333 91109 91204;
0128066430999992010011523004+47250+007783FM-12+041699999V0200701N001519999999N9999999N1+00091-00121102651ADDMA1999999097411MD1210011+9999OA149900361REMSYN076AAXX  15234 06643 33/// /0703 10009 21012 39741 40265 52001 333 91107 91204;
0128066430999992010011600004+47250+007783FM-12+041699999V0201401N000519999999N9999999N1+00051-00111102651ADDMA1999999097401MD1010011+9999OA149900461REMSYN076AAXX  16004 06643 33/// /1401 10005 21011 39740 40265 50001 333 91109 91204;
0128066430999992010011601004+47250+007783FM-12+041699999V0201901N000519999999N9999999N1+00051-00131102631ADDMA1999999097381MD1710021+9999OA149900211REMSYN076AAXX  16014 06643 33/// /1901 10005 21013 39738 40263 57002 333 91104 91202;
0128066430999992010011602004+47250+007783FM-12+041699999V0202001N001019999999N9999999N1+00021-00161102621ADDMA1999999097371MD1710041+9999OA149900311REMSYN076AAXX  16024 06643 33/// /2002 10002 21016 39737 40262 57004 333 91106 91203;
0128066430999992010011603004+47250+007783FM-12+041699999V0202301N001019999999N9999999N1+00011-00201102581ADDMA1999999097331MD1819999+9999OA149900361REMSYN076AAXX  16034 06643 33/// /2302 10001 21020 39733 40258 58/// 333 91107 91204;
0128066430999992010011604004+47250+007783FM-12+041699999V0202101N001519999999N9999999N1-00031-00211102581ADDMA1999999097321MD1710061+9999OA149900311REMSYN076AAXX  16044 06643 33/// /2103 11003 21021 39732 40258 57006 333 91106 91203;
0128066430999992010011605004+47250+007783FM-12+041699999V0202201N001519999999N9999999N1-00071-00241102531ADDMA1999999097261MD1710111+9999OA149900361REMSYN076AAXX  16054 06643 33/// /2203 11007 21024 39726 40253 57011 333 91107 91203;
0225066430999992010011606004+47250+007783FM-12+041699999V0201501N001019999999N9999999N1-00091-00231102471ADDAA124000091AL19900091GJ100129IA2999-00109KA1999N-00081MA1999999097201MD1710131+9999OA149900461REMSYN100AAXX  16064 06643 33/// /1502 11009 21023 39720 40247 57013 333 21008 3/101 55002 70000 91109 91204;EQDQ01  00002PRCP24
0128066430999992010011607004+47250+007783FM-12+041699999V0201401N001519999999N9999999N1-00101-00241102431ADDMA1999999097161MD1710161+9999OA149900311REMSYN076AAXX  16074 06643 33/// /1403 11010 21024 39716 40243 57016 333 91106 91203;
0128066430999992010011608004+47250+007783FM-12+041699999V0201701N001519999999N9999999N1-00071-00261102381ADDMA1999999097121MD1710141+9999OA149900361REMSYN076AAXX  16084 06643 33/// /1703 11007 21026 39712 40238 57014 333 91107 91203;
0128066430999992010011609004+47250+007783FM-12+041699999V0201701N002119999999N9999999N1-00101-00331102341ADDMA1999999097081MD1710121+9999OA149900411REMSYN076AAXX  16094 06643 33/// /1704 11010 21033 39708 40234 57012 333 91108 91204;
0128066430999992010011610004+47250+007783FM-12+041699999V0201601N002119999999N9999999N1-00091-00321102321ADDMA1999999097061MD1710101+9999OA149900411REMSYN076AAXX  16104 06643 33/// /1604 11009 21032 39706 40232 57010 333 91108 91205;
0128066430999992010011611004+47250+007783FM-12+041699999V0202101N002119999999N9999999N1-00041-00241102241ADDMA1999999096991MD1710131+9999OA149900461REMSYN076AAXX  16114 06643 33/// /2104 11004 21024 39699 40224 57013 333 91109 91205;
0128066430999992010011612004+47250+007783FM-12+041699999V0202101N002619999999N9999999N1+00011-00231102191ADDMA1999999096961MD1710121+9999OA149900511REMSYN076AAXX  16124 06643 33/// /2105 10001 21023 39696 40219 57012 333 91110 91205;
0128066430999992010011613004+47250+007783FM-12+041699999V0202101N002119999999N9999999N1+00061-00251102131ADDMA1999999096911MD1710151+9999OA149900511REMSYN076AAXX  16134 06643 33/// /2104 10006 21025 39691 40213 57015 333 91110 91205;
0128066430999992010011614004+47250+007783FM-12+041699999V0202101N002119999999N9999999N1+00061-00271102031ADDMA1999999096811MD1819999+9999OA149900461REMSYN076AAXX  16144 06643 33/// /2104 10006 21027 39681 40203 58/// 333 91109 91205;
0128066430999992010011615004+47250+007783FM-12+041699999V0202201N002119999999N9999999N1+00061-00261102031ADDMA1999999096811MD1710151+9999OA149900511REMSYN076AAXX  16154 06643 33/// /2204 10006 21026 39681 40203 57015 333 91110 91205;
0128066430999992010011616004+47250+007783FM-12+041699999V0202201N001519999999N9999999N1+00071-00271101971ADDMA1999999096761MD1710151+9999OA149900571REMSYN076AAXX  16164 06643 33/// /2203 10007 21027 39676 40197 57015 333 91111 91206;
0128066430999992010011617004+47250+007783FM-12+041699999V0202201N001519999999N9999999N1+00021-00251102011ADDMA1999999096791MD1510021+9999OA149900571REMSYN076AAXX  16174 06643 33/// /2203 10002 21025 39679 40201 55002 333 91111 91206;
0147066430999992010011618004+47250+007783FM-12+041699999V0202301N002119999999N9999999N1+00051-00261101991ADDKA1120M+00071MA1999999096771MD1710041+9999OA149900571REMSYN082AAXX  16184 06643 33/// /2304 10005 21026 39677 40199 57004 333 10007 91111 91206;
0128066430999992010011619004+47250+007783FM-12+041699999V0202301N002119999999N9999999N1+00071-00221101901ADDMA1999999096691MD1810071+9999OA149900511REMSYN076AAXX  16194 06643 33/// /2304 10007 21022 39669 40190 58007 333 91110 91205;
0145066430999992010011620004+47250+007783FM-12+041699999V0202301N001519999999N9999999N1+00071-00131101851ADDAA101000021MA1999999096641MD1710151+9999OA149900511REMSYN082AAXX  16204 06643 23/// /2303 10007 21013 39664 40185 57015 333 69925 91110 91205;
0145066430999992010011621004+47250+007783FM-12+041699999V0202201N002119999999N9999999N1+00111-00021101761ADDAA101000591MA1999999096571MD1710201+9999OA149900571REMSYN082AAXX  16214 06643 23/// /2204 10011 21002 39657 40176 57020 333 69955 91111 91206;
0145066430999992010011622004+47250+007783FM-12+041699999V0202301N003119999999N9999999N1+00161+00051101761ADDAA101000891MA1999999096581MD1710111+9999OA149900571REMSYN082AAXX  16224 06643 23/// /2306 10016 20005 39658 40176 57011 333 69975 91111 91206;
0145066430999992010011623004+47250+007783FM-12+041699999V0202301N004619999999N9999999N1+00231+00111101821ADDAA101002091MA1999999096651MD1310011+9999OA149900931REMSYN082AAXX  16234 06643 23/// /2309 10023 20011 39665 40182 53001 333 60025 91118 91209;
0151066430999992010011700004+47250+007783FM-12+041699999V0202201N004619999999N9999999N1+00271+00151101831ADDAA106005191MA1999999096661MD1210091+9999OA149901031REMSYN088AAXX  17004 06643 03/// /2209 10027 20015 39666 40183 52009 60051 333 60015 91120 91210;
0145066430999992010011701004+47250+007783FM-12+041699999V0202101N003619999999N9999999N1+00301+00191101831ADDAA101000021MA1999999096671MD1210091+9999OA149901031REMSYN082AAXX  17014 06643 23/// /2107 10030 20019 39667 40183 52009 333 69915 91120 91210;
0128066430999992010011702004+47250+007783FM-12+041699999V0202301N004619999999N9999999N1+00311+00181101751ADDMA1999999096591MD1819999+9999OA149900881REMSYN076AAXX  17024 06643 33/// /2309 10031 20018 39659 40175 58/// 333 91117 91209;
0087066430999992010011703004+47250+007783FM-12+041699999V0202201N004619999999N9999999N1+00311+00191101721ADDMA1999999096571REMSYN060AAXX  17034 06643 43/// /2209 10031 20019 39657 40172 5////;
0145066430999992010011704004+47250+007783FM-12+041699999V0202201N003119999999N9999999N1+00291+00201101721ADDAA101001091MA1999999096561MD1710111+9999OA149900981REMSYN082AAXX  17044 06643 23/// /2206 10029 20020 39656 40172 57011 333 60015 91119 91210;
0145066430999992010011705004+47250+007783FM-12+041699999V0202201N002119999999N9999999N1+00271+00201101741ADDAA101000021MA1999999096581MD1219999+9999OA149900981REMSYN082AAXX  17054 06643 23/// /2204 10027 20020 39658 40174 52/// 333 69925 91119 91210;
0229066430999992010011706004+47250+007783FM-12+041699999V0202101N003119999999N9999999N1+00341+00241101731ADDAA112007991AA224007991AL19900891GJ100009IA2999+00009KA1999N+00041MA1999999096581MD1210011+9999OA149901031REMSYN112AAXX  17064 06643 03/// /2106 10034 20024 39658 40173 52001 60082 333 20004 3/100 55000 69915 70080 91120 91210;
0145066430999992010011707004+47250+007783FM-12+041699999V0202201N004119999999N9999999N1+00371+00291101781ADDAA101000891MA1999999096631MD1210071+9999OA149900771REMSYN082AAXX  17074 06643 23/// /2208 10037 20029 39663 40178 52007 333 69985 91115 91208;
0145066430999992010011708004+47250+007783FM-12+041699999V0202201N004119999999N9999999N1+00411+00311101831ADDAA101000021MA1999999096691MD1319999+9999OA149900981REMSYN082AAXX  17084 06643 23/// /2208 10041 20031 39669 40183 53/// 333 69915 91119 91209;
0145066430999992010011709004+47250+007783FM-12+041699999V0202101N003119999999N9999999N1+00431+00341101961ADDAA101000021MA1999999096821MD1310241+9999OA149900981REMSYN082AAXX  17094 06643 23/// /2106 10043 20034 39682 40196 53024 333 69915 91119 91210;
0128066430999992010011710004+47250+007783FM-12+041699999V0202001N003119999999N9999999N1+00531+00371102051ADDMA1999999096921MD1310291+9999OA149900671REMSYN076AAXX  17104 06643 33/// /2006 10053 20037 39692 40205 53029 333 91113 91207;
0128066430999992010011711004+47250+007783FM-12+041699999V0202201N002119999999N9999999N1+00581+00371102111ADDMA1999999096991MD1110301+9999OA149900621REMSYN076AAXX  17114 06643 33/// /2204 10058 20037 39699 40211 51030 333 91112 91207;
0151066430999992010011712004+47250+007783FM-12+041699999V0202401N003119999999N9999999N1+00621+00271102191ADDAA106001091MA1999999097071MD1110251+9999OA149900981REMSYN088AAXX  17124 06643 03/// /2406 10062 20027 39707 40219 51025 60011 333 60005 91119 91210;
0128066430999992010011713004+47250+007783FM-12+041699999V0202501N005119999999N9999999N1+00641+00221102171ADDMA1999999097051MD1210131+9999OA149900981REMSYN076AAXX  17134 06643 33/// /2510 10064 20022 39705 40217 52013 333 91119 91210;
0128066430999992010011714004+47250+007783FM-12+041699999V0202501N005119999999N9999999N1+00581+00111102261ADDMA1999999097131MD1219999+9999OA149901031REMSYN076AAXX  17144 06643 33/// /2510 10058 20011 39713 40226 52/// 333 91120 91210;
0128066430999992010011715004+47250+007783FM-12+041699999V0202301N002619999999N9999999N1+00591+00061102351ADDMA1999999097221MD1210151+9999OA149901031REMSYN076AAXX  17154 06643 33/// /2305 10059 20006 39722 40235 52015 333 91120 91210;
0128066430999992010011716004+47250+007783FM-12+041699999V0202301N002119999999N9999999N1+00481-00041102471ADDMA1999999097311MD1310261+9999OA149900881REMSYN076AAXX  17164 06643 33/// /2304 10048 21004 39731 40247 53026 333 91117 91208;
0128066430999992010011717004+47250+007783FM-12+041699999V0201401N000519999999N9999999N1+00321+00081102571ADDMA1999999097371MD1110241+9999OA149900621REMSYN076AAXX  17174 06643 33/// /1401 10032 20008 39737 40257 51024 333 91112 91205;
0170066430999992010011718004+47250+007783FM-12+041699999V0202001N001019999999N9999999N1+00251+00051102671ADDAA112001091KA1120M+00691MA1999999097461MD1310241+9999OA149901031REMSYN094AAXX  17184 06643 03/// /2002 10025 20005 39746 40267 53024 60012 333 10069 60005 91120 91210;
0128066430999992010011719004+47250+007783FM-12+041699999V0201901N001019999999N9999999N1+00201+00031102751ADDMA1999999097521MD1210211+9999OA149900211REMSYN076AAXX  17194 06643 33/// /1902 10020 20003 39752 40275 52021 333 91104 91202;
0128066430999992010011720004+47250+007783FM-12+041699999V0209999C000019999999N9999999N1+00171+00061102761ADDMA1999999097531MD1210161+9999OA149900211REMSYN076AAXX  17204 06643 33/// /0000 10017 20006 39753 40276 52016 333 91104 91202;
0128066430999992010011721004+47250+007783FM-12+041699999V0209999C000019999999N9999999N1+00131+00041102781ADDMA1999999097541MD1210081+9999OA149900621REMSYN076AAXX  17214 06643 33/// /0000 10013 20004 39754 40278 52008 333 91112 91205;
0128066430999992010011722004+47250+007783FM-12+041699999V0209999C000019999999N9999999N1+00171+00051102781ADDMA1999999097551MD1210031+9999OA149900211REMSYN076AAXX  17224 06643 33/// /0000 10017 20005 39755 40278 52003 333 91104 91203;
0128066430999992010011723004+47250+007783FM-12+041699999V0202501N000519999999N9999999N1+00131+00031102811ADDMA1999999097571MD1210041+9999OA149900101REMSYN076AAXX  17234 06643 33/// /2501 10013 20003 39757 40281 52004 333 91102 91201;
0128066430999992010011800004+47250+007783FM-12+041699999V0209999C000019999999N9999999N1+00091+00021102811ADDMA1999999097561MD1210021+9999OA149901031REMSYN076AAXX  18004 06643 33/// /0000 10009 20002 39756 40281 52002 333 91120 91210;
0128066430999992010011801004+47250+007783FM-12+041699999V0209999C000019999999N9999999N1+00051+00001102811ADDMA1999999097551MD1010001+9999OA149900101REMSYN076AAXX  18014 06643 33/// /0000 10005 20000 39755 40281 50000 333 91102 91201;
0087066430999992010011802004+47250+007783FM-12+041699999V0202701N000519999999N9999999N1+00091-00021102831ADDMA1999999097581REMSYN060AAXX  18024 06643 33/// /2701 10009 21002 39758 40283 5////;
0087066430999992010011803004+47250+007783FM-12+041699999V0202501N000519999999N9999999N1+00051+00001102851ADDMA1999999097591REMSYN060AAXX  18034 06643 33/// /2501 10005 20000 39759 40285 5////;
0128066430999992010011804004+47250+007783FM-12+041699999V0202201N001019999999N9999999N1+00021-00051102841ADDMA1999999097571MD1010021+9999OA149900151REMSYN076AAXX  18044 06643 33/// /2202 10002 21005 39757 40284 50002 333 91103 91202;
0147066430999992010011805004+47250+007783FM-12+041699999V0209999C000019999999N9999999N1+00011-00051102851ADDMA1999999097581MD1710021+9999OA149900151REMSYN076AAXX  18054 06643 33/// /0000 10001 21005 39758 40285 57000 333 91103 91202;EQDQ01+000002APC3  
0206066430999992010011806004+47250+007783FM-12+041699999V0202101N000519999999N9999999N1+00001-00061102861ADDAA124001091AL19900191GJ100849IA2999-00109KA1999N-00031MA1999999097591MD1510001+9999OA149900211REMSYN100AAXX  18064 06643 33/// /2101 10000 21006 39759 40286 55000 333 21003 3/101 55014 70010 91104 91203;
0128066430999992010011807004+47250+007783FM-12+041699999V0209999C000019999999N9999999N1-00041-00081102931ADDMA1999999097651MD1210081+9999OA149900151REMSYN076AAXX  18074 06643 33/// /0000 11004 21008 39765 40293 52008 333 91103 91201;
0128066430999992010011808004+47250+007783FM-12+041699999V0209999C000019999999N9999999N1+00021-00031102931ADDMA1999999097661MD1219999+9999OA149900101REMSYN076AAXX  18084 06643 33/// /0000 10002 21003 39766 40293 52/// 333 91102 91201;
