0137066450999992010010100004+47433+007883FM-12+061099999V0200901N001519999999N9999999N1+00341+00271999999ADDMA1999999092101MD1710111+9999ME1312589OA149900671REMSYN076AAXX  01004 06645 33/// /0903 10034 20027 39210 48258 57011 333 91113 91209;
0137066450999992010010101004+47433+007883FM-12+061099999V0200701N001019999999N9999999N1+00301+00251999999ADDMA1999999092071MD1710101+9999ME1312549OA149900261REMSYN076AAXX  01014 06645 33/// /0702 10030 20025 39207 48254 57010 333 91105 91203;
0137066450999992010010102004+47433+007883FM-12+061099999V0200801N002119999999N9999999N1+00301+00251999999ADDMA1999999092011MD1619999+9999ME1312499OA149900361REMSYN076AAXX  01024 06645 33/// /0804 10030 20025 39201 48249 56/// 333 91107 91204;
0096066450999992010010103004+47433+007883FM-12+061099999V0200701N001519999999N9999999N1+00281+00281999999ADDMA1999999091991ME1312479REMSYN060AAXX  01034 06645 43/// /0703 10028 20028 39199 48247 5////;
0096066450999992010010104004+47433+007883FM-12+061099999V0201001N002119999999N9999999N1+00211+00211999999ADDMA1999999091951ME1312429REMSYN060AAXX  01044 06645 33/// /1004 10021 20021 39195 48242 5////;
0137066450999992010010105004+47433+007883FM-12+061099999V0200801N001519999999N9999999N1+00221+00201999999ADDMA1999999091921MD1610091+9999ME1312399OA149900361REMSYN076AAXX  01054 06645 33/// /0803 10022 20020 39192 48239 56009 333 91107 91205;
0215066450999992010010106004+47433+007883FM-12+061099999V0200601N002119999999N9999999N1+00251+00241999999ADDAA124008191AL11200891GJ100009IA2999+00109KA1999N+00211MA1999999091901MD1710091+9999ME1312389OA149900461REMSYN100AAXX  01064 06645 33/// /0604 10025 20024 39190 48238 57009 333 20021 3/001 55000 70082 91109 91205;
0137066450999992010010107004+47433+007883FM-12+061099999V0200701N002119999999N9999999N1+00271+00271999999ADDMA1999999091901MD1710051+9999ME1312399OA149900411REMSYN076AAXX  01074 06645 33/// /0704 10027 20027 39190 48239 57005 333 91108 91205;
0137066450999992010010108004+47433+007883FM-12+061099999V0200701N001519999999N9999999N1+00271+00271999999ADDMA1999999091941MD1310021+9999ME1312429OA149900411REMSYN076AAXX  01084 06645 33/// /0703 10027 20027 39194 48242 53002 333 91108 91205;
0137066450999992010010109004+47433+007883FM-12+061099999V0200401N001519999999N9999999N1+00271+00271999999ADDMA1999999092001MD1210101+9999ME1312479OA149900411REMSYN076AAXX  01094 06645 33/// /0403 10027 20027 39200 48247 52010 333 91108 91205;
0137066450999992010010110004+47433+007883FM-12+061099999V0203001N000519999999N9999999N1+00271+00271999999ADDMA1999999092071MD1310171+9999ME1312539OA149900261REMSYN076AAXX  01104 06645 33/// /3001 10027 20027 39207 48253 53017 333 91105 91203;
0137066450999992010010111004+47433+007883FM-12+061099999V0202801N001519999999N9999999N1+00301+00271999999ADDMA1999999092091MD1110151+9999ME1312569OA149900211REMSYN076AAXX  01114 06645 33/// /2803 10030 20027 39209 48256 51015 333 91104 91203;
0137066450999992010010112004+47433+007883FM-12+061099999V0202401N000519999999N9999999N1+00261+00261999999ADDMA1999999092101MD1110101+9999ME1312569OA149900411REMSYN076AAXX  01124 06645 33/// /2401 10026 20026 39210 48256 51010 333 91108 91205;
0137066450999992010010113004+47433+007883FM-12+061099999V0202701N001519999999N9999999N1+00321+00281999999ADDMA1999999092131MD1310061+9999ME1312609OA149900261REMSYN076AAXX  01134 06645 33/// /2703 10032 20028 39213 48260 53006 333 91105 91203;
0137066450999992010010114004+47433+007883FM-12+061099999V0203101N002119999999N9999999N1+00291+00281999999ADDMA1999999092231MD1319999+9999ME1312689OA149900361REMSYN076AAXX  01144 06645 33/// /3104 10029 20028 39223 48268 53/// 333 91107 91204;
0154066450999992010010115004+47433+007883FM-12+061099999V0202901N002619999999N9999999N1+00251+00181999999ADDAA101001091MA1999999092341MD1310241+9999ME1312769OA149900721REMSYN082AAXX  01154 06645 23/// /2905 10025 20018 39234 48276 53024 333 60015 91114 91208;
0154066450999992010010116004+47433+007883FM-12+061099999V0202801N004119999999N9999999N1+00191+00091999999ADDAA101002091MA1999999092461MD1310331+9999ME1312859OA149900821REMSYN082AAXX  01164 06645 23/// /2808 10019 20009 39246 48285 53033 333 60025 91116 91209;
0154066450999992010010117004+47433+007883FM-12+061099999V0202901N003619999999N9999999N1+00071+00001999999ADDAA101000891MA1999999092591MD1210361+9999ME1312939OA149900821REMSYN082AAXX  01174 06645 23/// /2907 10007 20000 39259 48293 52036 333 69985 91116 91209;
0179066450999992010010118004+47433+007883FM-12+061099999V0202901N004119999999N9999999N1+00031-00051999999ADDAA112004191KA1120M+00321MA1999999092741MD1310401+9999ME1313059OA149900821REMSYN094AAXX  01184 06645 03/// /2908 10003 21005 39274 48305 53040 60042 333 10032 69955 91116 91209;
0154066450999992010010119004+47433+007883FM-12+061099999V0202801N003619999999N9999999N1-00031-00091999999ADDAA101000591MA1999999092911MD1210451+9999ME1313189OA149900881REMSYN082AAXX  01194 06645 23/// /2807 11003 21009 39291 48318 52045 333 69965 91117 91209;
0154066450999992010010120004+47433+007883FM-12+061099999V0202701N003119999999N9999999N1-00031-00201999999ADDAA101000591MA1999999093051MD1210461+9999ME1313299OA149900881REMSYN082AAXX  01204 06645 23/// /2706 11003 21020 39305 48329 52046 333 69955 91117 91209;
0137066450999992010010121004+47433+007883FM-12+061099999V0202901N004619999999N9999999N1-00081-00231999999ADDMA1999999093161MD1110421+9999ME1313379OA149901291REMSYN076AAXX  01214 06645 33/// /2909 11008 21023 39316 48337 51042 333 91125 91209;
0137066450999992010010122004+47433+007883FM-12+061099999V0202901N005119999999N9999999N1-00171-00291999999ADDMA1999999093291MD1210381+9999ME1313469OA149901291REMSYN076AAXX  01224 06645 33/// /2910 11017 21029 39329 48346 52038 333 91125 91211;
0137066450999992010010123004+47433+007883FM-12+061099999V0202901N005119999999N9999999N1-00191-00401999999ADDMA1999999093391MD1210341+9999ME1313549OA149901241REMSYN076AAXX  01234 06645 33/// /2910 11019 21040 39339 48354 52034 333 91124 91212;
0160066450999992010010200004+47433+007883FM-12+061099999V0202901N005119999999N9999999N1-00231-00411999999ADDAA106001091MA1999999093451MD1110291+9999ME1313579OA149901291REMSYN088AAXX  02004 06645 03/// /2910 11023 21041 39345 48357 51029 60011 333 60005 91125 91212;
0154066450999992010010201004+47433+007883FM-12+061099999V0203001N006719999999N9999999N1-00281-00471999999ADDAA101000021MA1999999093561MD1210271+9999ME1313659OA149901131REMSYN082AAXX  02014 06645 23/// /3013 11028 21047 39356 48365 52027 333 69915 91122 91213;
0096066450999992010010202004+47433+007883FM-12+061099999V0202601N005719999999N9999999N1-00261-00511999999ADDMA1999999093671ME1313759REMSYN060AAXX  02024 06645 33/// /2611 11026 21051 39367 48375 5////;
0137066450999992010010203004+47433+007883FM-12+061099999V0202701N004119999999N9999999N1-00271-00571999999ADDMA1999999093781MD1310331+9999ME1313849OA149901241REMSYN076AAXX  02034 06645 33/// /2708 11027 21057 39378 48384 53033 333 91124 91213;
0137066450999992010010204004+47433+007883FM-12+061099999V0202601N004119999999N9999999N1-00281-00541999999ADDMA1999999093861MD1210301+9999ME1313909OA149900881REMSYN076AAXX  02044 06645 33/// /2608 11028 21054 39386 48390 52030 333 91117 91210;
0137066450999992010010205004+47433+007883FM-12+061099999V0202901N004619999999N9999999N1-00301-00581999999ADDMA1999999093931MD1210261+9999ME1313959OA149900931REMSYN076AAXX  02054 06645 33/// /2909 11030 21058 39393 48395 52026 333 91118 91210;
0238066450999992010010206004+47433+007883FM-12+061099999V0202601N003619999999N9999999N1-00341-00621999999ADDAA112001091AA224005191AL10600591GJ100009IA2999-00409KA1999N-00331MA1999999093991MD1310211+9999ME1313999OA149901291REMSYN112AAXX  02064 06645 03/// /2607 11034 21062 39399 48399 53021 60012 333 21033 3/104 55000 60005 70051 91125 91213;
0137066450999992010010207004+47433+007883FM-12+061099999V0202501N002619999999N9999999N1-00361-00671999999ADDMA1999999094081MD1210221+9999ME1314069OA149900981REMSYN076AAXX  02074 06645 33/// /2505 11036 21067 39408 48406 52022 333 91119 91210;
0096066450999992010010208004+47433+007883FM-12+061099999V0202701N002119999999N9999999N1-00361-00641999999ADDMA1999999094171ME1314139REMSYN060AAXX  02084 06645 33/// /2704 11036 21064 39417 48413 5////;
0137066450999992010010209004+47433+007883FM-12+061099999V0202901N002619999999N9999999N1-00361-00601999999ADDMA1999999094281MD1210291+9999ME1314229OA149900981REMSYN076AAXX  02094 06645 33/// /2905 11036 21060 39428 48422 52029 333 91119 91210;
0137066450999992010010210004+47433+007883FM-12+061099999V0203001N003119999999N9999999N1-00421-00741999999ADDMA1999999094371MD1210291+9999ME1314289OA149900721REMSYN076AAXX  02104 06645 33/// /3006 11042 21074 39437 48428 52029 333 91114 91208;
0137066450999992010010211004+47433+007883FM-12+061099999V0202801N001519999999N9999999N1-00381-00791999999ADDMA1999999094421MD1110251+9999ME1314339OA149900721REMSYN076AAXX  02114 06645 33/// /2803 11038 21079 39442 48433 51025 333 91114 91208;
0137066450999992010010212004+47433+007883FM-12+061099999V0202701N002119999999N9999999N1-00311-00761999999ADDMA1999999094471MD1110191+9999ME1314399OA149901181REMSYN076AAXX  02124 06645 33/// /2704 11031 21076 39447 48439 51019 333 91123 91213;
0137066450999992010010213004+47433+007883FM-12+061099999V0203301N003119999999N9999999N1-00331-00791999999ADDMA1999999094531MD1110161+9999ME1314449OA149900571REMSYN076AAXX  02134 06645 33/// /3306 11033 21079 39453 48444 51016 333 91111 91206;
0137066450999992010010214004+47433+007883FM-12+061099999V0202801N002119999999N9999999N1-00251-00751999999ADDMA1999999094611MD1319999+9999ME1314539OA149900571REMSYN076AAXX  02144 06645 33/// /2804 11025 21075 39461 48453 53/// 333 91111 91206;
0137066450999992010010215004+47433+007883FM-12+061099999V0202801N003119999999N9999999N1-00311-00901999999ADDMA1999999094671MD1210201+9999ME1314569OA149900721REMSYN076AAXX  02154 06645 33/// /2806 11031 21090 39467 48456 52020 333 91114 91208;
0137066450999992010010216004+47433+007883FM-12+061099999V0202801N001519999999N9999999N1-00471-00881999999ADDMA1999999094741MD1210211+9999ME1314569OA149900671REMSYN076AAXX  02164 06645 33/// /2803 11047 21088 39474 48456 52021 333 91113 91208;
0137066450999992010010217004+47433+007883FM-12+061099999V0202101N001019999999N9999999N1-00511-00821999999ADDMA1999999094791MD1110181+9999ME1314599OA149900461REMSYN076AAXX  02174 06645 33/// /2102 11051 21082 39479 48459 51018 333 91109 91206;
0156066450999992010010218004+47433+007883FM-12+061099999V0201901N001019999999N9999999N1-00581-00881999999ADDKA1120M-00251MA1999999094831MD1210161+9999ME1314609OA149900721REMSYN082AAXX  02184 06645 33/// /1902 11058 21088 39483 48460 52016 333 11025 91114 91208;
0137066450999992010010219004+47433+007883FM-12+061099999V0201901N000519999999N9999999N1-00561-00961999999ADDMA1999999094851MD1110111+9999ME1314629OA149900261REMSYN076AAXX  02194 06645 33/// /1901 11056 21096 39485 48462 51011 333 91105 91203;
0137066450999992010010220004+47433+007883FM-12+061099999V0201801N001019999999N9999999N1-00551-01001999999ADDMA1999999094841MD1210051+9999ME1314629OA149900151REMSYN076AAXX  02204 06645 33/// /1802 11055 21100 39484 48462 52005 333 91103 91202;
0137066450999992010010221004+47433+007883FM-12+061099999V0201801N000519999999N9999999N1-00531-00991999999ADDMA1999999094821MD1810011+9999ME1314619OA149900461REMSYN076AAXX  02214 06645 33/// /1801 11053 21099 39482 48461 58001 333 91109 91206;
0137066450999992010010222004+47433+007883FM-12+061099999V0201901N000519999999N9999999N1-00561-00971999999ADDMA1999999094841MD1510011+9999ME1314629OA149900151REMSYN076AAXX  02224 06645 33/// /1901 11056 21097 39484 48462 55001 333 91103 91202;
0137066450999992010010223004+47433+007883FM-12+061099999V0202001N000519999999N9999999N1-00571-00981999999ADDMA1999999094861MD1210021+9999ME1314639OA149900151REMSYN076AAXX  02234 06645 33/// /2001 11057 21098 39486 48463 52002 333 91103 91202;
0137066450999992010010300004+47433+007883FM-12+061099999V0209999C000019999999N9999999N1-00581-01001999999ADDMA1999999094841MD1010021+9999ME1314619OA149900671REMSYN076AAXX  03004 06645 33/// /0000 11058 21100 39484 48461 50002 333 91113 91208;
0137066450999992010010301004+47433+007883FM-12+061099999V0201701N001019999999N9999999N1-00631-01031999999ADDMA1999999094851MD1310011+9999ME1314609OA149900151REMSYN076AAXX  03014 06645 33/// /1702 11063 21103 39485 48460 53001 333 91103 91202;
0096066450999992010010302004+47433+007883FM-12+061099999V0201301N001019999999N9999999N1-00641-01091999999ADDMA1999999094841ME1314599REMSYN060AAXX  03024 06645 33/// /1302 11064 21109 39484 48459 5////;
0096066450999992010010303004+47433+007883FM-12+061099999V0201501N001519999999N9999999N1-00651-01051999999ADDMA1999999094811ME1314569REMSYN060AAXX  03034 06645 33/// /1503 11065 21105 39481 48456 5////;
0137066450999992010010304004+47433+007883FM-12+061099999V0201501N001519999999N9999999N1-00631-01071999999ADDMA1999999094791MD1710061+9999ME1314559OA149900261REMSYN076AAXX  03044 06645 33/// /1503 11063 21107 39479 48455 57006 333 91105 91203;
0137066450999992010010305004+47433+007883FM-12+061099999V0201101N000519999999N9999999N1-00631-01081999999ADDMA1999999094781MD1719999+9999ME1314549OA149900261REMSYN076AAXX  03054 06645 33/// /1101 11063 21108 39478 48454 57/// 333 91105 91203;
0234066450999992010010306004+47433+007883FM-12+061099999V0201401N001019999999N9999999N1-00611-01011999999ADDAA124000091AL19900091GJ101689IA2999-01109KA1999N-00681MA1999999094741MD1710071+9999ME1314529OA149900261REMSYN100AAXX  03064 06645 33/// /1402 11061 21101 39474 48452 57007 333 21068 3/111 55028 70000 91105 91203;EQDQ01  00002PRCP24
0137066450999992010010307004+47433+007883FM-12+061099999V0201501N002619999999N9999999N1-00601-01011999999ADDMA1999999094731MD1710061+9999ME1314519OA149900311REMSYN076AAXX  03074 06645 33/// /1505 11060 21101 39473 48451 57006 333 91106 91205;
0137066450999992010010308004+47433+007883FM-12+061099999V0201401N001019999999N9999999N1-00611-01001999999ADDMA1999999094761MD1519999+9999ME1314539OA149900311REMSYN076AAXX  03084 06645 33/// /1402 11061 21100 39476 48453 55/// 333 91106 91205;
0137066450999992010010309004+47433+007883FM-12+061099999V0201501N001519999999N9999999N1-00461-00991999999ADDMA1999999094771MD1210031+9999ME1314599OA149900311REMSYN076AAXX  03094 06645 33/// /1503 11046 21099 39477 48459 52003 333 91106 91205;
0137066450999992010010310004+47433+007883FM-12+061099999V0201401N000519999999N9999999N1-00371-00911999999ADDMA1999999094781MD1210051+9999ME1314639OA149900311REMSYN076AAXX  03104 06645 33/// /1401 11037 21091 39478 48463 52005 333 91106 91204;
0137066450999992010010311004+47433+007883FM-12+061099999V0201401N002119999999N9999999N1-00251-01061999999ADDMA1999999094661MD1810101+9999ME1314579OA149900311REMSYN076AAXX  03114 06645 33/// /1404 11025 21106 39466 48457 58010 333 91106 91204;
0137066450999992010010312004+47433+007883FM-12+061099999V0201801N001019999999N9999999N1-00161-01011999999ADDMA1999999094641MD1710131+9999ME1314589OA149900361REMSYN076AAXX  03124 06645 33/// /1802 11016 21101 39464 48458 57013 333 91107 91205;
0137066450999992010010313004+47433+007883FM-12+061099999V0201001N001019999999N9999999N1-00211-01021999999ADDMA1999999094601MD1710181+9999ME1314539OA149900361REMSYN076AAXX  03134 06645 33/// /1002 11021 21102 39460 48453 57018 333 91107 91204;
0137066450999992010010314004+47433+007883FM-12+061099999V0201301N001519999999N9999999N1-00181-00861999999ADDMA1999999094591MD1710071+9999ME1314539OA149900311REMSYN076AAXX  03144 06645 33/// /1303 11018 21086 39459 48453 57007 333 91106 91204;
0137066450999992010010315004+47433+007883FM-12+061099999V0201501N001019999999N9999999N1-00191-00861999999ADDMA1999999094601MD1510041+9999ME1314549OA149900361REMSYN076AAXX  03154 06645 33/// /1502 11019 21086 39460 48454 55004 333 91107 91204;
0137066450999992010010316004+47433+007883FM-12+061099999V0201401N002119999999N9999999N1-00361-00851999999ADDMA1999999094571MD1810031+9999ME1314469OA149900311REMSYN076AAXX  03164 06645 33/// /1404 11036 21085 39457 48446 58003 333 91106 91204;
0137066450999992010010317004+47433+007883FM-12+061099999V0201401N002619999999N9999999N1-00391-00941999999ADDMA1999999094531MD1810061+9999ME1314429OA149900461REMSYN076AAXX  03174 06645 33/// /1405 11039 21094 39453 48442 58006 333 91109 91205;
0156066450999992010010318004+47433+007883FM-12+061099999V0201401N001519999999N9999999N1-00431-01011999999ADDKA1120M-00151MA1999999094541MD1710061+9999ME1314419OA149900461REMSYN082AAXX  03184 06645 33/// /1403 11043 21101 39454 48441 57006 333 11015 91109 91205;
0137066450999992010010319004+47433+007883FM-12+061099999V0201401N002119999999N9999999N1-00441-00991999999ADDMA1999999094511MD1710061+9999ME1314399OA149900461REMSYN076AAXX  03194 06645 33/// /1404 11044 21099 39451 48439 57006 333 91109 91205;
0137066450999992010010320004+47433+007883FM-12+061099999V0201501N002119999999N9999999N1-00481-00981999999ADDMA1999999094491MD1710041+9999ME1314369OA149900461REMSYN076AAXX  03204 06645 33/// /1504 11048 21098 39449 48436 57004 333 91109 91205;
0137066450999992010010321004+47433+007883FM-12+061099999V0200901N001019999999N9999999N1-00551-01011999999ADDMA1999999094461MD1610081+9999ME1314319OA149900461REMSYN076AAXX  03214 06645 33/// /0902 11055 21101 39446 48431 56008 333 91109 91205;
0137066450999992010010322004+47433+007883FM-12+061099999V0201101N002119999999N9999999N1-00531-01011999999ADDMA1999999094441MD1610071+9999ME1314309OA149900411REMSYN076AAXX  03224 06645 33/// /1104 11053 21101 39444 48430 56007 333 91108 91204;
0137066450999992010010323004+47433+007883FM-12+061099999V0201101N002619999999N9999999N1-00701-01061999999ADDMA1999999094401MD1810091+9999ME1314229OA149900511REMSYN076AAXX  03234 06645 33/// /1105 11070 21106 39440 48422 58009 333 91110 91207;
0137066450999992010010400004+47433+007883FM-12+061099999V0201201N003619999999N9999999N1-00541-01001999999ADDMA1999999094341MD1810121+9999ME1314229OA149900511REMSYN076AAXX  04004 06645 33/// /1207 11054 21100 39434 48422 58012 333 91110 91207;
0137066450999992010010401004+47433+007883FM-12+061099999V0200701N002619999999N9999999N1-00681-01001999999ADDMA1999999094291MD1710151+9999ME1314139OA149900571REMSYN076AAXX  04014 06645 33/// /0705 11068 21100 39429 48413 57015 333 91111 91208;
0137066450999992010010402004+47433+007883FM-12+061099999V0200901N002119999999N9999999N1-00731-00981999999ADDMA1999999094261MD1710141+9999ME1314099OA149900571REMSYN076AAXX  04024 06645 33/// /0904 11073 21098 39426 48409 57014 333 91111 91208;
0137066450999992010010403004+47433+007883FM-12+061099999V0200901N002619999999N9999999N1-00731-00961999999ADDMA1999999094241MD1719999+9999ME1314089OA149900571REMSYN076AAXX  04034 06645 33/// /0905 11073 21096 39424 48408 57/// 333 91111 91208;
0137066450999992010010404004+47433+007883FM-12+061099999V0200701N001519999999N9999999N1-00781-00981999999ADDMA1999999094191MD1710101+9999ME1314029OA149900361REMSYN076AAXX  04044 06645 33/// /0703 11078 21098 39419 48402 57010 333 91107 91205;
0137066450999992010010405004+47433+007883FM-12+061099999V0200901N001519999999N9999999N1-00791-01011999999ADDMA1999999094161MD1710101+9999ME1313999OA149900311REMSYN076AAXX  04054 06645 33/// /0903 11079 21101 39416 48399 57010 333 91106 91204;
0234066450999992010010406004+47433+007883FM-12+061099999V0200301N001019999999N9999999N1-00811-01011999999ADDAA124000091AL19900091GJ103489IA2999-01109KA1999N-00851MA1999999094211MD1510031+9999ME1314039OA149900571REMSYN100AAXX  04064 06645 33/// /0302 11081 21101 39421 48403 55003 333 21085 3/111 55058 70000 91111 91208;EQDQ01  00002PRCP24
0137066450999992010010407004+47433+007883FM-12+061099999V0200501N001019999999N9999999N1-00871-01041999999ADDMA1999999094151MD1710041+9999ME1313969OA149900211REMSYN076AAXX  04074 06645 33/// /0502 11087 21104 39415 48396 57004 333 91104 91203;
0137066450999992010010408004+47433+007883FM-12+061099999V0201201N001019999999N9999999N1-00761-01131999999ADDMA1999999094151MD1810011+9999ME1313999OA149900151REMSYN076AAXX  04084 06645 33/// /1202 11076 21113 39415 48399 58001 333 91103 91202;
0137066450999992010010409004+47433+007883FM-12+061099999V0209999C000019999999N9999999N1-00801-01071999999ADDMA1999999094181MD1510031+9999ME1314019OA149900311REMSYN076AAXX  04094 06645 33/// /0000 11080 21107 39418 48401 55003 333 91106 91204;
0137066450999992010010410004+47433+007883FM-12+061099999V0201001N000519999999N9999999N1-00641-01021999999ADDMA1999999094171MD1210021+9999ME1314059OA149900151REMSYN076AAXX  04104 06645 33/// /1001 11064 21102 39417 48405 52002 333 91103 91203;
0137066450999992010010411004+47433+007883FM-12+061099999V0200701N001519999999N9999999N1-00481-00881999999ADDMA1999999094091MD1810061+9999ME1314039OA149900311REMSYN076AAXX  04114 06645 33/// /0703 11048 21088 39409 48403 58006 333 91106 91203;
0137066450999992010010412004+47433+007883FM-12+061099999V0200601N002619999999N9999999N1-00411-00891999999ADDMA1999999094021MD1810161+9999ME1313999OA149900571REMSYN076AAXX  04124 06645 33/// /0605 11041 21089 39402 48399 58016 333 91111 91208;
0137066450999992010010413004+47433+007883FM-12+061099999V0200801N001019999999N9999999N1-00381-00931999999ADDMA1999999093961MD1610211+9999ME1313959OA149900361REMSYN076AAXX  04134 06645 33/// /0802 11038 21093 39396 48395 56021 333 91107 91205;
0137066450999992010010414004+47433+007883FM-12+061099999V0203301N002619999999N9999999N1-00431-00831999999ADDMA1999999093931MD1619999+9999ME1313919OA149900311REMSYN076AAXX  04144 06645 33/// /3305 11043 21083 39393 48391 56/// 333 91106 91205;
0137066450999992010010415004+47433+007883FM-12+061099999V0203401N002119999999N9999999N1-00471-00791999999ADDMA1999999093921MD1610101+9999ME1313899OA149900361REMSYN076AAXX  04154 06645 33/// /3404 11047 21079 39392 48389 56010 333 91107 91205;
0137066450999992010010416004+47433+007883FM-12+061099999V0203301N001519999999N9999999N1-00601-00761999999ADDMA1999999093931MD1510031+9999ME1313869OA149900261REMSYN076AAXX  04164 06645 33/// /3303 11060 21076 39393 48386 55003 333 91105 91204;
0156066450999992010010417004+47433+007883FM-12+061099999V0202901N001519999999N9999999N1-00641-00731999999ADDMA1999999093931MD1410001+9999ME1313859OA149900261REMSYN076AAXX  04174 06645 33/// /2903 11064 21073 39393 48385 53000 333 91105 91204;EQDQ01+000032APCTEN
0156066450999992010010418004+47433+007883FM-12+061099999V0203001N001019999999N9999999N1-00631-00741999999ADDKA1120M-00371MA1999999093931MD1010011+9999ME1313859OA149900361REMSYN082AAXX  04184 06645 33/// /3002 11063 21074 39393 48385 50001 333 11037 91107 91205;
0137066450999992010010419004+47433+007883FM-12+061099999V0203401N000519999999N9999999N1-00641-00781999999ADDMA1999999093911MD1710021+9999ME1313849OA149900261REMSYN076AAXX  04194 06645 33/// /3401 11064 21078 39391 48384 57002 333 91105 91203;
0137066450999992010010420004+47433+007883FM-12+061099999V0209999C000019999999N9999999N1-00631-00801999999ADDMA1999999093881MD1710051+9999ME1313819OA149900151REMSYN076AAXX  04204 06645 33/// /0000 11063 21080 39388 48381 57005 333 91103 91202;
0137066450999992010010421004+47433+007883FM-12+061099999V0200101N000519999999N9999999N1-00651-00791999999ADDMA1999999093861MD1710071+9999ME1313799OA149900261REMSYN076AAXX  04214 06645 33/// /0101 11065 21079 39386 48379 57007 333 91105 91204;
0137066450999992010010422004+47433+007883FM-12+061099999V0200801N001519999999N9999999N1-00661-00801999999ADDMA1999999093841MD1710071+9999ME1313779OA149900211REMSYN076AAXX  04224 06645 33/// /0803 11066 21080 39384 48377 57007 333 91104 91203;
0137066450999992010010423004+47433+007883FM-12+061099999V0201301N000519999999N9999999N1-00701-00791999999ADDMA1999999093801MD1810081+9999ME1313739OA149900261REMSYN076AAXX  04234 06645 33/// /1301 11070 21079 39380 48373 58008 333 91105 91203;
0137066450999992010010500004+47433+007883FM-12+061099999V0200901N001519999999N9999999N1-00661-00791999999ADDMA1999999093731MD1810131+9999ME1313689OA149900311REMSYN076AAXX  05004 06645 33/// /0903 11066 21079 39373 48368 58013 333 91106 91205;
0137066450999992010010501004+47433+007883FM-12+061099999V0200501N001019999999N9999999N1-00721-00841999999ADDMA1999999093681MD1710161+9999ME1313629OA149900261REMSYN076AAXX  05014 06645 33/// /0502 11072 21084 39368 48362 57016 333 91105 91203;
0137066450999992010010502004+47433+007883FM-12+061099999V0200501N001019999999N9999999N1-00861-00921999999ADDMA1999999093651MD1710151+9999ME1313569OA149900211REMSYN076AAXX  05024 06645 33/// /0502 11086 21092 39365 48356 57015 333 91104 91202;
0137066450999992010010503004+47433+007883FM-12+061099999V0200501N002119999999N9999999N1-00711-00901999999ADDMA1999999093601MD1710131+9999ME1313569OA149900261REMSYN076AAXX  05034 06645 33/// /0504 11071 21090 39360 48356 57013 333 91105 91204;
0137066450999992010010504004+47433+007883FM-12+061099999V0200601N002619999999N9999999N1-00691-00941999999ADDMA1999999093521MD1710161+9999ME1313509OA149900461REMSYN076AAXX  05044 06645 33/// /0605 11069 21094 39352 48350 57016 333 91109 91205;
0137066450999992010010505004+47433+007883FM-12+061099999V0200701N004619999999N9999999N1-00691-00951999999ADDMA1999999093441MD1710211+9999ME1313449OA149900721REMSYN076AAXX  05054 06645 33/// /0709 11069 21095 39344 48344 57021 333 91114 91209;
0220066450999992010010506004+47433+007883FM-12+061099999V0200701N002619999999N9999999N1-00691-00931999999ADDAA124000091AL19900091IA2999-01109KA1999N-00861MA1999999093401MD1710201+9999ME1313409OA149900721REMSYN094AAXX  05064 06645 33/// /0705 11069 21093 39340 48340 57020 333 21086 3/111 70000 91114 91209;EQDQ01  00002PRCP24
0137066450999992010010507004+47433+007883FM-12+061099999V0200701N003619999999N9999999N1-00721-00951999999ADDMA1999999093371MD1710151+9999ME1313379OA149900721REMSYN076AAXX  05074 06645 33/// /0707 11072 21095 39337 48337 57015 333 91114 91208;
0137066450999992010010508004+47433+007883FM-12+061099999V0200701N004119999999N9999999N1-00741-00981999999ADDMA1999999093331MD1710111+9999ME1313339OA149900721REMSYN076AAXX  05084 06645 33/// /0708 11074 21098 39333 48333 57011 333 91114 91208;
0137066450999992010010509004+47433+007883FM-12+061099999V0200701N003619999999N9999999N1-00721-00941999999ADDMA1999999093321MD1710081+9999ME1313339OA149900721REMSYN076AAXX  05094 06645 33/// /0707 11072 21094 39332 48333 57008 333 91114 91209;
0137066450999992010010510004+47433+007883FM-12+061099999V0200801N003119999999N9999999N1-00671-00901999999ADDMA1999999093271MD1710101+9999ME1313309OA149900671REMSYN076AAXX  05104 06645 33/// /0806 11067 21090 39327 48330 57010 333 91113 91208;
0137066450999992010010511004+47433+007883FM-12+061099999V0200701N002119999999N9999999N1-00601-00861999999ADDMA1999999093201MD1710131+9999ME1313269OA149900621REMSYN076AAXX  05114 06645 33/// /0704 11060 21086 39320 48326 57013 333 91112 91208;
0137066450999992010010512004+47433+007883FM-12+061099999V0200801N002619999999N9999999N1-00541-00801999999ADDMA1999999093131MD1810191+9999ME1313229OA149900721REMSYN076AAXX  05124 06645 33/// /0805 11054 21080 39313 48322 58019 333 91114 91209;
0137066450999992010010513004+47433+007883FM-12+061099999V0200701N002619999999N9999999N1-00491-00751999999ADDMA1999999093031MD1810241+9999ME1313159OA149900461REMSYN076AAXX  05134 06645 33/// /0705 11049 21075 39303 48315 58024 333 91109 91206;
0096066450999992010010514004+47433+007883FM-12+061099999V0200801N003119999999N9999999N1-00471-00711999999ADDMA1999999092981ME1313129REMSYN060AAXX  05144 06645 33/// /0806 11047 21071 39298 48312 5////;
0137066450999992010010515004+47433+007883FM-12+061099999V0201101N001519999999N9999999N1-00471-00701999999ADDMA1999999092981MD1710151+9999ME1313129OA149900621REMSYN076AAXX  05154 06645 33/// /1103 11047 21070 39298 48312 57015 333 91112 91208;
0137066450999992010010516004+47433+007883FM-12+061099999V0200701N003119999999N9999999N1-00501-00711999999ADDMA1999999092951MD1710081+9999ME1313089OA149900511REMSYN076AAXX  05164 06645 33/// /0706 11050 21071 39295 48308 57008 333 91110 91206;
0137066450999992010010517004+47433+007883FM-12+061099999V0200901N002619999999N9999999N1-00531-00721999999ADDMA1999999092941MD1710041+9999ME1313079OA149900571REMSYN076AAXX  05174 06645 33/// /0905 11053 21072 39294 48307 57004 333 91111 91207;
0156066450999992010010518004+47433+007883FM-12+061099999V0200701N003119999999N9999999N1-00551-00721999999ADDKA1120M-00451MA1999999092911MD1710071+9999ME1313049OA149900721REMSYN082AAXX  05184 06645 33/// /0706 11055 21072 39291 48304 57007 333 11045 91114 91208;
0137066450999992010010519004+47433+007883FM-12+061099999V0200701N001519999999N9999999N1-00591-00741999999ADDMA1999999092911MD1710041+9999ME1313039OA149900511REMSYN076AAXX  05194 06645 33/// /0703 11059 21074 39291 48303 57004 333 91110 91207;
0137066450999992010010520004+47433+007883FM-12+061099999V0200701N002619999999N9999999N1-00561-00721999999ADDMA1999999092871MD1710071+9999ME1313009OA149900511REMSYN076AAXX  05204 06645 33/// /0705 11056 21072 39287 48300 57007 333 91110 91207;
0137066450999992010010521004+47433+007883FM-12+061099999V0200701N003619999999N9999999N1-00571-00741999999ADDMA1999999092831MD1710081+9999ME1312979OA149900571REMSYN076AAXX  05214 06645 33/// /0707 11057 21074 39283 48297 57008 333 91111 91207;
0154066450999992010010522004+47433+007883FM-12+061099999V0200701N002119999999N9999999N1-00591-00731999999ADDAA101000391MA1999999092811MD1710101+9999ME1312949OA149900511REMSYN082AAXX  05224 06645 23/// /0704 11059 21073 39281 48294 57010 333 69935 91110 91207;
0137066450999992010010523004+47433+007883FM-12+061099999V0200701N002619999999N9999999N1-00591-00711999999ADDMA1999999092781MD1710091+9999ME1312929OA149900511REMSYN076AAXX  05234 06645 33/// /0705 11059 21071 39278 48292 57009 333 91110 91206;
0160066450999992010010600004+47433+007883FM-12+061099999V0200601N002119999999N9999999N1-00581-00721999999ADDAA106000391MA1999999092761MD1710071+9999ME1312919OA149900571REMSYN088AAXX  06004 06645 03/// /0604 11058 21072 39276 48291 57007 69931 333 60005 91111 91207;
0137066450999992010010601004+47433+007883FM-12+061099999V0200701N002619999999N9999999N1-00581-00711999999ADDMA1999999092711MD1710101+9999ME1312869OA149900411REMSYN076AAXX  06014 06645 33/// /0705 11058 21071 39271 48286 57010 333 91108 91206;
0137066450999992010010602004+47433+007883FM-12+061099999V0200601N002119999999N9999999N1-00561-00681999999ADDMA1999999092751MD1510031+9999ME1312909OA149900411REMSYN076AAXX  06024 06645 33/// /0604 11056 21068 39275 48290 55003 333 91108 91206;
0137066450999992010010603004+47433+007883FM-12+061099999V0203101N001519999999N9999999N1-00571-00691999999ADDMA1999999092791MD1310031+9999ME1312939OA149900511REMSYN076AAXX  06034 06645 33/// /3103 11057 21069 39279 48293 53003 333 91110 91206;
0154066450999992010010604004+47433+007883FM-12+061099999V0203401N000519999999N9999999N1-00571-00671999999ADDAA101000021MA1999999092791MD1210081+9999ME1312939OA149900361REMSYN082AAXX  06044 06645 23/// /3401 11057 21067 39279 48293 52008 333 69915 91107 91204;
0137066450999992010010605004+47433+007883FM-12+061099999V0202701N001519999999N9999999N1-00551-00651999999ADDMA1999999092811MD1210061+9999ME1312959OA149900211REMSYN076AAXX  06054 06645 33/// /2703 11055 21065 39281 48295 52006 333 91104 91203;
0238066450999992010010606004+47433+007883FM-12+061099999V0202801N001519999999N9999999N1-00521-00651999999ADDAA112000591AA224000591AL12400091GJ100489IA2999-00609KA1999N-00591MA1999999092821MD1210031+9999ME1312979OA149900511REMSYN112AAXX  06064 06645 03/// /2803 11052 21065 39282 48297 52003 69942 333 21059 3/106 55008 60005 70004 91110 91207;
0137066450999992010010607004+47433+007883FM-12+061099999V0203001N001519999999N9999999N1-00521-00641999999ADDMA1999999092851MD1210061+9999ME1313009OA149900311REMSYN076AAXX  06074 06645 33/// /3003 11052 21064 39285 48300 52006 333 91106 91203;
0137066450999992010010608004+47433+007883FM-12+061099999V0202801N001519999999N9999999N1-00511-00611999999ADDMA1999999092911MD1210101+9999ME1313059OA149900361REMSYN076AAXX  06084 06645 33/// /2803 11051 21061 39291 48305 52010 333 91107 91204;
0154066450999992010010609004+47433+007883FM-12+061099999V0202601N000519999999N9999999N1-00501-00591999999ADDAA101000021MA1999999092961MD1210141+9999ME1313099OA149900361REMSYN082AAXX  06094 06645 23/// /2601 11050 21059 39296 48309 52014 333 69925 91107 91204;
0154066450999992010010610004+47433+007883FM-12+061099999V0203501N000519999999N9999999N1-00481-00571999999ADDAA101000021MA1999999092981MD1210131+9999ME1313119OA149900311REMSYN082AAXX  06104 06645 23/// /3501 11048 21057 39298 48311 52013 333 69925 91106 91203;
0137066450999992010010611004+47433+007883FM-12+061099999V0202801N001019999999N9999999N1-00451-00551999999ADDMA1999999092951MD1019999+9999ME1313109OA149900151REMSYN076AAXX  06114 06645 33/// /2802 11045 21055 39295 48310 50/// 333 91103 91202;
0160066450999992010010612004+47433+007883FM-12+061099999V0202901N001519999999N9999999N1-00431-00541999999ADDAA106000591MA1999999092941MD1710021+9999ME1313099OA149900411REMSYN088AAXX  06124 06645 03/// /2903 11043 21054 39294 48309 57002 69941 333 60005 91108 91206;
0137066450999992010010613004+47433+007883FM-12+061099999V0203301N001019999999N9999999N1-00461-00491999999ADDMA1999999092951MD1710031+9999ME1313099OA149900211REMSYN076AAXX  06134 06645 33/// /3302 11046 21049 39295 48309 57003 333 91104 91203;
0137066450999992010010614004+47433+007883FM-12+061099999V0203501N001519999999N9999999N1-00431-00471999999ADDMA1999999092971MD1219999+9999ME1313129OA149900211REMSYN076AAXX  06144 06645 33/// /3503 11043 21047 39297 48312 52/// 333 91104 91203;
0137066450999992010010615004+47433+007883FM-12+061099999V0203401N001019999999N9999999N1-00471-00481999999ADDMA1999999093001MD1219999+9999ME1313139OA149900211REMSYN076AAXX  06154 06645 33/// /3402 11047 21048 39300 48313 52/// 333 91104 91203;
0137066450999992010010616004+47433+007883FM-12+061099999V0203401N000519999999N9999999N1-00481-00481999999ADDMA1999999093051MD1110101+9999ME1313179OA149900211REMSYN076AAXX  06164 06645 33/// /3401 11048 21048 39305 48317 51010 333 91104 91203;
0137066450999992010010617004+47433+007883FM-12+061099999V0209999C000019999999N9999999N1-00481-00481999999ADDMA1999999093061MD1110091+9999ME1313189OA149900151REMSYN076AAXX  06174 06645 33/// /0000 11048 21048 39306 48318 51009 333 91103 91202;
0179066450999992010010618004+47433+007883FM-12+061099999V0200101N000519999999N9999999N1-00461-00461999999ADDAA112000591KA1120M-00421MA1999999093111MD1119999+9999ME1313239OA149900361REMSYN094AAXX  06184 06645 03/// /0101 11046 21046 39311 48323 51/// 69942 333 11042 60005 91107 91204;
0137066450999992010010619004+47433+007883FM-12+061099999V0200301N000519999999N9999999N1-00461-00461999999ADDMA1999999093131MD1310081+9999ME1313249OA149900101REMSYN076AAXX  06194 06645 33/// /0301 11046 21046 39313 48324 53008 333 91102 91202;
0137066450999992010010620004+47433+007883FM-12+061099999V0203501N001019999999N9999999N1-00431-00461999999ADDMA1999999093161MD1210101+9999ME1313289OA149900151REMSYN076AAXX  06204 06645 33/// /3502 11043 21046 39316 48328 52010 333 91103 91202;
0137066450999992010010621004+47433+007883FM-12+061099999V0203001N000519999999N9999999N1-00431-00481999999ADDMA1999999093201MD1210091+9999ME1313319OA149900211REMSYN076AAXX  06214 06645 33/// /3001 11043 21048 39320 48331 52009 333 91104 91203;
0137066450999992010010622004+47433+007883FM-12+061099999V0202501N001019999999N9999999N1-00411-00481999999ADDMA1999999093231MD1210101+9999ME1313349OA149900211REMSYN076AAXX  06224 06645 33/// /2502 11041 21048 39323 48334 52010 333 91104 91203;
0137066450999992010010623004+47433+007883FM-12+061099999V0202001N000519999999N9999999N1-00441-00501999999ADDMA1999999093251MD1110091+9999ME1313359OA149900151REMSYN076AAXX  06234 06645 33/// /2001 11044 21050 39325 48335 51009 333 91103 91202;
0137066450999992010010700004+47433+007883FM-12+061099999V0201401N001019999999N9999999N1-00401-00531999999ADDMA1999999093271MD1110071+9999ME1313389OA149900211REMSYN076AAXX  07004 06645 33/// /1402 11040 21053 39327 48338 51007 333 91104 91203;
0137066450999992010010701004+47433+007883FM-12+061099999V0202901N000519999999N9999999N1-00431-00531999999ADDMA1999999093301MD1310071+9999ME1313399OA149900151REMSYN076AAXX  07014 06645 33/// /2901 11043 21053 39330 48339 53007 333 91103 91202;
0137066450999992010010702004+47433+007883FM-12+061099999V0201401N001519999999N9999999N1-00461-00601999999ADDMA1999999093311MD1219999+9999ME1313399OA149900211REMSYN076AAXX  07024 06645 33/// /1403 11046 21060 39331 48339 52/// 333 91104 91203;
0137066450999992010010703004+47433+007883FM-12+061099999V0201501N002119999999N9999999N1-00521-00671999999ADDMA1999999093291MD1010021+9999ME1313369OA149900411REMSYN076AAXX  07034 06645 33/// /1504 11052 21067 39329 48336 50002 333 91108 91205;
0137066450999992010010704004+47433+007883FM-12+061099999V0201501N000519999999N9999999N1-00591-00711999999ADDMA1999999093291MD1710011+9999ME1313349OA149900411REMSYN076AAXX  07044 06645 33/// /1501 11059 21071 39329 48334 57001 333 91108 91205;
0137066450999992010010705004+47433+007883FM-12+061099999V0209999C000019999999N9999999N1-00451-00671999999ADDMA1999999093291MD1510021+9999ME1313389OA149900411REMSYN076AAXX  07054 06645 33/// /0000 11045 21067 39329 48338 55002 333 91108 91205;
0215066450999992010010706004+47433+007883FM-12+061099999V0200901N001519999999N9999999N1-00521-00661999999ADDAA124000591AL12400091GJ100009IA2999-01109KA1999N-00601MA1999999093331MD1310041+9999ME1313399OA149900411REMSYN100AAXX  07064 06645 33/// /0903 11052 21066 39333 48339 53004 333 21060 3/111 55000 70004 91108 91205;
0137066450999992010010707004+47433+007883FM-12+061099999V0200801N001519999999N9999999N1-00491-00621999999ADDMA1999999093361MD1210071+9999ME1313439OA149900261REMSYN076AAXX  07074 06645 33/// /0803 11049 21062 39336 48343 52007 333 91105 91203;
0137066450999992010010708004+47433+007883FM-12+061099999V0201201N001519999999N9999999N1-00451-00591999999ADDMA1999999093421MD1319999+9999ME1313499OA149900311REMSYN076AAXX  07084 06645 33/// /1203 11045 21059 39342 48349 53/// 333 91106 91203;
0137066450999992010010709004+47433+007883FM-12+061099999V0201401N002619999999N9999999N1-00251-00521999999ADDMA1999999093451MD1110121+9999ME1313579OA149900461REMSYN076AAXX  07094 06645 33/// /1405 11025 21052 39345 48357 51012 333 91109 91205;
0137066450999992010010710004+47433+007883FM-12+061099999V0201401N003619999999N9999999N1-00201-00541999999ADDMA1999999093501MD1210141+9999ME1313629OA149900571REMSYN076AAXX  07104 06645 33/// /1407 11020 21054 39350 48362 52014 333 91111 91207;
0137066450999992010010711004+47433+007883FM-12+061099999V0201401N001519999999N9999999N1-00061-00551999999ADDMA1999999093501MD1210081+9999ME1313669OA149900571REMSYN076AAXX  07114 06645 33/// /1403 11006 21055 39350 48366 52008 333 91111 91207;
0137066450999992010010712004+47433+007883FM-12+061099999V0201801N001019999999N9999999N1-00071-00571999999ADDMA1999999093501MD1210051+9999ME1313669OA149900571REMSYN076AAXX  07124 06645 33/// /1802 11007 21057 39350 48366 52005 333 91111 91207;
0137066450999992010010713004+47433+007883FM-12+061099999V0201401N002619999999N9999999N1-00061-00501999999ADDMA1999999093471MD1719999+9999ME1313649OA149900461REMSYN076AAXX  07134 06645 33/// /1405 11006 21050 39347 48364 57/// 333 91109 91205;
0137066450999992010010716004+47433+007883FM-12+061099999V0201401N002619999999N9999999N1-00171-00541999999ADDMA1999999093591MD1219999+9999ME1313719OA149900511REMSYN076AAXX  07164 06645 33/// /1405 11017 21054 39359 48371 52/// 333 91110 91207;
0137066450999992010010717004+47433+007883FM-12+061099999V0201401N002619999999N9999999N1-00171-00631999999ADDMA1999999093601MD1219999+9999ME1313729OA149900511REMSYN076AAXX  07174 06645 33/// /1405 11017 21063 39360 48372 52/// 333 91110 91207;
0156066450999992010010718004+47433+007883FM-12+061099999V0200501N000519999999N9999999N1-00151-00641999999ADDKA1120M-00061MA1999999093671MD1219999+9999ME1313789OA149900571REMSYN082AAXX  07184 06645 33/// /0501 11015 21064 39367 48378 52/// 333 11006 91111 91207;
0137066450999992010010719004+47433+007883FM-12+061099999V0200901N001519999999N9999999N1-00251-00471999999ADDMA1999999093691MD1210101+9999ME1313779OA149900411REMSYN076AAXX  07194 06645 33/// /0903 11025 21047 39369 48377 52010 333 91108 91205;
0137066450999992010010720004+47433+007883FM-12+061099999V0200701N001519999999N9999999N1-00301-00461999999ADDMA1999999093691MD1210091+9999ME1313759OA149900311REMSYN076AAXX  07204 06645 33/// /0703 11030 21046 39369 48375 52009 333 91106 91204;
0137066450999992010010721004+47433+007883FM-12+061099999V0200701N001519999999N9999999N1-00341-00481999999ADDMA1999999093711MD1210041+9999ME1313769OA149900511REMSYN076AAXX  07214 06645 33/// /0703 11034 21048 39371 48376 52004 333 91110 91207;
0137066450999992010010722004+47433+007883FM-12+061099999V0200801N002119999999N9999999N1-00331-00481999999ADDMA1999999093691MD1010001+9999ME1313759OA149900211REMSYN076AAXX  07224 06645 33/// /0804 11033 21048 39369 48375 50000 333 91104 91204;
0137066450999992010010723004+47433+007883FM-12+061099999V0200501N001519999999N9999999N1-00341-00471999999ADDMA1999999093711MD1210021+9999ME1313769OA149900261REMSYN076AAXX  07234 06645 33/// /0503 11034 21047 39371 48376 52002 333 91105 91204;
0137066450999992010010800004+47433+007883FM-12+061099999V0200301N001519999999N9999999N1-00311-00481999999ADDMA1999999093691MD1710021+9999ME1313759OA149900511REMSYN076AAXX  08004 06645 33/// /0303 11031 21048 39369 48375 57002 333 91110 91207;
0137066450999992010010801004+47433+007883FM-12+061099999V0202601N000519999999N9999999N1-00351-00481999999ADDMA1999999093661MD1710031+9999ME1313719OA149900261REMSYN076AAXX  08014 06645 33/// /2601 11035 21048 39366 48371 57003 333 91105 91203;
0137066450999992010010802004+47433+007883FM-12+061099999V0202801N001019999999N9999999N1-00371-00481999999ADDMA1999999093651MD1719999+9999ME1313709OA149900211REMSYN076AAXX  08024 06645 33/// /2802 11037 21048 39365 48370 57/// 333 91104 91203;
0137066450999992010010803004+47433+007883FM-12+061099999V0202301N001019999999N9999999N1-00371-00461999999ADDMA1999999093631MD1719999+9999ME1313689OA149900261REMSYN076AAXX  08034 06645 33/// /2302 11037 21046 39363 48368 57/// 333 91105 91204;
0137066450999992010010804004+47433+007883FM-12+061099999V0200201N000519999999N9999999N1-00401-00441999999ADDMA1999999093591MD1710071+9999ME1313649OA149900101REMSYN076AAXX  08044 06645 33/// /0201 11040 21044 39359 48364 57007 333 91102 91202;
0154066450999992010010805004+47433+007883FM-12+061099999V0200301N002119999999N9999999N1-00351-00431999999ADDAA101000021MA1999999093531MD1710121+9999ME1313619OA149900361REMSYN082AAXX  08054 06645 23/// /0304 11035 21043 39353 48361 57012 333 69925 91107 91204;
0238066450999992010010806004+47433+007883FM-12+061099999V0200401N003619999999N9999999N1-00281-00441999999ADDAA112000591AA224000591AL12400091GJ101389IA2999-00509KA1999N-00401MA1999999093501MD1710131+9999ME1313609OA149900571REMSYN112AAXX  08064 06645 03/// /0407 11028 21044 39350 48360 57013 69942 333 21040 3/105 55023 69925 70004 91111 91207;
0154066450999992010010807004+47433+007883FM-12+061099999V0200501N005119999999N9999999N1-00291-00431999999ADDAA101000391MA1999999093461MD1710131+9999ME1313579OA149900821REMSYN082AAXX  08074 06645 23/// /0510 11029 21043 39346 48357 57013 333 69935 91116 91210;
0154066450999992010010808004+47433+007883FM-12+061099999V0200501N004119999999N9999999N1-00281-00451999999ADDAA101000591MA1999999093431MD1710101+9999ME1313549OA149900821REMSYN082AAXX  08084 06645 23/// /0508 11028 21045 39343 48354 57010 333 69945 91116 91210;
0137066450999992010010809004+47433+007883FM-12+061099999V0200601N005719999999N9999999N1-00321-00511999999ADDMA1999999093391MD1810111+9999ME1313509OA149901031REMSYN076AAXX  08094 06645 33/// /0611 11032 21051 39339 48350 58011 333 91120 91212;
0154066450999992010010810004+47433+007883FM-12+061099999V0200601N003619999999N9999999N1-00311-00561999999ADDAA101000021MA1999999093361MD1710101+9999ME1313489OA149901031REMSYN082AAXX  08104 06645 23/// /0607 11031 21056 39336 48348 57010 333 69915 91120 91212;
0137066450999992010010811004+47433+007883FM-12+061099999V0200501N005119999999N9999999N1-00281-00581999999ADDMA1999999093291MD1710141+9999ME1313439OA149901241REMSYN076AAXX  08114 06645 33/// /0510 11028 21058 39329 48343 57014 333 91124 91212;
0160066450999992010010812004+47433+007883FM-12+061099999V0200501N002619999999N9999999N1-00271-00561999999ADDAA106000891MA1999999093201MD1710191+9999ME1313359OA149901241REMSYN088AAXX  08124 06645 03/// /0505 11027 21056 39320 48335 57019 69981 333 60005 91124 91212;
0137066450999992010010813004+47433+007883FM-12+061099999V0200501N001519999999N9999999N1-00271-00541999999ADDMA1999999093141MD1710221+9999ME1313309OA149900771REMSYN076AAXX  08134 06645 33/// /0503 11027 21054 39314 48330 57022 333 91115 91209;
0143066450999992010010814004+47433+007883FM-12+061099999V0200701N001519999999N9999999N1-00281-00531999999ADDMA1999999093131MD1619999+9999ME1313299OA149900511REMSYN082AAXX  08144 06645 33/// /0703 11028 21053 39313 48329 56/// 91340 333 91110 91205;
0137066450999992010010815004+47433+007883FM-12+061099999V0200601N003619999999N9999999N1-00301-00551999999ADDMA1999999093161MD1510041+9999ME1313319OA149901241REMSYN076AAXX  08154 06645 33/// /0607 11030 21055 39316 48331 55004 333 91124 91212;
0137066450999992010010816004+47433+007883FM-12+061099999V0200401N003119999999N9999999N1-00311-00591999999ADDMA1999999093201MD1210061+9999ME1313349OA149900721REMSYN076AAXX  08164 06645 33/// /0406 11031 21059 39320 48334 52006 333 91114 91208;
0137066450999992010010817004+47433+007883FM-12+061099999V0200601N004619999999N9999999N1-00361-00601999999ADDMA1999999093241MD1210101+9999ME1313369OA149900771REMSYN076AAXX  08174 06645 33/// /0609 11036 21060 39324 48336 52010 333 91115 91209;
0179066450999992010010818004+47433+007883FM-12+061099999V0200601N003119999999N9999999N1-00431-00631999999ADDAA112000891KA1120M-00261MA1999999093261MD1110101+9999ME1313369OA149901241REMSYN094AAXX  08184 06645 03/// /0606 11043 21063 39326 48336 51010 69982 333 11026 60005 91124 91212;
0137066450999992010010819004+47433+007883FM-12+061099999V0200601N003619999999N9999999N1-00451-00671999999ADDMA1999999093261MD1210061+9999ME1313359OA149900721REMSYN076AAXX  08194 06645 33/// /0607 11045 21067 39326 48335 52006 333 91114 91207;
0154066450999992010010820004+47433+007883FM-12+061099999V0200601N003119999999N9999999N1-00471-00681999999ADDAA101000021MA1999999093271MD1210031+9999ME1313369OA149900571REMSYN082AAXX  08204 06645 23/// /0606 11047 21068 39327 48336 52003 333 69915 91111 91207;
0154066450999992010010821004+47433+007883FM-12+061099999V0200401N003619999999N9999999N1-00501-00661999999ADDAA101000891MA1999999093271MD1510011+9999ME1313359OA149900771REMSYN082AAXX  08214 06645 23/// /0407 11050 21066 39327 48335 55001 333 69985 91115 91209;
0154066450999992010010822004+47433+007883FM-12+061099999V0200101N002119999999N9999999N1-00531-00681999999ADDAA101000591MA1999999093271MD1210011+9999ME1313349OA149900771REMSYN082AAXX  08224 06645 23/// /0104 11053 21068 39327 48334 52001 333 69945 91115 91209;
0154066450999992010010823004+47433+007883FM-12+061099999V0200101N002119999999N9999999N1-00531-00701999999ADDAA101000021MA1999999093301MD1210031+9999ME1313379OA149900411REMSYN082AAXX  08234 06645 23/// /0104 11053 21070 39330 48337 52003 333 69925 91108 91205;
0160066450999992010010900004+47433+007883FM-12+061099999V0209999C002119999999N9999999N1-00571-00681999999ADDAA106002091MA1999999093281MD1010011+9999ME1313349OA149900771REMSYN088AAXX  09004 06645 03/// /0004 11057 21068 39328 48334 50001 60021 333 60005 91115 91209;
0173066450999992010010901004+47433+007883FM-12+061099999V0203401N002119999999N9999999N1-00611-00701999999ADDAA101000021MA1999999093271MD1410001+9999ME1313329OA149900361REMSYN082AAXX  09014 06645 23/// /3404 11061 21070 39327 48332 58000 333 69915 91107 91205;EQDQ01+000082APCTEN
0137066450999992010010902004+47433+007883FM-12+061099999V0203301N000519999999N9999999N1-00651-00731999999ADDMA1999999093271MD1719999+9999ME1313319OA149900311REMSYN076AAXX  09024 06645 33/// /3301 11065 21073 39327 48331 57/// 333 91106 91204;
0137066450999992010010903004+47433+007883FM-12+061099999V0202901N001519999999N9999999N1-00681-00761999999ADDMA1999999093291MD1219999+9999ME1313329OA149900411REMSYN076AAXX  09034 06645 33/// /2903 11068 21076 39329 48332 52/// 333 91108 91205;
0137066450999992010010904004+47433+007883FM-12+061099999V0200101N001019999999N9999999N1-00661-00751999999ADDMA1999999093251MD1810021+9999ME1313299OA149900261REMSYN076AAXX  09044 06645 33/// /0102 11066 21075 39325 48329 58002 333 91105 91203;
0137066450999992010010905004+47433+007883FM-12+061099999V0203301N001019999999N9999999N1-00701-00761999999ADDMA1999999093231MD1810041+9999ME1313269OA149900261REMSYN076AAXX  09054 06645 33/// /3302 11070 21076 39323 48326 58004 333 91105 91203;
0238066450999992010010906004+47433+007883FM-12+061099999V0203401N001519999999N9999999N1-00701-00781999999ADDAA112002091AA224002391AL12400291GJ100009IA2999-00709KA1999N-00701MA1999999093191MD1710101+9999ME1313239OA149900771REMSYN112AAXX  09064 06645 03/// /3403 11070 21078 39319 48323 57010 60022 333 21070 3/107 55000 60005 70024 91115 91209;
0137066450999992010010907004+47433+007883FM-12+061099999V0203401N001519999999N9999999N1-00711-00771999999ADDMA1999999093171MD1710081+9999ME1313219OA149900361REMSYN076AAXX  09074 06645 33/// /3403 11071 21077 39317 48321 57008 333 91107 91204;
0137066450999992010010908004+47433+007883FM-12+061099999V0203401N001519999999N9999999N1-00711-00751999999ADDMA1999999093201MD1510031+9999ME1313239OA149900361REMSYN076AAXX  09084 06645 33/// /3403 11071 21075 39320 48323 55003 333 91107 91204;
0137066450999992010010909004+47433+007883FM-12+061099999V0209999C002119999999N9999999N1-00671-00761999999ADDMA1999999093221MD1210031+9999ME1313269OA149900361REMSYN076AAXX  09094 06645 33/// /0004 11067 21076 39322 48326 52003 333 91107 91204;
0137066450999992010010910004+47433+007883FM-12+061099999V0203501N002119999999N9999999N1-00661-00741999999ADDMA1999999093221MD1210051+9999ME1313269OA149900361REMSYN076AAXX  09104 06645 33/// /3504 11066 21074 39322 48326 52005 333 91107 91204;
0137066450999992010010911004+47433+007883FM-12+061099999V0203401N001519999999N9999999N1-00691-00741999999ADDMA1999999093151MD1810051+9999ME1313209OA149900361REMSYN076AAXX  09114 06645 33/// /3403 11069 21074 39315 48320 58005 333 91107 91204;
0137066450999992010010912004+47433+007883FM-12+061099999V0203501N001519999999N9999999N1-00641-00761999999ADDMA1999999093141MD1710081+9999ME1313209OA149900361REMSYN076AAXX  09124 06645 33/// /3503 11064 21076 39314 48320 57008 333 91107 91204;
0137066450999992010010913004+47433+007883FM-12+061099999V0203201N001519999999N9999999N1-00661-00811999999ADDMA1999999093131MD1710091+9999ME1313199OA149900311REMSYN076AAXX  09134 06645 33/// /3203 11066 21081 39313 48319 57009 333 91106 91204;
0137066450999992010010914004+47433+007883FM-12+061099999V0203101N002119999999N9999999N1-00651-00811999999ADDMA1999999093131MD1510021+9999ME1313199OA149900311REMSYN076AAXX  09144 06645 33/// /3104 11065 21081 39313 48319 55002 333 91106 91204;
0137066450999992010010915004+47433+007883FM-12+061099999V0202901N001519999999N9999999N1-00661-00771999999ADDMA1999999093161MD1310021+9999ME1313219OA149900361REMSYN076AAXX  09154 06645 33/// /2903 11066 21077 39316 48321 53002 333 91107 91204;
0137066450999992010010916004+47433+007883FM-12+061099999V0202701N001019999999N9999999N1-00671-00741999999ADDMA1999999093171MD1210041+9999ME1313229OA149900261REMSYN076AAXX  09164 06645 33/// /2702 11067 21074 39317 48322 52004 333 91105 91203;
0137066450999992010010917004+47433+007883FM-12+061099999V0203001N001019999999N9999999N1-00641-00731999999ADDMA1999999093171MD1210041+9999ME1313239OA149900261REMSYN076AAXX  09174 06645 33/// /3002 11064 21073 39317 48323 52004 333 91105 91203;
0156066450999992010010918004+47433+007883FM-12+061099999V0203001N001519999999N9999999N1-00651-00721999999ADDKA1120M-00631MA1999999093191MD1210031+9999ME1313249OA149900361REMSYN082AAXX  09184 06645 33/// /3003 11065 21072 39319 48324 52003 333 11063 91107 91204;
0154066450999992010010919004+47433+007883FM-12+061099999V0203001N001519999999N9999999N1-00641-00771999999ADDAA101000591MA1999999093221MD1210051+9999ME1313279OA149900361REMSYN082AAXX  09194 06645 23/// /3003 11064 21077 39322 48327 52005 333 69965 91107 91204;
0154066450999992010010920004+47433+007883FM-12+061099999V0202701N000519999999N9999999N1-00651-00771999999ADDAA101001091MA1999999093261MD1210091+9999ME1313309OA149900261REMSYN082AAXX  09204 06645 23/// /2701 11065 21077 39326 48330 52009 333 60015 91105 91203;
0154066450999992010010921004+47433+007883FM-12+061099999V0202501N001019999999N9999999N1-00671-00791999999ADDAA101001091MA1999999093291MD1210101+9999ME1313329OA149900361REMSYN082AAXX  09214 06645 23/// /2502 11067 21079 39329 48332 52010 333 69995 91107 91204;
0154066450999992010010922004+47433+007883FM-12+061099999V0202401N001019999999N9999999N1-00681-00791999999ADDAA101000591MA1999999093321MD1210101+9999ME1313349OA149900211REMSYN082AAXX  09224 06645 23/// /2402 11068 21079 39332 48334 52010 333 69955 91104 91202;
0154066450999992010010923004+47433+007883FM-12+061099999V0202401N000519999999N9999999N1-00681-00791999999ADDAA101000391MA1999999093341MD1210081+9999ME1313369OA149900211REMSYN082AAXX  09234 06645 23/// /2401 11068 21079 39334 48336 52008 333 69935 91104 91202;
0160066450999992010011000004+47433+007883FM-12+061099999V0202501N000519999999N9999999N1-00681-00811999999ADDAA106004191MA1999999093361MD1110071+9999ME1313379OA149900361REMSYN088AAXX  10004 06645 03/// /2501 11068 21081 39336 48337 51007 60041 333 69915 91107 91204;
0154066450999992010011001004+47433+007883FM-12+061099999V0202401N000519999999N9999999N1-00681-00811999999ADDAA101000021MA1999999093391MD1110071+9999ME1313409OA149900101REMSYN082AAXX  10014 06645 23/// /2401 11068 21081 39339 48340 51007 333 69925 91102 91202;
0117066450999992010011002004+47433+007883FM-12+061099999V0202201N000519999999N9999999N1-00711-00801999999ADDAA101000021MA1999999093451ME1313449REMSYN070AAXX  10024 06645 23/// /2201 11071 21080 39345 48344 5//// 333 69915;
0096066450999992010011003004+47433+007883FM-12+061099999V0202301N001019999999N9999999N1-00691-00821999999ADDMA1999999093491ME1313489REMSYN060AAXX  10034 06645 43/// /2302 11069 21082 39349 48348 5////;
0137066450999992010011004004+47433+007883FM-12+061099999V0202301N000519999999N9999999N1-00671-00821999999ADDMA1999999093531MD1110141+9999ME1313529OA149900151REMSYN076AAXX  10044 06645 33/// /2301 11067 21082 39353 48352 51014 333 91103 91202;
0137066450999992010011005004+47433+007883FM-12+061099999V0202501N000519999999N9999999N1-00651-00861999999ADDMA1999999093571MD1110121+9999ME1313559OA149900151REMSYN076AAXX  10054 06645 33/// /2501 11065 21086 39357 48355 51012 333 91103 91202;
0238066450999992010011006004+47433+007883FM-12+061099999V0202601N001019999999N9999999N1-00671-00831999999ADDAA112004191AA224004191AL19900491GJ100009IA2999-00609KA1999N-00721MA1999999093621MD1210131+9999ME1313599OA149900261REMSYN112AAXX  10064 06645 03/// /2602 11067 21083 39362 48359 52013 60042 333 21072 3/106 55000 60005 70040 91105 91203;
0137066450999992010011007004+47433+007883FM-12+061099999V0209999C000019999999N9999999N1-00731-00831999999ADDMA1999999093691MD1310161+9999ME1313639OA149900211REMSYN076AAXX  10074 06645 33/// /0000 11073 21083 39369 48363 53016 333 91104 91203;
0137066450999992010011008004+47433+007883FM-12+061099999V0202401N001019999999N9999999N1-00671-00831999999ADDMA1999999093771MD1319999+9999ME1313719OA149900211REMSYN076AAXX  10084 06645 33/// /2402 11067 21083 39377 48371 53/// 333 91104 91203;
0137066450999992010011009004+47433+007883FM-12+061099999V0202601N000519999999N9999999N1-00651-00781999999ADDMA1999999093841MD1310221+9999ME1313789OA149900211REMSYN076AAXX  10094 06645 33/// /2601 11065 21078 39384 48378 53022 333 91104 91203;
0137066450999992010011010004+47433+007883FM-12+061099999V0202801N001519999999N9999999N1-00591-00831999999ADDMA1999999093881MD1110191+9999ME1313839OA149900311REMSYN076AAXX  10104 06645 33/// /2803 11059 21083 39388 48383 51019 333 91106 91203;
0137066450999992010011011004+47433+007883FM-12+061099999V0202901N000519999999N9999999N1-00601-00781999999ADDMA1999999093941MD1110171+9999ME1313879OA149900311REMSYN076AAXX  10114 06645 33/// /2901 11060 21078 39394 48387 51017 333 91106 91203;
0137066450999992010011012004+47433+007883FM-12+061099999V0202901N000519999999N9999999N1-00531-00811999999ADDMA1999999093941MD1210101+9999ME1313899OA149900311REMSYN076AAXX  10124 06645 33/// /2901 11053 21081 39394 48389 52010 333 91106 91203;
0137066450999992010011013004+47433+007883FM-12+061099999V0202601N000519999999N9999999N1-00531-00831999999ADDMA1999999093971MD1210091+9999ME1313929OA149900151REMSYN076AAXX  10134 06645 33/// /2601 11053 21083 39397 48392 52009 333 91103 91202;
0137066450999992010011014004+47433+007883FM-12+061099999V0203001N000519999999N9999999N1-00521-00791999999ADDMA1999999094021MD1219999+9999ME1313969OA149900151REMSYN076AAXX  10144 06645 33/// /3001 11052 21079 39402 48396 52/// 333 91103 91202;
0137066450999992010011015004+47433+007883FM-12+061099999V0209999C000019999999N9999999N1-00551-00671999999ADDMA1999999094041MD1310101+9999ME1313979OA149900311REMSYN076AAXX  10154 06645 33/// /0000 11055 21067 39404 48397 53010 333 91106 91203;
0137066450999992010011016004+47433+007883FM-12+061099999V0200101N001019999999N9999999N1-00561-00681999999ADDMA1999999094111MD1110141+9999ME1314029OA149900151REMSYN076AAXX  10164 06645 33/// /0102 11056 21068 39411 48402 51014 333 91103 91202;
0137066450999992010011017004+47433+007883FM-12+061099999V0200401N000519999999N9999999N1-00581-00681999999ADDMA1999999094141MD1110121+9999ME1314049OA149900151REMSYN076AAXX  10174 06645 33/// /0401 11058 21068 39414 48404 51012 333 91103 91202;
0156066450999992010011018004+47433+007883FM-12+061099999V0200101N001019999999N9999999N1-00601-00771999999ADDKA1120M-00521MA1999999094181MD1110141+9999ME1314079OA149900311REMSYN082AAXX  10184 06645 33/// /0102 11060 21077 39418 48407 51014 333 11052 91106 91203;
0137066450999992010011019004+47433+007883FM-12+061099999V0200101N000519999999N9999999N1-00601-00761999999ADDMA1999999094191MD1210081+9999ME1314089OA149900151REMSYN076AAXX  10194 06645 33/// /0101 11060 21076 39419 48408 52008 333 91103 91202;
0137066450999992010011020004+47433+007883FM-12+061099999V0203201N000519999999N9999999N1-00611-00751999999ADDMA1999999094201MD1210061+9999ME1314089OA149900151REMSYN076AAXX  10204 06645 33/// /3201 11061 21075 39420 48408 52006 333 91103 91202;
0137066450999992010011021004+47433+007883FM-12+061099999V0200301N001019999999N9999999N1-00611-00701999999ADDMA1999999094221MD1210041+9999ME1314109OA149900151REMSYN076AAXX  10214 06645 33/// /0302 11061 21070 39422 48410 52004 333 91103 91202;
0137066450999992010011022004+47433+007883FM-12+061099999V0200101N000519999999N9999999N1-00641-00731999999ADDMA1999999094211MD1210021+9999ME1314089OA149900151REMSYN076AAXX  10224 06645 33/// /0101 11064 21073 39421 48408 52002 333 91103 91202;
0137066450999992010011023004+47433+007883FM-12+061099999V0209999C000019999999N9999999N1-00641-00751999999ADDMA1999999094201MD1010001+9999ME1314079OA149900101REMSYN076AAXX  10234 06645 33/// /0000 11064 21075 39420 48407 50000 333 91102 91201;
0137066450999992010011100004+47433+007883FM-12+061099999V0201901N000519999999N9999999N1-00651-00771999999ADDMA1999999094201MD1710021+9999ME1314079OA149900151REMSYN076AAXX  11004 06645 33/// /1901 11065 21077 39420 48407 57002 333 91103 91202;
0137066450999992010011101004+47433+007883FM-12+061099999V0200301N000519999999N9999999N1-00681-00761999999ADDMA1999999094201MD1710011+9999ME1314069OA149900101REMSYN076AAXX  11014 06645 33/// /0301 11068 21076 39420 48406 57001 333 91102 91201;
0137066450999992010011102004+47433+007883FM-12+061099999V0201601N000519999999N9999999N1-00641-00841999999ADDMA1999999094221MD1219999+9999ME1314099OA149900101REMSYN076AAXX  11024 06645 33/// /1601 11064 21084 39422 48409 52/// 333 91102 91201;
0137066450999992010011103004+47433+007883FM-12+061099999V0201401N001019999999N9999999N1-00631-00851999999ADDMA1999999094181MD1819999+9999ME1314069OA149900211REMSYN076AAXX  11034 06645 33/// /1402 11063 21085 39418 48406 58/// 333 91104 91202;
0137066450999992010011104004+47433+007883FM-12+061099999V0200601N001019999999N9999999N1-00651-00821999999ADDMA1999999094191MD1710011+9999ME1314069OA149900211REMSYN076AAXX  11044 06645 33/// /0602 11065 21082 39419 48406 57001 333 91104 91202;
0137066450999992010011105004+47433+007883FM-12+061099999V0201701N003119999999N9999999N1-00581-00901999999ADDMA1999999094161MD1710061+9999ME1314069OA149900461REMSYN076AAXX  11054 06645 33/// /1706 11058 21090 39416 48406 57006 333 91109 91206;
0234066450999992010011106004+47433+007883FM-12+061099999V0200101N001519999999N9999999N1-00601-00841999999ADDAA124000091AL19900091GJ100009IA2999-00509KA1999N-00711MA1999999094151MD1710031+9999ME1314049OA149900461REMSYN100AAXX  11064 06645 33/// /0103 11060 21084 39415 48404 57003 333 21071 3/105 55000 70000 91109 91206;EQDQ01  00002PRCP24
0137066450999992010011107004+47433+007883FM-12+061099999V0200401N001019999999N9999999N1-00641-00781999999ADDMA1999999094171MD1510021+9999ME1314059OA149900461REMSYN076AAXX  11074 06645 33/// /0402 11064 21078 39417 48405 55002 333 91109 91205;
0137066450999992010011108004+47433+007883FM-12+061099999V0200301N000519999999N9999999N1-00611-00771999999ADDMA1999999094181MD1219999+9999ME1314069OA149900261REMSYN076AAXX  11084 06645 33/// /0301 11061 21077 39418 48406 52/// 333 91105 91203;
0137066450999992010011109004+47433+007883FM-12+061099999V0209999C000019999999N9999999N1-00581-00801999999ADDMA1999999094201MD1310051+9999ME1314099OA149900461REMSYN076AAXX  11094 06645 33/// /0000 11058 21080 39420 48409 53005 333 91109 91206;
0137066450999992010011110004+47433+007883FM-12+061099999V0202901N000519999999N9999999N1-00511-00831999999ADDMA1999999094211MD1319999+9999ME1314129OA149900151REMSYN076AAXX  11104 06645 33/// /2901 11051 21083 39421 48412 53/// 333 91103 91201;
0137066450999992010011111004+47433+007883FM-12+061099999V0201901N001019999999N9999999N1-00431-00761999999ADDMA1999999094191MD1010011+9999ME1314139OA149900261REMSYN076AAXX  11114 06645 33/// /1902 11043 21076 39419 48413 50001 333 91105 91202;
0137066450999992010011112004+47433+007883FM-12+061099999V0201801N000519999999N9999999N1-00421-00771999999ADDMA1999999094171MD1710031+9999ME1314119OA149900461REMSYN076AAXX  11124 06645 33/// /1801 11042 21077 39417 48411 57003 333 91109 91206;
0137066450999992010011113004+47433+007883FM-12+061099999V0203401N001519999999N9999999N1-00451-00661999999ADDMA1999999094161MD1810051+9999ME1314109OA149900211REMSYN076AAXX  11134 06645 33/// /3403 11045 21066 39416 48410 58005 333 91104 91203;
0096066450999992010011114004+47433+007883FM-12+061099999V0203401N001019999999N9999999N1-00461-00621999999ADDMA1999999094191ME1314129REMSYN060AAXX  11144 06645 33/// /3402 11046 21062 39419 48412 5////;
0137066450999992010011115004+47433+007883FM-12+061099999V0202701N000519999999N9999999N1-00461-00641999999ADDMA1999999094231MD1210061+9999ME1314159OA149900261REMSYN076AAXX  11154 06645 33/// /2701 11046 21064 39423 48415 52006 333 91105 91203;
0154066450999992010011116004+47433+007883FM-12+061099999V0202601N001019999999N9999999N1-00481-00611999999ADDAA101000021MA1999999094251MD1110091+9999ME1314169OA149900211REMSYN082AAXX  11164 06645 23/// /2602 11048 21061 39425 48416 51009 333 69915 91104 91203;
0154066450999992010011117004+47433+007883FM-12+061099999V0202801N001019999999N9999999N1-00491-00631999999ADDAA101000021MA1999999094291MD1210101+9999ME1314199OA149900151REMSYN082AAXX  11174 06645 23/// /2802 11049 21063 39429 48419 52010 333 69925 91103 91202;
0179066450999992010011118004+47433+007883FM-12+061099999V0202801N000519999999N9999999N1-00511-00601999999ADDAA112000591KA1120M-00421MA1999999094331MD1210101+9999ME1314229OA149900261REMSYN094AAXX  11184 06645 03/// /2801 11051 21060 39433 48422 52010 69942 333 11042 69915 91105 91203;
0137066450999992010011119004+47433+007883FM-12+061099999V0202601N000519999999N9999999N1-00511-00591999999ADDMA1999999094351MD1210101+9999ME1314239OA149900151REMSYN076AAXX  11194 06645 33/// /2601 11051 21059 39435 48423 52010 333 91103 91202;
0154066450999992010011120004+47433+007883FM-12+061099999V0209999C000019999999N9999999N1-00521-00581999999ADDAA101000021MA1999999094371MD1110081+9999ME1314259OA149900051REMSYN082AAXX  11204 06645 23/// /0000 11052 21058 39437 48425 51008 333 69915 91101 91201;
0154066450999992010011121004+47433+007883FM-12+061099999V0202401N000519999999N9999999N1-00491-00621999999ADDAA101000021MA1999999094381MD1210051+9999ME1314269OA149900151REMSYN082AAXX  11214 06645 23/// /2401 11049 21062 39438 48426 52005 333 69925 91103 91202;
0154066450999992010011122004+47433+007883FM-12+061099999V0202901N000519999999N9999999N1-00521-00611999999ADDAA101000021MA1999999094381MD1210031+9999ME1314269OA149900101REMSYN082AAXX  11224 06645 23/// /2901 11052 21061 39438 48426 52003 333 69925 91102 91201;
0137066450999992010011123004+47433+007883FM-12+061099999V0209999C000019999999N9999999N1-00511-00591999999ADDMA1999999094391MD1310021+9999ME1314279OA149900051REMSYN076AAXX  11234 06645 33/// /0000 11051 21059 39439 48427 53002 333 91101 91201;
0160066450999992010011200004+47433+007883FM-12+061099999V0209999C000019999999N9999999N1-00531-00581999999ADDAA106000591MA1999999094391MD1210011+9999ME1314269OA149900211REMSYN088AAXX  12004 06645 03/// /0000 11053 21058 39439 48426 52001 69961 333 69915 91104 91203;
0154066450999992010011201004+47433+007883FM-12+061099999V0201901N000519999999N9999999N1-00481-00601999999ADDAA101000021MA1999999094381MD1010001+9999ME1314279OA149900101REMSYN082AAXX  12014 06645 23/// /1901 11048 21060 39438 48427 50000 333 69915 91102 91201;
0137066450999992010011202004+47433+007883FM-12+061099999V0209999C000019999999N9999999N1-00471-00591999999ADDMA1999999094381MD1719999+9999ME1314279OA149900101REMSYN076AAXX  12024 06645 33/// /0000 11047 21059 39438 48427 57/// 333 91102 91201;
0137066450999992010011203004+47433+007883FM-12+061099999V0209999C000019999999N9999999N1-00481-00591999999ADDMA1999999094351MD1710041+9999ME1314249OA149900101REMSYN076AAXX  12034 06645 33/// /0000 11048 21059 39435 48424 57004 333 91102 91201;
0137066450999992010011204004+47433+007883FM-12+061099999V0209999C000019999999N9999999N1-00511-00581999999ADDMA1999999094341MD1710041+9999ME1314239OA149900051REMSYN076AAXX  12044 06645 33/// /0000 11051 21058 39434 48423 57004 333 91101 91201;
0137066450999992010011205004+47433+007883FM-12+061099999V0200501N000519999999N9999999N1-00511-00581999999ADDMA1999999094331MD1710051+9999ME1314229OA149900101REMSYN076AAXX  12054 06645 33/// /0501 11051 21058 39433 48422 57005 333 91102 91201;
0238066450999992010011206004+47433+007883FM-12+061099999V0200701N000519999999N9999999N1-00501-00571999999ADDAA112000891AA224001091AL10600191GJ100069IA2999-00309KA1999N-00531MA1999999094291MD1810061+9999ME1314199OA149900101REMSYN112AAXX  12064 06645 03/// /0701 11050 21057 39429 48419 58006 69972 333 21053 3/103 55001 60005 70011 91102 91202;
0137066450999992010011207004+47433+007883FM-12+061099999V0200801N001019999999N9999999N1-00531-00611999999ADDMA1999999094241MD1810101+9999ME1314149OA149900151REMSYN076AAXX  12074 06645 33/// /0802 11053 21061 39424 48414 58010 333 91103 91202;
0137066450999992010011208004+47433+007883FM-12+061099999V0200901N001019999999N9999999N1-00581-00651999999ADDMA1999999094181MD1819999+9999ME1314079OA149900151REMSYN076AAXX  12084 06645 33/// /0902 11058 21065 39418 48407 58/// 333 91103 91202;
0137066450999992010011209004+47433+007883FM-12+061099999V0201301N001519999999N9999999N1-00421-00631999999ADDMA1999999094141MD1610151+9999ME1314099OA149900211REMSYN076AAXX  12094 06645 33/// /1303 11042 21063 39414 48409 56015 333 91104 91203;
0137066450999992010011210004+47433+007883FM-12+061099999V0201101N001519999999N9999999N1-00361-00601999999ADDMA1999999094081MD1710161+9999ME1314069OA149900261REMSYN076AAXX  12104 06645 33/// /1103 11036 21060 39408 48406 57016 333 91105 91203;
0137066450999992010011211004+47433+007883FM-12+061099999V0201301N002619999999N9999999N1-00361-00571999999ADDMA1999999093991MD1710191+9999ME1313989OA149900361REMSYN076AAXX  12114 06645 33/// /1305 11036 21057 39399 48398 57019 333 91107 91205;
0137066450999992010011212004+47433+007883FM-12+061099999V0201201N002619999999N9999999N1-00371-00571999999ADDMA1999999093911MD1710231+9999ME1313929OA149900461REMSYN076AAXX  12124 06645 33/// /1205 11037 21057 39391 48392 57023 333 91109 91205;
0137066450999992010011213004+47433+007883FM-12+061099999V0201601N002619999999N9999999N1-00371-00561999999ADDMA1999999093841MD1610241+9999ME1313869OA149900461REMSYN076AAXX  12134 06645 33/// /1605 11037 21056 39384 48386 56024 333 91109 91205;
0096066450999992010011214004+47433+007883FM-12+061099999V0201301N002619999999N9999999N1-00371-00551999999ADDMA1999999093741ME1313789REMSYN060AAXX  12144 06645 33/// /1305 11037 21055 39374 48378 5////;
0137066450999992010011215004+47433+007883FM-12+061099999V0201201N004119999999N9999999N1-00371-00581999999ADDMA1999999093671MD1710241+9999ME1313729OA149900721REMSYN076AAXX  12154 06645 33/// /1208 11037 21058 39367 48372 57024 333 91114 91208;
0137066450999992010011216004+47433+007883FM-12+061099999V0201201N003119999999N9999999N1-00381-00571999999ADDMA1999999093591MD1610251+9999ME1313659OA149900771REMSYN076AAXX  12164 06645 33/// /1206 11038 21057 39359 48365 56025 333 91115 91208;
0137066450999992010011217004+47433+007883FM-12+061099999V0201001N003619999999N9999999N1-00391-00571999999ADDMA1999999093551MD1810191+9999ME1313619OA149900771REMSYN076AAXX  12174 06645 33/// /1007 11039 21057 39355 48361 58019 333 91115 91208;
0156066450999992010011218004+47433+007883FM-12+061099999V0201201N002619999999N9999999N1-00381-00541999999ADDKA1120M-00351MA1999999093511MD1710161+9999ME1313589OA149900771REMSYN082AAXX  12184 06645 33/// /1205 11038 21054 39351 48358 57016 333 11035 91115 91208;
0137066450999992010011219004+47433+007883FM-12+061099999V0201101N004619999999N9999999N1-00371-00521999999ADDMA1999999093461MD1710131+9999ME1313549OA149900881REMSYN076AAXX  12194 06645 33/// /1109 11037 21052 39346 48354 57013 333 91117 91210;
0137066450999992010011220004+47433+007883FM-12+061099999V0201101N003619999999N9999999N1-00371-00511999999ADDMA1999999093421MD1710131+9999ME1313519OA149900881REMSYN076AAXX  12204 06645 33/// /1107 11037 21051 39342 48351 57013 333 91117 91210;
0137066450999992010011221004+47433+007883FM-12+061099999V0201201N002619999999N9999999N1-00361-00531999999ADDMA1999999093371MD1710141+9999ME1313479OA149900881REMSYN076AAXX  12214 06645 33/// /1205 11036 21053 39337 48347 57014 333 91117 91210;
0137066450999992010011222004+47433+007883FM-12+061099999V0201101N002619999999N9999999N1-00351-00531999999ADDMA1999999093311MD1710151+9999ME1313429OA149900621REMSYN076AAXX  12224 06645 33/// /1105 11035 21053 39331 48342 57015 333 91112 91206;
0137066450999992010011223004+47433+007883FM-12+061099999V0201201N002619999999N9999999N1-00361-00521999999ADDMA1999999093301MD1610121+9999ME1313419OA149900571REMSYN076AAXX  12234 06645 33/// /1205 11036 21052 39330 48341 56012 333 91111 91206;
0137066450999992010011300004+47433+007883FM-12+061099999V0202101N001519999999N9999999N1-00371-00541999999ADDMA1999999093411MD1310041+9999ME1313509OA149900881REMSYN076AAXX  13004 06645 33/// /2103 11037 21054 39341 48350 53004 333 91117 91210;
0137066450999992010011301004+47433+007883FM-12+061099999V0201101N003119999999N9999999N1-00411-00571999999ADDMA1999999093321MD1010011+9999ME1313429OA149900621REMSYN076AAXX  13014 06645 33/// /1106 11041 21057 39332 48342 50001 333 91112 91206;
0137066450999992010011302004+47433+007883FM-12+061099999V0201301N004119999999N9999999N1-00421-00581999999ADDMA1999999093271MD1819999+9999ME1313379OA149900721REMSYN076AAXX  13024 06645 33/// /1308 11042 21058 39327 48337 58/// 333 91114 91208;
0137066450999992010011303004+47433+007883FM-12+061099999V0201501N004619999999N9999999N1-00391-00571999999ADDMA1999999093231MD1619999+9999ME1313359OA149900881REMSYN076AAXX  13034 06645 33/// /1509 11039 21057 39323 48335 56/// 333 91117 91210;
0137066450999992010011304004+47433+007883FM-12+061099999V0201301N004119999999N9999999N1-00351-00591999999ADDMA1999999093191MD1810131+9999ME1313329OA149900981REMSYN076AAXX  13044 06645 33/// /1308 11035 21059 39319 48332 58013 333 91119 91211;
0137066450999992010011305004+47433+007883FM-12+061099999V0200801N003119999999N9999999N1-00331-00541999999ADDMA1999999093161MD1610111+9999ME1313309OA149900981REMSYN076AAXX  13054 06645 33/// /0806 11033 21054 39316 48330 56011 333 91119 91211;
0234066450999992010011306004+47433+007883FM-12+061099999V0201001N002119999999N9999999N1-00361-00571999999ADDAA124000091AL19900091GJ100009IA2999-00309KA1999N-00421MA1999999093211MD1510021+9999ME1313349OA149900981REMSYN100AAXX  13064 06645 33/// /1004 11036 21057 39321 48334 55002 333 21042 3/103 55000 70000 91119 91211;EQDQ01  00002PRCP24
0137066450999992010011307004+47433+007883FM-12+061099999V0201701N002119999999N9999999N1-00321-00531999999ADDMA1999999093271MD1310081+9999ME1313409OA149900571REMSYN076AAXX  13074 06645 33/// /1704 11032 21053 39327 48340 53008 333 91111 91208;
0137066450999992010011308004+47433+007883FM-12+061099999V0201201N002619999999N9999999N1-00181-00391999999ADDMA1999999093301MD1110141+9999ME1313469OA149900571REMSYN076AAXX  13084 06645 33/// /1205 11018 21039 39330 48346 51014 333 91111 91206;
0137066450999992010011309004+47433+007883FM-12+061099999V0201201N002619999999N9999999N1-00101-00311999999ADDMA1999999093351MD1110141+9999ME1313539OA149900981REMSYN076AAXX  13094 06645 33/// /1205 11010 21031 39335 48353 51014 333 91119 91211;
0137066450999992010011310004+47433+007883FM-12+061099999V0201601N003119999999N9999999N1-00031-00261999999ADDMA1999999093391MD1310121+9999ME1313589OA149900621REMSYN076AAXX  13104 06645 33/// /1606 11003 21026 39339 48358 53012 333 91112 91206;
0137066450999992010011311004+47433+007883FM-12+061099999V0201501N002619999999N9999999N1-00081-00301999999ADDMA1999999093391MD1210091+9999ME1313579OA149900671REMSYN076AAXX  13114 06645 33/// /1505 11008 21030 39339 48357 52009 333 91113 91209;
0137066450999992010011312004+47433+007883FM-12+061099999V0201701N002619999999N9999999N1+00031-00221999999ADDMA1999999093371MD1010021+9999ME1313589OA149900981REMSYN076AAXX  13124 06645 33/// /1705 10003 21022 39337 48358 50002 333 91119 91211;
0137066450999992010011313004+47433+007883FM-12+061099999V0201701N002119999999N9999999N1+00111-00181999999ADDMA1999999093371MD1710021+9999ME1313609OA149900621REMSYN076AAXX  13134 06645 33/// /1704 10011 21018 39337 48360 57002 333 91112 91206;
0137066450999992010011314004+47433+007883FM-12+061099999V0202201N002119999999N9999999N1+00221-00041999999ADDMA1999999093401MD1319999+9999ME1313669OA149900461REMSYN076AAXX  13144 06645 33/// /2204 10022 21004 39340 48366 53/// 333 91109 91205;
0154066450999992010011315004+47433+007883FM-12+061099999V0202301N000519999999N9999999N1+00101-00051999999ADDAA101000021MA1999999093441MD1210071+9999ME1313669OA149900671REMSYN082AAXX  13154 06645 23/// /2301 10010 21005 39344 48366 52007 333 69915 91113 91209;
0137066450999992010011316004+47433+007883FM-12+061099999V0202401N002119999999N9999999N1+00231-00061999999ADDMA1999999093481MD1310111+9999ME1313739OA149900461REMSYN076AAXX  13164 06645 33/// /2404 10023 21006 39348 48373 53011 333 91109 91204;
0154066450999992010011317004+47433+007883FM-12+061099999V0202501N000519999999N9999999N1+00181+00021999999ADDAA101000021MA1999999093541MD1310141+9999ME1313779OA149900461REMSYN082AAXX  13174 06645 23/// /2501 10018 20002 39354 48377 53014 333 69915 91109 91205;
0179066450999992010011318004+47433+007883FM-12+061099999V0202201N001019999999N9999999N1+00221+00041999999ADDAA112000391KA1120M+00231MA1999999093581MD1210141+9999ME1313819OA149900671REMSYN094AAXX  13184 06645 03/// /2202 10022 20004 39358 48381 52014 69932 333 10023 69915 91113 91209;
0154066450999992010011319004+47433+007883FM-12+061099999V0203601N000519999999N9999999N1+00141+00081999999ADDAA101000021MA1999999093631MD1219999+9999ME1313839OA149900261REMSYN082AAXX  13194 06645 23/// /3601 10014 20008 39363 48383 52/// 333 69915 91105 91203;
0096066450999992010011400004+47433+007883FM-12+061099999V0201401N003119999999N9999999N1-00051-00091999999ADDMA1999999093511ME1313689REMSYN060AAXX  14004 06645 43/// /1406 11005 21009 39351 48368 5////;
0110066450999992010011401004+47433+007883FM-12+061099999V0201401N004619999999N9999999N1-00011-00081999999ADDMA1999999093491MD1719999+9999ME1313679REMSYN060AAXX  14014 06645 33/// /1409 11001 21008 39349 48367 57///;
0137066450999992010011402004+47433+007883FM-12+061099999V0201201N002619999999N9999999N1+00001-00071999999ADDMA1999999093491MD1719999+9999ME1313679OA149900721REMSYN076AAXX  14024 06645 33/// /1205 10000 21007 39349 48367 57/// 333 91114 91209;
0096066450999992010011403004+47433+007883FM-12+061099999V0201101N002619999999N9999999N1+00011-00051999999ADDMA1999999093471ME1313669REMSYN060AAXX  14034 06645 33/// /1105 10001 21005 39347 48366 5////;
0137066450999992010011404004+47433+007883FM-12+061099999V0201201N003119999999N9999999N1+00011-00051999999ADDMA1999999093441MD1710051+9999ME1313639OA149900571REMSYN076AAXX  14044 06645 33/// /1206 10001 21005 39344 48363 57005 333 91111 91207;
0137066450999992010011405004+47433+007883FM-12+061099999V0201301N003619999999N9999999N1-00021-00051999999ADDMA1999999093421MD1810071+9999ME1313619OA149900621REMSYN076AAXX  14054 06645 33/// /1307 11002 21005 39342 48361 58007 333 91112 91207;
0257066450999992010011406004+47433+007883FM-12+061099999V0201401N003619999999N9999999N1-00021-00071999999ADDAA112000091AA224000591AL12400091GJ100009IA2999-00209KA1999N-00061MA1999999093381MD1810091+9999ME1313589OA149900721REMSYN112AAXX  14064 06645 03/// /1407 11002 21007 39338 48358 58009 69912 333 21006 3/102 55000 60005 70004 91114 91209;EQDQ01  00002PRCP12
0137066450999992010011407004+47433+007883FM-12+061099999V0201201N003119999999N9999999N1-00021-00061999999ADDMA1999999093371MD1610071+9999ME1313579OA149900671REMSYN076AAXX  14074 06645 33/// /1206 11002 21006 39337 48357 56007 333 91113 91208;
0137066450999992010011408004+47433+007883FM-12+061099999V0201001N003619999999N9999999N1-00011-00091999999ADDMA1999999093371MD1719999+9999ME1313579OA149900671REMSYN076AAXX  14084 06645 33/// /1007 11001 21009 39337 48357 57/// 333 91113 91208;
0137066450999992010011409004+47433+007883FM-12+061099999V0201001N004619999999N9999999N1+00011-00081999999ADDMA1999999093351MD1710031+9999ME1313569OA149900821REMSYN076AAXX  14094 06645 33/// /1009 10001 21008 39335 48356 57003 333 91116 91210;
0137066450999992010011410004+47433+007883FM-12+061099999V0200701N004619999999N9999999N1-00011-00071999999ADDMA1999999093361MD1510011+9999ME1313569OA149900821REMSYN076AAXX  14104 06645 33/// /0709 11001 21007 39336 48356 55001 333 91116 91210;
0137066450999992010011411004+47433+007883FM-12+061099999V0200701N004119999999N9999999N1-00021-00091999999ADDMA1999999093321MD1810051+9999ME1313529OA149900771REMSYN076AAXX  14114 06645 33/// /0708 11002 21009 39332 48352 58005 333 91115 91209;
0137066450999992010011412004+47433+007883FM-12+061099999V0200801N004119999999N9999999N1+00031-00071999999ADDMA1999999093271MD1710081+9999ME1313509OA149900821REMSYN076AAXX  14124 06645 33/// /0808 10003 21007 39327 48350 57008 333 91116 91210;
0137066450999992010011413004+47433+007883FM-12+061099999V0200801N004619999999N9999999N1+00051-00081999999ADDMA1999999093261MD1710101+9999ME1313499OA149900981REMSYN076AAXX  14134 06645 33/// /0809 10005 21008 39326 48349 57010 333 91119 91210;
0137066450999992010011414004+47433+007883FM-12+061099999V0200801N003119999999N9999999N1+00061-00081999999ADDMA1999999093311MD1510011+9999ME1313549OA149900981REMSYN076AAXX  14144 06645 33/// /0806 10006 21008 39331 48354 55001 333 91119 91210;
0137066450999992010011415004+47433+007883FM-12+061099999V0200801N003119999999N9999999N1+00051-00081999999ADDMA1999999093311MD1210041+9999ME1313549OA149900981REMSYN076AAXX  14154 06645 33/// /0806 10005 21008 39331 48354 52004 333 91119 91210;
0137066450999992010011416004+47433+007883FM-12+061099999V0200701N003619999999N9999999N1+00031-00081999999ADDMA1999999093331MD1210071+9999ME1313559OA149900621REMSYN076AAXX  14164 06645 33/// /0707 10003 21008 39333 48355 52007 333 91112 91208;
0137066450999992010011417004+47433+007883FM-12+061099999V0200701N002619999999N9999999N1+00021-00091999999ADDMA1999999093401MD1210091+9999ME1313609OA149900621REMSYN076AAXX  14174 06645 33/// /0705 10002 21009 39340 48360 52009 333 91112 91208;
0156066450999992010011418004+47433+007883FM-12+061099999V0200701N002119999999N9999999N1+00021-00091999999ADDKA1120M+00071MA1999999093471MD1310161+9999ME1313669OA149900981REMSYN082AAXX  14184 06645 33/// /0704 10002 21009 39347 48366 53016 333 10007 91119 91210;
0137066450999992010011419004+47433+007883FM-12+061099999V0200601N002119999999N9999999N1+00011-00111999999ADDMA1999999093561MD1310231+9999ME1313749OA149900511REMSYN076AAXX  14194 06645 33/// /0604 10001 21011 39356 48374 53023 333 91110 91205;
0137066450999992010011420004+47433+007883FM-12+061099999V0200701N001519999999N9999999N1+00001-00121999999ADDMA1999999093631MD1110231+9999ME1313799OA149900461REMSYN076AAXX  14204 06645 33/// /0703 10000 21012 39363 48379 51023 333 91109 91205;
0137066450999992010011421004+47433+007883FM-12+061099999V0200701N002619999999N9999999N1+00001-00131999999ADDMA1999999093711MD1110241+9999ME1313869OA149900621REMSYN076AAXX  14214 06645 33/// /0705 10000 21013 39371 48386 51024 333 91112 91208;
0137066450999992010011422004+47433+007883FM-12+061099999V0201001N001519999999N9999999N1-00021-00141999999ADDMA1999999093791MD1310231+9999ME1313929OA149900411REMSYN076AAXX  14224 06645 33/// /1003 11002 21014 39379 48392 53023 333 91108 91205;
0137066450999992010011423004+47433+007883FM-12+061099999V0201101N001519999999N9999999N1-00021-00151999999ADDMA1999999093871MD1310241+9999ME1313999OA149900411REMSYN076AAXX  14234 06645 33/// /1103 11002 21015 39387 48399 53024 333 91108 91205;
0137066450999992010011500004+47433+007883FM-12+061099999V0201101N002119999999N9999999N1-00011-00151999999ADDMA1999999093911MD1210201+9999ME1314029OA149900981REMSYN076AAXX  15004 06645 33/// /1104 11001 21015 39391 48402 52020 333 91119 91210;
0137066450999992010011501004+47433+007883FM-12+061099999V0201301N001519999999N9999999N1-00031-00151999999ADDMA1999999093971MD1210181+9999ME1314079OA149900411REMSYN076AAXX  15014 06645 33/// /1303 11003 21015 39397 48407 52018 333 91108 91204;
0137066450999992010011502004+47433+007883FM-12+061099999V0201101N001019999999N9999999N1-00041-00151999999ADDMA1999999094061MD1210191+9999ME1314149OA149900311REMSYN076AAXX  15024 06645 33/// /1102 11004 21015 39406 48414 52019 333 91106 91203;
0096066450999992010011503004+47433+007883FM-12+061099999V0201301N001519999999N9999999N1-00041-00201999999ADDMA1999999094131ME1314209REMSYN060AAXX  15034 06645 33/// /1303 11004 21020 39413 48420 5////;
0137066450999992010011504004+47433+007883FM-12+061099999V0200301N000519999999N9999999N1-00081-00211999999ADDMA1999999094221MD1210251+9999ME1314269OA149900411REMSYN076AAXX  15044 06645 33/// /0301 11008 21021 39422 48426 52025 333 91108 91204;
0137066450999992010011505004+47433+007883FM-12+061099999V0209999C000019999999N9999999N1-00091-00211999999ADDMA1999999094301MD1210241+9999ME1314329OA149900211REMSYN076AAXX  15054 06645 33/// /0000 11009 21021 39430 48432 52024 333 91104 91202;
0234066450999992010011506004+47433+007883FM-12+061099999V0200401N000519999999N9999999N1-00091-00181999999ADDAA124000091AL19900091GJ100009IA2999-00209KA1999N-00091MA1999999094411MD1310281+9999ME1314419OA149900461REMSYN100AAXX  15064 06645 33/// /0401 11009 21018 39441 48441 53028 333 21009 3/102 55000 70000 91109 91205;EQDQ01  00002PRCP24
0137066450999992010011507004+47433+007883FM-12+061099999V0202901N000519999999N9999999N1-00111-00161999999ADDMA1999999094501MD1210281+9999ME1314489OA149900101REMSYN076AAXX  15074 06645 33/// /2901 11011 21016 39450 48448 52028 333 91102 91202;
0137066450999992010011508004+47433+007883FM-12+061099999V0203201N000519999999N9999999N1-00101-00161999999ADDMA1999999094601MD1219999+9999ME1314579OA149900101REMSYN076AAXX  15084 06645 33/// /3201 11010 21016 39460 48457 52/// 333 91102 91202;
0137066450999992010011509004+47433+007883FM-12+061099999V0201901N000519999999N9999999N1-00081-00141999999ADDMA1999999094671MD1110261+9999ME1314639OA149900211REMSYN076AAXX  15094 06645 33/// /1901 11008 21014 39467 48463 51026 333 91104 91202;
0137066450999992010011510004+47433+007883FM-12+061099999V0200101N000519999999N9999999N1+00011-00141999999ADDMA1999999094731MD1110231+9999ME1314719OA149900101REMSYN076AAXX  15104 06645 33/// /0101 10001 21014 39473 48471 51023 333 91102 91201;
0137066450999992010011511004+47433+007883FM-12+061099999V0201301N000519999999N9999999N1+00051-00161999999ADDMA1999999094751MD1210151+9999ME1314749OA149900211REMSYN076AAXX  15114 06645 33/// /1301 10005 21016 39475 48474 52015 333 91104 91202;
0137066450999992010011512004+47433+007883FM-12+061099999V0203301N001519999999N9999999N1+00041-00161999999ADDMA1999999094821MD1210151+9999ME1314809OA149900411REMSYN076AAXX  15124 06645 33/// /3303 10004 21016 39482 48480 52015 333 91108 91204;
0137066450999992010011513004+47433+007883FM-12+061099999V0203401N002119999999N9999999N1+00031-00121999999ADDMA1999999094871MD1210141+9999ME1314839OA149900261REMSYN076AAXX  15134 06645 33/// /3404 10003 21012 39487 48483 52014 333 91105 91204;
0137066450999992010011514004+47433+007883FM-12+061099999V0203401N001519999999N9999999N1+00001-00111999999ADDMA1999999094911MD1210161+9999ME1314869OA149900261REMSYN076AAXX  15144 06645 33/// /3403 10000 21011 39491 48486 52016 333 91105 91204;
0137066450999992010011515004+47433+007883FM-12+061099999V0200401N000519999999N9999999N1-00031-00101999999ADDMA1999999094981MD1210161+9999ME1314909OA149900311REMSYN076AAXX  15154 06645 33/// /0401 11003 21010 39498 48490 52016 333 91106 91204;
0137066450999992010011516004+47433+007883FM-12+061099999V0203401N001519999999N9999999N1-00061-00101999999ADDMA1999999095031MD1210161+9999ME1314949OA149900311REMSYN076AAXX  15164 06645 33/// /3403 11006 21010 39503 48494 52016 333 91106 91204;
0137066450999992010011517004+47433+007883FM-12+061099999V0203401N001519999999N9999999N1-00081-00111999999ADDMA1999999095091MD1210181+9999ME1314989OA149900211REMSYN076AAXX  15174 06645 33/// /3403 11008 21011 39509 48498 52018 333 91104 91203;
0156066450999992010011518004+47433+007883FM-12+061099999V0202801N001519999999N9999999N1-00071-00141999999ADDKA1120M+00071MA1999999095121MD1210141+9999ME1315019OA149900311REMSYN082AAXX  15184 06645 33/// /2803 11007 21014 39512 48501 52014 333 10007 91106 91204;
0137066450999992010011519004+47433+007883FM-12+061099999V0203201N001019999999N9999999N1-00111-00141999999ADDMA1999999095141MD1110111+9999ME1315019OA149900261REMSYN076AAXX  15194 06645 33/// /3202 11011 21014 39514 48501 51011 333 91105 91203;
0137066450999992010011520004+47433+007883FM-12+061099999V0209999C000019999999N9999999N1-00151-00161999999ADDMA1999999095141MD1210051+9999ME1315009OA149900211REMSYN076AAXX  15204 06645 33/// /0000 11015 21016 39514 48500 52005 333 91104 91203;
0137066450999992010011521004+47433+007883FM-12+061099999V0200601N001019999999N9999999N1-00101-00161999999ADDMA1999999095121MD1010001+9999ME1315009OA149900261REMSYN076AAXX  15214 06645 33/// /0602 11010 21016 39512 48500 50000 333 91105 91203;
0137066450999992010011522004+47433+007883FM-12+061099999V0201301N001519999999N9999999N1-00081-00191999999ADDMA1999999095141MD1510001+9999ME1315029OA149900411REMSYN076AAXX  15224 06645 33/// /1303 11008 21019 39514 48502 55000 333 91108 91204;
0137066450999992010011523004+47433+007883FM-12+061099999V0200801N002119999999N9999999N1-00111-00201999999ADDMA1999999095131MD1510011+9999ME1315009OA149900411REMSYN076AAXX  15234 06645 33/// /0804 11011 21020 39513 48500 55001 333 91108 91204;
0137066450999992010011600004+47433+007883FM-12+061099999V0200901N001019999999N9999999N1-00091-00191999999ADDMA1999999095111MD1010011+9999ME1314999OA149900411REMSYN076AAXX  16004 06645 33/// /0902 11009 21019 39511 48499 50001 333 91108 91204;
0137066450999992010011601004+47433+007883FM-12+061099999V0201101N003119999999N9999999N1-00091-00211999999ADDMA1999999095061MD1710081+9999ME1314959OA149900461REMSYN076AAXX  16014 06645 33/// /1106 11009 21021 39506 48495 57008 333 91109 91206;
0137066450999992010011602004+47433+007883FM-12+061099999V0201201N002619999999N9999999N1-00111-00211999999ADDMA1999999095051MD1710081+9999ME1314949OA149900511REMSYN076AAXX  16024 06645 33/// /1205 11011 21021 39505 48494 57008 333 91110 91206;
0137066450999992010011603004+47433+007883FM-12+061099999V0201301N002119999999N9999999N1-00091-00191999999ADDMA1999999095021MD1719999+9999ME1314929OA149900571REMSYN076AAXX  16034 06645 33/// /1304 11009 21019 39502 48492 57/// 333 91111 91206;
0137066450999992010011604004+47433+007883FM-12+061099999V0201401N002619999999N9999999N1-00101-00211999999ADDMA1999999094991MD1710071+9999ME1314899OA149900571REMSYN076AAXX  16044 06645 33/// /1405 11010 21021 39499 48489 57007 333 91111 91206;
0137066450999992010011605004+47433+007883FM-12+061099999V0201301N002619999999N9999999N1-00141-00241999999ADDMA1999999094911MD1710141+9999ME1314819OA149900671REMSYN076AAXX  16054 06645 33/// /1305 11014 21024 39491 48481 57014 333 91113 91206;
0234066450999992010011606004+47433+007883FM-12+061099999V0201401N004119999999N9999999N1-00161-00261999999ADDAA124000091AL19900091GJ100009IA2999-00209KA1999N-00151MA1999999094841MD1710181+9999ME1314759OA149900671REMSYN100AAXX  16064 06645 33/// /1408 11016 21026 39484 48475 57018 333 21015 3/102 55000 70000 91113 91208;EQDQ01  00002PRCP24
0137066450999992010011607004+47433+007883FM-12+061099999V0201401N003619999999N9999999N1-00191-00281999999ADDMA1999999094811MD1710181+9999ME1314719OA149900821REMSYN076AAXX  16074 06645 33/// /1407 11019 21028 39481 48471 57018 333 91116 91208;
0137066450999992010011608004+47433+007883FM-12+061099999V0201301N003119999999N9999999N1-00211-00291999999ADDMA1999999094771MD1710141+9999ME1314679OA149900821REMSYN076AAXX  16084 06645 33/// /1306 11021 21029 39477 48467 57014 333 91116 91208;
0137066450999992010011609004+47433+007883FM-12+061099999V0201301N005119999999N9999999N1-00231-00331999999ADDMA1999999094701MD1810141+9999ME1314619OA149900881REMSYN076AAXX  16094 06645 33/// /1310 11023 21033 39470 48461 58014 333 91117 91210;
0137066450999992010011610004+47433+007883FM-12+061099999V0201301N004119999999N9999999N1-00201-00341999999ADDMA1999999094711MD1710101+9999ME1314639OA149900931REMSYN076AAXX  16104 06645 33/// /1308 11020 21034 39471 48463 57010 333 91118 91211;
0137066450999992010011611004+47433+007883FM-12+061099999V0201201N003619999999N9999999N1-00171-00341999999ADDMA1999999094641MD1710131+9999ME1314589OA149900931REMSYN076AAXX  16114 06645 33/// /1207 11017 21034 39464 48458 57013 333 91118 91211;
0137066450999992010011612004+47433+007883FM-12+061099999V0201401N003119999999N9999999N1-00141-00291999999ADDMA1999999094601MD1710101+9999ME1314569OA149900931REMSYN076AAXX  16124 06645 33/// /1406 11014 21029 39460 48456 57010 333 91118 91211;
0137066450999992010011613004+47433+007883FM-12+061099999V0201501N004119999999N9999999N1-00071-00281999999ADDMA1999999094521MD1710191+9999ME1314519OA149900981REMSYN076AAXX  16134 06645 33/// /1508 11007 21028 39452 48451 57019 333 91119 91210;
0137066450999992010011614004+47433+007883FM-12+061099999V0201401N003619999999N9999999N1-00021-00301999999ADDMA1999999094421MD1719999+9999ME1314449OA149900981REMSYN076AAXX  16144 06645 33/// /1407 11002 21030 39442 48444 57/// 333 91119 91213;
0137066450999992010011615004+47433+007883FM-12+061099999V0201501N003619999999N9999999N1-00041-00291999999ADDMA1999999094421MD1710181+9999ME1314449OA149901131REMSYN076AAXX  16154 06645 33/// /1507 11004 21029 39442 48444 57018 333 91122 91214;
0137066450999992010011616004+47433+007883FM-12+061099999V0201301N003619999999N9999999N1-00061-00321999999ADDMA1999999094391MD1710131+9999ME1314419OA149901131REMSYN076AAXX  16164 06645 33/// /1307 11006 21032 39439 48441 57013 333 91122 91214;
0137066450999992010011617004+47433+007883FM-12+061099999V0201301N002619999999N9999999N1-00041-00311999999ADDMA1999999094411MD1510011+9999ME1314439OA149900981REMSYN076AAXX  16174 06645 33/// /1305 11004 21031 39441 48443 55001 333 91119 91211;
0156066450999992010011618004+47433+007883FM-12+061099999V0201201N001019999999N9999999N1+00051-00311999999ADDKA1120M+00001MA1999999094371MD1710051+9999ME1314439OA149901131REMSYN082AAXX  16184 06645 33/// /1202 10005 21031 39437 48443 57005 333 10000 91122 91214;
0137066450999992010011619004+47433+007883FM-12+061099999V0202601N001519999999N9999999N1+00131-00201999999ADDMA1999999094341MD1810051+9999ME1314439OA149900821REMSYN076AAXX  16194 06645 33/// /2603 10013 21020 39434 48443 58005 333 91116 91209;
0137066450999992010011620004+47433+007883FM-12+061099999V0201301N000519999999N9999999N1+00071-00101999999ADDMA1999999094301MD1710111+9999ME1314379OA149900821REMSYN076AAXX  16204 06645 33/// /1301 10007 21010 39430 48437 57011 333 91116 91209;
0154066450999992010011621004+47433+007883FM-12+061099999V0201801N002619999999N9999999N1+00241+00061999999ADDAA101000891MA1999999094201MD1710171+9999ME1314349OA149900981REMSYN082AAXX  16214 06645 23/// /1805 10024 20006 39420 48434 57017 333 69985 91119 91211;
0154066450999992010011622004+47433+007883FM-12+061099999V0202201N002119999999N9999999N1+00401+00181999999ADDAA101002091MA1999999094231MD1710111+9999ME1314429OA149900571REMSYN082AAXX  16224 06645 23/// /2204 10040 20018 39423 48442 57011 333 60025 91111 91205;
0154066450999992010011623004+47433+007883FM-12+061099999V0202301N008719999999N9999999N1+00531+00201999999ADDAA101001091MA1999999094211MD1710091+9999ME1314449OA149901901REMSYN082AAXX  16234 06645 23/// /2317 10053 20020 39421 48444 57009 333 60015 91137 91217;
0160066450999992010011700004+47433+007883FM-12+061099999V0202401N007719999999N9999999N1+00541+00101999999ADDAA106004191MA1999999094271MD1210071+9999ME1314499OA149901901REMSYN088AAXX  17004 06645 03/// /2415 10054 20010 39427 48449 52007 60041 333 60005 91137 91221;
0137066450999992010011701004+47433+007883FM-12+061099999V0202201N009819999999N9999999N1+00551+00091999999ADDMA1999999094271MD1310041+9999ME1314509OA149901801REMSYN076AAXX  17014 06645 33/// /2219 10055 20009 39427 48450 53004 333 91135 91221;
0137066450999992010011702004+47433+007883FM-12+061099999V0202201N009319999999N9999999N1+00561+00081999999ADDMA1999999094221MD1019999+9999ME1314469OA149901901REMSYN076AAXX  17024 06645 33/// /2218 10056 20008 39422 48446 50/// 333 91137 91219;
0096066450999992010011703004+47433+007883FM-12+061099999V0202401N007219999999N9999999N1+00571+00111999999ADDMA1999999094201ME1314449REMSYN060AAXX  17034 06645 43/// /2414 10057 20011 39420 48444 5////;
0154066450999992010011704004+47433+007883FM-12+061099999V0202301N006719999999N9999999N1+00571+00141999999ADDAA101000021MA1999999094241MD1510031+9999ME1314489OA149901541REMSYN082AAXX  17044 06645 23/// /2313 10057 20014 39424 48448 55003 333 69915 91130 91218;
0137066450999992010011705004+47433+007883FM-12+061099999V0202201N007219999999N9999999N1+00581+00141999999ADDMA1999999094211MD1819999+9999ME1314469OA149901391REMSYN076AAXX  17054 06645 33/// /2214 10058 20014 39421 48446 58/// 333 91127 91217;
0238066450999992010011706004+47433+007883FM-12+061099999V0202301N005119999999N9999999N1+00571+00161999999ADDAA112004192AA224003692AL13600391GJ100789IA2999-00109KA1999N-00021MA1999999094221MD1010021+9999ME1314469OA149901901REMSYN112AAXX  17064 06645 03/// /2310 10057 20016 39422 48446 50002 60042 333 21002 3/101 55013 60005 70036 91137 91221;
0154066450999992010011707004+47433+007883FM-12+061099999V0202401N006219999999N9999999N1+00581+00211999999ADDAA101000021MA1999999094311MD1310071+9999ME1314549OA149901181REMSYN082AAXX  17074 06645 23/// /2412 10058 20021 39431 48454 53007 333 69915 91123 91214;
0137066450999992010011708004+47433+007883FM-12+061099999V0202301N003619999999N9999999N1+00511+00231999999ADDMA1999999094401MD1219999+9999ME1314609OA149901181REMSYN076AAXX  17084 06645 33/// /2307 10051 20023 39440 48460 52/// 333 91123 91212;
0154066450999992010011709004+47433+007883FM-12+061099999V0202801N002119999999N9999999N1+00421+00341999999ADDAA101000391MA1999999094541MD1310321+9999ME1314699OA149901391REMSYN082AAXX  17094 06645 23/// /2804 10042 20034 39454 48469 53032 333 69935 91127 91217;
0137066450999992010011710004+47433+007883FM-12+061099999V0202601N004619999999N9999999N1+00461+00191999999ADDMA1999999094651MD1210341+9999ME1314799OA149901031REMSYN076AAXX  17104 06645 33/// /2609 10046 20019 39465 48479 52034 333 91120 91210;
0137066450999992010011711004+47433+007883FM-12+061099999V0202601N005719999999N9999999N1+00461+00141999999ADDMA1999999094721MD1110321+9999ME1314859OA149901491REMSYN076AAXX  17114 06645 33/// /2611 10046 20014 39472 48485 51032 333 91129 91215;
0160066450999992010011712004+47433+007883FM-12+061099999V0202601N006719999999N9999999N1+00501+00081999999ADDAA106000591MA1999999094781MD1210241+9999ME1314919OA149901901REMSYN088AAXX  17124 06645 03/// /2613 10050 20008 39478 48491 52024 69941 333 60005 91137 91219;
0137066450999992010011713004+47433+007883FM-12+061099999V0202601N006719999999N9999999N1+00521+00021999999ADDMA1999999094821MD1210171+9999ME1314959OA149901181REMSYN076AAXX  17134 06645 33/// /2613 10052 20002 39482 48495 52017 333 91123 91213;
0137066450999992010011714004+47433+007883FM-12+061099999V0202601N005719999999N9999999N1+00501+00041999999ADDMA1999999094891MD1219999+9999ME1315019OA149901341REMSYN076AAXX  17144 06645 33/// /2611 10050 20004 39489 48501 52/// 333 91126 91214;
0137066450999992010011715004+47433+007883FM-12+061099999V0202601N004619999999N9999999N1+00401+00021999999ADDMA1999999094971MD1310191+9999ME1315049OA149901491REMSYN076AAXX  17154 06645 33/// /2609 10040 20002 39497 48504 53019 333 91129 91215;
0137066450999992010011716004+47433+007883FM-12+061099999V0202601N003619999999N9999999N1+00391-00051999999ADDMA1999999095051MD1310231+9999ME1315109OA149901241REMSYN076AAXX  17164 06645 33/// /2607 10039 21005 39505 48510 53023 333 91124 91213;
0137066450999992010011717004+47433+007883FM-12+061099999V0202601N002119999999N9999999N1+00391-00061999999ADDMA1999999095131MD1210241+9999ME1315179OA149900881REMSYN076AAXX  17174 06645 33/// /2604 10039 21006 39513 48517 52024 333 91117 91209;
0179066450999992010011718004+47433+007883FM-12+061099999V0202401N003119999999N9999999N1+00381-00031999999ADDAA112000591KA1120M+00611MA1999999095201MD1210231+9999ME1315239OA149901491REMSYN094AAXX  17184 06645 03/// /2406 10038 21003 39520 48523 52023 69942 333 10061 60005 91129 91215;
0137066450999992010011719004+47433+007883FM-12+061099999V0202401N003119999999N9999999N1+00361-00031999999ADDMA1999999095241MD1110191+9999ME1315259OA149900571REMSYN076AAXX  17194 06645 33/// /2406 10036 21003 39524 48525 51019 333 91111 91206;
0137066450999992010011720004+47433+007883FM-12+061099999V0202201N002619999999N9999999N1+00281-00111999999ADDMA1999999095251MD1110121+9999ME1315239OA149900621REMSYN076AAXX  17204 06645 33/// /2205 10028 21011 39525 48523 51012 333 91112 91206;
0137066450999992010011721004+47433+007883FM-12+061099999V0202201N001519999999N9999999N1+00331-00151999999ADDMA1999999095261MD1210061+9999ME1315269OA149900881REMSYN076AAXX  17214 06645 33/// /2203 10033 21015 39526 48526 52006 333 91117 91209;
0137066450999992010011722004+47433+007883FM-12+061099999V0202801N000519999999N9999999N1+00361-00221999999ADDMA1999999095271MD1210031+9999ME1315289OA149900261REMSYN076AAXX  17224 06645 33/// /2801 10036 21022 39527 48528 52003 333 91105 91203;
