0140066460999992011010100004+47567+008233FM-12+032799999V0200701N000519999999N9999999N1+00141+00141102461ADDMA1999999098401MD1810091+9999OA149900261REMSYN088AAXX  01004 06646 33/// /0701 10014 20014 39840 40246 58009 333 55300 20000 91105 91203;
0140066460999992011010101004+47567+008233FM-12+032799999V0200401N000519999999N9999999N1+00141+00141102391ADDMA1999999098331MD1810141+9999OA149900151REMSYN088AAXX  01014 06646 33/// /0401 10014 20014 39833 40239 58014 333 55300 20000 91103 91201;
0140066460999992011010102004+47567+008233FM-12+032799999V0201601N000519999999N9999999N1+00121+00121102381ADDMA1999999098321MD1610121+9999OA149900151REMSYN088AAXX  01024 06646 33/// /1601 10012 20012 39832 40238 56012 333 55300 20000 91103 91201;
0140066460999992011010103004+47567+008233FM-12+032799999V0201601N000519999999N9999999N1+00121+00121102351ADDMA1999999098291MD1710111+9999OA149900211REMSYN088AAXX  01034 06646 33/// /1601 10012 20012 39829 40235 57011 333 55300 20000 91104 91202;
0140066460999992011010104004+47567+008233FM-12+032799999V0201701N000519999999N9999999N1+00101+00101102331ADDMA1999999098271MD1710061+9999OA149900211REMSYN088AAXX  01044 06646 33/// /1701 10010 20010 39827 40233 57006 333 55300 20000 91104 91202;
0140066460999992011010105004+47567+008233FM-12+032799999V0201701N001519999999N9999999N1+00091+00091102351ADDMA1999999098291MD1510031+9999OA149900311REMSYN088AAXX  01054 06646 33/// /1703 10009 20009 39829 40235 55003 333 55300 20000 91106 91203;
0207066460999992011010106004+47567+008233FM-12+032799999V0201601N001019999999N9999999N1+00081+00081102361ADDAL10600091GJ100009IA2999+00009KA1999N+00081MA1999999098301MD1210011+9999OA149900361REMSYN112AAXX  01064 06646 33/// /1602 10008 20008 39830 40236 52001 333 20008 3/000 55000 55300 20000 70001 91107 91204;
0140066460999992011010107004+47567+008233FM-12+032799999V0201801N001019999999N9999999N1+00091+00091102381ADDMA1999999098321MD1210051+9999OA149900361REMSYN088AAXX  01074 06646 33/// /1802 10009 20009 39832 40238 52005 333 55300 20000 91107 91204;
0140066460999992011010108004+47567+008233FM-12+032799999V0201801N001019999999N9999999N1+00111+00111102401ADDMA1999999098341MD1219999+9999OA149900261REMSYN088AAXX  01084 06646 33/// /1802 10011 20011 39834 40240 52/// 333 55300 20014 91105 91202;
0087066460999992011010109004+47567+008233FM-12+032799999V0201801N001019999999N9999999N1+00141+00141102401ADDMA1999999098341REMSYN060AAXX  01094 06646 43/// /1802 10014 20014 39834 40240 5////;
0087066460999992011010110004+47567+008233FM-12+032799999V0201701N001019999999N9999999N1+00161+00161102381ADDMA1999999098331REMSYN060AAXX  01104 06646 43/// /1702 10016 20016 39833 40238 5////;
0140066460999992011010111004+47567+008233FM-12+032799999V0202001N001019999999N9999999N1+00191+00191102331ADDMA1999999098281MD1710061+9999OA149900211REMSYN088AAXX  01114 06646 33/// /2002 10019 20019 39828 40233 57006 333 55300 20173 91104 91202;
0087066460999992011010112004+47567+008233FM-12+032799999V0202601N001519999999N9999999N1+00181+00181102281ADDMA1999999098231REMSYN060AAXX  01124 06646 43/// /2603 10018 20018 39823 40228 5////;
0087066460999992011010113004+47567+008233FM-12+032799999V0202801N001519999999N9999999N1+00201+00201102211ADDMA1999999098171REMSYN060AAXX  01134 06646 43/// /2803 10020 20020 39817 40221 5////;
0087066460999992011010114004+47567+008233FM-12+032799999V0202701N001519999999N9999999N1+00171+00171102191ADDMA1999999098151REMSYN060AAXX  01144 06646 43/// /2703 10017 20017 39815 40219 5////;
0087066460999992011010115004+47567+008233FM-12+032799999V0202601N001519999999N9999999N1+00131+00131102221ADDMA1999999098171REMSYN060AAXX  01154 06646 43/// /2603 10013 20013 39817 40222 5////;
0087066460999992011010116004+47567+008233FM-12+032799999V0202201N000519999999N9999999N1+00111+00111102261ADDMA1999999098201REMSYN060AAXX  01164 06646 43/// /2201 10011 20011 39820 40226 5////;
0087066460999992011010117004+47567+008233FM-12+032799999V0202601N000519999999N9999999N1+00121+00121102261ADDMA1999999098211REMSYN060AAXX  01174 06646 43/// /2601 10012 20012 39821 40226 5////;
0087066460999992011010118004+47567+008233FM-12+032799999V0202801N001019999999N9999999N1+00101+00101102271ADDMA1999999098211REMSYN060AAXX  01184 06646 43/// /2802 10010 20010 39821 40227 5////;
0103066460999992011010119004+47567+008233FM-12+032799999V0203201N000519999999N9999999N1+00091+00091102301ADDMA1999999098241REMSYN076AAXX  01194 06646 33/// /3201 10009 20009 39824 40230 5//// 333 553// 20000;
0140066460999992011010120004+47567+008233FM-12+032799999V0200701N000519999999N9999999N1+00031+00031102311ADDMA1999999098241MD1210031+9999OA149900211REMSYN088AAXX  01204 06646 33/// /0701 10003 20003 39824 40231 52003 333 55300 20000 91104 91202;
0140066460999992011010121004+47567+008233FM-12+032799999V0209999C000019999999N9999999N1+00041+00041102301ADDMA1999999098231MD1010021+9999OA149900461REMSYN088AAXX  01214 06646 33/// /0000 10004 20004 39823 40230 50002 333 55300 20000 91109 91204;
0140066460999992011010122004+47567+008233FM-12+032799999V0200301N000519999999N9999999N1+00041+00041102261ADDMA1999999098191MD1710051+9999OA149900151REMSYN088AAXX  01224 06646 33/// /0301 10004 20004 39819 40226 57005 333 55300 20000 91103 91201;
0140066460999992011010123004+47567+008233FM-12+032799999V0209999C000519999999N9999999N1+00041+00041102231ADDMA1999999098161MD1710081+9999OA149900151REMSYN088AAXX  01234 06646 33/// /0001 10004 20004 39816 40223 57008 333 55300 20000 91103 91202;
0140066460999992011010200004+47567+008233FM-12+032799999V0201701N000519999999N9999999N1+00021+00021102181ADDMA1999999098111MD1810121+9999OA149900461REMSYN088AAXX  02004 06646 33/// /1701 10002 20002 39811 40218 58012 333 55300 20000 91109 91204;
0140066460999992011010201004+47567+008233FM-12+032799999V0209999C000019999999N9999999N1+00011+00011102141ADDMA1999999098071MD1810121+9999OA149900151REMSYN088AAXX  02014 06646 33/// /0000 10001 20001 39807 40214 58012 333 55300 20000 91103 91201;
0087066460999992011010202004+47567+008233FM-12+032799999V0209999C000019999999N9999999N1+00011+00011102171ADDMA1999999098101REMSYN060AAXX  02024 06646 43/// /0000 10001 20001 39810 40217 5////;
0087066460999992011010203004+47567+008233FM-12+032799999V0209999C000019999999N9999999N1+00021+00021102181ADDMA1999999098111REMSYN060AAXX  02034 06646 43/// /0000 10002 20002 39811 40218 5////;
0087066460999992011010204004+47567+008233FM-12+032799999V0209999C000019999999N9999999N1+00021+00021102191ADDMA1999999098121REMSYN060AAXX  02044 06646 43/// /0000 10002 20002 39812 40219 5////;
0087066460999992011010205004+47567+008233FM-12+032799999V0201301N000519999999N9999999N1+00021+00021102201ADDMA1999999098131REMSYN060AAXX  02054 06646 43/// /1301 10002 20002 39813 40220 5////;
0134066460999992011010206004+47567+008233FM-12+032799999V0200201N000519999999N9999999N1+00051+00051102201ADDIA2999-00109KA1999N+00011MA1999999098141REMSYN082AAXX  02064 06646 43/// /0201 10005 20005 39814 40220 5//// 333 20001 3/101 55000;
0140066460999992011010207004+47567+008233FM-12+032799999V0200201N000519999999N9999999N1+00041+00041102241ADDMA1999999098171MD1210051+9999OA149900101REMSYN088AAXX  02074 06646 33/// /0201 10004 20004 39817 40224 52005 333 55300 20000 91102 91201;
0140066460999992011010208004+47567+008233FM-12+032799999V0200101N000519999999N9999999N1+00041+00041102291ADDMA1999999098221MD1210091+9999OA149900101REMSYN088AAXX  02084 06646 33/// /0101 10004 20004 39822 40229 52009 333 55300 20004 91102 91201;
0140066460999992011010209004+47567+008233FM-12+032799999V0203501N000519999999N9999999N1+00061+00061102331ADDMA1999999098261MD1310121+9999OA149900151REMSYN088AAXX  02094 06646 33/// /3501 10006 20006 39826 40233 53012 333 55300 20068 91103 91201;
0140066460999992011010210004+47567+008233FM-12+032799999V0203401N000519999999N9999999N1+00131+00131102341ADDMA1999999098281MD1110111+9999OA149900151REMSYN088AAXX  02104 06646 33/// /3401 10013 20013 39828 40234 51011 333 55300 20234 91103 91201;
0140066460999992011010211004+47567+008233FM-12+032799999V0200201N001019999999N9999999N1+00221-00021102321ADDMA1999999098281MD1210061+9999OA149900411REMSYN088AAXX  02114 06646 33/// /0202 10022 21002 39828 40232 52006 333 55300 20410 91108 91203;
0175066460999992011010212004+47567+008233FM-12+032799999V0200301N001019999999N9999999N1+00251-00171102301ADDMA1999999098261MD1710031+9999OA149900411REMSYN088AAXX  02124 06646 33/// /0302 10025 21017 39826 40230 58000 333 55300 20508 91108 91203;EQDQ01+000082APCTENQ02+000002APC3  
0140066460999992011010213004+47567+008233FM-12+032799999V0200501N001519999999N9999999N1+00251-00311102301ADDMA1999999098261MD1810021+9999OA149900461REMSYN088AAXX  02134 06646 33/// /0503 10025 21031 39826 40230 58002 333 55300 20572 91109 91204;
0103066460999992011010214004+47567+008233FM-12+032799999V0200401N001519999999N9999999N1+00251-00331102321ADDMA1999999098281REMSYN076AAXX  02144 06646 33/// /0403 10025 21033 39828 40232 5//// 333 553// 20475;
0140066460999992011010215004+47567+008233FM-12+032799999V0200401N001019999999N9999999N1+00221-00291102361ADDMA1999999098321MD1310061+9999OA149900621REMSYN088AAXX  02154 06646 33/// /0402 10022 21029 39832 40236 53006 333 55300 20281 91112 91204;
0140066460999992011010216004+47567+008233FM-12+032799999V0200301N001019999999N9999999N1+00171-00281102411ADDMA1999999098361MD1310101+9999OA149900411REMSYN088AAXX  02164 06646 33/// /0302 10017 21028 39836 40241 53010 333 55300 20040 91108 91204;
0140066460999992011010217004+47567+008233FM-12+032799999V0200201N000519999999N9999999N1+00121-00201102451ADDMA1999999098391MD1110111+9999OA149900411REMSYN088AAXX  02174 06646 33/// /0201 10012 21020 39839 40245 51011 333 55300 20000 91108 91203;
0159066460999992011010218004+47567+008233FM-12+032799999V0209999C000019999999N9999999N1+00011-00031102511ADDKA1120M+00261MA1999999098431MD1110111+9999OA149900621REMSYN094AAXX  02184 06646 33/// /0000 10001 21003 39843 40251 51011 333 10026 55300 20000 91112 91204;
0140066460999992011010219004+47567+008233FM-12+032799999V0209999C000019999999N9999999N1-00061-00061102551ADDMA1999999098461MD1310101+9999OA149900151REMSYN088AAXX  02194 06646 33/// /0000 11006 21006 39846 40255 53010 333 55300 20000 91103 91202;
0140066460999992011010220004+47567+008233FM-12+032799999V0201301N000519999999N9999999N1-00171-00171102591ADDMA1999999098481MD1110091+9999OA149900101REMSYN088AAXX  02204 06646 33/// /1301 11017 21017 39848 40259 51009 333 55300 20000 91102 91201;
0140066460999992011010221004+47567+008233FM-12+032799999V0209999C000019999999N9999999N1-00131-00131102631ADDMA1999999098521MD1310091+9999OA149900411REMSYN088AAXX  02214 06646 33/// /0000 11013 21013 39852 40263 53009 333 55300 20000 91108 91203;
0140066460999992011010222004+47567+008233FM-12+032799999V0209999C000019999999N9999999N1-00201-00201102661ADDMA1999999098541MD1310081+9999OA149900101REMSYN088AAXX  02224 06646 33/// /0000 11020 21020 39854 40266 53008 333 55300 20000 91102 91201;
0140066460999992011010223004+47567+008233FM-12+032799999V0200201N000519999999N9999999N1-00251-00251102681ADDMA1999999098551MD1110071+9999OA149900101REMSYN088AAXX  02234 06646 33/// /0201 11025 21025 39855 40268 51007 333 55300 20000 91102 91201;
0140066460999992011010300004+47567+008233FM-12+032799999V0209999C000519999999N9999999N1-00301-00301102661ADDMA1999999098531MD1010011+9999OA149900621REMSYN088AAXX  03004 06646 33/// /0001 11030 21030 39853 40266 50001 333 55300 20000 91112 91204;
0140066460999992011010301004+47567+008233FM-12+032799999V0209999C000019999999N9999999N1-00411-00411102661ADDMA1999999098511MD1810031+9999OA149900101REMSYN088AAXX  03014 06646 33/// /0000 11041 21041 39851 40266 58003 333 55300 20000 91102 91201;
0140066460999992011010302004+47567+008233FM-12+032799999V0203301N001019999999N9999999N1-00381-00381102691ADDMA1999999098541MD1519999+9999OA149900261REMSYN088AAXX  03024 06646 33/// /3302 11038 21038 39854 40269 55/// 333 55300 20000 91105 91203;
0087066460999992011010303004+47567+008233FM-12+032799999V0203401N000519999999N9999999N1-00431-00431102701ADDMA1999999098541REMSYN060AAXX  03034 06646 43/// /3401 11043 21043 39854 40270 5////;
0140066460999992011010304004+47567+008233FM-12+032799999V0200201N000519999999N9999999N1-00491-00491102731ADDMA1999999098561MD1210051+9999OA149900211REMSYN088AAXX  03044 06646 33/// /0201 11049 21049 39856 40273 52005 333 55300 20000 91104 91203;
0140066460999992011010305004+47567+008233FM-12+032799999V0200101N000519999999N9999999N1-00521-00521102711ADDMA1999999098541MD1010001+9999OA149900211REMSYN088AAXX  03054 06646 33/// /0101 11052 21052 39854 40271 50000 333 55300 20000 91104 91202;
0207066460999992011010306004+47567+008233FM-12+032799999V0200101N001019999999N9999999N1-00571-00571102721ADDAL19900091GJ100009IA2999-00809KA1999N-00551MA1999999098541MD1010001+9999OA149900261REMSYN112AAXX  03064 06646 33/// /0102 11057 21057 39854 40272 50000 333 21055 3/108 55000 55300 20000 70000 91105 91203;
0140066460999992011010307004+47567+008233FM-12+032799999V0203401N000519999999N9999999N1-00591-00591102711ADDMA1999999098531MD1610031+9999OA149900211REMSYN088AAXX  03074 06646 33/// /3401 11059 21059 39853 40271 56003 333 55300 20000 91104 91202;
0140066460999992011010308004+47567+008233FM-12+032799999V0200501N001019999999N9999999N1-00621-00621102761ADDMA1999999098571MD1219999+9999OA149900211REMSYN088AAXX  03084 06646 33/// /0502 11062 21062 39857 40276 52/// 333 55300 20032 91104 91202;
0103066460999992011010309004+47567+008233FM-12+032799999V0203501N000519999999N9999999N1-00441-00501102721ADDMA1999999098561REMSYN076AAXX  03094 06646 33/// /3501 11044 21050 39856 40272 5//// 333 553// 20364;
0140066460999992011010310004+47567+008233FM-12+032799999V0201001N001019999999N9999999N1-00351-00351102721ADDMA1999999098581MD1210051+9999OA149900261REMSYN088AAXX  03104 06646 33/// /1002 11035 21035 39858 40272 52005 333 55309 20850 91105 91202;
0140066460999992011010311004+47567+008233FM-12+032799999V0201101N001019999999N9999999N1-00281-00301102651ADDMA1999999098521MD1710051+9999OA149900361REMSYN088AAXX  03114 06646 33/// /1102 11028 21030 39852 40265 57005 333 55305 2//// 91107 91203;
0140066460999992011010312004+47567+008233FM-12+032799999V0201101N001519999999N9999999N1-00211-00241102581ADDMA1999999098461MD1710101+9999OA149900411REMSYN088AAXX  03124 06646 33/// /1103 11021 21024 39846 40258 57010 333 55300 2//// 91108 91203;
0140066460999992011010313004+47567+008233FM-12+032799999V0200901N001019999999N9999999N1-00101-00271102531ADDMA1999999098431MD1610151+9999OA149900411REMSYN088AAXX  03134 06646 33/// /0902 11010 21027 39843 40253 56015 333 55304 2//// 91108 91203;
0103066460999992011010314004+47567+008233FM-12+032799999V0201901N000519999999N9999999N1-00031-00301102501ADDMA1999999098411REMSYN076AAXX  03144 06646 33/// /1901 11003 21030 39841 40250 5//// 333 553// 20835;
0103066460999992011010315004+47567+008233FM-12+032799999V0209999C000019999999N9999999N1-00031-00301102481ADDMA1999999098391REMSYN076AAXX  03154 06646 33/// /0000 11003 21030 39839 40248 5//// 333 553// 20324;
0140066460999992011010316004+47567+008233FM-12+032799999V0209999C000019999999N9999999N1-00161-00171102491ADDMA1999999098381MD1710051+9999OA149900211REMSYN088AAXX  03164 06646 33/// /0000 11016 21017 39838 40249 57005 333 55300 20036 91104 91202;
0140066460999992011010317004+47567+008233FM-12+032799999V0202501N000519999999N9999999N1-00291-00291102491ADDMA1999999098361MD1610051+9999OA149900101REMSYN088AAXX  03174 06646 33/// /2501 11029 21029 39836 40249 56005 333 55300 20000 91102 91201;
0159066460999992011010318004+47567+008233FM-12+032799999V0202201N000519999999N9999999N1-00391-00391102501ADDKA1120M-00031MA1999999098361MD1610031+9999OA149900411REMSYN094AAXX  03184 06646 33/// /2201 11039 21039 39836 40250 56003 333 11003 55300 20000 91108 91203;
0140066460999992011010319004+47567+008233FM-12+032799999V0209999C000019999999N9999999N1-00451-00451102511ADDMA1999999098361MD1710021+9999OA149900051REMSYN088AAXX  03194 06646 33/// /0000 11045 21045 39836 40251 57002 333 55300 20000 91101 91201;
0140066460999992011010320004+47567+008233FM-12+032799999V0200201N000519999999N9999999N1-00431-00431102481ADDMA1999999098331MD1810031+9999OA149900101REMSYN088AAXX  03204 06646 33/// /0201 11043 21043 39833 40248 58003 333 55300 20000 91102 91201;
0140066460999992011010321004+47567+008233FM-12+032799999V0203601N001019999999N9999999N1-00361-00361102451ADDMA1999999098321MD1710041+9999OA149900151REMSYN088AAXX  03214 06646 33/// /3602 11036 21036 39832 40245 57004 333 55300 20000 91103 91202;
0140066460999992011010322004+47567+008233FM-12+032799999V0203401N000519999999N9999999N1-00401-00401102441ADDMA1999999098301MD1710061+9999OA149900211REMSYN088AAXX  03224 06646 33/// /3401 11040 21040 39830 40244 57006 333 55300 20000 91104 91202;
0140066460999992011010323004+47567+008233FM-12+032799999V0209999C000019999999N9999999N1-00421-00421102441ADDMA1999999098301MD1610031+9999OA149900211REMSYN088AAXX  03234 06646 33/// /0000 11042 21042 39830 40244 56003 333 55300 20000 91104 91202;
0140066460999992011010400004+47567+008233FM-12+032799999V0200501N001019999999N9999999N1-00381-00381102431ADDMA1999999098291MD1710031+9999OA149900311REMSYN088AAXX  04004 06646 33/// /0502 11038 21038 39829 40243 57003 333 55300 20000 91106 91203;
0140066460999992011010401004+47567+008233FM-12+032799999V0200601N000519999999N9999999N1-00381-00381102411ADDMA1999999098271MD1810031+9999OA149900151REMSYN088AAXX  04014 06646 33/// /0601 11038 21038 39827 40241 58003 333 55300 20000 91103 91202;
0140066460999992011010402004+47567+008233FM-12+032799999V0203501N000519999999N9999999N1-00441-00441102381ADDMA1999999098241MD1719999+9999OA149900151REMSYN088AAXX  04024 06646 33/// /3501 11044 21044 39824 40238 57/// 333 55300 20000 91103 91202;
0140066460999992011010403004+47567+008233FM-12+032799999V0201201N000519999999N9999999N1-00501-00501102381ADDMA1999999098231MD1710061+9999OA149900211REMSYN088AAXX  04034 06646 33/// /1201 11050 21050 39823 40238 57006 333 55300 20000 91104 91202;
0140066460999992011010404004+47567+008233FM-12+032799999V0201601N000519999999N9999999N1-00491-00491102331ADDMA1999999098181MD1710091+9999OA149900101REMSYN088AAXX  04044 06646 33/// /1601 11049 21049 39818 40233 57009 333 55300 20000 91102 91201;
0140066460999992011010405004+47567+008233FM-12+032799999V0200101N000519999999N9999999N1-00461-00461102301ADDMA1999999098161MD1710081+9999OA149900151REMSYN088AAXX  04054 06646 33/// /0101 11046 21046 39816 40230 57008 333 55300 20000 91103 91201;
0207066460999992011010406004+47567+008233FM-12+032799999V0201001N000519999999N9999999N1-00441-00441102241ADDAL19900091GJ102289IA2999-00709KA1999N-00521MA1999999098101MD1810131+9999OA149900261REMSYN112AAXX  04064 06646 33/// /1001 11044 21044 39810 40224 58013 333 21052 3/107 55038 55300 20000 70000 91105 91202;
0140066460999992011010407004+47567+008233FM-12+032799999V0203501N000519999999N9999999N1-00431-00431102241ADDMA1999999098101MD1710081+9999OA149900261REMSYN088AAXX  04074 06646 33/// /3501 11043 21043 39810 40224 57008 333 55300 20000 91105 91202;
0140066460999992011010408004+47567+008233FM-12+032799999V0209999C000019999999N9999999N1-00431-00431102251ADDMA1999999098111MD1719999+9999OA149900151REMSYN088AAXX  04084 06646 33/// /0000 11043 21043 39811 40225 57/// 333 55300 20011 91103 91201;
0103066460999992011010409004+47567+008233FM-12+032799999V0200201N000519999999N9999999N1-00401-00401102221ADDMA1999999098091REMSYN076AAXX  04094 06646 33/// /0201 11040 21040 39809 40222 5//// 333 553// 20083;
0140066460999992011010410004+47567+008233FM-12+032799999V0200101N001019999999N9999999N1-00331-00371102261ADDMA1999999098141MD1210041+9999OA149900151REMSYN088AAXX  04104 06646 33/// /0102 11033 21037 39814 40226 52004 333 55300 20335 91103 91202;
0140066460999992011010411004+47567+008233FM-12+032799999V0200301N001019999999N9999999N1-00311-00331102191ADDMA1999999098071MD1810041+9999OA149900211REMSYN088AAXX  04114 06646 33/// /0302 11031 21033 39807 40219 58004 333 55300 20328 91104 91202;
0140066460999992011010412004+47567+008233FM-12+032799999V0200101N000519999999N9999999N1-00261-00301102081ADDMA1999999097981MD1710111+9999OA149900261REMSYN088AAXX  04124 06646 33/// /0101 11026 21030 39798 40208 57011 333 55300 20400 91105 91202;
0140066460999992011010413004+47567+008233FM-12+032799999V0202601N000519999999N9999999N1-00251-00341102041ADDMA1999999097941MD1610201+9999OA149900261REMSYN088AAXX  04134 06646 33/// /2601 11025 21034 39794 40204 56020 333 55300 20342 91105 91202;
0103066460999992011010414004+47567+008233FM-12+032799999V0200101N000519999999N9999999N1-00211-00301102001ADDMA1999999097911REMSYN076AAXX  04144 06646 33/// /0101 11021 21030 39791 40200 5//// 333 553// 20396;
0087066460999992011010415004+47567+008233FM-12+032799999V0203301N001019999999N9999999N1-00191-00261101981ADDMA1999999097891REMSYN060AAXX  04154 06646 43/// /3302 11019 21026 39789 40198 5////;
0140066460999992011010416004+47567+008233FM-12+032799999V0203201N001019999999N9999999N1-00181-00211101961ADDMA1999999097871MD1710071+9999OA149900211REMSYN088AAXX  04164 06646 33/// /3202 11018 21021 39787 40196 57007 333 55300 20032 91104 91202;
0140066460999992011010417004+47567+008233FM-12+032799999V0203101N000519999999N9999999N1-00201-00241101941ADDMA1999999097851MD1710061+9999OA149900151REMSYN088AAXX  04174 06646 33/// /3101 11020 21024 39785 40194 57006 333 55300 20000 91103 91202;
0159066460999992011010418004+47567+008233FM-12+032799999V0209999C000019999999N9999999N1-00201-00281101971ADDKA1120M-00181MA1999999097881MD1310011+9999OA149900261REMSYN094AAXX  04184 06646 33/// /0000 11020 21028 39788 40197 53001 333 11018 55300 20000 91105 91202;
0140066460999992011010419004+47567+008233FM-12+032799999V0209999C000019999999N9999999N1-00211-00251101981ADDMA1999999097891MD1210021+9999OA149900151REMSYN088AAXX  04194 06646 33/// /0000 11021 21025 39789 40198 52002 333 55300 20000 91103 91202;
0140066460999992011010420004+47567+008233FM-12+032799999V0202401N000519999999N9999999N1-00191-00241101951ADDMA1999999097861MD1010011+9999OA149900151REMSYN088AAXX  04204 06646 33/// /2401 11019 21024 39786 40195 50001 333 55300 20000 91103 91201;
0140066460999992011010421004+47567+008233FM-12+032799999V0203301N000519999999N9999999N1-00201-00311101931ADDMA1999999097841MD1810041+9999OA149900311REMSYN088AAXX  04214 06646 33/// /3301 11020 21031 39784 40193 58004 333 55300 20000 91106 91203;
0140066460999992011010422004+47567+008233FM-12+032799999V0201201N000519999999N9999999N1-00201-00311101921ADDMA1999999097831MD1710061+9999OA149900311REMSYN088AAXX  04224 06646 33/// /1201 11020 21031 39783 40192 57006 333 55300 20000 91106 91203;
0140066460999992011010423004+47567+008233FM-12+032799999V0202601N001519999999N9999999N1-00211-00391101911ADDMA1999999097821MD1710041+9999OA149900261REMSYN088AAXX  04234 06646 33/// /2603 11021 21039 39782 40191 57004 333 55300 20000 91105 91203;
0140066460999992011010500004+47567+008233FM-12+032799999V0202901N000519999999N9999999N1-00231-00351101901ADDMA1999999097811MD1710031+9999OA149900311REMSYN088AAXX  05004 06646 33/// /2901 11023 21035 39781 40190 57003 333 55300 20000 91106 91203;
0140066460999992011010501004+47567+008233FM-12+032799999V0203101N000519999999N9999999N1-00241-00321101881ADDMA1999999097791MD1810041+9999OA149900211REMSYN088AAXX  05014 06646 33/// /3101 11024 21032 39779 40188 58004 333 55300 20000 91104 91202;
0140066460999992011010502004+47567+008233FM-12+032799999V0209999C000019999999N9999999N1-00251-00261101891ADDMA1999999097791MD1710031+9999OA149900211REMSYN088AAXX  05024 06646 33/// /0000 11025 21026 39779 40189 57003 333 55300 20000 91104 91202;
0087066460999992011010503004+47567+008233FM-12+032799999V0200201N001019999999N9999999N1-00261-00261101871ADDMA1999999097771REMSYN060AAXX  05034 06646 43/// /0202 11026 21026 39777 40187 5////;
0140066460999992011010504004+47567+008233FM-12+032799999V0203501N000519999999N9999999N1-00321-00321101851ADDMA1999999097751MD1710041+9999OA149900211REMSYN088AAXX  05044 06646 33/// /3501 11032 21032 39775 40185 57004 333 55300 20000 91104 91202;
0140066460999992011010505004+47567+008233FM-12+032799999V0203401N000519999999N9999999N1-00421-00421101851ADDMA1999999097731MD1710061+9999OA149900211REMSYN088AAXX  05054 06646 33/// /3401 11042 21042 39773 40185 57006 333 55300 20000 91104 91202;
0207066460999992011010506004+47567+008233FM-12+032799999V0203401N000519999999N9999999N1-00411-00411101861ADDAL19900091GJ100009IA2999-00609KA1999N-00441MA1999999097741MD1510031+9999OA149900311REMSYN112AAXX  05064 06646 33/// /3401 11041 21041 39774 40186 55003 333 21044 3/106 55000 55300 20000 70000 91106 91203;
0140066460999992011010507004+47567+008233FM-12+032799999V0200301N000519999999N9999999N1-00391-00391101861ADDMA1999999097741MD1010011+9999OA149900211REMSYN088AAXX  05074 06646 33/// /0301 11039 21039 39774 40186 50001 333 55300 20000 91104 91202;
0140066460999992011010508004+47567+008233FM-12+032799999V0209999C000019999999N9999999N1-00451-00451101881ADDMA1999999097751MD1519999+9999OA149900211REMSYN088AAXX  05084 06646 33/// /0000 11045 21045 39775 40188 55/// 333 55300 20047 91104 91202;
0140066460999992011010509004+47567+008233FM-12+032799999V0209999C000019999999N9999999N1-00331-00331101841ADDMA1999999097731MD1710011+9999OA149900211REMSYN088AAXX  05094 06646 33/// /0000 11033 21033 39773 40184 57001 333 55300 20346 91104 91202;
0140066460999992011010510004+47567+008233FM-12+032799999V0201501N000519999999N9999999N1-00231-00281101791ADDMA1999999097701MD1710041+9999OA149900211REMSYN088AAXX  05104 06646 33/// /1501 11023 21028 39770 40179 57004 333 55300 20698 91104 91202;
0140066460999992011010511004+47567+008233FM-12+032799999V0201001N000519999999N9999999N1-00081-00231101681ADDMA1999999097621MD1810131+9999OA149900151REMSYN088AAXX  05114 06646 33/// /1001 11008 21023 39762 40168 58013 333 55300 20968 91103 91201;
0103066460999992011010512004+47567+008233FM-12+032799999V0202301N000519999999N9999999N1+00021-00231101561ADDMA1999999097521REMSYN076AAXX  05124 06646 33/// /2301 10002 21023 39752 40156 5//// 333 553// 2////;
0140066460999992011010513004+47567+008233FM-12+032799999V0200401N000519999999N9999999N1+00091-00241101501ADDMA1999999097471MD1610231+9999OA149900211REMSYN088AAXX  05134 06646 33/// /0401 10009 21024 39747 40150 56023 333 55300 20940 91104 91202;
0087066460999992011010514004+47567+008233FM-12+032799999V0203501N000519999999N9999999N1+00161-00201101461ADDMA1999999097441REMSYN060AAXX  05144 06646 43/// /3501 10016 21020 39744 40146 5////;
0087066460999992011010515004+47567+008233FM-12+032799999V0202501N000519999999N9999999N1+00061-00111101431ADDMA1999999097401REMSYN060AAXX  05154 06646 43/// /2501 10006 21011 39740 40143 5////;
0140066460999992011010516004+47567+008233FM-12+032799999V0202201N000519999999N9999999N1-00041-00101101431ADDMA1999999097381MD1710091+9999OA149900151REMSYN088AAXX  05164 06646 33/// /2201 11004 21010 39738 40143 57009 333 55300 20058 91103 91202;
0140066460999992011010517004+47567+008233FM-12+032799999V0201601N000519999999N9999999N1-00141-00141101451ADDMA1999999097391MD1710051+9999OA149900101REMSYN088AAXX  05174 06646 33/// /1601 11014 21014 39739 40145 57005 333 55300 20000 91102 91201;
0159066460999992011010518004+47567+008233FM-12+032799999V0209999C000019999999N9999999N1-00151-00151101441ADDKA1120M+00161MA1999999097381MD1719999+9999OA149900211REMSYN094AAXX  05184 06646 33/// /0000 11015 21015 39738 40144 57/// 333 10016 55300 20000 91104 91202;
0140066460999992011010519004+47567+008233FM-12+032799999V0201001N000519999999N9999999N1-00181-00181101421ADDMA1999999097351MD1710031+9999OA149900101REMSYN088AAXX  05194 06646 33/// /1001 11018 21018 39735 40142 57003 333 55300 20000 91102 91201;
0140066460999992011010520004+47567+008233FM-12+032799999V0209999C000019999999N9999999N1-00281-00281101391ADDMA1999999097311MD1719999+9999OA149900101REMSYN088AAXX  05204 06646 33/// /0000 11028 21028 39731 40139 57/// 333 55300 20000 91102 91201;
0103066460999992011010521004+47567+008233FM-12+032799999V0209999C000019999999N9999999N1-00321-00321101361ADDMA1999999097281REMSYN076AAXX  05214 06646 33/// /0000 11032 21032 39728 40136 5//// 333 553// 20000;
0140066460999992011010522004+47567+008233FM-12+032799999V0200901N000519999999N9999999N1-00341-00341101351ADDMA1999999097261MD1710091+9999OA149900101REMSYN088AAXX  05224 06646 33/// /0901 11034 21034 39726 40135 57009 333 55300 20000 91102 91201;
0140066460999992011010523004+47567+008233FM-12+032799999V0209999C000019999999N9999999N1-00341-00341101321ADDMA1999999097231MD1719999+9999OA149900151REMSYN088AAXX  05234 06646 33/// /0000 11034 21034 39723 40132 57/// 333 55300 20000 91103 91201;
0087066460999992011010600004+47567+008233FM-12+032799999V0209999C000019999999N9999999N1-00391-00391101271ADDMA1999999097181REMSYN060AAXX  06004 06646 43/// /0000 11039 21039 39718 40127 5////;
0087066460999992011010601004+47567+008233FM-12+032799999V0201101N000519999999N9999999N1-00341-00341101181ADDMA1999999097101REMSYN060AAXX  06014 06646 43/// /1101 11034 21034 39710 40118 5////;
0087066460999992011010602004+47567+008233FM-12+032799999V0201101N000519999999N9999999N1-00291-00291101161ADDMA1999999097091REMSYN060AAXX  06024 06646 43/// /1101 11029 21029 39709 40116 5////;
0087066460999992011010603004+47567+008233FM-12+032799999V0200901N000519999999N9999999N1-00231-00231101121ADDMA1999999097061REMSYN060AAXX  06034 06646 43/// /0901 11023 21023 39706 40112 5////;
0087066460999992011010604004+47567+008233FM-12+032799999V0200801N000519999999N9999999N1-00171-00171101061ADDMA1999999097011REMSYN060AAXX  06044 06646 43/// /0801 11017 21017 39701 40106 5////;
0087066460999992011010605004+47567+008233FM-12+032799999V0200501N000519999999N9999999N1-00051-00051101011ADDMA1999999096981REMSYN060AAXX  06054 06646 43/// /0501 11005 21005 39698 40101 5////;
0134066460999992011010606004+47567+008233FM-12+032799999V0200401N001019999999N9999999N1-00011-00011100991ADDIA2999-00609KA1999N-00401MA1999999096971REMSYN082AAXX  06064 06646 43/// /0402 11001 21001 39697 40099 5//// 333 21040 3/106 55007;
0087066460999992011010607004+47567+008233FM-12+032799999V0200301N000519999999N9999999N1+00051+00051101011ADDMA1999999096991REMSYN060AAXX  06074 06646 43/// /0301 10005 20005 39699 40101 5////;
0109066460999992011010608004+47567+008233FM-12+032799999V0201501N000519999999N9999999N1+00071+00071101001ADDMA1999999096991REMSYN082AAXX  06084 06646 23/// /1501 10007 20007 39699 40100 5//// 333 553// 20014 69915;
0087066460999992011010609004+47567+008233FM-12+032799999V0200601N000519999999N9999999N1+00091+00091100991ADDMA1999999096981REMSYN060AAXX  06094 06646 43/// /0601 10009 20009 39698 40099 5////;
0140066460999992011010610004+47567+008233FM-12+032799999V0200301N000519999999N9999999N1+00171+00171100981ADDMA1999999096981MD1010011+9999OA149900151REMSYN088AAXX  06104 06646 33/// /0301 10017 20017 39698 40098 50001 333 55300 20443 91103 91201;
0146066460999992011010611004+47567+008233FM-12+032799999V0200901N000519999999N9999999N1+00231+00231100961ADDMA1999999096971MD1710021+9999OA149900151REMSYN094AAXX  06114 06646 23/// /0901 10023 20023 39697 40096 57002 333 55300 20259 69925 91103 91201;
0163066460999992011010612004+47567+008233FM-12+032799999V0200301N000519999999N9999999N1+00261+00261100891ADDAA106000891MA1999999096911MD1710071+9999OA149900261REMSYN100AAXX  06124 06646 03/// /0301 10026 20026 39691 40089 57007 69981 333 55300 20180 69925 91105 91203;
0146066460999992011010613004+47567+008233FM-12+032799999V0200701N000519999999N9999999N1+00341+00341100841ADDMA1999999096871MD1710111+9999OA149900151REMSYN094AAXX  06134 06646 23/// /0701 10034 20034 39687 40084 57011 333 55300 20266 69915 91103 91202;
0087066460999992011010614004+47567+008233FM-12+032799999V0200401N000519999999N9999999N1+00391+00391100831ADDMA1999999096871REMSYN060AAXX  06144 06646 43/// /0401 10039 20039 39687 40083 5////;
0087066460999992011010615004+47567+008233FM-12+032799999V0201801N001019999999N9999999N1+00441+00441100841ADDMA1999999096891REMSYN060AAXX  06154 06646 43/// /1802 10044 20044 39689 40084 5////;
0146066460999992011010616004+47567+008233FM-12+032799999V0202101N001519999999N9999999N1+00671+00671100791ADDMA1999999096871MD1010001+9999OA149900461REMSYN094AAXX  06164 06646 23/// /2103 10067 20067 39687 40079 50000 333 55300 20007 69955 91109 91204;
0146066460999992011010617004+47567+008233FM-12+032799999V0201901N002119999999N9999999N1+00681+00681100851ADDMA1999999096931MD1210061+9999OA149900621REMSYN094AAXX  06174 06646 23/// /1904 10068 20068 39693 40085 52006 333 55300 20000 60025 91112 91204;
0182066460999992011010618004+47567+008233FM-12+032799999V0201901N002119999999N9999999N1+00681+00681100871ADDAA112005191KA1120M+00711MA1999999096951MD1210061+9999OA149900621REMSYN106AAXX  06184 06646 03/// /1904 10068 20068 39695 40087 52006 60052 333 10071 55300 20000 69915 91112 91204;
0146066460999992011010619004+47567+008233FM-12+032799999V0202101N002119999999N9999999N1+00751+00751100921ADDMA1999999097011MD1210141+9999OA149900511REMSYN094AAXX  06194 06646 23/// /2104 10075 20075 39701 40092 52014 333 55300 20000 69935 91110 91205;
0140066460999992011010620004+47567+008233FM-12+032799999V0201901N003119999999N9999999N1+00801+00801100961ADDMA1999999097051MD1219999+9999OA149900931REMSYN088AAXX  06204 06646 33/// /1906 10080 20080 39705 40096 52/// 333 55300 20000 91118 91206;
0146066460999992011010621004+47567+008233FM-12+032799999V0202001N002119999999N9999999N1+00821+00821100971ADDMA1999999097071MD1119999+9999OA149900931REMSYN094AAXX  06214 06646 23/// /2004 10082 20082 39707 40097 51/// 333 55300 20000 69925 91118 91206;
0146066460999992011010622004+47567+008233FM-12+032799999V0201801N002619999999N9999999N1+00781+00781101051ADDMA1999999097141MD1310131+9999OA149900821REMSYN094AAXX  06224 06646 23/// /1805 10078 20078 39714 40105 53013 333 55300 20000 69965 91116 91206;
0109066460999992011010623004+47567+008233FM-12+032799999V0201901N001519999999N9999999N1+00761+00761101081ADDMA1999999097161REMSYN082AAXX  06234 06646 23/// /1903 10076 20076 39716 40108 5//// 333 553// 20000 69915;
0087066460999992011010700004+47567+008233FM-12+032799999V0209999C000019999999N9999999N1+00651+00651101141ADDMA1999999097211REMSYN060AAXX  07004 06646 43/// /0000 10065 20065 39721 40114 5////;
0087066460999992011010701004+47567+008233FM-12+032799999V0200601N000519999999N9999999N1+00501+00501101221ADDMA1999999097261REMSYN060AAXX  07014 06646 43/// /0601 10050 20050 39726 40122 5////;
0087066460999992011010702004+47567+008233FM-12+032799999V0209999C000019999999N9999999N1+00481+00481101251ADDMA1999999097291REMSYN060AAXX  07024 06646 43/// /0000 10048 20048 39729 40125 5////;
0087066460999992011010703004+47567+008233FM-12+032799999V0209999C000019999999N9999999N1+00461+00461101291ADDMA1999999097321REMSYN060AAXX  07034 06646 43/// /0000 10046 20046 39732 40129 5////;
0140066460999992011010704004+47567+008233FM-12+032799999V0209999C000019999999N9999999N1+00431+00431101291ADDMA1999999097321MD1210061+9999OA149900101REMSYN088AAXX  07044 06646 33/// /0000 10043 20043 39732 40129 52006 333 55300 20000 91102 91201;
0146066460999992011010705004+47567+008233FM-12+032799999V0200401N001019999999N9999999N1+00431+00431101351ADDMA1999999097381MD1210091+9999OA149900211REMSYN094AAXX  07054 06646 23/// /0402 10043 20043 39738 40135 52009 333 55300 20000 69915 91104 91202;
0230066460999992011010706004+47567+008233FM-12+032799999V0200301N000519999999N9999999N1+00431+00431101401ADDAA112004191AL14800791GJ100009IA2999+00309KA1999N+00431MA1999999097421MD1210101+9999OA149900931REMSYN124AAXX  07064 06646 03/// /0301 10043 20043 39742 40140 52010 60042 333 20043 3/003 55000 55300 20000 69985 70078 91118 91206;
0146066460999992011010707004+47567+008233FM-12+032799999V0201101N000519999999N9999999N1+00441+00441101401ADDMA1999999097431MD1210111+9999OA149900211REMSYN094AAXX  07074 06646 23/// /1101 10044 20044 39743 40140 52011 333 55300 20000 69965 91104 91202;
0109066460999992011010708004+47567+008233FM-12+032799999V0200301N000519999999N9999999N1+00441+00441101421ADDMA1999999097451REMSYN082AAXX  07084 06646 23/// /0301 10044 20044 39745 40142 5//// 333 553// 20004 69945;
0087066460999992011010709004+47567+008233FM-12+032799999V0209999C000019999999N9999999N1+00471+00471101441ADDMA1999999097471REMSYN060AAXX  07094 06646 43/// /0000 10047 20047 39747 40144 5////;
0140066460999992011010710004+47567+008233FM-12+032799999V0200301N000519999999N9999999N1+00551+00551101421ADDMA1999999097461MD1210031+9999OA149900211REMSYN088AAXX  07104 06646 33/// /0301 10055 20055 39746 40142 52003 333 55300 20245 91104 91201;
0140066460999992011010711004+47567+008233FM-12+032799999V0200101N001019999999N9999999N1+00561+00561101391ADDMA1999999097431MD1710021+9999OA149900211REMSYN088AAXX  07114 06646 33/// /0102 10056 20056 39743 40139 57002 333 55300 20349 91104 91202;
0163066460999992011010712004+47567+008233FM-12+032799999V0209999C000019999999N9999999N1+00571+00571101351ADDAA106001091MA1999999097401MD1710071+9999OA149900411REMSYN100AAXX  07124 06646 03/// /0000 10057 20057 39740 40135 57007 60011 333 55300 20166 60005 91108 91202;
0140066460999992011010713004+47567+008233FM-12+032799999V0200601N000519999999N9999999N1+00671+00671101291ADDMA1999999097351MD1610111+9999OA149900211REMSYN088AAXX  07134 06646 33/// /0601 10067 20067 39735 40129 56011 333 55300 20302 91104 91202;
0087066460999992011010714004+47567+008233FM-12+032799999V0209999C000019999999N9999999N1+00691+00691101291ADDMA1999999097361REMSYN060AAXX  07144 06646 43/// /0000 10069 20069 39736 40129 5////;
0087066460999992011010715004+47567+008233FM-12+032799999V0200801N000519999999N9999999N1+00641+00641101331ADDMA1999999097391REMSYN060AAXX  07154 06646 43/// /0801 10064 20064 39739 40133 5////;
0140066460999992011010716004+47567+008233FM-12+032799999V0201001N000519999999N9999999N1+00581+00581101361ADDMA1999999097411MD1210061+9999OA149900151REMSYN088AAXX  07164 06646 33/// /1001 10058 20058 39741 40136 52006 333 55300 20007 91103 91201;
0146066460999992011010717004+47567+008233FM-12+032799999V0200401N000519999999N9999999N1+00591+00591101391ADDMA1999999097441MD1210081+9999OA149900211REMSYN094AAXX  07174 06646 23/// /0401 10059 20059 39744 40139 52008 333 55300 20000 69985 91104 91202;
0145066460999992011010718004+47567+008233FM-12+032799999V0200601N000519999999N9999999N1+00561+00561101431ADDAA112004191KA1120M+00701MA1999999097471REMSYN094AAXX  07184 06646 03/// /0601 10056 20056 39747 40143 5//// 60042 333 10070 553// 20000 60025;
0146066460999992011010719004+47567+008233FM-12+032799999V0209999C000019999999N9999999N1+00531+00531101441ADDMA1999999097481MD1219999+9999OA149900151REMSYN094AAXX  07194 06646 23/// /0000 10053 20053 39748 40144 52/// 333 55300 20000 69915 91103 91201;
0087066460999992011010720004+47567+008233FM-12+032799999V0209999C000019999999N9999999N1+00511+00511101391ADDMA1999999097431REMSYN060AAXX  07204 06646 43/// /0000 10051 20051 39743 40139 5////;
0087066460999992011010721004+47567+008233FM-12+032799999V0200701N000519999999N9999999N1+00481+00481101431ADDMA1999999097461REMSYN060AAXX  07214 06646 43/// /0701 10048 20048 39746 40143 5////;
0140066460999992011010722004+47567+008233FM-12+032799999V0200801N000519999999N9999999N1+00461+00461101421ADDMA1999999097451MD1510031+9999OA149900101REMSYN088AAXX  07224 06646 33/// /0801 10046 20046 39745 40142 55003 333 55300 20000 91102 91201;
0103066460999992011010723004+47567+008233FM-12+032799999V0200201N000519999999N9999999N1+00461+00461101441ADDMA1999999097471REMSYN076AAXX  07234 06646 33/// /0201 10046 20046 39747 40144 5//// 333 553// 20000;
0126066460999992011010800004+47567+008233FM-12+032799999V0209999C000019999999N9999999N1+00451+00451101481ADDAA106000591MA1999999097501REMSYN088AAXX  08004 06646 03/// /0000 10045 20045 39750 40148 5//// 69961 333 553// 20000 60005;
0087066460999992011010801004+47567+008233FM-12+032799999V0203501N001019999999N9999999N1+00451+00451101421ADDMA1999999097451REMSYN060AAXX  08014 06646 43/// /3502 10045 20045 39745 40142 5////;
0087066460999992011010802004+47567+008233FM-12+032799999V0202601N000519999999N9999999N1+00441+00441101501ADDMA1999999097521REMSYN060AAXX  08024 06646 43/// /2601 10044 20044 39752 40150 5////;
0087066460999992011010803004+47567+008233FM-12+032799999V0200601N000519999999N9999999N1+00451+00451101501ADDMA1999999097521REMSYN060AAXX  08034 06646 43/// /0601 10045 20045 39752 40150 5////;
0087066460999992011010804004+47567+008233FM-12+032799999V0201201N000519999999N9999999N1+00461+00461101531ADDMA1999999097551REMSYN060AAXX  08044 06646 43/// /1201 10046 20046 39755 40153 5////;
0087066460999992011010805004+47567+008233FM-12+032799999V0209999C000019999999N9999999N1+00471+00471101531ADDMA1999999097561REMSYN060AAXX  08054 06646 43/// /0000 10047 20047 39756 40153 5////;
0134066460999992011010806004+47567+008233FM-12+032799999V0201801N001019999999N9999999N1+00541+00541101521ADDIA2999+00309KA1999N+00421MA1999999097561REMSYN082AAXX  08064 06646 43/// /1802 10054 20054 39756 40152 5//// 333 20042 3/003 55000;
0087066460999992011010807004+47567+008233FM-12+032799999V0202001N001519999999N9999999N1+00721+00721101511ADDMA1999999097571REMSYN060AAXX  08074 06646 43/// /2003 10072 20072 39757 40151 5////;
0103066460999992011010808004+47567+008233FM-12+032799999V0200301N000519999999N9999999N1+00681+00681101521ADDMA1999999097581REMSYN076AAXX  08084 06646 33/// /0301 10068 20068 39758 40152 5//// 333 553// 20014;
0087066460999992011010809004+47567+008233FM-12+032799999V0209999C000019999999N9999999N1+00661+00661101551ADDMA1999999097601REMSYN060AAXX  08094 06646 43/// /0000 10066 20066 39760 40155 5////;
0087066460999992011010810004+47567+008233FM-12+032799999V0200501N000519999999N9999999N1+00671+00671101561ADDMA1999999097611REMSYN060AAXX  08104 06646 43/// /0501 10067 20067 39761 40156 5////;
0087066460999992011010811004+47567+008233FM-12+032799999V0209999C000019999999N9999999N1+00761+00761101511ADDMA1999999097581REMSYN060AAXX  08114 06646 43/// /0000 10076 20076 39758 40151 5////;
0087066460999992011010812004+47567+008233FM-12+032799999V0200201N000519999999N9999999N1+00851+00851101451ADDMA1999999097531REMSYN060AAXX  08124 06646 43/// /0201 10085 20085 39753 40145 5////;
0087066460999992011010813004+47567+008233FM-12+032799999V0203501N000519999999N9999999N1+00891+00891101371ADDMA1999999097461REMSYN060AAXX  08134 06646 43/// /3501 10089 20089 39746 40137 5////;
0087066460999992011010814004+47567+008233FM-12+032799999V0202001N002119999999N9999999N1+01241+01061101291ADDMA1999999097431REMSYN060AAXX  08144 06646 43/// /2004 10124 20106 39743 40129 5////;
0087066460999992011010815004+47567+008233FM-12+032799999V0200601N000519999999N9999999N1+00861+00861101371ADDMA1999999097461REMSYN060AAXX  08154 06646 43/// /0601 10086 20086 39746 40137 5////;
0087066460999992011010816004+47567+008233FM-12+032799999V0200401N000519999999N9999999N1+00781+00781101421ADDMA1999999097491REMSYN060AAXX  08164 06646 43/// /0401 10078 20078 39749 40142 5////;
0087066460999992011010817004+47567+008233FM-12+032799999V0200501N001019999999N9999999N1+00701+00701101401ADDMA1999999097461REMSYN060AAXX  08174 06646 43/// /0502 10070 20070 39746 40140 5////;
0087066460999992011010818004+47567+008233FM-12+032799999V0209999C000019999999N9999999N1+00621+00621101421ADDMA1999999097471REMSYN060AAXX  08184 06646 43/// /0000 10062 20062 39747 40142 5////;
0087066460999992011010819004+47567+008233FM-12+032799999V0200701N000519999999N9999999N1+00571+00571101421ADDMA1999999097461REMSYN060AAXX  08194 06646 43/// /0701 10057 20057 39746 40142 5////;
0087066460999992011010820004+47567+008233FM-12+032799999V0209999C000019999999N9999999N1+00461+00461101441ADDMA1999999097471REMSYN060AAXX  08204 06646 43/// /0000 10046 20046 39747 40144 5////;
0087066460999992011010821004+47567+008233FM-12+032799999V0209999C000019999999N9999999N1+00491+00491101431ADDMA1999999097461REMSYN060AAXX  08214 06646 43/// /0000 10049 20049 39746 40143 5////;
0087066460999992011010822004+47567+008233FM-12+032799999V0209999C000019999999N9999999N1+00471+00471101441ADDMA1999999097471REMSYN060AAXX  08224 06646 43/// /0000 10047 20047 39747 40144 5////;
0087066460999992011010823004+47567+008233FM-12+032799999V0209999C000019999999N9999999N1+00421+00421101421ADDMA1999999097441REMSYN060AAXX  08234 06646 43/// /0000 10042 20042 39744 40142 5////;
0087066460999992011010900004+47567+008233FM-12+032799999V0209999C000019999999N9999999N1+00391+00391101411ADDMA1999999097431REMSYN060AAXX  09004 06646 43/// /0000 10039 20039 39743 40141 5////;
0087066460999992011010901004+47567+008233FM-12+032799999V0209999C000019999999N9999999N1+00291+00291101441ADDMA1999999097441REMSYN060AAXX  09014 06646 43/// /0000 10029 20029 39744 40144 5////;
0087066460999992011010902004+47567+008233FM-12+032799999V0200201N000519999999N9999999N1+00321+00321101431ADDMA1999999097441REMSYN060AAXX  09024 06646 43/// /0201 10032 20032 39744 40143 5////;
0087066460999992011010903004+47567+008233FM-12+032799999V0200501N001019999999N9999999N1+00321+00321101411ADDMA1999999097421REMSYN060AAXX  09034 06646 43/// /0502 10032 20032 39742 40141 5////;
0087066460999992011010904004+47567+008233FM-12+032799999V0200401N000519999999N9999999N1+00261+00261101401ADDMA1999999097401REMSYN060AAXX  09044 06646 43/// /0401 10026 20026 39740 40140 5////;
0087066460999992011010905004+47567+008233FM-12+032799999V0200401N000519999999N9999999N1+00211+00211101391ADDMA1999999097381REMSYN060AAXX  09054 06646 43/// /0401 10021 20021 39738 40139 5////;
0097066460999992011010906004+47567+008233FM-12+032799999V0200301N000519999999N9999999N1+00201+00201101401ADDMA1999999097391REMSYN070AAXX  09064 06646 43/// /0301 10020 20020 39739 40140 5//// 333 55001;
0087066460999992011010907004+47567+008233FM-12+032799999V0200201N000519999999N9999999N1+00241+00241101411ADDMA1999999097411REMSYN060AAXX  09074 06646 43/// /0201 10024 20024 39741 40141 5////;
0103066460999992011010908004+47567+008233FM-12+032799999V0209999C000019999999N9999999N1+00201+00201101471ADDMA1999999097461REMSYN076AAXX  09084 06646 33/// /0000 10020 20020 39746 40147 5//// 333 553// 20018;
0103066460999992011010909004+47567+008233FM-12+032799999V0200501N000519999999N9999999N1+00251+00251101551ADDMA1999999097541REMSYN076AAXX  09094 06646 33/// /0501 10025 20025 39754 40155 5//// 333 553// 20151;
0140066460999992011010910004+47567+008233FM-12+032799999V0200601N000519999999N9999999N1+00321+00321101561ADDMA1999999097561MD1210151+9999OA149900151REMSYN088AAXX  09104 06646 33/// /0601 10032 20032 39756 40156 52015 333 55300 20162 91103 91201;
0140066460999992011010911004+47567+008233FM-12+032799999V0209999C000019999999N9999999N1+00381+00381101581ADDMA1999999097591MD1210131+9999OA149900151REMSYN088AAXX  09114 06646 33/// /0000 10038 20038 39759 40158 52013 333 55300 20108 91103 91201;
0163066460999992011010912004+47567+008233FM-12+032799999V0200701N000519999999N9999999N1+00421+00421101561ADDAA106000391MA1999999097581MD1210041+9999OA149900261REMSYN100AAXX  09124 06646 03/// /0701 10042 20042 39758 40156 52004 69931 333 55300 20097 69935 91105 91202;
0146066460999992011010913004+47567+008233FM-12+032799999V0200601N000519999999N9999999N1+00461+00461101571ADDMA1999999097591MD1010031+9999OA149900261REMSYN094AAXX  09134 06646 23/// /0601 10046 20046 39759 40157 50003 333 55300 20072 60025 91105 91202;
0087066460999992011010914004+47567+008233FM-12+032799999V0200901N000519999999N9999999N1+00491+00491101601ADDMA1999999097631REMSYN060AAXX  09144 06646 43/// /0901 10049 20049 39763 40160 5////;
0087066460999992011010915004+47567+008233FM-12+032799999V0209999C000019999999N9999999N1+00511+00511101601ADDMA1999999097631REMSYN060AAXX  09154 06646 43/// /0000 10051 20051 39763 40160 5////;
0146066460999992011010916004+47567+008233FM-12+032799999V0209999C000019999999N9999999N1+00511+00511101641ADDMA1999999097671MD1210081+9999OA149900151REMSYN094AAXX  09164 06646 23/// /0000 10051 20051 39767 40164 52008 333 55300 20004 60025 91103 91201;
0146066460999992011010917004+47567+008233FM-12+032799999V0209999C000019999999N9999999N1+00511+00511101701ADDMA1999999097721MD1210091+9999OA149900101REMSYN094AAXX  09174 06646 23/// /0000 10051 20051 39772 40170 52009 333 55300 20000 60015 91102 91201;
0182066460999992011010918004+47567+008233FM-12+032799999V0209999C000019999999N9999999N1+00531+00531101731ADDAA112015091KA1120M+00521MA1999999097761MD1210131+9999OA149900261REMSYN106AAXX  09184 06646 03/// /0000 10053 20053 39776 40173 52013 60152 333 10052 55300 20000 60015 91105 91202;
0146066460999992011010919004+47567+008233FM-12+032799999V0200501N000519999999N9999999N1+00541+00541101761ADDMA1999999097791MD1110121+9999OA149900101REMSYN094AAXX  09194 06646 23/// /0501 10054 20054 39779 40176 51012 333 55300 20000 60015 91102 91201;
0146066460999992011010920004+47567+008233FM-12+032799999V0209999C000019999999N9999999N1+00571+00571101811ADDMA1999999097841MD1310121+9999OA149900151REMSYN094AAXX  09204 06646 23/// /0000 10057 20057 39784 40181 53012 333 55300 20000 60015 91103 91202;
0146066460999992011010921004+47567+008233FM-12+032799999V0201901N001019999999N9999999N1+00681+00681101831ADDMA1999999097871MD1110111+9999OA149900311REMSYN094AAXX  09214 06646 23/// /1902 10068 20068 39787 40183 51011 333 55300 20000 69925 91106 91203;
0146066460999992011010922004+47567+008233FM-12+032799999V0202201N000519999999N9999999N1+00671+00671101891ADDMA1999999097931MD1110141+9999OA149900311REMSYN094AAXX  09224 06646 23/// /2201 10067 20067 39793 40189 51014 333 55300 20000 69945 91106 91203;
0146066460999992011010923004+47567+008233FM-12+032799999V0201801N001019999999N9999999N1+00641+00641101941ADDMA1999999097971MD1310131+9999OA149900311REMSYN094AAXX  09234 06646 23/// /1802 10064 20064 39797 40194 53013 333 55300 20000 69965 91106 91203;
0163066460999992011011000004+47567+008233FM-12+032799999V0201801N001019999999N9999999N1+00631+00631101991ADDAA106004191MA1999999098021MD1110151+9999OA149900311REMSYN100AAXX  10004 06646 03/// /1802 10063 20063 39802 40199 51015 60041 333 55300 20000 69955 91106 91203;
0146066460999992011011001004+47567+008233FM-12+032799999V0209999C000019999999N9999999N1+00601+00601102041ADDMA1999999098061MD1110131+9999OA149900211REMSYN094AAXX  10014 06646 23/// /0000 10060 20060 39806 40204 51013 333 55300 20000 60015 91104 91202;
0109066460999992011011002004+47567+008233FM-12+032799999V0202901N001019999999N9999999N1+00551+00551102101ADDMA1999999098111REMSYN082AAXX  10024 06646 23/// /2902 10055 20055 39811 40210 5//// 333 553// 20000 69965;
0087066460999992011011003004+47567+008233FM-12+032799999V0203201N001019999999N9999999N1+00491+00491102161ADDMA1999999098161REMSYN060AAXX  10034 06646 43/// /3202 10049 20049 39816 40216 5////;
0109066460999992011011004004+47567+008233FM-12+032799999V0200201N000519999999N9999999N1+00471+00471102201ADDMA1999999098201REMSYN082AAXX  10044 06646 23/// /0201 10047 20047 39820 40220 5//// 333 553// 20000 69955;
0146066460999992011011005004+47567+008233FM-12+032799999V0200101N000519999999N9999999N1+00411+00411102221ADDMA1999999098211MD1219999+9999OA149900411REMSYN094AAXX  10054 06646 23/// /0101 10041 20041 39821 40222 52/// 333 55300 20000 69925 91108 91203;
0159066460999992011011006004+47567+008233FM-12+032799999V0203401N000519999999N9999999N1+00381+00381102251ADDAA124022491GJ100009IA2999+00309KA1999N+00381MA1999999098231REMSYN088AAXX  10064 06646 43/// /3401 10038 20038 39823 40225 5//// 333 20038 3/003 55000 70223;
0140066460999992011011007004+47567+008233FM-12+032799999V0209999C000019999999N9999999N1+00371+00371102291ADDMA1999999098271MD1210071+9999OA149900211REMSYN088AAXX  10074 06646 33/// /0000 10037 20037 39827 40229 52007 333 55300 20000 91104 91201;
0087066460999992011011008004+47567+008233FM-12+032799999V0209999C000019999999N9999999N1+00361+00361102311ADDMA1999999098291REMSYN060AAXX  10084 06646 43/// /0000 10036 20036 39829 40231 5////;
0087066460999992011011009004+47567+008233FM-12+032799999V0200101N000519999999N9999999N1+00411+00411102321ADDMA1999999098311REMSYN060AAXX  10094 06646 43/// /0101 10041 20041 39831 40232 5////;
0140066460999992011011010004+47567+008233FM-12+032799999V0200401N001019999999N9999999N1+00421+00421102321ADDMA1999999098311MD1210041+9999OA149900151REMSYN088AAXX  10104 06646 33/// /0402 10042 20042 39831 40232 52004 333 55300 20173 91103 91202;
0140066460999992011011011004+47567+008233FM-12+032799999V0200401N001519999999N9999999N1+00421+00421102301ADDMA1999999098291MD1819999+9999OA149900361REMSYN088AAXX  10114 06646 33/// /0403 10042 20042 39829 40230 58/// 333 55300 20205 91107 91203;
0103066460999992011011012004+47567+008233FM-12+032799999V0200501N000519999999N9999999N1+00461+00461102231ADDMA1999999098231REMSYN076AAXX  10124 06646 33/// /0501 10046 20046 39823 40223 5//// 333 553// 20274;
0087066460999992011011013004+47567+008233FM-12+032799999V0200901N000519999999N9999999N1+00481+00481102171ADDMA1999999098171REMSYN060AAXX  10134 06646 43/// /0901 10048 20048 39817 40217 5////;
0087066460999992011011014004+47567+008233FM-12+032799999V0200701N001019999999N9999999N1+00481+00181102111ADDMA1999999098111REMSYN060AAXX  10144 06646 43/// /0702 10048 20018 39811 40211 5////;
0087066460999992011011015004+47567+008233FM-12+032799999V0201001N001519999999N9999999N1+00451+00121102091ADDMA1999999098091REMSYN060AAXX  10154 06646 43/// /1003 10045 20012 39809 40209 5////;
0087066460999992011011016004+47567+008233FM-12+032799999V0200501N000519999999N9999999N1+00431+00151102071ADDMA1999999098071REMSYN060AAXX  10164 06646 43/// /0501 10043 20015 39807 40207 5////;
0087066460999992011011017004+47567+008233FM-12+032799999V0201101N001019999999N9999999N1+00411+00151102041ADDMA1999999098041REMSYN060AAXX  10174 06646 43/// /1102 10041 20015 39804 40204 5////;
0087066460999992011011018004+47567+008233FM-12+032799999V0200801N000519999999N9999999N1+00401+00151102021ADDMA1999999098021REMSYN060AAXX  10184 06646 43/// /0801 10040 20015 39802 40202 5////;
0087066460999992011011019004+47567+008233FM-12+032799999V0200301N001019999999N9999999N1+00391+00131102001ADDMA1999999098001REMSYN060AAXX  10194 06646 43/// /0302 10039 20013 39800 40200 5////;
0087066460999992011011020004+47567+008233FM-12+032799999V0203601N000519999999N9999999N1+00371+00161101971ADDMA1999999097961REMSYN060AAXX  10204 06646 43/// /3601 10037 20016 39796 40197 5////;
0087066460999992011011021004+47567+008233FM-12+032799999V0203601N000519999999N9999999N1+00331+00131101951ADDMA1999999097941REMSYN060AAXX  10214 06646 43/// /3601 10033 20013 39794 40195 5////;
0087066460999992011011022004+47567+008233FM-12+032799999V0203401N000519999999N9999999N1+00311+00161101941ADDMA1999999097931REMSYN060AAXX  10224 06646 43/// /3401 10031 20016 39793 40194 5////;
0087066460999992011011023004+47567+008233FM-12+032799999V0203601N000519999999N9999999N1+00301+00181101901ADDMA1999999097891REMSYN060AAXX  10234 06646 43/// /3601 10030 20018 39789 40190 5////;
0087066460999992011011100004+47567+008233FM-12+032799999V0203301N001519999999N9999999N1+00281+00171101841ADDMA1999999097831REMSYN060AAXX  11004 06646 43/// /3303 10028 20017 39783 40184 5////;
0087066460999992011011101004+47567+008233FM-12+032799999V0200101N000519999999N9999999N1+00281+00181101781ADDMA1999999097771REMSYN060AAXX  11014 06646 43/// /0101 10028 20018 39777 40178 5////;
0087066460999992011011102004+47567+008233FM-12+032799999V0209999C000019999999N9999999N1+00291+00181101741ADDMA1999999097731REMSYN060AAXX  11024 06646 43/// /0000 10029 20018 39773 40174 5////;
0087066460999992011011103004+47567+008233FM-12+032799999V0203401N000519999999N9999999N1+00291+00201101701ADDMA1999999097691REMSYN060AAXX  11034 06646 43/// /3401 10029 20020 39769 40170 5////;
0087066460999992011011104004+47567+008233FM-12+032799999V0203201N000519999999N9999999N1+00281+00191101651ADDMA1999999097641REMSYN060AAXX  11044 06646 43/// /3201 10028 20019 39764 40165 5////;
0087066460999992011011105004+47567+008233FM-12+032799999V0209999C000019999999N9999999N1+00281+00181101591ADDMA1999999097591REMSYN060AAXX  11054 06646 43/// /0000 10028 20018 39759 40159 5////;
0097066460999992011011106004+47567+008233FM-12+032799999V0209999C000019999999N9999999N1+00271+00191101521ADDMA1999999097521REMSYN070AAXX  11064 06646 43/// /0000 10027 20019 39752 40152 5//// 333 55000;
0140066460999992011011107004+47567+008233FM-12+032799999V0209999C000519999999N9999999N1+00281+00201101491ADDMA1999999097491MD1719999+9999OA149900101REMSYN088AAXX  11074 06646 33/// /0001 10028 20020 39749 40149 57/// 333 55300 20000 91102 91201;
0103066460999992011011108004+47567+008233FM-12+032799999V0203601N000519999999N9999999N1+00291+00201101451ADDMA1999999097451REMSYN076AAXX  11084 06646 33/// /3601 10029 20020 39745 40145 5//// 333 553// 20029;
0087066460999992011011109004+47567+008233FM-12+032799999V0209999C000019999999N9999999N1+00311+00201101401ADDMA1999999097411REMSYN060AAXX  11094 06646 43/// /0000 10031 20020 39741 40140 5////;
0140066460999992011011110004+47567+008233FM-12+032799999V0203501N000519999999N9999999N1+00311+00221101351ADDMA1999999097361MD1710131+9999OA149900151REMSYN088AAXX  11104 06646 33/// /3501 10031 20022 39736 40135 57013 333 55300 20227 91103 91201;
0140066460999992011011111004+47567+008233FM-12+032799999V0200201N000519999999N9999999N1+00501+00291101231ADDMA1999999097271MD1810181+9999OA149900151REMSYN088AAXX  11114 06646 33/// /0201 10050 20029 39727 40123 58018 333 55306 20835 91103 91201;
0103066460999992011011112004+47567+008233FM-12+032799999V0202001N002119999999N9999999N1+00701+00221101091ADDMA1999999097171REMSYN076AAXX  11124 06646 33/// /2004 10070 20022 39717 40109 5//// 333 553// 20860;
0140066460999992011011113004+47567+008233FM-12+032799999V0202101N002119999999N9999999N1+00711+00231101061ADDMA1999999097141MD1710221+9999OA149900571REMSYN088AAXX  11134 06646 33/// /2104 10071 20023 39714 40106 57022 333 55300 20529 91111 91204;
0087066460999992011011114004+47567+008233FM-12+032799999V0202301N001519999999N9999999N1+00681+00281101131ADDMA1999999097201REMSYN060AAXX  11144 06646 43/// /2303 10068 20028 39720 40113 5////;
0087066460999992011011115004+47567+008233FM-12+032799999V0202001N001519999999N9999999N1+00531+00321101221ADDMA1999999097271REMSYN060AAXX  11154 06646 43/// /2003 10053 20032 39727 40122 5////;
0146066460999992011011116004+47567+008233FM-12+032799999V0202001N001519999999N9999999N1+00471+00351101311ADDMA1999999097341MD1110201+9999OA149900411REMSYN094AAXX  11164 06646 23/// /2003 10047 20035 39734 40131 51020 333 55300 20011 60035 91108 91203;
0146066460999992011011117004+47567+008233FM-12+032799999V0201901N001519999999N9999999N1+00431+00291101381ADDMA1999999097411MD1210201+9999OA149900461REMSYN094AAXX  11174 06646 23/// /1903 10043 20029 39741 40138 52020 333 55300 20000 69985 91109 91203;
0182066460999992011011118004+47567+008233FM-12+032799999V0202001N001019999999N9999999N1+00411+00291101461ADDAA112006191KA1120M+00721MA1999999097481MD1110211+9999OA149900571REMSYN106AAXX  11184 06646 03/// /2002 10041 20029 39748 40146 51021 60062 333 10072 55300 20000 69915 91111 91205;
0140066460999992011011119004+47567+008233FM-12+032799999V0201901N001019999999N9999999N1+00421+00321101561ADDMA1999999097581MD1310241+9999OA149900461REMSYN088AAXX  11194 06646 33/// /1902 10042 20032 39758 40156 53024 333 55300 20000 91109 91204;
0146066460999992011011120004+47567+008233FM-12+032799999V0202001N001019999999N9999999N1+00431+00341101621ADDMA1999999097641MD1210231+9999OA149900411REMSYN094AAXX  11204 06646 23/// /2002 10043 20034 39764 40162 52023 333 55300 20000 69925 91108 91204;
0146066460999992011011121004+47567+008233FM-12+032799999V0202001N000519999999N9999999N1+00461+00361101721ADDMA1999999097741MD1210261+9999OA149900461REMSYN094AAXX  11214 06646 23/// /2001 10046 20036 39774 40172 52026 333 55300 20000 69915 91109 91204;
0146066460999992011011122004+47567+008233FM-12+032799999V0201801N001519999999N9999999N1+00481+00381101811ADDMA1999999097831MD1210251+9999OA149900361REMSYN094AAXX  11224 06646 23/// /1803 10048 20038 39783 40181 52025 333 55300 20000 69935 91107 91204;
0140066460999992011011123004+47567+008233FM-12+032799999V0201701N001519999999N9999999N1+00501+00391101841ADDMA1999999097861MD1110221+9999OA149900411REMSYN088AAXX  11234 06646 33/// /1703 10050 20039 39786 40184 51022 333 55300 20000 91108 91204;
0163066460999992011011200004+47567+008233FM-12+032799999V0202001N001019999999N9999999N1+00511+00371101861ADDAA106000591MA1999999097881MD1210141+9999OA149900571REMSYN100AAXX  12004 06646 03/// /2002 10051 20037 39788 40186 52014 69961 333 55300 20000 60005 91111 91205;
0146066460999992011011201004+47567+008233FM-12+032799999V0202101N001019999999N9999999N1+00511+00421101911ADDMA1999999097931MD1210101+9999OA149900411REMSYN094AAXX  12014 06646 23/// /2102 10051 20042 39793 40191 52010 333 55300 20000 69945 91108 91204;
0103066460999992011011202004+47567+008233FM-12+032799999V0201901N001519999999N9999999N1+00531+00431102021ADDMA1999999098031REMSYN076AAXX  12024 06646 33/// /1903 10053 20043 39803 40202 5//// 333 553// 20000;
0087066460999992011011203004+47567+008233FM-12+032799999V0202001N001519999999N9999999N1+00591+00431102081ADDMA1999999098101REMSYN060AAXX  12034 06646 43/// /2003 10059 20043 39810 40208 5////;
0087066460999992011011204004+47567+008233FM-12+032799999V0202101N001519999999N9999999N1+00611+00401102131ADDMA1999999098151REMSYN060AAXX  12044 06646 43/// /2103 10061 20040 39815 40213 5////;
0109066460999992011011205004+47567+008233FM-12+032799999V0202601N003619999999N9999999N1+00611+00271102251ADDMA1999999098271REMSYN082AAXX  12054 06646 23/// /2607 10061 20027 39827 40225 5//// 333 553// 20000 69915;
0159066460999992011011206004+47567+008233FM-12+032799999V0202501N003619999999N9999999N1+00591+00261102331ADDAA124007691GJ100489IA2999+00309KA1999N+00411MA1999999098341REMSYN088AAXX  12064 06646 43/// /2507 10059 20026 39834 40233 5//// 333 20041 3/003 55008 70077;
0140066460999992011011207004+47567+008233FM-12+032799999V0202301N001519999999N9999999N1+00581+00261102391ADDMA1999999098401MD1110251+9999OA149900881REMSYN088AAXX  12074 06646 33/// /2303 10058 20026 39840 40239 51025 333 55300 20000 91117 91208;
0087066460999992011011208004+47567+008233FM-12+032799999V0202501N002119999999N9999999N1+00601+00231102381ADDMA1999999098391REMSYN060AAXX  12084 06646 43/// /2504 10060 20023 39839 40238 5////;
0087066460999992011011209004+47567+008233FM-12+032799999V0202701N001019999999N9999999N1+00601+00221102421ADDMA1999999098431REMSYN060AAXX  12094 06646 43/// /2702 10060 20022 39843 40242 5////;
0140066460999992011011210004+47567+008233FM-12+032799999V0202401N002619999999N9999999N1+00631+00221102421ADDMA1999999098431MD1219999+9999OA149900621REMSYN088AAXX  12104 06646 33/// /2405 10063 20022 39843 40242 52/// 333 55300 20306 91112 91205;
0117066460999992011011211004+47567+008233FM-12+032799999V0202501N002119999999N9999999N1+00631+00231102391ADDMA1999999098401MD1010011+9999REMSYN076AAXX  12114 06646 33/// /2504 10063 20023 39840 40239 50001 333 55300 20299;
0087066460999992011011212004+47567+008233FM-12+032799999V0202501N001019999999N9999999N1+00641+00271102371ADDMA1999999098391REMSYN060AAXX  12124 06646 43/// /2502 10064 20027 39839 40237 5////;
0087066460999992011011213004+47567+008233FM-12+032799999V0202601N001519999999N9999999N1+00651+00281102331ADDMA1999999098351REMSYN060AAXX  12134 06646 43/// /2603 10065 20028 39835 40233 5////;
0087066460999992011011214004+47567+008233FM-12+032799999V0202401N001019999999N9999999N1+00631+00261102351ADDMA1999999098371REMSYN060AAXX  12144 06646 43/// /2402 10063 20026 39837 40235 5////;
0087066460999992011011215004+47567+008233FM-12+032799999V0201901N000519999999N9999999N1+00561+00391102351ADDMA1999999098361REMSYN060AAXX  12154 06646 43/// /1901 10056 20039 39836 40235 5////;
0146066460999992011011216004+47567+008233FM-12+032799999V0201701N000519999999N9999999N1+00561+00391102321ADDMA1999999098331MD1710021+9999OA149900211REMSYN094AAXX  12164 06646 23/// /1701 10056 20039 39833 40232 57002 333 55300 20007 69925 91104 91202;
0146066460999992011011217004+47567+008233FM-12+032799999V0202501N000519999999N9999999N1+00571+00401102311ADDMA1999999098321MD1710051+9999OA149900311REMSYN094AAXX  12174 06646 23/// /2501 10057 20040 39832 40231 57005 333 55300 20000 69925 91106 91203;
0182066460999992011011218004+47567+008233FM-12+032799999V0209999C000019999999N9999999N1+00491+00401102301ADDAA112001091KA1120M+00651MA1999999098301MD1710061+9999OA149900671REMSYN106AAXX  12184 06646 03/// /0000 10049 20040 39830 40230 57006 60012 333 10065 55300 20000 69915 91113 91207;
0140066460999992011011219004+47567+008233FM-12+032799999V0209999C000019999999N9999999N1+00481+00401102291ADDMA1999999098291MD1710041+9999OA149900101REMSYN088AAXX  12194 06646 33/// /0000 10048 20040 39829 40229 57004 333 55300 20000 91102 91201;
0146066460999992011011220004+47567+008233FM-12+032799999V0209999C000019999999N9999999N1+00481+00441102271ADDMA1999999098271MD1710051+9999OA149900101REMSYN094AAXX  12204 06646 23/// /0000 10048 20044 39827 40227 57005 333 55300 20000 69955 91102 91201;
0146066460999992011011221004+47567+008233FM-12+032799999V0202301N000519999999N9999999N1+00551+00491102291ADDMA1999999098301MD1510001+9999OA149900311REMSYN094AAXX  12214 06646 23/// /2301 10055 20049 39830 40229 55000 333 55300 20000 69975 91106 91203;
0146066460999992011011222004+47567+008233FM-12+032799999V0209999C000019999999N9999999N1+00561+00511102261ADDMA1999999098271MD1710021+9999OA149900211REMSYN094AAXX  12224 06646 23/// /0000 10056 20051 39827 40226 57002 333 55300 20000 60015 91104 91201;
0146066460999992011011223004+47567+008233FM-12+032799999V0200401N000519999999N9999999N1+00551+00531102271ADDMA1999999098281MD1010011+9999OA149900151REMSYN094AAXX  12234 06646 23/// /0401 10055 20053 39828 40227 50001 333 55300 20000 60015 91103 91201;
0163066460999992011011300004+47567+008233FM-12+032799999V0201901N002619999999N9999999N1+00651+00581102191ADDAA106005191MA1999999098221MD1710081+9999OA149900571REMSYN100AAXX  13004 06646 03/// /1905 10065 20058 39822 40219 57008 60051 333 55300 20000 60025 91111 91205;
0146066460999992011011301004+47567+008233FM-12+032799999V0201801N002119999999N9999999N1+00681+00551102181ADDMA1999999098211MD1710061+9999OA149900571REMSYN094AAXX  13014 06646 23/// /1804 10068 20055 39821 40218 57006 333 55300 20000 60015 91111 91205;
0146066460999992011011302004+47567+008233FM-12+032799999V0201901N002119999999N9999999N1+00701+00571102141ADDMA1999999098171MD1719999+9999OA149900621REMSYN094AAXX  13024 06646 23/// /1904 10070 20057 39817 40214 57/// 333 55300 20000 69995 91112 91206;
0087066460999992011011303004+47567+008233FM-12+032799999V0200101N000519999999N9999999N1+00671+00621102131ADDMA1999999098161REMSYN060AAXX  13034 06646 43/// /0101 10067 20062 39816 40213 5////;
0146066460999992011011304004+47567+008233FM-12+032799999V0203501N000519999999N9999999N1+00661+00641102111ADDMA1999999098141MD1719999+9999OA149900511REMSYN094AAXX  13044 06646 23/// /3501 10066 20064 39814 40211 57/// 333 55300 20000 60015 91110 91204;
0109066460999992011011305004+47567+008233FM-12+032799999V0209999C000519999999N9999999N1+00641+00621102131ADDMA1999999098161REMSYN082AAXX  13054 06646 23/// /0001 10064 20062 39816 40213 5//// 333 553// 20000 60025;
0230066460999992011011306004+47567+008233FM-12+032799999V0201901N003119999999N9999999N1+00811+00701102111ADDAA112010991AL10601291GJ100009IA2999+00409KA1999N+00471MA1999999098161MD1010001+9999OA149900621REMSYN124AAXX  13064 06646 03/// /1906 10081 20070 39816 40211 50000 60112 333 20047 3/004 55000 55300 20000 69935 70121 91112 91206;
0087066460999992011011307004+47567+008233FM-12+032799999V0201901N002119999999N9999999N1+00851+00691102111ADDMA1999999098171REMSYN060AAXX  13074 06646 43/// /1904 10085 20069 39817 40211 5////;
0087066460999992011011308004+47567+008233FM-12+032799999V0202001N002619999999N9999999N1+00881+00741102111ADDMA1999999098171REMSYN060AAXX  13084 06646 43/// /2005 10088 20074 39817 40211 5////;
0087066460999992011011309004+47567+008233FM-12+032799999V0202501N000519999999N9999999N1+00901+00771102151ADDMA1999999098211REMSYN060AAXX  13094 06646 43/// /2501 10090 20077 39821 40215 5////;
0087066460999992011011310004+47567+008233FM-12+032799999V0209999C000019999999N9999999N1+00811+00781102201ADDMA1999999098251REMSYN060AAXX  13104 06646 43/// /0000 10081 20078 39825 40220 5////;
0087066460999992011011311004+47567+008233FM-12+032799999V0201901N000519999999N9999999N1+00931+00831102161ADDMA1999999098231REMSYN060AAXX  13114 06646 43/// /1901 10093 20083 39823 40216 5////;
0087066460999992011011312004+47567+008233FM-12+032799999V0209999C000019999999N9999999N1+00931+00881102141ADDMA1999999098211REMSYN060AAXX  13124 06646 43/// /0000 10093 20088 39821 40214 5////;
0087066460999992011011313004+47567+008233FM-12+032799999V0209999C000019999999N9999999N1+00991+00941102061ADDMA1999999098141REMSYN060AAXX  13134 06646 43/// /0000 10099 20094 39814 40206 5////;
0087066460999992011011314004+47567+008233FM-12+032799999V0209999C000019999999N9999999N1+00981+00951102091ADDMA1999999098171REMSYN060AAXX  13144 06646 43/// /0000 10098 20095 39817 40209 5////;
0087066460999992011011315004+47567+008233FM-12+032799999V0202101N001519999999N9999999N1+01121+00831102051ADDMA1999999098151REMSYN060AAXX  13154 06646 43/// /2103 10112 20083 39815 40205 5////;
0087066460999992011011316004+47567+008233FM-12+032799999V0202101N003119999999N9999999N1+01221+00751102061ADDMA1999999098171REMSYN060AAXX  13164 06646 43/// /2106 10122 20075 39817 40206 5////;
0146066460999992011011317004+47567+008233FM-12+032799999V0202101N002619999999N9999999N1+01141+00851102091ADDMA1999999098191MD1210021+9999OA149900671REMSYN094AAXX  13174 06646 23/// /2105 10114 20085 39819 40209 52002 333 55300 20000 69935 91113 91207;
0182066460999992011011318004+47567+008233FM-12+032799999V0200501N000519999999N9999999N1+00931+00901102141ADDAA112006191KA1120M+01231MA1999999098211MD1210061+9999OA149900671REMSYN106AAXX  13184 06646 03/// /0501 10093 20090 39821 40214 52006 60062 333 10123 55300 20000 69955 91113 91207;
0146066460999992011011319004+47567+008233FM-12+032799999V0200501N000519999999N9999999N1+00871+00861102151ADDMA1999999098211MD1210041+9999OA149900511REMSYN094AAXX  13194 06646 23/// /0501 10087 20086 39821 40215 52004 333 55300 20000 69935 91110 91205;
0146066460999992011011320004+47567+008233FM-12+032799999V0202401N002119999999N9999999N1+01131+00931102111ADDMA1999999098211MD1210021+9999OA149900511REMSYN094AAXX  13204 06646 23/// /2404 10113 20093 39821 40211 52002 333 55300 20000 69915 91110 91204;
0140066460999992011011321004+47567+008233FM-12+032799999V0202301N001519999999N9999999N1+01131+00931102111ADDMA1999999098211MD1010001+9999OA149900671REMSYN088AAXX  13214 06646 33/// /2303 10113 20093 39821 40211 50000 333 55300 20000 91113 91207;
0140066460999992011011322004+47567+008233FM-12+032799999V0202301N000519999999N9999999N1+01131+00911102121ADDMA1999999098221MD1010011+9999OA149900671REMSYN088AAXX  13224 06646 33/// /2301 10113 20091 39822 40212 50001 333 55300 20000 91113 91205;
0140066460999992011011323004+47567+008233FM-12+032799999V0202501N001019999999N9999999N1+01161+00891102131ADDMA1999999098231MD1210021+9999OA149900671REMSYN088AAXX  13234 06646 33/// /2502 10116 20089 39823 40213 52002 333 55300 20000 91113 91205;
0163066460999992011011400004+47567+008233FM-12+032799999V0202301N001519999999N9999999N1+01161+00851102121ADDAA106000591MA1999999098221MD1010011+9999OA149900771REMSYN100AAXX  14004 06646 03/// /2303 10116 20085 39822 40212 50001 69941 333 55300 20000 60005 91115 91207;
0140066460999992011011401004+47567+008233FM-12+032799999V0201801N002119999999N9999999N1+01041+00821102161ADDMA1999999098241MD1310021+9999OA149900771REMSYN088AAXX  14014 06646 33/// /1804 10104 20082 39824 40216 53002 333 55300 20000 91115 91205;
0103066460999992011011402004+47567+008233FM-12+032799999V0201801N001519999999N9999999N1+00971+00821102221ADDMA1999999098291REMSYN076AAXX  14024 06646 33/// /1803 10097 20082 39829 40222 5//// 333 553// 20000;
0140066460999992011011403004+47567+008233FM-12+032799999V0209999C000019999999N9999999N1+00921+00791102231ADDMA1999999098291MD1110071+9999OA149900771REMSYN088AAXX  14034 06646 33/// /0000 10092 20079 39829 40223 51007 333 55300 20000 91115 91205;
0140066460999992011011404004+47567+008233FM-12+032799999V0201901N000519999999N9999999N1+00801+00711102231ADDMA1999999098281MD1010041+9999OA149900461REMSYN088AAXX  14044 06646 33/// /1901 10080 20071 39828 40223 50004 333 55300 20000 91109 91204;
0140066460999992011011405004+47567+008233FM-12+032799999V0202501N000519999999N9999999N1+00801+00721102231ADDMA1999999098281MD1810011+9999OA149900461REMSYN088AAXX  14054 06646 33/// /2501 10080 20072 39828 40223 58001 333 55300 20000 91109 91204;
0230066460999992011011406004+47567+008233FM-12+032799999V0202001N001019999999N9999999N1+00881+00711102231ADDAA112000591AL19900691GJ100009IA2999+00609KA1999N+00781MA1999999098291MD1510001+9999OA149900771REMSYN124AAXX  14064 06646 03/// /2002 10088 20071 39829 40223 55000 69942 333 20078 3/006 55000 55300 20000 60005 70060 91115 91205;
0140066460999992011011407004+47567+008233FM-12+032799999V0201801N001519999999N9999999N1+00911+00711102241ADDMA1999999098301MD1210021+9999OA149900311REMSYN088AAXX  14074 06646 33/// /1803 10091 20071 39830 40224 52002 333 55300 20000 91106 91204;
0087066460999992011011408004+47567+008233FM-12+032799999V0201901N001019999999N9999999N1+00901+00701102261ADDMA1999999098321REMSYN060AAXX  14084 06646 43/// /1902 10090 20070 39832 40226 5////;
0087066460999992011011409004+47567+008233FM-12+032799999V0202501N000519999999N9999999N1+00951+00721102231ADDMA1999999098301REMSYN060AAXX  14094 06646 43/// /2501 10095 20072 39830 40223 5////;
0087066460999992011011410004+47567+008233FM-12+032799999V0202601N001519999999N9999999N1+01021+00731102251ADDMA1999999098331REMSYN060AAXX  14104 06646 43/// /2603 10102 20073 39833 40225 5////;
0140066460999992011011411004+47567+008233FM-12+032799999V0202001N001019999999N9999999N1+01021+00731102221ADDMA1999999098301MD1710021+9999OA149900511REMSYN088AAXX  14114 06646 33/// /2002 10102 20073 39830 40222 57002 333 55300 20194 91110 91206;
0140066460999992011011412004+47567+008233FM-12+032799999V0201801N001019999999N9999999N1+01091+00741102151ADDMA1999999098241MD1810061+9999OA149900511REMSYN088AAXX  14124 06646 33/// /1802 10109 20074 39824 40215 58006 333 55300 20371 91110 91206;
0140066460999992011011413004+47567+008233FM-12+032799999V0202201N001519999999N9999999N1+01141+00661102101ADDMA1999999098201MD1710131+9999OA149900261REMSYN088AAXX  14134 06646 33/// /2203 10114 20066 39820 40210 57013 333 55300 20389 91105 91203;
0103066460999992011011414004+47567+008233FM-12+032799999V0202301N000519999999N9999999N1+01141+00661102071ADDMA1999999098171REMSYN076AAXX  14144 06646 33/// /2301 10114 20066 39817 40207 5//// 333 553// 20299;
0140066460999992011011415004+47567+008233FM-12+032799999V0202001N001019999999N9999999N1+01081+00771102071ADDMA1999999098161MD1610081+9999OA149900511REMSYN088AAXX  14154 06646 33/// /2002 10108 20077 39816 40207 56008 333 55300 20162 91110 91206;
0140066460999992011011416004+47567+008233FM-12+032799999V0201701N000519999999N9999999N1+00961+00781102071ADDMA1999999098141MD1710061+9999OA149900261REMSYN088AAXX  14164 06646 33/// /1701 10096 20078 39814 40207 57006 333 55300 20065 91105 91202;
0140066460999992011011417004+47567+008233FM-12+032799999V0209999C000019999999N9999999N1+00841+00751102051ADDMA1999999098111MD1710061+9999OA149900151REMSYN088AAXX  14174 06646 33/// /0000 10084 20075 39811 40205 57006 333 55300 20000 91103 91202;
0159066460999992011011418004+47567+008233FM-12+032799999V0202101N000519999999N9999999N1+00641+00611102061ADDKA1120M+01151MA1999999098091MD1710071+9999OA149900511REMSYN094AAXX  14184 06646 33/// /2101 10064 20061 39809 40206 57007 333 10115 55300 20000 91110 91206;
0140066460999992011011419004+47567+008233FM-12+032799999V0202201N000519999999N9999999N1+00491+00471102071ADDMA1999999098081MD1610061+9999OA149900101REMSYN088AAXX  14194 06646 33/// /2201 10049 20047 39808 40207 56006 333 55300 20000 91102 91201;
0140066460999992011011420004+47567+008233FM-12+032799999V0209999C000019999999N9999999N1+00471+00451102111ADDMA1999999098111MD1510001+9999OA149900101REMSYN088AAXX  14204 06646 33/// /0000 10047 20045 39811 40211 55000 333 55300 20000 91102 91201;
0140066460999992011011421004+47567+008233FM-12+032799999V0202301N000519999999N9999999N1+00451+00421102131ADDMA1999999098131MD1310041+9999OA149900151REMSYN088AAXX  14214 06646 33/// /2301 10045 20042 39813 40213 53004 333 55300 20000 91103 91202;
0140066460999992011011422004+47567+008233FM-12+032799999V0202001N001519999999N9999999N1+00601+00511102191ADDMA1999999098211MD1210131+9999OA149900261REMSYN088AAXX  14224 06646 33/// /2003 10060 20051 39821 40219 52013 333 55300 20000 91105 91203;
0140066460999992011011423004+47567+008233FM-12+032799999V0201901N000519999999N9999999N1+00721+00551102211ADDMA1999999098241MD1210131+9999OA149900261REMSYN088AAXX  14234 06646 33/// /1901 10072 20055 39824 40221 52013 333 55300 20000 91105 91203;
0140066460999992011011500004+47567+008233FM-12+032799999V0202201N002119999999N9999999N1+01011+00461102221ADDMA1999999098301MD1210171+9999OA149900881REMSYN088AAXX  15004 06646 33/// /2204 10101 20046 39830 40222 52017 333 55300 20000 91117 91208;
0146066460999992011011501004+47567+008233FM-12+032799999V0202201N002619999999N9999999N1+00911+00591102351ADDMA1999999098411MD1210201+9999OA149901181REMSYN094AAXX  15014 06646 23/// /2205 10091 20059 39841 40235 52020 333 55300 20000 60025 91123 91208;
0146066460999992011011502004+47567+008233FM-12+032799999V0202101N002119999999N9999999N1+00891+00631102431ADDMA1999999098481MD1219999+9999OA149901181REMSYN094AAXX  15024 06646 23/// /2104 10089 20063 39848 40243 52/// 333 55300 20000 69985 91123 91208;
0109066460999992011011503004+47567+008233FM-12+032799999V0202501N003119999999N9999999N1+00851+00611102531ADDMA1999999098571REMSYN082AAXX  15034 06646 23/// /2506 10085 20061 39857 40253 5//// 333 553// 20000 60025;
0140066460999992011011504004+47567+008233FM-12+032799999V0202501N002619999999N9999999N1+00861+00581102621ADDMA1999999098661MD1310251+9999OA149900931REMSYN088AAXX  15044 06646 33/// /2505 10086 20058 39866 40262 53025 333 55300 20000 91118 91208;
0140066460999992011011505004+47567+008233FM-12+032799999V0202101N002119999999N9999999N1+00851+00531102711ADDMA1999999098741MD1210261+9999OA149900881REMSYN088AAXX  15054 06646 33/// /2104 10085 20053 39874 40271 52026 333 55300 20000 91117 91208;
0230066460999992011011506004+47567+008233FM-12+032799999V0202201N002119999999N9999999N1+00851+00501102771ADDAA112005191AL14800491GJ100009IA2999+00109KA1999N+00441MA1999999098801MD1210231+9999OA149901181REMSYN124AAXX  15064 06646 03/// /2204 10085 20050 39880 40277 52023 60052 333 20044 3/001 55000 55300 20000 60005 70049 91123 91208;
0140066460999992011011507004+47567+008233FM-12+032799999V0201201N000519999999N9999999N1+00561+00491102901ADDMA1999999098881MD1210221+9999OA149900461REMSYN088AAXX  15074 06646 33/// /1201 10056 20049 39888 40290 52022 333 55300 20000 91109 91204;
0140066460999992011011508004+47567+008233FM-12+032799999V0209999C000019999999N9999999N1+00451+00421102931ADDMA1999999098901MD1219999+9999OA149900461REMSYN088AAXX  15084 06646 33/// /0000 10045 20042 39890 40293 52/// 333 55300 20040 91109 91204;
0140066460999992011011509004+47567+008233FM-12+032799999V0209999C000019999999N9999999N1+00551+00471102981ADDMA1999999098961MD1210161+9999OA149900881REMSYN088AAXX  15094 06646 33/// /0000 10055 20047 39896 40298 52016 333 55308 20418 91117 91208;
0140066460999992011011510004+47567+008233FM-12+032799999V0202101N001519999999N9999999N1+00891+00521102931ADDMA1999999098961MD1210081+9999OA149900311REMSYN088AAXX  15104 06646 33/// /2103 10089 20052 39896 40293 52008 333 553// 20889 91106 91203;
0140066460999992011011511004+47567+008233FM-12+032799999V0201901N001519999999N9999999N1+00921+00491102891ADDMA1999999098931MD1010031+9999OA149900411REMSYN088AAXX  15114 06646 33/// /1903 10092 20049 39893 40289 50003 333 55302 20648 91108 91204;
0140066460999992011011512004+47567+008233FM-12+032799999V0202401N002619999999N9999999N1+01031+00431102841ADDMA1999999098891MD1710071+9999OA149901181REMSYN088AAXX  15124 06646 33/// /2405 10103 20043 39889 40284 57007 333 55306 20860 91123 91208;
0103066460999992011011513004+47567+008233FM-12+032799999V0202301N002619999999N9999999N1+01071+00341102791ADDMA1999999098851REMSYN076AAXX  15134 06646 33/// /2305 10107 20034 39885 40279 5//// 333 553// 2////;
0087066460999992011011514004+47567+008233FM-12+032799999V0202301N001019999999N9999999N1+01031+00391102831ADDMA1999999098881REMSYN060AAXX  15144 06646 43/// /2302 10103 20039 39888 40283 5////;
0087066460999992011011515004+47567+008233FM-12+032799999V0202901N000519999999N9999999N1+00991+00531102861ADDMA1999999098911REMSYN060AAXX  15154 06646 43/// /2901 10099 20053 39891 40286 5////;
0087066460999992011011516004+47567+008233FM-12+032799999V0209999C000019999999N9999999N1+00731+00511102931ADDMA1999999098941REMSYN060AAXX  15164 06646 43/// /0000 10073 20051 39894 40293 5////;
0103066460999992011011517004+47567+008233FM-12+032799999V0202001N000519999999N9999999N1+00521+00421102951ADDMA1999999098931REMSYN076AAXX  15174 06646 33/// /2001 10052 20042 39893 40295 5//// 333 553// 20000;
0110066460999992011011518004+47567+008233FM-12+032799999V0201701N000519999999N9999999N1+00421+00361103001ADDKA1999M+01101MA1999999098961REMSYN070AAXX  15184 06646 43/// /1701 10042 20036 39896 40300 5//// 333 10110;
0087066460999992011011519004+47567+008233FM-12+032799999V0209999C000019999999N9999999N1+00301+00261103041ADDMA1999999098981REMSYN060AAXX  15194 06646 43/// /0000 10030 20026 39898 40304 5////;
0087066460999992011011520004+47567+008233FM-12+032799999V0201901N000519999999N9999999N1+00241+00211103071ADDMA1999999099001REMSYN060AAXX  15204 06646 43/// /1901 10024 20021 39900 40307 5////;
0140066460999992011011521004+47567+008233FM-12+032799999V0209999C000019999999N9999999N1+00211+00181103051ADDMA1999999098981MD1010021+9999OA149900151REMSYN088AAXX  15214 06646 33/// /0000 10021 20018 39898 40305 50002 333 55300 20000 91103 91202;
0140066460999992011011522004+47567+008233FM-12+032799999V0209999C000019999999N9999999N1+00151+00131103091ADDMA1999999099011MD1310031+9999OA149900101REMSYN088AAXX  15224 06646 33/// /0000 10015 20013 39901 40309 53003 333 55300 20000 91102 91201;
0140066460999992011011523004+47567+008233FM-12+032799999V0201401N000519999999N9999999N1+00111+00091103081ADDMA1999999098991MD1010011+9999OA149900101REMSYN088AAXX  15234 06646 33/// /1401 10011 20009 39899 40308 50001 333 55300 20000 91102 91201;
0140066460999992011011600004+47567+008233FM-12+032799999V0209999C000019999999N9999999N1+00111+00091103061ADDMA1999999098971MD1810011+9999OA149900511REMSYN088AAXX  16004 06646 33/// /0000 10011 20009 39897 40306 58001 333 55300 20000 91110 91205;
0140066460999992011011601004+47567+008233FM-12+032799999V0209999C000019999999N9999999N1+00121+00111103051ADDMA1999999098961MD1710051+9999OA149900051REMSYN088AAXX  16014 06646 33/// /0000 10012 20011 39896 40305 57005 333 55300 20000 91101 91201;
0140066460999992011011602004+47567+008233FM-12+032799999V0209999C000019999999N9999999N1+00171+00161103021ADDMA1999999098941MD1719999+9999OA149900101REMSYN088AAXX  16024 06646 33/// /0000 10017 20016 39894 40302 57/// 333 55300 20000 91102 91201;
0087066460999992011011603004+47567+008233FM-12+032799999V0201201N000519999999N9999999N1+00181+00171103031ADDMA1999999098951REMSYN060AAXX  16034 06646 43/// /1201 10018 20017 39895 40303 5////;
0140066460999992011011604004+47567+008233FM-12+032799999V0209999C000019999999N9999999N1+00161+00151103031ADDMA1999999098951MD1710011+9999OA149900101REMSYN088AAXX  16044 06646 33/// /0000 10016 20015 39895 40303 57001 333 55300 20000 91102 91201;
0140066460999992011011605004+47567+008233FM-12+032799999V0200201N000519999999N9999999N1+00161+00151103041ADDMA1999999098961MD1210021+9999OA149900101REMSYN088AAXX  16054 06646 33/// /0201 10016 20015 39896 40304 52002 333 55300 20000 91102 91201;
0207066460999992011011606004+47567+008233FM-12+032799999V0201101N000519999999N9999999N1+00171+00161103051ADDAL19900091GJ102469IA2999-00109KA1999N+00091MA1999999098971MD1210021+9999OA149900151REMSYN112AAXX  16064 06646 33/// /1101 10017 20016 39897 40305 52002 333 20009 3/101 55041 55300 20000 70000 91103 91202;
0140066460999992011011607004+47567+008233FM-12+032799999V0201801N001019999999N9999999N1+00151+00151103091ADDMA1999999099011MD1310061+9999OA149900151REMSYN088AAXX  16074 06646 33/// /1802 10015 20015 39901 40309 53006 333 55300 20000 91103 91202;
0140066460999992011011608004+47567+008233FM-12+032799999V0201901N000519999999N9999999N1+00121+00121103141ADDMA1999999099051MD1319999+9999OA149900211REMSYN088AAXX  16084 06646 33/// /1901 10012 20012 39905 40314 53/// 333 55300 20022 91104 91202;
0140066460999992011011609004+47567+008233FM-12+032799999V0201701N001019999999N9999999N1+00121+00121103161ADDMA1999999099071MD1210101+9999OA149900261REMSYN088AAXX  16094 06646 33/// /1702 10012 20012 39907 40316 52010 333 55300 20126 91105 91202;
0140066460999992011011610004+47567+008233FM-12+032799999V0201601N000519999999N9999999N1+00191+00191103161ADDMA1999999099081MD1210071+9999OA149900261REMSYN088AAXX  16104 06646 33/// /1601 10019 20019 39908 40316 52007 333 55300 20263 91105 91202;
0140066460999992011011611004+47567+008233FM-12+032799999V0200401N000519999999N9999999N1+00251+00251103111ADDMA1999999099041MD1010011+9999OA149900211REMSYN088AAXX  16114 06646 33/// /0401 10025 20025 39904 40311 50001 333 55300 20320 91104 91202;
0140066460999992011011612004+47567+008233FM-12+032799999V0200601N001019999999N9999999N1+00321+00321103041ADDMA1999999098981MD1710091+9999OA149900261REMSYN088AAXX  16124 06646 33/// /0602 10032 20032 39898 40304 57009 333 55300 20400 91105 91202;
0140066460999992011011613004+47567+008233FM-12+032799999V0203101N000519999999N9999999N1+00381+00381102961ADDMA1999999098921MD1810161+9999OA149900211REMSYN088AAXX  16134 06646 33/// /3101 10038 20038 39892 40296 58016 333 55300 20518 91104 91202;
0140066460999992011011614004+47567+008233FM-12+032799999V0200401N000519999999N9999999N1+00441+00441102911ADDMA1999999098881MD1619999+9999OA149900151REMSYN088AAXX  16144 06646 33/// /0401 10044 20044 39888 40291 56/// 333 55301 20605 91103 91201;
0140066460999992011011615004+47567+008233FM-12+032799999V0200301N000519999999N9999999N1+00391+00391102901ADDMA1999999098861MD1610121+9999OA149900211REMSYN088AAXX  16154 06646 33/// /0301 10039 20039 39886 40290 56012 333 55300 20371 91104 91202;
0140066460999992011011616004+47567+008233FM-12+032799999V0209999C000019999999N9999999N1+00331+00331102901ADDMA1999999098851MD1610071+9999OA149900151REMSYN088AAXX  16164 06646 33/// /0000 10033 20033 39885 40290 56007 333 55300 20072 91103 91202;
0140066460999992011011617004+47567+008233FM-12+032799999V0201301N001019999999N9999999N1+00201+00201102941ADDMA1999999098871MD1510011+9999OA149900151REMSYN088AAXX  16174 06646 33/// /1302 10020 20020 39887 40294 55001 333 55300 20000 91103 91202;
0159066460999992011011618004+47567+008233FM-12+032799999V0200401N000519999999N9999999N1+00191+00191102951ADDKA1120M+00441MA1999999098881MD1210021+9999OA149900261REMSYN094AAXX  16184 06646 33/// /0401 10019 20019 39888 40295 52002 333 10044 55300 20000 91105 91202;
0140066460999992011011619004+47567+008233FM-12+032799999V0209999C000019999999N9999999N1+00151+00151102991ADDMA1999999098911MD1210061+9999OA149900151REMSYN088AAXX  16194 06646 33/// /0000 10015 20015 39891 40299 52006 333 55300 20000 91103 91201;
0140066460999992011011620004+47567+008233FM-12+032799999V0203601N000519999999N9999999N1+00111+00111103011ADDMA1999999098921MD1210051+9999OA149900151REMSYN088AAXX  16204 06646 33/// /3601 10011 20011 39892 40301 52005 333 55300 20000 91103 91201;
0140066460999992011011621004+47567+008233FM-12+032799999V0201201N001019999999N9999999N1+00061+00061103061ADDMA1999999098961MD1210081+9999OA149900151REMSYN088AAXX  16214 06646 33/// /1202 10006 20006 39896 40306 52008 333 55300 20000 91103 91202;
0140066460999992011011622004+47567+008233FM-12+032799999V0201801N000519999999N9999999N1+00041+00041103041ADDMA1999999098941MD1210031+9999OA149900151REMSYN088AAXX  16224 06646 33/// /1801 10004 20004 39894 40304 52003 333 55300 20000 91103 91202;
0140066460999992011011623004+47567+008233FM-12+032799999V0201401N000519999999N9999999N1+00021+00021103061ADDMA1999999098961MD1210041+9999OA149900151REMSYN088AAXX  16234 06646 33/// /1401 10002 20002 39896 40306 52004 333 55300 20000 91103 91202;
0140066460999992011011700004+47567+008233FM-12+032799999V0200101N000519999999N9999999N1+00031+00031103051ADDMA1999999098951MD1810011+9999OA149900151REMSYN088AAXX  17004 06646 33/// /0101 10003 20003 39895 40305 58001 333 55300 20000 91103 91202;
0175066460999992011011701004+47567+008233FM-12+032799999V0209999C000019999999N9999999N1+00061+00061103031ADDMA1999999098941MD1710011+9999OA149900101REMSYN088AAXX  17014 06646 33/// /0000 10006 20006 39894 40303 57000 333 55300 20000 91102 91201;EQDQ01+000072APCTENQ02+000002APC3  
0140066460999992011011702004+47567+008233FM-12+032799999V0200101N000519999999N9999999N1+00061+00061103021ADDMA1999999098931MD1719999+9999OA149900101REMSYN088AAXX  17024 06646 33/// /0101 10006 20006 39893 40302 57/// 333 55300 20000 91102 91201;
0103066460999992011011703004+47567+008233FM-12+032799999V0200401N001019999999N9999999N1+00041+00041103031ADDMA1999999098931REMSYN076AAXX  17034 06646 33/// /0402 10004 20004 39893 40303 5//// 333 553// 20000;
0140066460999992011011704004+47567+008233FM-12+032799999V0200901N000519999999N9999999N1+00041+00041103001ADDMA1999999098901MD1710041+9999OA149900151REMSYN088AAXX  17044 06646 33/// /0901 10004 20004 39890 40300 57004 333 55300 20000 91103 91202;
0140066460999992011011705004+47567+008233FM-12+032799999V0200301N001019999999N9999999N1+00011+00011102971ADDMA1999999098871MD1710061+9999OA149900151REMSYN088AAXX  17054 06646 33/// /0302 10001 20001 39887 40297 57006 333 55300 20000 91103 91202;
0207066460999992011011706004+47567+008233FM-12+032799999V0200701N000519999999N9999999N1-00011-00011102961ADDAL19900091GJ100069IA2999+00009KA1999N+00001MA1999999098861MD1710071+9999OA149900151REMSYN112AAXX  17064 06646 33/// /0701 11001 21001 39886 40296 57007 333 20000 3/000 55001 55300 20000 70000 91103 91202;
0140066460999992011011707004+47567+008233FM-12+032799999V0201001N001019999999N9999999N1-00021-00021102951ADDMA1999999098851MD1710051+9999OA149900151REMSYN088AAXX  17074 06646 33/// /1002 11002 21002 39885 40295 57005 333 55300 20000 91103 91202;
0087066460999992011011708004+47567+008233FM-12+032799999V0201001N001519999999N9999999N1-00021-00021102951ADDMA1999999098851REMSYN060AAXX  17084 06646 43/// /1003 11002 21002 39885 40295 5////;
0087066460999992011011709004+47567+008233FM-12+032799999V0201201N000519999999N9999999N1-00021-00021102941ADDMA1999999098841REMSYN060AAXX  17094 06646 43/// /1201 11002 21002 39884 40294 5////;
0140066460999992011011710004+47567+008233FM-12+032799999V0201801N000519999999N9999999N1+00011+00011102951ADDMA1999999098851MD1410001+9999OA149900211REMSYN088AAXX  17104 06646 33/// /1801 10001 20001 39885 40295 54000 333 55300 20230 91104 91203;
0140066460999992011011711004+47567+008233FM-12+032799999V0201701N001019999999N9999999N1+00091+00091102931ADDMA1999999098841MD1710011+9999OA149900261REMSYN088AAXX  17114 06646 33/// /1702 10009 20009 39884 40293 57001 333 55300 20364 91105 91202;
0140066460999992011011712004+47567+008233FM-12+032799999V0203201N000519999999N9999999N1+00231+00231102871ADDMA1999999098811MD1810031+9999OA149900261REMSYN088AAXX  17124 06646 33/// /3201 10023 20023 39881 40287 58003 333 55300 20612 91105 91203;
0140066460999992011011713004+47567+008233FM-12+032799999V0200401N001019999999N9999999N1+00291+00291102821ADDMA1999999098771MD1710081+9999OA149900311REMSYN088AAXX  17134 06646 33/// /0402 10029 20029 39877 40282 57008 333 55308 2//// 91106 91203;
0087066460999992011011714004+47567+008233FM-12+032799999V0200501N001019999999N9999999N1+00261+00261102841ADDMA1999999098781REMSYN060AAXX  17144 06646 43/// /0502 10026 20026 39878 40284 5////;
0087066460999992011011715004+47567+008233FM-12+032799999V0200401N000519999999N9999999N1+00231+00231102871ADDMA1999999098811REMSYN060AAXX  17154 06646 43/// /0401 10023 20023 39881 40287 5////;
0140066460999992011011716004+47567+008233FM-12+032799999V0200501N000519999999N9999999N1+00181+00181102911ADDMA1999999098841MD1210071+9999OA149900211REMSYN088AAXX  17164 06646 33/// /0501 10018 20018 39884 40291 52007 333 55300 20061 91104 91202;
0140066460999992011011717004+47567+008233FM-12+032799999V0209999C000019999999N9999999N1+00141+00141102951ADDMA1999999098871MD1310091+9999OA149900151REMSYN088AAXX  17174 06646 33/// /0000 10014 20014 39887 40295 53009 333 55300 20000 91103 91202;
0159066460999992011011718004+47567+008233FM-12+032799999V0209999C000019999999N9999999N1+00101+00101102981ADDKA1120M+00321MA1999999098891MD1110081+9999OA149900311REMSYN094AAXX  17184 06646 33/// /0000 10010 20010 39889 40298 51008 333 10032 55300 20000 91106 91203;
0140066460999992011011719004+47567+008233FM-12+032799999V0209999C000019999999N9999999N1+00071+00071103011ADDMA1999999098921MD1110081+9999OA149900151REMSYN088AAXX  17194 06646 33/// /0000 10007 20007 39892 40301 51008 333 55300 20000 91103 91201;
0140066460999992011011720004+47567+008233FM-12+032799999V0200201N000519999999N9999999N1+00061+00061103021ADDMA1999999098931MD1110061+9999OA149900151REMSYN088AAXX  17204 06646 33/// /0201 10006 20006 39893 40302 51006 333 55300 20000 91103 91202;
0140066460999992011011721004+47567+008233FM-12+032799999V0209999C000019999999N9999999N1+00061+00061103011ADDMA1999999098921MD1210031+9999OA149900151REMSYN088AAXX  17214 06646 33/// /0000 10006 20006 39892 40301 52003 333 55300 20000 91103 91202;
0140066460999992011011722004+47567+008233FM-12+032799999V0200101N000519999999N9999999N1+00081+00081103011ADDMA1999999098921MD1510001+9999OA149900151REMSYN088AAXX  17224 06646 33/// /0101 10008 20008 39892 40301 55000 333 55300 20000 91103 91201;
0140066460999992011011723004+47567+008233FM-12+032799999V0200101N000519999999N9999999N1+00091+00091103031ADDMA1999999098941MD1210011+9999OA149900151REMSYN088AAXX  17234 06646 33/// /0101 10009 20009 39894 40303 52001 333 55300 20000 91103 91201;
0140066460999992011011800004+47567+008233FM-12+032799999V0209999C000019999999N9999999N1+00071+00071103021ADDMA1999999098931MD1510011+9999OA149900311REMSYN088AAXX  18004 06646 33/// /0000 10007 20007 39893 40302 55001 333 55300 20000 91106 91203;
0140066460999992011011801004+47567+008233FM-12+032799999V0209999C000019999999N9999999N1+00031+00031103041ADDMA1999999098941MD1219999+9999OA149900101REMSYN088AAXX  18014 06646 33/// /0000 10003 20003 39894 40304 52/// 333 55300 20000 91102 91201;
0087066460999992011011802004+47567+008233FM-12+032799999V0209999C000019999999N9999999N1+00061+00061103041ADDMA1999999098951REMSYN060AAXX  18024 06646 43/// /0000 10006 20006 39895 40304 5////;
0087066460999992011011803004+47567+008233FM-12+032799999V0203301N000519999999N9999999N1+00101+00101103001ADDMA1999999098911REMSYN060AAXX  18034 06646 43/// /3301 10010 20010 39891 40300 5////;
0103066460999992011011804004+47567+008233FM-12+032799999V0209999C000019999999N9999999N1+00111+00111102961ADDMA1999999098881REMSYN076AAXX  18044 06646 33/// /0000 10011 20011 39888 40296 5//// 333 553// 20000;
0140066460999992011011805004+47567+008233FM-12+032799999V0209999C000019999999N9999999N1+00151+00151102941ADDMA1999999098861MD1710091+9999OA149900151REMSYN088AAXX  18054 06646 33/// /0000 10015 20015 39886 40294 57009 333 55300 20000 91103 91201;
0207066460999992011011806004+47567+008233FM-12+032799999V0201701N001019999999N9999999N1+00151+00151102931ADDAL19900091GJ100669IA2999+00009KA1999N+00031MA1999999098851MD1710061+9999OA149900211REMSYN112AAXX  18064 06646 33/// /1702 10015 20015 39885 40293 57006 333 20003 3/000 55011 55300 20000 70000 91104 91202;
0140066460999992011011807004+47567+008233FM-12+032799999V0201401N001019999999N9999999N1+00151+00151102931ADDMA1999999098851MD1710031+9999OA149900311REMSYN088AAXX  18074 06646 33/// /1402 10015 20015 39885 40293 57003 333 55300 20000 91106 91202;
0087066460999992011011808004+47567+008233FM-12+032799999V0201701N001519999999N9999999N1+00161+00161102961ADDMA1999999098881REMSYN060AAXX  18084 06646 43/// /1703 10016 20016 39888 40296 5////;
0087066460999992011011809004+47567+008233FM-12+032799999V0201601N002119999999N9999999N1+00221+00221102941ADDMA1999999098871REMSYN060AAXX  18094 06646 43/// /1604 10022 20022 39887 40294 5////;
0140066460999992011011810004+47567+008233FM-12+032799999V0202001N001019999999N9999999N1+00321+00321102921ADDMA1999999098871MD1010021+9999OA149900411REMSYN088AAXX  18104 06646 33/// /2002 10032 20032 39887 40292 50002 333 55300 20331 91108 91204;
0140066460999992011011811004+47567+008233FM-12+032799999V0209999C000019999999N9999999N1+00361+00361102851ADDMA1999999098811MD1710071+9999OA149900361REMSYN088AAXX  18114 06646 33/// /0000 10036 20036 39881 40285 57007 333 55300 20310 91107 91203;
0140066460999992011011812004+47567+008233FM-12+032799999V0201301N000519999999N9999999N1+00431+00431102781ADDMA1999999098751MD1719999+9999OA149900461REMSYN088AAXX  18124 06646 33/// /1301 10043 20043 39875 40278 57/// 333 55300 20331 91109 91204;
0103066460999992011011813004+47567+008233FM-12+032799999V0201901N000519999999N9999999N1+00541+00541102701ADDMA1999999098691REMSYN076AAXX  18134 06646 33/// /1901 10054 20054 39869 40270 5//// 333 553// 20544;
0087066460999992011011814004+47567+008233FM-12+032799999V0201801N001019999999N9999999N1+00591+00591102651ADDMA1999999098651REMSYN060AAXX  18144 06646 43/// /1802 10059 20059 39865 40265 5////;
0087066460999992011011815004+47567+008233FM-12+032799999V0201901N000519999999N9999999N1+00611+00271102671ADDMA1999999098671REMSYN060AAXX  18154 06646 43/// /1901 10061 20027 39867 40267 5////;
0140066460999992011011816004+47567+008233FM-12+032799999V0209999C000019999999N9999999N1+00541+00371102711ADDMA1999999098701MD1310011+9999OA149900311REMSYN088AAXX  18164 06646 33/// /0000 10054 20037 39870 40271 53001 333 55300 20104 91106 91203;
0140066460999992011011817004+47567+008233FM-12+032799999V0209999C000019999999N9999999N1+00401+00311102761ADDMA1999999098731MD1310081+9999OA149900151REMSYN088AAXX  18174 06646 33/// /0000 10040 20031 39873 40276 53008 333 55300 20000 91103 91201;
0159066460999992011011818004+47567+008233FM-12+032799999V0209999C000019999999N9999999N1+00381+00311102791ADDKA1120M+00611MA1999999098751MD1110081+9999OA149900461REMSYN094AAXX  18184 06646 33/// /0000 10038 20031 39875 40279 51008 333 10061 55300 20000 91109 91204;
0140066460999992011011819004+47567+008233FM-12+032799999V0209999C000019999999N9999999N1+00381+00331102791ADDMA1999999098751MD1210051+9999OA149900101REMSYN088AAXX  18194 06646 33/// /0000 10038 20033 39875 40279 52005 333 55300 20000 91102 91201;
0140066460999992011011820004+47567+008233FM-12+032799999V0209999C000019999999N9999999N1+00321+00281102801ADDMA1999999098751MD1210021+9999OA149900151REMSYN088AAXX  18204 06646 33/// /0000 10032 20028 39875 40280 52002 333 55300 20000 91103 91201;
0140066460999992011011821004+47567+008233FM-12+032799999V0209999C000019999999N9999999N1+00281+00261102811ADDMA1999999098761MD1210011+9999OA149900151REMSYN088AAXX  18214 06646 33/// /0000 10028 20026 39876 40281 52001 333 55300 20000 91103 91201;
0140066460999992011011822004+47567+008233FM-12+032799999V0209999C000019999999N9999999N1+00311+00261102831ADDMA1999999098781MD1210031+9999OA149900151REMSYN088AAXX  18224 06646 33/// /0000 10031 20026 39878 40283 52003 333 55300 20000 91103 91201;
0140066460999992011011823004+47567+008233FM-12+032799999V0209999C000019999999N9999999N1+00201+00171102861ADDMA1999999098791MD1210041+9999OA149900151REMSYN088AAXX  18234 06646 33/// /0000 10020 20017 39879 40286 52004 333 55300 20000 91103 91201;
