0128066410999992011020100004+47583+007883FM-12+034099999V0201101N002119999999N9999999N1-00341+99999102741ADDMA1999999098371MD1210021+9999OA149900571REMSYN076AAXX  01004 06641 33/// /1104 11034 2//// 39837 40274 52002 333 91111 91208;
0128066410999992011020101004+47583+007883FM-12+034099999V0201001N002119999999N9999999N1-00351+99999102741ADDMA1999999098371MD1210031+9999OA149900461REMSYN076AAXX  01014 06641 33/// /1004 11035 2//// 39837 40274 52003 333 91109 91206;
0128066410999992011020102004+47583+007883FM-12+034099999V0201201N001519999999N9999999N1-00371+99999102771ADDMA1999999098391MD1210041+9999OA149900361REMSYN076AAXX  01024 06641 33/// /1203 11037 2//// 39839 40277 52004 333 91107 91205;
0147066410999992011020103004+47583+007883FM-12+034099999V0201401N002119999999N9999999N1-00381+99999102751ADDMA1999999098371MD1710011+9999OA149900461REMSYN076AAXX  01034 06641 33/// /1404 11038 2//// 39837 40275 57000 333 91109 91206;EQDQ01+000002APC3  
0128066410999992011020104004+47583+007883FM-12+034099999V0200901N001019999999N9999999N1-00381+99999102741ADDMA1999999098361MD1810011+9999OA149900361REMSYN076AAXX  01044 06641 33/// /0902 11038 2//// 39836 40274 58001 333 91107 91204;
0128066410999992011020105004+47583+007883FM-12+034099999V0201701N001519999999N9999999N1-00401+99999102751ADDMA1999999098371MD1510021+9999OA149900361REMSYN076AAXX  01054 06641 33/// /1703 11040 2//// 39837 40275 55002 333 91107 91204;
0193066410999992011020106004+47583+007883FM-12+034099999V0200601N001019999999N9999999N1-00411+99999102761ADDAA124000091AL19900091KA1999N-00401MA1999999098381MD1310011+9999OA149900461REMSYN088AAXX  01064 06641 33/// /0602 11041 2//// 39838 40276 53001 333 21040 70000 91109 91206;EQDQ01  00002PRCP24
0128066410999992011020107004+47583+007883FM-12+034099999V0203301N000519999999N9999999N1-00411+99999102831ADDMA1999999098441MD1210081+9999OA149900261REMSYN076AAXX  01074 06641 33/// /3301 11041 2//// 39844 40283 52008 333 91105 91203;
0128066410999992011020108004+47583+007883FM-12+034099999V0209999C000019999999N9999999N1-00401+99999102911ADDMA1999999098521MD1210151+9999OA149900211REMSYN076AAXX  01084 06641 33/// /0000 11040 2//// 39852 40291 52015 333 91104 91203;
0128066410999992011020109004+47583+007883FM-12+034099999V0209999C000019999999N9999999N1-00371+99999102971ADDMA1999999098581MD1310201+9999OA149900361REMSYN076AAXX  01094 06641 33/// /0000 11037 2//// 39858 40297 53020 333 91107 91204;
0128066410999992011020110004+47583+007883FM-12+034099999V0203101N001519999999N9999999N1-00341+99999103001ADDMA1999999098621MD1110181+9999OA149900211REMSYN076AAXX  01104 06641 33/// /3103 11034 2//// 39862 40300 51018 333 91104 91202;
0128066410999992011020111004+47583+007883FM-12+034099999V0202801N000519999999N9999999N1-00311+99999103001ADDMA1999999098621MD1210101+9999OA149900311REMSYN076AAXX  01114 06641 33/// /2801 11031 2//// 39862 40300 52010 333 91106 91203;
0128066410999992011020112004+47583+007883FM-12+034099999V0202801N001019999999N9999999N1-00301+99999102971ADDMA1999999098601MD1010021+9999OA149900361REMSYN076AAXX  01124 06641 33/// /2802 11030 2//// 39860 40297 50002 333 91107 91205;
0128066410999992011020113004+47583+007883FM-12+034099999V0203201N001019999999N9999999N1-00281+99999102951ADDMA1999999098581MD1710041+9999OA149900311REMSYN076AAXX  01134 06641 33/// /3202 11028 2//// 39858 40295 57004 333 91106 91204;
0128066410999992011020114004+47583+007883FM-12+034099999V0203101N001519999999N9999999N1-00271+99999102921ADDMA1999999098551MD1710071+9999OA149900311REMSYN076AAXX  01144 06641 33/// /3103 11027 2//// 39855 40292 57007 333 91106 91204;
0128066410999992011020115004+47583+007883FM-12+034099999V0203001N001019999999N9999999N1-00261+99999102921ADDMA1999999098551MD1610051+9999OA149900411REMSYN076AAXX  01154 06641 33/// /3002 11026 2//// 39855 40292 56005 333 91108 91204;
0128066410999992011020116004+47583+007883FM-12+034099999V0203501N001019999999N9999999N1-00281+99999102921ADDMA1999999098551MD1710031+9999OA149900411REMSYN076AAXX  01164 06641 33/// /3502 11028 2//// 39855 40292 57003 333 91108 91203;
0128066410999992011020117004+47583+007883FM-12+034099999V0203001N001519999999N9999999N1-00301+99999103001ADDMA1999999098621MD1210071+9999OA149900311REMSYN076AAXX  01174 06641 33/// /3003 11030 2//// 39862 40300 52007 333 91106 91203;
0147066410999992011020118004+47583+007883FM-12+034099999V0202901N002119999999N9999999N1-00281+99999103071ADDKA1120M-00261MA1999999098691MD1210141+9999OA149900461REMSYN082AAXX  01184 06641 33/// /2904 11028 2//// 39869 40307 52014 333 11026 91109 91205;
0128066410999992011020119004+47583+007883FM-12+034099999V0202801N003119999999N9999999N1-00271+99999103111ADDMA1999999098731MD1210181+9999OA149900461REMSYN076AAXX  01194 06641 33/// /2806 11027 2//// 39873 40311 52018 333 91109 91205;
0128066410999992011020120004+47583+007883FM-12+034099999V0203201N001019999999N9999999N1-00261+99999103121ADDMA1999999098751MD1210131+9999OA149900461REMSYN076AAXX  01204 06641 33/// /3202 11026 2//// 39875 40312 52013 333 91109 91206;
0128066410999992011020121004+47583+007883FM-12+034099999V0203101N001519999999N9999999N1-00261+99999103161ADDMA1999999098781MD1210091+9999OA149900461REMSYN076AAXX  01214 06641 33/// /3103 11026 2//// 39878 40316 52009 333 91109 91206;
0128066410999992011020122004+47583+007883FM-12+034099999V0203101N001519999999N9999999N1-00261+99999103171ADDMA1999999098791MD1210061+9999OA149900361REMSYN076AAXX  01224 06641 33/// /3103 11026 2//// 39879 40317 52006 333 91107 91203;
0128066410999992011020123004+47583+007883FM-12+034099999V0202801N002119999999N9999999N1-00281+99999103171ADDMA1999999098791MD1210041+9999OA149900311REMSYN076AAXX  01234 06641 33/// /2804 11028 2//// 39879 40317 52004 333 91106 91204;
0087066410999992011020200004+47583+007883FM-12+034099999V0202701N003119999999N9999999N1-00301+99999103251ADDMA1999999098861REMSYN060AAXX  02004 06641 43/// /2706 11030 2//// 39886 40325 5////;
0087066410999992011020201004+47583+007883FM-12+034099999V0202701N002619999999N9999999N1-00291+99999103271ADDMA1999999098881REMSYN060AAXX  02014 06641 43/// /2705 11029 2//// 39888 40327 5////;
0128066410999992011020202004+47583+007883FM-12+034099999V0202901N001519999999N9999999N1-00301+99999103271ADDMA1999999098881MD1210091+9999OA149900571REMSYN076AAXX  02024 06641 33/// /2903 11030 2//// 39888 40327 52009 333 91111 91206;
0087066410999992011020203004+47583+007883FM-12+034099999V0202701N001519999999N9999999N1-00301+99999103291ADDMA1999999098901REMSYN060AAXX  02034 06641 43/// /2703 11030 2//// 39890 40329 5////;
0128066410999992011020204004+47583+007883FM-12+034099999V0203301N001519999999N9999999N1-00321+99999103291ADDMA1999999098901MD1210021+9999OA149900361REMSYN076AAXX  02044 06641 33/// /3303 11032 2//// 39890 40329 52002 333 91107 91204;
0128066410999992011020205004+47583+007883FM-12+034099999V0209999C001019999999N9999999N1-00341+99999103351ADDMA1999999098951MD1219999+9999OA149900361REMSYN076AAXX  02054 06641 33/// /0002 11034 2//// 39895 40335 52/// 333 91107 91204;
0193066410999992011020206004+47583+007883FM-12+034099999V0209999C001019999999N9999999N1-00361+99999103381ADDAA124999999AL19900091KA1999N-00351MA1999999098981MD1210081+9999OA149900571REMSYN088AAXX  02064 06641 33/// /0002 11036 2//// 39898 40338 52008 333 21035 70000 91111 91207;EQDQ01  99992PRCP24
0128066410999992011020207004+47583+007883FM-12+034099999V0203601N001519999999N9999999N1-00391+99999103411ADDMA1999999099001MD1210101+9999OA149900261REMSYN076AAXX  02074 06641 33/// /3603 11039 2//// 39900 40341 52010 333 91105 91203;
0128066410999992011020208004+47583+007883FM-12+034099999V0209999C001019999999N9999999N1-00371+99999103441ADDMA1999999099031MD1210081+9999OA149900261REMSYN076AAXX  02084 06641 33/// /0002 11037 2//// 39903 40344 52008 333 91105 91203;
0128066410999992011020209004+47583+007883FM-12+034099999V0203501N001519999999N9999999N1-00331+99999103461ADDMA1999999099061MD1110081+9999OA149900361REMSYN076AAXX  02094 06641 33/// /3503 11033 2//// 39906 40346 51008 333 91107 91204;
0128066410999992011020210004+47583+007883FM-12+034099999V0201201N001519999999N9999999N1-00301+99999103471ADDMA1999999099071MD1210071+9999OA149900311REMSYN076AAXX  02104 06641 33/// /1203 11030 2//// 39907 40347 52007 333 91106 91204;
0128066410999992011020211004+47583+007883FM-12+034099999V0201701N000519999999N9999999N1-00151+99999103431ADDMA1999999099061MD1010031+9999OA149900311REMSYN076AAXX  02114 06641 33/// /1701 11015 2//// 39906 40343 50003 333 91106 91204;
0128066410999992011020212004+47583+007883FM-12+034099999V0201201N003619999999N9999999N1-00171+99999103361ADDMA1999999098991MD1710071+9999OA149900511REMSYN076AAXX  02124 06641 33/// /1207 11017 2//// 39899 40336 57007 333 91110 91207;
0128066410999992011020213004+47583+007883FM-12+034099999V0201201N004119999999N9999999N1-00131+99999103311ADDMA1999999098941MD1710131+9999OA149900571REMSYN076AAXX  02134 06641 33/// /1208 11013 2//// 39894 40331 57013 333 91111 91208;
0128066410999992011020214004+47583+007883FM-12+034099999V0201201N003119999999N9999999N1-00131+99999103271ADDMA1999999098911MD1710151+9999OA149900621REMSYN076AAXX  02144 06641 33/// /1206 11013 2//// 39891 40327 57015 333 91112 91209;
0128066410999992011020215004+47583+007883FM-12+034099999V0201401N002119999999N9999999N1-00091+99999103271ADDMA1999999098921MD1710071+9999OA149900621REMSYN076AAXX  02154 06641 33/// /1404 11009 2//// 39892 40327 57007 333 91112 91209;
0163066410999992011020216004+47583+007883FM-12+034099999V0201301N001019999999N9999999N1-00111+99999103301ADDMA1999999098941MD1710011+9999OA149900621REMSYN076AAXX  02164 06641 33/// /1302 11011 2//// 39894 40330 52000 333 91112 91208;EQDQ01+000022APCTENQ02+000002APC3  
0128066410999992011020217004+47583+007883FM-12+034099999V0201001N001019999999N9999999N1-00241+99999103331ADDMA1999999098951MD1210041+9999OA149900311REMSYN076AAXX  02174 06641 33/// /1002 11024 2//// 39895 40333 52004 333 91106 91204;
0147066410999992011020218004+47583+007883FM-12+034099999V0200901N001019999999N9999999N1-00251+99999103381ADDKA1120M-00081MA1999999099001MD1210081+9999OA149900621REMSYN082AAXX  02184 06641 33/// /0902 11025 2//// 39900 40338 52008 333 11008 91112 91209;
0128066410999992011020219004+47583+007883FM-12+034099999V0201101N001019999999N9999999N1-00221+99999103351ADDMA1999999098971MD1010031+9999OA149900211REMSYN076AAXX  02194 06641 33/// /1102 11022 2//// 39897 40335 50003 333 91104 91203;
0128066410999992011020220004+47583+007883FM-12+034099999V0201001N003619999999N9999999N1-00121+99999103301ADDMA1999999098941MD1810011+9999OA149900361REMSYN076AAXX  02204 06641 33/// /1007 11012 2//// 39894 40330 58001 333 91107 91204;
0128066410999992011020221004+47583+007883FM-12+034099999V0201101N005719999999N9999999N1-00111+99999103271ADDMA1999999098911MD1710091+9999OA149900721REMSYN076AAXX  02214 06641 33/// /1111 11011 2//// 39891 40327 57009 333 91114 91210;
0128066410999992011020222004+47583+007883FM-12+034099999V0201001N005119999999N9999999N1-00121+99999103261ADDMA1999999098901MD1710071+9999OA149900821REMSYN076AAXX  02224 06641 33/// /1010 11012 2//// 39890 40326 57007 333 91116 91211;
0128066410999992011020223004+47583+007883FM-12+034099999V0200801N002619999999N9999999N1-00141+99999103291ADDMA1999999098931MD1510011+9999OA149900821REMSYN076AAXX  02234 06641 33/// /0805 11014 2//// 39893 40329 55001 333 91116 91211;
0128066410999992011020300004+47583+007883FM-12+034099999V0200701N001019999999N9999999N1-00251+99999103301ADDMA1999999098921MD1210011+9999OA149900821REMSYN076AAXX  03004 06641 33/// /0702 11025 2//// 39892 40330 52001 333 91116 91211;
0128066410999992011020301004+47583+007883FM-12+034099999V0200701N000519999999N9999999N1-00361+99999103311ADDMA1999999098911MD1210011+9999OA149900461REMSYN076AAXX  03014 06641 33/// /0701 11036 2//// 39891 40331 52001 333 91109 91206;
0128066410999992011020302004+47583+007883FM-12+034099999V0200601N000519999999N9999999N1-00491+99999103341ADDMA1999999098921MD1510011+9999OA149900211REMSYN076AAXX  03024 06641 33/// /0601 11049 2//// 39892 40334 55001 333 91104 91203;
0128066410999992011020303004+47583+007883FM-12+034099999V0209999C000019999999N9999999N1-00561+99999103341ADDMA1999999098911MD1010011+9999OA149900821REMSYN076AAXX  03034 06641 33/// /0000 11056 2//// 39891 40334 50001 333 91116 91211;
0128066410999992011020304004+47583+007883FM-12+034099999V0200101N000519999999N9999999N1-00601+99999103321ADDMA1999999098881MD1710031+9999OA149900151REMSYN076AAXX  03044 06641 33/// /0101 11060 2//// 39888 40332 57003 333 91103 91202;
0128066410999992011020305004+47583+007883FM-12+034099999V0200201N000519999999N9999999N1-00631+99999103371ADDMA1999999098921MD1510001+9999OA149900151REMSYN076AAXX  03054 06641 33/// /0201 11063 2//// 39892 40337 55000 333 91103 91202;
0193066410999992011020306004+47583+007883FM-12+034099999V0202401N000519999999N9999999N1-00611+99999103381ADDAA124000091AL19900091KA1999N-00651MA1999999098941MD1210031+9999OA149900821REMSYN088AAXX  03064 06641 33/// /2401 11061 2//// 39894 40338 52003 333 21065 70000 91116 91211;EQDQ01  00002PRCP24
0128066410999992011020307004+47583+007883FM-12+034099999V0200101N000519999999N9999999N1-00491+99999103361ADDMA1999999098941MD1010061+9999OA149900151REMSYN076AAXX  03074 06641 33/// /0101 11049 2//// 39894 40336 50006 333 91103 91202;
0128066410999992011020308004+47583+007883FM-12+034099999V0201001N001019999999N9999999N1-00401+99999103361ADDMA1999999098951MD1210031+9999OA149900151REMSYN076AAXX  03084 06641 33/// /1002 11040 2//// 39895 40336 52003 333 91103 91202;
0128066410999992011020309004+47583+007883FM-12+034099999V0201301N002119999999N9999999N1-00351+99999103381ADDMA1999999098981MD1210041+9999OA149900461REMSYN076AAXX  03094 06641 33/// /1304 11035 2//// 39898 40338 52004 333 91109 91205;
0128066410999992011020310004+47583+007883FM-12+034099999V0201201N002119999999N9999999N1-00261+99999103401ADDMA1999999099011MD1210071+9999OA149900461REMSYN076AAXX  03104 06641 33/// /1204 11026 2//// 39901 40340 52007 333 91109 91205;
0128066410999992011020311004+47583+007883FM-12+034099999V0201401N001519999999N9999999N1-00171+99999103401ADDMA1999999099031MD1210081+9999OA149900411REMSYN076AAXX  03114 06641 33/// /1403 11017 2//// 39903 40340 52008 333 91108 91206;
0128066410999992011020312004+47583+007883FM-12+034099999V0201101N001019999999N9999999N1-00091+99999103331ADDMA1999999098971MD1810011+9999OA149900461REMSYN076AAXX  03124 06641 33/// /1102 11009 2//// 39897 40333 58001 333 91109 91206;
0128066410999992011020313004+47583+007883FM-12+034099999V0201201N001019999999N9999999N1+00021+99999103271ADDMA1999999098931MD1710081+9999OA149900261REMSYN076AAXX  03134 06641 33/// /1202 10002 2//// 39893 40327 57008 333 91105 91203;
0128066410999992011020314004+47583+007883FM-12+034099999V0201501N000519999999N9999999N1+00101+99999103221ADDMA1999999098901MD1610131+9999OA149900151REMSYN076AAXX  03144 06641 33/// /1501 10010 2//// 39890 40322 56013 333 91103 91202;
0145066410999992011020315004+47583+007883FM-12+034099999V0201701N000519999999N9999999N1+00151+99999103201ADDAA101000021MA1999999098891MD1710081+9999OA149900411REMSYN082AAXX  03154 06641 23/// /1701 10015 2//// 39889 40320 57008 333 69915 91108 91206;
0128066410999992011020316004+47583+007883FM-12+034099999V0200401N000519999999N9999999N1+00121+99999103231ADDMA1999999098911MD1510021+9999OA149900151REMSYN076AAXX  03164 06641 33/// /0401 10012 2//// 39891 40323 55002 333 91103 91202;
0145066410999992011020317004+47583+007883FM-12+034099999V0200901N001019999999N9999999N1+00031+99999103251ADDAA101000021MA1999999098921MD1310021+9999OA149900151REMSYN082AAXX  03174 06641 23/// /0902 10003 2//// 39892 40325 53002 333 69915 91103 91202;
0189066410999992011020318004+47583+007883FM-12+034099999V0209999C000019999999N9999999N1+00061+99999103301ADDAA112000091KA1120M+00161MA1999999098971MD1210081+9999OA149900461REMSYN094AAXX  03184 06641 03/// /0000 10006 2//// 39897 40330 52008 69922 333 10016 60005 91109 91206;EQDQ01  00002PRCP12
0128066410999992011020319004+47583+007883FM-12+034099999V0200201N000519999999N9999999N1+00031+99999103371ADDMA1999999099031MD1210121+9999OA149900101REMSYN076AAXX  03194 06641 33/// /0201 10003 2//// 39903 40337 52012 333 91102 91202;
0128066410999992011020320004+47583+007883FM-12+034099999V0209999C000019999999N9999999N1+00051+99999103361ADDMA1999999099021MD1210101+9999OA149900151REMSYN076AAXX  03204 06641 33/// /0000 10005 2//// 39902 40336 52010 333 91103 91201;
0128066410999992011020321004+47583+007883FM-12+034099999V0200901N000519999999N9999999N1+00061+99999103321ADDMA1999999098991MD1010021+9999OA149900151REMSYN076AAXX  03214 06641 33/// /0901 10006 2//// 39899 40332 50002 333 91103 91202;
0128066410999992011020322004+47583+007883FM-12+034099999V0209999C000019999999N9999999N1+00101+99999103321ADDMA1999999098991MD1710041+9999OA149900151REMSYN076AAXX  03224 06641 33/// /0000 10010 2//// 39899 40332 57004 333 91103 91203;
0128066410999992011020323004+47583+007883FM-12+034099999V0209999C000019999999N9999999N1+00101+99999103321ADDMA1999999098991MD1510031+9999OA149900151REMSYN076AAXX  03234 06641 33/// /0000 10010 2//// 39899 40332 55003 333 91103 91203;
0147066410999992011020400004+47583+007883FM-12+034099999V0201301N000519999999N9999999N1+00081+99999103321ADDMA1999999098991MD1410001+9999OA149900151REMSYN076AAXX  04004 06641 33/// /1301 10008 2//// 39899 40332 52000 333 91103 91203;EQDQ01+000022APCTEN
0128066410999992011020401004+47583+007883FM-12+034099999V0201101N001019999999N9999999N1+00101+99999103311ADDMA1999999098981MD1710011+9999OA149900211REMSYN076AAXX  04014 06641 33/// /1102 10010 2//// 39898 40331 57001 333 91104 91204;
0128066410999992011020402004+47583+007883FM-12+034099999V0201101N001019999999N9999999N1+00111+99999103301ADDMA1999999098981MD1710011+9999OA149900211REMSYN076AAXX  04024 06641 33/// /1102 10011 2//// 39898 40330 57001 333 91104 91204;
0145066410999992011020403004+47583+007883FM-12+034099999V0201101N001019999999N9999999N1+00091+99999103251ADDAA101000021MA1999999098931MD1710061+9999OA149900211REMSYN082AAXX  04034 06641 23/// /1102 10009 2//// 39893 40325 57006 333 69915 91104 91204;
0145066410999992011020404004+47583+007883FM-12+034099999V0209999C000019999999N9999999N1+00081+99999103251ADDAA101000021MA1999999098921MD1710061+9999OA149900151REMSYN082AAXX  04044 06641 23/// /0000 10008 2//// 39892 40325 57006 333 69925 91103 91203;
0128066410999992011020405004+47583+007883FM-12+034099999V0201501N001019999999N9999999N1+00061+99999103261ADDMA1999999098931MD1510051+9999OA149900151REMSYN076AAXX  04054 06641 33/// /1502 10006 2//// 39893 40326 55005 333 91103 91203;
0197066410999992011020406004+47583+007883FM-12+034099999V0201001N001519999999N9999999N1+00011+99999103301ADDAA112000391AA224000591AL13000091KA1999N+00031MA1999999098961MD1210031+9999OA149900211REMSYN100AAXX  04064 06641 03/// /1003 10001 2//// 39896 40330 52003 69932 333 20003 60005 70005 91104 91204;
0128066410999992011020407004+47583+007883FM-12+034099999V0201401N001019999999N9999999N1+00031+99999103361ADDMA1999999099021MD1310101+9999OA149900211REMSYN076AAXX  04074 06641 33/// /1402 10003 2//// 39902 40336 53010 333 91104 91203;
0128066410999992011020408004+47583+007883FM-12+034099999V0200801N001019999999N9999999N1+00041+99999103401ADDMA1999999099061MD1210131+9999OA149900151REMSYN076AAXX  04084 06641 33/// /0802 10004 2//// 39906 40340 52013 333 91103 91203;
0128066410999992011020409004+47583+007883FM-12+034099999V0209999C000019999999N9999999N1+00141+99999103421ADDMA1999999099101MD1210141+9999OA149900211REMSYN076AAXX  04094 06641 33/// /0000 10014 2//// 39910 40342 52014 333 91104 91203;
0128066410999992011020410004+47583+007883FM-12+034099999V0201501N000519999999N9999999N1+00241+99999103391ADDMA1999999099081MD1010061+9999OA149900151REMSYN076AAXX  04104 06641 33/// /1501 10024 2//// 39908 40339 50006 333 91103 91202;
0128066410999992011020411004+47583+007883FM-12+034099999V0202701N001019999999N9999999N1+00501+99999103341ADDMA1999999099081MD1010021+9999OA149900151REMSYN076AAXX  04114 06641 33/// /2702 10050 2//// 39908 40334 50002 333 91103 91202;
0128066410999992011020412004+47583+007883FM-12+034099999V0203101N002619999999N9999999N1+00661+99999103301ADDMA1999999099061MD1710041+9999OA149900311REMSYN076AAXX  04124 06641 33/// /3105 10066 2//// 39906 40330 57004 333 91106 91204;
0128066410999992011020413004+47583+007883FM-12+034099999V0202901N005119999999N9999999N1+00751+99999103221ADDMA1999999099001MD1710081+9999OA149900771REMSYN076AAXX  04134 06641 33/// /2910 10075 2//// 39900 40322 57008 333 91115 91209;
0128066410999992011020414004+47583+007883FM-12+034099999V0202701N004619999999N9999999N1+00791+99999103191ADDMA1999999098981MD1710101+9999OA149901031REMSYN076AAXX  04144 06641 33/// /2709 10079 2//// 39898 40319 57010 333 91120 91212;
0128066410999992011020415004+47583+007883FM-12+034099999V0202701N004619999999N9999999N1+00761+99999103251ADDMA1999999099031MD1510031+9999OA149901031REMSYN076AAXX  04154 06641 33/// /2709 10076 2//// 39903 40325 55003 333 91120 91212;
0128066410999992011020416004+47583+007883FM-12+034099999V0202801N003119999999N9999999N1+00721+99999103281ADDMA1999999099051MD1210051+9999OA149901031REMSYN076AAXX  04164 06641 33/// /2806 10072 2//// 39905 40328 52005 333 91120 91212;
0128066410999992011020417004+47583+007883FM-12+034099999V0202801N003619999999N9999999N1+00701+99999103311ADDMA1999999099081MD1210101+9999OA149901031REMSYN076AAXX  04174 06641 33/// /2807 10070 2//// 39908 40331 52010 333 91120 91212;
0147066410999992011020418004+47583+007883FM-12+034099999V0202801N003119999999N9999999N1+00691+99999103321ADDKA1120M+00801MA1999999099091MD1210061+9999OA149901031REMSYN082AAXX  04184 06641 33/// /2806 10069 2//// 39909 40332 52006 333 10080 91120 91212;
0128066410999992011020419004+47583+007883FM-12+034099999V0203001N002119999999N9999999N1+00681+99999103321ADDMA1999999099081MD1010031+9999OA149900721REMSYN076AAXX  04194 06641 33/// /3004 10068 2//// 39908 40332 50003 333 91114 91208;
0128066410999992011020420004+47583+007883FM-12+034099999V0202801N002619999999N9999999N1+00681+99999103331ADDMA1999999099091MD1210011+9999OA149900821REMSYN076AAXX  04204 06641 33/// /2805 10068 2//// 39909 40333 52001 333 91116 91209;
0128066410999992011020421004+47583+007883FM-12+034099999V0202701N002619999999N9999999N1+00641+99999103281ADDMA1999999099041MD1710051+9999OA149901031REMSYN076AAXX  04214 06641 33/// /2705 10064 2//// 39904 40328 57005 333 91120 91212;
0128066410999992011020422004+47583+007883FM-12+034099999V0202801N002619999999N9999999N1+00681+99999103251ADDMA1999999099021MD1710061+9999OA149900621REMSYN076AAXX  04224 06641 33/// /2805 10068 2//// 39902 40325 57006 333 91112 91206;
0128066410999992011020423004+47583+007883FM-12+034099999V0202901N003119999999N9999999N1+00721+99999103281ADDMA1999999099051MD1510041+9999OA149900881REMSYN076AAXX  04234 06641 33/// /2906 10072 2//// 39905 40328 55004 333 91117 91208;
0128066410999992011020500004+47583+007883FM-12+034099999V0203001N002119999999N9999999N1+00681+99999103331ADDMA1999999099091MD1210051+9999OA149901031REMSYN076AAXX  05004 06641 33/// /3004 10068 2//// 39909 40333 52005 333 91120 91212;
0128066410999992011020501004+47583+007883FM-12+034099999V0202801N003119999999N9999999N1+00751+99999103291ADDMA1999999099071MD1210051+9999OA149900721REMSYN076AAXX  05014 06641 33/// /2806 10075 2//// 39907 40329 52005 333 91114 91208;
0128066410999992011020502004+47583+007883FM-12+034099999V0202901N004119999999N9999999N1+00761+99999103291ADDMA1999999099071MD1010021+9999OA149900721REMSYN076AAXX  05024 06641 33/// /2908 10076 2//// 39907 40329 50002 333 91114 91207;
0128066410999992011020503004+47583+007883FM-12+034099999V0202901N004619999999N9999999N1+00751+99999103271ADDMA1999999099051MD1710041+9999OA149900981REMSYN076AAXX  05034 06641 33/// /2909 10075 2//// 39905 40327 57004 333 91119 91210;
0128066410999992011020504004+47583+007883FM-12+034099999V0202801N005719999999N9999999N1+00741+99999103231ADDMA1999999099011MD1710061+9999OA149900981REMSYN076AAXX  05044 06641 33/// /2811 10074 2//// 39901 40323 57006 333 91119 91210;
0128066410999992011020505004+47583+007883FM-12+034099999V0202901N004619999999N9999999N1+00741+99999103261ADDMA1999999099041MD1710031+9999OA149900981REMSYN076AAXX  05054 06641 33/// /2909 10074 2//// 39904 40326 57003 333 91119 91211;
0193066410999992011020506004+47583+007883FM-12+034099999V0202901N003619999999N9999999N1+00731+99999103301ADDAA124000091AL19900091KA1999N+00611MA1999999099071MD1310021+9999OA149901031REMSYN088AAXX  05064 06641 33/// /2907 10073 2//// 39907 40330 53002 333 20061 70000 91120 91211;EQDQ01  00002PRCP24
0128066410999992011020507004+47583+007883FM-12+034099999V0202901N003119999999N9999999N1+00711+99999103351ADDMA1999999099121MD1310111+9999OA149901031REMSYN076AAXX  05074 06641 33/// /2906 10071 2//// 39912 40335 53011 333 91120 91210;
0128066410999992011020508004+47583+007883FM-12+034099999V0202701N001019999999N9999999N1+00721+99999103421ADDMA1999999099191MD1310151+9999OA149900821REMSYN076AAXX  05084 06641 33/// /2702 10072 2//// 39919 40342 53015 333 91116 91209;
0128066410999992011020509004+47583+007883FM-12+034099999V0202801N003119999999N9999999N1+00751+99999103431ADDMA1999999099201MD1110131+9999OA149901031REMSYN076AAXX  05094 06641 33/// /2806 10075 2//// 39920 40343 51013 333 91120 91211;
0128066410999992011020510004+47583+007883FM-12+034099999V0202801N004619999999N9999999N1+00831+99999103421ADDMA1999999099201MD1210081+9999OA149900821REMSYN076AAXX  05104 06641 33/// /2809 10083 2//// 39920 40342 52008 333 91116 91208;
0128066410999992011020511004+47583+007883FM-12+034099999V0202601N004119999999N9999999N1+00921+99999103341ADDMA1999999099141MD1710051+9999OA149900931REMSYN076AAXX  05114 06641 33/// /2608 10092 2//// 39914 40334 57005 333 91118 91209;
0128066410999992011020512004+47583+007883FM-12+034099999V0202901N004619999999N9999999N1+00971+99999103251ADDMA1999999099061MD1710141+9999OA149901031REMSYN076AAXX  05124 06641 33/// /2909 10097 2//// 39906 40325 57014 333 91120 91211;
0128066410999992011020513004+47583+007883FM-12+034099999V0202901N004619999999N9999999N1+01011+99999103161ADDMA1999999098981MD1710221+9999OA149900881REMSYN076AAXX  05134 06641 33/// /2909 10101 2//// 39898 40316 57022 333 91117 91210;
0128066410999992011020514004+47583+007883FM-12+034099999V0203001N004119999999N9999999N1+01051+99999103101ADDMA1999999098931MD1610211+9999OA149900771REMSYN076AAXX  05144 06641 33/// /3008 10105 2//// 39893 40310 56021 333 91115 91209;
0128066410999992011020515004+47583+007883FM-12+034099999V0203001N003619999999N9999999N1+01031+99999103101ADDMA1999999098931MD1710131+9999OA149900931REMSYN076AAXX  05154 06641 33/// /3007 10103 2//// 39893 40310 57013 333 91118 91210;
0128066410999992011020516004+47583+007883FM-12+034099999V0203101N001519999999N9999999N1+00931+99999103101ADDMA1999999098911MD1710071+9999OA149900721REMSYN076AAXX  05164 06641 33/// /3103 10093 2//// 39891 40310 57007 333 91114 91209;
0128066410999992011020517004+47583+007883FM-12+034099999V0203201N001519999999N9999999N1+00691+99999103191ADDMA1999999098961MD1310031+9999OA149900621REMSYN076AAXX  05174 06641 33/// /3203 10069 2//// 39896 40319 53003 333 91112 91208;
0147066410999992011020518004+47583+007883FM-12+034099999V0203001N000519999999N9999999N1+00501+99999103261ADDKA1120M+01051MA1999999099001MD1310071+9999OA149900931REMSYN082AAXX  05184 06641 33/// /3001 10050 2//// 39900 40326 53007 333 10105 91118 91210;
0128066410999992011020519004+47583+007883FM-12+034099999V0202301N001019999999N9999999N1+00391+99999103311ADDMA1999999099031MD1110121+9999OA149900211REMSYN076AAXX  05194 06641 33/// /2302 10039 2//// 39903 40331 51012 333 91104 91203;
0128066410999992011020520004+47583+007883FM-12+034099999V0203201N001519999999N9999999N1+00261+99999103351ADDMA1999999099051MD1210091+9999OA149900151REMSYN076AAXX  05204 06641 33/// /3203 10026 2//// 39905 40335 52009 333 91103 91202;
0128066410999992011020521004+47583+007883FM-12+034099999V0203001N001519999999N9999999N1+00231+99999103381ADDMA1999999099071MD1210071+9999OA149900621REMSYN076AAXX  05214 06641 33/// /3003 10023 2//// 39907 40338 52007 333 91112 91208;
0128066410999992011020522004+47583+007883FM-12+034099999V0202701N001019999999N9999999N1+00241+99999103401ADDMA1999999099091MD1210061+9999OA149900211REMSYN076AAXX  05224 06641 33/// /2702 10024 2//// 39909 40340 52006 333 91104 91203;
0128066410999992011020523004+47583+007883FM-12+034099999V0202601N001019999999N9999999N1+00151+99999103451ADDMA1999999099131MD1310081+9999OA149900211REMSYN076AAXX  05234 06641 33/// /2602 10015 2//// 39913 40345 53008 333 91104 91203;
0128066410999992011020600004+47583+007883FM-12+034099999V0202801N001519999999N9999999N1+00161+99999103461ADDMA1999999099141MD1210071+9999OA149900771REMSYN076AAXX  06004 06641 33/// /2803 10016 2//// 39914 40346 52007 333 91115 91209;
0128066410999992011020601004+47583+007883FM-12+034099999V0202901N001019999999N9999999N1+00111+99999103451ADDMA1999999099121MD1010031+9999OA149900261REMSYN076AAXX  06014 06641 33/// /2902 10011 2//// 39912 40345 50003 333 91105 91203;
0128066410999992011020602004+47583+007883FM-12+034099999V0202701N001519999999N9999999N1+00051+99999103431ADDMA1999999099091MD1710041+9999OA149900261REMSYN076AAXX  06024 06641 33/// /2703 10005 2//// 39909 40343 57004 333 91105 91203;
0128066410999992011020603004+47583+007883FM-12+034099999V0202901N001519999999N9999999N1+00061+99999103431ADDMA1999999099091MD1710051+9999OA149900311REMSYN076AAXX  06034 06641 33/// /2903 10006 2//// 39909 40343 57005 333 91106 91204;
0128066410999992011020604004+47583+007883FM-12+034099999V0202901N001019999999N9999999N1+00011+99999103401ADDMA1999999099061MD1710061+9999OA149900311REMSYN076AAXX  06044 06641 33/// /2902 10001 2//// 39906 40340 57006 333 91106 91204;
0128066410999992011020605004+47583+007883FM-12+034099999V0201601N001019999999N9999999N1-00041+99999103411ADDMA1999999099061MD1710031+9999OA149900261REMSYN076AAXX  06054 06641 33/// /1602 11004 2//// 39906 40341 57003 333 91105 91203;
0193066410999992011020606004+47583+007883FM-12+034099999V0209999C000019999999N9999999N1-00131+99999103441ADDAA124000091AL19900091KA1999N-00101MA1999999099071MD1510021+9999OA149900311REMSYN088AAXX  06064 06641 33/// /0000 11013 2//// 39907 40344 55002 333 21010 70000 91106 91204;EQDQ01  00002PRCP24
0128066410999992011020607004+47583+007883FM-12+034099999V0200901N000519999999N9999999N1-00141+99999103441ADDMA1999999099071MD1310011+9999OA149900151REMSYN076AAXX  06074 06641 33/// /0901 11014 2//// 39907 40344 53001 333 91103 91202;
0128066410999992011020608004+47583+007883FM-12+034099999V0201001N001519999999N9999999N1-00041+99999103431ADDMA1999999099081MD1210021+9999OA149900151REMSYN076AAXX  06084 06641 33/// /1003 11004 2//// 39908 40343 52002 333 91103 91203;
0128066410999992011020609004+47583+007883FM-12+034099999V0201201N001519999999N9999999N1+00071+99999103391ADDMA1999999099061MD1810011+9999OA149900261REMSYN076AAXX  06094 06641 33/// /1203 10007 2//// 39906 40339 58001 333 91105 91204;
0128066410999992011020610004+47583+007883FM-12+034099999V0201301N002619999999N9999999N1+00301+99999103301ADDMA1999999099011MD1810061+9999OA149900311REMSYN076AAXX  06104 06641 33/// /1305 10030 2//// 39901 40330 58006 333 91106 91205;
0128066410999992011020611004+47583+007883FM-12+034099999V0201301N002119999999N9999999N1+00621+99999103191ADDMA1999999098951MD1710131+9999OA149900361REMSYN076AAXX  06114 06641 33/// /1304 10062 2//// 39895 40319 57013 333 91107 91206;
0128066410999992011020612004+47583+007883FM-12+034099999V0201101N003619999999N9999999N1+00851+99999103051ADDMA1999999098851MD1810211+9999OA149900461REMSYN076AAXX  06124 06641 33/// /1107 10085 2//// 39885 40305 58021 333 91109 91206;
0128066410999992011020613004+47583+007883FM-12+034099999V0201201N003619999999N9999999N1+01021+99999102931ADDMA1999999098761MD1710251+9999OA149900571REMSYN076AAXX  06134 06641 33/// /1207 10102 2//// 39876 40293 57025 333 91111 91208;
0128066410999992011020614004+47583+007883FM-12+034099999V0201201N002119999999N9999999N1+01111+99999102851ADDMA1999999098701MD1610251+9999OA149900571REMSYN076AAXX  06144 06641 33/// /1204 10111 2//// 39870 40285 56025 333 91111 91208;
0128066410999992011020615004+47583+007883FM-12+034099999V0201201N001519999999N9999999N1+01081+99999102831ADDMA1999999098671MD1610181+9999OA149900571REMSYN076AAXX  06154 06641 33/// /1203 10108 2//// 39867 40283 56018 333 91111 91208;
0128066410999992011020616004+47583+007883FM-12+034099999V0201401N001519999999N9999999N1+00951+99999102841ADDMA1999999098661MD1710101+9999OA149900361REMSYN076AAXX  06164 06641 33/// /1403 10095 2//// 39866 40284 57010 333 91107 91205;
0128066410999992011020617004+47583+007883FM-12+034099999V0200901N001019999999N9999999N1+00751+99999102861ADDMA1999999098651MD1710051+9999OA149900211REMSYN076AAXX  06174 06641 33/// /0902 10075 2//// 39865 40286 57005 333 91104 91203;
0166066410999992011020618004+47583+007883FM-12+034099999V0201001N002119999999N9999999N1+00591+99999102901ADDKA1120M+01151MA1999999098671MD1310071+9999OA149900571REMSYN082AAXX  06184 06641 33/// /1004 10059 2//// 39867 40290 53000 333 10115 91111 91208;EQDQ01+000002APC3  
0128066410999992011020619004+47583+007883FM-12+034099999V0201101N001519999999N9999999N1+00421+99999102961ADDMA1999999098701MD1210041+9999OA149900261REMSYN076AAXX  06194 06641 33/// /1103 10042 2//// 39870 40296 52004 333 91105 91204;
0128066410999992011020620004+47583+007883FM-12+034099999V0201201N001519999999N9999999N1+00281+99999102981ADDMA1999999098701MD1210051+9999OA149900261REMSYN076AAXX  06204 06641 33/// /1203 10028 2//// 39870 40298 52005 333 91105 91204;
0128066410999992011020621004+47583+007883FM-12+034099999V0201001N001519999999N9999999N1+00101+99999103011ADDMA1999999098701MD1210031+9999OA149900261REMSYN076AAXX  06214 06641 33/// /1003 10010 2//// 39870 40301 52003 333 91105 91204;
0128066410999992011020622004+47583+007883FM-12+034099999V0201001N001519999999N9999999N1+00081+99999103001ADDMA1999999098681MD1710021+9999OA149900311REMSYN076AAXX  06224 06641 33/// /1003 10008 2//// 39868 40300 57002 333 91106 91205;
0128066410999992011020623004+47583+007883FM-12+034099999V0201101N002619999999N9999999N1+00011+99999102991ADDMA1999999098661MD1710041+9999OA149900311REMSYN076AAXX  06234 06641 33/// /1105 10001 2//// 39866 40299 57004 333 91106 91205;
0128066410999992011020700004+47583+007883FM-12+034099999V0200901N002119999999N9999999N1-00031+99999103021ADDMA1999999098691MD1510011+9999OA149900571REMSYN076AAXX  07004 06641 33/// /0904 11003 2//// 39869 40302 55001 333 91111 91208;
0147066410999992011020701004+47583+007883FM-12+034099999V0201001N004619999999N9999999N1+00051+99999103001ADDMA1999999098681MD1410001+9999OA149900511REMSYN076AAXX  07014 06641 33/// /1009 10005 2//// 39868 40300 52000 333 91110 91208;EQDQ01+000022APCTEN
0128066410999992011020702004+47583+007883FM-12+034099999V0201101N005119999999N9999999N1-00011+99999103021ADDMA1999999098691MD1210031+9999OA149900571REMSYN076AAXX  07024 06641 33/// /1110 11001 2//// 39869 40302 52003 333 91111 91209;
0128066410999992011020703004+47583+007883FM-12+034099999V0200901N004119999999N9999999N1-00011+99999102991ADDMA1999999098661MD1710031+9999OA149900671REMSYN076AAXX  07034 06641 33/// /0908 11001 2//// 39866 40299 57003 333 91113 91210;
0128066410999992011020704004+47583+007883FM-12+034099999V0200901N004619999999N9999999N1-00101+99999102961ADDMA1999999098621MD1710061+9999OA149900671REMSYN076AAXX  07044 06641 33/// /0909 11010 2//// 39862 40296 57006 333 91113 91210;
0128066410999992011020705004+47583+007883FM-12+034099999V0201001N006719999999N9999999N1-00111+99999102931ADDMA1999999098591MD1710101+9999OA149900821REMSYN076AAXX  07054 06641 33/// /1013 11011 2//// 39859 40293 57010 333 91116 91212;
0193066410999992011020706004+47583+007883FM-12+034099999V0200901N005119999999N9999999N1-00141+99999102861ADDAA124000091AL19900091KA1999N-00141MA1999999098521MD1710141+9999OA149900881REMSYN088AAXX  07064 06641 33/// /0910 11014 2//// 39852 40286 57014 333 21014 70000 91117 91213;EQDQ01  00002PRCP24
0128066410999992011020707004+47583+007883FM-12+034099999V0200901N005119999999N9999999N1-00131+99999102821ADDMA1999999098481MD1610141+9999OA149900881REMSYN076AAXX  07074 06641 33/// /0910 11013 2//// 39848 40282 56014 333 91117 91213;
0128066410999992011020708004+47583+007883FM-12+034099999V0200901N005119999999N9999999N1-00041+99999102811ADDMA1999999098481MD1710111+9999OA149900771REMSYN076AAXX  07084 06641 33/// /0910 11004 2//// 39848 40281 57011 333 91115 91211;
0128066410999992011020709004+47583+007883FM-12+034099999V0201001N005119999999N9999999N1+00121+99999102761ADDMA1999999098461MD1710061+9999OA149900881REMSYN076AAXX  07094 06641 33/// /1010 10012 2//// 39846 40276 57006 333 91117 91213;
0128066410999992011020710004+47583+007883FM-12+034099999V0201101N005119999999N9999999N1+00311+99999102711ADDMA1999999098441MD1710041+9999OA149900721REMSYN076AAXX  07104 06641 33/// /1110 10031 2//// 39844 40271 57004 333 91114 91211;
0128066410999992011020711004+47583+007883FM-12+034099999V0201101N004619999999N9999999N1+00551+99999102631ADDMA1999999098401MD1710081+9999OA149900721REMSYN076AAXX  07114 06641 33/// /1109 10055 2//// 39840 40263 57008 333 91114 91210;
0128066410999992011020712004+47583+007883FM-12+034099999V0201101N004119999999N9999999N1+00781+99999102511ADDMA1999999098321MD1710141+9999OA149900881REMSYN076AAXX  07124 06641 33/// /1108 10078 2//// 39832 40251 57014 333 91117 91213;
0128066410999992011020713004+47583+007883FM-12+034099999V0201201N003119999999N9999999N1+00981+99999102401ADDMA1999999098251MD1710191+9999OA149900621REMSYN076AAXX  07134 06641 33/// /1206 10098 2//// 39825 40240 57019 333 91112 91210;
0128066410999992011020714004+47583+007883FM-12+034099999V0201301N002119999999N9999999N1+01131+99999102321ADDMA1999999098191MD1610211+9999OA149900511REMSYN076AAXX  07144 06641 33/// /1304 10113 2//// 39819 40232 56021 333 91110 91208;
0128066410999992011020715004+47583+007883FM-12+034099999V0201401N001019999999N9999999N1+01171+99999102281ADDMA1999999098161MD1610161+9999OA149900721REMSYN076AAXX  07154 06641 33/// /1402 10117 2//// 39816 40228 56016 333 91114 91210;
0128066410999992011020716004+47583+007883FM-12+034099999V0201101N001019999999N9999999N1+01041+99999102281ADDMA1999999098141MD1610111+9999OA149900311REMSYN076AAXX  07164 06641 33/// /1102 10104 2//// 39814 40228 56011 333 91106 91205;
0128066410999992011020717004+47583+007883FM-12+034099999V0201001N001019999999N9999999N1+00931+99999102261ADDMA1999999098111MD1810081+9999OA149900211REMSYN076AAXX  07174 06641 33/// /1002 10093 2//// 39811 40226 58008 333 91104 91203;
0147066410999992011020718004+47583+007883FM-12+034099999V0201101N002119999999N9999999N1+00611+99999102351ADDKA1120M+01171MA1999999098141MD1510021+9999OA149900771REMSYN082AAXX  07184 06641 33/// /1104 10061 2//// 39814 40235 55002 333 10117 91115 91211;
0147066410999992011020719004+47583+007883FM-12+034099999V0201001N001519999999N9999999N1+00451+99999102371ADDMA1999999098141MD1210091+9999OA149900261REMSYN076AAXX  07194 06641 33/// /1003 10045 2//// 39814 40237 52000 333 91105 91204;EQDQ01+000002APC3  
0128066410999992011020720004+47583+007883FM-12+034099999V0201401N000519999999N9999999N1+00191+99999102431ADDMA1999999098161MD1219999+9999OA149900261REMSYN076AAXX  07204 06641 33/// /1401 10019 2//// 39816 40243 52/// 333 91105 91204;
0128066410999992011020721004+47583+007883FM-12+034099999V0201101N001519999999N9999999N1+00111+99999102461ADDMA1999999098171MD1210031+9999OA149900311REMSYN076AAXX  07214 06641 33/// /1103 10011 2//// 39817 40246 52003 333 91106 91204;
0128066410999992011020722004+47583+007883FM-12+034099999V0201101N002119999999N9999999N1+00031+99999102471ADDMA1999999098171MD1210031+9999OA149900311REMSYN076AAXX  07224 06641 33/// /1104 10003 2//// 39817 40247 52003 333 91106 91205;
0128066410999992011020723004+47583+007883FM-12+034099999V0201201N001519999999N9999999N1+00031+99999102481ADDMA1999999098181MD1219999+9999OA149900311REMSYN076AAXX  07234 06641 33/// /1203 10003 2//// 39818 40248 52/// 333 91106 91205;
0128066410999992011020800004+47583+007883FM-12+034099999V0201501N000519999999N9999999N1-00071+99999102541ADDMA1999999098221MD1210051+9999OA149900511REMSYN076AAXX  08004 06641 33/// /1501 11007 2//// 39822 40254 52005 333 91110 91208;
0128066410999992011020801004+47583+007883FM-12+034099999V0201001N001519999999N9999999N1-00091+99999102531ADDMA1999999098211MD1210041+9999OA149900461REMSYN076AAXX  08014 06641 33/// /1003 11009 2//// 39821 40253 52004 333 91109 91205;
0128066410999992011020802004+47583+007883FM-12+034099999V0201001N000519999999N9999999N1-00181+99999102581ADDMA1999999098241MD1210061+9999OA149900211REMSYN076AAXX  08024 06641 33/// /1001 11018 2//// 39824 40258 52006 333 91104 91204;
0128066410999992011020803004+47583+007883FM-12+034099999V0200801N000519999999N9999999N1-00171+99999102561ADDMA1999999098221MD1010001+9999OA149900461REMSYN076AAXX  08034 06641 33/// /0801 11017 2//// 39822 40256 50000 333 91109 91205;
0128066410999992011020804004+47583+007883FM-12+034099999V0200901N001519999999N9999999N1-00221+99999102561ADDMA1999999098221MD1010011+9999OA149900211REMSYN076AAXX  08044 06641 33/// /0903 11022 2//// 39822 40256 50001 333 91104 91202;
0128066410999992011020805004+47583+007883FM-12+034099999V0200901N001019999999N9999999N1-00201+99999102571ADDMA1999999098231MD1510011+9999OA149900261REMSYN076AAXX  08054 06641 33/// /0902 11020 2//// 39823 40257 55001 333 91105 91203;
0193066410999992011020806004+47583+007883FM-12+034099999V0201001N001519999999N9999999N1-00221+99999102601ADDAA124000091AL19900091KA1999N-00231MA1999999098251MD1210031+9999OA149900461REMSYN088AAXX  08064 06641 33/// /1003 11022 2//// 39825 40260 52003 333 21023 70000 91109 91205;EQDQ01  00002PRCP24
0128066410999992011020807004+47583+007883FM-12+034099999V0201001N002119999999N9999999N1-00241+99999102641ADDMA1999999098291MD1210071+9999OA149900261REMSYN076AAXX  08074 06641 33/// /1004 11024 2//// 39829 40264 52007 333 91105 91204;
0128066410999992011020808004+47583+007883FM-12+034099999V0201101N001519999999N9999999N1-00121+99999102691ADDMA1999999098361MD1210131+9999OA149900361REMSYN076AAXX  08084 06641 33/// /1103 11012 2//// 39836 40269 52013 333 91107 91204;
0128066410999992011020809004+47583+007883FM-12+034099999V0200901N001019999999N9999999N1+00021+99999102691ADDMA1999999098381MD1219999+9999OA149900361REMSYN076AAXX  08094 06641 33/// /0902 10002 2//// 39838 40269 52/// 333 91107 91204;
0128066410999992011020810004+47583+007883FM-12+034099999V0201401N001019999999N9999999N1+00311+99999102631ADDMA1999999098371MD1010081+9999OA149900311REMSYN076AAXX  08104 06641 33/// /1402 10031 2//// 39837 40263 50008 333 91106 91204;
0128066410999992011020811004+47583+007883FM-12+034099999V0202501N001019999999N9999999N1+00791+99999102561ADDMA1999999098371MD1010011+9999OA149900261REMSYN076AAXX  08114 06641 33/// /2502 10079 2//// 39837 40256 50001 333 91105 91203;
0128066410999992011020812004+47583+007883FM-12+034099999V0201901N001019999999N9999999N1+00921+99999102461ADDMA1999999098301MD1710081+9999OA149900361REMSYN076AAXX  08124 06641 33/// /1902 10092 2//// 39830 40246 57008 333 91107 91204;
0128066410999992011020813004+47583+007883FM-12+034099999V0202601N001019999999N9999999N1+01081+99999102371ADDMA1999999098231MD1710141+9999OA149900311REMSYN076AAXX  08134 06641 33/// /2602 10108 2//// 39823 40237 57014 333 91106 91203;
0128066410999992011020814004+47583+007883FM-12+034099999V0202701N001019999999N9999999N1+01161+99999102311ADDMA1999999098191MD1610181+9999OA149900311REMSYN076AAXX  08144 06641 33/// /2702 10116 2//// 39819 40231 56018 333 91106 91203;
0128066410999992011020815004+47583+007883FM-12+034099999V0202601N001519999999N9999999N1+01161+99999102301ADDMA1999999098181MD1610121+9999OA149900311REMSYN076AAXX  08154 06641 33/// /2603 10116 2//// 39818 40230 56012 333 91106 91203;
0128066410999992011020816004+47583+007883FM-12+034099999V0203001N001519999999N9999999N1+01091+99999102281ADDMA1999999098151MD1710081+9999OA149900261REMSYN076AAXX  08164 06641 33/// /3003 10109 2//// 39815 40228 57008 333 91105 91204;
0128066410999992011020817004+47583+007883FM-12+034099999V0202401N001519999999N9999999N1+00711+99999102361ADDMA1999999098171MD1510021+9999OA149900311REMSYN076AAXX  08174 06641 33/// /2403 10071 2//// 39817 40236 55002 333 91106 91204;
0147066410999992011020818004+47583+007883FM-12+034099999V0203201N001019999999N9999999N1+00561+99999102441ADDKA1120M+01181MA1999999098221MD1310041+9999OA149900361REMSYN082AAXX  08184 06641 33/// /3202 10056 2//// 39822 40244 53004 333 10118 91107 91204;
0128066410999992011020819004+47583+007883FM-12+034099999V0201101N001019999999N9999999N1+00421+99999102481ADDMA1999999098241MD1210091+9999OA149900211REMSYN076AAXX  08194 06641 33/// /1102 10042 2//// 39824 40248 52009 333 91104 91204;
0128066410999992011020820004+47583+007883FM-12+034099999V0201201N001019999999N9999999N1+00231+99999102511ADDMA1999999098241MD1119999+9999OA149900211REMSYN076AAXX  08204 06641 33/// /1202 10023 2//// 39824 40251 51/// 333 91104 91203;
0128066410999992011020821004+47583+007883FM-12+034099999V0201201N002119999999N9999999N1+00151+99999102531ADDMA1999999098251MD1110031+9999OA149900311REMSYN076AAXX  08214 06641 33/// /1204 10015 2//// 39825 40253 51003 333 91106 91204;
0128066410999992011020822004+47583+007883FM-12+034099999V0201401N000519999999N9999999N1+00101+99999102521ADDMA1999999098231MD1710011+9999OA149900311REMSYN076AAXX  08224 06641 33/// /1401 10010 2//// 39823 40252 57001 333 91106 91204;
0128066410999992011020823004+47583+007883FM-12+034099999V0201001N000519999999N9999999N1+00021+99999102551ADDMA1999999098241MD1019999+9999OA149900311REMSYN076AAXX  08234 06641 33/// /1001 10002 2//// 39824 40255 50/// 333 91106 91204;
0128066410999992011020900004+47583+007883FM-12+034099999V0200901N000519999999N9999999N1-00091+99999102551ADDMA1999999098231MD1710021+9999OA149900311REMSYN076AAXX  09004 06641 33/// /0901 11009 2//// 39823 40255 57002 333 91106 91204;
0128066410999992011020901004+47583+007883FM-12+034099999V0200801N001019999999N9999999N1-00101+99999102521ADDMA1999999098201MD1710031+9999OA149900151REMSYN076AAXX  09014 06641 33/// /0802 11010 2//// 39820 40252 57003 333 91103 91202;
0128066410999992011020902004+47583+007883FM-12+034099999V0201301N000519999999N9999999N1-00151+99999102531ADDMA1999999098201MD1710041+9999OA149900151REMSYN076AAXX  09024 06641 33/// /1301 11015 2//// 39820 40253 57004 333 91103 91202;
0128066410999992011020903004+47583+007883FM-12+034099999V0201101N001019999999N9999999N1-00181+99999102501ADDMA1999999098161MD1710071+9999OA149900311REMSYN076AAXX  09034 06641 33/// /1102 11018 2//// 39816 40250 57007 333 91106 91204;
0101066410999992011020904004+47583+007883FM-12+034099999V0200801N000519999999N9999999N1-00201+99999102501ADDMA1999999098161MD1710041+9999REMSYN060AAXX  09044 06641 43/// /0801 11020 2//// 39816 40250 57004;
0128066410999992011020905004+47583+007883FM-12+034099999V0201201N000519999999N9999999N1-00201+99999102481ADDMA1999999098141MD1710061+9999OA149900101REMSYN076AAXX  09054 06641 33/// /1201 11020 2//// 39814 40248 57006 333 91102 91202;
0193066410999992011020906004+47583+007883FM-12+034099999V0200801N000519999999N9999999N1-00221+99999102481ADDAA124000091AL19900091KA1999N-00251MA1999999098141MD1710021+9999OA149900311REMSYN088AAXX  09064 06641 33/// /0801 11022 2//// 39814 40248 57002 333 21025 70000 91106 91204;EQDQ01  00002PRCP24
0163066410999992011020907004+47583+007883FM-12+034099999V0200901N002619999999N9999999N1-00061+99999102481ADDMA1999999098161MD1710021+9999OA149900311REMSYN076AAXX  09074 06641 33/// /0905 11006 2//// 39816 40248 52000 333 91106 91204;EQDQ01+000022APCTENQ02+000002APC3  
0126066410999992011020908004+47583+007883FM-12+034099999V02099999999999999999N9999999N1+99999+99999999999ADDMD1219999+9999OA149999999REMSYN070AAXX  09084 06641 43/// ///// 1//// 2//// 3//// 52/// 333 91109 91205;EQDQ01  00462WGOSPD
0128066410999992011020909004+47583+007883FM-12+034099999V0201201N006219999999N9999999N1+00151+99999102481ADDMA1999999098201MD1210061+9999OA149900771REMSYN076AAXX  09094 06641 33/// /1212 10015 2//// 39820 40248 52006 333 91115 91211;
0128066410999992011020910004+47583+007883FM-12+034099999V0201101N006219999999N9999999N1+00191+99999102501ADDMA1999999098221MD1210061+9999OA149900821REMSYN076AAXX  09104 06641 33/// /1112 10019 2//// 39822 40250 52006 333 91116 91212;
0128066410999992011020911004+47583+007883FM-12+034099999V0201201N006719999999N9999999N1+00261+99999102461ADDMA1999999098201MD1719999+9999OA149900881REMSYN076AAXX  09114 06641 33/// /1213 10026 2//// 39820 40246 57/// 333 91117 91212;
0101066410999992011020912004+47583+007883FM-12+034099999V0201201N007219999999N9999999N1+00331+99999102401ADDMA1999999098151MD1810051+9999REMSYN060AAXX  09124 06641 33/// /1214 10033 2//// 39815 40240 58005;
0128066410999992011020913004+47583+007883FM-12+034099999V0201201N008219999999N9999999N1+00441+99999102341ADDMA1999999098111MD1810111+9999OA149901031REMSYN076AAXX  09134 06641 33/// /1216 10044 2//// 39811 40234 58011 333 91120 91216;
0128066410999992011020914004+47583+007883FM-12+034099999V0201201N007219999999N9999999N1+00491+99999102301ADDMA1999999098081MD1610121+9999OA149901131REMSYN076AAXX  09144 06641 33/// /1214 10049 2//// 39808 40230 56012 333 91122 91216;
0128066410999992011020915004+47583+007883FM-12+034099999V0201401N007219999999N9999999N1+00521+99999102311ADDMA1999999098091MD1710061+9999OA149901131REMSYN076AAXX  09154 06641 33/// /1414 10052 2//// 39809 40231 57006 333 91122 91216;
0128066410999992011020916004+47583+007883FM-12+034099999V0201401N005119999999N9999999N1+00501+99999102311ADDMA1999999098091MD1710021+9999OA149901031REMSYN076AAXX  09164 06641 33/// /1410 10050 2//// 39809 40231 57002 333 91120 91214;
0128066410999992011020917004+47583+007883FM-12+034099999V0201301N005119999999N9999999N1+00451+99999102341ADDMA1999999098111MD1210031+9999OA149900931REMSYN076AAXX  09174 06641 33/// /1310 10045 2//// 39811 40234 52003 333 91118 91214;
0147066410999992011020918004+47583+007883FM-12+034099999V0201001N003119999999N9999999N1+00311+99999102401ADDKA1120M+00521MA1999999098151MD1210061+9999OA149901131REMSYN082AAXX  09184 06641 33/// /1006 10031 2//// 39815 40240 52006 333 10052 91122 91216;
0128066410999992011020919004+47583+007883FM-12+034099999V0201001N002119999999N9999999N1+00151+99999102451ADDMA1999999098171MD1210081+9999OA149900721REMSYN076AAXX  09194 06641 33/// /1004 10015 2//// 39817 40245 52008 333 91114 91210;
0128066410999992011020920004+47583+007883FM-12+034099999V0200901N002619999999N9999999N1+00141+99999102451ADDMA1999999098171MD1210061+9999OA149900511REMSYN076AAXX  09204 06641 33/// /0905 10014 2//// 39817 40245 52006 333 91110 91208;
0128066410999992011020921004+47583+007883FM-12+034099999V0200901N003619999999N9999999N1+00101+99999102471ADDMA1999999098181MD1210031+9999OA149900931REMSYN076AAXX  09214 06641 33/// /0907 10010 2//// 39818 40247 52003 333 91118 91214;
0128066410999992011020922004+47583+007883FM-12+034099999V0200901N004619999999N9999999N1+00061+99999102491ADDMA1999999098191MD1210021+9999OA149900571REMSYN076AAXX  09224 06641 33/// /0909 10006 2//// 39819 40249 52002 333 91111 91209;
0128066410999992011020923004+47583+007883FM-12+034099999V0200901N004619999999N9999999N1+00031+99999102481ADDMA1999999098181MD1210011+9999OA149900671REMSYN076AAXX  09234 06641 33/// /0909 10003 2//// 39818 40248 52001 333 91113 91209;
0128066410999992011021000004+47583+007883FM-12+034099999V0200901N004619999999N9999999N1+00031+99999102501ADDMA1999999098201MD1210021+9999OA149901131REMSYN076AAXX  10004 06641 33/// /0909 10003 2//// 39820 40250 52002 333 91122 91216;
0128066410999992011021001004+47583+007883FM-12+034099999V0201001N004619999999N9999999N1+00011+99999102511ADDMA1999999098201MD1210011+9999OA149900771REMSYN076AAXX  10014 06641 33/// /1009 10001 2//// 39820 40251 52001 333 91115 91211;
0128066410999992011021002004+47583+007883FM-12+034099999V0201101N005119999999N9999999N1+00031+99999102511ADDMA1999999098211MD1210031+9999OA149900671REMSYN076AAXX  10024 06641 33/// /1110 10003 2//// 39821 40251 52003 333 91113 91210;
0128066410999992011021003004+47583+007883FM-12+034099999V0201001N006219999999N9999999N1-00111+99999102541ADDMA1999999098211MD1010011+9999OA149900881REMSYN076AAXX  10034 06641 33/// /1012 11011 2//// 39821 40254 50001 333 91117 91213;
0128066410999992011021004004+47583+007883FM-12+034099999V0201101N006219999999N9999999N1-00091+99999102561ADDMA1999999098241MD1210041+9999OA149900881REMSYN076AAXX  10044 06641 33/// /1112 11009 2//// 39824 40256 52004 333 91117 91213;
0128066410999992011021005004+47583+007883FM-12+034099999V0201001N005119999999N9999999N1-00091+99999102571ADDMA1999999098251MD1210041+9999OA149900881REMSYN076AAXX  10054 06641 33/// /1010 11009 2//// 39825 40257 52004 333 91117 91213;
0193066410999992011021006004+47583+007883FM-12+034099999V0201101N006719999999N9999999N1-00111+99999102591ADDAA124000091AL19900091KA1999N-00111MA1999999098261MD1210051+9999OA149900881REMSYN088AAXX  10064 06641 33/// /1113 11011 2//// 39826 40259 52005 333 21011 70000 91117 91213;EQDQ01  00002PRCP24
0128066410999992011021007004+47583+007883FM-12+034099999V0201201N005119999999N9999999N1-00091+99999102601ADDMA1999999098271MD1210031+9999OA149900881REMSYN076AAXX  10074 06641 33/// /1210 11009 2//// 39827 40260 52003 333 91117 91213;
0128066410999992011021008004+47583+007883FM-12+034099999V0201101N005719999999N9999999N1-00091+99999102641ADDMA1999999098311MD1210061+9999OA149900881REMSYN076AAXX  10084 06641 33/// /1111 11009 2//// 39831 40264 52006 333 91117 91213;
0128066410999992011021009004+47583+007883FM-12+034099999V0201101N006219999999N9999999N1-00081+99999102611ADDMA1999999098291MD1010031+9999OA149900881REMSYN076AAXX  10094 06641 33/// /1112 11008 2//// 39829 40261 50003 333 91117 91213;
0163066410999992011021010004+47583+007883FM-12+034099999V0201201N005719999999N9999999N1-00031+99999102591ADDMA1999999098271MD1710011+9999OA149900821REMSYN076AAXX  10104 06641 33/// /1211 11003 2//// 39827 40259 58000 333 91116 91212;EQDQ01+000082APCTENQ02+000002APC3  
0128066410999992011021011004+47583+007883FM-12+034099999V0201201N006219999999N9999999N1+00141+99999102521ADDMA1999999098231MD1710081+9999OA149900821REMSYN076AAXX  10114 06641 33/// /1212 10014 2//// 39823 40252 57008 333 91116 91213;
0128066410999992011021012004+47583+007883FM-12+034099999V0201101N005119999999N9999999N1+00421+99999102391ADDMA1999999098151MD1710141+9999OA149900881REMSYN076AAXX  10124 06641 33/// /1110 10042 2//// 39815 40239 57014 333 91117 91213;
0128066410999992011021013004+47583+007883FM-12+034099999V0201201N003619999999N9999999N1+00681+99999102261ADDMA1999999098071MD1810201+9999OA149900771REMSYN076AAXX  10134 06641 33/// /1207 10068 2//// 39807 40226 58020 333 91115 91212;
0128066410999992011021014004+47583+007883FM-12+034099999V0201201N002619999999N9999999N1+00871+99999102181ADDMA1999999098021MD1610211+9999OA149900721REMSYN076AAXX  10144 06641 33/// /1205 10087 2//// 39802 40218 56021 333 91114 91210;
0134066410999992011021015004+47583+007883FM-12+034099999V0201201N001519999999N9999999N1+00971+99999102141ADDMA1999999098001MD1619999+9999OA149900821REMSYN082AAXX  10154 06641 33/// /1203 10097 2//// 39800 40214 56/// 91440 333 91116 91213;
0128066410999992011021016004+47583+007883FM-12+034099999V0209999C000019999999N9999999N1+00901+99999102141ADDMA1999999097991MD1710081+9999OA149900361REMSYN076AAXX  10164 06641 43/// /0000 10090 2//// 39799 40214 57008 333 91107 91205;
0128066410999992011021017004+47583+007883FM-12+034099999V0202701N000519999999N9999999N1+00841+99999102171ADDMA1999999098011MD1010011+9999OA149900151REMSYN076AAXX  10174 06641 33/// /2701 10084 2//// 39801 40217 50001 333 91103 91202;
0147066410999992011021018004+47583+007883FM-12+034099999V0209999C001019999999N9999999N1+00601+99999102211ADDKA1120M+00981MA1999999098011MD1219999+9999OA149900881REMSYN082AAXX  10184 06641 33/// /0002 10060 2//// 39801 40221 52/// 333 10098 91117 91213;
0128066410999992011021019004+47583+007883FM-12+034099999V0202301N000519999999N9999999N1+00511+99999102181ADDMA1999999097971MD1810021+9999OA149900151REMSYN076AAXX  10194 06641 33/// /2301 10051 2//// 39797 40218 58002 333 91103 91202;
0128066410999992011021020004+47583+007883FM-12+034099999V0202001N000519999999N9999999N1+00511+99999102171ADDMA1999999097961MD1719999+9999OA149900151REMSYN076AAXX  10204 06641 33/// /2001 10051 2//// 39796 40217 57/// 333 91103 91202;
0128066410999992011021021004+47583+007883FM-12+034099999V0201201N001019999999N9999999N1+00451+99999102171ADDMA1999999097951MD1710061+9999OA149900151REMSYN076AAXX  10214 06641 33/// /1202 10045 2//// 39795 40217 57006 333 91103 91202;
0128066410999992011021022004+47583+007883FM-12+034099999V0200801N001019999999N9999999N1+00431+99999102151ADDMA1999999097921MD1710051+9999OA149900151REMSYN076AAXX  10224 06641 33/// /0802 10043 2//// 39792 40215 57005 333 91103 91202;
0128066410999992011021023004+47583+007883FM-12+034099999V0200901N001019999999N9999999N1+00391+99999102131ADDMA1999999097901MD1719999+9999OA149900261REMSYN076AAXX  10234 06641 33/// /0902 10039 2//// 39790 40213 57/// 333 91105 91204;
0128066410999992011021100004+47583+007883FM-12+034099999V0200901N002119999999N9999999N1+00381+99999102111ADDMA1999999097881MD1710071+9999OA149900721REMSYN076AAXX  11004 06641 33/// /0904 10038 2//// 39788 40211 57007 333 91114 91210;
0128066410999992011021101004+47583+007883FM-12+034099999V0201101N002619999999N9999999N1+00351+99999102091ADDMA1999999097851MD1610071+9999OA149900261REMSYN076AAXX  11014 06641 33/// /1105 10035 2//// 39785 40209 56007 333 91105 91204;
0128066410999992011021102004+47583+007883FM-12+034099999V0200901N003119999999N9999999N1+00411+99999102041ADDMA1999999097821MD1710081+9999OA149900571REMSYN076AAXX  11024 06641 33/// /0906 10041 2//// 39782 40204 57008 333 91111 91209;
0128066410999992011021103004+47583+007883FM-12+034099999V0200901N002619999999N9999999N1+00371+99999102011ADDMA1999999097781MD1710101+9999OA149900571REMSYN076AAXX  11034 06641 33/// /0905 10037 2//// 39778 40201 57010 333 91111 91209;
0128066410999992011021104004+47583+007883FM-12+034099999V0201001N002119999999N9999999N1+00281+99999102031ADDMA1999999097791MD1710061+9999OA149900571REMSYN076AAXX  11044 06641 33/// /1004 10028 2//// 39779 40203 57006 333 91111 91209;
0128066410999992011021105004+47583+007883FM-12+034099999V0201001N002619999999N9999999N1+00271+99999102031ADDMA1999999097781MD1710041+9999OA149900511REMSYN076AAXX  11054 06641 33/// /1005 10027 2//// 39778 40203 57004 333 91110 91208;
0193066410999992011021106004+47583+007883FM-12+034099999V0201001N001019999999N9999999N1+00301+99999102041ADDAA124000091AL19900091KA1999N+00251MA1999999097801MD1210021+9999OA149900571REMSYN088AAXX  11064 06641 33/// /1002 10030 2//// 39780 40204 52002 333 20025 70000 91111 91209;EQDQ01  00002PRCP24
0128066410999992011021107004+47583+007883FM-12+034099999V0201301N001519999999N9999999N1+00251+99999102081ADDMA1999999097831MD1210041+9999OA149900311REMSYN076AAXX  11074 06641 33/// /1303 10025 2//// 39783 40208 52004 333 91106 91205;
0128066410999992011021108004+47583+007883FM-12+034099999V0201001N002119999999N9999999N1+00321+99999102091ADDMA1999999097851MD1210071+9999OA149900211REMSYN076AAXX  11084 06641 33/// /1004 10032 2//// 39785 40209 52007 333 91104 91203;
0128066410999992011021109004+47583+007883FM-12+034099999V0201001N003119999999N9999999N1+00451+99999102061ADDMA1999999097841MD1219999+9999OA149900511REMSYN076AAXX  11094 06641 33/// /1006 10045 2//// 39784 40206 52/// 333 91110 91208;
0128066410999992011021110004+47583+007883FM-12+034099999V0201001N002119999999N9999999N1+00681+99999102021ADDMA1999999097841MD1010011+9999OA149900411REMSYN076AAXX  11104 06641 33/// /1004 10068 2//// 39784 40202 50001 333 91108 91206;
0128066410999992011021111004+47583+007883FM-12+034099999V0201401N000519999999N9999999N1+00961+99999101951ADDMA1999999097811MD1710041+9999OA149900411REMSYN076AAXX  11114 06641 33/// /1401 10096 2//// 39781 40195 57004 333 91108 91206;
0128066410999992011021112004+47583+007883FM-12+034099999V0202501N001519999999N9999999N1+01211+99999101851ADDMA1999999097751MD1819999+9999OA149900571REMSYN076AAXX  11124 06641 33/// /2503 10121 2//// 39775 40185 58/// 333 91111 91209;
0128066410999992011021113004+47583+007883FM-12+034099999V0202701N004619999999N9999999N1+01381+99999101771ADDMA1999999097701MD1610141+9999OA149900571REMSYN076AAXX  11134 06641 33/// /2709 10138 2//// 39770 40177 56014 333 91111 91206;
0128066410999992011021114004+47583+007883FM-12+034099999V0202901N004619999999N9999999N1+01421+99999101731ADDMA1999999097671MD1610141+9999OA149900771REMSYN076AAXX  11144 06641 33/// /2909 10142 2//// 39767 40173 56014 333 91115 91209;
0128066410999992011021115004+47583+007883FM-12+034099999V0202601N004619999999N9999999N1+01411+99999101731ADDMA1999999097671MD1710081+9999OA149900771REMSYN076AAXX  11154 06641 33/// /2609 10141 2//// 39767 40173 57008 333 91115 91209;
0128066410999992011021116004+47583+007883FM-12+034099999V0202801N003119999999N9999999N1+01331+99999101731ADDMA1999999097661MD1710041+9999OA149900821REMSYN076AAXX  11164 06641 33/// /2806 10133 2//// 39766 40173 57004 333 91116 91210;
0128066410999992011021117004+47583+007883FM-12+034099999V0203201N001519999999N9999999N1+01071+99999101801ADDMA1999999097681MD1310011+9999OA149900821REMSYN076AAXX  11174 06641 33/// /3203 10107 2//// 39768 40180 53001 333 91116 91210;
0147066410999992011021118004+47583+007883FM-12+034099999V0209999C000019999999N9999999N1+00911+99999101851ADDKA1120M+01421MA1999999097711MD1210041+9999OA149900821REMSYN082AAXX  11184 06641 33/// /0000 10091 2//// 39771 40185 52004 333 10142 91116 91210;
0128066410999992011021119004+47583+007883FM-12+034099999V0209999C000019999999N9999999N1+00761+99999101871ADDMA1999999097711MD1310051+9999OA149900261REMSYN076AAXX  11194 06641 33/// /0000 10076 2//// 39771 40187 53005 333 91105 91204;
0128066410999992011021120004+47583+007883FM-12+034099999V0201401N000519999999N9999999N1+00591+99999101901ADDMA1999999097711MD1210031+9999OA149900101REMSYN076AAXX  11204 06641 33/// /1401 10059 2//// 39771 40190 52003 333 91102 91202;
0128066410999992011021121004+47583+007883FM-12+034099999V0201201N001519999999N9999999N1+00401+99999101931ADDMA1999999097711MD1510001+9999OA149900821REMSYN076AAXX  11214 06641 33/// /1203 10040 2//// 39771 40193 55000 333 91116 91210;
0128066410999992011021122004+47583+007883FM-12+034099999V0201101N001519999999N9999999N1+00421+99999101951ADDMA1999999097731MD1210021+9999OA149900211REMSYN076AAXX  11224 06641 33/// /1103 10042 2//// 39773 40195 52002 333 91104 91203;
0128066410999992011021123004+47583+007883FM-12+034099999V0201001N001019999999N9999999N1+00251+99999101981ADDMA1999999097731MD1210021+9999OA149900211REMSYN076AAXX  11234 06641 33/// /1002 10025 2//// 39773 40198 52002 333 91104 91203;
0128066410999992011021200004+47583+007883FM-12+034099999V0201101N001519999999N9999999N1+00271+99999101971ADDMA1999999097731MD1210021+9999OA149900821REMSYN076AAXX  12004 06641 33/// /1103 10027 2//// 39773 40197 52002 333 91116 91210;
0128066410999992011021201004+47583+007883FM-12+034099999V0201001N000519999999N9999999N1+00091+99999102001ADDMA1999999097731MD1410001+9999OA149900211REMSYN076AAXX  12014 06641 33/// /1001 10009 2//// 39773 40200 54000 333 91104 91203;
0128066410999992011021202004+47583+007883FM-12+034099999V0200901N000519999999N9999999N1+00081+99999102021ADDMA1999999097751MD1310021+9999OA149900211REMSYN076AAXX  12024 06641 33/// /0901 10008 2//// 39775 40202 53002 333 91104 91203;
0128066410999992011021203004+47583+007883FM-12+034099999V0200901N001019999999N9999999N1+00021+99999102011ADDMA1999999097731MD1010001+9999OA149900211REMSYN076AAXX  12034 06641 33/// /0902 10002 2//// 39773 40201 50000 333 91104 91203;
0128066410999992011021204004+47583+007883FM-12+034099999V0201101N001519999999N9999999N1-00071+99999102011ADDMA1999999097711MD1810021+9999OA149900151REMSYN076AAXX  12044 06641 33/// /1103 11007 2//// 39771 40201 58002 333 91103 91203;
0128066410999992011021205004+47583+007883FM-12+034099999V0201101N001519999999N9999999N1-00081+99999102021ADDMA1999999097721MD1710031+9999OA149900261REMSYN076AAXX  12054 06641 33/// /1103 11008 2//// 39772 40202 57003 333 91105 91204;
0193066410999992011021206004+47583+007883FM-12+034099999V0201101N002619999999N9999999N1-00081+99999101991ADDAA124000091AL19900091KA1999N-00101MA1999999097691MD1710041+9999OA149900261REMSYN088AAXX  12064 06641 33/// /1105 11008 2//// 39769 40199 57004 333 21010 70000 91105 91204;EQDQ01  00002PRCP24
0128066410999992011021207004+47583+007883FM-12+034099999V0201101N002119999999N9999999N1-00071+99999102001ADDMA1999999097701MD1510011+9999OA149900311REMSYN076AAXX  12074 06641 33/// /1104 11007 2//// 39770 40200 55001 333 91106 91205;
0128066410999992011021208004+47583+007883FM-12+034099999V0201101N003119999999N9999999N1+00031+99999101971ADDMA1999999097691MD1710031+9999OA149900311REMSYN076AAXX  12084 06641 33/// /1106 10003 2//// 39769 40197 57003 333 91106 91205;
0128066410999992011021209004+47583+007883FM-12+034099999V0201001N003619999999N9999999N1+00201+99999101951ADDMA1999999097701MD1010011+9999OA149900621REMSYN076AAXX  12094 06641 33/// /1007 10020 2//// 39770 40195 50001 333 91112 91209;
0128066410999992011021210004+47583+007883FM-12+034099999V0201001N001519999999N9999999N1+00501+99999101891ADDMA1999999097691MD1710011+9999OA149900621REMSYN076AAXX  12104 06641 33/// /1003 10050 2//// 39769 40189 57001 333 91112 91209;
0128066410999992011021211004+47583+007883FM-12+034099999V0201301N001019999999N9999999N1+00721+99999101821ADDMA1999999097651MD1710041+9999OA149900571REMSYN076AAXX  12114 06641 33/// /1302 10072 2//// 39765 40182 57004 333 91111 91208;
0128066410999992011021212004+47583+007883FM-12+034099999V0202101N000519999999N9999999N1+00991+99999101691ADDMA1999999097571MD1710131+9999OA149900621REMSYN076AAXX  12124 06641 33/// /2101 10099 2//// 39757 40169 57013 333 91112 91209;
0128066410999992011021213004+47583+007883FM-12+034099999V0202601N000519999999N9999999N1+01171+99999101591ADDMA1999999097501MD1810191+9999OA149900211REMSYN076AAXX  12134 06641 33/// /2601 10117 2//// 39750 40159 58019 333 91104 91203;
0128066410999992011021214004+47583+007883FM-12+034099999V0202201N001019999999N9999999N1+01231+99999101531ADDMA1999999097451MD1610201+9999OA149900211REMSYN076AAXX  12144 06641 33/// /2202 10123 2//// 39745 40153 56020 333 91104 91203;
0128066410999992011021215004+47583+007883FM-12+034099999V0202501N000519999999N9999999N1+01251+99999101491ADDMA1999999097411MD1610161+9999OA149900571REMSYN076AAXX  12154 06641 33/// /2501 10125 2//// 39741 40149 56016 333 91111 91208;
0128066410999992011021216004+47583+007883FM-12+034099999V0202501N000519999999N9999999N1+01201+99999101461ADDMA1999999097381MD1610121+9999OA149900211REMSYN076AAXX  12164 06641 33/// /2501 10120 2//// 39738 40146 56012 333 91104 91203;
0128066410999992011021217004+47583+007883FM-12+034099999V0202601N000519999999N9999999N1+00931+99999101521ADDMA1999999097401MD1510051+9999OA149900151REMSYN076AAXX  12174 06641 33/// /2601 10093 2//// 39740 40152 55005 333 91103 91202;
0147066410999992011021218004+47583+007883FM-12+034099999V0202601N000519999999N9999999N1+00691+99999101591ADDKA1120M+01271MA1999999097431MD1210021+9999OA149900621REMSYN082AAXX  12184 06641 33/// /2601 10069 2//// 39743 40159 52002 333 10127 91112 91209;
0128066410999992011021219004+47583+007883FM-12+034099999V0203201N001019999999N9999999N1+00691+99999101631ADDMA1999999097471MD1110091+9999OA149900151REMSYN076AAXX  12194 06641 33/// /3202 10069 2//// 39747 40163 51009 333 91103 91202;
0128066410999992011021220004+47583+007883FM-12+034099999V0202801N000519999999N9999999N1+00641+99999101661ADDMA1999999097491MD1210091+9999OA149900211REMSYN076AAXX  12204 06641 33/// /2801 10064 2//// 39749 40166 52009 333 91104 91202;
0128066410999992011021221004+47583+007883FM-12+034099999V0202901N000519999999N9999999N1+00641+99999101671ADDMA1999999097501MD1210071+9999OA149900211REMSYN076AAXX  12214 06641 33/// /2901 10064 2//// 39750 40167 52007 333 91104 91202;
0128066410999992011021222004+47583+007883FM-12+034099999V0202501N001019999999N9999999N1+00581+99999101681ADDMA1999999097501MD1210031+9999OA149900151REMSYN076AAXX  12224 06641 33/// /2502 10058 2//// 39750 40168 52003 333 91103 91202;
0128066410999992011021223004+47583+007883FM-12+034099999V0203001N001019999999N9999999N1+00521+99999101651ADDMA1999999097461MD1810031+9999OA149900261REMSYN076AAXX  12234 06641 33/// /3002 10052 2//// 39746 40165 58003 333 91105 91203;
0128066410999992011021300004+47583+007883FM-12+034099999V0202601N000519999999N9999999N1+00541+99999101631ADDMA1999999097441MD1710061+9999OA149900261REMSYN076AAXX  13004 06641 33/// /2601 10054 2//// 39744 40163 57006 333 91105 91203;
0087066410999992011021301004+47583+007883FM-12+034099999V0202801N001019999999N9999999N1+00441+99999101631ADDMA1999999097431REMSYN060AAXX  13014 06641 43/// /2802 10044 2//// 39743 40163 5////;
0087066410999992011021302004+47583+007883FM-12+034099999V0202301N001019999999N9999999N1+00501+99999101611ADDMA1999999097421REMSYN060AAXX  13024 06641 43/// /2302 10050 2//// 39742 40161 5////;
0087066410999992011021303004+47583+007883FM-12+034099999V0203101N000519999999N9999999N1+00541+99999101581ADDMA1999999097391REMSYN060AAXX  13034 06641 43/// /3101 10054 2//// 39739 40158 5////;
0087066410999992011021304004+47583+007883FM-12+034099999V0202501N001019999999N9999999N1+00521+99999101551ADDMA1999999097361REMSYN060AAXX  13044 06641 43/// /2502 10052 2//// 39736 40155 5////;
0087066410999992011021305004+47583+007883FM-12+034099999V0203201N000519999999N9999999N1+00571+99999101531ADDMA1999999097351REMSYN060AAXX  13054 06641 43/// /3201 10057 2//// 39735 40153 5////;
0087066410999992011021306004+47583+007883FM-12+034099999V0203101N000519999999N9999999N1+00561+99999101511ADDMA1999999097331REMSYN060AAXX  13064 06641 43/// /3101 10056 2//// 39733 40151 5////;
0087066410999992011021307004+47583+007883FM-12+034099999V0203301N002119999999N9999999N1+00611+99999101491ADDMA1999999097321REMSYN060AAXX  13074 06641 43/// /3304 10061 2//// 39732 40149 5////;
0087066410999992011021308004+47583+007883FM-12+034099999V0203001N001519999999N9999999N1+00631+99999101481ADDMA1999999097311REMSYN060AAXX  13084 06641 43/// /3003 10063 2//// 39731 40148 5////;
0087066410999992011021309004+47583+007883FM-12+034099999V0203201N000519999999N9999999N1+00681+99999101441ADDMA1999999097281REMSYN060AAXX  13094 06641 43/// /3201 10068 2//// 39728 40144 5////;
0087066410999992011021310004+47583+007883FM-12+034099999V0202301N000519999999N9999999N1+00731+99999101391ADDMA1999999097241REMSYN060AAXX  13104 06641 43/// /2301 10073 2//// 39724 40139 5////;
0128066410999992011021311004+47583+007883FM-12+034099999V0203301N001019999999N9999999N1+00841+99999101331ADDMA1999999097201MD1710111+9999OA149900311REMSYN076AAXX  13114 06641 33/// /3302 10084 2//// 39720 40133 57011 333 91106 91203;
0128066410999992011021312004+47583+007883FM-12+034099999V0201501N001019999999N9999999N1+00951+99999101201ADDMA1999999097091MD1710191+9999OA149900311REMSYN076AAXX  13124 06641 33/// /1502 10095 2//// 39709 40120 57019 333 91106 91204;
0128066410999992011021313004+47583+007883FM-12+034099999V0201001N001019999999N9999999N1+01011+99999101111ADDMA1999999097011MD1810231+9999OA149900311REMSYN076AAXX  13134 06641 33/// /1002 10101 2//// 39701 40111 58023 333 91106 91203;
0128066410999992011021314004+47583+007883FM-12+034099999V0201201N002119999999N9999999N1+01111+99999101021ADDMA1999999096941MD1610261+9999OA149900311REMSYN076AAXX  13144 06641 33/// /1204 10111 2//// 39694 40102 56026 333 91106 91203;
0128066410999992011021315004+47583+007883FM-12+034099999V0201001N003619999999N9999999N1+01131+99999100951ADDMA1999999096881MD1710211+9999OA149900571REMSYN076AAXX  13154 06641 33/// /1007 10113 2//// 39688 40095 57021 333 91111 91206;
0128066410999992011021316004+47583+007883FM-12+034099999V0201001N003119999999N9999999N1+01041+99999100911ADDMA1999999096831MD1610181+9999OA149900571REMSYN076AAXX  13164 06641 33/// /1006 10104 2//// 39683 40091 56018 333 91111 91208;
0128066410999992011021317004+47583+007883FM-12+034099999V0201101N002119999999N9999999N1+00781+99999100931ADDMA1999999096811MD1610131+9999OA149900511REMSYN076AAXX  13174 06641 33/// /1104 10078 2//// 39681 40093 56013 333 91110 91208;
0147066410999992011021318004+47583+007883FM-12+034099999V0201101N002619999999N9999999N1+00641+99999100961ADDKA1120M+01131MA1999999096821MD1710061+9999OA149900571REMSYN082AAXX  13184 06641 33/// /1105 10064 2//// 39682 40096 57006 333 10113 91111 91208;
0128066410999992011021319004+47583+007883FM-12+034099999V0201001N003119999999N9999999N1+00531+99999100971ADDMA1999999096811MD1710021+9999OA149900411REMSYN076AAXX  13194 06641 33/// /1006 10053 2//// 39681 40097 57002 333 91108 91206;
0128066410999992011021320004+47583+007883FM-12+034099999V0201101N004119999999N9999999N1+00481+99999100961ADDMA1999999096791MD1810021+9999OA149900571REMSYN076AAXX  13204 06641 33/// /1108 10048 2//// 39679 40096 58002 333 91111 91209;
0128066410999992011021321004+47583+007883FM-12+034099999V0201101N004619999999N9999999N1+00521+99999100951ADDMA1999999096791MD1710031+9999OA149900621REMSYN076AAXX  13214 06641 33/// /1109 10052 2//// 39679 40095 57003 333 91112 91210;
0128066410999992011021322004+47583+007883FM-12+034099999V0201101N002119999999N9999999N1+00451+99999101021ADDMA1999999096841MD1310031+9999OA149900621REMSYN076AAXX  13224 06641 33/// /1104 10045 2//// 39684 40102 53003 333 91112 91210;
0128066410999992011021323004+47583+007883FM-12+034099999V0201001N001519999999N9999999N1+00321+99999101071ADDMA1999999096871MD1310081+9999OA149900621REMSYN076AAXX  13234 06641 33/// /1003 10032 2//// 39687 40107 53008 333 91112 91210;
0128066410999992011021400004+47583+007883FM-12+034099999V0201001N001519999999N9999999N1+00231+99999101101ADDMA1999999096891MD1110101+9999OA149900621REMSYN076AAXX  14004 06641 33/// /1003 10023 2//// 39689 40110 51010 333 91112 91210;
0147066410999992011021401004+47583+007883FM-12+034099999V0201001N004619999999N9999999N1+00301+99999101051ADDMA1999999096851MD1010011+9999OA149999999REMSYN076AAXX  14014 06641 33/// /1009 10030 2//// 39685 40105 50001 333 91107 91205;EQDQ01  00362WGOSPD
0128066410999992011021402004+47583+007883FM-12+034099999V0200901N004119999999N9999999N1+00301+99999101051ADDMA1999999096851MD1710021+9999OA149900571REMSYN076AAXX  14024 06641 33/// /0908 10030 2//// 39685 40105 57002 333 91111 91209;
0128066410999992011021403004+47583+007883FM-12+034099999V0201201N006719999999N9999999N1+00341+99999100981ADDMA1999999096791MD1710101+9999OA149900881REMSYN076AAXX  14034 06641 33/// /1213 10034 2//// 39679 40098 57010 333 91117 91212;
0128066410999992011021404004+47583+007883FM-12+034099999V0201001N005119999999N9999999N1+00291+99999101001ADDMA1999999096801MD1710051+9999OA149900981REMSYN076AAXX  14044 06641 33/// /1010 10029 2//// 39680 40100 57005 333 91119 91213;
0128066410999992011021405004+47583+007883FM-12+034099999V0201201N006219999999N9999999N1+00341+99999100971ADDMA1999999096781MD1710071+9999OA149900981REMSYN076AAXX  14054 06641 33/// /1212 10034 2//// 39678 40097 57007 333 91119 91213;
0193066410999992011021406004+47583+007883FM-12+034099999V0201201N007219999999N9999999N1+00321+99999100971ADDAA124000091AL19900091KA1999N+00181MA1999999096781MD1710011+9999OA149900981REMSYN088AAXX  14064 06641 33/// /1214 10032 2//// 39678 40097 57001 333 20018 70000 91119 91213;EQDQ01  00002PRCP24
0128066410999992011021407004+47583+007883FM-12+034099999V0201101N006219999999N9999999N1+00301+99999101001ADDMA1999999096801MD1510001+9999OA149900981REMSYN076AAXX  14074 06641 33/// /1112 10030 2//// 39680 40100 55000 333 91119 91214;
0128066410999992011021408004+47583+007883FM-12+034099999V0201201N007219999999N9999999N1+00351+99999101021ADDMA1999999096831MD1310051+9999OA149900981REMSYN076AAXX  14084 06641 33/// /1214 10035 2//// 39683 40102 53005 333 91119 91214;
0128066410999992011021409004+47583+007883FM-12+034099999V0201201N006719999999N9999999N1+00431+99999101001ADDMA1999999096821MD1010041+9999OA149900981REMSYN076AAXX  14094 06641 33/// /1213 10043 2//// 39682 40100 50004 333 91119 91214;
0128066410999992011021410004+47583+007883FM-12+034099999V0201201N006719999999N9999999N1+00541+99999100971ADDMA1999999096811MD1010011+9999OA149900981REMSYN076AAXX  14104 06641 33/// /1213 10054 2//// 39681 40097 50001 333 91119 91214;
0128066410999992011021411004+47583+007883FM-12+034099999V0201201N005719999999N9999999N1+00711+99999100891ADDMA1999999096761MD1810071+9999OA149900931REMSYN076AAXX  14114 06641 33/// /1211 10071 2//// 39676 40089 58007 333 91118 91213;
0128066410999992011021412004+47583+007883FM-12+034099999V0201201N005119999999N9999999N1+00901+99999100801ADDMA1999999096701MD1810121+9999OA149900981REMSYN076AAXX  14124 06641 33/// /1210 10090 2//// 39670 40080 58012 333 91119 91214;
0128066410999992011021413004+47583+007883FM-12+034099999V0201301N005719999999N9999999N1+01121+99999100711ADDMA1999999096651MD1619999+9999OA149900821REMSYN076AAXX  14134 06641 33/// /1311 10112 2//// 39665 40071 56/// 333 91116 91212;
0128066410999992011021414004+47583+007883FM-12+034099999V0201201N005119999999N9999999N1+01281+99999100601ADDMA1999999096561MD1819999+9999OA149900771REMSYN076AAXX  14144 06641 33/// /1210 10128 2//// 39656 40060 58/// 333 91115 91211;
0128066410999992011021415004+47583+007883FM-12+034099999V0201201N004619999999N9999999N1+01241+99999100551ADDMA1999999096511MD1610191+9999OA149900931REMSYN076AAXX  14154 06641 33/// /1209 10124 2//// 39651 40055 56019 333 91118 91213;
0128066410999992011021416004+47583+007883FM-12+034099999V0201201N004119999999N9999999N1+01051+99999100551ADDMA1999999096481MD1719999+9999OA149900721REMSYN076AAXX  14164 06641 33/// /1208 10105 2//// 39648 40055 57/// 333 91114 91210;
0128066410999992011021417004+47583+007883FM-12+034099999V0201301N005719999999N9999999N1+01021+99999100541ADDMA1999999096471MD1719999+9999OA149900721REMSYN076AAXX  14174 06641 33/// /1311 10102 2//// 39647 40054 57/// 333 91114 91210;
0166066410999992011021418004+47583+007883FM-12+034099999V0201901N002119999999N9999999N1+00911+99999100601ADDKA1120M+01291MA1999999096511MD1310051+9999OA149900981REMSYN082AAXX  14184 06641 33/// /1904 10091 2//// 39651 40060 53000 333 10129 91119 91214;EQDQ01+000002APC3  
0128066410999992011021419004+47583+007883FM-12+034099999V0203301N001519999999N9999999N1+00791+99999100701ADDMA1999999096591MD1210111+9999OA149900771REMSYN076AAXX  14194 06641 33/// /3303 10079 2//// 39659 40070 52011 333 91115 91211;
0128066410999992011021420004+47583+007883FM-12+034099999V0203201N001019999999N9999999N1+00751+99999100671ADDMA1999999096551MD1010081+9999OA149900621REMSYN076AAXX  14204 06641 33/// /3202 10075 2//// 39655 40067 50008 333 91112 91207;
0128066410999992011021421004+47583+007883FM-12+034099999V0202901N000519999999N9999999N1+00631+99999100711ADDMA1999999096571MD1210061+9999OA149900771REMSYN076AAXX  14214 06641 33/// /2901 10063 2//// 39657 40071 52006 333 91115 91211;
0128066410999992011021422004+47583+007883FM-12+034099999V0202601N001519999999N9999999N1+00551+99999100701ADDMA1999999096551MD1710041+9999OA149900211REMSYN076AAXX  14224 06641 33/// /2603 10055 2//// 39655 40070 57004 333 91104 91203;
0147066410999992011021423004+47583+007883FM-12+034099999V0202601N001519999999N9999999N1+00611+99999100691ADDMA1999999096551MD1810021+9999OA149900261REMSYN076AAXX  14234 06641 33/// /2603 10061 2//// 39655 40069 58000 333 91105 91203;EQDQ01+000002APC3  
0128066410999992011021500004+47583+007883FM-12+034099999V0203001N002119999999N9999999N1+00681+99999100621ADDMA1999999096501MD1710071+9999OA149900771REMSYN076AAXX  15004 06641 33/// /3004 10068 2//// 39650 40062 57007 333 91115 91211;
0128066410999992011021501004+47583+007883FM-12+034099999V0202901N001019999999N9999999N1+00661+99999100611ADDMA1999999096481MD1710071+9999OA149900361REMSYN076AAXX  15014 06641 33/// /2902 10066 2//// 39648 40061 57007 333 91107 91205;
0128066410999992011021502004+47583+007883FM-12+034099999V0203001N001519999999N9999999N1+00621+99999100581ADDMA1999999096451MD1710101+9999OA149900361REMSYN076AAXX  15024 06641 33/// /3003 10062 2//// 39645 40058 57010 333 91107 91205;
0128066410999992011021503004+47583+007883FM-12+034099999V0203001N001019999999N9999999N1+00581+99999100521ADDMA1999999096381MD1710121+9999OA149900361REMSYN076AAXX  15034 06641 33/// /3002 10058 2//// 39638 40052 57012 333 91107 91205;
0128066410999992011021504004+47583+007883FM-12+034099999V0209999C000519999999N9999999N1+00551+99999100461ADDMA1999999096321MD1810161+9999OA149900361REMSYN076AAXX  15044 06641 33/// /0001 10055 2//// 39632 40046 58016 333 91107 91203;
0128066410999992011021505004+47583+007883FM-12+034099999V0201301N000519999999N9999999N1+00491+99999100401ADDMA1999999096261MD1810191+9999OA149900211REMSYN076AAXX  15054 06641 33/// /1301 10049 2//// 39626 40040 58019 333 91104 91203;
0193066410999992011021506004+47583+007883FM-12+034099999V0201201N002619999999N9999999N1+00491+99999100361ADDAA124000091AL19900091KA1999N+00471MA1999999096221MD1710161+9999OA149900621REMSYN088AAXX  15064 06641 33/// /1205 10049 2//// 39622 40036 57016 333 20047 70000 91112 91207;EQDQ01  00002PRCP24
0145066410999992011021507004+47583+007883FM-12+034099999V0201101N004119999999N9999999N1+00381+99999100381ADDAA101000021MA1999999096221MD1710101+9999OA149900461REMSYN082AAXX  15074 06641 23/// /1108 10038 2//// 39622 40038 57010 333 69925 91109 91207;
0145066410999992011021508004+47583+007883FM-12+034099999V0201101N005119999999N9999999N1+00371+99999100351ADDAA101000021MA1999999096191MD1710071+9999OA149900671REMSYN082AAXX  15084 06641 23/// /1110 10037 2//// 39619 40035 57007 333 69915 91113 91210;
0128066410999992011021509004+47583+007883FM-12+034099999V0201201N005119999999N9999999N1+00441+99999100311ADDMA1999999096161MD1810061+9999OA149900821REMSYN076AAXX  15094 06641 33/// /1210 10044 2//// 39616 40031 58006 333 91116 91210;
0128066410999992011021510004+47583+007883FM-12+034099999V0201201N005719999999N9999999N1+00531+99999100241ADDMA1999999096111MD1710111+9999OA149900931REMSYN076AAXX  15104 06641 33/// /1211 10053 2//// 39611 40024 57011 333 91118 91212;
0128066410999992011021511004+47583+007883FM-12+034099999V0201401N004119999999N9999999N1+00511+99999100321ADDMA1999999096181MD1510011+9999OA149900931REMSYN076AAXX  15114 06641 33/// /1408 10051 2//// 39618 40032 55001 333 91118 91212;
0151066410999992011021512004+47583+007883FM-12+034099999V0200401N001019999999N9999999N1+00491+99999100271ADDAA106001091MA1999999096131MD1510031+9999OA149900931REMSYN088AAXX  15124 06641 03/// /0402 10049 2//// 39613 40027 55003 60011 333 69975 91118 91212;
0128066410999992011021513004+47583+007883FM-12+034099999V0200101N001019999999N9999999N1+00611+99999100201ADDMA1999999096081MD1810031+9999OA149900771REMSYN076AAXX  15134 06641 33/// /0102 10061 2//// 39608 40020 58003 333 91115 91210;
0145066410999992011021514004+47583+007883FM-12+034099999V0200401N000519999999N9999999N1+00651+99999100161ADDAA101000021MA1999999096051MD1610131+9999OA149900311REMSYN082AAXX  15144 06641 23/// /0401 10065 2//// 39605 40016 56013 333 69915 91106 91204;
0145066410999992011021515004+47583+007883FM-12+034099999V0200301N000519999999N9999999N1+00611+99999100161ADDAA101000591MA1999999096041MD1710091+9999OA149900931REMSYN082AAXX  15154 06641 23/// /0301 10061 2//// 39604 40016 57009 333 69945 91118 91212;
0128066410999992011021516004+47583+007883FM-12+034099999V0201101N001519999999N9999999N1+00591+99999100161ADDMA1999999096041MD1710041+9999OA149900261REMSYN076AAXX  15164 06641 33/// /1103 10059 2//// 39604 40016 57004 333 91105 91203;
0145066410999992011021517004+47583+007883FM-12+034099999V0201301N003619999999N9999999N1+00591+99999100171ADDAA101000021MA1999999096051MD1510001+9999OA149900361REMSYN082AAXX  15174 06641 23/// /1307 10059 2//// 39605 40017 55000 333 69915 91107 91205;
0170066410999992011021518004+47583+007883FM-12+034099999V0201301N004119999999N9999999N1+00571+99999100171ADDAA112002091KA1120M+00661MA1999999096051MD1010011+9999OA149900931REMSYN094AAXX  15184 06641 03/// /1308 10057 2//// 39605 40017 50001 60022 333 10066 60005 91118 91212;
0128066410999992011021519004+47583+007883FM-12+034099999V0201201N004119999999N9999999N1+00531+99999100171ADDMA1999999096041MD1010001+9999OA149900571REMSYN076AAXX  15194 06641 33/// /1208 10053 2//// 39604 40017 50000 333 91111 91208;
0128066410999992011021520004+47583+007883FM-12+034099999V0201201N003119999999N9999999N1+00481+99999100201ADDMA1999999096061MD1210011+9999OA149900571REMSYN076AAXX  15204 06641 33/// /1206 10048 2//// 39606 40020 52001 333 91111 91208;
0128066410999992011021521004+47583+007883FM-12+034099999V0201301N002619999999N9999999N1+00461+99999100231ADDMA1999999096091MD1210041+9999OA149900571REMSYN076AAXX  15214 06641 33/// /1305 10046 2//// 39609 40023 52004 333 91111 91208;
0128066410999992011021522004+47583+007883FM-12+034099999V0201201N004619999999N9999999N1+00431+99999100231ADDMA1999999096081MD1210041+9999OA149900511REMSYN076AAXX  15224 06641 33/// /1209 10043 2//// 39608 40023 52004 333 91110 91208;
0128066410999992011021523004+47583+007883FM-12+034099999V0201301N004619999999N9999999N1+00431+99999100251ADDMA1999999096101MD1210041+9999OA149900621REMSYN076AAXX  15234 06641 33/// /1309 10043 2//// 39610 40025 52004 333 91112 91209;
0128066410999992011021600004+47583+007883FM-12+034099999V0201201N005119999999N9999999N1+00401+99999100261ADDMA1999999096111MD1210021+9999OA149900621REMSYN076AAXX  16004 06641 33/// /1210 10040 2//// 39611 40026 52002 333 91112 91210;
0128066410999992011021601004+47583+007883FM-12+034099999V0201201N005119999999N9999999N1+00371+99999100251ADDMA1999999096091MD1010011+9999OA149900671REMSYN076AAXX  16014 06641 33/// /1210 10037 2//// 39609 40025 50001 333 91113 91210;
0128066410999992011021602004+47583+007883FM-12+034099999V0201201N005119999999N9999999N1+00331+99999100231ADDMA1999999096071MD1710031+9999OA149900771REMSYN076AAXX  16024 06641 33/// /1210 10033 2//// 39607 40023 57003 333 91115 91212;
0128066410999992011021603004+47583+007883FM-12+034099999V0201201N005719999999N9999999N1+00341+99999100191ADDMA1999999096031MD1710081+9999OA149900881REMSYN076AAXX  16034 06641 33/// /1211 10034 2//// 39603 40019 57008 333 91117 91212;
0128066410999992011021604004+47583+007883FM-12+034099999V0201101N006219999999N9999999N1+00321+99999100181ADDMA1999999096021MD1710071+9999OA149900931REMSYN076AAXX  16044 06641 33/// /1112 10032 2//// 39602 40018 57007 333 91118 91214;
0128066410999992011021605004+47583+007883FM-12+034099999V0200901N003119999999N9999999N1+00181+99999100151ADDMA1999999095971MD1710101+9999OA149900931REMSYN076AAXX  16054 06641 33/// /0906 10018 2//// 39597 40015 57010 333 91118 91214;
0174066410999992011021606004+47583+007883FM-12+034099999V0201101N007719999999N9999999N1+00301+99999100091ADDAA124001591AL13600191KA1999N+00181MA1999999095931MD1810101+9999OA149900931REMSYN088AAXX  16064 06641 33/// /1115 10030 2//// 39593 40009 58010 333 20018 70016 91118 91214;
0128066410999992011021607004+47583+007883FM-12+034099999V0200901N004119999999N9999999N1+00161+99999100111ADDMA1999999095931MD1610091+9999OA149901131REMSYN076AAXX  16074 06641 33/// /0908 10016 2//// 39593 40011 56009 333 91122 91216;
0128066410999992011021608004+47583+007883FM-12+034099999V0201201N006719999999N9999999N1+00321+99999100081ADDMA1999999095921MD1610051+9999OA149901131REMSYN076AAXX  16084 06641 33/// /1213 10032 2//// 39592 40008 56005 333 91122 91216;
0128066410999992011021609004+47583+007883FM-12+034099999V0201201N008219999999N9999999N1+00361+99999100031ADDMA1999999095881MD1810051+9999OA149901181REMSYN076AAXX  16094 06641 33/// /1216 10036 2//// 39588 40003 58005 333 91123 91217;
0128066410999992011021610004+47583+007883FM-12+034099999V0201201N006719999999N9999999N1+00481+99999100001ADDMA1999999095871MD1710061+9999OA149901241REMSYN076AAXX  16104 06641 33/// /1213 10048 2//// 39587 40000 57006 333 91124 91217;
0128066410999992011021611004+47583+007883FM-12+034099999V0201301N005719999999N9999999N1+00571+99999099971ADDMA1999999095861MD1710061+9999OA149901241REMSYN076AAXX  16114 06641 33/// /1311 10057 2//// 39586 49997 57006 333 91124 91216;
0128066410999992011021612004+47583+007883FM-12+034099999V0201301N003619999999N9999999N1+00631+99999099901ADDMA1999999095801MD1710081+9999OA149901241REMSYN076AAXX  16124 06641 33/// /1307 10063 2//// 39580 49990 57008 333 91124 91217;
0128066410999992011021613004+47583+007883FM-12+034099999V0201401N002619999999N9999999N1+00661+99999099861ADDMA1999999095761MD1719999+9999OA149900821REMSYN076AAXX  16134 06641 33/// /1405 10066 2//// 39576 49986 57/// 333 91116 91211;
0128066410999992011021614004+47583+007883FM-12+034099999V0201301N002119999999N9999999N1+00681+99999099811ADDMA1999999095721MD1710141+9999OA149900571REMSYN076AAXX  16144 06641 33/// /1304 10068 2//// 39572 49981 57014 333 91111 91207;
0128066410999992011021615004+47583+007883FM-12+034099999V0201301N002619999999N9999999N1+00671+99999099781ADDMA1999999095691MD1710111+9999OA149901241REMSYN076AAXX  16154 06641 33/// /1305 10067 2//// 39569 49978 57011 333 91124 91216;
0128066410999992011021616004+47583+007883FM-12+034099999V0201301N001019999999N9999999N1+00661+99999099801ADDMA1999999095711MD1719999+9999OA149900411REMSYN076AAXX  16164 06641 33/// /1302 10066 2//// 39571 49980 57/// 333 91108 91205;
0128066410999992011021617004+47583+007883FM-12+034099999V0200501N000519999999N9999999N1+00591+99999099801ADDMA1999999095701MD1710021+9999OA149900411REMSYN076AAXX  16174 06641 33/// /0501 10059 2//// 39570 49980 57002 333 91108 91205;
0147066410999992011021618004+47583+007883FM-12+034099999V0200901N001519999999N9999999N1+00591+99999099831ADDKA1120M+00681MA1999999095721MD1210031+9999OA149901241REMSYN082AAXX  16184 06641 33/// /0903 10059 2//// 39572 49983 52003 333 10068 91124 91217;
0128066410999992011021619004+47583+007883FM-12+034099999V0200801N001519999999N9999999N1+00571+99999099821ADDMA1999999095711MD1010001+9999OA149900311REMSYN076AAXX  16194 06641 33/// /0803 10057 2//// 39571 49982 50000 333 91106 91204;
0128066410999992011021620004+47583+007883FM-12+034099999V0200901N001019999999N9999999N1+00361+99999099851ADDMA1999999095711MD1010011+9999OA149900311REMSYN076AAXX  16204 06641 33/// /0902 10036 2//// 39571 49985 50001 333 91106 91204;
0128066410999992011021621004+47583+007883FM-12+034099999V0200901N001019999999N9999999N1+00411+99999099871ADDMA1999999095741MD1210021+9999OA149900411REMSYN076AAXX  16214 06641 33/// /0902 10041 2//// 39574 49987 52002 333 91108 91205;
0128066410999992011021622004+47583+007883FM-12+034099999V0201301N002619999999N9999999N1+00381+99999099901ADDMA1999999095761MD1310051+9999OA149900261REMSYN076AAXX  16224 06641 33/// /1305 10038 2//// 39576 49990 53005 333 91105 91204;
0128066410999992011021623004+47583+007883FM-12+034099999V0201301N002119999999N9999999N1+00371+99999099881ADDMA1999999095741MD1010031+9999OA149900361REMSYN076AAXX  16234 06641 33/// /1304 10037 2//// 39574 49988 50003 333 91107 91205;
0128066410999992011021700004+47583+007883FM-12+034099999V0201101N003119999999N9999999N1+00351+99999099891ADDMA1999999095751MD1410001+9999OA149900571REMSYN076AAXX  17004 06641 33/// /1106 10035 2//// 39575 49989 54001 333 91111 91207;
0128066410999992011021701004+47583+007883FM-12+034099999V0201301N004619999999N9999999N1+00351+99999099871ADDMA1999999095731MD1710031+9999OA149900621REMSYN076AAXX  17014 06641 33/// /1309 10035 2//// 39573 49987 57003 333 91112 91208;
0128066410999992011021702004+47583+007883FM-12+034099999V0201201N005119999999N9999999N1+00341+99999099901ADDMA1999999095751MD1310011+9999OA149900671REMSYN076AAXX  17024 06641 33/// /1210 10034 2//// 39575 49990 53001 333 91113 91210;
0147066410999992011021703004+47583+007883FM-12+034099999V0201301N004119999999N9999999N1+00331+99999099901ADDMA1999999095751MD1210011+9999OA149900671REMSYN076AAXX  17034 06641 33/// /1308 10033 2//// 39575 49990 52000 333 91113 91210;EQDQ01+000002APC3  
0128066410999992011021704004+47583+007883FM-12+034099999V0201301N004119999999N9999999N1+00321+99999099911ADDMA1999999095761MD1210031+9999OA149900671REMSYN076AAXX  17044 06641 33/// /1308 10032 2//// 39576 49991 52003 333 91113 91210;
0128066410999992011021705004+47583+007883FM-12+034099999V0201301N004119999999N9999999N1+00321+99999099951ADDMA1999999095801MD1310051+9999OA149900671REMSYN076AAXX  17054 06641 33/// /1308 10032 2//// 39580 49995 53005 333 91113 91209;
0193066410999992011021706004+47583+007883FM-12+034099999V0201301N004119999999N9999999N1+00311+99999099971ADDAA124000091AL19900091KA1999N+00311MA1999999095821MD1310071+9999OA149900671REMSYN088AAXX  17064 06641 33/// /1308 10031 2//// 39582 49997 53007 333 20031 70000 91113 91210;EQDQ01  00002PRCP24
0128066410999992011021707004+47583+007883FM-12+034099999V0201301N004619999999N9999999N1+00311+99999100041ADDMA1999999095881MD1310121+9999OA149900671REMSYN076AAXX  17074 06641 33/// /1309 10031 2//// 39588 40004 53012 333 91113 91210;
0128066410999992011021708004+47583+007883FM-12+034099999V0201301N003619999999N9999999N1+00331+99999100091ADDMA1999999095931MD1310131+9999OA149900671REMSYN076AAXX  17084 06641 33/// /1307 10033 2//// 39593 40009 53013 333 91113 91210;
0128066410999992011021709004+47583+007883FM-12+034099999V0201601N002619999999N9999999N1+00381+99999100131ADDMA1999999095981MD1210161+9999OA149900671REMSYN076AAXX  17094 06641 33/// /1605 10038 2//// 39598 40013 52016 333 91113 91210;
0128066410999992011021710004+47583+007883FM-12+034099999V0201301N001519999999N9999999N1+00431+99999100151ADDMA1999999096011MD1119999+9999OA149900511REMSYN076AAXX  17104 06641 33/// /1303 10043 2//// 39601 40015 51/// 333 91110 91208;
0128066410999992011021711004+47583+007883FM-12+034099999V0201101N001019999999N9999999N1+00501+99999100191ADDMA1999999096061MD1110131+9999OA149900361REMSYN076AAXX  17114 06641 33/// /1102 10050 2//// 39606 40019 51013 333 91107 91205;
0128066410999992011021712004+47583+007883FM-12+034099999V0202701N000519999999N9999999N1+00571+99999100191ADDMA1999999096071MD1110091+9999OA149900671REMSYN076AAXX  17124 06641 33/// /2701 10057 2//// 39607 40019 51009 333 91113 91210;
0128066410999992011021713004+47583+007883FM-12+034099999V0201501N001019999999N9999999N1+00641+99999100171ADDMA1999999096061MD1219999+9999OA149900211REMSYN076AAXX  17134 06641 33/// /1502 10064 2//// 39606 40017 52/// 333 91104 91202;
0128066410999992011021714004+47583+007883FM-12+034099999V0201001N001519999999N9999999N1+00661+99999100221ADDMA1999999096111MD1210051+9999OA149900211REMSYN076AAXX  17144 06641 33/// /1003 10066 2//// 39611 40022 52005 333 91104 91203;
0128066410999992011021715004+47583+007883FM-12+034099999V0201301N002119999999N9999999N1+00651+99999100241ADDMA1999999096131MD1219999+9999OA149900361REMSYN076AAXX  17154 06641 33/// /1304 10065 2//// 39613 40024 52/// 333 91107 91205;
0128066410999992011021716004+47583+007883FM-12+034099999V0201301N001519999999N9999999N1+00651+99999100281ADDMA1999999096161MD1210101+9999OA149900311REMSYN076AAXX  17164 06641 33/// /1303 10065 2//// 39616 40028 52010 333 91106 91205;
0128066410999992011021717004+47583+007883FM-12+034099999V0201201N002619999999N9999999N1+00581+99999100361ADDMA1999999096231MD1210121+9999OA149900361REMSYN076AAXX  17174 06641 33/// /1205 10058 2//// 39623 40036 52012 333 91107 91206;
0147066410999992011021718004+47583+007883FM-12+034099999V0201301N001519999999N9999999N1+00561+99999100481ADDKA1120M+00671MA1999999096341MD1319999+9999OA149900671REMSYN082AAXX  17184 06641 33/// /1303 10056 2//// 39634 40048 53/// 333 10067 91113 91210;
0128066410999992011021719004+47583+007883FM-12+034099999V0202501N002119999999N9999999N1+00501+99999100561ADDMA1999999096411MD1210251+9999OA149900361REMSYN076AAXX  17194 06641 33/// /2504 10050 2//// 39641 40056 52025 333 91107 91206;
0128066410999992011021720004+47583+007883FM-12+034099999V0202501N001019999999N9999999N1+00481+99999100641ADDMA1999999096481MD1110251+9999OA149900311REMSYN076AAXX  17204 06641 33/// /2502 10048 2//// 39648 40064 51025 333 91106 91204;
0128066410999992011021721004+47583+007883FM-12+034099999V0202501N001519999999N9999999N1+00461+99999100711ADDMA1999999096551MD1210211+9999OA149900361REMSYN076AAXX  17214 06641 33/// /2503 10046 2//// 39655 40071 52021 333 91107 91206;
0128066410999992011021722004+47583+007883FM-12+034099999V0202501N000519999999N9999999N1+00441+99999100751ADDMA1999999096581MD1110171+9999OA149900311REMSYN076AAXX  17224 06641 33/// /2501 10044 2//// 39658 40075 51017 333 91106 91204;
0128066410999992011021723004+47583+007883FM-12+034099999V0202601N001019999999N9999999N1+00431+99999100801ADDMA1999999096631MD1110151+9999OA149900261REMSYN076AAXX  17234 06641 33/// /2602 10043 2//// 39663 40080 51015 333 91105 91203;
0128066410999992011021800004+47583+007883FM-12+034099999V0202501N001019999999N9999999N1+00411+99999100841ADDMA1999999096671MD1110121+9999OA149900361REMSYN076AAXX  18004 06641 33/// /2502 10041 2//// 39667 40084 51012 333 91107 91206;
0128066410999992011021801004+47583+007883FM-12+034099999V0202401N001019999999N9999999N1+00391+99999100881ADDMA1999999096701MD1110121+9999OA149900211REMSYN076AAXX  18014 06641 33/// /2402 10039 2//// 39670 40088 51012 333 91104 91203;
0128066410999992011021802004+47583+007883FM-12+034099999V0202501N001019999999N9999999N1+00381+99999100921ADDMA1999999096741MD1310111+9999OA149900151REMSYN076AAXX  18024 06641 33/// /2502 10038 2//// 39674 40092 53011 333 91103 91203;
0128066410999992011021803004+47583+007883FM-12+034099999V0202401N001019999999N9999999N1+00351+99999100951ADDMA1999999096761MD1110091+9999OA149900261REMSYN076AAXX  18034 06641 33/// /2402 10035 2//// 39676 40095 51009 333 91105 91203;
0128066410999992011021804004+47583+007883FM-12+034099999V0202601N001519999999N9999999N1+00351+99999101011ADDMA1999999096821MD1310121+9999OA149900211REMSYN076AAXX  18044 06641 33/// /2603 10035 2//// 39682 40101 53012 333 91104 91203;
0128066410999992011021805004+47583+007883FM-12+034099999V0202601N001019999999N9999999N1+00331+99999101091ADDMA1999999096891MD1310151+9999OA149900151REMSYN076AAXX  18054 06641 33/// /2602 10033 2//// 39689 40109 53015 333 91103 91203;
0193066410999992011021806004+47583+007883FM-12+034099999V0202601N001519999999N9999999N1+00331+99999101141ADDAA124000091AL19900091KA1999N+00331MA1999999096941MD1210181+9999OA149900311REMSYN088AAXX  18064 06641 33/// /2603 10033 2//// 39694 40114 52018 333 20033 70000 91106 91204;EQDQ01  00002PRCP24
0128066410999992011021807004+47583+007883FM-12+034099999V0202601N001019999999N9999999N1+00331+99999101191ADDMA1999999096991MD1110171+9999OA149900211REMSYN076AAXX  18074 06641 33/// /2602 10033 2//// 39699 40119 51017 333 91104 91203;
0128066410999992011021808004+47583+007883FM-12+034099999V0202501N002119999999N9999999N1+00331+99999101261ADDMA1999999097061MD1319999+9999OA149900261REMSYN076AAXX  18084 06641 33/// /2504 10033 2//// 39706 40126 53/// 333 91105 91204;
0128066410999992011021809004+47583+007883FM-12+034099999V0202501N002619999999N9999999N1+00341+99999101331ADDMA1999999097121MD1110181+9999OA149900361REMSYN076AAXX  18094 06641 33/// /2505 10034 2//// 39712 40133 51018 333 91107 91205;
0128066410999992011021810004+47583+007883FM-12+034099999V0202501N002119999999N9999999N1+00351+99999101371ADDMA1999999097161MD1110171+9999OA149900411REMSYN076AAXX  18104 06641 33/// /2504 10035 2//// 39716 40137 51017 333 91108 91205;
0128066410999992011021811004+47583+007883FM-12+034099999V0202501N001519999999N9999999N1+00371+99999101421ADDMA1999999097221MD1210151+9999OA149900411REMSYN076AAXX  18114 06641 33/// /2503 10037 2//// 39722 40142 52015 333 91108 91205;
0128066410999992011021812004+47583+007883FM-12+034099999V0202601N001519999999N9999999N1+00411+99999101441ADDMA1999999097241MD1210121+9999OA149900411REMSYN076AAXX  18124 06641 33/// /2603 10041 2//// 39724 40144 52012 333 91108 91205;
