0140066480999992011012414004+47183+008000FM-12+052299999V0201201N001519999999N9999999N1-00101+99999102521ADDMA1999999096071MD1610171+9999OA149900211REMSYN088AAXX  24144 06648 33/// /1203 11010 2//// 39607 40252 56017 333 553// 2//// 91104 91202;
0140066480999992011012415004+47183+008000FM-12+052299999V0201701N001519999999N9999999N1-00091+99999102501ADDMA1999999096051MD1610131+9999OA149900261REMSYN088AAXX  24154 06648 33/// /1703 11009 2//// 39605 40250 56013 333 553// 20727 91105 91204;
0140066480999992011012416004+47183+008000FM-12+052299999V0201101N000519999999N9999999N1-00101+99999102481ADDMA1999999096031MD1610061+9999OA149900261REMSYN088AAXX  24164 06648 33/// /1101 11010 2//// 39603 40248 56006 333 553// 20252 91105 91204;
0140066480999992011012417004+47183+008000FM-12+052299999V0200901N001019999999N9999999N1-00211+99999102511ADDMA1999999096031MD1710041+9999OA149900211REMSYN088AAXX  24174 06648 33/// /0902 11021 2//// 39603 40251 57004 333 553// 20004 91104 91203;
0159066480999992011012418004+47183+008000FM-12+052299999V0201601N001519999999N9999999N1-00351+99999102571ADDKA1120M-00081MA1999999096051MD1510001+9999OA149900261REMSYN094AAXX  24184 06648 33/// /1603 11035 2//// 39605 40257 55000 333 11008 553// 20000 91105 91204;
0140066480999992011012419004+47183+008000FM-12+052299999V0201701N001019999999N9999999N1-00401+99999102591ADDMA1999999096061MD1210031+9999OA149900311REMSYN088AAXX  24194 06648 33/// /1702 11040 2//// 39606 40259 52003 333 553// 20000 91106 91203;
0140066480999992011012420004+47183+008000FM-12+052299999V0209999C000019999999N9999999N1-00461+99999102581ADDMA1999999096041MD1010011+9999OA149900311REMSYN088AAXX  24204 06648 33/// /0000 11046 2//// 39604 40258 50001 333 553// 20000 91106 91203;
0140066480999992011012421004+47183+008000FM-12+052299999V0209999C000019999999N9999999N1-00451+99999102551ADDMA1999999096011MD1810041+9999OA149900311REMSYN088AAXX  24214 06648 33/// /0000 11045 2//// 39601 40255 58004 333 553// 20000 91106 91203;
0140066480999992011012422004+47183+008000FM-12+052299999V0201101N000519999999N9999999N1-00401+99999102481ADDMA1999999095961MD1810101+9999OA149900151REMSYN088AAXX  24224 06648 33/// /1101 11040 2//// 39596 40248 58010 333 553// 20000 91103 91202;
0140066480999992011012423004+47183+008000FM-12+052299999V0201201N000519999999N9999999N1-00391+99999102461ADDMA1999999095941MD1810101+9999OA149900151REMSYN088AAXX  24234 06648 33/// /1201 11039 2//// 39594 40246 58010 333 553// 20000 91103 91202;
0140066480999992011012500004+47183+008000FM-12+052299999V0201301N000519999999N9999999N1-00361+99999102411ADDMA1999999095901MD1610111+9999OA149900311REMSYN088AAXX  25004 06648 33/// /1301 11036 2//// 39590 40241 56011 333 553// 20000 91106 91204;
0140066480999992011012501004+47183+008000FM-12+052299999V0201301N000519999999N9999999N1-00321+99999102371ADDMA1999999095871MD1610091+9999OA149900101REMSYN088AAXX  25014 06648 33/// /1301 11032 2//// 39587 40237 56009 333 553// 20000 91102 91201;
0140066480999992011012502004+47183+008000FM-12+052299999V0201101N000519999999N9999999N1-00301+99999102331ADDMA1999999095841MD1610101+9999OA149900101REMSYN088AAXX  25024 06648 33/// /1101 11030 2//// 39584 40233 56010 333 553// 20000 91102 91201;
0140066480999992011012503004+47183+008000FM-12+052299999V0201501N000519999999N9999999N1-00271+99999102291ADDMA1999999095811MD1810091+9999OA149900151REMSYN088AAXX  25034 06648 33/// /1501 11027 2//// 39581 40229 58009 333 553// 20000 91103 91202;
0140066480999992011012504004+47183+008000FM-12+052299999V0203001N001019999999N9999999N1-00251+99999102261ADDMA1999999095791MD1710081+9999OA149900151REMSYN088AAXX  25044 06648 33/// /3002 11025 2//// 39579 40226 57008 333 553// 20000 91103 91202;
0140066480999992011012505004+47183+008000FM-12+052299999V0209999C000019999999N9999999N1-00241+99999102231ADDMA1999999095761MD1710081+9999OA149900151REMSYN088AAXX  25054 06648 33/// /0000 11024 2//// 39576 40223 57008 333 553// 20000 91103 91202;
0175066480999992011012506004+47183+008000FM-12+052299999V0202701N000519999999N9999999N1-00221+99999102221ADDAL19900091KA1999N-00531MA1999999095761MD1710051+9999OA149900311REMSYN100AAXX  25064 06648 33/// /2701 11022 2//// 39576 40222 57005 333 21053 553// 20000 70000 91106 91203;
0140066480999992011012507004+47183+008000FM-12+052299999V0202401N000519999999N9999999N1-00231+99999102201ADDMA1999999095741MD1710051+9999OA149900051REMSYN088AAXX  25074 06648 33/// /2401 11023 2//// 39574 40220 57005 333 553// 20000 91101 91201;
0140066480999992011012508004+47183+008000FM-12+052299999V0201001N000519999999N9999999N1-00231+99999102231ADDMA1999999095761MD1510001+9999OA149900051REMSYN088AAXX  25084 06648 33/// /1001 11023 2//// 39576 40223 55000 333 553// 20054 91101 91201;
0140066480999992011012509004+47183+008000FM-12+052299999V0200701N000519999999N9999999N1-00161+99999102181ADDMA1999999095731MD1710031+9999OA149900151REMSYN088AAXX  25094 06648 33/// /0701 11016 2//// 39573 40218 57003 333 553// 20241 91103 91202;
0140066480999992011012510004+47183+008000FM-12+052299999V0202701N001019999999N9999999N1-00031+99999102141ADDMA1999999095731MD1710011+9999OA149900101REMSYN088AAXX  25104 06648 33/// /2702 11003 2//// 39573 40214 57001 333 553// 20472 91102 91202;
0140066480999992011012511004+47183+008000FM-12+052299999V0202901N003119999999N9999999N1+00051+99999102041ADDMA1999999095651MD1710111+9999OA149900461REMSYN088AAXX  25114 06648 33/// /2906 10005 2//// 39565 40204 57011 333 553// 20626 91109 91205;
0103066480999992011012512004+47183+008000FM-12+052299999V0202701N004119999999N9999999N1+00131+99999101921ADDMA1999999095561REMSYN076AAXX  25124 06648 33/// /2708 10013 2//// 39556 40192 5//// 333 553// 20590;
0140066480999992011012513004+47183+008000FM-12+052299999V0202801N004119999999N9999999N1+00181+99999101811ADDMA1999999095471MD1819999+9999OA149900571REMSYN088AAXX  25134 06648 33/// /2808 10018 2//// 39547 40181 58/// 333 553// 20598 91111 91208;
0087066480999992011012514004+47183+008000FM-12+052299999V0202701N006219999999N9999999N1+00281+99999101721ADDMA1999999095401REMSYN060AAXX  25144 06648 43/// /2712 10028 2//// 39540 40172 5////;
0140066480999992011012515004+47183+008000FM-12+052299999V0202601N005119999999N9999999N1+00221+99999101711ADDMA1999999095381MD1619999+9999OA149900931REMSYN088AAXX  25154 06648 33/// /2610 10022 2//// 39538 40171 56/// 333 553// 20630 91118 91213;
0140066480999992011012516004+47183+008000FM-12+052299999V0202701N002119999999N9999999N1+00141+99999101711ADDMA1999999095361MD1610111+9999OA149900931REMSYN088AAXX  25164 06648 33/// /2704 10014 2//// 39536 40171 56011 333 553// 20144 91118 91213;
0140066480999992011012517004+47183+008000FM-12+052299999V0202501N003119999999N9999999N1+00141+99999101681ADDMA1999999095331MD1810071+9999OA149900771REMSYN088AAXX  25174 06648 33/// /2506 10014 2//// 39533 40168 58007 333 553// 20004 91115 91211;
0159066480999992011012518004+47183+008000FM-12+052299999V0202501N004119999999N9999999N1+00161+99999101631ADDKA1120M+00281MA1999999095291MD1710091+9999OA149900931REMSYN094AAXX  25184 06648 33/// /2508 10016 2//// 39529 40163 57009 333 10028 553// 20000 91118 91213;
0140066480999992011012519004+47183+008000FM-12+052299999V0202901N002619999999N9999999N1+00161+99999101641ADDMA1999999095301MD1710061+9999OA149900621REMSYN088AAXX  25194 06648 33/// /2905 10016 2//// 39530 40164 57006 333 553// 20000 91112 91208;
0140066480999992011012520004+47183+008000FM-12+052299999V0202801N002619999999N9999999N1+00041+99999101671ADDMA1999999095301MD1519999+9999OA149900671REMSYN088AAXX  25204 06648 33/// /2805 10004 2//// 39530 40167 55/// 333 553// 20000 91113 91209;
0140066480999992011012521004+47183+008000FM-12+052299999V0202701N002619999999N9999999N1+00031+99999101661ADDMA1999999095291MD1019999+9999OA149900771REMSYN088AAXX  25214 06648 33/// /2705 10003 2//// 39529 40166 50/// 333 553// 20000 91115 91211;
0140066480999992011012522004+47183+008000FM-12+052299999V0202601N004619999999N9999999N1+00071+99999101611ADDMA1999999095251MD1710051+9999OA149900671REMSYN088AAXX  25224 06648 33/// /2609 10007 2//// 39525 40161 57005 333 553// 20000 91113 91208;
0146066480999992011012523004+47183+008000FM-12+052299999V0202501N002619999999N9999999N1+00011+99999101601ADDMA1999999095231MD1710071+9999OA149900821REMSYN094AAXX  25234 06648 23/// /2505 10001 2//// 39523 40160 57007 333 553// 20000 69915 91116 91209;
0182066480999992011012600004+47183+008000FM-12+052299999V0202401N001519999999N9999999N1+00041+99999101531ADDAA106000091MA1999999095171MD1710121+9999OA149900931REMSYN100AAXX  26004 06648 03/// /2403 10004 2//// 39517 40153 57012 69911 333 553// 20000 60005 91118 91213;EQDQ01  00002PRCP06
0146066480999992011012601004+47183+008000FM-12+052299999V0202701N002619999999N9999999N1+00031+99999101471ADDMA1999999095111MD1710141+9999OA149900571REMSYN094AAXX  26014 06648 23/// /2705 10003 2//// 39511 40147 57014 333 553// 20000 69915 91111 91206;
0140066480999992011012602004+47183+008000FM-12+052299999V0202601N001519999999N9999999N1+00051+99999101421ADDMA1999999095071MD1610161+9999OA149900621REMSYN088AAXX  26024 06648 33/// /2603 10005 2//// 39507 40142 56016 333 553// 20000 91112 91205;
0140066480999992011012603004+47183+008000FM-12+052299999V0202401N001019999999N9999999N1+00061+99999101361ADDMA1999999095021MD1610151+9999OA149900821REMSYN088AAXX  26034 06648 33/// /2402 10006 2//// 39502 40136 56015 333 553// 20000 91116 91209;
0140066480999992011012604004+47183+008000FM-12+052299999V0203101N002119999999N9999999N1+00071+99999101311ADDMA1999999094971MD1810141+9999OA149900361REMSYN088AAXX  26044 06648 33/// /3104 10007 2//// 39497 40131 58014 333 553// 20000 91107 91204;
0140066480999992011012605004+47183+008000FM-12+052299999V0202901N003619999999N9999999N1+00071+99999101261ADDMA1999999094921MD1610151+9999OA149900361REMSYN088AAXX  26054 06648 33/// /2907 10007 2//// 39492 40126 56015 333 553// 20000 91107 91204;
0217066480999992011012606004+47183+008000FM-12+052299999V0202801N003119999999N9999999N1+00051+99999101231ADDAA112000091AL11200091KA1999N-00021MA1999999094891MD1610131+9999OA149900821REMSYN112AAXX  26064 06648 03/// /2806 10005 2//// 39489 40123 56013 69922 333 21002 553// 20000 60005 70002 91116 91209;EQDQ01  00002PRCP12
0140066480999992011012607004+47183+008000FM-12+052299999V0203001N002119999999N9999999N1+00011+99999101201ADDMA1999999094851MD1610121+9999OA149900721REMSYN088AAXX  26074 06648 33/// /3004 10001 2//// 39485 40120 56012 333 553// 20000 91114 91209;
0140066480999992011012608004+47183+008000FM-12+052299999V0202801N001019999999N9999999N1+00051+99999101171ADDMA1999999094841MD1710081+9999OA149900411REMSYN088AAXX  26084 06648 33/// /2802 10005 2//// 39484 40117 57008 333 553// 20068 91108 91206;
0140066480999992011012609004+47183+008000FM-12+052299999V0201401N001019999999N9999999N1+00061+99999101121ADDMA1999999094791MD1710101+9999OA149900721REMSYN088AAXX  26094 06648 33/// /1402 10006 2//// 39479 40112 57010 333 553// 20234 91114 91209;
0140066480999992011012610004+47183+008000FM-12+052299999V0202901N001519999999N9999999N1+00171+99999101101ADDMA1999999094801MD1710051+9999OA149900261REMSYN088AAXX  26104 06648 33/// /2903 10017 2//// 39480 40110 57005 333 553// 20554 91105 91203;
0140066480999992011012611004+47183+008000FM-12+052299999V0202901N003619999999N9999999N1+00231+99999101021ADDMA1999999094741MD1710101+9999OA149900411REMSYN088AAXX  26114 06648 33/// /2907 10023 2//// 39474 40102 57010 333 553// 20684 91108 91206;
0140066480999992011012612004+47183+008000FM-12+052299999V0202901N004119999999N9999999N1+00291+99999100951ADDMA1999999094681MD1710111+9999OA149900721REMSYN088AAXX  26124 06648 33/// /2908 10029 2//// 39468 40095 57011 333 553// 20907 91114 91209;
0140066480999992011012613004+47183+008000FM-12+052299999V0203001N002119999999N9999999N1+00371+99999100851ADDMA1999999094611MD1819999+9999OA149900571REMSYN088AAXX  26134 06648 33/// /3004 10037 2//// 39461 40085 58/// 333 553// 20976 91111 91209;
0103066480999992011012614004+47183+008000FM-12+052299999V0203301N002119999999N9999999N1+00371+99999100811ADDMA1999999094571REMSYN076AAXX  26144 06648 33/// /3304 10037 2//// 39457 40081 5//// 333 553// 20569;
0140066480999992011012615004+47183+008000FM-12+052299999V0203101N000519999999N9999999N1+00321+99999100831ADDMA1999999094581MD1710101+9999OA149900571REMSYN088AAXX  26154 06648 33/// /3101 10032 2//// 39458 40083 57010 333 553// 20353 91111 91209;
0140066480999992011012616004+47183+008000FM-12+052299999V0202701N001019999999N9999999N1+00201+99999100861ADDMA1999999094581MD1719999+9999OA149900411REMSYN088AAXX  26164 06648 33/// /2702 10020 2//// 39458 40086 57/// 333 553// 20184 91108 91205;
0140066480999992011012617004+47183+008000FM-12+052299999V0202701N001019999999N9999999N1+00111+99999100911ADDMA1999999094611MD1210041+9999OA149900151REMSYN088AAXX  26174 06648 33/// /2702 10011 2//// 39461 40091 52004 333 553// 20007 91103 91202;
0159066480999992011012618004+47183+008000FM-12+052299999V0202601N001019999999N9999999N1-00011+99999100971ADDKA1120M+00401MA1999999094631MD1210051+9999OA149900571REMSYN094AAXX  26184 06648 33/// /2602 11001 2//// 39463 40097 52005 333 10040 553// 20000 91111 91209;
0140066480999992011012619004+47183+008000FM-12+052299999V0209999C000019999999N9999999N1-00031+99999101011ADDMA1999999094671MD1310091+9999OA149900151REMSYN088AAXX  26194 06648 33/// /0000 11003 2//// 39467 40101 53009 333 553// 20000 91103 91202;
0140066480999992011012620004+47183+008000FM-12+052299999V0201801N000519999999N9999999N1-00091+99999101061ADDMA1999999094701MD1110091+9999OA149900101REMSYN088AAXX  26204 06648 33/// /1801 11009 2//// 39470 40106 51009 333 553// 20000 91102 91202;
0140066480999992011012621004+47183+008000FM-12+052299999V0201501N000519999999N9999999N1-00141+99999101081ADDMA1999999094711MD1110081+9999OA149900211REMSYN088AAXX  26214 06648 33/// /1501 11014 2//// 39471 40108 51008 333 553// 20000 91104 91204;
0140066480999992011012622004+47183+008000FM-12+052299999V0202101N001019999999N9999999N1-00161+99999101121ADDMA1999999094741MD1110071+9999OA149900211REMSYN088AAXX  26224 06648 33/// /2102 11016 2//// 39474 40112 51007 333 553// 20000 91104 91204;
0140066480999992011012623004+47183+008000FM-12+052299999V0201301N000519999999N9999999N1-00231+99999101171ADDMA1999999094771MD1310071+9999OA149900151REMSYN088AAXX  26234 06648 33/// /1301 11023 2//// 39477 40117 53007 333 553// 20000 91103 91202;
0140066480999992011012700004+47183+008000FM-12+052299999V0202401N000519999999N9999999N1-00211+99999101171ADDMA1999999094781MD1110071+9999OA149900571REMSYN088AAXX  27004 06648 33/// /2401 11021 2//// 39478 40117 51007 333 553// 20000 91111 91209;
0140066480999992011012701004+47183+008000FM-12+052299999V0203501N000519999999N9999999N1-00141+99999101171ADDMA1999999094791MD1110051+9999OA149900101REMSYN088AAXX  27014 06648 33/// /3501 11014 2//// 39479 40117 51005 333 553// 20000 91102 91202;
0140066480999992011012702004+47183+008000FM-12+052299999V0201301N000519999999N9999999N1-00131+99999101191ADDMA1999999094811MD1310041+9999OA149900151REMSYN088AAXX  27024 06648 33/// /1301 11013 2//// 39481 40119 53004 333 553// 20000 91103 91202;
0140066480999992011012703004+47183+008000FM-12+052299999V0209999C000019999999N9999999N1-00121+99999101181ADDMA1999999094811MD1310031+9999OA149900151REMSYN088AAXX  27034 06648 33/// /0000 11012 2//// 39481 40118 53003 333 553// 20000 91103 91202;
0140066480999992011012704004+47183+008000FM-12+052299999V0201101N000519999999N9999999N1-00101+99999101201ADDMA1999999094831MD1110041+9999OA149900101REMSYN088AAXX  27044 06648 33/// /1101 11010 2//// 39483 40120 51004 333 553// 20000 91102 91201;
0140066480999992011012705004+47183+008000FM-12+052299999V0202801N001019999999N9999999N1-00061+99999101221ADDMA1999999094861MD1210051+9999OA149900151REMSYN088AAXX  27054 06648 33/// /2802 11006 2//// 39486 40122 52005 333 553// 20000 91103 91202;
0175066480999992011012706004+47183+008000FM-12+052299999V0203301N000519999999N9999999N1-00031+99999101271ADDAL19900091KA1999N-00261MA1999999094911MD1210101+9999OA149900211REMSYN100AAXX  27064 06648 33/// /3301 11003 2//// 39491 40127 52010 333 21026 553// 20000 70000 91104 91204;
0140066480999992011012707004+47183+008000FM-12+052299999V0209999C000019999999N9999999N1-00021+99999101301ADDMA1999999094941MD1210111+9999OA149900151REMSYN088AAXX  27074 06648 33/// /0000 11002 2//// 39494 40130 52011 333 553// 20000 91103 91202;
0140066480999992011012708004+47183+008000FM-12+052299999V0209999C000019999999N9999999N1-00031+99999101351ADDMA1999999094991MD1210131+9999OA149900151REMSYN088AAXX  27084 06648 33/// /0000 11003 2//// 39499 40135 52013 333 553// 20011 91103 91202;
0140066480999992011012709004+47183+008000FM-12+052299999V0201401N000519999999N9999999N1-00021+99999101371ADDMA1999999095011MD1210101+9999OA149900151REMSYN088AAXX  27094 06648 33/// /1401 11002 2//// 39501 40137 52010 333 553// 20119 91103 91202;
0140066480999992011012710004+47183+008000FM-12+052299999V0201001N001019999999N9999999N1+00051+99999101421ADDMA1999999095071MD1310131+9999OA149900101REMSYN088AAXX  27104 06648 33/// /1002 10005 2//// 39507 40142 53013 333 553// 20241 91102 91201;
0140066480999992011012711004+47183+008000FM-12+052299999V0201001N001019999999N9999999N1+00101+99999101431ADDMA1999999095091MD1310101+9999OA149900211REMSYN088AAXX  27114 06648 33/// /1002 10010 2//// 39509 40143 53010 333 553// 20259 91104 91203;
0140066480999992011012712004+47183+008000FM-12+052299999V0200901N001019999999N9999999N1+00121+99999101401ADDMA1999999095071MD1010061+9999OA149900211REMSYN088AAXX  27124 06648 33/// /0902 10012 2//// 39507 40140 50006 333 553// 20256 91104 91203;
0140066480999992011012713004+47183+008000FM-12+052299999V0201201N001519999999N9999999N1+00161+99999101361ADDMA1999999095041MD1710031+9999OA149900151REMSYN088AAXX  27134 06648 33/// /1203 10016 2//// 39504 40136 57003 333 553// 20313 91103 91202;
0140066480999992011012714004+47183+008000FM-12+052299999V0200801N002119999999N9999999N1+00161+99999101331ADDMA1999999095011MD1610081+9999OA149900211REMSYN088AAXX  27144 06648 33/// /0804 10016 2//// 39501 40133 56008 333 553// 20245 91104 91203;
0140066480999992011012715004+47183+008000FM-12+052299999V0200401N002619999999N9999999N1+00161+99999101341ADDMA1999999095021MD1710051+9999OA149900461REMSYN088AAXX  27154 06648 33/// /0405 10016 2//// 39502 40134 57005 333 553// 20137 91109 91206;
0140066480999992011012716004+47183+008000FM-12+052299999V0200501N002619999999N9999999N1+00151+99999101341ADDMA1999999095021MD1510021+9999OA149900461REMSYN088AAXX  27164 06648 33/// /0505 10015 2//// 39502 40134 55002 333 553// 20054 91109 91206;
0140066480999992011012717004+47183+008000FM-12+052299999V0200401N003619999999N9999999N1+00131+99999101361ADDMA1999999095031MD1110021+9999OA149900511REMSYN088AAXX  27174 06648 33/// /0407 10013 2//// 39503 40136 51002 333 553// 20000 91110 91206;
0159066480999992011012718004+47183+008000FM-12+052299999V0200501N004119999999N9999999N1+00121+99999101371ADDKA1120M+00171MA1999999095041MD1110021+9999OA149900621REMSYN094AAXX  27184 06648 33/// /0508 10012 2//// 39504 40137 51002 333 10017 553// 20000 91112 91209;
0140066480999992011012719004+47183+008000FM-12+052299999V0200501N004119999999N9999999N1+00101+99999101401ADDMA1999999095061MD1210041+9999OA149900771REMSYN088AAXX  27194 06648 33/// /0508 10010 2//// 39506 40140 52004 333 553// 20000 91115 91210;
0140066480999992011012720004+47183+008000FM-12+052299999V0200601N003619999999N9999999N1+00071+99999101431ADDMA1999999095081MD1210051+9999OA149900771REMSYN088AAXX  27204 06648 33/// /0607 10007 2//// 39508 40143 52005 333 553// 20000 91115 91210;
0140066480999992011012721004+47183+008000FM-12+052299999V0200701N004619999999N9999999N1+00061+99999101451ADDMA1999999095101MD1210061+9999OA149900771REMSYN088AAXX  27214 06648 33/// /0709 10006 2//// 39510 40145 52006 333 553// 20000 91115 91210;
0140066480999992011012722004+47183+008000FM-12+052299999V0200501N003119999999N9999999N1+00041+99999101441ADDMA1999999095091MD1210031+9999OA149900721REMSYN088AAXX  27224 06648 33/// /0506 10004 2//// 39509 40144 52003 333 553// 20000 91114 91209;
0140066480999992011012723004+47183+008000FM-12+052299999V0200601N004619999999N9999999N1+00021+99999101451ADDMA1999999095091MD1410001+9999OA149900671REMSYN088AAXX  27234 06648 33/// /0609 10002 2//// 39509 40145 54001 333 553// 20000 91113 91209;
0140066480999992011012800004+47183+008000FM-12+052299999V0200501N004119999999N9999999N1+00001+99999101451ADDMA1999999095091MD1710011+9999OA149900771REMSYN088AAXX  28004 06648 33/// /0508 10000 2//// 39509 40145 57001 333 553// 20000 91115 91210;
0140066480999992011012801004+47183+008000FM-12+052299999V0200501N003619999999N9999999N1+00001+99999101431ADDMA1999999095071MD1710021+9999OA149900771REMSYN088AAXX  28014 06648 33/// /0507 10000 2//// 39507 40143 57002 333 553// 20000 91115 91209;
0140066480999992011012802004+47183+008000FM-12+052299999V0200701N003119999999N9999999N1-00011+99999101461ADDMA1999999095091MD1510001+9999OA149900671REMSYN088AAXX  28024 06648 33/// /0706 11001 2//// 39509 40146 55000 333 553// 20000 91113 91208;
0140066480999992011012803004+47183+008000FM-12+052299999V0200601N003119999999N9999999N1+00021+99999101431ADDMA1999999095071MD1710021+9999OA149900771REMSYN088AAXX  28034 06648 33/// /0606 10002 2//// 39507 40143 57002 333 553// 20000 91115 91209;
0140066480999992011012804004+47183+008000FM-12+052299999V0200401N003619999999N9999999N1+00021+99999101451ADDMA1999999095091MD1210021+9999OA149900571REMSYN088AAXX  28044 06648 33/// /0407 10002 2//// 39509 40145 52002 333 553// 20000 91111 91206;
0140066480999992011012805004+47183+008000FM-12+052299999V0200501N003619999999N9999999N1+00001+99999101461ADDMA1999999095101MD1310011+9999OA149900671REMSYN088AAXX  28054 06648 33/// /0507 10000 2//// 39510 40146 53001 333 553// 20000 91113 91209;
0175066480999992011012806004+47183+008000FM-12+052299999V0200601N004619999999N9999999N1-00011+99999101501ADDAL19900091KA1999N-00011MA1999999095131MD1310061+9999OA149900771REMSYN100AAXX  28064 06648 33/// /0609 11001 2//// 39513 40150 53006 333 21001 553// 20000 70000 91115 91210;
0140066480999992011012807004+47183+008000FM-12+052299999V0200501N004619999999N9999999N1-00021+99999101541ADDMA1999999095171MD1310081+9999OA149900771REMSYN088AAXX  28074 06648 33/// /0509 11002 2//// 39517 40154 53008 333 553// 20000 91115 91209;
0140066480999992011012808004+47183+008000FM-12+052299999V0200601N005719999999N9999999N1-00031+99999101591ADDMA1999999095211MD1310111+9999OA149900821REMSYN088AAXX  28084 06648 33/// /0611 11003 2//// 39521 40159 53011 333 553// 20029 91116 91211;
0140066480999992011012809004+47183+008000FM-12+052299999V0200501N003119999999N9999999N1-00021+99999101641ADDMA1999999095261MD1310131+9999OA149900821REMSYN088AAXX  28094 06648 33/// /0506 11002 2//// 39526 40164 53013 333 553// 20104 91116 91211;
0140066480999992011012810004+47183+008000FM-12+052299999V0200601N004619999999N9999999N1-00011+99999101671ADDMA1999999095291MD1210121+9999OA149900821REMSYN088AAXX  28104 06648 33/// /0609 11001 2//// 39529 40167 52012 333 553// 20194 91116 91211;
0140066480999992011012811004+47183+008000FM-12+052299999V0200701N003119999999N9999999N1+00011+99999101691ADDMA1999999095311MD1210101+9999OA149900721REMSYN088AAXX  28114 06648 33/// /0706 10001 2//// 39531 40169 52010 333 553// 20230 91114 91210;
0140066480999992011012812004+47183+008000FM-12+052299999V0200501N003119999999N9999999N1+00031+99999101661ADDMA1999999095291MD1010031+9999OA149900821REMSYN088AAXX  28124 06648 33/// /0506 10003 2//// 39529 40166 50003 333 553// 20346 91116 91211;
0140066480999992011012813004+47183+008000FM-12+052299999V0200501N003619999999N9999999N1+00041+99999101641ADDMA1999999095271MD1810021+9999OA149900721REMSYN088AAXX  28134 06648 33/// /0507 10004 2//// 39527 40164 58002 333 553// 20371 91114 91209;
0140066480999992011012814004+47183+008000FM-12+052299999V0200601N004119999999N9999999N1+00031+99999101661ADDMA1999999095291MD1510021+9999OA149900671REMSYN088AAXX  28144 06648 33/// /0608 10003 2//// 39529 40166 55002 333 553// 20367 91113 91209;
0140066480999992011012815004+47183+008000FM-12+052299999V0200601N003619999999N9999999N1+00021+99999101681ADDMA1999999095311MD1310021+9999OA149900721REMSYN088AAXX  28154 06648 33/// /0607 10002 2//// 39531 40168 53002 333 553// 20144 91114 91210;
0140066480999992011012816004+47183+008000FM-12+052299999V0200601N004119999999N9999999N1-00011+99999101711ADDMA1999999095331MD1210061+9999OA149900621REMSYN088AAXX  28164 06648 33/// /0608 11001 2//// 39533 40171 52006 333 553// 20054 91112 91209;
0140066480999992011012817004+47183+008000FM-12+052299999V0200401N004119999999N9999999N1-00041+99999101731ADDMA1999999095341MD1210051+9999OA149900621REMSYN088AAXX  28174 06648 33/// /0408 11004 2//// 39534 40173 52005 333 553// 20000 91112 91209;
0159066480999992011012818004+47183+008000FM-12+052299999V0200501N004619999999N9999999N1-00081+99999101771ADDKA1120M+00051MA1999999095371MD1219999+9999OA149900821REMSYN094AAXX  28184 06648 33/// /0509 11008 2//// 39537 40177 52/// 333 10005 553// 20000 91116 91211;
0140066480999992011012819004+47183+008000FM-12+052299999V0200501N004119999999N9999999N1-00111+99999101801ADDMA1999999095391MD1210061+9999OA149900771REMSYN088AAXX  28194 06648 33/// /0508 11011 2//// 39539 40180 52006 333 553// 20000 91115 91210;
0140066480999992011012820004+47183+008000FM-12+052299999V0200801N002619999999N9999999N1-00131+99999101841ADDMA1999999095421MD1210081+9999OA149900721REMSYN088AAXX  28204 06648 33/// /0805 11013 2//// 39542 40184 52008 333 553// 20000 91114 91209;
0140066480999992011012821004+47183+008000FM-12+052299999V0200601N002119999999N9999999N1-00141+99999101831ADDMA1999999095411MD1219999+9999OA149900771REMSYN088AAXX  28214 06648 33/// /0604 11014 2//// 39541 40183 52/// 333 553// 20000 91115 91210;
0140066480999992011012822004+47183+008000FM-12+052299999V0200801N002619999999N9999999N1-00141+99999101821ADDMA1999999095401MD1010011+9999OA149900511REMSYN088AAXX  28224 06648 33/// /0805 11014 2//// 39540 40182 50001 333 553// 20000 91110 91206;
0140066480999992011012823004+47183+008000FM-12+052299999V0200801N002119999999N9999999N1-00151+99999101831ADDMA1999999095411MD1510011+9999OA149900361REMSYN088AAXX  28234 06648 33/// /0804 11015 2//// 39541 40183 55001 333 553// 20000 91107 91205;
0140066480999992011012900004+47183+008000FM-12+052299999V0201001N001519999999N9999999N1-00161+99999101831ADDMA1999999095411MD1010001+9999OA149900771REMSYN088AAXX  29004 06648 33/// /1003 11016 2//// 39541 40183 50000 333 553// 20000 91115 91210;
0140066480999992011012901004+47183+008000FM-12+052299999V0202601N001019999999N9999999N1-00181+99999101831ADDMA1999999095401MD1410001+9999OA149900361REMSYN088AAXX  29014 06648 33/// /2602 11018 2//// 39540 40183 54000 333 553// 20000 91107 91205;
0140066480999992011012902004+47183+008000FM-12+052299999V0202701N001519999999N9999999N1-00201+99999101821ADDMA1999999095391MD1710021+9999OA149900261REMSYN088AAXX  29024 06648 33/// /2703 11020 2//// 39539 40182 57002 333 553// 20000 91105 91204;
0140066480999992011012903004+47183+008000FM-12+052299999V0201301N001019999999N9999999N1-00191+99999101781ADDMA1999999095351MD1710061+9999OA149900361REMSYN088AAXX  29034 06648 33/// /1302 11019 2//// 39535 40178 57006 333 553// 20000 91107 91205;
0140066480999992011012904004+47183+008000FM-12+052299999V0201101N001519999999N9999999N1-00191+99999101771ADDMA1999999095341MD1610061+9999OA149900211REMSYN088AAXX  29044 06648 33/// /1103 11019 2//// 39534 40177 56006 333 553// 20000 91104 91203;
0140066480999992011012905004+47183+008000FM-12+052299999V0201201N001519999999N9999999N1-00181+99999101741ADDMA1999999095321MD1610071+9999OA149900261REMSYN088AAXX  29054 06648 33/// /1203 11018 2//// 39532 40174 56007 333 553// 20000 91105 91203;
0175066480999992011012906004+47183+008000FM-12+052299999V0201601N001519999999N9999999N1-00211+99999101741ADDAL19900091KA1999N-00201MA1999999095311MD1610041+9999OA149900721REMSYN100AAXX  29064 06648 33/// /1603 11021 2//// 39531 40174 56004 333 21020 553// 20000 70000 91114 91209;
0140066480999992011012907004+47183+008000FM-12+052299999V0201401N002119999999N9999999N1-00241+99999101761ADDMA1999999095321MD1510021+9999OA149900311REMSYN088AAXX  29074 06648 33/// /1404 11024 2//// 39532 40176 55002 333 553// 20000 91106 91204;
0140066480999992011012908004+47183+008000FM-12+052299999V0201701N002119999999N9999999N1-00231+99999101771ADDMA1999999095331MD1210011+9999OA149900361REMSYN088AAXX  29084 06648 33/// /1704 11023 2//// 39533 40177 52001 333 553// 20043 91107 91205;
0140066480999992011012909004+47183+008000FM-12+052299999V0202101N001519999999N9999999N1-00231+99999101761ADDMA1999999095321MD1010011+9999OA149900361REMSYN088AAXX  29094 06648 33/// /2103 11023 2//// 39532 40176 50001 333 553// 20133 91107 91205;
0140066480999992011012910004+47183+008000FM-12+052299999V0203101N000519999999N9999999N1-00191+99999101741ADDMA1999999095311MD1810011+9999OA149900311REMSYN088AAXX  29104 06648 33/// /3101 11019 2//// 39531 40174 58001 333 553// 20428 91106 91204;
0140066480999992011012911004+47183+008000FM-12+052299999V0201601N001519999999N9999999N1-00151+99999101681ADDMA1999999095271MD1810061+9999OA149900261REMSYN088AAXX  29114 06648 33/// /1603 11015 2//// 39527 40168 58006 333 553// 20601 91105 91203;
0140066480999992011012912004+47183+008000FM-12+052299999V0201401N001019999999N9999999N1-00111+99999101621ADDMA1999999095221MD1810101+9999OA149900361REMSYN088AAXX  29124 06648 33/// /1402 11011 2//// 39522 40162 58010 333 553// 20788 91107 91205;
0140066480999992011012913004+47183+008000FM-12+052299999V0201601N002119999999N9999999N1-00041+99999101551ADDMA1999999095171MD1810141+9999OA149900361REMSYN088AAXX  29134 06648 33/// /1604 11004 2//// 39517 40155 58014 333 553// 2//// 91107 91204;
0140066480999992011012914004+47183+008000FM-12+052299999V0201501N002119999999N9999999N1-00021+99999101491ADDMA1999999095121MD1710151+9999OA149900361REMSYN088AAXX  29144 06648 33/// /1504 11002 2//// 39512 40149 57015 333 553// 2//// 91107 91205;
0140066480999992011012915004+47183+008000FM-12+052299999V0201001N002619999999N9999999N1+00011+99999101461ADDMA1999999095101MD1610121+9999OA149900361REMSYN088AAXX  29154 06648 33/// /1005 10001 2//// 39510 40146 56012 333 553// 20774 91107 91205;
0140066480999992011012916004+47183+008000FM-12+052299999V0201001N003119999999N9999999N1-00071+99999101481ADDMA1999999095101MD1710071+9999OA149900361REMSYN088AAXX  29164 06648 33/// /1006 11007 2//// 39510 40148 57007 333 553// 20274 91107 91206;
0140066480999992011012917004+47183+008000FM-12+052299999V0200901N003119999999N9999999N1-00181+99999101521ADDMA1999999095111MD1519999+9999OA149900361REMSYN088AAXX  29174 06648 33/// /0906 11018 2//// 39511 40152 55/// 333 553// 20014 91107 91206;
0159066480999992011012918004+47183+008000FM-12+052299999V0201001N001019999999N9999999N1-00231+99999101551ADDKA1120M+00011MA1999999095131MD1210031+9999OA149900461REMSYN094AAXX  29184 06648 33/// /1002 11023 2//// 39513 40155 52003 333 10001 553// 20000 91109 91206;
0140066480999992011012919004+47183+008000FM-12+052299999V0200801N001519999999N9999999N1-00151+99999101551ADDMA1999999095151MD1110051+9999OA149900461REMSYN088AAXX  29194 06648 33/// /0803 11015 2//// 39515 40155 51005 333 553// 20000 91109 91206;
0140066480999992011012920004+47183+008000FM-12+052299999V0201201N001519999999N9999999N1-00141+99999101541ADDMA1999999095141MD1219999+9999OA149900311REMSYN088AAXX  29204 06648 33/// /1203 11014 2//// 39514 40154 52/// 333 553// 20000 91106 91205;
0140066480999992011012921004+47183+008000FM-12+052299999V0201001N003119999999N9999999N1-00181+99999101531ADDMA1999999095121MD1810011+9999OA149900511REMSYN088AAXX  29214 06648 33/// /1006 11018 2//// 39512 40153 58001 333 553// 20000 91110 91206;
0140066480999992011012922004+47183+008000FM-12+052299999V0200901N003619999999N9999999N1-00221+99999101571ADDMA1999999095151MD1510001+9999OA149900511REMSYN088AAXX  29224 06648 33/// /0907 11022 2//// 39515 40157 55000 333 553// 20000 91110 91208;
0140066480999992011012923004+47183+008000FM-12+052299999V0200601N002619999999N9999999N1-00241+99999101581ADDMA1999999095151MD1310011+9999OA149900511REMSYN088AAXX  29234 06648 33/// /0605 11024 2//// 39515 40158 53001 333 553// 20000 91110 91208;
0140066480999992011013000004+47183+008000FM-12+052299999V0200501N003119999999N9999999N1-00241+99999101561ADDMA1999999095131MD1010011+9999OA149900511REMSYN088AAXX  30004 06648 33/// /0506 11024 2//// 39513 40156 50001 333 553// 20000 91110 91208;
0140066480999992011013001004+47183+008000FM-12+052299999V0200501N003119999999N9999999N1-00261+99999101531ADDMA1999999095101MD1710051+9999OA149900511REMSYN088AAXX  30014 06648 33/// /0506 11026 2//// 39510 40153 57005 333 553// 20000 91110 91207;
0140066480999992011013002004+47183+008000FM-12+052299999V0200601N003119999999N9999999N1-00281+99999101541ADDMA1999999095111MD1710041+9999OA149900511REMSYN088AAXX  30024 06648 33/// /0606 11028 2//// 39511 40154 57004 333 553// 20000 91110 91207;
0140066480999992011013003004+47183+008000FM-12+052299999V0200401N002619999999N9999999N1-00301+99999101511ADDMA1999999095071MD1710061+9999OA149900571REMSYN088AAXX  30034 06648 33/// /0405 11030 2//// 39507 40151 57006 333 553// 20000 91111 91208;
0140066480999992011013004004+47183+008000FM-12+052299999V0200301N003119999999N9999999N1-00321+99999101511ADDMA1999999095071MD1810031+9999OA149900571REMSYN088AAXX  30044 06648 33/// /0306 11032 2//// 39507 40151 58003 333 553// 20000 91111 91207;
0140066480999992011013005004+47183+008000FM-12+052299999V0200301N003619999999N9999999N1-00341+99999101541ADDMA1999999095091MD1510021+9999OA149900511REMSYN088AAXX  30054 06648 33/// /0307 11034 2//// 39509 40154 55002 333 553// 20000 91110 91207;
0175066480999992011013006004+47183+008000FM-12+052299999V0200401N003119999999N9999999N1-00351+99999101591ADDAL19900091KA1999N-00351MA1999999095141MD1210071+9999OA149900571REMSYN100AAXX  30064 06648 33/// /0406 11035 2//// 39514 40159 52007 333 21035 553// 20000 70000 91111 91208;
0140066480999992011013007004+47183+008000FM-12+052299999V0200301N003619999999N9999999N1-00381+99999101641ADDMA1999999095181MD1310111+9999OA149900571REMSYN088AAXX  30074 06648 33/// /0307 11038 2//// 39518 40164 53011 333 553// 20000 91111 91208;
0140066480999992011013008004+47183+008000FM-12+052299999V0200501N003119999999N9999999N1-00381+99999101671ADDMA1999999095201MD1110111+9999OA149900571REMSYN088AAXX  30084 06648 33/// /0506 11038 2//// 39520 40167 51011 333 553// 20007 91111 91208;
0140066480999992011013009004+47183+008000FM-12+052299999V0200701N002119999999N9999999N1-00361+99999101681ADDMA1999999095221MD1110081+9999OA149900571REMSYN088AAXX  30094 06648 33/// /0704 11036 2//// 39522 40168 51008 333 553// 20072 91111 91208;
0140066480999992011013010004+47183+008000FM-12+052299999V0200901N001519999999N9999999N1-00351+99999101691ADDMA1999999095231MD1110051+9999OA149900511REMSYN088AAXX  30104 06648 33/// /0903 11035 2//// 39523 40169 51005 333 553// 20158 91110 91206;
0140066480999992011013011004+47183+008000FM-12+052299999V0200801N001519999999N9999999N1-00331+99999101671ADDMA1999999095221MD1210021+9999OA149900361REMSYN088AAXX  30114 06648 33/// /0803 11033 2//// 39522 40167 52002 333 553// 20252 91107 91205;
0140066480999992011013012004+47183+008000FM-12+052299999V0200401N002119999999N9999999N1-00291+99999101651ADDMA1999999095211MD1710011+9999OA149900571REMSYN088AAXX  30124 06648 33/// /0404 11029 2//// 39521 40165 57001 333 553// 20256 91111 91208;
0140066480999992011013013004+47183+008000FM-12+052299999V0200401N002619999999N9999999N1-00311+99999101641ADDMA1999999095191MD1710041+9999OA149900411REMSYN088AAXX  30134 06648 33/// /0405 11031 2//// 39519 40164 57004 333 553// 20212 91108 91205;
0140066480999992011013014004+47183+008000FM-12+052299999V0200601N002619999999N9999999N1-00301+99999101661ADDMA1999999095211MD1510011+9999OA149900411REMSYN088AAXX  30144 06648 33/// /0605 11030 2//// 39521 40166 55001 333 553// 20180 91108 91206;
0140066480999992011013015004+47183+008000FM-12+052299999V0200301N002619999999N9999999N1-00321+99999101681ADDMA1999999095231MD1310021+9999OA149900461REMSYN088AAXX  30154 06648 33/// /0305 11032 2//// 39523 40168 53002 333 553// 20122 91109 91206;
0140066480999992011013016004+47183+008000FM-12+052299999V0200601N001519999999N9999999N1-00321+99999101711ADDMA1999999095261MD1210071+9999OA149900461REMSYN088AAXX  30164 06648 33/// /0603 11032 2//// 39526 40171 52007 333 553// 20040 91109 91206;
0140066480999992011013017004+47183+008000FM-12+052299999V0200801N001519999999N9999999N1-00331+99999101771ADDMA1999999095311MD1210101+9999OA149900361REMSYN088AAXX  30174 06648 33/// /0803 11033 2//// 39531 40177 52010 333 553// 20000 91107 91206;
0159066480999992011013018004+47183+008000FM-12+052299999V0200501N001519999999N9999999N1-00341+99999101841ADDKA1120M-00291MA1999999095371MD1310141+9999OA149900571REMSYN094AAXX  30184 06648 33/// /0503 11034 2//// 39537 40184 53014 333 11029 553// 20000 91111 91208;
0140066480999992011013019004+47183+008000FM-12+052299999V0200501N001519999999N9999999N1-00341+99999101901ADDMA1999999095431MD1310171+9999OA149900311REMSYN088AAXX  30194 06648 33/// /0503 11034 2//// 39543 40190 53017 333 553// 20000 91106 91204;
0140066480999992011013020004+47183+008000FM-12+052299999V0200101N002119999999N9999999N1-00361+99999101951ADDMA1999999095471MD1110161+9999OA149900311REMSYN088AAXX  30204 06648 33/// /0104 11036 2//// 39547 40195 51016 333 553// 20000 91106 91204;
0140066480999992011013021004+47183+008000FM-12+052299999V0200201N002119999999N9999999N1-00381+99999102001ADDMA1999999095511MD1110141+9999OA149900361REMSYN088AAXX  30214 06648 33/// /0204 11038 2//// 39551 40200 51014 333 553// 20000 91107 91206;
0140066480999992011013022004+47183+008000FM-12+052299999V0200201N001019999999N9999999N1-00361+99999102021ADDMA1999999095541MD1110111+9999OA149900361REMSYN088AAXX  30224 06648 33/// /0202 11036 2//// 39554 40202 51011 333 553// 20000 91107 91205;
0140066480999992011013023004+47183+008000FM-12+052299999V0200201N001019999999N9999999N1-00361+99999102061ADDMA1999999095571MD1110101+9999OA149900361REMSYN088AAXX  30234 06648 33/// /0202 11036 2//// 39557 40206 51010 333 553// 20000 91107 91205;
0140066480999992011013100004+47183+008000FM-12+052299999V0203201N000519999999N9999999N1-00361+99999102081ADDMA1999999095591MD1210081+9999OA149900461REMSYN088AAXX  31004 06648 33/// /3201 11036 2//// 39559 40208 52008 333 553// 20000 91109 91206;
0140066480999992011013101004+47183+008000FM-12+052299999V0201001N000519999999N9999999N1-00361+99999102071ADDMA1999999095581MD1210041+9999OA149900311REMSYN088AAXX  31014 06648 33/// /1001 11036 2//// 39558 40207 52004 333 553// 20000 91106 91203;
0140066480999992011013102004+47183+008000FM-12+052299999V0201001N001519999999N9999999N1-00351+99999102091ADDMA1999999095601MD1210031+9999OA149900211REMSYN088AAXX  31024 06648 33/// /1003 11035 2//// 39560 40209 52003 333 553// 20000 91104 91203;
0140066480999992011013103004+47183+008000FM-12+052299999V0200901N001519999999N9999999N1-00361+99999102091ADDMA1999999095601MD1210011+9999OA149900361REMSYN088AAXX  31034 06648 33/// /0903 11036 2//// 39560 40209 52001 333 553// 20000 91107 91205;
0140066480999992011013104004+47183+008000FM-12+052299999V0201001N001519999999N9999999N1-00351+99999102091ADDMA1999999095601MD1210021+9999OA149900311REMSYN088AAXX  31044 06648 33/// /1003 11035 2//// 39560 40209 52002 333 553// 20000 91106 91205;
0140066480999992011013105004+47183+008000FM-12+052299999V0200801N000519999999N9999999N1-00351+99999102121ADDMA1999999095631MD1210031+9999OA149900311REMSYN088AAXX  31054 06648 33/// /0801 11035 2//// 39563 40212 52003 333 553// 20000 91106 91205;
0175066480999992011013106004+47183+008000FM-12+052299999V0200901N001519999999N9999999N1-00351+99999102171ADDAL19900091KA1999N-00381MA1999999095681MD1210081+9999OA149900361REMSYN100AAXX  31064 06648 33/// /0903 11035 2//// 39568 40217 52008 333 21038 553// 20000 70000 91107 91205;
0140066480999992011013107004+47183+008000FM-12+052299999V0201301N001019999999N9999999N1-00361+99999102231ADDMA1999999095731MD1210131+9999OA149900311REMSYN088AAXX  31074 06648 33/// /1302 11036 2//// 39573 40223 52013 333 553// 20000 91106 91204;
0140066480999992011013108004+47183+008000FM-12+052299999V0201501N002619999999N9999999N1-00361+99999102271ADDMA1999999095771MD1110141+9999OA149900311REMSYN088AAXX  31084 06648 33/// /1505 11036 2//// 39577 40227 51014 333 553// 20014 91106 91204;
0140066480999992011013109004+47183+008000FM-12+052299999V0201701N001019999999N9999999N1-00331+99999102301ADDMA1999999095811MD1110131+9999OA149900361REMSYN088AAXX  31094 06648 33/// /1702 11033 2//// 39581 40230 51013 333 553// 20076 91107 91205;
0140066480999992011013110004+47183+008000FM-12+052299999V0200801N001519999999N9999999N1-00321+99999102331ADDMA1999999095841MD1310111+9999OA149900361REMSYN088AAXX  31104 06648 33/// /0803 11032 2//// 39584 40233 53011 333 553// 20137 91107 91205;
0140066480999992011013111004+47183+008000FM-12+052299999V0200801N001519999999N9999999N1-00301+99999102351ADDMA1999999095861MD1310091+9999OA149900261REMSYN088AAXX  31114 06648 33/// /0803 11030 2//// 39586 40235 53009 333 553// 20194 91105 91203;
0140066480999992011013112004+47183+008000FM-12+052299999V0201501N001519999999N9999999N1-00301+99999102351ADDMA1999999095861MD1210051+9999OA149900361REMSYN088AAXX  31124 06648 33/// /1503 11030 2//// 39586 40235 52005 333 553// 20270 91107 91205;
0140066480999992011013113004+47183+008000FM-12+052299999V0201601N001019999999N9999999N1-00301+99999102311ADDMA1999999095821MD1810021+9999OA149900361REMSYN088AAXX  31134 06648 33/// /1602 11030 2//// 39582 40231 58002 333 553// 20277 91107 91204;
0140066480999992011013114004+47183+008000FM-12+052299999V0200601N001519999999N9999999N1-00281+99999102311ADDMA1999999095831MD1710031+9999OA149900361REMSYN088AAXX  31144 06648 33/// /0603 11028 2//// 39583 40231 57003 333 553// 20223 91107 91204;
0140066480999992011013115004+47183+008000FM-12+052299999V0200501N002119999999N9999999N1-00291+99999102331ADDMA1999999095841MD1510021+9999OA149900361REMSYN088AAXX  31154 06648 33/// /0504 11029 2//// 39584 40233 55002 333 553// 20137 91107 91204;
0140066480999992011013116004+47183+008000FM-12+052299999V0201001N002119999999N9999999N1-00321+99999102391ADDMA1999999095891MD1210071+9999OA149900361REMSYN088AAXX  31164 06648 33/// /1004 11032 2//// 39589 40239 52007 333 553// 20043 91107 91205;
0140066480999992011013117004+47183+008000FM-12+052299999V0200901N002119999999N9999999N1-00351+99999102461ADDMA1999999095951MD1210121+9999OA149900461REMSYN088AAXX  31174 06648 33/// /0904 11035 2//// 39595 40246 52012 333 553// 20000 91109 91205;
0159066480999992011013118004+47183+008000FM-12+052299999V0200401N001519999999N9999999N1-00361+99999102511ADDKA1120M-00281MA1999999096001MD1210161+9999OA149900461REMSYN094AAXX  31184 06648 33/// /0403 11036 2//// 39600 40251 52016 333 11028 553// 20000 91109 91205;
0140066480999992011013119004+47183+008000FM-12+052299999V0203401N000519999999N9999999N1-00381+99999102581ADDMA1999999096061MD1210171+9999OA149900361REMSYN088AAXX  31194 06648 33/// /3401 11038 2//// 39606 40258 52017 333 553// 20000 91107 91204;
0140066480999992011013120004+47183+008000FM-12+052299999V0200701N001019999999N9999999N1-00391+99999102621ADDMA1999999096091MD1110141+9999OA149900361REMSYN088AAXX  31204 06648 33/// /0702 11039 2//// 39609 40262 51014 333 553// 20000 91107 91204;
0140066480999992011013121004+47183+008000FM-12+052299999V0200701N001519999999N9999999N1-00391+99999102651ADDMA1999999096121MD1110121+9999OA149900461REMSYN088AAXX  31214 06648 33/// /0703 11039 2//// 39612 40265 51012 333 553// 20000 91109 91205;
0140066480999992011013122004+47183+008000FM-12+052299999V0202301N001019999999N9999999N1-00401+99999102651ADDMA1999999096121MD1110061+9999OA149900311REMSYN088AAXX  31224 06648 33/// /2302 11040 2//// 39612 40265 51006 333 553// 20000 91106 91203;
0140066480999992011013123004+47183+008000FM-12+052299999V0200801N000519999999N9999999N1-00421+99999102661ADDMA1999999096121MD1210031+9999OA149900311REMSYN088AAXX  31234 06648 33/// /0801 11042 2//// 39612 40266 52003 333 553// 20000 91106 91203;
0140066480999992011020100004+47183+008000FM-12+052299999V0200101N001019999999N9999999N1-00411+99999102671ADDMA1999999096131MD1310011+9999OA149900461REMSYN088AAXX  01004 06648 33/// /0102 11041 2//// 39613 40267 53001 333 553// 20000 91109 91205;
0140066480999992011020101004+47183+008000FM-12+052299999V0209999C000019999999N9999999N1-00431+99999102681ADDMA1999999096141MD1210021+9999OA149900311REMSYN088AAXX  01014 06648 33/// /0000 11043 2//// 39614 40268 52002 333 553// 20000 91106 91203;
0140066480999992011020102004+47183+008000FM-12+052299999V0200301N001519999999N9999999N1-00431+99999102691ADDMA1999999096151MD1210031+9999OA149900261REMSYN088AAXX  01024 06648 33/// /0303 11043 2//// 39615 40269 52003 333 553// 20000 91105 91203;
0140066480999992011020103004+47183+008000FM-12+052299999V0200701N001519999999N9999999N1-00451+99999102681ADDMA1999999096131MD1010001+9999OA149900311REMSYN088AAXX  01034 06648 33/// /0703 11045 2//// 39613 40268 50000 333 553// 20000 91106 91203;
0140066480999992011020104004+47183+008000FM-12+052299999V0200101N001519999999N9999999N1-00451+99999102691ADDMA1999999096141MD1010001+9999OA149900261REMSYN088AAXX  01044 06648 33/// /0103 11045 2//// 39614 40269 50000 333 553// 20000 91105 91203;
0140066480999992011020105004+47183+008000FM-12+052299999V0201201N001019999999N9999999N1-00441+99999102671ADDMA1999999096131MD1710021+9999OA149900261REMSYN088AAXX  01054 06648 33/// /1202 11044 2//// 39613 40267 57002 333 553// 20000 91105 91203;
0175066480999992011020106004+47183+008000FM-12+052299999V0202901N001519999999N9999999N1-00441+99999102661ADDAL19900091KA1999N-00461MA1999999096121MD1710011+9999OA149900361REMSYN100AAXX  01064 06648 33/// /2903 11044 2//// 39612 40266 57001 333 21046 553// 20000 70000 91107 91204;
0140066480999992011020107004+47183+008000FM-12+052299999V0203301N001519999999N9999999N1-00441+99999102741ADDMA1999999096191MD1310051+9999OA149900311REMSYN088AAXX  01074 06648 33/// /3303 11044 2//// 39619 40274 53005 333 553// 20000 91106 91204;
0140066480999992011020108004+47183+008000FM-12+052299999V0203201N001519999999N9999999N1-00441+99999102811ADDMA1999999096261MD1210131+9999OA149900311REMSYN088AAXX  01084 06648 33/// /3203 11044 2//// 39626 40281 52013 333 553// 20011 91106 91204;
0140066480999992011020109004+47183+008000FM-12+052299999V0200101N001019999999N9999999N1-00441+99999102891ADDMA1999999096331MD1110211+9999OA149900311REMSYN088AAXX  01094 06648 33/// /0102 11044 2//// 39633 40289 51021 333 553// 20068 91106 91204;
0140066480999992011020110004+47183+008000FM-12+052299999V0203401N001019999999N9999999N1-00421+99999102951ADDMA1999999096391MD1110201+9999OA149900311REMSYN088AAXX  01104 06648 33/// /3402 11042 2//// 39639 40295 51020 333 553// 20140 91106 91204;
0140066480999992011020111004+47183+008000FM-12+052299999V0203401N000519999999N9999999N1-00401+99999102941ADDMA1999999096391MD1210131+9999OA149900311REMSYN088AAXX  01114 06648 33/// /3401 11040 2//// 39639 40294 52013 333 553// 20223 91106 91204;
0140066480999992011020112004+47183+008000FM-12+052299999V0202901N001019999999N9999999N1-00391+99999102911ADDMA1999999096361MD1010031+9999OA149900311REMSYN088AAXX  01124 06648 33/// /2902 11039 2//// 39636 40291 50003 333 553// 20230 91106 91204;
0140066480999992011020113004+47183+008000FM-12+052299999V0200201N001019999999N9999999N1-00361+99999102881ADDMA1999999096341MD1810051+9999OA149900261REMSYN088AAXX  01134 06648 33/// /0202 11036 2//// 39634 40288 58005 333 553// 20259 91105 91203;
0140066480999992011020114004+47183+008000FM-12+052299999V0200801N001019999999N9999999N1-00371+99999102871ADDMA1999999096331MD1610061+9999OA149900261REMSYN088AAXX  01144 06648 33/// /0802 11037 2//// 39633 40287 56006 333 553// 20202 91105 91203;
0140066480999992011020115004+47183+008000FM-12+052299999V0203401N001519999999N9999999N1-00351+99999102851ADDMA1999999096321MD1710041+9999OA149900311REMSYN088AAXX  01154 06648 33/// /3403 11035 2//// 39632 40285 57004 333 553// 20144 91106 91204;
0140066480999992011020116004+47183+008000FM-12+052299999V0201401N001019999999N9999999N1-00351+99999102861ADDMA1999999096331MD1510011+9999OA149900261REMSYN088AAXX  01164 06648 33/// /1402 11035 2//// 39633 40286 55001 333 553// 20058 91105 91203;
0140066480999992011020117004+47183+008000FM-12+052299999V0202501N001519999999N9999999N1-00371+99999102941ADDMA1999999096401MD1210071+9999OA149900261REMSYN088AAXX  01174 06648 33/// /2503 11037 2//// 39640 40294 52007 333 553// 20000 91105 91203;
0159066480999992011020118004+47183+008000FM-12+052299999V0203301N001519999999N9999999N1-00381+99999103011ADDKA1120M-00341MA1999999096461MD1310141+9999OA149900361REMSYN094AAXX  01184 06648 33/// /3303 11038 2//// 39646 40301 53014 333 11034 553// 20000 91107 91204;
0140066480999992011020119004+47183+008000FM-12+052299999V0203201N001519999999N9999999N1-00391+99999103071ADDMA1999999096511MD1110181+9999OA149900461REMSYN088AAXX  01194 06648 33/// /3203 11039 2//// 39651 40307 51018 333 553// 20000 91109 91205;
0140066480999992011020120004+47183+008000FM-12+052299999V0203201N000519999999N9999999N1-00401+99999103101ADDMA1999999096541MD1110141+9999OA149900461REMSYN088AAXX  01204 06648 33/// /3201 11040 2//// 39654 40310 51014 333 553// 20000 91109 91205;
0140066480999992011020121004+47183+008000FM-12+052299999V0201501N001019999999N9999999N1-00401+99999103111ADDMA1999999096551MD1210091+9999OA149900461REMSYN088AAXX  01214 06648 33/// /1502 11040 2//// 39655 40311 52009 333 553// 20000 91109 91205;
0140066480999992011020122004+47183+008000FM-12+052299999V0203101N001519999999N9999999N1-00401+99999103121ADDMA1999999096561MD1210051+9999OA149900211REMSYN088AAXX  01224 06648 33/// /3103 11040 2//// 39656 40312 52005 333 553// 20000 91104 91202;
0140066480999992011020123004+47183+008000FM-12+052299999V0203501N001019999999N9999999N1-00411+99999103151ADDMA1999999096581MD1210041+9999OA149900261REMSYN088AAXX  01234 06648 33/// /3502 11041 2//// 39658 40315 52004 333 553// 20000 91105 91203;
0087066480999992011020200004+47183+008000FM-12+052299999V0209999C000519999999N9999999N1-00431+99999103191ADDMA1999999096621REMSYN060AAXX  02004 06648 43/// /0001 11043 2//// 39662 40319 5////;
0087066480999992011020201004+47183+008000FM-12+052299999V0203301N002119999999N9999999N1-00451+99999103251ADDMA1999999096671REMSYN060AAXX  02014 06648 43/// /3304 11045 2//// 39667 40325 5////;
0087066480999992011020202004+47183+008000FM-12+052299999V0202601N000519999999N9999999N1-00451+99999103251ADDMA1999999096671REMSYN060AAXX  02024 06648 43/// /2601 11045 2//// 39667 40325 5////;
0087066480999992011020203004+47183+008000FM-12+052299999V0201401N000519999999N9999999N1-00461+99999103261ADDMA1999999096671REMSYN060AAXX  02034 06648 43/// /1401 11046 2//// 39667 40326 5////;
0087066480999992011020204004+47183+008000FM-12+052299999V0200601N001519999999N9999999N1-00471+99999103281ADDMA1999999096691REMSYN060AAXX  02044 06648 43/// /0603 11047 2//// 39669 40328 5////;
0087066480999992011020205004+47183+008000FM-12+052299999V0200101N001519999999N9999999N1-00481+99999103311ADDMA1999999096721REMSYN060AAXX  02054 06648 43/// /0103 11048 2//// 39672 40331 5////;
0127066480999992011020206004+47183+008000FM-12+052299999V0200901N001019999999N9999999N1-00521+99999103351ADDAA124000091MA1999999096741REMSYN070AAXX  02064 06648 43/// /0902 11052 2//// 39674 40335 5//// 333 70000;EQDQ01  00002PRCP24
0087066480999992011020207004+47183+008000FM-12+052299999V0202201N001019999999N9999999N1-00521+99999103361ADDMA1999999096751REMSYN060AAXX  02074 06648 43/// /2202 11052 2//// 39675 40336 5////;
0140066480999992011020208004+47183+008000FM-12+052299999V0200501N001019999999N9999999N1-00471+99999103381ADDMA1999999096781MD1210061+9999OA149900261REMSYN088AAXX  02084 06648 33/// /0502 11047 2//// 39678 40338 52006 333 553// 20018 91105 91203;
0140066480999992011020209004+47183+008000FM-12+052299999V0200401N001519999999N9999999N1-00431+99999103411ADDMA1999999096821MD1310081+9999OA149900311REMSYN088AAXX  02094 06648 33/// /0403 11043 2//// 39682 40341 53008 333 553// 20108 91106 91203;
0140066480999992011020210004+47183+008000FM-12+052299999V0200901N002619999999N9999999N1-00391+99999103421ADDMA1999999096841MD1110091+9999OA149900411REMSYN088AAXX  02104 06648 33/// /0905 11039 2//// 39684 40342 51009 333 553// 20274 91108 91204;
0140066480999992011020211004+47183+008000FM-12+052299999V0200701N003119999999N9999999N1-00341+99999103371ADDMA1999999096811MD1010031+9999OA149900511REMSYN088AAXX  02114 06648 33/// /0706 11034 2//// 39681 40337 50003 333 553// 20526 91110 91206;
0140066480999992011020212004+47183+008000FM-12+052299999V0200701N002619999999N9999999N1-00301+99999103331ADDMA1999999096781MD1810041+9999OA149900621REMSYN088AAXX  02124 06648 33/// /0705 11030 2//// 39678 40333 58004 333 553// 20684 91112 91206;
0140066480999992011020213004+47183+008000FM-12+052299999V0201201N003119999999N9999999N1-00211+99999103231ADDMA1999999096711MD1810131+9999OA149900621REMSYN088AAXX  02134 06648 33/// /1206 11021 2//// 39671 40323 58013 333 553// 2//// 91112 91208;
0103066480999992011020214004+47183+008000FM-12+052299999V0201301N003119999999N9999999N1-00191+99999103201ADDMA1999999096681REMSYN076AAXX  02144 06648 33/// /1306 11019 2//// 39668 40320 5//// 333 553// 2////;
0140066480999992011020215004+47183+008000FM-12+052299999V0201401N002619999999N9999999N1-00221+99999103211ADDMA1999999096681MD1710101+9999OA149900621REMSYN088AAXX  02154 06648 33/// /1405 11022 2//// 39668 40321 57010 333 553// 20871 91112 91208;
0140066480999992011020216004+47183+008000FM-12+052299999V0200901N001519999999N9999999N1-00271+99999103241ADDMA1999999096701MD1510011+9999OA149900511REMSYN088AAXX  02164 06648 33/// /0903 11027 2//// 39670 40324 55001 333 553// 20324 91110 91208;
0140066480999992011020217004+47183+008000FM-12+052299999V0201401N002119999999N9999999N1-00361+99999103281ADDMA1999999096721MD1210041+9999OA149900511REMSYN088AAXX  02174 06648 33/// /1404 11036 2//// 39672 40328 52004 333 553// 20022 91110 91207;
0159066480999992011020218004+47183+008000FM-12+052299999V0201501N002119999999N9999999N1-00381+99999103351ADDKA1120M-00181MA1999999096781MD1210101+9999OA149900621REMSYN094AAXX  02184 06648 33/// /1504 11038 2//// 39678 40335 52010 333 11018 553// 20000 91112 91208;
0140066480999992011020219004+47183+008000FM-12+052299999V0201501N001019999999N9999999N1-00451+99999103391ADDMA1999999096801MD1210101+9999OA149900311REMSYN088AAXX  02194 06648 33/// /1502 11045 2//// 39680 40339 52010 333 553// 20000 91106 91204;
0140066480999992011020220004+47183+008000FM-12+052299999V0201501N001019999999N9999999N1-00501+99999103381ADDMA1999999096781MD1010061+9999OA149900261REMSYN088AAXX  02204 06648 33/// /1502 11050 2//// 39678 40338 50006 333 553// 20000 91105 91204;
0140066480999992011020221004+47183+008000FM-12+052299999V0202801N000519999999N9999999N1-00561+99999103371ADDMA1999999096751MD1810031+9999OA149900511REMSYN088AAXX  02214 06648 33/// /2801 11056 2//// 39675 40337 58003 333 553// 20000 91110 91207;
0140066480999992011020222004+47183+008000FM-12+052299999V0203001N001519999999N9999999N1-00581+99999103341ADDMA1999999096721MD1810081+9999OA149900151REMSYN088AAXX  02224 06648 33/// /3003 11058 2//// 39672 40334 58008 333 553// 20000 91103 91203;
0140066480999992011020223004+47183+008000FM-12+052299999V0202801N001019999999N9999999N1-00541+99999103351ADDMA1999999096741MD1510041+9999OA149900151REMSYN088AAXX  02234 06648 33/// /2802 11054 2//// 39674 40335 55004 333 553// 20000 91103 91203;
0140066480999992011020300004+47183+008000FM-12+052299999V0202701N000519999999N9999999N1-00571+99999103351ADDMA1999999096731MD1510021+9999OA149900571REMSYN088AAXX  03004 06648 33/// /2701 11057 2//// 39673 40335 55002 333 553// 20000 91111 91208;
0140066480999992011020301004+47183+008000FM-12+052299999V0201601N001019999999N9999999N1-00511+99999103331ADDMA1999999096731MD1210011+9999OA149900211REMSYN088AAXX  03014 06648 33/// /1602 11051 2//// 39673 40333 52001 333 553// 20000 91104 91202;
0159066480999992011020302004+47183+008000FM-12+052299999V0202401N000519999999N9999999N1-00581+99999103361ADDMA1999999096741MD1210011+9999OA149900151REMSYN088AAXX  03024 06648 33/// /2401 11058 2//// 39674 40336 52000 333 553// 20000 91103 91202;EQDQ01+000002APC3  
0140066480999992011020303004+47183+008000FM-12+052299999V0201601N001019999999N9999999N1-00651+99999103351ADDMA1999999096711MD1710021+9999OA149900261REMSYN088AAXX  03034 06648 33/// /1602 11065 2//// 39671 40335 57002 333 553// 20000 91105 91203;
0159066480999992011020304004+47183+008000FM-12+052299999V0200901N001019999999N9999999N1-00671+99999103371ADDMA1999999096731MD1210041+9999OA149900311REMSYN088AAXX  03044 06648 33/// /0902 11067 2//// 39673 40337 52000 333 553// 20000 91106 91204;EQDQ01+000002APC3  
0140066480999992011020305004+47183+008000FM-12+052299999V0201401N000519999999N9999999N1-00671+99999103361ADDMA1999999096721MD1710021+9999OA149900311REMSYN088AAXX  03054 06648 33/// /1401 11067 2//// 39672 40336 57002 333 553// 20000 91106 91204;
0175066480999992011020306004+47183+008000FM-12+052299999V0202901N000519999999N9999999N1-00701+99999103391ADDAL19900091KA1999N-00721MA1999999096741MD1210031+9999OA149900311REMSYN100AAXX  03064 06648 33/// /2901 11070 2//// 39674 40339 52003 333 21072 553// 20000 70000 91106 91204;
0140066480999992011020307004+47183+008000FM-12+052299999V0209999C000019999999N9999999N1-00731+99999103431ADDMA1999999096771MD1210041+9999OA149900101REMSYN088AAXX  03074 06648 33/// /0000 11073 2//// 39677 40343 52004 333 553// 20000 91102 91201;
0140066480999992011020308004+47183+008000FM-12+052299999V0202401N000519999999N9999999N1-00741+99999103461ADDMA1999999096791MD1210071+9999OA149900101REMSYN088AAXX  03084 06648 33/// /2401 11074 2//// 39679 40346 52007 333 553// 20137 91102 91201;
0140066480999992011020309004+47183+008000FM-12+052299999V0201301N000519999999N9999999N1-00641+99999103451ADDMA1999999096811MD1210071+9999OA149900311REMSYN088AAXX  03094 06648 33/// /1301 11064 2//// 39681 40345 52007 333 553// 20562 91106 91204;
0140066480999992011020310004+47183+008000FM-12+052299999V0202301N000519999999N9999999N1-00411+99999103421ADDMA1999999096841MD1210071+9999OA149900101REMSYN088AAXX  03104 06648 33/// /2301 11041 2//// 39684 40342 52007 333 553// 2//// 91102 91201;
0140066480999992011020311004+47183+008000FM-12+052299999V0202601N001519999999N9999999N1-00211+99999103361ADDMA1999999096831MD1010041+9999OA149900211REMSYN088AAXX  03114 06648 33/// /2603 11021 2//// 39683 40336 50004 333 553// 2//// 91104 91202;
0140066480999992011020312004+47183+008000FM-12+052299999V0202601N001019999999N9999999N1-00021+99999103281ADDMA1999999096801MD1810011+9999OA149900311REMSYN088AAXX  03124 06648 33/// /2602 11002 2//// 39680 40328 58001 333 553// 2//// 91106 91204;
0140066480999992011020313004+47183+008000FM-12+052299999V0202901N000519999999N9999999N1+00061+99999103221ADDMA1999999096761MD1710081+9999OA149900261REMSYN088AAXX  03134 06648 33/// /2901 10006 2//// 39676 40322 57008 333 553// 20677 91105 91203;
0140066480999992011020314004+47183+008000FM-12+052299999V0202601N002119999999N9999999N1+00111+99999103151ADDMA1999999096711MD1810121+9999OA149900211REMSYN088AAXX  03144 06648 33/// /2604 10011 2//// 39671 40315 58012 333 553// 20580 91104 91203;
0140066480999992011020315004+47183+008000FM-12+052299999V0203001N001019999999N9999999N1+00101+99999103191ADDMA1999999096741MD1710061+9999OA149900311REMSYN088AAXX  03154 06648 33/// /3002 10010 2//// 39674 40319 57006 333 553// 20432 91106 91204;
0140066480999992011020316004+47183+008000FM-12+052299999V0202501N000519999999N9999999N1+00071+99999103211ADDMA1999999096751MD1510011+9999OA149900311REMSYN088AAXX  03164 06648 33/// /2501 10007 2//// 39675 40321 55001 333 553// 20119 91106 91204;
0146066480999992011020317004+47183+008000FM-12+052299999V0202601N001019999999N9999999N1+00001+99999103281ADDMA1999999096801MD1210091+9999OA149900261REMSYN094AAXX  03174 06648 23/// /2602 10000 2//// 39680 40328 52009 333 553// 20004 69915 91105 91204;
0201066480999992011020318004+47183+008000FM-12+052299999V0203101N000519999999N9999999N1+00011+99999103311ADDAA112000091KA1120M+00141MA1999999096831MD1210091+9999OA149900311REMSYN106AAXX  03184 06648 03/// /3101 10001 2//// 39683 40331 52009 69922 333 10014 553// 20000 69915 91106 91204;EQDQ01  00002PRCP12
0140066480999992011020319004+47183+008000FM-12+052299999V0202801N001519999999N9999999N1-00011+99999103331ADDMA1999999096851MD1210101+9999OA149900261REMSYN088AAXX  03194 06648 33/// /2803 11001 2//// 39685 40333 52010 333 553// 20000 91105 91204;
0140066480999992011020320004+47183+008000FM-12+052299999V0203401N000519999999N9999999N1+00001+99999103341ADDMA1999999096861MD1210061+9999OA149900311REMSYN088AAXX  03204 06648 33/// /3401 10000 2//// 39686 40334 52006 333 553// 20000 91106 91204;
0140066480999992011020321004+47183+008000FM-12+052299999V0203001N001019999999N9999999N1-00071+99999103351ADDMA1999999096851MD1010021+9999OA149900311REMSYN088AAXX  03214 06648 33/// /3002 11007 2//// 39685 40335 50002 333 553// 20000 91106 91204;
0140066480999992011020322004+47183+008000FM-12+052299999V0203301N000519999999N9999999N1-00071+99999103331ADDMA1999999096831MD1810021+9999OA149900261REMSYN088AAXX  03224 06648 33/// /3301 11007 2//// 39683 40333 58002 333 553// 20000 91105 91203;
0140066480999992011020323004+47183+008000FM-12+052299999V0202601N000519999999N9999999N1-00071+99999103361ADDMA1999999096861MD1310021+9999OA149900261REMSYN088AAXX  03234 06648 33/// /2601 11007 2//// 39686 40336 53000 333 553// 20000 91105 91203;
0140066480999992011020400004+47183+008000FM-12+052299999V0201201N000519999999N9999999N1-00011+99999103321ADDMA1999999096841MD1710011+9999OA149900311REMSYN088AAXX  04004 06648 33/// /1201 11001 2//// 39684 40332 57001 333 553// 20000 91106 91204;
0140066480999992011020401004+47183+008000FM-12+052299999V0203101N001019999999N9999999N1-00071+99999103341ADDMA1999999096841MD1210011+9999OA149900151REMSYN088AAXX  04014 06648 33/// /3102 11007 2//// 39684 40334 52001 333 553// 20000 91103 91202;
0140066480999992011020402004+47183+008000FM-12+052299999V0202701N001019999999N9999999N1-00111+99999103341ADDMA1999999096831MD1710031+9999OA149900151REMSYN088AAXX  04024 06648 33/// /2702 11011 2//// 39683 40334 57003 333 553// 20000 91103 91202;
0140066480999992011020403004+47183+008000FM-12+052299999V0201001N000519999999N9999999N1-00171+99999103351ADDMA1999999096831MD1710011+9999OA149900361REMSYN088AAXX  04034 06648 33/// /1001 11017 2//// 39683 40335 57001 333 553// 20000 91107 91206;
0140066480999992011020404004+47183+008000FM-12+052299999V0201001N000519999999N9999999N1-00131+99999103321ADDMA1999999096811MD1710031+9999OA149900361REMSYN088AAXX  04044 06648 33/// /1001 11013 2//// 39681 40332 57003 333 553// 20000 91107 91206;
0140066480999992011020405004+47183+008000FM-12+052299999V0201301N001019999999N9999999N1-00171+99999103371ADDMA1999999096851MD1310021+9999OA149900151REMSYN088AAXX  04054 06648 33/// /1302 11017 2//// 39685 40337 53002 333 553// 20000 91103 91202;
0175066480999992011020406004+47183+008000FM-12+052299999V0201701N001519999999N9999999N1-00171+99999103401ADDAL11200091KA1999N-00211MA1999999096871MD1210041+9999OA149900361REMSYN100AAXX  04064 06648 33/// /1703 11017 2//// 39687 40340 52004 333 21021 553// 20000 70002 91107 91206;
0140066480999992011020407004+47183+008000FM-12+052299999V0209999C000019999999N9999999N1-00171+99999103431ADDMA1999999096901MD1210091+9999OA149900211REMSYN088AAXX  04074 06648 33/// /0000 11017 2//// 39690 40343 52009 333 553// 20000 91104 91203;
0140066480999992011020408004+47183+008000FM-12+052299999V0200501N001019999999N9999999N1-00181+99999103501ADDMA1999999096971MD1210121+9999OA149900211REMSYN088AAXX  04084 06648 33/// /0502 11018 2//// 39697 40350 52012 333 553// 20108 91104 91203;
0140066480999992011020409004+47183+008000FM-12+052299999V0201001N000519999999N9999999N1-00041+99999103511ADDMA1999999097011MD1210141+9999OA149900211REMSYN088AAXX  04094 06648 33/// /1001 11004 2//// 39701 40351 52014 333 553// 20576 91104 91203;
0140066480999992011020410004+47183+008000FM-12+052299999V0200901N001019999999N9999999N1+00171+99999103471ADDMA1999999097021MD1210121+9999OA149900211REMSYN088AAXX  04104 06648 33/// /0902 10017 2//// 39702 40347 52012 333 553// 2//// 91104 91202;
0140066480999992011020411004+47183+008000FM-12+052299999V0202901N001019999999N9999999N1+00521+99999103321ADDMA1999999096961MD1810011+9999OA149900211REMSYN088AAXX  04114 06648 33/// /2902 10052 2//// 39696 40332 58001 333 553// 2//// 91104 91202;
0140066480999992011020412004+47183+008000FM-12+052299999V0203001N004119999999N9999999N1+00531+99999103281ADDMA1999999096921MD1710091+9999OA149900721REMSYN088AAXX  04124 06648 33/// /3008 10053 2//// 39692 40328 57009 333 553// 2//// 91114 91209;
0140066480999992011020413004+47183+008000FM-12+052299999V0203001N004619999999N9999999N1+00771+99999103151ADDMA1999999096861MD1710161+9999OA149900721REMSYN088AAXX  04134 06648 33/// /3009 10077 2//// 39686 40315 57016 333 553// 2//// 91114 91211;
0140066480999992011020414004+47183+008000FM-12+052299999V0202801N009319999999N9999999N1+00851+99999103071ADDMA1999999096801MD1810161+9999OA149901031REMSYN088AAXX  04144 06648 33/// /2818 10085 2//// 39680 40307 58016 333 553// 2//// 91120 91213;
0140066480999992011020415004+47183+008000FM-12+052299999V0202801N007719999999N9999999N1+00781+99999103121ADDMA1999999096831MD1510091+9999OA149901291REMSYN088AAXX  04154 06648 33/// /2815 10078 2//// 39683 40312 55009 333 553// 20785 91125 91218;
0140066480999992011020416004+47183+008000FM-12+052299999V0202601N004619999999N9999999N1+00701+99999103201ADDMA1999999096891MD1310031+9999OA149901291REMSYN088AAXX  04164 06648 33/// /2609 10070 2//// 39689 40320 53003 333 553// 20212 91125 91218;
0140066480999992011020417004+47183+008000FM-12+052299999V0202601N004119999999N9999999N1+00651+99999103261ADDMA1999999096931MD1210131+9999OA149901181REMSYN088AAXX  04174 06648 33/// /2608 10065 2//// 39693 40326 52013 333 553// 20014 91123 91216;
0159066480999992011020418004+47183+008000FM-12+052299999V0202601N004619999999N9999999N1+00541+99999103321ADDKA1120M+00881MA1999999096961MD1210131+9999OA149901291REMSYN094AAXX  04184 06648 33/// /2609 10054 2//// 39696 40332 52013 333 10088 553// 20000 91125 91218;
0140066480999992011020419004+47183+008000FM-12+052299999V0202301N002119999999N9999999N1+00471+99999103341ADDMA1999999096971MD1210081+9999OA149900671REMSYN088AAXX  04194 06648 33/// /2304 10047 2//// 39697 40334 52008 333 553// 20000 91113 91209;
0140066480999992011020420004+47183+008000FM-12+052299999V0202301N001019999999N9999999N1+00481+99999103321ADDMA1999999096951MD1010021+9999OA149900621REMSYN088AAXX  04204 06648 33/// /2302 10048 2//// 39695 40332 50002 333 553// 20000 91112 91209;
0140066480999992011020421004+47183+008000FM-12+052299999V0202801N003119999999N9999999N1+00371+99999103311ADDMA1999999096921MD1710041+9999OA149901181REMSYN088AAXX  04214 06648 33/// /2806 10037 2//// 39692 40331 57004 333 553// 20000 91123 91216;
0140066480999992011020422004+47183+008000FM-12+052299999V0202101N001019999999N9999999N1+00341+99999103321ADDMA1999999096921MD1710051+9999OA149900461REMSYN088AAXX  04224 06648 33/// /2102 10034 2//// 39692 40332 57005 333 553// 20000 91109 91206;
0140066480999992011020423004+47183+008000FM-12+052299999V0202701N001019999999N9999999N1+00221+99999103431ADDMA1999999096991MD1310041+9999OA149900411REMSYN088AAXX  04234 06648 33/// /2702 10022 2//// 39699 40343 53004 333 553// 20000 91108 91206;
0140066480999992011020500004+47183+008000FM-12+052299999V0202801N001519999999N9999999N1+00121+99999103461ADDMA1999999097001MD1210081+9999OA149901291REMSYN088AAXX  05004 06648 33/// /2803 10012 2//// 39700 40346 52008 333 553// 20000 91125 91218;
0140066480999992011020501004+47183+008000FM-12+052299999V0202801N003119999999N9999999N1+00041+99999103501ADDMA1999999097021MD1210101+9999OA149900411REMSYN088AAXX  05014 06648 33/// /2806 10004 2//// 39702 40350 52010 333 553// 20000 91108 91206;
0140066480999992011020502004+47183+008000FM-12+052299999V0202601N001519999999N9999999N1+00241+99999103431ADDMA1999999097001MD1010011+9999OA149900571REMSYN088AAXX  05024 06648 33/// /2603 10024 2//// 39700 40343 50001 333 553// 20000 91111 91207;
0140066480999992011020503004+47183+008000FM-12+052299999V0203001N001519999999N9999999N1+00341+99999103351ADDMA1999999096951MD1810051+9999OA149900571REMSYN088AAXX  05034 06648 33/// /3003 10034 2//// 39695 40335 58005 333 553// 20000 91111 91207;
0140066480999992011020504004+47183+008000FM-12+052299999V0202301N000519999999N9999999N1+00091+99999103411ADDMA1999999096941MD1710081+9999OA149900261REMSYN088AAXX  05044 06648 33/// /2301 10009 2//// 39694 40341 57008 333 553// 20000 91105 91203;
0140066480999992011020505004+47183+008000FM-12+052299999V0203101N001019999999N9999999N1+00121+99999103411ADDMA1999999096951MD1710051+9999OA149900261REMSYN088AAXX  05054 06648 33/// /3102 10012 2//// 39695 40341 57005 333 553// 20000 91105 91203;
0175066480999992011020506004+47183+008000FM-12+052299999V0202901N002619999999N9999999N1+00101+99999103461ADDAL19900091KA1999N+00031MA1999999096991MD1310041+9999OA149900621REMSYN100AAXX  05064 06648 33/// /2905 10010 2//// 39699 40346 53004 333 20003 553// 20000 70000 91112 91209;
0140066480999992011020507004+47183+008000FM-12+052299999V0202601N003119999999N9999999N1-00061+99999103551ADDMA1999999097041MD1210101+9999OA149900411REMSYN088AAXX  05074 06648 33/// /2606 11006 2//// 39704 40355 52010 333 553// 20000 91108 91206;
0140066480999992011020508004+47183+008000FM-12+052299999V0201001N001019999999N9999999N1+00011+99999103601ADDMA1999999097101MD1310151+9999OA149900411REMSYN088AAXX  05084 06648 33/// /1002 10001 2//// 39710 40360 53015 333 553// 20191 91108 91206;
0140066480999992011020509004+47183+008000FM-12+052299999V0201001N000519999999N9999999N1+00191+99999103551ADDMA1999999097101MD1210111+9999OA149900411REMSYN088AAXX  05094 06648 33/// /1001 10019 2//// 39710 40355 52011 333 553// 20781 91108 91206;
0159066480999992011020510004+47183+008000FM-12+052299999V0202901N003619999999N9999999N1+00581+99999103421ADDMA1999999097071MD1010031+9999OA149999999REMSYN088AAXX  05104 06648 33/// /2907 10058 2//// 39707 40342 50003 333 553// 2//// 91103 91202;EQDQ01  00152WGOSPD
0140066480999992011020511004+47183+008000FM-12+052299999V0203001N004619999999N9999999N1+00721+99999103341ADDMA1999999097021MD1810081+9999OA149900721REMSYN088AAXX  05114 06648 33/// /3009 10072 2//// 39702 40334 58008 333 553// 2//// 91114 91209;
0140066480999992011020512004+47183+008000FM-12+052299999V0203101N005719999999N9999999N1+00791+99999103211ADDMA1999999096921MD1810181+9999OA149900721REMSYN088AAXX  05124 06648 33/// /3111 10079 2//// 39692 40321 58018 333 553// 2//// 91114 91210;
0140066480999992011020513004+47183+008000FM-12+052299999V0203001N005719999999N9999999N1+00911+99999103111ADDMA1999999096851MD1810221+9999OA149900771REMSYN088AAXX  05134 06648 33/// /3011 10091 2//// 39685 40311 58022 333 553// 2//// 91115 91211;
0140066480999992011020514004+47183+008000FM-12+052299999V0202901N005719999999N9999999N1+00961+99999103071ADDMA1999999096821MD1610201+9999OA149900821REMSYN088AAXX  05144 06648 33/// /2911 10096 2//// 39682 40307 56020 333 553// 2//// 91116 91212;
0140066480999992011020515004+47183+008000FM-12+052299999V0203001N004119999999N9999999N1+00941+99999103061ADDMA1999999096811MD1610111+9999OA149900821REMSYN088AAXX  05154 06648 33/// /3008 10094 2//// 39681 40306 56011 333 553// 20958 91116 91212;
0140066480999992011020516004+47183+008000FM-12+052299999V0202901N003619999999N9999999N1+00821+99999103091ADDMA1999999096811MD1610041+9999OA149900721REMSYN088AAXX  05164 06648 33/// /2907 10082 2//// 39681 40309 56004 333 553// 20446 91114 91211;
0140066480999992011020517004+47183+008000FM-12+052299999V0201401N001019999999N9999999N1+00501+99999103201ADDMA1999999096841MD1310021+9999OA149900571REMSYN088AAXX  05174 06648 33/// /1402 10050 2//// 39684 40320 53002 333 553// 20054 91111 91209;
0159066480999992011020518004+47183+008000FM-12+052299999V0202001N000519999999N9999999N1+00351+99999103291ADDKA1120M+00961MA1999999096891MD1310081+9999OA149900821REMSYN094AAXX  05184 06648 33/// /2001 10035 2//// 39689 40329 53008 333 10096 553// 20000 91116 91212;
0140066480999992011020519004+47183+008000FM-12+052299999V0201101N000519999999N9999999N1+00341+99999103301ADDMA1999999096901MD1210091+9999OA149900261REMSYN088AAXX  05194 06648 33/// /1101 10034 2//// 39690 40330 52009 333 553// 20000 91105 91204;
0140066480999992011020520004+47183+008000FM-12+052299999V0200801N000519999999N9999999N1+00181+99999103351ADDMA1999999096911MD1210071+9999OA149900211REMSYN088AAXX  05204 06648 33/// /0801 10018 2//// 39691 40335 52007 333 553// 20000 91104 91203;
0140066480999992011020521004+47183+008000FM-12+052299999V0201901N001019999999N9999999N1+00091+99999103391ADDMA1999999096931MD1219999+9999OA149900571REMSYN088AAXX  05214 06648 33/// /1902 10009 2//// 39693 40339 52/// 333 553// 20000 91111 91209;
0140066480999992011020522004+47183+008000FM-12+052299999V0201101N001019999999N9999999N1-00061+99999103461ADDMA1999999096961MD1210061+9999OA149900151REMSYN088AAXX  05224 06648 33/// /1102 11006 2//// 39696 40346 52006 333 553// 20000 91103 91203;
0140066480999992011020523004+47183+008000FM-12+052299999V0201101N000519999999N9999999N1+00001+99999103461ADDMA1999999096971MD1110061+9999OA149900211REMSYN088AAXX  05234 06648 33/// /1101 10000 2//// 39697 40346 51006 333 553// 20000 91104 91203;
0140066480999992011020600004+47183+008000FM-12+052299999V0202701N000519999999N9999999N1-00061+99999103511ADDMA1999999097001MD1310071+9999OA149900821REMSYN088AAXX  06004 06648 33/// /2701 11006 2//// 39700 40351 53007 333 553// 20000 91116 91212;
0140066480999992011020601004+47183+008000FM-12+052299999V0201101N001019999999N9999999N1-00091+99999103501ADDMA1999999096991MD1210031+9999OA149900151REMSYN088AAXX  06014 06648 33/// /1102 11009 2//// 39699 40350 52003 333 553// 20000 91103 91202;
0140066480999992011020602004+47183+008000FM-12+052299999V0200901N000519999999N9999999N1-00091+99999103491ADDMA1999999096981MD1010011+9999OA149900151REMSYN088AAXX  06024 06648 33/// /0901 11009 2//// 39698 40349 50001 333 553// 20000 91103 91202;
0140066480999992011020603004+47183+008000FM-12+052299999V0209999C000019999999N9999999N1-00141+99999103481ADDMA1999999096961MD1810041+9999OA149900211REMSYN088AAXX  06034 06648 33/// /0000 11014 2//// 39696 40348 58004 333 553// 20000 91104 91203;
0140066480999992011020604004+47183+008000FM-12+052299999V0200801N001019999999N9999999N1-00191+99999103491ADDMA1999999096951MD1710041+9999OA149900101REMSYN088AAXX  06044 06648 33/// /0802 11019 2//// 39695 40349 57004 333 553// 20000 91102 91202;
0140066480999992011020605004+47183+008000FM-12+052299999V0201101N000519999999N9999999N1-00151+99999103471ADDMA1999999096941MD1710041+9999OA149900211REMSYN088AAXX  06054 06648 33/// /1101 11015 2//// 39694 40347 57004 333 553// 20000 91104 91203;
0175066480999992011020606004+47183+008000FM-12+052299999V0209999C000019999999N9999999N1-00211+99999103481ADDAL19900091KA1999N-00211MA1999999096941MD1710021+9999OA149900211REMSYN100AAXX  06064 06648 33/// /0000 11021 2//// 39694 40348 57002 333 21021 553// 20000 70000 91104 91203;
0140066480999992011020607004+47183+008000FM-12+052299999V0201601N000519999999N9999999N1-00251+99999103511ADDMA1999999096961MD1310011+9999OA149900151REMSYN088AAXX  06074 06648 33/// /1601 11025 2//// 39696 40351 53001 333 553// 20000 91103 91202;
0140066480999992011020608004+47183+008000FM-12+052299999V0209999C000019999999N9999999N1-00201+99999103521ADDMA1999999096981MD1210041+9999OA149900101REMSYN088AAXX  06084 06648 33/// /0000 11020 2//// 39698 40352 52004 333 553// 20108 91102 91202;
0140066480999992011020609004+47183+008000FM-12+052299999V0201301N000519999999N9999999N1-00071+99999103471ADDMA1999999096961MD1010021+9999OA149900211REMSYN088AAXX  06094 06648 33/// /1301 11007 2//// 39696 40347 50002 333 553// 20612 91104 91203;
0140066480999992011020610004+47183+008000FM-12+052299999V0201201N001019999999N9999999N1+00231+99999103351ADDMA1999999096921MD1810041+9999OA149900101REMSYN088AAXX  06104 06648 33/// /1202 10023 2//// 39692 40335 58004 333 553// 2//// 91102 91201;
0140066480999992011020611004+47183+008000FM-12+052299999V0202401N000519999999N9999999N1+00531+99999103231ADDMA1999999096881MD1810101+9999OA149900151REMSYN088AAXX  06114 06648 33/// /2401 10053 2//// 39688 40323 58010 333 553// 2//// 91103 91202;
0140066480999992011020612004+47183+008000FM-12+052299999V0201301N000519999999N9999999N1+00821+99999103061ADDMA1999999096781MD1810181+9999OA149900211REMSYN088AAXX  06124 06648 33/// /1301 10082 2//// 39678 40306 58018 333 553// 2//// 91104 91203;
0140066480999992011020613004+47183+008000FM-12+052299999V0202101N000519999999N9999999N1+01031+99999102921ADDMA1999999096701MD1710221+9999OA149900101REMSYN088AAXX  06134 06648 33/// /2101 10103 2//// 39670 40292 57022 333 553// 2//// 91102 91201;
0140066480999992011020614004+47183+008000FM-12+052299999V0202501N000519999999N9999999N1+01161+99999102821ADDMA1999999096631MD1610251+9999OA149900151REMSYN088AAXX  06144 06648 33/// /2501 10116 2//// 39663 40282 56025 333 553// 2//// 91103 91201;
0140066480999992011020615004+47183+008000FM-12+052299999V0202701N000519999999N9999999N1+01191+99999102781ADDMA1999999096601MD1610181+9999OA149900151REMSYN088AAXX  06154 06648 33/// /2701 10119 2//// 39660 40278 56018 333 553// 2//// 91103 91202;
0140066480999992011020616004+47183+008000FM-12+052299999V0202701N001519999999N9999999N1+00981+99999102821ADDMA1999999096591MD1610111+9999OA149900211REMSYN088AAXX  06164 06648 33/// /2703 10098 2//// 39659 40282 56011 333 553// 20475 91104 91203;
0140066480999992011020617004+47183+008000FM-12+052299999V0202801N001019999999N9999999N1+00691+99999102901ADDMA1999999096601MD1519999+9999OA149900211REMSYN088AAXX  06174 06648 33/// /2802 10069 2//// 39660 40290 55/// 333 553// 20054 91104 91203;
0159066480999992011020618004+47183+008000FM-12+052299999V0209999C000019999999N9999999N1+00511+99999102971ADDKA1120M+01221MA1999999096631MD1310031+9999OA149900211REMSYN094AAXX  06184 06648 33/// /0000 10051 2//// 39663 40297 53003 333 10122 553// 20000 91104 91203;
0140066480999992011020619004+47183+008000FM-12+052299999V0201001N001019999999N9999999N1+00321+99999103021ADDMA1999999096631MD1110041+9999OA149900151REMSYN088AAXX  06194 06648 33/// /1002 10032 2//// 39663 40302 51004 333 553// 20000 91103 91202;
0140066480999992011020620004+47183+008000FM-12+052299999V0201501N000519999999N9999999N1+00211+99999103031ADDMA1999999096621MD1019999+9999OA149900211REMSYN088AAXX  06204 06648 33/// /1501 10021 2//// 39662 40303 50/// 333 553// 20000 91104 91202;
0140066480999992011020621004+47183+008000FM-12+052299999V0201301N000519999999N9999999N1+00231+99999103041ADDMA1999999096631MD1410001+9999OA149900211REMSYN088AAXX  06214 06648 33/// /1301 10023 2//// 39663 40304 54000 333 553// 20000 91104 91203;
0140066480999992011020622004+47183+008000FM-12+052299999V0201301N001019999999N9999999N1+00051+99999103061ADDMA1999999096611MD1710021+9999OA149900151REMSYN088AAXX  06224 06648 33/// /1302 10005 2//// 39661 40306 57002 333 553// 20000 91103 91203;
0140066480999992011020623004+47183+008000FM-12+052299999V0201001N001019999999N9999999N1+00091+99999103021ADDMA1999999096581MD1710041+9999OA149900151REMSYN088AAXX  06234 06648 33/// /1002 10009 2//// 39658 40302 57004 333 553// 20000 91103 91203;
0140066480999992011020700004+47183+008000FM-12+052299999V0201201N000519999999N9999999N1-00011+99999103071ADDMA1999999096601MD1510031+9999OA149900211REMSYN088AAXX  07004 06648 33/// /1201 11001 2//// 39660 40307 55003 333 553// 20000 91104 91203;
0140066480999992011020701004+47183+008000FM-12+052299999V0209999C000019999999N9999999N1-00061+99999103071ADDMA1999999096591MD1710021+9999OA149900151REMSYN088AAXX  07014 06648 33/// /0000 11006 2//// 39659 40307 57002 333 553// 20000 91103 91202;
0140066480999992011020702004+47183+008000FM-12+052299999V0202501N001019999999N9999999N1-00081+99999103081ADDMA1999999096601MD1210021+9999OA149900101REMSYN088AAXX  07024 06648 33/// /2502 11008 2//// 39660 40308 52002 333 553// 20000 91102 91202;
0140066480999992011020703004+47183+008000FM-12+052299999V0200701N001019999999N9999999N1-00071+99999103061ADDMA1999999096581MD1810021+9999OA149900151REMSYN088AAXX  07034 06648 33/// /0702 11007 2//// 39658 40306 58002 333 553// 20000 91103 91203;
0140066480999992011020704004+47183+008000FM-12+052299999V0202101N000519999999N9999999N1-00211+99999103091ADDMA1999999096571MD1710021+9999OA149900151REMSYN088AAXX  07044 06648 33/// /2101 11021 2//// 39657 40309 57002 333 553// 20000 91103 91202;
0140066480999992011020705004+47183+008000FM-12+052299999V0209999C000019999999N9999999N1-00181+99999103051ADDMA1999999096541MD1810061+9999OA149900151REMSYN088AAXX  07054 06648 33/// /0000 11018 2//// 39654 40305 58006 333 553// 20000 91103 91202;
0175066480999992011020706004+47183+008000FM-12+052299999V0202801N000519999999N9999999N1-00221+99999102991ADDAL19900091KA1999N-00251MA1999999096481MD1810101+9999OA149900211REMSYN100AAXX  07064 06648 33/// /2801 11022 2//// 39648 40299 58010 333 21025 553// 20000 70000 91104 91203;
0140066480999992011020707004+47183+008000FM-12+052299999V0202801N000519999999N9999999N1-00251+99999102961ADDMA1999999096441MD1810131+9999OA149900101REMSYN088AAXX  07074 06648 33/// /2801 11025 2//// 39644 40296 58013 333 553// 20004 91102 91202;
0140066480999992011020708004+47183+008000FM-12+052299999V0202601N000519999999N9999999N1-00191+99999102941ADDMA1999999096441MD1710101+9999OA149900101REMSYN088AAXX  07084 06648 33/// /2601 11019 2//// 39644 40294 57010 333 553// 20274 91102 91202;
0140066480999992011020709004+47183+008000FM-12+052299999V0202501N000519999999N9999999N1+00031+99999102851ADDMA1999999096411MD1710071+9999OA149900151REMSYN088AAXX  07094 06648 33/// /2501 10003 2//// 39641 40285 57007 333 553// 20835 91103 91202;
0140066480999992011020710004+47183+008000FM-12+052299999V0200401N000519999999N9999999N1+00371+99999102731ADDMA1999999096371MD1710071+9999OA149900151REMSYN088AAXX  07104 06648 33/// /0401 10037 2//// 39637 40273 57007 333 553// 2//// 91103 91202;
0140066480999992011020711004+47183+008000FM-12+052299999V0202501N000519999999N9999999N1+00611+99999102641ADDMA1999999096341MD1710101+9999OA149900151REMSYN088AAXX  07114 06648 33/// /2501 10061 2//// 39634 40264 57010 333 553// 2//// 91103 91202;
0140066480999992011020712004+47183+008000FM-12+052299999V0201001N000519999999N9999999N1+00871+99999102491ADDMA1999999096261MD1710151+9999OA149900151REMSYN088AAXX  07124 06648 33/// /1001 10087 2//// 39626 40249 57015 333 553// 2//// 91103 91202;
0140066480999992011020713004+47183+008000FM-12+052299999V0201101N000519999999N9999999N1+01061+99999102381ADDMA1999999096201MD1610171+9999OA149900211REMSYN088AAXX  07134 06648 33/// /1101 10106 2//// 39620 40238 56017 333 553// 2//// 91104 91202;
0140066480999992011020714004+47183+008000FM-12+052299999V0202501N001519999999N9999999N1+01161+99999102301ADDMA1999999096141MD1610201+9999OA149900261REMSYN088AAXX  07144 06648 33/// /2503 10116 2//// 39614 40230 56020 333 553// 2//// 91105 91203;
0140066480999992011020715004+47183+008000FM-12+052299999V0202401N000519999999N9999999N1+01181+99999102261ADDMA1999999096111MD1610151+9999OA149900261REMSYN088AAXX  07154 06648 33/// /2401 10118 2//// 39611 40226 56015 333 553// 2//// 91105 91204;
0140066480999992011020716004+47183+008000FM-12+052299999V0202301N000519999999N9999999N1+01101+99999102271ADDMA1999999096101MD1610101+9999OA149900261REMSYN088AAXX  07164 06648 33/// /2301 10110 2//// 39610 40227 56010 333 553// 20486 91105 91204;
0140066480999992011020717004+47183+008000FM-12+052299999V0202401N000519999999N9999999N1+00701+99999102361ADDMA1999999096101MD1710041+9999OA149900151REMSYN088AAXX  07174 06648 33/// /2401 10070 2//// 39610 40236 57004 333 553// 20054 91103 91202;
0159066480999992011020718004+47183+008000FM-12+052299999V0200601N000519999999N9999999N1+00501+99999102411ADDKA1120M+01211MA1999999096101MD1510011+9999OA149900261REMSYN094AAXX  07184 06648 33/// /0601 10050 2//// 39610 40241 55001 333 10121 553// 20000 91105 91204;
0140066480999992011020719004+47183+008000FM-12+052299999V0201301N001019999999N9999999N1+00301+99999102441ADDMA1999999096081MD1710021+9999OA149900151REMSYN088AAXX  07194 06648 33/// /1302 10030 2//// 39608 40244 57002 333 553// 20000 91103 91202;
0087066480999992011020720004+47183+008000FM-12+052299999V0202701N001019999999N9999999N1+00181+99999102481ADDMA1999999096091REMSYN060AAXX  07204 06648 43/// /2702 10018 2//// 39609 40248 5////;
0140066480999992011020721004+47183+008000FM-12+052299999V0200901N001519999999N9999999N1+00211+99999102491ADDMA1999999096111MD1310011+9999OA149900211REMSYN088AAXX  07214 06648 33/// /0903 10021 2//// 39611 40249 53001 333 553// 20000 91104 91203;
0140066480999992011020722004+47183+008000FM-12+052299999V0203201N000519999999N9999999N1+00191+99999102521ADDMA1999999096131MD1310051+9999OA149900211REMSYN088AAXX  07224 06648 33/// /3201 10019 2//// 39613 40252 53005 333 553// 20000 91104 91203;
0140066480999992011020723004+47183+008000FM-12+052299999V0201101N000519999999N9999999N1+00091+99999102531ADDMA1999999096121MD1219999+9999OA149900211REMSYN088AAXX  07234 06648 33/// /1101 10009 2//// 39612 40253 52/// 333 553// 20000 91104 91203;
0140066480999992011020800004+47183+008000FM-12+052299999V0201801N001019999999N9999999N1-00021+99999102571ADDMA1999999096131MD1210021+9999OA149900261REMSYN088AAXX  08004 06648 33/// /1802 11002 2//// 39613 40257 52002 333 553// 20000 91105 91204;
0140066480999992011020801004+47183+008000FM-12+052299999V0202901N000519999999N9999999N1-00091+99999102581ADDMA1999999096121MD1010011+9999OA149900211REMSYN088AAXX  08014 06648 33/// /2901 11009 2//// 39612 40258 50001 333 553// 20000 91104 91203;
0140066480999992011020802004+47183+008000FM-12+052299999V0201201N000519999999N9999999N1-00101+99999102571ADDMA1999999096111MD1710011+9999OA149900211REMSYN088AAXX  08024 06648 33/// /1201 11010 2//// 39611 40257 57001 333 553// 20000 91104 91202;
0140066480999992011020803004+47183+008000FM-12+052299999V0201301N000519999999N9999999N1-00081+99999102531ADDMA1999999096081MD1810051+9999OA149900211REMSYN088AAXX  08034 06648 33/// /1301 11008 2//// 39608 40253 58005 333 553// 20000 91104 91203;
0140066480999992011020804004+47183+008000FM-12+052299999V0202801N000519999999N9999999N1-00151+99999102571ADDMA1999999096101MD1510021+9999OA149900151REMSYN088AAXX  08044 06648 33/// /2801 11015 2//// 39610 40257 55002 333 553// 20000 91103 91202;
0140066480999992011020805004+47183+008000FM-12+052299999V0209999C000019999999N9999999N1-00101+99999102591ADDMA1999999096131MD1310021+9999OA149900101REMSYN088AAXX  08054 06648 33/// /0000 11010 2//// 39613 40259 53002 333 553// 20000 91102 91202;
0175066480999992011020806004+47183+008000FM-12+052299999V0200901N001519999999N9999999N1-00211+99999102621ADDAL19900091KA1999N-00201MA1999999096131MD1210051+9999OA149900211REMSYN100AAXX  08064 06648 33/// /0903 11021 2//// 39613 40262 52005 333 21020 553// 20000 70000 91104 91203;
0140066480999992011020807004+47183+008000FM-12+052299999V0209999C000019999999N9999999N1-00231+99999102641ADDMA1999999096151MD1210051+9999OA149900211REMSYN088AAXX  08074 06648 33/// /0000 11023 2//// 39615 40264 52005 333 553// 20004 91104 91203;
0087066480999992011020808004+47183+008000FM-12+052299999V0201201N001019999999N9999999N1-00231+99999102711ADDMA1999999096211REMSYN060AAXX  08084 06648 43/// /1202 11023 2//// 39621 40271 5////;
0087066480999992011020809004+47183+008000FM-12+052299999V0201501N001019999999N9999999N1+00161+99999102631ADDMA1999999096231REMSYN060AAXX  08094 06648 43/// /1502 10016 2//// 39623 40263 5////;
0140066480999992011020810004+47183+008000FM-12+052299999V0202501N000519999999N9999999N1+00421+99999102581ADDMA1999999096241MD1210091+9999OA149900151REMSYN088AAXX  08104 06648 33/// /2501 10042 2//// 39624 40258 52009 333 553// 2//// 91103 91203;
0140066480999992011020811004+47183+008000FM-12+052299999V0201001N000519999999N9999999N1+00721+99999102481ADDMA1999999096221MD1010011+9999OA149900151REMSYN088AAXX  08114 06648 33/// /1001 10072 2//// 39622 40248 50001 333 553// 2//// 91103 91203;
0140066480999992011020812004+47183+008000FM-12+052299999V0201301N001019999999N9999999N1+00901+99999102421ADDMA1999999096201MD1810031+9999OA149900211REMSYN088AAXX  08124 06648 33/// /1302 10090 2//// 39620 40242 58003 333 553// 2//// 91104 91204;
0159066480999992011020813004+47183+008000FM-12+052299999V0201101N003619999999N9999999N1+01081+99999102311ADDMA1999999096141MD1710101+9999OA149999999REMSYN088AAXX  08134 06648 33/// /1107 10108 2//// 39614 40231 57010 333 553// 2//// 91106 91204;EQDQ01  00312WGOSPD
0140066480999992011020814004+47183+008000FM-12+052299999V0201201N001519999999N9999999N1+01091+99999102271ADDMA1999999096101MD1810121+9999OA149900461REMSYN088AAXX  08144 06648 33/// /1203 10109 2//// 39610 40227 58012 333 553// 2//// 91109 91207;
0140066480999992011020815004+47183+008000FM-12+052299999V0201601N001519999999N9999999N1+01071+99999102251ADDMA1999999096081MD1610121+9999OA149900461REMSYN088AAXX  08154 06648 33/// /1603 10107 2//// 39608 40225 56012 333 553// 20979 91109 91207;
0140066480999992011020816004+47183+008000FM-12+052299999V0201201N001019999999N9999999N1+00991+99999102251ADDMA1999999096061MD1610081+9999OA149900311REMSYN088AAXX  08164 06648 33/// /1202 10099 2//// 39606 40225 56008 333 553// 20468 91106 91204;
0140066480999992011020817004+47183+008000FM-12+052299999V0201401N001019999999N9999999N1+00791+99999102301ADDMA1999999096061MD1710041+9999OA149900261REMSYN088AAXX  08174 06648 33/// /1402 10079 2//// 39606 40230 57004 333 553// 20054 91105 91203;
0159066480999992011020818004+47183+008000FM-12+052299999V0209999C000019999999N9999999N1+00511+99999102411ADDKA1120M+01101MA1999999096101MD1310021+9999OA149900461REMSYN094AAXX  08184 06648 33/// /0000 10051 2//// 39610 40241 53002 333 10110 553// 20000 91109 91207;
0140066480999992011020819004+47183+008000FM-12+052299999V0201401N001019999999N9999999N1+00331+99999102471ADDMA1999999096121MD1110061+9999OA149900101REMSYN088AAXX  08194 06648 33/// /1402 10033 2//// 39612 40247 51006 333 553// 20000 91102 91202;
0087066480999992011020820004+47183+008000FM-12+052299999V0201201N000519999999N9999999N1+00221+99999102491ADDMA1999999096111REMSYN060AAXX  08204 06648 43/// /1201 10022 2//// 39611 40249 5////;
0140066480999992011020821004+47183+008000FM-12+052299999V0200901N000519999999N9999999N1+00111+99999102501ADDMA1999999096101MD1710091+9999OA149900261REMSYN088AAXX  08214 06648 33/// /0901 10011 2//// 39610 40250 57000 333 553// 20000 91105 91203;
0140066480999992011020822004+47183+008000FM-12+052299999V0201101N001019999999N9999999N1+00031+99999102501ADDMA1999999096081MD1710041+9999OA149900151REMSYN088AAXX  08224 06648 33/// /1102 10003 2//// 39608 40250 57004 333 553// 20000 91103 91202;
0140066480999992011020823004+47183+008000FM-12+052299999V0201501N000519999999N9999999N1+00031+99999102491ADDMA1999999096071MD1719999+9999OA149900211REMSYN088AAXX  08234 06648 33/// /1501 10003 2//// 39607 40249 57/// 333 553// 20000 91104 91203;
0140066480999992011020900004+47183+008000FM-12+052299999V0201301N000519999999N9999999N1-00031+99999102511ADDMA1999999096071MD1710031+9999OA149900461REMSYN088AAXX  09004 06648 33/// /1301 11003 2//// 39607 40251 57003 333 553// 20000 91109 91207;
0140066480999992011020901004+47183+008000FM-12+052299999V0201101N001019999999N9999999N1-00131+99999102501ADDMA1999999096041MD1710041+9999OA149900101REMSYN088AAXX  09014 06648 33/// /1102 11013 2//// 39604 40250 57004 333 553// 20000 91102 91202;
0140066480999992011020902004+47183+008000FM-12+052299999V0209999C000019999999N9999999N1-00111+99999102491ADDMA1999999096041MD1710031+9999OA149900151REMSYN088AAXX  09024 06648 33/// /0000 11011 2//// 39604 40249 57003 333 553// 20000 91103 91202;
0140066480999992011020903004+47183+008000FM-12+052299999V0200901N001019999999N9999999N1-00201+99999102501ADDMA1999999096021MD1710051+9999OA149900211REMSYN088AAXX  09034 06648 33/// /0902 11020 2//// 39602 40250 57005 333 553// 20000 91104 91203;
0101066480999992011020904004+47183+008000FM-12+052299999V0201001N000519999999N9999999N1-00181+99999102491ADDMA1999999096021MD1710021+9999REMSYN060AAXX  09044 06648 43/// /1001 11018 2//// 39602 40249 57002;
0140066480999992011020905004+47183+008000FM-12+052299999V0201301N000519999999N9999999N1-00241+99999102501ADDMA1999999096011MD1610031+9999OA149900151REMSYN088AAXX  09054 06648 33/// /1301 11024 2//// 39601 40250 56003 333 553// 20000 91103 91202;
0175066480999992011020906004+47183+008000FM-12+052299999V0200801N000519999999N9999999N1-00211+99999102491ADDAL19900091KA1999N-00281MA1999999096011MD1710011+9999OA149900211REMSYN100AAXX  09064 06648 33/// /0801 11021 2//// 39601 40249 57001 333 21028 553// 20000 70000 91104 91203;
0140066480999992011020907004+47183+008000FM-12+052299999V0201101N000519999999N9999999N1-00341+99999102551ADDMA1999999096041MD1310021+9999OA149900101REMSYN088AAXX  09074 06648 33/// /1101 11034 2//// 39604 40255 53002 333 553// 20007 91102 91202;
0108066480999992011020908004+47183+008000FM-12+052299999V02099999999999999999N9999999N1+99999+99999999999ADDMD1219999+9999REMSYN082AAXX  09084 06648 43/// ///// 1//// 2//// 3//// 52/// 333 553// 20130 91103 91202;
0140066480999992011020909004+47183+008000FM-12+052299999V0201201N000519999999N9999999N1-00021+99999102541ADDMA1999999096101MD1210091+9999OA149900211REMSYN088AAXX  09094 06648 33/// /1201 11002 2//// 39610 40254 52009 333 553// 20796 91104 91203;
0140066480999992011020910004+47183+008000FM-12+052299999V0202101N000519999999N9999999N1+00251+99999102471ADDMA1999999096101MD1210061+9999OA149900211REMSYN088AAXX  09104 06648 33/// /2101 10025 2//// 39610 40247 52006 333 553// 2//// 91104 91203;
0140066480999992011020911004+47183+008000FM-12+052299999V0201101N000519999999N9999999N1+00451+99999102401ADDMA1999999096081MD1819999+9999OA149900101REMSYN088AAXX  09114 06648 33/// /1101 10045 2//// 39608 40240 58/// 333 553// 2//// 91102 91201;
0117066480999992011020912004+47183+008000FM-12+052299999V0201601N000519999999N9999999N1+00621+99999102321ADDMA1999999096041MD1710061+9999REMSYN076AAXX  09124 06648 33/// /1601 10062 2//// 39604 40232 57006 333 553// 2////;
0140066480999992011020913004+47183+008000FM-12+052299999V0201301N001019999999N9999999N1+00721+99999102241ADDMA1999999095991MD1810111+9999OA149900211REMSYN088AAXX  09134 06648 33/// /1302 10072 2//// 39599 40224 58011 333 553// 2//// 91104 91202;
0140066480999992011020914004+47183+008000FM-12+052299999V0201101N001519999999N9999999N1+00831+99999102191ADDMA1999999095971MD1610111+9999OA149900211REMSYN088AAXX  09144 06648 33/// /1103 10083 2//// 39597 40219 56011 333 553// 2//// 91104 91202;
0140066480999992011020915004+47183+008000FM-12+052299999V0201101N002119999999N9999999N1+00811+99999102201ADDMA1999999095971MD1710071+9999OA149900261REMSYN088AAXX  09154 06648 33/// /1104 10081 2//// 39597 40220 57007 333 553// 20976 91105 91204;
0140066480999992011020916004+47183+008000FM-12+052299999V0201001N002119999999N9999999N1+00681+99999102231ADDMA1999999095971MD1710021+9999OA149900311REMSYN088AAXX  09164 06648 33/// /1004 10068 2//// 39597 40223 57002 333 553// 20468 91106 91205;
0140066480999992011020917004+47183+008000FM-12+052299999V0200401N001519999999N9999999N1+00621+99999102261ADDMA1999999095991MD1210021+9999OA149900311REMSYN088AAXX  09174 06648 33/// /0403 10062 2//// 39599 40226 52002 333 553// 20058 91106 91205;
0159066480999992011020918004+47183+008000FM-12+052299999V0201301N000519999999N9999999N1+00301+99999102391ADDKA1120M+00831MA1999999096041MD1210071+9999OA149900311REMSYN094AAXX  09184 06648 33/// /1301 10030 2//// 39604 40239 52007 333 10083 553// 20000 91106 91205;
0140066480999992011020919004+47183+008000FM-12+052299999V0201101N001019999999N9999999N1+00131+99999102451ADDMA1999999096051MD1210081+9999OA149900311REMSYN088AAXX  09194 06648 33/// /1102 10013 2//// 39605 40245 52008 333 553// 20000 91106 91204;
0087066480999992011020920004+47183+008000FM-12+052299999V0209999C000019999999N9999999N1+00161+99999102441ADDMA1999999096051REMSYN060AAXX  09204 06648 43/// /0000 10016 2//// 39605 40244 5////;
0140066480999992011020921004+47183+008000FM-12+052299999V0209999C000019999999N9999999N1+00041+99999102501ADDMA1999999096081MD1210041+9999OA149900311REMSYN088AAXX  09214 06648 33/// /0000 10004 2//// 39608 40250 52004 333 553// 20000 91106 91205;
0140066480999992011020922004+47183+008000FM-12+052299999V0209999C000019999999N9999999N1-00011+99999102531ADDMA1999999096101MD1210051+9999OA149900151REMSYN088AAXX  09224 06648 33/// /0000 11001 2//// 39610 40253 52005 333 553// 20000 91103 91202;
0140066480999992011020923004+47183+008000FM-12+052299999V0201201N001019999999N9999999N1-00141+99999102581ADDMA1999999096111MD1210051+9999OA149900151REMSYN088AAXX  09234 06648 33/// /1202 11014 2//// 39611 40258 52005 333 553// 20000 91103 91202;
0140066480999992011021000004+47183+008000FM-12+052299999V0209999C000019999999N9999999N1-00121+99999102601ADDMA1999999096141MD1110061+9999OA149900311REMSYN088AAXX  10004 06648 33/// /0000 11012 2//// 39614 40260 51006 333 553// 20000 91106 91205;
0140066480999992011021001004+47183+008000FM-12+052299999V0201201N000519999999N9999999N1-00161+99999102601ADDMA1999999096131MD1210031+9999OA149900151REMSYN088AAXX  10014 06648 33/// /1201 11016 2//// 39613 40260 52003 333 553// 20000 91103 91202;
0140066480999992011021002004+47183+008000FM-12+052299999V0202601N000519999999N9999999N1-00241+99999102621ADDMA1999999096131MD1210021+9999OA149900151REMSYN088AAXX  10024 06648 33/// /2601 11024 2//// 39613 40262 52002 333 553// 20000 91103 91202;
0140066480999992011021003004+47183+008000FM-12+052299999V0209999C000019999999N9999999N1-00261+99999102611ADDMA1999999096111MD1710031+9999OA149900151REMSYN088AAXX  10034 06648 33/// /0000 11026 2//// 39611 40261 57003 333 553// 20000 91103 91202;
0140066480999992011021004004+47183+008000FM-12+052299999V0202401N000519999999N9999999N1-00281+99999102621ADDMA1999999096121MD1710011+9999OA149900101REMSYN088AAXX  10044 06648 33/// /2401 11028 2//// 39612 40262 57001 333 553// 20000 91102 91201;
0140066480999992011021005004+47183+008000FM-12+052299999V0209999C000019999999N9999999N1-00291+99999102661ADDMA1999999096151MD1310021+9999OA149900051REMSYN088AAXX  10054 06648 33/// /0000 11029 2//// 39615 40266 53002 333 553// 20000 91101 91201;
0175066480999992011021006004+47183+008000FM-12+052299999V0201301N000519999999N9999999N1-00321+99999102651ADDAL19900091KA1999N-00331MA1999999096141MD1210031+9999OA149900151REMSYN100AAXX  10064 06648 33/// /1301 11032 2//// 39614 40265 52003 333 21033 553// 20000 70000 91103 91203;
0140066480999992011021007004+47183+008000FM-12+052299999V0202701N001019999999N9999999N1-00361+99999102711ADDMA1999999096181MD1219999+9999OA149900101REMSYN088AAXX  10074 06648 33/// /2702 11036 2//// 39618 40271 52/// 333 553// 20000 91102 91201;
0140066480999992011021008004+47183+008000FM-12+052299999V0201301N000519999999N9999999N1-00201+99999102701ADDMA1999999096211MD1210061+9999OA149900101REMSYN088AAXX  10084 06648 33/// /1301 11020 2//// 39621 40270 52006 333 553// 20292 91102 91202;
0140066480999992011021009004+47183+008000FM-12+052299999V0209999C000019999999N9999999N1+00001+99999102641ADDMA1999999096201MD1010061+9999OA149900151REMSYN088AAXX  10094 06648 33/// /0000 10000 2//// 39620 40264 50006 333 553// 20850 91103 91202;
0140066480999992011021010004+47183+008000FM-12+052299999V0202501N000519999999N9999999N1+00291+99999102521ADDMA1999999096161MD1719999+9999OA149900151REMSYN088AAXX  10104 06648 33/// /2501 10029 2//// 39616 40252 57/// 333 553// 2//// 91103 91201;
