0140066430999992011010100004+47250+007783FM-12+041699999V0202301N001019999999N9999999N1-00051-00111102501ADDMA1999999097241MD1710081+9999OA149900311REMSYN088AAXX  01004 06643 33/// /2302 11005 21011 39724 40250 57008 333 55300 20000 91106 91203;
0140066430999992011010101004+47250+007783FM-12+041699999V0202301N001019999999N9999999N1-00071-00121102441ADDMA1999999097181MD1810121+9999OA149900211REMSYN088AAXX  01014 06643 33/// /2302 11007 21012 39718 40244 58012 333 553// 20000 91104 91203;
0140066430999992011010102004+47250+007783FM-12+041699999V0202401N001519999999N9999999N1-00041-00131102441ADDMA1999999097181MD1610101+9999OA149900311REMSYN088AAXX  01024 06643 33/// /2403 11004 21013 39718 40244 56010 333 55300 20000 91106 91203;
0140066430999992011010103004+47250+007783FM-12+041699999V0202301N001519999999N9999999N1-00061-00101102411ADDMA1999999097151MD1610091+9999OA149900411REMSYN088AAXX  01034 06643 33/// /2303 11006 21010 39715 40241 56009 333 55300 20000 91108 91204;
0140066430999992011010104004+47250+007783FM-12+041699999V0202401N001519999999N9999999N1-00041-00101102361ADDMA1999999097111MD1810071+9999OA149900461REMSYN088AAXX  01044 06643 33/// /2403 11004 21010 39711 40236 58007 333 55300 20000 91109 91204;
0140066430999992011010105004+47250+007783FM-12+041699999V0202301N001519999999N9999999N1-00051-00131102381ADDMA1999999097131MD1510051+9999OA149900461REMSYN088AAXX  01054 06643 33/// /2303 11005 21013 39713 40238 55005 333 55300 20000 91109 91205;
0226066430999992011010106004+47250+007783FM-12+041699999V0202301N001519999999N9999999N1-00051-00131102411ADDAL19900091GJ100009IA2999-00109KA1999N-00111MA1999999097151MD1410001+9999OA149900461REMSYN112AAXX  01064 06643 33/// /2303 11005 21013 39715 40241 53000 333 21011 3/101 55000 55300 20000 70000 91109 91205;EQDQ01+000032APCTEN
0140066430999992011010107004+47250+007783FM-12+041699999V0202201N001519999999N9999999N1-00031-00121102411ADDMA1999999097161MD1210051+9999OA149900461REMSYN088AAXX  01074 06643 33/// /2203 11003 21012 39716 40241 52005 333 55300 20000 91109 91204;
0140066430999992011010108004+47250+007783FM-12+041699999V0202201N001519999999N9999999N1-00011-00091102421ADDMA1999999097171MD1219999+9999OA149900461REMSYN088AAXX  01084 06643 33/// /2203 11001 21009 39717 40242 52/// 333 55300 20029 91109 91204;
0087066430999992011010109004+47250+007783FM-12+041699999V0202201N001519999999N9999999N1+00011-00081102431ADDMA1999999097181REMSYN060AAXX  01094 06643 43/// /2203 10001 21008 39718 40243 5////;
0087066430999992011010110004+47250+007783FM-12+041699999V0202201N002119999999N9999999N1+00061-00061102401ADDMA1999999097171REMSYN060AAXX  01104 06643 43/// /2204 10006 21006 39717 40240 5////;
0140066430999992011010111004+47250+007783FM-12+041699999V0202301N002119999999N9999999N1+00131-00011102331ADDMA1999999097111MD1810061+9999OA149900461REMSYN088AAXX  01114 06643 33/// /2304 10013 21001 39711 40233 58006 333 55300 20515 91109 91204;
0087066430999992011010112004+47250+007783FM-12+041699999V0202301N002619999999N9999999N1+00151-00031102271ADDMA1999999097061REMSYN060AAXX  01124 06643 43/// /2305 10015 21003 39706 40227 5////;
0087066430999992011010113004+47250+007783FM-12+041699999V0202301N002119999999N9999999N1+00171-00041102211ADDMA1999999097011REMSYN060AAXX  01134 06643 43/// /2304 10017 21004 39701 40221 5////;
0087066430999992011010114004+47250+007783FM-12+041699999V0202601N001519999999N9999999N1+00161-00061102171ADDMA1999999096971REMSYN060AAXX  01144 06643 43/// /2603 10016 21006 39697 40217 5////;
0087066430999992011010115004+47250+007783FM-12+041699999V0202601N001519999999N9999999N1+00131-00071102191ADDMA1999999096981REMSYN060AAXX  01154 06643 43/// /2603 10013 21007 39698 40219 5////;
0087066430999992011010116004+47250+007783FM-12+041699999V0202501N001519999999N9999999N1+00101-00101102211ADDMA1999999096991REMSYN060AAXX  01164 06643 43/// /2503 10010 21010 39699 40221 5////;
0087066430999992011010117004+47250+007783FM-12+041699999V0201701N001019999999N9999999N1+00081-00081102231ADDMA1999999097011REMSYN060AAXX  01174 06643 43/// /1702 10008 21008 39701 40223 5////;
0087066430999992011010118004+47250+007783FM-12+041699999V0201501N001519999999N9999999N1+00041-00051102231ADDMA1999999097001REMSYN060AAXX  01184 06643 43/// /1503 10004 21005 39700 40223 5////;
0103066430999992011010119004+47250+007783FM-12+041699999V0200801N002119999999N9999999N1+00051-00081102251ADDMA1999999097021REMSYN076AAXX  01194 06643 33/// /0804 10005 21008 39702 40225 5//// 333 553// 20000;
0140066430999992011010120004+47250+007783FM-12+041699999V0201101N001519999999N9999999N1+00051-00101102261ADDMA1999999097031MD1210021+9999OA149900361REMSYN088AAXX  01204 06643 33/// /1103 10005 21010 39703 40226 52002 333 55300 20000 91107 91205;
0140066430999992011010121004+47250+007783FM-12+041699999V0201501N000519999999N9999999N1+00031-00091102231ADDMA1999999097001MD1010001+9999OA149900461REMSYN088AAXX  01214 06643 33/// /1501 10003 21009 39700 40223 50000 333 55300 20000 91109 91206;
0140066430999992011010122004+47250+007783FM-12+041699999V0200601N001019999999N9999999N1+00021-00061102211ADDMA1999999096981MD1710041+9999OA149900211REMSYN088AAXX  01224 06643 33/// /0602 10002 21006 39698 40221 57004 333 55300 20000 91104 91203;
0140066430999992011010123004+47250+007783FM-12+041699999V0200601N001519999999N9999999N1+00001-00081102191ADDMA1999999096951MD1710081+9999OA149900211REMSYN088AAXX  01234 06643 33/// /0603 10000 21008 39695 40219 57008 333 55300 20000 91104 91203;
0140066430999992011010200004+47250+007783FM-12+041699999V0200601N002119999999N9999999N1+00011-00131102161ADDMA1999999096931MD1710071+9999OA149900461REMSYN088AAXX  02004 06643 33/// /0604 10001 21013 39693 40216 57007 333 55300 20000 91109 91206;
0140066430999992011010201004+47250+007783FM-12+041699999V0200901N001519999999N9999999N1+00011-00281102131ADDMA1999999096901MD1710081+9999OA149900361REMSYN088AAXX  02014 06643 33/// /0903 10001 21028 39690 40213 57008 333 55300 20000 91107 91204;
0087066430999992011010202004+47250+007783FM-12+041699999V0202001N000519999999N9999999N1-00041-00171102141ADDMA1999999096901REMSYN060AAXX  02024 06643 43/// /2001 11004 21017 39690 40214 5////;
0087066430999992011010203004+47250+007783FM-12+041699999V0200901N000519999999N9999999N1-00051-00141102171ADDMA1999999096931REMSYN060AAXX  02034 06643 43/// /0901 11005 21014 39693 40217 5////;
0087066430999992011010204004+47250+007783FM-12+041699999V0209999C000019999999N9999999N1-00061-00161102181ADDMA1999999096931REMSYN060AAXX  02044 06643 43/// /0000 11006 21016 39693 40218 5////;
0087066430999992011010205004+47250+007783FM-12+041699999V0200601N000519999999N9999999N1-00051-00151102201ADDMA1999999096951REMSYN060AAXX  02054 06643 43/// /0601 11005 21015 39695 40220 5////;
0134066430999992011010206004+47250+007783FM-12+041699999V0209999C000019999999N9999999N1-00051-00131102181ADDIA2999-00109KA1999N-00071MA1999999096941REMSYN082AAXX  02064 06643 43/// /0000 11005 21013 39694 40218 5//// 333 21007 3/101 55000;
0140066430999992011010207004+47250+007783FM-12+041699999V0200501N001519999999N9999999N1-00031-00121102191ADDMA1999999096951MD1210021+9999OA149900151REMSYN088AAXX  02074 06643 33/// /0503 11003 21012 39695 40219 52002 333 55300 20000 91103 91203;
0140066430999992011010208004+47250+007783FM-12+041699999V0200601N001019999999N9999999N1-00041-00101102251ADDMA1999999097001MD1210051+9999OA149900151REMSYN088AAXX  02084 06643 33/// /0602 11004 21010 39700 40225 52005 333 55300 20011 91103 91203;
0140066430999992011010209004+47250+007783FM-12+041699999V0200501N001519999999N9999999N1-00011-00131102281ADDMA1999999097041MD1310101+9999OA149900261REMSYN088AAXX  02094 06643 33/// /0503 11001 21013 39704 40228 53010 333 55300 20086 91105 91203;
0140066430999992011010210004+47250+007783FM-12+041699999V0200601N001519999999N9999999N1+00031-00131102311ADDMA1999999097071MD1110121+9999OA149900261REMSYN088AAXX  02104 06643 33/// /0603 10003 21013 39707 40231 51012 333 55300 20176 91105 91204;
0140066430999992011010211004+47250+007783FM-12+041699999V0200701N002619999999N9999999N1+00061-00161102301ADDMA1999999097071MD1110071+9999OA149900411REMSYN088AAXX  02114 06643 33/// /0705 10006 21016 39707 40230 51007 333 55300 20220 91108 91206;
0175066430999992011010212004+47250+007783FM-12+041699999V0200601N003619999999N9999999N1+00111-00181102261ADDMA1999999097041MD1710021+9999OA149900571REMSYN088AAXX  02124 06643 33/// /0607 10011 21018 39704 40226 58000 333 55300 20313 91111 91208;EQDQ01+000082APCTENQ02+000002APC3  
0140066430999992011010213004+47250+007783FM-12+041699999V0200501N004119999999N9999999N1+00111-00281102261ADDMA1999999097041MD1710031+9999OA149900621REMSYN088AAXX  02134 06643 33/// /0508 10011 21028 39704 40226 57003 333 55300 20320 91112 91208;
0103066430999992011010214004+47250+007783FM-12+041699999V0200401N003119999999N9999999N1+00121-00431102281ADDMA1999999097061REMSYN076AAXX  02144 06643 33/// /0406 10012 21043 39706 40228 5//// 333 553// 20295;
0140066430999992011010215004+47250+007783FM-12+041699999V0200401N004119999999N9999999N1+00091-00491102341ADDMA1999999097111MD1210071+9999OA149900721REMSYN088AAXX  02154 06643 33/// /0408 10009 21049 39711 40234 52007 333 55300 20209 91114 91208;
0140066430999992011010216004+47250+007783FM-12+041699999V0200501N002119999999N9999999N1+00021-00391102381ADDMA1999999097141MD1310101+9999OA149900721REMSYN088AAXX  02164 06643 33/// /0504 10002 21039 39714 40238 53010 333 55300 20047 91114 91208;
0140066430999992011010217004+47250+007783FM-12+041699999V0200701N002119999999N9999999N1-00021-00401102431ADDMA1999999097181MD1110121+9999OA149900671REMSYN088AAXX  02174 06643 33/// /0704 11002 21040 39718 40243 51012 333 55300 20000 91113 91208;
0159066430999992011010218004+47250+007783FM-12+041699999V0200901N001019999999N9999999N1-00101-00421102461ADDKA1120M+00131MA1999999097191MD1110081+9999OA149900721REMSYN094AAXX  02184 06643 33/// /0902 11010 21042 39719 40246 51008 333 10013 55300 20000 91114 91208;
0140066430999992011010219004+47250+007783FM-12+041699999V0200801N001019999999N9999999N1-00111-00431102501ADDMA1999999097231MD1310091+9999OA149900211REMSYN088AAXX  02194 06643 33/// /0802 11011 21043 39723 40250 53009 333 55300 20000 91104 91203;
0140066430999992011010220004+47250+007783FM-12+041699999V0200801N001019999999N9999999N1-00171-00471102541ADDMA1999999097251MD1210071+9999OA149900151REMSYN088AAXX  02204 06643 33/// /0802 11017 21047 39725 40254 52007 333 55300 20000 91103 91203;
0140066430999992011010221004+47250+007783FM-12+041699999V0209999C000019999999N9999999N1-00291-00441102581ADDMA1999999097271MD1210081+9999OA149900671REMSYN088AAXX  02214 06643 33/// /0000 11029 21044 39727 40258 52008 333 55300 20000 91113 91208;
0140066430999992011010222004+47250+007783FM-12+041699999V0201101N001019999999N9999999N1-00371-00521102641ADDMA1999999097311MD1210081+9999OA149900151REMSYN088AAXX  02224 06643 33/// /1102 11037 21052 39731 40264 52008 333 55300 20000 91103 91202;
0140066430999992011010223004+47250+007783FM-12+041699999V0200701N000519999999N9999999N1-00411-00541102651ADDMA1999999097311MD1210061+9999OA149900151REMSYN088AAXX  02234 06643 33/// /0701 11041 21054 39731 40265 52006 333 55300 20000 91103 91202;
0140066430999992011010300004+47250+007783FM-12+041699999V0200801N001019999999N9999999N1-00311-00571102621ADDMA1999999097301MD1010031+9999OA149900721REMSYN088AAXX  03004 06643 33/// /0802 11031 21057 39730 40262 50003 333 55300 20000 91114 91208;
0140066430999992011010301004+47250+007783FM-12+041699999V0209999C000019999999N9999999N1-00441-00581102631ADDMA1999999097291MD1710021+9999OA149900261REMSYN088AAXX  03014 06643 33/// /0000 11044 21058 39729 40263 57002 333 55300 20000 91105 91204;
0140066430999992011010302004+47250+007783FM-12+041699999V0209999C000019999999N9999999N1-00521-00611102651ADDMA1999999097291MD1719999+9999OA149900261REMSYN088AAXX  03024 06643 33/// /0000 11052 21061 39729 40265 57/// 333 55300 20000 91105 91204;
0087066430999992011010303004+47250+007783FM-12+041699999V0209999C000019999999N9999999N1-00571-00631102651ADDMA1999999097281REMSYN060AAXX  03034 06643 43/// /0000 11057 21063 39728 40265 5////;
0140066430999992011010304004+47250+007783FM-12+041699999V0209999C000019999999N9999999N1-00681-00731102681ADDMA1999999097291MD1010001+9999OA149900051REMSYN088AAXX  03044 06643 33/// /0000 11068 21073 39729 40268 50000 333 55300 20000 91101 91200;
0140066430999992011010305004+47250+007783FM-12+041699999V0200501N000519999999N9999999N1-00691-00751102681ADDMA1999999097281MD1710011+9999OA149900101REMSYN088AAXX  03054 06643 33/// /0501 11069 21075 39728 40268 57001 333 55300 20000 91102 91201;
0207066430999992011010306004+47250+007783FM-12+041699999V0200501N000519999999N9999999N1-00721-00801102691ADDAL19900091GJ100009IA2999-01009KA1999N-00731MA1999999097291MD1010011+9999OA149900261REMSYN112AAXX  03064 06643 33/// /0501 11072 21080 39729 40269 50001 333 21073 3/110 55000 55300 20000 70000 91105 91204;
0140066430999992011010307004+47250+007783FM-12+041699999V0202301N000519999999N9999999N1-00781-00851102691ADDMA1999999097281MD1710011+9999OA149900101REMSYN088AAXX  03074 06643 33/// /2301 11078 21085 39728 40269 57001 333 55300 20000 91102 91202;
0140066430999992011010308004+47250+007783FM-12+041699999V0200201N000519999999N9999999N1-00741-00811102711ADDMA1999999097301MD1219999+9999OA149900101REMSYN088AAXX  03084 06643 33/// /0201 11074 21081 39730 40271 52/// 333 55300 20032 91102 91201;
0103066430999992011010309004+47250+007783FM-12+041699999V0200501N001019999999N9999999N1-00581-00691102661ADDMA1999999097291REMSYN076AAXX  03094 06643 33/// /0502 11058 21069 39729 40266 5//// 333 553// 20346;
0140066430999992011010310004+47250+007783FM-12+041699999V0200801N002619999999N9999999N1-00251-00571102621ADDMA1999999097311MD1310031+9999OA149900411REMSYN088AAXX  03104 06643 33/// /0805 11025 21057 39731 40262 53003 333 55308 20878 91108 91205;
0140066430999992011010311004+47250+007783FM-12+041699999V0200701N004119999999N9999999N1-00141-00511102541ADDMA1999999097261MD1710041+9999OA149900721REMSYN088AAXX  03114 06643 33/// /0708 11014 21051 39726 40254 57004 333 55308 2//// 91114 91208;
0140066430999992011010312004+47250+007783FM-12+041699999V0200801N003619999999N9999999N1-00061-00571102451ADDMA1999999097191MD1710101+9999OA149900721REMSYN088AAXX  03124 06643 33/// /0807 11006 21057 39719 40245 57010 333 55308 2//// 91114 91209;
0140066430999992011010313004+47250+007783FM-12+041699999V0200901N003619999999N9999999N1-00021-00581102411ADDMA1999999097161MD1610151+9999OA149900721REMSYN088AAXX  03134 06643 33/// /0907 11002 21058 39716 40241 56015 333 55308 2//// 91114 91209;
0103066430999992011010314004+47250+007783FM-12+041699999V0200801N003119999999N9999999N1-00021-00581102411ADDMA1999999097161REMSYN076AAXX  03144 06643 33/// /0806 11002 21058 39716 40241 5//// 333 553// 20882;
0103066430999992011010315004+47250+007783FM-12+041699999V0200801N003619999999N9999999N1-00071-00641102421ADDMA1999999097161REMSYN076AAXX  03154 06643 33/// /0807 11007 21064 39716 40242 5//// 333 553// 20306;
0140066430999992011010316004+47250+007783FM-12+041699999V0201001N001519999999N9999999N1-00201-00631102431ADDMA1999999097141MD1710021+9999OA149900771REMSYN088AAXX  03164 06643 33/// /1003 11020 21063 39714 40243 57002 333 55300 20047 91115 91210;
0140066430999992011010317004+47250+007783FM-12+041699999V0201201N000519999999N9999999N1-00371-00601102461ADDMA1999999097141MD1710021+9999OA149900461REMSYN088AAXX  03174 06643 33/// /1201 11037 21060 39714 40246 57002 333 55300 20000 91109 91206;
0159066430999992011010318004+47250+007783FM-12+041699999V0201901N000519999999N9999999N1-00451-00621102491ADDKA1120M-00011MA1999999097151MD1510011+9999OA149900771REMSYN094AAXX  03184 06643 33/// /1901 11045 21062 39715 40249 55001 333 11001 55300 20000 91115 91210;
0140066430999992011010319004+47250+007783FM-12+041699999V0202201N000519999999N9999999N1-00551-00661102491ADDMA1999999097131MD1710011+9999OA149900101REMSYN088AAXX  03194 06643 33/// /2201 11055 21066 39713 40249 57001 333 55300 20000 91102 91201;
0140066430999992011010320004+47250+007783FM-12+041699999V0202201N000519999999N9999999N1-00601-00691102471ADDMA1999999097101MD1810041+9999OA149900101REMSYN088AAXX  03204 06643 33/// /2201 11060 21069 39710 40247 58004 333 55300 20000 91102 91201;
0140066430999992011010321004+47250+007783FM-12+041699999V0202301N001019999999N9999999N1-00661-00741102471ADDMA1999999097091MD1710061+9999OA149900461REMSYN088AAXX  03214 06643 33/// /2302 11066 21074 39709 40247 57006 333 55300 20000 91109 91206;
0140066430999992011010322004+47250+007783FM-12+041699999V0202101N000519999999N9999999N1-00571-00671102451ADDMA1999999097091MD1610041+9999OA149900101REMSYN088AAXX  03224 06643 33/// /2101 11057 21067 39709 40245 56004 333 55300 20000 91102 91202;
0140066430999992011010323004+47250+007783FM-12+041699999V0202101N000519999999N9999999N1-00531-00651102451ADDMA1999999097101MD1410001+9999OA149900101REMSYN088AAXX  03234 06643 33/// /2101 11053 21065 39710 40245 54000 333 55300 20000 91102 91201;
0140066430999992011010400004+47250+007783FM-12+041699999V0202301N001019999999N9999999N1-00501-00661102421ADDMA1999999097081MD1810011+9999OA149900771REMSYN088AAXX  04004 06643 33/// /2302 11050 21066 39708 40242 58001 333 55300 20000 91115 91210;
0140066430999992011010401004+47250+007783FM-12+041699999V0202001N000519999999N9999999N1-00481-00651102381ADDMA1999999097041MD1810051+9999OA149900151REMSYN088AAXX  04014 06643 33/// /2001 11048 21065 39704 40238 58005 333 55300 20000 91103 91203;
0140066430999992011010402004+47250+007783FM-12+041699999V0203301N000519999999N9999999N1-00461-00611102341ADDMA1999999097011MD1819999+9999OA149900151REMSYN088AAXX  04024 06643 33/// /3301 11046 21061 39701 40234 58/// 333 55300 20000 91103 91203;
0140066430999992011010403004+47250+007783FM-12+041699999V0201601N000519999999N9999999N1-00541-00651102341ADDMA1999999096991MD1610091+9999OA149900151REMSYN088AAXX  04034 06643 33/// /1601 11054 21065 39699 40234 56009 333 55300 20000 91103 91203;
0140066430999992011010404004+47250+007783FM-12+041699999V0201301N000519999999N9999999N1-00511-00621102291ADDMA1999999096951MD1710091+9999OA149900101REMSYN088AAXX  04044 06643 33/// /1301 11051 21062 39695 40229 57009 333 55300 20000 91102 91202;
0140066430999992011010405004+47250+007783FM-12+041699999V0201901N000519999999N9999999N1-00551-00641102271ADDMA1999999096921MD1710091+9999OA149900101REMSYN088AAXX  04054 06643 33/// /1901 11055 21064 39692 40227 57009 333 55300 20000 91102 91201;
0207066430999992011010406004+47250+007783FM-12+041699999V0202001N000519999999N9999999N1-00541-00631102221ADDAL19900091GJ103309IA2999-00909KA1999N-00661MA1999999096881MD1710111+9999OA149900151REMSYN112AAXX  04064 06643 33/// /2001 11054 21063 39688 40222 57011 333 21066 3/109 55055 55300 20000 70000 91103 91203;
0140066430999992011010407004+47250+007783FM-12+041699999V0202001N000519999999N9999999N1-00501-00601102201ADDMA1999999096871MD1710081+9999OA149900101REMSYN088AAXX  04074 06643 33/// /2001 11050 21060 39687 40220 57008 333 55300 20000 91102 91201;
0140066430999992011010408004+47250+007783FM-12+041699999V0209999C000019999999N9999999N1-00481-00581102201ADDMA1999999096871MD1719999+9999OA149900101REMSYN088AAXX  04084 06643 33/// /0000 11048 21058 39687 40220 57/// 333 55300 20007 91102 91201;
0103066430999992011010409004+47250+007783FM-12+041699999V0203501N000519999999N9999999N1-00461-00571102201ADDMA1999999096881REMSYN076AAXX  04094 06643 33/// /3501 11046 21057 39688 40220 5//// 333 553// 20043;
0140066430999992011010410004+47250+007783FM-12+041699999V0200401N000519999999N9999999N1-00411-00561102211ADDMA1999999096891MD1210021+9999OA149900151REMSYN088AAXX  04104 06643 33/// /0401 11041 21056 39689 40221 52002 333 55300 20227 91103 91202;
0140066430999992011010411004+47250+007783FM-12+041699999V0200401N000519999999N9999999N1-00371-00561102151ADDMA1999999096851MD1810021+9999OA149900151REMSYN088AAXX  04114 06643 33/// /0401 11037 21056 39685 40215 58002 333 55300 20392 91103 91202;
0140066430999992011010412004+47250+007783FM-12+041699999V0200401N000519999999N9999999N1-00331-00581102081ADDMA1999999096791MD1710091+9999OA149900211REMSYN088AAXX  04124 06643 33/// /0401 11033 21058 39679 40208 57009 333 55300 20360 91104 91203;
0140066430999992011010413004+47250+007783FM-12+041699999V0200301N000519999999N9999999N1-00291-00591101991ADDMA1999999096711MD1710181+9999OA149900211REMSYN088AAXX  04134 06643 33/// /0301 11029 21059 39671 40199 57018 333 55300 20436 91104 91202;
0103066430999992011010414004+47250+007783FM-12+041699999V0200601N000519999999N9999999N1-00251-00601101951ADDMA1999999096681REMSYN076AAXX  04144 06643 33/// /0601 11025 21060 39668 40195 5//// 333 553// 20284;
0087066430999992011010415004+47250+007783FM-12+041699999V0200401N000519999999N9999999N1-00231-00551101941ADDMA1999999096671REMSYN060AAXX  04154 06643 43/// /0401 11023 21055 39667 40194 5////;
0140066430999992011010416004+47250+007783FM-12+041699999V0200101N001019999999N9999999N1-00221-00531101921ADDMA1999999096661MD1710051+9999OA149900151REMSYN088AAXX  04164 06643 33/// /0102 11022 21053 39666 40192 57005 333 55300 20032 91103 91202;
0140066430999992011010417004+47250+007783FM-12+041699999V0209999C000019999999N9999999N1-00221-00571101921ADDMA1999999096661MD1510021+9999OA149900151REMSYN088AAXX  04174 06643 33/// /0000 11022 21057 39666 40192 55002 333 55300 20000 91103 91202;
0159066430999992011010418004+47250+007783FM-12+041699999V0201801N000519999999N9999999N1-00251-00501101951ADDKA1120M-00221MA1999999096681MD1310011+9999OA149900211REMSYN094AAXX  04184 06643 33/// /1801 11025 21050 39668 40195 53001 333 11022 55300 20000 91104 91202;
0140066430999992011010419004+47250+007783FM-12+041699999V0201801N000519999999N9999999N1-00251-00471101951ADDMA1999999096681MD1210021+9999OA149900101REMSYN088AAXX  04194 06643 33/// /1801 11025 21047 39668 40195 52002 333 55300 20000 91102 91201;
0140066430999992011010420004+47250+007783FM-12+041699999V0209999C000019999999N9999999N1-00251-00461101921ADDMA1999999096651MD1810011+9999OA149900101REMSYN088AAXX  04204 06643 33/// /0000 11025 21046 39665 40192 58001 333 55300 20000 91102 91201;
0140066430999992011010421004+47250+007783FM-12+041699999V0201601N000519999999N9999999N1-00271-00461101901ADDMA1999999096631MD1710051+9999OA149900151REMSYN088AAXX  04214 06643 33/// /1601 11027 21046 39663 40190 57005 333 55300 20000 91103 91202;
0140066430999992011010422004+47250+007783FM-12+041699999V0201401N000519999999N9999999N1-00271-00461101901ADDMA1999999096631MD1710051+9999OA149900101REMSYN088AAXX  04224 06643 33/// /1401 11027 21046 39663 40190 57005 333 55300 20000 91102 91201;
0140066430999992011010423004+47250+007783FM-12+041699999V0209999C000019999999N9999999N1-00271-00451101901ADDMA1999999096631MD1510021+9999OA149900101REMSYN088AAXX  04234 06643 33/// /0000 11027 21045 39663 40190 55002 333 55300 20000 91102 91201;
0140066430999992011010500004+47250+007783FM-12+041699999V0203601N000519999999N9999999N1-00271-00421101881ADDMA1999999096611MD1810021+9999OA149900211REMSYN088AAXX  05004 06643 33/// /3601 11027 21042 39661 40188 58002 333 55300 20000 91104 91202;
0140066430999992011010501004+47250+007783FM-12+041699999V0201601N000519999999N9999999N1-00291-00421101861ADDMA1999999096591MD1710041+9999OA149900051REMSYN088AAXX  05014 06643 33/// /1601 11029 21042 39659 40186 57004 333 55300 20000 91101 91201;
0140066430999992011010502004+47250+007783FM-12+041699999V0209999C000019999999N9999999N1-00291-00451101861ADDMA1999999096591MD1710041+9999OA149900051REMSYN088AAXX  05024 06643 33/// /0000 11029 21045 39659 40186 57004 333 55300 20000 91101 91201;
0087066430999992011010503004+47250+007783FM-12+041699999V0201201N000519999999N9999999N1-00281-00421101841ADDMA1999999096571REMSYN060AAXX  05034 06643 43/// /1201 11028 21042 39657 40184 5////;
0140066430999992011010504004+47250+007783FM-12+041699999V0209999C000019999999N9999999N1-00281-00421101811ADDMA1999999096541MD1710051+9999OA149900151REMSYN088AAXX  05044 06643 33/// /0000 11028 21042 39654 40181 57005 333 55300 20000 91103 91201;
0140066430999992011010505004+47250+007783FM-12+041699999V0209999C000019999999N9999999N1-00291-00411101791ADDMA1999999096521MD1710071+9999OA149900151REMSYN088AAXX  05054 06643 33/// /0000 11029 21041 39652 40179 57007 333 55300 20000 91103 91201;
0207066430999992011010506004+47250+007783FM-12+041699999V0201901N000519999999N9999999N1-00311-00431101791ADDAL19900091GJ100009IA2999-00309KA1999N-00311MA1999999096521MD1710051+9999OA149900151REMSYN112AAXX  05064 06643 33/// /1901 11031 21043 39652 40179 57005 333 21031 3/103 55000 55300 20000 70000 91103 91201;
0140066430999992011010507004+47250+007783FM-12+041699999V0202201N000519999999N9999999N1-00351-00451101811ADDMA1999999096531MD1510011+9999OA149900101REMSYN088AAXX  05074 06643 33/// /2201 11035 21045 39653 40181 55001 333 55300 20000 91102 91201;
0140066430999992011010508004+47250+007783FM-12+041699999V0209999C000019999999N9999999N1-00321-00431101821ADDMA1999999096541MD1219999+9999OA149900101REMSYN088AAXX  05084 06643 33/// /0000 11032 21043 39654 40182 52/// 333 55300 20040 91102 91201;
0140066430999992011010509004+47250+007783FM-12+041699999V0202401N001519999999N9999999N1-00201-00411101781ADDMA1999999096531MD1010011+9999OA149900311REMSYN088AAXX  05094 06643 33/// /2403 11020 21041 39653 40178 50001 333 55303 20396 91106 91203;
0140066430999992011010510004+47250+007783FM-12+041699999V0202501N001019999999N9999999N1-00101-00401101721ADDMA1999999096491MD1710041+9999OA149900311REMSYN088AAXX  05104 06643 33/// /2502 11010 21040 39649 40172 57004 333 55307 20796 91106 91203;
0140066430999992011010511004+47250+007783FM-12+041699999V0202201N002119999999N9999999N1-00031-00441101641ADDMA1999999096431MD1710111+9999OA149900511REMSYN088AAXX  05114 06643 33/// /2204 11003 21044 39643 40164 57011 333 55304 20835 91110 91205;
0103066430999992011010512004+47250+007783FM-12+041699999V0202501N003119999999N9999999N1+00111-00381101511ADDMA1999999096331REMSYN076AAXX  05124 06643 33/// /2506 10011 21038 39633 40151 5//// 333 553// 2////;
0140066430999992011010513004+47250+007783FM-12+041699999V0202401N003119999999N9999999N1+00131-00361101471ADDMA1999999096301MD1610191+9999OA149900721REMSYN088AAXX  05134 06643 33/// /2406 10013 21036 39630 40147 56019 333 55308 2//// 91114 91207;
0087066430999992011010514004+47250+007783FM-12+041699999V0202401N002619999999N9999999N1+00161-00381101461ADDMA1999999096291REMSYN060AAXX  05144 06643 43/// /2405 10016 21038 39629 40146 5////;
0087066430999992011010515004+47250+007783FM-12+041699999V0202301N001019999999N9999999N1+00081-00331101411ADDMA1999999096231REMSYN060AAXX  05154 06643 43/// /2302 10008 21033 39623 40141 5////;
0140066430999992011010516004+47250+007783FM-12+041699999V0202101N001019999999N9999999N1-00031-00371101421ADDMA1999999096221MD1710081+9999OA149900461REMSYN088AAXX  05164 06643 33/// /2102 11003 21037 39622 40142 57008 333 55300 20072 91109 91204;
0140066430999992011010517004+47250+007783FM-12+041699999V0201401N001019999999N9999999N1-00181-00361101441ADDMA1999999096211MD1610081+9999OA149900261REMSYN088AAXX  05174 06643 33/// /1402 11018 21036 39621 40144 56008 333 55300 20000 91105 91203;
0159066430999992011010518004+47250+007783FM-12+041699999V0201901N001519999999N9999999N1-00161-00371101431ADDKA1120M+00181MA1999999096201MD1719999+9999OA149900721REMSYN094AAXX  05184 06643 33/// /1903 11016 21037 39620 40143 57/// 333 10018 55300 20000 91114 91207;
0140066430999992011010519004+47250+007783FM-12+041699999V0200201N001019999999N9999999N1-00301-00401101441ADDMA1999999096191MD1710031+9999OA149900211REMSYN088AAXX  05194 06643 33/// /0202 11030 21040 39619 40144 57003 333 55300 20000 91104 91203;
0140066430999992011010520004+47250+007783FM-12+041699999V0202701N000519999999N9999999N1-00371-00441101411ADDMA1999999096141MD1719999+9999OA149900151REMSYN088AAXX  05204 06643 33/// /2701 11037 21044 39614 40141 57/// 333 55300 20000 91103 91202;
0103066430999992011010521004+47250+007783FM-12+041699999V0202101N000519999999N9999999N1-00351-00431101391ADDMA1999999096131REMSYN076AAXX  05214 06643 33/// /2101 11035 21043 39613 40139 5//// 333 553// 20000;
0140066430999992011010522004+47250+007783FM-12+041699999V0201801N000519999999N9999999N1-00401-00461101381ADDMA1999999096111MD1710081+9999OA149900101REMSYN088AAXX  05224 06643 33/// /1801 11040 21046 39611 40138 57008 333 55300 20000 91102 91201;
0140066430999992011010523004+47250+007783FM-12+041699999V0201901N000519999999N9999999N1-00391-00471101351ADDMA1999999096081MD1719999+9999OA149900151REMSYN088AAXX  05234 06643 33/// /1901 11039 21047 39608 40135 57/// 333 55300 20000 91103 91201;
0087066430999992011010600004+47250+007783FM-12+041699999V0202201N000519999999N9999999N1-00421-00491101281ADDMA1999999096011REMSYN060AAXX  06004 06643 43/// /2201 11042 21049 39601 40128 5////;
0087066430999992011010601004+47250+007783FM-12+041699999V0201601N000519999999N9999999N1-00371-00451101221ADDMA1999999095961REMSYN060AAXX  06014 06643 43/// /1601 11037 21045 39596 40122 5////;
0087066430999992011010602004+47250+007783FM-12+041699999V0209999C000019999999N9999999N1-00321-00441101181ADDMA1999999095941REMSYN060AAXX  06024 06643 43/// /0000 11032 21044 39594 40118 5////;
0087066430999992011010603004+47250+007783FM-12+041699999V0209999C000519999999N9999999N1-00291-00411101191ADDMA1999999095951REMSYN060AAXX  06034 06643 43/// /0001 11029 21041 39595 40119 5////;
0087066430999992011010604004+47250+007783FM-12+041699999V0203201N000519999999N9999999N1-00221-00331101141ADDMA1999999095921REMSYN060AAXX  06044 06643 43/// /3201 11022 21033 39592 40114 5////;
0087066430999992011010605004+47250+007783FM-12+041699999V0202401N001519999999N9999999N1-00041-00191101071ADDMA1999999095881REMSYN060AAXX  06054 06643 43/// /2403 11004 21019 39588 40107 5////;
0134066430999992011010606004+47250+007783FM-12+041699999V0202201N003619999999N9999999N1+00221+00001100991ADDIA2999-00609KA1999N-00451MA1999999095861REMSYN082AAXX  06064 06643 43/// /2207 10022 20000 39586 40099 5//// 333 21045 3/106 55047;
0087066430999992011010607004+47250+007783FM-12+041699999V0202101N003619999999N9999999N1+00311+00031100981ADDMA1999999095861REMSYN060AAXX  06074 06643 43/// /2107 10031 20003 39586 40098 5////;
0103066430999992011010608004+47250+007783FM-12+041699999V0202301N001019999999N9999999N1+00141-00011101041ADDMA1999999095891REMSYN076AAXX  06084 06643 33/// /2302 10014 21001 39589 40104 5//// 333 553// 20025;
0087066430999992011010609004+47250+007783FM-12+041699999V0200501N000519999999N9999999N1+00151+00041101061ADDMA1999999095911REMSYN060AAXX  06094 06643 43/// /0501 10015 20004 39591 40106 5////;
0140066430999992011010610004+47250+007783FM-12+041699999V0202301N003119999999N9999999N1+00441+00181100981ADDMA1999999095891MD1010031+9999OA149900721REMSYN088AAXX  06104 06643 33/// /2306 10044 20018 39589 40098 50003 333 55302 20565 91114 91206;
0140066430999992011010611004+47250+007783FM-12+041699999V0202301N003619999999N9999999N1+00561+00271100951ADDMA1999999095881MD1710011+9999OA149900771REMSYN088AAXX  06114 06643 33/// /2307 10056 20027 39588 40095 57001 333 55301 20724 91115 91207;
0140066430999992011010612004+47250+007783FM-12+041699999V0202301N004119999999N9999999N1+00621+00311100891ADDMA1999999095841MD1710071+9999OA149900931REMSYN088AAXX  06124 06643 33/// /2308 10062 20031 39584 40089 57007 333 553// 20673 91118 91209;
0140066430999992011010613004+47250+007783FM-12+041699999V0202301N003119999999N9999999N1+00651+00301100861ADDMA1999999095811MD1710081+9999OA149900881REMSYN088AAXX  06134 06643 33/// /2306 10065 20030 39581 40086 57008 333 55300 20587 91117 91209;
0087066430999992011010614004+47250+007783FM-12+041699999V0202201N002619999999N9999999N1+00611+00331100881ADDMA1999999095821REMSYN060AAXX  06144 06643 43/// /2205 10061 20033 39582 40088 5////;
0087066430999992011010615004+47250+007783FM-12+041699999V0202101N004119999999N9999999N1+00621+00401100851ADDMA1999999095801REMSYN060AAXX  06154 06643 43/// /2108 10062 20040 39580 40085 5////;
0146066430999992011010616004+47250+007783FM-12+041699999V0202201N003619999999N9999999N1+00601+00391100901ADDMA1999999095841MD1210031+9999OA149900881REMSYN094AAXX  06164 06643 23/// /2207 10060 20039 39584 40090 52003 333 55300 20036 69915 91117 91208;
0146066430999992011010617004+47250+007783FM-12+041699999V0202201N003619999999N9999999N1+00561+00451100951ADDMA1999999095881MD1210061+9999OA149900881REMSYN094AAXX  06174 06643 23/// /2207 10056 20045 39588 40095 52006 333 55300 20000 60025 91117 91209;
0182066430999992011010618004+47250+007783FM-12+041699999V0202101N002619999999N9999999N1+00581+00481100991ADDAA112003091KA1120M+00661MA1999999095921MD1210121+9999OA149900931REMSYN106AAXX  06184 06643 03/// /2105 10058 20048 39592 40099 52012 60032 333 10066 55300 20000 69915 91118 91209;
0140066430999992011010619004+47250+007783FM-12+041699999V0202201N002619999999N9999999N1+00561+00451101051ADDMA1999999095981MD1210141+9999OA149900621REMSYN088AAXX  06194 06643 33/// /2205 10056 20045 39598 40105 52014 333 55300 20000 91112 91206;
0146066430999992011010620004+47250+007783FM-12+041699999V0202301N001519999999N9999999N1+00521+00471101111ADDMA1999999096031MD1219999+9999OA149900721REMSYN094AAXX  06204 06643 23/// /2303 10052 20047 39603 40111 52/// 333 55300 20000 69965 91114 91207;
0146066430999992011010621004+47250+007783FM-12+041699999V0202301N001019999999N9999999N1+00471+00441101181ADDMA1999999096081MD1219999+9999OA149900881REMSYN094AAXX  06214 06643 23/// /2302 10047 20044 39608 40118 52/// 333 55300 20000 69925 91117 91209;
0146066430999992011010622004+47250+007783FM-12+041699999V0202301N001519999999N9999999N1+00491+00441101201ADDMA1999999096111MD1310131+9999OA149900411REMSYN094AAXX  06224 06643 23/// /2303 10049 20044 39611 40120 53013 333 55300 20000 69935 91108 91204;
0103066430999992011010623004+47250+007783FM-12+041699999V0202201N002619999999N9999999N1+00581+00461101241ADDMA1999999096161REMSYN076AAXX  06234 06643 33/// /2205 10058 20046 39616 40124 5//// 333 553// 20000;
0087066430999992011010700004+47250+007783FM-12+041699999V0202201N002119999999N9999999N1+00561+00451101251ADDMA1999999096171REMSYN060AAXX  07004 06643 43/// /2204 10056 20045 39617 40125 5////;
0087066430999992011010701004+47250+007783FM-12+041699999V0202401N001519999999N9999999N1+00511+00441101271ADDMA1999999096181REMSYN060AAXX  07014 06643 43/// /2403 10051 20044 39618 40127 5////;
0087066430999992011010702004+47250+007783FM-12+041699999V0202401N001519999999N9999999N1+00501+00431101321ADDMA1999999096221REMSYN060AAXX  07024 06643 43/// /2403 10050 20043 39622 40132 5////;
0087066430999992011010703004+47250+007783FM-12+041699999V0202301N001519999999N9999999N1+00471+00421101341ADDMA1999999096241REMSYN060AAXX  07034 06643 43/// /2303 10047 20042 39624 40134 5////;
0146066430999992011010704004+47250+007783FM-12+041699999V0202201N002619999999N9999999N1+00611+00521101341ADDMA1999999096261MD1210081+9999OA149900621REMSYN094AAXX  07044 06643 23/// /2205 10061 20052 39626 40134 52008 333 55300 20000 69935 91112 91205;
0146066430999992011010705004+47250+007783FM-12+041699999V0202501N001019999999N9999999N1+00581+00531101371ADDMA1999999096281MD1210061+9999OA149900721REMSYN094AAXX  07054 06643 23/// /2502 10058 20053 39628 40137 52006 333 55300 20000 69935 91114 91205;
0230066430999992011010706004+47250+007783FM-12+041699999V0201801N000519999999N9999999N1+00451+00421101411ADDAA112002091AL14800491GJ100249IA2999+00309KA1999N+00411MA1999999096301MD1119999+9999OA149900721REMSYN124AAXX  07064 06643 03/// /1801 10045 20042 39630 40141 51/// 60022 333 20041 3/003 55004 55300 20000 69955 70048 91114 91207;
0146066430999992011010707004+47250+007783FM-12+041699999V0200501N000519999999N9999999N1+00441+00421101411ADDMA1999999096301MD1210041+9999OA149900211REMSYN094AAXX  07074 06643 23/// /0501 10044 20042 39630 40141 52004 333 553// 20000 69915 91104 91203;
0103066430999992011010708004+47250+007783FM-12+041699999V0202301N000519999999N9999999N1+00391+00381101471ADDMA1999999096341REMSYN076AAXX  07084 06643 33/// /2301 10039 20038 39634 40147 5//// 333 553// 20014;
0087066430999992011010709004+47250+007783FM-12+041699999V0202301N000519999999N9999999N1+00461+00441101451ADDMA1999999096341REMSYN060AAXX  07094 06643 43/// /2301 10046 20044 39634 40145 5////;
0140066430999992011010710004+47250+007783FM-12+041699999V0202501N000519999999N9999999N1+00591+00541101421ADDMA1999999096331MD1210031+9999OA149900151REMSYN088AAXX  07104 06643 33/// /2501 10059 20054 39633 40142 52003 333 55303 20526 91103 91202;
0140066430999992011010711004+47250+007783FM-12+041699999V0202301N001519999999N9999999N1+00751+00651101361ADDMA1999999096311MD1810031+9999OA149900311REMSYN088AAXX  07114 06643 33/// /2303 10075 20065 39631 40136 58003 333 55308 20914 91106 91203;
0182066430999992011010712004+47250+007783FM-12+041699999V0202201N003119999999N9999999N1+00921+00691101301ADDAA106000091MA1999999096281MD1710061+9999OA149900721REMSYN100AAXX  07124 06643 03/// /2206 10092 20069 39628 40130 57006 69911 333 55306 20972 60005 91114 91206;EQDQ01  00002PRCP06
0140066430999992011010713004+47250+007783FM-12+041699999V0202201N002119999999N9999999N1+00981+00681101241ADDMA1999999096231MD1810101+9999OA149900621REMSYN088AAXX  07134 06643 33/// /2204 10098 20068 39623 40124 58010 333 55308 2//// 91112 91206;
0087066430999992011010714004+47250+007783FM-12+041699999V0202201N001519999999N9999999N1+01011+00671101241ADDMA1999999096241REMSYN060AAXX  07144 06643 43/// /2203 10101 20067 39624 40124 5////;
0087066430999992011010715004+47250+007783FM-12+041699999V0202301N001519999999N9999999N1+00911+00681101291ADDMA1999999096271REMSYN060AAXX  07154 06643 43/// /2303 10091 20068 39627 40129 5////;
0140066430999992011010716004+47250+007783FM-12+041699999V0202401N001019999999N9999999N1+00751+00651101331ADDMA1999999096281MD1210051+9999OA149900411REMSYN088AAXX  07164 06643 33/// /2402 10075 20065 39628 40133 52005 333 55300 20068 91108 91204;
0140066430999992011010717004+47250+007783FM-12+041699999V0201901N001019999999N9999999N1+00681+00611101381ADDMA1999999096311MD1210071+9999OA149900361REMSYN088AAXX  07174 06643 33/// /1902 10068 20061 39631 40138 52007 333 55300 20000 91107 91204;
0164066430999992011010718004+47250+007783FM-12+041699999V0201601N001019999999N9999999N1+00611+00561101401ADDAA112000091KA1120M+01011MA1999999096321REMSYN094AAXX  07184 06643 03/// /1602 10061 20056 39632 40140 5//// 69912 333 10101 553// 20000 60005;EQDQ01  00002PRCP12
0140066430999992011010719004+47250+007783FM-12+041699999V0203501N000519999999N9999999N1+00521+00501101401ADDMA1999999096301MD1019999+9999OA149900211REMSYN088AAXX  07194 06643 33/// /3501 10052 20050 39630 40140 50/// 333 55300 20000 91104 91202;
0087066430999992011010720004+47250+007783FM-12+041699999V0209999C000019999999N9999999N1+00451+00431101391ADDMA1999999096281REMSYN060AAXX  07204 06643 43/// /0000 10045 20043 39628 40139 5////;
0087066430999992011010721004+47250+007783FM-12+041699999V0202201N000519999999N9999999N1+00421+00401101411ADDMA1999999096291REMSYN060AAXX  07214 06643 43/// /2201 10042 20040 39629 40141 5////;
0140066430999992011010722004+47250+007783FM-12+041699999V0209999C000019999999N9999999N1+00411+00381101431ADDMA1999999096311MD1310011+9999OA149900211REMSYN088AAXX  07224 06643 33/// /0000 10041 20038 39631 40143 53001 333 55300 20000 91104 91202;
0103066430999992011010723004+47250+007783FM-12+041699999V0202401N001019999999N9999999N1+00401+00361101471ADDMA1999999096351REMSYN076AAXX  07234 06643 33/// /2402 10040 20036 39635 40147 5//// 333 553// 20000;
0103066430999992011010800004+47250+007783FM-12+041699999V0202201N000519999999N9999999N1+00421+00381101481ADDMA1999999096361REMSYN076AAXX  08004 06643 33/// /2201 10042 20038 39636 40148 5//// 333 553// 20000;
0087066430999992011010801004+47250+007783FM-12+041699999V0209999C000019999999N9999999N1+00411+00381101461ADDMA1999999096341REMSYN060AAXX  08014 06643 43/// /0000 10041 20038 39634 40146 5////;
0087066430999992011010802004+47250+007783FM-12+041699999V0200701N000519999999N9999999N1+00391+00381101471ADDMA1999999096341REMSYN060AAXX  08024 06643 43/// /0701 10039 20038 39634 40147 5////;
0087066430999992011010803004+47250+007783FM-12+041699999V0201101N000519999999N9999999N1+00381+00361101501ADDMA1999999096371REMSYN060AAXX  08034 06643 43/// /1101 10038 20036 39637 40150 5////;
0087066430999992011010804004+47250+007783FM-12+041699999V0202401N001019999999N9999999N1+00391+00361101551ADDMA1999999096421REMSYN060AAXX  08044 06643 43/// /2402 10039 20036 39642 40155 5////;
0087066430999992011010805004+47250+007783FM-12+041699999V0202401N001019999999N9999999N1+00431+00401101621ADDMA1999999096491REMSYN060AAXX  08054 06643 43/// /2402 10043 20040 39649 40162 5////;
0134066430999992011010806004+47250+007783FM-12+041699999V0202301N000519999999N9999999N1+00421+00411101621ADDIA2999+00309KA1999N+00371MA1999999096491REMSYN082AAXX  08064 06643 43/// /2301 10042 20041 39649 40162 5//// 333 20037 3/003 55045;
0087066430999992011010807004+47250+007783FM-12+041699999V0209999C000019999999N9999999N1+00451+00411101631ADDMA1999999096511REMSYN060AAXX  08074 06643 43/// /0000 10045 20041 39651 40163 5////;
0103066430999992011010808004+47250+007783FM-12+041699999V0201401N000519999999N9999999N1+00441+00401101631ADDMA1999999096511REMSYN076AAXX  08084 06643 33/// /1401 10044 20040 39651 40163 5//// 333 553// 20025;
0087066430999992011010809004+47250+007783FM-12+041699999V0202201N001019999999N9999999N1+00451+00441101631ADDMA1999999096511REMSYN060AAXX  08094 06643 43/// /2202 10045 20044 39651 40163 5////;
0087066430999992011010810004+47250+007783FM-12+041699999V0202101N001019999999N9999999N1+00571+00511101621ADDMA1999999096521REMSYN060AAXX  08104 06643 43/// /2102 10057 20051 39652 40162 5////;
0087066430999992011010811004+47250+007783FM-12+041699999V0202501N000519999999N9999999N1+00761+00661101531ADDMA1999999096471REMSYN060AAXX  08114 06643 43/// /2501 10076 20066 39647 40153 5////;
0087066430999992011010812004+47250+007783FM-12+041699999V0201701N001019999999N9999999N1+00921+00771101461ADDMA1999999096431REMSYN060AAXX  08124 06643 43/// /1702 10092 20077 39643 40146 5////;
0087066430999992011010813004+47250+007783FM-12+041699999V0202101N001019999999N9999999N1+01131+00801101371ADDMA1999999096381REMSYN060AAXX  08134 06643 43/// /2102 10113 20080 39638 40137 5////;
0087066430999992011010814004+47250+007783FM-12+041699999V0202201N001519999999N9999999N1+01111+00751101361ADDMA1999999096371REMSYN060AAXX  08144 06643 43/// /2203 10111 20075 39637 40136 5////;
0087066430999992011010815004+47250+007783FM-12+041699999V0202001N001019999999N9999999N1+00871+00771101431ADDMA1999999096391REMSYN060AAXX  08154 06643 43/// /2002 10087 20077 39639 40143 5////;
0087066430999992011010816004+47250+007783FM-12+041699999V0201701N000519999999N9999999N1+00751+00711101451ADDMA1999999096391REMSYN060AAXX  08164 06643 43/// /1701 10075 20071 39639 40145 5////;
0087066430999992011010817004+47250+007783FM-12+041699999V0202201N000519999999N9999999N1+00671+00641101431ADDMA1999999096361REMSYN060AAXX  08174 06643 43/// /2201 10067 20064 39636 40143 5////;
0087066430999992011010818004+47250+007783FM-12+041699999V0201601N000519999999N9999999N1+00521+00501101471ADDMA1999999096371REMSYN060AAXX  08184 06643 43/// /1601 10052 20050 39637 40147 5////;
0087066430999992011010819004+47250+007783FM-12+041699999V0202401N000519999999N9999999N1+00401+00401101471ADDMA1999999096351REMSYN060AAXX  08194 06643 43/// /2401 10040 20040 39635 40147 5////;
0087066430999992011010820004+47250+007783FM-12+041699999V0202601N001019999999N9999999N1+00331+00321101501ADDMA1999999096361REMSYN060AAXX  08204 06643 43/// /2602 10033 20032 39636 40150 5////;
0087066430999992011010821004+47250+007783FM-12+041699999V0202501N000519999999N9999999N1+00331+00331101491ADDMA1999999096351REMSYN060AAXX  08214 06643 43/// /2501 10033 20033 39635 40149 5////;
0087066430999992011010822004+47250+007783FM-12+041699999V0200301N000519999999N9999999N1+00251+00251101491ADDMA1999999096341REMSYN060AAXX  08224 06643 43/// /0301 10025 20025 39634 40149 5////;
0087066430999992011010823004+47250+007783FM-12+041699999V0202401N001019999999N9999999N1+00221+00221101501ADDMA1999999096341REMSYN060AAXX  08234 06643 43/// /2402 10022 20022 39634 40150 5////;
0087066430999992011010900004+47250+007783FM-12+041699999V0202401N001519999999N9999999N1+00201+00191101501ADDMA1999999096341REMSYN060AAXX  09004 06643 43/// /2403 10020 20019 39634 40150 5////;
0087066430999992011010901004+47250+007783FM-12+041699999V0202201N001019999999N9999999N1+00251+00221101491ADDMA1999999096341REMSYN060AAXX  09014 06643 43/// /2202 10025 20022 39634 40149 5////;
0087066430999992011010902004+47250+007783FM-12+041699999V0203501N000519999999N9999999N1+00101+00101101541ADDMA1999999096361REMSYN060AAXX  09024 06643 43/// /3501 10010 20010 39636 40154 5////;
0087066430999992011010903004+47250+007783FM-12+041699999V0202401N001019999999N9999999N1+00101+00091101521ADDMA1999999096341REMSYN060AAXX  09034 06643 43/// /2402 10010 20009 39634 40152 5////;
0087066430999992011010904004+47250+007783FM-12+041699999V0202801N000519999999N9999999N1+00121+00091101491ADDMA1999999096311REMSYN060AAXX  09044 06643 43/// /2801 10012 20009 39631 40149 5////;
0087066430999992011010905004+47250+007783FM-12+041699999V0209999C000019999999N9999999N1+00081+00061101481ADDMA1999999096301REMSYN060AAXX  09054 06643 43/// /0000 10008 20006 39630 40148 5////;
0097066430999992011010906004+47250+007783FM-12+041699999V0202601N000519999999N9999999N1+00041+00001101481ADDMA1999999096291REMSYN070AAXX  09064 06643 43/// /2601 10004 20000 39629 40148 5//// 333 55052;
0087066430999992011010907004+47250+007783FM-12+041699999V0202401N001019999999N9999999N1+00051+00031101531ADDMA1999999096341REMSYN060AAXX  09074 06643 43/// /2402 10005 20003 39634 40153 5////;
0103066430999992011010908004+47250+007783FM-12+041699999V0202701N000519999999N9999999N1+00121+00051101581ADDMA1999999096401REMSYN076AAXX  09084 06643 33/// /2701 10012 20005 39640 40158 5//// 333 553// 20014;
0103066430999992011010909004+47250+007783FM-12+041699999V0201801N000519999999N9999999N1+00241+00171101591ADDMA1999999096431REMSYN076AAXX  09094 06643 33/// /1801 10024 20017 39643 40159 5//// 333 553// 20230;
0140066430999992011010910004+47250+007783FM-12+041699999V0201801N001019999999N9999999N1+00331+00231101601ADDMA1999999096461MD1210121+9999OA149900311REMSYN088AAXX  09104 06643 33/// /1802 10033 20023 39646 40160 52012 333 55300 20216 91106 91203;
0140066430999992011010911004+47250+007783FM-12+041699999V0200201N000519999999N9999999N1+00431+00311101631ADDMA1999999096501MD1210101+9999OA149900311REMSYN088AAXX  09114 06643 33/// /0201 10043 20031 39650 40163 52010 333 55300 20292 91106 91203;
0140066430999992011010912004+47250+007783FM-12+041699999V0202901N000519999999N9999999N1+00501+00391101581ADDMA1999999096471MD1210041+9999OA149900361REMSYN088AAXX  09124 06643 33/// /2901 10050 20039 39647 40158 52004 333 55300 20252 91107 91203;
0146066430999992011010913004+47250+007783FM-12+041699999V0202201N000519999999N9999999N1+00521+00481101561ADDMA1999999096451MD1810011+9999OA149900151REMSYN094AAXX  09134 06643 23/// /2201 10052 20048 39645 40156 58001 333 55300 20151 69985 91103 91202;
0087066430999992011010914004+47250+007783FM-12+041699999V0200401N000519999999N9999999N1+00511+00501101591ADDMA1999999096481REMSYN060AAXX  09144 06643 43/// /0401 10051 20050 39648 40159 5////;
0087066430999992011010915004+47250+007783FM-12+041699999V0202301N000519999999N9999999N1+00521+00471101631ADDMA1999999096521REMSYN060AAXX  09154 06643 43/// /2301 10052 20047 39652 40163 5////;
0146066430999992011010916004+47250+007783FM-12+041699999V0202201N001019999999N9999999N1+00531+00511101671ADDMA1999999096561MD1310111+9999OA149900151REMSYN094AAXX  09164 06643 23/// /2202 10053 20051 39656 40167 53011 333 55300 20011 60015 91103 91202;
0146066430999992011010917004+47250+007783FM-12+041699999V0202301N000519999999N9999999N1+00521+00511101721ADDMA1999999096611MD1310131+9999OA149900261REMSYN094AAXX  09174 06643 23/// /2301 10052 20051 39661 40172 53013 333 55300 20000 60015 91105 91203;
0182066430999992011010918004+47250+007783FM-12+041699999V0202501N001019999999N9999999N1+00591+00551101741ADDAA112007191KA1120M+00561MA1999999096641MD1110121+9999OA149900311REMSYN106AAXX  09184 06643 03/// /2502 10059 20055 39664 40174 51012 60072 333 10056 55300 20000 60015 91106 91203;
0146066430999992011010919004+47250+007783FM-12+041699999V0202301N001519999999N9999999N1+00591+00541101791ADDMA1999999096691MD1310131+9999OA149900311REMSYN094AAXX  09194 06643 23/// /2303 10059 20054 39669 40179 53013 333 55300 20000 69975 91106 91203;
0146066430999992011010920004+47250+007783FM-12+041699999V0202301N001519999999N9999999N1+00571+00531101871ADDMA1999999096761MD1310151+9999OA149900361REMSYN094AAXX  09204 06643 23/// /2303 10057 20053 39676 40187 53015 333 55300 20000 60015 91107 91204;
0146066430999992011010921004+47250+007783FM-12+041699999V0202301N001019999999N9999999N1+00551+00521101911ADDMA1999999096791MD1110151+9999OA149900361REMSYN094AAXX  09214 06643 23/// /2302 10055 20052 39679 40191 51015 333 55300 20000 60025 91107 91204;
0146066430999992011010922004+47250+007783FM-12+041699999V0202201N001019999999N9999999N1+00541+00501101951ADDMA1999999096831MD1210141+9999OA149900261REMSYN094AAXX  09224 06643 23/// /2202 10054 20050 39683 40195 52014 333 55300 20000 60025 91105 91203;
0146066430999992011010923004+47250+007783FM-12+041699999V0202201N002119999999N9999999N1+00511+00431102011ADDMA1999999096881MD1310121+9999OA149900511REMSYN094AAXX  09234 06643 23/// /2204 10051 20043 39688 40201 53012 333 55300 20000 69995 91110 91205;
0163066430999992011011000004+47250+007783FM-12+041699999V0202201N001519999999N9999999N1+00491+00421102041ADDAA106007191MA1999999096901MD1110111+9999OA149900511REMSYN100AAXX  10004 06643 03/// /2203 10049 20042 39690 40204 51011 60071 333 55300 20000 69975 91110 91205;
0146066430999992011011001004+47250+007783FM-12+041699999V0202101N001019999999N9999999N1+00461+00431102051ADDMA1999999096911MD1110081+9999OA149900411REMSYN094AAXX  10014 06643 23/// /2102 10046 20043 39691 40205 51008 333 55300 20000 69915 91108 91203;
0109066430999992011011002004+47250+007783FM-12+041699999V0209999C000019999999N9999999N1+00441+00421102101ADDMA1999999096951REMSYN082AAXX  10024 06643 23/// /0000 10044 20042 39695 40210 5//// 333 553// 20000 69915;
0087066430999992011011003004+47250+007783FM-12+041699999V0200701N001019999999N9999999N1+00471+00421102111ADDMA1999999096971REMSYN060AAXX  10034 06643 43/// /0702 10047 20042 39697 40211 5////;
0109066430999992011011004004+47250+007783FM-12+041699999V0200601N001519999999N9999999N1+00391+00261102131ADDMA1999999096971REMSYN082AAXX  10044 06643 23/// /0603 10039 20026 39697 40213 5//// 333 553// 20000 69935;
0140066430999992011011005004+47250+007783FM-12+041699999V0200801N001019999999N9999999N1+00351+00201102171ADDMA1999999097001MD1219999+9999OA149900261REMSYN088AAXX  10054 06643 33/// /0802 10035 20020 39700 40217 52/// 333 55300 20000 91105 91203;
0159066430999992011011006004+47250+007783FM-12+041699999V0200701N001519999999N9999999N1+00311+00231102211ADDAA124014791GJ100069IA2999+00309KA1999N+00301MA1999999097031REMSYN088AAXX  10064 06643 43/// /0703 10031 20023 39703 40221 5//// 333 20030 3/003 55001 70148;
0146066430999992011011007004+47250+007783FM-12+041699999V0200501N001519999999N9999999N1+00281+00221102231ADDMA1999999097051MD1210081+9999OA149900411REMSYN094AAXX  10074 06643 23/// /0503 10028 20022 39705 40223 52008 333 55300 20000 69915 91108 91205;
0087066430999992011011008004+47250+007783FM-12+041699999V0200501N001519999999N9999999N1+00271+00211102281ADDMA1999999097091REMSYN060AAXX  10084 06643 43/// /0503 10027 20021 39709 40228 5////;
0087066430999992011011009004+47250+007783FM-12+041699999V0200701N002119999999N9999999N1+00341+00191102291ADDMA1999999097111REMSYN060AAXX  10094 06643 43/// /0704 10034 20019 39711 40229 5////;
0140066430999992011011010004+47250+007783FM-12+041699999V0200401N002619999999N9999999N1+00371+00201102271ADDMA1999999097101MD1210051+9999OA149900411REMSYN088AAXX  10104 06643 33/// /0405 10037 20020 39710 40227 52005 333 55300 20248 91108 91206;
0140066430999992011011011004+47250+007783FM-12+041699999V0200401N002619999999N9999999N1+00371+00201102241ADDMA1999999097071MD1819999+9999OA149900411REMSYN088AAXX  10114 06643 33/// /0405 10037 20020 39707 40224 58/// 333 55300 20230 91108 91206;
0145066430999992011011012004+47250+007783FM-12+041699999V0200401N002619999999N9999999N1+00401+00231102181ADDAA106000091MA1999999097021REMSYN088AAXX  10124 06643 03/// /0405 10040 20023 39702 40218 5//// 69911 333 553// 20281 60005;EQDQ01  00002PRCP06
0087066430999992011011013004+47250+007783FM-12+041699999V0200801N003119999999N9999999N1+00391+00211102111ADDMA1999999096951REMSYN060AAXX  10134 06643 43/// /0806 10039 20021 39695 40211 5////;
0087066430999992011011014004+47250+007783FM-12+041699999V0200701N003119999999N9999999N1+00391+00221102071ADDMA1999999096911REMSYN060AAXX  10144 06643 43/// /0706 10039 20022 39691 40207 5////;
0087066430999992011011015004+47250+007783FM-12+041699999V0200701N003119999999N9999999N1+00371+00211102041ADDMA1999999096881REMSYN060AAXX  10154 06643 43/// /0706 10037 20021 39688 40204 5////;
0087066430999992011011016004+47250+007783FM-12+041699999V0200601N002619999999N9999999N1+00341+00201102031ADDMA1999999096871REMSYN060AAXX  10164 06643 43/// /0605 10034 20020 39687 40203 5////;
0087066430999992011011017004+47250+007783FM-12+041699999V0200601N001519999999N9999999N1+00331+00191102011ADDMA1999999096851REMSYN060AAXX  10174 06643 43/// /0603 10033 20019 39685 40201 5////;
0110066430999992011011018004+47250+007783FM-12+041699999V0200401N001019999999N9999999N1+00301+00211101991ADDKA1999M+00401MA1999999096821REMSYN070AAXX  10184 06643 43/// /0402 10030 20021 39682 40199 5//// 333 10040;
0087066430999992011011019004+47250+007783FM-12+041699999V0200501N001019999999N9999999N1+00301+00201101971ADDMA1999999096801REMSYN060AAXX  10194 06643 43/// /0502 10030 20020 39680 40197 5////;
0087066430999992011011020004+47250+007783FM-12+041699999V0201201N000519999999N9999999N1+00271+00211101951ADDMA1999999096781REMSYN060AAXX  10204 06643 43/// /1201 10027 20021 39678 40195 5////;
0087066430999992011011021004+47250+007783FM-12+041699999V0200801N001019999999N9999999N1+00271+00221101921ADDMA1999999096751REMSYN060AAXX  10214 06643 43/// /0802 10027 20022 39675 40192 5////;
0087066430999992011011022004+47250+007783FM-12+041699999V0202301N000519999999N9999999N1+00261+00211101911ADDMA1999999096741REMSYN060AAXX  10224 06643 43/// /2301 10026 20021 39674 40191 5////;
0087066430999992011011023004+47250+007783FM-12+041699999V0202501N000519999999N9999999N1+00271+00241101881ADDMA1999999096711REMSYN060AAXX  10234 06643 43/// /2501 10027 20024 39671 40188 5////;
0087066430999992011011100004+47250+007783FM-12+041699999V0209999C000019999999N9999999N1+00251+00221101801ADDMA1999999096631REMSYN060AAXX  11004 06643 43/// /0000 10025 20022 39663 40180 5////;
0087066430999992011011101004+47250+007783FM-12+041699999V0201101N000519999999N9999999N1+00251+00221101751ADDMA1999999096581REMSYN060AAXX  11014 06643 43/// /1101 10025 20022 39658 40175 5////;
0087066430999992011011102004+47250+007783FM-12+041699999V0202301N000519999999N9999999N1+00261+00221101721ADDMA1999999096561REMSYN060AAXX  11024 06643 43/// /2301 10026 20022 39656 40172 5////;
0087066430999992011011103004+47250+007783FM-12+041699999V0202301N000519999999N9999999N1+00271+00211101661ADDMA1999999096501REMSYN060AAXX  11034 06643 43/// /2301 10027 20021 39650 40166 5////;
0087066430999992011011104004+47250+007783FM-12+041699999V0200801N000519999999N9999999N1+00261+00221101621ADDMA1999999096461REMSYN060AAXX  11044 06643 43/// /0801 10026 20022 39646 40162 5////;
0087066430999992011011105004+47250+007783FM-12+041699999V0201501N001019999999N9999999N1+00281+00211101551ADDMA1999999096401REMSYN060AAXX  11054 06643 43/// /1502 10028 20021 39640 40155 5////;
0097066430999992011011106004+47250+007783FM-12+041699999V0202401N000519999999N9999999N1+00281+00231101491ADDMA1999999096341REMSYN070AAXX  11064 06643 43/// /2401 10028 20023 39634 40149 5//// 333 55000;
0140066430999992011011107004+47250+007783FM-12+041699999V0209999C000019999999N9999999N1+00251+00231101461ADDMA1999999096311MD1619999+9999OA149900101REMSYN088AAXX  11074 06643 33/// /0000 10025 20023 39631 40146 56/// 333 55300 20000 91102 91202;
0103066430999992011011108004+47250+007783FM-12+041699999V0209999C000019999999N9999999N1+00271+00241101431ADDMA1999999096281REMSYN076AAXX  11084 06643 33/// /0000 10027 20024 39628 40143 5//// 333 553// 20022;
0087066430999992011011109004+47250+007783FM-12+041699999V0202201N001019999999N9999999N1+00371+00261101361ADDMA1999999096241REMSYN060AAXX  11094 06643 43/// /2202 10037 20026 39624 40136 5////;
0140066430999992011011110004+47250+007783FM-12+041699999V0202401N001019999999N9999999N1+00491+00251101311ADDMA1999999096211MD1710101+9999OA149900261REMSYN088AAXX  11104 06643 33/// /2402 10049 20025 39621 40131 57010 333 55300 20320 91105 91202;
0140066430999992011011111004+47250+007783FM-12+041699999V0202101N003119999999N9999999N1+00541+00171101211ADDMA1999999096131MD1810151+9999OA149900721REMSYN088AAXX  11114 06643 33/// /2106 10054 20017 39613 40121 58015 333 553// 20493 91114 91207;
0103066430999992011011112004+47250+007783FM-12+041699999V0202301N002119999999N9999999N1+00551+00181101131ADDMA1999999096051REMSYN076AAXX  11124 06643 33/// /2304 10055 20018 39605 40113 5//// 333 553// 20428;
0140066430999992011011113004+47250+007783FM-12+041699999V0202401N003619999999N9999999N1+00531+00221101141ADDMA1999999096061MD1710151+9999OA149900821REMSYN088AAXX  11134 06643 33/// /2407 10053 20022 39606 40114 57015 333 55300 20292 91116 91207;
0087066430999992011011114004+47250+007783FM-12+041699999V0202301N004619999999N9999999N1+00461+00261101191ADDMA1999999096091REMSYN060AAXX  11144 06643 43/// /2309 10046 20026 39609 40119 5////;
0087066430999992011011115004+47250+007783FM-12+041699999V0202401N002619999999N9999999N1+00411+00271101281ADDMA1999999096171REMSYN060AAXX  11154 06643 43/// /2405 10041 20027 39617 40128 5////;
0146066430999992011011116004+47250+007783FM-12+041699999V0202401N003119999999N9999999N1+00301+00201101411ADDMA1999999096271MD1310211+9999OA149900821REMSYN094AAXX  11164 06643 23/// /2406 10030 20020 39627 40141 53021 333 553// 20004 69985 91116 91208;
0146066430999992011011117004+47250+007783FM-12+041699999V0202201N003119999999N9999999N1+00291+00231101471ADDMA1999999096331MD1119999+9999OA149900821REMSYN094AAXX  11174 06643 23/// /2206 10029 20023 39633 40147 51/// 333 55300 20000 69975 91116 91208;
0182066430999992011011118004+47250+007783FM-12+041699999V0202301N002619999999N9999999N1+00331+00251101541ADDAA112004191KA1120M+00561MA1999999096401MD1110231+9999OA149900981REMSYN106AAXX  11184 06643 03/// /2305 10033 20025 39640 40154 51023 60042 333 10056 55300 20000 69955 91119 91209;
0146066430999992011011119004+47250+007783FM-12+041699999V0202301N001519999999N9999999N1+00331+00281101651ADDMA1999999096501MD1310231+9999OA149900771REMSYN094AAXX  11194 06643 23/// /2303 10033 20028 39650 40165 53023 333 55300 20000 69965 91115 91207;
0140066430999992011011120004+47250+007783FM-12+041699999V0202301N001519999999N9999999N1+00361+00281101711ADDMA1999999096571MD1210241+9999OA149900571REMSYN088AAXX  11204 06643 33/// /2303 10036 20028 39657 40171 52024 333 55300 20000 91111 91206;
0140066430999992011011121004+47250+007783FM-12+041699999V0202201N003119999999N9999999N1+00381+00311101801ADDMA1999999096661MD1210261+9999OA149900821REMSYN088AAXX  11214 06643 33/// /2206 10038 20031 39666 40180 52026 333 55300 20000 91116 91208;
0146066430999992011011122004+47250+007783FM-12+041699999V0202201N003119999999N9999999N1+00381+00321101901ADDMA1999999096751MD1310251+9999OA149900621REMSYN094AAXX  11224 06643 23/// /2206 10038 20032 39675 40190 53025 333 55300 20000 69915 91112 91206;
0140066430999992011011123004+47250+007783FM-12+041699999V0202201N002619999999N9999999N1+00391+00321101951ADDMA1999999096801MD1110231+9999OA149900621REMSYN088AAXX  11234 06643 33/// /2205 10039 20032 39680 40195 51023 333 55300 20000 91112 91206;
0163066430999992011011200004+47250+007783FM-12+041699999V0202301N003119999999N9999999N1+00421+00331101981ADDAA106000891MA1999999096831MD1110171+9999OA149900981REMSYN100AAXX  12004 06643 03/// /2306 10042 20033 39683 40198 51017 69971 333 55300 20000 60005 91119 91209;
0140066430999992011011201004+47250+007783FM-12+041699999V0202301N002619999999N9999999N1+00431+00331102021ADDMA1999999096871MD1110121+9999OA149900671REMSYN088AAXX  12014 06643 33/// /2305 10043 20033 39687 40202 51012 333 55300 20000 91113 91206;
0103066430999992011011202004+47250+007783FM-12+041699999V0202201N003619999999N9999999N1+00451+00351102121ADDMA1999999096971REMSYN076AAXX  12024 06643 33/// /2207 10045 20035 39697 40212 5//// 333 553// 20000;
0087066430999992011011203004+47250+007783FM-12+041699999V0202101N002619999999N9999999N1+00441+00341102181ADDMA1999999097031REMSYN060AAXX  12034 06643 43/// /2105 10044 20034 39703 40218 5////;
0087066430999992011011204004+47250+007783FM-12+041699999V0202401N002619999999N9999999N1+00481+00361102221ADDMA1999999097071REMSYN060AAXX  12044 06643 43/// /2405 10048 20036 39707 40222 5////;
0103066430999992011011205004+47250+007783FM-12+041699999V0202401N002619999999N9999999N1+00481+00371102301ADDMA1999999097151REMSYN076AAXX  12054 06643 33/// /2405 10048 20037 39715 40230 5//// 333 553// 20000;
0159066430999992011011206004+47250+007783FM-12+041699999V0202401N001519999999N9999999N1+00481+00351102381ADDAA124004891GJ100009IA2999+00309KA1999N+00311MA1999999097231REMSYN088AAXX  12064 06643 43/// /2403 10048 20035 39723 40238 5//// 333 20031 3/003 55000 70047;
0140066430999992011011207004+47250+007783FM-12+041699999V0202101N001519999999N9999999N1+00471+00341102421ADDMA1999999097261MD1210191+9999OA149900411REMSYN088AAXX  12074 06643 33/// /2103 10047 20034 39726 40242 52019 333 55300 20000 91108 91204;
0087066430999992011011208004+47250+007783FM-12+041699999V0202201N000519999999N9999999N1+00411+00331102431ADDMA1999999097261REMSYN060AAXX  12084 06643 43/// /2201 10041 20033 39726 40243 5////;
0087066430999992011011209004+47250+007783FM-12+041699999V0202201N001019999999N9999999N1+00481+00361102441ADDMA1999999097281REMSYN060AAXX  12094 06643 43/// /2202 10048 20036 39728 40244 5////;
0140066430999992011011210004+47250+007783FM-12+041699999V0202501N001019999999N9999999N1+00501+00351102451ADDMA1999999097301MD1219999+9999OA149900311REMSYN088AAXX  12104 06643 33/// /2502 10050 20035 39730 40245 52/// 333 55300 20241 91106 91204;
0140066430999992011011211004+47250+007783FM-12+041699999V0202401N002119999999N9999999N1+00581+00331102421ADDMA1999999097281MD1010021+9999OA149900511REMSYN088AAXX  12114 06643 33/// /2404 10058 20033 39728 40242 50002 333 553// 20392 91110 91205;
0087066430999992011011212004+47250+007783FM-12+041699999V0202401N002619999999N9999999N1+00601+00301102341ADDMA1999999097211REMSYN060AAXX  12124 06643 43/// /2405 10060 20030 39721 40234 5////;
0087066430999992011011213004+47250+007783FM-12+041699999V0202501N002619999999N9999999N1+00601+00311102351ADDMA1999999097221REMSYN060AAXX  12134 06643 43/// /2505 10060 20031 39722 40235 5////;
0087066430999992011011214004+47250+007783FM-12+041699999V0202401N002119999999N9999999N1+00551+00371102381ADDMA1999999097241REMSYN060AAXX  12144 06643 43/// /2404 10055 20037 39724 40238 5////;
0087066430999992011011215004+47250+007783FM-12+041699999V0202301N002619999999N9999999N1+00531+00381102381ADDMA1999999097231REMSYN060AAXX  12154 06643 43/// /2305 10053 20038 39723 40238 5////;
0140066430999992011011216004+47250+007783FM-12+041699999V0202301N003119999999N9999999N1+00541+00371102371ADDMA1999999097231MD1010011+9999OA149900571REMSYN088AAXX  12164 06643 33/// /2306 10054 20037 39723 40237 50001 333 55300 20022 91111 91206;
0146066430999992011011217004+47250+007783FM-12+041699999V0202201N003119999999N9999999N1+00491+00361102401ADDMA1999999097251MD1310011+9999OA149900771REMSYN094AAXX  12174 06643 23/// /2206 10049 20036 39725 40240 53001 333 55300 20000 69945 91115 91208;
0182066430999992011011218004+47250+007783FM-12+041699999V0202301N004119999999N9999999N1+00491+00341102411ADDAA112002091KA1120M+00611MA1999999097261MD1210031+9999OA149900981REMSYN106AAXX  12184 06643 03/// /2308 10049 20034 39726 40241 52003 60022 333 10061 55300 20000 69955 91119 91210;
0146066430999992011011219004+47250+007783FM-12+041699999V0202301N004619999999N9999999N1+00511+00341102401ADDMA1999999097251MD1210021+9999OA149900981REMSYN094AAXX  12194 06643 23/// /2309 10051 20034 39725 40240 52002 333 55300 20000 69935 91119 91210;
0146066430999992011011220004+47250+007783FM-12+041699999V0202301N005119999999N9999999N1+00521+00351102371ADDMA1999999097221MD1710031+9999OA149901031REMSYN094AAXX  12204 06643 23/// /2310 10052 20035 39722 40237 57003 333 55300 20000 69935 91120 91210;
0140066430999992011011221004+47250+007783FM-12+041699999V0202301N004619999999N9999999N1+00541+00331102381ADDMA1999999097241MD1510021+9999OA149901031REMSYN088AAXX  12214 06643 33/// /2309 10054 20033 39724 40238 55002 333 55300 20000 91120 91210;
0146066430999992011011222004+47250+007783FM-12+041699999V0202301N005119999999N9999999N1+00501+00381102401ADDMA1999999097251MD1410001+9999OA149901031REMSYN094AAXX  12224 06643 23/// /2310 10050 20038 39725 40240 52000 333 55300 20000 69915 91120 91210;
0146066430999992011011223004+47250+007783FM-12+041699999V0202201N003619999999N9999999N1+00501+00431102401ADDMA1999999097251MD1210031+9999OA149901031REMSYN094AAXX  12234 06643 23/// /2207 10050 20043 39725 40240 52003 333 55300 20000 69955 91120 91210;
0163066430999992011011300004+47250+007783FM-12+041699999V0202101N004119999999N9999999N1+00521+00431102381ADDAA106003091MA1999999097231MD1710011+9999OA149901031REMSYN100AAXX  13004 06643 03/// /2108 10052 20043 39723 40238 57001 60031 333 55300 20000 60015 91120 91210;
0146066430999992011011301004+47250+007783FM-12+041699999V0202201N004119999999N9999999N1+00531+00441102311ADDMA1999999097171MD1710081+9999OA149900981REMSYN094AAXX  13014 06643 23/// /2208 10053 20044 39717 40231 57008 333 55300 20000 69965 91119 91211;
0146066430999992011011302004+47250+007783FM-12+041699999V0202201N004119999999N9999999N1+00561+00471102311ADDMA1999999097171MD1719999+9999OA149900981REMSYN094AAXX  13024 06643 23/// /2208 10056 20047 39717 40231 57/// 333 55300 20000 69915 91119 91211;
0087066430999992011011303004+47250+007783FM-12+041699999V0202301N004619999999N9999999N1+00561+00501102271ADDMA1999999097141REMSYN060AAXX  13034 06643 43/// /2309 10056 20050 39714 40227 5////;
0146066430999992011011304004+47250+007783FM-12+041699999V0202201N003619999999N9999999N1+00591+00531102261ADDMA1999999097131MD1719999+9999OA149901131REMSYN094AAXX  13044 06643 23/// /2207 10059 20053 39713 40226 57/// 333 55300 20000 69955 91122 91210;
0109066430999992011011305004+47250+007783FM-12+041699999V0202201N004119999999N9999999N1+00631+00551102241ADDMA1999999097121REMSYN082AAXX  13054 06643 23/// /2208 10063 20055 39712 40224 5//// 333 553// 20000 69985;
0230066430999992011011306004+47250+007783FM-12+041699999V0202001N004619999999N9999999N1+00671+00571102271ADDAA112005191AL19900791GJ100009IA2999+00409KA1999N+00481MA1999999097161MD1310021+9999OA149901131REMSYN124AAXX  13064 06643 03/// /2009 10067 20057 39716 40227 53002 60052 333 20048 3/004 55000 55300 20000 69915 70070 91122 91211;
0087066430999992011011307004+47250+007783FM-12+041699999V0202101N004619999999N9999999N1+00701+00591102241ADDMA1999999097131REMSYN060AAXX  13074 06643 43/// /2109 10070 20059 39713 40224 5////;
0087066430999992011011308004+47250+007783FM-12+041699999V0202301N004619999999N9999999N1+00721+00611102261ADDMA1999999097161REMSYN060AAXX  13084 06643 43/// /2309 10072 20061 39716 40226 5////;
0087066430999992011011309004+47250+007783FM-12+041699999V0202301N004119999999N9999999N1+00751+00631102271ADDMA1999999097171REMSYN060AAXX  13094 06643 43/// /2308 10075 20063 39717 40227 5////;
0087066430999992011011310004+47250+007783FM-12+041699999V0202401N004619999999N9999999N1+00821+00631102301ADDMA1999999097211REMSYN060AAXX  13104 06643 43/// /2409 10082 20063 39721 40230 5////;
0087066430999992011011311004+47250+007783FM-12+041699999V0202401N003619999999N9999999N1+00861+00661102261ADDMA1999999097181REMSYN060AAXX  13114 06643 43/// /2407 10086 20066 39718 40226 5////;
0087066430999992011011312004+47250+007783FM-12+041699999V0202301N004119999999N9999999N1+00921+00691102211ADDMA1999999097141REMSYN060AAXX  13124 06643 43/// /2308 10092 20069 39714 40221 5////;
0087066430999992011011313004+47250+007783FM-12+041699999V0202301N002619999999N9999999N1+00981+00741102121ADDMA1999999097071REMSYN060AAXX  13134 06643 43/// /2305 10098 20074 39707 40212 5////;
0087066430999992011011314004+47250+007783FM-12+041699999V0202301N004119999999N9999999N1+01071+00701102121ADDMA1999999097091REMSYN060AAXX  13144 06643 43/// /2308 10107 20070 39709 40212 5////;
0093066430999992011011315004+47250+007783FM-12+041699999V0202101N002119999999N9999999N1+01051+00721102151ADDMA1999999097111REMSYN066AAXX  13154 06643 43/// /2104 10105 20072 39711 40215 5//// 91440;
0087066430999992011011316004+47250+007783FM-12+041699999V0202301N003119999999N9999999N1+01011+00721102171ADDMA1999999097121REMSYN060AAXX  13164 06643 43/// /2306 10101 20072 39712 40217 5////;
0140066430999992011011317004+47250+007783FM-12+041699999V0202401N002119999999N9999999N1+01001+00721102201ADDMA1999999097151MD1210061+9999OA149900621REMSYN088AAXX  13174 06643 33/// /2404 10100 20072 39715 40220 52006 333 553// 20000 91112 91206;
0201066430999992011011318004+47250+007783FM-12+041699999V0202301N002119999999N9999999N1+00971+00751102211ADDAA112000091KA1120M+01071MA1999999097151MD1210031+9999OA149900931REMSYN106AAXX  13184 06643 03/// /2304 10097 20075 39715 40221 52003 69922 333 10107 55300 20000 60005 91118 91210;EQDQ01  00002PRCP12
0140066430999992011011319004+47250+007783FM-12+041699999V0202301N002619999999N9999999N1+00981+00751102221ADDMA1999999097161MD1210041+9999OA149900571REMSYN088AAXX  13194 06643 33/// /2305 10098 20075 39716 40222 52004 333 55300 20000 91111 91206;
0140066430999992011011320004+47250+007783FM-12+041699999V0202301N003119999999N9999999N1+00971+00751102191ADDMA1999999097131MD1810021+9999OA149900671REMSYN088AAXX  13204 06643 33/// /2306 10097 20075 39713 40219 58002 333 55300 20000 91113 91207;
0140066430999992011011321004+47250+007783FM-12+041699999V0202301N002119999999N9999999N1+00931+00721102201ADDMA1999999097141MD1710011+9999OA149900671REMSYN088AAXX  13214 06643 33/// /2304 10093 20072 39714 40220 57001 333 55300 20000 91113 91207;
0140066430999992011011322004+47250+007783FM-12+041699999V0202201N002119999999N9999999N1+00921+00691102191ADDMA1999999097131MD1710031+9999OA149900571REMSYN088AAXX  13224 06643 33/// /2204 10092 20069 39713 40219 57003 333 55300 20000 91111 91205;
0140066430999992011011323004+47250+007783FM-12+041699999V0202301N001019999999N9999999N1+00881+00681102211ADDMA1999999097141MD1210011+9999OA149900461REMSYN088AAXX  13234 06643 33/// /2302 10088 20068 39714 40221 52001 333 55300 20000 91109 91205;
0140066430999992011011400004+47250+007783FM-12+041699999V0202001N000519999999N9999999N1+00791+00681102231ADDMA1999999097141MD1010001+9999OA149900821REMSYN088AAXX  14004 06643 33/// /2001 10079 20068 39714 40223 50000 333 55300 20000 91116 91208;
0140066430999992011011401004+47250+007783FM-12+041699999V0202201N001019999999N9999999N1+00711+00641102271ADDMA1999999097161MD1210031+9999OA149900261REMSYN088AAXX  14014 06643 33/// /2202 10071 20064 39716 40227 52003 333 55300 20000 91105 91203;
0103066430999992011011402004+47250+007783FM-12+041699999V0200601N000519999999N9999999N1+00741+00631102321ADDMA1999999097221REMSYN076AAXX  14024 06643 33/// /0601 10074 20063 39722 40232 5//// 333 553// 20000;
0140066430999992011011403004+47250+007783FM-12+041699999V0202201N001019999999N9999999N1+00691+00641102331ADDMA1999999097221MD1210081+9999OA149900461REMSYN088AAXX  14034 06643 33/// /2202 10069 20064 39722 40233 52008 333 55300 20000 91109 91205;
0140066430999992011011404004+47250+007783FM-12+041699999V0202401N001019999999N9999999N1+00661+00611102311ADDMA1999999097191MD1010031+9999OA149900211REMSYN088AAXX  14044 06643 33/// /2402 10066 20061 39719 40231 50003 333 55300 20000 91104 91202;
0140066430999992011011405004+47250+007783FM-12+041699999V0202401N001019999999N9999999N1+00651+00601102311ADDMA1999999097191MD1710031+9999OA149900211REMSYN088AAXX  14054 06643 33/// /2402 10065 20060 39719 40231 57003 333 55300 20000 91104 91203;
0207066430999992011011406004+47250+007783FM-12+041699999V0202501N001019999999N9999999N1+00641+00601102351ADDAL11200091GJ100009IA2999+00609KA1999N+00651MA1999999097231MD1310011+9999OA149900671REMSYN112AAXX  14064 06643 33/// /2502 10064 20060 39723 40235 53001 333 20065 3/006 55000 55300 20000 70002 91113 91207;
0140066430999992011011407004+47250+007783FM-12+041699999V0209999C000019999999N9999999N1+00681+00631102331ADDMA1999999097211MD1210021+9999OA149900151REMSYN088AAXX  14074 06643 33/// /0000 10068 20063 39721 40233 52002 333 55300 20000 91103 91203;
0087066430999992011011408004+47250+007783FM-12+041699999V0202401N000519999999N9999999N1+00651+00621102351ADDMA1999999097231REMSYN060AAXX  14084 06643 43/// /2401 10065 20062 39723 40235 5////;
0087066430999992011011409004+47250+007783FM-12+041699999V0202201N001519999999N9999999N1+00741+00671102291ADDMA1999999097191REMSYN060AAXX  14094 06643 43/// /2203 10074 20067 39719 40229 5////;
0087066430999992011011410004+47250+007783FM-12+041699999V0202201N001519999999N9999999N1+00931+00651102261ADDMA1999999097191REMSYN060AAXX  14104 06643 43/// /2203 10093 20065 39719 40226 5////;
0140066430999992011011411004+47250+007783FM-12+041699999V0202401N001519999999N9999999N1+01031+00621102221ADDMA1999999097171MD1710061+9999OA149900411REMSYN088AAXX  14114 06643 33/// /2403 10103 20062 39717 40222 57006 333 55300 20500 91108 91204;
0140066430999992011011412004+47250+007783FM-12+041699999V0202701N002119999999N9999999N1+01081+00581102121ADDMA1999999097091MD1710101+9999OA149900411REMSYN088AAXX  14124 06643 33/// /2704 10108 20058 39709 40212 57010 333 55301 20706 91108 91204;
0140066430999992011011413004+47250+007783FM-12+041699999V0202601N001519999999N9999999N1+01101+00551102091ADDMA1999999097061MD1710131+9999OA149900461REMSYN088AAXX  14134 06643 33/// /2603 10110 20055 39706 40209 57013 333 55300 20500 91109 91204;
0103066430999992011011414004+47250+007783FM-12+041699999V0202601N001019999999N9999999N1+01101+00541102071ADDMA1999999097041REMSYN076AAXX  14144 06643 33/// /2602 10110 20054 39704 40207 5//// 333 553// 20382;
0140066430999992011011415004+47250+007783FM-12+041699999V0202301N000519999999N9999999N1+01061+00621102061ADDMA1999999097031MD1710061+9999OA149900461REMSYN088AAXX  14154 06643 33/// /2301 10106 20062 39703 40206 57006 333 55300 20270 91109 91204;
0140066430999992011011416004+47250+007783FM-12+041699999V0201901N001019999999N9999999N1+00861+00571102081ADDMA1999999097011MD1710051+9999OA149900151REMSYN088AAXX  14164 06643 33/// /1902 10086 20057 39701 40208 57005 333 55303 20115 91103 91202;
0140066430999992011011417004+47250+007783FM-12+041699999V0202001N001019999999N9999999N1+00671+00461102081ADDMA1999999096981MD1710061+9999OA149900151REMSYN088AAXX  14174 06643 33/// /2002 10067 20046 39698 40208 57006 333 55300 20000 91103 91202;
0159066430999992011011418004+47250+007783FM-12+041699999V0202001N001019999999N9999999N1+00491+00411102101ADDKA1120M+01111MA1999999096961MD1710071+9999OA149900461REMSYN094AAXX  14184 06643 33/// /2002 10049 20041 39696 40210 57007 333 10111 55300 20000 91109 91204;
0140066430999992011011419004+47250+007783FM-12+041699999V0202401N001019999999N9999999N1+00381+00341102131ADDMA1999999096971MD1710041+9999OA149900211REMSYN088AAXX  14194 06643 33/// /2402 10038 20034 39697 40213 57004 333 55300 20000 91104 91202;
0140066430999992011011420004+47250+007783FM-12+041699999V0202001N001019999999N9999999N1+00371+00321102161ADDMA1999999097001MD1310021+9999OA149900211REMSYN088AAXX  14204 06643 33/// /2002 10037 20032 39700 40216 53002 333 55300 20000 91104 91203;
0140066430999992011011421004+47250+007783FM-12+041699999V0202201N001019999999N9999999N1+00291+00251102241ADDMA1999999097061MD1210101+9999OA149900211REMSYN088AAXX  14214 06643 33/// /2202 10029 20025 39706 40224 52010 333 55300 20000 91104 91203;
0140066430999992011011422004+47250+007783FM-12+041699999V0202401N000519999999N9999999N1+00321+00281102331ADDMA1999999097151MD1210181+9999OA149900211REMSYN088AAXX  14224 06643 33/// /2401 10032 20028 39715 40233 52018 333 55300 20000 91104 91203;
0140066430999992011011423004+47250+007783FM-12+041699999V0202201N001519999999N9999999N1+00501+00421102371ADDMA1999999097221MD1210221+9999OA149900311REMSYN088AAXX  14234 06643 33/// /2203 10050 20042 39722 40237 52022 333 55300 20000 91106 91203;
0140066430999992011011500004+47250+007783FM-12+041699999V0202301N002119999999N9999999N1+00621+00451102391ADDMA1999999097261MD1210201+9999OA149900571REMSYN088AAXX  15004 06643 33/// /2304 10062 20045 39726 40239 52020 333 55300 20000 91111 91206;
0146066430999992011011501004+47250+007783FM-12+041699999V0202001N002619999999N9999999N1+00671+00551102441ADDMA1999999097321MD1210171+9999OA149900571REMSYN094AAXX  15014 06643 23/// /2005 10067 20055 39732 40244 52017 333 55300 20000 60025 91111 91206;
0146066430999992011011502004+47250+007783FM-12+041699999V0202201N001519999999N9999999N1+00641+00591102531ADDMA1999999097401MD1219999+9999OA149900411REMSYN094AAXX  15024 06643 23/// /2203 10064 20059 39740 40253 52/// 333 55300 20000 69935 91108 91205;
0109066430999992011011503004+47250+007783FM-12+041699999V0202601N003119999999N9999999N1+00741+00611102581ADDMA1999999097461REMSYN082AAXX  15034 06643 23/// /2606 10074 20061 39746 40258 5//// 333 553// 20000 69945;
0146066430999992011011504004+47250+007783FM-12+041699999V0201901N003119999999N9999999N1+00721+00581102691ADDMA1999999097561MD1210241+9999OA149900671REMSYN094AAXX  15044 06643 23/// /1906 10072 20058 39756 40269 52024 333 55300 20000 69925 91113 91208;
0140066430999992011011505004+47250+007783FM-12+041699999V0201901N001019999999N9999999N1+00561+00531102811ADDMA1999999097651MD1210251+9999OA149900671REMSYN088AAXX  15054 06643 33/// /1902 10056 20053 39765 40281 52025 333 55300 20000 91113 91208;
0230066430999992011011506004+47250+007783FM-12+041699999V0202201N000519999999N9999999N1+00391+00371102911ADDAA112003091AL13000291GJ100249IA2999+00109KA1999N+00281MA1999999097711MD1210251+9999OA149900671REMSYN124AAXX  15064 06643 03/// /2201 10039 20037 39771 40291 52025 60032 333 20028 3/001 55004 55300 20000 60005 70025 91113 91208;
0140066430999992011011507004+47250+007783FM-12+041699999V0209999C000019999999N9999999N1+00261+00261102981ADDMA1999999097751MD1210191+9999OA149900211REMSYN088AAXX  15074 06643 33/// /0000 10026 20026 39775 40298 52019 333 55300 20000 91104 91202;
0140066430999992011011508004+47250+007783FM-12+041699999V0202201N001019999999N9999999N1+00171+00171103021ADDMA1999999097771MD1219999+9999OA149900151REMSYN088AAXX  15084 06643 33/// /2202 10017 20017 39777 40302 52/// 333 55300 20036 91103 91202;
0140066430999992011011509004+47250+007783FM-12+041699999V0202601N000519999999N9999999N1+00301+00281103041ADDMA1999999097821MD1210111+9999OA149900671REMSYN088AAXX  15094 06643 33/// /2601 10030 20028 39782 40304 52011 333 55302 20331 91113 91208;
0140066430999992011011510004+47250+007783FM-12+041699999V0202101N000519999999N9999999N1+00671+00561102971ADDMA1999999097821MD1210071+9999OA149900151REMSYN088AAXX  15104 06643 33/// /2101 10067 20056 39782 40297 52007 333 55308 20889 91103 91202;
0140066430999992011011511004+47250+007783FM-12+041699999V0202101N001019999999N9999999N1+00971+00481102871ADDMA1999999097781MD1810011+9999OA149900211REMSYN088AAXX  15114 06643 33/// /2102 10097 20048 39778 40287 58001 333 55308 2//// 91104 91202;
0140066430999992011011512004+47250+007783FM-12+041699999V0202001N000519999999N9999999N1+00961+00601102821ADDMA1999999097731MD1710091+9999OA149900671REMSYN088AAXX  15124 06643 33/// /2001 10096 20060 39773 40282 57009 333 55308 2//// 91113 91208;
0103066430999992011011513004+47250+007783FM-12+041699999V0202601N001019999999N9999999N1+01061+00351102761ADDMA1999999097691REMSYN076AAXX  15134 06643 33/// /2602 10106 20035 39769 40276 5//// 333 553// 20990;
0087066430999992011011514004+47250+007783FM-12+041699999V0202701N000519999999N9999999N1+01011+00561102801ADDMA1999999097721REMSYN060AAXX  15144 06643 43/// /2701 10101 20056 39772 40280 5////;
0087066430999992011011515004+47250+007783FM-12+041699999V0201801N000519999999N9999999N1+00771+00511102881ADDMA1999999097751REMSYN060AAXX  15154 06643 43/// /1801 10077 20051 39775 40288 5////;
0087066430999992011011516004+47250+007783FM-12+041699999V0201401N000519999999N9999999N1+00571+00431102931ADDMA1999999097761REMSYN060AAXX  15164 06643 43/// /1401 10057 20043 39776 40293 5////;
0103066430999992011011517004+47250+007783FM-12+041699999V0202201N000519999999N9999999N1+00421+00361102971ADDMA1999999097771REMSYN076AAXX  15174 06643 33/// /2201 10042 20036 39777 40297 5//// 333 553// 20004;
0110066430999992011011518004+47250+007783FM-12+041699999V0209999C000019999999N9999999N1+00371+00321103031ADDKA1999M+01061MA1999999097821REMSYN070AAXX  15184 06643 43/// /0000 10037 20032 39782 40303 5//// 333 10106;
0087066430999992011011519004+47250+007783FM-12+041699999V0202301N001019999999N9999999N1+00251+00231103051ADDMA1999999097821REMSYN060AAXX  15194 06643 43/// /2302 10025 20023 39782 40305 5////;
0087066430999992011011520004+47250+007783FM-12+041699999V0209999C000019999999N9999999N1+00211+00201103081ADDMA1999999097841REMSYN060AAXX  15204 06643 43/// /0000 10021 20020 39784 40308 5////;
0140066430999992011011521004+47250+007783FM-12+041699999V0200101N000519999999N9999999N1+00101+00101103111ADDMA1999999097851MD1210031+9999OA149900151REMSYN088AAXX  15214 06643 33/// /0101 10010 20010 39785 40311 52003 333 55300 20000 91103 91202;
0140066430999992011011522004+47250+007783FM-12+041699999V0202401N001019999999N9999999N1+00051+00051103111ADDMA1999999097841MD1210021+9999OA149900151REMSYN088AAXX  15224 06643 33/// /2402 10005 20005 39784 40311 52002 333 55300 20000 91103 91202;
0140066430999992011011523004+47250+007783FM-12+041699999V0202101N000519999999N9999999N1+00021+00021103101ADDMA1999999097821MD1810021+9999OA149900151REMSYN088AAXX  15234 06643 33/// /2101 10002 20002 39782 40310 58002 333 55300 20000 91103 91202;
0140066430999992011011600004+47250+007783FM-12+041699999V0200401N000519999999N9999999N1-00081-00081103091ADDMA1999999097791MD1710061+9999OA149900311REMSYN088AAXX  16004 06643 33/// /0401 11008 21008 39779 40309 57006 333 55300 20000 91106 91203;
0140066430999992011011601004+47250+007783FM-12+041699999V0201101N000519999999N9999999N1-00081-00081103081ADDMA1999999097781MD1610061+9999OA149900101REMSYN088AAXX  16014 06643 33/// /1101 11008 21008 39778 40308 56006 333 55300 20000 91102 91201;
0140066430999992011011602004+47250+007783FM-12+041699999V0202401N000519999999N9999999N1-00131-00131103091ADDMA1999999097781MD1719999+9999OA149900101REMSYN088AAXX  16024 06643 33/// /2401 11013 21013 39778 40309 57/// 333 55300 20000 91102 91202;
0087066430999992011011603004+47250+007783FM-12+041699999V0209999C000019999999N9999999N1-00161-00161103081ADDMA1999999097771REMSYN060AAXX  16034 06643 43/// /0000 11016 21016 39777 40308 5////;
0140066430999992011011604004+47250+007783FM-12+041699999V0200501N000519999999N9999999N1-00141-00141103081ADDMA1999999097771MD1710011+9999OA149900101REMSYN088AAXX  16044 06643 33/// /0501 11014 21014 39777 40308 57001 333 55300 20000 91102 91201;
0140066430999992011011605004+47250+007783FM-12+041699999V0201501N000519999999N9999999N1-00111-00111103091ADDMA1999999097791MD1310011+9999OA149900151REMSYN088AAXX  16054 06643 33/// /1501 11011 21011 39779 40309 53001 333 55300 20000 91103 91201;
0207066430999992011011606004+47250+007783FM-12+041699999V0202301N000519999999N9999999N1-00131-00131103121ADDAL19900091GJ103069IA2999-00209KA1999N-00171MA1999999097811MD1210041+9999OA149900151REMSYN112AAXX  16064 06643 33/// /2301 11013 21013 39781 40312 52004 333 21017 3/102 55051 55300 20000 70000 91103 91202;
0140066430999992011011607004+47250+007783FM-12+041699999V0202501N001019999999N9999999N1-00091-00121103161ADDMA1999999097861MD1310091+9999OA149900261REMSYN088AAXX  16074 06643 33/// /2502 11009 21012 39786 40316 53009 333 55300 20000 91105 91202;
0140066430999992011011608004+47250+007783FM-12+041699999V0202601N001019999999N9999999N1-00111-00141103201ADDMA1999999097891MD1219999+9999OA149900261REMSYN088AAXX  16084 06643 33/// /2602 11011 21014 39789 40320 52/// 333 55300 20047 91105 91203;
0140066430999992011011609004+47250+007783FM-12+041699999V0202901N001019999999N9999999N1-00101-00111103211ADDMA1999999097901MD1210091+9999OA149900261REMSYN088AAXX  16094 06643 33/// /2902 11010 21011 39790 40321 52009 333 55300 20216 91105 91203;
0140066430999992011011610004+47250+007783FM-12+041699999V0202801N000519999999N9999999N1-00031-00071103201ADDMA1999999097911MD1210051+9999OA149900151REMSYN088AAXX  16104 06643 33/// /2801 11003 21007 39791 40320 52005 333 55300 20385 91103 91202;
0140066430999992011011611004+47250+007783FM-12+041699999V0202901N000519999999N9999999N1+00061+00031103141ADDMA1999999097871MD1810021+9999OA149900151REMSYN088AAXX  16114 06643 33/// /2901 10006 20003 39787 40314 58002 333 55302 20634 91103 91201;
0140066430999992011011612004+47250+007783FM-12+041699999V0200301N000519999999N9999999N1+00161+00141103051ADDMA1999999097801MD1710101+9999OA149900261REMSYN088AAXX  16124 06643 33/// /0301 10016 20014 39780 40305 57010 333 55304 20824 91105 91203;
0140066430999992011011613004+47250+007783FM-12+041699999V0200601N001519999999N9999999N1+00371+00291102921ADDMA1999999097721MD1810191+9999OA149900211REMSYN088AAXX  16134 06643 33/// /0603 10037 20029 39772 40292 58019 333 55308 2//// 91104 91203;
0140066430999992011011614004+47250+007783FM-12+041699999V0201001N000519999999N9999999N1+00571+00391102851ADDMA1999999097691MD1619999+9999OA149900211REMSYN088AAXX  16144 06643 33/// /1001 10057 20039 39769 40285 56/// 333 55308 2//// 91104 91203;
0140066430999992011011615004+47250+007783FM-12+041699999V0201001N000519999999N9999999N1+00511+00391102831ADDMA1999999097661MD1610141+9999OA149900211REMSYN088AAXX  16154 06643 33/// /1001 10051 20039 39766 40283 56014 333 55306 20497 91104 91203;
0140066430999992011011616004+47250+007783FM-12+041699999V0201701N000519999999N9999999N1+00351+00291102871ADDMA1999999097671MD1710051+9999OA149900101REMSYN088AAXX  16164 06643 33/// /1701 10035 20029 39767 40287 57005 333 55301 20090 91102 91202;
0140066430999992011011617004+47250+007783FM-12+041699999V0202301N001019999999N9999999N1+00231+00201102921ADDMA1999999097691MD1510001+9999OA149900101REMSYN088AAXX  16174 06643 33/// /2302 10023 20020 39769 40292 55000 333 55300 20004 91102 91202;
0159066430999992011011618004+47250+007783FM-12+041699999V0202301N000519999999N9999999N1+00091+00071102981ADDKA1120M+00641MA1999999097721MD1210061+9999OA149900261REMSYN094AAXX  16184 06643 33/// /2301 10009 20007 39772 40298 52006 333 10064 55300 20000 91105 91203;
0140066430999992011011619004+47250+007783FM-12+041699999V0200601N001019999999N9999999N1-00021-00021103021ADDMA1999999097741MD1310071+9999OA149900151REMSYN088AAXX  16194 06643 33/// /0602 11002 21002 39774 40302 53007 333 55300 20000 91103 91203;
0140066430999992011011620004+47250+007783FM-12+041699999V0202501N000519999999N9999999N1-00061-00071103041ADDMA1999999097751MD1110061+9999OA149900151REMSYN088AAXX  16204 06643 33/// /2501 11006 21007 39775 40304 51006 333 55300 20000 91103 91203;
0140066430999992011011621004+47250+007783FM-12+041699999V0203301N000519999999N9999999N1-00151-00151103101ADDMA1999999097791MD1310071+9999OA149900151REMSYN088AAXX  16214 06643 33/// /3301 11015 21015 39779 40310 53007 333 55300 20000 91103 91203;
0140066430999992011011622004+47250+007783FM-12+041699999V0202401N000519999999N9999999N1-00211-00211103111ADDMA1999999097791MD1210051+9999OA149900101REMSYN088AAXX  16224 06643 33/// /2401 11021 21021 39779 40311 52005 333 55300 20000 91102 91201;
0140066430999992011011623004+47250+007783FM-12+041699999V0202001N000519999999N9999999N1-00191-00191103111ADDMA1999999097791MD1210041+9999OA149900101REMSYN088AAXX  16234 06643 33/// /2001 11019 21019 39779 40311 52004 333 55300 20000 91102 91201;
0140066430999992011011700004+47250+007783FM-12+041699999V0201301N001019999999N9999999N1-00201-00201103111ADDMA1999999097791MD1010001+9999OA149900211REMSYN088AAXX  17004 06643 33/// /1302 11020 21020 39779 40311 50000 333 55300 20000 91104 91203;
0140066430999992011011701004+47250+007783FM-12+041699999V0201401N000519999999N9999999N1-00201-00201103101ADDMA1999999097781MD1810011+9999OA149900151REMSYN088AAXX  17014 06643 33/// /1401 11020 21020 39778 40310 58001 333 55300 20000 91103 91202;
0140066430999992011011702004+47250+007783FM-12+041699999V0201001N000519999999N9999999N1-00221-00221103101ADDMA1999999097781MD1719999+9999OA149900101REMSYN088AAXX  17024 06643 33/// /1001 11022 21022 39778 40310 57/// 333 55300 20000 91102 91201;
0103066430999992011011703004+47250+007783FM-12+041699999V0202201N000519999999N9999999N1-00211-00211103091ADDMA1999999097771REMSYN076AAXX  17034 06643 33/// /2201 11021 21021 39777 40309 5//// 333 553// 20000;
0140066430999992011011704004+47250+007783FM-12+041699999V0202201N000519999999N9999999N1-00211-00211103061ADDMA1999999097741MD1710041+9999OA149900151REMSYN088AAXX  17044 06643 33/// /2201 11021 21021 39774 40306 57004 333 55300 20000 91103 91202;
0140066430999992011011705004+47250+007783FM-12+041699999V0202101N000519999999N9999999N1-00191-00191103021ADDMA1999999097711MD1710071+9999OA149900101REMSYN088AAXX  17054 06643 33/// /2101 11019 21019 39771 40302 57007 333 55300 20000 91102 91201;
0207066430999992011011706004+47250+007783FM-12+041699999V0202201N001019999999N9999999N1-00201-00211103021ADDAL19900091GJ101989IA2999-00309KA1999N-00251MA1999999097701MD1610071+9999OA149900151REMSYN112AAXX  17064 06643 33/// /2202 11020 21021 39770 40302 56007 333 21025 3/103 55033 55300 20000 70000 91103 91203;
0140066430999992011011707004+47250+007783FM-12+041699999V0202201N001019999999N9999999N1-00221-00231103011ADDMA1999999097691MD1610051+9999OA149900211REMSYN088AAXX  17074 06643 33/// /2202 11022 21023 39769 40301 56005 333 55300 20000 91104 91202;
0087066430999992011011708004+47250+007783FM-12+041699999V0202101N001019999999N9999999N1-00231-00251103021ADDMA1999999097701REMSYN060AAXX  17084 06643 43/// /2102 11023 21025 39770 40302 5////;
0087066430999992011011709004+47250+007783FM-12+041699999V0202201N001519999999N9999999N1-00181-00201103001ADDMA1999999097691REMSYN060AAXX  17094 06643 43/// /2203 11018 21020 39769 40300 5////;
0140066430999992011011710004+47250+007783FM-12+041699999V0202301N001519999999N9999999N1-00071-00111103011ADDMA1999999097721MD1210031+9999OA149900411REMSYN088AAXX  17104 06643 33/// /2303 11007 21011 39772 40301 52003 333 55302 20536 91108 91204;
0140066430999992011011711004+47250+007783FM-12+041699999V0202201N001519999999N9999999N1+00141+00041102961ADDMA1999999097711MD1210011+9999OA149900411REMSYN088AAXX  17114 06643 33/// /2203 10014 20004 39771 40296 52001 333 55304 20914 91108 91204;
0140066430999992011011712004+47250+007783FM-12+041699999V0202301N001519999999N9999999N1+00401+00191102871ADDMA1999999097681MD1810011+9999OA149900411REMSYN088AAXX  17124 06643 33/// /2303 10040 20019 39768 40287 58001 333 55308 2//// 91108 91204;
0140066430999992011011713004+47250+007783FM-12+041699999V0202201N003119999999N9999999N1+00571+00291102791ADDMA1999999097631MD1810091+9999OA149900671REMSYN088AAXX  17134 06643 33/// /2206 10057 20029 39763 40279 58009 333 55308 2//// 91113 91207;
0087066430999992011011714004+47250+007783FM-12+041699999V0202401N003119999999N9999999N1+00591+00271102801ADDMA1999999097641REMSYN060AAXX  17144 06643 43/// /2406 10059 20027 39764 40280 5////;
0087066430999992011011715004+47250+007783FM-12+041699999V0202601N001519999999N9999999N1+00551+00261102831ADDMA1999999097671REMSYN060AAXX  17154 06643 43/// /2603 10055 20026 39767 40283 5////;
0140066430999992011011716004+47250+007783FM-12+041699999V0202201N002119999999N9999999N1+00471+00261102871ADDMA1999999097691MD1210061+9999OA149900571REMSYN088AAXX  17164 06643 33/// /2204 10047 20026 39769 40287 52006 333 55301 20094 91111 91206;
0140066430999992011011717004+47250+007783FM-12+041699999V0202101N000519999999N9999999N1+00271+00201102951ADDMA1999999097731MD1310091+9999OA149900571REMSYN088AAXX  17174 06643 33/// /2101 10027 20020 39773 40295 53009 333 55300 20004 91111 91206;
0159066430999992011011718004+47250+007783FM-12+041699999V0202101N001019999999N9999999N1+00161+00121103001ADDKA1120M+00601MA1999999097751MD1310081+9999OA149900671REMSYN094AAXX  17184 06643 33/// /2102 10016 20012 39775 40300 53008 333 10060 55300 20000 91113 91207;
0140066430999992011011719004+47250+007783FM-12+041699999V0202601N001019999999N9999999N1+00021+00021103051ADDMA1999999097771MD1210081+9999OA149900211REMSYN088AAXX  17194 06643 33/// /2602 10002 20002 39777 40305 52008 333 55300 20000 91104 91202;
0140066430999992011011720004+47250+007783FM-12+041699999V0202201N000519999999N9999999N1-00011-00011103061ADDMA1999999097781MD1210051+9999OA149900211REMSYN088AAXX  17204 06643 33/// /2201 11001 21001 39778 40306 52005 333 55300 20000 91104 91202;
0140066430999992011011721004+47250+007783FM-12+041699999V0201901N001019999999N9999999N1-00011-00011103061ADDMA1999999097781MD1210031+9999OA149900571REMSYN088AAXX  17214 06643 33/// /1902 11001 21001 39778 40306 52003 333 55300 20000 91111 91206;
0140066430999992011011722004+47250+007783FM-12+041699999V0202601N001019999999N9999999N1-00011-00021103081ADDMA1999999097801MD1210031+9999OA149900211REMSYN088AAXX  17224 06643 33/// /2602 11001 21002 39780 40308 52003 333 55300 20000 91104 91202;
0140066430999992011011723004+47250+007783FM-12+041699999V0202301N001019999999N9999999N1-00071-00071103101ADDMA1999999097801MD1210021+9999OA149900311REMSYN088AAXX  17234 06643 33/// /2302 11007 21007 39780 40310 52002 333 55300 20000 91106 91203;
0159066430999992011011800004+47250+007783FM-12+041699999V0202101N001019999999N9999999N1-00051-00061103071ADDMA1999999097781MD1810011+9999OA149900671REMSYN088AAXX  18004 06643 33/// /2102 11005 21006 39778 40307 58000 333 55300 20000 91113 91207;EQDQ01+000002APC3  
0140066430999992011011801004+47250+007783FM-12+041699999V0202501N001019999999N9999999N1-00031-00071103091ADDMA1999999097801MD1019999+9999OA149900261REMSYN088AAXX  18014 06643 33/// /2502 11003 21007 39780 40309 50/// 333 55300 20000 91105 91203;
0087066430999992011011802004+47250+007783FM-12+041699999V0201901N000519999999N9999999N1-00061-00061103071ADDMA1999999097781REMSYN060AAXX  18024 06643 43/// /1901 11006 21006 39778 40307 5////;
0087066430999992011011803004+47250+007783FM-12+041699999V0201701N000519999999N9999999N1-00111-00111103071ADDMA1999999097771REMSYN060AAXX  18034 06643 43/// /1701 11011 21011 39777 40307 5////;
0103066430999992011011804004+47250+007783FM-12+041699999V0201701N000519999999N9999999N1-00131-00131103041ADDMA1999999097741REMSYN076AAXX  18044 06643 33/// /1701 11013 21013 39774 40304 5//// 333 553// 20000;
0140066430999992011011805004+47250+007783FM-12+041699999V0202701N001019999999N9999999N1-00171-00171103031ADDMA1999999097721MD1710061+9999OA149900151REMSYN088AAXX  18054 06643 33/// /2702 11017 21017 39772 40303 57006 333 55300 20000 91103 91202;
0207066430999992011011806004+47250+007783FM-12+041699999V0202001N001019999999N9999999N1-00181-00191103061ADDAL19900091GJ102709IA2999-00209KA1999N-00181MA1999999097751MD1510021+9999OA149900311REMSYN112AAXX  18064 06643 33/// /2002 11018 21019 39775 40306 55002 333 21018 3/102 55045 55300 20000 70000 91106 91203;
0140066430999992011011807004+47250+007783FM-12+041699999V0202201N001019999999N9999999N1-00161-00201103061ADDMA1999999097751MD1310011+9999OA149900261REMSYN088AAXX  18074 06643 33/// /2202 11016 21020 39775 40306 53001 333 55300 20000 91105 91203;
0087066430999992011011808004+47250+007783FM-12+041699999V0202601N001519999999N9999999N1-00111-00171103081ADDMA1999999097781REMSYN060AAXX  18084 06643 43/// /2603 11011 21017 39778 40308 5////;
0087066430999992011011809004+47250+007783FM-12+041699999V0202701N000519999999N9999999N1-00051-00141103041ADDMA1999999097751REMSYN060AAXX  18094 06643 43/// /2701 11005 21014 39775 40304 5////;
0140066430999992011011810004+47250+007783FM-12+041699999V0202301N001019999999N9999999N1+00061-00031103011ADDMA1999999097741MD1810011+9999OA149900151REMSYN088AAXX  18104 06643 33/// /2302 10006 21003 39774 40301 58001 333 55300 20436 91103 91202;
0140066430999992011011811004+47250+007783FM-12+041699999V0202701N000519999999N9999999N1+00171+00031102911ADDMA1999999097671MD1810111+9999OA149900211REMSYN088AAXX  18114 06643 33/// /2701 10017 20003 39767 40291 58011 333 55300 20616 91104 91202;
0140066430999992011011812004+47250+007783FM-12+041699999V0203501N000519999999N9999999N1+00271+00161102841ADDMA1999999097621MD1819999+9999OA149900261REMSYN088AAXX  18124 06643 33/// /3501 10027 20016 39762 40284 58/// 333 55300 20479 91105 91203;
0103066430999992011011813004+47250+007783FM-12+041699999V0200501N001019999999N9999999N1+00331+00211102751ADDMA1999999097551REMSYN076AAXX  18134 06643 33/// /0502 10033 20021 39755 40275 5//// 333 553// 20500;
0087066430999992011011814004+47250+007783FM-12+041699999V0202401N000519999999N9999999N1+00441+00231102711ADDMA1999999097531REMSYN060AAXX  18144 06643 43/// /2401 10044 20023 39753 40271 5////;
0087066430999992011011815004+47250+007783FM-12+041699999V0202301N001019999999N9999999N1+00451+00281102721ADDMA1999999097541REMSYN060AAXX  18154 06643 43/// /2302 10045 20028 39754 40272 5////;
0140066430999992011011816004+47250+007783FM-12+041699999V0202101N001519999999N9999999N1+00381+00211102751ADDMA1999999097561MD1310011+9999OA149900311REMSYN088AAXX  18164 06643 33/// /2103 10038 20021 39756 40275 53001 333 55301 20148 91106 91203;
0140066430999992011011817004+47250+007783FM-12+041699999V0209999C000019999999N9999999N1+00261+00181102841ADDMA1999999097621MD1210091+9999OA149900311REMSYN088AAXX  18174 06643 33/// /0000 10026 20018 39762 40284 52009 333 55300 20004 91106 91204;
0159066430999992011011818004+47250+007783FM-12+041699999V0202301N000519999999N9999999N1+00301+00201102841ADDKA1120M+00461MA1999999097631MD1210091+9999OA149900311REMSYN094AAXX  18184 06643 33/// /2301 10030 20020 39763 40284 52009 333 10046 55300 20000 91106 91204;
0140066430999992011011819004+47250+007783FM-12+041699999V0209999C000019999999N9999999N1+00241+00181102841ADDMA1999999097621MD1010061+9999OA149900151REMSYN088AAXX  18194 06643 33/// /0000 10024 20018 39762 40284 50006 333 55300 20000 91103 91202;
0140066430999992011011820004+47250+007783FM-12+041699999V0209999C000019999999N9999999N1+00231+00181102861ADDMA1999999097631MD1010011+9999OA149900151REMSYN088AAXX  18204 06643 33/// /0000 10023 20018 39763 40286 50001 333 55300 20000 91103 91202;
0140066430999992011011821004+47250+007783FM-12+041699999V0202801N000519999999N9999999N1+00161+00131102881ADDMA1999999097641MD1510011+9999OA149900311REMSYN088AAXX  18214 06643 33/// /2801 10016 20013 39764 40288 55001 333 55300 20000 91106 91204;
0140066430999992011011822004+47250+007783FM-12+041699999V0201501N000519999999N9999999N1+00131+00101102901ADDMA1999999097651MD1210031+9999OA149900101REMSYN088AAXX  18224 06643 33/// /1501 10013 20010 39765 40290 52003 333 553// 20000 91102 91201;
0140066430999992011011823004+47250+007783FM-12+041699999V0209999C000019999999N9999999N1+00121+00091102911ADDMA1999999097661MD1210031+9999OA149900101REMSYN088AAXX  18234 06643 33/// /0000 10012 20009 39766 40291 52003 333 55300 20000 91102 91201;
