0128066460999992010010100004+47567+008233FM-12+032799999V0209999C000019999999N9999999N1+00491+00491099331ADDMA1999999095441MD1610111+9999OA149900361REMSYN076AAXX  01004 06646 33/// /0000 10049 20049 39544 49933 56011 333 91107 91203;
0128066460999992010010101004+47567+008233FM-12+032799999V0201601N000519999999N9999999N1+00471+00471099281ADDMA1999999095391MD1810121+9999OA149900151REMSYN076AAXX  01014 06646 33/// /1601 10047 20047 39539 49928 58012 333 91103 91201;
0128066460999992010010102004+47567+008233FM-12+032799999V0200501N001019999999N9999999N1+00491+00491099251ADDMA1999999095371MD1719999+9999OA149900151REMSYN076AAXX  01024 06646 33/// /0502 10049 20049 39537 49925 57/// 333 91103 91202;
0087066460999992010010103004+47567+008233FM-12+032799999V0209999C000019999999N9999999N1+00481+00481099191ADDMA1999999095311REMSYN060AAXX  01034 06646 43/// /0000 10048 20048 39531 49919 5////;
0087066460999992010010104004+47567+008233FM-12+032799999V0200501N000519999999N9999999N1+00481+00481099171ADDMA1999999095291REMSYN060AAXX  01044 06646 33/// /0501 10048 20048 39529 49917 5////;
0128066460999992010010105004+47567+008233FM-12+032799999V0203501N001019999999N9999999N1+00471+00471099141ADDMA1999999095261MD1710111+9999OA149900151REMSYN076AAXX  01054 06646 33/// /3502 10047 20047 39526 49914 57011 333 91103 91202;
0206066460999992010010106004+47567+008233FM-12+032799999V0209999C000019999999N9999999N1+00471+00471099131ADDAA124007691AL13000791GJ100009IA2999+00209KA1999N+00461MA1999999095251MD1710061+9999OA149900151REMSYN100AAXX  01064 06646 33/// /0000 10047 20047 39525 49913 57006 333 20046 3/002 55000 70075 91103 91202;
0128066460999992010010107004+47567+008233FM-12+032799999V0200301N000519999999N9999999N1+00461+00461099111ADDMA1999999095231MD1710061+9999OA149900151REMSYN076AAXX  01074 06646 33/// /0301 10046 20046 39523 49911 57006 333 91103 91201;
0128066460999992010010108004+47567+008233FM-12+032799999V0200701N001019999999N9999999N1+00461+00451099151ADDMA1999999095271MD1310011+9999OA149900211REMSYN076AAXX  01084 06646 33/// /0702 10046 20045 39527 49915 53001 333 91104 91202;
0128066460999992010010109004+47567+008233FM-12+032799999V0201201N001019999999N9999999N1+00431+00411099211ADDMA1999999095321MD1210071+9999OA149900261REMSYN076AAXX  01094 06646 33/// /1202 10043 20041 39532 49921 52007 333 91105 91202;
0128066460999992010010110004+47567+008233FM-12+032799999V0200801N000519999999N9999999N1+00441+00421099301ADDMA1999999095411MD1310181+9999OA149900261REMSYN076AAXX  01104 06646 33/// /0801 10044 20042 39541 49930 53018 333 91105 91202;
0128066460999992010010111004+47567+008233FM-12+032799999V0200501N000519999999N9999999N1+00471+00431099291ADDMA1999999095401MD1210131+9999OA149900151REMSYN076AAXX  01114 06646 33/// /0501 10047 20043 39540 49929 52013 333 91103 91202;
0128066460999992010010112004+47567+008233FM-12+032799999V0203401N001019999999N9999999N1+00471+00431099311ADDMA1999999095421MD1210101+9999OA149900261REMSYN076AAXX  01124 06646 33/// /3402 10047 20043 39542 49931 52010 333 91105 91202;
0128066460999992010010113004+47567+008233FM-12+032799999V0200401N001019999999N9999999N1+00501+00431099321ADDMA1999999095441MD1310031+9999OA149900151REMSYN076AAXX  01134 06646 33/// /0402 10050 20043 39544 49932 53003 333 91103 91202;
0128066460999992010010114004+47567+008233FM-12+032799999V0200401N000519999999N9999999N1+00511+00451099411ADDMA1999999095521MD1219999+9999OA149900151REMSYN076AAXX  01144 06646 33/// /0401 10051 20045 39552 49941 52/// 333 91103 91202;
0145066460999992010010115004+47567+008233FM-12+032799999V0202701N001519999999N9999999N1+00521+00441099501ADDAA101000021MA1999999095611MD1210191+9999OA149900361REMSYN082AAXX  01154 06646 23/// /2703 10052 20044 39561 49950 52019 333 69925 91107 91203;
0145066460999992010010116004+47567+008233FM-12+032799999V0202701N002619999999N9999999N1+00461+00341099621ADDAA101001091MA1999999095721MD1310281+9999OA149900771REMSYN082AAXX  01164 06646 23/// /2705 10046 20034 39572 49962 53028 333 60015 91115 91207;
0145066460999992010010117004+47567+008233FM-12+032799999V0202601N003619999999N9999999N1+00411+00291099771ADDAA101002091MA1999999095861MD1310341+9999OA149900881REMSYN082AAXX  01174 06646 23/// /2607 10041 20029 39586 49977 53034 333 60025 91117 91208;
0170066460999992010010118004+47567+008233FM-12+032799999V0202501N005119999999N9999999N1+00281+00171099971ADDAA112005191KA1120M+00531MA1999999096031MD1310421+9999OA149901081REMSYN094AAXX  01184 06646 03/// /2510 10028 20017 39603 49997 53042 60052 333 10053 60025 91121 91211;
0145066460999992010010119004+47567+008233FM-12+032799999V0202501N006719999999N9999999N1+00211+00081100171ADDAA101000591MA1999999096211MD1210491+9999OA149901391REMSYN082AAXX  01194 06646 23/// /2513 10021 20008 39621 40017 52049 333 69945 91127 91214;
0145066460999992010010120004+47567+008233FM-12+032799999V0202501N005119999999N9999999N1+00161+00031100351ADDAA101000591MA1999999096381MD1210521+9999OA149901391REMSYN082AAXX  01204 06646 23/// /2510 10016 20003 39638 40035 52052 333 69945 91127 91214;
0145066460999992010010121004+47567+008233FM-12+032799999V0202801N003619999999N9999999N1+00161-00011100521ADDAA101000021MA1999999096541MD1210511+9999OA149901391REMSYN082AAXX  01214 06646 23/// /2807 10016 21001 39654 40052 52051 333 69915 91127 91214;
0128066460999992010010122004+47567+008233FM-12+032799999V0202801N004619999999N9999999N1+00101-00081100631ADDMA1999999096641MD1110431+9999OA149901241REMSYN076AAXX  01224 06646 33/// /2809 10010 21008 39664 40063 51043 333 91124 91210;
0128066460999992010010123004+47567+008233FM-12+032799999V0202601N003119999999N9999999N1+00061-00171100741ADDMA1999999096741MD1110361+9999OA149901241REMSYN076AAXX  01234 06646 33/// /2606 10006 21017 39674 40074 51036 333 91124 91210;
0151066460999992010010200004+47567+008233FM-12+032799999V0202601N004619999999N9999999N1+00041-00201100861ADDAA106001091MA1999999096851MD1310311+9999OA149901391REMSYN088AAXX  02004 06646 03/// /2609 10004 21020 39685 40086 53031 69991 333 60005 91127 91214;
0128066460999992010010201004+47567+008233FM-12+032799999V0202501N003619999999N9999999N1+00021-00211100971ADDMA1999999096951MD1210311+9999OA149901131REMSYN076AAXX  02014 06646 33/// /2507 10002 21021 39695 40097 52031 333 91122 91210;
0087066460999992010010202004+47567+008233FM-12+032799999V0202701N003619999999N9999999N1-00031-00281101101ADDMA1999999097071REMSYN060AAXX  02024 06646 33/// /2707 11003 21028 39707 40110 5////;
0128066460999992010010203004+47567+008233FM-12+032799999V0202601N002619999999N9999999N1-00021-00311101201ADDMA1999999097171MD1210321+9999OA149901241REMSYN076AAXX  02034 06646 33/// /2605 11002 21031 39717 40120 52032 333 91124 91210;
0128066460999992010010204004+47567+008233FM-12+032799999V0202601N003119999999N9999999N1-00021-00321101311ADDMA1999999097271MD1210321+9999OA149900931REMSYN076AAXX  02044 06646 33/// /2606 11002 21032 39727 40131 52032 333 91118 91207;
0128066460999992010010205004+47567+008233FM-12+032799999V0202501N003119999999N9999999N1-00021-00341101391ADDMA1999999097351MD1110281+9999OA149900931REMSYN076AAXX  02054 06646 33/// /2506 11002 21034 39735 40139 51028 333 91118 91207;
0229066460999992010010206004+47567+008233FM-12+032799999V0202501N004619999999N9999999N1-00051-00421101441ADDAA112001091AA224006191AL10600691GJ100009IA2999-00209KA1999N-00041MA1999999097391MD1110221+9999OA149901391REMSYN112AAXX  02064 06646 03/// /2509 11005 21042 39739 40144 51022 69992 333 21004 3/102 55000 60005 70061 91127 91214;
0128066460999992010010207004+47567+008233FM-12+032799999V0202601N002619999999N9999999N1-00071-00401101571ADDMA1999999097511MD1310241+9999OA149901031REMSYN076AAXX  02074 06646 33/// /2605 11007 21040 39751 40157 53024 333 91120 91209;
0087066460999992010010208004+47567+008233FM-12+032799999V0202601N003619999999N9999999N1-00101-00401101651ADDMA1999999097591REMSYN060AAXX  02084 06646 33/// /2607 11010 21040 39759 40165 5////;
0128066460999992010010209004+47567+008233FM-12+032799999V0202701N003119999999N9999999N1-00081-00391101761ADDMA1999999097701MD1210311+9999OA149901031REMSYN076AAXX  02094 06646 33/// /2706 11008 21039 39770 40176 52031 333 91120 91209;
0128066460999992010010210004+47567+008233FM-12+032799999V0202601N002619999999N9999999N1-00041-00371101851ADDMA1999999097791MD1210281+9999OA149900881REMSYN076AAXX  02104 06646 33/// /2605 11004 21037 39779 40185 52028 333 91117 91207;
0128066460999992010010211004+47567+008233FM-12+032799999V0202501N001519999999N9999999N1+00011-00421101921ADDMA1999999097861MD1110271+9999OA149900771REMSYN076AAXX  02114 06646 33/// /2503 10001 21042 39786 40192 51027 333 91115 91208;
0128066460999992010010212004+47567+008233FM-12+032799999V0202401N004119999999N9999999N1-00011-00481101981ADDMA1999999097921MD1110221+9999OA149901081REMSYN076AAXX  02124 06646 33/// /2408 11001 21048 39792 40198 51022 333 91121 91210;
0128066460999992010010213004+47567+008233FM-12+032799999V0202401N003119999999N9999999N1-00011-00631102071ADDMA1999999098001MD1210211+9999OA149900721REMSYN076AAXX  02134 06646 33/// /2406 11001 21063 39800 40207 52021 333 91114 91208;
0128066460999992010010214004+47567+008233FM-12+032799999V0202401N002119999999N9999999N1+00021-00601102131ADDMA1999999098071MD1319999+9999OA149900671REMSYN076AAXX  02144 06646 33/// /2404 10002 21060 39807 40213 53/// 333 91113 91206;
0128066460999992010010215004+47567+008233FM-12+032799999V0202001N000519999999N9999999N1-00041-00631102221ADDMA1999999098141MD1210221+9999OA149900771REMSYN076AAXX  02154 06646 33/// /2001 11004 21063 39814 40222 52022 333 91115 91208;
0128066460999992010010216004+47567+008233FM-12+032799999V0202501N000519999999N9999999N1-00091-00631102301ADDMA1999999098211MD1210211+9999OA149900671REMSYN076AAXX  02164 06646 33/// /2501 11009 21063 39821 40230 52021 333 91113 91206;
0128066460999992010010217004+47567+008233FM-12+032799999V0201601N000519999999N9999999N1-00211-00511102381ADDMA1999999098271MD1110201+9999OA149900361REMSYN076AAXX  02174 06646 33/// /1601 11021 21051 39827 40238 51020 333 91107 91204;
0147066460999992010010218004+47567+008233FM-12+032799999V0201101N001019999999N9999999N1-00301-00491102451ADDKA1120M+00031MA1999999098321MD1110181+9999OA149901031REMSYN082AAXX  02184 06646 33/// /1102 11030 21049 39832 40245 51018 333 10003 91120 91209;
0128066460999992010010219004+47567+008233FM-12+032799999V0201501N000519999999N9999999N1-00341-00521102481ADDMA1999999098351MD1210141+9999OA149900151REMSYN076AAXX  02194 06646 33/// /1501 11034 21052 39835 40248 52014 333 91103 91202;
0128066460999992010010220004+47567+008233FM-12+032799999V0202001N001019999999N9999999N1-00401-00531102491ADDMA1999999098351MD1210081+9999OA149900151REMSYN076AAXX  02204 06646 33/// /2002 11040 21053 39835 40249 52008 333 91103 91202;
0128066460999992010010221004+47567+008233FM-12+032799999V0202101N000519999999N9999999N1-00441-00531102511ADDMA1999999098361MD1210041+9999OA149900361REMSYN076AAXX  02214 06646 33/// /2101 11044 21053 39836 40251 52004 333 91107 91204;
0128066460999992010010222004+47567+008233FM-12+032799999V0201801N000519999999N9999999N1-00491-00581102531ADDMA1999999098371MD1210021+9999OA149900151REMSYN076AAXX  02224 06646 33/// /1801 11049 21058 39837 40253 52002 333 91103 91202;
0128066460999992010010223004+47567+008233FM-12+032799999V0201501N000519999999N9999999N1-00551-00621102551ADDMA1999999098381MD1210031+9999OA149900101REMSYN076AAXX  02234 06646 33/// /1501 11055 21062 39838 40255 52003 333 91102 91201;
0126066460999992010010300004+47567+008233FM-12+032799999V02099999999999999999N9999999N1+99999+99999999999ADDMD1019999+9999OA149999999REMSYN070AAXX  03004 06646 33/// ///// 1//// 2//// 3//// 50/// 333 91113 91206;EQDQ01  00672WGOSPD
0087066460999992010010301004+47567+008233FM-12+032799999V0201201N000519999999N9999999N1-00631-00681102571ADDMA1999999098391REMSYN060AAXX  03014 06646 43/// /1201 11063 21068 39839 40257 5////;
0087066460999992010010302004+47567+008233FM-12+032799999V0200601N000519999999N9999999N1-00591-00651102561ADDMA1999999098391REMSYN060AAXX  03024 06646 33/// /0601 11059 21065 39839 40256 5////;
0128066460999992010010305004+47567+008233FM-12+032799999V0209999C000019999999N9999999N1-00651-00701102531ADDMA1999999098351MD1719999+9999OA149900211REMSYN076AAXX  03054 06646 33/// /0000 11065 21070 39835 40253 57/// 333 91104 91202;
0225066460999992010010306004+47567+008233FM-12+032799999V0200901N000519999999N9999999N1-00711-00761102501ADDAA124000091AL19900091GJ101629IA2999-01009KA1999N-00701MA1999999098311MD1719999+9999OA149900211REMSYN100AAXX  03064 06646 33/// /0901 11071 21076 39831 40250 57/// 333 21070 3/110 55027 70000 91104 91202;EQDQ01  00002PRCP24
0128066460999992010010307004+47567+008233FM-12+032799999V0200401N001019999999N9999999N1-00671-00721102491ADDMA1999999098311MD1719999+9999OA149900151REMSYN076AAXX  03074 06646 33/// /0402 11067 21072 39831 40249 57/// 333 91103 91202;
0128066460999992010010308004+47567+008233FM-12+032799999V0200301N000519999999N9999999N1-00651-00731102541ADDMA1999999098361MD1319999+9999OA149900151REMSYN076AAXX  03084 06646 33/// /0301 11065 21073 39836 40254 53/// 333 91103 91202;
0134066460999992010010309004+47567+008233FM-12+032799999V0201001N000519999999N9999999N1-00601-00731102521ADDMA1999999098351MD1219999+9999OA149900211REMSYN082AAXX  03094 06646 33/// /1001 11060 21073 39835 40252 52/// 90840 333 91104 91202;
0128066460999992010010310004+47567+008233FM-12+032799999V0202001N001019999999N9999999N1-00351-00661102491ADDMA1999999098361MD1210051+9999OA149900311REMSYN076AAXX  03104 06646 33/// /2002 11035 21066 39836 40249 52005 333 91106 91202;
0128066460999992010010311004+47567+008233FM-12+032799999V0202101N000519999999N9999999N1-00251-00681102331ADDMA1999999098221MD1810141+9999OA149900311REMSYN076AAXX  03114 06646 33/// /2101 11025 21068 39822 40233 58014 333 91106 91202;
0128066460999992010010312004+47567+008233FM-12+032799999V0209999C000019999999N9999999N1-00151-00601102251ADDMA1999999098161MD1710181+9999OA149900311REMSYN076AAXX  03124 06646 33/// /0000 11015 21060 39816 40225 57018 333 91106 91202;
0128066460999992010010313004+47567+008233FM-12+032799999V0202601N000519999999N9999999N1-00061-00671102201ADDMA1999999098121MD1610241+9999OA149900311REMSYN076AAXX  03134 06646 33/// /2601 11006 21067 39812 40220 56024 333 91106 91202;
0128066460999992010010314004+47567+008233FM-12+032799999V0202201N000519999999N9999999N1+00011-00761102171ADDMA1999999098101MD1710121+9999OA149900311REMSYN076AAXX  03144 06646 33/// /2201 10001 21076 39810 40217 57012 333 91106 91202;
0128066460999992010010315004+47567+008233FM-12+032799999V0202401N000519999999N9999999N1-00021-00651102171ADDMA1999999098101MD1510061+9999OA149900311REMSYN076AAXX  03154 06646 33/// /2401 11002 21065 39810 40217 55006 333 91106 91202;
0128066460999992010010316004+47567+008233FM-12+032799999V0201801N000519999999N9999999N1-00161-00611102161ADDMA1999999098071MD1710051+9999OA149900151REMSYN076AAXX  03164 06646 33/// /1801 11016 21061 39807 40216 57005 333 91103 91202;
0128066460999992010010317004+47567+008233FM-12+032799999V0201301N000519999999N9999999N1-00311-00621102181ADDMA1999999098061MD1710041+9999OA149900151REMSYN076AAXX  03174 06646 33/// /1301 11031 21062 39806 40218 57004 333 91103 91202;
0147066460999992010010318004+47567+008233FM-12+032799999V0201501N000519999999N9999999N1-00391-00611102201ADDKA1120M+00031MA1999999098071MD1510031+9999OA149900311REMSYN082AAXX  03184 06646 33/// /1501 11039 21061 39807 40220 55003 333 10003 91106 91202;
0128066460999992010010319004+47567+008233FM-12+032799999V0202101N000519999999N9999999N1-00461-00561102211ADDMA1999999098071MD1510001+9999OA149900101REMSYN076AAXX  03194 06646 33/// /2101 11046 21056 39807 40221 55000 333 91102 91201;
0128066460999992010010320004+47567+008233FM-12+032799999V0209999C000019999999N9999999N1-00541-00621102191ADDMA1999999098041MD1810021+9999OA149900101REMSYN076AAXX  03204 06646 33/// /0000 11054 21062 39804 40219 58002 333 91102 91201;
0128066460999992010010321004+47567+008233FM-12+032799999V0209999C000019999999N9999999N1-00581-00621102191ADDMA1999999098031MD1710041+9999OA149900151REMSYN076AAXX  03214 06646 33/// /0000 11058 21062 39803 40219 57004 333 91103 91202;
0128066460999992010010322004+47567+008233FM-12+032799999V0201501N000519999999N9999999N1-00651-00681102191ADDMA1999999098021MD1710051+9999OA149900101REMSYN076AAXX  03224 06646 33/// /1501 11065 21068 39802 40219 57005 333 91102 91201;
0128066460999992010010323004+47567+008233FM-12+032799999V0209999C000019999999N9999999N1-00681-00721102161ADDMA1999999097991MD1710051+9999OA149900101REMSYN076AAXX  03234 06646 33/// /0000 11068 21072 39799 40216 57005 333 91102 91201;
0128066460999992010010400004+47567+008233FM-12+032799999V0209999C000019999999N9999999N1-00691-00731102111ADDMA1999999097941MD1810091+9999OA149900311REMSYN076AAXX  04004 06646 33/// /0000 11069 21073 39794 40211 58009 333 91106 91202;
0128066460999992010010401004+47567+008233FM-12+032799999V0209999C000019999999N9999999N1-00761-00811102061ADDMA1999999097881MD1810141+9999OA149900101REMSYN076AAXX  04014 06646 33/// /0000 11076 21081 39788 40206 58014 333 91102 91201;
0128066460999992010010402004+47567+008233FM-12+032799999V0209999C000019999999N9999999N1-00741-00801102021ADDMA1999999097841MD1810151+9999OA149900151REMSYN076AAXX  04024 06646 33/// /0000 11074 21080 39784 40202 58015 333 91103 91202;
0128066460999992010010403004+47567+008233FM-12+032799999V0209999C000019999999N9999999N1-00791-00851101981ADDMA1999999097801MD1719999+9999OA149900151REMSYN076AAXX  04034 06646 33/// /0000 11079 21085 39780 40198 57/// 333 91103 91202;
0128066460999992010010404004+47567+008233FM-12+032799999V0201301N000519999999N9999999N1-00851-00921101951ADDMA1999999097761MD1710121+9999OA149900151REMSYN076AAXX  04044 06646 33/// /1301 11085 21092 39776 40195 57012 333 91103 91201;
0128066460999992010010405004+47567+008233FM-12+032799999V0200301N000519999999N9999999N1-00821-00901101911ADDMA1999999097731MD1710111+9999OA149900151REMSYN076AAXX  04054 06646 33/// /0301 11082 21090 39773 40191 57011 333 91103 91201;
0225066460999992010010406004+47567+008233FM-12+032799999V0201001N000519999999N9999999N1-00871-00941101941ADDAA124000091AL19900091GJ103489IA2999-01109KA1999N-00871MA1999999097751MD1510051+9999OA149900151REMSYN100AAXX  04064 06646 33/// /1001 11087 21094 39775 40194 55005 333 21087 3/111 55058 70000 91103 91202;EQDQ01  00002PRCP24
0128066460999992010010407004+47567+008233FM-12+032799999V0200801N000519999999N9999999N1-00891-00971101901ADDMA1999999097711MD1710051+9999OA149900151REMSYN076AAXX  04074 06646 33/// /0801 11089 21097 39771 40190 57005 333 91103 91202;
0128066460999992010010408004+47567+008233FM-12+032799999V0200101N000519999999N9999999N1-00831-00941101901ADDMA1999999097721MD1010011+9999OA149900151REMSYN076AAXX  04084 06646 33/// /0101 11083 21094 39772 40190 50001 333 91103 91202;
0128066460999992010010409004+47567+008233FM-12+032799999V0200101N001019999999N9999999N1-00731-00881101901ADDMA1999999097731MD1510021+9999OA149900151REMSYN076AAXX  04094 06646 33/// /0102 11073 21088 39773 40190 55002 333 91103 91202;
0163066460999992010010410004+47567+008233FM-12+032799999V0200801N001019999999N9999999N1-00591-00771101861ADDMA1999999097711MD1710041+9999OA149900151REMSYN076AAXX  04104 06646 33/// /0802 11059 21077 39771 40186 58000 333 91103 91202;EQDQ01+000082APCTENQ02+000002APC3  
0128066460999992010010411004+47567+008233FM-12+032799999V0201201N000519999999N9999999N1-00441-00681101731ADDMA1999999097611MD1710111+9999OA149900211REMSYN076AAXX  04114 06646 33/// /1201 11044 21068 39761 40173 57011 333 91104 91202;
0128066460999992010010412004+47567+008233FM-12+032799999V0203401N000519999999N9999999N1-00291-00611101621ADDMA1999999097531MD1710201+9999OA149900211REMSYN076AAXX  04124 06646 33/// /3401 11029 21061 39753 40162 57020 333 91104 91202;
0128066460999992010010413004+47567+008233FM-12+032799999V0200601N000519999999N9999999N1-00211-00631101531ADDMA1999999097461MD1610251+9999OA149900151REMSYN076AAXX  04134 06646 33/// /0601 11021 21063 39746 40153 56025 333 91103 91202;
0128066460999992010010414004+47567+008233FM-12+032799999V0203101N000519999999N9999999N1-00101-00591101471ADDMA1999999097411MD1619999+9999OA149900151REMSYN076AAXX  04144 06646 33/// /3101 11010 21059 39741 40147 56/// 333 91103 91202;
0128066460999992010010415004+47567+008233FM-12+032799999V0209999C000019999999N9999999N1-00141-00631101451ADDMA1999999097391MD1610141+9999OA149900211REMSYN076AAXX  04154 06646 33/// /0000 11014 21063 39739 40145 56014 333 91104 91202;
0128066460999992010010416004+47567+008233FM-12+032799999V0202701N000519999999N9999999N1-00301-00571101491ADDMA1999999097401MD1710061+9999OA149900211REMSYN076AAXX  04164 06646 33/// /2701 11030 21057 39740 40149 57006 333 91104 91202;
0128066460999992010010417004+47567+008233FM-12+032799999V0202601N000519999999N9999999N1-00401-00621101491ADDMA1999999097391MD1710021+9999OA149900101REMSYN076AAXX  04174 06646 33/// /2601 11040 21062 39739 40149 57002 333 91102 91201;
0147066460999992010010418004+47567+008233FM-12+032799999V0203501N001019999999N9999999N1-00431-00591101521ADDKA1120M-00101MA1999999097411MD1210021+9999OA149900211REMSYN082AAXX  04184 06646 33/// /3502 11043 21059 39741 40152 52002 333 11010 91104 91202;
0128066460999992010010419004+47567+008233FM-12+032799999V0203501N001019999999N9999999N1-00511-00631101541ADDMA1999999097421MD1310021+9999OA149900211REMSYN076AAXX  04194 06646 33/// /3502 11051 21063 39742 40154 53002 333 91104 91202;
0128066460999992010010420004+47567+008233FM-12+032799999V0203101N000519999999N9999999N1-00531-00621101521ADDMA1999999097401MD1010011+9999OA149900211REMSYN076AAXX  04204 06646 33/// /3101 11053 21062 39740 40152 50001 333 91104 91202;
0128066460999992010010421004+47567+008233FM-12+032799999V0203401N001019999999N9999999N1-00551-00661101521ADDMA1999999097391MD1810021+9999OA149900261REMSYN076AAXX  04214 06646 33/// /3402 11055 21066 39739 40152 58002 333 91105 91203;
0128066460999992010010422004+47567+008233FM-12+032799999V0203301N000519999999N9999999N1-00561-00701101481ADDMA1999999097351MD1710071+9999OA149900261REMSYN076AAXX  04224 06646 33/// /3301 11056 21070 39735 40148 57007 333 91105 91203;
0128066460999992010010423004+47567+008233FM-12+032799999V0209999C000019999999N9999999N1-00671-00751101461ADDMA1999999097321MD1710081+9999OA149900211REMSYN076AAXX  04234 06646 33/// /0000 11067 21075 39732 40146 57008 333 91104 91202;
0128066460999992010010500004+47567+008233FM-12+032799999V0209999C000019999999N9999999N1-00711-00781101411ADDMA1999999097261MD1710131+9999OA149900261REMSYN076AAXX  05004 06646 33/// /0000 11071 21078 39726 40141 57013 333 91105 91203;
0128066460999992010010501004+47567+008233FM-12+032799999V0203601N001019999999N9999999N1-00741-00821101361ADDMA1999999097211MD1810141+9999OA149900151REMSYN076AAXX  05014 06646 33/// /3602 11074 21082 39721 40136 58014 333 91103 91202;
0128066460999992010010502004+47567+008233FM-12+032799999V0200301N000519999999N9999999N1-00761-00821101351ADDMA1999999097201MD1710121+9999OA149900151REMSYN076AAXX  05024 06646 33/// /0301 11076 21082 39720 40135 57012 333 91103 91202;
0128066460999992010010503004+47567+008233FM-12+032799999V0200301N000519999999N9999999N1-00811-00891101301ADDMA1999999097141MD1710121+9999OA149900211REMSYN076AAXX  05034 06646 33/// /0301 11081 21089 39714 40130 57012 333 91104 91202;
0128066460999992010010504004+47567+008233FM-12+032799999V0200401N000519999999N9999999N1-00811-00911101211ADDMA1999999097061MD1710151+9999OA149900151REMSYN076AAXX  05044 06646 33/// /0401 11081 21091 39706 40121 57015 333 91103 91202;
0128066460999992010010505004+47567+008233FM-12+032799999V0200301N000519999999N9999999N1-00821-00901101161ADDMA1999999097011MD1610191+9999OA149900151REMSYN076AAXX  05054 06646 33/// /0301 11082 21090 39701 40116 56019 333 91103 91202;
0225066460999992010010506004+47567+008233FM-12+032799999V0200101N001019999999N9999999N1-00761-00851101071ADDAA124000091AL19900091GJ103309IA2999-01009KA1999N-00821MA1999999096931MD1610211+9999OA149900261REMSYN100AAXX  05064 06646 33/// /0102 11076 21085 39693 40107 56021 333 21082 3/110 55055 70000 91105 91203;EQDQ01  00002PRCP24
0128066460999992010010507004+47567+008233FM-12+032799999V0200201N001019999999N9999999N1-00711-00811101041ADDMA1999999096911MD1710151+9999OA149900211REMSYN076AAXX  05074 06646 33/// /0202 11071 21081 39691 40104 57015 333 91104 91202;
0128066460999992010010508004+47567+008233FM-12+032799999V0201301N000519999999N9999999N1-00641-00751101011ADDMA1999999096891MD1710121+9999OA149900151REMSYN076AAXX  05084 06646 33/// /1301 11064 21075 39689 40101 57012 333 91103 91202;
0128066460999992010010509004+47567+008233FM-12+032799999V0209999C000019999999N9999999N1-00571-00741100971ADDMA1999999096861MD1710071+9999OA149900211REMSYN076AAXX  05094 06646 33/// /0000 11057 21074 39686 40097 57007 333 91104 91202;
0128066460999992010010510004+47567+008233FM-12+032799999V0209999C000019999999N9999999N1-00461-00721100911ADDMA1999999096821MD1710091+9999OA149900151REMSYN076AAXX  05104 06646 33/// /0000 11046 21072 39682 40091 57009 333 91103 91202;
0128066460999992010010511004+47567+008233FM-12+032799999V0200601N001019999999N9999999N1-00381-00691100791ADDMA1999999096721MD1710171+9999OA149900361REMSYN076AAXX  05114 06646 33/// /0602 11038 21069 39672 40079 57017 333 91107 91203;
0128066460999992010010512004+47567+008233FM-12+032799999V0200901N001019999999N9999999N1-00341-00621100701ADDMA1999999096641MD1810221+9999OA149900361REMSYN076AAXX  05124 06646 33/// /0902 11034 21062 39664 40070 58022 333 91107 91203;
0128066460999992010010513004+47567+008233FM-12+032799999V0200901N001019999999N9999999N1-00311-00621100601ADDMA1999999096551MD1710271+9999OA149900311REMSYN076AAXX  05134 06646 33/// /0902 11031 21062 39655 40060 57027 333 91106 91203;
0087066460999992010010514004+47567+008233FM-12+032799999V0201001N001019999999N9999999N1-00291-00621100561ADDMA1999999096511REMSYN060AAXX  05144 06646 33/// /1002 11029 21062 39651 40056 5////;
0128066460999992010010515004+47567+008233FM-12+032799999V0201001N001519999999N9999999N1-00311-00631100531ADDMA1999999096481MD1710161+9999OA149900411REMSYN076AAXX  05154 06646 33/// /1003 11031 21063 39648 40053 57016 333 91108 91203;
0128066460999992010010516004+47567+008233FM-12+032799999V0200901N001519999999N9999999N1-00311-00601100521ADDMA1999999096471MD1710081+9999OA149900411REMSYN076AAXX  05164 06646 33/// /0903 11031 21060 39647 40052 57008 333 91108 91203;
0128066460999992010010517004+47567+008233FM-12+032799999V0200501N000519999999N9999999N1-00321-00611100491ADDMA1999999096441MD1710071+9999OA149900361REMSYN076AAXX  05174 06646 33/// /0501 11032 21061 39644 40049 57007 333 91107 91203;
0147066460999992010010518004+47567+008233FM-12+032799999V0200401N001019999999N9999999N1-00321-00621100471ADDKA1120M-00281MA1999999096421MD1710061+9999OA149900411REMSYN082AAXX  05184 06646 33/// /0402 11032 21062 39642 40047 57006 333 11028 91108 91203;
0128066460999992010010519004+47567+008233FM-12+032799999V0200401N001019999999N9999999N1-00331-00621100451ADDMA1999999096401MD1710071+9999OA149900261REMSYN076AAXX  05194 06646 33/// /0402 11033 21062 39640 40045 57007 333 91105 91203;
0128066460999992010010520004+47567+008233FM-12+032799999V0200501N000519999999N9999999N1-00361-00621100421ADDMA1999999096371MD1710071+9999OA149900261REMSYN076AAXX  05204 06646 33/// /0501 11036 21062 39637 40042 57007 333 91105 91203;
0128066460999992010010521004+47567+008233FM-12+032799999V0200501N000519999999N9999999N1-00351-00621100381ADDMA1999999096331MD1710091+9999OA149900361REMSYN076AAXX  05214 06646 33/// /0501 11035 21062 39633 40038 57009 333 91107 91203;
0128066460999992010010522004+47567+008233FM-12+032799999V0200301N001019999999N9999999N1-00361-00621100361ADDMA1999999096311MD1710091+9999OA149900311REMSYN076AAXX  05224 06646 33/// /0302 11036 21062 39631 40036 57009 333 91106 91203;
0128066460999992010010523004+47567+008233FM-12+032799999V0203401N001019999999N9999999N1-00361-00561100341ADDMA1999999096291MD1710081+9999OA149900261REMSYN076AAXX  05234 06646 33/// /3402 11036 21056 39629 40034 57008 333 91105 91202;
0128066460999992010010600004+47567+008233FM-12+032799999V0200401N001019999999N9999999N1-00361-00541100291ADDMA1999999096241MD1710091+9999OA149900411REMSYN076AAXX  06004 06646 33/// /0402 11036 21054 39624 40029 57009 333 91108 91203;
0128066460999992010010601004+47567+008233FM-12+032799999V0200201N001019999999N9999999N1-00381-00551100271ADDMA1999999096221MD1710091+9999OA149900211REMSYN076AAXX  06014 06646 33/// /0202 11038 21055 39622 40027 57009 333 91104 91202;
0128066460999992010010602004+47567+008233FM-12+032799999V0200301N001019999999N9999999N1-00381-00551100291ADDMA1999999096241MD1510051+9999OA149900211REMSYN076AAXX  06024 06646 33/// /0302 11038 21055 39624 40029 55005 333 91104 91202;
0128066460999992010010603004+47567+008233FM-12+032799999V0203601N001019999999N9999999N1-00381-00541100271ADDMA1999999096221MD1710021+9999OA149900261REMSYN076AAXX  06034 06646 33/// /3602 11038 21054 39622 40027 57002 333 91105 91202;
0128066460999992010010604004+47567+008233FM-12+032799999V0203401N000519999999N9999999N1-00381-00531100281ADDMA1999999096231MD1210011+9999OA149900211REMSYN076AAXX  06044 06646 33/// /3401 11038 21053 39623 40028 52001 333 91104 91202;
0128066460999992010010605004+47567+008233FM-12+032799999V0203401N000519999999N9999999N1-00371-00521100301ADDMA1999999096251MD1210011+9999OA149900151REMSYN076AAXX  06054 06646 33/// /3401 11037 21052 39625 40030 52001 333 91103 91202;
0225066460999992010010606004+47567+008233FM-12+032799999V0201201N000519999999N9999999N1-00381-00501100301ADDAA124000091AL19900091GJ100009IA2999-00509KA1999N-00391MA1999999096251MD1210031+9999OA149900311REMSYN100AAXX  06064 06646 33/// /1201 11038 21050 39625 40030 52003 333 21039 3/105 55000 70000 91106 91203;EQDQ01  00002PRCP24
0128066460999992010010607004+47567+008233FM-12+032799999V0202601N000519999999N9999999N1-00301-00481100331ADDMA1999999096291MD1210061+9999OA149900151REMSYN076AAXX  06074 06646 33/// /2601 11030 21048 39629 40033 52006 333 91103 91202;
0128066460999992010010608004+47567+008233FM-12+032799999V0202401N001019999999N9999999N1-00231-00481100371ADDMA1999999096341MD1210091+9999OA149900311REMSYN076AAXX  06084 06646 33/// /2402 11023 21048 39634 40037 52009 333 91106 91203;
0128066460999992010010609004+47567+008233FM-12+032799999V0202401N002119999999N9999999N1-00231-00451100421ADDMA1999999096391MD1210141+9999OA149900461REMSYN076AAXX  06094 06646 33/// /2404 11023 21045 39639 40042 52014 333 91109 91204;
0128066460999992010010610004+47567+008233FM-12+032799999V0202401N002119999999N9999999N1-00201-00431100451ADDMA1999999096421MD1110131+9999OA149900461REMSYN076AAXX  06104 06646 33/// /2404 11020 21043 39642 40045 51013 333 91109 91204;
0145066460999992010010611004+47567+008233FM-12+032799999V0202301N002119999999N9999999N1-00171-00421100391ADDAA101000021MA1999999096371MD1019999+9999OA149900461REMSYN082AAXX  06114 06646 23/// /2304 11017 21042 39637 40039 50/// 333 69915 91109 91204;
0170066460999992010010612004+47567+008233FM-12+032799999V0202201N001519999999N9999999N1-00151-00401100391ADDAA106000091MA1999999096371MD1710021+9999OA149900461REMSYN088AAXX  06124 06646 03/// /2203 11015 21040 39637 40039 57002 69911 333 60005 91109 91204;EQDQ01  00002PRCP06
0128066460999992010010613004+47567+008233FM-12+032799999V0202201N001519999999N9999999N1-00151-00411100391ADDMA1999999096371MD1710051+9999OA149900461REMSYN076AAXX  06134 06646 33/// /2203 11015 21041 39637 40039 57005 333 91109 91204;
0128066460999992010010614004+47567+008233FM-12+032799999V0202201N001519999999N9999999N1-00131-00391100401ADDMA1999999096381MD1219999+9999OA149900461REMSYN076AAXX  06144 06646 33/// /2203 11013 21039 39638 40040 52/// 333 91109 91204;
0128066460999992010010615004+47567+008233FM-12+032799999V0202001N000519999999N9999999N1-00121-00401100441ADDMA1999999096421MD1219999+9999OA149900461REMSYN076AAXX  06154 06646 33/// /2001 11012 21040 39642 40044 52/// 333 91109 91204;
0128066460999992010010616004+47567+008233FM-12+032799999V0201601N001019999999N9999999N1-00121-00391100481ADDMA1999999096461MD1210091+9999OA149900461REMSYN076AAXX  06164 06646 33/// /1602 11012 21039 39646 40048 52009 333 91109 91203;
0128066460999992010010617004+47567+008233FM-12+032799999V0202401N000519999999N9999999N1-00131-00401100511ADDMA1999999096491MD1210111+9999OA149900461REMSYN076AAXX  06174 06646 33/// /2401 11013 21040 39649 40051 52011 333 91109 91203;
0189066460999992010010618004+47567+008233FM-12+032799999V0209999C000019999999N9999999N1-00151-00391100581ADDAA112000091KA1120M-00111MA1999999096551MD1119999+9999OA149900461REMSYN094AAXX  06184 06646 03/// /0000 11015 21039 39655 40058 51/// 69912 333 11011 60005 91109 91204;EQDQ01  00002PRCP12
0128066460999992010010619004+47567+008233FM-12+032799999V0209999C000019999999N9999999N1-00181-00381100601ADDMA1999999096571MD1110111+9999OA149900261REMSYN076AAXX  06194 06646 33/// /0000 11018 21038 39657 40060 51011 333 91105 91202;
0128066460999992010010620004+47567+008233FM-12+032799999V0209999C000019999999N9999999N1-00191-00371100641ADDMA1999999096601MD1210111+9999OA149900101REMSYN076AAXX  06204 06646 33/// /0000 11019 21037 39660 40064 52011 333 91102 91201;
0128066460999992010010621004+47567+008233FM-12+032799999V0203601N000519999999N9999999N1-00171-00351100671ADDMA1999999096641MD1210091+9999OA149900461REMSYN076AAXX  06214 06646 33/// /3601 11017 21035 39664 40067 52009 333 91109 91203;
0128066460999992010010622004+47567+008233FM-12+032799999V0209999C000019999999N9999999N1-00201-00341100711ADDMA1999999096671MD1210101+9999OA149900211REMSYN076AAXX  06224 06646 33/// /0000 11020 21034 39667 40071 52010 333 91104 91202;
0128066460999992010010623004+47567+008233FM-12+032799999V0201801N000519999999N9999999N1-00201-00321100741ADDMA1999999096701MD1210101+9999OA149900101REMSYN076AAXX  06234 06646 33/// /1801 11020 21032 39670 40074 52010 333 91102 91201;
0128066460999992010010700004+47567+008233FM-12+032799999V0209999C000019999999N9999999N1-00201-00341100761ADDMA1999999096721MD1210081+9999OA149900461REMSYN076AAXX  07004 06646 33/// /0000 11020 21034 39672 40076 52008 333 91109 91204;
0128066460999992010010701004+47567+008233FM-12+032799999V0209999C000019999999N9999999N1-00181-00331100781ADDMA1999999096741MD1210071+9999OA149900101REMSYN076AAXX  07014 06646 33/// /0000 11018 21033 39674 40078 52007 333 91102 91201;
0128066460999992010010702004+47567+008233FM-12+032799999V0209999C000019999999N9999999N1-00241-00341100831ADDMA1999999096781MD1319999+9999OA149900101REMSYN076AAXX  07024 06646 33/// /0000 11024 21034 39678 40083 53/// 333 91102 91201;
0128066460999992010010703004+47567+008233FM-12+032799999V0209999C000019999999N9999999N1-00391-00411100831ADDMA1999999096761MD1010041+9999OA149900101REMSYN076AAXX  07034 06646 33/// /0000 11039 21041 39676 40083 50004 333 91102 91201;
0128066460999992010010704004+47567+008233FM-12+032799999V0209999C000019999999N9999999N1-00511-00521100861ADDMA1999999096771MD1210031+9999OA149900101REMSYN076AAXX  07044 06646 33/// /0000 11051 21052 39677 40086 52003 333 91102 91201;
0128066460999992010010705004+47567+008233FM-12+032799999V0209999C000019999999N9999999N1-00461-00481100891ADDMA1999999096801MD1310021+9999OA149900101REMSYN076AAXX  07054 06646 33/// /0000 11046 21048 39680 40089 53002 333 91102 91201;
0225066460999992010010706004+47567+008233FM-12+032799999V0209999C000019999999N9999999N1-00411-00431100911ADDAA124000091AL10600091GJ100009IA2999-01009KA1999N-00521MA1999999096831MD1310071+9999OA149900211REMSYN100AAXX  07064 06646 33/// /0000 11041 21043 39683 40091 53007 333 21052 3/110 55000 70001 91104 91202;EQDQ01  00002PRCP24
0128066460999992010010707004+47567+008233FM-12+032799999V0209999C000019999999N9999999N1-00411-00441100941ADDMA1999999096861MD1210091+9999OA149900101REMSYN076AAXX  07074 06646 33/// /0000 11041 21044 39686 40094 52009 333 91102 91201;
0128066460999992010010708004+47567+008233FM-12+032799999V0200501N000519999999N9999999N1-00291-00371101001ADDMA1999999096931MD1219999+9999OA149900151REMSYN076AAXX  07084 06646 33/// /0501 11029 21037 39693 40100 52/// 333 91103 91201;
0128066460999992010010709004+47567+008233FM-12+032799999V0203301N000519999999N9999999N1-00261-00361101041ADDMA1999999096981MD1210151+9999OA149900151REMSYN076AAXX  07094 06646 33/// /3301 11026 21036 39698 40104 52015 333 91103 91201;
0128066460999992010010710004+47567+008233FM-12+032799999V0200101N001019999999N9999999N1-00181-00351101081ADDMA1999999097031MD1210171+9999OA149900211REMSYN076AAXX  07104 06646 33/// /0102 11018 21035 39703 40108 52017 333 91104 91202;
0128066460999992010010711004+47567+008233FM-12+032799999V0203401N001019999999N9999999N1-00131-00351101051ADDMA1999999097011MD1210081+9999OA149900211REMSYN076AAXX  07114 06646 33/// /3402 11013 21035 39701 40105 52008 333 91104 91202;
0128066460999992010010712004+47567+008233FM-12+032799999V0200101N001019999999N9999999N1-00051-00331101021ADDMA1999999096991MD1010011+9999OA149900261REMSYN076AAXX  07124 06646 33/// /0102 11005 21033 39699 40102 50001 333 91105 91202;
0128066460999992010010713004+47567+008233FM-12+032799999V0201101N000519999999N9999999N1-00021-00321100981ADDMA1999999096961MD1810071+9999OA149900311REMSYN076AAXX  07134 06646 33/// /1101 11002 21032 39696 40098 58007 333 91106 91202;
0087066460999992010010715004+47567+008233FM-12+032799999V0203201N000519999999N9999999N1+00011-00311101041ADDMA1999999097021REMSYN060AAXX  07154 06646 43/// /3201 10001 21031 39702 40104 5////;
0087066460999992010010716004+47567+008233FM-12+032799999V0203301N000519999999N9999999N1-00011-00261101101ADDMA1999999097071REMSYN060AAXX  07164 06646 33/// /3301 11001 21026 39707 40110 5/011;
0128066460999992010010717004+47567+008233FM-12+032799999V0209999C000019999999N9999999N1-00061-00261101141ADDMA1999999097101MD1319999+9999OA149900101REMSYN076AAXX  07174 06646 33/// /0000 11006 21026 39710 40114 53/// 333 91102 91201;
0147066460999992010010718004+47567+008233FM-12+032799999V0202101N000519999999N9999999N1-00101-00241101191ADDKA1120M+00021MA1999999097151MD1319999+9999OA149900311REMSYN082AAXX  07184 06646 33/// /2101 11010 21024 39715 40119 53/// 333 10002 91106 91202;
0128066460999992010010719004+47567+008233FM-12+032799999V0209999C000019999999N9999999N1-00081-00261101201ADDMA1999999097161MD1210091+9999OA149900151REMSYN076AAXX  07194 06646 33/// /0000 11008 21026 39716 40120 52009 333 91103 91201;
0128066460999992010010720004+47567+008233FM-12+032799999V0209999C000019999999N9999999N1-00121-00261101211ADDMA1999999097161MD1210061+9999OA149900151REMSYN076AAXX  07204 06646 33/// /0000 11012 21026 39716 40121 52006 333 91103 91201;
0128066460999992010010721004+47567+008233FM-12+032799999V0209999C000019999999N9999999N1-00151-00281101241ADDMA1999999097191MD1210041+9999OA149900151REMSYN076AAXX  07214 06646 33/// /0000 11015 21028 39719 40124 52004 333 91103 91201;
0128066460999992010010722004+47567+008233FM-12+032799999V0209999C000019999999N9999999N1-00191-00281101231ADDMA1999999097171MD1010011+9999OA149900101REMSYN076AAXX  07224 06646 33/// /0000 11019 21028 39717 40123 50001 333 91102 91201;
0128066460999992010010723004+47567+008233FM-12+032799999V0200101N000519999999N9999999N1-00161-00281101241ADDMA1999999097181MD1210021+9999OA149900101REMSYN076AAXX  07234 06646 33/// /0101 11016 21028 39718 40124 52002 333 91102 91201;
0128066460999992010010800004+47567+008233FM-12+032799999V0203401N001019999999N9999999N1-00151-00271101201ADDMA1999999097151MD1710041+9999OA149900311REMSYN076AAXX  08004 06646 33/// /3402 11015 21027 39715 40120 57004 333 91106 91202;
0128066460999992010010801004+47567+008233FM-12+032799999V0209999C000019999999N9999999N1-00151-00331101151ADDMA1999999097101MD1710071+9999OA149900151REMSYN076AAXX  08014 06646 33/// /0000 11015 21033 39710 40115 57007 333 91103 91202;
0128066460999992010010802004+47567+008233FM-12+032799999V0200201N001019999999N9999999N1-00151-00281101151ADDMA1999999097101MD1719999+9999OA149900151REMSYN076AAXX  08024 06646 33/// /0202 11015 21028 39710 40115 57/// 333 91103 91202;
0128066460999992010010803004+47567+008233FM-12+032799999V0200101N001019999999N9999999N1-00131-00301101161ADDMA1999999097111MD1519999+9999OA149900211REMSYN076AAXX  08034 06646 33/// /0102 11013 21030 39711 40116 55/// 333 91104 91202;
0128066460999992010010804004+47567+008233FM-12+032799999V0209999C000519999999N9999999N1-00141-00261101121ADDMA1999999097071MD1710031+9999OA149900211REMSYN076AAXX  08044 06646 33/// /0001 11014 21026 39707 40112 57003 333 91104 91202;
0128066460999992010010805004+47567+008233FM-12+032799999V0203101N000519999999N9999999N1-00121-00211101051ADDMA1999999097011MD1710091+9999OA149900151REMSYN076AAXX  08054 06646 33/// /3101 11012 21021 39701 40105 57009 333 91103 91201;
0264066460999992010010806004+47567+008233FM-12+032799999V0200301N000519999999N9999999N1-00111-00191101011ADDAA112000091AA224000091AL10600091GJ100009IA2999-00409KA1999N-00191MA1999999096971MD1610141+9999OA149900311REMSYN112AAXX  08064 06646 03/// /0301 11011 21019 39697 40101 56014 69932 333 21019 3/104 55000 69935 70001 91106 91203;EQDQ01  00002PRCP24Q02  00002PRCP12
0145066460999992010010807004+47567+008233FM-12+032799999V0200401N001519999999N9999999N1-00101-00201100981ADDAA101000391MA1999999096941MD1610131+9999OA149900511REMSYN082AAXX  08074 06646 23/// /0403 11010 21020 39694 40098 56013 333 69935 91110 91203;
0145066460999992010010808004+47567+008233FM-12+032799999V0200301N002619999999N9999999N1-00081-00241100941ADDAA101000021MA1999999096911MD1810101+9999OA149900621REMSYN082AAXX  08084 06646 23/// /0305 11008 21024 39691 40094 58010 333 69925 91112 91205;
0128066460999992010010809004+47567+008233FM-12+032799999V0200501N002119999999N9999999N1-00051-00391100901ADDMA1999999096871MD1610101+9999OA149900671REMSYN076AAXX  08094 06646 33/// /0504 11005 21039 39687 40090 56010 333 91113 91206;
0128066460999992010010810004+47567+008233FM-12+032799999V0200201N002119999999N9999999N1-00041-00371100851ADDMA1999999096831MD1810111+9999OA149900671REMSYN076AAXX  08104 06646 33/// /0204 11004 21037 39683 40085 58011 333 91113 91206;
0128066460999992010010811004+47567+008233FM-12+032799999V0200601N002119999999N9999999N1+00001-00391100761ADDMA1999999096751MD1810161+9999OA149900821REMSYN076AAXX  08114 06646 33/// /0604 10000 21039 39675 40076 58016 333 91116 91205;
0151066460999992010010812004+47567+008233FM-12+032799999V0200501N001019999999N9999999N1+00031-00381100631ADDAA106000591MA1999999096631MD1810241+9999OA149900821REMSYN088AAXX  08124 06646 03/// /0502 10003 21038 39663 40063 58024 69951 333 60005 91116 91206;
0128066460999992010010813004+47567+008233FM-12+032799999V0200701N001019999999N9999999N1+00051-00351100581ADDMA1999999096581MD1610251+9999OA149900571REMSYN076AAXX  08134 06646 33/// /0702 10005 21035 39658 40058 56025 333 91111 91204;
0128066460999992010010814004+47567+008233FM-12+032799999V0200401N002619999999N9999999N1-00011-00401100581ADDMA1999999096571MD1619999+9999OA149900571REMSYN076AAXX  08144 06646 33/// /0405 11001 21040 39657 40058 56/// 333 91111 91205;
0128066460999992010010815004+47567+008233FM-12+032799999V0200401N002619999999N9999999N1-00041-00411100621ADDMA1999999096611MD1510021+9999OA149900821REMSYN076AAXX  08154 06646 33/// /0405 11004 21041 39661 40062 55002 333 91116 91205;
0128066460999992010010816004+47567+008233FM-12+032799999V0200301N002619999999N9999999N1-00131-00461100701ADDMA1999999096671MD1210091+9999OA149900881REMSYN076AAXX  08164 06646 33/// /0305 11013 21046 39667 40070 52009 333 91117 91205;
0128066460999992010010817004+47567+008233FM-12+032799999V0200301N002119999999N9999999N1-00181-00491100741ADDMA1999999096701MD1219999+9999OA149900881REMSYN076AAXX  08174 06646 33/// /0304 11018 21049 39670 40074 52/// 333 91117 91206;
0170066460999992010010818004+47567+008233FM-12+032799999V0200401N002619999999N9999999N1-00181-00571100761ADDAA112000591KA1120M+00051MA1999999096721MD1110111+9999OA149900931REMSYN094AAXX  08184 06646 03/// /0405 11018 21057 39672 40076 51011 69952 333 10005 60005 91118 91206;
0128066460999992010010819004+47567+008233FM-12+032799999V0200301N002119999999N9999999N1-00221-00541100791ADDMA1999999096741MD1110071+9999OA149900931REMSYN076AAXX  08194 06646 33/// /0304 11022 21054 39674 40079 51007 333 91118 91205;
0145066460999992010010820004+47567+008233FM-12+032799999V0200401N002619999999N9999999N1-00281-00501100801ADDAA101000021MA1999999096741MD1210041+9999OA149900821REMSYN082AAXX  08204 06646 23/// /0405 11028 21050 39674 40080 52004 333 69915 91116 91206;
0128066460999992010010821004+47567+008233FM-12+032799999V0200201N001519999999N9999999N1-00271-00531100791ADDMA1999999096741MD1210021+9999OA149900931REMSYN076AAXX  08214 06646 33/// /0203 11027 21053 39674 40079 52002 333 91118 91206;
0145066460999992010010822004+47567+008233FM-12+032799999V0200401N002119999999N9999999N1-00241-00641100771ADDAA101000021MA1999999096721MD1810021+9999OA149900621REMSYN082AAXX  08224 06646 23/// /0404 11024 21064 39672 40077 58002 333 69915 91112 91205;
0128066460999992010010823004+47567+008233FM-12+032799999V0200501N002619999999N9999999N1-00251-00721100811ADDMA1999999096761MD1310021+9999OA149900771REMSYN076AAXX  08234 06646 33/// /0505 11025 21072 39676 40081 53002 333 91115 91205;
0170066460999992010010900004+47567+008233FM-12+032799999V0200401N001019999999N9999999N1-00271-00711100811ADDAA106000091MA1999999096761MD1210021+9999OA149900931REMSYN088AAXX  09004 06646 03/// /0402 11027 21071 39676 40081 52002 69921 333 60005 91118 91206;EQDQ01  00002PRCP06
0128066460999992010010901004+47567+008233FM-12+032799999V0200401N001519999999N9999999N1-00291-00691100811ADDMA1999999096751MD1010031+9999OA149900571REMSYN076AAXX  09014 06646 33/// /0403 11029 21069 39675 40081 50003 333 91111 91205;
0128066460999992010010902004+47567+008233FM-12+032799999V0200201N001519999999N9999999N1-00311-00691100811ADDMA1999999096751MD1719999+9999OA149900571REMSYN076AAXX  09024 06646 33/// /0203 11031 21069 39675 40081 57/// 333 91111 91205;
0128066460999992010010903004+47567+008233FM-12+032799999V0209999C001019999999N9999999N1-00331-00681100851ADDMA1999999096781MD1219999+9999OA149900771REMSYN076AAXX  09034 06646 33/// /0002 11033 21068 39678 40085 52/// 333 91115 91205;
0147066460999992010010904004+47567+008233FM-12+032799999V0200101N000519999999N9999999N1-00351-00691100821ADDMA1999999096751MD1810011+9999OA149900461REMSYN076AAXX  09044 06646 33/// /0101 11035 21069 39675 40082 58000 333 91109 91203;EQDQ01+000002APC3  
0128066460999992010010905004+47567+008233FM-12+032799999V0200201N001519999999N9999999N1-00371-00701100801ADDMA1999999096731MD1810021+9999OA149900461REMSYN076AAXX  09054 06646 33/// /0203 11037 21070 39673 40080 58002 333 91109 91203;
0248066460999992010010906004+47567+008233FM-12+032799999V0200301N001019999999N9999999N1-00391-00701100741ADDAA112000091AA224001091AL14800091GJ100009IA2999-00409KA1999N-00381MA1999999096671MD1710111+9999OA149900821REMSYN112AAXX  09064 06646 03/// /0302 11039 21070 39667 40074 57011 69922 333 21038 3/104 55000 60005 70009 91116 91206;EQDQ01  00002PRCP12
0128066460999992010010907004+47567+008233FM-12+032799999V0200401N002119999999N9999999N1-00391-00701100711ADDMA1999999096641MD1710111+9999OA149900511REMSYN076AAXX  09074 06646 33/// /0404 11039 21070 39664 40071 57011 333 91110 91204;
0128066460999992010010908004+47567+008233FM-12+032799999V0200301N001519999999N9999999N1-00391-00671100751ADDMA1999999096681MD1510051+9999OA149900721REMSYN076AAXX  09084 06646 33/// /0303 11039 21067 39668 40075 55005 333 91114 91205;
0128066460999992010010909004+47567+008233FM-12+032799999V0200301N002619999999N9999999N1-00381-00691100771ADDMA1999999096701MD1210031+9999OA149900721REMSYN076AAXX  09094 06646 33/// /0305 11038 21069 39670 40077 52003 333 91114 91205;
0128066460999992010010910004+47567+008233FM-12+032799999V0200401N002119999999N9999999N1-00361-00681100751ADDMA1999999096681MD1210041+9999OA149900571REMSYN076AAXX  09104 06646 33/// /0404 11036 21068 39668 40075 52004 333 91111 91205;
0128066460999992010010911004+47567+008233FM-12+032799999V0200401N001519999999N9999999N1-00351-00681100691ADDMA1999999096631MD1810051+9999OA149900511REMSYN076AAXX  09114 06646 33/// /0403 11035 21068 39663 40069 58005 333 91110 91204;
0128066460999992010010912004+47567+008233FM-12+032799999V0200301N001519999999N9999999N1-00311-00651100651ADDMA1999999096601MD1710101+9999OA149900721REMSYN076AAXX  09124 06646 33/// /0303 11031 21065 39660 40065 57010 333 91114 91205;
0128066460999992010010913004+47567+008233FM-12+032799999V0200201N001019999999N9999999N1-00301-00651100641ADDMA1999999096591MD1710091+9999OA149900571REMSYN076AAXX  09134 06646 33/// /0202 11030 21065 39659 40064 57009 333 91111 91205;
0128066460999992010010914004+47567+008233FM-12+032799999V0200401N001519999999N9999999N1-00301-00661100641ADDMA1999999096591MD1710041+9999OA149900511REMSYN076AAXX  09144 06646 33/// /0403 11030 21066 39659 40064 57004 333 91110 91204;
0128066460999992010010915004+47567+008233FM-12+032799999V0200401N001519999999N9999999N1-00321-00631100691ADDMA1999999096631MD1310031+9999OA149900571REMSYN076AAXX  09154 06646 33/// /0403 11032 21063 39663 40069 53003 333 91111 91205;
0128066460999992010010916004+47567+008233FM-12+032799999V0200301N001019999999N9999999N1-00331-00611100701ADDMA1999999096641MD1210051+9999OA149900511REMSYN076AAXX  09164 06646 33/// /0302 11033 21061 39664 40070 52005 333 91110 91204;
0128066460999992010010917004+47567+008233FM-12+032799999V0200401N002119999999N9999999N1-00341-00641100701ADDMA1999999096641MD1210051+9999OA149900621REMSYN076AAXX  09174 06646 33/// /0404 11034 21064 39664 40070 52005 333 91112 91204;
0147066460999992010010918004+47567+008233FM-12+032799999V0200401N001519999999N9999999N1-00361-00601100741ADDKA1120M-00301MA1999999096671MD1210041+9999OA149900721REMSYN082AAXX  09184 06646 33/// /0403 11036 21060 39667 40074 52004 333 11030 91114 91205;
0128066460999992010010919004+47567+008233FM-12+032799999V0200101N001519999999N9999999N1-00381-00581100771ADDMA1999999096701MD1210061+9999OA149900671REMSYN076AAXX  09194 06646 33/// /0103 11038 21058 39670 40077 52006 333 91113 91205;
0145066460999992010010920004+47567+008233FM-12+032799999V0203401N001019999999N9999999N1-00391-00491100811ADDAA101000591MA1999999096741MD1310101+9999OA149900461REMSYN082AAXX  09204 06646 23/// /3402 11039 21049 39674 40081 53010 333 69965 91109 91204;
0145066460999992010010921004+47567+008233FM-12+032799999V0203001N000519999999N9999999N1-00391-00481100821ADDAA101000021MA1999999096751MD1110081+9999OA149900671REMSYN082AAXX  09214 06646 23/// /3001 11039 21048 39675 40082 51008 333 69925 91113 91205;
0145066460999992010010922004+47567+008233FM-12+032799999V0209999C000019999999N9999999N1-00401-00511100871ADDAA101000021MA1999999096791MD1210091+9999OA149900211REMSYN082AAXX  09224 06646 23/// /0000 11040 21051 39679 40087 52009 333 69925 91104 91202;
0145066460999992010010923004+47567+008233FM-12+032799999V0200101N000519999999N9999999N1-00391-00471100891ADDAA101000021MA1999999096811MD1210071+9999OA149900101REMSYN082AAXX  09234 06646 23/// /0101 11039 21047 39681 40089 52007 333 69915 91102 91201;
0151066460999992010011000004+47567+008233FM-12+032799999V0203601N000519999999N9999999N1-00391-00451100911ADDAA106001091MA1999999096831MD1210081+9999OA149900671REMSYN088AAXX  10004 06646 03/// /3601 11039 21045 39683 40091 52008 60011 333 69925 91113 91205;
0128066460999992010011001004+47567+008233FM-12+032799999V0200101N000519999999N9999999N1-00411-00471100931ADDMA1999999096851MD1210061+9999OA149900151REMSYN076AAXX  10014 06646 33/// /0101 11041 21047 39685 40093 52006 333 91103 91202;
0087066460999992010011002004+47567+008233FM-12+032799999V0209999C000019999999N9999999N1-00461-00511101011ADDMA1999999096921REMSYN060AAXX  10024 06646 33/// /0000 11046 21051 39692 40101 5////;
0087066460999992010011003004+47567+008233FM-12+032799999V0209999C000019999999N9999999N1-00451-00501101041ADDMA1999999096951REMSYN060AAXX  10034 06646 43/// /0000 11045 21050 39695 40104 5////;
0128066460999992010011004004+47567+008233FM-12+032799999V0203501N000519999999N9999999N1-00391-00501101091ADDMA1999999097011MD1110161+9999OA149900151REMSYN076AAXX  10044 06646 33/// /3501 11039 21050 39701 40109 51016 333 91103 91201;
0128066460999992010011005004+47567+008233FM-12+032799999V0209999C000019999999N9999999N1-00431-00501101131ADDMA1999999097041MD1110121+9999OA149900151REMSYN076AAXX  10054 06646 33/// /0000 11043 21050 39704 40113 51012 333 91103 91201;
0229066460999992010011006004+47567+008233FM-12+032799999V0201601N000519999999N9999999N1-00421-00501101191ADDAA112001091AA224001391AL11800191GJ100009IA2999-00709KA1999N-00481MA1999999097101MD1110151+9999OA149900461REMSYN112AAXX  10064 06646 03/// /1601 11042 21050 39710 40119 51015 60012 333 21048 3/107 55000 60005 70013 91109 91204;
0128066460999992010011007004+47567+008233FM-12+032799999V0209999C000019999999N9999999N1-00421-00501101261ADDMA1999999097161MD1310151+9999OA149900051REMSYN076AAXX  10074 06646 33/// /0000 11042 21050 39716 40126 53015 333 91101 91201;
0128066460999992010011008004+47567+008233FM-12+032799999V0201201N000519999999N9999999N1-00411-00501101351ADDMA1999999097251MD1219999+9999OA149900101REMSYN076AAXX  10084 06646 33/// /1201 11041 21050 39725 40135 52/// 333 91102 91201;
0128066460999992010011009004+47567+008233FM-12+032799999V0202501N002119999999N9999999N1-00341-00561101411ADDMA1999999097321MD1310221+9999OA149900411REMSYN076AAXX  10094 06646 33/// /2504 11034 21056 39732 40141 53022 333 91108 91204;
0128066460999992010011010004+47567+008233FM-12+032799999V0202601N002119999999N9999999N1-00321-00551101461ADDMA1999999097371MD1110211+9999OA149900511REMSYN076AAXX  10104 06646 33/// /2604 11032 21055 39737 40146 51021 333 91110 91205;
0128066460999992010011011004+47567+008233FM-12+032799999V0202301N001519999999N9999999N1-00281-00591101501ADDMA1999999097421MD1110171+9999OA149900511REMSYN076AAXX  10114 06646 33/// /2303 11028 21059 39742 40150 51017 333 91110 91205;
0128066460999992010011012004+47567+008233FM-12+032799999V0202401N002619999999N9999999N1-00281-00691101521ADDMA1999999097441MD1110121+9999OA149900511REMSYN076AAXX  10124 06646 33/// /2405 11028 21069 39744 40152 51012 333 91110 91205;
0128066460999992010011013004+47567+008233FM-12+032799999V0202401N002119999999N9999999N1-00271-00691101541ADDMA1999999097461MD1110091+9999OA149900461REMSYN076AAXX  10134 06646 33/// /2404 11027 21069 39746 40154 51009 333 91109 91205;
0128066460999992010011014004+47567+008233FM-12+032799999V0202401N000519999999N9999999N1-00261-00621101591ADDMA1999999097511MD1319999+9999OA149900461REMSYN076AAXX  10144 06646 33/// /2401 11026 21062 39751 40159 53/// 333 91109 91204;
0128066460999992010011015004+47567+008233FM-12+032799999V0202401N001519999999N9999999N1-00271-00611101651ADDMA1999999097561MD1310121+9999OA149900511REMSYN076AAXX  10154 06646 33/// /2403 11027 21061 39756 40165 53012 333 91110 91205;
0128066460999992010011016004+47567+008233FM-12+032799999V0203101N000519999999N9999999N1-00271-00611101701ADDMA1999999097611MD1210151+9999OA149900311REMSYN076AAXX  10164 06646 33/// /3101 11027 21061 39761 40170 52015 333 91106 91203;
0128066460999992010011017004+47567+008233FM-12+032799999V0202601N000519999999N9999999N1-00281-00621101731ADDMA1999999097641MD1110131+9999OA149900261REMSYN076AAXX  10174 06646 33/// /2601 11028 21062 39764 40173 51013 333 91105 91202;
0147066460999992010011018004+47567+008233FM-12+032799999V0202801N000519999999N9999999N1-00281-00581101781ADDKA1120M-00261MA1999999097681MD1110121+9999OA149900511REMSYN082AAXX  10184 06646 33/// /2801 11028 21058 39768 40178 51012 333 11026 91110 91205;
0128066460999992010011019004+47567+008233FM-12+032799999V0202901N001019999999N9999999N1-00291-00581101791ADDMA1999999097691MD1110081+9999OA149900151REMSYN076AAXX  10194 06646 33/// /2902 11029 21058 39769 40179 51008 333 91103 91202;
0128066460999992010011020004+47567+008233FM-12+032799999V0202901N000519999999N9999999N1-00301-00581101801ADDMA1999999097701MD1110061+9999OA149900151REMSYN076AAXX  10204 06646 33/// /2901 11030 21058 39770 40180 51006 333 91103 91202;
0128066460999992010011021004+47567+008233FM-12+032799999V0202701N001019999999N9999999N1-00311-00581101821ADDMA1999999097721MD1210041+9999OA149900261REMSYN076AAXX  10214 06646 33/// /2702 11031 21058 39772 40182 52004 333 91105 91203;
0128066460999992010011022004+47567+008233FM-12+032799999V0201101N000519999999N9999999N1-00351-00521101831ADDMA1999999097721MD1010031+9999OA149900211REMSYN076AAXX  10224 06646 33/// /1101 11035 21052 39772 40183 50003 333 91104 91203;
0128066460999992010011023004+47567+008233FM-12+032799999V0209999C000019999999N9999999N1-00401-00571101841ADDMA1999999097721MD1210021+9999OA149900211REMSYN076AAXX  10234 06646 33/// /0000 11040 21057 39772 40184 52002 333 91104 91202;
0128066460999992010011100004+47567+008233FM-12+032799999V0209999C000019999999N9999999N1-00411-00561101821ADDMA1999999097701MD1710021+9999OA149900461REMSYN076AAXX  11004 06646 33/// /0000 11041 21056 39770 40182 57002 333 91109 91204;
0128066460999992010011101004+47567+008233FM-12+032799999V0209999C000019999999N9999999N1-00401-00511101831ADDMA1999999097711MD1710011+9999OA149900101REMSYN076AAXX  11014 06646 33/// /0000 11040 21051 39771 40183 57001 333 91102 91201;
0128066460999992010011102004+47567+008233FM-12+032799999V0201301N000519999999N9999999N1-00401-00551101851ADDMA1999999097731MD1319999+9999OA149900101REMSYN076AAXX  11024 06646 33/// /1301 11040 21055 39773 40185 53/// 333 91102 91201;
0128066460999992010011103004+47567+008233FM-12+032799999V0201601N000519999999N9999999N1-00391-00541101831ADDMA1999999097721MD1019999+9999OA149900211REMSYN076AAXX  11034 06646 33/// /1601 11039 21054 39772 40183 50/// 333 91104 91202;
0163066460999992010011104004+47567+008233FM-12+032799999V0201601N000519999999N9999999N1-00391-00531101821ADDMA1999999097711MD1710011+9999OA149900151REMSYN076AAXX  11044 06646 33/// /1601 11039 21053 39771 40182 58000 333 91103 91202;EQDQ01+000082APCTENQ02+000002APC3  
0128066460999992010011105004+47567+008233FM-12+032799999V0201201N000519999999N9999999N1-00381-00531101801ADDMA1999999097691MD1710041+9999OA149900151REMSYN076AAXX  11054 06646 33/// /1201 11038 21053 39769 40180 57004 333 91103 91202;
0225066460999992010011106004+47567+008233FM-12+032799999V0201101N000519999999N9999999N1-00381-00541101801ADDAA124000091AL19900091GJ100009IA2999-00809KA1999N-00421MA1999999097691MD1710031+9999OA149900211REMSYN100AAXX  11064 06646 33/// /1101 11038 21054 39769 40180 57003 333 21042 3/108 55000 70000 91104 91203;EQDQ01  00002PRCP24
0128066460999992010011107004+47567+008233FM-12+032799999V0209999C000019999999N9999999N1-00371-00521101811ADDMA1999999097701MD1510011+9999OA149900101REMSYN076AAXX  11074 06646 33/// /0000 11037 21052 39770 40181 55001 333 91102 91201;
0128066460999992010011108004+47567+008233FM-12+032799999V0209999C000019999999N9999999N1-00351-00521101821ADDMA1999999097711MD1219999+9999OA149900101REMSYN076AAXX  11084 06646 33/// /0000 11035 21052 39771 40182 52/// 333 91102 91201;
0128066460999992010011109004+47567+008233FM-12+032799999V0201701N000519999999N9999999N1-00311-00561101801ADDMA1999999097701MD1210011+9999OA149900151REMSYN076AAXX  11094 06646 33/// /1701 11031 21056 39770 40180 52001 333 91103 91202;
0128066460999992010011110004+47567+008233FM-12+032799999V0201701N001019999999N9999999N1-00251-00591101811ADDMA1999999097721MD1219999+9999OA149900211REMSYN076AAXX  11104 06646 33/// /1702 11025 21059 39772 40181 52/// 333 91104 91202;
0128066460999992010011111004+47567+008233FM-12+032799999V0201901N001019999999N9999999N1-00191-00621101781ADDMA1999999097701MD1710011+9999OA149900261REMSYN076AAXX  11114 06646 33/// /1902 11019 21062 39770 40178 57001 333 91105 91203;
0128066460999992010011112004+47567+008233FM-12+032799999V0201901N001019999999N9999999N1-00171-00621101751ADDMA1999999097671MD1710031+9999OA149900311REMSYN076AAXX  11124 06646 33/// /1902 11017 21062 39767 40175 57003 333 91106 91203;
0128066460999992010011113004+47567+008233FM-12+032799999V0202101N001519999999N9999999N1-00151-00591101711ADDMA1999999097641MD1810081+9999OA149900311REMSYN076AAXX  11134 06646 33/// /2103 11015 21059 39764 40171 58008 333 91106 91203;
0087066460999992010011114004+47567+008233FM-12+032799999V0202601N000519999999N9999999N1-00141-00521101731ADDMA1999999097661REMSYN060AAXX  11144 06646 33/// /2601 11014 21052 39766 40173 5////;
0128066460999992010011115004+47567+008233FM-12+032799999V0202001N001019999999N9999999N1-00231-00451101811ADDMA1999999097721MD1310051+9999OA149900361REMSYN076AAXX  11154 06646 33/// /2002 11023 21045 39772 40181 53005 333 91107 91204;
0145066460999992010011116004+47567+008233FM-12+032799999V0201901N001519999999N9999999N1-00281-00411101841ADDAA101000021MA1999999097741MD1310101+9999OA149900361REMSYN082AAXX  11164 06646 23/// /1903 11028 21041 39774 40184 53010 333 69915 91107 91204;
0145066460999992010011117004+47567+008233FM-12+032799999V0201701N002119999999N9999999N1-00281-00401101881ADDAA101000021MA1999999097781MD1110121+9999OA149900361REMSYN082AAXX  11174 06646 23/// /1704 11028 21040 39778 40188 51012 333 69915 91107 91204;
0170066460999992010011118004+47567+008233FM-12+032799999V0201701N001019999999N9999999N1-00281-00401101921ADDAA112000391KA1120M-00141MA1999999097821MD1310101+9999OA149900361REMSYN094AAXX  11184 06646 03/// /1702 11028 21040 39782 40192 53010 69932 333 11014 69915 91107 91204;
0128066460999992010011119004+47567+008233FM-12+032799999V0201701N001019999999N9999999N1-00281-00391101951ADDMA1999999097851MD1110111+9999OA149900311REMSYN076AAXX  11194 06646 33/// /1702 11028 21039 39785 40195 51011 333 91106 91203;
0128066460999992010011120004+47567+008233FM-12+032799999V0201801N001519999999N9999999N1-00281-00381101961ADDMA1999999097861MD1210081+9999OA149900311REMSYN076AAXX  11204 06646 33/// /1803 11028 21038 39786 40196 52008 333 91106 91203;
0145066460999992010011121004+47567+008233FM-12+032799999V0201601N001519999999N9999999N1-00291-00351101961ADDAA101000391MA1999999097861MD1210041+9999OA149900361REMSYN082AAXX  11214 06646 23/// /1603 11029 21035 39786 40196 52004 333 69935 91107 91204;
0128066460999992010011122004+47567+008233FM-12+032799999V0201701N000519999999N9999999N1-00281-00381101961ADDMA1999999097861MD1210011+9999OA149900361REMSYN076AAXX  11224 06646 33/// /1701 11028 21038 39786 40196 52001 333 91107 91204;
0128066460999992010011123004+47567+008233FM-12+032799999V0201601N001019999999N9999999N1-00281-00361101991ADDMA1999999097891MD1310031+9999OA149900361REMSYN076AAXX  11234 06646 33/// /1602 11028 21036 39789 40199 53003 333 91107 91204;
0151066460999992010011200004+47567+008233FM-12+032799999V0201901N001019999999N9999999N1-00281-00331101981ADDAA106000591MA1999999097881MD1010021+9999OA149900361REMSYN088AAXX  12004 06646 03/// /1902 11028 21033 39788 40198 50002 69951 333 69925 91107 91204;
0128066460999992010011201004+47567+008233FM-12+032799999V0201901N001019999999N9999999N1-00281-00351101981ADDMA1999999097881MD1010021+9999OA149900311REMSYN076AAXX  12014 06646 33/// /1902 11028 21035 39788 40198 50002 333 91106 91203;
0128066460999992010011202004+47567+008233FM-12+032799999V0201901N001019999999N9999999N1-00271-00351101981ADDMA1999999097881MD1519999+9999OA149900311REMSYN076AAXX  12024 06646 33/// /1902 11027 21035 39788 40198 55/// 333 91106 91203;
0128066460999992010011203004+47567+008233FM-12+032799999V0202101N000519999999N9999999N1-00261-00351101961ADDMA1999999097861MD1710021+9999OA149900361REMSYN076AAXX  12034 06646 33/// /2101 11026 21035 39786 40196 57002 333 91107 91204;
0128066460999992010011204004+47567+008233FM-12+032799999V0201701N001019999999N9999999N1-00281-00351101951ADDMA1999999097851MD1710031+9999OA149900211REMSYN076AAXX  12044 06646 33/// /1702 11028 21035 39785 40195 57003 333 91104 91202;
0128066460999992010011205004+47567+008233FM-12+032799999V0201801N000519999999N9999999N1-00281-00351101931ADDMA1999999097831MD1710051+9999OA149900261REMSYN076AAXX  12054 06646 33/// /1801 11028 21035 39783 40193 57005 333 91105 91202;
0229066460999992010011206004+47567+008233FM-12+032799999V0201701N000519999999N9999999N1-00281-00361101901ADDAA112000591AA224000891AL14800091GJ100009IA2999-00409KA1999N-00291MA1999999097801MD1710061+9999OA149900361REMSYN112AAXX  12064 06646 03/// /1701 11028 21036 39780 40190 57006 69952 333 21029 3/104 55000 60005 70008 91107 91204;
0128066460999992010011207004+47567+008233FM-12+032799999V0201901N000519999999N9999999N1-00291-00391101851ADDMA1999999097751MD1710101+9999OA149900151REMSYN076AAXX  12074 06646 33/// /1901 11029 21039 39775 40185 57010 333 91103 91202;
0128066460999992010011208004+47567+008233FM-12+032799999V0209999C000019999999N9999999N1-00331-00371101811ADDMA1999999097711MD1719999+9999OA149900151REMSYN076AAXX  12084 06646 33/// /0000 11033 21037 39771 40181 57/// 333 91103 91202;
0128066460999992010011209004+47567+008233FM-12+032799999V0203401N000519999999N9999999N1-00261-00371101761ADDMA1999999097671MD1610131+9999OA149900261REMSYN076AAXX  12094 06646 33/// /3401 11026 21037 39767 40176 56013 333 91105 91202;
0128066460999992010011210004+47567+008233FM-12+032799999V0200201N001019999999N9999999N1-00191-00401101671ADDMA1999999097591MD1810161+9999OA149900151REMSYN076AAXX  12104 06646 33/// /0202 11019 21040 39759 40167 58016 333 91103 91202;
0128066460999992010011211004+47567+008233FM-12+032799999V0203401N001019999999N9999999N1-00091-00391101551ADDMA1999999097491MD1810221+9999OA149900211REMSYN076AAXX  12114 06646 33/// /3402 11009 21039 39749 40155 58022 333 91104 91202;
0128066460999992010011212004+47567+008233FM-12+032799999V0201001N000519999999N9999999N1-00071-00411101461ADDMA1999999097411MD1810261+9999OA149900311REMSYN076AAXX  12124 06646 33/// /1001 11007 21041 39741 40146 58026 333 91106 91203;
0128066460999992010011213004+47567+008233FM-12+032799999V0201801N000519999999N9999999N1-00061-00401101381ADDMA1999999097331MD1610261+9999OA149900211REMSYN076AAXX  12134 06646 33/// /1801 11006 21040 39733 40138 56026 333 91104 91202;
0087066460999992010011214004+47567+008233FM-12+032799999V0200901N001019999999N9999999N1-00061-00401101311ADDMA1999999097271REMSYN060AAXX  12144 06646 33/// /0902 11006 21040 39727 40131 5////;
0128066460999992010011215004+47567+008233FM-12+032799999V0200501N001019999999N9999999N1-00101-00391101251ADDMA1999999097201MD1810211+9999OA149900411REMSYN076AAXX  12154 06646 33/// /0502 11010 21039 39720 40125 58021 333 91108 91204;
0128066460999992010011216004+47567+008233FM-12+032799999V0200401N001519999999N9999999N1-00111-00381101181ADDMA1999999097131MD1710201+9999OA149900461REMSYN076AAXX  12164 06646 33/// /0403 11011 21038 39713 40118 57020 333 91109 91204;
0128066460999992010011217004+47567+008233FM-12+032799999V0203501N000519999999N9999999N1-00111-00351101101ADDMA1999999097061MD1710211+9999OA149900461REMSYN076AAXX  12174 06646 33/// /3501 11011 21035 39706 40110 57021 333 91109 91203;
0147066460999992010011218004+47567+008233FM-12+032799999V0200701N000519999999N9999999N1-00101-00361101061ADDKA1120M-00051MA1999999097021MD1710181+9999OA149900461REMSYN082AAXX  12184 06646 33/// /0701 11010 21036 39702 40106 57018 333 11005 91109 91204;
0128066460999992010011219004+47567+008233FM-12+032799999V0200501N000519999999N9999999N1-00091-00361101041ADDMA1999999097001MD1710131+9999OA149900311REMSYN076AAXX  12194 06646 33/// /0501 11009 21036 39700 40104 57013 333 91106 91202;
0128066460999992010011220004+47567+008233FM-12+032799999V0201101N001019999999N9999999N1-00101-00351100991ADDMA1999999096951MD1710111+9999OA149900311REMSYN076AAXX  12204 06646 33/// /1102 11010 21035 39695 40099 57011 333 91106 91203;
0128066460999992010011221004+47567+008233FM-12+032799999V0200301N001019999999N9999999N1-00091-00331100911ADDMA1999999096881MD1710141+9999OA149900461REMSYN076AAXX  12214 06646 33/// /0302 11009 21033 39688 40091 57014 333 91109 91203;
0128066460999992010011222004+47567+008233FM-12+032799999V0200501N001019999999N9999999N1-00091-00331100861ADDMA1999999096831MD1710171+9999OA149900261REMSYN076AAXX  12224 06646 33/// /0502 11009 21033 39683 40086 57017 333 91105 91203;
0128066460999992010011223004+47567+008233FM-12+032799999V0200401N001519999999N9999999N1-00091-00341100811ADDMA1999999096781MD1610171+9999OA149900361REMSYN076AAXX  12234 06646 33/// /0403 11009 21034 39678 40081 56017 333 91107 91203;
0128066460999992010011300004+47567+008233FM-12+032799999V0200501N000519999999N9999999N1-00091-00341100851ADDMA1999999096821MD1510061+9999OA149900461REMSYN076AAXX  13004 06646 33/// /0501 11009 21034 39682 40085 55006 333 91109 91204;
0128066460999992010011301004+47567+008233FM-12+032799999V0202201N000519999999N9999999N1-00111-00311100931ADDMA1999999096891MD1310061+9999OA149900311REMSYN076AAXX  13014 06646 33/// /2201 11011 21031 39689 40093 53006 333 91106 91203;
0128066460999992010011302004+47567+008233FM-12+032799999V0201101N001019999999N9999999N1-00141-00331100851ADDMA1999999096811MD1019999+9999OA149900211REMSYN076AAXX  13024 06646 33/// /1102 11014 21033 39681 40085 50/// 333 91104 91202;
0128066460999992010011303004+47567+008233FM-12+032799999V0201701N000519999999N9999999N1-00151-00331100811ADDMA1999999096771MD1719999+9999OA149900361REMSYN076AAXX  13034 06646 33/// /1701 11015 21033 39677 40081 57/// 333 91107 91203;
0128066460999992010011304004+47567+008233FM-12+032799999V0203601N000519999999N9999999N1-00141-00311100741ADDMA1999999096711MD1610181+9999OA149900151REMSYN076AAXX  13044 06646 33/// /3601 11014 21031 39671 40074 56018 333 91103 91201;
0128066460999992010011305004+47567+008233FM-12+032799999V0200601N000519999999N9999999N1-00151-00321100721ADDMA1999999096691MD1810121+9999OA149900151REMSYN076AAXX  13054 06646 33/// /0601 11015 21032 39669 40072 58012 333 91103 91202;
0225066460999992010011306004+47567+008233FM-12+032799999V0200601N000519999999N9999999N1-00151-00321100741ADDAA124000091AL19900091GJ100009IA2999-00209KA1999N-00161MA1999999096711MD1510061+9999OA149900361REMSYN100AAXX  13064 06646 33/// /0601 11015 21032 39671 40074 55006 333 21016 3/102 55000 70000 91107 91203;EQDQ01  00002PRCP24
0128066460999992010011307004+47567+008233FM-12+032799999V0201501N000519999999N9999999N1-00151-00341100821ADDMA1999999096781MD1310071+9999OA149900311REMSYN076AAXX  13074 06646 33/// /1501 11015 21034 39678 40082 53007 333 91106 91203;
0128066460999992010011308004+47567+008233FM-12+032799999V0200901N000519999999N9999999N1-00141-00341100881ADDMA1999999096841MD1310151+9999OA149900101REMSYN076AAXX  13084 06646 33/// /0901 11014 21034 39684 40088 53015 333 91102 91201;
0128066460999992010011309004+47567+008233FM-12+032799999V0201601N000519999999N9999999N1-00131-00281100931ADDMA1999999096891MD1110181+9999OA149900311REMSYN076AAXX  13094 06646 33/// /1601 11013 21028 39689 40093 51018 333 91106 91203;
0145066460999992010011310004+47567+008233FM-12+032799999V0209999C000019999999N9999999N1-00141-00231100971ADDAA101000591MA1999999096931MD1310151+9999OA149900151REMSYN082AAXX  13104 06646 23/// /0000 11014 21023 39693 40097 53015 333 69945 91103 91202;
0145066460999992010011311004+47567+008233FM-12+032799999V0201801N001019999999N9999999N1-00111-00201100971ADDAA101000591MA1999999096931MD1210091+9999OA149900151REMSYN082AAXX  13114 06646 23/// /1802 11011 21020 39693 40097 52009 333 69965 91103 91202;
0151066460999992010011312004+47567+008233FM-12+032799999V0209999C000019999999N9999999N1-00041-00141100911ADDAA106001091MA1999999096891MD1010001+9999OA149900311REMSYN088AAXX  13124 06646 03/// /0000 11004 21014 39689 40091 50000 60011 333 69935 91106 91203;
0145066460999992010011313004+47567+008233FM-12+032799999V0200201N000519999999N9999999N1-00041-00091100901ADDAA101000391MA1999999096881MD1610051+9999OA149900151REMSYN082AAXX  13134 06646 23/// /0201 11004 21009 39688 40090 56005 333 69935 91103 91202;
0128066460999992010011314004+47567+008233FM-12+032799999V0201901N001019999999N9999999N1+00051-00071100891ADDMA1999999096881MD1619999+9999OA149900361REMSYN076AAXX  13144 06646 33/// /1902 10005 21007 39688 40089 56/// 333 91107 91202;
0145066460999992010011315004+47567+008233FM-12+032799999V0201801N000519999999N9999999N1+00081-00011100911ADDAA101000021MA1999999096901MD1310011+9999OA149900361REMSYN082AAXX  13154 06646 23/// /1801 10008 21001 39690 40091 53001 333 69915 91107 91202;
0128066460999992010011316004+47567+008233FM-12+032799999V0200101N000519999999N9999999N1+00031+00001100951ADDMA1999999096931MD1310051+9999OA149900261REMSYN076AAXX  13164 06646 33/// /0101 10003 20000 39693 40095 53005 333 91105 91202;
0128066460999992010011317004+47567+008233FM-12+032799999V0203101N000519999999N9999999N1+00041+00021101011ADDMA1999999096991MD1310111+9999OA149900211REMSYN076AAXX  13174 06646 33/// /3101 10004 20002 39699 40101 53011 333 91104 91201;
0170066460999992010011318004+47567+008233FM-12+032799999V0203601N000519999999N9999999N1+00041+00031101041ADDAA112002091KA1120M+00101MA1999999097021MD1310121+9999OA149900361REMSYN094AAXX  13184 06646 03/// /3601 10004 20003 39702 40104 53012 60022 333 10010 69935 91107 91202;
0145066460999992010011319004+47567+008233FM-12+032799999V0200201N000519999999N9999999N1+00051+00051101081ADDAA101000591MA1999999097061MD1110131+9999OA149900101REMSYN082AAXX  13194 06646 23/// /0201 10005 20005 39706 40108 51013 333 69945 91102 91201;
0145066460999992010011320004+47567+008233FM-12+032799999V0200201N000519999999N9999999N1+00061+00061101101ADDAA101000021MA1999999097081MD1110091+9999OA149900101REMSYN082AAXX  13204 06646 23/// /0201 10006 20006 39708 40110 51009 333 69915 91102 91201;
0128066460999992010011321004+47567+008233FM-12+032799999V0209999C000019999999N9999999N1+00071+00071101091ADDMA1999999097071MD1010051+9999OA149900211REMSYN076AAXX  13214 06646 33/// /0000 10007 20007 39707 40109 50005 333 91104 91201;
0128066460999992010011322004+47567+008233FM-12+032799999V0200201N000519999999N9999999N1+00081+00081101071ADDMA1999999097061MD1710011+9999OA149900151REMSYN076AAXX  13224 06646 33/// /0201 10008 20008 39706 40107 58000 333 91103 91202;
0128066460999992010011323004+47567+008233FM-12+032799999V0200201N000519999999N9999999N1+00091+00091101051ADDMA1999999097041MD1710041+9999OA149900151REMSYN076AAXX  13234 06646 33/// /0201 10009 20009 39704 40105 57004 333 91103 91202;
0151066460999992010011400004+47567+008233FM-12+032799999V0200401N001019999999N9999999N1+00101+00101101011ADDAA106000591MA1999999097001MD1710071+9999OA149900361REMSYN088AAXX  14004 06646 03/// /0402 10010 20010 39700 40101 57007 69951 333 60005 91107 91202;
0128066460999992010011401004+47567+008233FM-12+032799999V0209999C000019999999N9999999N1+00081+00081100981ADDMA1999999096971MD1610091+9999OA149900151REMSYN076AAXX  14014 06646 33/// /0000 10008 20008 39697 40098 56009 333 91103 91202;
0128066460999992010011402004+47567+008233FM-12+032799999V0203201N000519999999N9999999N1+00101+00101100951ADDMA1999999096941MD1719999+9999OA149900151REMSYN076AAXX  14024 06646 33/// /3201 10010 20010 39694 40095 57/// 333 91103 91202;
0087066460999992010011403004+47567+008233FM-12+032799999V0203301N000519999999N9999999N1+00091+00091100951ADDMA1999999096941REMSYN060AAXX  14034 06646 33/// /3301 10009 20009 39694 40095 5////;
0128066460999992010011404004+47567+008233FM-12+032799999V0203401N000519999999N9999999N1+00111+00111100911ADDMA1999999096911MD1710061+9999OA149900151REMSYN076AAXX  14044 06646 33/// /3401 10011 20011 39691 40091 57006 333 91103 91201;
0128066460999992010011405004+47567+008233FM-12+032799999V0200101N000519999999N9999999N1+00111+00071100891ADDMA1999999096891MD1710051+9999OA149900211REMSYN076AAXX  14054 06646 33/// /0101 10011 20007 39689 40089 57005 333 91104 91201;
0229066460999992010011406004+47567+008233FM-12+032799999V0203501N000519999999N9999999N1+00101+00101100851ADDAA112000591AA224002591AL13000291GJ100009IA2999+00009KA1999N+00041MA1999999096851MD1710091+9999OA149900211REMSYN112AAXX  14064 06646 03/// /3501 10010 20010 39685 40085 57009 69952 333 20004 3/100 55000 60005 70025 91104 91202;
0128066460999992010011407004+47567+008233FM-12+032799999V0203601N000519999999N9999999N1+00091+00081100851ADDMA1999999096851MD1610061+9999OA149900151REMSYN076AAXX  14074 06646 33/// /3601 10009 20008 39685 40085 56006 333 91103 91201;
0128066460999992010011408004+47567+008233FM-12+032799999V0200601N001019999999N9999999N1+00081+00071100841ADDMA1999999096841MD1619999+9999OA149900311REMSYN076AAXX  14084 06646 33/// /0602 10008 20007 39684 40084 56/// 333 91106 91202;
0128066460999992010011409004+47567+008233FM-12+032799999V0200201N001019999999N9999999N1+00081+00061100861ADDMA1999999096861MD1210011+9999OA149900311REMSYN076AAXX  14094 06646 33/// /0202 10008 20006 39686 40086 52001 333 91106 91202;
0128066460999992010011410004+47567+008233FM-12+032799999V0203501N000519999999N9999999N1+00111+00041100841ADDMA1999999096841MD1710011+9999OA149900311REMSYN076AAXX  14104 06646 33/// /3501 10011 20004 39684 40084 57001 333 91106 91202;
0128066460999992010011411004+47567+008233FM-12+032799999V0209999C000519999999N9999999N1+00181+00061100771ADDMA1999999096781MD1810061+9999OA149900311REMSYN076AAXX  14114 06646 33/// /0001 10018 20006 39678 40077 58006 333 91106 91202;
0128066460999992010011412004+47567+008233FM-12+032799999V0202501N000519999999N9999999N1+00231+00101100701ADDMA1999999096721MD1810141+9999OA149900311REMSYN076AAXX  14124 06646 33/// /2501 10023 20010 39672 40070 58014 333 91106 91202;
0128066460999992010011413004+47567+008233FM-12+032799999V0200401N001019999999N9999999N1+00301+00111100641ADDMA1999999096681MD1610161+9999OA149900411REMSYN076AAXX  14134 06646 33/// /0402 10030 20011 39668 40064 56016 333 91108 91202;
0128066460999992010011414004+47567+008233FM-12+032799999V0200301N001519999999N9999999N1+00301+00091100691ADDMA1999999096721MD1510061+9999OA149900511REMSYN076AAXX  14144 06646 33/// /0303 10030 20009 39672 40069 55006 333 91110 91203;
0128066460999992010011415004+47567+008233FM-12+032799999V0200301N002119999999N9999999N1+00271+00061100731ADDMA1999999096761MD1310041+9999OA149900511REMSYN076AAXX  14154 06646 33/// /0304 10027 20006 39676 40073 53004 333 91110 91204;
0128066460999992010011416004+47567+008233FM-12+032799999V0200601N001519999999N9999999N1+00291+00051100751ADDMA1999999096781MD1110101+9999OA149900461REMSYN076AAXX  14164 06646 33/// /0603 10029 20005 39678 40075 51010 333 91109 91204;
0128066460999992010011417004+47567+008233FM-12+032799999V0200401N001519999999N9999999N1+00281+00051100791ADDMA1999999096821MD1310101+9999OA149900461REMSYN076AAXX  14174 06646 33/// /0403 10028 20005 39682 40079 53010 333 91109 91204;
0147066460999992010011418004+47567+008233FM-12+032799999V0200501N001019999999N9999999N1+00281+00021100871ADDKA1120M+00301MA1999999096891MD1310131+9999OA149900511REMSYN082AAXX  14184 06646 33/// /0502 10028 20002 39689 40087 53013 333 10030 91110 91204;
0128066460999992010011419004+47567+008233FM-12+032799999V0200501N001519999999N9999999N1+00251+00011100971ADDMA1999999096991MD1310211+9999OA149900511REMSYN076AAXX  14194 06646 33/// /0503 10025 20001 39699 40097 53021 333 91110 91204;
0128066460999992010011420004+47567+008233FM-12+032799999V0200601N001519999999N9999999N1+00211-00011101061ADDMA1999999097071MD1210251+9999OA149900411REMSYN076AAXX  14204 06646 33/// /0603 10021 21001 39707 40106 52025 333 91108 91204;
0128066460999992010011421004+47567+008233FM-12+032799999V0200901N000519999999N9999999N1+00181-00011101161ADDMA1999999097161MD1310271+9999OA149900511REMSYN076AAXX  14214 06646 33/// /0901 10018 21001 39716 40116 53027 333 91110 91204;
0128066460999992010011422004+47567+008233FM-12+032799999V0200401N001019999999N9999999N1+00161-00031101241ADDMA1999999097231MD1310241+9999OA149900311REMSYN076AAXX  14224 06646 33/// /0402 10016 21003 39723 40124 53024 333 91106 91203;
0128066460999992010011423004+47567+008233FM-12+032799999V0201401N000519999999N9999999N1+00141-00061101351ADDMA1999999097331MD1310261+9999OA149900261REMSYN076AAXX  14234 06646 33/// /1401 10014 21006 39733 40135 53026 333 91105 91203;
0128066460999992010011500004+47567+008233FM-12+032799999V0201101N000519999999N9999999N1+00121-00021101401ADDMA1999999097381MD1110221+9999OA149900511REMSYN076AAXX  15004 06646 33/// /1101 10012 21002 39738 40140 51022 333 91110 91204;
0128066460999992010011501004+47567+008233FM-12+032799999V0200301N001019999999N9999999N1+00151+00011101471ADDMA1999999097451MD1110221+9999OA149900211REMSYN076AAXX  15014 06646 33/// /0302 10015 20001 39745 40147 51022 333 91104 91202;
0128066460999992010011502004+47567+008233FM-12+032799999V0203201N000519999999N9999999N1+00151-00011101551ADDMA1999999097531MD1310201+9999OA149900211REMSYN076AAXX  15024 06646 33/// /3201 10015 21001 39753 40155 53020 333 91104 91202;
0087066460999992010011503004+47567+008233FM-12+032799999V0203401N000519999999N9999999N1+00121-00011101631ADDMA1999999097601REMSYN060AAXX  15034 06646 33/// /3401 10012 21001 39760 40163 5////;
0128066460999992010011504004+47567+008233FM-12+032799999V0200701N000519999999N9999999N1+00111-00021101711ADDMA1999999097681MD1110231+9999OA149900151REMSYN076AAXX  15044 06646 33/// /0701 10011 21002 39768 40171 51023 333 91103 91201;
0128066460999992010011505004+47567+008233FM-12+032799999V0209999C000019999999N9999999N1+00111-00011101811ADDMA1999999097771MD1210241+9999OA149900151REMSYN076AAXX  15054 06646 33/// /0000 10011 21001 39777 40181 52024 333 91103 91201;
0225066460999992010011506004+47567+008233FM-12+032799999V0200801N000519999999N9999999N1+00111-00031101921ADDAA124000091AL19900091GJ100009IA2999+00009KA1999N+00101MA1999999097881MD1210281+9999OA149900411REMSYN100AAXX  15064 06646 33/// /0801 10011 21003 39788 40192 52028 333 20010 3/000 55000 70000 91108 91204;EQDQ01  00002PRCP24
0128066460999992010011507004+47567+008233FM-12+032799999V0209999C000019999999N9999999N1+00111-00041102021ADDMA1999999097971MD1310291+9999OA149900151REMSYN076AAXX  15074 06646 33/// /0000 10011 21004 39797 40202 53029 333 91103 91201;
0128066460999992010011508004+47567+008233FM-12+032799999V0209999C000019999999N9999999N1+00101-00051102101ADDMA1999999098051MD1219999+9999OA149900151REMSYN076AAXX  15084 06646 33/// /0000 10010 21005 39805 40210 52/// 333 91103 91201;
0128066460999992010011509004+47567+008233FM-12+032799999V0209999C000019999999N9999999N1+00131-00021102191ADDMA1999999098141MD1210261+9999OA149900151REMSYN076AAXX  15094 06646 33/// /0000 10013 21002 39814 40219 52026 333 91103 91201;
0128066460999992010011510004+47567+008233FM-12+032799999V0203601N000519999999N9999999N1+00191-00011102241ADDMA1999999098201MD1110231+9999OA149900101REMSYN076AAXX  15104 06646 33/// /3601 10019 21001 39820 40224 51023 333 91102 91201;
0128066460999992010011511004+47567+008233FM-12+032799999V0200101N000519999999N9999999N1+00201-00031102271ADDMA1999999098231MD1110181+9999OA149900101REMSYN076AAXX  15114 06646 33/// /0101 10020 21003 39823 40227 51018 333 91102 91201;
0128066460999992010011512004+47567+008233FM-12+032799999V0200201N000519999999N9999999N1+00241-00011102301ADDMA1999999098261MD1110121+9999OA149900211REMSYN076AAXX  15124 06646 33/// /0201 10024 21001 39826 40230 51012 333 91104 91202;
0128066460999992010011513004+47567+008233FM-12+032799999V0200201N000519999999N9999999N1+00251+00011102351ADDMA1999999098311MD1310111+9999OA149900101REMSYN076AAXX  15134 06646 33/// /0201 10025 20001 39831 40235 53011 333 91102 91202;
0128066460999992010011514004+47567+008233FM-12+032799999V0203201N000519999999N9999999N1+00301+00051102391ADDMA1999999098361MD1310131+9999OA149900151REMSYN076AAXX  15144 06646 33/// /3201 10030 20005 39836 40239 53013 333 91103 91201;
0128066460999992010011515004+47567+008233FM-12+032799999V0202701N001019999999N9999999N1+00281+00011102481ADDMA1999999098441MD1310181+9999OA149900261REMSYN076AAXX  15154 06646 33/// /2702 10028 20001 39844 40248 53018 333 91105 91203;
0128066460999992010011516004+47567+008233FM-12+032799999V0202701N001019999999N9999999N1+00271+00011102541ADDMA1999999098501MD1310191+9999OA149900261REMSYN076AAXX  15164 06646 33/// /2702 10027 20001 39850 40254 53019 333 91105 91203;
0128066460999992010011517004+47567+008233FM-12+032799999V0203101N001019999999N9999999N1+00241+00041102601ADDMA1999999098551MD1110191+9999OA149900211REMSYN076AAXX  15174 06646 33/// /3102 10024 20004 39855 40260 51019 333 91104 91202;
0147066460999992010011518004+47567+008233FM-12+032799999V0202601N000519999999N9999999N1+00201+00021102641ADDKA1120M+00311MA1999999098581MD1110141+9999OA149900261REMSYN082AAXX  15184 06646 33/// /2601 10020 20002 39858 40264 51014 333 10031 91105 91203;
0128066460999992010011519004+47567+008233FM-12+032799999V0209999C000019999999N9999999N1+00181+00031102661ADDMA1999999098601MD1210101+9999OA149900211REMSYN076AAXX  15194 06646 33/// /0000 10018 20003 39860 40266 52010 333 91104 91202;
0128066460999992010011520004+47567+008233FM-12+032799999V0209999C000019999999N9999999N1+00151+00051102691ADDMA1999999098621MD1210071+9999OA149900211REMSYN076AAXX  15204 06646 33/// /0000 10015 20005 39862 40269 52007 333 91104 91201;
0128066460999992010011521004+47567+008233FM-12+032799999V0200601N000519999999N9999999N1+00161+00021102691ADDMA1999999098621MD1210041+9999OA149900211REMSYN076AAXX  15214 06646 33/// /0601 10016 20002 39862 40269 52004 333 91104 91202;
0128066460999992010011522004+47567+008233FM-12+032799999V0201001N000519999999N9999999N1+00151-00021102681ADDMA1999999098611MD1010011+9999OA149900151REMSYN076AAXX  15224 06646 33/// /1001 10015 21002 39861 40268 50001 333 91103 91201;
0128066460999992010011523004+47567+008233FM-12+032799999V0200301N000519999999N9999999N1+00171-00031102701ADDMA1999999098641MD1210021+9999OA149900211REMSYN076AAXX  15234 06646 33/// /0301 10017 21003 39864 40270 52002 333 91104 91202;
0128066460999992010011600004+47567+008233FM-12+032799999V0200401N001019999999N9999999N1+00151-00051102681ADDMA1999999098611MD1010011+9999OA149900261REMSYN076AAXX  16004 06646 33/// /0402 10015 21005 39861 40268 50001 333 91105 91203;
0128066460999992010011601004+47567+008233FM-12+032799999V0200201N001019999999N9999999N1+00141-00051102661ADDMA1999999098591MD1710021+9999OA149900211REMSYN076AAXX  16014 06646 33/// /0202 10014 21005 39859 40266 57002 333 91104 91202;
0128066460999992010011602004+47567+008233FM-12+032799999V0200401N001019999999N9999999N1+00151-00031102621ADDMA1999999098561MD1710081+9999OA149900211REMSYN076AAXX  16024 06646 33/// /0402 10015 21003 39856 40262 57008 333 91104 91202;
0128066460999992010011603004+47567+008233FM-12+032799999V0200401N001019999999N9999999N1+00111-00071102601ADDMA1999999098531MD1719999+9999OA149900211REMSYN076AAXX  16034 06646 33/// /0402 10011 21007 39853 40260 57/// 333 91104 91202;
0128066460999992010011604004+47567+008233FM-12+032799999V0200301N000519999999N9999999N1+00091-00091102591ADDMA1999999098521MD1710071+9999OA149900211REMSYN076AAXX  16044 06646 33/// /0301 10009 21009 39852 40259 57007 333 91104 91203;
0128066460999992010011605004+47567+008233FM-12+032799999V0200401N001519999999N9999999N1+00091-00091102511ADDMA1999999098441MD1710121+9999OA149900261REMSYN076AAXX  16054 06646 33/// /0403 10009 21009 39844 40251 57012 333 91105 91203;
0225066460999992010011606004+47567+008233FM-12+032799999V0200301N000519999999N9999999N1+00071-00091102491ADDAA124000091AL19900091GJ100009IA2999+00009KA1999N+00081MA1999999098421MD1710111+9999OA149900261REMSYN100AAXX  16064 06646 33/// /0301 10007 21009 39842 40249 57011 333 20008 3/000 55000 70000 91105 91203;EQDQ01  00002PRCP24
0128066460999992010011607004+47567+008233FM-12+032799999V0200301N001019999999N9999999N1+00081-00111102431ADDMA1999999098361MD1710161+9999OA149900151REMSYN076AAXX  16074 06646 33/// /0302 10008 21011 39836 40243 57016 333 91103 91202;
0128066460999992010011608004+47567+008233FM-12+032799999V0200201N000519999999N9999999N1+00081-00101102391ADDMA1999999098321MD1710121+9999OA149900151REMSYN076AAXX  16084 06646 33/// /0201 10008 21010 39832 40239 57012 333 91103 91202;
0128066460999992010011609004+47567+008233FM-12+032799999V0200601N001019999999N9999999N1+00121-00101102331ADDMA1999999098271MD1610151+9999OA149900261REMSYN076AAXX  16094 06646 33/// /0602 10012 21010 39827 40233 56015 333 91105 91203;
0128066460999992010011610004+47567+008233FM-12+032799999V0201101N001019999999N9999999N1+00101-00171102311ADDMA1999999098251MD1710111+9999OA149900261REMSYN076AAXX  16104 06646 33/// /1102 10010 21017 39825 40231 57011 333 91105 91202;
0128066460999992010011611004+47567+008233FM-12+032799999V0201201N001019999999N9999999N1+00091-00221102241ADDMA1999999098181MD1710141+9999OA149900311REMSYN076AAXX  16114 06646 33/// /1202 10009 21022 39818 40224 57014 333 91106 91203;
0128066460999992010011612004+47567+008233FM-12+032799999V0209999C000019999999N9999999N1+00111-00241102201ADDMA1999999098151MD1710121+9999OA149900311REMSYN076AAXX  16124 06646 33/// /0000 10011 21024 39815 40220 57012 333 91106 91203;
0128066460999992010011613004+47567+008233FM-12+032799999V0201901N001519999999N9999999N1+00071-00191102161ADDMA1999999098101MD1710151+9999OA149900411REMSYN076AAXX  16134 06646 33/// /1903 10007 21019 39810 40216 57015 333 91108 91203;
0128066460999992010011614004+47567+008233FM-12+032799999V0201201N001519999999N9999999N1+00061-00191102081ADDMA1999999098021MD1819999+9999OA149900411REMSYN076AAXX  16144 06646 33/// /1203 10006 21019 39802 40208 58/// 333 91108 91204;
0128066460999992010011615004+47567+008233FM-12+032799999V0201401N000519999999N9999999N1+00081-00221102051ADDMA1999999098001MD1610151+9999OA149900411REMSYN076AAXX  16154 06646 33/// /1401 10008 21022 39800 40205 56015 333 91108 91204;
0128066460999992010011616004+47567+008233FM-12+032799999V0201601N000519999999N9999999N1+00091-00211102011ADDMA1999999097961MD1710141+9999OA149900261REMSYN076AAXX  16164 06646 33/// /1601 10009 21021 39796 40201 57014 333 91105 91203;
0128066460999992010011617004+47567+008233FM-12+032799999V0201001N000519999999N9999999N1+00061-00191102001ADDMA1999999097951MD1710071+9999OA149900211REMSYN076AAXX  16174 06646 33/// /1001 10006 21019 39795 40200 57007 333 91104 91202;
0147066460999992010011618004+47567+008233FM-12+032799999V0201001N000519999999N9999999N1+00021-00141101981ADDKA1120M+00121MA1999999097921MD1710081+9999OA149900411REMSYN082AAXX  16184 06646 33/// /1001 10002 21014 39792 40198 57008 333 10012 91108 91204;
0128066460999992010011619004+47567+008233FM-12+032799999V0200401N000519999999N9999999N1+00051-00141101901ADDMA1999999097851MD1710111+9999OA149900151REMSYN076AAXX  16194 06646 33/// /0401 10005 21014 39785 40190 57011 333 91103 91201;
0128066460999992010011620004+47567+008233FM-12+032799999V0200201N000519999999N9999999N1+00051-00121101861ADDMA1999999097811MD1810141+9999OA149900261REMSYN076AAXX  16204 06646 33/// /0201 10005 21012 39781 40186 58014 333 91105 91202;
0145066460999992010011621004+47567+008233FM-12+032799999V0200301N000519999999N9999999N1+00051+00021101751ADDAA101001091MA1999999097711MD1810211+9999OA149900261REMSYN082AAXX  16214 06646 23/// /0301 10005 20002 39771 40175 58021 333 60015 91105 91202;
0145066460999992010011622004+47567+008233FM-12+032799999V0203301N001019999999N9999999N1+00061+00051101761ADDAA101002091MA1999999097721MD1710131+9999OA149900151REMSYN082AAXX  16224 06646 23/// /3302 10006 20005 39772 40176 57013 333 60025 91103 91202;
0145066460999992010011623004+47567+008233FM-12+032799999V0200201N000519999999N9999999N1+00061+00061101751ADDAA101002091MA1999999097711MD1710101+9999OA149900151REMSYN082AAXX  16234 06646 23/// /0201 10006 20006 39771 40175 57010 333 60025 91103 91202;
0151066460999992010011700004+47567+008233FM-12+032799999V0200201N000519999999N9999999N1+00091+00091101761ADDAA106006191MA1999999097721MD1010011+9999OA149900411REMSYN088AAXX  17004 06646 03/// /0201 10009 20009 39772 40176 50001 60061 333 60015 91108 91204;
0145066460999992010011701004+47567+008233FM-12+032799999V0200201N001519999999N9999999N1+00111+00111101771ADDAA101000021MA1999999097731MD1510011+9999OA149900261REMSYN082AAXX  17014 06646 23/// /0203 10011 20011 39773 40177 55001 333 69915 91105 91203;
0128066460999992010011702004+47567+008233FM-12+032799999V0201901N002119999999N9999999N1+00421+00321101681ADDMA1999999097691MD1819999+9999OA149900461REMSYN076AAXX  17024 06646 33/// /1904 10042 20032 39769 40168 58/// 333 91109 91204;
0087066460999992010011703004+47567+008233FM-12+032799999V0201901N002119999999N9999999N1+00411+00331101631ADDMA1999999097641REMSYN060AAXX  17034 06646 43/// /1904 10041 20033 39764 40163 5////;
0145066460999992010011704004+47567+008233FM-12+032799999V0203501N000519999999N9999999N1+00291+00291101631ADDAA101002091MA1999999097631MD1710101+9999OA149900721REMSYN082AAXX  17044 06646 23/// /3501 10029 20029 39763 40163 57010 333 60025 91114 91206;
0145066460999992010011705004+47567+008233FM-12+032799999V0200501N001019999999N9999999N1+00231+00231101611ADDAA101000021MA1999999097601MD1719999+9999OA149900311REMSYN082AAXX  17054 06646 23/// /0502 10023 20023 39760 40161 57/// 333 69915 91106 91203;
0229066460999992010011706004+47567+008233FM-12+032799999V0209999C000019999999N9999999N1+00251+00251101611ADDAA112008991AA224009191AL11200991GJ100009IA2999-00109KA1999N+00011MA1999999097601MD1710041+9999OA149900721REMSYN112AAXX  17064 06646 03/// /0000 10025 20025 39760 40161 57004 60092 333 20001 3/101 55000 60005 70092 91114 91206;
0145066460999992010011707004+47567+008233FM-12+032799999V0202001N003119999999N9999999N1+00541+00391101621ADDAA101000021MA1999999097651MD1310021+9999OA149900821REMSYN082AAXX  17074 06646 23/// /2006 10054 20039 39765 40162 53002 333 69915 91116 91206;
0145066460999992010011708004+47567+008233FM-12+032799999V0202001N001519999999N9999999N1+00561+00441101701ADDAA101000021MA1999999097731MD1219999+9999OA149900821REMSYN082AAXX  17084 06646 23/// /2003 10056 20044 39773 40170 52/// 333 69925 91116 91207;
0145066460999992010011709004+47567+008233FM-12+032799999V0202401N003619999999N9999999N1+00661+00471101831ADDAA101001091MA1999999097871MD1310271+9999OA149901081REMSYN082AAXX  17094 06646 23/// /2407 10066 20047 39787 40183 53027 333 60015 91121 91207;
0128066460999992010011710004+47567+008233FM-12+032799999V0202401N004119999999N9999999N1+00731+00391101921ADDMA1999999097971MD1310321+9999OA149901081REMSYN076AAXX  17104 06646 33/// /2408 10073 20039 39797 40192 53032 333 91121 91208;
0128066460999992010011711004+47567+008233FM-12+032799999V0202401N002119999999N9999999N1+00711+00381102011ADDMA1999999098051MD1110321+9999OA149901081REMSYN076AAXX  17114 06646 33/// /2404 10071 20038 39805 40201 51032 333 91121 91208;
0151066460999992010011712004+47567+008233FM-12+032799999V0202501N002619999999N9999999N1+00711+00311102071ADDAA106002091MA1999999098111MD1110241+9999OA149901131REMSYN088AAXX  17124 06646 03/// /2505 10071 20031 39811 40207 51024 60021 333 60005 91122 91208;
0128066460999992010011713004+47567+008233FM-12+032799999V0202401N004119999999N9999999N1+00751+00261102111ADDMA1999999098151MD1210181+9999OA149901131REMSYN076AAXX  17134 06646 33/// /2408 10075 20026 39815 40211 52018 333 91122 91208;
0128066460999992010011714004+47567+008233FM-12+032799999V0202501N002619999999N9999999N1+00691+00251102251ADDMA1999999098281MD1219999+9999OA149901131REMSYN076AAXX  17144 06646 33/// /2505 10069 20025 39828 40225 52/// 333 91122 91209;
0128066460999992010011715004+47567+008233FM-12+032799999V0202501N003619999999N9999999N1+00641+00211102331ADDMA1999999098351MD1210241+9999OA149901131REMSYN076AAXX  17154 06646 33/// /2507 10064 20021 39835 40233 52024 333 91122 91210;
0128066460999992010011716004+47567+008233FM-12+032799999V0202001N000519999999N9999999N1+00631+00121102451ADDMA1999999098461MD1210311+9999OA149901131REMSYN076AAXX  17164 06646 33/// /2001 10063 20012 39846 40245 52031 333 91122 91210;
0128066460999992010011717004+47567+008233FM-12+032799999V0202101N001019999999N9999999N1+00531+00141102521ADDMA1999999098521MD1110241+9999OA149900571REMSYN076AAXX  17174 06646 33/// /2102 10053 20014 39852 40252 51024 333 91111 91204;
0170066460999992010011718004+47567+008233FM-12+032799999V0209999C000019999999N9999999N1+00441+00211102631ADDAA112002091KA1120M+00751MA1999999098611MD1210261+9999OA149901131REMSYN094AAXX  17184 06646 03/// /0000 10044 20021 39861 40263 52026 60022 333 10075 60005 91122 91210;
0128066460999992010011719004+47567+008233FM-12+032799999V0209999C000019999999N9999999N1+00481+00231102681ADDMA1999999098661MD1110201+9999OA149900261REMSYN076AAXX  17194 06646 33/// /0000 10048 20023 39866 40268 51020 333 91105 91202;
0128066460999992010011720004+47567+008233FM-12+032799999V0209999C000019999999N9999999N1+00411+00251102711ADDMA1999999098681MD1210161+9999OA149900361REMSYN076AAXX  17204 06646 33/// /0000 10041 20025 39868 40271 52016 333 91107 91202;
0128066460999992010011721004+47567+008233FM-12+032799999V0209999C000019999999N9999999N1+00321+00241102731ADDMA1999999098691MD1210081+9999OA149900571REMSYN076AAXX  17214 06646 33/// /0000 10032 20024 39869 40273 52008 333 91111 91204;
0128066460999992010011722004+47567+008233FM-12+032799999V0209999C000019999999N9999999N1+00291+00231102761ADDMA1999999098711MD1210051+9999OA149900101REMSYN076AAXX  17224 06646 33/// /0000 10029 20023 39871 40276 52005 333 91102 91201;
0128066460999992010011723004+47567+008233FM-12+032799999V0202201N000519999999N9999999N1+00231+00191102781ADDMA1999999098721MD1210041+9999OA149900101REMSYN076AAXX  17234 06646 33/// /2201 10023 20019 39872 40278 52004 333 91102 91201;
0128066460999992010011800004+47567+008233FM-12+032799999V0209999C000019999999N9999999N1+00191+00161102771ADDMA1999999098711MD1210021+9999OA149901131REMSYN076AAXX  18004 06646 33/// /0000 10019 20016 39871 40277 52002 333 91122 91210;
0128066460999992010011801004+47567+008233FM-12+032799999V0209999C000019999999N9999999N1+00161+00141102791ADDMA1999999098721MD1210011+9999OA149900101REMSYN076AAXX  18014 06646 33/// /0000 10016 20014 39872 40279 52001 333 91102 91201;
0087066460999992010011802004+47567+008233FM-12+032799999V0201701N000519999999N9999999N1+00131+00121102801ADDMA1999999098731REMSYN060AAXX  18024 06646 33/// /1701 10013 20012 39873 40280 5////;
0087066460999992010011803004+47567+008233FM-12+032799999V0209999C000019999999N9999999N1+00201+00151102811ADDMA1999999098751REMSYN060AAXX  18034 06646 33/// /0000 10020 20015 39875 40281 5////;
0128066460999992010011804004+47567+008233FM-12+032799999V0209999C000019999999N9999999N1+00101+00101102811ADDMA1999999098731MD1010011+9999OA149900151REMSYN076AAXX  18044 06646 33/// /0000 10010 20010 39873 40281 50001 333 91103 91202;
0128066460999992010011805004+47567+008233FM-12+032799999V0202201N000519999999N9999999N1+00081+00081102831ADDMA1999999098751MD1210021+9999OA149900101REMSYN076AAXX  18054 06646 33/// /2201 10008 20008 39875 40283 52002 333 91102 91201;
0206066460999992010011806004+47567+008233FM-12+032799999V0200801N000519999999N9999999N1+00111+00111102841ADDAA124001591AL13600191GJ100069IA2999-00109KA1999N+00061MA1999999098761MD1310011+9999OA149900361REMSYN100AAXX  18064 06646 33/// /0801 10011 20011 39876 40284 53001 333 20006 3/101 55001 70016 91107 91202;
0128066460999992010011807004+47567+008233FM-12+032799999V0200601N000519999999N9999999N1+00151+00141102871ADDMA1999999098801MD1210071+9999OA149900151REMSYN076AAXX  18074 06646 33/// /0601 10015 20014 39880 40287 52007 333 91103 91201;
0128066460999992010011808004+47567+008233FM-12+032799999V0209999C000019999999N9999999N1+00181+00181102921ADDMA1999999098851MD1319999+9999OA149900151REMSYN076AAXX  18084 06646 33/// /0000 10018 20018 39885 40292 53/// 333 91103 91201;
0128066460999992010011809004+47567+008233FM-12+032799999V0200401N000519999999N9999999N1+00241+00211102951ADDMA1999999098891MD1310131+9999OA149900151REMSYN076AAXX  18094 06646 33/// /0401 10024 20021 39889 40295 53013 333 91103 91201;
0128066460999992010011810004+47567+008233FM-12+032799999V0202201N000519999999N9999999N1+00331+00211102941ADDMA1999999098891MD1210091+9999OA149900211REMSYN076AAXX  18104 06646 33/// /2201 10033 20021 39889 40294 52009 333 91104 91202;
