0149066450999992011010100004+47433+007883FM-12+061099999V0200601N001019999999N9999999N1-00041-00061999999ADDMA1999999094911MD1810081+9999ME1314869OA149900261REMSYN088AAXX  01004 06645 33/// /0602 11004 21006 39491 48486 58008 333 55300 20000 91105 91203;
0149066450999992011010101004+47433+007883FM-12+061099999V0200701N001019999999N9999999N1-00031-00061999999ADDMA1999999094861MD1810131+9999ME1314829OA149900211REMSYN088AAXX  01014 06645 33/// /0702 11003 21006 39486 48482 58013 333 553// 20000 91104 91203;
0149066450999992011010102004+47433+007883FM-12+061099999V0201001N001519999999N9999999N1-00051-00161999999ADDMA1999999094841MD1610121+9999ME1314809OA149900261REMSYN088AAXX  01024 06645 33/// /1003 11005 21016 39484 48480 56012 333 55300 20000 91105 91203;
0149066450999992011010103004+47433+007883FM-12+061099999V0200201N001019999999N9999999N1-00191-00211999999ADDMA1999999094801MD1610111+9999ME1314729OA149900261REMSYN088AAXX  01034 06645 33/// /0202 11019 21021 39480 48472 56011 333 55300 20000 91105 91203;
0149066450999992011010104004+47433+007883FM-12+061099999V0202601N000519999999N9999999N1-00221-00251999999ADDMA1999999094781MD1710081+9999ME1314699OA149900261REMSYN088AAXX  01044 06645 33/// /2601 11022 21025 39478 48469 57008 333 55300 20000 91105 91203;
0149066450999992011010105004+47433+007883FM-12+061099999V0202201N001019999999N9999999N1-00141-00141999999ADDMA1999999094821MD1510021+9999ME1314759OA149900151REMSYN088AAXX  01054 06645 33/// /2202 11014 21014 39482 48475 55002 333 55300 20000 91103 91202;
0216066450999992011010106004+47433+007883FM-12+061099999V0202101N000519999999N9999999N1-00141-00141999999ADDAL19900091GJ100009IA2999-00409KA1999N-00221MA1999999094831MD1210031+9999ME1314769OA149900261REMSYN112AAXX  01064 06645 33/// /2101 11014 21014 39483 48476 52003 333 21022 3/104 55000 55300 20000 70000 91105 91203;
0149066450999992011010107004+47433+007883FM-12+061099999V0202601N000519999999N9999999N1-00111-00111999999ADDMA1999999094841MD1210061+9999ME1314789OA149900151REMSYN088AAXX  01074 06645 33/// /2601 11011 21011 39484 48478 52006 333 55300 20000 91103 91202;
0149066450999992011010108004+47433+007883FM-12+061099999V0203201N000519999999N9999999N1-00081-00101999999ADDMA1999999094871MD1219999+9999ME1314819OA149900151REMSYN088AAXX  01084 06645 33/// /3201 11008 21010 39487 48481 52/// 333 55300 20018 91103 91202;
0096066450999992011010109004+47433+007883FM-12+061099999V0203201N000519999999N9999999N1-00091-00091999999ADDMA1999999094871ME1314819REMSYN060AAXX  01094 06645 43/// /3201 11009 21009 39487 48481 5////;
0096066450999992011010110004+47433+007883FM-12+061099999V0202501N001019999999N9999999N1-00071-00081999999ADDMA1999999094881ME1314829REMSYN060AAXX  01104 06645 43/// /2502 11007 21008 39488 48482 5////;
0149066450999992011010111004+47433+007883FM-12+061099999V0203401N000519999999N9999999N1-00081-00111999999ADDMA1999999094821MD1810051+9999ME1314779OA149900151REMSYN088AAXX  01114 06645 33/// /3401 11008 21011 39482 48477 58005 333 55300 20310 91103 91202;
0096066450999992011010112004+47433+007883FM-12+061099999V0200101N002119999999N9999999N1-00061-00091999999ADDMA1999999094781ME1314749REMSYN060AAXX  01124 06645 43/// /0104 11006 21009 39478 48474 5////;
0096066450999992011010113004+47433+007883FM-12+061099999V0203401N001519999999N9999999N1-00081-00111999999ADDMA1999999094731ME1314709REMSYN060AAXX  01134 06645 43/// /3403 11008 21011 39473 48470 5////;
0096066450999992011010114004+47433+007883FM-12+061099999V0203401N001519999999N9999999N1-00101-00131999999ADDMA1999999094711ME1314679REMSYN060AAXX  01144 06645 43/// /3403 11010 21013 39471 48467 5////;
0096066450999992011010115004+47433+007883FM-12+061099999V0203201N001519999999N9999999N1-00111-00161999999ADDMA1999999094711ME1314679REMSYN060AAXX  01154 06645 43/// /3203 11011 21016 39471 48467 5////;
0096066450999992011010116004+47433+007883FM-12+061099999V0202901N001519999999N9999999N1-00101-00151999999ADDMA1999999094741ME1314709REMSYN060AAXX  01164 06645 43/// /2903 11010 21015 39474 48470 5////;
0096066450999992011010117004+47433+007883FM-12+061099999V0203301N002119999999N9999999N1-00151-00171999999ADDMA1999999094741ME1314689REMSYN060AAXX  01174 06645 43/// /3304 11015 21017 39474 48468 5////;
0096066450999992011010118004+47433+007883FM-12+061099999V0202901N001519999999N9999999N1-00161-00221999999ADDMA1999999094741ME1314689REMSYN060AAXX  01184 06645 43/// /2903 11016 21022 39474 48468 5////;
0112066450999992011010119004+47433+007883FM-12+061099999V0202601N001519999999N9999999N1-00141-00231999999ADDMA1999999094751ME1314699REMSYN076AAXX  01194 06645 33/// /2603 11014 21023 39475 48469 5//// 333 553// 20000;
0149066450999992011010120004+47433+007883FM-12+061099999V0202701N001519999999N9999999N1-00201-00261999999ADDMA1999999094751MD1410001+9999ME1314679OA149900361REMSYN088AAXX  01204 06645 33/// /2703 11020 21026 39475 48467 54001 333 55300 20000 91107 91204;
0149066450999992011010121004+47433+007883FM-12+061099999V0203301N001019999999N9999999N1-00211-00261999999ADDMA1999999094741MD1010001+9999ME1314669OA149900461REMSYN088AAXX  01214 06645 33/// /3302 11021 21026 39474 48466 50000 333 55300 20000 91109 91205;
0149066450999992011010122004+47433+007883FM-12+061099999V0200101N001519999999N9999999N1-00181-00251999999ADDMA1999999094721MD1710031+9999ME1314659OA149900261REMSYN088AAXX  01224 06645 33/// /0103 11018 21025 39472 48465 57003 333 55300 20000 91105 91203;
0149066450999992011010123004+47433+007883FM-12+061099999V0200201N001019999999N9999999N1-00181-00241999999ADDMA1999999094691MD1810061+9999ME1314639OA149900311REMSYN088AAXX  01234 06645 33/// /0202 11018 21024 39469 48463 58006 333 55300 20000 91106 91204;
0149066450999992011010200004+47433+007883FM-12+061099999V0202901N000519999999N9999999N1-00181-00251999999ADDMA1999999094661MD1610081+9999ME1314619OA149900461REMSYN088AAXX  02004 06645 33/// /2901 11018 21025 39466 48461 56008 333 55300 20000 91109 91205;
0149066450999992011010201004+47433+007883FM-12+061099999V0202201N001519999999N9999999N1-00181-00251999999ADDMA1999999094601MD1810121+9999ME1314569OA149900261REMSYN088AAXX  02014 06645 33/// /2203 11018 21025 39460 48456 58012 333 55300 20000 91105 91203;
0096066450999992011010202004+47433+007883FM-12+061099999V0200101N001519999999N9999999N1-00191-00241999999ADDMA1999999094641ME1314599REMSYN060AAXX  02024 06645 43/// /0103 11019 21024 39464 48459 5////;
0096066450999992011010203004+47433+007883FM-12+061099999V0202201N000519999999N9999999N1-00191-00231999999ADDMA1999999094641ME1314599REMSYN060AAXX  02034 06645 43/// /2201 11019 21023 39464 48459 5////;
0096066450999992011010204004+47433+007883FM-12+061099999V0202501N000519999999N9999999N1-00171-00241999999ADDMA1999999094651ME1314609REMSYN060AAXX  02044 06645 43/// /2501 11017 21024 39465 48460 5////;
0096066450999992011010205004+47433+007883FM-12+061099999V0202301N001019999999N9999999N1-00171-00231999999ADDMA1999999094661ME1314619REMSYN060AAXX  02054 06645 43/// /2302 11017 21023 39466 48461 5////;
0143066450999992011010206004+47433+007883FM-12+061099999V0202601N001019999999N9999999N1-00171-00251999999ADDIA2999-00209KA1999N-00221MA1999999094671ME1314629REMSYN082AAXX  02064 06645 43/// /2602 11017 21025 39467 48462 5//// 333 21022 3/102 55000;
0149066450999992011010207004+47433+007883FM-12+061099999V0202601N000519999999N9999999N1-00171-00251999999ADDMA1999999094691MD1310041+9999ME1314639OA149900151REMSYN088AAXX  02074 06645 33/// /2601 11017 21025 39469 48463 53004 333 55300 20000 91103 91202;
0149066450999992011010208004+47433+007883FM-12+061099999V0202801N000519999999N9999999N1-00161-00251999999ADDMA1999999094741MD1310081+9999ME1314689OA149900151REMSYN088AAXX  02084 06645 33/// /2801 11016 21025 39474 48468 53008 333 55300 20007 91103 91202;
0149066450999992011010209004+47433+007883FM-12+061099999V0203401N000519999999N9999999N1-00171-00211999999ADDMA1999999094791MD1310121+9999ME1314729OA149900151REMSYN088AAXX  02094 06645 33/// /3401 11017 21021 39479 48472 53012 333 55300 20043 91103 91202;
0149066450999992011010210004+47433+007883FM-12+061099999V0203301N001019999999N9999999N1-00141-00211999999ADDMA1999999094811MD1110121+9999ME1314749OA149900151REMSYN088AAXX  02104 06645 33/// /3302 11014 21021 39481 48474 51012 333 55300 20173 91103 91202;
0149066450999992011010211004+47433+007883FM-12+061099999V0200201N001519999999N9999999N1-00121-00241999999ADDMA1999999094821MD1210081+9999ME1314769OA149900311REMSYN088AAXX  02114 06645 33/// /0203 11012 21024 39482 48476 52008 333 553// 20299 91106 91203;
0168066450999992011010212004+47433+007883FM-12+061099999V0200301N002119999999N9999999N1-00071-00291999999ADDMA1999999094791MD1410001+9999ME1314759OA149900361REMSYN088AAXX  02124 06645 33/// /0304 11007 21029 39479 48475 58000 333 55300 20421 91107 91204;EQDQ01+000082APCTEN
0149066450999992011010213004+47433+007883FM-12+061099999V0200401N002619999999N9999999N1-00071-00351999999ADDMA1999999094791MD1710021+9999ME1314759OA149900571REMSYN088AAXX  02134 06645 33/// /0405 11007 21035 39479 48475 57002 333 55300 20443 91111 91205;
0112066450999992011010214004+47433+007883FM-12+061099999V0200401N001519999999N9999999N1-00081-00341999999ADDMA1999999094811ME1314769REMSYN076AAXX  02144 06645 33/// /0403 11008 21034 39481 48476 5//// 333 553// 20450;
0149066450999992011010215004+47433+007883FM-12+061099999V0203601N001519999999N9999999N1-00091-00251999999ADDMA1999999094841MD1310051+9999ME1314789OA149900571REMSYN088AAXX  02154 06645 33/// /3603 11009 21025 39484 48478 53005 333 55300 20198 91111 91205;
0149066450999992011010216004+47433+007883FM-12+061099999V0203501N001519999999N9999999N1-00131-00261999999ADDMA1999999094881MD1210091+9999ME1314809OA149900411REMSYN088AAXX  02164 06645 33/// /3503 11013 21026 39488 48480 52009 333 55300 20036 91108 91204;
0149066450999992011010217004+47433+007883FM-12+061099999V0200301N001519999999N9999999N1-00151-00361999999ADDMA1999999094911MD1110101+9999ME1314829OA149900361REMSYN088AAXX  02174 06645 33/// /0303 11015 21036 39491 48482 51010 333 55300 20000 91107 91203;
0168066450999992011010218004+47433+007883FM-12+061099999V0200501N001019999999N9999999N1-00201-00361999999ADDKA1120M-00061MA1999999094931MD1110091+9999ME1314829OA149900571REMSYN094AAXX  02184 06645 33/// /0502 11020 21036 39493 48482 51009 333 11006 55300 20000 91111 91205;
0149066450999992011010219004+47433+007883FM-12+061099999V0200201N001019999999N9999999N1-00261-00541999999ADDMA1999999094971MD1310091+9999ME1314839OA149900211REMSYN088AAXX  02194 06645 33/// /0202 11026 21054 39497 48483 53009 333 55300 20000 91104 91202;
0149066450999992011010220004+47433+007883FM-12+061099999V0200601N000519999999N9999999N1-00271-00531999999ADDMA1999999094981MD1110071+9999ME1314849OA149900211REMSYN088AAXX  02204 06645 33/// /0601 11027 21053 39498 48484 51007 333 55300 20000 91104 91203;
0149066450999992011010221004+47433+007883FM-12+061099999V0200201N000519999999N9999999N1-00341-00501999999ADDMA1999999095011MD1110081+9999ME1314849OA149900361REMSYN088AAXX  02214 06645 33/// /0201 11034 21050 39501 48484 51008 333 55300 20000 91107 91203;
0149066450999992011010222004+47433+007883FM-12+061099999V0209999C000019999999N9999999N1-00381-00491999999ADDMA1999999095041MD1310071+9999ME1314859OA149900101REMSYN088AAXX  02224 06645 33/// /0000 11038 21049 39504 48485 53007 333 55300 20000 91102 91201;
0149066450999992011010223004+47433+007883FM-12+061099999V0201101N000519999999N9999999N1-00461-00521999999ADDMA1999999095031MD1210051+9999ME1314829OA149900101REMSYN088AAXX  02234 06645 33/// /1101 11046 21052 39503 48482 52005 333 55300 20000 91102 91201;
0149066450999992011010300004+47433+007883FM-12+061099999V0200201N000519999999N9999999N1-00571-00661999999ADDMA1999999095031MD1210021+9999ME1314789OA149900571REMSYN088AAXX  03004 06645 33/// /0201 11057 21066 39503 48478 52002 333 55300 20000 91111 91205;
0149066450999992011010301004+47433+007883FM-12+061099999V0202201N001519999999N9999999N1-00741-00741999999ADDMA1999999094981MD1710061+9999ME1314689OA149900151REMSYN088AAXX  03014 06645 33/// /2203 11074 21074 39498 48468 57006 333 55300 20000 91103 91203;
0149066450999992011010302004+47433+007883FM-12+061099999V0209999C000019999999N9999999N1-00591-00691999999ADDMA1999999095001MD1719999+9999ME1314759OA149900151REMSYN088AAXX  03024 06645 33/// /0000 11059 21069 39500 48475 57/// 333 55300 20000 91103 91203;
0096066450999992011010303004+47433+007883FM-12+061099999V0202901N000519999999N9999999N1-00551-00681999999ADDMA1999999095001ME1314769REMSYN060AAXX  03034 06645 43/// /2901 11055 21068 39500 48476 5////;
0149066450999992011010304004+47433+007883FM-12+061099999V0201401N001019999999N9999999N1-00571-00751999999ADDMA1999999095001MD1210021+9999ME1314769OA149900101REMSYN088AAXX  03044 06645 33/// /1402 11057 21075 39500 48476 52002 333 55300 20000 91102 91202;
0149066450999992011010305004+47433+007883FM-12+061099999V0201501N000519999999N9999999N1-00631-00791999999ADDMA1999999094991MD1710011+9999ME1314739OA149900101REMSYN088AAXX  03054 06645 33/// /1501 11063 21079 39499 48473 57001 333 55300 20000 91102 91202;
0216066450999992011010306004+47433+007883FM-12+061099999V0201701N001019999999N9999999N1-00611-00811999999ADDAL19900091GJ100009IA2999-01009KA1999N-00741MA1999999094981MD1710021+9999ME1314739OA149900211REMSYN112AAXX  03064 06645 33/// /1702 11061 21081 39498 48473 57002 333 21074 3/110 55000 55300 20000 70000 91104 91203;
0149066450999992011010307004+47433+007883FM-12+061099999V0209999C000019999999N9999999N1-00651-00831999999ADDMA1999999094961MD1710041+9999ME1314709OA149900101REMSYN088AAXX  03074 06645 33/// /0000 11065 21083 39496 48470 57004 333 55300 20000 91102 91202;
0149066450999992011010308004+47433+007883FM-12+061099999V0200701N001019999999N9999999N1-00631-00821999999ADDMA1999999094991MD1519999+9999ME1314739OA149900151REMSYN088AAXX  03084 06645 33/// /0702 11063 21082 39499 48473 55/// 333 55300 20054 91103 91202;
0112066450999992011010309004+47433+007883FM-12+061099999V0200801N001019999999N9999999N1-00531-00761999999ADDMA1999999095001ME1314779REMSYN076AAXX  03094 06645 33/// /0802 11053 21076 39500 48477 5//// 333 553// 20414;
0149066450999992011010310004+47433+007883FM-12+061099999V0200701N002119999999N9999999N1-00401-00691999999ADDMA1999999095001MD1210041+9999ME1314819OA149900311REMSYN088AAXX  03104 06645 33/// /0704 11040 21069 39500 48481 52004 333 55308 20846 91106 91204;
0149066450999992011010311004+47433+007883FM-12+061099999V0200601N003619999999N9999999N1-00311-00721999999ADDMA1999999094961MD1810031+9999ME1314819OA149900511REMSYN088AAXX  03114 06645 33/// /0607 11031 21072 39496 48481 58003 333 55308 2//// 91110 91207;
0149066450999992011010312004+47433+007883FM-12+061099999V0200701N002619999999N9999999N1-00261-00661999999ADDMA1999999094911MD1710091+9999ME1314789OA149900571REMSYN088AAXX  03124 06645 33/// /0705 11026 21066 39491 48478 57009 333 55308 2//// 91111 91207;
0149066450999992011010313004+47433+007883FM-12+061099999V0200801N002619999999N9999999N1-00241-00651999999ADDMA1999999094901MD1610101+9999ME1314789OA149900571REMSYN088AAXX  03134 06645 33/// /0805 11024 21065 39490 48478 56010 333 55308 2//// 91111 91206;
0112066450999992011010314004+47433+007883FM-12+061099999V0200901N002619999999N9999999N1-00241-00651999999ADDMA1999999094891ME1314779REMSYN076AAXX  03144 06645 33/// /0905 11024 21065 39489 48477 5//// 333 553// 20594;
0112066450999992011010315004+47433+007883FM-12+061099999V0200701N003119999999N9999999N1-00261-00701999999ADDMA1999999094881ME1314769REMSYN076AAXX  03154 06645 33/// /0706 11026 21070 39488 48476 5//// 333 553// 20486;
0149066450999992011010316004+47433+007883FM-12+061099999V0200601N002119999999N9999999N1-00341-00681999999ADDMA1999999094851MD1710051+9999ME1314719OA149900461REMSYN088AAXX  03164 06645 33/// /0604 11034 21068 39485 48471 57005 333 55300 20068 91109 91206;
0149066450999992011010317004+47433+007883FM-12+061099999V0200501N002119999999N9999999N1-00381-00701999999ADDMA1999999094851MD1710041+9999ME1314709OA149900461REMSYN088AAXX  03174 06645 33/// /0504 11038 21070 39485 48470 57004 333 55300 20000 91109 91205;
0168066450999992011010318004+47433+007883FM-12+061099999V0200501N001519999999N9999999N1-00431-00671999999ADDKA1120M-00231MA1999999094851MD1710031+9999ME1314689OA149900571REMSYN094AAXX  03184 06645 33/// /0503 11043 21067 39485 48468 57003 333 11023 55300 20000 91111 91207;
0149066450999992011010319004+47433+007883FM-12+061099999V0202201N000519999999N9999999N1-00501-00671999999ADDMA1999999094841MD1710011+9999ME1314659OA149900361REMSYN088AAXX  03194 06645 33/// /2201 11050 21067 39484 48465 57001 333 55300 20000 91107 91204;
0149066450999992011010320004+47433+007883FM-12+061099999V0209999C000019999999N9999999N1-00531-00731999999ADDMA1999999094801MD1810051+9999ME1314619OA149900211REMSYN088AAXX  03204 06645 33/// /0000 11053 21073 39480 48461 58005 333 55300 20000 91104 91203;
0149066450999992011010321004+47433+007883FM-12+061099999V0200701N001519999999N9999999N1-00521-00681999999ADDMA1999999094771MD1810081+9999ME1314599OA149900461REMSYN088AAXX  03214 06645 33/// /0703 11052 21068 39477 48459 58008 333 55300 20000 91109 91205;
0149066450999992011010322004+47433+007883FM-12+061099999V0200501N001519999999N9999999N1-00491-00601999999ADDMA1999999094771MD1710071+9999ME1314609OA149900361REMSYN088AAXX  03224 06645 33/// /0503 11049 21060 39477 48460 57007 333 55300 20000 91107 91204;
0149066450999992011010323004+47433+007883FM-12+061099999V0200601N001019999999N9999999N1-00521-00641999999ADDMA1999999094761MD1710041+9999ME1314589OA149900361REMSYN088AAXX  03234 06645 33/// /0602 11052 21064 39476 48458 57004 333 55300 20000 91107 91204;
0149066450999992011010400004+47433+007883FM-12+061099999V0200901N001019999999N9999999N1-00521-00651999999ADDMA1999999094751MD1710021+9999ME1314579OA149900511REMSYN088AAXX  04004 06645 33/// /0902 11052 21065 39475 48457 57002 333 55300 20000 91110 91206;
0149066450999992011010401004+47433+007883FM-12+061099999V0200901N001519999999N9999999N1-00541-00741999999ADDMA1999999094701MD1810071+9999ME1314529OA149900211REMSYN088AAXX  04014 06645 33/// /0903 11054 21074 39470 48452 58007 333 55300 20000 91104 91203;
0149066450999992011010402004+47433+007883FM-12+061099999V0201001N001019999999N9999999N1-00541-00701999999ADDMA1999999094691MD1619999+9999ME1314519OA149900211REMSYN088AAXX  04024 06645 33/// /1002 11054 21070 39469 48451 56/// 333 55300 20000 91104 91203;
0149066450999992011010403004+47433+007883FM-12+061099999V0200701N001519999999N9999999N1-00541-00691999999ADDMA1999999094651MD1710101+9999ME1314489OA149900361REMSYN088AAXX  04034 06645 33/// /0703 11054 21069 39465 48448 57010 333 55300 20000 91107 91204;
0149066450999992011010404004+47433+007883FM-12+061099999V0201001N001519999999N9999999N1-00571-00731999999ADDMA1999999094621MD1710081+9999ME1314459OA149900361REMSYN088AAXX  04044 06645 33/// /1003 11057 21073 39462 48445 57008 333 55300 20000 91107 91204;
0149066450999992011010405004+47433+007883FM-12+061099999V0201101N001519999999N9999999N1-00591-00761999999ADDMA1999999094581MD1710111+9999ME1314419OA149900361REMSYN088AAXX  04054 06645 33/// /1103 11059 21076 39458 48441 57011 333 55300 20000 91107 91204;
0216066450999992011010406004+47433+007883FM-12+061099999V0201201N002119999999N9999999N1-00561-00761999999ADDAL19900091GJ103549IA2999-00809KA1999N-00621MA1999999094521MD1810131+9999ME1314379OA149900411REMSYN112AAXX  04064 06645 33/// /1204 11056 21076 39452 48437 58013 333 21062 3/108 55059 55300 20000 70000 91108 91204;
0149066450999992011010407004+47433+007883FM-12+061099999V0200701N001519999999N9999999N1-00591-00761999999ADDMA1999999094521MD1710101+9999ME1314369OA149900411REMSYN088AAXX  04074 06645 33/// /0703 11059 21076 39452 48436 57010 333 55300 20000 91108 91204;
0149066450999992011010408004+47433+007883FM-12+061099999V0200901N001519999999N9999999N1-00571-00751999999ADDMA1999999094541MD1519999+9999ME1314389OA149900361REMSYN088AAXX  04084 06645 33/// /0903 11057 21075 39454 48438 55/// 333 55300 20014 91107 91204;
0112066450999992011010409004+47433+007883FM-12+061099999V0200601N001519999999N9999999N1-00601-00731999999ADDMA1999999094541ME1314379REMSYN076AAXX  04094 06645 33/// /0603 11060 21073 39454 48437 5//// 333 553// 20083;
0149066450999992011010410004+47433+007883FM-12+061099999V0200601N001519999999N9999999N1-00541-00691999999ADDMA1999999094561MD1310041+9999ME1314419OA149900311REMSYN088AAXX  04104 06645 33/// /0603 11054 21069 39456 48441 53004 333 55300 20313 91106 91204;
0149066450999992011010411004+47433+007883FM-12+061099999V0200701N001519999999N9999999N1-00481-00661999999ADDMA1999999094521MD1810021+9999ME1314399OA149900311REMSYN088AAXX  04114 06645 33/// /0703 11048 21066 39452 48439 58002 333 553// 20443 91106 91204;
0149066450999992011010412004+47433+007883FM-12+061099999V0200601N002119999999N9999999N1-00451-00621999999ADDMA1999999094451MD1710091+9999ME1314359OA149900411REMSYN088AAXX  04124 06645 33/// /0604 11045 21062 39445 48435 57009 333 55300 20432 91108 91204;
0149066450999992011010413004+47433+007883FM-12+061099999V0200801N001519999999N9999999N1-00401-00591999999ADDMA1999999094381MD1610181+9999ME1314319OA149900311REMSYN088AAXX  04134 06645 33/// /0803 11040 21059 39438 48431 56018 333 55301 20544 91106 91204;
0112066450999992011010414004+47433+007883FM-12+061099999V0200601N001019999999N9999999N1-00391-00581999999ADDMA1999999094381ME1314319REMSYN076AAXX  04144 06645 33/// /0602 11039 21058 39438 48431 5//// 333 553// 20392;
0096066450999992011010415004+47433+007883FM-12+061099999V0200801N001019999999N9999999N1-00381-00571999999ADDMA1999999094351ME1314299REMSYN060AAXX  04154 06645 43/// /0802 11038 21057 39435 48429 5////;
0149066450999992011010416004+47433+007883FM-12+061099999V0201101N000519999999N9999999N1-00401-00561999999ADDMA1999999094371MD1710011+9999ME1314309OA149900211REMSYN088AAXX  04164 06645 33/// /1101 11040 21056 39437 48430 57001 333 55300 20032 91104 91202;
0168066450999992011010417004+47433+007883FM-12+061099999V0203001N000519999999N9999999N1-00401-00541999999ADDMA1999999094381MD1410001+9999ME1314319OA149900211REMSYN088AAXX  04174 06645 33/// /3001 11040 21054 39438 48431 53000 333 55300 20000 91104 91202;EQDQ01+000032APCTEN
0168066450999992011010418004+47433+007883FM-12+061099999V0203301N001019999999N9999999N1-00421-00561999999ADDKA1120M-00341MA1999999094391MD1310041+9999ME1314319OA149900361REMSYN094AAXX  04184 06645 33/// /3302 11042 21056 39439 48431 53004 333 11034 55300 20000 91107 91204;
0149066450999992011010419004+47433+007883FM-12+061099999V0203001N001519999999N9999999N1-00431-00551999999ADDMA1999999094401MD1210031+9999ME1314319OA149900261REMSYN088AAXX  04194 06645 33/// /3003 11043 21055 39440 48431 52003 333 55300 20000 91105 91203;
0149066450999992011010420004+47433+007883FM-12+061099999V0203501N000519999999N9999999N1-00481-00571999999ADDMA1999999094371MD1810011+9999ME1314279OA149900261REMSYN088AAXX  04204 06645 33/// /3501 11048 21057 39437 48427 58001 333 55300 20000 91105 91203;
0149066450999992011010421004+47433+007883FM-12+061099999V0203601N001019999999N9999999N1-00501-00611999999ADDMA1999999094351MD1710041+9999ME1314259OA149900311REMSYN088AAXX  04214 06645 33/// /3602 11050 21061 39435 48425 57004 333 55300 20000 91106 91203;
0149066450999992011010422004+47433+007883FM-12+061099999V0203601N001519999999N9999999N1-00501-00601999999ADDMA1999999094351MD1710051+9999ME1314259OA149900311REMSYN088AAXX  04224 06645 33/// /3603 11050 21060 39435 48425 57005 333 55300 20000 91106 91203;
0149066450999992011010423004+47433+007883FM-12+061099999V0203601N000519999999N9999999N1-00511-00601999999ADDMA1999999094341MD1710031+9999ME1314249OA149900211REMSYN088AAXX  04234 06645 33/// /3601 11051 21060 39434 48424 57003 333 55300 20000 91104 91203;
0149066450999992011010500004+47433+007883FM-12+061099999V0200301N001019999999N9999999N1-00531-00611999999ADDMA1999999094301MD1710051+9999ME1314209OA149900311REMSYN088AAXX  05004 06645 33/// /0302 11053 21061 39430 48420 57005 333 55300 20000 91106 91204;
0149066450999992011010501004+47433+007883FM-12+061099999V0200301N000519999999N9999999N1-00531-00611999999ADDMA1999999094301MD1710051+9999ME1314209OA149900151REMSYN088AAXX  05014 06645 33/// /0301 11053 21061 39430 48420 57005 333 55300 20000 91103 91203;
0149066450999992011010502004+47433+007883FM-12+061099999V0200401N001019999999N9999999N1-00511-00611999999ADDMA1999999094281MD1710061+9999ME1314199OA149900151REMSYN088AAXX  05024 06645 33/// /0402 11051 21061 39428 48419 57006 333 55300 20000 91103 91203;
0096066450999992011010503004+47433+007883FM-12+061099999V0200601N000519999999N9999999N1-00501-00611999999ADDMA1999999094261ME1314189REMSYN060AAXX  05034 06645 43/// /0601 11050 21061 39426 48418 5////;
0149066450999992011010504004+47433+007883FM-12+061099999V0200601N001519999999N9999999N1-00521-00621999999ADDMA1999999094211MD1710091+9999ME1314139OA149900211REMSYN088AAXX  05044 06645 33/// /0603 11052 21062 39421 48413 57009 333 55300 20000 91104 91203;
0149066450999992011010505004+47433+007883FM-12+061099999V0201201N001019999999N9999999N1-00411-00601999999ADDMA1999999094191MD1610091+9999ME1314159OA149900211REMSYN088AAXX  05054 06645 33/// /1202 11041 21060 39419 48415 56009 333 55300 20000 91104 91203;
0216066450999992011010506004+47433+007883FM-12+061099999V0200801N002119999999N9999999N1-00491-00671999999ADDAL19900091GJ100189IA2999-00709KA1999N-00551MA1999999094171MD1610091+9999ME1314119OA149900361REMSYN112AAXX  05064 06645 33/// /0804 11049 21067 39417 48411 56009 333 21055 3/107 55003 55300 20000 70000 91107 91204;
0149066450999992011010507004+47433+007883FM-12+061099999V0200601N000519999999N9999999N1-00461-00641999999ADDMA1999999094181MD1710031+9999ME1314129OA149900411REMSYN088AAXX  05074 06645 33/// /0601 11046 21064 39418 48412 57003 333 55300 20000 91108 91205;
0149066450999992011010508004+47433+007883FM-12+061099999V0202001N003619999999N9999999N1-00111-00641999999ADDMA1999999094181MD1519999+9999ME1314239OA149900621REMSYN088AAXX  05084 06645 33/// /2007 11011 21064 39418 48423 55/// 333 55300 20029 91112 91207;
0149066450999992011010509004+47433+007883FM-12+061099999V0201701N004619999999N9999999N1-00231-00551999999ADDMA1999999094161MD1810011+9999ME1314189OA149900671REMSYN088AAXX  05094 06645 33/// /1709 11023 21055 39416 48418 58001 333 55301 20292 91113 91209;
0149066450999992011010510004+47433+007883FM-12+061099999V0201701N003619999999N9999999N1-00131-00491999999ADDMA1999999094111MD1710071+9999ME1314179OA149900671REMSYN088AAXX  05104 06645 33/// /1707 11013 21049 39411 48417 57007 333 55308 20716 91113 91209;
0149066450999992011010511004+47433+007883FM-12+061099999V0201601N005119999999N9999999N1-00061-00441999999ADDMA1999999094061MD1710121+9999ME1314159OA149900881REMSYN088AAXX  05114 06645 33/// /1610 11006 21044 39406 48415 57012 333 55308 2//// 91117 91212;
0112066450999992011010512004+47433+007883FM-12+061099999V0201701N002619999999N9999999N1+00051-00441999999ADDMA1999999093961ME1314109REMSYN076AAXX  05124 06645 33/// /1705 10005 21044 39396 48410 5//// 333 553// 2////;
0149066450999992011010513004+47433+007883FM-12+061099999V0201601N003619999999N9999999N1+00091-00411999999ADDMA1999999093941MD1710171+9999ME1314099OA149900931REMSYN088AAXX  05134 06645 33/// /1607 10009 21041 39394 48409 57017 333 55308 20994 91118 91212;
0096066450999992011010514004+47433+007883FM-12+061099999V0201601N004619999999N9999999N1+00041-00391999999ADDMA1999999093931ME1314079REMSYN060AAXX  05144 06645 43/// /1609 10004 21039 39393 48407 5////;
0096066450999992011010515004+47433+007883FM-12+061099999V0201601N005719999999N9999999N1+00031-00381999999ADDMA1999999093861ME1314019REMSYN060AAXX  05154 06645 43/// /1611 10003 21038 39386 48401 5////;
0149066450999992011010516004+47433+007883FM-12+061099999V0201701N004119999999N9999999N1+00051-00401999999ADDMA1999999093851MD1710091+9999ME1314009OA149900981REMSYN088AAXX  05164 06645 33/// /1708 10005 21040 39385 48400 57009 333 55304 20086 91119 91211;
0149066450999992011010517004+47433+007883FM-12+061099999V0201601N003619999999N9999999N1+00011-00391999999ADDMA1999999093851MD1710081+9999ME1313999OA149900931REMSYN088AAXX  05174 06645 33/// /1607 10001 21039 39385 48399 57008 333 55300 20000 91118 91211;
0168066450999992011010518004+47433+007883FM-12+061099999V0201601N001519999999N9999999N1+00081-00361999999ADDKA1120M+00111MA1999999093851MD1719999+9999ME1314019OA149900981REMSYN094AAXX  05184 06645 33/// /1603 10008 21036 39385 48401 57/// 333 10011 55300 20000 91119 91212;
0149066450999992011010519004+47433+007883FM-12+061099999V0201701N002619999999N9999999N1+00071-00301999999ADDMA1999999093831MD1710021+9999ME1313999OA149900771REMSYN088AAXX  05194 06645 33/// /1705 10007 21030 39383 48399 57002 333 55300 20000 91115 91210;
0149066450999992011010520004+47433+007883FM-12+061099999V0201601N000519999999N9999999N1-00091-00361999999ADDMA1999999093771MD1719999+9999ME1313909OA149900571REMSYN088AAXX  05204 06645 33/// /1601 11009 21036 39377 48390 57/// 333 55300 20000 91111 91207;
0112066450999992011010521004+47433+007883FM-12+061099999V0201701N002619999999N9999999N1+00141-00321999999ADDMA1999999093761ME1313959REMSYN076AAXX  05214 06645 33/// /1705 10014 21032 39376 48395 5//// 333 553// 20000;
0149066450999992011010522004+47433+007883FM-12+061099999V0201601N004619999999N9999999N1+00071-00361999999ADDMA1999999093721MD1710111+9999ME1313909OA149900771REMSYN088AAXX  05224 06645 33/// /1609 10007 21036 39372 48390 57011 333 55300 20000 91115 91209;
0149066450999992011010523004+47433+007883FM-12+061099999V0201701N005119999999N9999999N1+00061-00341999999ADDMA1999999093681MD1719999+9999ME1313869OA149900931REMSYN088AAXX  05234 06645 33/// /1710 10006 21034 39368 48386 57/// 333 55300 20000 91118 91212;
0096066450999992011010600004+47433+007883FM-12+061099999V0201701N007219999999N9999999N1+00091-00351999999ADDMA1999999093611ME1313819REMSYN060AAXX  06004 06645 43/// /1714 10009 21035 39361 48381 5////;
0096066450999992011010601004+47433+007883FM-12+061099999V0201601N005719999999N9999999N1+00131-00341999999ADDMA1999999093551ME1313779REMSYN060AAXX  06014 06645 43/// /1611 10013 21034 39355 48377 5////;
0096066450999992011010602004+47433+007883FM-12+061099999V0201601N004119999999N9999999N1+00231-00291999999ADDMA1999999093551ME1313809REMSYN060AAXX  06024 06645 43/// /1608 10023 21029 39355 48380 5////;
0096066450999992011010603004+47433+007883FM-12+061099999V0201601N002119999999N9999999N1+00331-00221999999ADDMA1999999093551ME1313839REMSYN060AAXX  06034 06645 43/// /1604 10033 21022 39355 48383 5////;
0096066450999992011010604004+47433+007883FM-12+061099999V0202201N009819999999N9999999N1+00761+00111999999ADDMA1999999093501ME1313919REMSYN060AAXX  06044 06645 43/// /2219 10076 20011 39350 48391 5////;
0096066450999992011010605004+47433+007883FM-12+061099999V0202201N010819999999N9999999N1+00701+00191999999ADDMA1999999093451ME1313859REMSYN060AAXX  06054 06645 43/// /2221 10070 20019 39345 48385 5////;
0143066450999992011010606004+47433+007883FM-12+061099999V0202201N012919999999N9999999N1+00831+00191999999ADDIA2999-00409KA1999N-00101MA1999999093441ME1313889REMSYN082AAXX  06064 06645 43/// /2225 10083 20019 39344 48388 5//// 333 21010 3/104 55061;
0096066450999992011010607004+47433+007883FM-12+061099999V0202201N010819999999N9999999N1+00871+00151999999ADDMA1999999093471ME1313929REMSYN060AAXX  06074 06645 43/// /2221 10087 20015 39347 48392 5////;
0112066450999992011010608004+47433+007883FM-12+061099999V0202401N005719999999N9999999N1+00841+00111999999ADDMA1999999093551ME1313989REMSYN076AAXX  06084 06645 33/// /2411 10084 20011 39355 48398 5//// 333 553// 20014;
0096066450999992011010609004+47433+007883FM-12+061099999V0202401N006219999999N9999999N1+00861+00161999999ADDMA1999999093571ME1314009REMSYN060AAXX  06094 06645 43/// /2412 10086 20016 39357 48400 5////;
0149066450999992011010610004+47433+007883FM-12+061099999V0202401N008719999999N9999999N1+00931+00261999999ADDMA1999999093551MD1010081+9999ME1314019OA149901801REMSYN088AAXX  06104 06645 33/// /2417 10093 20026 39355 48401 50008 333 55300 20227 91135 91221;
0149066450999992011010611004+47433+007883FM-12+061099999V0202301N014419999999N9999999N1+01031+00271999999ADDMA1999999093511MD1810041+9999ME1314009OA149902521REMSYN088AAXX  06114 06645 33/// /2328 10103 20027 39351 48400 58004 333 55300 20389 91149 91228;
0149066450999992011010612004+47433+007883FM-12+061099999V0202301N009319999999N9999999N1+01061+00281999999ADDMA1999999093491MD1710081+9999ME1313999OA149902521REMSYN088AAXX  06124 06645 33/// /2318 10106 20028 39349 48399 57008 333 553// 20288 91149 91228;
0149066450999992011010613004+47433+007883FM-12+061099999V0202401N006719999999N9999999N1+01071+00251999999ADDMA1999999093491MD1710061+9999ME1313999OA149902371REMSYN088AAXX  06134 06645 33/// /2413 10107 20025 39349 48399 57006 333 55300 20173 91146 91228;
0096066450999992011010614004+47433+007883FM-12+061099999V0202301N012319999999N9999999N1+01091+00301999999ADDMA1999999093481ME1313999REMSYN060AAXX  06144 06645 43/// /2324 10109 20030 39348 48399 5////;
0096066450999992011010615004+47433+007883FM-12+061099999V0202201N014419999999N9999999N1+01001+00401999999ADDMA1999999093431ME1313929REMSYN060AAXX  06154 06645 43/// /2228 10100 20040 39343 48392 5////;
0149066450999992011010616004+47433+007883FM-12+061099999V0202201N013919999999N9999999N1+01011+00491999999ADDMA1999999093471MD1710021+9999ME1313969OA149902571REMSYN088AAXX  06164 06645 33/// /2227 10101 20049 39347 48396 57002 333 55300 20022 91150 91229;
0155066450999992011010617004+47433+007883FM-12+061099999V0202301N009819999999N9999999N1+01001+00471999999ADDMA1999999093551MD1310071+9999ME1314039OA149902571REMSYN094AAXX  06174 06645 23/// /2319 10100 20047 39355 48403 53007 333 553// 20000 69945 91150 91229;
0191066450999992011010618004+47433+007883FM-12+061099999V0202201N010819999999N9999999N1+01031+00511999999ADDAA112000591KA1120M+01121MA1999999093561MD1210131+9999ME1314049OA149902571REMSYN106AAXX  06184 06645 03/// /2221 10103 20051 39356 48404 52013 69942 333 10112 55300 20000 60005 91150 91229;
0149066450999992011010619004+47433+007883FM-12+061099999V0202201N011819999999N9999999N1+00991+00521999999ADDMA1999999093601MD1210131+9999ME1314079OA149902211REMSYN088AAXX  06194 06645 33/// /2223 10099 20052 39360 48407 52013 333 55300 20000 91143 91225;
0149066450999992011010620004+47433+007883FM-12+061099999V0202201N009319999999N9999999N1+01051+00491999999ADDMA1999999093661MD1219999+9999ME1314149OA149902211REMSYN088AAXX  06204 06645 33/// /2218 10105 20049 39366 48414 52/// 333 55300 20000 91143 91224;
0149066450999992011010621004+47433+007883FM-12+061099999V0202301N007719999999N9999999N1+01041+00501999999ADDMA1999999093721MD1219999+9999ME1314199OA149902571REMSYN088AAXX  06214 06645 33/// /2315 10104 20050 39372 48419 52/// 333 55300 20000 91150 91229;
0149066450999992011010622004+47433+007883FM-12+061099999V0202301N008219999999N9999999N1+01021+00531999999ADDMA1999999093781MD1210181+9999ME1314239OA149902061REMSYN088AAXX  06224 06645 33/// /2316 10102 20053 39378 48423 52018 333 55300 20000 91140 91225;
0112066450999992011010623004+47433+007883FM-12+061099999V0202301N006219999999N9999999N1+01091+00501999999ADDMA1999999093831ME1314309REMSYN076AAXX  06234 06645 33/// /2312 10109 20050 39383 48430 5//// 333 553// 20000;
0096066450999992011010700004+47433+007883FM-12+061099999V0202301N008719999999N9999999N1+01061+00571999999ADDMA1999999093851ME1314319REMSYN060AAXX  07004 06645 43/// /2317 10106 20057 39385 48431 5////;
0096066450999992011010701004+47433+007883FM-12+061099999V0202501N005719999999N9999999N1+01091+00561999999ADDMA1999999093881ME1314349REMSYN060AAXX  07014 06645 43/// /2511 10109 20056 39388 48434 5////;
0096066450999992011010702004+47433+007883FM-12+061099999V0202401N006219999999N9999999N1+01141+00541999999ADDMA1999999093921ME1314399REMSYN060AAXX  07024 06645 43/// /2412 10114 20054 39392 48439 5////;
0096066450999992011010703004+47433+007883FM-12+061099999V0202401N005119999999N9999999N1+01151+00551999999ADDMA1999999093931ME1314409REMSYN060AAXX  07034 06645 43/// /2410 10115 20055 39393 48440 5////;
0149066450999992011010704004+47433+007883FM-12+061099999V0202401N006219999999N9999999N1+01071+00621999999ADDMA1999999093971MD1210091+9999ME1314419OA149901441REMSYN088AAXX  07044 06645 33/// /2412 10107 20062 39397 48441 52009 333 55300 20000 91128 91215;
0155066450999992011010705004+47433+007883FM-12+061099999V0202501N002619999999N9999999N1+00971+00731999999ADDMA1999999094001MD1210081+9999ME1314419OA149901441REMSYN094AAXX  07054 06645 23/// /2505 10097 20073 39400 48441 52008 333 55300 20000 69955 91128 91215;
0239066450999992011010706004+47433+007883FM-12+061099999V0201901N002619999999N9999999N1+00821+00651999999ADDAA112001091AL12400191GJ100009IA2999+00809KA1999N+00861MA1999999094021MD1210091+9999ME1314389OA149902211REMSYN124AAXX  07064 06645 03/// /1905 10082 20065 39402 48438 52009 60012 333 20086 3/008 55000 55300 20000 69965 70014 91143 91225;
0155066450999992011010707004+47433+007883FM-12+061099999V0201301N002119999999N9999999N1+00841+00641999999ADDMA1999999094021MD1210051+9999ME1314399OA149900621REMSYN094AAXX  07074 06645 23/// /1304 10084 20064 39402 48439 52005 333 55300 20000 69985 91112 91206;
0118066450999992011010708004+47433+007883FM-12+061099999V0201601N003119999999N9999999N1+00741+00601999999ADDMA1999999094041ME1314379REMSYN082AAXX  07084 06645 23/// /1606 10074 20060 39404 48437 5//// 333 553// 20007 69915;
0096066450999992011010709004+47433+007883FM-12+061099999V0201701N003619999999N9999999N1+00701+00561999999ADDMA1999999094061ME1314389REMSYN060AAXX  07094 06645 43/// /1707 10070 20056 39406 48438 5////;
0149066450999992011010710004+47433+007883FM-12+061099999V0201501N001519999999N9999999N1+00931+00601999999ADDMA1999999094021MD1010001+9999ME1314419OA149900881REMSYN088AAXX  07104 06645 33/// /1503 10093 20060 39402 48441 50000 333 55307 20716 91117 91210;
0149066450999992011010711004+47433+007883FM-12+061099999V0201701N003619999999N9999999N1+01051+00611999999ADDMA1999999093971MD1710071+9999ME1314419OA149900771REMSYN088AAXX  07114 06645 33/// /1707 10105 20061 39397 48441 57007 333 55307 20947 91115 91207;
0172066450999992011010712004+47433+007883FM-12+061099999V0202101N005719999999N9999999N1+01291+00561999999ADDAA106001091MA1999999093941MD1810121+9999ME1314459OA149901601REMSYN100AAXX  07124 06645 03/// /2111 10129 20056 39394 48445 58012 69991 333 55300 20500 60005 91131 91215;
0149066450999992011010713004+47433+007883FM-12+061099999V0202101N008219999999N9999999N1+01361+00521999999ADDMA1999999093901MD1610121+9999ME1314449OA149901391REMSYN088AAXX  07134 06645 33/// /2116 10136 20052 39390 48444 56012 333 55301 20482 91127 91216;
0096066450999992011010714004+47433+007883FM-12+061099999V0202101N006219999999N9999999N1+01311+00521999999ADDMA1999999093931ME1314459REMSYN060AAXX  07144 06645 43/// /2112 10131 20052 39393 48445 5////;
0096066450999992011010715004+47433+007883FM-12+061099999V0202301N007219999999N9999999N1+01281+00551999999ADDMA1999999093961ME1314479REMSYN060AAXX  07154 06645 43/// /2314 10128 20055 39396 48447 5////;
0149066450999992011010716004+47433+007883FM-12+061099999V0202201N005119999999N9999999N1+01301+00561999999ADDMA1999999094021MD1210121+9999ME1314539OA149901541REMSYN088AAXX  07164 06645 33/// /2210 10130 20056 39402 48453 52012 333 55300 20011 91130 91216;
0155066450999992011010717004+47433+007883FM-12+061099999V0202301N003619999999N9999999N1+01181+00701999999ADDMA1999999094051MD1210121+9999ME1314529OA149901341REMSYN094AAXX  07174 06645 23/// /2307 10118 20070 39405 48452 52012 333 55300 20000 69935 91126 91215;
0154066450999992011010718004+47433+007883FM-12+061099999V0201001N001519999999N9999999N1+00991+00651999999ADDAA112002091KA1120M+01361MA1999999094071ME1314489REMSYN094AAXX  07184 06645 03/// /1003 10099 20065 39407 48448 5//// 60022 333 10136 553// 20000 69955;
0149066450999992011010719004+47433+007883FM-12+061099999V0201201N003119999999N9999999N1+00951+00621999999ADDMA1999999094041MD1019999+9999ME1314449OA149900721REMSYN088AAXX  07194 06645 33/// /1206 10095 20062 39404 48444 50/// 333 55300 20000 91114 91207;
0096066450999992011010720004+47433+007883FM-12+061099999V0201601N003619999999N9999999N1+01001+00611999999ADDMA1999999094021ME1314449REMSYN060AAXX  07204 06645 43/// /1607 10100 20061 39402 48444 5////;
0096066450999992011010721004+47433+007883FM-12+061099999V0201601N003119999999N9999999N1+01031+00601999999ADDMA1999999094021ME1314449REMSYN060AAXX  07214 06645 43/// /1606 10103 20060 39402 48444 5////;
0149066450999992011010722004+47433+007883FM-12+061099999V0201601N003119999999N9999999N1+01011+00591999999ADDMA1999999094041MD1410001+9999ME1314469OA149900721REMSYN088AAXX  07224 06645 33/// /1606 10101 20059 39404 48446 52000 333 55300 20000 91114 91210;
0112066450999992011010723004+47433+007883FM-12+061099999V0201701N002619999999N9999999N1+01031+00591999999ADDMA1999999094081ME1314509REMSYN076AAXX  07234 06645 33/// /1705 10103 20059 39408 48450 5//// 333 553// 20000;
0112066450999992011010800004+47433+007883FM-12+061099999V0201401N001519999999N9999999N1+01011+00571999999ADDMA1999999094081ME1314499REMSYN076AAXX  08004 06645 33/// /1403 10101 20057 39408 48449 5//// 333 553// 20000;
0096066450999992011010801004+47433+007883FM-12+061099999V0202201N004119999999N9999999N1+01171+00541999999ADDMA1999999094061ME1314529REMSYN060AAXX  08014 06645 43/// /2208 10117 20054 39406 48452 5////;
0096066450999992011010802004+47433+007883FM-12+061099999V0200301N001519999999N9999999N1+00911+00641999999ADDMA1999999094081ME1314469REMSYN060AAXX  08024 06645 43/// /0303 10091 20064 39408 48446 5////;
0096066450999992011010803004+47433+007883FM-12+061099999V0200501N001019999999N9999999N1+00801+00631999999ADDMA1999999094141ME1314489REMSYN060AAXX  08034 06645 43/// /0502 10080 20063 39414 48448 5////;
0096066450999992011010804004+47433+007883FM-12+061099999V0202101N000519999999N9999999N1+00831+00731999999ADDMA1999999094191ME1314539REMSYN060AAXX  08044 06645 43/// /2101 10083 20073 39419 48453 5////;
0096066450999992011010805004+47433+007883FM-12+061099999V0200801N000519999999N9999999N1+00791+00721999999ADDMA1999999094211ME1314539REMSYN060AAXX  08054 06645 43/// /0801 10079 20072 39421 48453 5////;
0143066450999992011010806004+47433+007883FM-12+061099999V0202201N007219999999N9999999N1+01001+00551999999ADDIA2999+00709KA1999N+00761MA1999999094171ME1314579REMSYN082AAXX  08064 06645 43/// /2214 10100 20055 39417 48457 5//// 333 20076 3/007 55018;
0096066450999992011010807004+47433+007883FM-12+061099999V0202001N005719999999N9999999N1+00941+00611999999ADDMA1999999094191ME1314569REMSYN060AAXX  08074 06645 43/// /2011 10094 20061 39419 48456 5////;
0112066450999992011010808004+47433+007883FM-12+061099999V0202001N001519999999N9999999N1+00921+00571999999ADDMA1999999094211ME1314589REMSYN076AAXX  08084 06645 33/// /2003 10092 20057 39421 48458 5//// 333 553// 20014;
0096066450999992011010809004+47433+007883FM-12+061099999V0202001N005119999999N9999999N1+01041+00561999999ADDMA1999999094231ME1314639REMSYN060AAXX  08094 06645 43/// /2010 10104 20056 39423 48463 5////;
0096066450999992011010810004+47433+007883FM-12+061099999V0202201N003119999999N9999999N1+01161+00561999999ADDMA1999999094241ME1314689REMSYN060AAXX  08104 06645 43/// /2206 10116 20056 39424 48468 5////;
0096066450999992011010811004+47433+007883FM-12+061099999V0202201N007219999999N9999999N1+01271+00481999999ADDMA1999999094191ME1314679REMSYN060AAXX  08114 06645 43/// /2214 10127 20048 39419 48467 5////;
0096066450999992011010812004+47433+007883FM-12+061099999V0202101N006719999999N9999999N1+01281+00471999999ADDMA1999999094151ME1314649REMSYN060AAXX  08124 06645 43/// /2113 10128 20047 39415 48464 5////;
0096066450999992011010813004+47433+007883FM-12+061099999V0201801N005119999999N9999999N1+01181+00601999999ADDMA1999999094111ME1314579REMSYN060AAXX  08134 06645 43/// /1810 10118 20060 39411 48457 5////;
0096066450999992011010814004+47433+007883FM-12+061099999V0201901N004619999999N9999999N1+01231+00461999999ADDMA1999999094121ME1314599REMSYN060AAXX  08144 06645 43/// /1909 10123 20046 39412 48459 5////;
0096066450999992011010815004+47433+007883FM-12+061099999V0202201N003619999999N9999999N1+01231+00381999999ADDMA1999999094141ME1314619REMSYN060AAXX  08154 06645 43/// /2207 10123 20038 39414 48461 5////;
0096066450999992011010816004+47433+007883FM-12+061099999V0202201N002119999999N9999999N1+01231+00321999999ADDMA1999999094161ME1314639REMSYN060AAXX  08164 06645 43/// /2204 10123 20032 39416 48463 5////;
0096066450999992011010817004+47433+007883FM-12+061099999V0202201N003619999999N9999999N1+01221+00291999999ADDMA1999999094111ME1314589REMSYN060AAXX  08174 06645 43/// /2207 10122 20029 39411 48458 5////;
0096066450999992011010818004+47433+007883FM-12+061099999V0201801N002119999999N9999999N1+01071+00451999999ADDMA1999999094131ME1314559REMSYN060AAXX  08184 06645 43/// /1804 10107 20045 39413 48455 5////;
0096066450999992011010819004+47433+007883FM-12+061099999V0201801N001519999999N9999999N1+01111+00411999999ADDMA1999999094111ME1314559REMSYN060AAXX  08194 06645 43/// /1803 10111 20041 39411 48455 5////;
0096066450999992011010820004+47433+007883FM-12+061099999V0201801N002119999999N9999999N1+00981+00461999999ADDMA1999999094101ME1314509REMSYN060AAXX  08204 06645 43/// /1804 10098 20046 39410 48450 5////;
0096066450999992011010821004+47433+007883FM-12+061099999V0201701N001519999999N9999999N1+01001+00441999999ADDMA1999999094091ME1314509REMSYN060AAXX  08214 06645 43/// /1703 10100 20044 39409 48450 5////;
0096066450999992011010822004+47433+007883FM-12+061099999V0201001N001019999999N9999999N1+00981+00451999999ADDMA1999999094051ME1314469REMSYN060AAXX  08224 06645 43/// /1002 10098 20045 39405 48446 5////;
0096066450999992011010823004+47433+007883FM-12+061099999V0201101N001019999999N9999999N1+01121+00341999999ADDMA1999999094031ME1314489REMSYN060AAXX  08234 06645 43/// /1102 10112 20034 39403 48448 5////;
0096066450999992011010900004+47433+007883FM-12+061099999V0202201N002119999999N9999999N1+01081+00361999999ADDMA1999999094051ME1314499REMSYN060AAXX  09004 06645 43/// /2204 10108 20036 39405 48449 5////;
0096066450999992011010901004+47433+007883FM-12+061099999V0209999C000019999999N9999999N1+01071+00271999999ADDMA1999999094041ME1314479REMSYN060AAXX  09014 06645 43/// /0000 10107 20027 39404 48447 5////;
0096066450999992011010902004+47433+007883FM-12+061099999V0202201N004119999999N9999999N1+01111+00241999999ADDMA1999999094041ME1314499REMSYN060AAXX  09024 06645 43/// /2208 10111 20024 39404 48449 5////;
0096066450999992011010903004+47433+007883FM-12+061099999V0202101N002119999999N9999999N1+01161+00131999999ADDMA1999999094041ME1314509REMSYN060AAXX  09034 06645 43/// /2104 10116 20013 39404 48450 5////;
0096066450999992011010904004+47433+007883FM-12+061099999V0202401N003119999999N9999999N1+01131+00071999999ADDMA1999999093981ME1314449REMSYN060AAXX  09044 06645 43/// /2406 10113 20007 39398 48444 5////;
0096066450999992011010905004+47433+007883FM-12+061099999V0202101N003119999999N9999999N1+01111+00081999999ADDMA1999999093981ME1314439REMSYN060AAXX  09054 06645 43/// /2106 10111 20008 39398 48443 5////;
0106066450999992011010906004+47433+007883FM-12+061099999V0201501N003119999999N9999999N1+00831+00291999999ADDMA1999999093981ME1314359REMSYN070AAXX  09064 06645 43/// /1506 10083 20029 39398 48435 5//// 333 55035;
0096066450999992011010907004+47433+007883FM-12+061099999V0201601N002119999999N9999999N1+00831+00241999999ADDMA1999999094031ME1314399REMSYN060AAXX  09074 06645 43/// /1604 10083 20024 39403 48439 5////;
0112066450999992011010908004+47433+007883FM-12+061099999V0201601N001519999999N9999999N1+00911+00211999999ADDMA1999999094091ME1314479REMSYN076AAXX  09084 06645 33/// /1603 10091 20021 39409 48447 5//// 333 553// 20011;
0112066450999992011010909004+47433+007883FM-12+061099999V0202301N005119999999N9999999N1+01061+00111999999ADDMA1999999094161ME1314589REMSYN076AAXX  09094 06645 33/// /2310 10106 20011 39416 48458 5//// 333 553// 20083;
0149066450999992011010910004+47433+007883FM-12+061099999V0202701N001019999999N9999999N1+01041+00161999999ADDMA1999999094201MD1210171+9999ME1314609OA149900881REMSYN088AAXX  09104 06645 33/// /2702 10104 20016 39420 48460 52017 333 55300 20108 91117 91210;
0149066450999992011010911004+47433+007883FM-12+061099999V0203101N001019999999N9999999N1+01001+00281999999ADDMA1999999094211MD1210121+9999ME1314609OA149900771REMSYN088AAXX  09114 06645 33/// /3102 10100 20028 39421 48460 52012 333 55300 20130 91115 91208;
0149066450999992011010912004+47433+007883FM-12+061099999V0200901N001019999999N9999999N1+00821+00381999999ADDMA1999999094201MD1210041+9999ME1314549OA149900981REMSYN088AAXX  09124 06645 33/// /0902 10082 20038 39420 48454 52004 333 55300 20086 91119 91211;
0155066450999992011010913004+47433+007883FM-12+061099999V0201001N001019999999N9999999N1+00711+00531999999ADDMA1999999094211MD1210011+9999ME1314519OA149900311REMSYN094AAXX  09134 06645 23/// /1002 10071 20053 39421 48451 52001 333 55300 20072 69955 91106 91203;
0096066450999992011010914004+47433+007883FM-12+061099999V0202101N001019999999N9999999N1+00771+00511999999ADDMA1999999094231ME1314559REMSYN060AAXX  09144 06645 43/// /2102 10077 20051 39423 48455 5////;
0096066450999992011010915004+47433+007883FM-12+061099999V0202101N002119999999N9999999N1+00711+00551999999ADDMA1999999094251ME1314549REMSYN060AAXX  09154 06645 43/// /2104 10071 20055 39425 48454 5////;
0155066450999992011010916004+47433+007883FM-12+061099999V0209999C000019999999N9999999N1+00651+00571999999ADDMA1999999094301MD1310091+9999ME1314579OA149900411REMSYN094AAXX  09164 06645 23/// /0000 10065 20057 39430 48457 53009 333 55300 20004 60025 91108 91205;
0155066450999992011010917004+47433+007883FM-12+061099999V0202101N002619999999N9999999N1+00651+00481999999ADDMA1999999094351MD1310121+9999ME1314619OA149900411REMSYN094AAXX  09174 06645 23/// /2105 10065 20048 39435 48461 53012 333 55300 20000 60025 91108 91205;
0191066450999992011010918004+47433+007883FM-12+061099999V0202001N001519999999N9999999N1+00641+00471999999ADDAA112008991KA1120M+01071MA1999999094381MD1110131+9999ME1314639OA149900881REMSYN106AAXX  09184 06645 03/// /2003 10064 20047 39438 48463 51013 60092 333 10107 55300 20000 60015 91117 91210;
0155066450999992011010919004+47433+007883FM-12+061099999V0202701N002119999999N9999999N1+00641+00491999999ADDMA1999999094421MD1110121+9999ME1314679OA149900511REMSYN094AAXX  09194 06645 23/// /2704 10064 20049 39442 48467 51012 333 55300 20000 69985 91110 91206;
0155066450999992011010920004+47433+007883FM-12+061099999V0202301N002119999999N9999999N1+00601+00521999999ADDMA1999999094501MD1310151+9999ME1314729OA149900511REMSYN094AAXX  09204 06645 23/// /2304 10060 20052 39450 48472 53015 333 55300 20000 69955 91110 91206;
0155066450999992011010921004+47433+007883FM-12+061099999V0202401N001019999999N9999999N1+00571+00521999999ADDMA1999999094531MD1110151+9999ME1314749OA149900511REMSYN094AAXX  09214 06645 23/// /2402 10057 20052 39453 48474 51015 333 55300 20000 69985 91110 91206;
0155066450999992011010922004+47433+007883FM-12+061099999V0202501N001519999999N9999999N1+00531+00441999999ADDMA1999999094571MD1110151+9999ME1314769OA149900361REMSYN094AAXX  09224 06645 23/// /2503 10053 20044 39457 48476 51015 333 55300 20000 69985 91107 91204;
0155066450999992011010923004+47433+007883FM-12+061099999V0202901N002119999999N9999999N1+00511+00441999999ADDMA1999999094611MD1310111+9999ME1314799OA149900461REMSYN094AAXX  09234 06645 23/// /2904 10051 20044 39461 48479 53011 333 55300 20000 69935 91109 91204;
0172066450999992011011000004+47433+007883FM-12+061099999V0202801N002119999999N9999999N1+00421+00371999999ADDAA106004191MA1999999094651MD1310121+9999ME1314799OA149900511REMSYN100AAXX  10004 06645 03/// /2804 10042 20037 39465 48479 53012 60041 333 55300 20000 69995 91110 91206;
0155066450999992011011001004+47433+007883FM-12+061099999V0202301N002619999999N9999999N1+00311+00251999999ADDMA1999999094681MD1110111+9999ME1314789OA149900411REMSYN094AAXX  10014 06645 23/// /2305 10031 20025 39468 48478 51011 333 55300 20000 69965 91108 91206;
0118066450999992011011002004+47433+007883FM-12+061099999V0202601N002619999999N9999999N1+00271+00211999999ADDMA1999999094741ME1314829REMSYN082AAXX  10024 06645 23/// /2605 10027 20021 39474 48482 5//// 333 553// 20000 69915;
0096066450999992011011003004+47433+007883FM-12+061099999V0202401N003119999999N9999999N1+00211+00161999999ADDMA1999999094761ME1314819REMSYN060AAXX  10034 06645 43/// /2406 10021 20016 39476 48481 5////;
0118066450999992011011004004+47433+007883FM-12+061099999V0202501N002619999999N9999999N1+00161+00081999999ADDMA1999999094771ME1314819REMSYN082AAXX  10044 06645 23/// /2505 10016 20008 39477 48481 5//// 333 553// 20000 69915;
0149066450999992011011005004+47433+007883FM-12+061099999V0202401N002119999999N9999999N1+00111+00031999999ADDMA1999999094791MD1219999+9999ME1314819OA149900621REMSYN088AAXX  10054 06645 33/// /2404 10011 20003 39479 48481 52/// 333 55300 20000 91112 91207;
0168066450999992011011006004+47433+007883FM-12+061099999V0202601N000519999999N9999999N1+00091+00021999999ADDAA124013591GJ100009IA2999+00109KA1999N+00101MA1999999094811ME1314829REMSYN088AAXX  10064 06645 43/// /2601 10009 20002 39481 48482 5//// 333 20010 3/001 55000 70134;
0155066450999992011011007004+47433+007883FM-12+061099999V0209999C000019999999N9999999N1+00091+00031999999ADDMA1999999094841MD1210071+9999ME1314849OA149900311REMSYN094AAXX  10074 06645 23/// /0000 10009 20003 39484 48484 52007 333 55300 20000 69915 91106 91204;
0096066450999992011011008004+47433+007883FM-12+061099999V0202501N001019999999N9999999N1+00111+00061999999ADDMA1999999094861ME1314879REMSYN060AAXX  10084 06645 43/// /2502 10011 20006 39486 48487 5////;
0096066450999992011011009004+47433+007883FM-12+061099999V0203401N000519999999N9999999N1+00111+00061999999ADDMA1999999094871ME1314879REMSYN060AAXX  10094 06645 43/// /3401 10011 20006 39487 48487 5////;
0149066450999992011011010004+47433+007883FM-12+061099999V0200501N000519999999N9999999N1+00151+00081999999ADDMA1999999094871MD1010031+9999ME1314899OA149900211REMSYN088AAXX  10104 06645 33/// /0501 10015 20008 39487 48489 50003 333 55300 20119 91104 91203;
0149066450999992011011011004+47433+007883FM-12+061099999V0200401N002119999999N9999999N1+00191+00101999999ADDMA1999999094831MD1819999+9999ME1314879OA149900311REMSYN088AAXX  10114 06645 33/// /0404 10019 20010 39483 48487 58/// 333 55300 20166 91106 91204;
0154066450999992011011012004+47433+007883FM-12+061099999V0200501N002119999999N9999999N1+00181+00121999999ADDAA106000091MA1999999094791ME1314839REMSYN088AAXX  10124 06645 03/// /0504 10018 20012 39479 48483 5//// 69911 333 553// 20205 60005;EQDQ01  00002PRCP06
0096066450999992011011013004+47433+007883FM-12+061099999V0200601N001519999999N9999999N1+00211+00141999999ADDMA1999999094711ME1314779REMSYN060AAXX  10134 06645 43/// /0603 10021 20014 39471 48477 5////;
0096066450999992011011014004+47433+007883FM-12+061099999V0200701N002619999999N9999999N1+00231+00131999999ADDMA1999999094671ME1314759REMSYN060AAXX  10144 06645 43/// /0705 10023 20013 39467 48475 5////;
0096066450999992011011015004+47433+007883FM-12+061099999V0200701N003119999999N9999999N1+00211+00101999999ADDMA1999999094641ME1314719REMSYN060AAXX  10154 06645 43/// /0706 10021 20010 39464 48471 5////;
0096066450999992011011016004+47433+007883FM-12+061099999V0200701N002619999999N9999999N1+00211+00091999999ADDMA1999999094621ME1314709REMSYN060AAXX  10164 06645 43/// /0705 10021 20009 39462 48470 5////;
0096066450999992011011017004+47433+007883FM-12+061099999V0200801N002619999999N9999999N1+00191+00091999999ADDMA1999999094591ME1314679REMSYN060AAXX  10174 06645 43/// /0805 10019 20009 39459 48467 5////;
0119066450999992011011018004+47433+007883FM-12+061099999V0200801N002119999999N9999999N1+00191+00081999999ADDKA1999M+00231MA1999999094571ME1314659REMSYN070AAXX  10184 06645 43/// /0804 10019 20008 39457 48465 5//// 333 10023;
0096066450999992011011019004+47433+007883FM-12+061099999V0200801N002119999999N9999999N1+00181+00091999999ADDMA1999999094541ME1314629REMSYN060AAXX  10194 06645 43/// /0804 10018 20009 39454 48462 5////;
0096066450999992011011020004+47433+007883FM-12+061099999V0201101N001519999999N9999999N1+00181+00071999999ADDMA1999999094511ME1314609REMSYN060AAXX  10204 06645 43/// /1103 10018 20007 39451 48460 5////;
0096066450999992011011021004+47433+007883FM-12+061099999V0201301N001019999999N9999999N1+00171+00061999999ADDMA1999999094511ME1314599REMSYN060AAXX  10214 06645 43/// /1302 10017 20006 39451 48459 5////;
0096066450999992011011022004+47433+007883FM-12+061099999V0201101N001519999999N9999999N1+00181+00081999999ADDMA1999999094471ME1314569REMSYN060AAXX  10224 06645 43/// /1103 10018 20008 39447 48456 5////;
0096066450999992011011023004+47433+007883FM-12+061099999V0201701N001519999999N9999999N1+00201+00081999999ADDMA1999999094431ME1314549REMSYN060AAXX  10234 06645 43/// /1703 10020 20008 39443 48454 5////;
0096066450999992011011100004+47433+007883FM-12+061099999V0201601N001519999999N9999999N1+00201+00101999999ADDMA1999999094361ME1314489REMSYN060AAXX  11004 06645 43/// /1603 10020 20010 39436 48448 5////;
0096066450999992011011101004+47433+007883FM-12+061099999V0201501N001519999999N9999999N1+00201+00081999999ADDMA1999999094301ME1314439REMSYN060AAXX  11014 06645 43/// /1503 10020 20008 39430 48443 5////;
0096066450999992011011102004+47433+007883FM-12+061099999V0201801N002619999999N9999999N1+00251+00071999999ADDMA1999999094261ME1314419REMSYN060AAXX  11024 06645 43/// /1805 10025 20007 39426 48441 5////;
0096066450999992011011103004+47433+007883FM-12+061099999V0202001N001519999999N9999999N1+00211+00021999999ADDMA1999999094221ME1314369REMSYN060AAXX  11034 06645 43/// /2003 10021 20002 39422 48436 5////;
0096066450999992011011104004+47433+007883FM-12+061099999V0200701N001019999999N9999999N1-00031-00041999999ADDMA1999999094171ME1314259REMSYN060AAXX  11044 06645 43/// /0702 11003 21004 39417 48425 5////;
0096066450999992011011105004+47433+007883FM-12+061099999V0202101N003119999999N9999999N1+00251+00021999999ADDMA1999999094111ME1314289REMSYN060AAXX  11054 06645 43/// /2106 10025 20002 39411 48428 5////;
0106066450999992011011106004+47433+007883FM-12+061099999V0201901N003619999999N9999999N1+00301+00071999999ADDMA1999999094051ME1314259REMSYN070AAXX  11064 06645 43/// /1907 10030 20007 39405 48425 5//// 333 55000;
0149066450999992011011107004+47433+007883FM-12+061099999V0201501N002119999999N9999999N1+00251+00081999999ADDMA1999999094031MD1619999+9999ME1314229OA149901031REMSYN088AAXX  11074 06645 33/// /1504 10025 20008 39403 48422 56/// 333 55300 20000 91120 91209;
0112066450999992011011108004+47433+007883FM-12+061099999V0201801N005119999999N9999999N1+00331+00041999999ADDMA1999999093981ME1314209REMSYN076AAXX  11084 06645 33/// /1810 10033 20004 39398 48420 5//// 333 553// 20040;
0096066450999992011011109004+47433+007883FM-12+061099999V0201701N004119999999N9999999N1+00381+00071999999ADDMA1999999093931ME1314179REMSYN060AAXX  11094 06645 43/// /1708 10038 20007 39393 48417 5////;
0149066450999992011011110004+47433+007883FM-12+061099999V0201201N003119999999N9999999N1+00411+00141999999ADDMA1999999093901MD1810131+9999ME1314159OA149900821REMSYN088AAXX  11104 06645 33/// /1206 10041 20014 39390 48415 58013 333 55308 20846 91116 91208;
0149066450999992011011111004+47433+007883FM-12+061099999V0201901N002619999999N9999999N1+00511+00061999999ADDMA1999999093831MD1710151+9999ME1314129OA149900621REMSYN088AAXX  11114 06645 33/// /1905 10051 20006 39383 48412 57015 333 55308 20954 91112 91208;
0112066450999992011011112004+47433+007883FM-12+061099999V0202101N001519999999N9999999N1+00541-00021999999ADDMA1999999093761ME1314079REMSYN076AAXX  11124 06645 33/// /2103 10054 21002 39376 48407 5//// 333 553// 20562;
0149066450999992011011113004+47433+007883FM-12+061099999V0202201N002619999999N9999999N1+00551-00011999999ADDMA1999999093771MD1710131+9999ME1314089OA149900571REMSYN088AAXX  11134 06645 33/// /2205 10055 21001 39377 48408 57013 333 55300 20266 91111 91205;
0096066450999992011011114004+47433+007883FM-12+061099999V0202201N004119999999N9999999N1+00391+00151999999ADDMA1999999093801ME1314069REMSYN060AAXX  11144 06645 43/// /2208 10039 20015 39380 48406 5////;
0096066450999992011011115004+47433+007883FM-12+061099999V0202201N006719999999N9999999N1+00411+00121999999ADDMA1999999093851ME1314119REMSYN060AAXX  11154 06645 43/// /2213 10041 20012 39385 48411 5////;
0155066450999992011011116004+47433+007883FM-12+061099999V0202201N004119999999N9999999N1+00371+00131999999ADDMA1999999093941MD1210171+9999ME1314189OA149901241REMSYN094AAXX  11164 06645 23/// /2208 10037 20013 39394 48418 52017 333 553// 20007 69955 91124 91213;
0155066450999992011011117004+47433+007883FM-12+061099999V0202201N004119999999N9999999N1+00401+00151999999ADDMA1999999094001MD1310191+9999ME1314249OA149901131REMSYN094AAXX  11174 06645 23/// /2208 10040 20015 39400 48424 53019 333 55300 20000 69935 91122 91211;
0191066450999992011011118004+47433+007883FM-12+061099999V0202401N002619999999N9999999N1+00441+00141999999ADDAA112002091KA1120M+00581MA1999999094101MD1210251+9999ME1314339OA149901241REMSYN106AAXX  11184 06645 03/// /2405 10044 20014 39410 48433 52025 60022 333 10058 55300 20000 60005 91124 91213;
0155066450999992011011119004+47433+007883FM-12+061099999V0202301N002119999999N9999999N1+00391+00221999999ADDMA1999999094201MD1310261+9999ME1314409OA149900571REMSYN094AAXX  11194 06645 23/// /2304 10039 20022 39420 48440 53026 333 55300 20000 69915 91111 91208;
0149066450999992011011120004+47433+007883FM-12+061099999V0202401N003119999999N9999999N1+00461+00211999999ADDMA1999999094271MD1110271+9999ME1314489OA149900511REMSYN088AAXX  11204 06645 33/// /2406 10046 20021 39427 48448 51027 333 55300 20000 91110 91206;
0149066450999992011011121004+47433+007883FM-12+061099999V0202501N002119999999N9999999N1+00471+00231999999ADDMA1999999094371MD1210271+9999ME1314579OA149901131REMSYN088AAXX  11214 06645 33/// /2504 10047 20023 39437 48457 52027 333 55300 20000 91122 91211;
0149066450999992011011122004+47433+007883FM-12+061099999V0202401N002619999999N9999999N1+00501+00251999999ADDMA1999999094441MD1310241+9999ME1314649OA149900571REMSYN088AAXX  11224 06645 33/// /2405 10050 20025 39444 48464 53024 333 55300 20000 91111 91206;
0149066450999992011011123004+47433+007883FM-12+061099999V0202101N001519999999N9999999N1+00471+00201999999ADDMA1999999094481MD1110211+9999ME1314669OA149900411REMSYN088AAXX  11234 06645 33/// /2103 10047 20020 39448 48466 51021 333 55300 20000 91108 91205;
0172066450999992011011200004+47433+007883FM-12+061099999V0202201N002619999999N9999999N1+00451+00201999999ADDAA106000391MA1999999094521MD1110151+9999ME1314699OA149901241REMSYN100AAXX  12004 06645 03/// /2205 10045 20020 39452 48469 51015 69931 333 55300 20000 69925 91124 91213;
0155066450999992011011201004+47433+007883FM-12+061099999V0202201N002619999999N9999999N1+00421+00241999999ADDMA1999999094571MD1110131+9999ME1314729OA149900511REMSYN094AAXX  12014 06645 23/// /2205 10042 20024 39457 48472 51013 333 55300 20000 69935 91110 91206;
0118066450999992011011202004+47433+007883FM-12+061099999V0202601N002119999999N9999999N1+00461+00251999999ADDMA1999999094681ME1314839REMSYN082AAXX  12024 06645 23/// /2604 10046 20025 39468 48483 5//// 333 553// 20000 69915;
0096066450999992011011203004+47433+007883FM-12+061099999V0202401N003119999999N9999999N1+00431+00281999999ADDMA1999999094731ME1314869REMSYN060AAXX  12034 06645 43/// /2406 10043 20028 39473 48486 5////;
0096066450999992011011204004+47433+007883FM-12+061099999V0202701N004119999999N9999999N1+00361+00161999999ADDMA1999999094801ME1314909REMSYN060AAXX  12044 06645 43/// /2708 10036 20016 39480 48490 5////;
0118066450999992011011205004+47433+007883FM-12+061099999V0202901N003119999999N9999999N1+00341+00221999999ADDMA1999999094901ME1314979REMSYN082AAXX  12054 06645 23/// /2906 10034 20022 39490 48497 5//// 333 553// 20000 69925;
0168066450999992011011206004+47433+007883FM-12+061099999V0202901N004119999999N9999999N1+00341+00191999999ADDAA124003691GJ101449IA2999+00309KA1999N+00331MA1999999094951ME1315029REMSYN088AAXX  12064 06645 43/// /2908 10034 20019 39495 48502 5//// 333 20033 3/003 55024 70036;
0149066450999992011011207004+47433+007883FM-12+061099999V0202501N002119999999N9999999N1+00311+00201999999ADDMA1999999095011MD1110211+9999ME1315069OA149900821REMSYN088AAXX  12074 06645 33/// /2504 10031 20020 39501 48506 51021 333 55300 20000 91116 91208;
0096066450999992011011208004+47433+007883FM-12+061099999V0202501N001519999999N9999999N1+00311+00151999999ADDMA1999999095011ME1315069REMSYN060AAXX  12084 06645 43/// /2503 10031 20015 39501 48506 5////;
0096066450999992011011209004+47433+007883FM-12+061099999V0202901N001019999999N9999999N1+00351+00161999999ADDMA1999999095031ME1315099REMSYN060AAXX  12094 06645 43/// /2902 10035 20016 39503 48509 5////;
0149066450999992011011210004+47433+007883FM-12+061099999V0202501N001019999999N9999999N1+00361+00151999999ADDMA1999999095031MD1219999+9999ME1315099OA149900361REMSYN088AAXX  12104 06645 33/// /2502 10036 20015 39503 48509 52/// 333 55300 20313 91107 91204;
0149066450999992011011211004+47433+007883FM-12+061099999V0202201N001019999999N9999999N1+00411+00181999999ADDMA1999999095001MD1810011+9999ME1315089OA149900361REMSYN088AAXX  12114 06645 33/// /2202 10041 20018 39500 48508 58001 333 553// 20428 91107 91204;
0096066450999992011011212004+47433+007883FM-12+061099999V0203501N001019999999N9999999N1+00421+00161999999ADDMA1999999094971ME1315069REMSYN060AAXX  12124 06645 43/// /3502 10042 20016 39497 48506 5////;
0096066450999992011011213004+47433+007883FM-12+061099999V0203101N001519999999N9999999N1+00451+00191999999ADDMA1999999094971ME1315079REMSYN060AAXX  12134 06645 43/// /3103 10045 20019 39497 48507 5////;
0096066450999992011011214004+47433+007883FM-12+061099999V0201901N001019999999N9999999N1+00431+00181999999ADDMA1999999094961ME1315059REMSYN060AAXX  12144 06645 43/// /1902 10043 20018 39496 48505 5////;
0096066450999992011011215004+47433+007883FM-12+061099999V0201901N003119999999N9999999N1+00421+00201999999ADDMA1999999094931ME1315039REMSYN060AAXX  12154 06645 43/// /1906 10042 20020 39493 48503 5////;
0155066450999992011011216004+47433+007883FM-12+061099999V0202201N003119999999N9999999N1+00521+00011999999ADDMA1999999094911MD1710061+9999ME1315049OA149900571REMSYN094AAXX  12164 06645 23/// /2206 10052 20001 39491 48504 57006 333 55300 20018 69915 91111 91207;
0155066450999992011011217004+47433+007883FM-12+061099999V0202201N004619999999N9999999N1+00521+00181999999ADDMA1999999094911MD1710051+9999ME1315049OA149900721REMSYN094AAXX  12174 06645 23/// /2209 10052 20018 39491 48504 57005 333 55300 20000 69935 91114 91209;
0191066450999992011011218004+47433+007883FM-12+061099999V0202201N005719999999N9999999N1+00591+00231999999ADDAA112002091KA1120M+00551MA1999999094901MD1710031+9999ME1315069OA149900931REMSYN106AAXX  12184 06645 03/// /2211 10059 20023 39490 48506 57003 60022 333 10055 55300 20000 69935 91118 91211;
0155066450999992011011219004+47433+007883FM-12+061099999V0202301N005719999999N9999999N1+00651+00291999999ADDMA1999999094881MD1810031+9999ME1315069OA149901241REMSYN094AAXX  12194 06645 23/// /2311 10065 20029 39488 48506 58003 333 55300 20000 69915 91124 91214;
0155066450999992011011220004+47433+007883FM-12+061099999V0202201N004119999999N9999999N1+00651+00311999999ADDMA1999999094881MD1710031+9999ME1315069OA149901241REMSYN094AAXX  12204 06645 23/// /2208 10065 20031 39488 48506 57003 333 55300 20000 69985 91124 91214;
0155066450999992011011221004+47433+007883FM-12+061099999V0202401N004619999999N9999999N1+00691+00431999999ADDMA1999999094891MD1510011+9999ME1315089OA149901241REMSYN094AAXX  12214 06645 23/// /2409 10069 20043 39489 48508 55001 333 55300 20000 69915 91124 91214;
0155066450999992011011222004+47433+007883FM-12+061099999V0202301N002119999999N9999999N1+00671+00521999999ADDMA1999999094891MD1210011+9999ME1315089OA149900881REMSYN094AAXX  12224 06645 23/// /2304 10067 20052 39489 48508 52001 333 55300 20000 60015 91117 91210;
0155066450999992011011223004+47433+007883FM-12+061099999V0202401N001519999999N9999999N1+00671+00511999999ADDMA1999999094901MD1210021+9999ME1315089OA149900571REMSYN094AAXX  12234 06645 23/// /2403 10067 20051 39490 48508 52002 333 55300 20000 60015 91111 91207;
0172066450999992011011300004+47433+007883FM-12+061099999V0202101N002119999999N9999999N1+00681+00561999999ADDAA106007191MA1999999094861MD1710031+9999ME1315059OA149901241REMSYN100AAXX  13004 06645 03/// /2104 10068 20056 39486 48505 57003 60071 333 55300 20000 60035 91124 91214;
0155066450999992011011301004+47433+007883FM-12+061099999V0202601N001519999999N9999999N1+00721+00581999999ADDMA1999999094801MD1710091+9999ME1315029OA149900621REMSYN094AAXX  13014 06645 23/// /2603 10072 20058 39480 48502 57009 333 55300 20000 60025 91112 91206;
0155066450999992011011302004+47433+007883FM-12+061099999V0202101N003119999999N9999999N1+00721+00571999999ADDMA1999999094791MD1519999+9999ME1315019OA149900621REMSYN094AAXX  13024 06645 23/// /2106 10072 20057 39479 48501 55/// 333 55300 20000 69995 91112 91206;
0096066450999992011011303004+47433+007883FM-12+061099999V0202301N002119999999N9999999N1+00741+00611999999ADDMA1999999094801ME1315029REMSYN060AAXX  13034 06645 43/// /2304 10074 20061 39480 48502 5////;
0155066450999992011011304004+47433+007883FM-12+061099999V0202401N002619999999N9999999N1+00801+00641999999ADDMA1999999094781MD1719999+9999ME1315039OA149900621REMSYN094AAXX  13044 06645 23/// /2405 10080 20064 39478 48503 57/// 333 55300 20000 69985 91112 91207;
0118066450999992011011305004+47433+007883FM-12+061099999V0202101N000519999999N9999999N1+00771+00651999999ADDMA1999999094811ME1315049REMSYN082AAXX  13054 06645 23/// /2101 10077 20065 39481 48504 5//// 333 553// 20000 60015;
0239066450999992011011306004+47433+007883FM-12+061099999V0202001N001019999999N9999999N1+00801+00641999999ADDAA112013091AL13601491GJ100009IA2999+00409KA1999N+00571MA1999999094821MD1210021+9999ME1315069OA149901241REMSYN124AAXX  13064 06645 03/// /2002 10080 20064 39482 48506 52002 60132 333 20057 3/004 55000 55300 20000 69925 70146 91124 91214;
0096066450999992011011307004+47433+007883FM-12+061099999V0202101N004119999999N9999999N1+00831+00611999999ADDMA1999999094801ME1315059REMSYN060AAXX  13074 06645 43/// /2108 10083 20061 39480 48505 5////;
0096066450999992011011308004+47433+007883FM-12+061099999V0202001N002119999999N9999999N1+00771+00691999999ADDMA1999999094821ME1315059REMSYN060AAXX  13084 06645 43/// /2004 10077 20069 39482 48505 5////;
0096066450999992011011309004+47433+007883FM-12+061099999V0202301N002619999999N9999999N1+00841+00701999999ADDMA1999999094851ME1315109REMSYN060AAXX  13094 06645 43/// /2305 10084 20070 39485 48510 5////;
0096066450999992011011310004+47433+007883FM-12+061099999V0202101N001019999999N9999999N1+00811+00711999999ADDMA1999999094911ME1315149REMSYN060AAXX  13104 06645 43/// /2102 10081 20071 39491 48514 5////;
0096066450999992011011311004+47433+007883FM-12+061099999V0202201N002619999999N9999999N1+00951+00681999999ADDMA1999999094891ME1315179REMSYN060AAXX  13114 06645 43/// /2205 10095 20068 39489 48517 5////;
0096066450999992011011312004+47433+007883FM-12+061099999V0202301N003619999999N9999999N1+01031+00651999999ADDMA1999999094871ME1315189REMSYN060AAXX  13124 06645 43/// /2307 10103 20065 39487 48518 5////;
0096066450999992011011313004+47433+007883FM-12+061099999V0202301N003119999999N9999999N1+01041+00651999999ADDMA1999999094821ME1315149REMSYN060AAXX  13134 06645 43/// /2306 10104 20065 39482 48514 5////;
0096066450999992011011314004+47433+007883FM-12+061099999V0202001N001519999999N9999999N1+01051+00671999999ADDMA1999999094851ME1315179REMSYN060AAXX  13144 06645 43/// /2003 10105 20067 39485 48517 5////;
0096066450999992011011315004+47433+007883FM-12+061099999V0202201N003119999999N9999999N1+01001+00661999999ADDMA1999999094841ME1315149REMSYN060AAXX  13154 06645 43/// /2206 10100 20066 39484 48514 5////;
0096066450999992011011316004+47433+007883FM-12+061099999V0202201N003619999999N9999999N1+01041+00671999999ADDMA1999999094861ME1315179REMSYN060AAXX  13164 06645 43/// /2207 10104 20067 39486 48517 5////;
0155066450999992011011317004+47433+007883FM-12+061099999V0201901N001519999999N9999999N1+00921+00781999999ADDMA1999999094891MD1210041+9999ME1315169OA149900571REMSYN094AAXX  13174 06645 23/// /1903 10092 20078 39489 48516 52004 333 553// 20000 60045 91111 91207;
0191066450999992011011318004+47433+007883FM-12+061099999V0202001N001519999999N9999999N1+00951+00811999999ADDAA112009991KA1120M+01061MA1999999094901MD1110071+9999ME1315189OA149900671REMSYN106AAXX  13184 06645 03/// /2003 10095 20081 39490 48518 51007 60102 333 10106 55300 20000 60035 91113 91209;
0155066450999992011011319004+47433+007883FM-12+061099999V0203001N001519999999N9999999N1+00981+00801999999ADDMA1999999094921MD1210061+9999ME1315219OA149900311REMSYN094AAXX  13194 06645 23/// /3003 10098 20080 39492 48521 52006 333 55300 20000 60015 91106 91204;
0155066450999992011011320004+47433+007883FM-12+061099999V0202501N001519999999N9999999N1+00931+00801999999ADDMA1999999094911MD1010021+9999ME1315189OA149900411REMSYN094AAXX  13204 06645 23/// /2503 10093 20080 39491 48518 50002 333 55300 20000 69975 91108 91203;
0155066450999992011011321004+47433+007883FM-12+061099999V0203001N001519999999N9999999N1+00931+00811999999ADDMA1999999094921MD1010021+9999ME1315199OA149900571REMSYN094AAXX  13214 06645 23/// /3003 10093 20081 39492 48519 50002 333 55300 20000 69925 91111 91207;
0155066450999992011011322004+47433+007883FM-12+061099999V0203101N002119999999N9999999N1+00941+00771999999ADDMA1999999094911MD1710011+9999ME1315189OA149900461REMSYN094AAXX  13224 06645 23/// /3104 10094 20077 39491 48518 57001 333 55300 20000 69925 91109 91205;
0149066450999992011011323004+47433+007883FM-12+061099999V0202601N001019999999N9999999N1+00891+00791999999ADDMA1999999094931MD1210021+9999ME1315189OA149900461REMSYN088AAXX  13234 06645 33/// /2602 10089 20079 39493 48518 52002 333 55300 20000 91109 91205;
0172066450999992011011400004+47433+007883FM-12+061099999V0203001N002119999999N9999999N1+00931+00691999999ADDAA106003091MA1999999094921MD1010001+9999ME1315199OA149900621REMSYN100AAXX  14004 06645 03/// /3004 10093 20069 39492 48519 50000 60031 333 55300 20000 60005 91112 91207;
0149066450999992011011401004+47433+007883FM-12+061099999V0203101N001519999999N9999999N1+00931+00641999999ADDMA1999999094931MD1210021+9999ME1315209OA149900461REMSYN088AAXX  14014 06645 33/// /3103 10093 20064 39493 48520 52002 333 55300 20000 91109 91205;
0112066450999992011011402004+47433+007883FM-12+061099999V0203001N002619999999N9999999N1+00941+00531999999ADDMA1999999094981ME1315249REMSYN076AAXX  14024 06645 33/// /3005 10094 20053 39498 48524 5//// 333 553// 20000;
0149066450999992011011403004+47433+007883FM-12+061099999V0203001N001519999999N9999999N1+00871+00581999999ADDMA1999999094981MD1210061+9999ME1315229OA149900571REMSYN088AAXX  14034 06645 33/// /3003 10087 20058 39498 48522 52006 333 55300 20000 91111 91205;
0149066450999992011011404004+47433+007883FM-12+061099999V0202501N001519999999N9999999N1+00831+00561999999ADDMA1999999094961MD1010031+9999ME1315199OA149900361REMSYN088AAXX  14044 06645 33/// /2503 10083 20056 39496 48519 50003 333 55300 20000 91107 91203;
0149066450999992011011405004+47433+007883FM-12+061099999V0202401N002619999999N9999999N1+00841+00501999999ADDMA1999999094951MD1710031+9999ME1315189OA149900511REMSYN088AAXX  14054 06645 33/// /2405 10084 20050 39495 48518 57003 333 55300 20000 91110 91207;
0239066450999992011011406004+47433+007883FM-12+061099999V0202301N003119999999N9999999N1+00871+00441999999ADDAA112003091AL14201291GJ100009IA2999+00609KA1999N+00801MA1999999094971MD1510011+9999ME1315219OA149900571REMSYN124AAXX  14064 06645 03/// /2306 10087 20044 39497 48521 55001 60032 333 20080 3/006 55000 55300 20000 60005 70127 91111 91207;
0149066450999992011011407004+47433+007883FM-12+061099999V0202301N002119999999N9999999N1+00841+00471999999ADDMA1999999094971MD1210011+9999ME1315209OA149900511REMSYN088AAXX  14074 06645 33/// /2304 10084 20047 39497 48520 52001 333 55300 20000 91110 91207;
0096066450999992011011408004+47433+007883FM-12+061099999V0202201N002619999999N9999999N1+00841+00481999999ADDMA1999999094981ME1315219REMSYN060AAXX  14084 06645 43/// /2205 10084 20048 39498 48521 5////;
0096066450999992011011409004+47433+007883FM-12+061099999V0203001N001019999999N9999999N1+00851+00531999999ADDMA1999999094951ME1315199REMSYN060AAXX  14094 06645 43/// /3002 10085 20053 39495 48519 5////;
0096066450999992011011410004+47433+007883FM-12+061099999V0203301N001519999999N9999999N1+00841+00561999999ADDMA1999999094971ME1315209REMSYN060AAXX  14104 06645 43/// /3303 10084 20056 39497 48520 5////;
0149066450999992011011411004+47433+007883FM-12+061099999V0202601N002119999999N9999999N1+00841+00591999999ADDMA1999999094961MD1710021+9999ME1315199OA149900461REMSYN088AAXX  14114 06645 33/// /2604 10084 20059 39496 48519 57002 333 55300 20292 91109 91205;
0149066450999992011011412004+47433+007883FM-12+061099999V0202601N002119999999N9999999N1+00891+00541999999ADDMA1999999094891MD1710061+9999ME1315159OA149900571REMSYN088AAXX  14124 06645 33/// /2604 10089 20054 39489 48515 57006 333 55300 20443 91111 91207;
0149066450999992011011413004+47433+007883FM-12+061099999V0202701N002119999999N9999999N1+00901+00481999999ADDMA1999999094851MD1810121+9999ME1315129OA149900461REMSYN088AAXX  14134 06645 33/// /2704 10090 20048 39485 48512 58012 333 55300 20371 91109 91205;
0112066450999992011011414004+47433+007883FM-12+061099999V0202701N001519999999N9999999N1+00891+00461999999ADDMA1999999094831ME1315109REMSYN076AAXX  14144 06645 33/// /2703 10089 20046 39483 48510 5//// 333 553// 20259;
0149066450999992011011415004+47433+007883FM-12+061099999V0202301N001519999999N9999999N1+00881+00501999999ADDMA1999999094811MD1610081+9999ME1315089OA149900461REMSYN088AAXX  14154 06645 33/// /2303 10088 20050 39481 48508 56008 333 55300 20187 91109 91205;
0149066450999992011011416004+47433+007883FM-12+061099999V0209999C000019999999N9999999N1+00841+00491999999ADDMA1999999094801MD1610051+9999ME1315069OA149900261REMSYN088AAXX  14164 06645 33/// /0000 10084 20049 39480 48506 56005 333 55300 20068 91105 91203;
0149066450999992011011417004+47433+007883FM-12+061099999V0201701N001519999999N9999999N1+00741+00451999999ADDMA1999999094761MD1810071+9999ME1314999OA149900211REMSYN088AAXX  14174 06645 33/// /1703 10074 20045 39476 48499 58007 333 55300 20000 91104 91203;
0168066450999992011011418004+47433+007883FM-12+061099999V0202001N001519999999N9999999N1+00711+00381999999ADDKA1120M+00901MA1999999094741MD1810071+9999ME1314969OA149900511REMSYN094AAXX  14184 06645 33/// /2003 10071 20038 39474 48496 58007 333 10090 55300 20000 91110 91207;
0149066450999992011011419004+47433+007883FM-12+061099999V0202201N002119999999N9999999N1+00591+00401999999ADDMA1999999094741MD1710061+9999ME1314929OA149900461REMSYN088AAXX  14194 06645 33/// /2204 10059 20040 39474 48492 57006 333 55300 20000 91109 91204;
0149066450999992011011420004+47433+007883FM-12+061099999V0202501N001519999999N9999999N1+00611+00391999999ADDMA1999999094761MD1510001+9999ME1314959OA149900261REMSYN088AAXX  14204 06645 33/// /2503 10061 20039 39476 48495 55000 333 55300 20000 91105 91204;
0149066450999992011011421004+47433+007883FM-12+061099999V0202401N002619999999N9999999N1+00661+00371999999ADDMA1999999094811MD1210071+9999ME1315009OA149900511REMSYN088AAXX  14214 06645 33/// /2405 10066 20037 39481 48500 52007 333 55300 20000 91110 91205;
0149066450999992011011422004+47433+007883FM-12+061099999V0202401N003619999999N9999999N1+00761+00441999999ADDMA1999999094891MD1210151+9999ME1315119OA149901131REMSYN088AAXX  14224 06645 33/// /2407 10076 20044 39489 48511 52015 333 55300 20000 91122 91210;
0149066450999992011011423004+47433+007883FM-12+061099999V0202401N003119999999N9999999N1+00811+00371999999ADDMA1999999094951MD1210191+9999ME1315179OA149901131REMSYN088AAXX  14234 06645 33/// /2406 10081 20037 39495 48517 52019 333 55300 20000 91122 91210;
0149066450999992011011500004+47433+007883FM-12+061099999V0202701N004619999999N9999999N1+00841+00311999999ADDMA1999999095001MD1210191+9999ME1315239OA149901131REMSYN088AAXX  15004 06645 33/// /2709 10084 20031 39500 48523 52019 333 55300 20000 91122 91211;
0155066450999992011011501004+47433+007883FM-12+061099999V0202501N005119999999N9999999N1+00691+00441999999ADDMA1999999095071MD1210181+9999ME1315249OA149901241REMSYN094AAXX  15014 06645 23/// /2510 10069 20044 39507 48524 52018 333 55300 20000 60025 91124 91213;
0155066450999992011011502004+47433+007883FM-12+061099999V0202701N003119999999N9999999N1+00691+00501999999ADDMA1999999095151MD1219999+9999ME1315309OA149901241REMSYN094AAXX  15024 06645 23/// /2706 10069 20050 39515 48530 52/// 333 55300 20000 69915 91124 91213;
0112066450999992011011503004+47433+007883FM-12+061099999V0202701N005119999999N9999999N1+00661+00421999999ADDMA1999999095211ME1315349REMSYN076AAXX  15034 06645 33/// /2710 10066 20042 39521 48534 5//// 333 553// 20000;
0149066450999992011011504004+47433+007883FM-12+061099999V0202701N002119999999N9999999N1+00661+00381999999ADDMA1999999095321MD1310251+9999ME1315449OA149901081REMSYN088AAXX  15044 06645 33/// /2704 10066 20038 39532 48544 53025 333 55300 20000 91121 91210;
0149066450999992011011505004+47433+007883FM-12+061099999V0202301N002619999999N9999999N1+00641+00351999999ADDMA1999999095391MD1210241+9999ME1315499OA149900771REMSYN088AAXX  15054 06645 33/// /2305 10064 20035 39539 48549 52024 333 55300 20000 91115 91208;
0239066450999992011011506004+47433+007883FM-12+061099999V0202501N002619999999N9999999N1+00591+00211999999ADDAA112002091AL14200191GJ100009IA2999+00309KA1999N+00591MA1999999095441MD1110231+9999ME1315519OA149901241REMSYN124AAXX  15064 06645 03/// /2505 10059 20021 39544 48551 51023 60022 333 20059 3/003 55000 55300 20000 60005 70017 91124 91213;
0149066450999992011011507004+47433+007883FM-12+061099999V0202101N001519999999N9999999N1+00571+00181999999ADDMA1999999095481MD1210161+9999ME1315549OA149900721REMSYN088AAXX  15074 06645 33/// /2103 10057 20018 39548 48554 52016 333 55300 20000 91114 91208;
0149066450999992011011508004+47433+007883FM-12+061099999V0202301N001019999999N9999999N1+00601+00111999999ADDMA1999999095521MD1219999+9999ME1315589OA149900511REMSYN088AAXX  15084 06645 33/// /2302 10060 20011 39552 48558 52/// 333 55300 20076 91110 91205;
0149066450999992011011509004+47433+007883FM-12+061099999V0202701N002119999999N9999999N1+00661+00211999999ADDMA1999999095571MD1210131+9999ME1315659OA149900771REMSYN088AAXX  15094 06645 33/// /2704 10066 20021 39557 48565 52013 333 55307 20446 91115 91208;
0149066450999992011011510004+47433+007883FM-12+061099999V0202901N002619999999N9999999N1+00781+00251999999ADDMA1999999095571MD1210091+9999ME1315699OA149900411REMSYN088AAXX  15104 06645 33/// /2905 10078 20025 39557 48569 52009 333 55308 20900 91108 91205;
0149066450999992011011511004+47433+007883FM-12+061099999V0202701N002619999999N9999999N1+00811+00241999999ADDMA1999999095531MD1010011+9999ME1315679OA149900571REMSYN088AAXX  15114 06645 33/// /2705 10081 20024 39553 48567 50001 333 55308 20965 91111 91206;
0149066450999992011011512004+47433+007883FM-12+061099999V0202801N002619999999N9999999N1+00861+00241999999ADDMA1999999095491MD1610081+9999ME1315659OA149901241REMSYN088AAXX  15124 06645 33/// /2805 10086 20024 39549 48565 56008 333 55308 2//// 91124 91213;
0112066450999992011011513004+47433+007883FM-12+061099999V0203101N002119999999N9999999N1+00841+00231999999ADDMA1999999095461ME1315629REMSYN076AAXX  15134 06645 33/// /3104 10084 20023 39546 48562 5//// 333 553// 20781;
0096066450999992011011514004+47433+007883FM-12+061099999V0203501N001519999999N9999999N1+00831+00261999999ADDMA1999999095491ME1315649REMSYN060AAXX  15144 06645 43/// /3503 10083 20026 39549 48564 5////;
0096066450999992011011515004+47433+007883FM-12+061099999V0200301N000519999999N9999999N1+00831+00201999999ADDMA1999999095521ME1315669REMSYN060AAXX  15154 06645 43/// /0301 10083 20020 39552 48566 5////;
0096066450999992011011516004+47433+007883FM-12+061099999V0201101N000519999999N9999999N1+00771+00241999999ADDMA1999999095541ME1315669REMSYN060AAXX  15164 06645 43/// /1101 10077 20024 39554 48566 5////;
0112066450999992011011517004+47433+007883FM-12+061099999V0201501N001019999999N9999999N1+00741+00241999999ADDMA1999999095521ME1315639REMSYN076AAXX  15174 06645 33/// /1502 10074 20024 39552 48563 5//// 333 553// 20004;
0119066450999992011011518004+47433+007883FM-12+061099999V0201401N001019999999N9999999N1+00691+00251999999ADDKA1999M+00871MA1999999095551ME1315649REMSYN070AAXX  15184 06645 43/// /1402 10069 20025 39555 48564 5//// 333 10087;
0096066450999992011011519004+47433+007883FM-12+061099999V0209999C000019999999N9999999N1+00741+00241999999ADDMA1999999095541ME1315659REMSYN060AAXX  15194 06645 43/// /0000 10074 20024 39554 48565 5////;
0096066450999992011011520004+47433+007883FM-12+061099999V0200501N001019999999N9999999N1+00621+00241999999ADDMA1999999095561ME1315629REMSYN060AAXX  15204 06645 43/// /0502 10062 20024 39556 48562 5////;
0149066450999992011011521004+47433+007883FM-12+061099999V0201501N001019999999N9999999N1+00661+00201999999ADDMA1999999095531MD1710021+9999ME1315619OA149900361REMSYN088AAXX  15214 06645 33/// /1502 10066 20020 39553 48561 57002 333 55300 20000 91107 91205;
0149066450999992011011522004+47433+007883FM-12+061099999V0202101N001019999999N9999999N1+00521+00231999999ADDMA1999999095541MD1410001+9999ME1315579OA149900261REMSYN088AAXX  15224 06645 33/// /2102 10052 20023 39554 48557 52000 333 55300 20000 91105 91203;
0149066450999992011011523004+47433+007883FM-12+061099999V0200901N001519999999N9999999N1+00491+00191999999ADDMA1999999095481MD1810081+9999ME1315519OA149900361REMSYN088AAXX  15234 06645 33/// /0903 10049 20019 39548 48551 58008 333 55300 20000 91107 91204;
0149066450999992011011600004+47433+007883FM-12+061099999V0201401N001019999999N9999999N1+00561+00171999999ADDMA1999999095451MD1710081+9999ME1315519OA149900571REMSYN088AAXX  16004 06645 33/// /1402 10056 20017 39545 48551 57008 333 55300 20000 91111 91206;
0149066450999992011011601004+47433+007883FM-12+061099999V0203501N000519999999N9999999N1+00491+00201999999ADDMA1999999095441MD1610101+9999ME1315489OA149900361REMSYN088AAXX  16014 06645 33/// /3501 10049 20020 39544 48548 56010 333 55300 20000 91107 91204;
0149066450999992011011602004+47433+007883FM-12+061099999V0200501N001019999999N9999999N1+00301+00181999999ADDMA1999999095461MD1519999+9999ME1315439OA149900211REMSYN088AAXX  16024 06645 33/// /0502 10030 20018 39546 48543 55/// 333 55300 20000 91104 91202;
0096066450999992011011603004+47433+007883FM-12+061099999V0202801N000519999999N9999999N1+00421+00191999999ADDMA1999999095471ME1315489REMSYN060AAXX  16034 06645 43/// /2801 10042 20019 39547 48548 5////;
0149066450999992011011604004+47433+007883FM-12+061099999V0202401N001019999999N9999999N1+00341+00181999999ADDMA1999999095481MD1210041+9999ME1315469OA149900151REMSYN088AAXX  16044 06645 33/// /2402 10034 20018 39548 48546 52004 333 55300 20000 91103 91202;
0149066450999992011011605004+47433+007883FM-12+061099999V0202501N001019999999N9999999N1+00421+00091999999ADDMA1999999095511MD1210051+9999ME1315519OA149900211REMSYN088AAXX  16054 06645 33/// /2502 10042 20009 39551 48551 52005 333 55300 20000 91104 91203;
0216066450999992011011606004+47433+007883FM-12+061099999V0202501N001519999999N9999999N1+00461+00101999999ADDAL19900091GJ103249IA2999-00109KA1999N+00251MA1999999095511MD1210041+9999ME1315539OA149900361REMSYN112AAXX  16064 06645 33/// /2503 10046 20010 39551 48553 52004 333 20025 3/101 55054 55300 20000 70000 91107 91205;
0149066450999992011011607004+47433+007883FM-12+061099999V0201401N001519999999N9999999N1+00421+00141999999ADDMA1999999095491MD1010011+9999ME1315499OA149900261REMSYN088AAXX  16074 06645 33/// /1403 10042 20014 39549 48549 50001 333 55300 20000 91105 91204;
0149066450999992011011608004+47433+007883FM-12+061099999V0201201N003119999999N9999999N1+00461+00021999999ADDMA1999999095501MD1719999+9999ME1315529OA149900511REMSYN088AAXX  16084 06645 33/// /1206 10046 20002 39550 48552 57/// 333 55300 20083 91110 91206;
0149066450999992011011609004+47433+007883FM-12+061099999V0201101N002119999999N9999999N1+00561+00141999999ADDMA1999999095501MD1710011+9999ME1315559OA149900511REMSYN088AAXX  16094 06645 33/// /1104 10056 20014 39550 48555 57001 333 55308 20486 91110 91206;
0149066450999992011011610004+47433+007883FM-12+061099999V0201301N002119999999N9999999N1+00701+00151999999ADDMA1999999095501MD1410001+9999ME1315609OA149900621REMSYN088AAXX  16104 06645 33/// /1304 10070 20015 39550 48560 54001 333 55308 20918 91112 91207;
0149066450999992011011611004+47433+007883FM-12+061099999V0201201N002119999999N9999999N1+00801+00151999999ADDMA1999999095471MD1810031+9999ME1315619OA149900621REMSYN088AAXX  16114 06645 33/// /1204 10080 20015 39547 48561 58003 333 55308 2//// 91112 91207;
0149066450999992011011612004+47433+007883FM-12+061099999V0201201N001019999999N9999999N1+00951+00101999999ADDMA1999999095421MD1810081+9999ME1315629OA149900621REMSYN088AAXX  16124 06645 33/// /1202 10095 20010 39542 48562 58008 333 55308 2//// 91112 91207;
0149066450999992011011613004+47433+007883FM-12+061099999V0200901N001019999999N9999999N1+00951+00111999999ADDMA1999999095401MD1710101+9999ME1315609OA149900361REMSYN088AAXX  16134 06645 33/// /0902 10095 20011 39540 48560 57010 333 55308 2//// 91107 91204;
0149066450999992011011614004+47433+007883FM-12+061099999V0200401N001019999999N9999999N1+00901+00181999999ADDMA1999999095401MD1719999+9999ME1315599OA149900311REMSYN088AAXX  16144 06645 33/// /0402 10090 20018 39540 48559 57/// 333 553// 20677 91106 91203;
0149066450999992011011615004+47433+007883FM-12+061099999V0200601N001019999999N9999999N1+00781+00261999999ADDMA1999999095391MD1710031+9999ME1315549OA149900621REMSYN088AAXX  16154 06645 33/// /0602 10078 20026 39539 48554 57003 333 55308 20641 91112 91207;
0149066450999992011011616004+47433+007883FM-12+061099999V0200901N001019999999N9999999N1+00641+00221999999ADDMA1999999095391MD1410001+9999ME1315499OA149900211REMSYN088AAXX  16164 06645 33/// /0902 10064 20022 39539 48549 54001 333 55302 20137 91104 91203;
0149066450999992011011617004+47433+007883FM-12+061099999V0200801N001519999999N9999999N1+00531+00111999999ADDMA1999999095391MD1710011+9999ME1315459OA149900311REMSYN088AAXX  16174 06645 33/// /0803 10053 20011 39539 48545 57001 333 55300 20004 91106 91204;
0168066450999992011011618004+47433+007883FM-12+061099999V0200801N001519999999N9999999N1+00621+00021999999ADDKA1120M+00961MA1999999095371MD1710021+9999ME1315469OA149900621REMSYN094AAXX  16184 06645 33/// /0803 10062 20002 39537 48546 57002 333 10096 55300 20000 91112 91207;
0149066450999992011011619004+47433+007883FM-12+061099999V0200801N000519999999N9999999N1+00581-00041999999ADDMA1999999095401MD1310011+9999ME1315489OA149900411REMSYN088AAXX  16194 06645 33/// /0801 10058 21004 39540 48548 53001 333 55300 20000 91108 91204;
0149066450999992011011620004+47433+007883FM-12+061099999V0202401N000519999999N9999999N1+00611-00061999999ADDMA1999999095421MD1210031+9999ME1315509OA149900411REMSYN088AAXX  16204 06645 33/// /2401 10061 21006 39542 48550 52003 333 55300 20000 91108 91204;
0149066450999992011011621004+47433+007883FM-12+061099999V0200701N001519999999N9999999N1+00401+00091999999ADDMA1999999095461MD1210091+9999ME1315469OA149900411REMSYN088AAXX  16214 06645 33/// /0703 10040 20009 39546 48546 52009 333 55300 20000 91108 91204;
0149066450999992011011622004+47433+007883FM-12+061099999V0201001N001019999999N9999999N1+00491-00101999999ADDMA1999999095431MD1010031+9999ME1315479OA149900261REMSYN088AAXX  16224 06645 33/// /1002 10049 21010 39543 48547 50003 333 55300 20000 91105 91204;
0149066450999992011011623004+47433+007883FM-12+061099999V0200801N001519999999N9999999N1+00491-00071999999ADDMA1999999095441MD1210021+9999ME1315489OA149900311REMSYN088AAXX  16234 06645 33/// /0803 10049 21007 39544 48548 52002 333 55300 20000 91106 91204;
0149066450999992011011700004+47433+007883FM-12+061099999V0201101N001019999999N9999999N1+00511-00211999999ADDMA1999999095441MD1710021+9999ME1315489OA149900411REMSYN088AAXX  17004 06645 33/// /1102 10051 21021 39544 48548 57002 333 55300 20000 91108 91204;
0149066450999992011011701004+47433+007883FM-12+061099999V0201201N001519999999N9999999N1+00621-00321999999ADDMA1999999095421MD1710011+9999ME1315519OA149900261REMSYN088AAXX  17014 06645 33/// /1203 10062 21032 39542 48551 57001 333 55300 20000 91105 91203;
0149066450999992011011702004+47433+007883FM-12+061099999V0200901N001019999999N9999999N1+00591-00311999999ADDMA1999999095411MD1719999+9999ME1315499OA149900261REMSYN088AAXX  17024 06645 33/// /0902 10059 21031 39541 48549 57/// 333 55300 20000 91105 91203;
0112066450999992011011703004+47433+007883FM-12+061099999V0201201N001019999999N9999999N1+00591-00291999999ADDMA1999999095421ME1315509REMSYN076AAXX  17034 06645 33/// /1202 10059 21029 39542 48550 5//// 333 553// 20000;
0149066450999992011011704004+47433+007883FM-12+061099999V0209999C000019999999N9999999N1+00571-00321999999ADDMA1999999095381MD1710041+9999ME1315459OA149900211REMSYN088AAXX  17044 06645 33/// /0000 10057 21032 39538 48545 57004 333 55300 20000 91104 91203;
0149066450999992011011705004+47433+007883FM-12+061099999V0201601N000519999999N9999999N1+00571-00431999999ADDMA1999999095361MD1710051+9999ME1315449OA149900151REMSYN088AAXX  17054 06645 33/// /1601 10057 21043 39536 48544 57005 333 55300 20000 91103 91202;
0216066450999992011011706004+47433+007883FM-12+061099999V0201601N000519999999N9999999N1+00631-00451999999ADDAL19900091GJ103969IA2999+00009KA1999N+00381MA1999999095341MD1610081+9999ME1315449OA149900411REMSYN112AAXX  17064 06645 33/// /1601 10063 21045 39534 48544 56008 333 20038 3/000 55066 55300 20000 70000 91108 91204;
0149066450999992011011707004+47433+007883FM-12+061099999V0201401N001519999999N9999999N1+00641-00481999999ADDMA1999999095301MD1810081+9999ME1315419OA149900211REMSYN088AAXX  17074 06645 33/// /1403 10064 21048 39530 48541 58008 333 55300 20000 91104 91203;
0096066450999992011011708004+47433+007883FM-12+061099999V0200901N001519999999N9999999N1+00561-00401999999ADDMA1999999095301ME1315389REMSYN060AAXX  17084 06645 43/// /0903 10056 21040 39530 48538 5////;
0096066450999992011011709004+47433+007883FM-12+061099999V0202101N000519999999N9999999N1+00481-00151999999ADDMA1999999095321ME1315379REMSYN060AAXX  17094 06645 43/// /2101 10048 21015 39532 48537 5////;
0149066450999992011011710004+47433+007883FM-12+061099999V0202201N001519999999N9999999N1+00641+00001999999ADDMA1999999095361MD1210061+9999ME1315469OA149900211REMSYN088AAXX  17104 06645 33/// /2203 10064 20000 39536 48546 52006 333 55308 20900 91104 91203;
0149066450999992011011711004+47433+007883FM-12+061099999V0202601N001519999999N9999999N1+00801-00141999999ADDMA1999999095371MD1210071+9999ME1315539OA149900261REMSYN088AAXX  17114 06645 33/// /2603 10080 21014 39537 48553 52007 333 55308 2//// 91105 91203;
0149066450999992011011712004+47433+007883FM-12+061099999V0203401N001519999999N9999999N1+00811-00021999999ADDMA1999999095351MD1010031+9999ME1315519OA149900261REMSYN088AAXX  17124 06645 33/// /3403 10081 21002 39535 48551 50003 333 55308 2//// 91105 91203;
0149066450999992011011713004+47433+007883FM-12+061099999V0200101N001519999999N9999999N1+00851+00041999999ADDMA1999999095321MD1710041+9999ME1315509OA149900261REMSYN088AAXX  17134 06645 33/// /0103 10085 20004 39532 48550 57004 333 55308 2//// 91105 91204;
0096066450999992011011714004+47433+007883FM-12+061099999V0203401N003619999999N9999999N1+00731+00131999999ADDMA1999999095361ME1315499REMSYN060AAXX  17144 06645 43/// /3407 10073 20013 39536 48549 5////;
0096066450999992011011715004+47433+007883FM-12+061099999V0203301N001019999999N9999999N1+00721+00171999999ADDMA1999999095401ME1315529REMSYN060AAXX  17154 06645 43/// /3302 10072 20017 39540 48552 5////;
0149066450999992011011716004+47433+007883FM-12+061099999V0202001N001019999999N9999999N1+00631+00181999999ADDMA1999999095421MD1110101+9999ME1315519OA149900411REMSYN088AAXX  17164 06645 33/// /2002 10063 20018 39542 48551 51010 333 55302 20108 91108 91206;
0149066450999992011011717004+47433+007883FM-12+061099999V0201801N001019999999N9999999N1+00561+00151999999ADDMA1999999095441MD1110081+9999ME1315509OA149900151REMSYN088AAXX  17174 06645 33/// /1802 10056 20015 39544 48550 51008 333 55300 20000 91103 91203;
0168066450999992011011718004+47433+007883FM-12+061099999V0201401N002119999999N9999999N1+00601+00111999999ADDKA1120M+00911MA1999999095441MD1110041+9999ME1315529OA149900571REMSYN094AAXX  17184 06645 33/// /1404 10060 20011 39544 48552 51004 333 10091 55300 20000 91111 91208;
0149066450999992011011719004+47433+007883FM-12+061099999V0201101N001019999999N9999999N1+00521+00111999999ADDMA1999999095451MD1210031+9999ME1315509OA149900361REMSYN088AAXX  17194 06645 33/// /1102 10052 20011 39545 48550 52003 333 55300 20000 91107 91205;
0149066450999992011011720004+47433+007883FM-12+061099999V0201301N001519999999N9999999N1+00571+00131999999ADDMA1999999095451MD1210011+9999ME1315519OA149900361REMSYN088AAXX  17204 06645 33/// /1303 10057 20013 39545 48551 52001 333 55300 20000 91107 91205;
0149066450999992011011721004+47433+007883FM-12+061099999V0200301N001019999999N9999999N1+00581+00161999999ADDMA1999999095451MD1210011+9999ME1315529OA149900361REMSYN088AAXX  17214 06645 33/// /0302 10058 20016 39545 48552 52001 333 55300 20000 91107 91205;
0149066450999992011011722004+47433+007883FM-12+061099999V0201701N001519999999N9999999N1+00541+00131999999ADDMA1999999095441MD1510011+9999ME1315499OA149900211REMSYN088AAXX  17224 06645 33/// /1703 10054 20013 39544 48549 55001 333 55300 20000 91104 91204;
0149066450999992011011723004+47433+007883FM-12+061099999V0200101N000519999999N9999999N1+00511+00131999999ADDMA1999999095461MD1210011+9999ME1315509OA149900211REMSYN088AAXX  17234 06645 33/// /0101 10051 20013 39546 48550 52001 333 55300 20000 91104 91204;
0149066450999992011011800004+47433+007883FM-12+061099999V0202301N001519999999N9999999N1+00491+00131999999ADDMA1999999095471MD1310021+9999ME1315509OA149900571REMSYN088AAXX  18004 06645 33/// /2303 10049 20013 39547 48550 53002 333 55300 20000 91111 91208;
0149066450999992011011801004+47433+007883FM-12+061099999V0201901N001519999999N9999999N1+00571+00091999999ADDMA1999999095461MD1019999+9999ME1315529OA149900261REMSYN088AAXX  18014 06645 33/// /1903 10057 20009 39546 48552 50/// 333 55300 20000 91105 91204;
0096066450999992011011802004+47433+007883FM-12+061099999V0200401N000519999999N9999999N1+00561+00101999999ADDMA1999999095451ME1315519REMSYN060AAXX  18024 06645 43/// /0401 10056 20010 39545 48551 5////;
0096066450999992011011803004+47433+007883FM-12+061099999V0200901N001019999999N9999999N1+00541+00111999999ADDMA1999999095441ME1315499REMSYN060AAXX  18034 06645 43/// /0902 10054 20011 39544 48549 5////;
0112066450999992011011804004+47433+007883FM-12+061099999V0201401N001019999999N9999999N1+00611+00121999999ADDMA1999999095391ME1315489REMSYN076AAXX  18044 06645 33/// /1402 10061 20012 39539 48548 5//// 333 553// 20000;
0149066450999992011011805004+47433+007883FM-12+061099999V0202401N000519999999N9999999N1+00501+00131999999ADDMA1999999095391MD1710061+9999ME1315449OA149900151REMSYN088AAXX  18054 06645 33/// /2401 10050 20013 39539 48544 57006 333 55300 20000 91103 91203;
0216066450999992011011806004+47433+007883FM-12+061099999V0202201N001519999999N9999999N1+00521+00141999999ADDAL19900091GJ104029IA2999+00109KA1999N+00411MA1999999095411MD1510031+9999ME1315469OA149900361REMSYN112AAXX  18064 06645 33/// /2203 10052 20014 39541 48546 55003 333 20041 3/001 55067 55300 20000 70000 91107 91205;
0149066450999992011011807004+47433+007883FM-12+061099999V0201801N001019999999N9999999N1+00631+00211999999ADDMA1999999095381MD1710011+9999ME1315489OA149900211REMSYN088AAXX  18074 06645 33/// /1802 10063 20021 39538 48548 57001 333 55300 20000 91104 91203;
