0153066580999992011010305504+46950+008283FM-15+0442LSMA V0201901N000510069019N0112651N1-00201-00401999999ADDGA1071+006901999GA2071+011701999GF107991999999999999999999MA1102201999999REMMET068METAR LSMA 030550Z 19001KT 9999 BKN023 BKN039 M02/M04 Q1022 RMK WHT;
0153066580999992011010306504+46950+008283FM-15+0442LSMA V0209999V000512200019N0112651N1-00301-00501999999ADDGA1021+004201999GA2041+006601999GF104991999999999999999999MA1102201999999REMMET068METAR LSMA 030650Z VRB01KT 9999 FEW014 SCT022 M03/M05 Q1022 RMK BLU;
0181066580999992011010307504+46950+008283FM-15+0442LSMA V0201901N001010054019N0112651N1-00301-00501999999ADDGA1041+004501999GA2071+005401999GA3081+008401999GF108991999999999999999999MA1102201999999REMMET080METAR LSMA 030750Z 19002KT 9999 SCT015 BKN018 OVC028 M03/M05 Q1022 RMK GRNMETAR;
0130066580999992011010309504+46950+008283FM-15+0442LSMA V0209999V001012200019N0112651N1-00101-00501999999ADDGA1021+004801999GF102991999999999999999999MA1102201999999REMMET061METAR LSMA 030950Z VRB02KT 9999 FEW016 M01/M05 Q1022 RMK BLU;
0132066580999992011010311504+46950+008283FM-15+0442LSMA V0200301N001519999999Y0099001N1-00101-00501999999ADDMA1102101999999REMMET105METAR LSMA 031150Z 03003KT CAVOK M01/M05 Q1021 RMK BLUMETAR LSMA 031150Z 03003KT CAVOK M01/M05 Q1021 BLU;
0082066580999992011010312504+46950+008283FM-15+0442LSMA V0200101N001519999999Y0099001N1+00001-00501999999ADDMA1102101999999REMMET055METAR LSMA 031250Z 01003KT CAVOK M00/M05 Q1021 RMK BLU;
0143066580999992011010313504+46950+008283FM-15+0442LSMA V0200201N002612200019N0112651N1+00001-00501999999ADDGA1041+006901999GF104991999999999999999999MA1102101999999REMMET074METAR LSMA 031350Z 02005KT 350V050 9999 SCT023 M00/M05 Q1021 RMK BLUMETAR;
0130066580999992011010314504+46950+008283FM-15+0442LSMA V0200501N002612200019N0112651N1-00101-00501999999ADDGA1041+006301999GF104991999999999999999999MA1102101999999REMMET061METAR LSMA 031450Z 05005KT 9999 SCT021 M01/M05 Q1021 RMK BLU;
0138066580999992011010315504+46950+008283AUTO +0442LSMA V0209999V000512200019N0112651N1-00101-00501999999ADDGA1021+008101999GF102991999999999999999999MA1102101999999REMMET069METAR LSMA 031550Z AUTO VRB01KT 9999NDV FEW027 M01/M05 Q1021 RMK BLU;
0146066580999992011010316504+46950+008283AUTO +0442LSMA V0202001N001510084019N0112651N1-00201-00401999999ADDGA1081+008401999GF108991999999999999999999MA1102101999999REMMET077METAR LSMA 031650Z AUTO 20003KT 170V240 9999NDV OVC028 M02/M04 Q1021 RMK WHT;
0138066580999992011010318504+46950+008283AUTO +0442LSMA V0209999V001010084019N0112651N1-00201-00701999999ADDGA1081+008401999GF108991999999999999999999MA1102101999999REMMET069METAR LSMA 031850Z AUTO VRB02KT 9999NDV OVC028 M02/M07 Q1021 RMK WHT;
0146066580999992011010319504+46950+008283AUTO +0442LSMA V0202001N001510084019N0112651N1-00201-00801999999ADDGA1081+008401999GF108991999999999999999999MA1102001999999REMMET077METAR LSMA 031950Z AUTO 20003KT 150V240 9999NDV OVC028 M02/M08 Q1020 RMK WHT;
0138066580999992011010320504+46950+008283AUTO +0442LSMA V0209999V001010084019N0112651N1-00201-00801999999ADDGA1081+008401999GF108991999999999999999999MA1102001999999REMMET069METAR LSMA 032050Z AUTO VRB02KT 9999NDV OVC028 M02/M08 Q1020 RMK WHT;
0138066580999992011010321504+46950+008283AUTO +0442LSMA V0209999V001010084019N0112651N1-00301-00701999999ADDGA1081+008401999GF108991999999999999999999MA1102001999999REMMET069METAR LSMA 032150Z AUTO VRB02KT 9999NDV OVC028 M03/M07 Q1020 RMK WHT;
0146066580999992011010322504+46950+008283AUTO +0442LSMA V0201901N001510084019N0112651N1-00301-00801999999ADDGA1081+008401999GF108991999999999999999999MA1102001999999REMMET077METAR LSMA 032250Z AUTO 19003KT 160V220 9999NDV OVC028 M03/M08 Q1020 RMK WHT;
0146066580999992011010323504+46950+008283AUTO +0442LSMA V0202101N001510081019N0112651N1-00301-00701999999ADDGA1081+008101999GF108991999999999999999999MA1102001999999REMMET077METAR LSMA 032350Z AUTO 21003KT 170V260 9999NDV OVC027 M03/M07 Q1020 RMK WHT;
0138066580999992011010401504+46950+008283AUTO +0442LSMA V0209999V001010078019N0112651N1-00301-00801999999ADDGA1081+007801999GF108991999999999999999999MA1101901999999REMMET069METAR LSMA 040150Z AUTO VRB02KT 9999NDV OVC026 M03/M08 Q1019 RMK WHT;
0138066580999992011010402504+46950+008283AUTO +0442LSMA V0209999V000512200019N0112651N1-00401-00801999999ADDGA1041+007801999GF104991999999999999999999MA1101901999999REMMET069METAR LSMA 040250Z AUTO VRB01KT 9999NDV SCT026 M04/M08 Q1019 RMK BLU;
0161066580999992011010403504+46950+008283AUTO +0442LSMA V0201801N000510135019N0112651N1-00401-00701999999ADDGA1071+013501999GA2071+045001999GF107991999999999999999999MA1101901999999REMMET076METAR LSMA 040350Z AUTO 18001KT 9999NDV BKN045 BKN150 M04/M07 Q1019 RMK WHT;
0138066580999992011010404504+46950+008283AUTO +0442LSMA V0202601N001012200019N0112651N1-00501-00701999999ADDGA1041+014701999GF104991999999999999999999MA1101901999999REMMET069METAR LSMA 040450Z AUTO 26002KT 9999NDV SCT049 M05/M07 Q1019 RMK BLU;
0130066580999992011010405504+46950+008283FM-15+0442LSMA V0202001N002110150019N0112651N1-00501-00701999999ADDGA1071+015001999GF107991999999999999999999MA1101801999999REMMET061METAR LSMA 040550Z 20004KT 9999 BKN052 M05/M07 Q1018 RMK WHT;
0082066580999992011010406504+46950+008283FM-15+0442LSMA V0202301N001519999999Y0099001N1-00501-00801999999ADDMA1101801999999REMMET055METAR LSMA 040650Z 23003KT CAVOK M05/M08 Q1018 RMK BLU;
0130066580999992011010407504+46950+008283FM-15+0442LSMA V0209999V001010510019N0112651N1-00501-00701999999ADDGA1071+051001999GF107991999999999999999999MA1101801999999REMMET061METAR LSMA 040750Z VRB02KT 9999 BKN170 M05/M07 Q1018 RMK WHT;
0130066580999992011010408504+46950+008283FM-15+0442LSMA V0202101N000510360019N0112651N1-00501-00701999999ADDGA1071+036001999GF107991999999999999999999MA1101801999999REMMET061METAR LSMA 040850Z 21001KT 9999 BKN120 M05/M07 Q1018 RMK WHT;
0130066580999992011010409504+46950+008283FM-15+0442LSMA V0209999C000010360019N0112651N1-00301-00601999999ADDGA1071+036001999GF107991999999999999999999MA1101801999999REMMET061METAR LSMA 040950Z 00000KT 9999 BKN120 M03/M06 Q1018 RMK WHT;
0082066580999992011010410504+46950+008283FM-15+0442LSMA V0209999C000019999999Y0099001N1-00301-00601999999ADDMA1101691999999REMMET055METAR LSMA 041050Z 00000KT CAVOK M03/M06 Q1017 RMK BLU;
0138066580999992011010411504+46950+008283FM-15+0442LSMA V0200301N001512200019N0112651N1-00101-00501999999ADDGA1021+005401999GF102991999999999999999999MA1101691999999REMMET069METAR LSMA 041150Z 03003KT 340V070 9999 FEW018 M01/M05 Q1017 RMK BLU;
0082066580999992011010412504+46950+008283FM-15+0442LSMA V0209999C000019999999Y0099001N1+00001-00501999999ADDMA1101591999999REMMET055METAR LSMA 041250Z 00000KT CAVOK M00/M05 Q1016 RMK BLU;
0082066580999992011010413504+46950+008283FM-15+0442LSMA V0202101N002619999999Y0099001N1-00101-00501999999ADDMA1101591999999REMMET055METAR LSMA 041350Z 21005KT CAVOK M01/M05 Q1016 RMK BLU;
0130066580999992011010414504+46950+008283FM-15+0442LSMA V0202201N001510360019N0112651N1-00101-00501999999ADDGA1071+036001999GF107991999999999999999999MA1101591999999REMMET061METAR LSMA 041450Z 22003KT 9999 BKN120 M01/M05 Q1016 RMK WHT;
0138066580999992011010415504+46950+008283AUTO +0442LSMA V0209999C000012200019N0112651N1-00101-00501999999ADDGA1021+033001999GF102991999999999999999999MA1101491999999REMMET069METAR LSMA 041550Z AUTO 00000KT 9999NDV FEW110 M01/M05 Q1015 RMK BLU;
0138066580999992011010416504+46950+008283AUTO +0442LSMA V0201901N001012200019N0080001N1-00301-00501999999ADDGA1021+018001999GF102991999999999999999999MA1101491999999REMMET069METAR LSMA 041650Z AUTO 19002KT 8000NDV FEW064 M03/M05 Q1015 RMK BLU;
0138066580999992011010417504+46950+008283AUTO +0442LSMA V0201801N001010180019N0080001N1-00401-00501999999ADDGA1071+018001999GF107991999999999999999999MA1101591999999REMMET069METAR LSMA 041750Z AUTO 18002KT 8000NDV BKN066 M04/M05 Q1016 RMK WHT;
0138066580999992011010418504+46950+008283AUTO +0442LSMA V0201801N001010180019N0070001N1-00401-00501999999ADDGA1071+018001999GF107991999999999999999999MA1101591999999REMMET069METAR LSMA 041850Z AUTO 18002KT 7000NDV BKN063 M04/M05 Q1016 RMK GRN;
0138066580999992011010419504+46950+008283AUTO +0442LSMA V0209999V000510180019N0080001N1-00301-00601999999ADDGA1071+018001999GF107991999999999999999999MA1101591999999REMMET069METAR LSMA 041950Z AUTO VRB01KT 8000NDV BKN061 M03/M06 Q1016 RMK WHT;
0119066580999992011010420504+46950+008283AUTO +0442LSMA V0209999V000512200019N0070001N1-00501-00601999999ADDGF100991999999999999999999MA1101491999999REMMET066METAR LSMA 042050Z AUTO VRB01KT 7000NDV NCD M05/M06 Q1015 RMK GRN;
0119066580999992011010421504+46950+008283AUTO +0442LSMA V0202101N001512200019N0060001N1-00601-00701999999ADDGF100991999999999999999999MA1101591999999REMMET066METAR LSMA 042150Z AUTO 21003KT 6000NDV NCD M06/M07 Q1016 RMK GRN;
0138066580999992011010422504+46950+008283AUTO +0442LSMA V0202401N001512200019N0060001N1-00601-00701999999ADDGA1021+060001999GF102991999999999999999999MA1101591999999REMMET069METAR LSMA 042250Z AUTO 24003KT 6000NDV FEW200 M06/M07 Q1016 RMK GRN;
0138066580999992011010423504+46950+008283AUTO +0442LSMA V0209999V001012200019N0080001N1-00601-00701999999ADDGA1021+057001999GF102991999999999999999999MA1101591999999REMMET069METAR LSMA 042350Z AUTO VRB02KT 8000NDV FEW190 M06/M07 Q1016 RMK BLU;
0169066580999992011010500504+46950+008283AUTO +0442LSMA V0202301N001512200019N0070001N1-00601-00701999999ADDGA1041+014101999GA2041+057001999GF104991999999999999999999MA1101491999999REMMET084METAR LSMA 050050Z AUTO 23003KT 200V260 7000NDV SCT047 SCT190 M06/M07 Q1015 RMK GRN;
0138066580999992011010501504+46950+008283AUTO +0442LSMA V0202301N001010150019N0070001N1-00601-00801999999ADDGA1071+015001999GF107991999999999999999999MA1101491999999REMMET069METAR LSMA 050150Z AUTO 23002KT 7000NDV BKN051 M06/M08 Q1015 RMK GRN;
0146066580999992011010502504+46950+008283AUTO +0442LSMA V0202001N001512200019N0070001N1-00601-00701999999ADDGA1021+015001999GF102991999999999999999999MA1101491999999REMMET077METAR LSMA 050250Z AUTO 20003KT 170V230 7000NDV FEW052 M06/M07 Q1015 RMK GRN;
0138066580999992011010503504+46950+008283AUTO +0442LSMA V0202101N001510147019N0080001N1-00701-00801999999ADDGA1071+014701999GF107991999999999999999999MA1101491999999REMMET069METAR LSMA 050350Z AUTO 21003KT 8000NDV BKN049 M07/M08 Q1015 RMK WHT;
0138066580999992011010504504+46950+008283AUTO +0442LSMA V0202301N001512200019N0112651N1-00601-00801999999ADDGA1041+014101999GF104991999999999999999999MA1101491999999REMMET069METAR LSMA 050450Z AUTO 23003KT 9999NDV SCT047 M06/M08 Q1015 RMK BLU;
0082066580999992011010505504+46950+008283FM-15+0442LSMA V0209999V000519999999Y0099001N1-00701-00801999999ADDMA1101491999999REMMET055METAR LSMA 050550Z VRB01KT CAVOK M07/M08 Q1015 RMK BLU;
0111066580999992011010506504+46950+008283FM-15+0442LSMA V0202101N001512200019N0090001N1-00701-00801999999ADDGF100991999999999999999999MA1101491999999REMMET058METAR LSMA 050650Z 21003KT 9000 NSC M07/M08 Q1015 RMK BLU;
0082066580999992011010507504+46950+008283FM-15+0442LSMA V0202101N001519999999Y0099001N1-00701-00801999999ADDMA1101491999999REMMET055METAR LSMA 050750Z 21003KT CAVOK M07/M08 Q1015 RMK BLU;
0082066580999992011010508504+46950+008283FM-15+0442LSMA V0202001N003119999999Y0099001N1-00601-00701999999ADDMA1101491999999REMMET055METAR LSMA 050850Z 20006KT CAVOK M06/M07 Q1015 RMK BLU;
0082066580999992011010509504+46950+008283FM-15+0442LSMA V0209999V001019999999Y0099001N1-00401-00601999999ADDMA1101391999999REMMET055METAR LSMA 050950Z VRB02KT CAVOK M04/M06 Q1014 RMK BLU;
0082066580999992011010510504+46950+008283FM-15+0442LSMA V0209999V001019999999Y0099001N1-00201-00501999999ADDMA1101291999999REMMET055METAR LSMA 051050Z VRB02KT CAVOK M02/M05 Q1013 RMK BLU;
0081066580999992011010511504+46950+008283FM-15+0442LSMA V0209999V000519999999Y0099001N1+00101-00601999999ADDMA1101291999999REMMET054METAR LSMA 051150Z VRB01KT CAVOK 01/M06 Q1013 RMK BLU;
0089066580999992011010512504+46950+008283FM-15+0442LSMA V0202101N002119999999Y0099001N1+00201-00401999999ADDMA1101191999999REMMET062METAR LSMA 051250Z 21004KT 170V240 CAVOK 02/M04 Q1012 RMK BLU;
0081066580999992011010513504+46950+008283FM-15+0442LSMA V0209999C000019999999Y0099001N1+00301-00501999999ADDMA1101191999999REMMET054METAR LSMA 051350Z 00000KT CAVOK 03/M05 Q1012 RMK BLU;
0081066580999992011010514504+46950+008283FM-15+0442LSMA V0209999V000519999999Y0099001N1+00301-00401999999ADDMA1101191999999REMMET054METAR LSMA 051450Z VRB01KT CAVOK 03/M04 Q1012 RMK BLU;
0118066580999992011010515504+46950+008283AUTO +0442LSMA V0202301N002112200019N0112651N1+00001-00501999999ADDGF100991999999999999999999MA1101081999999REMMET065METAR LSMA 051550Z AUTO 23004KT 9999NDV NCD 00/M05 Q1011 RMK BLU;
0119066580999992011010516504+46950+008283AUTO +0442LSMA V0209999V001012200019N0112651N1-00201-00501999999ADDGF100991999999999999999999MA1101081999999REMMET066METAR LSMA 051650Z AUTO VRB02KT 9999NDV NCD M02/M05 Q1011 RMK BLU;
0146066580999992011010517504+46950+008283AUTO +0442LSMA V0201901N001512200019N0112651N1-00301-00501999999ADDGA1021+024001999GF102991999999999999999999MA1101081999999REMMET077METAR LSMA 051750Z AUTO 19003KT 160V240 9999NDV FEW081 M03/M05 Q1011 RMK BLU;
0119066580999992011010518504+46950+008283AUTO +0442LSMA V0202101N001512200019N0112651N1-00301-00601999999ADDGF100991999999999999999999MA1101081999999REMMET066METAR LSMA 051850Z AUTO 21003KT 9999NDV NCD M03/M06 Q1011 RMK BLU;
0119066580999992011010519504+46950+008283AUTO +0442LSMA V0209999V001012200019N0112651N1-00401-00601999999ADDGF100991999999999999999999MA1101081999999REMMET066METAR LSMA 051950Z AUTO VRB02KT 9999NDV NCD M04/M06 Q1011 RMK BLU;
0127066580999992011010520504+46950+008283AUTO +0442LSMA V0202201N001512200019N0112651N1-00401-00601999999ADDGF100991999999999999999999MA1101081999999REMMET074METAR LSMA 052050Z AUTO 22003KT 180V260 9999NDV NCD M04/M06 Q1011 RMK BLU;
0119066580999992011010521504+46950+008283AUTO +0442LSMA V0202401N001012200019N0112651N1-00401-00501999999ADDGF100991999999999999999999MA1101021999999REMMET066METAR LSMA 052150Z AUTO 24002KT 9999NDV NCD M04/M05 Q1010 RMK BLU;
0127066580999992011010522504+46950+008283AUTO +0442LSMA V0202001N001512200019N0112651N1-00401-00701999999ADDGF100991999999999999999999MA1101021999999REMMET074METAR LSMA 052250Z AUTO 20003KT 150V230 9999NDV NCD M04/M07 Q1010 RMK BLU;
0138066580999992011010523504+46950+008283AUTO +0442LSMA V0209999V001010420019N0112651N1-00401-00601999999ADDGA1071+042001999GF107991999999999999999999MA1100911999999REMMET069METAR LSMA 052350Z AUTO VRB02KT 9999NDV BKN140 M04/M06 Q1009 RMK WHT;
0161066580999992011010600504+46950+008283AUTO +0442LSMA V0209999V001010390019N0112651N1-00301-00501999999ADDGA1021+027001999GA2081+039001999GF108991999999999999999999MA1100911999999REMMET076METAR LSMA 060050Z AUTO VRB02KT 9999NDV FEW095 OVC130 M03/M05 Q1009 RMK WHT;
0161066580999992011010601504+46950+008283AUTO +0442LSMA V0202101N001510270019N0112651N1-00301-00501999999ADDGA1071+027001999GA2071+033001999GF107991999999999999999999MA1100811999999REMMET076METAR LSMA 060150Z AUTO 21003KT 9999NDV BKN095 BKN110 M03/M05 Q1008 RMK WHT;
0146066580999992011010602504+46950+008283AUTO +0442LSMA V0201801N001510270019N0112651N1-00201-00401999999ADDGA1081+027001999GF108991999999999999999999MA1100811999999REMMET077METAR LSMA 060250Z AUTO 18003KT 150V210 9999NDV OVC090 M02/M04 Q1008 RMK WHT;
0161066580999992011010603504+46950+008283AUTO +0442LSMA V0201801N001510270019N0112651N1-00101-00301999999ADDGA1071+027001999GA2071+048001999GF107991999999999999999999MA1100811999999REMMET076METAR LSMA 060350Z AUTO 18003KT 9999NDV BKN091 BKN160 M01/M03 Q1008 RMK WHT;
0169066580999992011010604504+46950+008283AUTO +0442LSMA V0202001N002610240019N0112651N1-00101-00301999999ADDGA1041+021001999GA2081+024001999GF108991999999999999999999MA1100811999999REMMET084METAR LSMA 060450Z AUTO 20005KT 170V230 9999NDV SCT071 OVC086 M01/M03 Q1008 RMK WHT;
0130066580999992011010605504+46950+008283FM-15+0442LSMA V0209999V000510210019N0112651N1+00001-00301999999ADDGA1081+021001999GF108991999999999999999999MA1100811999999REMMET061METAR LSMA 060550Z VRB01KT 9999 OVC071 M00/M03 Q1008 RMK WHT;
0130066580999992011010606504+46950+008283FM-15+0442LSMA V0209999V000510180019N0112651N1+00001-00201999999ADDGA1081+018001999GF108991999999999999999999MA1100811999999REMMET061METAR LSMA 060650Z VRB01KT 9999 OVC065 M00/M02 Q1008 RMK WHT;
0129066580999992011010607504+46950+008283FM-15+0442LSMA V0201501N001010210019N0112651N1+00001-00301999999ADDGA1071+021001999GF107991999999999999999999MA1100811999999REMMET060METAR LSMA 060750Z 15002KT 9999 BKN076 00/M03 Q1008 RMK WHT;
0129066580999992011010608504+46950+008283FM-15+0442LSMA V0209999V001010240019N0112651N1+00101-00201999999ADDGA1071+024001999GF107991999999999999999999MA1100811999999REMMET060METAR LSMA 060850Z VRB02KT 9999 BKN081 01/M02 Q1008 RMK WHT;
0129066580999992011010609504+46950+008283FM-15+0442LSMA V0209999V000512200019N0112651N1+00201-00201999999ADDGA1021+027001999GF102991999999999999999999MA1100811999999REMMET060METAR LSMA 060950Z VRB01KT 9999 FEW098 02/M02 Q1008 RMK BLU;
0137066580999992011010610504+46950+008283FM-15+0442LSMA V0202201N002112200019N0112651N1+00401-00201999999ADDGA1021+027001999GF102991999999999999999999MA1100811999999REMMET068METAR LSMA 061050Z 22004KT 170V260 9999 FEW098 04/M02 Q1008 RMK BLU;
0129066580999992011010611504+46950+008283FM-15+0442LSMA V0209999V001010270019N0112651N1+00501-00201999999ADDGA1071+027001999GF107991999999999999999999MA1100811999999REMMET060METAR LSMA 061150Z VRB02KT 9999 BKN090 05/M02 Q1008 RMK WHT;
0137066580999992011010612504+46950+008283FM-15+0442LSMA V0202601N001512200019N0112651N1+00701-00201999999ADDGA1021+024001999GF102991999999999999999999MA1100711999999REMMET068METAR LSMA 061250Z 26003KT 200V290 9999 FEW087 07/M02 Q1007 RMK BLU;
0137066580999992011010613504+46950+008283FM-15+0442LSMA V0200201N001512200019N0112651N1+00601-00101999999ADDGA1041+027001999GF104991999999999999999999MA1100711999999REMMET068METAR LSMA 061350Z 02003KT 350V060 9999 SCT099 06/M01 Q1007 RMK BLU;
0129066580999992011010614504+46950+008283FM-15+0442LSMA V0209999V001010300019N0112651N1+00601-00101999999ADDGA1071+030001999GF107991999999999999999999MA1100811999999REMMET060METAR LSMA 061450Z VRB02KT 9999 BKN100 06/M01 Q1008 RMK WHT;
0145066580999992011010615504+46950+008283AUTO +0442LSMA V0201901N001510240019N0112651N1+00501-00101999999ADDGA1081+024001999GF108991999999999999999999MA1100811999999REMMET076METAR LSMA 061550Z AUTO 19003KT 150V230 9999NDV OVC086 05/M01 Q1008 RMK WHT;
0170066580999992011010616504+46950+008283AUTO +0442LSMA V0201801N00101021001CN0112651N1+00301-00101999999ADDAW1611GA1021+021001999GA2081+021001999GF108991999999999999999999MA1100811999999REMMET079METAR LSMA 061650Z AUTO 18002KT 9999NDV -RA FEW070 OVC079 03/M01 Q1008 RMK WHT;
0169066580999992011010617504+46950+008283AUTO +0442LSMA V0209999V001010210019N0112651N1+00301+00001999999ADDAW1611GA1041+018001999GA2081+021001999GF108991999999999999999999MA1100911999999REMMET078METAR LSMA 061750Z AUTO VRB02KT 9999NDV -RA SCT060 OVC071 03/00 Q1009 RMK WHT;
0146066580999992011010618504+46950+008283AUTO +0442LSMA V0209999V001010150019N0070001N1+00301+00101999999ADDAW1611GA1081+015001999GF108991999999999999999999MA1101021999999REMMET071METAR LSMA 061850Z AUTO VRB02KT 7000NDV -RA OVC054 03/01 Q1010 RMK GRN;
0146066580999992011010619504+46950+008283AUTO +0442LSMA V0209999V000510150019N0080001N1+00301+00101999999ADDAW1611GA1081+015001999GF108991999999999999999999MA1101021999999REMMET071METAR LSMA 061950Z AUTO VRB01KT 8000NDV -RA OVC055 03/01 Q1010 RMK WHT;
0178066580999992011010620504+46950+008283AUTO +0442LSMA V0209999V001010150019N0046001N1+00301+00201999999ADDAW1101AW2611GA1071+015001999GA2081+021001999GF108991999999999999999999MA1101021999999REMMET081METAR LSMA 062050Z AUTO VRB02KT 4600NDV -RA BR BKN055 OVC074 03/02 Q1010 RMK GRN;
0180066580999992011010621504+46950+008283AUTO +0442LSMA V0209999V001010240019N0060001N1+00201+00101999999ADDAW1101AW2811GA1021+018001999GA2081+024001999GF108991999999999999999999MA1101021999999REMMET083METAR LSMA 062150Z AUTO VRB02KT 6000NDV -SHRA BR FEW067 OVC084 02/01 Q1010 RMK GRN;
0179066580999992011010622504+46950+008283AUTO +0442LSMA V0201901N002610180019N0090001N1+00301+00201999999ADDAW1811GA1071+018001999GA2081+021001999GF108991999999999999999999MA1101081999999REMMET088METAR LSMA 062250Z AUTO 19005KT 170V230 9000NDV -SHRA BKN061 OVC073 03/02 Q1011 RMK WHT;
0146066580999992011010623504+46950+008283AUTO +0442LSMA V0201901N001510180019N0050001N1+00301+00201999999ADDAW1611GA1081+018001999GF108991999999999999999999MA1101081999999REMMET071METAR LSMA 062350Z AUTO 19003KT 5000NDV -RA OVC066 03/02 Q1011 RMK GRN;
0156066580999992011010700504+46950+008283AUTO +0442LSMA V0201801N001510210019N0060001N1+00301+00201999999ADDAW1811GA1081+021001999GF108991999999999999999999MA1101081999999REMMET081METAR LSMA 070050Z AUTO 18003KT 140V280 6000NDV -SHRA OVC075 03/02 Q1011 RMK GRN;
0191066580999992011010701504+46950+008283AUTO +0442LSMA V0209999V00051027001CN0025001N1+00201+00101999999ADDAW1101GA1021+021001999GA2041+027001999GA3071+045001999GF107991999999999999999999MA1101191999999REMMET084METAR LSMA 070150Z AUTO VRB01KT 2500NDV BR FEW077 SCT090 BKN150 02/01 Q1012 RMK YLO;
0136066580999992011010702504+46950+008283AUTO +0442LSMA V0209999V001010210019N0050001N1+00301+00201999999ADDGA1081+021001999GF108991999999999999999999MA1101191999999REMMET067METAR LSMA 070250Z AUTO VRB02KT 5000NDV OVC077 03/02 Q1012 RMK GRN;
0155066580999992011010703504+46950+008283AUTO +0442LSMA V0209999V001010180019N0044001N1+00301+00201999999ADDAW1101AW2611GA1081+018001999GF108991999999999999999999MA1101291999999REMMET074METAR LSMA 070350Z AUTO VRB02KT 4400NDV -RA BR OVC066 03/02 Q1013 RMK GRN;
0186066580999992011010704504+46950+008283AUTO +0442LSMA V0201901N001510180019N0050001N1+00301+00201999999ADDAW1101AW2611GA1071+018001999GA2081+021001999GF108991999999999999999999MA1101291999999REMMET089METAR LSMA 070450Z AUTO 19003KT 150V270 5000NDV -RA BR BKN063 OVC072 03/02 Q1013 RMK GRN;
0137066580999992011010705504+46950+008283FM-15+0442LSMA V0209999V001010270019N0036001N1+00301+00201999999ADDGA1071+027001999GF107991999999999999999999MA1101291999999MW1101REMMET062METAR LSMA 070550Z VRB02KT 3600 BR BKN097 03/02 Q1013 RMK GRN;
0160066580999992011010706504+46950+008283FM-15+0442LSMA V0201901N001512200019N0046001N1+00301+00201999999ADDGA1041+027001999GA2041+036001999GF104991999999999999999999MA1101191999999MW1101REMMET069METAR LSMA 070650Z 19003KT 4600 BR SCT093 SCT120 03/02 Q1012 RMK GRN;
0137066580999992011010707504+46950+008283FM-15+0442LSMA V0209999V001010270019N0027001N1+00301+00201999999ADDGA1071+027001999GF107991999999999999999999MA1101191999999MW1101REMMET062METAR LSMA 070750Z VRB02KT 2700 BR BKN098 03/02 Q1012 RMK YLO;
0137066580999992011010708504+46950+008283FM-15+0442LSMA V0209999V001012200019N0023001N1+00301+00301999999ADDGA1041+030001999GF104991999999999999999999MA1101191999999MW1101REMMET062METAR LSMA 070850Z VRB02KT 2300 BR SCT100 03/03 Q1012 RMK YLO;
0128066580999992011010709504+46950+008283FM-15+0442LSMA V0209999V000510300019N0080001N1+00501+00401999999ADDGA1071+030001999GF107991999999999999999999MA1101291999999REMMET059METAR LSMA 070950Z VRB01KT 8000 BKN100 05/04 Q1013 RMK WHT;
0128066580999992011010710504+46950+008283FM-15+0442LSMA V0209999C000012200019N0112651N1+00701+00501999999ADDGA1021+033001999GF102991999999999999999999MA1101191999999REMMET059METAR LSMA 071050Z 00000KT 9999 FEW110 07/05 Q1012 RMK BLU;
0136066580999992011010711504+46950+008283FM-15+0442LSMA V0202101N002112200019N0112651N1+00801+00501999999ADDGA1041+036001999GF104991999999999999999999MA1101191999999REMMET067METAR LSMA 071150Z 21004KT 170V260 9999 SCT120 08/05 Q1012 RMK BLU;
0080066580999992011010712504+46950+008283FM-15+0442LSMA V0209999V000519999999Y0099001N1+00901+00601999999ADDMA1101081999999REMMET053METAR LSMA 071250Z VRB01KT CAVOK 09/06 Q1011 RMK BLU;
0128066580999992011010713504+46950+008283FM-15+0442LSMA V0201901N001512200019N0112651N1+01001+00601999999ADDGA1041+036001999GF104991999999999999999999MA1101081999999REMMET059METAR LSMA 071350Z 19003KT 9999 SCT120 10/06 Q1011 RMK BLU;
0128066580999992011010714504+46950+008283FM-15+0442LSMA V0209999V001010360019N0112651N1+00901+00601999999ADDGA1071+036001999GF107991999999999999999999MA1101081999999REMMET059METAR LSMA 071450Z VRB02KT 9999 BKN120 09/06 Q1011 RMK WHT;
0136066580999992011010715504+46950+008283AUTO +0442LSMA V0209999C000010360019N0112651N1+00701+00501999999ADDGA1081+036001999GF108991999999999999999999MA1101191999999REMMET067METAR LSMA 071550Z AUTO 00000KT 9999NDV OVC120 07/05 Q1012 RMK WHT;
0159066580999992011010716504+46950+008283AUTO +0442LSMA V0202001N001510360019N0112651N1+00501+00401999999ADDGA1071+036001999GA2081+054001999GF108991999999999999999999MA1101291999999REMMET074METAR LSMA 071650Z AUTO 20003KT 9999NDV BKN120 OVC180 05/04 Q1013 RMK WHT;
0136066580999992011010717504+46950+008283AUTO +0442LSMA V0209999V001010330019N0112651N1+00501+00401999999ADDGA1081+033001999GF108991999999999999999999MA1101291999999REMMET067METAR LSMA 071750Z AUTO VRB02KT 9999NDV OVC110 05/04 Q1013 RMK WHT;
0159066580999992011010718504+46950+008283AUTO +0442LSMA V0209999V000510360019N0080001N1+00401+00301999999ADDGA1071+036001999GA2081+048001999GF108991999999999999999999MA1101291999999REMMET074METAR LSMA 071850Z AUTO VRB01KT 8000NDV BKN120 OVC160 04/03 Q1013 RMK WHT;
0190066580999992011010719504+46950+008283AUTO +0442LSMA V0202101N001510480019N0112651N1+00401+00201999999ADDGA1021+036001999GA2071+048001999GA3071+057001999GF107991999999999999999999MA1101291999999REMMET089METAR LSMA 071950Z AUTO 21003KT 170V240 9999NDV FEW120 BKN160 BKN190 04/02 Q1013 RMK WHT;
0159066580999992011010720504+46950+008283AUTO +0442LSMA V0209999V001010480019N0112651N1+00401+00301999999ADDGA1041+042001999GA2071+048001999GF107991999999999999999999MA1101191999999REMMET074METAR LSMA 072050Z AUTO VRB02KT 9999NDV SCT140 BKN160 04/03 Q1012 RMK WHT;
0167066580999992011010721504+46950+008283AUTO +0442LSMA V0202301N002110420019N0112651N1+00401+00301999999ADDGA1071+042001999GA2071+051001999GF107991999999999999999999MA1101191999999REMMET082METAR LSMA 072150Z AUTO 23004KT 170V260 9999NDV BKN140 BKN170 04/03 Q1012 RMK WHT;
0159066580999992011010722504+46950+008283AUTO +0442LSMA V0201901N001510480019N0112651N1+00301+00201999999ADDGA1041+039001999GA2071+048001999GF107991999999999999999999MA1101191999999REMMET074METAR LSMA 072250Z AUTO 19003KT 9999NDV SCT130 BKN160 03/02 Q1012 RMK WHT;
0167066580999992011010723504+46950+008283AUTO +0442LSMA V0201901N001510360019N0112651N1+00301+00201999999ADDGA1071+036001999GA2081+051001999GF108991999999999999999999MA1101291999999REMMET082METAR LSMA 072350Z AUTO 19003KT 150V220 9999NDV BKN120 OVC170 03/02 Q1013 RMK WHT;
0136066580999992011010800504+46950+008283AUTO +0442LSMA V0202001N002610330019N0112651N1+00401+00201999999ADDGA1081+033001999GF108991999999999999999999MA1101291999999REMMET067METAR LSMA 080050Z AUTO 20005KT 9999NDV OVC110 04/02 Q1013 RMK WHT;
0159066580999992011010801504+46950+008283AUTO +0442LSMA V0202101N004610330019N0112651N1+00401+00201999999ADDGA1071+033001999GA2081+039001999GF108991999999999999999999MA1101191999999REMMET074METAR LSMA 080150Z AUTO 21009KT 9999NDV BKN110 OVC130 04/02 Q1012 RMK WHT;
0136066580999992011010802504+46950+008283AUTO +0442LSMA V0209999V001510390019N0112651N1+00401+00201999999ADDGA1081+039001999GF108991999999999999999999MA1101191999999REMMET067METAR LSMA 080250Z AUTO VRB03KT 9999NDV OVC130 04/02 Q1012 RMK WHT;
0167066580999992011010803504+46950+008283AUTO +0442LSMA V0201601N001510270019N0112651N1+00401+00301999999ADDGA1041+021001999GA2081+027001999GF108991999999999999999999MA1101191999999REMMET082METAR LSMA 080350Z AUTO 16003KT 120V190 9999NDV SCT076 OVC095 04/03 Q1012 RMK WHT;
0144066580999992011010804504+46950+008283AUTO +0442LSMA V0201801N001510240019N0112651N1+00401+00301999999ADDGA1081+024001999GF108991999999999999999999MA1101291999999REMMET075METAR LSMA 080450Z AUTO 18003KT 150V230 9999NDV OVC089 04/03 Q1013 RMK WHT;
0200066580999992011010805504+46950+008283AUTO +0442LSMA V0202301N002610180019N0112651N1+00501+00301999999ADDAW1611GA1041+015001999GA2071+018001999GA3081+024001999GF108991999999999999999999MA1101391999999REMMET093METAR LSMA 080550Z AUTO 23005KT 190V280 9999NDV -RA SCT058 BKN069 OVC084 05/03 Q1014 RMK WHT;
0179066580999992011010806504+46950+008283AUTO +0442LSMA V0202301N001510210019N0112651N1+00401+00301999999ADDAW1811GA1071+021001999GA2081+027001999GF108991999999999999999999MA1101491999999REMMET088METAR LSMA 080650Z AUTO 23003KT 170V260 9999NDV -SHRA BKN077 OVC094 04/03 Q1015 RMK WHT;
0167066580999992011010807504+46950+008283AUTO +0442LSMA V0201801N001510240019N0112651N1+00401+00301999999ADDGA1071+024001999GA2081+027001999GF108991999999999999999999MA1101491999999REMMET082METAR LSMA 080750Z AUTO 18003KT 130V260 9999NDV BKN082 OVC098 04/03 Q1015 RMK WHT;
0144066580999992011010808504+46950+008283AUTO +0442LSMA V0202501N001510270019N0112651N1+00501+00301999999ADDGA1071+027001999GF107991999999999999999999MA1101391999999REMMET075METAR LSMA 080850Z AUTO 25003KT 150V290 9999NDV BKN093 05/03 Q1014 RMK WHT;
0117066580999992011010809504+46950+008283AUTO +0442LSMA V0201301N001512200019N0112651N1+00601+00301999999ADDGF100991999999999999999999MA1101391999999REMMET064METAR LSMA 080950Z AUTO 13003KT 9999NDV NCD 06/03 Q1014 RMK BLU;
0117066580999992011010810504+46950+008283AUTO +0442LSMA V0209999V000512200019N0112651N1+00801+00401999999ADDGF100991999999999999999999MA1101391999999REMMET064METAR LSMA 081050Z AUTO VRB01KT 9999NDV NCD 08/04 Q1014 RMK BLU;
0117066580999992011010811504+46950+008283AUTO +0442LSMA V0209999V001012200019N0112651N1+01001+00501999999ADDGF100991999999999999999999MA1101291999999REMMET064METAR LSMA 081150Z AUTO VRB02KT 9999NDV NCD 10/05 Q1013 RMK BLU;
0136066580999992011010812504+46950+008283AUTO +0442LSMA V0209999V000512200019N0112651N1+01001+00501999999ADDGA1041+039001999GF104991999999999999999999MA1101291999999REMMET067METAR LSMA 081250Z AUTO VRB01KT 9999NDV SCT130 10/05 Q1013 RMK BLU;
0136066580999992011010813504+46950+008283AUTO +0442LSMA V0200101N001512200019N0112651N1+00901+00501999999ADDGA1021+039001999GF102991999999999999999999MA1101291999999REMMET067METAR LSMA 081350Z AUTO 01003KT 9999NDV FEW130 09/05 Q1013 RMK BLU;
0136066580999992011010814504+46950+008283AUTO +0442LSMA V0201801N001012200019N0112651N1+00901+00601999999ADDGA1021+042001999GF102991999999999999999999MA1101291999999REMMET067METAR LSMA 081450Z AUTO 18002KT 9999NDV FEW140 09/06 Q1013 RMK BLU;
0136066580999992011010815504+46950+008283AUTO +0442LSMA V0202201N001512200019N0112651N1+00601+00401999999ADDGA1021+039001999GF102991999999999999999999MA1101291999999REMMET067METAR LSMA 081550Z AUTO 22003KT 9999NDV FEW130 06/04 Q1013 RMK BLU;
0117066580999992011010816504+46950+008283AUTO +0442LSMA V0209999C000012200019N0112651N1+00401+00201999999ADDGF100991999999999999999999MA1101391999999REMMET064METAR LSMA 081650Z AUTO 00000KT 9999NDV NCD 04/02 Q1014 RMK BLU;
0117066580999992011010817504+46950+008283AUTO +0442LSMA V0202101N002612200019N0112651N1+00301+00201999999ADDGF100991999999999999999999MA1101291999999REMMET064METAR LSMA 081750Z AUTO 21005KT 9999NDV NCD 03/02 Q1013 RMK BLU;
0144066580999992011010818504+46950+008283AUTO +0442LSMA V0202001N003112200019N0112651N1+00301+00101999999ADDGA1041+042001999GF104991999999999999999999MA1101291999999REMMET075METAR LSMA 081850Z AUTO 20006KT 170V240 9999NDV SCT140 03/01 Q1013 RMK BLU;
0117066580999992011010819504+46950+008283AUTO +0442LSMA V0209999V001512200019N0112651N1+00201+00001999999ADDGF100991999999999999999999MA1101291999999REMMET064METAR LSMA 081950Z AUTO VRB03KT 9999NDV NCD 02/00 Q1013 RMK BLU;
0144066580999992011010820504+46950+008283AUTO +0442LSMA V0202201N001512200019N0112651N1+00201+00001999999ADDGA1021+045001999GF102991999999999999999999MA1101291999999REMMET075METAR LSMA 082050Z AUTO 22003KT 120V280 9999NDV FEW150 02/00 Q1013 RMK BLU;
0136066580999992011010821504+46950+008283AUTO +0442LSMA V0209999V001510390019N0112651N1+00301+00101999999ADDGA1081+039001999GF108991999999999999999999MA1101291999999REMMET067METAR LSMA 082150Z AUTO VRB03KT 9999NDV OVC130 03/01 Q1013 RMK WHT;
0144066580999992011010822504+46950+008283AUTO +0442LSMA V0202101N002112200019N0112651N1+00201+00101999999ADDGA1021+039001999GF102991999999999999999999MA1101191999999REMMET075METAR LSMA 082250Z AUTO 21004KT 170V240 9999NDV FEW130 02/01 Q1012 RMK BLU;
0145066580999992011010823504+46950+008283AUTO +0442LSMA V0201901N002112200019N0112651N1+00201+00001999999ADDGA1021+039001999GF102991999999999999999999MA1101191999999REMMET076METAR LSMA 082350Z AUTO 19004KT 160V230 9999NDV FEW130 02/M00 Q1012 RMK BLU;
0125066580999992011010900504+46950+008283AUTO +0442LSMA V0202201N001512200019N0112651N1+00201+00001999999ADDGF100991999999999999999999MA1101191999999REMMET072METAR LSMA 090050Z AUTO 22003KT 190V250 9999NDV NCD 02/00 Q1012 RMK BLU;
0137066580999992011010901504+46950+008283AUTO +0442LSMA V0209999V001012200019N0112651N1+00001-00101999999ADDGA1021+036001999GF102991999999999999999999MA1101291999999REMMET068METAR LSMA 090150Z AUTO VRB02KT 9999NDV FEW120 00/M01 Q1013 RMK BLU;
0145066580999992011010902504+46950+008283AUTO +0442LSMA V0202001N001512200019N0112651N1+00101+00001999999ADDGA1021+036001999GF102991999999999999999999MA1101291999999REMMET076METAR LSMA 090250Z AUTO 20003KT 170V240 9999NDV FEW120 01/M00 Q1013 RMK BLU;
0118066580999992011010903504+46950+008283AUTO +0442LSMA V0209999V001012200019N0090001N1+00001-00101999999ADDGF100991999999999999999999MA1101191999999REMMET065METAR LSMA 090350Z AUTO VRB02KT 9000NDV NCD 00/M01 Q1012 RMK BLU;
0127066580999992011010904504+46950+008283AUTO +0442LSMA V0201901N001512200019N0112651N1+00001-00101999999ADDGF100991999999999999999999MA1101191999999REMMET074METAR LSMA 090450Z AUTO 19003KT 160V230 9999NDV NCD M00/M01 Q1012 RMK BLU;
0137066580999992011010905504+46950+008283AUTO +0442LSMA V0209999V001010390019N0112651N1+00001-00101999999ADDGA1081+039001999GF108991999999999999999999MA1101191999999REMMET068METAR LSMA 090550Z AUTO VRB02KT 9999NDV OVC130 00/M01 Q1012 RMK WHT;
0145066580999992011010906504+46950+008283AUTO +0442LSMA V0201901N002610390019N0112651N1+00101+00001999999ADDGA1071+039001999GF107991999999999999999999MA1101191999999REMMET076METAR LSMA 090650Z AUTO 19005KT 160V220 9999NDV BKN130 01/M00 Q1012 RMK WHT;
0145066580999992011010907504+46950+008283AUTO +0442LSMA V0202201N001510390019N0112651N1+00101+00001999999ADDGA1081+039001999GF108991999999999999999999MA1101291999999REMMET076METAR LSMA 090750Z AUTO 22003KT 190V260 9999NDV OVC130 01/M00 Q1013 RMK WHT;
0136066580999992011010908504+46950+008283AUTO +0442LSMA V0202001N002110360019N0112651N1+00201+00001999999ADDGA1071+036001999GF107991999999999999999999MA1101291999999REMMET067METAR LSMA 090850Z AUTO 20004KT 9999NDV BKN120 02/00 Q1013 RMK WHT;
0144066580999992011010909504+46950+008283AUTO +0442LSMA V0202101N002112200019N0112651N1+00501+00201999999ADDGA1021+030001999GF102991999999999999999999MA1101391999999REMMET075METAR LSMA 090950Z AUTO 21004KT 170V260 9999NDV FEW100 05/02 Q1014 RMK BLU;
0117066580999992011010910504+46950+008283AUTO +0442LSMA V0209999V001012200019N0112651N1+00701+00201999999ADDGF100991999999999999999999MA1101291999999REMMET064METAR LSMA 091050Z AUTO VRB02KT 9999NDV NCD 07/02 Q1013 RMK BLU;
0136066580999992011010911504+46950+008283AUTO +0442LSMA V0209999C000012200019N0112651N1+00701+00301999999ADDGA1021+024001999GF102991999999999999999999MA1101291999999REMMET067METAR LSMA 091150Z AUTO 00000KT 9999NDV FEW089 07/03 Q1013 RMK BLU;
0167066580999992011010912504+46950+008283AUTO +0442LSMA V0202101N001510210019N0112651N1+00901+00201999999ADDGA1071+021001999GA2081+024001999GF108991999999999999999999MA1101291999999REMMET082METAR LSMA 091250Z AUTO 21003KT 150V270 9999NDV BKN074 OVC084 09/02 Q1013 RMK WHT;
0144066580999992011010913504+46950+008283AUTO +0442LSMA V0200101N001512200019N0112651N1+00901+00401999999ADDGA1041+021001999GF104991999999999999999999MA1101291999999REMMET075METAR LSMA 091350Z AUTO 01003KT 290V050 9999NDV SCT075 09/04 Q1013 RMK BLU;
0136066580999992011010914504+46950+008283AUTO +0442LSMA V0202101N001512200019N0112651N1+00801+00401999999ADDGA1041+024001999GF104991999999999999999999MA1101391999999REMMET067METAR LSMA 091450Z AUTO 21003KT 9999NDV SCT086 08/04 Q1014 RMK BLU;
0159066580999992011010915504+46950+008283AUTO +0442LSMA V0202101N001510270019N0112651N1+00701+00301999999ADDGA1021+011101999GA2071+027001999GF107991999999999999999999MA1101491999999REMMET074METAR LSMA 091550Z AUTO 21003KT 9999NDV FEW037 BKN095 07/03 Q1015 RMK WHT;
0190066580999992011010916504+46950+008283AUTO +0442LSMA V0201901N001510126019N0112651N1+00601+00301999999ADDGA1041+010801999GA2071+012601999GA3081+033001999GF108991999999999999999999MA1101491999999REMMET089METAR LSMA 091650Z AUTO 19003KT 150V220 9999NDV SCT036 BKN042 OVC110 06/03 Q1015 RMK WHT;
0159066580999992011010917504+46950+008283AUTO +0442LSMA V0209999V001010270019N0112651N1+00601+00301999999ADDGA1021+018001999GA2081+027001999GF108991999999999999999999MA1101491999999REMMET074METAR LSMA 091750Z AUTO VRB02KT 9999NDV FEW063 OVC093 06/03 Q1015 RMK WHT;
0148066580999992011010918504+46950+008283AUTO +0442LSMA V0200501N001510180019N0112651N1+00601+00301999999ADDAW1811GA1081+018001999GF108991999999999999999999MA1101591999999REMMET073METAR LSMA 091850Z AUTO 05003KT 9999NDV -SHRA OVC066 06/03 Q1016 RMK WHT;
0171066580999992011010919504+46950+008283AUTO +0442LSMA V0209999V000510123019N0070001N1+00501+00301999999ADDAW1811GA1071+012301999GA2081+015001999GF108991999999999999999999MA1101591999999REMMET080METAR LSMA 091950Z AUTO VRB01KT 7000NDV -SHRA BKN041 OVC052 05/03 Q1016 RMK GRN;
0155066580999992011010920504+46950+008283AUTO +0442LSMA V0209999C000010123019N0050001N1+00501+00301999999ADDAW1101AW2611GA1081+012301999GF108991999999999999999999MA1101691999999REMMET074METAR LSMA 092050Z AUTO 00000KT 5000NDV -RA BR OVC041 05/03 Q1017 RMK GRN;
0200066580999992011010921504+46950+008283AUTO +0442LSMA V0201801N001510099019N0039001N1+00501+00401999999ADDAW1101AW2621GA1041+006001999GA2071+009901999GA3081+012601999GF108991999999999999999999MA1101691999999REMMET087METAR LSMA 092150Z AUTO 18003KT 3900NDV RA BR SCT020 BKN033 OVC042 05/04 Q1017 RMK GRN;
0206066580999992011010922504+46950+008283AUTO +0442LSMA V0202001N000510021019N0044001N1+00501+00401999999ADDAW1101AW2611GA1021+001501999GA2071+002101999GA3081+004501999GF108991999999999999999999MA1101801999999REMMET093METAR LSMA 092250Z AUTO 20001KT 4400NDV -RA BR FEW005 BKN007 OVC015 05/04 Q1018 RERA RMK YLO;
0200066580999992011010923504+46950+008283AUTO +0442LSMA V0209999C000010027019N0030001N1+00501+00401999999ADDAW1101AW2621GA1021+001501999GA2071+002701999GA3081+004201999GF108991999999999999999999MA1101801999999REMMET087METAR LSMA 092350Z AUTO 00000KT 3000NDV RA BR FEW005 BKN009 OVC014 05/04 Q1018 RMK YLO;
0200066580999992011011000504+46950+008283AUTO +0442LSMA V0209999V00101003001CN0033001N1+00501+00401999999ADDAW1101AW2621GA1021+002101999GA2041+003001999GA3081+003901999GF108991999999999999999999MA1101901999999REMMET087METAR LSMA 100050Z AUTO VRB02KT 3300NDV RA BR FEW007 SCT010 OVC013 05/04 Q1019 RMK GRN;
0197066580999992011011001504+46950+008283AUTO +0442LSMA V0209999C000010078019N0080001N1+00501+00401999999ADDAW1611GA1021+002401999GA2071+007801999GA3081+009901999GF108991999999999999999999MA1101901999999REMMET090METAR LSMA 100150Z AUTO 00000KT 8000NDV -RA FEW008 BKN026 OVC033 05/04 Q1019 RERA RMK WHT;
0201066580999992011011002504+46950+008283AUTO +0442LSMA V0209999C000010084019N0048001N1+00401+00401999999ADDAW1101AW2611GA1021+003601999GA2071+008401999GA3081+011701999GF108991999999999999999999MA1101901999999REMMET088METAR LSMA 100250Z AUTO 00000KT 4800NDV -RA BR FEW012 BKN028 OVC039 04/04 Q1019 RMK GRN;
0201066580999992011011003504+46950+008283AUTO +0442LSMA V0209999C00001006901CN0050001N1+00401+00401999999ADDAW1101AW2611GA1021+002701999GA2041+006901999GA3081+007801999GF108991999999999999999999MA1101901999999REMMET088METAR LSMA 100350Z AUTO 00000KT 5000NDV -RA BR FEW009 SCT023 OVC026 04/04 Q1019 RMK GRN;
0201066580999992011011004504+46950+008283AUTO +0442LSMA V0209999C000010078019N0035001N1+00401+00301999999ADDAW1101AW2611GA1021+001501999GA2071+007801999GA3081+015001999GF108991999999999999999999MA1101901999999REMMET088METAR LSMA 100450Z AUTO 00000KT 3500NDV -RA BR FEW005 BKN026 OVC053 04/03 Q1019 RMK GRN;
0201066580999992011011005504+46950+008283AUTO +0442LSMA V0209999C000010075019N0050001N1+00401+00301999999ADDAW1101AW2611GA1041+000601999GA2071+007501999GA3081+009001999GF108991999999999999999999MA1101901999999REMMET088METAR LSMA 100550Z AUTO 00000KT 5000NDV -RA BR SCT002 BKN025 OVC030 04/03 Q1019 RMK GRN;
0170066580999992011011006504+46950+008283FM-15+0442LSMA V0209999C000010072019N0044001N1+00401+00301999999ADDGA1021+000901999GA2081+007201999GF108991999999999999999999MA1101901999999MW1101MW2511REMMET073METAR LSMA 100650Z 00000KT 4400 -DZ BR FEW003 OVC024 04/03 Q1019 RMK GRN;
0183066580999992011011007504+46950+008283FM-15+0442LSMA V0209999C000010039019N0035001N1+00401+00301999999ADDGA1021+002701999GA2071+003901999GA3081+006301999GF108991999999999999999999MA1102001999999MW1101REMMET076METAR LSMA 100750Z 00000KT 3500 BR FEW009 BKN013 OVC021 04/03 Q1020 RMK GRN;
0160066580999992011011008504+46950+008283FM-15+0442LSMA V0209999C000010021019N0050001N1+00401+00401999999ADDGA1041+001501999GA2081+002101999GF108991999999999999999999MA1102001999999MW1101REMMET069METAR LSMA 100850Z 00000KT 5000 BR SCT005 OVC007 04/04 Q1020 RMK YLO;
0151066580999992011011009504+46950+008283FM-15+0442LSMA V0200701N002610027019N0112651N1+00501+00301999999ADDGA1041+002101999GA2081+002701999GF108991999999999999999999MA1102001999999REMMET066METAR LSMA 100950Z 07005KT 9999 SCT007 OVC009 05/03 Q1020 RMK YLO;
0128066580999992011011010504+46950+008283FM-15+0442LSMA V0200401N002610024019N0112651N1+00501+00301999999ADDGA1081+002401999GF108991999999999999999999MA1102001999999REMMET059METAR LSMA 101050Z 04005KT 9999 OVC008 05/03 Q1020 RMK YLO;
0128066580999992011011011504+46950+008283FM-15+0442LSMA V0209999C000010021019N0112651N1+00501+00301999999ADDGA1081+002101999GF108991999999999999999999MA1101901999999REMMET059METAR LSMA 101150Z 00000KT 9999 OVC007 05/03 Q1019 RMK YLO;
0128066580999992011011012504+46950+008283FM-15+0442LSMA V0200101N001510021019N0070001N1+00501+00301999999ADDGA1081+002101999GF108991999999999999999999MA1101901999999REMMET059METAR LSMA 101250Z 01003KT 7000 OVC007 05/03 Q1019 RMK YLO;
0151066580999992011011013504+46950+008283FM-15+0442LSMA V0200401N002610021019N0060001N1+00401+00301999999ADDGA1071+002101999GA2081+003001999GF108991999999999999999999MA1101801999999REMMET066METAR LSMA 101350Z 04005KT 6000 BKN007 OVC010 04/03 Q1018 RMK YLO;
0159066580999992011011014504+46950+008283FM-15+0442LSMA V0200401N002610024019N0060001N1+00401+00301999999ADDGA1041+001801999GA2081+002401999GF108991999999999999999999MA1101801999999REMMET074METAR LSMA 101450Z 04005KT 010V070 6000 SCT006 OVC008 04/03 Q1018 RMK YLO;
0159066580999992011011016004+46950+008283AUTO +0442LSMA V0209999C000010027019N0060001N1+00401+00301999999ADDGA1041+001801999GA2081+002701999GF108991999999999999999999MA1101801999999REMMET074METAR LSMA 101600Z AUTO 00000KT 6000NDV SCT006 OVC009 04/03 Q1018 RMK YLO;
0136066580999992011011016504+46950+008283AUTO +0442LSMA V0209999C000010021019N0060001N1+00401+00301999999ADDGA1081+002101999GF108991999999999999999999MA1101691999999REMMET067METAR LSMA 101650Z AUTO 00000KT 6000NDV OVC007 04/03 Q1017 RMK YLO;
0145066580999992011011017504+46950+008283AUTO +0442LSMA V0209999C000010021019N0049001N1+00401+00301999999ADDAW1101GA1081+002101999GF108991999999999999999999MA1101691999999REMMET070METAR LSMA 101750Z AUTO 00000KT 4900NDV BR OVC007 04/03 Q1017 RMK YLO;
0136066580999992011011018504+46950+008283AUTO +0442LSMA V0209999V001010021019N0050001N1+00401+00301999999ADDGA1081+002101999GF108991999999999999999999MA1101691999999REMMET067METAR LSMA 101850Z AUTO VRB02KT 5000NDV OVC007 04/03 Q1017 RMK YLO;
0182066580999992011011019504+46950+008283AUTO +0442LSMA V0209999C000010027019N0050001N1+00401+00201999999ADDGA1021+001801999GA2071+002701999GA3081+005401999GF108991999999999999999999MA1101691999999REMMET081METAR LSMA 101950Z AUTO 00000KT 5000NDV FEW006 BKN009 OVC018 04/02 Q1017 RMK YLO;
0168066580999992011011020504+46950+008283AUTO +0442LSMA V0209999C000010054019N0045001N1+00301+00201999999ADDAW1101GA1021+002401999GA2081+005401999GF108991999999999999999999MA1101691999999REMMET077METAR LSMA 102050Z AUTO 00000KT 4500NDV BR FEW008 OVC018 03/02 Q1017 RMK GRN;
0168066580999992011011021504+46950+008283AUTO +0442LSMA V0209999C000010054019N0050001N1+00401+00201999999ADDAW1101GA1021+003001999GA2081+005401999GF108991999999999999999999MA1101691999999REMMET077METAR LSMA 102150Z AUTO 00000KT 5000NDV BR FEW010 OVC018 04/02 Q1017 RMK GRN;
0168066580999992011011022504+46950+008283AUTO +0442LSMA V0209999V000510057019N0047001N1+00301+00201999999ADDAW1101GA1021+003001999GA2081+005701999GF108991999999999999999999MA1101591999999REMMET077METAR LSMA 102250Z AUTO VRB01KT 4700NDV BR FEW010 OVC019 03/02 Q1016 RMK GRN;
0145066580999992011011023504+46950+008283AUTO +0442LSMA V0209999C000010063019N0046001N1+00301+00201999999ADDAW1101GA1081+006301999GF108991999999999999999999MA1101591999999REMMET070METAR LSMA 102350Z AUTO 00000KT 4600NDV BR OVC021 03/02 Q1016 RMK GRN;
0168066580999992011011100504+46950+008283AUTO +0442LSMA V0209999C000010063019N0046001N1+00301+00201999999ADDAW1101GA1021+002701999GA2081+006301999GF108991999999999999999999MA1101491999999REMMET077METAR LSMA 110050Z AUTO 00000KT 4600NDV BR FEW009 OVC021 03/02 Q1015 RMK GRN;
0168066580999992011011101504+46950+008283AUTO +0442LSMA V0209999V000510066019N0045001N1+00301+00201999999ADDAW1101GA1021+002101999GA2081+006601999GF108991999999999999999999MA1101491999999REMMET077METAR LSMA 110150Z AUTO VRB01KT 4500NDV BR FEW007 OVC022 03/02 Q1015 RMK GRN;
0145066580999992011011102504+46950+008283AUTO +0442LSMA V0209999V000510063019N0047001N1+00301+00201999999ADDAW1101GA1081+006301999GF108991999999999999999999MA1101491999999REMMET070METAR LSMA 110250Z AUTO VRB01KT 4700NDV BR OVC021 03/02 Q1015 RMK GRN;
0145066580999992011011103504+46950+008283AUTO +0442LSMA V0209999C000010060019N0047001N1+00301+00201999999ADDAW1101GA1081+006001999GF108991999999999999999999MA1101391999999REMMET070METAR LSMA 110350Z AUTO 00000KT 4700NDV BR OVC020 03/02 Q1014 RMK GRN;
0145066580999992011011104504+46950+008283AUTO +0442LSMA V0209999C000010063019N0044001N1+00301+00201999999ADDAW1101GA1081+006301999GF108991999999999999999999MA1101391999999REMMET070METAR LSMA 110450Z AUTO 00000KT 4400NDV BR OVC021 03/02 Q1014 RMK GRN;
0137066580999992011011105504+46950+008283FM-15+0442LSMA V0209999C000010060019N0047001N1+00301+00201999999ADDGA1081+006001999GF108991999999999999999999MA1101291999999MW1101REMMET062METAR LSMA 110550Z 00000KT 4700 BR OVC020 03/02 Q1013 RMK GRN;
0137066580999992011011106504+46950+008283FM-15+0442LSMA V0201901N000510057019N0050001N1+00301+00201999999ADDGA1081+005701999GF108991999999999999999999MA1101291999999MW1101REMMET062METAR LSMA 110650Z 19001KT 5000 BR OVC019 03/02 Q1013 RMK GRN;
0160066580999992011011107504+46950+008283FM-15+0442LSMA V0209999C000010051019N0043001N1+00301+00201999999ADDGA1021+002401999GA2081+005101999GF108991999999999999999999MA1101191999999MW1101REMMET069METAR LSMA 110750Z 00000KT 4300 BR FEW008 OVC017 03/02 Q1012 RMK GRN;
0128066580999992011011108504+46950+008283FM-15+0442LSMA V0209999C000010045019N0112651N1+00301+00201999999ADDGA1081+004501999GF108991999999999999999999MA1101191999999REMMET059METAR LSMA 110850Z 00000KT 9999 OVC015 03/02 Q1012 RMK GRN;
0136066580999992011011111504+46950+008283FM-15+0442LSMA V0200301N001512200019N0112651N1+00501+00101999999ADDGA1021+004501999GF102991999999999999999999MA1101021999999REMMET067METAR LSMA 111150Z 03003KT 340V120 9999 FEW015 05/01 Q1010 RMK BLU;
0128066580999992011011112504+46950+008283FM-15+0442LSMA V0209999V001010048019N0112651N1+00501+00101999999ADDGA1071+004801999GF107991999999999999999999MA1101021999999REMMET059METAR LSMA 111250Z VRB02KT 9999 BKN016 05/01 Q1010 RMK GRN;
0151066580999992011011113504+46950+008283FM-15+0442LSMA V0209999C000010054019N0112651N1+00501+00101999999ADDGA1071+005401999GA2081+006601999GF108991999999999999999999MA1101021999999REMMET066METAR LSMA 111350Z 00000KT 9999 BKN018 OVC022 05/01 Q1010 RMK GRN;
0136066580999992011011114504+46950+008283AUTO +0442LSMA V0209999V001010057019N0112651N1+00501+00201999999ADDGA1081+005701999GF108991999999999999999999MA1101081999999REMMET067METAR LSMA 111450Z AUTO VRB02KT 9999NDV OVC019 05/02 Q1011 RMK GRN;
0192066580999992011011115504+46950+008283AUTO +0442LSMA V0201901N001510093019N0080001N1+00401+00201999999ADDAW1611GA1021+007801999GA2071+009301999GA3081+012001999GF108991999999999999999999MA1101081999999REMMET085METAR LSMA 111550Z AUTO 19003KT 8000NDV -RA FEW026 BKN031 OVC040 04/02 Q1011 RMK WHT;
0169066580999992011011116504+46950+008283AUTO +0442LSMA V0209999V000510111019N0050001N1+00401+00201999999ADDAW1611GA1021+008101999GA2081+011101999GF108991999999999999999999MA1101191999999REMMET078METAR LSMA 111650Z AUTO VRB01KT 5000NDV -RA FEW027 OVC037 04/02 Q1012 RMK GRN;
0194066580999992011011117504+46950+008283AUTO +0442LSMA V0209999C000010114019N0050001N1+00401+00201999999ADDAW1811GA1021+009301999GA2071+011401999GA3081+015001999GF108991999999999999999999MA1101291999999REMMET087METAR LSMA 111750Z AUTO 00000KT 5000NDV -SHRA FEW031 BKN038 OVC050 04/02 Q1013 RMK GRN;
0171066580999992011011118504+46950+008283AUTO +0442LSMA V0209999C000010144019N0060001N1+00401+00301999999ADDAW1811GA1041+010801999GA2081+014401999GF108991999999999999999999MA1101391999999REMMET080METAR LSMA 111850Z AUTO 00000KT 6000NDV -SHRA SCT036 OVC048 04/03 Q1014 RMK GRN;
0201066580999992011011119504+46950+008283AUTO +0442LSMA V0209999V00101008701CN0044001N1+00401+00201999999ADDAW1101AW2611GA1021+005101999GA2041+008701999GA3071+013501999GF107991999999999999999999MA1101491999999REMMET088METAR LSMA 111950Z AUTO VRB02KT 4400NDV -RA BR FEW017 SCT029 BKN045 04/02 Q1015 RMK GRN;
0209066580999992011011120504+46950+008283AUTO +0442LSMA V0202501N00151011101CN0050001N1+00301+00201999999ADDAW1101AW2511GA1021+002401999GA2041+011101999GA3081+012901999GF108991999999999999999999MA1101591999999REMMET096METAR LSMA 112050Z AUTO 25003KT 230V290 5000NDV -DZ BR FEW008 SCT037 OVC043 03/02 Q1016 RMK GRN;
0145066580999992011011121504+46950+008283AUTO +0442LSMA V0202101N001510129019N0046001N1+00301+00201999999ADDAW1101GA1081+012901999GF108991999999999999999999MA1101691999999REMMET070METAR LSMA 112150Z AUTO 21003KT 4600NDV BR OVC043 03/02 Q1017 RMK GRN;
0168066580999992011011122504+46950+008283AUTO +0442LSMA V0209999V001010117019N0047001N1+00301+00201999999ADDAW1101GA1071+011701999GA2081+021001999GF108991999999999999999999MA1101801999999REMMET077METAR LSMA 112250Z AUTO VRB02KT 4700NDV BR BKN039 OVC070 03/02 Q1018 RMK GRN;
0203066580999992011011123504+46950+008283AUTO +0442LSMA V0209999V00101018001CN0039001N1+00301+00201999999ADDAW1101AW2811GA1021+013201999GA2041+018001999GA3071+021001999GF107991999999999999999999MA1101801999999REMMET090METAR LSMA 112350Z AUTO VRB02KT 3900NDV -SHRA BR FEW044 SCT066 BKN079 03/02 Q1018 RMK GRN;
0176066580999992011011200504+46950+008283AUTO +0442LSMA V0201801N001510240019N0028001N1+00201+00101999999ADDAW1101GA1021+001501999GA2071+024001999GF107991999999999999999999MA1101801999999REMMET085METAR LSMA 120050Z AUTO 18003KT 150V240 2800NDV BR FEW005 BKN080 02/01 Q1018 RMK YLO;
0168066580999992011011201504+46950+008283AUTO +0442LSMA V0209999V000510210019N0031001N1+00201+00201999999ADDAW1101GA1021+001201999GA2081+021001999GF108991999999999999999999MA1101901999999REMMET077METAR LSMA 120150Z AUTO VRB01KT 3100NDV BR FEW004 OVC078 02/02 Q1019 RMK GRN;
0168066580999992011011202504+46950+008283AUTO +0442LSMA V0209999C000010180019N0022001N1+00301+00201999999ADDAW1101GA1071+018001999GA2081+021001999GF108991999999999999999999MA1102001999999REMMET077METAR LSMA 120250Z AUTO 00000KT 2200NDV BR BKN063 OVC079 03/02 Q1020 RMK YLO;
0168066580999992011011203504+46950+008283AUTO +0442LSMA V0209999V001010210019N0022001N1+00201+00101999999ADDAW1101GA1041+018001999GA2081+021001999GF108991999999999999999999MA1102001999999REMMET077METAR LSMA 120350Z AUTO VRB02KT 2200NDV BR SCT063 OVC074 02/01 Q1020 RMK YLO;
0176066580999992011011204504+46950+008283AUTO +0442LSMA V0202101N001512200019N0025001N1+00201+00101999999ADDAW1101GA1021+018001999GA2041+021001999GF104991999999999999999999MA1102001999999REMMET085METAR LSMA 120450Z AUTO 21003KT 170V240 2500NDV BR FEW063 SCT072 02/01 Q1020 RMK YLO;
0191066580999992011011205504+46950+008283FM-15+0442LSMA V0202301N00151015001CN0039001N1+00201+00101999999ADDGA1021+012901999GA2041+015001999GA3081+018001999GF108991999999999999999999MA1102101999999MW1101REMMET084METAR LSMA 120550Z 23003KT 190V260 3900 BR FEW043 SCT055 OVC067 02/01 Q1021 RMK GRN;
0183066580999992011011206504+46950+008283FM-15+0442LSMA V0209999V001510150019N0037001N1+00201+00101999999ADDGA1041+013801999GA2071+015001999GA3081+042001999GF108991999999999999999999MA1102201999999MW1101REMMET076METAR LSMA 120650Z VRB03KT 3700 BR SCT046 BKN054 OVC140 02/01 Q1022 RMK GRN;
0197066580999992011011207504+46950+008283FM-15+0442LSMA V0209999V00101036001CN0012001N1+00201+00201999999ADDED101U15009GA1021+000901999GA2071+036001999GF108991999999999999999999MA1102201999999REMMET101METAR LSMA 120750Z VRB02KT 1200 R01/1500VP2000D R19/1500VP2000D BR FEW003 BKN120 02/02 Q1022 RMK RED;
0183066580999992011011208504+46950+008283FM-15+0442LSMA V0209999V001010330019N0021001N1+00301+00201999999ADDGA1021+000301999GA2071+033001999GA3071+042001999GF107991999999999999999999MA1102201999999MW1101REMMET076METAR LSMA 120850Z VRB02KT 2100 BR FEW001 BKN110 BKN140 03/02 Q1022 RMK YLO;
0145066580999992011011209504+46950+008283FM-15+0442LSMA V0202901N001510300019N0026001N1+00401+00301999999ADDGA1081+030001999GF108991999999999999999999MA1102301999999MW1101REMMET070METAR LSMA 120950Z 29003KT 240V310 2600 BR OVC100 04/03 Q1023 RMK YLO;
0137066580999992011011210504+46950+008283FM-15+0442LSMA V0209999V001010270019N0040001N1+00501+00301999999ADDGA1071+027001999GF107991999999999999999999MA1102301999999MW1101REMMET062METAR LSMA 121050Z VRB02KT 4000 BR BKN093 05/03 Q1023 RMK GRN;
0151066580999992011011211504+46950+008283FM-15+0442LSMA V0209999V001010210019N0090001N1+00501+00301999999ADDGA1021+002401999GA2071+021001999GF107991999999999999999999MA1102201999999REMMET066METAR LSMA 121150Z VRB02KT 9000 FEW008 BKN078 05/03 Q1022 RMK WHT;
0128066580999992011011212504+46950+008283FM-15+0442LSMA V0209999C000010240019N0112651N1+00601+00401999999ADDGA1081+024001999GF108991999999999999999999MA1102201999999REMMET059METAR LSMA 121250Z 00000KT 9999 OVC081 06/04 Q1022 RMK WHT;
0128066580999992011011213504+46950+008283FM-15+0442LSMA V0209999V001010180019N0112651N1+00701+00401999999ADDGA1071+018001999GF107991999999999999999999MA1102201999999REMMET059METAR LSMA 121350Z VRB02KT 9999 BKN066 07/04 Q1022 RMK WHT;
0159066580999992011011214504+46950+008283FM-15+0442LSMA V0201901N002110144019N0112651N1+00601+00401999999ADDGA1021+012601999GA2081+014401999GF108991999999999999999999MA1102201999999REMMET074METAR LSMA 121450Z 19004KT 160V250 9999 FEW042 OVC048 06/04 Q1022 RMK WHT;
0154066580999992011011215504+46950+008283AUTO +0442LSMA V0202101N002110111019N0080001N1+00601+00401999999ADDAW1611GA1081+011101999GF108991999999999999999999MA1102201999999REMMET079METAR LSMA 121550Z AUTO 21004KT 180V240 8000NDV -RA OVC037 06/04 Q1022 RMK WHT;
0144066580999992011011216504+46950+008283AUTO +0442LSMA V0202601N002110150019N0112651N1+00501+00401999999ADDGA1081+015001999GF108991999999999999999999MA1102201999999REMMET075METAR LSMA 121650Z AUTO 26004KT 230V290 9999NDV OVC054 05/04 Q1022 RMK WHT;
0154066580999992011011217504+46950+008283AUTO +0442LSMA V0200101N001510150019N0112651N1+00501+00401999999ADDAW1611GA1081+015001999GF108991999999999999999999MA1102201999999REMMET079METAR LSMA 121750Z AUTO 01003KT 340V040 9999NDV -RA OVC052 05/04 Q1022 RMK WHT;
0155066580999992011011218504+46950+008283AUTO +0442LSMA V0209999C000010150019N0046001N1+00501+00401999999ADDAW1101AW2611GA1081+015001999GF108991999999999999999999MA1102201999999REMMET074METAR LSMA 121850Z AUTO 00000KT 4600NDV -RA BR OVC050 05/04 Q1022 RMK GRN;
0178066580999992011011219504+46950+008283AUTO +0442LSMA V0209999C000010150019N0042001N1+00501+00401999999ADDAW1101AW2611GA1071+015001999GA2081+015001999GF108991999999999999999999MA1102201999999REMMET081METAR LSMA 121950Z AUTO 00000KT 4200NDV -RA BR BKN052 OVC059 05/04 Q1022 RMK GRN;
0157066580999992011011220504+46950+008283AUTO +0442LSMA V0209999C000010150019N0029001N1+00501+00401999999ADDAW1101AW2811GA1081+015001999GF108991999999999999999999MA1102201999999REMMET076METAR LSMA 122050Z AUTO 00000KT 2900NDV -SHRA BR OVC053 05/04 Q1022 RMK YLO;
0178066580999992011011221504+46950+008283AUTO +0442LSMA V0209999V000510150019N0034001N1+00501+00401999999ADDAW1101AW2611GA1021+000601999GA2081+015001999GF108991999999999999999999MA1102201999999REMMET081METAR LSMA 122150Z AUTO VRB01KT 3400NDV -RA BR FEW002 OVC053 05/04 Q1022 RMK GRN;
0155066580999992011011222504+46950+008283AUTO +0442LSMA V0209999V000510150019N0027001N1+00401+00401999999ADDAW1101AW2611GA1081+015001999GF108991999999999999999999MA1102201999999REMMET074METAR LSMA 122250Z AUTO VRB01KT 2700NDV -RA BR OVC056 04/04 Q1022 RMK YLO;
0178066580999992011011223504+46950+008283AUTO +0442LSMA V0209999C000010150019N0022001N1+00401+00401999999ADDAW1101AW2611GA1021+000901999GA2071+015001999GF107991999999999999999999MA1102201999999REMMET081METAR LSMA 122350Z AUTO 00000KT 2200NDV -RA BR FEW003 BKN053 04/04 Q1022 RMK YLO;
0200066580999992011011300504+46950+008283AUTO +0442LSMA V0209999V000510081019N0018001N1+00401+00401999999ADDAW1101AW2621GA1041+000601999GA2071+008101999GA3081+013501999GF108991999999999999999999MA1102201999999REMMET087METAR LSMA 130050Z AUTO VRB01KT 1800NDV RA BR SCT002 BKN027 OVC045 04/04 Q1022 RMK AMB;
0206066580999992011011301504+46950+008283AUTO +0442LSMA V0202101N002110141019N0029001N1+00501+00401999999ADDAW1101AW2611GA1021+012301999GA2071+014101999GA3081+015001999GF108991999999999999999999MA1102101999999REMMET093METAR LSMA 130150Z AUTO 21004KT 2900NDV -RA BR FEW041 BKN047 OVC053 05/04 Q1021 RERA RMK YLO;
0176066580999992011011302494+46950+008283AUTO +0442LSMA V0202101N003110150019N0090001N1+00801+00601999999ADDAW1621GA1071+015001999GA2081+018001999GF108991999999999999999999MA1102101999999REMMET085METAR LSMA 130249Z AUTO 21006KT 150V240 9000NDV RA BKN051 OVC062 08/06 Q1021 RMK WHT;
0199066580999992011011303504+46950+008283AUTO +0442LSMA V0202501N002110144019N0112651N1+00801+00601999999ADDAW1621GA1021+011101999GA2071+014401999GA3081+015001999GF108991999999999999999999MA1102101999999REMMET092METAR LSMA 130350Z AUTO 25004KT 210V270 9999NDV RA FEW037 BKN048 OVC059 08/06 Q1021 RMK WHT;
0174066580999992011011304504+46950+008283AUTO +0442LSMA V0202301N002610150019N0112651N1+00801+00601999999ADDAW1611GA1021+011701999GA2081+015001999GF108991999999999999999999MA1102101999999REMMET083METAR LSMA 130450Z AUTO 23005KT 9999NDV -RA FEW039 OVC053 08/06 Q1021 RERA RMK WHT;
0166066580999992011011305504+46950+008283FM-15+0442LSMA V0209999V000510150019N0112651N1+00801+00601999999ADDGA1071+015001999GA2081+015001999GF108991999999999999999999MA1102101999999MW1611REMMET075METAR LSMA 130550Z VRB01KT 9999 -RA BKN050 OVC058 08/06 Q1021 RERA RMK WHT;
0138066580999992011011306504+46950+008283FM-15+0442LSMA V0209999V001010138019N0112651N1+00701+00601999999ADDGA1081+013801999GF108991999999999999999999MA1102101999999MW1611REMMET063METAR LSMA 130650Z VRB02KT 9999 -RA OVC046 07/06 Q1021 RMK WHT;
0186066580999992011011307504+46950+008283FM-15+0442LSMA V0209999V000510144019N0070001N1+00701+00601999999ADDGA1071+014401999GA2071+015001999GA3081+024001999GF108991999999999999999999MA1102101999999MW1801REMMET079METAR LSMA 130750Z VRB01KT 7000 -SHRA BKN048 BKN054 OVC088 07/06 Q1021 RMK GRN;
0180066580999992011011308504+46950+008283FM-15+0442LSMA V0202001N00151015001CN0046001N1+00701+00601999999ADDGA1021+015001999GA2081+015001999GF108991999999999999999999MA1102101999999MW1101MW2801REMMET083METAR LSMA 130850Z 20003KT 150V300 4600 -SHRA BR FEW050 OVC058 07/06 Q1021 RMK GRN;
0169066580999992011011309504+46950+008283FM-15+0442LSMA V0200401N001510210019N0090001N1+00801+00701999999ADDGA1021+011401999GA2071+021001999GF107991999999999999999999MA1102101999999MW1611REMMET078METAR LSMA 130950Z 04003KT 360V060 9000 -RA FEW038 BKN078 08/07 Q1021 RMK WHT;
0128066580999992011011310504+46950+008283FM-15+0442LSMA V0209999V001010210019N0112651N1+00801+00701999999ADDGA1071+021001999GF107991999999999999999999MA1102101999999REMMET059METAR LSMA 131050Z VRB02KT 9999 BKN079 08/07 Q1021 RMK WHT;
0128066580999992011011311504+46950+008283FM-15+0442LSMA V0209999V000510300019N0112651N1+00901+00701999999ADDGA1071+030001999GF107991999999999999999999MA1102101999999REMMET059METAR LSMA 131150Z VRB01KT 9999 BKN100 09/07 Q1021 RMK WHT;
0128066580999992011011312504+46950+008283FM-15+0442LSMA V0209999V001010300019N0112651N1+01001+00801999999ADDGA1071+030001999GF107991999999999999999999MA1102001999999REMMET059METAR LSMA 131250Z VRB02KT 9999 BKN100 10/08 Q1020 RMK WHT;
0159066580999992011011313504+46950+008283FM-15+0442LSMA V0200201N002110420019N0112651N1+01001+00801999999ADDGA1021+030001999GA2071+042001999GF107991999999999999999999MA1102001999999REMMET074METAR LSMA 131350Z 02004KT 320V070 9999 FEW100 BKN140 10/08 Q1020 RMK WHT;
0128066580999992011011314504+46950+008283FM-15+0442LSMA V0209999C000010270019N0112651N1+01001+00801999999ADDGA1071+027001999GF107991999999999999999999MA1102101999999REMMET059METAR LSMA 131450Z 00000KT 9999 BKN092 10/08 Q1021 RMK WHT;
0159066580999992011011316504+46950+008283AUTO +0442LSMA V0209999C000010240019N0112651N1+00901+00701999999ADDGA1071+024001999GA2081+033001999GF108991999999999999999999MA1102001999999REMMET074METAR LSMA 131650Z AUTO 00000KT 9999NDV BKN081 OVC110 09/07 Q1020 RMK WHT;
0159066580999992011011317504+46950+008283AUTO +0442LSMA V0209999C000010330019N0112651N1+00801+00701999999ADDGA1041+024001999GA2081+033001999GF108991999999999999999999MA1102001999999REMMET074METAR LSMA 131750Z AUTO 00000KT 9999NDV SCT082 OVC110 08/07 Q1020 RMK WHT;
0182066580999992011011319214+46950+008283AUTO +0442LSMA V0209999C000010420019N0038001N1+00701+00601999999ADDGA1021+015001999GA2071+042001999GA3081+048001999GF108991999999999999999999MA1102101999999REMMET081METAR LSMA 131921Z AUTO 00000KT 3800NDV FEW057 BKN140 OVC160 07/06 Q1021 RMK GRN;
0168066580999992011011319504+46950+008283AUTO +0442LSMA V0209999V001010150019N0050001N1+00701+00601999999ADDAW1101GA1071+015001999GA2081+042001999GF108991999999999999999999MA1102101999999REMMET077METAR LSMA 131950Z AUTO VRB02KT 5000NDV BR BKN054 OVC140 07/06 Q1021 RMK GRN;
0136066580999992011011320504+46950+008283AUTO +0442LSMA V0209999V000510150019N0112651N1+00701+00601999999ADDGA1071+015001999GF107991999999999999999999MA1102101999999REMMET067METAR LSMA 132050Z AUTO VRB01KT 9999NDV BKN052 07/06 Q1021 RMK WHT;
0191066580999992011011321504+46950+008283AUTO +0442LSMA V0209999V001010240019N0043001N1+00601+00501999999ADDAW1101GA1021+018001999GA2071+024001999GA3071+027001999GF107991999999999999999999MA1102101999999REMMET084METAR LSMA 132150Z AUTO VRB02KT 4300NDV BR FEW063 BKN085 BKN098 06/05 Q1021 RMK GRN;
0168066580999992011011322504+46950+008283AUTO +0442LSMA V0202201N001010240019N0060001N1+00601+00501999999ADDAW1101GA1071+024001999GA2081+027001999GF108991999999999999999999MA1102101999999REMMET077METAR LSMA 132250Z AUTO 22002KT 6000NDV BR BKN083 OVC095 06/05 Q1021 RMK GRN;
0136066580999992011011323504+46950+008283AUTO +0442LSMA V0209999C000010210019N0080001N1+00601+00601999999ADDGA1081+021001999GF108991999999999999999999MA1102101999999REMMET067METAR LSMA 132350Z AUTO 00000KT 8000NDV OVC074 06/06 Q1021 RMK WHT;
0145066580999992011011400504+46950+008283AUTO +0442LSMA V0201901N001010210019N0050001N1+00601+00501999999ADDAW1101GA1081+021001999GF108991999999999999999999MA1102101999999REMMET070METAR LSMA 140050Z AUTO 19002KT 5000NDV BR OVC073 06/05 Q1021 RMK GRN;
0136066580999992011011401504+46950+008283AUTO +0442LSMA V0209999V001010210019N0060001N1+00601+00601999999ADDGA1081+021001999GF108991999999999999999999MA1102201999999REMMET067METAR LSMA 140150Z AUTO VRB02KT 6000NDV OVC075 06/06 Q1022 RMK GRN;
0136066580999992011011402504+46950+008283AUTO +0442LSMA V0202101N001510210019N0070001N1+00601+00501999999ADDGA1071+021001999GF107991999999999999999999MA1102201999999REMMET067METAR LSMA 140250Z AUTO 21003KT 7000NDV BKN077 06/05 Q1022 RMK GRN;
0168066580999992011011403504+46950+008283AUTO +0442LSMA V0209999C000010240019N0045001N1+00501+00401999999ADDAW1101GA1021+012901999GA2081+024001999GF108991999999999999999999MA1102201999999REMMET077METAR LSMA 140350Z AUTO 00000KT 4500NDV BR FEW043 OVC085 05/04 Q1022 RMK GRN;
0191066580999992011011404504+46950+008283AUTO +0442LSMA V0202101N001510126019N0050001N1+00501+00401999999ADDAW1101GA1041+009901999GA2071+012601999GA3071+024001999GF107991999999999999999999MA1102101999999REMMET084METAR LSMA 140450Z AUTO 21003KT 5000NDV BR SCT033 BKN042 BKN085 05/04 Q1021 RMK GRN;
0151066580999992011011405504+46950+008283FM-15+0442LSMA V0201901N001510120019N0060001N1+00501+00401999999ADDGA1021+009901999GA2071+012001999GF107991999999999999999999MA1102201999999REMMET066METAR LSMA 140550Z 19003KT 6000 FEW033 BKN040 05/04 Q1022 RMK GRN;
0128066580999992011011406504+46950+008283FM-15+0442LSMA V0209999V001010108019N0080001N1+00601+00501999999ADDGA1081+010801999GF108991999999999999999999MA1102201999999REMMET059METAR LSMA 140650Z VRB02KT 8000 OVC036 06/05 Q1022 RMK WHT;
0128066580999992011011407504+46950+008283FM-15+0442LSMA V0202001N002110117019N0080001N1+00601+00501999999ADDGA1071+011701999GF107991999999999999999999MA1102201999999REMMET059METAR LSMA 140750Z 20004KT 8000 BKN039 06/05 Q1022 RMK WHT;
0128066580999992011011408504+46950+008283FM-15+0442LSMA V0209999V001010114019N0080001N1+00701+00501999999ADDGA1071+011401999GF107991999999999999999999MA1102201999999REMMET059METAR LSMA 140850Z VRB02KT 8000 BKN038 07/05 Q1022 RMK WHT;
0128066580999992011011409504+46950+008283FM-15+0442LSMA V0209999V000510150019N0112651N1+00801+00601999999ADDGA1071+015001999GF107991999999999999999999MA1102101999999REMMET059METAR LSMA 140950Z VRB01KT 9999 BKN050 08/06 Q1021 RMK WHT;
0128066580999992011011410504+46950+008283FM-15+0442LSMA V0209999V000510105019N0112651N1+01001+00701999999ADDGA1071+010501999GF107991999999999999999999MA1102101999999REMMET059METAR LSMA 141050Z VRB01KT 9999 BKN035 10/07 Q1021 RMK WHT;
0128066580999992011011411504+46950+008283FM-15+0442LSMA V0209999V001010099019N0112651N1+01101+00701999999ADDGA1071+009901999GF107991999999999999999999MA1102101999999REMMET059METAR LSMA 141150Z VRB02KT 9999 BKN033 11/07 Q1021 RMK WHT;
0159066580999992011011412504+46950+008283FM-15+0442LSMA V0203501N002110096019N0112651N1+01201+00601999999ADDGA1021+008401999GA2071+009601999GF107991999999999999999999MA1102001999999REMMET074METAR LSMA 141250Z 35004KT 310V050 9999 FEW028 BKN032 12/06 Q1020 RMK WHT;
0128066580999992011011413504+46950+008283FM-15+0442LSMA V0200301N003110090019N0112651N1+01101+00601999999ADDGA1071+009001999GF107991999999999999999999MA1102001999999REMMET059METAR LSMA 141350Z 03006KT 9999 BKN030 11/06 Q1020 RMK WHT;
0136066580999992011011414504+46950+008283FM-15+0442LSMA V0200501N002610099019N0112651N1+01101+00601999999ADDGA1071+009901999GF107991999999999999999999MA1102001999999REMMET067METAR LSMA 141450Z 05005KT 020V080 9999 BKN033 11/06 Q1020 RMK WHT;
0136066580999992011011415504+46950+008283AUTO +0442LSMA V0209999V000510096019N0112651N1+01001+00601999999ADDGA1081+009601999GF108991999999999999999999MA1102001999999REMMET067METAR LSMA 141550Z AUTO VRB01KT 9999NDV OVC032 10/06 Q1020 RMK WHT;
0136066580999992011011416504+46950+008283AUTO +0442LSMA V0201901N002610084019N0112651N1+00801+00601999999ADDGA1071+008401999GF107991999999999999999999MA1101901999999REMMET067METAR LSMA 141650Z AUTO 19005KT 9999NDV BKN028 08/06 Q1019 RMK WHT;
0117066580999992011011417504+46950+008283AUTO +0442LSMA V0209999V001012200019N0112651N1+00601+00401999999ADDGF100991999999999999999999MA1101901999999REMMET064METAR LSMA 141750Z AUTO VRB02KT 9999NDV NCD 06/04 Q1019 RMK BLU;
0117066580999992011011418504+46950+008283AUTO +0442LSMA V0209999V001012200019N0112651N1+00501+00401999999ADDGF100991999999999999999999MA1101901999999REMMET064METAR LSMA 141850Z AUTO VRB02KT 9999NDV NCD 05/04 Q1019 RMK BLU;
0117066580999992011011419504+46950+008283AUTO +0442LSMA V0202101N001012200019N0112651N1+00401+00301999999ADDGF100991999999999999999999MA1101901999999REMMET064METAR LSMA 141950Z AUTO 21002KT 9999NDV NCD 04/03 Q1019 RMK BLU;
0136066580999992011011420504+46950+008283AUTO +0442LSMA V0209999V001012200019N0112651N1+00401+00301999999ADDGA1021+008401999GF102991999999999999999999MA1102001999999REMMET067METAR LSMA 142050Z AUTO VRB02KT 9999NDV FEW028 04/03 Q1020 RMK BLU;
0136066580999992011011421504+46950+008283AUTO +0442LSMA V0209999V001012200019N0070001N1+00301+00201999999ADDGA1021+063001999GF102991999999999999999999MA1102101999999REMMET067METAR LSMA 142150Z AUTO VRB02KT 7000NDV FEW210 03/02 Q1021 RMK GRN;
0136066580999992011011422504+46950+008283AUTO +0442LSMA V0209999V001012200019N0090001N1+00201+00101999999ADDGA1021+006901999GF102991999999999999999999MA1102201999999REMMET067METAR LSMA 142250Z AUTO VRB02KT 9000NDV FEW023 02/01 Q1022 RMK BLU;
0136066580999992011011423504+46950+008283AUTO +0442LSMA V0209999V002110150019N0112651N1+00401+00301999999ADDGA1081+015001999GF108991999999999999999999MA1102301999999REMMET067METAR LSMA 142350Z AUTO VRB04KT 9999NDV OVC055 04/03 Q1023 RMK WHT;
0190066580999992011011500504+46950+008283AUTO +0442LSMA V0201801N001510210019N0112651N1+00401+00301999999ADDGA1041+015001999GA2071+021001999GA3071+036001999GF107991999999999999999999MA1102301999999REMMET089METAR LSMA 150050Z AUTO 18003KT 070V230 9999NDV SCT055 BKN078 BKN120 04/03 Q1023 RMK WHT;
0191066580999992011011501504+46950+008283AUTO +0442LSMA V0209999V001010081019N0060001N1+00501+00401999999ADDAW1621GA1071+008101999GA2071+013201999GA3081+015001999GF108991999999999999999999MA1102301999999REMMET084METAR LSMA 150150Z AUTO VRB02KT 6000NDV RA BKN027 BKN044 OVC051 05/04 Q1023 RMK GRN;
0146066580999992011011502504+46950+008283AUTO +0442LSMA V0203601N000510132019N0112651N1+00601+00401999999ADDAW1611GA1081+013201999GF108991999999999999999999MA1102401999999REMMET071METAR LSMA 150250Z AUTO 36001KT 9999NDV -RA OVC044 06/04 Q1024 RMK WHT;
0177066580999992011011503494+46950+008283AUTO +0442LSMA V0209999V001010114019N0037001N1+00501+00401999999ADDAW1101AW2621GA1041+008101999GA2081+011401999GF108991999999999999999999MA1102511999999REMMET080METAR LSMA 150349Z AUTO VRB02KT 3700NDV RA BR SCT027 OVC038 05/04 Q1025 RMK GRN;
0187066580999992011011504504+46950+008283AUTO +0442LSMA V0209999C000010129019N0039001N1+00501+00401999999ADDAW1101AW2811GA1021+004501999GA2071+012901999GF107991999999999999999999MA1102611999999REMMET090METAR LSMA 150450Z AUTO 00000KT 3900NDV -SHRA BR FEW015 BKN043 05/04 Q1026 RESHRA RMK GRN;
0171066580999992011011505504+46950+008283AUTO +0442LSMA V0209999V000510126019N0050001N1+00601+00501999999ADDAW1811GA1071+012601999GA2081+015001999GF108991999999999999999999MA1102711999999REMMET080METAR LSMA 150550Z AUTO VRB01KT 5000NDV -SHRA BKN042 OVC054 06/05 Q1027 RMK GRN;
0229066580999992011011507004+46950+008283FM-15+0442LSMA V0209999V00101014101CN0012001N1+00401+00401999999ADDAW1101ED101U15009GA1021+000901999GA2041+014101999GA3071+016501999GF108991999999999999999999MA1102801999999REMMET111METAR LSMA 150655Z AUTO VRB02KT 1200NDV R01/1500VP2000D R19/P2000D BR FEW003 SCT047 BKN055 04/04 Q1028 RMK RED;
0168066580999992011011507504+46950+008283AUTO +0442LSMA V0209999V001010144019N0024001N1+00501+00401999999ADDAW1101GA1021+003001999GA2071+014401999GF107991999999999999999999MA1102811999999REMMET077METAR LSMA 150750Z AUTO VRB02KT 2400NDV BR FEW010 BKN048 05/04 Q1028 RMK YLO;
0136066580999992011011508504+46950+008283AUTO +0442LSMA V0209999C000010027019N0047001N1+00601+00501999999ADDGA1081+002701999GF108991999999999999999999MA1102811999999REMMET067METAR LSMA 150850Z AUTO 00000KT 4700NDV OVC009 06/05 Q1028 RMK YLO;
0159066580999992011011509504+46950+008283AUTO +0442LSMA V0201701N001012200019N0050001N1+00601+00501999999ADDGA1021+002401999GA2041+010801999GF104991999999999999999999MA1102911999999REMMET074METAR LSMA 150950Z AUTO 17002KT 5000NDV FEW008 SCT036 06/05 Q1029 RMK GRN;
0125066580999992011011510504+46950+008283AUTO +0442LSMA V0202001N002112200019N0112651N1+00801+00601999999ADDGF100991999999999999999999MA1102811999999REMMET072METAR LSMA 151050Z AUTO 20004KT 170V230 9999NDV NCD 08/06 Q1028 RMK BLU;
0136066580999992011011511504+46950+008283AUTO +0442LSMA V0209999V000512200019N0112651N1+01001+00601999999ADDGA1041+011101999GF104991999999999999999999MA1102711999999REMMET067METAR LSMA 151150Z AUTO VRB01KT 9999NDV SCT037 10/06 Q1027 RMK BLU;
0117066580999992011011512504+46950+008283AUTO +0442LSMA V0209999C000012200019N0112651N1+01101+00501999999ADDGF100991999999999999999999MA1102711999999REMMET064METAR LSMA 151250Z AUTO 00000KT 9999NDV NCD 11/05 Q1027 RMK BLU;
0117066580999992011011513504+46950+008283AUTO +0442LSMA V0209999V001012200019N0112651N1+01001+00501999999ADDGF100991999999999999999999MA1102711999999REMMET064METAR LSMA 151350Z AUTO VRB02KT 9999NDV NCD 10/05 Q1027 RMK BLU;
0117066580999992011011514504+46950+008283AUTO +0442LSMA V0209999V001012200019N0112651N1+01001+00501999999ADDGF100991999999999999999999MA1102711999999REMMET064METAR LSMA 151450Z AUTO VRB02KT 9999NDV NCD 10/05 Q1027 RMK BLU;
0117066580999992011011515504+46950+008283AUTO +0442LSMA V0201901N001012200019N0112651N1+00801+00501999999ADDGF100991999999999999999999MA1102811999999REMMET064METAR LSMA 151550Z AUTO 19002KT 9999NDV NCD 08/05 Q1028 RMK BLU;
0117066580999992011011516504+46950+008283AUTO +0442LSMA V0202201N001012200019N0112651N1+00601+00401999999ADDGF100991999999999999999999MA1102811999999REMMET064METAR LSMA 151650Z AUTO 22002KT 9999NDV NCD 06/04 Q1028 RMK BLU;
0125066580999992011011517504+46950+008283AUTO +0442LSMA V0202101N002112200019N0112651N1+00401+00301999999ADDGF100991999999999999999999MA1102811999999REMMET072METAR LSMA 151750Z AUTO 21004KT 190V250 9999NDV NCD 04/03 Q1028 RMK BLU;
0117066580999992011011518504+46950+008283AUTO +0442LSMA V0209999V000512200019N0112651N1+00301+00201999999ADDGF100991999999999999999999MA1102811999999REMMET064METAR LSMA 151850Z AUTO VRB01KT 9999NDV NCD 03/02 Q1028 RMK BLU;
0118066580999992011011519504+46950+008283AUTO +0442LSMA V0202001N002112200019N0060001N1+00101+00001999999ADDGF100991999999999999999999MA1102911999999REMMET065METAR LSMA 151950Z AUTO 20004KT 6000NDV NCD 01/M00 Q1029 RMK GRN;
0117066580999992011011520504+46950+008283AUTO +0442LSMA V0202101N001012200019N0112651N1+00201+00101999999ADDGF100991999999999999999999MA1102811999999REMMET064METAR LSMA 152050Z AUTO 21002KT 9999NDV NCD 02/01 Q1028 RMK BLU;
0118066580999992011011521504+46950+008283AUTO +0442LSMA V0209999C000012200019N0112651N1+00101+00001999999ADDGF100991999999999999999999MA1102811999999REMMET065METAR LSMA 152150Z AUTO 00000KT 9999NDV NCD 01/M00 Q1028 RMK BLU;
0118066580999992011011522504+46950+008283AUTO +0442LSMA V0209999C000012200019N0112651N1+00101+00001999999ADDGF100991999999999999999999MA1102811999999REMMET065METAR LSMA 152250Z AUTO 00000KT 9999NDV NCD 01/M00 Q1028 RMK BLU;
0118066580999992011011523504+46950+008283AUTO +0442LSMA V0202001N002112200019N0112651N1+00001-00101999999ADDGF100991999999999999999999MA1102811999999REMMET065METAR LSMA 152350Z AUTO 20004KT 9999NDV NCD 00/M01 Q1028 RMK BLU;
0117066580999992011011600504+46950+008283AUTO +0442LSMA V0202101N001512200019N0112651N1+00101+00001999999ADDGF100991999999999999999999MA1102711999999REMMET064METAR LSMA 160050Z AUTO 21003KT 9999NDV NCD 01/00 Q1027 RMK BLU;
0118066580999992011011601504+46950+008283AUTO +0442LSMA V0209999V000512200019N0112651N1+00101+00001999999ADDGF100991999999999999999999MA1102711999999REMMET065METAR LSMA 160150Z AUTO VRB01KT 9999NDV NCD 01/M00 Q1027 RMK BLU;
0119066580999992011011602504+46950+008283AUTO +0442LSMA V0209999V001012200019N0112651N1+00001-00101999999ADDGF100991999999999999999999MA1102711999999REMMET066METAR LSMA 160250Z AUTO VRB02KT 9999NDV NCD M00/M01 Q1027 RMK BLU;
0119066580999992011011603504+46950+008283AUTO +0442LSMA V0202101N002112200019N0112651N1-00101-00201999999ADDGF100991999999999999999999MA1102811999999REMMET066METAR LSMA 160350Z AUTO 21004KT 9999NDV NCD M01/M02 Q1028 RMK BLU;
0119066580999992011011604504+46950+008283AUTO +0442LSMA V0201801N001012200019N0112651N1+00001-00101999999ADDGF100991999999999999999999MA1102711999999REMMET066METAR LSMA 160450Z AUTO 18002KT 9999NDV NCD M00/M01 Q1027 RMK BLU;
0119066580999992011011605504+46950+008283AUTO +0442LSMA V0202101N001012200019N0070001N1-00201-00301999999ADDGF100991999999999999999999MA1102711999999REMMET066METAR LSMA 160550Z AUTO 21002KT 7000NDV NCD M02/M03 Q1027 RMK GRN;
0119066580999992011011606504+46950+008283AUTO +0442LSMA V0202101N001012200019N0112651N1-00101-00101999999ADDGF100991999999999999999999MA1102811999999REMMET066METAR LSMA 160650Z AUTO 21002KT 9999NDV NCD M01/M01 Q1028 RMK BLU;
0119066580999992011011607504+46950+008283AUTO +0442LSMA V0202101N001012200019N0112651N1-00101-00201999999ADDGF100991999999999999999999MA1102911999999REMMET066METAR LSMA 160750Z AUTO 21002KT 9999NDV NCD M01/M02 Q1029 RMK BLU;
0119066580999992011011608504+46950+008283AUTO +0442LSMA V0202201N001512200019N0112651N1-00101-00201999999ADDGF100991999999999999999999MA1102911999999REMMET066METAR LSMA 160850Z AUTO 22003KT 9999NDV NCD M01/M02 Q1029 RMK BLU;
0117066580999992011011609504+46950+008283AUTO +0442LSMA V0201801N001512200019N0112651N1+00201+00001999999ADDGF100991999999999999999999MA1102911999999REMMET064METAR LSMA 160950Z AUTO 18003KT 9999NDV NCD 02/00 Q1029 RMK BLU;
0117066580999992011011610504+46950+008283AUTO +0442LSMA V0209999C000012200019N0112651N1+00501+00101999999ADDGF100991999999999999999999MA1102811999999REMMET064METAR LSMA 161050Z AUTO 00000KT 9999NDV NCD 05/01 Q1028 RMK BLU;
0117066580999992011011611504+46950+008283AUTO +0442LSMA V0209999V001012200019N0112651N1+00701+00201999999ADDGF100991999999999999999999MA1102811999999REMMET064METAR LSMA 161150Z AUTO VRB02KT 9999NDV NCD 07/02 Q1028 RMK BLU;
0117066580999992011011612504+46950+008283AUTO +0442LSMA V0200201N002112200019N0112651N1+00801+00101999999ADDGF100991999999999999999999MA1102711999999REMMET064METAR LSMA 161250Z AUTO 02004KT 9999NDV NCD 08/01 Q1027 RMK BLU;
0125066580999992011011613504+46950+008283AUTO +0442LSMA V0200201N001512200019N0112651N1+00801+00201999999ADDGF100991999999999999999999MA1102611999999REMMET072METAR LSMA 161350Z AUTO 02003KT 350V050 9999NDV NCD 08/02 Q1026 RMK BLU;
0117066580999992011011614504+46950+008283AUTO +0442LSMA V0209999V001012200019N0112651N1+00801+00301999999ADDGF100991999999999999999999MA1102611999999REMMET064METAR LSMA 161450Z AUTO VRB02KT 9999NDV NCD 08/03 Q1026 RMK BLU;
0117066580999992011011615504+46950+008283AUTO +0442LSMA V0209999C000012200019N0112651N1+00701+00201999999ADDGF100991999999999999999999MA1102611999999REMMET064METAR LSMA 161550Z AUTO 00000KT 9999NDV NCD 07/02 Q1026 RMK BLU;
0117066580999992011011616504+46950+008283AUTO +0442LSMA V0209999V001012200019N0112651N1+00401+00101999999ADDGF100991999999999999999999MA1102711999999REMMET064METAR LSMA 161650Z AUTO VRB02KT 9999NDV NCD 04/01 Q1027 RMK BLU;
0117066580999992011011617504+46950+008283AUTO +0442LSMA V0209999V001012200019N0112651N1+00201+00101999999ADDGF100991999999999999999999MA1102711999999REMMET064METAR LSMA 161750Z AUTO VRB02KT 9999NDV NCD 02/01 Q1027 RMK BLU;
0117066580999992011011618504+46950+008283AUTO +0442LSMA V0201801N001512200019N0112651N1+00201+00001999999ADDGF100991999999999999999999MA1102711999999REMMET064METAR LSMA 161850Z AUTO 18003KT 9999NDV NCD 02/00 Q1027 RMK BLU;
0118066580999992011011619504+46950+008283AUTO +0442LSMA V0209999V000512200019N0112651N1+00101+00001999999ADDGF100991999999999999999999MA1102711999999REMMET065METAR LSMA 161950Z AUTO VRB01KT 9999NDV NCD 01/M00 Q1027 RMK BLU;
0118066580999992011011620504+46950+008283AUTO +0442LSMA V0202101N002112200019N0112651N1+00101+00001999999ADDGF100991999999999999999999MA1102711999999REMMET065METAR LSMA 162050Z AUTO 21004KT 9999NDV NCD 01/M00 Q1027 RMK BLU;
0127066580999992011011621504+46950+008283AUTO +0442LSMA V0202101N001512200019N0112651N1-00101-00201999999ADDGF100991999999999999999999MA1102711999999REMMET074METAR LSMA 162150Z AUTO 21003KT 160V240 9999NDV NCD M01/M02 Q1027 RMK BLU;
0119066580999992011011622504+46950+008283AUTO +0442LSMA V0209999C000012200019N0090001N1+00001-00101999999ADDGF100991999999999999999999MA1102811999999REMMET066METAR LSMA 162250Z AUTO 00000KT 9000NDV NCD M00/M01 Q1028 RMK BLU;
0119066580999992011011623504+46950+008283AUTO +0442LSMA V0202101N002112200019N0042001N1-00101-00201999999ADDGF100991999999999999999999MA1102811999999REMMET066METAR LSMA 162350Z AUTO 21004KT 4200NDV NCD M01/M02 Q1028 RMK GRN;
0119066580999992011011700504+46950+008283AUTO +0442LSMA V0202201N001512200019N0112651N1-00101-00201999999ADDGF100991999999999999999999MA1102711999999REMMET066METAR LSMA 170050Z AUTO 22003KT 9999NDV NCD M01/M02 Q1027 RMK BLU;
0128066580999992011011701534+46950+008283AUTO +0442LSMA V0209999V001012200019N0034001N1-00101-00201999999ADDAW1101GF100991999999999999999999MA1102711999999REMMET069METAR LSMA 170153Z AUTO VRB02KT 3400NDV BR NCD M01/M02 Q1027 RMK GRN;
0119066580999992011011702504+46950+008283AUTO +0442LSMA V0202201N001012200019N0060001N1-00101-00201999999ADDGF100991999999999999999999MA1102711999999REMMET066METAR LSMA 170250Z AUTO 22002KT 6000NDV NCD M01/M02 Q1027 RMK GRN;
0119066580999992011011703504+46950+008283AUTO +0442LSMA V0209999V001012200019N0080001N1-00101-00101999999ADDGF100991999999999999999999MA1102711999999REMMET066METAR LSMA 170350Z AUTO VRB02KT 8000NDV NCD M01/M01 Q1027 RMK BLU;
0119066580999992011011704504+46950+008283AUTO +0442LSMA V0202301N001012200019N0090001N1-00201-00301999999ADDGF100991999999999999999999MA1102611999999REMMET066METAR LSMA 170450Z AUTO 23002KT 9000NDV NCD M02/M03 Q1026 RMK BLU;
0111066580999992011011705504+46950+008283FM-15+0442LSMA V0202001N001512200019N0090001N1-00201-00301999999ADDGF100991999999999999999999MA1102611999999REMMET058METAR LSMA 170550Z 20003KT 9000 NSC M02/M03 Q1026 RMK BLU;
0082066580999992011011706504+46950+008283FM-15+0442LSMA V0209999V001019999999Y0099001N1-00101-00201999999ADDMA1102611999999REMMET055METAR LSMA 170650Z VRB02KT CAVOK M01/M02 Q1026 RMK BLU;
0082066580999992011011707504+46950+008283FM-15+0442LSMA V0209999V001019999999Y0099001N1-00201-00201999999ADDMA1102611999999REMMET055METAR LSMA 170750Z VRB02KT CAVOK M02/M02 Q1026 RMK BLU;
0082066580999992011011708504+46950+008283FM-15+0442LSMA V0209999C000019999999Y0099001N1-00101-00201999999ADDMA1102611999999REMMET055METAR LSMA 170850Z 00000KT CAVOK M01/M02 Q1026 RMK BLU;
0080066580999992011011709504+46950+008283FM-15+0442LSMA V0209999C000019999999Y0099001N1+00301+00101999999ADDMA1102611999999REMMET053METAR LSMA 170950Z 00000KT CAVOK 03/01 Q1026 RMK BLU;
0080066580999992011011710504+46950+008283FM-15+0442LSMA V0209999V001019999999Y0099001N1+00401+00101999999ADDMA1102611999999REMMET053METAR LSMA 171050Z VRB02KT CAVOK 04/01 Q1026 RMK BLU;
0088066580999992011011711504+46950+008283FM-15+0442LSMA V0202001N001519999999Y0099001N1+00701+00201999999ADDMA1102611999999REMMET061METAR LSMA 171150Z 20003KT 160V260 CAVOK 07/02 Q1026 RMK BLU;
0080066580999992011011712504+46950+008283FM-15+0442LSMA V0209999V000519999999Y0099001N1+00801+00201999999ADDMA1102611999999REMMET053METAR LSMA 171250Z VRB01KT CAVOK 08/02 Q1026 RMK BLU;
0080066580999992011011713504+46950+008283FM-15+0442LSMA V0209999V001019999999Y0099001N1+00801+00201999999ADDMA1102611999999REMMET053METAR LSMA 171350Z VRB02KT CAVOK 08/02 Q1026 RMK BLU;
0080066580999992011011714504+46950+008283FM-15+0442LSMA V0209999V000519999999Y0099001N1+00801+00201999999ADDMA1102611999999REMMET053METAR LSMA 171450Z VRB01KT CAVOK 08/02 Q1026 RMK BLU;
0117066580999992011011715504+46950+008283AUTO +0442LSMA V0209999V001012200019N0112651N1+00501+00101999999ADDGF100991999999999999999999MA1102611999999REMMET064METAR LSMA 171550Z AUTO VRB02KT 9999NDV NCD 05/01 Q1026 RMK BLU;
0117066580999992011011716504+46950+008283AUTO +0442LSMA V0209999V001012200019N0112651N1+00201+00101999999ADDGF100991999999999999999999MA1102711999999REMMET064METAR LSMA 171650Z AUTO VRB02KT 9999NDV NCD 02/01 Q1027 RMK BLU;
0117066580999992011011717504+46950+008283AUTO +0442LSMA V0202201N001512200019N0112651N1+00201+00001999999ADDGF100991999999999999999999MA1102711999999REMMET064METAR LSMA 171750Z AUTO 22003KT 9999NDV NCD 02/00 Q1027 RMK BLU;
0125066580999992011011718504+46950+008283AUTO +0442LSMA V0201801N001512200019N0112651N1+00201+00001999999ADDGF100991999999999999999999MA1102711999999REMMET072METAR LSMA 171850Z AUTO 18003KT 160V260 9999NDV NCD 02/00 Q1027 RMK BLU;
0137066580999992011011719504+46950+008283AUTO +0442LSMA V0202101N001512200019N0090001N1+00001-00101999999ADDGA1021+069001999GF102991999999999999999999MA1102711999999REMMET068METAR LSMA 171950Z AUTO 21003KT 9000NDV FEW230 00/M01 Q1027 RMK BLU;
0118066580999992011011720504+46950+008283AUTO +0442LSMA V0209999V000512200019N0112651N1+00101-00101999999ADDGF100991999999999999999999MA1102811999999REMMET065METAR LSMA 172050Z AUTO VRB01KT 9999NDV NCD 01/M01 Q1028 RMK BLU;
0138066580999992011011721504+46950+008283AUTO +0442LSMA V0201901N001512200019N0070001N1+00001-00101999999ADDGA1041+024001999GF104991999999999999999999MA1102811999999REMMET069METAR LSMA 172150Z AUTO 19003KT 7000NDV SCT089 M00/M01 Q1028 RMK GRN;
0145066580999992011011722504+46950+008283AUTO +0442LSMA V0202101N001510270019N0112651N1+00101-00101999999ADDGA1071+027001999GF107991999999999999999999MA1102811999999REMMET076METAR LSMA 172250Z AUTO 21003KT 150V240 9999NDV BKN090 01/M01 Q1028 RMK WHT;
0137066580999992011011723504+46950+008283AUTO +0442LSMA V0209999V000512200019N0112651N1+00001-00101999999ADDGA1021+060001999GF102991999999999999999999MA1102711999999REMMET068METAR LSMA 172350Z AUTO VRB01KT 9999NDV FEW200 00/M01 Q1027 RMK BLU;
0119066580999992011011800504+46950+008283AUTO +0442LSMA V0209999V001012200019N0080001N1-00101-00101999999ADDGF100991999999999999999999MA1102711999999REMMET066METAR LSMA 180050Z AUTO VRB02KT 8000NDV NCD M01/M01 Q1027 RMK BLU;
0118066580999992011011801504+46950+008283AUTO +0442LSMA V0209999V001012200019N0112651N1+00001-00101999999ADDGF100991999999999999999999MA1102811999999REMMET065METAR LSMA 180150Z AUTO VRB02KT 9999NDV NCD 00/M01 Q1028 RMK BLU;
0119066580999992011011802504+46950+008283AUTO +0442LSMA V0209999V001012200019N0070001N1-00201-00301999999ADDGF100991999999999999999999MA1102711999999REMMET066METAR LSMA 180250Z AUTO VRB02KT 7000NDV NCD M02/M03 Q1027 RMK GRN;
0119066580999992011011803504+46950+008283AUTO +0442LSMA V0202101N001512200019N0112651N1-00201-00201999999ADDGF100991999999999999999999MA1102711999999REMMET066METAR LSMA 180350Z AUTO 21003KT 9999NDV NCD M02/M02 Q1027 RMK BLU;
0119066580999992011011804504+46950+008283AUTO +0442LSMA V0209999V001012200019N0112651N1-00201-00301999999ADDGF100991999999999999999999MA1102711999999REMMET066METAR LSMA 180450Z AUTO VRB02KT 9999NDV NCD M02/M03 Q1027 RMK BLU;
0119066580999992011011805504+46950+008283AUTO +0442LSMA V0202001N001512200019N0112651N1-00201-00301999999ADDGF100991999999999999999999MA1102711999999REMMET066METAR LSMA 180550Z AUTO 20003KT 9999NDV NCD M02/M03 Q1027 RMK BLU;
0130066580999992011011806504+46950+008283FM-15+0442LSMA V0202201N001012200019N0112651N1-00101-00201999999ADDGA1021+027001999GF102991999999999999999999MA1102711999999REMMET061METAR LSMA 180650Z 22002KT 9999 FEW092 M01/M02 Q1027 RMK BLU;
0153066580999992011011807504+46950+008283FM-15+0442LSMA V0201901N001510210019N0112651N1-00101-00201999999ADDGA1071+021001999GA2071+027001999GF107991999999999999999999MA1102811999999REMMET068METAR LSMA 180750Z 19003KT 9999 BKN075 BKN096 M01/M02 Q1028 RMK WHT;
0152066580999992011011808504+46950+008283FM-15+0442LSMA V0201801N001510210019N0112651N1+00101-00101999999ADDGA1071+021001999GA2071+027001999GF107991999999999999999999MA1102711999999REMMET067METAR LSMA 180850Z 18003KT 9999 BKN072 BKN099 01/M01 Q1027 RMK WHT;
0128066580999992011011809504+46950+008283FM-15+0442LSMA V0209999V001010300019N0112651N1+00301+00001999999ADDGA1071+030001999GF107991999999999999999999MA1102711999999REMMET059METAR LSMA 180950Z VRB02KT 9999 BKN100 03/00 Q1027 RMK WHT;
0128066580999992011011810504+46950+008283FM-15+0442LSMA V0209999V000510300019N0112651N1+00501+00001999999ADDGA1071+030001999GF107991999999999999999999MA1102611999999REMMET059METAR LSMA 181050Z VRB01KT 9999 BKN100 05/00 Q1026 RMK WHT;
0128066580999992011011811504+46950+008283FM-15+0442LSMA V0209999V001010300019N0112651N1+00601+00101999999ADDGA1071+030001999GF107991999999999999999999MA1102511999999REMMET059METAR LSMA 181150Z VRB02KT 9999 BKN100 06/01 Q1025 RMK WHT;
0128066580999992011011812504+46950+008283FM-15+0442LSMA V0209999V000510180019N0112651N1+00701+00101999999ADDGA1071+018001999GF107991999999999999999999MA1102511999999REMMET059METAR LSMA 181250Z VRB01KT 9999 BKN068 07/01 Q1025 RMK WHT;
0128066580999992011011813504+46950+008283FM-15+0442LSMA V0209999V000510180019N0112651N1+00801+00101999999ADDGA1071+018001999GF107991999999999999999999MA1102511999999REMMET059METAR LSMA 181350Z VRB01KT 9999 BKN069 08/01 Q1025 RMK WHT;
0128066580999992011011814504+46950+008283FM-15+0442LSMA V0209999V000510210019N0112651N1+00801+00101999999ADDGA1071+021001999GF107991999999999999999999MA1102511999999REMMET059METAR LSMA 181450Z VRB01KT 9999 BKN078 08/01 Q1025 RMK WHT;
0136066580999992011011815504+46950+008283AUTO +0442LSMA V0200101N001510210019N0112651N1+00601+00201999999ADDGA1081+021001999GF108991999999999999999999MA1102511999999REMMET067METAR LSMA 181550Z AUTO 01003KT 9999NDV OVC072 06/02 Q1025 RMK WHT;
0182066580999992011011816504+46950+008283AUTO +0442LSMA V0209999V001010180019N0112651N1+00601+00201999999ADDGA1041+015001999GA2071+018001999GA3081+027001999GF108991999999999999999999MA1102511999999REMMET081METAR LSMA 181650Z AUTO VRB02KT 9999NDV SCT054 BKN068 OVC095 06/02 Q1025 RMK WHT;
0159066580999992011011817504+46950+008283AUTO +0442LSMA V0209999V000510150019N0112651N1+00501+00201999999ADDGA1071+015001999GA2081+018001999GF108991999999999999999999MA1102511999999REMMET074METAR LSMA 181750Z AUTO VRB01KT 9999NDV BKN055 OVC063 05/02 Q1025 RMK WHT;
0159066580999992011011818504+46950+008283AUTO +0442LSMA V0201901N001510138019N0112651N1+00501+00201999999ADDGA1071+013801999GA2081+015001999GF108991999999999999999999MA1102611999999REMMET074METAR LSMA 181850Z AUTO 19003KT 9999NDV BKN046 OVC053 05/02 Q1026 RMK WHT;
0136066580999992011011819504+46950+008283AUTO +0442LSMA V0209999V001010135019N0112651N1+00501+00201999999ADDGA1081+013501999GF108991999999999999999999MA1102611999999REMMET067METAR LSMA 181950Z AUTO VRB02KT 9999NDV OVC045 05/02 Q1026 RMK WHT;
0136066580999992011011820504+46950+008283AUTO +0442LSMA V0202201N001010135019N0112651N1+00501+00201999999ADDGA1081+013501999GF108991999999999999999999MA1102611999999REMMET067METAR LSMA 182050Z AUTO 22002KT 9999NDV OVC045 05/02 Q1026 RMK WHT;
0182066580999992011011821504+46950+008283AUTO +0442LSMA V0209999V000510132019N0112651N1+00401+00201999999ADDGA1071+013201999GA2071+015001999GA3081+018001999GF108991999999999999999999MA1102611999999REMMET081METAR LSMA 182150Z AUTO VRB01KT 9999NDV BKN044 BKN050 OVC063 04/02 Q1026 RMK WHT;
0159066580999992011011822504+46950+008283AUTO +0442LSMA V0202201N001010180019N0112651N1+00401+00201999999ADDGA1041+014401999GA2071+018001999GF107991999999999999999999MA1102611999999REMMET074METAR LSMA 182250Z AUTO 22002KT 9999NDV SCT048 BKN064 04/02 Q1026 RMK WHT;
0159066580999992011011823504+46950+008283AUTO +0442LSMA V0209999C000010141019N0112651N1+00401+00201999999ADDGA1071+014101999GA2081+015001999GF108991999999999999999999MA1102611999999REMMET074METAR LSMA 182350Z AUTO 00000KT 9999NDV BKN047 OVC059 04/02 Q1026 RMK WHT;
0136066580999992011011900504+46950+008283AUTO +0442LSMA V0209999C000010141019N0090001N1+00401+00201999999ADDGA1081+014101999GF108991999999999999999999MA1102611999999REMMET067METAR LSMA 190050Z AUTO 00000KT 9000NDV OVC047 04/02 Q1026 RMK WHT;
0159066580999992011011901504+46950+008283AUTO +0442LSMA V0209999V000510147019N0112651N1+00401+00201999999ADDGA1071+014701999GA2081+018001999GF108991999999999999999999MA1102611999999REMMET074METAR LSMA 190150Z AUTO VRB01KT 9999NDV BKN049 OVC061 04/02 Q1026 RMK WHT;
0136066580999992011011902504+46950+008283AUTO +0442LSMA V0209999V001010150019N0090001N1+00301+00201999999ADDGA1081+015001999GF108991999999999999999999MA1102611999999REMMET067METAR LSMA 190250Z AUTO VRB02KT 9000NDV OVC051 03/02 Q1026 RMK WHT;
0167066580999992011011903504+46950+008283AUTO +0442LSMA V0202001N001510210019N0112651N1+00301+00201999999ADDGA1021+015001999GA2081+021001999GF108991999999999999999999MA1102611999999REMMET082METAR LSMA 190350Z AUTO 20003KT 170V240 9999NDV FEW058 OVC070 03/02 Q1026 RMK WHT;
0159066580999992011011904504+46950+008283AUTO +0442LSMA V0209999V000510210019N0080001N1+00301+00201999999ADDGA1021+015001999GA2081+021001999GF108991999999999999999999MA1102611999999REMMET074METAR LSMA 190450Z AUTO VRB01KT 8000NDV FEW052 OVC070 03/02 Q1026 RMK WHT;
0186066580999992011011905504+46950+008283FM-15+0442LSMA V0209999V000510180019N0060001N1+00301+00201999999ADDGA1021+015001999GA2071+018001999GA3081+021001999GF108991999999999999999999MA1102611999999MW1801REMMET079METAR LSMA 190550Z VRB01KT 6000 -SHRA FEW056 BKN063 OVC072 03/02 Q1026 RMK GRN;
0174066580999992011011906504+46950+008283FM-15+0442LSMA V0209999V00101018001CN0070001N1+00301+00201999999ADDGA1021+010201999GA2041+018001999GA3081+021001999GF108991999999999999999999MA1102611999999REMMET073METAR LSMA 190650Z VRB02KT 7000 FEW034 SCT067 OVC078 03/02 Q1026 RMK GRN;
0195066580999992011011907504+46950+008283FM-15+0442LSMA V0209999C000010210019N0032001N1+00301+00101999999ADDGA1041+011401999GA2071+021001999GA3081+024001999GF108991999999999999999999MA1102611999999MW1101MW2801REMMET082METAR LSMA 190750Z 00000KT 3200 -SHRA BR SCT038 BKN076 OVC088 03/01 Q1026 RMK GRN;
0182066580999992011011908504+46950+008283FM-15+0442LSMA V0200801N002610141019N0112651N1+00501+00101999999ADDGA1021+007501999GA2071+014101999GA3081+024001999GF108991999999999999999999MA1102611999999REMMET081METAR LSMA 190850Z 08005KT 040V150 9999 FEW025 BKN047 OVC088 05/01 Q1026 RMK WHT;
0169066580999992011011909504+46950+008283FM-15+0442LSMA V0200601N006210060019N0022001N1+00301+00001999999ADDGA1021+004501999GA2081+006001999GF108991999999999999999999MA1102711999999MW1611REMMET078METAR LSMA 190950Z 06012KT 040V100 2200 -RA FEW015 OVC020 03/00 Q1027 RMK YLO;
0169066580999992011011910504+46950+008283FM-15+0442LSMA V0200801N006210039019N0112651N1+00201+00001999999ADDGA1041+003301999GA2081+003901999GF108991999999999999999999MA1102711999999MW1611REMMET078METAR LSMA 191050Z 08012KT 050V110 9999 -RA SCT011 OVC013 02/00 Q1027 RMK GRN;
0192066580999992011011911504+46950+008283FM-15+0442LSMA V0200601N004110039019N0112651N1+00201+00001999999ADDGA1071+003901999GA2071+005701999GA3081+008701999GF108991999999999999999999MA1102711999999MW1611REMMET085METAR LSMA 191150Z 06008KT 030V090 9999 -RA BKN013 BKN019 OVC029 02/00 Q1027 RMK GRN;
0192066580999992011011912504+46950+008283FM-15+0442LSMA V0200701N00361006001CN0049001N1+00301+00001999999ADDGA1021+004501999GA2041+006001999GA3081+007201999GF108991999999999999999999MA1102711999999MW1611REMMET085METAR LSMA 191250Z 07007KT 030V100 4900 -RA FEW015 SCT020 OVC024 03/00 Q1027 RMK GRN;
0154066580999992011011913504+46950+008283FM-15+0442LSMA V0200601N003610021019N0060001N1+00201+00001999999ADDGA1091+002101999GF109991999999000251999999MA1102611999999MW1611MW2711REMMET073METAR LSMA 191350Z 06007KT 360V080 6000 -RASN VV007 02/M00 Q1026 RMK YLO;
0209066580999992011011914504+46950+008283FM-15+0442LSMA V0202201N003110039019N0034001N1+00101+00001999999ADDGA1021+002101999GA2071+003901999GA3081+012001999GF108991999999999999999999MA1102711999999MW1101MW2631MW3731REMMET090METAR LSMA 191450Z 22006KT 140V250 3400 RASN BR FEW007 BKN013 OVC040 01/M00 Q1027 RMK GRN;
0202066580999992011011915504+46950+008283AUTO +0442LSMA V0202101N002110048019N0112651N1+00101+00001999999ADDAW1811GA1071+004801999GA2071+012001999GA3081+015001999GF108991999999999999999999MA1102711999999REMMET095METAR LSMA 191550Z AUTO 21004KT 150V290 9999NDV -SHRA BKN016 BKN040 OVC055 01/00 Q1027 RMK GRN;
0203066580999992011011916504+46950+008283AUTO +0442LSMA V0200701N00361006001CN0080001N1+00101-00101999999ADDAW1851GA1021+005101999GA2041+006001999GA3081+009001999GF108991999999999999999999MA1102711999999REMMET096METAR LSMA 191650Z AUTO 07007KT 030V100 8000NDV -SHSN FEW017 SCT020 OVC030 01/M01 Q1027 RMK WHT;
0201066580999992011011917504+46950+008283AUTO +0442LSMA V0200201N00151008701CN0046001N1+00101-00101999999ADDAW1711GA1021+005101999GA2041+008701999GA3081+009901999GF108991999999999999999999MA1102811999999REMMET094METAR LSMA 191750Z AUTO 02003KT 340V080 4600NDV -SN FEW017 SCT029 OVC033 01/M01 Q1028 RMK GRN;
0182066580999992011011918504+46950+008283AUTO +0442LSMA V0209999V001010009019N0020001N1+00001-00101999999ADDAW1731ED101U12009GA1091+000901999GF109991999999000251999999MA1102811999999REMMET096METAR LSMA 191850Z AUTO VRB02KT 2000NDV R01/1200U R19/1100V1800U +SN VV003 00/M01 Q1028 RMK AMB;
0176066580999992011011919504+46950+008283AUTO +0442LSMA V0209999V001010006019N0013001N1+00001-00101999999ADDAW1721ED101U12009GA1091+000601999GF109991999999000251999999MA1102811999999REMMET090METAR LSMA 191950Z AUTO VRB02KT 1300NDV R01/1200N R19/1200N SN VV002 00/M01 Q1028 RMK RED;
0196066580999992011011920494+46950+008283AUTO +0442LSMA V0201301N001510120019N0112651N1-00101-00101999999ADDAW1811GA1021+010201999GA2071+012001999GA3081+021001999GF108991999999999999999999MA1102711999999REMMET089METAR LSMA 192049Z AUTO 13003KT 9999NDV -SHRA FEW034 BKN040 OVC071 M01/M01 Q1027 RMK WHT;
0194066580999992011011921504+46950+008283AUTO +0442LSMA V0209999C00001003001CN0060001N1-00101-00101999999ADDAW1711GA1021+001801999GA2041+003001999GA3071+012601999GF107991999999999999999999MA1102711999999REMMET087METAR LSMA 192150Z AUTO 00000KT 6000NDV -SN FEW006 SCT010 BKN042 M01/M01 Q1027 RMK GRN;
0196066580999992011011922504+46950+008283AUTO +0442LSMA V0209999C00001010201CN0060001N1-00101-00201999999ADDAW1811GA1041+003301999GA2041+010201999GA3081+014701999GF108991999999999999999999MA1102711999999REMMET089METAR LSMA 192250Z AUTO 00000KT 6000NDV -SHRA SCT011 SCT034 OVC049 M01/M02 Q1027 RMK GRN;
0243066580999992011011923504+46950+008283AUTO +0442LSMA V0209999C00001018301CN0004001N1-00201-00201999999ADDAW1301AW2671ED101U04009GA1041+004201999GA2071+018301999GA3081+021001999GF108991999999999999999999MA1102601999999REMMET119METAR LSMA 192350Z AUTO 00000KT 0400NDV R01/0400VP2000D R19/P2000N -RASN FG SCT014 BKN061 OVC070 M02/M02 Q1026 RMK RED;
0196066580999992011012000504+46950+008283AUTO +0442LSMA V0209999C000010018019N0050001N1-00201-00301999999ADDAW1851GA1021+000301999GA2071+001801999GA3081+021001999GF108991999999999999999999MA1102611999999REMMET089METAR LSMA 200050Z AUTO 00000KT 5000NDV -SHSN FEW001 BKN006 OVC073 M02/M03 Q1026 RMK YLO;
0195066580999992011012001504+46950+008283AUTO +0442LSMA V0209999V000510015019N0050001N1-00301-00301999999ADDAW1311GA1021+000601999GA2071+001501999GA3081+004501999GF108991999999999999999999MA1102611999999REMMET088METAR LSMA 200150Z AUTO VRB01KT 5000NDV BCFG FEW002 BKN005 OVC015 M03/M03 Q1026 RMK YLO;
0184066580999992011012002504+46950+008283AUTO +0442LSMA V0209999C000010009019N0050001N1-00401-00401999999ADDGA1071+000901999GA2071+004201999GA3081+007801999GF108991999999999999999999MA1102611999999REMMET083METAR LSMA 200250Z AUTO 00000KT 5000NDV BKN003 BKN014 OVC026 M04/M04 Q1026 RMK AMB;
