0137066510999992011012414004+46950+008017FM-12+074599999V0201501N001019999999N9999999N1-00241+99999999999ADDMA1999999093401MD1610171+9999ME1314859OA149900211REMSYN076AAXX  24144 06651 33/// /1502 11024 2//// 39340 48485 56017 333 91104 91202;
0137066510999992011012415004+46950+008017FM-12+074599999V0201901N000519999999N9999999N1-00331+99999999999ADDMA1999999093391MD1610091+9999ME1314829OA149900211REMSYN076AAXX  24154 06651 33/// /1901 11033 2//// 39339 48482 56009 333 91104 91203;
0137066510999992011012416004+46950+008017FM-12+074599999V0209999C000019999999N9999999N1-00381+99999999999ADDMA1999999093391MD1610041+9999ME1314809OA149900211REMSYN076AAXX  24164 06651 33/// /0000 11038 2//// 39339 48480 56004 333 91104 91203;
0137066510999992011012417004+46950+008017FM-12+074599999V0202101N000519999999N9999999N1-00601+99999999999ADDMA1999999093401MD1410001+9999ME1314759OA149900211REMSYN076AAXX  24174 06651 33/// /2101 11060 2//// 39340 48475 54000 333 91104 91203;
0156066510999992011012418004+46950+008017FM-12+074599999V0202301N000519999999N9999999N1-00791+99999999999ADDKA1120M-00191MA1999999093421MD1210031+9999ME1314719OA149900261REMSYN082AAXX  24184 06651 33/// /2301 11079 2//// 39342 48471 52003 333 11019 91105 91203;
0137066510999992011012419004+46950+008017FM-12+074599999V0202201N001019999999N9999999N1-00881+99999999999ADDMA1999999093411MD1210021+9999ME1314689OA149900211REMSYN076AAXX  24194 06651 33/// /2202 11088 2//// 39341 48468 52002 333 91104 91202;
0137066510999992011012420004+46950+008017FM-12+074599999V0202001N001019999999N9999999N1-00961+99999999999ADDMA1999999093401MD1010001+9999ME1314659OA149900151REMSYN076AAXX  24204 06651 33/// /2002 11096 2//// 39340 48465 50000 333 91103 91202;
0137066510999992011012421004+46950+008017FM-12+074599999V0202001N001019999999N9999999N1-00941+99999999999ADDMA1999999093371MD1710051+9999ME1314639OA149900211REMSYN076AAXX  24214 06651 33/// /2002 11094 2//// 39337 48463 57005 333 91104 91203;
0137066510999992011012422004+46950+008017FM-12+074599999V0201901N001019999999N9999999N1-01021+99999999999ADDMA1999999093341MD1710071+9999ME1314589OA149900151REMSYN076AAXX  24224 06651 33/// /1902 11102 2//// 39334 48458 57007 333 91103 91202;
0137066510999992011012423004+46950+008017FM-12+074599999V0202001N001019999999N9999999N1-01041+99999999999ADDMA1999999093321MD1810081+9999ME1314569OA149900151REMSYN076AAXX  24234 06651 33/// /2002 11104 2//// 39332 48456 58008 333 91103 91202;
0137066510999992011012500004+46950+008017FM-12+074599999V0202001N001519999999N9999999N1-01071+99999999999ADDMA1999999093281MD1610091+9999ME1314529OA149900211REMSYN076AAXX  25004 06651 33/// /2003 11107 2//// 39328 48452 56009 333 91104 91203;
0137066510999992011012501004+46950+008017FM-12+074599999V0202201N000519999999N9999999N1-01021+99999999999ADDMA1999999093261MD1710081+9999ME1314529OA149900211REMSYN076AAXX  25014 06651 33/// /2201 11102 2//// 39326 48452 57008 333 91104 91203;
0137066510999992011012502004+46950+008017FM-12+074599999V0202101N001519999999N9999999N1-00801+99999999999ADDMA1999999093251MD1710071+9999ME1314579OA149900211REMSYN076AAXX  25024 06651 33/// /2103 11080 2//// 39325 48457 57007 333 91104 91203;
0137066510999992011012503004+46950+008017FM-12+074599999V0201901N002619999999N9999999N1-00661+99999999999ADDMA1999999093221MD1710061+9999ME1314589OA149900261REMSYN076AAXX  25034 06651 33/// /1905 11066 2//// 39322 48458 57006 333 91105 91204;
0137066510999992011012504004+46950+008017FM-12+074599999V0202001N003119999999N9999999N1-00531+99999999999ADDMA1999999093181MD1710081+9999ME1314599OA149900411REMSYN076AAXX  25044 06651 33/// /2006 11053 2//// 39318 48459 57008 333 91108 91205;
0137066510999992011012505004+46950+008017FM-12+074599999V0201801N003119999999N9999999N1-00501+99999999999ADDMA1999999093151MD1610101+9999ME1314579OA149900461REMSYN076AAXX  25054 06651 33/// /1806 11050 2//// 39315 48457 56010 333 91109 91206;
0202066510999992011012506004+46950+008017FM-12+074599999V0201901N002119999999N9999999N1-00471+99999999999ADDAA124000091AL19900091KA1999N-01111MA1999999093121MD1810101+9999ME1314559OA149900461REMSYN088AAXX  25064 06651 33/// /1904 11047 2//// 39312 48455 58010 333 21111 70000 91109 91206;EQDQ01  00002PRCP24
0137066510999992011012507004+46950+008017FM-12+074599999V0201901N001519999999N9999999N1-00441+99999999999ADDMA1999999093131MD1710051+9999ME1314579OA149900461REMSYN076AAXX  25074 06651 33/// /1903 11044 2//// 39313 48457 57005 333 91109 91206;
0137066510999992011012508004+46950+008017FM-12+074599999V0201901N002119999999N9999999N1-00391+99999999999ADDMA1999999093131MD1510021+9999ME1314589OA149900311REMSYN076AAXX  25084 06651 33/// /1904 11039 2//// 39313 48458 55002 333 91106 91204;
0137066510999992011012509004+46950+008017FM-12+074599999V0201701N002619999999N9999999N1-00291+99999999999ADDMA1999999093131MD1010011+9999ME1314619OA149900461REMSYN076AAXX  25094 06651 33/// /1705 11029 2//// 39313 48461 50001 333 91109 91206;
0137066510999992011012510004+46950+008017FM-12+074599999V0201501N002119999999N9999999N1-00141+99999999999ADDMA1999999093111MD1810021+9999ME1314649OA149900361REMSYN076AAXX  25104 06651 33/// /1504 11014 2//// 39311 48464 58002 333 91107 91205;
0137066510999992011012511004+46950+008017FM-12+074599999V0202401N002119999999N9999999N1-00031+99999999999ADDMA1999999093051MD1710081+9999ME1314629OA149900361REMSYN076AAXX  25114 06651 33/// /2404 11003 2//// 39305 48462 57008 333 91107 91205;
0096066510999992011012512004+46950+008017FM-12+074599999V0202201N002119999999N9999999N1+00011+99999999999ADDMA1999999092971ME1314569REMSYN060AAXX  25124 06651 33/// /2204 10001 2//// 39297 48456 5////;
0137066510999992011012513004+46950+008017FM-12+074599999V0202501N002619999999N9999999N1+00071+99999999999ADDMA1999999092871MD1819999+9999ME1314499OA149900511REMSYN076AAXX  25134 06651 33/// /2505 10007 2//// 39287 48449 58/// 333 91110 91207;
0096066510999992011012514004+46950+008017FM-12+074599999V0202401N003119999999N9999999N1+00081+99999999999ADDMA1999999092831ME1314469REMSYN060AAXX  25144 06651 43/// /2406 10008 2//// 39283 48446 5////;
0137066510999992011012515004+46950+008017FM-12+074599999V0202101N002619999999N9999999N1+00041+99999999999ADDMA1999999092821MD1719999+9999ME1314449OA149900511REMSYN076AAXX  25154 06651 33/// /2105 10004 2//// 39282 48444 57/// 333 91110 91207;
0137066510999992011012516004+46950+008017FM-12+074599999V0202101N003119999999N9999999N1+00021+99999999999ADDMA1999999092801MD1710071+9999ME1314429OA149900571REMSYN076AAXX  25164 06651 33/// /2106 10002 2//// 39280 48442 57007 333 91111 91207;
0137066510999992011012517004+46950+008017FM-12+074599999V0202101N002619999999N9999999N1+00001+99999999999ADDMA1999999092791MD1710041+9999ME1314409OA149900571REMSYN076AAXX  25174 06651 33/// /2105 10000 2//// 39279 48440 57004 333 91111 91207;
0156066510999992011012518004+46950+008017FM-12+074599999V0202001N004619999999N9999999N1+00041+99999999999ADDKA1120M+00091MA1999999092731MD1710091+9999ME1314369OA149900771REMSYN082AAXX  25184 06651 33/// /2009 10004 2//// 39273 48436 57009 333 10009 91115 91211;
0137066510999992011012519004+46950+008017FM-12+074599999V0202001N005119999999N9999999N1+00031+99999999999ADDMA1999999092721MD1710081+9999ME1314359OA149900931REMSYN076AAXX  25194 06651 33/// /2010 10003 2//// 39272 48435 57008 333 91118 91211;
0137066510999992011012520004+46950+008017FM-12+074599999V0202201N003119999999N9999999N1+00011+99999999999ADDMA1999999092731MD1719999+9999ME1314359OA149900931REMSYN076AAXX  25204 06651 33/// /2206 10001 2//// 39273 48435 57/// 333 91118 91212;
0137066510999992011012521004+46950+008017FM-12+074599999V0202201N003619999999N9999999N1-00051+99999999999ADDMA1999999092721MD1519999+9999ME1314339OA149900931REMSYN076AAXX  25214 06651 33/// /2207 11005 2//// 39272 48433 55/// 333 91118 91212;
0137066510999992011012522004+46950+008017FM-12+074599999V0202201N002619999999N9999999N1-00071+99999999999ADDMA1999999092681MD1810041+9999ME1314299OA149900671REMSYN076AAXX  25224 06651 33/// /2205 11007 2//// 39268 48429 58004 333 91113 91208;
0137066510999992011012523004+46950+008017FM-12+074599999V0202301N003619999999N9999999N1-00141+99999999999ADDMA1999999092671MD1710061+9999ME1314269OA149900671REMSYN076AAXX  25234 06651 33/// /2307 11014 2//// 39267 48426 57006 333 91113 91208;
0137066510999992011012600004+46950+008017FM-12+074599999V0202301N004119999999N9999999N1-00101+99999999999ADDMA1999999092591MD1710131+9999ME1314219OA149900931REMSYN076AAXX  26004 06651 33/// /2308 11010 2//// 39259 48421 57013 333 91118 91212;
0137066510999992011012601004+46950+008017FM-12+074599999V0202201N002619999999N9999999N1-00111+99999999999ADDMA1999999092551MD1710131+9999ME1314179OA149900671REMSYN076AAXX  26014 06651 33/// /2205 11011 2//// 39255 48417 57013 333 91113 91209;
0137066510999992011012602004+46950+008017FM-12+074599999V0202201N003619999999N9999999N1-00141+99999999999ADDMA1999999092501MD1610171+9999ME1314129OA149900671REMSYN076AAXX  26024 06651 33/// /2207 11014 2//// 39250 48412 56017 333 91113 91209;
0137066510999992011012603004+46950+008017FM-12+074599999V0201901N002619999999N9999999N1-00111+99999999999ADDMA1999999092451MD1710141+9999ME1314099OA149900671REMSYN076AAXX  26034 06651 33/// /1905 11011 2//// 39245 48409 57014 333 91113 91209;
0137066510999992011012604004+46950+008017FM-12+074599999V0201901N002619999999N9999999N1-00081+99999999999ADDMA1999999092401MD1810151+9999ME1314059OA149900571REMSYN076AAXX  26044 06651 33/// /1905 11008 2//// 39240 48405 58015 333 91111 91207;
0137066510999992011012605004+46950+008017FM-12+074599999V0202201N003119999999N9999999N1-00081+99999999999ADDMA1999999092331MD1810171+9999ME1313999OA149900571REMSYN076AAXX  26054 06651 33/// /2206 11008 2//// 39233 48399 58017 333 91111 91207;
0202066510999992011012606004+46950+008017FM-12+074599999V0202001N001519999999N9999999N1-00111+99999999999ADDAA124000091AL19900091KA1999N-00151MA1999999092291MD1610161+9999ME1313959OA149900931REMSYN088AAXX  26064 06651 33/// /2003 11011 2//// 39229 48395 56016 333 21015 70000 91118 91212;EQDQ01  00002PRCP24
0137066510999992011012607004+46950+008017FM-12+074599999V0202201N001019999999N9999999N1-00151+99999999999ADDMA1999999092271MD1710131+9999ME1313929OA149900511REMSYN076AAXX  26074 06651 33/// /2202 11015 2//// 39227 48392 57013 333 91110 91206;
0137066510999992011012608004+46950+008017FM-12+074599999V0201701N001519999999N9999999N1-00171+99999999999ADDMA1999999092261MD1710071+9999ME1313919OA149900461REMSYN076AAXX  26084 06651 33/// /1703 11017 2//// 39226 48391 57007 333 91109 91205;
0137066510999992011012609004+46950+008017FM-12+074599999V0201901N002119999999N9999999N1-00041+99999999999ADDMA1999999092251MD1710041+9999ME1313939OA149900571REMSYN076AAXX  26094 06651 33/// /1904 11004 2//// 39225 48393 57004 333 91111 91207;
0137066510999992011012610004+46950+008017FM-12+074599999V0202201N002619999999N9999999N1+00041+99999999999ADDMA1999999092241MD1710031+9999ME1313949OA149900511REMSYN076AAXX  26104 06651 33/// /2205 10004 2//// 39224 48394 57003 333 91110 91205;
0137066510999992011012611004+46950+008017FM-12+074599999V0202101N001519999999N9999999N1+00121+99999999999ADDMA1999999092171MD1710091+9999ME1313909OA149900511REMSYN076AAXX  26114 06651 33/// /2103 10012 2//// 39217 48390 57009 333 91110 91205;
0137066510999992011012612004+46950+008017FM-12+074599999V0202201N001519999999N9999999N1+00211+99999999999ADDMA1999999092111MD1710141+9999ME1313879OA149900671REMSYN076AAXX  26124 06651 33/// /2203 10021 2//// 39211 48387 57014 333 91113 91209;
0137066510999992011012613004+46950+008017FM-12+074599999V0202501N002119999999N9999999N1+00261+99999999999ADDMA1999999092051MD1819999+9999ME1313839OA149900361REMSYN076AAXX  26134 06651 33/// /2504 10026 2//// 39205 48383 58/// 333 91107 91205;
0096066510999992011012614004+46950+008017FM-12+074599999V0201501N001519999999N9999999N1+00241+99999999999ADDMA1999999092011ME1313799REMSYN060AAXX  26144 06651 33/// /1503 10024 2//// 39201 48379 5////;
0137066510999992011012615004+46950+008017FM-12+074599999V0201901N000519999999N9999999N1+00181+99999999999ADDMA1999999092011MD1610101+9999ME1313789OA149900511REMSYN076AAXX  26154 06651 33/// /1901 10018 2//// 39201 48378 56010 333 91110 91205;
0137066510999992011012616004+46950+008017FM-12+074599999V0202301N001019999999N9999999N1-00071+99999999999ADDMA1999999092011MD1619999+9999ME1313729OA149900211REMSYN076AAXX  26164 06651 33/// /2302 11007 2//// 39201 48372 56/// 333 91104 91203;
0137066510999992011012617004+46950+008017FM-12+074599999V0202201N000519999999N9999999N1-00231+99999999999ADDMA1999999092031MD1310021+9999ME1313709OA149900151REMSYN076AAXX  26174 06651 33/// /2201 11023 2//// 39203 48370 53002 333 91103 91202;
0156066510999992011012618004+46950+008017FM-12+074599999V0202001N001019999999N9999999N1-00381+99999999999ADDKA1120M+00271MA1999999092071MD1310061+9999ME1313709OA149900511REMSYN082AAXX  26184 06651 33/// /2002 11038 2//// 39207 48370 53006 333 10027 91110 91205;
0137066510999992011012619004+46950+008017FM-12+074599999V0201701N000519999999N9999999N1-00431+99999999999ADDMA1999999092111MD1310101+9999ME1313729OA149900151REMSYN076AAXX  26194 06651 33/// /1701 11043 2//// 39211 48372 53010 333 91103 91202;
0137066510999992011012620004+46950+008017FM-12+074599999V0202001N001019999999N9999999N1-00571+99999999999ADDMA1999999092141MD1110111+9999ME1313719OA149900151REMSYN076AAXX  26204 06651 33/// /2002 11057 2//// 39214 48371 51011 333 91103 91202;
0137066510999992011012621004+46950+008017FM-12+074599999V0202101N001519999999N9999999N1-00621+99999999999ADDMA1999999092151MD1210081+9999ME1313719OA149900211REMSYN076AAXX  26214 06651 33/// /2103 11062 2//// 39215 48371 52008 333 91104 91203;
0137066510999992011012622004+46950+008017FM-12+074599999V0202101N001019999999N9999999N1-00611+99999999999ADDMA1999999092161MD1210051+9999ME1313729OA149900261REMSYN076AAXX  26224 06651 33/// /2102 11061 2//// 39216 48372 52005 333 91105 91203;
0137066510999992011012623004+46950+008017FM-12+074599999V0202301N001019999999N9999999N1-00631+99999999999ADDMA1999999092181MD1210041+9999ME1313739OA149900261REMSYN076AAXX  26234 06651 33/// /2302 11063 2//// 39218 48373 52004 333 91105 91203;
0137066510999992011012700004+46950+008017FM-12+074599999V0202001N000519999999N9999999N1-00701+99999999999ADDMA1999999092191MD1210041+9999ME1313729OA149900461REMSYN076AAXX  27004 06651 33/// /2001 11070 2//// 39219 48372 52004 333 91109 91205;
0137066510999992011012701004+46950+008017FM-12+074599999V0202201N001019999999N9999999N1-00561+99999999999ADDMA1999999092201MD1210041+9999ME1313769OA149900151REMSYN076AAXX  27014 06651 33/// /2202 11056 2//// 39220 48376 52004 333 91103 91203;
0137066510999992011012702004+46950+008017FM-12+074599999V0201901N001519999999N9999999N1-00431+99999999999ADDMA1999999092211MD1210031+9999ME1313809OA149900311REMSYN076AAXX  27024 06651 33/// /1903 11043 2//// 39221 48380 52003 333 91106 91204;
0137066510999992011012703004+46950+008017FM-12+074599999V0201601N001019999999N9999999N1-00381+99999999999ADDMA1999999092231MD1210041+9999ME1313839OA149900311REMSYN076AAXX  27034 06651 33/// /1602 11038 2//// 39223 48383 52004 333 91106 91204;
0156066510999992011012704004+46950+008017FM-12+074599999V0201701N004619999999N9999999N1-00351+99999999999ADDMA1999999092241MD1210041+9999ME1313859OA149999999REMSYN076AAXX  27044 06651 33/// /1709 11035 2//// 39224 48385 52004 333 91108 91205;EQDQ01  00412WGOSPD
0137066510999992011012705004+46950+008017FM-12+074599999V0201301N001519999999N9999999N1-00301+99999999999ADDMA1999999092271MD1310061+9999ME1313899OA149900571REMSYN076AAXX  27054 06651 33/// /1303 11030 2//// 39227 48389 53006 333 91111 91209;
0202066510999992011012706004+46950+008017FM-12+074599999V0201701N003119999999N9999999N1-00351+99999999999ADDAA124000091AL19900091KA1999N-00751MA1999999092321MD1310091+9999ME1313929OA149900571REMSYN088AAXX  27064 06651 33/// /1706 11035 2//// 39232 48392 53009 333 21075 70000 91111 91209;EQDQ01  00002PRCP24
0137066510999992011012707004+46950+008017FM-12+074599999V0201601N003619999999N9999999N1-00371+99999999999ADDMA1999999092361MD1110121+9999ME1313949OA149900511REMSYN076AAXX  27074 06651 33/// /1607 11037 2//// 39236 48394 51012 333 91110 91207;
0137066510999992011012708004+46950+008017FM-12+074599999V0201501N003119999999N9999999N1-00331+99999999999ADDMA1999999092391MD1110121+9999ME1313989OA149900571REMSYN076AAXX  27084 06651 33/// /1506 11033 2//// 39239 48398 51012 333 91111 91208;
0137066510999992011012709004+46950+008017FM-12+074599999V0201601N002619999999N9999999N1-00291+99999999999ADDMA1999999092421MD1110101+9999ME1314029OA149900571REMSYN076AAXX  27094 06651 33/// /1605 11029 2//// 39242 48402 51010 333 91111 91209;
0137066510999992011012710004+46950+008017FM-12+074599999V0201601N001519999999N9999999N1-00231+99999999999ADDMA1999999092471MD1110111+9999ME1314079OA149900511REMSYN076AAXX  27104 06651 33/// /1603 11023 2//// 39247 48407 51011 333 91110 91207;
0137066510999992011012711004+46950+008017FM-12+074599999V0200301N001519999999N9999999N1-00101+99999999999ADDMA1999999092491MD1210101+9999ME1314129OA149900461REMSYN076AAXX  27114 06651 33/// /0303 11010 2//// 39249 48412 52010 333 91109 91207;
0137066510999992011012712004+46950+008017FM-12+074599999V0200601N002119999999N9999999N1-00021+99999999999ADDMA1999999092461MD1010041+9999ME1314129OA149900571REMSYN076AAXX  27124 06651 33/// /0604 11002 2//// 39246 48412 50004 333 91111 91209;
0137066510999992011012713004+46950+008017FM-12+074599999V0200601N002119999999N9999999N1-00011+99999999999ADDMA1999999092431MD1810041+9999ME1314099OA149900571REMSYN076AAXX  27134 06651 33/// /0604 11001 2//// 39243 48409 58004 333 91111 91207;
0137066510999992011012714004+46950+008017FM-12+074599999V0200201N003119999999N9999999N1-00011+99999999999ADDMA1999999092401MD1710091+9999ME1314079OA149900571REMSYN076AAXX  27144 06651 33/// /0206 11001 2//// 39240 48407 57009 333 91111 91207;
0137066510999992011012715004+46950+008017FM-12+074599999V0200401N002119999999N9999999N1-00041+99999999999ADDMA1999999092421MD1510041+9999ME1314089OA149900621REMSYN076AAXX  27154 06651 33/// /0404 11004 2//// 39242 48408 55004 333 91112 91209;
0137066510999992011012716004+46950+008017FM-12+074599999V0200801N001519999999N9999999N1-00031+99999999999ADDMA1999999092411MD1710021+9999ME1314079OA149900621REMSYN076AAXX  27164 06651 33/// /0803 11003 2//// 39241 48407 57002 333 91112 91209;
0137066510999992011012717004+46950+008017FM-12+074599999V0200401N002119999999N9999999N1-00031+99999999999ADDMA1999999092421MD1210021+9999ME1314089OA149900621REMSYN076AAXX  27174 06651 33/// /0404 11003 2//// 39242 48408 52002 333 91112 91208;
0156066510999992011012718004+46950+008017FM-12+074599999V0200401N001519999999N9999999N1-00051+99999999999ADDKA1120M+00001MA1999999092431MD1510011+9999ME1314089OA149900621REMSYN082AAXX  27184 06651 33/// /0403 11005 2//// 39243 48408 55001 333 10000 91112 91209;
0137066510999992011012719004+46950+008017FM-12+074599999V0200401N002619999999N9999999N1-00051+99999999999ADDMA1999999092441MD1210031+9999ME1314099OA149900411REMSYN076AAXX  27194 06651 33/// /0405 11005 2//// 39244 48409 52003 333 91108 91205;
0137066510999992011012720004+46950+008017FM-12+074599999V0200301N003119999999N9999999N1-00071+99999999999ADDMA1999999092451MD1110031+9999ME1314109OA149900411REMSYN076AAXX  27204 06651 33/// /0306 11007 2//// 39245 48410 51003 333 91108 91205;
0137066510999992011012721004+46950+008017FM-12+074599999V0201601N001019999999N9999999N1-00131+99999999999ADDMA1999999092481MD1310051+9999ME1314119OA149900621REMSYN076AAXX  27214 06651 33/// /1602 11013 2//// 39248 48411 53005 333 91112 91208;
0137066510999992011012722004+46950+008017FM-12+074599999V0200401N003119999999N9999999N1-00121+99999999999ADDMA1999999092461MD1010021+9999ME1314099OA149900571REMSYN076AAXX  27224 06651 33/// /0406 11012 2//// 39246 48409 50002 333 91111 91207;
0137066510999992011012723004+46950+008017FM-12+074599999V0200301N003119999999N9999999N1-00121+99999999999ADDMA1999999092461MD1010011+9999ME1314099OA149900571REMSYN076AAXX  27234 06651 33/// /0306 11012 2//// 39246 48409 50001 333 91111 91207;
0137066510999992011012800004+46950+008017FM-12+074599999V0200301N004619999999N9999999N1-00141+99999999999ADDMA1999999092451MD1710031+9999ME1314089OA149900621REMSYN076AAXX  28004 06651 33/// /0309 11014 2//// 39245 48408 57003 333 91112 91209;
0137066510999992011012801004+46950+008017FM-12+074599999V0200201N004619999999N9999999N1-00151+99999999999ADDMA1999999092431MD1710031+9999ME1314069OA149900721REMSYN076AAXX  28014 06651 33/// /0209 11015 2//// 39243 48406 57003 333 91114 91209;
0137066510999992011012802004+46950+008017FM-12+074599999V0200201N003619999999N9999999N1-00161+99999999999ADDMA1999999092441MD1510021+9999ME1314079OA149900721REMSYN076AAXX  28024 06651 33/// /0207 11016 2//// 39244 48407 55002 333 91114 91209;
0137066510999992011012803004+46950+008017FM-12+074599999V0200301N002619999999N9999999N1-00151+99999999999ADDMA1999999092441MD1010011+9999ME1314079OA149900721REMSYN076AAXX  28034 06651 33/// /0305 11015 2//// 39244 48407 50001 333 91114 91209;
0137066510999992011012804004+46950+008017FM-12+074599999V0203401N001019999999N9999999N1-00241+99999999999ADDMA1999999092461MD1210031+9999ME1314069OA149900721REMSYN076AAXX  28044 06651 33/// /3402 11024 2//// 39246 48406 52003 333 91114 91208;
0137066510999992011012805004+46950+008017FM-12+074599999V0200301N002619999999N9999999N1-00171+99999999999ADDMA1999999092471MD1210031+9999ME1314099OA149900571REMSYN076AAXX  28054 06651 33/// /0305 11017 2//// 39247 48409 52003 333 91111 91207;
0202066510999992011012806004+46950+008017FM-12+074599999V0200401N003619999999N9999999N1-00151+99999999999ADDAA124000091AL19900091KA1999N-00261MA1999999092491MD1310051+9999ME1314119OA149900721REMSYN088AAXX  28064 06651 33/// /0407 11015 2//// 39249 48411 53005 333 21026 70000 91114 91209;EQDQ01  00002PRCP24
0137066510999992011012807004+46950+008017FM-12+074599999V0200401N003619999999N9999999N1-00171+99999999999ADDMA1999999092521MD1310061+9999ME1314139OA149900621REMSYN076AAXX  28074 06651 33/// /0407 11017 2//// 39252 48413 53006 333 91112 91208;
0137066510999992011012808004+46950+008017FM-12+074599999V0200301N004119999999N9999999N1-00171+99999999999ADDMA1999999092561MD1310091+9999ME1314169OA149900771REMSYN076AAXX  28084 06651 33/// /0308 11017 2//// 39256 48416 53009 333 91115 91209;
0137066510999992011012809004+46950+008017FM-12+074599999V0200301N005119999999N9999999N1-00181+99999999999ADDMA1999999092591MD1210101+9999ME1314199OA149900771REMSYN076AAXX  28094 06651 33/// /0310 11018 2//// 39259 48419 52010 333 91115 91210;
0137066510999992011012810004+46950+008017FM-12+074599999V0200201N005119999999N9999999N1-00181+99999999999ADDMA1999999092631MD1210111+9999ME1314229OA149900771REMSYN076AAXX  28104 06651 33/// /0210 11018 2//// 39263 48422 52011 333 91115 91210;
0137066510999992011012811004+46950+008017FM-12+074599999V0200301N003619999999N9999999N1-00161+99999999999ADDMA1999999092671MD1210111+9999ME1314269OA149900771REMSYN076AAXX  28114 06651 33/// /0307 11016 2//// 39267 48426 52011 333 91115 91210;
0137066510999992011012812004+46950+008017FM-12+074599999V0200201N003119999999N9999999N1-00141+99999999999ADDMA1999999092661MD1210071+9999ME1314269OA149900771REMSYN076AAXX  28124 06651 33/// /0206 11014 2//// 39266 48426 52007 333 91115 91210;
0156066510999992011012813004+46950+008017FM-12+074599999V0200201N003619999999N9999999N1-00131+99999999999ADDMA1999999092631MD1410001+9999ME1314239OA149900621REMSYN076AAXX  28134 06651 33/// /0207 11013 2//// 39263 48423 58000 333 91112 91209;EQDQ01+000082APCTEN
0137066510999992011012814004+46950+008017FM-12+074599999V0200201N003619999999N9999999N1-00131+99999999999ADDMA1999999092651MD1510021+9999ME1314259OA149900511REMSYN076AAXX  28144 06651 33/// /0207 11013 2//// 39265 48425 55002 333 91110 91207;
0137066510999992011012815004+46950+008017FM-12+074599999V0200201N004619999999N9999999N1-00141+99999999999ADDMA1999999092661MD1510001+9999ME1314269OA149900771REMSYN076AAXX  28154 06651 33/// /0209 11014 2//// 39266 48426 55000 333 91115 91210;
0137066510999992011012816004+46950+008017FM-12+074599999V0200201N004119999999N9999999N1-00151+99999999999ADDMA1999999092681MD1210051+9999ME1314279OA149900621REMSYN076AAXX  28164 06651 33/// /0208 11015 2//// 39268 48427 52005 333 91112 91209;
0137066510999992011012817004+46950+008017FM-12+074599999V0200301N004119999999N9999999N1-00171+99999999999ADDMA1999999092701MD1210051+9999ME1314289OA149900671REMSYN076AAXX  28174 06651 33/// /0308 11017 2//// 39270 48428 52005 333 91113 91209;
0156066510999992011012818004+46950+008017FM-12+074599999V0200201N003619999999N9999999N1-00201+99999999999ADDKA1120M-00121MA1999999092741MD1310081+9999ME1314319OA149900771REMSYN082AAXX  28184 06651 33/// /0207 11020 2//// 39274 48431 53008 333 11012 91115 91210;
0137066510999992011012819004+46950+008017FM-12+074599999V0200301N002619999999N9999999N1-00211+99999999999ADDMA1999999092761MD1210081+9999ME1314329OA149900571REMSYN076AAXX  28194 06651 33/// /0305 11021 2//// 39276 48432 52008 333 91111 91208;
0137066510999992011012820004+46950+008017FM-12+074599999V0200201N002119999999N9999999N1-00231+99999999999ADDMA1999999092771MD1210071+9999ME1314339OA149900571REMSYN076AAXX  28204 06651 33/// /0204 11023 2//// 39277 48433 52007 333 91111 91208;
0137066510999992011012821004+46950+008017FM-12+074599999V0200301N002619999999N9999999N1-00251+99999999999ADDMA1999999092761MD1210021+9999ME1314319OA149900671REMSYN076AAXX  28214 06651 33/// /0305 11025 2//// 39276 48431 52002 333 91113 91209;
0137066510999992011012822004+46950+008017FM-12+074599999V0200801N001019999999N9999999N1-00271+99999999999ADDMA1999999092761MD1010001+9999ME1314319OA149900411REMSYN076AAXX  28224 06651 33/// /0802 11027 2//// 39276 48431 50000 333 91108 91206;
0137066510999992011012823004+46950+008017FM-12+074599999V0201601N002119999999N9999999N1-00311+99999999999ADDMA1999999092771MD1510001+9999ME1314309OA149900411REMSYN076AAXX  28234 06651 33/// /1604 11031 2//// 39277 48430 55000 333 91108 91205;
0137066510999992011012900004+46950+008017FM-12+074599999V0201701N003619999999N9999999N1-00391+99999999999ADDMA1999999092781MD1110021+9999ME1314299OA149900671REMSYN076AAXX  29004 06651 33/// /1707 11039 2//// 39278 48429 51002 333 91113 91209;
0137066510999992011012901004+46950+008017FM-12+074599999V0201701N004619999999N9999999N1-00481+99999999999ADDMA1999999092761MD1010001+9999ME1314259OA149900671REMSYN076AAXX  29014 06651 33/// /1709 11048 2//// 39276 48425 50000 333 91113 91210;
0137066510999992011012902004+46950+008017FM-12+074599999V0201801N002619999999N9999999N1-00541+99999999999ADDMA1999999092771MD1010001+9999ME1314249OA149900671REMSYN076AAXX  29024 06651 33/// /1805 11054 2//// 39277 48424 50000 333 91113 91210;
0137066510999992011012903004+46950+008017FM-12+074599999V0201701N004119999999N9999999N1-00571+99999999999ADDMA1999999092731MD1710051+9999ME1314209OA149900671REMSYN076AAXX  29034 06651 33/// /1708 11057 2//// 39273 48420 57005 333 91113 91210;
0137066510999992011012904004+46950+008017FM-12+074599999V0201601N003119999999N9999999N1-00571+99999999999ADDMA1999999092731MD1710031+9999ME1314209OA149900571REMSYN076AAXX  29044 06651 33/// /1606 11057 2//// 39273 48420 57003 333 91111 91209;
0137066510999992011012905004+46950+008017FM-12+074599999V0201801N002619999999N9999999N1-00681+99999999999ADDMA1999999092701MD1710071+9999ME1314159OA149900571REMSYN076AAXX  29054 06651 33/// /1805 11068 2//// 39270 48415 57007 333 91111 91209;
0202066510999992011012906004+46950+008017FM-12+074599999V0201801N001519999999N9999999N1-00711+99999999999ADDAA124000091AL19900091KA1999N-00691MA1999999092691MD1710041+9999ME1314139OA149900671REMSYN088AAXX  29064 06651 33/// /1803 11071 2//// 39269 48413 57004 333 21069 70000 91113 91210;EQDQ01  00002PRCP24
0137066510999992011012907004+46950+008017FM-12+074599999V0202301N001019999999N9999999N1-00631+99999999999ADDMA1999999092711MD1510021+9999ME1314179OA149900411REMSYN076AAXX  29074 06651 33/// /2302 11063 2//// 39271 48417 55002 333 91108 91206;
0137066510999992011012908004+46950+008017FM-12+074599999V0202001N001019999999N9999999N1-00681+99999999999ADDMA1999999092711MD1210011+9999ME1314169OA149900151REMSYN076AAXX  29084 06651 33/// /2002 11068 2//// 39271 48416 52001 333 91103 91203;
0137066510999992011012909004+46950+008017FM-12+074599999V0201601N000519999999N9999999N1-00661+99999999999ADDMA1999999092701MD1010011+9999ME1314169OA149900571REMSYN076AAXX  29094 06651 33/// /1601 11066 2//// 39270 48416 50001 333 91111 91209;
0137066510999992011012910004+46950+008017FM-12+074599999V0201601N000519999999N9999999N1-00631+99999999999ADDMA1999999092681MD1710031+9999ME1314159OA149900211REMSYN076AAXX  29104 06651 33/// /1601 11063 2//// 39268 48415 57003 333 91104 91202;
0137066510999992011012911004+46950+008017FM-12+074599999V0201501N000519999999N9999999N1-00481+99999999999ADDMA1999999092651MD1610061+9999ME1314169OA149900151REMSYN076AAXX  29114 06651 33/// /1501 11048 2//// 39265 48416 56006 333 91103 91202;
0137066510999992011012912004+46950+008017FM-12+074599999V0201201N001019999999N9999999N1-00301+99999999999ADDMA1999999092571MD1810131+9999ME1314149OA149900671REMSYN076AAXX  29124 06651 33/// /1202 11030 2//// 39257 48414 58013 333 91113 91210;
0137066510999992011012913004+46950+008017FM-12+074599999V0200101N001519999999N9999999N1-00111+99999999999ADDMA1999999092541MD1610141+9999ME1314169OA149900151REMSYN076AAXX  29134 06651 33/// /0103 11011 2//// 39254 48416 56014 333 91103 91202;
0137066510999992011012914004+46950+008017FM-12+074599999V0201001N000519999999N9999999N1-00091+99999999999ADDMA1999999092501MD1610151+9999ME1314139OA149900211REMSYN076AAXX  29144 06651 33/// /1001 11009 2//// 39250 48413 56015 333 91104 91203;
0137066510999992011012915004+46950+008017FM-12+074599999V0201501N000519999999N9999999N1-00121+99999999999ADDMA1999999092481MD1610091+9999ME1314119OA149900211REMSYN076AAXX  29154 06651 33/// /1501 11012 2//// 39248 48411 56009 333 91104 91203;
0137066510999992011012916004+46950+008017FM-12+074599999V0200101N001519999999N9999999N1-00161+99999999999ADDMA1999999092471MD1710071+9999ME1314099OA149900311REMSYN076AAXX  29164 06651 33/// /0103 11016 2//// 39247 48409 57007 333 91106 91204;
0137066510999992011012917004+46950+008017FM-12+074599999V0202001N000519999999N9999999N1-00401+99999999999ADDMA1999999092481MD1519999+9999ME1314049OA149900311REMSYN076AAXX  29174 06651 33/// /2001 11040 2//// 39248 48404 55/// 333 91106 91204;
0156066510999992011012918004+46950+008017FM-12+074599999V0202001N001019999999N9999999N1-00561+99999999999ADDKA1120M-00061MA1999999092511MD1210031+9999ME1314029OA149900311REMSYN082AAXX  29184 06651 33/// /2002 11056 2//// 39251 48402 52003 333 11006 91106 91204;
0137066510999992011012919004+46950+008017FM-12+074599999V0202001N001019999999N9999999N1-00541+99999999999ADDMA1999999092521MD1210051+9999ME1314049OA149900151REMSYN076AAXX  29194 06651 33/// /2002 11054 2//// 39252 48404 52005 333 91103 91203;
0137066510999992011012920004+46950+008017FM-12+074599999V0201901N000519999999N9999999N1-00441+99999999999ADDMA1999999092501MD1019999+9999ME1314049OA149900151REMSYN076AAXX  29204 06651 33/// /1901 11044 2//// 39250 48404 50/// 333 91103 91203;
0137066510999992011012921004+46950+008017FM-12+074599999V0200801N001519999999N9999999N1-00381+99999999999ADDMA1999999092491MD1810021+9999ME1314059OA149900411REMSYN076AAXX  29214 06651 33/// /0803 11038 2//// 39249 48405 58002 333 91108 91205;
0137066510999992011012922004+46950+008017FM-12+074599999V0201801N002619999999N9999999N1-00431+99999999999ADDMA1999999092511MD1510011+9999ME1314069OA149900411REMSYN076AAXX  29224 06651 33/// /1805 11043 2//// 39251 48406 55001 333 91108 91205;
0137066510999992011012923004+46950+008017FM-12+074599999V0201801N002619999999N9999999N1-00491+99999999999ADDMA1999999092511MD1210011+9999ME1314049OA149900411REMSYN076AAXX  29234 06651 33/// /1805 11049 2//// 39251 48404 52001 333 91108 91205;
0137066510999992011013000004+46950+008017FM-12+074599999V0201801N001519999999N9999999N1-00511+99999999999ADDMA1999999092501MD1010011+9999ME1314039OA149900411REMSYN076AAXX  30004 06651 33/// /1803 11051 2//// 39250 48403 50001 333 91108 91205;
0137066510999992011013001004+46950+008017FM-12+074599999V0209999C001019999999N9999999N1-00501+99999999999ADDMA1999999092461MD1710051+9999ME1314009OA149900411REMSYN076AAXX  30014 06651 33/// /0002 11050 2//// 39246 48400 57005 333 91108 91205;
0137066510999992011013002004+46950+008017FM-12+074599999V0201801N003619999999N9999999N1-00581+99999999999ADDMA1999999092471MD1710041+9999ME1313989OA149900511REMSYN076AAXX  30024 06651 33/// /1807 11058 2//// 39247 48398 57004 333 91110 91206;
0137066510999992011013003004+46950+008017FM-12+074599999V0201701N003619999999N9999999N1-00611+99999999999ADDMA1999999092451MD1710051+9999ME1313969OA149900511REMSYN076AAXX  30034 06651 33/// /1707 11061 2//// 39245 48396 57005 333 91110 91208;
0137066510999992011013004004+46950+008017FM-12+074599999V0201701N003119999999N9999999N1-00631+99999999999ADDMA1999999092431MD1710031+9999ME1313949OA149900511REMSYN076AAXX  30044 06651 33/// /1706 11063 2//// 39243 48394 57003 333 91110 91208;
0137066510999992011013005004+46950+008017FM-12+074599999V0201701N003119999999N9999999N1-00671+99999999999ADDMA1999999092451MD1510021+9999ME1313959OA149900511REMSYN076AAXX  30054 06651 33/// /1706 11067 2//// 39245 48395 55002 333 91110 91208;
0202066510999992011013006004+46950+008017FM-12+074599999V0201801N002619999999N9999999N1-00671+99999999999ADDAA124000091AL19900091KA1999N-00671MA1999999092491MD1310041+9999ME1313989OA149900511REMSYN088AAXX  30064 06651 33/// /1805 11067 2//// 39249 48398 53004 333 21067 70000 91110 91208;EQDQ01  00002PRCP24
0137066510999992011013007004+46950+008017FM-12+074599999V0201801N002619999999N9999999N1-00631+99999999999ADDMA1999999092531MD1210101+9999ME1314029OA149900461REMSYN076AAXX  30074 06651 33/// /1805 11063 2//// 39253 48402 52010 333 91109 91206;
0137066510999992011013008004+46950+008017FM-12+074599999V0201701N004619999999N9999999N1-00631+99999999999ADDMA1999999092551MD1210101+9999ME1314049OA149900461REMSYN076AAXX  30084 06651 33/// /1709 11063 2//// 39255 48404 52010 333 91109 91206;
0137066510999992011013009004+46950+008017FM-12+074599999V0201701N003119999999N9999999N1-00581+99999999999ADDMA1999999092571MD1210081+9999ME1314079OA149900621REMSYN076AAXX  30094 06651 33/// /1706 11058 2//// 39257 48407 52008 333 91112 91209;
0137066510999992011013010004+46950+008017FM-12+074599999V0200901N001519999999N9999999N1-00491+99999999999ADDMA1999999092581MD1210051+9999ME1314109OA149900621REMSYN076AAXX  30104 06651 33/// /0903 11049 2//// 39258 48410 52005 333 91112 91209;
0137066510999992011013011004+46950+008017FM-12+074599999V0201201N001519999999N9999999N1-00431+99999999999ADDMA1999999092561MD1010011+9999ME1314109OA149900511REMSYN076AAXX  30114 06651 33/// /1203 11043 2//// 39256 48410 50001 333 91110 91207;
0137066510999992011013012004+46950+008017FM-12+074599999V0200301N001519999999N9999999N1-00341+99999999999ADDMA1999999092531MD1710041+9999ME1314109OA149900621REMSYN076AAXX  30124 06651 33/// /0303 11034 2//// 39253 48410 57004 333 91112 91209;
0137066510999992011013013004+46950+008017FM-12+074599999V0200401N002619999999N9999999N1-00351+99999999999ADDMA1999999092521MD1710061+9999ME1314089OA149900411REMSYN076AAXX  30134 06651 33/// /0405 11035 2//// 39252 48408 57006 333 91108 91205;
0137066510999992011013014004+46950+008017FM-12+074599999V0200301N003119999999N9999999N1-00371+99999999999ADDMA1999999092541MD1710021+9999ME1314109OA149900411REMSYN076AAXX  30144 06651 33/// /0306 11037 2//// 39254 48410 57002 333 91108 91206;
0137066510999992011013015004+46950+008017FM-12+074599999V0200401N002119999999N9999999N1-00381+99999999999ADDMA1999999092561MD1310031+9999ME1314119OA149900511REMSYN076AAXX  30154 06651 33/// /0404 11038 2//// 39256 48411 53003 333 91110 91207;
0137066510999992011013016004+46950+008017FM-12+074599999V0200501N002119999999N9999999N1-00411+99999999999ADDMA1999999092601MD1210081+9999ME1314149OA149900411REMSYN076AAXX  30164 06651 33/// /0504 11041 2//// 39260 48414 52008 333 91108 91206;
0137066510999992011013017004+46950+008017FM-12+074599999V0201201N000519999999N9999999N1-00431+99999999999ADDMA1999999092641MD1210101+9999ME1314169OA149900361REMSYN076AAXX  30174 06651 33/// /1201 11043 2//// 39264 48416 52010 333 91107 91204;
0156066510999992011013018004+46950+008017FM-12+074599999V0200601N001019999999N9999999N1-00431+99999999999ADDKA1120M-00331MA1999999092711MD1310151+9999ME1314229OA149900621REMSYN082AAXX  30184 06651 33/// /0602 11043 2//// 39271 48422 53015 333 11033 91112 91209;
0137066510999992011013019004+46950+008017FM-12+074599999V0202401N001019999999N9999999N1-00431+99999999999ADDMA1999999092771MD1310171+9999ME1314279OA149900211REMSYN076AAXX  30194 06651 33/// /2402 11043 2//// 39277 48427 53017 333 91104 91202;
0137066510999992011013020004+46950+008017FM-12+074599999V0202801N000519999999N9999999N1-00451+99999999999ADDMA1999999092791MD1110151+9999ME1314289OA149900211REMSYN076AAXX  30204 06651 33/// /2801 11045 2//// 39279 48428 51015 333 91104 91202;
0137066510999992011013021004+46950+008017FM-12+074599999V0200401N001519999999N9999999N1-00441+99999999999ADDMA1999999092851MD1210141+9999ME1314349OA149900361REMSYN076AAXX  30214 06651 33/// /0403 11044 2//// 39285 48434 52014 333 91107 91204;
0137066510999992011013022004+46950+008017FM-12+074599999V0200601N001019999999N9999999N1-00461+99999999999ADDMA1999999092891MD1310121+9999ME1314379OA149900261REMSYN076AAXX  30224 06651 33/// /0602 11046 2//// 39289 48437 53012 333 91105 91203;
0137066510999992011013023004+46950+008017FM-12+074599999V0202101N000519999999N9999999N1-00481+99999999999ADDMA1999999092911MD1110121+9999ME1314389OA149900261REMSYN076AAXX  30234 06651 33/// /2101 11048 2//// 39291 48438 51012 333 91105 91203;
0137066510999992011013100004+46950+008017FM-12+074599999V0202501N000519999999N9999999N1-00481+99999999999ADDMA1999999092931MD1110081+9999ME1314399OA149900461REMSYN076AAXX  31004 06651 33/// /2501 11048 2//// 39293 48439 51008 333 91109 91206;
0137066510999992011013101004+46950+008017FM-12+074599999V0201801N001019999999N9999999N1-00511+99999999999ADDMA1999999092931MD1210041+9999ME1314399OA149900461REMSYN076AAXX  31014 06651 33/// /1802 11051 2//// 39293 48439 52004 333 91109 91206;
0137066510999992011013102004+46950+008017FM-12+074599999V0201501N002119999999N9999999N1-00561+99999999999ADDMA1999999092941MD1210031+9999ME1314389OA149900511REMSYN076AAXX  31024 06651 33/// /1504 11056 2//// 39294 48438 52003 333 91110 91208;
0137066510999992011013103004+46950+008017FM-12+074599999V0201601N000519999999N9999999N1-00561+99999999999ADDMA1999999092951MD1310021+9999ME1314399OA149900511REMSYN076AAXX  31034 06651 33/// /1601 11056 2//// 39295 48439 53002 333 91110 91208;
0137066510999992011013104004+46950+008017FM-12+074599999V0201701N002619999999N9999999N1-00641+99999999999ADDMA1999999092961MD1210031+9999ME1314389OA149900361REMSYN076AAXX  31044 06651 33/// /1705 11064 2//// 39296 48438 52003 333 91107 91205;
0137066510999992011013105004+46950+008017FM-12+074599999V0201801N002619999999N9999999N1-00671+99999999999ADDMA1999999092981MD1210041+9999ME1314389OA149900361REMSYN076AAXX  31054 06651 33/// /1805 11067 2//// 39298 48438 52004 333 91107 91205;
0202066510999992011013106004+46950+008017FM-12+074599999V0201801N001519999999N9999999N1-00681+99999999999ADDAA124000091AL19900091KA1999N-00671MA1999999093031MD1310081+9999ME1314429OA149900511REMSYN088AAXX  31064 06651 33/// /1803 11068 2//// 39303 48442 53008 333 21067 70000 91110 91208;EQDQ01  00002PRCP24
0137066510999992011013107004+46950+008017FM-12+074599999V0201701N003119999999N9999999N1-00691+99999999999ADDMA1999999093081MD1310121+9999ME1314469OA149900361REMSYN076AAXX  31074 06651 33/// /1706 11069 2//// 39308 48446 53012 333 91107 91205;
0137066510999992011013108004+46950+008017FM-12+074599999V0201701N003119999999N9999999N1-00711+99999999999ADDMA1999999093121MD1110141+9999ME1314499OA149900411REMSYN076AAXX  31084 06651 33/// /1706 11071 2//// 39312 48449 51014 333 91108 91206;
0137066510999992011013109004+46950+008017FM-12+074599999V0201701N001519999999N9999999N1-00691+99999999999ADDMA1999999093141MD1210111+9999ME1314519OA149900411REMSYN076AAXX  31094 06651 33/// /1703 11069 2//// 39314 48451 52011 333 91108 91207;
0137066510999992011013110004+46950+008017FM-12+074599999V0202301N000519999999N9999999N1-00601+99999999999ADDMA1999999093181MD1210101+9999ME1314579OA149900411REMSYN076AAXX  31104 06651 33/// /2301 11060 2//// 39318 48457 52010 333 91108 91207;
0137066510999992011013111004+46950+008017FM-12+074599999V0200601N001519999999N9999999N1-00481+99999999999ADDMA1999999093201MD1210081+9999ME1314629OA149900261REMSYN076AAXX  31114 06651 33/// /0603 11048 2//// 39320 48462 52008 333 91105 91203;
0137066510999992011013112004+46950+008017FM-12+074599999V0200701N001019999999N9999999N1-00431+99999999999ADDMA1999999093201MD1210061+9999ME1314639OA149900511REMSYN076AAXX  31124 06651 33/// /0702 11043 2//// 39320 48463 52006 333 91110 91208;
0137066510999992011013113004+46950+008017FM-12+074599999V0201901N001019999999N9999999N1-00371+99999999999ADDMA1999999093151MD1810031+9999ME1314619OA149900311REMSYN076AAXX  31134 06651 33/// /1902 11037 2//// 39315 48461 58003 333 91106 91203;
0137066510999992011013114004+46950+008017FM-12+074599999V0200301N002119999999N9999999N1-00321+99999999999ADDMA1999999093151MD1710051+9999ME1314629OA149900261REMSYN076AAXX  31144 06651 33/// /0304 11032 2//// 39315 48462 57005 333 91105 91203;
0137066510999992011013115004+46950+008017FM-12+074599999V0200301N002119999999N9999999N1-00361+99999999999ADDMA1999999093161MD1510041+9999ME1314629OA149900411REMSYN076AAXX  31154 06651 33/// /0304 11036 2//// 39316 48462 55004 333 91108 91205;
0137066510999992011013116004+46950+008017FM-12+074599999V0203101N000519999999N9999999N1-00391+99999999999ADDMA1999999093211MD1210061+9999ME1314659OA149900411REMSYN076AAXX  31164 06651 33/// /3101 11039 2//// 39321 48465 52006 333 91108 91205;
0137066510999992011013117004+46950+008017FM-12+074599999V0200101N000519999999N9999999N1-00421+99999999999ADDMA1999999093271MD1210121+9999ME1314699OA149900411REMSYN076AAXX  31174 06651 33/// /0101 11042 2//// 39327 48469 52012 333 91108 91205;
0156066510999992011013118004+46950+008017FM-12+074599999V0200501N001019999999N9999999N1-00431+99999999999ADDKA1120M-00301MA1999999093311MD1110151+9999ME1314729OA149900411REMSYN082AAXX  31184 06651 33/// /0502 11043 2//// 39331 48472 51015 333 11030 91108 91207;
0137066510999992011013119004+46950+008017FM-12+074599999V0200901N001519999999N9999999N1-00471+99999999999ADDMA1999999093371MD1210161+9999ME1314769OA149900261REMSYN076AAXX  31194 06651 33/// /0903 11047 2//// 39337 48476 52016 333 91105 91203;
0137066510999992011013120004+46950+008017FM-12+074599999V0200401N001519999999N9999999N1-00471+99999999999ADDMA1999999093391MD1210121+9999ME1314789OA149900261REMSYN076AAXX  31204 06651 33/// /0403 11047 2//// 39339 48478 52012 333 91105 91203;
0137066510999992011013121004+46950+008017FM-12+074599999V0200601N001519999999N9999999N1-00501+99999999999ADDMA1999999093431MD1210121+9999ME1314809OA149900411REMSYN076AAXX  31214 06651 33/// /0603 11050 2//// 39343 48480 52012 333 91108 91205;
0137066510999992011013122004+46950+008017FM-12+074599999V0201401N001519999999N9999999N1-00521+99999999999ADDMA1999999093431MD1210061+9999ME1314809OA149900261REMSYN076AAXX  31224 06651 33/// /1403 11052 2//// 39343 48480 52006 333 91105 91203;
0137066510999992011013123004+46950+008017FM-12+074599999V0201701N002119999999N9999999N1-00541+99999999999ADDMA1999999093431MD1010041+9999ME1314799OA149900261REMSYN076AAXX  31234 06651 33/// /1704 11054 2//// 39343 48479 50004 333 91105 91203;
0137066510999992011020100004+46950+008017FM-12+074599999V0201901N002119999999N9999999N1-00541+99999999999ADDMA1999999093441MD1210011+9999ME1314809OA149900411REMSYN076AAXX  01004 06651 33/// /1904 11054 2//// 39344 48480 52001 333 91108 91205;
0137066510999992011020101004+46950+008017FM-12+074599999V0201701N001519999999N9999999N1-00611+99999999999ADDMA1999999093461MD1210031+9999ME1314809OA149900361REMSYN076AAXX  01014 06651 33/// /1703 11061 2//// 39346 48480 52003 333 91107 91205;
0137066510999992011020102004+46950+008017FM-12+074599999V0201801N002119999999N9999999N1-00641+99999999999ADDMA1999999093461MD1210031+9999ME1314799OA149900361REMSYN076AAXX  01024 06651 33/// /1804 11064 2//// 39346 48479 52003 333 91107 91205;
0137066510999992011020103004+46950+008017FM-12+074599999V0201801N002119999999N9999999N1-00641+99999999999ADDMA1999999093461MD1210021+9999ME1314799OA149900361REMSYN076AAXX  01034 06651 33/// /1804 11064 2//// 39346 48479 52002 333 91107 91205;
0137066510999992011020104004+46950+008017FM-12+074599999V0201701N003619999999N9999999N1-00681+99999999999ADDMA1999999093461MD1010001+9999ME1314789OA149900361REMSYN076AAXX  01044 06651 33/// /1707 11068 2//// 39346 48478 50000 333 91107 91205;
0137066510999992011020105004+46950+008017FM-12+074599999V0201601N003119999999N9999999N1-00721+99999999999ADDMA1999999093451MD1710011+9999ME1314769OA149900461REMSYN076AAXX  01054 06651 33/// /1606 11072 2//// 39345 48476 57001 333 91109 91207;
0202066510999992011020106004+46950+008017FM-12+074599999V0201701N004119999999N9999999N1-00761+99999999999ADDAA124000091AL19900091KA1999N-00741MA1999999093451MD1710011+9999ME1314759OA149900461REMSYN088AAXX  01064 06651 33/// /1708 11076 2//// 39345 48475 57001 333 21074 70000 91109 91207;EQDQ01  00002PRCP24
0137066510999992011020107004+46950+008017FM-12+074599999V0201601N001019999999N9999999N1-00761+99999999999ADDMA1999999093511MD1210051+9999ME1314799OA149900511REMSYN076AAXX  01074 06651 33/// /1602 11076 2//// 39351 48479 52005 333 91110 91208;
0137066510999992011020108004+46950+008017FM-12+074599999V0201601N001019999999N9999999N1-00711+99999999999ADDMA1999999093601MD1210151+9999ME1314889OA149900511REMSYN076AAXX  01084 06651 33/// /1602 11071 2//// 39360 48488 52015 333 91110 91208;
0137066510999992011020109004+46950+008017FM-12+074599999V0201801N000519999999N9999999N1-00701+99999999999ADDMA1999999093651MD1110201+9999ME1314939OA149900511REMSYN076AAXX  01094 06651 33/// /1801 11070 2//// 39365 48493 51020 333 91110 91208;
0137066510999992011020110004+46950+008017FM-12+074599999V0200901N001519999999N9999999N1-00651+99999999999ADDMA1999999093721MD1110211+9999ME1315009OA149900311REMSYN076AAXX  01104 06651 33/// /0903 11065 2//// 39372 48500 51021 333 91106 91205;
0137066510999992011020111004+46950+008017FM-12+074599999V0201501N000519999999N9999999N1-00561+99999999999ADDMA1999999093721MD1210121+9999ME1315029OA149900211REMSYN076AAXX  01114 06651 33/// /1501 11056 2//// 39372 48502 52012 333 91104 91203;
0137066510999992011020112004+46950+008017FM-12+074599999V0201701N001019999999N9999999N1-00471+99999999999ADDMA1999999093681MD1010031+9999ME1315029OA149900511REMSYN076AAXX  01124 06651 33/// /1702 11047 2//// 39368 48502 50003 333 91110 91208;
0137066510999992011020113004+46950+008017FM-12+074599999V0201301N001019999999N9999999N1-00351+99999999999ADDMA1999999093631MD1710091+9999ME1315019OA149900211REMSYN076AAXX  01134 06651 33/// /1302 11035 2//// 39363 48501 57009 333 91104 91202;
0137066510999992011020114004+46950+008017FM-12+074599999V0200201N002119999999N9999999N1-00241+99999999999ADDMA1999999093621MD1710101+9999ME1315039OA149900311REMSYN076AAXX  01144 06651 33/// /0204 11024 2//// 39362 48503 57010 333 91106 91204;
0137066510999992011020115004+46950+008017FM-12+074599999V0200101N002619999999N9999999N1-00271+99999999999ADDMA1999999093591MD1710091+9999ME1315009OA149900311REMSYN076AAXX  01154 06651 33/// /0105 11027 2//// 39359 48500 57009 333 91106 91204;
0156066510999992011020116004+46950+008017FM-12+074599999V0200301N003119999999N9999999N1-00401+99999999999ADDMA1999999093631MD1410001+9999ME1315009OA149900571REMSYN076AAXX  01164 06651 33/// /0306 11040 2//// 39363 48500 53000 333 91111 91208;EQDQ01+000032APCTEN
0137066510999992011020117004+46950+008017FM-12+074599999V0200701N000519999999N9999999N1-00461+99999999999ADDMA1999999093691MD1210071+9999ME1315039OA149900571REMSYN076AAXX  01174 06651 33/// /0701 11046 2//// 39369 48503 52007 333 91111 91208;
0156066510999992011020118004+46950+008017FM-12+074599999V0201501N001019999999N9999999N1-00431+99999999999ADDKA1120M-00241MA1999999093761MD1210171+9999ME1315099OA149900571REMSYN082AAXX  01184 06651 33/// /1502 11043 2//// 39376 48509 52017 333 11024 91111 91208;
0137066510999992011020119004+46950+008017FM-12+074599999V0201801N002119999999N9999999N1-00471+99999999999ADDMA1999999093801MD1110171+9999ME1315129OA149900311REMSYN076AAXX  01194 06651 33/// /1804 11047 2//// 39380 48512 51017 333 91106 91203;
0137066510999992011020120004+46950+008017FM-12+074599999V0202101N000519999999N9999999N1-00471+99999999999ADDMA1999999093841MD1210151+9999ME1315159OA149900311REMSYN076AAXX  01204 06651 33/// /2101 11047 2//// 39384 48515 52015 333 91106 91204;
0137066510999992011020121004+46950+008017FM-12+074599999V0201901N002619999999N9999999N1-00511+99999999999ADDMA1999999093871MD1210111+9999ME1315169OA149900571REMSYN076AAXX  01214 06651 33/// /1905 11051 2//// 39387 48516 52011 333 91111 91208;
0137066510999992011020122004+46950+008017FM-12+074599999V0201601N002119999999N9999999N1-00601+99999999999ADDMA1999999093861MD1010061+9999ME1315139OA149900571REMSYN076AAXX  01224 06651 33/// /1604 11060 2//// 39386 48513 50006 333 91111 91208;
0137066510999992011020123004+46950+008017FM-12+074599999V0201901N000519999999N9999999N1-00601+99999999999ADDMA1999999093881MD1210041+9999ME1315149OA149900571REMSYN076AAXX  01234 06651 33/// /1901 11060 2//// 39388 48514 52004 333 91111 91208;
0096066510999992011020200004+46950+008017FM-12+074599999V0201201N001019999999N9999999N1-00611+99999999999ADDMA1999999093931ME1315189REMSYN060AAXX  02004 06651 43/// /1202 11061 2//// 39393 48518 5////;
0096066510999992011020201004+46950+008017FM-12+074599999V0201101N001519999999N9999999N1-00651+99999999999ADDMA1999999093951ME1315199REMSYN060AAXX  02014 06651 43/// /1103 11065 2//// 39395 48519 5////;
0096066510999992011020202004+46950+008017FM-12+074599999V0201401N001019999999N9999999N1-00601+99999999999ADDMA1999999093991ME1315239REMSYN060AAXX  02024 06651 43/// /1402 11060 2//// 39399 48523 5////;
0096066510999992011020203004+46950+008017FM-12+074599999V0202101N001519999999N9999999N1-00621+99999999999ADDMA1999999093991ME1315239REMSYN060AAXX  02034 06651 43/// /2103 11062 2//// 39399 48523 5////;
0096066510999992011020204004+46950+008017FM-12+074599999V0201701N001019999999N9999999N1-00691+99999999999ADDMA1999999093981ME1315209REMSYN060AAXX  02044 06651 43/// /1702 11069 2//// 39398 48520 5////;
0096066510999992011020205004+46950+008017FM-12+074599999V0201701N001519999999N9999999N1-00721+99999999999ADDMA1999999094021ME1315229REMSYN060AAXX  02054 06651 43/// /1703 11072 2//// 39402 48522 5////;
0096066510999992011020206004+46950+008017FM-12+074599999V0201001N001019999999N9999999N1-00731+99999999999ADDMA1999999094051ME1315249REMSYN060AAXX  02064 06651 43/// /1002 11073 2//// 39405 48524 5////;
0096066510999992011020207004+46950+008017FM-12+074599999V0201601N003619999999N9999999N1-00821+99999999999ADDMA1999999094041ME1315219REMSYN060AAXX  02074 06651 43/// /1607 11082 2//// 39404 48521 5////;
0137066510999992011020208004+46950+008017FM-12+074599999V0201801N001019999999N9999999N1-00821+99999999999ADDMA1999999094071MD1210051+9999ME1315239OA149900511REMSYN076AAXX  02084 06651 33/// /1802 11082 2//// 39407 48523 52005 333 91110 91207;
0137066510999992011020209004+46950+008017FM-12+074599999V0201701N001519999999N9999999N1-00731+99999999999ADDMA1999999094111MD1210061+9999ME1315299OA149900511REMSYN076AAXX  02094 06651 33/// /1703 11073 2//// 39411 48529 52006 333 91110 91207;
0137066510999992011020210004+46950+008017FM-12+074599999V0202001N001019999999N9999999N1-00651+99999999999ADDMA1999999094151MD1310111+9999ME1315359OA149900361REMSYN076AAXX  02104 06651 33/// /2002 11065 2//// 39415 48535 53011 333 91107 91204;
0137066510999992011020211004+46950+008017FM-12+074599999V0200701N001019999999N9999999N1-00541+99999999999ADDMA1999999094121MD1010051+9999ME1315369OA149900311REMSYN076AAXX  02114 06651 33/// /0702 11054 2//// 39412 48536 50005 333 91106 91203;
0137066510999992011020212004+46950+008017FM-12+074599999V0201401N001019999999N9999999N1-00431+99999999999ADDMA1999999094071MD1810041+9999ME1315359OA149900511REMSYN076AAXX  02124 06651 33/// /1402 11043 2//// 39407 48535 58004 333 91110 91207;
0137066510999992011020213004+46950+008017FM-12+074599999V0201201N000519999999N9999999N1-00321+99999999999ADDMA1999999094011MD1710141+9999ME1315339OA149900361REMSYN076AAXX  02134 06651 33/// /1201 11032 2//// 39401 48533 57014 333 91107 91203;
0096066510999992011020214004+46950+008017FM-12+074599999V0200401N003619999999N9999999N1-00241+99999999999ADDMA1999999093991ME1315349REMSYN060AAXX  02144 06651 33/// /0407 11024 2//// 39399 48534 5////;
0137066510999992011020215004+46950+008017FM-12+074599999V0203501N001019999999N9999999N1-00341+99999999999ADDMA1999999093981MD1510091+9999ME1315309OA149900621REMSYN076AAXX  02154 06651 33/// /3502 11034 2//// 39398 48530 55009 333 91112 91208;
0156066510999992011020216004+46950+008017FM-12+074599999V0203601N001519999999N9999999N1-00341+99999999999ADDMA1999999094011MD1410001+9999ME1315339OA149900621REMSYN076AAXX  02164 06651 33/// /3603 11034 2//// 39401 48533 52000 333 91112 91208;EQDQ01+000022APCTEN
0137066510999992011020217004+46950+008017FM-12+074599999V0200101N001519999999N9999999N1-00501+99999999999ADDMA1999999094041MD1310051+9999ME1315309OA149900361REMSYN076AAXX  02174 06651 33/// /0103 11050 2//// 39404 48530 53005 333 91107 91204;
0156066510999992011020218004+46950+008017FM-12+074599999V0200301N003119999999N9999999N1-00511+99999999999ADDKA1120M-00231MA1999999094081MD1310101+9999ME1315339OA149900671REMSYN082AAXX  02184 06651 33/// /0306 11051 2//// 39408 48533 53010 333 11023 91113 91209;
0137066510999992011020219004+46950+008017FM-12+074599999V0200501N003119999999N9999999N1-00521+99999999999ADDMA1999999094121MD1110111+9999ME1315369OA149900671REMSYN076AAXX  02194 06651 33/// /0506 11052 2//// 39412 48536 51011 333 91113 91209;
0137066510999992011020220004+46950+008017FM-12+074599999V0201501N001519999999N9999999N1-00531+99999999999ADDMA1999999094121MD1210081+9999ME1315369OA149900511REMSYN076AAXX  02204 06651 33/// /1503 11053 2//// 39412 48536 52008 333 91110 91206;
0137066510999992011020221004+46950+008017FM-12+074599999V0201701N002619999999N9999999N1-00621+99999999999ADDMA1999999094081MD1010001+9999ME1315309OA149900671REMSYN076AAXX  02214 06651 33/// /1705 11062 2//// 39408 48530 50000 333 91113 91209;
0137066510999992011020222004+46950+008017FM-12+074599999V0201801N003119999999N9999999N1-00731+99999999999ADDMA1999999094071MD1610051+9999ME1315269OA149900411REMSYN076AAXX  02224 06651 33/// /1806 11073 2//// 39407 48526 56005 333 91108 91206;
0137066510999992011020223004+46950+008017FM-12+074599999V0201901N002119999999N9999999N1-00851+99999999999ADDMA1999999094061MD1710061+9999ME1315219OA149900411REMSYN076AAXX  02234 06651 33/// /1904 11085 2//// 39406 48521 57006 333 91108 91206;
0137066510999992011020300004+46950+008017FM-12+074599999V0202201N001519999999N9999999N1-00881+99999999999ADDMA1999999094041MD1710041+9999ME1315199OA149900671REMSYN076AAXX  03004 06651 33/// /2203 11088 2//// 39404 48519 57004 333 91113 91209;
0137066510999992011020301004+46950+008017FM-12+074599999V0202401N000519999999N9999999N1-00921+99999999999ADDMA1999999094041MD1710031+9999ME1315189OA149900261REMSYN076AAXX  03014 06651 33/// /2401 11092 2//// 39404 48518 57003 333 91105 91204;
0137066510999992011020302004+46950+008017FM-12+074599999V0202101N002119999999N9999999N1-00891+99999999999ADDMA1999999094041MD1710021+9999ME1315199OA149900261REMSYN076AAXX  03024 06651 33/// /2104 11089 2//// 39404 48519 57002 333 91105 91203;
0137066510999992011020303004+46950+008017FM-12+074599999V0202101N001519999999N9999999N1-00911+99999999999ADDMA1999999094021MD1810021+9999ME1315169OA149900411REMSYN076AAXX  03034 06651 33/// /2103 11091 2//// 39402 48516 58002 333 91108 91206;
0156066510999992011020304004+46950+008017FM-12+074599999V0202001N001019999999N9999999N1-00911+99999999999ADDMA1999999094041MD1410001+9999ME1315189OA149900311REMSYN076AAXX  03044 06651 33/// /2002 11091 2//// 39404 48518 57000 333 91106 91204;EQDQ01+000072APCTEN
0137066510999992011020305004+46950+008017FM-12+074599999V0202001N001519999999N9999999N1-00971+99999999999ADDMA1999999094041MD1510001+9999ME1315169OA149900311REMSYN076AAXX  03054 06651 33/// /2003 11097 2//// 39404 48516 55000 333 91106 91204;
0202066510999992011020306004+46950+008017FM-12+074599999V0202101N002119999999N9999999N1-00871+99999999999ADDAA124000091AL19900091KA1999N-00971MA1999999094041MD1210021+9999ME1315199OA149900511REMSYN088AAXX  03064 06651 33/// /2104 11087 2//// 39404 48519 52002 333 21097 70000 91110 91206;EQDQ01  00002PRCP24
0137066510999992011020307004+46950+008017FM-12+074599999V0201901N000519999999N9999999N1-00821+99999999999ADDMA1999999094071MD1210031+9999ME1315239OA149900311REMSYN076AAXX  03074 06651 33/// /1901 11082 2//// 39407 48523 52003 333 91106 91204;
0137066510999992011020308004+46950+008017FM-12+074599999V0202101N001519999999N9999999N1-00891+99999999999ADDMA1999999094101MD1210061+9999ME1315239OA149900311REMSYN076AAXX  03084 06651 33/// /2103 11089 2//// 39410 48523 52006 333 91106 91204;
0137066510999992011020309004+46950+008017FM-12+074599999V0202201N001019999999N9999999N1-00711+99999999999ADDMA1999999094111MD1210071+9999ME1315309OA149900361REMSYN076AAXX  03094 06651 33/// /2202 11071 2//// 39411 48530 52007 333 91107 91205;
0137066510999992011020310004+46950+008017FM-12+074599999V0201901N001019999999N9999999N1-00361+99999999999ADDMA1999999094151MD1210081+9999ME1315449OA149900361REMSYN076AAXX  03104 06651 33/// /1902 11036 2//// 39415 48544 52008 333 91107 91205;
0137066510999992011020311004+46950+008017FM-12+074599999V0201801N001019999999N9999999N1-00011+99999999999ADDMA1999999094131MD1210031+9999ME1315539OA149900211REMSYN076AAXX  03114 06651 33/// /1802 11001 2//// 39413 48553 52003 333 91104 91203;
0137066510999992011020312004+46950+008017FM-12+074599999V0201301N001019999999N9999999N1+00161+99999999999ADDMA1999999094101MD1810011+9999ME1315559OA149900361REMSYN076AAXX  03124 06651 33/// /1302 10016 2//// 39410 48555 58001 333 91107 91205;
0137066510999992011020313004+46950+008017FM-12+074599999V0200101N001019999999N9999999N1+00111+99999999999ADDMA1999999094111MD1710041+9999ME1315559OA149900511REMSYN076AAXX  03134 06651 33/// /0102 10011 2//// 39411 48555 57004 333 91110 91206;
0137066510999992011020314004+46950+008017FM-12+074599999V0201801N000519999999N9999999N1+00211+99999999999ADDMA1999999094071MD1710061+9999ME1315549OA149900511REMSYN076AAXX  03144 06651 33/// /1801 10021 2//// 39407 48554 57006 333 91110 91206;
0137066510999992011020315004+46950+008017FM-12+074599999V0200201N000519999999N9999999N1+00321+99999999999ADDMA1999999094081MD1710021+9999ME1315599OA149900511REMSYN076AAXX  03154 06651 33/// /0201 10032 2//// 39408 48559 57002 333 91110 91206;
0137066510999992011020316004+46950+008017FM-12+074599999V0200101N002119999999N9999999N1+00131+99999999999ADDMA1999999094131MD1310021+9999ME1315579OA149900261REMSYN076AAXX  03164 06651 33/// /0104 10013 2//// 39413 48557 53002 333 91105 91203;
0137066510999992011020317004+46950+008017FM-12+074599999V0202201N000519999999N9999999N1+00081+99999999999ADDMA1999999094181MD1210111+9999ME1315609OA149900311REMSYN076AAXX  03174 06651 33/// /2201 10008 2//// 39418 48560 52011 333 91106 91204;
0156066510999992011020318004+46950+008017FM-12+074599999V0201801N002119999999N9999999N1+00171+99999999999ADDKA1120M+00321MA1999999094221MD1210141+9999ME1315669OA149900511REMSYN082AAXX  03184 06651 33/// /1804 10017 2//// 39422 48566 52014 333 10032 91110 91206;
0137066510999992011020319004+46950+008017FM-12+074599999V0202001N002119999999N9999999N1+00191+99999999999ADDMA1999999094221MD1210091+9999ME1315669OA149900411REMSYN076AAXX  03194 06651 33/// /2004 10019 2//// 39422 48566 52009 333 91108 91205;
0137066510999992011020320004+46950+008017FM-12+074599999V0202001N002119999999N9999999N1+00211+99999999999ADDMA1999999094241MD1210061+9999ME1315699OA149900411REMSYN076AAXX  03204 06651 33/// /2004 10021 2//// 39424 48569 52006 333 91108 91206;
0137066510999992011020321004+46950+008017FM-12+074599999V0202101N002119999999N9999999N1+00221+99999999999ADDMA1999999094231MD1210011+9999ME1315689OA149900411REMSYN076AAXX  03214 06651 33/// /2104 10022 2//// 39423 48568 52001 333 91108 91206;
0137066510999992011020322004+46950+008017FM-12+074599999V0201901N002619999999N9999999N1+00181+99999999999ADDMA1999999094171MD1810051+9999ME1315629OA149900361REMSYN076AAXX  03224 06651 33/// /1905 10018 2//// 39417 48562 58005 333 91107 91205;
0137066510999992011020323004+46950+008017FM-12+074599999V0202801N001519999999N9999999N1+00131+99999999999ADDMA1999999094201MD1710041+9999ME1315639OA149900411REMSYN076AAXX  03234 06651 33/// /2803 10013 2//// 39420 48563 57004 333 91108 91206;
0137066510999992011020400004+46950+008017FM-12+074599999V0201701N001519999999N9999999N1+00061+99999999999ADDMA1999999094221MD1510011+9999ME1315629OA149900511REMSYN076AAXX  04004 06651 33/// /1703 10006 2//// 39422 48562 55001 333 91110 91206;
0137066510999992011020401004+46950+008017FM-12+074599999V0202101N002119999999N9999999N1+00161+99999999999ADDMA1999999094211MD1210041+9999ME1315659OA149900361REMSYN076AAXX  04014 06651 33/// /2104 10016 2//// 39421 48565 52004 333 91107 91204;
0137066510999992011020402004+46950+008017FM-12+074599999V0201901N001519999999N9999999N1+00201+99999999999ADDMA1999999094181MD1710021+9999ME1315639OA149900361REMSYN076AAXX  04024 06651 33/// /1903 10020 2//// 39418 48563 57002 333 91107 91205;
0137066510999992011020403004+46950+008017FM-12+074599999V0202101N001519999999N9999999N1+00001+99999999999ADDMA1999999094201MD1710021+9999ME1315599OA149900411REMSYN076AAXX  04034 06651 33/// /2103 10000 2//// 39420 48559 57002 333 91108 91206;
0137066510999992011020404004+46950+008017FM-12+074599999V0202301N002119999999N9999999N1-00041+99999999999ADDMA1999999094151MD1710061+9999ME1315539OA149900261REMSYN076AAXX  04044 06651 33/// /2304 11004 2//// 39415 48553 57006 333 91105 91204;
0137066510999992011020405004+46950+008017FM-12+074599999V0202001N001519999999N9999999N1-00091+99999999999ADDMA1999999094241MD1310061+9999ME1315599OA149900311REMSYN076AAXX  04054 06651 33/// /2003 11009 2//// 39424 48559 53006 333 91106 91204;
0202066510999992011020406004+46950+008017FM-12+074599999V0202201N002619999999N9999999N1+00111+99999999999ADDAA124000091AL19900091KA1999N-00101MA1999999094251MD1210051+9999ME1315669OA149900571REMSYN088AAXX  04064 06651 33/// /2205 10011 2//// 39425 48566 52005 333 21010 70000 91111 91207;EQDQ01  00002PRCP24
0137066510999992011020407004+46950+008017FM-12+074599999V0202101N003119999999N9999999N1+00121+99999999999ADDMA1999999094291MD1210141+9999ME1315709OA149900571REMSYN076AAXX  04074 06651 33/// /2106 10012 2//// 39429 48570 52014 333 91111 91207;
0137066510999992011020408004+46950+008017FM-12+074599999V0202101N002619999999N9999999N1+00161+99999999999ADDMA1999999094351MD1210111+9999ME1315769OA149900511REMSYN076AAXX  04084 06651 33/// /2105 10016 2//// 39435 48576 52011 333 91110 91206;
0137066510999992011020409004+46950+008017FM-12+074599999V0202001N003619999999N9999999N1+00251+99999999999ADDMA1999999094381MD1210131+9999ME1315829OA149900571REMSYN076AAXX  04094 06651 33/// /2007 10025 2//// 39438 48582 52013 333 91111 91207;
0137066510999992011020410004+46950+008017FM-12+074599999V0202101N004119999999N9999999N1+00621+99999999999ADDMA1999999094421MD1210131+9999ME1315979OA149900571REMSYN076AAXX  04104 06651 33/// /2108 10062 2//// 39442 48597 52013 333 91111 91208;
0137066510999992011020411004+46950+008017FM-12+074599999V0202101N004119999999N9999999N1+00691+99999999999ADDMA1999999094371MD1010021+9999ME1315959OA149900881REMSYN076AAXX  04114 06651 33/// /2108 10069 2//// 39437 48595 50002 333 91117 91210;
0137066510999992011020412004+46950+008017FM-12+074599999V0202101N004119999999N9999999N1+00721+99999999999ADDMA1999999094341MD1810041+9999ME1315939OA149900881REMSYN076AAXX  04124 06651 33/// /2108 10072 2//// 39434 48593 58004 333 91117 91210;
0137066510999992011020413004+46950+008017FM-12+074599999V0202301N004119999999N9999999N1+00771+99999999999ADDMA1999999094291MD1710131+9999ME1315909OA149900821REMSYN076AAXX  04134 06651 33/// /2308 10077 2//// 39429 48590 57013 333 91116 91209;
0137066510999992011020414004+46950+008017FM-12+074599999V0202401N004619999999N9999999N1+00781+99999999999ADDMA1999999094231MD1710141+9999ME1315869OA149900771REMSYN076AAXX  04144 06651 33/// /2409 10078 2//// 39423 48586 57014 333 91115 91210;
0137066510999992011020415004+46950+008017FM-12+074599999V0202201N002619999999N9999999N1+00731+99999999999ADDMA1999999094231MD1710111+9999ME1315849OA149900881REMSYN076AAXX  04154 06651 33/// /2205 10073 2//// 39423 48584 57011 333 91117 91210;
0137066510999992011020416004+46950+008017FM-12+074599999V0202201N003119999999N9999999N1+00591+99999999999ADDMA1999999094301MD1310011+9999ME1315869OA149900771REMSYN076AAXX  04164 06651 33/// /2206 10059 2//// 39430 48586 53001 333 91115 91210;
0137066510999992011020417004+46950+008017FM-12+074599999V0202101N004619999999N9999999N1+00571+99999999999ADDMA1999999094371MD1210141+9999ME1315919OA149900771REMSYN076AAXX  04174 06651 33/// /2109 10057 2//// 39437 48591 52014 333 91115 91208;
0156066510999992011020418004+46950+008017FM-12+074599999V0202301N004119999999N9999999N1+00471+99999999999ADDKA1120M+00791MA1999999094391MD1210161+9999ME1315909OA149900881REMSYN082AAXX  04184 06651 33/// /2308 10047 2//// 39439 48590 52016 333 10079 91117 91210;
0137066510999992011020419004+46950+008017FM-12+074599999V0202301N003619999999N9999999N1+00351+99999999999ADDMA1999999094401MD1210101+9999ME1315879OA149900881REMSYN076AAXX  04194 06651 33/// /2307 10035 2//// 39440 48587 52010 333 91117 91210;
0137066510999992011020420004+46950+008017FM-12+074599999V0202101N003119999999N9999999N1+00261+99999999999ADDMA1999999094361MD1810011+9999ME1315809OA149900621REMSYN076AAXX  04204 06651 33/// /2106 10026 2//// 39436 48580 58001 333 91112 91208;
0137066510999992011020421004+46950+008017FM-12+074599999V0201901N003619999999N9999999N1+00221+99999999999ADDMA1999999094361MD1710031+9999ME1315799OA149900881REMSYN076AAXX  04214 06651 33/// /1907 10022 2//// 39436 48579 57003 333 91117 91210;
0137066510999992011020422004+46950+008017FM-12+074599999V0201901N004119999999N9999999N1+00161+99999999999ADDMA1999999094351MD1710051+9999ME1315769OA149900671REMSYN076AAXX  04224 06651 33/// /1908 10016 2//// 39435 48576 57005 333 91113 91209;
0137066510999992011020423004+46950+008017FM-12+074599999V0201901N003619999999N9999999N1+00161+99999999999ADDMA1999999094371MD1510011+9999ME1315789OA149900771REMSYN076AAXX  04234 06651 33/// /1907 10016 2//// 39437 48578 55001 333 91115 91211;
0137066510999992011020500004+46950+008017FM-12+074599999V0201901N005719999999N9999999N1+00191+99999999999ADDMA1999999094431MD1210071+9999ME1315849OA149900881REMSYN076AAXX  05004 06651 33/// /1911 10019 2//// 39443 48584 52007 333 91117 91211;
0137066510999992011020501004+46950+008017FM-12+074599999V0202001N005119999999N9999999N1+00191+99999999999ADDMA1999999094451MD1010101+9999ME1315869OA149900881REMSYN076AAXX  05014 06651 33/// /2010 10019 2//// 39445 48586 50010 333 91117 91211;
0137066510999992011020502004+46950+008017FM-12+074599999V0201901N005119999999N9999999N1+00221+99999999999ADDMA1999999094431MD1010061+9999ME1315859OA149900821REMSYN076AAXX  05024 06651 33/// /1910 10022 2//// 39443 48585 50006 333 91116 91211;
0137066510999992011020503004+46950+008017FM-12+074599999V0201901N004619999999N9999999N1+00171+99999999999ADDMA1999999094391MD1810041+9999ME1315809OA149900881REMSYN076AAXX  05034 06651 33/// /1909 10017 2//// 39439 48580 58004 333 91117 91211;
0137066510999992011020504004+46950+008017FM-12+074599999V0201901N003619999999N9999999N1+00151+99999999999ADDMA1999999094361MD1710091+9999ME1315779OA149900821REMSYN076AAXX  05044 06651 33/// /1907 10015 2//// 39436 48577 57009 333 91116 91210;
0137066510999992011020505004+46950+008017FM-12+074599999V0201901N004619999999N9999999N1+00111+99999999999ADDMA1999999094341MD1710091+9999ME1315749OA149900821REMSYN076AAXX  05054 06651 33/// /1909 10011 2//// 39434 48574 57009 333 91116 91210;
0218066510999992011020506004+46950+008017FM-12+074599999V0201901N002119999999N9999999N1+00001+99999999999ADDAA124000091AL19900091KA1999N+99999MA1999999094401MD1310011+9999ME1315769OA149900881REMSYN088AAXX  05064 06651 33/// /1904 10000 2//// 39440 48576 53001 333 20006 70000 91117 91211;EQDQ01  00002PRCP24Q02 +00062ATMN  
0137066510999992011020507004+46950+008017FM-12+074599999V0201801N004119999999N9999999N1+00031+99999999999ADDMA1999999094481MD1210121+9999ME1315839OA149900671REMSYN076AAXX  05074 06651 33/// /1808 10003 2//// 39448 48583 52012 333 91113 91210;
0137066510999992011020508004+46950+008017FM-12+074599999V0201901N004119999999N9999999N1+00071+99999999999ADDMA1999999094501MD1210161+9999ME1315869OA149900671REMSYN076AAXX  05084 06651 33/// /1908 10007 2//// 39450 48586 52016 333 91113 91209;
0137066510999992011020509004+46950+008017FM-12+074599999V0202001N002619999999N9999999N1+00121+99999999999ADDMA1999999094501MD1210101+9999ME1315889OA149900821REMSYN076AAXX  05094 06651 33/// /2005 10012 2//// 39450 48588 52010 333 91116 91210;
0137066510999992011020510004+46950+008017FM-12+074599999V0201901N002619999999N9999999N1+00481+99999999999ADDMA1999999094481MD1010001+9999ME1315979OA149900721REMSYN076AAXX  05104 06651 33/// /1905 10048 2//// 39448 48597 50000 333 91114 91210;
0137066510999992011020511004+46950+008017FM-12+074599999V0201901N002619999999N9999999N1+00681+99999999999ADDMA1999999094411MD1710091+9999ME1315989OA149900721REMSYN076AAXX  05114 06651 33/// /1905 10068 2//// 39441 48598 57009 333 91114 91210;
0137066510999992011020512004+46950+008017FM-12+074599999V0201701N001519999999N9999999N1+00811+99999999999ADDMA1999999094341MD1710161+9999ME1315969OA149900821REMSYN076AAXX  05124 06651 33/// /1703 10081 2//// 39434 48596 57016 333 91116 91211;
0137066510999992011020513004+46950+008017FM-12+074599999V0201901N001519999999N9999999N1+00901+99999999999ADDMA1999999094261MD1810221+9999ME1315929OA149900571REMSYN076AAXX  05134 06651 33/// /1903 10090 2//// 39426 48592 58022 333 91111 91207;
0137066510999992011020514004+46950+008017FM-12+074599999V0201901N002619999999N9999999N1+00951+99999999999ADDMA1999999094251MD1610161+9999ME1315939OA149900361REMSYN076AAXX  05144 06651 33/// /1905 10095 2//// 39425 48593 56016 333 91107 91204;
0137066510999992011020515004+46950+008017FM-12+074599999V0201901N003119999999N9999999N1+00921+99999999999ADDMA1999999094261MD1510081+9999ME1315939OA149900721REMSYN076AAXX  05154 06651 33/// /1906 10092 2//// 39426 48593 55008 333 91114 91210;
0137066510999992011020516004+46950+008017FM-12+074599999V0201901N003619999999N9999999N1+00621+99999999999ADDMA1999999094271MD1310011+9999ME1315849OA149900511REMSYN076AAXX  05164 06651 33/// /1907 10062 2//// 39427 48584 53001 333 91110 91207;
0137066510999992011020517004+46950+008017FM-12+074599999V0201901N004119999999N9999999N1+00611+99999999999ADDMA1999999094321MD1210071+9999ME1315889OA149900571REMSYN076AAXX  05174 06651 33/// /1908 10061 2//// 39432 48588 52007 333 91111 91207;
0156066510999992011020518004+46950+008017FM-12+074599999V0202001N003619999999N9999999N1+00491+99999999999ADDKA1120M+00991MA1999999094331MD1210071+9999ME1315859OA149900721REMSYN082AAXX  05184 06651 33/// /2007 10049 2//// 39433 48585 52007 333 10099 91114 91210;
0137066510999992011020519004+46950+008017FM-12+074599999V0202501N000519999999N9999999N1+00291+99999999999ADDMA1999999094361MD1110091+9999ME1315819OA149900721REMSYN076AAXX  05194 06651 33/// /2501 10029 2//// 39436 48581 51009 333 91114 91209;
0137066510999992011020520004+46950+008017FM-12+074599999V0202101N001519999999N9999999N1+00111+99999999999ADDMA1999999094381MD1210061+9999ME1315779OA149900721REMSYN076AAXX  05204 06651 33/// /2103 10011 2//// 39438 48577 52006 333 91114 91208;
0137066510999992011020521004+46950+008017FM-12+074599999V0202001N002619999999N9999999N1+00081+99999999999ADDMA1999999094401MD1119999+9999ME1315789OA149900721REMSYN076AAXX  05214 06651 33/// /2005 10008 2//// 39440 48578 51/// 333 91114 91209;
0137066510999992011020522004+46950+008017FM-12+074599999V0202201N001019999999N9999999N1+00171+99999999999ADDMA1999999094381MD1010021+9999ME1315799OA149900511REMSYN076AAXX  05224 06651 33/// /2202 10017 2//// 39438 48579 50002 333 91110 91206;
0137066510999992011020523004+46950+008017FM-12+074599999V0202101N002119999999N9999999N1+00041+99999999999ADDMA1999999094391MD1510011+9999ME1315769OA149900511REMSYN076AAXX  05234 06651 33/// /2104 10004 2//// 39439 48576 55001 333 91110 91206;
0137066510999992011020600004+46950+008017FM-12+074599999V0202001N002119999999N9999999N1+00091+99999999999ADDMA1999999094391MD1010011+9999ME1315789OA149900721REMSYN076AAXX  06004 06651 33/// /2004 10009 2//// 39439 48578 50001 333 91114 91209;
0137066510999992011020601004+46950+008017FM-12+074599999V0202201N002119999999N9999999N1+00051+99999999999ADDMA1999999094401MD1210021+9999ME1315779OA149900311REMSYN076AAXX  06014 06651 33/// /2204 10005 2//// 39440 48577 52002 333 91106 91204;
0137066510999992011020602004+46950+008017FM-12+074599999V0202201N002119999999N9999999N1-00031+99999999999ADDMA1999999094391MD1010001+9999ME1315749OA149900411REMSYN076AAXX  06024 06651 33/// /2204 11003 2//// 39439 48574 50000 333 91108 91205;
0137066510999992011020603004+46950+008017FM-12+074599999V0202101N003619999999N9999999N1+00191+99999999999ADDMA1999999094361MD1810031+9999ME1315789OA149900571REMSYN076AAXX  06034 06651 33/// /2107 10019 2//// 39436 48578 58003 333 91111 91206;
0137066510999992011020604004+46950+008017FM-12+074599999V0202101N003619999999N9999999N1+00251+99999999999ADDMA1999999094361MD1710041+9999ME1315809OA149900721REMSYN076AAXX  06044 06651 33/// /2107 10025 2//// 39436 48580 57004 333 91114 91209;
0137066510999992011020605004+46950+008017FM-12+074599999V0202001N002619999999N9999999N1+00111+99999999999ADDMA1999999094341MD1710051+9999ME1315749OA149900721REMSYN076AAXX  06054 06651 33/// /2005 10011 2//// 39434 48574 57005 333 91114 91209;
0202066510999992011020606004+46950+008017FM-12+074599999V0201901N002619999999N9999999N1+00051+99999999999ADDAA124000091AL19900091KA1999N-00071MA1999999094331MD1710031+9999ME1315719OA149900721REMSYN088AAXX  06064 06651 33/// /1905 10005 2//// 39433 48571 57003 333 21007 70000 91114 91209;EQDQ01  00002PRCP24
0137066510999992011020607004+46950+008017FM-12+074599999V0202201N002119999999N9999999N1-00091+99999999999ADDMA1999999094341MD1510021+9999ME1315689OA149900411REMSYN076AAXX  06074 06651 33/// /2204 11009 2//// 39434 48568 55002 333 91108 91206;
0137066510999992011020608004+46950+008017FM-12+074599999V0202101N001519999999N9999999N1-00051+99999999999ADDMA1999999094371MD1210031+9999ME1315719OA149900411REMSYN076AAXX  06084 06651 33/// /2103 11005 2//// 39437 48571 52003 333 91108 91206;
0137066510999992011020609004+46950+008017FM-12+074599999V0202201N002119999999N9999999N1+00051+99999999999ADDMA1999999094351MD1010021+9999ME1315739OA149900721REMSYN076AAXX  06094 06651 33/// /2204 10005 2//// 39435 48573 50002 333 91114 91209;
0137066510999992011020610004+46950+008017FM-12+074599999V0202201N001519999999N9999999N1+00521+99999999999ADDMA1999999094321MD1810021+9999ME1315859OA149900361REMSYN076AAXX  06104 06651 33/// /2203 10052 2//// 39432 48585 58002 333 91107 91205;
0137066510999992011020611004+46950+008017FM-12+074599999V0202101N001019999999N9999999N1+00951+99999999999ADDMA1999999094261MD1810111+9999ME1315949OA149900361REMSYN076AAXX  06114 06651 33/// /2102 10095 2//// 39426 48594 58011 333 91107 91204;
0137066510999992011020612004+46950+008017FM-12+074599999V0200301N001019999999N9999999N1+01191+99999999999ADDMA1999999094171MD1810181+9999ME1315939OA149900721REMSYN076AAXX  06124 06651 33/// /0302 10119 2//// 39417 48593 58018 333 91114 91209;
0137066510999992011020613004+46950+008017FM-12+074599999V0200101N001519999999N9999999N1+01171+99999999999ADDMA1999999094121MD1610201+9999ME1315889OA149900311REMSYN076AAXX  06134 06651 33/// /0103 10117 2//// 39412 48588 56020 333 91106 91204;
0137066510999992011020614004+46950+008017FM-12+074599999V0209999C001019999999N9999999N1+01241+99999999999ADDMA1999999094081MD1610181+9999ME1315879OA149900311REMSYN076AAXX  06144 06651 33/// /0002 10124 2//// 39408 48587 56018 333 91106 91204;
0137066510999992011020615004+46950+008017FM-12+074599999V0201801N001519999999N9999999N1+00951+99999999999ADDMA1999999094061MD1610111+9999ME1315769OA149900361REMSYN076AAXX  06154 06651 33/// /1803 10095 2//// 39406 48576 56011 333 91107 91204;
0137066510999992011020616004+46950+008017FM-12+074599999V0201901N003119999999N9999999N1+00721+99999999999ADDMA1999999094061MD1710061+9999ME1315699OA149900361REMSYN076AAXX  06164 06651 33/// /1906 10072 2//// 39406 48569 57006 333 91107 91205;
0137066510999992011020617004+46950+008017FM-12+074599999V0202101N002119999999N9999999N1+00401+99999999999ADDMA1999999094081MD1510001+9999ME1315619OA149900411REMSYN076AAXX  06174 06651 33/// /2104 10040 2//// 39408 48561 55000 333 91108 91206;
0156066510999992011020618004+46950+008017FM-12+074599999V0202201N001519999999N9999999N1+00191+99999999999ADDKA1120M+01251MA1999999094101MD1210041+9999ME1315569OA149900411REMSYN082AAXX  06184 06651 33/// /2203 10019 2//// 39410 48556 52004 333 10125 91108 91206;
0137066510999992011020619004+46950+008017FM-12+074599999V0202101N002119999999N9999999N1+00091+99999999999ADDMA1999999094111MD1110051+9999ME1315549OA149900361REMSYN076AAXX  06194 06651 33/// /2104 10009 2//// 39411 48554 51005 333 91107 91205;
0137066510999992011020620004+46950+008017FM-12+074599999V0202301N001519999999N9999999N1+00051+99999999999ADDMA1999999094091MD1010011+9999ME1315519OA149900411REMSYN076AAXX  06204 06651 33/// /2303 10005 2//// 39409 48551 50001 333 91108 91205;
0137066510999992011020621004+46950+008017FM-12+074599999V0202101N001519999999N9999999N1-00031+99999999999ADDMA1999999094081MD1710021+9999ME1315489OA149900411REMSYN076AAXX  06214 06651 33/// /2103 11003 2//// 39408 48548 57002 333 91108 91206;
0137066510999992011020622004+46950+008017FM-12+074599999V0202101N002119999999N9999999N1-00011+99999999999ADDMA1999999094071MD1710041+9999ME1315489OA149900361REMSYN076AAXX  06224 06651 33/// /2104 11001 2//// 39407 48548 57004 333 91107 91204;
0137066510999992011020623004+46950+008017FM-12+074599999V0202101N002119999999N9999999N1-00071+99999999999ADDMA1999999094041MD1710051+9999ME1315439OA149900361REMSYN076AAXX  06234 06651 33/// /2104 11007 2//// 39404 48543 57005 333 91107 91205;
0137066510999992011020700004+46950+008017FM-12+074599999V0202101N002119999999N9999999N1-00151+99999999999ADDMA1999999094061MD1710021+9999ME1315439OA149900411REMSYN076AAXX  07004 06651 33/// /2104 11015 2//// 39406 48543 57002 333 91108 91206;
0137066510999992011020701004+46950+008017FM-12+074599999V0202101N001519999999N9999999N1-00141+99999999999ADDMA1999999094041MD1710031+9999ME1315419OA149900361REMSYN076AAXX  07014 06651 33/// /2103 11014 2//// 39404 48541 57003 333 91107 91205;
0137066510999992011020702004+46950+008017FM-12+074599999V0202101N001519999999N9999999N1-00111+99999999999ADDMA1999999094031MD1710011+9999ME1315419OA149900361REMSYN076AAXX  07024 06651 33/// /2103 11011 2//// 39403 48541 57001 333 91107 91205;
0137066510999992011020703004+46950+008017FM-12+074599999V0202101N001519999999N9999999N1-00181+99999999999ADDMA1999999094021MD1810041+9999ME1315389OA149900361REMSYN076AAXX  07034 06651 33/// /2103 11018 2//// 39402 48538 58004 333 91107 91205;
0137066510999992011020704004+46950+008017FM-12+074599999V0202201N002119999999N9999999N1-00141+99999999999ADDMA1999999094001MD1810041+9999ME1315389OA149900361REMSYN076AAXX  07044 06651 33/// /2204 11014 2//// 39400 48538 58004 333 91107 91206;
0137066510999992011020705004+46950+008017FM-12+074599999V0202101N001519999999N9999999N1-00151+99999999999ADDMA1999999093961MD1810071+9999ME1315349OA149900361REMSYN076AAXX  07054 06651 33/// /2103 11015 2//// 39396 48534 58007 333 91107 91206;
0202066510999992011020706004+46950+008017FM-12+074599999V0202101N001519999999N9999999N1-00191+99999999999ADDAA124000091AL19900091KA1999N-00291MA1999999093911MD1810111+9999ME1315299OA149900411REMSYN088AAXX  07064 06651 33/// /2103 11019 2//// 39391 48529 58011 333 21029 70000 91108 91206;EQDQ01  00002PRCP24
0137066510999992011020707004+46950+008017FM-12+074599999V0202101N002619999999N9999999N1-00111+99999999999ADDMA1999999093871MD1710131+9999ME1315289OA149900361REMSYN076AAXX  07074 06651 33/// /2105 11011 2//// 39387 48528 57013 333 91107 91205;
0137066510999992011020708004+46950+008017FM-12+074599999V0202001N002119999999N9999999N1-00141+99999999999ADDMA1999999093881MD1710081+9999ME1315289OA149900461REMSYN076AAXX  07084 06651 33/// /2004 11014 2//// 39388 48528 57008 333 91109 91205;
0137066510999992011020709004+46950+008017FM-12+074599999V0202101N001519999999N9999999N1+00101+99999999999ADDMA1999999093811MD1710101+9999ME1315299OA149900461REMSYN076AAXX  07094 06651 33/// /2103 10010 2//// 39381 48529 57010 333 91109 91206;
0137066510999992011020710004+46950+008017FM-12+074599999V0201901N001019999999N9999999N1+00631+99999999999ADDMA1999999093801MD1710071+9999ME1315449OA149900411REMSYN076AAXX  07104 06651 33/// /1902 10063 2//// 39380 48544 57007 333 91108 91205;
0137066510999992011020711004+46950+008017FM-12+074599999V0201901N001519999999N9999999N1+01011+99999999999ADDMA1999999093751MD1710131+9999ME1315519OA149900261REMSYN076AAXX  07114 06651 33/// /1903 10101 2//// 39375 48551 57013 333 91105 91203;
0137066510999992011020712004+46950+008017FM-12+074599999V0201901N001519999999N9999999N1+01361+99999999999ADDMA1999999093671MD1710141+9999ME1315559OA149900461REMSYN076AAXX  07124 06651 33/// /1903 10136 2//// 39367 48555 57014 333 91109 91206;
0137066510999992011020713004+46950+008017FM-12+074599999V0200201N002619999999N9999999N1+01221+99999999999ADDMA1999999093631MD1610171+9999ME1315479OA149900311REMSYN076AAXX  07134 06651 33/// /0205 10122 2//// 39363 48547 56017 333 91106 91205;
0137066510999992011020714004+46950+008017FM-12+074599999V0200101N001519999999N9999999N1+01261+99999999999ADDMA1999999093591MD1610161+9999ME1315459OA149900411REMSYN076AAXX  07144 06651 33/// /0103 10126 2//// 39359 48545 56016 333 91108 91205;
0137066510999992011020715004+46950+008017FM-12+074599999V0209999C001519999999N9999999N1+01211+99999999999ADDMA1999999093561MD1610111+9999ME1315409OA149900411REMSYN076AAXX  07154 06651 33/// /0003 10121 2//// 39356 48540 56011 333 91108 91205;
0137066510999992011020716004+46950+008017FM-12+074599999V0201901N001519999999N9999999N1+00731+99999999999ADDMA1999999093581MD1510051+9999ME1315289OA149900311REMSYN076AAXX  07164 06651 33/// /1903 10073 2//// 39358 48528 55005 333 91106 91204;
0137066510999992011020717004+46950+008017FM-12+074599999V0202101N002119999999N9999999N1+00421+99999999999ADDMA1999999093601MD1210011+9999ME1315219OA149900311REMSYN076AAXX  07174 06651 33/// /2104 10042 2//// 39360 48521 52001 333 91106 91204;
0156066510999992011020718004+46950+008017FM-12+074599999V0202201N001019999999N9999999N1+00301+99999999999ADDKA1120M+01431MA1999999093591MD1210031+9999ME1315179OA149900461REMSYN082AAXX  07184 06651 33/// /2202 10030 2//// 39359 48517 52003 333 10143 91109 91205;
0156066510999992011020719004+46950+008017FM-12+074599999V0202101N001519999999N9999999N1+00101+99999999999ADDMA1999999093581MD1410001+9999ME1315109OA149900361REMSYN076AAXX  07194 06651 33/// /2103 10010 2//// 39358 48510 58000 333 91107 91205;EQDQ01+000082APCTEN
0096066510999992011020720004+46950+008017FM-12+074599999V0202001N001519999999N9999999N1+00031+99999999999ADDMA1999999093561ME1315069REMSYN060AAXX  07204 06651 43/// /2003 10003 2//// 39356 48506 5////;
0137066510999992011020721004+46950+008017FM-12+074599999V0202101N001519999999N9999999N1+00061+99999999999ADDMA1999999093591MD1510001+9999ME1315109OA149900361REMSYN076AAXX  07214 06651 33/// /2103 10006 2//// 39359 48510 55000 333 91107 91205;
0137066510999992011020722004+46950+008017FM-12+074599999V0202101N001519999999N9999999N1+00051+99999999999ADDMA1999999093621MD1210041+9999ME1315129OA149900311REMSYN076AAXX  07224 06651 33/// /2103 10005 2//// 39362 48512 52004 333 91106 91205;
0137066510999992011020723004+46950+008017FM-12+074599999V0202001N003619999999N9999999N1+00271+99999999999ADDMA1999999093611MD1219999+9999ME1315179OA149900511REMSYN076AAXX  07234 06651 33/// /2007 10027 2//// 39361 48517 52/// 333 91110 91206;
0137066510999992011020800004+46950+008017FM-12+074599999V0202201N003119999999N9999999N1+00221+99999999999ADDMA1999999093611MD1010021+9999ME1315169OA149900571REMSYN076AAXX  08004 06651 33/// /2206 10022 2//// 39361 48516 50002 333 91111 91207;
0137066510999992011020801004+46950+008017FM-12+074599999V0202001N002619999999N9999999N1+00221+99999999999ADDMA1999999093571MD1710051+9999ME1315139OA149900571REMSYN076AAXX  08014 06651 33/// /2005 10022 2//// 39357 48513 57005 333 91111 91207;
0137066510999992011020802004+46950+008017FM-12+074599999V0202201N001519999999N9999999N1-00021+99999999999ADDMA1999999093561MD1710051+9999ME1315059OA149900461REMSYN076AAXX  08024 06651 33/// /2203 11002 2//// 39356 48505 57005 333 91109 91206;
0137066510999992011020803004+46950+008017FM-12+074599999V0202101N001519999999N9999999N1-00071+99999999999ADDMA1999999093551MD1710061+9999ME1315029OA149900571REMSYN076AAXX  08034 06651 33/// /2103 11007 2//// 39355 48502 57006 333 91111 91207;
0137066510999992011020804004+46950+008017FM-12+074599999V0202001N002619999999N9999999N1+00151+99999999999ADDMA1999999093551MD1710021+9999ME1315099OA149900461REMSYN076AAXX  08044 06651 33/// /2005 10015 2//// 39355 48509 57002 333 91109 91206;
0137066510999992011020805004+46950+008017FM-12+074599999V0202001N002119999999N9999999N1+00081+99999999999ADDMA1999999093571MD1310011+9999ME1315089OA149900461REMSYN076AAXX  08054 06651 33/// /2004 10008 2//// 39357 48508 53001 333 91109 91206;
0202066510999992011020806004+46950+008017FM-12+074599999V0202201N002619999999N9999999N1+00051+99999999999ADDAA124000091AL19900091KA1999N-00111MA1999999093601MD1210051+9999ME1315109OA149900571REMSYN088AAXX  08064 06651 33/// /2205 10005 2//// 39360 48510 52005 333 21011 70000 91111 91207;EQDQ01  00002PRCP24
0137066510999992011020807004+46950+008017FM-12+074599999V0202101N002119999999N9999999N1-00191+99999999999ADDMA1999999093611MD1210061+9999ME1315049OA149900361REMSYN076AAXX  08074 06651 33/// /2104 11019 2//// 39361 48504 52006 333 91107 91205;
0096066510999992011020808004+46950+008017FM-12+074599999V0202101N002619999999N9999999N1+00171+99999999999ADDMA1999999093581ME1315129REMSYN060AAXX  08084 06651 43/// /2105 10017 2//// 39358 48512 5////;
0096066510999992011020809004+46950+008017FM-12+074599999V0202001N001019999999N9999999N1+00051+99999999999ADDMA1999999093621ME1315129REMSYN060AAXX  08094 06651 43/// /2002 10005 2//// 39362 48512 5////;
0137066510999992011020810004+46950+008017FM-12+074599999V0201801N001019999999N9999999N1+00601+99999999999ADDMA1999999093661MD1210051+9999ME1315319OA149900461REMSYN076AAXX  08104 06651 33/// /1802 10060 2//// 39366 48531 52005 333 91109 91206;
0137066510999992011020811004+46950+008017FM-12+074599999V0201901N001019999999N9999999N1+00921+99999999999ADDMA1999999093621MD1010041+9999ME1315379OA149900211REMSYN076AAXX  08114 06651 33/// /1902 10092 2//// 39362 48537 50004 333 91104 91203;
0137066510999992011020812004+46950+008017FM-12+074599999V0200201N003619999999N9999999N1+00991+99999999999ADDMA1999999093571MD1710051+9999ME1315359OA149900461REMSYN076AAXX  08124 06651 33/// /0207 10099 2//// 39357 48535 57005 333 91109 91206;
0137066510999992011020813004+46950+008017FM-12+074599999V0200401N006219999999N9999999N1+00921+99999999999ADDMA1999999093551MD1710111+9999ME1315319OA149900821REMSYN076AAXX  08134 06651 33/// /0412 10092 2//// 39355 48531 57011 333 91116 91211;
0137066510999992011020814004+46950+008017FM-12+074599999V0200401N004619999999N9999999N1+00901+99999999999ADDMA1999999093531MD1710091+9999ME1315299OA149900881REMSYN076AAXX  08144 06651 33/// /0409 10090 2//// 39353 48529 57009 333 91117 91212;
0137066510999992011020815004+46950+008017FM-12+074599999V0200301N003119999999N9999999N1+00891+99999999999ADDMA1999999093531MD1710041+9999ME1315289OA149900881REMSYN076AAXX  08154 06651 33/// /0306 10089 2//// 39353 48528 57004 333 91117 91212;
0137066510999992011020816004+46950+008017FM-12+074599999V0200401N002119999999N9999999N1+00841+99999999999ADDMA1999999093511MD1710041+9999ME1315259OA149900621REMSYN076AAXX  08164 06651 33/// /0404 10084 2//// 39351 48525 57004 333 91112 91209;
0156066510999992011020817004+46950+008017FM-12+074599999V0202101N001019999999N9999999N1+00331+99999999999ADDMA1999999093531MD1410001+9999ME1315129OA149900511REMSYN076AAXX  08174 06651 33/// /2102 10033 2//// 39353 48512 57000 333 91110 91208;EQDQ01+000072APCTEN
0156066510999992011020818004+46950+008017FM-12+074599999V0202101N001519999999N9999999N1+00171+99999999999ADDKA1120M+00991MA1999999093571MD1310041+9999ME1315119OA149900881REMSYN082AAXX  08184 06651 33/// /2103 10017 2//// 39357 48511 53004 333 10099 91117 91212;
0137066510999992011020819004+46950+008017FM-12+074599999V0202101N001519999999N9999999N1+00021+99999999999ADDMA1999999093581MD1210071+9999ME1315089OA149900361REMSYN076AAXX  08194 06651 33/// /2103 10002 2//// 39358 48508 52007 333 91107 91205;
0096066510999992011020820004+46950+008017FM-12+074599999V0202201N001519999999N9999999N1-00081+99999999999ADDMA1999999093561ME1315039REMSYN060AAXX  08204 06651 43/// /2203 11008 2//// 39356 48503 5////;
0137066510999992011020821004+46950+008017FM-12+074599999V0202201N001019999999N9999999N1-00161+99999999999ADDMA1999999093541MD1710031+9999ME1314999OA149900511REMSYN076AAXX  08214 06651 33/// /2202 11016 2//// 39354 48499 57003 333 91110 91208;
0137066510999992011020822004+46950+008017FM-12+074599999V0202301N001019999999N9999999N1-00181+99999999999ADDMA1999999093521MD1710061+9999ME1314979OA149900261REMSYN076AAXX  08224 06651 33/// /2302 11018 2//// 39352 48497 57006 333 91105 91203;
0137066510999992011020823004+46950+008017FM-12+074599999V0202201N001019999999N9999999N1-00231+99999999999ADDMA1999999093511MD1719999+9999ME1314959OA149900261REMSYN076AAXX  08234 06651 33/// /2202 11023 2//// 39351 48495 57/// 333 91105 91203;
0137066510999992011020900004+46950+008017FM-12+074599999V0202101N001019999999N9999999N1-00221+99999999999ADDMA1999999093501MD1710041+9999ME1314949OA149900881REMSYN076AAXX  09004 06651 33/// /2102 11022 2//// 39350 48494 57004 333 91117 91212;
0137066510999992011020901004+46950+008017FM-12+074599999V0202101N001519999999N9999999N1-00271+99999999999ADDMA1999999093461MD1710061+9999ME1314899OA149900211REMSYN076AAXX  09014 06651 33/// /2103 11027 2//// 39346 48489 57006 333 91104 91203;
0137066510999992011020902004+46950+008017FM-12+074599999V0202101N001019999999N9999999N1-00301+99999999999ADDMA1999999093461MD1710051+9999ME1314889OA149900211REMSYN076AAXX  09024 06651 33/// /2102 11030 2//// 39346 48488 57005 333 91104 91203;
0137066510999992011020903004+46950+008017FM-12+074599999V0202101N001019999999N9999999N1-00341+99999999999ADDMA1999999093441MD1710061+9999ME1314869OA149900261REMSYN076AAXX  09034 06651 33/// /2102 11034 2//// 39344 48486 57006 333 91105 91203;
0110066510999992011020904004+46950+008017FM-12+074599999V0202101N001519999999N9999999N1-00301+99999999999ADDMA1999999093431MD1710031+9999ME1314869REMSYN060AAXX  09044 06651 43/// /2103 11030 2//// 39343 48486 57003;
0137066510999992011020905004+46950+008017FM-12+074599999V0202201N002119999999N9999999N1-00291+99999999999ADDMA1999999093411MD1710051+9999ME1314859OA149900311REMSYN076AAXX  09054 06651 33/// /2204 11029 2//// 39341 48485 57005 333 91106 91204;
0202066510999992011020906004+46950+008017FM-12+074599999V0202101N002119999999N9999999N1-00291+99999999999ADDAA124000091AL19900091KA1999N-00351MA1999999093401MD1710041+9999ME1314849OA149900361REMSYN088AAXX  09064 06651 33/// /2104 11029 2//// 39340 48484 57004 333 21035 70000 91107 91205;EQDQ01  00002PRCP24
0137066510999992011020907004+46950+008017FM-12+074599999V0202201N001019999999N9999999N1-00311+99999999999ADDMA1999999093431MD1510001+9999ME1314869OA149900361REMSYN076AAXX  09074 06651 33/// /2202 11031 2//// 39343 48486 55000 333 91107 91205;
0126066510999992011020908004+46950+008017FM-12+074599999V02099999999999999999N9999999N1+99999+99999999999ADDMD1219999+9999OA149999999REMSYN070AAXX  09084 06651 43/// ///// 1//// 2//// 3//// 52/// 333 91106 91205;EQDQ01  00312WGOSPD
0137066510999992011020909004+46950+008017FM-12+074599999V0202001N000519999999N9999999N1-00091+99999999999ADDMA1999999093471MD1210071+9999ME1314959OA149900361REMSYN076AAXX  09094 06651 33/// /2001 11009 2//// 39347 48495 52007 333 91107 91205;
0137066510999992011020910004+46950+008017FM-12+074599999V0209999C000019999999N9999999N1+00381+99999999999ADDMA1999999093491MD1210061+9999ME1315109OA149900311REMSYN076AAXX  09104 06651 33/// /0000 10038 2//// 39349 48510 52006 333 91106 91203;
0137066510999992011020911004+46950+008017FM-12+074599999V0200601N000519999999N9999999N1+00681+99999999999ADDMA1999999093451MD1719999+9999ME1315169OA149900151REMSYN076AAXX  09114 06651 33/// /0601 10068 2//// 39345 48516 57/// 333 91103 91202;
0110066510999992011020912004+46950+008017FM-12+074599999V0200101N002619999999N9999999N1+00781+99999999999ADDMA1999999093421MD1710051+9999ME1315169REMSYN060AAXX  09124 06651 33/// /0105 10078 2//// 39342 48516 57005;
0137066510999992011020913004+46950+008017FM-12+074599999V0200101N003119999999N9999999N1+00791+99999999999ADDMA1999999093381MD1610111+9999ME1315139OA149900411REMSYN076AAXX  09134 06651 33/// /0106 10079 2//// 39338 48513 56011 333 91108 91206;
0137066510999992011020914004+46950+008017FM-12+074599999V0200101N003119999999N9999999N1+00841+99999999999ADDMA1999999093371MD1710081+9999ME1315139OA149900461REMSYN076AAXX  09144 06651 33/// /0106 10084 2//// 39337 48513 57008 333 91109 91208;
0137066510999992011020915004+46950+008017FM-12+074599999V0203501N002619999999N9999999N1+00811+99999999999ADDMA1999999093381MD1710041+9999ME1315139OA149900461REMSYN076AAXX  09154 06651 33/// /3505 10081 2//// 39338 48513 57004 333 91109 91208;
0137066510999992011020916004+46950+008017FM-12+074599999V0203401N001019999999N9999999N1+00661+99999999999ADDMA1999999093401MD1210021+9999ME1315119OA149900461REMSYN076AAXX  09164 06651 33/// /3402 10066 2//// 39340 48511 52002 333 91109 91207;
0137066510999992011020917004+46950+008017FM-12+074599999V0202001N001519999999N9999999N1+00271+99999999999ADDMA1999999093441MD1210071+9999ME1315039OA149900361REMSYN076AAXX  09174 06651 33/// /2003 10027 2//// 39344 48503 52007 333 91107 91205;
0156066510999992011020918004+46950+008017FM-12+074599999V0202001N001519999999N9999999N1+00041+99999999999ADDKA1120M+00861MA1999999093471MD1210091+9999ME1314999OA149900461REMSYN082AAXX  09184 06651 33/// /2003 10004 2//// 39347 48499 52009 333 10086 91109 91208;
0137066510999992011020919004+46950+008017FM-12+074599999V0202101N001519999999N9999999N1-00041+99999999999ADDMA1999999093521MD1310121+9999ME1315019OA149900261REMSYN076AAXX  09194 06651 33/// /2103 11004 2//// 39352 48501 53012 333 91105 91203;
0096066510999992011020920004+46950+008017FM-12+074599999V0202001N002119999999N9999999N1+00001+99999999999ADDMA1999999093491ME1314999REMSYN060AAXX  09204 06651 43/// /2004 10000 2//// 39349 48499 5////;
0137066510999992011020921004+46950+008017FM-12+074599999V0202101N002119999999N9999999N1-00081+99999999999ADDMA1999999093531MD1210061+9999ME1315019OA149900361REMSYN076AAXX  09214 06651 33/// /2104 11008 2//// 39353 48501 52006 333 91107 91205;
0137066510999992011020922004+46950+008017FM-12+074599999V0202001N002619999999N9999999N1-00081+99999999999ADDMA1999999093521MD1410001+9999ME1315009OA149900411REMSYN076AAXX  09224 06651 33/// /2005 11008 2//// 39352 48500 52000 333 91108 91205;
0137066510999992011020923004+46950+008017FM-12+074599999V0202101N002119999999N9999999N1-00111+99999999999ADDMA1999999093551MD1210051+9999ME1315019OA149900411REMSYN076AAXX  09234 06651 33/// /2104 11011 2//// 39355 48501 52005 333 91108 91205;
0137066510999992011021000004+46950+008017FM-12+074599999V0202001N003119999999N9999999N1-00111+99999999999ADDMA1999999093561MD1210031+9999ME1315029OA149900461REMSYN076AAXX  10004 06651 33/// /2006 11011 2//// 39356 48502 52003 333 91109 91208;
0137066510999992011021001004+46950+008017FM-12+074599999V0202001N003119999999N9999999N1-00111+99999999999ADDMA1999999093561MD1110041+9999ME1315029OA149900411REMSYN076AAXX  10014 06651 33/// /2006 11011 2//// 39356 48502 51004 333 91108 91206;
0137066510999992011021002004+46950+008017FM-12+074599999V0202001N002119999999N9999999N1-00031+99999999999ADDMA1999999093551MD1410001+9999ME1315049OA149900461REMSYN076AAXX  10024 06651 33/// /2004 11003 2//// 39355 48504 54000 333 91109 91207;
0137066510999992011021003004+46950+008017FM-12+074599999V0202201N003119999999N9999999N1-00061+99999999999ADDMA1999999093521MD1810041+9999ME1315009OA149900461REMSYN076AAXX  10034 06651 33/// /2206 11006 2//// 39352 48500 58004 333 91109 91207;
0137066510999992011021004004+46950+008017FM-12+074599999V0202201N003119999999N9999999N1-00121+99999999999ADDMA1999999093531MD1710031+9999ME1314999OA149900461REMSYN076AAXX  10044 06651 33/// /2206 11012 2//// 39353 48499 57003 333 91109 91206;
0137066510999992011021005004+46950+008017FM-12+074599999V0202001N002119999999N9999999N1-00211+99999999999ADDMA1999999093581MD1310031+9999ME1315019OA149900411REMSYN076AAXX  10054 06651 33/// /2004 11021 2//// 39358 48501 53003 333 91108 91206;
0202066510999992011021006004+46950+008017FM-12+074599999V0202001N002119999999N9999999N1-00261+99999999999ADDAA124000091AL19900091KA1999N-00271MA1999999093571MD1210051+9999ME1314999OA149900461REMSYN088AAXX  10064 06651 33/// /2004 11026 2//// 39357 48499 52005 333 21027 70000 91109 91207;EQDQ01  00002PRCP24
0137066510999992011021007004+46950+008017FM-12+074599999V0202101N002619999999N9999999N1-00211+99999999999ADDMA1999999093601MD1210071+9999ME1315039OA149900411REMSYN076AAXX  10074 06651 33/// /2105 11021 2//// 39360 48503 52007 333 91108 91205;
0137066510999992011021008004+46950+008017FM-12+074599999V0202101N002119999999N9999999N1-00181+99999999999ADDMA1999999093621MD1210041+9999ME1315059OA149900411REMSYN076AAXX  10084 06651 33/// /2104 11018 2//// 39362 48505 52004 333 91108 91205;
0137066510999992011021009004+46950+008017FM-12+074599999V0202101N001519999999N9999999N1+00011+99999999999ADDMA1999999093611MD1010041+9999ME1315109OA149900411REMSYN076AAXX  10094 06651 33/// /2103 10001 2//// 39361 48510 50004 333 91108 91206;
0137066510999992011021010004+46950+008017FM-12+074599999V0202201N001519999999N9999999N1+00691+99999999999ADDMA1999999093561MD1810041+9999ME1315259OA149900361REMSYN076AAXX  10104 06651 33/// /2203 10069 2//// 39356 48525 58004 333 91107 91204;
0137066510999992011021011004+46950+008017FM-12+074599999V0201601N000519999999N9999999N1+00981+99999999999ADDMA1999999093531MD1810091+9999ME1315319OA149900311REMSYN076AAXX  10114 06651 33/// /1601 10098 2//// 39353 48531 58009 333 91106 91204;
0137066510999992011021012004+46950+008017FM-12+074599999V0202401N001019999999N9999999N1+01301+99999999999ADDMA1999999093471MD1810141+9999ME1315359OA149900461REMSYN076AAXX  10124 06651 33/// /2402 10130 2//// 39347 48535 58014 333 91109 91207;
0137066510999992011021013004+46950+008017FM-12+074599999V0202101N002119999999N9999999N1+01331+99999999999ADDMA1999999093431MD1610131+9999ME1315329OA149900411REMSYN076AAXX  10134 06651 33/// /2104 10133 2//// 39343 48532 56013 333 91108 91205;
