0140066500999992011010100004+47033+008300FM-12+045699999V0203501N001019999999N9999999N1+00111+00051102431ADDMA1999999096821MD1710071+9999OA149900311REMSYN088AAXX  01004 06650 33/// /3502 10011 20005 39682 40243 57007 333 55300 20000 91106 91204;
0140066500999992011010101004+47033+008300FM-12+045699999V0200401N000519999999N9999999N1+00111+00041102351ADDMA1999999096751MD1710121+9999OA149900261REMSYN088AAXX  01014 06650 33/// /0401 10011 20004 39675 40235 57012 333 55300 20000 91105 91203;
0140066500999992011010102004+47033+008300FM-12+045699999V0203101N000519999999N9999999N1+00101+00041102361ADDMA1999999096751MD1710101+9999OA149900151REMSYN088AAXX  01024 06650 33/// /3101 10010 20004 39675 40236 57010 333 55300 20000 91103 91202;
0140066500999992011010103004+47033+008300FM-12+045699999V0201701N001019999999N9999999N1+00171-00011102311ADDMA1999999096721MD1710101+9999OA149900261REMSYN088AAXX  01034 06650 33/// /1702 10017 21001 39672 40231 57010 333 55300 20000 91105 91203;
0140066500999992011010104004+47033+008300FM-12+045699999V0201601N001519999999N9999999N1+00151-00071102281ADDMA1999999096691MD1710061+9999OA149900261REMSYN088AAXX  01044 06650 33/// /1603 10015 21007 39669 40228 57006 333 55300 20000 91105 91203;
0140066500999992011010105004+47033+008300FM-12+045699999V0209999C000019999999N9999999N1+00171-00101102301ADDMA1999999096711MD1510041+9999OA149900261REMSYN088AAXX  01054 06650 33/// /0000 10017 21010 39671 40230 55004 333 55300 20000 91105 91203;
0207066500999992011010106004+47033+008300FM-12+045699999V0201701N001519999999N9999999N1+00131-00091102351ADDAL19900091GJ100009IA2999+00009KA1999N+00091MA1999999096751MD1310031+9999OA149900261REMSYN112AAXX  01064 06650 33/// /1703 10013 21009 39675 40235 53003 333 20009 3/000 55000 55300 20000 70000 91105 91204;
0140066500999992011010107004+47033+008300FM-12+045699999V0201701N002119999999N9999999N1+00111-00121102361ADDMA1999999096761MD1210071+9999OA149900311REMSYN088AAXX  01074 06650 33/// /1704 10011 21012 39676 40236 52007 333 55300 20000 91106 91205;
0140066500999992011010108004+47033+008300FM-12+045699999V0201601N002119999999N9999999N1+00121-00141102371ADDMA1999999096771MD1219999+9999OA149900411REMSYN088AAXX  01084 06650 33/// /1604 10012 21014 39677 40237 52/// 333 55300 20036 91108 91205;
0087066500999992011010109004+47033+008300FM-12+045699999V0201701N002119999999N9999999N1+00151-00161102381ADDMA1999999096781REMSYN060AAXX  01094 06650 43/// /1704 10015 21016 39678 40238 5////;
0087066500999992011010110004+47033+008300FM-12+045699999V0201501N001519999999N9999999N1+00161-00161102361ADDMA1999999096771REMSYN060AAXX  01104 06650 43/// /1503 10016 21016 39677 40236 5////;
0140066500999992011010111004+47033+008300FM-12+045699999V0202401N000519999999N9999999N1+00171-00191102321ADDMA1999999096731MD1810041+9999OA149900311REMSYN088AAXX  01114 06650 33/// /2401 10017 21019 39673 40232 58004 333 55300 20522 91106 91204;
0087066500999992011010112004+47033+008300FM-12+045699999V0201901N001019999999N9999999N1+00171-00171102241ADDMA1999999096651REMSYN060AAXX  01124 06650 43/// /1902 10017 21017 39665 40224 5////;
0087066500999992011010113004+47033+008300FM-12+045699999V0202601N000519999999N9999999N1+00241-00161102161ADDMA1999999096591REMSYN060AAXX  01134 06650 43/// /2601 10024 21016 39659 40216 5////;
0087066500999992011010114004+47033+008300FM-12+045699999V0201601N000519999999N9999999N1+00211-00141102151ADDMA1999999096581REMSYN060AAXX  01144 06650 43/// /1601 10021 21014 39658 40215 5////;
0087066500999992011010115004+47033+008300FM-12+045699999V0201501N001019999999N9999999N1+00201-00121102121ADDMA1999999096551REMSYN060AAXX  01154 06650 43/// /1502 10020 21012 39655 40212 5////;
0087066500999992011010116004+47033+008300FM-12+045699999V0203401N001519999999N9999999N1+00181-00111102161ADDMA1999999096581REMSYN060AAXX  01164 06650 43/// /3403 10018 21011 39658 40216 5////;
0087066500999992011010117004+47033+008300FM-12+045699999V0200601N001019999999N9999999N1+00151-00141102201ADDMA1999999096611REMSYN060AAXX  01174 06650 43/// /0602 10015 21014 39661 40220 5////;
0087066500999992011010118004+47033+008300FM-12+045699999V0203201N000519999999N9999999N1+00151-00121102221ADDMA1999999096631REMSYN060AAXX  01184 06650 43/// /3201 10015 21012 39663 40222 5////;
0103066500999992011010119004+47033+008300FM-12+045699999V0200901N001019999999N9999999N1+00131-00131102191ADDMA1999999096601REMSYN076AAXX  01194 06650 33/// /0902 10013 21013 39660 40219 5//// 333 553// 20000;
0140066500999992011010120004+47033+008300FM-12+045699999V0201101N000519999999N9999999N1+00141-00131102201ADDMA1999999096611MD1010001+9999OA149900461REMSYN088AAXX  01204 06650 33/// /1101 10014 21013 39661 40220 50000 333 55300 20000 91109 91204;
0140066500999992011010121004+47033+008300FM-12+045699999V0203401N002119999999N9999999N1+00091-00051102211ADDMA1999999096611MD1510021+9999OA149900461REMSYN088AAXX  01214 06650 33/// /3404 10009 21005 39661 40221 55002 333 55300 20000 91109 91205;
0140066500999992011010122004+47033+008300FM-12+045699999V0203401N001019999999N9999999N1+00061-00071102161ADDMA1999999096561MD1810041+9999OA149900461REMSYN088AAXX  01224 06650 33/// /3402 10006 21007 39656 40216 58004 333 55300 20000 91109 91205;
0140066500999992011010123004+47033+008300FM-12+045699999V0203501N002619999999N9999999N1+00041-00081102131ADDMA1999999096521MD1710091+9999OA149900461REMSYN088AAXX  01234 06650 33/// /3505 10004 21008 39652 40213 57009 333 55300 20000 91109 91205;
0140066500999992011010200004+47033+008300FM-12+045699999V0203401N002119999999N9999999N1+00031-00101102121ADDMA1999999096511MD1710101+9999OA149900461REMSYN088AAXX  02004 06650 33/// /3404 10003 21010 39651 40212 57010 333 55300 20000 91109 91205;
0140066500999992011010201004+47033+008300FM-12+045699999V0209999C000019999999N9999999N1+00051-00121102091ADDMA1999999096491MD1710071+9999OA149900461REMSYN088AAXX  02014 06650 33/// /0000 10005 21012 39649 40209 57007 333 55300 20000 91109 91205;
0087066500999992011010202004+47033+008300FM-12+045699999V0203501N001519999999N9999999N1+00031-00141102101ADDMA1999999096491REMSYN060AAXX  02024 06650 43/// /3503 10003 21014 39649 40210 5////;
0087066500999992011010203004+47033+008300FM-12+045699999V0203501N002119999999N9999999N1+00011-00111102131ADDMA1999999096521REMSYN060AAXX  02034 06650 43/// /3504 10001 21011 39652 40213 5////;
0087066500999992011010204004+47033+008300FM-12+045699999V0203401N000519999999N9999999N1+00001-00121102141ADDMA1999999096531REMSYN060AAXX  02044 06650 43/// /3401 10000 21012 39653 40214 5////;
0087066500999992011010205004+47033+008300FM-12+045699999V0203601N002119999999N9999999N1+00031-00161102141ADDMA1999999096531REMSYN060AAXX  02054 06650 43/// /3604 10003 21016 39653 40214 5////;
0134066500999992011010206004+47033+008300FM-12+045699999V0203601N001519999999N9999999N1-00011-00061102161ADDIA2999+00009KA1999N-00011MA1999999096541REMSYN082AAXX  02064 06650 43/// /3603 11001 21006 39654 40216 5//// 333 21001 3/100 55012;
0140066500999992011010207004+47033+008300FM-12+045699999V0202201N000519999999N9999999N1+00001-00061102161ADDMA1999999096541MD1310011+9999OA149900411REMSYN088AAXX  02074 06650 33/// /2201 10000 21006 39654 40216 53001 333 55300 20000 91108 91206;
0140066500999992011010208004+47033+008300FM-12+045699999V0203501N001519999999N9999999N1+00021-00121102211ADDMA1999999096601MD1210071+9999OA149900361REMSYN088AAXX  02084 06650 33/// /3503 10002 21012 39660 40221 52007 333 55300 20004 91107 91203;
0140066500999992011010209004+47033+008300FM-12+045699999V0203401N001519999999N9999999N1-00011-00131102261ADDMA1999999096641MD1310101+9999OA149900411REMSYN088AAXX  02094 06650 33/// /3403 11001 21013 39664 40226 53010 333 55300 20029 91108 91206;
0140066500999992011010210004+47033+008300FM-12+045699999V0203601N001019999999N9999999N1+00001-00121102291ADDMA1999999096671MD1110131+9999OA149900411REMSYN088AAXX  02104 06650 33/// /3602 10000 21012 39667 40229 51013 333 55300 20083 91108 91204;
0146066500999992011010211004+47033+008300FM-12+045699999V0203201N000519999999N9999999N1+00021-00081102271ADDMA1999999096651MD1210051+9999OA149900361REMSYN094AAXX  02114 06650 23/// /3201 10002 21008 39665 40227 52005 333 55300 20119 69915 91107 91203;
0182066500999992011010212004+47033+008300FM-12+045699999V0203201N001519999999N9999999N1+00041-00071102231ADDAA106000091MA1999999096621MD1810021+9999OA149900411REMSYN100AAXX  02124 06650 03/// /3203 10004 21007 39662 40223 58002 69911 333 55300 20108 60005 91108 91206;EQDQ01  00002PRCP06
0140066500999992011010213004+47033+008300FM-12+045699999V0203501N001519999999N9999999N1+00071-00131102211ADDMA1999999096611MD1610061+9999OA149900511REMSYN088AAXX  02134 06650 33/// /3503 10007 21013 39661 40221 56006 333 55300 20072 91110 91204;
0103066500999992011010214004+47033+008300FM-12+045699999V0203601N003119999999N9999999N1+00091-00221102231ADDMA1999999096631REMSYN076AAXX  02144 06650 33/// /3606 10009 21022 39663 40223 5//// 333 553// 20050;
0140066500999992011010215004+47033+008300FM-12+045699999V0202801N002619999999N9999999N1+00071-00361102301ADDMA1999999096691MD1210071+9999OA149900621REMSYN088AAXX  02154 06650 33/// /2805 10007 21036 39669 40230 52007 333 55300 20032 91112 91206;
0140066500999992011010216004+47033+008300FM-12+045699999V0203001N002119999999N9999999N1+00061-00281102341ADDMA1999999096731MD1310121+9999OA149900621REMSYN088AAXX  02164 06650 33/// /3004 10006 21028 39673 40234 53012 333 55300 20004 91112 91206;
0140066500999992011010217004+47033+008300FM-12+045699999V0203101N001519999999N9999999N1+00071-00381102371ADDMA1999999096761MD1110131+9999OA149900511REMSYN088AAXX  02174 06650 33/// /3103 10007 21038 39676 40237 51013 333 55300 20000 91110 91206;
0201066500999992011010218004+47033+008300FM-12+045699999V0203001N001519999999N9999999N1+00051-00381102381ADDAA112000091KA1120M+00091MA1999999096761MD1110071+9999OA149900621REMSYN106AAXX  02184 06650 03/// /3003 10005 21038 39676 40238 51007 69912 333 10009 55300 20000 60005 91112 91206;EQDQ01  00002PRCP12
0140066500999992011010219004+47033+008300FM-12+045699999V0203001N001519999999N9999999N1+00041-00401102421ADDMA1999999096801MD1310071+9999OA149900411REMSYN088AAXX  02194 06650 33/// /3003 10004 21040 39680 40242 53007 333 55300 20000 91108 91204;
0140066500999992011010220004+47033+008300FM-12+045699999V0203001N001519999999N9999999N1-00031-00371102461ADDMA1999999096821MD1310061+9999OA149900411REMSYN088AAXX  02204 06650 33/// /3003 11003 21037 39682 40246 53006 333 55300 20000 91108 91204;
0140066500999992011010221004+47033+008300FM-12+045699999V0203201N001519999999N9999999N1-00031-00401102481ADDMA1999999096841MD1110081+9999OA149900511REMSYN088AAXX  02214 06650 33/// /3203 11003 21040 39684 40248 51008 333 55300 20000 91110 91206;
0140066500999992011010222004+47033+008300FM-12+045699999V0203401N001519999999N9999999N1-00071-00421102531ADDMA1999999096881MD1310081+9999OA149900411REMSYN088AAXX  02224 06650 33/// /3403 11007 21042 39688 40253 53008 333 55300 20000 91108 91205;
0140066500999992011010223004+47033+008300FM-12+045699999V0203301N001519999999N9999999N1-00101-00441102541ADDMA1999999096881MD1210061+9999OA149900411REMSYN088AAXX  02234 06650 33/// /3303 11010 21044 39688 40254 52006 333 55300 20000 91108 91205;
0140066500999992011010300004+47033+008300FM-12+045699999V0203401N000519999999N9999999N1-00131-00431102541ADDMA1999999096881MD1010041+9999OA149900621REMSYN088AAXX  03004 06650 33/// /3401 11013 21043 39688 40254 50004 333 55300 20000 91112 91206;
0140066500999992011010301004+47033+008300FM-12+045699999V0203001N001019999999N9999999N1-00181-00491102531ADDMA1999999096861MD1710021+9999OA149900461REMSYN088AAXX  03014 06650 33/// /3002 11018 21049 39686 40253 57002 333 55300 20000 91109 91203;
0140066500999992011010302004+47033+008300FM-12+045699999V0203301N001019999999N9999999N1-00151-00511102521ADDMA1999999096851MD1719999+9999OA149900311REMSYN088AAXX  03024 06650 33/// /3302 11015 21051 39685 40252 57/// 333 55300 20000 91106 91203;
0087066500999992011010303004+47033+008300FM-12+045699999V0203001N000519999999N9999999N1-00171-00551102531ADDMA1999999096861REMSYN060AAXX  03034 06650 43/// /3001 11017 21055 39686 40253 5////;
0140066500999992011010304004+47033+008300FM-12+045699999V0200101N001019999999N9999999N1-00181-00551102521ADDMA1999999096851MD1710011+9999OA149900211REMSYN088AAXX  03044 06650 33/// /0102 11018 21055 39685 40252 57001 333 55300 20000 91104 91202;
0140066500999992011010305004+47033+008300FM-12+045699999V0203501N002119999999N9999999N1-00301-00511102561ADDMA1999999096861MD1210011+9999OA149900361REMSYN088AAXX  03054 06650 33/// /3504 11030 21051 39686 40256 52001 333 55300 20000 91107 91204;
0207066500999992011010306004+47033+008300FM-12+045699999V0203501N001519999999N9999999N1-00281-00561102571ADDAL10600091GJ100009IA2999-00609KA1999N-00321MA1999999096871MD1310011+9999OA149900461REMSYN112AAXX  03064 06650 33/// /3503 11028 21056 39687 40257 53001 333 21032 3/106 55000 55300 20000 70001 91109 91205;
0140066500999992011010307004+47033+008300FM-12+045699999V0203601N001519999999N9999999N1-00331-00581102571ADDMA1999999096861MD1010011+9999OA149900311REMSYN088AAXX  03074 06650 33/// /3603 11033 21058 39686 40257 50001 333 55300 20000 91106 91204;
0140066500999992011010308004+47033+008300FM-12+045699999V0203601N002119999999N9999999N1-00371-00571102601ADDMA1999999096881MD1219999+9999OA149900361REMSYN088AAXX  03084 06650 33/// /3604 11037 21057 39688 40260 52/// 333 55300 20040 91107 91204;
0103066500999992011010309004+47033+008300FM-12+045699999V0203601N002619999999N9999999N1-00321-00551102571ADDMA1999999096871REMSYN076AAXX  03094 06650 33/// /3605 11032 21055 39687 40257 5//// 333 553// 20353;
0140066500999992011010310004+47033+008300FM-12+045699999V0203401N001519999999N9999999N1-00251-00541102571ADDMA1999999096881MD1210021+9999OA149900461REMSYN088AAXX  03104 06650 33/// /3403 11025 21054 39688 40257 52002 333 55307 20785 91109 91206;
0140066500999992011010311004+47033+008300FM-12+045699999V0203201N001519999999N9999999N1-00181-00531102521ADDMA1999999096851MD1710031+9999OA149900461REMSYN088AAXX  03114 06650 33/// /3203 11018 21053 39685 40252 57003 333 55309 2//// 91109 91206;
0140066500999992011010312004+47033+008300FM-12+045699999V0203001N000519999999N9999999N1-00131-00531102451ADDMA1999999096791MD1810081+9999OA149900461REMSYN088AAXX  03124 06650 33/// /3001 11013 21053 39679 40245 58008 333 55306 2//// 91109 91206;
0140066500999992011010313004+47033+008300FM-12+045699999V0202701N001519999999N9999999N1-00071-00511102391ADDMA1999999096751MD1710131+9999OA149900361REMSYN088AAXX  03134 06650 33/// /2703 11007 21051 39675 40239 57013 333 55305 20940 91107 91203;
0103066500999992011010314004+47033+008300FM-12+045699999V0200501N001019999999N9999999N1-00101-00611102421ADDMA1999999096771REMSYN076AAXX  03144 06650 33/// /0502 11010 21061 39677 40242 5//// 333 553// 20680;
0103066500999992011010315004+47033+008300FM-12+045699999V0200301N001019999999N9999999N1-00081-00541102401ADDMA1999999096751REMSYN076AAXX  03154 06650 33/// /0302 11008 21054 39675 40240 5//// 333 553// 20169;
0140066500999992011010316004+47033+008300FM-12+045699999V0203301N001019999999N9999999N1-00091-00521102401ADDMA1999999096751MD1010001+9999OA149900411REMSYN088AAXX  03164 06650 33/// /3302 11009 21052 39675 40240 50000 333 55300 20014 91108 91205;
0140066500999992011010317004+47033+008300FM-12+045699999V0200101N001019999999N9999999N1-00101-00561102371ADDMA1999999096721MD1710051+9999OA149900411REMSYN088AAXX  03174 06650 33/// /0102 11010 21056 39672 40237 57005 333 55300 20000 91108 91205;
0159066500999992011010318004+47033+008300FM-12+045699999V0203501N001519999999N9999999N1-00111-00511102361ADDKA1120M-00021MA1999999096711MD1710041+9999OA149900461REMSYN094AAXX  03184 06650 33/// /3503 11011 21051 39671 40236 57004 333 11002 55300 20000 91109 91206;
0140066500999992011010319004+47033+008300FM-12+045699999V0203401N001519999999N9999999N1-00141-00531102361ADDMA1999999096701MD1710051+9999OA149900311REMSYN088AAXX  03194 06650 33/// /3403 11014 21053 39670 40236 57005 333 55300 20000 91106 91204;
0140066500999992011010320004+47033+008300FM-12+045699999V0203501N002619999999N9999999N1-00171-00571102321ADDMA1999999096661MD1710061+9999OA149900411REMSYN088AAXX  03204 06650 33/// /3505 11017 21057 39666 40232 57006 333 55300 20000 91108 91205;
0140066500999992011010321004+47033+008300FM-12+045699999V0203401N002619999999N9999999N1-00211-00591102331ADDMA1999999096661MD1710051+9999OA149900461REMSYN088AAXX  03214 06650 33/// /3405 11021 21059 39666 40233 57005 333 55300 20000 91109 91205;
0140066500999992011010322004+47033+008300FM-12+045699999V0203501N001519999999N9999999N1-00231-00561102331ADDMA1999999096661MD1710041+9999OA149900461REMSYN088AAXX  03224 06650 33/// /3503 11023 21056 39666 40233 57004 333 55300 20000 91109 91205;
0140066500999992011010323004+47033+008300FM-12+045699999V0203501N001019999999N9999999N1-00251-00541102341ADDMA1999999096661MD1210021+9999OA149900311REMSYN088AAXX  03234 06650 33/// /3502 11025 21054 39666 40234 52000 333 55300 20000 91106 91204;
0140066500999992011010400004+47033+008300FM-12+045699999V0203301N001019999999N9999999N1-00261-00521102341ADDMA1999999096661MD1410001+9999OA149900461REMSYN088AAXX  04004 06650 33/// /3302 11026 21052 39666 40234 54000 333 55300 20000 91109 91205;
0140066500999992011010401004+47033+008300FM-12+045699999V0202601N001019999999N9999999N1-00301-00651102321ADDMA1999999096631MD1810031+9999OA149900211REMSYN088AAXX  04014 06650 33/// /2602 11030 21065 39663 40232 58003 333 55300 20000 91104 91203;
0140066500999992011010402004+47033+008300FM-12+045699999V0202801N001519999999N9999999N1-00311-00721102311ADDMA1999999096621MD1719999+9999OA149900411REMSYN088AAXX  04024 06650 33/// /2803 11031 21072 39662 40231 57/// 333 55300 20000 91108 91205;
0140066500999992011010403004+47033+008300FM-12+045699999V0201401N000519999999N9999999N1-00271-00721102261ADDMA1999999096581MD1710081+9999OA149900411REMSYN088AAXX  04034 06650 33/// /1401 11027 21072 39658 40226 57008 333 55300 20000 91108 91205;
0140066500999992011010404004+47033+008300FM-12+045699999V0201501N001519999999N9999999N1-00241-00711102201ADDMA1999999096531MD1710101+9999OA149900311REMSYN088AAXX  04044 06650 33/// /1503 11024 21071 39653 40220 57010 333 55300 20000 91106 91203;
0140066500999992011010405004+47033+008300FM-12+045699999V0201501N001519999999N9999999N1-00271-00721102171ADDMA1999999096501MD1810121+9999OA149900311REMSYN088AAXX  04054 06650 33/// /1503 11027 21072 39650 40217 58012 333 55300 20000 91106 91204;
0207066500999992011010406004+47033+008300FM-12+045699999V0201501N002119999999N9999999N1-00271-00701102121ADDAL19900091GJ101989IA2999-00509KA1999N-00331MA1999999096451MD1810131+9999OA149900461REMSYN112AAXX  04064 06650 33/// /1504 11027 21070 39645 40212 58013 333 21033 3/105 55033 55300 20000 70000 91109 91205;
0140066500999992011010407004+47033+008300FM-12+045699999V0201901N000519999999N9999999N1-00311-00731102101ADDMA1999999096421MD1610111+9999OA149900261REMSYN088AAXX  04074 06650 33/// /1901 11031 21073 39642 40210 56011 333 55300 20000 91105 91204;
0140066500999992011010408004+47033+008300FM-12+045699999V0203501N000519999999N9999999N1-00321-00561102121ADDMA1999999096441MD1719999+9999OA149900261REMSYN088AAXX  04084 06650 33/// /3501 11032 21056 39644 40212 57/// 333 55300 20022 91105 91203;
0103066500999992011010409004+47033+008300FM-12+045699999V0203401N001019999999N9999999N1-00311-00541102121ADDMA1999999096441REMSYN076AAXX  04094 06650 33/// /3402 11031 21054 39644 40212 5//// 333 553// 20101;
0140066500999992011010410004+47033+008300FM-12+045699999V0203501N001019999999N9999999N1-00241-00531102121ADDMA1999999096461MD1210041+9999OA149900311REMSYN088AAXX  04104 06650 33/// /3502 11024 21053 39646 40212 52004 333 55300 20367 91106 91204;
0140066500999992011010411004+47033+008300FM-12+045699999V0203501N002119999999N9999999N1-00201-00581102081ADDMA1999999096431MD1010011+9999OA149900361REMSYN088AAXX  04114 06650 33/// /3504 11020 21058 39643 40208 50001 333 55302 20605 91107 91204;
0140066500999992011010412004+47033+008300FM-12+045699999V0203501N001019999999N9999999N1-00191-00601102001ADDMA1999999096351MD1710091+9999OA149900411REMSYN088AAXX  04124 06650 33/// /3502 11019 21060 39635 40200 57009 333 55309 2//// 91108 91205;
0140066500999992011010413004+47033+008300FM-12+045699999V0200501N000519999999N9999999N1-00121-00561101941ADDMA1999999096311MD1710151+9999OA149900311REMSYN088AAXX  04134 06650 33/// /0501 11012 21056 39631 40194 57015 333 55309 2//// 91106 91204;
0103066500999992011010414004+47033+008300FM-12+045699999V0201601N000519999999N9999999N1-00061-00571101861ADDMA1999999096251REMSYN076AAXX  04144 06650 33/// /1601 11006 21057 39625 40186 5//// 333 553// 20832;
0087066500999992011010415004+47033+008300FM-12+045699999V0202301N001019999999N9999999N1-00111-00561101881ADDMA1999999096261REMSYN060AAXX  04154 06650 43/// /2302 11011 21056 39626 40188 5////;
0140066500999992011010416004+47033+008300FM-12+045699999V0201801N000519999999N9999999N1-00171-00521101861ADDMA1999999096231MD1710081+9999OA149900261REMSYN088AAXX  04164 06650 33/// /1801 11017 21052 39623 40186 57008 333 55300 20065 91105 91204;
0140066500999992011010417004+47033+008300FM-12+045699999V0202801N000519999999N9999999N1-00221-00521101881ADDMA1999999096231MD1710021+9999OA149900261REMSYN088AAXX  04174 06650 33/// /2801 11022 21052 39623 40188 57002 333 55300 20000 91105 91204;
0159066500999992011010418004+47033+008300FM-12+045699999V0202701N001019999999N9999999N1-00161-00541101901ADDKA1120M-00061MA1999999096271MD1310011+9999OA149900361REMSYN094AAXX  04184 06650 33/// /2702 11016 21054 39627 40190 53001 333 11006 55300 20000 91107 91204;
0140066500999992011010419004+47033+008300FM-12+045699999V0201801N000519999999N9999999N1-00171-00491101911ADDMA1999999096271MD1210041+9999OA149900311REMSYN088AAXX  04194 06650 33/// /1801 11017 21049 39627 40191 52004 333 55300 20000 91106 91204;
0140066500999992011010420004+47033+008300FM-12+045699999V0201401N000519999999N9999999N1-00201-00441101861ADDMA1999999096221MD1810011+9999OA149900151REMSYN088AAXX  04204 06650 33/// /1401 11020 21044 39622 40186 58001 333 55300 20000 91103 91202;
0140066500999992011010421004+47033+008300FM-12+045699999V0203201N000519999999N9999999N1-00191-00481101851ADDMA1999999096211MD1710061+9999OA149900311REMSYN088AAXX  04214 06650 33/// /3201 11019 21048 39621 40185 57006 333 55300 20000 91106 91204;
0140066500999992011010422004+47033+008300FM-12+045699999V0203601N000519999999N9999999N1-00211-00441101861ADDMA1999999096221MD1510051+9999OA149900211REMSYN088AAXX  04224 06650 33/// /3601 11021 21044 39622 40186 55005 333 55300 20000 91104 91202;
0140066500999992011010423004+47033+008300FM-12+045699999V0209999C000019999999N9999999N1-00311-00471101891ADDMA1999999096231MD1210011+9999OA149900211REMSYN088AAXX  04234 06650 33/// /0000 11031 21047 39623 40189 52001 333 55300 20000 91104 91202;
0140066500999992011010500004+47033+008300FM-12+045699999V0201801N000519999999N9999999N1-00351-00481101871ADDMA1999999096201MD1810011+9999OA149900311REMSYN088AAXX  05004 06650 33/// /1801 11035 21048 39620 40187 58001 333 55300 20000 91106 91204;
0140066500999992011010501004+47033+008300FM-12+045699999V0202301N000519999999N9999999N1-00361-00501101861ADDMA1999999096191MD1810031+9999OA149900151REMSYN088AAXX  05014 06650 33/// /2301 11036 21050 39619 40186 58003 333 55300 20000 91103 91202;
0140066500999992011010502004+47033+008300FM-12+045699999V0202901N000519999999N9999999N1-00391-00521101871ADDMA1999999096191MD1710041+9999OA149900211REMSYN088AAXX  05024 06650 33/// /2901 11039 21052 39619 40187 57004 333 55300 20000 91104 91202;
0087066500999992011010503004+47033+008300FM-12+045699999V0201601N000519999999N9999999N1-00301-00501101841ADDMA1999999096181REMSYN060AAXX  05034 06650 43/// /1601 11030 21050 39618 40184 5////;
0140066500999992011010504004+47033+008300FM-12+045699999V0201801N000519999999N9999999N1-00281-00461101781ADDMA1999999096131MD1710061+9999OA149900151REMSYN088AAXX  05044 06650 33/// /1801 11028 21046 39613 40178 57006 333 55300 20000 91103 91202;
0140066500999992011010505004+47033+008300FM-12+045699999V0201501N001519999999N9999999N1-00241-00581101751ADDMA1999999096111MD1710081+9999OA149900361REMSYN088AAXX  05054 06650 33/// /1503 11024 21058 39611 40175 57008 333 55300 20000 91107 91203;
0207066500999992011010506004+47033+008300FM-12+045699999V0201901N001019999999N9999999N1-00371-00601101801ADDAL19900091GJ101989IA2999-00709KA1999N-00431MA1999999096131MD1510051+9999OA149900361REMSYN112AAXX  05064 06650 33/// /1902 11037 21060 39613 40180 55005 333 21043 3/107 55033 55300 20000 70000 91107 91203;
0140066500999992011010507004+47033+008300FM-12+045699999V0202601N000519999999N9999999N1-00461-00591101811ADDMA1999999096121MD1510011+9999OA149900261REMSYN088AAXX  05074 06650 33/// /2601 11046 21059 39612 40181 55001 333 55300 20000 91105 91203;
0140066500999992011010508004+47033+008300FM-12+045699999V0202701N000519999999N9999999N1-00441-00591101821ADDMA1999999096131MD1219999+9999OA149900151REMSYN088AAXX  05084 06650 33/// /2701 11044 21059 39613 40182 52/// 333 55301 20061 91103 91202;
0140066500999992011010509004+47033+008300FM-12+045699999V0209999C000019999999N9999999N1-00231-00491101751ADDMA1999999096111MD1710021+9999OA149900361REMSYN088AAXX  05094 06650 33/// /0000 11023 21049 39611 40175 57002 333 553// 20475 91107 91203;
0140066500999992011010510004+47033+008300FM-12+045699999V0209999C000019999999N9999999N1-00011-00581101671ADDMA1999999096081MD1710041+9999OA149900101REMSYN088AAXX  05104 06650 33/// /0000 11001 21058 39608 40167 57004 333 553// 20875 91102 91201;
0140066500999992011010511004+47033+008300FM-12+045699999V0200101N001019999999N9999999N1+00071-00481101591ADDMA1999999096021MD1810111+9999OA149900211REMSYN088AAXX  05114 06650 33/// /0102 10007 21048 39602 40159 58011 333 553// 2//// 91104 91203;
0103066500999992011010512004+47033+008300FM-12+045699999V0200201N002119999999N9999999N1+00211-00381101491ADDMA1999999095951REMSYN076AAXX  05124 06650 33/// /0204 10021 21038 39595 40149 5//// 333 553// 2////;
0140066500999992011010513004+47033+008300FM-12+045699999V0200101N001519999999N9999999N1+00241-00431101431ADDMA1999999095901MD1710181+9999OA149900311REMSYN088AAXX  05134 06650 33/// /0103 10024 21043 39590 40143 57018 333 553// 2//// 91106 91204;
0087066500999992011010514004+47033+008300FM-12+045699999V0200101N001019999999N9999999N1+00231-00491101441ADDMA1999999095911REMSYN060AAXX  05144 06650 43/// /0102 10023 21049 39591 40144 5////;
0087066500999992011010515004+47033+008300FM-12+045699999V0201601N002119999999N9999999N1+00061-00391101401ADDMA1999999095841REMSYN060AAXX  05154 06650 43/// /1604 10006 21039 39584 40140 5////;
0140066500999992011010516004+47033+008300FM-12+045699999V0202701N002119999999N9999999N1+00011-00361101371ADDMA1999999095801MD1710101+9999OA149900461REMSYN088AAXX  05164 06650 33/// /2704 10001 21036 39580 40137 57010 333 55300 20054 91109 91206;
0140066500999992011010517004+47033+008300FM-12+045699999V0202901N001019999999N9999999N1-00131-00371101441ADDMA1999999095841MD1510071+9999OA149900411REMSYN088AAXX  05174 06650 33/// /2902 11013 21037 39584 40144 55007 333 55300 20000 91108 91205;
0159066500999992011010518004+47033+008300FM-12+045699999V0202601N001519999999N9999999N1-00151-00361101431ADDKA1120M+00271MA1999999095821MD1519999+9999OA149900461REMSYN094AAXX  05184 06650 33/// /2603 11015 21036 39582 40143 55/// 333 10027 55300 20000 91109 91206;
0140066500999992011010519004+47033+008300FM-12+045699999V0202301N001019999999N9999999N1-00201-00391101451ADDMA1999999095831MD1210031+9999OA149900311REMSYN088AAXX  05194 06650 33/// /2302 11020 21039 39583 40145 52003 333 55300 20000 91106 91203;
0140066500999992011010520004+47033+008300FM-12+045699999V0202001N001019999999N9999999N1-00221-00431101391ADDMA1999999095771MD1719999+9999OA149900311REMSYN088AAXX  05204 06650 33/// /2002 11022 21043 39577 40139 57/// 333 55300 20000 91106 91203;
0103066500999992011010521004+47033+008300FM-12+045699999V0202601N000519999999N9999999N1-00281-00441101351ADDMA1999999095721REMSYN076AAXX  05214 06650 33/// /2601 11028 21044 39572 40135 5//// 333 553// 20000;
0140066500999992011010522004+47033+008300FM-12+045699999V0202601N001519999999N9999999N1-00311-00441101341ADDMA1999999095711MD1710121+9999OA149900211REMSYN088AAXX  05224 06650 33/// /2603 11031 21044 39571 40134 57012 333 55300 20000 91104 91204;
0140066500999992011010523004+47033+008300FM-12+045699999V0202601N001019999999N9999999N1-00351-00491101311ADDMA1999999095671MD1719999+9999OA149900211REMSYN088AAXX  05234 06650 33/// /2602 11035 21049 39567 40131 57/// 333 55300 20000 91104 91203;
0087066500999992011010600004+47033+008300FM-12+045699999V0200601N001519999999N9999999N1-00151-00421101211ADDMA1999999095621REMSYN060AAXX  06004 06650 43/// /0603 11015 21042 39562 40121 5////;
0087066500999992011010601004+47033+008300FM-12+045699999V0202701N001019999999N9999999N1-00231-00411101161ADDMA1999999095551REMSYN060AAXX  06014 06650 43/// /2702 11023 21041 39555 40116 5////;
0087066500999992011010602004+47033+008300FM-12+045699999V0209999C000019999999N9999999N1-00181-00351101151ADDMA1999999095551REMSYN060AAXX  06024 06650 43/// /0000 11018 21035 39555 40115 5////;
0087066500999992011010603004+47033+008300FM-12+045699999V0209999C000019999999N9999999N1-00131-00291101111ADDMA1999999095531REMSYN060AAXX  06034 06650 43/// /0000 11013 21029 39553 40111 5////;
0087066500999992011010604004+47033+008300FM-12+045699999V0209999C000019999999N9999999N1-00081-00261101111ADDMA1999999095541REMSYN060AAXX  06044 06650 43/// /0000 11008 21026 39554 40111 5////;
0087066500999992011010605004+47033+008300FM-12+045699999V0203401N001019999999N9999999N1+00001-00261101081ADDMA1999999095521REMSYN060AAXX  06054 06650 43/// /3402 10000 21026 39552 40108 5////;
0134066500999992011010606004+47033+008300FM-12+045699999V0201901N001019999999N9999999N1-00011-00231101091ADDIA2999-00709KA1999N-00431MA1999999095531REMSYN082AAXX  06064 06650 43/// /1902 11001 21023 39553 40109 5//// 333 21043 3/107 55067;
0087066500999992011010607004+47033+008300FM-12+045699999V0201601N000519999999N9999999N1+00011-00171101081ADDMA1999999095531REMSYN060AAXX  06074 06650 43/// /1601 10001 21017 39553 40108 5////;
0103066500999992011010608004+47033+008300FM-12+045699999V0202201N001019999999N9999999N1+00041-00241101061ADDMA1999999095511REMSYN076AAXX  06084 06650 33/// /2202 10004 21024 39551 40106 5//// 333 553// 20047;
0087066500999992011010609004+47033+008300FM-12+045699999V0209999C000019999999N9999999N1+00221-00161101041ADDMA1999999095531REMSYN060AAXX  06094 06650 43/// /0000 10022 21016 39553 40104 5////;
0140066500999992011010610004+47033+008300FM-12+045699999V0201801N000519999999N9999999N1+00401-00231101021ADDMA1999999095551MD1310021+9999OA149900211REMSYN088AAXX  06104 06650 33/// /1801 10040 21023 39555 40102 53002 333 55307 20752 91104 91202;
0140066500999992011010611004+47033+008300FM-12+045699999V0201701N001519999999N9999999N1+00501-00091100981ADDMA1999999095531MD1010021+9999OA149900261REMSYN088AAXX  06114 06650 33/// /1703 10050 21009 39553 40098 50002 333 55306 20925 91105 91203;
0140066500999992011010612004+47033+008300FM-12+045699999V0201301N000519999999N9999999N1+00491-00201100941ADDMA1999999095491MD1810041+9999OA149900261REMSYN088AAXX  06124 06650 33/// /1301 10049 21020 39549 40094 58004 333 55300 20490 91105 91203;
0140066500999992011010613004+47033+008300FM-12+045699999V0200101N001019999999N9999999N1+00651-00151100871ADDMA1999999095451MD1810101+9999OA149900261REMSYN088AAXX  06134 06650 33/// /0102 10065 21015 39545 40087 58010 333 55305 20997 91105 91203;
0087066500999992011010614004+47033+008300FM-12+045699999V0202601N001519999999N9999999N1+00661+00021100891ADDMA1999999095471REMSYN060AAXX  06144 06650 43/// /2603 10066 20002 39547 40089 5////;
0087066500999992011010615004+47033+008300FM-12+045699999V0202001N000519999999N9999999N1+00571-00111100941ADDMA1999999095501REMSYN060AAXX  06154 06650 43/// /2001 10057 21011 39550 40094 5////;
0140066500999992011010616004+47033+008300FM-12+045699999V0203101N000519999999N9999999N1+00501+00041100951ADDMA1999999095501MD1210051+9999OA149900261REMSYN088AAXX  06164 06650 33/// /3101 10050 20004 39550 40095 52005 333 55300 20029 91105 91203;
0146066500999992011010617004+47033+008300FM-12+045699999V0203201N001019999999N9999999N1+00511+00171101011ADDMA1999999095561MD1210091+9999OA149900311REMSYN094AAXX  06174 06650 23/// /3202 10051 20017 39556 40101 52009 333 55300 20000 69925 91106 91203;
0182066500999992011010618004+47033+008300FM-12+045699999V0201801N001519999999N9999999N1+00411+00221101081ADDAA112001091KA1120M+00731MA1999999095611MD1210111+9999OA149900461REMSYN106AAXX  06184 06650 03/// /1803 10041 20022 39561 40108 52011 60012 333 10073 55300 20000 69995 91109 91206;
0146066500999992011010619004+47033+008300FM-12+045699999V0203201N001019999999N9999999N1+00401+00281101101ADDMA1999999095621MD1210121+9999OA149900461REMSYN094AAXX  06194 06650 23/// /3202 10040 20028 39562 40110 52012 333 55300 20000 69945 91109 91206;
0146066500999992011010620004+47033+008300FM-12+045699999V0201701N000519999999N9999999N1+00321+00271101221ADDMA1999999095721MD1219999+9999OA149900571REMSYN094AAXX  06204 06650 23/// /1701 10032 20027 39572 40122 52/// 333 55300 20000 69985 91111 91207;
0146066500999992011010621004+47033+008300FM-12+045699999V0202801N001019999999N9999999N1+00361+00321101191ADDMA1999999095701MD1219999+9999OA149900571REMSYN094AAXX  06214 06650 23/// /2802 10036 20032 39570 40119 52/// 333 55300 20000 69925 91111 91207;
0140066500999992011010622004+47033+008300FM-12+045699999V0200501N000519999999N9999999N1+00381+00341101241ADDMA1999999095751MD1210131+9999OA149900261REMSYN088AAXX  06224 06650 33/// /0501 10038 20034 39575 40124 52013 333 55300 20000 91105 91203;
0109066500999992011010623004+47033+008300FM-12+045699999V0203001N000519999999N9999999N1+00381+00331101311ADDMA1999999095821REMSYN082AAXX  06234 06650 23/// /3001 10038 20033 39582 40131 5//// 333 553// 20000 69915;
0087066500999992011010700004+47033+008300FM-12+045699999V0202501N000519999999N9999999N1+00351+00341101291ADDMA1999999095791REMSYN060AAXX  07004 06650 43/// /2501 10035 20034 39579 40129 5////;
0087066500999992011010701004+47033+008300FM-12+045699999V0200401N001019999999N9999999N1+00431+00371101301ADDMA1999999095821REMSYN060AAXX  07014 06650 43/// /0402 10043 20037 39582 40130 5////;
0087066500999992011010702004+47033+008300FM-12+045699999V0202101N001019999999N9999999N1+00411+00371101361ADDMA1999999095871REMSYN060AAXX  07024 06650 43/// /2102 10041 20037 39587 40136 5////;
0087066500999992011010703004+47033+008300FM-12+045699999V0202101N001019999999N9999999N1+00311+00291101411ADDMA1999999095901REMSYN060AAXX  07034 06650 43/// /2102 10031 20029 39590 40141 5////;
0146066500999992011010704004+47033+008300FM-12+045699999V0202801N000519999999N9999999N1+00301+00301101471ADDMA1999999095951MD1210131+9999OA149900211REMSYN094AAXX  07044 06650 23/// /2801 10030 20030 39595 40147 52013 333 55300 20000 69915 91104 91203;
0146066500999992011010705004+47033+008300FM-12+045699999V0201901N001019999999N9999999N1+00371+00341101451ADDMA1999999095951MD1210081+9999OA149900311REMSYN094AAXX  07054 06650 23/// /1902 10037 20034 39595 40145 52008 333 55300 20000 69925 91106 91204;
0230066500999992011010706004+47033+008300FM-12+045699999V0201501N000519999999N9999999N1+00381+00351101431ADDAA112002091AL19900391GJ101329IA2999+00209KA1999N+00301MA1999999095931MD1210031+9999OA149900571REMSYN124AAXX  07064 06650 03/// /1501 10038 20035 39593 40143 52003 60022 333 20030 3/002 55022 55300 20000 60005 70030 91111 91207;
0175066500999992011010707004+47033+008300FM-12+045699999V0200101N001519999999N9999999N1+00441+00381101441ADDMA1999999095951MD1710031+9999OA149900261REMSYN088AAXX  07074 06650 33/// /0103 10044 20038 39595 40144 52000 333 55300 20000 91105 91203;EQDQ01+000022APCTENQ02+000002APC3  
0103066500999992011010708004+47033+008300FM-12+045699999V0202801N000519999999N9999999N1+00371+00331101431ADDMA1999999095931REMSYN076AAXX  07084 06650 33/// /2801 10037 20033 39593 40143 5//// 333 553// 20043;
0087066500999992011010709004+47033+008300FM-12+045699999V0202001N001519999999N9999999N1+00541+00431101411ADDMA1999999095941REMSYN060AAXX  07094 06650 43/// /2003 10054 20043 39594 40141 5////;
0140066500999992011010710004+47033+008300FM-12+045699999V0202501N000519999999N9999999N1+00731+00561101391ADDMA1999999095961MD1510011+9999OA149900211REMSYN088AAXX  07104 06650 33/// /2501 10073 20056 39596 40139 55001 333 55307 20828 91104 91203;
0175066500999992011010711004+47033+008300FM-12+045699999V0201801N001019999999N9999999N1+00801+00571101341ADDMA1999999095931MD1710091+9999OA149900361REMSYN088AAXX  07114 06650 33/// /1802 10080 20057 39593 40134 58000 333 553// 2//// 91107 91204;EQDQ01+000082APCTENQ02+000002APC3  
0140066500999992011010712004+47033+008300FM-12+045699999V0202701N000519999999N9999999N1+01001+00611101251ADDMA1999999095881MD1710061+9999OA149900411REMSYN088AAXX  07124 06650 33/// /2701 10100 20061 39588 40125 57006 333 55309 2//// 91108 91206;
0140066500999992011010713004+47033+008300FM-12+045699999V0201001N001019999999N9999999N1+01081+00651101191ADDMA1999999095841MD1710121+9999OA149900261REMSYN088AAXX  07134 06650 33/// /1002 10108 20065 39584 40119 57012 333 553// 2//// 91105 91203;
0087066500999992011010714004+47033+008300FM-12+045699999V0201701N000519999999N9999999N1+00891+00591101241ADDMA1999999095851REMSYN060AAXX  07144 06650 43/// /1701 10089 20059 39585 40124 5////;
0087066500999992011010715004+47033+008300FM-12+045699999V0203001N001519999999N9999999N1+00911+00611101261ADDMA1999999095871REMSYN060AAXX  07154 06650 43/// /3003 10091 20061 39587 40126 5////;
0140066500999992011010716004+47033+008300FM-12+045699999V0201901N001519999999N9999999N1+00741+00531101351ADDMA1999999095931MD1210091+9999OA149900411REMSYN088AAXX  07164 06650 33/// /1903 10074 20053 39593 40135 52009 333 55300 20054 91108 91204;
0140066500999992011010717004+47033+008300FM-12+045699999V0202701N001519999999N9999999N1+00641+00511101391ADDMA1999999095941MD1210091+9999OA149900361REMSYN088AAXX  07174 06650 33/// /2703 10064 20051 39594 40139 52009 333 55300 20000 91107 91204;
0122066500999992011010718004+47033+008300FM-12+045699999V0202601N001019999999N9999999N1+00561+00461101431ADDKA1120M+01081MA1999999095971REMSYN082AAXX  07184 06650 33/// /2602 10056 20046 39597 40143 5//// 333 10108 553// 20000;
0140066500999992011010719004+47033+008300FM-12+045699999V0202501N001019999999N9999999N1+00531+00431101411ADDMA1999999095941MD1019999+9999OA149900261REMSYN088AAXX  07194 06650 33/// /2502 10053 20043 39594 40141 50/// 333 55300 20000 91105 91203;
0087066500999992011010720004+47033+008300FM-12+045699999V0202601N001519999999N9999999N1+00461+00401101381ADDMA1999999095901REMSYN060AAXX  07204 06650 43/// /2603 10046 20040 39590 40138 5////;
0087066500999992011010721004+47033+008300FM-12+045699999V0200101N001019999999N9999999N1+00451+00381101371ADDMA1999999095891REMSYN060AAXX  07214 06650 43/// /0102 10045 20038 39589 40137 5////;
0140066500999992011010722004+47033+008300FM-12+045699999V0209999C000019999999N9999999N1+00401+00341101391ADDMA1999999095901MD1510041+9999OA149900261REMSYN088AAXX  07224 06650 33/// /0000 10040 20034 39590 40139 55004 333 55300 20000 91105 91203;
0103066500999992011010723004+47033+008300FM-12+045699999V0203101N000519999999N9999999N1+00441+00381101421ADDMA1999999095931REMSYN076AAXX  07234 06650 33/// /3101 10044 20038 39593 40142 5//// 333 553// 20000;
0103066500999992011010800004+47033+008300FM-12+045699999V0200701N000519999999N9999999N1+00411+00351101481ADDMA1999999095981REMSYN076AAXX  08004 06650 33/// /0701 10041 20035 39598 40148 5//// 333 553// 20000;
0087066500999992011010801004+47033+008300FM-12+045699999V0201801N001519999999N9999999N1+00401+00331101471ADDMA1999999095971REMSYN060AAXX  08014 06650 43/// /1803 10040 20033 39597 40147 5////;
0087066500999992011010802004+47033+008300FM-12+045699999V0200301N000519999999N9999999N1+00521+00371101421ADDMA1999999095951REMSYN060AAXX  08024 06650 43/// /0301 10052 20037 39595 40142 5////;
0087066500999992011010803004+47033+008300FM-12+045699999V0202001N001019999999N9999999N1+00421+00311101441ADDMA1999999095951REMSYN060AAXX  08034 06650 43/// /2002 10042 20031 39595 40144 5////;
0087066500999992011010804004+47033+008300FM-12+045699999V0202801N001519999999N9999999N1+00471+00351101421ADDMA1999999095941REMSYN060AAXX  08044 06650 43/// /2803 10047 20035 39594 40142 5////;
0087066500999992011010805004+47033+008300FM-12+045699999V0200401N004119999999N9999999N1+00651+00381101461ADDMA1999999096011REMSYN060AAXX  08054 06650 43/// /0408 10065 20038 39601 40146 5////;
0134066500999992011010806004+47033+008300FM-12+045699999V0201001N000519999999N9999999N1+00541+00441101601ADDIA2999+00109KA1999N+00311MA1999999096121REMSYN082AAXX  08064 06650 43/// /1001 10054 20044 39612 40160 5//// 333 20031 3/001 55045;
0087066500999992011010807004+47033+008300FM-12+045699999V0203401N000519999999N9999999N1+00551+00481101631ADDMA1999999096151REMSYN060AAXX  08074 06650 43/// /3401 10055 20048 39615 40163 5////;
0103066500999992011010808004+47033+008300FM-12+045699999V0202201N001019999999N9999999N1+00621+00521101591ADDMA1999999096131REMSYN076AAXX  08084 06650 33/// /2202 10062 20052 39613 40159 5//// 333 553// 20025;
0087066500999992011010809004+47033+008300FM-12+045699999V0203101N000519999999N9999999N1+00691+00591101561ADDMA1999999096111REMSYN060AAXX  08094 06650 43/// /3101 10069 20059 39611 40156 5////;
0087066500999992011010810004+47033+008300FM-12+045699999V0200401N001019999999N9999999N1+00911+00551101511ADDMA1999999096111REMSYN060AAXX  08104 06650 43/// /0402 10091 20055 39611 40151 5////;
0087066500999992011010811004+47033+008300FM-12+045699999V0201301N000519999999N9999999N1+01021+00561101451ADDMA1999999096071REMSYN060AAXX  08114 06650 43/// /1301 10102 20056 39607 40145 5////;
0087066500999992011010812004+47033+008300FM-12+045699999V0201601N000519999999N9999999N1+01091+00611101381ADDMA1999999096021REMSYN060AAXX  08124 06650 43/// /1601 10109 20061 39602 40138 5////;
0087066500999992011010813004+47033+008300FM-12+045699999V0209999C000019999999N9999999N1+01171+00581101331ADDMA1999999095991REMSYN060AAXX  08134 06650 43/// /0000 10117 20058 39599 40133 5////;
0087066500999992011010814004+47033+008300FM-12+045699999V0201901N002119999999N9999999N1+01091+00571101341ADDMA1999999095981REMSYN060AAXX  08144 06650 43/// /1904 10109 20057 39598 40134 5////;
0087066500999992011010815004+47033+008300FM-12+045699999V0202301N001019999999N9999999N1+01001+00571101391ADDMA1999999096011REMSYN060AAXX  08154 06650 43/// /2302 10100 20057 39601 40139 5////;
0087066500999992011010816004+47033+008300FM-12+045699999V0202301N001019999999N9999999N1+00791+00571101451ADDMA1999999096031REMSYN060AAXX  08164 06650 43/// /2302 10079 20057 39603 40145 5////;
0087066500999992011010817004+47033+008300FM-12+045699999V0202501N002619999999N9999999N1+00671+00411101461ADDMA1999999096021REMSYN060AAXX  08174 06650 43/// /2505 10067 20041 39602 40146 5////;
0087066500999992011010818004+47033+008300FM-12+045699999V0202601N001019999999N9999999N1+00501+00361101491ADDMA1999999096011REMSYN060AAXX  08184 06650 43/// /2602 10050 20036 39601 40149 5////;
0087066500999992011010819004+47033+008300FM-12+045699999V0202201N000519999999N9999999N1+00401+00321101501ADDMA1999999096001REMSYN060AAXX  08194 06650 43/// /2201 10040 20032 39600 40150 5////;
0087066500999992011010820004+47033+008300FM-12+045699999V0202701N001019999999N9999999N1+00291+00251101491ADDMA1999999095971REMSYN060AAXX  08204 06650 43/// /2702 10029 20025 39597 40149 5////;
0087066500999992011010821004+47033+008300FM-12+045699999V0202801N001019999999N9999999N1+00211+00191101471ADDMA1999999095931REMSYN060AAXX  08214 06650 43/// /2802 10021 20019 39593 40147 5////;
0087066500999992011010822004+47033+008300FM-12+045699999V0200801N000519999999N9999999N1+00251+00181101471ADDMA1999999095941REMSYN060AAXX  08224 06650 43/// /0801 10025 20018 39594 40147 5////;
0087066500999992011010823004+47033+008300FM-12+045699999V0202601N000519999999N9999999N1+00351+00231101431ADDMA1999999095921REMSYN060AAXX  08234 06650 43/// /2601 10035 20023 39592 40143 5////;
0087066500999992011010900004+47033+008300FM-12+045699999V0209999C000019999999N9999999N1+00151+00101101451ADDMA1999999095901REMSYN060AAXX  09004 06650 43/// /0000 10015 20010 39590 40145 5////;
0087066500999992011010901004+47033+008300FM-12+045699999V0209999C000019999999N9999999N1+00211+00151101501ADDMA1999999095961REMSYN060AAXX  09014 06650 43/// /0000 10021 20015 39596 40150 5////;
0087066500999992011010902004+47033+008300FM-12+045699999V0202501N001019999999N9999999N1+00171+00101101521ADDMA1999999095971REMSYN060AAXX  09024 06650 43/// /2502 10017 20010 39597 40152 5////;
0087066500999992011010903004+47033+008300FM-12+045699999V0203101N001019999999N9999999N1+00171+00091101471ADDMA1999999095931REMSYN060AAXX  09034 06650 43/// /3102 10017 20009 39593 40147 5////;
0087066500999992011010904004+47033+008300FM-12+045699999V0209999C000019999999N9999999N1-00021-00061101511ADDMA1999999095931REMSYN060AAXX  09044 06650 43/// /0000 11002 21006 39593 40151 5////;
0087066500999992011010905004+47033+008300FM-12+045699999V0201701N000519999999N9999999N1+00071+00031101471ADDMA1999999095911REMSYN060AAXX  09054 06650 43/// /1701 10007 20003 39591 40147 5////;
0097066500999992011010906004+47033+008300FM-12+045699999V0200201N001019999999N9999999N1+00131+00061101441ADDMA1999999095891REMSYN070AAXX  09064 06650 43/// /0202 10013 20006 39589 40144 5//// 333 55056;
0087066500999992011010907004+47033+008300FM-12+045699999V0200201N000519999999N9999999N1+00201+00111101441ADDMA1999999095901REMSYN060AAXX  09074 06650 43/// /0201 10020 20011 39590 40144 5////;
0103066500999992011010908004+47033+008300FM-12+045699999V0202701N001019999999N9999999N1+00231+00121101521ADDMA1999999095991REMSYN076AAXX  09084 06650 33/// /2702 10023 20012 39599 40152 5//// 333 553// 20029;
0103066500999992011010909004+47033+008300FM-12+045699999V0201701N000519999999N9999999N1+00391+00231101521ADDMA1999999096021REMSYN076AAXX  09094 06650 33/// /1701 10039 20023 39602 40152 5//// 333 553// 20245;
0140066500999992011010910004+47033+008300FM-12+045699999V0202801N001019999999N9999999N1+00731+00391101481ADDMA1999999096051MD1210151+9999OA149900261REMSYN088AAXX  09104 06650 33/// /2802 10073 20039 39605 40148 52015 333 55303 20630 91105 91204;
0140066500999992011010911004+47033+008300FM-12+045699999V0202601N000519999999N9999999N1+00761+00431101481ADDMA1999999096051MD1210061+9999OA149900261REMSYN088AAXX  09114 06650 33/// /2601 10076 20043 39605 40148 52006 333 55300 20508 91105 91204;
0140066500999992011010912004+47033+008300FM-12+045699999V0201901N000519999999N9999999N1+00791+00461101441ADDMA1999999096021MD1010001+9999OA149900361REMSYN088AAXX  09124 06650 33/// /1901 10079 20046 39602 40144 50000 333 55300 20338 91107 91204;
0140066500999992011010913004+47033+008300FM-12+045699999V0201901N001519999999N9999999N1+00781+00401101461ADDMA1999999096041MD1010011+9999OA149900261REMSYN088AAXX  09134 06650 33/// /1903 10078 20040 39604 40146 50001 333 55300 20212 91105 91203;
0087066500999992011010914004+47033+008300FM-12+045699999V0202801N001019999999N9999999N1+00891+00421101461ADDMA1999999096061REMSYN060AAXX  09144 06650 43/// /2802 10089 20042 39606 40146 5////;
0087066500999992011010915004+47033+008300FM-12+045699999V0201701N002619999999N9999999N1+00841+00421101501ADDMA1999999096091REMSYN060AAXX  09154 06650 43/// /1705 10084 20042 39609 40150 5////;
0140066500999992011010916004+47033+008300FM-12+045699999V0202501N000519999999N9999999N1+00741+00441101601ADDMA1999999096161MD1210121+9999OA149900361REMSYN088AAXX  09164 06650 33/// /2501 10074 20044 39616 40160 52012 333 55300 20054 91107 91205;
0140066500999992011010917004+47033+008300FM-12+045699999V0209999C000019999999N9999999N1+00701+00491101651ADDMA1999999096201MD1210141+9999OA149900261REMSYN088AAXX  09174 06650 33/// /0000 10070 20049 39620 40165 52014 333 55300 20000 91105 91203;
0159066500999992011010918004+47033+008300FM-12+045699999V0209999C000019999999N9999999N1+00591+00471101701ADDKA1120M+00901MA1999999096231MD1110141+9999OA149900361REMSYN094AAXX  09184 06650 33/// /0000 10059 20047 39623 40170 51014 333 10090 55300 20000 91107 91205;
0146066500999992011010919004+47033+008300FM-12+045699999V0203001N000519999999N9999999N1+00631+00541101731ADDMA1999999096261MD1110101+9999OA149900151REMSYN094AAXX  09194 06650 23/// /3001 10063 20054 39626 40173 51010 333 55300 20000 69925 91103 91201;
0146066500999992011010920004+47033+008300FM-12+045699999V0209999C000019999999N9999999N1+00581+00561101821ADDMA1999999096341MD1310141+9999OA149900151REMSYN094AAXX  09204 06650 23/// /0000 10058 20056 39634 40182 53014 333 55300 20000 60025 91103 91202;
0146066500999992011010921004+47033+008300FM-12+045699999V0200201N000519999999N9999999N1+00551+00541101871ADDMA1999999096381MD1210151+9999OA149900261REMSYN094AAXX  09214 06650 23/// /0201 10055 20054 39638 40187 52015 333 55300 20000 60035 91105 91203;
0146066500999992011010922004+47033+008300FM-12+045699999V0200501N000519999999N9999999N1+00561+00541101911ADDMA1999999096421MD1210161+9999OA149900151REMSYN094AAXX  09224 06650 23/// /0501 10056 20054 39642 40191 52016 333 55300 20000 60025 91103 91201;
0146066500999992011010923004+47033+008300FM-12+045699999V0203501N002119999999N9999999N1+00601+00531101951ADDMA1999999096471MD1210131+9999OA149900261REMSYN094AAXX  09234 06650 23/// /3504 10060 20053 39647 40195 52013 333 55300 20000 60015 91105 91204;
0163066500999992011011000004+47033+008300FM-12+045699999V0203501N002619999999N9999999N1+00541+00471102001ADDAA106008991MA1999999096501MD1110121+9999OA149900511REMSYN100AAXX  10004 06650 03/// /3505 10054 20047 39650 40200 51012 60091 333 55300 20000 60025 91110 91205;
0146066500999992011011001004+47033+008300FM-12+045699999V0200401N002119999999N9999999N1+00501+00401102051ADDMA1999999096541MD1310121+9999OA149900511REMSYN094AAXX  10014 06650 23/// /0404 10050 20040 39654 40205 53012 333 55300 20000 60025 91110 91205;
0109066500999992011011002004+47033+008300FM-12+045699999V0203601N000519999999N9999999N1+00451+00391102101ADDMA1999999096581REMSYN082AAXX  10024 06650 23/// /3601 10045 20039 39658 40210 5//// 333 553// 20000 60015;
0087066500999992011011003004+47033+008300FM-12+045699999V0209999C000019999999N9999999N1+00451+00411102111ADDMA1999999096591REMSYN060AAXX  10034 06650 43/// /0000 10045 20041 39659 40211 5////;
0109066500999992011011004004+47033+008300FM-12+045699999V0202001N000519999999N9999999N1+00431+00411102121ADDMA1999999096591REMSYN082AAXX  10044 06650 23/// /2001 10043 20041 39659 40212 5//// 333 553// 20000 69955;
0146066500999992011011005004+47033+008300FM-12+045699999V0209999C000019999999N9999999N1+00431+00401102111ADDMA1999999096581MD1019999+9999OA149900101REMSYN094AAXX  10054 06650 23/// /0000 10043 20040 39658 40211 50/// 333 55300 20000 69915 91102 91201;
0159066500999992011011006004+47033+008300FM-12+045699999V0209999C000019999999N9999999N1+00411+00391102131ADDAA124014291GJ100309IA2999+00309KA1999N+00401MA1999999096601REMSYN088AAXX  10064 06650 43/// /0000 10041 20039 39660 40213 5//// 333 20040 3/003 55005 70143;
0146066500999992011011007004+47033+008300FM-12+045699999V0203601N002619999999N9999999N1+00441+00371102161ADDMA1999999096631MD1310041+9999OA149900361REMSYN094AAXX  10074 06650 23/// /3605 10044 20037 39663 40216 53004 333 55300 20000 69955 91107 91205;
0087066500999992011011008004+47033+008300FM-12+045699999V0203401N002119999999N9999999N1+00411+00351102181ADDMA1999999096651REMSYN060AAXX  10084 06650 43/// /3404 10041 20035 39665 40218 5////;
0087066500999992011011009004+47033+008300FM-12+045699999V0203301N002119999999N9999999N1+00401+00311102231ADDMA1999999096691REMSYN060AAXX  10094 06650 43/// /3304 10040 20031 39669 40223 5////;
0140066500999992011011010004+47033+008300FM-12+045699999V0203301N001019999999N9999999N1+00391+00311102241ADDMA1999999096701MD1210071+9999OA149900411REMSYN088AAXX  10104 06650 33/// /3302 10039 20031 39670 40224 52007 333 55300 20083 91108 91204;
0140066500999992011011011004+47033+008300FM-12+045699999V0203601N001519999999N9999999N1+00381+00321102201ADDMA1999999096661MD1019999+9999OA149900361REMSYN088AAXX  10114 06650 33/// /3603 10038 20032 39666 40220 50/// 333 55300 20148 91107 91204;
0126066500999992011011012004+47033+008300FM-12+045699999V0203501N001519999999N9999999N1+00391+00331102151ADDAA106000591MA1999999096611REMSYN088AAXX  10124 06650 03/// /3503 10039 20033 39661 40215 5//// 69951 333 553// 20198 60005;
0087066500999992011011013004+47033+008300FM-12+045699999V0200301N001519999999N9999999N1+00411+00311102081ADDMA1999999096551REMSYN060AAXX  10134 06650 43/// /0303 10041 20031 39655 40208 5////;
0087066500999992011011014004+47033+008300FM-12+045699999V0200201N002119999999N9999999N1+00411+00301102031ADDMA1999999096501REMSYN060AAXX  10144 06650 43/// /0204 10041 20030 39650 40203 5////;
0087066500999992011011015004+47033+008300FM-12+045699999V0200201N000519999999N9999999N1+00401+00291102021ADDMA1999999096491REMSYN060AAXX  10154 06650 43/// /0201 10040 20029 39649 40202 5////;
0087066500999992011011016004+47033+008300FM-12+045699999V0200201N002119999999N9999999N1+00391+00261101981ADDMA1999999096451REMSYN060AAXX  10164 06650 43/// /0204 10039 20026 39645 40198 5////;
0087066500999992011011017004+47033+008300FM-12+045699999V0203101N000519999999N9999999N1+00351+00241101951ADDMA1999999096421REMSYN060AAXX  10174 06650 43/// /3101 10035 20024 39642 40195 5////;
0110066500999992011011018004+47033+008300FM-12+045699999V0203501N001519999999N9999999N1+00361+00241101951ADDKA1999M+00461MA1999999096421REMSYN070AAXX  10184 06650 43/// /3503 10036 20024 39642 40195 5//// 333 10046;
0087066500999992011011019004+47033+008300FM-12+045699999V0203501N001019999999N9999999N1+00351+00251101901ADDMA1999999096371REMSYN060AAXX  10194 06650 43/// /3502 10035 20025 39637 40190 5////;
0087066500999992011011020004+47033+008300FM-12+045699999V0203401N001019999999N9999999N1+00341+00231101881ADDMA1999999096351REMSYN060AAXX  10204 06650 43/// /3402 10034 20023 39635 40188 5////;
0087066500999992011011021004+47033+008300FM-12+045699999V0200301N000519999999N9999999N1+00331+00251101891ADDMA1999999096361REMSYN060AAXX  10214 06650 43/// /0301 10033 20025 39636 40189 5////;
0087066500999992011011022004+47033+008300FM-12+045699999V0203601N001519999999N9999999N1+00351+00231101881ADDMA1999999096351REMSYN060AAXX  10224 06650 43/// /3603 10035 20023 39635 40188 5////;
0087066500999992011011023004+47033+008300FM-12+045699999V0201801N000519999999N9999999N1+00341+00251101851ADDMA1999999096321REMSYN060AAXX  10234 06650 43/// /1801 10034 20025 39632 40185 5////;
0087066500999992011011100004+47033+008300FM-12+045699999V0201601N001019999999N9999999N1+00331+00241101781ADDMA1999999096251REMSYN060AAXX  11004 06650 43/// /1602 10033 20024 39625 40178 5////;
0087066500999992011011101004+47033+008300FM-12+045699999V0201901N000519999999N9999999N1+00331+00231101741ADDMA1999999096211REMSYN060AAXX  11014 06650 43/// /1901 10033 20023 39621 40174 5////;
0087066500999992011011102004+47033+008300FM-12+045699999V0209999C000019999999N9999999N1+00331+00251101711ADDMA1999999096191REMSYN060AAXX  11024 06650 43/// /0000 10033 20025 39619 40171 5////;
0087066500999992011011103004+47033+008300FM-12+045699999V0209999C000019999999N9999999N1+00311+00261101681ADDMA1999999096151REMSYN060AAXX  11034 06650 43/// /0000 10031 20026 39615 40168 5////;
0087066500999992011011104004+47033+008300FM-12+045699999V0202501N000519999999N9999999N1+00321+00231101631ADDMA1999999096111REMSYN060AAXX  11044 06650 43/// /2501 10032 20023 39611 40163 5////;
0087066500999992011011105004+47033+008300FM-12+045699999V0209999C000019999999N9999999N1+00331+00211101571ADDMA1999999096051REMSYN060AAXX  11054 06650 43/// /0000 10033 20021 39605 40157 5////;
0097066500999992011011106004+47033+008300FM-12+045699999V0202301N000519999999N9999999N1+00341+00191101531ADDMA1999999096021REMSYN070AAXX  11064 06650 43/// /2301 10034 20019 39602 40153 5//// 333 55000;
0140066500999992011011107004+47033+008300FM-12+045699999V0201501N000519999999N9999999N1+00331+00131101461ADDMA1999999095951MD1719999+9999OA149900211REMSYN088AAXX  11074 06650 33/// /1501 10033 20013 39595 40146 57/// 333 55300 20000 91104 91202;
0103066500999992011011108004+47033+008300FM-12+045699999V0201601N002119999999N9999999N1+00301+00141101451ADDMA1999999095931REMSYN076AAXX  11084 06650 33/// /1604 10030 20014 39593 40145 5//// 333 553// 20047;
0087066500999992011011109004+47033+008300FM-12+045699999V0201601N002119999999N9999999N1+00381+00091101391ADDMA1999999095891REMSYN060AAXX  11094 06650 43/// /1604 10038 20009 39589 40139 5////;
0140066500999992011011110004+47033+008300FM-12+045699999V0201601N002119999999N9999999N1+00431+00091101331ADDMA1999999095851MD1810101+9999OA149900461REMSYN088AAXX  11104 06650 33/// /1604 10043 20009 39585 40133 58010 333 553// 20943 91109 91205;
0140066500999992011011111004+47033+008300FM-12+045699999V0202101N001019999999N9999999N1+00471+00091101231ADDMA1999999095761MD1810171+9999OA149900461REMSYN088AAXX  11114 06650 33/// /2102 10047 20009 39576 40123 58017 333 55308 2//// 91109 91206;
0103066500999992011011112004+47033+008300FM-12+045699999V0203601N002619999999N9999999N1+00531+00121101141ADDMA1999999095691REMSYN076AAXX  11124 06650 33/// /3605 10053 20012 39569 40114 5//// 333 553// 20796;
0140066500999992011011113004+47033+008300FM-12+045699999V0201601N002619999999N9999999N1+00481+00151101131ADDMA1999999095671MD1710181+9999OA149900511REMSYN088AAXX  11134 06650 33/// /1605 10048 20015 39567 40113 57018 333 55300 20601 91110 91207;
0087066500999992011011114004+47033+008300FM-12+045699999V0201701N001519999999N9999999N1+00461+00111101181ADDMA1999999095711REMSYN060AAXX  11144 06650 43/// /1703 10046 20011 39571 40118 5////;
0087066500999992011011115004+47033+008300FM-12+045699999V0201501N002119999999N9999999N1+00471+00151101261ADDMA1999999095791REMSYN060AAXX  11154 06650 43/// /1504 10047 20015 39579 40126 5////;
0146066500999992011011116004+47033+008300FM-12+045699999V0201601N001019999999N9999999N1+00411+00261101351ADDMA1999999095861MD1310191+9999OA149900361REMSYN094AAXX  11164 06650 23/// /1602 10041 20026 39586 40135 53019 333 55300 20014 69925 91107 91205;
0146066500999992011011117004+47033+008300FM-12+045699999V0203101N001519999999N9999999N1+00401+00301101441ADDMA1999999095941MD1210211+9999OA149900361REMSYN094AAXX  11174 06650 23/// /3103 10040 20030 39594 40144 52021 333 55300 20000 69985 91107 91204;
0182066500999992011011118004+47033+008300FM-12+045699999V0200301N000519999999N9999999N1+00381+00281101511ADDAA112001091KA1120M+00541MA1999999096011MD1310221+9999OA149900511REMSYN106AAXX  11184 06650 03/// /0301 10038 20028 39601 40151 53022 60012 333 10054 55300 20000 69925 91110 91207;
0146066500999992011011119004+47033+008300FM-12+045699999V0203501N001019999999N9999999N1+00371+00281101621ADDMA1999999096111MD1310251+9999OA149900211REMSYN094AAXX  11194 06650 23/// /3502 10037 20028 39611 40162 53025 333 55300 20000 69945 91104 91203;
0146066500999992011011120004+47033+008300FM-12+045699999V0201601N001019999999N9999999N1+00351+00291101721ADDMA1999999096201MD1310261+9999OA149900211REMSYN094AAXX  11204 06650 23/// /1602 10035 20029 39620 40172 53026 333 55300 20000 69955 91104 91202;
0140066500999992011011121004+47033+008300FM-12+045699999V0202801N000519999999N9999999N1+00311+00271101811ADDMA1999999096281MD1110271+9999OA149900361REMSYN088AAXX  11214 06650 33/// /2801 10031 20027 39628 40181 51027 333 55300 20000 91107 91204;
0140066500999992011011122004+47033+008300FM-12+045699999V0209999C000019999999N9999999N1+00321+00281101911ADDMA1999999096371MD1310261+9999OA149900261REMSYN088AAXX  11224 06650 33/// /0000 10032 20028 39637 40191 53026 333 55300 20000 91105 91202;
0140066500999992011011123004+47033+008300FM-12+045699999V0209999C000019999999N9999999N1+00301+00251101951ADDMA1999999096411MD1110211+9999OA149900211REMSYN088AAXX  11234 06650 33/// /0000 10030 20025 39641 40195 51021 333 55300 20000 91104 91203;
0163066500999992011011200004+47033+008300FM-12+045699999V0202401N001519999999N9999999N1+00301+00231101991ADDAA106001091MA1999999096441MD1110161+9999OA149900511REMSYN100AAXX  12004 06650 03/// /2403 10030 20023 39644 40199 51016 69991 333 55300 20000 60005 91110 91207;
0140066500999992011011201004+47033+008300FM-12+045699999V0202801N001019999999N9999999N1+00341+00251102011ADDMA1999999096471MD1210101+9999OA149900261REMSYN088AAXX  12014 06650 33/// /2802 10034 20025 39647 40201 52010 333 55300 20000 91105 91203;
0103066500999992011011202004+47033+008300FM-12+045699999V0203201N000519999999N9999999N1+00321+00271102081ADDMA1999999096531REMSYN076AAXX  12024 06650 33/// /3201 10032 20027 39653 40208 5//// 333 553// 20000;
0087066500999992011011203004+47033+008300FM-12+045699999V0202001N000519999999N9999999N1+00301+00271102201ADDMA1999999096641REMSYN060AAXX  12034 06650 43/// /2001 10030 20027 39664 40220 5////;
0087066500999992011011204004+47033+008300FM-12+045699999V0202801N000519999999N9999999N1+00321+00271102201ADDMA1999999096651REMSYN060AAXX  12044 06650 43/// /2801 10032 20027 39665 40220 5////;
0103066500999992011011205004+47033+008300FM-12+045699999V0202601N000519999999N9999999N1+00261+00231102291ADDMA1999999096721REMSYN076AAXX  12054 06650 33/// /2601 10026 20023 39672 40229 5//// 333 553// 20000;
0159066500999992011011206004+47033+008300FM-12+045699999V0201501N000519999999N9999999N1+00321+00271102361ADDAA124002091GJ101629IA2999+00009KA1999N+00211MA1999999096801REMSYN088AAXX  12064 06650 43/// /1501 10032 20027 39680 40236 5//// 333 20021 3/100 55027 70021;
0140066500999992011011207004+47033+008300FM-12+045699999V0201701N001019999999N9999999N1+00341+00281102391ADDMA1999999096831MD1210181+9999OA149900261REMSYN088AAXX  12074 06650 33/// /1702 10034 20028 39683 40239 52018 333 55300 20000 91105 91203;
0087066500999992011011208004+47033+008300FM-12+045699999V0209999C000019999999N9999999N1+00371+00301102421ADDMA1999999096861REMSYN060AAXX  12084 06650 43/// /0000 10037 20030 39686 40242 5////;
0087066500999992011011209004+47033+008300FM-12+045699999V0201501N000519999999N9999999N1+00441+00351102421ADDMA1999999096881REMSYN060AAXX  12094 06650 43/// /1501 10044 20035 39688 40242 5////;
0140066500999992011011210004+47033+008300FM-12+045699999V0201501N001019999999N9999999N1+00521+00361102441ADDMA1999999096911MD1219999+9999OA149900261REMSYN088AAXX  12104 06650 33/// /1502 10052 20036 39691 40244 52/// 333 55300 20288 91105 91203;
0117066500999992011011211004+47033+008300FM-12+045699999V0201801N000519999999N9999999N1+00571+00351102391ADDMA1999999096881MD1010021+9999REMSYN076AAXX  12114 06650 33/// /1801 10057 20035 39688 40239 50002 333 55300 20378;
0087066500999992011011212004+47033+008300FM-12+045699999V0201901N000519999999N9999999N1+00601+00331102361ADDMA1999999096851REMSYN060AAXX  12124 06650 43/// /1901 10060 20033 39685 40236 5////;
0087066500999992011011213004+47033+008300FM-12+045699999V0202001N000519999999N9999999N1+00621+00361102311ADDMA1999999096811REMSYN060AAXX  12134 06650 43/// /2001 10062 20036 39681 40231 5////;
0087066500999992011011214004+47033+008300FM-12+045699999V0209999C000019999999N9999999N1+00671+00331102321ADDMA1999999096831REMSYN060AAXX  12144 06650 43/// /0000 10067 20033 39683 40232 5////;
0087066500999992011011215004+47033+008300FM-12+045699999V0201501N001519999999N9999999N1+00591+00401102361ADDMA1999999096851REMSYN060AAXX  12154 06650 43/// /1503 10059 20040 39685 40236 5////;
0146066500999992011011216004+47033+008300FM-12+045699999V0202201N000519999999N9999999N1+00541+00431102371ADDMA1999999096851MD1210041+9999OA149900361REMSYN094AAXX  12164 06650 23/// /2201 10054 20043 39685 40237 52004 333 55300 20007 69975 91107 91204;
0140066500999992011011217004+47033+008300FM-12+045699999V0202201N001019999999N9999999N1+00511+00441102361ADDMA1999999096841MD1710011+9999OA149900261REMSYN088AAXX  12174 06650 33/// /2202 10051 20044 39684 40236 57001 333 55300 20000 91105 91203;
0182066500999992011011218004+47033+008300FM-12+045699999V0209999C000019999999N9999999N1+00501+00451102361ADDAA112001091KA1120M+00671MA1999999096831MD1810021+9999OA149900361REMSYN106AAXX  12184 06650 03/// /0000 10050 20045 39683 40236 58002 60012 333 10067 55300 20000 69965 91107 91204;
0146066500999992011011219004+47033+008300FM-12+045699999V0201401N001019999999N9999999N1+00471+00441102381ADDMA1999999096851MD1510001+9999OA149900151REMSYN094AAXX  12194 06650 23/// /1402 10047 20044 39685 40238 55000 333 55300 20000 69965 91103 91202;
0146066500999992011011220004+47033+008300FM-12+045699999V0202001N000519999999N9999999N1+00471+00441102371ADDMA1999999096841MD1010001+9999OA149900151REMSYN094AAXX  12204 06650 23/// /2001 10047 20044 39684 40237 50000 333 55300 20000 69955 91103 91202;
0146066500999992011011221004+47033+008300FM-12+045699999V0202101N000519999999N9999999N1+00521+00451102351ADDMA1999999096831MD1710011+9999OA149900261REMSYN094AAXX  12214 06650 23/// /2101 10052 20045 39683 40235 58000 333 55300 20000 60015 91105 91203;
0146066500999992011011222004+47033+008300FM-12+045699999V0200801N000519999999N9999999N1+00511+00461102341ADDMA1999999096821MD1710031+9999OA149900211REMSYN094AAXX  12224 06650 23/// /0801 10051 20046 39682 40234 57003 333 55300 20000 69985 91104 91203;
0146066500999992011011223004+47033+008300FM-12+045699999V0202301N000519999999N9999999N1+00491+00461102371ADDMA1999999096841MD1010001+9999OA149900151REMSYN094AAXX  12234 06650 23/// /2301 10049 20046 39684 40237 50000 333 55300 20000 60025 91103 91201;
0163066500999992011011300004+47033+008300FM-12+045699999V0201201N000519999999N9999999N1+00481+00461102371ADDAA106007191MA1999999096841MD1210011+9999OA149900361REMSYN100AAXX  13004 06650 03/// /1201 10048 20046 39684 40237 52001 60071 333 55300 20000 60025 91107 91204;
0146066500999992011011301004+47033+008300FM-12+045699999V0202001N000519999999N9999999N1+00501+00481102321ADDMA1999999096801MD1810021+9999OA149900211REMSYN094AAXX  13014 06650 23/// /2001 10050 20048 39680 40232 58002 333 55300 20000 60045 91104 91203;
0146066500999992011011302004+47033+008300FM-12+045699999V0203601N002119999999N9999999N1+00581+00521102231ADDMA1999999096731MD1819999+9999OA149900361REMSYN094AAXX  13024 06650 23/// /3604 10058 20052 39673 40223 58/// 333 55300 20000 60015 91107 91204;
0087066500999992011011303004+47033+008300FM-12+045699999V0202501N000519999999N9999999N1+00561+00521102241ADDMA1999999096731REMSYN060AAXX  13034 06650 43/// /2501 10056 20052 39673 40224 5////;
0146066500999992011011304004+47033+008300FM-12+045699999V0209999C001519999999N9999999N1+00611+00581102211ADDMA1999999096711MD1719999+9999OA149900621REMSYN094AAXX  13044 06650 23/// /0003 10061 20058 39671 40221 57/// 333 55300 20000 60025 91112 91205;
0109066500999992011011305004+47033+008300FM-12+045699999V0209999C000019999999N9999999N1+00611+00591102221ADDMA1999999096721REMSYN082AAXX  13054 06650 23/// /0000 10061 20059 39672 40222 5//// 333 553// 20000 60015;
0230066500999992011011306004+47033+008300FM-12+045699999V0209999C000019999999N9999999N1+00661+00631102271ADDAA112018091AL11201991GJ100009IA2999+00409KA1999N+00461MA1999999096781MD1310051+9999OA149900621REMSYN124AAXX  13064 06650 03/// /0000 10066 20063 39678 40227 53005 60182 333 20046 3/004 55000 55300 20000 60025 70192 91112 91205;
0087066500999992011011307004+47033+008300FM-12+045699999V0202001N001019999999N9999999N1+00581+00561102251ADDMA1999999096751REMSYN060AAXX  13074 06650 43/// /2002 10058 20056 39675 40225 5////;
0087066500999992011011308004+47033+008300FM-12+045699999V0201901N001519999999N9999999N1+00681+00631102241ADDMA1999999096761REMSYN060AAXX  13084 06650 43/// /1903 10068 20063 39676 40224 5////;
0087066500999992011011309004+47033+008300FM-12+045699999V0209999C002619999999N9999999N1+00751+00691102181ADDMA1999999096711REMSYN060AAXX  13094 06650 43/// /0005 10075 20069 39671 40218 5////;
0087066500999992011011310004+47033+008300FM-12+045699999V0202701N001019999999N9999999N1+00781+00741102231ADDMA1999999096771REMSYN060AAXX  13104 06650 43/// /2702 10078 20074 39677 40223 5////;
0087066500999992011011311004+47033+008300FM-12+045699999V0201601N002619999999N9999999N1+00851+00741102211ADDMA1999999096761REMSYN060AAXX  13114 06650 43/// /1605 10085 20074 39676 40221 5////;
0087066500999992011011312004+47033+008300FM-12+045699999V0202201N001519999999N9999999N1+00941+00761102151ADDMA1999999096721REMSYN060AAXX  13124 06650 43/// /2203 10094 20076 39672 40215 5////;
0087066500999992011011313004+47033+008300FM-12+045699999V0202001N001019999999N9999999N1+00981+00811102071ADDMA1999999096651REMSYN060AAXX  13134 06650 43/// /2002 10098 20081 39665 40207 5////;
0087066500999992011011314004+47033+008300FM-12+045699999V0202301N001019999999N9999999N1+01041+00791102091ADDMA1999999096681REMSYN060AAXX  13144 06650 43/// /2302 10104 20079 39668 40209 5////;
0087066500999992011011315004+47033+008300FM-12+045699999V0201601N002619999999N9999999N1+01011+00801102121ADDMA1999999096711REMSYN060AAXX  13154 06650 43/// /1605 10101 20080 39671 40212 5////;
0087066500999992011011316004+47033+008300FM-12+045699999V0203601N000519999999N9999999N1+00971+00781102121ADDMA1999999096701REMSYN060AAXX  13164 06650 43/// /3601 10097 20078 39670 40212 5////;
0159066500999992011011317004+47033+008300FM-12+045699999V0201901N001019999999N9999999N1+00851+00761102121ADDMA1999999096681MD1810031+9999OA149900511REMSYN088AAXX  13174 06650 33/// /1902 10085 20076 39668 40212 58000 333 55300 20000 91110 91204;EQDQ01+000002APC3  
0182066500999992011011318004+47033+008300FM-12+045699999V0209999C000019999999N9999999N1+00831+00761102171ADDAA112002091KA1120M+01101MA1999999096721MD1310011+9999OA149900511REMSYN106AAXX  13184 06650 03/// /0000 10083 20076 39672 40217 53001 60022 333 10110 55300 20000 60005 91110 91205;
0140066500999992011011319004+47033+008300FM-12+045699999V0202301N000519999999N9999999N1+00781+00731102191ADDMA1999999096731MD1310031+9999OA149900211REMSYN088AAXX  13194 06650 33/// /2301 10078 20073 39673 40219 53003 333 55300 20000 91104 91202;
0140066500999992011011320004+47033+008300FM-12+045699999V0202401N001019999999N9999999N1+00781+00731102201ADDMA1999999096741MD1110061+9999OA149900211REMSYN088AAXX  13204 06650 33/// /2402 10078 20073 39674 40220 51006 333 55300 20000 91104 91202;
0140066500999992011011321004+47033+008300FM-12+045699999V0202001N000519999999N9999999N1+00671+00651102211ADDMA1999999096731MD1010011+9999OA149900511REMSYN088AAXX  13214 06650 33/// /2001 10067 20065 39673 40221 50001 333 55300 20000 91110 91204;
0140066500999992011011322004+47033+008300FM-12+045699999V0202301N001019999999N9999999N1+00651+00631102241ADDMA1999999096751MD1210021+9999OA149900261REMSYN088AAXX  13224 06650 33/// /2302 10065 20063 39675 40224 52002 333 55300 20000 91105 91202;
0140066500999992011011323004+47033+008300FM-12+045699999V0209999C000019999999N9999999N1+00701+00651102241ADDMA1999999096761MD1210021+9999OA149900311REMSYN088AAXX  13234 06650 33/// /0000 10070 20065 39676 40224 52002 333 55300 20000 91106 91203;
0140066500999992011011400004+47033+008300FM-12+045699999V0202101N000519999999N9999999N1+00681+00651102241ADDMA1999999096761MD1210031+9999OA149900511REMSYN088AAXX  14004 06650 33/// /2101 10068 20065 39676 40224 52003 333 55300 20000 91110 91205;
0140066500999992011011401004+47033+008300FM-12+045699999V0203001N000519999999N9999999N1+00721+00651102271ADDMA1999999096791MD1210041+9999OA149900211REMSYN088AAXX  14014 06650 33/// /3001 10072 20065 39679 40227 52004 333 55300 20000 91104 91202;
0103066500999992011011402004+47033+008300FM-12+045699999V0202101N001019999999N9999999N1+00731+00661102301ADDMA1999999096821REMSYN076AAXX  14024 06650 33/// /2102 10073 20066 39682 40230 5//// 333 553// 20000;
0140066500999992011011403004+47033+008300FM-12+045699999V0202301N000519999999N9999999N1+00701+00641102291ADDMA1999999096811MD1210051+9999OA149900311REMSYN088AAXX  14034 06650 33/// /2301 10070 20064 39681 40229 52005 333 55300 20000 91106 91203;
0140066500999992011011404004+47033+008300FM-12+045699999V0209999C000019999999N9999999N1+00691+00651102301ADDMA1999999096811MD1010021+9999OA149900151REMSYN088AAXX  14044 06650 33/// /0000 10069 20065 39681 40230 50002 333 55300 20000 91103 91202;
0140066500999992011011405004+47033+008300FM-12+045699999V0202501N001019999999N9999999N1+00661+00621102281ADDMA1999999096791MD1710031+9999OA149900151REMSYN088AAXX  14054 06650 33/// /2502 10066 20062 39679 40228 57003 333 55300 20000 91103 91202;
0207066500999992011011406004+47033+008300FM-12+045699999V0200201N001019999999N9999999N1+00721+00651102311ADDAL19900291GJ100189IA2999+00409KA1999N+00651MA1999999096831MD1310021+9999OA149900311REMSYN112AAXX  14064 06650 33/// /0202 10072 20065 39683 40231 53002 333 20065 3/004 55003 55300 20000 70020 91106 91203;
0140066500999992011011407004+47033+008300FM-12+045699999V0201901N000519999999N9999999N1+00681+00631102331ADDMA1999999096841MD1210031+9999OA149900211REMSYN088AAXX  14074 06650 33/// /1901 10068 20063 39684 40233 52003 333 55300 20000 91104 91203;
0087066500999992011011408004+47033+008300FM-12+045699999V0202901N001019999999N9999999N1+00731+00651102321ADDMA1999999096841REMSYN060AAXX  14084 06650 43/// /2902 10073 20065 39684 40232 5////;
0087066500999992011011409004+47033+008300FM-12+045699999V0202101N000519999999N9999999N1+00791+00641102301ADDMA1999999096831REMSYN060AAXX  14094 06650 43/// /2101 10079 20064 39683 40230 5////;
0087066500999992011011410004+47033+008300FM-12+045699999V0202501N000519999999N9999999N1+00871+00691102241ADDMA1999999096791REMSYN060AAXX  14104 06650 43/// /2501 10087 20069 39679 40224 5////;
0140066500999992011011411004+47033+008300FM-12+045699999V0209999C000019999999N9999999N1+00971+00651102201ADDMA1999999096771MD1710071+9999OA149900151REMSYN088AAXX  14114 06650 33/// /0000 10097 20065 39677 40220 57007 333 55300 20515 91103 91202;
0140066500999992011011412004+47033+008300FM-12+045699999V0201701N000519999999N9999999N1+01021+00711102131ADDMA1999999096721MD1710111+9999OA149900211REMSYN088AAXX  14124 06650 33/// /1701 10102 20071 39672 40213 57011 333 55300 20472 91104 91203;
0140066500999992011011413004+47033+008300FM-12+045699999V0202301N000519999999N9999999N1+01071+00651102081ADDMA1999999096681MD1710111+9999OA149900151REMSYN088AAXX  14134 06650 33/// /2301 10107 20065 39668 40208 57011 333 55300 20515 91103 91202;
0103066500999992011011414004+47033+008300FM-12+045699999V0209999C000019999999N9999999N1+01091+00641102041ADDMA1999999096651REMSYN076AAXX  14144 06650 33/// /0000 10109 20064 39665 40204 5//// 333 553// 20356;
0140066500999992011011415004+47033+008300FM-12+045699999V0201701N001519999999N9999999N1+01051+00661102061ADDMA1999999096661MD1710061+9999OA149900211REMSYN088AAXX  14154 06650 33/// /1703 10105 20066 39666 40206 57006 333 55300 20220 91104 91203;
0140066500999992011011416004+47033+008300FM-12+045699999V0201201N000519999999N9999999N1+00971+00601102041ADDMA1999999096621MD1710061+9999OA149900211REMSYN088AAXX  14164 06650 33/// /1201 10097 20060 39662 40204 57006 333 55300 20079 91104 91203;
0140066500999992011011417004+47033+008300FM-12+045699999V0202701N003119999999N9999999N1+00821+00541102051ADDMA1999999096601MD1810051+9999OA149900461REMSYN088AAXX  14174 06650 33/// /2706 10082 20054 39660 40205 58005 333 55300 20000 91109 91206;
0159066500999992011011418004+47033+008300FM-12+045699999V0202801N001519999999N9999999N1+00641+00471102061ADDKA1120M+01101MA1999999096581MD1710081+9999OA149900461REMSYN094AAXX  14184 06650 33/// /2803 10064 20047 39658 40206 57008 333 10110 55300 20000 91109 91206;
0140066500999992011011419004+47033+008300FM-12+045699999V0201801N001019999999N9999999N1+00701+00441102031ADDMA1999999096561MD1710061+9999OA149900461REMSYN088AAXX  14194 06650 33/// /1802 10070 20044 39656 40203 57006 333 55300 20000 91109 91206;
0140066500999992011011420004+47033+008300FM-12+045699999V0201801N000519999999N9999999N1+00521+00431102101ADDMA1999999096591MD1510011+9999OA149900461REMSYN088AAXX  14204 06650 33/// /1801 10052 20043 39659 40210 55001 333 55300 20000 91109 91206;
0140066500999992011011421004+47033+008300FM-12+045699999V0202801N000519999999N9999999N1+00461+00391102181ADDMA1999999096661MD1210081+9999OA149900461REMSYN088AAXX  14214 06650 33/// /2801 10046 20039 39666 40218 52008 333 55300 20000 91109 91206;
0140066500999992011011422004+47033+008300FM-12+045699999V0200101N000519999999N9999999N1+00401+00341102291ADDMA1999999096751MD1310191+9999OA149900211REMSYN088AAXX  14224 06650 33/// /0101 10040 20034 39675 40229 53019 333 55300 20000 91104 91202;
0140066500999992011011423004+47033+008300FM-12+045699999V0202301N001019999999N9999999N1+00351+00291102381ADDMA1999999096821MD1210231+9999OA149900261REMSYN088AAXX  14234 06650 33/// /2302 10035 20029 39682 40238 52023 333 55300 20000 91105 91202;
0140066500999992011011500004+47033+008300FM-12+045699999V0202401N003119999999N9999999N1+00511+00391102371ADDMA1999999096851MD1210191+9999OA149901131REMSYN088AAXX  15004 06650 33/// /2406 10051 20039 39685 40237 52019 333 55300 20000 91122 91206;
0140066500999992011011501004+47033+008300FM-12+045699999V0202601N002619999999N9999999N1+00791+00391102341ADDMA1999999096871MD1210121+9999OA149901181REMSYN088AAXX  15014 06650 33/// /2605 10079 20039 39687 40234 52012 333 55300 20000 91123 91211;
0146066500999992011011502004+47033+008300FM-12+045699999V0202501N001519999999N9999999N1+00831+00511102481ADDMA1999999097011MD1219999+9999OA149901241REMSYN094AAXX  15024 06650 23/// /2503 10083 20051 39701 40248 52/// 333 55300 20000 60015 91124 91211;
0109066500999992011011503004+47033+008300FM-12+045699999V0209999C000019999999N9999999N1+00641+00551102581ADDMA1999999097071REMSYN082AAXX  15034 06650 23/// /0000 10064 20055 39707 40258 5//// 333 553// 20000 69995;
0146066500999992011011504004+47033+008300FM-12+045699999V0203201N001019999999N9999999N1+00761+00591102641ADDMA1999999097151MD1210281+9999OA149900411REMSYN094AAXX  15044 06650 23/// /3202 10076 20059 39715 40264 52028 333 55300 20000 69935 91108 91204;
0140066500999992011011505004+47033+008300FM-12+045699999V0209999C000019999999N9999999N1+00651+00571102771ADDMA1999999097251MD1210241+9999OA149900261REMSYN088AAXX  15054 06650 33/// /0000 10065 20057 39725 40277 52024 333 55300 20000 91105 91203;
0230066500999992011011506004+47033+008300FM-12+045699999V0203101N001019999999N9999999N1+00661+00571102851ADDAA112003091AL11200391GJ100009IA2999+00009KA1999N+00281MA1999999097331MD1210261+9999OA149901241REMSYN124AAXX  15064 06650 03/// /3102 10066 20057 39733 40285 52026 60032 333 20028 3/100 55000 55300 20000 69975 70032 91124 91211;
0140066500999992011011507004+47033+008300FM-12+045699999V0202501N000519999999N9999999N1+00601+00561102921ADDMA1999999097381MD1210231+9999OA149900411REMSYN088AAXX  15074 06650 33/// /2501 10060 20056 39738 40292 52023 333 55300 20000 91108 91205;
0140066500999992011011508004+47033+008300FM-12+045699999V0202201N000519999999N9999999N1+00551+00501102931ADDMA1999999097381MD1219999+9999OA149900411REMSYN088AAXX  15084 06650 33/// /2201 10055 20050 39738 40293 52/// 333 55301 20054 91108 91205;
0140066500999992011011509004+47033+008300FM-12+045699999V0202201N001019999999N9999999N1+00741+00541102941ADDMA1999999097431MD1210101+9999OA149900411REMSYN088AAXX  15094 06650 33/// /2202 10074 20054 39743 40294 52010 333 55307 20540 91108 91205;
0140066500999992011011510004+47033+008300FM-12+045699999V0201801N001019999999N9999999N1+00881+00611102931ADDMA1999999097451MD1210071+9999OA149900211REMSYN088AAXX  15104 06650 33/// /1802 10088 20061 39745 40293 52007 333 55302 20601 91104 91203;
0140066500999992011011511004+47033+008300FM-12+045699999V0201701N002619999999N9999999N1+00931+00611102861ADDMA1999999097391MD1010011+9999OA149900361REMSYN088AAXX  15114 06650 33/// /1705 10093 20061 39739 40286 50001 333 55309 2//// 91107 91205;
0140066500999992011011512004+47033+008300FM-12+045699999V0201601N001519999999N9999999N1+00971+00581102801ADDMA1999999097341MD1710091+9999OA149901241REMSYN088AAXX  15124 06650 33/// /1603 10097 20058 39734 40280 57009 333 55306 20983 91124 91211;
0103066500999992011011513004+47033+008300FM-12+045699999V0201701N001519999999N9999999N1+00951+00541102791ADDMA1999999097331REMSYN076AAXX  15134 06650 33/// /1703 10095 20054 39733 40279 5//// 333 553// 20868;
0087066500999992011011514004+47033+008300FM-12+045699999V0202201N000519999999N9999999N1+00951+00541102831ADDMA1999999097371REMSYN060AAXX  15144 06650 43/// /2201 10095 20054 39737 40283 5////;
0087066500999992011011515004+47033+008300FM-12+045699999V0202101N001019999999N9999999N1+00891+00461102861ADDMA1999999097381REMSYN060AAXX  15154 06650 43/// /2102 10089 20046 39738 40286 5////;
0087066500999992011011516004+47033+008300FM-12+045699999V0202401N000519999999N9999999N1+00681+00531102921ADDMA1999999097401REMSYN060AAXX  15164 06650 43/// /2401 10068 20053 39740 40292 5////;
0103066500999992011011517004+47033+008300FM-12+045699999V0202301N001019999999N9999999N1+00631+00441102941ADDMA1999999097411REMSYN076AAXX  15174 06650 33/// /2302 10063 20044 39741 40294 5//// 333 553// 20004;
0110066500999992011011518004+47033+008300FM-12+045699999V0202501N002119999999N9999999N1+00411+00321102981ADDKA1999M+00971MA1999999097401REMSYN070AAXX  15184 06650 43/// /2504 10041 20032 39740 40298 5//// 333 10097;
0087066500999992011011519004+47033+008300FM-12+045699999V0202901N001019999999N9999999N1+00411+00301103021ADDMA1999999097441REMSYN060AAXX  15194 06650 43/// /2902 10041 20030 39744 40302 5////;
0087066500999992011011520004+47033+008300FM-12+045699999V0202601N000519999999N9999999N1+00321+00241103051ADDMA1999999097451REMSYN060AAXX  15204 06650 43/// /2601 10032 20024 39745 40305 5////;
0140066500999992011011521004+47033+008300FM-12+045699999V0200301N001519999999N9999999N1+00331+00221103031ADDMA1999999097431MD1010031+9999OA149900361REMSYN088AAXX  15214 06650 33/// /0303 10033 20022 39743 40303 50003 333 55300 20000 91107 91205;
0140066500999992011011522004+47033+008300FM-12+045699999V0202701N001519999999N9999999N1+00231+00181103071ADDMA1999999097451MD1510011+9999OA149900361REMSYN088AAXX  15224 06650 33/// /2703 10023 20018 39745 40307 55001 333 55300 20000 91107 91204;
0140066500999992011011523004+47033+008300FM-12+045699999V0202401N000519999999N9999999N1+00251+00161103051ADDMA1999999097441MD1010011+9999OA149900261REMSYN088AAXX  15234 06650 33/// /2401 10025 20016 39744 40305 50001 333 55300 20000 91105 91203;
0140066500999992011011600004+47033+008300FM-12+045699999V0202701N001019999999N9999999N1+00201+00131103011ADDMA1999999097391MD1810041+9999OA149900361REMSYN088AAXX  16004 06650 33/// /2702 10020 20013 39739 40301 58004 333 55300 20000 91107 91205;
0140066500999992011011601004+47033+008300FM-12+045699999V0203601N001019999999N9999999N1+00191+00131102961ADDMA1999999097341MD1810111+9999OA149900261REMSYN088AAXX  16014 06650 33/// /3602 10019 20013 39734 40296 58011 333 55300 20000 91105 91203;
0140066500999992011011602004+47033+008300FM-12+045699999V0202601N000519999999N9999999N1+00131+00091103001ADDMA1999999097361MD1519999+9999OA149900261REMSYN088AAXX  16024 06650 33/// /2601 10013 20009 39736 40300 55/// 333 55300 20000 91105 91203;
0087066500999992011011603004+47033+008300FM-12+045699999V0209999C000019999999N9999999N1+00061+00021103001ADDMA1999999097351REMSYN060AAXX  16034 06650 43/// /0000 10006 20002 39735 40300 5////;
0140066500999992011011604004+47033+008300FM-12+045699999V0209999C000019999999N9999999N1+00071+00051103001ADDMA1999999097351MD1010011+9999OA149900151REMSYN088AAXX  16044 06650 33/// /0000 10007 20005 39735 40300 50001 333 55300 20000 91103 91203;
0140066500999992011011605004+47033+008300FM-12+045699999V0200301N001019999999N9999999N1+00031-00041103001ADDMA1999999097341MD1710021+9999OA149900151REMSYN088AAXX  16054 06650 33/// /0302 10003 21004 39734 40300 57002 333 55300 20000 91103 91203;
0207066500999992011011606004+47033+008300FM-12+045699999V0200101N001519999999N9999999N1+00081-00011103031ADDAL10600091GJ102109IA2999-00409KA1999N+00021MA1999999097381MD1310031+9999OA149900361REMSYN112AAXX  16064 06650 33/// /0103 10008 21001 39738 40303 53003 333 20002 3/104 55035 55300 20000 70001 91107 91204;
0140066500999992011011607004+47033+008300FM-12+045699999V0202601N000519999999N9999999N1+00051-00041103091ADDMA1999999097431MD1210081+9999OA149900211REMSYN088AAXX  16074 06650 33/// /2601 10005 21004 39743 40309 52008 333 55300 20000 91104 91203;
0140066500999992011011608004+47033+008300FM-12+045699999V0202601N000519999999N9999999N1+00001-00071103171ADDMA1999999097501MD1319999+9999OA149900211REMSYN088AAXX  16084 06650 33/// /2601 10000 21007 39750 40317 53/// 333 55303 20083 91104 91203;
0140066500999992011011609004+47033+008300FM-12+045699999V0202301N000519999999N9999999N1+00251+00081103101ADDMA1999999097481MD1210101+9999OA149900211REMSYN088AAXX  16094 06650 33/// /2301 10025 20008 39748 40310 52010 333 553// 20522 91104 91203;
0140066500999992011011610004+47033+008300FM-12+045699999V0201701N003119999999N9999999N1+00481+00151103041ADDMA1999999097471MD1010041+9999OA149900411REMSYN088AAXX  16104 06650 33/// /1706 10048 20015 39747 40304 50004 333 553// 20961 91108 91206;
0140066500999992011011611004+47033+008300FM-12+045699999V0201801N001019999999N9999999N1+00601+00101102961ADDMA1999999097421MD1710081+9999OA149900411REMSYN088AAXX  16114 06650 33/// /1802 10060 20010 39742 40296 57008 333 553// 2//// 91108 91206;
0140066500999992011011612004+47033+008300FM-12+045699999V0201601N000519999999N9999999N1+00731+00171102881ADDMA1999999097371MD1710111+9999OA149900411REMSYN088AAXX  16124 06650 33/// /1601 10073 20017 39737 40288 57011 333 553// 2//// 91108 91206;
0140066500999992011011613004+47033+008300FM-12+045699999V0201801N001019999999N9999999N1+00841+00201102781ADDMA1999999097301MD1810171+9999OA149900261REMSYN088AAXX  16134 06650 33/// /1802 10084 20020 39730 40278 58017 333 553// 2//// 91105 91202;
0140066500999992011011614004+47033+008300FM-12+045699999V0209999C000019999999N9999999N1+00891+00191102751ADDMA1999999097281MD1619999+9999OA149900261REMSYN088AAXX  16144 06650 33/// /0000 10089 20019 39728 40275 56/// 333 553// 2//// 91105 91202;
0140066500999992011011615004+47033+008300FM-12+045699999V0201901N001019999999N9999999N1+00701+00171102781ADDMA1999999097271MD1710101+9999OA149900411REMSYN088AAXX  16154 06650 33/// /1902 10070 20017 39727 40278 57010 333 55309 20605 91108 91206;
0140066500999992011011616004+47033+008300FM-12+045699999V0202401N001019999999N9999999N1+00501+00281102801ADDMA1999999097251MD1710051+9999OA149900211REMSYN088AAXX  16164 06650 33/// /2402 10050 20028 39725 40280 57005 333 55300 20054 91104 91203;
0140066500999992011011617004+47033+008300FM-12+045699999V0202501N000519999999N9999999N1+00341+00181102891ADDMA1999999097301MD1310021+9999OA149900151REMSYN088AAXX  16174 06650 33/// /2501 10034 20018 39730 40289 53002 333 55300 20004 91103 91202;
0159066500999992011011618004+47033+008300FM-12+045699999V0202601N000519999999N9999999N1+00311+00161102901ADDKA1120M+00911MA1999999097311MD1210041+9999OA149900411REMSYN094AAXX  16184 06650 33/// /2601 10031 20016 39731 40290 52004 333 10091 55300 20000 91108 91206;
0140066500999992011011619004+47033+008300FM-12+045699999V0200101N000519999999N9999999N1+00251+00121102931ADDMA1999999097321MD1210071+9999OA149900211REMSYN088AAXX  16194 06650 33/// /0101 10025 20012 39732 40293 52007 333 55300 20000 91104 91202;
0140066500999992011011620004+47033+008300FM-12+045699999V0202701N000519999999N9999999N1+00151+00041102981ADDMA1999999097351MD1310051+9999OA149900151REMSYN088AAXX  16204 06650 33/// /2701 10015 20004 39735 40298 53005 333 55300 20000 91103 91202;
0140066500999992011011621004+47033+008300FM-12+045699999V0202601N000519999999N9999999N1+00151+00051102991ADDMA1999999097361MD1210051+9999OA149900211REMSYN088AAXX  16214 06650 33/// /2601 10015 20005 39736 40299 52005 333 55300 20000 91104 91203;
0140066500999992011011622004+47033+008300FM-12+045699999V0202601N001019999999N9999999N1+00071+00011103021ADDMA1999999097371MD1110051+9999OA149900211REMSYN088AAXX  16224 06650 33/// /2602 10007 20001 39737 40302 51005 333 55300 20000 91104 91203;
0140066500999992011011623004+47033+008300FM-12+045699999V0202501N000519999999N9999999N1+00021-00051103041ADDMA1999999097381MD1310031+9999OA149900211REMSYN088AAXX  16234 06650 33/// /2501 10002 21005 39738 40304 53003 333 55300 20000 91104 91202;
0140066500999992011011700004+47033+008300FM-12+045699999V0201801N000519999999N9999999N1+00021-00031103031ADDMA1999999097371MD1010011+9999OA149900261REMSYN088AAXX  17004 06650 33/// /1801 10002 21003 39737 40303 50001 333 55300 20000 91105 91203;
0140066500999992011011701004+47033+008300FM-12+045699999V0200201N000519999999N9999999N1+00011-00051103011ADDMA1999999097351MD1810021+9999OA149900151REMSYN088AAXX  17014 06650 33/// /0201 10001 21005 39735 40301 58002 333 55300 20000 91103 91202;
0140066500999992011011702004+47033+008300FM-12+045699999V0200301N001019999999N9999999N1+00011-00061103001ADDMA1999999097341MD1719999+9999OA149900101REMSYN088AAXX  17024 06650 33/// /0302 10001 21006 39734 40300 57/// 333 55300 20000 91102 91202;
0103066500999992011011703004+47033+008300FM-12+045699999V0202501N000519999999N9999999N1-00091-00121103011ADDMA1999999097331REMSYN076AAXX  17034 06650 33/// /2501 11009 21012 39733 40301 5//// 333 553// 20000;
0140066500999992011011704004+47033+008300FM-12+045699999V0200101N000519999999N9999999N1-00101-00121102991ADDMA1999999097311MD1810041+9999OA149900101REMSYN088AAXX  17044 06650 33/// /0101 11010 21012 39731 40299 58004 333 55300 20000 91102 91201;
0140066500999992011011705004+47033+008300FM-12+045699999V0200401N000519999999N9999999N1-00041-00081102941ADDMA1999999097271MD1810071+9999OA149900101REMSYN088AAXX  17054 06650 33/// /0401 11004 21008 39727 40294 58007 333 55300 20000 91102 91201;
0207066500999992011011706004+47033+008300FM-12+045699999V0209999C000019999999N9999999N1-00111-00141102931ADDAL19900091GJ104269IA2999-00509KA1999N-00161MA1999999097251MD1610081+9999OA149900211REMSYN112AAXX  17064 06650 33/// /0000 11011 21014 39725 40293 56008 333 21016 3/105 55071 55300 20000 70000 91104 91203;
0140066500999992011011707004+47033+008300FM-12+045699999V0209999C000519999999N9999999N1-00061-00101102911ADDMA1999999097241MD1610071+9999OA149900101REMSYN088AAXX  17074 06650 33/// /0001 11006 21010 39724 40291 56007 333 55300 20000 91102 91201;
0087066500999992011011708004+47033+008300FM-12+045699999V0200501N000519999999N9999999N1-00021-00071102901ADDMA1999999097241REMSYN060AAXX  17084 06650 43/// /0501 11002 21007 39724 40290 5////;
0087066500999992011011709004+47033+008300FM-12+045699999V0200501N001019999999N9999999N1+00221-00041102831ADDMA1999999097221REMSYN060AAXX  17094 06650 43/// /0502 10022 21004 39722 40283 5////;
0140066500999992011011710004+47033+008300FM-12+045699999V0200501N000519999999N9999999N1+00381+00031102831ADDMA1999999097251MD1310011+9999OA149900211REMSYN088AAXX  17104 06650 33/// /0501 10038 20003 39725 40283 53001 333 553// 20936 91104 91203;
0140066500999992011011711004+47033+008300FM-12+045699999V0201101N000519999999N9999999N1+00521+00021102811ADDMA1999999097261MD1310021+9999OA149900211REMSYN088AAXX  17114 06650 33/// /1101 10052 20002 39726 40281 53002 333 553// 2//// 91104 91203;
0140066500999992011011712004+47033+008300FM-12+045699999V0202001N000519999999N9999999N1+00701+00251102751ADDMA1999999097241MD1010021+9999OA149900261REMSYN088AAXX  17124 06650 33/// /2001 10070 20025 39724 40275 50002 333 553// 2//// 91105 91203;
0140066500999992011011713004+47033+008300FM-12+045699999V0202401N000519999999N9999999N1+00791+00141102711ADDMA1999999097221MD1810031+9999OA149900261REMSYN088AAXX  17134 06650 33/// /2401 10079 20014 39722 40271 58003 333 553// 2//// 91105 91203;
0087066500999992011011714004+47033+008300FM-12+045699999V0201801N001519999999N9999999N1+00811+00161102701ADDMA1999999097221REMSYN060AAXX  17144 06650 43/// /1803 10081 20016 39722 40270 5////;
0087066500999992011011715004+47033+008300FM-12+045699999V0202001N001019999999N9999999N1+00741+00101102741ADDMA1999999097241REMSYN060AAXX  17154 06650 43/// /2002 10074 20010 39724 40274 5////;
0140066500999992011011716004+47033+008300FM-12+045699999V0202201N000519999999N9999999N1+00481+00191102841ADDMA1999999097281MD1210061+9999OA149900211REMSYN088AAXX  17164 06650 33/// /2201 10048 20019 39728 40284 52006 333 55300 20058 91104 91203;
0140066500999992011011717004+47033+008300FM-12+045699999V0202501N000519999999N9999999N1+00341+00131102911ADDMA1999999097321MD1310101+9999OA149900151REMSYN088AAXX  17174 06650 33/// /2501 10034 20013 39732 40291 53010 333 55300 20004 91103 91202;
0159066500999992011011718004+47033+008300FM-12+045699999V0202601N000519999999N9999999N1+00271+00111102951ADDKA1120M+00871MA1999999097351MD1110111+9999OA149900261REMSYN094AAXX  17184 06650 33/// /2601 10027 20011 39735 40295 51011 333 10087 55300 20000 91105 91204;
0140066500999992011011719004+47033+008300FM-12+045699999V0202501N001019999999N9999999N1+00191+00061102981ADDMA1999999097361MD1110081+9999OA149900261REMSYN088AAXX  17194 06650 33/// /2502 10019 20006 39736 40298 51008 333 55300 20000 91105 91203;
0140066500999992011011720004+47033+008300FM-12+045699999V0209999C001519999999N9999999N1+00161+00051103001ADDMA1999999097371MD1210051+9999OA149900211REMSYN088AAXX  17204 06650 33/// /0003 10016 20005 39737 40300 52005 333 55300 20000 91104 91203;
0140066500999992011011721004+47033+008300FM-12+045699999V0202401N000519999999N9999999N1+00121+00041103021ADDMA1999999097381MD1210031+9999OA149900261REMSYN088AAXX  17214 06650 33/// /2401 10012 20004 39738 40302 52003 333 55300 20000 91105 91203;
0140066500999992011011722004+47033+008300FM-12+045699999V0202401N001019999999N9999999N1+00161+00051102991ADDMA1999999097361MD1010001+9999OA149900211REMSYN088AAXX  17224 06650 33/// /2402 10016 20005 39736 40299 50000 333 55300 20000 91104 91203;
0140066500999992011011723004+47033+008300FM-12+045699999V0203601N000519999999N9999999N1+00181+00051102991ADDMA1999999097371MD1010001+9999OA149900261REMSYN088AAXX  17234 06650 33/// /3601 10018 20005 39737 40299 50000 333 55300 20000 91105 91204;
0140066500999992011011800004+47033+008300FM-12+045699999V0202401N000519999999N9999999N1+00081+00001103011ADDMA1999999097361MD1710021+9999OA149900261REMSYN088AAXX  18004 06650 33/// /2401 10008 20000 39736 40301 57002 333 55300 20000 91105 91204;
0140066500999992011011801004+47033+008300FM-12+045699999V0200201N001019999999N9999999N1+00081-00011103011ADDMA1999999097361MD1019999+9999OA149900151REMSYN088AAXX  18014 06650 33/// /0202 10008 21001 39736 40301 50/// 333 55300 20000 91103 91202;
0087066500999992011011802004+47033+008300FM-12+045699999V0201101N000519999999N9999999N1+00091-00011103021ADDMA1999999097381REMSYN060AAXX  18024 06650 43/// /1101 10009 21001 39738 40302 5////;
0087066500999992011011803004+47033+008300FM-12+045699999V0202601N001019999999N9999999N1+00011-00061102991ADDMA1999999097331REMSYN060AAXX  18034 06650 43/// /2602 10001 21006 39733 40299 5////;
0103066500999992011011804004+47033+008300FM-12+045699999V0203301N000519999999N9999999N1-00021-00061102961ADDMA1999999097301REMSYN076AAXX  18044 06650 33/// /3301 11002 21006 39730 40296 5//// 333 553// 20000;
0140066500999992011011805004+47033+008300FM-12+045699999V0202601N000519999999N9999999N1-00081-00111102921ADDMA1999999097251MD1610131+9999OA149900261REMSYN088AAXX  18054 06650 33/// /2601 11008 21011 39725 40292 56013 333 55300 20000 91105 91203;
0207066500999992011011806004+47033+008300FM-12+045699999V0200801N000519999999N9999999N1-00071-00111102981ADDAL19900091GJ104329IA2999-00409KA1999N-00101MA1999999097301MD1510031+9999OA149900261REMSYN112AAXX  18064 06650 33/// /0801 11007 21011 39730 40298 55003 333 21010 3/104 55072 55300 20000 70000 91105 91204;
0140066500999992011011807004+47033+008300FM-12+045699999V0209999C000019999999N9999999N1+00001-00071103001ADDMA1999999097341MD1310041+9999OA149900151REMSYN088AAXX  18074 06650 33/// /0000 10000 21007 39734 40300 53004 333 55300 20004 91103 91202;
0087066500999992011011808004+47033+008300FM-12+045699999V0201901N001019999999N9999999N1+00101+00001103011ADDMA1999999097371REMSYN060AAXX  18084 06650 43/// /1902 10010 20000 39737 40301 5////;
0087066500999992011011809004+47033+008300FM-12+045699999V0202401N000519999999N9999999N1+00191+00061102951ADDMA1999999097331REMSYN060AAXX  18094 06650 43/// /2401 10019 20006 39733 40295 5////;
0140066500999992011011810004+47033+008300FM-12+045699999V0202001N001019999999N9999999N1+00431+00081102861ADDMA1999999097291MD1810051+9999OA149900261REMSYN088AAXX  18104 06650 33/// /2002 10043 20008 39729 40286 58005 333 55301 20641 91105 91202;
0140066500999992011011811004+47033+008300FM-12+045699999V0201001N000519999999N9999999N1+00521+00111102761ADDMA1999999097221MD1610151+9999OA149900261REMSYN088AAXX  18114 06650 33/// /1001 10052 20011 39722 40276 56015 333 55300 20608 91105 91203;
0140066500999992011011812004+47033+008300FM-12+045699999V0200401N001019999999N9999999N1+00691+00131102671ADDMA1999999097161MD1819999+9999OA149900361REMSYN088AAXX  18124 06650 33/// /0402 10069 20013 39716 40267 58/// 333 55303 20990 91107 91204;
0103066500999992011011813004+47033+008300FM-12+045699999V0201601N001019999999N9999999N1+00761+00251102601ADDMA1999999097111REMSYN076AAXX  18134 06650 33/// /1602 10076 20025 39711 40260 5//// 333 553// 20724;
0087066500999992011011814004+47033+008300FM-12+045699999V0202201N000519999999N9999999N1+00711+00191102591ADDMA1999999097091REMSYN060AAXX  18144 06650 43/// /2201 10071 20019 39709 40259 5////;
0087066500999992011011815004+47033+008300FM-12+045699999V0203601N002119999999N9999999N1+00691+00291102621ADDMA1999999097121REMSYN060AAXX  18154 06650 43/// /3604 10069 20029 39712 40262 5////;
0140066500999992011011816004+47033+008300FM-12+045699999V0200701N000519999999N9999999N1+00651+00301102671ADDMA1999999097161MD1310051+9999OA149900311REMSYN088AAXX  18164 06650 33/// /0701 10065 20030 39716 40267 53005 333 55300 20050 91106 91204;
0140066500999992011011817004+47033+008300FM-12+045699999V0203501N001019999999N9999999N1+00651+00311102691ADDMA1999999097181MD1310091+9999OA149900261REMSYN088AAXX  18174 06650 33/// /3502 10065 20031 39718 40269 53009 333 55300 20004 91105 91204;
0159066500999992011011818004+47033+008300FM-12+045699999V0203501N001019999999N9999999N1+00601+00281102741ADDKA1120M+00781MA1999999097211MD1310091+9999OA149900461REMSYN094AAXX  18184 06650 33/// /3502 10060 20028 39721 40274 53009 333 10078 55300 20000 91109 91207;
0140066500999992011011819004+47033+008300FM-12+045699999V0200401N001019999999N9999999N1+00571+00281102751ADDMA1999999097221MD1210061+9999OA149900211REMSYN088AAXX  18194 06650 33/// /0402 10057 20028 39722 40275 52006 333 55300 20000 91104 91203;
0140066500999992011011820004+47033+008300FM-12+045699999V0201601N001519999999N9999999N1+00411+00301102791ADDMA1999999097221MD1210041+9999OA149900211REMSYN088AAXX  18204 06650 33/// /1603 10041 20030 39722 40279 52004 333 55300 20000 91104 91203;
0140066500999992011011821004+47033+008300FM-12+045699999V0202001N000519999999N9999999N1+00421+00301102791ADDMA1999999097221MD1010011+9999OA149900261REMSYN088AAXX  18214 06650 33/// /2001 10042 20030 39722 40279 50001 333 55300 20000 91105 91204;
0140066500999992011011822004+47033+008300FM-12+045699999V0200401N000519999999N9999999N1+00491+00301102771ADDMA1999999097221MD1210021+9999OA149900151REMSYN088AAXX  18224 06650 33/// /0401 10049 20030 39722 40277 52000 333 55300 20000 91103 91202;
0140066500999992011011823004+47033+008300FM-12+045699999V0201701N000519999999N9999999N1+00451+00261102791ADDMA1999999097231MD1210011+9999OA149900151REMSYN088AAXX  18234 06650 33/// /1701 10045 20026 39723 40279 52001 333 55300 20000 91103 91202;
