0137066550999992010010100004+46817+008417FM-12+103599999V0200901N000519999999N9999999N1-00071-00201999999ADDMA1999999087451MD1610131+9999ME1312649OA149900571REMSYN076AAXX  01004 06655 33/// /0901 11007 21020 38745 48264 56013 333 91111 91207;
0137066550999992010010101004+46817+008417FM-12+103599999V0201001N001519999999N9999999N1-00101-00241999999ADDMA1999999087431MD1610101+9999ME1312629OA149900211REMSYN076AAXX  01014 06655 33/// /1003 11010 21024 38743 48262 56010 333 91104 91203;
0137066550999992010010102004+46817+008417FM-12+103599999V0201101N001519999999N9999999N1-00021-00241999999ADDMA1999999087401MD1619999+9999ME1312609OA149900211REMSYN076AAXX  01024 06655 33/// /1103 11002 21024 38740 48260 56/// 333 91104 91203;
0096066550999992010010103004+46817+008417FM-12+103599999V0200701N000519999999N9999999N1-00131-00241999999ADDMA1999999087341ME1312539REMSYN060AAXX  01034 06655 43/// /0701 11013 21024 38734 48253 5////;
0096066550999992010010104004+46817+008417FM-12+103599999V0201101N001519999999N9999999N1-00011-00231999999ADDMA1999999087291ME1312509REMSYN060AAXX  01044 06655 33/// /1103 11001 21023 38729 48250 5////;
0137066550999992010010105004+46817+008417FM-12+103599999V0201001N000519999999N9999999N1-00111-00251999999ADDMA1999999087271MD1610131+9999ME1312479OA149900211REMSYN076AAXX  01054 06655 33/// /1001 11011 21025 38727 48247 56013 333 91104 91203;
0215066550999992010010106004+46817+008417FM-12+103599999V0209999C000019999999N9999999N1-00081-00211999999ADDAA124002891AL14800291GJ100009IA2999-00309KA1999N-00141MA1999999087231MD1610111+9999ME1312449OA149900261REMSYN100AAXX  01064 06655 33/// /0000 11008 21021 38723 48244 56011 333 21014 3/103 55000 70028 91105 91203;
0137066550999992010010107004+46817+008417FM-12+103599999V0201101N001019999999N9999999N1+00001-00211999999ADDMA1999999087221MD1710071+9999ME1312439OA149900211REMSYN076AAXX  01074 06655 33/// /1102 10000 21021 38722 48243 57007 333 91104 91203;
0137066550999992010010108004+46817+008417FM-12+103599999V0201001N000519999999N9999999N1+00031-00181999999ADDMA1999999087261MD1510011+9999ME1312479OA149900151REMSYN076AAXX  01084 06655 33/// /1001 10003 21018 38726 48247 55001 333 91103 91202;
0137066550999992010010109004+46817+008417FM-12+103599999V0201101N001519999999N9999999N1+00061-00161999999ADDMA1999999087291MD1210061+9999ME1312509OA149900211REMSYN076AAXX  01094 06655 33/// /1103 10006 21016 38729 48250 52006 333 91104 91204;
0137066550999992010010110004+46817+008417FM-12+103599999V0209999C000019999999N9999999N1+00081-00071999999ADDMA1999999087321MD1110101+9999ME1312539OA149900211REMSYN076AAXX  01104 06655 33/// /0000 10008 21007 38732 48253 51010 333 91104 91204;
0137066550999992010010111004+46817+008417FM-12+103599999V0201101N000519999999N9999999N1+00201-00061999999ADDMA1999999087331MD1210071+9999ME1312559OA149900101REMSYN076AAXX  01114 06655 33/// /1101 10020 21006 38733 48255 52007 333 91102 91201;
0137066550999992010010112004+46817+008417FM-12+103599999V0202401N001019999999N9999999N1+00141+00021999999ADDMA1999999087371MD1210081+9999ME1312589OA149900311REMSYN076AAXX  01124 06655 33/// /2402 10014 20002 38737 48258 52008 333 91106 91204;
0137066550999992010010113004+46817+008417FM-12+103599999V0202501N000519999999N9999999N1+00201+00011999999ADDMA1999999087401MD1210081+9999ME1312619OA149900311REMSYN076AAXX  01134 06655 33/// /2501 10020 20001 38740 48261 52008 333 91106 91203;
0137066550999992010010114004+46817+008417FM-12+103599999V0202201N001519999999N9999999N1+00161+00041999999ADDMA1999999087471MD1319999+9999ME1312689OA149900261REMSYN076AAXX  01144 06655 33/// /2203 10016 20004 38747 48268 53/// 333 91105 91203;
0154066550999992010010115004+46817+008417FM-12+103599999V0209999C000019999999N9999999N1+00151+00041999999ADDAA101000021MA1999999087551MD1310181+9999ME1312759OA149900311REMSYN082AAXX  01154 06655 23/// /0000 10015 20004 38755 48275 53018 333 69925 91106 91203;
0154066550999992010010116004+46817+008417FM-12+103599999V0202101N000519999999N9999999N1+00081+00071999999ADDAA101000021MA1999999087621MD1210221+9999ME1312819OA149900261REMSYN082AAXX  01164 06655 23/// /2101 10008 20007 38762 48281 52022 333 69925 91105 91203;
0154066550999992010010117004+46817+008417FM-12+103599999V0202401N003119999999N9999999N1+00031-00021999999ADDAA101001091MA1999999087741MD1310271+9999ME1312919OA149900571REMSYN082AAXX  01174 06655 23/// /2406 10003 21002 38774 48291 53027 333 60015 91111 91206;
0179066550999992010010118004+46817+008417FM-12+103599999V0202601N002619999999N9999999N1+00001-00071999999ADDAA112003091KA1120M+00231MA1999999087941MD1310391+9999ME1313099OA149900771REMSYN094AAXX  01184 06655 03/// /2605 10000 21007 38794 48309 53039 60032 333 10023 60015 91115 91210;
0154066550999992010010119004+46817+008417FM-12+103599999V0202201N001019999999N9999999N1-00061-00071999999ADDAA101002091MA1999999088081MD1210461+9999ME1313219OA149900771REMSYN082AAXX  01194 06655 23/// /2202 11006 21007 38808 48321 52046 333 60025 91115 91210;
0154066550999992010010120004+46817+008417FM-12+103599999V0202701N000519999999N9999999N1-00051-00071999999ADDAA101000891MA1999999088181MD1110441+9999ME1313309OA149900411REMSYN082AAXX  01204 06655 23/// /2701 11005 21007 38818 48330 51044 333 69985 91108 91205;
0154066550999992010010121004+46817+008417FM-12+103599999V0202401N001019999999N9999999N1-00061-00131999999ADDAA101000591MA1999999088271MD1110331+9999ME1313389OA149900771REMSYN082AAXX  01214 06655 23/// /2402 11006 21013 38827 48338 51033 333 69945 91115 91210;
0154066550999992010010122004+46817+008417FM-12+103599999V0203001N001019999999N9999999N1-00131-00161999999ADDAA101000021MA1999999088351MD1210271+9999ME1313449OA149900261REMSYN082AAXX  01224 06655 23/// /3002 11013 21016 38835 48344 52027 333 69925 91105 91203;
0154066550999992010010123004+46817+008417FM-12+103599999V0203201N000519999999N9999999N1-00131-00251999999ADDAA101000021MA1999999088421MD1110241+9999ME1313519OA149900261REMSYN082AAXX  01234 06655 23/// /3201 11013 21025 38842 48351 51024 333 69915 91105 91202;
0160066550999992010010200004+46817+008417FM-12+103599999V0202301N001019999999N9999999N1-00151-00251999999ADDAA106003091MA1999999088461MD1210191+9999ME1313549OA149900771REMSYN088AAXX  02004 06655 03/// /2302 11015 21025 38846 48354 52019 60031 333 69915 91115 91210;
0154066550999992010010201004+46817+008417FM-12+103599999V0202301N003619999999N9999999N1-00251-00361999999ADDAA101000391MA1999999088541MD1310191+9999ME1313609OA149900621REMSYN082AAXX  02014 06655 23/// /2307 11025 21036 38854 48360 53019 333 69935 91112 91207;
0117066550999992010010202004+46817+008417FM-12+103599999V0202201N003119999999N9999999N1-00311-00451999999ADDAA101000021MA1999999088691ME1313729REMSYN070AAXX  02024 06655 23/// /2206 11031 21045 38869 48372 5//// 333 69915;
0154066550999992010010203004+46817+008417FM-12+103599999V0202101N002619999999N9999999N1-00441-00501999999ADDAA101000021MA1999999088781MD1210321+9999ME1313799OA149900671REMSYN082AAXX  02034 06655 23/// /2105 11044 21050 38878 48379 52032 333 69915 91113 91207;
0154066550999992010010204004+46817+008417FM-12+103599999V0202601N002119999999N9999999N1-00351-00731999999ADDAA101000021MA1999999088861MD1110321+9999ME1313879OA149900721REMSYN082AAXX  02044 06655 23/// /2604 11035 21073 38886 48387 51032 333 69915 91114 91206;
0154066550999992010010205004+46817+008417FM-12+103599999V0202201N002619999999N9999999N1-00461-00601999999ADDAA101000021MA1999999088911MD1110221+9999ME1313909OA149900721REMSYN082AAXX  02054 06655 23/// /2205 11046 21060 38891 48390 51022 333 69915 91114 91206;
0238066550999992010010206004+46817+008417FM-12+103599999V0202601N002119999999N9999999N1-00481-00671999999ADDAA112004191AA224007491AL11800791GJ100009IA2999-00509KA1999N-00491MA1999999088991MD1210211+9999ME1313979OA149900721REMSYN112AAXX  02064 06655 03/// /2604 11048 21067 38899 48397 52021 60042 333 21049 3/105 55000 69915 70073 91114 91207;
0154066550999992010010207004+46817+008417FM-12+103599999V0202301N001519999999N9999999N1-00531-00671999999ADDAA101000021MA1999999089081MD1310221+9999ME1314049OA149900671REMSYN082AAXX  02074 06655 23/// /2303 11053 21067 38908 48404 53022 333 69915 91113 91204;
0117066550999992010010208004+46817+008417FM-12+103599999V0202501N002619999999N9999999N1-00491-00831999999ADDAA101000021MA1999999089151ME1314109REMSYN070AAXX  02084 06655 23/// /2505 11049 21083 38915 48410 5//// 333 69915;
0154066550999992010010209004+46817+008417FM-12+103599999V0202501N002119999999N9999999N1-00571-00741999999ADDAA101000021MA1999999089251MD1210261+9999ME1314189OA149900771REMSYN082AAXX  02094 06655 23/// /2504 11057 21074 38925 48418 52026 333 69915 91115 91207;
0154066550999992010010210004+46817+008417FM-12+103599999V0202301N003619999999N9999999N1-00611-00791999999ADDAA101000021MA1999999089361MD1310281+9999ME1314279OA149900771REMSYN082AAXX  02104 06655 23/// /2307 11061 21079 38936 48427 53028 333 69925 91115 91209;
0137066550999992010010211004+46817+008417FM-12+103599999V0202301N003119999999N9999999N1-00611-00901999999ADDMA1999999089411MD1110261+9999ME1314319OA149900721REMSYN076AAXX  02114 06655 33/// /2306 11061 21090 38941 48431 51026 333 91114 91209;
0160066550999992010010212004+46817+008417FM-12+103599999V0202301N003119999999N9999999N1-00611-00851999999ADDAA106000591MA1999999089481MD1110231+9999ME1314379OA149900771REMSYN088AAXX  02124 06655 03/// /2306 11061 21085 38948 48437 51023 69951 333 60005 91115 91209;
0137066550999992010010213004+46817+008417FM-12+103599999V0202301N003119999999N9999999N1-00591-00911999999ADDMA1999999089551MD1310191+9999ME1314449OA149900571REMSYN076AAXX  02134 06655 33/// /2306 11059 21091 38955 48444 53019 333 91111 91208;
0137066550999992010010214004+46817+008417FM-12+103599999V0202301N002119999999N9999999N1-00621-00941999999ADDMA1999999089631MD1319999+9999ME1314509OA149900511REMSYN076AAXX  02144 06655 33/// /2304 11062 21094 38963 48450 53/// 333 91110 91206;
0137066550999992010010215004+46817+008417FM-12+103599999V0202501N002119999999N9999999N1-00681-00881999999ADDMA1999999089701MD1210221+9999ME1314559OA149900721REMSYN076AAXX  02154 06655 33/// /2504 11068 21088 38970 48455 52022 333 91114 91209;
0137066550999992010010216004+46817+008417FM-12+103599999V0209999C000019999999N9999999N1-00811-01001999999ADDMA1999999089771MD1310221+9999ME1314599OA149900411REMSYN076AAXX  02164 06655 33/// /0000 11081 21100 38977 48459 53022 333 91108 91205;
0137066550999992010010217004+46817+008417FM-12+103599999V0209999C000019999999N9999999N1-00921-01111999999ADDMA1999999089821MD1110191+9999ME1314629OA149900211REMSYN076AAXX  02174 06655 33/// /0000 11092 21111 38982 48462 51019 333 91104 91202;
0179066550999992010010218004+46817+008417FM-12+103599999V0209999C000019999999N9999999N1-00961-01191999999ADDAA112000591KA1120M-00451MA1999999089891MD1210191+9999ME1314679OA149900771REMSYN094AAXX  02184 06655 03/// /0000 11096 21119 38989 48467 52019 69952 333 11045 60005 91115 91209;
0137066550999992010010219004+46817+008417FM-12+103599999V0203201N000519999999N9999999N1-01041-01211999999ADDMA1999999089911MD1110141+9999ME1314679OA149900151REMSYN076AAXX  02194 06655 33/// /3201 11104 21121 38991 48467 51014 333 91103 91201;
0137066550999992010010220004+46817+008417FM-12+103599999V0209999C000019999999N9999999N1-01081-01301999999ADDMA1999999089901MD1010081+9999ME1314669OA149900151REMSYN076AAXX  02204 06655 33/// /0000 11108 21130 38990 48466 50008 333 91103 91202;
0137066550999992010010221004+46817+008417FM-12+103599999V0200301N000519999999N9999999N1-01261-01511999999ADDMA1999999089901MD1410001+9999ME1314639OA149900211REMSYN076AAXX  02214 06655 33/// /0301 11126 21151 38990 48463 54001 333 91104 91202;
0137066550999992010010222004+46817+008417FM-12+103599999V0209999C000019999999N9999999N1-01261-01451999999ADDMA1999999089901MD1510011+9999ME1314639OA149900261REMSYN076AAXX  02224 06655 33/// /0000 11126 21145 38990 48463 55001 333 91105 91203;
0137066550999992010010223004+46817+008417FM-12+103599999V0201001N001019999999N9999999N1-01271-01501999999ADDMA1999999089931MD1310031+9999ME1314659OA149900261REMSYN076AAXX  02234 06655 33/// /1002 11127 21150 38993 48465 53003 333 91105 91203;
0137066550999992010010300004+46817+008417FM-12+103599999V0200801N000519999999N9999999N1-01221-01501999999ADDMA1999999089911MD1210011+9999ME1314649OA149900511REMSYN076AAXX  03004 06655 33/// /0801 11122 21150 38991 48464 52001 333 91110 91206;
0137066550999992010010301004+46817+008417FM-12+103599999V0209999C000519999999N9999999N1-01161-01461999999ADDMA1999999089911MD1010011+9999ME1314659OA149900151REMSYN076AAXX  03014 06655 33/// /0001 11116 21146 38991 48465 50001 333 91103 91202;
0096066550999992010010302004+46817+008417FM-12+103599999V0200901N000519999999N9999999N1-01211-01441999999ADDMA1999999089911ME1314649REMSYN060AAXX  03024 06655 33/// /0901 11121 21144 38991 48464 5////;
0096066550999992010010303004+46817+008417FM-12+103599999V0200801N001019999999N9999999N1-01131-01421999999ADDMA1999999089871ME1314629REMSYN060AAXX  03034 06655 33/// /0802 11113 21142 38987 48462 5////;
0137066550999992010010304004+46817+008417FM-12+103599999V0209999C000019999999N9999999N1-01141-01371999999ADDMA1999999089821MD1710091+9999ME1314589OA149900211REMSYN076AAXX  03044 06655 33/// /0000 11114 21137 38982 48458 57009 333 91104 91202;
0137066550999992010010305004+46817+008417FM-12+103599999V0200701N000519999999N9999999N1-01081-01381999999ADDMA1999999089851MD1519999+9999ME1314629OA149900211REMSYN076AAXX  03054 06655 33/// /0701 11108 21138 38985 48462 55/// 333 91104 91203;
0215066550999992010010306004+46817+008417FM-12+103599999V0201001N001019999999N9999999N1-01031-01311999999ADDAA124000591AL13000091GJ100009IA2999-01709KA1999N-01331MA1999999089751MD1810121+9999ME1314549OA149900261REMSYN100AAXX  03064 06655 33/// /1002 11103 21131 38975 48454 58012 333 21133 3/117 55000 70005 91105 91203;
0137066550999992010010307004+46817+008417FM-12+103599999V0201001N001019999999N9999999N1-01131-01351999999ADDMA1999999089801MD1510021+9999ME1314579OA149900211REMSYN076AAXX  03074 06655 33/// /1002 11113 21135 38980 48457 55002 333 91104 91203;
0137066550999992010010308004+46817+008417FM-12+103599999V0200901N000519999999N9999999N1-01261-01471999999ADDMA1999999089831MD1519999+9999ME1314579OA149900211REMSYN076AAXX  03084 06655 33/// /0901 11126 21147 38983 48457 55/// 333 91104 91203;
0137066550999992010010309004+46817+008417FM-12+103599999V0201101N001519999999N9999999N1-01171-01431999999ADDMA1999999089871MD1210121+9999ME1314629OA149900211REMSYN076AAXX  03094 06655 33/// /1103 11117 21143 38987 48462 52012 333 91104 91203;
0137066550999992010010310004+46817+008417FM-12+103599999V0200901N001019999999N9999999N1-01091-01501999999ADDMA1999999089841MD1010041+9999ME1314619OA149900211REMSYN076AAXX  03104 06655 33/// /0902 11109 21150 38984 48461 50004 333 91104 91203;
0137066550999992010010311004+46817+008417FM-12+103599999V0200901N001019999999N9999999N1-01141-01461999999ADDMA1999999089721MD1810111+9999ME1314509OA149900211REMSYN076AAXX  03114 06655 33/// /0902 11114 21146 38972 48450 58011 333 91104 91203;
0137066550999992010010312004+46817+008417FM-12+103599999V0201101N001019999999N9999999N1-00921-01251999999ADDMA1999999089691MD1710181+9999ME1314519OA149900211REMSYN076AAXX  03124 06655 33/// /1102 11092 21125 38969 48451 57018 333 91104 91203;
0137066550999992010010313004+46817+008417FM-12+103599999V0201101N001019999999N9999999N1-00811-01241999999ADDMA1999999089681MD1710161+9999ME1314519OA149900211REMSYN076AAXX  03134 06655 33/// /1102 11081 21124 38968 48451 57016 333 91104 91203;
0137066550999992010010314004+46817+008417FM-12+103599999V0201001N001019999999N9999999N1-00811-01481999999ADDMA1999999089681MD1710041+9999ME1314519OA149900211REMSYN076AAXX  03144 06655 33/// /1002 11081 21148 38968 48451 57004 333 91104 91203;
0137066550999992010010315004+46817+008417FM-12+103599999V0201001N000519999999N9999999N1-00921-01291999999ADDMA1999999089681MD1510011+9999ME1314509OA149900211REMSYN076AAXX  03154 06655 33/// /1001 11092 21129 38968 48450 55001 333 91104 91203;
0137066550999992010010316004+46817+008417FM-12+103599999V0201101N001019999999N9999999N1-01191-01391999999ADDMA1999999089681MD1010001+9999ME1314459OA149900211REMSYN076AAXX  03164 06655 33/// /1102 11119 21139 38968 48445 50000 333 91104 91202;
0137066550999992010010317004+46817+008417FM-12+103599999V0200901N000519999999N9999999N1-01081-01301999999ADDMA1999999089631MD1810051+9999ME1314439OA149900211REMSYN076AAXX  03174 06655 33/// /0901 11108 21130 38963 48443 58005 333 91104 91202;
0156066550999992010010318004+46817+008417FM-12+103599999V0209999C000019999999N9999999N1-01171-01341999999ADDKA1120M-00701MA1999999089651MD1710031+9999ME1314439OA149900211REMSYN082AAXX  03184 06655 33/// /0000 11117 21134 38965 48443 57003 333 11070 91104 91203;
0137066550999992010010319004+46817+008417FM-12+103599999V0200801N001019999999N9999999N1-01071-01361999999ADDMA1999999089651MD1510031+9999ME1314459OA149900211REMSYN076AAXX  03194 06655 33/// /0802 11107 21136 38965 48445 55003 333 91104 91202;
0137066550999992010010320004+46817+008417FM-12+103599999V0201001N001019999999N9999999N1-00971-01311999999ADDMA1999999089581MD1810051+9999ME1314409OA149900261REMSYN076AAXX  03204 06655 33/// /1002 11097 21131 38958 48440 58005 333 91105 91203;
0137066550999992010010321004+46817+008417FM-12+103599999V0201101N001019999999N9999999N1-01041-01361999999ADDMA1999999089541MD1710111+9999ME1314369OA149900261REMSYN076AAXX  03214 06655 33/// /1102 11104 21136 38954 48436 57011 333 91105 91203;
0137066550999992010010322004+46817+008417FM-12+103599999V0201101N001019999999N9999999N1-01171-01391999999ADDMA1999999089521MD1710131+9999ME1314329OA149900211REMSYN076AAXX  03224 06655 33/// /1102 11117 21139 38952 48432 57013 333 91104 91202;
0137066550999992010010323004+46817+008417FM-12+103599999V0201001N001019999999N9999999N1-01051-01331999999ADDMA1999999089491MD1710091+9999ME1314319OA149900151REMSYN076AAXX  03234 06655 33/// /1002 11105 21133 38949 48431 57009 333 91103 91202;
0137066550999992010010400004+46817+008417FM-12+103599999V0201001N001019999999N9999999N1-01071-01301999999ADDMA1999999089431MD1710111+9999ME1314269OA149900261REMSYN076AAXX  04004 06655 33/// /1002 11107 21130 38943 48426 57011 333 91105 91203;
0137066550999992010010401004+46817+008417FM-12+103599999V0200901N001019999999N9999999N1-00871-01161999999ADDMA1999999089331MD1710191+9999ME1314219OA149900211REMSYN076AAXX  04014 06655 33/// /0902 11087 21116 38933 48421 57019 333 91104 91202;
0137066550999992010010402004+46817+008417FM-12+103599999V0201001N001019999999N9999999N1-00851-01061999999ADDMA1999999089311MD1710181+9999ME1314199OA149900211REMSYN076AAXX  04024 06655 33/// /1002 11085 21106 38931 48419 57018 333 91104 91202;
0137066550999992010010403004+46817+008417FM-12+103599999V0209999C000019999999N9999999N1-00701-00961999999ADDMA1999999089241MD1619999+9999ME1314159OA149900211REMSYN076AAXX  04034 06655 33/// /0000 11070 21096 38924 48415 56/// 333 91104 91202;
0137066550999992010010404004+46817+008417FM-12+103599999V0209999C000019999999N9999999N1-00611-00911999999ADDMA1999999089241MD1710091+9999ME1314179OA149900151REMSYN076AAXX  04044 06655 33/// /0000 11061 21091 38924 48417 57009 333 91103 91202;
0137066550999992010010405004+46817+008417FM-12+103599999V0200901N000519999999N9999999N1-00641-00831999999ADDMA1999999089211MD1710101+9999ME1314149OA149900211REMSYN076AAXX  04054 06655 33/// /0901 11064 21083 38921 48414 57010 333 91104 91203;
0257066550999992010010406004+46817+008417FM-12+103599999V0209999C000019999999N9999999N1-00651-00731999999ADDAA112000592AA224000092AL10600091GJ101509IA2999-01509KA1999N-01231MA1999999089221MD1510021+9999ME1314149OA149900261REMSYN112AAXX  04064 06655 03/// /0000 11065 21073 38922 48414 55002 69942 333 21123 3/115 55025 69945 70001 91105 91203;EQDQ01  00002PRCP24
0154066550999992010010407004+46817+008417FM-12+103599999V0201201N000519999999N9999999N1-00611-00681999999ADDAA101000891MA1999999089181MD1710061+9999ME1314119OA149900151REMSYN082AAXX  04074 06655 23/// /1201 11061 21068 38918 48411 57006 333 69985 91103 91203;
0154066550999992010010408004+46817+008417FM-12+103599999V0202301N000519999999N9999999N1-00561-00661999999ADDAA101000591MA1999999089161MD1810051+9999ME1314109OA149900151REMSYN082AAXX  04084 06655 23/// /2301 11056 21066 38916 48410 58005 333 69965 91103 91203;
0137066550999992010010409004+46817+008417FM-12+103599999V0202501N000519999999N9999999N1-00571-00661999999ADDMA1999999089171MD1710051+9999ME1314119OA149900211REMSYN076AAXX  04094 06655 33/// /2501 11057 21066 38917 48411 57005 333 91104 91203;
0154066550999992010010410004+46817+008417FM-12+103599999V0202201N000519999999N9999999N1-00631-00751999999ADDAA101000021MA1999999089191MD1210011+9999ME1314129OA149900211REMSYN082AAXX  04104 06655 23/// /2201 11063 21075 38919 48412 52001 333 69925 91104 91202;
0154066550999992010010411004+46817+008417FM-12+103599999V0209999C000019999999N9999999N1-00571-00691999999ADDAA101000391MA1999999089111MD1810051+9999ME1314069OA149900211REMSYN082AAXX  04114 06655 23/// /0000 11057 21069 38911 48406 58005 333 69935 91104 91202;
0160066550999992010010412004+46817+008417FM-12+103599999V0209999C000019999999N9999999N1-00541-00651999999ADDAA106002091MA1999999089051MD1710121+9999ME1314019OA149900211REMSYN088AAXX  04124 06655 03/// /0000 11054 21065 38905 48401 57012 60021 333 69955 91104 91203;
0154066550999992010010413004+46817+008417FM-12+103599999V0201301N000519999999N9999999N1-00501-00611999999ADDAA101000021MA1999999089001MD1610191+9999ME1313979OA149900211REMSYN082AAXX  04134 06655 23/// /1301 11050 21061 38900 48397 56019 333 69925 91104 91202;
0154066550999992010010414004+46817+008417FM-12+103599999V0202001N000519999999N9999999N1-00481-00611999999ADDAA101000591MA1999999088961MD1619999+9999ME1313949OA149900211REMSYN082AAXX  04144 06655 23/// /2001 11048 21061 38896 48394 56/// 333 69955 91104 91201;
0154066550999992010010415004+46817+008417FM-12+103599999V0209999C000019999999N9999999N1-00571-00661999999ADDAA101000891MA1999999088971MD1710081+9999ME1313949OA149900211REMSYN082AAXX  04154 06655 23/// /0000 11057 21066 38897 48394 57008 333 69985 91104 91202;
0154066550999992010010416004+46817+008417FM-12+103599999V0209999C000019999999N9999999N1-00531-00611999999ADDAA101000891MA1999999088951MD1710051+9999ME1313929OA149900151REMSYN082AAXX  04164 06655 23/// /0000 11053 21061 38895 48392 57005 333 69985 91103 91202;
0154066550999992010010417004+46817+008417FM-12+103599999V0202101N000519999999N9999999N1-00621-00711999999ADDAA101001091MA1999999088951MD1710011+9999ME1313919OA149900211REMSYN082AAXX  04174 06655 23/// /2101 11062 21071 38895 48391 57001 333 69995 91104 91202;
0179066550999992010010418004+46817+008417FM-12+103599999V0200801N000519999999N9999999N1-00581-00671999999ADDAA112006191KA1120M-00481MA1999999088931MD1710041+9999ME1313909OA149900211REMSYN094AAXX  04184 06655 03/// /0801 11058 21067 38893 48390 57004 60062 333 11048 69935 91104 91203;
0137066550999992010010419004+46817+008417FM-12+103599999V0202101N001019999999N9999999N1-00631-00701999999ADDMA1999999088911MD1710041+9999ME1313889OA149900261REMSYN076AAXX  04194 06655 33/// /2102 11063 21070 38891 48388 57004 333 91105 91202;
0154066550999992010010420004+46817+008417FM-12+103599999V0202301N001019999999N9999999N1-00671-00741999999ADDAA101000021MA1999999088901MD1710051+9999ME1313869OA149900261REMSYN082AAXX  04204 06655 23/// /2302 11067 21074 38890 48386 57005 333 69925 91105 91202;
0137066550999992010010421004+46817+008417FM-12+103599999V0201801N000519999999N9999999N1-00641-00741999999ADDMA1999999088891MD1810041+9999ME1313869OA149900261REMSYN076AAXX  04214 06655 33/// /1801 11064 21074 38889 48386 58004 333 91105 91202;
0137066550999992010010422004+46817+008417FM-12+103599999V0201401N001019999999N9999999N1-00601-00731999999ADDMA1999999088831MD1710081+9999ME1313819OA149900261REMSYN076AAXX  04224 06655 33/// /1402 11060 21073 38883 48381 57008 333 91105 91202;
0137066550999992010010423004+46817+008417FM-12+103599999V0202501N000519999999N9999999N1-00611-00691999999ADDMA1999999088811MD1710091+9999ME1313799OA149900261REMSYN076AAXX  04234 06655 33/// /2501 11061 21069 38881 48379 57009 333 91105 91202;
0160066550999992010010500004+46817+008417FM-12+103599999V0201101N000519999999N9999999N1-00621-00701999999ADDAA106000391MA1999999088751MD1710141+9999ME1313749OA149900311REMSYN088AAXX  05004 06655 03/// /1101 11062 21070 38875 48374 57014 69931 333 69915 91106 91202;
0154066550999992010010501004+46817+008417FM-12+103599999V0209999C000019999999N9999999N1-00581-00661999999ADDAA101000021MA1999999088701MD1710131+9999ME1313709OA149900311REMSYN082AAXX  05014 06655 23/// /0000 11058 21066 38870 48370 57013 333 69915 91106 91202;
0154066550999992010010502004+46817+008417FM-12+103599999V0200501N000519999999N9999999N1-00661-00751999999ADDAA101000391MA1999999088681MD1710131+9999ME1313679OA149900311REMSYN082AAXX  05024 06655 23/// /0501 11066 21075 38868 48367 57013 333 69935 91106 91202;
0137066550999992010010503004+46817+008417FM-12+103599999V0209999C000019999999N9999999N1-00671-00731999999ADDMA1999999088641MD1710111+9999ME1313639OA149900311REMSYN076AAXX  05034 06655 33/// /0000 11067 21073 38864 48363 57011 333 91106 91202;
0137066550999992010010504004+46817+008417FM-12+103599999V0201301N000519999999N9999999N1-00791-00881999999ADDMA1999999088591MD1710111+9999ME1313589OA149900311REMSYN076AAXX  05044 06655 33/// /1301 11079 21088 38859 48358 57011 333 91106 91202;
0137066550999992010010505004+46817+008417FM-12+103599999V0209999C000019999999N9999999N1-00781-00881999999ADDMA1999999088481MD1810201+9999ME1313489OA149900361REMSYN076AAXX  05054 06655 33/// /0000 11078 21088 38848 48348 58020 333 91107 91203;
0238066550999992010010506004+46817+008417FM-12+103599999V0200901N001019999999N9999999N1-00731-00801999999ADDAA112000891AA224006991AL14800691GJ100009IA2999-00809KA1999N-00831MA1999999088481MD1710161+9999ME1313499OA149900361REMSYN112AAXX  05064 06655 03/// /0902 11073 21080 38848 48349 57016 69972 333 21083 3/108 55000 60005 70069 91107 91203;
0137066550999992010010507004+46817+008417FM-12+103599999V0201101N000519999999N9999999N1-00731-00851999999ADDMA1999999088411MD1710181+9999ME1313439OA149900361REMSYN076AAXX  05074 06655 33/// /1101 11073 21085 38841 48343 57018 333 91107 91204;
0137066550999992010010508004+46817+008417FM-12+103599999V0202401N001019999999N9999999N1-00811-00941999999ADDMA1999999088361MD1710121+9999ME1313379OA149900361REMSYN076AAXX  05084 06655 33/// /2402 11081 21094 38836 48337 57012 333 91107 91204;
0137066550999992010010509004+46817+008417FM-12+103599999V0201101N001519999999N9999999N1-00841-00991999999ADDMA1999999088401MD1510081+9999ME1313409OA149900361REMSYN076AAXX  05094 06655 33/// /1103 11084 21099 38840 48340 55008 333 91107 91204;
0137066550999992010010510004+46817+008417FM-12+103599999V0200901N001019999999N9999999N1-00751-00891999999ADDMA1999999088331MD1710081+9999ME1313359OA149900361REMSYN076AAXX  05104 06655 33/// /0902 11075 21089 38833 48335 57008 333 91107 91205;
0137066550999992010010511004+46817+008417FM-12+103599999V0209999C000019999999N9999999N1-00751-00881999999ADDMA1999999088261MD1810101+9999ME1313299OA149900361REMSYN076AAXX  05114 06655 33/// /0000 11075 21088 38826 48329 58010 333 91107 91205;
0137066550999992010010512004+46817+008417FM-12+103599999V0201501N000519999999N9999999N1-00701-00801999999ADDMA1999999088211MD1610191+9999ME1313259OA149900361REMSYN076AAXX  05124 06655 33/// /1501 11070 21080 38821 48325 56019 333 91107 91205;
0137066550999992010010513004+46817+008417FM-12+103599999V0201001N000519999999N9999999N1-00661-00701999999ADDMA1999999088161MD1610171+9999ME1313219OA149900211REMSYN076AAXX  05134 06655 33/// /1001 11066 21070 38816 48321 56017 333 91104 91202;
0096066550999992010010514004+46817+008417FM-12+103599999V0209999C000019999999N9999999N1-00721-00781999999ADDMA1999999088111ME1313169REMSYN060AAXX  05144 06655 33/// /0000 11072 21078 38811 48316 5////;
0137066550999992010010515004+46817+008417FM-12+103599999V0202701N000519999999N9999999N1-00661-00811999999ADDMA1999999088091MD1710121+9999ME1313159OA149900361REMSYN076AAXX  05154 06655 33/// /2701 11066 21081 38809 48315 57012 333 91107 91205;
0137066550999992010010516004+46817+008417FM-12+103599999V0200901N000519999999N9999999N1-00721-00831999999ADDMA1999999088091MD1710071+9999ME1313159OA149900151REMSYN076AAXX  05164 06655 33/// /0901 11072 21083 38809 48315 57007 333 91103 91201;
0137066550999992010010517004+46817+008417FM-12+103599999V0200901N000519999999N9999999N1-00661-00761999999ADDMA1999999088051MD1810061+9999ME1313129OA149900151REMSYN076AAXX  05174 06655 33/// /0901 11066 21076 38805 48312 58006 333 91103 91201;
0156066550999992010010518004+46817+008417FM-12+103599999V0203001N000519999999N9999999N1-00691-00781999999ADDKA1120M-00571MA1999999088021MD1810071+9999ME1313099OA149900361REMSYN082AAXX  05184 06655 33/// /3001 11069 21078 38802 48309 58007 333 11057 91107 91205;
0137066550999992010010519004+46817+008417FM-12+103599999V0200901N001019999999N9999999N1-00621-00751999999ADDMA1999999088021MD1710071+9999ME1313109OA149900151REMSYN076AAXX  05194 06655 33/// /0902 11062 21075 38802 48310 57007 333 91103 91202;
0137066550999992010010520004+46817+008417FM-12+103599999V0200901N000519999999N9999999N1-00621-00751999999ADDMA1999999087971MD1710081+9999ME1313059OA149900151REMSYN076AAXX  05204 06655 33/// /0901 11062 21075 38797 48305 57008 333 91103 91203;
0137066550999992010010521004+46817+008417FM-12+103599999V0209999C000019999999N9999999N1-00631-00761999999ADDMA1999999087961MD1710061+9999ME1313049OA149900151REMSYN076AAXX  05214 06655 33/// /0000 11063 21076 38796 48304 57006 333 91103 91203;
0137066550999992010010522004+46817+008417FM-12+103599999V0202501N000519999999N9999999N1-00651-00781999999ADDMA1999999087931MD1710091+9999ME1313019OA149900211REMSYN076AAXX  05224 06655 33/// /2501 11065 21078 38793 48301 57009 333 91104 91202;
0137066550999992010010523004+46817+008417FM-12+103599999V0209999C000019999999N9999999N1-00621-00711999999ADDMA1999999087921MD1710051+9999ME1313019OA149900211REMSYN076AAXX  05234 06655 33/// /0000 11062 21071 38792 48301 57005 333 91104 91202;
0137066550999992010010600004+46817+008417FM-12+103599999V0201001N000519999999N9999999N1-00521-00621999999ADDMA1999999087891MD1710071+9999ME1312999OA149900211REMSYN076AAXX  06004 06655 33/// /1001 11052 21062 38789 48299 57007 333 91104 91203;
0137066550999992010010601004+46817+008417FM-12+103599999V0202501N000519999999N9999999N1-00521-00651999999ADDMA1999999087861MD1710071+9999ME1312969OA149900101REMSYN076AAXX  06014 06655 33/// /2501 11052 21065 38786 48296 57007 333 91102 91202;
0137066550999992010010602004+46817+008417FM-12+103599999V0209999C000019999999N9999999N1-00511-00611999999ADDMA1999999087871MD1510051+9999ME1312979OA149900151REMSYN076AAXX  06024 06655 33/// /0000 11051 21061 38787 48297 55005 333 91103 91202;
0137066550999992010010603004+46817+008417FM-12+103599999V0209999C000019999999N9999999N1-00631-00731999999ADDMA1999999087901MD1310011+9999ME1312999OA149900261REMSYN076AAXX  06034 06655 33/// /0000 11063 21073 38790 48299 53001 333 91105 91202;
0137066550999992010010604004+46817+008417FM-12+103599999V0209999C000019999999N9999999N1-00571-00661999999ADDMA1999999087881MD1210021+9999ME1312989OA149900261REMSYN076AAXX  06044 06655 33/// /0000 11057 21066 38788 48298 52002 333 91105 91203;
0137066550999992010010605004+46817+008417FM-12+103599999V0202301N001019999999N9999999N1-00611-00671999999ADDMA1999999087901MD1210031+9999ME1312999OA149900211REMSYN076AAXX  06054 06655 33/// /2302 11061 21067 38790 48299 52003 333 91104 91203;
0234066550999992010010606004+46817+008417FM-12+103599999V0209999C000019999999N9999999N1-00581-00661999999ADDAA124000091AL19900091GJ100789IA2999-01009KA1999N-00791MA1999999087931MD1310031+9999ME1313029OA149900261REMSYN100AAXX  06064 06655 33/// /0000 11058 21066 38793 48302 53003 333 21079 3/110 55013 70000 91105 91203;EQDQ01  00002PRCP24
0137066550999992010010607004+46817+008417FM-12+103599999V0209999C000019999999N9999999N1-00561-00641999999ADDMA1999999087971MD1210091+9999ME1313069OA149900211REMSYN076AAXX  06074 06655 33/// /0000 11056 21064 38797 48306 52009 333 91104 91201;
0137066550999992010010608004+46817+008417FM-12+103599999V0201001N000519999999N9999999N1-00511-00631999999ADDMA1999999087991MD1210091+9999ME1313089OA149900151REMSYN076AAXX  06084 06655 33/// /1001 11051 21063 38799 48308 52009 333 91103 91201;
0137066550999992010010609004+46817+008417FM-12+103599999V0202401N001019999999N9999999N1-00531-00611999999ADDMA1999999088031MD1210101+9999ME1313119OA149900261REMSYN076AAXX  06094 06655 33/// /2402 11053 21061 38803 48311 52010 333 91105 91203;
0137066550999992010010610004+46817+008417FM-12+103599999V0202401N000519999999N9999999N1-00561-00631999999ADDMA1999999088091MD1210121+9999ME1313169OA149900261REMSYN076AAXX  06104 06655 33/// /2401 11056 21063 38809 48316 52012 333 91105 91203;
0137066550999992010010611004+46817+008417FM-12+103599999V0209999C000019999999N9999999N1-00531-00611999999ADDMA1999999088071MD1219999+9999ME1313159OA149900211REMSYN076AAXX  06114 06655 33/// /0000 11053 21061 38807 48315 52/// 333 91104 91202;
0137066550999992010010612004+46817+008417FM-12+103599999V0201001N000519999999N9999999N1-00471-00551999999ADDMA1999999088041MD1010011+9999ME1313139OA149900261REMSYN076AAXX  06124 06655 33/// /1001 11047 21055 38804 48313 50001 333 91105 91203;
0137066550999992010010613004+46817+008417FM-12+103599999V0209999C000019999999N9999999N1-00421-00531999999ADDMA1999999088061MD1710031+9999ME1313159OA149900151REMSYN076AAXX  06134 06655 33/// /0000 11042 21053 38806 48315 57003 333 91103 91202;
0137066550999992010010614004+46817+008417FM-12+103599999V0202201N001019999999N9999999N1-00361-00511999999ADDMA1999999088061MD1519999+9999ME1313169OA149900211REMSYN076AAXX  06144 06655 33/// /2202 11036 21051 38806 48316 55/// 333 91104 91202;
0137066550999992010010615004+46817+008417FM-12+103599999V0209999C000019999999N9999999N1-00481-00541999999ADDMA1999999088091MD1219999+9999ME1313179OA149900311REMSYN076AAXX  06154 06655 33/// /0000 11048 21054 38809 48317 52/// 333 91106 91204;
0122066550999992010010616004+46817+008417FM-12+103599999V0202401N000519999999N9999999N1+99999+99999999999ADDMA1999999088141MD1210081+9999OA149900311REMSYN070AAXX  06164 06655 33/// /2401 1//// 2//// 38814 52008 333 91106 91204;
0122066550999992010010617004+46817+008417FM-12+103599999V0209999C000019999999N9999999N1+99999+99999999999ADDMA1999999088201MD1210141+9999OA149900211REMSYN070AAXX  06174 06655 33/// /0000 1//// 2//// 38820 52014 333 91104 91202;
0137066550999992010010618004+46817+008417FM-12+103599999V0201001N001019999999N9999999N1-00451-00501999999ADDMA1999999088261MD1319999+9999ME1313339OA149900311REMSYN076AAXX  06184 06655 33/// /1002 11045 21050 38826 48333 53/// 333 91106 91204;
0137066550999992010010619004+46817+008417FM-12+103599999V0201001N000519999999N9999999N1-00571-00671999999ADDMA1999999088261MD1110121+9999ME1313319OA149900151REMSYN076AAXX  06194 06655 33/// /1001 11057 21067 38826 48331 51012 333 91103 91202;
0137066550999992010010620004+46817+008417FM-12+103599999V0209999C000019999999N9999999N1-00761-00851999999ADDMA1999999088321MD1310121+9999ME1313349OA149900151REMSYN076AAXX  06204 06655 33/// /0000 11076 21085 38832 48334 53012 333 91103 91202;
0137066550999992010010621004+46817+008417FM-12+103599999V0209999C000019999999N9999999N1-00831-00931999999ADDMA1999999088321MD1210061+9999ME1313349OA149900211REMSYN076AAXX  06214 06655 33/// /0000 11083 21093 38832 48334 52006 333 91104 91203;
0137066550999992010010622004+46817+008417FM-12+103599999V0200801N000519999999N9999999N1-00901-01001999999ADDMA1999999088361MD1210101+9999ME1313369OA149900151REMSYN076AAXX  06224 06655 33/// /0801 11090 21100 38836 48336 52010 333 91103 91203;
0137066550999992010010623004+46817+008417FM-12+103599999V0200901N000519999999N9999999N1-00911-01001999999ADDMA1999999088381MD1210061+9999ME1313389OA149900151REMSYN076AAXX  06234 06655 33/// /0901 11091 21100 38838 48338 52006 333 91103 91202;
0137066550999992010010700004+46817+008417FM-12+103599999V0200901N000519999999N9999999N1-00971-01071999999ADDMA1999999088411MD1210091+9999ME1313409OA149900311REMSYN076AAXX  07004 06655 33/// /0901 11097 21107 38841 48340 52009 333 91106 91204;
0137066550999992010010701004+46817+008417FM-12+103599999V0201201N000519999999N9999999N1-00861-00941999999ADDMA1999999088421MD1210061+9999ME1313429OA149900261REMSYN076AAXX  07014 06655 33/// /1201 11086 21094 38842 48342 52006 333 91105 91204;
0137066550999992010010702004+46817+008417FM-12+103599999V0209999C000019999999N9999999N1-00981-01091999999ADDMA1999999088441MD1219999+9999ME1313429OA149900261REMSYN076AAXX  07024 06655 33/// /0000 11098 21109 38844 48342 52/// 333 91105 91204;
0137066550999992010010703004+46817+008417FM-12+103599999V0200901N000519999999N9999999N1-01011-01111999999ADDMA1999999088461MD1210051+9999ME1313449OA149900261REMSYN076AAXX  07034 06655 33/// /0901 11101 21111 38846 48344 52005 333 91105 91204;
0137066550999992010010704004+46817+008417FM-12+103599999V0200501N000519999999N9999999N1-00991-01101999999ADDMA1999999088481MD1110061+9999ME1313469OA149900151REMSYN076AAXX  07044 06655 33/// /0501 11099 21110 38848 48346 51006 333 91103 91202;
0137066550999992010010705004+46817+008417FM-12+103599999V0200801N000519999999N9999999N1-01081-01191999999ADDMA1999999088451MD1010011+9999ME1313429OA149900151REMSYN076AAXX  07054 06655 33/// /0801 11108 21119 38845 48342 50001 333 91103 91202;
0234066550999992010010706004+46817+008417FM-12+103599999V0201101N001019999999N9999999N1-01141-01261999999ADDAA124000091AL19900091GJ100009IA2999-01409KA1999N-01161MA1999999088491MD1310031+9999ME1313459OA149900261REMSYN100AAXX  07064 06655 33/// /1102 11114 21126 38849 48345 53003 333 21116 3/114 55000 70000 91105 91204;EQDQ01  00002PRCP24
0137066550999992010010707004+46817+008417FM-12+103599999V0201101N000519999999N9999999N1-01171-01301999999ADDMA1999999088501MD1210021+9999ME1313459OA149900211REMSYN076AAXX  07074 06655 33/// /1101 11117 21130 38850 48345 52002 333 91104 91202;
0154066550999992010010708004+46817+008417FM-12+103599999V0201101N000519999999N9999999N1-01101-01251999999ADDAA101000021MA1999999088591MD1319999+9999ME1313549OA149900211REMSYN082AAXX  07084 06655 23/// /1101 11110 21125 38859 48354 53/// 333 69915 91104 91202;
0137066550999992010010709004+46817+008417FM-12+103599999V0200901N000519999999N9999999N1-01081-01281999999ADDMA1999999088601MD1310111+9999ME1313559OA149900211REMSYN076AAXX  07094 06655 33/// /0901 11108 21128 38860 48355 53011 333 91104 91203;
0137066550999992010010710004+46817+008417FM-12+103599999V0201101N001019999999N9999999N1-01321-01501999999ADDMA1999999088631MD1210131+9999ME1313549OA149900151REMSYN076AAXX  07104 06655 33/// /1102 11132 21150 38863 48354 52013 333 91103 91203;
0137066550999992010010711004+46817+008417FM-12+103599999V0201001N000519999999N9999999N1-00871-01321999999ADDMA1999999088651MD1210061+9999ME1313629OA149900151REMSYN076AAXX  07114 06655 33/// /1001 11087 21132 38865 48362 52006 333 91103 91202;
0179066550999992010010712004+46817+008417FM-12+103599999V0209999C000019999999N9999999N1-00791-01081999999ADDAA106000091MA1999999088631MD1010031+9999ME1313619OA149900261REMSYN088AAXX  07124 06655 03/// /0000 11079 21108 38863 48361 50003 69911 333 60005 91105 91204;EQDQ01  00002PRCP06
0137066550999992010010713004+46817+008417FM-12+103599999V0209999C000019999999N9999999N1-00621-00961999999ADDMA1999999088651MD1210021+9999ME1313659OA149900211REMSYN076AAXX  07134 06655 33/// /0000 11062 21096 38865 48365 52002 333 91104 91202;
0096066550999992010010715004+46817+008417FM-12+103599999V0201101N001019999999N9999999N1-00591-01001999999ADDMA1999999088711ME1313719REMSYN060AAXX  07154 06655 43/// /1102 11059 21100 38871 48371 5////;
0123066550999992010010716004+46817+008417FM-12+103599999V0209999C000019999999N9999999N1-00631-00941999999ADDMA1999999088761ME1313749OA149900151REMSYN076AAXX  07164 06655 33/// /0000 11063 21094 38876 48374 5/011 333 91103 91202;
0137066550999992010010717004+46817+008417FM-12+103599999V0209999C000019999999N9999999N1-00661-00931999999ADDMA1999999088761MD1219999+9999ME1313749OA149900151REMSYN076AAXX  07174 06655 33/// /0000 11066 21093 38876 48374 52/// 333 91103 91202;
0198066550999992010010718004+46817+008417FM-12+103599999V0200901N000519999999N9999999N1-00701-00931999999ADDAA112000091KA1120M-00521MA1999999088801MD1219999+9999ME1313779OA149900211REMSYN094AAXX  07184 06655 03/// /0901 11070 21093 38880 48377 52/// 69912 333 11052 60005 91104 91203;EQDQ01  00002PRCP12
0137066550999992010010719004+46817+008417FM-12+103599999V0201001N001019999999N9999999N1-00631-00981999999ADDMA1999999088841MD1210081+9999ME1313819OA149900151REMSYN076AAXX  07194 06655 33/// /1002 11063 21098 38884 48381 52008 333 91103 91202;
0137066550999992010010720004+46817+008417FM-12+103599999V0201001N000519999999N9999999N1-00701-00931999999ADDMA1999999088821MD1210061+9999ME1313799OA149900261REMSYN076AAXX  07204 06655 33/// /1001 11070 21093 38882 48379 52006 333 91105 91203;
0137066550999992010010721004+46817+008417FM-12+103599999V0201101N000519999999N9999999N1-00671-00881999999ADDMA1999999088831MD1210031+9999ME1313809OA149900261REMSYN076AAXX  07214 06655 33/// /1101 11067 21088 38883 48380 52003 333 91105 91203;
0137066550999992010010722004+46817+008417FM-12+103599999V0201101N000519999999N9999999N1-00631-00861999999ADDMA1999999088791MD1710051+9999ME1313779OA149900151REMSYN076AAXX  07224 06655 33/// /1101 11063 21086 38879 48377 57005 333 91103 91202;
0137066550999992010010723004+46817+008417FM-12+103599999V0209999C000019999999N9999999N1-00631-00861999999ADDMA1999999088771MD1810051+9999ME1313759OA149900151REMSYN076AAXX  07234 06655 33/// /0000 11063 21086 38877 48375 58005 333 91103 91201;
0137066550999992010010800004+46817+008417FM-12+103599999V0200801N000519999999N9999999N1-00611-00821999999ADDMA1999999088751MD1610081+9999ME1313749OA149900261REMSYN076AAXX  08004 06655 33/// /0801 11061 21082 38875 48374 56008 333 91105 91203;
0137066550999992010010801004+46817+008417FM-12+103599999V0209999C000019999999N9999999N1-00651-00811999999ADDMA1999999088701MD1810091+9999ME1313699OA149900151REMSYN076AAXX  08014 06655 33/// /0000 11065 21081 38870 48369 58009 333 91103 91202;
0137066550999992010010802004+46817+008417FM-12+103599999V0209999C000019999999N9999999N1-00651-00801999999ADDMA1999999088711MD1719999+9999ME1313709OA149900101REMSYN076AAXX  08024 06655 33/// /0000 11065 21080 38871 48370 57/// 333 91102 91201;
0137066550999992010010803004+46817+008417FM-12+103599999V0201201N001019999999N9999999N1-00681-00811999999ADDMA1999999088671MD1719999+9999ME1313669OA149900151REMSYN076AAXX  08034 06655 33/// /1202 11068 21081 38867 48366 57/// 333 91103 91202;
0137066550999992010010804004+46817+008417FM-12+103599999V0202201N000519999999N9999999N1-00661-00811999999ADDMA1999999088621MD1710081+9999ME1313629OA149900151REMSYN076AAXX  08044 06655 33/// /2201 11066 21081 38862 48362 57008 333 91103 91202;
0137066550999992010010805004+46817+008417FM-12+103599999V0202501N000519999999N9999999N1-00641-00701999999ADDMA1999999088571MD1810141+9999ME1313589OA149900211REMSYN076AAXX  08054 06655 33/// /2501 11064 21070 38857 48358 58014 333 91104 91201;
0234066550999992010010806004+46817+008417FM-12+103599999V0201001N000519999999N9999999N1-00651-00741999999ADDAA124000091AL10600091GJ100549IA2999-00909KA1999N-00801MA1999999088511MD1610161+9999ME1313529OA149900261REMSYN100AAXX  08064 06655 33/// /1001 11065 21074 38851 48352 56016 333 21080 3/109 55009 70001 91105 91203;EQDQ01  00002PRCP24
0137066550999992010010807004+46817+008417FM-12+103599999V0209999C000019999999N9999999N1-00651-00751999999ADDMA1999999088501MD1710121+9999ME1313519OA149900101REMSYN076AAXX  08074 06655 33/// /0000 11065 21075 38850 48351 57012 333 91102 91201;
0137066550999992010010808004+46817+008417FM-12+103599999V0201101N000519999999N9999999N1-00651-00731999999ADDMA1999999088451MD1710121+9999ME1313479OA149900101REMSYN076AAXX  08084 06655 33/// /1101 11065 21073 38845 48347 57012 333 91102 91201;
0137066550999992010010809004+46817+008417FM-12+103599999V0202401N001019999999N9999999N1-00551-00671999999ADDMA1999999088391MD1710121+9999ME1313439OA149900211REMSYN076AAXX  08094 06655 33/// /2402 11055 21067 38839 48343 57012 333 91104 91202;
0137066550999992010010810004+46817+008417FM-12+103599999V0202001N001019999999N9999999N1-00551-00651999999ADDMA1999999088351MD1710151+9999ME1313399OA149900261REMSYN076AAXX  08104 06655 33/// /2002 11055 21065 38835 48339 57015 333 91105 91203;
0137066550999992010010811004+46817+008417FM-12+103599999V0202101N001519999999N9999999N1-00531-00631999999ADDMA1999999088281MD1710171+9999ME1313339OA149900261REMSYN076AAXX  08114 06655 33/// /2103 11053 21063 38828 48333 57017 333 91105 91203;
0137066550999992010010812004+46817+008417FM-12+103599999V0202401N001519999999N9999999N1-00501-00631999999ADDMA1999999088211MD1710181+9999ME1313289OA149900311REMSYN076AAXX  08124 06655 33/// /2403 11050 21063 38821 48328 57018 333 91106 91203;
0137066550999992010010813004+46817+008417FM-12+103599999V0202401N001019999999N9999999N1-00551-00581999999ADDMA1999999088151MD1610201+9999ME1313229OA149900311REMSYN076AAXX  08134 06655 33/// /2402 11055 21058 38815 48322 56020 333 91106 91203;
0137066550999992010010814004+46817+008417FM-12+103599999V0202501N001519999999N9999999N1-00571-00611999999ADDMA1999999088151MD1719999+9999ME1313229OA149900361REMSYN076AAXX  08144 06655 33/// /2503 11057 21061 38815 48322 57/// 333 91107 91204;
0137066550999992010010815004+46817+008417FM-12+103599999V0202601N001519999999N9999999N1-00611-00651999999ADDMA1999999088181MD1510031+9999ME1313249OA149900361REMSYN076AAXX  08154 06655 33/// /2603 11061 21065 38818 48324 55003 333 91107 91204;
0137066550999992010010816004+46817+008417FM-12+103599999V0202501N001519999999N9999999N1-00581-00661999999ADDMA1999999088211MD1310061+9999ME1313279OA149900311REMSYN076AAXX  08164 06655 33/// /2503 11058 21066 38821 48327 53006 333 91106 91204;
0137066550999992010010817004+46817+008417FM-12+103599999V0202401N001519999999N9999999N1-00581-00651999999ADDMA1999999088251MD1119999+9999ME1313309OA149900311REMSYN076AAXX  08174 06655 33/// /2403 11058 21065 38825 48330 51/// 333 91106 91203;
0198066550999992010010818004+46817+008417FM-12+103599999V0202701N001019999999N9999999N1-00591-00681999999ADDAA112000091KA1120M-00501MA1999999088261MD1210081+9999ME1313319OA149900361REMSYN094AAXX  08184 06655 03/// /2702 11059 21068 38826 48331 52008 69912 333 11050 69915 91107 91204;EQDQ01  00002PRCP12
0137066550999992010010819004+46817+008417FM-12+103599999V0202301N001019999999N9999999N1-00591-00651999999ADDMA1999999088261MD1010051+9999ME1313319OA149900261REMSYN076AAXX  08194 06655 33/// /2302 11059 21065 38826 48331 50005 333 91105 91203;
0137066550999992010010820004+46817+008417FM-12+103599999V0202101N001019999999N9999999N1-00621-00681999999ADDMA1999999088261MD1010011+9999ME1313319OA149900261REMSYN076AAXX  08204 06655 33/// /2102 11062 21068 38826 48331 50001 333 91105 91203;
0137066550999992010010821004+46817+008417FM-12+103599999V0202001N001019999999N9999999N1-00611-00681999999ADDMA1999999088251MD1610011+9999ME1313309OA149900311REMSYN076AAXX  08214 06655 33/// /2002 11061 21068 38825 48330 56001 333 91106 91203;
0137066550999992010010822004+46817+008417FM-12+103599999V0202101N001019999999N9999999N1-00631-00671999999ADDMA1999999088271MD1210011+9999ME1313319OA149900211REMSYN076AAXX  08224 06655 33/// /2102 11063 21067 38827 48331 52001 333 91104 91203;
0137066550999992010010823004+46817+008417FM-12+103599999V0202101N001019999999N9999999N1-00621-00671999999ADDMA1999999088301MD1310041+9999ME1313349OA149900211REMSYN076AAXX  08234 06655 33/// /2102 11062 21067 38830 48334 53004 333 91104 91203;
0137066550999992010010900004+46817+008417FM-12+103599999V0202201N000519999999N9999999N1-00621-00691999999ADDMA1999999088281MD1210031+9999ME1313329OA149900361REMSYN076AAXX  09004 06655 33/// /2201 11062 21069 38828 48332 52003 333 91107 91204;
0137066550999992010010901004+46817+008417FM-12+103599999V0202301N000519999999N9999999N1-00621-00691999999ADDMA1999999088261MD1810011+9999ME1313319OA149900151REMSYN076AAXX  09014 06655 33/// /2301 11062 21069 38826 48331 58001 333 91103 91202;
0137066550999992010010902004+46817+008417FM-12+103599999V0202501N001019999999N9999999N1-00651-00711999999ADDMA1999999088271MD1519999+9999ME1313319OA149900151REMSYN076AAXX  09024 06655 33/// /2502 11065 21071 38827 48331 55/// 333 91103 91202;
0137066550999992010010903004+46817+008417FM-12+103599999V0202101N001019999999N9999999N1-00651-00731999999ADDMA1999999088261MD1819999+9999ME1313309OA149900211REMSYN076AAXX  09034 06655 33/// /2102 11065 21073 38826 48330 58/// 333 91104 91203;
0137066550999992010010904004+46817+008417FM-12+103599999V0202501N000519999999N9999999N1-00661-00761999999ADDMA1999999088221MD1810041+9999ME1313279OA149900151REMSYN076AAXX  09044 06655 33/// /2501 11066 21076 38822 48327 58004 333 91103 91202;
0137066550999992010010905004+46817+008417FM-12+103599999V0202401N000519999999N9999999N1-00691-00731999999ADDMA1999999088191MD1710081+9999ME1313249OA149900151REMSYN076AAXX  09054 06655 33/// /2401 11069 21073 38819 48324 57008 333 91103 91202;
0234066550999992010010906004+46817+008417FM-12+103599999V0202301N001019999999N9999999N1-00711-00751999999ADDAA124000091AL10600091GJ100009IA2999-00709KA1999N-00711MA1999999088141MD1710121+9999ME1313199OA149900261REMSYN100AAXX  09064 06655 33/// /2302 11071 21075 38814 48319 57012 333 21071 3/107 55000 70001 91105 91203;EQDQ01  00002PRCP24
0137066550999992010010907004+46817+008417FM-12+103599999V0202201N001019999999N9999999N1-00731-00781999999ADDMA1999999088151MD1710071+9999ME1313209OA149900151REMSYN076AAXX  09074 06655 33/// /2202 11073 21078 38815 48320 57007 333 91103 91202;
0137066550999992010010908004+46817+008417FM-12+103599999V0202101N000519999999N9999999N1-00751-00801999999ADDMA1999999088141MD1710051+9999ME1313199OA149900151REMSYN076AAXX  09084 06655 33/// /2101 11075 21080 38814 48319 57005 333 91103 91202;
0137066550999992010010909004+46817+008417FM-12+103599999V0202301N000519999999N9999999N1-00721-00771999999ADDMA1999999088171MD1210031+9999ME1313229OA149900151REMSYN076AAXX  09094 06655 33/// /2301 11072 21077 38817 48322 52003 333 91103 91202;
0137066550999992010010910004+46817+008417FM-12+103599999V0202101N001019999999N9999999N1-00751-00781999999ADDMA1999999088171MD1210021+9999ME1313219OA149900151REMSYN076AAXX  09104 06655 33/// /2102 11075 21078 38817 48321 52002 333 91103 91202;
0137066550999992010010911004+46817+008417FM-12+103599999V0202201N001019999999N9999999N1-00761-00781999999ADDMA1999999088141MD1010001+9999ME1313199OA149900151REMSYN076AAXX  09114 06655 33/// /2202 11076 21078 38814 48319 50000 333 91103 91202;
0137066550999992010010912004+46817+008417FM-12+103599999V0202201N001019999999N9999999N1-00761-00811999999ADDMA1999999088101MD1710071+9999ME1313159OA149900151REMSYN076AAXX  09124 06655 33/// /2202 11076 21081 38810 48315 57007 333 91103 91202;
0137066550999992010010913004+46817+008417FM-12+103599999V0202301N000519999999N9999999N1-00781-00831999999ADDMA1999999088081MD1710091+9999ME1313139OA149900151REMSYN076AAXX  09134 06655 33/// /2301 11078 21083 38808 48313 57009 333 91103 91202;
0137066550999992010010914004+46817+008417FM-12+103599999V0202301N000519999999N9999999N1-00791-00821999999ADDMA1999999088121MD1510021+9999ME1313179OA149900151REMSYN076AAXX  09144 06655 33/// /2301 11079 21082 38812 48317 55002 333 91103 91202;
0137066550999992010010915004+46817+008417FM-12+103599999V0202401N000519999999N9999999N1-00801-00861999999ADDMA1999999088151MD1210051+9999ME1313199OA149900151REMSYN076AAXX  09154 06655 33/// /2401 11080 21086 38815 48319 52005 333 91103 91202;
0154066550999992010010916004+46817+008417FM-12+103599999V0202201N000519999999N9999999N1-00791-00911999999ADDAA101000391MA1999999088141MD1210061+9999ME1313189OA149900151REMSYN082AAXX  09164 06655 23/// /2201 11079 21091 38814 48318 52006 333 69935 91103 91202;
0137066550999992010010917004+46817+008417FM-12+103599999V0202201N000519999999N9999999N1-00821-00881999999ADDMA1999999088161MD1210041+9999ME1313209OA149900151REMSYN076AAXX  09174 06655 33/// /2201 11082 21088 38816 48320 52004 333 91103 91202;
0179066550999992010010918004+46817+008417FM-12+103599999V0202101N000519999999N9999999N1-00811-00861999999ADDAA112000391KA1120M-00701MA1999999088181MD1210031+9999ME1313229OA149900151REMSYN094AAXX  09184 06655 03/// /2101 11081 21086 38818 48322 52003 69932 333 11070 60005 91103 91202;
0137066550999992010010919004+46817+008417FM-12+103599999V0202101N000519999999N9999999N1-00811-00911999999ADDMA1999999088221MD1210081+9999ME1313259OA149900151REMSYN076AAXX  09194 06655 33/// /2101 11081 21091 38822 48325 52008 333 91103 91201;
0137066550999992010010920004+46817+008417FM-12+103599999V0202201N000519999999N9999999N1-00831-00931999999ADDMA1999999088241MD1210081+9999ME1313279OA149900151REMSYN076AAXX  09204 06655 33/// /2201 11083 21093 38824 48327 52008 333 91103 91201;
0137066550999992010010921004+46817+008417FM-12+103599999V0202101N000519999999N9999999N1-00821-00931999999ADDMA1999999088291MD1210111+9999ME1313319OA149900151REMSYN076AAXX  09214 06655 33/// /2101 11082 21093 38829 48331 52011 333 91103 91202;
0137066550999992010010922004+46817+008417FM-12+103599999V0209999C000019999999N9999999N1-00851-00951999999ADDMA1999999088331MD1210111+9999ME1313349OA149900151REMSYN076AAXX  09224 06655 33/// /0000 11085 21095 38833 48334 52011 333 91103 91202;
0137066550999992010010923004+46817+008417FM-12+103599999V0209999C000019999999N9999999N1-00931-01021999999ADDMA1999999088361MD1210121+9999ME1313369OA149900151REMSYN076AAXX  09234 06655 33/// /0000 11093 21102 38836 48336 52012 333 91103 91201;
0137066550999992010011000004+46817+008417FM-12+103599999V0209999C000019999999N9999999N1-00861-00941999999ADDMA1999999088391MD1110101+9999ME1313399OA149900151REMSYN076AAXX  10004 06655 33/// /0000 11086 21094 38839 48339 51010 333 91103 91202;
0137066550999992010011001004+46817+008417FM-12+103599999V0209999C000019999999N9999999N1-00881-01001999999ADDMA1999999088421MD1310091+9999ME1313429OA149900051REMSYN076AAXX  10014 06655 33/// /0000 11088 21100 38842 48342 53009 333 91101 91201;
0096066550999992010011002004+46817+008417FM-12+103599999V0209999C000019999999N9999999N1-00881-01071999999ADDMA1999999088471ME1313469REMSYN060AAXX  10024 06655 33/// /0000 11088 21107 38847 48346 5////;
0096066550999992010011003004+46817+008417FM-12+103599999V0209999C000019999999N9999999N1-00871-01081999999ADDMA1999999088531ME1313519REMSYN060AAXX  10034 06655 43/// /0000 11087 21108 38853 48351 5////;
0137066550999992010011004004+46817+008417FM-12+103599999V0209999C000019999999N9999999N1-00931-01121999999ADDMA1999999088571MD1110151+9999ME1313549OA149900051REMSYN076AAXX  10044 06655 33/// /0000 11093 21112 38857 48354 51015 333 91101 91201;
0137066550999992010011005004+46817+008417FM-12+103599999V0209999C000019999999N9999999N1-00941-01121999999ADDMA1999999088591MD1110121+9999ME1313569OA149900051REMSYN076AAXX  10054 06655 33/// /0000 11094 21112 38859 48356 51012 333 91101 91201;
0215066550999992010011006004+46817+008417FM-12+103599999V0201101N000519999999N9999999N1-00961-01171999999ADDAA124000391AL11800091GJ100009IA2999-01109KA1999N-00981MA1999999088661MD1310131+9999ME1313629OA149900151REMSYN100AAXX  10064 06655 33/// /1101 11096 21117 38866 48362 53013 333 21098 3/111 55000 70003 91103 91202;
0137066550999992010011007004+46817+008417FM-12+103599999V0209999C000019999999N9999999N1-01001-01221999999ADDMA1999999088721MD1310151+9999ME1313669OA149900051REMSYN076AAXX  10074 06655 33/// /0000 11100 21122 38872 48366 53015 333 91101 91201;
0137066550999992010011008004+46817+008417FM-12+103599999V0209999C000019999999N9999999N1-01061-01251999999ADDMA1999999088791MD1319999+9999ME1313719OA149900051REMSYN076AAXX  10084 06655 33/// /0000 11106 21125 38879 48371 53/// 333 91101 91201;
0137066550999992010011009004+46817+008417FM-12+103599999V0209999C000019999999N9999999N1-00961-01151999999ADDMA1999999088871MD1310211+9999ME1313809OA149900051REMSYN076AAXX  10094 06655 33/// /0000 11096 21115 38887 48380 53021 333 91101 91201;
0137066550999992010011010004+46817+008417FM-12+103599999V0209999C000019999999N9999999N1-01041-01231999999ADDMA1999999088911MD1110191+9999ME1313829OA149900051REMSYN076AAXX  10104 06655 33/// /0000 11104 21123 38891 48382 51019 333 91101 91201;
0137066550999992010011011004+46817+008417FM-12+103599999V0201101N000519999999N9999999N1-00831-01141999999ADDMA1999999088961MD1110171+9999ME1313899OA149900101REMSYN076AAXX  10114 06655 33/// /1101 11083 21114 38896 48389 51017 333 91102 91201;
0137066550999992010011012004+46817+008417FM-12+103599999V0201001N000519999999N9999999N1-00811-01131999999ADDMA1999999088981MD1210111+9999ME1313919OA149900101REMSYN076AAXX  10124 06655 33/// /1001 11081 21113 38898 48391 52011 333 91102 91201;
0137066550999992010011013004+46817+008417FM-12+103599999V0201001N000519999999N9999999N1-00801-01121999999ADDMA1999999089001MD1210091+9999ME1313939OA149900101REMSYN076AAXX  10134 06655 33/// /1001 11080 21112 38900 48393 52009 333 91102 91201;
0137066550999992010011014004+46817+008417FM-12+103599999V0201001N000519999999N9999999N1-00761-01071999999ADDMA1999999089051MD1219999+9999ME1313989OA149900101REMSYN076AAXX  10144 06655 33/// /1001 11076 21107 38905 48398 52/// 333 91102 91201;
0137066550999992010011015004+46817+008417FM-12+103599999V0200901N000519999999N9999999N1-00771-01071999999ADDMA1999999089081MD1210101+9999ME1314009OA149900101REMSYN076AAXX  10154 06655 33/// /0901 11077 21107 38908 48400 52010 333 91102 91201;
0137066550999992010011016004+46817+008417FM-12+103599999V0201001N000519999999N9999999N1-00801-01081999999ADDMA1999999089151MD1210151+9999ME1314069OA149900101REMSYN076AAXX  10164 06655 33/// /1001 11080 21108 38915 48406 52015 333 91102 91202;
0137066550999992010011017004+46817+008417FM-12+103599999V0209999C000019999999N9999999N1-00841-01071999999ADDMA1999999089171MD1110121+9999ME1314079OA149900101REMSYN076AAXX  10174 06655 33/// /0000 11084 21107 38917 48407 51012 333 91102 91202;
0156066550999992010011018004+46817+008417FM-12+103599999V0201301N000519999999N9999999N1-00931-01191999999ADDKA1120M-00761MA1999999089201MD1210121+9999ME1314089OA149900101REMSYN082AAXX  10184 06655 33/// /1301 11093 21119 38920 48408 52012 333 11076 91102 91202;
0137066550999992010011019004+46817+008417FM-12+103599999V0201101N000519999999N9999999N1-01001-01201999999ADDMA1999999089231MD1210081+9999ME1314109OA149900101REMSYN076AAXX  10194 06655 33/// /1101 11100 21120 38923 48410 52008 333 91102 91201;
0137066550999992010011020004+46817+008417FM-12+103599999V0209999C000019999999N9999999N1-01111-01271999999ADDMA1999999089231MD1210061+9999ME1314089OA149900101REMSYN076AAXX  10204 06655 33/// /0000 11111 21127 38923 48408 52006 333 91102 91201;
0137066550999992010011021004+46817+008417FM-12+103599999V0201101N000519999999N9999999N1-01121-01291999999ADDMA1999999089251MD1210051+9999ME1314109OA149900101REMSYN076AAXX  10214 06655 33/// /1101 11112 21129 38925 48410 52005 333 91102 91202;
0137066550999992010011022004+46817+008417FM-12+103599999V0209999C000019999999N9999999N1-01141-01301999999ADDMA1999999089231MD1010001+9999ME1314089OA149900101REMSYN076AAXX  10224 06655 33/// /0000 11114 21130 38923 48408 50000 333 91102 91201;
0137066550999992010011023004+46817+008417FM-12+103599999V0209999C000019999999N9999999N1-01251-01471999999ADDMA1999999089231MD1510001+9999ME1314069OA149900101REMSYN076AAXX  10234 06655 33/// /0000 11125 21147 38923 48406 55000 333 91102 91201;
0137066550999992010011100004+46817+008417FM-12+103599999V0209999C000019999999N9999999N1-01191-01371999999ADDMA1999999089221MD1710031+9999ME1314069OA149900101REMSYN076AAXX  11004 06655 33/// /0000 11119 21137 38922 48406 57003 333 91102 91202;
0137066550999992010011101004+46817+008417FM-12+103599999V0201001N001019999999N9999999N1-01191-01391999999ADDMA1999999089211MD1710021+9999ME1314069OA149900151REMSYN076AAXX  11014 06655 33/// /1002 11119 21139 38921 48406 57002 333 91103 91202;
0137066550999992010011102004+46817+008417FM-12+103599999V0209999C000019999999N9999999N1-01301-01501999999ADDMA1999999089251MD1219999+9999ME1314079OA149900151REMSYN076AAXX  11024 06655 33/// /0000 11130 21150 38925 48407 52/// 333 91103 91202;
0137066550999992010011103004+46817+008417FM-12+103599999V0209999C000019999999N9999999N1-01241-01421999999ADDMA1999999089251MD1219999+9999ME1314089OA149900151REMSYN076AAXX  11034 06655 33/// /0000 11124 21142 38925 48408 52/// 333 91103 91202;
0137066550999992010011104004+46817+008417FM-12+103599999V0209999C000019999999N9999999N1-01261-01441999999ADDMA1999999089221MD1010011+9999ME1314059OA149900051REMSYN076AAXX  11044 06655 33/// /0000 11126 21144 38922 48405 50001 333 91101 91201;
0137066550999992010011105004+46817+008417FM-12+103599999V0209999C000019999999N9999999N1-01261-01431999999ADDMA1999999089211MD1710041+9999ME1314059OA149900101REMSYN076AAXX  11054 06655 33/// /0000 11126 21143 38921 48405 57004 333 91102 91202;
0234066550999992010011106004+46817+008417FM-12+103599999V0209999C000019999999N9999999N1-01251-01431999999ADDAA124000091AL19900091GJ100489IA2999-01609KA1999N-01361MA1999999089191MD1710061+9999ME1314039OA149900151REMSYN100AAXX  11064 06655 33/// /0000 11125 21143 38919 48403 57006 333 21136 3/116 55008 70000 91103 91202;EQDQ01  00002PRCP24
0137066550999992010011107004+46817+008417FM-12+103599999V0201101N000519999999N9999999N1-01281-01461999999ADDMA1999999089211MD1510011+9999ME1314049OA149900101REMSYN076AAXX  11074 06655 33/// /1101 11128 21146 38921 48404 55001 333 91102 91201;
0137066550999992010011108004+46817+008417FM-12+103599999V0209999C000019999999N9999999N1-01241-01411999999ADDMA1999999089201MD1719999+9999ME1314049OA149900101REMSYN076AAXX  11084 06655 33/// /0000 11124 21141 38920 48404 57/// 333 91102 91201;
0156066550999992010011109004+46817+008417FM-12+103599999V0201101N000519999999N9999999N1-01181-01361999999ADDMA1999999089191MD1410001+9999ME1314049OA149900101REMSYN076AAXX  11094 06655 33/// /1101 11118 21136 38919 48404 58000 333 91102 91202;EQDQ01+000082APCTEN
0137066550999992010011110004+46817+008417FM-12+103599999V0209999C000019999999N9999999N1-01181-01291999999ADDMA1999999089251MD1319999+9999ME1314099OA149900101REMSYN076AAXX  11104 06655 33/// /0000 11118 21129 38925 48409 53/// 333 91102 91201;
0137066550999992010011111004+46817+008417FM-12+103599999V0209999C000019999999N9999999N1-00971-01131999999ADDMA1999999089241MD1210041+9999ME1314119OA149900101REMSYN076AAXX  11114 06655 33/// /0000 11097 21113 38924 48411 52004 333 91102 91201;
0156066550999992010011112004+46817+008417FM-12+103599999V0202101N000519999999N9999999N1-00751-00971999999ADDMA1999999089191MD1410001+9999ME1314109OA149900151REMSYN076AAXX  11124 06655 33/// /2101 11075 21097 38919 48410 58000 333 91103 91202;EQDQ01+000082APCTEN
0137066550999992010011113004+46817+008417FM-12+103599999V0201101N000519999999N9999999N1-00691-00911999999ADDMA1999999089211MD1710041+9999ME1314139OA149900151REMSYN076AAXX  11134 06655 33/// /1101 11069 21091 38921 48413 57004 333 91103 91202;
0096066550999992010011114004+46817+008417FM-12+103599999V0202201N000519999999N9999999N1-00761-00891999999ADDMA1999999089231ME1314149REMSYN060AAXX  11144 06655 33/// /2201 11076 21089 38923 48414 5////;
0137066550999992010011115004+46817+008417FM-12+103599999V0201201N000519999999N9999999N1-00801-00921999999ADDMA1999999089281MD1310091+9999ME1314179OA149900151REMSYN076AAXX  11154 06655 33/// /1201 11080 21092 38928 48417 53009 333 91103 91202;
0137066550999992010011116004+46817+008417FM-12+103599999V0209999C000019999999N9999999N1-00871-00971999999ADDMA1999999089311MD1210101+9999ME1314199OA149900101REMSYN076AAXX  11164 06655 33/// /0000 11087 21097 38931 48419 52010 333 91102 91201;
0137066550999992010011117004+46817+008417FM-12+103599999V0209999C000019999999N9999999N1-00831-00941999999ADDMA1999999089341MD1210111+9999ME1314229OA149900101REMSYN076AAXX  11174 06655 33/// /0000 11083 21094 38934 48422 52011 333 91102 91201;
0156066550999992010011118004+46817+008417FM-12+103599999V0201101N000519999999N9999999N1-00801-00931999999ADDKA1120M-00691MA1999999089371MD1210091+9999ME1314259OA149900151REMSYN082AAXX  11184 06655 33/// /1101 11080 21093 38937 48425 52009 333 11069 91103 91202;
0137066550999992010011119004+46817+008417FM-12+103599999V0201101N000519999999N9999999N1-00761-00891999999ADDMA1999999089391MD1210081+9999ME1314279OA149900151REMSYN076AAXX  11194 06655 33/// /1101 11076 21089 38939 48427 52008 333 91103 91202;
0137066550999992010011120004+46817+008417FM-12+103599999V0209999C000019999999N9999999N1-00731-00871999999ADDMA1999999089421MD1210081+9999ME1314309OA149900101REMSYN076AAXX  11204 06655 33/// /0000 11073 21087 38942 48430 52008 333 91102 91201;
0137066550999992010011121004+46817+008417FM-12+103599999V0209999C000019999999N9999999N1-00701-00851999999ADDMA1999999089411MD1210041+9999ME1314309OA149900151REMSYN076AAXX  11214 06655 33/// /0000 11070 21085 38941 48430 52004 333 91103 91202;
0137066550999992010011122004+46817+008417FM-12+103599999V0202101N000519999999N9999999N1-00681-00791999999ADDMA1999999089411MD1010021+9999ME1314309OA149900151REMSYN076AAXX  11224 06655 33/// /2101 11068 21079 38941 48430 50002 333 91103 91202;
0137066550999992010011123004+46817+008417FM-12+103599999V0200601N000519999999N9999999N1-00671-00821999999ADDMA1999999089441MD1310021+9999ME1314339OA149900151REMSYN076AAXX  11234 06655 33/// /0601 11067 21082 38944 48433 53002 333 91103 91202;
0137066550999992010011200004+46817+008417FM-12+103599999V0209999C000019999999N9999999N1-00661-00811999999ADDMA1999999089431MD1010021+9999ME1314329OA149900151REMSYN076AAXX  12004 06655 33/// /0000 11066 21081 38943 48432 50002 333 91103 91202;
0137066550999992010011201004+46817+008417FM-12+103599999V0201101N000519999999N9999999N1-00661-00801999999ADDMA1999999089421MD1010011+9999ME1314319OA149900101REMSYN076AAXX  12014 06655 33/// /1101 11066 21080 38942 48431 50001 333 91102 91201;
0137066550999992010011202004+46817+008417FM-12+103599999V0201101N001019999999N9999999N1-00641-00791999999ADDMA1999999089401MD1819999+9999ME1314309OA149900151REMSYN076AAXX  12024 06655 33/// /1102 11064 21079 38940 48430 58/// 333 91103 91202;
0137066550999992010011203004+46817+008417FM-12+103599999V0201301N000519999999N9999999N1-00661-00731999999ADDMA1999999089411MD1510021+9999ME1314319OA149900151REMSYN076AAXX  12034 06655 33/// /1301 11066 21073 38941 48431 55002 333 91103 91202;
0137066550999992010011204004+46817+008417FM-12+103599999V0202201N000519999999N9999999N1-00631-00741999999ADDMA1999999089401MD1710021+9999ME1314309OA149900151REMSYN076AAXX  12044 06655 33/// /2201 11063 21074 38940 48430 57002 333 91103 91201;
0137066550999992010011205004+46817+008417FM-12+103599999V0209999C000019999999N9999999N1-00641-00761999999ADDMA1999999089361MD1710041+9999ME1314279OA149900101REMSYN076AAXX  12054 06655 33/// /0000 11064 21076 38936 48427 57004 333 91102 91201;
0234066550999992010011206004+46817+008417FM-12+103599999V0201201N000519999999N9999999N1-00641-00751999999ADDAA124000091AL19900091GJ101149IA2999-00909KA1999N-00841MA1999999089341MD1710071+9999ME1314259OA149900151REMSYN100AAXX  12064 06655 33/// /1201 11064 21075 38934 48425 57007 333 21084 3/109 55019 70000 91103 91202;EQDQ01  00002PRCP24
0137066550999992010011207004+46817+008417FM-12+103599999V0201101N000519999999N9999999N1-00661-00781999999ADDMA1999999089291MD1810111+9999ME1314209OA149900151REMSYN076AAXX  12074 06655 33/// /1101 11066 21078 38929 48420 58011 333 91103 91202;
0137066550999992010011208004+46817+008417FM-12+103599999V0209999C000019999999N9999999N1-00821-00831999999ADDMA1999999089251MD1719999+9999ME1314149OA149900151REMSYN076AAXX  12084 06655 33/// /0000 11082 21083 38925 48414 57/// 333 91103 91202;
0137066550999992010011209004+46817+008417FM-12+103599999V0201201N000519999999N9999999N1-00871-01011999999ADDMA1999999089191MD1710151+9999ME1314089OA149900151REMSYN076AAXX  12094 06655 33/// /1201 11087 21101 38919 48408 57015 333 91103 91202;
0137066550999992010011210004+46817+008417FM-12+103599999V0209999C000019999999N9999999N1-00821-00961999999ADDMA1999999089101MD1710191+9999ME1314019OA149900051REMSYN076AAXX  12104 06655 33/// /0000 11082 21096 38910 48401 57019 333 91101 91201;
0137066550999992010011211004+46817+008417FM-12+103599999V0201101N000519999999N9999999N1-00661-00851999999ADDMA1999999089061MD1810191+9999ME1314009OA149900101REMSYN076AAXX  12114 06655 33/// /1101 11066 21085 38906 48400 58019 333 91102 91201;
0137066550999992010011212004+46817+008417FM-12+103599999V0201301N000519999999N9999999N1-00611-00781999999ADDMA1999999088981MD1710211+9999ME1313949OA149900151REMSYN076AAXX  12124 06655 33/// /1301 11061 21078 38898 48394 57021 333 91103 91202;
0137066550999992010011213004+46817+008417FM-12+103599999V0201701N000519999999N9999999N1-00651-00801999999ADDMA1999999088941MD1610161+9999ME1313909OA149900151REMSYN076AAXX  12134 06655 33/// /1701 11065 21080 38894 48390 56016 333 91103 91201;
0096066550999992010011214004+46817+008417FM-12+103599999V0201101N000519999999N9999999N1-00751-00781999999ADDMA1999999088871ME1313829REMSYN060AAXX  12144 06655 33/// /1101 11075 21078 38887 48382 5////;
0137066550999992010011215004+46817+008417FM-12+103599999V0209999C000019999999N9999999N1-00851-00981999999ADDMA1999999088781MD1810201+9999ME1313739OA149900211REMSYN076AAXX  12154 06655 33/// /0000 11085 21098 38878 48373 58020 333 91104 91203;
0137066550999992010011216004+46817+008417FM-12+103599999V0200801N000519999999N9999999N1-00881-01031999999ADDMA1999999088721MD1610221+9999ME1313689OA149900211REMSYN076AAXX  12164 06655 33/// /0801 11088 21103 38872 48368 56022 333 91104 91202;
0137066550999992010011217004+46817+008417FM-12+103599999V0202801N000519999999N9999999N1-00921-01061999999ADDMA1999999088671MD1710201+9999ME1313639OA149900151REMSYN076AAXX  12174 06655 33/// /2801 11092 21106 38867 48363 57020 333 91103 91201;
0156066550999992010011218004+46817+008417FM-12+103599999V0201001N000519999999N9999999N1-00911-01031999999ADDKA1120M-00601MA1999999088641MD1710141+9999ME1313609OA149900211REMSYN082AAXX  12184 06655 33/// /1001 11091 21103 38864 48360 57014 333 11060 91104 91203;
0137066550999992010011219004+46817+008417FM-12+103599999V0200901N000519999999N9999999N1-00801-00901999999ADDMA1999999088631MD1710091+9999ME1313619OA149900151REMSYN076AAXX  12194 06655 33/// /0901 11080 21090 38863 48361 57009 333 91103 91202;
0137066550999992010011220004+46817+008417FM-12+103599999V0201101N001019999999N9999999N1-00661-00781999999ADDMA1999999088561MD1810111+9999ME1313579OA149900151REMSYN076AAXX  12204 06655 33/// /1102 11066 21078 38856 48357 58011 333 91103 91202;
0137066550999992010011221004+46817+008417FM-12+103599999V0209999C000019999999N9999999N1-00631-00731999999ADDMA1999999088501MD1810141+9999ME1313529OA149900151REMSYN076AAXX  12214 06655 33/// /0000 11063 21073 38850 48352 58014 333 91103 91202;
0137066550999992010011222004+46817+008417FM-12+103599999V0201001N000519999999N9999999N1-00781-00871999999ADDMA1999999088461MD1610171+9999ME1313469OA149900151REMSYN076AAXX  12224 06655 33/// /1001 11078 21087 38846 48346 56017 333 91103 91202;
0137066550999992010011223004+46817+008417FM-12+103599999V0201101N000519999999N9999999N1-00571-00711999999ADDMA1999999088391MD1810171+9999ME1313439OA149900211REMSYN076AAXX  12234 06655 33/// /1101 11057 21071 38839 48343 58017 333 91104 91203;
0137066550999992010011300004+46817+008417FM-12+103599999V0201201N001019999999N9999999N1-00381-00631999999ADDMA1999999088481MD1510021+9999ME1313539OA149900211REMSYN076AAXX  13004 06655 33/// /1202 11038 21063 38848 48353 55002 333 91104 91203;
0137066550999992010011301004+46817+008417FM-12+103599999V0202501N001519999999N9999999N1-00691-00731999999ADDMA1999999088581MD1310121+9999ME1313589OA149900311REMSYN076AAXX  13014 06655 33/// /2503 11069 21073 38858 48358 53012 333 91106 91203;
0137066550999992010011302004+46817+008417FM-12+103599999V0200901N000519999999N9999999N1-00711-00711999999ADDMA1999999088551MD1219999+9999ME1313559OA149900311REMSYN076AAXX  13024 06655 33/// /0901 11071 21071 38855 48355 52/// 333 91106 91203;
0137066550999992010011303004+46817+008417FM-12+103599999V0201001N001019999999N9999999N1-00621-00711999999ADDMA1999999088441MD1819999+9999ME1313479OA149900311REMSYN076AAXX  13034 06655 33/// /1002 11062 21071 38844 48347 58/// 333 91106 91203;
0137066550999992010011304004+46817+008417FM-12+103599999V0201001N001019999999N9999999N1-00341-00501999999ADDMA1999999088411MD1710171+9999ME1313479OA149900211REMSYN076AAXX  13044 06655 33/// /1002 11034 21050 38841 48347 57017 333 91104 91203;
0137066550999992010011305004+46817+008417FM-12+103599999V0201101N000519999999N9999999N1-00361-00491999999ADDMA1999999088391MD1710161+9999ME1313459OA149900151REMSYN076AAXX  13054 06655 33/// /1101 11036 21049 38839 48345 57016 333 91103 91202;
0234066550999992010011306004+46817+008417FM-12+103599999V0201001N001519999999N9999999N1-00331-00461999999ADDAA124000091AL19900091GJ100969IA2999-01309KA1999N-00951MA1999999088411MD1510031+9999ME1313479OA149900311REMSYN100AAXX  13064 06655 33/// /1003 11033 21046 38841 48347 55003 333 21095 3/113 55016 70000 91106 91203;EQDQ01  00002PRCP24
0137066550999992010011307004+46817+008417FM-12+103599999V0201101N000519999999N9999999N1-00271-00431999999ADDMA1999999088471MD1210061+9999ME1313539OA149900211REMSYN076AAXX  13074 06655 33/// /1101 11027 21043 38847 48353 52006 333 91104 91203;
0137066550999992010011308004+46817+008417FM-12+103599999V0201201N000519999999N9999999N1-00301-00411999999ADDMA1999999088551MD1310161+9999ME1313609OA149900151REMSYN076AAXX  13084 06655 33/// /1201 11030 21041 38855 48360 53016 333 91103 91203;
0137066550999992010011309004+46817+008417FM-12+103599999V0201001N000519999999N9999999N1-00221-00371999999ADDMA1999999088611MD1310201+9999ME1313669OA149900211REMSYN076AAXX  13094 06655 33/// /1001 11022 21037 38861 48366 53020 333 91104 91203;
0137066550999992010011310004+46817+008417FM-12+103599999V0201001N000519999999N9999999N1-00141-00341999999ADDMA1999999088681MD1110211+9999ME1313749OA149900211REMSYN076AAXX  13104 06655 33/// /1001 11014 21034 38868 48374 51021 333 91104 91203;
0137066550999992010011311004+46817+008417FM-12+103599999V0201401N000519999999N9999999N1-00131-00241999999ADDMA1999999088671MD1210121+9999ME1313739OA149900151REMSYN076AAXX  13114 06655 33/// /1401 11013 21024 38867 48373 52012 333 91103 91203;
0137066550999992010011312004+46817+008417FM-12+103599999V0201301N000519999999N9999999N1-00021-00211999999ADDMA1999999088651MD1010041+9999ME1313739OA149900311REMSYN076AAXX  13124 06655 33/// /1301 11002 21021 38865 48373 50004 333 91106 91203;
0137066550999992010011313004+46817+008417FM-12+103599999V0201701N000519999999N9999999N1+00001-00151999999ADDMA1999999088641MD1610041+9999ME1313729OA149900151REMSYN076AAXX  13134 06655 33/// /1701 10000 21015 38864 48372 56004 333 91103 91202;
0137066550999992010011314004+46817+008417FM-12+103599999V0202501N000519999999N9999999N1+00001-00091999999ADDMA1999999088681MD1319999+9999ME1313759OA149900151REMSYN076AAXX  13144 06655 33/// /2501 10000 21009 38868 48375 53/// 333 91103 91202;
0154066550999992010011315004+46817+008417FM-12+103599999V0209999C000019999999N9999999N1-00051-00071999999ADDAA101000591MA1999999088721MD1310071+9999ME1313789OA149900151REMSYN082AAXX  13154 06655 23/// /0000 11005 21007 38872 48378 53007 333 69945 91103 91203;
0154066550999992010011316004+46817+008417FM-12+103599999V0209999C000019999999N9999999N1-00031-00061999999ADDAA101000021MA1999999088751MD1110111+9999ME1313819OA149900151REMSYN082AAXX  13164 06655 23/// /0000 11003 21006 38875 48381 51011 333 69925 91103 91202;
0154066550999992010011317004+46817+008417FM-12+103599999V0209999C000019999999N9999999N1-00061-00061999999ADDAA101000391MA1999999088811MD1110131+9999ME1313869OA149900101REMSYN082AAXX  13174 06655 23/// /0000 11006 21006 38881 48386 51013 333 69935 91102 91201;
0179066550999992010011318004+46817+008417FM-12+103599999V0200901N000519999999N9999999N1-00021-00061999999ADDAA112001091KA1120M+00021MA1999999088851MD1310131+9999ME1313909OA149900211REMSYN094AAXX  13184 06655 03/// /0901 11002 21006 38885 48390 53013 60012 333 10002 69955 91104 91203;
0154066550999992010011319004+46817+008417FM-12+103599999V0209999C000019999999N9999999N1-00031-00051999999ADDAA101000591MA1999999088871MD1110121+9999ME1313929OA149900101REMSYN082AAXX  13194 06655 23/// /0000 11003 21005 38887 48392 51012 333 69955 91102 91201;
0154066550999992010011320004+46817+008417FM-12+103599999V0209999C000019999999N9999999N1-00051-00061999999ADDAA101000591MA1999999088891MD1110081+9999ME1313949OA149900051REMSYN082AAXX  13204 06655 23/// /0000 11005 21006 38889 48394 51008 333 69945 91101 91201;
0154066550999992010011321004+46817+008417FM-12+103599999V0209999C000019999999N9999999N1-00061-00081999999ADDAA101000391MA1999999088881MD1010031+9999ME1313939OA149900101REMSYN082AAXX  13214 06655 23/// /0000 11006 21008 38888 48393 50003 333 69935 91102 91201;
0137066550999992010011322004+46817+008417FM-12+103599999V0209999C000019999999N9999999N1-00071-00121999999ADDMA1999999088861MD1810011+9999ME1313919OA149900051REMSYN076AAXX  13224 06655 33/// /0000 11007 21012 38886 48391 58001 333 91101 91201;
0137066550999992010011323004+46817+008417FM-12+103599999V0209999C000019999999N9999999N1-00091-00111999999ADDMA1999999088831MD1810061+9999ME1313889OA149900051REMSYN076AAXX  13234 06655 33/// /0000 11009 21011 38883 48388 58006 333 91101 91201;
0160066550999992010011400004+46817+008417FM-12+103599999V0209999C000019999999N9999999N1-00071-00101999999ADDAA106001091MA1999999088781MD1810101+9999ME1313849OA149900151REMSYN088AAXX  14004 06655 03/// /0000 11007 21010 38878 48384 58010 60011 333 60005 91103 91202;
0137066550999992010011401004+46817+008417FM-12+103599999V0209999C000019999999N9999999N1-00071-00151999999ADDMA1999999088741MD1610121+9999ME1313809OA149900101REMSYN076AAXX  14014 06655 33/// /0000 11007 21015 38874 48380 56012 333 91102 91201;
0137066550999992010011402004+46817+008417FM-12+103599999V0201201N000519999999N9999999N1-00301-00381999999ADDMA1999999088681MD1819999+9999ME1313729OA149900101REMSYN076AAXX  14024 06655 33/// /1201 11030 21038 38868 48372 58/// 333 91102 91201;
0096066550999992010011403004+46817+008417FM-12+103599999V0201001N000519999999N9999999N1-00421-00541999999ADDMA1999999088661ME1313689REMSYN060AAXX  14034 06655 33/// /1001 11042 21054 38866 48368 5////;
0137066550999992010011404004+46817+008417FM-12+103599999V0201001N000519999999N9999999N1-00501-00601999999ADDMA1999999088651MD1710091+9999ME1313669OA149900051REMSYN076AAXX  14044 06655 33/// /1001 11050 21060 38865 48366 57009 333 91101 91201;
0137066550999992010011405004+46817+008417FM-12+103599999V0209999C000019999999N9999999N1-00471-00581999999ADDMA1999999088631MD1710051+9999ME1313659OA149900051REMSYN076AAXX  14054 06655 33/// /0000 11047 21058 38863 48365 57005 333 91101 91201;
0238066550999992010011406004+46817+008417FM-12+103599999V0200801N000519999999N9999999N1-00611-00731999999ADDAA112001091AA224002591AL13600291GJ100009IA2999-01009KA1999N-00591MA1999999088581MD1810081+9999ME1313599OA149900101REMSYN112AAXX  14064 06655 03/// /0801 11061 21073 38858 48359 58008 60012 333 21059 3/110 55000 60005 70026 91102 91201;
0137066550999992010011407004+46817+008417FM-12+103599999V0201001N000519999999N9999999N1-00621-00721999999ADDMA1999999088581MD1710071+9999ME1313599OA149900051REMSYN076AAXX  14074 06655 33/// /1001 11062 21072 38858 48359 57007 333 91101 91201;
0137066550999992010011408004+46817+008417FM-12+103599999V0209999C000019999999N9999999N1-00661-00761999999ADDMA1999999088551MD1719999+9999ME1313569OA149900101REMSYN076AAXX  14084 06655 33/// /0000 11066 21076 38855 48356 57/// 333 91102 91201;
0137066550999992010011409004+46817+008417FM-12+103599999V0201001N000519999999N9999999N1-00571-00731999999ADDMA1999999088531MD1710051+9999ME1313559OA149900101REMSYN076AAXX  14094 06655 33/// /1001 11057 21073 38853 48355 57005 333 91102 91201;
0137066550999992010011410004+46817+008417FM-12+103599999V0201001N000519999999N9999999N1-00511-00681999999ADDMA1999999088531MD1710051+9999ME1313569OA149900101REMSYN076AAXX  14104 06655 33/// /1001 11051 21068 38853 48356 57005 333 91102 91201;
0137066550999992010011411004+46817+008417FM-12+103599999V0201001N001519999999N9999999N1-00381-00591999999ADDMA1999999088491MD1710061+9999ME1313549OA149900211REMSYN076AAXX  14114 06655 33/// /1003 11038 21059 38849 48354 57006 333 91104 91203;
0137066550999992010011412004+46817+008417FM-12+103599999V0201101N001019999999N9999999N1-00331-00611999999ADDMA1999999088421MD1710111+9999ME1313489OA149900261REMSYN076AAXX  14124 06655 33/// /1102 11033 21061 38842 48348 57011 333 91105 91204;
0137066550999992010011413004+46817+008417FM-12+103599999V0209999C000019999999N9999999N1-00201-00461999999ADDMA1999999088401MD1710131+9999ME1313489OA149900261REMSYN076AAXX  14134 06655 33/// /0000 11020 21046 38840 48348 57013 333 91105 91204;
0137066550999992010011414004+46817+008417FM-12+103599999V0201801N000519999999N9999999N1-00301-00301999999ADDMA1999999088461MD1510031+9999ME1313529OA149900261REMSYN076AAXX  14144 06655 33/// /1801 11030 21030 38846 48352 55003 333 91105 91203;
0137066550999992010011415004+46817+008417FM-12+103599999V0200901N000519999999N9999999N1-00331-00331999999ADDMA1999999088511MD1210091+9999ME1313569OA149900261REMSYN076AAXX  14154 06655 33/// /0901 11033 21033 38851 48356 52009 333 91105 91204;
0137066550999992010011416004+46817+008417FM-12+103599999V0201101N000519999999N9999999N1-00361-00451999999ADDMA1999999088491MD1010091+9999ME1313549OA149900211REMSYN076AAXX  14164 06655 33/// /1101 11036 21045 38849 48354 50009 333 91104 91202;
0137066550999992010011417004+46817+008417FM-12+103599999V0202501N001019999999N9999999N1-00361-00461999999ADDMA1999999088521MD1210061+9999ME1313579OA149900151REMSYN076AAXX  14174 06655 33/// /2502 11036 21046 38852 48357 52006 333 91103 91203;
0156066550999992010011418004+46817+008417FM-12+103599999V0201101N001519999999N9999999N1-00491-00491999999ADDKA1120M-00171MA1999999088621MD1210111+9999ME1313649OA149900261REMSYN082AAXX  14184 06655 33/// /1103 11049 21049 38862 48364 52011 333 11017 91105 91204;
0137066550999992010011419004+46817+008417FM-12+103599999V0202601N001019999999N9999999N1-00511-00591999999ADDMA1999999088691MD1210201+9999ME1313709OA149900211REMSYN076AAXX  14194 06655 33/// /2602 11051 21059 38869 48370 52020 333 91104 91203;
0137066550999992010011420004+46817+008417FM-12+103599999V0209999C000019999999N9999999N1-00621-00621999999ADDMA1999999088761MD1210241+9999ME1313759OA149900211REMSYN076AAXX  14204 06655 33/// /0000 11062 21062 38876 48375 52024 333 91104 91203;
0137066550999992010011421004+46817+008417FM-12+103599999V0201001N000519999999N9999999N1-00551-00601999999ADDMA1999999088871MD1310251+9999ME1313859OA149900211REMSYN076AAXX  14214 06655 33/// /1001 11055 21060 38887 48385 53025 333 91104 91203;
0137066550999992010011422004+46817+008417FM-12+103599999V0201001N000519999999N9999999N1-00761-00811999999ADDMA1999999088921MD1110231+9999ME1313879OA149900211REMSYN076AAXX  14224 06655 33/// /1001 11076 21081 38892 48387 51023 333 91104 91203;
0137066550999992010011423004+46817+008417FM-12+103599999V0209999C000019999999N9999999N1-00591-00751999999ADDMA1999999089011MD1110251+9999ME1313979OA149900211REMSYN076AAXX  14234 06655 33/// /0000 11059 21075 38901 48397 51025 333 91104 91203;
0137066550999992010011500004+46817+008417FM-12+103599999V0201001N000519999999N9999999N1-00741-00841999999ADDMA1999999089061MD1110191+9999ME1313999OA149900261REMSYN076AAXX  15004 06655 33/// /1001 11074 21084 38906 48399 51019 333 91105 91203;
0137066550999992010011501004+46817+008417FM-12+103599999V0201001N001019999999N9999999N1-00721-00841999999ADDMA1999999089131MD1310211+9999ME1314059OA149900151REMSYN076AAXX  15014 06655 33/// /1002 11072 21084 38913 48405 53021 333 91103 91202;
0137066550999992010011502004+46817+008417FM-12+103599999V0201101N002119999999N9999999N1-00581-00831999999ADDMA1999999089211MD1210201+9999ME1314149OA149900211REMSYN076AAXX  15024 06655 33/// /1104 11058 21083 38921 48414 52020 333 91104 91204;
0096066550999992010011503004+46817+008417FM-12+103599999V0201101N000519999999N9999999N1-00581-00901999999ADDMA1999999089281ME1314209REMSYN060AAXX  15034 06655 33/// /1101 11058 21090 38928 48420 5////;
0137066550999992010011504004+46817+008417FM-12+103599999V0209999C000019999999N9999999N1-00731-00901999999ADDMA1999999089331MD1110201+9999ME1314239OA149900211REMSYN076AAXX  15044 06655 33/// /0000 11073 21090 38933 48423 51020 333 91104 91203;
0137066550999992010011505004+46817+008417FM-12+103599999V0201101N001019999999N9999999N1-00681-00861999999ADDMA1999999089451MD1310241+9999ME1314349OA149900151REMSYN076AAXX  15054 06655 33/// /1102 11068 21086 38945 48434 53024 333 91103 91202;
0234066550999992010011506004+46817+008417FM-12+103599999V0201001N000519999999N9999999N1-00691-00941999999ADDAA124000091AL19900091GJ100909IA2999-01209KA1999N-00761MA1999999089541MD1210261+9999ME1314419OA149900211REMSYN100AAXX  15064 06655 33/// /1001 11069 21094 38954 48441 52026 333 21076 3/112 55015 70000 91104 91204;EQDQ01  00002PRCP24
0137066550999992010011507004+46817+008417FM-12+103599999V0200901N001519999999N9999999N1-00611-00931999999ADDMA1999999089611MD1110281+9999ME1314499OA149900211REMSYN076AAXX  15074 06655 33/// /0903 11061 21093 38961 48449 51028 333 91104 91203;
0137066550999992010011508004+46817+008417FM-12+103599999V0202801N000519999999N9999999N1-00741-00911999999ADDMA1999999089701MD1119999+9999ME1314549OA149900211REMSYN076AAXX  15084 06655 33/// /2801 11074 21091 38970 48454 51/// 333 91104 91203;
0137066550999992010011509004+46817+008417FM-12+103599999V0201001N000519999999N9999999N1-00571-00841999999ADDMA1999999089791MD1310251+9999ME1314659OA149900311REMSYN076AAXX  15094 06655 33/// /1001 11057 21084 38979 48465 53025 333 91106 91204;
0137066550999992010011510004+46817+008417FM-12+103599999V0201001N001519999999N9999999N1-00551-00841999999ADDMA1999999089851MD1110241+9999ME1314709OA149900311REMSYN076AAXX  15104 06655 33/// /1003 11055 21084 38985 48470 51024 333 91106 91204;
0137066550999992010011511004+46817+008417FM-12+103599999V0209999C000019999999N9999999N1-00301-00751999999ADDMA1999999089871MD1110171+9999ME1314769OA149900211REMSYN076AAXX  15114 06655 33/// /0000 11030 21075 38987 48476 51017 333 91104 91203;
0137066550999992010011512004+46817+008417FM-12+103599999V0209999C000019999999N9999999N1-00301-00661999999ADDMA1999999089911MD1110121+9999ME1314809OA149900311REMSYN076AAXX  15124 06655 33/// /0000 11030 21066 38991 48480 51012 333 91106 91204;
0137066550999992010011513004+46817+008417FM-12+103599999V0209999C000019999999N9999999N1-00211-00591999999ADDMA1999999089921MD1310071+9999ME1314829OA149900151REMSYN076AAXX  15134 06655 33/// /0000 11021 21059 38992 48482 53007 333 91103 91202;
0137066550999992010011514004+46817+008417FM-12+103599999V0201201N001019999999N9999999N1-00341-00551999999ADDMA1999999090031MD1310161+9999ME1314899OA149900261REMSYN076AAXX  15144 06655 33/// /1202 11034 21055 39003 48489 53016 333 91105 91203;
0137066550999992010011515004+46817+008417FM-12+103599999V0201001N000519999999N9999999N1-00251-00541999999ADDMA1999999090081MD1310171+9999ME1314959OA149900361REMSYN076AAXX  15154 06655 33/// /1001 11025 21054 39008 48495 53017 333 91107 91204;
0137066550999992010011516004+46817+008417FM-12+103599999V0202401N000519999999N9999999N1-00391-00541999999ADDMA1999999090141MD1110221+9999ME1314989OA149900361REMSYN076AAXX  15164 06655 33/// /2401 11039 21054 39014 48498 51022 333 91107 91204;
0137066550999992010011517004+46817+008417FM-12+103599999V0209999C000019999999N9999999N1-00401-00631999999ADDMA1999999090131MD1210101+9999ME1314979OA149900151REMSYN076AAXX  15174 06655 33/// /0000 11040 21063 39013 48497 52010 333 91103 91202;
0156066550999992010011518004+46817+008417FM-12+103599999V0200901N001019999999N9999999N1-00471-00671999999ADDKA1120M-00151MA1999999090201MD1210121+9999ME1315029OA149900361REMSYN082AAXX  15184 06655 33/// /0902 11047 21067 39020 48502 52012 333 11015 91107 91204;
0137066550999992010011519004+46817+008417FM-12+103599999V0201101N001019999999N9999999N1-00531-00821999999ADDMA1999999090201MD1210061+9999ME1315019OA149900211REMSYN076AAXX  15194 06655 33/// /1102 11053 21082 39020 48501 52006 333 91104 91202;
0137066550999992010011520004+46817+008417FM-12+103599999V0201101N000519999999N9999999N1-00481-00771999999ADDMA1999999090201MD1010071+9999ME1315029OA149900211REMSYN076AAXX  15204 06655 33/// /1101 11048 21077 39020 48502 50007 333 91104 91202;
0137066550999992010011521004+46817+008417FM-12+103599999V0201001N001019999999N9999999N1-00571-00901999999ADDMA1999999090201MD1410001+9999ME1315009OA149900211REMSYN076AAXX  15214 06655 33/// /1002 11057 21090 39020 48500 54000 333 91104 91202;
0137066550999992010011522004+46817+008417FM-12+103599999V0201001N001519999999N9999999N1-00611-00901999999ADDMA1999999090191MD1710011+9999ME1314999OA149900211REMSYN076AAXX  15224 06655 33/// /1003 11061 21090 39019 48499 57001 333 91104 91203;
0137066550999992010011523004+46817+008417FM-12+103599999V0200901N000519999999N9999999N1-00611-01021999999ADDMA1999999090161MD1810041+9999ME1314969OA149900211REMSYN076AAXX  15234 06655 33/// /0901 11061 21102 39016 48496 58004 333 91104 91203;
0137066550999992010011600004+46817+008417FM-12+103599999V0209999C000019999999N9999999N1-00671-01051999999ADDMA1999999090201MD1510001+9999ME1314989OA149900361REMSYN076AAXX  16004 06655 33/// /0000 11067 21105 39020 48498 55000 333 91107 91204;
0137066550999992010011601004+46817+008417FM-12+103599999V0200901N000519999999N9999999N1-00761-01101999999ADDMA1999999090151MD1710041+9999ME1314939OA149900211REMSYN076AAXX  16014 06655 33/// /0901 11076 21110 39015 48493 57004 333 91104 91203;
0137066550999992010011602004+46817+008417FM-12+103599999V0209999C000019999999N9999999N1-00841-01151999999ADDMA1999999090131MD1810031+9999ME1314899OA149900261REMSYN076AAXX  16024 06655 33/// /0000 11084 21115 39013 48489 58003 333 91105 91204;
0137066550999992010011603004+46817+008417FM-12+103599999V0201001N002119999999N9999999N1-00551-01091999999ADDMA1999999090111MD1719999+9999ME1314939OA149900311REMSYN076AAXX  16034 06655 33/// /1004 11055 21109 39011 48493 57/// 333 91106 91204;
0137066550999992010011604004+46817+008417FM-12+103599999V0201001N000519999999N9999999N1-00531-01141999999ADDMA1999999090041MD1710111+9999ME1314879OA149900311REMSYN076AAXX  16044 06655 33/// /1001 11053 21114 39004 48487 57011 333 91106 91204;
0137066550999992010011605004+46817+008417FM-12+103599999V0201301N000519999999N9999999N1-00781-01011999999ADDMA1999999090071MD1710061+9999ME1314859OA149900261REMSYN076AAXX  16054 06655 33/// /1301 11078 21101 39007 48485 57006 333 91105 91203;
0234066550999992010011606004+46817+008417FM-12+103599999V0200901N001019999999N9999999N1-00421-01041999999ADDAA124000091AL19900091GJ101569IA2999-01309KA1999N-00941MA1999999089951MD1710161+9999ME1314819OA149900361REMSYN100AAXX  16064 06655 33/// /0902 11042 21104 38995 48481 57016 333 21094 3/113 55026 70000 91107 91205;EQDQ01  00002PRCP24
0137066550999992010011607004+46817+008417FM-12+103599999V0201001N001519999999N9999999N1-00531-01031999999ADDMA1999999089971MD1710071+9999ME1314819OA149900361REMSYN076AAXX  16074 06655 33/// /1003 11053 21103 38997 48481 57007 333 91107 91205;
0137066550999992010011608004+46817+008417FM-12+103599999V0209999C000019999999N9999999N1-00551-00981999999ADDMA1999999089901MD1710171+9999ME1314759OA149900261REMSYN076AAXX  16084 06655 33/// /0000 11055 21098 38990 48475 57017 333 91105 91204;
0137066550999992010011609004+46817+008417FM-12+103599999V0201001N000519999999N9999999N1-00621-00991999999ADDMA1999999089851MD1710101+9999ME1314699OA149900361REMSYN076AAXX  16094 06655 33/// /1001 11062 21099 38985 48469 57010 333 91107 91205;
0137066550999992010011610004+46817+008417FM-12+103599999V0209999C000019999999N9999999N1-00441-00911999999ADDMA1999999089821MD1710151+9999ME1314709OA149900211REMSYN076AAXX  16104 06655 33/// /0000 11044 21091 38982 48470 57015 333 91104 91203;
0137066550999992010011611004+46817+008417FM-12+103599999V0200801N000519999999N9999999N1-00211-00641999999ADDMA1999999089781MD1710121+9999ME1314709OA149900211REMSYN076AAXX  16114 06655 33/// /0801 11021 21064 38978 48470 57012 333 91104 91203;
0137066550999992010011612004+46817+008417FM-12+103599999V0202201N002119999999N9999999N1-00421-00601999999ADDMA1999999089761MD1710091+9999ME1314659OA149900361REMSYN076AAXX  16124 06655 33/// /2204 11042 21060 38976 48465 57009 333 91107 91205;
0137066550999992010011613004+46817+008417FM-12+103599999V0202501N001019999999N9999999N1-00251-00601999999ADDMA1999999089741MD1510081+9999ME1314669OA149900361REMSYN076AAXX  16134 06655 33/// /2502 11025 21060 38974 48466 55008 333 91107 91205;
0137066550999992010011614004+46817+008417FM-12+103599999V0200601N001019999999N9999999N1-00381-00581999999ADDMA1999999089701MD1719999+9999ME1314609OA149900361REMSYN076AAXX  16144 06655 33/// /0602 11038 21058 38970 48460 57/// 333 91107 91205;
0137066550999992010011615004+46817+008417FM-12+103599999V0200901N001019999999N9999999N1-00341-00561999999ADDMA1999999089641MD1810121+9999ME1314569OA149900361REMSYN076AAXX  16154 06655 33/// /0902 11034 21056 38964 48456 58012 333 91107 91205;
0137066550999992010011616004+46817+008417FM-12+103599999V0201101N002619999999N9999999N1-00291-00531999999ADDMA1999999089661MD1710081+9999ME1314589OA149900311REMSYN076AAXX  16164 06655 33/// /1105 11029 21053 38966 48458 57008 333 91106 91205;
0137066550999992010011617004+46817+008417FM-12+103599999V0201101N001019999999N9999999N1-00061-00521999999ADDMA1999999089591MD1710111+9999ME1314569OA149900311REMSYN076AAXX  16174 06655 33/// /1102 11006 21052 38959 48456 57011 333 91106 91205;
0156066550999992010011618004+46817+008417FM-12+103599999V0202401N001519999999N9999999N1-00441-00471999999ADDKA1120M-00011MA1999999089671MD1210031+9999ME1314579OA149900511REMSYN082AAXX  16184 06655 33/// /2403 11044 21047 38967 48457 52003 333 11001 91110 91205;
0137066550999992010011619004+46817+008417FM-12+103599999V0200901N001019999999N9999999N1-00381-00491999999ADDMA1999999089661MD1510001+9999ME1314579OA149900511REMSYN076AAXX  16194 06655 33/// /0902 11038 21049 38966 48457 55000 333 91110 91204;
0137066550999992010011620004+46817+008417FM-12+103599999V0201101N001519999999N9999999N1-00151-00471999999ADDMA1999999089581MD1810011+9999ME1314539OA149900511REMSYN076AAXX  16204 06655 33/// /1103 11015 21047 38958 48453 58001 333 91110 91205;
0137066550999992010011621004+46817+008417FM-12+103599999V0201001N001019999999N9999999N1+00031-00451999999ADDMA1999999089491MD1710181+9999ME1314489OA149900511REMSYN076AAXX  16214 06655 33/// /1002 10003 21045 38949 48448 57018 333 91110 91205;
0137066550999992010011622004+46817+008417FM-12+103599999V0202701N000519999999N9999999N1-00081-00351999999ADDMA1999999089431MD1710231+9999ME1314419OA149900311REMSYN076AAXX  16224 06655 33/// /2701 11008 21035 38943 48441 57023 333 91106 91203;
0137066550999992010011623004+46817+008417FM-12+103599999V0203101N001019999999N9999999N1-00051-00501999999ADDMA1999999089651MD1310071+9999ME1314619OA149900571REMSYN076AAXX  16234 06655 33/// /3102 11005 21050 38965 48461 53007 333 91111 91205;
0160066550999992010011700004+46817+008417FM-12+103599999V0201001N001019999999N9999999N1-00171-00231999999ADDAA106001091MA1999999089721MD1210231+9999ME1314659OA149900571REMSYN088AAXX  17004 06655 03/// /1002 11017 21023 38972 48465 52023 60011 333 60015 91111 91205;
0154066550999992010011701004+46817+008417FM-12+103599999V0201101N002619999999N9999999N1-00071-00151999999ADDAA101002091MA1999999089691MD1010261+9999ME1314649OA149900411REMSYN082AAXX  17014 06655 23/// /1105 11007 21015 38969 48464 50026 333 60025 91108 91205;
0154066550999992010011702004+46817+008417FM-12+103599999V0200901N001019999999N9999999N1+00011-00081999999ADDAA101000021MA1999999089591MD1819999+9999ME1314579OA149900461REMSYN082AAXX  17024 06655 23/// /0902 10001 21008 38959 48457 58/// 333 69915 91109 91205;
0096066550999992010011703004+46817+008417FM-12+103599999V0200901N002119999999N9999999N1+00091-00041999999ADDMA1999999089461ME1314469REMSYN060AAXX  17034 06655 43/// /0904 10009 21004 38946 48446 5////;
0154066550999992010011704004+46817+008417FM-12+103599999V0202401N001019999999N9999999N1+00091+00041999999ADDAA101000591MA1999999089591MD1510101+9999ME1314589OA149900411REMSYN082AAXX  17044 06655 23/// /2402 10009 20004 38959 48458 55010 333 69965 91108 91204;
0154066550999992010011705004+46817+008417FM-12+103599999V0209999C000019999999N9999999N1+00071+00031999999ADDAA101000591MA1999999089571MD1519999+9999ME1314569OA149900411REMSYN082AAXX  17054 06655 23/// /0000 10007 20003 38957 48456 55/// 333 69955 91108 91203;
0238066550999992010011706004+46817+008417FM-12+103599999V0201001N002119999999N9999999N1+00111+00051999999ADDAA112004191AA224004391AL11800491GJ101089IA2999-00509KA1999N-00451MA1999999089601MD1210141+9999ME1314599OA149900571REMSYN112AAXX  17064 06655 03/// /1004 10011 20005 38960 48459 52014 60042 333 21045 3/105 55018 69935 70043 91111 91205;
0137066550999992010011707004+46817+008417FM-12+103599999V0200701N001519999999N9999999N1+00211+00081999999ADDMA1999999089611MD1310021+9999ME1314629OA149900571REMSYN076AAXX  17074 06655 33/// /0703 10021 20008 38961 48462 53002 333 91111 91207;
0154066550999992010011708004+46817+008417FM-12+103599999V0200901N001019999999N9999999N1+00241+00101999999ADDAA101000591MA1999999089751MD1219999+9999ME1314759OA149900571REMSYN082AAXX  17084 06655 23/// /0902 10024 20010 38975 48475 52/// 333 69955 91111 91207;
0154066550999992010011709004+46817+008417FM-12+103599999V0201201N000519999999N9999999N1+00181+00091999999ADDAA101000021MA1999999089761MD1210161+9999ME1314759OA149900571REMSYN082AAXX  17094 06655 23/// /1201 10018 20009 38976 48475 52016 333 69915 91111 91207;
0154066550999992010011710004+46817+008417FM-12+103599999V0203401N000519999999N9999999N1+00311+00091999999ADDAA101000891MA1999999089851MD1210241+9999ME1314859OA149900361REMSYN082AAXX  17104 06655 23/// /3401 10031 20009 38985 48485 52024 333 69975 91107 91204;
0154066550999992010011711004+46817+008417FM-12+103599999V0200901N001019999999N9999999N1+00261+00111999999ADDAA101000021MA1999999089851MD1210101+9999ME1314849OA149900211REMSYN082AAXX  17114 06655 23/// /0902 10026 20011 38985 48484 52010 333 69925 91104 91203;
0160066550999992010011712004+46817+008417FM-12+103599999V0202901N001019999999N9999999N1+00311+00141999999ADDAA106002091MA1999999089881MD1210121+9999ME1314879OA149900571REMSYN088AAXX  17124 06655 03/// /2902 10031 20014 38988 48487 52012 60021 333 60005 91111 91207;
0137066550999992010011713004+46817+008417FM-12+103599999V0202101N002119999999N9999999N1+00381-00291999999ADDMA1999999089961MD1210111+9999ME1314969OA149900721REMSYN076AAXX  17134 06655 33/// /2104 10038 21029 38996 48496 52011 333 91114 91205;
0137066550999992010011714004+46817+008417FM-12+103599999V0202401N003119999999N9999999N1+00331-00291999999ADDMA1999999090021MD1319999+9999ME1315009OA149900721REMSYN076AAXX  17144 06655 33/// /2406 10033 21029 39002 48500 53/// 333 91114 91206;
0137066550999992010011715004+46817+008417FM-12+103599999V0202601N001519999999N9999999N1+00281-00291999999ADDMA1999999090101MD1110221+9999ME1315069OA149900771REMSYN076AAXX  17154 06655 33/// /2603 10028 21029 39010 48506 51022 333 91115 91206;
0137066550999992010011716004+46817+008417FM-12+103599999V0202701N001519999999N9999999N1+00281-00401999999ADDMA1999999090211MD1210251+9999ME1315169OA149900771REMSYN076AAXX  17164 06655 33/// /2703 10028 21040 39021 48516 52025 333 91115 91205;
0137066550999992010011717004+46817+008417FM-12+103599999V0202701N003119999999N9999999N1+00251-00441999999ADDMA1999999090311MD1210291+9999ME1315259OA149900771REMSYN076AAXX  17174 06655 33/// /2706 10025 21044 39031 48525 52029 333 91115 91207;
