0126066590999992011010100004+46983+008250FM-12+211099999V02099999999999999999N9999999N1-00061-02421999999ADDMA1999999078751MD1810061+9999ME1314889REMSYN076AAXX  01004 06659 33/// ///// 11006 21242 37875 48488 58006 333 55300 20000;
0126066590999992011010101004+46983+008250FM-12+211099999V02099999999999999999N9999999N1-00091-01861999999ADDMA1999999078711MD1810091+9999ME1314859REMSYN076AAXX  01014 06659 33/// ///// 11009 21186 37871 48485 58009 333 55300 20000;
0126066590999992011010102004+46983+008250FM-12+211099999V02099999999999999999N9999999N1-00051-02241999999ADDMA1999999078711MD1610071+9999ME1314849REMSYN076AAXX  01024 06659 33/// ///// 11005 21224 37871 48484 56007 333 55300 20000;
0126066590999992011010103004+46983+008250FM-12+211099999V02099999999999999999N9999999N1-00101-02261999999ADDMA1999999078691MD1610061+9999ME1314839REMSYN076AAXX  01034 06659 33/// ///// 11010 21226 37869 48483 56006 333 55300 20000;
0126066590999992011010104004+46983+008250FM-12+211099999V02099999999999999999N9999999N1-00211-01961999999ADDMA1999999078671MD1810041+9999ME1314839REMSYN076AAXX  01044 06659 33/// ///// 11021 21196 37867 48483 58004 333 55300 20000;
0126066590999992011010105004+46983+008250FM-12+211099999V02099999999999999999N9999999N1-00281-02151999999ADDMA1999999078661MD1610051+9999ME1314849REMSYN076AAXX  01054 06659 33/// ///// 11028 21215 37866 48484 56005 333 55300 20000;
0165066590999992011010106004+46983+008250FM-12+211099999V02099999999999999999N9999999N1-00201-02151999999ADDGJ104329KA1999N-00281MA1999999078671MD1510021+9999ME1314839REMSYN094AAXX  01064 06659 33/// ///// 11020 21215 37867 48483 55002 333 21028 55072 55300 20000 70000;
0126066590999992011010107004+46983+008250FM-12+211099999V02099999999999999999N9999999N1-00221-02401999999ADDMA1999999078681MD1110011+9999ME1314859REMSYN076AAXX  01074 06659 33/// ///// 11022 21240 37868 48485 51001 333 55300 20000;
0126066590999992011010108004+46983+008250FM-12+211099999V02099999999999999999N9999999N1-00171-01551999999ADDMA1999999078691MD1119999+9999ME1314859REMSYN076AAXX  01084 06659 33/// ///// 11017 21155 37869 48485 51/// 333 55301 20090;
0096066590999992011010109004+46983+008250FM-12+211099999V02099999999999999999N9999999N1-00141-01301999999ADDMA1999999078681ME1314839REMSYN060AAXX  01094 06659 43/// ///// 11014 21130 37868 48483 5////;
0096066590999992011010110004+46983+008250FM-12+211099999V02099999999999999999N9999999N1-00241-01591999999ADDMA1999999078681ME1314859REMSYN060AAXX  01104 06659 43/// ///// 11024 21159 37868 48485 5////;
0126066590999992011010111004+46983+008250FM-12+211099999V02099999999999999999N9999999N1-00321-01521999999ADDMA1999999078651MD1710041+9999ME1314849REMSYN076AAXX  01114 06659 33/// ///// 11032 21152 37865 48484 57004 333 553// 2////;
0096066590999992011010112004+46983+008250FM-12+211099999V02099999999999999999N9999999N1-00331-01371999999ADDMA1999999078611ME1314809REMSYN060AAXX  01124 06659 43/// ///// 11033 21137 37861 48480 5////;
0096066590999992011010113004+46983+008250FM-12+211099999V02099999999999999999N9999999N1-00231-01181999999ADDMA1999999078571ME1314749REMSYN060AAXX  01134 06659 43/// ///// 11023 21118 37857 48474 5////;
0096066590999992011010114004+46983+008250FM-12+211099999V02099999999999999999N9999999N1-00311-01221999999ADDMA1999999078561ME1314759REMSYN060AAXX  01144 06659 43/// ///// 11031 21122 37856 48475 5////;
0096066590999992011010115004+46983+008250FM-12+211099999V02099999999999999999N9999999N1-00311-01351999999ADDMA1999999078551ME1314749REMSYN060AAXX  01154 06659 43/// ///// 11031 21135 37855 48474 5////;
0096066590999992011010116004+46983+008250FM-12+211099999V02099999999999999999N9999999N1-00291-01211999999ADDMA1999999078531ME1314719REMSYN060AAXX  01164 06659 43/// ///// 11029 21121 37853 48471 5////;
0096066590999992011010117004+46983+008250FM-12+211099999V02099999999999999999N9999999N1-00371-01461999999ADDMA1999999078511ME1314719REMSYN060AAXX  01174 06659 43/// ///// 11037 21146 37851 48471 5////;
0096066590999992011010118004+46983+008250FM-12+211099999V02099999999999999999N9999999N1-00401-01571999999ADDMA1999999078481ME1314689REMSYN060AAXX  01184 06659 43/// ///// 11040 21157 37848 48468 5////;
0112066590999992011010119004+46983+008250FM-12+211099999V02099999999999999999N9999999N1-00521-01281999999ADDMA1999999078471ME1314709REMSYN076AAXX  01194 06659 33/// ///// 11052 21128 37847 48470 5//// 333 553// 20000;
0126066590999992011010120004+46983+008250FM-12+211099999V02099999999999999999N9999999N1-00531-00991999999ADDMA1999999078461MD1710051+9999ME1314709REMSYN076AAXX  01204 06659 33/// ///// 11053 21099 37846 48470 57005 333 55300 20000;
0126066590999992011010121004+46983+008250FM-12+211099999V02099999999999999999N9999999N1-00511-01361999999ADDMA1999999078451MD1719999+9999ME1314689REMSYN076AAXX  01214 06659 33/// ///// 11051 21136 37845 48468 57/// 333 55300 20000;
0126066590999992011010122004+46983+008250FM-12+211099999V02099999999999999999N9999999N1-00491-01061999999ADDMA1999999078431MD1810041+9999ME1314669REMSYN076AAXX  01224 06659 33/// ///// 11049 21106 37843 48466 58004 333 55300 20000;
0126066590999992011010123004+46983+008250FM-12+211099999V02099999999999999999N9999999N1-00411-00891999999ADDMA1999999078381MD1810081+9999ME1314599REMSYN076AAXX  01234 06659 33/// ///// 11041 21089 37838 48459 58008 333 55300 20000;
0126066590999992011010200004+46983+008250FM-12+211099999V02099999999999999999N9999999N1-00391-01091999999ADDMA1999999078321MD1819999+9999ME1314529REMSYN076AAXX  02004 06659 33/// ///// 11039 21109 37832 48452 58/// 333 55300 20000;
0126066590999992011010201004+46983+008250FM-12+211099999V02099999999999999999N9999999N1-00461-01241999999ADDMA1999999078311MD1610121+9999ME1314539REMSYN076AAXX  02014 06659 33/// ///// 11046 21124 37831 48453 56012 333 55300 20000;
0096066590999992011010202004+46983+008250FM-12+211099999V02099999999999999999N9999999N1-00461-00821999999ADDMA1999999078301ME1314529REMSYN060AAXX  02024 06659 43/// ///// 11046 21082 37830 48452 5////;
0096066590999992011010203004+46983+008250FM-12+211099999V02099999999999999999N9999999N1-00731-00931999999ADDMA1999999078271ME1314559REMSYN060AAXX  02034 06659 43/// ///// 11073 21093 37827 48455 5////;
0096066590999992011010204004+46983+008250FM-12+211099999V02099999999999999999N9999999N1-00811-00851999999ADDMA1999999078271ME1314579REMSYN060AAXX  02044 06659 43/// ///// 11081 21085 37827 48457 5////;
0096066590999992011010205004+46983+008250FM-12+211099999V02099999999999999999N9999999N1-00691-00861999999ADDMA1999999078261ME1314539REMSYN060AAXX  02054 06659 43/// ///// 11069 21086 37826 48453 5////;
0125066590999992011010206004+46983+008250FM-12+211099999V02099999999999999999N9999999N1-00921-01011999999ADDKA1999N-00901MA1999999078241ME1314579REMSYN076AAXX  02064 06659 43/// ///// 11092 21101 37824 48457 5//// 333 21090 55072;
0126066590999992011010207004+46983+008250FM-12+211099999V02099999999999999999N9999999N1-01011-01011999999ADDMA1999999078241MD1710031+9999ME1314599REMSYN076AAXX  02074 06659 33/// ///// 11101 21101 37824 48459 57003 333 55300 20000;
0126066590999992011010208004+46983+008250FM-12+211099999V02099999999999999999N9999999N1-00981-01091999999ADDMA1999999078271MD1310011+9999ME1314619REMSYN076AAXX  02084 06659 33/// ///// 11098 21109 37827 48461 53001 333 55300 20040;
0126066590999992011010209004+46983+008250FM-12+211099999V02099999999999999999N9999999N1-00861-00931999999ADDMA1999999078301MD1210061+9999ME1314619REMSYN076AAXX  02094 06659 33/// ///// 11086 21093 37830 48461 52006 333 55300 20281;
0126066590999992011010210004+46983+008250FM-12+211099999V02099999999999999999N9999999N1-00901-00901999999ADDMA1999999078321MD1110081+9999ME1314649REMSYN076AAXX  02104 06659 33/// ///// 11090 21090 37832 48464 51008 333 55300 20475;
0126066590999992011010211004+46983+008250FM-12+211099999V02099999999999999999N9999999N1-01001-01001999999ADDMA1999999078311MD1210041+9999ME1314669REMSYN076AAXX  02114 06659 33/// ///// 11100 21100 37831 48466 52004 333 55300 20626;
0126066590999992011010212004+46983+008250FM-12+211099999V02099999999999999999N9999999N1-00991-01001999999ADDMA1999999078281MD1810021+9999ME1314639REMSYN076AAXX  02124 06659 33/// ///// 11099 21100 37828 48463 58002 333 55300 20695;
0126066590999992011010213004+46983+008250FM-12+211099999V02099999999999999999N9999999N1-00991-00991999999ADDMA1999999078271MD1710051+9999ME1314629REMSYN076AAXX  02134 06659 33/// ///// 11099 21099 37827 48462 57005 333 55300 20540;
0118066590999992011010214004+46983+008250FM-12+211099999V02099999999999999999N9999999N1-01021-01051999999ADDMA1999999078281ME1314639REMSYN082AAXX  02144 06659 23/// ///// 11102 21105 37828 48463 5//// 333 553// 20284 69955;
0132066590999992011010215004+46983+008250FM-12+211099999V02099999999999999999N9999999N1-01121-01131999999ADDMA1999999078311MD1310031+9999ME1314699REMSYN082AAXX  02154 06659 23/// ///// 11112 21113 37831 48469 53003 333 55300 20126 69955;
0132066590999992011010216004+46983+008250FM-12+211099999V02099999999999999999N9999999N1-01151-01151999999ADDMA1999999078331MD1110061+9999ME1314729REMSYN082AAXX  02164 06659 23/// ///// 11115 21115 37833 48472 51006 333 55300 20014 69915;
0126066590999992011010217004+46983+008250FM-12+211099999V02099999999999999999N9999999N1-01201-01201999999ADDMA1999999078351MD1110071+9999ME1314759REMSYN076AAXX  02174 06659 33/// ///// 11120 21120 37835 48475 51007 333 55300 20000;
0168066590999992011010218004+46983+008250FM-12+211099999V02099999999999999999N9999999N1-01111-01121999999ADDAA112001091KA1120M-00761MA1999999078351MD1210041+9999ME1314739REMSYN094AAXX  02184 06659 03/// ///// 11111 21112 37835 48473 52004 60012 333 11076 55300 20000 60005;
0126066590999992011010219004+46983+008250FM-12+211099999V02099999999999999999N9999999N1-01191-01231999999ADDMA1999999078371MD1210041+9999ME1314779REMSYN076AAXX  02194 06659 33/// ///// 11119 21123 37837 48477 52004 333 55300 20000;
0126066590999992011010220004+46983+008250FM-12+211099999V02099999999999999999N9999999N1-01231-01471999999ADDMA1999999078371MD1210021+9999ME1314779REMSYN076AAXX  02204 06659 33/// ///// 11123 21147 37837 48477 52002 333 55300 20000;
0126066590999992011010221004+46983+008250FM-12+211099999V02099999999999999999N9999999N1-01231-01541999999ADDMA1999999078381MD1210031+9999ME1314789REMSYN076AAXX  02214 06659 33/// ///// 11123 21154 37838 48478 52003 333 55300 20000;
0126066590999992011010222004+46983+008250FM-12+211099999V02099999999999999999N9999999N1-01231-01451999999ADDMA1999999078391MD1210021+9999ME1314799REMSYN076AAXX  02224 06659 33/// ///// 11123 21145 37839 48479 52002 333 55300 20000;
0126066590999992011010223004+46983+008250FM-12+211099999V02099999999999999999N9999999N1-01271-01781999999ADDMA1999999078391MD1210021+9999ME1314809REMSYN076AAXX  02234 06659 33/// ///// 11127 21178 37839 48480 52002 333 55300 20000;
0126066590999992011010300004+46983+008250FM-12+211099999V02099999999999999999N9999999N1-01301-01951999999ADDMA1999999078371MD1810011+9999ME1314799REMSYN076AAXX  03004 06659 33/// ///// 11130 21195 37837 48479 58001 333 55300 20000;
0126066590999992011010301004+46983+008250FM-12+211099999V02099999999999999999N9999999N1-01291-01801999999ADDMA1999999078351MD1710041+9999ME1314779REMSYN076AAXX  03014 06659 33/// ///// 11129 21180 37835 48477 57004 333 55300 20000;
0126066590999992011010302004+46983+008250FM-12+211099999V02099999999999999999N9999999N1-01041-02471999999ADDMA1999999078361MD1519999+9999ME1314729REMSYN076AAXX  03024 06659 33/// ///// 11104 21247 37836 48472 55/// 333 55300 20000;
0096066590999992011010303004+46983+008250FM-12+211099999V02099999999999999999N9999999N1-00991-02701999999ADDMA1999999078361ME1314719REMSYN060AAXX  03034 06659 43/// ///// 11099 21270 37836 48471 5////;
0126066590999992011010304004+46983+008250FM-12+211099999V02099999999999999999N9999999N1-01041-02761999999ADDMA1999999078361MD1010011+9999ME1314729REMSYN076AAXX  03044 06659 33/// ///// 11104 21276 37836 48472 50001 333 55300 20000;
0126066590999992011010305004+46983+008250FM-12+211099999V02099999999999999999N9999999N1-01081-02861999999ADDMA1999999078351MD1710011+9999ME1314729REMSYN076AAXX  03054 06659 33/// ///// 11108 21286 37835 48472 57001 333 55300 20000;
0165066590999992011010306004+46983+008250FM-12+211099999V02099999999999999999N9999999N1-00941-03151999999ADDGJ100009KA1999N-01321MA1999999078361MD1010001+9999ME1314699REMSYN094AAXX  03064 06659 33/// ///// 11094 21315 37836 48469 50000 333 21132 55000 55300 20000 70011;
0126066590999992011010307004+46983+008250FM-12+211099999V02099999999999999999N9999999N1-00891-03051999999ADDMA1999999078361MD1510001+9999ME1314689REMSYN076AAXX  03074 06659 33/// ///// 11089 21305 37836 48468 55000 333 55300 20000;
0126066590999992011010308004+46983+008250FM-12+211099999V02099999999999999999N9999999N1-00861-02791999999ADDMA1999999078381MD1219999+9999ME1314699REMSYN076AAXX  03084 06659 33/// ///// 11086 21279 37838 48469 52/// 333 55301 20097;
0112066590999992011010309004+46983+008250FM-12+211099999V02099999999999999999N9999999N1-00821-03061999999ADDMA1999999078381ME1314699REMSYN076AAXX  03094 06659 33/// ///// 11082 21306 37838 48469 5//// 333 553// 20551;
0126066590999992011010310004+46983+008250FM-12+211099999V02099999999999999999N9999999N1-00721-02671999999ADDMA1999999078401MD1110041+9999ME1314689REMSYN076AAXX  03104 06659 33/// ///// 11072 21267 37840 48468 51004 333 553// 2////;
0126066590999992011010311004+46983+008250FM-12+211099999V02099999999999999999N9999999N1-00581-02171999999ADDMA1999999078391MD1010011+9999ME1314649REMSYN076AAXX  03114 06659 33/// ///// 11058 21217 37839 48464 50001 333 553// 2////;
0126066590999992011010312004+46983+008250FM-12+211099999V02099999999999999999N9999999N1-00431-01731999999ADDMA1999999078351MD1810031+9999ME1314569REMSYN076AAXX  03124 06659 33/// ///// 11043 21173 37835 48456 58003 333 553// 2////;
0126066590999992011010313004+46983+008250FM-12+211099999V02099999999999999999N9999999N1-00651-02501999999ADDMA1999999078341MD1710061+9999ME1314609REMSYN076AAXX  03134 06659 33/// ///// 11065 21250 37834 48460 57006 333 553// 2////;
0112066590999992011010314004+46983+008250FM-12+211099999V02099999999999999999N9999999N1-00691-02391999999ADDMA1999999078341ME1314619REMSYN076AAXX  03144 06659 33/// ///// 11069 21239 37834 48461 5//// 333 553// 2////;
0112066590999992011010315004+46983+008250FM-12+211099999V02099999999999999999N9999999N1-00741-02521999999ADDMA1999999078341ME1314639REMSYN076AAXX  03154 06659 33/// ///// 11074 21252 37834 48463 5//// 333 553// 20572;
0126066590999992011010316004+46983+008250FM-12+211099999V02099999999999999999N9999999N1-00751-03422999999ADDMA1999999078341MD1410001+9999ME1314639REMSYN076AAXX  03164 06659 33/// ///// 11075 21342 37834 48463 54000 333 55300 20032;
0126066590999992011010317004+46983+008250FM-12+211099999V02099999999999999999N9999999N1-00731-03281999999ADDMA1999999078331MD1710011+9999ME1314619REMSYN076AAXX  03174 06659 33/// ///// 11073 21328 37833 48461 57001 333 55300 20000;
0145066590999992011010318004+46983+008250FM-12+211099999V02099999999999999999N9999999N1-00751-03431999999ADDKA1120M-00431MA1999999078331MD1710011+9999ME1314629REMSYN082AAXX  03184 06659 33/// ///// 11075 21343 37833 48462 57001 333 11043 55300 20000;
0126066590999992011010319004+46983+008250FM-12+211099999V02099999999999999999N9999999N1-00731-04141999999ADDMA1999999078321MD1610021+9999ME1314609REMSYN076AAXX  03194 06659 33/// ///// 11073 21414 37832 48460 56002 333 55300 20000;
0126066590999992011010320004+46983+008250FM-12+211099999V02099999999999999999N9999999N1-00671-04231999999ADDMA1999999078291MD1810041+9999ME1314569REMSYN076AAXX  03204 06659 33/// ///// 11067 21423 37829 48456 58004 333 55300 20000;
0126066590999992011010321004+46983+008250FM-12+211099999V02099999999999999999N9999999N1-00631-03392999999ADDMA1999999078291MD1710041+9999ME1314559REMSYN076AAXX  03214 06659 33/// ///// 11063 21339 37829 48455 57004 333 55300 20000;
0126066590999992011010322004+46983+008250FM-12+211099999V02099999999999999999N9999999N1-00641-03461999999ADDMA1999999078271MD1710051+9999ME1314539REMSYN076AAXX  03224 06659 33/// ///// 11064 21346 37827 48453 57005 333 55300 20000;
0126066590999992011010323004+46983+008250FM-12+211099999V02099999999999999999N9999999N1-00681-02941999999ADDMA1999999078271MD1710021+9999ME1314549REMSYN076AAXX  03234 06659 33/// ///// 11068 21294 37827 48454 57002 333 55300 20000;
0126066590999992011010400004+46983+008250FM-12+211099999V02099999999999999999N9999999N1-00801-02871999999ADDMA1999999078251MD1810041+9999ME1314559REMSYN076AAXX  04004 06659 33/// ///// 11080 21287 37825 48455 58004 333 55300 20000;
0145066590999992011010401004+46983+008250FM-12+211099999V02099999999999999999N9999999N1-00961-01972999999ADDMA1999999078211MD1810061+9999ME1314559REMSYN076AAXX  04014 06659 33/// ///// 11096 21197 37821 48455 58006 333 55300 20000;EQDQ01-001973ATOD  
0126066590999992011010402004+46983+008250FM-12+211099999V02099999999999999999N9999999N1-00981-01421999999ADDMA1999999078181MD1819999+9999ME1314529REMSYN076AAXX  04024 06659 33/// ///// 11098 21142 37818 48452 58/// 333 55300 20000;
0126066590999992011010403004+46983+008250FM-12+211099999V02099999999999999999N9999999N1-01081-01121999999ADDMA1999999078151MD1610101+9999ME1314529REMSYN076AAXX  04034 06659 33/// ///// 11108 21112 37815 48452 56010 333 55300 20000;
0126066590999992011010404004+46983+008250FM-12+211099999V02099999999999999999N9999999N1-00991-00991999999ADDMA1999999078141MD1610071+9999ME1314499REMSYN076AAXX  04044 06659 33/// ///// 11099 21099 37814 48449 56007 333 55300 20000;
0126066590999992011010405004+46983+008250FM-12+211099999V02099999999999999999N9999999N1-00961-00961999999ADDMA1999999078131MD1710051+9999ME1314479REMSYN076AAXX  04054 06659 33/// ///// 11096 21096 37813 48447 57005 333 55300 20000;
0165066590999992011010406004+46983+008250FM-12+211099999V02099999999999999999N9999999N1-00971-00991999999ADDGJ104329KA1999N-01081MA1999999078101MD1710051+9999ME1314449REMSYN094AAXX  04064 06659 33/// ///// 11097 21099 37810 48444 57005 333 21108 55072 55300 20000 70000;
0126066590999992011010407004+46983+008250FM-12+211099999V02099999999999999999N9999999N1-00941-00991999999ADDMA1999999078101MD1710041+9999ME1314439REMSYN076AAXX  04074 06659 33/// ///// 11094 21099 37810 48443 57004 333 55300 20000;
0126066590999992011010408004+46983+008250FM-12+211099999V02099999999999999999N9999999N1-00961-01051999999ADDMA1999999078111MD1519999+9999ME1314459REMSYN076AAXX  04084 06659 33/// ///// 11096 21105 37811 48445 55/// 333 55300 20011;
0112066590999992011010409004+46983+008250FM-12+211099999V02099999999999999999N9999999N1-00911-01431999999ADDMA1999999078131ME1314469REMSYN076AAXX  04094 06659 33/// ///// 11091 21143 37813 48446 5//// 333 553// 20101;
0126066590999992011010410004+46983+008250FM-12+211099999V02099999999999999999N9999999N1-00891-01501999999ADDMA1999999078141MD1210041+9999ME1314469REMSYN076AAXX  04104 06659 33/// ///// 11089 21150 37814 48446 52004 333 55300 20400;
0126066590999992011010411004+46983+008250FM-12+211099999V02099999999999999999N9999999N1-00811-01191999999ADDMA1999999078101MD1810011+9999ME1314409REMSYN076AAXX  04114 06659 33/// ///// 11081 21119 37810 48440 58001 333 55305 20889;
0126066590999992011010412004+46983+008250FM-12+211099999V02099999999999999999N9999999N1-00721-01071999999ADDMA1999999078051MD1710081+9999ME1314339REMSYN076AAXX  04124 06659 33/// ///// 11072 21107 37805 48433 57008 333 553// 2////;
0126066590999992011010413004+46983+008250FM-12+211099999V02099999999999999999N9999999N1-00591-01041999999ADDMA1999999078031MD1610111+9999ME1314279REMSYN076AAXX  04134 06659 33/// ///// 11059 21104 37803 48427 56011 333 553// 2////;
0112066590999992011010414004+46983+008250FM-12+211099999V02099999999999999999N9999999N1-00771-01221999999ADDMA1999999078011ME1314309REMSYN076AAXX  04144 06659 33/// ///// 11077 21122 37801 48430 5//// 333 553// 20979;
0096066590999992011010415004+46983+008250FM-12+211099999V02099999999999999999N9999999N1-00731-01271999999ADDMA1999999078011ME1314299REMSYN060AAXX  04154 06659 43/// ///// 11073 21127 37801 48429 5////;
0126066590999992011010416004+46983+008250FM-12+211099999V02099999999999999999N9999999N1-00831-01511999999ADDMA1999999078001MD1610031+9999ME1314309REMSYN076AAXX  04164 06659 33/// ///// 11083 21151 37800 48430 56003 333 55300 20061;
0126066590999992011010417004+46983+008250FM-12+211099999V02099999999999999999N9999999N1-00821-01051999999ADDMA1999999078001MD1610011+9999ME1314309REMSYN076AAXX  04174 06659 33/// ///// 11082 21105 37800 48430 56001 333 55300 20000;
0145066590999992011010418004+46983+008250FM-12+211099999V02099999999999999999N9999999N1-00871-01111999999ADDKA1120M-00591MA1999999078021MD1310011+9999ME1314339REMSYN082AAXX  04184 06659 33/// ///// 11087 21111 37802 48433 53001 333 11059 55300 20000;
0126066590999992011010419004+46983+008250FM-12+211099999V02099999999999999999N9999999N1-00901-01061999999ADDMA1999999078031MD1310031+9999ME1314359REMSYN076AAXX  04194 06659 33/// ///// 11090 21106 37803 48435 53003 333 55300 20000;
0126066590999992011010420004+46983+008250FM-12+211099999V02099999999999999999N9999999N1-00871-01081999999ADDMA1999999077991MD1810011+9999ME1314309REMSYN076AAXX  04204 06659 33/// ///// 11087 21108 37799 48430 58001 333 55300 20000;
0126066590999992011010421004+46983+008250FM-12+211099999V02099999999999999999N9999999N1-00891-01601999999ADDMA1999999077961MD1710061+9999ME1314289REMSYN076AAXX  04214 06659 33/// ///// 11089 21160 37796 48428 57006 333 55300 20000;
0126066590999992011010422004+46983+008250FM-12+211099999V02099999999999999999N9999999N1-00871-01151999999ADDMA1999999077971MD1710061+9999ME1314289REMSYN076AAXX  04224 06659 33/// ///// 11087 21115 37797 48428 57006 333 55300 20000;
0126066590999992011010423004+46983+008250FM-12+211099999V02099999999999999999N9999999N1-00871-01021999999ADDMA1999999077971MD1710021+9999ME1314289REMSYN076AAXX  04234 06659 33/// ///// 11087 21102 37797 48428 57002 333 55300 20000;
0126066590999992011010500004+46983+008250FM-12+211099999V02099999999999999999N9999999N1-00971-00971999999ADDMA1999999077941MD1810021+9999ME1314289REMSYN076AAXX  05004 06659 33/// ///// 11097 21097 37794 48428 58002 333 55300 20000;
0126066590999992011010501004+46983+008250FM-12+211099999V02099999999999999999N9999999N1-01001-01081999999ADDMA1999999077941MD1710031+9999ME1314299REMSYN076AAXX  05014 06659 33/// ///// 11100 21108 37794 48429 57003 333 55300 20000;
0126066590999992011010502004+46983+008250FM-12+211099999V02099999999999999999N9999999N1-00991-01031999999ADDMA1999999077941MD1610031+9999ME1314289REMSYN076AAXX  05024 06659 33/// ///// 11099 21103 37794 48428 56003 333 55300 20000;
0096066590999992011010503004+46983+008250FM-12+211099999V02099999999999999999N9999999N1-01001-01021999999ADDMA1999999077931ME1314289REMSYN060AAXX  05034 06659 43/// ///// 11100 21102 37793 48428 5////;
0126066590999992011010504004+46983+008250FM-12+211099999V02099999999999999999N9999999N1-01001-01481999999ADDMA1999999077921MD1710021+9999ME1314279REMSYN076AAXX  05044 06659 33/// ///// 11100 21148 37792 48427 57002 333 55300 20000;
0126066590999992011010505004+46983+008250FM-12+211099999V02099999999999999999N9999999N1-00831-01681999999ADDMA1999999077921MD1710021+9999ME1314229REMSYN076AAXX  05054 06659 33/// ///// 11083 21168 37792 48422 57002 333 55300 20000;
0165066590999992011010506004+46983+008250FM-12+211099999V02099999999999999999N9999999N1-00791-01961999999ADDGJ102469KA1999N-01041MA1999999077951MD1310021+9999ME1314249REMSYN094AAXX  05064 06659 33/// ///// 11079 21196 37795 48424 53002 333 21104 55041 55300 20000 70000;
0126066590999992011010507004+46983+008250FM-12+211099999V02099999999999999999N9999999N1-00681-02191999999ADDMA1999999077961MD1310041+9999ME1314229REMSYN076AAXX  05074 06659 33/// /36// 11068 21219 37796 48422 53004 333 55300 20000;
0126066590999992011010508004+46983+008250FM-12+211099999V02099999999999999999N9999999N1-00581-01991999999ADDMA1999999077991MD1119999+9999ME1314239REMSYN076AAXX  05084 06659 33/// ///// 11058 21199 37799 48423 51/// 333 55301 20086;
0126066590999992011010509004+46983+008250FM-12+211099999V02099999999999999999N9999999N1-00491-01671999999ADDMA1999999078021MD1310071+9999ME1314249REMSYN076AAXX  05094 06659 33/// ///// 11049 21167 37802 48424 53007 333 553// 20522;
0126066590999992011010510004+46983+008250FM-12+211099999V02099999999999999999N9999999N1-00461-01461999999ADDMA1999999078031MD1219999+9999ME1314249REMSYN076AAXX  05104 06659 33/// ///// 11046 21146 37803 48424 52/// 333 55308 20929;
0126066590999992011010511004+46983+008250FM-12+211099999V02099999999999999999N9999999N1-00401-01331999999ADDMA1999999078031MD1210041+9999ME1314229REMSYN076AAXX  05114 06659 33/// ///// 11040 21133 37803 48422 52004 333 553// 2////;
0112066590999992011010512004+46983+008250FM-12+211099999V02099999999999999999N9999999N1-00351-01471999999ADDMA1999999078001ME1314189REMSYN076AAXX  05124 06659 33/// ///// 11035 21147 37800 48418 5//// 333 553// 2////;
0126066590999992011010513004+46983+008250FM-12+211099999V02099999999999999999N9999999N1-00321-01291999999ADDMA1999999078001MD1719999+9999ME1314179REMSYN076AAXX  05134 06659 33/// ///// 11032 21129 37800 48417 57/// 333 553// 2////;
0096066590999992011010514004+46983+008250FM-12+211099999V02099999999999999999N9999999N1-00301-01331999999ADDMA1999999078031ME1314209REMSYN060AAXX  05144 06659 43/// ///// 11030 21133 37803 48420 5////;
0096066590999992011010515004+46983+008250FM-12+211099999V02099999999999999999N9999999N1-00301-01421999999ADDMA1999999078011ME1314189REMSYN060AAXX  05154 06659 43/// ///// 11030 21142 37801 48418 5////;
0126066590999992011010516004+46983+008250FM-12+211099999V02099999999999999999N9999999N1-00341-01751999999ADDMA1999999077971MD1810031+9999ME1314159REMSYN076AAXX  05164 06659 33/// ///// 11034 21175 37797 48415 58003 333 55301 20058;
0126066590999992011010517004+46983+008250FM-12+211099999V02099999999999999999N9999999N1-00301-01191999999ADDMA1999999078011MD1510021+9999ME1314189REMSYN076AAXX  05174 06659 33/// ///// 11030 21119 37801 48418 55002 333 55300 20000;
0145066590999992011010518004+46983+008250FM-12+211099999V02099999999999999999N9999999N1-00331-01031999999ADDKA1120M-00231MA1999999078001MD1519999+9999ME1314179REMSYN082AAXX  05184 06659 33/// ///// 11033 21103 37800 48417 55/// 333 11023 55300 20000;
0126066590999992011010519004+46983+008250FM-12+211099999V02099999999999999999N9999999N1-00371-00991999999ADDMA1999999077991MD1010021+9999ME1314179REMSYN076AAXX  05194 06659 33/// ///// 11037 21099 37799 48417 50002 333 55300 20000;
0126066590999992011010520004+46983+008250FM-12+211099999V02099999999999999999N9999999N1-00331-01471999999ADDMA1999999077951MD1819999+9999ME1314129REMSYN076AAXX  05204 06659 33/// ///// 11033 21147 37795 48412 58/// 333 55300 20000;
0112066590999992011010521004+46983+008250FM-12+211099999V02099999999999999999N9999999N1-00321-01501999999ADDMA1999999077931ME1314109REMSYN076AAXX  05214 06659 33/// ///// 11032 21150 37793 48410 5//// 333 553// 20000;
0126066590999992011010522004+46983+008250FM-12+211099999V02099999999999999999N9999999N1-00231-01591999999ADDMA1999999077941MD1510051+9999ME1314099REMSYN076AAXX  05224 06659 33/// ///// 11023 21159 37794 48409 55005 333 55300 20000;
0126066590999992011010523004+46983+008250FM-12+211099999V02099999999999999999N9999999N1-00141-01391999999ADDMA1999999077941MD1019999+9999ME1314069REMSYN076AAXX  05234 06659 33/// ///// 11014 21139 37794 48406 50/// 333 55300 20000;
0096066590999992011010600004+46983+008250FM-12+211099999V02099999999999999999N9999999N1-00111-01401999999ADDMA1999999077911ME1314029REMSYN060AAXX  06004 06659 43/// ///// 11011 21140 37791 48402 5////;
0096066590999992011010601004+46983+008250FM-12+211099999V02099999999999999999N9999999N1-00101-01381999999ADDMA1999999077871ME1313989REMSYN060AAXX  06014 06659 43/// ///// 11010 21138 37787 48398 5////;
0096066590999992011010602004+46983+008250FM-12+211099999V02099999999999999999N9999999N1-00061-01451999999ADDMA1999999077881ME1313989REMSYN060AAXX  06024 06659 43/// ///// 11006 21145 37788 48398 5////;
0096066590999992011010603004+46983+008250FM-12+211099999V02099999999999999999N9999999N1-00041-01231999999ADDMA1999999077871ME1313969REMSYN060AAXX  06034 06659 43/// ///// 11004 21123 37787 48396 5////;
0096066590999992011010604004+46983+008250FM-12+211099999V02099999999999999999N9999999N1-00061-01251999999ADDMA1999999077891ME1313999REMSYN060AAXX  06044 06659 43/// ///// 11006 21125 37789 48399 5////;
0096066590999992011010605004+46983+008250FM-12+211099999V02099999999999999999N9999999N1-00141-00681999999ADDMA1999999077881ME1314009REMSYN060AAXX  06054 06659 43/// ///// 11014 21068 37788 48400 5////;
0125066590999992011010606004+46983+008250FM-12+211099999V02099999999999999999N9999999N1-00151-00231999999ADDKA1999N-00371MA1999999077891ME1314019REMSYN076AAXX  06064 06659 43/// ///// 11015 21023 37789 48401 5//// 333 21037 55071;
0096066590999992011010607004+46983+008250FM-12+211099999V02099999999999999999N9999999N1-00061-00221999999ADDMA1999999077911ME1314019REMSYN060AAXX  06074 06659 43/// ///// 11006 21022 37791 48401 5////;
0112066590999992011010608004+46983+008250FM-12+211099999V02099999999999999999N9999999N1-00021-00331999999ADDMA1999999077931ME1314029REMSYN076AAXX  06084 06659 33/// ///// 11002 21033 37793 48402 5//// 333 553// 20040;
0096066590999992011010609004+46983+008250FM-12+211099999V02099999999999999999N9999999N1+00071-00321999999ADDMA1999999077951ME1314029REMSYN060AAXX  06094 06659 43/// ///// 10007 21032 37795 48402 5////;
0126066590999992011010610004+46983+008250FM-12+211099999V02099999999999999999N9999999N1+00111-00401999999ADDMA1999999077961MD1210051+9999ME1314029REMSYN076AAXX  06104 06659 33/// ///// 10011 21040 37796 48402 52005 333 55305 20706;
0126066590999992011010611004+46983+008250FM-12+211099999V02099999999999999999N9999999N1+00081-00441999999ADDMA1999999077981MD1210051+9999ME1314059REMSYN076AAXX  06114 06659 33/// ///// 10008 21044 37798 48405 52005 333 55305 20842;
0168066590999992011010612004+46983+008250FM-12+211099999V02099999999999999999N9999999N1+00081-00321999999ADDAA106000091MA1999999077971MD1210021+9999ME1314049REMSYN088AAXX  06124 06659 03/// ///// 10008 21032 37797 48404 52002 69921 333 55300 20486 60005;EQDQ01  00002PRCP06
0126066590999992011010613004+46983+008250FM-12+211099999V02099999999999999999N9999999N1+00071-00351999999ADDMA1999999077951MD1810011+9999ME1314029REMSYN076AAXX  06134 06659 33/// ///// 10007 21035 37795 48402 58001 333 55304 20875;
0096066590999992011010614004+46983+008250FM-12+211099999V02099999999999999999N9999999N1+00121-00321999999ADDMA1999999077971ME1314039REMSYN060AAXX  06144 06659 43/// ///// 10012 21032 37797 48403 5////;
0096066590999992011010615004+46983+008250FM-12+211099999V02099999999999999999N9999999N1+00131-00291999999ADDMA1999999078021ME1314089REMSYN060AAXX  06154 06659 43/// ///// 10013 21029 37802 48408 5////;
0126066590999992011010616004+46983+008250FM-12+211099999V02099999999999999999N9999999N1+00171-00291999999ADDMA1999999078031MD1210081+9999ME1314089REMSYN076AAXX  06164 06659 33/// ///// 10017 21029 37803 48408 52008 333 55300 20029;
0126066590999992011010617004+46983+008250FM-12+211099999V02099999999999999999N9999999N1+00061-00111999999ADDMA1999999078061MD1210091+9999ME1314149REMSYN076AAXX  06174 06659 33/// ///// 10006 21011 37806 48414 52009 333 55300 20000;
0168066590999992011010618004+46983+008250FM-12+211099999V02099999999999999999N9999999N1+00001-00021999999ADDAA112001091KA1120M+00201MA1999999078091MD1210071+9999ME1314189REMSYN094AAXX  06184 06659 03/// ///// 10000 21002 37809 48418 52007 69992 333 10020 55300 20000 69975;
0132066590999992011010619004+46983+008250FM-12+211099999V02099999999999999999N9999999N1+00061+00001999999ADDMA1999999078091MD1210061+9999ME1314179REMSYN082AAXX  06194 06659 23/// ///// 10006 20000 37809 48417 52006 333 55300 20000 69985;
0132066590999992011010620004+46983+008250FM-12+211099999V02099999999999999999N9999999N1+00021+00001999999ADDMA1999999078151MD1219999+9999ME1314249REMSYN082AAXX  06204 06659 23/// ///// 10002 20000 37815 48424 52/// 333 55300 20000 69955;
0132066590999992011010621004+46983+008250FM-12+211099999V02099999999999999999N9999999N1+00051+00011999999ADDMA1999999078181MD1219999+9999ME1314269REMSYN082AAXX  06214 06659 23/// ///// 10005 20001 37818 48426 52/// 333 55300 20000 69925;
0126066590999992011010622004+46983+008250FM-12+211099999V02099999999999999999N9999999N1+00071-00011999999ADDMA1999999078251MD1210161+9999ME1314339REMSYN076AAXX  06224 06659 33/// ///// 10007 21001 37825 48433 52016 333 55300 20000;
0112066590999992011010623004+46983+008250FM-12+211099999V02099999999999999999N9999999N1+00081+00011999999ADDMA1999999078291ME1314379REMSYN076AAXX  06234 06659 33/// ///// 10008 20001 37829 48437 5//// 333 553// 20000;
0096066590999992011010700004+46983+008250FM-12+211099999V02099999999999999999N9999999N1+00131+00011999999ADDMA1999999078291ME1314369REMSYN060AAXX  07004 06659 43/// ///// 10013 20001 37829 48436 5////;
0096066590999992011010701004+46983+008250FM-12+211099999V02099999999999999999N9999999N1+00201-00041999999ADDMA1999999078331ME1314389REMSYN060AAXX  07014 06659 43/// ///// 10020 21004 37833 48438 5////;
0096066590999992011010702004+46983+008250FM-12+211099999V02099999999999999999N9999999N1+00171-00021999999ADDMA1999999078371ME1314439REMSYN060AAXX  07024 06659 43/// /36// 10017 21002 37837 48443 5////;
0096066590999992011010703004+46983+008250FM-12+211099999V02099999999999999999N9999999N1+00161-00011999999ADDMA1999999078371ME1314439REMSYN060AAXX  07034 06659 43/// ///// 10016 21001 37837 48443 5////;
0132066590999992011010704004+46983+008250FM-12+211099999V02099999999999999999N9999999N1+00061+00041999999ADDMA1999999078411MD1210081+9999ME1314509REMSYN082AAXX  07044 06659 23/// ///// 10006 20004 37841 48450 52008 333 55300 20000 69915;
0132066590999992011010705004+46983+008250FM-12+211099999V02099999999999999999N9999999N1+00071+00061999999ADDMA1999999078421MD1210051+9999ME1314519REMSYN082AAXX  07054 06659 23/// ///// 10007 20006 37842 48451 52005 333 55300 20000 69915;
0188066590999992011010706004+46983+008250FM-12+211099999V02099999999999999999N9999999N1+00141+00001999999ADDAA112002091GJ100909KA1999N-00011MA1999999078421MD1210051+9999ME1314499REMSYN106AAXX  07064 06659 03/// ///// 10014 20000 37842 48449 52005 60022 333 21001 55015 55300 20000 69915 70029;
0126066590999992011010707004+46983+008250FM-12+211099999V02099999999999999999N9999999N1+00211-00051999999ADDMA1999999078461MD1210051+9999ME1314529REMSYN076AAXX  07074 06659 33/// ///// 10021 21005 37846 48452 52005 333 55300 20000;
0112066590999992011010708004+46983+008250FM-12+211099999V02099999999999999999N9999999N1+00351-00161999999ADDMA1999999078451ME1314479REMSYN076AAXX  07084 06659 33/// ///// 10035 21016 37845 48447 5//// 333 553// 20043;
0096066590999992011010709004+46983+008250FM-12+211099999V02099999999999999999N9999999N1+00401-00151999999ADDMA1999999078471ME1314489REMSYN060AAXX  07094 06659 43/// ///// 10040 21015 37847 48448 5////;
0126066590999992011010710004+46983+008250FM-12+211099999V02099999999999999999N9999999N1+00491-00211999999ADDMA1999999078511MD1210051+9999ME1314509REMSYN076AAXX  07104 06659 33/// ///// 10049 21021 37851 48450 52005 333 55305 20828;
0126066590999992011010711004+46983+008250FM-12+211099999V02099999999999999999N9999999N1+00561-00091999999ADDMA1999999078511MD1210061+9999ME1314489REMSYN076AAXX  07114 06659 33/// ///// 10056 21009 37851 48448 52006 333 55308 2////;
0126066590999992011010712004+46983+008250FM-12+211099999V02099999999999999999N9999999N1+00501-00241999999ADDMA1999999078491MD1010021+9999ME1314489REMSYN076AAXX  07124 06659 33/// ///// 10050 21024 37849 48448 50002 333 55307 2////;
0126066590999992011010713004+46983+008250FM-12+211099999V02099999999999999999N9999999N1+00421-00071999999ADDMA1999999078481MD1710031+9999ME1314499REMSYN076AAXX  07134 06659 33/// ///// 10042 21007 37848 48449 57003 333 553// 2////;
0096066590999992011010714004+46983+008250FM-12+211099999V02099999999999999999N9999999N1+00431-00381999999ADDMA1999999078491ME1314499REMSYN060AAXX  07144 06659 43/// ///// 10043 21038 37849 48449 5////;
0096066590999992011010715004+46983+008250FM-12+211099999V02099999999999999999N9999999N1+00411-00391999999ADDMA1999999078511ME1314529REMSYN060AAXX  07154 06659 43/// ///// 10041 21039 37851 48452 5////;
0126066590999992011010716004+46983+008250FM-12+211099999V02099999999999999999N9999999N1+00361-00411999999ADDMA1999999078571MD1310091+9999ME1314609REMSYN076AAXX  07164 06659 33/// ///// 10036 21041 37857 48460 53009 333 55300 20054;
0126066590999992011010717004+46983+008250FM-12+211099999V02099999999999999999N9999999N1+00391-00381999999ADDMA1999999078571MD1210081+9999ME1314599REMSYN076AAXX  07174 06659 33/// ///// 10039 21038 37857 48459 52008 333 55300 20000;
0131066590999992011010718004+46983+008250FM-12+211099999V02099999999999999999N9999999N1+00351-00411999999ADDKA1120M+00591MA1999999078591ME1314629REMSYN082AAXX  07184 06659 33/// ///// 10035 21041 37859 48462 5//// 333 10059 553// 20000;
0126066590999992011010719004+46983+008250FM-12+211099999V02099999999999999999N9999999N1+00361-00481999999ADDMA1999999078571MD1019999+9999ME1314609REMSYN076AAXX  07194 06659 33/// ///// 10036 21048 37857 48460 50/// 333 55300 20000;
0096066590999992011010720004+46983+008250FM-12+211099999V02099999999999999999N9999999N1+00381-00511999999ADDMA1999999078541ME1314569REMSYN060AAXX  07204 06659 43/// ///// 10038 21051 37854 48456 5////;
0096066590999992011010721004+46983+008250FM-12+211099999V02099999999999999999N9999999N1+00401-00551999999ADDMA1999999078531ME1314549REMSYN060AAXX  07214 06659 43/// ///// 10040 21055 37853 48454 5////;
0126066590999992011010722004+46983+008250FM-12+211099999V02099999999999999999N9999999N1+00391-00581999999ADDMA1999999078531MD1510041+9999ME1314559REMSYN076AAXX  07224 06659 33/// ///// 10039 21058 37853 48455 55004 333 55300 20000;
0112066590999992011010723004+46983+008250FM-12+211099999V02099999999999999999N9999999N1+00361-00551999999ADDMA1999999078531ME1314559REMSYN076AAXX  07234 06659 33/// ///// 10036 21055 37853 48455 5//// 333 553// 20000;
0112066590999992011010800004+46983+008250FM-12+211099999V02099999999999999999N9999999N1+00121-00351999999ADDMA1999999078541ME1314629REMSYN076AAXX  08004 06659 33/// ///// 10012 21035 37854 48462 5//// 333 553// 20000;
0096066590999992011010801004+46983+008250FM-12+211099999V02099999999999999999N9999999N1+00181-00351999999ADDMA1999999078541ME1314619REMSYN060AAXX  08014 06659 43/// ///// 10018 21035 37854 48461 5////;
0096066590999992011010802004+46983+008250FM-12+211099999V02099999999999999999N9999999N1+00261-00501999999ADDMA1999999078521ME1314579REMSYN060AAXX  08024 06659 43/// ///// 10026 21050 37852 48457 5////;
0096066590999992011010803004+46983+008250FM-12+211099999V02099999999999999999N9999999N1+00221-00491999999ADDMA1999999078521ME1314589REMSYN060AAXX  08034 06659 43/// ///// 10022 21049 37852 48458 5////;
0096066590999992011010804004+46983+008250FM-12+211099999V02099999999999999999N9999999N1+00151-00441999999ADDMA1999999078461ME1314539REMSYN060AAXX  08044 06659 43/// ///// 10015 21044 37846 48453 5////;
0096066590999992011010805004+46983+008250FM-12+211099999V02099999999999999999N9999999N1-00011-00251999999ADDMA1999999078481ME1314599REMSYN060AAXX  08054 06659 43/// ///// 11001 21025 37848 48459 5////;
0125066590999992011010806004+46983+008250FM-12+211099999V02099999999999999999N9999999N1-00081-00091999999ADDKA1999N-00101MA1999999078501ME1314639REMSYN076AAXX  08064 06659 43/// ///// 11008 21009 37850 48463 5//// 333 21010 55037;
0096066590999992011010807004+46983+008250FM-12+211099999V02099999999999999999N9999999N1-00071-00201999999ADDMA1999999078541ME1314679REMSYN060AAXX  08074 06659 43/// ///// 11007 21020 37854 48467 5////;
0112066590999992011010808004+46983+008250FM-12+211099999V02099999999999999999N9999999N1+00101-00381999999ADDMA1999999078581ME1314679REMSYN076AAXX  08084 06659 33/// ///// 10010 21038 37858 48467 5//// 333 553// 20047;
0096066590999992011010809004+46983+008250FM-12+211099999V02099999999999999999N9999999N1+00121-00431999999ADDMA1999999078581ME1314669REMSYN060AAXX  08094 06659 43/// ///// 10012 21043 37858 48466 5////;
0096066590999992011010810004+46983+008250FM-12+211099999V02099999999999999999N9999999N1+00201-00251999999ADDMA1999999078611ME1314689REMSYN060AAXX  08104 06659 43/// ///// 10020 21025 37861 48468 5////;
0096066590999992011010811004+46983+008250FM-12+211099999V02099999999999999999N9999999N1+00341-00051999999ADDMA1999999078591ME1314629REMSYN060AAXX  08114 06659 43/// ///// 10034 21005 37859 48462 5////;
0096066590999992011010812004+46983+008250FM-12+211099999V02099999999999999999N9999999N1+00261-00251999999ADDMA1999999078571ME1314629REMSYN060AAXX  08124 06659 43/// ///// 10026 21025 37857 48462 5////;
0096066590999992011010813004+46983+008250FM-12+211099999V02099999999999999999N9999999N1+00281-00331999999ADDMA1999999078551ME1314599REMSYN060AAXX  08134 06659 43/// ///// 10028 21033 37855 48459 5////;
0096066590999992011010814004+46983+008250FM-12+211099999V02099999999999999999N9999999N1+00251-00321999999ADDMA1999999078561ME1314619REMSYN060AAXX  08144 06659 43/// ///// 10025 21032 37856 48461 5////;
0096066590999992011010815004+46983+008250FM-12+211099999V02099999999999999999N9999999N1+00181-00401999999ADDMA1999999078591ME1314669REMSYN060AAXX  08154 06659 43/// ///// 10018 21040 37859 48466 5////;
0096066590999992011010816004+46983+008250FM-12+211099999V02099999999999999999N9999999N1+00161-00441999999ADDMA1999999078591ME1314669REMSYN060AAXX  08164 06659 43/// /36// 10016 21044 37859 48466 5////;
0096066590999992011010817004+46983+008250FM-12+211099999V02099999999999999999N9999999N1+00171-00501999999ADDMA1999999078581ME1314659REMSYN060AAXX  08174 06659 43/// ///// 10017 21050 37858 48465 5////;
0096066590999992011010818004+46983+008250FM-12+211099999V02099999999999999999N9999999N1+00171-00721999999ADDMA1999999078571ME1314649REMSYN060AAXX  08184 06659 43/// ///// 10017 21072 37857 48464 5////;
0096066590999992011010819004+46983+008250FM-12+211099999V02099999999999999999N9999999N1+00161-00691999999ADDMA1999999078561ME1314639REMSYN060AAXX  08194 06659 43/// ///// 10016 21069 37856 48463 5////;
0096066590999992011010820004+46983+008250FM-12+211099999V02099999999999999999N9999999N1+00151-00761999999ADDMA1999999078541ME1314619REMSYN060AAXX  08204 06659 43/// ///// 10015 21076 37854 48461 5////;
0096066590999992011010821004+46983+008250FM-12+211099999V02099999999999999999N9999999N1+00271-00931999999ADDMA1999999078521ME1314569REMSYN060AAXX  08214 06659 43/// ///// 10027 21093 37852 48456 5////;
0096066590999992011010822004+46983+008250FM-12+211099999V02099999999999999999N9999999N1+00201-00871999999ADDMA1999999078521ME1314589REMSYN060AAXX  08224 06659 43/// ///// 10020 21087 37852 48458 5////;
0096066590999992011010823004+46983+008250FM-12+211099999V02099999999999999999N9999999N1+00231-00901999999ADDMA1999999078501ME1314559REMSYN060AAXX  08234 06659 43/// ///// 10023 21090 37850 48455 5////;
0096066590999992011010900004+46983+008250FM-12+211099999V02099999999999999999N9999999N1+00181-00811999999ADDMA1999999078461ME1314529REMSYN060AAXX  09004 06659 43/// ///// 10018 21081 37846 48452 5////;
0096066590999992011010901004+46983+008250FM-12+211099999V02099999999999999999N9999999N1+00171-00781999999ADDMA1999999078491ME1314569REMSYN060AAXX  09014 06659 43/// ///// 10017 21078 37849 48456 5////;
0096066590999992011010902004+46983+008250FM-12+211099999V02099999999999999999N9999999N1+00171-00801999999ADDMA1999999078491ME1314569REMSYN060AAXX  09024 06659 43/// ///// 10017 21080 37849 48456 5////;
0096066590999992011010903004+46983+008250FM-12+211099999V02099999999999999999N9999999N1+00221-00891999999ADDMA1999999078461ME1314519REMSYN060AAXX  09034 06659 43/// ///// 10022 21089 37846 48451 5////;
0096066590999992011010904004+46983+008250FM-12+211099999V02099999999999999999N9999999N1+00241-00961999999ADDMA1999999078451ME1314509REMSYN060AAXX  09044 06659 43/// ///// 10024 21096 37845 48450 5////;
0096066590999992011010905004+46983+008250FM-12+211099999V02099999999999999999N9999999N1+00161-00911999999ADDMA1999999078411ME1314489REMSYN060AAXX  09054 06659 43/// ///// 10016 21091 37841 48448 5////;
0106066590999992011010906004+46983+008250FM-12+211099999V02099999999999999999N9999999N1+00131-00901999999ADDMA1999999078381ME1314459REMSYN070AAXX  09064 06659 43/// ///// 10013 21090 37838 48445 5//// 333 55058;
0096066590999992011010907004+46983+008250FM-12+211099999V02099999999999999999N9999999N1+00141-00931999999ADDMA1999999078391ME1314469REMSYN060AAXX  09074 06659 43/// ///// 10014 21093 37839 48446 5////;
0112066590999992011010908004+46983+008250FM-12+211099999V02099999999999999999N9999999N1+00061-00781999999ADDMA1999999078461ME1314559REMSYN076AAXX  09084 06659 33/// ///// 10006 21078 37846 48455 5//// 333 553// 20022;
0112066590999992011010909004+46983+008250FM-12+211099999V02099999999999999999N9999999N1-00041-00611999999ADDMA1999999078481ME1314609REMSYN076AAXX  09094 06659 33/// ///// 11004 21061 37848 48460 5//// 333 553// 20216;
0126066590999992011010910004+46983+008250FM-12+211099999V02099999999999999999N9999999N1+00091-00641999999ADDMA1999999078491MD1210101+9999ME1314589REMSYN076AAXX  09104 06659 33/// ///// 10009 21064 37849 48458 52010 333 55300 20576;
0126066590999992011010911004+46983+008250FM-12+211099999V02099999999999999999N9999999N1+00071-00681999999ADDMA1999999078481MD1010021+9999ME1314579REMSYN076AAXX  09114 06659 33/// ///// 10007 21068 37848 48457 50002 333 55300 20486;
0126066590999992011010912004+46983+008250FM-12+211099999V02099999999999999999N9999999N1+00051-00641999999ADDMA1999999078441MD1710041+9999ME1314539REMSYN076AAXX  09124 06659 33/// ///// 10005 21064 37844 48453 57004 333 55300 20382;
0126066590999992011010913004+46983+008250FM-12+211099999V02099999999999999999N9999999N1-00011-00521999999ADDMA1999999078441MD1710051+9999ME1314559REMSYN076AAXX  09134 06659 33/// ///// 11001 21052 37844 48455 57005 333 55300 20245;
0096066590999992011010914004+46983+008250FM-12+211099999V02099999999999999999N9999999N1-00031-00511999999ADDMA1999999078421ME1314539REMSYN060AAXX  09144 06659 43/// ///// 11003 21051 37842 48453 5////;
0096066590999992011010915004+46983+008250FM-12+211099999V02099999999999999999N9999999N1-00081-00461999999ADDMA1999999078431ME1314569REMSYN060AAXX  09154 06659 43/// ///// 11008 21046 37843 48456 5////;
0126066590999992011010916004+46983+008250FM-12+211099999V02099999999999999999N9999999N1-00251-00251999999ADDMA1999999078461MD1210021+9999ME1314639REMSYN076AAXX  09164 06659 33/// ///// 11025 21025 37846 48463 52002 333 55300 20061;
0126066590999992011010917004+46983+008250FM-12+211099999V02099999999999999999N9999999N1-00251-00251999999ADDMA1999999078501MD1210081+9999ME1314679REMSYN076AAXX  09174 06659 33/// ///// 11025 21025 37850 48467 52008 333 55300 20000;
0145066590999992011010918004+46983+008250FM-12+211099999V02099999999999999999N9999999N1-00191-00281999999ADDKA1120M+00151MA1999999078511MD1110081+9999ME1314679REMSYN082AAXX  09184 06659 33/// ///// 11019 21028 37851 48467 51008 333 10015 55300 20000;
0132066590999992011010919004+46983+008250FM-12+211099999V02099999999999999999N9999999N1-00171-00211999999ADDMA1999999078541MD1210081+9999ME1314699REMSYN082AAXX  09194 06659 23/// ///// 11017 21021 37854 48469 52008 333 55300 20000 69965;
0132066590999992011010920004+46983+008250FM-12+211099999V02099999999999999999N9999999N1-00191-00251999999ADDMA1999999078581MD1210081+9999ME1314749REMSYN082AAXX  09204 06659 23/// ///// 11019 21025 37858 48474 52008 333 55300 20000 60025;
0132066590999992011010921004+46983+008250FM-12+211099999V02099999999999999999N9999999N1-00211-00231999999ADDMA1999999078581MD1210071+9999ME1314749REMSYN082AAXX  09214 06659 23/// ///// 11021 21023 37858 48474 52007 333 55300 20000 60025;
0132066590999992011010922004+46983+008250FM-12+211099999V02099999999999999999N9999999N1-00261-00261999999ADDMA1999999078601MD1210061+9999ME1314779REMSYN082AAXX  09224 06659 23/// ///// 11026 21026 37860 48477 52006 333 55300 20000 60015;
0132066590999992011010923004+46983+008250FM-12+211099999V02099999999999999999N9999999N1-00221-00241999999ADDMA1999999078611MD1210031+9999ME1314789REMSYN082AAXX  09234 06659 23/// ///// 11022 21024 37861 48478 52003 333 55300 20000 60015;
0149066590999992011011000004+46983+008250FM-12+211099999V02099999999999999999N9999999N1-00241-00271999999ADDAA106008991MA1999999078611MD1110031+9999ME1314789REMSYN088AAXX  10004 06659 03/// ///// 11024 21027 37861 48478 51003 60091 333 55300 20000 60025;
0132066590999992011011001004+46983+008250FM-12+211099999V02099999999999999999N9999999N1-00291-00291999999ADDMA1999999078631MD1310031+9999ME1314819REMSYN082AAXX  10014 06659 23/// ///// 11029 21029 37863 48481 53003 333 55300 20000 60025;
0118066590999992011011002004+46983+008250FM-12+211099999V02099999999999999999N9999999N1-00321-00341999999ADDMA1999999078641ME1314839REMSYN082AAXX  10024 06659 23/// ///// 11032 21034 37864 48483 5//// 333 553// 20000 60015;
0096066590999992011011003004+46983+008250FM-12+211099999V02099999999999999999N9999999N1-00361-00371999999ADDMA1999999078641ME1314849REMSYN060AAXX  10034 06659 43/// ///// 11036 21037 37864 48484 5////;
0118066590999992011011004004+46983+008250FM-12+211099999V02099999999999999999N9999999N1-00401-00401999999ADDMA1999999078631ME1314849REMSYN082AAXX  10044 06659 23/// ///// 11040 21040 37863 48484 5//// 333 553// 20000 69925;
0132066590999992011011005004+46983+008250FM-12+211099999V02099999999999999999N9999999N1-00381-00411999999ADDMA1999999078621MD1719999+9999ME1314829REMSYN082AAXX  10054 06659 23/// ///// 11038 21041 37862 48482 57/// 333 55300 20000 69915;
0150066590999992011011006004+46983+008250FM-12+211099999V02099999999999999999N9999999N1-00351-00441999999ADDAA124012291GJ100069KA1999N-00421MA1999999078631ME1314839REMSYN082AAXX  10064 06659 43/// ///// 11035 21044 37863 48483 5//// 333 21042 55001 70123;
0132066590999992011011007004+46983+008250FM-12+211099999V02099999999999999999N9999999N1-00401-00421999999ADDMA1999999078631MD1510001+9999ME1314849REMSYN082AAXX  10074 06659 23/// ///// 11040 21042 37863 48484 55000 333 55300 20000 69915;
0096066590999992011011008004+46983+008250FM-12+211099999V02099999999999999999N9999999N1-00361-00491999999ADDMA1999999078661ME1314869REMSYN060AAXX  10084 06659 43/// ///// 11036 21049 37866 48486 5////;
0096066590999992011011009004+46983+008250FM-12+211099999V02099999999999999999N9999999N1-00361-00451999999ADDMA1999999078661ME1314869REMSYN060AAXX  10094 06659 43/// ///// 11036 21045 37866 48486 5////;
0126066590999992011011010004+46983+008250FM-12+211099999V02099999999999999999N9999999N1-00351-00421999999ADDMA1999999078681MD1210051+9999ME1314889REMSYN076AAXX  10104 06659 33/// ///// 11035 21042 37868 48488 52005 333 55300 20576;
0126066590999992011011011004+46983+008250FM-12+211099999V02099999999999999999N9999999N1-00291-00411999999ADDMA1999999078661MD1019999+9999ME1314849REMSYN076AAXX  10114 06659 33/// ///// 11029 21041 37866 48484 50/// 333 55300 20738;
0154066590999992011011012004+46983+008250FM-12+211099999V02099999999999999999N9999999N1-00281-00421999999ADDAA106000091MA1999999078621ME1314809REMSYN088AAXX  10124 06659 03/// ///// 11028 21042 37862 48480 5//// 69911 333 553// 20756 60005;EQDQ01  00002PRCP06
0096066590999992011011013004+46983+008250FM-12+211099999V02099999999999999999N9999999N1-00301-00451999999ADDMA1999999078571ME1314759REMSYN060AAXX  10134 06659 43/// ///// 11030 21045 37857 48475 5////;
0096066590999992011011014004+46983+008250FM-12+211099999V02099999999999999999N9999999N1-00291-00391999999ADDMA1999999078541ME1314729REMSYN060AAXX  10144 06659 43/// ///// 11029 21039 37854 48472 5////;
0096066590999992011011015004+46983+008250FM-12+211099999V02099999999999999999N9999999N1-00211-00491999999ADDMA1999999078531ME1314699REMSYN060AAXX  10154 06659 43/// ///// 11021 21049 37853 48469 5////;
0096066590999992011011016004+46983+008250FM-12+211099999V02099999999999999999N9999999N1-00301-00481999999ADDMA1999999078511ME1314699REMSYN060AAXX  10164 06659 43/// ///// 11030 21048 37851 48469 5////;
0096066590999992011011017004+46983+008250FM-12+211099999V02099999999999999999N9999999N1-00281-00511999999ADDMA1999999078491ME1314679REMSYN060AAXX  10174 06659 43/// ///// 11028 21051 37849 48467 5////;
0119066590999992011011018004+46983+008250FM-12+211099999V02099999999999999999N9999999N1-00231-00571999999ADDKA1999M-00201MA1999999078471ME1314639REMSYN070AAXX  10184 06659 43/// ///// 11023 21057 37847 48463 5//// 333 11020;
0096066590999992011011019004+46983+008250FM-12+211099999V02099999999999999999N9999999N1-00241-00691999999ADDMA1999999078451ME1314629REMSYN060AAXX  10194 06659 43/// ///// 11024 21069 37845 48462 5////;
0096066590999992011011020004+46983+008250FM-12+211099999V02099999999999999999N9999999N1-00221-00801999999ADDMA1999999078431ME1314599REMSYN060AAXX  10204 06659 43/// ///// 11022 21080 37843 48459 5////;
0096066590999992011011021004+46983+008250FM-12+211099999V02099999999999999999N9999999N1-00231-00841999999ADDMA1999999078431ME1314599REMSYN060AAXX  10214 06659 43/// ///// 11023 21084 37843 48459 5////;
0096066590999992011011022004+46983+008250FM-12+211099999V02099999999999999999N9999999N1-00281-00791999999ADDMA1999999078431ME1314609REMSYN060AAXX  10224 06659 43/// ///// 11028 21079 37843 48460 5////;
0096066590999992011011023004+46983+008250FM-12+211099999V02099999999999999999N9999999N1-00251-00811999999ADDMA1999999078411ME1314589REMSYN060AAXX  10234 06659 43/// ///// 11025 21081 37841 48458 5////;
0096066590999992011011100004+46983+008250FM-12+211099999V02099999999999999999N9999999N1-00241-00831999999ADDMA1999999078361ME1314529REMSYN060AAXX  11004 06659 43/// ///// 11024 21083 37836 48452 5////;
0096066590999992011011101004+46983+008250FM-12+211099999V02099999999999999999N9999999N1-00221-00881999999ADDMA1999999078331ME1314499REMSYN060AAXX  11014 06659 43/// ///// 11022 21088 37833 48449 5////;
0096066590999992011011102004+46983+008250FM-12+211099999V02099999999999999999N9999999N1-00261-00891999999ADDMA1999999078321ME1314499REMSYN060AAXX  11024 06659 43/// ///// 11026 21089 37832 48449 5////;
0096066590999992011011103004+46983+008250FM-12+211099999V02099999999999999999N9999999N1-00321-00771999999ADDMA1999999078281ME1314469REMSYN060AAXX  11034 06659 43/// ///// 11032 21077 37828 48446 5////;
0096066590999992011011104004+46983+008250FM-12+211099999V02099999999999999999N9999999N1-00201-01051999999ADDMA1999999078251ME1314409REMSYN060AAXX  11044 06659 43/// ///// 11020 21105 37825 48440 5////;
0096066590999992011011105004+46983+008250FM-12+211099999V02099999999999999999N9999999N1-00221-01111999999ADDMA1999999078211ME1314369REMSYN060AAXX  11054 06659 43/// ///// 11022 21111 37821 48436 5////;
0106066590999992011011106004+46983+008250FM-12+211099999V02099999999999999999N9999999N1-00251-01071999999ADDMA1999999078171ME1314339REMSYN070AAXX  11064 06659 43/// ///// 11025 21107 37817 48433 5//// 333 55014;
0126066590999992011011107004+46983+008250FM-12+211099999V02099999999999999999N9999999N1-00221-01251999999ADDMA1999999078131MD1819999+9999ME1314289REMSYN076AAXX  11074 06659 33/// /36// 11022 21125 37813 48428 58/// 333 55300 20000;
0112066590999992011011108004+46983+008250FM-12+211099999V02099999999999999999N9999999N1-00141-01341999999ADDMA1999999078121ME1314259REMSYN076AAXX  11084 06659 33/// ///// 11014 21134 37812 48425 5//// 333 553// 20101;
0096066590999992011011109004+46983+008250FM-12+211099999V02099999999999999999N9999999N1-00061-01501999999ADDMA1999999078111ME1314229REMSYN060AAXX  11094 06659 43/// ///// 11006 21150 37811 48422 5////;
0126066590999992011011110004+46983+008250FM-12+211099999V02099999999999999999N9999999N1-00021-01201999999ADDMA1999999078091MD1810041+9999ME1314199REMSYN076AAXX  11104 06659 33/// ///// 11002 21120 37809 48419 58004 333 553// 2////;
0126066590999992011011111004+46983+008250FM-12+211099999V02099999999999999999N9999999N1-00051-01971999999ADDMA1999999078031MD1810091+9999ME1314139REMSYN076AAXX  11114 06659 33/// /36// 11005 21197 37803 48413 58009 333 553// 2////;
0112066590999992011011112004+46983+008250FM-12+211099999V02099999999999999999N9999999N1+00021-00902999999ADDMA1999999077961ME1314049REMSYN076AAXX  11124 06659 33/// ///// 10002 21090 37796 48404 5//// 333 553// 2////;
0126066590999992011011113004+46983+008250FM-12+211099999V02099999999999999999N9999999N1-00111-01131999999ADDMA1999999077911MD1710181+9999ME1314029REMSYN076AAXX  11134 06659 33/// ///// 11011 21113 37791 48402 57018 333 55300 20677;
0096066590999992011011114004+46983+008250FM-12+211099999V02099999999999999999N9999999N1-00301-00871999999ADDMA1999999077921ME1314089REMSYN060AAXX  11144 06659 43/// ///// 11030 21087 37792 48408 5////;
0096066590999992011011115004+46983+008250FM-12+211099999V02099999999999999999N9999999N1-00441-00541999999ADDMA1999999077951ME1314159REMSYN060AAXX  11154 06659 43/// ///// 11044 21054 37795 48415 5////;
0132066590999992011011116004+46983+008250FM-12+211099999V02099999999999999999N9999999N1-00421-00421999999ADDMA1999999078001MD1210091+9999ME1314209REMSYN082AAXX  11164 06659 23/// ///// 11042 21042 37800 48420 52009 333 55300 20022 60025;
0132066590999992011011117004+46983+008250FM-12+211099999V02099999999999999999N9999999N1-00391-00391999999ADDMA1999999078051MD1110131+9999ME1314249REMSYN082AAXX  11174 06659 23/// ///// 11039 21039 37805 48424 51013 333 55300 20000 60035;
0168066590999992011011118004+46983+008250FM-12+211099999V02099999999999999999N9999999N1-00421-00421999999ADDAA112007191KA1120M+00051MA1999999078131MD1310181+9999ME1314339REMSYN094AAXX  11184 06659 03/// ///// 11042 21042 37813 48433 53018 60072 333 10005 55300 20000 60025;
0132066590999992011011119004+46983+008250FM-12+211099999V02099999999999999999N9999999N1-00421-00421999999ADDMA1999999078211MD1310211+9999ME1314419REMSYN082AAXX  11194 06659 23/// ///// 11042 21042 37821 48441 53021 333 55300 20000 60025;
0132066590999992011011120004+46983+008250FM-12+211099999V02099999999999999999N9999999N1-00461-00461999999ADDMA1999999078281MD1110231+9999ME1314509REMSYN082AAXX  11204 06659 23/// ///// 11046 21046 37828 48450 51023 333 55300 20000 69985;
0132066590999992011011121004+46983+008250FM-12+211099999V02099999999999999999N9999999N1-00451-00451999999ADDMA1999999078361MD1110231+9999ME1314579REMSYN082AAXX  11214 06659 23/// ///// 11045 21045 37836 48457 51023 333 55300 20000 69925;
0132066590999992011011122004+46983+008250FM-12+211099999V02099999999999999999N9999999N1-00461-00491999999ADDMA1999999078441MD1310231+9999ME1314669REMSYN082AAXX  11224 06659 23/// ///// 11046 21049 37844 48466 53023 333 55300 20000 69915;
0126066590999992011011123004+46983+008250FM-12+211099999V02099999999999999999N9999999N1-00471-00491999999ADDMA1999999078491MD1110211+9999ME1314719REMSYN076AAXX  11234 06659 33/// ///// 11047 21049 37849 48471 51021 333 55300 20000;
0149066590999992011011200004+46983+008250FM-12+211099999V02099999999999999999N9999999N1-00541-00581999999ADDAA106003091MA1999999078521MD1110161+9999ME1314769REMSYN088AAXX  12004 06659 03/// ///// 11054 21058 37852 48476 51016 60031 333 55300 20000 60005;
0126066590999992011011201004+46983+008250FM-12+211099999V02099999999999999999N9999999N1-00511-00561999999ADDMA1999999078551MD1210111+9999ME1314789REMSYN076AAXX  12014 06659 33/// ///// 11051 21056 37855 48478 52011 333 55300 20000;
0112066590999992011011202004+46983+008250FM-12+211099999V02099999999999999999N9999999N1-00471-00571999999ADDMA1999999078621ME1314849REMSYN076AAXX  12024 06659 33/// ///// 11047 21057 37862 48484 5//// 333 553// 20000;
0096066590999992011011203004+46983+008250FM-12+211099999V02099999999999999999N9999999N1-00481-00481999999ADDMA1999999078681ME1314919REMSYN060AAXX  12034 06659 43/// ///// 11048 21048 37868 48491 5////;
0096066590999992011011204004+46983+008250FM-12+211099999V02099999999999999999N9999999N1-00491-00561999999ADDMA1999999078691ME1314929REMSYN060AAXX  12044 06659 43/// ///// 11049 21056 37869 48492 5////;
0118066590999992011011205004+46983+008250FM-12+211099999V02099999999999999999N9999999N1-00471-00471999999ADDMA1999999078741ME1314979REMSYN082AAXX  12054 06659 23/// ///// 11047 21047 37874 48497 5//// 333 553// 20000 69915;
0150066590999992011011206004+46983+008250FM-12+211099999V02099999999999999999N9999999N1-00481-00481999999ADDAA124009991GJ102349KA1999N-00541MA1999999078801ME1315039REMSYN082AAXX  12064 06659 43/// ///// 11048 21048 37880 48503 5//// 333 21054 55039 70100;
0132066590999992011011207004+46983+008250FM-12+211099999V02099999999999999999N9999999N1-00461-00671999999ADDMA1999999078841MD1210151+9999ME1315079REMSYN082AAXX  12074 06659 23/// ///// 11046 21067 37884 48507 52015 333 55300 20000 69915;
0096066590999992011011208004+46983+008250FM-12+211099999V02099999999999999999N9999999N1-00351-00901999999ADDMA1999999078851ME1315059REMSYN060AAXX  12084 06659 43/// ///// 11035 21090 37885 48505 5////;
0096066590999992011011209004+46983+008250FM-12+211099999V02099999999999999999N9999999N1-00271-01331999999ADDMA1999999078881ME1315069REMSYN060AAXX  12094 06659 43/// ///// 11027 21133 37888 48506 5////;
0126066590999992011011210004+46983+008250FM-12+211099999V02099999999999999999N9999999N1-00281-01291999999ADDMA1999999078901MD1319999+9999ME1315099REMSYN076AAXX  12104 06659 33/// ///// 11028 21129 37890 48509 53/// 333 55300 20346;
0126066590999992011011211004+46983+008250FM-12+211099999V02099999999999999999N9999999N1-00311-01191999999ADDMA1999999078911MD1210061+9999ME1315109REMSYN076AAXX  12114 06659 33/// ///// 11031 21119 37891 48510 52006 333 55300 20479;
0096066590999992011011212004+46983+008250FM-12+211099999V02099999999999999999N9999999N1-00241-01651999999ADDMA1999999078901ME1315089REMSYN060AAXX  12124 06659 43/// ///// 11024 21165 37890 48508 5////;
0096066590999992011011213004+46983+008250FM-12+211099999V02099999999999999999N9999999N1-00331-01991999999ADDMA1999999078901ME1315109REMSYN060AAXX  12134 06659 43/// ///// 11033 21199 37890 48510 5////;
0115066590999992011011214004+46983+008250FM-12+211099999V02099999999999999999N9999999N1-00471-00772999999ADDMA1999999078901ME1315139REMSYN060AAXX  12144 06659 43/// ///// 11047 21077 37890 48513 5////;EQDQ01-000773ATOD  
0096066590999992011011215004+46983+008250FM-12+211099999V02099999999999999999N9999999N1-00301-00311999999ADDMA1999999078891ME1315089REMSYN060AAXX  12154 06659 43/// ///// 11030 21031 37889 48508 5////;
0132066590999992011011216004+46983+008250FM-12+211099999V02099999999999999999N9999999N1-00191-00191999999ADDMA1999999078921MD1210021+9999ME1315099REMSYN082AAXX  12164 06659 23/// ///// 11019 21019 37892 48509 52002 333 55300 20011 60015;
0132066590999992011011217004+46983+008250FM-12+211099999V02099999999999999999N9999999N1-00091-00101999999ADDMA1999999078971MD1310071+9999ME1315129REMSYN082AAXX  12174 06659 23/// ///// 11009 21010 37897 48512 53007 333 55300 20000 69925;
0168066590999992011011218004+46983+008250FM-12+211099999V02099999999999999999N9999999N1-00031-00051999999ADDAA112003091KA1120M-00031MA1999999078991MD1210101+9999ME1315129REMSYN094AAXX  12184 06659 03/// ///// 11003 21005 37899 48512 52010 60032 333 11003 55300 20000 69915;
0132066590999992011011219004+46983+008250FM-12+211099999V02099999999999999999N9999999N1-00041-00061999999ADDMA1999999079011MD1210091+9999ME1315159REMSYN082AAXX  12194 06659 23/// ///// 11004 21006 37901 48515 52009 333 55300 20000 69915;
0132066590999992011011220004+46983+008250FM-12+211099999V02099999999999999999N9999999N1-00011-00031999999ADDMA1999999079001MD1010031+9999ME1315139REMSYN082AAXX  12204 06659 23/// ///// 11001 21003 37900 48513 50003 333 55300 20000 69915;
0132066590999992011011221004+46983+008250FM-12+211099999V02099999999999999999N9999999N1-00011-00031999999ADDMA1999999079011MD1210021+9999ME1315149REMSYN082AAXX  12214 06659 23/// ///// 11001 21003 37901 48514 52002 333 55300 20000 69915;
0126066590999992011011222004+46983+008250FM-12+211099999V02099999999999999999N9999999N1+00001-00031999999ADDMA1999999079001MD1710011+9999ME1315139REMSYN076AAXX  12224 06659 33/// ///// 10000 21003 37900 48513 57001 333 55300 20000;
0132066590999992011011223004+46983+008250FM-12+211099999V02099999999999999999N9999999N1+00021+00021999999ADDMA1999999079021MD1210021+9999ME1315149REMSYN082AAXX  12234 06659 23/// ///// 10002 20002 37902 48514 52002 333 55300 20000 69915;
0149066590999992011011300004+46983+008250FM-12+211099999V02099999999999999999N9999999N1+00001+00001999999ADDAA106000891MA1999999079051MD1210041+9999ME1315189REMSYN088AAXX  13004 06659 03/// ///// 10000 20000 37905 48518 52004 69971 333 55300 20000 69935;
0132066590999992011011301004+46983+008250FM-12+211099999V02099999999999999999N9999999N1-00021-00041999999ADDMA1999999079051MD1210051+9999ME1315189REMSYN082AAXX  13014 06659 23/// ///// 11002 21004 37905 48518 52005 333 55300 20000 60025;
0132066590999992011011302004+46983+008250FM-12+211099999V02099999999999999999N9999999N1+00041+00021999999ADDMA1999999079031MD1019999+9999ME1315159REMSYN082AAXX  13024 06659 23/// ///// 10004 20002 37903 48515 50/// 333 55300 20000 69925;
0096066590999992011011303004+46983+008250FM-12+211099999V02099999999999999999N9999999N1+00021+00021999999ADDMA1999999079031ME1315159REMSYN060AAXX  13034 06659 43/// ///// 10002 20002 37903 48515 5////;
0132066590999992011011304004+46983+008250FM-12+211099999V02099999999999999999N9999999N1+00061+00041999999ADDMA1999999079021MD1719999+9999ME1315139REMSYN082AAXX  13044 06659 23/// ///// 10006 20004 37902 48513 57/// 333 55300 20000 69925;
0118066590999992011011305004+46983+008250FM-12+211099999V02099999999999999999N9999999N1+00081+00051999999ADDMA1999999079031ME1315149REMSYN082AAXX  13054 06659 23/// ///// 10008 20005 37903 48514 5//// 333 553// 20000 69915;
0188066590999992011011306004+46983+008250FM-12+211099999V02099999999999999999N9999999N1+00121+00101999999ADDAA112003091GJ100009KA1999N-00081MA1999999079071MD1210041+9999ME1315179REMSYN106AAXX  13064 06659 03/// ///// 10012 20010 37907 48517 52004 60032 333 21008 55000 55300 20000 69915 70060;
0096066590999992011011307004+46983+008250FM-12+211099999V02099999999999999999N9999999N1+00091-00081999999ADDMA1999999079071ME1315189REMSYN060AAXX  13074 06659 43/// ///// 10009 21008 37907 48518 5////;
0096066590999992011011308004+46983+008250FM-12+211099999V02099999999999999999N9999999N1+00031-00011999999ADDMA1999999079131ME1315259REMSYN060AAXX  13084 06659 43/// /36// 10003 21001 37913 48525 5////;
0096066590999992011011309004+46983+008250FM-12+211099999V02099999999999999999N9999999N1+00121-00021999999ADDMA1999999079111ME1315219REMSYN060AAXX  13094 06659 43/// /00// 10012 21002 37911 48521 5////;
0096066590999992011011310004+46983+008250FM-12+211099999V02099999999999999999N9999999N1+00191-00111999999ADDMA1999999079141ME1315239REMSYN060AAXX  13104 06659 43/// ///// 10019 21011 37914 48523 5////;
0096066590999992011011311004+46983+008250FM-12+211099999V02099999999999999999N9999999N1+00211-00201999999ADDMA1999999079131ME1315219REMSYN060AAXX  13114 06659 43/// ///// 10021 21020 37913 48521 5////;
0096066590999992011011312004+46983+008250FM-12+211099999V02099999999999999999N9999999N1+00201-00211999999ADDMA1999999079121ME1315219REMSYN060AAXX  13124 06659 43/// ///// 10020 21021 37912 48521 5////;
0096066590999992011011313004+46983+008250FM-12+211099999V02099999999999999999N9999999N1+00171-00251999999ADDMA1999999079081ME1315179REMSYN060AAXX  13134 06659 43/// ///// 10017 21025 37908 48517 5////;
0096066590999992011011314004+46983+008250FM-12+211099999V02099999999999999999N9999999N1+00221-00251999999ADDMA1999999079101ME1315189REMSYN060AAXX  13144 06659 43/// ///// 10022 21025 37910 48518 5////;
0096066590999992011011315004+46983+008250FM-12+211099999V02099999999999999999N9999999N1+00161-00141999999ADDMA1999999079131ME1315239REMSYN060AAXX  13154 06659 43/// ///// 10016 21014 37913 48523 5////;
0096066590999992011011316004+46983+008250FM-12+211099999V02099999999999999999N9999999N1+00191-00101999999ADDMA1999999079151ME1315249REMSYN060AAXX  13164 06659 43/// ///// 10019 21010 37915 48524 5////;
0126066590999992011011317004+46983+008250FM-12+211099999V02099999999999999999N9999999N1+00151+00011999999ADDMA1999999079151MD1210051+9999ME1315259REMSYN076AAXX  13174 06659 33/// ///// 10015 20001 37915 48525 52005 333 55300 20000;
0168066590999992011011318004+46983+008250FM-12+211099999V02099999999999999999N9999999N1+00121+00071999999ADDAA112000591KA1120M+00271MA1999999079151MD1110031+9999ME1315259REMSYN094AAXX  13184 06659 03/// ///// 10012 20007 37915 48525 51003 69962 333 10027 55300 20000 60005;
0126066590999992011011319004+46983+008250FM-12+211099999V02099999999999999999N9999999N1+00101+00091999999ADDMA1999999079141MD1810011+9999ME1315259REMSYN076AAXX  13194 06659 33/// ///// 10010 20009 37914 48525 58001 333 55300 20000;
0126066590999992011011320004+46983+008250FM-12+211099999V02099999999999999999N9999999N1+00111+00111999999ADDMA1999999079141MD1710011+9999ME1315259REMSYN076AAXX  13204 06659 33/// ///// 10011 20011 37914 48525 57001 333 55300 20000;
0126066590999992011011321004+46983+008250FM-12+211099999V02099999999999999999N9999999N1+00071+00061999999ADDMA1999999079141MD1510011+9999ME1315259REMSYN076AAXX  13214 06659 33/// ///// 10007 20006 37914 48525 55001 333 55300 20000;
0126066590999992011011322004+46983+008250FM-12+211099999V02099999999999999999N9999999N1+00131+00011999999ADDMA1999999079121MD1710021+9999ME1315229REMSYN076AAXX  13224 06659 33/// ///// 10013 20001 37912 48522 57002 333 55300 20000;
0126066590999992011011323004+46983+008250FM-12+211099999V02099999999999999999N9999999N1+00071+00011999999ADDMA1999999079121MD1510021+9999ME1315239REMSYN076AAXX  13234 06659 33/// ///// 10007 20001 37912 48523 55002 333 55300 20000;
0126066590999992011011400004+46983+008250FM-12+211099999V02099999999999999999N9999999N1+00161-00091999999ADDMA1999999079101MD1710041+9999ME1315199REMSYN076AAXX  14004 06659 33/// ///// 10016 21009 37910 48519 57004 333 55300 20000;
0126066590999992011011401004+46983+008250FM-12+211099999V02099999999999999999N9999999N1+00141-00211999999ADDMA1999999079121MD1010001+9999ME1315229REMSYN076AAXX  14014 06659 33/// ///// 10014 21021 37912 48522 50000 333 55300 20000;
0112066590999992011011402004+46983+008250FM-12+211099999V02099999999999999999N9999999N1+00171-00271999999ADDMA1999999079151ME1315249REMSYN076AAXX  14024 06659 33/// ///// 10017 21027 37915 48524 5//// 333 553// 20000;
0126066590999992011011403004+46983+008250FM-12+211099999V02099999999999999999N9999999N1+00171-00301999999ADDMA1999999079131MD1210031+9999ME1315229REMSYN076AAXX  14034 06659 33/// ///// 10017 21030 37913 48522 52003 333 55300 20000;
0126066590999992011011404004+46983+008250FM-12+211099999V02099999999999999999N9999999N1+00171-00391999999ADDMA1999999079111MD1010011+9999ME1315209REMSYN076AAXX  14044 06659 33/// ///// 10017 21039 37911 48520 50001 333 55300 20000;
0126066590999992011011405004+46983+008250FM-12+211099999V02099999999999999999N9999999N1+00211-00421999999ADDMA1999999079091MD1710061+9999ME1315179REMSYN076AAXX  14054 06659 33/// ///// 10021 21042 37909 48517 57006 333 55300 20000;
0165066590999992011011406004+46983+008250FM-12+211099999V02099999999999999999N9999999N1+00161-00581999999ADDGJ100309KA1999N+00071MA1999999079111MD1510021+9999ME1315209REMSYN094AAXX  14064 06659 33/// ///// 10016 21058 37911 48520 55002 333 20007 55005 55300 20000 70006;
0126066590999992011011407004+46983+008250FM-12+211099999V02099999999999999999N9999999N1+00251-00551999999ADDMA1999999079111MD1510001+9999ME1315189REMSYN076AAXX  14074 06659 33/// ///// 10025 21055 37911 48518 55000 333 55300 20000;
0096066590999992011011408004+46983+008250FM-12+211099999V02099999999999999999N9999999N1+00301-00431999999ADDMA1999999079121ME1315189REMSYN060AAXX  14084 06659 43/// ///// 10030 21043 37912 48518 5////;
0096066590999992011011409004+46983+008250FM-12+211099999V02099999999999999999N9999999N1+00361-00441999999ADDMA1999999079111ME1315169REMSYN060AAXX  14094 06659 43/// ///// 10036 21044 37911 48516 5////;
0096066590999992011011410004+46983+008250FM-12+211099999V02099999999999999999N9999999N1+00391-00441999999ADDMA1999999079101ME1315149REMSYN060AAXX  14104 06659 43/// ///// 10039 21044 37910 48514 5////;
0126066590999992011011411004+46983+008250FM-12+211099999V02099999999999999999N9999999N1+00471-00671999999ADDMA1999999079091MD1610031+9999ME1315129REMSYN076AAXX  14114 06659 33/// ///// 10047 21067 37909 48512 56003 333 553// 2////;
0126066590999992011011412004+46983+008250FM-12+211099999V0202101N008219999999N9999999N1+00441-00581999999ADDMA1999999079051MD1810061+9999ME1315089REMSYN076AAXX  14124 06659 33/// /2116 10044 21058 37905 48508 58006 333 55308 2////;
0126066590999992011011413004+46983+008250FM-12+211099999V0202101N007219999999N9999999N1+00431-00651999999ADDMA1999999079021MD1710081+9999ME1315059REMSYN076AAXX  14134 06659 33/// /2114 10043 21065 37902 48505 57008 333 553// 2////;
0112066590999992011011414004+46983+008250FM-12+211099999V0202101N006719999999N9999999N1+00401-00851999999ADDMA1999999079001ME1315049REMSYN076AAXX  14144 06659 33/// /2113 10040 21085 37900 48504 5//// 333 553// 2////;
0126066590999992011011415004+46983+008250FM-12+211099999V0202101N006219999999N9999999N1+00321-00851999999ADDMA1999999079011MD1710041+9999ME1315079REMSYN076AAXX  14154 06659 33/// /2112 10032 21085 37901 48507 57004 333 55309 20648;
0149066590999992011011416004+46983+008250FM-12+211099999V0202101N006219999999N9999999N1+00381-01141999999ADDMA1999999079001MD1710021+9999ME1315049OA149901901REMSYN088AAXX  14164 06659 33/// /2112 10038 21114 37900 48504 57002 333 55300 20112 91137 91217;
0149066590999992011011417004+46983+008250FM-12+211099999V0202101N010819999999N9999999N1+00371-01081999999ADDMA1999999079011MD1210011+9999ME1315059OA149902011REMSYN088AAXX  14174 06659 33/// /2121 10037 21108 37901 48505 52001 333 55300 20000 91139 91221;
0145066590999992011011418004+46983+008250FM-12+211099999V0202101N011319999999N9999999N1+00391-01311999999ADDKA1120M+00481MA1999999078991MD1710021+9999ME1315039REMSYN082AAXX  14184 06659 33/// /2122 10039 21131 37899 48503 57002 333 10048 55300 20000;
0149066590999992011011419004+46983+008250FM-12+211099999V0202101N007719999999N9999999N1+00391-01351999999ADDMA1999999078981MD1710021+9999ME1315029OA149902681REMSYN088AAXX  14194 06659 33/// /2115 10039 21135 37898 48502 57002 333 55300 20000 91152 91225;
0149066590999992011011420004+46983+008250FM-12+211099999V0202101N005119999999N9999999N1+00311-01411999999ADDMA1999999078961MD1810051+9999ME1315029OA149902261REMSYN088AAXX  14204 06659 33/// /2110 10031 21141 37896 48502 58005 333 55300 20000 91144 91223;
0149066590999992011011421004+46983+008250FM-12+211099999V0202101N008719999999N9999999N1+00051-00931999999ADDMA1999999078951MD1610041+9999ME1315069OA149902681REMSYN088AAXX  14214 06659 33/// /2117 10005 21093 37895 48506 56004 333 55300 20000 91152 91225;
0149066590999992011011422004+46983+008250FM-12+211099999V0202001N004619999999N9999999N1-00201-00511999999ADDMA1999999078971MD1510011+9999ME1315149OA149902261REMSYN088AAXX  14224 06659 33/// /2009 11020 21051 37897 48514 55001 333 55300 20000 91144 91217;
0149066590999992011011423004+46983+008250FM-12+211099999V0201901N004619999999N9999999N1-00231-00231999999ADDMA1999999079011MD1310051+9999ME1315199OA149902011REMSYN088AAXX  14234 06659 33/// /1909 11023 21023 37901 48519 53005 333 55300 20000 91139 91213;
0149066590999992011011500004+46983+008250FM-12+211099999V0201901N006219999999N9999999N1-00221-00231999999ADDMA1999999079051MD1210101+9999ME1315239OA149902681REMSYN088AAXX  15004 06659 33/// /1912 11022 21023 37905 48523 52010 333 55300 20000 91152 91225;
0149066590999992011011501004+46983+008250FM-12+211099999V0202001N006719999999N9999999N1-00231-00291999999ADDMA1999999079061MD1210091+9999ME1315249OA149902321REMSYN088AAXX  15014 06659 33/// /2013 11023 21029 37906 48524 52009 333 55300 20000 91145 91213;
0155066590999992011011502004+46983+008250FM-12+211099999V0201901N003619999999N9999999N1-00201-00201999999ADDMA1999999079121MD1219999+9999ME1315299OA149902321REMSYN094AAXX  15024 06659 23/// /1907 11020 21020 37912 48529 52/// 333 55300 20000 60025 91145 91213;
0118066590999992011011503004+46983+008250FM-12+211099999V0201901N002619999999N9999999N1-00221-00221999999ADDMA1999999079171ME1315359REMSYN082AAXX  15034 06659 23/// /1905 11022 21022 37917 48535 5//// 333 553// 20000 60015;
0155066590999992011011504004+46983+008250FM-12+211099999V0201901N005119999999N9999999N1-00251-00251999999ADDMA1999999079231MD1210171+9999ME1315429OA149901851REMSYN094AAXX  15044 06659 23/// /1910 11025 21025 37923 48542 52017 333 55300 20000 60045 91136 91210;
0155066590999992011011505004+46983+008250FM-12+211099999V0201901N003119999999N9999999N1-00281-00281999999ADDMA1999999079291MD1210171+9999ME1315489OA149901601REMSYN094AAXX  15054 06659 23/// /1906 11028 21028 37929 48548 52017 333 55300 20000 60025 91131 91210;
0221066590999992011011506004+46983+008250FM-12+211099999V0202001N006719999999N9999999N1-00301-00301999999ADDAA112009991AL13600991GJ104269KA1999N-00281MA1999999079361MD1210191+9999ME1315569OA149902321REMSYN118AAXX  15064 06659 03/// /2013 11030 21030 37936 48556 52019 60102 333 21028 55071 55300 20000 69995 70096 91145 91223;
0149066590999992011011507004+46983+008250FM-12+211099999V0202201N010819999999N9999999N1-00351-00501999999ADDMA1999999079411MD1210181+9999ME1315629OA149901601REMSYN088AAXX  15074 06659 33/// /2221 11035 21050 37941 48562 52018 333 55300 20000 91131 91221;
0149066590999992011011508004+46983+008250FM-12+211099999V0202201N007719999999N9999999N1-00141-00541999999ADDMA1999999079401MD1219999+9999ME1315579OA149901751REMSYN088AAXX  15084 06659 33/// /2215 11014 21054 37940 48557 52/// 333 55303 20119 91134 91221;
0149066590999992011011509004+46983+008250FM-12+211099999V0202201N010319999999N9999999N1-00111-00831999999ADDMA1999999079441MD1210081+9999ME1315609OA149901751REMSYN088AAXX  15094 06659 33/// /2220 11011 21083 37944 48560 52008 333 553// 20598 91134 91221;
0149066590999992011011510004+46983+008250FM-12+211099999V0202201N010319999999N9999999N1-00041-01011999999ADDMA1999999079481MD1210071+9999ME1315639OA149901751REMSYN088AAXX  15104 06659 33/// /2220 11004 21101 37948 48563 52007 333 553// 2//// 91134 91221;
0155066590999992011011511004+46983+008250FM-12+211099999V0202201N011819999999N9999999N1+00021-01171999999ADDMA1999999079431MD1010031+9999ME1315569OA149901751REMSYN094AAXX  15114 06659 23/// /2223 10002 21117 37943 48556 50003 333 553// 2//// 69915 91134 91223;
0191066590999992011011512004+46983+008250FM-12+211099999V0202201N005719999999N9999999N1+00011-01381999999ADDAA106000091MA1999999079421MD1710021+9999ME1315569OA149902321REMSYN100AAXX  15124 06659 03/// /2211 10001 21138 37942 48556 57002 69911 333 553// 2//// 60005 91145 91223;EQDQ01  00002PRCP06
0112066590999992011011513004+46983+008250FM-12+211099999V0202101N004119999999N9999999N1+00021-01481999999ADDMA1999999079421ME1315559REMSYN076AAXX  15134 06659 33/// /2108 10002 21148 37942 48555 5//// 333 553// 2////;
0096066590999992011011514004+46983+008250FM-12+211099999V0202201N003119999999N9999999N1-00011-00991999999ADDMA1999999079471ME1315619REMSYN060AAXX  15144 06659 43/// /2206 11001 21099 37947 48561 5////;
0096066590999992011011515004+46983+008250FM-12+211099999V0202201N005119999999N9999999N1+00031-01601999999ADDMA1999999079511ME1315649REMSYN060AAXX  15154 06659 43/// /2210 10003 21160 37951 48564 5////;
0096066590999992011011516004+46983+008250FM-12+211099999V0202101N004619999999N9999999N1+00021-01801999999ADDMA1999999079541ME1315689REMSYN060AAXX  15164 06659 43/// /2109 10002 21180 37954 48568 5////;
0112066590999992011011517004+46983+008250FM-12+211099999V0202201N004619999999N9999999N1+00031-02271999999ADDMA1999999079571ME1315709REMSYN076AAXX  15174 06659 33/// /2209 10003 21227 37957 48570 5//// 333 553// 20000;
0119066590999992011011518004+46983+008250FM-12+211099999V0202201N004119999999N9999999N1+00121-01921999999ADDKA1999M+00151MA1999999079611ME1315739REMSYN070AAXX  15184 06659 43/// /2208 10012 21192 37961 48573 5//// 333 10015;
0096066590999992011011519004+46983+008250FM-12+211099999V0202401N005119999999N9999999N1+00171-02011999999ADDMA1999999079661ME1315779REMSYN060AAXX  15194 06659 43/// /2410 10017 21201 37966 48577 5////;
0096066590999992011011520004+46983+008250FM-12+211099999V0202401N006719999999N9999999N1+00271-01961999999ADDMA1999999079681ME1315779REMSYN060AAXX  15204 06659 43/// /2413 10027 21196 37968 48577 5////;
0149066590999992011011521004+46983+008250FM-12+211099999V0202501N005119999999N9999999N1+00391-01711999999ADDMA1999999079691MD1210081+9999ME1315769OA149901391REMSYN088AAXX  15214 06659 33/// /2510 10039 21171 37969 48576 52008 333 55300 20000 91127 91213;
0149066590999992011011522004+46983+008250FM-12+211099999V0202201N004119999999N9999999N1+00431-00692999999ADDMA1999999079701MD1210041+9999ME1315769OA149900981REMSYN088AAXX  15224 06659 33/// /2208 10043 21069 37970 48576 52004 333 55300 20000 91119 91211;
0149066590999992011011523004+46983+008250FM-12+211099999V0202101N005719999999N9999999N1+00511-00941999999ADDMA1999999079691MD1010011+9999ME1315739OA149900721REMSYN088AAXX  15234 06659 33/// /2111 10051 21094 37969 48573 50001 333 55300 20000 91114 91211;
0149066590999992011011600004+46983+008250FM-12+211099999V0202201N005119999999N9999999N1+00501-01011999999ADDMA1999999079671MD1710021+9999ME1315719OA149901441REMSYN088AAXX  16004 06659 33/// /2210 10050 21101 37967 48571 57002 333 55300 20000 91128 91213;
0149066590999992011011601004+46983+008250FM-12+211099999V0202201N006719999999N9999999N1+00551-00971999999ADDMA1999999079661MD1610041+9999ME1315699OA149900931REMSYN088AAXX  16014 06659 33/// /2213 10055 21097 37966 48569 56004 333 55300 20000 91118 91214;
0149066590999992011011602004+46983+008250FM-12+211099999V0202201N003119999999N9999999N1+00531-01611999999ADDMA1999999079681MD1519999+9999ME1315729OA149901131REMSYN088AAXX  16024 06659 33/// /2206 10053 21161 37968 48572 55/// 333 55300 20000 91122 91215;
0096066590999992011011603004+46983+008250FM-12+211099999V0202201N003119999999N9999999N1+00511-01151999999ADDMA1999999079671ME1315719REMSYN060AAXX  16034 06659 43/// /2206 10051 21115 37967 48571 5////;
0149066590999992011011604004+46983+008250FM-12+211099999V0202101N003119999999N9999999N1+00531-00871999999ADDMA1999999079681MD1210021+9999ME1315729OA149900981REMSYN088AAXX  16044 06659 33/// /2106 10053 21087 37968 48572 52002 333 55300 20000 91119 91209;
0168066590999992011011605004+46983+008250FM-12+211099999V0202001N005119999999N9999999N1+00611-00691999999ADDMA1999999079681MD1410001+9999ME1315709OA149900881REMSYN088AAXX  16054 06659 33/// /2010 10061 21069 37968 48570 51000 333 55300 20000 91117 91210;EQDQ01+000012APCTEN
0198066590999992011011606004+46983+008250FM-12+211099999V0202201N005119999999N9999999N1+00641-00771999999ADDAL11200091GJ104089KA1999N+00101MA1999999079681MD1010011+9999ME1315709OA149901131REMSYN106AAXX  16064 06659 33/// /2210 10064 21077 37968 48570 50001 333 20010 55068 55300 20000 70002 91122 91215;
0149066590999992011011607004+46983+008250FM-12+211099999V0202201N007219999999N9999999N1+00681-00851999999ADDMA1999999079691MD1210011+9999ME1315709OA149901131REMSYN088AAXX  16074 06659 33/// /2214 10068 21085 37969 48570 52001 333 55300 20000 91122 91215;
0149066590999992011011608004+46983+008250FM-12+211099999V0202201N006719999999N9999999N1+00731-00801999999ADDMA1999999079721MD1319999+9999ME1315729OA149900931REMSYN088AAXX  16084 06659 33/// /2213 10073 21080 37972 48572 53/// 333 55303 20119 91118 91215;
0149066590999992011011609004+46983+008250FM-12+211099999V0202001N002619999999N9999999N1+00831-00811999999ADDMA1999999079721MD1210041+9999ME1315709OA149901131REMSYN088AAXX  16094 06659 33/// /2005 10083 21081 37972 48570 52004 333 553// 20601 91122 91215;
0149066590999992011011610004+46983+008250FM-12+211099999V0201801N002119999999N9999999N1+00941-00561999999ADDMA1999999079741MD1110051+9999ME1315709OA149901081REMSYN088AAXX  16104 06659 33/// /1804 10094 21056 37974 48570 51005 333 553// 2//// 91121 91213;
0149066590999992011011611004+46983+008250FM-12+211099999V0201801N002619999999N9999999N1+00911-00551999999ADDMA1999999079741MD1210021+9999ME1315719OA149900411REMSYN088AAXX  16114 06659 33/// /1805 10091 21055 37974 48571 52002 333 553// 2//// 91108 91205;
0149066590999992011011612004+46983+008250FM-12+211099999V0201901N001019999999N9999999N1+00791-00431999999ADDMA1999999079721MD1010001+9999ME1315719OA149901131REMSYN088AAXX  16124 06659 33/// /1902 10079 21043 37972 48571 50000 333 553// 2//// 91122 91215;
0149066590999992011011613004+46983+008250FM-12+211099999V0201801N002619999999N9999999N1+00821-00401999999ADDMA1999999079701MD1710041+9999ME1315689OA149900511REMSYN088AAXX  16134 06659 33/// /1805 10082 21040 37970 48568 57004 333 553// 2//// 91110 91206;
0149066590999992011011614004+46983+008250FM-12+211099999V0202001N003119999999N9999999N1+00811-00571999999ADDMA1999999079701MD1719999+9999ME1315689OA149900571REMSYN088AAXX  16144 06659 33/// /2006 10081 21057 37970 48568 57/// 333 553// 2//// 91111 91208;
0149066590999992011011615004+46983+008250FM-12+211099999V0202101N003119999999N9999999N1+00731-00661999999ADDMA1999999079691MD1710031+9999ME1315699OA149900571REMSYN088AAXX  16154 06659 33/// /2106 10073 21066 37969 48569 57003 333 55309 20691 91111 91208;
0149066590999992011011616004+46983+008250FM-12+211099999V0202201N002119999999N9999999N1+00671-01081999999ADDMA1999999079681MD1710021+9999ME1315699OA149900511REMSYN088AAXX  16164 06659 33/// /2204 10067 21108 37968 48569 57002 333 55303 20108 91110 91206;
0149066590999992011011617004+46983+008250FM-12+211099999V0202201N003619999999N9999999N1+00631-01041999999ADDMA1999999079701MD1510001+9999ME1315729OA149900571REMSYN088AAXX  16174 06659 33/// /2207 10063 21104 37970 48572 55000 333 55300 20000 91111 91207;
0168066590999992011011618004+46983+008250FM-12+211099999V0202201N004119999999N9999999N1+00621-01101999999ADDKA1120M+00951MA1999999079711MD1210021+9999ME1315739OA149901081REMSYN094AAXX  16184 06659 33/// /2208 10062 21110 37971 48573 52002 333 10095 55300 20000 91121 91215;
0149066590999992011011619004+46983+008250FM-12+211099999V0202201N005119999999N9999999N1+00601-01321999999ADDMA1999999079711MD1110031+9999ME1315749OA149900931REMSYN088AAXX  16194 06659 33/// /2210 10060 21132 37971 48574 51003 333 55300 20000 91118 91210;
0149066590999992011011620004+46983+008250FM-12+211099999V0202201N005119999999N9999999N1+00591-01411999999ADDMA1999999079721MD1110021+9999ME1315759OA149900931REMSYN088AAXX  16204 06659 33/// /2210 10059 21141 37972 48575 51002 333 55300 20000 91118 91211;
0149066590999992011011621004+46983+008250FM-12+211099999V0201901N004119999999N9999999N1+00571-01031999999ADDMA1999999079721MD1110011+9999ME1315759OA149900931REMSYN088AAXX  16214 06659 33/// /1908 10057 21103 37972 48575 51001 333 55300 20000 91118 91211;
0149066590999992011011622004+46983+008250FM-12+211099999V0201501N004119999999N9999999N1+00551-00941999999ADDMA1999999079701MD1810011+9999ME1315749OA149900881REMSYN088AAXX  16224 06659 33/// /1508 10055 21094 37970 48574 58001 333 55300 20000 91117 91211;
0149066590999992011011623004+46983+008250FM-12+211099999V0201801N003119999999N9999999N1+00531-01011999999ADDMA1999999079691MD1610031+9999ME1315739OA149900511REMSYN088AAXX  16234 06659 33/// /1806 10053 21101 37969 48573 56003 333 55300 20000 91110 91208;
0149066590999992011011700004+46983+008250FM-12+211099999V0202201N002119999999N9999999N1+00331-01001999999ADDMA1999999079681MD1610041+9999ME1315769OA149900931REMSYN088AAXX  17004 06659 33/// /2204 10033 21100 37968 48576 56004 333 55300 20000 91118 91211;
0149066590999992011011701004+46983+008250FM-12+211099999V0202101N002619999999N9999999N1+00331-00961999999ADDMA1999999079661MD1810041+9999ME1315749OA149900931REMSYN088AAXX  17014 06659 33/// /2105 10033 21096 37966 48574 58004 333 55300 20000 91118 91209;
0149066590999992011011702004+46983+008250FM-12+211099999V0202001N003119999999N9999999N1+00291-00911999999ADDMA1999999079641MD1819999+9999ME1315729OA149900931REMSYN088AAXX  17024 06659 33/// /2006 10029 21091 37964 48572 58/// 333 55300 20000 91118 91209;
0112066590999992011011703004+46983+008250FM-12+211099999V0202201N004119999999N9999999N1+00311-00921999999ADDMA1999999079631ME1315719REMSYN076AAXX  17034 06659 33/// /2208 10031 21092 37963 48571 5//// 333 553// 20000;
0149066590999992011011704004+46983+008250FM-12+211099999V0202101N002619999999N9999999N1+00291-00931999999ADDMA1999999079591MD1810071+9999ME1315679OA149900671REMSYN088AAXX  17044 06659 33/// /2105 10029 21093 37959 48567 58007 333 55300 20000 91113 91209;
0149066590999992011011705004+46983+008250FM-12+211099999V0202201N003619999999N9999999N1+00371-01021999999ADDMA1999999079551MD1810091+9999ME1315629OA149900511REMSYN088AAXX  17054 06659 33/// /2207 10037 21102 37955 48562 58009 333 55300 20000 91110 91208;
0198066590999992011011706004+46983+008250FM-12+211099999V0201801N001519999999N9999999N1+00311-00951999999ADDAL19900091GJ104509KA1999N+00261MA1999999079531MD1610101+9999ME1315619OA149900931REMSYN106AAXX  17064 06659 33/// /1803 10031 21095 37953 48561 56010 333 20026 55075 55300 20000 70000 91118 91211;
0149066590999992011011707004+46983+008250FM-12+211099999V0201801N002119999999N9999999N1+00361-00931999999ADDMA1999999079511MD1610081+9999ME1315589OA149900511REMSYN088AAXX  17074 06659 33/// /1804 10036 21093 37951 48558 56008 333 55300 20000 91110 91208;
0096066590999992011011708004+46983+008250FM-12+211099999V0201501N002119999999N9999999N1+00491-01461999999ADDMA1999999079501ME1315549REMSYN060AAXX  17084 06659 43/// /1504 10049 21146 37950 48554 5////;
0096066590999992011011709004+46983+008250FM-12+211099999V0201201N001519999999N9999999N1+00611-01431999999ADDMA1999999079481ME1315499REMSYN060AAXX  17094 06659 43/// /1203 10061 21143 37948 48549 5////;
0149066590999992011011710004+46983+008250FM-12+211099999V0202101N000519999999N9999999N1+00571-01381999999ADDMA1999999079491MD1710021+9999ME1315519OA149900311REMSYN088AAXX  17104 06659 33/// /2101 10057 21138 37949 48551 57002 333 553// 2//// 91106 91204;
0149066590999992011011711004+46983+008250FM-12+211099999V0202401N001519999999N9999999N1+00521-01421999999ADDMA1999999079491MD1510011+9999ME1315529OA149900311REMSYN088AAXX  17114 06659 33/// /2403 10052 21142 37949 48552 55001 333 553// 2//// 91106 91203;
0149066590999992011011712004+46983+008250FM-12+211099999V0201801N002119999999N9999999N1+00321-01001999999ADDMA1999999079481MD1010001+9999ME1315559OA149900931REMSYN088AAXX  17124 06659 33/// /1804 10032 21100 37948 48555 50000 333 553// 2//// 91118 91209;
0149066590999992011011713004+46983+008250FM-12+211099999V0202101N005719999999N9999999N1+00321-00861999999ADDMA1999999079471MD1810021+9999ME1315549OA149900931REMSYN088AAXX  17134 06659 33/// /2111 10032 21086 37947 48554 58002 333 553// 2//// 91118 91211;
0096066590999992011011714004+46983+008250FM-12+211099999V0202201N004619999999N9999999N1+00231-00811999999ADDMA1999999079471ME1315569REMSYN060AAXX  17144 06659 43/// /2209 10023 21081 37947 48556 5////;
0096066590999992011011715004+46983+008250FM-12+211099999V0202101N007219999999N9999999N1+00141-00861999999ADDMA1999999079491ME1315609REMSYN060AAXX  17154 06659 43/// /2114 10014 21086 37949 48560 5////;
0149066590999992011011716004+46983+008250FM-12+211099999V0202101N007719999999N9999999N1+00041-00781999999ADDMA1999999079491MD1110021+9999ME1315629OA149901541REMSYN088AAXX  17164 06659 33/// /2115 10004 21078 37949 48562 51002 333 55303 20112 91130 91216;
0149066590999992011011717004+46983+008250FM-12+211099999V0202101N007219999999N9999999N1+00001-00701999999ADDMA1999999079511MD1110041+9999ME1315659OA149901601REMSYN088AAXX  17174 06659 33/// /2114 10000 21070 37951 48565 51004 333 55300 20000 91131 91217;
0168066590999992011011718004+46983+008250FM-12+211099999V0202101N005119999999N9999999N1-00011-00661999999ADDKA1120M+00641MA1999999079521MD1210031+9999ME1315669OA149901601REMSYN094AAXX  17184 06659 33/// /2110 11001 21066 37952 48566 52003 333 10064 55300 20000 91131 91217;
0149066590999992011011719004+46983+008250FM-12+211099999V0202101N005119999999N9999999N1-00081-00721999999ADDMA1999999079521MD1210031+9999ME1315689OA149901441REMSYN088AAXX  17194 06659 33/// /2110 11008 21072 37952 48568 52003 333 55300 20000 91128 91216;
0149066590999992011011720004+46983+008250FM-12+211099999V0202101N003619999999N9999999N1-00031-00741999999ADDMA1999999079531MD1210021+9999ME1315689OA149901391REMSYN088AAXX  17204 06659 33/// /2107 11003 21074 37953 48568 52002 333 55300 20000 91127 91211;
0149066590999992011011721004+46983+008250FM-12+211099999V0202101N004619999999N9999999N1-00031-00761999999ADDMA1999999079521MD1010001+9999ME1315679OA149901601REMSYN088AAXX  17214 06659 33/// /2109 11003 21076 37952 48567 50000 333 55300 20000 91131 91217;
0149066590999992011011722004+46983+008250FM-12+211099999V0202101N003619999999N9999999N1-00051-00721999999ADDMA1999999079521MD1010001+9999ME1315679OA149901441REMSYN088AAXX  17224 06659 33/// /2107 11005 21072 37952 48567 50000 333 55300 20000 91128 91214;
0149066590999992011011723004+46983+008250FM-12+211099999V0202001N001519999999N9999999N1-00061-00751999999ADDMA1999999079511MD1710021+9999ME1315669OA149901081REMSYN088AAXX  17234 06659 33/// /2003 11006 21075 37951 48566 57002 333 55300 20000 91121 91211;
0149066590999992011011800004+46983+008250FM-12+211099999V0202201N003119999999N9999999N1-00061-00741999999ADDMA1999999079491MD1710031+9999ME1315649OA149901601REMSYN088AAXX  18004 06659 33/// /2206 11006 21074 37949 48564 57003 333 55300 20000 91131 91217;
0149066590999992011011801004+46983+008250FM-12+211099999V0202101N002619999999N9999999N1-00111-00701999999ADDMA1999999079481MD1719999+9999ME1315649OA149900821REMSYN088AAXX  18014 06659 33/// /2105 11011 21070 37948 48564 57/// 333 55300 20000 91116 91206;
0096066590999992011011802004+46983+008250FM-12+211099999V0202101N004119999999N9999999N1-00181-00631999999ADDMA1999999079471ME1315659REMSYN060AAXX  18024 06659 43/// /2108 11018 21063 37947 48565 5////;
0096066590999992011011803004+46983+008250FM-12+211099999V0202101N003619999999N9999999N1-00081-00721999999ADDMA1999999079431ME1315589REMSYN060AAXX  18034 06659 43/// /2107 11008 21072 37943 48558 5////;
0112066590999992011011804004+46983+008250FM-12+211099999V0202201N005119999999N9999999N1-00141-00691999999ADDMA1999999079391ME1315569REMSYN076AAXX  18044 06659 33/// /2210 11014 21069 37939 48556 5//// 333 553// 20000;
0149066590999992011011805004+46983+008250FM-12+211099999V0202101N004619999999N9999999N1-00071-00811999999ADDMA1999999079341MD1710131+9999ME1315499OA149900931REMSYN088AAXX  18054 06659 33/// /2109 11007 21081 37934 48549 57013 333 55300 20000 91118 91211;
0198066590999992011011806004+46983+008250FM-12+211099999V0202201N004119999999N9999999N1-00171-00661999999ADDAL19900091GJ104509KA1999N-00211MA1999999079351MD1710081+9999ME1315529OA149901441REMSYN106AAXX  18064 06659 33/// /2208 11017 21066 37935 48552 57008 333 21021 55075 55300 20000 70000 91128 91214;
0149066590999992011011807004+46983+008250FM-12+211099999V0202201N003119999999N9999999N1-00201-00641999999ADDMA1999999079361MD1510031+9999ME1315549OA149900621REMSYN088AAXX  18074 06659 33/// /2206 11020 21064 37936 48554 55003 333 55300 20000 91112 91208;
0096066590999992011011808004+46983+008250FM-12+211099999V0202201N002119999999N9999999N1-00251-00491999999ADDMA1999999079371ME1315569REMSYN060AAXX  18084 06659 43/// /2204 11025 21049 37937 48556 5////;
0096066590999992011011809004+46983+008250FM-12+211099999V0202101N005719999999N9999999N1-00151-00541999999ADDMA1999999079361ME1315539REMSYN060AAXX  18094 06659 43/// /2111 11015 21054 37936 48553 5////;
0168066590999992011011810004+46983+008250FM-12+211099999V0202101N004619999999N9999999N1-00131-00531999999ADDMA1999999079361MD1410001+9999ME1315529OA149901241REMSYN088AAXX  18104 06659 33/// /2109 11013 21053 37936 48552 58000 333 55301 20810 91124 91214;EQDQ01+000082APCTEN
0149066590999992011011811004+46983+008250FM-12+211099999V0202001N003119999999N9999999N1-00091-00401999999ADDMA1999999079321MD1710051+9999ME1315479OA149901031REMSYN088AAXX  18114 06659 33/// /2006 11009 21040 37932 48547 57005 333 55300 20641 91120 91212;
0149066590999992011011812004+46983+008250FM-12+211099999V0202101N004119999999N9999999N1+00021-00381999999ADDMA1999999079261MD1719999+9999ME1315399OA149901291REMSYN088AAXX  18124 06659 33/// /2108 10002 21038 37926 48539 57/// 333 55302 2//// 91125 91215;
0112066590999992011011813004+46983+008250FM-12+211099999V0201901N005119999999N9999999N1-00111-00301999999ADDMA1999999079231ME1315399REMSYN076AAXX  18134 06659 33/// /1910 11011 21030 37923 48539 5//// 333 553// 20788;
0096066590999992011011814004+46983+008250FM-12+211099999V0202101N006719999999N9999999N1-00131-00471999999ADDMA1999999079231ME1315399REMSYN060AAXX  18144 06659 43/// /2113 11013 21047 37923 48539 5////;
0096066590999992011011815004+46983+008250FM-12+211099999V0202201N005119999999N9999999N1-00241-00341999999ADDMA1999999079231ME1315419REMSYN060AAXX  18154 06659 43/// /2210 11024 21034 37923 48541 5////;
0149066590999992011011816004+46983+008250FM-12+211099999V0202101N005119999999N9999999N1-00251-00261999999ADDMA1999999079251MD1310021+9999ME1315449OA149901081REMSYN088AAXX  18164 06659 33/// /2110 11025 21026 37925 48544 53002 333 55300 20047 91121 91212;
0149066590999992011011817004+46983+008250FM-12+211099999V0202101N004619999999N9999999N1-00301-00301999999ADDMA1999999079261MD1110031+9999ME1315469OA149901081REMSYN088AAXX  18174 06659 33/// /2109 11030 21030 37926 48546 51003 333 55300 20000 91121 91212;
0168066590999992011011818004+46983+008250FM-12+211099999V0202101N003619999999N9999999N1-00311-00311999999ADDKA1120M+00041MA1999999079261MD1210031+9999ME1315469OA149901291REMSYN094AAXX  18184 06659 33/// /2107 11031 21031 37926 48546 52003 333 10004 55300 20000 91125 91215;
0149066590999992011011819004+46983+008250FM-12+211099999V0202001N004619999999N9999999N1-00351-00351999999ADDMA1999999079231MD1810021+9999ME1315449OA149901131REMSYN088AAXX  18194 06659 33/// /2009 11035 21035 37923 48544 58002 333 55300 20000 91122 91210;
0149066590999992011011820004+46983+008250FM-12+211099999V0202001N005119999999N9999999N1-00331-00331999999ADDMA1999999079211MD1710051+9999ME1315419OA149900931REMSYN088AAXX  18204 06659 33/// /2010 11033 21033 37921 48541 57005 333 55300 20000 91118 91210;
0149066590999992011011821004+46983+008250FM-12+211099999V0202101N003619999999N9999999N1-00431-00431999999ADDMA1999999079201MD1610061+9999ME1315429OA149901131REMSYN088AAXX  18214 06659 33/// /2107 11043 21043 37920 48542 56006 333 55300 20000 91122 91212;
0149066590999992011011822004+46983+008250FM-12+211099999V0202101N004619999999N9999999N1-00401-00401999999ADDMA1999999079201MD1710031+9999ME1315429OA149900981REMSYN088AAXX  18224 06659 33/// /2109 11040 21040 37920 48542 57003 333 55300 20000 91119 91211;
0149066590999992011011823004+46983+008250FM-12+211099999V0202101N005719999999N9999999N1-00471-00481999999ADDMA1999999079191MD1710021+9999ME1315429OA149900981REMSYN088AAXX  18234 06659 33/// /2111 11047 21048 37919 48542 57002 333 55300 20000 91119 91211;
0149066590999992011011900004+46983+008250FM-12+211099999V0202101N004619999999N9999999N1-00521-00521999999ADDMA1999999079171MD1710031+9999ME1315419OA149901131REMSYN088AAXX  19004 06659 33/// /2109 11052 21052 37917 48541 57003 333 55300 20000 91122 91213;
0149066590999992011011901004+46983+008250FM-12+211099999V0201701N001519999999N9999999N1-00531-00531999999ADDMA1999999079171MD1710031+9999ME1315419OA149901131REMSYN088AAXX  19014 06659 33/// /1703 11053 21053 37917 48541 57003 333 55300 20000 91122 91213;
0096066590999992011011902004+46983+008250FM-12+211099999V0202101N005719999999N9999999N1-00651-00671999999ADDMA1999999079151ME1315429REMSYN060AAXX  19024 06659 43/// /2111 11065 21067 37915 48542 5////;
