0137066590999992010010100004+46983+008250FM-12+211099999V0202101N005119999999N9999999N1-00291-00531999999ADDMA1999999076541MD1810131+9999ME1312639OA149901541REMSYN076AAXX  01004 06659 33/// /2110 11029 21053 37654 48263 58013 333 91130 91216;
0137066590999992010010101004+46983+008250FM-12+211099999V0202301N004619999999N9999999N1-00321-00511999999ADDMA1999999076511MD1810121+9999ME1312609OA149900621REMSYN076AAXX  01014 06659 33/// /2309 11032 21051 37651 48260 58012 333 91112 91210;
0137066590999992010010102004+46983+008250FM-12+211099999V0202101N003119999999N9999999N1-00361-00521999999ADDMA1999999076471MD1619999+9999ME1312579OA149900881REMSYN076AAXX  01024 06659 33/// /2106 11036 21052 37647 48257 56/// 333 91117 91211;
0096066590999992010010103004+46983+008250FM-12+211099999V0202101N005119999999N9999999N1-00341-00721999999ADDMA1999999076421ME1312519REMSYN060AAXX  01034 06659 43/// /2110 11034 21072 37642 48251 5////;
0096066590999992010010104004+46983+008250FM-12+211099999V0202301N004119999999N9999999N1-00321-00641999999ADDMA1999999076381ME1312479REMSYN060AAXX  01044 06659 33/// /2308 11032 21064 37638 48247 5////;
0137066590999992010010105004+46983+008250FM-12+211099999V0202501N000519999999N9999999N1-00371-00641999999ADDMA1999999076371MD1610101+9999ME1312479OA149900771REMSYN076AAXX  01054 06659 33/// /2501 11037 21064 37637 48247 56010 333 91115 91209;
0197066590999992010010106004+46983+008250FM-12+211099999V0202301N002119999999N9999999N1-00371-00581999999ADDAA124004391AL11800491GJ100009KA1999N-00371MA1999999076341MD1610081+9999ME1312449OA149901031REMSYN094AAXX  01064 06659 33/// /2304 11037 21058 37634 48244 56008 333 21037 55000 70043 91120 91211;
0137066590999992010010107004+46983+008250FM-12+211099999V0202501N001019999999N9999999N1-00381-00541999999ADDMA1999999076331MD1810051+9999ME1312439OA149900621REMSYN076AAXX  01074 06659 33/// /2502 11038 21054 37633 48243 58005 333 91112 91208;
0137066590999992010010108004+46983+008250FM-12+211099999V0202701N003119999999N9999999N1-00381-00481999999ADDMA1999999076361MD1510011+9999ME1312469OA149900411REMSYN076AAXX  01084 06659 33/// /2706 11038 21048 37636 48246 55001 333 91108 91206;
0137066590999992010010109004+46983+008250FM-12+211099999V0202301N002619999999N9999999N1-00351-00491999999ADDMA1999999076401MD1310061+9999ME1312509OA149900771REMSYN076AAXX  01094 06659 33/// /2305 11035 21049 37640 48250 53006 333 91115 91209;
0154066590999992010010110004+46983+008250FM-12+211099999V0202301N002619999999N9999999N1-00361-00471999999ADDAA101000021MA1999999076431MD1310101+9999ME1312539OA149900511REMSYN082AAXX  01104 06659 23/// /2305 11036 21047 37643 48253 53010 333 69915 91110 91206;
0137066590999992010010111004+46983+008250FM-12+211099999V0202301N001519999999N9999999N1-00371-00411999999ADDMA1999999076441MD1110081+9999ME1312559OA149900511REMSYN076AAXX  01114 06659 33/// /2303 11037 21041 37644 48255 51008 333 91110 91206;
0179066590999992010010112004+46983+008250FM-12+211099999V0209999C000019999999N9999999N1-00371-00371999999ADDAA106000091MA1999999076441MD1110041+9999ME1312559OA149900881REMSYN088AAXX  01124 06659 03/// /0000 11037 21037 37644 48255 51004 69921 333 69915 91117 91211;EQDQ01  00002PRCP06
0154066590999992010010113004+46983+008250FM-12+211099999V0202401N002619999999N9999999N1-00361-00371999999ADDAA101000021MA1999999076461MD1210031+9999ME1312569OA149900461REMSYN082AAXX  01134 06659 23/// /2405 11036 21037 37646 48256 52003 333 69915 91109 91205;
0137066590999992010010114004+46983+008250FM-12+211099999V0202201N001019999999N9999999N1-00391-00401999999ADDMA1999999076501MD1219999+9999ME1312619OA149900461REMSYN076AAXX  01144 06659 33/// /2202 11039 21040 37650 48261 52/// 333 91109 91205;
0154066590999992010010115004+46983+008250FM-12+211099999V0202601N001019999999N9999999N1-00401-00431999999ADDAA101000021MA1999999076581MD1210141+9999ME1312709OA149900511REMSYN082AAXX  01154 06659 23/// /2602 11040 21043 37658 48270 52014 333 69925 91110 91206;
0154066590999992010010116004+46983+008250FM-12+211099999V0202601N002119999999N9999999N1-00431-00431999999ADDAA101000591MA1999999076641MD1310181+9999ME1312779OA149900511REMSYN082AAXX  01164 06659 23/// /2604 11043 21043 37664 48277 53018 333 69945 91110 91205;
0154066590999992010010117004+46983+008250FM-12+211099999V0202401N004619999999N9999999N1-00611-00611999999ADDAA101001091MA1999999076721MD1210221+9999ME1312919OA149900981REMSYN082AAXX  01174 06659 23/// /2409 11061 21061 37672 48291 52022 333 60015 91119 91210;
0179066590999992010010118004+46983+008250FM-12+211099999V0202001N001519999999N9999999N1-00631-00631999999ADDAA112004191KA1120M-00321MA1999999076831MD1310251+9999ME1313049OA149901181REMSYN094AAXX  01184 06659 03/// /2003 11063 21063 37683 48304 53025 60042 333 11032 60025 91123 91210;
0154066590999992010010119004+46983+008250FM-12+211099999V0202301N004119999999N9999999N1-00681-00681999999ADDAA101002091MA1999999076951MD1310311+9999ME1313179OA149901181REMSYN082AAXX  01194 06659 23/// /2308 11068 21068 37695 48317 53031 333 60025 91123 91210;
0154066590999992010010120004+46983+008250FM-12+211099999V0202101N003619999999N9999999N1-00731-00731999999ADDAA101001091MA1999999077031MD1110311+9999ME1313279OA149901081REMSYN082AAXX  01204 06659 23/// /2107 11073 21073 37703 48327 51031 333 60015 91121 91212;
0154066590999992010010121004+46983+008250FM-12+211099999V0202001N004119999999N9999999N1-00811-00841999999ADDAA101001091MA1999999077101MD1110271+9999ME1313379OA149901291REMSYN082AAXX  01214 06659 23/// /2008 11081 21084 37710 48337 51027 333 60015 91125 91212;
0154066590999992010010122004+46983+008250FM-12+211099999V0202001N005719999999N9999999N1-00861-00881999999ADDAA101000891MA1999999077121MD1210171+9999ME1313409OA149901341REMSYN082AAXX  01224 06659 23/// /2011 11086 21088 37712 48340 52017 333 69985 91126 91211;
0154066590999992010010123004+46983+008250FM-12+211099999V0202101N009319999999N9999999N1-00911-00911999999ADDAA101000591MA1999999077161MD1210131+9999ME1313469OA149901801REMSYN082AAXX  01234 06659 23/// /2118 11091 21091 37716 48346 52013 333 69955 91135 91218;
0160066590999992010010200004+46983+008250FM-12+211099999V0202201N005719999999N9999999N1-00991-01121999999ADDAA106006191MA1999999077201MD1210101+9999ME1313529OA149901801REMSYN088AAXX  02004 06659 03/// /2211 11099 21112 37720 48352 52010 60061 333 69985 91135 91218;
0154066590999992010010201004+46983+008250FM-12+211099999V0202101N006719999999N9999999N1-01111-01181999999ADDAA101001091MA1999999077231MD1110111+9999ME1313599OA149901651REMSYN082AAXX  02014 06659 23/// /2113 11111 21118 37723 48359 51011 333 60015 91132 91216;
0117066590999992010010202004+46983+008250FM-12+211099999V0202101N004619999999N9999999N1-01211-01251999999ADDAA101000591MA1999999077331ME1313729REMSYN070AAXX  02024 06659 23/// /2109 11121 21125 37733 48372 5//// 333 69965;
0154066590999992010010203004+46983+008250FM-12+211099999V0202001N005119999999N9999999N1-01261-01651999999ADDAA101000591MA1999999077371MD1310171+9999ME1313779OA149901801REMSYN082AAXX  02034 06659 23/// /2010 11126 21165 37737 48377 53017 333 69945 91135 91218;
0154066590999992010010204004+46983+008250FM-12+211099999V0202101N003619999999N9999999N1-01291-01501999999ADDAA101000591MA1999999077431MD1110201+9999ME1313849OA149901341REMSYN082AAXX  02044 06659 23/// /2107 11129 21150 37743 48384 51020 333 69945 91126 91211;
0154066590999992010010205004+46983+008250FM-12+211099999V0202001N005119999999N9999999N1-01351-01501999999ADDAA101000591MA1999999077481MD1110151+9999ME1313919OA149901391REMSYN082AAXX  02054 06659 23/// /2010 11135 21150 37748 48391 51015 333 69955 91127 91211;
0220066590999992010010206004+46983+008250FM-12+211099999V0202101N005119999999N9999999N1-01331-01381999999ADDAA112009991AA224014091AL19901491GJ100009KA1999N-01371MA1999999077501MD1210131+9999ME1313929OA149901801REMSYN106AAXX  02064 06659 03/// /2110 11133 21138 37750 48392 52013 60102 333 21137 55000 69965 70140 91135 91218;
0154066590999992010010207004+46983+008250FM-12+211099999V0202001N003119999999N9999999N1-01431-01611999999ADDAA101000591MA1999999077581MD1210151+9999ME1314039OA149901541REMSYN082AAXX  02074 06659 23/// /2006 11143 21161 37758 48403 52015 333 69945 91130 91211;
0117066590999992010010208004+46983+008250FM-12+211099999V0201801N002119999999N9999999N1-01411-01591999999ADDAA101000021MA1999999077651ME1314099REMSYN070AAXX  02084 06659 23/// /1804 11141 21159 37765 48409 5//// 333 69925;
0154066590999992010010209004+46983+008250FM-12+211099999V0202001N002619999999N9999999N1-01501-01561999999ADDAA101001091MA1999999077681MD1110181+9999ME1314159OA149901601REMSYN082AAXX  02094 06659 23/// /2005 11150 21156 37768 48415 51018 333 60015 91131 91211;
0154066590999992010010210004+46983+008250FM-12+211099999V0202001N002119999999N9999999N1-01411-01411999999ADDAA101000391MA1999999077761MD1310181+9999ME1314209OA149901601REMSYN082AAXX  02104 06659 23/// /2004 11141 21141 37776 48420 53018 333 69935 91131 91207;
0137066590999992010010211004+46983+008250FM-12+211099999V0201901N001019999999N9999999N1-01411-01411999999ADDMA1999999077811MD1310161+9999ME1314259OA149901491REMSYN076AAXX  02114 06659 33/// /1902 11141 21141 37781 48425 53016 333 91129 91207;
0160066590999992010010212004+46983+008250FM-12+211099999V0202101N001519999999N9999999N1-01511-01761999999ADDAA106002091MA1999999077871MD1110191+9999ME1314349OA149901601REMSYN088AAXX  02124 06659 03/// /2103 11151 21176 37787 48434 51019 60021 333 69915 91131 91214;
0137066590999992010010213004+46983+008250FM-12+211099999V0202901N002119999999N9999999N1-01541-01771999999ADDMA1999999077941MD1310181+9999ME1314429OA149900771REMSYN076AAXX  02134 06659 33/// /2904 11154 21177 37794 48442 53018 333 91115 91208;
0137066590999992010010214004+46983+008250FM-12+211099999V0202401N001519999999N9999999N1-01541-01851999999ADDMA1999999078001MD1319999+9999ME1314489OA149900771REMSYN076AAXX  02144 06659 33/// /2403 11154 21185 37800 48448 53/// 333 91115 91208;
0137066590999992010010215004+46983+008250FM-12+211099999V0202801N001019999999N9999999N1-01611-02441999999ADDMA1999999078051MD1110181+9999ME1314549OA149901491REMSYN076AAXX  02154 06659 33/// /2802 11161 21244 37805 48454 51018 333 91129 91208;
0137066590999992010010216004+46983+008250FM-12+211099999V0202701N003619999999N9999999N1-01611-01981999999ADDMA1999999078101MD1310161+9999ME1314599OA149900461REMSYN076AAXX  02164 06659 33/// /2707 11161 21198 37810 48459 53016 333 91109 91207;
0137066590999992010010217004+46983+008250FM-12+211099999V0202901N002619999999N9999999N1-01691-02161999999ADDMA1999999078151MD1110151+9999ME1314669OA149900461REMSYN076AAXX  02174 06659 33/// /2905 11169 21216 37815 48466 51015 333 91109 91207;
0179066590999992010010218004+46983+008250FM-12+211099999V0202501N003119999999N9999999N1-01671-02291999999ADDAA112002091KA1120M-01331MA1999999078191MD1310141+9999ME1314699OA149901601REMSYN094AAXX  02184 06659 03/// /2506 11167 21229 37819 48469 53014 60022 333 11133 60005 91131 91208;
0137066590999992010010219004+46983+008250FM-12+211099999V0202601N002619999999N9999999N1-01601-02081999999ADDMA1999999078211MD1110111+9999ME1314709OA149900511REMSYN076AAXX  02194 06659 33/// /2605 11160 21208 37821 48470 51011 333 91110 91208;
0137066590999992010010220004+46983+008250FM-12+211099999V0202801N003119999999N9999999N1-01641-02141999999ADDMA1999999078211MD1210061+9999ME1314719OA149900511REMSYN076AAXX  02204 06659 33/// /2806 11164 21214 37821 48471 52006 333 91110 91207;
0137066590999992010010221004+46983+008250FM-12+211099999V0202701N001519999999N9999999N1-01531-02451999999ADDMA1999999078211MD1210021+9999ME1314689OA149900511REMSYN076AAXX  02214 06659 33/// /2703 11153 21245 37821 48468 52002 333 91110 91208;
0137066590999992010010222004+46983+008250FM-12+211099999V0202301N002619999999N9999999N1-01521-02361999999ADDMA1999999078221MD1210011+9999ME1314699OA149900511REMSYN076AAXX  02224 06659 33/// /2305 11152 21236 37822 48469 52001 333 91110 91206;
0137066590999992010010223004+46983+008250FM-12+211099999V0202501N002119999999N9999999N1-01511-02321999999ADDMA1999999078241MD1210031+9999ME1314709OA149900621REMSYN076AAXX  02234 06659 33/// /2504 11151 21232 37824 48470 52003 333 91112 91209;
0137066590999992010010300004+46983+008250FM-12+211099999V0202201N005719999999N9999999N1-01491-02291999999ADDMA1999999078231MD1210021+9999ME1314699OA149900821REMSYN076AAXX  03004 06659 33/// /2211 11149 21229 37823 48469 52002 333 91116 91211;
0137066590999992010010301004+46983+008250FM-12+211099999V0202101N005119999999N9999999N1-01431-02121999999ADDMA1999999078251MD1210031+9999ME1314699OA149900981REMSYN076AAXX  03014 06659 33/// /2110 11143 21212 37825 48469 52003 333 91119 91212;
0096066590999992010010302004+46983+008250FM-12+211099999V0202101N005119999999N9999999N1-01441-02051999999ADDMA1999999078261ME1314719REMSYN060AAXX  03024 06659 33/// /2110 11144 21205 37826 48471 5////;
0096066590999992010010303004+46983+008250FM-12+211099999V0202201N005119999999N9999999N1-01381-01821999999ADDMA1999999078241ME1314679REMSYN060AAXX  03034 06659 33/// /2210 11138 21182 37824 48467 5////;
0137066590999992010010304004+46983+008250FM-12+211099999V0202501N002119999999N9999999N1-01411-01981999999ADDMA1999999078201MD1810051+9999ME1314649OA149900771REMSYN076AAXX  03044 06659 33/// /2504 11141 21198 37820 48464 58005 333 91115 91211;
0137066590999992010010305004+46983+008250FM-12+211099999V0202301N005119999999N9999999N1-01281-02141999999ADDMA1999999078211MD1719999+9999ME1314629OA149901241REMSYN076AAXX  03054 06659 33/// /2310 11128 21214 37821 48462 57/// 333 91124 91212;
0197066590999992010010306004+46983+008250FM-12+211099999V0202301N006719999999N9999999N1-01241-02111999999ADDAA124002391AL11200291GJ100129KA1999N-01671MA1999999078171MD1710071+9999ME1314579OA149901241REMSYN094AAXX  03064 06659 33/// /2313 11124 21211 37817 48457 57007 333 21167 55002 70022 91124 91214;
0137066590999992010010307004+46983+008250FM-12+211099999V0202201N006719999999N9999999N1-01231-02131999999ADDMA1999999078181MD1510021+9999ME1314589OA149901081REMSYN076AAXX  03074 06659 33/// /2213 11123 21213 37818 48458 55002 333 91121 91214;
0137066590999992010010308004+46983+008250FM-12+211099999V0202301N005119999999N9999999N1-01231-02081999999ADDMA1999999078211MD1319999+9999ME1314609OA149901031REMSYN076AAXX  03084 06659 33/// /2310 11123 21208 37821 48460 53/// 333 91120 91213;
0137066590999992010010309004+46983+008250FM-12+211099999V0202301N008219999999N9999999N1-01051-02441999999ADDMA1999999078251MD1210081+9999ME1314609OA149901241REMSYN076AAXX  03094 06659 33/// /2316 11105 21244 37825 48460 52008 333 91124 91216;
0137066590999992010010310004+46983+008250FM-12+211099999V0202301N007719999999N9999999N1-01031-02351999999ADDMA1999999078271MD1210091+9999ME1314629OA149901081REMSYN076AAXX  03104 06659 33/// /2315 11103 21235 37827 48462 52009 333 91121 91216;
0137066590999992010010311004+46983+008250FM-12+211099999V0202101N004119999999N9999999N1-00971-01841999999ADDMA1999999078181MD1810031+9999ME1314519OA149901181REMSYN076AAXX  03114 06659 33/// /2108 11097 21184 37818 48451 58003 333 91123 91216;
0137066590999992010010312004+46983+008250FM-12+211099999V0202201N004119999999N9999999N1-00991-02021999999ADDMA1999999078181MD1710071+9999ME1314529OA149901241REMSYN076AAXX  03124 06659 33/// /2208 11099 21202 37818 48452 57007 333 91124 91216;
0137066590999992010010313004+46983+008250FM-12+211099999V0202301N005119999999N9999999N1-00971-01731999999ADDMA1999999078161MD1710111+9999ME1314499OA149900931REMSYN076AAXX  03134 06659 33/// /2310 11097 21173 37816 48449 57011 333 91118 91212;
0137066590999992010010314004+46983+008250FM-12+211099999V0202201N003119999999N9999999N1-01031-02191999999ADDMA1999999078161MD1710021+9999ME1314509OA149900771REMSYN076AAXX  03144 06659 33/// /2206 11103 21219 37816 48450 57002 333 91115 91210;
0137066590999992010010315004+46983+008250FM-12+211099999V0202301N002619999999N9999999N1-01161-02351999999ADDMA1999999078171MD1510011+9999ME1314559OA149901181REMSYN076AAXX  03154 06659 33/// /2305 11116 21235 37817 48455 55001 333 91123 91216;
0137066590999992010010316004+46983+008250FM-12+211099999V0202301N006719999999N9999999N1-01091-02711999999ADDMA1999999078161MD1010001+9999ME1314529OA149901241REMSYN076AAXX  03164 06659 33/// /2313 11109 21271 37816 48452 50000 333 91124 91213;
0137066590999992010010317004+46983+008250FM-12+211099999V0202201N003619999999N9999999N1-01091-02611999999ADDMA1999999078121MD1810041+9999ME1314489OA149901241REMSYN076AAXX  03174 06659 33/// /2207 11109 21261 37812 48448 58004 333 91124 91213;
0156066590999992010010318004+46983+008250FM-12+211099999V0202301N003619999999N9999999N1-01111-02631999999ADDKA1120M-00961MA1999999078141MD1710031+9999ME1314519OA149901241REMSYN082AAXX  03184 06659 33/// /2307 11111 21263 37814 48451 57003 333 11096 91124 91216;
0137066590999992010010319004+46983+008250FM-12+211099999V0202201N006219999999N9999999N1-01031-02151999999ADDMA1999999078151MD1510011+9999ME1314499OA149901081REMSYN076AAXX  03194 06659 33/// /2212 11103 21215 37815 48449 55001 333 91121 91212;
0137066590999992010010320004+46983+008250FM-12+211099999V0202301N005719999999N9999999N1-01011-02181999999ADDMA1999999078111MD1810011+9999ME1314459OA149901081REMSYN076AAXX  03204 06659 33/// /2311 11101 21218 37811 48445 58001 333 91121 91212;
0137066590999992010010321004+46983+008250FM-12+211099999V0202201N005719999999N9999999N1-00981-02091999999ADDMA1999999078091MD1710051+9999ME1314429OA149901241REMSYN076AAXX  03214 06659 33/// /2211 11098 21209 37809 48442 57005 333 91124 91213;
0137066590999992010010322004+46983+008250FM-12+211099999V0202201N003119999999N9999999N1-00991-02181999999ADDMA1999999078071MD1610081+9999ME1314409OA149901081REMSYN076AAXX  03224 06659 33/// /2206 11099 21218 37807 48440 56008 333 91121 91212;
0137066590999992010010323004+46983+008250FM-12+211099999V0202301N001019999999N9999999N1-01011-02331999999ADDMA1999999078041MD1810071+9999ME1314389OA149901031REMSYN076AAXX  03234 06659 33/// /2302 11101 21233 37804 48438 58007 333 91120 91210;
0137066590999992010010400004+46983+008250FM-12+211099999V0202301N005119999999N9999999N1-01001-02431999999ADDMA1999999078001MD1810091+9999ME1314349OA149901241REMSYN076AAXX  04004 06659 33/// /2310 11100 21243 37800 48434 58009 333 91124 91213;
0137066590999992010010401004+46983+008250FM-12+211099999V0202101N005719999999N9999999N1-00951-02471999999ADDMA1999999077931MD1810141+9999ME1314259OA149900881REMSYN076AAXX  04014 06659 33/// /2111 11095 21247 37793 48425 58014 333 91117 91211;
0137066590999992010010402004+46983+008250FM-12+211099999V0202301N004119999999N9999999N1-00911-02091999999ADDMA1999999077911MD1610131+9999ME1314229OA149901031REMSYN076AAXX  04024 06659 33/// /2308 11091 21209 37791 48422 56013 333 91120 91211;
0137066590999992010010403004+46983+008250FM-12+211099999V0202201N001519999999N9999999N1-00951-02231999999ADDMA1999999077851MD1619999+9999ME1314179OA149901031REMSYN076AAXX  04034 06659 33/// /2203 11095 21223 37785 48417 56/// 333 91120 91211;
0137066590999992010010404004+46983+008250FM-12+211099999V0202101N003119999999N9999999N1-01001-02581999999ADDMA1999999077821MD1810111+9999ME1314169OA149900671REMSYN076AAXX  04044 06659 33/// /2106 11100 21258 37782 48416 58011 333 91113 91209;
0154066590999992010010405004+46983+008250FM-12+211099999V0202601N003119999999N9999999N1-01111-01401999999ADDAA101000021MA1999999077771MD1710141+9999ME1314139OA149900821REMSYN082AAXX  04054 06659 23/// /2606 11111 21140 37777 48413 57014 333 69915 91116 91208;
0239066590999992010010406004+46983+008250FM-12+211099999V0202501N002619999999N9999999N1-01101-01241999999ADDAA112000091AA224000391AL11200091GJ104149KA1999N-01141MA1999999077781MD1710071+9999ME1314149OA149901081REMSYN106AAXX  04064 06659 03/// /2505 11110 21124 37778 48414 57007 69922 333 21114 55069 69915 70002 91121 91212;EQDQ01  00002PRCP12
0137066590999992010010407004+46983+008250FM-12+211099999V0202801N002119999999N9999999N1-01121-01471999999ADDMA1999999077751MD1710071+9999ME1314129OA149900671REMSYN076AAXX  04074 06659 33/// /2804 11112 21147 37775 48412 57007 333 91113 91210;
0137066590999992010010408004+46983+008250FM-12+211099999V0202101N002119999999N9999999N1-01011-01581999999ADDMA1999999077751MD1810021+9999ME1314099OA149900621REMSYN076AAXX  04084 06659 33/// /2104 11101 21158 37775 48409 58002 333 91112 91207;
0137066590999992010010409004+46983+008250FM-12+211099999V0202401N001519999999N9999999N1-01021-01501999999ADDMA1999999077751MD1710031+9999ME1314099OA149900821REMSYN076AAXX  04094 06659 33/// /2403 11102 21150 37775 48409 57003 333 91116 91210;
0154066590999992010010410004+46983+008250FM-12+211099999V0202301N003619999999N9999999N1-01051-01381999999ADDAA101000021MA1999999077751MD1010001+9999ME1314109OA149900511REMSYN082AAXX  04104 06659 23/// /2307 11105 21138 37775 48410 50000 333 69925 91110 91207;
0154066590999992010010411004+46983+008250FM-12+211099999V0202301N004619999999N9999999N1-00931-01091999999ADDAA101000591MA1999999077691MD1810061+9999ME1314009OA149900721REMSYN082AAXX  04114 06659 23/// /2309 11093 21109 37769 48400 58006 333 69945 91114 91209;
0160066590999992010010412004+46983+008250FM-12+211099999V0202301N002119999999N9999999N1-00971-01021999999ADDAA106000891MA1999999077651MD1710101+9999ME1313979OA149901031REMSYN088AAXX  04124 06659 03/// /2304 11097 21102 37765 48397 57010 69981 333 69925 91120 91211;
0154066590999992010010413004+46983+008250FM-12+211099999V0202301N002619999999N9999999N1-00911-01001999999ADDAA101000021MA1999999077601MD1610151+9999ME1313919OA149900821REMSYN082AAXX  04134 06659 23/// /2305 11091 21100 37760 48391 56015 333 69915 91116 91207;
0137066590999992010010414004+46983+008250FM-12+211099999V0202201N001519999999N9999999N1-00921-00981999999ADDMA1999999077591MD1619999+9999ME1313909OA149900621REMSYN076AAXX  04144 06659 33/// /2203 11092 21098 37759 48390 56/// 333 91112 91206;
0154066590999992010010415004+46983+008250FM-12+211099999V0202301N003619999999N9999999N1-00901-00981999999ADDAA101000021MA1999999077581MD1610071+9999ME1313889OA149900821REMSYN082AAXX  04154 06659 23/// /2307 11090 21098 37758 48388 56007 333 69925 91116 91209;
0154066590999992010010416004+46983+008250FM-12+211099999V0202201N002619999999N9999999N1-00881-00951999999ADDAA101000021MA1999999077571MD1810031+9999ME1313879OA149900821REMSYN082AAXX  04164 06659 23/// /2205 11088 21095 37757 48387 58003 333 69915 91116 91208;
0154066590999992010010417004+46983+008250FM-12+211099999V0202201N002619999999N9999999N1-00841-00871999999ADDAA101000021MA1999999077571MD1710021+9999ME1313869OA149900881REMSYN082AAXX  04174 06659 23/// /2205 11084 21087 37757 48386 57002 333 69915 91117 91208;
0179066590999992010010418004+46983+008250FM-12+211099999V0202201N004119999999N9999999N1-00841-00871999999ADDAA112002091KA1120M-00821MA1999999077551MD1710031+9999ME1313849OA149901031REMSYN094AAXX  04184 06659 03/// /2208 11084 21087 37755 48384 57003 60022 333 11082 69925 91120 91210;
0154066590999992010010419004+46983+008250FM-12+211099999V0202201N005119999999N9999999N1-00761-00821999999ADDAA101000021MA1999999077551MD1710021+9999ME1313829OA149901031REMSYN082AAXX  04194 06659 23/// /2210 11076 21082 37755 48382 57002 333 69915 91120 91210;
0154066590999992010010420004+46983+008250FM-12+211099999V0202301N004619999999N9999999N1-00821-00891999999ADDAA101000021MA1999999077541MD1719999+9999ME1313829OA149901131REMSYN082AAXX  04204 06659 23/// /2309 11082 21089 37754 48382 57/// 333 69915 91122 91210;
0154066590999992010010421004+46983+008250FM-12+211099999V0202101N002119999999N9999999N1-00751-00761999999ADDAA101000021MA1999999077531MD1710021+9999ME1313799OA149901131REMSYN082AAXX  04214 06659 23/// /2104 11075 21076 37753 48379 57002 333 69915 91122 91210;
0137066590999992010010422004+46983+008250FM-12+211099999V0202201N003119999999N9999999N1-00721-00741999999ADDMA1999999077511MD1710041+9999ME1313769OA149900931REMSYN076AAXX  04224 06659 33/// /2206 11072 21074 37751 48376 57004 333 91118 91209;
0137066590999992010010423004+46983+008250FM-12+211099999V0202101N001519999999N9999999N1-00731-00751999999ADDMA1999999077491MD1719999+9999ME1313759OA149900821REMSYN076AAXX  04234 06659 33/// /2103 11073 21075 37749 48375 57/// 333 91116 91206;
0160066590999992010010500004+46983+008250FM-12+211099999V0202201N002619999999N9999999N1-00751-00771999999ADDAA106000391MA1999999077451MD1810081+9999ME1313719OA149901131REMSYN088AAXX  05004 06659 03/// /2205 11075 21077 37745 48371 58008 69931 333 60005 91122 91210;
0137066590999992010010501004+46983+008250FM-12+211099999V0202301N002619999999N9999999N1-00731-00761999999ADDMA1999999077411MD1810101+9999ME1313669OA149900881REMSYN076AAXX  05014 06659 33/// /2305 11073 21076 37741 48366 58010 333 91117 91206;
0137066590999992010010502004+46983+008250FM-12+211099999V0202201N006219999999N9999999N1-00711-00791999999ADDMA1999999077391MD1610101+9999ME1313649OA149901031REMSYN076AAXX  05024 06659 33/// /2212 11071 21079 37739 48364 56010 333 91120 91212;
0137066590999992010010503004+46983+008250FM-12+211099999V0202201N005119999999N9999999N1-00711-00731999999ADDMA1999999077351MD1810101+9999ME1313609OA149901131REMSYN076AAXX  05034 06659 33/// /2210 11071 21073 37735 48360 58010 333 91122 91212;
0154066590999992010010504004+46983+008250FM-12+211099999V0202101N003619999999N9999999N1-00691-00731999999ADDAA101000021MA1999999077301MD1810111+9999ME1313549OA149901241REMSYN082AAXX  05044 06659 23/// /2107 11069 21073 37730 48354 58011 333 69915 91124 91213;
0137066590999992010010505004+46983+008250FM-12+211099999V0202301N005119999999N9999999N1-00691-00711999999ADDMA1999999077251MD1810141+9999ME1313499OA149901241REMSYN076AAXX  05054 06659 33/// /2310 11069 21071 37725 48349 58014 333 91124 91213;
0220066590999992010010506004+46983+008250FM-12+211099999V0202301N004619999999N9999999N1-00671-00771999999ADDAA112000591AA224001891AL14800191GJ100009KA1999N-00841MA1999999077211MD1610141+9999ME1313449OA149901241REMSYN106AAXX  05064 06659 03/// /2309 11067 21077 37721 48344 56014 69952 333 21084 55000 69915 70019 91124 91213;
0137066590999992010010507004+46983+008250FM-12+211099999V0202201N006219999999N9999999N1-00671-00781999999ADDMA1999999077181MD1810121+9999ME1313419OA149901181REMSYN076AAXX  05074 06659 33/// /2212 11067 21078 37718 48341 58012 333 91123 91212;
0137066590999992010010508004+46983+008250FM-12+211099999V0202201N004619999999N9999999N1-00641-00861999999ADDMA1999999077171MD1710081+9999ME1313399OA149900981REMSYN076AAXX  05084 06659 33/// /2209 11064 21086 37717 48339 57008 333 91119 91212;
0137066590999992010010509004+46983+008250FM-12+211099999V0202301N003619999999N9999999N1-00641-00801999999ADDMA1999999077161MD1710051+9999ME1313389OA149901241REMSYN076AAXX  05094 06659 33/// /2307 11064 21080 37716 48338 57005 333 91124 91213;
0137066590999992010010510004+46983+008250FM-12+211099999V0202201N003619999999N9999999N1-00631-00721999999ADDMA1999999077141MD1810041+9999ME1313369OA149900881REMSYN076AAXX  05104 06659 33/// /2207 11063 21072 37714 48336 58004 333 91117 91210;
0137066590999992010010511004+46983+008250FM-12+211099999V0202301N004619999999N9999999N1-00601-00791999999ADDMA1999999077081MD1710091+9999ME1313299OA149900881REMSYN076AAXX  05114 06659 33/// /2309 11060 21079 37708 48329 57009 333 91117 91210;
0137066590999992010010512004+46983+008250FM-12+211099999V0202201N002619999999N9999999N1-00631-00771999999ADDMA1999999077041MD1810121+9999ME1313259OA149901241REMSYN076AAXX  05124 06659 33/// /2205 11063 21077 37704 48325 58012 333 91124 91213;
0137066590999992010010513004+46983+008250FM-12+211099999V0202201N003619999999N9999999N1-00611-00761999999ADDMA1999999076991MD1610151+9999ME1313209OA149900881REMSYN076AAXX  05134 06659 33/// /2207 11061 21076 37699 48320 56015 333 91117 91210;
0096066590999992010010514004+46983+008250FM-12+211099999V0202201N004619999999N9999999N1-00611-00721999999ADDMA1999999076951ME1313159REMSYN060AAXX  05144 06659 33/// /2209 11061 21072 37695 48315 5////;
0137066590999992010010515004+46983+008250FM-12+211099999V0202201N004119999999N9999999N1-00621-00761999999ADDMA1999999076951MD1710091+9999ME1313169OA149900981REMSYN076AAXX  05154 06659 33/// /2208 11062 21076 37695 48316 57009 333 91119 91210;
0137066590999992010010516004+46983+008250FM-12+211099999V0202201N002619999999N9999999N1-00631-00851999999ADDMA1999999076941MD1710051+9999ME1313159OA149900821REMSYN076AAXX  05164 06659 33/// /2205 11063 21085 37694 48315 57005 333 91116 91209;
0137066590999992010010517004+46983+008250FM-12+211099999V0202101N003119999999N9999999N1-00631-00831999999ADDMA1999999076911MD1710041+9999ME1313129OA149900671REMSYN076AAXX  05174 06659 33/// /2106 11063 21083 37691 48312 57004 333 91113 91208;
0156066590999992010010518004+46983+008250FM-12+211099999V0202201N003619999999N9999999N1-00591-01151999999ADDKA1120M-00581MA1999999076891MD1710061+9999ME1313099OA149900981REMSYN082AAXX  05184 06659 33/// /2207 11059 21115 37689 48309 57006 333 11058 91119 91212;
0137066590999992010010519004+46983+008250FM-12+211099999V0202201N003619999999N9999999N1-00631-01051999999ADDMA1999999076881MD1710061+9999ME1313099OA149900571REMSYN076AAXX  05194 06659 33/// /2207 11063 21105 37688 48309 57006 333 91111 91208;
0137066590999992010010520004+46983+008250FM-12+211099999V0202301N003619999999N9999999N1-00701-00921999999ADDMA1999999076841MD1810071+9999ME1313079OA149900721REMSYN076AAXX  05204 06659 33/// /2307 11070 21092 37684 48307 58007 333 91114 91210;
0137066590999992010010521004+46983+008250FM-12+211099999V0202301N002619999999N9999999N1-00721-00871999999ADDMA1999999076821MD1810071+9999ME1313059OA149900881REMSYN076AAXX  05214 06659 33/// /2305 11072 21087 37682 48305 58007 333 91117 91210;
0137066590999992010010522004+46983+008250FM-12+211099999V0202201N003119999999N9999999N1-00651-01101999999ADDMA1999999076801MD1810081+9999ME1313019OA149900881REMSYN076AAXX  05224 06659 33/// /2206 11065 21110 37680 48301 58008 333 91117 91210;
0137066590999992010010523004+46983+008250FM-12+211099999V0202101N003619999999N9999999N1-00701-00931999999ADDMA1999999076791MD1610051+9999ME1313019OA149900881REMSYN076AAXX  05234 06659 33/// /2107 11070 21093 37679 48301 56005 333 91117 91209;
0137066590999992010010600004+46983+008250FM-12+211099999V0202201N003119999999N9999999N1-00691-01051999999ADDMA1999999076751MD1810071+9999ME1312979OA149900981REMSYN076AAXX  06004 06659 33/// /2206 11069 21105 37675 48297 58007 333 91119 91210;
0137066590999992010010601004+46983+008250FM-12+211099999V0202201N004119999999N9999999N1-00711-00941999999ADDMA1999999076731MD1810071+9999ME1312969OA149900881REMSYN076AAXX  06014 06659 33/// /2208 11071 21094 37673 48296 58007 333 91117 91209;
0137066590999992010010602004+46983+008250FM-12+211099999V0202201N003119999999N9999999N1-00751-00861999999ADDMA1999999076751MD1510041+9999ME1312999OA149900821REMSYN076AAXX  06024 06659 33/// /2206 11075 21086 37675 48299 55004 333 91116 91209;
0137066590999992010010603004+46983+008250FM-12+211099999V0202201N004119999999N9999999N1-00731-00771999999ADDMA1999999076731MD1710021+9999ME1312969OA149901031REMSYN076AAXX  06034 06659 33/// /2208 11073 21077 37673 48296 57002 333 91120 91209;
0154066590999992010010604004+46983+008250FM-12+211099999V0201801N001019999999N9999999N1-00771-00811999999ADDAA101000021MA1999999076721MD1810011+9999ME1312969OA149901031REMSYN082AAXX  06044 06659 23/// /1802 11077 21081 37672 48296 58001 333 69915 91120 91209;
0154066590999992010010605004+46983+008250FM-12+211099999V0201901N002119999999N9999999N1-00791-00811999999ADDAA101000591MA1999999076711MD1710041+9999ME1312969OA149900981REMSYN082AAXX  06054 06659 23/// /1904 11079 21081 37671 48296 57004 333 69945 91119 91208;
0220066590999992010010606004+46983+008250FM-12+211099999V0202201N003619999999N9999999N1-00841-00841999999ADDAA112000591AA224000591AL13600091GJ100069KA1999N-00821MA1999999076701MD1710031+9999ME1312969OA149901031REMSYN106AAXX  06064 06659 03/// /2207 11084 21084 37670 48296 57003 69952 333 21082 55001 60005 70006 91120 91210;
0154066590999992010010607004+46983+008250FM-12+211099999V0202201N006219999999N9999999N1-00861-00941999999ADDAA101000021MA1999999076711MD1010011+9999ME1312989OA149901031REMSYN082AAXX  06074 06659 23/// /2212 11086 21094 37671 48298 50001 333 69915 91120 91212;
0137066590999992010010608004+46983+008250FM-12+211099999V0202201N003119999999N9999999N1-00861-00891999999ADDMA1999999076741MD1210031+9999ME1313019OA149901031REMSYN076AAXX  06084 06659 33/// /2206 11086 21089 37674 48301 52003 333 91120 91212;
0137066590999992010010609004+46983+008250FM-12+211099999V0201901N004619999999N9999999N1-00841-00841999999ADDMA1999999076761MD1210061+9999ME1313039OA149901031REMSYN076AAXX  06094 06659 33/// /1909 11084 21084 37676 48303 52006 333 91120 91212;
0137066590999992010010610004+46983+008250FM-12+211099999V0201701N003119999999N9999999N1-00871-00901999999ADDMA1999999076791MD1110081+9999ME1313079OA149900721REMSYN076AAXX  06104 06659 33/// /1706 11087 21090 37679 48307 51008 333 91114 91210;
0137066590999992010010611004+46983+008250FM-12+211099999V0201701N002619999999N9999999N1-00891-00891999999ADDMA1999999076761MD1019999+9999ME1313049OA149900671REMSYN076AAXX  06114 06659 33/// /1705 11089 21089 37676 48304 50/// 333 91113 91210;
0195066590999992010010612004+46983+008250FM-12+211099999V0201901N002619999999N9999999N1-00921-00941999999ADDAA106000091MA1999999076761MD1410001+9999ME1313059OA149901031REMSYN088AAXX  06124 06659 03/// /1905 11092 21094 37676 48305 58000 69911 333 60005 91120 91212;EQDQ01+000082APCTENQ02  00002PRCP06
0137066590999992010010613004+46983+008250FM-12+211099999V0202101N002619999999N9999999N1-00971-01001999999ADDMA1999999076761MD1710031+9999ME1313079OA149900571REMSYN076AAXX  06134 06659 33/// /2105 11097 21100 37676 48307 57003 333 91111 91205;
0137066590999992010010614004+46983+008250FM-12+211099999V0202201N004119999999N9999999N1-01021-01091999999ADDMA1999999076771MD1019999+9999ME1313099OA149900881REMSYN076AAXX  06144 06659 33/// /2208 11102 21109 37677 48309 50/// 333 91117 91211;
0143066590999992010010615004+46983+008250FM-12+211099999V0202201N005119999999N9999999N1-00981-01271999999ADDMA1999999076801MD1219999+9999ME1313119OA149901181REMSYN082AAXX  06154 06659 33/// /2210 11098 21127 37680 48311 52/// 91440 333 91123 91211;
0137066590999992010010616004+46983+008250FM-12+211099999V0202201N005719999999N9999999N1-01041-01081999999ADDMA1999999076831MD1210071+9999ME1313169OA149901181REMSYN076AAXX  06164 06659 33/// /2211 11104 21108 37683 48316 52007 333 91123 91214;
0137066590999992010010617004+46983+008250FM-12+211099999V0202301N005719999999N9999999N1-01161-01531999999ADDMA1999999076861MD1110091+9999ME1313239OA149901441REMSYN076AAXX  06174 06659 33/// /2311 11116 21153 37686 48323 51009 333 91128 91217;
0198066590999992010010618004+46983+008250FM-12+211099999V0202201N004119999999N9999999N1-01111-02722999999ADDAA112000091KA1120M-00831MA1999999076901MD1310101+9999ME1313259OA149901441REMSYN094AAXX  06184 06659 03/// /2208 11111 21272 37690 48325 53010 69912 333 11083 60005 91128 91217;EQDQ01  00002PRCP12
0137066590999992010010619004+46983+008250FM-12+211099999V0202201N007719999999N9999999N1-01181-02341999999ADDMA1999999076921MD1110091+9999ME1313299OA149901541REMSYN076AAXX  06194 06659 33/// /2215 11118 21234 37692 48329 51009 333 91130 91215;
0137066590999992010010620004+46983+008250FM-12+211099999V0201901N002619999999N9999999N1-01161-02211999999ADDMA1999999076951MD1110091+9999ME1313329OA149901541REMSYN076AAXX  06204 06659 33/// /1905 11116 21221 37695 48332 51009 333 91130 91218;
0156066590999992010010621004+46983+008250FM-12+211099999V0202101N005119999999N9999999N1-01291+99999999999ADDMA1999999076961MD1110061+9999ME1313379OA149901541REMSYN076AAXX  06214 06659 33/// /2110 11129 21235 37696 48337 51006 333 91130 91218;EQDQ01-002353ATOD  
0137066590999992010010622004+46983+008250FM-12+211099999V0202201N004619999999N9999999N1-01221-01421999999ADDMA1999999076981MD1110061+9999ME1313379OA149901291REMSYN076AAXX  06224 06659 33/// /2209 11122 21142 37698 48337 51006 333 91125 91212;
0137066590999992010010623004+46983+008250FM-12+211099999V0202201N006219999999N9999999N1-01231-01331999999ADDMA1999999077011MD1310061+9999ME1313409OA149901341REMSYN076AAXX  06234 06659 33/// /2212 11123 21133 37701 48340 53006 333 91126 91212;
0137066590999992010010700004+46983+008250FM-12+211099999V0202201N005719999999N9999999N1-01221-01571999999ADDMA1999999077021MD1210061+9999ME1313419OA149901541REMSYN076AAXX  07004 06659 33/// /2211 11122 21157 37702 48341 52006 333 91130 91218;
0137066590999992010010701004+46983+008250FM-12+211099999V0202201N007219999999N9999999N1-01231-01361999999ADDMA1999999077031MD1210051+9999ME1313429OA149901441REMSYN076AAXX  07014 06659 33/// /2214 11123 21136 37703 48342 52005 333 91128 91214;
0137066590999992010010702004+46983+008250FM-12+211099999V0202301N004619999999N9999999N1-01281-01571999999ADDMA1999999077061MD1219999+9999ME1313479OA149901181REMSYN076AAXX  07024 06659 33/// /2309 11128 21157 37706 48347 52/// 333 91123 91214;
0137066590999992010010703004+46983+008250FM-12+211099999V0202201N003619999999N9999999N1-01301-01421999999ADDMA1999999077041MD1010021+9999ME1313459OA149901441REMSYN076AAXX  07034 06659 33/// /2207 11130 21142 37704 48345 50002 333 91128 91214;
0137066590999992010010704004+46983+008250FM-12+211099999V0202301N006719999999N9999999N1-01221-01601999999ADDMA1999999077051MD1210021+9999ME1313449OA149901081REMSYN076AAXX  07044 06659 33/// /2313 11122 21160 37705 48344 52002 333 91121 91213;
0156066590999992010010705004+46983+008250FM-12+211099999V0202301N006219999999N9999999N1-01211-01971999999ADDMA1999999077061MD1410001+9999ME1313449OA149901341REMSYN076AAXX  07054 06659 33/// /2312 11121 21197 37706 48344 53000 333 91126 91217;EQDQ01+000032APCTEN
0216066590999992010010706004+46983+008250FM-12+211099999V0202201N009819999999N9999999N1-01101-02111999999ADDAA124000091AL10600091GJ100009KA1999N-01301MA1999999077101MD1310061+9999ME1313459OA149901601REMSYN094AAXX  07064 06659 33/// /2219 11110 21211 37710 48345 53006 333 21130 55000 70001 91131 91219;EQDQ01  00002PRCP24
0137066590999992010010707004+46983+008250FM-12+211099999V0202301N007219999999N9999999N1-01111-02161999999ADDMA1999999077131MD1310081+9999ME1313499OA149901901REMSYN076AAXX  07074 06659 33/// /2314 11111 21216 37713 48349 53008 333 91137 91219;
0137066590999992010010708004+46983+008250FM-12+211099999V0202301N007219999999N9999999N1-01011-02161999999ADDMA1999999077191MD1319999+9999ME1313529OA149901901REMSYN076AAXX  07084 06659 33/// /2314 11101 21216 37719 48352 53/// 333 91137 91218;
0137066590999992010010709004+46983+008250FM-12+211099999V0202101N007219999999N9999999N1-00911-02011999999ADDMA1999999077231MD1110131+9999ME1313539OA149901901REMSYN076AAXX  07094 06659 33/// /2114 11091 21201 37723 48353 51013 333 91137 91219;
0137066590999992010010710004+46983+008250FM-12+211099999V0202301N005119999999N9999999N1-00911-02771999999ADDMA1999999077291MD1210161+9999ME1313599OA149901241REMSYN076AAXX  07104 06659 33/// /2310 11091 21277 37729 48359 52016 333 91124 91215;
0137066590999992010010711004+46983+008250FM-12+211099999V0202101N005119999999N9999999N1-00841-01652999999ADDMA1999999077301MD1210111+9999ME1313589OA149900931REMSYN076AAXX  07114 06659 33/// /2110 11084 21165 37730 48358 52011 333 91118 91214;
0137066590999992010010712004+46983+008250FM-12+211099999V0202201N003119999999N9999999N1-00931-01841999999ADDMA1999999077281MD1010051+9999ME1313599OA149901901REMSYN076AAXX  07124 06659 33/// /2206 11093 21184 37728 48359 50005 333 91137 91219;
0137066590999992010010713004+46983+008250FM-12+211099999V0201801N001019999999N9999999N1-00991-02281999999ADDMA1999999077291MD1019999+9999ME1313619OA149900721REMSYN076AAXX  07134 06659 33/// /1802 11099 21228 37729 48361 50/// 333 91114 91210;
0096066590999992010010715004+46983+008250FM-12+211099999V0202301N001019999999N9999999N1-01081-02531999999ADDMA1999999077361ME1313719REMSYN060AAXX  07154 06659 43/// /2302 11108 21253 37736 48371 5////;
0137066590999992010010716004+46983+008250FM-12+211099999V0202101N001019999999N9999999N1-01061-02221999999ADDMA1999999077401MD1319999+9999ME1313759OA149900571REMSYN076AAXX  07164 06659 43/// /2102 11106 21222 37740 48375 53/// 333 91111 91206;
0137066590999992010010717004+46983+008250FM-12+211099999V0201301N002119999999N9999999N1-01071-02281999999ADDMA1999999077401MD1219999+9999ME1313759OA149900571REMSYN076AAXX  07174 06659 33/// /1304 11107 21228 37740 48375 52/// 333 91111 91206;
0156066590999992010010718004+46983+008250FM-12+211099999V0200401N001519999999N9999999N1-01141-02281999999ADDKA1120M-00791MA1999999077431MD1219999+9999ME1313809OA149901901REMSYN082AAXX  07184 06659 33/// /0403 11114 21228 37743 48380 52/// 333 11079 91137 91218;
0137066590999992010010719004+46983+008250FM-12+211099999V0203001N001019999999N9999999N1-01121-02081999999ADDMA1999999077451MD1310051+9999ME1313819OA149900361REMSYN076AAXX  07194 06659 33/// /3002 11112 21208 37745 48381 53005 333 91107 91204;
0137066590999992010010720004+46983+008250FM-12+211099999V0203401N001519999999N9999999N1-01071-02291999999ADDMA1999999077441MD1210041+9999ME1313799OA149900361REMSYN076AAXX  07204 06659 33/// /3403 11107 21229 37744 48379 52004 333 91107 91204;
0137066590999992010010721004+46983+008250FM-12+211099999V0200301N002619999999N9999999N1-01071-01931999999ADDMA1999999077441MD1210011+9999ME1313799OA149900571REMSYN076AAXX  07214 06659 33/// /0305 11107 21193 37744 48379 52001 333 91111 91206;
0137066590999992010010722004+46983+008250FM-12+211099999V0200601N004119999999N9999999N1-01071-01791999999ADDMA1999999077431MD1710021+9999ME1313789OA149900571REMSYN076AAXX  07224 06659 33/// /0608 11107 21179 37743 48378 57002 333 91111 91209;
0137066590999992010010723004+46983+008250FM-12+211099999V0200701N004619999999N9999999N1-01081-01661999999ADDMA1999999077411MD1710031+9999ME1313769OA149900671REMSYN076AAXX  07234 06659 33/// /0709 11108 21166 37741 48376 57003 333 91113 91211;
0137066590999992010010800004+46983+008250FM-12+211099999V0200301N007719999999N9999999N1-01111-01541999999ADDMA1999999077381MD1710061+9999ME1313749OA149900821REMSYN076AAXX  08004 06659 33/// /0315 11111 21154 37738 48374 57006 333 91116 91215;
0137066590999992010010801004+46983+008250FM-12+211099999V0200301N009319999999N9999999N1-01131-01591999999ADDMA1999999077321MD1810111+9999ME1313699OA149901031REMSYN076AAXX  08014 06659 33/// /0318 11113 21159 37732 48369 58011 333 91120 91218;
0137066590999992010010802004+46983+008250FM-12+211099999V0200401N010319999999N9999999N1-01191-01801999999ADDMA1999999077311MD1719999+9999ME1313699OA149901081REMSYN076AAXX  08024 06659 33/// /0420 11119 21180 37731 48369 57/// 333 91121 91220;
0154066590999992010010803004+46983+008250FM-12+211099999V0200401N011319999999N9999999N1-01181-01801999999ADDAA101000021MA1999999077271MD1719999+9999ME1313659OA149901341REMSYN082AAXX  08034 06659 23/// /0422 11118 21180 37727 48365 57/// 333 69915 91126 91222;
0154066590999992010010804004+46983+008250FM-12+211099999V0200501N011819999999N9999999N1-01191-01541999999ADDAA101000021MA1999999077201MD1710121+9999ME1313589OA149901341REMSYN082AAXX  08044 06659 23/// /0523 11119 21154 37720 48358 57012 333 69915 91126 91223;
0137066590999992010010805004+46983+008250FM-12+211099999V0200501N008719999999N9999999N1-01101-01251999999ADDMA1999999077141MD1810171+9999ME1313499OA149901241REMSYN076AAXX  08054 06659 33/// /0517 11110 21125 37714 48349 58017 333 91124 91223;
0239066590999992010010806004+46983+008250FM-12+211099999V0200501N007719999999N9999999N1-00911-01111999999ADDAA112000091AA224000391AL11200091GJ102229KA1999N-01211MA1999999077091MD1610181+9999ME1313399OA149901341REMSYN106AAXX  08064 06659 03/// /0515 11091 21111 37709 48339 56018 69922 333 21121 55037 60005 70002 91126 91223;EQDQ01  00002PRCP12
0154066590999992010010807004+46983+008250FM-12+211099999V0200501N010319999999N9999999N1-00891-01151999999ADDAA101000021MA1999999077081MD1710121+9999ME1313379OA149901241REMSYN082AAXX  08074 06659 23/// /0520 11089 21115 37708 48337 57012 333 69915 91124 91220;
0154066590999992010010808004+46983+008250FM-12+211099999V0200501N009319999999N9999999N1-00891-01111999999ADDAA101000591MA1999999077031MD1710111+9999ME1313329OA149901291REMSYN082AAXX  08084 06659 23/// /0518 11089 21111 37703 48332 57011 333 69945 91125 91222;
0154066590999992010010809004+46983+008250FM-12+211099999V0200501N009819999999N9999999N1-00881-01091999999ADDAA101000021MA1999999077001MD1710091+9999ME1313299OA149901441REMSYN082AAXX  08094 06659 23/// /0519 11088 21109 37700 48329 57009 333 69925 91128 91223;
0137066590999992010010810004+46983+008250FM-12+211099999V0200501N009319999999N9999999N1-00781-01041999999ADDMA1999999076981MD1610101+9999ME1313249OA149901441REMSYN076AAXX  08104 06659 33/// /0518 11078 21104 37698 48324 56010 333 91128 91220;
0137066590999992010010811004+46983+008250FM-12+211099999V0200501N006219999999N9999999N1-00601-00931999999ADDMA1999999076921MD1810111+9999ME1313129OA149901391REMSYN076AAXX  08114 06659 33/// /0512 11060 21093 37692 48312 58011 333 91127 91223;
0160066590999992010010812004+46983+008250FM-12+211099999V0200601N005719999999N9999999N1-00651-00941999999ADDAA106000891MA1999999076851MD1810151+9999ME1313069OA149901441REMSYN088AAXX  08124 06659 03/// /0611 11065 21094 37685 48306 58015 69971 333 60005 91128 91223;
0137066590999992010010813004+46983+008250FM-12+211099999V0200901N007719999999N9999999N1-00571-00801999999ADDMA1999999076781MD1610201+9999ME1312969OA149901131REMSYN076AAXX  08134 06659 33/// /0915 11057 21080 37678 48296 56020 333 91122 91215;
0143066590999992010010814004+46983+008250FM-12+211099999V0200901N007719999999N9999999N1-00441-00681999999ADDMA1999999076771MD1719999+9999ME1312919OA149901181REMSYN082AAXX  08144 06659 33/// /0915 11044 21068 37677 48291 57/// 91340 333 91123 91217;
0137066590999992010010815004+46983+008250FM-12+211099999V0200801N007219999999N9999999N1-00911-00961999999ADDMA1999999076781MD1710071+9999ME1313079OA149901391REMSYN076AAXX  08154 06659 33/// /0814 11091 21096 37678 48307 57007 333 91127 91223;
0137066590999992010010816004+46983+008250FM-12+211099999V0200601N006219999999N9999999N1-00891-00961999999ADDMA1999999076801MD1310021+9999ME1313089OA149901241REMSYN076AAXX  08164 06659 33/// /0612 11089 21096 37680 48308 53002 333 91124 91216;
0137066590999992010010817004+46983+008250FM-12+211099999V0200701N003119999999N9999999N1-01091-01091999999ADDMA1999999076831MD1210071+9999ME1313179OA149901241REMSYN076AAXX  08174 06659 33/// /0706 11109 21109 37683 48317 52007 333 91124 91215;
0179066590999992010010818004+46983+008250FM-12+211099999V0201001N003619999999N9999999N1-01241-01251999999ADDAA112000891KA1120M-00441MA1999999076841MD1210061+9999ME1313239OA149901441REMSYN094AAXX  08184 06659 03/// /1007 11124 21125 37684 48323 52006 69972 333 11044 60005 91128 91223;
0137066590999992010010819004+46983+008250FM-12+211099999V0201101N008219999999N9999999N1-00791-00851999999ADDMA1999999076851MD1210051+9999ME1313109OA149901081REMSYN076AAXX  08194 06659 33/// /1116 11079 21085 37685 48310 52005 333 91121 91216;
0137066590999992010010820004+46983+008250FM-12+211099999V0201401N003119999999N9999999N1-00571-00791999999ADDMA1999999076871MD1310041+9999ME1313069OA149901081REMSYN076AAXX  08204 06659 33/// /1406 11057 21079 37687 48306 53004 333 91121 91216;
0137066590999992010010821004+46983+008250FM-12+211099999V0201801N005119999999N9999999N1-00401-00791999999ADDMA1999999076861MD1210021+9999ME1313009OA149901241REMSYN076AAXX  08214 06659 33/// /1810 11040 21079 37686 48300 52002 333 91124 91216;
0137066590999992010010822004+46983+008250FM-12+211099999V0202301N003619999999N9999999N1-00311-00801999999ADDMA1999999076891MD1210041+9999ME1313009OA149900771REMSYN076AAXX  08224 06659 33/// /2307 11031 21080 37689 48300 52004 333 91115 91211;
0137066590999992010010823004+46983+008250FM-12+211099999V0202301N002619999999N9999999N1-00251-00781999999ADDMA1999999076901MD1310031+9999ME1312999OA149900621REMSYN076AAXX  08234 06659 33/// /2305 11025 21078 37690 48299 53003 333 91112 91210;
0137066590999992010010900004+46983+008250FM-12+211099999V0201901N006719999999N9999999N1-00531-00861999999ADDMA1999999076891MD1210031+9999ME1313079OA149901241REMSYN076AAXX  09004 06659 33/// /1913 11053 21086 37689 48307 52003 333 91124 91217;
0137066590999992010010901004+46983+008250FM-12+211099999V0202401N004619999999N9999999N1-00481-00831999999ADDMA1999999076891MD1010001+9999ME1313059OA149901031REMSYN076AAXX  09014 06659 33/// /2409 11048 21083 37689 48305 50000 333 91120 91216;
0137066590999992010010902004+46983+008250FM-12+211099999V0203101N004119999999N9999999N1-00441-00621999999ADDMA1999999076911MD1519999+9999ME1313069OA149900821REMSYN076AAXX  09024 06659 33/// /3108 11044 21062 37691 48306 55/// 333 91116 91214;
0137066590999992010010903004+46983+008250FM-12+211099999V0200201N003119999999N9999999N1-00381-00721999999ADDMA1999999076911MD1219999+9999ME1313049OA149901031REMSYN076AAXX  09034 06659 33/// /0206 11038 21072 37691 48304 52/// 333 91120 91216;
0137066590999992010010904004+46983+008250FM-12+211099999V0200401N004619999999N9999999N1-00431-00501999999ADDMA1999999076871MD1810021+9999ME1313029OA149900571REMSYN076AAXX  09044 06659 33/// /0409 11043 21050 37687 48302 58002 333 91111 91210;
0137066590999992010010905004+46983+008250FM-12+211099999V0200201N005719999999N9999999N1-00441-00541999999ADDMA1999999076841MD1710071+9999ME1312999OA149900621REMSYN076AAXX  09054 06659 33/// /0211 11044 21054 37684 48299 57007 333 91112 91211;
0197066590999992010010906004+46983+008250FM-12+211099999V0200901N005119999999N9999999N1-00261-00881999999ADDAA124000891AL14200091GJ100489KA1999N-01241MA1999999076791MD1810121+9999ME1312889OA149901081REMSYN094AAXX  09064 06659 33/// /0910 11026 21088 37679 48288 58012 333 21124 55008 70007 91121 91216;
0137066590999992010010907004+46983+008250FM-12+211099999V0200901N006219999999N9999999N1-00461-00771999999ADDMA1999999076781MD1710091+9999ME1312939OA149900771REMSYN076AAXX  09074 06659 33/// /0912 11046 21077 37678 48293 57009 333 91115 91212;
0137066590999992010010908004+46983+008250FM-12+211099999V0200601N003619999999N9999999N1-00421-00711999999ADDMA1999999076791MD1510051+9999ME1312939OA149900771REMSYN076AAXX  09084 06659 33/// /0607 11042 21071 37679 48293 55005 333 91115 91212;
0156066590999992010010909004+46983+008250FM-12+211099999V0200801N004119999999N9999999N1-00431-00741999999ADDMA1999999076791MD1410001+9999ME1312939OA149900771REMSYN076AAXX  09094 06659 33/// /0808 11043 21074 37679 48293 52000 333 91115 91212;EQDQ01+000022APCTEN
0137066590999992010010910004+46983+008250FM-12+211099999V0200501N006219999999N9999999N1-00491-00781999999ADDMA1999999076771MD1710011+9999ME1312939OA149900881REMSYN076AAXX  09104 06659 33/// /0512 11049 21078 37677 48293 57001 333 91117 91212;
0137066590999992010010911004+46983+008250FM-12+211099999V0200501N010819999999N9999999N1-00571-00751999999ADDMA1999999076711MD1810081+9999ME1312899OA149901241REMSYN076AAXX  09114 06659 33/// /0521 11057 21075 37671 48289 58008 333 91124 91222;
0137066590999992010010912004+46983+008250FM-12+211099999V0200701N005119999999N9999999N1-00501-00741999999ADDMA1999999076691MD1610101+9999ME1312859OA149901291REMSYN076AAXX  09124 06659 33/// /0710 11050 21074 37669 48285 56010 333 91125 91222;
0137066590999992010010913004+46983+008250FM-12+211099999V0200901N005119999999N9999999N1-00431-00711999999ADDMA1999999076651MD1810121+9999ME1312799OA149901291REMSYN076AAXX  09134 06659 33/// /0910 11043 21071 37665 48279 58012 333 91125 91221;
0137066590999992010010914004+46983+008250FM-12+211099999V0200701N005719999999N9999999N1-00771-00881999999ADDMA1999999076651MD1710061+9999ME1312899OA149900821REMSYN076AAXX  09144 06659 33/// /0711 11077 21088 37665 48289 57006 333 91116 91211;
0137066590999992010010915004+46983+008250FM-12+211099999V0200801N002619999999N9999999N1-01361-01381999999ADDMA1999999076661MD1510031+9999ME1313089OA149901291REMSYN076AAXX  09154 06659 33/// /0805 11136 21138 37666 48308 55003 333 91125 91222;
0137066590999992010010916004+46983+008250FM-12+211099999V0200901N003619999999N9999999N1-01341-01391999999ADDMA1999999076661MD1210011+9999ME1313089OA149900671REMSYN076AAXX  09164 06659 33/// /0907 11134 21139 37666 48308 52001 333 91113 91210;
0137066590999992010010917004+46983+008250FM-12+211099999V0200701N002119999999N9999999N1-01451-01541999999ADDMA1999999076671MD1210021+9999ME1313129OA149900511REMSYN076AAXX  09174 06659 33/// /0704 11145 21154 37667 48312 52002 333 91110 91207;
0156066590999992010010918004+46983+008250FM-12+211099999V0200801N002619999999N9999999N1-01411-01501999999ADDKA1120M-00251MA1999999076691MD1210031+9999ME1313139OA149901291REMSYN082AAXX  09184 06659 33/// /0805 11141 21150 37669 48313 52003 333 11025 91125 91222;
0137066590999992010010919004+46983+008250FM-12+211099999V0200801N003619999999N9999999N1-01411-01471999999ADDMA1999999076721MD1310061+9999ME1313169OA149900411REMSYN076AAXX  09194 06659 33/// /0807 11141 21147 37672 48316 53006 333 91108 91207;
0137066590999992010010920004+46983+008250FM-12+211099999V0201001N003119999999N9999999N1-01451-01541999999ADDMA1999999076731MD1110061+9999ME1313189OA149900511REMSYN076AAXX  09204 06659 33/// /1006 11145 21154 37673 48318 51006 333 91110 91208;
0137066590999992010010921004+46983+008250FM-12+211099999V0201301N002119999999N9999999N1-01361-01401999999ADDMA1999999076791MD1310101+9999ME1313229OA149900511REMSYN076AAXX  09214 06659 33/// /1304 11136 21140 37679 48322 53010 333 91110 91208;
0137066590999992010010922004+46983+008250FM-12+211099999V0203201N001019999999N9999999N1-01311-01741999999ADDMA1999999076831MD1310111+9999ME1313249OA149900411REMSYN076AAXX  09224 06659 33/// /3202 11131 21174 37683 48324 53011 333 91108 91206;
0137066590999992010010923004+46983+008250FM-12+211099999V0200301N001019999999N9999999N1-01291-01411999999ADDMA1999999076861MD1310131+9999ME1313279OA149900411REMSYN076AAXX  09234 06659 33/// /0302 11129 21141 37686 48327 53013 333 91108 91206;
0137066590999992010011000004+46983+008250FM-12+211099999V0202201N002119999999N9999999N1-00931-01221999999ADDMA1999999076881MD1110091+9999ME1313189OA149900821REMSYN076AAXX  10004 06659 33/// /2204 11093 21122 37688 48318 51009 333 91116 91211;
0137066590999992010011001004+46983+008250FM-12+211099999V0201901N005119999999N9999999N1-00941-01231999999ADDMA1999999076911MD1310081+9999ME1313219OA149900721REMSYN076AAXX  10014 06659 33/// /1910 11094 21123 37691 48321 53008 333 91114 91210;
0096066590999992010011002004+46983+008250FM-12+211099999V0201701N005719999999N9999999N1-01001-01281999999ADDMA1999999076961ME1313289REMSYN060AAXX  10024 06659 33/// /1711 11100 21128 37696 48328 5////;
0096066590999992010011003004+46983+008250FM-12+211099999V0202301N003619999999N9999999N1-01321-01551999999ADDMA1999999077001ME1313429REMSYN060AAXX  10034 06659 43/// /2307 11132 21155 37700 48342 5////;
0137066590999992010011004004+46983+008250FM-12+211099999V0201901N004119999999N9999999N1-01061-01331999999ADDMA1999999077061MD1310151+9999ME1313409OA149900721REMSYN076AAXX  10044 06659 33/// /1908 11106 21133 37706 48340 53015 333 91114 91211;
0137066590999992010011005004+46983+008250FM-12+211099999V0201901N004619999999N9999999N1-00981-01281999999ADDMA1999999077091MD1110131+9999ME1313419OA149900771REMSYN076AAXX  10054 06659 33/// /1909 11098 21128 37709 48341 51013 333 91115 91210;
0216066590999992010011006004+46983+008250FM-12+211099999V0202001N004119999999N9999999N1-01121-01801999999ADDAA124000091AL19900091GJ100189KA1999N-01481MA1999999077131MD1110131+9999ME1313499OA149900771REMSYN094AAXX  10064 06659 33/// /2008 11112 21180 37713 48349 51013 333 21148 55003 70000 91115 91213;EQDQ01  00002PRCP24
0137066590999992010011007004+46983+008250FM-12+211099999V0202001N004619999999N9999999N1-01311-01601999999ADDMA1999999077191MD1310131+9999ME1313619OA149900671REMSYN076AAXX  10074 06659 33/// /2009 11131 21160 37719 48361 53013 333 91113 91209;
0137066590999992010011008004+46983+008250FM-12+211099999V0202001N004119999999N9999999N1-01181-01421999999ADDMA1999999077251MD1319999+9999ME1313639OA149900671REMSYN076AAXX  10084 06659 33/// /2008 11118 21142 37725 48363 53/// 333 91113 91209;
0137066590999992010011009004+46983+008250FM-12+211099999V0202001N004619999999N9999999N1-00821-01131999999ADDMA1999999077321MD1310191+9999ME1313609OA149900771REMSYN076AAXX  10094 06659 33/// /2009 11082 21113 37732 48360 53019 333 91115 91210;
0137066590999992010011010004+46983+008250FM-12+211099999V0201901N004119999999N9999999N1-00801-01001999999ADDMA1999999077361MD1110171+9999ME1313639OA149900671REMSYN076AAXX  10104 06659 33/// /1908 11080 21100 37736 48363 51017 333 91113 91209;
0137066590999992010011011004+46983+008250FM-12+211099999V0201901N004619999999N9999999N1-00691-00961999999ADDMA1999999077421MD1110171+9999ME1313669OA149900621REMSYN076AAXX  10114 06659 33/// /1909 11069 21096 37742 48366 51017 333 91112 91209;
0137066590999992010011012004+46983+008250FM-12+211099999V0202201N006219999999N9999999N1-00751-01071999999ADDMA1999999077431MD1110111+9999ME1313699OA149900771REMSYN076AAXX  10124 06659 33/// /2212 11075 21107 37743 48369 51011 333 91115 91213;
0137066590999992010011013004+46983+008250FM-12+211099999V0202201N007219999999N9999999N1-00651-01081999999ADDMA1999999077461MD1110101+9999ME1313699OA149900821REMSYN076AAXX  10134 06659 33/// /2214 11065 21108 37746 48369 51010 333 91116 91214;
0137066590999992010011014004+46983+008250FM-12+211099999V0202101N006719999999N9999999N1-00701-01001999999ADDMA1999999077501MD1319999+9999ME1313759OA149900881REMSYN076AAXX  10144 06659 33/// /2113 11070 21100 37750 48375 53/// 333 91117 91214;
0137066590999992010011015004+46983+008250FM-12+211099999V0202201N006219999999N9999999N1-00781-01061999999ADDMA1999999077551MD1310121+9999ME1313829OA149900881REMSYN076AAXX  10154 06659 33/// /2212 11078 21106 37755 48382 53012 333 91117 91214;
0137066590999992010011016004+46983+008250FM-12+211099999V0202301N003119999999N9999999N1-00931-01121999999ADDMA1999999077601MD1110141+9999ME1313919OA149900881REMSYN076AAXX  10164 06659 33/// /2306 11093 21112 37760 48391 51014 333 91117 91214;
0137066590999992010011017004+46983+008250FM-12+211099999V0202201N003619999999N9999999N1-00831-01041999999ADDMA1999999077631MD1119999+9999ME1313929OA149900671REMSYN076AAXX  10174 06659 33/// /2207 11083 21104 37763 48392 51/// 333 91113 91208;
0156066590999992010011018004+46983+008250FM-12+211099999V0202301N005119999999N9999999N1-00771-01051999999ADDKA1120M-00651MA1999999077671MD1310121+9999ME1313949OA149900881REMSYN082AAXX  10184 06659 33/// /2310 11077 21105 37767 48394 53012 333 11065 91117 91214;
0137066590999992010011019004+46983+008250FM-12+211099999V0202201N005119999999N9999999N1-00711-01041999999ADDMA1999999077711MD1110111+9999ME1313979OA149900671REMSYN076AAXX  10194 06659 33/// /2210 11071 21104 37771 48397 51011 333 91113 91210;
0137066590999992010011020004+46983+008250FM-12+211099999V0202201N005119999999N9999999N1-00621-01101999999ADDMA1999999077721MD1110091+9999ME1313959OA149900671REMSYN076AAXX  10204 06659 33/// /2210 11062 21110 37772 48395 51009 333 91113 91211;
0137066590999992010011021004+46983+008250FM-12+211099999V0202701N002119999999N9999999N1-00561-01101999999ADDMA1999999077761MD1310091+9999ME1313989OA149900671REMSYN076AAXX  10214 06659 33/// /2704 11056 21110 37776 48398 53009 333 91113 91211;
0137066590999992010011022004+46983+008250FM-12+211099999V0203501N000519999999N9999999N1-00541-01201999999ADDMA1999999077761MD1210051+9999ME1313979OA149900621REMSYN076AAXX  10224 06659 33/// /3501 11054 21120 37776 48397 52005 333 91112 91210;
0137066590999992010011023004+46983+008250FM-12+211099999V0203101N001019999999N9999999N1-00551-01231999999ADDMA1999999077771MD1210051+9999ME1313989OA149900261REMSYN076AAXX  10234 06659 33/// /3102 11055 21123 37777 48398 52005 333 91105 91203;
0137066590999992010011100004+46983+008250FM-12+211099999V0203301N003119999999N9999999N1-00681-01121999999ADDMA1999999077781MD1110021+9999ME1314039OA149900881REMSYN076AAXX  11004 06659 33/// /3306 11068 21112 37778 48403 51002 333 91117 91214;
0137066590999992010011101004+46983+008250FM-12+211099999V0203301N004619999999N9999999N1-00641-00971999999ADDMA1999999077791MD1110031+9999ME1314039OA149900571REMSYN076AAXX  11014 06659 33/// /3309 11064 21097 37779 48403 51003 333 91111 91210;
0137066590999992010011102004+46983+008250FM-12+211099999V0203201N002619999999N9999999N1-00631-01001999999ADDMA1999999077821MD1319999+9999ME1314069OA149900571REMSYN076AAXX  11024 06659 33/// /3205 11063 21100 37782 48406 53/// 333 91111 91210;
0137066590999992010011103004+46983+008250FM-12+211099999V0203301N003619999999N9999999N1-00661-01031999999ADDMA1999999077811MD1219999+9999ME1314059OA149900571REMSYN076AAXX  11034 06659 33/// /3307 11066 21103 37781 48405 52/// 333 91111 91210;
0137066590999992010011104004+46983+008250FM-12+211099999V0202501N001019999999N9999999N1-00661-01021999999ADDMA1999999077831MD1210041+9999ME1314089OA149900411REMSYN076AAXX  11044 06659 33/// /2502 11066 21102 37783 48408 52004 333 91108 91207;
0137066590999992010011105004+46983+008250FM-12+211099999V0201901N001019999999N9999999N1-00641-01001999999ADDMA1999999077821MD1510001+9999ME1314069OA149900361REMSYN076AAXX  11054 06659 33/// /1902 11064 21100 37782 48406 55000 333 91107 91205;
0216066590999992010011106004+46983+008250FM-12+211099999V0202001N002619999999N9999999N1-00681-01011999999ADDAA124000091AL19900091GJ104149KA1999N-00771MA1999999077811MD1010001+9999ME1314069OA149900671REMSYN094AAXX  11064 06659 33/// /2005 11068 21101 37781 48406 50000 333 21077 55069 70000 91113 91211;EQDQ01  00002PRCP24
0137066590999992010011107004+46983+008250FM-12+211099999V0202001N001519999999N9999999N1-00631-01031999999ADDMA1999999077831MD1510001+9999ME1314079OA149900311REMSYN076AAXX  11074 06659 33/// /2003 11063 21103 37783 48407 55000 333 91106 91205;
0137066590999992010011108004+46983+008250FM-12+211099999V0202001N001519999999N9999999N1-00521-00871999999ADDMA1999999077841MD1219999+9999ME1314059OA149900311REMSYN076AAXX  11084 06659 33/// /2003 11052 21087 37784 48405 52/// 333 91106 91205;
0137066590999992010011109004+46983+008250FM-12+211099999V0203001N001519999999N9999999N1-00501-00931999999ADDMA1999999077861MD1310051+9999ME1314069OA149900361REMSYN076AAXX  11094 06659 33/// /3003 11050 21093 37786 48406 53005 333 91107 91205;
0137066590999992010011110004+46983+008250FM-12+211099999V0202601N000519999999N9999999N1-00481-00991999999ADDMA1999999077891MD1319999+9999ME1314099OA149900211REMSYN076AAXX  11104 06659 33/// /2601 11048 21099 37789 48409 53/// 333 91104 91203;
0137066590999992010011111004+46983+008250FM-12+211099999V0202801N001519999999N9999999N1-00501-00991999999ADDMA1999999077891MD1110051+9999ME1314099OA149900211REMSYN076AAXX  11114 06659 33/// /2803 11050 21099 37789 48409 51005 333 91104 91203;
0137066590999992010011112004+46983+008250FM-12+211099999V0202001N001019999999N9999999N1-00491-00811999999ADDMA1999999077861MD1010001+9999ME1314069OA149900571REMSYN076AAXX  11124 06659 33/// /2002 11049 21081 37786 48406 50000 333 91111 91210;
0137066590999992010011113004+46983+008250FM-12+211099999V0202201N001019999999N9999999N1-00531-00901999999ADDMA1999999077831MD1810061+9999ME1314049OA149900311REMSYN076AAXX  11134 06659 33/// /2202 11053 21090 37783 48404 58006 333 91106 91203;
0096066590999992010011114004+46983+008250FM-12+211099999V0202401N003119999999N9999999N1-00661-00931999999ADDMA1999999077851ME1314109REMSYN060AAXX  11144 06659 33/// /2406 11066 21093 37785 48410 5////;
0137066590999992010011115004+46983+008250FM-12+211099999V0202401N004619999999N9999999N1-00731-00991999999ADDMA1999999077871MD1310011+9999ME1314139OA149900821REMSYN076AAXX  11154 06659 33/// /2409 11073 21099 37787 48413 53001 333 91116 91210;
0137066590999992010011116004+46983+008250FM-12+211099999V0202101N003619999999N9999999N1-00811-01101999999ADDMA1999999077891MD1110061+9999ME1314189OA149900981REMSYN076AAXX  11164 06659 33/// /2107 11081 21110 37789 48418 51006 333 91119 91210;
0137066590999992010011117004+46983+008250FM-12+211099999V0202201N003619999999N9999999N1-00881-01111999999ADDMA1999999077911MD1110061+9999ME1314219OA149900981REMSYN076AAXX  11174 06659 33/// /2207 11088 21111 37791 48421 51006 333 91119 91210;
0156066590999992010011118004+46983+008250FM-12+211099999V0202201N005119999999N9999999N1-00911-01071999999ADDKA1120M-00391MA1999999077931MD1310061+9999ME1314249OA149900981REMSYN082AAXX  11184 06659 33/// /2210 11091 21107 37793 48424 53006 333 11039 91119 91210;
0137066590999992010011119004+46983+008250FM-12+211099999V0202201N002619999999N9999999N1-00861-01001999999ADDMA1999999077961MD1310071+9999ME1314269OA149900981REMSYN076AAXX  11194 06659 33/// /2205 11086 21100 37796 48426 53007 333 91119 91210;
0137066590999992010011120004+46983+008250FM-12+211099999V0202401N004119999999N9999999N1-00791-00991999999ADDMA1999999077981MD1110071+9999ME1314269OA149900981REMSYN076AAXX  11204 06659 33/// /2408 11079 21099 37798 48426 51007 333 91119 91214;
0137066590999992010011121004+46983+008250FM-12+211099999V0202101N006719999999N9999999N1-00771-00961999999ADDMA1999999077991MD1110061+9999ME1314279OA149901131REMSYN076AAXX  11214 06659 33/// /2113 11077 21096 37799 48427 51006 333 91122 91214;
0137066590999992010011122004+46983+008250FM-12+211099999V0202101N006219999999N9999999N1-00771-00971999999ADDMA1999999077991MD1210031+9999ME1314279OA149901181REMSYN076AAXX  11224 06659 33/// /2112 11077 21097 37799 48427 52003 333 91123 91214;
0137066590999992010011123004+46983+008250FM-12+211099999V0202301N006719999999N9999999N1-00671-01041999999ADDMA1999999077991MD1210011+9999ME1314249OA149901291REMSYN076AAXX  11234 06659 33/// /2313 11067 21104 37799 48424 52001 333 91125 91214;
0137066590999992010011200004+46983+008250FM-12+211099999V0202201N005119999999N9999999N1-00771-00981999999ADDMA1999999077991MD1010001+9999ME1314279OA149901291REMSYN076AAXX  12004 06659 33/// /2210 11077 21098 37799 48427 50000 333 91125 91214;
0137066590999992010011201004+46983+008250FM-12+211099999V0202201N004119999999N9999999N1-00851-00951999999ADDMA1999999077991MD1410001+9999ME1314299OA149901241REMSYN076AAXX  12014 06659 33/// /2208 11085 21095 37799 48429 54000 333 91124 91214;
0137066590999992010011202004+46983+008250FM-12+211099999V0202201N004119999999N9999999N1-00851-00971999999ADDMA1999999077981MD1819999+9999ME1314289OA149901131REMSYN076AAXX  12024 06659 33/// /2208 11085 21097 37798 48428 58/// 333 91122 91213;
0137066590999992010011203004+46983+008250FM-12+211099999V0202301N002619999999N9999999N1-00791-00961999999ADDMA1999999077981MD1710011+9999ME1314269OA149901291REMSYN076AAXX  12034 06659 33/// /2305 11079 21096 37798 48426 57001 333 91125 91214;
0137066590999992010011204004+46983+008250FM-12+211099999V0202401N005119999999N9999999N1-00871-00941999999ADDMA1999999077961MD1810031+9999ME1314269OA149900821REMSYN076AAXX  12044 06659 33/// /2410 11087 21094 37796 48426 58003 333 91116 91210;
0154066590999992010011205004+46983+008250FM-12+211099999V0202301N004619999999N9999999N1-00811-00931999999ADDAA101000021MA1999999077951MD1810031+9999ME1314249OA149900821REMSYN082AAXX  12054 06659 23/// /2309 11081 21093 37795 48424 58003 333 69915 91116 91210;
0255066590999992010011206004+46983+008250FM-12+211099999V0202401N005719999999N9999999N1-00791-00861999999ADDAA112000091AA224000091AL10600091GJ102109KA1999N-00971MA1999999077941MD1610041+9999ME1314229OA149901291REMSYN106AAXX  12064 06659 03/// /2411 11079 21086 37794 48422 56004 69912 333 21097 55035 60005 70001 91125 91214;EQDQ01  00002PRCP24Q02  00002PRCP12
0137066590999992010011207004+46983+008250FM-12+211099999V0202401N004119999999N9999999N1-00751-00961999999ADDMA1999999077921MD1810041+9999ME1314199OA149900821REMSYN076AAXX  12074 06659 33/// /2408 11075 21096 37792 48419 58004 333 91116 91211;
0137066590999992010011208004+46983+008250FM-12+211099999V0202301N004119999999N9999999N1-00621-00911999999ADDMA1999999077881MD1819999+9999ME1314129OA149900671REMSYN076AAXX  12084 06659 33/// /2308 11062 21091 37788 48412 58/// 333 91113 91210;
0137066590999992010011209004+46983+008250FM-12+211099999V0202201N003119999999N9999999N1-00421-00781999999ADDMA1999999077861MD1810081+9999ME1314049OA149900821REMSYN076AAXX  12094 06659 33/// /2206 11042 21078 37786 48404 58008 333 91116 91211;
0137066590999992010011210004+46983+008250FM-12+211099999V0201801N002119999999N9999999N1-00291-00601999999ADDMA1999999077821MD1810101+9999ME1313979OA149900571REMSYN076AAXX  12104 06659 33/// /1804 11029 21060 37782 48397 58010 333 91111 91208;
0137066590999992010011211004+46983+008250FM-12+211099999V0202001N002119999999N9999999N1-00381-00751999999ADDMA1999999077771MD1810111+9999ME1313949OA149900411REMSYN076AAXX  12114 06659 33/// /2004 11038 21075 37777 48394 58011 333 91108 91206;
0137066590999992010011212004+46983+008250FM-12+211099999V0201801N001019999999N9999999N1-00341-00941999999ADDMA1999999077711MD1810151+9999ME1313879OA149901131REMSYN076AAXX  12124 06659 33/// /1802 11034 21094 37771 48387 58015 333 91122 91213;
0137066590999992010011213004+46983+008250FM-12+211099999V0202001N004119999999N9999999N1-00221-00791999999ADDMA1999999077671MD1610151+9999ME1313799OA149900511REMSYN076AAXX  12134 06659 33/// /2008 11022 21079 37767 48379 56015 333 91110 91208;
0096066590999992010011214004+46983+008250FM-12+211099999V0202101N005719999999N9999999N1-00341-00871999999ADDMA1999999077631ME1313789REMSYN060AAXX  12144 06659 33/// /2111 11034 21087 37763 48378 5////;
0137066590999992010011215004+46983+008250FM-12+211099999V0202201N004619999999N9999999N1-00401-01111999999ADDMA1999999077581MD1810131+9999ME1313759OA149900881REMSYN076AAXX  12154 06659 33/// /2209 11040 21111 37758 48375 58013 333 91117 91211;
0137066590999992010011216004+46983+008250FM-12+211099999V0202101N003619999999N9999999N1-00471-01301999999ADDMA1999999077521MD1810151+9999ME1313709OA149900881REMSYN076AAXX  12164 06659 33/// /2107 11047 21130 37752 48370 58015 333 91117 91210;
0137066590999992010011217004+46983+008250FM-12+211099999V0202301N001519999999N9999999N1-00521-01311999999ADDMA1999999077491MD1710141+9999ME1313699OA149900771REMSYN076AAXX  12174 06659 33/// /2303 11052 21131 37749 48369 57014 333 91115 91210;
0156066590999992010011218004+46983+008250FM-12+211099999V0202601N003619999999N9999999N1-00491-01641999999ADDKA1120M-00201MA1999999077461MD1710121+9999ME1313659OA149900881REMSYN082AAXX  12184 06659 33/// /2607 11049 21164 37746 48365 57012 333 11020 91117 91211;
0137066590999992010011219004+46983+008250FM-12+211099999V0203201N004119999999N9999999N1-00521-01461999999ADDMA1999999077451MD1710071+9999ME1313659OA149900621REMSYN076AAXX  12194 06659 33/// /3208 11052 21146 37745 48365 57007 333 91112 91209;
0137066590999992010011220004+46983+008250FM-12+211099999V0201701N002119999999N9999999N1-00381-01981999999ADDMA1999999077431MD1710061+9999ME1313599OA149900621REMSYN076AAXX  12204 06659 33/// /1704 11038 21198 37743 48359 57006 333 91112 91209;
0137066590999992010011221004+46983+008250FM-12+211099999V0201501N004119999999N9999999N1-00411-01801999999ADDMA1999999077371MD1810091+9999ME1313539OA149900771REMSYN076AAXX  12214 06659 33/// /1508 11041 21180 37737 48353 58009 333 91115 91210;
0137066590999992010011222004+46983+008250FM-12+211099999V0201101N001019999999N9999999N1-00311-01741999999ADDMA1999999077341MD1810111+9999ME1313479OA149900621REMSYN076AAXX  12224 06659 33/// /1102 11031 21174 37734 48347 58011 333 91112 91208;
0137066590999992010011223004+46983+008250FM-12+211099999V0209999C001519999999N9999999N1-00351-01801999999ADDMA1999999077291MD1810141+9999ME1313439OA149900511REMSYN076AAXX  12234 06659 33/// /0003 11035 21180 37729 48343 58014 333 91110 91207;
0137066590999992010011300004+46983+008250FM-12+211099999V0203101N001519999999N9999999N1-00271-02041999999ADDMA1999999077331MD1510041+9999ME1313459OA149900881REMSYN076AAXX  13004 06659 33/// /3103 11027 21204 37733 48345 55004 333 91117 91211;
0137066590999992010011301004+46983+008250FM-12+211099999V0202501N003119999999N9999999N1-00461-01601999999ADDMA1999999077371MD1310031+9999ME1313559OA149900461REMSYN076AAXX  13014 06659 33/// /2506 11046 21160 37737 48355 53003 333 91109 91206;
0137066590999992010011302004+46983+008250FM-12+211099999V0202601N001019999999N9999999N1-00511-01531999999ADDMA1999999077341MD1019999+9999ME1313539OA149900721REMSYN076AAXX  13024 06659 33/// /2602 11051 21153 37734 48353 50/// 333 91114 91210;
0137066590999992010011303004+46983+008250FM-12+211099999V0200601N002119999999N9999999N1-00401-01861999999ADDMA1999999077301MD1819999+9999ME1313469OA149900721REMSYN076AAXX  13034 06659 33/// /0604 11040 21186 37730 48346 58/// 333 91114 91210;
0137066590999992010011304004+46983+008250FM-12+211099999V0201001N004119999999N9999999N1-00431-01291999999ADDMA1999999077271MD1610101+9999ME1313439OA149900621REMSYN076AAXX  13044 06659 33/// /1008 11043 21129 37727 48343 56010 333 91112 91208;
0137066590999992010011305004+46983+008250FM-12+211099999V0201701N002119999999N9999999N1-00581-00791999999ADDMA1999999077281MD1710061+9999ME1313499OA149900881REMSYN076AAXX  13054 06659 33/// /1704 11058 21079 37728 48349 57006 333 91117 91208;
0216066590999992010011306004+46983+008250FM-12+211099999V0202101N005719999999N9999999N1-00561-00721999999ADDAA124000091AL19900091GJ104389KA1999N-00631MA1999999077291MD1510011+9999ME1313499OA149901031REMSYN094AAXX  13064 06659 33/// /2111 11056 21072 37729 48349 55001 333 21063 55073 70000 91120 91212;EQDQ01  00002PRCP24
0154066590999992010011307004+46983+008250FM-12+211099999V0202301N007719999999N9999999N1-00511-00631999999ADDAA101000591MA1999999077331MD1210061+9999ME1313529OA149901801REMSYN082AAXX  13074 06659 23/// /2315 11051 21063 37733 48352 52006 333 69945 91135 91219;
0154066590999992010011308004+46983+008250FM-12+211099999V0202301N006219999999N9999999N1-00521-00641999999ADDAA101000021MA1999999077391MD1310111+9999ME1313589OA149901801REMSYN082AAXX  13084 06659 23/// /2312 11052 21064 37739 48358 53011 333 69925 91135 91219;
0154066590999992010011309004+46983+008250FM-12+211099999V0202301N008219999999N9999999N1-00491-00491999999ADDAA101000591MA1999999077441MD1210151+9999ME1313639OA149901801REMSYN082AAXX  13094 06659 23/// /2316 11049 21049 37744 48363 52015 333 69945 91135 91219;
0154066590999992010011310004+46983+008250FM-12+211099999V0202201N006219999999N9999999N1-00511-00531999999ADDAA101000391MA1999999077481MD1110151+9999ME1313679OA149901541REMSYN082AAXX  13104 06659 23/// /2212 11051 21053 37748 48367 51015 333 69935 91130 91218;
0154066590999992010011311004+46983+008250FM-12+211099999V0202201N005719999999N9999999N1-00511-00511999999ADDAA101000021MA1999999077491MD1110101+9999ME1313689OA149901541REMSYN082AAXX  13114 06659 23/// /2211 11051 21051 37749 48368 51010 333 69925 91130 91218;
0160066590999992010011312004+46983+008250FM-12+211099999V0202201N006719999999N9999999N1-00491-00551999999ADDAA106002091MA1999999077481MD1010041+9999ME1313679OA149901801REMSYN088AAXX  13124 06659 03/// /2213 11049 21055 37748 48367 50004 60021 333 69925 91135 91219;
0154066590999992010011313004+46983+008250FM-12+211099999V0202201N005719999999N9999999N1-00501-00551999999ADDAA101000021MA1999999077491MD1210011+9999ME1313689OA149901541REMSYN082AAXX  13134 06659 23/// /2211 11050 21055 37749 48368 52001 333 69915 91130 91213;
0154066590999992010011314004+46983+008250FM-12+211099999V0202201N004619999999N9999999N1-00511-00551999999ADDAA101000391MA1999999077521MD1319999+9999ME1313729OA149901541REMSYN082AAXX  13144 06659 23/// /2209 11051 21055 37752 48372 53/// 333 69935 91130 91213;
0154066590999992010011315004+46983+008250FM-12+211099999V0202201N006719999999N9999999N1-00521-00541999999ADDAA101000591MA1999999077541MD1310061+9999ME1313749OA149901651REMSYN082AAXX  13154 06659 23/// /2213 11052 21054 37754 48374 53006 333 69945 91132 91218;
0154066590999992010011316004+46983+008250FM-12+211099999V0201901N002619999999N9999999N1-00541-00551999999ADDAA101000021MA1999999077571MD1110081+9999ME1313789OA149901801REMSYN082AAXX  13164 06659 23/// /1905 11054 21055 37757 48378 51008 333 69925 91135 91215;
0154066590999992010011317004+46983+008250FM-12+211099999V0202101N003619999999N9999999N1-00531-00571999999ADDAA101000591MA1999999077621MD1310101+9999ME1313829OA149901801REMSYN082AAXX  13174 06659 23/// /2107 11053 21057 37762 48382 53010 333 69955 91135 91214;
0179066590999992010011318004+46983+008250FM-12+211099999V0202101N003119999999N9999999N1-00571-00571999999ADDAA112004191KA1120M-00481MA1999999077651MD1110111+9999ME1313879OA149901801REMSYN094AAXX  13184 06659 03/// /2106 11057 21057 37765 48387 51011 60042 333 11048 60015 91135 91219;
0154066590999992010011319004+46983+008250FM-12+211099999V0201901N002119999999N9999999N1-00581-00591999999ADDAA101000591MA1999999077671MD1119999+9999ME1313899OA149901291REMSYN082AAXX  13194 06659 23/// /1904 11058 21059 37767 48389 51/// 333 69965 91125 91210;
0096066590999992010011400004+46983+008250FM-12+211099999V0201701N003119999999N9999999N1-00511-00861999999ADDMA1999999077581ME1313789REMSYN060AAXX  14004 06659 43/// /1706 11051 21086 37758 48378 5////;
0137066590999992010011401004+46983+008250FM-12+211099999V0202001N003619999999N9999999N1-00521-01021999999ADDMA1999999077551MD1619999+9999ME1313759OA149900571REMSYN076AAXX  14014 06659 33/// /2007 11052 21102 37755 48375 56/// 333 91111 91210;
0137066590999992010011402004+46983+008250FM-12+211099999V0202201N002119999999N9999999N1-00461-01221999999ADDMA1999999077511MD1819999+9999ME1313699OA149900511REMSYN076AAXX  14024 06659 33/// /2204 11046 21122 37751 48369 58/// 333 91110 91207;
0096066590999992010011403004+46983+008250FM-12+211099999V0209999C003119999999N9999999N1-00541-01051999999ADDMA1999999077491ME1313699REMSYN060AAXX  14034 06659 33/// /0006 11054 21105 37749 48369 5////;
0137066590999992010011404004+46983+008250FM-12+211099999V0200301N002119999999N9999999N1-00551-01101999999ADDMA1999999077481MD1710071+9999ME1313699OA149900411REMSYN076AAXX  14044 06659 33/// /0304 11055 21110 37748 48369 57007 333 91108 91206;
0137066590999992010011405004+46983+008250FM-12+211099999V0202701N000519999999N9999999N1-00401-01291999999ADDMA1999999077461MD1710051+9999ME1313629OA149900361REMSYN076AAXX  14054 06659 33/// /2701 11040 21129 37746 48362 57005 333 91107 91206;
0220066590999992010011406004+46983+008250FM-12+211099999V0200901N002619999999N9999999N1-00441-01271999999ADDAA112000891AA224005191AL10600591GJ100009KA1999N-00691MA1999999077431MD1810061+9999ME1313609OA149901241REMSYN106AAXX  14064 06659 03/// /0905 11044 21127 37743 48360 58006 69982 333 21069 55000 60005 70051 91124 91213;
0137066590999992010011407004+46983+008250FM-12+211099999V0200501N002119999999N9999999N1-00431-01501999999ADDMA1999999077431MD1610051+9999ME1313609OA149900361REMSYN076AAXX  14074 06659 33/// /0504 11043 21150 37743 48360 56005 333 91107 91205;
0137066590999992010011408004+46983+008250FM-12+211099999V0200401N003619999999N9999999N1-00351-01821999999ADDMA1999999077431MD1619999+9999ME1313589OA149900411REMSYN076AAXX  14084 06659 33/// /0407 11035 21182 37743 48358 56/// 333 91108 91207;
0137066590999992010011409004+46983+008250FM-12+211099999V0200801N002619999999N9999999N1-00251-01601999999ADDMA1999999077431MD1410001+9999ME1313559OA149900411REMSYN076AAXX  14094 06659 33/// /0805 11025 21160 37743 48355 54/// 333 91108 91207;
0137066590999992010011410004+46983+008250FM-12+211099999V0200501N004119999999N9999999N1-00171-01811999999ADDMA1999999077431MD1510001+9999ME1313539OA149900671REMSYN076AAXX  14104 06659 33/// /0508 11017 21181 37743 48353 55000 333 91113 91209;
0137066590999992010011411004+46983+008250FM-12+211099999V0201301N001019999999N9999999N1-00181-02061999999ADDMA1999999077401MD1810031+9999ME1313509OA149900821REMSYN076AAXX  14114 06659 33/// /1302 11018 21206 37740 48350 58003 333 91116 91212;
0137066590999992010011412004+46983+008250FM-12+211099999V0200901N004619999999N9999999N1-00061-01881999999ADDMA1999999077361MD1819999+9999ME1313429OA149900821REMSYN076AAXX  14124 06659 33/// /0909 11006 21188 37736 48342 58/// 333 91116 91212;
0137066590999992010011413004+46983+008250FM-12+211099999V0200901N004619999999N9999999N1-00111-02071999999ADDMA1999999077341MD1610091+9999ME1313429OA149900671REMSYN076AAXX  14134 06659 33/// /0909 11011 21207 37734 48342 56009 333 91113 91209;
0137066590999992010011414004+46983+008250FM-12+211099999V0200901N003119999999N9999999N1-00131-02161999999ADDMA1999999077381MD1510021+9999ME1313469OA149900671REMSYN076AAXX  14144 06659 33/// /0906 11013 21216 37738 48346 55002 333 91113 91209;
0137066590999992010011415004+46983+008250FM-12+211099999V0201001N002619999999N9999999N1-00121-01981999999ADDMA1999999077401MD1210041+9999ME1313489OA149900821REMSYN076AAXX  14154 06659 33/// /1005 11012 21198 37740 48348 52004 333 91116 91212;
0137066590999992010011416004+46983+008250FM-12+211099999V0201001N002619999999N9999999N1-00151-02311999999ADDMA1999999077421MD1110081+9999ME1313519OA149900461REMSYN076AAXX  14164 06659 33/// /1005 11015 21231 37742 48351 51008 333 91109 91207;
0137066590999992010011417004+46983+008250FM-12+211099999V0200801N002119999999N9999999N1-00091-02171999999ADDMA1999999077471MD1310091+9999ME1313559OA149900461REMSYN076AAXX  14174 06659 33/// /0804 11009 21217 37747 48355 53009 333 91109 91207;
0156066590999992010011418004+46983+008250FM-12+211099999V0200401N003619999999N9999999N1-00071-02421999999ADDKA1120M-00051MA1999999077521MD1310121+9999ME1313599OA149900821REMSYN082AAXX  14184 06659 33/// /0407 11007 21242 37752 48359 53012 333 11005 91116 91212;
0137066590999992010011419004+46983+008250FM-12+211099999V0200101N004119999999N9999999N1-00231-02281999999ADDMA1999999077581MD1310161+9999ME1313709OA149900511REMSYN076AAXX  14194 06659 33/// /0108 11023 21228 37758 48370 53016 333 91110 91208;
0137066590999992010011420004+46983+008250FM-12+211099999V0203501N002619999999N9999999N1-00321-01721999999ADDMA1999999077631MD1110161+9999ME1313789OA149900511REMSYN076AAXX  14204 06659 33/// /3505 11032 21172 37763 48378 51016 333 91110 91210;
0137066590999992010011421004+46983+008250FM-12+211099999V0202901N002119999999N9999999N1-00311-01751999999ADDMA1999999077701MD1310181+9999ME1313859OA149900511REMSYN076AAXX  14214 06659 33/// /2904 11031 21175 37770 48385 53018 333 91110 91210;
0137066590999992010011422004+46983+008250FM-12+211099999V0202401N003619999999N9999999N1-00321-01671999999ADDMA1999999077781MD1310201+9999ME1313939OA149900621REMSYN076AAXX  14224 06659 33/// /2407 11032 21167 37778 48393 53020 333 91112 91207;
0137066590999992010011423004+46983+008250FM-12+211099999V0202401N005119999999N9999999N1-00261-01671999999ADDMA1999999077841MD1210211+9999ME1313989OA149900981REMSYN076AAXX  14234 06659 33/// /2410 11026 21167 37784 48398 52021 333 91119 91211;
0137066590999992010011500004+46983+008250FM-12+211099999V0202301N005119999999N9999999N1-00381-01661999999ADDMA1999999077881MD1110181+9999ME1314059OA149900981REMSYN076AAXX  15004 06659 33/// /2310 11038 21166 37788 48405 51018 333 91119 91211;
0137066590999992010011501004+46983+008250FM-12+211099999V0202401N005119999999N9999999N1-00451-01501999999ADDMA1999999077921MD1110141+9999ME1314119OA149900881REMSYN076AAXX  15014 06659 33/// /2410 11045 21150 37792 48411 51014 333 91117 91211;
0137066590999992010011502004+46983+008250FM-12+211099999V0202501N007719999999N9999999N1-00551-01231999999ADDMA1999999077991MD1310151+9999ME1314219OA149900981REMSYN076AAXX  15024 06659 33/// /2515 11055 21123 37799 48421 53015 333 91119 91215;
0096066590999992010011503004+46983+008250FM-12+211099999V0202301N006219999999N9999999N1-00521-01171999999ADDMA1999999078051ME1314269REMSYN060AAXX  15034 06659 33/// /2312 11052 21117 37805 48426 5////;
0137066590999992010011504004+46983+008250FM-12+211099999V0202301N006219999999N9999999N1-00551-01151999999ADDMA1999999078101MD1110181+9999ME1314329OA149901241REMSYN076AAXX  15044 06659 33/// /2312 11055 21115 37810 48432 51018 333 91124 91216;
0137066590999992010011505004+46983+008250FM-12+211099999V0202301N006219999999N9999999N1-00571-01181999999ADDMA1999999078171MD1310181+9999ME1314409OA149901541REMSYN076AAXX  15054 06659 33/// /2312 11057 21118 37817 48440 53018 333 91130 91216;
0216066590999992010011506004+46983+008250FM-12+211099999V0202201N006719999999N9999999N1-00501-01131999999ADDAA124000091AL19900091GJ102829KA1999N-00571MA1999999078261MD1310211+9999ME1314479OA149901541REMSYN094AAXX  15064 06659 33/// /2213 11050 21113 37826 48447 53021 333 21057 55047 70000 91130 91216;EQDQ01  00002PRCP24
0137066590999992010011507004+46983+008250FM-12+211099999V0202401N005719999999N9999999N1-00471-01371999999ADDMA1999999078341MD1310241+9999ME1314559OA149901241REMSYN076AAXX  15074 06659 33/// /2411 11047 21137 37834 48455 53024 333 91124 91214;
0137066590999992010011508004+46983+008250FM-12+211099999V0202501N004619999999N9999999N1-00481-01311999999ADDMA1999999078411MD1119999+9999ME1314629OA149901131REMSYN076AAXX  15084 06659 33/// /2509 11048 21131 37841 48462 51/// 333 91122 91214;
0137066590999992010011509004+46983+008250FM-12+211099999V0202201N004619999999N9999999N1-00381-01321999999ADDMA1999999078491MD1310231+9999ME1314689OA149901541REMSYN076AAXX  15094 06659 33/// /2209 11038 21132 37849 48468 53023 333 91130 91216;
0137066590999992010011510004+46983+008250FM-12+211099999V0202401N003119999999N9999999N1-00421-01391999999ADDMA1999999078551MD1110211+9999ME1314759OA149900771REMSYN076AAXX  15104 06659 33/// /2406 11042 21139 37855 48475 51021 333 91115 91210;
0137066590999992010011511004+46983+008250FM-12+211099999V0202101N001019999999N9999999N1-00261-00881999999ADDMA1999999078581MD1110171+9999ME1314749OA149900771REMSYN076AAXX  15114 06659 33/// /2102 11026 21088 37858 48474 51017 333 91115 91211;
0137066590999992010011512004+46983+008250FM-12+211099999V0202601N003619999999N9999999N1-00321-01341999999ADDMA1999999078621MD1110131+9999ME1314809OA149901541REMSYN076AAXX  15124 06659 33/// /2607 11032 21134 37862 48480 51013 333 91130 91216;
0137066590999992010011513004+46983+008250FM-12+211099999V0201601N000519999999N9999999N1-00461-00961999999ADDMA1999999078661MD1310111+9999ME1314879OA149900511REMSYN076AAXX  15134 06659 33/// /1601 11046 21096 37866 48487 53011 333 91110 91208;
0137066590999992010011514004+46983+008250FM-12+211099999V0202501N003619999999N9999999N1-00371-00911999999ADDMA1999999078711MD1310131+9999ME1314909OA149900511REMSYN076AAXX  15144 06659 33/// /2507 11037 21091 37871 48490 53013 333 91110 91207;
0137066590999992010011515004+46983+008250FM-12+211099999V0203101N002119999999N9999999N1-00411-01021999999ADDMA1999999078781MD1310161+9999ME1314989OA149900771REMSYN076AAXX  15154 06659 33/// /3104 11041 21102 37878 48498 53016 333 91115 91211;
0137066590999992010011516004+46983+008250FM-12+211099999V0202201N000519999999N9999999N1-00411-01161999999ADDMA1999999078811MD1310151+9999ME1315019OA149900511REMSYN076AAXX  15164 06659 33/// /2201 11041 21116 37881 48501 53015 333 91110 91207;
0137066590999992010011517004+46983+008250FM-12+211099999V0200801N002619999999N9999999N1-00411-01281999999ADDMA1999999078841MD1110131+9999ME1315049OA149900461REMSYN076AAXX  15174 06659 33/// /0805 11041 21128 37884 48504 51013 333 91109 91205;
0156066590999992010011518004+46983+008250FM-12+211099999V0201101N003119999999N9999999N1-00391-01271999999ADDKA1120M-00261MA1999999078861MD1110081+9999ME1315069OA149901131REMSYN082AAXX  15184 06659 33/// /1106 11039 21127 37886 48506 51008 333 11026 91122 91214;
0137066590999992010011519004+46983+008250FM-12+211099999V0201101N003619999999N9999999N1-00351-01191999999ADDMA1999999078871MD1110061+9999ME1315069OA149900411REMSYN076AAXX  15194 06659 33/// /1107 11035 21119 37887 48506 51006 333 91108 91207;
0137066590999992010011520004+46983+008250FM-12+211099999V0201101N003619999999N9999999N1-00391-01261999999ADDMA1999999078871MD1110031+9999ME1315079OA149900461REMSYN076AAXX  15204 06659 33/// /1107 11039 21126 37887 48507 51003 333 91109 91207;
0156066590999992010011521004+46983+008250FM-12+211099999V0200901N002619999999N9999999N1-00361+99999999999ADDMA1999999078881MD1210021+9999ME1315079OA149900461REMSYN076AAXX  15214 06659 33/// /0905 11036 21144 37888 48507 52002 333 91109 91207;EQDQ01-001443ATOD  
0137066590999992010011522004+46983+008250FM-12+211099999V0201101N003119999999N9999999N1-00211-02511999999ADDMA1999999078881MD1210011+9999ME1315049OA149900461REMSYN076AAXX  15224 06659 33/// /1106 11021 21251 37888 48504 52001 333 91109 91208;
0137066590999992010011523004+46983+008250FM-12+211099999V0201101N003619999999N9999999N1-00181-02721999999ADDMA1999999078881MD1510011+9999ME1315039OA149900461REMSYN076AAXX  15234 06659 33/// /1107 11018 21272 37888 48503 55001 333 91109 91208;
0137066590999992010011600004+46983+008250FM-12+211099999V0200901N003119999999N9999999N1-00191-02471999999ADDMA1999999078881MD1010001+9999ME1315039OA149900511REMSYN076AAXX  16004 06659 33/// /0906 11019 21247 37888 48503 50000 333 91110 91208;
0137066590999992010011601004+46983+008250FM-12+211099999V0200901N002619999999N9999999N1-00181-02521999999ADDMA1999999078861MD1710021+9999ME1315019OA149900411REMSYN076AAXX  16014 06659 33/// /0905 11018 21252 37886 48501 57002 333 91108 91206;
0137066590999992010011602004+46983+008250FM-12+211099999V0201101N002619999999N9999999N1-00221-02271999999ADDMA1999999078861MD1610021+9999ME1315029OA149900361REMSYN076AAXX  16024 06659 33/// /1105 11022 21227 37886 48502 56002 333 91107 91206;
0137066590999992010011603004+46983+008250FM-12+211099999V0201601N002119999999N9999999N1-00151-02781999999ADDMA1999999078831MD1719999+9999ME1314979OA149900461REMSYN076AAXX  16034 06659 33/// /1604 11015 21278 37883 48497 57/// 333 91109 91208;
0137066590999992010011604004+46983+008250FM-12+211099999V0201901N003619999999N9999999N1-00131-02461999999ADDMA1999999078821MD1710041+9999ME1314969OA149900461REMSYN076AAXX  16044 06659 33/// /1907 11013 21246 37882 48496 57004 333 91109 91207;
0137066590999992010011605004+46983+008250FM-12+211099999V0202201N006219999999N9999999N1-00181-02161999999ADDMA1999999078791MD1710071+9999ME1314949OA149900771REMSYN076AAXX  16054 06659 33/// /2212 11018 21216 37879 48494 57007 333 91115 91212;
0216066590999992010011606004+46983+008250FM-12+211099999V0202101N005719999999N9999999N1-00111-01571999999ADDAA124000091AL19900091GJ102949KA1999N-00411MA1999999078761MD1710071+9999ME1314899OA149900771REMSYN094AAXX  16064 06659 33/// /2111 11011 21157 37876 48489 57007 333 21041 55049 70000 91115 91212;EQDQ01  00002PRCP24
0137066590999992010011607004+46983+008250FM-12+211099999V0202201N005119999999N9999999N1-00091-01691999999ADDMA1999999078751MD1710071+9999ME1314889OA149900981REMSYN076AAXX  16074 06659 33/// /2210 11009 21169 37875 48488 57007 333 91119 91213;
0137066590999992010011608004+46983+008250FM-12+211099999V0202201N004619999999N9999999N1+00031-02572999999ADDMA1999999078731MD1710061+9999ME1314839OA149901031REMSYN076AAXX  16084 06659 33/// /2209 10003 21257 37873 48483 57006 333 91120 91213;
0137066590999992010011609004+46983+008250FM-12+211099999V0202301N005119999999N9999999N1+00141-02521999999ADDMA1999999078721MD1710041+9999ME1314799OA149901181REMSYN076AAXX  16094 06659 33/// /2310 10014 21252 37872 48479 57004 333 91123 91215;
0137066590999992010011610004+46983+008250FM-12+211099999V0202201N006719999999N9999999N1+00241-02431999999ADDMA1999999078711MD1710041+9999ME1314769OA149901541REMSYN076AAXX  16104 06659 33/// /2213 10024 21243 37871 48476 57004 333 91130 91216;
0137066590999992010011611004+46983+008250FM-12+211099999V0202301N004619999999N9999999N1+00241-02751999999ADDMA1999999078681MD1710051+9999ME1314739OA149901541REMSYN076AAXX  16114 06659 33/// /2309 10024 21275 37868 48473 57005 333 91130 91216;
0137066590999992010011612004+46983+008250FM-12+211099999V0202301N004619999999N9999999N1+00171-01911999999ADDMA1999999078651MD1710071+9999ME1314719OA149901541REMSYN076AAXX  16124 06659 33/// /2309 10017 21191 37865 48471 57007 333 91130 91216;
0137066590999992010011613004+46983+008250FM-12+211099999V0202301N005719999999N9999999N1+00071-01621999999ADDMA1999999078641MD1710071+9999ME1314739OA149901131REMSYN076AAXX  16134 06659 33/// /2311 10007 21162 37864 48473 57007 333 91122 91211;
0137066590999992010011614004+46983+008250FM-12+211099999V0202201N003619999999N9999999N1+00181-02151999999ADDMA1999999078591MD1719999+9999ME1314659OA149901131REMSYN076AAXX  16144 06659 33/// /2207 10018 21215 37859 48465 57/// 333 91122 91211;
0137066590999992010011615004+46983+008250FM-12+211099999V0202501N002619999999N9999999N1+00151-02431999999ADDMA1999999078561MD1710091+9999ME1314629OA149901541REMSYN076AAXX  16154 06659 33/// /2505 10015 21243 37856 48462 57009 333 91130 91216;
0137066590999992010011616004+46983+008250FM-12+211099999V0202301N006719999999N9999999N1+00141-02601999999ADDMA1999999078551MD1710091+9999ME1314629OA149900931REMSYN076AAXX  16164 06659 33/// /2313 10014 21260 37855 48462 57009 333 91118 91213;
0137066590999992010011617004+46983+008250FM-12+211099999V0202301N005719999999N9999999N1+00141-02391999999ADDMA1999999078541MD1710051+9999ME1314619OA149901081REMSYN076AAXX  16174 06659 33/// /2311 10014 21239 37854 48461 57005 333 91121 91216;
0156066590999992010011618004+46983+008250FM-12+211099999V0202201N002119999999N9999999N1+00011-02031999999ADDKA1120M+00271MA1999999078541MD1710021+9999ME1314649OA149901541REMSYN082AAXX  16184 06659 33/// /2204 10001 21203 37854 48464 57002 333 10027 91130 91216;
0137066590999992010011619004+46983+008250FM-12+211099999V0202201N005119999999N9999999N1+00071-01811999999ADDMA1999999078481MD1810071+9999ME1314569OA149900981REMSYN076AAXX  16194 06659 33/// /2210 10007 21181 37848 48456 58007 333 91119 91210;
0137066590999992010011620004+46983+008250FM-12+211099999V0202201N006719999999N9999999N1+00041-01191999999ADDMA1999999078451MD1710091+9999ME1314549OA149901441REMSYN076AAXX  16204 06659 33/// /2213 10004 21119 37845 48454 57009 333 91128 91217;
0137066590999992010011621004+46983+008250FM-12+211099999V0202201N010319999999N9999999N1-00171-00541999999ADDMA1999999078341MD1810201+9999ME1314479OA149901441REMSYN076AAXX  16214 06659 33/// /2220 11017 21054 37834 48447 58020 333 91128 91220;
0154066590999992010011622004+46983+008250FM-12+211099999V0202101N008719999999N9999999N1-00311-00391999999ADDAA101000021MA1999999078311MD1810171+9999ME1314489OA149901601REMSYN082AAXX  16224 06659 23/// /2117 11031 21039 37831 48448 58017 333 69915 91131 91220;
0154066590999992010011623004+46983+008250FM-12+211099999V0202301N009319999999N9999999N1-00241-00241999999ADDAA101001091MA1999999078381MD1510071+9999ME1314539OA149901701REMSYN082AAXX  16234 06659 23/// /2318 11024 21024 37838 48453 55007 333 60015 91133 91220;
0160066590999992010011700004+46983+008250FM-12+211099999V0202101N007719999999N9999999N1-00231-00231999999ADDAA106003091MA1999999078421MD1210081+9999ME1314579OA149902161REMSYN088AAXX  17004 06659 03/// /2115 11023 21023 37842 48457 52008 60031 333 60025 91142 91220;
0154066590999992010011701004+46983+008250FM-12+211099999V0202101N008219999999N9999999N1-00261-00261999999ADDAA101004191MA1999999078411MD1210101+9999ME1314579OA149902881REMSYN082AAXX  17014 06659 23/// /2116 11026 21026 37841 48457 52010 333 60045 91156 91226;
0154066590999992010011702004+46983+008250FM-12+211099999V0202201N008719999999N9999999N1-00291-00291999999ADDAA101000891MA1999999078411MD1219999+9999ME1314589OA149902881REMSYN082AAXX  17024 06659 23/// /2217 11029 21029 37841 48458 52/// 333 69985 91156 91226;
0096066590999992010011703004+46983+008250FM-12+211099999V0202201N008719999999N9999999N1-00251-00421999999ADDMA1999999078351ME1314509REMSYN060AAXX  17034 06659 43/// /2217 11025 21042 37835 48450 5////;
0154066590999992010011704004+46983+008250FM-12+211099999V0202001N007719999999N9999999N1-00241-00241999999ADDAA101001091MA1999999078331MD1710081+9999ME1314489OA149902831REMSYN082AAXX  17044 06659 23/// /2015 11024 21024 37833 48448 57008 333 60015 91155 91231;
0154066590999992010011705004+46983+008250FM-12+211099999V0202001N005119999999N9999999N1-00261-00261999999ADDAA101001091MA1999999078361MD1719999+9999ME1314529OA149902371REMSYN082AAXX  17054 06659 23/// /2010 11026 21026 37836 48452 57/// 333 60015 91146 91215;
0220066590999992010011706004+46983+008250FM-12+211099999V0202001N006719999999N9999999N1-00311-00311999999ADDAA112013092AA224011992AL19901291GJ102469KA1999N-00311MA1999999078341MD1010011+9999ME1314519OA149902881REMSYN106AAXX  17064 06659 03/// /2013 11031 21031 37834 48451 50001 60132 333 21031 55041 60025 70120 91156 91231;
0154066590999992010011707004+46983+008250FM-12+211099999V0202001N005719999999N9999999N1-00331-00331999999ADDAA101001091MA1999999078421MD1310091+9999ME1314609OA149902111REMSYN082AAXX  17074 06659 23/// /2011 11033 21033 37842 48460 53009 333 69995 91141 91214;
0154066590999992010011708004+46983+008250FM-12+211099999V0202101N006219999999N9999999N1-00341-00341999999ADDAA101000891MA1999999078471MD1219999+9999ME1314659OA149902111REMSYN082AAXX  17084 06659 23/// /2112 11034 21034 37847 48465 52/// 333 69985 91141 91218;
0154066590999992010011709004+46983+008250FM-12+211099999V0202101N007219999999N9999999N1-00341-00341999999ADDAA101002091MA1999999078501MD1210161+9999ME1314689OA149902571REMSYN082AAXX  17094 06659 23/// /2114 11034 21034 37850 48468 52016 333 60025 91150 91224;
0154066590999992010011710004+46983+008250FM-12+211099999V0202101N006719999999N9999999N1-00381-00381999999ADDAA101002091MA1999999078591MD1210171+9999ME1314789OA149902571REMSYN082AAXX  17104 06659 23/// /2113 11038 21038 37859 48478 52017 333 60025 91150 91224;
0154066590999992010011711004+46983+008250FM-12+211099999V0202101N010819999999N9999999N1-00481-00481999999ADDAA101002091MA1999999078561MD1210091+9999ME1314779OA149902421REMSYN082AAXX  17114 06659 23/// /2121 11048 21048 37856 48477 52009 333 60025 91147 91221;
0160066590999992010011712004+46983+008250FM-12+211099999V0202101N008219999999N9999999N1-00541-00541999999ADDAA106007991MA1999999078611MD1210111+9999ME1314849OA149902881REMSYN088AAXX  17124 06659 03/// /2116 11054 21054 37861 48484 52011 60081 333 60015 91156 91231;
0154066590999992010011713004+46983+008250FM-12+211099999V0202001N006719999999N9999999N1-00591-00591999999ADDAA101000391MA1999999078641MD1310051+9999ME1314889OA149902631REMSYN082AAXX  17134 06659 23/// /2013 11059 21059 37864 48488 53005 333 69935 91151 91220;
0154066590999992010011714004+46983+008250FM-12+211099999V0201901N004619999999N9999999N1-00631-00651999999ADDAA101000021MA1999999078721MD1219999+9999ME1314979OA149902371REMSYN082AAXX  17144 06659 23/// /1909 11063 21065 37872 48497 52/// 333 69915 91146 91220;
0137066590999992010011715004+46983+008250FM-12+211099999V0202101N005719999999N9999999N1-00641-00661999999ADDMA1999999078771MD1210161+9999ME1315039OA149902631REMSYN076AAXX  17154 06659 33/// /2111 11064 21066 37877 48503 52016 333 91151 91221;
0137066590999992010011716004+46983+008250FM-12+211099999V0202001N005119999999N9999999N1-00701-00721999999ADDMA1999999078851MD1210211+9999ME1315129OA149901601REMSYN076AAXX  17164 06659 33/// /2010 11070 21072 37885 48512 52021 333 91131 91215;
0137066590999992010011717004+46983+008250FM-12+211099999V0202001N004619999999N9999999N1-00751-00811999999ADDMA1999999078921MD1310201+9999ME1315209OA149901541REMSYN076AAXX  17174 06659 33/// /2009 11075 21081 37892 48520 53020 333 91130 91213;
0179066590999992010011718004+46983+008250FM-12+211099999V0202001N002619999999N9999999N1-00711-00751999999ADDAA112007991KA1120M-00301MA1999999078991MD1110221+9999ME1315269OA149902631REMSYN094AAXX  17184 06659 03/// /2005 11071 21075 37899 48526 51022 60082 333 11030 60005 91151 91224;
0137066590999992010011719004+46983+008250FM-12+211099999V0202101N002119999999N9999999N1-00701-00771999999ADDMA1999999079011MD1110161+9999ME1315289OA149901441REMSYN076AAXX  17194 06659 33/// /2104 11070 21077 37901 48528 51016 333 91128 91212;
0137066590999992010011720004+46983+008250FM-12+211099999V0202101N003619999999N9999999N1-00691-00751999999ADDMA1999999079031MD1110111+9999ME1315309OA149901031REMSYN076AAXX  17204 06659 33/// /2107 11069 21075 37903 48530 51011 333 91120 91209;
