0128066570999992011012414004+46850+008200FM-12+047599999V0202401N001519999999N9999999N1-00181+99999102621ADDMA1999999096691MD1619999+9999OA149900151REMSYN076AAXX  24144 06657 33/// /2403 11018 2//// 39669 40262 56/// 333 91103 91202;
0128066570999992011012415004+46850+008200FM-12+047599999V0201601N000519999999N9999999N1-00241+99999102631ADDMA1999999096691MD1719999+9999OA149900211REMSYN076AAXX  24154 06657 33/// /1601 11024 2//// 39669 40263 57/// 333 91104 91203;
0128066570999992011012416004+46850+008200FM-12+047599999V0202801N000519999999N9999999N1-00341+99999102621ADDMA1999999096661MD1719999+9999OA149900211REMSYN076AAXX  24164 06657 33/// /2801 11034 2//// 39666 40262 57/// 333 91104 91203;
0128066570999992011012417004+46850+008200FM-12+047599999V0202501N001519999999N9999999N1-00561+99999102701ADDMA1999999096681MD1719999+9999OA149900151REMSYN076AAXX  24174 06657 33/// /2503 11056 2//// 39668 40270 57/// 333 91103 91203;
0128066570999992011012419004+46850+008200FM-12+047599999V0202301N000519999999N9999999N1-00681+99999102721ADDMA1999999096681MD1219999+9999OA149900211REMSYN076AAXX  24194 06657 33/// /2301 11068 2//// 39668 40272 52/// 333 91104 91203;
0128066570999992011012420004+46850+008200FM-12+047599999V0202501N001019999999N9999999N1-00781+99999102761ADDMA1999999096691MD1019999+9999OA149900151REMSYN076AAXX  24204 06657 33/// /2502 11078 2//// 39669 40276 50/// 333 91103 91202;
0128066570999992011012421004+46850+008200FM-12+047599999V0202401N000519999999N9999999N1-00731+99999102691ADDMA1999999096641MD1719999+9999OA149900261REMSYN076AAXX  24214 06657 33/// /2401 11073 2//// 39664 40269 57/// 333 91105 91203;
0128066570999992011012422004+46850+008200FM-12+047599999V0202001N000519999999N9999999N1-00841+99999102681ADDMA1999999096601MD1719999+9999OA149900261REMSYN076AAXX  24224 06657 33/// /2001 11084 2//// 39660 40268 57/// 333 91105 91203;
0128066570999992011012423004+46850+008200FM-12+047599999V0202301N000519999999N9999999N1-00791+99999102631ADDMA1999999096571MD1719999+9999OA149900151REMSYN076AAXX  24234 06657 33/// /2301 11079 2//// 39657 40263 57/// 333 91103 91202;
0128066570999992011012501004+46850+008200FM-12+047599999V0202701N000519999999N9999999N1-00751+99999102551ADDMA1999999096501MD1819999+9999OA149900151REMSYN076AAXX  25014 06657 33/// /2701 11075 2//// 39650 40255 58/// 333 91103 91202;
0128066570999992011012502004+46850+008200FM-12+047599999V0202701N000519999999N9999999N1-00801+99999102561ADDMA1999999096501MD1719999+9999OA149900151REMSYN076AAXX  25024 06657 33/// /2701 11080 2//// 39650 40256 57/// 333 91103 91203;
0128066570999992011012503004+46850+008200FM-12+047599999V0202401N001019999999N9999999N1-00791+99999102551ADDMA1999999096491MD1519999+9999OA149900151REMSYN076AAXX  25034 06657 33/// /2402 11079 2//// 39649 40255 55/// 333 91103 91203;
0128066570999992011012504004+46850+008200FM-12+047599999V0202301N000519999999N9999999N1-00781+99999102491ADDMA1999999096441MD1719999+9999OA149900211REMSYN076AAXX  25044 06657 33/// /2301 11078 2//// 39644 40249 57/// 333 91104 91203;
0128066570999992011012505004+46850+008200FM-12+047599999V0202401N000519999999N9999999N1-00621+99999102431ADDMA1999999096421MD1819999+9999OA149900211REMSYN076AAXX  25054 06657 33/// /2401 11062 2//// 39642 40243 58/// 333 91104 91203;
0128066570999992011012507004+46850+008200FM-12+047599999V0202701N000519999999N9999999N1-00441+99999102341ADDMA1999999096371MD1719999+9999OA149900151REMSYN076AAXX  25074 06657 33/// /2701 11044 2//// 39637 40234 57/// 333 91103 91202;
0128066570999992011012508004+46850+008200FM-12+047599999V0202301N001019999999N9999999N1-00341+99999102351ADDMA1999999096401MD1519999+9999OA149900101REMSYN076AAXX  25084 06657 33/// /2302 11034 2//// 39640 40235 55/// 333 91102 91202;
0128066570999992011012509004+46850+008200FM-12+047599999V0201501N001019999999N9999999N1-00281+99999102321ADDMA1999999096391MD1319999+9999OA149900211REMSYN076AAXX  25094 06657 33/// /1502 11028 2//// 39639 40232 53/// 333 91104 91203;
0128066570999992011012510004+46850+008200FM-12+047599999V0209999C000019999999N9999999N1-00161+99999102261ADDMA1999999096361MD1019999+9999OA149900211REMSYN076AAXX  25104 06657 33/// /0000 11016 2//// 39636 40226 50/// 333 91104 91203;
0128066570999992011012511004+46850+008200FM-12+047599999V0201601N000519999999N9999999N1-00091+99999102161ADDMA1999999096281MD1719999+9999OA149900151REMSYN076AAXX  25114 06657 33/// /1601 11009 2//// 39628 40216 57/// 333 91103 91202;
0128066570999992011012513004+46850+008200FM-12+047599999V0209999C000019999999N9999999N1+00011+99999101941ADDMA1999999096091MD1719999+9999OA149900101REMSYN076AAXX  25134 06657 33/// /0000 10001 2//// 39609 40194 57/// 333 91102 91201;
0098066570999992011012514004+46850+008200FM-12+047599999V0209999C000019999999N9999999N1+00051+99999101871ADDMA1999999096031OA149900101REMSYN060AAXX  25144 06657 43/// /0000 10005 2//// 39603 40187 5////;
0128066570999992011012515004+46850+008200FM-12+047599999V0202501N000519999999N9999999N1+00051+99999101871ADDMA1999999096031MD1719999+9999OA149900151REMSYN076AAXX  25154 06657 33/// /2501 10005 2//// 39603 40187 57/// 333 91103 91202;
0128066570999992011012516004+46850+008200FM-12+047599999V0202201N000519999999N9999999N1+00001+99999101811ADDMA1999999095971MD1719999+9999OA149900101REMSYN076AAXX  25164 06657 33/// /2201 10000 2//// 39597 40181 57/// 333 91102 91201;
0128066570999992011012517004+46850+008200FM-12+047599999V0202401N002619999999N9999999N1+00211+99999101751ADDMA1999999095951MD1719999+9999OA149900821REMSYN076AAXX  25174 06657 33/// /2405 10021 2//// 39595 40175 57/// 333 91116 91206;
0128066570999992011012519004+46850+008200FM-12+047599999V0202101N006719999999N9999999N1+00261+99999101661ADDMA1999999095881MD1719999+9999OA149901081REMSYN076AAXX  25194 06657 33/// /2113 10026 2//// 39588 40166 57/// 333 91121 91211;
0128066570999992011012520004+46850+008200FM-12+047599999V0202001N004119999999N9999999N1+00281+99999101661ADDMA1999999095881MD1719999+9999OA149901081REMSYN076AAXX  25204 06657 33/// /2008 10028 2//// 39588 40166 57/// 333 91121 91213;
0128066570999992011012521004+46850+008200FM-12+047599999V0201701N002119999999N9999999N1+00211+99999101691ADDMA1999999095901MD1519999+9999OA149901081REMSYN076AAXX  25214 06657 33/// /1704 10021 2//// 39590 40169 55/// 333 91121 91213;
0128066570999992011012522004+46850+008200FM-12+047599999V0201001N001019999999N9999999N1+00181+99999101651ADDMA1999999095851MD1719999+9999OA149900981REMSYN076AAXX  25224 06657 33/// /1002 10018 2//// 39585 40165 57/// 333 91119 91209;
0128066570999992011012523004+46850+008200FM-12+047599999V0200401N001519999999N9999999N1+00141+99999101631ADDMA1999999095831MD1819999+9999OA149900571REMSYN076AAXX  25234 06657 33/// /0403 10014 2//// 39583 40163 58/// 333 91111 91206;
0128066570999992011012601004+46850+008200FM-12+047599999V0200601N002119999999N9999999N1+00101+99999101501ADDMA1999999095701MD1719999+9999OA149900511REMSYN076AAXX  26014 06657 33/// /0604 10010 2//// 39570 40150 57/// 333 91110 91204;
0128066570999992011012602004+46850+008200FM-12+047599999V0202201N001519999999N9999999N1+00051+99999101481ADDMA1999999095671MD1719999+9999OA149900511REMSYN076AAXX  26024 06657 33/// /2203 10005 2//// 39567 40148 57/// 333 91110 91204;
0128066570999992011012603004+46850+008200FM-12+047599999V0201001N001019999999N9999999N1+00071+99999101431ADDMA1999999095621MD1719999+9999OA149900571REMSYN076AAXX  26034 06657 33/// /1002 10007 2//// 39562 40143 57/// 333 91111 91206;
0128066570999992011012604004+46850+008200FM-12+047599999V0202801N000519999999N9999999N1+00001+99999101401ADDMA1999999095581MD1719999+9999OA149900311REMSYN076AAXX  26044 06657 33/// /2801 10000 2//// 39558 40140 57/// 333 91106 91203;
0128066570999992011012605004+46850+008200FM-12+047599999V0202001N000519999999N9999999N1-00071+99999101351ADDMA1999999095521MD1819999+9999OA149900261REMSYN076AAXX  26054 06657 33/// /2001 11007 2//// 39552 40135 58/// 333 91105 91203;
0128066570999992011012607004+46850+008200FM-12+047599999V0200501N001519999999N9999999N1+00021+99999101271ADDMA1999999095461MD1719999+9999OA149900211REMSYN076AAXX  26074 06657 33/// /0503 10002 2//// 39546 40127 57/// 333 91104 91203;
0128066570999992011012608004+46850+008200FM-12+047599999V0202801N001019999999N9999999N1-00051+99999101281ADDMA1999999095461MD1719999+9999OA149900461REMSYN076AAXX  26084 06657 33/// /2802 11005 2//// 39546 40128 57/// 333 91109 91204;
0128066570999992011012609004+46850+008200FM-12+047599999V0202401N001019999999N9999999N1-00011+99999101291ADDMA1999999095471MD1719999+9999OA149900461REMSYN076AAXX  26094 06657 33/// /2402 11001 2//// 39547 40129 57/// 333 91109 91204;
0128066570999992011012610004+46850+008200FM-12+047599999V0200701N000519999999N9999999N1+00121+99999101211ADDMA1999999095431MD1819999+9999OA149900151REMSYN076AAXX  26104 06657 33/// /0701 10012 2//// 39543 40121 58/// 333 91103 91202;
0128066570999992011012611004+46850+008200FM-12+047599999V0201901N000519999999N9999999N1+00201+99999101111ADDMA1999999095351MD1719999+9999OA149900151REMSYN076AAXX  26114 06657 33/// /1901 10020 2//// 39535 40111 57/// 333 91103 91202;
0128066570999992011012613004+46850+008200FM-12+047599999V0200101N000519999999N9999999N1+00381+99999100931ADDMA1999999095221MD1619999+9999OA149900311REMSYN076AAXX  26134 06657 33/// /0101 10038 2//// 39522 40093 56/// 333 91106 91205;
0087066570999992011012614004+46850+008200FM-12+047599999V0201701N000519999999N9999999N1+00311+99999100911ADDMA1999999095181REMSYN060AAXX  26144 06657 33/// /1701 10031 2//// 39518 40091 5////;
0128066570999992011012615004+46850+008200FM-12+047599999V0201901N001019999999N9999999N1+00281+99999100921ADDMA1999999095191MD1719999+9999OA149900311REMSYN076AAXX  26154 06657 33/// /1902 10028 2//// 39519 40092 57/// 333 91106 91205;
0128066570999992011012616004+46850+008200FM-12+047599999V0202401N001019999999N9999999N1+00061+99999100991ADDMA1999999095211MD1519999+9999OA149900151REMSYN076AAXX  26164 06657 33/// /2402 10006 2//// 39521 40099 55/// 333 91103 91203;
0128066570999992011012617004+46850+008200FM-12+047599999V0202301N000519999999N9999999N1-00101+99999101041ADDMA1999999095221MD1319999+9999OA149900211REMSYN076AAXX  26174 06657 33/// /2301 11010 2//// 39522 40104 53/// 333 91104 91203;
0128066570999992011012619004+46850+008200FM-12+047599999V0202601N001019999999N9999999N1-00301+99999101171ADDMA1999999095301MD1319999+9999OA149900151REMSYN076AAXX  26194 06657 33/// /2602 11030 2//// 39530 40117 53/// 333 91103 91202;
0128066570999992011012620004+46850+008200FM-12+047599999V0202301N000519999999N9999999N1-00311+99999101191ADDMA1999999095321MD1119999+9999OA149900151REMSYN076AAXX  26204 06657 33/// /2301 11031 2//// 39532 40119 51/// 333 91103 91202;
0128066570999992011012621004+46850+008200FM-12+047599999V0209999C000019999999N9999999N1-00341+99999101211ADDMA1999999095331MD1119999+9999OA149900211REMSYN076AAXX  26214 06657 33/// /0000 11034 2//// 39533 40121 51/// 333 91104 91203;
0128066570999992011012622004+46850+008200FM-12+047599999V0202601N000519999999N9999999N1-00451+99999101261ADDMA1999999095351MD1119999+9999OA149900101REMSYN076AAXX  26224 06657 33/// /2601 11045 2//// 39535 40126 51/// 333 91102 91202;
0128066570999992011012623004+46850+008200FM-12+047599999V0202701N000519999999N9999999N1-00501+99999101291ADDMA1999999095371MD1319999+9999OA149900151REMSYN076AAXX  26234 06657 33/// /2701 11050 2//// 39537 40129 53/// 333 91103 91202;
0128066570999992011012701004+46850+008200FM-12+047599999V0202501N000519999999N9999999N1-00481+99999101331ADDMA1999999095411MD1119999+9999OA149900151REMSYN076AAXX  27014 06657 33/// /2501 11048 2//// 39541 40133 51/// 333 91103 91202;
0128066570999992011012702004+46850+008200FM-12+047599999V0202401N000519999999N9999999N1-00551+99999101371ADDMA1999999095431MD1119999+9999OA149900151REMSYN076AAXX  27024 06657 33/// /2401 11055 2//// 39543 40137 51/// 333 91103 91202;
0128066570999992011012703004+46850+008200FM-12+047599999V0202501N000519999999N9999999N1-00481+99999101361ADDMA1999999095441MD1319999+9999OA149900151REMSYN076AAXX  27034 06657 33/// /2501 11048 2//// 39544 40136 53/// 333 91103 91202;
0128066570999992011012704004+46850+008200FM-12+047599999V0202701N000519999999N9999999N1-00371+99999101371ADDMA1999999095471MD1319999+9999OA149900151REMSYN076AAXX  27044 06657 33/// /2701 11037 2//// 39547 40137 53/// 333 91103 91202;
0128066570999992011012705004+46850+008200FM-12+047599999V0202701N000519999999N9999999N1-00351+99999101371ADDMA1999999095481MD1219999+9999OA149900101REMSYN076AAXX  27054 06657 33/// /2701 11035 2//// 39548 40137 52/// 333 91102 91201;
0128066570999992011012707004+46850+008200FM-12+047599999V0202401N001019999999N9999999N1-00241+99999101481ADDMA1999999095601MD1319999+9999OA149900151REMSYN076AAXX  27074 06657 33/// /2402 11024 2//// 39560 40148 53/// 333 91103 91202;
0128066570999992011012708004+46850+008200FM-12+047599999V0202701N000519999999N9999999N1-00161+99999101481ADDMA1999999095621MD1119999+9999OA149900151REMSYN076AAXX  27084 06657 33/// /2701 11016 2//// 39562 40148 51/// 333 91103 91202;
0140066570999992011012709004+46850+008200FM-12+047599999V0202101N001019999999N9999999N1-00071+99999101501ADDMA1999999095661MD1119999+9999OA149900151REMSYN088AAXX  27094 06657 33/// /2102 11007 2//// 39566 40150 51/// 333 553// 20216 91103 91202;
0140066570999992011012710004+46850+008200FM-12+047599999V0209999C000019999999N9999999N1-00011+99999101521ADDMA1999999095691MD1319999+9999OA149900101REMSYN088AAXX  27104 06657 33/// /0000 11001 2//// 39569 40152 53/// 333 553// 20421 91102 91202;
0140066570999992011012711004+46850+008200FM-12+047599999V0202501N001019999999N9999999N1+00061+99999101531ADDMA1999999095721MD1319999+9999OA149900101REMSYN088AAXX  27114 06657 33/// /2502 10006 2//// 39572 40153 53/// 333 553// 20464 91102 91202;
0140066570999992011012713004+46850+008200FM-12+047599999V0209999C000019999999N9999999N1+00181+99999101431ADDMA1999999095651MD1819999+9999OA149900211REMSYN088AAXX  27134 06657 33/// /0000 10018 2//// 39565 40143 58/// 333 553// 20662 91104 91203;
0140066570999992011012714004+46850+008200FM-12+047599999V0202501N001019999999N9999999N1+00181+99999101401ADDMA1999999095621MD1719999+9999OA149900211REMSYN088AAXX  27144 06657 33/// /2502 10018 2//// 39562 40140 57/// 333 553// 20511 91104 91202;
0140066570999992011012715004+46850+008200FM-12+047599999V0200901N000519999999N9999999N1+00191+99999101431ADDMA1999999095651MD1719999+9999OA149900211REMSYN088AAXX  27154 06657 33/// /0901 10019 2//// 39565 40143 57/// 333 553// 20256 91104 91203;
0140066570999992011012716004+46850+008200FM-12+047599999V0202301N001519999999N9999999N1+00151+99999101441ADDMA1999999095651MD1319999+9999OA149900151REMSYN088AAXX  27164 06657 33/// /2303 10015 2//// 39565 40144 53/// 333 553// 20065 91103 91202;
0140066570999992011012717004+46850+008200FM-12+047599999V0202001N001019999999N9999999N1+00141+99999101441ADDMA1999999095651MD1019999+9999OA149900261REMSYN088AAXX  27174 06657 33/// /2002 10014 2//// 39565 40144 50/// 333 553// 20000 91105 91203;
0140066570999992011012719004+46850+008200FM-12+047599999V0201701N003119999999N9999999N1+00141+99999101461ADDMA1999999095671MD1219999+9999OA149900461REMSYN088AAXX  27194 06657 33/// /1706 10014 2//// 39567 40146 52/// 333 553// 20000 91109 91206;
0140066570999992011012720004+46850+008200FM-12+047599999V0201001N000519999999N9999999N1+00111+99999101481ADDMA1999999095681MD1219999+9999OA149900621REMSYN088AAXX  27204 06657 33/// /1001 10011 2//// 39568 40148 52/// 333 553// 20000 91112 91208;
0140066570999992011012721004+46850+008200FM-12+047599999V0203001N000519999999N9999999N1+00051+99999101521ADDMA1999999095701MD1219999+9999OA149900621REMSYN088AAXX  27214 06657 33/// /3001 10005 2//// 39570 40152 52/// 333 553// 20000 91112 91208;
0140066570999992011012722004+46850+008200FM-12+047599999V0202601N001019999999N9999999N1+00031+99999101511ADDMA1999999095691MD1219999+9999OA149900151REMSYN088AAXX  27224 06657 33/// /2602 10003 2//// 39569 40151 52/// 333 553// 20000 91103 91202;
0140066570999992011012723004+46850+008200FM-12+047599999V0202701N000519999999N9999999N1+00031+99999101511ADDMA1999999095691MD1019999+9999OA149900101REMSYN088AAXX  27234 06657 33/// /2701 10003 2//// 39569 40151 50/// 333 553// 20000 91102 91202;
0140066570999992011012801004+46850+008200FM-12+047599999V0202701N000519999999N9999999N1-00051+99999101521ADDMA1999999095681MD1719999+9999OA149900101REMSYN088AAXX  28014 06657 33/// /2701 11005 2//// 39568 40152 57/// 333 553// 20000 91102 91201;
0140066570999992011012802004+46850+008200FM-12+047599999V0202201N001519999999N9999999N1-00041+99999101531ADDMA1999999095691MD1519999+9999OA149900211REMSYN088AAXX  28024 06657 33/// /2203 11004 2//// 39569 40153 55/// 333 553// 20000 91104 91203;
0140066570999992011012803004+46850+008200FM-12+047599999V0202201N002119999999N9999999N1-00031+99999101521ADDMA1999999095691MD1719999+9999OA149900261REMSYN088AAXX  28034 06657 33/// /2204 11003 2//// 39569 40152 57/// 333 553// 20000 91105 91203;
0140066570999992011012804004+46850+008200FM-12+047599999V0202201N002119999999N9999999N1-00101+99999101551ADDMA1999999095701MD1219999+9999OA149900311REMSYN088AAXX  28044 06657 33/// /2204 11010 2//// 39570 40155 52/// 333 553// 20000 91106 91204;
0140066570999992011012805004+46850+008200FM-12+047599999V0202101N001519999999N9999999N1-00101+99999101561ADDMA1999999095711MD1219999+9999OA149900361REMSYN088AAXX  28054 06657 33/// /2103 11010 2//// 39571 40156 52/// 333 553// 20000 91107 91205;
0140066570999992011012807004+46850+008200FM-12+047599999V0202401N001019999999N9999999N1-00091+99999101641ADDMA1999999095791MD1319999+9999OA149900361REMSYN088AAXX  28074 06657 33/// /2402 11009 2//// 39579 40164 53/// 333 553// 20000 91107 91204;
0140066570999992011012808004+46850+008200FM-12+047599999V0202601N000519999999N9999999N1-00061+99999101681ADDMA1999999095831MD1319999+9999OA149900261REMSYN088AAXX  28084 06657 33/// /2601 11006 2//// 39583 40168 53/// 333 553// 20025 91105 91203;
0140066570999992011012809004+46850+008200FM-12+047599999V0209999C000019999999N9999999N1+00021+99999101681ADDMA1999999095851MD1119999+9999OA149900361REMSYN088AAXX  28094 06657 33/// /0000 10002 2//// 39585 40168 51/// 333 553// 20198 91107 91205;
0140066570999992011012810004+46850+008200FM-12+047599999V0201901N000519999999N9999999N1+00071+99999101701ADDMA1999999095881MD1319999+9999OA149900151REMSYN088AAXX  28104 06657 33/// /1901 10007 2//// 39588 40170 53/// 333 553// 20382 91103 91202;
0140066570999992011012811004+46850+008200FM-12+047599999V0209999C000019999999N9999999N1+00131+99999101711ADDMA1999999095901MD1219999+9999OA149900151REMSYN088AAXX  28114 06657 33/// /0000 10013 2//// 39590 40171 52/// 333 553// 20493 91103 91202;
0140066570999992011012813004+46850+008200FM-12+047599999V0200901N001519999999N9999999N1+00201+99999101641ADDMA1999999095851MD1819999+9999OA149900261REMSYN088AAXX  28134 06657 33/// /0903 10020 2//// 39585 40164 58/// 333 553// 20900 91105 91203;
0140066570999992011012814004+46850+008200FM-12+047599999V0200701N002619999999N9999999N1+00201+99999101651ADDMA1999999095861MD1719999+9999OA149900311REMSYN088AAXX  28144 06657 33/// /0705 10020 2//// 39586 40165 57/// 333 553// 20587 91106 91203;
0140066570999992011012815004+46850+008200FM-12+047599999V0200501N002119999999N9999999N1+00191+99999101701ADDMA1999999095901MD1319999+9999OA149900411REMSYN088AAXX  28154 06657 33/// /0504 10019 2//// 39590 40170 53/// 333 553// 20220 91108 91205;
0140066570999992011012816004+46850+008200FM-12+047599999V0200701N001519999999N9999999N1+00171+99999101721ADDMA1999999095921MD1319999+9999OA149900411REMSYN088AAXX  28164 06657 33/// /0703 10017 2//// 39592 40172 53/// 333 553// 20133 91108 91205;
0140066570999992011012817004+46850+008200FM-12+047599999V0200801N002119999999N9999999N1+00151+99999101741ADDMA1999999095931MD1119999+9999OA149900411REMSYN088AAXX  28174 06657 33/// /0804 10015 2//// 39593 40174 51/// 333 553// 20004 91108 91204;
0140066570999992011012819004+46850+008200FM-12+047599999V0201001N001519999999N9999999N1+00111+99999101801ADDMA1999999095981MD1319999+9999OA149900361REMSYN088AAXX  28194 06657 33/// /1003 10011 2//// 39598 40180 53/// 333 553// 20000 91107 91204;
0140066570999992011012820004+46850+008200FM-12+047599999V0200601N001519999999N9999999N1+00111+99999101821ADDMA1999999096001MD1219999+9999OA149900361REMSYN088AAXX  28204 06657 33/// /0603 10011 2//// 39600 40182 52/// 333 553// 20000 91107 91204;
0140066570999992011012821004+46850+008200FM-12+047599999V0200601N001519999999N9999999N1+00091+99999101811ADDMA1999999095991MD1219999+9999OA149900411REMSYN088AAXX  28214 06657 33/// /0603 10009 2//// 39599 40181 52/// 333 553// 20000 91108 91204;
0140066570999992011012822004+46850+008200FM-12+047599999V0200501N001019999999N9999999N1+00071+99999101811ADDMA1999999095981MD1019999+9999OA149900311REMSYN088AAXX  28224 06657 33/// /0502 10007 2//// 39598 40181 50/// 333 553// 20000 91106 91204;
0140066570999992011012823004+46850+008200FM-12+047599999V0201301N000519999999N9999999N1+00011+99999101851ADDMA1999999096011MD1219999+9999OA149900311REMSYN088AAXX  28234 06657 33/// /1301 10001 2//// 39601 40185 52/// 333 553// 20000 91106 91203;
0140066570999992011012901004+46850+008200FM-12+047599999V0202101N001019999999N9999999N1-00061+99999101861ADDMA1999999096001MD1019999+9999OA149900261REMSYN088AAXX  29014 06657 33/// /2102 11006 2//// 39600 40186 50/// 333 553// 20000 91105 91203;
0140066570999992011012902004+46850+008200FM-12+047599999V0201801N000519999999N9999999N1-00131+99999101851ADDMA1999999095981MD1819999+9999OA149900261REMSYN088AAXX  29024 06657 33/// /1801 11013 2//// 39598 40185 58/// 333 553// 20000 91105 91203;
0140066570999992011012903004+46850+008200FM-12+047599999V0202501N000519999999N9999999N1-00141+99999101851ADDMA1999999095971MD1719999+9999OA149900311REMSYN088AAXX  29034 06657 33/// /2501 11014 2//// 39597 40185 57/// 333 553// 20000 91106 91203;
0140066570999992011012904004+46850+008200FM-12+047599999V0202001N000519999999N9999999N1-00121+99999101831ADDMA1999999095961MD1719999+9999OA149900151REMSYN088AAXX  29044 06657 33/// /2001 11012 2//// 39596 40183 57/// 333 553// 20000 91103 91202;
0140066570999992011012905004+46850+008200FM-12+047599999V0202101N000519999999N9999999N1-00231+99999101831ADDMA1999999095941MD1719999+9999OA149900151REMSYN088AAXX  29054 06657 33/// /2101 11023 2//// 39594 40183 57/// 333 553// 20000 91103 91202;
0140066570999992011012907004+46850+008200FM-12+047599999V0202801N000519999999N9999999N1-00371+99999101871ADDMA1999999095941MD1719999+9999OA149900151REMSYN088AAXX  29074 06657 33/// /2801 11037 2//// 39594 40187 57/// 333 553// 20000 91103 91202;
0140066570999992011012908004+46850+008200FM-12+047599999V0202301N000519999999N9999999N1-00311+99999101871ADDMA1999999095961MD1219999+9999OA149900151REMSYN088AAXX  29084 06657 33/// /2301 11031 2//// 39596 40187 52/// 333 553// 20079 91103 91202;
0140066570999992011012909004+46850+008200FM-12+047599999V0209999C000019999999N9999999N1-00181+99999101801ADDMA1999999095921MD1019999+9999OA149900151REMSYN088AAXX  29094 06657 33/// /0000 11018 2//// 39592 40180 50/// 333 553// 20364 91103 91202;
0140066570999992011012910004+46850+008200FM-12+047599999V0202501N000519999999N9999999N1-00131+99999101771ADDMA1999999095901MD1819999+9999OA149900151REMSYN088AAXX  29104 06657 33/// /2501 11013 2//// 39590 40177 58/// 333 553// 20490 91103 91202;
0140066570999992011012911004+46850+008200FM-12+047599999V0201901N000519999999N9999999N1+00001+99999101721ADDMA1999999095881MD1719999+9999OA149900101REMSYN088AAXX  29114 06657 33/// /1901 10000 2//// 39588 40172 57/// 333 553// 2//// 91102 91201;
0140066570999992011012913004+46850+008200FM-12+047599999V0200601N000519999999N9999999N1+00111+99999101571ADDMA1999999095761MD1719999+9999OA149900211REMSYN088AAXX  29134 06657 33/// /0601 10011 2//// 39576 40157 57/// 333 553// 2//// 91104 91202;
0140066570999992011012914004+46850+008200FM-12+047599999V0200801N000519999999N9999999N1+00181+99999101521ADDMA1999999095731MD1619999+9999OA149900151REMSYN088AAXX  29144 06657 33/// /0801 10018 2//// 39573 40152 56/// 333 553// 2//// 91103 91202;
0140066570999992011012915004+46850+008200FM-12+047599999V0200601N001019999999N9999999N1+00161+99999101501ADDMA1999999095711MD1619999+9999OA149900211REMSYN088AAXX  29154 06657 33/// /0602 10016 2//// 39571 40150 56/// 333 553// 20731 91104 91202;
0140066570999992011012916004+46850+008200FM-12+047599999V0201901N001019999999N9999999N1-00031+99999101541ADDMA1999999095711MD1619999+9999OA149900151REMSYN088AAXX  29164 06657 33/// /1902 11003 2//// 39571 40154 56/// 333 553// 20130 91103 91202;
0140066570999992011012917004+46850+008200FM-12+047599999V0202601N000519999999N9999999N1-00171+99999101601ADDMA1999999095731MD1519999+9999OA149900151REMSYN088AAXX  29174 06657 33/// /2601 11017 2//// 39573 40160 55/// 333 553// 20007 91103 91202;
0140066570999992011012919004+46850+008200FM-12+047599999V0202801N000519999999N9999999N1-00171+99999101621ADDMA1999999095751MD1219999+9999OA149900151REMSYN088AAXX  29194 06657 33/// /2801 11017 2//// 39575 40162 52/// 333 553// 20000 91103 91202;
0140066570999992011012920004+46850+008200FM-12+047599999V0202701N000519999999N9999999N1-00111+99999101601ADDMA1999999095751MD1019999+9999OA149900101REMSYN088AAXX  29204 06657 33/// /2701 11011 2//// 39575 40160 50/// 333 553// 20000 91102 91201;
0140066570999992011012921004+46850+008200FM-12+047599999V0202601N000519999999N9999999N1-00071+99999101601ADDMA1999999095751MD1410001+9999OA149900151REMSYN088AAXX  29214 06657 33/// /2601 11007 2//// 39575 40160 54/// 333 553// 20000 91103 91202;
0159066570999992011012922004+46850+008200FM-12+047599999V0201801N001519999999N9999999N1-00081+99999101591ADDMA1999999095741MD1410001+9999OA149999999REMSYN088AAXX  29224 06657 33/// /1803 11008 2//// 39574 40159 54/// 333 553// 20000 91102 91202;EQDQ01  00102WGOSPD
0140066570999992011012923004+46850+008200FM-12+047599999V0201701N001019999999N9999999N1-00091+99999101601ADDMA1999999095751MD1819999+9999OA149900211REMSYN088AAXX  29234 06657 33/// /1702 11009 2//// 39575 40160 58/// 333 553// 20000 91104 91203;
0140066570999992011013001004+46850+008200FM-12+047599999V0202101N001019999999N9999999N1-00121+99999101561ADDMA1999999095711MD1719999+9999OA149900211REMSYN088AAXX  30014 06657 33/// /2102 11012 2//// 39571 40156 57/// 333 553// 20000 91104 91203;
0140066570999992011013002004+46850+008200FM-12+047599999V0202301N001519999999N9999999N1-00131+99999101571ADDMA1999999095711MD1719999+9999OA149900211REMSYN088AAXX  30024 06657 33/// /2303 11013 2//// 39571 40157 57/// 333 553// 20000 91104 91203;
0140066570999992011013003004+46850+008200FM-12+047599999V0201901N000519999999N9999999N1-00141+99999101541ADDMA1999999095681MD1719999+9999OA149900261REMSYN088AAXX  30034 06657 33/// /1901 11014 2//// 39568 40154 57/// 333 553// 20000 91105 91203;
0140066570999992011013004004+46850+008200FM-12+047599999V0201801N001019999999N9999999N1-00151+99999101531ADDMA1999999095671MD1719999+9999OA149900261REMSYN088AAXX  30044 06657 33/// /1802 11015 2//// 39567 40153 57/// 333 553// 20000 91105 91203;
0140066570999992011013005004+46850+008200FM-12+047599999V0202101N000519999999N9999999N1-00151+99999101551ADDMA1999999095691MD1519999+9999OA149900211REMSYN088AAXX  30054 06657 33/// /2101 11015 2//// 39569 40155 55/// 333 553// 20000 91104 91202;
0140066570999992011013007004+46850+008200FM-12+047599999V0200501N001519999999N9999999N1-00151+99999101651ADDMA1999999095781MD1219999+9999OA149900261REMSYN088AAXX  30074 06657 33/// /0503 11015 2//// 39578 40165 52/// 333 553// 20000 91105 91203;
0140066570999992011013008004+46850+008200FM-12+047599999V0201101N001519999999N9999999N1-00171+99999101691ADDMA1999999095821MD1319999+9999OA149900261REMSYN088AAXX  30084 06657 33/// /1103 11017 2//// 39582 40169 53/// 333 553// 20004 91105 91203;
0140066570999992011013009004+46850+008200FM-12+047599999V0201501N001019999999N9999999N1-00161+99999101671ADDMA1999999095801MD1219999+9999OA149900261REMSYN088AAXX  30094 06657 33/// /1502 11016 2//// 39580 40167 52/// 333 553// 20090 91105 91203;
0140066570999992011013010004+46850+008200FM-12+047599999V0201901N001519999999N9999999N1-00151+99999101701ADDMA1999999095831MD1219999+9999OA149900261REMSYN088AAXX  30104 06657 33/// /1903 11015 2//// 39583 40170 52/// 333 553// 20194 91105 91203;
0140066570999992011013011004+46850+008200FM-12+047599999V0200201N001019999999N9999999N1-00111+99999101671ADDMA1999999095811MD1719999+9999OA149900261REMSYN088AAXX  30114 06657 33/// /0202 11011 2//// 39581 40167 57/// 333 553// 20367 91105 91203;
0140066570999992011013013004+46850+008200FM-12+047599999V0201101N001019999999N9999999N1-00111+99999101651ADDMA1999999095791MD1719999+9999OA149900311REMSYN088AAXX  30134 06657 33/// /1102 11011 2//// 39579 40165 57/// 333 553// 20252 91106 91203;
0140066570999992011013014004+46850+008200FM-12+047599999V0200501N001019999999N9999999N1-00091+99999101651ADDMA1999999095801MD1719999+9999OA149900311REMSYN088AAXX  30144 06657 33/// /0502 11009 2//// 39580 40165 57/// 333 553// 20230 91106 91203;
0140066570999992011013015004+46850+008200FM-12+047599999V0203601N001519999999N9999999N1-00091+99999101661ADDMA1999999095811MD1319999+9999OA149900311REMSYN088AAXX  30154 06657 33/// /3603 11009 2//// 39581 40166 53/// 333 553// 20148 91106 91203;
0140066570999992011013016004+46850+008200FM-12+047599999V0200701N001519999999N9999999N1-00101+99999101711ADDMA1999999095851MD1219999+9999OA149900311REMSYN088AAXX  30164 06657 33/// /0703 11010 2//// 39585 40171 52/// 333 553// 20036 91106 91203;
0140066570999992011013017004+46850+008200FM-12+047599999V0209999C000019999999N9999999N1-00101+99999101761ADDMA1999999095901MD1319999+9999OA149900311REMSYN088AAXX  30174 06657 33/// /0000 11010 2//// 39590 40176 53/// 333 553// 20000 91106 91203;
0140066570999992011013019004+46850+008200FM-12+047599999V0200701N001019999999N9999999N1-00101+99999101871ADDMA1999999096001MD1319999+9999OA149900151REMSYN088AAXX  30194 06657 33/// /0702 11010 2//// 39600 40187 53/// 333 553// 20000 91103 91202;
0140066570999992011013020004+46850+008200FM-12+047599999V0200501N001519999999N9999999N1-00111+99999101931ADDMA1999999096061MD1219999+9999OA149900411REMSYN088AAXX  30204 06657 33/// /0503 11011 2//// 39606 40193 52/// 333 553// 20000 91108 91204;
0140066570999992011013021004+46850+008200FM-12+047599999V0200401N002119999999N9999999N1-00111+99999101981ADDMA1999999096101MD1319999+9999OA149900411REMSYN088AAXX  30214 06657 33/// /0404 11011 2//// 39610 40198 53/// 333 553// 20000 91108 91204;
0140066570999992011013022004+46850+008200FM-12+047599999V0200601N002119999999N9999999N1-00121+99999102021ADDMA1999999096141MD1119999+9999OA149900411REMSYN088AAXX  30224 06657 33/// /0604 11012 2//// 39614 40202 51/// 333 553// 20000 91108 91205;
0140066570999992011013023004+46850+008200FM-12+047599999V0200401N001519999999N9999999N1-00141+99999102071ADDMA1999999096181MD1319999+9999OA149900411REMSYN088AAXX  30234 06657 33/// /0403 11014 2//// 39618 40207 53/// 333 553// 20000 91108 91205;
0140066570999992011013101004+46850+008200FM-12+047599999V0200901N001519999999N9999999N1-00151+99999102071ADDMA1999999096181MD1219999+9999OA149900361REMSYN088AAXX  31014 06657 33/// /0903 11015 2//// 39618 40207 52/// 333 553// 20000 91107 91204;
0140066570999992011013102004+46850+008200FM-12+047599999V0200601N001519999999N9999999N1-00141+99999102091ADDMA1999999096201MD1219999+9999OA149900361REMSYN088AAXX  31024 06657 33/// /0603 11014 2//// 39620 40209 52/// 333 553// 20000 91107 91204;
0140066570999992011013103004+46850+008200FM-12+047599999V0200601N001519999999N9999999N1-00151+99999102091ADDMA1999999096201MD1219999+9999OA149900411REMSYN088AAXX  31034 06657 33/// /0603 11015 2//// 39620 40209 52/// 333 553// 20000 91108 91205;
0140066570999992011013104004+46850+008200FM-12+047599999V0200701N001019999999N9999999N1-00171+99999102111ADDMA1999999096211MD1219999+9999OA149900311REMSYN088AAXX  31044 06657 33/// /0702 11017 2//// 39621 40211 52/// 333 553// 20000 91106 91203;
0140066570999992011013105004+46850+008200FM-12+047599999V0200501N001519999999N9999999N1-00151+99999102121ADDMA1999999096231MD1219999+9999OA149900311REMSYN088AAXX  31054 06657 33/// /0503 11015 2//// 39623 40212 52/// 333 553// 20000 91106 91203;
0140066570999992011013107004+46850+008200FM-12+047599999V0200701N001519999999N9999999N1-00161+99999102251ADDMA1999999096351MD1319999+9999OA149900361REMSYN088AAXX  31074 06657 33/// /0703 11016 2//// 39635 40225 53/// 333 553// 20000 91107 91204;
0140066570999992011013108004+46850+008200FM-12+047599999V0201301N001019999999N9999999N1-00171+99999102291ADDMA1999999096381MD1319999+9999OA149900361REMSYN088AAXX  31084 06657 33/// /1302 11017 2//// 39638 40229 53/// 333 553// 20004 91107 91204;
0140066570999992011013109004+46850+008200FM-12+047599999V0202001N001519999999N9999999N1-00171+99999102311ADDMA1999999096401MD1219999+9999OA149900361REMSYN088AAXX  31094 06657 33/// /2003 11017 2//// 39640 40231 52/// 333 553// 20112 91107 91204;
0140066570999992011013110004+46850+008200FM-12+047599999V0201001N000519999999N9999999N1-00141+99999102341ADDMA1999999096441MD1219999+9999OA149900261REMSYN088AAXX  31104 06657 33/// /1001 11014 2//// 39644 40234 52/// 333 553// 20270 91105 91203;
0140066570999992011013111004+46850+008200FM-12+047599999V0200601N001019999999N9999999N1-00131+99999102361ADDMA1999999096461MD1219999+9999OA149900261REMSYN088AAXX  31114 06657 33/// /0602 11013 2//// 39646 40236 52/// 333 553// 20292 91105 91203;
0140066570999992011013113004+46850+008200FM-12+047599999V0201601N001019999999N9999999N1-00111+99999102321ADDMA1999999096421MD1019999+9999OA149900261REMSYN088AAXX  31134 06657 33/// /1602 11011 2//// 39642 40232 50/// 333 553// 20378 91105 91203;
0140066570999992011013114004+46850+008200FM-12+047599999V0200801N001019999999N9999999N1-00081+99999102321ADDMA1999999096431MD1819999+9999OA149900261REMSYN088AAXX  31144 06657 33/// /0802 11008 2//// 39643 40232 58/// 333 553// 20356 91105 91203;
0140066570999992011013115004+46850+008200FM-12+047599999V0201001N001519999999N9999999N1-00101+99999102361ADDMA1999999096461MD1519999+9999OA149900261REMSYN088AAXX  31154 06657 33/// /1003 11010 2//// 39646 40236 55/// 333 553// 20180 91105 91203;
0140066570999992011013116004+46850+008200FM-12+047599999V0203301N000519999999N9999999N1-00101+99999102391ADDMA1999999096491MD1219999+9999OA149900261REMSYN088AAXX  31164 06657 33/// /3301 11010 2//// 39649 40239 52/// 333 553// 20065 91105 91203;
0140066570999992011013117004+46850+008200FM-12+047599999V0203201N000519999999N9999999N1-00111+99999102441ADDMA1999999096541MD1219999+9999OA149900261REMSYN088AAXX  31174 06657 33/// /3201 11011 2//// 39654 40244 52/// 333 553// 20000 91105 91203;
0140066570999992011013119004+46850+008200FM-12+047599999V0203401N000519999999N9999999N1-00121+99999102551ADDMA1999999096641MD1119999+9999OA149900211REMSYN088AAXX  31194 06657 33/// /3401 11012 2//// 39664 40255 51/// 333 553// 20000 91104 91202;
0140066570999992011013120004+46850+008200FM-12+047599999V0200401N001519999999N9999999N1-00121+99999102591ADDMA1999999096681MD1319999+9999OA149900261REMSYN088AAXX  31204 06657 33/// /0403 11012 2//// 39668 40259 53/// 333 553// 20000 91105 91203;
0140066570999992011013121004+46850+008200FM-12+047599999V0200801N001019999999N9999999N1-00131+99999102621ADDMA1999999096701MD1119999+9999OA149900311REMSYN088AAXX  31214 06657 33/// /0802 11013 2//// 39670 40262 51/// 333 553// 20000 91106 91203;
0140066570999992011013122004+46850+008200FM-12+047599999V0201401N000519999999N9999999N1-00151+99999102641ADDMA1999999096721MD1119999+9999OA149900311REMSYN088AAXX  31224 06657 33/// /1401 11015 2//// 39672 40264 51/// 333 553// 20000 91106 91203;
0140066570999992011013123004+46850+008200FM-12+047599999V0200601N000519999999N9999999N1-00161+99999102641ADDMA1999999096711MD1019999+9999OA149900261REMSYN088AAXX  31234 06657 33/// /0601 11016 2//// 39671 40264 50/// 333 553// 20000 91105 91202;
0140066570999992011020101004+46850+008200FM-12+047599999V0209999C000019999999N9999999N1-00171+99999102651ADDMA1999999096721MD1519999+9999OA149900261REMSYN088AAXX  01014 06657 33/// /0000 11017 2//// 39672 40265 55/// 333 553// 20000 91105 91202;
0140066570999992011020102004+46850+008200FM-12+047599999V0200801N001519999999N9999999N1-00171+99999102661ADDMA1999999096731MD1219999+9999OA149900311REMSYN088AAXX  01024 06657 33/// /0803 11017 2//// 39673 40266 52/// 333 553// 20000 91106 91202;
0140066570999992011020103004+46850+008200FM-12+047599999V0200801N001519999999N9999999N1-00171+99999102661ADDMA1999999096731MD1219999+9999OA149900361REMSYN088AAXX  01034 06657 33/// /0803 11017 2//// 39673 40266 52/// 333 553// 20000 91107 91204;
0140066570999992011020104004+46850+008200FM-12+047599999V0200701N000519999999N9999999N1-00181+99999102661ADDMA1999999096731MD1219999+9999OA149900361REMSYN088AAXX  01044 06657 33/// /0701 11018 2//// 39673 40266 52/// 333 553// 20000 91107 91204;
0140066570999992011020105004+46850+008200FM-12+047599999V0203401N000519999999N9999999N1-00191+99999102641ADDMA1999999096711MD1819999+9999OA149900311REMSYN088AAXX  01054 06657 33/// /3401 11019 2//// 39671 40264 58/// 333 553// 20000 91106 91204;
0140066570999992011020107004+46850+008200FM-12+047599999V0201501N000519999999N9999999N1-00191+99999102701ADDMA1999999096761MD1319999+9999OA149900311REMSYN088AAXX  01074 06657 33/// /1501 11019 2//// 39676 40270 53/// 333 553// 20000 91106 91203;
0140066570999992011020108004+46850+008200FM-12+047599999V0200701N001519999999N9999999N1-00171+99999102801ADDMA1999999096861MD1319999+9999OA149900261REMSYN088AAXX  01084 06657 33/// /0703 11017 2//// 39686 40280 53/// 333 553// 20007 91105 91202;
0140066570999992011020109004+46850+008200FM-12+047599999V0200801N001519999999N9999999N1-00181+99999102861ADDMA1999999096921MD1319999+9999OA149900311REMSYN088AAXX  01094 06657 33/// /0803 11018 2//// 39692 40286 53/// 333 553// 20086 91106 91204;
0140066570999992011020110004+46850+008200FM-12+047599999V0200201N000519999999N9999999N1-00171+99999102921ADDMA1999999096981MD1119999+9999OA149900311REMSYN088AAXX  01104 06657 33/// /0201 11017 2//// 39698 40292 51/// 333 553// 20166 91106 91204;
0140066570999992011020111004+46850+008200FM-12+047599999V0200401N001519999999N9999999N1-00151+99999102931ADDMA1999999096991MD1119999+9999OA149900261REMSYN088AAXX  01114 06657 33/// /0403 11015 2//// 39699 40293 51/// 333 553// 20281 91105 91203;
0140066570999992011020113004+46850+008200FM-12+047599999V0200501N001019999999N9999999N1-00081+99999102851ADDMA1999999096931MD1819999+9999OA149900261REMSYN088AAXX  01134 06657 33/// /0502 11008 2//// 39693 40285 58/// 333 553// 20540 91105 91203;
0140066570999992011020114004+46850+008200FM-12+047599999V0200701N001019999999N9999999N1-00071+99999102851ADDMA1999999096931MD1719999+9999OA149900261REMSYN088AAXX  01144 06657 33/// /0702 11007 2//// 39693 40285 57/// 333 553// 20432 91105 91203;
0140066570999992011020115004+46850+008200FM-12+047599999V0200601N001019999999N9999999N1-00061+99999102801ADDMA1999999096891MD1719999+9999OA149900261REMSYN088AAXX  01154 06657 33/// /0602 11006 2//// 39689 40280 57/// 333 553// 20266 91105 91203;
0140066570999992011020116004+46850+008200FM-12+047599999V0200901N001019999999N9999999N1-00061+99999102851ADDMA1999999096931MD1719999+9999OA149900261REMSYN088AAXX  01164 06657 33/// /0902 11006 2//// 39693 40285 57/// 333 553// 20104 91105 91203;
0140066570999992011020117004+46850+008200FM-12+047599999V0202801N000519999999N9999999N1-00071+99999102881ADDMA1999999096961MD1319999+9999OA149900211REMSYN088AAXX  01174 06657 33/// /2801 11007 2//// 39696 40288 53/// 333 553// 20000 91104 91202;
0140066570999992011020119004+46850+008200FM-12+047599999V0200501N001519999999N9999999N1-00091+99999103031ADDMA1999999097101MD1319999+9999OA149900261REMSYN088AAXX  01194 06657 33/// /0503 11009 2//// 39710 40303 53/// 333 553// 20000 91105 91203;
0140066570999992011020120004+46850+008200FM-12+047599999V0203601N001019999999N9999999N1-00101+99999103081ADDMA1999999097141MD1119999+9999OA149900261REMSYN088AAXX  01204 06657 33/// /3602 11010 2//// 39714 40308 51/// 333 553// 20000 91105 91203;
0140066570999992011020121004+46850+008200FM-12+047599999V0201101N000519999999N9999999N1-00121+99999103111ADDMA1999999097171MD1119999+9999OA149900311REMSYN088AAXX  01214 06657 33/// /1101 11012 2//// 39717 40311 51/// 333 553// 20000 91106 91203;
0140066570999992011020122004+46850+008200FM-12+047599999V0202201N001519999999N9999999N1-00151+99999103091ADDMA1999999097141MD1219999+9999OA149900311REMSYN088AAXX  01224 06657 33/// /2203 11015 2//// 39714 40309 52/// 333 553// 20000 91106 91203;
0140066570999992011020123004+46850+008200FM-12+047599999V0202101N000519999999N9999999N1-00151+99999103121ADDMA1999999097171MD1019999+9999OA149900261REMSYN088AAXX  01234 06657 33/// /2101 11015 2//// 39717 40312 50/// 333 553// 20000 91105 91203;
0087066570999992011020201004+46850+008200FM-12+047599999V0201601N001019999999N9999999N1-00181+99999103201ADDMA1999999097241REMSYN060AAXX  02014 06657 43/// /1602 11018 2//// 39724 40320 5////;
0087066570999992011020202004+46850+008200FM-12+047599999V0201201N000519999999N9999999N1-00171+99999103251ADDMA1999999097291REMSYN060AAXX  02024 06657 43/// /1201 11017 2//// 39729 40325 5////;
0087066570999992011020203004+46850+008200FM-12+047599999V0201201N001019999999N9999999N1-00191+99999103271ADDMA1999999097301REMSYN060AAXX  02034 06657 43/// /1202 11019 2//// 39730 40327 5////;
0087066570999992011020204004+46850+008200FM-12+047599999V0202001N001019999999N9999999N1-00211+99999103221ADDMA1999999097251REMSYN060AAXX  02044 06657 43/// /2002 11021 2//// 39725 40322 5////;
0087066570999992011020205004+46850+008200FM-12+047599999V0209999C000019999999N9999999N1-00211+99999103281ADDMA1999999097311REMSYN060AAXX  02054 06657 43/// /0000 11021 2//// 39731 40328 5////;
0087066570999992011020207004+46850+008200FM-12+047599999V0202501N001519999999N9999999N1-00241+99999103351ADDMA1999999097371REMSYN060AAXX  02074 06657 43/// /2503 11024 2//// 39737 40335 5////;
0140066570999992011020208004+46850+008200FM-12+047599999V0202101N001019999999N9999999N1-00251+99999103381ADDMA1999999097391MD1219999+9999OA149900261REMSYN088AAXX  02084 06657 33/// /2102 11025 2//// 39739 40338 52/// 333 553// 20014 91105 91204;
0140066570999992011020209004+46850+008200FM-12+047599999V0201901N000519999999N9999999N1-00251+99999103401ADDMA1999999097411MD1219999+9999OA149900261REMSYN088AAXX  02094 06657 33/// /1901 11025 2//// 39741 40340 52/// 333 553// 20173 91105 91204;
0140066570999992011020210004+46850+008200FM-12+047599999V0201101N001019999999N9999999N1-00231+99999103461ADDMA1999999097471MD1219999+9999OA149900261REMSYN088AAXX  02104 06657 33/// /1102 11023 2//// 39747 40346 52/// 333 553// 20212 91105 91203;
0140066570999992011020211004+46850+008200FM-12+047599999V0200801N000519999999N9999999N1-00201+99999103451ADDMA1999999097471MD1219999+9999OA149900311REMSYN088AAXX  02114 06657 33/// /0801 11020 2//// 39747 40345 52/// 333 553// 20270 91106 91203;
0140066570999992011020213004+46850+008200FM-12+047599999V0200301N000519999999N9999999N1-00141+99999103331ADDMA1999999097371MD1719999+9999OA149900311REMSYN088AAXX  02134 06657 33/// /0301 11014 2//// 39737 40333 57/// 333 553// 20950 91106 91203;
0103066570999992011020214004+46850+008200FM-12+047599999V0201401N000519999999N9999999N1-00151+99999103261ADDMA1999999097301REMSYN076AAXX  02144 06657 33/// /1401 11015 2//// 39730 40326 5//// 333 553// 20601;
0140066570999992011020215004+46850+008200FM-12+047599999V0202101N000519999999N9999999N1-00131+99999103311ADDMA1999999097351MD1719999+9999OA149900311REMSYN088AAXX  02154 06657 33/// /2101 11013 2//// 39735 40331 57/// 333 553// 20371 91106 91203;
0140066570999992011020216004+46850+008200FM-12+047599999V0203601N001019999999N9999999N1-00171+99999103261ADDMA1999999097301MD1719999+9999OA149900261REMSYN088AAXX  02164 06657 33/// /3602 11017 2//// 39730 40326 57/// 333 553// 20140 91105 91203;
0140066570999992011020217004+46850+008200FM-12+047599999V0201801N000519999999N9999999N1-00191+99999103321ADDMA1999999097351MD1219999+9999OA149900261REMSYN088AAXX  02174 06657 33/// /1801 11019 2//// 39735 40332 52/// 333 553// 20004 91105 91203;
0140066570999992011020219004+46850+008200FM-12+047599999V0202101N001019999999N9999999N1-00191+99999103401ADDMA1999999097421MD1219999+9999OA149900261REMSYN088AAXX  02194 06657 33/// /2102 11019 2//// 39742 40340 52/// 333 553// 20000 91105 91203;
0140066570999992011020220004+46850+008200FM-12+047599999V0202701N001019999999N9999999N1-00211+99999103421ADDMA1999999097441MD1219999+9999OA149900261REMSYN088AAXX  02204 06657 33/// /2702 11021 2//// 39744 40342 52/// 333 553// 20000 91105 91203;
0140066570999992011020221004+46850+008200FM-12+047599999V0202001N001019999999N9999999N1-00241+99999103381ADDMA1999999097391MD1719999+9999OA149900261REMSYN088AAXX  02214 06657 33/// /2002 11024 2//// 39739 40338 57/// 333 553// 20000 91105 91203;
0140066570999992011020222004+46850+008200FM-12+047599999V0201901N001019999999N9999999N1-00351+99999103381ADDMA1999999097371MD1819999+9999OA149900311REMSYN088AAXX  02224 06657 33/// /1902 11035 2//// 39737 40338 58/// 333 553// 20000 91106 91203;
0140066570999992011020223004+46850+008200FM-12+047599999V0202301N000519999999N9999999N1-00481+99999103391ADDMA1999999097351MD1619999+9999OA149900311REMSYN088AAXX  02234 06657 33/// /2301 11048 2//// 39735 40339 56/// 333 553// 20000 91106 91203;
0140066570999992011020301004+46850+008200FM-12+047599999V0202501N000519999999N9999999N1-00671+99999103431ADDMA1999999097351MD1719999+9999OA149900151REMSYN088AAXX  03014 06657 33/// /2501 11067 2//// 39735 40343 57/// 333 553// 20000 91103 91202;
0140066570999992011020302004+46850+008200FM-12+047599999V0202801N000519999999N9999999N1-00471+99999103411ADDMA1999999097371MD1219999+9999OA149900151REMSYN088AAXX  03024 06657 33/// /2801 11047 2//// 39737 40341 52/// 333 553// 20000 91103 91202;
0140066570999992011020303004+46850+008200FM-12+047599999V0209999C000019999999N9999999N1-00401+99999103371ADDMA1999999097351MD1219999+9999OA149900311REMSYN088AAXX  03034 06657 33/// /0000 11040 2//// 39735 40337 52/// 333 553// 20000 91106 91203;
0140066570999992011020304004+46850+008200FM-12+047599999V0202801N001019999999N9999999N1-00431+99999103391ADDMA1999999097361MD1019999+9999OA149900211REMSYN088AAXX  03044 06657 33/// /2802 11043 2//// 39736 40339 50/// 333 553// 20000 91104 91202;
0140066570999992011020305004+46850+008200FM-12+047599999V0202901N000519999999N9999999N1-00461+99999103381ADDMA1999999097351MD1719999+9999OA149900211REMSYN088AAXX  03054 06657 33/// /2901 11046 2//// 39735 40338 57/// 333 553// 20000 91104 91202;
0140066570999992011020307004+46850+008200FM-12+047599999V0201301N000519999999N9999999N1-00511+99999103451ADDMA1999999097401MD1219999+9999OA149900261REMSYN088AAXX  03074 06657 33/// /1301 11051 2//// 39740 40345 52/// 333 553// 20000 91105 91203;
0140066570999992011020308004+46850+008200FM-12+047599999V0202101N001019999999N9999999N1-00521+99999103521ADDMA1999999097461MD1219999+9999OA149900261REMSYN088AAXX  03084 06657 33/// /2102 11052 2//// 39746 40352 52/// 333 553// 20007 91105 91203;
0140066570999992011020309004+46850+008200FM-12+047599999V0202301N000519999999N9999999N1-00531+99999103511ADDMA1999999097451MD1219999+9999OA149900261REMSYN088AAXX  03094 06657 33/// /2301 11053 2//// 39745 40351 52/// 333 553// 20097 91105 91203;
0140066570999992011020310004+46850+008200FM-12+047599999V0201801N001019999999N9999999N1-00501+99999103531ADDMA1999999097481MD1219999+9999OA149900211REMSYN088AAXX  03104 06657 33/// /1802 11050 2//// 39748 40353 52/// 333 553// 20382 91104 91202;
0140066570999992011020311004+46850+008200FM-12+047599999V0201201N000519999999N9999999N1-00481+99999103561ADDMA1999999097511MD1319999+9999OA149900211REMSYN088AAXX  03114 06657 33/// /1201 11048 2//// 39751 40356 53/// 333 553// 20490 91104 91202;
0140066570999992011020312004+46850+008200FM-12+047599999V0201201N000519999999N9999999N1-00381+99999103471ADDMA1999999097451MD1019999+9999OA149900261REMSYN088AAXX  03124 06657 33/// /1201 11038 2//// 39745 40347 50/// 333 553// 20824 91105 91203;
0140066570999992011020313004+46850+008200FM-12+047599999V0200501N000519999999N9999999N1-00241+99999103401ADDMA1999999097411MD1819999+9999OA149900151REMSYN088AAXX  03134 06657 33/// /0501 11024 2//// 39741 40340 58/// 333 553// 2//// 91103 91202;
0140066570999992011020314004+46850+008200FM-12+047599999V0202201N001019999999N9999999N1-00071+99999103331ADDMA1999999097381MD1619999+9999OA149900151REMSYN088AAXX  03144 06657 33/// /2202 11007 2//// 39738 40333 56/// 333 553// 20871 91103 91202;
0140066570999992011020315004+46850+008200FM-12+047599999V0200301N000519999999N9999999N1+00011+99999103291ADDMA1999999097361MD1819999+9999OA149900211REMSYN088AAXX  03154 06657 33/// /0301 10001 2//// 39736 40329 58/// 333 553// 20443 91104 91202;
0140066570999992011020316004+46850+008200FM-12+047599999V0209999C000019999999N9999999N1+00021+99999103341ADDMA1999999097411MD1519999+9999OA149900151REMSYN088AAXX  03164 06657 33/// /0000 10002 2//// 39741 40334 55/// 333 553// 20144 91103 91202;
0140066570999992011020317004+46850+008200FM-12+047599999V0202701N000519999999N9999999N1+00001+99999103381ADDMA1999999097451MD1319999+9999OA149900151REMSYN088AAXX  03174 06657 33/// /2701 10000 2//// 39745 40338 53/// 333 553// 20007 91103 91201;
0159066570999992011020318004+46850+008200FM-12+047599999V0202801N001019999999N9999999N1+00021+99999103441ADDKA1120M+00021MA1999999097511MD1219999+9999OA149900261REMSYN094AAXX  03184 06657 33/// /2802 10002 2//// 39751 40344 52/// 333 10002 553// 20000 91105 91203;
0140066570999992011020319004+46850+008200FM-12+047599999V0201801N001019999999N9999999N1+00011+99999103401ADDMA1999999097471MD1219999+9999OA149900151REMSYN088AAXX  03194 06657 33/// /1802 10001 2//// 39747 40340 52/// 333 553// 20000 91103 91202;
0140066570999992011020320004+46850+008200FM-12+047599999V0201401N000519999999N9999999N1+00021+99999103401ADDMA1999999097471MD1019999+9999OA149900211REMSYN088AAXX  03204 06657 33/// /1401 10002 2//// 39747 40340 50/// 333 553// 20000 91104 91202;
0140066570999992011020321004+46850+008200FM-12+047599999V0202601N001519999999N9999999N1+00021+99999103431ADDMA1999999097501MD1519999+9999OA149900211REMSYN088AAXX  03214 06657 33/// /2603 10002 2//// 39750 40343 55/// 333 553// 20000 91104 91202;
0140066570999992011020322004+46850+008200FM-12+047599999V0202901N001019999999N9999999N1+00031+99999103361ADDMA1999999097431MD1819999+9999OA149900211REMSYN088AAXX  03224 06657 33/// /2902 10003 2//// 39743 40336 58/// 333 553// 20000 91104 91203;
0140066570999992011020323004+46850+008200FM-12+047599999V0202601N001019999999N9999999N1-00021+99999103411ADDMA1999999097471MD1819999+9999OA149900211REMSYN088AAXX  03234 06657 33/// /2602 11002 2//// 39747 40341 58/// 333 553// 20000 91104 91203;
0140066570999992011020400004+46850+008200FM-12+047599999V0201601N001519999999N9999999N1+00001+99999103421ADDMA1999999097481MD1519999+9999OA149900211REMSYN088AAXX  04004 06657 33/// /1603 10000 2//// 39748 40342 55/// 333 553// 20000 91104 91203;
0140066570999992011020401004+46850+008200FM-12+047599999V0209999C000019999999N9999999N1+00041+99999103411ADDMA1999999097481MD1019999+9999OA149900211REMSYN088AAXX  04014 06657 33/// /0000 10004 2//// 39748 40341 50/// 333 553// 20000 91104 91203;
0140066570999992011020402004+46850+008200FM-12+047599999V0202901N000519999999N9999999N1+00011+99999103361ADDMA1999999097431MD1819999+9999OA149900211REMSYN088AAXX  04024 06657 33/// /2901 10001 2//// 39743 40336 58/// 333 553// 20000 91104 91203;
0140066570999992011020403004+46850+008200FM-12+047599999V0202601N000519999999N9999999N1-00161+99999103421ADDMA1999999097451MD1719999+9999OA149900211REMSYN088AAXX  04034 06657 33/// /2601 11016 2//// 39745 40342 57/// 333 553// 20000 91104 91203;
0140066570999992011020404004+46850+008200FM-12+047599999V0202401N000519999999N9999999N1-00191+99999103351ADDMA1999999097381MD1719999+9999OA149900261REMSYN088AAXX  04044 06657 33/// /2401 11019 2//// 39738 40335 57/// 333 553// 20000 91105 91203;
0140066570999992011020405004+46850+008200FM-12+047599999V0201901N000519999999N9999999N1-00361+99999103521ADDMA1999999097501MD1319999+9999OA149900261REMSYN088AAXX  04054 06657 33/// /1901 11036 2//// 39750 40352 53/// 333 553// 20000 91105 91203;
0175066570999992011020406004+46850+008200FM-12+047599999V0202401N001019999999N9999999N1-00261+99999103501ADDAL19900091KA1999N-00361MA1999999097501MD1319999+9999OA149900261REMSYN100AAXX  04064 06657 33/// /2402 11026 2//// 39750 40350 53/// 333 21036 553// 20000 70000 91105 91203;
0140066570999992011020407004+46850+008200FM-12+047599999V0202901N001019999999N9999999N1-00321+99999103591ADDMA1999999097571MD1219999+9999OA149900211REMSYN088AAXX  04074 06657 33/// /2902 11032 2//// 39757 40359 52/// 333 553// 20000 91104 91203;
0140066570999992011020408004+46850+008200FM-12+047599999V0200701N000519999999N9999999N1-00201+99999103631ADDMA1999999097641MD1219999+9999OA149900151REMSYN088AAXX  04084 06657 33/// /0701 11020 2//// 39764 40363 52/// 333 553// 20108 91103 91203;
0140066570999992011020409004+46850+008200FM-12+047599999V0202901N000519999999N9999999N1-00121+99999103621ADDMA1999999097651MD1219999+9999OA149900261REMSYN088AAXX  04094 06657 33/// /2901 11012 2//// 39765 40362 52/// 333 553// 20252 91105 91203;
0140066570999992011020410004+46850+008200FM-12+047599999V0201901N001019999999N9999999N1+00141+99999103571ADDMA1999999097661MD1219999+9999OA149900261REMSYN088AAXX  04104 06657 33/// /1902 10014 2//// 39766 40357 52/// 333 553// 2//// 91105 91203;
0140066570999992011020411004+46850+008200FM-12+047599999V0200801N001019999999N9999999N1+00421+99999103431ADDMA1999999097581MD1019999+9999OA149900211REMSYN088AAXX  04114 06657 33/// /0802 10042 2//// 39758 40343 50/// 333 553// 2//// 91104 91202;
0140066570999992011020412004+46850+008200FM-12+047599999V0202501N001019999999N9999999N1+00601+99999103331ADDMA1999999097531MD1819999+9999OA149900311REMSYN088AAXX  04124 06657 33/// /2502 10060 2//// 39753 40333 58/// 333 553// 2//// 91106 91203;
0140066570999992011020413004+46850+008200FM-12+047599999V0202301N001519999999N9999999N1+00731+99999103251ADDMA1999999097481MD1719999+9999OA149900311REMSYN088AAXX  04134 06657 33/// /2303 10073 2//// 39748 40325 57/// 333 553// 2//// 91106 91203;
0140066570999992011020414004+46850+008200FM-12+047599999V0201501N001519999999N9999999N1+00831+99999103151ADDMA1999999097401MD1719999+9999OA149900311REMSYN088AAXX  04144 06657 33/// /1503 10083 2//// 39740 40315 57/// 333 553// 2//// 91106 91203;
0140066570999992011020415004+46850+008200FM-12+047599999V0201301N000519999999N9999999N1+00761+99999103171ADDMA1999999097411MD1719999+9999OA149900311REMSYN088AAXX  04154 06657 33/// /1301 10076 2//// 39741 40317 57/// 333 553// 20853 91106 91203;
0140066570999992011020416004+46850+008200FM-12+047599999V0202201N001519999999N9999999N1+00581+99999103301ADDMA1999999097491MD1519999+9999OA149900311REMSYN088AAXX  04164 06657 33/// /2203 10058 2//// 39749 40330 55/// 333 553// 20252 91106 91203;
0140066570999992011020417004+46850+008200FM-12+047599999V0202501N001019999999N9999999N1+00371+99999103421ADDMA1999999097561MD1219999+9999OA149900311REMSYN088AAXX  04174 06657 33/// /2502 10037 2//// 39756 40342 52/// 333 553// 20029 91106 91203;
0159066570999992011020418004+46850+008200FM-12+047599999V0201801N001019999999N9999999N1+00311+99999103451ADDKA1120M+00841MA1999999097581MD1219999+9999OA149900311REMSYN094AAXX  04184 06657 33/// /1802 10031 2//// 39758 40345 52/// 333 10084 553// 20000 91106 91203;
0140066570999992011020419004+46850+008200FM-12+047599999V0203001N001019999999N9999999N1+00231+99999103461ADDMA1999999097571MD1219999+9999OA149900261REMSYN088AAXX  04194 06657 33/// /3002 10023 2//// 39757 40346 52/// 333 553// 20000 91105 91203;
0140066570999992011020420004+46850+008200FM-12+047599999V0202701N000519999999N9999999N1-00051+99999103481ADDMA1999999097531MD1219999+9999OA149900261REMSYN088AAXX  04204 06657 33/// /2701 11005 2//// 39753 40348 52/// 333 553// 20000 91105 91203;
0140066570999992011020421004+46850+008200FM-12+047599999V0203201N000519999999N9999999N1-00101+99999103501ADDMA1999999097541MD1719999+9999OA149900311REMSYN088AAXX  04214 06657 33/// /3201 11010 2//// 39754 40350 57/// 333 553// 20000 91106 91203;
0140066570999992011020422004+46850+008200FM-12+047599999V0202101N000519999999N9999999N1-00181+99999103551ADDMA1999999097571MD1519999+9999OA149900261REMSYN088AAXX  04224 06657 33/// /2101 11018 2//// 39757 40355 55/// 333 553// 20000 91105 91203;
0140066570999992011020423004+46850+008200FM-12+047599999V0201901N000519999999N9999999N1-00181+99999103541ADDMA1999999097561MD1219999+9999OA149900151REMSYN088AAXX  04234 06657 33/// /1901 11018 2//// 39756 40354 52/// 333 553// 20000 91103 91203;
0140066570999992011020500004+46850+008200FM-12+047599999V0202301N001519999999N9999999N1-00201+99999103671ADDMA1999999097681MD1219999+9999OA149900311REMSYN088AAXX  05004 06657 33/// /2303 11020 2//// 39768 40367 52/// 333 553// 20000 91106 91203;
0140066570999992011020501004+46850+008200FM-12+047599999V0200801N000519999999N9999999N1-00161+99999103631ADDMA1999999097651MD1219999+9999OA149900311REMSYN088AAXX  05014 06657 33/// /0801 11016 2//// 39765 40363 52/// 333 553// 20000 91106 91203;
0140066570999992011020502004+46850+008200FM-12+047599999V0202501N001519999999N9999999N1-00231+99999103691ADDMA1999999097691MD1219999+9999OA149900311REMSYN088AAXX  05024 06657 33/// /2503 11023 2//// 39769 40369 52/// 333 553// 20000 91106 91203;
0140066570999992011020503004+46850+008200FM-12+047599999V0201701N000519999999N9999999N1-00271+99999103621ADDMA1999999097611MD1719999+9999OA149900311REMSYN088AAXX  05034 06657 33/// /1701 11027 2//// 39761 40362 57/// 333 553// 20000 91106 91203;
0140066570999992011020504004+46850+008200FM-12+047599999V0202401N000519999999N9999999N1-00311+99999103591ADDMA1999999097581MD1819999+9999OA149900261REMSYN088AAXX  05044 06657 33/// /2401 11031 2//// 39758 40359 58/// 333 553// 20000 91105 91203;
0140066570999992011020505004+46850+008200FM-12+047599999V0202701N001019999999N9999999N1-00411+99999103601ADDMA1999999097561MD1619999+9999OA149900151REMSYN088AAXX  05054 06657 33/// /2702 11041 2//// 39756 40360 56/// 333 553// 20000 91103 91202;
0175066570999992011020506004+46850+008200FM-12+047599999V0202101N002119999999N9999999N1-00231+99999103661ADDAL19900091KA1999N-00441MA1999999097661MD1319999+9999OA149900311REMSYN100AAXX  05064 06657 33/// /2104 11023 2//// 39766 40366 53/// 333 21044 553// 20000 70000 91106 91203;
0140066570999992011020507004+46850+008200FM-12+047599999V0202301N000519999999N9999999N1-00401+99999103761ADDMA1999999097721MD1319999+9999OA149900261REMSYN088AAXX  05074 06657 33/// /2301 11040 2//// 39772 40376 53/// 333 553// 20000 91105 91204;
0140066570999992011020508004+46850+008200FM-12+047599999V0203001N001019999999N9999999N1-00331+99999103791ADDMA1999999097761MD1219999+9999OA149900261REMSYN088AAXX  05084 06657 33/// /3002 11033 2//// 39776 40379 52/// 333 553// 20058 91105 91204;
0140066570999992011020509004+46850+008200FM-12+047599999V0202401N000519999999N9999999N1-00221+99999103751ADDMA1999999097751MD1219999+9999OA149900261REMSYN088AAXX  05094 06657 33/// /2401 11022 2//// 39775 40375 52/// 333 553// 20180 91105 91204;
0140066570999992011020510004+46850+008200FM-12+047599999V0202401N000519999999N9999999N1+00131+99999103661ADDMA1999999097741MD1219999+9999OA149900211REMSYN088AAXX  05104 06657 33/// /2401 10013 2//// 39774 40366 52/// 333 553// 20886 91104 91203;
0140066570999992011020511004+46850+008200FM-12+047599999V0201301N000519999999N9999999N1+00401+99999103501ADDMA1999999097641MD1719999+9999OA149900211REMSYN088AAXX  05114 06657 33/// /1301 10040 2//// 39764 40350 57/// 333 553// 2//// 91104 91203;
0140066570999992011020512004+46850+008200FM-12+047599999V0201101N000519999999N9999999N1+00521+99999103401ADDMA1999999097581MD1719999+9999OA149900311REMSYN088AAXX  05124 06657 33/// /1101 10052 2//// 39758 40340 57/// 333 553// 2//// 91106 91204;
0140066570999992011020513004+46850+008200FM-12+047599999V0202001N000519999999N9999999N1+00761+99999103241ADDMA1999999097471MD1719999+9999OA149900151REMSYN088AAXX  05134 06657 33/// /2001 10076 2//// 39747 40324 57/// 333 553// 2//// 91103 91202;
0140066570999992011020514004+46850+008200FM-12+047599999V0201201N001019999999N9999999N1+00831+99999103201ADDMA1999999097451MD1619999+9999OA149900151REMSYN088AAXX  05144 06657 33/// /1202 10083 2//// 39745 40320 56/// 333 553// 2//// 91103 91202;
0140066570999992011020515004+46850+008200FM-12+047599999V0201901N001019999999N9999999N1+00801+99999103221ADDMA1999999097461MD1719999+9999OA149900211REMSYN088AAXX  05154 06657 33/// /1902 10080 2//// 39746 40322 57/// 333 553// 20936 91104 91203;
0140066570999992011020516004+46850+008200FM-12+047599999V0202301N001019999999N9999999N1+00311+99999103311ADDMA1999999097451MD1719999+9999OA149900261REMSYN088AAXX  05164 06657 33/// /2302 10031 2//// 39745 40331 57/// 333 553// 20223 91105 91204;
0140066570999992011020517004+46850+008200FM-12+047599999V0202701N001019999999N9999999N1-00021+99999103471ADDMA1999999097531MD1319999+9999OA149900261REMSYN088AAXX  05174 06657 33/// /2702 11002 2//// 39753 40347 53/// 333 553// 20022 91105 91204;
0159066570999992011020518004+46850+008200FM-12+047599999V0202701N000519999999N9999999N1-00071+99999103471ADDKA1120M+00871MA1999999097521MD1219999+9999OA149900261REMSYN094AAXX  05184 06657 33/// /2701 11007 2//// 39752 40347 52/// 333 10087 553// 20000 91105 91204;
0140066570999992011020519004+46850+008200FM-12+047599999V0202301N000519999999N9999999N1-00071+99999103501ADDMA1999999097541MD1019999+9999OA149900211REMSYN088AAXX  05194 06657 33/// /2301 11007 2//// 39754 40350 50/// 333 553// 20000 91104 91203;
0140066570999992011020520004+46850+008200FM-12+047599999V0202601N001019999999N9999999N1-00221+99999103551ADDMA1999999097561MD1219999+9999OA149900151REMSYN088AAXX  05204 06657 33/// /2602 11022 2//// 39756 40355 52/// 333 553// 20000 91103 91202;
0140066570999992011020521004+46850+008200FM-12+047599999V0202501N000519999999N9999999N1-00251+99999103581ADDMA1999999097581MD1219999+9999OA149900261REMSYN088AAXX  05214 06657 33/// /2501 11025 2//// 39758 40358 52/// 333 553// 20000 91105 91204;
0140066570999992011020522004+46850+008200FM-12+047599999V0203301N000519999999N9999999N1-00301+99999103591ADDMA1999999097581MD1219999+9999OA149900211REMSYN088AAXX  05224 06657 33/// /3301 11030 2//// 39758 40359 52/// 333 553// 20000 91104 91202;
0140066570999992011020523004+46850+008200FM-12+047599999V0202401N000519999999N9999999N1-00301+99999103601ADDMA1999999097591MD1019999+9999OA149900211REMSYN088AAXX  05234 06657 33/// /2401 11030 2//// 39759 40360 50/// 333 553// 20000 91104 91202;
0140066570999992011020600004+46850+008200FM-12+047599999V0202501N000519999999N9999999N1-00411+99999103641ADDMA1999999097601MD1519999+9999OA149900261REMSYN088AAXX  06004 06657 33/// /2501 11041 2//// 39760 40364 55/// 333 553// 20000 91105 91204;
0140066570999992011020601004+46850+008200FM-12+047599999V0202601N001019999999N9999999N1-00391+99999103651ADDMA1999999097621MD1219999+9999OA149900151REMSYN088AAXX  06014 06657 33/// /2602 11039 2//// 39762 40365 52/// 333 553// 20000 91103 91202;
0140066570999992011020602004+46850+008200FM-12+047599999V0202701N001019999999N9999999N1-00431+99999103661ADDMA1999999097621MD1119999+9999OA149900151REMSYN088AAXX  06024 06657 33/// /2702 11043 2//// 39762 40366 51/// 333 553// 20000 91103 91202;
0140066570999992011020603004+46850+008200FM-12+047599999V0202501N000519999999N9999999N1-00401+99999103601ADDMA1999999097571MD1819999+9999OA149900211REMSYN088AAXX  06034 06657 33/// /2501 11040 2//// 39757 40360 58/// 333 553// 20000 91104 91202;
0140066570999992011020604004+46850+008200FM-12+047599999V0202701N000519999999N9999999N1-00381+99999103611ADDMA1999999097581MD1719999+9999OA149900211REMSYN088AAXX  06044 06657 33/// /2701 11038 2//// 39758 40361 57/// 333 553// 20000 91104 91202;
0140066570999992011020605004+46850+008200FM-12+047599999V0202301N001019999999N9999999N1-00421+99999103621ADDMA1999999097581MD1519999+9999OA149900151REMSYN088AAXX  06054 06657 33/// /2302 11042 2//// 39758 40362 55/// 333 553// 20000 91103 91202;
0175066570999992011020606004+46850+008200FM-12+047599999V0209999C000019999999N9999999N1-00441+99999103571ADDAL19900091KA1999N-00471MA1999999097531MD1719999+9999OA149900211REMSYN100AAXX  06064 06657 33/// /0000 11044 2//// 39753 40357 57/// 333 21047 553// 20000 70000 91104 91202;
0140066570999992011020607004+46850+008200FM-12+047599999V0202401N001019999999N9999999N1-00491+99999103651ADDMA1999999097591MD1519999+9999OA149900151REMSYN088AAXX  06074 06657 33/// /2402 11049 2//// 39759 40365 55/// 333 553// 20004 91103 91202;
0140066570999992011020608004+46850+008200FM-12+047599999V0202501N001019999999N9999999N1-00341+99999103641ADDMA1999999097621MD1319999+9999OA149900151REMSYN088AAXX  06084 06657 33/// /2502 11034 2//// 39762 40364 53/// 333 553// 20094 91103 91202;
0140066570999992011020609004+46850+008200FM-12+047599999V0209999C000019999999N9999999N1-00211+99999103561ADDMA1999999097571MD1019999+9999OA149900151REMSYN088AAXX  06094 06657 33/// /0000 11021 2//// 39757 40356 50/// 333 553// 20281 91103 91202;
0140066570999992011020610004+46850+008200FM-12+047599999V0201401N000519999999N9999999N1+00131+99999103461ADDMA1999999097551MD1819999+9999OA149900101REMSYN088AAXX  06104 06657 33/// /1401 10013 2//// 39755 40346 58/// 333 553// 2//// 91102 91202;
0140066570999992011020611004+46850+008200FM-12+047599999V0201201N001019999999N9999999N1+00381+99999103351ADDMA1999999097501MD1619999+9999OA149900151REMSYN088AAXX  06114 06657 33/// /1202 10038 2//// 39750 40335 56/// 333 553// 2//// 91103 91201;
0140066570999992011020612004+46850+008200FM-12+047599999V0201401N000519999999N9999999N1+00741+99999103141ADDMA1999999097381MD1819999+9999OA149900211REMSYN088AAXX  06124 06657 33/// /1401 10074 2//// 39738 40314 58/// 333 553// 2//// 91104 91202;
0140066570999992011020613004+46850+008200FM-12+047599999V0200501N000519999999N9999999N1+00841+99999103051ADDMA1999999097311MD1819999+9999OA149900151REMSYN088AAXX  06134 06657 33/// /0501 10084 2//// 39731 40305 58/// 333 553// 2//// 91103 91202;
0140066570999992011020614004+46850+008200FM-12+047599999V0200701N000519999999N9999999N1+00971+99999102971ADDMA1999999097261MD1619999+9999OA149900151REMSYN088AAXX  06144 06657 33/// /0701 10097 2//// 39726 40297 56/// 333 553// 2//// 91103 91202;
0140066570999992011020615004+46850+008200FM-12+047599999V0209999C000019999999N9999999N1+00951+99999102941ADDMA1999999097231MD1619999+9999OA149900151REMSYN088AAXX  06154 06657 33/// /0000 10095 2//// 39723 40294 56/// 333 553// 20914 91103 91202;
0140066570999992011020616004+46850+008200FM-12+047599999V0202201N001019999999N9999999N1+00291+99999103071ADDMA1999999097221MD1619999+9999OA149900151REMSYN088AAXX  06164 06657 33/// /2202 10029 2//// 39722 40307 56/// 333 553// 20227 91103 91202;
0140066570999992011020617004+46850+008200FM-12+047599999V0202601N001019999999N9999999N1+00081+99999103141ADDMA1999999097241MD1719999+9999OA149900151REMSYN088AAXX  06174 06657 33/// /2602 10008 2//// 39724 40314 57/// 333 553// 20025 91103 91202;
0159066570999992011020618004+46850+008200FM-12+047599999V0202501N000519999999N9999999N1-00071+99999103191ADDKA1120M+00971MA1999999097251MD1519999+9999OA149900151REMSYN094AAXX  06184 06657 33/// /2501 11007 2//// 39725 40319 55/// 333 10097 553// 20000 91103 91202;
0140066570999992011020619004+46850+008200FM-12+047599999V0202301N000519999999N9999999N1-00131+99999103211ADDMA1999999097261MD1119999+9999OA149900151REMSYN088AAXX  06194 06657 33/// /2301 11013 2//// 39726 40321 51/// 333 553// 20000 91103 91202;
0140066570999992011020620004+46850+008200FM-12+047599999V0209999C000019999999N9999999N1-00181+99999103201ADDMA1999999097241MD1019999+9999OA149900151REMSYN088AAXX  06204 06657 33/// /0000 11018 2//// 39724 40320 50/// 333 553// 20000 91103 91202;
0140066570999992011020621004+46850+008200FM-12+047599999V0209999C000019999999N9999999N1-00231+99999103211ADDMA1999999097241MD1819999+9999OA149900151REMSYN088AAXX  06214 06657 33/// /0000 11023 2//// 39724 40321 58/// 333 553// 20000 91103 91202;
0140066570999992011020622004+46850+008200FM-12+047599999V0202201N000519999999N9999999N1-00271+99999103221ADDMA1999999097241MD1519999+9999OA149900151REMSYN088AAXX  06224 06657 33/// /2201 11027 2//// 39724 40322 55/// 333 553// 20000 91103 91202;
0140066570999992011020623004+46850+008200FM-12+047599999V0202401N000519999999N9999999N1-00391+99999103211ADDMA1999999097201MD1819999+9999OA149900151REMSYN088AAXX  06234 06657 33/// /2401 11039 2//// 39720 40321 58/// 333 553// 20000 91103 91202;
0140066570999992011020700004+46850+008200FM-12+047599999V0202701N000519999999N9999999N1-00381+99999103221ADDMA1999999097211MD1719999+9999OA149900151REMSYN088AAXX  07004 06657 33/// /2701 11038 2//// 39721 40322 57/// 333 553// 20000 91103 91202;
0140066570999992011020701004+46850+008200FM-12+047599999V0202601N000519999999N9999999N1-00431+99999103221ADDMA1999999097201MD1719999+9999OA149900151REMSYN088AAXX  07014 06657 33/// /2601 11043 2//// 39720 40322 57/// 333 553// 20000 91103 91202;
0140066570999992011020702004+46850+008200FM-12+047599999V0202401N001019999999N9999999N1-00421+99999103231ADDMA1999999097211MD1219999+9999OA149900151REMSYN088AAXX  07024 06657 33/// /2402 11042 2//// 39721 40323 52/// 333 553// 20000 91103 91202;
0140066570999992011020703004+46850+008200FM-12+047599999V0202701N000519999999N9999999N1-00501+99999103221ADDMA1999999097191MD1719999+9999OA149900151REMSYN088AAXX  07034 06657 33/// /2701 11050 2//// 39719 40322 57/// 333 553// 20000 91103 91202;
0140066570999992011020704004+46850+008200FM-12+047599999V0202601N001019999999N9999999N1-00521+99999103241ADDMA1999999097201MD1410001+9999OA149900101REMSYN088AAXX  07044 06657 33/// /2602 11052 2//// 39720 40324 54/// 333 553// 20000 91102 91202;
0140066570999992011020705004+46850+008200FM-12+047599999V0202301N001019999999N9999999N1-00511+99999103201ADDMA1999999097171MD1719999+9999OA149900151REMSYN088AAXX  07054 06657 33/// /2302 11051 2//// 39717 40320 57/// 333 553// 20000 91103 91202;
0175066570999992011020706004+46850+008200FM-12+047599999V0202001N000519999999N9999999N1-00451+99999103111ADDAL19900091KA1999N-00541MA1999999097091MD1819999+9999OA149900151REMSYN100AAXX  07064 06657 33/// /2001 11045 2//// 39709 40311 58/// 333 21054 553// 20000 70000 91103 91202;
0140066570999992011020707004+46850+008200FM-12+047599999V0202501N001019999999N9999999N1-00511+99999103101ADDMA1999999097071MD1719999+9999OA149900151REMSYN088AAXX  07074 06657 33/// /2502 11051 2//// 39707 40310 57/// 333 553// 20004 91103 91202;
0140066570999992011020708004+46850+008200FM-12+047599999V0209999C000019999999N9999999N1-00431+99999103051ADDMA1999999097041MD1719999+9999OA149900151REMSYN088AAXX  07084 06657 33/// /0000 11043 2//// 39704 40305 57/// 333 553// 20054 91103 91202;
0140066570999992011020709004+46850+008200FM-12+047599999V0202301N000519999999N9999999N1-00311+99999102981ADDMA1999999097001MD1719999+9999OA149900151REMSYN088AAXX  07094 06657 33/// /2301 11031 2//// 39700 40298 57/// 333 553// 20194 91103 91202;
0140066570999992011020710004+46850+008200FM-12+047599999V0201701N000519999999N9999999N1+00181+99999102871ADDMA1999999097001MD1719999+9999OA149900101REMSYN088AAXX  07104 06657 33/// /1701 10018 2//// 39700 40287 57/// 333 553// 2//// 91102 91201;
0140066570999992011020711004+46850+008200FM-12+047599999V0201801N000519999999N9999999N1+00621+99999102741ADDMA1999999096971MD1519999+9999OA149900151REMSYN088AAXX  07114 06657 33/// /1801 10062 2//// 39697 40274 55/// 333 553// 2//// 91103 91202;
0140066570999992011020712004+46850+008200FM-12+047599999V0200801N001019999999N9999999N1+00821+99999102561ADDMA1999999096841MD1819999+9999OA149900151REMSYN088AAXX  07124 06657 33/// /0802 10082 2//// 39684 40256 58/// 333 553// 2//// 91103 91202;
0140066570999992011020713004+46850+008200FM-12+047599999V0201001N000519999999N9999999N1+00961+99999102481ADDMA1999999096801MD1719999+9999OA149900211REMSYN088AAXX  07134 06657 33/// /1001 10096 2//// 39680 40248 57/// 333 553// 2//// 91104 91202;
0140066570999992011020714004+46850+008200FM-12+047599999V0201801N000519999999N9999999N1+01121+99999102411ADDMA1999999096761MD1619999+9999OA149900211REMSYN088AAXX  07144 06657 33/// /1801 10112 2//// 39676 40241 56/// 333 553// 2//// 91104 91202;
0140066570999992011020715004+46850+008200FM-12+047599999V0201301N000519999999N9999999N1+01091+99999102361ADDMA1999999096711MD1819999+9999OA149900211REMSYN088AAXX  07154 06657 33/// /1301 10109 2//// 39671 40236 58/// 333 553// 2//// 91104 91202;
0140066570999992011020716004+46850+008200FM-12+047599999V0202101N001019999999N9999999N1+00471+99999102491ADDMA1999999096711MD1719999+9999OA149900151REMSYN088AAXX  07164 06657 33/// /2102 10047 2//// 39671 40249 57/// 333 553// 20256 91103 91202;
0140066570999992011020717004+46850+008200FM-12+047599999V0202601N001519999999N9999999N1+00221+99999102571ADDMA1999999096731MD1519999+9999OA149900261REMSYN088AAXX  07174 06657 33/// /2603 10022 2//// 39673 40257 55/// 333 553// 20014 91105 91203;
0159066570999992011020718004+46850+008200FM-12+047599999V0202601N000519999999N9999999N1-00021+99999102621ADDKA1120M+01161MA1999999096731MD1319999+9999OA149900261REMSYN094AAXX  07184 06657 33/// /2601 11002 2//// 39673 40262 53/// 333 10116 553// 20000 91105 91203;
0140066570999992011020719004+46850+008200FM-12+047599999V0202201N000519999999N9999999N1-00171+99999102631ADDMA1999999096701MD1019999+9999OA149900211REMSYN088AAXX  07194 06657 33/// /2201 11017 2//// 39670 40263 50/// 333 553// 20000 91104 91203;
0140066570999992011020720004+46850+008200FM-12+047599999V0202601N001019999999N9999999N1-00121+99999102591ADDMA1999999096681MD1719999+9999OA149900151REMSYN088AAXX  07204 06657 33/// /2602 11012 2//// 39668 40259 57/// 333 553// 20000 91103 91201;
0140066570999992011020721004+46850+008200FM-12+047599999V0202201N000519999999N9999999N1-00181+99999102631ADDMA1999999096701MD1719999+9999OA149900261REMSYN088AAXX  07214 06657 33/// /2201 11018 2//// 39670 40263 57/// 333 553// 20000 91105 91203;
0140066570999992011020722004+46850+008200FM-12+047599999V0202101N001019999999N9999999N1-00201+99999102721ADDMA1999999096781MD1319999+9999OA149900211REMSYN088AAXX  07224 06657 33/// /2102 11020 2//// 39678 40272 53/// 333 553// 20000 91104 91202;
0140066570999992011020723004+46850+008200FM-12+047599999V0202301N001019999999N9999999N1-00241+99999102731ADDMA1999999096781MD1319999+9999OA149900211REMSYN088AAXX  07234 06657 33/// /2302 11024 2//// 39678 40273 53/// 333 553// 20000 91104 91202;
0140066570999992011020800004+46850+008200FM-12+047599999V0202701N000519999999N9999999N1-00331+99999102731ADDMA1999999096761MD1019999+9999OA149900261REMSYN088AAXX  08004 06657 33/// /2701 11033 2//// 39676 40273 50/// 333 553// 20000 91105 91203;
0140066570999992011020801004+46850+008200FM-12+047599999V0202501N000519999999N9999999N1-00401+99999102721ADDMA1999999096741MD1819999+9999OA149900211REMSYN088AAXX  08014 06657 33/// /2501 11040 2//// 39674 40272 58/// 333 553// 20000 91104 91203;
0140066570999992011020802004+46850+008200FM-12+047599999V0202701N001019999999N9999999N1-00311+99999102671ADDMA1999999096711MD1719999+9999OA149900211REMSYN088AAXX  08024 06657 33/// /2702 11031 2//// 39671 40267 57/// 333 553// 20000 91104 91202;
0140066570999992011020803004+46850+008200FM-12+047599999V0202901N000519999999N9999999N1-00361+99999102661ADDMA1999999096691MD1719999+9999OA149900211REMSYN088AAXX  08034 06657 33/// /2901 11036 2//// 39669 40266 57/// 333 553// 20000 91104 91203;
0140066570999992011020804004+46850+008200FM-12+047599999V0201701N001019999999N9999999N1-00351+99999102661ADDMA1999999096691MD1719999+9999OA149900211REMSYN088AAXX  08044 06657 33/// /1702 11035 2//// 39669 40266 57/// 333 553// 20000 91104 91203;
0140066570999992011020805004+46850+008200FM-12+047599999V0202501N000519999999N9999999N1-00441+99999102741ADDMA1999999096751MD1319999+9999OA149900261REMSYN088AAXX  08054 06657 33/// /2501 11044 2//// 39675 40274 53/// 333 553// 20000 91105 91203;
0175066570999992011020806004+46850+008200FM-12+047599999V0203601N001519999999N9999999N1-00291+99999102751ADDAL19900091KA1999N-00451MA1999999096791MD1219999+9999OA149900261REMSYN100AAXX  08064 06657 33/// /3603 11029 2//// 39679 40275 52/// 333 21045 553// 20000 70000 91105 91203;
0140066570999992011020807004+46850+008200FM-12+047599999V0202601N001019999999N9999999N1-00311+99999102781ADDMA1999999096811MD1219999+9999OA149900261REMSYN088AAXX  08074 06657 33/// /2602 11031 2//// 39681 40278 52/// 333 553// 20004 91105 91203;
0087066570999992011020808004+46850+008200FM-12+047599999V0202801N001519999999N9999999N1-00361+99999102771ADDMA1999999096791REMSYN060AAXX  08084 06657 43/// /2803 11036 2//// 39679 40277 5////;
0087066570999992011020809004+46850+008200FM-12+047599999V0202901N001019999999N9999999N1-00061+99999102701ADDMA1999999096791REMSYN060AAXX  08094 06657 43/// /2902 11006 2//// 39679 40270 5////;
0140066570999992011020810004+46850+008200FM-12+047599999V0202001N001019999999N9999999N1+00421+99999102651ADDMA1999999096851MD1319999+9999OA149900311REMSYN088AAXX  08104 06657 33/// /2002 10042 2//// 39685 40265 53/// 333 553// 2//// 91106 91204;
0140066570999992011020811004+46850+008200FM-12+047599999V0202401N000519999999N9999999N1+00741+99999102561ADDMA1999999096831MD1319999+9999OA149900311REMSYN088AAXX  08114 06657 33/// /2401 10074 2//// 39683 40256 53/// 333 553// 2//// 91106 91204;
0140066570999992011020812004+46850+008200FM-12+047599999V0201101N001019999999N9999999N1+00811+99999102491ADDMA1999999096781MD1019999+9999OA149900311REMSYN088AAXX  08124 06657 33/// /1102 10081 2//// 39678 40249 50/// 333 553// 2//// 91106 91204;
0140066570999992011020813004+46850+008200FM-12+047599999V0201901N001019999999N9999999N1+00961+99999102421ADDMA1999999096741MD1719999+9999OA149900261REMSYN088AAXX  08134 06657 33/// /1902 10096 2//// 39674 40242 57/// 333 553// 2//// 91105 91204;
0140066570999992011020814004+46850+008200FM-12+047599999V0203401N000519999999N9999999N1+01081+99999102361ADDMA1999999096711MD1619999+9999OA149900151REMSYN088AAXX  08144 06657 33/// /3401 10108 2//// 39671 40236 56/// 333 553// 2//// 91103 91202;
0140066570999992011020815004+46850+008200FM-12+047599999V0200501N000519999999N9999999N1+01051+99999102371ADDMA1999999096711MD1619999+9999OA149900311REMSYN088AAXX  08154 06657 33/// /0501 10105 2//// 39671 40237 56/// 333 553// 20950 91106 91204;
0140066570999992011020816004+46850+008200FM-12+047599999V0202101N002119999999N9999999N1+00721+99999102421ADDMA1999999096691MD1719999+9999OA149900311REMSYN088AAXX  08164 06657 33/// /2104 10072 2//// 39669 40242 57/// 333 553// 20263 91106 91205;
0140066570999992011020817004+46850+008200FM-12+047599999V0202301N001519999999N9999999N1+00281+99999102541ADDMA1999999096711MD1719999+9999OA149900311REMSYN088AAXX  08174 06657 33/// /2303 10028 2//// 39671 40254 57/// 333 553// 20011 91106 91205;
0159066570999992011020818004+46850+008200FM-12+047599999V0202701N000519999999N9999999N1+00021+99999102621ADDKA1120M+01091MA1999999096731MD1319999+9999OA149900311REMSYN094AAXX  08184 06657 33/// /2701 10002 2//// 39673 40262 53/// 333 10109 553// 20000 91106 91205;
0140066570999992011020819004+46850+008200FM-12+047599999V0202901N000519999999N9999999N1-00061+99999102651ADDMA1999999096751MD1219999+9999OA149900261REMSYN088AAXX  08194 06657 33/// /2901 11006 2//// 39675 40265 52/// 333 553// 20000 91105 91204;
0087066570999992011020820004+46850+008200FM-12+047599999V0202401N000519999999N9999999N1-00101+99999102641ADDMA1999999096731REMSYN060AAXX  08204 06657 43/// /2401 11010 2//// 39673 40264 5////;
0140066570999992011020821004+46850+008200FM-12+047599999V0209999C000019999999N9999999N1-00211+99999102631ADDMA1999999096691MD1819999+9999OA149900311REMSYN088AAXX  08214 06657 33/// /0000 11021 2//// 39669 40263 58/// 333 553// 20000 91106 91205;
0140066570999992011020822004+46850+008200FM-12+047599999V0202401N000519999999N9999999N1-00211+99999102631ADDMA1999999096691MD1719999+9999OA149900151REMSYN088AAXX  08224 06657 33/// /2401 11021 2//// 39669 40263 57/// 333 553// 20000 91103 91202;
0140066570999992011020823004+46850+008200FM-12+047599999V0202301N000519999999N9999999N1-00311+99999102661ADDMA1999999096701MD1519999+9999OA149900151REMSYN088AAXX  08234 06657 33/// /2301 11031 2//// 39670 40266 55/// 333 553// 20000 91103 91202;
0140066570999992011020900004+46850+008200FM-12+047599999V0209999C000019999999N9999999N1-00361+99999102661ADDMA1999999096691MD1410001+9999OA149900311REMSYN088AAXX  09004 06657 33/// /0000 11036 2//// 39669 40266 54/// 333 553// 20000 91106 91205;
0140066570999992011020901004+46850+008200FM-12+047599999V0202601N000519999999N9999999N1-00381+99999102611ADDMA1999999096641MD1819999+9999OA149900151REMSYN088AAXX  09014 06657 33/// /2601 11038 2//// 39664 40261 58/// 333 553// 20000 91103 91202;
0140066570999992011020902004+46850+008200FM-12+047599999V0202401N000519999999N9999999N1-00411+99999102631ADDMA1999999096651MD1719999+9999OA149900151REMSYN088AAXX  09024 06657 33/// /2401 11041 2//// 39665 40263 57/// 333 553// 20000 91103 91202;
0140066570999992011020903004+46850+008200FM-12+047599999V0202601N000519999999N9999999N1-00451+99999102631ADDMA1999999096641MD1719999+9999OA149900151REMSYN088AAXX  09034 06657 33/// /2601 11045 2//// 39664 40263 57/// 333 553// 20000 91103 91202;
0101066570999992011020904004+46850+008200FM-12+047599999V0209999C000019999999N9999999N1-00441+99999102631ADDMA1999999096641MD1719999+9999REMSYN060AAXX  09044 06657 43/// /0000 11044 2//// 39664 40263 57///;
0140066570999992011020905004+46850+008200FM-12+047599999V0202701N001019999999N9999999N1-00501+99999102641ADDMA1999999096641MD1719999+9999OA149900151REMSYN088AAXX  09054 06657 33/// /2702 11050 2//// 39664 40264 57/// 333 553// 20000 91103 91202;
0175066570999992011020906004+46850+008200FM-12+047599999V0202401N001019999999N9999999N1-00491+99999102621ADDAL19900091KA1999N-00531MA1999999096621MD1719999+9999OA149900151REMSYN100AAXX  09064 06657 33/// /2402 11049 2//// 39662 40262 57/// 333 21053 553// 20000 70000 91103 91203;
0140066570999992011020907004+46850+008200FM-12+047599999V0202501N000519999999N9999999N1-00521+99999102671ADDMA1999999096661MD1719999+9999OA149900151REMSYN088AAXX  09074 06657 33/// /2501 11052 2//// 39666 40267 57/// 333 553// 20000 91103 91202;
0108066570999992011020908004+46850+008200FM-12+047599999V02099999999999999999N9999999N1+99999+99999999999ADDMD1319999+9999REMSYN082AAXX  09084 06657 43/// ///// 1//// 2//// 3//// 53/// 333 553// 20000 91103 91202;
0140066570999992011020909004+46850+008200FM-12+047599999V0209999C000019999999N9999999N1-00291+99999102651ADDMA1999999096701MD1219999+9999OA149900151REMSYN088AAXX  09094 06657 33/// /0000 11029 2//// 39670 40265 52/// 333 553// 20000 91103 91202;
0140066570999992011020910004+46850+008200FM-12+047599999V0202101N000519999999N9999999N1+00171+99999102571ADDMA1999999096721MD1019999+9999OA149900151REMSYN088AAXX  09104 06657 33/// /2101 10017 2//// 39672 40257 50/// 333 553// 20000 91103 91202;
0140066570999992011020911004+46850+008200FM-12+047599999V0201201N000519999999N9999999N1+00421+99999102491ADDMA1999999096701MD1219999+9999OA149900151REMSYN088AAXX  09114 06657 33/// /1201 10042 2//// 39670 40249 52/// 333 553// 20000 91103 91201;
0117066570999992011020912004+46850+008200FM-12+047599999V0200901N000519999999N9999999N1+00611+99999102401ADDMA1999999096651MD1819999+9999REMSYN076AAXX  09124 06657 33/// /0901 10061 2//// 39665 40240 58/// 333 553// 20000;
0140066570999992011020913004+46850+008200FM-12+047599999V0201201N000519999999N9999999N1+00741+99999102331ADDMA1999999096611MD1719999+9999OA149900151REMSYN088AAXX  09134 06657 33/// /1201 10074 2//// 39661 40233 57/// 333 553// 20000 91103 91202;
0140066570999992011020914004+46850+008200FM-12+047599999V0200901N001019999999N9999999N1+00831+99999102281ADDMA1999999096581MD1619999+9999OA149900151REMSYN088AAXX  09144 06657 33/// /0902 10083 2//// 39658 40228 56/// 333 553// 20000 91103 91202;
0140066570999992011020915004+46850+008200FM-12+047599999V0209999C000019999999N9999999N1+00891+99999102261ADDMA1999999096581MD1619999+9999OA149900151REMSYN088AAXX  09154 06657 33/// /0000 10089 2//// 39658 40226 56/// 333 553// 20000 91103 91202;
0140066570999992011020916004+46850+008200FM-12+047599999V0202201N001519999999N9999999N1+00371+99999102391ADDMA1999999096591MD1519999+9999OA149900151REMSYN088AAXX  09164 06657 33/// /2203 10037 2//// 39659 40239 55/// 333 553// 20000 91103 91203;
0140066570999992011020917004+46850+008200FM-12+047599999V0202101N001019999999N9999999N1+00001+99999102481ADDMA1999999096601MD1519999+9999OA149900211REMSYN088AAXX  09174 06657 33/// /2102 10000 2//// 39660 40248 55/// 333 553// 20000 91104 91203;
0159066570999992011020918004+46850+008200FM-12+047599999V0202201N000519999999N9999999N1-00091+99999102561ADDKA1120M+00891MA1999999096651MD1219999+9999OA149900211REMSYN094AAXX  09184 06657 33/// /2201 11009 2//// 39665 40256 52/// 333 10089 553// 20000 91104 91203;
0140066570999992011020919004+46850+008200FM-12+047599999V0209999C000019999999N9999999N1-00131+99999102611ADDMA1999999096691MD1219999+9999OA149900151REMSYN088AAXX  09194 06657 33/// /0000 11013 2//// 39669 40261 52/// 333 553// 20000 91103 91202;
0087066570999992011020920004+46850+008200FM-12+047599999V0202401N000519999999N9999999N1-00251+99999102611ADDMA1999999096671REMSYN060AAXX  09204 06657 43/// /2401 11025 2//// 39667 40261 5////;
0140066570999992011020921004+46850+008200FM-12+047599999V0202601N001019999999N9999999N1-00381+99999102661ADDMA1999999096691MD1019999+9999OA149900211REMSYN088AAXX  09214 06657 33/// /2602 11038 2//// 39669 40266 50/// 333 553// 20000 91104 91203;
0140066570999992011020922004+46850+008200FM-12+047599999V0202501N000519999999N9999999N1-00401+99999102701ADDMA1999999096721MD1319999+9999OA149900101REMSYN088AAXX  09224 06657 33/// /2501 11040 2//// 39672 40270 53/// 333 553// 20000 91102 91202;
0140066570999992011020923004+46850+008200FM-12+047599999V0202701N001019999999N9999999N1-00451+99999102721ADDMA1999999096731MD1219999+9999OA149900151REMSYN088AAXX  09234 06657 33/// /2702 11045 2//// 39673 40272 52/// 333 553// 20000 91103 91202;
0140066570999992011021000004+46850+008200FM-12+047599999V0202301N000519999999N9999999N1-00381+99999102731ADDMA1999999096751MD1219999+9999OA149900211REMSYN088AAXX  10004 06657 33/// /2301 11038 2//// 39675 40273 52/// 333 553// 20000 91104 91203;
0140066570999992011021001004+46850+008200FM-12+047599999V0202401N000519999999N9999999N1-00471+99999102761ADDMA1999999096761MD1219999+9999OA149900151REMSYN088AAXX  10014 06657 33/// /2401 11047 2//// 39676 40276 52/// 333 553// 20000 91103 91202;
0140066570999992011021002004+46850+008200FM-12+047599999V0202501N000519999999N9999999N1-00521+99999102761ADDMA1999999096751MD1219999+9999OA149900151REMSYN088AAXX  10024 06657 33/// /2501 11052 2//// 39675 40276 52/// 333 553// 20000 91103 91202;
0140066570999992011021003004+46850+008200FM-12+047599999V0202601N000519999999N9999999N1-00551+99999102731ADDMA1999999096711MD1819999+9999OA149900151REMSYN088AAXX  10034 06657 33/// /2601 11055 2//// 39671 40273 58/// 333 553// 20000 91103 91202;
0140066570999992011021004004+46850+008200FM-12+047599999V0202201N000519999999N9999999N1-00531+99999102751ADDMA1999999096741MD1719999+9999OA149900151REMSYN088AAXX  10044 06657 33/// /2201 11053 2//// 39674 40275 57/// 333 553// 20000 91103 91202;
0140066570999992011021005004+46850+008200FM-12+047599999V0202601N000519999999N9999999N1-00561+99999102821ADDMA1999999096801MD1319999+9999OA149900151REMSYN088AAXX  10054 06657 33/// /2601 11056 2//// 39680 40282 53/// 333 553// 20000 91103 91202;
0175066570999992011021006004+46850+008200FM-12+047599999V0202601N000519999999N9999999N1-00521+99999102791ADDAL19900091KA1999N-00601MA1999999096781MD1219999+9999OA149900151REMSYN100AAXX  10064 06657 33/// /2601 11052 2//// 39678 40279 52/// 333 21060 553// 20000 70000 91103 91202;
0140066570999992011021007004+46850+008200FM-12+047599999V0209999C000019999999N9999999N1-00521+99999102801ADDMA1999999096791MD1019999+9999OA149900151REMSYN088AAXX  10074 06657 33/// /0000 11052 2//// 39679 40280 50/// 333 553// 20000 91103 91202;
0140066570999992011021008004+46850+008200FM-12+047599999V0202001N000519999999N9999999N1-00511+99999102851ADDMA1999999096841MD1319999+9999OA149900151REMSYN088AAXX  10084 06657 33/// /2001 11051 2//// 39684 40285 53/// 333 553// 20000 91103 91202;
0140066570999992011021009004+46850+008200FM-12+047599999V0202401N000519999999N9999999N1-00191+99999102771ADDMA1999999096831MD1219999+9999OA149900151REMSYN088AAXX  10094 06657 33/// /2401 11019 2//// 39683 40277 52/// 333 553// 20000 91103 91202;
0140066570999992011021010004+46850+008200FM-12+047599999V0201201N000519999999N9999999N1+00151+99999102631ADDMA1999999096771MD1019999+9999OA149900211REMSYN088AAXX  10104 06657 33/// /1201 10015 2//// 39677 40263 50/// 333 553// 20000 91104 91203;
0140066570999992011021011004+46850+008200FM-12+047599999V0201701N001019999999N9999999N1+00411+99999102551ADDMA1999999096751MD1819999+9999OA149900211REMSYN088AAXX  10114 06657 33/// /1702 10041 2//// 39675 40255 58/// 333 553// 20000 91104 91203;
0140066570999992011021012004+46850+008200FM-12+047599999V0200801N001019999999N9999999N1+00771+99999102391ADDMA1999999096671MD1619999+9999OA149900211REMSYN088AAXX  10124 06657 33/// /0802 10077 2//// 39667 40239 56/// 333 553// 20000 91104 91203;
0140066570999992011021013004+46850+008200FM-12+047599999V0200501N001019999999N9999999N1+00891+99999102311ADDMA1999999096621MD1819999+9999OA149900261REMSYN088AAXX  10134 06657 33/// /0502 10089 2//// 39662 40231 58/// 333 553// 20000 91105 91203;
0140066570999992011021014004+46850+008200FM-12+047599999V0200801N001019999999N9999999N1+00961+99999102231ADDMA1999999096561MD1619999+9999OA149900261REMSYN088AAXX  10144 06657 33/// /0802 10096 2//// 39656 40223 56/// 333 553// 20000 91105 91203;
0146066570999992011021015004+46850+008200FM-12+047599999V0201201N000519999999N9999999N1+00961+99999102201ADDMA1999999096531MD1719999+9999OA149900261REMSYN094AAXX  10154 06657 33/// /1201 10096 2//// 39653 40220 57/// 91440 333 553// 20000 91105 91203;
0128066570999992011021016004+46850+008200FM-12+047599999V0202401N000519999999N9999999N1+00461+99999102291ADDMA1999999096521MD1619999+9999OA149900151REMSYN076AAXX  10164 06657 43/// /2401 10046 2//// 39652 40229 56/// 333 91103 91202;
0140066570999992011021017004+46850+008200FM-12+047599999V0202101N001019999999N9999999N1+00221+99999102381ADDMA1999999096551MD1519999+9999OA149900211REMSYN088AAXX  10174 06657 33/// /2102 10022 2//// 39655 40238 55/// 333 553// 20000 91104 91203;
0159066570999992011021018004+46850+008200FM-12+047599999V0203001N000519999999N9999999N1-00051+99999102431ADDKA1120M+01051MA1999999096541MD1219999+9999OA149900261REMSYN094AAXX  10184 06657 33/// /3001 11005 2//// 39654 40243 52/// 333 10105 553// 20000 91105 91203;
0140066570999992011021019004+46850+008200FM-12+047599999V0202801N001019999999N9999999N1-00131+99999102451ADDMA1999999096541MD1219999+9999OA149900151REMSYN088AAXX  10194 06657 33/// /2802 11013 2//// 39654 40245 52/// 333 553// 20000 91103 91202;
0087066570999992011021020004+46850+008200FM-12+047599999V0202401N000519999999N9999999N1-00081+99999102431ADDMA1999999096531REMSYN060AAXX  10204 06657 43/// /2401 11008 2//// 39653 40243 5////;
0140066570999992011021021004+46850+008200FM-12+047599999V0202501N001019999999N9999999N1-00151+99999102421ADDMA1999999096511MD1719999+9999OA149900211REMSYN088AAXX  10214 06657 33/// /2502 11015 2//// 39651 40242 57/// 333 553// 20000 91104 91203;
0140066570999992011021022004+46850+008200FM-12+047599999V0202401N000519999999N9999999N1-00241+99999102421ADDMA1999999096491MD1719999+9999OA149900151REMSYN088AAXX  10224 06657 33/// /2401 11024 2//// 39649 40242 57/// 333 553// 20000 91103 91202;
0140066570999992011021023004+46850+008200FM-12+047599999V0209999C000019999999N9999999N1-00291+99999102401ADDMA1999999096461MD1819999+9999OA149900151REMSYN088AAXX  10234 06657 33/// /0000 11029 2//// 39646 40240 58/// 333 553// 20000 91103 91202;
0140066570999992011021100004+46850+008200FM-12+047599999V0202001N001019999999N9999999N1-00161+99999102371ADDMA1999999096461MD1719999+9999OA149900261REMSYN088AAXX  11004 06657 33/// /2002 11016 2//// 39646 40237 57/// 333 553// 20000 91105 91203;
0140066570999992011021101004+46850+008200FM-12+047599999V0202401N000519999999N9999999N1-00131+99999102361ADDMA1999999096461MD1719999+9999OA149900261REMSYN088AAXX  11014 06657 33/// /2401 11013 2//// 39646 40236 57/// 333 553// 20000 91105 91203;
0140066570999992011021102004+46850+008200FM-12+047599999V0202401N000519999999N9999999N1-00121+99999102321ADDMA1999999096421MD1410001+9999OA149900261REMSYN088AAXX  11024 06657 33/// /2401 11012 2//// 39642 40232 54/// 333 553// 20000 91105 91203;
0140066570999992011021103004+46850+008200FM-12+047599999V0201601N001019999999N9999999N1-00171+99999102241ADDMA1999999096341MD1719999+9999OA149900261REMSYN088AAXX  11034 06657 33/// /1602 11017 2//// 39634 40224 57/// 333 553// 20000 91105 91203;
0140066570999992011021104004+46850+008200FM-12+047599999V0202301N001519999999N9999999N1-00091+99999102251ADDMA1999999096361MD1719999+9999OA149900211REMSYN088AAXX  11044 06657 33/// /2303 11009 2//// 39636 40225 57/// 333 553// 20000 91104 91202;
0140066570999992011021105004+46850+008200FM-12+047599999V0202301N000519999999N9999999N1+00011+99999102211ADDMA1999999096351MD1519999+9999OA149900211REMSYN088AAXX  11054 06657 33/// /2301 10001 2//// 39635 40221 55/// 333 553// 20000 91104 91203;
0175066570999992011021106004+46850+008200FM-12+047599999V0202501N000519999999N9999999N1+00041+99999102221ADDAL19900091KA1999N-00291MA1999999096361MD1219999+9999OA149900261REMSYN100AAXX  11064 06657 33/// /2501 10004 2//// 39636 40222 52/// 333 21029 553// 20000 70000 91105 91203;
0140066570999992011021107004+46850+008200FM-12+047599999V0202501N000519999999N9999999N1+00031+99999102231ADDMA1999999096371MD1219999+9999OA149900211REMSYN088AAXX  11074 06657 33/// /2501 10003 2//// 39637 40223 52/// 333 553// 20000 91104 91203;
0140066570999992011021108004+46850+008200FM-12+047599999V0201501N000519999999N9999999N1+00141+99999102241ADDMA1999999096401MD1219999+9999OA149900211REMSYN088AAXX  11084 06657 33/// /1501 10014 2//// 39640 40224 52/// 333 553// 20000 91104 91202;
0140066570999992011021109004+46850+008200FM-12+047599999V0201901N000519999999N9999999N1+00281+99999102211ADDMA1999999096401MD1219999+9999OA149900211REMSYN088AAXX  11094 06657 33/// /1901 10028 2//// 39640 40221 52/// 333 553// 20000 91104 91203;
0140066570999992011021110004+46850+008200FM-12+047599999V0200401N000519999999N9999999N1+00431+99999102161ADDMA1999999096391MD1019999+9999OA149900151REMSYN088AAXX  11104 06657 33/// /0401 10043 2//// 39639 40216 50/// 333 553// 20000 91103 91202;
0140066570999992011021111004+46850+008200FM-12+047599999V0209999C000019999999N9999999N1+00691+99999102071ADDMA1999999096361MD1719999+9999OA149900151REMSYN088AAXX  11114 06657 33/// /0000 10069 2//// 39636 40207 57/// 333 553// 20000 91103 91201;
0140066570999992011021112004+46850+008200FM-12+047599999V0209999C000019999999N9999999N1+00791+99999101991ADDMA1999999096301MD1719999+9999OA149900261REMSYN088AAXX  11124 06657 33/// /0000 10079 2//// 39630 40199 57/// 333 553// 20000 91105 91203;
0140066570999992011021113004+46850+008200FM-12+047599999V0201701N000519999999N9999999N1+01051+99999101861ADDMA1999999096231MD1719999+9999OA149900151REMSYN088AAXX  11134 06657 33/// /1701 10105 2//// 39623 40186 57/// 333 553// 20000 91103 91202;
0103066570999992011021114004+46850+008200FM-12+047599999V0201701N000519999999N9999999N1+01071+99999101861ADDMA1999999096231REMSYN076AAXX  11144 06657 33/// /1701 10107 2//// 39623 40186 5//// 333 553// 20000;
0140066570999992011021115004+46850+008200FM-12+047599999V0201101N000519999999N9999999N1+01191+99999101821ADDMA1999999096221MD1719999+9999OA149900211REMSYN088AAXX  11154 06657 33/// /1101 10119 2//// 39622 40182 57/// 333 553// 20000 91104 91203;
0140066570999992011021116004+46850+008200FM-12+047599999V0209999C000019999999N9999999N1+00921+99999101891ADDMA1999999096231MD1719999+9999OA149900151REMSYN088AAXX  11164 06657 33/// /0000 10092 2//// 39623 40189 57/// 333 553// 20000 91103 91202;
0140066570999992011021117004+46850+008200FM-12+047599999V0202301N001019999999N9999999N1+00581+99999101991ADDMA1999999096261MD1319999+9999OA149900211REMSYN088AAXX  11174 06657 33/// /2302 10058 2//// 39626 40199 53/// 333 553// 20000 91104 91203;
0159066570999992011021118004+46850+008200FM-12+047599999V0202001N001019999999N9999999N1+00411+99999102051ADDKA1120M+01201MA1999999096281MD1219999+9999OA149900211REMSYN094AAXX  11184 06657 33/// /2002 10041 2//// 39628 40205 52/// 333 10120 553// 20000 91104 91203;
0103066570999992011021119004+46850+008200FM-12+047599999V0202601N000519999999N9999999N1+00191+99999102081ADDMA1999999096261REMSYN076AAXX  11194 06657 33/// /2601 10019 2//// 39626 40208 5//// 333 553// 20000;
0140066570999992011021120004+46850+008200FM-12+047599999V0202501N001019999999N9999999N1+00031+99999102101ADDMA1999999096251MD1019999+9999OA149900151REMSYN088AAXX  11204 06657 33/// /2502 10003 2//// 39625 40210 50/// 333 553// 20000 91103 91202;
0140066570999992011021121004+46850+008200FM-12+047599999V0202301N000519999999N9999999N1+00041+99999102121ADDMA1999999096271MD1719999+9999OA149900211REMSYN088AAXX  11214 06657 33/// /2301 10004 2//// 39627 40212 57/// 333 553// 20000 91104 91203;
0140066570999992011021122004+46850+008200FM-12+047599999V0202301N000519999999N9999999N1+00001+99999102141ADDMA1999999096281MD1219999+9999OA149900151REMSYN088AAXX  11224 06657 33/// /2301 10000 2//// 39628 40214 52/// 333 553// 20000 91103 91202;
0140066570999992011021123004+46850+008200FM-12+047599999V0202601N001019999999N9999999N1-00151+99999102161ADDMA1999999096261MD1219999+9999OA149900151REMSYN088AAXX  11234 06657 33/// /2602 11015 2//// 39626 40216 52/// 333 553// 20000 91103 91202;
0140066570999992011021200004+46850+008200FM-12+047599999V0200201N000519999999N9999999N1-00161+99999102151ADDMA1999999096251MD1819999+9999OA149900211REMSYN088AAXX  12004 06657 33/// /0201 11016 2//// 39625 40215 58/// 333 553// 20000 91104 91203;
0140066570999992011021201004+46850+008200FM-12+047599999V0202201N000519999999N9999999N1-00141+99999102151ADDMA1999999096261MD1719999+9999OA149900151REMSYN088AAXX  12014 06657 33/// /2201 11014 2//// 39626 40215 57/// 333 553// 20000 91103 91202;
0140066570999992011021202004+46850+008200FM-12+047599999V0202701N000519999999N9999999N1-00281+99999102211ADDMA1999999096281MD1519999+9999OA149900151REMSYN088AAXX  12024 06657 33/// /2701 11028 2//// 39628 40221 55/// 333 553// 20000 91103 91202;
0140066570999992011021203004+46850+008200FM-12+047599999V0202101N000519999999N9999999N1-00241+99999102151ADDMA1999999096241MD1019999+9999OA149900151REMSYN088AAXX  12034 06657 33/// /2101 11024 2//// 39624 40215 50/// 333 553// 20000 91103 91202;
0140066570999992011021204004+46850+008200FM-12+047599999V0202601N000519999999N9999999N1-00291+99999102161ADDMA1999999096231MD1819999+9999OA149900151REMSYN088AAXX  12044 06657 33/// /2601 11029 2//// 39623 40216 58/// 333 553// 20000 91103 91202;
0140066570999992011021205004+46850+008200FM-12+047599999V0209999C000019999999N9999999N1-00301+99999102171ADDMA1999999096241MD1519999+9999OA149900151REMSYN088AAXX  12054 06657 33/// /0000 11030 2//// 39624 40217 55/// 333 553// 20000 91103 91202;
0175066570999992011021206004+46850+008200FM-12+047599999V0202401N000519999999N9999999N1-00321+99999102151ADDAL19900091KA1999N-00351MA1999999096221MD1519999+9999OA149900211REMSYN100AAXX  12064 06657 33/// /2401 11032 2//// 39622 40215 55/// 333 21035 553// 20000 70000 91104 91202;
