0140066640999992011010100004+47433+008517FM-12+044399999V0202801N000519999999N9999999N1+00051+00011102441ADDMA1999999096951MD1810091+9999OA149900151REMSYN088AAXX  01004 06664 33/// /2801 10005 20001 39695 40244 58009 333 55300 20000 91103 91202;
0140066640999992011010101004+47433+008517FM-12+044399999V0202801N000519999999N9999999N1+00061+00031102391ADDMA1999999096901MD1710131+9999OA149900151REMSYN088AAXX  01014 06664 33/// /2801 10006 20003 39690 40239 57013 333 55300 20000 91103 91202;
0140066640999992011010102004+47433+008517FM-12+044399999V0202801N000519999999N9999999N1+00061+00051102361ADDMA1999999096871MD1610131+9999OA149900151REMSYN088AAXX  01024 06664 33/// /2801 10006 20005 39687 40236 56013 333 55300 20000 91103 91202;
0140066640999992011010103004+47433+008517FM-12+044399999V0202901N000519999999N9999999N1+00071+00031102331ADDMA1999999096851MD1610101+9999OA149900151REMSYN088AAXX  01034 06664 33/// /2901 10007 20003 39685 40233 56010 333 55300 20000 91103 91202;
0140066640999992011010104004+47433+008517FM-12+044399999V0203301N000519999999N9999999N1+00091+00051102311ADDMA1999999096831MD1710071+9999OA149900101REMSYN088AAXX  01044 06664 33/// /3301 10009 20005 39683 40231 57007 333 55300 20000 91102 91201;
0140066640999992011010105004+47433+008517FM-12+044399999V0203001N001019999999N9999999N1+00091+00021102341ADDMA1999999096861MD1510011+9999OA149900211REMSYN088AAXX  01054 06664 33/// /3002 10009 20002 39686 40234 55001 333 55300 20000 91104 91203;
0207066640999992011010106004+47433+008517FM-12+044399999V0202901N001019999999N9999999N1+00081+00021102351ADDAL19900091GJ100009IA2999+00009KA1999N+00041MA1999999096871MD1310021+9999OA149900211REMSYN112AAXX  01064 06664 33/// /2902 10008 20002 39687 40235 53002 333 20004 3/000 55000 55300 20000 70000 91104 91203;
0140066640999992011010107004+47433+008517FM-12+044399999V0202801N001019999999N9999999N1+00061-00021102371ADDMA1999999096881MD1210051+9999OA149900211REMSYN088AAXX  01074 06664 33/// /2802 10006 21002 39688 40237 52005 333 55300 20000 91104 91203;
0140066640999992011010108004+47433+008517FM-12+044399999V0203101N001519999999N9999999N1+00061-00041102391ADDMA1999999096901MD1219999+9999OA149900211REMSYN088AAXX  01084 06664 33/// /3103 10006 21004 39690 40239 52/// 333 55300 20022 91104 91203;
0087066640999992011010109004+47433+008517FM-12+044399999V0203001N001019999999N9999999N1+00091-00031102381ADDMA1999999096901REMSYN060AAXX  01094 06664 43/// /3002 10009 21003 39690 40238 5////;
0087066640999992011010110004+47433+008517FM-12+044399999V0202801N001019999999N9999999N1+00131+00011102371ADDMA1999999096901REMSYN060AAXX  01104 06664 43/// /2802 10013 20001 39690 40237 5////;
0140066640999992011010111004+47433+008517FM-12+044399999V0202901N001019999999N9999999N1+00191+00031102301ADDMA1999999096841MD1710061+9999OA149900211REMSYN088AAXX  01114 06664 33/// /2902 10019 20003 39684 40230 57006 333 55300 20360 91104 91203;
0087066640999992011010112004+47433+008517FM-12+044399999V0203001N001519999999N9999999N1+00181-00011102241ADDMA1999999096781REMSYN060AAXX  01124 06664 43/// /3003 10018 21001 39678 40224 5////;
0087066640999992011010113004+47433+008517FM-12+044399999V0202301N002619999999N9999999N1+00201-00071102191ADDMA1999999096741REMSYN060AAXX  01134 06664 43/// /2305 10020 21007 39674 40219 5////;
0087066640999992011010114004+47433+008517FM-12+044399999V0202301N002619999999N9999999N1+00191-00081102161ADDMA1999999096711REMSYN060AAXX  01144 06664 43/// /2305 10019 21008 39671 40216 5////;
0087066640999992011010115004+47433+008517FM-12+044399999V0202601N002119999999N9999999N1+00181-00101102171ADDMA1999999096721REMSYN060AAXX  01154 06664 43/// /2604 10018 21010 39672 40217 5////;
0087066640999992011010116004+47433+008517FM-12+044399999V0202401N001019999999N9999999N1+00151-00081102201ADDMA1999999096741REMSYN060AAXX  01164 06664 43/// /2402 10015 21008 39674 40220 5////;
0087066640999992011010117004+47433+008517FM-12+044399999V0203001N002119999999N9999999N1+00081-00061102251ADDMA1999999096771REMSYN060AAXX  01174 06664 43/// /3004 10008 21006 39677 40225 5////;
0087066640999992011010118004+47433+008517FM-12+044399999V0202801N001519999999N9999999N1+00041-00141102261ADDMA1999999096771REMSYN060AAXX  01184 06664 43/// /2803 10004 21014 39677 40226 5////;
0103066640999992011010119004+47433+008517FM-12+044399999V0202901N001519999999N9999999N1+00011-00131102271ADDMA1999999096781REMSYN076AAXX  01194 06664 33/// /2903 10001 21013 39678 40227 5//// 333 553// 20000;
0140066640999992011010120004+47433+008517FM-12+044399999V0202701N001019999999N9999999N1-00011-00091102301ADDMA1999999096801MD1310031+9999OA149900311REMSYN088AAXX  01204 06664 33/// /2702 11001 21009 39680 40230 53003 333 55300 20000 91106 91204;
0140066640999992011010121004+47433+008517FM-12+044399999V0203101N001019999999N9999999N1-00021-00091102281ADDMA1999999096781MD1010011+9999OA149900361REMSYN088AAXX  01214 06664 33/// /3102 11002 21009 39678 40228 50001 333 55300 20000 91107 91204;
0140066640999992011010122004+47433+008517FM-12+044399999V0203301N001019999999N9999999N1-00021-00121102241ADDMA1999999096741MD1710041+9999OA149900261REMSYN088AAXX  01224 06664 33/// /3302 11002 21012 39674 40224 57004 333 55300 20000 91105 91202;
0140066640999992011010123004+47433+008517FM-12+044399999V0200601N000519999999N9999999N1-00031-00121102211ADDMA1999999096711MD1710091+9999OA149900211REMSYN088AAXX  01234 06664 33/// /0601 11003 21012 39671 40221 57009 333 55300 20000 91104 91202;
0140066640999992011010200004+47433+008517FM-12+044399999V0201201N000519999999N9999999N1-00031-00111102161ADDMA1999999096671MD1610111+9999OA149900571REMSYN088AAXX  02004 06664 33/// /1201 11003 21011 39667 40216 56011 333 55300 20000 91111 91206;
0140066640999992011010201004+47433+008517FM-12+044399999V0201601N001019999999N9999999N1-00011-00121102121ADDMA1999999096631MD1810111+9999OA149900101REMSYN088AAXX  02014 06664 33/// /1602 11001 21012 39663 40212 58011 333 55300 20000 91102 91202;
0087066640999992011010202004+47433+008517FM-12+044399999V0202901N000519999999N9999999N1-00021-00141102131ADDMA1999999096641REMSYN060AAXX  02024 06664 43/// /2901 11002 21014 39664 40213 5////;
0087066640999992011010203004+47433+008517FM-12+044399999V0203001N001019999999N9999999N1-00011-00141102161ADDMA1999999096671REMSYN060AAXX  02034 06664 43/// /3002 11001 21014 39667 40216 5////;
0087066640999992011010204004+47433+008517FM-12+044399999V0209999C000019999999N9999999N1-00031-00131102161ADDMA1999999096671REMSYN060AAXX  02044 06664 43/// /0000 11003 21013 39667 40216 5////;
0087066640999992011010205004+47433+008517FM-12+044399999V0209999C000019999999N9999999N1-00041-00121102181ADDMA1999999096681REMSYN060AAXX  02054 06664 43/// /0000 11004 21012 39668 40218 5////;
0134066640999992011010206004+47433+008517FM-12+044399999V0203101N000519999999N9999999N1-00021-00131102191ADDIA2999-00209KA1999N-00051MA1999999096701REMSYN082AAXX  02064 06664 43/// /3101 11002 21013 39670 40219 5//// 333 21005 3/102 55000;
0140066640999992011010207004+47433+008517FM-12+044399999V0203601N000519999999N9999999N1-00021-00091102211ADDMA1999999096721MD1210051+9999OA149900101REMSYN088AAXX  02074 06664 33/// /3601 11002 21009 39672 40221 52005 333 55300 20000 91102 91201;
0140066640999992011010208004+47433+008517FM-12+044399999V0203001N000519999999N9999999N1-00021-00121102271ADDMA1999999096771MD1310091+9999OA149900101REMSYN088AAXX  02084 06664 33/// /3001 11002 21012 39677 40227 53009 333 55300 20007 91102 91201;
0146066640999992011010209004+47433+008517FM-12+044399999V0203401N001019999999N9999999N1-00011-00121102311ADDMA1999999096811MD1310111+9999OA149900151REMSYN094AAXX  02094 06664 23/// /3402 11001 21012 39681 40231 53011 333 55300 20061 69915 91103 91202;
0140066640999992011010210004+47433+008517FM-12+044399999V0203601N001019999999N9999999N1+00011-00111102321ADDMA1999999096831MD1110111+9999OA149900211REMSYN088AAXX  02104 06664 33/// /3602 10001 21011 39683 40232 51011 333 55300 20158 91104 91202;
0140066640999992011010211004+47433+008517FM-12+044399999V0200101N001019999999N9999999N1+00041-00091102321ADDMA1999999096831MD1110061+9999OA149900361REMSYN088AAXX  02114 06664 33/// /0102 10004 21009 39683 40232 51006 333 55300 20292 91107 91203;
0182066640999992011010212004+47433+008517FM-12+044399999V0200401N002119999999N9999999N1+00091-00161102291ADDAA106000091MA1999999096811MD1010001+9999OA149900361REMSYN100AAXX  02124 06664 03/// /0404 10009 21016 39681 40229 50000 69911 333 55300 20360 60005 91107 91204;EQDQ01  00002PRCP06
0140066640999992011010213004+47433+008517FM-12+044399999V0200501N002619999999N9999999N1+00091-00261102291ADDMA1999999096811MD1710021+9999OA149900511REMSYN088AAXX  02134 06664 33/// /0505 10009 21026 39681 40229 57002 333 55300 20324 91110 91205;
0103066640999992011010214004+47433+008517FM-12+044399999V0200401N001519999999N9999999N1+00111-00271102301ADDMA1999999096831REMSYN076AAXX  02144 06664 33/// /0403 10011 21027 39683 40230 5//// 333 553// 20338;
0140066640999992011010215004+47433+008517FM-12+044399999V0200401N002119999999N9999999N1+00091-00311102351ADDMA1999999096871MD1210061+9999OA149900511REMSYN088AAXX  02154 06664 33/// /0404 10009 21031 39687 40235 52006 333 55300 20184 91110 91206;
0140066640999992011010216004+47433+008517FM-12+044399999V0200401N001019999999N9999999N1+00071-00331102401ADDMA1999999096911MD1210101+9999OA149900411REMSYN088AAXX  02164 06664 33/// /0402 10007 21033 39691 40240 52010 333 55300 20025 91108 91205;
0140066640999992011010217004+47433+008517FM-12+044399999V0200501N001519999999N9999999N1+00041-00351102431ADDMA1999999096941MD1110111+9999OA149900311REMSYN088AAXX  02174 06664 33/// /0503 10004 21035 39694 40243 51011 333 55300 20000 91106 91203;
0201066640999992011010218004+47433+008517FM-12+044399999V0200401N001019999999N9999999N1+00001-00321102461ADDAA112000091KA1120M+00111MA1999999096961MD1110091+9999OA149900511REMSYN106AAXX  02184 06664 03/// /0402 10000 21032 39696 40246 51009 69912 333 10011 55300 20000 60005 91110 91206;EQDQ01  00002PRCP12
0140066640999992011010219004+47433+008517FM-12+044399999V0200501N002119999999N9999999N1-00061-00401102521ADDMA1999999097001MD1310091+9999OA149900411REMSYN088AAXX  02194 06664 33/// /0504 11006 21040 39700 40252 53009 333 55300 20000 91108 91205;
0140066640999992011010220004+47433+008517FM-12+044399999V0200301N001519999999N9999999N1-00131-00451102541ADDMA1999999097011MD1210071+9999OA149900411REMSYN088AAXX  02204 06664 33/// /0303 11013 21045 39701 40254 52007 333 55300 20000 91108 91205;
0140066640999992011010221004+47433+008517FM-12+044399999V0200301N001519999999N9999999N1-00181-00461102601ADDMA1999999097051MD1210091+9999OA149900411REMSYN088AAXX  02214 06664 33/// /0303 11018 21046 39705 40260 52009 333 55300 20000 91108 91205;
0140066640999992011010222004+47433+008517FM-12+044399999V0200301N001019999999N9999999N1-00251-00471102631ADDMA1999999097071MD1210071+9999OA149900311REMSYN088AAXX  02224 06664 33/// /0302 11025 21047 39707 40263 52007 333 55300 20000 91106 91203;
0140066640999992011010223004+47433+008517FM-12+044399999V0200101N000519999999N9999999N1-00311-00501102661ADDMA1999999097081MD1210071+9999OA149900261REMSYN088AAXX  02234 06664 33/// /0101 11031 21050 39708 40266 52007 333 55300 20000 91105 91203;
0140066640999992011010300004+47433+008517FM-12+044399999V0203401N000519999999N9999999N1-00351-00501102661ADDMA1999999097071MD1210021+9999OA149900511REMSYN088AAXX  03004 06664 33/// /3401 11035 21050 39707 40266 52002 333 55300 20000 91110 91206;
0140066640999992011010301004+47433+008517FM-12+044399999V0209999C000019999999N9999999N1-00411-00511102641ADDMA1999999097041MD1710031+9999OA149900151REMSYN088AAXX  03014 06664 33/// /0000 11041 21051 39704 40264 57003 333 55300 20000 91103 91202;
0140066640999992011010302004+47433+008517FM-12+044399999V0209999C000019999999N9999999N1-00481-00551102651ADDMA1999999097041MD1719999+9999OA149900101REMSYN088AAXX  03024 06664 33/// /0000 11048 21055 39704 40265 57/// 333 55300 20000 91102 91201;
0087066640999992011010303004+47433+008517FM-12+044399999V0202701N001019999999N9999999N1-00431-00581102651ADDMA1999999097051REMSYN060AAXX  03034 06664 43/// /2702 11043 21058 39705 40265 5////;
0140066640999992011010304004+47433+008517FM-12+044399999V0202801N000519999999N9999999N1-00481-00611102671ADDMA1999999097061MD1210021+9999OA149900211REMSYN088AAXX  03044 06664 33/// /2801 11048 21061 39706 40267 52002 333 55300 20000 91104 91202;
0140066640999992011010305004+47433+008517FM-12+044399999V0209999C000019999999N9999999N1-00551-00651102681ADDMA1999999097051MD1210011+9999OA149900151REMSYN088AAXX  03054 06664 33/// /0000 11055 21065 39705 40268 52001 333 55300 20000 91103 91202;
0226066640999992011010306004+47433+008517FM-12+044399999V0209999C000019999999N9999999N1-00601-00671102691ADDAL10600091GJ100009IA2999-01109KA1999N-00621MA1999999097051MD1210041+9999OA149900411REMSYN112AAXX  03064 06664 33/// /0000 11060 21067 39705 40269 52000 333 21062 3/111 55000 55300 20000 70001 91108 91205;EQDQ01+000002APC3  
0140066640999992011010307004+47433+008517FM-12+044399999V0209999C000019999999N9999999N1-00651-00721102701ADDMA1999999097051MD1710011+9999OA149900051REMSYN088AAXX  03074 06664 33/// /0000 11065 21072 39705 40270 57001 333 55300 20000 91101 91201;
0140066640999992011010308004+47433+008517FM-12+044399999V0209999C000019999999N9999999N1-00611-00711102721ADDMA1999999097081MD1319999+9999OA149900101REMSYN088AAXX  03084 06664 33/// /0000 11061 21071 39708 40272 53/// 333 55301 20058 91102 91201;
0103066640999992011010309004+47433+008517FM-12+044399999V0200301N001019999999N9999999N1-00451-00621102681ADDMA1999999097071REMSYN076AAXX  03094 06664 33/// /0302 11045 21062 39707 40268 5//// 333 553// 20418;
0140066640999992011010310004+47433+008517FM-12+044399999V0209999C001519999999N9999999N1-00371-00581102681ADDMA1999999097091MD1210041+9999OA149900311REMSYN088AAXX  03104 06664 33/// /0003 11037 21058 39709 40268 52004 333 55309 20734 91106 91203;
0140066640999992011010311004+47433+008517FM-12+044399999V0200401N002619999999N9999999N1-00301-00521102621ADDMA1999999097051MD1710031+9999OA149900411REMSYN088AAXX  03114 06664 33/// /0405 11030 21052 39705 40262 57003 333 55306 20871 91108 91205;
0140066640999992011010312004+47433+008517FM-12+044399999V0200601N002619999999N9999999N1-00201-00491102531ADDMA1999999096981MD1810091+9999OA149900461REMSYN088AAXX  03124 06664 33/// /0605 11020 21049 39698 40253 58009 333 55302 20767 91109 91205;
0140066640999992011010313004+47433+008517FM-12+044399999V0200401N002119999999N9999999N1-00141-00511102481ADDMA1999999096951MD1710141+9999OA149900511REMSYN088AAXX  03134 06664 33/// /0404 11014 21051 39695 40248 57014 333 55305 20835 91110 91205;
0103066640999992011010314004+47433+008517FM-12+044399999V0200401N003119999999N9999999N1-00081-00521102451ADDMA1999999096931REMSYN076AAXX  03144 06664 33/// /0406 11008 21052 39693 40245 5//// 333 553// 20637;
0103066640999992011010315004+47433+008517FM-12+044399999V0200501N001519999999N9999999N1-00111-00481102451ADDMA1999999096921REMSYN076AAXX  03154 06664 33/// /0503 11011 21048 39692 40245 5//// 333 553// 20439;
0140066640999992011010316004+47433+008517FM-12+044399999V0200601N001519999999N9999999N1-00191-00511102461ADDMA1999999096921MD1710031+9999OA149900511REMSYN088AAXX  03164 06664 33/// /0603 11019 21051 39692 40246 57003 333 55303 20068 91110 91205;
0140066640999992011010317004+47433+008517FM-12+044399999V0200701N001019999999N9999999N1-00351-00511102471ADDMA1999999096891MD1710041+9999OA149900411REMSYN088AAXX  03174 06664 33/// /0702 11035 21051 39689 40247 57004 333 55300 20000 91108 91204;
0159066640999992011010318004+47433+008517FM-12+044399999V0200501N001019999999N9999999N1-00321-00491102461ADDKA1120M-00071MA1999999096891MD1710031+9999OA149900511REMSYN094AAXX  03184 06664 33/// /0502 11032 21049 39689 40246 57003 333 11007 55300 20000 91110 91206;
0140066640999992011010319004+47433+008517FM-12+044399999V0200201N000519999999N9999999N1-00441-00531102471ADDMA1999999096881MD1710041+9999OA149900151REMSYN088AAXX  03194 06664 33/// /0201 11044 21053 39688 40247 57004 333 55300 20000 91103 91202;
0140066640999992011010320004+47433+008517FM-12+044399999V0202601N000519999999N9999999N1-00491-00581102461ADDMA1999999096861MD1810031+9999OA149900151REMSYN088AAXX  03204 06664 33/// /2601 11049 21058 39686 40246 58003 333 55300 20000 91103 91202;
0140066640999992011010321004+47433+008517FM-12+044399999V0202501N000519999999N9999999N1-00481-00601102431ADDMA1999999096831MD1810061+9999OA149900411REMSYN088AAXX  03214 06664 33/// /2501 11048 21060 39683 40243 58006 333 55300 20000 91108 91204;
0140066640999992011010322004+47433+008517FM-12+044399999V0202501N000519999999N9999999N1-00481-00591102431ADDMA1999999096831MD1710051+9999OA149900151REMSYN088AAXX  03224 06664 33/// /2501 11048 21059 39683 40243 57005 333 55300 20000 91103 91201;
0140066640999992011010323004+47433+008517FM-12+044399999V0209999C000019999999N9999999N1-00551-00641102451ADDMA1999999096831MD1510031+9999OA149900151REMSYN088AAXX  03234 06664 33/// /0000 11055 21064 39683 40245 55003 333 55300 20000 91103 91202;
0140066640999992011010400004+47433+008517FM-12+044399999V0202401N000519999999N9999999N1-00541-00621102431ADDMA1999999096821MD1710011+9999OA149900511REMSYN088AAXX  04004 06664 33/// /2401 11054 21062 39682 40243 57001 333 55300 20000 91110 91206;
0140066640999992011010401004+47433+008517FM-12+044399999V0209999C000019999999N9999999N1-00551-00631102411ADDMA1999999096801MD1710031+9999OA149900101REMSYN088AAXX  04014 06664 33/// /0000 11055 21063 39680 40241 57003 333 55300 20000 91102 91201;
0140066640999992011010402004+47433+008517FM-12+044399999V0209999C000019999999N9999999N1-00581-00661102401ADDMA1999999096781MD1719999+9999OA149900051REMSYN088AAXX  04024 06664 33/// /0000 11058 21066 39678 40240 57/// 333 55300 20000 91101 91201;
0140066640999992011010403004+47433+008517FM-12+044399999V0209999C000019999999N9999999N1-00591-00671102391ADDMA1999999096771MD1710051+9999OA149900151REMSYN088AAXX  04034 06664 33/// /0000 11059 21067 39677 40239 57005 333 55300 20000 91103 91202;
0140066640999992011010404004+47433+008517FM-12+044399999V0200801N000519999999N9999999N1-00531-00641102321ADDMA1999999096721MD1710081+9999OA149900101REMSYN088AAXX  04044 06664 33/// /0801 11053 21064 39672 40232 57008 333 55300 20000 91102 91201;
0140066640999992011010405004+47433+008517FM-12+044399999V0200601N001519999999N9999999N1-00491-00641102261ADDMA1999999096671MD1810111+9999OA149900211REMSYN088AAXX  04054 06664 33/// /0603 11049 21064 39667 40226 58011 333 55300 20000 91104 91203;
0207066640999992011010406004+47433+008517FM-12+044399999V0200401N000519999999N9999999N1-00491-00631102231ADDAL19900091GJ103249IA2999-01009KA1999N-00631MA1999999096641MD1810131+9999OA149900211REMSYN112AAXX  04064 06664 33/// /0401 11049 21063 39664 40223 58013 333 21063 3/110 55054 55300 20000 70000 91104 91203;
0140066640999992011010407004+47433+008517FM-12+044399999V0202901N000519999999N9999999N1-00471-00621102201ADDMA1999999096611MD1710111+9999OA149900211REMSYN088AAXX  04074 06664 33/// /2901 11047 21062 39661 40220 57011 333 55300 20000 91104 91202;
0140066640999992011010408004+47433+008517FM-12+044399999V0203401N000519999999N9999999N1-00481-00631102231ADDMA1999999096641MD1519999+9999OA149900151REMSYN088AAXX  04084 06664 33/// /3401 11048 21063 39664 40223 55/// 333 55300 20007 91103 91202;
0103066640999992011010409004+47433+008517FM-12+044399999V0200501N001019999999N9999999N1-00451-00611102201ADDMA1999999096621REMSYN076AAXX  04094 06664 33/// /0502 11045 21061 39662 40220 5//// 333 553// 20054;
0140066640999992011010410004+47433+008517FM-12+044399999V0200201N000519999999N9999999N1-00401-00581102231ADDMA1999999096661MD1210051+9999OA149900151REMSYN088AAXX  04104 06664 33/// /0201 11040 21058 39666 40223 52005 333 55300 20212 91103 91202;
0140066640999992011010411004+47433+008517FM-12+044399999V0200501N000519999999N9999999N1-00331-00511102141ADDMA1999999096591MD1710051+9999OA149900211REMSYN088AAXX  04114 06664 33/// /0501 11033 21051 39659 40214 57005 333 55300 20378 91104 91202;
0140066640999992011010412004+47433+008517FM-12+044399999V0209999C000019999999N9999999N1-00311-00551102071ADDMA1999999096521MD1810101+9999OA149900211REMSYN088AAXX  04124 06664 33/// /0000 11031 21055 39652 40207 58010 333 55300 20554 91104 91203;
0140066640999992011010413004+47433+008517FM-12+044399999V0200601N000519999999N9999999N1-00261-00511102001ADDMA1999999096471MD1710191+9999OA149900151REMSYN088AAXX  04134 06664 33/// /0601 11026 21051 39647 40200 57019 333 55300 20346 91103 91202;
0103066640999992011010414004+47433+008517FM-12+044399999V0203601N000519999999N9999999N1-00231-00481101951ADDMA1999999096431REMSYN076AAXX  04144 06664 33/// /3601 11023 21048 39643 40195 5//// 333 553// 20284;
0087066640999992011010415004+47433+008517FM-12+044399999V0203401N001019999999N9999999N1-00231-00491101941ADDMA1999999096421REMSYN060AAXX  04154 06664 43/// /3402 11023 21049 39642 40194 5////;
0140066640999992011010416004+47433+008517FM-12+044399999V0203401N000519999999N9999999N1-00241-00481101921ADDMA1999999096401MD1710071+9999OA149900151REMSYN088AAXX  04164 06664 33/// /3401 11024 21048 39640 40192 57007 333 55300 20029 91103 91202;
0140066640999992011010417004+47433+008517FM-12+044399999V0203301N000519999999N9999999N1-00251-00471101931ADDMA1999999096401MD1710031+9999OA149900151REMSYN088AAXX  04174 06664 33/// /3301 11025 21047 39640 40193 57003 333 55300 20000 91103 91202;
0159066640999992011010418004+47433+008517FM-12+044399999V0203401N001019999999N9999999N1-00271-00471101951ADDKA1120M-00231MA1999999096421MD1510001+9999OA149900211REMSYN094AAXX  04184 06664 33/// /3402 11027 21047 39642 40195 55000 333 11023 55300 20000 91104 91203;
0140066640999992011010419004+47433+008517FM-12+044399999V0203401N000519999999N9999999N1-00271-00471101961ADDMA1999999096431MD1210031+9999OA149900211REMSYN088AAXX  04194 06664 33/// /3401 11027 21047 39643 40196 52003 333 55300 20000 91104 91203;
0140066640999992011010420004+47433+008517FM-12+044399999V0200101N000519999999N9999999N1-00271-00481101921ADDMA1999999096391MD1010011+9999OA149900151REMSYN088AAXX  04204 06664 33/// /0101 11027 21048 39639 40192 50001 333 55300 20000 91103 91202;
0140066640999992011010421004+47433+008517FM-12+044399999V0203501N000519999999N9999999N1-00291-00481101921ADDMA1999999096391MD1710031+9999OA149900211REMSYN088AAXX  04214 06664 33/// /3501 11029 21048 39639 40192 57003 333 55300 20000 91104 91203;
0140066640999992011010422004+47433+008517FM-12+044399999V0200501N000519999999N9999999N1-00291-00501101911ADDMA1999999096381MD1710051+9999OA149900151REMSYN088AAXX  04224 06664 33/// /0501 11029 21050 39638 40191 57005 333 55300 20000 91103 91202;
0140066640999992011010423004+47433+008517FM-12+044399999V0201201N000519999999N9999999N1-00391-00531101921ADDMA1999999096371MD1710021+9999OA149900151REMSYN088AAXX  04234 06664 33/// /1201 11039 21053 39637 40192 57002 333 55300 20000 91103 91201;
0140066640999992011010500004+47433+008517FM-12+044399999V0209999C000019999999N9999999N1-00441-00531101911ADDMA1999999096351MD1710041+9999OA149900211REMSYN088AAXX  05004 06664 33/// /0000 11044 21053 39635 40191 57004 333 55300 20000 91104 91203;
0140066640999992011010501004+47433+008517FM-12+044399999V0209999C000019999999N9999999N1-00361-00491101891ADDMA1999999096341MD1710041+9999OA149900101REMSYN088AAXX  05014 06664 33/// /0000 11036 21049 39634 40189 57004 333 55300 20000 91102 91201;
0140066640999992011010502004+47433+008517FM-12+044399999V0201401N000519999999N9999999N1-00351-00481101871ADDMA1999999096331MD1710041+9999OA149900101REMSYN088AAXX  05024 06664 33/// /1401 11035 21048 39633 40187 57004 333 55300 20000 91102 91201;
0087066640999992011010503004+47433+008517FM-12+044399999V0203301N000519999999N9999999N1-00301-00511101861ADDMA1999999096331REMSYN060AAXX  05034 06664 43/// /3301 11030 21051 39633 40186 5////;
0140066640999992011010504004+47433+008517FM-12+044399999V0209999C000019999999N9999999N1-00311-00481101821ADDMA1999999096291MD1710051+9999OA149900051REMSYN088AAXX  05044 06664 33/// /0000 11031 21048 39629 40182 57005 333 55300 20000 91101 91201;
0140066640999992011010505004+47433+008517FM-12+044399999V0209999C000019999999N9999999N1-00321-00481101791ADDMA1999999096261MD1710071+9999OA149900051REMSYN088AAXX  05054 06664 33/// /0000 11032 21048 39626 40179 57007 333 55300 20000 91101 91201;
0207066640999992011010506004+47433+008517FM-12+044399999V0209999C000019999999N9999999N1-00281-00451101821ADDAL19900091GJ100009IA2999-00809KA1999N-00451MA1999999096291MD1510041+9999OA149900151REMSYN112AAXX  05064 06664 33/// /0000 11028 21045 39629 40182 55004 333 21045 3/108 55000 55300 20000 70000 91103 91202;
0140066640999992011010507004+47433+008517FM-12+044399999V0200801N000519999999N9999999N1-00331-00451101811ADDMA1999999096271MD1710021+9999OA149900101REMSYN088AAXX  05074 06664 33/// /0801 11033 21045 39627 40181 57002 333 55300 20000 91102 91201;
0140066640999992011010508004+47433+008517FM-12+044399999V0202801N001019999999N9999999N1-00321-00491101811ADDMA1999999096281MD1219999+9999OA149900101REMSYN088AAXX  05084 06664 33/// /2802 11032 21049 39628 40181 52/// 333 55301 20054 91102 91202;
0140066640999992011010509004+47433+008517FM-12+044399999V0202601N001019999999N9999999N1-00251-00481101791ADDMA1999999096271MD1710021+9999OA149900151REMSYN088AAXX  05094 06664 33/// /2602 11025 21048 39627 40179 57002 333 553// 20396 91103 91202;
0140066640999992011010510004+47433+008517FM-12+044399999V0200401N001019999999N9999999N1-00161-00471101731ADDMA1999999096231MD1810041+9999OA149900211REMSYN088AAXX  05104 06664 33/// /0402 11016 21047 39623 40173 58004 333 553// 20770 91104 91202;
0140066640999992011010511004+47433+008517FM-12+044399999V0203201N000519999999N9999999N1-00041-00381101661ADDMA1999999096191MD1710091+9999OA149900211REMSYN088AAXX  05114 06664 33/// /3201 11004 21038 39619 40166 57009 333 553// 2//// 91104 91202;
0103066640999992011010512004+47433+008517FM-12+044399999V0200701N000519999999N9999999N1+00051-00381101531ADDMA1999999096091REMSYN076AAXX  05124 06664 33/// /0701 10005 21038 39609 40153 5//// 333 553// 2////;
0140066640999992011010513004+47433+008517FM-12+044399999V0202801N000519999999N9999999N1+00171-00411101461ADDMA1999999096041MD1610191+9999OA149900151REMSYN088AAXX  05134 06664 33/// /2801 10017 21041 39604 40146 56019 333 553// 2//// 91103 91201;
0087066640999992011010514004+47433+008517FM-12+044399999V0201701N001019999999N9999999N1+00291-00491101411ADDMA1999999096021REMSYN060AAXX  05144 06664 43/// /1702 10029 21049 39602 40141 5////;
0087066640999992011010515004+47433+008517FM-12+044399999V0201601N001019999999N9999999N1+00231-00431101381ADDMA1999999095981REMSYN060AAXX  05154 06664 43/// /1602 10023 21043 39598 40138 5////;
0140066640999992011010516004+47433+008517FM-12+044399999V0200801N000519999999N9999999N1+00101-00471101381ADDMA1999999095951MD1710091+9999OA149900311REMSYN088AAXX  05164 06664 33/// /0801 10010 21047 39595 40138 57009 333 55304 20079 91106 91204;
0140066640999992011010517004+47433+008517FM-12+044399999V0209999C000019999999N9999999N1-00101-00331101441ADDMA1999999095971MD1510051+9999OA149900211REMSYN088AAXX  05174 06664 33/// /0000 11010 21033 39597 40144 55005 333 55300 20000 91104 91203;
0159066640999992011010518004+47433+008517FM-12+044399999V0200801N000519999999N9999999N1-00011-00441101401ADDKA1120M+00321MA1999999095951MD1719999+9999OA149900311REMSYN094AAXX  05184 06664 33/// /0801 11001 21044 39595 40140 57/// 333 10032 55300 20000 91106 91204;
0140066640999992011010519004+47433+008517FM-12+044399999V0209999C000019999999N9999999N1-00151-00391101411ADDMA1999999095931MD1710021+9999OA149900151REMSYN088AAXX  05194 06664 33/// /0000 11015 21039 39593 40141 57002 333 55300 20000 91103 91201;
0140066640999992011010520004+47433+008517FM-12+044399999V0201501N000519999999N9999999N1-00221-00431101381ADDMA1999999095891MD1719999+9999OA149900211REMSYN088AAXX  05204 06664 33/// /1501 11022 21043 39589 40138 57/// 333 55300 20000 91104 91202;
0103066640999992011010521004+47433+008517FM-12+044399999V0200601N000519999999N9999999N1-00181-00461101331ADDMA1999999095851REMSYN076AAXX  05214 06664 33/// /0601 11018 21046 39585 40133 5//// 333 553// 20000;
0140066640999992011010522004+47433+008517FM-12+044399999V0200901N001019999999N9999999N1-00071-00451101281ADDMA1999999095831MD1710101+9999OA149900261REMSYN088AAXX  05224 06664 33/// /0902 11007 21045 39583 40128 57010 333 55300 20000 91105 91202;
0140066640999992011010523004+47433+008517FM-12+044399999V0200601N001019999999N9999999N1-00031-00481101231ADDMA1999999095791MD1719999+9999OA149900311REMSYN088AAXX  05234 06664 33/// /0602 11003 21048 39579 40123 57/// 333 55300 20000 91106 91203;
0087066640999992011010600004+47433+008517FM-12+044399999V0202601N000519999999N9999999N1-00161-00511101221ADDMA1999999095751REMSYN060AAXX  06004 06664 43/// /2601 11016 21051 39575 40122 5////;
0087066640999992011010601004+47433+008517FM-12+044399999V0209999C000019999999N9999999N1-00281-00451101171ADDMA1999999095681REMSYN060AAXX  06014 06664 43/// /0000 11028 21045 39568 40117 5////;
0087066640999992011010602004+47433+008517FM-12+044399999V0209999C000019999999N9999999N1-00171-00351101121ADDMA1999999095651REMSYN060AAXX  06024 06664 43/// /0000 11017 21035 39565 40112 5////;
0087066640999992011010603004+47433+008517FM-12+044399999V0203101N000519999999N9999999N1-00111-00421101111ADDMA1999999095661REMSYN060AAXX  06034 06664 43/// /3101 11011 21042 39566 40111 5////;
0087066640999992011010604004+47433+008517FM-12+044399999V0201701N001519999999N9999999N1+00201-00381101021ADDMA1999999095631REMSYN060AAXX  06044 06664 43/// /1703 10020 21038 39563 40102 5////;
0087066640999992011010605004+47433+008517FM-12+044399999V0202201N004619999999N9999999N1+00491-00051100941ADDMA1999999095611REMSYN060AAXX  06054 06664 43/// /2209 10049 21005 39561 40094 5////;
0134066640999992011010606004+47433+008517FM-12+044399999V0202001N003619999999N9999999N1+00421+00021100961ADDIA2999-00609KA1999N-00281MA1999999095621REMSYN082AAXX  06064 06664 43/// /2007 10042 20002 39562 40096 5//// 333 21028 3/106 55074;
0087066640999992011010607004+47433+008517FM-12+044399999V0202101N004119999999N9999999N1+00451+00011100971ADDMA1999999095631REMSYN060AAXX  06074 06664 43/// /2108 10045 20001 39563 40097 5////;
0103066640999992011010608004+47433+008517FM-12+044399999V0202001N002619999999N9999999N1+00381-00041100961ADDMA1999999095611REMSYN076AAXX  06084 06664 33/// /2005 10038 21004 39561 40096 5//// 333 553// 20014;
0087066640999992011010609004+47433+008517FM-12+044399999V0202301N003619999999N9999999N1+00531+00061100961ADDMA1999999095641REMSYN060AAXX  06094 06664 43/// /2307 10053 20006 39564 40096 5////;
0140066640999992011010610004+47433+008517FM-12+044399999V0202201N004119999999N9999999N1+00651+00131100951ADDMA1999999095651MD1310021+9999OA149900931REMSYN088AAXX  06104 06664 33/// /2208 10065 20013 39565 40095 53002 333 55302 20587 91118 91211;
0140066640999992011010611004+47433+008517FM-12+044399999V0202001N005119999999N9999999N1+00701+00181100931ADDMA1999999095641MD1010031+9999OA149900931REMSYN088AAXX  06114 06664 33/// /2010 10070 20018 39564 40093 50003 333 55300 20504 91118 91211;
0140066640999992011010612004+47433+008517FM-12+044399999V0202101N003119999999N9999999N1+00711+00221100881ADDMA1999999095601MD1710041+9999OA149900931REMSYN088AAXX  06124 06664 33/// /2106 10071 20022 39560 40088 57004 333 55300 20130 91118 91211;
0140066640999992011010613004+47433+008517FM-12+044399999V0201901N001519999999N9999999N1+00761+00171100831ADDMA1999999095561MD1710091+9999OA149900931REMSYN088AAXX  06134 06664 33/// /1903 10076 20017 39556 40083 57009 333 55300 20122 91118 91208;
0087066640999992011010614004+47433+008517FM-12+044399999V0202001N003619999999N9999999N1+00781+00241100841ADDMA1999999095571REMSYN060AAXX  06144 06664 43/// /2007 10078 20024 39557 40084 5////;
0087066640999992011010615004+47433+008517FM-12+044399999V0202201N003619999999N9999999N1+00761+00261100841ADDMA1999999095571REMSYN060AAXX  06154 06664 43/// /2207 10076 20026 39557 40084 5////;
0146066640999992011010616004+47433+008517FM-12+044399999V0202201N002619999999N9999999N1+00821+00251100841ADDMA1999999095581MD1210021+9999OA149900881REMSYN094AAXX  06164 06664 23/// /2205 10082 20025 39558 40084 52002 333 55300 20004 69925 91117 91207;
0146066640999992011010617004+47433+008517FM-12+044399999V0202301N003119999999N9999999N1+00711+00431100951ADDMA1999999095661MD1210091+9999OA149900881REMSYN094AAXX  06174 06664 23/// /2306 10071 20043 39566 40095 52009 333 55300 20000 60025 91117 91209;
0182066640999992011010618004+47433+008517FM-12+044399999V0202101N003619999999N9999999N1+00741+00441100931ADDAA112002091KA1120M+00841MA1999999095651MD1210081+9999OA149900931REMSYN106AAXX  06184 06664 03/// /2107 10074 20044 39565 40093 52008 60022 333 10084 55300 20000 69935 91118 91211;
0146066640999992011010619004+47433+008517FM-12+044399999V0202001N003619999999N9999999N1+00721+00441101011ADDMA1999999095721MD1210141+9999OA149900721REMSYN094AAXX  06194 06664 23/// /2007 10072 20044 39572 40101 52014 333 55300 20000 69935 91114 91208;
0146066640999992011010620004+47433+008517FM-12+044399999V0201801N002619999999N9999999N1+00591+00411101091ADDMA1999999095771MD1219999+9999OA149900721REMSYN094AAXX  06204 06664 23/// /1805 10059 20041 39577 40109 52/// 333 55300 20000 60015 91114 91208;
0146066640999992011010621004+47433+008517FM-12+044399999V0201601N002619999999N9999999N1+00621+00381101091ADDMA1999999095781MD1219999+9999OA149900881REMSYN094AAXX  06214 06664 23/// /1605 10062 20038 39578 40109 52/// 333 55300 20000 69915 91117 91209;
0140066640999992011010622004+47433+008517FM-12+044399999V0201501N001019999999N9999999N1+00621+00391101171ADDMA1999999095861MD1210141+9999OA149900461REMSYN088AAXX  06224 06664 33/// /1502 10062 20039 39586 40117 52014 333 55300 20000 91109 91205;
0109066640999992011010623004+47433+008517FM-12+044399999V0201401N001019999999N9999999N1+00621+00481101191ADDMA1999999095871REMSYN082AAXX  06234 06664 23/// /1402 10062 20048 39587 40119 5//// 333 553// 20000 69915;
0087066640999992011010700004+47433+008517FM-12+044399999V0202101N002619999999N9999999N1+00801+00491101181ADDMA1999999095901REMSYN060AAXX  07004 06664 43/// /2105 10080 20049 39590 40118 5////;
0087066640999992011010701004+47433+008517FM-12+044399999V0201701N002119999999N9999999N1+00671+00491101231ADDMA1999999095921REMSYN060AAXX  07014 06664 43/// /1704 10067 20049 39592 40123 5////;
0087066640999992011010702004+47433+008517FM-12+044399999V0201601N002619999999N9999999N1+00721+00501101241ADDMA1999999095941REMSYN060AAXX  07024 06664 43/// /1605 10072 20050 39594 40124 5////;
0087066640999992011010703004+47433+008517FM-12+044399999V0201901N002619999999N9999999N1+00771+00551101261ADDMA1999999095971REMSYN060AAXX  07034 06664 43/// /1905 10077 20055 39597 40126 5////;
0146066640999992011010704004+47433+008517FM-12+044399999V0201601N001519999999N9999999N1+00661+00551101341ADDMA1999999096021MD1310101+9999OA149900511REMSYN094AAXX  07044 06664 23/// /1603 10066 20055 39602 40134 53010 333 55300 20000 69935 91110 91206;
0146066640999992011010705004+47433+008517FM-12+044399999V0202101N003619999999N9999999N1+00811+00601101331ADDMA1999999096041MD1210101+9999OA149900571REMSYN094AAXX  07054 06664 23/// /2107 10081 20060 39604 40133 52010 333 55300 20000 69965 91111 91207;
0230066640999992011010706004+47433+008517FM-12+044399999V0201801N002619999999N9999999N1+00701+00581101391ADDAA112003091AL13600591GJ100129IA2999+00409KA1999N+00551MA1999999096081MD1210111+9999OA149900721REMSYN124AAXX  07064 06664 03/// /1805 10070 20058 39608 40139 52011 60032 333 20055 3/004 55002 55300 20000 69975 70056 91114 91208;
0146066640999992011010707004+47433+008517FM-12+044399999V0201501N001019999999N9999999N1+00571+00481101431ADDMA1999999096091MD1210071+9999OA149900511REMSYN094AAXX  07074 06664 23/// /1502 10057 20048 39609 40143 52007 333 55300 20000 69935 91110 91207;
0109066640999992011010708004+47433+008517FM-12+044399999V0200701N000519999999N9999999N1+00621+00501101381ADDMA1999999096051REMSYN082AAXX  07084 06664 23/// /0701 10062 20050 39605 40138 5//// 333 553// 20025 69915;
0087066640999992011010709004+47433+008517FM-12+044399999V0201401N000519999999N9999999N1+00511+00471101381ADDMA1999999096031REMSYN060AAXX  07094 06664 43/// /1401 10051 20047 39603 40138 5////;
0140066640999992011010710004+47433+008517FM-12+044399999V0202601N000519999999N9999999N1+00761+00611101361ADDMA1999999096061MD1510031+9999OA149900211REMSYN088AAXX  07104 06664 33/// /2601 10076 20061 39606 40136 55003 333 55302 20540 91104 91202;
0140066640999992011010711004+47433+008517FM-12+044399999V0209999C000019999999N9999999N1+00901+00661101321ADDMA1999999096051MD1010001+9999OA149900311REMSYN088AAXX  07114 06664 33/// /0000 10090 20066 39605 40132 50000 333 55307 20965 91106 91204;
0163066640999992011010712004+47433+008517FM-12+044399999V0201701N000519999999N9999999N1+00931+00661101281ADDAA106000591MA1999999096021MD1810011+9999OA149900571REMSYN100AAXX  07124 06664 03/// /1701 10093 20066 39602 40128 58001 69941 333 55300 20601 60005 91111 91207;
0140066640999992011010713004+47433+008517FM-12+044399999V0201201N000519999999N9999999N1+01061+00731101211ADDMA1999999095981MD1710081+9999OA149900151REMSYN088AAXX  07134 06664 33/// /1201 10106 20073 39598 40121 57008 333 55306 2//// 91103 91201;
0087066640999992011010714004+47433+008517FM-12+044399999V0202001N001519999999N9999999N1+01151+00661101181ADDMA1999999095961REMSYN060AAXX  07144 06664 43/// /2003 10115 20066 39596 40118 5////;
0087066640999992011010715004+47433+008517FM-12+044399999V0201601N000519999999N9999999N1+00941+00741101251ADDMA1999999095991REMSYN060AAXX  07154 06664 43/// /1601 10094 20074 39599 40125 5////;
0140066640999992011010716004+47433+008517FM-12+044399999V0209999C000019999999N9999999N1+00871+00731101301ADDMA1999999096031MD1210051+9999OA149900261REMSYN088AAXX  07164 06664 33/// /0000 10087 20073 39603 40130 52005 333 55300 20022 91105 91203;
0140066640999992011010717004+47433+008517FM-12+044399999V0209999C000019999999N9999999N1+00821+00681101351ADDMA1999999096061MD1210101+9999OA149900211REMSYN088AAXX  07174 06664 33/// /0000 10082 20068 39606 40135 52010 333 55300 20000 91104 91201;
0145066640999992011010718004+47433+008517FM-12+044399999V0209999C000019999999N9999999N1+00631+00571101391ADDAA112000591KA1120M+01161MA1999999096071REMSYN094AAXX  07184 06664 03/// /0000 10063 20057 39607 40139 5//// 69942 333 10116 553// 20000 60005;
0140066640999992011010719004+47433+008517FM-12+044399999V0209999C000019999999N9999999N1+00641+00561101401ADDMA1999999096081MD1219999+9999OA149900101REMSYN088AAXX  07194 06664 33/// /0000 10064 20056 39608 40140 52/// 333 55300 20000 91102 91201;
0087066640999992011010720004+47433+008517FM-12+044399999V0201001N001019999999N9999999N1+00581+00511101371ADDMA1999999096041REMSYN060AAXX  07204 06664 43/// /1002 10058 20051 39604 40137 5////;
0087066640999992011010721004+47433+008517FM-12+044399999V0201201N001019999999N9999999N1+00721+00461101341ADDMA1999999096041REMSYN060AAXX  07214 06664 43/// /1202 10072 20046 39604 40134 5////;
0140066640999992011010722004+47433+008517FM-12+044399999V0209999C000019999999N9999999N1+00581+00451101371ADDMA1999999096041MD1710041+9999OA149900261REMSYN088AAXX  07224 06664 33/// /0000 10058 20045 39604 40137 57004 333 55300 20000 91105 91203;
0103066640999992011010723004+47433+008517FM-12+044399999V0202301N000519999999N9999999N1+00531+00441101401ADDMA1999999096061REMSYN076AAXX  07234 06664 33/// /2301 10053 20044 39606 40140 5//// 333 553// 20000;
0103066640999992011010800004+47433+008517FM-12+044399999V0209999C000019999999N9999999N1+00571+00461101431ADDMA1999999096091REMSYN076AAXX  08004 06664 33/// /0000 10057 20046 39609 40143 5//// 333 553// 20000;
0087066640999992011010801004+47433+008517FM-12+044399999V0200601N001019999999N9999999N1+00541+00431101431ADDMA1999999096091REMSYN060AAXX  08014 06664 43/// /0602 10054 20043 39609 40143 5////;
0087066640999992011010802004+47433+008517FM-12+044399999V0202501N000519999999N9999999N1+00521+00451101461ADDMA1999999096111REMSYN060AAXX  08024 06664 43/// /2501 10052 20045 39611 40146 5////;
0087066640999992011010803004+47433+008517FM-12+044399999V0202701N000519999999N9999999N1+00501+00451101451ADDMA1999999096101REMSYN060AAXX  08034 06664 43/// /2701 10050 20045 39610 40145 5////;
0087066640999992011010804004+47433+008517FM-12+044399999V0202701N001019999999N9999999N1+00551+00491101471ADDMA1999999096131REMSYN060AAXX  08044 06664 43/// /2702 10055 20049 39613 40147 5////;
0087066640999992011010805004+47433+008517FM-12+044399999V0201601N000519999999N9999999N1+00581+00511101521ADDMA1999999096181REMSYN060AAXX  08054 06664 43/// /1601 10058 20051 39618 40152 5////;
0134066640999992011010806004+47433+008517FM-12+044399999V0200601N000519999999N9999999N1+00581+00521101561ADDIA2999+00309KA1999N+00401MA1999999096221REMSYN082AAXX  08064 06664 43/// /0601 10058 20052 39622 40156 5//// 333 20040 3/003 55023;
0087066640999992011010807004+47433+008517FM-12+044399999V0202101N002119999999N9999999N1+00821+00701101561ADDMA1999999096261REMSYN060AAXX  08074 06664 43/// /2104 10082 20070 39626 40156 5////;
0103066640999992011010808004+47433+008517FM-12+044399999V0201701N002119999999N9999999N1+00841+00701101531ADDMA1999999096241REMSYN076AAXX  08084 06664 33/// /1704 10084 20070 39624 40153 5//// 333 553// 20007;
0087066640999992011010809004+47433+008517FM-12+044399999V0201101N001519999999N9999999N1+00731+00611101511ADDMA1999999096201REMSYN060AAXX  08094 06664 43/// /1103 10073 20061 39620 40151 5////;
0087066640999992011010810004+47433+008517FM-12+044399999V0202001N001019999999N9999999N1+00921+00621101531ADDMA1999999096251REMSYN060AAXX  08104 06664 43/// /2002 10092 20062 39625 40153 5////;
0087066640999992011010811004+47433+008517FM-12+044399999V0201701N002119999999N9999999N1+01091+00631101431ADDMA1999999096191REMSYN060AAXX  08114 06664 43/// /1704 10109 20063 39619 40143 5////;
0087066640999992011010812004+47433+008517FM-12+044399999V0202301N000519999999N9999999N1+01261+00651101361ADDMA1999999096161REMSYN060AAXX  08124 06664 43/// /2301 10126 20065 39616 40136 5////;
0087066640999992011010813004+47433+008517FM-12+044399999V0202401N004119999999N9999999N1+01371+00641101281ADDMA1999999096101REMSYN060AAXX  08134 06664 43/// /2408 10137 20064 39610 40128 5////;
0087066640999992011010814004+47433+008517FM-12+044399999V0202001N001519999999N9999999N1+01321+00621101281ADDMA1999999096091REMSYN060AAXX  08144 06664 43/// /2003 10132 20062 39609 40128 5////;
0087066640999992011010815004+47433+008517FM-12+044399999V0202001N002119999999N9999999N1+01241+00561101341ADDMA1999999096131REMSYN060AAXX  08154 06664 43/// /2004 10124 20056 39613 40134 5////;
0087066640999992011010816004+47433+008517FM-12+044399999V0202001N001019999999N9999999N1+01021+00611101401ADDMA1999999096151REMSYN060AAXX  08164 06664 43/// /2002 10102 20061 39615 40140 5////;
0087066640999992011010817004+47433+008517FM-12+044399999V0201701N001019999999N9999999N1+00911+00601101391ADDMA1999999096121REMSYN060AAXX  08174 06664 43/// /1702 10091 20060 39612 40139 5////;
0087066640999992011010818004+47433+008517FM-12+044399999V0200901N001019999999N9999999N1+00891+00511101381ADDMA1999999096111REMSYN060AAXX  08184 06664 43/// /0902 10089 20051 39611 40138 5////;
0087066640999992011010819004+47433+008517FM-12+044399999V0200801N001019999999N9999999N1+00841+00451101391ADDMA1999999096111REMSYN060AAXX  08194 06664 43/// /0802 10084 20045 39611 40139 5////;
0087066640999992011010820004+47433+008517FM-12+044399999V0200901N001019999999N9999999N1+00801+00331101371ADDMA1999999096081REMSYN060AAXX  08204 06664 43/// /0902 10080 20033 39608 40137 5////;
0087066640999992011010821004+47433+008517FM-12+044399999V0201001N001519999999N9999999N1+00651+00341101391ADDMA1999999096071REMSYN060AAXX  08214 06664 43/// /1003 10065 20034 39607 40139 5////;
0087066640999992011010822004+47433+008517FM-12+044399999V0200301N000519999999N9999999N1+00651+00341101391ADDMA1999999096071REMSYN060AAXX  08224 06664 43/// /0301 10065 20034 39607 40139 5////;
0087066640999992011010823004+47433+008517FM-12+044399999V0209999C000019999999N9999999N1+00491+00331101391ADDMA1999999096041REMSYN060AAXX  08234 06664 43/// /0000 10049 20033 39604 40139 5////;
0087066640999992011010900004+47433+008517FM-12+044399999V0200401N000519999999N9999999N1+00431+00311101371ADDMA1999999096011REMSYN060AAXX  09004 06664 43/// /0401 10043 20031 39601 40137 5////;
0087066640999992011010901004+47433+008517FM-12+044399999V0202501N000519999999N9999999N1+00301+00201101451ADDMA1999999096061REMSYN060AAXX  09014 06664 43/// /2501 10030 20020 39606 40145 5////;
0087066640999992011010902004+47433+008517FM-12+044399999V0201601N000519999999N9999999N1+00301+00211101461ADDMA1999999096071REMSYN060AAXX  09024 06664 43/// /1601 10030 20021 39607 40146 5////;
0087066640999992011010903004+47433+008517FM-12+044399999V0200501N000519999999N9999999N1+00261+00181101441ADDMA1999999096041REMSYN060AAXX  09034 06664 43/// /0501 10026 20018 39604 40144 5////;
0087066640999992011010904004+47433+008517FM-12+044399999V0202101N002119999999N9999999N1+00621+00281101341ADDMA1999999096021REMSYN060AAXX  09044 06664 43/// /2104 10062 20028 39602 40134 5////;
0087066640999992011010905004+47433+008517FM-12+044399999V0202101N002119999999N9999999N1+00701+00261101311ADDMA1999999096001REMSYN060AAXX  09054 06664 43/// /2104 10070 20026 39600 40131 5////;
0097066640999992011010906004+47433+008517FM-12+044399999V0200801N002619999999N9999999N1+00491+00181101341ADDMA1999999095991REMSYN070AAXX  09064 06664 43/// /0805 10049 20018 39599 40134 5//// 333 55045;
0087066640999992011010907004+47433+008517FM-12+044399999V0200901N001019999999N9999999N1+00521+00191101351ADDMA1999999096011REMSYN060AAXX  09074 06664 43/// /0902 10052 20019 39601 40135 5////;
0103066640999992011010908004+47433+008517FM-12+044399999V0201101N000519999999N9999999N1+00451+00201101441ADDMA1999999096081REMSYN076AAXX  09084 06664 33/// /1101 10045 20020 39608 40144 5//// 333 553// 20014;
0103066640999992011010909004+47433+008517FM-12+044399999V0201201N000519999999N9999999N1+00461+00301101501ADDMA1999999096141REMSYN076AAXX  09094 06664 33/// /1201 10046 20030 39614 40150 5//// 333 553// 20112;
0140066640999992011010910004+47433+008517FM-12+044399999V0200601N001019999999N9999999N1+00631+00331101501ADDMA1999999096171MD1110161+9999OA149900151REMSYN088AAXX  09104 06664 33/// /0602 10063 20033 39617 40150 51016 333 55300 20320 91103 91202;
0140066640999992011010911004+47433+008517FM-12+044399999V0202501N005119999999N9999999N1+01041+00321101411ADDMA1999999096161MD1210081+9999OA149900931REMSYN088AAXX  09114 06664 33/// /2510 10104 20032 39616 40141 52008 333 55300 20346 91118 91211;
0140066640999992011010912004+47433+008517FM-12+044399999V0202601N005719999999N9999999N1+01001+00401101371ADDMA1999999096121MD1810021+9999OA149900981REMSYN088AAXX  09124 06664 33/// /2611 10100 20040 39612 40137 58002 333 55300 20281 91119 91211;
0140066640999992011010913004+47433+008517FM-12+044399999V0202601N002119999999N9999999N1+00821+00461101471ADDMA1999999096181MD1010011+9999OA149900981REMSYN088AAXX  09134 06664 33/// /2604 10082 20046 39618 40147 50001 333 55300 20191 91119 91211;
0087066640999992011010914004+47433+008517FM-12+044399999V0203001N001519999999N9999999N1+00801+00551101521ADDMA1999999096221REMSYN060AAXX  09144 06664 43/// /3003 10080 20055 39622 40152 5////;
0087066640999992011010915004+47433+008517FM-12+044399999V0200801N000519999999N9999999N1+00701+00591101551ADDMA1999999096231REMSYN060AAXX  09154 06664 43/// /0801 10070 20059 39623 40155 5////;
0146066640999992011010916004+47433+008517FM-12+044399999V0209999C000019999999N9999999N1+00731+00601101601ADDMA1999999096281MD1210101+9999OA149900571REMSYN094AAXX  09164 06664 23/// /0000 10073 20060 39628 40160 52010 333 55300 20018 69915 91111 91207;
0146066640999992011010917004+47433+008517FM-12+044399999V0202401N003119999999N9999999N1+00781+00571101631ADDMA1999999096321MD1210101+9999OA149900671REMSYN094AAXX  09174 06664 23/// /2406 10078 20057 39632 40163 52010 333 55300 20000 69935 91113 91207;
0182066640999992011010918004+47433+008517FM-12+044399999V0202401N002119999999N9999999N1+00741+00591101701ADDAA112001091KA1120M+01061MA1999999096381MD1110151+9999OA149900981REMSYN106AAXX  09184 06664 03/// /2404 10074 20059 39638 40170 51015 60012 333 10106 55300 20000 69985 91119 91211;
0146066640999992011010919004+47433+008517FM-12+044399999V0202401N003119999999N9999999N1+00751+00591101721ADDMA1999999096401MD1110121+9999OA149900511REMSYN094AAXX  09194 06664 23/// /2406 10075 20059 39640 40172 51012 333 55300 20000 60035 91110 91206;
0146066640999992011010920004+47433+008517FM-12+044399999V0202201N002119999999N9999999N1+00711+00561101811ADDMA1999999096481MD1310161+9999OA149900621REMSYN094AAXX  09204 06664 23/// /2204 10071 20056 39648 40181 53016 333 55300 20000 60035 91112 91207;
0146066640999992011010921004+47433+008517FM-12+044399999V0202301N002619999999N9999999N1+00671+00561101841ADDMA1999999096501MD1110121+9999OA149900671REMSYN094AAXX  09214 06664 23/// /2305 10067 20056 39650 40184 51012 333 55300 20000 60025 91113 91207;
0146066640999992011010922004+47433+008517FM-12+044399999V0202201N003119999999N9999999N1+00651+00511101901ADDMA1999999096551MD1110151+9999OA149900511REMSYN094AAXX  09224 06664 23/// /2206 10065 20051 39655 40190 51015 333 55300 20000 69945 91110 91206;
0146066640999992011010923004+47433+008517FM-12+044399999V0202301N003619999999N9999999N1+00611+00441101961ADDMA1999999096601MD1310121+9999OA149900721REMSYN094AAXX  09234 06664 23/// /2307 10061 20044 39660 40196 53012 333 55300 20000 60015 91114 91207;
0163066640999992011011000004+47433+008517FM-12+044399999V0202301N002619999999N9999999N1+00541+00401102011ADDAA106010991MA1999999096641MD1110141+9999OA149900931REMSYN100AAXX  10004 06664 03/// /2305 10054 20040 39664 40201 51014 60111 333 55300 20000 60015 91118 91208;
0146066640999992011011001004+47433+008517FM-12+044399999V0202201N002119999999N9999999N1+00511+00361102051ADDMA1999999096671MD1110121+9999OA149900621REMSYN094AAXX  10014 06664 23/// /2204 10051 20036 39667 40205 51012 333 55300 20000 60025 91112 91206;
0109066640999992011011002004+47433+008517FM-12+044399999V0201401N000519999999N9999999N1+00461+00401102101ADDMA1999999096711REMSYN082AAXX  10024 06664 23/// /1401 10046 20040 39671 40210 5//// 333 553// 20000 60015;
0087066640999992011011003004+47433+008517FM-12+044399999V0209999C000019999999N9999999N1+00461+00401102141ADDMA1999999096741REMSYN060AAXX  10034 06664 43/// /0000 10046 20040 39674 40214 5////;
0109066640999992011011004004+47433+008517FM-12+044399999V0203301N001519999999N9999999N1+00451+00361102151ADDMA1999999096751REMSYN082AAXX  10044 06664 23/// /3303 10045 20036 39675 40215 5//// 333 553// 20000 69965;
0146066640999992011011005004+47433+008517FM-12+044399999V0209999C001519999999N9999999N1+00401+00311102171ADDMA1999999096761MD1219999+9999OA149900461REMSYN094AAXX  10054 06664 23/// /0003 10040 20031 39676 40217 52/// 333 55300 20000 69925 91109 91205;
0159066640999992011011006004+47433+008517FM-12+044399999V0209999C001519999999N9999999N1+00361+00251102211ADDAA124016591GJ100009IA2999+00309KA1999N+00371MA1999999096791REMSYN088AAXX  10064 06664 43/// /0003 10036 20025 39679 40221 5//// 333 20037 3/003 55000 70165;
0146066640999992011011007004+47433+008517FM-12+044399999V0203601N001019999999N9999999N1+00321+00221102251ADDMA1999999096821MD1210071+9999OA149900411REMSYN094AAXX  10074 06664 23/// /3602 10032 20022 39682 40225 52007 333 55300 20000 69915 91108 91203;
0087066640999992011011008004+47433+008517FM-12+044399999V0203601N001519999999N9999999N1+00281+00181102291ADDMA1999999096851REMSYN060AAXX  10084 06664 43/// /3603 10028 20018 39685 40229 5////;
0087066640999992011011009004+47433+008517FM-12+044399999V0203501N001519999999N9999999N1+00271+00171102331ADDMA1999999096891REMSYN060AAXX  10094 06664 43/// /3503 10027 20017 39689 40233 5////;
0140066640999992011011010004+47433+008517FM-12+044399999V0200401N001519999999N9999999N1+00311+00181102301ADDMA1999999096871MD1010051+9999OA149900361REMSYN088AAXX  10104 06664 33/// /0403 10031 20018 39687 40230 50005 333 55300 20126 91107 91204;
0140066640999992011011011004+47433+008517FM-12+044399999V0200401N001519999999N9999999N1+00331+00211102271ADDMA1999999096841MD1819999+9999OA149900361REMSYN088AAXX  10114 06664 33/// /0403 10033 20021 39684 40227 58/// 333 55300 20191 91107 91203;
0126066640999992011011012004+47433+008517FM-12+044399999V0200301N001519999999N9999999N1+00351+00191102201ADDAA106000391MA1999999096781REMSYN088AAXX  10124 06664 03/// /0303 10035 20019 39678 40220 5//// 69931 333 553// 20256 60005;
0087066640999992011011013004+47433+008517FM-12+044399999V0200501N002119999999N9999999N1+00361+00161102161ADDMA1999999096741REMSYN060AAXX  10134 06664 43/// /0504 10036 20016 39674 40216 5////;
0087066640999992011011014004+47433+008517FM-12+044399999V0200401N002119999999N9999999N1+00351+00141102101ADDMA1999999096681REMSYN060AAXX  10144 06664 43/// /0404 10035 20014 39668 40210 5////;
0087066640999992011011015004+47433+008517FM-12+044399999V0200401N001519999999N9999999N1+00351+00161102081ADDMA1999999096671REMSYN060AAXX  10154 06664 43/// /0403 10035 20016 39667 40208 5////;
0087066640999992011011016004+47433+008517FM-12+044399999V0200101N001019999999N9999999N1+00331+00141102061ADDMA1999999096641REMSYN060AAXX  10164 06664 43/// /0102 10033 20014 39664 40206 5////;
0087066640999992011011017004+47433+008517FM-12+044399999V0200401N001519999999N9999999N1+00331+00151102041ADDMA1999999096621REMSYN060AAXX  10174 06664 43/// /0403 10033 20015 39662 40204 5////;
0110066640999992011011018004+47433+008517FM-12+044399999V0200401N001519999999N9999999N1+00321+00141102011ADDKA1999M+00371MA1999999096591REMSYN070AAXX  10184 06664 43/// /0403 10032 20014 39659 40201 5//// 333 10037;
0087066640999992011011019004+47433+008517FM-12+044399999V0200501N001519999999N9999999N1+00301+00131101981ADDMA1999999096561REMSYN060AAXX  10194 06664 43/// /0503 10030 20013 39656 40198 5////;
0087066640999992011011020004+47433+008517FM-12+044399999V0203401N000519999999N9999999N1+00291+00151101941ADDMA1999999096521REMSYN060AAXX  10204 06664 43/// /3401 10029 20015 39652 40194 5////;
0087066640999992011011021004+47433+008517FM-12+044399999V0203601N001019999999N9999999N1+00271+00181101941ADDMA1999999096521REMSYN060AAXX  10214 06664 43/// /3602 10027 20018 39652 40194 5////;
0087066640999992011011022004+47433+008517FM-12+044399999V0209999C000019999999N9999999N1+00261+00171101931ADDMA1999999096511REMSYN060AAXX  10224 06664 43/// /0000 10026 20017 39651 40193 5////;
0087066640999992011011023004+47433+008517FM-12+044399999V0209999C000019999999N9999999N1+00261+00181101881ADDMA1999999096461REMSYN060AAXX  10234 06664 43/// /0000 10026 20018 39646 40188 5////;
0087066640999992011011100004+47433+008517FM-12+044399999V0203301N000519999999N9999999N1+00261+00191101841ADDMA1999999096421REMSYN060AAXX  11004 06664 43/// /3301 10026 20019 39642 40184 5////;
0087066640999992011011101004+47433+008517FM-12+044399999V0209999C000019999999N9999999N1+00261+00191101781ADDMA1999999096361REMSYN060AAXX  11014 06664 43/// /0000 10026 20019 39636 40178 5////;
0087066640999992011011102004+47433+008517FM-12+044399999V0201201N000519999999N9999999N1+00261+00211101721ADDMA1999999096311REMSYN060AAXX  11024 06664 43/// /1201 10026 20021 39631 40172 5////;
0087066640999992011011103004+47433+008517FM-12+044399999V0200401N000519999999N9999999N1+00291+00201101671ADDMA1999999096271REMSYN060AAXX  11034 06664 43/// /0401 10029 20020 39627 40167 5////;
0087066640999992011011104004+47433+008517FM-12+044399999V0201101N000519999999N9999999N1+00281+00231101621ADDMA1999999096221REMSYN060AAXX  11044 06664 43/// /1101 10028 20023 39622 40162 5////;
0087066640999992011011105004+47433+008517FM-12+044399999V0201501N002119999999N9999999N1+00391+00201101531ADDMA1999999096151REMSYN060AAXX  11054 06664 43/// /1504 10039 20020 39615 40153 5////;
0097066640999992011011106004+47433+008517FM-12+044399999V0201601N001019999999N9999999N1+00411+00181101481ADDMA1999999096111REMSYN070AAXX  11064 06664 43/// /1602 10041 20018 39611 40148 5//// 333 55000;
0140066640999992011011107004+47433+008517FM-12+044399999V0201701N002119999999N9999999N1+00411+00141101441ADDMA1999999096071MD1619999+9999OA149900361REMSYN088AAXX  11074 06664 33/// /1704 10041 20014 39607 40144 56/// 333 55300 20000 91107 91204;
0103066640999992011011108004+47433+008517FM-12+044399999V0201701N002119999999N9999999N1+00391+00101101411ADDMA1999999096041REMSYN076AAXX  11084 06664 33/// /1704 10039 20010 39604 40141 5//// 333 553// 20040;
0087066640999992011011109004+47433+008517FM-12+044399999V0201701N002619999999N9999999N1+00411+00131101371ADDMA1999999096001REMSYN060AAXX  11094 06664 43/// /1705 10041 20013 39600 40137 5////;
0140066640999992011011110004+47433+008517FM-12+044399999V0201701N001519999999N9999999N1+00511+00151101301ADDMA1999999095961MD1810111+9999OA149900461REMSYN088AAXX  11104 06664 33/// /1703 10051 20015 39596 40130 58011 333 55307 20626 91109 91205;
0140066640999992011011111004+47433+008517FM-12+044399999V0202101N003119999999N9999999N1+00521+00131101231ADDMA1999999095891MD1810151+9999OA149900621REMSYN088AAXX  11114 06664 33/// /2106 10052 20013 39589 40123 58015 333 55302 20605 91112 91206;
0103066640999992011011112004+47433+008517FM-12+044399999V0202301N002619999999N9999999N1+00591+00181101141ADDMA1999999095821REMSYN076AAXX  11124 06664 33/// /2305 10059 20018 39582 40114 5//// 333 553// 20716;
0140066640999992011011113004+47433+008517FM-12+044399999V0201801N001519999999N9999999N1+00591+00161101091ADDMA1999999095771MD1610191+9999OA149900511REMSYN088AAXX  11134 06664 33/// /1803 10059 20016 39577 40109 56019 333 55301 20608 91110 91205;
0087066640999992011011114004+47433+008517FM-12+044399999V0202001N002119999999N9999999N1+00531+00151101141ADDMA1999999095811REMSYN060AAXX  11144 06664 43/// /2004 10053 20015 39581 40114 5////;
0087066640999992011011115004+47433+008517FM-12+044399999V0202501N003619999999N9999999N1+00461+00241101241ADDMA1999999095891REMSYN060AAXX  11154 06664 43/// /2507 10046 20024 39589 40124 5////;
0146066640999992011011116004+47433+008517FM-12+044399999V0202301N004119999999N9999999N1+00421+00251101331ADDMA1999999095971MD1110201+9999OA149900931REMSYN094AAXX  11164 06664 23/// /2308 10042 20025 39597 40133 51020 333 55300 20011 60025 91118 91209;
0146066640999992011011117004+47433+008517FM-12+044399999V0202101N003119999999N9999999N1+00381+00241101421ADDMA1999999096051MD1310221+9999OA149900721REMSYN094AAXX  11174 06664 23/// /2106 10038 20024 39605 40142 53022 333 55300 20000 60035 91114 91208;
0182066640999992011011118004+47433+008517FM-12+044399999V0202101N002119999999N9999999N1+00371+00231101501ADDAA112007191KA1120M+00591MA1999999096121MD1110231+9999OA149900931REMSYN106AAXX  11184 06664 03/// /2104 10037 20023 39612 40150 51023 60072 333 10059 55300 20000 60015 91118 91209;
0140066640999992011011119004+47433+008517FM-12+044399999V0202101N002619999999N9999999N1+00401+00241101601ADDMA1999999096221MD1310251+9999OA149900571REMSYN088AAXX  11194 06664 33/// /2105 10040 20024 39622 40160 53025 333 55300 20000 91111 91206;
0146066640999992011011120004+47433+008517FM-12+044399999V0202101N002119999999N9999999N1+00411+00261101661ADDMA1999999096281MD1110231+9999OA149900511REMSYN094AAXX  11204 06664 23/// /2104 10041 20026 39628 40166 51023 333 55300 20000 69935 91110 91206;
0140066640999992011011121004+47433+008517FM-12+044399999V0202201N002119999999N9999999N1+00451+00271101751ADDMA1999999096371MD1210251+9999OA149900721REMSYN088AAXX  11214 06664 33/// /2204 10045 20027 39637 40175 52025 333 55300 20000 91114 91208;
0140066640999992011011122004+47433+008517FM-12+044399999V0202301N002119999999N9999999N1+00471+00291101821ADDMA1999999096441MD1310221+9999OA149900571REMSYN088AAXX  11224 06664 33/// /2304 10047 20029 39644 40182 53022 333 55300 20000 91111 91206;
0146066640999992011011123004+47433+008517FM-12+044399999V0202201N003119999999N9999999N1+00471+00331101871ADDMA1999999096491MD1110211+9999OA149900671REMSYN094AAXX  11234 06664 23/// /2206 10047 20033 39649 40187 51021 333 55300 20000 69945 91113 91207;
0163066640999992011011200004+47433+008517FM-12+044399999V0202301N001519999999N9999999N1+00481+00321101911ADDAA106000891MA1999999096531MD1110161+9999OA149900931REMSYN100AAXX  12004 06664 03/// /2303 10048 20032 39653 40191 51016 69971 333 55300 20000 60005 91118 91209;
0140066640999992011011201004+47433+008517FM-12+044399999V0202401N002619999999N9999999N1+00501+00291101941ADDMA1999999096561MD1210121+9999OA149900621REMSYN088AAXX  12014 06664 33/// /2405 10050 20029 39656 40194 52012 333 55300 20000 91112 91206;
0109066640999992011011202004+47433+008517FM-12+044399999V0202201N004619999999N9999999N1+00521+00311102031ADDMA1999999096651REMSYN082AAXX  12024 06664 23/// /2209 10052 20031 39665 40203 5//// 333 553// 20000 69925;
0087066640999992011011203004+47433+008517FM-12+044399999V0202301N003119999999N9999999N1+00521+00321102101ADDMA1999999096721REMSYN060AAXX  12034 06664 43/// /2306 10052 20032 39672 40210 5////;
0087066640999992011011204004+47433+008517FM-12+044399999V0202201N004119999999N9999999N1+00531+00341102121ADDMA1999999096741REMSYN060AAXX  12044 06664 43/// /2208 10053 20034 39674 40212 5////;
0103066640999992011011205004+47433+008517FM-12+044399999V0202401N004619999999N9999999N1+00491+00281102241ADDMA1999999096841REMSYN076AAXX  12054 06664 33/// /2409 10049 20028 39684 40224 5//// 333 553// 20000;
0159066640999992011011206004+47433+008517FM-12+044399999V0202301N003119999999N9999999N1+00481+00301102331ADDAA124008191GJ100729IA2999+00309KA1999N+00361MA1999999096931REMSYN088AAXX  12064 06664 43/// /2306 10048 20030 39693 40233 5//// 333 20036 3/003 55012 70082;
0140066640999992011011207004+47433+008517FM-12+044399999V0202401N003619999999N9999999N1+00491+00261102371ADDMA1999999096971MD1110231+9999OA149900721REMSYN088AAXX  12074 06664 33/// /2407 10049 20026 39697 40237 51023 333 55300 20000 91114 91207;
0087066640999992011011208004+47433+008517FM-12+044399999V0202501N003119999999N9999999N1+00491+00241102381ADDMA1999999096981REMSYN060AAXX  12084 06664 43/// /2506 10049 20024 39698 40238 5////;
0087066640999992011011209004+47433+008517FM-12+044399999V0202201N001519999999N9999999N1+00491+00261102441ADDMA1999999097031REMSYN060AAXX  12094 06664 43/// /2203 10049 20026 39703 40244 5////;
0140066640999992011011210004+47433+008517FM-12+044399999V0202301N001519999999N9999999N1+00531+00271102431ADDMA1999999097031MD1219999+9999OA149900571REMSYN088AAXX  12104 06664 33/// /2303 10053 20027 39703 40243 52/// 333 55300 20230 91111 91207;
0140066640999992011011211004+47433+008517FM-12+044399999V0202301N001519999999N9999999N1+00571+00301102391ADDMA1999999097001MD1010021+9999OA149900361REMSYN088AAXX  12114 06664 33/// /2303 10057 20030 39700 40239 50002 333 55300 20320 91107 91205;
0087066640999992011011212004+47433+008517FM-12+044399999V0202301N001519999999N9999999N1+00591+00301102361ADDMA1999999096981REMSYN060AAXX  12124 06664 43/// /2303 10059 20030 39698 40236 5////;
0087066640999992011011213004+47433+008517FM-12+044399999V0202401N002119999999N9999999N1+00611+00301102311ADDMA1999999096931REMSYN060AAXX  12134 06664 43/// /2404 10061 20030 39693 40231 5////;
0087066640999992011011214004+47433+008517FM-12+044399999V0202501N001519999999N9999999N1+00621+00301102341ADDMA1999999096961REMSYN060AAXX  12144 06664 43/// /2503 10062 20030 39696 40234 5////;
0087066640999992011011215004+47433+008517FM-12+044399999V0202401N003619999999N9999999N1+00571+00271102341ADDMA1999999096951REMSYN060AAXX  12154 06664 43/// /2407 10057 20027 39695 40234 5////;
0146066640999992011011216004+47433+008517FM-12+044399999V0202301N002619999999N9999999N1+00541+00331102351ADDMA1999999096961MD1210031+9999OA149900671REMSYN094AAXX  12164 06664 23/// /2305 10054 20033 39696 40235 52003 333 55300 20007 69945 91113 91207;
0140066640999992011011217004+47433+008517FM-12+044399999V0202201N002119999999N9999999N1+00601+00291102311ADDMA1999999096931MD1810031+9999OA149900571REMSYN088AAXX  12174 06664 33/// /2204 10060 20029 39693 40231 58003 333 55300 20000 91111 91205;
0182066640999992011011218004+47433+008517FM-12+044399999V0202301N003119999999N9999999N1+00591+00331102331ADDAA112000891KA1120M+00621MA1999999096951MD1510001+9999OA149900771REMSYN106AAXX  12184 06664 03/// /2306 10059 20033 39695 40233 55000 69982 333 10062 55300 20000 69915 91115 91208;
0140066640999992011011219004+47433+008517FM-12+044399999V0202201N006219999999N9999999N1+00621+00231102291ADDMA1999999096921MD1710041+9999OA149901241REMSYN088AAXX  12194 06664 33/// /2212 10062 20023 39692 40229 57004 333 55300 20000 91124 91212;
0140066640999992011011220004+47433+008517FM-12+044399999V0202301N005119999999N9999999N1+00651+00261102281ADDMA1999999096911MD1710021+9999OA149901241REMSYN088AAXX  12204 06664 33/// /2310 10065 20026 39691 40228 57002 333 55300 20000 91124 91212;
0146066640999992011011221004+47433+008517FM-12+044399999V0202301N006219999999N9999999N1+00621+00331102261ADDMA1999999096891MD1710061+9999OA149901241REMSYN094AAXX  12214 06664 23/// /2312 10062 20033 39689 40226 57006 333 55300 20000 69925 91124 91213;
0146066640999992011011222004+47433+008517FM-12+044399999V0202301N006719999999N9999999N1+00601+00351102271ADDMA1999999096891MD1710031+9999OA149901181REMSYN094AAXX  12224 06664 23/// /2313 10060 20035 39689 40227 57003 333 55300 20000 69955 91123 91213;
0146066640999992011011223004+47433+008517FM-12+044399999V0202301N005119999999N9999999N1+00601+00411102291ADDMA1999999096911MD1210011+9999OA149901181REMSYN094AAXX  12234 06664 23/// /2310 10060 20041 39691 40229 52000 333 55300 20000 69955 91123 91213;
0163066640999992011011300004+47433+008517FM-12+044399999V0202301N005719999999N9999999N1+00651+00471102251ADDAA106003091MA1999999096881MD1710011+9999OA149901241REMSYN100AAXX  13004 06664 03/// /2311 10065 20047 39688 40225 57001 60031 333 55300 20000 60025 91124 91213;
0146066640999992011011301004+47433+008517FM-12+044399999V0202401N002619999999N9999999N1+00701+00531102161ADDMA1999999096811MD1710081+9999OA149900981REMSYN094AAXX  13014 06664 23/// /2405 10070 20053 39681 40216 57008 333 55300 20000 69945 91119 91212;
0146066640999992011011302004+47433+008517FM-12+044399999V0202301N003619999999N9999999N1+00721+00581102161ADDMA1999999096811MD1719999+9999OA149900981REMSYN094AAXX  13024 06664 23/// /2307 10072 20058 39681 40216 57/// 333 55300 20000 69945 91119 91212;
0087066640999992011011303004+47433+008517FM-12+044399999V0202301N003619999999N9999999N1+00751+00611102141ADDMA1999999096801REMSYN060AAXX  13034 06664 43/// /2307 10075 20061 39680 40214 5////;
0146066640999992011011304004+47433+008517FM-12+044399999V0202401N005119999999N9999999N1+00771+00631102121ADDMA1999999096781MD1719999+9999OA149900981REMSYN094AAXX  13044 06664 23/// /2410 10077 20063 39678 40212 57/// 333 55300 20000 69995 91119 91210;
0109066640999992011011305004+47433+008517FM-12+044399999V0202301N005719999999N9999999N1+00801+00641102141ADDMA1999999096811REMSYN082AAXX  13054 06664 23/// /2311 10080 20064 39681 40214 5//// 333 553// 20000 69985;
0230066640999992011011306004+47433+008517FM-12+044399999V0202401N005119999999N9999999N1+00861+00671102121ADDAA112006191AL11200791GJ100009IA2999+00409KA1999N+00581MA1999999096801MD1010001+9999OA149901241REMSYN124AAXX  13064 06664 03/// /2410 10086 20067 39680 40212 50000 60062 333 20058 3/004 55000 55300 20000 69955 70072 91124 91213;
0087066640999992011011307004+47433+008517FM-12+044399999V0202401N005119999999N9999999N1+00911+00681102091ADDMA1999999096781REMSYN060AAXX  13074 06664 43/// /2410 10091 20068 39678 40209 5////;
0087066640999992011011308004+47433+008517FM-12+044399999V0202501N004619999999N9999999N1+00941+00721102121ADDMA1999999096821REMSYN060AAXX  13084 06664 43/// /2509 10094 20072 39682 40212 5////;
0087066640999992011011309004+47433+008517FM-12+044399999V0202401N005119999999N9999999N1+00951+00741102121ADDMA1999999096821REMSYN060AAXX  13094 06664 43/// /2410 10095 20074 39682 40212 5////;
0087066640999992011011310004+47433+008517FM-12+044399999V0202401N005719999999N9999999N1+00941+00721102191ADDMA1999999096881REMSYN060AAXX  13104 06664 43/// /2411 10094 20072 39688 40219 5////;
0087066640999992011011311004+47433+008517FM-12+044399999V0202401N005119999999N9999999N1+00981+00711102161ADDMA1999999096861REMSYN060AAXX  13114 06664 43/// /2410 10098 20071 39686 40216 5////;
0087066640999992011011312004+47433+008517FM-12+044399999V0202401N005119999999N9999999N1+01081+00701102051ADDMA1999999096781REMSYN060AAXX  13124 06664 43/// /2410 10108 20070 39678 40205 5////;
0087066640999992011011313004+47433+008517FM-12+044399999V0202401N006719999999N9999999N1+01141+00681101991ADDMA1999999096731REMSYN060AAXX  13134 06664 43/// /2413 10114 20068 39673 40199 5////;
0087066640999992011011314004+47433+008517FM-12+044399999V0202501N006219999999N9999999N1+01151+00661102011ADDMA1999999096751REMSYN060AAXX  13144 06664 43/// /2512 10115 20066 39675 40201 5////;
0087066640999992011011315004+47433+008517FM-12+044399999V0202401N005119999999N9999999N1+01151+00651102031ADDMA1999999096771REMSYN060AAXX  13154 06664 43/// /2410 10115 20065 39677 40203 5////;
0087066640999992011011316004+47433+008517FM-12+044399999V0202401N005719999999N9999999N1+01141+00681102041ADDMA1999999096781REMSYN060AAXX  13164 06664 43/// /2411 10114 20068 39678 40204 5////;
0140066640999992011011317004+47433+008517FM-12+044399999V0202501N005119999999N9999999N1+01071+00711102081ADDMA1999999096801MD1210051+9999OA149901181REMSYN088AAXX  13174 06664 33/// /2510 10107 20071 39680 40208 52005 333 55300 20000 91123 91213;
0182066640999992011011318004+47433+008517FM-12+044399999V0202401N005719999999N9999999N1+01061+00751102101ADDAA112003091KA1120M+01171MA1999999096821MD1210041+9999OA149901341REMSYN106AAXX  13184 06664 03/// /2411 10106 20075 39682 40210 52004 60032 333 10117 55300 20000 60005 91126 91216;
0140066640999992011011319004+47433+008517FM-12+044399999V0202401N004619999999N9999999N1+01071+00781102111ADDMA1999999096831MD1210051+9999OA149901031REMSYN088AAXX  13194 06664 33/// /2409 10107 20078 39683 40211 52005 333 55300 20000 91120 91213;
0140066640999992011011320004+47433+008517FM-12+044399999V0202401N004119999999N9999999N1+01021+00771102131ADDMA1999999096841MD1210041+9999OA149901031REMSYN088AAXX  13204 06664 33/// /2408 10102 20077 39684 40213 52004 333 55300 20000 91120 91212;
0140066640999992011011321004+47433+008517FM-12+044399999V0202301N003119999999N9999999N1+01041+00751102141ADDMA1999999096851MD1210031+9999OA149901181REMSYN088AAXX  13214 06664 33/// /2306 10104 20075 39685 40214 52003 333 55300 20000 91123 91213;
0146066640999992011011322004+47433+008517FM-12+044399999V0202401N001519999999N9999999N1+00981+00761102171ADDMA1999999096871MD1210041+9999OA149900621REMSYN094AAXX  13224 06664 23/// /2403 10098 20076 39687 40217 52004 333 55300 20000 69915 91112 91207;
0140066640999992011011323004+47433+008517FM-12+044399999V0202101N003119999999N9999999N1+01031+00711102151ADDMA1999999096861MD1210021+9999OA149900621REMSYN088AAXX  13234 06664 33/// /2106 10103 20071 39686 40215 52002 333 55300 20000 91112 91206;
0182066640999992011011400004+47433+008517FM-12+044399999V0202101N003119999999N9999999N1+01031+00691102151ADDAA106000091MA1999999096861MD1210011+9999OA149901341REMSYN100AAXX  14004 06664 03/// /2106 10103 20069 39686 40215 52001 69911 333 55300 20000 60005 91126 91216;EQDQ01  00002PRCP06
0140066640999992011011401004+47433+008517FM-12+044399999V0202101N002119999999N9999999N1+01031+00671102171ADDMA1999999096881MD1210011+9999OA149900571REMSYN088AAXX  14014 06664 33/// /2104 10103 20067 39688 40217 52001 333 55300 20000 91111 91207;
0103066640999992011011402004+47433+008517FM-12+044399999V0202301N002119999999N9999999N1+00991+00681102221ADDMA1999999096921REMSYN076AAXX  14024 06664 33/// /2304 10099 20068 39692 40222 5//// 333 553// 20000;
0140066640999992011011403004+47433+008517FM-12+044399999V0202301N002119999999N9999999N1+01011+00671102221ADDMA1999999096921MD1110061+9999OA149900621REMSYN088AAXX  14034 06664 33/// /2304 10101 20067 39692 40222 51006 333 55300 20000 91112 91207;
0140066640999992011011404004+47433+008517FM-12+044399999V0202501N001519999999N9999999N1+00941+00671102221ADDMA1999999096911MD1010031+9999OA149900411REMSYN088AAXX  14044 06664 33/// /2503 10094 20067 39691 40222 50003 333 55300 20000 91108 91205;
0140066640999992011011405004+47433+008517FM-12+044399999V0202201N002119999999N9999999N1+00941+00651102211ADDMA1999999096901MD1710021+9999OA149900411REMSYN088AAXX  14054 06664 33/// /2204 10094 20065 39690 40221 57002 333 55300 20000 91108 91204;
0249066640999992011011406004+47433+008517FM-12+044399999V0202201N002619999999N9999999N1+00951+00621102221ADDAA112000091AL11200391GJ100009IA2999+00709KA1999N+00921MA1999999096911MD1510011+9999OA149901031REMSYN124AAXX  14064 06664 03/// /2205 10095 20062 39691 40222 55001 69912 333 20092 3/007 55000 55300 20000 60005 70032 91120 91212;EQDQ01  00002PRCP12
0140066640999992011011407004+47433+008517FM-12+044399999V0202201N000519999999N9999999N1+01011+00571102231ADDMA1999999096931MD1210021+9999OA149900461REMSYN088AAXX  14074 06664 33/// /2201 10101 20057 39693 40223 52002 333 55300 20000 91109 91205;
0087066640999992011011408004+47433+008517FM-12+044399999V0202201N002619999999N9999999N1+01041+00521102231ADDMA1999999096941REMSYN060AAXX  14084 06664 43/// /2205 10104 20052 39694 40223 5////;
0087066640999992011011409004+47433+008517FM-12+044399999V0202501N001519999999N9999999N1+01021+00551102231ADDMA1999999096941REMSYN060AAXX  14094 06664 43/// /2503 10102 20055 39694 40223 5////;
0087066640999992011011410004+47433+008517FM-12+044399999V0202201N002619999999N9999999N1+01071+00511102191ADDMA1999999096911REMSYN060AAXX  14104 06664 43/// /2205 10107 20051 39691 40219 5////;
0140066640999992011011411004+47433+008517FM-12+044399999V0202901N002619999999N9999999N1+01031+00611102191ADDMA1999999096901MD1710041+9999OA149900511REMSYN088AAXX  14114 06664 33/// /2905 10103 20061 39690 40219 57004 333 55300 20374 91110 91207;
0140066640999992011011412004+47433+008517FM-12+044399999V0203001N002119999999N9999999N1+01021+00631102151ADDMA1999999096861MD1710081+9999OA149900571REMSYN088AAXX  14124 06664 33/// /3004 10102 20063 39686 40215 57008 333 55300 20331 91111 91207;
0140066640999992011011413004+47433+008517FM-12+044399999V0202401N001519999999N9999999N1+01031+00601102121ADDMA1999999096831MD1710081+9999OA149900511REMSYN088AAXX  14134 06664 33/// /2403 10103 20060 39683 40212 57008 333 55300 20299 91110 91205;
0103066640999992011011414004+47433+008517FM-12+044399999V0202601N001519999999N9999999N1+01021+00591102101ADDMA1999999096811REMSYN076AAXX  14144 06664 33/// /2603 10102 20059 39681 40210 5//// 333 553// 20184;
0140066640999992011011415004+47433+008517FM-12+044399999V0202301N001519999999N9999999N1+01021+00551102091ADDMA1999999096801MD1610061+9999OA149900511REMSYN088AAXX  14154 06664 33/// /2303 10102 20055 39680 40209 56006 333 55300 20108 91110 91207;
0140066640999992011011416004+47433+008517FM-12+044399999V0202301N001019999999N9999999N1+00991+00551102061ADDMA1999999096771MD1810061+9999OA149900261REMSYN088AAXX  14164 06664 33/// /2302 10099 20055 39677 40206 58006 333 55300 20058 91105 91203;
0140066640999992011011417004+47433+008517FM-12+044399999V0209999C000019999999N9999999N1+00711+00561102091ADDMA1999999096741MD1810071+9999OA149900151REMSYN088AAXX  14174 06664 33/// /0000 10071 20056 39674 40209 58007 333 55300 20000 91103 91202;
0159066640999992011011418004+47433+008517FM-12+044399999V0202501N000519999999N9999999N1+00551+00461102071ADDKA1120M+01091MA1999999096691MD1810111+9999OA149900511REMSYN094AAXX  14184 06664 33/// /2501 10055 20046 39669 40207 58011 333 10109 55300 20000 91110 91207;
0140066640999992011011419004+47433+008517FM-12+044399999V0209999C000019999999N9999999N1+00491+00431102081ADDMA1999999096691MD1710081+9999OA149900101REMSYN088AAXX  14194 06664 33/// /0000 10049 20043 39669 40208 57008 333 55300 20000 91102 91201;
0140066640999992011011420004+47433+008517FM-12+044399999V0209999C000019999999N9999999N1+00491+00411102081ADDMA1999999096691MD1710051+9999OA149900101REMSYN088AAXX  14204 06664 33/// /0000 10049 20041 39669 40208 57005 333 55300 20000 91102 91201;
0140066640999992011011421004+47433+008517FM-12+044399999V0209999C000019999999N9999999N1+00511+00401102151ADDMA1999999096761MD1310071+9999OA149900151REMSYN088AAXX  14214 06664 33/// /0000 10051 20040 39676 40215 53007 333 55300 20000 91103 91202;
0140066640999992011011422004+47433+008517FM-12+044399999V0202101N003619999999N9999999N1+00791+00441102161ADDMA1999999096831MD1210141+9999OA149900511REMSYN088AAXX  14224 06664 33/// /2107 10079 20044 39683 40216 52014 333 55300 20000 91110 91207;
0140066640999992011011423004+47433+008517FM-12+044399999V0202201N004119999999N9999999N1+00791+00481102201ADDMA1999999096861MD1210171+9999OA149900721REMSYN088AAXX  14234 06664 33/// /2208 10079 20048 39686 40220 52017 333 55300 20000 91114 91208;
0140066640999992011011500004+47433+008517FM-12+044399999V0202201N004119999999N9999999N1+00861+00461102261ADDMA1999999096931MD1210171+9999OA149901031REMSYN088AAXX  15004 06664 33/// /2208 10086 20046 39693 40226 52017 333 55300 20000 91120 91208;
0146066640999992011011501004+47433+008517FM-12+044399999V0202701N004119999999N9999999N1+00791+00511102381ADDMA1999999097031MD1210201+9999OA149901031REMSYN094AAXX  15014 06664 23/// /2708 10079 20051 39703 40238 52020 333 55300 20000 69965 91120 91208;
0146066640999992011011502004+47433+008517FM-12+044399999V0202201N003119999999N9999999N1+00751+00551102451ADDMA1999999097091MD1219999+9999OA149900881REMSYN094AAXX  15024 06664 23/// /2206 10075 20055 39709 40245 52/// 333 55300 20000 60015 91117 91209;
0109066640999992011011503004+47433+008517FM-12+044399999V0202301N003119999999N9999999N1+00761+00591102541ADDMA1999999097181REMSYN082AAXX  15034 06664 23/// /2306 10076 20059 39718 40254 5//// 333 553// 20000 69925;
0146066640999992011011504004+47433+008517FM-12+044399999V0202601N004619999999N9999999N1+00721+00501102611ADDMA1999999097241MD1210211+9999OA149900771REMSYN094AAXX  15044 06664 23/// /2609 10072 20050 39724 40261 52021 333 55300 20000 69915 91115 91209;
0140066640999992011011505004+47433+008517FM-12+044399999V0202501N002119999999N9999999N1+00691+00401102731ADDMA1999999097351MD1310261+9999OA149900771REMSYN088AAXX  15054 06664 33/// /2504 10069 20040 39735 40273 53026 333 55300 20000 91115 91209;
0230066640999992011011506004+47433+008517FM-12+044399999V0201501N001019999999N9999999N1+00521+00391102861ADDAA112002091AL11200291GJ100009IA2999-00109KA1999N+00361MA1999999097441MD1310261+9999OA149901031REMSYN124AAXX  15064 06664 03/// /1502 10052 20039 39744 40286 53026 60022 333 20036 3/101 55000 55300 20000 60005 70022 91120 91209;
0140066640999992011011507004+47433+008517FM-12+044399999V0201501N000519999999N9999999N1+00471+00371102941ADDMA1999999097501MD1210261+9999OA149900621REMSYN088AAXX  15074 06664 33/// /1501 10047 20037 39750 40294 52026 333 55300 20000 91112 91207;
0140066640999992011011508004+47433+008517FM-12+044399999V0209999C000019999999N9999999N1+00401+00351102971ADDMA1999999097521MD1219999+9999OA149900151REMSYN088AAXX  15084 06664 33/// /0000 10040 20035 39752 40297 52/// 333 55300 20040 91103 91202;
0140066640999992011011509004+47433+008517FM-12+044399999V0209999C000019999999N9999999N1+00641+00491102981ADDMA1999999097571MD1210131+9999OA149900771REMSYN088AAXX  15094 06664 33/// /0000 10064 20049 39757 40298 52013 333 553// 20497 91115 91209;
0140066640999992011011510004+47433+008517FM-12+044399999V0202401N001019999999N9999999N1+00891+00471102941ADDMA1999999097581MD1210081+9999OA149900311REMSYN088AAXX  15104 06664 33/// /2402 10089 20047 39758 40294 52008 333 553// 20839 91106 91202;
0140066640999992011011511004+47433+008517FM-12+044399999V0202201N001519999999N9999999N1+00921+00351102871ADDMA1999999097521MD1010001+9999OA149900411REMSYN088AAXX  15114 06664 33/// /2203 10092 20035 39752 40287 50000 333 55307 20871 91108 91204;
0140066640999992011011512004+47433+008517FM-12+044399999V0202801N001519999999N9999999N1+01021+00341102811ADDMA1999999097491MD1710081+9999OA149900881REMSYN088AAXX  15124 06664 33/// /2803 10102 20034 39749 40281 57008 333 55307 2//// 91117 91209;
0103066640999992011011513004+47433+008517FM-12+044399999V0202901N001519999999N9999999N1+01021+00351102781ADDMA1999999097461REMSYN076AAXX  15134 06664 33/// /2903 10102 20035 39746 40278 5//// 333 553// 2////;
0087066640999992011011514004+47433+008517FM-12+044399999V0202501N001019999999N9999999N1+01031+00361102811ADDMA1999999097491REMSYN060AAXX  15144 06664 43/// /2502 10103 20036 39749 40281 5////;
0087066640999992011011515004+47433+008517FM-12+044399999V0203101N000519999999N9999999N1+00991+00391102851ADDMA1999999097521REMSYN060AAXX  15154 06664 43/// /3101 10099 20039 39752 40285 5////;
0087066640999992011011516004+47433+008517FM-12+044399999V0209999C000019999999N9999999N1+00701+00461102921ADDMA1999999097531REMSYN060AAXX  15164 06664 43/// /0000 10070 20046 39753 40292 5////;
0103066640999992011011517004+47433+008517FM-12+044399999V0201401N000519999999N9999999N1+00581+00371102951ADDMA1999999097531REMSYN076AAXX  15174 06664 33/// /1401 10058 20037 39753 40295 5//// 333 553// 20000;
0110066640999992011011518004+47433+008517FM-12+044399999V0209999C000019999999N9999999N1+00461+00321103001ADDKA1999M+01061MA1999999097561REMSYN070AAXX  15184 06664 43/// /0000 10046 20032 39756 40300 5//// 333 10106;
0087066640999992011011519004+47433+008517FM-12+044399999V0209999C000019999999N9999999N1+00431+00301103001ADDMA1999999097551REMSYN060AAXX  15194 06664 43/// /0000 10043 20030 39755 40300 5////;
0087066640999992011011520004+47433+008517FM-12+044399999V0202601N001519999999N9999999N1+00341+00241103061ADDMA1999999097591REMSYN060AAXX  15204 06664 43/// /2603 10034 20024 39759 40306 5////;
0140066640999992011011521004+47433+008517FM-12+044399999V0200701N001019999999N9999999N1+00271+00201103041ADDMA1999999097561MD1010001+9999OA149900211REMSYN088AAXX  15214 06664 33/// /0702 10027 20020 39756 40304 50000 333 55300 20000 91104 91203;
0140066640999992011011522004+47433+008517FM-12+044399999V0209999C000019999999N9999999N1+00281+00191103061ADDMA1999999097581MD1210031+9999OA149900151REMSYN088AAXX  15224 06664 33/// /0000 10028 20019 39758 40306 52003 333 55300 20000 91103 91202;
0140066640999992011011523004+47433+008517FM-12+044399999V0200801N000519999999N9999999N1+00121+00081103071ADDMA1999999097561MD1710031+9999OA149900101REMSYN088AAXX  15234 06664 33/// /0801 10012 20008 39756 40307 57003 333 55300 20000 91102 91201;
0140066640999992011011600004+47433+008517FM-12+044399999V0200401N000519999999N9999999N1+00151+00101103011ADDMA1999999097511MD1810051+9999OA149900511REMSYN088AAXX  16004 06664 33/// /0401 10015 20010 39751 40301 58005 333 55300 20000 91110 91205;
0140066640999992011011601004+47433+008517FM-12+044399999V0202801N000519999999N9999999N1+00041-00011103041ADDMA1999999097511MD1710071+9999OA149900211REMSYN088AAXX  16014 06664 33/// /2801 10004 21001 39751 40304 57007 333 55300 20000 91104 91203;
0140066640999992011011602004+47433+008517FM-12+044399999V0209999C000019999999N9999999N1+00081+00021103031ADDMA1999999097511MD1719999+9999OA149900211REMSYN088AAXX  16024 06664 33/// /0000 10008 20002 39751 40303 57/// 333 55300 20000 91104 91203;
0087066640999992011011603004+47433+008517FM-12+044399999V0209999C000019999999N9999999N1+00021-00031103031ADDMA1999999097501REMSYN060AAXX  16034 06664 43/// /0000 10002 21003 39750 40303 5////;
0140066640999992011011604004+47433+008517FM-12+044399999V0209999C000019999999N9999999N1-00091-00091103051ADDMA1999999097501MD1510011+9999OA149900101REMSYN088AAXX  16044 06664 33/// /0000 11009 21009 39750 40305 55001 333 55300 20000 91102 91201;
0140066640999992011011605004+47433+008517FM-12+044399999V0209999C000019999999N9999999N1-00081-00081103051ADDMA1999999097501MD1510011+9999OA149900051REMSYN088AAXX  16054 06664 33/// /0000 11008 21008 39750 40305 55001 333 55300 20000 91101 91201;
0207066640999992011011606004+47433+008517FM-12+044399999V0200501N000519999999N9999999N1-00081-00081103081ADDAL19900091GJ103249IA2999-00409KA1999N-00091MA1999999097531MD1310031+9999OA149900211REMSYN112AAXX  16064 06664 33/// /0501 11008 21008 39753 40308 53003 333 21009 3/104 55054 55300 20000 70000 91104 91203;
0140066640999992011011607004+47433+008517FM-12+044399999V0202901N000519999999N9999999N1-00081-00121103121ADDMA1999999097561MD1210061+9999OA149900101REMSYN088AAXX  16074 06664 33/// /2901 11008 21012 39756 40312 52006 333 55300 20000 91102 91201;
0140066640999992011011608004+47433+008517FM-12+044399999V0202601N000519999999N9999999N1-00111-00111103191ADDMA1999999097621MD1219999+9999OA149900101REMSYN088AAXX  16084 06664 33/// /2601 11011 21011 39762 40319 52/// 333 55300 20043 91102 91201;
0140066640999992011011609004+47433+008517FM-12+044399999V0202601N000519999999N9999999N1-00061-00061103191ADDMA1999999097631MD1110101+9999OA149900101REMSYN088AAXX  16094 06664 33/// /2601 11006 21006 39763 40319 51010 333 55300 20274 91102 91201;
0140066640999992011011610004+47433+008517FM-12+044399999V0209999C000019999999N9999999N1+00001-00011103171ADDMA1999999097631MD1210071+9999OA149900211REMSYN088AAXX  16104 06664 33/// /0000 10000 21001 39763 40317 52007 333 55300 20500 91104 91202;
0140066640999992011011611004+47433+008517FM-12+044399999V0209999C000019999999N9999999N1+00161+00161103111ADDMA1999999097601MD1810021+9999OA149900211REMSYN088AAXX  16114 06664 33/// /0000 10016 20016 39760 40311 58002 333 55300 20713 91104 91202;
0140066640999992011011612004+47433+008517FM-12+044399999V0209999C000019999999N9999999N1+00301+00261103021ADDMA1999999097551MD1710081+9999OA149900211REMSYN088AAXX  16124 06664 33/// /0000 10030 20026 39755 40302 57008 333 55300 20774 91104 91203;
0140066640999992011011613004+47433+008517FM-12+044399999V0200601N000519999999N9999999N1+00571+00391102871ADDMA1999999097461MD1810171+9999OA149900151REMSYN088AAXX  16134 06664 33/// /0601 10057 20039 39746 40287 58017 333 55308 2//// 91103 91201;
0140066640999992011011614004+47433+008517FM-12+044399999V0200601N000519999999N9999999N1+00691+00401102821ADDMA1999999097431MD1619999+9999OA149900151REMSYN088AAXX  16144 06664 33/// /0601 10069 20040 39743 40282 56/// 333 553// 20972 91103 91202;
0140066640999992011011615004+47433+008517FM-12+044399999V0203201N000519999999N9999999N1+00631+00331102821ADDMA1999999097421MD1610131+9999OA149900211REMSYN088AAXX  16154 06664 33/// /3201 10063 20033 39742 40282 56013 333 553// 20598 91104 91203;
0140066640999992011011616004+47433+008517FM-12+044399999V0209999C000019999999N9999999N1+00441+00241102851ADDMA1999999097411MD1710051+9999OA149900211REMSYN088AAXX  16164 06664 33/// /0000 10044 20024 39741 40285 57005 333 55306 20151 91104 91203;
0140066640999992011011617004+47433+008517FM-12+044399999V0209999C000019999999N9999999N1+00251+00171102921ADDMA1999999097441MD1310011+9999OA149900151REMSYN088AAXX  16174 06664 33/// /0000 10025 20017 39744 40292 53001 333 55300 20000 91103 91201;
0159066640999992011011618004+47433+008517FM-12+044399999V0201101N000519999999N9999999N1+00121+00081102951ADDKA1120M+00701MA1999999097441MD1210021+9999OA149900211REMSYN094AAXX  16184 06664 33/// /1101 10012 20008 39744 40295 52002 333 10070 55300 20000 91104 91203;
0140066640999992011011619004+47433+008517FM-12+044399999V0209999C000019999999N9999999N1+00141+00051102961ADDMA1999999097461MD1210051+9999OA149900101REMSYN088AAXX  16194 06664 33/// /0000 10014 20005 39746 40296 52005 333 55300 20000 91102 91201;
0140066640999992011011620004+47433+008517FM-12+044399999V0200701N000519999999N9999999N1+00061+00011103001ADDMA1999999097481MD1210041+9999OA149900101REMSYN088AAXX  16204 06664 33/// /0701 10006 20001 39748 40300 52004 333 55300 20000 91102 91201;
0140066640999992011011621004+47433+008517FM-12+044399999V0209999C000019999999N9999999N1-00101-00131103061ADDMA1999999097501MD1110061+9999OA149900151REMSYN088AAXX  16214 06664 33/// /0000 11010 21013 39750 40306 51006 333 55300 20000 91103 91202;
0140066640999992011011622004+47433+008517FM-12+044399999V0200801N000519999999N9999999N1-00151-00151103071ADDMA1999999097501MD1210041+9999OA149900151REMSYN088AAXX  16224 06664 33/// /0801 11015 21015 39750 40307 52004 333 55300 20000 91103 91202;
0140066640999992011011623004+47433+008517FM-12+044399999V0200601N000519999999N9999999N1-00101-00151103061ADDMA1999999097501MD1010021+9999OA149900101REMSYN088AAXX  16234 06664 33/// /0601 11010 21015 39750 40306 50002 333 55300 20000 91102 91201;
0140066640999992011011700004+47433+008517FM-12+044399999V0209999C000019999999N9999999N1-00171-00211103081ADDMA1999999097511MD1410001+9999OA149900211REMSYN088AAXX  17004 06664 33/// /0000 11017 21021 39751 40308 54001 333 55300 20000 91104 91203;
0140066640999992011011701004+47433+008517FM-12+044399999V0201301N000519999999N9999999N1-00161-00221103061ADDMA1999999097491MD1810011+9999OA149900101REMSYN088AAXX  17014 06664 33/// /1301 11016 21022 39749 40306 58001 333 55300 20000 91102 91201;
0140066640999992011011702004+47433+008517FM-12+044399999V0201101N001019999999N9999999N1-00241-00251103081ADDMA1999999097491MD1719999+9999OA149900101REMSYN088AAXX  17024 06664 33/// /1102 11024 21025 39749 40308 57/// 333 55300 20000 91102 91202;
0103066640999992011011703004+47433+008517FM-12+044399999V0209999C000019999999N9999999N1-00251-00251103081ADDMA1999999097491REMSYN076AAXX  17034 06664 33/// /0000 11025 21025 39749 40308 5//// 333 553// 20000;
0140066640999992011011704004+47433+008517FM-12+044399999V0201001N000519999999N9999999N1-00241-00241103041ADDMA1999999097461MD1710031+9999OA149900151REMSYN088AAXX  17044 06664 33/// /1001 11024 21024 39746 40304 57003 333 55300 20000 91103 91202;
0140066640999992011011705004+47433+008517FM-12+044399999V0200801N000519999999N9999999N1-00291-00291103011ADDMA1999999097421MD1710071+9999OA149900151REMSYN088AAXX  17054 06664 33/// /0801 11029 21029 39742 40301 57007 333 55300 20000 91103 91202;
0207066640999992011011706004+47433+008517FM-12+044399999V0201101N000519999999N9999999N1-00281-00281103011ADDAL19900091GJ101989IA2999-00609KA1999N-00291MA1999999097421MD1710071+9999OA149900151REMSYN112AAXX  17064 06664 33/// /1101 11028 21028 39742 40301 57007 333 21029 3/106 55033 55300 20000 70000 91103 91202;
0140066640999992011011707004+47433+008517FM-12+044399999V0201201N000519999999N9999999N1-00241-00241102991ADDMA1999999097411MD1710051+9999OA149900101REMSYN088AAXX  17074 06664 33/// /1201 11024 21024 39741 40299 57005 333 55300 20000 91102 91201;
0087066640999992011011708004+47433+008517FM-12+044399999V0200701N000519999999N9999999N1-00221-00221102981ADDMA1999999097401REMSYN060AAXX  17084 06664 43/// /0701 11022 21022 39740 40298 5////;
0087066640999992011011709004+47433+008517FM-12+044399999V0203001N000519999999N9999999N1-00211-00211102971ADDMA1999999097401REMSYN060AAXX  17094 06664 43/// /3001 11021 21021 39740 40297 5////;
0175066640999992011011710004+47433+008517FM-12+044399999V0209999C000019999999N9999999N1-00181-00191102981ADDMA1999999097411MD1710011+9999OA149900151REMSYN088AAXX  17104 06664 33/// /0000 11018 21019 39741 40298 52000 333 55300 20450 91103 91201;EQDQ01+000022APCTENQ02+000002APC3  
0140066640999992011011711004+47433+008517FM-12+044399999V0209999C000019999999N9999999N1+00021-00011102911ADDMA1999999097391MD1710011+9999OA149900101REMSYN088AAXX  17114 06664 33/// /0000 10002 21001 39739 40291 57001 333 55302 20785 91102 91201;
0140066640999992011011712004+47433+008517FM-12+044399999V0201101N000519999999N9999999N1+00471+00301102791ADDMA1999999097361MD1710041+9999OA149900151REMSYN088AAXX  17124 06664 33/// /1101 10047 20030 39736 40279 57004 333 553// 2//// 91103 91202;
0140066640999992011011713004+47433+008517FM-12+044399999V0202101N002119999999N9999999N1+00791+00281102701ADDMA1999999097341MD1810071+9999OA149900361REMSYN088AAXX  17134 06664 33/// /2104 10079 20028 39734 40270 58007 333 553// 2//// 91107 91205;
0087066640999992011011714004+47433+008517FM-12+044399999V0202601N001519999999N9999999N1+00831+00341102701ADDMA1999999097351REMSYN060AAXX  17144 06664 43/// /2603 10083 20034 39735 40270 5////;
0087066640999992011011715004+47433+008517FM-12+044399999V0202601N001519999999N9999999N1+00831+00281102741ADDMA1999999097381REMSYN060AAXX  17154 06664 43/// /2603 10083 20028 39738 40274 5////;
0140066640999992011011716004+47433+008517FM-12+044399999V0202501N001019999999N9999999N1+00691+00251102791ADDMA1999999097401MD1310061+9999OA149900411REMSYN088AAXX  17164 06664 33/// /2502 10069 20025 39740 40279 53006 333 55305 20140 91108 91204;
0140066640999992011011717004+47433+008517FM-12+044399999V0209999C000019999999N9999999N1+00421+00221102891ADDMA1999999097451MD1110101+9999OA149900411REMSYN088AAXX  17174 06664 33/// /0000 10042 20022 39745 40289 51010 333 55300 20000 91108 91204;
0159066640999992011011718004+47433+008517FM-12+044399999V0209999C000019999999N9999999N1+00281+00181102951ADDKA1120M+00861MA1999999097481MD1310101+9999OA149900411REMSYN094AAXX  17184 06664 33/// /0000 10028 20018 39748 40295 53010 333 10086 55300 20000 91108 91205;
0140066640999992011011719004+47433+008517FM-12+044399999V0209999C000019999999N9999999N1+00191+00101102971ADDMA1999999097481MD1210081+9999OA149900101REMSYN088AAXX  17194 06664 33/// /0000 10019 20010 39748 40297 52008 333 55300 20000 91102 91201;
0140066640999992011011720004+47433+008517FM-12+044399999V0209999C000019999999N9999999N1+00131+00041103011ADDMA1999999097501MD1210051+9999OA149900101REMSYN088AAXX  17204 06664 33/// /0000 10013 20004 39750 40301 52005 333 55300 20000 91102 91201;
0140066640999992011011721004+47433+008517FM-12+044399999V0200501N000519999999N9999999N1+00131+00051102991ADDMA1999999097481MD1210041+9999OA149900411REMSYN088AAXX  17214 06664 33/// /0501 10013 20005 39748 40299 52000 333 55300 20000 91108 91204;
0140066640999992011011722004+47433+008517FM-12+044399999V0203001N000519999999N9999999N1+00051-00031103021ADDMA1999999097501MD1210021+9999OA149900151REMSYN088AAXX  17224 06664 33/// /3001 10005 21003 39750 40302 52002 333 55300 20000 91103 91201;
0140066640999992011011723004+47433+008517FM-12+044399999V0201401N000519999999N9999999N1+00011-00061103011ADDMA1999999097481MD1710021+9999OA149900101REMSYN088AAXX  17234 06664 33/// /1401 10001 21006 39748 40301 57002 333 55300 20000 91102 91201;
0140066640999992011011800004+47433+008517FM-12+044399999V0209999C000019999999N9999999N1+00031-00041103021ADDMA1999999097491MD1210011+9999OA149900411REMSYN088AAXX  18004 06664 33/// /0000 10003 21004 39749 40302 52001 333 55300 20000 91108 91205;
0140066640999992011011801004+47433+008517FM-12+044399999V0209999C000019999999N9999999N1-00011-00081103041ADDMA1999999097501MD1219999+9999OA149900101REMSYN088AAXX  18014 06664 33/// /0000 11001 21008 39750 40304 52/// 333 55300 20000 91102 91201;
0087066640999992011011802004+47433+008517FM-12+044399999V0201201N001019999999N9999999N1+00021-00041103021ADDMA1999999097491REMSYN060AAXX  18024 06664 43/// /1202 10002 21004 39749 40302 5////;
0087066640999992011011803004+47433+008517FM-12+044399999V0209999C000019999999N9999999N1-00021-00051103001ADDMA1999999097461REMSYN060AAXX  18034 06664 43/// /0000 11002 21005 39746 40300 5////;
0103066640999992011011804004+47433+008517FM-12+044399999V0209999C000019999999N9999999N1-00031-00071102971ADDMA1999999097431REMSYN076AAXX  18044 06664 33/// /0000 11003 21007 39743 40297 5//// 333 553// 20000;
0140066640999992011011805004+47433+008517FM-12+044399999V0202601N001019999999N9999999N1-00071-00121102941ADDMA1999999097401MD1710091+9999OA149900151REMSYN088AAXX  18054 06664 33/// /2602 11007 21012 39740 40294 57009 333 55300 20000 91103 91202;
0207066640999992011011806004+47433+008517FM-12+044399999V0209999C000019999999N9999999N1-00081-00131102971ADDAL19900091GJ102829IA2999-00509KA1999N-00071MA1999999097421MD1510041+9999OA149900151REMSYN112AAXX  18064 06664 33/// /0000 11008 21013 39742 40297 55004 333 21007 3/105 55047 55300 20000 70000 91103 91202;
0140066640999992011011807004+47433+008517FM-12+044399999V0209999C000019999999N9999999N1-00021-00071102981ADDMA1999999097441MD1310011+9999OA149900151REMSYN088AAXX  18074 06664 33/// /0000 11002 21007 39744 40298 53001 333 55300 20000 91103 91202;
0087066640999992011011808004+47433+008517FM-12+044399999V0209999C000019999999N9999999N1+00001-00061102981ADDMA1999999097451REMSYN060AAXX  18084 06664 43/// /0000 10000 21006 39745 40298 5////;
0087066640999992011011809004+47433+008517FM-12+044399999V0209999C000019999999N9999999N1+00141+00041102961ADDMA1999999097461REMSYN060AAXX  18094 06664 43/// /0000 10014 20004 39746 40296 5////;
0140066640999992011011810004+47433+008517FM-12+044399999V0209999C000019999999N9999999N1+00231+00111102901ADDMA1999999097421MD1810021+9999OA149900101REMSYN088AAXX  18104 06664 33/// /0000 10023 20011 39742 40290 58002 333 55302 20418 91102 91201;
0140066640999992011011811004+47433+008517FM-12+044399999V0202501N000519999999N9999999N1+00451+00221102811ADDMA1999999097381MD1810071+9999OA149900101REMSYN088AAXX  18114 06664 33/// /2501 10045 20022 39738 40281 58007 333 55302 20659 91102 91201;
0140066640999992011011812004+47433+008517FM-12+044399999V0203401N000519999999N9999999N1+00601+00241102701ADDMA1999999097301MD1819999+9999OA149900151REMSYN088AAXX  18124 06664 33/// /3401 10060 20024 39730 40270 58/// 333 55302 20673 91103 91202;
0103066640999992011011813004+47433+008517FM-12+044399999V0202501N000519999999N9999999N1+00591+00291102641ADDMA1999999097241REMSYN076AAXX  18134 06664 33/// /2501 10059 20029 39724 40264 5//// 333 553// 20392;
0087066640999992011011814004+47433+008517FM-12+044399999V0202701N002119999999N9999999N1+00671+00221102621ADDMA1999999097241REMSYN060AAXX  18144 06664 43/// /2704 10067 20022 39724 40262 5////;
0087066640999992011011815004+47433+008517FM-12+044399999V0202801N001519999999N9999999N1+00651+00201102641ADDMA1999999097251REMSYN060AAXX  18154 06664 43/// /2803 10065 20020 39725 40264 5////;
0140066640999992011011816004+47433+008517FM-12+044399999V0202601N002119999999N9999999N1+00581+00161102691ADDMA1999999097291MD1310051+9999OA149900311REMSYN088AAXX  18164 06664 33/// /2604 10058 20016 39729 40269 53005 333 55300 20101 91106 91204;
0140066640999992011011817004+47433+008517FM-12+044399999V0202701N001019999999N9999999N1+00551+00161102731ADDMA1999999097321MD1310081+9999OA149900311REMSYN088AAXX  18174 06664 33/// /2702 10055 20016 39732 40273 53008 333 55300 20004 91106 91204;
0159066640999992011011818004+47433+008517FM-12+044399999V0202701N000519999999N9999999N1+00461+00171102781ADDKA1120M+00681MA1999999097351MD1110101+9999OA149900311REMSYN094AAXX  18184 06664 33/// /2701 10046 20017 39735 40278 51010 333 10068 55300 20000 91106 91204;
0140066640999992011011819004+47433+008517FM-12+044399999V0202401N000519999999N9999999N1+00551+00221102741ADDMA1999999097331MD1010041+9999OA149900211REMSYN088AAXX  18194 06664 33/// /2401 10055 20022 39733 40274 50004 333 55300 20000 91104 91202;
0140066640999992011011820004+47433+008517FM-12+044399999V0209999C000019999999N9999999N1+00431+00231102791ADDMA1999999097351MD1210031+9999OA149900151REMSYN088AAXX  18204 06664 33/// /0000 10043 20023 39735 40279 52003 333 55300 20000 91103 91202;
0140066640999992011011821004+47433+008517FM-12+044399999V0209999C000019999999N9999999N1+00431+00221102781ADDMA1999999097341MD1710011+9999OA149900311REMSYN088AAXX  18214 06664 33/// /0000 10043 20022 39734 40278 57001 333 55300 20000 91106 91204;
0140066640999992011011822004+47433+008517FM-12+044399999V0209999C000019999999N9999999N1+00381+00221102811ADDMA1999999097361MD1210031+9999OA149900101REMSYN088AAXX  18224 06664 33/// /0000 10038 20022 39736 40281 52003 333 55300 20000 91102 91201;
0140066640999992011011823004+47433+008517FM-12+044399999V0202401N000519999999N9999999N1+00331+00191102831ADDMA1999999097371MD1210021+9999OA149900101REMSYN088AAXX  18234 06664 33/// /2401 10033 20019 39737 40283 52002 333 55300 20000 91102 91201;
