0181066621999992010010206504+47183+007417FM-15+0430LSZG V0203001N00621011401CN0112651N1-00101-00701999999ADDGA1021+007201999GA2041+011401999GA3071+015001999GF107991999999999999999999MA1101291999999REMMET080METAR LSZG 020650Z 30012KT 9999 FEW024 SCT038 BKN057 M01/M07 Q1013 WS R25 NOSIG;
0187066621999992010010207204+47183+007417FM-15+0430LSZG V0202801N00361011401CN0112651N1-00101-00601999999ADDGA1021+007201999GA2041+011401999GA3071+015001999GF107991999999999999999999MA1101291999999REMMET086METAR LSZG 020720Z 28007KT 9999 FEW024 SCT038 BKN057 M01/M06 Q1013 WS R25 R25/D NOSIG;
0193066621999992010010207504+47183+007417FM-15+0430LSZG V0203101N003610147019N0080001N1-00101-00701999999ADDGA1021+007201999GA2071+014701999GF107991999999999999999999MA1101391999999MW1161REMMET102METAR LSZG 020750Z 31007KT 270V340 8000 VCSH FEW024 BKN049 M01/M07 Q1014 WS R25 R25/D TEMPO 1500 SHSN;
0185066621999992010010208204+47183+007417FM-15+0430LSZG V0203001N005710150019N0112651N1-00101-00801999999ADDGA1021+007201999GA2071+015001999GF107991999999999999999999MA1101391999999MW1161REMMET094METAR LSZG 020820Z 30011KT 9999 VCSH FEW024 BKN057 M01/M08 Q1014 WS R25 R25/D TEMPO 1500 SHSN;
0208066621999992010010208504+47183+007417FM-15+0430LSZG V0203101N00671015001CN0112651N1-00101-00801999999ADDGA1021+008401999GA2041+015001999GA3071+057001999GF107991999999999999999999MA1101491999999MW1161REMMET101METAR LSZG 020850Z 31013KT 9999 VCSH FEW028 SCT057 BKN190 M01/M08 Q1015 WS R25 R25/D TEMPO 1500 SHSN;
0208066621999992010010209204+47183+007417FM-15+0430LSZG V0203001N00721015001CN0112651N1-00101-00701999999ADDGA1021+006601999GA2041+015001999GA3071+057001999GF107991999999999999999999MA1101591999999MW1161REMMET101METAR LSZG 020920Z 30014KT 9999 VCSH FEW022 SCT057 BKN190 M01/M07 Q1016 WS R25 R25/D TEMPO 1500 SHSN;
0194066621999992010010209504+47183+007417FM-15+0430LSZG V0202601N002612200019N0112651N1-00101-00901999999ADDGA1021+006601999GA2041+015001999GF104991999999999999999999MA1101591999999MW1161OC100771REMMET095METAR LSZG 020950Z 26005G15KT 190V340 9999 VCSH FEW022 SCT057 M01/M09 Q1016 WS R25 R25/D NOSIG;
0136066621999992010010210204+47183+007417FM-15+0430LSZG V0202601N003112200019N0112651N1-00101-00801999999ADDGA1021+009901999GF102991999999999999999999MA1101591999999REMMET067METAR LSZG 021020Z 26006KT 210V290 9999 FEW033 M01/M08 Q1016 NOSIG;
0136066621999992010010210504+47183+007417FM-15+0430LSZG V0202401N002112200019N0112651N1+00001-00801999999ADDGA1021+010501999GF102991999999999999999999MA1101591999999REMMET067METAR LSZG 021050Z 24004KT 210V280 9999 FEW035 M00/M08 Q1016 NOSIG;
0136066621999992010010211204+47183+007417FM-15+0430LSZG V0202701N002612200019N0112651N1-00101-00801999999ADDGA1021+010501999GF102991999999999999999999MA1101691999999REMMET067METAR LSZG 021120Z 27005KT 200V320 9999 FEW035 M01/M08 Q1017 NOSIG;
0136066621999992010010211504+47183+007417FM-15+0430LSZG V0202901N003112200019N0112651N1+00001-00801999999ADDGA1021+010801999GF102991999999999999999999MA1101691999999REMMET067METAR LSZG 021150Z 29006KT 260V340 9999 FEW036 M00/M08 Q1017 NOSIG;
0127066621999992010010212204+47183+007417FM-15+0430LSZG V0202801N003612200019N0112651N1+00001-00801999999ADDGA1021+010801999GF102991999999999999999999MA1101691999999REMMET058METAR LSZG 021220Z 28007KT 9999 FEW036 00/M08 Q1017 NOSIG;
0136066621999992010010212504+47183+007417FM-15+0430LSZG V0203101N004112200019N0112651N1+00001-01001999999ADDGA1021+010801999GF102991999999999999999999MA1101801999999REMMET067METAR LSZG 021250Z 31008KT 270V350 9999 FEW036 M00/M10 Q1018 NOSIG;
0127066621999992010010213204+47183+007417FM-15+0430LSZG V0203001N004112200019N0112651N1+00001-01001999999ADDGA1021+010801999GF102991999999999999999999MA1101801999999REMMET058METAR LSZG 021320Z 30008KT 9999 FEW036 00/M10 Q1018 NOSIG;
0128066621999992010010213504+47183+007417FM-15+0430LSZG V0203101N004112200019N0112651N1+00001-01001999999ADDGA1021+011401999GF102991999999999999999999MA1101801999999REMMET059METAR LSZG 021350Z 31008KT 9999 FEW038 M00/M10 Q1018 NOSIG;
0128066621999992010010214204+47183+007417FM-15+0430LSZG V0202601N003112200019N0112651N1+00001-00901999999ADDGA1021+011401999GF102991999999999999999999MA1101801999999REMMET059METAR LSZG 021420Z 26006KT 9999 FEW038 M00/M09 Q1018 NOSIG;
0136066621999992010010214504+47183+007417FM-15+0430LSZG V0202901N002612200019N0112651N1+00001-00901999999ADDGA1021+011401999GF102991999999999999999999MA1101901999999REMMET067METAR LSZG 021450Z 29005KT 220V330 9999 FEW038 M00/M09 Q1019 NOSIG;
0128066621999992010010215204+47183+007417FM-15+0430LSZG V0203201N005112200019N0112651N1-00101-00901999999ADDGA1021+011401999GF102991999999999999999999MA1101901999999REMMET059METAR LSZG 021520Z 32010KT 9999 FEW038 M01/M09 Q1019 NOSIG;
0128066621999992010010215504+47183+007417FM-15+0430LSZG V0203201N004112200019N0112651N1-00101-00801999999ADDGA1021+011401999GF102991999999999999999999MA1102001999999REMMET059METAR LSZG 021550Z 32008KT 9999 FEW038 M01/M08 Q1020 NOSIG;
0128066621999992010010216204+47183+007417FM-15+0430LSZG V0203101N003112200019N0112651N1-00201-01101999999ADDGA1021+011401999GF102991999999999999999999MA1102001999999REMMET059METAR LSZG 021620Z 31006KT 9999 FEW038 M02/M11 Q1020 NOSIG;
0080066621999992010010306504+47183+007417FM-15+0430LSZG V0200801N000519999999Y0099001N1-00601-00801999999ADDMA1102101999999REMMET053METAR LSZG 030650Z 08001KT CAVOK M06/M08 Q1021 NOSIG;
0080066621999992010010307204+47183+007417FM-15+0430LSZG V0200701N000519999999Y0099001N1-00701-00801999999ADDMA1102101999999REMMET053METAR LSZG 030720Z 07001KT CAVOK M07/M08 Q1021 NOSIG;
0080066621999992010010307504+47183+007417FM-15+0430LSZG V0209999C000019999999Y0099001N1-00701-00801999999ADDMA1102101999999REMMET053METAR LSZG 030750Z 00000KT CAVOK M07/M08 Q1021 NOSIG;
0080066621999992010010308204+47183+007417FM-15+0430LSZG V0202501N000519999999Y0099001N1-00601-00801999999ADDMA1102101999999REMMET053METAR LSZG 030820Z 25001KT CAVOK M06/M08 Q1021 NOSIG;
0080066621999992010010308504+47183+007417FM-15+0430LSZG V0202501N001019999999Y0099001N1-00601-00701999999ADDMA1102101999999REMMET053METAR LSZG 030850Z 25002KT CAVOK M06/M07 Q1021 NOSIG;
0080066621999992010010309204+47183+007417FM-15+0430LSZG V0202601N000519999999Y0099001N1-00501-00701999999ADDMA1102101999999REMMET053METAR LSZG 030920Z 26001KT CAVOK M05/M07 Q1021 NOSIG;
0080066621999992010010309504+47183+007417FM-15+0430LSZG V0209999C000019999999Y0099001N1-00501-00701999999ADDMA1102101999999REMMET053METAR LSZG 030950Z 00000KT CAVOK M05/M07 Q1021 NOSIG;
0080066621999992010010310204+47183+007417FM-15+0430LSZG V0209999V000519999999Y0099001N1-00401-00701999999ADDMA1102001999999REMMET053METAR LSZG 031020Z VRB01KT CAVOK M04/M07 Q1020 NOSIG;
0128066621999992010010310504+47183+007417FM-15+0430LSZG V0209999V001012200019N0112651N1-00301-00701999999ADDGA1021+010501999GF102991999999999999999999MA1102001999999REMMET059METAR LSZG 031050Z VRB02KT 9999 FEW035 M03/M07 Q1020 NOSIG;
0080066621999992010010311204+47183+007417FM-15+0430LSZG V0209999V000519999999Y0099001N1-00301-00701999999ADDMA1102001999999REMMET053METAR LSZG 031120Z VRB01KT CAVOK M03/M07 Q1020 NOSIG;
0080066621999992010010311504+47183+007417FM-15+0430LSZG V0209999V001519999999Y0099001N1-00201-00801999999ADDMA1101901999999REMMET053METAR LSZG 031150Z VRB03KT CAVOK M02/M08 Q1019 NOSIG;
0080066621999992010010312204+47183+007417FM-15+0430LSZG V0202301N001519999999Y0099001N1-00101-00701999999ADDMA1101901999999REMMET053METAR LSZG 031220Z 23003KT CAVOK M01/M07 Q1019 NOSIG;
0080066621999992010010312504+47183+007417FM-15+0430LSZG V0202201N001519999999Y0099001N1-00101-00701999999ADDMA1101901999999REMMET053METAR LSZG 031250Z 22003KT CAVOK M01/M07 Q1019 NOSIG;
0080066621999992010010313204+47183+007417FM-15+0430LSZG V0209999V000519999999Y0099001N1-00101-00801999999ADDMA1101801999999REMMET053METAR LSZG 031320Z VRB01KT CAVOK M01/M08 Q1018 NOSIG;
0080066621999992010010313504+47183+007417FM-15+0430LSZG V0209999V001019999999Y0099001N1-00101-00801999999ADDMA1101901999999REMMET053METAR LSZG 031350Z VRB02KT CAVOK M01/M08 Q1019 NOSIG;
0080066621999992010010314204+47183+007417FM-15+0430LSZG V0202401N002119999999Y0099001N1+00001-00601999999ADDMA1101901999999REMMET053METAR LSZG 031420Z 24004KT CAVOK M00/M06 Q1019 NOSIG;
0080066621999992010010314504+47183+007417FM-15+0430LSZG V0202401N002619999999Y0099001N1-00101-00701999999ADDMA1101901999999REMMET053METAR LSZG 031450Z 24005KT CAVOK M01/M07 Q1019 NOSIG;
0080066621999992010010315204+47183+007417FM-15+0430LSZG V0202401N002119999999Y0099001N1-00201-00601999999ADDMA1101901999999REMMET053METAR LSZG 031520Z 24004KT CAVOK M02/M06 Q1019 NOSIG;
0080066621999992010010315504+47183+007417FM-15+0430LSZG V0202301N001019999999Y0099001N1-00201-00601999999ADDMA1101901999999REMMET053METAR LSZG 031550Z 23002KT CAVOK M02/M06 Q1019 NOSIG;
0080066621999992010010316204+47183+007417FM-15+0430LSZG V0202101N001519999999Y0099001N1-00301-00701999999ADDMA1101801999999REMMET053METAR LSZG 031620Z 21003KT CAVOK M03/M07 Q1018 NOSIG;
0080066621999992010010406504+47183+007417FM-15+0430LSZG V0200401N001019999999Y0099001N1-00701-00801999999ADDMA1101391999999REMMET053METAR LSZG 040650Z 04002KT CAVOK M07/M08 Q1014 NOSIG;
0080066621999992010010407204+47183+007417FM-15+0430LSZG V0200401N000519999999Y0099001N1-00701-00801999999ADDMA1101391999999REMMET053METAR LSZG 040720Z 04001KT CAVOK M07/M08 Q1014 NOSIG;
0080066621999992010010407504+47183+007417FM-15+0430LSZG V0201001N001019999999Y0099001N1-00601-00801999999ADDMA1101391999999REMMET053METAR LSZG 040750Z 10002KT CAVOK M06/M08 Q1014 NOSIG;
0080066621999992010010408204+47183+007417FM-15+0430LSZG V0200801N001019999999Y0099001N1-00601-00701999999ADDMA1101391999999REMMET053METAR LSZG 040820Z 08002KT CAVOK M06/M07 Q1014 NOSIG;
0080066621999992010010408504+47183+007417FM-15+0430LSZG V0200601N001019999999Y0099001N1-00601-00701999999ADDMA1101391999999REMMET053METAR LSZG 040850Z 06002KT CAVOK M06/M07 Q1014 NOSIG;
0080066621999992010010409204+47183+007417FM-15+0430LSZG V0200301N001019999999Y0099001N1-00601-00701999999ADDMA1101391999999REMMET053METAR LSZG 040920Z 03002KT CAVOK M06/M07 Q1014 NOSIG;
0080066621999992010010409504+47183+007417FM-15+0430LSZG V0200501N001519999999Y0099001N1-00601-00701999999ADDMA1101391999999REMMET053METAR LSZG 040950Z 05003KT CAVOK M06/M07 Q1014 NOSIG;
0080066621999992010010410204+47183+007417FM-15+0430LSZG V0200601N001019999999Y0099001N1-00601-00701999999ADDMA1101391999999REMMET053METAR LSZG 041020Z 06002KT CAVOK M06/M07 Q1014 NOSIG;
0080066621999992010010410504+47183+007417FM-15+0430LSZG V0200301N001519999999Y0099001N1-00501-00701999999ADDMA1101291999999REMMET053METAR LSZG 041050Z 03003KT CAVOK M05/M07 Q1013 NOSIG;
0080066621999992010010411204+47183+007417FM-15+0430LSZG V0200501N001019999999Y0099001N1-00501-00701999999ADDMA1101291999999REMMET053METAR LSZG 041120Z 05002KT CAVOK M05/M07 Q1013 NOSIG;
0080066621999992010010411504+47183+007417FM-15+0430LSZG V0200901N001019999999Y0099001N1-00401-00701999999ADDMA1101191999999REMMET053METAR LSZG 041150Z 09002KT CAVOK M04/M07 Q1012 NOSIG;
0080066621999992010010412204+47183+007417FM-15+0430LSZG V0200901N000519999999Y0099001N1-00401-00801999999ADDMA1101191999999REMMET053METAR LSZG 041220Z 09001KT CAVOK M04/M08 Q1012 NOSIG;
0080066621999992010010412504+47183+007417FM-15+0430LSZG V0209999C000019999999Y0099001N1-00401-00801999999ADDMA1101191999999REMMET053METAR LSZG 041250Z 00000KT CAVOK M04/M08 Q1012 NOSIG;
0080066621999992010010413504+47183+007417FM-15+0430LSZG V0209999C000019999999Y0099001N1-00401-00801999999ADDMA1101081999999REMMET053METAR LSZG 041350Z 00000KT CAVOK M04/M08 Q1011 NOSIG;
0080066621999992010010414204+47183+007417FM-15+0430LSZG V0200901N001019999999Y0099001N1-00301-00701999999ADDMA1101081999999REMMET053METAR LSZG 041420Z 09002KT CAVOK M03/M07 Q1011 NOSIG;
0080066621999992010010415204+47183+007417FM-15+0430LSZG V0209999V000519999999Y0099001N1-00401-00801999999ADDMA1101081999999REMMET053METAR LSZG 041520Z VRB01KT CAVOK M04/M08 Q1011 NOSIG;
0151066621999992010010506504+47183+007417FM-15+0430LSZG V0200801N003110210019N0080001N1-00501-00701999999ADDGA1041+008401999GA2071+021001999GF107991999999999999999999MA1100511999999REMMET066METAR LSZG 050650Z 08006KT 8000 SCT028 BKN070 M05/M07 Q1005 NOSIG;
0151066621999992010010507504+47183+007417FM-15+0430LSZG V0200701N003110114019N0080001N1-00501-00701999999ADDGA1021+008401999GA2071+011401999GF107991999999999999999999MA1100511999999REMMET066METAR LSZG 050750Z 07006KT 8000 FEW028 BKN038 M05/M07 Q1005 NOSIG;
0151066621999992010010508204+47183+007417FM-15+0430LSZG V0200601N003610114019N0080001N1-00401-00701999999ADDGA1021+008401999GA2071+011401999GF107991999999999999999999MA1100511999999REMMET066METAR LSZG 050820Z 06007KT 8000 FEW028 BKN038 M04/M07 Q1005 NOSIG;
0151066621999992010010508504+47183+007417FM-15+0430LSZG V0200801N003110093019N0080001N1-00401-00701999999ADDGA1021+008401999GA2071+009301999GF107991999999999999999999MA1100511999999REMMET066METAR LSZG 050850Z 08006KT 8000 FEW028 BKN031 M04/M07 Q1005 NOSIG;
0151066621999992010010510204+47183+007417FM-15+0430LSZG V0200801N003110093019N0080001N1-00401-00701999999ADDGA1021+008401999GA2071+009301999GF107991999999999999999999MA1100411999999REMMET066METAR LSZG 051020Z 08006KT 8000 FEW028 BKN031 M04/M07 Q1004 NOSIG;
0189066621999992010010510504+47183+007417FM-15+0430LSZG V0200801N00361008701CN0060001N1-00401-00701999999ADDGA1021+007501999GA2041+008701999GA3071+009001999GF107991999999999999999999MA1100411999999MW1711REMMET082METAR LSZG 051050Z 08007KT 6000 -SN FEW025 SCT029 BKN030 M04/M07 Q1004 TEMPO 5000;
0161066621999992010010511504+47183+007417FM-15+0430LSZG V0200901N002610099019N0050001N1-00301-00601999999ADDGA1071+009901999GA2081+011701999GF108991999999999999999999MA1100311999999MW1711REMMET070METAR LSZG 051150Z 09005KT 5000 -SN BKN033 OVC039 M03/M06 Q1003 NOSIG;
0161066621999992010010512204+47183+007417FM-15+0430LSZG V0200701N002110099019N0050001N1-00301-00601999999ADDGA1071+009901999GA2081+011701999GF108991999999999999999999MA1100201999999MW1711REMMET070METAR LSZG 051220Z 07004KT 5000 -SN BKN033 OVC039 M03/M06 Q1002 NOSIG;
0149066621999992010010512504+47183+007417FM-15+0430LSZG V0200801N002110093019N0050001N1-00401-00601999999ADDGA1081+009301999GF108991999999999999999999MA1100201999999MW1711REMMET074METAR LSZG 051250Z 08004KT 5000 -SN OVC031 M04/M06 Q1002 R07/490295 NOSIG;
0161066621999992010010513204+47183+007417FM-15+0430LSZG V0200701N002110105019N0050001N1-00301-00601999999ADDGA1081+010501999GF108991999999999999999999MA1100201999999MW1731REMMET086METAR LSZG 051320Z 07004KT 050V110 5000 SN OVC035 M03/M06 Q1002 R07/490295 TEMPO 2500;
0128066621999992010010513504+47183+007417FM-15+0430LSZG V0200701N002610102019N0050001N1-00301-00501999999ADDGA1081+010201999GF108991999999999999999999MA1100101999999REMMET059METAR LSZG 051350Z 07005KT 5000 OVC034 M03/M05 Q1001 NOSIG;
0151066621999992010010514204+47183+007417FM-15+0430LSZG V0200801N002110093019N0050001N1-00301-00501999999ADDGA1021+003601999GA2081+009301999GF108991999999999999999999MA1100101999999REMMET066METAR LSZG 051420Z 08004KT 5000 FEW012 OVC031 M03/M05 Q1001 NOSIG;
0161066621999992010010514504+47183+007417FM-15+0430LSZG V0200601N003110096019N0050001N1-00301-00501999999ADDGA1021+003601999GA2081+009601999GF108991999999999999999999MA1100101999999MW1711REMMET070METAR LSZG 051450Z 06006KT 5000 -SN FEW012 OVC032 M03/M05 Q1001 NOSIG;
0161066621999992010010515204+47183+007417FM-15+0430LSZG V0200701N002110096019N0050001N1-00301-00501999999ADDGA1021+003601999GA2081+009601999GF108991999999999999999999MA1100101999999MW1711REMMET070METAR LSZG 051520Z 07004KT 5000 -SN FEW012 OVC032 M03/M05 Q1001 NOSIG;
0138066621999992010010515504+47183+007417FM-15+0430LSZG V0200701N002610087019N0050001N1-00301-00501999999ADDGA1081+008701999GF108991999999999999999999MA1100101999999MW1711REMMET063METAR LSZG 051550Z 07005KT 5000 -SN OVC029 M03/M05 Q1001 NOSIG;
0138066621999992010010516204+47183+007417FM-15+0430LSZG V0200801N002610081019N0050001N1-00301-00501999999ADDGA1081+008101999GF108991999999999999999999MA1100101999999MW1711REMMET063METAR LSZG 051620Z 08005KT 5000 -SN OVC027 M03/M05 Q1001 NOSIG;
0158066621999992010010607204+47183+007417FM-15+0430LSZG V0200501N001010084019N0025001N1-00301-00501999999ADDGA1081+008401999GF108991999999999999999999MA1100001999999MW1101MW2711REMMET077METAR LSZG 060720Z 05002KT 2500 -SN BR OVC028 M03/M05 Q1000 R07/490195 NOSIG;
0181066621999992010010607504+47183+007417FM-15+0430LSZG V0200701N001510099019N0030001N1-00301-00501999999ADDGA1021+003001999GA2081+009901999GF108991999999999999999999MA1100001999999MW1101MW2711REMMET084METAR LSZG 060750Z 07003KT 3000 -SN BR FEW010 OVC033 M03/M05 Q1000 R07/490195 NOSIG;
0181066621999992010010608204+47183+007417FM-15+0430LSZG V0200601N002110093019N0030001N1-00301-00501999999ADDGA1021+003001999GA2081+009301999GF108991999999999999999999MA1100001999999MW1101MW2711REMMET084METAR LSZG 060820Z 06004KT 3000 -SN BR FEW010 OVC031 M03/M05 Q1000 R07/490195 NOSIG;
0181066621999992010010608504+47183+007417FM-15+0430LSZG V0200601N001510096019N0030001N1-00301-00501999999ADDGA1021+003001999GA2081+009601999GF108991999999999999999999MA1100101999999MW1101MW2711REMMET084METAR LSZG 060850Z 06003KT 3000 -SN BR FEW010 OVC032 M03/M05 Q1001 R07/490195 NOSIG;
0148066621999992010010609504+47183+007417FM-15+0430LSZG V0200501N002110078019N0040001N1-00301-00401999999ADDGA1081+007801999GF108991999999999999999999MA1100101999999MW1101REMMET073METAR LSZG 060950Z 05004KT 4000 BR OVC026 M03/M04 Q1001 R07/490195 NOSIG;
0148066621999992010010611204+47183+007417FM-15+0430LSZG V0200901N001010072019N0040001N1-00201-00401999999ADDGA1081+007201999GF108991999999999999999999MA1100101999999MW1101REMMET073METAR LSZG 061120Z 09002KT 4000 BR OVC024 M02/M04 Q1001 R07/490195 NOSIG;
0148066621999992010010611504+47183+007417FM-15+0430LSZG V0200601N001510072019N0040001N1-00201-00401999999ADDGA1081+007201999GF108991999999999999999999MA1100101999999MW1101REMMET073METAR LSZG 061150Z 06003KT 4000 BR OVC024 M02/M04 Q1001 R07/490195 NOSIG;
0148066621999992010010612204+47183+007417FM-15+0430LSZG V0200601N001510072019N0040001N1-00201-00401999999ADDGA1081+007201999GF108991999999999999999999MA1100101999999MW1101REMMET073METAR LSZG 061220Z 06003KT 4000 BR OVC024 M02/M04 Q1001 R07/490195 NOSIG;
0171066621999992010010612504+47183+007417FM-15+0430LSZG V0200601N001510084019N0050001N1-00201-00401999999ADDGA1021+002401999GA2081+008401999GF108991999999999999999999MA1100101999999MW1101REMMET080METAR LSZG 061250Z 06003KT 5000 BR FEW008 OVC028 M02/M04 Q1001 R07/420195 NOSIG;
0171066621999992010010613204+47183+007417FM-15+0430LSZG V0200501N001510084019N0050001N1-00101-00401999999ADDGA1021+002401999GA2081+008401999GF108991999999999999999999MA1100101999999MW1101REMMET080METAR LSZG 061320Z 05003KT 5000 BR FEW008 OVC028 M01/M04 Q1001 R07/420195 NOSIG;
0171066621999992010010613504+47183+007417FM-15+0430LSZG V0200501N001510111019N0050001N1-00101-00301999999ADDGA1041+008401999GA2081+011101999GF108991999999999999999999MA1100101999999MW1101REMMET080METAR LSZG 061350Z 05003KT 5000 BR SCT028 OVC037 M01/M03 Q1001 R07/410195 NOSIG;
0162066621999992010010614504+47183+007417FM-15+0430LSZG V0200501N002110111019N0060001N1-00101-00401999999ADDGA1041+007201999GA2081+011101999GF108991999999999999999999MA1100101999999REMMET077METAR LSZG 061450Z 05004KT 6000 SCT024 OVC037 M01/M04 Q1001 R07/410195 NOSIG;
0160066621999992010010615504+47183+007417FM-15+0430LSZG V0200801N001510114019N0050001N1-00101-00401999999ADDGA1041+007201999GA2081+011401999GF108991999999999999999999MA1100101999999MW1101REMMET069METAR LSZG 061550Z 08003KT 5000 BR SCT024 OVC038 M01/M04 Q1001 NOSIG;
0160066621999992010010616204+47183+007417FM-15+0430LSZG V0200701N001010114019N0050001N1-00201-00401999999ADDGA1041+007201999GA2081+011401999GF108991999999999999999999MA1100201999999MW1101REMMET069METAR LSZG 061620Z 07002KT 5000 BR SCT024 OVC038 M02/M04 Q1002 NOSIG;
0137066621999992010010617204+47183+007417FM-15+0430LSZG V0200601N001010066019N0050001N1-00301-00401999999ADDGA1081+006601999GF108991999999999999999999MA1100201999999MW1101REMMET062METAR LSZG 061720Z 06002KT 5000 BR OVC022 M03/M04 Q1002 NOSIG;
0160066621999992010010617504+47183+007417FM-15+0430LSZG V0200601N001010600019N0050001N1-00201-00401999999ADDGA1041+008101999GA2071+060001999GF107991999999999999999999MA1100201999999MW1101REMMET069METAR LSZG 061750Z 06002KT 5000 BR SCT027 BKN200 M02/M04 Q1002 NOSIG;
0160066621999992010010618204+47183+007417FM-15+0430LSZG V0200501N001010600019N0050001N1-00301-00501999999ADDGA1041+008101999GA2071+060001999GF107991999999999999999999MA1100201999999MW1101REMMET069METAR LSZG 061820Z 05002KT 5000 BR SCT027 BKN200 M03/M05 Q1002 NOSIG;
0160066621999992010010618504+47183+007417FM-15+0430LSZG V0200301N000510600019N0050001N1-00401-00501999999ADDGA1041+008101999GA2071+060001999GF107991999999999999999999MA1100311999999MW1101REMMET069METAR LSZG 061850Z 03001KT 5000 BR SCT027 BKN200 M04/M05 Q1003 NOSIG;
0171066621999992010010706504+47183+007417FM-15+0430LSZG V0200501N001010045019N0030001N1-00301-00401999999ADDGA1071+004501999GA2081+007201999GF108991999999999999999999MA1100511999999MW1101REMMET080METAR LSZG 070650Z 05002KT 3000 BR BKN015 OVC024 M03/M04 Q1005 R25/490195 NOSIG;
0176066621999992010010707204+47183+007417FM-15+0430LSZG V0200801N001010045019N0040001N1-00301-00401999999ADDGA1071+004501999GA2081+007201999GF108991999999999999999999MA1100611999999MW1101REMMET085METAR LSZG 070720Z 08002KT 4000 BR BKN015 OVC024 M03/M04 Q1006 R25/490195 BECMG 5000;
0148066621999992010010707504+47183+007417FM-15+0430LSZG V0200801N001010054019N0050001N1-00201-00401999999ADDGA1071+005401999GF107991999999999999999999MA1100611999999MW1101REMMET073METAR LSZG 070750Z 08002KT 5000 BR BKN018 M02/M04 Q1006 R25/490195 NOSIG;
0148066621999992010010708204+47183+007417FM-15+0430LSZG V0200501N001510054019N0050001N1-00201-00401999999ADDGA1071+005401999GF107991999999999999999999MA1100611999999MW1101REMMET073METAR LSZG 070820Z 05003KT 5000 BR BKN018 M02/M04 Q1006 R25/490195 NOSIG;
0171066621999992010010708504+47183+007417FM-15+0430LSZG V0200501N001510081019N0050001N1-00201-00301999999ADDGA1041+004501999GA2071+008101999GF107991999999999999999999MA1100611999999MW1101REMMET080METAR LSZG 070850Z 05003KT 5000 BR SCT015 BKN027 M02/M03 Q1006 R25/490195 NOSIG;
0171066621999992010010709204+47183+007417FM-15+0430LSZG V0200501N001510057019N0050001N1-00201-00401999999ADDGA1021+003001999GA2071+005701999GF107991999999999999999999MA1100711999999MW1101REMMET080METAR LSZG 070920Z 05003KT 5000 BR FEW010 BKN019 M02/M04 Q1007 R25/490195 NOSIG;
0162066621999992010010709504+47183+007417FM-15+0430LSZG V0200901N001510072019N0060001N1-00201-00301999999ADDGA1041+005401999GA2071+007201999GF107991999999999999999999MA1100711999999REMMET077METAR LSZG 070950Z 09003KT 6000 SCT018 BKN024 M02/M03 Q1007 R25/490195 NOSIG;
0162066621999992010010710504+47183+007417FM-15+0430LSZG V0200501N001510084019N0060001N1-00101-00301999999ADDGA1041+005401999GA2071+008401999GF107991999999999999999999MA1100711999999REMMET077METAR LSZG 071050Z 05003KT 6000 SCT018 BKN028 M01/M03 Q1007 R25/420195 NOSIG;
0185066621999992010010711204+47183+007417FM-15+0430LSZG V0200501N00101005401CN0070001N1-00101-00401999999ADDGA1021+003601999GA2041+005401999GA3071+008701999GF107991999999999999999999MA1100711999999REMMET084METAR LSZG 071120Z 05002KT 7000 FEW012 SCT018 BKN029 M01/M04 Q1007 R25/420195 NOSIG;
0162066621999992010010711504+47183+007417FM-15+0430LSZG V0200101N000510075019N0070001N1-00101-00401999999ADDGA1041+003601999GA2071+007501999GF107991999999999999999999MA1100711999999REMMET077METAR LSZG 071150Z 01001KT 7000 SCT012 BKN025 M01/M04 Q1007 R25/420195 NOSIG;
0162066621999992010010712204+47183+007417FM-15+0430LSZG V0209999C000010084019N0070001N1-00101-00401999999ADDGA1041+003601999GA2071+008401999GF107991999999999999999999MA1100711999999REMMET077METAR LSZG 071220Z 00000KT 7000 SCT012 BKN028 M01/M04 Q1007 R25/420195 NOSIG;
0162066621999992010010712504+47183+007417FM-15+0430LSZG V0209999C000010078019N0070001N1-00101-00301999999ADDGA1041+003601999GA2071+007801999GF107991999999999999999999MA1100711999999REMMET077METAR LSZG 071250Z 00000KT 7000 SCT012 BKN026 M01/M03 Q1007 R25/420195 NOSIG;
0162066621999992010010713204+47183+007417FM-15+0430LSZG V0209999C000010078019N0070001N1-00101-00401999999ADDGA1041+003601999GA2071+007801999GF107991999999999999999999MA1100711999999REMMET077METAR LSZG 071320Z 00000KT 7000 SCT012 BKN026 M01/M04 Q1007 R25/410195 NOSIG;
0180066621999992010010713504+47183+007417FM-15+0430LSZG V0203201N00051007801CN0080001N1+00001-00301999999ADDGA1021+003601999GA2041+007801999GA3071+024001999GF107991999999999999999999MA1100711999999REMMET079METAR LSZG 071350Z 32001KT 8000 FEW012 SCT026 BKN085 M00/M03 Q1007 R25/D NOSIG;
0174066621999992010010714504+47183+007417FM-15+0430LSZG V0209999C00001007801CN0090001N1+00001-00401999999ADDGA1021+004801999GA2041+007801999GA3071+027001999GF107991999999999999999999MA1100711999999REMMET073METAR LSZG 071450Z 00000KT 9000 FEW016 SCT026 BKN090 M00/M04 Q1007 NOSIG;
0151066621999992010010715504+47183+007417FM-15+0430LSZG V0209999C000010210019N0080001N1-00101-00301999999ADDGA1021+007801999GA2071+021001999GF107991999999999999999999MA1100811999999REMMET066METAR LSZG 071550Z 00000KT 8000 FEW026 BKN075 M01/M03 Q1008 NOSIG;
0162066621999992010010807204+47183+007417FM-15+0430LSZG V0200801N004610093019N0080001N1-00201-00301999999ADDGA1041+006001999GA2081+009301999GF108991999999999999999999MA1100511999999REMMET077METAR LSZG 080720Z 08009KT 8000 SCT020 OVC031 M02/M03 Q1005 R07/490294 NOSIG;
0149066621999992010010807504+47183+007417FM-15+0430LSZG V0200801N004610081019N0015001N1-00101-00301999999ADDGA1081+008101999GF108991999999999999999999MA1100511999999MW1711REMMET074METAR LSZG 080750Z 08009KT 1500 -SN OVC027 M01/M03 Q1005 R07/490294 NOSIG;
0158066621999992010010808204+47183+007417FM-15+0430LSZG V0200901N005710093019N0020001N1-00101-00301999999ADDGA1081+009301999GF108991999999999999999999MA1100411999999MW1101MW2711REMMET077METAR LSZG 080820Z 09011KT 2000 -SN BR OVC031 M01/M03 Q1004 R07/490294 NOSIG;
0181066621999992010010808504+47183+007417FM-15+0430LSZG V0200901N006210096019N0020001N1-00101-00301999999ADDGA1071+009601999GA2081+012601999GF108991999999999999999999MA1100411999999MW1101MW2711REMMET084METAR LSZG 080850Z 09012KT 2000 -SN BR BKN032 OVC042 M01/M03 Q1004 R07/490294 NOSIG;
0158066621999992010010809204+47183+007417FM-15+0430LSZG V0200901N008710096019N0020001N1-00101-00301999999ADDGA1071+009601999GF107991999999999999999999MA1100411999999MW1101MW2711REMMET077METAR LSZG 080920Z 09017KT 2000 -SN BR BKN032 M01/M03 Q1004 R07/490294 NOSIG;
0171066621999992010010809504+47183+007417FM-15+0430LSZG V0200901N008710084019N0040001N1-00101-00301999999ADDGA1021+003001999GA2071+008401999GF107991999999999999999999MA1100411999999MW1101REMMET080METAR LSZG 080950Z 09017KT 4000 BR FEW010 BKN028 M01/M03 Q1004 R07/450294 NOSIG;
0162066621999992010010810204+47183+007417FM-15+0430LSZG V0200801N008710069019N0050001N1-00101-00401999999ADDGA1021+003001999GA2071+006901999GF107991999999999999999999MA1100411999999REMMET077METAR LSZG 081020Z 08017KT 5000 FEW010 BKN023 M01/M04 Q1004 R07/420294 NOSIG;
0139066621999992010010810504+47183+007417FM-15+0430LSZG V0200901N008210069019N0050001N1-00101-00501999999ADDGA1071+006901999GF107991999999999999999999MA1100311999999REMMET070METAR LSZG 081050Z 09016KT 5000 BKN023 M01/M05 Q1003 R07/420294 NOSIG;
0139066621999992010010811204+47183+007417FM-15+0430LSZG V0200801N008210069019N0080001N1-00101-00501999999ADDGA1071+006901999GF107991999999999999999999MA1100311999999REMMET070METAR LSZG 081120Z 08016KT 8000 BKN023 M01/M05 Q1003 R07/420294 NOSIG;
0139066621999992010010811504+47183+007417FM-15+0430LSZG V0200901N007210075019N0080001N1-00101-00401999999ADDGA1071+007501999GF107991999999999999999999MA1100311999999REMMET070METAR LSZG 081150Z 09014KT 8000 BKN025 M01/M04 Q1003 R07/420294 NOSIG;
0139066621999992010010812204+47183+007417FM-15+0430LSZG V0200901N006710075019N0080001N1-00101-00401999999ADDGA1071+007501999GF107991999999999999999999MA1100201999999REMMET070METAR LSZG 081220Z 09013KT 8000 BKN025 M01/M04 Q1002 R07/420294 NOSIG;
0139066621999992010010812504+47183+007417FM-15+0430LSZG V0200901N006710069019N0080001N1-00101-00401999999ADDGA1071+006901999GF107991999999999999999999MA1100201999999REMMET070METAR LSZG 081250Z 09013KT 8000 BKN023 M01/M04 Q1002 R07/420294 NOSIG;
0139066621999992010010813204+47183+007417FM-15+0430LSZG V0200901N007210069019N0080001N1-00101-00401999999ADDGA1071+006901999GF107991999999999999999999MA1100201999999REMMET070METAR LSZG 081320Z 09014KT 8000 BKN023 M01/M04 Q1002 R07/420294 NOSIG;
0139066621999992010010813504+47183+007417FM-15+0430LSZG V0200901N007210066019N0080001N1-00101-00401999999ADDGA1071+006601999GF107991999999999999999999MA1100201999999REMMET070METAR LSZG 081350Z 09014KT 8000 BKN022 M01/M04 Q1002 R07/420294 NOSIG;
0139066621999992010010814204+47183+007417FM-15+0430LSZG V0200801N005710063019N0080001N1-00101-00401999999ADDGA1071+006301999GF107991999999999999999999MA1100201999999REMMET070METAR LSZG 081420Z 08011KT 8000 BKN021 M01/M04 Q1002 R07/420294 NOSIG;
0139066621999992010010814504+47183+007417FM-15+0430LSZG V0200501N005110048019N0080001N1-00101-00401999999ADDGA1071+004801999GF107991999999999999999999MA1100201999999REMMET070METAR LSZG 081450Z 05010KT 8000 BKN016 M01/M04 Q1002 R07/420294 NOSIG;
0139066621999992010010815204+47183+007417FM-15+0430LSZG V0200401N006710048019N0070001N1-00101-00401999999ADDGA1071+004801999GF107991999999999999999999MA1100201999999REMMET070METAR LSZG 081520Z 04013KT 7000 BKN016 M01/M04 Q1002 R07/420294 NOSIG;
0139066621999992010010815504+47183+007417FM-15+0430LSZG V0200401N006710051019N0070001N1-00201-00501999999ADDGA1071+005101999GF107991999999999999999999MA1100311999999REMMET070METAR LSZG 081550Z 04013KT 7000 BKN017 M02/M05 Q1003 R07/420294 NOSIG;
0139066621999992010010906504+47183+007417FM-15+0430LSZG V0201001N004110060019N0070001N1-00401-00601999999ADDGA1071+006001999GF107991999999999999999999MA1100201999999REMMET070METAR LSZG 090650Z 10008KT 7000 BKN020 M04/M06 Q1002 R07/450295 NOSIG;
0139066621999992010010907204+47183+007417FM-15+0430LSZG V0200801N002610060019N0070001N1-00301-00701999999ADDGA1071+006001999GF107991999999999999999999MA1100201999999REMMET070METAR LSZG 090720Z 08005KT 7000 BKN020 M03/M07 Q1002 R07/450295 NOSIG;
0139066621999992010010907504+47183+007417FM-15+0430LSZG V0200901N004110060019N0070001N1-00401-00701999999ADDGA1071+006001999GF107991999999999999999999MA1100311999999REMMET070METAR LSZG 090750Z 09008KT 7000 BKN020 M04/M07 Q1003 R07/450295 NOSIG;
0139066621999992010010908504+47183+007417FM-15+0430LSZG V0200701N004110066019N0080001N1-00401-00701999999ADDGA1071+006601999GF107991999999999999999999MA1100311999999REMMET070METAR LSZG 090850Z 07008KT 8000 BKN022 M04/M07 Q1003 R07/450295 NOSIG;
0139066621999992010010909204+47183+007417FM-15+0430LSZG V0200801N004110066019N0080001N1-00401-00701999999ADDGA1071+006601999GF107991999999999999999999MA1100311999999REMMET070METAR LSZG 090920Z 08008KT 8000 BKN022 M04/M07 Q1003 R07/450295 NOSIG;
0139066621999992010010909504+47183+007417FM-15+0430LSZG V0200801N003110063019N0090001N1-00301-00701999999ADDGA1071+006301999GF107991999999999999999999MA1100311999999REMMET070METAR LSZG 090950Z 08006KT 9000 BKN021 M03/M07 Q1003 R07/450295 NOSIG;
0139066621999992010010910204+47183+007417FM-15+0430LSZG V0200901N003110066019N0090001N1-00301-00701999999ADDGA1071+006601999GF107991999999999999999999MA1100311999999REMMET070METAR LSZG 091020Z 09006KT 9000 BKN022 M03/M07 Q1003 R07/450295 NOSIG;
0139066621999992010010910504+47183+007417FM-15+0430LSZG V0201001N003110063019N0090001N1-00401-00701999999ADDGA1071+006301999GF107991999999999999999999MA1100201999999REMMET070METAR LSZG 091050Z 10006KT 9000 BKN021 M04/M07 Q1002 R07/450295 NOSIG;
0139066621999992010010912204+47183+007417FM-15+0430LSZG V0201001N003610063019N0090001N1-00301-00701999999ADDGA1071+006301999GF107991999999999999999999MA1100201999999REMMET070METAR LSZG 091220Z 10007KT 9000 BKN021 M03/M07 Q1002 R07/450295 NOSIG;
0139066621999992010010912504+47183+007417FM-15+0430LSZG V0201101N003610069019N0090001N1-00301-00701999999ADDGA1081+006901999GF108991999999999999999999MA1100201999999REMMET070METAR LSZG 091250Z 11007KT 9000 OVC023 M03/M07 Q1002 R07/450295 NOSIG;
0147066621999992010010913204+47183+007417FM-15+0430LSZG V0201001N003110069019N0090001N1-00301-00701999999ADDGA1081+006901999GF108991999999999999999999MA1100201999999REMMET078METAR LSZG 091320Z 10006KT 050V140 9000 OVC023 M03/M07 Q1002 R07/450295 NOSIG;
0139066621999992010010913504+47183+007417FM-15+0430LSZG V0200601N002610075019N0090001N1-00301-00701999999ADDGA1081+007501999GF108991999999999999999999MA1100201999999REMMET070METAR LSZG 091350Z 06005KT 9000 OVC025 M03/M07 Q1002 R07/450295 NOSIG;
0139066621999992010010914204+47183+007417FM-15+0430LSZG V0200801N003110066019N0090001N1-00301-00701999999ADDGA1081+006601999GF108991999999999999999999MA1100201999999REMMET070METAR LSZG 091420Z 08006KT 9000 OVC022 M03/M07 Q1002 R07/450295 NOSIG;
0139066621999992010010914504+47183+007417FM-15+0430LSZG V0200601N002110066019N0090001N1-00401-00701999999ADDGA1081+006601999GF108991999999999999999999MA1100311999999REMMET070METAR LSZG 091450Z 06004KT 9000 OVC022 M04/M07 Q1003 R07/450295 NOSIG;
0139066621999992010010915204+47183+007417FM-15+0430LSZG V0201001N002610066019N0090001N1-00401-00701999999ADDGA1081+006601999GF108991999999999999999999MA1100311999999REMMET070METAR LSZG 091520Z 10005KT 9000 OVC022 M04/M07 Q1003 R07/450295 NOSIG;
0139066621999992010010915504+47183+007417FM-15+0430LSZG V0200901N003110066019N0070001N1-00401-00701999999ADDGA1081+006601999GF108991999999999999999999MA1100311999999REMMET070METAR LSZG 091550Z 09006KT 7000 OVC022 M04/M07 Q1003 R07/450295 NOSIG;
0168066621999992010011006504+47183+007417FM-15+0430LSZG V0202501N000510210019N0040001N1-00601-00701999999ADDGA1041+001801999GA2071+021001999GF107991999999999999999999MA1100911999999MW1711REMMET077METAR LSZG 100650Z 25001KT 4000 -SN SCT006 BKN075 M06/M07 Q1009 R07/99 NOSIG;
0192066621999992010011007204+47183+007417FM-15+0430LSZG V0209999V00051007501CN0040001N1-00601-00701999999ADDGA1021+001201999GA2041+007501999GA3071+021001999GF107991999999999999999999MA1100911999999MW1121REMMET085METAR LSZG 100720Z VRB01KT 4000 MIFG FEW004 SCT025 BKN070 M06/M07 Q1009 R07/99 NOSIG;
0192066621999992010011007504+47183+007417FM-15+0430LSZG V0209999V00051007501CN0040001N1-01001-01101999999ADDGA1021+001201999GA2041+007501999GA3071+021001999GF107991999999999999999999MA1101021999999MW1121REMMET085METAR LSZG 100750Z VRB01KT 4000 MIFG FEW004 SCT025 BKN070 M10/M11 Q1010 R07/99 NOSIG;
0179066621999992010011008204+47183+007417FM-15+0430LSZG V0209999C000012200019N0030001N1-00801-00901999999ADDGA1021+001201999GA2041+007501999GF104991999999999999999999MA1101021999999MW1121REMMET088METAR LSZG 100820Z 00000KT 3000 MIFG FEW004 SCT025 M08/M09 Q1010 R07/99 TEMPO 0200 FZFG;
0183066621999992010011008504+47183+007417FM-15+0430LSZG V0200101N000512200019N0025001N1-00701-00801999999ADDGA1021+000901999GA2041+007501999GF104991999999999999999999MA1101081999999MW1121REMMET092METAR LSZG 100850Z 01001KT 2500 MIFG FEW003 SCT025 M07/M08 Q1011 R25/450394 TEMPO 0200 FZFG;
0150066621999992010011009204+47183+007417FM-15+0430LSZG V0201301N001010015019N0035001N1-00801-00901999999ADDGA1071+001501999GF107991999999999999999999MA1101081999999MW1121REMMET075METAR LSZG 100920Z 13002KT 3500 MIFG BKN005 M08/M09 Q1011 R25/450394 NOSIG;
0171066621999992010011009504+47183+007417FM-15+0430LSZG V0200501N000510087019N0025001N1-00501-00601999999ADDGA1041+001201999GA2071+008701999GF107991999999999999999999MA1101081999999MW1101REMMET080METAR LSZG 100950Z 05001KT 2500 BR SCT004 BKN029 M05/M06 Q1011 R25/450394 NOSIG;
0171066621999992010011010204+47183+007417FM-15+0430LSZG V0200601N000510087019N0025001N1-00501-00601999999ADDGA1041+001201999GA2071+008701999GF107991999999999999999999MA1101081999999MW1101REMMET080METAR LSZG 101020Z 06001KT 2500 BR SCT004 BKN029 M05/M06 Q1011 R25/450394 NOSIG;
0171066621999992010011010504+47183+007417FM-15+0430LSZG V0200901N001012200019N0040001N1-00401-00601999999ADDGA1021+001201999GA2041+008401999GF104991999999999999999999MA1101081999999MW1101REMMET080METAR LSZG 101050Z 09002KT 4000 BR FEW004 SCT028 M04/M06 Q1011 R25/450394 NOSIG;
0171066621999992010011011204+47183+007417FM-15+0430LSZG V0200401N001010084019N0040001N1-00401-00601999999ADDGA1021+001201999GA2071+008401999GF107991999999999999999999MA1101191999999MW1101REMMET080METAR LSZG 101120Z 04002KT 4000 BR FEW004 BKN028 M04/M06 Q1012 R07/810395 NOSIG;
0171066621999992010011011504+47183+007417FM-15+0430LSZG V0200701N001010081019N0040001N1-00401-00601999999ADDGA1041+003001999GA2071+008101999GF107991999999999999999999MA1101191999999MW1101REMMET080METAR LSZG 101150Z 07002KT 4000 BR SCT010 BKN027 M04/M06 Q1012 R07/810395 NOSIG;
0171066621999992010011012204+47183+007417FM-15+0430LSZG V0200601N000510081019N0040001N1-00401-00601999999ADDGA1041+003001999GA2071+008101999GF107991999999999999999999MA1101191999999MW1101REMMET080METAR LSZG 101220Z 06001KT 4000 BR SCT010 BKN027 M04/M06 Q1012 R07/810395 NOSIG;
0171066621999992010011013204+47183+007417FM-15+0430LSZG V0200501N000510090019N0050001N1-00401-00601999999ADDGA1041+003601999GA2071+009001999GF107991999999999999999999MA1101191999999MW1101REMMET080METAR LSZG 101320Z 05001KT 5000 BR SCT012 BKN030 M04/M06 Q1012 R07/810395 NOSIG;
0171066621999992010011013504+47183+007417FM-15+0430LSZG V0200301N000510084019N0050001N1-00301-00601999999ADDGA1041+003601999GA2071+008401999GF107991999999999999999999MA1101191999999MW1101REMMET080METAR LSZG 101350Z 03001KT 5000 BR SCT012 BKN028 M03/M06 Q1012 R07/810395 NOSIG;
0139066621999992010011014504+47183+007417FM-15+0430LSZG V0200401N000510093019N0060001N1-00301-00601999999ADDGA1071+009301999GF107991999999999999999999MA1101291999999REMMET070METAR LSZG 101450Z 04001KT 6000 BKN031 M03/M06 Q1013 R07/810395 NOSIG;
0139066621999992010011015504+47183+007417FM-15+0430LSZG V0200501N001010090019N0060001N1-00401-00601999999ADDGA1071+009001999GF107991999999999999999999MA1101291999999REMMET070METAR LSZG 101550Z 05002KT 6000 BKN030 M04/M06 Q1013 R07/810395 NOSIG;
0128066621999992010011106504+47183+007417FM-15+0430LSZG V0200901N001510069019N0060001N1-00501-00801999999ADDGA1071+006901999GF107991999999999999999999MA1101391999999REMMET059METAR LSZG 110650Z 09003KT 6000 BKN023 M05/M08 Q1014 NOSIG;
0128066621999992010011107204+47183+007417FM-15+0430LSZG V0200901N002610069019N0060001N1-00501-00701999999ADDGA1081+006901999GF108991999999999999999999MA1101391999999REMMET059METAR LSZG 110720Z 09005KT 6000 OVC023 M05/M07 Q1014 NOSIG;
0128066621999992010011107504+47183+007417FM-15+0430LSZG V0200901N002110069019N0060001N1-00501-00701999999ADDGA1071+006901999GF107991999999999999999999MA1101391999999REMMET059METAR LSZG 110750Z 09004KT 6000 BKN023 M05/M07 Q1014 NOSIG;
0128066621999992010011108204+47183+007417FM-15+0430LSZG V0201101N001510069019N0060001N1-00501-00701999999ADDGA1071+006901999GF107991999999999999999999MA1101391999999REMMET059METAR LSZG 110820Z 11003KT 6000 BKN023 M05/M07 Q1014 NOSIG;
0128066621999992010011108504+47183+007417FM-15+0430LSZG V0201001N001510060019N0070001N1-00401-00701999999ADDGA1081+006001999GF108991999999999999999999MA1101491999999REMMET059METAR LSZG 110850Z 10003KT 7000 OVC020 M04/M07 Q1015 NOSIG;
0128066621999992010011109204+47183+007417FM-15+0430LSZG V0200801N000510063019N0070001N1-00401-00701999999ADDGA1081+006301999GF108991999999999999999999MA1101491999999REMMET059METAR LSZG 110920Z 08001KT 7000 OVC021 M04/M07 Q1015 NOSIG;
0128066621999992010011109504+47183+007417FM-15+0430LSZG V0209999V000510063019N0090001N1-00401-00801999999ADDGA1081+006301999GF108991999999999999999999MA1101491999999REMMET059METAR LSZG 110950Z VRB01KT 9000 OVC021 M04/M08 Q1015 NOSIG;
0128066621999992010011110204+47183+007417FM-15+0430LSZG V0209999V000510066019N0090001N1-00301-00801999999ADDGA1081+006601999GF108991999999999999999999MA1101491999999REMMET059METAR LSZG 111020Z VRB01KT 9000 OVC022 M03/M08 Q1015 NOSIG;
0128066621999992010011110504+47183+007417FM-15+0430LSZG V0202401N001510063019N0090001N1-00301-00801999999ADDGA1081+006301999GF108991999999999999999999MA1101491999999REMMET059METAR LSZG 111050Z 24003KT 9000 OVC021 M03/M08 Q1015 NOSIG;
0136066621999992010011111204+47183+007417FM-15+0430LSZG V0202001N002110063019N0090001N1-00301-00801999999ADDGA1081+006301999GF108991999999999999999999MA1101491999999REMMET067METAR LSZG 111120Z 20004KT 160V230 9000 OVC021 M03/M08 Q1015 NOSIG;
0136066621999992010011111504+47183+007417FM-15+0430LSZG V0202501N001510066019N0090001N1-00401-00801999999ADDGA1081+006601999GF108991999999999999999999MA1101491999999REMMET067METAR LSZG 111150Z 25003KT 210V300 9000 OVC022 M04/M08 Q1015 NOSIG;
0136066621999992010011112204+47183+007417FM-15+0430LSZG V0202501N002110063019N0090001N1-00301-00801999999ADDGA1071+006301999GF107991999999999999999999MA1101391999999REMMET067METAR LSZG 111220Z 25004KT 220V290 9000 BKN021 M03/M08 Q1014 NOSIG;
0128066621999992010011112504+47183+007417FM-15+0430LSZG V0202301N002610063019N0080001N1-00201-00701999999ADDGA1071+006301999GF107991999999999999999999MA1101391999999REMMET059METAR LSZG 111250Z 23005KT 8000 BKN021 M02/M07 Q1014 NOSIG;
0128066621999992010011113204+47183+007417FM-15+0430LSZG V0202201N002110069019N0080001N1-00201-00701999999ADDGA1071+006901999GF107991999999999999999999MA1101391999999REMMET059METAR LSZG 111320Z 22004KT 8000 BKN023 M02/M07 Q1014 NOSIG;
0128066621999992010011113504+47183+007417FM-15+0430LSZG V0202201N001510069019N0080001N1-00201-00701999999ADDGA1071+006901999GF107991999999999999999999MA1101391999999REMMET059METAR LSZG 111350Z 22003KT 8000 BKN023 M02/M07 Q1014 NOSIG;
0128066621999992010011114204+47183+007417FM-15+0430LSZG V0202401N001510069019N0080001N1-00201-00701999999ADDGA1071+006901999GF107991999999999999999999MA1101391999999REMMET059METAR LSZG 111420Z 24003KT 8000 BKN023 M02/M07 Q1014 NOSIG;
0128066621999992010011114504+47183+007417FM-15+0430LSZG V0202401N001510069019N0080001N1-00201-00601999999ADDGA1071+006901999GF107991999999999999999999MA1101491999999REMMET059METAR LSZG 111450Z 24003KT 8000 BKN023 M02/M06 Q1015 NOSIG;
0151066621999992010011115204+47183+007417FM-15+0430LSZG V0202501N001010240019N0080001N1-00201-00701999999ADDGA1041+006901999GA2071+024001999GF107991999999999999999999MA1101491999999REMMET066METAR LSZG 111520Z 25002KT 8000 SCT023 BKN085 M02/M07 Q1015 NOSIG;
0151066621999992010011115504+47183+007417FM-15+0430LSZG V0202401N001010240019N0080001N1-00201-00601999999ADDGA1041+006901999GA2071+024001999GF107991999999999999999999MA1101491999999REMMET066METAR LSZG 111550Z 24002KT 8000 SCT023 BKN085 M02/M06 Q1015 NOSIG;
0151066621999992010011116204+47183+007417FM-15+0430LSZG V0202501N000510240019N0080001N1-00201-00701999999ADDGA1041+006901999GA2071+024001999GF107991999999999999999999MA1101491999999REMMET066METAR LSZG 111620Z 25001KT 8000 SCT023 BKN085 M02/M07 Q1015 NOSIG;
0137066621999992010011206504+47183+007417FM-15+0430LSZG V0200601N001010045019N0050001N1-00401-00501999999ADDGA1081+004501999GF108991999999999999999999MA1101491999999MW1101REMMET062METAR LSZG 120650Z 06002KT 5000 BR OVC015 M04/M05 Q1015 NOSIG;
0137066621999992010011207204+47183+007417FM-15+0430LSZG V0200601N001010045019N0040001N1-00401-00501999999ADDGA1081+004501999GF108991999999999999999999MA1101391999999MW1101REMMET062METAR LSZG 120720Z 06002KT 4000 BR OVC015 M04/M05 Q1014 NOSIG;
0137066621999992010011207504+47183+007417FM-15+0430LSZG V0200501N001010045019N0030001N1-00301-00501999999ADDGA1081+004501999GF108991999999999999999999MA1101391999999MW1101REMMET062METAR LSZG 120750Z 05002KT 3000 BR OVC015 M03/M05 Q1014 NOSIG;
0137066621999992010011208204+47183+007417FM-15+0430LSZG V0200801N000510048019N0030001N1-00301-00401999999ADDGA1081+004801999GF108991999999999999999999MA1101391999999MW1101REMMET062METAR LSZG 120820Z 08001KT 3000 BR OVC016 M03/M04 Q1014 NOSIG;
0137066621999992010011208504+47183+007417FM-15+0430LSZG V0200501N001010051019N0030001N1-00301-00401999999ADDGA1081+005101999GF108991999999999999999999MA1101391999999MW1101REMMET062METAR LSZG 120850Z 05002KT 3000 BR OVC017 M03/M04 Q1014 NOSIG;
0137066621999992010011209204+47183+007417FM-15+0430LSZG V0209999V000510051019N0030001N1-00301-00401999999ADDGA1081+005101999GF108991999999999999999999MA1101291999999MW1101REMMET062METAR LSZG 120920Z VRB01KT 3000 BR OVC017 M03/M04 Q1013 NOSIG;
0137066621999992010011209504+47183+007417FM-15+0430LSZG V0200501N000510045019N0030001N1-00301-00401999999ADDGA1081+004501999GF108991999999999999999999MA1101291999999MW1101REMMET062METAR LSZG 120950Z 05001KT 3000 BR OVC015 M03/M04 Q1013 NOSIG;
0137066621999992010011210204+47183+007417FM-15+0430LSZG V0200401N001010045019N0030001N1-00301-00401999999ADDGA1081+004501999GF108991999999999999999999MA1101291999999MW1101REMMET062METAR LSZG 121020Z 04002KT 3000 BR OVC015 M03/M04 Q1013 NOSIG;
0137066621999992010011210504+47183+007417FM-15+0430LSZG V0200601N001010045019N0040001N1-00301-00501999999ADDGA1081+004501999GF108991999999999999999999MA1101191999999MW1101REMMET062METAR LSZG 121050Z 06002KT 4000 BR OVC015 M03/M05 Q1012 NOSIG;
0137066621999992010011211204+47183+007417FM-15+0430LSZG V0209999V000510045019N0040001N1-00301-00501999999ADDGA1081+004501999GF108991999999999999999999MA1101191999999MW1101REMMET062METAR LSZG 121120Z VRB01KT 4000 BR OVC015 M03/M05 Q1012 NOSIG;
0137066621999992010011211504+47183+007417FM-15+0430LSZG V0209999V000510045019N0045001N1-00201-00501999999ADDGA1081+004501999GF108991999999999999999999MA1101081999999MW1101REMMET062METAR LSZG 121150Z VRB01KT 4500 BR OVC015 M02/M05 Q1011 NOSIG;
0137066621999992010011212204+47183+007417FM-15+0430LSZG V0209999V001010045019N0050001N1-00201-00501999999ADDGA1081+004501999GF108991999999999999999999MA1101081999999MW1101REMMET062METAR LSZG 121220Z VRB02KT 5000 BR OVC015 M02/M05 Q1011 NOSIG;
0137066621999992010011212504+47183+007417FM-15+0430LSZG V0209999V000510042019N0050001N1-00201-00501999999ADDGA1081+004201999GF108991999999999999999999MA1101081999999MW1101REMMET062METAR LSZG 121250Z VRB01KT 5000 BR OVC014 M02/M05 Q1011 NOSIG;
0137066621999992010011213204+47183+007417FM-15+0430LSZG V0202701N001010042019N0050001N1-00201-00501999999ADDGA1081+004201999GF108991999999999999999999MA1101021999999MW1101REMMET062METAR LSZG 121320Z 27002KT 5000 BR OVC014 M02/M05 Q1010 NOSIG;
0137066621999992010011213504+47183+007417FM-15+0430LSZG V0209999V000510042019N0050001N1-00201-00501999999ADDGA1081+004201999GF108991999999999999999999MA1101021999999MW1101REMMET062METAR LSZG 121350Z VRB01KT 5000 BR OVC014 M02/M05 Q1010 NOSIG;
0137066621999992010011214204+47183+007417FM-15+0430LSZG V0209999V000510039019N0050001N1-00201-00501999999ADDGA1081+003901999GF108991999999999999999999MA1100911999999MW1101REMMET062METAR LSZG 121420Z VRB01KT 5000 BR OVC013 M02/M05 Q1009 NOSIG;
0137066621999992010011215204+47183+007417FM-15+0430LSZG V0209999V001010039019N0050001N1-00201-00501999999ADDGA1081+003901999GF108991999999999999999999MA1100811999999MW1101REMMET062METAR LSZG 121520Z VRB02KT 5000 BR OVC013 M02/M05 Q1008 NOSIG;
0137066621999992010011215504+47183+007417FM-15+0430LSZG V0200201N001510039019N0050001N1-00201-00501999999ADDGA1081+003901999GF108991999999999999999999MA1100811999999MW1101REMMET062METAR LSZG 121550Z 02003KT 5000 BR OVC013 M02/M05 Q1008 NOSIG;
0137066621999992010011216204+47183+007417FM-15+0430LSZG V0209999V000510039019N0050001N1-00301-00501999999ADDGA1081+003901999GF108991999999999999999999MA1100811999999MW1101REMMET062METAR LSZG 121620Z VRB01KT 5000 BR OVC013 M03/M05 Q1008 NOSIG;
0145066621999992010011306504+47183+007417FM-15+0430LSZG V0202401N000510009019N0006001N1-00301-00401999999ADDGA1091+000901999GF109991999999000251999999MA1100511999999MW1731REMMET070METAR LSZG 130650Z 24001KT 0600 SN VV003 M03/M04 Q1005 R/SNOCLO NOSIG;
0145066621999992010011307504+47183+007417FM-15+0430LSZG V0202701N000510012019N0006001N1-00301-00401999999ADDGA1091+001201999GF109991999999000251999999MA1100611999999MW1731REMMET070METAR LSZG 130750Z 27001KT 0600 SN VV004 M03/M04 Q1006 R/SNOCLO NOSIG;
0145066621999992010011308204+47183+007417FM-15+0430LSZG V0202501N001010012019N0006001N1-00301-00401999999ADDGA1091+001201999GF109991999999000251999999MA1100611999999MW1731REMMET070METAR LSZG 130820Z 25002KT 0600 SN VV004 M03/M04 Q1006 R/SNOCLO NOSIG;
0145066621999992010011308504+47183+007417FM-15+0430LSZG V0202401N001010015019N0008001N1-00301-00401999999ADDGA1091+001501999GF109991999999000251999999MA1100611999999MW1731REMMET070METAR LSZG 130850Z 24002KT 0800 SN VV005 M03/M04 Q1006 R/SNOCLO NOSIG;
0145066621999992010011309204+47183+007417FM-15+0430LSZG V0202601N001010015019N0008001N1-00301-00401999999ADDGA1091+001501999GF109991999999000251999999MA1100711999999MW1731REMMET070METAR LSZG 130920Z 26002KT 0800 SN VV005 M03/M04 Q1007 R/SNOCLO NOSIG;
0153066621999992010011309504+47183+007417FM-15+0430LSZG V0202401N000510024019N0012001N1-00301-00301999999ADDGA1091+002401999GF109991999999000251999999MA1100711999999MW1101MW2711REMMET072METAR LSZG 130950Z 24001KT 1200 -SN BR VV008 M03/M03 Q1007 R25/99 NOSIG;
0153066621999992010011310504+47183+007417FM-15+0430LSZG V0209999V001010024019N0012001N1-00201-00301999999ADDGA1091+002401999GF109991999999000251999999MA1100711999999MW1101MW2711REMMET072METAR LSZG 131050Z VRB02KT 1200 -SN BR VV008 M02/M03 Q1007 R25/99 NOSIG;
0157066621999992010011311204+47183+007417FM-15+0430LSZG V0202501N001010024019N0012001N1-00201-00301999999ADDGA1091+002401999GF109991999999000251999999MA1100711999999MW1101MW2711REMMET076METAR LSZG 131120Z 25002KT 1200 -SN BR VV008 M02/M03 Q1007 R25/29//94 NOSIG;
0157066621999992010011311504+47183+007417FM-15+0430LSZG V0202201N002110024019N0012001N1-00101-00201999999ADDGA1091+002401999GF109991999999000251999999MA1100711999999MW1101MW2711REMMET076METAR LSZG 131150Z 22004KT 1200 -SN BR VV008 M01/M02 Q1007 R25/29//94 NOSIG;
0157066621999992010011312204+47183+007417FM-15+0430LSZG V0202201N002110024019N0012001N1-00101-00201999999ADDGA1091+002401999GF109991999999000251999999MA1100711999999MW1101MW2711REMMET076METAR LSZG 131220Z 22004KT 1200 -SN BR VV008 M01/M02 Q1007 R25/29//94 NOSIG;
0157066621999992010011312504+47183+007417FM-15+0430LSZG V0202501N001010024019N0012001N1-00101-00201999999ADDGA1091+002401999GF109991999999000251999999MA1100711999999MW1101MW2711REMMET076METAR LSZG 131250Z 25002KT 1200 -SN BR VV008 M01/M02 Q1007 R25/29//94 NOSIG;
0157066621999992010011313204+47183+007417FM-15+0430LSZG V0202301N001510024019N0012001N1-00101-00201999999ADDGA1091+002401999GF109991999999000251999999MA1100711999999MW1101MW2711REMMET076METAR LSZG 131320Z 23003KT 1200 -SN BR VV008 M01/M02 Q1007 R25/29//94 NOSIG;
0157066621999992010011313504+47183+007417FM-15+0430LSZG V0202401N001010024019N0012001N1-00101-00201999999ADDGA1091+002401999GF109991999999000251999999MA1100711999999MW1101MW2711REMMET076METAR LSZG 131350Z 24002KT 1200 -SN BR VV008 M01/M02 Q1007 R25/29//94 NOSIG;
0157066621999992010011314204+47183+007417FM-15+0430LSZG V0202501N001010024019N0012001N1-00101-00201999999ADDGA1091+002401999GF109991999999000251999999MA1100711999999MW1101MW2711REMMET076METAR LSZG 131420Z 25002KT 1200 -SN BR VV008 M01/M02 Q1007 R25/29//94 NOSIG;
0157066621999992010011314504+47183+007417FM-15+0430LSZG V0202401N001010021019N0010001N1-00101-00201999999ADDGA1091+002101999GF109991999999000251999999MA1100711999999MW1101MW2711REMMET076METAR LSZG 131450Z 24002KT 1000 -SN BR VV007 M01/M02 Q1007 R25/29//94 NOSIG;
0157066621999992010011315204+47183+007417FM-15+0430LSZG V0202801N000510021019N0010001N1-00101-00101999999ADDGA1091+002101999GF109991999999000251999999MA1100711999999MW1101MW2711REMMET076METAR LSZG 131520Z 28001KT 1000 -SN BR VV007 M01/M01 Q1007 R25/29//94 NOSIG;
0157066621999992010011315504+47183+007417FM-15+0430LSZG V0202501N001010021019N0010001N1-00101-00101999999ADDGA1091+002101999GF109991999999000251999999MA1100711999999MW1101MW2711REMMET076METAR LSZG 131550Z 25002KT 1000 -SN BR VV007 M01/M01 Q1007 R25/29//94 NOSIG;
0157066621999992010011316204+47183+007417FM-15+0430LSZG V0202601N000510021019N0010001N1-00101-00101999999ADDGA1091+002101999GF109991999999000251999999MA1100811999999MW1101MW2711REMMET076METAR LSZG 131620Z 26001KT 1000 -SN BR VV007 M01/M01 Q1008 R25/29//94 NOSIG;
0155066621999992010011316504+47183+007417FM-15+0430LSZG V0202701N000510021019N0010001N1-00101-00101999999ADDGA1091+002101999GF109991999999000251999999MA1100811999999MW1101MW2711REMMET074METAR LSZG 131650Z 27001KT 1000 -SN BR VV007 M01/M01 Q1008 R/SNOCLO NOSIG;
0155066621999992010011317204+47183+007417FM-15+0430LSZG V0202601N000510024019N0010001N1+00001-00101999999ADDGA1091+002401999GF109991999999000251999999MA1100811999999MW1101MW2711REMMET074METAR LSZG 131720Z 26001KT 1000 -SN BR VV008 M00/M01 Q1008 R/SNOCLO NOSIG;
0157066621999992010011317504+47183+007417FM-15+0430LSZG V0209999C000010024019N0010001N1-00101-00101999999ADDGA1091+002401999GF109991999999000251999999MA1100811999999MW1101MW2711REMMET076METAR LSZG 131750Z 00000KT 1000 -SN BR VV008 M01/M01 Q1008 R25/490592 NOSIG;
0157066621999992010011318204+47183+007417FM-15+0430LSZG V0200401N000510024019N0010001N1+00001-00101999999ADDGA1091+002401999GF109991999999000251999999MA1100811999999MW1101MW2711REMMET076METAR LSZG 131820Z 04001KT 1000 -SN BR VV008 M00/M01 Q1008 R25/490592 NOSIG;
0147066621999992010011406504+47183+007417FM-15+0430LSZG V0200601N002110009019N0030001N1+00101+00001999999ADDGA1081+000901999GF108991999999999999999999MA1100511999999MW1101REMMET072METAR LSZG 140650Z 06004KT 3000 BR OVC003 01/M00 Q1005 R07/590592 NOSIG;
0143066621999992010011407204+47183+007417FM-15+0430LSZG V0200601N003110009019N0015001N1+00101+00001999999ADDGA1081+000901999GF108991999999999999999999MA1100511999999MW1101REMMET068METAR LSZG 140720Z 06006KT 1500 BR OVC003 01/M00 Q1005 R07/99 NOSIG;
0147066621999992010011407504+47183+007417FM-15+0430LSZG V0200801N004110009019N0025001N1+00101+00001999999ADDGA1081+000901999GF108991999999999999999999MA1100511999999MW1101REMMET072METAR LSZG 140750Z 08008KT 2500 BR OVC003 01/M00 Q1005 R07/790092 NOSIG;
0147066621999992010011408204+47183+007417FM-15+0430LSZG V0200801N002610009019N0030001N1+00101+00001999999ADDGA1081+000901999GF108991999999999999999999MA1100511999999MW1101REMMET072METAR LSZG 140820Z 08005KT 3000 BR OVC003 01/M00 Q1005 R07/790092 NOSIG;
0147066621999992010011408504+47183+007417FM-15+0430LSZG V0200601N003110009019N0040001N1+00101+00001999999ADDGA1081+000901999GF108991999999999999999999MA1100511999999MW1101REMMET072METAR LSZG 140850Z 06006KT 4000 BR OVC003 01/M00 Q1005 R07/790092 NOSIG;
0147066621999992010011409204+47183+007417FM-15+0430LSZG V0200701N002610015019N0035001N1+00101+00001999999ADDGA1081+001501999GF108991999999999999999999MA1100511999999MW1101REMMET072METAR LSZG 140920Z 07005KT 3500 BR OVC005 01/M00 Q1005 R07/29//95 NOSIG;
0147066621999992010011409504+47183+007417FM-15+0430LSZG V0200701N002610021019N0035001N1+00101+00001999999ADDGA1081+002101999GF108991999999999999999999MA1100511999999MW1101REMMET072METAR LSZG 140950Z 07005KT 3500 BR OVC007 01/M00 Q1005 R07/29//95 NOSIG;
0147066621999992010011410204+47183+007417FM-15+0430LSZG V0200701N003610030019N0045001N1+00101+00001999999ADDGA1081+003001999GF108991999999999999999999MA1100511999999MW1101REMMET072METAR LSZG 141020Z 07007KT 4500 BR OVC010 01/M00 Q1005 R07/29//95 NOSIG;
0170066621999992010011410504+47183+007417FM-15+0430LSZG V0200701N004610030019N0050001N1+00101+00001999999ADDGA1041+002401999GA2081+003001999GF108991999999999999999999MA1100411999999MW1101REMMET079METAR LSZG 141050Z 07009KT 5000 BR SCT008 OVC010 01/M00 Q1004 R07/29//95 NOSIG;
0170066621999992010011411204+47183+007417FM-15+0430LSZG V0200801N003110030019N0050001N1+00101+00001999999ADDGA1041+002401999GA2081+003001999GF108991999999999999999999MA1100411999999MW1101REMMET079METAR LSZG 141120Z 08006KT 5000 BR SCT008 OVC010 01/M00 Q1004 R07/29//95 NOSIG;
0150066621999992010011412504+47183+007417FM-15+0430LSZG V0200801N003110039019N0070001N1+00101-00101999999ADDGA1041+001801999GA2081+003901999GF108991999999999999999999MA1100411999999REMMET065METAR LSZG 141250Z 08006KT 7000 SCT006 OVC013 01/M01 Q1004 NOSIG;
0127066621999992010011413504+47183+007417FM-15+0430LSZG V0200801N003110036019N0060001N1+00101-00101999999ADDGA1071+003601999GF107991999999999999999999MA1100411999999REMMET058METAR LSZG 141350Z 08006KT 6000 BKN012 01/M01 Q1004 NOSIG;
0127066621999992010011414204+47183+007417FM-15+0430LSZG V0200601N002610033019N0070001N1+00101-00101999999ADDGA1071+003301999GF107991999999999999999999MA1100411999999REMMET058METAR LSZG 141420Z 06005KT 7000 BKN011 01/M01 Q1004 NOSIG;
0127066621999992010011414504+47183+007417FM-15+0430LSZG V0200701N003110033019N0070001N1+00201-00101999999ADDGA1071+003301999GF107991999999999999999999MA1100411999999REMMET058METAR LSZG 141450Z 07006KT 7000 BKN011 02/M01 Q1004 NOSIG;
0127066621999992010011415504+47183+007417FM-15+0430LSZG V0200601N003110039019N0060001N1+00101+00001999999ADDGA1071+003901999GF107991999999999999999999MA1100411999999REMMET058METAR LSZG 141550Z 06006KT 6000 BKN013 01/M00 Q1004 NOSIG;
0127066621999992010011416504+47183+007417FM-15+0430LSZG V0200501N001510042019N0050001N1+00101+00001999999ADDGA1071+004201999GF107991999999999999999999MA1100511999999REMMET058METAR LSZG 141650Z 05003KT 5000 BKN014 01/M00 Q1005 NOSIG;
0136066621999992010011506504+47183+007417FM-15+0430LSZG V0209999V000510039019N0020001N1+00101+00001999999ADDGA1081+003901999GF108991999999999999999999MA1101691999999MW1101REMMET061METAR LSZG 150650Z VRB01KT 2000 BR OVC013 01/M00 Q1017 NOSIG;
0136066621999992010011507204+47183+007417FM-15+0430LSZG V0209999C000010039019N0020001N1+00101+00001999999ADDGA1081+003901999GF108991999999999999999999MA1101691999999MW1101REMMET061METAR LSZG 150720Z 00000KT 2000 BR OVC013 01/M00 Q1017 NOSIG;
0136066621999992010011507504+47183+007417FM-15+0430LSZG V0202901N000510039019N0030001N1+00101+00001999999ADDGA1081+003901999GF108991999999999999999999MA1101801999999MW1101REMMET061METAR LSZG 150750Z 29001KT 3000 BR OVC013 01/M00 Q1018 NOSIG;
0136066621999992010011508204+47183+007417FM-15+0430LSZG V0202201N000510039019N0030001N1+00101+00001999999ADDGA1081+003901999GF108991999999999999999999MA1101801999999MW1101REMMET061METAR LSZG 150820Z 22001KT 3000 BR OVC013 01/M00 Q1018 NOSIG;
0135066621999992010011508504+47183+007417FM-15+0430LSZG V0202501N000510042019N0030001N1+00101+00001999999ADDGA1081+004201999GF108991999999999999999999MA1101901999999MW1101REMMET060METAR LSZG 150850Z 25001KT 3000 BR OVC014 01/00 Q1019 NOSIG;
0136066621999992010011509204+47183+007417FM-15+0430LSZG V0202401N000510039019N0030001N1+00101+00001999999ADDGA1081+003901999GF108991999999999999999999MA1101901999999MW1101REMMET061METAR LSZG 150920Z 24001KT 3000 BR OVC013 01/M00 Q1019 NOSIG;
0136066621999992010011509504+47183+007417FM-15+0430LSZG V0202301N001010036019N0040001N1+00101+00001999999ADDGA1081+003601999GF108991999999999999999999MA1101901999999MW1101REMMET061METAR LSZG 150950Z 23002KT 4000 BR OVC012 01/M00 Q1019 NOSIG;
0136066621999992010011510504+47183+007417FM-15+0430LSZG V0202301N001010036019N0040001N1+00101-00101999999ADDGA1081+003601999GF108991999999999999999999MA1102001999999MW1101REMMET061METAR LSZG 151050Z 23002KT 4000 BR OVC012 01/M01 Q1020 NOSIG;
0136066621999992010011511204+47183+007417FM-15+0430LSZG V0202401N000510036019N0040001N1+00201-00101999999ADDGA1081+003601999GF108991999999999999999999MA1102001999999MW1101REMMET061METAR LSZG 151120Z 24001KT 4000 BR OVC012 02/M01 Q1020 NOSIG;
0136066621999992010011511504+47183+007417FM-15+0430LSZG V0202201N001010036019N0040001N1+00201-00101999999ADDGA1081+003601999GF108991999999999999999999MA1102001999999MW1101REMMET061METAR LSZG 151150Z 22002KT 4000 BR OVC012 02/M01 Q1020 NOSIG;
0136066621999992010011512504+47183+007417FM-15+0430LSZG V0202101N001010033019N0050001N1+00201-00101999999ADDGA1081+003301999GF108991999999999999999999MA1102101999999MW1101REMMET061METAR LSZG 151250Z 21002KT 5000 BR OVC011 02/M01 Q1021 NOSIG;
0136066621999992010011513204+47183+007417FM-15+0430LSZG V0209999V000510033019N0050001N1+00201-00101999999ADDGA1081+003301999GF108991999999999999999999MA1102101999999MW1101REMMET061METAR LSZG 151320Z VRB01KT 5000 BR OVC011 02/M01 Q1021 NOSIG;
0136066621999992010011513504+47183+007417FM-15+0430LSZG V0209999C000010033019N0050001N1+00201-00101999999ADDGA1081+003301999GF108991999999999999999999MA1102101999999MW1101REMMET061METAR LSZG 151350Z 00000KT 5000 BR OVC011 02/M01 Q1021 NOSIG;
0136066621999992010011514204+47183+007417FM-15+0430LSZG V0200801N000510033019N0050001N1+00201-00101999999ADDGA1081+003301999GF108991999999999999999999MA1102201999999MW1101REMMET061METAR LSZG 151420Z 08001KT 5000 BR OVC011 02/M01 Q1022 NOSIG;
0136066621999992010011514504+47183+007417FM-15+0430LSZG V0209999V000510033019N0050001N1+00201-00101999999ADDGA1081+003301999GF108991999999999999999999MA1102201999999MW1101REMMET061METAR LSZG 151450Z VRB01KT 5000 BR OVC011 02/M01 Q1022 NOSIG;
0136066621999992010011515204+47183+007417FM-15+0430LSZG V0209999V000510036019N0050001N1+00201-00101999999ADDGA1081+003601999GF108991999999999999999999MA1102201999999MW1101REMMET061METAR LSZG 151520Z VRB01KT 5000 BR OVC012 02/M01 Q1022 NOSIG;
0136066621999992010011515504+47183+007417FM-15+0430LSZG V0209999V001010036019N0050001N1+00201-00101999999ADDGA1081+003601999GF108991999999999999999999MA1102201999999MW1101REMMET061METAR LSZG 151550Z VRB02KT 5000 BR OVC012 02/M01 Q1022 NOSIG;
0136066621999992010011516204+47183+007417FM-15+0430LSZG V0209999V001010030019N0050001N1+00201-00101999999ADDGA1081+003001999GF108991999999999999999999MA1102301999999MW1101REMMET061METAR LSZG 151620Z VRB02KT 5000 BR OVC010 02/M01 Q1023 NOSIG;
0137066621999992010011607504+47183+007417FM-15+0430LSZG V0209999V001010021019N0030001N1-00101-00201999999ADDGA1081+002101999GF108991999999999999999999MA1102101999999MW1101REMMET062METAR LSZG 160750Z VRB02KT 3000 BR OVC007 M01/M02 Q1021 NOSIG;
0145066621999992010011608204+47183+007417FM-15+0430LSZG V0202201N002110021019N0030001N1+00001-00201999999ADDGA1081+002101999GF108991999999999999999999MA1102101999999MW1101REMMET070METAR LSZG 160820Z 22004KT 170V240 3000 BR OVC007 M00/M02 Q1021 NOSIG;
0137066621999992010011608504+47183+007417FM-15+0430LSZG V0209999V001510018019N0030001N1+00001-00201999999ADDGA1081+001801999GF108991999999999999999999MA1102001999999MW1101REMMET062METAR LSZG 160850Z VRB03KT 3000 BR OVC006 M00/M02 Q1020 NOSIG;
0137066621999992010011609504+47183+007417FM-15+0430LSZG V0209999C000010018019N0035001N1+00001-00201999999ADDGA1081+001801999GF108991999999999999999999MA1102001999999MW1101REMMET062METAR LSZG 160950Z 00000KT 3500 BR OVC006 M00/M02 Q1020 NOSIG;
0137066621999992010011610204+47183+007417FM-15+0430LSZG V0209999V000510024019N0035001N1+00001-00201999999ADDGA1081+002401999GF108991999999999999999999MA1102001999999MW1101REMMET062METAR LSZG 161020Z VRB01KT 3500 BR OVC008 M00/M02 Q1020 NOSIG;
0137066621999992010011610504+47183+007417FM-15+0430LSZG V0202601N001010030019N0040001N1+00001-00201999999ADDGA1081+003001999GF108991999999999999999999MA1102001999999MW1101REMMET062METAR LSZG 161050Z 26002KT 4000 BR OVC010 M00/M02 Q1020 NOSIG;
0127066621999992010011611204+47183+007417FM-15+0430LSZG V0202301N002110036019N0060001N1+00001-00201999999ADDGA1071+003601999GF107991999999999999999999MA1102001999999REMMET058METAR LSZG 161120Z 23004KT 6000 BKN012 00/M02 Q1020 NOSIG;
0127066621999992010011611504+47183+007417FM-15+0430LSZG V0202201N002610033019N0060001N1+00101-00201999999ADDGA1071+003301999GF107991999999999999999999MA1101901999999REMMET058METAR LSZG 161150Z 22005KT 6000 BKN011 01/M02 Q1019 NOSIG;
0127066621999992010011612204+47183+007417FM-15+0430LSZG V0202301N003110045019N0060001N1+00101-00201999999ADDGA1071+004501999GF107991999999999999999999MA1101901999999REMMET058METAR LSZG 161220Z 23006KT 6000 BKN015 01/M02 Q1019 NOSIG;
0127066621999992010011612504+47183+007417FM-15+0430LSZG V0202301N003110042019N0060001N1+00101-00201999999ADDGA1081+004201999GF108991999999999999999999MA1101901999999REMMET058METAR LSZG 161250Z 23006KT 6000 OVC014 01/M02 Q1019 NOSIG;
0127066621999992010011613204+47183+007417FM-15+0430LSZG V0202301N002110036019N0060001N1+00101-00201999999ADDGA1081+003601999GF108991999999999999999999MA1101801999999REMMET058METAR LSZG 161320Z 23004KT 6000 OVC012 01/M02 Q1018 NOSIG;
0127066621999992010011613504+47183+007417FM-15+0430LSZG V0202401N002610036019N0060001N1+00101-00201999999ADDGA1081+003601999GF108991999999999999999999MA1101801999999REMMET058METAR LSZG 161350Z 24005KT 6000 OVC012 01/M02 Q1018 NOSIG;
0150066621999992010011614504+47183+007417FM-15+0430LSZG V0202301N002610057019N0060001N1+00101-00201999999ADDGA1041+003601999GA2081+005701999GF108991999999999999999999MA1101801999999REMMET065METAR LSZG 161450Z 23005KT 6000 SCT012 OVC019 01/M02 Q1018 NOSIG;
0150066621999992010011615204+47183+007417FM-15+0430LSZG V0202101N002110057019N0060001N1+00101-00201999999ADDGA1041+003601999GA2081+005701999GF108991999999999999999999MA1101691999999REMMET065METAR LSZG 161520Z 21004KT 6000 SCT012 OVC019 01/M02 Q1017 NOSIG;
0150066621999992010011615504+47183+007417FM-15+0430LSZG V0202501N002110048019N0060001N1+00101-00201999999ADDGA1041+003601999GA2081+004801999GF108991999999999999999999MA1101691999999REMMET065METAR LSZG 161550Z 25004KT 6000 SCT012 OVC016 01/M02 Q1017 NOSIG;
0127066621999992010011616204+47183+007417FM-15+0430LSZG V0202101N001510051019N0060001N1+00101-00201999999ADDGA1081+005101999GF108991999999999999999999MA1101691999999REMMET058METAR LSZG 161620Z 21003KT 6000 OVC017 01/M02 Q1017 NOSIG;
0159066621999992010011706504+47183+007417FM-15+0430LSZG V0202501N004110060019N0060001N1+00401+00301999999ADDGA1041+002401999GA2081+006001999GF108991999999999999999999MA1101591999999MW1611REMMET068METAR LSZG 170650Z 25008KT 6000 -RA SCT008 OVC020 04/03 Q1016 NOSIG;
0159066621999992010011707204+47183+007417FM-15+0430LSZG V0202401N004610024019N0060001N1+00301+00301999999ADDGA1071+002401999GA2081+006001999GF108991999999999999999999MA1101691999999MW1611REMMET068METAR LSZG 170720Z 24009KT 6000 -RA BKN008 OVC020 03/03 Q1017 NOSIG;
0159066621999992010011707504+47183+007417FM-15+0430LSZG V0202401N003610060019N0060001N1+00301+00201999999ADDGA1041+002701999GA2081+006001999GF108991999999999999999999MA1101691999999MW1611REMMET068METAR LSZG 170750Z 24007KT 6000 -RA SCT009 OVC020 03/02 Q1017 NOSIG;
0159066621999992010011708204+47183+007417FM-15+0430LSZG V0202301N005110060019N0070001N1+00401+00301999999ADDGA1041+002701999GA2071+006001999GF107991999999999999999999MA1101801999999MW1611REMMET068METAR LSZG 170820Z 23010KT 7000 -RA SCT009 BKN020 04/03 Q1018 NOSIG;
0149066621999992010011708504+47183+007417FM-15+0430LSZG V0202401N004610099019N0112651N1+00401+00301999999ADDGA1041+002701999GA2071+009901999GF107991999999999999999999MA1101801999999REMMET064METAR LSZG 170850Z 24009KT 9999 SCT009 BKN033 04/03 Q1018 NOSIG;
0149066621999992010011709204+47183+007417FM-15+0430LSZG V0202501N004612200019N0112651N1+00501+00301999999ADDGA1021+002701999GA2041+009301999GF104991999999999999999999MA1101801999999REMMET064METAR LSZG 170920Z 25009KT 9999 FEW009 SCT031 05/03 Q1018 NOSIG;
0149066621999992010011709504+47183+007417FM-15+0430LSZG V0202601N004110072019N0112651N1+00601+00401999999ADDGA1021+003601999GA2071+007201999GF107991999999999999999999MA1101901999999REMMET064METAR LSZG 170950Z 26008KT 9999 FEW012 BKN024 06/04 Q1019 NOSIG;
0149066621999992010011710204+47183+007417FM-15+0430LSZG V0202601N005110081019N0112651N1+00601+00301999999ADDGA1021+004501999GA2071+008101999GF107991999999999999999999MA1101901999999REMMET064METAR LSZG 171020Z 26010KT 9999 FEW015 BKN027 06/03 Q1019 NOSIG;
0149066621999992010011710504+47183+007417FM-15+0430LSZG V0202701N005710075019N0112651N1+00601+00201999999ADDGA1021+006001999GA2071+007501999GF107991999999999999999999MA1102001999999REMMET064METAR LSZG 171050Z 27011KT 9999 FEW020 BKN025 06/02 Q1020 NOSIG;
0161066621999992010011711204+47183+007417FM-15+0430LSZG V0202601N007710075019N0112651N1+00501+00201999999ADDGA1021+006001999GA2071+007501999GF107991999999999999999999MA1102001999999MW1801REMMET070METAR LSZG 171120Z 26015KT 9999 -SHRA FEW020 BKN025 05/02 Q1020 NOSIG;
0154066621999992010011711504+47183+007417FM-15+0430LSZG V0202401N004610108019N0112651N1+00501+00201999999ADDGA1021+008401999GA2071+010801999GF107991999999999999999999MA1102001999999REMMET069METAR LSZG 171150Z 24009KT 9999 FEW028 BKN036 05/02 Q1020 TEMPO SHRA;
0154066621999992010011712204+47183+007417FM-15+0430LSZG V0202501N007710117019N0112651N1+00601+00101999999ADDGA1021+008401999GA2071+011701999GF107991999999999999999999MA1102101999999REMMET069METAR LSZG 171220Z 25015KT 9999 FEW028 BKN039 06/01 Q1021 TEMPO SHRA;
0157066621999992010011712504+47183+007417FM-15+0430LSZG V0202201N005710117019N0112651N1+00601+00001999999ADDGA1021+008401999GA2071+011701999GF107991999999999999999999MA1102101999999REMMET072METAR LSZG 171250Z 22011KT 190V260 9999 FEW028 BKN039 06/00 Q1021 NOSIG;
0149066621999992010011714204+47183+007417FM-15+0430LSZG V0202501N003612200019N0112651N1+00701+00001999999ADDGA1021+008401999GA2041+011701999GF104991999999999999999999MA1102201999999REMMET064METAR LSZG 171420Z 25007KT 9999 FEW028 SCT039 07/00 Q1022 NOSIG;
0127066621999992010011714504+47183+007417FM-15+0430LSZG V0202501N004612200019N0112651N1+00501-00101999999ADDGA1041+011701999GF104991999999999999999999MA1102201999999REMMET058METAR LSZG 171450Z 25009KT 9999 SCT039 05/M01 Q1022 NOSIG;
0127066621999992010011715504+47183+007417FM-15+0430LSZG V0202701N003612200019N0112651N1+00501+00001999999ADDGA1041+015001999GF104991999999999999999999MA1102301999999REMMET058METAR LSZG 171550Z 27007KT 9999 SCT052 05/M00 Q1023 NOSIG;
0150066621999992010011806504+47183+007417FM-15+0430LSZG V0209999C000010150019N0112651N1+00001+00001999999ADDGA1021+008701999GA2071+015001999GF107991999999999999999999MA1102611999999REMMET065METAR LSZG 180650Z 00000KT 9999 FEW029 BKN056 00/M00 Q1026 NOSIG;
0151066621999992010011807204+47183+007417FM-15+0430LSZG V0202401N000510150019N0112651N1+00001-00101999999ADDGA1021+008701999GA2071+015001999GF107991999999999999999999MA1102611999999REMMET066METAR LSZG 180720Z 24001KT 9999 FEW029 BKN052 M00/M01 Q1026 NOSIG;
0151066621999992010011807504+47183+007417FM-15+0430LSZG V0209999C000010099019N0112651N1+00001-00101999999ADDGA1021+008701999GA2071+009901999GF107991999999999999999999MA1102611999999REMMET066METAR LSZG 180750Z 00000KT 9999 FEW029 BKN033 M00/M01 Q1026 NOSIG;
0151066621999992010011808204+47183+007417FM-15+0430LSZG V0209999C000012200019N0112651N1-00101-00101999999ADDGA1021+008701999GA2041+010501999GF104991999999999999999999MA1102611999999REMMET066METAR LSZG 180820Z 00000KT 9999 FEW029 SCT035 M01/M01 Q1026 NOSIG;
0150066621999992010011808504+47183+007417FM-15+0430LSZG V0209999C000012200019N0112651N1+00001+00001999999ADDGA1021+008701999GA2041+015001999GF104991999999999999999999MA1102711999999REMMET065METAR LSZG 180850Z 00000KT 9999 FEW029 SCT052 00/M00 Q1027 NOSIG;
0126066621999992010011809204+47183+007417FM-15+0430LSZG V0209999C000012200019N0112651N1+00101+00001999999ADDGA1021+008701999GF102991999999999999999999MA1102711999999REMMET057METAR LSZG 180920Z 00000KT 9999 FEW029 01/00 Q1027 NOSIG;
0126066621999992010011809504+47183+007417FM-15+0430LSZG V0209999C000012200019N0112651N1+00201+00001999999ADDGA1021+008701999GF102991999999999999999999MA1102711999999REMMET057METAR LSZG 180950Z 00000KT 9999 FEW029 02/00 Q1027 NOSIG;
0126066621999992010011810204+47183+007417FM-15+0430LSZG V0209999V000512200019N0112651N1+00301+00001999999ADDGA1021+008701999GF102991999999999999999999MA1102711999999REMMET057METAR LSZG 181020Z VRB01KT 9999 FEW029 03/00 Q1027 NOSIG;
0126066621999992010011810504+47183+007417FM-15+0430LSZG V0200801N001012200019N0112651N1+00401+00101999999ADDGA1021+008701999GF102991999999999999999999MA1102611999999REMMET057METAR LSZG 181050Z 08002KT 9999 FEW029 04/01 Q1026 NOSIG;
0149066621999992010011811204+47183+007417FM-15+0430LSZG V0200501N001512200019N0112651N1+00501+00001999999ADDGA1021+008701999GA2041+009901999GF104991999999999999999999MA1102611999999REMMET064METAR LSZG 181120Z 05003KT 9999 FEW029 SCT033 05/00 Q1026 NOSIG;
0126066621999992010011811504+47183+007417FM-15+0430LSZG V0200601N001012200019N0112651N1+00501+00101999999ADDGA1021+009001999GF102991999999999999999999MA1102511999999REMMET057METAR LSZG 181150Z 06002KT 9999 FEW030 05/01 Q1025 NOSIG;
0126066621999992010011812504+47183+007417FM-15+0430LSZG V0200701N002112200019N0112651N1+00601+00001999999ADDGA1021+009001999GF102991999999999999999999MA1102511999999REMMET057METAR LSZG 181250Z 07004KT 9999 FEW030 06/00 Q1025 NOSIG;
0134066621999992010011813204+47183+007417FM-15+0430LSZG V0200601N002112200019N0112651N1+00601+00001999999ADDGA1021+009001999GF102991999999999999999999MA1102401999999REMMET065METAR LSZG 181320Z 06004KT 040V110 9999 FEW030 06/00 Q1024 NOSIG;
0126066621999992010011813504+47183+007417FM-15+0430LSZG V0200701N002112200019N0112651N1+00701+00001999999ADDGA1021+009601999GF102991999999999999999999MA1102401999999REMMET057METAR LSZG 181350Z 07004KT 9999 FEW032 07/00 Q1024 NOSIG;
0126066621999992010011814204+47183+007417FM-15+0430LSZG V0209999V001512200019N0112651N1+00601+00001999999ADDGA1021+009601999GF102991999999999999999999MA1102401999999REMMET057METAR LSZG 181420Z VRB03KT 9999 FEW032 06/00 Q1024 NOSIG;
0126066621999992010011814504+47183+007417FM-15+0430LSZG V0200901N001012200019N0112651N1+00601+00001999999ADDGA1021+009601999GF102991999999999999999999MA1102401999999REMMET057METAR LSZG 181450Z 09002KT 9999 FEW032 06/00 Q1024 NOSIG;
0126066621999992010011815204+47183+007417FM-15+0430LSZG V0200801N001512200019N0112651N1+00501+00101999999ADDGA1021+009601999GF102991999999999999999999MA1102401999999REMMET057METAR LSZG 181520Z 08003KT 9999 FEW032 05/01 Q1024 NOSIG;
0126066621999992010011815504+47183+007417FM-15+0430LSZG V0200701N002112200019N0112651N1+00401+00001999999ADDGA1021+009601999GF102991999999999999999999MA1102401999999REMMET057METAR LSZG 181550Z 07004KT 9999 FEW032 04/00 Q1024 NOSIG;
0127066621999992010011816204+47183+007417FM-15+0430LSZG V0200601N001512200019N0112651N1+00301+00001999999ADDGA1021+009601999GF102991999999999999999999MA1102511999999REMMET058METAR LSZG 181620Z 06003KT 9999 FEW032 03/M00 Q1025 NOSIG;
0127066621999992010011816504+47183+007417FM-15+0430LSZG V0200501N001012200019N0112651N1+00101-00101999999ADDGA1021+009601999GF102991999999999999999999MA1102511999999REMMET058METAR LSZG 181650Z 05002KT 9999 FEW032 01/M01 Q1025 NOSIG;
0136066621999992010011906504+47183+007417FM-15+0430LSZG V0202901N000510015019N0004001N1-00401-00401999999ADDGA1091+001501999GF109991999999000251999999MA1102301999999MW1451REMMET061METAR LSZG 190650Z 29001KT 0400 FG VV005 M04/M04 Q1023 NOSIG;
0138066621999992010011907204+47183+007417FM-15+0430LSZG V0209999C000010009019N0008001N1-00301-00301999999ADDGA1091+000901999GF109991999999000251999999MA1102301999999MW1491REMMET063METAR LSZG 190720Z 00000KT 0800 FZFG VV003 M03/M03 Q1023 NOSIG;
0138066621999992010011907504+47183+007417FM-15+0430LSZG V0209999V000510009019N0010001N1-00301-00301999999ADDGA1091+000901999GF109991999999000251999999MA1102301999999MW1491REMMET063METAR LSZG 190750Z VRB01KT 1000 FZFG VV003 M03/M03 Q1023 NOSIG;
0138066621999992010011908504+47183+007417FM-15+0430LSZG V0202501N000510009019N0006001N1-00201-00301999999ADDGA1091+000901999GF109991999999000251999999MA1102301999999MW1491REMMET063METAR LSZG 190850Z 25001KT 0600 FZFG VV003 M02/M03 Q1023 NOSIG;
0138066621999992010011909204+47183+007417FM-15+0430LSZG V0202401N000510009019N0010001N1-00201-00201999999ADDGA1091+000901999GF109991999999000251999999MA1102301999999MW1491REMMET063METAR LSZG 190920Z 24001KT 1000 FZFG VV003 M02/M02 Q1023 NOSIG;
0136066621999992010011909504+47183+007417FM-15+0430LSZG V0203001N000510012019N0015001N1-00101-00201999999ADDGA1091+001201999GF109991999999000251999999MA1102301999999MW1101REMMET061METAR LSZG 190950Z 30001KT 1500 BR VV004 M01/M02 Q1023 NOSIG;
0136066621999992010011910204+47183+007417FM-15+0430LSZG V0202301N000510012019N0015001N1-00101-00201999999ADDGA1091+001201999GF109991999999000251999999MA1102301999999MW1101REMMET061METAR LSZG 191020Z 23001KT 1500 BR VV004 M01/M02 Q1023 NOSIG;
0137066621999992010011910504+47183+007417FM-15+0430LSZG V0202501N001010015019N0020001N1-00101-00201999999ADDGA1081+001501999GF108991999999999999999999MA1102201999999MW1101REMMET062METAR LSZG 191050Z 25002KT 2000 BR OVC005 M01/M02 Q1022 NOSIG;
0137066621999992010011911204+47183+007417FM-15+0430LSZG V0202201N000510015019N0020001N1-00101-00101999999ADDGA1081+001501999GF108991999999999999999999MA1102101999999MW1101REMMET062METAR LSZG 191120Z 22001KT 2000 BR OVC005 M01/M01 Q1021 NOSIG;
0137066621999992010011911504+47183+007417FM-15+0430LSZG V0209999V000510015019N0025001N1-00101-00201999999ADDGA1081+001501999GF108991999999999999999999MA1102101999999MW1101REMMET062METAR LSZG 191150Z VRB01KT 2500 BR OVC005 M01/M02 Q1021 NOSIG;
0137066621999992010011912204+47183+007417FM-15+0430LSZG V0209999V000510012019N0020001N1-00101-00201999999ADDGA1081+001201999GF108991999999999999999999MA1102101999999MW1101REMMET062METAR LSZG 191220Z VRB01KT 2000 BR OVC004 M01/M02 Q1021 NOSIG;
0137066621999992010011912504+47183+007417FM-15+0430LSZG V0202201N001510015019N0020001N1+00001-00101999999ADDGA1081+001501999GF108991999999999999999999MA1102001999999MW1101REMMET062METAR LSZG 191250Z 22003KT 2000 BR OVC005 M00/M01 Q1020 NOSIG;
0136066621999992010011913504+47183+007417FM-15+0430LSZG V0202001N001510015019N0030001N1+00001-00201999999ADDGA1081+001501999GF108991999999999999999999MA1102001999999MW1101REMMET061METAR LSZG 191350Z 20003KT 3000 BR OVC005 00/M02 Q1020 NOSIG;
0137066621999992010011914204+47183+007417FM-15+0430LSZG V0209999V000510018019N0030001N1+00001-00201999999ADDGA1081+001801999GF108991999999999999999999MA1102001999999MW1101REMMET062METAR LSZG 191420Z VRB01KT 3000 BR OVC006 M00/M02 Q1020 NOSIG;
0136066621999992010011914504+47183+007417FM-15+0430LSZG V0202201N001510018019N0030001N1+00001-00201999999ADDGA1081+001801999GF108991999999999999999999MA1102001999999MW1101REMMET061METAR LSZG 191450Z 22003KT 3000 BR OVC006 00/M02 Q1020 NOSIG;
0137066621999992010011915504+47183+007417FM-15+0430LSZG V0209999V000510018019N0030001N1-00101-00201999999ADDGA1081+001801999GF108991999999999999999999MA1101901999999MW1101REMMET062METAR LSZG 191550Z VRB01KT 3000 BR OVC006 M01/M02 Q1019 NOSIG;
0137066621999992010011916204+47183+007417FM-15+0430LSZG V0209999V000510015019N0025001N1-00101-00201999999ADDGA1081+001501999GF108991999999999999999999MA1101901999999MW1101REMMET062METAR LSZG 191620Z VRB01KT 2500 BR OVC005 M01/M02 Q1019 NOSIG;
0136066621999992010012006504+47183+007417FM-15+0430LSZG V0200601N000510006019N0015001N1-00301-00301999999ADDGA1091+000601999GF109991999999000251999999MA1101491999999MW1101REMMET061METAR LSZG 200650Z 06001KT 1500 BR VV002 M03/M03 Q1015 NOSIG;
0136066621999992010012007204+47183+007417FM-15+0430LSZG V0200601N001010009019N0015001N1-00301-00401999999ADDGA1091+000901999GF109991999999000251999999MA1101491999999MW1101REMMET061METAR LSZG 200720Z 06002KT 1500 BR VV003 M03/M04 Q1015 NOSIG;
0137066621999992010012007504+47183+007417FM-15+0430LSZG V0209999V001010012019N0015001N1-00301-00401999999ADDGA1081+001201999GF108991999999999999999999MA1101491999999MW1101REMMET062METAR LSZG 200750Z VRB02KT 1500 BR OVC004 M03/M04 Q1015 NOSIG;
0137066621999992010012008204+47183+007417FM-15+0430LSZG V0202801N001510012019N0015001N1-00301-00401999999ADDGA1081+001201999GF108991999999999999999999MA1101491999999MW1101REMMET062METAR LSZG 200820Z 28003KT 1500 BR OVC004 M03/M04 Q1015 NOSIG;
0137066621999992010012008504+47183+007417FM-15+0430LSZG V0209999V000510009019N0015001N1-00301-00401999999ADDGA1081+000901999GF108991999999999999999999MA1101491999999MW1101REMMET062METAR LSZG 200850Z VRB01KT 1500 BR OVC003 M03/M04 Q1015 NOSIG;
0137066621999992010012009204+47183+007417FM-15+0430LSZG V0209999V000510009019N0015001N1-00301-00401999999ADDGA1081+000901999GF108991999999999999999999MA1101491999999MW1101REMMET062METAR LSZG 200920Z VRB01KT 1500 BR OVC003 M03/M04 Q1015 NOSIG;
0137066621999992010012009504+47183+007417FM-15+0430LSZG V0209999V001010009019N0015001N1-00301-00301999999ADDGA1081+000901999GF108991999999999999999999MA1101491999999MW1101REMMET062METAR LSZG 200950Z VRB02KT 1500 BR OVC003 M03/M03 Q1015 NOSIG;
0137066621999992010012010204+47183+007417FM-15+0430LSZG V0209999V001010009019N0015001N1-00301-00401999999ADDGA1081+000901999GF108991999999999999999999MA1101491999999MW1101REMMET062METAR LSZG 201020Z VRB02KT 1500 BR OVC003 M03/M04 Q1015 NOSIG;
0137066621999992010012011204+47183+007417FM-15+0430LSZG V0202101N003110012019N0015001N1-00201-00301999999ADDGA1081+001201999GF108991999999999999999999MA1101391999999MW1101REMMET062METAR LSZG 201120Z 21006KT 1500 BR OVC004 M02/M03 Q1014 NOSIG;
0137066621999992010012011504+47183+007417FM-15+0430LSZG V0202201N003610012019N0020001N1-00201-00301999999ADDGA1081+001201999GF108991999999999999999999MA1101391999999MW1101REMMET062METAR LSZG 201150Z 22007KT 2000 BR OVC004 M02/M03 Q1014 NOSIG;
0137066621999992010012012204+47183+007417FM-15+0430LSZG V0202201N003110012019N0020001N1-00201-00301999999ADDGA1081+001201999GF108991999999999999999999MA1101391999999MW1101REMMET062METAR LSZG 201220Z 22006KT 2000 BR OVC004 M02/M03 Q1014 NOSIG;
0137066621999992010012012504+47183+007417FM-15+0430LSZG V0202101N003110015019N0025001N1-00201-00301999999ADDGA1081+001501999GF108991999999999999999999MA1101391999999MW1101REMMET062METAR LSZG 201250Z 21006KT 2500 BR OVC005 M02/M03 Q1014 NOSIG;
0137066621999992010012013204+47183+007417FM-15+0430LSZG V0202201N003110021019N0030001N1-00201-00401999999ADDGA1081+002101999GF108991999999999999999999MA1101391999999MW1101REMMET062METAR LSZG 201320Z 22006KT 3000 BR OVC007 M02/M04 Q1014 NOSIG;
0137066621999992010012013504+47183+007417FM-15+0430LSZG V0202601N001010024019N0030001N1-00201-00401999999ADDGA1081+002401999GF108991999999999999999999MA1101291999999MW1101REMMET062METAR LSZG 201350Z 26002KT 3000 BR OVC008 M02/M04 Q1013 NOSIG;
0137066621999992010012014204+47183+007417FM-15+0430LSZG V0209999C000010024019N0030001N1-00201-00401999999ADDGA1081+002401999GF108991999999999999999999MA1101291999999MW1101REMMET062METAR LSZG 201420Z 00000KT 3000 BR OVC008 M02/M04 Q1013 NOSIG;
0137066621999992010012014504+47183+007417FM-15+0430LSZG V0209999V000510021019N0040001N1-00201-00301999999ADDGA1081+002101999GF108991999999999999999999MA1101291999999MW1101REMMET062METAR LSZG 201450Z VRB01KT 4000 BR OVC007 M02/M03 Q1013 NOSIG;
0137066621999992010012015204+47183+007417FM-15+0430LSZG V0209999V000510021019N0040001N1-00201-00301999999ADDGA1081+002101999GF108991999999999999999999MA1101291999999MW1101REMMET062METAR LSZG 201520Z VRB01KT 4000 BR OVC007 M02/M03 Q1013 NOSIG;
0137066621999992010012015504+47183+007417FM-15+0430LSZG V0209999C000010021019N0040001N1-00201-00301999999ADDGA1081+002101999GF108991999999999999999999MA1101291999999MW1101REMMET062METAR LSZG 201550Z 00000KT 4000 BR OVC007 M02/M03 Q1013 NOSIG;
0138066621999992010012016204+47183+007417FM-15+0430LSZG V0202601N000510018019N0020001N1-00201-00301999999ADDGA1081+001801999GF108991999999999999999999MA1101391999999MW1711REMMET063METAR LSZG 201620Z 26001KT 2000 -SN OVC006 M02/M03 Q1014 NOSIG;
0147066621999992010012016504+47183+007417FM-15+0430LSZG V0209999V000510036019N0008001N1-00101-00201999999ADDGA1091+003601999GF109991999999000251999999MA1101391999999MW1731REMMET072METAR LSZG 201650Z VRB01KT 0800 SN VV012 M01/M02 Q1014 R25/490294 NOSIG;
0147066621999992010012017204+47183+007417FM-15+0430LSZG V0209999C000010036019N0015001N1-00201-00201999999ADDGA1091+003601999GF109991999999000251999999MA1101391999999MW1731REMMET072METAR LSZG 201720Z 00000KT 1500 SN VV012 M02/M02 Q1014 R25/490394 NOSIG;
0148066621999992010012017504+47183+007417FM-15+0430LSZG V0209999C000010036019N0015001N1-00201-00201999999ADDGA1091+003601999GF109991999999000251999999MA1101391999999MW1751REMMET073METAR LSZG 201750Z 00000KT 1500 +SN VV012 M02/M02 Q1014 R25/490394 NOSIG;
0146066621999992010012018504+47183+007417FM-15+0430LSZG V0209999C000010036019N0015001N1-00201-00201999999ADDGA1091+003601999GF109991999999000251999999MA1101491999999MW1751REMMET071METAR LSZG 201850Z 00000KT 1500 +SN VV012 M02/M02 Q1015 R/SNOCLO NOSIG;
0147066621999992010012106504+47183+007417FM-15+0430LSZG V0203101N000510009019N0025001N1+00001+00001999999ADDGA1081+000901999GF108991999999999999999999MA1102001999999MW1101REMMET072METAR LSZG 210650Z 31001KT 2500 BR OVC003 00/M00 Q1020 R25/690293 NOSIG;
0147066621999992010012107204+47183+007417FM-15+0430LSZG V0209999V000510009019N0015001N1+00001+00001999999ADDGA1081+000901999GF108991999999999999999999MA1102001999999MW1101REMMET072METAR LSZG 210720Z VRB01KT 1500 BR OVC003 00/M00 Q1020 R25/690293 NOSIG;
0142066621999992010012107504+47183+007417FM-15+0430LSZG V0209999C000010009019N0015001N1+00001+00001999999ADDGA1081+000901999GF108991999999999999999999MA1102001999999MW1101REMMET067METAR LSZG 210750Z 00000KT 1500 BR OVC003 00/M00 Q1020 R25/D NOSIG;
0141066621999992010012108204+47183+007417FM-15+0430LSZG V0202401N001010006019N0015001N1+00101+00001999999ADDGA1081+000601999GF108991999999999999999999MA1102101999999MW1101REMMET066METAR LSZG 210820Z 24002KT 1500 BR OVC002 01/00 Q1021 R25/D NOSIG;
0134066621999992010012108504+47183+007417FM-15+0430LSZG V0209999V001510006019N0006001N1+00101+00001999999ADDGA1091+000601999GF109991999999000251999999MA1102101999999MW1451REMMET059METAR LSZG 210850Z VRB03KT 0600 FG VV002 01/00 Q1021 NOSIG;
0134066621999992010012109204+47183+007417FM-15+0430LSZG V0202301N001510006019N0006001N1+00101+00001999999ADDGA1091+000601999GF109991999999000251999999MA1102101999999MW1451REMMET059METAR LSZG 210920Z 23003KT 0600 FG VV002 01/00 Q1021 NOSIG;
0134066621999992010012109504+47183+007417FM-15+0430LSZG V0202401N001010006019N0006001N1+00101+00001999999ADDGA1091+000601999GF109991999999000251999999MA1102201999999MW1451REMMET059METAR LSZG 210950Z 24002KT 0600 FG VV002 01/00 Q1022 NOSIG;
0146066621999992010012110204+47183+007417FM-15+0430LSZG V0202501N000510006019N0008001N1+00001+00001999999ADDGA1091+000601999GF109991999999000251999999MA1102201999999MW1451REMMET071METAR LSZG 211020Z 25001KT 0800 FG VV002 00/00 Q1022 BECMG 1500 OVC004;
0146066621999992010012110504+47183+007417FM-15+0430LSZG V0202501N001010006019N0009001N1+00001+00001999999ADDGA1091+000601999GF109991999999000251999999MA1102201999999MW1451REMMET071METAR LSZG 211050Z 25002KT 0900 FG VV002 00/00 Q1022 BECMG 1500 OVC004;
0135066621999992010012111204+47183+007417FM-15+0430LSZG V0202301N001510006019N0015001N1+00101+00001999999ADDGA1081+000601999GF108991999999999999999999MA1102201999999MW1101REMMET060METAR LSZG 211120Z 23003KT 1500 BR OVC002 01/00 Q1022 NOSIG;
0136066621999992010012112204+47183+007417FM-15+0430LSZG V0202201N001510012019N0025001N1+00101+00001999999ADDGA1081+001201999GF108991999999999999999999MA1102101999999MW1101REMMET061METAR LSZG 211220Z 22003KT 2500 BR OVC004 01/M00 Q1021 NOSIG;
0136066621999992010012112504+47183+007417FM-15+0430LSZG V0202201N001510012019N0030001N1+00101+00001999999ADDGA1081+001201999GF108991999999999999999999MA1102101999999MW1101REMMET061METAR LSZG 211250Z 22003KT 3000 BR OVC004 01/M00 Q1021 NOSIG;
0135066621999992010012113204+47183+007417FM-15+0430LSZG V0202101N001010012019N0030001N1+00101+00001999999ADDGA1081+001201999GF108991999999999999999999MA1102101999999MW1101REMMET060METAR LSZG 211320Z 21002KT 3000 BR OVC004 01/00 Q1021 NOSIG;
0136066621999992010012113504+47183+007417FM-15+0430LSZG V0202201N001010012019N0030001N1+00101+00001999999ADDGA1081+001201999GF108991999999999999999999MA1102101999999MW1101REMMET061METAR LSZG 211350Z 22002KT 3000 BR OVC004 01/M00 Q1021 NOSIG;
0136066621999992010012114204+47183+007417FM-15+0430LSZG V0202201N001010012019N0030001N1+00101+00001999999ADDGA1081+001201999GF108991999999999999999999MA1102101999999MW1101REMMET061METAR LSZG 211420Z 22002KT 3000 BR OVC004 01/M00 Q1021 NOSIG;
0136066621999992010012114504+47183+007417FM-15+0430LSZG V0202101N001510012019N0030001N1+00101+00001999999ADDGA1081+001201999GF108991999999999999999999MA1102101999999MW1101REMMET061METAR LSZG 211450Z 21003KT 3000 BR OVC004 01/M00 Q1021 NOSIG;
0136066621999992010012115504+47183+007417FM-15+0430LSZG V0201801N001010009019N0030001N1+00101+00001999999ADDGA1081+000901999GF108991999999999999999999MA1102201999999MW1101REMMET061METAR LSZG 211550Z 18002KT 3000 BR OVC003 01/M00 Q1022 NOSIG;
0136066621999992010012116204+47183+007417FM-15+0430LSZG V0201501N001010006019N0015001N1+00101+00001999999ADDGA1081+000601999GF108991999999999999999999MA1102201999999MW1101REMMET061METAR LSZG 211620Z 15002KT 1500 BR OVC002 01/M00 Q1022 NOSIG;
0139066621999992010012206204+47183+007417FM-15+0430LSZG V0202401N000510006019N0005001N1+00001+00001999999ADDGA1081+000601999GF108991999999999999999999MA1102201999999MW1481REMMET064METAR LSZG 220620Z 24001KT 0500 FZFG OVC002 M00/M00 Q1022 NOSIG;
0139066621999992010012206504+47183+007417FM-15+0430LSZG V0202401N001010006019N0005001N1+00001+00001999999ADDGA1081+000601999GF108991999999999999999999MA1102201999999MW1481REMMET064METAR LSZG 220650Z 24002KT 0500 FZFG OVC002 M00/M00 Q1022 NOSIG;
0139066621999992010012207204+47183+007417FM-15+0430LSZG V0202201N001010006019N0003001N1+00001-00101999999ADDGA1081+000601999GF108991999999999999999999MA1102201999999MW1481REMMET064METAR LSZG 220720Z 22002KT 0300 FZFG OVC002 M00/M01 Q1022 NOSIG;
0139066621999992010012207504+47183+007417FM-15+0430LSZG V0202401N000510006019N0004001N1+00001+00001999999ADDGA1081+000601999GF108991999999999999999999MA1102201999999MW1481REMMET064METAR LSZG 220750Z 24001KT 0400 FZFG OVC002 M00/M00 Q1022 NOSIG;
0141066621999992010012209504+47183+007417FM-15+0430LSZG V0202101N000510006019N0015001N1+00001+00001999999ADDGA1071+000601999GF107991999999999999999999MA1102301999999MW1101REMMET066METAR LSZG 220950Z 21001KT 1500 BR BKN002 00/M00 Q1023 BECMG 3000;
0141066621999992010012210204+47183+007417FM-15+0430LSZG V0209999V000510006019N0015001N1+00001+00001999999ADDGA1071+000601999GF107991999999999999999999MA1102301999999MW1101REMMET066METAR LSZG 221020Z VRB01KT 1500 BR BKN002 00/M00 Q1023 BECMG 3000;
0141066621999992010012210504+47183+007417FM-15+0430LSZG V0202701N000510009019N0015001N1+00001+00001999999ADDGA1071+000901999GF107991999999999999999999MA1102301999999MW1101REMMET066METAR LSZG 221050Z 27001KT 1500 BR BKN003 00/M00 Q1023 BECMG 3000;
0141066621999992010012211204+47183+007417FM-15+0430LSZG V0209999C000010009019N0015001N1+00001+00001999999ADDGA1071+000901999GF107991999999999999999999MA1102201999999MW1101REMMET066METAR LSZG 221120Z 00000KT 1500 BR BKN003 00/M00 Q1022 BECMG 3000;
0159066621999992010012211504+47183+007417FM-15+0430LSZG V0209999V000510039019N0025001N1+00101+00001999999ADDGA1041+000901999GA2071+003901999GF107991999999999999999999MA1102201999999MW1101REMMET068METAR LSZG 221150Z VRB01KT 2500 BR SCT003 BKN013 01/M00 Q1022 NOSIG;
0159066621999992010012212204+47183+007417FM-15+0430LSZG V0201301N001010039019N0045001N1+00201+00001999999ADDGA1041+000901999GA2071+003901999GF107991999999999999999999MA1102201999999MW1101REMMET068METAR LSZG 221220Z 13002KT 4500 BR SCT003 BKN013 02/M00 Q1022 NOSIG;
0126066621999992010012212504+47183+007417FM-15+0430LSZG V0200801N002110036019N0060001N1+00201+00001999999ADDGA1071+003601999GF107991999999999999999999MA1102201999999REMMET057METAR LSZG 221250Z 08004KT 6000 BKN012 02/00 Q1022 NOSIG;
0127066621999992010012213204+47183+007417FM-15+0430LSZG V0200801N001510036019N0060001N1+00201-00101999999ADDGA1071+003601999GF107991999999999999999999MA1102201999999REMMET058METAR LSZG 221320Z 08003KT 6000 BKN012 02/M01 Q1022 NOSIG;
0127066621999992010012213504+47183+007417FM-15+0430LSZG V0200901N003110039019N0060001N1+00201-00101999999ADDGA1081+003901999GF108991999999999999999999MA1102201999999REMMET058METAR LSZG 221350Z 09006KT 6000 OVC013 02/M01 Q1022 NOSIG;
0127066621999992010012214504+47183+007417FM-15+0430LSZG V0200701N003110051019N0060001N1+00201-00101999999ADDGA1071+005101999GF107991999999999999999999MA1102201999999REMMET058METAR LSZG 221450Z 07006KT 6000 BKN017 02/M01 Q1022 NOSIG;
0127066621999992010012215204+47183+007417FM-15+0430LSZG V0200801N002110054019N0070001N1+00201-00101999999ADDGA1071+005401999GF107991999999999999999999MA1102201999999REMMET058METAR LSZG 221520Z 08004KT 7000 BKN018 02/M01 Q1022 NOSIG;
0127066621999992010012215504+47183+007417FM-15+0430LSZG V0200701N001510060019N0070001N1+00101-00101999999ADDGA1071+006001999GF107991999999999999999999MA1102201999999REMMET058METAR LSZG 221550Z 07003KT 7000 BKN020 01/M01 Q1022 NOSIG;
0127066621999992010012216204+47183+007417FM-15+0430LSZG V0200601N001510060019N0070001N1+00101-00101999999ADDGA1071+006001999GF107991999999999999999999MA1102201999999REMMET058METAR LSZG 221620Z 06003KT 7000 BKN020 01/M01 Q1022 NOSIG;
0127066621999992010012216504+47183+007417FM-15+0430LSZG V0200301N002610063019N0080001N1+00101-00201999999ADDGA1071+006301999GF107991999999999999999999MA1102201999999REMMET058METAR LSZG 221650Z 03005KT 8000 BKN021 01/M02 Q1022 NOSIG;
0127066621999992010012217204+47183+007417FM-15+0430LSZG V0200601N001510063019N0080001N1+00101-00201999999ADDGA1071+006301999GF107991999999999999999999MA1102201999999REMMET058METAR LSZG 221720Z 06003KT 8000 BKN021 01/M02 Q1022 NOSIG;
0127066621999992010012217504+47183+007417FM-15+0430LSZG V0200601N001510066019N0080001N1+00001-00201999999ADDGA1071+006601999GF107991999999999999999999MA1102201999999REMMET058METAR LSZG 221750Z 06003KT 8000 BKN022 00/M02 Q1022 NOSIG;
0127066621999992010012218204+47183+007417FM-15+0430LSZG V0200901N001010066019N0080001N1+00001-00201999999ADDGA1071+006601999GF107991999999999999999999MA1102301999999REMMET058METAR LSZG 221820Z 09002KT 8000 BKN022 00/M02 Q1023 NOSIG;
0128066621999992010012218504+47183+007417FM-15+0430LSZG V0201101N001010072019N0080001N1+00001-00101999999ADDGA1071+007201999GF107991999999999999999999MA1102201999999REMMET059METAR LSZG 221850Z 11002KT 8000 BKN024 M00/M01 Q1022 NOSIG;
0128066621999992010012219204+47183+007417FM-15+0430LSZG V0209999V000510072019N0080001N1-00101-00201999999ADDGA1071+007201999GF107991999999999999999999MA1102301999999REMMET059METAR LSZG 221920Z VRB01KT 8000 BKN024 M01/M02 Q1023 NOSIG;
0137066621999992010012306504+47183+007417FM-15+0430LSZG V0209999V000510051019N0050001N1+00001-00201999999ADDGA1081+005101999GF108991999999999999999999MA1102201999999MW1101REMMET062METAR LSZG 230650Z VRB01KT 5000 BR OVC017 M00/M02 Q1022 NOSIG;
0137066621999992010012307204+47183+007417FM-15+0430LSZG V0209999C000010048019N0050001N1+00001-00201999999ADDGA1081+004801999GF108991999999999999999999MA1102201999999MW1101REMMET062METAR LSZG 230720Z 00000KT 5000 BR OVC016 M00/M02 Q1022 NOSIG;
0137066621999992010012307504+47183+007417FM-15+0430LSZG V0202601N001010048019N0050001N1+00001-00201999999ADDGA1081+004801999GF108991999999999999999999MA1102201999999MW1101REMMET062METAR LSZG 230750Z 26002KT 5000 BR OVC016 M00/M02 Q1022 NOSIG;
0137066621999992010012308204+47183+007417FM-15+0430LSZG V0202101N001010051019N0050001N1+00001-00201999999ADDGA1081+005101999GF108991999999999999999999MA1102201999999MW1101REMMET062METAR LSZG 230820Z 21002KT 5000 BR OVC017 M00/M02 Q1022 NOSIG;
0136066621999992010012308504+47183+007417FM-15+0430LSZG V0202301N001010051019N0050001N1+00001-00301999999ADDGA1081+005101999GF108991999999999999999999MA1102201999999MW1101REMMET061METAR LSZG 230850Z 23002KT 5000 BR OVC017 00/M03 Q1022 NOSIG;
0136066621999992010012309204+47183+007417FM-15+0430LSZG V0202301N001510051019N0050001N1+00001-00201999999ADDGA1081+005101999GF108991999999999999999999MA1102201999999MW1101REMMET061METAR LSZG 230920Z 23003KT 5000 BR OVC017 00/M02 Q1022 NOSIG;
0127066621999992010012309504+47183+007417FM-15+0430LSZG V0202401N001010051019N0060001N1+00001-00201999999ADDGA1071+005101999GF107991999999999999999999MA1102201999999REMMET058METAR LSZG 230950Z 24002KT 6000 BKN017 00/M02 Q1022 NOSIG;
0127066621999992010012310204+47183+007417FM-15+0430LSZG V0202201N001510051019N0060001N1+00101-00201999999ADDGA1071+005101999GF107991999999999999999999MA1102201999999REMMET058METAR LSZG 231020Z 22003KT 6000 BKN017 01/M02 Q1022 NOSIG;
0127066621999992010012310504+47183+007417FM-15+0430LSZG V0202301N002110051019N0060001N1+00101-00201999999ADDGA1071+005101999GF107991999999999999999999MA1102201999999REMMET058METAR LSZG 231050Z 23004KT 6000 BKN017 01/M02 Q1022 NOSIG;
0127066621999992010012311204+47183+007417FM-15+0430LSZG V0202301N002110051019N0060001N1+00101-00301999999ADDGA1071+005101999GF107991999999999999999999MA1102201999999REMMET058METAR LSZG 231120Z 23004KT 6000 BKN017 01/M03 Q1022 NOSIG;
0135066621999992010012311504+47183+007417FM-15+0430LSZG V0202201N002610048019N0060001N1+00101-00301999999ADDGA1071+004801999GF107991999999999999999999MA1102201999999REMMET066METAR LSZG 231150Z 22005KT 190V250 6000 BKN016 01/M03 Q1022 NOSIG;
0127066621999992010012312204+47183+007417FM-15+0430LSZG V0202201N002610045019N0070001N1+00201-00201999999ADDGA1071+004501999GF107991999999999999999999MA1102101999999REMMET058METAR LSZG 231220Z 22005KT 7000 BKN015 02/M02 Q1021 NOSIG;
0135066621999992010012312504+47183+007417FM-15+0430LSZG V0202301N002110045019N0070001N1+00201-00201999999ADDGA1071+004501999GF107991999999999999999999MA1102101999999REMMET066METAR LSZG 231250Z 23004KT 200V270 7000 BKN015 02/M02 Q1021 NOSIG;
0127066621999992010012313204+47183+007417FM-15+0430LSZG V0202201N002610045019N0070001N1+00201-00201999999ADDGA1071+004501999GF107991999999999999999999MA1102101999999REMMET058METAR LSZG 231320Z 22005KT 7000 BKN015 02/M02 Q1021 NOSIG;
0135066621999992010012313504+47183+007417FM-15+0430LSZG V0202301N001510051019N0070001N1+00201-00301999999ADDGA1071+005101999GF107991999999999999999999MA1102101999999REMMET066METAR LSZG 231350Z 23003KT 160V270 7000 BKN017 02/M03 Q1021 NOSIG;
0127066621999992010012314504+47183+007417FM-15+0430LSZG V0209999V001012200019N0070001N1+00201-00301999999ADDGA1021+005101999GF102991999999999999999999MA1102101999999REMMET058METAR LSZG 231450Z VRB02KT 7000 FEW017 02/M03 Q1021 NOSIG;
0150066621999992010012315504+47183+007417FM-15+0430LSZG V0209999C000010600019N0060001N1+00101-00201999999ADDGA1021+005101999GA2071+060001999GF107991999999999999999999MA1102101999999REMMET065METAR LSZG 231550Z 00000KT 6000 FEW017 BKN200 01/M02 Q1021 NOSIG;
0138066621999992010012406504+47183+007417FM-15+0430LSZG V0202301N001510009019N0008001N1-00101-00201999999ADDGA1091+000901999GF109991999999000251999999MA1102201999999MW1491REMMET063METAR LSZG 240650Z 23003KT 0800 FZFG VV003 M01/M02 Q1022 NOSIG;
0136066621999992010012407204+47183+007417FM-15+0430LSZG V0202701N001510009019N0012001N1-00201-00201999999ADDGA1091+000901999GF109991999999000251999999MA1102201999999MW1101REMMET061METAR LSZG 240720Z 27003KT 1200 BR VV003 M02/M02 Q1022 NOSIG;
0136066621999992010012407504+47183+007417FM-15+0430LSZG V0202601N001010009019N0015001N1-00201-00201999999ADDGA1091+000901999GF109991999999000251999999MA1102201999999MW1101REMMET061METAR LSZG 240750Z 26002KT 1500 BR VV003 M02/M02 Q1022 NOSIG;
0136066621999992010012408204+47183+007417FM-15+0430LSZG V0203001N001010012019N0015001N1-00101-00201999999ADDGA1091+001201999GF109991999999000251999999MA1102301999999MW1101REMMET061METAR LSZG 240820Z 30002KT 1500 BR VV004 M01/M02 Q1023 NOSIG;
0136066621999992010012408504+47183+007417FM-15+0430LSZG V0209999V001010012019N0015001N1-00101-00201999999ADDGA1091+001201999GF109991999999000251999999MA1102301999999MW1101REMMET061METAR LSZG 240850Z VRB02KT 1500 BR VV004 M01/M02 Q1023 NOSIG;
0136066621999992010012409204+47183+007417FM-15+0430LSZG V0209999V000510012019N0018001N1-00101-00201999999ADDGA1091+001201999GF109991999999000251999999MA1102301999999MW1101REMMET061METAR LSZG 240920Z VRB01KT 1800 BR VV004 M01/M02 Q1023 NOSIG;
0136066621999992010012409504+47183+007417FM-15+0430LSZG V0202501N001010012019N0015001N1-00101-00201999999ADDGA1091+001201999GF109991999999000251999999MA1102301999999MW1101REMMET061METAR LSZG 240950Z 25002KT 1500 BR VV004 M01/M02 Q1023 NOSIG;
